{
  "hash": "0x29f64380d8d88787e2b3988cd41c2b3ce132a552a68eab626b681dc27ec2b4dd",
  "parentHash": "0x18073613adff864d68474c0e90323a6d28cc823759f59341a881ee9085e0fdbe",
  "number": 71476,
  "timestamp": 1439336689,
  "nonce": "0x3a94e8a70675151e",
  "difficulty": 2181476211087,
  "gasLimit": {
    "_hex": "0x2fefd8"
  },
  "gasUsed": {
    "_hex": "0x9400"
  },
  "miner": "0x6dED38803DA575897de5d51b7AEF3b86f35945A1",
  "extraData": "0x476574682f76312e302e312f6c696e75782f676f312e342e32",
  "transactions": [
    {
      "hash": "0xd42d5d187b84dd06f60784fcf7b66d3aa49cf9687d86ee9f1e48fec7f998992e",
      "blockHash": "0x29f64380d8d88787e2b3988cd41c2b3ce132a552a68eab626b681dc27ec2b4dd",
      "blockNumber": 71476,
      "transactionIndex": 0,
      "confirmations": null,
      "from": "0x17580B766f7453525ca4C6A88b01b50570EA088C",
      "gasPrice": {
        "_hex": "0xd1e79bc35"
      },
      "gasLimit": {
        "_hex": "0x61a80"
      },
      "to": "0x5Fe5B7546D1628f7348B023A0393de1FC825A4fD",
      "value": {
        "_hex": "0x29a2241af62c0000"
      },
      "nonce": 202,
      "data": "0xb595b8b50000000000000000000000000000000000000000000000000000000000000001",
      "r": "0xd23dcf7799c3b65f4f298cbd96106dd40b29f1dc102be743c226d062c6b5c9ef",
      "s": "0x3e71415ef66f47028e135c82e88d92b73016767b65d22a168f7b597139dd0074",
      "v": 27,
      "creates": null,
      "raw": "0xf89281ca850d1e79bc3583061a80945fe5b7546d1628f7348b023a0393de1fc825a4fd8829a2241af62c0000a4b595b8b500000000000000000000000000000000000000000000000000000000000000011ba0d23dcf7799c3b65f4f298cbd96106dd40b29f1dc102be743c226d062c6b5c9efa03e71415ef66f47028e135c82e88d92b73016767b65d22a168f7b597139dd0074",
      "networkId": 0,
      "chainId": 0
    }
  ]
}