{
  "hash": "0x2ed87537795ec423ba62a7f4e2eefa8c9f0e97c9e50c4b9cf0e1e28b2f334f84",
  "parentHash": "0xf9f2087c1a08e197bf4c869e7e4fa4dca1a39865f7a3ba1119facc680e0e339b",
  "number": 108240,
  "timestamp": 1439936987,
  "nonce": "0x8def7ec691e7731a",
  "difficulty": 4340554327156,
  "gasLimit": {
    "_hex": "0x2fefd8"
  },
  "gasUsed": {
    "_hex": "0x5208"
  },
  "miner": "0xe6A7a1d47ff21B6321162AEA7C6CB457D5476Bca",
  "extraData": "0x476574682f76312e302e312d38326566323666362f6c696e75782f676f312e34",
  "transactions": [
    {
      "hash": "0x9a966fda19a80a82cfbf83f7ca1691cde71fe88702d9de0cd4a668de495bc566",
      "blockHash": "0x2ed87537795ec423ba62a7f4e2eefa8c9f0e97c9e50c4b9cf0e1e28b2f334f84",
      "blockNumber": 108240,
      "transactionIndex": 0,
      "confirmations": null,
      "from": "0x1E596a81B357c6F24970CC313DF6DBdAabD0d09E",
      "gasPrice": {
        "_hex": "0xd1f232731"
      },
      "gasLimit": {
        "_hex": "0x5208"
      },
      "to": "0xA10FFfC38C2120681982468Ac7Ad5592bb1C76aE",
      "value": {
        "_hex": "0x2dc02607e4a938c800"
      },
      "nonce": 1,
      "data": "0x",
      "r": "0x063b1a27b066725b19e2395fb88ec0a0c2d5dcc8ad0516a63bfe57e1c48b9d5c",
      "s": "0x46a9f0cb4d939868a85aff302a5debca7138bae2833cbe0ab7c4f38e4ab5b7ea",
      "v": 28,
      "creates": null,
      "raw": "0xf86d01850d1f23273182520894a10fffc38c2120681982468ac7ad5592bb1c76ae892dc02607e4a938c800801ca0063b1a27b066725b19e2395fb88ec0a0c2d5dcc8ad0516a63bfe57e1c48b9d5ca046a9f0cb4d939868a85aff302a5debca7138bae2833cbe0ab7c4f38e4ab5b7ea",
      "networkId": 0,
      "chainId": 0
    }
  ]
}