{
  "hash": "0xdecd71f3850c581c08739e2ba19137ea11a487110f8f503a42ee9435a94e11ac",
  "parentHash": "0xca625753e5677593576272244f53c3a3565c8e0f55ea83faaaab17ef729510d7",
  "number": 60883,
  "timestamp": 1439163140,
  "nonce": "0xb3c3f09701c0ad72",
  "difficulty": 1737175760697,
  "gasLimit": {
    "_hex": "0x2fe3d8"
  },
  "gasUsed": {
    "_hex": "0xf618"
  },
  "miner": "0x47ff6576639c2e94762eA5443978D7681C0E78DC",
  "extraData": "0x476574682f76312e302e312f6c696e75782f676f312e342e32",
  "transactions": [
    {
      "hash": "0x2038d9936f12d7d40b69867d382cb15a7d7a99e47b5fb08ccad469cdfab1b230",
      "blockHash": "0xdecd71f3850c581c08739e2ba19137ea11a487110f8f503a42ee9435a94e11ac",
      "blockNumber": 60883,
      "transactionIndex": 0,
      "confirmations": null,
      "from": "0x120A270bbC009644e35F0bB6ab13f95b8199c4ad",
      "gasPrice": {
        "_hex": "0xdf2741d82"
      },
      "gasLimit": {
        "_hex": "0x15f90"
      },
      "to": "0x9FfbDc745507Be96FEdbA053b7deC24A7C54b1f3",
      "value": {
        "_hex": "0x56bc75e2d63100000"
      },
      "nonce": 54,
      "data": "0x",
      "r": "0x31d40679d43d0de3e2498d07f74f46b0a1f1c43e4938370ecb2b0c8eef15c153",
      "s": "0x321253f380ec44f80425f32e4ee49aebd3c6c19e7066fa2bcd4121edef2b27d9",
      "v": 27,
      "creates": null,
      "raw": "0xf86e36850df2741d8283015f90949ffbdc745507be96fedba053b7dec24a7c54b1f389056bc75e2d63100000801ba031d40679d43d0de3e2498d07f74f46b0a1f1c43e4938370ecb2b0c8eef15c153a0321253f380ec44f80425f32e4ee49aebd3c6c19e7066fa2bcd4121edef2b27d9",
      "networkId": 0,
      "chainId": 0
    },
    {
      "hash": "0xe055bdd493c6a09d54105198f85037bd099e09093a56635cb754e2d27f28531e",
      "blockHash": "0xdecd71f3850c581c08739e2ba19137ea11a487110f8f503a42ee9435a94e11ac",
      "blockNumber": 60883,
      "transactionIndex": 1,
      "confirmations": null,
      "from": "0x5270Ce29F8Ce2baB6BF583521D83B42285Fcef37",
      "gasPrice": {
        "_hex": "0xd82b8b9c9"
      },
      "gasLimit": {
        "_hex": "0x5208"
      },
      "to": "0x32Be343B94f860124dC4fEe278FDCBD38C102D88",
      "value": {
        "_hex": "0x56bc2fe0b2a8e8000"
      },
      "nonce": 0,
      "data": "0x",
      "r": "0x7fbbe95a6bc1b7a3f864de3882085f92b0f7b8ecb2b33b68e197e2590d6e6ae3",
      "s": "0x7f4f8d272c910fee1554af536ab618621830a63f08c1e90d63c0ae1807f12fa3",
      "v": 28,
      "creates": null,
      "raw": "0xf86d80850d82b8b9c98252089432be343b94f860124dc4fee278fdcbd38c102d8889056bc2fe0b2a8e8000801ca07fbbe95a6bc1b7a3f864de3882085f92b0f7b8ecb2b33b68e197e2590d6e6ae3a07f4f8d272c910fee1554af536ab618621830a63f08c1e90d63c0ae1807f12fa3",
      "networkId": 0,
      "chainId": 0
    },
    {
      "hash": "0xed4aef87985a15f9df46207e0413aaff07dda258b29aea02ef4eed939b1fbb60",
      "blockHash": "0xdecd71f3850c581c08739e2ba19137ea11a487110f8f503a42ee9435a94e11ac",
      "blockNumber": 60883,
      "transactionIndex": 2,
      "confirmations": null,
      "from": "0x32Be343B94f860124dC4fEe278FDCBD38C102D88",
      "gasPrice": {
        "_hex": "0xd82b8b9c9"
      },
      "gasLimit": {
        "_hex": "0x5208"
      },
      "to": "0x25c6e74Ff1d928df98137AF4dF8430df24F07Cd7",
      "value": {
        "_hex": "0x821ab0d4414980000"
      },
      "nonce": 127,
      "data": "0x",
      "r": "0x5f69a25281b4dc7f27d5fad0346d83cb0b86c2128d55925574c64d23f9299700",
      "s": "0x2098334549c15a1458d21b4200721de8ca58b2479b6ba2cd41c9f14cc876b9a8",
      "v": 28,
      "creates": null,
      "raw": "0xf86d7f850d82b8b9c98252089425c6e74ff1d928df98137af4df8430df24f07cd7890821ab0d4414980000801ca05f69a25281b4dc7f27d5fad0346d83cb0b86c2128d55925574c64d23f9299700a02098334549c15a1458d21b4200721de8ca58b2479b6ba2cd41c9f14cc876b9a8",
      "networkId": 0,
      "chainId": 0
    }
  ]
}