{
  "hash": "0xbf20dae17c4f01aad92333b48a91e9f9827006445b8d27ddcce9c890731ea36d",
  "parentHash": "0x107dc30746f6a568f185bc976c435f8b95efba83de95e809ee95420a40d68f1f",
  "number": 119302,
  "timestamp": 1440140441,
  "nonce": "0x30bba63e7c905498",
  "difficulty": 4416016567919,
  "gasLimit": {
    "_hex": "0x2fefd8"
  },
  "gasUsed": {
    "_hex": "0x546c"
  },
  "miner": "0x52bc44d5378309EE2abF1539BF71dE1b7d7bE3b5",
  "extraData": "0xd783010002844765746887676f312e342e32856c696e7578",
  "transactions": [
    {
      "hash": "0xbbee47e90f86c959e117732662a2397315896d7e00196da6853583e9061b46db",
      "blockHash": "0xbf20dae17c4f01aad92333b48a91e9f9827006445b8d27ddcce9c890731ea36d",
      "blockNumber": 119302,
      "transactionIndex": 0,
      "confirmations": null,
      "from": "0x911ff233E1A211c0172C92B46Cf997030582c83a",
      "gasPrice": {
        "_hex": "0x110c8f7d8de"
      },
      "gasLimit": {
        "_hex": "0xc350"
      },
      "to": "0x2910543Af39abA0Cd09dBb2D50200b3E800A63D2",
      "value": {
        "_hex": "0x7ce66c50e2840000"
      },
      "nonce": 3,
      "data": "0x454e4e473132374452",
      "r": "0xb6ee2706006d78edbbaa7bca5c33ef1ab475454377dbdc67c2bf76c0c3c730ed",
      "s": "0x4208a758d3df2aeb8ddeb7069aeed8817e96a622df0b6ac714901b0253cb3503",
      "v": 28,
      "creates": null,
      "raw": "0xf87603860110c8f7d8de82c350942910543af39aba0cd09dbb2d50200b3e800a63d2887ce66c50e284000089454e4e4731323744521ca0b6ee2706006d78edbbaa7bca5c33ef1ab475454377dbdc67c2bf76c0c3c730eda04208a758d3df2aeb8ddeb7069aeed8817e96a622df0b6ac714901b0253cb3503",
      "networkId": 0,
      "chainId": 0
    }
  ]
}