{
  "hash": "0xda9c86dd0f8ea0a18a290efd2caa56d034a955637452b8488f5c4e823cdfb5fb",
  "parentHash": "0x8fb5b39991cfa3c4ba0c3cafa7eeb238e33796b04c4e367b609c431959d07ea9",
  "number": 95779,
  "timestamp": 1439729475,
  "nonce": "0xb8dd61b087716553",
  "difficulty": 3633834036523,
  "gasLimit": {
    "_hex": "0x2fefd8"
  },
  "gasUsed": {
    "_hex": "0x5208"
  },
  "miner": "0xf927a40C8B7F6E07c5af7FA2155B4864a4112B13",
  "extraData": "0x",
  "transactions": [
    {
      "hash": "0x1849915d4982ee45a39d8464548e3ce256415ec22e9a79a9085ec20afdc2783b",
      "blockHash": "0xda9c86dd0f8ea0a18a290efd2caa56d034a955637452b8488f5c4e823cdfb5fb",
      "blockNumber": 95779,
      "transactionIndex": 0,
      "confirmations": null,
      "from": "0xCdA0AD7542e30BF520652A05056eBe0105c7e49A",
      "gasPrice": {
        "_hex": "0xe1c462f7b"
      },
      "gasLimit": {
        "_hex": "0x1e8480"
      },
      "to": "0x02E816AFC1b5C0f39852131959D946eb3b07b5ad",
      "value": {
        "_hex": "0x0"
      },
      "nonce": 6,
      "data": "0x",
      "r": "0x631fcacd72525d0f0b1028b1d1aa5a86e2714c58b0a4b782d4067fe928e98040",
      "s": "0x16b8c0a157e91b8e890ae3ac7ce32b3b18eb90233bd22ff41ccd25708819dbac",
      "v": 28,
      "creates": null,
      "raw": "0xf86506850e1c462f7b831e84809402e816afc1b5c0f39852131959d946eb3b07b5ad80801ca0631fcacd72525d0f0b1028b1d1aa5a86e2714c58b0a4b782d4067fe928e98040a016b8c0a157e91b8e890ae3ac7ce32b3b18eb90233bd22ff41ccd25708819dbac",
      "networkId": 0,
      "chainId": 0
    }
  ]
}