{
  "hash": "0xcd0216c8761031f16ffe1c904d7c0b1e180475ad2207f0d806e3a53babc2f316",
  "parentHash": "0xcefc4845a94b45946d9bb8cd444879493a413de94fc110dc9d8c818097940d2b",
  "number": 71478,
  "timestamp": 1439336720,
  "nonce": "0x8cae752f4ddd8e9b",
  "difficulty": 2179346383330,
  "gasLimit": {
    "_hex": "0x2fefd8"
  },
  "gasUsed": {
    "_hex": "0xaec1"
  },
  "miner": "0xee5379D0c1ca47327368027455074C26D9952628",
  "extraData": "0x476574682f76312e302e312d38326566323666362f6c696e75782f676f312e34",
  "transactions": [
    {
      "hash": "0x832100a386ddfee032e9ca2a3373ed49bfb9f425e189127f1ef35f8be9eaf0d4",
      "blockHash": "0xcd0216c8761031f16ffe1c904d7c0b1e180475ad2207f0d806e3a53babc2f316",
      "blockNumber": 71478,
      "transactionIndex": 0,
      "confirmations": null,
      "from": "0x17580B766f7453525ca4C6A88b01b50570EA088C",
      "gasPrice": {
        "_hex": "0xcdb9303c6"
      },
      "gasLimit": {
        "_hex": "0x61a80"
      },
      "to": "0x5Fe5B7546D1628f7348B023A0393de1FC825A4fD",
      "value": {
        "_hex": "0x29a2241af62c0000"
      },
      "nonce": 203,
      "data": "0xb595b8b50000000000000000000000000000000000000000000000000000000000000001",
      "r": "0x57c731c1067701f64547f7a115ed1e223964fda768a0b8230387726e464cccc3",
      "s": "0x2e721fe64dd95ee8d4a7c74f6d19e14670c5918e6c3b5c18b93d32423eb55b02",
      "v": 27,
      "creates": null,
      "raw": "0xf89281cb850cdb9303c683061a80945fe5b7546d1628f7348b023a0393de1fc825a4fd8829a2241af62c0000a4b595b8b500000000000000000000000000000000000000000000000000000000000000011ba057c731c1067701f64547f7a115ed1e223964fda768a0b8230387726e464cccc3a02e721fe64dd95ee8d4a7c74f6d19e14670c5918e6c3b5c18b93d32423eb55b02",
      "networkId": 0,
      "chainId": 0
    }
  ]
}