{
  "hash": "0x3acfb9c34eb97bf58c379c0f26f3a25913f3e1e711bee549c1c311f8d0901cc0",
  "parentHash": "0x74b5d92df8b998946ec64adda614140c24983123537c3cdb277ced624af8231a",
  "number": 53288,
  "timestamp": 1439035333,
  "nonce": "0xf81f78df2f9e6156",
  "difficulty": 1582376410658,
  "gasLimit": {
    "_hex": "0x23d091"
  },
  "gasUsed": {
    "_hex": "0xa410"
  },
  "miner": "0x00eBA8Ef4fF9B21Ec2FFF273953fDCC81f6fE7da",
  "extraData": "0x476574682f76312e302e312f6c696e75782f676f312e342e32",
  "transactions": [
    {
      "hash": "0x8ffb7bdf641c3627bcd0fd5be84eeed66cf267b12ac41e35fd6ad10a266dcfe5",
      "blockHash": "0x3acfb9c34eb97bf58c379c0f26f3a25913f3e1e711bee549c1c311f8d0901cc0",
      "blockNumber": 53288,
      "transactionIndex": 0,
      "confirmations": null,
      "from": "0xd1B181d3740a85e0D09Df068513Bb081A574EeCf",
      "gasPrice": {
        "_hex": "0xdc1e6c5d8"
      },
      "gasLimit": {
        "_hex": "0x5208"
      },
      "to": "0x32Be343B94f860124dC4fEe278FDCBD38C102D88",
      "value": {
        "_hex": "0xddc4383a193c400"
      },
      "nonce": 0,
      "data": "0x",
      "r": "0xcd423ccc0f73c47ceec98511e61152e12338148cf62b36fc6b76ee00ac3ac0d0",
      "s": "0x682041271b24f32c288d5a2a95f3339ffe1ecbab55de1f792a288729b7615aac",
      "v": 27,
      "creates": null,
      "raw": "0xf86c80850dc1e6c5d88252089432be343b94f860124dc4fee278fdcbd38c102d88880ddc4383a193c400801ba0cd423ccc0f73c47ceec98511e61152e12338148cf62b36fc6b76ee00ac3ac0d0a0682041271b24f32c288d5a2a95f3339ffe1ecbab55de1f792a288729b7615aac",
      "networkId": 0,
      "chainId": 0
    },
    {
      "hash": "0x676a0d05d6ebfe1d064a31ae21d8dd73e31deb0c7e76ae45cfebbe29671becc0",
      "blockHash": "0x3acfb9c34eb97bf58c379c0f26f3a25913f3e1e711bee549c1c311f8d0901cc0",
      "blockNumber": 53288,
      "transactionIndex": 1,
      "confirmations": null,
      "from": "0xc99aC82e248E1813A0F879e93418B2F4D9c29c36",
      "gasPrice": {
        "_hex": "0xdc1e6c5d8"
      },
      "gasLimit": {
        "_hex": "0x5208"
      },
      "to": "0x32Be343B94f860124dC4fEe278FDCBD38C102D88",
      "value": {
        "_hex": "0x6c4fcd859adb0c0000"
      },
      "nonce": 1,
      "data": "0x",
      "r": "0x155cf2655dd12b27eea54d35a4a6975c4b361214da90401843148d6e28148c9b",
      "s": "0x4114edcff169f49c5e4c7b597a5d3c5f90551399c4e37be75407b03e23fd7227",
      "v": 27,
      "creates": null,
      "raw": "0xf86d01850dc1e6c5d88252089432be343b94f860124dc4fee278fdcbd38c102d88896c4fcd859adb0c0000801ba0155cf2655dd12b27eea54d35a4a6975c4b361214da90401843148d6e28148c9ba04114edcff169f49c5e4c7b597a5d3c5f90551399c4e37be75407b03e23fd7227",
      "networkId": 0,
      "chainId": 0
    }
  ]
}