{
  "hash": "0xbf8217a6e8fbc7b0342be531beb0e3314d103f92288644bb5d1a0033c8750c18",
  "parentHash": "0xb426fc5bfbc06a0c65146468cf94b0d5729c72d0d51882671c77d9d2d560a617",
  "number": 94188,
  "timestamp": 1439704045,
  "nonce": "0x9f84a6bd474fd630",
  "difficulty": 3473170277330,
  "gasLimit": {
    "_hex": "0x2fefd8"
  },
  "gasUsed": {
    "_hex": "0x5208"
  },
  "miner": "0xe6A7a1d47ff21B6321162AEA7C6CB457D5476Bca",
  "extraData": "0x476574682f76312e302e312d38326566323666362f6c696e75782f676f312e34",
  "transactions": [
    {
      "hash": "0xed50d331319d213a9ee982ff7eb287600b15bcc78e8d326fb3cd71a5a0e82b20",
      "blockHash": "0xbf8217a6e8fbc7b0342be531beb0e3314d103f92288644bb5d1a0033c8750c18",
      "blockNumber": 94188,
      "transactionIndex": 0,
      "confirmations": null,
      "from": "0x007f7f58D3eb5b7510A301eCC749FC1fCDDBE14D",
      "gasPrice": {
        "_hex": "0xcd8a77067"
      },
      "gasLimit": {
        "_hex": "0x15f90"
      },
      "to": "0xb1abce2918E21ddb93AA452731a12672A3d9F75a",
      "value": {
        "_hex": "0x4563918244f40000"
      },
      "nonce": 25,
      "data": "0x",
      "r": "0x50b987a97bea804c9117352ce93d40c8c062cb03f4f89408d8c446200582c746",
      "s": "0x1a89db79a89c4682212848bd759aeb71d798b542364e5c7cbfe22c780d9f8838",
      "v": 27,
      "creates": null,
      "raw": "0xf86d19850cd8a7706783015f9094b1abce2918e21ddb93aa452731a12672a3d9f75a884563918244f40000801ba050b987a97bea804c9117352ce93d40c8c062cb03f4f89408d8c446200582c746a01a89db79a89c4682212848bd759aeb71d798b542364e5c7cbfe22c780d9f8838",
      "networkId": 0,
      "chainId": 0
    }
  ]
}