{
  "hash": "0x497638349e9cf3359aeb3dc6e45f7a985e28a9b57579dc16b6bd71f72c8ab6ce",
  "parentHash": "0x9ce92cafb876f58a6ad454e21d5695f1bc90c229191f103339ae09d403832855",
  "number": 87418,
  "timestamp": 1439591882,
  "nonce": "0x482f857db39ac65a",
  "difficulty": 3124985138556,
  "gasLimit": {
    "_hex": "0x2fefd8"
  },
  "gasUsed": {
    "_hex": "0xa410"
  },
  "miner": "0xe6A7a1d47ff21B6321162AEA7C6CB457D5476Bca",
  "extraData": "0x476574682f76312e302e312d38326566323666362f6c696e75782f676f312e34",
  "transactions": [
    {
      "hash": "0x8f042e70b24d4a776a34c0ac7254002ebf2bcedd9010008433c0da9cef65fdbf",
      "blockHash": "0x497638349e9cf3359aeb3dc6e45f7a985e28a9b57579dc16b6bd71f72c8ab6ce",
      "blockNumber": 87418,
      "transactionIndex": 0,
      "confirmations": null,
      "from": "0x5D872b122E994EF27C71d7DeB457bf65429eca6C",
      "gasPrice": {
        "_hex": "0x108e5a6d2c0"
      },
      "gasLimit": {
        "_hex": "0x15f90"
      },
      "to": "0xAaE8DCB1d3D159A0D2439c8e0e2F73812320c79d",
      "value": {
        "_hex": "0x6c4fd1ee246e780000"
      },
      "nonce": 5,
      "data": "0x",
      "r": "0xf3253d4b3b30ca137309c64a50c7f860561eb9d1536977e523020bf3104bfd4d",
      "s": "0x74c77108fb4ee3b27e7ca532af764913a9d2bd28b1aad6c60fe64fa9c86e3af8",
      "v": 27,
      "creates": null,
      "raw": "0xf86f05860108e5a6d2c083015f9094aae8dcb1d3d159a0d2439c8e0e2f73812320c79d896c4fd1ee246e780000801ba0f3253d4b3b30ca137309c64a50c7f860561eb9d1536977e523020bf3104bfd4da074c77108fb4ee3b27e7ca532af764913a9d2bd28b1aad6c60fe64fa9c86e3af8",
      "networkId": 0,
      "chainId": 0
    },
    {
      "hash": "0x9eae133515eaae77b35bfadce30cc77ad436f2e0327659dc768b7ff7eb4ea846",
      "blockHash": "0x497638349e9cf3359aeb3dc6e45f7a985e28a9b57579dc16b6bd71f72c8ab6ce",
      "blockNumber": 87418,
      "transactionIndex": 1,
      "confirmations": null,
      "from": "0x32Be343B94f860124dC4fEe278FDCBD38C102D88",
      "gasPrice": {
        "_hex": "0xd3b67a38a"
      },
      "gasLimit": {
        "_hex": "0x5208"
      },
      "to": "0x88f82D56215135e966f87Fa24D469D40A5cA1Dee",
      "value": {
        "_hex": "0x15aef9f1c31c7f0000"
      },
      "nonce": 785,
      "data": "0x",
      "r": "0xc4ce1be1b6b5ca54024cdc557bdb63b4f152dba9882779c77d6bd73000ba0f04",
      "s": "0x4959f725d70f23a7ba9cc967a43a3ac813c33238034130d09119162193157345",
      "v": 27,
      "creates": null,
      "raw": "0xf86f820311850d3b67a38a8252089488f82d56215135e966f87fa24d469d40a5ca1dee8915aef9f1c31c7f0000801ba0c4ce1be1b6b5ca54024cdc557bdb63b4f152dba9882779c77d6bd73000ba0f04a04959f725d70f23a7ba9cc967a43a3ac813c33238034130d09119162193157345",
      "networkId": 0,
      "chainId": 0
    }
  ]
}