{
  "hash": "0x42ae4ca3698ae771eb4402d71868e595f1d6c6d5e7e4c1d74c1f31b6eb8468ef",
  "parentHash": "0x326ea698c5f79be9bd42dea3d491a5e5eb978cd9989772f3b8c1a4d3c957ee3d",
  "number": 68533,
  "timestamp": 1439289692,
  "nonce": "0x438f0b92c58913be",
  "difficulty": 1999606259649,
  "gasLimit": {
    "_hex": "0x2fefd8"
  },
  "gasUsed": {
    "_hex": "0xbdb28"
  },
  "miner": "0xEF247E639d49461D25F57e9362CadE3120910Ce0",
  "extraData": "0x476574682f76312e302e312f6c696e75782f676f312e342e32",
  "transactions": [
    {
      "hash": "0x9d71df8f4ef1710400d72737d039846591c0edb804a5f4cb22b93e7e75dc36d9",
      "blockHash": "0x42ae4ca3698ae771eb4402d71868e595f1d6c6d5e7e4c1d74c1f31b6eb8468ef",
      "blockNumber": 68533,
      "transactionIndex": 0,
      "confirmations": null,
      "from": "0xbD3CD3c89E32b18227B30EBf38921782af5206f1",
      "gasPrice": {
        "_hex": "0xba43b7400"
      },
      "gasLimit": {
        "_hex": "0x5208"
      },
      "to": "0x6747f922385c9a6F9cfDf095F34345257DD597bE",
      "value": {
        "_hex": "0x1072bbac261c000"
      },
      "nonce": 1,
      "data": "0x",
      "r": "0x4e768c2c745981d3796017071f383514240183cace011582eeb59fbd25ebfe7f",
      "s": "0x661ace91eba20cd5aec1cc6b08f4951c7e99488d597957e5ea8cd9ae17e6075d",
      "v": 27,
      "creates": null,
      "raw": "0xf86c01850ba43b7400825208946747f922385c9a6f9cfdf095f34345257dd597be8801072bbac261c000801ba04e768c2c745981d3796017071f383514240183cace011582eeb59fbd25ebfe7fa0661ace91eba20cd5aec1cc6b08f4951c7e99488d597957e5ea8cd9ae17e6075d",
      "networkId": 0,
      "chainId": 0
    },
    {
      "hash": "0xaf6118194740dba300d0362e372c6b8d657969f1f2d93f61340f4a3770190394",
      "blockHash": "0x42ae4ca3698ae771eb4402d71868e595f1d6c6d5e7e4c1d74c1f31b6eb8468ef",
      "blockNumber": 68533,
      "transactionIndex": 1,
      "confirmations": null,
      "from": "0x6EAAab3069C7f9920AFc0CD3fA2946DaF55d5911",
      "gasPrice": {
        "_hex": "0xba43b7400"
      },
      "gasLimit": {
        "_hex": "0x5208"
      },
      "to": "0x6747f922385c9a6F9cfDf095F34345257DD597bE",
      "value": {
        "_hex": "0x1072bbac261c000"
      },
      "nonce": 1,
      "data": "0x",
      "r": "0x336b8ed6516c1d7fc46bb455a5db8ddeae0c63339f2929ccaa0f560c769e7a4d",
      "s": "0x3d07e7808468582fcededf556cfaca36bdf225c5c8690e1a71a952f383b05cb4",
      "v": 28,
      "creates": null,
      "raw": "0xf86c01850ba43b7400825208946747f922385c9a6f9cfdf095f34345257dd597be8801072bbac261c000801ca0336b8ed6516c1d7fc46bb455a5db8ddeae0c63339f2929ccaa0f560c769e7a4da03d07e7808468582fcededf556cfaca36bdf225c5c8690e1a71a952f383b05cb4",
      "networkId": 0,
      "chainId": 0
    },
    {
      "hash": "0xe6456425d39437d6257f520001b819b4c9f141812cf1b8c5d7891772b6e1b02c",
      "blockHash": "0x42ae4ca3698ae771eb4402d71868e595f1d6c6d5e7e4c1d74c1f31b6eb8468ef",
      "blockNumber": 68533,
      "transactionIndex": 2,
      "confirmations": null,
      "from": "0xB9edc479F7D57E28CD3798976A293bf7a5dBbe6D",
      "gasPrice": {
        "_hex": "0xba43b7400"
      },
      "gasLimit": {
        "_hex": "0x5208"
      },
      "to": "0xdfe0d4Ca5536c35d6C7EF6DD527c2046Fe0cA429",
      "value": {
        "_hex": "0x36ef271c4dd000"
      },
      "nonce": 1,
      "data": "0x",
      "r": "0x521bbd682135cdce0d7e82e4f063944a9e4dd1a3c985c2712f33c19ea2dfe0a2",
      "s": "0x7bd2e2eb380aa83d3fb29082931dc2c16ddb00d0c89a2eee3dcefcf40101fb55",
      "v": 28,
      "creates": null,
      "raw": "0xf86b01850ba43b740082520894dfe0d4ca5536c35d6c7ef6dd527c2046fe0ca4298736ef271c4dd000801ca0521bbd682135cdce0d7e82e4f063944a9e4dd1a3c985c2712f33c19ea2dfe0a2a07bd2e2eb380aa83d3fb29082931dc2c16ddb00d0c89a2eee3dcefcf40101fb55",
      "networkId": 0,
      "chainId": 0
    },
    {
      "hash": "0x333ee2c8054443020c4d3af36c846de2b4ecba7d70c469eecbacf3e416d5c4bf",
      "blockHash": "0x42ae4ca3698ae771eb4402d71868e595f1d6c6d5e7e4c1d74c1f31b6eb8468ef",
      "blockNumber": 68533,
      "transactionIndex": 3,
      "confirmations": null,
      "from": "0x5C5EA4125716Ecf4F7238eE26d74F6895E73125e",
      "gasPrice": {
        "_hex": "0xba43b7400"
      },
      "gasLimit": {
        "_hex": "0x5208"
      },
      "to": "0xbD76eA1Edb467667ca6Bf7c06be27aaa0fcDf679",
      "value": {
        "_hex": "0x36ef271c4dd000"
      },
      "nonce": 1,
      "data": "0x",
      "r": "0xa400e1b7e5efe1d7f3ff3ff9064d4f8c9c5f0f383cf19d624de7e32d0ff81a7e",
      "s": "0x7c2f5100286cf826053b93b320703daf02e64bc2e06fa836a207dd3eb9b3c4b2",
      "v": 27,
      "creates": null,
      "raw": "0xf86b01850ba43b740082520894bd76ea1edb467667ca6bf7c06be27aaa0fcdf6798736ef271c4dd000801ba0a400e1b7e5efe1d7f3ff3ff9064d4f8c9c5f0f383cf19d624de7e32d0ff81a7ea07c2f5100286cf826053b93b320703daf02e64bc2e06fa836a207dd3eb9b3c4b2",
      "networkId": 0,
      "chainId": 0
    },
    {
      "hash": "0xd5e19a59079e22d90f5aa0d90d1f749b42d89b020719afe7c3324776e3996a5b",
      "blockHash": "0x42ae4ca3698ae771eb4402d71868e595f1d6c6d5e7e4c1d74c1f31b6eb8468ef",
      "blockNumber": 68533,
      "transactionIndex": 4,
      "confirmations": null,
      "from": "0x1960F9cb77e7b6Ae1A6942423cb41efd10dc947c",
      "gasPrice": {
        "_hex": "0xba43b7400"
      },
      "gasLimit": {
        "_hex": "0x5208"
      },
      "to": "0x6747f922385c9a6F9cfDf095F34345257DD597bE",
      "value": {
        "_hex": "0x1072bbac261c000"
      },
      "nonce": 1,
      "data": "0x",
      "r": "0xe08a179ed940d9812eb973824f64f35f8d313e95f1833557c76b5692a781f823",
      "s": "0x1e9da668c87d55673ab4f0a9290987ed4c4894f532054045a594aae4c11a54e4",
      "v": 27,
      "creates": null,
      "raw": "0xf86c01850ba43b7400825208946747f922385c9a6f9cfdf095f34345257dd597be8801072bbac261c000801ba0e08a179ed940d9812eb973824f64f35f8d313e95f1833557c76b5692a781f823a01e9da668c87d55673ab4f0a9290987ed4c4894f532054045a594aae4c11a54e4",
      "networkId": 0,
      "chainId": 0
    },
    {
      "hash": "0xa256b2d0b5b5c14625d7d36ca0fdf8f315c332b32bed71256b8e41c8bc872160",
      "blockHash": "0x42ae4ca3698ae771eb4402d71868e595f1d6c6d5e7e4c1d74c1f31b6eb8468ef",
      "blockNumber": 68533,
      "transactionIndex": 5,
      "confirmations": null,
      "from": "0x849559Bb9a259481c26f8791942630022638d1A8",
      "gasPrice": {
        "_hex": "0xba43b7400"
      },
      "gasLimit": {
        "_hex": "0x5208"
      },
      "to": "0x6747f922385c9a6F9cfDf095F34345257DD597bE",
      "value": {
        "_hex": "0x1072bbac261c000"
      },
      "nonce": 1,
      "data": "0x",
      "r": "0x218994ce635f603dba4f69119855f72f09eb60bb08d72537633b2b0c9cd5014d",
      "s": "0x2d3a7c9a0c059c6857e136d26d12f823f151d11bd6685672ae11c93427650b0e",
      "v": 28,
      "creates": null,
      "raw": "0xf86c01850ba43b7400825208946747f922385c9a6f9cfdf095f34345257dd597be8801072bbac261c000801ca0218994ce635f603dba4f69119855f72f09eb60bb08d72537633b2b0c9cd5014da02d3a7c9a0c059c6857e136d26d12f823f151d11bd6685672ae11c93427650b0e",
      "networkId": 0,
      "chainId": 0
    },
    {
      "hash": "0xc051b04dd184f26af7a642a462ecd7db52c366e32c1fb3a4b1879a75726a9b4b",
      "blockHash": "0x42ae4ca3698ae771eb4402d71868e595f1d6c6d5e7e4c1d74c1f31b6eb8468ef",
      "blockNumber": 68533,
      "transactionIndex": 6,
      "confirmations": null,
      "from": "0xBd4175d36Fe5452267a70f89b159a82aE2372615",
      "gasPrice": {
        "_hex": "0xba43b7400"
      },
      "gasLimit": {
        "_hex": "0x5208"
      },
      "to": "0x6747f922385c9a6F9cfDf095F34345257DD597bE",
      "value": {
        "_hex": "0x1072bbac261c000"
      },
      "nonce": 1,
      "data": "0x",
      "r": "0x4b20ccf1616293c7e8338b6bddb9aca2896a399ab178b3ca3a96c78051391349",
      "s": "0x1f0e579c51699ed5af64b596cbe42242cf0410a36fc8dff4c776c06c0044c9cf",
      "v": 28,
      "creates": null,
      "raw": "0xf86c01850ba43b7400825208946747f922385c9a6f9cfdf095f34345257dd597be8801072bbac261c000801ca04b20ccf1616293c7e8338b6bddb9aca2896a399ab178b3ca3a96c78051391349a01f0e579c51699ed5af64b596cbe42242cf0410a36fc8dff4c776c06c0044c9cf",
      "networkId": 0,
      "chainId": 0
    },
    {
      "hash": "0x2aa4cfc03c463495b70e432ce8ad2f33610dba98db69e7c4769d551efa63d1ba",
      "blockHash": "0x42ae4ca3698ae771eb4402d71868e595f1d6c6d5e7e4c1d74c1f31b6eb8468ef",
      "blockNumber": 68533,
      "transactionIndex": 7,
      "confirmations": null,
      "from": "0x28d30f79779302A43BbAC583e9040178239F164c",
      "gasPrice": {
        "_hex": "0xba43b7400"
      },
      "gasLimit": {
        "_hex": "0x5208"
      },
      "to": "0x6747f922385c9a6F9cfDf095F34345257DD597bE",
      "value": {
        "_hex": "0x1072bbac261c000"
      },
      "nonce": 1,
      "data": "0x",
      "r": "0xcfc46d74289b4a7a923a7a4dab553f343a9e04cb9c4f6d98d37841eacfc16fa7",
      "s": "0x2712270a7d6f3d4adc57e925b0deb60ed15f680ee909795f1933b5d3044981ff",
      "v": 27,
      "creates": null,
      "raw": "0xf86c01850ba43b7400825208946747f922385c9a6f9cfdf095f34345257dd597be8801072bbac261c000801ba0cfc46d74289b4a7a923a7a4dab553f343a9e04cb9c4f6d98d37841eacfc16fa7a02712270a7d6f3d4adc57e925b0deb60ed15f680ee909795f1933b5d3044981ff",
      "networkId": 0,
      "chainId": 0
    },
    {
      "hash": "0x9e5723a9434a882729b4cdd5ca535a970a977ace3a21ad919e61588182ecb562",
      "blockHash": "0x42ae4ca3698ae771eb4402d71868e595f1d6c6d5e7e4c1d74c1f31b6eb8468ef",
      "blockNumber": 68533,
      "transactionIndex": 8,
      "confirmations": null,
      "from": "0x048538a02F3190C95B2Ce38B8A2273Ee8265f704",
      "gasPrice": {
        "_hex": "0xba43b7400"
      },
      "gasLimit": {
        "_hex": "0x5208"
      },
      "to": "0x6747f922385c9a6F9cfDf095F34345257DD597bE",
      "value": {
        "_hex": "0x1072bbac261c000"
      },
      "nonce": 1,
      "data": "0x",
      "r": "0xb8128cae2b0659c97242ce7b0a403eadccb1e9b64b8286761315678aa8f50e72",
      "s": "0x25218db619391cee2560d89bc58d0d6f3941e18b4f8858a420504c702ddafbd6",
      "v": 28,
      "creates": null,
      "raw": "0xf86c01850ba43b7400825208946747f922385c9a6f9cfdf095f34345257dd597be8801072bbac261c000801ca0b8128cae2b0659c97242ce7b0a403eadccb1e9b64b8286761315678aa8f50e72a025218db619391cee2560d89bc58d0d6f3941e18b4f8858a420504c702ddafbd6",
      "networkId": 0,
      "chainId": 0
    },
    {
      "hash": "0xa3df6f6b9671b2e2e158e2bec0f5421f5af6409a4992805ec424fc9f6c7073dc",
      "blockHash": "0x42ae4ca3698ae771eb4402d71868e595f1d6c6d5e7e4c1d74c1f31b6eb8468ef",
      "blockNumber": 68533,
      "transactionIndex": 9,
      "confirmations": null,
      "from": "0x5BBdE7068486E0DBF5aC0B5eE5e4A9bB7A054bd4",
      "gasPrice": {
        "_hex": "0xba43b7400"
      },
      "gasLimit": {
        "_hex": "0x5208"
      },
      "to": "0x6747f922385c9a6F9cfDf095F34345257DD597bE",
      "value": {
        "_hex": "0x1072bbac261c000"
      },
      "nonce": 1,
      "data": "0x",
      "r": "0xdf386f6c2f8ed35bf5a2883089918edc7d1dcfde20b6ed7a28796da1d50d1108",
      "s": "0x1356c38d792c536819c487db0894eda163ea092d4d4858d0a1b515f9b57ce5db",
      "v": 27,
      "creates": null,
      "raw": "0xf86c01850ba43b7400825208946747f922385c9a6f9cfdf095f34345257dd597be8801072bbac261c000801ba0df386f6c2f8ed35bf5a2883089918edc7d1dcfde20b6ed7a28796da1d50d1108a01356c38d792c536819c487db0894eda163ea092d4d4858d0a1b515f9b57ce5db",
      "networkId": 0,
      "chainId": 0
    },
    {
      "hash": "0xd30737171c20771976caff5ec33c76e2985054e9d671ef64b7ae8784a74f7d26",
      "blockHash": "0x42ae4ca3698ae771eb4402d71868e595f1d6c6d5e7e4c1d74c1f31b6eb8468ef",
      "blockNumber": 68533,
      "transactionIndex": 10,
      "confirmations": null,
      "from": "0xb498a7d9C11C324C5107D9B6B9500bE990EF51dD",
      "gasPrice": {
        "_hex": "0xba43b7400"
      },
      "gasLimit": {
        "_hex": "0x5208"
      },
      "to": "0x6747f922385c9a6F9cfDf095F34345257DD597bE",
      "value": {
        "_hex": "0x1072bbac261c000"
      },
      "nonce": 1,
      "data": "0x",
      "r": "0x41e9db9e418068513ddda34a6a2533902ead8321230065e9d26644a09b7784cc",
      "s": "0x4064aa83cb425cbc5bc29bafff620442e7240fecb17fe18db8a78f10f4c7ed50",
      "v": 27,
      "creates": null,
      "raw": "0xf86c01850ba43b7400825208946747f922385c9a6f9cfdf095f34345257dd597be8801072bbac261c000801ba041e9db9e418068513ddda34a6a2533902ead8321230065e9d26644a09b7784cca04064aa83cb425cbc5bc29bafff620442e7240fecb17fe18db8a78f10f4c7ed50",
      "networkId": 0,
      "chainId": 0
    },
    {
      "hash": "0x7ea4adecce24dddda361440b23ddd9f3c12605875f572d38a734334f1627c837",
      "blockHash": "0x42ae4ca3698ae771eb4402d71868e595f1d6c6d5e7e4c1d74c1f31b6eb8468ef",
      "blockNumber": 68533,
      "transactionIndex": 11,
      "confirmations": null,
      "from": "0x44479E70c73f0eae840B02e7665E6949e53b5F19",
      "gasPrice": {
        "_hex": "0xba43b7400"
      },
      "gasLimit": {
        "_hex": "0x5208"
      },
      "to": "0x6747f922385c9a6F9cfDf095F34345257DD597bE",
      "value": {
        "_hex": "0x1072bbac261c000"
      },
      "nonce": 1,
      "data": "0x",
      "r": "0x27040ee89d7e59eb4a89d3fcc0aca0dc2121bf9113032b1e138197d9b5266025",
      "s": "0x2509cf50aa464b680799a58b38582611f0a18e1a76cd697268dbef67e3ea499e",
      "v": 28,
      "creates": null,
      "raw": "0xf86c01850ba43b7400825208946747f922385c9a6f9cfdf095f34345257dd597be8801072bbac261c000801ca027040ee89d7e59eb4a89d3fcc0aca0dc2121bf9113032b1e138197d9b5266025a02509cf50aa464b680799a58b38582611f0a18e1a76cd697268dbef67e3ea499e",
      "networkId": 0,
      "chainId": 0
    },
    {
      "hash": "0xa5edbeee5f61a42045727141f1c1b5c57553615e1194fe89c355527c00752c4d",
      "blockHash": "0x42ae4ca3698ae771eb4402d71868e595f1d6c6d5e7e4c1d74c1f31b6eb8468ef",
      "blockNumber": 68533,
      "transactionIndex": 12,
      "confirmations": null,
      "from": "0xbb54532ed23Cf570249459DfE035af5E56cA3624",
      "gasPrice": {
        "_hex": "0xba43b7400"
      },
      "gasLimit": {
        "_hex": "0x5208"
      },
      "to": "0x6747f922385c9a6F9cfDf095F34345257DD597bE",
      "value": {
        "_hex": "0x1072bbac261c000"
      },
      "nonce": 1,
      "data": "0x",
      "r": "0x20147934d83fc11b929be9f9b4fbf3b7cb1722e8614b24ba2b2f920ce14b25fa",
      "s": "0x0658a34262268881497457998b284931039babc3a7336121a35d0c3eb4b5aa3c",
      "v": 28,
      "creates": null,
      "raw": "0xf86c01850ba43b7400825208946747f922385c9a6f9cfdf095f34345257dd597be8801072bbac261c000801ca020147934d83fc11b929be9f9b4fbf3b7cb1722e8614b24ba2b2f920ce14b25faa00658a34262268881497457998b284931039babc3a7336121a35d0c3eb4b5aa3c",
      "networkId": 0,
      "chainId": 0
    },
    {
      "hash": "0x6483b3a368d74defe90f08cd86fdb8d6b50a2964836ca4c4ee3f2d11a6f7cbab",
      "blockHash": "0x42ae4ca3698ae771eb4402d71868e595f1d6c6d5e7e4c1d74c1f31b6eb8468ef",
      "blockNumber": 68533,
      "transactionIndex": 13,
      "confirmations": null,
      "from": "0x9784b849e07c990F4214506B8b7543cee1792BA5",
      "gasPrice": {
        "_hex": "0xba43b7400"
      },
      "gasLimit": {
        "_hex": "0x5208"
      },
      "to": "0x6747f922385c9a6F9cfDf095F34345257DD597bE",
      "value": {
        "_hex": "0x1072bbac261c000"
      },
      "nonce": 1,
      "data": "0x",
      "r": "0x9e95b235783f3405106794c77ead4d7b158a2145ce2948123241f966629433cd",
      "s": "0x26d9cf44db34736b5ece52a091b16bb38261d0666e7e7754990dd957d9ae6c3b",
      "v": 27,
      "creates": null,
      "raw": "0xf86c01850ba43b7400825208946747f922385c9a6f9cfdf095f34345257dd597be8801072bbac261c000801ba09e95b235783f3405106794c77ead4d7b158a2145ce2948123241f966629433cda026d9cf44db34736b5ece52a091b16bb38261d0666e7e7754990dd957d9ae6c3b",
      "networkId": 0,
      "chainId": 0
    },
    {
      "hash": "0xa1c39926ce3227d67e892deeb6ce8cf3951e4a85351ac9ba10dead576deec23d",
      "blockHash": "0x42ae4ca3698ae771eb4402d71868e595f1d6c6d5e7e4c1d74c1f31b6eb8468ef",
      "blockNumber": 68533,
      "transactionIndex": 14,
      "confirmations": null,
      "from": "0x685dA9Eb932613E5c8F3187534D395acd044454c",
      "gasPrice": {
        "_hex": "0xba43b7400"
      },
      "gasLimit": {
        "_hex": "0x5208"
      },
      "to": "0xd18e7223F7bEbB6Aae155B606fB94064FF22750E",
      "value": {
        "_hex": "0x36ef271c4dd000"
      },
      "nonce": 1,
      "data": "0x",
      "r": "0xf28ba2b20fcbebf62cee216f788868a2badffc1d9db9d022c78ce83d8161be5e",
      "s": "0x043f10fa0b010f82271034dd9113b2598054e1668e83e1f21daec5868c57c73b",
      "v": 27,
      "creates": null,
      "raw": "0xf86b01850ba43b740082520894d18e7223f7bebb6aae155b606fb94064ff22750e8736ef271c4dd000801ba0f28ba2b20fcbebf62cee216f788868a2badffc1d9db9d022c78ce83d8161be5ea0043f10fa0b010f82271034dd9113b2598054e1668e83e1f21daec5868c57c73b",
      "networkId": 0,
      "chainId": 0
    },
    {
      "hash": "0xe47ed1d2237f0b477cbbb09547c23b93ffa3d0e754c3ea2ec135d0d1e08a1931",
      "blockHash": "0x42ae4ca3698ae771eb4402d71868e595f1d6c6d5e7e4c1d74c1f31b6eb8468ef",
      "blockNumber": 68533,
      "transactionIndex": 15,
      "confirmations": null,
      "from": "0x3305fED4d4720588A1a5FF0458Af630D68Fb199A",
      "gasPrice": {
        "_hex": "0xba43b7400"
      },
      "gasLimit": {
        "_hex": "0x5208"
      },
      "to": "0x6747f922385c9a6F9cfDf095F34345257DD597bE",
      "value": {
        "_hex": "0x1072bbac261c000"
      },
      "nonce": 1,
      "data": "0x",
      "r": "0xa0621bf3bbdfb3f6c62b3d0a6a27b6b9797661d4377591ca96b6a37a621caaa3",
      "s": "0x5e15d4ed96507e1bf859cc2f9e85767084237a4cff1e660a99e309f2fe5ab605",
      "v": 27,
      "creates": null,
      "raw": "0xf86c01850ba43b7400825208946747f922385c9a6f9cfdf095f34345257dd597be8801072bbac261c000801ba0a0621bf3bbdfb3f6c62b3d0a6a27b6b9797661d4377591ca96b6a37a621caaa3a05e15d4ed96507e1bf859cc2f9e85767084237a4cff1e660a99e309f2fe5ab605",
      "networkId": 0,
      "chainId": 0
    },
    {
      "hash": "0x25cc26ee0fde54bba1df7fca499c5f146f723f7f0f470a4f238d9e2c1c65b6e4",
      "blockHash": "0x42ae4ca3698ae771eb4402d71868e595f1d6c6d5e7e4c1d74c1f31b6eb8468ef",
      "blockNumber": 68533,
      "transactionIndex": 16,
      "confirmations": null,
      "from": "0x17C79Af41D49BF487B037E8F37Bb4e09CcBcE751",
      "gasPrice": {
        "_hex": "0xba43b7400"
      },
      "gasLimit": {
        "_hex": "0x5208"
      },
      "to": "0x6747f922385c9a6F9cfDf095F34345257DD597bE",
      "value": {
        "_hex": "0x1072bbac261c000"
      },
      "nonce": 1,
      "data": "0x",
      "r": "0x30f4fb8053e10b873658918c5655d6da25aad96dbdbc3608429b8908ada3ab0f",
      "s": "0x213d83a32687a9b38f3d22ca1ff62aedb038d54067f2711ccb3f64bc7542f2b2",
      "v": 27,
      "creates": null,
      "raw": "0xf86c01850ba43b7400825208946747f922385c9a6f9cfdf095f34345257dd597be8801072bbac261c000801ba030f4fb8053e10b873658918c5655d6da25aad96dbdbc3608429b8908ada3ab0fa0213d83a32687a9b38f3d22ca1ff62aedb038d54067f2711ccb3f64bc7542f2b2",
      "networkId": 0,
      "chainId": 0
    },
    {
      "hash": "0xd4452eb4e9f14bd7842e0e795eb418d0b6bb46dbed852b08486c4cc55ab00de2",
      "blockHash": "0x42ae4ca3698ae771eb4402d71868e595f1d6c6d5e7e4c1d74c1f31b6eb8468ef",
      "blockNumber": 68533,
      "transactionIndex": 17,
      "confirmations": null,
      "from": "0x5BF4c225E13a88F6973914A993cc4291c1874DcC",
      "gasPrice": {
        "_hex": "0xba43b7400"
      },
      "gasLimit": {
        "_hex": "0x5208"
      },
      "to": "0x6747f922385c9a6F9cfDf095F34345257DD597bE",
      "value": {
        "_hex": "0x1072bbac261c000"
      },
      "nonce": 1,
      "data": "0x",
      "r": "0x8c9d06c2e6b9b644fc3745378e094a59efa3dae26b62b525a1155fc6ed53b52e",
      "s": "0x0cddca97117151feb5497695c69a64a43541eb89ce4d29a57563e7b1ba528e4c",
      "v": 28,
      "creates": null,
      "raw": "0xf86c01850ba43b7400825208946747f922385c9a6f9cfdf095f34345257dd597be8801072bbac261c000801ca08c9d06c2e6b9b644fc3745378e094a59efa3dae26b62b525a1155fc6ed53b52ea00cddca97117151feb5497695c69a64a43541eb89ce4d29a57563e7b1ba528e4c",
      "networkId": 0,
      "chainId": 0
    },
    {
      "hash": "0x29c6f1fde4bd36a1bf8ea55123839ef16750e686dbd506be3d19c2c7561ded68",
      "blockHash": "0x42ae4ca3698ae771eb4402d71868e595f1d6c6d5e7e4c1d74c1f31b6eb8468ef",
      "blockNumber": 68533,
      "transactionIndex": 18,
      "confirmations": null,
      "from": "0xDEf7FAd2c27e6768e786336a8d8FD395b7F01A57",
      "gasPrice": {
        "_hex": "0xba43b7400"
      },
      "gasLimit": {
        "_hex": "0x5208"
      },
      "to": "0x6747f922385c9a6F9cfDf095F34345257DD597bE",
      "value": {
        "_hex": "0x1072bbac261c000"
      },
      "nonce": 1,
      "data": "0x",
      "r": "0x51fadc851acb08a01c98d20c492f03856ed1d15f2379975f62c004951a9b51aa",
      "s": "0x5b92a76e2e7b9e62569940d114e6b089e281f5c6557485538258d51f1124721b",
      "v": 27,
      "creates": null,
      "raw": "0xf86c01850ba43b7400825208946747f922385c9a6f9cfdf095f34345257dd597be8801072bbac261c000801ba051fadc851acb08a01c98d20c492f03856ed1d15f2379975f62c004951a9b51aaa05b92a76e2e7b9e62569940d114e6b089e281f5c6557485538258d51f1124721b",
      "networkId": 0,
      "chainId": 0
    },
    {
      "hash": "0x0c3310d582f9e11a12873e13165d475de17fb71cc0e6696afdd3809a4228f94e",
      "blockHash": "0x42ae4ca3698ae771eb4402d71868e595f1d6c6d5e7e4c1d74c1f31b6eb8468ef",
      "blockNumber": 68533,
      "transactionIndex": 19,
      "confirmations": null,
      "from": "0x16EEb1F8c81eE78D0965056784e4f3a2D559b9D0",
      "gasPrice": {
        "_hex": "0xba43b7400"
      },
      "gasLimit": {
        "_hex": "0x5208"
      },
      "to": "0x6747f922385c9a6F9cfDf095F34345257DD597bE",
      "value": {
        "_hex": "0x1072bbac261c000"
      },
      "nonce": 1,
      "data": "0x",
      "r": "0x808fe23176e2f46eb895804d6d4d1277d4cf18287a8b7721ffa84550803e4b1f",
      "s": "0x60e74673458b7694a728091bb64640efaef2c600c6c6686e3da4504e71a9236e",
      "v": 28,
      "creates": null,
      "raw": "0xf86c01850ba43b7400825208946747f922385c9a6f9cfdf095f34345257dd597be8801072bbac261c000801ca0808fe23176e2f46eb895804d6d4d1277d4cf18287a8b7721ffa84550803e4b1fa060e74673458b7694a728091bb64640efaef2c600c6c6686e3da4504e71a9236e",
      "networkId": 0,
      "chainId": 0
    },
    {
      "hash": "0x09c895424fb5f18ca48f30115df591621b82f783a4c9a665f812241fb8cac8e3",
      "blockHash": "0x42ae4ca3698ae771eb4402d71868e595f1d6c6d5e7e4c1d74c1f31b6eb8468ef",
      "blockNumber": 68533,
      "transactionIndex": 20,
      "confirmations": null,
      "from": "0x5d2895a7512cD85D03eCF4D2c270e26f7CF7aba7",
      "gasPrice": {
        "_hex": "0xba43b7400"
      },
      "gasLimit": {
        "_hex": "0x5208"
      },
      "to": "0x6747f922385c9a6F9cfDf095F34345257DD597bE",
      "value": {
        "_hex": "0x1072bbac261c000"
      },
      "nonce": 1,
      "data": "0x",
      "r": "0x2a5d107df4185348f5c9df4351781f9e14e1350e8e639908f57f6529bb91b30f",
      "s": "0x11d11f4adfc8fdb9d8df8eeae80d53204f02f3ad09b4afb562739e7f6ea7a222",
      "v": 28,
      "creates": null,
      "raw": "0xf86c01850ba43b7400825208946747f922385c9a6f9cfdf095f34345257dd597be8801072bbac261c000801ca02a5d107df4185348f5c9df4351781f9e14e1350e8e639908f57f6529bb91b30fa011d11f4adfc8fdb9d8df8eeae80d53204f02f3ad09b4afb562739e7f6ea7a222",
      "networkId": 0,
      "chainId": 0
    },
    {
      "hash": "0x70ee67b621b18d1b79773b76c9983f1b4318e593b48041694ad7ee0491bbb482",
      "blockHash": "0x42ae4ca3698ae771eb4402d71868e595f1d6c6d5e7e4c1d74c1f31b6eb8468ef",
      "blockNumber": 68533,
      "transactionIndex": 21,
      "confirmations": null,
      "from": "0xb1B7F3Ff099d47d70f108BfE67191ca407bC63E0",
      "gasPrice": {
        "_hex": "0xba43b7400"
      },
      "gasLimit": {
        "_hex": "0x5208"
      },
      "to": "0x6747f922385c9a6F9cfDf095F34345257DD597bE",
      "value": {
        "_hex": "0x1072bbac261c000"
      },
      "nonce": 1,
      "data": "0x",
      "r": "0x55b7c6884736a2bd13a89f664b109d3a76df84d9649d0c1d76b320f4728f47f8",
      "s": "0x213a7dd890ece71582b47f01449d561c975b58ea2234ae58c441bb7e3337a89e",
      "v": 27,
      "creates": null,
      "raw": "0xf86c01850ba43b7400825208946747f922385c9a6f9cfdf095f34345257dd597be8801072bbac261c000801ba055b7c6884736a2bd13a89f664b109d3a76df84d9649d0c1d76b320f4728f47f8a0213a7dd890ece71582b47f01449d561c975b58ea2234ae58c441bb7e3337a89e",
      "networkId": 0,
      "chainId": 0
    },
    {
      "hash": "0xd9dfe64559edaaa8842643e96e5303ad081530573a0bafc96188b18a299ded60",
      "blockHash": "0x42ae4ca3698ae771eb4402d71868e595f1d6c6d5e7e4c1d74c1f31b6eb8468ef",
      "blockNumber": 68533,
      "transactionIndex": 22,
      "confirmations": null,
      "from": "0x41A0C9CeC809eF79AeEd330E1BD0aE09441d7B14",
      "gasPrice": {
        "_hex": "0xba43b7400"
      },
      "gasLimit": {
        "_hex": "0x5208"
      },
      "to": "0x69f520816411c74A01b2bEc28B7CA080bCF27fCC",
      "value": {
        "_hex": "0x36ef271c4dd000"
      },
      "nonce": 1,
      "data": "0x",
      "r": "0x1677fa456ccdaaafa171077334ec7013b7393dbbc89ca86385187c5853b24e85",
      "s": "0x08a1ac55d38f720ec41ed3d7fd558e2d6acce723abb23cf5f97bcaf3750a9319",
      "v": 27,
      "creates": null,
      "raw": "0xf86b01850ba43b74008252089469f520816411c74a01b2bec28b7ca080bcf27fcc8736ef271c4dd000801ba01677fa456ccdaaafa171077334ec7013b7393dbbc89ca86385187c5853b24e85a008a1ac55d38f720ec41ed3d7fd558e2d6acce723abb23cf5f97bcaf3750a9319",
      "networkId": 0,
      "chainId": 0
    },
    {
      "hash": "0xf3a5601edcb0b7f145ba67001376196bba95f7142afd5939c8f7984237abf653",
      "blockHash": "0x42ae4ca3698ae771eb4402d71868e595f1d6c6d5e7e4c1d74c1f31b6eb8468ef",
      "blockNumber": 68533,
      "transactionIndex": 23,
      "confirmations": null,
      "from": "0xB4d3602d555EddCCf770152C8ed43374d162Db1F",
      "gasPrice": {
        "_hex": "0xba43b7400"
      },
      "gasLimit": {
        "_hex": "0x5208"
      },
      "to": "0x6747f922385c9a6F9cfDf095F34345257DD597bE",
      "value": {
        "_hex": "0x1072bbac261c000"
      },
      "nonce": 1,
      "data": "0x",
      "r": "0x674f376f067dfea7a3e2dbc66f6f5152f807e577e82608e491887168b61e6d00",
      "s": "0x1c53380d8eaf05194cccb0d2d5048ccd53daabc06d0bf66a39b29d4ccc5e73ba",
      "v": 28,
      "creates": null,
      "raw": "0xf86c01850ba43b7400825208946747f922385c9a6f9cfdf095f34345257dd597be8801072bbac261c000801ca0674f376f067dfea7a3e2dbc66f6f5152f807e577e82608e491887168b61e6d00a01c53380d8eaf05194cccb0d2d5048ccd53daabc06d0bf66a39b29d4ccc5e73ba",
      "networkId": 0,
      "chainId": 0
    },
    {
      "hash": "0x1baba898d99c2bd3d3cf4ca96eabfd0f8aee0f52749e2b0ffab715312b6e1485",
      "blockHash": "0x42ae4ca3698ae771eb4402d71868e595f1d6c6d5e7e4c1d74c1f31b6eb8468ef",
      "blockNumber": 68533,
      "transactionIndex": 24,
      "confirmations": null,
      "from": "0x8a0F71A278613BcE15f499384374FAaeA986e2e7",
      "gasPrice": {
        "_hex": "0xba43b7400"
      },
      "gasLimit": {
        "_hex": "0x5208"
      },
      "to": "0x2f6a2205491228c6E3CC7006EA605a083d6cFd6e",
      "value": {
        "_hex": "0x36ef271c4dd000"
      },
      "nonce": 1,
      "data": "0x",
      "r": "0x45428e7c7b7f67f93592d24be1e6c3810761de7f5a6ebed58bb5a0beed618223",
      "s": "0x095fb52948da69612d91679354006a3b78e98b7e9c24eebf2c3e43e25a109d23",
      "v": 27,
      "creates": null,
      "raw": "0xf86b01850ba43b7400825208942f6a2205491228c6e3cc7006ea605a083d6cfd6e8736ef271c4dd000801ba045428e7c7b7f67f93592d24be1e6c3810761de7f5a6ebed58bb5a0beed618223a0095fb52948da69612d91679354006a3b78e98b7e9c24eebf2c3e43e25a109d23",
      "networkId": 0,
      "chainId": 0
    },
    {
      "hash": "0x6196410e4dfd9ddcd582a6c174251a31c57f78cb72b5c92822bc0ec711ecf2f6",
      "blockHash": "0x42ae4ca3698ae771eb4402d71868e595f1d6c6d5e7e4c1d74c1f31b6eb8468ef",
      "blockNumber": 68533,
      "transactionIndex": 25,
      "confirmations": null,
      "from": "0x780D5A1E44482Bc80d68c26e96c6D1072A3F0558",
      "gasPrice": {
        "_hex": "0xba43b7400"
      },
      "gasLimit": {
        "_hex": "0x5208"
      },
      "to": "0x3Ac20D085B43EB5FA52795db0170AbF2E8C67183",
      "value": {
        "_hex": "0x36ef271c4dd000"
      },
      "nonce": 1,
      "data": "0x",
      "r": "0x17c77cc91be3b2b0a3e8c167220213e748506a994acc1dd0f28fba03a6597f02",
      "s": "0x65f9c481051bec450732a9f2c39a75c75e513b772dbec11d9edb327aa56d26d5",
      "v": 28,
      "creates": null,
      "raw": "0xf86b01850ba43b7400825208943ac20d085b43eb5fa52795db0170abf2e8c671838736ef271c4dd000801ca017c77cc91be3b2b0a3e8c167220213e748506a994acc1dd0f28fba03a6597f02a065f9c481051bec450732a9f2c39a75c75e513b772dbec11d9edb327aa56d26d5",
      "networkId": 0,
      "chainId": 0
    },
    {
      "hash": "0x5ef97aad1b8b361f24c054b3d5fe6d48f005adf41dac2289598d9bf1a60847a6",
      "blockHash": "0x42ae4ca3698ae771eb4402d71868e595f1d6c6d5e7e4c1d74c1f31b6eb8468ef",
      "blockNumber": 68533,
      "transactionIndex": 26,
      "confirmations": null,
      "from": "0x4bFa4E25Ca29F3496F1aB577eF979b642CB1E3f6",
      "gasPrice": {
        "_hex": "0xba43b7400"
      },
      "gasLimit": {
        "_hex": "0x5208"
      },
      "to": "0x962b9eaA0E550C7D19302757a9E4Aa282BF6079F",
      "value": {
        "_hex": "0x36ef271c4dd000"
      },
      "nonce": 1,
      "data": "0x",
      "r": "0x2f83e05338d1a2af6b51d11224cc7fb464bbd0ae773b54be43f93ff50c62b175",
      "s": "0x781ab7567a0573f6768b8c1faf297cda933a80955f9fa97e41da6cfc395eed56",
      "v": 28,
      "creates": null,
      "raw": "0xf86b01850ba43b740082520894962b9eaa0e550c7d19302757a9e4aa282bf6079f8736ef271c4dd000801ca02f83e05338d1a2af6b51d11224cc7fb464bbd0ae773b54be43f93ff50c62b175a0781ab7567a0573f6768b8c1faf297cda933a80955f9fa97e41da6cfc395eed56",
      "networkId": 0,
      "chainId": 0
    },
    {
      "hash": "0x8e6c4225f2daffdc72729876b373e5f09159ef79a2510b36fb7feb2013f1c755",
      "blockHash": "0x42ae4ca3698ae771eb4402d71868e595f1d6c6d5e7e4c1d74c1f31b6eb8468ef",
      "blockNumber": 68533,
      "transactionIndex": 27,
      "confirmations": null,
      "from": "0x7cb2aAB9b48192B03A9F06A32bAc7a7F34134Faf",
      "gasPrice": {
        "_hex": "0xba43b7400"
      },
      "gasLimit": {
        "_hex": "0x5208"
      },
      "to": "0x6747f922385c9a6F9cfDf095F34345257DD597bE",
      "value": {
        "_hex": "0x1072bbac261c000"
      },
      "nonce": 1,
      "data": "0x",
      "r": "0x7db82fe09eb6a3b80a6c943a41cbb5b26638f4de042e88634df6a0809be31899",
      "s": "0x6661bd2f9f2640b3d8d545dc00273e133bc9b241ddd62a021f85688dc7673fc4",
      "v": 27,
      "creates": null,
      "raw": "0xf86c01850ba43b7400825208946747f922385c9a6f9cfdf095f34345257dd597be8801072bbac261c000801ba07db82fe09eb6a3b80a6c943a41cbb5b26638f4de042e88634df6a0809be31899a06661bd2f9f2640b3d8d545dc00273e133bc9b241ddd62a021f85688dc7673fc4",
      "networkId": 0,
      "chainId": 0
    },
    {
      "hash": "0xecc543fa8b7dbb93afe8543c441bb9468d6a6188b69275c3c7c7209cd8c6e014",
      "blockHash": "0x42ae4ca3698ae771eb4402d71868e595f1d6c6d5e7e4c1d74c1f31b6eb8468ef",
      "blockNumber": 68533,
      "transactionIndex": 28,
      "confirmations": null,
      "from": "0x6B7aBb008532E14bE7b865f87D190F05059908FF",
      "gasPrice": {
        "_hex": "0xba43b7400"
      },
      "gasLimit": {
        "_hex": "0x5208"
      },
      "to": "0x65C675EaFe785109Ad4377C6d706170075579fFb",
      "value": {
        "_hex": "0x36ef271c4dd000"
      },
      "nonce": 1,
      "data": "0x",
      "r": "0x1b818c8e354bfdaf4ad23e4b3fb0998ae76f4bd0b0ffc17e70d73bb835d0868c",
      "s": "0x01148d673b8f03023d46489052ffd201d228315ca9dc40836ae31d293a8bc78e",
      "v": 27,
      "creates": null,
      "raw": "0xf86b01850ba43b74008252089465c675eafe785109ad4377c6d706170075579ffb8736ef271c4dd000801ba01b818c8e354bfdaf4ad23e4b3fb0998ae76f4bd0b0ffc17e70d73bb835d0868ca001148d673b8f03023d46489052ffd201d228315ca9dc40836ae31d293a8bc78e",
      "networkId": 0,
      "chainId": 0
    },
    {
      "hash": "0x5d7a627397e92626229b2abd94ad3d52616d2b7b616f58f08a991baa05b7ded9",
      "blockHash": "0x42ae4ca3698ae771eb4402d71868e595f1d6c6d5e7e4c1d74c1f31b6eb8468ef",
      "blockNumber": 68533,
      "transactionIndex": 29,
      "confirmations": null,
      "from": "0xe0A72878B9228910F108F826e5b0eED0B7a495D5",
      "gasPrice": {
        "_hex": "0xba43b7400"
      },
      "gasLimit": {
        "_hex": "0x5208"
      },
      "to": "0x19ba9889E82288Dfc19427d389BE352C4B96c64C",
      "value": {
        "_hex": "0x36ef271c4dd000"
      },
      "nonce": 1,
      "data": "0x",
      "r": "0xc2452adc4845679f94e9a1ce6111088be502e5539cdf157b43f92be088afaa66",
      "s": "0x66ff98f005373fceb8b2bc9c754250c57ace5fab3688a9e8d5f08897e50c6f38",
      "v": 28,
      "creates": null,
      "raw": "0xf86b01850ba43b74008252089419ba9889e82288dfc19427d389be352c4b96c64c8736ef271c4dd000801ca0c2452adc4845679f94e9a1ce6111088be502e5539cdf157b43f92be088afaa66a066ff98f005373fceb8b2bc9c754250c57ace5fab3688a9e8d5f08897e50c6f38",
      "networkId": 0,
      "chainId": 0
    },
    {
      "hash": "0xe2ba6b82412b81ea7455416b83be7032f19e78205857ca3e1af56f98ef259b88",
      "blockHash": "0x42ae4ca3698ae771eb4402d71868e595f1d6c6d5e7e4c1d74c1f31b6eb8468ef",
      "blockNumber": 68533,
      "transactionIndex": 30,
      "confirmations": null,
      "from": "0x2bF85cD052884B7879aB1C3672BB8F226599A15a",
      "gasPrice": {
        "_hex": "0xba43b7400"
      },
      "gasLimit": {
        "_hex": "0x5208"
      },
      "to": "0x16dc5544b566AeF97ec8083E58Dc7968Ab895F1D",
      "value": {
        "_hex": "0x36ef271c4dd000"
      },
      "nonce": 1,
      "data": "0x",
      "r": "0xf718ece8ff31e350f62a80624aedd32f69afd49d0c97e0d1b2369154311ea3b0",
      "s": "0x115356c9a535f39d9911923432adb69465dad634bdebd8f2563d8395b798dd9a",
      "v": 27,
      "creates": null,
      "raw": "0xf86b01850ba43b74008252089416dc5544b566aef97ec8083e58dc7968ab895f1d8736ef271c4dd000801ba0f718ece8ff31e350f62a80624aedd32f69afd49d0c97e0d1b2369154311ea3b0a0115356c9a535f39d9911923432adb69465dad634bdebd8f2563d8395b798dd9a",
      "networkId": 0,
      "chainId": 0
    },
    {
      "hash": "0x0cab93b48ca45f265eee9c68799e9de4ed946a5a9ae699c92c22702c68568879",
      "blockHash": "0x42ae4ca3698ae771eb4402d71868e595f1d6c6d5e7e4c1d74c1f31b6eb8468ef",
      "blockNumber": 68533,
      "transactionIndex": 31,
      "confirmations": null,
      "from": "0xe7a08FFD9a28AbF7Bf406d13Bd60C4D1073f6985",
      "gasPrice": {
        "_hex": "0xba43b7400"
      },
      "gasLimit": {
        "_hex": "0x5208"
      },
      "to": "0x6747f922385c9a6F9cfDf095F34345257DD597bE",
      "value": {
        "_hex": "0x1072bbac261c000"
      },
      "nonce": 1,
      "data": "0x",
      "r": "0x7900382b64a0acfa47430e1591dfef2057be621dc092ea255e2901f2e603459f",
      "s": "0x31eddfb0c364796b408f8c39b8b8e259e356506db1e47e53ea3f05e38d504138",
      "v": 27,
      "creates": null,
      "raw": "0xf86c01850ba43b7400825208946747f922385c9a6f9cfdf095f34345257dd597be8801072bbac261c000801ba07900382b64a0acfa47430e1591dfef2057be621dc092ea255e2901f2e603459fa031eddfb0c364796b408f8c39b8b8e259e356506db1e47e53ea3f05e38d504138",
      "networkId": 0,
      "chainId": 0
    },
    {
      "hash": "0xd0af68bbfea8aed2dc3e0e0254893fc17de4c262f44372df72f82241882ef547",
      "blockHash": "0x42ae4ca3698ae771eb4402d71868e595f1d6c6d5e7e4c1d74c1f31b6eb8468ef",
      "blockNumber": 68533,
      "transactionIndex": 32,
      "confirmations": null,
      "from": "0x5185186D7bBCFC9462610BCf7C80ED3B0436a36E",
      "gasPrice": {
        "_hex": "0xba43b7400"
      },
      "gasLimit": {
        "_hex": "0x5208"
      },
      "to": "0x6747f922385c9a6F9cfDf095F34345257DD597bE",
      "value": {
        "_hex": "0x1072bbac261c000"
      },
      "nonce": 1,
      "data": "0x",
      "r": "0x8e8924393a577b40e747eedafbbd944e084f6e221aa8b11e48b8703760cdea57",
      "s": "0x301e577e6e7f47258bcb6070d5af656c14f8d4e139268628b7efe996f47f562a",
      "v": 27,
      "creates": null,
      "raw": "0xf86c01850ba43b7400825208946747f922385c9a6f9cfdf095f34345257dd597be8801072bbac261c000801ba08e8924393a577b40e747eedafbbd944e084f6e221aa8b11e48b8703760cdea57a0301e577e6e7f47258bcb6070d5af656c14f8d4e139268628b7efe996f47f562a",
      "networkId": 0,
      "chainId": 0
    },
    {
      "hash": "0x7028635c550994d7eceffcc650101be9104deb3ae4e0055b29e82df14376ba8e",
      "blockHash": "0x42ae4ca3698ae771eb4402d71868e595f1d6c6d5e7e4c1d74c1f31b6eb8468ef",
      "blockNumber": 68533,
      "transactionIndex": 33,
      "confirmations": null,
      "from": "0xd60Da1B2c1D9517D4779A73ecb2a5760Fd4C53e8",
      "gasPrice": {
        "_hex": "0xba43b7400"
      },
      "gasLimit": {
        "_hex": "0x5208"
      },
      "to": "0x6747f922385c9a6F9cfDf095F34345257DD597bE",
      "value": {
        "_hex": "0x1072bbac261c000"
      },
      "nonce": 1,
      "data": "0x",
      "r": "0xdf043547e6b18b7fe03609621bdce93d4c8ef1f30f7c1255046f9868d43e21e4",
      "s": "0x4725486d628575442171711c28baaeb58018b1c6c7a2361bb02f14de2cb9981d",
      "v": 28,
      "creates": null,
      "raw": "0xf86c01850ba43b7400825208946747f922385c9a6f9cfdf095f34345257dd597be8801072bbac261c000801ca0df043547e6b18b7fe03609621bdce93d4c8ef1f30f7c1255046f9868d43e21e4a04725486d628575442171711c28baaeb58018b1c6c7a2361bb02f14de2cb9981d",
      "networkId": 0,
      "chainId": 0
    },
    {
      "hash": "0x8c60f953ebc9881ae06cdccf568983eb0dfdde8968f101320c22426be003a3e4",
      "blockHash": "0x42ae4ca3698ae771eb4402d71868e595f1d6c6d5e7e4c1d74c1f31b6eb8468ef",
      "blockNumber": 68533,
      "transactionIndex": 34,
      "confirmations": null,
      "from": "0xf1650e37847266782596B5b4672DD5163bD4Bc3A",
      "gasPrice": {
        "_hex": "0xba43b7400"
      },
      "gasLimit": {
        "_hex": "0x5208"
      },
      "to": "0xE607BA5e12973d8642f568b84227E50ecF9D381b",
      "value": {
        "_hex": "0x36ef271c4dd000"
      },
      "nonce": 1,
      "data": "0x",
      "r": "0xef741ed8ae1d119e0a94cb4a39cf6059585a51df9f20cdf91fc58f80a8748d32",
      "s": "0x5aa6f7fbbbcd0393f7f0eeba7fea5e74f59f33beab20fef95f25816b54d5c3d6",
      "v": 27,
      "creates": null,
      "raw": "0xf86b01850ba43b740082520894e607ba5e12973d8642f568b84227e50ecf9d381b8736ef271c4dd000801ba0ef741ed8ae1d119e0a94cb4a39cf6059585a51df9f20cdf91fc58f80a8748d32a05aa6f7fbbbcd0393f7f0eeba7fea5e74f59f33beab20fef95f25816b54d5c3d6",
      "networkId": 0,
      "chainId": 0
    },
    {
      "hash": "0x212950118ea11fe775c3be90b71a669983d797169bbf9dc166cb054788a17528",
      "blockHash": "0x42ae4ca3698ae771eb4402d71868e595f1d6c6d5e7e4c1d74c1f31b6eb8468ef",
      "blockNumber": 68533,
      "transactionIndex": 35,
      "confirmations": null,
      "from": "0x33023eBC45178A36FE209A0d4f914eb37E4D17bD",
      "gasPrice": {
        "_hex": "0xba43b7400"
      },
      "gasLimit": {
        "_hex": "0x5208"
      },
      "to": "0x6747f922385c9a6F9cfDf095F34345257DD597bE",
      "value": {
        "_hex": "0x1072bbac261c000"
      },
      "nonce": 1,
      "data": "0x",
      "r": "0xa5fe7abbaa70f13b1a375e5f5a2ca52ea3a842c00b91aa1a24f7a9a729703806",
      "s": "0x23ff281d27c380ff9f845106c188e29657874b7fdb6ccca91d010f40429011e4",
      "v": 27,
      "creates": null,
      "raw": "0xf86c01850ba43b7400825208946747f922385c9a6f9cfdf095f34345257dd597be8801072bbac261c000801ba0a5fe7abbaa70f13b1a375e5f5a2ca52ea3a842c00b91aa1a24f7a9a729703806a023ff281d27c380ff9f845106c188e29657874b7fdb6ccca91d010f40429011e4",
      "networkId": 0,
      "chainId": 0
    },
    {
      "hash": "0x3c4995d1c4d44e4f20df1260787cd1861443e649fc0292bdc96de91410f9cafb",
      "blockHash": "0x42ae4ca3698ae771eb4402d71868e595f1d6c6d5e7e4c1d74c1f31b6eb8468ef",
      "blockNumber": 68533,
      "transactionIndex": 36,
      "confirmations": null,
      "from": "0x3de7d5d49D236c03de0C03df886784a71712CC11",
      "gasPrice": {
        "_hex": "0xba43b7400"
      },
      "gasLimit": {
        "_hex": "0x5208"
      },
      "to": "0xf75768D304cAaB27eF45955199ff977f4dD51cDc",
      "value": {
        "_hex": "0x36ef271c4dd000"
      },
      "nonce": 1,
      "data": "0x",
      "r": "0x3b9b2619a43556e48cfab0453a8aba6346e2d3163696a39bbc9c51c205c889c8",
      "s": "0x488d194b9ad4b654958933dd3dc94590e46e73e9c02bab06d17c1356b2523c8c",
      "v": 28,
      "creates": null,
      "raw": "0xf86b01850ba43b740082520894f75768d304caab27ef45955199ff977f4dd51cdc8736ef271c4dd000801ca03b9b2619a43556e48cfab0453a8aba6346e2d3163696a39bbc9c51c205c889c8a0488d194b9ad4b654958933dd3dc94590e46e73e9c02bab06d17c1356b2523c8c",
      "networkId": 0,
      "chainId": 0
    }
  ]
}