{
  "hash": "0x78b9f9796863ea41eb96609bbc30bbdcbf4ef8b6ff6bc64f8c0c007c203ccb29",
  "parentHash": "0xe871b7c5b39bf53541f66a94f361348f32ff6db319d6a547fdfb73f21395e58a",
  "number": 59187,
  "timestamp": 1439133537,
  "nonce": "0x5a8a7822686a0785",
  "difficulty": 1708919473017,
  "gasLimit": {
    "_hex": "0x2fefd2"
  },
  "gasUsed": {
    "_hex": "0x5208"
  },
  "miner": "0xC759dc67E0c3816fdC56A2f5bb29920fc07e767D",
  "extraData": "0x",
  "transactions": [
    {
      "hash": "0x6aa6f15475600efc25fe6372c1b1b3c66f5b8938a912c8913b0b95b71628c840",
      "blockHash": "0x78b9f9796863ea41eb96609bbc30bbdcbf4ef8b6ff6bc64f8c0c007c203ccb29",
      "blockNumber": 59187,
      "transactionIndex": 0,
      "confirmations": null,
      "from": "0x33A3f479f6c3e7F91128348490D1f7E8D2A0FAb5",
      "gasPrice": {
        "_hex": "0xd623b397c"
      },
      "gasLimit": {
        "_hex": "0x5208"
      },
      "to": "0x32Be343B94f860124dC4fEe278FDCBD38C102D88",
      "value": {
        "_hex": "0x377e90eb6eab1800"
      },
      "nonce": 12,
      "data": "0x",
      "r": "0x3722895deec38384684afee507360a79f8354082ca471646cecd13843087fae4",
      "s": "0x2ff986dcc15535add68c4da2d03be6253756e988734d65e87aa506c76ce8b7b1",
      "v": 27,
      "creates": null,
      "raw": "0xf86c0c850d623b397c8252089432be343b94f860124dc4fee278fdcbd38c102d8888377e90eb6eab1800801ba03722895deec38384684afee507360a79f8354082ca471646cecd13843087fae4a02ff986dcc15535add68c4da2d03be6253756e988734d65e87aa506c76ce8b7b1",
      "networkId": 0,
      "chainId": 0
    }
  ]
}