{
  "hash": "0xd6a6763acc2c642b5ba16904a168efc571a48a8e6d2075eacd44de06fb839d9c",
  "parentHash": "0x5133d2bebcc66a4788c05ccd8daedaf22ac5a94a8a099c0cca17b775554a21fb",
  "number": 46237,
  "timestamp": 1438919696,
  "nonce": "0x0bd62bcb189c870e",
  "difficulty": 1462545585534,
  "gasLimit": {
    "_hex": "0x55e6"
  },
  "gasUsed": {
    "_hex": "0x5208"
  },
  "miner": "0x3FF679B0823a026F2378E5f5F22A6F127cC85828",
  "extraData": "0x476574682f76312e302e302f6c696e75782f676f312e342e32",
  "transactions": [
    {
      "hash": "0x3a1be2710cc4c46adaf85bdfd42fa80b0f2044b3d976ee57de845981ae5a2430",
      "blockHash": "0xd6a6763acc2c642b5ba16904a168efc571a48a8e6d2075eacd44de06fb839d9c",
      "blockNumber": 46237,
      "transactionIndex": 0,
      "confirmations": null,
      "from": "0xBbeD46565f5aA9aF9539f543067821fA4B565438",
      "gasPrice": {
        "_hex": "0x106cbd5e58"
      },
      "gasLimit": {
        "_hex": "0x5208"
      },
      "to": "0xbF8d8B4eC992203984f7379b001E87E6943Dd5E3",
      "value": {
        "_hex": "0x40200048201"
      },
      "nonce": 0,
      "data": "0x",
      "r": "0x1553cedc434cc3fb451ebec5fb1505677691d1c399429ff9fa9fa3e7a0c53c6f",
      "s": "0x573181c7666223bb0ca5b4e0670b09f24d5d9d6db840f4f880425a7f3bd2ebcf",
      "v": 27,
      "creates": null,
      "raw": "0xf86a8085106cbd5e5882520894bf8d8b4ec992203984f7379b001e87e6943dd5e386040200048201801ba01553cedc434cc3fb451ebec5fb1505677691d1c399429ff9fa9fa3e7a0c53c6fa0573181c7666223bb0ca5b4e0670b09f24d5d9d6db840f4f880425a7f3bd2ebcf",
      "networkId": 0,
      "chainId": 0
    }
  ]
}