{
  "hash": "0x1520b7cf3b78264b4d539946af8c6e229108ea6e277133cafff5ca2c55a83f5b",
  "parentHash": "0x83eddb666723bc5517fdec6e74d8b443794de35e4dcc4f61fd878d911b931476",
  "number": 75332,
  "timestamp": 1439401564,
  "nonce": "0x7eb7c83d8224d586",
  "difficulty": 2193287397510,
  "gasLimit": {
    "_hex": "0x2fefd8"
  },
  "gasUsed": {
    "_hex": "0xad77"
  },
  "miner": "0x923707da8Dd7Ff41a0bDD87b62c9E5DfA9c420a5",
  "extraData": "0x",
  "transactions": [
    {
      "hash": "0x2dce78292bffe91457e591d2092172409e5882bb35a48b572cbec9661d929e21",
      "blockHash": "0x1520b7cf3b78264b4d539946af8c6e229108ea6e277133cafff5ca2c55a83f5b",
      "blockNumber": 75332,
      "transactionIndex": 0,
      "confirmations": null,
      "from": "0x87C5B5874A18B4306DF8a752a6C8cc3E82daFc19",
      "gasPrice": {
        "_hex": "0xfe86e345df"
      },
      "gasLimit": {
        "_hex": "0x493e0"
      },
      "to": "0xD79B4C6791784184e2755B2fC1659eaaB0f80456",
      "value": {
        "_hex": "0x0"
      },
      "nonce": 43,
      "data": "0x03750d94000000000000000000000000326be8f71bfb0379f989aab1cc1fe37f0a771f603139303737626230623535326234373200000000000000000000000000000000",
      "r": "0xa81d5089fec538af4d083fca4c17e0b923fb1c02ff1c99ae9abff23f8cd1ceb9",
      "s": "0x5b171a704726125de38f8f4ca4f5a2d1e77d074ed77bc454136384807c1da498",
      "v": 27,
      "creates": null,
      "raw": "0xf8aa2b85fe86e345df830493e094d79b4c6791784184e2755b2fc1659eaab0f8045680b84403750d94000000000000000000000000326be8f71bfb0379f989aab1cc1fe37f0a771f6031393037376262306235353262343732000000000000000000000000000000001ba0a81d5089fec538af4d083fca4c17e0b923fb1c02ff1c99ae9abff23f8cd1ceb9a05b171a704726125de38f8f4ca4f5a2d1e77d074ed77bc454136384807c1da498",
      "networkId": 0,
      "chainId": 0
    }
  ]
}