{
  "hash": "0xe095b762fe24ab6e9f4371d030888d3c936ff7a360ef63cfe799c1c3148f041e",
  "parentHash": "0x1f4c1b37c94d764d9a683034e70d5e809e07173649720005c5aabcc270b15e0f",
  "number": 108656,
  "timestamp": 1439944080,
  "nonce": "0x1579ca40571959f4",
  "difficulty": 4331870127476,
  "gasLimit": {
    "_hex": "0x2fefd8"
  },
  "gasUsed": {
    "_hex": "0x5208"
  },
  "miner": "0x52bc44d5378309EE2abF1539BF71dE1b7d7bE3b5",
  "extraData": "0x476574682f76312e302e312d63303261396266632f6c696e75782f676f312e34",
  "transactions": [
    {
      "hash": "0xd6e563a8be59316695ab8d59783728ae8b1149d0ed41ae8572f90b0d919369a1",
      "blockHash": "0xe095b762fe24ab6e9f4371d030888d3c936ff7a360ef63cfe799c1c3148f041e",
      "blockNumber": 108656,
      "transactionIndex": 0,
      "confirmations": null,
      "from": "0x120A270bbC009644e35F0bB6ab13f95b8199c4ad",
      "gasPrice": {
        "_hex": "0xce6ee510a"
      },
      "gasLimit": {
        "_hex": "0x3d090"
      },
      "to": "0x0B50eBD079ADCea71D28590C42d07B5398F19AbA",
      "value": {
        "_hex": "0x15af1d78b58c400000"
      },
      "nonce": 839,
      "data": "0x",
      "r": "0xd99712c558193d2ba8ec449081c1cd30a7154e8558541af4632c04ac02e92103",
      "s": "0x79a38e35e9fb57cc048ceca135d25cb87e9c160d6940b519d5e46079409dcc1f",
      "v": 27,
      "creates": null,
      "raw": "0xf870820347850ce6ee510a8303d090940b50ebd079adcea71d28590c42d07b5398f19aba8915af1d78b58c400000801ba0d99712c558193d2ba8ec449081c1cd30a7154e8558541af4632c04ac02e92103a079a38e35e9fb57cc048ceca135d25cb87e9c160d6940b519d5e46079409dcc1f",
      "networkId": 0,
      "chainId": 0
    }
  ]
}