{
  "hash": "0x011615e11c4d09d6bb3addb26bdf5f594ba36b699ca2afc8ab5e05e898f862b3",
  "parentHash": "0xd903aa14a38bd61cc0cb8f03aad4ad1f94382ad8d47c668d83027fd88d632c01",
  "number": 50388,
  "timestamp": 1438988444,
  "nonce": "0xca7f0316149c576e",
  "difficulty": 1510436191628,
  "gasLimit": {
    "_hex": "0x5f7c0"
  },
  "gasUsed": {
    "_hex": "0xa674"
  },
  "miner": "0xbb7B8287f3F0a933474a79eAe42CBCa977791171",
  "extraData": "0x476574682f4c5649562f76312e302e312f6c696e75782f676f312e342e32",
  "transactions": [
    {
      "hash": "0x74d91314e7fb66593dc6d3861531a415c86d170a71221ea60817ef72e6380949",
      "blockHash": "0x011615e11c4d09d6bb3addb26bdf5f594ba36b699ca2afc8ab5e05e898f862b3",
      "blockNumber": 50388,
      "transactionIndex": 0,
      "confirmations": null,
      "from": "0x06b106649AA8c421ddCd1B8c32cD0418CF30dA1f",
      "gasPrice": {
        "_hex": "0xdf8475800"
      },
      "gasLimit": {
        "_hex": "0x7530"
      },
      "to": "0x2910543Af39abA0Cd09dBb2D50200b3E800A63D2",
      "value": {
        "_hex": "0x3635c9adc5dea00000"
      },
      "nonce": 0,
      "data": "0x454e45413350525130",
      "r": "0x3f0a42535f8cc3c93e20e90606570739f3c0682fcc834b06ee06a1251ae5f8db",
      "s": "0x6f61ed31726f9048011ce0f960f99d7d1052fa1de8c5181031012b58c38d798c",
      "v": 28,
      "creates": null,
      "raw": "0xf87680850df8475800827530942910543af39aba0cd09dbb2d50200b3e800a63d2893635c9adc5dea0000089454e454133505251301ca03f0a42535f8cc3c93e20e90606570739f3c0682fcc834b06ee06a1251ae5f8dba06f61ed31726f9048011ce0f960f99d7d1052fa1de8c5181031012b58c38d798c",
      "networkId": 0,
      "chainId": 0
    },
    {
      "hash": "0x782f0611be14bf698bfa7af287118c2ae9edb86330650ad085b0a49ee51237f5",
      "blockHash": "0x011615e11c4d09d6bb3addb26bdf5f594ba36b699ca2afc8ab5e05e898f862b3",
      "blockNumber": 50388,
      "transactionIndex": 1,
      "confirmations": null,
      "from": "0xb6c00721Fbd69a851EE6456d71C429fBd8f0d022",
      "gasPrice": {
        "_hex": "0xd87e8e81b"
      },
      "gasLimit": {
        "_hex": "0x5208"
      },
      "to": "0x32Be343B94f860124dC4fEe278FDCBD38C102D88",
      "value": {
        "_hex": "0x25524ef0f94874000"
      },
      "nonce": 1,
      "data": "0x",
      "r": "0xd95bd462e2ed708af99f90d1ceadcb0ede3865616628489045e3cea51f7f8ae5",
      "s": "0x410e8871801c99294ceeedce21f97fe33136c62f3ad5310daea71b097bda9211",
      "v": 27,
      "creates": null,
      "raw": "0xf86d01850d87e8e81b8252089432be343b94f860124dc4fee278fdcbd38c102d8889025524ef0f94874000801ba0d95bd462e2ed708af99f90d1ceadcb0ede3865616628489045e3cea51f7f8ae5a0410e8871801c99294ceeedce21f97fe33136c62f3ad5310daea71b097bda9211",
      "networkId": 0,
      "chainId": 0
    }
  ]
}