{
  "hash": "0x4dc077b7f883e388bd9179b25ca35c63dd1ff3deb1e667eba9ba4f2e577095b0",
  "parentHash": "0x32a948b3d4bc9e8439028bffa390d93ffc7157bf8c84c361f3d6d353e8af1fcd",
  "number": 116591,
  "timestamp": 1440090986,
  "nonce": "0xbba2d30baa798048",
  "difficulty": 4480440621274,
  "gasLimit": {
    "_hex": "0x2fefd8"
  },
  "gasUsed": {
    "_hex": "0x5208"
  },
  "miner": "0xe6A7a1d47ff21B6321162AEA7C6CB457D5476Bca",
  "extraData": "0xd783010002844765746887676f312e342e32856c696e7578",
  "transactions": [
    {
      "hash": "0x8951113c8e64302b71a613ed96f4e542e3440bf3ab1b5c00f11f752e353bfa6a",
      "blockHash": "0x4dc077b7f883e388bd9179b25ca35c63dd1ff3deb1e667eba9ba4f2e577095b0",
      "blockNumber": 116591,
      "transactionIndex": 0,
      "confirmations": null,
      "from": "0x69c2D835f13Ee90580408E6a3283c8cCa6A434a2",
      "gasPrice": {
        "_hex": "0xde01493c3"
      },
      "gasLimit": {
        "_hex": "0x15f90"
      },
      "to": "0x6aaa90577344a6D5B9FdC9eeafA7B706796D0c34",
      "value": {
        "_hex": "0x2381cfeeb6d91b0000"
      },
      "nonce": 1,
      "data": "0x",
      "r": "0x8cf272ecf3de1ee91e0c5076cc0837e66189f4dd0815f676cac473cfd844b5cf",
      "s": "0x072d629fda567fd60cfa7155374c424102f8012649d87e257687f6155842e293",
      "v": 28,
      "creates": null,
      "raw": "0xf86e01850de01493c383015f90946aaa90577344a6d5b9fdc9eeafa7b706796d0c34892381cfeeb6d91b0000801ca08cf272ecf3de1ee91e0c5076cc0837e66189f4dd0815f676cac473cfd844b5cfa0072d629fda567fd60cfa7155374c424102f8012649d87e257687f6155842e293",
      "networkId": 0,
      "chainId": 0
    }
  ]
}