{
  "hash": "0x785bcbe09936ca0c281f91bfc21d5a9c8bb1b9408f52bc78cd2b3e3e6b3f4938",
  "parentHash": "0x7ef9611378f075075e87cbfdc083bf4b35910a269085ca75fc813f592f5e5ded",
  "number": 100698,
  "timestamp": 1439810757,
  "nonce": "0x62059215e971764c",
  "difficulty": 3841466738907,
  "gasLimit": {
    "_hex": "0x2fefd8"
  },
  "gasUsed": {
    "_hex": "0x5208"
  },
  "miner": "0x9D49F602b0fdb924Bd63DDE2Bd0907E4A07c63a7",
  "extraData": "0x476574682f76312e302e312f6c696e75782f676f312e342e32",
  "transactions": [
    {
      "hash": "0x1042055acbe9a22610eecafd1406e23243d604cf6bfe4e9647c0bd3b1871cbba",
      "blockHash": "0x785bcbe09936ca0c281f91bfc21d5a9c8bb1b9408f52bc78cd2b3e3e6b3f4938",
      "blockNumber": 100698,
      "transactionIndex": 0,
      "confirmations": null,
      "from": "0x090041473c833bf54B1197fD120F895C537c26B0",
      "gasPrice": {
        "_hex": "0xcb0359314"
      },
      "gasLimit": {
        "_hex": "0x7a120"
      },
      "to": "0xDDb0c5f658658b0108132014D21bF17ad643D3D9",
      "value": {
        "_hex": "0xde0b6b3a7640000"
      },
      "nonce": 2,
      "data": "0x",
      "r": "0x6b3f6a9ce20305db0c9c52f3aeae27dde7f8cb927037a8b072e387d8b92f8c5f",
      "s": "0x7d3e74db16c33f88d9a3bd2450a7fd4539c80dad75ee593d0fe436136e076960",
      "v": 27,
      "creates": null,
      "raw": "0xf86d02850cb03593148307a12094ddb0c5f658658b0108132014d21bf17ad643d3d9880de0b6b3a7640000801ba06b3f6a9ce20305db0c9c52f3aeae27dde7f8cb927037a8b072e387d8b92f8c5fa07d3e74db16c33f88d9a3bd2450a7fd4539c80dad75ee593d0fe436136e076960",
      "networkId": 0,
      "chainId": 0
    }
  ]
}