{
  "hash": "0xc87da4700e2be3165c034867241a2f403c26d81e6ef1e75d43795c4dd745d268",
  "parentHash": "0x14c993fa309c3baf57bb429fbaf3eb402c342c27315d37ddc0f5493607bb9933",
  "number": 80515,
  "timestamp": 1439486611,
  "nonce": "0xac57c25bb8434361",
  "difficulty": 2420332077357,
  "gasLimit": {
    "_hex": "0x2fefd8"
  },
  "gasUsed": {
    "_hex": "0xaa37"
  },
  "miner": "0x9746c7e1ef2bd21FF3997fa467593a89cb852BD0",
  "extraData": "0x476574682f76312e302e312f77696e646f77732f676f312e342e32",
  "transactions": [
    {
      "hash": "0xbaaffa6f2e079f5e56d5562e86253ea8b849bdc42c79ca6d018d38a2ebbd9514",
      "blockHash": "0xc87da4700e2be3165c034867241a2f403c26d81e6ef1e75d43795c4dd745d268",
      "blockNumber": 80515,
      "transactionIndex": 0,
      "confirmations": null,
      "from": "0x87C5B5874A18B4306DF8a752a6C8cc3E82daFc19",
      "gasPrice": {
        "_hex": "0x11105254e01"
      },
      "gasLimit": {
        "_hex": "0x493e0"
      },
      "to": "0xC4c51de1AbF5D60DBd329eC0F999Fd8f021ae9fC",
      "value": {
        "_hex": "0x0"
      },
      "nonce": 230,
      "data": "0x03750d9400000000000000000000000087c5b5874a18b4306df8a752a6c8cc3e82dafc196b6b6b0000000000000000000000000000000000000000000000000000000000",
      "r": "0xa37d4c014aeed3e23377df82547c6955c648618c5fcd2703d5165457e306ac36",
      "s": "0x787dd9fec5435a85cce8d463c5bdacfd0e1c4eebffbe679bc0d5af3f3f3ce09e",
      "v": 28,
      "creates": null,
      "raw": "0xf8ac81e686011105254e01830493e094c4c51de1abf5d60dbd329ec0f999fd8f021ae9fc80b84403750d9400000000000000000000000087c5b5874a18b4306df8a752a6c8cc3e82dafc196b6b6b00000000000000000000000000000000000000000000000000000000001ca0a37d4c014aeed3e23377df82547c6955c648618c5fcd2703d5165457e306ac36a0787dd9fec5435a85cce8d463c5bdacfd0e1c4eebffbe679bc0d5af3f3f3ce09e",
      "networkId": 0,
      "chainId": 0
    }
  ]
}