{
  "hash": "0x672be858f40b980b8704baa3bfb3e6dd7c2425dbb4e6024b2114a68d89429399",
  "parentHash": "0x7cabf37bf5134ab73516df1de07eba7b1e787540d3fa187e7a820b21a30cce99",
  "number": 96811,
  "timestamp": 1439746165,
  "nonce": "0x733ac5df8264aa1a",
  "difficulty": 3756051989296,
  "gasLimit": {
    "_hex": "0x2fefd5"
  },
  "gasUsed": {
    "_hex": "0xf618"
  },
  "miner": "0x6F2a83BC1c1846bf84ffC43B8776f1AA4a9F890F",
  "extraData": "0x",
  "transactions": [
    {
      "hash": "0xcffb3b6107e9eb7a947c5f2185672dcdbede710cb128e5bc7dffe253531b8ab1",
      "blockHash": "0x672be858f40b980b8704baa3bfb3e6dd7c2425dbb4e6024b2114a68d89429399",
      "blockNumber": 96811,
      "transactionIndex": 0,
      "confirmations": null,
      "from": "0xf0E14dCD04aE5E7c883C4244eAA41d61588c0e73",
      "gasPrice": {
        "_hex": "0xe08e2ff47"
      },
      "gasLimit": {
        "_hex": "0x15f90"
      },
      "to": "0x37F3D9168942b0BcA3476480969FDA3539C3B949",
      "value": {
        "_hex": "0x1e6471659a1b0000"
      },
      "nonce": 0,
      "data": "0x",
      "r": "0x3e1c237304edb9caf2dd991d7855f7e0c2f3bc47dbe244e6feea4a056d69717b",
      "s": "0x54e1b4a417420adf3eb89ca01f602a18dfe95c0175112ad428e3206d83aff118",
      "v": 27,
      "creates": null,
      "raw": "0xf86d80850e08e2ff4783015f909437f3d9168942b0bca3476480969fda3539c3b949881e6471659a1b0000801ba03e1c237304edb9caf2dd991d7855f7e0c2f3bc47dbe244e6feea4a056d69717ba054e1b4a417420adf3eb89ca01f602a18dfe95c0175112ad428e3206d83aff118",
      "networkId": 0,
      "chainId": 0
    },
    {
      "hash": "0x9687e292aeb0263f43a61574dc875e72f78b200e5e46e21aa58c3c1d094d3fd8",
      "blockHash": "0x672be858f40b980b8704baa3bfb3e6dd7c2425dbb4e6024b2114a68d89429399",
      "blockNumber": 96811,
      "transactionIndex": 1,
      "confirmations": null,
      "from": "0x7884D470204862a0d1A21122F41ee77430396Ee5",
      "gasPrice": {
        "_hex": "0xddf5a1d9f"
      },
      "gasLimit": {
        "_hex": "0x15f90"
      },
      "to": "0xc963C32F15E59ABfcB814Dd1d96A900CF588B783",
      "value": {
        "_hex": "0x2540be4000"
      },
      "nonce": 23,
      "data": "0x",
      "r": "0xa7e59427de1c3c7fb06d794b2b08271f41e80e3e0cec6c9f61bb301efc56a50b",
      "s": "0x4a4e51cc363b08377fcd73d60b5065862330816c4f79db25d7d2fba5dcf10453",
      "v": 27,
      "creates": null,
      "raw": "0xf86a17850ddf5a1d9f83015f9094c963c32f15e59abfcb814dd1d96a900cf588b783852540be4000801ba0a7e59427de1c3c7fb06d794b2b08271f41e80e3e0cec6c9f61bb301efc56a50ba04a4e51cc363b08377fcd73d60b5065862330816c4f79db25d7d2fba5dcf10453",
      "networkId": 0,
      "chainId": 0
    },
    {
      "hash": "0xd92c1fda192a40b077be4770a949103edac519441b57d2299a582ba43b7eb624",
      "blockHash": "0x672be858f40b980b8704baa3bfb3e6dd7c2425dbb4e6024b2114a68d89429399",
      "blockNumber": 96811,
      "transactionIndex": 2,
      "confirmations": null,
      "from": "0x2660299c07076aEB9cEF872a41EAF75E4C16020D",
      "gasPrice": {
        "_hex": "0xcfe4d9e3e"
      },
      "gasLimit": {
        "_hex": "0x15f90"
      },
      "to": "0x23ac86f02C0e12C822b2c991b4602fbd79EAB8Ed",
      "value": {
        "_hex": "0x482a1c7300080000"
      },
      "nonce": 2,
      "data": "0x",
      "r": "0x79cecd58568225b56d1ad1bdeaf61548603bdabd320296998d45c64b430fe077",
      "s": "0x67ee36265526f4c455396489c6a5911eecabdd86fc93107acc75a3eb8be8fa07",
      "v": 28,
      "creates": null,
      "raw": "0xf86d02850cfe4d9e3e83015f909423ac86f02c0e12c822b2c991b4602fbd79eab8ed88482a1c7300080000801ca079cecd58568225b56d1ad1bdeaf61548603bdabd320296998d45c64b430fe077a067ee36265526f4c455396489c6a5911eecabdd86fc93107acc75a3eb8be8fa07",
      "networkId": 0,
      "chainId": 0
    }
  ]
}