{
  "hash": "0x95b84942cda16987647b044eb8fc9dbaef66e807a5ebf0e5d496ea3b739385be",
  "parentHash": "0x315638b4ef8500f69885bd8fafd998ca600275ade792dfffdb1034b0e72aeff8",
  "number": 83717,
  "timestamp": 1439539716,
  "nonce": "0x4065869c399a92f1",
  "difficulty": 2440766447502,
  "gasLimit": {
    "_hex": "0x2fefd8"
  },
  "gasUsed": {
    "_hex": "0x1dd1f"
  },
  "miner": "0xf927a40C8B7F6E07c5af7FA2155B4864a4112B13",
  "extraData": "0x",
  "transactions": [
    {
      "hash": "0x1743dcdf67c053a5344663a49abb67a7b664d6c11401d04c443b0efd54aae82d",
      "blockHash": "0x95b84942cda16987647b044eb8fc9dbaef66e807a5ebf0e5d496ea3b739385be",
      "blockNumber": 83717,
      "transactionIndex": 0,
      "confirmations": null,
      "from": "0xC2c2c26961e5560081003Bb157549916B21744Db",
      "gasPrice": {
        "_hex": "0xba43b7400"
      },
      "gasLimit": {
        "_hex": "0x1dd24"
      },
      "to": "0xde0B295669a9FD93d5F28D9Ec85E40f4cb697BAe",
      "value": {
        "_hex": "0x0"
      },
      "nonce": 1,
      "data": "0xf00d4b5d0000000000000000000000007c56d94ebeccb769524379c450873519a9d805ff0000000000000000000000000037a6b811ffeb6e072da21179d11b1406371c63",
      "r": "0xdc1e63a00c4c3551fc2187289c7a492deb9affba48bdf84844218b205019ce56",
      "s": "0x17a50c3e5e9bf17a776944276a438c6df056b1d5500231201e2e482ffd49faa8",
      "v": 27,
      "creates": null,
      "raw": "0xf8aa01850ba43b74008301dd2494de0b295669a9fd93d5f28d9ec85e40f4cb697bae80b844f00d4b5d0000000000000000000000007c56d94ebeccb769524379c450873519a9d805ff0000000000000000000000000037a6b811ffeb6e072da21179d11b1406371c631ba0dc1e63a00c4c3551fc2187289c7a492deb9affba48bdf84844218b205019ce56a017a50c3e5e9bf17a776944276a438c6df056b1d5500231201e2e482ffd49faa8",
      "networkId": 0,
      "chainId": 0
    }
  ]
}