{
  "hash": "0x3e9f15e6e1c37f6e267a96c2e154501d58bc74ab4e0941a4206be2648535c4e1",
  "parentHash": "0x8b08cb966af07bec59152ada2f62cc73c4bcf5cc1e241841d7921c18c7ec35d5",
  "number": 79104,
  "timestamp": 1439464461,
  "nonce": "0xeaec21946e31d6a8",
  "difficulty": 2317794118669,
  "gasLimit": {
    "_hex": "0x2fefd8"
  },
  "gasUsed": {
    "_hex": "0x4ed38"
  },
  "miner": "0xbb7B8287f3F0a933474a79eAe42CBCa977791171",
  "extraData": "0x476574682f4c5649562f76312e302e312f6c696e75782f676f312e342e32",
  "transactions": [
    {
      "hash": "0x2cd252866fc51e034a3b9f185ae7c19b6b006efb73fc5e1748c4049072ccb51a",
      "blockHash": "0x3e9f15e6e1c37f6e267a96c2e154501d58bc74ab4e0941a4206be2648535c4e1",
      "blockNumber": 79104,
      "transactionIndex": 0,
      "confirmations": null,
      "from": "0xe6A7a1d47ff21B6321162AEA7C6CB457D5476Bca",
      "gasPrice": {
        "_hex": "0xd256520c0"
      },
      "gasLimit": {
        "_hex": "0x55f0"
      },
      "to": "0xB415e74b9b5B2058EF3541265aaF7ce09C4953bc",
      "value": {
        "_hex": "0x106b4a8f5560f00b8"
      },
      "nonce": 1308,
      "data": "0x",
      "r": "0x6c5c9af94bc3d372a9f6bc051a79513592a9bcc5221c891ebfa14d332bdb6ea5",
      "s": "0x68266bd878f815cef618e3250ff58961928574bf6d501d7e000f61e5108a3e0e",
      "v": 27,
      "creates": null,
      "raw": "0xf86f82051c850d256520c08255f094b415e74b9b5b2058ef3541265aaf7ce09c4953bc890106b4a8f5560f00b8801ba06c5c9af94bc3d372a9f6bc051a79513592a9bcc5221c891ebfa14d332bdb6ea5a068266bd878f815cef618e3250ff58961928574bf6d501d7e000f61e5108a3e0e",
      "networkId": 0,
      "chainId": 0
    },
    {
      "hash": "0xe84ef295721f83378d838aea1c577df84d076f55e8268c5d92d167ba48b696f0",
      "blockHash": "0x3e9f15e6e1c37f6e267a96c2e154501d58bc74ab4e0941a4206be2648535c4e1",
      "blockNumber": 79104,
      "transactionIndex": 1,
      "confirmations": null,
      "from": "0xe6A7a1d47ff21B6321162AEA7C6CB457D5476Bca",
      "gasPrice": {
        "_hex": "0xd256520c0"
      },
      "gasLimit": {
        "_hex": "0x55f0"
      },
      "to": "0x022A006FcC619ebf387F413eF06932bAbd47AE0E",
      "value": {
        "_hex": "0x107d71647355f2090"
      },
      "nonce": 1309,
      "data": "0x",
      "r": "0x71216777db03788083c99e6dd383a3bd0a2af82f0f590ca6dfdd1b0d57b8f914",
      "s": "0x310c78ee8e760a9541bd25293f7e78e596dccb1851ca67202f5d0d7788fc0fd6",
      "v": 28,
      "creates": null,
      "raw": "0xf86f82051d850d256520c08255f094022a006fcc619ebf387f413ef06932babd47ae0e890107d71647355f2090801ca071216777db03788083c99e6dd383a3bd0a2af82f0f590ca6dfdd1b0d57b8f914a0310c78ee8e760a9541bd25293f7e78e596dccb1851ca67202f5d0d7788fc0fd6",
      "networkId": 0,
      "chainId": 0
    },
    {
      "hash": "0x7800b2f1cf174e151ce9b653a63991e0b9a46cd83dfb8088cdf5290a75462984",
      "blockHash": "0x3e9f15e6e1c37f6e267a96c2e154501d58bc74ab4e0941a4206be2648535c4e1",
      "blockNumber": 79104,
      "transactionIndex": 2,
      "confirmations": null,
      "from": "0xe6A7a1d47ff21B6321162AEA7C6CB457D5476Bca",
      "gasPrice": {
        "_hex": "0xd256520c0"
      },
      "gasLimit": {
        "_hex": "0x55f0"
      },
      "to": "0xE6D67E3661E28eE2DfC1c68D5DeeA3C3bB880059",
      "value": {
        "_hex": "0x1139576c886b89e48"
      },
      "nonce": 1310,
      "data": "0x",
      "r": "0xab94005682f7f7d0a63ba6e3aaa63f03098175e96fa4e3d6259511672624ded8",
      "s": "0x3949aa90dd19626912313f144ffd2fc561f76961a5a7fd9e330777fef050ccb6",
      "v": 28,
      "creates": null,
      "raw": "0xf86f82051e850d256520c08255f094e6d67e3661e28ee2dfc1c68d5deea3c3bb8800598901139576c886b89e48801ca0ab94005682f7f7d0a63ba6e3aaa63f03098175e96fa4e3d6259511672624ded8a03949aa90dd19626912313f144ffd2fc561f76961a5a7fd9e330777fef050ccb6",
      "networkId": 0,
      "chainId": 0
    },
    {
      "hash": "0x5c870ed9fa9519a72af752cf77a8d37957c0edb70f332d8ab1f5bee4161137a5",
      "blockHash": "0x3e9f15e6e1c37f6e267a96c2e154501d58bc74ab4e0941a4206be2648535c4e1",
      "blockNumber": 79104,
      "transactionIndex": 3,
      "confirmations": null,
      "from": "0xe6A7a1d47ff21B6321162AEA7C6CB457D5476Bca",
      "gasPrice": {
        "_hex": "0xd256520c0"
      },
      "gasLimit": {
        "_hex": "0x55f0"
      },
      "to": "0x8C37447a7930187595EC51FEA6f749C4F8a96cD4",
      "value": {
        "_hex": "0x11511ed182d1ebe78"
      },
      "nonce": 1311,
      "data": "0x",
      "r": "0x2da50e6943cb1b9d529547a772caaaa796da9b4a21fffc253e71d03027114646",
      "s": "0x432ae26ca9b69ed521d8e0b96b9209daaf0b95cc07273aa13deabc66fca68a1a",
      "v": 28,
      "creates": null,
      "raw": "0xf86f82051f850d256520c08255f0948c37447a7930187595ec51fea6f749c4f8a96cd489011511ed182d1ebe78801ca02da50e6943cb1b9d529547a772caaaa796da9b4a21fffc253e71d03027114646a0432ae26ca9b69ed521d8e0b96b9209daaf0b95cc07273aa13deabc66fca68a1a",
      "networkId": 0,
      "chainId": 0
    },
    {
      "hash": "0xdf51c0eb506a1c01c09ea42d5abcd2314a3de72e3e16440ee00b5abd61d95ebb",
      "blockHash": "0x3e9f15e6e1c37f6e267a96c2e154501d58bc74ab4e0941a4206be2648535c4e1",
      "blockNumber": 79104,
      "transactionIndex": 4,
      "confirmations": null,
      "from": "0xe6A7a1d47ff21B6321162AEA7C6CB457D5476Bca",
      "gasPrice": {
        "_hex": "0xd256520c0"
      },
      "gasLimit": {
        "_hex": "0x55f0"
      },
      "to": "0xAdCa16b4654a92cb67666C0cF61976cEEE81cEEB",
      "value": {
        "_hex": "0x1174bf4a087e156b0"
      },
      "nonce": 1312,
      "data": "0x",
      "r": "0x01f27940eb4ef9bd6a3e20bebb317ec7a278e753cfa0d6c3558d83c58b609ec5",
      "s": "0x0751c575bd655706a2d113f60de2cbfe140b1f26864fb8c24174da4e9e1b3d22",
      "v": 28,
      "creates": null,
      "raw": "0xf86f820520850d256520c08255f094adca16b4654a92cb67666c0cf61976ceee81ceeb8901174bf4a087e156b0801ca001f27940eb4ef9bd6a3e20bebb317ec7a278e753cfa0d6c3558d83c58b609ec5a00751c575bd655706a2d113f60de2cbfe140b1f26864fb8c24174da4e9e1b3d22",
      "networkId": 0,
      "chainId": 0
    },
    {
      "hash": "0x12e80c5ccdd0e21185766c665ef6382f61ab398818e4108cf9abc76deb856bdf",
      "blockHash": "0x3e9f15e6e1c37f6e267a96c2e154501d58bc74ab4e0941a4206be2648535c4e1",
      "blockNumber": 79104,
      "transactionIndex": 5,
      "confirmations": null,
      "from": "0xe6A7a1d47ff21B6321162AEA7C6CB457D5476Bca",
      "gasPrice": {
        "_hex": "0xd256520c0"
      },
      "gasLimit": {
        "_hex": "0x55f0"
      },
      "to": "0x91139B30e3d090a8c542CFB2AA1Cc6e3bfFB491C",
      "value": {
        "_hex": "0x11af815e292623ee8"
      },
      "nonce": 1313,
      "data": "0x",
      "r": "0xc41cbe69b8e3fbb681693b40c847486f178f501331a7e65e926738567b2b79ad",
      "s": "0x0f2d525b898715e74586ea34050a751db9210046b40ea22436ee8a7bd284648e",
      "v": 27,
      "creates": null,
      "raw": "0xf86f820521850d256520c08255f09491139b30e3d090a8c542cfb2aa1cc6e3bffb491c89011af815e292623ee8801ba0c41cbe69b8e3fbb681693b40c847486f178f501331a7e65e926738567b2b79ada00f2d525b898715e74586ea34050a751db9210046b40ea22436ee8a7bd284648e",
      "networkId": 0,
      "chainId": 0
    },
    {
      "hash": "0x0115f9f36c7c187ea933eb5d0828d9b7bcb26a5f6619525fc07f3567c6892212",
      "blockHash": "0x3e9f15e6e1c37f6e267a96c2e154501d58bc74ab4e0941a4206be2648535c4e1",
      "blockNumber": 79104,
      "transactionIndex": 6,
      "confirmations": null,
      "from": "0xe6A7a1d47ff21B6321162AEA7C6CB457D5476Bca",
      "gasPrice": {
        "_hex": "0xd256520c0"
      },
      "gasLimit": {
        "_hex": "0x55f0"
      },
      "to": "0xB1A4B41b8e75a153841c99c62d18588d45e7b406",
      "value": {
        "_hex": "0x11b38cd4eb0c97ae0"
      },
      "nonce": 1314,
      "data": "0x",
      "r": "0x1fd150bf4ec6ee292bb01640c7db47483a22f36d27ca433a3874903e4ca65767",
      "s": "0x73ae58703f0d8a13ca41bb946cfb42af24bbdb8e706474d5067984481df0e605",
      "v": 27,
      "creates": null,
      "raw": "0xf86f820522850d256520c08255f094b1a4b41b8e75a153841c99c62d18588d45e7b40689011b38cd4eb0c97ae0801ba01fd150bf4ec6ee292bb01640c7db47483a22f36d27ca433a3874903e4ca65767a073ae58703f0d8a13ca41bb946cfb42af24bbdb8e706474d5067984481df0e605",
      "networkId": 0,
      "chainId": 0
    },
    {
      "hash": "0x4f31969fdac92ddffe64735b5c59092fc3395f3c3b0253ad4fc9d3ac24d7abec",
      "blockHash": "0x3e9f15e6e1c37f6e267a96c2e154501d58bc74ab4e0941a4206be2648535c4e1",
      "blockNumber": 79104,
      "transactionIndex": 7,
      "confirmations": null,
      "from": "0xe6A7a1d47ff21B6321162AEA7C6CB457D5476Bca",
      "gasPrice": {
        "_hex": "0xd256520c0"
      },
      "gasLimit": {
        "_hex": "0x55f0"
      },
      "to": "0x25A0be9f6fCbDE4F61024B86a33dd80F7cbB3cEc",
      "value": {
        "_hex": "0x11f491055b49e10f0"
      },
      "nonce": 1315,
      "data": "0x",
      "r": "0x6242ead10742d05b6205d5cc6fcebf0b3b722e5a42f5da308008871827c469ea",
      "s": "0x15f3124e246c1a89337740ad2381ddd3d0ea8dbc324328229a7db51d4dfcab9a",
      "v": 28,
      "creates": null,
      "raw": "0xf86f820523850d256520c08255f09425a0be9f6fcbde4f61024b86a33dd80f7cbb3cec89011f491055b49e10f0801ca06242ead10742d05b6205d5cc6fcebf0b3b722e5a42f5da308008871827c469eaa015f3124e246c1a89337740ad2381ddd3d0ea8dbc324328229a7db51d4dfcab9a",
      "networkId": 0,
      "chainId": 0
    },
    {
      "hash": "0x95f67f322fc76a2fa40c7702867cfa6fd5b27413f87737fe56979bfca0e15a22",
      "blockHash": "0x3e9f15e6e1c37f6e267a96c2e154501d58bc74ab4e0941a4206be2648535c4e1",
      "blockNumber": 79104,
      "transactionIndex": 8,
      "confirmations": null,
      "from": "0xe6A7a1d47ff21B6321162AEA7C6CB457D5476Bca",
      "gasPrice": {
        "_hex": "0xd256520c0"
      },
      "gasLimit": {
        "_hex": "0x55f0"
      },
      "to": "0x27e806e70622d2864e1B1f4426D72FFb0457C83a",
      "value": {
        "_hex": "0x1286a227e1d6dfe10"
      },
      "nonce": 1316,
      "data": "0x",
      "r": "0x9d8eb16903cde5b968b6be3e3aa3f3e46249c7e534ef21aebe8c59f5f8c8d2ab",
      "s": "0x1581f5666d68cd426fafc8b411829cbc0810112d3a58751dc7d56365b4ff0f63",
      "v": 27,
      "creates": null,
      "raw": "0xf86f820524850d256520c08255f09427e806e70622d2864e1b1f4426d72ffb0457c83a8901286a227e1d6dfe10801ba09d8eb16903cde5b968b6be3e3aa3f3e46249c7e534ef21aebe8c59f5f8c8d2aba01581f5666d68cd426fafc8b411829cbc0810112d3a58751dc7d56365b4ff0f63",
      "networkId": 0,
      "chainId": 0
    },
    {
      "hash": "0xe71d70f023d37ba67cb569b85d40a929793e1a5b03c10907fc4919fa7bb4e153",
      "blockHash": "0x3e9f15e6e1c37f6e267a96c2e154501d58bc74ab4e0941a4206be2648535c4e1",
      "blockNumber": 79104,
      "transactionIndex": 9,
      "confirmations": null,
      "from": "0xe6A7a1d47ff21B6321162AEA7C6CB457D5476Bca",
      "gasPrice": {
        "_hex": "0xd256520c0"
      },
      "gasLimit": {
        "_hex": "0x55f0"
      },
      "to": "0xD99b25c518320820D3C5ae9f47378DA32dED5f00",
      "value": {
        "_hex": "0x1293cc5ec864fd950"
      },
      "nonce": 1317,
      "data": "0x",
      "r": "0x10ab26bd385bb56df577dcea7b00e012e8c374d856d07d54ac79f2bce072a91f",
      "s": "0x3d1d727de7a0346dc6ff0c2993629730ed1f9ab9198a2c740b3c46ee0928f1d2",
      "v": 28,
      "creates": null,
      "raw": "0xf86f820525850d256520c08255f094d99b25c518320820d3c5ae9f47378da32ded5f008901293cc5ec864fd950801ca010ab26bd385bb56df577dcea7b00e012e8c374d856d07d54ac79f2bce072a91fa03d1d727de7a0346dc6ff0c2993629730ed1f9ab9198a2c740b3c46ee0928f1d2",
      "networkId": 0,
      "chainId": 0
    },
    {
      "hash": "0x6883135fe05789bcc6454c636f4c6c47da3b77d06c22173a673572deae97e30d",
      "blockHash": "0x3e9f15e6e1c37f6e267a96c2e154501d58bc74ab4e0941a4206be2648535c4e1",
      "blockNumber": 79104,
      "transactionIndex": 10,
      "confirmations": null,
      "from": "0xe6A7a1d47ff21B6321162AEA7C6CB457D5476Bca",
      "gasPrice": {
        "_hex": "0xd256520c0"
      },
      "gasLimit": {
        "_hex": "0x55f0"
      },
      "to": "0x1E550f4ecF22cBCb73da4fc090FBf5a5c748b0F1",
      "value": {
        "_hex": "0x12e7b74b4955183d0"
      },
      "nonce": 1318,
      "data": "0x",
      "r": "0x25f193135c2aceb6af884e71ac7834370bd654d4668fb66f4fb66f1f64f50b7b",
      "s": "0x45992fa88dda66ae2cfdaa646fd6e67477d2d681d44108dc517967ceb5c182c4",
      "v": 28,
      "creates": null,
      "raw": "0xf86f820526850d256520c08255f0941e550f4ecf22cbcb73da4fc090fbf5a5c748b0f189012e7b74b4955183d0801ca025f193135c2aceb6af884e71ac7834370bd654d4668fb66f4fb66f1f64f50b7ba045992fa88dda66ae2cfdaa646fd6e67477d2d681d44108dc517967ceb5c182c4",
      "networkId": 0,
      "chainId": 0
    },
    {
      "hash": "0x50a14c6e267cc3c8d63b7a6238db53460f0d5f090d2c51e01c64bfd04243870a",
      "blockHash": "0x3e9f15e6e1c37f6e267a96c2e154501d58bc74ab4e0941a4206be2648535c4e1",
      "blockNumber": 79104,
      "transactionIndex": 11,
      "confirmations": null,
      "from": "0xe6A7a1d47ff21B6321162AEA7C6CB457D5476Bca",
      "gasPrice": {
        "_hex": "0xd256520c0"
      },
      "gasLimit": {
        "_hex": "0x55f0"
      },
      "to": "0xB6AC12CefF0375Da80503AcCa54bf3061Fa917a8",
      "value": {
        "_hex": "0x1319b69d85d073ce0"
      },
      "nonce": 1319,
      "data": "0x",
      "r": "0x31bc84338a295a90879ca88ec21ca066450b31b56c55c872d5dae018b09aa7b6",
      "s": "0x5f979fb1ca0c737f7ee7887af979d0b7fa06224410a3abbc5dd93ba698b57ac5",
      "v": 28,
      "creates": null,
      "raw": "0xf86f820527850d256520c08255f094b6ac12ceff0375da80503acca54bf3061fa917a88901319b69d85d073ce0801ca031bc84338a295a90879ca88ec21ca066450b31b56c55c872d5dae018b09aa7b6a05f979fb1ca0c737f7ee7887af979d0b7fa06224410a3abbc5dd93ba698b57ac5",
      "networkId": 0,
      "chainId": 0
    },
    {
      "hash": "0x17af71c02aa5e62b16eef0cf0de0bff9c1f3595a3290976a8e67f9312ac93ccf",
      "blockHash": "0x3e9f15e6e1c37f6e267a96c2e154501d58bc74ab4e0941a4206be2648535c4e1",
      "blockNumber": 79104,
      "transactionIndex": 12,
      "confirmations": null,
      "from": "0xe6A7a1d47ff21B6321162AEA7C6CB457D5476Bca",
      "gasPrice": {
        "_hex": "0xd256520c0"
      },
      "gasLimit": {
        "_hex": "0x55f0"
      },
      "to": "0x94b20d3d932AA82aD71b86b904A3D769689351b4",
      "value": {
        "_hex": "0x1342e71762782e1d8"
      },
      "nonce": 1320,
      "data": "0x",
      "r": "0x55692b98f8ee9ed4a0df9e70e26d8a73393edf2bc0603cbd7224eb02513e83f9",
      "s": "0x4030841314ab13e38164610606e0daedc79fdbf8f9971578ae33f404ab084327",
      "v": 28,
      "creates": null,
      "raw": "0xf86f820528850d256520c08255f09494b20d3d932aa82ad71b86b904a3d769689351b48901342e71762782e1d8801ca055692b98f8ee9ed4a0df9e70e26d8a73393edf2bc0603cbd7224eb02513e83f9a04030841314ab13e38164610606e0daedc79fdbf8f9971578ae33f404ab084327",
      "networkId": 0,
      "chainId": 0
    },
    {
      "hash": "0x8d9da896a3768a92f8c3b81371ed38599db1942c9c149c5dc226503575ca4466",
      "blockHash": "0x3e9f15e6e1c37f6e267a96c2e154501d58bc74ab4e0941a4206be2648535c4e1",
      "blockNumber": 79104,
      "transactionIndex": 13,
      "confirmations": null,
      "from": "0x7cFa3d23636173A3beFaabc8ca86846A07C4B3DD",
      "gasPrice": {
        "_hex": "0xcb09382f5"
      },
      "gasLimit": {
        "_hex": "0xf4240"
      },
      "to": "0xBCd159845b81E35a0b5aFF57FECCD0b3114791Ab",
      "value": {
        "_hex": "0x0"
      },
      "nonce": 7,
      "data": "0x2e1a7d4d00000000000000000000000000000000000000000000000006f05b59d3b20000",
      "r": "0x318413ea8cfd5744cc3f141758bbabdaf6c0ef322bbce98d23f0359681bfc1fb",
      "s": "0x0592457f3a252fee5f8d30febf3fce489acd1808e11caf4a429c825c7bb77b91",
      "v": 28,
      "creates": null,
      "raw": "0xf88907850cb09382f5830f424094bcd159845b81e35a0b5aff57feccd0b3114791ab80a42e1a7d4d00000000000000000000000000000000000000000000000006f05b59d3b200001ca0318413ea8cfd5744cc3f141758bbabdaf6c0ef322bbce98d23f0359681bfc1fba00592457f3a252fee5f8d30febf3fce489acd1808e11caf4a429c825c7bb77b91",
      "networkId": 0,
      "chainId": 0
    },
    {
      "hash": "0x9944dfe6118161b6da939a106e399502f27caf41b0018617058f6b368a83bf76",
      "blockHash": "0x3e9f15e6e1c37f6e267a96c2e154501d58bc74ab4e0941a4206be2648535c4e1",
      "blockNumber": 79104,
      "transactionIndex": 14,
      "confirmations": null,
      "from": "0x5a09fCD65081Be9d1baFa0493697d85AeCBb22AE",
      "gasPrice": {
        "_hex": "0xba43b7400"
      },
      "gasLimit": {
        "_hex": "0x5267"
      },
      "to": "0x1527fcd698B3A8707bb745F80ab114FfF3Db35E2",
      "value": {
        "_hex": "0x470de4df820000"
      },
      "nonce": 3,
      "data": "0x",
      "r": "0x1ca174c5af119701525f727f24dec80316eddd266d2bc54f90550a14fbc7505c",
      "s": "0xdd6231341e4612fe8a3e546d1a7f8268edcf6b347964bd1efcbc8743d41f1c06",
      "v": 27,
      "creates": null,
      "raw": "0xf86b03850ba43b7400825267941527fcd698b3a8707bb745f80ab114fff3db35e287470de4df820000801ba01ca174c5af119701525f727f24dec80316eddd266d2bc54f90550a14fbc7505ca0dd6231341e4612fe8a3e546d1a7f8268edcf6b347964bd1efcbc8743d41f1c06",
      "networkId": 0,
      "chainId": 0
    }
  ]
}