{
  "hash": "0x31cad951a95548850c6de4f6e7575dc3d48439e93132fcf69320a358cdda497c",
  "parentHash": "0x86cefbbc7f3a5125437ae636bcd08c76554a34f9d064f854c4f4662413b8dce0",
  "number": 105118,
  "timestamp": 1439882042,
  "nonce": "0xfbb5c4486331cd93",
  "difficulty": 4312588476783,
  "gasLimit": {
    "_hex": "0x2fefd8"
  },
  "gasUsed": {
    "_hex": "0x5208"
  },
  "miner": "0xe6A7a1d47ff21B6321162AEA7C6CB457D5476Bca",
  "extraData": "0x476574682f76312e302e312d38326566323666362f6c696e75782f676f312e34",
  "transactions": [
    {
      "hash": "0x0f046352407b4006752f897886b49ec7873053dd6ca8ad814c03ea38ae49e241",
      "blockHash": "0x31cad951a95548850c6de4f6e7575dc3d48439e93132fcf69320a358cdda497c",
      "blockNumber": 105118,
      "transactionIndex": 0,
      "confirmations": null,
      "from": "0x790b8a3cE86E707ED0eD32bF89B3269692a23CC1",
      "gasPrice": {
        "_hex": "0xd60340b78"
      },
      "gasLimit": {
        "_hex": "0x15f90"
      },
      "to": "0x4D67f4F0Db45b3B5a3424B39ed8d972F710381D5",
      "value": {
        "_hex": "0x269798de3130960000"
      },
      "nonce": 32,
      "data": "0x",
      "r": "0xf053381e490b253e8c7689e751f550ebefbcfeb42d81d686582599222b93fbd2",
      "s": "0x50b1b94101d33c1248dc1b5a01029ca8495ddf9749500af8bfda99f8cdaa6149",
      "v": 28,
      "creates": null,
      "raw": "0xf86e20850d60340b7883015f90944d67f4f0db45b3b5a3424b39ed8d972f710381d589269798de3130960000801ca0f053381e490b253e8c7689e751f550ebefbcfeb42d81d686582599222b93fbd2a050b1b94101d33c1248dc1b5a01029ca8495ddf9749500af8bfda99f8cdaa6149",
      "networkId": 0,
      "chainId": 0
    }
  ]
}