{
  "hash": "0x464827bd7de674d4d8b41b91fd9d0ff38c0f6c3c2d4225a46f79c3226a8a4239",
  "parentHash": "0xbd0e84c60ac222ec460d09f7f2ee66ed717f94b65d26f336360e6757b2abc1d8",
  "number": 102767,
  "timestamp": 1439842857,
  "nonce": "0x28b6bf33c1726e09",
  "difficulty": 4046505668373,
  "gasLimit": {
    "_hex": "0x2fefd5"
  },
  "gasUsed": {
    "_hex": "0xa410"
  },
  "miner": "0xe6A7a1d47ff21B6321162AEA7C6CB457D5476Bca",
  "extraData": "0x476574682f76312e302e312d38326566323666362f6c696e75782f676f312e34",
  "transactions": [
    {
      "hash": "0xbc089b86d4e8952f95c20c6bbf42905fe81e69c0385a3133a5f0f244e8f3a593",
      "blockHash": "0x464827bd7de674d4d8b41b91fd9d0ff38c0f6c3c2d4225a46f79c3226a8a4239",
      "blockNumber": 102767,
      "transactionIndex": 0,
      "confirmations": null,
      "from": "0x120A270bbC009644e35F0bB6ab13f95b8199c4ad",
      "gasPrice": {
        "_hex": "0xd6b7b0220"
      },
      "gasLimit": {
        "_hex": "0x3d090"
      },
      "to": "0xCA092A957744f6385B1aee5dC694143E8A06F805",
      "value": {
        "_hex": "0x696d49ca60ca800"
      },
      "nonce": 706,
      "data": "0x",
      "r": "0x005527b9b7f48785d08369ca6ba45e2790a165c8f24f37150d6cb7f2858f2151",
      "s": "0x597e62426a6b4ace587401fc750b1747ee4b8e7a58a66bf425083a39faed0894",
      "v": 27,
      "creates": null,
      "raw": "0xf86e8202c2850d6b7b02208303d09094ca092a957744f6385b1aee5dc694143e8a06f805880696d49ca60ca800801b9f5527b9b7f48785d08369ca6ba45e2790a165c8f24f37150d6cb7f2858f2151a0597e62426a6b4ace587401fc750b1747ee4b8e7a58a66bf425083a39faed0894",
      "networkId": 0,
      "chainId": 0
    },
    {
      "hash": "0x37383cc5c3b71641fb538631d76a45dc2d7c6eb8422999dfcfc30e41fbb04615",
      "blockHash": "0x464827bd7de674d4d8b41b91fd9d0ff38c0f6c3c2d4225a46f79c3226a8a4239",
      "blockNumber": 102767,
      "transactionIndex": 1,
      "confirmations": null,
      "from": "0x2910543Af39abA0Cd09dBb2D50200b3E800A63D2",
      "gasPrice": {
        "_hex": "0xd1a34eab2"
      },
      "gasLimit": {
        "_hex": "0x5208"
      },
      "to": "0x79B8C67B1298733172AB8A72633499AD67F4A8c9",
      "value": {
        "_hex": "0x118430d8097038000"
      },
      "nonce": 1003,
      "data": "0x",
      "r": "0x7fa955a157a925993d7dcc66452d2f824287e2755ecadb36bbaaf0f1fc258d51",
      "s": "0x11bf6c99567a87e5abb9634c3402f5e769b647f03513fa1d151354fee85c50d9",
      "v": 28,
      "creates": null,
      "raw": "0xf86f8203eb850d1a34eab28252089479b8c67b1298733172ab8a72633499ad67f4a8c9890118430d8097038000801ca07fa955a157a925993d7dcc66452d2f824287e2755ecadb36bbaaf0f1fc258d51a011bf6c99567a87e5abb9634c3402f5e769b647f03513fa1d151354fee85c50d9",
      "networkId": 0,
      "chainId": 0
    }
  ]
}