{
  "hash": "0x040ad911ec303beef328920dd77cc000339da9ffec30188bd113ac399b8bde9f",
  "parentHash": "0x0cdb97acd136b83c3b5a4aa580502885481ea5d6f46413291942ab3b1f48831f",
  "number": 86279,
  "timestamp": 1439576090,
  "nonce": "0x18524f2c4aa4df0a",
  "difficulty": 2847107540291,
  "gasLimit": {
    "_hex": "0x2fefd8"
  },
  "gasUsed": {
    "_hex": "0x5208"
  },
  "miner": "0xbd8e0aF411BA54d241f583a53b8FF42f8c0Bf1fF",
  "extraData": "0x476574682f76312e302e312f77696e646f77732f676f312e342e32",
  "transactions": [
    {
      "hash": "0xc6b33a4d6976ade0d8917c171eaab85cb8bbfbe94a6a335fc1f726180f7c7b68",
      "blockHash": "0x040ad911ec303beef328920dd77cc000339da9ffec30188bd113ac399b8bde9f",
      "blockNumber": 86279,
      "transactionIndex": 0,
      "confirmations": null,
      "from": "0x188143c01B67512E0dfc5438A42a904eD8d4AB36",
      "gasPrice": {
        "_hex": "0xd6e6d6e09"
      },
      "gasLimit": {
        "_hex": "0x7530"
      },
      "to": "0x6c716b5177cC5c983057af4D88F7152ebA2CC0a6",
      "value": {
        "_hex": "0xb469471f80140000"
      },
      "nonce": 3,
      "data": "0x",
      "r": "0x71b0cc66015b09e5c11c3b00d98bfa0fa22ebbd9204542c7030081bcf98f12e3",
      "s": "0x3d6af30ae06498cbda7b15eb8f381fd2c83eb72314701fab4ec7ea9d15e7f374",
      "v": 28,
      "creates": null,
      "raw": "0xf86c03850d6e6d6e09827530946c716b5177cc5c983057af4d88f7152eba2cc0a688b469471f80140000801ca071b0cc66015b09e5c11c3b00d98bfa0fa22ebbd9204542c7030081bcf98f12e3a03d6af30ae06498cbda7b15eb8f381fd2c83eb72314701fab4ec7ea9d15e7f374",
      "networkId": 0,
      "chainId": 0
    }
  ]
}