{
  "hash": "0xb6e9c1d26ca4b1e99770610467f77d6d39c41dae502172e7b21bbe5f824a3083",
  "parentHash": "0x74f4409e22ea36a62cadd38976cfe03ea7c0c0d0c6a3299e3e4e60c3de956fed",
  "number": 95689,
  "timestamp": 1439727978,
  "nonce": "0x7cb368fe08d237aa",
  "difficulty": 3623242490004,
  "gasLimit": {
    "_hex": "0x2fefd8"
  },
  "gasUsed": {
    "_hex": "0x14a84"
  },
  "miner": "0xe6A7a1d47ff21B6321162AEA7C6CB457D5476Bca",
  "extraData": "0x476574682f76312e302e312d38326566323666362f6c696e75782f676f312e34",
  "transactions": [
    {
      "hash": "0xda588e045deff7e6855a651f02945a00d5b9fec10b6705d4a736767a65930fc0",
      "blockHash": "0xb6e9c1d26ca4b1e99770610467f77d6d39c41dae502172e7b21bbe5f824a3083",
      "blockNumber": 95689,
      "transactionIndex": 0,
      "confirmations": null,
      "from": "0x32Be343B94f860124dC4fEe278FDCBD38C102D88",
      "gasPrice": {
        "_hex": "0xde00ab705"
      },
      "gasLimit": {
        "_hex": "0x5208"
      },
      "to": "0xCD8C2959c5781245a5DcD72CFfAb01004d804Aa7",
      "value": {
        "_hex": "0x164377fb12352d0000"
      },
      "nonce": 990,
      "data": "0x",
      "r": "0xcee959c493c78634a32ce9388de2fbe7dc1623167f48f335d8fc0517848c88c0",
      "s": "0x5eb385f3eeab26a4439f12296414672073de4489c307a6decc9baf8122ed1510",
      "v": 28,
      "creates": null,
      "raw": "0xf86f8203de850de00ab70582520894cd8c2959c5781245a5dcd72cffab01004d804aa789164377fb12352d0000801ca0cee959c493c78634a32ce9388de2fbe7dc1623167f48f335d8fc0517848c88c0a05eb385f3eeab26a4439f12296414672073de4489c307a6decc9baf8122ed1510",
      "networkId": 0,
      "chainId": 0
    },
    {
      "hash": "0xec764abfdc8976fb6ce778e07bf9774982e3761d3074e3af5c19d57cbe61c9a7",
      "blockHash": "0xb6e9c1d26ca4b1e99770610467f77d6d39c41dae502172e7b21bbe5f824a3083",
      "blockNumber": 95689,
      "transactionIndex": 1,
      "confirmations": null,
      "from": "0x32Be343B94f860124dC4fEe278FDCBD38C102D88",
      "gasPrice": {
        "_hex": "0xde00ab705"
      },
      "gasLimit": {
        "_hex": "0x5208"
      },
      "to": "0x107C98584d4B18bC54E1D74F4d7a0bF505Ca466f",
      "value": {
        "_hex": "0x7bd059da5ed964000"
      },
      "nonce": 991,
      "data": "0x",
      "r": "0x743d8d68598688c9157881eb2dee5e4ef3cbe7b95eaf67db62d6fd6511172537",
      "s": "0x52c00f2744f88c4297d3cbe01bd6958b83a6661876a8ec66dfdc5ee089572162",
      "v": 28,
      "creates": null,
      "raw": "0xf86f8203df850de00ab70582520894107c98584d4b18bc54e1d74f4d7a0bf505ca466f8907bd059da5ed964000801ca0743d8d68598688c9157881eb2dee5e4ef3cbe7b95eaf67db62d6fd6511172537a052c00f2744f88c4297d3cbe01bd6958b83a6661876a8ec66dfdc5ee089572162",
      "networkId": 0,
      "chainId": 0
    },
    {
      "hash": "0x8b9ddda179f48a2bd4a2c33faa5f167475fb1339b776137bf22f8a67cf5b670d",
      "blockHash": "0xb6e9c1d26ca4b1e99770610467f77d6d39c41dae502172e7b21bbe5f824a3083",
      "blockNumber": 95689,
      "transactionIndex": 2,
      "confirmations": null,
      "from": "0x29C0024a99b44d481694cB5D98907a1343D390fD",
      "gasPrice": {
        "_hex": "0xcb75ff570"
      },
      "gasLimit": {
        "_hex": "0x55f0"
      },
      "to": "0x2910543Af39abA0Cd09dBb2D50200b3E800A63D2",
      "value": {
        "_hex": "0x53444835ec580000"
      },
      "nonce": 9,
      "data": "0x454e35354258363738",
      "r": "0xb6da58669f98673238412e921998112a60a68b20f68d88ed4856d03ddc8a4e37",
      "s": "0x3576a5710c07c3d23d3a684b2b60a9990676f628c43e627df2443c798bb4a8c5",
      "v": 28,
      "creates": null,
      "raw": "0xf87509850cb75ff5708255f0942910543af39aba0cd09dbb2d50200b3e800a63d28853444835ec58000089454e353542583637381ca0b6da58669f98673238412e921998112a60a68b20f68d88ed4856d03ddc8a4e37a03576a5710c07c3d23d3a684b2b60a9990676f628c43e627df2443c798bb4a8c5",
      "networkId": 0,
      "chainId": 0
    },
    {
      "hash": "0x6a4d5ca97ba210bda1f6066036b086e40ec6f46385ffa8e2264b80bda44edf26",
      "blockHash": "0xb6e9c1d26ca4b1e99770610467f77d6d39c41dae502172e7b21bbe5f824a3083",
      "blockNumber": 95689,
      "transactionIndex": 3,
      "confirmations": null,
      "from": "0xc93a69dFC0fb3E867D9207599f7fe87d51619635",
      "gasPrice": {
        "_hex": "0xba43b7400"
      },
      "gasLimit": {
        "_hex": "0x5208"
      },
      "to": "0xC47Aaa860008be6f65B58c6C6E02a84e666EfE31",
      "value": {
        "_hex": "0x56bc3a335360c6000"
      },
      "nonce": 11,
      "data": "0x",
      "r": "0x75b8e314691b1bf4d755e83671de3b4645d2db3c88222e38946190f055893f1a",
      "s": "0x49a8b959b2ed0a93cd8c5a668ceda77f97af224505c573c32ede40af66d90a9e",
      "v": 27,
      "creates": null,
      "raw": "0xf86d0b850ba43b740082520894c47aaa860008be6f65b58c6c6e02a84e666efe3189056bc3a335360c6000801ba075b8e314691b1bf4d755e83671de3b4645d2db3c88222e38946190f055893f1aa049a8b959b2ed0a93cd8c5a668ceda77f97af224505c573c32ede40af66d90a9e",
      "networkId": 0,
      "chainId": 0
    }
  ]
}