{
  "hash": "0xc4cda961e02cb2739b779f2b55d4bb82aeb3edb7d5a21be19637f758f48a0c2d",
  "parentHash": "0x95693c3e7d5d65bdccb5f5c457ca1389d6c84492b578ef249ea399f22e391f9c",
  "number": 68307,
  "timestamp": 1439285797,
  "nonce": "0x23856e95fbb40440",
  "difficulty": 2003569535406,
  "gasLimit": {
    "_hex": "0x2fefd8"
  },
  "gasUsed": {
    "_hex": "0x14ccf"
  },
  "miner": "0xe6A7a1d47ff21B6321162AEA7C6CB457D5476Bca",
  "extraData": "0x476574682f76312e302e312d38326566323666362f6c696e75782f676f312e34",
  "transactions": [
    {
      "hash": "0xd121a6ec41f4d75fc3d621e052d4156705f642f19c2aa6775760f4cc1b3b2a5d",
      "blockHash": "0xc4cda961e02cb2739b779f2b55d4bb82aeb3edb7d5a21be19637f758f48a0c2d",
      "blockNumber": 68307,
      "transactionIndex": 0,
      "confirmations": null,
      "from": "0x9c344098BA615A398F11D009905b177C44a7b602",
      "gasPrice": {
        "_hex": "0x117bf910036"
      },
      "gasLimit": {
        "_hex": "0x15f90"
      },
      "to": "0x2910543Af39abA0Cd09dBb2D50200b3E800A63D2",
      "value": {
        "_hex": "0x104379a17a98f10000"
      },
      "nonce": 10,
      "data": "0x454e515a3244355030",
      "r": "0x0911252323fd02f3a1db418422d3b7c8e892be082bce98d63cdf0942bd418e82",
      "s": "0x0c7be4b1ed699f9f043614434a2586a838e4f68717da39ca4dee778716455142",
      "v": 28,
      "creates": null,
      "raw": "0xf8780a860117bf91003683015f90942910543af39aba0cd09dbb2d50200b3e800a63d289104379a17a98f1000089454e515a32443550301ca00911252323fd02f3a1db418422d3b7c8e892be082bce98d63cdf0942bd418e82a00c7be4b1ed699f9f043614434a2586a838e4f68717da39ca4dee778716455142",
      "networkId": 0,
      "chainId": 0
    },
    {
      "hash": "0x7e1a5e20b1f980f00735500ddee7c2cc0e24c49619d8bd03b5d59e3afa5689f6",
      "blockHash": "0xc4cda961e02cb2739b779f2b55d4bb82aeb3edb7d5a21be19637f758f48a0c2d",
      "blockNumber": 68307,
      "transactionIndex": 1,
      "confirmations": null,
      "from": "0x8674c218F0351a62C3BA78C34FD2182A93Da94E2",
      "gasPrice": {
        "_hex": "0xcca0bc443"
      },
      "gasLimit": {
        "_hex": "0x15f90"
      },
      "to": "0x33824F7A78A8357A26758a8bBB71f5AACC164f46",
      "value": {
        "_hex": "0x0"
      },
      "nonce": 70,
      "data": "0xca6d56dc0000000000000000000000008674c218f0351a62c3ba78c34fd2182a93da94e2",
      "r": "0x1d2b7a5cbc388aef444eb75ac5a8afb71e53dc720a2c62b1ee27391f0e0d0a25",
      "s": "0x20e908f61048b5f78786b4073b9a2f989b8d4c2c5cb394effa7846b614d7bc64",
      "v": 28,
      "creates": null,
      "raw": "0xf88946850cca0bc44383015f909433824f7a78a8357a26758a8bbb71f5aacc164f4680a4ca6d56dc0000000000000000000000008674c218f0351a62c3ba78c34fd2182a93da94e21ca01d2b7a5cbc388aef444eb75ac5a8afb71e53dc720a2c62b1ee27391f0e0d0a25a020e908f61048b5f78786b4073b9a2f989b8d4c2c5cb394effa7846b614d7bc64",
      "networkId": 0,
      "chainId": 0
    }
  ]
}