{
  "hash": "0x9a94dc27e425c3dad56db1ee365b7a6abc5a439836b669d117055212bdec21dc",
  "parentHash": "0x43a84a59faa741a8b22e0de3a4939eeb6393ae8c61b505fd8fbe50432d831b2f",
  "number": 52660,
  "timestamp": 1439025284,
  "nonce": "0xe2da52c4bb24d7a0",
  "difficulty": 1567116038687,
  "gasLimit": {
    "_hex": "0x172abc"
  },
  "gasUsed": {
    "_hex": "0xf9448"
  },
  "miner": "0xBb12b5a9B85D4AB8CDE6056E9c1b2a4a337D2261",
  "extraData": "0x476574682f76312e302e312d36393865393864392f6c696e75782f676f312e34",
  "transactions": [
    {
      "hash": "0x44875475d8dd359009250bf0681759fd5e35f6c44778fb68fa3076fd373e0328",
      "blockHash": "0x9a94dc27e425c3dad56db1ee365b7a6abc5a439836b669d117055212bdec21dc",
      "blockNumber": 52660,
      "transactionIndex": 0,
      "confirmations": null,
      "from": "0x32Be343B94f860124dC4fEe278FDCBD38C102D88",
      "gasPrice": {
        "_hex": "0xf68ba3ac4"
      },
      "gasLimit": {
        "_hex": "0x5208"
      },
      "to": "0x1fc000454B2169C9EFfB548829DBf7154Ddb6878",
      "value": {
        "_hex": "0xd0072d945f1b0000"
      },
      "nonce": 21,
      "data": "0x",
      "r": "0x5601dd6df9d404cfb24737b725b95c18921e7f1dcc59a94dc876e3fff4e1798f",
      "s": "0x638d24e05d1369ef402f93583f4d57a57a9bdeb3c7bc486cb3667d2aec395c65",
      "v": 27,
      "creates": null,
      "raw": "0xf86c15850f68ba3ac4825208941fc000454b2169c9effb548829dbf7154ddb687888d0072d945f1b0000801ba05601dd6df9d404cfb24737b725b95c18921e7f1dcc59a94dc876e3fff4e1798fa0638d24e05d1369ef402f93583f4d57a57a9bdeb3c7bc486cb3667d2aec395c65",
      "networkId": 0,
      "chainId": 0
    },
    {
      "hash": "0x49e772da65c0e8b2afb865e74a5a0770e30201d45bb30d32e8dedd0bc4e45db3",
      "blockHash": "0x9a94dc27e425c3dad56db1ee365b7a6abc5a439836b669d117055212bdec21dc",
      "blockNumber": 52660,
      "transactionIndex": 1,
      "confirmations": null,
      "from": "0x54dAeb3E8a6BBC797E4aD2b0339f134b186e4637",
      "gasPrice": {
        "_hex": "0xd8bd64e50"
      },
      "gasLimit": {
        "_hex": "0x7a120"
      },
      "to": "0xBAA54d6E90c3F4d7Ebec11bD180134C7eD8eBb52",
      "value": {
        "_hex": "0x16345785d8a0000"
      },
      "nonce": 870,
      "data": "0x",
      "r": "0xbc6d2ff156b4a9046c87a960411e3575b7bca3bcf9d5144120377b080c8332dc",
      "s": "0x78d6cdcd0a62c16f044bbc8bb573ecf0a9c82590bc93a030c4d5f965f16b4ebd",
      "v": 27,
      "creates": null,
      "raw": "0xf86f820366850d8bd64e508307a12094baa54d6e90c3f4d7ebec11bd180134c7ed8ebb5288016345785d8a0000801ba0bc6d2ff156b4a9046c87a960411e3575b7bca3bcf9d5144120377b080c8332dca078d6cdcd0a62c16f044bbc8bb573ecf0a9c82590bc93a030c4d5f965f16b4ebd",
      "networkId": 0,
      "chainId": 0
    },
    {
      "hash": "0xd5a1323d6e208546667963ab92071bfb62c27865c3e3ef2b0f8b2b5076ea2f55",
      "blockHash": "0x9a94dc27e425c3dad56db1ee365b7a6abc5a439836b669d117055212bdec21dc",
      "blockNumber": 52660,
      "transactionIndex": 2,
      "confirmations": null,
      "from": "0x54dAeb3E8a6BBC797E4aD2b0339f134b186e4637",
      "gasPrice": {
        "_hex": "0xd8bd64e50"
      },
      "gasLimit": {
        "_hex": "0x7a120"
      },
      "to": "0xBAA54d6E90c3F4d7Ebec11bD180134C7eD8eBb52",
      "value": {
        "_hex": "0x16345785d8a0000"
      },
      "nonce": 871,
      "data": "0x",
      "r": "0x5326e8ba4c9183006adad3ab7fa1e6cb19f28b92172d6f2402b105129457399d",
      "s": "0x3c7c7f64b4924450d32809e8a653bf9ee31fca76370ce1ee5c6b4e9a3f9994aa",
      "v": 27,
      "creates": null,
      "raw": "0xf86f820367850d8bd64e508307a12094baa54d6e90c3f4d7ebec11bd180134c7ed8ebb5288016345785d8a0000801ba05326e8ba4c9183006adad3ab7fa1e6cb19f28b92172d6f2402b105129457399da03c7c7f64b4924450d32809e8a653bf9ee31fca76370ce1ee5c6b4e9a3f9994aa",
      "networkId": 0,
      "chainId": 0
    }
  ]
}