{
  "hash": "0x3f2ddf1a6e33437ab3592717af01d20fc1a5b7083f0be0244f9a4013abd81c7a",
  "parentHash": "0xaad22bb1cea0824488c1425e70c8c40bb498b8cc9e6499a8a871b61d1cfe00a6",
  "number": 106014,
  "timestamp": 1439897230,
  "nonce": "0x6bb853058e311b6d",
  "difficulty": 4466422442573,
  "gasLimit": {
    "_hex": "0x2fefd8"
  },
  "gasUsed": {
    "_hex": "0xa674"
  },
  "miner": "0xe6A7a1d47ff21B6321162AEA7C6CB457D5476Bca",
  "extraData": "0x476574682f76312e302e312d38326566323666362f6c696e75782f676f312e34",
  "transactions": [
    {
      "hash": "0xc323f46e7767463a2a743143dbd4120d0da79e3f0a6116ddef3ceecb45a25080",
      "blockHash": "0x3f2ddf1a6e33437ab3592717af01d20fc1a5b7083f0be0244f9a4013abd81c7a",
      "blockNumber": 106014,
      "transactionIndex": 0,
      "confirmations": null,
      "from": "0x2Bc9d7b174F672D00FD506F72D8d26C1d8aD9b1D",
      "gasPrice": {
        "_hex": "0x110c8f7d8de"
      },
      "gasLimit": {
        "_hex": "0xc350"
      },
      "to": "0x2910543Af39abA0Cd09dBb2D50200b3E800A63D2",
      "value": {
        "_hex": "0xc1aa1e90309380000"
      },
      "nonce": 0,
      "data": "0x454e51313654353738",
      "r": "0xf41a141258eebb356f52cccf36cf839281cf9d2d413755ed9afbd0af27bec460",
      "s": "0xa1e8c3ababf213923bae79ef2db3922afa8cd2fed9033e9a61e9333f548fe876",
      "v": 28,
      "creates": null,
      "raw": "0xf87780860110c8f7d8de82c350942910543af39aba0cd09dbb2d50200b3e800a63d2890c1aa1e9030938000089454e513136543537381ca0f41a141258eebb356f52cccf36cf839281cf9d2d413755ed9afbd0af27bec460a0a1e8c3ababf213923bae79ef2db3922afa8cd2fed9033e9a61e9333f548fe876",
      "networkId": 0,
      "chainId": 0
    },
    {
      "hash": "0xac2ef6ddbe06a83fc1510e8cbeba3545ebd27a1192a38994e4f810ee7f5c71f9",
      "blockHash": "0x3f2ddf1a6e33437ab3592717af01d20fc1a5b7083f0be0244f9a4013abd81c7a",
      "blockNumber": 106014,
      "transactionIndex": 1,
      "confirmations": null,
      "from": "0x3730a07b6d2d7413d0d76B91935F60bB0b1d8E2F",
      "gasPrice": {
        "_hex": "0xba43b7400"
      },
      "gasLimit": {
        "_hex": "0x5267"
      },
      "to": "0x0a0a0a169A784a9B524d0d40f03552053B360F21",
      "value": {
        "_hex": "0x4543980e79f98000"
      },
      "nonce": 5,
      "data": "0x",
      "r": "0xf8435668a6c40451772194a87c5db219e147dc0a47d54a20504c026ac67c3812",
      "s": "0xb41a47b24cafaa777f05681c37320739066a2a67bae703b0b3a9540534e3ee16",
      "v": 27,
      "creates": null,
      "raw": "0xf86c05850ba43b7400825267940a0a0a169a784a9b524d0d40f03552053b360f21884543980e79f98000801ba0f8435668a6c40451772194a87c5db219e147dc0a47d54a20504c026ac67c3812a0b41a47b24cafaa777f05681c37320739066a2a67bae703b0b3a9540534e3ee16",
      "networkId": 0,
      "chainId": 0
    }
  ]
}