{
  "hash": "0xb42b4ef34edc3de5f1aec32e1f5b8545044ab442188295304e8622ded135f1d7",
  "parentHash": "0x4043da694af63d02bcdc1ab52225ea6d73819adf85b7c8d2224fd5cf8659a2de",
  "number": 62479,
  "timestamp": 1439189552,
  "nonce": "0x2c4948b077dc707e",
  "difficulty": 1759035634517,
  "gasLimit": {
    "_hex": "0x2fefd8"
  },
  "gasUsed": {
    "_hex": "0x5208"
  },
  "miner": "0xF2d2AfF1320476cb8C6b607199D23175cc595693",
  "extraData": "0x476574682f76312e302e312f77696e646f77732f676f312e342e32",
  "transactions": [
    {
      "hash": "0x7613216fb2aa64ec4c9cebaba32fc7a1514750413bd5ad477910fc55be82200b",
      "blockHash": "0xb42b4ef34edc3de5f1aec32e1f5b8545044ab442188295304e8622ded135f1d7",
      "blockNumber": 62479,
      "transactionIndex": 0,
      "confirmations": null,
      "from": "0xc8ebccC5F5689Fa8659d83713341e5aD19349448",
      "gasPrice": {
        "_hex": "0xd55d74a4e"
      },
      "gasLimit": {
        "_hex": "0x15f90"
      },
      "to": "0x02017Ae4e03d3eB7322e0Fcd8738CA20AFDE53e4",
      "value": {
        "_hex": "0x8ac7230489e80000"
      },
      "nonce": 23,
      "data": "0x",
      "r": "0xec67a1a357a40381d0c01a80e2149c0a9eb6ae3f7c103421d99ea6dc2e40de71",
      "s": "0x7861e7141a06eabe777ed2e742a1f0dcd66c071c166907280a911038314632d9",
      "v": 27,
      "creates": null,
      "raw": "0xf86d17850d55d74a4e83015f909402017ae4e03d3eb7322e0fcd8738ca20afde53e4888ac7230489e80000801ba0ec67a1a357a40381d0c01a80e2149c0a9eb6ae3f7c103421d99ea6dc2e40de71a07861e7141a06eabe777ed2e742a1f0dcd66c071c166907280a911038314632d9",
      "networkId": 0,
      "chainId": 0
    }
  ]
}