{
  "hash": "0xfa5d824221ce9693e076503aa9e38ffc6a4561dbf964cbde4c65e1fc44b05d9a",
  "parentHash": "0x82202e8b9b3ed7bec4b750554c57efd5521285cec6bb82df8d8e203ea1c1a6f7",
  "number": 94010,
  "timestamp": 1439701163,
  "nonce": "0xd9932e862100d2c2",
  "difficulty": 3480034285381,
  "gasLimit": {
    "_hex": "0x2fefd8"
  },
  "gasUsed": {
    "_hex": "0xf618"
  },
  "miner": "0x88D74a59454F6cF3B51ef6b9136AFb6b9D405A88",
  "extraData": "0x476574682f76312e302e312d37666266393930632f6c696e75782f676f312e34",
  "transactions": [
    {
      "hash": "0x1f2bcf1b365b82687d46d14f1668068c6467207eb490e07e26a2982a2291c987",
      "blockHash": "0xfa5d824221ce9693e076503aa9e38ffc6a4561dbf964cbde4c65e1fc44b05d9a",
      "blockNumber": 94010,
      "transactionIndex": 0,
      "confirmations": null,
      "from": "0x2910543Af39abA0Cd09dBb2D50200b3E800A63D2",
      "gasPrice": {
        "_hex": "0xdc12ec73e"
      },
      "gasLimit": {
        "_hex": "0x5208"
      },
      "to": "0x2f86ba8019945f39edE131D38d4d8780884DA553",
      "value": {
        "_hex": "0x10f0cdea164213f8000"
      },
      "nonce": 863,
      "data": "0x",
      "r": "0x8a9299fa8e2867844c56c4957fa77c5643609123e73985524824f4379ef71839",
      "s": "0x2f677b45bc2b17561ed5c997e2b76cfa8cb9638601ba9ef5ad38d87b18361a43",
      "v": 27,
      "creates": null,
      "raw": "0xf87082035f850dc12ec73e825208942f86ba8019945f39ede131d38d4d8780884da5538a010f0cdea164213f8000801ba08a9299fa8e2867844c56c4957fa77c5643609123e73985524824f4379ef71839a02f677b45bc2b17561ed5c997e2b76cfa8cb9638601ba9ef5ad38d87b18361a43",
      "networkId": 0,
      "chainId": 0
    },
    {
      "hash": "0xd138060e6ae6908c806a71c61c77f26389882453e53eadbe2cf79988eedff545",
      "blockHash": "0xfa5d824221ce9693e076503aa9e38ffc6a4561dbf964cbde4c65e1fc44b05d9a",
      "blockNumber": 94010,
      "transactionIndex": 1,
      "confirmations": null,
      "from": "0x2910543Af39abA0Cd09dBb2D50200b3E800A63D2",
      "gasPrice": {
        "_hex": "0xdc12ec73e"
      },
      "gasLimit": {
        "_hex": "0x5208"
      },
      "to": "0x289B9bA6dC9c12D3130F1115180397C20cCBF220",
      "value": {
        "_hex": "0x16c14f527f1d85c8000"
      },
      "nonce": 864,
      "data": "0x",
      "r": "0x10f0820570e4a03db174d9a47437ee732e041474079ec840bc15e76bfd66f0b2",
      "s": "0x4dc6548db609764a5dcbae23fd30fde46fd14ba9e89fd3b1f63ea7d1e8689f1e",
      "v": 27,
      "creates": null,
      "raw": "0xf870820360850dc12ec73e82520894289b9ba6dc9c12d3130f1115180397c20ccbf2208a016c14f527f1d85c8000801ba010f0820570e4a03db174d9a47437ee732e041474079ec840bc15e76bfd66f0b2a04dc6548db609764a5dcbae23fd30fde46fd14ba9e89fd3b1f63ea7d1e8689f1e",
      "networkId": 0,
      "chainId": 0
    },
    {
      "hash": "0x1bce41d79295f5005e9a5d9e4496bf0e967a7cf60932c542242a0d1ee2ce7295",
      "blockHash": "0xfa5d824221ce9693e076503aa9e38ffc6a4561dbf964cbde4c65e1fc44b05d9a",
      "blockNumber": 94010,
      "transactionIndex": 2,
      "confirmations": null,
      "from": "0xf1f13E70bf1318a5E7171447154Bf1A9B7565B0C",
      "gasPrice": {
        "_hex": "0xba43b7400"
      },
      "gasLimit": {
        "_hex": "0x5265"
      },
      "to": "0x0000000000000000000000000000000000000000",
      "value": {
        "_hex": "0x11c37937e08000"
      },
      "nonce": 3,
      "data": "0x",
      "r": "0x9e24d440c4ff9fba5ec0858317cdca0fbdc342880c3c2acd78c9302640b8f80c",
      "s": "0xdb226a87d4841b1beab81d36480589f535f3e6b009771df914e0afd4df66ce16",
      "v": 28,
      "creates": null,
      "raw": "0xf86b03850ba43b74008252659400000000000000000000000000000000000000008711c37937e08000801ca09e24d440c4ff9fba5ec0858317cdca0fbdc342880c3c2acd78c9302640b8f80ca0db226a87d4841b1beab81d36480589f535f3e6b009771df914e0afd4df66ce16",
      "networkId": 0,
      "chainId": 0
    }
  ]
}