{
  "hash": "0x95b3fdb83d25f75755e66a992e254e05d4203bb63bfa55c9174459559445d4d4",
  "parentHash": "0x53ed0d258e6e51cf027102ab24a63932fadb3ce843f789a5a09ff04f5da56b19",
  "number": 76764,
  "timestamp": 1439425765,
  "nonce": "0x383774ad6dfac630",
  "difficulty": 2240536132356,
  "gasLimit": {
    "_hex": "0x2fefd8"
  },
  "gasUsed": {
    "_hex": "0xad77"
  },
  "miner": "0x01d9DA08cc6Fb97c0DE1B6F4C28910A0859Ed1A1",
  "extraData": "0x476574682f76312e302e312f6c696e75782f676f312e342e32",
  "transactions": [
    {
      "hash": "0xe07906fa5ba51c0b93ad522af9c8e680812df758368b1af563681ad1aba60d7f",
      "blockHash": "0x95b3fdb83d25f75755e66a992e254e05d4203bb63bfa55c9174459559445d4d4",
      "blockNumber": 76764,
      "transactionIndex": 0,
      "confirmations": null,
      "from": "0x87C5B5874A18B4306DF8a752a6C8cc3E82daFc19",
      "gasPrice": {
        "_hex": "0x102158a49dd"
      },
      "gasLimit": {
        "_hex": "0x493e0"
      },
      "to": "0xD79B4C6791784184e2755B2fC1659eaaB0f80456",
      "value": {
        "_hex": "0x0"
      },
      "nonce": 83,
      "data": "0x03750d940000000000000000000000008be84a3adfbc51c59023b2413766e229108c35de6538323730353665303761383661633400000000000000000000000000000000",
      "r": "0xca3b525fa607a1a1b6a251c46a80992ce42985533e552b29b5f9bb15fab2c23a",
      "s": "0x2bd72a2de863d85653368b8aa0d55c951f85935fecc897309022b90ae6226f33",
      "v": 28,
      "creates": null,
      "raw": "0xf8ab53860102158a49dd830493e094d79b4c6791784184e2755b2fc1659eaab0f8045680b84403750d940000000000000000000000008be84a3adfbc51c59023b2413766e229108c35de65383237303536653037613836616334000000000000000000000000000000001ca0ca3b525fa607a1a1b6a251c46a80992ce42985533e552b29b5f9bb15fab2c23aa02bd72a2de863d85653368b8aa0d55c951f85935fecc897309022b90ae6226f33",
      "networkId": 0,
      "chainId": 0
    }
  ]
}