{
  "hash": "0xe6e0511477809d221e73a3da729091e9cd4dcc8a5c2c7816ce43e111a7b71289",
  "parentHash": "0x8cd609194ada887542a096833e3a04226bd7a252c280725d9fc844fa5d3f0ee2",
  "number": 85850,
  "timestamp": 1439569823,
  "nonce": "0x0a98033bccc3a9fa",
  "difficulty": 2774514600805,
  "gasLimit": {
    "_hex": "0x2fefd8"
  },
  "gasUsed": {
    "_hex": "0xa410"
  },
  "miner": "0xe6A7a1d47ff21B6321162AEA7C6CB457D5476Bca",
  "extraData": "0x476574682f76312e302e312d38326566323666362f6c696e75782f676f312e34",
  "transactions": [
    {
      "hash": "0xc377ff05d5b062a112de6420a31adf32c91c803e716dd61b3a9b9633c51574c5",
      "blockHash": "0xe6e0511477809d221e73a3da729091e9cd4dcc8a5c2c7816ce43e111a7b71289",
      "blockNumber": 85850,
      "transactionIndex": 0,
      "confirmations": null,
      "from": "0x2910543Af39abA0Cd09dBb2D50200b3E800A63D2",
      "gasPrice": {
        "_hex": "0xd22aa8c2d"
      },
      "gasLimit": {
        "_hex": "0x5208"
      },
      "to": "0x0A63E1A8C33e351679e3581AC84ce341C32f813a",
      "value": {
        "_hex": "0x1bafa9ee16e78000"
      },
      "nonce": 628,
      "data": "0x",
      "r": "0x1f9ba61bddb7c957ff1aea27e381241a2f33c935d13b52576f9bf2495a737d1d",
      "s": "0x190d4c220141b006e7404fca8e07e50a0ee71062ef8fab94cc04d9f04c523e06",
      "v": 28,
      "creates": null,
      "raw": "0xf86e820274850d22aa8c2d825208940a63e1a8c33e351679e3581ac84ce341c32f813a881bafa9ee16e78000801ca01f9ba61bddb7c957ff1aea27e381241a2f33c935d13b52576f9bf2495a737d1da0190d4c220141b006e7404fca8e07e50a0ee71062ef8fab94cc04d9f04c523e06",
      "networkId": 0,
      "chainId": 0
    },
    {
      "hash": "0xeb66d6a0f809958b0ded9283178b2ed7b5e5eda101124cac351b1668cc22d212",
      "blockHash": "0xe6e0511477809d221e73a3da729091e9cd4dcc8a5c2c7816ce43e111a7b71289",
      "blockNumber": 85850,
      "transactionIndex": 1,
      "confirmations": null,
      "from": "0xcBAc58e027A3C27C108ceC06199EBdcA862ca57e",
      "gasPrice": {
        "_hex": "0xba43b7400"
      },
      "gasLimit": {
        "_hex": "0x5208"
      },
      "to": "0xC47Aaa860008be6f65B58c6C6E02a84e666EfE31",
      "value": {
        "_hex": "0x18a07b3bcf9634f0"
      },
      "nonce": 0,
      "data": "0x",
      "r": "0xd3f965a0f8da43458e8e34ca91d44afa0b8f2a783ff2b6b85bab030f86ee7640",
      "s": "0x53d4416632220f2b7b71e91f5c213f186e658c13e16fde497f059a25c6ec8725",
      "v": 28,
      "creates": null,
      "raw": "0xf86c80850ba43b740082520894c47aaa860008be6f65b58c6c6e02a84e666efe318818a07b3bcf9634f0801ca0d3f965a0f8da43458e8e34ca91d44afa0b8f2a783ff2b6b85bab030f86ee7640a053d4416632220f2b7b71e91f5c213f186e658c13e16fde497f059a25c6ec8725",
      "networkId": 0,
      "chainId": 0
    }
  ]
}