{
  "hash": "0x846b2ef3f16e0d4244707e2b6c6e3c7225a424a65026b6435ff9423215f97e0a",
  "parentHash": "0x82e50f1981079b73972a713891ea9d00631b4ad6afc08a282eff5606e2a9fde5",
  "number": 121735,
  "timestamp": 1440181687,
  "nonce": "0x5248894e0b2cd561",
  "difficulty": 4490831480738,
  "gasLimit": {
    "_hex": "0x2fefd8"
  },
  "gasUsed": {
    "_hex": "0x5208"
  },
  "miner": "0xe6A7a1d47ff21B6321162AEA7C6CB457D5476Bca",
  "extraData": "0xd783010002844765746887676f312e342e32856c696e7578",
  "transactions": [
    {
      "hash": "0x364db6f816d37d8d3ac65242073fd694a6801a125deef3ffe79dc21fe0ca89c5",
      "blockHash": "0x846b2ef3f16e0d4244707e2b6c6e3c7225a424a65026b6435ff9423215f97e0a",
      "blockNumber": 121735,
      "transactionIndex": 0,
      "confirmations": null,
      "from": "0x63738Ec4C9adec404749B5747F3bbE2147de632F",
      "gasPrice": {
        "_hex": "0xcd268b6e2"
      },
      "gasLimit": {
        "_hex": "0x15f90"
      },
      "to": "0x557C2806B6ceA65a66F415bb2Ed1ce897B340745",
      "value": {
        "_hex": "0x8ac7230489e80000"
      },
      "nonce": 71,
      "data": "0x",
      "r": "0x95c01156535c78e86f2c78ebf64e0732d334ebad1580b4e6585114e0dff59968",
      "s": "0x263b15e38c26f569c97495f940729847a4b0bce3010facab33475e6fc0362b6c",
      "v": 28,
      "creates": null,
      "raw": "0xf86d47850cd268b6e283015f9094557c2806b6cea65a66f415bb2ed1ce897b340745888ac7230489e80000801ca095c01156535c78e86f2c78ebf64e0732d334ebad1580b4e6585114e0dff59968a0263b15e38c26f569c97495f940729847a4b0bce3010facab33475e6fc0362b6c",
      "networkId": 0,
      "chainId": 0
    }
  ]
}