{
  "hash": "0x96c18491e869adf7bf893e9a99809d984181513fef43526a4cde26611862145a",
  "parentHash": "0x79b2cd4de79e4d49d7ac126e111efabe6dda946e01fad8a39a6417e1e05538e7",
  "number": 53708,
  "timestamp": 1439042312,
  "nonce": "0xe5bf203b2a2e3d3d",
  "difficulty": 1593150726688,
  "gasLimit": {
    "_hex": "0x2fefd8"
  },
  "gasUsed": {
    "_hex": "0x5208"
  },
  "miner": "0x6Cf387a1C50cF6b09634E0d24fDAa2c06Be0ea95",
  "extraData": "0x476574682f76312e302e312d38326566323666362f6c696e75782f676f312e34",
  "transactions": [
    {
      "hash": "0x7c56f0a607b4fcf3949d3749a85d3d6ce998bccc576a2d5b615fe18a78dbb96d",
      "blockHash": "0x96c18491e869adf7bf893e9a99809d984181513fef43526a4cde26611862145a",
      "blockNumber": 53708,
      "transactionIndex": 0,
      "confirmations": null,
      "from": "0x24339341F29d2aaD7d3c591c0f9931e7D4bFEd6e",
      "gasPrice": {
        "_hex": "0x45d964b800"
      },
      "gasLimit": {
        "_hex": "0x5208"
      },
      "to": "0x56011d6b57A70c27F7cc294905A5DdA65BfBd154",
      "value": {
        "_hex": "0x12f939c99edab80000"
      },
      "nonce": 4,
      "data": "0x",
      "r": "0x0f8b03dfc39a4a763ecd2ddaf62954a47c881fa7da42131719564a27a71a6e22",
      "s": "0x5d68a3a78176ee60c490adf8450bfc59a58eeda2dd28fd4c8ec80b0993b55699",
      "v": 27,
      "creates": null,
      "raw": "0xf86d048545d964b8008252089456011d6b57a70c27f7cc294905a5dda65bfbd1548912f939c99edab80000801ba00f8b03dfc39a4a763ecd2ddaf62954a47c881fa7da42131719564a27a71a6e22a05d68a3a78176ee60c490adf8450bfc59a58eeda2dd28fd4c8ec80b0993b55699",
      "networkId": 0,
      "chainId": 0
    }
  ]
}