{
  "hash": "0x6eaeb1bdd0b38addc66f6ee19ed31acc892f2fd8c58aed107d461adc3e6fd3d6",
  "parentHash": "0x3cc0a9c60ef4c4f075cca58f4e48a8f373b87a38a67ee4cdbcf56454387337b7",
  "number": 101377,
  "timestamp": 1439822135,
  "nonce": "0x2c10a1a3412e92bb",
  "difficulty": 3816850694438,
  "gasLimit": {
    "_hex": "0x2fefd8"
  },
  "gasUsed": {
    "_hex": "0xa410"
  },
  "miner": "0xa6BDc31c431B8F97848c9D60cbbe9660dc450eB7",
  "extraData": "0x",
  "transactions": [
    {
      "hash": "0x3e04579a959be513571ccac4289c4176d0e9269a8097732b00e31975b7255203",
      "blockHash": "0x6eaeb1bdd0b38addc66f6ee19ed31acc892f2fd8c58aed107d461adc3e6fd3d6",
      "blockNumber": 101377,
      "transactionIndex": 0,
      "confirmations": null,
      "from": "0x10a3287DC19D160c0EF7dAE4e51670b0394ef951",
      "gasPrice": {
        "_hex": "0xd8b65f22e"
      },
      "gasLimit": {
        "_hex": "0x5208"
      },
      "to": "0x32Be343B94f860124dC4fEe278FDCBD38C102D88",
      "value": {
        "_hex": "0xb3802416c3beb000"
      },
      "nonce": 3,
      "data": "0x",
      "r": "0xa23c0539c20f21f50ebb0d8f838f5a1c84aeb930d34c95606b2189027bc4a379",
      "s": "0x016f508566eec83d913dfd048272c3864e3c6292af4a2f01f1dae17b2e9803b9",
      "v": 28,
      "creates": null,
      "raw": "0xf86c03850d8b65f22e8252089432be343b94f860124dc4fee278fdcbd38c102d8888b3802416c3beb000801ca0a23c0539c20f21f50ebb0d8f838f5a1c84aeb930d34c95606b2189027bc4a379a0016f508566eec83d913dfd048272c3864e3c6292af4a2f01f1dae17b2e9803b9",
      "networkId": 0,
      "chainId": 0
    },
    {
      "hash": "0x8d58956a55b8dee9525fa8527ebd370e95a65a8c1091aab4e5a04e5d78d9ec20",
      "blockHash": "0x6eaeb1bdd0b38addc66f6ee19ed31acc892f2fd8c58aed107d461adc3e6fd3d6",
      "blockNumber": 101377,
      "transactionIndex": 1,
      "confirmations": null,
      "from": "0x19d1f826fce0c97733e0202eFCCc4A5608e8Eb6d",
      "gasPrice": {
        "_hex": "0xd8b65f22e"
      },
      "gasLimit": {
        "_hex": "0x5208"
      },
      "to": "0x32Be343B94f860124dC4fEe278FDCBD38C102D88",
      "value": {
        "_hex": "0x22f680e280f6e6000"
      },
      "nonce": 3,
      "data": "0x",
      "r": "0x123f01b0945140c9d9423df007805911f899088e9fa4bc267cee20e93b2204f1",
      "s": "0x742d7f2ca32d780a53ca195d647435b6f71d684c887180b8ae5639522fd6863f",
      "v": 28,
      "creates": null,
      "raw": "0xf86d03850d8b65f22e8252089432be343b94f860124dc4fee278fdcbd38c102d8889022f680e280f6e6000801ca0123f01b0945140c9d9423df007805911f899088e9fa4bc267cee20e93b2204f1a0742d7f2ca32d780a53ca195d647435b6f71d684c887180b8ae5639522fd6863f",
      "networkId": 0,
      "chainId": 0
    }
  ]
}