{
  "hash": "0xe12d1a32d241f59df7780f80d77d543bc6ca885543c24e60bb2928b69259654c",
  "parentHash": "0x87ac2f938b7fa6f69839c59b47be55971ae073c18297dc1d7ec58f3bb62718a1",
  "number": 89376,
  "timestamp": 1439622480,
  "nonce": "0x44e8cfc7b10748ad",
  "difficulty": 3303095907932,
  "gasLimit": {
    "_hex": "0x2fefd8"
  },
  "gasUsed": {
    "_hex": "0xf618"
  },
  "miner": "0xe6A7a1d47ff21B6321162AEA7C6CB457D5476Bca",
  "extraData": "0x476574682f76312e302e312d38326566323666362f6c696e75782f676f312e34",
  "transactions": [
    {
      "hash": "0x86df8aa1e17b717b49d7e2d569c5da28d3858b59fc19329b9a61b6fad3849376",
      "blockHash": "0xe12d1a32d241f59df7780f80d77d543bc6ca885543c24e60bb2928b69259654c",
      "blockNumber": 89376,
      "transactionIndex": 0,
      "confirmations": null,
      "from": "0x32Be343B94f860124dC4fEe278FDCBD38C102D88",
      "gasPrice": {
        "_hex": "0xd6d8e9fce"
      },
      "gasLimit": {
        "_hex": "0x5208"
      },
      "to": "0xdD21e1212FC318bBab5c20668299b20215C9B9A7",
      "value": {
        "_hex": "0x821878651a4d70000"
      },
      "nonce": 843,
      "data": "0x",
      "r": "0x4f3938c5e67fd677defdefe08db14af9fb3fe7b3600b0f89563b9e3a291c8c16",
      "s": "0x2b26b066c6c509eced751ad3f8a10a30ec439ec26b4069677a53013ed17729d5",
      "v": 27,
      "creates": null,
      "raw": "0xf86f82034b850d6d8e9fce82520894dd21e1212fc318bbab5c20668299b20215c9b9a7890821878651a4d70000801ba04f3938c5e67fd677defdefe08db14af9fb3fe7b3600b0f89563b9e3a291c8c16a02b26b066c6c509eced751ad3f8a10a30ec439ec26b4069677a53013ed17729d5",
      "networkId": 0,
      "chainId": 0
    },
    {
      "hash": "0x0ae28e941cc65083bb89617f86afa0dbbe2c77f00d20f562bf7f95a723894da9",
      "blockHash": "0xe12d1a32d241f59df7780f80d77d543bc6ca885543c24e60bb2928b69259654c",
      "blockNumber": 89376,
      "transactionIndex": 1,
      "confirmations": null,
      "from": "0xb2d1cCd26cdfC4474Ac02423AeFc62dA2A3Bc839",
      "gasPrice": {
        "_hex": "0xd6d8e9fce"
      },
      "gasLimit": {
        "_hex": "0x5208"
      },
      "to": "0x32Be343B94f860124dC4fEe278FDCBD38C102D88",
      "value": {
        "_hex": "0x116ed59462f44a000"
      },
      "nonce": 0,
      "data": "0x",
      "r": "0xf0d2dfd72758d748860c024d3a8686c886e7c2dd753b4a2f66a8b4b7f5fa6a66",
      "s": "0x1f0d6cbb6bf204a920d8ded91e67f13a79956b4c5bab2b7ccad98f78907aa9c1",
      "v": 27,
      "creates": null,
      "raw": "0xf86d80850d6d8e9fce8252089432be343b94f860124dc4fee278fdcbd38c102d88890116ed59462f44a000801ba0f0d2dfd72758d748860c024d3a8686c886e7c2dd753b4a2f66a8b4b7f5fa6a66a01f0d6cbb6bf204a920d8ded91e67f13a79956b4c5bab2b7ccad98f78907aa9c1",
      "networkId": 0,
      "chainId": 0
    },
    {
      "hash": "0x2940c8eb125889fe86ccc2f91126f3b3e41d2191aea621a5cec2ceab1f9b9405",
      "blockHash": "0xe12d1a32d241f59df7780f80d77d543bc6ca885543c24e60bb2928b69259654c",
      "blockNumber": 89376,
      "transactionIndex": 2,
      "confirmations": null,
      "from": "0x74Ed33Acf43F35b98c9230B9E6642ECb5330839e",
      "gasPrice": {
        "_hex": "0xd3e0dd636"
      },
      "gasLimit": {
        "_hex": "0x15f90"
      },
      "to": "0xb6A31A5Fe75D6C1824f84fBDceEdb863667136F2",
      "value": {
        "_hex": "0xde0b6b3a7640000"
      },
      "nonce": 3,
      "data": "0x",
      "r": "0x3b24ea08de2fcbcdce846dcac0fdcb081de8d7e180ad0edef27a4adc2a786468",
      "s": "0x3470d839602e7b8f0ac2cb20488cd5b52d433cbe2aaee9c2dd00baca20d80069",
      "v": 28,
      "creates": null,
      "raw": "0xf86d03850d3e0dd63683015f9094b6a31a5fe75d6c1824f84fbdceedb863667136f2880de0b6b3a7640000801ca03b24ea08de2fcbcdce846dcac0fdcb081de8d7e180ad0edef27a4adc2a786468a03470d839602e7b8f0ac2cb20488cd5b52d433cbe2aaee9c2dd00baca20d80069",
      "networkId": 0,
      "chainId": 0
    }
  ]
}