{
  "hash": "0x0b4b81a22678ac9fd84666aa18a9428559aac81b552509464bb6a5aabfdc38ba",
  "parentHash": "0x31972ecbffcb05e65fcae00ff5a95a42d07bbc6799b71015d1387fa76584dde7",
  "number": 49226,
  "timestamp": 1438970092,
  "nonce": "0x146eadcff0415ab6",
  "difficulty": 1478536315273,
  "gasLimit": {
    "_hex": "0x2971d"
  },
  "gasUsed": {
    "_hex": "0x5208"
  },
  "miner": "0x70C6b45fe0A5116E97B112B806A76E2F51E24413",
  "extraData": "0x476574682f76312e302e302f77696e646f77732f676f312e342e32",
  "transactions": [
    {
      "hash": "0x79bfbc69bf3283d396c5413cd2106bf4d88b81cb46f4a83164f277b1a17183b9",
      "blockHash": "0x0b4b81a22678ac9fd84666aa18a9428559aac81b552509464bb6a5aabfdc38ba",
      "blockNumber": 49226,
      "transactionIndex": 0,
      "confirmations": null,
      "from": "0x52F939Cea5843A3315E91D6E61cFe35034E85387",
      "gasPrice": {
        "_hex": "0x9184e72a000"
      },
      "gasLimit": {
        "_hex": "0x84c0"
      },
      "to": "0x6dED38803DA575897de5d51b7AEF3b86f35945A1",
      "value": {
        "_hex": "0x14d1120d7b1600000"
      },
      "nonce": 1,
      "data": "0x",
      "r": "0x9901ab3d4b8b7259ff850ac5b64887e4af3e60e10b89509127f9eabb23925324",
      "s": "0x5b560040a37e465775a96ae069cd4d22a9f3a0930dc040ef4229a8a5ff893273",
      "v": 28,
      "creates": null,
      "raw": "0xf86e018609184e72a0008284c0946ded38803da575897de5d51b7aef3b86f35945a189014d1120d7b1600000801ca09901ab3d4b8b7259ff850ac5b64887e4af3e60e10b89509127f9eabb23925324a05b560040a37e465775a96ae069cd4d22a9f3a0930dc040ef4229a8a5ff893273",
      "networkId": 0,
      "chainId": 0
    }
  ]
}