{
  "hash": "0x92229d97df5266b02a48dcdca13e269b5412d1f033d33de152417eb50aecec91",
  "parentHash": "0x610bd4aeea70b3d57f9b0f5a5640e13eb641eda0e9bf61a73c4216aa87afc523",
  "number": 51116,
  "timestamp": 1438999635,
  "nonce": "0x30998304f5fd9d2f",
  "difficulty": 1555206867702,
  "gasLimit": {
    "_hex": "0x9298e"
  },
  "gasUsed": {
    "_hex": "0x546c"
  },
  "miner": "0x5214803C763281b785cDC039b80605fd088D42Ca",
  "extraData": "0x476574682f76312e302e312f6c696e75782f676f312e342e32",
  "transactions": [
    {
      "hash": "0xd588937073a3eb9c82915ef5eb190ed150a269cc0623d2512e6c1a859c526793",
      "blockHash": "0x92229d97df5266b02a48dcdca13e269b5412d1f033d33de152417eb50aecec91",
      "blockNumber": 51116,
      "transactionIndex": 0,
      "confirmations": null,
      "from": "0x10E390Ad2Ba33D82B37388D09C4544c6B0225DE5",
      "gasPrice": {
        "_hex": "0x110c8f7d8de"
      },
      "gasLimit": {
        "_hex": "0xc350"
      },
      "to": "0x2910543Af39abA0Cd09dBb2D50200b3E800A63D2",
      "value": {
        "_hex": "0x821ab0d4414980000"
      },
      "nonce": 0,
      "data": "0x454e544245514a4347",
      "r": "0xcb3290705bebef80a4bd98beabd249c3ea5036a31093e479420b72865d7412f8",
      "s": "0x535bd27d8fed86ff4900e4ebc6abd8b4fd97571d263674b1d67600537c5c97fb",
      "v": 27,
      "creates": null,
      "raw": "0xf87780860110c8f7d8de82c350942910543af39aba0cd09dbb2d50200b3e800a63d2890821ab0d441498000089454e544245514a43471ba0cb3290705bebef80a4bd98beabd249c3ea5036a31093e479420b72865d7412f8a0535bd27d8fed86ff4900e4ebc6abd8b4fd97571d263674b1d67600537c5c97fb",
      "networkId": 0,
      "chainId": 0
    }
  ]
}