{
  "hash": "0x09abaaf01ae75b75aac094ec169fb3df214da38c4b0e34656da2748137675f43",
  "parentHash": "0xd05ac32e5172db285e53570c53e35652a078ebd33d3c85443a4a22bf2c478eef",
  "number": 95728,
  "timestamp": 1439728652,
  "nonce": "0x4e8176a93e2b4e2a",
  "difficulty": 3628536994059,
  "gasLimit": {
    "_hex": "0x2fefd8"
  },
  "gasUsed": {
    "_hex": "0xa410"
  },
  "miner": "0xe6A7a1d47ff21B6321162AEA7C6CB457D5476Bca",
  "extraData": "0x476574682f76312e302e312d38326566323666362f6c696e75782f676f312e34",
  "transactions": [
    {
      "hash": "0xe6ae73cdafb88f943d2fd1f6c94f5a1fb79e2a83a6252c0bf1d0372a657e6d17",
      "blockHash": "0x09abaaf01ae75b75aac094ec169fb3df214da38c4b0e34656da2748137675f43",
      "blockNumber": 95728,
      "transactionIndex": 0,
      "confirmations": null,
      "from": "0xaA7C5c36F2422615C33f44b2C8f8883451eD8D0d",
      "gasPrice": {
        "_hex": "0xd6d9651bf"
      },
      "gasLimit": {
        "_hex": "0x15f90"
      },
      "to": "0x60794423f500DD2F95327fA1ffE71E428D2C0636",
      "value": {
        "_hex": "0x0"
      },
      "nonce": 1,
      "data": "0x",
      "r": "0x2f4a274b7326410b0e664d1c1a99768eaa1d825ce8806cd8c7ead26c905e2d9b",
      "s": "0x1a3b3ec8459aaba18bee3c935d1cc499c42aabd631b31f5f9474eb347284bc7c",
      "v": 27,
      "creates": null,
      "raw": "0xf86501850d6d9651bf83015f909460794423f500dd2f95327fa1ffe71e428d2c063680801ba02f4a274b7326410b0e664d1c1a99768eaa1d825ce8806cd8c7ead26c905e2d9ba01a3b3ec8459aaba18bee3c935d1cc499c42aabd631b31f5f9474eb347284bc7c",
      "networkId": 0,
      "chainId": 0
    },
    {
      "hash": "0x909fdba809a3949f2cceca98104d9401956ed29a89cbc29fda50a0d32e8ff10b",
      "blockHash": "0x09abaaf01ae75b75aac094ec169fb3df214da38c4b0e34656da2748137675f43",
      "blockNumber": 95728,
      "transactionIndex": 1,
      "confirmations": null,
      "from": "0xd70c667add50d3d9989Ef58A81a698c09f415Bff",
      "gasPrice": {
        "_hex": "0xce8a245f6"
      },
      "gasLimit": {
        "_hex": "0x15f90"
      },
      "to": "0x853Bff007d269E0526E871360d79d69D602770dc",
      "value": {
        "_hex": "0x448e67d3a66e0000"
      },
      "nonce": 6,
      "data": "0x",
      "r": "0xed6941297bde26fd464161c2e7bbb56bad2075d22733d39e0ade2442bf27b14b",
      "s": "0x5b94d21558167e743efecc3f75917b91d259d7e8de8c1057d0fb5b708c9273b3",
      "v": 28,
      "creates": null,
      "raw": "0xf86d06850ce8a245f683015f9094853bff007d269e0526e871360d79d69d602770dc88448e67d3a66e0000801ca0ed6941297bde26fd464161c2e7bbb56bad2075d22733d39e0ade2442bf27b14ba05b94d21558167e743efecc3f75917b91d259d7e8de8c1057d0fb5b708c9273b3",
      "networkId": 0,
      "chainId": 0
    }
  ]
}