{
  "hash": "0xd80388d5b3ca460eaefe5163bd125cf638a7b19ac4af62cddcfc493ff4895bc3",
  "parentHash": "0xe52bf128e1ca60b593cf8f9ad9bb5b72f4af67db004f7ca32b2e9a13346a4640",
  "number": 110499,
  "timestamp": 1439974787,
  "nonce": "0xd2fc0ef68af69872",
  "difficulty": 4375555806373,
  "gasLimit": {
    "_hex": "0x2fefd8"
  },
  "gasUsed": {
    "_hex": "0xf618"
  },
  "miner": "0xe6A7a1d47ff21B6321162AEA7C6CB457D5476Bca",
  "extraData": "0x476574682f76312e302e312d38326566323666362f6c696e75782f676f312e34",
  "transactions": [
    {
      "hash": "0x95c25f88a8620f774ebcb453115c6259e52b99b3b7bd6006ae76e98851a9063d",
      "blockHash": "0xd80388d5b3ca460eaefe5163bd125cf638a7b19ac4af62cddcfc493ff4895bc3",
      "blockNumber": 110499,
      "transactionIndex": 0,
      "confirmations": null,
      "from": "0xE21812b7c0Bd57f6922B6A5670BDAec864beEF6b",
      "gasPrice": {
        "_hex": "0xcd3df9f6b"
      },
      "gasLimit": {
        "_hex": "0x5208"
      },
      "to": "0x32Be343B94f860124dC4fEe278FDCBD38C102D88",
      "value": {
        "_hex": "0x7baf36583133c800"
      },
      "nonce": 4,
      "data": "0x",
      "r": "0x7f713cd0f0f8b415e6da5e69bd1928b907fc7f50dc4fb07a96cc1efdb91a8ac4",
      "s": "0x53728bcc766c781513830afe078e3bb3fc77d5bb83f7bd13c4d48542d921773d",
      "v": 28,
      "creates": null,
      "raw": "0xf86c04850cd3df9f6b8252089432be343b94f860124dc4fee278fdcbd38c102d88887baf36583133c800801ca07f713cd0f0f8b415e6da5e69bd1928b907fc7f50dc4fb07a96cc1efdb91a8ac4a053728bcc766c781513830afe078e3bb3fc77d5bb83f7bd13c4d48542d921773d",
      "networkId": 0,
      "chainId": 0
    },
    {
      "hash": "0xc85848a3b1f71dc1681702a21037694b5b70e3a2502c939ec853cf17f16ab537",
      "blockHash": "0xd80388d5b3ca460eaefe5163bd125cf638a7b19ac4af62cddcfc493ff4895bc3",
      "blockNumber": 110499,
      "transactionIndex": 1,
      "confirmations": null,
      "from": "0xB28fE7b9815982FF203F751ce550111D752d8795",
      "gasPrice": {
        "_hex": "0xcd3df9f6b"
      },
      "gasLimit": {
        "_hex": "0x5208"
      },
      "to": "0x32Be343B94f860124dC4fEe278FDCBD38C102D88",
      "value": {
        "_hex": "0x524927d53f17a4000"
      },
      "nonce": 5,
      "data": "0x",
      "r": "0x978ed172adff930bbe11dcf12ff45e992a4b6401089da492805eb2cced97cf13",
      "s": "0x69ca37402612e95725f11c7ead2e93032e9116ed14cf3e4d445f9bbe5e510048",
      "v": 27,
      "creates": null,
      "raw": "0xf86d05850cd3df9f6b8252089432be343b94f860124dc4fee278fdcbd38c102d88890524927d53f17a4000801ba0978ed172adff930bbe11dcf12ff45e992a4b6401089da492805eb2cced97cf13a069ca37402612e95725f11c7ead2e93032e9116ed14cf3e4d445f9bbe5e510048",
      "networkId": 0,
      "chainId": 0
    },
    {
      "hash": "0x6791d4103bfbc64921e4dd5146c3c385b83ba15eba69d022b8ef77659bbc7f6a",
      "blockHash": "0xd80388d5b3ca460eaefe5163bd125cf638a7b19ac4af62cddcfc493ff4895bc3",
      "blockNumber": 110499,
      "transactionIndex": 2,
      "confirmations": null,
      "from": "0x4D67f4F0Db45b3B5a3424B39ed8d972F710381D5",
      "gasPrice": {
        "_hex": "0xcd3df9f6b"
      },
      "gasLimit": {
        "_hex": "0x5208"
      },
      "to": "0x32Be343B94f860124dC4fEe278FDCBD38C102D88",
      "value": {
        "_hex": "0xd2ae60acb20788000"
      },
      "nonce": 34,
      "data": "0x",
      "r": "0x487034a5b155e3b28643090f87f9dc9347fd1cac7ad992172e1bd098d9dded89",
      "s": "0x0a672891151e46bb720a681c46c9d21f4d1d8ebebae1a4ddf5bf28c091b07fd3",
      "v": 28,
      "creates": null,
      "raw": "0xf86d22850cd3df9f6b8252089432be343b94f860124dc4fee278fdcbd38c102d88890d2ae60acb20788000801ca0487034a5b155e3b28643090f87f9dc9347fd1cac7ad992172e1bd098d9dded89a00a672891151e46bb720a681c46c9d21f4d1d8ebebae1a4ddf5bf28c091b07fd3",
      "networkId": 0,
      "chainId": 0
    }
  ]
}