{
  "hash": "0x39aeeb123c7fc89123d69e87be765c611fe58f464a92e8654d26b9ea285d115c",
  "parentHash": "0xe22c16112d94c7cbf3a7a7efe6b5b715ade61ca7163bdc2a39acbde8f0af949d",
  "number": 60979,
  "timestamp": 1439164555,
  "nonce": "0xb8b8c6ab9b64e933",
  "difficulty": 1743954916831,
  "gasLimit": {
    "_hex": "0x2fefd8"
  },
  "gasUsed": {
    "_hex": "0x5208"
  },
  "miner": "0x346Ad0cADdD5A8b2CAfd5b363414E4AE348db24c",
  "extraData": "0x",
  "transactions": [
    {
      "hash": "0xbc65f2f25402d485b1645ea59234b7f6a725c36fbc275a5360dd93894bcbc7d1",
      "blockHash": "0x39aeeb123c7fc89123d69e87be765c611fe58f464a92e8654d26b9ea285d115c",
      "blockNumber": 60979,
      "transactionIndex": 0,
      "confirmations": null,
      "from": "0x120A270bbC009644e35F0bB6ab13f95b8199c4ad",
      "gasPrice": {
        "_hex": "0xd35e1d435"
      },
      "gasLimit": {
        "_hex": "0x15f90"
      },
      "to": "0x9845F1677A0d66A79b5Dafe14D75638369B21505",
      "value": {
        "_hex": "0x8ac7230489e80000"
      },
      "nonce": 61,
      "data": "0x",
      "r": "0x4c95853f1904c4017506f1261e62613b4d0ca7698db52bf7970719304650f6fe",
      "s": "0x63b458f9e999e38ac4b4610d53d93d043b122285d9b4d4a96597a0da41e1b45a",
      "v": 27,
      "creates": null,
      "raw": "0xf86d3d850d35e1d43583015f90949845f1677a0d66a79b5dafe14d75638369b21505888ac7230489e80000801ba04c95853f1904c4017506f1261e62613b4d0ca7698db52bf7970719304650f6fea063b458f9e999e38ac4b4610d53d93d043b122285d9b4d4a96597a0da41e1b45a",
      "networkId": 0,
      "chainId": 0
    }
  ]
}