{
  "hash": "0x7b71de5f184589b909c0a6c21af6b3bae2ce70e2f447327583d00d4afe31e666",
  "parentHash": "0xea641889aae7806ddf5a275fad39a3132cdad04f513eceeb8b657c71fbb1e6a7",
  "number": 68735,
  "timestamp": 1439292880,
  "nonce": "0xdeccd7fe7be5c081",
  "difficulty": 2021153522304,
  "gasLimit": {
    "_hex": "0x2fefd5"
  },
  "gasUsed": {
    "_hex": "0x5208"
  },
  "miner": "0x88D74a59454F6cF3B51ef6b9136AFb6b9D405A88",
  "extraData": "0x476574682f76312e302e312d37666266393930632f6c696e75782f676f312e34",
  "transactions": [
    {
      "hash": "0xc6b839129166b9b12685c18d85f8e9238df0255e07b8a5f586a0be515dfa7176",
      "blockHash": "0x7b71de5f184589b909c0a6c21af6b3bae2ce70e2f447327583d00d4afe31e666",
      "blockNumber": 68735,
      "transactionIndex": 0,
      "confirmations": null,
      "from": "0xa70a9a7040d542C632D8e0bE7c5513A8a5Bbc752",
      "gasPrice": {
        "_hex": "0xdf2ecbd4f"
      },
      "gasLimit": {
        "_hex": "0x5208"
      },
      "to": "0x32Be343B94f860124dC4fEe278FDCBD38C102D88",
      "value": {
        "_hex": "0x455f0d21bf5a7c00"
      },
      "nonce": 3,
      "data": "0x",
      "r": "0xedaa739d71f493a32bedc44aaa2cdf0d3d2d706cc8f7fb2b92ac071580d97e62",
      "s": "0x00faa0a8b8a7eece4b1703296c5c6f7c7612c490a3bff56f4e2ecf8f9f52b93a",
      "v": 27,
      "creates": null,
      "raw": "0xf86b03850df2ecbd4f8252089432be343b94f860124dc4fee278fdcbd38c102d8888455f0d21bf5a7c00801ba0edaa739d71f493a32bedc44aaa2cdf0d3d2d706cc8f7fb2b92ac071580d97e629ffaa0a8b8a7eece4b1703296c5c6f7c7612c490a3bff56f4e2ecf8f9f52b93a",
      "networkId": 0,
      "chainId": 0
    }
  ]
}