{
  "hash": "0xc187fb11f2e458d2a926462aba838577f3559434d32f945ae77f2b69b59bb092",
  "parentHash": "0x92f1880c5dc4cec295e2d13436ce9850794b7e29ace5c2099c5a1ae75a2faa15",
  "number": 107575,
  "timestamp": 1439924904,
  "nonce": "0x8e08ae0829f8df83",
  "difficulty": 4402803498032,
  "gasLimit": {
    "_hex": "0x2fefd8"
  },
  "gasUsed": {
    "_hex": "0x5208"
  },
  "miner": "0x7e8504a5e26df87f6D26fA1ba148BE146F42775A",
  "extraData": "0x476574682f76312e302e312f77696e646f77732f676f312e342e32",
  "transactions": [
    {
      "hash": "0xe20346c8a6de0f8fbd7374be911b9d6c48b34ee5846aabd36ad2edf346bbe6bf",
      "blockHash": "0xc187fb11f2e458d2a926462aba838577f3559434d32f945ae77f2b69b59bb092",
      "blockNumber": 107575,
      "transactionIndex": 0,
      "confirmations": null,
      "from": "0xa6BDc31c431B8F97848c9D60cbbe9660dc450eB7",
      "gasPrice": {
        "_hex": "0xdb938830f"
      },
      "gasLimit": {
        "_hex": "0x5208"
      },
      "to": "0x32Be343B94f860124dC4fEe278FDCBD38C102D88",
      "value": {
        "_hex": "0x455f2bc127be3800"
      },
      "nonce": 181,
      "data": "0x",
      "r": "0xe1a12b29b4c62f8efdac9bf4f3f583557ff73f0529e57639cfddd59a683cb4c0",
      "s": "0x60c6d6a7365a47bc74218683908bbe970839a9a7eb0e3f668e11df822b839ff3",
      "v": 27,
      "creates": null,
      "raw": "0xf86d81b5850db938830f8252089432be343b94f860124dc4fee278fdcbd38c102d8888455f2bc127be3800801ba0e1a12b29b4c62f8efdac9bf4f3f583557ff73f0529e57639cfddd59a683cb4c0a060c6d6a7365a47bc74218683908bbe970839a9a7eb0e3f668e11df822b839ff3",
      "networkId": 0,
      "chainId": 0
    }
  ]
}