{
  "hash": "0xbdbac1b34d2abe547d334e7cde1e66b3434afb15a8f5b231fb04741699250f0e",
  "parentHash": "0x74534f2ea30d1bb51b7215f12bf560da3e185d04bae060a6353088b92ab8bea6",
  "number": 109279,
  "timestamp": 1439953925,
  "nonce": "0x6cbe0e524bdf9dcb",
  "difficulty": 4449450263989,
  "gasLimit": {
    "_hex": "0x2fefd8"
  },
  "gasUsed": {
    "_hex": "0x5208"
  },
  "miner": "0x580992B51e3925e23280EfB93d3047C82f17E038",
  "extraData": "0x476574682f76312e302e312f6c696e75782f676f312e342e32",
  "transactions": [
    {
      "hash": "0xa7672cae7c34738a90af25be42a0859c73c1a530ac75bee01ad7271a9ca02763",
      "blockHash": "0xbdbac1b34d2abe547d334e7cde1e66b3434afb15a8f5b231fb04741699250f0e",
      "blockNumber": 109279,
      "transactionIndex": 0,
      "confirmations": null,
      "from": "0xa70a9a7040d542C632D8e0bE7c5513A8a5Bbc752",
      "gasPrice": {
        "_hex": "0xd7a49bd86"
      },
      "gasLimit": {
        "_hex": "0x5208"
      },
      "to": "0x32Be343B94f860124dC4fEe278FDCBD38C102D88",
      "value": {
        "_hex": "0x478e77d74e3b9c00"
      },
      "nonce": 273,
      "data": "0x",
      "r": "0x3c306bf5fee8915b44842334cff66927c10cc3a27d793515cd2446f1d234bc5c",
      "s": "0x1fba332a27543fe1776b73906caa40b66dce8c6d6e395fcb9165ac467501428e",
      "v": 27,
      "creates": null,
      "raw": "0xf86e820111850d7a49bd868252089432be343b94f860124dc4fee278fdcbd38c102d8888478e77d74e3b9c00801ba03c306bf5fee8915b44842334cff66927c10cc3a27d793515cd2446f1d234bc5ca01fba332a27543fe1776b73906caa40b66dce8c6d6e395fcb9165ac467501428e",
      "networkId": 0,
      "chainId": 0
    }
  ]
}