{
  "hash": "0x2429454f860efb3bf473b34940a7be7bb6cea6a52a15c02619d2c4a2f2e676f1",
  "parentHash": "0xe954e49e8ba0501b13eae499cb7fa2a8714c1e70636a02e78f71d52be45c9bfb",
  "number": 52948,
  "timestamp": 1439029997,
  "nonce": "0x839bdeff0ecdf8bd",
  "difficulty": 1571659971638,
  "gasLimit": {
    "_hex": "0x1c61fc"
  },
  "gasUsed": {
    "_hex": "0x5208"
  },
  "miner": "0xf927a40C8B7F6E07c5af7FA2155B4864a4112B13",
  "extraData": "0x476574682f76312e302e312f6c696e75782f676f312e342e32",
  "transactions": [
    {
      "hash": "0x0c91c3929407a31478c88f15b25eea4f1cc3b43a820990f60238a4608f221ccb",
      "blockHash": "0x2429454f860efb3bf473b34940a7be7bb6cea6a52a15c02619d2c4a2f2e676f1",
      "blockNumber": 52948,
      "transactionIndex": 0,
      "confirmations": null,
      "from": "0x25c6e74Ff1d928df98137AF4dF8430df24F07Cd7",
      "gasPrice": {
        "_hex": "0xccd7979d2"
      },
      "gasLimit": {
        "_hex": "0xc350"
      },
      "to": "0xE23dbd13A99Ae7956D7d5AEe0d27e0FD4dd44dAd",
      "value": {
        "_hex": "0x1bc16d674ec80000"
      },
      "nonce": 0,
      "data": "0x",
      "r": "0xade58c2366c83c550027631f1be3dcd97897936d296856a1010aff726b9fc1dc",
      "s": "0x74988f8517b0ae23e5cf8cc5dafb530ef51361b5a30f2a3f3da99062d523fbc1",
      "v": 28,
      "creates": null,
      "raw": "0xf86c80850ccd7979d282c35094e23dbd13a99ae7956d7d5aee0d27e0fd4dd44dad881bc16d674ec80000801ca0ade58c2366c83c550027631f1be3dcd97897936d296856a1010aff726b9fc1dca074988f8517b0ae23e5cf8cc5dafb530ef51361b5a30f2a3f3da99062d523fbc1",
      "networkId": 0,
      "chainId": 0
    }
  ]
}