{
  "hash": "0xc0b04557cb81d77e2a040f0435bcc0514a5f77ee1904b3f741580108f62878de",
  "parentHash": "0x36d3b76e5f24d40831dc0dc98136c65789110bfae5191fd191199f6985065c22",
  "number": 78130,
  "timestamp": 1439448869,
  "nonce": "0x3c8e3abbeb1d0d1f",
  "difficulty": 2275448881176,
  "gasLimit": {
    "_hex": "0x2fefd8"
  },
  "gasUsed": {
    "_hex": "0x546c"
  },
  "miner": "0x9746c7e1ef2bd21FF3997fa467593a89cb852BD0",
  "extraData": "0x476574682f76312e302e312f77696e646f77732f676f312e342e32",
  "transactions": [
    {
      "hash": "0xb95675a79b079ebbb3bce485dc1fe437951d464aae8d70f3334f78bebbf1c736",
      "blockHash": "0xc0b04557cb81d77e2a040f0435bcc0514a5f77ee1904b3f741580108f62878de",
      "blockNumber": 78130,
      "transactionIndex": 0,
      "confirmations": null,
      "from": "0x03eBC63fDA6660a465045e235fbE6e5cF195735f",
      "gasPrice": {
        "_hex": "0x110c8f7d8de"
      },
      "gasLimit": {
        "_hex": "0xc350"
      },
      "to": "0x2910543Af39abA0Cd09dBb2D50200b3E800A63D2",
      "value": {
        "_hex": "0x68155a43676e00000"
      },
      "nonce": 0,
      "data": "0x454e3156594a343847",
      "r": "0xf922c89202d2089c78745de34cb3f34923f9d7ef9b4805ceb5c0658b53d272ba",
      "s": "0x6d1870a0806d5469739f7e5cb56ed615009a65ece672f89efb12d93d1d121132",
      "v": 27,
      "creates": null,
      "raw": "0xf87780860110c8f7d8de82c350942910543af39aba0cd09dbb2d50200b3e800a63d289068155a43676e0000089454e3156594a3438471ba0f922c89202d2089c78745de34cb3f34923f9d7ef9b4805ceb5c0658b53d272baa06d1870a0806d5469739f7e5cb56ed615009a65ece672f89efb12d93d1d121132",
      "networkId": 0,
      "chainId": 0
    }
  ]
}