{
  "hash": "0x65e7ed360bef3f0e9f0ff137960d60327aa21c45fb5e641a19dee4813f690ad0",
  "parentHash": "0x55190a77844032447d97abfe96b2a564e62fe9642ca925815acc099ab7a2cf76",
  "number": 102374,
  "timestamp": 1439836987,
  "nonce": "0xf5fb7a329037851d",
  "difficulty": 3958748349824,
  "gasLimit": {
    "_hex": "0x2fefd8"
  },
  "gasUsed": {
    "_hex": "0x14820"
  },
  "miner": "0x8B454d830feF179e66206840F8F3D1d83bC32b17",
  "extraData": "0x476574682f76312e302e312f77696e646f77732f676f312e342e32",
  "transactions": [
    {
      "hash": "0x9377eb56997bd6f0a1519449aba4014716a8f167732d6b7667c8d0df90465c04",
      "blockHash": "0x65e7ed360bef3f0e9f0ff137960d60327aa21c45fb5e641a19dee4813f690ad0",
      "blockNumber": 102374,
      "transactionIndex": 0,
      "confirmations": null,
      "from": "0x32Be343B94f860124dC4fEe278FDCBD38C102D88",
      "gasPrice": {
        "_hex": "0xe135d6427"
      },
      "gasLimit": {
        "_hex": "0x5208"
      },
      "to": "0xAa37b1200B856ce897a85b9C2b11a8213095Bf2a",
      "value": {
        "_hex": "0x47fb7b54cd5ab0000"
      },
      "nonce": 1101,
      "data": "0x",
      "r": "0x84ffe6c44a55a796961524aef51b2c5767a5dd396b95e50b70ae9eb2ab7d4104",
      "s": "0x55f997c2b2c2bd3e8ac14edf3d8e846804afda10986f4a7589e8ccf8f362b3ee",
      "v": 27,
      "creates": null,
      "raw": "0xf86f82044d850e135d642782520894aa37b1200b856ce897a85b9c2b11a8213095bf2a89047fb7b54cd5ab0000801ba084ffe6c44a55a796961524aef51b2c5767a5dd396b95e50b70ae9eb2ab7d4104a055f997c2b2c2bd3e8ac14edf3d8e846804afda10986f4a7589e8ccf8f362b3ee",
      "networkId": 0,
      "chainId": 0
    },
    {
      "hash": "0xbee36771efd90ce5cba20578e146576f70d0dd27bb715f8dfc08e99773932820",
      "blockHash": "0x65e7ed360bef3f0e9f0ff137960d60327aa21c45fb5e641a19dee4813f690ad0",
      "blockNumber": 102374,
      "transactionIndex": 1,
      "confirmations": null,
      "from": "0x32Be343B94f860124dC4fEe278FDCBD38C102D88",
      "gasPrice": {
        "_hex": "0xe135d6427"
      },
      "gasLimit": {
        "_hex": "0x5208"
      },
      "to": "0xCD1e66ED539dd92Fc40bBAa1FA16de8c02C14D45",
      "value": {
        "_hex": "0x6cf2a2efa5ef44000"
      },
      "nonce": 1102,
      "data": "0x",
      "r": "0x524124e517fabea6482bb70537b4ae476433aa4bf37ed8c5489d368abc25b323",
      "s": "0x14141db3ab311dbd5f565eaa8e3a8962f58eaa0b12f9942cd495faafccb12d81",
      "v": 27,
      "creates": null,
      "raw": "0xf86f82044e850e135d642782520894cd1e66ed539dd92fc40bbaa1fa16de8c02c14d458906cf2a2efa5ef44000801ba0524124e517fabea6482bb70537b4ae476433aa4bf37ed8c5489d368abc25b323a014141db3ab311dbd5f565eaa8e3a8962f58eaa0b12f9942cd495faafccb12d81",
      "networkId": 0,
      "chainId": 0
    },
    {
      "hash": "0x6aeb172bb92fddcdb1e961dbffb6d79ee0faf0df100d8557605e6d2eedc99a70",
      "blockHash": "0x65e7ed360bef3f0e9f0ff137960d60327aa21c45fb5e641a19dee4813f690ad0",
      "blockNumber": 102374,
      "transactionIndex": 2,
      "confirmations": null,
      "from": "0x32Be343B94f860124dC4fEe278FDCBD38C102D88",
      "gasPrice": {
        "_hex": "0xe135d6427"
      },
      "gasLimit": {
        "_hex": "0x5208"
      },
      "to": "0x1088F2CB8324A270c8D7E71083449a0722820D99",
      "value": {
        "_hex": "0x6ee22eaacb5f0000"
      },
      "nonce": 1103,
      "data": "0x",
      "r": "0x2948e452cd848583a639b083f1632c791e5f12f610fe9089e9285c8ddf3b6645",
      "s": "0x3bb6a00e039ee9c0d61f384e77c531257f40818b5426e6b32be1caa32f0dbb87",
      "v": 27,
      "creates": null,
      "raw": "0xf86e82044f850e135d6427825208941088f2cb8324a270c8d7e71083449a0722820d99886ee22eaacb5f0000801ba02948e452cd848583a639b083f1632c791e5f12f610fe9089e9285c8ddf3b6645a03bb6a00e039ee9c0d61f384e77c531257f40818b5426e6b32be1caa32f0dbb87",
      "networkId": 0,
      "chainId": 0
    },
    {
      "hash": "0x2f88fdd7e144034f356c9a7e5babe06471c39228ad34f52379aa7675863b7307",
      "blockHash": "0x65e7ed360bef3f0e9f0ff137960d60327aa21c45fb5e641a19dee4813f690ad0",
      "blockNumber": 102374,
      "transactionIndex": 3,
      "confirmations": null,
      "from": "0x03Ef98f6F8d29683080690Bd0339dF4CfC8b7989",
      "gasPrice": {
        "_hex": "0xba43b7400"
      },
      "gasLimit": {
        "_hex": "0x5208"
      },
      "to": "0x0037A6B811ffeB6e072DA21179d11B1406371C63",
      "value": {
        "_hex": "0xc7d713b49da0000"
      },
      "nonce": 0,
      "data": "0x",
      "r": "0xc5e354ec0c7c37b354b1616195a4e4177783d7a90a0d4acb606aec43ecf88a54",
      "s": "0x2ec0eb1210f9336a30aa89de7e568cf15a180e89606e5b423319df5322a6e08e",
      "v": 28,
      "creates": null,
      "raw": "0xf86c80850ba43b7400825208940037a6b811ffeb6e072da21179d11b1406371c63880c7d713b49da0000801ca0c5e354ec0c7c37b354b1616195a4e4177783d7a90a0d4acb606aec43ecf88a54a02ec0eb1210f9336a30aa89de7e568cf15a180e89606e5b423319df5322a6e08e",
      "networkId": 0,
      "chainId": 0
    }
  ]
}