{
  "hash": "0x596266e5d3f4fb111cdbb1c57061dfe603eab013c28f9afee6e596acc326337d",
  "parentHash": "0xd99c95b158f66c1715a1403d2a79d7a35bffa32d4720a566354ce8887edaefe5",
  "number": 95869,
  "timestamp": 1439731111,
  "nonce": "0x48e07f3a306d7d15",
  "difficulty": 3630248153818,
  "gasLimit": {
    "_hex": "0x2fefd8"
  },
  "gasUsed": {
    "_hex": "0x5208"
  },
  "miner": "0xd70c667add50d3d9989Ef58A81a698c09f415Bff",
  "extraData": "0x",
  "transactions": [
    {
      "hash": "0x1d1bd23c279409a1e59128855403208ec0b5986265bef9b66704167277df4257",
      "blockHash": "0x596266e5d3f4fb111cdbb1c57061dfe603eab013c28f9afee6e596acc326337d",
      "blockNumber": 95869,
      "transactionIndex": 0,
      "confirmations": null,
      "from": "0xd23D7AfFacdC3E9F3dAE7Afcb4006f58f8a44600",
      "gasPrice": {
        "_hex": "0xd69b48315"
      },
      "gasLimit": {
        "_hex": "0x15f90"
      },
      "to": "0x27bEB0DB6C8A5896E0440C6501f81658c57319Fe",
      "value": {
        "_hex": "0x28a857425466f80000"
      },
      "nonce": 3,
      "data": "0x",
      "r": "0x67f48b938222510c0b1f508823b050e92f448fb9d74275c1429dcf79f2f9bb12",
      "s": "0x2337235b5a65c0cad7584eecf000fa28c639c07e6bd26300d10be9d78304127c",
      "v": 28,
      "creates": null,
      "raw": "0xf86e03850d69b4831583015f909427beb0db6c8a5896e0440c6501f81658c57319fe8928a857425466f80000801ca067f48b938222510c0b1f508823b050e92f448fb9d74275c1429dcf79f2f9bb12a02337235b5a65c0cad7584eecf000fa28c639c07e6bd26300d10be9d78304127c",
      "networkId": 0,
      "chainId": 0
    }
  ]
}