{
  "hash": "0x109e837d8113033038710629d7ca8ead3a92c496cd5886e4d3a33e7e52f46580",
  "parentHash": "0xecc56c335c9145a60c34322eb022295f5b53ff7115df06180b69d20ac739c05b",
  "number": 59370,
  "timestamp": 1439137156,
  "nonce": "0xa53f603548e46280",
  "difficulty": 1699728231039,
  "gasLimit": {
    "_hex": "0x2fefd8"
  },
  "gasUsed": {
    "_hex": "0x5208"
  },
  "miner": "0xbb7B8287f3F0a933474a79eAe42CBCa977791171",
  "extraData": "0x476574682f4c5649562f76312e302e312f6c696e75782f676f312e342e32",
  "transactions": [
    {
      "hash": "0x0b346de73e17bed1ccab66066def4a32c8a42b0b0fd933e72bd3513bd205fea6",
      "blockHash": "0x109e837d8113033038710629d7ca8ead3a92c496cd5886e4d3a33e7e52f46580",
      "blockNumber": 59370,
      "transactionIndex": 0,
      "confirmations": null,
      "from": "0x6866e5e1FaBB4AbceF3EEb9Ea0d8CD6b52dfC9FF",
      "gasPrice": {
        "_hex": "0xcbb573ef0"
      },
      "gasLimit": {
        "_hex": "0x15f90"
      },
      "to": "0x01Ad0ACFf478127D9d702B1A13599D706cB759b1",
      "value": {
        "_hex": "0x375f53dc2dcf0000"
      },
      "nonce": 1,
      "data": "0x",
      "r": "0xae2acb5181da322314eeff1a4b1e060e20a991139f45d5b88c3bec0092866cb0",
      "s": "0x3e246cc86fad15ee30dd6cdd813b5d69c7543e06d63d42dd92f9a3f54261dc70",
      "v": 28,
      "creates": null,
      "raw": "0xf86d01850cbb573ef083015f909401ad0acff478127d9d702b1a13599d706cb759b188375f53dc2dcf0000801ca0ae2acb5181da322314eeff1a4b1e060e20a991139f45d5b88c3bec0092866cb0a03e246cc86fad15ee30dd6cdd813b5d69c7543e06d63d42dd92f9a3f54261dc70",
      "networkId": 0,
      "chainId": 0
    }
  ]
}