{
  "hash": "0x1ee566eda0805236c46ba9aade799ab72d45bb3374203b911adaa1ff52667c68",
  "parentHash": "0xdcc89f89b9ed909776734617e08e52c1e25cc0b88dbb95d7410a8b5d916aefd3",
  "number": 118384,
  "timestamp": 1440125183,
  "nonce": "0x19f55f40fa66d266",
  "difficulty": 4293177694869,
  "gasLimit": {
    "_hex": "0x2fefd8"
  },
  "gasUsed": {
    "_hex": "0x5208"
  },
  "miner": "0x52bc44d5378309EE2abF1539BF71dE1b7d7bE3b5",
  "extraData": "0xd783010002844765746887676f312e342e32856c696e7578",
  "transactions": [
    {
      "hash": "0xa2cd963df3bd034a14031297cc520216f5b595652079c13d9600d73157768a79",
      "blockHash": "0x1ee566eda0805236c46ba9aade799ab72d45bb3374203b911adaa1ff52667c68",
      "blockNumber": 118384,
      "transactionIndex": 0,
      "confirmations": null,
      "from": "0x1c11Aa45C792e202e9ffDc2F12f99D0d209BEf70",
      "gasPrice": {
        "_hex": "0xba43b7400"
      },
      "gasLimit": {
        "_hex": "0x15f90"
      },
      "to": "0x001aA0CB9c5fA098a119070024460feBb868742D",
      "value": {
        "_hex": "0x989680"
      },
      "nonce": 28,
      "data": "0x",
      "r": "0x84c112d047b1702c473c29dc778a890e7279d03651e0dac7f91f97c6b8dd6f70",
      "s": "0x157d63e9bf5415b76cad46dcbda058bd619781e4c6e8ac361b629ca8af4868d1",
      "v": 27,
      "creates": null,
      "raw": "0xf8681c850ba43b740083015f9094001aa0cb9c5fa098a119070024460febb868742d83989680801ba084c112d047b1702c473c29dc778a890e7279d03651e0dac7f91f97c6b8dd6f70a0157d63e9bf5415b76cad46dcbda058bd619781e4c6e8ac361b629ca8af4868d1",
      "networkId": 0,
      "chainId": 0
    }
  ]
}