{
  "hash": "0x9da4da25eaf004dfc565b6ce453f0aaed8d3abc23d68ed6c0a0abdf1ab3d5ddb",
  "parentHash": "0x51fd0271f23a16a2c915b74dd57e3de8b89041c34269cf6d2e45b776421ca8f2",
  "number": 119781,
  "timestamp": 1440148621,
  "nonce": "0xe17d289229eeb557",
  "difficulty": 4404996888638,
  "gasLimit": {
    "_hex": "0x2fefd8"
  },
  "gasUsed": {
    "_hex": "0x5208"
  },
  "miner": "0x7E6930B63D03e88F5928C5cd6ee3FCee4D714F7F",
  "extraData": "0xd783010003844765746887676f312e342e32856c696e7578",
  "transactions": [
    {
      "hash": "0x1abdf2e9bd8ce83d5bf948ac0daf1b27bc267b5a896ebf8540ebb647f5761c9d",
      "blockHash": "0x9da4da25eaf004dfc565b6ce453f0aaed8d3abc23d68ed6c0a0abdf1ab3d5ddb",
      "blockNumber": 119781,
      "transactionIndex": 0,
      "confirmations": null,
      "from": "0x5BB33B0e16f8a05C5124c33418922C5b1Be8F810",
      "gasPrice": {
        "_hex": "0xba43b7400"
      },
      "gasLimit": {
        "_hex": "0x5208"
      },
      "to": "0x32Be343B94f860124dC4fEe278FDCBD38C102D88",
      "value": {
        "_hex": "0xe562a0736c316000"
      },
      "nonce": 6,
      "data": "0x",
      "r": "0x4dc51141c48da1123b50e8c51827c17fc820f3a5977cf1aa4ffe7465f8a22694",
      "s": "0x49fe326e082f16685d6c080836291939d6d216ebc7b6b8f5c9bef2f474037a66",
      "v": 28,
      "creates": null,
      "raw": "0xf86c06850ba43b74008252089432be343b94f860124dc4fee278fdcbd38c102d8888e562a0736c316000801ca04dc51141c48da1123b50e8c51827c17fc820f3a5977cf1aa4ffe7465f8a22694a049fe326e082f16685d6c080836291939d6d216ebc7b6b8f5c9bef2f474037a66",
      "networkId": 0,
      "chainId": 0
    }
  ]
}