{
  "hash": "0x4aa7aa1b3ae67003100f8f7c7b24869f2b597378d4d1fad3f1aa4f419869b367",
  "parentHash": "0x240337b84ee26903b381cfc98e29174fb9ab5ca6a173b684c9d023adc9e1edf8",
  "number": 98298,
  "timestamp": 1439770375,
  "nonce": "0x6955b413513b8012",
  "difficulty": 3876487353979,
  "gasLimit": {
    "_hex": "0x2fefd8"
  },
  "gasUsed": {
    "_hex": "0x546c"
  },
  "miner": "0x5F8F73E26CdF436f19Cb24C82F90A15AFe55b592",
  "extraData": "0x476574682f76312e302e312f77696e646f77732f676f312e342e32",
  "transactions": [
    {
      "hash": "0xc1c39974172eb59168fb6355e30dbaddfe5831d13f6b75854ebddbf2b30f2b9f",
      "blockHash": "0x4aa7aa1b3ae67003100f8f7c7b24869f2b597378d4d1fad3f1aa4f419869b367",
      "blockNumber": 98298,
      "transactionIndex": 0,
      "confirmations": null,
      "from": "0x66493587E4BFbAf65E6295308371a78761a2794D",
      "gasPrice": {
        "_hex": "0x108d914c084"
      },
      "gasLimit": {
        "_hex": "0x55f0"
      },
      "to": "0x2910543Af39abA0Cd09dBb2D50200b3E800A63D2",
      "value": {
        "_hex": "0x4563918244f40000"
      },
      "nonce": 6,
      "data": "0x454e344a4b4b4e3947",
      "r": "0xa26e480e0e13368089f73387248092b80bcfbe21d04e2b6e93983bd79c6e4f8b",
      "s": "0x0adeb397f6fee01e0c5e1c0b955f73a2306a1d0d5eeddaee773e0ae61f15544f",
      "v": 27,
      "creates": null,
      "raw": "0xf87606860108d914c0848255f0942910543af39aba0cd09dbb2d50200b3e800a63d2884563918244f4000089454e344a4b4b4e39471ba0a26e480e0e13368089f73387248092b80bcfbe21d04e2b6e93983bd79c6e4f8ba00adeb397f6fee01e0c5e1c0b955f73a2306a1d0d5eeddaee773e0ae61f15544f",
      "networkId": 0,
      "chainId": 0
    }
  ]
}