{
  "hash": "0xbe2c8cc471ee8b88c19a8e9862784645ea5c4459444a8394fdcfab55c1291a00",
  "parentHash": "0x9b6875751a56e103755d000ef1a489274c925282c205f84f55716e0125820fa6",
  "number": 81628,
  "timestamp": 1439504973,
  "nonce": "0x0e199809caa7f3d6",
  "difficulty": 2437800728751,
  "gasLimit": {
    "_hex": "0x2fefd2"
  },
  "gasUsed": {
    "_hex": "0x5208"
  },
  "miner": "0xEF247E639d49461D25F57e9362CadE3120910Ce0",
  "extraData": "0x476574682f76312e302e312f6c696e75782f676f312e342e32",
  "transactions": [
    {
      "hash": "0x5b80af9cc0a97c3d17c38964001217eb71ab885d9dce8e60397528276f669883",
      "blockHash": "0xbe2c8cc471ee8b88c19a8e9862784645ea5c4459444a8394fdcfab55c1291a00",
      "blockNumber": 81628,
      "transactionIndex": 0,
      "confirmations": null,
      "from": "0x2910543Af39abA0Cd09dBb2D50200b3E800A63D2",
      "gasPrice": {
        "_hex": "0xd0752e522"
      },
      "gasLimit": {
        "_hex": "0x5208"
      },
      "to": "0xD05f85Eb920117eeBBf13dd94FeEA60e9eB34537",
      "value": {
        "_hex": "0x52ca0ec02f8e2e000"
      },
      "nonce": 492,
      "data": "0x",
      "r": "0x00c9f6079174c6244d7318834eab9263108524895c767b074378892a455f445b",
      "s": "0x7ff2e33df7b1fd1ece8a495333d2e62845769a63eac26f6948365de1ebed7f9f",
      "v": 27,
      "creates": null,
      "raw": "0xf86e8201ec850d0752e52282520894d05f85eb920117eebbf13dd94feea60e9eb3453789052ca0ec02f8e2e000801b9fc9f6079174c6244d7318834eab9263108524895c767b074378892a455f445ba07ff2e33df7b1fd1ece8a495333d2e62845769a63eac26f6948365de1ebed7f9f",
      "networkId": 0,
      "chainId": 0
    }
  ]
}