{
  "hash": "0x24510fbd329303eb60cd9c9d50d1c31f208952d0a1b71d843614edd888a394ca",
  "parentHash": "0xf435c03829eef0df5b341c65022d5866ae427e513f8fd0c60eaccb2668d34411",
  "number": 81690,
  "timestamp": 1439505991,
  "nonce": "0xf8bbfb9bf53eed48",
  "difficulty": 2433026063034,
  "gasLimit": {
    "_hex": "0x2fefd8"
  },
  "gasUsed": {
    "_hex": "0xa410"
  },
  "miner": "0x8B454d830feF179e66206840F8F3D1d83bC32b17",
  "extraData": "0x476574682f76312e302e312f77696e646f77732f676f312e342e32",
  "transactions": [
    {
      "hash": "0xf595c96d8d7bca810867f17dc7a626886b12b5e45119ff8914334383257b2979",
      "blockHash": "0x24510fbd329303eb60cd9c9d50d1c31f208952d0a1b71d843614edd888a394ca",
      "blockNumber": 81690,
      "transactionIndex": 0,
      "confirmations": null,
      "from": "0x32485C818728C197FeA487fBb6E829159eba8370",
      "gasPrice": {
        "_hex": "0xd69b48315"
      },
      "gasLimit": {
        "_hex": "0x15f90"
      },
      "to": "0x3D01cd9bD80e2165FFf6F863E0ddd402EbC4ae9c",
      "value": {
        "_hex": "0x16345785d8a0000"
      },
      "nonce": 0,
      "data": "0x",
      "r": "0x3c6a8f3ed6a350bec8ef42f108baebe397cc085a5db97cd23bfe9814ff80b9c1",
      "s": "0x6ff99c5f0715b8e6eed3e5264a1b8d46d1fde1858c6cea09513f44c1351db434",
      "v": 28,
      "creates": null,
      "raw": "0xf86d80850d69b4831583015f90943d01cd9bd80e2165fff6f863e0ddd402ebc4ae9c88016345785d8a0000801ca03c6a8f3ed6a350bec8ef42f108baebe397cc085a5db97cd23bfe9814ff80b9c1a06ff99c5f0715b8e6eed3e5264a1b8d46d1fde1858c6cea09513f44c1351db434",
      "networkId": 0,
      "chainId": 0
    },
    {
      "hash": "0x58f9cf80aa2a6ac3d04d1fa28f5c0303341d5b7856d74127da5147ee032d679a",
      "blockHash": "0x24510fbd329303eb60cd9c9d50d1c31f208952d0a1b71d843614edd888a394ca",
      "blockNumber": 81690,
      "transactionIndex": 1,
      "confirmations": null,
      "from": "0x01Ad0ACFf478127D9d702B1A13599D706cB759b1",
      "gasPrice": {
        "_hex": "0xd6900c2ea"
      },
      "gasLimit": {
        "_hex": "0x5208"
      },
      "to": "0x32Be343B94f860124dC4fEe278FDCBD38C102D88",
      "value": {
        "_hex": "0x3354be5832ff2000"
      },
      "nonce": 23,
      "data": "0x",
      "r": "0x9903eb08cfec955fe185afae4eacb83d08ac72b180f4502d80decf2f1dc64bae",
      "s": "0x119315d3471e78435c2aef601b830424e58a6f3cf4d46a4f3a0307fc8bf1278f",
      "v": 28,
      "creates": null,
      "raw": "0xf86c17850d6900c2ea8252089432be343b94f860124dc4fee278fdcbd38c102d88883354be5832ff2000801ca09903eb08cfec955fe185afae4eacb83d08ac72b180f4502d80decf2f1dc64baea0119315d3471e78435c2aef601b830424e58a6f3cf4d46a4f3a0307fc8bf1278f",
      "networkId": 0,
      "chainId": 0
    }
  ]
}