{
  "hash": "0x4f16a763b970fcc4af78abcc9c86f8e4f3ba63e0c88e12af3aafb8d35ca99fc8",
  "parentHash": "0x9522d460f47a1a410fb8308b84d4bf96b14487c1114d08a909f6f9aa8c2d9bb7",
  "number": 89322,
  "timestamp": 1439621609,
  "nonce": "0x18f3123b989cbc2e",
  "difficulty": 3306344447209,
  "gasLimit": {
    "_hex": "0x2fefd8"
  },
  "gasUsed": {
    "_hex": "0x549c"
  },
  "miner": "0xe6A7a1d47ff21B6321162AEA7C6CB457D5476Bca",
  "extraData": "0x476574682f76312e302e312d38326566323666362f6c696e75782f676f312e34",
  "transactions": [
    {
      "hash": "0xd0a1db51ba8be7765950d0a125784f9c90a89e7846631a50486fdb56139f392f",
      "blockHash": "0x4f16a763b970fcc4af78abcc9c86f8e4f3ba63e0c88e12af3aafb8d35ca99fc8",
      "blockNumber": 89322,
      "transactionIndex": 0,
      "confirmations": null,
      "from": "0x073f70b5bfAde6409E4951EF72BC8F4157677729",
      "gasPrice": {
        "_hex": "0xd2ea4fb0d"
      },
      "gasLimit": {
        "_hex": "0x30d40"
      },
      "to": "0xa50156cF80fa9eC2e16899E4fb7e072300787417",
      "value": {
        "_hex": "0x0"
      },
      "nonce": 26,
      "data": "0xf7c1f50a",
      "r": "0x6474358c9f9d145f237a78f5c884284d248836958e0388ce94b9e6426b89d28e",
      "s": "0x200085f5c54e666a0cdf2b0368182db10c16fc5105eee3002272d4679d23c0d3",
      "v": 27,
      "creates": null,
      "raw": "0xf8691a850d2ea4fb0d83030d4094a50156cf80fa9ec2e16899e4fb7e0723007874178084f7c1f50a1ba06474358c9f9d145f237a78f5c884284d248836958e0388ce94b9e6426b89d28ea0200085f5c54e666a0cdf2b0368182db10c16fc5105eee3002272d4679d23c0d3",
      "networkId": 0,
      "chainId": 0
    }
  ]
}