{
  "hash": "0xb6d222102695357af88a24c3bf87055cf887392e45a63003cfde1dd87e3a0f45",
  "parentHash": "0x29c6d53103554b68fe74624bee47d198b6faecf4c1229e5b05bc9df2f66319ab",
  "number": 52595,
  "timestamp": 1439024064,
  "nonce": "0xb7f98e5f4bd42fae",
  "difficulty": 1569425461970,
  "gasLimit": {
    "_hex": "0x160778"
  },
  "gasUsed": {
    "_hex": "0xf4240"
  },
  "miner": "0x664B099B945b899AaC84DA69dd6D4eEb3D03c8a3",
  "extraData": "0xdd809b302e392e34302b2b373237362d5257696e646f2f6d73762f4a4954",
  "transactions": [
    {
      "hash": "0x8d34d7a136ba986786ef24312fd1e7be3dffee3b81c736da75099f4f284f1a6a",
      "blockHash": "0xb6d222102695357af88a24c3bf87055cf887392e45a63003cfde1dd87e3a0f45",
      "blockNumber": 52595,
      "transactionIndex": 0,
      "confirmations": null,
      "from": "0x54dAeb3E8a6BBC797E4aD2b0339f134b186e4637",
      "gasPrice": {
        "_hex": "0xe7d27df17"
      },
      "gasLimit": {
        "_hex": "0x7a120"
      },
      "to": "0xBAA54d6E90c3F4d7Ebec11bD180134C7eD8eBb52",
      "value": {
        "_hex": "0x16345785d8a0000"
      },
      "nonce": 775,
      "data": "0x",
      "r": "0xed7eab6c18079ceec13b7bccf98661e2eb7876a8fd799de7498a4c1f4d93e784",
      "s": "0x453243fdd6663c6b949d3203f91be29a6ea8114002d761bf4ab6c0cb129bd151",
      "v": 28,
      "creates": null,
      "raw": "0xf86f820307850e7d27df178307a12094baa54d6e90c3f4d7ebec11bd180134c7ed8ebb5288016345785d8a0000801ca0ed7eab6c18079ceec13b7bccf98661e2eb7876a8fd799de7498a4c1f4d93e784a0453243fdd6663c6b949d3203f91be29a6ea8114002d761bf4ab6c0cb129bd151",
      "networkId": 0,
      "chainId": 0
    },
    {
      "hash": "0x94c694737eb4a0eb315da2598e59341b519805f4f8dc7d47c9bc0d18261ca581",
      "blockHash": "0xb6d222102695357af88a24c3bf87055cf887392e45a63003cfde1dd87e3a0f45",
      "blockNumber": 52595,
      "transactionIndex": 1,
      "confirmations": null,
      "from": "0x54dAeb3E8a6BBC797E4aD2b0339f134b186e4637",
      "gasPrice": {
        "_hex": "0xe7d27df17"
      },
      "gasLimit": {
        "_hex": "0x7a120"
      },
      "to": "0xBAA54d6E90c3F4d7Ebec11bD180134C7eD8eBb52",
      "value": {
        "_hex": "0x16345785d8a0000"
      },
      "nonce": 776,
      "data": "0x",
      "r": "0x15d92f14dada5b52813ffcfd69354c20f371cf5dc5477705c0abeb0f5a90ef99",
      "s": "0x694d8995a770fa6bb8f1ef4d0c6a7ce4c8d70dc4bfb740f475a76d1f65004102",
      "v": 27,
      "creates": null,
      "raw": "0xf86f820308850e7d27df178307a12094baa54d6e90c3f4d7ebec11bd180134c7ed8ebb5288016345785d8a0000801ba015d92f14dada5b52813ffcfd69354c20f371cf5dc5477705c0abeb0f5a90ef99a0694d8995a770fa6bb8f1ef4d0c6a7ce4c8d70dc4bfb740f475a76d1f65004102",
      "networkId": 0,
      "chainId": 0
    }
  ]
}