{
  "hash": "0xa79de03408705f2cb471d0795d70989ff74f3ae96f924276dffa8f076765b052",
  "parentHash": "0x6fc1e3afbee441a42cecaf78476b27c82a1ddb90d646d4226b12ab89992c59b5",
  "number": 108678,
  "timestamp": 1439944485,
  "nonce": "0xe81d513e50fba772",
  "difficulty": 4336091164133,
  "gasLimit": {
    "_hex": "0x2fefd8"
  },
  "gasUsed": {
    "_hex": "0x5208"
  },
  "miner": "0x580992B51e3925e23280EfB93d3047C82f17E038",
  "extraData": "0x476574682f76312e302e312f6c696e75782f676f312e342e32",
  "transactions": [
    {
      "hash": "0x3b456ef371dae6c80d36b276cb578b937463b8358b288ec4f7cd6525fabcb2ff",
      "blockHash": "0xa79de03408705f2cb471d0795d70989ff74f3ae96f924276dffa8f076765b052",
      "blockNumber": 108678,
      "transactionIndex": 0,
      "confirmations": null,
      "from": "0x886e83d9133F65B9c27A946f699E88e71A888E4C",
      "gasPrice": {
        "_hex": "0xce5baa143"
      },
      "gasLimit": {
        "_hex": "0x15f90"
      },
      "to": "0xCbbdAd70d0ff27254925AD37B5C135EEe1116615",
      "value": {
        "_hex": "0x429d069189e0000"
      },
      "nonce": 13,
      "data": "0x",
      "r": "0xa47342cc00281c8556fb8a412b7fff3da426be96978ad2f24a5df706ffeed6ee",
      "s": "0x6a4d801f334462088504e260f84783b669923552649d378c47e7589965b273ae",
      "v": 28,
      "creates": null,
      "raw": "0xf86d0d850ce5baa14383015f9094cbbdad70d0ff27254925ad37b5c135eee1116615880429d069189e0000801ca0a47342cc00281c8556fb8a412b7fff3da426be96978ad2f24a5df706ffeed6eea06a4d801f334462088504e260f84783b669923552649d378c47e7589965b273ae",
      "networkId": 0,
      "chainId": 0
    }
  ]
}