{
  "hash": "0xd4551d32b6c991d09ee2d4c9741966163a6f6330c019a8c86a75f285c1dd6f6a",
  "parentHash": "0x05316a575e0e0cc43417ee63103524d656fc71fdc1225e4c672dfedbc60c0982",
  "number": 81226,
  "timestamp": 1439498136,
  "nonce": "0x70092e305758b911",
  "difficulty": 2454640101561,
  "gasLimit": {
    "_hex": "0x2fefd8"
  },
  "gasUsed": {
    "_hex": "0x5208"
  },
  "miner": "0xe6A7a1d47ff21B6321162AEA7C6CB457D5476Bca",
  "extraData": "0x476574682f76312e302e312d38326566323666362f6c696e75782f676f312e34",
  "transactions": [
    {
      "hash": "0x0a0490006db877727d83c5f446d7637c414950ca34c2743a082d412717b86c5c",
      "blockHash": "0xd4551d32b6c991d09ee2d4c9741966163a6f6330c019a8c86a75f285c1dd6f6a",
      "blockNumber": 81226,
      "transactionIndex": 0,
      "confirmations": null,
      "from": "0x88a0A05437262a1b65f41A978Cb16CB1f0BFCfE0",
      "gasPrice": {
        "_hex": "0xcaf7d193a"
      },
      "gasLimit": {
        "_hex": "0x15f90"
      },
      "to": "0x12E09fC5550e428D07861F6bE42728cfc2Db2f3d",
      "value": {
        "_hex": "0xdbfb2859e3d2400"
      },
      "nonce": 10,
      "data": "0x",
      "r": "0xe6a190a27ed9a5867cb34974bfd14999759faa56ef6027bcd9501965cd70aa67",
      "s": "0x7827d58d3aeb1307c3d0e40c9077dc6239e1009e0378ebdb332597c3e3370f65",
      "v": 27,
      "creates": null,
      "raw": "0xf86d0a850caf7d193a83015f909412e09fc5550e428d07861f6be42728cfc2db2f3d880dbfb2859e3d2400801ba0e6a190a27ed9a5867cb34974bfd14999759faa56ef6027bcd9501965cd70aa67a07827d58d3aeb1307c3d0e40c9077dc6239e1009e0378ebdb332597c3e3370f65",
      "networkId": 0,
      "chainId": 0
    }
  ]
}