{
  "hash": "0x41dfa756ee9abc963cfd7c65855af0c554669e89a135d4e9382937669f332e33",
  "parentHash": "0x94e486b84932bd209b8cad002077890bcaeed79e6c8515aefcea5718d952d0c7",
  "number": 49346,
  "timestamp": 1438972182,
  "nonce": "0x77ce6906de900641",
  "difficulty": 1475630257842,
  "gasLimit": {
    "_hex": "0x2ddd7"
  },
  "gasUsed": {
    "_hex": "0x5208"
  },
  "miner": "0xbb7B8287f3F0a933474a79eAe42CBCa977791171",
  "extraData": "0x476574682f4c5649562f76312e302e312f6c696e75782f676f312e342e32",
  "transactions": [
    {
      "hash": "0xe559b9983cba1e8268aa46130de074d23f6fb53170239b92324d884d3858f805",
      "blockHash": "0x41dfa756ee9abc963cfd7c65855af0c554669e89a135d4e9382937669f332e33",
      "blockNumber": 49346,
      "transactionIndex": 0,
      "confirmations": null,
      "from": "0x7c45f0f8442A56dbd39Dbf159995415c52ED479b",
      "gasPrice": {
        "_hex": "0x10bd2717cdb"
      },
      "gasLimit": {
        "_hex": "0x15f90"
      },
      "to": "0xEE04c7b429f39243C8d1ae8578acD96de91ca4C8",
      "value": {
        "_hex": "0x4563918244f40000"
      },
      "nonce": 0,
      "data": "0x",
      "r": "0x20bf2173478f2c215b0395b369d196ac8b61c54b5a7e4213020f81063950bbd4",
      "s": "0x14566e6df93e02f1b5fee32e88effc5fa003447a73fdc56c3ec369172dae81fa",
      "v": 27,
      "creates": null,
      "raw": "0xf86e8086010bd2717cdb83015f9094ee04c7b429f39243c8d1ae8578acd96de91ca4c8884563918244f40000801ba020bf2173478f2c215b0395b369d196ac8b61c54b5a7e4213020f81063950bbd4a014566e6df93e02f1b5fee32e88effc5fa003447a73fdc56c3ec369172dae81fa",
      "networkId": 0,
      "chainId": 0
    }
  ]
}