{
  "hash": "0x3514c7d8fbd578ed5adc45419e72d5101c73c238a59e58d1dd2076c5f9c2caf6",
  "parentHash": "0x7d8a9ce67c9828711b9b00fb83cc200c89acffee30d967377b3eb968b31b5269",
  "number": 63806,
  "timestamp": 1439210395,
  "nonce": "0xee046f0cfd85617e",
  "difficulty": 1853088360133,
  "gasLimit": {
    "_hex": "0x2fefd8"
  },
  "gasUsed": {
    "_hex": "0x5208"
  },
  "miner": "0xf927a40C8B7F6E07c5af7FA2155B4864a4112B13",
  "extraData": "0x476574682f76312e302e312f6c696e75782f676f312e342e32",
  "transactions": [
    {
      "hash": "0x8d16a8679bda6b324a21df810b6205070e28f0d1add3f72176e54c919bf1cfa4",
      "blockHash": "0x3514c7d8fbd578ed5adc45419e72d5101c73c238a59e58d1dd2076c5f9c2caf6",
      "blockNumber": 63806,
      "transactionIndex": 0,
      "confirmations": null,
      "from": "0x902cA27B08D58442b67bb4Fa988de351468AB59f",
      "gasPrice": {
        "_hex": "0xd8364fc25"
      },
      "gasLimit": {
        "_hex": "0x55f0"
      },
      "to": "0x8751DfA908C45A8aEf041FbeE9C17f9fE57Cc449",
      "value": {
        "_hex": "0x1e611cbedfa0e8000"
      },
      "nonce": 0,
      "data": "0x",
      "r": "0x38c58685961353f87d4afc0af1e3f0b5359b9557ba5be6e654c59a760c3d481a",
      "s": "0x749a98673efdccbfcb926b2b9541b0737f8ff23b066369ea83b0d88b015c54db",
      "v": 28,
      "creates": null,
      "raw": "0xf86d80850d8364fc258255f0948751dfa908c45a8aef041fbee9c17f9fe57cc4498901e611cbedfa0e8000801ca038c58685961353f87d4afc0af1e3f0b5359b9557ba5be6e654c59a760c3d481aa0749a98673efdccbfcb926b2b9541b0737f8ff23b066369ea83b0d88b015c54db",
      "networkId": 0,
      "chainId": 0
    }
  ]
}