{
  "hash": "0x1e668fa2d129382bce738ac324ed468e74f285f3ab38088fd696bca4d60f660b",
  "parentHash": "0x4216e5efc44b58ba1ac93c68935c41616d12fd9750201753184fc690136dd9b6",
  "number": 71610,
  "timestamp": 1439339035,
  "nonce": "0x5e7dc644d497adde",
  "difficulty": 2172936729791,
  "gasLimit": {
    "_hex": "0x2fefd8"
  },
  "gasUsed": {
    "_hex": "0x9400"
  },
  "miner": "0x55bAf64fc9eAccFFd7Cc643BB61142E1C6ac093e",
  "extraData": "0x",
  "transactions": [
    {
      "hash": "0xedd138a7d79c846e5a8e23a0c4969b40c04e351bae673c29650f29ff3beff201",
      "blockHash": "0x1e668fa2d129382bce738ac324ed468e74f285f3ab38088fd696bca4d60f660b",
      "blockNumber": 71610,
      "transactionIndex": 0,
      "confirmations": null,
      "from": "0x17580B766f7453525ca4C6A88b01b50570EA088C",
      "gasPrice": {
        "_hex": "0xd54c051b3"
      },
      "gasLimit": {
        "_hex": "0x61a80"
      },
      "to": "0x5Fe5B7546D1628f7348B023A0393de1FC825A4fD",
      "value": {
        "_hex": "0x29a2241af62c0000"
      },
      "nonce": 234,
      "data": "0xb595b8b50000000000000000000000000000000000000000000000000000000000000001",
      "r": "0x681aadec2c64b40f7dc181a5848b181b823015e9d613c085f544314249e928df",
      "s": "0x51b1ff866fa0871833c0611362188de566d1e32ded43708fdb7c3a68d63d8955",
      "v": 27,
      "creates": null,
      "raw": "0xf89281ea850d54c051b383061a80945fe5b7546d1628f7348b023a0393de1fc825a4fd8829a2241af62c0000a4b595b8b500000000000000000000000000000000000000000000000000000000000000011ba0681aadec2c64b40f7dc181a5848b181b823015e9d613c085f544314249e928dfa051b1ff866fa0871833c0611362188de566d1e32ded43708fdb7c3a68d63d8955",
      "networkId": 0,
      "chainId": 0
    }
  ]
}