{
  "hash": "0x6d4e8c59fa89256aebf87e455f33185b3ec2faa107e7e0841cf59b21e15372fa",
  "parentHash": "0x707a674977119ff50e1bcb1f8e3a1cd3ae78469a06ab55abeb8edabb2372aa7b",
  "number": 63808,
  "timestamp": 1439210419,
  "nonce": "0x573f5fd684aadf77",
  "difficulty": 1853087918322,
  "gasLimit": {
    "_hex": "0x2fefd8"
  },
  "gasUsed": {
    "_hex": "0xa410"
  },
  "miner": "0x39A1BB80a741bF5EC39FB9BE59408Fa0F418fFBf",
  "extraData": "0x476574682f76312e302e312f77696e646f77732f676f312e342e32",
  "transactions": [
    {
      "hash": "0xd64857cd7e1cfdf4b1f80a36430b2a014508c29dfbb4bdf748bd5975d0b6c9f2",
      "blockHash": "0x6d4e8c59fa89256aebf87e455f33185b3ec2faa107e7e0841cf59b21e15372fa",
      "blockNumber": 63808,
      "transactionIndex": 0,
      "confirmations": null,
      "from": "0x96811Ad897894eC178872117C8BF2f03971A393B",
      "gasPrice": {
        "_hex": "0xdf7b7959c"
      },
      "gasLimit": {
        "_hex": "0x5208"
      },
      "to": "0x32Be343B94f860124dC4fEe278FDCBD38C102D88",
      "value": {
        "_hex": "0x1037f452448511000"
      },
      "nonce": 10,
      "data": "0x",
      "r": "0x541c7739433bb585ecfadb6eb711fe1a94f6d95f951af3a8025bc222746f5cea",
      "s": "0x3c2ffbab79f274dc64513f5955bf99b79eeef28457064953a29ef2e9ef63e13b",
      "v": 28,
      "creates": null,
      "raw": "0xf86d0a850df7b7959c8252089432be343b94f860124dc4fee278fdcbd38c102d888901037f452448511000801ca0541c7739433bb585ecfadb6eb711fe1a94f6d95f951af3a8025bc222746f5ceaa03c2ffbab79f274dc64513f5955bf99b79eeef28457064953a29ef2e9ef63e13b",
      "networkId": 0,
      "chainId": 0
    },
    {
      "hash": "0x0b6f75edf2ae293e3295d2b8b59a4084a0ec4647bb25c83f940bc06dc4840ea6",
      "blockHash": "0x6d4e8c59fa89256aebf87e455f33185b3ec2faa107e7e0841cf59b21e15372fa",
      "blockNumber": 63808,
      "transactionIndex": 1,
      "confirmations": null,
      "from": "0x8f30e76a8Ddf9FaEf40fd58197421716764B72D8",
      "gasPrice": {
        "_hex": "0xd17ef95f2"
      },
      "gasLimit": {
        "_hex": "0x55f0"
      },
      "to": "0x8751DfA908C45A8aEf041FbeE9C17f9fE57Cc449",
      "value": {
        "_hex": "0xd018f10d96fb8000"
      },
      "nonce": 0,
      "data": "0x",
      "r": "0x0a67f00081701f4403ce99e30dbfdbd9a8150fdf3ed16d5b5cc69d3fda3179c4",
      "s": "0x3420784ea2e6e018881723f69bdf358fdb625acd00542f10bc341208867ddefb",
      "v": 28,
      "creates": null,
      "raw": "0xf86c80850d17ef95f28255f0948751dfa908c45a8aef041fbee9c17f9fe57cc44988d018f10d96fb8000801ca00a67f00081701f4403ce99e30dbfdbd9a8150fdf3ed16d5b5cc69d3fda3179c4a03420784ea2e6e018881723f69bdf358fdb625acd00542f10bc341208867ddefb",
      "networkId": 0,
      "chainId": 0
    }
  ]
}