{
  "hash": "0x9785a0952964766e8501e899be04fba55ec73006ec462a49fe2658fa40751ce5",
  "parentHash": "0x6b5cd77a03effa5ea0f3adebbabf519bfa8ca081d830be7781ff82cc3bf2b710",
  "number": 102338,
  "timestamp": 1439836410,
  "nonce": "0x20f755ceab04f7c4",
  "difficulty": 3947184365321,
  "gasLimit": {
    "_hex": "0x2fefd8"
  },
  "gasUsed": {
    "_hex": "0xa410"
  },
  "miner": "0xe6A7a1d47ff21B6321162AEA7C6CB457D5476Bca",
  "extraData": "0x476574682f76312e302e312d38326566323666362f6c696e75782f676f312e34",
  "transactions": [
    {
      "hash": "0x90d215a89af7b1b2f9c811945de15c2aa07567b42cd79c81c1d1adc4eb375cf3",
      "blockHash": "0x9785a0952964766e8501e899be04fba55ec73006ec462a49fe2658fa40751ce5",
      "blockNumber": 102338,
      "transactionIndex": 0,
      "confirmations": null,
      "from": "0xD5bf64B3B17Fb895536953EfE17578a8b7b16880",
      "gasPrice": {
        "_hex": "0xd249ffc09"
      },
      "gasLimit": {
        "_hex": "0x5208"
      },
      "to": "0x32Be343B94f860124dC4fEe278FDCBD38C102D88",
      "value": {
        "_hex": "0x2b5df78f24379a000"
      },
      "nonce": 3,
      "data": "0x",
      "r": "0xf4d04a50b7de81bdf5abb8382b97a348300b764f3c4232412a3a117d7dbec7af",
      "s": "0x3aec484cb900b69ce93b37973f80c9b94c4d9187b29f0bc3eeaaeb00d63584c1",
      "v": 27,
      "creates": null,
      "raw": "0xf86d03850d249ffc098252089432be343b94f860124dc4fee278fdcbd38c102d888902b5df78f24379a000801ba0f4d04a50b7de81bdf5abb8382b97a348300b764f3c4232412a3a117d7dbec7afa03aec484cb900b69ce93b37973f80c9b94c4d9187b29f0bc3eeaaeb00d63584c1",
      "networkId": 0,
      "chainId": 0
    },
    {
      "hash": "0xaa82c6c38a7027595f32561c4e5796f78e5c87191e9b00ca6dcf5cc4e5546be6",
      "blockHash": "0x9785a0952964766e8501e899be04fba55ec73006ec462a49fe2658fa40751ce5",
      "blockNumber": 102338,
      "transactionIndex": 1,
      "confirmations": null,
      "from": "0x86d3856ad0105B9d4199936c1fd203664BA325dC",
      "gasPrice": {
        "_hex": "0xd249ffc09"
      },
      "gasLimit": {
        "_hex": "0x5208"
      },
      "to": "0x32Be343B94f860124dC4fEe278FDCBD38C102D88",
      "value": {
        "_hex": "0x4b0ff83410da8800"
      },
      "nonce": 22,
      "data": "0x",
      "r": "0x023b7c79ad4a4749b7a5cdbce81adea71caf51d62eb64ac4bb94d5245d56b8fe",
      "s": "0x1af0800b020748128c99b3f507891a58c5304abd0e344e95cab02699d3cad4c4",
      "v": 27,
      "creates": null,
      "raw": "0xf86c16850d249ffc098252089432be343b94f860124dc4fee278fdcbd38c102d88884b0ff83410da8800801ba0023b7c79ad4a4749b7a5cdbce81adea71caf51d62eb64ac4bb94d5245d56b8fea01af0800b020748128c99b3f507891a58c5304abd0e344e95cab02699d3cad4c4",
      "networkId": 0,
      "chainId": 0
    }
  ]
}