{
  "hash": "0x6c104b9c4cfb3b15628a0cd2132623de6532aa85b0d1e0b450f4e1dba4bb0add",
  "parentHash": "0x2beccfb28747b746f675f8d7775dbb332ea2f738598516d36c918062d818f2ae",
  "number": 59037,
  "timestamp": 1439131084,
  "nonce": "0x02d3f2ba49d7f2f5",
  "difficulty": 1705615495305,
  "gasLimit": {
    "_hex": "0x2fefd8"
  },
  "gasUsed": {
    "_hex": "0x5208"
  },
  "miner": "0x5B7970CD176308e0Ffd0358e8B14aaF4A19BA544",
  "extraData": "0x476574682f76312e302e302f77696e646f77732f676f312e342e32",
  "transactions": [
    {
      "hash": "0x2ae7b4486900c984ac9e5b441acd9c5e392961d63a92ea437fd332b859c66af0",
      "blockHash": "0x6c104b9c4cfb3b15628a0cd2132623de6532aa85b0d1e0b450f4e1dba4bb0add",
      "blockNumber": 59037,
      "transactionIndex": 0,
      "confirmations": null,
      "from": "0x32Be343B94f860124dC4fEe278FDCBD38C102D88",
      "gasPrice": {
        "_hex": "0xda28adc77"
      },
      "gasLimit": {
        "_hex": "0x5208"
      },
      "to": "0x51e07ebFfb63C575d3aA5C7F25c5B6Fcae1Da362",
      "value": {
        "_hex": "0x1c917494e3271b0000"
      },
      "nonce": 101,
      "data": "0x",
      "r": "0x8c8e8b4b361c8c4d04bf0a3744d7f2aaeccb4a22878c15703e340c8b489279bd",
      "s": "0x48d5ca9fb3fbd43d556a3461715a0ddec9195263ae165df81e32ae19a62fa8df",
      "v": 28,
      "creates": null,
      "raw": "0xf86d65850da28adc778252089451e07ebffb63c575d3aa5c7f25c5b6fcae1da362891c917494e3271b0000801ca08c8e8b4b361c8c4d04bf0a3744d7f2aaeccb4a22878c15703e340c8b489279bda048d5ca9fb3fbd43d556a3461715a0ddec9195263ae165df81e32ae19a62fa8df",
      "networkId": 0,
      "chainId": 0
    }
  ]
}