{
  "hash": "0xc393dca68782d57bc408b5b01348c87e3fa50e411db1c53411ab0ab0d47e8bf4",
  "parentHash": "0xd1e89aad50871ac3e6524216701b91de2e242fff2c00395ab6e846bc8615d01a",
  "number": 89197,
  "timestamp": 1439619694,
  "nonce": "0xf2507d76eb4e02e8",
  "difficulty": 3282265431469,
  "gasLimit": {
    "_hex": "0x2fefd8"
  },
  "gasUsed": {
    "_hex": "0x5208"
  },
  "miner": "0xe6A7a1d47ff21B6321162AEA7C6CB457D5476Bca",
  "extraData": "0x476574682f76312e302e312d38326566323666362f6c696e75782f676f312e34",
  "transactions": [
    {
      "hash": "0x80d04d196d54bbdb94f792f490494f9f60286299d017450efa45c6ecc5b30cc4",
      "blockHash": "0xc393dca68782d57bc408b5b01348c87e3fa50e411db1c53411ab0ab0d47e8bf4",
      "blockNumber": 89197,
      "transactionIndex": 0,
      "confirmations": null,
      "from": "0x3Dca868142842E84Aae3D0DbD57b7fc3A7C7A18e",
      "gasPrice": {
        "_hex": "0xdcf55cca3"
      },
      "gasLimit": {
        "_hex": "0x5208"
      },
      "to": "0x32Be343B94f860124dC4fEe278FDCBD38C102D88",
      "value": {
        "_hex": "0xddc3de268d37800"
      },
      "nonce": 0,
      "data": "0x",
      "r": "0x2fdf3872268f0ddfef009d3955c4c43677b8e8bbe8f4b8284892f23925740d7e",
      "s": "0x3b684456618ec768da46dfd3b866c3303837cba4ea2b777ee129af58cd3e86a4",
      "v": 28,
      "creates": null,
      "raw": "0xf86c80850dcf55cca38252089432be343b94f860124dc4fee278fdcbd38c102d88880ddc3de268d37800801ca02fdf3872268f0ddfef009d3955c4c43677b8e8bbe8f4b8284892f23925740d7ea03b684456618ec768da46dfd3b866c3303837cba4ea2b777ee129af58cd3e86a4",
      "networkId": 0,
      "chainId": 0
    }
  ]
}