{
  "hash": "0x1d88568cb6de682c21b3f22bbeaf6eedf06dde4e5c9262108a969615d0abd2a8",
  "parentHash": "0xc691f9730118782933d3f2d8af57493e5d1fa1fff4111c64f35d5c22f394b6a3",
  "number": 61232,
  "timestamp": 1439169156,
  "nonce": "0x3d8a7619ea68e69d",
  "difficulty": 1722743852014,
  "gasLimit": {
    "_hex": "0x2fefd8"
  },
  "gasUsed": {
    "_hex": "0x546c"
  },
  "miner": "0x785ffdDd5cE55c6DF963f345e68d3F2024E5Acb1",
  "extraData": "0x457468657265756d20474f212121212121",
  "transactions": [
    {
      "hash": "0x4c95b36603b204f74f0f9e1e4109819930a74425deb89db500f14e7dfa1fb621",
      "blockHash": "0x1d88568cb6de682c21b3f22bbeaf6eedf06dde4e5c9262108a969615d0abd2a8",
      "blockNumber": 61232,
      "transactionIndex": 0,
      "confirmations": null,
      "from": "0xF0b384EC537546769FAEDdd131A1453723714c4E",
      "gasPrice": {
        "_hex": "0xd59f5dc84"
      },
      "gasLimit": {
        "_hex": "0x55f0"
      },
      "to": "0x2910543Af39abA0Cd09dBb2D50200b3E800A63D2",
      "value": {
        "_hex": "0xde0b6b3a7640000"
      },
      "nonce": 0,
      "data": "0x454e36344d43525238",
      "r": "0xbbe0a6219b75b5a86a23c50cf208b37baf0f8ed9ff3e16562a1d5dd86eb11e02",
      "s": "0x060397bb455888fa15e3e52a02c098c6776b19699bcd33ef1de4300561a9a89f",
      "v": 28,
      "creates": null,
      "raw": "0xf87580850d59f5dc848255f0942910543af39aba0cd09dbb2d50200b3e800a63d2880de0b6b3a764000089454e36344d435252381ca0bbe0a6219b75b5a86a23c50cf208b37baf0f8ed9ff3e16562a1d5dd86eb11e02a0060397bb455888fa15e3e52a02c098c6776b19699bcd33ef1de4300561a9a89f",
      "networkId": 0,
      "chainId": 0
    }
  ]
}