{
  "hash": "0xc6f0712cb346e198176a8f0377e28ce7dc88b31512d96275a21eeff01e923aa2",
  "parentHash": "0xd9e4715c9ca77ef3599a234b36504fed12dabb4a2c4ae2918e0c04a716e2092a",
  "number": 69271,
  "timestamp": 1439300972,
  "nonce": "0xc7facd657d7f75c2",
  "difficulty": 2068951598323,
  "gasLimit": {
    "_hex": "0x2fefd8"
  },
  "gasUsed": {
    "_hex": "0xa4100"
  },
  "miner": "0x7Fb4dd94885064F689345274B314de1680cB42d8",
  "extraData": "0xda8098302e392e34302b2b302d524c696e75782f672b2b2f696e74",
  "transactions": [
    {
      "hash": "0x58976ff6656f19e5959891f7dfe0f580fd9a5c681ae670a7a5c85ea83fa80e79",
      "blockHash": "0xc6f0712cb346e198176a8f0377e28ce7dc88b31512d96275a21eeff01e923aa2",
      "blockNumber": 69271,
      "transactionIndex": 0,
      "confirmations": null,
      "from": "0xe6A7a1d47ff21B6321162AEA7C6CB457D5476Bca",
      "gasPrice": {
        "_hex": "0xd5075b1de"
      },
      "gasLimit": {
        "_hex": "0x55f0"
      },
      "to": "0xC15233674F0Cb7729e4Ab8aB733430C40580914d",
      "value": {
        "_hex": "0x284819767e865ff0"
      },
      "nonce": 590,
      "data": "0x",
      "r": "0x84b5da0386416c07d5ea0cfe3e6a529644d835890e583c6201e923050da5a03f",
      "s": "0x47f1b672da58328dd774111422f1d14a95ca5296e6b17224c1a8d86eaf5a1235",
      "v": 27,
      "creates": null,
      "raw": "0xf86e82024e850d5075b1de8255f094c15233674f0cb7729e4ab8ab733430c40580914d88284819767e865ff0801ba084b5da0386416c07d5ea0cfe3e6a529644d835890e583c6201e923050da5a03fa047f1b672da58328dd774111422f1d14a95ca5296e6b17224c1a8d86eaf5a1235",
      "networkId": 0,
      "chainId": 0
    },
    {
      "hash": "0xd93fba6d3e1a7e538d00d86edade8dfba57bfcd7feec851b2a459b241fb90c4b",
      "blockHash": "0xc6f0712cb346e198176a8f0377e28ce7dc88b31512d96275a21eeff01e923aa2",
      "blockNumber": 69271,
      "transactionIndex": 1,
      "confirmations": null,
      "from": "0xe6A7a1d47ff21B6321162AEA7C6CB457D5476Bca",
      "gasPrice": {
        "_hex": "0xd5075b1de"
      },
      "gasLimit": {
        "_hex": "0x55f0"
      },
      "to": "0xC5d30A49174e1a78D4b8a71824e78563cB041e94",
      "value": {
        "_hex": "0x288461fc2bcad510"
      },
      "nonce": 591,
      "data": "0x",
      "r": "0xb0e02079691658fbb09671bd0da2d4da4511b9fc95fc704bfb1a96713d1a8c0b",
      "s": "0x1cf78fad90346e6dd3b64e490acc0ae4f7dab5614291a6124a68b8db90ec7890",
      "v": 28,
      "creates": null,
      "raw": "0xf86e82024f850d5075b1de8255f094c5d30a49174e1a78d4b8a71824e78563cb041e9488288461fc2bcad510801ca0b0e02079691658fbb09671bd0da2d4da4511b9fc95fc704bfb1a96713d1a8c0ba01cf78fad90346e6dd3b64e490acc0ae4f7dab5614291a6124a68b8db90ec7890",
      "networkId": 0,
      "chainId": 0
    },
    {
      "hash": "0x64afbdc3b3054f872c23e5a36b199ae3c345421cb7dc172b749c9238859f40bf",
      "blockHash": "0xc6f0712cb346e198176a8f0377e28ce7dc88b31512d96275a21eeff01e923aa2",
      "blockNumber": 69271,
      "transactionIndex": 2,
      "confirmations": null,
      "from": "0xe6A7a1d47ff21B6321162AEA7C6CB457D5476Bca",
      "gasPrice": {
        "_hex": "0xd5075b1de"
      },
      "gasLimit": {
        "_hex": "0x55f0"
      },
      "to": "0x4245FB34599786Dd82dB47c0f4f2B276001a72CF",
      "value": {
        "_hex": "0x293ce2bfa71c89c8"
      },
      "nonce": 592,
      "data": "0x",
      "r": "0xd16b888cb9d65e138858b26f5c84d0cac1c0a022bc77b8d902b1ee5f093b7b2e",
      "s": "0x0d77337be129a4ae2206baa942a5a6cc6cf865ec2e8e3b67ed96f393b9a1017a",
      "v": 28,
      "creates": null,
      "raw": "0xf86e820250850d5075b1de8255f0944245fb34599786dd82db47c0f4f2b276001a72cf88293ce2bfa71c89c8801ca0d16b888cb9d65e138858b26f5c84d0cac1c0a022bc77b8d902b1ee5f093b7b2ea00d77337be129a4ae2206baa942a5a6cc6cf865ec2e8e3b67ed96f393b9a1017a",
      "networkId": 0,
      "chainId": 0
    },
    {
      "hash": "0x243685a3bbfc7a7dd8651c3c3d6ad8a5a0b081b66b239e8d61e9d278c9cd0dff",
      "blockHash": "0xc6f0712cb346e198176a8f0377e28ce7dc88b31512d96275a21eeff01e923aa2",
      "blockNumber": 69271,
      "transactionIndex": 3,
      "confirmations": null,
      "from": "0xe6A7a1d47ff21B6321162AEA7C6CB457D5476Bca",
      "gasPrice": {
        "_hex": "0xd5075b1de"
      },
      "gasLimit": {
        "_hex": "0x55f0"
      },
      "to": "0xD042e5C2443591c48f1FBa5F6bAf8E7193f454B9",
      "value": {
        "_hex": "0x2ae2602942b5d118"
      },
      "nonce": 593,
      "data": "0x",
      "r": "0x49a2970bf2f367b77af5152aba6da152127f2a9e81bf9d97942f0ef700a85207",
      "s": "0x263c23c0109bf6a80fc5dc627acd8a529df65c691e176844ff00fc45265e0057",
      "v": 28,
      "creates": null,
      "raw": "0xf86e820251850d5075b1de8255f094d042e5c2443591c48f1fba5f6baf8e7193f454b9882ae2602942b5d118801ca049a2970bf2f367b77af5152aba6da152127f2a9e81bf9d97942f0ef700a85207a0263c23c0109bf6a80fc5dc627acd8a529df65c691e176844ff00fc45265e0057",
      "networkId": 0,
      "chainId": 0
    },
    {
      "hash": "0xe983a6e32f76ec8c637f03631229dad3c7c63557de72390fa92220ede2f974e3",
      "blockHash": "0xc6f0712cb346e198176a8f0377e28ce7dc88b31512d96275a21eeff01e923aa2",
      "blockNumber": 69271,
      "transactionIndex": 4,
      "confirmations": null,
      "from": "0xe6A7a1d47ff21B6321162AEA7C6CB457D5476Bca",
      "gasPrice": {
        "_hex": "0xd5075b1de"
      },
      "gasLimit": {
        "_hex": "0x55f0"
      },
      "to": "0x31353beec2eD3DFfC213c27A9F28ad8dfee828e9",
      "value": {
        "_hex": "0x2ae3151508c810f0"
      },
      "nonce": 594,
      "data": "0x",
      "r": "0x4bcbc6b8974df593554e6ecce09c15a91337761dadc301e0b3addcafd3aaddfb",
      "s": "0x635c5c3436bece1283060717d3cd295577118e9508a733321c634fabc5c98bb8",
      "v": 27,
      "creates": null,
      "raw": "0xf86e820252850d5075b1de8255f09431353beec2ed3dffc213c27a9f28ad8dfee828e9882ae3151508c810f0801ba04bcbc6b8974df593554e6ecce09c15a91337761dadc301e0b3addcafd3aaddfba0635c5c3436bece1283060717d3cd295577118e9508a733321c634fabc5c98bb8",
      "networkId": 0,
      "chainId": 0
    },
    {
      "hash": "0xaef0350898f4b9fdc34fcb3aeb71096cb7fd6972eba1954e09ae77454fbe4045",
      "blockHash": "0xc6f0712cb346e198176a8f0377e28ce7dc88b31512d96275a21eeff01e923aa2",
      "blockNumber": 69271,
      "transactionIndex": 5,
      "confirmations": null,
      "from": "0xe6A7a1d47ff21B6321162AEA7C6CB457D5476Bca",
      "gasPrice": {
        "_hex": "0xd5075b1de"
      },
      "gasLimit": {
        "_hex": "0x55f0"
      },
      "to": "0xD9a9A8ec148D2B0F7Cd8B2700013A9AA5cf89910",
      "value": {
        "_hex": "0x2ba45de4d44ea610"
      },
      "nonce": 595,
      "data": "0x",
      "r": "0xcabfaf4f2222b8267194c62d42f4c7f19bdd19b6374638e83caa247d909f66d7",
      "s": "0x45774465a12d38a444b6c351a9e47d5c0a8da29f15028d358797f4202983d45d",
      "v": 28,
      "creates": null,
      "raw": "0xf86e820253850d5075b1de8255f094d9a9a8ec148d2b0f7cd8b2700013a9aa5cf89910882ba45de4d44ea610801ca0cabfaf4f2222b8267194c62d42f4c7f19bdd19b6374638e83caa247d909f66d7a045774465a12d38a444b6c351a9e47d5c0a8da29f15028d358797f4202983d45d",
      "networkId": 0,
      "chainId": 0
    },
    {
      "hash": "0xd510973ac038ff7cb144f1db05f5a7d1a6552fed6a50c8759ceec89872275665",
      "blockHash": "0xc6f0712cb346e198176a8f0377e28ce7dc88b31512d96275a21eeff01e923aa2",
      "blockNumber": 69271,
      "transactionIndex": 6,
      "confirmations": null,
      "from": "0xe6A7a1d47ff21B6321162AEA7C6CB457D5476Bca",
      "gasPrice": {
        "_hex": "0xd5075b1de"
      },
      "gasLimit": {
        "_hex": "0x55f0"
      },
      "to": "0x952f389eCE021cECc7e7E00B5316925e14396B92",
      "value": {
        "_hex": "0x2dc8d8429edba9fc"
      },
      "nonce": 596,
      "data": "0x",
      "r": "0x21568687917953b7a227c797de6119e2a04216eeb8ada4cd2f48de62d390ffd8",
      "s": "0x50a1a473a33699d9e6aa9111a71eb7d139460eea641e666f4f2ed071086cc5dd",
      "v": 28,
      "creates": null,
      "raw": "0xf86e820254850d5075b1de8255f094952f389ece021cecc7e7e00b5316925e14396b92882dc8d8429edba9fc801ca021568687917953b7a227c797de6119e2a04216eeb8ada4cd2f48de62d390ffd8a050a1a473a33699d9e6aa9111a71eb7d139460eea641e666f4f2ed071086cc5dd",
      "networkId": 0,
      "chainId": 0
    },
    {
      "hash": "0x0b0b91db1209ce661f54044b36c51cc1062b9aeda716d45e8493da96c03e39b7",
      "blockHash": "0xc6f0712cb346e198176a8f0377e28ce7dc88b31512d96275a21eeff01e923aa2",
      "blockNumber": 69271,
      "transactionIndex": 7,
      "confirmations": null,
      "from": "0xe6A7a1d47ff21B6321162AEA7C6CB457D5476Bca",
      "gasPrice": {
        "_hex": "0xd5075b1de"
      },
      "gasLimit": {
        "_hex": "0x55f0"
      },
      "to": "0x5175f107219871c88e0C4202F14A5f34088b54c8",
      "value": {
        "_hex": "0x2fe360f7e5929a2c"
      },
      "nonce": 597,
      "data": "0x",
      "r": "0x0dba6add40fb894d970b28ff4b9a78866d6be8f729bbd15b3f9e27574615c6bd",
      "s": "0x6faed32cd4e0b5262c7261eba6198becdcd31c4062abe5707ebfcbcda4c44561",
      "v": 27,
      "creates": null,
      "raw": "0xf86e820255850d5075b1de8255f0945175f107219871c88e0c4202f14a5f34088b54c8882fe360f7e5929a2c801ba00dba6add40fb894d970b28ff4b9a78866d6be8f729bbd15b3f9e27574615c6bda06faed32cd4e0b5262c7261eba6198becdcd31c4062abe5707ebfcbcda4c44561",
      "networkId": 0,
      "chainId": 0
    },
    {
      "hash": "0xe871c861d02144d0f2c5ff755b65b4819258c88089448fbe0bd6076f8544726d",
      "blockHash": "0xc6f0712cb346e198176a8f0377e28ce7dc88b31512d96275a21eeff01e923aa2",
      "blockNumber": 69271,
      "transactionIndex": 8,
      "confirmations": null,
      "from": "0xe6A7a1d47ff21B6321162AEA7C6CB457D5476Bca",
      "gasPrice": {
        "_hex": "0xd307d0750"
      },
      "gasLimit": {
        "_hex": "0x55f0"
      },
      "to": "0x4F68024B7CEB5ca92e7308BD08e523c632C0c739",
      "value": {
        "_hex": "0x30c5792b063345dc"
      },
      "nonce": 598,
      "data": "0x",
      "r": "0xe3b010fc1abba4604ac9b46626ad1a135a4698028e53434697e558a11b7e8073",
      "s": "0x3be1fa809ba69bb8e7d5910e579d484244361ef0ab9ecd655e6720efe711018a",
      "v": 28,
      "creates": null,
      "raw": "0xf86e820256850d307d07508255f0944f68024b7ceb5ca92e7308bd08e523c632c0c7398830c5792b063345dc801ca0e3b010fc1abba4604ac9b46626ad1a135a4698028e53434697e558a11b7e8073a03be1fa809ba69bb8e7d5910e579d484244361ef0ab9ecd655e6720efe711018a",
      "networkId": 0,
      "chainId": 0
    },
    {
      "hash": "0x009a3f6849ae5c1c2ebe67759de307f0fea2459509f84bc18d8800fcded01327",
      "blockHash": "0xc6f0712cb346e198176a8f0377e28ce7dc88b31512d96275a21eeff01e923aa2",
      "blockNumber": 69271,
      "transactionIndex": 9,
      "confirmations": null,
      "from": "0xe6A7a1d47ff21B6321162AEA7C6CB457D5476Bca",
      "gasPrice": {
        "_hex": "0xd307d0750"
      },
      "gasLimit": {
        "_hex": "0x55f0"
      },
      "to": "0x047fF53dFE1F7BD2c3Ed2D1f777F35D1f64e9ffE",
      "value": {
        "_hex": "0x3341d5c6ee6afdec"
      },
      "nonce": 599,
      "data": "0x",
      "r": "0x0e5854e973b19844b23395f81be82a86ace5ee064314b5157fc75912f470b7b2",
      "s": "0x4cdeb735adb8811a932e374adb55ec7f794d55285ca1a1175a0ad2f624d95cb5",
      "v": 28,
      "creates": null,
      "raw": "0xf86e820257850d307d07508255f094047ff53dfe1f7bd2c3ed2d1f777f35d1f64e9ffe883341d5c6ee6afdec801ca00e5854e973b19844b23395f81be82a86ace5ee064314b5157fc75912f470b7b2a04cdeb735adb8811a932e374adb55ec7f794d55285ca1a1175a0ad2f624d95cb5",
      "networkId": 0,
      "chainId": 0
    },
    {
      "hash": "0x2fc73258a5024cf7bfe07557b4c11566d367d89839c9167c27ce067be501ec68",
      "blockHash": "0xc6f0712cb346e198176a8f0377e28ce7dc88b31512d96275a21eeff01e923aa2",
      "blockNumber": 69271,
      "transactionIndex": 10,
      "confirmations": null,
      "from": "0xe6A7a1d47ff21B6321162AEA7C6CB457D5476Bca",
      "gasPrice": {
        "_hex": "0xd307d0750"
      },
      "gasLimit": {
        "_hex": "0x55f0"
      },
      "to": "0x4C84686094c69469502847D76a8190f3CD9e921c",
      "value": {
        "_hex": "0x337e1a59a84023ec"
      },
      "nonce": 600,
      "data": "0x",
      "r": "0xbae064d77c226776dda67b4feb9a31a4903a4ef6e80be1fe82d29b23b9fb8925",
      "s": "0x3c04c9b7b1c52b36d0008f2ec5b0edef0050d510e97f445b9bc2801c187e4d06",
      "v": 28,
      "creates": null,
      "raw": "0xf86e820258850d307d07508255f0944c84686094c69469502847d76a8190f3cd9e921c88337e1a59a84023ec801ca0bae064d77c226776dda67b4feb9a31a4903a4ef6e80be1fe82d29b23b9fb8925a03c04c9b7b1c52b36d0008f2ec5b0edef0050d510e97f445b9bc2801c187e4d06",
      "networkId": 0,
      "chainId": 0
    },
    {
      "hash": "0x39945ea374052745e561fe18262cfb60f4e4a002543740177bed5411850f6720",
      "blockHash": "0xc6f0712cb346e198176a8f0377e28ce7dc88b31512d96275a21eeff01e923aa2",
      "blockNumber": 69271,
      "transactionIndex": 11,
      "confirmations": null,
      "from": "0xe6A7a1d47ff21B6321162AEA7C6CB457D5476Bca",
      "gasPrice": {
        "_hex": "0xd307d0750"
      },
      "gasLimit": {
        "_hex": "0x55f0"
      },
      "to": "0xAD8c7FBFaBC46C35aDb03F7b3A67e731E5793899",
      "value": {
        "_hex": "0x3395848d2f5f4380"
      },
      "nonce": 601,
      "data": "0x",
      "r": "0x947c2e4bd7abdcbe01117fb919ca77243772f14995da9bd86fd6414d564c81df",
      "s": "0x5ba21879ba4f0b3a142e069c702ccfca1d264297d531af388d70722b3361a4bb",
      "v": 28,
      "creates": null,
      "raw": "0xf86e820259850d307d07508255f094ad8c7fbfabc46c35adb03f7b3a67e731e5793899883395848d2f5f4380801ca0947c2e4bd7abdcbe01117fb919ca77243772f14995da9bd86fd6414d564c81dfa05ba21879ba4f0b3a142e069c702ccfca1d264297d531af388d70722b3361a4bb",
      "networkId": 0,
      "chainId": 0
    },
    {
      "hash": "0xd54625bc51e14b794c9af89d8e402475ccdc635dc05acd2d3f53eeea687ed90a",
      "blockHash": "0xc6f0712cb346e198176a8f0377e28ce7dc88b31512d96275a21eeff01e923aa2",
      "blockNumber": 69271,
      "transactionIndex": 12,
      "confirmations": null,
      "from": "0xe6A7a1d47ff21B6321162AEA7C6CB457D5476Bca",
      "gasPrice": {
        "_hex": "0xd307d0750"
      },
      "gasLimit": {
        "_hex": "0x55f0"
      },
      "to": "0x6c341709A69F0D286ff289986ECd928bb3a51B7A",
      "value": {
        "_hex": "0x33c60b5ec973ec2c"
      },
      "nonce": 602,
      "data": "0x",
      "r": "0x9c28580f72d6489c37685d485ac0a3ed5f5c55c006b50d1045ee8d962985b24f",
      "s": "0x238462701af7be2c83c0266afa3c2a5711072611228489f9d3c7c82f30cb3b46",
      "v": 28,
      "creates": null,
      "raw": "0xf86e82025a850d307d07508255f0946c341709a69f0d286ff289986ecd928bb3a51b7a8833c60b5ec973ec2c801ca09c28580f72d6489c37685d485ac0a3ed5f5c55c006b50d1045ee8d962985b24fa0238462701af7be2c83c0266afa3c2a5711072611228489f9d3c7c82f30cb3b46",
      "networkId": 0,
      "chainId": 0
    },
    {
      "hash": "0xe52144179e6bb29e5ca63ec002ac902fbde097da8ab953042f8a8a90879a1df1",
      "blockHash": "0xc6f0712cb346e198176a8f0377e28ce7dc88b31512d96275a21eeff01e923aa2",
      "blockNumber": 69271,
      "transactionIndex": 13,
      "confirmations": null,
      "from": "0xe6A7a1d47ff21B6321162AEA7C6CB457D5476Bca",
      "gasPrice": {
        "_hex": "0xd307d0750"
      },
      "gasLimit": {
        "_hex": "0x55f0"
      },
      "to": "0x4bA6C728e6251DC89C317f7dbCA89D4136C0baB0",
      "value": {
        "_hex": "0x3432b97d2825e480"
      },
      "nonce": 603,
      "data": "0x",
      "r": "0x8ded91f0eda50a4c2ad062f5c6af2be8d04e2a0d8636d34e438f179bca4a0ba9",
      "s": "0x712ffd9961ac375b7190304d849cb386cb6461b56da116a3e5ce330dccc91f87",
      "v": 28,
      "creates": null,
      "raw": "0xf86e82025b850d307d07508255f0944ba6c728e6251dc89c317f7dbca89d4136c0bab0883432b97d2825e480801ca08ded91f0eda50a4c2ad062f5c6af2be8d04e2a0d8636d34e438f179bca4a0ba9a0712ffd9961ac375b7190304d849cb386cb6461b56da116a3e5ce330dccc91f87",
      "networkId": 0,
      "chainId": 0
    },
    {
      "hash": "0x6583e8dc69652264fcf1af374aa364320f76a9da4c6f8e72b4dd9bcf6b413b66",
      "blockHash": "0xc6f0712cb346e198176a8f0377e28ce7dc88b31512d96275a21eeff01e923aa2",
      "blockNumber": 69271,
      "transactionIndex": 14,
      "confirmations": null,
      "from": "0xe6A7a1d47ff21B6321162AEA7C6CB457D5476Bca",
      "gasPrice": {
        "_hex": "0xd307d0750"
      },
      "gasLimit": {
        "_hex": "0x55f0"
      },
      "to": "0x3fe698DDd00ce16bFb0F2B875D29Cf6B91eB677d",
      "value": {
        "_hex": "0x3453b286c6c473e0"
      },
      "nonce": 604,
      "data": "0x",
      "r": "0x6d429364c8439cfbe93054cd8dc4b7c462aa00a15119019276df4b8bd414e30c",
      "s": "0x6f5741c468b3f0778b73b036d64f5b43d6f8c43aa082d62437ae495751dc617b",
      "v": 28,
      "creates": null,
      "raw": "0xf86e82025c850d307d07508255f0943fe698ddd00ce16bfb0f2b875d29cf6b91eb677d883453b286c6c473e0801ca06d429364c8439cfbe93054cd8dc4b7c462aa00a15119019276df4b8bd414e30ca06f5741c468b3f0778b73b036d64f5b43d6f8c43aa082d62437ae495751dc617b",
      "networkId": 0,
      "chainId": 0
    },
    {
      "hash": "0xace90b8495bc7ca3d09342bf3368d4b0a72b0a03be2f66b500ef6e52f589abe6",
      "blockHash": "0xc6f0712cb346e198176a8f0377e28ce7dc88b31512d96275a21eeff01e923aa2",
      "blockNumber": 69271,
      "transactionIndex": 15,
      "confirmations": null,
      "from": "0xe6A7a1d47ff21B6321162AEA7C6CB457D5476Bca",
      "gasPrice": {
        "_hex": "0xd307d0750"
      },
      "gasLimit": {
        "_hex": "0x55f0"
      },
      "to": "0x051219f568c86EA6DD6Dd2cC8052c31504F33d44",
      "value": {
        "_hex": "0x360bb18b1dd54788"
      },
      "nonce": 605,
      "data": "0x",
      "r": "0x0e7f844393e654c7f454013982458004be3774626c8ef612c4b1ef7ed8ca6f46",
      "s": "0x2bc74825e149702b2c9954daa7d2067f00a7bbbf346cf8160244382dc6908c22",
      "v": 28,
      "creates": null,
      "raw": "0xf86e82025d850d307d07508255f094051219f568c86ea6dd6dd2cc8052c31504f33d4488360bb18b1dd54788801ca00e7f844393e654c7f454013982458004be3774626c8ef612c4b1ef7ed8ca6f46a02bc74825e149702b2c9954daa7d2067f00a7bbbf346cf8160244382dc6908c22",
      "networkId": 0,
      "chainId": 0
    },
    {
      "hash": "0xd469497b9ce5e43fde0cfd356c1cd3253061530e87628c5d562ef97e5354d164",
      "blockHash": "0xc6f0712cb346e198176a8f0377e28ce7dc88b31512d96275a21eeff01e923aa2",
      "blockNumber": 69271,
      "transactionIndex": 16,
      "confirmations": null,
      "from": "0xe6A7a1d47ff21B6321162AEA7C6CB457D5476Bca",
      "gasPrice": {
        "_hex": "0xd307d0750"
      },
      "gasLimit": {
        "_hex": "0x55f0"
      },
      "to": "0x77e41B4125b7c14757e0f07fE36b2E95db757a10",
      "value": {
        "_hex": "0x36b1646fdbc36ff8"
      },
      "nonce": 606,
      "data": "0x",
      "r": "0xb536ffb7d1b67ca91b13864f357f8c76956a68bbba85602dfb6588bf8906d790",
      "s": "0x6b049383abe54e699021e9389aabebdd90d964461b88c3818b2dde6dbe218901",
      "v": 28,
      "creates": null,
      "raw": "0xf86e82025e850d307d07508255f09477e41b4125b7c14757e0f07fe36b2e95db757a108836b1646fdbc36ff8801ca0b536ffb7d1b67ca91b13864f357f8c76956a68bbba85602dfb6588bf8906d790a06b049383abe54e699021e9389aabebdd90d964461b88c3818b2dde6dbe218901",
      "networkId": 0,
      "chainId": 0
    },
    {
      "hash": "0x3142d20a32c4897c682e52c7af0922b117c7b3639c40a080dc3de7320ad80dfd",
      "blockHash": "0xc6f0712cb346e198176a8f0377e28ce7dc88b31512d96275a21eeff01e923aa2",
      "blockNumber": 69271,
      "transactionIndex": 17,
      "confirmations": null,
      "from": "0xe6A7a1d47ff21B6321162AEA7C6CB457D5476Bca",
      "gasPrice": {
        "_hex": "0xd307d0750"
      },
      "gasLimit": {
        "_hex": "0x55f0"
      },
      "to": "0xB1A4B41b8e75a153841c99c62d18588d45e7b406",
      "value": {
        "_hex": "0x38275d5669738cd8"
      },
      "nonce": 607,
      "data": "0x",
      "r": "0x49a9c79c978bddb69c81378b2e5b84fb7269b4c26aef41dbef70174683c11d4a",
      "s": "0x4b5113bb1bd506585fb071e8236d8fb00053083590e9ae1e9148500171bf4e27",
      "v": 28,
      "creates": null,
      "raw": "0xf86e82025f850d307d07508255f094b1a4b41b8e75a153841c99c62d18588d45e7b4068838275d5669738cd8801ca049a9c79c978bddb69c81378b2e5b84fb7269b4c26aef41dbef70174683c11d4aa04b5113bb1bd506585fb071e8236d8fb00053083590e9ae1e9148500171bf4e27",
      "networkId": 0,
      "chainId": 0
    },
    {
      "hash": "0x544558373c0c513d10a5b798ad46bc276dbf66e2ddd50619188dbe5f8262f3ad",
      "blockHash": "0xc6f0712cb346e198176a8f0377e28ce7dc88b31512d96275a21eeff01e923aa2",
      "blockNumber": 69271,
      "transactionIndex": 18,
      "confirmations": null,
      "from": "0xe6A7a1d47ff21B6321162AEA7C6CB457D5476Bca",
      "gasPrice": {
        "_hex": "0xd307d0750"
      },
      "gasLimit": {
        "_hex": "0x55f0"
      },
      "to": "0xB415e74b9b5B2058EF3541265aaF7ce09C4953bc",
      "value": {
        "_hex": "0x3a2895fae0461738"
      },
      "nonce": 608,
      "data": "0x",
      "r": "0x49884f02f17f60a7e6a93bb58830a085c1754f0b9aec29f19c09a841c00ea7a8",
      "s": "0x093efc9527b716f5a51dd195856dd7e8c31faa0f6752a26e2423ed872ff42cff",
      "v": 27,
      "creates": null,
      "raw": "0xf86e820260850d307d07508255f094b415e74b9b5b2058ef3541265aaf7ce09c4953bc883a2895fae0461738801ba049884f02f17f60a7e6a93bb58830a085c1754f0b9aec29f19c09a841c00ea7a8a0093efc9527b716f5a51dd195856dd7e8c31faa0f6752a26e2423ed872ff42cff",
      "networkId": 0,
      "chainId": 0
    },
    {
      "hash": "0x9d0524324b561c2da3bde2b56fceec843d4fb224c71bb9098330b83b75c276c7",
      "blockHash": "0xc6f0712cb346e198176a8f0377e28ce7dc88b31512d96275a21eeff01e923aa2",
      "blockNumber": 69271,
      "transactionIndex": 19,
      "confirmations": null,
      "from": "0xe6A7a1d47ff21B6321162AEA7C6CB457D5476Bca",
      "gasPrice": {
        "_hex": "0xd307d0750"
      },
      "gasLimit": {
        "_hex": "0x55f0"
      },
      "to": "0x2b176421eEBBf303fa94aD4fE78362Fa9e4Ca693",
      "value": {
        "_hex": "0x3c329ad4ada365c0"
      },
      "nonce": 609,
      "data": "0x",
      "r": "0x764c7ea2071b1c1c2d8f2ccc3a93919d00eecb0fba0850e823a3f7fa056da80d",
      "s": "0x6b76abfff5bd700a94cf6c67d14684949f13b2588094da659d08facfcb794534",
      "v": 27,
      "creates": null,
      "raw": "0xf86e820261850d307d07508255f0942b176421eebbf303fa94ad4fe78362fa9e4ca693883c329ad4ada365c0801ba0764c7ea2071b1c1c2d8f2ccc3a93919d00eecb0fba0850e823a3f7fa056da80da06b76abfff5bd700a94cf6c67d14684949f13b2588094da659d08facfcb794534",
      "networkId": 0,
      "chainId": 0
    },
    {
      "hash": "0xa97a1a85722b0278fd17611d0fac390903db301a5758e346354fb795db952994",
      "blockHash": "0xc6f0712cb346e198176a8f0377e28ce7dc88b31512d96275a21eeff01e923aa2",
      "blockNumber": 69271,
      "transactionIndex": 20,
      "confirmations": null,
      "from": "0xe6A7a1d47ff21B6321162AEA7C6CB457D5476Bca",
      "gasPrice": {
        "_hex": "0xd307d0750"
      },
      "gasLimit": {
        "_hex": "0x55f0"
      },
      "to": "0xBe750c24427887537FBc1E67Ed096a59dF3a4cC4",
      "value": {
        "_hex": "0x3f31f4e4fcaa1968"
      },
      "nonce": 610,
      "data": "0x",
      "r": "0x04804addc0f38a4a8a76fab7d05ba312d8a081d8592a22d4c0624b01d9698713",
      "s": "0x1dd1842c9c337611c27da5b895433d41d683f4a3da3c25d2e4717ae9181f3038",
      "v": 27,
      "creates": null,
      "raw": "0xf86e820262850d307d07508255f094be750c24427887537fbc1e67ed096a59df3a4cc4883f31f4e4fcaa1968801ba004804addc0f38a4a8a76fab7d05ba312d8a081d8592a22d4c0624b01d9698713a01dd1842c9c337611c27da5b895433d41d683f4a3da3c25d2e4717ae9181f3038",
      "networkId": 0,
      "chainId": 0
    },
    {
      "hash": "0x35561055ea9afb51411a7dddca61e52444de625261de04123551979fb35ff585",
      "blockHash": "0xc6f0712cb346e198176a8f0377e28ce7dc88b31512d96275a21eeff01e923aa2",
      "blockNumber": 69271,
      "transactionIndex": 21,
      "confirmations": null,
      "from": "0xe6A7a1d47ff21B6321162AEA7C6CB457D5476Bca",
      "gasPrice": {
        "_hex": "0xd307d0750"
      },
      "gasLimit": {
        "_hex": "0x55f0"
      },
      "to": "0xbb30e448B72d6Fdd44973A4C7a312F92f22C8F07",
      "value": {
        "_hex": "0x3f8b40cdca4a6278"
      },
      "nonce": 611,
      "data": "0x",
      "r": "0x94fac9aafe7158b6a2a8c74413f252991d8c27c7c5e2e5ded9502c0f77165624",
      "s": "0x2daed915fb144dfcb47a6f070a84a9c1acec7f7810fce97d89e181fea404dc42",
      "v": 28,
      "creates": null,
      "raw": "0xf86e820263850d307d07508255f094bb30e448b72d6fdd44973a4c7a312f92f22c8f07883f8b40cdca4a6278801ca094fac9aafe7158b6a2a8c74413f252991d8c27c7c5e2e5ded9502c0f77165624a02daed915fb144dfcb47a6f070a84a9c1acec7f7810fce97d89e181fea404dc42",
      "networkId": 0,
      "chainId": 0
    },
    {
      "hash": "0x2fa7ae93f17083c1b5730ac07e1e8e7d4611f54029f83c087a36f222a4982f25",
      "blockHash": "0xc6f0712cb346e198176a8f0377e28ce7dc88b31512d96275a21eeff01e923aa2",
      "blockNumber": 69271,
      "transactionIndex": 22,
      "confirmations": null,
      "from": "0xe6A7a1d47ff21B6321162AEA7C6CB457D5476Bca",
      "gasPrice": {
        "_hex": "0xd307d0750"
      },
      "gasLimit": {
        "_hex": "0x55f0"
      },
      "to": "0xacc8dECDFDCbed202B8632947c60487494F5D2c7",
      "value": {
        "_hex": "0x4054d3e86db9c2d8"
      },
      "nonce": 612,
      "data": "0x",
      "r": "0x93b5b4e0c51f994b1226f275b17895c7c37e5359b101bbdf80937d9c726ab134",
      "s": "0x1197a732b758c5c21f487be01e349a98919c3d785e5f1d5ff71ece58785a1773",
      "v": 28,
      "creates": null,
      "raw": "0xf86e820264850d307d07508255f094acc8decdfdcbed202b8632947c60487494f5d2c7884054d3e86db9c2d8801ca093b5b4e0c51f994b1226f275b17895c7c37e5359b101bbdf80937d9c726ab134a01197a732b758c5c21f487be01e349a98919c3d785e5f1d5ff71ece58785a1773",
      "networkId": 0,
      "chainId": 0
    },
    {
      "hash": "0x8db74f5b88de6dba0bd8ea68603d8420068b9ebdad0704d21b9d93fad261572c",
      "blockHash": "0xc6f0712cb346e198176a8f0377e28ce7dc88b31512d96275a21eeff01e923aa2",
      "blockNumber": 69271,
      "transactionIndex": 23,
      "confirmations": null,
      "from": "0xe6A7a1d47ff21B6321162AEA7C6CB457D5476Bca",
      "gasPrice": {
        "_hex": "0xd307d0750"
      },
      "gasLimit": {
        "_hex": "0x55f0"
      },
      "to": "0xC8E61bFB4846B622B084B98Bc586388aFCb70d5F",
      "value": {
        "_hex": "0x40d589095bca3c68"
      },
      "nonce": 613,
      "data": "0x",
      "r": "0xb8fa309bb927854caffbe7a96054ffd35e28c39512adc1437e8181b49da4d398",
      "s": "0x74c37922ae90ea8c91aca3437ae4c52dd7f16bd50ff964f8837806861155214b",
      "v": 27,
      "creates": null,
      "raw": "0xf86e820265850d307d07508255f094c8e61bfb4846b622b084b98bc586388afcb70d5f8840d589095bca3c68801ba0b8fa309bb927854caffbe7a96054ffd35e28c39512adc1437e8181b49da4d398a074c37922ae90ea8c91aca3437ae4c52dd7f16bd50ff964f8837806861155214b",
      "networkId": 0,
      "chainId": 0
    },
    {
      "hash": "0x1cf011f63feb478c22e8b9188f5c61a76d7fa3941791b13071e5fe346d6b31e4",
      "blockHash": "0xc6f0712cb346e198176a8f0377e28ce7dc88b31512d96275a21eeff01e923aa2",
      "blockNumber": 69271,
      "transactionIndex": 24,
      "confirmations": null,
      "from": "0xe6A7a1d47ff21B6321162AEA7C6CB457D5476Bca",
      "gasPrice": {
        "_hex": "0xd307d0750"
      },
      "gasLimit": {
        "_hex": "0x55f0"
      },
      "to": "0xBf7d5E6CD66bc79d7759B640cbe188bCFA030cc4",
      "value": {
        "_hex": "0x4210f33b48891e20"
      },
      "nonce": 614,
      "data": "0x",
      "r": "0x34c6a9f65abda684b30e070a7dc061462e16bcc3b5149b2dfa9de2b9200fb0da",
      "s": "0x0c580c62fe71d70223cbe62b3ba7b133c82a6845ae7f9a5ccc88050e16cd5ce2",
      "v": 27,
      "creates": null,
      "raw": "0xf86e820266850d307d07508255f094bf7d5e6cd66bc79d7759b640cbe188bcfa030cc4884210f33b48891e20801ba034c6a9f65abda684b30e070a7dc061462e16bcc3b5149b2dfa9de2b9200fb0daa00c580c62fe71d70223cbe62b3ba7b133c82a6845ae7f9a5ccc88050e16cd5ce2",
      "networkId": 0,
      "chainId": 0
    },
    {
      "hash": "0x487cbc1669b220480b438c0de91e02094f183857c838d61c08ba8b421489280a",
      "blockHash": "0xc6f0712cb346e198176a8f0377e28ce7dc88b31512d96275a21eeff01e923aa2",
      "blockNumber": 69271,
      "transactionIndex": 25,
      "confirmations": null,
      "from": "0xe6A7a1d47ff21B6321162AEA7C6CB457D5476Bca",
      "gasPrice": {
        "_hex": "0xd307d0750"
      },
      "gasLimit": {
        "_hex": "0x55f0"
      },
      "to": "0x1c69e6202df7794272b70FaEa8f7408c856B1f08",
      "value": {
        "_hex": "0x42251fd23da4f8a8"
      },
      "nonce": 615,
      "data": "0x",
      "r": "0x81ef7bdebb99346d37aa2d2be9f79471fd4755368e452e753092edef33c91a73",
      "s": "0x1001e309f25b7bfe2a59ea7d798865c9025c109d96f4858e1447b1ad486fa1c9",
      "v": 28,
      "creates": null,
      "raw": "0xf86e820267850d307d07508255f0941c69e6202df7794272b70faea8f7408c856b1f088842251fd23da4f8a8801ca081ef7bdebb99346d37aa2d2be9f79471fd4755368e452e753092edef33c91a73a01001e309f25b7bfe2a59ea7d798865c9025c109d96f4858e1447b1ad486fa1c9",
      "networkId": 0,
      "chainId": 0
    },
    {
      "hash": "0xbefe768254dcd3dbf8211396967573368c7f89099d449bb532326465745bf1e0",
      "blockHash": "0xc6f0712cb346e198176a8f0377e28ce7dc88b31512d96275a21eeff01e923aa2",
      "blockNumber": 69271,
      "transactionIndex": 26,
      "confirmations": null,
      "from": "0xe6A7a1d47ff21B6321162AEA7C6CB457D5476Bca",
      "gasPrice": {
        "_hex": "0xd307d0750"
      },
      "gasLimit": {
        "_hex": "0x55f0"
      },
      "to": "0xE35c3cdA59d0E88E0d76F72Ea199f224C7D499ad",
      "value": {
        "_hex": "0x4297e4cf5ba92dd0"
      },
      "nonce": 616,
      "data": "0x",
      "r": "0x8218fb27b857a8f1273653f69bfe14ac2c0ff3d8908c564d7b2b77722840a96c",
      "s": "0x607470686d281b9191f3de19d14ae03f31a20a2669b39795c4c56007cbabd271",
      "v": 27,
      "creates": null,
      "raw": "0xf86e820268850d307d07508255f094e35c3cda59d0e88e0d76f72ea199f224c7d499ad884297e4cf5ba92dd0801ba08218fb27b857a8f1273653f69bfe14ac2c0ff3d8908c564d7b2b77722840a96ca0607470686d281b9191f3de19d14ae03f31a20a2669b39795c4c56007cbabd271",
      "networkId": 0,
      "chainId": 0
    },
    {
      "hash": "0xc8bde735b13428bd977a2a7d0dc31a5f086dbe5417a97fc19761e239383eb3bc",
      "blockHash": "0xc6f0712cb346e198176a8f0377e28ce7dc88b31512d96275a21eeff01e923aa2",
      "blockNumber": 69271,
      "transactionIndex": 27,
      "confirmations": null,
      "from": "0xe6A7a1d47ff21B6321162AEA7C6CB457D5476Bca",
      "gasPrice": {
        "_hex": "0xd307d0750"
      },
      "gasLimit": {
        "_hex": "0x55f0"
      },
      "to": "0xb4eb03c9bDD4944DE22085E8e1dB5Ebd36889Bd8",
      "value": {
        "_hex": "0x43b9a7b89cb8c190"
      },
      "nonce": 617,
      "data": "0x",
      "r": "0xb439a586d06520e72aec32f0e860e479c4ed4c5adc7b85e445eee5c6116861d5",
      "s": "0x4f7814aafb11f81798fcd635ecaf0f0a3ee15ff3a9a7ffef343f5d81c4536479",
      "v": 27,
      "creates": null,
      "raw": "0xf86e820269850d307d07508255f094b4eb03c9bdd4944de22085e8e1db5ebd36889bd88843b9a7b89cb8c190801ba0b439a586d06520e72aec32f0e860e479c4ed4c5adc7b85e445eee5c6116861d5a04f7814aafb11f81798fcd635ecaf0f0a3ee15ff3a9a7ffef343f5d81c4536479",
      "networkId": 0,
      "chainId": 0
    },
    {
      "hash": "0x6334654b23d92bd646fc77e21c9f54e9d99afbced7a2d8bb4eaee7edf01d8c8a",
      "blockHash": "0xc6f0712cb346e198176a8f0377e28ce7dc88b31512d96275a21eeff01e923aa2",
      "blockNumber": 69271,
      "transactionIndex": 28,
      "confirmations": null,
      "from": "0xe6A7a1d47ff21B6321162AEA7C6CB457D5476Bca",
      "gasPrice": {
        "_hex": "0xd307d0750"
      },
      "gasLimit": {
        "_hex": "0x55f0"
      },
      "to": "0x4873313Ba85B8127aF35C5c73433720FC90ba4Fe",
      "value": {
        "_hex": "0x43cdc019a48ae2a8"
      },
      "nonce": 618,
      "data": "0x",
      "r": "0x121ce0744a1324cf0174858325709eaebe5049603aaf5b2eb11d0359d742ae4f",
      "s": "0x5a5d5eab5cb8d3aa33ad7bbd65e7b662a5dd85f77671c96e08040c3cb9c194b4",
      "v": 28,
      "creates": null,
      "raw": "0xf86e82026a850d307d07508255f0944873313ba85b8127af35c5c73433720fc90ba4fe8843cdc019a48ae2a8801ca0121ce0744a1324cf0174858325709eaebe5049603aaf5b2eb11d0359d742ae4fa05a5d5eab5cb8d3aa33ad7bbd65e7b662a5dd85f77671c96e08040c3cb9c194b4",
      "networkId": 0,
      "chainId": 0
    },
    {
      "hash": "0xe24ce5d8f0b71dfd0106e400ac731fd66216d30e1f63c6eb5bcd6de7c4420f25",
      "blockHash": "0xc6f0712cb346e198176a8f0377e28ce7dc88b31512d96275a21eeff01e923aa2",
      "blockNumber": 69271,
      "transactionIndex": 29,
      "confirmations": null,
      "from": "0xe6A7a1d47ff21B6321162AEA7C6CB457D5476Bca",
      "gasPrice": {
        "_hex": "0xd307d0750"
      },
      "gasLimit": {
        "_hex": "0x55f0"
      },
      "to": "0xeF0a7407D5b9AF9fA9f38f67aBB66d20686afb55",
      "value": {
        "_hex": "0x4526f19d17200f28"
      },
      "nonce": 619,
      "data": "0x",
      "r": "0x04abfda1257d3ff6d103c5cf4d0429978a054941de444ee8b52917f30f45d0df",
      "s": "0x3a7d389e96ece4d41cf55c49329d44b6ab27bb99cbf1093f98e98e02e83a83e8",
      "v": 28,
      "creates": null,
      "raw": "0xf86e82026b850d307d07508255f094ef0a7407d5b9af9fa9f38f67abb66d20686afb55884526f19d17200f28801ca004abfda1257d3ff6d103c5cf4d0429978a054941de444ee8b52917f30f45d0dfa03a7d389e96ece4d41cf55c49329d44b6ab27bb99cbf1093f98e98e02e83a83e8",
      "networkId": 0,
      "chainId": 0
    },
    {
      "hash": "0x7ee602da97564a8e570f12a37f4bcf560606a070f179fd469dd23064fc944cf6",
      "blockHash": "0xc6f0712cb346e198176a8f0377e28ce7dc88b31512d96275a21eeff01e923aa2",
      "blockNumber": 69271,
      "transactionIndex": 30,
      "confirmations": null,
      "from": "0xe6A7a1d47ff21B6321162AEA7C6CB457D5476Bca",
      "gasPrice": {
        "_hex": "0xd307d0750"
      },
      "gasLimit": {
        "_hex": "0x55f0"
      },
      "to": "0xeCdf9d571849dE520c84eBEd7Ac4551e483eA5b3",
      "value": {
        "_hex": "0x459747ab3ae8d9d8"
      },
      "nonce": 620,
      "data": "0x",
      "r": "0x4794222f73bf9f1233d4f20898ed81980f62678e7ec82126aea4fa6ebd925ed7",
      "s": "0x033acc653f0c74abada34ae58e1c35f6f789d97018fdfc906d26a6e961ecb972",
      "v": 28,
      "creates": null,
      "raw": "0xf86e82026c850d307d07508255f094ecdf9d571849de520c84ebed7ac4551e483ea5b388459747ab3ae8d9d8801ca04794222f73bf9f1233d4f20898ed81980f62678e7ec82126aea4fa6ebd925ed7a0033acc653f0c74abada34ae58e1c35f6f789d97018fdfc906d26a6e961ecb972",
      "networkId": 0,
      "chainId": 0
    },
    {
      "hash": "0xfa95757283cbdd3416999ef541089b56baead315d609e54e7c5f446fdb4e9894",
      "blockHash": "0xc6f0712cb346e198176a8f0377e28ce7dc88b31512d96275a21eeff01e923aa2",
      "blockNumber": 69271,
      "transactionIndex": 31,
      "confirmations": null,
      "from": "0xe6A7a1d47ff21B6321162AEA7C6CB457D5476Bca",
      "gasPrice": {
        "_hex": "0xd307d0750"
      },
      "gasLimit": {
        "_hex": "0x55f0"
      },
      "to": "0xe72717ae0d6792286968449ABA7d469BCAE1d957",
      "value": {
        "_hex": "0x4aa67f7c0fe98a80"
      },
      "nonce": 621,
      "data": "0x",
      "r": "0x03f1260a005f86779db6d434e5427f57199cf13d72d3e4687dc976979fbcd84d",
      "s": "0x618d24c186da02fc7ea6dc35c6446c61e9115338ad1e1cbbd09d4f27411fdeae",
      "v": 27,
      "creates": null,
      "raw": "0xf86e82026d850d307d07508255f094e72717ae0d6792286968449aba7d469bcae1d957884aa67f7c0fe98a80801ba003f1260a005f86779db6d434e5427f57199cf13d72d3e4687dc976979fbcd84da0618d24c186da02fc7ea6dc35c6446c61e9115338ad1e1cbbd09d4f27411fdeae",
      "networkId": 0,
      "chainId": 0
    }
  ]
}