{
  "hash": "0xd1c4ce5abf7eedc26e74d2c98d186a1808a389aa14f9ff8cd3bc79de11ad4004",
  "parentHash": "0x0592245b823bfbf4d9249de35b4343b53c9acb61973f61a78832d114a16497cd",
  "number": 121526,
  "timestamp": 1440178347,
  "nonce": "0xea44283cf2144249",
  "difficulty": 4462526688133,
  "gasLimit": {
    "_hex": "0x2fefd8"
  },
  "gasUsed": {
    "_hex": "0x5208"
  },
  "miner": "0x52bc44d5378309EE2abF1539BF71dE1b7d7bE3b5",
  "extraData": "0xd783010002844765746887676f312e342e32856c696e7578",
  "transactions": [
    {
      "hash": "0xae41b83f7624bd94f0d27226cb8ce7b856c25b91bd4ba265566a72fbfb168161",
      "blockHash": "0xd1c4ce5abf7eedc26e74d2c98d186a1808a389aa14f9ff8cd3bc79de11ad4004",
      "blockNumber": 121526,
      "transactionIndex": 0,
      "confirmations": null,
      "from": "0xD131c1F369abE12721E4EEc92A1e16f03458B542",
      "gasPrice": {
        "_hex": "0xba43b7400"
      },
      "gasLimit": {
        "_hex": "0x15f90"
      },
      "to": "0x4B5C8DDb3Ba75912c33F9B2e3300655a2FBf44aC",
      "value": {
        "_hex": "0x6f05b59d3b20000"
      },
      "nonce": 2,
      "data": "0x",
      "r": "0x0361bf3b2d203d1c51f7d8329a44f35e516c03dc1e608a219002ea4e4d557854",
      "s": "0x3e17452a0796d2c725aabf3495b8f0482fb84c9cf7142b884d474993da0bdc37",
      "v": 27,
      "creates": null,
      "raw": "0xf86d02850ba43b740083015f90944b5c8ddb3ba75912c33f9b2e3300655a2fbf44ac8806f05b59d3b20000801ba00361bf3b2d203d1c51f7d8329a44f35e516c03dc1e608a219002ea4e4d557854a03e17452a0796d2c725aabf3495b8f0482fb84c9cf7142b884d474993da0bdc37",
      "networkId": 0,
      "chainId": 0
    }
  ]
}