{
  "hash": "0x95599db08911905adf2b30de627a7688518f7edcf9e6d423f10f57b0072a3321",
  "parentHash": "0x0509242a1a5a61aad8ec51f32ab6bbd52c9341cd0c801a6c925570a03cc7de2f",
  "number": 106049,
  "timestamp": 1439897777,
  "nonce": "0x05c790b0f3474619",
  "difficulty": 4468585201172,
  "gasLimit": {
    "_hex": "0x2fefd8"
  },
  "gasUsed": {
    "_hex": "0x1b497"
  },
  "miner": "0xC603Ab5ef41fC61AA8b76bEddb09e3Cfcbb174BD",
  "extraData": "0x476574682f76312e302e312f77696e646f77732f676f312e342e32",
  "transactions": [
    {
      "hash": "0xbe6f4bdc81ea0ec2876a0039bcfb21db721f249fe3612aea47f111c4586b6a0b",
      "blockHash": "0x95599db08911905adf2b30de627a7688518f7edcf9e6d423f10f57b0072a3321",
      "blockNumber": 106049,
      "transactionIndex": 0,
      "confirmations": null,
      "from": "0x87C5B5874A18B4306DF8a752a6C8cc3E82daFc19",
      "gasPrice": {
        "_hex": "0xff1b180a3f"
      },
      "gasLimit": {
        "_hex": "0x493e0"
      },
      "to": "0xD79B4C6791784184e2755B2fC1659eaaB0f80456",
      "value": {
        "_hex": "0x12804f1d82ca9cf0"
      },
      "nonce": 336,
      "data": "0x8d2161860000000000000000000000000000000000000000000000000000000000000007d3d96ceed0cfca4794c2a5a3d3aeefe69da0a2a669e66a5651f30b64831c3db0",
      "r": "0xc0c38a68ac66a42d94c4aa4240e322a0df6006d22ba1eaab1de32d822b4b2d04",
      "s": "0x32bb3ced5191313c8a75b3471688c48d262c8a58ffa6e8580e09fea02e020634",
      "v": 28,
      "creates": null,
      "raw": "0xf8b482015085ff1b180a3f830493e094d79b4c6791784184e2755b2fc1659eaab0f804568812804f1d82ca9cf0b8448d2161860000000000000000000000000000000000000000000000000000000000000007d3d96ceed0cfca4794c2a5a3d3aeefe69da0a2a669e66a5651f30b64831c3db01ca0c0c38a68ac66a42d94c4aa4240e322a0df6006d22ba1eaab1de32d822b4b2d04a032bb3ced5191313c8a75b3471688c48d262c8a58ffa6e8580e09fea02e020634",
      "networkId": 0,
      "chainId": 0
    }
  ]
}