{
  "hash": "0x39996cb763ed26d6d0129d671851199dbbfbee4140bb6a0ac4633dae8eeebf45",
  "parentHash": "0xae99e4e4634ed060f9dffc33c3ea72aad497ef3a26837c50ef8e8520c08eac26",
  "number": 79876,
  "timestamp": 1439476616,
  "nonce": "0xe221a90b61c9b145",
  "difficulty": 2349484092496,
  "gasLimit": {
    "_hex": "0x2fefd8"
  },
  "gasUsed": {
    "_hex": "0x5208"
  },
  "miner": "0xF2d2AfF1320476cb8C6b607199D23175cc595693",
  "extraData": "0x476574682f76312e302e312f77696e646f77732f676f312e342e32",
  "transactions": [
    {
      "hash": "0xd09eb53bedb911194fd87d97712ba2ff0506d6c45b57011ec6a8f9d6803b6382",
      "blockHash": "0x39996cb763ed26d6d0129d671851199dbbfbee4140bb6a0ac4633dae8eeebf45",
      "blockNumber": 79876,
      "transactionIndex": 0,
      "confirmations": null,
      "from": "0x2910543Af39abA0Cd09dBb2D50200b3E800A63D2",
      "gasPrice": {
        "_hex": "0xd532bd440"
      },
      "gasLimit": {
        "_hex": "0x5208"
      },
      "to": "0x90FC0178a3e98d06443273A8c15d7bb3b15541B8",
      "value": {
        "_hex": "0x1aa5ee000551280000"
      },
      "nonce": 377,
      "data": "0x",
      "r": "0xc42c4733044c45758d5256aac82c022a7bb08dd062f8c8ee9d21058460c78156",
      "s": "0x6e193abbf9fdff80d055d28341fc1f3836733e86487e3cd5f468ffedee76aed7",
      "v": 27,
      "creates": null,
      "raw": "0xf86f820179850d532bd4408252089490fc0178a3e98d06443273a8c15d7bb3b15541b8891aa5ee000551280000801ba0c42c4733044c45758d5256aac82c022a7bb08dd062f8c8ee9d21058460c78156a06e193abbf9fdff80d055d28341fc1f3836733e86487e3cd5f468ffedee76aed7",
      "networkId": 0,
      "chainId": 0
    }
  ]
}