{
  "hash": "0x3c944673b98e6d93952690a7a4b20b804d047c7ae6faf3dfaa61cbf82b4c8f25",
  "parentHash": "0x9705dc367162556b7a6447366a7eaf6f72d235625287b0907b89f1b537aa178c",
  "number": 80050,
  "timestamp": 1439479361,
  "nonce": "0xd777da93a52f60a6",
  "difficulty": 2349435359019,
  "gasLimit": {
    "_hex": "0x2fefd5"
  },
  "gasUsed": {
    "_hex": "0x5208"
  },
  "miner": "0xa6BDc31c431B8F97848c9D60cbbe9660dc450eB7",
  "extraData": "0x",
  "transactions": [
    {
      "hash": "0x821789742e82b2286da21b94da579a2f704ba5890478067e6936bbd8e6b6fc4c",
      "blockHash": "0x3c944673b98e6d93952690a7a4b20b804d047c7ae6faf3dfaa61cbf82b4c8f25",
      "blockNumber": 80050,
      "transactionIndex": 0,
      "confirmations": null,
      "from": "0x663555F143e6a4674c0FdF2e73f12fdaf5D51112",
      "gasPrice": {
        "_hex": "0xba43b7400"
      },
      "gasLimit": {
        "_hex": "0x5265"
      },
      "to": "0xc07082b0caEF1afaAA062CDae1c592c110B82aa5",
      "value": {
        "_hex": "0xde0b6b3a7640000"
      },
      "nonce": 0,
      "data": "0x",
      "r": "0x1cab21e666e011a99fed8212e5659e81c0a4b0b53d7fd094920f38cc2cca6df1",
      "s": "0x45eb9d1832ff6d4dbd438c8d1700beac725ce35c6fb8ed3fe84da2e968b009cb",
      "v": 27,
      "creates": null,
      "raw": "0xf86c80850ba43b740082526594c07082b0caef1afaaa062cdae1c592c110b82aa5880de0b6b3a7640000801ba01cab21e666e011a99fed8212e5659e81c0a4b0b53d7fd094920f38cc2cca6df1a045eb9d1832ff6d4dbd438c8d1700beac725ce35c6fb8ed3fe84da2e968b009cb",
      "networkId": 0,
      "chainId": 0
    }
  ]
}