{
  "hash": "0xaa4be12165a5f8cbbf8c761edd3b86f86f54109b6afa47586427beb28ab20fba",
  "parentHash": "0xf46bd9125ca52dcd6d7275a9905fe9fb7c9a0b92d4f400aa87c29c0f973d235d",
  "number": 117823,
  "timestamp": 1440115945,
  "nonce": "0x86d2ed1632cc3ce1",
  "difficulty": 4350442879813,
  "gasLimit": {
    "_hex": "0x2fefd8"
  },
  "gasUsed": {
    "_hex": "0x45618"
  },
  "miner": "0x17B719A685fC6C0002798e7f8151D0E2E83B7497",
  "extraData": "0x",
  "transactions": [
    {
      "hash": "0x558db5cf5f0fad5da0a47594cc47245defcab992c00e2594071ff05a4bbb75fd",
      "blockHash": "0xaa4be12165a5f8cbbf8c761edd3b86f86f54109b6afa47586427beb28ab20fba",
      "blockNumber": 117823,
      "transactionIndex": 0,
      "confirmations": null,
      "from": "0xdCB14605B0EE4F372D223e5DF87aa9e760886D01",
      "gasPrice": {
        "_hex": "0xba43b7400"
      },
      "gasLimit": {
        "_hex": "0x5208"
      },
      "to": "0x32Be343B94f860124dC4fEe278FDCBD38C102D88",
      "value": {
        "_hex": "0x12fa1df77b6968000"
      },
      "nonce": 12,
      "data": "0x",
      "r": "0x6a6766e01da5833d4e57b227efad7da46e1c9243e1ddabd7e36f59a6403365ae",
      "s": "0x13b02f9c6d269bc3f08c0ad539f7d2fd8d0f67d57ed9b2386b9c062513046d4a",
      "v": 27,
      "creates": null,
      "raw": "0xf86d0c850ba43b74008252089432be343b94f860124dc4fee278fdcbd38c102d8889012fa1df77b6968000801ba06a6766e01da5833d4e57b227efad7da46e1c9243e1ddabd7e36f59a6403365aea013b02f9c6d269bc3f08c0ad539f7d2fd8d0f67d57ed9b2386b9c062513046d4a",
      "networkId": 0,
      "chainId": 0
    },
    {
      "hash": "0xdfd01bcdc19ef9cc789c5886830df6179bcb0d8c8fc1ab08f57c1efb5c39ae10",
      "blockHash": "0xaa4be12165a5f8cbbf8c761edd3b86f86f54109b6afa47586427beb28ab20fba",
      "blockNumber": 117823,
      "transactionIndex": 1,
      "confirmations": null,
      "from": "0x1333a55102f1f4B3df95298b6CE863eF8d5BAf45",
      "gasPrice": {
        "_hex": "0xba43b7400"
      },
      "gasLimit": {
        "_hex": "0x5208"
      },
      "to": "0x32Be343B94f860124dC4fEe278FDCBD38C102D88",
      "value": {
        "_hex": "0x14a7ed23d3a9d800"
      },
      "nonce": 15,
      "data": "0x",
      "r": "0xf8f47cd1ab2b2f5f342acef6042738fba8d4bb528a6dbf40454b9c0011d5f6bb",
      "s": "0x369ffa71d3ab4f89bc71a7786516e01455b6064cfe169f893d9536b86452d3f1",
      "v": 27,
      "creates": null,
      "raw": "0xf86c0f850ba43b74008252089432be343b94f860124dc4fee278fdcbd38c102d888814a7ed23d3a9d800801ba0f8f47cd1ab2b2f5f342acef6042738fba8d4bb528a6dbf40454b9c0011d5f6bba0369ffa71d3ab4f89bc71a7786516e01455b6064cfe169f893d9536b86452d3f1",
      "networkId": 0,
      "chainId": 0
    },
    {
      "hash": "0x54f225b49d99926b12188b4b2a1fb6be1a00fb715122ae605e582b43f9062455",
      "blockHash": "0xaa4be12165a5f8cbbf8c761edd3b86f86f54109b6afa47586427beb28ab20fba",
      "blockNumber": 117823,
      "transactionIndex": 2,
      "confirmations": null,
      "from": "0x17503AC6bd7F64Aba0b186c354e25c68DbE9bEA7",
      "gasPrice": {
        "_hex": "0xba43b7400"
      },
      "gasLimit": {
        "_hex": "0x493e0"
      },
      "to": null,
      "value": {
        "_hex": "0x0"
      },
      "nonce": 0,
      "data": "0x60606040526040516102b43803806102b48339016040526060805160600190602001505b5b33600060006101000a81548173ffffffffffffffffffffffffffffffffffffffff021916908302179055505b806001600050908051906020019082805482825590600052602060002090601f01602090048101928215609e579182015b82811115609d5782518260005055916020019190600101906081565b5b50905060c5919060a9565b8082111560c1576000818150600090555060010160a9565b5090565b50505b506101dc806100d86000396000f30060606040526000357c01000000000000000000000000000000000000000000000000000000009004806341c0e1b514610044578063cfae32171461005157610042565b005b61004f6004506100ca565b005b61005c60045061015e565b60405180806020018281038252838181518152602001915080519060200190808383829060006004602084601f0104600302600f01f150905090810190601f1680156100bc5780820380516001836020036101000a031916815260200191505b509250505060405180910390f35b600060009054906101000a900473ffffffffffffffffffffffffffffffffffffffff1673ffffffffffffffffffffffffffffffffffffffff163373ffffffffffffffffffffffffffffffffffffffff16141561015b57600060009054906101000a900473ffffffffffffffffffffffffffffffffffffffff1673ffffffffffffffffffffffffffffffffffffffff16ff5b5b565b60206040519081016040528060008152602001506001600050805480601f016020809104026020016040519081016040528092919081815260200182805480156101cd57820191906000526020600020905b8154815290600101906020018083116101b057829003601f168201915b505050505090506101d9565b90560000000000000000000000000000000000000000000000000000000000000020000000000000000000000000000000000000000000000000000000000000000c48656c6c6f20576f726c64210000000000000000000000000000000000000000",
      "r": "0x26fe9cb9e9d3a99dc76b1671d3df036c61ab5c9d723646c944db1cae2a2c5f19",
      "s": "0x448fd7cbab85246182ecfc397dfcbb41a91ccea93436c1ed98fa24dad0d69a87",
      "v": 27,
      "creates": "0x12a595641d8bD57aBd0538dCc2E69518A4A3aEAE",
      "raw": "0xf9036780850ba43b7400830493e08080b9031460606040526040516102b43803806102b48339016040526060805160600190602001505b5b33600060006101000a81548173ffffffffffffffffffffffffffffffffffffffff021916908302179055505b806001600050908051906020019082805482825590600052602060002090601f01602090048101928215609e579182015b82811115609d5782518260005055916020019190600101906081565b5b50905060c5919060a9565b8082111560c1576000818150600090555060010160a9565b5090565b50505b506101dc806100d86000396000f30060606040526000357c01000000000000000000000000000000000000000000000000000000009004806341c0e1b514610044578063cfae32171461005157610042565b005b61004f6004506100ca565b005b61005c60045061015e565b60405180806020018281038252838181518152602001915080519060200190808383829060006004602084601f0104600302600f01f150905090810190601f1680156100bc5780820380516001836020036101000a031916815260200191505b509250505060405180910390f35b600060009054906101000a900473ffffffffffffffffffffffffffffffffffffffff1673ffffffffffffffffffffffffffffffffffffffff163373ffffffffffffffffffffffffffffffffffffffff16141561015b57600060009054906101000a900473ffffffffffffffffffffffffffffffffffffffff1673ffffffffffffffffffffffffffffffffffffffff16ff5b5b565b60206040519081016040528060008152602001506001600050805480601f016020809104026020016040519081016040528092919081815260200182805480156101cd57820191906000526020600020905b8154815290600101906020018083116101b057829003601f168201915b505050505090506101d9565b90560000000000000000000000000000000000000000000000000000000000000020000000000000000000000000000000000000000000000000000000000000000c48656c6c6f20576f726c642100000000000000000000000000000000000000001ba026fe9cb9e9d3a99dc76b1671d3df036c61ab5c9d723646c944db1cae2a2c5f19a0448fd7cbab85246182ecfc397dfcbb41a91ccea93436c1ed98fa24dad0d69a87",
      "networkId": 0,
      "chainId": 0
    },
    {
      "hash": "0x68cdd134a4968a0295d570b0f6eb5a7ebec32c33f6ea05d4af6ce65c1175d96d",
      "blockHash": "0xaa4be12165a5f8cbbf8c761edd3b86f86f54109b6afa47586427beb28ab20fba",
      "blockNumber": 117823,
      "transactionIndex": 3,
      "confirmations": null,
      "from": "0xAD8c7FBFaBC46C35aDb03F7b3A67e731E5793899",
      "gasPrice": {
        "_hex": "0xba43b7400"
      },
      "gasLimit": {
        "_hex": "0x5208"
      },
      "to": "0x32Be343B94f860124dC4fEe278FDCBD38C102D88",
      "value": {
        "_hex": "0x1c107a4774313000"
      },
      "nonce": 13,
      "data": "0x",
      "r": "0xdaf2cb95a796529d07b97b645310f83ef47e649cce40c6ca661f602e8c5559c4",
      "s": "0x25be270e1b3a15592f8b919998a6def013c21068356949246fa17fa3afe9d1a7",
      "v": 28,
      "creates": null,
      "raw": "0xf86c0d850ba43b74008252089432be343b94f860124dc4fee278fdcbd38c102d88881c107a4774313000801ca0daf2cb95a796529d07b97b645310f83ef47e649cce40c6ca661f602e8c5559c4a025be270e1b3a15592f8b919998a6def013c21068356949246fa17fa3afe9d1a7",
      "networkId": 0,
      "chainId": 0
    }
  ]
}