{
  "hash": "0xe761d0b64068ccb5a1d1d448f61a163ca411305cbfeccf87dbf1b98e11565bee",
  "parentHash": "0x42cc4aee02a744eca1f567b4e7c6d5c45f1b4e734d21f32a9f70849850c1d89d",
  "number": 64801,
  "timestamp": 1439226506,
  "nonce": "0x7f6b3289177e4a3c",
  "difficulty": 1892182856609,
  "gasLimit": {
    "_hex": "0x2fefd8"
  },
  "gasUsed": {
    "_hex": "0x17cd8"
  },
  "miner": "0xEF247E639d49461D25F57e9362CadE3120910Ce0",
  "extraData": "0x476574682f76312e302e312f6c696e75782f676f312e342e32",
  "transactions": [
    {
      "hash": "0x96da749387fafefa643643e8731bfa78ab920b7352b5aa38b5171afd39e6e95f",
      "blockHash": "0xe761d0b64068ccb5a1d1d448f61a163ca411305cbfeccf87dbf1b98e11565bee",
      "blockNumber": 64801,
      "transactionIndex": 0,
      "confirmations": null,
      "from": "0x3Fc778989A8FcF2Ea7A1b2aF30dA4B40F9D06D1e",
      "gasPrice": {
        "_hex": "0xba43b7400"
      },
      "gasLimit": {
        "_hex": "0x15f90"
      },
      "to": "0x793AE8C1b1a160BFc07BFB0d04F85eab1A71F4f2",
      "value": {
        "_hex": "0x0"
      },
      "nonce": 0,
      "data": "0x3ba15036",
      "r": "0xc120cce04d41a1bdffe0f0ef30f69ce063fb855c2aba21c451d5d22983cd7e9b",
      "s": "0x62388980f72ef46616057127962250fe299502ab17a52ac7f1e7361345e0d227",
      "v": 28,
      "creates": null,
      "raw": "0xf86980850ba43b740083015f9094793ae8c1b1a160bfc07bfb0d04f85eab1a71f4f280843ba150361ca0c120cce04d41a1bdffe0f0ef30f69ce063fb855c2aba21c451d5d22983cd7e9ba062388980f72ef46616057127962250fe299502ab17a52ac7f1e7361345e0d227",
      "networkId": 0,
      "chainId": 0
    },
    {
      "hash": "0x0b30de268a5f14245a5a1e5f9108a2dde9d3185bc20c8f9a481f76df67d1acac",
      "blockHash": "0xe761d0b64068ccb5a1d1d448f61a163ca411305cbfeccf87dbf1b98e11565bee",
      "blockNumber": 64801,
      "transactionIndex": 1,
      "confirmations": null,
      "from": "0x60fe0d84B605cf28c174657F77382F65b23b8635",
      "gasPrice": {
        "_hex": "0xba43b7400"
      },
      "gasLimit": {
        "_hex": "0x15f90"
      },
      "to": "0x793AE8C1b1a160BFc07BFB0d04F85eab1A71F4f2",
      "value": {
        "_hex": "0x0"
      },
      "nonce": 0,
      "data": "0x3ba15036",
      "r": "0x753ce2b22863fa044ed2a253edaad7957e375531b6a76cd798836c52ca6f94c6",
      "s": "0x21dbede77c1db5453709bceed5a7ab382f4b600e5e56e796520d371d448e2ea6",
      "v": 27,
      "creates": null,
      "raw": "0xf86980850ba43b740083015f9094793ae8c1b1a160bfc07bfb0d04f85eab1a71f4f280843ba150361ba0753ce2b22863fa044ed2a253edaad7957e375531b6a76cd798836c52ca6f94c6a021dbede77c1db5453709bceed5a7ab382f4b600e5e56e796520d371d448e2ea6",
      "networkId": 0,
      "chainId": 0
    }
  ]
}