{
  "hash": "0x97373d643fe83a78c115260fef738093af6f2210b3f6c3e5c753089debb24aa5",
  "parentHash": "0x7d55c71245662599f1e983003129bf0e9e4acd654dca9d0d30db12f4aedc74da",
  "number": 76432,
  "timestamp": 1439420573,
  "nonce": "0xfe19f5f4b9dee8d3",
  "difficulty": 2223188126930,
  "gasLimit": {
    "_hex": "0x2fefd8"
  },
  "gasUsed": {
    "_hex": "0x22c48"
  },
  "miner": "0xfFcD9CAE6d9f54fd8ae05296F839892677ff6EaA",
  "extraData": "0x476574682f76312e302e312f77696e646f77732f676f312e342e32",
  "transactions": [
    {
      "hash": "0x251b962f6f782498e33614f0dc89a61848620fbf12b58d1e4735c7cc2d8e164a",
      "blockHash": "0x97373d643fe83a78c115260fef738093af6f2210b3f6c3e5c753089debb24aa5",
      "blockNumber": 76432,
      "transactionIndex": 0,
      "confirmations": null,
      "from": "0x0e320219838E859b2F9f18B72e3d4073cA50B37D",
      "gasPrice": {
        "_hex": "0xd2b757231"
      },
      "gasLimit": {
        "_hex": "0x2dc6c0"
      },
      "to": "0x35E57F2b08596f1946ECD9D31975eC3c2D7e1C1D",
      "value": {
        "_hex": "0x0"
      },
      "nonce": 14,
      "data": "0xc0336629",
      "r": "0xef97637b351167b0d6d9d984b085671bc4f93a1ba86062f63c266fb8048c2097",
      "s": "0x7b59e63bbaa82ad82198007e66db200aea1ec4fea768d4f330675230f6ecb159",
      "v": 28,
      "creates": null,
      "raw": "0xf8690e850d2b757231832dc6c09435e57f2b08596f1946ecd9d31975ec3c2d7e1c1d8084c03366291ca0ef97637b351167b0d6d9d984b085671bc4f93a1ba86062f63c266fb8048c2097a07b59e63bbaa82ad82198007e66db200aea1ec4fea768d4f330675230f6ecb159",
      "networkId": 0,
      "chainId": 0
    },
    {
      "hash": "0x37c38a0b5487787dff563a4b66eb9c4502c723f4dc65b1bb9446bdee5b3f22ef",
      "blockHash": "0x97373d643fe83a78c115260fef738093af6f2210b3f6c3e5c753089debb24aa5",
      "blockNumber": 76432,
      "transactionIndex": 1,
      "confirmations": null,
      "from": "0x120A270bbC009644e35F0bB6ab13f95b8199c4ad",
      "gasPrice": {
        "_hex": "0xcc7f23106"
      },
      "gasLimit": {
        "_hex": "0x3d090"
      },
      "to": "0xD471D70e80FfBE99bA58A42b10Fe81c49379C8ec",
      "value": {
        "_hex": "0x8ac7230489e80000"
      },
      "nonce": 312,
      "data": "0x",
      "r": "0x73ca416f62d93e8bc07133e4c8f2aeb27af950a8360be9f66e2a60f9636ef5c0",
      "s": "0x4c80f59809f33ab519a6332b282b7fbb24a2b16e094ea0e88304636d11e213d2",
      "v": 27,
      "creates": null,
      "raw": "0xf86f820138850cc7f231068303d09094d471d70e80ffbe99ba58a42b10fe81c49379c8ec888ac7230489e80000801ba073ca416f62d93e8bc07133e4c8f2aeb27af950a8360be9f66e2a60f9636ef5c0a04c80f59809f33ab519a6332b282b7fbb24a2b16e094ea0e88304636d11e213d2",
      "networkId": 0,
      "chainId": 0
    }
  ]
}