{
  "hash": "0xd6775748be45d06c4e77622c4178992569d865f29c06434c2702df0691c6cacb",
  "parentHash": "0xc1c170a8d16da5e579b9c0c1b613012a627e8e5f2507d96276cce33d9da7799c",
  "number": 62047,
  "timestamp": 1439182710,
  "nonce": "0x88d200bee7fedefc",
  "difficulty": 1738631781501,
  "gasLimit": {
    "_hex": "0x2fefd8"
  },
  "gasUsed": {
    "_hex": "0x546c"
  },
  "miner": "0xC5624D986419AeBa6B6A7Ce5BAFd9883f75d8bc8",
  "extraData": "0x",
  "transactions": [
    {
      "hash": "0x5d91d4cd107fe2918276278079b4012801401c23ddb1a3a6af1b45528d503a01",
      "blockHash": "0xd6775748be45d06c4e77622c4178992569d865f29c06434c2702df0691c6cacb",
      "blockNumber": 62047,
      "transactionIndex": 0,
      "confirmations": null,
      "from": "0x1059cBc63E36C43E88F30008ACa7Ce058eeAa096",
      "gasPrice": {
        "_hex": "0x110c8f7d8de"
      },
      "gasLimit": {
        "_hex": "0xc350"
      },
      "to": "0x2910543Af39abA0Cd09dBb2D50200b3E800A63D2",
      "value": {
        "_hex": "0x65a4da25d3016c00000"
      },
      "nonce": 2,
      "data": "0x454e394e4439565552",
      "r": "0x0fedc37c275bfdfe2bd855f340a2217f154b4e15a142ac00307757380453ccc8",
      "s": "0x1ac1d520bd75b57dfa8577981e026460e27c0a2b66feb4fbbaace90c6da41ba6",
      "v": 28,
      "creates": null,
      "raw": "0xf87802860110c8f7d8de82c350942910543af39aba0cd09dbb2d50200b3e800a63d28a065a4da25d3016c0000089454e394e44395655521ca00fedc37c275bfdfe2bd855f340a2217f154b4e15a142ac00307757380453ccc8a01ac1d520bd75b57dfa8577981e026460e27c0a2b66feb4fbbaace90c6da41ba6",
      "networkId": 0,
      "chainId": 0
    }
  ]
}