{
  "hash": "0xf4c0843086bfc74b8d427feef3c56a63b7299f06cad8f78486ff336b1b043089",
  "parentHash": "0xfe39e7b823c527d3da920d30b60854be216d3e687c79129ec41c7a468519e633",
  "number": 61829,
  "timestamp": 1439178862,
  "nonce": "0x49cb450bbd8ce0cc",
  "difficulty": 1736979866942,
  "gasLimit": {
    "_hex": "0x2fefd8"
  },
  "gasUsed": {
    "_hex": "0x110de"
  },
  "miner": "0xeB1325C8D9d3ea8D74aC11F4B00F1B2367686319",
  "extraData": "0x476574682f76312e302e312f77696e646f77732f676f312e342e32",
  "transactions": [
    {
      "hash": "0x581ea2657e00cec7fe2212c2e4385a9ec7c8f32f029ec248540bdebd50afd1e1",
      "blockHash": "0xf4c0843086bfc74b8d427feef3c56a63b7299f06cad8f78486ff336b1b043089",
      "blockNumber": 61829,
      "transactionIndex": 0,
      "confirmations": null,
      "from": "0x326Be8F71bFb0379f989aAB1CC1fE37f0a771f60",
      "gasPrice": {
        "_hex": "0x10b84eac5a2"
      },
      "gasLimit": {
        "_hex": "0x15f90"
      },
      "to": "0xC7d3E431Be6222543364408a94C12C0D089Be305",
      "value": {
        "_hex": "0x0"
      },
      "nonce": 3,
      "data": "0x3ba15036",
      "r": "0x71ce2e4b3263c9237c5aca944fdaef2036ad62c763d5e39b789248ca373088ee",
      "s": "0x0f109f162196eff3fbd54c62c055cf0ff7ab36ffd9aaf26b36fa78426d636dc6",
      "v": 28,
      "creates": null,
      "raw": "0xf86a0386010b84eac5a283015f9094c7d3e431be6222543364408a94c12c0d089be30580843ba150361ca071ce2e4b3263c9237c5aca944fdaef2036ad62c763d5e39b789248ca373088eea00f109f162196eff3fbd54c62c055cf0ff7ab36ffd9aaf26b36fa78426d636dc6",
      "networkId": 0,
      "chainId": 0
    },
    {
      "hash": "0x30fe47aad73fde5e4c5d7801dec9d4f77417418b5c40fcde085b9f0cae5691cc",
      "blockHash": "0xf4c0843086bfc74b8d427feef3c56a63b7299f06cad8f78486ff336b1b043089",
      "blockNumber": 61829,
      "transactionIndex": 1,
      "confirmations": null,
      "from": "0x1308A2e95c0160B90803ddCA9B9a5bb55E416d79",
      "gasPrice": {
        "_hex": "0xe8d4a51000"
      },
      "gasLimit": {
        "_hex": "0x15f90"
      },
      "to": "0xe1FaD02651b158bd72a142526C9D64265ee8C8Eb",
      "value": {
        "_hex": "0x18fae27693b40000"
      },
      "nonce": 108,
      "data": "0x",
      "r": "0x2fa1f3db177b1d5829aede9fab7bf0c418cf8255622d44d4544a7a0ab203f248",
      "s": "0x091d723baa6a539e3cf87d9ea8811789fddde396189c460a379b63e6cb0df366",
      "v": 27,
      "creates": null,
      "raw": "0xf86d6c85e8d4a5100083015f9094e1fad02651b158bd72a142526c9d64265ee8c8eb8818fae27693b40000801ba02fa1f3db177b1d5829aede9fab7bf0c418cf8255622d44d4544a7a0ab203f248a0091d723baa6a539e3cf87d9ea8811789fddde396189c460a379b63e6cb0df366",
      "networkId": 0,
      "chainId": 0
    }
  ]
}