{
  "hash": "0x8f7f404e1ab1929bce2f7b6332567181336d5f938634ac74ed0b8d553556a2b4",
  "parentHash": "0x271dbc21bf68e2f9b7cba1444a2d05876af1118d590be0c156b881c415c80562",
  "number": 115343,
  "timestamp": 1440055599,
  "nonce": "0x0799eea00cfa404b",
  "difficulty": 4547231591813,
  "gasLimit": {
    "_hex": "0x2fefd8"
  },
  "gasUsed": {
    "_hex": "0x14820"
  },
  "miner": "0xeB1325C8D9d3ea8D74aC11F4B00F1B2367686319",
  "extraData": "0x",
  "transactions": [
    {
      "hash": "0x5a159debea4f4d4ebadb8f5b8e1109ad593200fa7b750394716949dad6eaf933",
      "blockHash": "0x8f7f404e1ab1929bce2f7b6332567181336d5f938634ac74ed0b8d553556a2b4",
      "blockNumber": 115343,
      "transactionIndex": 0,
      "confirmations": null,
      "from": "0xAdCa16b4654a92cb67666C0cF61976cEEE81cEEB",
      "gasPrice": {
        "_hex": "0xdef62c619"
      },
      "gasLimit": {
        "_hex": "0x5208"
      },
      "to": "0x32Be343B94f860124dC4fEe278FDCBD38C102D88",
      "value": {
        "_hex": "0x74a37013d002a000"
      },
      "nonce": 9,
      "data": "0x",
      "r": "0xeb62594a327542d5b70a7e8df065128223f635f00665aa1438a7cbfc88ea11a0",
      "s": "0x044ba27f713131500e9e9c47727a1b8f85012937b6a4d46098756a2a75cc9631",
      "v": 28,
      "creates": null,
      "raw": "0xf86c09850def62c6198252089432be343b94f860124dc4fee278fdcbd38c102d888874a37013d002a000801ca0eb62594a327542d5b70a7e8df065128223f635f00665aa1438a7cbfc88ea11a0a0044ba27f713131500e9e9c47727a1b8f85012937b6a4d46098756a2a75cc9631",
      "networkId": 0,
      "chainId": 0
    },
    {
      "hash": "0xda08cd44454db27643d3d2ff06efcd7d8707cb611e900c92be25cf35ce45ca47",
      "blockHash": "0x8f7f404e1ab1929bce2f7b6332567181336d5f938634ac74ed0b8d553556a2b4",
      "blockNumber": 115343,
      "transactionIndex": 1,
      "confirmations": null,
      "from": "0xaa71fa80d26F718E6A3c87e41D817b8D10944a63",
      "gasPrice": {
        "_hex": "0xdef62c619"
      },
      "gasLimit": {
        "_hex": "0x5208"
      },
      "to": "0x32Be343B94f860124dC4fEe278FDCBD38C102D88",
      "value": {
        "_hex": "0x42733c56422bf400"
      },
      "nonce": 9,
      "data": "0x",
      "r": "0x9bcb9ae3e7245e89d1ddb2ccd47bf8183f114b8f409f25ed3fe04c739cc9228f",
      "s": "0x4207d41d26be54e4481797f38f87eb77981b202e8c42aca5797836dac6c70030",
      "v": 27,
      "creates": null,
      "raw": "0xf86c09850def62c6198252089432be343b94f860124dc4fee278fdcbd38c102d888842733c56422bf400801ba09bcb9ae3e7245e89d1ddb2ccd47bf8183f114b8f409f25ed3fe04c739cc9228fa04207d41d26be54e4481797f38f87eb77981b202e8c42aca5797836dac6c70030",
      "networkId": 0,
      "chainId": 0
    },
    {
      "hash": "0xe9342f7fdd11238ff1b7f271a2a2f77c3091fd741ae861546544121c72c1c768",
      "blockHash": "0x8f7f404e1ab1929bce2f7b6332567181336d5f938634ac74ed0b8d553556a2b4",
      "blockNumber": 115343,
      "transactionIndex": 2,
      "confirmations": null,
      "from": "0xFc8bc4ed86dF73001ce6082F3dB914d7c7A9a6cC",
      "gasPrice": {
        "_hex": "0xdef62c619"
      },
      "gasLimit": {
        "_hex": "0x5208"
      },
      "to": "0x32Be343B94f860124dC4fEe278FDCBD38C102D88",
      "value": {
        "_hex": "0x74538a32465b2000"
      },
      "nonce": 8,
      "data": "0x",
      "r": "0xb263f02df79df5b048411df3a586601f129e0b7f8d1209c0f06a9766b1796241",
      "s": "0x2e7099c8a68dc9cfc90e6e69405e8b12c922f13d9c7c6ca2246cdfb1ab8fe60c",
      "v": 27,
      "creates": null,
      "raw": "0xf86c08850def62c6198252089432be343b94f860124dc4fee278fdcbd38c102d888874538a32465b2000801ba0b263f02df79df5b048411df3a586601f129e0b7f8d1209c0f06a9766b1796241a02e7099c8a68dc9cfc90e6e69405e8b12c922f13d9c7c6ca2246cdfb1ab8fe60c",
      "networkId": 0,
      "chainId": 0
    },
    {
      "hash": "0x4ac9d153ed08e69a2eaa7fe3e1029bb96fd2df9b9212dd9ff63124dbcc85b65e",
      "blockHash": "0x8f7f404e1ab1929bce2f7b6332567181336d5f938634ac74ed0b8d553556a2b4",
      "blockNumber": 115343,
      "transactionIndex": 3,
      "confirmations": null,
      "from": "0xe70361D11B44B2fBA997417D7AAa26eb69EBfef0",
      "gasPrice": {
        "_hex": "0xdef62c619"
      },
      "gasLimit": {
        "_hex": "0x5208"
      },
      "to": "0x32Be343B94f860124dC4fEe278FDCBD38C102D88",
      "value": {
        "_hex": "0xa8a23825e4a54000"
      },
      "nonce": 9,
      "data": "0x",
      "r": "0xe457ba95a784fa46440f964c814a75924e868b931e2c1ec1ed979330e6595014",
      "s": "0x0f956ce4b107e78e0d2e4e4fbf37c19d49c2b02072504c07a16a39de17092523",
      "v": 27,
      "creates": null,
      "raw": "0xf86c09850def62c6198252089432be343b94f860124dc4fee278fdcbd38c102d8888a8a23825e4a54000801ba0e457ba95a784fa46440f964c814a75924e868b931e2c1ec1ed979330e6595014a00f956ce4b107e78e0d2e4e4fbf37c19d49c2b02072504c07a16a39de17092523",
      "networkId": 0,
      "chainId": 0
    }
  ]
}