{
  "hash": "0x177e9d841baddca9dc1b4a48a026d187c203299e6e87f1856fc25e39157140ba",
  "parentHash": "0x249f55e5bb0c0c4dcc73b9d0d4cd6046c77f664f075c699bbad7f22191aa76c8",
  "number": 90961,
  "timestamp": 1439648083,
  "nonce": "0x44c6720ef2cb0b30",
  "difficulty": 3418969559725,
  "gasLimit": {
    "_hex": "0x2fefd8"
  },
  "gasUsed": {
    "_hex": "0x5208"
  },
  "miner": "0x0E858640EB9cbEeE16B74124658815BB2b5c0686",
  "extraData": "0x",
  "transactions": [
    {
      "hash": "0x56906e867566323e62013a789fae93f9b4f32a62b30d13a696875606275d54ef",
      "blockHash": "0x177e9d841baddca9dc1b4a48a026d187c203299e6e87f1856fc25e39157140ba",
      "blockNumber": 90961,
      "transactionIndex": 0,
      "confirmations": null,
      "from": "0x2910543Af39abA0Cd09dBb2D50200b3E800A63D2",
      "gasPrice": {
        "_hex": "0xd409cea3a"
      },
      "gasLimit": {
        "_hex": "0x5208"
      },
      "to": "0x4E35be1c5dEe94A847D50307170230e640152575",
      "value": {
        "_hex": "0x2b5d1eb9d79a78000"
      },
      "nonce": 792,
      "data": "0x",
      "r": "0x3a2318d0f47ba4a9a2d5553fc4bf69bacc2f1940152b252297a9bdde2d3ef81b",
      "s": "0x16a7b9c4106326eb07daf43b7cf8cdf6589e3ee9adcf9c472f3b28d14dbe47c6",
      "v": 27,
      "creates": null,
      "raw": "0xf86f820318850d409cea3a825208944e35be1c5dee94a847d50307170230e6401525758902b5d1eb9d79a78000801ba03a2318d0f47ba4a9a2d5553fc4bf69bacc2f1940152b252297a9bdde2d3ef81ba016a7b9c4106326eb07daf43b7cf8cdf6589e3ee9adcf9c472f3b28d14dbe47c6",
      "networkId": 0,
      "chainId": 0
    }
  ]
}