{
  "hash": "0xa4745f2b4a26c432bee2ecee3c2c76f44a8c12eaafcbda764ae3aa6117574f9d",
  "parentHash": "0x95a57b7e6183999aa68c2ef37ed3debb8d53cdfe7889e2dc2a40dfefd27f9b75",
  "number": 60230,
  "timestamp": 1439151865,
  "nonce": "0xc87ca3a753d1ef6f",
  "difficulty": 1739857748299,
  "gasLimit": {
    "_hex": "0x2fefd8"
  },
  "gasUsed": {
    "_hex": "0x5208"
  },
  "miner": "0xbb7B8287f3F0a933474a79eAe42CBCa977791171",
  "extraData": "0x476574682f4c5649562f76312e302e312f6c696e75782f676f312e342e32",
  "transactions": [
    {
      "hash": "0x60adb20524163f6e6846acad2bd75347c483e719a8c4a0ecd86a6cd88d2c9fcc",
      "blockHash": "0xa4745f2b4a26c432bee2ecee3c2c76f44a8c12eaafcbda764ae3aa6117574f9d",
      "blockNumber": 60230,
      "transactionIndex": 0,
      "confirmations": null,
      "from": "0x6E4F1DD8EDB448D8F0F2829eb817B81ACEE45152",
      "gasPrice": {
        "_hex": "0x746a528800"
      },
      "gasLimit": {
        "_hex": "0x5b04"
      },
      "to": "0x2910543Af39abA0Cd09dBb2D50200b3E800A63D2",
      "value": {
        "_hex": "0xe8d4a51000"
      },
      "nonce": 5,
      "data": "0x",
      "r": "0x5935e7fc345eda7dbcc78db14ec6fd1d43a2570a07a13b2d016343a123075bda",
      "s": "0x32ad9b0587b8d1d1635c98a4178e7fb15620b96f44b0d09592a9a0478d333cd7",
      "v": 28,
      "creates": null,
      "raw": "0xf8690585746a528800825b04942910543af39aba0cd09dbb2d50200b3e800a63d285e8d4a51000801ca05935e7fc345eda7dbcc78db14ec6fd1d43a2570a07a13b2d016343a123075bdaa032ad9b0587b8d1d1635c98a4178e7fb15620b96f44b0d09592a9a0478d333cd7",
      "networkId": 0,
      "chainId": 0
    }
  ]
}