{
  "hash": "0x17e01cc5eb8e7344b51c1271ae4467f64c4d6af81e6e9d3b87dc37ae246a9836",
  "parentHash": "0x83154a47d2e5ccc7d36b5069c018d32ea05ab232aea65c1d8a9f9ae3978ca145",
  "number": 57857,
  "timestamp": 1439110856,
  "nonce": "0x2f06db8da92c01b2",
  "difficulty": 1732718752388,
  "gasLimit": {
    "_hex": "0x2fefd8"
  },
  "gasUsed": {
    "_hex": "0x5208"
  },
  "miner": "0x53824166ea5271d3425e3194c848A90CA4e97eB2",
  "extraData": "0x476574682f76312e302e312f6c696e75782f676f312e342e32",
  "transactions": [
    {
      "hash": "0x8cd45196cadc6dccd22a5ba624535db7d4c3f8c1168a1fd507565ca80c6d1ae4",
      "blockHash": "0x17e01cc5eb8e7344b51c1271ae4467f64c4d6af81e6e9d3b87dc37ae246a9836",
      "blockNumber": 57857,
      "transactionIndex": 0,
      "confirmations": null,
      "from": "0xBeb3B1d443791e4B2207a9866800E02DAcF19c02",
      "gasPrice": {
        "_hex": "0xd6819f83e"
      },
      "gasLimit": {
        "_hex": "0x7a120"
      },
      "to": "0x5804baCD8DEC367de4137ffaD580997311841369",
      "value": {
        "_hex": "0x16345785d8a0000"
      },
      "nonce": 3,
      "data": "0x",
      "r": "0x9c8a74316c3630487ec5db2f6f0db009bb12c4cf0cd76f1b61950e10db30d0f7",
      "s": "0x0d502eb3587ea84ac41b967ac7d2b191b0eed845462f29e34bb23a905373d747",
      "v": 27,
      "creates": null,
      "raw": "0xf86d03850d6819f83e8307a120945804bacd8dec367de4137ffad58099731184136988016345785d8a0000801ba09c8a74316c3630487ec5db2f6f0db009bb12c4cf0cd76f1b61950e10db30d0f7a00d502eb3587ea84ac41b967ac7d2b191b0eed845462f29e34bb23a905373d747",
      "networkId": 0,
      "chainId": 0
    }
  ]
}