{
  "hash": "0x0baf4a1554beee7e04a3248557562b7b2b6b7e563d76449f3fc9d7739c5bcdfa",
  "parentHash": "0xbb31b2af725d756dd8ed80543a77a7eaccd49fcbfef12533280cb17e8891ec5b",
  "number": 68863,
  "timestamp": 1439294852,
  "nonce": "0x8971f130778d0061",
  "difficulty": 2021122682178,
  "gasLimit": {
    "_hex": "0x2fefd8"
  },
  "gasUsed": {
    "_hex": "0x5208"
  },
  "miner": "0xe6A7a1d47ff21B6321162AEA7C6CB457D5476Bca",
  "extraData": "0x476574682f76312e302e312d38326566323666362f6c696e75782f676f312e34",
  "transactions": [
    {
      "hash": "0xa10539550645757bea21ecff284f752aa48b895ead9bfd4f8258d4c02e2f8d93",
      "blockHash": "0x0baf4a1554beee7e04a3248557562b7b2b6b7e563d76449f3fc9d7739c5bcdfa",
      "blockNumber": 68863,
      "transactionIndex": 0,
      "confirmations": null,
      "from": "0x6747f922385c9a6F9cfDf095F34345257DD597bE",
      "gasPrice": {
        "_hex": "0xba43b7400"
      },
      "gasLimit": {
        "_hex": "0x5208"
      },
      "to": "0x178a6dC3E7496Bed843BBa310B1c4EC4a2DC8B7d",
      "value": {
        "_hex": "0x1fcbfa42bd6000"
      },
      "nonce": 134,
      "data": "0x",
      "r": "0x5b38f08052a684ff2d235d8bfb6066d90a6d708554b94fff84fdadfec13ae57b",
      "s": "0x0845f435d8e6de931ebd8e507a761763f5e3bf0ffbd55afecfcf341dcf79c652",
      "v": 27,
      "creates": null,
      "raw": "0xf86c8186850ba43b740082520894178a6dc3e7496bed843bba310b1c4ec4a2dc8b7d871fcbfa42bd6000801ba05b38f08052a684ff2d235d8bfb6066d90a6d708554b94fff84fdadfec13ae57ba00845f435d8e6de931ebd8e507a761763f5e3bf0ffbd55afecfcf341dcf79c652",
      "networkId": 0,
      "chainId": 0
    }
  ]
}