{
  "hash": "0xa910b00e2703fab09015e9e65842be97fe7de0210b1690bb7838c2571b921d8d",
  "parentHash": "0x1e528715df5fc9a5ec635a0347f5fe3c10effde5251ccd95e9572074278d42d9",
  "number": 47392,
  "timestamp": 1438939501,
  "nonce": "0x4aeebc027c91bb10",
  "difficulty": 1451672823951,
  "gasLimit": {
    "_hex": "0xb876"
  },
  "gasUsed": {
    "_hex": "0xa410"
  },
  "miner": "0xeB1325C8D9d3ea8D74aC11F4B00F1B2367686319",
  "extraData": "0x476574682f76312e302e312f77696e646f77732f676f312e342e32",
  "transactions": [
    {
      "hash": "0xff87d39d3066437cba55836fe0e68567a012250f3730d978573ba9526622e632",
      "blockHash": "0xa910b00e2703fab09015e9e65842be97fe7de0210b1690bb7838c2571b921d8d",
      "blockNumber": 47392,
      "transactionIndex": 0,
      "confirmations": null,
      "from": "0x9dF32A501C0b781c0281022f42A1293FfD7B892a",
      "gasPrice": {
        "_hex": "0x1264c45600"
      },
      "gasLimit": {
        "_hex": "0x5208"
      },
      "to": "0x3994edd5d1447C91d3Db3A7D483E745E0378F6E6",
      "value": {
        "_hex": "0x3643aa647986040000"
      },
      "nonce": 2,
      "data": "0x",
      "r": "0x96a8bacdfc3156a68293df06c1417acbad3cbbdfe672eaf0cc9a92f8fbab1596",
      "s": "0x7c52e30a1383b5a9fb84146bbb21ff4e1e57eadca58f0c3f85839987df2d23f0",
      "v": 27,
      "creates": null,
      "raw": "0xf86d02851264c45600825208943994edd5d1447c91d3db3a7d483e745e0378f6e6893643aa647986040000801ba096a8bacdfc3156a68293df06c1417acbad3cbbdfe672eaf0cc9a92f8fbab1596a07c52e30a1383b5a9fb84146bbb21ff4e1e57eadca58f0c3f85839987df2d23f0",
      "networkId": 0,
      "chainId": 0
    },
    {
      "hash": "0x95d0167c13bacd8c0cb88fe03c12446196635e18b503e5b60c02f4b677225656",
      "blockHash": "0xa910b00e2703fab09015e9e65842be97fe7de0210b1690bb7838c2571b921d8d",
      "blockNumber": 47392,
      "transactionIndex": 1,
      "confirmations": null,
      "from": "0x9dF32A501C0b781c0281022f42A1293FfD7B892a",
      "gasPrice": {
        "_hex": "0x1264c45600"
      },
      "gasLimit": {
        "_hex": "0x5208"
      },
      "to": "0x9D30475Ac7C8268b156F5f7e4227a3CF1ACD47A0",
      "value": {
        "_hex": "0x3643aa647986040000"
      },
      "nonce": 3,
      "data": "0x",
      "r": "0x88ed2390b2adcc52fce04a47e0561464bfb6746c8f1d2b3ffdb73b56188d5fde",
      "s": "0x3a1a4a1d95005d2ec2dc22d745411842abf9bae5fee0c37bec3fb749c3175b34",
      "v": 28,
      "creates": null,
      "raw": "0xf86d03851264c45600825208949d30475ac7c8268b156f5f7e4227a3cf1acd47a0893643aa647986040000801ca088ed2390b2adcc52fce04a47e0561464bfb6746c8f1d2b3ffdb73b56188d5fdea03a1a4a1d95005d2ec2dc22d745411842abf9bae5fee0c37bec3fb749c3175b34",
      "networkId": 0,
      "chainId": 0
    }
  ]
}