{
  "hash": "0x9be8d54e044b99fa112cecd75a98424a4536b035c0a57ef18a418bbbb6dbfecb",
  "parentHash": "0x79ef2028d2ca5141ca9db1228b2d8e2401152b7a680c448705ee18759950c1cf",
  "number": 73726,
  "timestamp": 1439373921,
  "nonce": "0x16b7814770b38eb9",
  "difficulty": 2223905399497,
  "gasLimit": {
    "_hex": "0x2fefd8"
  },
  "gasUsed": {
    "_hex": "0x5208"
  },
  "miner": "0x0eDEd3DA479d0beF8eeC92A76644D3f4E3C177f7",
  "extraData": "0x476574682f76312e302e312f6c696e75782f676f312e342e32",
  "transactions": [
    {
      "hash": "0x5bd45f0f1dce4573c61a7118105d2012fd5076bc6568c019d06f43906526b6db",
      "blockHash": "0x9be8d54e044b99fa112cecd75a98424a4536b035c0a57ef18a418bbbb6dbfecb",
      "blockNumber": 73726,
      "transactionIndex": 0,
      "confirmations": null,
      "from": "0x120A270bbC009644e35F0bB6ab13f95b8199c4ad",
      "gasPrice": {
        "_hex": "0xdc02e5a82"
      },
      "gasLimit": {
        "_hex": "0x15f90"
      },
      "to": "0xf648EA89c27525710172944e79eDfF847803B775",
      "value": {
        "_hex": "0x3c345abd8e7548800"
      },
      "nonce": 260,
      "data": "0x",
      "r": "0x9ed4a0740b6f09f2749d35ad266d0c78e6cab6a4a9dbf977cbc387bde962fdb0",
      "s": "0x556f35b0c98f22be0600eac0e8904dd1822cc0838a8c1b6bb129c6af283cc6be",
      "v": 28,
      "creates": null,
      "raw": "0xf870820104850dc02e5a8283015f9094f648ea89c27525710172944e79edff847803b7758903c345abd8e7548800801ca09ed4a0740b6f09f2749d35ad266d0c78e6cab6a4a9dbf977cbc387bde962fdb0a0556f35b0c98f22be0600eac0e8904dd1822cc0838a8c1b6bb129c6af283cc6be",
      "networkId": 0,
      "chainId": 0
    }
  ]
}