{
  "hash": "0x718e6f256c7994860f60211c68c8f9f094a2d94c37654914a0033a9e47266ce9",
  "parentHash": "0xd42b131b5d93b6f25fce7f77c4bc6c3ab139dd3bef70d90631aa1cdff219ed2b",
  "number": 85027,
  "timestamp": 1439557539,
  "nonce": "0x303aad2a3e7ffc99",
  "difficulty": 2717134485783,
  "gasLimit": {
    "_hex": "0x2fefd8"
  },
  "gasUsed": {
    "_hex": "0x5208"
  },
  "miner": "0x3cdA97032227293AaeAEF72f44C1AdCfC3daF366",
  "extraData": "0x476574682f76312e302e312d38326566323666362f6c696e75782f676f312e34",
  "transactions": [
    {
      "hash": "0x08bd26d373492847233c68257325c91d9520b044be4200016664803aa48ae769",
      "blockHash": "0x718e6f256c7994860f60211c68c8f9f094a2d94c37654914a0033a9e47266ce9",
      "blockNumber": 85027,
      "transactionIndex": 0,
      "confirmations": null,
      "from": "0x2910543Af39abA0Cd09dBb2D50200b3E800A63D2",
      "gasPrice": {
        "_hex": "0xd32652625"
      },
      "gasLimit": {
        "_hex": "0x5208"
      },
      "to": "0x734DDf1c85733672C5e8D1db68c3d38d5151ce1f",
      "value": {
        "_hex": "0x7775d4952f7540000"
      },
      "nonce": 584,
      "data": "0x",
      "r": "0x5f6268ce8e890195b686463fd07a2e7df9669db411315d13befd56e270854ca9",
      "s": "0x01ce040ade6dc810e7766a37201fedb174fa590f7e38ac31d2fd08dbd02c33f7",
      "v": 27,
      "creates": null,
      "raw": "0xf86f820248850d3265262582520894734ddf1c85733672c5e8d1db68c3d38d5151ce1f8907775d4952f7540000801ba05f6268ce8e890195b686463fd07a2e7df9669db411315d13befd56e270854ca9a001ce040ade6dc810e7766a37201fedb174fa590f7e38ac31d2fd08dbd02c33f7",
      "networkId": 0,
      "chainId": 0
    }
  ]
}