{
  "hash": "0x4861eb5c91e43e575daaa029eea6886eb984386ccf55ad0e36d76c3c3ca1e3be",
  "parentHash": "0xa7c930427e85235aff4e1814d3cdea18b28b00f99501c69316653d86e185ba6e",
  "number": 105504,
  "timestamp": 1439888725,
  "nonce": "0x4d8e919b464ff443",
  "difficulty": 4393152034206,
  "gasLimit": {
    "_hex": "0x2fefd8"
  },
  "gasUsed": {
    "_hex": "0x5208"
  },
  "miner": "0xe6A7a1d47ff21B6321162AEA7C6CB457D5476Bca",
  "extraData": "0x476574682f76312e302e312d38326566323666362f6c696e75782f676f312e34",
  "transactions": [
    {
      "hash": "0x40a58bd5b628d9a5800c2ff331ec9ef420d688bd1fefde88edfe41a14efade66",
      "blockHash": "0x4861eb5c91e43e575daaa029eea6886eb984386ccf55ad0e36d76c3c3ca1e3be",
      "blockNumber": 105504,
      "transactionIndex": 0,
      "confirmations": null,
      "from": "0xeDbc07d54406D3B56bdaeADEEa788b9721f779ba",
      "gasPrice": {
        "_hex": "0xd829211eb"
      },
      "gasLimit": {
        "_hex": "0x55f0"
      },
      "to": "0x0DBaD90C967BFfeA4d6B589c0d2AF50A0eA16304",
      "value": {
        "_hex": "0x6ab625d28bc4f0000"
      },
      "nonce": 2,
      "data": "0x",
      "r": "0xfff60354a91bd4e718bdbb29e39cee1aa7cec1d24abfc795a3189d054996b1c5",
      "s": "0x131a7eb1a3d27ed59be8328671ee6d8c4885231274fd109e453f7917a41f9f7b",
      "v": 27,
      "creates": null,
      "raw": "0xf86d02850d829211eb8255f0940dbad90c967bffea4d6b589c0d2af50a0ea163048906ab625d28bc4f0000801ba0fff60354a91bd4e718bdbb29e39cee1aa7cec1d24abfc795a3189d054996b1c5a0131a7eb1a3d27ed59be8328671ee6d8c4885231274fd109e453f7917a41f9f7b",
      "networkId": 0,
      "chainId": 0
    }
  ]
}