{
  "hash": "0x6e47e9815209a7a4e80b0e3239f2c935e1d2bdc535eaef7b37fa0f783a066a59",
  "parentHash": "0x196db6dd7a8c044dc2a5310e019852b4b0d419d4b30b20c5878795dae1b45747",
  "number": 51226,
  "timestamp": 1439001495,
  "nonce": "0xd56962a8f9787f8b",
  "difficulty": 1564325644604,
  "gasLimit": {
    "_hex": "0x9bcaa"
  },
  "gasUsed": {
    "_hex": "0x15f90"
  },
  "miner": "0xf927a40C8B7F6E07c5af7FA2155B4864a4112B13",
  "extraData": "0x",
  "transactions": [
    {
      "hash": "0x1d4769d9be012b84faebef6f86311161ba8b7e572a0e272f8135d343ea01ba1f",
      "blockHash": "0x6e47e9815209a7a4e80b0e3239f2c935e1d2bdc535eaef7b37fa0f783a066a59",
      "blockNumber": 51226,
      "transactionIndex": 0,
      "confirmations": null,
      "from": "0x2905726Ed11131A984ce9C0119cB32DBC99dE90B",
      "gasPrice": {
        "_hex": "0x1126ba30298"
      },
      "gasLimit": {
        "_hex": "0x15f90"
      },
      "to": "0x8bbF81e9A8E936242354047C9905d621E269c7f7",
      "value": {
        "_hex": "0x38d7ea4c68000"
      },
      "nonce": 5,
      "data": "0xa69beaba6558697374656e5a000000000000000000000000000000000000000000000000",
      "r": "0x5af980196fe1a020b913ab244ac08ccb43bc946c0ca15feaf13dc7593514d5c9",
      "s": "0x6ab91457d188a9b901929cd20c5da887091f29ba749634bd4dcb863dcf97e802",
      "v": 27,
      "creates": null,
      "raw": "0xf891058601126ba3029883015f90948bbf81e9a8e936242354047c9905d621e269c7f787038d7ea4c68000a4a69beaba6558697374656e5a0000000000000000000000000000000000000000000000001ba05af980196fe1a020b913ab244ac08ccb43bc946c0ca15feaf13dc7593514d5c9a06ab91457d188a9b901929cd20c5da887091f29ba749634bd4dcb863dcf97e802",
      "networkId": 0,
      "chainId": 0
    }
  ]
}