{
  "hash": "0x5d1f159a81db5755e5e2a6a3fd3bbe5ce64a66396e2576ff5461e38e0159fcd6",
  "parentHash": "0xb38a677767e80d61d66169441a1f675793fd4e0345b5751461b02c93ca246b8b",
  "number": 101981,
  "timestamp": 1439830808,
  "nonce": "0x877066e307fe9df4",
  "difficulty": 3933883455265,
  "gasLimit": {
    "_hex": "0x2fefd8"
  },
  "gasUsed": {
    "_hex": "0x20fc6"
  },
  "miner": "0xbb7B8287f3F0a933474a79eAe42CBCa977791171",
  "extraData": "0x476574682f4c5649562f76312e302e312f6c696e75782f676f312e342e32",
  "transactions": [
    {
      "hash": "0x3e088046597b18f83a57ba1b58c4ae5f5db5ab529cc60cce755e2e0460f68f7f",
      "blockHash": "0x5d1f159a81db5755e5e2a6a3fd3bbe5ce64a66396e2576ff5461e38e0159fcd6",
      "blockNumber": 101981,
      "transactionIndex": 0,
      "confirmations": null,
      "from": "0xD971aB50bF8821BBafcFBA3ddF6Cf949357cc935",
      "gasPrice": {
        "_hex": "0xdc525be67"
      },
      "gasLimit": {
        "_hex": "0x249f0"
      },
      "to": "0xE28e72FCf78647ADCe1F1252F240bbfaebD63BcC",
      "value": {
        "_hex": "0xb1a9657c39f430000"
      },
      "nonce": 0,
      "data": "0x45466f3a",
      "r": "0x4a0024c637d8c7c2af37b0b8750e1706df7c4d18d158bb20c88adf8e8785fb6c",
      "s": "0x7485989559c00381c8f4baf04f8f37ca37ce6fd0c70d735e1ed60a5152ac2529",
      "v": 28,
      "creates": null,
      "raw": "0xf87280850dc525be67830249f094e28e72fcf78647adce1f1252f240bbfaebd63bcc890b1a9657c39f4300008445466f3a1ca04a0024c637d8c7c2af37b0b8750e1706df7c4d18d158bb20c88adf8e8785fb6ca07485989559c00381c8f4baf04f8f37ca37ce6fd0c70d735e1ed60a5152ac2529",
      "networkId": 0,
      "chainId": 0
    },
    {
      "hash": "0x429da7762271e3bcd82b15401e8a2b3c744dff852e545feabf7e28d35ce56f5c",
      "blockHash": "0x5d1f159a81db5755e5e2a6a3fd3bbe5ce64a66396e2576ff5461e38e0159fcd6",
      "blockNumber": 101981,
      "transactionIndex": 1,
      "confirmations": null,
      "from": "0xC47Aaa860008be6f65B58c6C6E02a84e666EfE31",
      "gasPrice": {
        "_hex": "0xd13fc6629"
      },
      "gasLimit": {
        "_hex": "0x15f90"
      },
      "to": "0x237a49289Ef006719f48f45dE15C3F6510Bf52e1",
      "value": {
        "_hex": "0x19ca68d7434b0b91"
      },
      "nonce": 62,
      "data": "0x",
      "r": "0x1b18fdb748c5803e89516cb5a9b0c938ecdef2b3d177ec6f0cfa7f02cbe437a2",
      "s": "0x69cff82b98b1e3d124b2edfa6691c0c360d5a5425c08ec25945be4a9872d33a0",
      "v": 27,
      "creates": null,
      "raw": "0xf86d3e850d13fc662983015f9094237a49289ef006719f48f45de15c3f6510bf52e18819ca68d7434b0b91801ba01b18fdb748c5803e89516cb5a9b0c938ecdef2b3d177ec6f0cfa7f02cbe437a2a069cff82b98b1e3d124b2edfa6691c0c360d5a5425c08ec25945be4a9872d33a0",
      "networkId": 0,
      "chainId": 0
    }
  ]
}