{
  "hash": "0x6bb965f027428203ce89803db2e2a3fa42a32df6cec1333520b148489abc2cf3",
  "parentHash": "0xd1e87027e8c9071683391acbcc96645e4d4791466c8bf7ed6f3c76073001314c",
  "number": 72450,
  "timestamp": 1439352818,
  "nonce": "0xcd3b12d91352e3aa",
  "difficulty": 2206934502658,
  "gasLimit": {
    "_hex": "0x2fefd8"
  },
  "gasUsed": {
    "_hex": "0x5208"
  },
  "miner": "0xf927a40C8B7F6E07c5af7FA2155B4864a4112B13",
  "extraData": "0x",
  "transactions": [
    {
      "hash": "0x0b3253f3d6e520b37560bbd4a83679acd420768f7aab8367db596c997b0cf6f5",
      "blockHash": "0x6bb965f027428203ce89803db2e2a3fa42a32df6cec1333520b148489abc2cf3",
      "blockNumber": 72450,
      "transactionIndex": 0,
      "confirmations": null,
      "from": "0x1308A2e95c0160B90803ddCA9B9a5bb55E416d79",
      "gasPrice": {
        "_hex": "0x9184e72a000"
      },
      "gasLimit": {
        "_hex": "0x15f90"
      },
      "to": "0x4BBc2EF7E5482B88E8c9C4bc05c5A3d3FF2B03c7",
      "value": {
        "_hex": "0x101fcf28186830000"
      },
      "nonce": 112,
      "data": "0x",
      "r": "0xb09fd90ff400caa7d6cf5feb68c0e9902b10585164a5d33ff1fd1ac4a5dff0b8",
      "s": "0x64d250cf714cfc872cfa0678898f7c0d1f3952470ae6f6949673f5d097185459",
      "v": 27,
      "creates": null,
      "raw": "0xf86f708609184e72a00083015f90944bbc2ef7e5482b88e8c9c4bc05c5a3d3ff2b03c7890101fcf28186830000801ba0b09fd90ff400caa7d6cf5feb68c0e9902b10585164a5d33ff1fd1ac4a5dff0b8a064d250cf714cfc872cfa0678898f7c0d1f3952470ae6f6949673f5d097185459",
      "networkId": 0,
      "chainId": 0
    }
  ]
}