{
  "hash": "0x3ddd28faf0215561f6a712474381197fd2357017d7fa76bf13eda7f86077843a",
  "parentHash": "0x35168073217b5548915c5bee4ca4c4d3ba4b2658e5e585bf1967b61e41edf429",
  "number": 56059,
  "timestamp": 1439081448,
  "nonce": "0x2402f5f9b0587126",
  "difficulty": 1623324738369,
  "gasLimit": {
    "_hex": "0x2fefd8"
  },
  "gasUsed": {
    "_hex": "0x5208"
  },
  "miner": "0xCE09fD3E23b65BaD12809190a19b6BFCFfD48c35",
  "extraData": "0xdd809b302e392e34302b2b373237362d524c696e75782f672b2b2f4a4954",
  "transactions": [
    {
      "hash": "0x4d7518c3b4b12eca809f8f5e1f724566a3c84c0e01261a8e111c71fc7683a6b1",
      "blockHash": "0x3ddd28faf0215561f6a712474381197fd2357017d7fa76bf13eda7f86077843a",
      "blockNumber": 56059,
      "transactionIndex": 0,
      "confirmations": null,
      "from": "0x32Be343B94f860124dC4fEe278FDCBD38C102D88",
      "gasPrice": {
        "_hex": "0xd236999fa"
      },
      "gasLimit": {
        "_hex": "0x5208"
      },
      "to": "0xA8Db0B9b201453333C757F6AD9BCB555c02DA93b",
      "value": {
        "_hex": "0x1b9de674df070000"
      },
      "nonce": 79,
      "data": "0x",
      "r": "0xfb188f2592cc9f13f9e4e5073629bcbaff12ea254d7c57e64618e637f93d5be6",
      "s": "0x2c9f9d4d67091cbe5acc82a7c391400616b5f890a1855ff07df9e2c44678bbdd",
      "v": 27,
      "creates": null,
      "raw": "0xf86c4f850d236999fa82520894a8db0b9b201453333c757f6ad9bcb555c02da93b881b9de674df070000801ba0fb188f2592cc9f13f9e4e5073629bcbaff12ea254d7c57e64618e637f93d5be6a02c9f9d4d67091cbe5acc82a7c391400616b5f890a1855ff07df9e2c44678bbdd",
      "networkId": 0,
      "chainId": 0
    }
  ]
}