{
  "hash": "0x61ab85003782ed9603612e43bc4c7836ed4244f9a3b25424b7530a7b6cae5540",
  "parentHash": "0x0b22f426e257524d65acd3f51fca795772cbbdbcdb47ae172da684d9c95ca6ff",
  "number": 91383,
  "timestamp": 1439654868,
  "nonce": "0x6980eb65a9686a3a",
  "difficulty": 3469246209548,
  "gasLimit": {
    "_hex": "0x2fefd8"
  },
  "gasUsed": {
    "_hex": "0x5208"
  },
  "miner": "0x0eDEd3DA479d0beF8eeC92A76644D3f4E3C177f7",
  "extraData": "0x476574682f76312e302e312f6c696e75782f676f312e342e32",
  "transactions": [
    {
      "hash": "0x4ea9d95cb30055c45d54aff097160def2a3ce40b9217b679bf86fbf7317a5872",
      "blockHash": "0x61ab85003782ed9603612e43bc4c7836ed4244f9a3b25424b7530a7b6cae5540",
      "blockNumber": 91383,
      "transactionIndex": 0,
      "confirmations": null,
      "from": "0xbAeF66124E137Eb5eE0DE1BbAB5a30002508a1bf",
      "gasPrice": {
        "_hex": "0xd641f460d"
      },
      "gasLimit": {
        "_hex": "0x15f90"
      },
      "to": "0xAF17A4ab5d6B10055Fc1eB1BFaCcbDe69B83aF76",
      "value": {
        "_hex": "0xde0b6b3a7640000"
      },
      "nonce": 0,
      "data": "0x",
      "r": "0xdb789dcbe5f31a0881f6be5481183b0c37954bbacbbffaa217ba6b8bc9fb656d",
      "s": "0x51f7a82395d9c10c9992a7891dfad5ea3b6acd727d9b0e967881d3132b2d0a57",
      "v": 28,
      "creates": null,
      "raw": "0xf86d80850d641f460d83015f9094af17a4ab5d6b10055fc1eb1bfaccbde69b83af76880de0b6b3a7640000801ca0db789dcbe5f31a0881f6be5481183b0c37954bbacbbffaa217ba6b8bc9fb656da051f7a82395d9c10c9992a7891dfad5ea3b6acd727d9b0e967881d3132b2d0a57",
      "networkId": 0,
      "chainId": 0
    }
  ]
}