{
  "hash": "0x803e08e844c44c3d6423d8d8cb886e811f4db1aebf72428edd030e8548b5a191",
  "parentHash": "0x29107d0545a2de6068250feb6de6af262f305bd81be243b811f34bc596104d1d",
  "number": 47459,
  "timestamp": 1438940834,
  "nonce": "0x48ba8ec4e7944068",
  "difficulty": 1449536329107,
  "gasLimit": {
    "_hex": "0xc057"
  },
  "gasUsed": {
    "_hex": "0xa410"
  },
  "miner": "0xf8E0CA3Ed80bd541b94BEdCf259e8CF2141A9523",
  "extraData": "0x476574682f76312e302e312f77696e646f77732f676f312e342e32",
  "transactions": [
    {
      "hash": "0xadc62d45af7c7a2e38722bd2540248dfa1c00b7920f0982b696e4ce994e4efdb",
      "blockHash": "0x803e08e844c44c3d6423d8d8cb886e811f4db1aebf72428edd030e8548b5a191",
      "blockNumber": 47459,
      "transactionIndex": 0,
      "confirmations": null,
      "from": "0xe6A7a1d47ff21B6321162AEA7C6CB457D5476Bca",
      "gasPrice": {
        "_hex": "0x184bc71cdd"
      },
      "gasLimit": {
        "_hex": "0x5208"
      },
      "to": "0xd8aE46Ba60513f7811Dcd26882405F6Be01C730F",
      "value": {
        "_hex": "0x1b9087655baa86d78"
      },
      "nonce": 150,
      "data": "0x",
      "r": "0xabdc3d0af60d5c4b078ac0df9a43152fbf011db1c97b2ce6210ac6d53e7fda6f",
      "s": "0x180746d7eecb6b6ef2227b8d218fdb9719431a633e9627c08bcc3c9d9225d792",
      "v": 27,
      "creates": null,
      "raw": "0xf86e819685184bc71cdd82520894d8ae46ba60513f7811dcd26882405f6be01c730f8901b9087655baa86d78801ba0abdc3d0af60d5c4b078ac0df9a43152fbf011db1c97b2ce6210ac6d53e7fda6fa0180746d7eecb6b6ef2227b8d218fdb9719431a633e9627c08bcc3c9d9225d792",
      "networkId": 0,
      "chainId": 0
    },
    {
      "hash": "0x97392d9eab796b2c9af80305736964487791063419e13dcf44b27481cbf58582",
      "blockHash": "0x803e08e844c44c3d6423d8d8cb886e811f4db1aebf72428edd030e8548b5a191",
      "blockNumber": 47459,
      "transactionIndex": 1,
      "confirmations": null,
      "from": "0xe6A7a1d47ff21B6321162AEA7C6CB457D5476Bca",
      "gasPrice": {
        "_hex": "0x184bc71cdd"
      },
      "gasLimit": {
        "_hex": "0x5208"
      },
      "to": "0x360A45Bb0fd4B1980981FbD42e4f6bAaa69EeC08",
      "value": {
        "_hex": "0x1ba319c67e6e552b8"
      },
      "nonce": 151,
      "data": "0x",
      "r": "0x4873510168ec0729f13a977abb67973991935280e34ddbd644681b73e3c36b39",
      "s": "0x7a6243c3f16b406f2ee95c433ab9f1ac47edbde2c9d37d5e78892f7807997336",
      "v": 28,
      "creates": null,
      "raw": "0xf86e819785184bc71cdd82520894360a45bb0fd4b1980981fbd42e4f6baaa69eec088901ba319c67e6e552b8801ca04873510168ec0729f13a977abb67973991935280e34ddbd644681b73e3c36b39a07a6243c3f16b406f2ee95c433ab9f1ac47edbde2c9d37d5e78892f7807997336",
      "networkId": 0,
      "chainId": 0
    }
  ]
}