{
  "hash": "0x4a67310fbc5d70cbc34ddf95f66f839d8e1eca2129af469c997a155bdf3f2bd5",
  "parentHash": "0x11ead812d560de2a2dadc5e159be989e59eee1926c02a8d020c67d1edb55192d",
  "number": 84075,
  "timestamp": 1439544782,
  "nonce": "0xb4fbb22c2ca38e64",
  "difficulty": 2488800039371,
  "gasLimit": {
    "_hex": "0x2fefd8"
  },
  "gasUsed": {
    "_hex": "0xa410"
  },
  "miner": "0x7366ADF97960d404c38D975e1A8786bEb14B6507",
  "extraData": "0x476574682f76312e302e312f77696e646f77732f676f312e342e32",
  "transactions": [
    {
      "hash": "0xa45fc86eef3d9cea7408d8c0a7e7f80bc3b74130f39685856b432b18988aaf8e",
      "blockHash": "0x4a67310fbc5d70cbc34ddf95f66f839d8e1eca2129af469c997a155bdf3f2bd5",
      "blockNumber": 84075,
      "transactionIndex": 0,
      "confirmations": null,
      "from": "0xdeE4977F74E6Aef6D627191c9A45D2627e331150",
      "gasPrice": {
        "_hex": "0xd967c3f98"
      },
      "gasLimit": {
        "_hex": "0x5208"
      },
      "to": "0x32Be343B94f860124dC4fEe278FDCBD38C102D88",
      "value": {
        "_hex": "0xd02659e536747000"
      },
      "nonce": 1,
      "data": "0x",
      "r": "0xf8b1c6c957593d340afc800fa0851e0e35476fca3e495587fc5accb7ecba0632",
      "s": "0x789f036094a8d57eae3858feba179158ba373abd0e94158a12efd6f4a8296a15",
      "v": 27,
      "creates": null,
      "raw": "0xf86c01850d967c3f988252089432be343b94f860124dc4fee278fdcbd38c102d8888d02659e536747000801ba0f8b1c6c957593d340afc800fa0851e0e35476fca3e495587fc5accb7ecba0632a0789f036094a8d57eae3858feba179158ba373abd0e94158a12efd6f4a8296a15",
      "networkId": 0,
      "chainId": 0
    },
    {
      "hash": "0xa9072c62ec4b242188ff6ba456f10d1e0bbfbecc298b5576c9f25b3e555f8da9",
      "blockHash": "0x4a67310fbc5d70cbc34ddf95f66f839d8e1eca2129af469c997a155bdf3f2bd5",
      "blockNumber": 84075,
      "transactionIndex": 1,
      "confirmations": null,
      "from": "0xbEB64d852Bb6731CD479E80F7139ADEa5D6A5a28",
      "gasPrice": {
        "_hex": "0xd967c3f98"
      },
      "gasLimit": {
        "_hex": "0x5208"
      },
      "to": "0x32Be343B94f860124dC4fEe278FDCBD38C102D88",
      "value": {
        "_hex": "0x3bd8ce3ca858c8000"
      },
      "nonce": 3,
      "data": "0x",
      "r": "0x4e1d22eed9d89e2cf038c351ab6b724b328b7c205f9b22b17d1e78c086352981",
      "s": "0x0bfd4031c10ab56e3a1027b2a78fcf87a02118c1f546e240e83eea40eeed51f2",
      "v": 28,
      "creates": null,
      "raw": "0xf86d03850d967c3f988252089432be343b94f860124dc4fee278fdcbd38c102d888903bd8ce3ca858c8000801ca04e1d22eed9d89e2cf038c351ab6b724b328b7c205f9b22b17d1e78c086352981a00bfd4031c10ab56e3a1027b2a78fcf87a02118c1f546e240e83eea40eeed51f2",
      "networkId": 0,
      "chainId": 0
    }
  ]
}