{
  "hash": "0xf5e58fd2c4a8561dd6a8f52ca550acb2a7fa917edbd996e83f0c836a3d4d9fc2",
  "parentHash": "0x5b450bff1a8484f7f8ec2216ec15dd148eef1e57a1cd86ef64b50bb626be5ea3",
  "number": 49577,
  "timestamp": 1438975708,
  "nonce": "0xa8f9926edd1251f9",
  "difficulty": 1474869296532,
  "gasLimit": {
    "_hex": "0x36263"
  },
  "gasUsed": {
    "_hex": "0x53e4"
  },
  "miner": "0x24339341F29d2aaD7d3c591c0f9931e7D4bFEd6e",
  "extraData": "0x476574682f76312e302e312f6c696e75782f676f312e342e32",
  "transactions": [
    {
      "hash": "0x9fb0a365da5088aca92bcc880e8e3c6976c8a553d81f72196d0cf085169f65ff",
      "blockHash": "0xf5e58fd2c4a8561dd6a8f52ca550acb2a7fa917edbd996e83f0c836a3d4d9fc2",
      "blockNumber": 49577,
      "transactionIndex": 0,
      "confirmations": null,
      "from": "0x858079E02403b10748B71A02195b6608Abaf6b8f",
      "gasPrice": {
        "_hex": "0xd7d40ace3"
      },
      "gasLimit": {
        "_hex": "0x59d8"
      },
      "to": "0xcb2Ff4305625D98A9E13C9cA10ca47cf2345e1F8",
      "value": {
        "_hex": "0xd02ab486cedc0000"
      },
      "nonce": 0,
      "data": "0x4d696e75733835",
      "r": "0x29458badde91b5961f6e5ef1c9833a0c1e23e851e0390a5a9989815a67ef6fd4",
      "s": "0x21e6384b8e34a67550f505db56d4dbfec30e1d62b47a5d93d35a1acbdbdf7253",
      "v": 28,
      "creates": null,
      "raw": "0xf87380850d7d40ace38259d894cb2ff4305625d98a9e13c9ca10ca47cf2345e1f888d02ab486cedc0000874d696e757338351ca029458badde91b5961f6e5ef1c9833a0c1e23e851e0390a5a9989815a67ef6fd4a021e6384b8e34a67550f505db56d4dbfec30e1d62b47a5d93d35a1acbdbdf7253",
      "networkId": 0,
      "chainId": 0
    }
  ]
}