{
  "hash": "0xaa7ca053d43bc98a8959bec3908a47846125a796cd468bfff2b213307cdd5fee",
  "parentHash": "0x352ee313b7bc8cabe4b6f9a9da668b443d50a7f122afb3254fb7b985355944db",
  "number": 80206,
  "timestamp": 1439481794,
  "nonce": "0x3080a84aa4f2579b",
  "difficulty": 2372447340916,
  "gasLimit": {
    "_hex": "0x2fefd8"
  },
  "gasUsed": {
    "_hex": "0x1b4ad"
  },
  "miner": "0xf32866D5cE9a9b5673e076be48AbCd6ED48ADe78",
  "extraData": "0x476574682f76312e302e312d37666266393930632f6c696e75782f676f312e34",
  "transactions": [
    {
      "hash": "0xcce76b05710eb82af9178211e77800acd99aa29dc453d928938b6fa5c0031d09",
      "blockHash": "0xaa7ca053d43bc98a8959bec3908a47846125a796cd468bfff2b213307cdd5fee",
      "blockNumber": 80206,
      "transactionIndex": 0,
      "confirmations": null,
      "from": "0x87C5B5874A18B4306DF8a752a6C8cc3E82daFc19",
      "gasPrice": {
        "_hex": "0x1116b15e9a3"
      },
      "gasLimit": {
        "_hex": "0x493e0"
      },
      "to": "0xC4c51de1AbF5D60DBd329eC0F999Fd8f021ae9fC",
      "value": {
        "_hex": "0x39c68c72ad965605"
      },
      "nonce": 141,
      "data": "0x8d216186000000000000000000000000000000000000000000000000000000000000001ad3d96ceed0cfca4794c2a5a3d3aeefe69da0a2a669e66a5651f30b64831c3db0",
      "r": "0x1e20dbce47439c75ff269bffb4a0bcb99d59a72373b72cf67fedda87db4fb5de",
      "s": "0x26d5f0dcf63360f4211825f8f182e19276a457ad040d9f74e7778d0f90f36a5d",
      "v": 28,
      "creates": null,
      "raw": "0xf8b4818d8601116b15e9a3830493e094c4c51de1abf5d60dbd329ec0f999fd8f021ae9fc8839c68c72ad965605b8448d216186000000000000000000000000000000000000000000000000000000000000001ad3d96ceed0cfca4794c2a5a3d3aeefe69da0a2a669e66a5651f30b64831c3db01ca01e20dbce47439c75ff269bffb4a0bcb99d59a72373b72cf67fedda87db4fb5dea026d5f0dcf63360f4211825f8f182e19276a457ad040d9f74e7778d0f90f36a5d",
      "networkId": 0,
      "chainId": 0
    }
  ]
}