{
  "hash": "0xd4647a0249ff89619c7029046075f7f79f1094f777af2748e70753c4c624a362",
  "parentHash": "0x1432c4feac9e0d2ba1c6123906acfd2be5765be523f3bded27b1cc5b2169b8e4",
  "number": 110493,
  "timestamp": 1439974676,
  "nonce": "0xbe32b7dae2d234a5",
  "difficulty": 4379834030238,
  "gasLimit": {
    "_hex": "0x2fefd8"
  },
  "gasUsed": {
    "_hex": "0xf618"
  },
  "miner": "0x52bc44d5378309EE2abF1539BF71dE1b7d7bE3b5",
  "extraData": "0x476574682f76312e302e312d63303261396266632f6c696e75782f676f312e34",
  "transactions": [
    {
      "hash": "0x60b36a964b64b4b6d17c9721bcfa3d3bb993349111b83c7963631c0eaff2a6d7",
      "blockHash": "0xd4647a0249ff89619c7029046075f7f79f1094f777af2748e70753c4c624a362",
      "blockNumber": 110493,
      "transactionIndex": 0,
      "confirmations": null,
      "from": "0xf00955cEDD33a99B4a993aABeb4239e268aaD294",
      "gasPrice": {
        "_hex": "0xda333b8dc"
      },
      "gasLimit": {
        "_hex": "0x5208"
      },
      "to": "0x32Be343B94f860124dC4fEe278FDCBD38C102D88",
      "value": {
        "_hex": "0x3d0b91fb66817400"
      },
      "nonce": 2,
      "data": "0x",
      "r": "0xa31e0d2fc96800da1d9d4fcc1b5470e7607317cd30a8d7e9c89290b7421056ef",
      "s": "0x7f48a2162a956a493340f6a457c5b7647c37fc49c38732fff850dcbe3817359c",
      "v": 27,
      "creates": null,
      "raw": "0xf86c02850da333b8dc8252089432be343b94f860124dc4fee278fdcbd38c102d88883d0b91fb66817400801ba0a31e0d2fc96800da1d9d4fcc1b5470e7607317cd30a8d7e9c89290b7421056efa07f48a2162a956a493340f6a457c5b7647c37fc49c38732fff850dcbe3817359c",
      "networkId": 0,
      "chainId": 0
    },
    {
      "hash": "0x63ec2f7d2de6c426e42c8fc114cc4951086aa4ccab77b02ca41d4a9897d41605",
      "blockHash": "0xd4647a0249ff89619c7029046075f7f79f1094f777af2748e70753c4c624a362",
      "blockNumber": 110493,
      "transactionIndex": 1,
      "confirmations": null,
      "from": "0x795dAa7Cd2C81b20de241CE0751981faC4930070",
      "gasPrice": {
        "_hex": "0xda333b8dc"
      },
      "gasLimit": {
        "_hex": "0x5208"
      },
      "to": "0x32Be343B94f860124dC4fEe278FDCBD38C102D88",
      "value": {
        "_hex": "0xcb76ff73454990000"
      },
      "nonce": 2,
      "data": "0x",
      "r": "0x87437d6fdb3d83f940f24d49aca1533362cbb973fe335efa6c8685b04bea445b",
      "s": "0x781fa54492f1ab3804b8c74b7eb598e6b3e9172932433518253dc996134d3e6a",
      "v": 28,
      "creates": null,
      "raw": "0xf86d02850da333b8dc8252089432be343b94f860124dc4fee278fdcbd38c102d88890cb76ff73454990000801ca087437d6fdb3d83f940f24d49aca1533362cbb973fe335efa6c8685b04bea445ba0781fa54492f1ab3804b8c74b7eb598e6b3e9172932433518253dc996134d3e6a",
      "networkId": 0,
      "chainId": 0
    },
    {
      "hash": "0x3249192fa467b597d01ebec9dfe1ab67e1a02daceec99d7044101d9f58ff8862",
      "blockHash": "0xd4647a0249ff89619c7029046075f7f79f1094f777af2748e70753c4c624a362",
      "blockNumber": 110493,
      "transactionIndex": 2,
      "confirmations": null,
      "from": "0x007f7f58D3eb5b7510A301eCC749FC1fCDDBE14D",
      "gasPrice": {
        "_hex": "0xd382b0b9c"
      },
      "gasLimit": {
        "_hex": "0x15f90"
      },
      "to": "0xb1abce2918E21ddb93AA452731a12672A3d9F75a",
      "value": {
        "_hex": "0x4563918244f40000"
      },
      "nonce": 288,
      "data": "0x",
      "r": "0x36eab7b52fc206c94450139cd37efb75f9547d371f0a8121cd63b12f2781488a",
      "s": "0x35027c6420f437f9550b7e002d406acb97ce46fa6a1a671920b01bc4aad17df7",
      "v": 27,
      "creates": null,
      "raw": "0xf86f820120850d382b0b9c83015f9094b1abce2918e21ddb93aa452731a12672a3d9f75a884563918244f40000801ba036eab7b52fc206c94450139cd37efb75f9547d371f0a8121cd63b12f2781488aa035027c6420f437f9550b7e002d406acb97ce46fa6a1a671920b01bc4aad17df7",
      "networkId": 0,
      "chainId": 0
    }
  ]
}