{
  "hash": "0x9cb0b6033eb2fb8134350ea0e146feb7f0e452a66f024f94f00e25e4273b5124",
  "parentHash": "0xf30be58d9ccec28505d6d5f0d35b773540659e4249641f5d31ec67a8c636558f",
  "number": 71840,
  "timestamp": 1439342777,
  "nonce": "0xc69a604e43a8d52c",
  "difficulty": 2168637393433,
  "gasLimit": {
    "_hex": "0x2fefd8"
  },
  "gasUsed": {
    "_hex": "0x93b2"
  },
  "miner": "0x55bAf64fc9eAccFFd7Cc643BB61142E1C6ac093e",
  "extraData": "0x",
  "transactions": [
    {
      "hash": "0x9f7cef42b0e161ab59739273f94c1a0c199c8e92868d7ef22342f51b684e6107",
      "blockHash": "0x9cb0b6033eb2fb8134350ea0e146feb7f0e452a66f024f94f00e25e4273b5124",
      "blockNumber": 71840,
      "transactionIndex": 0,
      "confirmations": null,
      "from": "0x17580B766f7453525ca4C6A88b01b50570EA088C",
      "gasPrice": {
        "_hex": "0xcec1f0504"
      },
      "gasLimit": {
        "_hex": "0x61a80"
      },
      "to": "0x5Fe5B7546D1628f7348B023A0393de1FC825A4fD",
      "value": {
        "_hex": "0x29a2241af62c0000"
      },
      "nonce": 265,
      "data": "0xb595b8b50000000000000000000000000000000000000000000000000000000000000000",
      "r": "0x76acb1d51a29e974eddf41a7a78cf53393c4015bed583c43202cde37cd9542da",
      "s": "0x2204928acd7f5815a0fccc725a2a3eea714607571a3042c7935de2669cfebcc9",
      "v": 27,
      "creates": null,
      "raw": "0xf893820109850cec1f050483061a80945fe5b7546d1628f7348b023a0393de1fc825a4fd8829a2241af62c0000a4b595b8b500000000000000000000000000000000000000000000000000000000000000001ba076acb1d51a29e974eddf41a7a78cf53393c4015bed583c43202cde37cd9542daa02204928acd7f5815a0fccc725a2a3eea714607571a3042c7935de2669cfebcc9",
      "networkId": 0,
      "chainId": 0
    }
  ]
}