{
  "hash": "0xe2a5f6c93615ef63a76d40d9d99e0e08080dd5e16479619c2f9ce75e8d7eb991",
  "parentHash": "0x3e9fce5bae7d2caf0860f961709c4df5dce4a48117c54e3ddf5e4f19b289e0aa",
  "number": 121172,
  "timestamp": 1440172639,
  "nonce": "0x0bb82f0c74ce4daa",
  "difficulty": 4402116516003,
  "gasLimit": {
    "_hex": "0x2fefd8"
  },
  "gasUsed": {
    "_hex": "0x5208"
  },
  "miner": "0x9746c7e1ef2bd21FF3997fa467593a89cb852BD0",
  "extraData": "0x476574682f76312e302e312f77696e646f77732f676f312e342e32",
  "transactions": [
    {
      "hash": "0x1fe7eff117b0cede124740f4337f4140961c5f4c63acf5cd5dda8bf4e8816213",
      "blockHash": "0xe2a5f6c93615ef63a76d40d9d99e0e08080dd5e16479619c2f9ce75e8d7eb991",
      "blockNumber": 121172,
      "transactionIndex": 0,
      "confirmations": null,
      "from": "0x608f4b86321a68453f9adf6F06F7Fc3E621739ad",
      "gasPrice": {
        "_hex": "0xba43b7400"
      },
      "gasLimit": {
        "_hex": "0x5208"
      },
      "to": "0x32Be343B94f860124dC4fEe278FDCBD38C102D88",
      "value": {
        "_hex": "0x455fd68a17f06000"
      },
      "nonce": 95,
      "data": "0x",
      "r": "0xa810318901e5001d534e92dbca2de40e7b571cdd0682f6b3bfa5da12270f6109",
      "s": "0x534fd858f5220656ed988bff7598b47692b99fd9ced0bd884a144be8f827e5ba",
      "v": 28,
      "creates": null,
      "raw": "0xf86c5f850ba43b74008252089432be343b94f860124dc4fee278fdcbd38c102d8888455fd68a17f06000801ca0a810318901e5001d534e92dbca2de40e7b571cdd0682f6b3bfa5da12270f6109a0534fd858f5220656ed988bff7598b47692b99fd9ced0bd884a144be8f827e5ba",
      "networkId": 0,
      "chainId": 0
    }
  ]
}