{
  "hash": "0xe45fafd856e1aeb28ef6be2cb2a03b51f80c8dea0a3307865f74411b0f0bbc55",
  "parentHash": "0x16b25ef09de0a268dd4293139319a2673f3e96c8efe607c65440519e3978799a",
  "number": 49287,
  "timestamp": 1438971210,
  "nonce": "0x3190a3b67c8913f0",
  "difficulty": 1477803803598,
  "gasLimit": {
    "_hex": "0x2bb9b"
  },
  "gasUsed": {
    "_hex": "0x14820"
  },
  "miner": "0x0eDEd3DA479d0beF8eeC92A76644D3f4E3C177f7",
  "extraData": "0x476574682f76312e302e312f6c696e75782f676f312e342e32",
  "transactions": [
    {
      "hash": "0x0ac72621c7ff39f782c1b66c306ac9dbf7a86fb7d0b98ea254b4f939d7283026",
      "blockHash": "0xe45fafd856e1aeb28ef6be2cb2a03b51f80c8dea0a3307865f74411b0f0bbc55",
      "blockNumber": 49287,
      "transactionIndex": 0,
      "confirmations": null,
      "from": "0x84ad64deFF6B187f690634051D2a096C359D1099",
      "gasPrice": {
        "_hex": "0xdf5a5256a"
      },
      "gasLimit": {
        "_hex": "0x5208"
      },
      "to": "0xd8806Af9F36874CABFdC064548e4B74197E75e11",
      "value": {
        "_hex": "0x1bc16d674ec80000"
      },
      "nonce": 0,
      "data": "0x",
      "r": "0x9729b479bc77a3159019aafd05e5b0b81e546f8e282d3f67f5a7a4254d54c032",
      "s": "0x7585ffa4dbf79f089bd28696c01e357601f15d61cae30e3e133cfa55b82773cc",
      "v": 27,
      "creates": null,
      "raw": "0xf86c80850df5a5256a82520894d8806af9f36874cabfdc064548e4b74197e75e11881bc16d674ec80000801ba09729b479bc77a3159019aafd05e5b0b81e546f8e282d3f67f5a7a4254d54c032a07585ffa4dbf79f089bd28696c01e357601f15d61cae30e3e133cfa55b82773cc",
      "networkId": 0,
      "chainId": 0
    },
    {
      "hash": "0xd61f6d72b0b1d2f24c3c3f36e66d079b57b403a7742dbf5181d1c2325cafe09d",
      "blockHash": "0xe45fafd856e1aeb28ef6be2cb2a03b51f80c8dea0a3307865f74411b0f0bbc55",
      "blockNumber": 49287,
      "transactionIndex": 1,
      "confirmations": null,
      "from": "0x38876939fFE3E2F973C27BB77c403BB85CD78645",
      "gasPrice": {
        "_hex": "0xd2dab1088"
      },
      "gasLimit": {
        "_hex": "0x5208"
      },
      "to": "0x32Be343B94f860124dC4fEe278FDCBD38C102D88",
      "value": {
        "_hex": "0x541eba422d20d4000"
      },
      "nonce": 3,
      "data": "0x",
      "r": "0x8ccdae387ca536bcb429be52ad80097fc771fe23c9c1d3bf910d2c749e0ab92a",
      "s": "0x2ffa8d95ca3a77ed5e001cffb139c74c03e0ff5bdd51edf1fcfc9cdc5b615fe9",
      "v": 28,
      "creates": null,
      "raw": "0xf86d03850d2dab10888252089432be343b94f860124dc4fee278fdcbd38c102d88890541eba422d20d4000801ca08ccdae387ca536bcb429be52ad80097fc771fe23c9c1d3bf910d2c749e0ab92aa02ffa8d95ca3a77ed5e001cffb139c74c03e0ff5bdd51edf1fcfc9cdc5b615fe9",
      "networkId": 0,
      "chainId": 0
    },
    {
      "hash": "0x9c029b3ea6801cc9125b85b3b0b46f306e03732ed0fbdd708cd691746c59e71d",
      "blockHash": "0xe45fafd856e1aeb28ef6be2cb2a03b51f80c8dea0a3307865f74411b0f0bbc55",
      "blockNumber": 49287,
      "transactionIndex": 2,
      "confirmations": null,
      "from": "0x2C674A948592B20a4B775E1a3991Db043E6CF0FE",
      "gasPrice": {
        "_hex": "0xcba540a90"
      },
      "gasLimit": {
        "_hex": "0x15f90"
      },
      "to": "0xb2B4188b76453042a4d799751c095229E50d40c2",
      "value": {
        "_hex": "0xde0b6b3a7640000"
      },
      "nonce": 0,
      "data": "0x",
      "r": "0x2f164066fc0e81cedcdd04db83bcc44dd895895f0b9e49f3f02a769f86f1a21a",
      "s": "0x7179d2258c71bc1aaf7484f186b6a5d3a7a035779ab8bb9700e0e2d9305b13b2",
      "v": 27,
      "creates": null,
      "raw": "0xf86d80850cba540a9083015f9094b2b4188b76453042a4d799751c095229e50d40c2880de0b6b3a7640000801ba02f164066fc0e81cedcdd04db83bcc44dd895895f0b9e49f3f02a769f86f1a21aa07179d2258c71bc1aaf7484f186b6a5d3a7a035779ab8bb9700e0e2d9305b13b2",
      "networkId": 0,
      "chainId": 0
    },
    {
      "hash": "0xdb3f1715ab24c71b6cfe6f473ab0cc616f9d77cafc1be1f58d2f95389f8b8419",
      "blockHash": "0xe45fafd856e1aeb28ef6be2cb2a03b51f80c8dea0a3307865f74411b0f0bbc55",
      "blockNumber": 49287,
      "transactionIndex": 3,
      "confirmations": null,
      "from": "0x2C674A948592B20a4B775E1a3991Db043E6CF0FE",
      "gasPrice": {
        "_hex": "0xcba540a90"
      },
      "gasLimit": {
        "_hex": "0x15f90"
      },
      "to": "0xb2B4188b76453042a4d799751c095229E50d40c2",
      "value": {
        "_hex": "0xde0b6b3a7640000"
      },
      "nonce": 1,
      "data": "0x",
      "r": "0x2c97dca2e95cd898dc30df3ac1fda359f688967df155934f0915adebed084a29",
      "s": "0x33c4fec0435391a1ccf0c6182a2536f06cb80e15964330726b244afbe8b7cff5",
      "v": 28,
      "creates": null,
      "raw": "0xf86d01850cba540a9083015f9094b2b4188b76453042a4d799751c095229e50d40c2880de0b6b3a7640000801ca02c97dca2e95cd898dc30df3ac1fda359f688967df155934f0915adebed084a29a033c4fec0435391a1ccf0c6182a2536f06cb80e15964330726b244afbe8b7cff5",
      "networkId": 0,
      "chainId": 0
    }
  ]
}