{
  "hash": "0xa34f57b50df82ddde93a016a89aaf69340323b0001a1386ac4f76ef256e44e7e",
  "parentHash": "0x2c89ff44397dd5ee8433d65e43ea0bd581b8cec0b2e9ded3cb802d948977c63f",
  "number": 87808,
  "timestamp": 1439597797,
  "nonce": "0x344b11f669addaa8",
  "difficulty": 3177150099037,
  "gasLimit": {
    "_hex": "0x2fefd8"
  },
  "gasUsed": {
    "_hex": "0x546c"
  },
  "miner": "0xe6A7a1d47ff21B6321162AEA7C6CB457D5476Bca",
  "extraData": "0x476574682f76312e302e312d38326566323666362f6c696e75782f676f312e34",
  "transactions": [
    {
      "hash": "0xb13088e8d595d6d30ff1256a6d4fa948824a729504575de9b6ca3cf27af9ad05",
      "blockHash": "0xa34f57b50df82ddde93a016a89aaf69340323b0001a1386ac4f76ef256e44e7e",
      "blockNumber": 87808,
      "transactionIndex": 0,
      "confirmations": null,
      "from": "0xDF37C22E603aEdB60a627253c47d8bA866f6D972",
      "gasPrice": {
        "_hex": "0x110c8f7d8de"
      },
      "gasLimit": {
        "_hex": "0xc350"
      },
      "to": "0x2910543Af39abA0Cd09dBb2D50200b3E800A63D2",
      "value": {
        "_hex": "0x56bc75e2d63100000"
      },
      "nonce": 0,
      "data": "0x454e55523437585638",
      "r": "0x4219c5c48b86a6f0cb56c816764a9a83e7cec34bfe33de9d702cf9f964a406b0",
      "s": "0x87b8a5986da98dffd615282175ca65c3d1a25dbbdaee8aa0d580533ccef41ffa",
      "v": 28,
      "creates": null,
      "raw": "0xf87780860110c8f7d8de82c350942910543af39aba0cd09dbb2d50200b3e800a63d289056bc75e2d6310000089454e555234375856381ca04219c5c48b86a6f0cb56c816764a9a83e7cec34bfe33de9d702cf9f964a406b0a087b8a5986da98dffd615282175ca65c3d1a25dbbdaee8aa0d580533ccef41ffa",
      "networkId": 0,
      "chainId": 0
    }
  ]
}