{
  "hash": "0x86928f1b0c629aa4432f6a8ae469ce780ea1d48108112c682f9ead6c10ffe023",
  "parentHash": "0xe6d27ac8d9096c573e084742098088cc5fb241becacccaaa33dddc483f2d46f9",
  "number": 56003,
  "timestamp": 1439080632,
  "nonce": "0xda30e241c79cc5a4",
  "difficulty": 1617006789137,
  "gasLimit": {
    "_hex": "0x2fefd8"
  },
  "gasUsed": {
    "_hex": "0x5208"
  },
  "miner": "0x9746c7e1ef2bd21FF3997fa467593a89cb852BD0",
  "extraData": "0x476574682f76312e302e312f77696e646f77732f676f312e342e32",
  "transactions": [
    {
      "hash": "0x0fac733862e517a5c81db1b78b82945a0c48c1334a847ff4bc816e747a699913",
      "blockHash": "0x86928f1b0c629aa4432f6a8ae469ce780ea1d48108112c682f9ead6c10ffe023",
      "blockNumber": 56003,
      "transactionIndex": 0,
      "confirmations": null,
      "from": "0x946B4421c64331bdAe148e6F27d66B92612E0BF6",
      "gasPrice": {
        "_hex": "0xdadfae0fd"
      },
      "gasLimit": {
        "_hex": "0x5208"
      },
      "to": "0x32Be343B94f860124dC4fEe278FDCBD38C102D88",
      "value": {
        "_hex": "0xad35186d4a0c00"
      },
      "nonce": 0,
      "data": "0x",
      "r": "0xb09fac939ae6cc20d156a6bbd31d67e2f9b827dfb41fca3b059e46f903d81ce8",
      "s": "0x682dc51eb30a4863c6b3b0ff1104ba7ce8bf8062fc3166b3008c42b6012d7c4f",
      "v": 28,
      "creates": null,
      "raw": "0xf86b80850dadfae0fd8252089432be343b94f860124dc4fee278fdcbd38c102d8887ad35186d4a0c00801ca0b09fac939ae6cc20d156a6bbd31d67e2f9b827dfb41fca3b059e46f903d81ce8a0682dc51eb30a4863c6b3b0ff1104ba7ce8bf8062fc3166b3008c42b6012d7c4f",
      "networkId": 0,
      "chainId": 0
    }
  ]
}