{
  "hash": "0x5ffe46f0d193b6131a8357fc36067068c492bbcaf40c20fc25dc4b551373bfc7",
  "parentHash": "0xf81f4ab50c284a70a2a3b1d84a06b5c89d2d9590226208a80fcf2fa685bd5547",
  "number": 55943,
  "timestamp": 1439079515,
  "nonce": "0x4685462eabfee361",
  "difficulty": 1615440006104,
  "gasLimit": {
    "_hex": "0x2fefd8"
  },
  "gasUsed": {
    "_hex": "0xddfd"
  },
  "miner": "0x2629E4624822667AB36BE14544200cc00779247B",
  "extraData": "0x476574682f76312e302e312d38326566323666362f6c696e75782f676f312e34",
  "transactions": [
    {
      "hash": "0xb645a41a650f17965594492d3aabe11f4fd71c5007f33fa778f0d2381dcfc26d",
      "blockHash": "0x5ffe46f0d193b6131a8357fc36067068c492bbcaf40c20fc25dc4b551373bfc7",
      "blockNumber": 55943,
      "transactionIndex": 0,
      "confirmations": null,
      "from": "0x15ce449d4c7f47a4Ea1d1C8Ab5E15F10D8BdFEce",
      "gasPrice": {
        "_hex": "0xdc52f63f0"
      },
      "gasLimit": {
        "_hex": "0x7a120"
      },
      "to": "0x109C4f2CCc82C4d77Bde15F306707320294Aea3F",
      "value": {
        "_hex": "0xde0b6b3a7640000"
      },
      "nonce": 0,
      "data": "0x",
      "r": "0xe9dfdfc7639c43ac0f86651195b7afd13a16c6b31cb657247614c006e650bd6c",
      "s": "0x69e4a2c8a4cdd9e9e7f14adecc48aa44525f2730830d2316089aadda861b929d",
      "v": 28,
      "creates": null,
      "raw": "0xf86d80850dc52f63f08307a12094109c4f2ccc82c4d77bde15f306707320294aea3f880de0b6b3a7640000801ca0e9dfdfc7639c43ac0f86651195b7afd13a16c6b31cb657247614c006e650bd6ca069e4a2c8a4cdd9e9e7f14adecc48aa44525f2730830d2316089aadda861b929d",
      "networkId": 0,
      "chainId": 0
    }
  ]
}