{
  "hash": "0x69ff5ac8a979424dbb1c79fae6ca61888d8b058642b5ac60944422b77c34ef50",
  "parentHash": "0xf6c9144befbdf1f954df15e9743311cadff0c4e894c8c8a669cb3914d02e4f0b",
  "number": 80633,
  "timestamp": 1439488319,
  "nonce": "0x2d6baf3095f9112b",
  "difficulty": 2434521094859,
  "gasLimit": {
    "_hex": "0x2fefd8"
  },
  "gasUsed": {
    "_hex": "0x5208"
  },
  "miner": "0xbb7B8287f3F0a933474a79eAe42CBCa977791171",
  "extraData": "0x476574682f4c5649562f76312e302e312f6c696e75782f676f312e342e32",
  "transactions": [
    {
      "hash": "0x9aafb6edbe156efda22898fbfbcecb48e5926a1df8a0266e65ad7f44202ca2a0",
      "blockHash": "0x69ff5ac8a979424dbb1c79fae6ca61888d8b058642b5ac60944422b77c34ef50",
      "blockNumber": 80633,
      "transactionIndex": 0,
      "confirmations": null,
      "from": "0x892E75d6aA470004954fCAcc47Dce91652467906",
      "gasPrice": {
        "_hex": "0xd734548ad"
      },
      "gasLimit": {
        "_hex": "0x7530"
      },
      "to": "0x6De181Fc4C140FA31F196e5393516c49EEeBdAd3",
      "value": {
        "_hex": "0xd02ab486cedc0000"
      },
      "nonce": 3,
      "data": "0x",
      "r": "0x7952c2acb94a0ac07f72a86cf52078326719d4a78012dd8f51d4e23262afe8b1",
      "s": "0x27620172e581c27bddd42c238c991972c1bdd9868ec2675d442904ea98e97508",
      "v": 28,
      "creates": null,
      "raw": "0xf86c03850d734548ad827530946de181fc4c140fa31f196e5393516c49eeebdad388d02ab486cedc0000801ca07952c2acb94a0ac07f72a86cf52078326719d4a78012dd8f51d4e23262afe8b1a027620172e581c27bddd42c238c991972c1bdd9868ec2675d442904ea98e97508",
      "networkId": 0,
      "chainId": 0
    }
  ]
}