{
  "hash": "0xe3c07cda92479bc789c27db2c43131f8fdf08ef2631e4b0ab35c0097cee8665a",
  "parentHash": "0x987f97d7305846712bd0fd72f909941ea0f8202043a163dae6054f0caa6a02cd",
  "number": 77795,
  "timestamp": 1439443040,
  "nonce": "0xc0cd1d436c2f1e99",
  "difficulty": 2269991012024,
  "gasLimit": {
    "_hex": "0x2fefd8"
  },
  "gasUsed": {
    "_hex": "0x5208"
  },
  "miner": "0x55bAf64fc9eAccFFd7Cc643BB61142E1C6ac093e",
  "extraData": "0x",
  "transactions": [
    {
      "hash": "0x0f0fce4eb3fad44659f700bbfa28f3757f2db33fed75fa503174ba66fa75cf4c",
      "blockHash": "0xe3c07cda92479bc789c27db2c43131f8fdf08ef2631e4b0ab35c0097cee8665a",
      "blockNumber": 77795,
      "transactionIndex": 0,
      "confirmations": null,
      "from": "0xFEc14e5485dE2B3eEf5e74C46146dB8e454E0335",
      "gasPrice": {
        "_hex": "0xce78da0c3"
      },
      "gasLimit": {
        "_hex": "0x15f90"
      },
      "to": "0x55eeb8fb7dDf70493b2B210204f5134eFb734Fe6",
      "value": {
        "_hex": "0x8ac7230489e80000"
      },
      "nonce": 2,
      "data": "0x",
      "r": "0x339eb91c4cff9a5ccc9b5d341d9ce35a8eeffefe86deb98c451e013b53786517",
      "s": "0x58da7a5e1ebb82eb7d55b55f5fb2c492f7294b96e9d4624aef4717870ce7d5ea",
      "v": 28,
      "creates": null,
      "raw": "0xf86d02850ce78da0c383015f909455eeb8fb7ddf70493b2b210204f5134efb734fe6888ac7230489e80000801ca0339eb91c4cff9a5ccc9b5d341d9ce35a8eeffefe86deb98c451e013b53786517a058da7a5e1ebb82eb7d55b55f5fb2c492f7294b96e9d4624aef4717870ce7d5ea",
      "networkId": 0,
      "chainId": 0
    }
  ]
}