{
  "hash": "0x1d011ece43a32e66453dcf58a57aba53ab6363757a7092a5922facf790168611",
  "parentHash": "0x3b7e3ff47b70656ced973fb8f122fcffe0490eceabc3992a916ed8948752719a",
  "number": 83750,
  "timestamp": 1439540282,
  "nonce": "0x8a99bbe7684d2d0f",
  "difficulty": 2439565360786,
  "gasLimit": {
    "_hex": "0x2fefd8"
  },
  "gasUsed": {
    "_hex": "0x5208"
  },
  "miner": "0xd83630DD777Ce7c8Df15D55A8Bb72EB7C7b4568D",
  "extraData": "0xd783010001844765746887676f312e342e32856c696e7578",
  "transactions": [
    {
      "hash": "0x6b1119a4c57c0b28e8051b60a67afe802db9934c5da0ecbedcc957408dcf2c43",
      "blockHash": "0x1d011ece43a32e66453dcf58a57aba53ab6363757a7092a5922facf790168611",
      "blockNumber": 83750,
      "transactionIndex": 0,
      "confirmations": null,
      "from": "0x796fB5FF91099467f7669c8FB0C68739Fd3a9e40",
      "gasPrice": {
        "_hex": "0xd1d2cc9ae"
      },
      "gasLimit": {
        "_hex": "0x5208"
      },
      "to": "0x32Be343B94f860124dC4fEe278FDCBD38C102D88",
      "value": {
        "_hex": "0x1ef8399734f0d90000"
      },
      "nonce": 5,
      "data": "0x",
      "r": "0xaa350134112ce17612206d749c8046cd9c279bf1f20ca696299975592df388ad",
      "s": "0x3165d8e59306771ee89480171a8f01f03fbffadf621d2c989e7658a58db41178",
      "v": 27,
      "creates": null,
      "raw": "0xf86d05850d1d2cc9ae8252089432be343b94f860124dc4fee278fdcbd38c102d88891ef8399734f0d90000801ba0aa350134112ce17612206d749c8046cd9c279bf1f20ca696299975592df388ada03165d8e59306771ee89480171a8f01f03fbffadf621d2c989e7658a58db41178",
      "networkId": 0,
      "chainId": 0
    }
  ]
}