{
  "hash": "0x2ff31555291ae4abe8c91488d78659015312c278c4b4b8b2d3b219f9121baf47",
  "parentHash": "0x04ce4f3a8d2e0b35cc9360c26d84f5af1de256f0a0739e838908eee55b3e0ff5",
  "number": 110210,
  "timestamp": 1439969954,
  "nonce": "0x7605b943ed94a0a2",
  "difficulty": 4365036705235,
  "gasLimit": {
    "_hex": "0x2fefd8"
  },
  "gasUsed": {
    "_hex": "0x5208"
  },
  "miner": "0xe6A7a1d47ff21B6321162AEA7C6CB457D5476Bca",
  "extraData": "0x476574682f76312e302e312d38326566323666362f6c696e75782f676f312e34",
  "transactions": [
    {
      "hash": "0x2050a2b0e2b9edaa9cedff4192bc2566bd9bf4f3b476c90d28614e67e7a28167",
      "blockHash": "0x2ff31555291ae4abe8c91488d78659015312c278c4b4b8b2d3b219f9121baf47",
      "blockNumber": 110210,
      "transactionIndex": 0,
      "confirmations": null,
      "from": "0x007f7f58D3eb5b7510A301eCC749FC1fCDDBE14D",
      "gasPrice": {
        "_hex": "0xd382b0b9c"
      },
      "gasLimit": {
        "_hex": "0x15f90"
      },
      "to": "0xb1abce2918E21ddb93AA452731a12672A3d9F75a",
      "value": {
        "_hex": "0x4563918244f40000"
      },
      "nonce": 283,
      "data": "0x",
      "r": "0x276db0e453e3e888dcec000dfe82c367b6e3b49f59e7ffedd5a76dd2d019c3d0",
      "s": "0x66ed7a24a8f4322431813db3fdb08281d2327da06bd63da1d18a8c664e929ab7",
      "v": 27,
      "creates": null,
      "raw": "0xf86f82011b850d382b0b9c83015f9094b1abce2918e21ddb93aa452731a12672a3d9f75a884563918244f40000801ba0276db0e453e3e888dcec000dfe82c367b6e3b49f59e7ffedd5a76dd2d019c3d0a066ed7a24a8f4322431813db3fdb08281d2327da06bd63da1d18a8c664e929ab7",
      "networkId": 0,
      "chainId": 0
    }
  ]
}