{
  "hash": "0x3d76c22cc726ac2b5897ebcd1c93a1afd7beed62e9fa7ba3dd45dfc5e0ec00e7",
  "parentHash": "0x6b9acca83b3994842824018f2705fa60129a57234360f94aa1a73ede586a617b",
  "number": 58535,
  "timestamp": 1439122382,
  "nonce": "0x1761bf2277023cab",
  "difficulty": 1710722114759,
  "gasLimit": {
    "_hex": "0x2fefd8"
  },
  "gasUsed": {
    "_hex": "0x5208"
  },
  "miner": "0x01d9DA08cc6Fb97c0DE1B6F4C28910A0859Ed1A1",
  "extraData": "0x476574682f76312e302e312f6c696e75782f676f312e342e32",
  "transactions": [
    {
      "hash": "0xd15f87d753a240a2914927fe40e88a0036c5c1d46ba454e3e3822bf461b406bf",
      "blockHash": "0x3d76c22cc726ac2b5897ebcd1c93a1afd7beed62e9fa7ba3dd45dfc5e0ec00e7",
      "blockNumber": 58535,
      "transactionIndex": 0,
      "confirmations": null,
      "from": "0x00ec3B9E2e7Ba7FFBd1D77d100a29f8055C258Bb",
      "gasPrice": {
        "_hex": "0x2000000000"
      },
      "gasLimit": {
        "_hex": "0x7fff"
      },
      "to": "0x008B1D771AF0dCFd83C30D9D93f3B83CdF18BebA",
      "value": {
        "_hex": "0x4000000000"
      },
      "nonce": 3,
      "data": "0x",
      "r": "0xb33410639318e20ba99f24848c6a3512d52bd950e56be3a82de5dc15a0b5fbab",
      "s": "0xa2585290d08e4b871c0d26d0169ddd33125c5e61558ec306801320e48fba2d09",
      "v": 27,
      "creates": null,
      "raw": "0xf86903852000000000827fff94008b1d771af0dcfd83c30d9d93f3b83cdf18beba854000000000801ba0b33410639318e20ba99f24848c6a3512d52bd950e56be3a82de5dc15a0b5fbaba0a2585290d08e4b871c0d26d0169ddd33125c5e61558ec306801320e48fba2d09",
      "networkId": 0,
      "chainId": 0
    }
  ]
}