{
  "hash": "0xb8ee93628057c3d31d4636bf98de3d338651010cb9bcd2c9836f2d19aef138e1",
  "parentHash": "0xb35f0d67a5fcc999866488b56ceff97de3a14b2395484e92ba8817986a273861",
  "number": 108107,
  "timestamp": 1439934194,
  "nonce": "0xde51321282fe08d0",
  "difficulty": 4376803668134,
  "gasLimit": {
    "_hex": "0x2fefd8"
  },
  "gasUsed": {
    "_hex": "0x5208"
  },
  "miner": "0xa50ec0D39fa913E62f1Bae7074E6F36caA71855b",
  "extraData": "0xd783010001844765746887676f312e342e32856c696e7578",
  "transactions": [
    {
      "hash": "0x5bb8ed46a7945ce0f5822b9b2ae8a78eaaf044069d6a4d88bb65d70f090b5054",
      "blockHash": "0xb8ee93628057c3d31d4636bf98de3d338651010cb9bcd2c9836f2d19aef138e1",
      "blockNumber": 108107,
      "transactionIndex": 0,
      "confirmations": null,
      "from": "0x32Be343B94f860124dC4fEe278FDCBD38C102D88",
      "gasPrice": {
        "_hex": "0xd0d4e379b"
      },
      "gasLimit": {
        "_hex": "0x5208"
      },
      "to": "0xeD3Fd00D62A795a3A07c71B4f4D94003F92f8A86",
      "value": {
        "_hex": "0x340aad21b3b700000"
      },
      "nonce": 1240,
      "data": "0x",
      "r": "0x759137bcccbd259085228632273e6d249bd6ff7fe71b74721df1be1a6444f594",
      "s": "0x03d5b7e9b300d766ea9719570113340dada3604980abd61254590dce000f0160",
      "v": 28,
      "creates": null,
      "raw": "0xf86f8204d8850d0d4e379b82520894ed3fd00d62a795a3a07c71b4f4d94003f92f8a86890340aad21b3b700000801ca0759137bcccbd259085228632273e6d249bd6ff7fe71b74721df1be1a6444f594a003d5b7e9b300d766ea9719570113340dada3604980abd61254590dce000f0160",
      "networkId": 0,
      "chainId": 0
    }
  ]
}