{
  "hash": "0x6a887890046f6d7f116b65c7fcdc26b5f33004b84b3642a4ce5fb13dc6206405",
  "parentHash": "0xc59a8f257b3500039085c071232e9e6f696aa77d9fea951dbdecd1a11c5bb96a",
  "number": 80350,
  "timestamp": 1439484307,
  "nonce": "0xcf1a4da29682d971",
  "difficulty": 2381691953196,
  "gasLimit": {
    "_hex": "0x2fefd8"
  },
  "gasUsed": {
    "_hex": "0xfc3f"
  },
  "miner": "0xbb7B8287f3F0a933474a79eAe42CBCa977791171",
  "extraData": "0x476574682f4c5649562f76312e302e312f6c696e75782f676f312e342e32",
  "transactions": [
    {
      "hash": "0xb981c7ca145054f010cb89bb25838b8025661676c1a7b97ca79255d6e529a587",
      "blockHash": "0x6a887890046f6d7f116b65c7fcdc26b5f33004b84b3642a4ce5fb13dc6206405",
      "blockNumber": 80350,
      "transactionIndex": 0,
      "confirmations": null,
      "from": "0x87C5B5874A18B4306DF8a752a6C8cc3E82daFc19",
      "gasPrice": {
        "_hex": "0x1091a0c6493"
      },
      "gasLimit": {
        "_hex": "0x493e0"
      },
      "to": "0xC4c51de1AbF5D60DBd329eC0F999Fd8f021ae9fC",
      "value": {
        "_hex": "0x0"
      },
      "nonce": 182,
      "data": "0x03750d9400000000000000000000000087c5b5874a18b4306df8a752a6c8cc3e82dafc196b6b6b0000000000000000000000000000000000000000000000000000000000",
      "r": "0x702a934ee4e8822d8cb9e6fd05809d5b99c3bc12dcdd1e6441fa83507f2668b6",
      "s": "0x51e472bfe2feec51a11687ea89275f7e46ac2e098b2cf181b322e6a80491e886",
      "v": 27,
      "creates": null,
      "raw": "0xf8ac81b68601091a0c6493830493e094c4c51de1abf5d60dbd329ec0f999fd8f021ae9fc80b84403750d9400000000000000000000000087c5b5874a18b4306df8a752a6c8cc3e82dafc196b6b6b00000000000000000000000000000000000000000000000000000000001ba0702a934ee4e8822d8cb9e6fd05809d5b99c3bc12dcdd1e6441fa83507f2668b6a051e472bfe2feec51a11687ea89275f7e46ac2e098b2cf181b322e6a80491e886",
      "networkId": 0,
      "chainId": 0
    },
    {
      "hash": "0x752c11b849bffe40f4b5c78191afae814aed098e45fa7b3be2ef618abf2442dd",
      "blockHash": "0x6a887890046f6d7f116b65c7fcdc26b5f33004b84b3642a4ce5fb13dc6206405",
      "blockNumber": 80350,
      "transactionIndex": 1,
      "confirmations": null,
      "from": "0xF11940EA05aA9CC3F13aCF5C5cA6EDCF312E3Aec",
      "gasPrice": {
        "_hex": "0xd720cbee3"
      },
      "gasLimit": {
        "_hex": "0x15f90"
      },
      "to": "0x59C62d3D43f9EA1c4118d98c188AA5d028b8bB8E",
      "value": {
        "_hex": "0x4563918244f40000"
      },
      "nonce": 4,
      "data": "0x",
      "r": "0x27a104e5ae653308f0d3a4ed09eb0b532a834a68c938fba7e044e8e70d58b7bc",
      "s": "0x290833ee68d888081cfcbbe0863b3333aea83c781fed55de2c9027046910f6ce",
      "v": 28,
      "creates": null,
      "raw": "0xf86d04850d720cbee383015f909459c62d3d43f9ea1c4118d98c188aa5d028b8bb8e884563918244f40000801ca027a104e5ae653308f0d3a4ed09eb0b532a834a68c938fba7e044e8e70d58b7bca0290833ee68d888081cfcbbe0863b3333aea83c781fed55de2c9027046910f6ce",
      "networkId": 0,
      "chainId": 0
    }
  ]
}