{
  "hash": "0x17cee90d7913c047859aad56a8987f347b038c329a1828a36fb62ca4b3c7f399",
  "parentHash": "0x8808505f7f2fa788d6e989cef4c7b47f0ee109c6e4fc504242987268192a3154",
  "number": 106461,
  "timestamp": 1439904596,
  "nonce": "0x051b3b50c5fa0fd4",
  "difficulty": 4485854425832,
  "gasLimit": {
    "_hex": "0x2fefd5"
  },
  "gasUsed": {
    "_hex": "0x520c"
  },
  "miner": "0xe6A7a1d47ff21B6321162AEA7C6CB457D5476Bca",
  "extraData": "0x476574682f76312e302e312d38326566323666362f6c696e75782f676f312e34",
  "transactions": [
    {
      "hash": "0xcee9590bc7f159ea9bc1e5bdf0501a3b43f2b295462f8bc44963fe246dcbf56f",
      "blockHash": "0x17cee90d7913c047859aad56a8987f347b038c329a1828a36fb62ca4b3c7f399",
      "blockNumber": 106461,
      "transactionIndex": 0,
      "confirmations": null,
      "from": "0x030973807B2f426914ad00181270ACd27b8Ff61f",
      "gasPrice": {
        "_hex": "0xd0ed7d321"
      },
      "gasLimit": {
        "_hex": "0x7530"
      },
      "to": "0x14878659Ed5Cf7324bdd94fbafdCE9260A2c8D35",
      "value": {
        "_hex": "0x6f05b59d3b200000"
      },
      "nonce": 0,
      "data": "0x00",
      "r": "0xd5015f8c370e2051512d2ded4cd8056b225a8bae6a5b415657e8b984c89aafad",
      "s": "0xd45c0f93b797b1c085bbb61cc37878293fc2e1ea3c8c5e40a81463a90b52cd62",
      "v": 27,
      "creates": null,
      "raw": "0xf86c80850d0ed7d3218275309414878659ed5cf7324bdd94fbafdce9260a2c8d35886f05b59d3b200000001ba0d5015f8c370e2051512d2ded4cd8056b225a8bae6a5b415657e8b984c89aafada0d45c0f93b797b1c085bbb61cc37878293fc2e1ea3c8c5e40a81463a90b52cd62",
      "networkId": 0,
      "chainId": 0
    }
  ]
}