{
  "hash": "0xd83f6ea02553565f22e7d700386111d991c69a6e32fc3dd5d89e5b133c1fcbcf",
  "parentHash": "0x8f9a3d7b224e1b5ce73df88d05d603d5d4428bf3c6893fd9f5d46bf06f344bbd",
  "number": 75043,
  "timestamp": 1439396808,
  "nonce": "0x677ccb5eabe54ac1",
  "difficulty": 2179484340586,
  "gasLimit": {
    "_hex": "0x2fefd8"
  },
  "gasUsed": {
    "_hex": "0xf618"
  },
  "miner": "0x01d9DA08cc6Fb97c0DE1B6F4C28910A0859Ed1A1",
  "extraData": "0x476574682f76312e302e312f6c696e75782f676f312e342e32",
  "transactions": [
    {
      "hash": "0x7d0cafd1172445bd33b1c23974c6efaaa46fbdc4c1a3ab2f6a50f328f57d4e7a",
      "blockHash": "0xd83f6ea02553565f22e7d700386111d991c69a6e32fc3dd5d89e5b133c1fcbcf",
      "blockNumber": 75043,
      "transactionIndex": 0,
      "confirmations": null,
      "from": "0x120A270bbC009644e35F0bB6ab13f95b8199c4ad",
      "gasPrice": {
        "_hex": "0xd210c8b9b"
      },
      "gasLimit": {
        "_hex": "0x15f90"
      },
      "to": "0xC5804Fa54A994b2088fcD6a214E15093d0fc3b64",
      "value": {
        "_hex": "0x36cc29c09d51067800"
      },
      "nonce": 289,
      "data": "0x",
      "r": "0xbf6a54d0fdd07f4f98a17c7d95df917a51976924cdd6c99d5304c43566dc7b3f",
      "s": "0x774af56177263a9081cb250ccc48c9710b5290a48e1d987f39f13119a48c54f1",
      "v": 27,
      "creates": null,
      "raw": "0xf870820121850d210c8b9b83015f9094c5804fa54a994b2088fcd6a214e15093d0fc3b648936cc29c09d51067800801ba0bf6a54d0fdd07f4f98a17c7d95df917a51976924cdd6c99d5304c43566dc7b3fa0774af56177263a9081cb250ccc48c9710b5290a48e1d987f39f13119a48c54f1",
      "networkId": 0,
      "chainId": 0
    },
    {
      "hash": "0x86c75078ccf5b11072dfcb78a6b45010bd51e362b450a06ea60a368808d13edb",
      "blockHash": "0xd83f6ea02553565f22e7d700386111d991c69a6e32fc3dd5d89e5b133c1fcbcf",
      "blockNumber": 75043,
      "transactionIndex": 1,
      "confirmations": null,
      "from": "0x32Be343B94f860124dC4fEe278FDCBD38C102D88",
      "gasPrice": {
        "_hex": "0xccf8cf8ae"
      },
      "gasLimit": {
        "_hex": "0x5208"
      },
      "to": "0x1baef558d71ff56E3dbde017204Fc283c7aAF8f4",
      "value": {
        "_hex": "0x1c56186d95a1a800"
      },
      "nonce": 333,
      "data": "0x",
      "r": "0x47f2637b1568f0b05ad0dcfa08eab2a9423ddc4a1d601d9c983d13e063760bde",
      "s": "0x565b54723e8670964e4fd967a4fe265bb575a2c716b7e414bc0f5b4a84ab6090",
      "v": 28,
      "creates": null,
      "raw": "0xf86e82014d850ccf8cf8ae825208941baef558d71ff56e3dbde017204fc283c7aaf8f4881c56186d95a1a800801ca047f2637b1568f0b05ad0dcfa08eab2a9423ddc4a1d601d9c983d13e063760bdea0565b54723e8670964e4fd967a4fe265bb575a2c716b7e414bc0f5b4a84ab6090",
      "networkId": 0,
      "chainId": 0
    },
    {
      "hash": "0xce86ee95038683ad89e23c63869e6e7791613722d4f846738188c74944cff946",
      "blockHash": "0xd83f6ea02553565f22e7d700386111d991c69a6e32fc3dd5d89e5b133c1fcbcf",
      "blockNumber": 75043,
      "transactionIndex": 2,
      "confirmations": null,
      "from": "0x32Be343B94f860124dC4fEe278FDCBD38C102D88",
      "gasPrice": {
        "_hex": "0xccf8cf8ae"
      },
      "gasLimit": {
        "_hex": "0x5208"
      },
      "to": "0x6549DaA75d0EE767eb55AA5993043AeD7f852536",
      "value": {
        "_hex": "0xdbd2fc137a30000"
      },
      "nonce": 334,
      "data": "0x",
      "r": "0x57b0ccf4d12a1204b8ab00c2b2c983dc8ad22b673fe0a6dbd23abafd5cb58e22",
      "s": "0x071082b4ff8bd610d5d009a2a4820a3f6c0efd4adb2fb3f766e12249c2db12ec",
      "v": 27,
      "creates": null,
      "raw": "0xf86e82014e850ccf8cf8ae825208946549daa75d0ee767eb55aa5993043aed7f852536880dbd2fc137a30000801ba057b0ccf4d12a1204b8ab00c2b2c983dc8ad22b673fe0a6dbd23abafd5cb58e22a0071082b4ff8bd610d5d009a2a4820a3f6c0efd4adb2fb3f766e12249c2db12ec",
      "networkId": 0,
      "chainId": 0
    }
  ]
}