{
  "hash": "0xaa0762dafb9814b4a21e5645a5fabaa3c1bc54ea2eea6bc9ed5412d7f75df901",
  "parentHash": "0x1b0f84a6680a096ba744a2ee3a362d1832d1041398793470c03a0e67b00bb363",
  "number": 46715,
  "timestamp": 1438927993,
  "nonce": "0x47c78c68221f61a5",
  "difficulty": 1453918189520,
  "gasLimit": {
    "_hex": "0x73ee"
  },
  "gasUsed": {
    "_hex": "0x5208"
  },
  "miner": "0x3738B70e6241841FFb3e1f733d77C15EBc227278",
  "extraData": "0x476574682f76312e302e302f77696e646f77732f676f312e342e32",
  "transactions": [
    {
      "hash": "0x18d29bac2a8a03b74cdcdcb10a8b2bfa9d6f648c15b0dbddc4ca82edd5646819",
      "blockHash": "0xaa0762dafb9814b4a21e5645a5fabaa3c1bc54ea2eea6bc9ed5412d7f75df901",
      "blockNumber": 46715,
      "transactionIndex": 0,
      "confirmations": null,
      "from": "0xa08d215B5B6aAC4861A281aC7E400b78FEF04cbf",
      "gasPrice": {
        "_hex": "0xd4298a22e"
      },
      "gasLimit": {
        "_hex": "0x6978"
      },
      "to": "0x7e1f96dE76715323e90CF5138ea516AD8528d407",
      "value": {
        "_hex": "0x29a2241af62c0000"
      },
      "nonce": 0,
      "data": "0x",
      "r": "0x44186a1ad453caf056dd43b4d3e00cc5718c1bce33670103f4e08218759b2bb5",
      "s": "0x6d8dbe9b8255e157e270ddadae3e2f6050e173fb70ee5bc9e593478139eab59d",
      "v": 27,
      "creates": null,
      "raw": "0xf86c80850d4298a22e826978947e1f96de76715323e90cf5138ea516ad8528d4078829a2241af62c0000801ba044186a1ad453caf056dd43b4d3e00cc5718c1bce33670103f4e08218759b2bb5a06d8dbe9b8255e157e270ddadae3e2f6050e173fb70ee5bc9e593478139eab59d",
      "networkId": 0,
      "chainId": 0
    }
  ]
}