{
  "hash": "0xb1fa095907a340b9e8e99972eccc651ac9574dba639f41cc4790477d3327fb4b",
  "parentHash": "0xe789a30a441140bd34dbdbf328aa1f8be9cae2133a7c4effadc7b947c0f1fcac",
  "number": 105157,
  "timestamp": 1439882835,
  "nonce": "0xdb11f7b6ba52ad57",
  "difficulty": 4297853363762,
  "gasLimit": {
    "_hex": "0x2fefd8"
  },
  "gasUsed": {
    "_hex": "0x5208"
  },
  "miner": "0xe6A7a1d47ff21B6321162AEA7C6CB457D5476Bca",
  "extraData": "0x476574682f76312e302e312d38326566323666362f6c696e75782f676f312e34",
  "transactions": [
    {
      "hash": "0x329221d5e61e56a2e6f2b11d3180ae3f394f041aa9433fb837e7078bcc9cf1d9",
      "blockHash": "0xb1fa095907a340b9e8e99972eccc651ac9574dba639f41cc4790477d3327fb4b",
      "blockNumber": 105157,
      "transactionIndex": 0,
      "confirmations": null,
      "from": "0x007f7f58D3eb5b7510A301eCC749FC1fCDDBE14D",
      "gasPrice": {
        "_hex": "0xe0cfe7246"
      },
      "gasLimit": {
        "_hex": "0x15f90"
      },
      "to": "0xb1abce2918E21ddb93AA452731a12672A3d9F75a",
      "value": {
        "_hex": "0x4563918244f40000"
      },
      "nonce": 244,
      "data": "0x",
      "r": "0x57aa5443c8ae6f303ce9fc654bafc217d90e2c812e3b85d6592077da602f87c0",
      "s": "0x22fb05f69f5093e4a2d284f0d6feca960db2a2d8b48b8f5fdbd552623e9c8a22",
      "v": 27,
      "creates": null,
      "raw": "0xf86e81f4850e0cfe724683015f9094b1abce2918e21ddb93aa452731a12672a3d9f75a884563918244f40000801ba057aa5443c8ae6f303ce9fc654bafc217d90e2c812e3b85d6592077da602f87c0a022fb05f69f5093e4a2d284f0d6feca960db2a2d8b48b8f5fdbd552623e9c8a22",
      "networkId": 0,
      "chainId": 0
    }
  ]
}