{
  "hash": "0xcba178b982a08af4443de69e62382805253a28ec2730b8436d26b050888d3b64",
  "parentHash": "0xe73e6ebbf5aadf78f6ddb2769b5c57ecba6625d7858926212278e10870b7798b",
  "number": 84090,
  "timestamp": 1439544937,
  "nonce": "0xa96d8d4a2048b9c3",
  "difficulty": 2494879173870,
  "gasLimit": {
    "_hex": "0x2fefd8"
  },
  "gasUsed": {
    "_hex": "0x5208"
  },
  "miner": "0xe6A7a1d47ff21B6321162AEA7C6CB457D5476Bca",
  "extraData": "0x476574682f76312e302e312d38326566323666362f6c696e75782f676f312e34",
  "transactions": [
    {
      "hash": "0x94b5b2b4ae49400f5f85290e05a33157d34d85ae29c79da4746e1c6d4a14f831",
      "blockHash": "0xcba178b982a08af4443de69e62382805253a28ec2730b8436d26b050888d3b64",
      "blockNumber": 84090,
      "transactionIndex": 0,
      "confirmations": null,
      "from": "0x8c6AA882ee322cA848578C06cB0FA911d3608305",
      "gasPrice": {
        "_hex": "0x11208380f96"
      },
      "gasLimit": {
        "_hex": "0x15f90"
      },
      "to": "0x899870bD39d8c7B78cE1Fe1AD54d85Cf3D937795",
      "value": {
        "_hex": "0x16345785d8a0000"
      },
      "nonce": 0,
      "data": "0x",
      "r": "0x6382d602143dd4b674cae586052c8d02ca41bb0a45d83b96b85eef3bd72c097a",
      "s": "0x697f1adcfcecd8c096e709ad2ddf5d95c359604df2c130910d23b7421ded0f4e",
      "v": 28,
      "creates": null,
      "raw": "0xf86e8086011208380f9683015f9094899870bd39d8c7b78ce1fe1ad54d85cf3d93779588016345785d8a0000801ca06382d602143dd4b674cae586052c8d02ca41bb0a45d83b96b85eef3bd72c097aa0697f1adcfcecd8c096e709ad2ddf5d95c359604df2c130910d23b7421ded0f4e",
      "networkId": 0,
      "chainId": 0
    }
  ]
}