{
  "hash": "0x7ae481909c35186bd92506d5a9ac0968fdfa7c6d6d95d256b699263ba01055e6",
  "parentHash": "0x6c0c470991c719dff42954cbb3cdb7daa782071a53064a0840272738072be00c",
  "number": 49186,
  "timestamp": 1438969470,
  "nonce": "0x90c01e9cf23eb62e",
  "difficulty": 1477100180177,
  "gasLimit": {
    "_hex": "0x28455"
  },
  "gasUsed": {
    "_hex": "0x1687b"
  },
  "miner": "0xbe4532E1B1Db5c913Cf553be76180c1777055403",
  "extraData": "0x476574682f686261722f76312e302e312f6c696e75782f676f312e342e32",
  "transactions": [
    {
      "hash": "0x6e5c7be761ce29049f8d97d5ecde95758c546e9b8121fe421c99730d32e77a47",
      "blockHash": "0x7ae481909c35186bd92506d5a9ac0968fdfa7c6d6d95d256b699263ba01055e6",
      "blockNumber": 49186,
      "transactionIndex": 0,
      "confirmations": null,
      "from": "0xA1E4380A3B1f749673E270229993eE55F35663b4",
      "gasPrice": {
        "_hex": "0x2d79883d2000"
      },
      "gasLimit": {
        "_hex": "0x2813a"
      },
      "to": null,
      "value": {
        "_hex": "0x0"
      },
      "nonce": 6,
      "data": "0x60606040526040516102d33803806102d38339016040526060805160600190602001505b806001600050908051906020019082805482825590600052602060002090601f016020900481019282156071579182015b8281111560705782518260005055916020019190600101906054565b5b50905060989190607c565b8082111560945760008181506000905550600101607c565b5090565b50600050505b50610225806100ae6000396000f30060606040526000357c01000000000000000000000000000000000000000000000000000000009004806341c0e1b51461004f578063cfae32171461005c578063f1eae25c146100d55761004d565b005b61005a600450610110565b005b6100676004506101a4565b60405180806020018281038252838181518152602001915080519060200190808383829060006004602084601f0104600302600f01f150905090810190601f1680156100c75780820380516001836020036101000a031916815260200191505b509250505060405180910390f35b6100e06004506100e2565b005b33600060006101000a81548173ffffffffffffffffffffffffffffffffffffffff021916908302179055505b565b600060009054906101000a900473ffffffffffffffffffffffffffffffffffffffff1673ffffffffffffffffffffffffffffffffffffffff163373ffffffffffffffffffffffffffffffffffffffff1614156101a157600060009054906101000a900473ffffffffffffffffffffffffffffffffffffffff1673ffffffffffffffffffffffffffffffffffffffff16ff5b5b565b60206040519081016040528060008152602001506001600050805480601f0160208091040260200160405190810160405280929190818152602001826000508054801561021657820191906000526020600020905b8154815290600101906020018083116101f957829003601f168201915b50505050509050610222565b9056",
      "r": "0xd698f5539e9dd48c2f8b244bfc4e0d8e7fcd282bf2e7350ee357d882f99bdf33",
      "s": "0x70ed8a7c3e716e3fea0573ae44e2d6ed912f40b2c75e9530aad30015ec4572eb",
      "v": 27,
      "creates": "0x235287e634130c4F1357e8D3E48dbBf5161C90A7",
      "raw": "0xf9032706862d79883d20008302813a8080b902d360606040526040516102d33803806102d38339016040526060805160600190602001505b806001600050908051906020019082805482825590600052602060002090601f016020900481019282156071579182015b8281111560705782518260005055916020019190600101906054565b5b50905060989190607c565b8082111560945760008181506000905550600101607c565b5090565b50600050505b50610225806100ae6000396000f30060606040526000357c01000000000000000000000000000000000000000000000000000000009004806341c0e1b51461004f578063cfae32171461005c578063f1eae25c146100d55761004d565b005b61005a600450610110565b005b6100676004506101a4565b60405180806020018281038252838181518152602001915080519060200190808383829060006004602084601f0104600302600f01f150905090810190601f1680156100c75780820380516001836020036101000a031916815260200191505b509250505060405180910390f35b6100e06004506100e2565b005b33600060006101000a81548173ffffffffffffffffffffffffffffffffffffffff021916908302179055505b565b600060009054906101000a900473ffffffffffffffffffffffffffffffffffffffff1673ffffffffffffffffffffffffffffffffffffffff163373ffffffffffffffffffffffffffffffffffffffff1614156101a157600060009054906101000a900473ffffffffffffffffffffffffffffffffffffffff1673ffffffffffffffffffffffffffffffffffffffff16ff5b5b565b60206040519081016040528060008152602001506001600050805480601f0160208091040260200160405190810160405280929190818152602001826000508054801561021657820191906000526020600020905b8154815290600101906020018083116101f957829003601f168201915b50505050509050610222565b90561ba0d698f5539e9dd48c2f8b244bfc4e0d8e7fcd282bf2e7350ee357d882f99bdf33a070ed8a7c3e716e3fea0573ae44e2d6ed912f40b2c75e9530aad30015ec4572eb",
      "networkId": 0,
      "chainId": 0
    },
    {
      "hash": "0x9dd3645676e8e6059d9986a20adf34470cf3e7ba1bda716b4f7512ce64551781",
      "blockHash": "0x7ae481909c35186bd92506d5a9ac0968fdfa7c6d6d95d256b699263ba01055e6",
      "blockNumber": 49186,
      "transactionIndex": 1,
      "confirmations": null,
      "from": "0xf65819aC4cC14c137f05DD7977C7Dae08d1a4Ab5",
      "gasPrice": {
        "_hex": "0x116ed612606"
      },
      "gasLimit": {
        "_hex": "0x15f90"
      },
      "to": "0x3ECA4C63f48B70A3D014Ae5923C520BF3C447e4B",
      "value": {
        "_hex": "0x15af1d78b58c40000"
      },
      "nonce": 1,
      "data": "0x",
      "r": "0x214bd20d316829dc766f6662d99902057052401c8fabcce19f5aaea31d7fb41e",
      "s": "0x36356e89cb4dc06f6b33074347d6c64c2eb8f30e7c03801eccc1077949a10290",
      "v": 27,
      "creates": null,
      "raw": "0xf86f01860116ed61260683015f90943eca4c63f48b70a3d014ae5923c520bf3c447e4b89015af1d78b58c40000801ba0214bd20d316829dc766f6662d99902057052401c8fabcce19f5aaea31d7fb41ea036356e89cb4dc06f6b33074347d6c64c2eb8f30e7c03801eccc1077949a10290",
      "networkId": 0,
      "chainId": 0
    }
  ]
}