{
  "hash": "0x23c435573b8e38b6dd09958016f9f9c4339eb24491b7c9bd3ab962446d081a73",
  "parentHash": "0x85b6bb30f6f1f3b00fca6ea9650415a29b1ff10c80ac55c0668c7dfd5dd490d3",
  "number": 68410,
  "timestamp": 1439287379,
  "nonce": "0xb1c2d9be2354b516",
  "difficulty": 2018273207861,
  "gasLimit": {
    "_hex": "0x2fefd8"
  },
  "gasUsed": {
    "_hex": "0x152f1"
  },
  "miner": "0x39A1BB80a741bF5EC39FB9BE59408Fa0F418fFBf",
  "extraData": "0x476574682f76312e302e312f77696e646f77732f676f312e342e32",
  "transactions": [
    {
      "hash": "0xb624d7db81fb0531040d030d7b53ab99c44c823f86eeb40ee50873ab35797db5",
      "blockHash": "0x23c435573b8e38b6dd09958016f9f9c4339eb24491b7c9bd3ab962446d081a73",
      "blockNumber": 68410,
      "transactionIndex": 0,
      "confirmations": null,
      "from": "0x976349705b839e2F5719387Fb27D2519d519da03",
      "gasPrice": {
        "_hex": "0xdea9a283c"
      },
      "gasLimit": {
        "_hex": "0x15f90"
      },
      "to": "0x125B606C67E8066Da65069652b656c19717745Fa",
      "value": {
        "_hex": "0x21901eea1ccd5a"
      },
      "nonce": 19,
      "data": "0xa55526db",
      "r": "0x4633ae27ef622563f2e76188c3dd8b735aea74476edbbf61924a291e3fb2853a",
      "s": "0x5ad60d4d6d24f1f51943685001b0b1d5f2fb3d5502d7d42aafbb600045e545e4",
      "v": 27,
      "creates": null,
      "raw": "0xf87013850dea9a283c83015f9094125b606c67e8066da65069652b656c19717745fa8721901eea1ccd5a84a55526db1ba04633ae27ef622563f2e76188c3dd8b735aea74476edbbf61924a291e3fb2853aa05ad60d4d6d24f1f51943685001b0b1d5f2fb3d5502d7d42aafbb600045e545e4",
      "networkId": 0,
      "chainId": 0
    },
    {
      "hash": "0x32fd8e138da4317fc6a200de155cdbda58975d37589a286d2dfcd66d53457259",
      "blockHash": "0x23c435573b8e38b6dd09958016f9f9c4339eb24491b7c9bd3ab962446d081a73",
      "blockNumber": 68410,
      "transactionIndex": 1,
      "confirmations": null,
      "from": "0x17580B766f7453525ca4C6A88b01b50570EA088C",
      "gasPrice": {
        "_hex": "0xdce1c16ef"
      },
      "gasLimit": {
        "_hex": "0x61a80"
      },
      "to": "0x5Fe5B7546D1628f7348B023A0393de1FC825A4fD",
      "value": {
        "_hex": "0xde0b6b3a7640000"
      },
      "nonce": 18,
      "data": "0xb595b8b50000000000000000000000000000000000000000000000000000000000000001",
      "r": "0x3435424a4d65ac6beea2369a0d15e56a9f2b4c01e1ac2d3657e211d188e6008f",
      "s": "0x1bbe4594991b977f24b6793b6eed45d43406bd567bd2695bd5cd3a62688c8699",
      "v": 27,
      "creates": null,
      "raw": "0xf89112850dce1c16ef83061a80945fe5b7546d1628f7348b023a0393de1fc825a4fd880de0b6b3a7640000a4b595b8b500000000000000000000000000000000000000000000000000000000000000011ba03435424a4d65ac6beea2369a0d15e56a9f2b4c01e1ac2d3657e211d188e6008fa01bbe4594991b977f24b6793b6eed45d43406bd567bd2695bd5cd3a62688c8699",
      "networkId": 0,
      "chainId": 0
    }
  ]
}