{
  "hash": "0x2764a0aa6f0df82ef6bad70e4a7f052cc591eb62192e98ddebeee51e5fbf4641",
  "parentHash": "0x6e95957b093479b110e69bf3f861a0bf8fc6ae836089ca9a42fd443fb183470b",
  "number": 72225,
  "timestamp": 1439349346,
  "nonce": "0x75687c4dfaf0888e",
  "difficulty": 2175962541512,
  "gasLimit": {
    "_hex": "0x2fefd8"
  },
  "gasUsed": {
    "_hex": "0x93a7"
  },
  "miner": "0xf8E0CA3Ed80bd541b94BEdCf259e8CF2141A9523",
  "extraData": "0x476574682f76312e302e312f77696e646f77732f676f312e342e32",
  "transactions": [
    {
      "hash": "0x43fd446078db8f07d059e36576fe5873f6a3e1a993cc6bfdfce5221c78d3b109",
      "blockHash": "0x2764a0aa6f0df82ef6bad70e4a7f052cc591eb62192e98ddebeee51e5fbf4641",
      "blockNumber": 72225,
      "transactionIndex": 0,
      "confirmations": null,
      "from": "0x17580B766f7453525ca4C6A88b01b50570EA088C",
      "gasPrice": {
        "_hex": "0xd323ecda9"
      },
      "gasLimit": {
        "_hex": "0x61a80"
      },
      "to": "0x5Fe5B7546D1628f7348B023A0393de1FC825A4fD",
      "value": {
        "_hex": "0x8ac7230489e80000"
      },
      "nonce": 394,
      "data": "0xb595b8b50000000000000000000000000000000000000000000000000000000000000000",
      "r": "0x0ca214dd6d6d9aa76cddea1f99fe24be0150154ace0663c97493f59614aaa369",
      "s": "0x60073540aa3f225397208f788d90f28560ae301cc909f5e07d80cc33a3a732bb",
      "v": 28,
      "creates": null,
      "raw": "0xf89382018a850d323ecda983061a80945fe5b7546d1628f7348b023a0393de1fc825a4fd888ac7230489e80000a4b595b8b500000000000000000000000000000000000000000000000000000000000000001ca00ca214dd6d6d9aa76cddea1f99fe24be0150154ace0663c97493f59614aaa369a060073540aa3f225397208f788d90f28560ae301cc909f5e07d80cc33a3a732bb",
      "networkId": 0,
      "chainId": 0
    }
  ]
}