{
  "hash": "0x1b20fd492b77012adf69f72588694a53e4c21700bd0aa3a4febd51015151ea15",
  "parentHash": "0xa8726f4db74edf0c8a7cae3e94eb116e87e8459a0197ff3fd736efc0c188c929",
  "number": 95067,
  "timestamp": 1439718487,
  "nonce": "0x9ee4534778e158c3",
  "difficulty": 3488101300028,
  "gasLimit": {
    "_hex": "0x2fefd8"
  },
  "gasUsed": {
    "_hex": "0x5208"
  },
  "miner": "0x2Ba35e88e18832dc02193849f42586a9A5a7776c",
  "extraData": "0x476574682f76312e302e312f77696e646f77732f676f312e342e32",
  "transactions": [
    {
      "hash": "0x0b2e27a4f958e709c0b397a18a2b591f38932373e82c85bbfbb166c08e422e3f",
      "blockHash": "0x1b20fd492b77012adf69f72588694a53e4c21700bd0aa3a4febd51015151ea15",
      "blockNumber": 95067,
      "transactionIndex": 0,
      "confirmations": null,
      "from": "0x3D5292e9d2a2D31014717ff936A0F9375A5Cc8b7",
      "gasPrice": {
        "_hex": "0xcf07d29f8"
      },
      "gasLimit": {
        "_hex": "0x15f90"
      },
      "to": "0x9f78552704fe7e52cC7C3853534aA2C3cf580D54",
      "value": {
        "_hex": "0x29a2241af62c00000"
      },
      "nonce": 2,
      "data": "0x",
      "r": "0x41932924c3383a78c72e4b87d7c71ad2aef0332299890b74bdae3737f8a3ad31",
      "s": "0x72d90582683439e9ae1a9d19cf98b9a2f1b9a66a7a6821432da908581f7b2273",
      "v": 27,
      "creates": null,
      "raw": "0xf86e02850cf07d29f883015f90949f78552704fe7e52cc7c3853534aa2c3cf580d5489029a2241af62c00000801ba041932924c3383a78c72e4b87d7c71ad2aef0332299890b74bdae3737f8a3ad31a072d90582683439e9ae1a9d19cf98b9a2f1b9a66a7a6821432da908581f7b2273",
      "networkId": 0,
      "chainId": 0
    }
  ]
}