{
  "hash": "0x2b92aa861b851b60c4541e64e187a6f8f28ee2e1f617bd65c4013dacb76fc2a5",
  "parentHash": "0xdabffc5e9535235666cf51fb6c1af2725006eb76f94745ec365d7d4dc1421ad1",
  "number": 46454,
  "timestamp": 1438923335,
  "nonce": "0x131b1dba6812a319",
  "difficulty": 1471820776157,
  "gasLimit": {
    "_hex": "0x61b8"
  },
  "gasUsed": {
    "_hex": "0x5208"
  },
  "miner": "0x9746c7e1ef2bd21FF3997fa467593a89cb852BD0",
  "extraData": "0x476574682f76312e302e312f77696e646f77732f676f312e342e32",
  "transactions": [
    {
      "hash": "0xb82ffd79b261e9b50a8b3a05699921ae6884bccad99df77fc3957b93e41afd67",
      "blockHash": "0x2b92aa861b851b60c4541e64e187a6f8f28ee2e1f617bd65c4013dacb76fc2a5",
      "blockNumber": 46454,
      "transactionIndex": 0,
      "confirmations": null,
      "from": "0xcd39cBcF71Ff4e9592F94db59db4ff45e34b174f",
      "gasPrice": {
        "_hex": "0x746a528800"
      },
      "gasLimit": {
        "_hex": "0x59d8"
      },
      "to": "0x8178414Ff0aba7fD5bC60A72cB17e213b371F35C",
      "value": {
        "_hex": "0x38d7ea4c68000"
      },
      "nonce": 0,
      "data": "0x",
      "r": "0xfb21e0f16b0fc4103c5378c1166775682822c1645a938b9ae8475c78cc42bd64",
      "s": "0x4ef65643f0c5bf7addc3e72ad7b8547abd699c1532ebf170777e3e6b0f4f7f12",
      "v": 27,
      "creates": null,
      "raw": "0xf86b8085746a5288008259d8948178414ff0aba7fd5bc60a72cb17e213b371f35c87038d7ea4c68000801ba0fb21e0f16b0fc4103c5378c1166775682822c1645a938b9ae8475c78cc42bd64a04ef65643f0c5bf7addc3e72ad7b8547abd699c1532ebf170777e3e6b0f4f7f12",
      "networkId": 0,
      "chainId": 0
    }
  ]
}