{
  "hash": "0x8aa78cce8d7d86f7345bb1ea2e1e2fa1ce8852999d7f55c8963fde30ae452874",
  "parentHash": "0x9133105022d9f84a3b20b8670ebca8f5dce392ff5eb9c7224253ecd0e16707ae",
  "number": 80891,
  "timestamp": 1439492811,
  "nonce": "0x5d2a9fc7ed4cf87e",
  "difficulty": 2446362233411,
  "gasLimit": {
    "_hex": "0x2fefd8"
  },
  "gasUsed": {
    "_hex": "0xf618"
  },
  "miner": "0xf927a40C8B7F6E07c5af7FA2155B4864a4112B13",
  "extraData": "0x",
  "transactions": [
    {
      "hash": "0x45c1c803bf8835d55d04e6ef82238389d85030d8a651aa84f4af10bc9b65b791",
      "blockHash": "0x8aa78cce8d7d86f7345bb1ea2e1e2fa1ce8852999d7f55c8963fde30ae452874",
      "blockNumber": 80891,
      "transactionIndex": 0,
      "confirmations": null,
      "from": "0x32Be343B94f860124dC4fEe278FDCBD38C102D88",
      "gasPrice": {
        "_hex": "0xcc0a32711"
      },
      "gasLimit": {
        "_hex": "0x5208"
      },
      "to": "0x654C5Ab883F5816f49a6E6548452520ce62a047d",
      "value": {
        "_hex": "0x1b9de674df070000"
      },
      "nonce": 562,
      "data": "0x",
      "r": "0xa630719a0d3f9df7917d5c72bc3b503f4489ef4a0e65d064e3293a8483109d74",
      "s": "0x4734d620f2c93eda6163ad8a25e42e25cb2d6439b0fe63da75d942e809d05b28",
      "v": 27,
      "creates": null,
      "raw": "0xf86e820232850cc0a3271182520894654c5ab883f5816f49a6e6548452520ce62a047d881b9de674df070000801ba0a630719a0d3f9df7917d5c72bc3b503f4489ef4a0e65d064e3293a8483109d74a04734d620f2c93eda6163ad8a25e42e25cb2d6439b0fe63da75d942e809d05b28",
      "networkId": 0,
      "chainId": 0
    },
    {
      "hash": "0x207cb72142f41dc8f9596f8e60aaea25aed9871eea2e9e3fd678cf6bb6a970bf",
      "blockHash": "0x8aa78cce8d7d86f7345bb1ea2e1e2fa1ce8852999d7f55c8963fde30ae452874",
      "blockNumber": 80891,
      "transactionIndex": 1,
      "confirmations": null,
      "from": "0x32Be343B94f860124dC4fEe278FDCBD38C102D88",
      "gasPrice": {
        "_hex": "0xcc0a32711"
      },
      "gasLimit": {
        "_hex": "0x5208"
      },
      "to": "0xf6621f6B735219b52015CE89756b85f6aC57486e",
      "value": {
        "_hex": "0x470525fcf80ca000"
      },
      "nonce": 563,
      "data": "0x",
      "r": "0x35663ad450aff2bb747d8584841efb3a6685d278c32398bcf274a63065d90c72",
      "s": "0x41756ac8ae2e4f30524f0381778787a912a1c2a9b6bee7aa23bd1d5ca7678684",
      "v": 28,
      "creates": null,
      "raw": "0xf86e820233850cc0a3271182520894f6621f6b735219b52015ce89756b85f6ac57486e88470525fcf80ca000801ca035663ad450aff2bb747d8584841efb3a6685d278c32398bcf274a63065d90c72a041756ac8ae2e4f30524f0381778787a912a1c2a9b6bee7aa23bd1d5ca7678684",
      "networkId": 0,
      "chainId": 0
    },
    {
      "hash": "0x0d82cb784a9c6f0b30807f5d5940e2a9fa320241bb69d839ae90b6ec6b2b3022",
      "blockHash": "0x8aa78cce8d7d86f7345bb1ea2e1e2fa1ce8852999d7f55c8963fde30ae452874",
      "blockNumber": 80891,
      "transactionIndex": 2,
      "confirmations": null,
      "from": "0x32Be343B94f860124dC4fEe278FDCBD38C102D88",
      "gasPrice": {
        "_hex": "0xcc0a32711"
      },
      "gasLimit": {
        "_hex": "0x5208"
      },
      "to": "0x52cAD867237d735C7bC59F916364743cA70e5F35",
      "value": {
        "_hex": "0x1596fa7499688800"
      },
      "nonce": 564,
      "data": "0x",
      "r": "0xe9151f12834b92c2cc400dca79a5278cd8063016c3918915b3192c974575a571",
      "s": "0x5807a121afb2427cdffb609a986efc191640582240a080cee7ac1a0b3da20760",
      "v": 28,
      "creates": null,
      "raw": "0xf86e820234850cc0a327118252089452cad867237d735c7bc59f916364743ca70e5f35881596fa7499688800801ca0e9151f12834b92c2cc400dca79a5278cd8063016c3918915b3192c974575a571a05807a121afb2427cdffb609a986efc191640582240a080cee7ac1a0b3da20760",
      "networkId": 0,
      "chainId": 0
    }
  ]
}