{
  "hash": "0xe2771c61360de49a3c1d333313a7ec1f106fbdd0e1462b8195625b301d76b1e3",
  "parentHash": "0xe3e9e2ae94338472a8000ac9ace8f54b15bc0fbd2ee17694afce13c8a1516a39",
  "number": 90916,
  "timestamp": 1439647422,
  "nonce": "0xb20b93fcb40b5f64",
  "difficulty": 3410650942556,
  "gasLimit": {
    "_hex": "0x2fefd8"
  },
  "gasUsed": {
    "_hex": "0x5208"
  },
  "miner": "0x5A8d4616D25AD4928b08383073adb961A87De5d8",
  "extraData": "0x",
  "transactions": [
    {
      "hash": "0x4d4ef01a499208c687a09c5b97e75923663d0d9c4d03ef8cf2a2476bd15f56a3",
      "blockHash": "0xe2771c61360de49a3c1d333313a7ec1f106fbdd0e1462b8195625b301d76b1e3",
      "blockNumber": 90916,
      "transactionIndex": 0,
      "confirmations": null,
      "from": "0x120A270bbC009644e35F0bB6ab13f95b8199c4ad",
      "gasPrice": {
        "_hex": "0xdfe9812ea"
      },
      "gasLimit": {
        "_hex": "0x3d090"
      },
      "to": "0xc5623FA5c297c05c2d965A336b2068CfA0e567FA",
      "value": {
        "_hex": "0x1eddb39cc8a0808800"
      },
      "nonce": 525,
      "data": "0x",
      "r": "0xb17023e2b3fe8e62891e9b272bc4fac0b6e54e73e572137a1a0647bffa62e8e4",
      "s": "0x36bf297d8ffab4f230fafa4013d2adbad244bc47fccc101f0961fa50e5728e67",
      "v": 28,
      "creates": null,
      "raw": "0xf87082020d850dfe9812ea8303d09094c5623fa5c297c05c2d965a336b2068cfa0e567fa891eddb39cc8a0808800801ca0b17023e2b3fe8e62891e9b272bc4fac0b6e54e73e572137a1a0647bffa62e8e4a036bf297d8ffab4f230fafa4013d2adbad244bc47fccc101f0961fa50e5728e67",
      "networkId": 0,
      "chainId": 0
    }
  ]
}