{
  "hash": "0xb488e471e189a47cde421fdf7ffb7beb0b30cdc5ba93b11ba7cf9a0f65715461",
  "parentHash": "0x161cd8c86fbd8c709e4739c107353e0c63bb2f85575ceecd0353db9a909a6273",
  "number": 98678,
  "timestamp": 1439777270,
  "nonce": "0x346b518e45e79c14",
  "difficulty": 3831151351485,
  "gasLimit": {
    "_hex": "0x2fefd8"
  },
  "gasUsed": {
    "_hex": "0x5208"
  },
  "miner": "0xe6A7a1d47ff21B6321162AEA7C6CB457D5476Bca",
  "extraData": "0x476574682f76312e302e312d38326566323666362f6c696e75782f676f312e34",
  "transactions": [
    {
      "hash": "0x502f85be1a8a30efd37cc36337d39440222773aae6fc8183876a92ca2673234f",
      "blockHash": "0xb488e471e189a47cde421fdf7ffb7beb0b30cdc5ba93b11ba7cf9a0f65715461",
      "blockNumber": 98678,
      "transactionIndex": 0,
      "confirmations": null,
      "from": "0x090041473c833bf54B1197fD120F895C537c26B0",
      "gasPrice": {
        "_hex": "0xd59f5dc84"
      },
      "gasLimit": {
        "_hex": "0x7a120"
      },
      "to": "0x0000000083178E9873ce992f73915EEfa3A27aC5",
      "value": {
        "_hex": "0x3e73362871420000"
      },
      "nonce": 0,
      "data": "0x",
      "r": "0x406cdc8777694d503262c925f1485ab5dbe5d495012c91ab0ea1b60f543b70d1",
      "s": "0x5d055b3527593715f62d12e6abfd1eedea58b3d6bfbb10c88dca6477ae04e497",
      "v": 27,
      "creates": null,
      "raw": "0xf86d80850d59f5dc848307a120940000000083178e9873ce992f73915eefa3a27ac5883e73362871420000801ba0406cdc8777694d503262c925f1485ab5dbe5d495012c91ab0ea1b60f543b70d1a05d055b3527593715f62d12e6abfd1eedea58b3d6bfbb10c88dca6477ae04e497",
      "networkId": 0,
      "chainId": 0
    }
  ]
}