{
  "hash": "0x54895098f0228844e41d37bcddc74173bef0ce09462f809d2bd65e060655bae4",
  "parentHash": "0x7635b06a99168f90f183af48650bd106fdcbba8046ca74e6bea95571a1982502",
  "number": 64737,
  "timestamp": 1439225543,
  "nonce": "0xd5083f94fc97c789",
  "difficulty": 1888505201479,
  "gasLimit": {
    "_hex": "0x2fefd8"
  },
  "gasUsed": {
    "_hex": "0x5208"
  },
  "miner": "0xEF247E639d49461D25F57e9362CadE3120910Ce0",
  "extraData": "0x476574682f76312e302e312f6c696e75782f676f312e342e32",
  "transactions": [
    {
      "hash": "0x44d4f8115060aba3efcbf04c4d58fd7db9ec5bfacf30cb8cb069d8286ee2670e",
      "blockHash": "0x54895098f0228844e41d37bcddc74173bef0ce09462f809d2bd65e060655bae4",
      "blockNumber": 64737,
      "transactionIndex": 0,
      "confirmations": null,
      "from": "0x6DA3bF9AC75f2892b8C1FB8aDD8d27a199104dE0",
      "gasPrice": {
        "_hex": "0xba43b7400"
      },
      "gasLimit": {
        "_hex": "0x5b04"
      },
      "to": "0xb82415923664590236aea1c1912955E7653B9FCa",
      "value": {
        "_hex": "0x5a981d69c5c0000"
      },
      "nonce": 4,
      "data": "0x",
      "r": "0xe11d6ae76f95d619a98ec5f4d494d1f117feec41ed5c0f1b811c00a0fc5f614b",
      "s": "0xd7dae6975c3c1bf2be9f24d62ce5871f8fcd8e9b4a6abd15a1feb0b682552351",
      "v": 27,
      "creates": null,
      "raw": "0xf86c04850ba43b7400825b0494b82415923664590236aea1c1912955e7653b9fca8805a981d69c5c0000801ba0e11d6ae76f95d619a98ec5f4d494d1f117feec41ed5c0f1b811c00a0fc5f614ba0d7dae6975c3c1bf2be9f24d62ce5871f8fcd8e9b4a6abd15a1feb0b682552351",
      "networkId": 0,
      "chainId": 0
    }
  ]
}