{
  "hash": "0xaf9e44ad9a4ca7197b2daa54866644ac46ddecb992d14a4f07bf019f6a577262",
  "parentHash": "0x88c45a7aeb8a2d0ef539f379fd90fe5c97561fb5fcd202054f08809a141fe238",
  "number": 52640,
  "timestamp": 1439024950,
  "nonce": "0xbfa3c674733d2c07",
  "difficulty": 1567119774990,
  "gasLimit": {
    "_hex": "0x16ceea"
  },
  "gasUsed": {
    "_hex": "0xf4240"
  },
  "miner": "0xF2d2AfF1320476cb8C6b607199D23175cc595693",
  "extraData": "0x476574682f76312e302e312f77696e646f77732f676f312e342e32",
  "transactions": [
    {
      "hash": "0x881558c84a7493e1aea7f9c6755099879e78a0932693629feaffb7f07006f545",
      "blockHash": "0xaf9e44ad9a4ca7197b2daa54866644ac46ddecb992d14a4f07bf019f6a577262",
      "blockNumber": 52640,
      "transactionIndex": 0,
      "confirmations": null,
      "from": "0x54dAeb3E8a6BBC797E4aD2b0339f134b186e4637",
      "gasPrice": {
        "_hex": "0xdada9c769"
      },
      "gasLimit": {
        "_hex": "0x7a120"
      },
      "to": "0xBAA54d6E90c3F4d7Ebec11bD180134C7eD8eBb52",
      "value": {
        "_hex": "0x16345785d8a0000"
      },
      "nonce": 837,
      "data": "0x",
      "r": "0xcfe262b365cb19cc75a1a1f9ac3f3365f95bb9b29bf280468f092a866b4f1ccb",
      "s": "0x1161200f486fab76c7e4b1e572e280e51020a59aa1511abe0d85f60590ac0cf8",
      "v": 28,
      "creates": null,
      "raw": "0xf86f820345850dada9c7698307a12094baa54d6e90c3f4d7ebec11bd180134c7ed8ebb5288016345785d8a0000801ca0cfe262b365cb19cc75a1a1f9ac3f3365f95bb9b29bf280468f092a866b4f1ccba01161200f486fab76c7e4b1e572e280e51020a59aa1511abe0d85f60590ac0cf8",
      "networkId": 0,
      "chainId": 0
    },
    {
      "hash": "0x476766aea7662b0d2af291c4e02a4b9fb786d42c7a7e224c6a13b782489e9888",
      "blockHash": "0xaf9e44ad9a4ca7197b2daa54866644ac46ddecb992d14a4f07bf019f6a577262",
      "blockNumber": 52640,
      "transactionIndex": 1,
      "confirmations": null,
      "from": "0x54dAeb3E8a6BBC797E4aD2b0339f134b186e4637",
      "gasPrice": {
        "_hex": "0xdf4ba21f9"
      },
      "gasLimit": {
        "_hex": "0x7a120"
      },
      "to": "0xBAA54d6E90c3F4d7Ebec11bD180134C7eD8eBb52",
      "value": {
        "_hex": "0x16345785d8a0000"
      },
      "nonce": 838,
      "data": "0x",
      "r": "0xa00040a07eec3f689d325de37c2be703a5941e5082f8d438c236893dfc29a435",
      "s": "0x20e4c60baf2bff649c1f1750ed38ea37d9e653d710af54733b38a3615666642d",
      "v": 27,
      "creates": null,
      "raw": "0xf86f820346850df4ba21f98307a12094baa54d6e90c3f4d7ebec11bd180134c7ed8ebb5288016345785d8a0000801ba0a00040a07eec3f689d325de37c2be703a5941e5082f8d438c236893dfc29a435a020e4c60baf2bff649c1f1750ed38ea37d9e653d710af54733b38a3615666642d",
      "networkId": 0,
      "chainId": 0
    }
  ]
}