{
  "hash": "0xdff8cba1151795ab4a73eef36f92cee9443950de4643ab0747f6e44fb6bc698f",
  "parentHash": "0x3d2e97ec5b8cfacfcb6c799f7c603dfd58fa881a9e8adf7339ae7ee3557bf1b3",
  "number": 46586,
  "timestamp": 1438925782,
  "nonce": "0x9fb8910e511205be",
  "difficulty": 1454650653364,
  "gasLimit": {
    "_hex": "0x69bf"
  },
  "gasUsed": {
    "_hex": "0x5208"
  },
  "miner": "0xad5C1768e5974C231b2148169da064e61910f31a",
  "extraData": "0x476574682f76312e302e302f6c696e75782f676f312e342e32",
  "transactions": [
    {
      "hash": "0x23c55db814f335f9354de1fd540c939700c6faa3884a7272178962ca21e4dddc",
      "blockHash": "0xdff8cba1151795ab4a73eef36f92cee9443950de4643ab0747f6e44fb6bc698f",
      "blockNumber": 46586,
      "transactionIndex": 0,
      "confirmations": null,
      "from": "0x0cDA12BF72d461BBc479eB92e6491d057e6B5Ad1",
      "gasPrice": {
        "_hex": "0x68c6171400"
      },
      "gasLimit": {
        "_hex": "0x55f0"
      },
      "to": "0x8DdA5E016e674683241bF671cCeD51e7239EA2bC",
      "value": {
        "_hex": "0x2386f26fc10000"
      },
      "nonce": 4,
      "data": "0x",
      "r": "0xd50aa6d2ae9e2aca17f4ad9b7496761427bcddd46f16d54f2c757d3210dd17b6",
      "s": "0x0611f76038a928c821fdef8d47014a5e9c082de9c91b0a153fb611c71a731d89",
      "v": 28,
      "creates": null,
      "raw": "0xf86b048568c61714008255f0948dda5e016e674683241bf671cced51e7239ea2bc872386f26fc10000801ca0d50aa6d2ae9e2aca17f4ad9b7496761427bcddd46f16d54f2c757d3210dd17b6a00611f76038a928c821fdef8d47014a5e9c082de9c91b0a153fb611c71a731d89",
      "networkId": 0,
      "chainId": 0
    }
  ]
}