{
  "hash": "0x668bb21d7b433da813b408365c8549a985c6ce39c94f4c6ba6de143de1da91c0",
  "parentHash": "0x6f924c7c7eca36c533234c62ed2ee1a08a064a426a83d479b42b9bf754575369",
  "number": 98245,
  "timestamp": 1439769353,
  "nonce": "0x7662071f0f9274bf",
  "difficulty": 3878405136454,
  "gasLimit": {
    "_hex": "0x2fefd8"
  },
  "gasUsed": {
    "_hex": "0x520c"
  },
  "miner": "0xe6A7a1d47ff21B6321162AEA7C6CB457D5476Bca",
  "extraData": "0x476574682f76312e302e312d38326566323666362f6c696e75782f676f312e34",
  "transactions": [
    {
      "hash": "0xe725c7cb0690f93583a9768a514e124e5bb38efcf330214df42eb778b07271f8",
      "blockHash": "0x668bb21d7b433da813b408365c8549a985c6ce39c94f4c6ba6de143de1da91c0",
      "blockNumber": 98245,
      "transactionIndex": 0,
      "confirmations": null,
      "from": "0xb72c2A011c0DF50fbB6e28B20ae1AAD217886790",
      "gasPrice": {
        "_hex": "0xdb7e8bf65"
      },
      "gasLimit": {
        "_hex": "0x7530"
      },
      "to": "0x465c71f4011CF25d35c4A073C12802001F2e6Ee5",
      "value": {
        "_hex": "0xdd280b9144a0000"
      },
      "nonce": 1,
      "data": "0x00",
      "r": "0x29cb51ac40d948aec997765d823305395a2840f35509cb2f5dc1ab6866958b54",
      "s": "0x3347a22c877a186bc275b65fc2e5049ac4f41d2710313cdd731a424fd5d4daa1",
      "v": 27,
      "creates": null,
      "raw": "0xf86c01850db7e8bf6582753094465c71f4011cf25d35c4a073c12802001f2e6ee5880dd280b9144a0000001ba029cb51ac40d948aec997765d823305395a2840f35509cb2f5dc1ab6866958b54a03347a22c877a186bc275b65fc2e5049ac4f41d2710313cdd731a424fd5d4daa1",
      "networkId": 0,
      "chainId": 0
    }
  ]
}