{
  "hash": "0xe908dff80629b8b156199c977f49ace73ea1886ed62bc0587c7dc2a14c598eec",
  "parentHash": "0xe3f31efdd4e2dc9045a19d4df19177b9170d905774c04c59dccb40994683a6e3",
  "number": 62055,
  "timestamp": 1439182799,
  "nonce": "0x7f1f74a18a591485",
  "difficulty": 1740328833842,
  "gasLimit": {
    "_hex": "0x2fefd8"
  },
  "gasUsed": {
    "_hex": "0x5208"
  },
  "miner": "0x9746c7e1ef2bd21FF3997fa467593a89cb852BD0",
  "extraData": "0x476574682f76312e302e312f77696e646f77732f676f312e342e32",
  "transactions": [
    {
      "hash": "0x58621dee1e4f74cede4d4d391edb36708b655385572337214949e38e1697877f",
      "blockHash": "0xe908dff80629b8b156199c977f49ace73ea1886ed62bc0587c7dc2a14c598eec",
      "blockNumber": 62055,
      "transactionIndex": 0,
      "confirmations": null,
      "from": "0x120A270bbC009644e35F0bB6ab13f95b8199c4ad",
      "gasPrice": {
        "_hex": "0xd7d2bd137"
      },
      "gasLimit": {
        "_hex": "0x15f90"
      },
      "to": "0xbF8d8B4eC992203984f7379b001E87E6943Dd5E3",
      "value": {
        "_hex": "0x2b5e3af16b1880000"
      },
      "nonce": 86,
      "data": "0x",
      "r": "0x73f09812c47d4d6e738b0b95c90072f9e5ac1103c4100924c2629384efa43761",
      "s": "0x0221bee3681bd61c7463c34cd5f5e325229e7f43b6ea25edc73a65d395627a22",
      "v": 28,
      "creates": null,
      "raw": "0xf86e56850d7d2bd13783015f9094bf8d8b4ec992203984f7379b001e87e6943dd5e38902b5e3af16b1880000801ca073f09812c47d4d6e738b0b95c90072f9e5ac1103c4100924c2629384efa43761a00221bee3681bd61c7463c34cd5f5e325229e7f43b6ea25edc73a65d395627a22",
      "networkId": 0,
      "chainId": 0
    }
  ]
}