{
  "hash": "0xad9293fb84d99f37c86b88cbb934a368b0ed20937d5aa814573876c7bb344c4b",
  "parentHash": "0x0506637f831d38f7e77cac6aa87a841065aed3e50196aa36b7c537bbbfbf0234",
  "number": 57601,
  "timestamp": 1439106281,
  "nonce": "0x4877ca171c151f7c",
  "difficulty": 1736159258597,
  "gasLimit": {
    "_hex": "0x2fefd8"
  },
  "gasUsed": {
    "_hex": "0x5208"
  },
  "miner": "0x01d9DA08cc6Fb97c0DE1B6F4C28910A0859Ed1A1",
  "extraData": "0x476574682f76312e302e312f6c696e75782f676f312e342e32",
  "transactions": [
    {
      "hash": "0xc92d1857629067e7d2865de49a6b863ccaaee4bbd15697804f90f1accd165309",
      "blockHash": "0xad9293fb84d99f37c86b88cbb934a368b0ed20937d5aa814573876c7bb344c4b",
      "blockNumber": 57601,
      "transactionIndex": 0,
      "confirmations": null,
      "from": "0xaEA7Dd890b77a6DeD1086BF512f2D635E7DA10E6",
      "gasPrice": {
        "_hex": "0x48c27395000"
      },
      "gasLimit": {
        "_hex": "0x5b04"
      },
      "to": "0xCadcea36EC3feB740167E4370777fab1549F8759",
      "value": {
        "_hex": "0x11c7ea162e7820000"
      },
      "nonce": 2,
      "data": "0x",
      "r": "0x465ef4d9ed057e75918d700ab4411a11325f246e9509567266f04b3a830c2d0a",
      "s": "0x90247a9b85750f1c95993bbd0afe083e25134b82512d65fc2702ee69610f20e0",
      "v": 28,
      "creates": null,
      "raw": "0xf86e0286048c27395000825b0494cadcea36ec3feb740167e4370777fab1549f875989011c7ea162e7820000801ca0465ef4d9ed057e75918d700ab4411a11325f246e9509567266f04b3a830c2d0aa090247a9b85750f1c95993bbd0afe083e25134b82512d65fc2702ee69610f20e0",
      "networkId": 0,
      "chainId": 0
    }
  ]
}