{
  "hash": "0xaafcc2694b65a95ec96c49f1e1c912ca9f8ce4115a11e0a474ca9858ec7989d5",
  "parentHash": "0x6df65bf049ff7ef4ecc8c6914e05799f49aefb0b81d95fb20a79da6133abc64a",
  "number": 111104,
  "timestamp": 1439984745,
  "nonce": "0x4eda957280cd7917",
  "difficulty": 4403101100853,
  "gasLimit": {
    "_hex": "0x2fefd8"
  },
  "gasUsed": {
    "_hex": "0x5208"
  },
  "miner": "0xe6A7a1d47ff21B6321162AEA7C6CB457D5476Bca",
  "extraData": "0x476574682f76312e302e312d38326566323666362f6c696e75782f676f312e34",
  "transactions": [
    {
      "hash": "0x6614a760d37da9b0cc5bb6f78a587c3d48581503e79b3cf573b24610e4c14ddf",
      "blockHash": "0xaafcc2694b65a95ec96c49f1e1c912ca9f8ce4115a11e0a474ca9858ec7989d5",
      "blockNumber": 111104,
      "transactionIndex": 0,
      "confirmations": null,
      "from": "0xa70a9a7040d542C632D8e0bE7c5513A8a5Bbc752",
      "gasPrice": {
        "_hex": "0xda8e87ef2"
      },
      "gasLimit": {
        "_hex": "0x5208"
      },
      "to": "0x32Be343B94f860124dC4fEe278FDCBD38C102D88",
      "value": {
        "_hex": "0x478a4d85ac8f1000"
      },
      "nonce": 290,
      "data": "0x",
      "r": "0xa5a352a07b026994caa33337980a87e4e3f2e8630188d531358ca413c72dfc10",
      "s": "0x5f115d61e3a6b0f7dd39aa1308110a689607d94be252971376fb0c174a1bf9a4",
      "v": 27,
      "creates": null,
      "raw": "0xf86e820122850da8e87ef28252089432be343b94f860124dc4fee278fdcbd38c102d8888478a4d85ac8f1000801ba0a5a352a07b026994caa33337980a87e4e3f2e8630188d531358ca413c72dfc10a05f115d61e3a6b0f7dd39aa1308110a689607d94be252971376fb0c174a1bf9a4",
      "networkId": 0,
      "chainId": 0
    }
  ]
}