{
  "hash": "0x9ac45db4b7d85e246b17af537f077a253e5de5efbfb7d498a790945e45c83c9c",
  "parentHash": "0x19df68793cb49f245827c44e154cb90c8721f428a1291c0987c284548cf238c5",
  "number": 67206,
  "timestamp": 1439267829,
  "nonce": "0xf07b52ed80e58f0a",
  "difficulty": 1929891816417,
  "gasLimit": {
    "_hex": "0x2fefd5"
  },
  "gasUsed": {
    "_hex": "0xf618"
  },
  "miner": "0x39A1BB80a741bF5EC39FB9BE59408Fa0F418fFBf",
  "extraData": "0x476574682f76312e302e312f77696e646f77732f676f312e342e32",
  "transactions": [
    {
      "hash": "0x30b0dcae1ca66dd837009fa770f0a60ba2a0141d58b56e6baaac1d3e2eb4bb63",
      "blockHash": "0x9ac45db4b7d85e246b17af537f077a253e5de5efbfb7d498a790945e45c83c9c",
      "blockNumber": 67206,
      "transactionIndex": 0,
      "confirmations": null,
      "from": "0x24307B6ddeB2aA6676D5E5019f501eEDAbe52A83",
      "gasPrice": {
        "_hex": "0x746a528800"
      },
      "gasLimit": {
        "_hex": "0x5b04"
      },
      "to": "0x0d187496799a43E7c43e4324026E32d1Dc80D8E4",
      "value": {
        "_hex": "0xdb75316a7c1e000"
      },
      "nonce": 0,
      "data": "0x",
      "r": "0xa170b8c6399c02d2c305a9da828ee30674cb4e43160f3d46d660a1012ddf53a9",
      "s": "0x4b893903fed2671796cf10f7f704099af9677e0c4431a495231d901a4115f328",
      "v": 27,
      "creates": null,
      "raw": "0xf86c8085746a528800825b04940d187496799a43e7c43e4324026e32d1dc80d8e4880db75316a7c1e000801ba0a170b8c6399c02d2c305a9da828ee30674cb4e43160f3d46d660a1012ddf53a9a04b893903fed2671796cf10f7f704099af9677e0c4431a495231d901a4115f328",
      "networkId": 0,
      "chainId": 0
    },
    {
      "hash": "0x8da5f617b79256c1e4103de4ba08f88c3fe26b4ad318f77f15c11c442ad8bfa7",
      "blockHash": "0x9ac45db4b7d85e246b17af537f077a253e5de5efbfb7d498a790945e45c83c9c",
      "blockNumber": 67206,
      "transactionIndex": 1,
      "confirmations": null,
      "from": "0xD35dB22141772c5b778CaE0ec680EF1fEcF357bD",
      "gasPrice": {
        "_hex": "0xdc57e0b1e"
      },
      "gasLimit": {
        "_hex": "0x55f0"
      },
      "to": "0x29aeA5f51879982Fdb53Fb4F0720823Ed77E49Dc",
      "value": {
        "_hex": "0x4563918244f40000"
      },
      "nonce": 1,
      "data": "0x",
      "r": "0xbd4aa78ed4558876a45c3da6b61e33f99c27a10ad675982dde47684787a66247",
      "s": "0x6458e72f30b19a058acbcb8bf959101d1f6b7afe2aa69ac698b1d266f00aa734",
      "v": 28,
      "creates": null,
      "raw": "0xf86c01850dc57e0b1e8255f09429aea5f51879982fdb53fb4f0720823ed77e49dc884563918244f40000801ca0bd4aa78ed4558876a45c3da6b61e33f99c27a10ad675982dde47684787a66247a06458e72f30b19a058acbcb8bf959101d1f6b7afe2aa69ac698b1d266f00aa734",
      "networkId": 0,
      "chainId": 0
    },
    {
      "hash": "0x5cb09aed9c41759a9f408f3f0d17cac77bb54b45c99a7693e75f4f2f6ff91df1",
      "blockHash": "0x9ac45db4b7d85e246b17af537f077a253e5de5efbfb7d498a790945e45c83c9c",
      "blockNumber": 67206,
      "transactionIndex": 2,
      "confirmations": null,
      "from": "0x32Be343B94f860124dC4fEe278FDCBD38C102D88",
      "gasPrice": {
        "_hex": "0xd0c6375bd"
      },
      "gasLimit": {
        "_hex": "0x5208"
      },
      "to": "0x8F68fbE2DCFf038C24F650C9e05Ee478038171cd",
      "value": {
        "_hex": "0x3635a626d36ee00000"
      },
      "nonce": 208,
      "data": "0x",
      "r": "0xa7dd6b3afc5b1f049d73261b68e7dd9e49aa2d6ba05b6106d99747e4ad6462cd",
      "s": "0x49e0c27371a0c69ab6441da69c3182566f9b6116723467e2123b9a78b494b4cd",
      "v": 27,
      "creates": null,
      "raw": "0xf86e81d0850d0c6375bd825208948f68fbe2dcff038c24f650c9e05ee478038171cd893635a626d36ee00000801ba0a7dd6b3afc5b1f049d73261b68e7dd9e49aa2d6ba05b6106d99747e4ad6462cda049e0c27371a0c69ab6441da69c3182566f9b6116723467e2123b9a78b494b4cd",
      "networkId": 0,
      "chainId": 0
    }
  ]
}