{
  "hash": "0x8584003632e637c0c8c3a8ffe6b89be46b8ed8519a5f08f4b9fa1213d1586f71",
  "parentHash": "0xc4b66657de0f569c00a50a64a7aab2de31307d18522dda0b1280554ea0e9c5eb",
  "number": 99352,
  "timestamp": 1439788556,
  "nonce": "0x3e42d280ae205e21",
  "difficulty": 3797321545351,
  "gasLimit": {
    "_hex": "0x2fefd8"
  },
  "gasUsed": {
    "_hex": "0xa410"
  },
  "miner": "0xe6A7a1d47ff21B6321162AEA7C6CB457D5476Bca",
  "extraData": "0x476574682f76312e302e312d38326566323666362f6c696e75782f676f312e34",
  "transactions": [
    {
      "hash": "0x37b5f58817f0e61d41a463d7fea5021984c0c595ee392612fdbcfb45209c8cc0",
      "blockHash": "0x8584003632e637c0c8c3a8ffe6b89be46b8ed8519a5f08f4b9fa1213d1586f71",
      "blockNumber": 99352,
      "transactionIndex": 0,
      "confirmations": null,
      "from": "0x4D67f4F0Db45b3B5a3424B39ed8d972F710381D5",
      "gasPrice": {
        "_hex": "0xd189e3dc0"
      },
      "gasLimit": {
        "_hex": "0x5208"
      },
      "to": "0x32Be343B94f860124dC4fEe278FDCBD38C102D88",
      "value": {
        "_hex": "0x384a6ebd994716000"
      },
      "nonce": 19,
      "data": "0x",
      "r": "0x44edb8492e5aec4ec3e979f7d744b8e68ef3142f0424bcb252f1da2a1600b60b",
      "s": "0x376c2e6387f509b4afab2f0d3ef8ee52e0feedf1979cfc99a6f1753d06f0fa4d",
      "v": 28,
      "creates": null,
      "raw": "0xf86d13850d189e3dc08252089432be343b94f860124dc4fee278fdcbd38c102d88890384a6ebd994716000801ca044edb8492e5aec4ec3e979f7d744b8e68ef3142f0424bcb252f1da2a1600b60ba0376c2e6387f509b4afab2f0d3ef8ee52e0feedf1979cfc99a6f1753d06f0fa4d",
      "networkId": 0,
      "chainId": 0
    },
    {
      "hash": "0x14fb6bb368d0090ec4d1300ad6942becaba601b01cb1f44be6d20ba1dbfd494b",
      "blockHash": "0x8584003632e637c0c8c3a8ffe6b89be46b8ed8519a5f08f4b9fa1213d1586f71",
      "blockNumber": 99352,
      "transactionIndex": 1,
      "confirmations": null,
      "from": "0x2f86ba8019945f39edE131D38d4d8780884DA553",
      "gasPrice": {
        "_hex": "0xd189e3dc0"
      },
      "gasLimit": {
        "_hex": "0x5208"
      },
      "to": "0x32Be343B94f860124dC4fEe278FDCBD38C102D88",
      "value": {
        "_hex": "0x6c6b8f29402ed80000"
      },
      "nonce": 22,
      "data": "0x",
      "r": "0xed8f387d29d2be466ab36ad70d03cdce6a2c77a79a29e33da06d7ceca30e2572",
      "s": "0x0d1831b47e1c762a13dfdcc03d761511d61b6f6ed01d5d3ecee68f21a38a6f4d",
      "v": 27,
      "creates": null,
      "raw": "0xf86d16850d189e3dc08252089432be343b94f860124dc4fee278fdcbd38c102d88896c6b8f29402ed80000801ba0ed8f387d29d2be466ab36ad70d03cdce6a2c77a79a29e33da06d7ceca30e2572a00d1831b47e1c762a13dfdcc03d761511d61b6f6ed01d5d3ecee68f21a38a6f4d",
      "networkId": 0,
      "chainId": 0
    }
  ]
}