{
  "hash": "0x5adfc497a9f8c0e3db8871118c9bf2396c4f195b26a12eceffdf07e37644df10",
  "parentHash": "0xc0762c6ec0138cdeb3c7a757d91150b86455bc2238d2adc58d6638c63a8c3540",
  "number": 56153,
  "timestamp": 1439082766,
  "nonce": "0xb217b502f3fca5d2",
  "difficulty": 1640838409393,
  "gasLimit": {
    "_hex": "0x2fefd8"
  },
  "gasUsed": {
    "_hex": "0x5208"
  },
  "miner": "0xDB470f0725C7F05F89FA2014c385d81bA9a8679E",
  "extraData": "0x",
  "transactions": [
    {
      "hash": "0xd3b0f773b03beb626bdc0dbecc99c74f9fc8fe2e633eb51a36a8b81132154c5e",
      "blockHash": "0x5adfc497a9f8c0e3db8871118c9bf2396c4f195b26a12eceffdf07e37644df10",
      "blockNumber": 56153,
      "transactionIndex": 0,
      "confirmations": null,
      "from": "0xA8Db0B9b201453333C757F6AD9BCB555c02DA93b",
      "gasPrice": {
        "_hex": "0xda6b01a5c"
      },
      "gasLimit": {
        "_hex": "0x15f90"
      },
      "to": "0x946B4421c64331bdAe148e6F27d66B92612E0BF6",
      "value": {
        "_hex": "0xd2f13f7789f0000"
      },
      "nonce": 2,
      "data": "0x",
      "r": "0x40300f88e34f0e27517e2c41f2ac59db3ba8af3e9af55158445d87805be305a2",
      "s": "0x442f4abbe5f6046cda7cddecf6da3de5b7a6db7cb45cde9c69e8169e7e358736",
      "v": 27,
      "creates": null,
      "raw": "0xf86d02850da6b01a5c83015f9094946b4421c64331bdae148e6f27d66b92612e0bf6880d2f13f7789f0000801ba040300f88e34f0e27517e2c41f2ac59db3ba8af3e9af55158445d87805be305a2a0442f4abbe5f6046cda7cddecf6da3de5b7a6db7cb45cde9c69e8169e7e358736",
      "networkId": 0,
      "chainId": 0
    }
  ]
}