{
  "hash": "0xe64de43ce6decb9cc1a6a4fa20d7af3687dd9830b51ba281291533de16c7dfbe",
  "parentHash": "0x9dff103d7c4a6721feaa2f0d1bd35afdd9bcb32a704ccbeb3df85713a821e8e0",
  "number": 74009,
  "timestamp": 1439378780,
  "nonce": "0x01206acb5cceaabb",
  "difficulty": 2244557613237,
  "gasLimit": {
    "_hex": "0x2fefd8"
  },
  "gasUsed": {
    "_hex": "0xa674"
  },
  "miner": "0x47ff6576639c2e94762eA5443978D7681C0E78DC",
  "extraData": "0x476574682f76312e302e312f6c696e75782f676f312e342e32",
  "transactions": [
    {
      "hash": "0xb4ea48e72a6f641606fdbc1d2658cfd571aa604a2e2b8a83430bf0f47e23589c",
      "blockHash": "0xe64de43ce6decb9cc1a6a4fa20d7af3687dd9830b51ba281291533de16c7dfbe",
      "blockNumber": 74009,
      "transactionIndex": 0,
      "confirmations": null,
      "from": "0xA12E42660746c6a0484965f36D7b4d6a727BDa72",
      "gasPrice": {
        "_hex": "0x10c8fbe6724"
      },
      "gasLimit": {
        "_hex": "0x55f0"
      },
      "to": "0x2910543Af39abA0Cd09dBb2D50200b3E800A63D2",
      "value": {
        "_hex": "0x20f5b1eaad8d80000"
      },
      "nonce": 3,
      "data": "0x454e31445432424d52",
      "r": "0xd76239e866c19a924c449823267aa86389612085b68b1f6ba4c28a2cdfec1f03",
      "s": "0x1092f21b95dd8a7992f743cb024501becc7b15c9c5319195c41aac421909d7a4",
      "v": 27,
      "creates": null,
      "raw": "0xf8770386010c8fbe67248255f0942910543af39aba0cd09dbb2d50200b3e800a63d289020f5b1eaad8d8000089454e31445432424d521ba0d76239e866c19a924c449823267aa86389612085b68b1f6ba4c28a2cdfec1f03a01092f21b95dd8a7992f743cb024501becc7b15c9c5319195c41aac421909d7a4",
      "networkId": 0,
      "chainId": 0
    },
    {
      "hash": "0x7407a47353c789aa4e539591e2eb5da6904cc273ce0ab3d2cd6ff7e889f315b1",
      "blockHash": "0xe64de43ce6decb9cc1a6a4fa20d7af3687dd9830b51ba281291533de16c7dfbe",
      "blockNumber": 74009,
      "transactionIndex": 1,
      "confirmations": null,
      "from": "0x39A1BB80a741bF5EC39FB9BE59408Fa0F418fFBf",
      "gasPrice": {
        "_hex": "0xd34aade94"
      },
      "gasLimit": {
        "_hex": "0x15f90"
      },
      "to": "0x8F79f76381Aad7B98C19aF55eE75fdfEeb012211",
      "value": {
        "_hex": "0xdca825c218b60000"
      },
      "nonce": 8,
      "data": "0x",
      "r": "0x0f22c6466b904bb3dbba10bebb951df226f6456ebbb3c408d5e26652667445ff",
      "s": "0x4c2baa15d8bf4cc972938ebb9e4d3dd4cd5e77fa469baac1582d5ab3a98d172f",
      "v": 28,
      "creates": null,
      "raw": "0xf86d08850d34aade9483015f90948f79f76381aad7b98c19af55ee75fdfeeb01221188dca825c218b60000801ca00f22c6466b904bb3dbba10bebb951df226f6456ebbb3c408d5e26652667445ffa04c2baa15d8bf4cc972938ebb9e4d3dd4cd5e77fa469baac1582d5ab3a98d172f",
      "networkId": 0,
      "chainId": 0
    }
  ]
}