{
  "hash": "0x41f34ef7bc95780fd5841f84503e3930194c9cde7d8ef20a9d7e726abd49fb16",
  "parentHash": "0xedb8fa198ad78e064da71d2a7c96c6b68c7a23b0cc236acb6fab90c467681d19",
  "number": 81733,
  "timestamp": 1439506820,
  "nonce": "0xd2e0a657b55706ef",
  "difficulty": 2424711821971,
  "gasLimit": {
    "_hex": "0x2fefd8"
  },
  "gasUsed": {
    "_hex": "0xa410"
  },
  "miner": "0x123843545FB525C8E134c9A5F15ADA6865cc3848",
  "extraData": "0x476574682f76312e302e312f77696e646f77732f676f312e342e32",
  "transactions": [
    {
      "hash": "0x56e97039962d84b1afb7276cefeb9305e79ef1e72b6a36bbd019fd9e9ed12011",
      "blockHash": "0x41f34ef7bc95780fd5841f84503e3930194c9cde7d8ef20a9d7e726abd49fb16",
      "blockNumber": 81733,
      "transactionIndex": 0,
      "confirmations": null,
      "from": "0x2910543Af39abA0Cd09dBb2D50200b3E800A63D2",
      "gasPrice": {
        "_hex": "0xd0d2bd908"
      },
      "gasLimit": {
        "_hex": "0x5208"
      },
      "to": "0x3faFe90631678f97C1D101ea02D4cd743cBD24ed",
      "value": {
        "_hex": "0x4551ce090d138000"
      },
      "nonce": 498,
      "data": "0x",
      "r": "0x9acc131479eabfa6c2299cb2e6f5b0198457e8009ba54fc119a9bf3e0231f96f",
      "s": "0x2439b3783ca75b33b6ed5517aba66f95ec03a2bb1e83783cc21e2752757d92c7",
      "v": 28,
      "creates": null,
      "raw": "0xf86e8201f2850d0d2bd908825208943fafe90631678f97c1d101ea02d4cd743cbd24ed884551ce090d138000801ca09acc131479eabfa6c2299cb2e6f5b0198457e8009ba54fc119a9bf3e0231f96fa02439b3783ca75b33b6ed5517aba66f95ec03a2bb1e83783cc21e2752757d92c7",
      "networkId": 0,
      "chainId": 0
    },
    {
      "hash": "0xdfe357848244080955872a048930c5d02bcaa2807daff32b71caf123bbe7c93b",
      "blockHash": "0x41f34ef7bc95780fd5841f84503e3930194c9cde7d8ef20a9d7e726abd49fb16",
      "blockNumber": 81733,
      "transactionIndex": 1,
      "confirmations": null,
      "from": "0x077BC4363eBf116c408C421b293cB018d22779fc",
      "gasPrice": {
        "_hex": "0xba43b7400"
      },
      "gasLimit": {
        "_hex": "0x5208"
      },
      "to": "0xC47Aaa860008be6f65B58c6C6E02a84e666EfE31",
      "value": {
        "_hex": "0xe08810adce000"
      },
      "nonce": 1,
      "data": "0x",
      "r": "0xef62e22a882a2c9d0205bf9b90ff01adfd8c4c9484b24c8680f4946e7eedc91f",
      "s": "0x47052f58d1210effe4ef5017793746e60aa03b4d4110453da6d7e59be5fccfb4",
      "v": 27,
      "creates": null,
      "raw": "0xf86b01850ba43b740082520894c47aaa860008be6f65b58c6c6e02a84e666efe31870e08810adce000801ba0ef62e22a882a2c9d0205bf9b90ff01adfd8c4c9484b24c8680f4946e7eedc91fa047052f58d1210effe4ef5017793746e60aa03b4d4110453da6d7e59be5fccfb4",
      "networkId": 0,
      "chainId": 0
    }
  ]
}