{
  "hash": "0x1eb8a83b813d32ee5dfb181300b9d404587d7cdc98b3efce586826d67b2ef667",
  "parentHash": "0xf36be5bd8cde0f927a3fb7ecf626a43246e88a0035ffd95dbefed7ab8a82a52c",
  "number": 48627,
  "timestamp": 1438959996,
  "nonce": "0xe22f637f2fb51f20",
  "difficulty": 1470721261372,
  "gasLimit": {
    "_hex": "0x1ae18"
  },
  "gasUsed": {
    "_hex": "0x546c"
  },
  "miner": "0x580992B51e3925e23280EfB93d3047C82f17E038",
  "extraData": "0x476574682f76312e302e312f6c696e75782f676f312e342e32",
  "transactions": [
    {
      "hash": "0xd975a3cc17685ecb87ab8f854eb592c22d31d73bee90c659466c5809d8682f1e",
      "blockHash": "0x1eb8a83b813d32ee5dfb181300b9d404587d7cdc98b3efce586826d67b2ef667",
      "blockNumber": 48627,
      "transactionIndex": 0,
      "confirmations": null,
      "from": "0x2100381D60a5B54aDC09D19683A8F6D5bB4bFbCb",
      "gasPrice": {
        "_hex": "0xdc676dd1c"
      },
      "gasLimit": {
        "_hex": "0x15f90"
      },
      "to": "0x2910543Af39abA0Cd09dBb2D50200b3E800A63D2",
      "value": {
        "_hex": "0x3635c9adc5dea00000"
      },
      "nonce": 1,
      "data": "0x454e37394b33593930",
      "r": "0x955d4119e4a6446885683f1a06a06c0e543314e1811281bf99175d34c15470b6",
      "s": "0x0156c648c4884e7de4512fad015f767de576fb970d7b3d08d2e266e681632cd0",
      "v": 27,
      "creates": null,
      "raw": "0xf87701850dc676dd1c83015f90942910543af39aba0cd09dbb2d50200b3e800a63d2893635c9adc5dea0000089454e37394b335939301ba0955d4119e4a6446885683f1a06a06c0e543314e1811281bf99175d34c15470b6a00156c648c4884e7de4512fad015f767de576fb970d7b3d08d2e266e681632cd0",
      "networkId": 0,
      "chainId": 0
    }
  ]
}