{
  "hash": "0x90c8d57a7f2a32fe49249335b0818098395ad4a120ad1887a688861237129e62",
  "parentHash": "0x043b6393a7c4559d5986fdb93251fd7e0d8889ef48b789c2e11e8eaf71cf8acc",
  "number": 94655,
  "timestamp": 1439711763,
  "nonce": "0x7f4d38f6b37296e2",
  "difficulty": 3505346853391,
  "gasLimit": {
    "_hex": "0x2fefd8"
  },
  "gasUsed": {
    "_hex": "0x1ec30"
  },
  "miner": "0xA21Ba94e45f0E168dA824fC67aC9cb5Cb577a8aF",
  "extraData": "0x",
  "transactions": [
    {
      "hash": "0x47e3cf5e0c671e289a0a5828c819fe0c71dc39c6eb99a64f41db6813c3528bf9",
      "blockHash": "0x90c8d57a7f2a32fe49249335b0818098395ad4a120ad1887a688861237129e62",
      "blockNumber": 94655,
      "transactionIndex": 0,
      "confirmations": null,
      "from": "0x33F36DffD23cf019833E1d59cBc7138824b12289",
      "gasPrice": {
        "_hex": "0x746a528800"
      },
      "gasLimit": {
        "_hex": "0x5267"
      },
      "to": "0x33F36DffD23cf019833E1d59cBc7138824b12289",
      "value": {
        "_hex": "0x1cdda4faccd0000"
      },
      "nonce": 6,
      "data": "0x",
      "r": "0x1ca92d290990429595b3fde4124a9ca1250bcd54ba9ccc0447187697c9ace3f9",
      "s": "0x15f648e030a80a4c668721062eec3e471961ec5f810e8ac9ef240446ed699a2b",
      "v": 27,
      "creates": null,
      "raw": "0xf86c0685746a5288008252679433f36dffd23cf019833e1d59cbc7138824b122898801cdda4faccd0000801ba01ca92d290990429595b3fde4124a9ca1250bcd54ba9ccc0447187697c9ace3f9a015f648e030a80a4c668721062eec3e471961ec5f810e8ac9ef240446ed699a2b",
      "networkId": 0,
      "chainId": 0
    },
    {
      "hash": "0x9c6e199a9c90b43514bc7963d83f6188037d5b0927bd1064858341a555e3661e",
      "blockHash": "0x90c8d57a7f2a32fe49249335b0818098395ad4a120ad1887a688861237129e62",
      "blockNumber": 94655,
      "transactionIndex": 1,
      "confirmations": null,
      "from": "0x7bC11D546783d2e3b7Bb2241D5f43Fb2611C3B98",
      "gasPrice": {
        "_hex": "0xda658064a"
      },
      "gasLimit": {
        "_hex": "0x5208"
      },
      "to": "0x32Be343B94f860124dC4fEe278FDCBD38C102D88",
      "value": {
        "_hex": "0x1850128ee5f7c800"
      },
      "nonce": 4,
      "data": "0x",
      "r": "0xcb944d523ed1dee54cb20173d27985d6b48ef49560938066a2640ff6f701616e",
      "s": "0x661b3c3994cb9422b2795781de991e7ba8f6d012f8dd277c911ef1ba2c94d9ec",
      "v": 28,
      "creates": null,
      "raw": "0xf86c04850da658064a8252089432be343b94f860124dc4fee278fdcbd38c102d88881850128ee5f7c800801ca0cb944d523ed1dee54cb20173d27985d6b48ef49560938066a2640ff6f701616ea0661b3c3994cb9422b2795781de991e7ba8f6d012f8dd277c911ef1ba2c94d9ec",
      "networkId": 0,
      "chainId": 0
    },
    {
      "hash": "0x17d1da2ed256e8e1ee2adbce224b4dd295503f0f185d594b01eb1d1fde15f9c3",
      "blockHash": "0x90c8d57a7f2a32fe49249335b0818098395ad4a120ad1887a688861237129e62",
      "blockNumber": 94655,
      "transactionIndex": 2,
      "confirmations": null,
      "from": "0x315260950914163880F3AD5A7FEEC87407fa4868",
      "gasPrice": {
        "_hex": "0xda658064a"
      },
      "gasLimit": {
        "_hex": "0x5208"
      },
      "to": "0x32Be343B94f860124dC4fEe278FDCBD38C102D88",
      "value": {
        "_hex": "0x1ac31a249d01f400"
      },
      "nonce": 4,
      "data": "0x",
      "r": "0xfd41a92bbc9f55aeb4900e13a6ff5bd432972f56aff027f4b062215d1f195618",
      "s": "0x5581416aaaf683ac976fb4aa050507c0d3613df4effe1d5773c75a4bcdbe9bce",
      "v": 27,
      "creates": null,
      "raw": "0xf86c04850da658064a8252089432be343b94f860124dc4fee278fdcbd38c102d88881ac31a249d01f400801ba0fd41a92bbc9f55aeb4900e13a6ff5bd432972f56aff027f4b062215d1f195618a05581416aaaf683ac976fb4aa050507c0d3613df4effe1d5773c75a4bcdbe9bce",
      "networkId": 0,
      "chainId": 0
    },
    {
      "hash": "0xd188dd95cac2fb7b5580b4a1711333cb4abd885e4f04e74b0f57253d2cc685d6",
      "blockHash": "0x90c8d57a7f2a32fe49249335b0818098395ad4a120ad1887a688861237129e62",
      "blockNumber": 94655,
      "transactionIndex": 3,
      "confirmations": null,
      "from": "0x3D1d22d2A05a3E9b3792561f2FF5f8D879352d6c",
      "gasPrice": {
        "_hex": "0xda658064a"
      },
      "gasLimit": {
        "_hex": "0x5208"
      },
      "to": "0x32Be343B94f860124dC4fEe278FDCBD38C102D88",
      "value": {
        "_hex": "0x11a7b9f248334c00"
      },
      "nonce": 3,
      "data": "0x",
      "r": "0xeee7bce5dc3331a8f427aabaf603e27ff260bbfa520543989478a3f2633a3960",
      "s": "0x5c0b161f35c887f91ad9b72a53271761f3bae7ef20e74ecf7b02fe09d7a63854",
      "v": 27,
      "creates": null,
      "raw": "0xf86c03850da658064a8252089432be343b94f860124dc4fee278fdcbd38c102d888811a7b9f248334c00801ba0eee7bce5dc3331a8f427aabaf603e27ff260bbfa520543989478a3f2633a3960a05c0b161f35c887f91ad9b72a53271761f3bae7ef20e74ecf7b02fe09d7a63854",
      "networkId": 0,
      "chainId": 0
    },
    {
      "hash": "0xc08d01fa31cc451b4ba34271785ffccf1a3074e2f32b5df8181c2177b294a9d7",
      "blockHash": "0x90c8d57a7f2a32fe49249335b0818098395ad4a120ad1887a688861237129e62",
      "blockNumber": 94655,
      "transactionIndex": 4,
      "confirmations": null,
      "from": "0xe6A7a1d47ff21B6321162AEA7C6CB457D5476Bca",
      "gasPrice": {
        "_hex": "0xcff2d30e5"
      },
      "gasLimit": {
        "_hex": "0x55f0"
      },
      "to": "0x59389A554d044d4b3BED659834A248C59957f168",
      "value": {
        "_hex": "0x41f2a4c8e1ef3b88"
      },
      "nonce": 2731,
      "data": "0x",
      "r": "0xf965533f83e87944a64c1085d28f7ddb2c4edd95c889cb637e56efac71b217ad",
      "s": "0x6f77c7872cebc768b1099c672466505ea3d41a9716f4ef57f7e5e338d9f1199c",
      "v": 28,
      "creates": null,
      "raw": "0xf86e820aab850cff2d30e58255f09459389a554d044d4b3bed659834a248c59957f1688841f2a4c8e1ef3b88801ca0f965533f83e87944a64c1085d28f7ddb2c4edd95c889cb637e56efac71b217ada06f77c7872cebc768b1099c672466505ea3d41a9716f4ef57f7e5e338d9f1199c",
      "networkId": 0,
      "chainId": 0
    },
    {
      "hash": "0x1fd8a6682ee60e6ea6f703f4bb6073d15d787173f26b5d9d9afecd1888f40b03",
      "blockHash": "0x90c8d57a7f2a32fe49249335b0818098395ad4a120ad1887a688861237129e62",
      "blockNumber": 94655,
      "transactionIndex": 5,
      "confirmations": null,
      "from": "0xe6A7a1d47ff21B6321162AEA7C6CB457D5476Bca",
      "gasPrice": {
        "_hex": "0xcdc1bab91"
      },
      "gasLimit": {
        "_hex": "0x55f0"
      },
      "to": "0x8421b6810A1aee71B0baa38D7E1b5de6f71245d2",
      "value": {
        "_hex": "0x425beadae06cc3e0"
      },
      "nonce": 2732,
      "data": "0x",
      "r": "0xeee7058f99b8d46374593fc7897b928209442ad84d5287b0436d1ad0a2215786",
      "s": "0x5e53e202d8b5c029c38babbce790efc88cdc94a19ec736f7133dbc3f1d0eb926",
      "v": 27,
      "creates": null,
      "raw": "0xf86e820aac850cdc1bab918255f0948421b6810a1aee71b0baa38d7e1b5de6f71245d288425beadae06cc3e0801ba0eee7058f99b8d46374593fc7897b928209442ad84d5287b0436d1ad0a2215786a05e53e202d8b5c029c38babbce790efc88cdc94a19ec736f7133dbc3f1d0eb926",
      "networkId": 0,
      "chainId": 0
    }
  ]
}