{
  "hash": "0x615fdb2b240ff2cf820411c238b7c6eaddd29033cc2f69cde03e47de1ca5a684",
  "parentHash": "0xa46e77f2cff88669c9455d2d3f5b34ae8b231688300347d607e35a6bb9cf19dd",
  "number": 90075,
  "timestamp": 1439633861,
  "nonce": "0x330e1307bd1afc03",
  "difficulty": 3340121972181,
  "gasLimit": {
    "_hex": "0x2fefd8"
  },
  "gasUsed": {
    "_hex": "0x8c11"
  },
  "miner": "0xe6A7a1d47ff21B6321162AEA7C6CB457D5476Bca",
  "extraData": "0x476574682f76312e302e312d38326566323666362f6c696e75782f676f312e34",
  "transactions": [
    {
      "hash": "0x7c72857d2f455eceee21b7e1a9d191fc58d0274e049f1df8d3da95f0d3cf9341",
      "blockHash": "0x615fdb2b240ff2cf820411c238b7c6eaddd29033cc2f69cde03e47de1ca5a684",
      "blockNumber": 90075,
      "transactionIndex": 0,
      "confirmations": null,
      "from": "0x063dD253C8da4EA9b12105781C9611b8297F5d14",
      "gasPrice": {
        "_hex": "0xda2b2c122"
      },
      "gasLimit": {
        "_hex": "0x493e0"
      },
      "to": "0xde0B295669a9FD93d5F28D9Ec85E40f4cb697BAe",
      "value": {
        "_hex": "0x0"
      },
      "nonce": 6,
      "data": "0x797af627506218608039ab67bf6ba0fa6fdea7b596d02d1189b72b3d6e2899158bcfff98",
      "r": "0x7a3d209763b296babfaaa48177909ed7d6ddfe2f0c2e75e9207097806b37eabd",
      "s": "0x3fde35987094242c89cb0f82d2c242e4cb051c574c53df4797b85c1ac9a60e01",
      "v": 28,
      "creates": null,
      "raw": "0xf88906850da2b2c122830493e094de0b295669a9fd93d5f28d9ec85e40f4cb697bae80a4797af627506218608039ab67bf6ba0fa6fdea7b596d02d1189b72b3d6e2899158bcfff981ca07a3d209763b296babfaaa48177909ed7d6ddfe2f0c2e75e9207097806b37eabda03fde35987094242c89cb0f82d2c242e4cb051c574c53df4797b85c1ac9a60e01",
      "networkId": 0,
      "chainId": 0
    }
  ]
}