{
  "hash": "0x953ece2ee616a025a9afdd5762edfdfc1c79cd0af4bdb289b47f9ddcea4594ae",
  "parentHash": "0x010e5c505dc286b8c0621af3c7677020f671a8bc6daee33070735624338014f6",
  "number": 47473,
  "timestamp": 1438941046,
  "nonce": "0x6bed22c66cfebd50",
  "difficulty": 1449533909933,
  "gasLimit": {
    "_hex": "0xc2e9"
  },
  "gasUsed": {
    "_hex": "0x5208"
  },
  "miner": "0xbb7B8287f3F0a933474a79eAe42CBCa977791171",
  "extraData": "0x476574682f4c5649562f76312e302e312f6c696e75782f676f312e342e32",
  "transactions": [
    {
      "hash": "0x4b93e089755c7f7970e21a77ff56108b06dd077c9895116f8cad9b9c1616e09f",
      "blockHash": "0x953ece2ee616a025a9afdd5762edfdfc1c79cd0af4bdb289b47f9ddcea4594ae",
      "blockNumber": 47473,
      "transactionIndex": 0,
      "confirmations": null,
      "from": "0x1D889aFF5D57138c9819412d63b5d877567B5936",
      "gasPrice": {
        "_hex": "0x17c0be7c39"
      },
      "gasLimit": {
        "_hex": "0x7530"
      },
      "to": "0xa9f5E7bf6Cbf6fEc55B30850Eb492b47A376d050",
      "value": {
        "_hex": "0xde0b6b3a7640000"
      },
      "nonce": 0,
      "data": "0x",
      "r": "0xbae58bfc325c4f8e21bc7438db5c26f5b5c41d4ea9b701117ffb6ef4d15848ed",
      "s": "0x567f77ddb2f0e539cb796825c102f9422908d8cf91fbee72989b56309a78ecfa",
      "v": 28,
      "creates": null,
      "raw": "0xf86c808517c0be7c3982753094a9f5e7bf6cbf6fec55b30850eb492b47a376d050880de0b6b3a7640000801ca0bae58bfc325c4f8e21bc7438db5c26f5b5c41d4ea9b701117ffb6ef4d15848eda0567f77ddb2f0e539cb796825c102f9422908d8cf91fbee72989b56309a78ecfa",
      "networkId": 0,
      "chainId": 0
    }
  ]
}