{
  "hash": "0x4498de75a24cbb5dfe04a11584cc0493c0e9f5ff09e1ada9ecc63472a740f78f",
  "parentHash": "0xbfa03b28ae767092e46d7ff72067a714ac6da4da2f8b5f42cbfa989323445a3a",
  "number": 68420,
  "timestamp": 1439287612,
  "nonce": "0x64202fb2ab3d9d5d",
  "difficulty": 2012366551714,
  "gasLimit": {
    "_hex": "0x2fefd8"
  },
  "gasUsed": {
    "_hex": "0x5208"
  },
  "miner": "0x9746c7e1ef2bd21FF3997fa467593a89cb852BD0",
  "extraData": "0x476574682f76312e302e312f77696e646f77732f676f312e342e32",
  "transactions": [
    {
      "hash": "0x6b2e4ab8a6262e60fb82508c50ee61198ab4d248274753912b4dc41063963ceb",
      "blockHash": "0x4498de75a24cbb5dfe04a11584cc0493c0e9f5ff09e1ada9ecc63472a740f78f",
      "blockNumber": 68420,
      "transactionIndex": 0,
      "confirmations": null,
      "from": "0x6747f922385c9a6F9cfDf095F34345257DD597bE",
      "gasPrice": {
        "_hex": "0xba43b7400"
      },
      "gasLimit": {
        "_hex": "0x5208"
      },
      "to": "0x684cde0e79BD0C3bE93a8C17659f510f5f0A9CAd",
      "value": {
        "_hex": "0x1fcbfa42bd6000"
      },
      "nonce": 80,
      "data": "0x",
      "r": "0xd5fdbee1d9648c3af4879f771bbb7ca842c40552b49f3a82c1aa42e7ab5a3266",
      "s": "0x2cdeca2d219a64c220d86e218016d9cea1488329f781f56e64083f86db554ea6",
      "v": 27,
      "creates": null,
      "raw": "0xf86b50850ba43b740082520894684cde0e79bd0c3be93a8c17659f510f5f0a9cad871fcbfa42bd6000801ba0d5fdbee1d9648c3af4879f771bbb7ca842c40552b49f3a82c1aa42e7ab5a3266a02cdeca2d219a64c220d86e218016d9cea1488329f781f56e64083f86db554ea6",
      "networkId": 0,
      "chainId": 0
    }
  ]
}