{
  "hash": "0x562315c5997fd96e6d5f1a6d4719558d42a09cf2bd7f73c6f2b83d4da15e24a1",
  "parentHash": "0x1e1d4d01ac159727342f8e136a73394f5c6852e085428359c9d3afbf9a36a6a9",
  "number": 84245,
  "timestamp": 1439546911,
  "nonce": "0x0a9ecff227f5f155",
  "difficulty": 2535358648677,
  "gasLimit": {
    "_hex": "0x2fefd8"
  },
  "gasUsed": {
    "_hex": "0x5208"
  },
  "miner": "0xbb7B8287f3F0a933474a79eAe42CBCa977791171",
  "extraData": "0x476574682f4c5649562f76312e302e312f6c696e75782f676f312e342e32",
  "transactions": [
    {
      "hash": "0x0d84fc3a08bfd8349d91570ea2333d5cf1dae29058fe77f383b7823d941d5b7d",
      "blockHash": "0x562315c5997fd96e6d5f1a6d4719558d42a09cf2bd7f73c6f2b83d4da15e24a1",
      "blockNumber": 84245,
      "transactionIndex": 0,
      "confirmations": null,
      "from": "0x120A270bbC009644e35F0bB6ab13f95b8199c4ad",
      "gasPrice": {
        "_hex": "0xddf82fc0f"
      },
      "gasLimit": {
        "_hex": "0x3d090"
      },
      "to": "0x00B88D679472169CBd35a3d02192Fd24734684b4",
      "value": {
        "_hex": "0x24e4abd8518e48400"
      },
      "nonce": 424,
      "data": "0x",
      "r": "0x37dbe25f3fa387cd5e53d149077024f57d1c5bbd2760700deec13d464397575c",
      "s": "0x63bd106fcf9b5be74985ed59ceaa019a6f593c5bed2a79dbefa13cee839cda01",
      "v": 28,
      "creates": null,
      "raw": "0xf8708201a8850ddf82fc0f8303d0909400b88d679472169cbd35a3d02192fd24734684b489024e4abd8518e48400801ca037dbe25f3fa387cd5e53d149077024f57d1c5bbd2760700deec13d464397575ca063bd106fcf9b5be74985ed59ceaa019a6f593c5bed2a79dbefa13cee839cda01",
      "networkId": 0,
      "chainId": 0
    }
  ]
}