{
  "hash": "0x93808a71478b386343d80d6188ced93c3fd51b06cc3a7e5440543d989804931f",
  "parentHash": "0xc559b6c1dcbfa0fff0e8b715cad2124df0c28c53a6154d403a52d7cb8e4ba34e",
  "number": 119380,
  "timestamp": 1440141836,
  "nonce": "0xa62234197de1052b",
  "difficulty": 4411665135138,
  "gasLimit": {
    "_hex": "0x2fefd8"
  },
  "gasUsed": {
    "_hex": "0x19a28"
  },
  "miner": "0x88D74a59454F6cF3B51ef6b9136AFb6b9D405A88",
  "extraData": "0x",
  "transactions": [
    {
      "hash": "0x4149b9801bba8ed766fdce08a9ba9cef0c5fe0e36b461d336dae2ca4691ad363",
      "blockHash": "0x93808a71478b386343d80d6188ced93c3fd51b06cc3a7e5440543d989804931f",
      "blockNumber": 119380,
      "transactionIndex": 0,
      "confirmations": null,
      "from": "0xe6A7a1d47ff21B6321162AEA7C6CB457D5476Bca",
      "gasPrice": {
        "_hex": "0xba43b7400"
      },
      "gasLimit": {
        "_hex": "0x55f0"
      },
      "to": "0xB0f264dc10CE034cA560a614b1E044C1d91A3bAe",
      "value": {
        "_hex": "0xf443273ce90d374"
      },
      "nonce": 6330,
      "data": "0x",
      "r": "0x83279e58b692e190169440db7b577ed45cc91a005e9aea452ceb110faed6ddf0",
      "s": "0x44a5bd2104879487dc0dbc5e50e9ed1d3c168d04c2d232359866b2948ae969cb",
      "v": 27,
      "creates": null,
      "raw": "0xf86e8218ba850ba43b74008255f094b0f264dc10ce034ca560a614b1e044c1d91a3bae880f443273ce90d374801ba083279e58b692e190169440db7b577ed45cc91a005e9aea452ceb110faed6ddf0a044a5bd2104879487dc0dbc5e50e9ed1d3c168d04c2d232359866b2948ae969cb",
      "networkId": 0,
      "chainId": 0
    },
    {
      "hash": "0xc2a5b0ee922a99630cb583aeb688934e3dcf5ca7bf9f2305737b1cd0dfe0d6f7",
      "blockHash": "0x93808a71478b386343d80d6188ced93c3fd51b06cc3a7e5440543d989804931f",
      "blockNumber": 119380,
      "transactionIndex": 1,
      "confirmations": null,
      "from": "0xa114c802ef29776f05f9c6925cE915232e8ae102",
      "gasPrice": {
        "_hex": "0xba43b7400"
      },
      "gasLimit": {
        "_hex": "0x5208"
      },
      "to": "0x32Be343B94f860124dC4fEe278FDCBD38C102D88",
      "value": {
        "_hex": "0x121c718afa5682000"
      },
      "nonce": 28,
      "data": "0x",
      "r": "0xc37ea9a0ea7c1373d1ecc3b0040ca02cf26bbdba673daceb9fb9f095d132f85d",
      "s": "0x76c50952162f44c6415384c566e62cecd335e9a7f0c6ca0a0a32f2da1bc60326",
      "v": 28,
      "creates": null,
      "raw": "0xf86d1c850ba43b74008252089432be343b94f860124dc4fee278fdcbd38c102d88890121c718afa5682000801ca0c37ea9a0ea7c1373d1ecc3b0040ca02cf26bbdba673daceb9fb9f095d132f85da076c50952162f44c6415384c566e62cecd335e9a7f0c6ca0a0a32f2da1bc60326",
      "networkId": 0,
      "chainId": 0
    },
    {
      "hash": "0xc6d5b159ff6cb91ca3c2a872279c045c0b7b6107dd46bbc966e329f41cee761d",
      "blockHash": "0x93808a71478b386343d80d6188ced93c3fd51b06cc3a7e5440543d989804931f",
      "blockNumber": 119380,
      "transactionIndex": 2,
      "confirmations": null,
      "from": "0xD0317e8d007a61B8d740516E8a268D4faDADccbF",
      "gasPrice": {
        "_hex": "0xba43b7400"
      },
      "gasLimit": {
        "_hex": "0x15f90"
      },
      "to": "0xdeE4977F74E6Aef6D627191c9A45D2627e331150",
      "value": {
        "_hex": "0x8ac7230489e80000"
      },
      "nonce": 11,
      "data": "0x",
      "r": "0xd83cf81380e3aad11614bce9655ced2ef9e91986c3eaa54668d66ebb098d5dff",
      "s": "0x453cba6f28cb4daf835953e571cb98b293e34c487c9a85106f547cfe775c0d7d",
      "v": 28,
      "creates": null,
      "raw": "0xf86d0b850ba43b740083015f9094dee4977f74e6aef6d627191c9a45d2627e331150888ac7230489e80000801ca0d83cf81380e3aad11614bce9655ced2ef9e91986c3eaa54668d66ebb098d5dffa0453cba6f28cb4daf835953e571cb98b293e34c487c9a85106f547cfe775c0d7d",
      "networkId": 0,
      "chainId": 0
    },
    {
      "hash": "0x238938a4576ab9eca0c4a13a6079097fdb91fdd7630a8fb5cb599c1e82ae43c5",
      "blockHash": "0x93808a71478b386343d80d6188ced93c3fd51b06cc3a7e5440543d989804931f",
      "blockNumber": 119380,
      "transactionIndex": 3,
      "confirmations": null,
      "from": "0x701aE497d3522329870Ada714AA902424EA8Da01",
      "gasPrice": {
        "_hex": "0xba43b7400"
      },
      "gasLimit": {
        "_hex": "0x5208"
      },
      "to": "0x32Be343B94f860124dC4fEe278FDCBD38C102D88",
      "value": {
        "_hex": "0xeda9e102c12a9800"
      },
      "nonce": 12,
      "data": "0x",
      "r": "0x8d72d71956a25fe961269c9f893de50f9fb5cd4f62159dc3ba43adb3812817b3",
      "s": "0x69ba22078aef005335252c9ca0fd82ea5485ee8b3c9889e40295fed9eeb22375",
      "v": 27,
      "creates": null,
      "raw": "0xf86c0c850ba43b74008252089432be343b94f860124dc4fee278fdcbd38c102d8888eda9e102c12a9800801ba08d72d71956a25fe961269c9f893de50f9fb5cd4f62159dc3ba43adb3812817b3a069ba22078aef005335252c9ca0fd82ea5485ee8b3c9889e40295fed9eeb22375",
      "networkId": 0,
      "chainId": 0
    },
    {
      "hash": "0x33fd6cee38f1db2e05f13da06008f36ae5c986d75ab551fc199381360a769e86",
      "blockHash": "0x93808a71478b386343d80d6188ced93c3fd51b06cc3a7e5440543d989804931f",
      "blockNumber": 119380,
      "transactionIndex": 4,
      "confirmations": null,
      "from": "0xe6A7a1d47ff21B6321162AEA7C6CB457D5476Bca",
      "gasPrice": {
        "_hex": "0xba43b7400"
      },
      "gasLimit": {
        "_hex": "0x55f0"
      },
      "to": "0x0Ca595962471f3C517a9C71150cB2F722f7298EF",
      "value": {
        "_hex": "0x1165c85112cf84e0"
      },
      "nonce": 6331,
      "data": "0x",
      "r": "0x02a2f15002ae6a9e0d5780f5362741749a645963e8ad1ea10b3da4d0ece9e331",
      "s": "0x0ffea24a51a583697fec5383c02683f73480e34ff96940643f928a10a639bf20",
      "v": 28,
      "creates": null,
      "raw": "0xf86e8218bb850ba43b74008255f0940ca595962471f3c517a9c71150cb2f722f7298ef881165c85112cf84e0801ca002a2f15002ae6a9e0d5780f5362741749a645963e8ad1ea10b3da4d0ece9e331a00ffea24a51a583697fec5383c02683f73480e34ff96940643f928a10a639bf20",
      "networkId": 0,
      "chainId": 0
    }
  ]
}