{
  "hash": "0x027ce80216d81acdb3cf7ecd0bb1040b717457c7e5c1ada261dd7e51e51688c4",
  "parentHash": "0xf52d2290de16934929a4654c0f0ae23ee83c2a5935f2730a0fa80105ee783d7c",
  "number": 73608,
  "timestamp": 1439371775,
  "nonce": "0xbedc3a9d1eccc933",
  "difficulty": 2232640925481,
  "gasLimit": {
    "_hex": "0x2fefd8"
  },
  "gasUsed": {
    "_hex": "0x5208"
  },
  "miner": "0xee5379D0c1ca47327368027455074C26D9952628",
  "extraData": "0x476574682f76312e302e312d38326566323666362f6c696e75782f676f312e34",
  "transactions": [
    {
      "hash": "0xb8b92c1d3ce41c86c7602c86ec42d2d7d70597df746ebb716786934317515d05",
      "blockHash": "0x027ce80216d81acdb3cf7ecd0bb1040b717457c7e5c1ada261dd7e51e51688c4",
      "blockNumber": 73608,
      "transactionIndex": 0,
      "confirmations": null,
      "from": "0xF74E3A98DA22a7bb823245eF230d3cae81a1B46E",
      "gasPrice": {
        "_hex": "0xd7d40ace3"
      },
      "gasLimit": {
        "_hex": "0x15f90"
      },
      "to": "0xC25f24A505b8fEF751D8f4FCc397651001F7a160",
      "value": {
        "_hex": "0x45400a8fd5330000"
      },
      "nonce": 0,
      "data": "0x",
      "r": "0x6533c9cc6c28189c7ec28f122c9df7e209b412fdcb5b1898c166d51fe8cc0295",
      "s": "0x68bb71896b77314a12d16d022d0e9b9697ddbec2a155aadf343b757e406d52fb",
      "v": 28,
      "creates": null,
      "raw": "0xf86d80850d7d40ace383015f9094c25f24a505b8fef751d8f4fcc397651001f7a1608845400a8fd5330000801ca06533c9cc6c28189c7ec28f122c9df7e209b412fdcb5b1898c166d51fe8cc0295a068bb71896b77314a12d16d022d0e9b9697ddbec2a155aadf343b757e406d52fb",
      "networkId": 0,
      "chainId": 0
    }
  ]
}