{
  "hash": "0x9022f0d15ed0421b0d22b3f677b137fa7e8751e8c65ae19fb1696f1244bfe918",
  "parentHash": "0xe5b2b1a4c18b67906d747552441ed9dc843acef46b4c9c32eaa4421cc46fe7f6",
  "number": 72085,
  "timestamp": 1439346954,
  "nonce": "0x9f40d8f814b2459a",
  "difficulty": 2165399759614,
  "gasLimit": {
    "_hex": "0x2fefd8"
  },
  "gasUsed": {
    "_hex": "0x30580"
  },
  "miner": "0x9746c7e1ef2bd21FF3997fa467593a89cb852BD0",
  "extraData": "0x476574682f76312e302e312f77696e646f77732f676f312e342e32",
  "transactions": [
    {
      "hash": "0xc589a41f886a4ded56a5d7d9bdaad2cef9389f4c57f2d91d94e7b5631844e001",
      "blockHash": "0x9022f0d15ed0421b0d22b3f677b137fa7e8751e8c65ae19fb1696f1244bfe918",
      "blockNumber": 72085,
      "transactionIndex": 0,
      "confirmations": null,
      "from": "0xa64015e0870ff579f8827b39b538C1eda5eF25A0",
      "gasPrice": {
        "_hex": "0xdd43a6a22"
      },
      "gasLimit": {
        "_hex": "0x5208"
      },
      "to": "0x32Be343B94f860124dC4fEe278FDCBD38C102D88",
      "value": {
        "_hex": "0x165f20bfda95800"
      },
      "nonce": 0,
      "data": "0x",
      "r": "0x759f9c5fed7b2b6f159ac9fea37c2e2d1bb3292c905bd725929aa7a3603974a7",
      "s": "0x2a81d1ed6ac440d2604b48833eff4349ca89fe93f00a8347b2b9dec188f9390c",
      "v": 27,
      "creates": null,
      "raw": "0xf86c80850dd43a6a228252089432be343b94f860124dc4fee278fdcbd38c102d88880165f20bfda95800801ba0759f9c5fed7b2b6f159ac9fea37c2e2d1bb3292c905bd725929aa7a3603974a7a02a81d1ed6ac440d2604b48833eff4349ca89fe93f00a8347b2b9dec188f9390c",
      "networkId": 0,
      "chainId": 0
    },
    {
      "hash": "0xabbbf36298dea226a0f46871ebed1606145532a55ee0b3876fd7fbcab47e7e87",
      "blockHash": "0x9022f0d15ed0421b0d22b3f677b137fa7e8751e8c65ae19fb1696f1244bfe918",
      "blockNumber": 72085,
      "transactionIndex": 1,
      "confirmations": null,
      "from": "0xF070bCfeD253b1DDd1989C2Db18B5cD92Df0bDc6",
      "gasPrice": {
        "_hex": "0xd829211eb"
      },
      "gasLimit": {
        "_hex": "0xf4240"
      },
      "to": null,
      "value": {
        "_hex": "0x0"
      },
      "nonce": 6,
      "data": "0x606060405260405160208061025a8339016040526060805190602001505b8080602757506127105b600060005060003373ffffffffffffffffffffffffffffffffffffffff168152602001908152602001600020600050819055505b506101ef8061006b6000396000f30060606040526000357c01000000000000000000000000000000000000000000000000000000009004806390b98a1114610044578063bbd39ac01461007157610042565b005b61005b6004803590602001803590602001506100b3565b6040518082815260200191505060405180910390f35b610082600480359060200150610098565b6040518082815260200191505060405180910390f35b60006000506020528060005260406000206000915090505481565b600081600060005060003373ffffffffffffffffffffffffffffffffffffffff1681526020019081526020016000206000505410156100f557600090506101e9565b81600060005060003373ffffffffffffffffffffffffffffffffffffffff16815260200190815260200160002060008282825054039250508190555081600060005060008573ffffffffffffffffffffffffffffffffffffffff1681526020019081526020016000206000828282505401925050819055507f16cdf1707799c6655baac6e210f52b94b7cec08adcaf9ede7dfe8649da926146338484604051808473ffffffffffffffffffffffffffffffffffffffff1681526020018373ffffffffffffffffffffffffffffffffffffffff168152602001828152602001935050505060405180910390a1600190506101e9565b92915050560000000000000000000000000000000000000000000000000000000000000064",
      "r": "0x8b2661244396ceff1b87daca344e0c9af7c83c43fa276f9f1aec96a2bd4a756b",
      "s": "0x4c0907b1dc74dfeb6bfd1f6a5dd4b70f6a5e4285eae32cf0c9344ffe45c97ed3",
      "v": 27,
      "creates": "0x012a5642306B0DeB8D65F281d289998223dfB7C7",
      "raw": "0xf902cd06850d829211eb830f42408080b9027a606060405260405160208061025a8339016040526060805190602001505b8080602757506127105b600060005060003373ffffffffffffffffffffffffffffffffffffffff168152602001908152602001600020600050819055505b506101ef8061006b6000396000f30060606040526000357c01000000000000000000000000000000000000000000000000000000009004806390b98a1114610044578063bbd39ac01461007157610042565b005b61005b6004803590602001803590602001506100b3565b6040518082815260200191505060405180910390f35b610082600480359060200150610098565b6040518082815260200191505060405180910390f35b60006000506020528060005260406000206000915090505481565b600081600060005060003373ffffffffffffffffffffffffffffffffffffffff1681526020019081526020016000206000505410156100f557600090506101e9565b81600060005060003373ffffffffffffffffffffffffffffffffffffffff16815260200190815260200160002060008282825054039250508190555081600060005060008573ffffffffffffffffffffffffffffffffffffffff1681526020019081526020016000206000828282505401925050819055507f16cdf1707799c6655baac6e210f52b94b7cec08adcaf9ede7dfe8649da926146338484604051808473ffffffffffffffffffffffffffffffffffffffff1681526020018373ffffffffffffffffffffffffffffffffffffffff168152602001828152602001935050505060405180910390a1600190506101e9565b929150505600000000000000000000000000000000000000000000000000000000000000641ba08b2661244396ceff1b87daca344e0c9af7c83c43fa276f9f1aec96a2bd4a756ba04c0907b1dc74dfeb6bfd1f6a5dd4b70f6a5e4285eae32cf0c9344ffe45c97ed3",
      "networkId": 0,
      "chainId": 0
    }
  ]
}