{
  "hash": "0xfb14523ec759d181a46caa3320151b61c3ab5cb28f8e29e8f0ddd7fa43e94319",
  "parentHash": "0x14398ae7375b9e244cb97fa13cbd95ed4d742e6357c2659d85ee302e8eba403e",
  "number": 116172,
  "timestamp": 1440069616,
  "nonce": "0x5cbdea80f86d3ff5",
  "difficulty": 4589160576441,
  "gasLimit": {
    "_hex": "0x2fefd8"
  },
  "gasUsed": {
    "_hex": "0x7c28"
  },
  "miner": "0xC603Ab5ef41fC61AA8b76bEddb09e3Cfcbb174BD",
  "extraData": "0x476574682f76312e302e312f77696e646f77732f676f312e342e32",
  "transactions": [
    {
      "hash": "0x481ea35700f3c3be2cb673ed45b3973fdb7753a879a2fcde41b6e7520ddbd33e",
      "blockHash": "0xfb14523ec759d181a46caa3320151b61c3ab5cb28f8e29e8f0ddd7fa43e94319",
      "blockNumber": 116172,
      "transactionIndex": 0,
      "confirmations": null,
      "from": "0x51c6a5F0248d9a4f7CA205080e2BA8b0962Fd8ea",
      "gasPrice": {
        "_hex": "0xdc9030295"
      },
      "gasLimit": {
        "_hex": "0x15f90"
      },
      "to": null,
      "value": {
        "_hex": "0xb1a2bc2ec50000"
      },
      "nonce": 1,
      "data": "0x",
      "r": "0xaa4d1d8c78b9461ec992be65f033a93f0ffdfb28b367f8daa0c202efab5e1d7a",
      "s": "0x4d2604b6b634849ae5a2cda75e105af18bfd4719431fee95b600b8890df6a76c",
      "v": 28,
      "creates": "0x661EFb97E5A16a02d9E56A850DAC945710365787",
      "raw": "0xf85801850dc903029583015f908087b1a2bc2ec50000801ca0aa4d1d8c78b9461ec992be65f033a93f0ffdfb28b367f8daa0c202efab5e1d7aa04d2604b6b634849ae5a2cda75e105af18bfd4719431fee95b600b8890df6a76c",
      "networkId": 0,
      "chainId": 0
    },
    {
      "hash": "0x47ba29b3a6598bc3f3bc79627f87bfee909edf7090314efac26fa58c8f81e916",
      "blockHash": "0xfb14523ec759d181a46caa3320151b61c3ab5cb28f8e29e8f0ddd7fa43e94319",
      "blockNumber": 116172,
      "transactionIndex": 1,
      "confirmations": null,
      "from": "0xf15B7384b900a75f5909f72BE3f0100221d88C1F",
      "gasPrice": {
        "_hex": "0xd4e3b7586"
      },
      "gasLimit": {
        "_hex": "0x15f90"
      },
      "to": "0x49e77Af7f52EEC4B042a52b957c96df1d7c1D31B",
      "value": {
        "_hex": "0x0"
      },
      "nonce": 3,
      "data": "0x41c0e1b5",
      "r": "0xba893c924a6eec16e491494bb79b3a3d48af7c534c94037c3767a8058a257734",
      "s": "0x4e8cbbaaa5f8b00698d5dcfd676582349a7de4a74b42b79bce122472f458babe",
      "v": 28,
      "creates": null,
      "raw": "0xf86903850d4e3b758683015f909449e77af7f52eec4b042a52b957c96df1d7c1d31b808441c0e1b51ca0ba893c924a6eec16e491494bb79b3a3d48af7c534c94037c3767a8058a257734a04e8cbbaaa5f8b00698d5dcfd676582349a7de4a74b42b79bce122472f458babe",
      "networkId": 0,
      "chainId": 0
    }
  ]
}