{
  "hash": "0x03023e30608a3f160f6d963513fae739de0ac53262f694f2c2b56b38d920bbfd",
  "parentHash": "0xbea8d65d30e9f7d33bf99e5781bc80d7cdf00a54521c586d0a39f8e7ff6750fd",
  "number": 85944,
  "timestamp": 1439571186,
  "nonce": "0xc5cea6da9f979c16",
  "difficulty": 2785342532965,
  "gasLimit": {
    "_hex": "0x2fefd8"
  },
  "gasUsed": {
    "_hex": "0x5208"
  },
  "miner": "0x157c6f2431eB1a95797EE86F7d17b3c0FD47A247",
  "extraData": "0x476574682f76312e302e312f77696e646f77732f676f312e342e32",
  "transactions": [
    {
      "hash": "0xb75d642f88d38bde5463b092c21d0454017379ea404a0f9cdb9d6d8b7cf01005",
      "blockHash": "0x03023e30608a3f160f6d963513fae739de0ac53262f694f2c2b56b38d920bbfd",
      "blockNumber": 85944,
      "transactionIndex": 0,
      "confirmations": null,
      "from": "0x2910543Af39abA0Cd09dBb2D50200b3E800A63D2",
      "gasPrice": {
        "_hex": "0xd88d626ce"
      },
      "gasLimit": {
        "_hex": "0x5208"
      },
      "to": "0x6534B8e66572C2822b90301C26Fc221B0AC0efDa",
      "value": {
        "_hex": "0x3b3b745b68c89a2000"
      },
      "nonce": 631,
      "data": "0x",
      "r": "0x5331e36e634a32e38df1f128873a31bf95f8701c27f361e4f2ab73a4c9cde491",
      "s": "0x331946ea17c2d2921cebb3ab472ae8faee14f3dc3841d89159f081b75c8fbbb8",
      "v": 28,
      "creates": null,
      "raw": "0xf86f820277850d88d626ce825208946534b8e66572c2822b90301c26fc221b0ac0efda893b3b745b68c89a2000801ca05331e36e634a32e38df1f128873a31bf95f8701c27f361e4f2ab73a4c9cde491a0331946ea17c2d2921cebb3ab472ae8faee14f3dc3841d89159f081b75c8fbbb8",
      "networkId": 0,
      "chainId": 0
    }
  ]
}