{
  "hash": "0x5206dc844cf58e213061011c6d018a93317b47645b919c353afc9879b74b3cb7",
  "parentHash": "0x27632f0f2a9345c679d22a3e0007d6d686ca9b624fa4f49f7c1a925d3a54a18b",
  "number": 104876,
  "timestamp": 1439877398,
  "nonce": "0x7f4cd18870f455d7",
  "difficulty": 4342295325700,
  "gasLimit": {
    "_hex": "0x2fefd8"
  },
  "gasUsed": {
    "_hex": "0x5208"
  },
  "miner": "0xe6A7a1d47ff21B6321162AEA7C6CB457D5476Bca",
  "extraData": "0x476574682f76312e302e312d38326566323666362f6c696e75782f676f312e34",
  "transactions": [
    {
      "hash": "0xa733c1e5f9627a3b9ef75ffb93a22e6d456d3b4d770d062284bc2aadae10f99c",
      "blockHash": "0x5206dc844cf58e213061011c6d018a93317b47645b919c353afc9879b74b3cb7",
      "blockNumber": 104876,
      "transactionIndex": 0,
      "confirmations": null,
      "from": "0x1308A2e95c0160B90803ddCA9B9a5bb55E416d79",
      "gasPrice": {
        "_hex": "0xd4c82888d"
      },
      "gasLimit": {
        "_hex": "0x15f90"
      },
      "to": "0xFBb1b73C4f0BDa4f67dcA266ce6Ef42f520fBB98",
      "value": {
        "_hex": "0x70af634d9df577d4400"
      },
      "nonce": 171,
      "data": "0x",
      "r": "0x96c8d05f9745e6fe2ecd496be956ed94a0ccc62de9ebadbc40265ebaf1991567",
      "s": "0x58f1eb5e6d0d94d10b4a782ed50f42039ac5d0e7eccc3aa37de6c320861c11a8",
      "v": 28,
      "creates": null,
      "raw": "0xf87081ab850d4c82888d83015f9094fbb1b73c4f0bda4f67dca266ce6ef42f520fbb988a070af634d9df577d4400801ca096c8d05f9745e6fe2ecd496be956ed94a0ccc62de9ebadbc40265ebaf1991567a058f1eb5e6d0d94d10b4a782ed50f42039ac5d0e7eccc3aa37de6c320861c11a8",
      "networkId": 0,
      "chainId": 0
    }
  ]
}