{
  "hash": "0x5b0aac7be9e60e2767fd47ef8c30e8ae118240fa7f2f56dcc2fb48f1572c222c",
  "parentHash": "0xa2c4b8e45f6d1d824d95d4d2f512bebe15d05566b6d2266750f7d17ff709f650",
  "number": 89356,
  "timestamp": 1439622149,
  "nonce": "0xe550b1b7359e3289",
  "difficulty": 3303103783137,
  "gasLimit": {
    "_hex": "0x2fefd8"
  },
  "gasUsed": {
    "_hex": "0x2a49"
  },
  "miner": "0xF11940EA05aA9CC3F13aCF5C5cA6EDCF312E3Aec",
  "extraData": "0x476574682f76312e302e312f77696e646f77732f676f312e342e32",
  "transactions": [
    {
      "hash": "0x4bb5a851b312652826c77fa2a350f21c6e373ca9bd7aab15009b65777a27edc0",
      "blockHash": "0x5b0aac7be9e60e2767fd47ef8c30e8ae118240fa7f2f56dcc2fb48f1572c222c",
      "blockNumber": 89356,
      "transactionIndex": 0,
      "confirmations": null,
      "from": "0x227ca79E7b445f12032e295a64afE0451269BCc3",
      "gasPrice": {
        "_hex": "0xdf3e7e10b"
      },
      "gasLimit": {
        "_hex": "0x249f0"
      },
      "to": "0xc2ac6849Aec3938FB8c9B36F1c07be76f766637E",
      "value": {
        "_hex": "0x0"
      },
      "nonce": 4,
      "data": "0x",
      "r": "0xb6e7b3df697c398c11b293a8a470a33ab000f328675d7c246c59b7c4ad919074",
      "s": "0x6662ec1a40c3c4e73ba0dbf35b58653983468e36c33a70944e93833f2871f5dc",
      "v": 27,
      "creates": null,
      "raw": "0xf86504850df3e7e10b830249f094c2ac6849aec3938fb8c9b36f1c07be76f766637e80801ba0b6e7b3df697c398c11b293a8a470a33ab000f328675d7c246c59b7c4ad919074a06662ec1a40c3c4e73ba0dbf35b58653983468e36c33a70944e93833f2871f5dc",
      "networkId": 0,
      "chainId": 0
    }
  ]
}