{
  "hash": "0x254ec86fd1b95fe91c9d70a155e49b52d6c37a8758cc9ada7ec1ecc9bfea13b4",
  "parentHash": "0xf8ede44afb855d6424e9da2fda7913b4aa3d6ed99870dec7c6f23aaefcd6431b",
  "number": 64649,
  "timestamp": 1439224273,
  "nonce": "0x84a15ec84a4f7f38",
  "difficulty": 1883000321001,
  "gasLimit": {
    "_hex": "0x2fefd8"
  },
  "gasUsed": {
    "_hex": "0x51a98"
  },
  "miner": "0xbb7B8287f3F0a933474a79eAe42CBCa977791171",
  "extraData": "0x476574682f4c5649562f76312e302e312f6c696e75782f676f312e342e32",
  "transactions": [
    {
      "hash": "0x6d9c7841f6abfc39db0d8db0b785530542f555110e79b4143910840bd03302a9",
      "blockHash": "0x254ec86fd1b95fe91c9d70a155e49b52d6c37a8758cc9ada7ec1ecc9bfea13b4",
      "blockNumber": 64649,
      "transactionIndex": 0,
      "confirmations": null,
      "from": "0x39A1BB80a741bF5EC39FB9BE59408Fa0F418fFBf",
      "gasPrice": {
        "_hex": "0xda4de0b36"
      },
      "gasLimit": {
        "_hex": "0x15f90"
      },
      "to": "0x8F79f76381Aad7B98C19aF55eE75fdfEeb012211",
      "value": {
        "_hex": "0xd02ab486cedc00000"
      },
      "nonce": 3,
      "data": "0x",
      "r": "0x01688a64cb53b8fc81507cb14c8087aaefea42150c97518b5597941d7189a180",
      "s": "0x21b0c41d079e5d529ae127caa379098a701d04dd7cf0af5f13222c6e71e3ff38",
      "v": 27,
      "creates": null,
      "raw": "0xf86e03850da4de0b3683015f90948f79f76381aad7b98c19af55ee75fdfeeb012211890d02ab486cedc00000801ba001688a64cb53b8fc81507cb14c8087aaefea42150c97518b5597941d7189a180a021b0c41d079e5d529ae127caa379098a701d04dd7cf0af5f13222c6e71e3ff38",
      "networkId": 0,
      "chainId": 0
    },
    {
      "hash": "0x193b1f66efd05a887ecaf5e56c776fd40a85adb78144c67287239c5cf3fe8dd9",
      "blockHash": "0x254ec86fd1b95fe91c9d70a155e49b52d6c37a8758cc9ada7ec1ecc9bfea13b4",
      "blockNumber": 64649,
      "transactionIndex": 1,
      "confirmations": null,
      "from": "0x8F68fbE2DCFf038C24F650C9e05Ee478038171cd",
      "gasPrice": {
        "_hex": "0xcbc328df0"
      },
      "gasLimit": {
        "_hex": "0x55f0"
      },
      "to": "0x2f86ba8019945f39edE131D38d4d8780884DA553",
      "value": {
        "_hex": "0x3782dace9d900000"
      },
      "nonce": 0,
      "data": "0x",
      "r": "0x002870701672034259cde948170b909bc3d35b40c88c230e9e50d93098898a8d",
      "s": "0x4e954a62b86cfbcf1b4baa031b5a541aaa858d47754133f3cae197d805bd205c",
      "v": 28,
      "creates": null,
      "raw": "0xf86b80850cbc328df08255f0942f86ba8019945f39ede131d38d4d8780884da553883782dace9d900000801c9f2870701672034259cde948170b909bc3d35b40c88c230e9e50d93098898a8da04e954a62b86cfbcf1b4baa031b5a541aaa858d47754133f3cae197d805bd205c",
      "networkId": 0,
      "chainId": 0
    },
    {
      "hash": "0x83e6a9cd5d69fae7320a22550994dc8e94e00f155449e178bd1a5a20d2bf6b54",
      "blockHash": "0x254ec86fd1b95fe91c9d70a155e49b52d6c37a8758cc9ada7ec1ecc9bfea13b4",
      "blockNumber": 64649,
      "transactionIndex": 2,
      "confirmations": null,
      "from": "0xd2FB96411792Df9013F9cD33A0a286062Fe979ae",
      "gasPrice": {
        "_hex": "0xba43b7400"
      },
      "gasLimit": {
        "_hex": "0x15f90"
      },
      "to": "0x793AE8C1b1a160BFc07BFB0d04F85eab1A71F4f2",
      "value": {
        "_hex": "0x0"
      },
      "nonce": 0,
      "data": "0x3ba15036",
      "r": "0x22746909e9c8dbe72275a6965c199b4d7a4ef670572c854e0657bc9eb576866f",
      "s": "0x2725d2c9bfc833a4fb6d9cfe36a89a4a10c03a10d49fecba25e83589730e25fb",
      "v": 28,
      "creates": null,
      "raw": "0xf86980850ba43b740083015f9094793ae8c1b1a160bfc07bfb0d04f85eab1a71f4f280843ba150361ca022746909e9c8dbe72275a6965c199b4d7a4ef670572c854e0657bc9eb576866fa02725d2c9bfc833a4fb6d9cfe36a89a4a10c03a10d49fecba25e83589730e25fb",
      "networkId": 0,
      "chainId": 0
    },
    {
      "hash": "0x1dab296c2f3782d5c3b6af97714d1cf5990d342c9e81606713da163556cb544f",
      "blockHash": "0x254ec86fd1b95fe91c9d70a155e49b52d6c37a8758cc9ada7ec1ecc9bfea13b4",
      "blockNumber": 64649,
      "transactionIndex": 3,
      "confirmations": null,
      "from": "0xca68AB214D6F4955d73018449Fb23292708144b9",
      "gasPrice": {
        "_hex": "0xba43b7400"
      },
      "gasLimit": {
        "_hex": "0x15f90"
      },
      "to": "0x793AE8C1b1a160BFc07BFB0d04F85eab1A71F4f2",
      "value": {
        "_hex": "0x0"
      },
      "nonce": 0,
      "data": "0x3ba15036",
      "r": "0xa6cc9e929804182977492d1c34e5593773dda7c4f86eaa69364f729fc20f3acb",
      "s": "0x2a1805b304725e6783eaa6df3ed279e9139c1993667d27e9f98d458822bf0427",
      "v": 27,
      "creates": null,
      "raw": "0xf86980850ba43b740083015f9094793ae8c1b1a160bfc07bfb0d04f85eab1a71f4f280843ba150361ba0a6cc9e929804182977492d1c34e5593773dda7c4f86eaa69364f729fc20f3acba02a1805b304725e6783eaa6df3ed279e9139c1993667d27e9f98d458822bf0427",
      "networkId": 0,
      "chainId": 0
    },
    {
      "hash": "0x54a0abe9c8c013d7aba4ee1ecb01d6e704bd92a96919296ffb5ccd4b94b0c01d",
      "blockHash": "0x254ec86fd1b95fe91c9d70a155e49b52d6c37a8758cc9ada7ec1ecc9bfea13b4",
      "blockNumber": 64649,
      "transactionIndex": 4,
      "confirmations": null,
      "from": "0x7fE390D2586d7Bdace32D8AFD9E5b5747Ee199AA",
      "gasPrice": {
        "_hex": "0xba43b7400"
      },
      "gasLimit": {
        "_hex": "0x15f90"
      },
      "to": "0x793AE8C1b1a160BFc07BFB0d04F85eab1A71F4f2",
      "value": {
        "_hex": "0x0"
      },
      "nonce": 0,
      "data": "0x3ba15036",
      "r": "0xc7cb4c2fba22ec7e860e5872bdcbf1568cd62dd644442be8e12b4e9e0ac33348",
      "s": "0x0dd2e43232bf404afa6cf65206cfa21cc88c880b052d7e898e0c6338ed1a25b1",
      "v": 28,
      "creates": null,
      "raw": "0xf86980850ba43b740083015f9094793ae8c1b1a160bfc07bfb0d04f85eab1a71f4f280843ba150361ca0c7cb4c2fba22ec7e860e5872bdcbf1568cd62dd644442be8e12b4e9e0ac33348a00dd2e43232bf404afa6cf65206cfa21cc88c880b052d7e898e0c6338ed1a25b1",
      "networkId": 0,
      "chainId": 0
    },
    {
      "hash": "0x8c3363ce12f48ec1fdbb21789c3fe67fc6f8307b9825d7123a10fc57d55979be",
      "blockHash": "0x254ec86fd1b95fe91c9d70a155e49b52d6c37a8758cc9ada7ec1ecc9bfea13b4",
      "blockNumber": 64649,
      "transactionIndex": 5,
      "confirmations": null,
      "from": "0x7F9b04E9cCe8259f1b92abb16C70a89500717169",
      "gasPrice": {
        "_hex": "0xba43b7400"
      },
      "gasLimit": {
        "_hex": "0x15f90"
      },
      "to": "0x793AE8C1b1a160BFc07BFB0d04F85eab1A71F4f2",
      "value": {
        "_hex": "0x0"
      },
      "nonce": 0,
      "data": "0x3ba15036",
      "r": "0x478a5552ff43511945b6113c1a758d68475addd65b7a1ad3e74b6462501881e9",
      "s": "0x537aebf9c05d77d0a67843819ae9fb98c1c4a3beb9061c9c1b82353ecbd4ddf2",
      "v": 27,
      "creates": null,
      "raw": "0xf86980850ba43b740083015f9094793ae8c1b1a160bfc07bfb0d04f85eab1a71f4f280843ba150361ba0478a5552ff43511945b6113c1a758d68475addd65b7a1ad3e74b6462501881e9a0537aebf9c05d77d0a67843819ae9fb98c1c4a3beb9061c9c1b82353ecbd4ddf2",
      "networkId": 0,
      "chainId": 0
    },
    {
      "hash": "0xf844b6f1ae8218aff51f3d570cb97d9e92ed3d42a5809863fdf436dc23e63d87",
      "blockHash": "0x254ec86fd1b95fe91c9d70a155e49b52d6c37a8758cc9ada7ec1ecc9bfea13b4",
      "blockNumber": 64649,
      "transactionIndex": 6,
      "confirmations": null,
      "from": "0x24AD0a32581B3C38472116912EA7eB85DFCbe36F",
      "gasPrice": {
        "_hex": "0xba43b7400"
      },
      "gasLimit": {
        "_hex": "0x15f90"
      },
      "to": "0x793AE8C1b1a160BFc07BFB0d04F85eab1A71F4f2",
      "value": {
        "_hex": "0x0"
      },
      "nonce": 0,
      "data": "0x3ba15036",
      "r": "0xb3032ff9b34e5ca680bc9a567b5013df78fb28b6d8d47e6efb5d50828a51deb6",
      "s": "0x72bed660994b3678a34809d64560211ca149af638ddfae1a5ab70bf020d0bd12",
      "v": 27,
      "creates": null,
      "raw": "0xf86980850ba43b740083015f9094793ae8c1b1a160bfc07bfb0d04f85eab1a71f4f280843ba150361ba0b3032ff9b34e5ca680bc9a567b5013df78fb28b6d8d47e6efb5d50828a51deb6a072bed660994b3678a34809d64560211ca149af638ddfae1a5ab70bf020d0bd12",
      "networkId": 0,
      "chainId": 0
    },
    {
      "hash": "0xb2bf57617150070a7e918c05f674db69d7b4c42cf37fec2ddf7c1e61e058cd0f",
      "blockHash": "0x254ec86fd1b95fe91c9d70a155e49b52d6c37a8758cc9ada7ec1ecc9bfea13b4",
      "blockNumber": 64649,
      "transactionIndex": 7,
      "confirmations": null,
      "from": "0x80A04a053ad887864B6950e4cD899c9D98857a24",
      "gasPrice": {
        "_hex": "0xba43b7400"
      },
      "gasLimit": {
        "_hex": "0x15f90"
      },
      "to": "0x793AE8C1b1a160BFc07BFB0d04F85eab1A71F4f2",
      "value": {
        "_hex": "0x0"
      },
      "nonce": 0,
      "data": "0x3ba15036",
      "r": "0x1f464b7526744072b494232dbba6b6a9a95cb17612c5aeca0983a9da1a4f22c2",
      "s": "0x6748d653e180e0ab6267af0496bed0a5db5950c62651e036687c22a0972b6261",
      "v": 27,
      "creates": null,
      "raw": "0xf86980850ba43b740083015f9094793ae8c1b1a160bfc07bfb0d04f85eab1a71f4f280843ba150361ba01f464b7526744072b494232dbba6b6a9a95cb17612c5aeca0983a9da1a4f22c2a06748d653e180e0ab6267af0496bed0a5db5950c62651e036687c22a0972b6261",
      "networkId": 0,
      "chainId": 0
    }
  ]
}