{
  "hash": "0x34b92009e1064b839d48a4fa5425bebb9d2afc7c355d6ab580e1ecae69bbf8fa",
  "parentHash": "0x9e7ce2263cc4b66495004585336470e9bf1ed460795a28ab2951a74ef6ac1873",
  "number": 100035,
  "timestamp": 1439799634,
  "nonce": "0xd54ad432ab55f607",
  "difficulty": 3858690295797,
  "gasLimit": {
    "_hex": "0x2fefd8"
  },
  "gasUsed": {
    "_hex": "0x42a68"
  },
  "miner": "0x9Fa9952255B2b06639A04D63804d4BdFFf6E2d7e",
  "extraData": "0x476574682f76312e302e312f77696e646f77732f676f312e342e32",
  "transactions": [
    {
      "hash": "0x12f67eef75bb2d165aefb80c965ce1e318f0980b1b4e8c38388fea82ed3ee8c1",
      "blockHash": "0x34b92009e1064b839d48a4fa5425bebb9d2afc7c355d6ab580e1ecae69bbf8fa",
      "blockNumber": 100035,
      "transactionIndex": 0,
      "confirmations": null,
      "from": "0xe6A7a1d47ff21B6321162AEA7C6CB457D5476Bca",
      "gasPrice": {
        "_hex": "0xd79a3006b"
      },
      "gasLimit": {
        "_hex": "0x55f0"
      },
      "to": "0xFd844Aefb4b317E14C180D882Bb0799dd7fa5CCB",
      "value": {
        "_hex": "0xef6ced1057db360"
      },
      "nonce": 3514,
      "data": "0x",
      "r": "0xe9793a66a4da592f2f2e91497fdb494c71555da55d854e19726d197922a5b0d6",
      "s": "0x72eb4bd3275c8b712ac48d525340477cba2679718d97eadc88531ff1863f1a6b",
      "v": 27,
      "creates": null,
      "raw": "0xf86e820dba850d79a3006b8255f094fd844aefb4b317e14c180d882bb0799dd7fa5ccb880ef6ced1057db360801ba0e9793a66a4da592f2f2e91497fdb494c71555da55d854e19726d197922a5b0d6a072eb4bd3275c8b712ac48d525340477cba2679718d97eadc88531ff1863f1a6b",
      "networkId": 0,
      "chainId": 0
    },
    {
      "hash": "0x0c69783894f5caecccbd8f154290ec02bd1e5a2763a6f4ea6630fa61b8f87a0b",
      "blockHash": "0x34b92009e1064b839d48a4fa5425bebb9d2afc7c355d6ab580e1ecae69bbf8fa",
      "blockNumber": 100035,
      "transactionIndex": 1,
      "confirmations": null,
      "from": "0xe6A7a1d47ff21B6321162AEA7C6CB457D5476Bca",
      "gasPrice": {
        "_hex": "0xd79a3006b"
      },
      "gasLimit": {
        "_hex": "0x55f0"
      },
      "to": "0x9653c9859b18f8777Fe4eEc9a67c9F64F3D6F62a",
      "value": {
        "_hex": "0x11f19e05dfe5212c"
      },
      "nonce": 3515,
      "data": "0x",
      "r": "0xbe0062323b9ed9651ab4bc8a05674a9ce391c44eafe4ed8a8f64190c568bbc0f",
      "s": "0x02205cb479a07a8d17476bb059b115427acfc37ac6829bd85a12d62c5421655d",
      "v": 27,
      "creates": null,
      "raw": "0xf86e820dbb850d79a3006b8255f0949653c9859b18f8777fe4eec9a67c9f64f3d6f62a8811f19e05dfe5212c801ba0be0062323b9ed9651ab4bc8a05674a9ce391c44eafe4ed8a8f64190c568bbc0fa002205cb479a07a8d17476bb059b115427acfc37ac6829bd85a12d62c5421655d",
      "networkId": 0,
      "chainId": 0
    },
    {
      "hash": "0x78f2c7c366eb99d76da9e1632be9561d8f5781413c94787628ce9b4f24d04e1c",
      "blockHash": "0x34b92009e1064b839d48a4fa5425bebb9d2afc7c355d6ab580e1ecae69bbf8fa",
      "blockNumber": 100035,
      "transactionIndex": 2,
      "confirmations": null,
      "from": "0xe6A7a1d47ff21B6321162AEA7C6CB457D5476Bca",
      "gasPrice": {
        "_hex": "0xd79a3006b"
      },
      "gasLimit": {
        "_hex": "0x55f0"
      },
      "to": "0xaFF2628417768132E1d04f605Fe1e797f2ECA3F8",
      "value": {
        "_hex": "0x1399f49c0d117ab0"
      },
      "nonce": 3516,
      "data": "0x",
      "r": "0x42db497a17f775a138f359ca081f4c6e9b6dec1b9a855cd944d39f9d67fee2f5",
      "s": "0x798bf1f6e7bdb9a86ad99d89c4df8d67cbbaa58f4bb58aa65c1e843c62df2f95",
      "v": 27,
      "creates": null,
      "raw": "0xf86e820dbc850d79a3006b8255f094aff2628417768132e1d04f605fe1e797f2eca3f8881399f49c0d117ab0801ba042db497a17f775a138f359ca081f4c6e9b6dec1b9a855cd944d39f9d67fee2f5a0798bf1f6e7bdb9a86ad99d89c4df8d67cbbaa58f4bb58aa65c1e843c62df2f95",
      "networkId": 0,
      "chainId": 0
    },
    {
      "hash": "0xc155efa494e1fc0859096505f1f7588cb39f96718c2107cff43d730e23ba77ae",
      "blockHash": "0x34b92009e1064b839d48a4fa5425bebb9d2afc7c355d6ab580e1ecae69bbf8fa",
      "blockNumber": 100035,
      "transactionIndex": 3,
      "confirmations": null,
      "from": "0xe6A7a1d47ff21B6321162AEA7C6CB457D5476Bca",
      "gasPrice": {
        "_hex": "0xd79a3006b"
      },
      "gasLimit": {
        "_hex": "0x55f0"
      },
      "to": "0x47fe9Ce29dA03E8466a067e4321fD32312e39607",
      "value": {
        "_hex": "0x1ab653b2c0e6f1e4"
      },
      "nonce": 3517,
      "data": "0x",
      "r": "0x1e1a2794e9a525cd0b102a7770aff3bc64386703a440d8f63aa90ba649e350ae",
      "s": "0x0bdd5c573c53e0c6d25ccdbaf1901389f6a60c07dd713bcdedb4d1185004676c",
      "v": 28,
      "creates": null,
      "raw": "0xf86e820dbd850d79a3006b8255f09447fe9ce29da03e8466a067e4321fd32312e39607881ab653b2c0e6f1e4801ca01e1a2794e9a525cd0b102a7770aff3bc64386703a440d8f63aa90ba649e350aea00bdd5c573c53e0c6d25ccdbaf1901389f6a60c07dd713bcdedb4d1185004676c",
      "networkId": 0,
      "chainId": 0
    },
    {
      "hash": "0xda62c55ea68c3ecf97834bde75e7cb571078cafe3df54bcc0067b23dd2e3f451",
      "blockHash": "0x34b92009e1064b839d48a4fa5425bebb9d2afc7c355d6ab580e1ecae69bbf8fa",
      "blockNumber": 100035,
      "transactionIndex": 4,
      "confirmations": null,
      "from": "0xe6A7a1d47ff21B6321162AEA7C6CB457D5476Bca",
      "gasPrice": {
        "_hex": "0xd79a3006b"
      },
      "gasLimit": {
        "_hex": "0x55f0"
      },
      "to": "0xd03F6B5b7FBCf7Dd4DEE4919543236c733546a2A",
      "value": {
        "_hex": "0x1cd3b1cfdb0c20e0"
      },
      "nonce": 3518,
      "data": "0x",
      "r": "0x9161797cf4ce866de4351913627d9b413605fd3e868348167c81d1f7bebee7a7",
      "s": "0x20570c7fb2466caa03809ac10ac78a477ddcc1a129f15cc3cbb7cb2a1742f354",
      "v": 27,
      "creates": null,
      "raw": "0xf86e820dbe850d79a3006b8255f094d03f6b5b7fbcf7dd4dee4919543236c733546a2a881cd3b1cfdb0c20e0801ba09161797cf4ce866de4351913627d9b413605fd3e868348167c81d1f7bebee7a7a020570c7fb2466caa03809ac10ac78a477ddcc1a129f15cc3cbb7cb2a1742f354",
      "networkId": 0,
      "chainId": 0
    },
    {
      "hash": "0xb0ee9956292071985ad085bf313758ed89d2f62fd5de40df3861edf9803778a9",
      "blockHash": "0x34b92009e1064b839d48a4fa5425bebb9d2afc7c355d6ab580e1ecae69bbf8fa",
      "blockNumber": 100035,
      "transactionIndex": 5,
      "confirmations": null,
      "from": "0xe6A7a1d47ff21B6321162AEA7C6CB457D5476Bca",
      "gasPrice": {
        "_hex": "0xd79a3006b"
      },
      "gasLimit": {
        "_hex": "0x55f0"
      },
      "to": "0x0C9A9E318c2FbF98388cCC81141392c066fbbC19",
      "value": {
        "_hex": "0x21318a15bcad3dd4"
      },
      "nonce": 3519,
      "data": "0x",
      "r": "0x8c32194f8697baf6f70a8482e2724d531026fd181cea203e670aeb9997b67ed6",
      "s": "0x57ff628b0bb1c1f68e09743d51de8ff7c887786834080de0974b07b961876583",
      "v": 27,
      "creates": null,
      "raw": "0xf86e820dbf850d79a3006b8255f0940c9a9e318c2fbf98388ccc81141392c066fbbc198821318a15bcad3dd4801ba08c32194f8697baf6f70a8482e2724d531026fd181cea203e670aeb9997b67ed6a057ff628b0bb1c1f68e09743d51de8ff7c887786834080de0974b07b961876583",
      "networkId": 0,
      "chainId": 0
    },
    {
      "hash": "0xab956063ba5aad2426c70742bb046342bbda72ba4bec31072fc9ccd42c2a9ce1",
      "blockHash": "0x34b92009e1064b839d48a4fa5425bebb9d2afc7c355d6ab580e1ecae69bbf8fa",
      "blockNumber": 100035,
      "transactionIndex": 6,
      "confirmations": null,
      "from": "0xe6A7a1d47ff21B6321162AEA7C6CB457D5476Bca",
      "gasPrice": {
        "_hex": "0xd79a3006b"
      },
      "gasLimit": {
        "_hex": "0x55f0"
      },
      "to": "0x468569500925D53e06Dd0993014aD166fD7Dd381",
      "value": {
        "_hex": "0x215cea0e3a3f1668"
      },
      "nonce": 3520,
      "data": "0x",
      "r": "0x2e0c0e14572069d0c7d787bc389086eae25d6a185206e5f86650fa6546343398",
      "s": "0x2721f08e0ffb0b9995fe6524a4addce0fddca6180915c1d2acaf44838eecf723",
      "v": 27,
      "creates": null,
      "raw": "0xf86e820dc0850d79a3006b8255f094468569500925d53e06dd0993014ad166fd7dd38188215cea0e3a3f1668801ba02e0c0e14572069d0c7d787bc389086eae25d6a185206e5f86650fa6546343398a02721f08e0ffb0b9995fe6524a4addce0fddca6180915c1d2acaf44838eecf723",
      "networkId": 0,
      "chainId": 0
    },
    {
      "hash": "0xaa94663abce303850512b859f60f9ac8ddb9c67408d0bc36a64c91bc5deaa199",
      "blockHash": "0x34b92009e1064b839d48a4fa5425bebb9d2afc7c355d6ab580e1ecae69bbf8fa",
      "blockNumber": 100035,
      "transactionIndex": 7,
      "confirmations": null,
      "from": "0xe6A7a1d47ff21B6321162AEA7C6CB457D5476Bca",
      "gasPrice": {
        "_hex": "0xd79a3006b"
      },
      "gasLimit": {
        "_hex": "0x55f0"
      },
      "to": "0x20b2a17fFa355d7Bcb269812A39e8F57D750A5b3",
      "value": {
        "_hex": "0x22a6d975c68fe5d8"
      },
      "nonce": 3521,
      "data": "0x",
      "r": "0x62f7e95b0e0e2e12d48fa8de13b782db4d710c01fac5c9801438a346c9a587e0",
      "s": "0x0443309fb2aa16a065c030bb89c73f4ac55c6a12c2156fb6ed749f617a9f5a4f",
      "v": 28,
      "creates": null,
      "raw": "0xf86e820dc1850d79a3006b8255f09420b2a17ffa355d7bcb269812a39e8f57d750a5b38822a6d975c68fe5d8801ca062f7e95b0e0e2e12d48fa8de13b782db4d710c01fac5c9801438a346c9a587e0a00443309fb2aa16a065c030bb89c73f4ac55c6a12c2156fb6ed749f617a9f5a4f",
      "networkId": 0,
      "chainId": 0
    },
    {
      "hash": "0x6ab7f84165d78faf167e5557cd8cd4fbdb3d0d95213dedcf9936f2587b51f218",
      "blockHash": "0x34b92009e1064b839d48a4fa5425bebb9d2afc7c355d6ab580e1ecae69bbf8fa",
      "blockNumber": 100035,
      "transactionIndex": 8,
      "confirmations": null,
      "from": "0xe6A7a1d47ff21B6321162AEA7C6CB457D5476Bca",
      "gasPrice": {
        "_hex": "0xd54f792ff"
      },
      "gasLimit": {
        "_hex": "0x55f0"
      },
      "to": "0x297d128041190ec4D477Cd476D194eFcA4E9cf67",
      "value": {
        "_hex": "0x23bc8b93e09b3ae0"
      },
      "nonce": 3522,
      "data": "0x",
      "r": "0x0a033046fbb31b09917a8b5bf22e26acce8c47a906db9cdbd6775ed8e7f112b3",
      "s": "0x327615c7c2ac8326cbc1299eb0caf149b731232abc2ba255212436b03d9969f0",
      "v": 27,
      "creates": null,
      "raw": "0xf86e820dc2850d54f792ff8255f094297d128041190ec4d477cd476d194efca4e9cf678823bc8b93e09b3ae0801ba00a033046fbb31b09917a8b5bf22e26acce8c47a906db9cdbd6775ed8e7f112b3a0327615c7c2ac8326cbc1299eb0caf149b731232abc2ba255212436b03d9969f0",
      "networkId": 0,
      "chainId": 0
    },
    {
      "hash": "0x49d0a2663afa3f51ef6880847a35d60573a17363404712b5612f95ada61b6f19",
      "blockHash": "0x34b92009e1064b839d48a4fa5425bebb9d2afc7c355d6ab580e1ecae69bbf8fa",
      "blockNumber": 100035,
      "transactionIndex": 9,
      "confirmations": null,
      "from": "0xe6A7a1d47ff21B6321162AEA7C6CB457D5476Bca",
      "gasPrice": {
        "_hex": "0xd54f792ff"
      },
      "gasLimit": {
        "_hex": "0x55f0"
      },
      "to": "0x5c34E9095588400B7CFF963daa495eFbEFCa083E",
      "value": {
        "_hex": "0x24f99bf253585fe8"
      },
      "nonce": 3523,
      "data": "0x",
      "r": "0xca523df8f6d15d1bf6fb08334c4ac4b6cdd838fcf8c9d686e2216417b14303da",
      "s": "0x6f6960267da1695a856226b2e713ccfce8c4c21ea792ccf3b65db2641de8364f",
      "v": 28,
      "creates": null,
      "raw": "0xf86e820dc3850d54f792ff8255f0945c34e9095588400b7cff963daa495efbefca083e8824f99bf253585fe8801ca0ca523df8f6d15d1bf6fb08334c4ac4b6cdd838fcf8c9d686e2216417b14303daa06f6960267da1695a856226b2e713ccfce8c4c21ea792ccf3b65db2641de8364f",
      "networkId": 0,
      "chainId": 0
    },
    {
      "hash": "0x21f60c8940bb12b4a14ad52bd9d246d5622e717f0bed59a72052edd1fee79789",
      "blockHash": "0x34b92009e1064b839d48a4fa5425bebb9d2afc7c355d6ab580e1ecae69bbf8fa",
      "blockNumber": 100035,
      "transactionIndex": 10,
      "confirmations": null,
      "from": "0xe6A7a1d47ff21B6321162AEA7C6CB457D5476Bca",
      "gasPrice": {
        "_hex": "0xd54f792ff"
      },
      "gasLimit": {
        "_hex": "0x55f0"
      },
      "to": "0x95B8Be50517B180F2F101f1cFe0E4C66Ad6fa7dd",
      "value": {
        "_hex": "0x27f90f731af3c998"
      },
      "nonce": 3524,
      "data": "0x",
      "r": "0x005ab759a3be33948e0934123cc737a0eff8f17fb3746fba14d93df224fb9a9d",
      "s": "0x40dbecddd149e8e544e091fd0e059fa611cdd4f5b793db9cae93c6acddfc8331",
      "v": 27,
      "creates": null,
      "raw": "0xf86d820dc4850d54f792ff8255f09495b8be50517b180f2f101f1cfe0e4c66ad6fa7dd8827f90f731af3c998801b9f5ab759a3be33948e0934123cc737a0eff8f17fb3746fba14d93df224fb9a9da040dbecddd149e8e544e091fd0e059fa611cdd4f5b793db9cae93c6acddfc8331",
      "networkId": 0,
      "chainId": 0
    },
    {
      "hash": "0x3cd26aacb5fbcaa3fd6d4b147c438316e36ccfc81001478dc471ae60cf85e269",
      "blockHash": "0x34b92009e1064b839d48a4fa5425bebb9d2afc7c355d6ab580e1ecae69bbf8fa",
      "blockNumber": 100035,
      "transactionIndex": 11,
      "confirmations": null,
      "from": "0xe6A7a1d47ff21B6321162AEA7C6CB457D5476Bca",
      "gasPrice": {
        "_hex": "0xd54f792ff"
      },
      "gasLimit": {
        "_hex": "0x55f0"
      },
      "to": "0xE7dAdedf7cEBAaBa85903823D254601B1D459C9B",
      "value": {
        "_hex": "0x43187a1908c08040"
      },
      "nonce": 3525,
      "data": "0x",
      "r": "0xdc680d15e9da9180222bfda3507de44351567cd78dcc8c03a5600a457aa0e832",
      "s": "0x46e905856f67ba93ad98bafd77de0feec7c830ffd6bf84a8baa76958338655de",
      "v": 28,
      "creates": null,
      "raw": "0xf86e820dc5850d54f792ff8255f094e7dadedf7cebaaba85903823d254601b1d459c9b8843187a1908c08040801ca0dc680d15e9da9180222bfda3507de44351567cd78dcc8c03a5600a457aa0e832a046e905856f67ba93ad98bafd77de0feec7c830ffd6bf84a8baa76958338655de",
      "networkId": 0,
      "chainId": 0
    },
    {
      "hash": "0x1bf6487228eba4c45a1bb653653724c963188a0bd440f37a1d55abe20ac637cd",
      "blockHash": "0x34b92009e1064b839d48a4fa5425bebb9d2afc7c355d6ab580e1ecae69bbf8fa",
      "blockNumber": 100035,
      "transactionIndex": 12,
      "confirmations": null,
      "from": "0xe6A7a1d47ff21B6321162AEA7C6CB457D5476Bca",
      "gasPrice": {
        "_hex": "0xd54f792ff"
      },
      "gasLimit": {
        "_hex": "0x55f0"
      },
      "to": "0x34BDAF0a5ed72734a4c4c6CE6Cc8132EC81fb2a8",
      "value": {
        "_hex": "0x4cab9433ba3f0320"
      },
      "nonce": 3526,
      "data": "0x",
      "r": "0x551571086a27ec250b0eb3b9f282fecd3292200f20d823576dfd42bd8da5d086",
      "s": "0x003ddc13738313d7831ad95d2f8aa70f6e1e6b2aaf81ba7986c2d20cf29273f2",
      "v": 28,
      "creates": null,
      "raw": "0xf86d820dc6850d54f792ff8255f09434bdaf0a5ed72734a4c4c6ce6cc8132ec81fb2a8884cab9433ba3f0320801ca0551571086a27ec250b0eb3b9f282fecd3292200f20d823576dfd42bd8da5d0869f3ddc13738313d7831ad95d2f8aa70f6e1e6b2aaf81ba7986c2d20cf29273f2",
      "networkId": 0,
      "chainId": 0
    }
  ]
}