{
  "hash": "0x55414f80c0660ad94173fbe8345eae804c1b8bca5de87458029404c83c2816e2",
  "parentHash": "0x6e55a0b07bb1dcce5d73c7e92bcb9bc8c3ac4174a88973b66033fde109822006",
  "number": 71990,
  "timestamp": 1439345279,
  "nonce": "0x2783cb03cd39fd5c",
  "difficulty": 2164367204590,
  "gasLimit": {
    "_hex": "0x2fefd8"
  },
  "gasUsed": {
    "_hex": "0x1942d"
  },
  "miner": "0xB1A4B41b8e75a153841c99c62d18588d45e7b406",
  "extraData": "0x",
  "transactions": [
    {
      "hash": "0x9a559b7966151839d9efd418423bfeb2689c29a8b819c4276ed3fb89a5d1b293",
      "blockHash": "0x55414f80c0660ad94173fbe8345eae804c1b8bca5de87458029404c83c2816e2",
      "blockNumber": 71990,
      "transactionIndex": 0,
      "confirmations": null,
      "from": "0x120A270bbC009644e35F0bB6ab13f95b8199c4ad",
      "gasPrice": {
        "_hex": "0xdf30b9bb8"
      },
      "gasLimit": {
        "_hex": "0x15f90"
      },
      "to": "0x0C834b0a01810533a5417Ee59c7bB6b5D3956A82",
      "value": {
        "_hex": "0x240fbea7af0ef73800"
      },
      "nonce": 242,
      "data": "0x",
      "r": "0x5d3eda5d18c889d4e23a8c62167a7f0ac73ec82e37390d386f964a14862e4ca9",
      "s": "0x78a785564bee890d6f8eb5b10e1b8b614e6ff30d70e52fda2efa7ec056d99af1",
      "v": 27,
      "creates": null,
      "raw": "0xf86f81f2850df30b9bb883015f90940c834b0a01810533a5417ee59c7bb6b5d3956a8289240fbea7af0ef73800801ba05d3eda5d18c889d4e23a8c62167a7f0ac73ec82e37390d386f964a14862e4ca9a078a785564bee890d6f8eb5b10e1b8b614e6ff30d70e52fda2efa7ec056d99af1",
      "networkId": 0,
      "chainId": 0
    },
    {
      "hash": "0xad800ac10efd0708e6ede0cd03535d2442a7a7af32242457add0979b2b0ae4e1",
      "blockHash": "0x55414f80c0660ad94173fbe8345eae804c1b8bca5de87458029404c83c2816e2",
      "blockNumber": 71990,
      "transactionIndex": 1,
      "confirmations": null,
      "from": "0x17580B766f7453525ca4C6A88b01b50570EA088C",
      "gasPrice": {
        "_hex": "0xd3607bf15"
      },
      "gasLimit": {
        "_hex": "0x61a80"
      },
      "to": "0x5Fe5B7546D1628f7348B023A0393de1FC825A4fD",
      "value": {
        "_hex": "0x1bc16d674ec80000"
      },
      "nonce": 316,
      "data": "0xb595b8b50000000000000000000000000000000000000000000000000000000000000000",
      "r": "0x155522a435789d71b16efc11cdb5a6e446fbbed6836a198967f000edfebbc258",
      "s": "0x5cd5050bacc394104301168a18cfac41f7624a5f86e5f17271cb992b1bea994a",
      "v": 28,
      "creates": null,
      "raw": "0xf89382013c850d3607bf1583061a80945fe5b7546d1628f7348b023a0393de1fc825a4fd881bc16d674ec80000a4b595b8b500000000000000000000000000000000000000000000000000000000000000001ca0155522a435789d71b16efc11cdb5a6e446fbbed6836a198967f000edfebbc258a05cd5050bacc394104301168a18cfac41f7624a5f86e5f17271cb992b1bea994a",
      "networkId": 0,
      "chainId": 0
    },
    {
      "hash": "0x0814329d5d45f13eefcb6b349e1eb5802aeba6480a9288fb754b8f88c9d1e584",
      "blockHash": "0x55414f80c0660ad94173fbe8345eae804c1b8bca5de87458029404c83c2816e2",
      "blockNumber": 71990,
      "transactionIndex": 2,
      "confirmations": null,
      "from": "0x17580B766f7453525ca4C6A88b01b50570EA088C",
      "gasPrice": {
        "_hex": "0xd3607bf15"
      },
      "gasLimit": {
        "_hex": "0x61a80"
      },
      "to": "0x5Fe5B7546D1628f7348B023A0393de1FC825A4fD",
      "value": {
        "_hex": "0x1bc16d674ec80000"
      },
      "nonce": 317,
      "data": "0xb595b8b50000000000000000000000000000000000000000000000000000000000000000",
      "r": "0x72263fa531c270ddae66cc6b9ac9151656742434bcb3b5a545e95f1547c50650",
      "s": "0x795e791c3d420279d90ac77ec0497026711b379741ea9e01fc05717204282ab4",
      "v": 27,
      "creates": null,
      "raw": "0xf89382013d850d3607bf1583061a80945fe5b7546d1628f7348b023a0393de1fc825a4fd881bc16d674ec80000a4b595b8b500000000000000000000000000000000000000000000000000000000000000001ba072263fa531c270ddae66cc6b9ac9151656742434bcb3b5a545e95f1547c50650a0795e791c3d420279d90ac77ec0497026711b379741ea9e01fc05717204282ab4",
      "networkId": 0,
      "chainId": 0
    }
  ]
}