{
  "hash": "0xe5b0c2bc87644eb1619a195ec7f2626758715175f5332e0534081de0c338cd21",
  "parentHash": "0x0bfaf278f59e5383c366611eaee8d5ff2c597aebdf470044960393499991ba1b",
  "number": 74326,
  "timestamp": 1439384345,
  "nonce": "0x8f8e8e5330d55894",
  "difficulty": 2217240990667,
  "gasLimit": {
    "_hex": "0x2fefd8"
  },
  "gasUsed": {
    "_hex": "0x5208"
  },
  "miner": "0xBD744E3F13D79B33F6c8E1d5E32F8E9BA2866c46",
  "extraData": "0x476574682f76312e302e312d39613032663533372f6c696e75782f676f312e34",
  "transactions": [
    {
      "hash": "0xdd1c57cd2c69a71e2b7e03e34009a7cce90e88e8e42c38d716eb36419bc9fa18",
      "blockHash": "0xe5b0c2bc87644eb1619a195ec7f2626758715175f5332e0534081de0c338cd21",
      "blockNumber": 74326,
      "transactionIndex": 0,
      "confirmations": null,
      "from": "0xDC5F5aD663A6F263327D64cAc9Cb133D2C960597",
      "gasPrice": {
        "_hex": "0xd3d37f23a"
      },
      "gasLimit": {
        "_hex": "0x15f90"
      },
      "to": "0x07ba191e889681603BD713A5c1E4fda3A759B3fD",
      "value": {
        "_hex": "0x2b5e3af16b18800000"
      },
      "nonce": 3,
      "data": "0x",
      "r": "0xaac743f95564fefae5003a1c1a58b4ae6f05dc225c64b5795e7baea9c72c26da",
      "s": "0x5ac57d099845436c18e652866878ca2d14edd95632c783891f788c02046f87cc",
      "v": 27,
      "creates": null,
      "raw": "0xf86e03850d3d37f23a83015f909407ba191e889681603bd713a5c1e4fda3a759b3fd892b5e3af16b18800000801ba0aac743f95564fefae5003a1c1a58b4ae6f05dc225c64b5795e7baea9c72c26daa05ac57d099845436c18e652866878ca2d14edd95632c783891f788c02046f87cc",
      "networkId": 0,
      "chainId": 0
    }
  ]
}