{
  "hash": "0xa39f63ddbec600fe0c661bc513dc9ba5eec6bc8c04f5d59740bf247ad3973b87",
  "parentHash": "0xcb30dd938546032bf334ec7cb04dc08f28f04bae3c81573fd5324be85772221d",
  "number": 52993,
  "timestamp": 1439030805,
  "nonce": "0x9d27ba3044f9b4e0",
  "difficulty": 1566288854309,
  "gasLimit": {
    "_hex": "0x1d4fba"
  },
  "gasUsed": {
    "_hex": "0x546c"
  },
  "miner": "0x70C6b45fe0A5116E97B112B806A76E2F51E24413",
  "extraData": "0x476574682f76312e302e302f77696e646f77732f676f312e342e32",
  "transactions": [
    {
      "hash": "0xd4ec3e990be1507c16570f64f446a55d1d589b6b0f2e4c0042b7e58adbaa3dcd",
      "blockHash": "0xa39f63ddbec600fe0c661bc513dc9ba5eec6bc8c04f5d59740bf247ad3973b87",
      "blockNumber": 52993,
      "transactionIndex": 0,
      "confirmations": null,
      "from": "0xbcB2E3693d246E1fc00348754334BadEb88b2a11",
      "gasPrice": {
        "_hex": "0x108c85ef086"
      },
      "gasLimit": {
        "_hex": "0x15f90"
      },
      "to": "0x2910543Af39abA0Cd09dBb2D50200b3E800A63D2",
      "value": {
        "_hex": "0x3f19beb8dd1ab00000"
      },
      "nonce": 4,
      "data": "0x454e435250324d4a52",
      "r": "0xcf3c9c58ec602b2976e8d3ae2f9c0131b6942c727f9ea41ffba735375d4588ab",
      "s": "0x36c0d0da37d91f1b1f93fcc6872e7abb6c0084b6734c36c76e97588ac446cfee",
      "v": 27,
      "creates": null,
      "raw": "0xf87804860108c85ef08683015f90942910543af39aba0cd09dbb2d50200b3e800a63d2893f19beb8dd1ab0000089454e435250324d4a521ba0cf3c9c58ec602b2976e8d3ae2f9c0131b6942c727f9ea41ffba735375d4588aba036c0d0da37d91f1b1f93fcc6872e7abb6c0084b6734c36c76e97588ac446cfee",
      "networkId": 0,
      "chainId": 0
    }
  ]
}