{
  "hash": "0x8a1a2949bdf85a8c44339e87f0e0d553603b234f0f15d12be961342319a4d58b",
  "parentHash": "0xbb3bcae3bba85179c23a758bc0a9d23a7e1da22e3a0ce75803faf563f5daf670",
  "number": 89873,
  "timestamp": 1439630539,
  "nonce": "0xeb15090349762aee",
  "difficulty": 3333684937665,
  "gasLimit": {
    "_hex": "0x2fefd8"
  },
  "gasUsed": {
    "_hex": "0xf618"
  },
  "miner": "0xe6A7a1d47ff21B6321162AEA7C6CB457D5476Bca",
  "extraData": "0x476574682f76312e302e312d38326566323666362f6c696e75782f676f312e34",
  "transactions": [
    {
      "hash": "0xc63fc745c0359910c59f351071589c987865702563c52e79faa36dd93387bdbb",
      "blockHash": "0x8a1a2949bdf85a8c44339e87f0e0d553603b234f0f15d12be961342319a4d58b",
      "blockNumber": 89873,
      "transactionIndex": 0,
      "confirmations": null,
      "from": "0xD72ab61a64fEAeE7b5EB3D42B5445858B95d38fd",
      "gasPrice": {
        "_hex": "0xdd26032a1"
      },
      "gasLimit": {
        "_hex": "0x5208"
      },
      "to": "0x32Be343B94f860124dC4fEe278FDCBD38C102D88",
      "value": {
        "_hex": "0xdeec7ccf22584000"
      },
      "nonce": 2,
      "data": "0x",
      "r": "0x7a82fafa2c5ce3279757780c6ca879345756aa71c274dcda4fa14ce99823abb6",
      "s": "0x655604a1474595a4ecbda0d8717b35c1256735fb6195522a7946c3bd99247a19",
      "v": 28,
      "creates": null,
      "raw": "0xf86c02850dd26032a18252089432be343b94f860124dc4fee278fdcbd38c102d8888deec7ccf22584000801ca07a82fafa2c5ce3279757780c6ca879345756aa71c274dcda4fa14ce99823abb6a0655604a1474595a4ecbda0d8717b35c1256735fb6195522a7946c3bd99247a19",
      "networkId": 0,
      "chainId": 0
    },
    {
      "hash": "0xe303751c2c29f0cab071bd19940dfb56125e44db0187510735bc74723aaf7b7e",
      "blockHash": "0x8a1a2949bdf85a8c44339e87f0e0d553603b234f0f15d12be961342319a4d58b",
      "blockNumber": 89873,
      "transactionIndex": 1,
      "confirmations": null,
      "from": "0xFAF4d1326d886D8dFe403B3F8A00DC7a7EA05629",
      "gasPrice": {
        "_hex": "0xdd26032a1"
      },
      "gasLimit": {
        "_hex": "0x5208"
      },
      "to": "0x32Be343B94f860124dC4fEe278FDCBD38C102D88",
      "value": {
        "_hex": "0x7de780f65eaf2400"
      },
      "nonce": 2,
      "data": "0x",
      "r": "0xd783a625f81e800e6fcdb6d6cab0523611e28e7f8708f4abaaeae5fae06b9823",
      "s": "0x08898d5ba0d61e6b588907fc7be458ebc240d50cd682d17c01aacfc722d47e10",
      "v": 28,
      "creates": null,
      "raw": "0xf86c02850dd26032a18252089432be343b94f860124dc4fee278fdcbd38c102d88887de780f65eaf2400801ca0d783a625f81e800e6fcdb6d6cab0523611e28e7f8708f4abaaeae5fae06b9823a008898d5ba0d61e6b588907fc7be458ebc240d50cd682d17c01aacfc722d47e10",
      "networkId": 0,
      "chainId": 0
    },
    {
      "hash": "0x1e0cb1566afdc870d1c7041e62300334dedac7537fbd9098a353e191a02c5397",
      "blockHash": "0x8a1a2949bdf85a8c44339e87f0e0d553603b234f0f15d12be961342319a4d58b",
      "blockNumber": 89873,
      "transactionIndex": 2,
      "confirmations": null,
      "from": "0xf97e4688e66CD658F9666d93FD97f779b80218a0",
      "gasPrice": {
        "_hex": "0xdd26032a1"
      },
      "gasLimit": {
        "_hex": "0x5208"
      },
      "to": "0x32Be343B94f860124dC4fEe278FDCBD38C102D88",
      "value": {
        "_hex": "0x559bf16281c0a000"
      },
      "nonce": 2,
      "data": "0x",
      "r": "0x245b23d61a198ae320ae9b12f1c8086d8f295df9dd8fbf2b143a18836c9defc3",
      "s": "0x551c897ba5f1c23f39c9caf96e10c9ca8ea183e487447f9eab881acf723e728f",
      "v": 28,
      "creates": null,
      "raw": "0xf86c02850dd26032a18252089432be343b94f860124dc4fee278fdcbd38c102d8888559bf16281c0a000801ca0245b23d61a198ae320ae9b12f1c8086d8f295df9dd8fbf2b143a18836c9defc3a0551c897ba5f1c23f39c9caf96e10c9ca8ea183e487447f9eab881acf723e728f",
      "networkId": 0,
      "chainId": 0
    }
  ]
}