{
  "hash": "0x03e2853986ac1b57e98ad977c4a18a1a5bd3fddbc060470a32575621707654f4",
  "parentHash": "0xea657b8298f450ef607e5359998b678d5f524317988d0257b4320d3a94544bd3",
  "number": 89844,
  "timestamp": 1439629965,
  "nonce": "0x9b2432de4a02d835",
  "difficulty": 3348378734135,
  "gasLimit": {
    "_hex": "0x2fefd8"
  },
  "gasUsed": {
    "_hex": "0x5208"
  },
  "miner": "0xe6A7a1d47ff21B6321162AEA7C6CB457D5476Bca",
  "extraData": "0x476574682f76312e302e312d38326566323666362f6c696e75782f676f312e34",
  "transactions": [
    {
      "hash": "0x2db8e87fc3459bdc4ed12f02d09fbb39282bd3212f0dee90a0058c137583280a",
      "blockHash": "0x03e2853986ac1b57e98ad977c4a18a1a5bd3fddbc060470a32575621707654f4",
      "blockNumber": 89844,
      "transactionIndex": 0,
      "confirmations": null,
      "from": "0xF5EeDc192aB70b08D8354384aD94efD095849E00",
      "gasPrice": {
        "_hex": "0xdb13a1375"
      },
      "gasLimit": {
        "_hex": "0x5208"
      },
      "to": "0x32Be343B94f860124dC4fEe278FDCBD38C102D88",
      "value": {
        "_hex": "0x4e0fbd7f5fcff8000"
      },
      "nonce": 45,
      "data": "0x",
      "r": "0x3582eaefae09219f76cc1a51c316bb152abecdcaec2739e946f07fba10b30c19",
      "s": "0x59aa571b18e0226cc8d8e521e6ef910d27476eaea5e70333426e50631eddc442",
      "v": 27,
      "creates": null,
      "raw": "0xf86d2d850db13a13758252089432be343b94f860124dc4fee278fdcbd38c102d888904e0fbd7f5fcff8000801ba03582eaefae09219f76cc1a51c316bb152abecdcaec2739e946f07fba10b30c19a059aa571b18e0226cc8d8e521e6ef910d27476eaea5e70333426e50631eddc442",
      "networkId": 0,
      "chainId": 0
    }
  ]
}