{
  "hash": "0xbcc8e24dee8682201f9b4b77432ea8b5c18b66fa5c3ef3a604c3161c6ccb8b21",
  "parentHash": "0x969df27690e07956ee49445b0b94d6f30b8f20452dcbae7b72149dd940c79abc",
  "number": 51697,
  "timestamp": 1439009267,
  "nonce": "0xa61075fb0045bc30",
  "difficulty": 1557378803570,
  "gasLimit": {
    "_hex": "0xd0c95"
  },
  "gasUsed": {
    "_hex": "0xddfd"
  },
  "miner": "0x190174d939CC332eE1Ea9351AD703ddF7364Ca68",
  "extraData": "0x476574682f76312e302e312d38326566323666362f6c696e75782f676f312e34",
  "transactions": [
    {
      "hash": "0xdeea3b4ff545eecb1043af4ee8dda01574dfef8252a5e4fa8840167904d959af",
      "blockHash": "0xbcc8e24dee8682201f9b4b77432ea8b5c18b66fa5c3ef3a604c3161c6ccb8b21",
      "blockNumber": 51697,
      "transactionIndex": 0,
      "confirmations": null,
      "from": "0xcCF7110d1Bd9A74bfd1d7d7d2d9D55607E7B837d",
      "gasPrice": {
        "_hex": "0xd3d37f23a"
      },
      "gasLimit": {
        "_hex": "0x7a120"
      },
      "to": "0xA327075af2a223A1C83a36aDa1126afE7430f955",
      "value": {
        "_hex": "0x8ac7230489e80000"
      },
      "nonce": 1,
      "data": "0x",
      "r": "0x750c45fc0f1142ee2c0260ac2328e47509a56e6e17a8af26af23023d4682007f",
      "s": "0x7e13505b45614814e82b3810b3d596263fae8bc7aafb4c21ea3e7943b10c8fb2",
      "v": 28,
      "creates": null,
      "raw": "0xf86d01850d3d37f23a8307a12094a327075af2a223a1c83a36ada1126afe7430f955888ac7230489e80000801ca0750c45fc0f1142ee2c0260ac2328e47509a56e6e17a8af26af23023d4682007fa07e13505b45614814e82b3810b3d596263fae8bc7aafb4c21ea3e7943b10c8fb2",
      "networkId": 0,
      "chainId": 0
    }
  ]
}