{
  "hash": "0xf2c27f848aba731fa7591473feb4a50acf0e089b094f9816f342abd30a79c8c7",
  "parentHash": "0xeb076292c5e4bfc65b3cada7293ac596cd717635829840a3b9dfde0f36f84c24",
  "number": 76422,
  "timestamp": 1439420267,
  "nonce": "0x149a56415f5b1f82",
  "difficulty": 2227537190171,
  "gasLimit": {
    "_hex": "0x2fefd8"
  },
  "gasUsed": {
    "_hex": "0x10c60"
  },
  "miner": "0x897d64aD0a333394b4E4ae8e8DCccdbc71d4E4E8",
  "extraData": "0x",
  "transactions": [
    {
      "hash": "0x635392e7692cd78018a3a758841d30557d3537fa16a5e417ed939f62919646cf",
      "blockHash": "0xf2c27f848aba731fa7591473feb4a50acf0e089b094f9816f342abd30a79c8c7",
      "blockNumber": 76422,
      "transactionIndex": 0,
      "confirmations": null,
      "from": "0x87C5B5874A18B4306DF8a752a6C8cc3E82daFc19",
      "gasPrice": {
        "_hex": "0x10a35aef7a4"
      },
      "gasLimit": {
        "_hex": "0x493e0"
      },
      "to": "0xD79B4C6791784184e2755B2fC1659eaaB0f80456",
      "value": {
        "_hex": "0x0"
      },
      "nonce": 77,
      "data": "0x03750d940000000000000000000000008be84a3adfbc51c59023b2413766e229108c35de6663396432313263396535363161346300000000000000000000000000000000",
      "r": "0x10773153747a060e2150be886921fed08ecddf7170a4b266af1a93f447058a7c",
      "s": "0x0c05db1e0af1866b2a37b8d8dc9c99920468cd2953cf8b42556c3abc510c5f6b",
      "v": 28,
      "creates": null,
      "raw": "0xf8ab4d86010a35aef7a4830493e094d79b4c6791784184e2755b2fc1659eaab0f8045680b84403750d940000000000000000000000008be84a3adfbc51c59023b2413766e229108c35de66633964323132633965353631613463000000000000000000000000000000001ca010773153747a060e2150be886921fed08ecddf7170a4b266af1a93f447058a7ca00c05db1e0af1866b2a37b8d8dc9c99920468cd2953cf8b42556c3abc510c5f6b",
      "networkId": 0,
      "chainId": 0
    },
    {
      "hash": "0x89636d8932cc365dfc279a56e26bb6c9cc5545c2ef3abd399ce504be617e2367",
      "blockHash": "0xf2c27f848aba731fa7591473feb4a50acf0e089b094f9816f342abd30a79c8c7",
      "blockNumber": 76422,
      "transactionIndex": 1,
      "confirmations": null,
      "from": "0x87C5B5874A18B4306DF8a752a6C8cc3E82daFc19",
      "gasPrice": {
        "_hex": "0x10a35aef7a4"
      },
      "gasLimit": {
        "_hex": "0x493e0"
      },
      "to": "0xD79B4C6791784184e2755B2fC1659eaaB0f80456",
      "value": {
        "_hex": "0x0"
      },
      "nonce": 78,
      "data": "0x03750d940000000000000000000000008be84a3adfbc51c59023b2413766e229108c35de6533653234306633343865663762313500000000000000000000000000000000",
      "r": "0x66c30b8f9bfefecadb16f1d2a765346fea04b021d3d144bb76f5d28a7852da88",
      "s": "0x63d131d1355b9c5138aa1ade121e06723189b9ccabde2edb721f574f16dd4b48",
      "v": 27,
      "creates": null,
      "raw": "0xf8ab4e86010a35aef7a4830493e094d79b4c6791784184e2755b2fc1659eaab0f8045680b84403750d940000000000000000000000008be84a3adfbc51c59023b2413766e229108c35de65336532343066333438656637623135000000000000000000000000000000001ba066c30b8f9bfefecadb16f1d2a765346fea04b021d3d144bb76f5d28a7852da88a063d131d1355b9c5138aa1ade121e06723189b9ccabde2edb721f574f16dd4b48",
      "networkId": 0,
      "chainId": 0
    }
  ]
}