{
  "hash": "0x53c9c53384da39d5651788183b1635bc4b1b0ebc04257dcb20c963eb9f5bfcf2",
  "parentHash": "0xfbb703810f8778e5cef1e0e85214eea52b206013f1d1434266835f9ad34e9fbf",
  "number": 101627,
  "timestamp": 1439825682,
  "nonce": "0xbbb57256cf679b7e",
  "difficulty": 3892015342099,
  "gasLimit": {
    "_hex": "0x2fefd8"
  },
  "gasUsed": {
    "_hex": "0x5208"
  },
  "miner": "0xf927a40C8B7F6E07c5af7FA2155B4864a4112B13",
  "extraData": "0x",
  "transactions": [
    {
      "hash": "0xc590f54a50229dfbbd5cca30417c612070fa257930a715d867caf3f7287f6216",
      "blockHash": "0x53c9c53384da39d5651788183b1635bc4b1b0ebc04257dcb20c963eb9f5bfcf2",
      "blockNumber": 101627,
      "transactionIndex": 0,
      "confirmations": null,
      "from": "0xC603Ab5ef41fC61AA8b76bEddb09e3Cfcbb174BD",
      "gasPrice": {
        "_hex": "0xd6375a871"
      },
      "gasLimit": {
        "_hex": "0x15f90"
      },
      "to": "0x8F79f76381Aad7B98C19aF55eE75fdfEeb012211",
      "value": {
        "_hex": "0x2df85d331a7b40000"
      },
      "nonce": 34,
      "data": "0x",
      "r": "0x9c29412a34ceb69a8c24ec4ecec57f3cf4b7e43bd35092b48edfb0a6aaf2784a",
      "s": "0x126bd402b3d852055dc40b8d6c524d723342ff0c564f15accfb3adb9f9abab7f",
      "v": 28,
      "creates": null,
      "raw": "0xf86e22850d6375a87183015f90948f79f76381aad7b98c19af55ee75fdfeeb0122118902df85d331a7b40000801ca09c29412a34ceb69a8c24ec4ecec57f3cf4b7e43bd35092b48edfb0a6aaf2784aa0126bd402b3d852055dc40b8d6c524d723342ff0c564f15accfb3adb9f9abab7f",
      "networkId": 0,
      "chainId": 0
    }
  ]
}