{
  "hash": "0x3358928ce3f79227a4a0ce63109800abe09aa23b11519cd5b59782adb2e54623",
  "parentHash": "0x47725b224c6e90fc50624aad1e57c8b91e0b6ad435f820d77946cd42052695a9",
  "number": 72441,
  "timestamp": 1439352666,
  "nonce": "0x85b1d7199ce70209",
  "difficulty": 2208014739552,
  "gasLimit": {
    "_hex": "0x2fefd8"
  },
  "gasUsed": {
    "_hex": "0x5208"
  },
  "miner": "0xe6A7a1d47ff21B6321162AEA7C6CB457D5476Bca",
  "extraData": "0x476574682f76312e302e312d38326566323666362f6c696e75782f676f312e34",
  "transactions": [
    {
      "hash": "0x537cd59d03fb61cc0b11576d5a8cab0547f3e00e7efbba53e72c13ae792ae38e",
      "blockHash": "0x3358928ce3f79227a4a0ce63109800abe09aa23b11519cd5b59782adb2e54623",
      "blockNumber": 72441,
      "transactionIndex": 0,
      "confirmations": null,
      "from": "0x770d98d31b4353FceEE8560c4CCf803e88C0c4e0",
      "gasPrice": {
        "_hex": "0xdb2816147"
      },
      "gasLimit": {
        "_hex": "0x15f90"
      },
      "to": "0x0000000000000000000000000000000000000000",
      "value": {
        "_hex": "0x16345785d8a0000"
      },
      "nonce": 0,
      "data": "0x",
      "r": "0xbfb141457b0d2b29f0ea7e2fcd11635185a9966a6c192232b229d7ddfcc7831c",
      "s": "0x2c852c855993a3422372e807da9338585645049fb414152c13dda77742d4ae42",
      "v": 28,
      "creates": null,
      "raw": "0xf86d80850db281614783015f9094000000000000000000000000000000000000000088016345785d8a0000801ca0bfb141457b0d2b29f0ea7e2fcd11635185a9966a6c192232b229d7ddfcc7831ca02c852c855993a3422372e807da9338585645049fb414152c13dda77742d4ae42",
      "networkId": 0,
      "chainId": 0
    }
  ]
}