{
  "hash": "0xbeef160e601463346c7c276d493a121380f184549fa154764d8b757816dbeb47",
  "parentHash": "0x5b644c67c2eca13e530ad777a6f2e7d167db99691df00b51b608a61f8b9faf63",
  "number": 107454,
  "timestamp": 1439922756,
  "nonce": "0x9863b3bf697beb0a",
  "difficulty": 4405017368483,
  "gasLimit": {
    "_hex": "0x2fefd8"
  },
  "gasUsed": {
    "_hex": "0x5208"
  },
  "miner": "0xe6A7a1d47ff21B6321162AEA7C6CB457D5476Bca",
  "extraData": "0x476574682f76312e302e312d38326566323666362f6c696e75782f676f312e34",
  "transactions": [
    {
      "hash": "0x225af4ca91e0075269e791f37878233f0711e549158eb7edc7320d3f01652d3e",
      "blockHash": "0xbeef160e601463346c7c276d493a121380f184549fa154764d8b757816dbeb47",
      "blockNumber": 107454,
      "transactionIndex": 0,
      "confirmations": null,
      "from": "0xe3002160DEbB2936e6ca494ed36F28056ed7aEfd",
      "gasPrice": {
        "_hex": "0xd4dfa5aef"
      },
      "gasLimit": {
        "_hex": "0x55f0"
      },
      "to": "0xF161498A7f225A91C338015ca11833B3399393A8",
      "value": {
        "_hex": "0x38d7ea4c68000"
      },
      "nonce": 0,
      "data": "0x",
      "r": "0x2818bfa4d1d2f4eb9e2034d44430250b9f55ac0d8c0751a755b690fab525c30e",
      "s": "0x20e84d267225c957b912cc12117c20197ef768877490b8e630e502cda5c09c22",
      "v": 28,
      "creates": null,
      "raw": "0xf86b80850d4dfa5aef8255f094f161498a7f225a91c338015ca11833b3399393a887038d7ea4c68000801ca02818bfa4d1d2f4eb9e2034d44430250b9f55ac0d8c0751a755b690fab525c30ea020e84d267225c957b912cc12117c20197ef768877490b8e630e502cda5c09c22",
      "networkId": 0,
      "chainId": 0
    }
  ]
}