{
  "hash": "0x0270fbd352d0a140961cc06740f0ded179c3097a99200a67df6d3e71500fde64",
  "parentHash": "0xf5a7fad081f40a739889277cea8ac40eaa3e40565d43f1c5788e75c23b0a95b8",
  "number": 55245,
  "timestamp": 1439067580,
  "nonce": "0x1f44c42b5130fb25",
  "difficulty": 1641016026717,
  "gasLimit": {
    "_hex": "0x2fe720"
  },
  "gasUsed": {
    "_hex": "0x12abfa"
  },
  "miner": "0x3FF679B0823a026F2378E5f5F22A6F127cC85828",
  "extraData": "0x476574682f76312e302e302f6c696e75782f676f312e342e32",
  "transactions": [
    {
      "hash": "0xd80a1226f3db63ac3d493e89a015e8b48cc8a80dccdb845babd9866f4426d9b9",
      "blockHash": "0x0270fbd352d0a140961cc06740f0ded179c3097a99200a67df6d3e71500fde64",
      "blockNumber": 55245,
      "transactionIndex": 0,
      "confirmations": null,
      "from": "0x3485F621256433b98a4200DAD857EFe55937eC98",
      "gasPrice": {
        "_hex": "0x110c8f7d8de"
      },
      "gasLimit": {
        "_hex": "0xc350"
      },
      "to": "0x2910543Af39abA0Cd09dBb2D50200b3E800A63D2",
      "value": {
        "_hex": "0x6c6a3016135fb60000"
      },
      "nonce": 0,
      "data": "0x454e524b4b38524b38",
      "r": "0x40ddafb07c2ad89a852d20cfd15a48ff8d4f67e2a600922f99a725cc115324dd",
      "s": "0xbae36e4901fdcc11a5703eedc158694df9668d77746022631d65eba5cb1f0612",
      "v": 28,
      "creates": null,
      "raw": "0xf87780860110c8f7d8de82c350942910543af39aba0cd09dbb2d50200b3e800a63d2896c6a3016135fb6000089454e524b4b38524b381ca040ddafb07c2ad89a852d20cfd15a48ff8d4f67e2a600922f99a725cc115324dda0bae36e4901fdcc11a5703eedc158694df9668d77746022631d65eba5cb1f0612",
      "networkId": 0,
      "chainId": 0
    },
    {
      "hash": "0x3340c44ecdfc73450f030f01e4f95328d1df5cf11e2646f5b94325d68ecb97f1",
      "blockHash": "0x0270fbd352d0a140961cc06740f0ded179c3097a99200a67df6d3e71500fde64",
      "blockNumber": 55245,
      "transactionIndex": 1,
      "confirmations": null,
      "from": "0x9B2c46642CAF6B936dc0633da521f1E946B7e18F",
      "gasPrice": {
        "_hex": "0xdcdec3d31"
      },
      "gasLimit": {
        "_hex": "0x15f90"
      },
      "to": "0x838e90A2F735276D8c7824c3858b7CEB3AA6B110",
      "value": {
        "_hex": "0x0"
      },
      "nonce": 2,
      "data": "0x41c0e1b5",
      "r": "0x1fe14cce9d005e1117aef4ada18b6c4cf08f1496c2bf51b20d85afd221fccbc3",
      "s": "0x4936774e95bdf391fd56e8de5af8521d08d71c2ddd014165ee6010cb024af039",
      "v": 28,
      "creates": null,
      "raw": "0xf86902850dcdec3d3183015f9094838e90a2f735276d8c7824c3858b7ceb3aa6b110808441c0e1b51ca01fe14cce9d005e1117aef4ada18b6c4cf08f1496c2bf51b20d85afd221fccbc3a04936774e95bdf391fd56e8de5af8521d08d71c2ddd014165ee6010cb024af039",
      "networkId": 0,
      "chainId": 0
    },
    {
      "hash": "0x8f78ff4ae68fd623dd679d8664eb58c7cd8f30f974af793a40e89f386b309808",
      "blockHash": "0x0270fbd352d0a140961cc06740f0ded179c3097a99200a67df6d3e71500fde64",
      "blockNumber": 55245,
      "transactionIndex": 2,
      "confirmations": null,
      "from": "0xE73aa111fd3Ebc226B09A83b591b7D5143CE7F34",
      "gasPrice": {
        "_hex": "0xd40fff7b7"
      },
      "gasLimit": {
        "_hex": "0x15f90"
      },
      "to": "0x7AEe08d3575C8b436DDFE1b8cF40c378405c6109",
      "value": {
        "_hex": "0xe72986245a64f30000"
      },
      "nonce": 3,
      "data": "0x",
      "r": "0x6d9728cf0b4ed47038b5a5e4ae5eeb2a8b545f0a5fddb9fad2018d9cfb2a9d0f",
      "s": "0x0ee55a38d957b334c6a5cf827b9064100b0c291e3b91a243ba05aa6cec9967d9",
      "v": 27,
      "creates": null,
      "raw": "0xf86e03850d40fff7b783015f90947aee08d3575c8b436ddfe1b8cf40c378405c610989e72986245a64f30000801ba06d9728cf0b4ed47038b5a5e4ae5eeb2a8b545f0a5fddb9fad2018d9cfb2a9d0fa00ee55a38d957b334c6a5cf827b9064100b0c291e3b91a243ba05aa6cec9967d9",
      "networkId": 0,
      "chainId": 0
    },
    {
      "hash": "0xcc539a54eb87dd8cf8a0c1bd8bc2daec091176eaeaa4f79541d4fa7b1e383e79",
      "blockHash": "0x0270fbd352d0a140961cc06740f0ded179c3097a99200a67df6d3e71500fde64",
      "blockNumber": 55245,
      "transactionIndex": 3,
      "confirmations": null,
      "from": "0x120A270bbC009644e35F0bB6ab13f95b8199c4ad",
      "gasPrice": {
        "_hex": "0xdf4fe26c1"
      },
      "gasLimit": {
        "_hex": "0x15f90"
      },
      "to": "0xc8ebccC5F5689Fa8659d83713341e5aD19349448",
      "value": {
        "_hex": "0x5f14e178507c1000"
      },
      "nonce": 12,
      "data": "0x",
      "r": "0xdd8b22a567e9b0b632b34c4d1224ddb5010de3888f2b3ce39b677d4cb6e13510",
      "s": "0x72361af8a81f96dfb1b030063c3875be136e2e159866119333642e511369a496",
      "v": 27,
      "creates": null,
      "raw": "0xf86d0c850df4fe26c183015f9094c8ebccc5f5689fa8659d83713341e5ad19349448885f14e178507c1000801ba0dd8b22a567e9b0b632b34c4d1224ddb5010de3888f2b3ce39b677d4cb6e13510a072361af8a81f96dfb1b030063c3875be136e2e159866119333642e511369a496",
      "networkId": 0,
      "chainId": 0
    },
    {
      "hash": "0x821a4cd78737a616356d11bf17ec9a27d10598ac75ecef1a9001e66e257fc3ee",
      "blockHash": "0x0270fbd352d0a140961cc06740f0ded179c3097a99200a67df6d3e71500fde64",
      "blockNumber": 55245,
      "transactionIndex": 4,
      "confirmations": null,
      "from": "0x0ae3F81a67725a8A7758FeB8684c6c17dA20755D",
      "gasPrice": {
        "_hex": "0xdc259f7ab"
      },
      "gasLimit": {
        "_hex": "0x1e8480"
      },
      "to": "0xBAA54d6E90c3F4d7Ebec11bD180134C7eD8eBb52",
      "value": {
        "_hex": "0x16345785d8a0000"
      },
      "nonce": 75,
      "data": "0x",
      "r": "0x060f314c7a0ddd31b54f2979571d4386d476ffa00f72e0b783cc12b9c41b6d7f",
      "s": "0x6f254ed1777698280907819c4ff2d05478d07897831ff7daa998c90fcc85dc2a",
      "v": 27,
      "creates": null,
      "raw": "0xf86d4b850dc259f7ab831e848094baa54d6e90c3f4d7ebec11bd180134c7ed8ebb5288016345785d8a0000801ba0060f314c7a0ddd31b54f2979571d4386d476ffa00f72e0b783cc12b9c41b6d7fa06f254ed1777698280907819c4ff2d05478d07897831ff7daa998c90fcc85dc2a",
      "networkId": 0,
      "chainId": 0
    },
    {
      "hash": "0x0e24f2be5c78ad3436209f58518acc5da4971c03644639bf4e2e9c221046fd86",
      "blockHash": "0x0270fbd352d0a140961cc06740f0ded179c3097a99200a67df6d3e71500fde64",
      "blockNumber": 55245,
      "transactionIndex": 5,
      "confirmations": null,
      "from": "0x0ae3F81a67725a8A7758FeB8684c6c17dA20755D",
      "gasPrice": {
        "_hex": "0xdc259f7ab"
      },
      "gasLimit": {
        "_hex": "0x1e8480"
      },
      "to": "0xBAA54d6E90c3F4d7Ebec11bD180134C7eD8eBb52",
      "value": {
        "_hex": "0x16345785d8a0000"
      },
      "nonce": 76,
      "data": "0x",
      "r": "0xa8e47591d2cc17bedff2bdbcb0518f80e7ebf86d77285800a30424c879ec21b9",
      "s": "0x527d83ea3730fbf3ca659c81bbf2208fd4b7b6c8228ae8efcadd6fb9e261433d",
      "v": 27,
      "creates": null,
      "raw": "0xf86d4c850dc259f7ab831e848094baa54d6e90c3f4d7ebec11bd180134c7ed8ebb5288016345785d8a0000801ba0a8e47591d2cc17bedff2bdbcb0518f80e7ebf86d77285800a30424c879ec21b9a0527d83ea3730fbf3ca659c81bbf2208fd4b7b6c8228ae8efcadd6fb9e261433d",
      "networkId": 0,
      "chainId": 0
    },
    {
      "hash": "0xfd317a35264d9bd57afc7893d41511d79b0cdec4f7af9e6ad0d662c80178d565",
      "blockHash": "0x0270fbd352d0a140961cc06740f0ded179c3097a99200a67df6d3e71500fde64",
      "blockNumber": 55245,
      "transactionIndex": 6,
      "confirmations": null,
      "from": "0x0ae3F81a67725a8A7758FeB8684c6c17dA20755D",
      "gasPrice": {
        "_hex": "0xdc259f7ab"
      },
      "gasLimit": {
        "_hex": "0x1e8480"
      },
      "to": "0xBAA54d6E90c3F4d7Ebec11bD180134C7eD8eBb52",
      "value": {
        "_hex": "0x16345785d8a0000"
      },
      "nonce": 77,
      "data": "0x",
      "r": "0xc1f5d93be275006916cb6cc5065f04e41fd922e5f6a5209955a147cb5551cc8b",
      "s": "0x65b618be43be1a794550452bde60fb8fe32d83483530644a393c4584268ed94c",
      "v": 28,
      "creates": null,
      "raw": "0xf86d4d850dc259f7ab831e848094baa54d6e90c3f4d7ebec11bd180134c7ed8ebb5288016345785d8a0000801ca0c1f5d93be275006916cb6cc5065f04e41fd922e5f6a5209955a147cb5551cc8ba065b618be43be1a794550452bde60fb8fe32d83483530644a393c4584268ed94c",
      "networkId": 0,
      "chainId": 0
    },
    {
      "hash": "0xb455cae3e0df9a1e6466beb2efef2fed00117f4c47358320ad5d5942d1cb44fd",
      "blockHash": "0x0270fbd352d0a140961cc06740f0ded179c3097a99200a67df6d3e71500fde64",
      "blockNumber": 55245,
      "transactionIndex": 7,
      "confirmations": null,
      "from": "0x0ae3F81a67725a8A7758FeB8684c6c17dA20755D",
      "gasPrice": {
        "_hex": "0xdc259f7ab"
      },
      "gasLimit": {
        "_hex": "0x1e8480"
      },
      "to": "0xBAA54d6E90c3F4d7Ebec11bD180134C7eD8eBb52",
      "value": {
        "_hex": "0x16345785d8a0000"
      },
      "nonce": 78,
      "data": "0x",
      "r": "0x411304171f378f43b0df0ad7ae7fb3573ea8799939bf534e29294ddea3006f69",
      "s": "0x731659ba00a4d9c5cef794104a1975e38ade3aa49e86918ad19a41b101a2b36f",
      "v": 27,
      "creates": null,
      "raw": "0xf86d4e850dc259f7ab831e848094baa54d6e90c3f4d7ebec11bd180134c7ed8ebb5288016345785d8a0000801ba0411304171f378f43b0df0ad7ae7fb3573ea8799939bf534e29294ddea3006f69a0731659ba00a4d9c5cef794104a1975e38ade3aa49e86918ad19a41b101a2b36f",
      "networkId": 0,
      "chainId": 0
    },
    {
      "hash": "0x576b49b4e4292b6b246c638c034cf7c20486cde40c28249091e85c578e6a866d",
      "blockHash": "0x0270fbd352d0a140961cc06740f0ded179c3097a99200a67df6d3e71500fde64",
      "blockNumber": 55245,
      "transactionIndex": 8,
      "confirmations": null,
      "from": "0x0ae3F81a67725a8A7758FeB8684c6c17dA20755D",
      "gasPrice": {
        "_hex": "0xdc259f7ab"
      },
      "gasLimit": {
        "_hex": "0x1e8480"
      },
      "to": "0xBAA54d6E90c3F4d7Ebec11bD180134C7eD8eBb52",
      "value": {
        "_hex": "0x16345785d8a0000"
      },
      "nonce": 79,
      "data": "0x",
      "r": "0x71904248088ac96d3558cc54736b999403fd42c03f1c4273541768c7530c5080",
      "s": "0x2b68be3dceb131b35540bb60e1d9693684b14c46ced867469cfdf370094b8990",
      "v": 28,
      "creates": null,
      "raw": "0xf86d4f850dc259f7ab831e848094baa54d6e90c3f4d7ebec11bd180134c7ed8ebb5288016345785d8a0000801ca071904248088ac96d3558cc54736b999403fd42c03f1c4273541768c7530c5080a02b68be3dceb131b35540bb60e1d9693684b14c46ced867469cfdf370094b8990",
      "networkId": 0,
      "chainId": 0
    },
    {
      "hash": "0x4e546b1b0041550cabdc64a92fca4ba19e74df1862d68b2229da1c63ece079cd",
      "blockHash": "0x0270fbd352d0a140961cc06740f0ded179c3097a99200a67df6d3e71500fde64",
      "blockNumber": 55245,
      "transactionIndex": 9,
      "confirmations": null,
      "from": "0x0ae3F81a67725a8A7758FeB8684c6c17dA20755D",
      "gasPrice": {
        "_hex": "0xdc259f7ab"
      },
      "gasLimit": {
        "_hex": "0x1e8480"
      },
      "to": "0xBAA54d6E90c3F4d7Ebec11bD180134C7eD8eBb52",
      "value": {
        "_hex": "0x16345785d8a0000"
      },
      "nonce": 80,
      "data": "0x",
      "r": "0x05cc2738957e340803d4b469ae9c4cce8e74cff047db932abbb9ef7b4895812d",
      "s": "0x54a2c5a30c72b0a55f22bba89f84f46dc8c2428fc0d77fa6bb39b47d760a9e3c",
      "v": 27,
      "creates": null,
      "raw": "0xf86d50850dc259f7ab831e848094baa54d6e90c3f4d7ebec11bd180134c7ed8ebb5288016345785d8a0000801ba005cc2738957e340803d4b469ae9c4cce8e74cff047db932abbb9ef7b4895812da054a2c5a30c72b0a55f22bba89f84f46dc8c2428fc0d77fa6bb39b47d760a9e3c",
      "networkId": 0,
      "chainId": 0
    },
    {
      "hash": "0x69d4f4f10a2d006aa4d5331d68d786d4818b0f2e2e946ce4695a009baf929f71",
      "blockHash": "0x0270fbd352d0a140961cc06740f0ded179c3097a99200a67df6d3e71500fde64",
      "blockNumber": 55245,
      "transactionIndex": 10,
      "confirmations": null,
      "from": "0x0ae3F81a67725a8A7758FeB8684c6c17dA20755D",
      "gasPrice": {
        "_hex": "0xdc259f7ab"
      },
      "gasLimit": {
        "_hex": "0x1e8480"
      },
      "to": "0xBAA54d6E90c3F4d7Ebec11bD180134C7eD8eBb52",
      "value": {
        "_hex": "0x16345785d8a0000"
      },
      "nonce": 81,
      "data": "0x",
      "r": "0xc80a3c0098b5c771369d74e744b9393e4a073abe1608ffdf2e37e25b6e86060e",
      "s": "0x2641e386436f80be3db179792e531261b836da245783898297c477172002ab98",
      "v": 27,
      "creates": null,
      "raw": "0xf86d51850dc259f7ab831e848094baa54d6e90c3f4d7ebec11bd180134c7ed8ebb5288016345785d8a0000801ba0c80a3c0098b5c771369d74e744b9393e4a073abe1608ffdf2e37e25b6e86060ea02641e386436f80be3db179792e531261b836da245783898297c477172002ab98",
      "networkId": 0,
      "chainId": 0
    },
    {
      "hash": "0x08f837a1d2f69aa200a19d0bb024b2fadebb10a00318ddafb499617a60e28d5e",
      "blockHash": "0x0270fbd352d0a140961cc06740f0ded179c3097a99200a67df6d3e71500fde64",
      "blockNumber": 55245,
      "transactionIndex": 11,
      "confirmations": null,
      "from": "0x0ae3F81a67725a8A7758FeB8684c6c17dA20755D",
      "gasPrice": {
        "_hex": "0xdc259f7ab"
      },
      "gasLimit": {
        "_hex": "0x1e8480"
      },
      "to": "0xBAA54d6E90c3F4d7Ebec11bD180134C7eD8eBb52",
      "value": {
        "_hex": "0x16345785d8a0000"
      },
      "nonce": 82,
      "data": "0x",
      "r": "0xc24c17da474146f86ebf5de6c9495be46a8ffb60caa6892ecdf7508fff016490",
      "s": "0x7e44270bc7c4271e402d395804be5560169dc5045994cd07c2f3f584eff2815f",
      "v": 27,
      "creates": null,
      "raw": "0xf86d52850dc259f7ab831e848094baa54d6e90c3f4d7ebec11bd180134c7ed8ebb5288016345785d8a0000801ba0c24c17da474146f86ebf5de6c9495be46a8ffb60caa6892ecdf7508fff016490a07e44270bc7c4271e402d395804be5560169dc5045994cd07c2f3f584eff2815f",
      "networkId": 0,
      "chainId": 0
    },
    {
      "hash": "0x2d0bfa1baa2f4c2ea3d8520e6212904ec6954986f7cd6cde662daefe8508c0b8",
      "blockHash": "0x0270fbd352d0a140961cc06740f0ded179c3097a99200a67df6d3e71500fde64",
      "blockNumber": 55245,
      "transactionIndex": 12,
      "confirmations": null,
      "from": "0x0ae3F81a67725a8A7758FeB8684c6c17dA20755D",
      "gasPrice": {
        "_hex": "0xdc259f7ab"
      },
      "gasLimit": {
        "_hex": "0x1e8480"
      },
      "to": "0xBAA54d6E90c3F4d7Ebec11bD180134C7eD8eBb52",
      "value": {
        "_hex": "0x16345785d8a0000"
      },
      "nonce": 83,
      "data": "0x",
      "r": "0xaddc199842d66d7c13be64e50dd40177274c452802bf8db258c701c08b930f8d",
      "s": "0x58d8a3e607400f7035089bb9505edcbeb03c9a3e7e370e8614bf3ca67ed4b7d1",
      "v": 27,
      "creates": null,
      "raw": "0xf86d53850dc259f7ab831e848094baa54d6e90c3f4d7ebec11bd180134c7ed8ebb5288016345785d8a0000801ba0addc199842d66d7c13be64e50dd40177274c452802bf8db258c701c08b930f8da058d8a3e607400f7035089bb9505edcbeb03c9a3e7e370e8614bf3ca67ed4b7d1",
      "networkId": 0,
      "chainId": 0
    }
  ]
}