{
  "hash": "0x0103ffe1f8ca00d2289f7c98e0b1cbc8ff6db7c622222028123c7d2ea793ab77",
  "parentHash": "0x0d4473378192dca71941792ffdf6b8865b4be1f71bbf98914e36832211bf18be",
  "number": 91931,
  "timestamp": 1439664023,
  "nonce": "0xa19f83870e1edd4b",
  "difficulty": 3472408951945,
  "gasLimit": {
    "_hex": "0x2fefd8"
  },
  "gasUsed": {
    "_hex": "0x5208"
  },
  "miner": "0xe6A7a1d47ff21B6321162AEA7C6CB457D5476Bca",
  "extraData": "0x476574682f76312e302e312d38326566323666362f6c696e75782f676f312e34",
  "transactions": [
    {
      "hash": "0xc8495ce3b10bae905c5f86a6437adbeb7383ffec6316a8c4f5a51e3a6dfa0632",
      "blockHash": "0x0103ffe1f8ca00d2289f7c98e0b1cbc8ff6db7c622222028123c7d2ea793ab77",
      "blockNumber": 91931,
      "transactionIndex": 0,
      "confirmations": null,
      "from": "0x973518AA4A7578Cb1eDbebA4cCcCcdD85375Dfb7",
      "gasPrice": {
        "_hex": "0xde7a142df"
      },
      "gasLimit": {
        "_hex": "0x5208"
      },
      "to": "0x32Be343B94f860124dC4fEe278FDCBD38C102D88",
      "value": {
        "_hex": "0x8e1ae9850a29000000"
      },
      "nonce": 0,
      "data": "0x",
      "r": "0xa5aa0c1f49b056f6854d1d027ee4a52e8d33729409162cb87bd362d5024627fc",
      "s": "0x34cd2341ad28e0702c39afdb9cef179114a7ac2ae456847761d099cefebf13f1",
      "v": 27,
      "creates": null,
      "raw": "0xf86d80850de7a142df8252089432be343b94f860124dc4fee278fdcbd38c102d88898e1ae9850a29000000801ba0a5aa0c1f49b056f6854d1d027ee4a52e8d33729409162cb87bd362d5024627fca034cd2341ad28e0702c39afdb9cef179114a7ac2ae456847761d099cefebf13f1",
      "networkId": 0,
      "chainId": 0
    }
  ]
}