{
  "hash": "0x480f0831fa3f19b6fbcf659dd58e2bd333837676bbcfc0e792489b1655d0d361",
  "parentHash": "0x73242d4924caa0fd5631e7118b78e2a1b28cb6b40f715e264884bbada5c2d56e",
  "number": 48264,
  "timestamp": 1438954386,
  "nonce": "0x6ee8fb376cf43b92",
  "difficulty": 1455780670990,
  "gasLimit": {
    "_hex": "0x149cd"
  },
  "gasUsed": {
    "_hex": "0x5208"
  },
  "miner": "0xF04ea9597Cc6c0ff560e4037D69549aC7530516E",
  "extraData": "0x",
  "transactions": [
    {
      "hash": "0x491679bd8a314c4fa9aee2de6ae9d351e51cf598b2c32211dbccfc672bba64a1",
      "blockHash": "0x480f0831fa3f19b6fbcf659dd58e2bd333837676bbcfc0e792489b1655d0d361",
      "blockNumber": 48264,
      "transactionIndex": 0,
      "confirmations": null,
      "from": "0x2A50B1244f9A2e3160173bb3308A855a7395Ba66",
      "gasPrice": {
        "_hex": "0xa7a358200"
      },
      "gasLimit": {
        "_hex": "0x55f0"
      },
      "to": "0x20b2a17fFa355d7Bcb269812A39e8F57D750A5b3",
      "value": {
        "_hex": "0xde0b6b3a7640000"
      },
      "nonce": 0,
      "data": "0x",
      "r": "0x120fccd5905a71a3d6d12f87f1ccb02bb26417d0ac40c55c32603eaf27d50e71",
      "s": "0x15364775127a16fc0b16b2d41021503e7da0757eaa6eacd02fb5fdd8eec37510",
      "v": 28,
      "creates": null,
      "raw": "0xf86c80850a7a3582008255f09420b2a17ffa355d7bcb269812a39e8f57d750a5b3880de0b6b3a7640000801ca0120fccd5905a71a3d6d12f87f1ccb02bb26417d0ac40c55c32603eaf27d50e71a015364775127a16fc0b16b2d41021503e7da0757eaa6eacd02fb5fdd8eec37510",
      "networkId": 0,
      "chainId": 0
    }
  ]
}