{
  "hash": "0xfd2a68271e86809698c4a737deed3082acad780b56b1818a92dee01da46b1eff",
  "parentHash": "0x45effd28176b591873c31133b9869db2aaa6e0041f724d8d8d2e84cdb2772c25",
  "number": 66021,
  "timestamp": 1439247263,
  "nonce": "0x3b18d197684515f2",
  "difficulty": 1946253013649,
  "gasLimit": {
    "_hex": "0x2fe3db"
  },
  "gasUsed": {
    "_hex": "0x5208"
  },
  "miner": "0x785ffdDd5cE55c6DF963f345e68d3F2024E5Acb1",
  "extraData": "0x476574682f4d69676e6f7474652f76312e302e312f6c696e75782f676f312e34",
  "transactions": [
    {
      "hash": "0xbb3ef35c527a07c4d5d505a80d16dbcc63c3c530c1a2c97d950efe7991f52452",
      "blockHash": "0xfd2a68271e86809698c4a737deed3082acad780b56b1818a92dee01da46b1eff",
      "blockNumber": 66021,
      "transactionIndex": 0,
      "confirmations": null,
      "from": "0xC3fe64D1af00F0d9c324E4387EF7533f7D788e95",
      "gasPrice": {
        "_hex": "0xd8e349053"
      },
      "gasLimit": {
        "_hex": "0x5208"
      },
      "to": "0x32Be343B94f860124dC4fEe278FDCBD38C102D88",
      "value": {
        "_hex": "0x1c9f3352ed90c8000"
      },
      "nonce": 3,
      "data": "0x",
      "r": "0xdba6b1470d05b5494d6d2f7273d1ee28839c2ae97db933ce6b28a7defbe0f3ca",
      "s": "0x595d62c6da2231bfe74562e24bc746ad23a7503a091b2e5e04be6ad25b67ea6d",
      "v": 28,
      "creates": null,
      "raw": "0xf86d03850d8e3490538252089432be343b94f860124dc4fee278fdcbd38c102d888901c9f3352ed90c8000801ca0dba6b1470d05b5494d6d2f7273d1ee28839c2ae97db933ce6b28a7defbe0f3caa0595d62c6da2231bfe74562e24bc746ad23a7503a091b2e5e04be6ad25b67ea6d",
      "networkId": 0,
      "chainId": 0
    }
  ]
}