{
  "hash": "0x53bdf6b0a5a42652ee15864742b4ffc2cc4355ff3ce99031ff5cda8c06fcc945",
  "parentHash": "0xc56eb2af4868d4e1b9f9a7e7e75661a0336d5f690478ff0dcdf9e70fd23c2504",
  "number": 71443,
  "timestamp": 1439336179,
  "nonce": "0x201f4fca04948cbc",
  "difficulty": 2178291597550,
  "gasLimit": {
    "_hex": "0x2fefd8"
  },
  "gasUsed": {
    "_hex": "0x5208"
  },
  "miner": "0xbb7B8287f3F0a933474a79eAe42CBCa977791171",
  "extraData": "0x476574682f4c5649562f76312e302e312f6c696e75782f676f312e342e32",
  "transactions": [
    {
      "hash": "0x213c2aeaec8dbf6344497e0436ff0b8f0b80732eb79dcad8a9f815ea87251963",
      "blockHash": "0x53bdf6b0a5a42652ee15864742b4ffc2cc4355ff3ce99031ff5cda8c06fcc945",
      "blockNumber": 71443,
      "transactionIndex": 0,
      "confirmations": null,
      "from": "0x32Be343B94f860124dC4fEe278FDCBD38C102D88",
      "gasPrice": {
        "_hex": "0xde0090ad3"
      },
      "gasLimit": {
        "_hex": "0x5208"
      },
      "to": "0x164334243Ea25246e0703F3bFcA824A30E87197f",
      "value": {
        "_hex": "0xde0b6b3a7640000"
      },
      "nonce": 271,
      "data": "0x",
      "r": "0xaacdfaed658e1a6ad9a8c3bb448e95fb8e37f49fed248a5677093fc4affb14ff",
      "s": "0x295121f30e49cc4403dd1f8d39472f27d29ff2e92964f0acbc9ef374636b7ca3",
      "v": 28,
      "creates": null,
      "raw": "0xf86e82010f850de0090ad382520894164334243ea25246e0703f3bfca824a30e87197f880de0b6b3a7640000801ca0aacdfaed658e1a6ad9a8c3bb448e95fb8e37f49fed248a5677093fc4affb14ffa0295121f30e49cc4403dd1f8d39472f27d29ff2e92964f0acbc9ef374636b7ca3",
      "networkId": 0,
      "chainId": 0
    }
  ]
}