{
  "hash": "0x39fda9b4f116012fce39ef0f4890730971eec98a4222c89643481b2cc69cf8a8",
  "parentHash": "0x077f2552bb93b202be9e8c3a29d9f29702c90811367655b71c1e43574de2fcf8",
  "number": 94138,
  "timestamp": 1439703211,
  "nonce": "0x9f8ab1b049518e21",
  "difficulty": 3476584424121,
  "gasLimit": {
    "_hex": "0x2fefd8"
  },
  "gasUsed": {
    "_hex": "0x5c58"
  },
  "miner": "0x208312414ad16feb261b0f093f780958f60Ce1c8",
  "extraData": "0xd983010001844765746887676f312e342e328777696e646f7773",
  "transactions": [
    {
      "hash": "0x1a78bd203f6a5a925e2aa38f23010b53340c9432cde07d9685afd3c46165df7b",
      "blockHash": "0x39fda9b4f116012fce39ef0f4890730971eec98a4222c89643481b2cc69cf8a8",
      "blockNumber": 94138,
      "transactionIndex": 0,
      "confirmations": null,
      "from": "0xC6aAb39538082C5f61BEf748D7442Ce50C0cb71e",
      "gasPrice": {
        "_hex": "0xdd8c8fc6b"
      },
      "gasLimit": {
        "_hex": "0x15f90"
      },
      "to": "0x0000000000000000000000000000000000000000",
      "value": {
        "_hex": "0x0"
      },
      "nonce": 2,
      "data": "0xbe99a9806d61726b786d6179657200000000000000000000000000000000000000000000000000000000000000000000c6aab39538082c5f61bef748d7442ce50c0cb71e0000000000000000000000000000000000000000000000000000000000000001",
      "r": "0x196ccb3b25a75ec6d72a42914b267e0565714852e22306c66eb0506e2caa16fe",
      "s": "0x67cf362f483d1ed4fe90be91d19f338d7888d388f196aff84957bb4058b97cb2",
      "v": 28,
      "creates": null,
      "raw": "0xf8ca02850dd8c8fc6b83015f9094000000000000000000000000000000000000000080b864be99a9806d61726b786d6179657200000000000000000000000000000000000000000000000000000000000000000000c6aab39538082c5f61bef748d7442ce50c0cb71e00000000000000000000000000000000000000000000000000000000000000011ca0196ccb3b25a75ec6d72a42914b267e0565714852e22306c66eb0506e2caa16fea067cf362f483d1ed4fe90be91d19f338d7888d388f196aff84957bb4058b97cb2",
      "networkId": 0,
      "chainId": 0
    }
  ]
}