{
  "hash": "0xc4daa1a191a564131f09da7f552a796921eb417705fea8a763359fff6f479287",
  "parentHash": "0xa15ad3a82b46ea6408aa83fd1b8860ea16f8c8725637d953fe6b0d230744908f",
  "number": 94451,
  "timestamp": 1439708620,
  "nonce": "0xeaa4ad8bd23ba2e3",
  "difficulty": 3484952514445,
  "gasLimit": {
    "_hex": "0x2fefd8"
  },
  "gasUsed": {
    "_hex": "0x5208"
  },
  "miner": "0xcf00A85f3826941e7A25BFcF9Aac575d40410852",
  "extraData": "0x476574682f76312e302e312f77696e646f77732f676f312e342e32",
  "transactions": [
    {
      "hash": "0xcd9fe48ddcce1f6466d1974f991507b5fec7774a88412ecc13f8d15816b56a8c",
      "blockHash": "0xc4daa1a191a564131f09da7f552a796921eb417705fea8a763359fff6f479287",
      "blockNumber": 94451,
      "transactionIndex": 0,
      "confirmations": null,
      "from": "0x237b555850BE6BFf53a0698146371a2F5890A030",
      "gasPrice": {
        "_hex": "0xcec732717"
      },
      "gasLimit": {
        "_hex": "0x5208"
      },
      "to": "0x32Be343B94f860124dC4fEe278FDCBD38C102D88",
      "value": {
        "_hex": "0x8ac2fedfd3c53000"
      },
      "nonce": 5,
      "data": "0x",
      "r": "0xf58df6763dfbb8b909f6497d48a4ea686da46b3a997818980208659e56255b9a",
      "s": "0x2a555eb8b195bcbb8f6da5c6ccb9d9ebc3723cbeae20ee472e78dc6024d0fb7f",
      "v": 28,
      "creates": null,
      "raw": "0xf86c05850cec7327178252089432be343b94f860124dc4fee278fdcbd38c102d88888ac2fedfd3c53000801ca0f58df6763dfbb8b909f6497d48a4ea686da46b3a997818980208659e56255b9aa02a555eb8b195bcbb8f6da5c6ccb9d9ebc3723cbeae20ee472e78dc6024d0fb7f",
      "networkId": 0,
      "chainId": 0
    }
  ]
}