{
  "hash": "0x5c6936b736109ce1b8230150392c430d5b0118e918dc9987dba562d9278fba3a",
  "parentHash": "0xc1462f2e6fd94726822fbf06531ff134be0bd1a9cf32410f60f0613666adc683",
  "number": 51466,
  "timestamp": 1439005419,
  "nonce": "0xb87c580345ab7913",
  "difficulty": 1561228634852,
  "gasLimit": {
    "_hex": "0xb4f4b"
  },
  "gasUsed": {
    "_hex": "0x299f7"
  },
  "miner": "0xBb12b5a9B85D4AB8CDE6056E9c1b2a4a337D2261",
  "extraData": "0x476574682f76312e302e312d36393865393864392f6c696e75782f676f312e34",
  "transactions": [
    {
      "hash": "0x4141492dad2eeafab74ff263774d08c191f6a6d23b5335526bb43d280caba458",
      "blockHash": "0x5c6936b736109ce1b8230150392c430d5b0118e918dc9987dba562d9278fba3a",
      "blockNumber": 51466,
      "transactionIndex": 0,
      "confirmations": null,
      "from": "0xFCf9f6A78f06227522c6f948ec0119dA31680Ef7",
      "gasPrice": {
        "_hex": "0xdc845cde8"
      },
      "gasLimit": {
        "_hex": "0x7a120"
      },
      "to": "0x109C4f2CCc82C4d77Bde15F306707320294Aea3F",
      "value": {
        "_hex": "0xde0b6b3a7640000"
      },
      "nonce": 16,
      "data": "0x",
      "r": "0xc34b98e6db48834b0edbe5c675e5c827531c69c33a78e142306779e1dc85da6e",
      "s": "0x4604464c3dd5ff71efea8d4cb085f258fcc63cfffcc20de0f31c23e34eb196c9",
      "v": 28,
      "creates": null,
      "raw": "0xf86d10850dc845cde88307a12094109c4f2ccc82c4d77bde15f306707320294aea3f880de0b6b3a7640000801ca0c34b98e6db48834b0edbe5c675e5c827531c69c33a78e142306779e1dc85da6ea04604464c3dd5ff71efea8d4cb085f258fcc63cfffcc20de0f31c23e34eb196c9",
      "networkId": 0,
      "chainId": 0
    },
    {
      "hash": "0x5a752201a482b9b23978c73de178512bcb8e161ecb3d8452aefa5e5a565db272",
      "blockHash": "0x5c6936b736109ce1b8230150392c430d5b0118e918dc9987dba562d9278fba3a",
      "blockNumber": 51466,
      "transactionIndex": 1,
      "confirmations": null,
      "from": "0xFCf9f6A78f06227522c6f948ec0119dA31680Ef7",
      "gasPrice": {
        "_hex": "0xdc845cde8"
      },
      "gasLimit": {
        "_hex": "0x7a120"
      },
      "to": "0x109C4f2CCc82C4d77Bde15F306707320294Aea3F",
      "value": {
        "_hex": "0xde0b6b3a7640000"
      },
      "nonce": 17,
      "data": "0x",
      "r": "0x32d003fa28d9c8c90665a9a56af99a8584b9f980f0286c581f28ac897d1f6477",
      "s": "0x1e90f50e545aa04d504f2bdffd0588d59efe6808ed2b25695ed793799eda678b",
      "v": 28,
      "creates": null,
      "raw": "0xf86d11850dc845cde88307a12094109c4f2ccc82c4d77bde15f306707320294aea3f880de0b6b3a7640000801ca032d003fa28d9c8c90665a9a56af99a8584b9f980f0286c581f28ac897d1f6477a01e90f50e545aa04d504f2bdffd0588d59efe6808ed2b25695ed793799eda678b",
      "networkId": 0,
      "chainId": 0
    },
    {
      "hash": "0x7e0c2a705d4b605146cf6c7e8d738453553757440b2f22ce5325fc6aeb7dc20b",
      "blockHash": "0x5c6936b736109ce1b8230150392c430d5b0118e918dc9987dba562d9278fba3a",
      "blockNumber": 51466,
      "transactionIndex": 2,
      "confirmations": null,
      "from": "0xFCf9f6A78f06227522c6f948ec0119dA31680Ef7",
      "gasPrice": {
        "_hex": "0xdc845cde8"
      },
      "gasLimit": {
        "_hex": "0x7a120"
      },
      "to": "0x109C4f2CCc82C4d77Bde15F306707320294Aea3F",
      "value": {
        "_hex": "0xde0b6b3a7640000"
      },
      "nonce": 18,
      "data": "0x",
      "r": "0x439ea1550b6c2a3f5c52857eaf23c8a25cbf13bae139b62009e6b178e0731422",
      "s": "0x5f91bcb1cf37e2f7a5b5037ca2d2bf2f6e9fd8f7ff8008b2a86cf03ee713eb0d",
      "v": 27,
      "creates": null,
      "raw": "0xf86d12850dc845cde88307a12094109c4f2ccc82c4d77bde15f306707320294aea3f880de0b6b3a7640000801ba0439ea1550b6c2a3f5c52857eaf23c8a25cbf13bae139b62009e6b178e0731422a05f91bcb1cf37e2f7a5b5037ca2d2bf2f6e9fd8f7ff8008b2a86cf03ee713eb0d",
      "networkId": 0,
      "chainId": 0
    }
  ]
}