{
  "hash": "0x160eae81973aa541c6ba75832fcadc63a2988ab0bf1c11501d1203069ae9f6e4",
  "parentHash": "0x6c14f9a81c3f19a49cde1f5557b0187183894a62a73f15903d755d4211097f63",
  "number": 84322,
  "timestamp": 1439548049,
  "nonce": "0x26e268f4c29e16e9",
  "difficulty": 2539051968358,
  "gasLimit": {
    "_hex": "0x2fefd8"
  },
  "gasUsed": {
    "_hex": "0x33450"
  },
  "miner": "0xa50ec0D39fa913E62f1Bae7074E6F36caA71855b",
  "extraData": "0xd783010001844765746887676f312e342e32856c696e7578",
  "transactions": [
    {
      "hash": "0xdbc8727bc7123dbd582949839ae56d2d9f1b89e37e2d956ddb034a672ad79d5a",
      "blockHash": "0x160eae81973aa541c6ba75832fcadc63a2988ab0bf1c11501d1203069ae9f6e4",
      "blockNumber": 84322,
      "transactionIndex": 0,
      "confirmations": null,
      "from": "0xa70a9a7040d542C632D8e0bE7c5513A8a5Bbc752",
      "gasPrice": {
        "_hex": "0xd30503c39"
      },
      "gasLimit": {
        "_hex": "0x5208"
      },
      "to": "0x32Be343B94f860124dC4fEe278FDCBD38C102D88",
      "value": {
        "_hex": "0x4563aaf4dee9f800"
      },
      "nonce": 79,
      "data": "0x",
      "r": "0x4bdd5eb3f30573c8e13547a3155f12658e285a5f2ec228b2eabf59687ec27f37",
      "s": "0x2cf06702c57b8acf0becd800de1f131b889f83abb4bdf5fda58a4f0b44b42a3e",
      "v": 27,
      "creates": null,
      "raw": "0xf86c4f850d30503c398252089432be343b94f860124dc4fee278fdcbd38c102d88884563aaf4dee9f800801ba04bdd5eb3f30573c8e13547a3155f12658e285a5f2ec228b2eabf59687ec27f37a02cf06702c57b8acf0becd800de1f131b889f83abb4bdf5fda58a4f0b44b42a3e",
      "networkId": 0,
      "chainId": 0
    },
    {
      "hash": "0xb616080e75b094918872316dec26581ff67de63cac80854735f7f2831b74d280",
      "blockHash": "0x160eae81973aa541c6ba75832fcadc63a2988ab0bf1c11501d1203069ae9f6e4",
      "blockNumber": 84322,
      "transactionIndex": 1,
      "confirmations": null,
      "from": "0x6964b95BF8BA16b837e2f3Ae8dA7D299553eC1f7",
      "gasPrice": {
        "_hex": "0xd30503c39"
      },
      "gasLimit": {
        "_hex": "0x5208"
      },
      "to": "0x32Be343B94f860124dC4fEe278FDCBD38C102D88",
      "value": {
        "_hex": "0x27d32700a2cd88000"
      },
      "nonce": 3,
      "data": "0x",
      "r": "0x53c0170ae71e3c10d012b5c67434e5148ff1a2620af85dc2da00e21351badba4",
      "s": "0x0985573de373d202d4542dbd5d19312c99f24d44efd0516864e39d02fe92b7fc",
      "v": 28,
      "creates": null,
      "raw": "0xf86d03850d30503c398252089432be343b94f860124dc4fee278fdcbd38c102d8889027d32700a2cd88000801ca053c0170ae71e3c10d012b5c67434e5148ff1a2620af85dc2da00e21351badba4a00985573de373d202d4542dbd5d19312c99f24d44efd0516864e39d02fe92b7fc",
      "networkId": 0,
      "chainId": 0
    },
    {
      "hash": "0x1f7d9de2457a454840c1bcbb34c0fc6fd553df695113782a64005bafd6e25ff0",
      "blockHash": "0x160eae81973aa541c6ba75832fcadc63a2988ab0bf1c11501d1203069ae9f6e4",
      "blockNumber": 84322,
      "transactionIndex": 2,
      "confirmations": null,
      "from": "0x211D45933Ef88c3D7aD0120942CF50ab506e618F",
      "gasPrice": {
        "_hex": "0xd30503c39"
      },
      "gasLimit": {
        "_hex": "0x5208"
      },
      "to": "0x32Be343B94f860124dC4fEe278FDCBD38C102D88",
      "value": {
        "_hex": "0xa569aa139b570000"
      },
      "nonce": 2,
      "data": "0x",
      "r": "0x12cdd031e04c9cf1c6434bbb49ab0b34124cffd6f5ea5be1a3a36820e8314950",
      "s": "0x32dca3b5a5f5559566d96fa5b3c10717f20e9bce387e634386a0ab2526db8551",
      "v": 28,
      "creates": null,
      "raw": "0xf86c02850d30503c398252089432be343b94f860124dc4fee278fdcbd38c102d8888a569aa139b570000801ca012cdd031e04c9cf1c6434bbb49ab0b34124cffd6f5ea5be1a3a36820e8314950a032dca3b5a5f5559566d96fa5b3c10717f20e9bce387e634386a0ab2526db8551",
      "networkId": 0,
      "chainId": 0
    },
    {
      "hash": "0xd376e21e9d768897fa2363840bbbe0f71c6c7a26f0b1207f050150a4251354b6",
      "blockHash": "0x160eae81973aa541c6ba75832fcadc63a2988ab0bf1c11501d1203069ae9f6e4",
      "blockNumber": 84322,
      "transactionIndex": 3,
      "confirmations": null,
      "from": "0xdEC7d1B05f89c0Ce0870Ea4AeA18138264675478",
      "gasPrice": {
        "_hex": "0xd30503c39"
      },
      "gasLimit": {
        "_hex": "0x5208"
      },
      "to": "0x32Be343B94f860124dC4fEe278FDCBD38C102D88",
      "value": {
        "_hex": "0x411b23237763140000"
      },
      "nonce": 6,
      "data": "0x",
      "r": "0xea831c3d873cf955875a51a1a4cf1c08d889bb92479d9ca34ac8248affef079f",
      "s": "0x02981c15d5066b409a914d983c53ca4ed84b291ee2c5b3b40465dd676ac0e6f3",
      "v": 28,
      "creates": null,
      "raw": "0xf86d06850d30503c398252089432be343b94f860124dc4fee278fdcbd38c102d8889411b23237763140000801ca0ea831c3d873cf955875a51a1a4cf1c08d889bb92479d9ca34ac8248affef079fa002981c15d5066b409a914d983c53ca4ed84b291ee2c5b3b40465dd676ac0e6f3",
      "networkId": 0,
      "chainId": 0
    },
    {
      "hash": "0x47f81dfc0118cd9bc5e1d0e064c47bacd97e52fc13b4152d2bd08e7be9bde1a8",
      "blockHash": "0x160eae81973aa541c6ba75832fcadc63a2988ab0bf1c11501d1203069ae9f6e4",
      "blockNumber": 84322,
      "transactionIndex": 4,
      "confirmations": null,
      "from": "0xe7523F78ae9eDb81dC7B2A9ca718Ba3776C14f2e",
      "gasPrice": {
        "_hex": "0xd30503c39"
      },
      "gasLimit": {
        "_hex": "0x5208"
      },
      "to": "0x32Be343B94f860124dC4fEe278FDCBD38C102D88",
      "value": {
        "_hex": "0x13ec0d88abe573000"
      },
      "nonce": 3,
      "data": "0x",
      "r": "0x190185bbed14a79bb5119f3ccf366088edb642597e9658a98c09dcb4576ad43c",
      "s": "0x7b08452dc0f80e1549de7bd66f999bfd6a2cc91420c273beab2d34f88938ca89",
      "v": 28,
      "creates": null,
      "raw": "0xf86d03850d30503c398252089432be343b94f860124dc4fee278fdcbd38c102d8889013ec0d88abe573000801ca0190185bbed14a79bb5119f3ccf366088edb642597e9658a98c09dcb4576ad43ca07b08452dc0f80e1549de7bd66f999bfd6a2cc91420c273beab2d34f88938ca89",
      "networkId": 0,
      "chainId": 0
    },
    {
      "hash": "0x4eb7d2cdfa281ec80c9a19d2a44c3651736fd3604c8495e985dc4a05005e36e7",
      "blockHash": "0x160eae81973aa541c6ba75832fcadc63a2988ab0bf1c11501d1203069ae9f6e4",
      "blockNumber": 84322,
      "transactionIndex": 5,
      "confirmations": null,
      "from": "0x022A006FcC619ebf387F413eF06932bAbd47AE0E",
      "gasPrice": {
        "_hex": "0xd30503c39"
      },
      "gasLimit": {
        "_hex": "0x5208"
      },
      "to": "0x32Be343B94f860124dC4fEe278FDCBD38C102D88",
      "value": {
        "_hex": "0x15878a109ddc5e000"
      },
      "nonce": 2,
      "data": "0x",
      "r": "0x5eb04cfe73ad437992ff2f89b2e3861833a71efcd7adde60800f7d2226924c16",
      "s": "0x43694f4b30fab1d2721c6867db45d87c7776753c34f57336e25e98ff095b37ef",
      "v": 27,
      "creates": null,
      "raw": "0xf86d02850d30503c398252089432be343b94f860124dc4fee278fdcbd38c102d8889015878a109ddc5e000801ba05eb04cfe73ad437992ff2f89b2e3861833a71efcd7adde60800f7d2226924c16a043694f4b30fab1d2721c6867db45d87c7776753c34f57336e25e98ff095b37ef",
      "networkId": 0,
      "chainId": 0
    },
    {
      "hash": "0x3eaa5469bdbf90afb8de2c07151a49ae17711be1da7dceb31aa1f24aeb99079b",
      "blockHash": "0x160eae81973aa541c6ba75832fcadc63a2988ab0bf1c11501d1203069ae9f6e4",
      "blockNumber": 84322,
      "transactionIndex": 6,
      "confirmations": null,
      "from": "0x04a6c6a293340Fc3f2244D097b0CFD84d5317bA5",
      "gasPrice": {
        "_hex": "0xd30503c39"
      },
      "gasLimit": {
        "_hex": "0x5208"
      },
      "to": "0x32Be343B94f860124dC4fEe278FDCBD38C102D88",
      "value": {
        "_hex": "0xe53ea25e80051000"
      },
      "nonce": 0,
      "data": "0x",
      "r": "0x2d9af37289381278792c3c5cfa2ec3f5c6dff151acc2128730d236f96588aeb4",
      "s": "0x20345c809fe0fd5c0d00638a2d21660833aa66c95ee91c49ff69031555e53d4b",
      "v": 27,
      "creates": null,
      "raw": "0xf86c80850d30503c398252089432be343b94f860124dc4fee278fdcbd38c102d8888e53ea25e80051000801ba02d9af37289381278792c3c5cfa2ec3f5c6dff151acc2128730d236f96588aeb4a020345c809fe0fd5c0d00638a2d21660833aa66c95ee91c49ff69031555e53d4b",
      "networkId": 0,
      "chainId": 0
    },
    {
      "hash": "0x4391a9804f083bbb0c2ee8578d5f8c886a40b85b958621c3a33091a2692b346d",
      "blockHash": "0x160eae81973aa541c6ba75832fcadc63a2988ab0bf1c11501d1203069ae9f6e4",
      "blockNumber": 84322,
      "transactionIndex": 7,
      "confirmations": null,
      "from": "0x3629B45bBf972aDc23C064D31B7d7c6ce17415D5",
      "gasPrice": {
        "_hex": "0xd30503c39"
      },
      "gasLimit": {
        "_hex": "0x5208"
      },
      "to": "0x32Be343B94f860124dC4fEe278FDCBD38C102D88",
      "value": {
        "_hex": "0x8c298469f6acd000"
      },
      "nonce": 0,
      "data": "0x",
      "r": "0xa01478a6d2ffe7da5489f04c7c9ada5559669c9561353b4ce7b45284819d4ca0",
      "s": "0x445434c3dddaf76910bb0a37432312f06419246baacc116532b3edc6dcfb2777",
      "v": 28,
      "creates": null,
      "raw": "0xf86c80850d30503c398252089432be343b94f860124dc4fee278fdcbd38c102d88888c298469f6acd000801ca0a01478a6d2ffe7da5489f04c7c9ada5559669c9561353b4ce7b45284819d4ca0a0445434c3dddaf76910bb0a37432312f06419246baacc116532b3edc6dcfb2777",
      "networkId": 0,
      "chainId": 0
    },
    {
      "hash": "0x1acf2d2319f2b71a3f523b948fbfb38c8870bcfb10f3bda327b279ee84a6db4f",
      "blockHash": "0x160eae81973aa541c6ba75832fcadc63a2988ab0bf1c11501d1203069ae9f6e4",
      "blockNumber": 84322,
      "transactionIndex": 8,
      "confirmations": null,
      "from": "0x59C62d3D43f9EA1c4118d98c188AA5d028b8bB8E",
      "gasPrice": {
        "_hex": "0xd30503c39"
      },
      "gasLimit": {
        "_hex": "0x5208"
      },
      "to": "0x32Be343B94f860124dC4fEe278FDCBD38C102D88",
      "value": {
        "_hex": "0x1236accc9e0c72000"
      },
      "nonce": 9,
      "data": "0x",
      "r": "0xa1f11a299e23ad0c1eabe57a0c2836613b6f69d1bb6d530cdac26916b1460f53",
      "s": "0x17daf4a3fb5e20809d0b334e0973bfccb064d7c6d63a83ecc74c326d701462c8",
      "v": 27,
      "creates": null,
      "raw": "0xf86d09850d30503c398252089432be343b94f860124dc4fee278fdcbd38c102d888901236accc9e0c72000801ba0a1f11a299e23ad0c1eabe57a0c2836613b6f69d1bb6d530cdac26916b1460f53a017daf4a3fb5e20809d0b334e0973bfccb064d7c6d63a83ecc74c326d701462c8",
      "networkId": 0,
      "chainId": 0
    },
    {
      "hash": "0xa67c83562bcd037f64ad53db8842e551a91999f4698c0a3653a5e32bbc8c9e99",
      "blockHash": "0x160eae81973aa541c6ba75832fcadc63a2988ab0bf1c11501d1203069ae9f6e4",
      "blockNumber": 84322,
      "transactionIndex": 9,
      "confirmations": null,
      "from": "0x3b09EfC81d5e3F72737B4063883CEDdfBc79ae88",
      "gasPrice": {
        "_hex": "0xd30503c39"
      },
      "gasLimit": {
        "_hex": "0x5208"
      },
      "to": "0x32Be343B94f860124dC4fEe278FDCBD38C102D88",
      "value": {
        "_hex": "0x721d26c6d0fcc400"
      },
      "nonce": 2,
      "data": "0x",
      "r": "0x76d32f91e26053ad0a58dde1e6dd672cb7a95492700ff0d0031b623e3fdead6b",
      "s": "0x4951949252a64b5513af4b2a21b7f3f2e09a51734a14b5700f445ba39530a346",
      "v": 28,
      "creates": null,
      "raw": "0xf86c02850d30503c398252089432be343b94f860124dc4fee278fdcbd38c102d8888721d26c6d0fcc400801ca076d32f91e26053ad0a58dde1e6dd672cb7a95492700ff0d0031b623e3fdead6ba04951949252a64b5513af4b2a21b7f3f2e09a51734a14b5700f445ba39530a346",
      "networkId": 0,
      "chainId": 0
    }
  ]
}