{
  "hash": "0xaf9af5d34f74f778316eed422b771dba39672d298ad34ae8b365653f1a1f456f",
  "parentHash": "0x7173d44fdae68c649a7c4cd7617f33362e03e903069266ea3852d46d54385fdb",
  "number": 79125,
  "timestamp": 1439464859,
  "nonce": "0x502e3b4bf43a6eef",
  "difficulty": 2318920325335,
  "gasLimit": {
    "_hex": "0x2fefd8"
  },
  "gasUsed": {
    "_hex": "0x5208"
  },
  "miner": "0xe6A7a1d47ff21B6321162AEA7C6CB457D5476Bca",
  "extraData": "0x476574682f76312e302e312d38326566323666362f6c696e75782f676f312e34",
  "transactions": [
    {
      "hash": "0xf92803bfc9989c8bd7cdec04b6d4e1cff650c22c17623785613569a7c775a8f0",
      "blockHash": "0xaf9af5d34f74f778316eed422b771dba39672d298ad34ae8b365653f1a1f456f",
      "blockNumber": 79125,
      "transactionIndex": 0,
      "confirmations": null,
      "from": "0xFAF4d1326d886D8dFe403B3F8A00DC7a7EA05629",
      "gasPrice": {
        "_hex": "0xd597bcd8a"
      },
      "gasLimit": {
        "_hex": "0x5208"
      },
      "to": "0x32Be343B94f860124dC4fEe278FDCBD38C102D88",
      "value": {
        "_hex": "0x3032e1c9eacc3000"
      },
      "nonce": 0,
      "data": "0x",
      "r": "0x424c90e92cd9fd8b583fff3453729ac5f9db4cc58205cd15e50663d991443a97",
      "s": "0x457b90361296ed84c1b3d9eb61afee87e0f40e222eec080b950b5b390073cb97",
      "v": 27,
      "creates": null,
      "raw": "0xf86c80850d597bcd8a8252089432be343b94f860124dc4fee278fdcbd38c102d88883032e1c9eacc3000801ba0424c90e92cd9fd8b583fff3453729ac5f9db4cc58205cd15e50663d991443a97a0457b90361296ed84c1b3d9eb61afee87e0f40e222eec080b950b5b390073cb97",
      "networkId": 0,
      "chainId": 0
    }
  ]
}