{
  "hash": "0x0bf771e4971e49bcb7641681317af6b1fb4cf82e1b6e7c391cc2a89f23d8529f",
  "parentHash": "0x8e30841c43f233678b40ac1584431a541a7492b9ef43fdbd0dad4aaf37113f56",
  "number": 115513,
  "timestamp": 1440058393,
  "nonce": "0xd133e621bf73e269",
  "difficulty": 4600739685547,
  "gasLimit": {
    "_hex": "0x2fefd8"
  },
  "gasUsed": {
    "_hex": "0x5208"
  },
  "miner": "0x007f7f58D3eb5b7510A301eCC749FC1fCDDBE14D",
  "extraData": "0x476574682f76312e302e312f77696e646f77732f676f312e342e32",
  "transactions": [
    {
      "hash": "0xf10ee0bca526c2c886c1867c8068ae1af903382236e6de9357c10f9440759409",
      "blockHash": "0x0bf771e4971e49bcb7641681317af6b1fb4cf82e1b6e7c391cc2a89f23d8529f",
      "blockNumber": 115513,
      "transactionIndex": 0,
      "confirmations": null,
      "from": "0x50056353D06a71b1f427499419D04F81f5dE4F20",
      "gasPrice": {
        "_hex": "0xd95f1b9ee"
      },
      "gasLimit": {
        "_hex": "0x5208"
      },
      "to": "0x32Be343B94f860124dC4fEe278FDCBD38C102D88",
      "value": {
        "_hex": "0xde61cfcd57402000"
      },
      "nonce": 9,
      "data": "0x",
      "r": "0x7bf6e6314be3c2641282d1d7bfc584710c21631d64e53b8b2acc46ba7e769ec4",
      "s": "0x18f24c882a2f49e464a1515a98fa6a0c8f043f46eccfba18b365fc0273f9d35d",
      "v": 27,
      "creates": null,
      "raw": "0xf86c09850d95f1b9ee8252089432be343b94f860124dc4fee278fdcbd38c102d8888de61cfcd57402000801ba07bf6e6314be3c2641282d1d7bfc584710c21631d64e53b8b2acc46ba7e769ec4a018f24c882a2f49e464a1515a98fa6a0c8f043f46eccfba18b365fc0273f9d35d",
      "networkId": 0,
      "chainId": 0
    }
  ]
}