{
  "hash": "0x7e8bbb17524cc79ed7ecbeeb519d49e75a01beee96224a50fc6b71bcdc699faf",
  "parentHash": "0x15dac668b02bd431805a60fcf09750b538735f6051b0381c5bf00b88782c585a",
  "number": 83421,
  "timestamp": 1439535098,
  "nonce": "0x67ff0fa7a03ee6ff",
  "difficulty": 2428963397321,
  "gasLimit": {
    "_hex": "0x2fefd8"
  },
  "gasUsed": {
    "_hex": "0x5208"
  },
  "miner": "0xC603Ab5ef41fC61AA8b76bEddb09e3Cfcbb174BD",
  "extraData": "0x476574682f76312e302e312f77696e646f77732f676f312e342e32",
  "transactions": [
    {
      "hash": "0x7862e62467bdbfe1e55dd14e355480b5b8bcaf8d343f1c7e857dc758dfdbfbd7",
      "blockHash": "0x7e8bbb17524cc79ed7ecbeeb519d49e75a01beee96224a50fc6b71bcdc699faf",
      "blockNumber": 83421,
      "transactionIndex": 0,
      "confirmations": null,
      "from": "0x2910543Af39abA0Cd09dBb2D50200b3E800A63D2",
      "gasPrice": {
        "_hex": "0xd1c9ef76f"
      },
      "gasLimit": {
        "_hex": "0x5208"
      },
      "to": "0x6De181Fc4C140FA31F196e5393516c49EEeBdAd3",
      "value": {
        "_hex": "0x1f1dc7e3581a578000"
      },
      "nonce": 526,
      "data": "0x",
      "r": "0xc45e9e57e4c3aca1f96e65f94aa4041e8ee8d8506b2ae110b3acd1c341d8475b",
      "s": "0x4727828ab96b63887bea3a806d990e6707d8296e89bcf795036c276bcf42114a",
      "v": 28,
      "creates": null,
      "raw": "0xf86f82020e850d1c9ef76f825208946de181fc4c140fa31f196e5393516c49eeebdad3891f1dc7e3581a578000801ca0c45e9e57e4c3aca1f96e65f94aa4041e8ee8d8506b2ae110b3acd1c341d8475ba04727828ab96b63887bea3a806d990e6707d8296e89bcf795036c276bcf42114a",
      "networkId": 0,
      "chainId": 0
    }
  ]
}