{
  "hash": "0xab94239aa9b62a0ca934ae13eef88ed2f76a1b4a3834bed71502635fb615c9e0",
  "parentHash": "0xee5f94f348897be7695e9f8b6cb1f3ab9e6c076ad7c0f54ee6899df54cdcd7cb",
  "number": 79034,
  "timestamp": 1439463491,
  "nonce": "0x4d72e8d070ee9bc3",
  "difficulty": 2304272230934,
  "gasLimit": {
    "_hex": "0x2fefd8"
  },
  "gasUsed": {
    "_hex": "0x5208"
  },
  "miner": "0xcAF987dC6DAcB89E1e6Eba13265426e7132E15db",
  "extraData": "0x476574682f76312e302e312f6c696e75782f676f312e342e32",
  "transactions": [
    {
      "hash": "0xbb2a550a0e57541094f6d4c82c2084cff22c7218901131157e47d193126ae074",
      "blockHash": "0xab94239aa9b62a0ca934ae13eef88ed2f76a1b4a3834bed71502635fb615c9e0",
      "blockNumber": 79034,
      "transactionIndex": 0,
      "confirmations": null,
      "from": "0x32Be343B94f860124dC4fEe278FDCBD38C102D88",
      "gasPrice": {
        "_hex": "0xe2f206a31"
      },
      "gasLimit": {
        "_hex": "0x5208"
      },
      "to": "0x566B3E44014f2a2587e054AdFA915861AE82Fe39",
      "value": {
        "_hex": "0xbda8a2c4905be0000"
      },
      "nonce": 409,
      "data": "0x",
      "r": "0x602ba5488c0842e1395ad9f0b0d7a235fd32236a8e7be337fed014870c8d4c08",
      "s": "0x33db006733c1c2da81f23a12f2444c2d80f3748e7b46e4a95be7d666c4275a9f",
      "v": 27,
      "creates": null,
      "raw": "0xf86f820199850e2f206a3182520894566b3e44014f2a2587e054adfa915861ae82fe39890bda8a2c4905be0000801ba0602ba5488c0842e1395ad9f0b0d7a235fd32236a8e7be337fed014870c8d4c08a033db006733c1c2da81f23a12f2444c2d80f3748e7b46e4a95be7d666c4275a9f",
      "networkId": 0,
      "chainId": 0
    }
  ]
}