{
  "hash": "0x77eac2938cc85fe485a1223f44fbc179e1bd0bc1578ec848c5ac01aa0e799d1b",
  "parentHash": "0x2c4a67edbb1ea3f18765e5cfae495a13e717fb0f8a99b91d5472ca9797e56792",
  "number": 102823,
  "timestamp": 1439843722,
  "nonce": "0x5440102a93ae992d",
  "difficulty": 4062316126041,
  "gasLimit": {
    "_hex": "0x2fefd8"
  },
  "gasUsed": {
    "_hex": "0xa410"
  },
  "miner": "0x9746c7e1ef2bd21FF3997fa467593a89cb852BD0",
  "extraData": "0x476574682f76312e302e312f77696e646f77732f676f312e342e32",
  "transactions": [
    {
      "hash": "0x1e6368401d9fccdfaa39915e5508029e04fdbdc90a57dcd6aae5e909c7c8328f",
      "blockHash": "0x77eac2938cc85fe485a1223f44fbc179e1bd0bc1578ec848c5ac01aa0e799d1b",
      "blockNumber": 102823,
      "transactionIndex": 0,
      "confirmations": null,
      "from": "0x2910543Af39abA0Cd09dBb2D50200b3E800A63D2",
      "gasPrice": {
        "_hex": "0xde2d7d3c7"
      },
      "gasLimit": {
        "_hex": "0x5208"
      },
      "to": "0xAd9DbFc10FaF86e12b09d148F456a5568609b7Ab",
      "value": {
        "_hex": "0x78648e41c2ac2d2000"
      },
      "nonce": 1005,
      "data": "0x",
      "r": "0xdc9e1251028e16f860d1952959edeb7cf1c0732eb6e1941c4a8ef00bd73126c3",
      "s": "0x10045b90694b6a3a7a85380b7bcae3a225a963ba4074e33e80b242ff1c980605",
      "v": 27,
      "creates": null,
      "raw": "0xf86f8203ed850de2d7d3c782520894ad9dbfc10faf86e12b09d148f456a5568609b7ab8978648e41c2ac2d2000801ba0dc9e1251028e16f860d1952959edeb7cf1c0732eb6e1941c4a8ef00bd73126c3a010045b90694b6a3a7a85380b7bcae3a225a963ba4074e33e80b242ff1c980605",
      "networkId": 0,
      "chainId": 0
    },
    {
      "hash": "0x6981658cdf49c718b6618cbf96644574b6829c8817678cb2735deade6464ba28",
      "blockHash": "0x77eac2938cc85fe485a1223f44fbc179e1bd0bc1578ec848c5ac01aa0e799d1b",
      "blockNumber": 102823,
      "transactionIndex": 1,
      "confirmations": null,
      "from": "0x2910543Af39abA0Cd09dBb2D50200b3E800A63D2",
      "gasPrice": {
        "_hex": "0xde2d7d3c7"
      },
      "gasLimit": {
        "_hex": "0x5208"
      },
      "to": "0xfDbb92Ce9AaA0ef325a63ae31adb1DFe4458eF31",
      "value": {
        "_hex": "0x385920b4cf9408000"
      },
      "nonce": 1006,
      "data": "0x",
      "r": "0xf82c19c27a5ccc3818e97cbdb06770b0e4de629e8a633cdf119242e2d1a1eb43",
      "s": "0x42e2057541e08203414fa6d812e767d3a708dfad2f0678e97944dc93d8e35b2d",
      "v": 28,
      "creates": null,
      "raw": "0xf86f8203ee850de2d7d3c782520894fdbb92ce9aaa0ef325a63ae31adb1dfe4458ef31890385920b4cf9408000801ca0f82c19c27a5ccc3818e97cbdb06770b0e4de629e8a633cdf119242e2d1a1eb43a042e2057541e08203414fa6d812e767d3a708dfad2f0678e97944dc93d8e35b2d",
      "networkId": 0,
      "chainId": 0
    }
  ]
}