{
  "hash": "0xe0dfd9b09395ce687b78337f54bcbfaebadb9c294049fc9cc118796e60d2b9f2",
  "parentHash": "0xadbd697d0b9edde6a814b4d7c22bd36c90d4d403a6537ebbbeac380d258e86f4",
  "number": 67280,
  "timestamp": 1439269445,
  "nonce": "0x09d2dc4f831139fc",
  "difficulty": 1914856386012,
  "gasLimit": {
    "_hex": "0x2fefd8"
  },
  "gasUsed": {
    "_hex": "0xbef1"
  },
  "miner": "0x3172ceC048754c2c0D3808fB028B7b060bb76780",
  "extraData": "0x",
  "transactions": [
    {
      "hash": "0x7d177bf7719b9b1d0aaa64c26e9358f5f692f547f73f346c3e1bb8a5976b0e63",
      "blockHash": "0xe0dfd9b09395ce687b78337f54bcbfaebadb9c294049fc9cc118796e60d2b9f2",
      "blockNumber": 67280,
      "transactionIndex": 0,
      "confirmations": null,
      "from": "0x976349705b839e2F5719387Fb27D2519d519da03",
      "gasPrice": {
        "_hex": "0xd95aa054f"
      },
      "gasLimit": {
        "_hex": "0x15f90"
      },
      "to": "0x125B606C67E8066Da65069652b656c19717745Fa",
      "value": {
        "_hex": "0x695e794ffe2740"
      },
      "nonce": 14,
      "data": "0xa55526db",
      "r": "0xec67dac8720a133fb082edc3ecaaa18c942e4a012ef2dc3906a65e0ccea73ffb",
      "s": "0x5a8462be205aa511897c00a34c5f6e189c8d1b209c6e2e3a23948278c64207b2",
      "v": 27,
      "creates": null,
      "raw": "0xf8700e850d95aa054f83015f9094125b606c67e8066da65069652b656c19717745fa87695e794ffe274084a55526db1ba0ec67dac8720a133fb082edc3ecaaa18c942e4a012ef2dc3906a65e0ccea73ffba05a8462be205aa511897c00a34c5f6e189c8d1b209c6e2e3a23948278c64207b2",
      "networkId": 0,
      "chainId": 0
    }
  ]
}