{
  "hash": "0x0342d895f52160777cd03ad7d029c3ebf408aeaca7806942c7180b5415034822",
  "parentHash": "0x7859db5e5431ff19204306d25847330eed1a539a47c06db2b79b8cd4827e6d1d",
  "number": 115898,
  "timestamp": 1440065187,
  "nonce": "0x7f5659e9c0b4329a",
  "difficulty": 4566956351826,
  "gasLimit": {
    "_hex": "0x2fefd8"
  },
  "gasUsed": {
    "_hex": "0x5208"
  },
  "miner": "0x9D49F602b0fdb924Bd63DDE2Bd0907E4A07c63a7",
  "extraData": "0x476574682f76312e302e312f6c696e75782f676f312e342e32",
  "transactions": [
    {
      "hash": "0x08aa29447bbdffde448e864c22e9aa765c5cf5f1cd1f91405a1700713bb5f5eb",
      "blockHash": "0x0342d895f52160777cd03ad7d029c3ebf408aeaca7806942c7180b5415034822",
      "blockNumber": 115898,
      "transactionIndex": 0,
      "confirmations": null,
      "from": "0x32Be343B94f860124dC4fEe278FDCBD38C102D88",
      "gasPrice": {
        "_hex": "0xde7dab506"
      },
      "gasLimit": {
        "_hex": "0x5208"
      },
      "to": "0xE3291e02d1d7b6A7F4aAA164c56Cf21FD30D0eb5",
      "value": {
        "_hex": "0x3635a626d36ee00000"
      },
      "nonce": 1452,
      "data": "0x",
      "r": "0x57b2852fe558a2afe5f2fa02eac3b2b5d67041da53adb65c25ca0379ed90acd1",
      "s": "0x4cf3aa0026a8833da4d161d8faf0767b573f76a56b394fe169a428dfd624b913",
      "v": 28,
      "creates": null,
      "raw": "0xf86f8205ac850de7dab50682520894e3291e02d1d7b6a7f4aaa164c56cf21fd30d0eb5893635a626d36ee00000801ca057b2852fe558a2afe5f2fa02eac3b2b5d67041da53adb65c25ca0379ed90acd1a04cf3aa0026a8833da4d161d8faf0767b573f76a56b394fe169a428dfd624b913",
      "networkId": 0,
      "chainId": 0
    }
  ]
}