{
  "hash": "0xecdb416027bc13a49c8ff57fec703cd9bd9668763e9c78af02195345dbdbe0d6",
  "parentHash": "0x86723e37ff5260e16a6dc466a1a91d79f3ed033a0881e52bc728ad9db45228bd",
  "number": 74258,
  "timestamp": 1439383177,
  "nonce": "0xf8d398d7d075d30f",
  "difficulty": 2210772593981,
  "gasLimit": {
    "_hex": "0x2fefd8"
  },
  "gasUsed": {
    "_hex": "0x4ce78"
  },
  "miner": "0x93641e54c9aA6F9038FE7Adb03629a1747326Cd6",
  "extraData": "0x476574682f76312e302e312f77696e646f77732f676f312e342e32",
  "transactions": [
    {
      "hash": "0x04e3ccbadbfcb3519c57047c66f77756977e5c8c4dcc0115b1e8125344428e8b",
      "blockHash": "0xecdb416027bc13a49c8ff57fec703cd9bd9668763e9c78af02195345dbdbe0d6",
      "blockNumber": 74258,
      "transactionIndex": 0,
      "confirmations": null,
      "from": "0xe6A7a1d47ff21B6321162AEA7C6CB457D5476Bca",
      "gasPrice": {
        "_hex": "0xcc754e355"
      },
      "gasLimit": {
        "_hex": "0x55f0"
      },
      "to": "0xc544B25bb91b87e380dda392687c6216b0260671",
      "value": {
        "_hex": "0x6ce3ca2c4d6747d0"
      },
      "nonce": 851,
      "data": "0x",
      "r": "0x2a4da4482fb452e72d0c0a1cb13577036c25a49127705055c36f9e4b6ac40823",
      "s": "0x7465ebc79ac1bbf76b370f4b16a13c8ee35dc3dea72599074878466caa548f15",
      "v": 27,
      "creates": null,
      "raw": "0xf86e820353850cc754e3558255f094c544b25bb91b87e380dda392687c6216b0260671886ce3ca2c4d6747d0801ba02a4da4482fb452e72d0c0a1cb13577036c25a49127705055c36f9e4b6ac40823a07465ebc79ac1bbf76b370f4b16a13c8ee35dc3dea72599074878466caa548f15",
      "networkId": 0,
      "chainId": 0
    },
    {
      "hash": "0xf2b5a03f3ec92bb07542c8f4e7bc527eaf7c7b96aacd212ae1d7c45d3fe1dc11",
      "blockHash": "0xecdb416027bc13a49c8ff57fec703cd9bd9668763e9c78af02195345dbdbe0d6",
      "blockNumber": 74258,
      "transactionIndex": 1,
      "confirmations": null,
      "from": "0xe6A7a1d47ff21B6321162AEA7C6CB457D5476Bca",
      "gasPrice": {
        "_hex": "0xcc754e355"
      },
      "gasLimit": {
        "_hex": "0x55f0"
      },
      "to": "0x022A006FcC619ebf387F413eF06932bAbd47AE0E",
      "value": {
        "_hex": "0x6ce61521dae9cf00"
      },
      "nonce": 852,
      "data": "0x",
      "r": "0x85b4ac7e3be42beafc88305d021b8ea28601bca496c8fb341189e37e26cdd956",
      "s": "0x398efdbfd42295b087b16635a9b6ce9f24b37ad9becada175714114128655d2c",
      "v": 27,
      "creates": null,
      "raw": "0xf86e820354850cc754e3558255f094022a006fcc619ebf387f413ef06932babd47ae0e886ce61521dae9cf00801ba085b4ac7e3be42beafc88305d021b8ea28601bca496c8fb341189e37e26cdd956a0398efdbfd42295b087b16635a9b6ce9f24b37ad9becada175714114128655d2c",
      "networkId": 0,
      "chainId": 0
    },
    {
      "hash": "0xd190fbf61ec43a79dfeb424561e281ba7f0d033ef75b612705dd2d5a942e9575",
      "blockHash": "0xecdb416027bc13a49c8ff57fec703cd9bd9668763e9c78af02195345dbdbe0d6",
      "blockNumber": 74258,
      "transactionIndex": 2,
      "confirmations": null,
      "from": "0xe6A7a1d47ff21B6321162AEA7C6CB457D5476Bca",
      "gasPrice": {
        "_hex": "0xcc754e355"
      },
      "gasLimit": {
        "_hex": "0x55f0"
      },
      "to": "0x4369BF4867c99a39513Bb176d468A7e326F3a542",
      "value": {
        "_hex": "0x6d0bf665acc52020"
      },
      "nonce": 853,
      "data": "0x",
      "r": "0x96fa31ec77a0334c824e57da45de60a63cdec3abe05ec3e987eff94f3b7dc83b",
      "s": "0x07dc65dd6c4c8fa2c0702f2e4dcd6acb78a2a1ba6bd82eb7af33424eb895f3ca",
      "v": 28,
      "creates": null,
      "raw": "0xf86e820355850cc754e3558255f0944369bf4867c99a39513bb176d468a7e326f3a542886d0bf665acc52020801ca096fa31ec77a0334c824e57da45de60a63cdec3abe05ec3e987eff94f3b7dc83ba007dc65dd6c4c8fa2c0702f2e4dcd6acb78a2a1ba6bd82eb7af33424eb895f3ca",
      "networkId": 0,
      "chainId": 0
    },
    {
      "hash": "0x0623514872dcf255cf1209432a46d0b80d618eb15cb6d71a762d84204b7f9da7",
      "blockHash": "0xecdb416027bc13a49c8ff57fec703cd9bd9668763e9c78af02195345dbdbe0d6",
      "blockNumber": 74258,
      "transactionIndex": 3,
      "confirmations": null,
      "from": "0xe6A7a1d47ff21B6321162AEA7C6CB457D5476Bca",
      "gasPrice": {
        "_hex": "0xcc754e355"
      },
      "gasLimit": {
        "_hex": "0x55f0"
      },
      "to": "0x519DC97eF09491aE962A8F13fe144c71feca4662",
      "value": {
        "_hex": "0x6d4e3f3305f6bef8"
      },
      "nonce": 854,
      "data": "0x",
      "r": "0x3641af3f61c0c6174aa9a543adb08c9ede359c7d878e93fb79dd5975684fee48",
      "s": "0x15ec402745d191e372c1ea8e4878d17bdf77b23f0c341ffa90f6efd1e3080699",
      "v": 28,
      "creates": null,
      "raw": "0xf86e820356850cc754e3558255f094519dc97ef09491ae962a8f13fe144c71feca4662886d4e3f3305f6bef8801ca03641af3f61c0c6174aa9a543adb08c9ede359c7d878e93fb79dd5975684fee48a015ec402745d191e372c1ea8e4878d17bdf77b23f0c341ffa90f6efd1e3080699",
      "networkId": 0,
      "chainId": 0
    },
    {
      "hash": "0x9a3472f6a39aa09834e084e7f32ee27a5f93306d2ffafbeed7c486dda7b477b3",
      "blockHash": "0xecdb416027bc13a49c8ff57fec703cd9bd9668763e9c78af02195345dbdbe0d6",
      "blockNumber": 74258,
      "transactionIndex": 4,
      "confirmations": null,
      "from": "0xe6A7a1d47ff21B6321162AEA7C6CB457D5476Bca",
      "gasPrice": {
        "_hex": "0xcc754e355"
      },
      "gasLimit": {
        "_hex": "0x55f0"
      },
      "to": "0x3b09EfC81d5e3F72737B4063883CEDdfBc79ae88",
      "value": {
        "_hex": "0x6e561897b5d96140"
      },
      "nonce": 855,
      "data": "0x",
      "r": "0x14857cafa880cd7dc102bc7dd17f3047237c5fe90152b414674df88acd46921d",
      "s": "0x0df738cce75f9ba6a7df7b082e7f452195462e8de82f72a3e2f149a9c2c8fb84",
      "v": 27,
      "creates": null,
      "raw": "0xf86e820357850cc754e3558255f0943b09efc81d5e3f72737b4063883ceddfbc79ae88886e561897b5d96140801ba014857cafa880cd7dc102bc7dd17f3047237c5fe90152b414674df88acd46921da00df738cce75f9ba6a7df7b082e7f452195462e8de82f72a3e2f149a9c2c8fb84",
      "networkId": 0,
      "chainId": 0
    },
    {
      "hash": "0xfc1dbd15c3fba8465385bda1145b75cd78db86b3fa5287ce96f1b987b651332d",
      "blockHash": "0xecdb416027bc13a49c8ff57fec703cd9bd9668763e9c78af02195345dbdbe0d6",
      "blockNumber": 74258,
      "transactionIndex": 5,
      "confirmations": null,
      "from": "0xe6A7a1d47ff21B6321162AEA7C6CB457D5476Bca",
      "gasPrice": {
        "_hex": "0xcc754e355"
      },
      "gasLimit": {
        "_hex": "0x55f0"
      },
      "to": "0x211D45933Ef88c3D7aD0120942CF50ab506e618F",
      "value": {
        "_hex": "0x6e9343f2be0b3eb0"
      },
      "nonce": 856,
      "data": "0x",
      "r": "0x0e0429ffafb8cd34e7a8b825beeb07aefc9234a317527b0ddfd9e5167a9a5584",
      "s": "0x6bc349807d38df80327a4a137cc39c54789343c21e55f3e9e945e7893975fd0a",
      "v": 27,
      "creates": null,
      "raw": "0xf86e820358850cc754e3558255f094211d45933ef88c3d7ad0120942cf50ab506e618f886e9343f2be0b3eb0801ba00e0429ffafb8cd34e7a8b825beeb07aefc9234a317527b0ddfd9e5167a9a5584a06bc349807d38df80327a4a137cc39c54789343c21e55f3e9e945e7893975fd0a",
      "networkId": 0,
      "chainId": 0
    },
    {
      "hash": "0xf16a699635a5f75970a55cf70ae0c2659985246938b013a1edd3466b2c765462",
      "blockHash": "0xecdb416027bc13a49c8ff57fec703cd9bd9668763e9c78af02195345dbdbe0d6",
      "blockNumber": 74258,
      "transactionIndex": 6,
      "confirmations": null,
      "from": "0xe6A7a1d47ff21B6321162AEA7C6CB457D5476Bca",
      "gasPrice": {
        "_hex": "0xcc754e355"
      },
      "gasLimit": {
        "_hex": "0x55f0"
      },
      "to": "0x4CA7cc5aF3D69A52e705DcEac59B9f76e0906DA8",
      "value": {
        "_hex": "0x7174c8d23d876a68"
      },
      "nonce": 857,
      "data": "0x",
      "r": "0xbe2b10f828d728824a5f0600e880963b65cea542c4f25306a264ef16aca8514f",
      "s": "0x2708fe448f2ae47f2f1f5239cbf5eb650545c15f177cf81bb812114753f23f05",
      "v": 28,
      "creates": null,
      "raw": "0xf86e820359850cc754e3558255f0944ca7cc5af3d69a52e705dceac59b9f76e0906da8887174c8d23d876a68801ca0be2b10f828d728824a5f0600e880963b65cea542c4f25306a264ef16aca8514fa02708fe448f2ae47f2f1f5239cbf5eb650545c15f177cf81bb812114753f23f05",
      "networkId": 0,
      "chainId": 0
    },
    {
      "hash": "0x1ef4253b5fc309ebd80952d63bd3c6d74ceacaa6834e2d0409bb366e8d0f1cb5",
      "blockHash": "0xecdb416027bc13a49c8ff57fec703cd9bd9668763e9c78af02195345dbdbe0d6",
      "blockNumber": 74258,
      "transactionIndex": 7,
      "confirmations": null,
      "from": "0xe6A7a1d47ff21B6321162AEA7C6CB457D5476Bca",
      "gasPrice": {
        "_hex": "0xcc754e355"
      },
      "gasLimit": {
        "_hex": "0x55f0"
      },
      "to": "0x77e41B4125b7c14757e0f07fE36b2E95db757a10",
      "value": {
        "_hex": "0x722605f7d7f55858"
      },
      "nonce": 858,
      "data": "0x",
      "r": "0xad79d58b1113a7bf888f03a175ac9df3a3392812e8a68b4774cfd8f41625a429",
      "s": "0x51ba3ba381dc5f3356d03268835e2bf12d34bee6cd39bab89567d34e22653a92",
      "v": 28,
      "creates": null,
      "raw": "0xf86e82035a850cc754e3558255f09477e41b4125b7c14757e0f07fe36b2e95db757a1088722605f7d7f55858801ca0ad79d58b1113a7bf888f03a175ac9df3a3392812e8a68b4774cfd8f41625a429a051ba3ba381dc5f3356d03268835e2bf12d34bee6cd39bab89567d34e22653a92",
      "networkId": 0,
      "chainId": 0
    },
    {
      "hash": "0xf1bfa61fd374d6b8fe1bf9bb92decdc5b787a4cce0b97f8479a2f6c4687f9889",
      "blockHash": "0xecdb416027bc13a49c8ff57fec703cd9bd9668763e9c78af02195345dbdbe0d6",
      "blockNumber": 74258,
      "transactionIndex": 8,
      "confirmations": null,
      "from": "0xe6A7a1d47ff21B6321162AEA7C6CB457D5476Bca",
      "gasPrice": {
        "_hex": "0xcc754e355"
      },
      "gasLimit": {
        "_hex": "0x55f0"
      },
      "to": "0xCE09fD3E23b65BaD12809190a19b6BFCFfD48c35",
      "value": {
        "_hex": "0x74cd8dc3ab8321d0"
      },
      "nonce": 859,
      "data": "0x",
      "r": "0x8722c73e449a9ad6ee3712c1f8b0b9703a4446e1470cb6789464c69a2f763667",
      "s": "0x4ecbf082787798b53cc645cfc7ac63644caef68e4d64c04f565e88e44ee6bbb9",
      "v": 27,
      "creates": null,
      "raw": "0xf86e82035b850cc754e3558255f094ce09fd3e23b65bad12809190a19b6bfcffd48c358874cd8dc3ab8321d0801ba08722c73e449a9ad6ee3712c1f8b0b9703a4446e1470cb6789464c69a2f763667a04ecbf082787798b53cc645cfc7ac63644caef68e4d64c04f565e88e44ee6bbb9",
      "networkId": 0,
      "chainId": 0
    },
    {
      "hash": "0x085362e3ce1e9dfb2a2fe7d904377ed2d08ea3f1093fce910be2e5e620a93c65",
      "blockHash": "0xecdb416027bc13a49c8ff57fec703cd9bd9668763e9c78af02195345dbdbe0d6",
      "blockNumber": 74258,
      "transactionIndex": 9,
      "confirmations": null,
      "from": "0xe6A7a1d47ff21B6321162AEA7C6CB457D5476Bca",
      "gasPrice": {
        "_hex": "0xcc754e355"
      },
      "gasLimit": {
        "_hex": "0x55f0"
      },
      "to": "0x6589D22b54648e5D67Dc008eBd0c836D3DF39c87",
      "value": {
        "_hex": "0x76b7ff437c0bb038"
      },
      "nonce": 860,
      "data": "0x",
      "r": "0x4457f5d413cd0e2b3a6161626e958072853856a6c84faeb667046bece1940e3c",
      "s": "0x18893967b7583d0eb8aebf1be820d9a6138d9ed9d7392d2582e6e86d5bd8fe89",
      "v": 28,
      "creates": null,
      "raw": "0xf86e82035c850cc754e3558255f0946589d22b54648e5d67dc008ebd0c836d3df39c878876b7ff437c0bb038801ca04457f5d413cd0e2b3a6161626e958072853856a6c84faeb667046bece1940e3ca018893967b7583d0eb8aebf1be820d9a6138d9ed9d7392d2582e6e86d5bd8fe89",
      "networkId": 0,
      "chainId": 0
    },
    {
      "hash": "0x36d710f9f46cefe14e10cf02e886de5ff8024d0f7051c89a4bf0365ba67abdc7",
      "blockHash": "0xecdb416027bc13a49c8ff57fec703cd9bd9668763e9c78af02195345dbdbe0d6",
      "blockNumber": 74258,
      "transactionIndex": 10,
      "confirmations": null,
      "from": "0xe6A7a1d47ff21B6321162AEA7C6CB457D5476Bca",
      "gasPrice": {
        "_hex": "0xcc754e355"
      },
      "gasLimit": {
        "_hex": "0x55f0"
      },
      "to": "0xD99b25c518320820D3C5ae9f47378DA32dED5f00",
      "value": {
        "_hex": "0x77099b429e94ad98"
      },
      "nonce": 861,
      "data": "0x",
      "r": "0x2bd89d3713efd93efa61921b60a686829fd3f5ca330eb94985318720e5d71a24",
      "s": "0x04ebf681e4948c9fa0a7bffac0be3717fd1c0689c4e7a8c80a95275c0bdae3ed",
      "v": 28,
      "creates": null,
      "raw": "0xf86e82035d850cc754e3558255f094d99b25c518320820d3c5ae9f47378da32ded5f008877099b429e94ad98801ca02bd89d3713efd93efa61921b60a686829fd3f5ca330eb94985318720e5d71a24a004ebf681e4948c9fa0a7bffac0be3717fd1c0689c4e7a8c80a95275c0bdae3ed",
      "networkId": 0,
      "chainId": 0
    },
    {
      "hash": "0x6891c8f264f3f14abd71cc3a3378783b9b30ab3d49221cc3a933445689ca1364",
      "blockHash": "0xecdb416027bc13a49c8ff57fec703cd9bd9668763e9c78af02195345dbdbe0d6",
      "blockNumber": 74258,
      "transactionIndex": 11,
      "confirmations": null,
      "from": "0xe6A7a1d47ff21B6321162AEA7C6CB457D5476Bca",
      "gasPrice": {
        "_hex": "0xe2e3258f0"
      },
      "gasLimit": {
        "_hex": "0x55f0"
      },
      "to": "0x8D1c6749EAB6Db364671E1e1a2f12711a977B184",
      "value": {
        "_hex": "0x794861bea22819a8"
      },
      "nonce": 862,
      "data": "0x",
      "r": "0x3c4773d4925c66a7a620a3eaec0db1d68cc6477100889368e2010272a86a2c1a",
      "s": "0x62e339b842f2e16f1c5117fb08d1467d2fd78bf4edda5bae8e9f1861adf35002",
      "v": 28,
      "creates": null,
      "raw": "0xf86e82035e850e2e3258f08255f0948d1c6749eab6db364671e1e1a2f12711a977b18488794861bea22819a8801ca03c4773d4925c66a7a620a3eaec0db1d68cc6477100889368e2010272a86a2c1aa062e339b842f2e16f1c5117fb08d1467d2fd78bf4edda5bae8e9f1861adf35002",
      "networkId": 0,
      "chainId": 0
    },
    {
      "hash": "0x44814a4fcb4abfa7c70bfb94ec171c5b5a0e7da00a298e27c286ad6869f00bf0",
      "blockHash": "0xecdb416027bc13a49c8ff57fec703cd9bd9668763e9c78af02195345dbdbe0d6",
      "blockNumber": 74258,
      "transactionIndex": 12,
      "confirmations": null,
      "from": "0xe6A7a1d47ff21B6321162AEA7C6CB457D5476Bca",
      "gasPrice": {
        "_hex": "0xe2e3258f0"
      },
      "gasLimit": {
        "_hex": "0x55f0"
      },
      "to": "0x1d6C4F7d4438bd7E81D4FE153Dd956bCaBcfF265",
      "value": {
        "_hex": "0x797f0c517832c8e0"
      },
      "nonce": 863,
      "data": "0x",
      "r": "0x9d9e16f3b5d9f43998df9c4eded0454e1fed4eacf73e73a24383988a91232d71",
      "s": "0x167bc3657595cdee66fdec10a8aaaeccc85fcaf9326768b32017ef7c87c180bb",
      "v": 28,
      "creates": null,
      "raw": "0xf86e82035f850e2e3258f08255f0941d6c4f7d4438bd7e81d4fe153dd956bcabcff26588797f0c517832c8e0801ca09d9e16f3b5d9f43998df9c4eded0454e1fed4eacf73e73a24383988a91232d71a0167bc3657595cdee66fdec10a8aaaeccc85fcaf9326768b32017ef7c87c180bb",
      "networkId": 0,
      "chainId": 0
    },
    {
      "hash": "0x6da8dee39a05214974abaf68c2dd8ed5a04a15168bb271eb0c20348dc555b289",
      "blockHash": "0xecdb416027bc13a49c8ff57fec703cd9bd9668763e9c78af02195345dbdbe0d6",
      "blockNumber": 74258,
      "transactionIndex": 13,
      "confirmations": null,
      "from": "0xe6A7a1d47ff21B6321162AEA7C6CB457D5476Bca",
      "gasPrice": {
        "_hex": "0xe2e3258f0"
      },
      "gasLimit": {
        "_hex": "0x55f0"
      },
      "to": "0x5A698FA3F55962225Cd42eb7bE1ECA74d666d1b6",
      "value": {
        "_hex": "0x79fa2e500e6dc300"
      },
      "nonce": 864,
      "data": "0x",
      "r": "0x528b56183a5e8a649c335a233800b1bc5b2f3ec0364592e139b9758a7de43e0e",
      "s": "0x5a23dcca5cc760b8f3fee9c818b42a07414f48aee5414758902ce46ce241cd2b",
      "v": 28,
      "creates": null,
      "raw": "0xf86e820360850e2e3258f08255f0945a698fa3f55962225cd42eb7be1eca74d666d1b68879fa2e500e6dc300801ca0528b56183a5e8a649c335a233800b1bc5b2f3ec0364592e139b9758a7de43e0ea05a23dcca5cc760b8f3fee9c818b42a07414f48aee5414758902ce46ce241cd2b",
      "networkId": 0,
      "chainId": 0
    },
    {
      "hash": "0x04b1ab20db3912fb95f2aa97d695ea715fe0b10f3e9b77260d468f47bc28c111",
      "blockHash": "0xecdb416027bc13a49c8ff57fec703cd9bd9668763e9c78af02195345dbdbe0d6",
      "blockNumber": 74258,
      "transactionIndex": 14,
      "confirmations": null,
      "from": "0xe6A7a1d47ff21B6321162AEA7C6CB457D5476Bca",
      "gasPrice": {
        "_hex": "0xe2e3258f0"
      },
      "gasLimit": {
        "_hex": "0x55f0"
      },
      "to": "0xBFa71Aba804c2b986D969E175aCFdAC7266CDe9C",
      "value": {
        "_hex": "0x7d997d9bbcfdd120"
      },
      "nonce": 865,
      "data": "0x",
      "r": "0xdfa853e59998574733d75f2262a0bcd37e02ec414e1a83136a7147244686d289",
      "s": "0x44cf18ea1cdf394a5bdd9982a237015a2854b638d47bf5842108a40fd125a6e5",
      "v": 28,
      "creates": null,
      "raw": "0xf86e820361850e2e3258f08255f094bfa71aba804c2b986d969e175acfdac7266cde9c887d997d9bbcfdd120801ca0dfa853e59998574733d75f2262a0bcd37e02ec414e1a83136a7147244686d289a044cf18ea1cdf394a5bdd9982a237015a2854b638d47bf5842108a40fd125a6e5",
      "networkId": 0,
      "chainId": 0
    }
  ]
}