{
  "hash": "0xbe5525774467a680fa38189272d6370249fdd640b7c7349df60574f20a1b1ef3",
  "parentHash": "0x25d1189528517e8f4c7566b5c3403fe65607513924a2128113c7507fcb421184",
  "number": 72880,
  "timestamp": 1439359662,
  "nonce": "0x5b6e1488ad3d299a",
  "difficulty": 2193928591784,
  "gasLimit": {
    "_hex": "0x2fefd8"
  },
  "gasUsed": {
    "_hex": "0x15f90"
  },
  "miner": "0x6dC8a46AB80ED97E4073b96F78554A536E2e7152",
  "extraData": "0x",
  "transactions": [
    {
      "hash": "0xb10744de43cfb632affec1606b5bd49c41acf0490a9728cab31ddfe09e9ef2cb",
      "blockHash": "0xbe5525774467a680fa38189272d6370249fdd640b7c7349df60574f20a1b1ef3",
      "blockNumber": 72880,
      "transactionIndex": 0,
      "confirmations": null,
      "from": "0x326Be8F71bFb0379f989aAB1CC1fE37f0a771f60",
      "gasPrice": {
        "_hex": "0x10e05728084"
      },
      "gasLimit": {
        "_hex": "0x15f90"
      },
      "to": "0x070F98b1eC27942F613A73d9e22d0ba60E211668",
      "value": {
        "_hex": "0x3e8"
      },
      "nonce": 17,
      "data": "0x8d21618600000000000000000000000000000000000000000000000000000000000000806361740000000000000000000000000000000000000000000000000000000000",
      "r": "0xea96e50bf420d8bdb0bceb2d1d7318760290926b5baa45804a880c2915d57b73",
      "s": "0x69f914f7bab834a06cd64a0f11984d4b6ce076eda9f30670cad958a39696d792",
      "v": 27,
      "creates": null,
      "raw": "0xf8ad1186010e0572808483015f9094070f98b1ec27942f613a73d9e22d0ba60e2116688203e8b8448d216186000000000000000000000000000000000000000000000000000000000000008063617400000000000000000000000000000000000000000000000000000000001ba0ea96e50bf420d8bdb0bceb2d1d7318760290926b5baa45804a880c2915d57b73a069f914f7bab834a06cd64a0f11984d4b6ce076eda9f30670cad958a39696d792",
      "networkId": 0,
      "chainId": 0
    }
  ]
}