{
  "hash": "0x276ed9b9f4b202e7821c04aba0a4e7bf959101e292582f36fbc8ddffd978e8e9",
  "parentHash": "0xdbbcf63936e578253bfa04705b1a57a660e04fa15331f930318b9986b35ba590",
  "number": 122123,
  "timestamp": 1440188494,
  "nonce": "0x723d5436a9f34ddb",
  "difficulty": 4477486897670,
  "gasLimit": {
    "_hex": "0x2fefd8"
  },
  "gasUsed": {
    "_hex": "0x5208"
  },
  "miner": "0x52bc44d5378309EE2abF1539BF71dE1b7d7bE3b5",
  "extraData": "0xd783010002844765746887676f312e342e32856c696e7578",
  "transactions": [
    {
      "hash": "0x59813816b143cd2aba0c40a21caf74aa204f7f02b3daeb20b8d70f6e7ac50848",
      "blockHash": "0x276ed9b9f4b202e7821c04aba0a4e7bf959101e292582f36fbc8ddffd978e8e9",
      "blockNumber": 122123,
      "transactionIndex": 0,
      "confirmations": null,
      "from": "0x13db2d4DF4EE21C407B0B3F867d2892037f05DB3",
      "gasPrice": {
        "_hex": "0xba43b7400"
      },
      "gasLimit": {
        "_hex": "0x7a120"
      },
      "to": "0xBBDa93a81B882774e1c9b5e3F933Fa35DaC8bc88",
      "value": {
        "_hex": "0x11c7ea162e7820000"
      },
      "nonce": 2,
      "data": "0x",
      "r": "0xfed417cd87879984a54438b4bfcea95cb5e28ce37a815c5414e82abba83d15cb",
      "s": "0x259b786fb3a5a6c6fa5702d007d7f0c81195db419331b839f73816477c6a575d",
      "v": 28,
      "creates": null,
      "raw": "0xf86e02850ba43b74008307a12094bbda93a81b882774e1c9b5e3f933fa35dac8bc8889011c7ea162e7820000801ca0fed417cd87879984a54438b4bfcea95cb5e28ce37a815c5414e82abba83d15cba0259b786fb3a5a6c6fa5702d007d7f0c81195db419331b839f73816477c6a575d",
      "networkId": 0,
      "chainId": 0
    }
  ]
}