{
  "hash": "0x7e5add22a44c9469fff51c998b6d669c1344ed8579b017f0ee25ec1bc7409337",
  "parentHash": "0xcef3861708ded0e30639cd8edd57930577f6bc773a45dc8e980dd83a5b566ac2",
  "number": 115319,
  "timestamp": 1440055163,
  "nonce": "0xfdc8c6ac7ddeaf02",
  "difficulty": 4556134618217,
  "gasLimit": {
    "_hex": "0x2fefd8"
  },
  "gasUsed": {
    "_hex": "0xf618"
  },
  "miner": "0x76CB306530455abB4341FC10608d5FD869389acf",
  "extraData": "0xd983010001844765746887676f312e342e328777696e646f7773",
  "transactions": [
    {
      "hash": "0x4bc2cfeb576f288bf108c0f9c1d826901636c7df9da44a7e7090aa109ee76656",
      "blockHash": "0x7e5add22a44c9469fff51c998b6d669c1344ed8579b017f0ee25ec1bc7409337",
      "blockNumber": 115319,
      "transactionIndex": 0,
      "confirmations": null,
      "from": "0x6111E933E5e6297DFd0AAd9aAB64017c69062a08",
      "gasPrice": {
        "_hex": "0xcfadc0a82"
      },
      "gasLimit": {
        "_hex": "0x5208"
      },
      "to": "0x32Be343B94f860124dC4fEe278FDCBD38C102D88",
      "value": {
        "_hex": "0x50054dd6219c0000"
      },
      "nonce": 19,
      "data": "0x",
      "r": "0x33f24742bdcf6c446177a39047e1736fe9fe481add92b5fa4bf190c632246592",
      "s": "0x73bc5ddd4a3f088b72268f122f94d6e9557d036cdd1360e4787c4fabfd327b1b",
      "v": 27,
      "creates": null,
      "raw": "0xf86c13850cfadc0a828252089432be343b94f860124dc4fee278fdcbd38c102d888850054dd6219c0000801ba033f24742bdcf6c446177a39047e1736fe9fe481add92b5fa4bf190c632246592a073bc5ddd4a3f088b72268f122f94d6e9557d036cdd1360e4787c4fabfd327b1b",
      "networkId": 0,
      "chainId": 0
    },
    {
      "hash": "0x98e4b0d50be810990170090dbe5cb7f22128aed309f4f35c721036f8b30ebefe",
      "blockHash": "0x7e5add22a44c9469fff51c998b6d669c1344ed8579b017f0ee25ec1bc7409337",
      "blockNumber": 115319,
      "transactionIndex": 1,
      "confirmations": null,
      "from": "0x86d3856ad0105B9d4199936c1fd203664BA325dC",
      "gasPrice": {
        "_hex": "0xcfadc0a82"
      },
      "gasLimit": {
        "_hex": "0x5208"
      },
      "to": "0x32Be343B94f860124dC4fEe278FDCBD38C102D88",
      "value": {
        "_hex": "0x16884b5d8061d2000"
      },
      "nonce": 30,
      "data": "0x",
      "r": "0x95a7273efa3f3b35536687cd0f36e88b02c9bdef475e98ab1c3c073390676cdf",
      "s": "0x62e7ee6f53b9461f7f8d48962813dd4b14eb783b702e38f4d3a17e4184aa7e21",
      "v": 27,
      "creates": null,
      "raw": "0xf86d1e850cfadc0a828252089432be343b94f860124dc4fee278fdcbd38c102d8889016884b5d8061d2000801ba095a7273efa3f3b35536687cd0f36e88b02c9bdef475e98ab1c3c073390676cdfa062e7ee6f53b9461f7f8d48962813dd4b14eb783b702e38f4d3a17e4184aa7e21",
      "networkId": 0,
      "chainId": 0
    },
    {
      "hash": "0x1f247eff46f5b20f8f28614fcf7df21087760866854b733445d5d351629d07b0",
      "blockHash": "0x7e5add22a44c9469fff51c998b6d669c1344ed8579b017f0ee25ec1bc7409337",
      "blockNumber": 115319,
      "transactionIndex": 2,
      "confirmations": null,
      "from": "0x771b12Bc207A1c4823e77075B17F8D329ACD77A3",
      "gasPrice": {
        "_hex": "0xcfadc0a82"
      },
      "gasLimit": {
        "_hex": "0x5208"
      },
      "to": "0x32Be343B94f860124dC4fEe278FDCBD38C102D88",
      "value": {
        "_hex": "0xacf56444b0887000"
      },
      "nonce": 11,
      "data": "0x",
      "r": "0xaf67972cabb5596d5cc2f7e502d0d300cbdf9a373d266876981800b9335a6650",
      "s": "0x607c51a09276fcbaecaebc9c818fd0eef0e6ba3a355ac549c0848c9890921ead",
      "v": 27,
      "creates": null,
      "raw": "0xf86c0b850cfadc0a828252089432be343b94f860124dc4fee278fdcbd38c102d8888acf56444b0887000801ba0af67972cabb5596d5cc2f7e502d0d300cbdf9a373d266876981800b9335a6650a0607c51a09276fcbaecaebc9c818fd0eef0e6ba3a355ac549c0848c9890921ead",
      "networkId": 0,
      "chainId": 0
    }
  ]
}