{
  "hash": "0x1b992adc15b7923fd3b3a226c5433ea8643aeee1ac79dc87fc73d24fe79df226",
  "parentHash": "0xc0b5ff74a97bcfd99dd1522e7c7a74f597c2c777742983bfb13a17067ebff34d",
  "number": 67072,
  "timestamp": 1439265391,
  "nonce": "0x6d3d914573ca8cc7",
  "difficulty": 1929922644844,
  "gasLimit": {
    "_hex": "0x2fefd8"
  },
  "gasUsed": {
    "_hex": "0xbef1"
  },
  "miner": "0x6541237dAaFf6688A79f9F2F370Ca0E7Ee20BD33",
  "extraData": "0x476574682f76312e302e312f77696e646f77732f676f312e342e32",
  "transactions": [
    {
      "hash": "0x60516403c8ff64ae24662c001ee0e3a984075a9dd73f07f9e981be9cb5122bc1",
      "blockHash": "0x1b992adc15b7923fd3b3a226c5433ea8643aeee1ac79dc87fc73d24fe79df226",
      "blockNumber": 67072,
      "transactionIndex": 0,
      "confirmations": null,
      "from": "0x976349705b839e2F5719387Fb27D2519d519da03",
      "gasPrice": {
        "_hex": "0xcd754c22d"
      },
      "gasLimit": {
        "_hex": "0x15f90"
      },
      "to": "0x125B606C67E8066Da65069652b656c19717745Fa",
      "value": {
        "_hex": "0x9c6c946c320ac8"
      },
      "nonce": 13,
      "data": "0xa55526db",
      "r": "0xb23925a341a24581b5009fd0dd5787e051ff02c80fea3cfde49522bdb94512bd",
      "s": "0x12caf14c08f674612691fb7e9ab58c034f3634baca676d5c82bfaa8f683889dd",
      "v": 27,
      "creates": null,
      "raw": "0xf8700d850cd754c22d83015f9094125b606c67e8066da65069652b656c19717745fa879c6c946c320ac884a55526db1ba0b23925a341a24581b5009fd0dd5787e051ff02c80fea3cfde49522bdb94512bda012caf14c08f674612691fb7e9ab58c034f3634baca676d5c82bfaa8f683889dd",
      "networkId": 0,
      "chainId": 0
    }
  ]
}