{
  "hash": "0x623c44a1cbe2eea26aa79ce7742cfab938b6986c2cbebe42bccdae2f79d7b893",
  "parentHash": "0xee56f5e177d7759b3dcef2f58b3cabb87424119beb20d46fa6807ded89ed88b8",
  "number": 119490,
  "timestamp": 1440143821,
  "nonce": "0x13df42f82e190678",
  "difficulty": 4398701567604,
  "gasLimit": {
    "_hex": "0x2fefd8"
  },
  "gasUsed": {
    "_hex": "0x5208"
  },
  "miner": "0xe6A7a1d47ff21B6321162AEA7C6CB457D5476Bca",
  "extraData": "0xd783010002844765746887676f312e342e32856c696e7578",
  "transactions": [
    {
      "hash": "0x66e745f00e9a8540d148895290d237fe075779c3596e65180b6a1d453cd388d8",
      "blockHash": "0x623c44a1cbe2eea26aa79ce7742cfab938b6986c2cbebe42bccdae2f79d7b893",
      "blockNumber": 119490,
      "transactionIndex": 0,
      "confirmations": null,
      "from": "0x6ed7A6220B1Cd6F93AC32948C2221E0D372F46Ad",
      "gasPrice": {
        "_hex": "0xba43b7400"
      },
      "gasLimit": {
        "_hex": "0x5208"
      },
      "to": "0xFBb1b73C4f0BDa4f67dcA266ce6Ef42f520fBB98",
      "value": {
        "_hex": "0xddcfbbb7a606000"
      },
      "nonce": 0,
      "data": "0x",
      "r": "0x5496267d2bbc17d3e7ad1dd721cc78993ada3d6fd0e2166515c25c7d271ad4fc",
      "s": "0x119ce3d2a8ff870e855f21c8d6672d8bedf1b0b3c32605a692a40e96de1afdd6",
      "v": 27,
      "creates": null,
      "raw": "0xf86c80850ba43b740082520894fbb1b73c4f0bda4f67dca266ce6ef42f520fbb98880ddcfbbb7a606000801ba05496267d2bbc17d3e7ad1dd721cc78993ada3d6fd0e2166515c25c7d271ad4fca0119ce3d2a8ff870e855f21c8d6672d8bedf1b0b3c32605a692a40e96de1afdd6",
      "networkId": 0,
      "chainId": 0
    }
  ]
}