{
  "hash": "0xd119901b38ee2e54a59a056a82b5348e849dab1d769021805d71e89df225bf15",
  "parentHash": "0x7d30fb0bee70b5419944a9b5115d1c1b47c280bc51c9bff4c6ea37c7abc0386c",
  "number": 80067,
  "timestamp": 1439479617,
  "nonce": "0x935dfe659f2dedab",
  "difficulty": 2348283694784,
  "gasLimit": {
    "_hex": "0x2fefd8"
  },
  "gasUsed": {
    "_hex": "0xc0df"
  },
  "miner": "0x123843545FB525C8E134c9A5F15ADA6865cc3848",
  "extraData": "0x476574682f76312e302e312f77696e646f77732f676f312e342e32",
  "transactions": [
    {
      "hash": "0x693cd1cd4266b9644ab62edac96dae84ba798de70a0428df1e8a7c14800b89ea",
      "blockHash": "0xd119901b38ee2e54a59a056a82b5348e849dab1d769021805d71e89df225bf15",
      "blockNumber": 80067,
      "transactionIndex": 0,
      "confirmations": null,
      "from": "0x87C5B5874A18B4306DF8a752a6C8cc3E82daFc19",
      "gasPrice": {
        "_hex": "0x1134f523ef6"
      },
      "gasLimit": {
        "_hex": "0x493e0"
      },
      "to": "0xC4c51de1AbF5D60DBd329eC0F999Fd8f021ae9fC",
      "value": {
        "_hex": "0x0"
      },
      "nonce": 129,
      "data": "0xbd66528a6361740000000000000000000000000000000000000000000000000000000000",
      "r": "0x8cc20c56eca8f0460a254ec6dadb9dbdb8a3dc6fa529b56260acd19883c6459e",
      "s": "0x51075d2d2d0b0fd88e1f083dfd3109505375117c92da9ea894814dcf6d0df530",
      "v": 28,
      "creates": null,
      "raw": "0xf88b81818601134f523ef6830493e094c4c51de1abf5d60dbd329ec0f999fd8f021ae9fc80a4bd66528a63617400000000000000000000000000000000000000000000000000000000001ca08cc20c56eca8f0460a254ec6dadb9dbdb8a3dc6fa529b56260acd19883c6459ea051075d2d2d0b0fd88e1f083dfd3109505375117c92da9ea894814dcf6d0df530",
      "networkId": 0,
      "chainId": 0
    },
    {
      "hash": "0x3e070a84461882b432de26c6530ac419e5678c35d99368653549e5e7f620a5c2",
      "blockHash": "0xd119901b38ee2e54a59a056a82b5348e849dab1d769021805d71e89df225bf15",
      "blockNumber": 80067,
      "transactionIndex": 1,
      "confirmations": null,
      "from": "0x458F183347F45a4001807728A89F31E9Da9D4A58",
      "gasPrice": {
        "_hex": "0xd4528764b"
      },
      "gasLimit": {
        "_hex": "0x15f90"
      },
      "to": "0x1D3ffA437e5bce40fCC134f4E0ac62841E4A9E81",
      "value": {
        "_hex": "0x1bc16d674ec80000"
      },
      "nonce": 14,
      "data": "0x",
      "r": "0x5e9fa425365fe0c53a20d0d35e591da3ee29ce4231c74ae68a4d54d48ed80b41",
      "s": "0x606db1d573f20a49bca9e5b6334252e996092184557760f79573104e372ddeba",
      "v": 28,
      "creates": null,
      "raw": "0xf86d0e850d4528764b83015f90941d3ffa437e5bce40fcc134f4e0ac62841e4a9e81881bc16d674ec80000801ca05e9fa425365fe0c53a20d0d35e591da3ee29ce4231c74ae68a4d54d48ed80b41a0606db1d573f20a49bca9e5b6334252e996092184557760f79573104e372ddeba",
      "networkId": 0,
      "chainId": 0
    }
  ]
}