{
  "hash": "0x1a4eb6b0b48829fb358c87c48bd3fc257b56cc789c19e6d290181e3b23b8eb4f",
  "parentHash": "0x62183d3dd423ee7e17fee6a5e1f4bd27ae7549251d60019b5121e50c6fdbe388",
  "number": 68446,
  "timestamp": 1439288048,
  "nonce": "0xf0c36993460a277c",
  "difficulty": 2008433758739,
  "gasLimit": {
    "_hex": "0x2fefd8"
  },
  "gasUsed": {
    "_hex": "0x19a28"
  },
  "miner": "0x35e8e5dC5FBd97c5b421A80B596C030a2Be2A04D",
  "extraData": "0x476574682f76312e302e312f6c696e75782f676f312e342e32",
  "transactions": [
    {
      "hash": "0x03bffbd464022358a6fe829cda337d94c5a7825074c2b28c4e95606d7ce2e053",
      "blockHash": "0x1a4eb6b0b48829fb358c87c48bd3fc257b56cc789c19e6d290181e3b23b8eb4f",
      "blockNumber": 68446,
      "transactionIndex": 0,
      "confirmations": null,
      "from": "0x6747f922385c9a6F9cfDf095F34345257DD597bE",
      "gasPrice": {
        "_hex": "0xba43b7400"
      },
      "gasLimit": {
        "_hex": "0x5208"
      },
      "to": "0x4CB43059b066Ba321Da0855D40b6a90cd8aE1A05",
      "value": {
        "_hex": "0x1fcbfa42bd6000"
      },
      "nonce": 93,
      "data": "0x",
      "r": "0xa729a515e018ff000a36676324d80e4c106faa82d8a040e1fe2c59df87d8fc1a",
      "s": "0x7fa915487edfb790ec6a9b96b6691e976fede5e059decc77e7420c75fc2fe47e",
      "v": 27,
      "creates": null,
      "raw": "0xf86b5d850ba43b7400825208944cb43059b066ba321da0855d40b6a90cd8ae1a05871fcbfa42bd6000801ba0a729a515e018ff000a36676324d80e4c106faa82d8a040e1fe2c59df87d8fc1aa07fa915487edfb790ec6a9b96b6691e976fede5e059decc77e7420c75fc2fe47e",
      "networkId": 0,
      "chainId": 0
    },
    {
      "hash": "0x8f78a36178db0537f11020fa0e4a284147704f00a8601a14597a5ea3d34aea30",
      "blockHash": "0x1a4eb6b0b48829fb358c87c48bd3fc257b56cc789c19e6d290181e3b23b8eb4f",
      "blockNumber": 68446,
      "transactionIndex": 1,
      "confirmations": null,
      "from": "0x96dF386cDC2aC081c2964090f9e32eF0d32eFfeF",
      "gasPrice": {
        "_hex": "0xba43b7400"
      },
      "gasLimit": {
        "_hex": "0x5208"
      },
      "to": "0x1292aff0a543E5861D1a729F0345af927abdC0B1",
      "value": {
        "_hex": "0xc1c23435b07000"
      },
      "nonce": 1,
      "data": "0x",
      "r": "0xedd246af01b2b3d68bc88ed89ed706f3f7419b23d593e201e78c090469348ae6",
      "s": "0x612cbcddb425561ea31af1e475ba7f5d8d4c0b937275a5c8a82242bfeb49c8c0",
      "v": 28,
      "creates": null,
      "raw": "0xf86b01850ba43b7400825208941292aff0a543e5861d1a729f0345af927abdc0b187c1c23435b07000801ca0edd246af01b2b3d68bc88ed89ed706f3f7419b23d593e201e78c090469348ae6a0612cbcddb425561ea31af1e475ba7f5d8d4c0b937275a5c8a82242bfeb49c8c0",
      "networkId": 0,
      "chainId": 0
    },
    {
      "hash": "0x2bc5cc9a2f3303198f6ea57fc12077bf662bd33bc25461ebaefce7358c96686a",
      "blockHash": "0x1a4eb6b0b48829fb358c87c48bd3fc257b56cc789c19e6d290181e3b23b8eb4f",
      "blockNumber": 68446,
      "transactionIndex": 2,
      "confirmations": null,
      "from": "0x540f9458CB6e9aC722CA07d2E43d4c7C6BA4C4D4",
      "gasPrice": {
        "_hex": "0xba43b7400"
      },
      "gasLimit": {
        "_hex": "0x5208"
      },
      "to": "0x85a494a5C08c938040d1efCe233dc30E784DB9d8",
      "value": {
        "_hex": "0xc1c23435b07000"
      },
      "nonce": 1,
      "data": "0x",
      "r": "0x9f96111b888215d3778a66851bec10471d3e2bab24df056b60bc6bc04d804d89",
      "s": "0x199f697222793882e595035ce5d39a811a802b738ea090d73cca8f3c0a0e2ac9",
      "v": 27,
      "creates": null,
      "raw": "0xf86b01850ba43b74008252089485a494a5c08c938040d1efce233dc30e784db9d887c1c23435b07000801ba09f96111b888215d3778a66851bec10471d3e2bab24df056b60bc6bc04d804d89a0199f697222793882e595035ce5d39a811a802b738ea090d73cca8f3c0a0e2ac9",
      "networkId": 0,
      "chainId": 0
    },
    {
      "hash": "0xe14f17f8de528e004407f1b484daac55dd82575d4474e24899368f5332cca3d9",
      "blockHash": "0x1a4eb6b0b48829fb358c87c48bd3fc257b56cc789c19e6d290181e3b23b8eb4f",
      "blockNumber": 68446,
      "transactionIndex": 3,
      "confirmations": null,
      "from": "0xBc7BBfD6BaA7FF366C8bA5Fc3E119dF208AaaEda",
      "gasPrice": {
        "_hex": "0xba43b7400"
      },
      "gasLimit": {
        "_hex": "0x5208"
      },
      "to": "0xEfEEde8724b0CCEd4D2f8bD1CB768bFc5dE64CF1",
      "value": {
        "_hex": "0xc1c23435b07000"
      },
      "nonce": 1,
      "data": "0x",
      "r": "0x51eaaa0dff1117161786bafea78ed38198d6927664ca8a88386344eb90388845",
      "s": "0x098cc26b5de360317c54c910a761bb23a824c5dad0baa6f11248d43ec588fe93",
      "v": 28,
      "creates": null,
      "raw": "0xf86b01850ba43b740082520894efeede8724b0cced4d2f8bd1cb768bfc5de64cf187c1c23435b07000801ca051eaaa0dff1117161786bafea78ed38198d6927664ca8a88386344eb90388845a0098cc26b5de360317c54c910a761bb23a824c5dad0baa6f11248d43ec588fe93",
      "networkId": 0,
      "chainId": 0
    },
    {
      "hash": "0x6ce1a6dd17ee46f70712b1d4965fc2b1476a19cd5b96c7e141ad3818299017cd",
      "blockHash": "0x1a4eb6b0b48829fb358c87c48bd3fc257b56cc789c19e6d290181e3b23b8eb4f",
      "blockNumber": 68446,
      "transactionIndex": 4,
      "confirmations": null,
      "from": "0xb6363dE37085c567c38eD8afc7c82ec956f308e5",
      "gasPrice": {
        "_hex": "0xba43b7400"
      },
      "gasLimit": {
        "_hex": "0x5208"
      },
      "to": "0x4De445d24Bf79373B9209d5F40bD28952469fe41",
      "value": {
        "_hex": "0xc1c23435b07000"
      },
      "nonce": 1,
      "data": "0x",
      "r": "0x497e711d405efe2025725a09498eb9b22cfcd3d0de231e07f08b3c2cb1c8dd27",
      "s": "0x601152c8b908740145967900deebe3bd0ce7913981bdedb4f2cbb68567e4cdf9",
      "v": 28,
      "creates": null,
      "raw": "0xf86b01850ba43b7400825208944de445d24bf79373b9209d5f40bd28952469fe4187c1c23435b07000801ca0497e711d405efe2025725a09498eb9b22cfcd3d0de231e07f08b3c2cb1c8dd27a0601152c8b908740145967900deebe3bd0ce7913981bdedb4f2cbb68567e4cdf9",
      "networkId": 0,
      "chainId": 0
    }
  ]
}