{
  "hash": "0xc4093dcd955c056e2f1c43b244d102989750011e8526dfda7e41e11e82abd485",
  "parentHash": "0x66fb9268ec0d09d675d30193e3470f4056614449005e1618117fee5dfba55148",
  "number": 120789,
  "timestamp": 1440165866,
  "nonce": "0x02c5b6ebd913d270",
  "difficulty": 4452036261793,
  "gasLimit": {
    "_hex": "0x2fefd8"
  },
  "gasUsed": {
    "_hex": "0x546c"
  },
  "miner": "0x790b8a3cE86E707ED0eD32bF89B3269692a23CC1",
  "extraData": "0xd783010002844765746887676f312e342e32856c696e7578",
  "transactions": [
    {
      "hash": "0x9a14149b2880fa569202830191e003a59ee43d8aeb764aee27bb9190bdef4357",
      "blockHash": "0xc4093dcd955c056e2f1c43b244d102989750011e8526dfda7e41e11e82abd485",
      "blockNumber": 120789,
      "transactionIndex": 0,
      "confirmations": null,
      "from": "0xf8E0CA3Ed80bd541b94BEdCf259e8CF2141A9523",
      "gasPrice": {
        "_hex": "0xba43b7400"
      },
      "gasLimit": {
        "_hex": "0x15f90"
      },
      "to": "0x9252f10822221Afe05035227D96a9b5B2b50349B",
      "value": {
        "_hex": "0x14ecd37ae264c80000"
      },
      "nonce": 14,
      "data": "0x454e433933464b3330",
      "r": "0x8e5a623fd502f346b0c1d0f4fdd5f537496b24b465aabb42344c33a1a0d3cf45",
      "s": "0x133747b9079267091441d3cdd768613a23f02742f28fd39b6be34d33a1d5ddae",
      "v": 28,
      "creates": null,
      "raw": "0xf8770e850ba43b740083015f90949252f10822221afe05035227d96a9b5b2b50349b8914ecd37ae264c8000089454e433933464b33301ca08e5a623fd502f346b0c1d0f4fdd5f537496b24b465aabb42344c33a1a0d3cf45a0133747b9079267091441d3cdd768613a23f02742f28fd39b6be34d33a1d5ddae",
      "networkId": 0,
      "chainId": 0
    }
  ]
}