{
  "hash": "0xe4527ecd2df33c41ac92fc0d2976a14ade71abeb7d1200ca739efec7ec01ffa3",
  "parentHash": "0xe7379a873f6934518682520661ad9489b7f2387281cfc76d1154a85e5e259382",
  "number": 89374,
  "timestamp": 1439622419,
  "nonce": "0x502ce60ff6db8770",
  "difficulty": 3306323951626,
  "gasLimit": {
    "_hex": "0x2fefd8"
  },
  "gasUsed": {
    "_hex": "0x5208"
  },
  "miner": "0x5F8F73E26CdF436f19Cb24C82F90A15AFe55b592",
  "extraData": "0x476574682f76312e302e312f77696e646f77732f676f312e342e32",
  "transactions": [
    {
      "hash": "0xf5a33f06252a60fed7ba1568cf1f2d267550e136879bb143edef89b5c061bec9",
      "blockHash": "0xe4527ecd2df33c41ac92fc0d2976a14ade71abeb7d1200ca739efec7ec01ffa3",
      "blockNumber": 89374,
      "transactionIndex": 0,
      "confirmations": null,
      "from": "0x2910543Af39abA0Cd09dBb2D50200b3E800A63D2",
      "gasPrice": {
        "_hex": "0xda86cbeba"
      },
      "gasLimit": {
        "_hex": "0x5208"
      },
      "to": "0x35a5214E74955f8C9836aE8D52a95FbEF9Fb9501",
      "value": {
        "_hex": "0x5529ef6d0302cb8000"
      },
      "nonce": 751,
      "data": "0x",
      "r": "0x6465f6d6bb44920dfd2460822163be63e65f005f22813fc2d8e0a9640464b3c2",
      "s": "0x53f9e264b44db53184232b0b9000c614ce2375c37c18a4baf54b6cacb8678a55",
      "v": 28,
      "creates": null,
      "raw": "0xf86f8202ef850da86cbeba8252089435a5214e74955f8c9836ae8d52a95fbef9fb9501895529ef6d0302cb8000801ca06465f6d6bb44920dfd2460822163be63e65f005f22813fc2d8e0a9640464b3c2a053f9e264b44db53184232b0b9000c614ce2375c37c18a4baf54b6cacb8678a55",
      "networkId": 0,
      "chainId": 0
    }
  ]
}