{
  "hash": "0x4c3156aa3a811a8190e71447c547d901a17a167c2d49899cd5e6f46ee8e93e54",
  "parentHash": "0xfab0d36c88f8abb3846e6b857f46c7e00d5cf5c47e32f537185f56ab9be05721",
  "number": 89522,
  "timestamp": 1439624717,
  "nonce": "0xd0f63c581f98f804",
  "difficulty": 3332196983445,
  "gasLimit": {
    "_hex": "0x2fefd8"
  },
  "gasUsed": {
    "_hex": "0x14820"
  },
  "miner": "0xe6A7a1d47ff21B6321162AEA7C6CB457D5476Bca",
  "extraData": "0x476574682f76312e302e312d38326566323666362f6c696e75782f676f312e34",
  "transactions": [
    {
      "hash": "0xc513588c14e3f36a25218c976f5452dd8b98206541cbc73ffc692eccd45b606f",
      "blockHash": "0x4c3156aa3a811a8190e71447c547d901a17a167c2d49899cd5e6f46ee8e93e54",
      "blockNumber": 89522,
      "transactionIndex": 0,
      "confirmations": null,
      "from": "0x32Be343B94f860124dC4fEe278FDCBD38C102D88",
      "gasPrice": {
        "_hex": "0xd8a65bdb1"
      },
      "gasLimit": {
        "_hex": "0x5208"
      },
      "to": "0x5Ac7181E15738dA162CAf9734D0Cb68b94B9A6F2",
      "value": {
        "_hex": "0x1b9de674df070000"
      },
      "nonce": 845,
      "data": "0x",
      "r": "0x2aac252d22a1b806a46b71139530937211d8e01ddde24a59b6fea07880bf8524",
      "s": "0x2f2799fe67fa5770fe8c23fd51f08e6eb74ee4c57329fcbbfb9ee215a25f5d12",
      "v": 28,
      "creates": null,
      "raw": "0xf86e82034d850d8a65bdb1825208945ac7181e15738da162caf9734d0cb68b94b9a6f2881b9de674df070000801ca02aac252d22a1b806a46b71139530937211d8e01ddde24a59b6fea07880bf8524a02f2799fe67fa5770fe8c23fd51f08e6eb74ee4c57329fcbbfb9ee215a25f5d12",
      "networkId": 0,
      "chainId": 0
    },
    {
      "hash": "0x16a4342b8c386a3798553d18b88c50a415dd8b44f9fa357145c811f6796f3a5e",
      "blockHash": "0x4c3156aa3a811a8190e71447c547d901a17a167c2d49899cd5e6f46ee8e93e54",
      "blockNumber": 89522,
      "transactionIndex": 1,
      "confirmations": null,
      "from": "0x18aC3828876aC1968eF70ebCD8018A9223A4C56e",
      "gasPrice": {
        "_hex": "0xd8a65bdb1"
      },
      "gasLimit": {
        "_hex": "0x5208"
      },
      "to": "0x32Be343B94f860124dC4fEe278FDCBD38C102D88",
      "value": {
        "_hex": "0x6120a827d71ddc00"
      },
      "nonce": 1,
      "data": "0x",
      "r": "0x4d2832eaee30c81d513a5936f06e7efe42bff50f48324dc28314d973438e7932",
      "s": "0x7b79b41b2373c9f3d7b78beda065572f2a8c0d56f34e0adb7ae6c80a2b0ce62a",
      "v": 28,
      "creates": null,
      "raw": "0xf86c01850d8a65bdb18252089432be343b94f860124dc4fee278fdcbd38c102d88886120a827d71ddc00801ca04d2832eaee30c81d513a5936f06e7efe42bff50f48324dc28314d973438e7932a07b79b41b2373c9f3d7b78beda065572f2a8c0d56f34e0adb7ae6c80a2b0ce62a",
      "networkId": 0,
      "chainId": 0
    },
    {
      "hash": "0xf4c726734d5c6430b042757ca6025a8f6335984b124ce7f268e66556c3ee7bc8",
      "blockHash": "0x4c3156aa3a811a8190e71447c547d901a17a167c2d49899cd5e6f46ee8e93e54",
      "blockNumber": 89522,
      "transactionIndex": 2,
      "confirmations": null,
      "from": "0xF9634a7Ee627EeF74f4d803113CD4F87E5162079",
      "gasPrice": {
        "_hex": "0xba43b7400"
      },
      "gasLimit": {
        "_hex": "0x5b04"
      },
      "to": "0x9f78552704fe7e52cC7C3853534aA2C3cf580D54",
      "value": {
        "_hex": "0x33590a6584f20000"
      },
      "nonce": 13,
      "data": "0x",
      "r": "0x7b1b82175eb9a49e18a64cc70c709f571f79deed1f5caa1575e55c40978c8b3a",
      "s": "0x8e84f6e8318ad67f60a5364a518dd98c431317b389c6da867de8dc9915c72ada",
      "v": 27,
      "creates": null,
      "raw": "0xf86c0d850ba43b7400825b04949f78552704fe7e52cc7c3853534aa2c3cf580d548833590a6584f20000801ba07b1b82175eb9a49e18a64cc70c709f571f79deed1f5caa1575e55c40978c8b3aa08e84f6e8318ad67f60a5364a518dd98c431317b389c6da867de8dc9915c72ada",
      "networkId": 0,
      "chainId": 0
    },
    {
      "hash": "0x9f00b9690e8228ae3f112a236b7d6ad729ca6904b4d73065018e9021183d4c86",
      "blockHash": "0x4c3156aa3a811a8190e71447c547d901a17a167c2d49899cd5e6f46ee8e93e54",
      "blockNumber": 89522,
      "transactionIndex": 3,
      "confirmations": null,
      "from": "0x6Ae11766c6D526f5a133AdF4819941B0ba66bE4C",
      "gasPrice": {
        "_hex": "0xba43b7400"
      },
      "gasLimit": {
        "_hex": "0x5208"
      },
      "to": "0xC47Aaa860008be6f65B58c6C6E02a84e666EfE31",
      "value": {
        "_hex": "0x8ab1a4932503b8f0"
      },
      "nonce": 0,
      "data": "0x",
      "r": "0x0135d9d51a0d6095f5b6e4ac2538c263ab1454c5fe9f549b3c3265407ebbf9ff",
      "s": "0x56a2dc30e4222e08d0d9d4c52b2e01a18e8fffed078fb756f26a291f31bd2f7c",
      "v": 27,
      "creates": null,
      "raw": "0xf86c80850ba43b740082520894c47aaa860008be6f65b58c6c6e02a84e666efe31888ab1a4932503b8f0801ba00135d9d51a0d6095f5b6e4ac2538c263ab1454c5fe9f549b3c3265407ebbf9ffa056a2dc30e4222e08d0d9d4c52b2e01a18e8fffed078fb756f26a291f31bd2f7c",
      "networkId": 0,
      "chainId": 0
    }
  ]
}