{
  "hash": "0x116775b0d3f85f34c4edf6c4adb5f5e98bb2bc658e0ad6e0b749a9c1643e06b9",
  "parentHash": "0x09f317843f326d631a9de050f2a45eea0ae05c8e5671b3ad9286d6c1bb870f87",
  "number": 121700,
  "timestamp": 1440181136,
  "nonce": "0x8ea808f775a3e8b6",
  "difficulty": 4493043551559,
  "gasLimit": {
    "_hex": "0x2fefd8"
  },
  "gasUsed": {
    "_hex": "0x5208"
  },
  "miner": "0xe6A7a1d47ff21B6321162AEA7C6CB457D5476Bca",
  "extraData": "0xd783010002844765746887676f312e342e32856c696e7578",
  "transactions": [
    {
      "hash": "0x512e5cbc2f4cd395dbf5464ab0187dbb209f0b89542b63f5d758203377c87d72",
      "blockHash": "0x116775b0d3f85f34c4edf6c4adb5f5e98bb2bc658e0ad6e0b749a9c1643e06b9",
      "blockNumber": 121700,
      "transactionIndex": 0,
      "confirmations": null,
      "from": "0x787F9C02fc5F4970ae51F2B5f7B4ee7c22B875B6",
      "gasPrice": {
        "_hex": "0xd5aa25967"
      },
      "gasLimit": {
        "_hex": "0x5208"
      },
      "to": "0x32Be343B94f860124dC4fEe278FDCBD38C102D88",
      "value": {
        "_hex": "0x144edfc5e5dce400"
      },
      "nonce": 4,
      "data": "0x",
      "r": "0xbcd7b6e1ab3982433ffb830ce145aa50df6d670e0ba20eed0ff08315c5774b76",
      "s": "0x13035bdb3371c91c2cbdf75269c3e86719869d341e258052d683eb15430692d1",
      "v": 27,
      "creates": null,
      "raw": "0xf86c04850d5aa259678252089432be343b94f860124dc4fee278fdcbd38c102d8888144edfc5e5dce400801ba0bcd7b6e1ab3982433ffb830ce145aa50df6d670e0ba20eed0ff08315c5774b76a013035bdb3371c91c2cbdf75269c3e86719869d341e258052d683eb15430692d1",
      "networkId": 0,
      "chainId": 0
    }
  ]
}