{
  "hash": "0x070618dbf3e8fd0c2aa53b1cac7717b3bb8f1248ccc770b338d9543affe3a291",
  "parentHash": "0x4f2eb749fbb0562f610d88be511de84643691a3ba839e1e389fc3ea17adeb9d4",
  "number": 62225,
  "timestamp": 1439185128,
  "nonce": "0xe41943c5fa7dc649",
  "difficulty": 1778087220793,
  "gasLimit": {
    "_hex": "0x2fefd8"
  },
  "gasUsed": {
    "_hex": "0xf2ac"
  },
  "miner": "0x9746c7e1ef2bd21FF3997fa467593a89cb852BD0",
  "extraData": "0x476574682f76312e302e312f77696e646f77732f676f312e342e32",
  "transactions": [
    {
      "hash": "0x5ee192c26f1b1b3647f0fe9024a7d76894e393d402f53cec007eb379e80c04f6",
      "blockHash": "0x070618dbf3e8fd0c2aa53b1cac7717b3bb8f1248ccc770b338d9543affe3a291",
      "blockNumber": 62225,
      "transactionIndex": 0,
      "confirmations": null,
      "from": "0xB100987e77FEbA6F022dBd22B80B008e35d3Ff2E",
      "gasPrice": {
        "_hex": "0xcf781db44"
      },
      "gasLimit": {
        "_hex": "0x15f90"
      },
      "to": "0xDd078da257128aEF13471Ace70Ef448C0A3F1EcA",
      "value": {
        "_hex": "0x0"
      },
      "nonce": 13,
      "data": "0xa856f35900000000000000000000000000000000000000000000000000000000846f6849",
      "r": "0xc5c826af8542ec918587144f061d0cc34a3d5a4da856b1226dc5969c15a6fedd",
      "s": "0x4459460219cc913e13f3690957873672dcf774ef9afa598a5fda5e4d1f698252",
      "v": 27,
      "creates": null,
      "raw": "0xf8890d850cf781db4483015f9094dd078da257128aef13471ace70ef448c0a3f1eca80a4a856f35900000000000000000000000000000000000000000000000000000000846f68491ba0c5c826af8542ec918587144f061d0cc34a3d5a4da856b1226dc5969c15a6fedda04459460219cc913e13f3690957873672dcf774ef9afa598a5fda5e4d1f698252",
      "networkId": 0,
      "chainId": 0
    }
  ]
}