{
  "hash": "0x5201289a96c85f4714decb0838fc777470dce1566e8a2c2282fe2d3f92aa4848",
  "parentHash": "0x78f41c2cb49a0012cf856c5560f61e7dd6ccaae593837983e8eff52b4ef10596",
  "number": 79622,
  "timestamp": 1439472714,
  "nonce": "0xf5d293336d2436d9",
  "difficulty": 2340395185494,
  "gasLimit": {
    "_hex": "0x2fefd8"
  },
  "gasUsed": {
    "_hex": "0x5208"
  },
  "miner": "0x8df03bD37602d97980327B58D940258dC57007B3",
  "extraData": "0x",
  "transactions": [
    {
      "hash": "0x94ed8b4d8fe5bb5e62177e1b2a4f9eb20c3ce6fd1f0874102e7856eb8329a3d2",
      "blockHash": "0x5201289a96c85f4714decb0838fc777470dce1566e8a2c2282fe2d3f92aa4848",
      "blockNumber": 79622,
      "transactionIndex": 0,
      "confirmations": null,
      "from": "0x28a9D631e5C22Ee57312DDdc75936822a2243A05",
      "gasPrice": {
        "_hex": "0xba43b7400"
      },
      "gasLimit": {
        "_hex": "0x5208"
      },
      "to": "0xC47Aaa860008be6f65B58c6C6E02a84e666EfE31",
      "value": {
        "_hex": "0x1b0b41d3679b3000"
      },
      "nonce": 1,
      "data": "0x",
      "r": "0x2662ac2c0774d8051bca9d51727615aabc22878a06a180fc7a46d13876b22e78",
      "s": "0x51ffe41f77ee256ba087941e010c8714126cdcd3af97d397772653717e3558a8",
      "v": 27,
      "creates": null,
      "raw": "0xf86c01850ba43b740082520894c47aaa860008be6f65b58c6c6e02a84e666efe31881b0b41d3679b3000801ba02662ac2c0774d8051bca9d51727615aabc22878a06a180fc7a46d13876b22e78a051ffe41f77ee256ba087941e010c8714126cdcd3af97d397772653717e3558a8",
      "networkId": 0,
      "chainId": 0
    }
  ]
}