{
  "hash": "0x68a58ee4c178bd86231eaea53823032265263757216a9d632215e917e7cb10cf",
  "parentHash": "0xa30c697056527c4cc561b4735e90903f020a62f9619ca46867f17359eb1d1bdf",
  "number": 49029,
  "timestamp": 1438966645,
  "nonce": "0xe354dc6e374a4a5f",
  "difficulty": 1486533947879,
  "gasLimit": {
    "_hex": "0x23e3b"
  },
  "gasUsed": {
    "_hex": "0xa674"
  },
  "miner": "0x9746c7e1ef2bd21FF3997fa467593a89cb852BD0",
  "extraData": "0x476574682f76312e302e312f77696e646f77732f676f312e342e32",
  "transactions": [
    {
      "hash": "0x8c4dc49289f355855444b18304c5c7289bea3b9a9a905ab4a37fb0b283a15f9e",
      "blockHash": "0x68a58ee4c178bd86231eaea53823032265263757216a9d632215e917e7cb10cf",
      "blockNumber": 49029,
      "transactionIndex": 0,
      "confirmations": null,
      "from": "0xC939D6e2515872B4A5bed252f1d82A4dCE4A1507",
      "gasPrice": {
        "_hex": "0x10dc90d85e7"
      },
      "gasLimit": {
        "_hex": "0x15f90"
      },
      "to": "0x2910543Af39abA0Cd09dBb2D50200b3E800A63D2",
      "value": {
        "_hex": "0x56bc75e2d63100000"
      },
      "nonce": 0,
      "data": "0x454e52513155544452",
      "r": "0x8ffaf944f21b3378efb55e94e4623457276a7f9acf7d3acbca2227164e39da88",
      "s": "0x00dd574bbc12141654d2b55f0405e4cc46483cd364c4dae1591c289a32169ecd",
      "v": 28,
      "creates": null,
      "raw": "0xf8778086010dc90d85e783015f90942910543af39aba0cd09dbb2d50200b3e800a63d289056bc75e2d6310000089454e525131555444521ca08ffaf944f21b3378efb55e94e4623457276a7f9acf7d3acbca2227164e39da889fdd574bbc12141654d2b55f0405e4cc46483cd364c4dae1591c289a32169ecd",
      "networkId": 0,
      "chainId": 0
    },
    {
      "hash": "0xc2d11ab79d26799f6bb334be7e931b93fa14f909fbcee331973366f1bb5608a8",
      "blockHash": "0x68a58ee4c178bd86231eaea53823032265263757216a9d632215e917e7cb10cf",
      "blockNumber": 49029,
      "transactionIndex": 1,
      "confirmations": null,
      "from": "0x796F87BA617a2930B1670BE92ed1281Fb0b346e1",
      "gasPrice": {
        "_hex": "0x1047225c3a4"
      },
      "gasLimit": {
        "_hex": "0x15f90"
      },
      "to": "0x5Fcb6761B7463127E5e79e151Fb542472a454C3E",
      "value": {
        "_hex": "0x56bc75e2d63100000"
      },
      "nonce": 1,
      "data": "0x",
      "r": "0xad31017a3f6355bcce19c728dd5560e2603aa2c88ff078d4b6d181af6058363b",
      "s": "0x7b6a0668b69fc206ba12667881ae2fbdaf95f1fb87d09fb26f98641b95c47c1f",
      "v": 27,
      "creates": null,
      "raw": "0xf86f018601047225c3a483015f90945fcb6761b7463127e5e79e151fb542472a454c3e89056bc75e2d63100000801ba0ad31017a3f6355bcce19c728dd5560e2603aa2c88ff078d4b6d181af6058363ba07b6a0668b69fc206ba12667881ae2fbdaf95f1fb87d09fb26f98641b95c47c1f",
      "networkId": 0,
      "chainId": 0
    }
  ]
}