{
  "hash": "0x9af58f8e33c525e9604972158f7017b82d255f45f1b08c2fb16860e26206588a",
  "parentHash": "0x1230b9f9744bf3294e57ad80880fbcd08a9e5000d91eaf4c7dcd1e6eb3866f8d",
  "number": 46743,
  "timestamp": 1438928470,
  "nonce": "0x655e5855626344c9",
  "difficulty": 1453913336551,
  "gasLimit": {
    "_hex": "0x760d"
  },
  "gasUsed": {
    "_hex": "0x5208"
  },
  "miner": "0xF2d2AfF1320476cb8C6b607199D23175cc595693",
  "extraData": "0x476574682f76312e302e312f77696e646f77732f676f312e342e32",
  "transactions": [
    {
      "hash": "0xaef167f04b65e7bfde1975c9f6855f4721d58c2e177f1cba57ead08532cb0fc4",
      "blockHash": "0x9af58f8e33c525e9604972158f7017b82d255f45f1b08c2fb16860e26206588a",
      "blockNumber": 46743,
      "transactionIndex": 0,
      "confirmations": null,
      "from": "0x3b2367F8494B5Fe18d683c055d89999C9f3D1B34",
      "gasPrice": {
        "_hex": "0x45d964b800"
      },
      "gasLimit": {
        "_hex": "0x5208"
      },
      "to": "0xf06D9Ad3b665226845A219eDaD87696fcE2Fb88E",
      "value": {
        "_hex": "0xd99a8cec7e20000"
      },
      "nonce": 1,
      "data": "0x",
      "r": "0x1b032ee22aa7dcf62ee6d5cdf490e11d8b9f2650dca5ba30910fe69db68bde8c",
      "s": "0x56ed4838a88411888b341c094eac4512c8c475ec22a1b43bcce4f38d091bc0f7",
      "v": 28,
      "creates": null,
      "raw": "0xf86c018545d964b80082520894f06d9ad3b665226845a219edad87696fce2fb88e880d99a8cec7e20000801ca01b032ee22aa7dcf62ee6d5cdf490e11d8b9f2650dca5ba30910fe69db68bde8ca056ed4838a88411888b341c094eac4512c8c475ec22a1b43bcce4f38d091bc0f7",
      "networkId": 0,
      "chainId": 0
    }
  ]
}