{
  "hash": "0x1bf5bdaceac1c2f77bb7d506af36c6a4b96d1a8dafc3aca7adf9b69218e367e2",
  "parentHash": "0x691f41c6e773a76bbd059bce83333a324aee2507812aefed4e1854209e062c42",
  "number": 111389,
  "timestamp": 1439989297,
  "nonce": "0x915a677d6bc45d69",
  "difficulty": 4448331227234,
  "gasLimit": {
    "_hex": "0x2fefd8"
  },
  "gasUsed": {
    "_hex": "0x5208"
  },
  "miner": "0xe6A7a1d47ff21B6321162AEA7C6CB457D5476Bca",
  "extraData": "0x476574682f76312e302e312d38326566323666362f6c696e75782f676f312e34",
  "transactions": [
    {
      "hash": "0xbc249f19e3c7a5f89e5ecd13f7c1eba995b1812903f93db7ba583c44cc6aaa49",
      "blockHash": "0x1bf5bdaceac1c2f77bb7d506af36c6a4b96d1a8dafc3aca7adf9b69218e367e2",
      "blockNumber": 111389,
      "transactionIndex": 0,
      "confirmations": null,
      "from": "0x32Be343B94f860124dC4fEe278FDCBD38C102D88",
      "gasPrice": {
        "_hex": "0xcbcb96c33"
      },
      "gasLimit": {
        "_hex": "0x5208"
      },
      "to": "0x289B9bA6dC9c12D3130F1115180397C20cCBF220",
      "value": {
        "_hex": "0xc893ad159ce1900000"
      },
      "nonce": 1304,
      "data": "0x",
      "r": "0xee7e66259f0689bcf72b13d7ac11db39437393340597cec9129455b46e68d73b",
      "s": "0x4cbf192ec0e49eddcb0c0175705215ea1eba6c863566388dc759def19f3b752a",
      "v": 28,
      "creates": null,
      "raw": "0xf86f820518850cbcb96c3382520894289b9ba6dc9c12d3130f1115180397c20ccbf22089c893ad159ce1900000801ca0ee7e66259f0689bcf72b13d7ac11db39437393340597cec9129455b46e68d73ba04cbf192ec0e49eddcb0c0175705215ea1eba6c863566388dc759def19f3b752a",
      "networkId": 0,
      "chainId": 0
    }
  ]
}