{
  "hash": "0xb73fb56aad4b9078dfbe22b2b3e61a2edac06bc6e47f9635686d9e96577713c1",
  "parentHash": "0x9bf9a7e0daa2dad12a555d0ba17bfe0b306be66173a4d59c3f07af706d6860ff",
  "number": 101186,
  "timestamp": 1439818740,
  "nonce": "0x5dce58c8f6130a2f",
  "difficulty": 3856277473651,
  "gasLimit": {
    "_hex": "0x2fefd8"
  },
  "gasUsed": {
    "_hex": "0x5208"
  },
  "miner": "0x007f7f58D3eb5b7510A301eCC749FC1fCDDBE14D",
  "extraData": "0x476574682f76312e302e312f77696e646f77732f676f312e342e32",
  "transactions": [
    {
      "hash": "0x0a82a92a3758fdb9bce5b1d41ecaac52805280b20c7b0f9ca062e0681c0d1aa0",
      "blockHash": "0xb73fb56aad4b9078dfbe22b2b3e61a2edac06bc6e47f9635686d9e96577713c1",
      "blockNumber": 101186,
      "transactionIndex": 0,
      "confirmations": null,
      "from": "0xC603Ab5ef41fC61AA8b76bEddb09e3Cfcbb174BD",
      "gasPrice": {
        "_hex": "0xdea7ab1c6"
      },
      "gasLimit": {
        "_hex": "0x15f90"
      },
      "to": "0x8F79f76381Aad7B98C19aF55eE75fdfEeb012211",
      "value": {
        "_hex": "0x21d3bd55e803c0000"
      },
      "nonce": 33,
      "data": "0x",
      "r": "0x4df687f38d5eca3456107ece02eae4811ce805855ce7106b07ddadee57374c6b",
      "s": "0x446b06054333bc38ae64d750b799a193930c8dddbe1642718acee01cd64b6e66",
      "v": 28,
      "creates": null,
      "raw": "0xf86e21850dea7ab1c683015f90948f79f76381aad7b98c19af55ee75fdfeeb01221189021d3bd55e803c0000801ca04df687f38d5eca3456107ece02eae4811ce805855ce7106b07ddadee57374c6ba0446b06054333bc38ae64d750b799a193930c8dddbe1642718acee01cd64b6e66",
      "networkId": 0,
      "chainId": 0
    }
  ]
}