{
  "hash": "0x408b5bfe4cb8093fe18438d3cfcf51f2afc9f79ed0ae0f027464d3c37ff63a18",
  "parentHash": "0xb23c1fb3f269915b080defb02714801381b02bc0df1ad9da650f3bee52dada23",
  "number": 58538,
  "timestamp": 1439122419,
  "nonce": "0xb02e88819f3dc271",
  "difficulty": 1711557020224,
  "gasLimit": {
    "_hex": "0x2fefd8"
  },
  "gasUsed": {
    "_hex": "0x5208"
  },
  "miner": "0x88D74a59454F6cF3B51ef6b9136AFb6b9D405A88",
  "extraData": "0x476574682f76312e302e312d38326566323666362f6c696e75782f676f312e34",
  "transactions": [
    {
      "hash": "0x40dfb542a96e302426be52d1ef503599bf08e61b55808673c1987a1364d49741",
      "blockHash": "0x408b5bfe4cb8093fe18438d3cfcf51f2afc9f79ed0ae0f027464d3c37ff63a18",
      "blockNumber": 58538,
      "transactionIndex": 0,
      "confirmations": null,
      "from": "0xE8FBEb49c2590120e3a5A34048a725742Bd1a37c",
      "gasPrice": {
        "_hex": "0xd99b46334"
      },
      "gasLimit": {
        "_hex": "0x15f90"
      },
      "to": "0xc92E31060EB45EFFdb9a3e383ea00f7Ebd0B8FBc",
      "value": {
        "_hex": "0x29a2241af62c0000"
      },
      "nonce": 6,
      "data": "0x",
      "r": "0x408bde90f60dfb4cef569985f2a2ff33cf04ffa9d76226714e6ab3857a353ae5",
      "s": "0x5a4b193d9a7ecaf21e75c836f86aaf69a5777e712f79ce77d77dddff95401141",
      "v": 28,
      "creates": null,
      "raw": "0xf86d06850d99b4633483015f9094c92e31060eb45effdb9a3e383ea00f7ebd0b8fbc8829a2241af62c0000801ca0408bde90f60dfb4cef569985f2a2ff33cf04ffa9d76226714e6ab3857a353ae5a05a4b193d9a7ecaf21e75c836f86aaf69a5777e712f79ce77d77dddff95401141",
      "networkId": 0,
      "chainId": 0
    }
  ]
}