{
  "hash": "0xb498d68ed13f607511fd4c692632e62137396d95980eb481469b2015757c24f1",
  "parentHash": "0xfb69e88f60769e65c501d3bccd6ea65d59b56c4d323e54643716dc2f98f163e2",
  "number": 99636,
  "timestamp": 1439793523,
  "nonce": "0xb6fdb31742b08b7c",
  "difficulty": 3775008864132,
  "gasLimit": {
    "_hex": "0x2fefd8"
  },
  "gasUsed": {
    "_hex": "0x5208"
  },
  "miner": "0xe6A7a1d47ff21B6321162AEA7C6CB457D5476Bca",
  "extraData": "0x476574682f76312e302e312d38326566323666362f6c696e75782f676f312e34",
  "transactions": [
    {
      "hash": "0x5434dfe7ef4d4a1bdd7806aec3f7aa89036eddc2423d65b6a036e71ce305d569",
      "blockHash": "0xb498d68ed13f607511fd4c692632e62137396d95980eb481469b2015757c24f1",
      "blockNumber": 99636,
      "transactionIndex": 0,
      "confirmations": null,
      "from": "0x559f3A22158349508fe855Df31EF013728AE6630",
      "gasPrice": {
        "_hex": "0xd69b48315"
      },
      "gasLimit": {
        "_hex": "0x15f90"
      },
      "to": "0xb4f523106D96985a62306557ED1e19F129D42812",
      "value": {
        "_hex": "0x56089ab7806ff0000"
      },
      "nonce": 0,
      "data": "0x",
      "r": "0xa81fc568cb444a6f48499633c9f253ee7b73fb8d02576952b5d13fcf3ab1b849",
      "s": "0x639cdc82848f6e124ce7edfd421da8e302ce98cb5b34a6758f84ee3c38596284",
      "v": 28,
      "creates": null,
      "raw": "0xf86e80850d69b4831583015f9094b4f523106d96985a62306557ed1e19f129d4281289056089ab7806ff0000801ca0a81fc568cb444a6f48499633c9f253ee7b73fb8d02576952b5d13fcf3ab1b849a0639cdc82848f6e124ce7edfd421da8e302ce98cb5b34a6758f84ee3c38596284",
      "networkId": 0,
      "chainId": 0
    }
  ]
}