{
  "hash": "0x31c52289b5ee57fff280cdc7b3c3a766f9ae3c344df3d0aee6b13cb175b92782",
  "parentHash": "0xe8d43bb0374b6b582404ef889b737fb2b621b3996a0bcb4f073a014a43f5d4b6",
  "number": 80604,
  "timestamp": 1439487953,
  "nonce": "0x9e082a9a818b90f4",
  "difficulty": 2421488477568,
  "gasLimit": {
    "_hex": "0x2fefd8"
  },
  "gasUsed": {
    "_hex": "0x5208"
  },
  "miner": "0xe6A7a1d47ff21B6321162AEA7C6CB457D5476Bca",
  "extraData": "0x476574682f76312e302e312d38326566323666362f6c696e75782f676f312e34",
  "transactions": [
    {
      "hash": "0x6172a2366eabe9a715791d191adfe4039a9c82c858641f9decfe32431f6ffc07",
      "blockHash": "0x31c52289b5ee57fff280cdc7b3c3a766f9ae3c344df3d0aee6b13cb175b92782",
      "blockNumber": 80604,
      "transactionIndex": 0,
      "confirmations": null,
      "from": "0xA2Cb067D1B3038eEe446d994440C0ae9cf1abfdF",
      "gasPrice": {
        "_hex": "0xceb6b307f"
      },
      "gasLimit": {
        "_hex": "0x7530"
      },
      "to": "0x6De181Fc4C140FA31F196e5393516c49EEeBdAd3",
      "value": {
        "_hex": "0x1314fb37062980000"
      },
      "nonce": 4,
      "data": "0x",
      "r": "0x51ba8e1be49f1a3c944585102a1b5d0e894210e55a48d567f31fec5d32553bc7",
      "s": "0x6f8677fd71dccb1358c952dc606533faadc30c13419994852661c12655af88fa",
      "v": 28,
      "creates": null,
      "raw": "0xf86d04850ceb6b307f827530946de181fc4c140fa31f196e5393516c49eeebdad38901314fb37062980000801ca051ba8e1be49f1a3c944585102a1b5d0e894210e55a48d567f31fec5d32553bc7a06f8677fd71dccb1358c952dc606533faadc30c13419994852661c12655af88fa",
      "networkId": 0,
      "chainId": 0
    }
  ]
}