{
  "hash": "0x2626f2b140eeb244b747d772a47387e98c738686cd087bbb24dc2b264b0b61b2",
  "parentHash": "0x8e04219da3249df5882e04046926ea2faf62593163ee8d883e9fb1bc5427144b",
  "number": 56147,
  "timestamp": 1439082639,
  "nonce": "0x4ec6e6d63b671168",
  "difficulty": 1642442748212,
  "gasLimit": {
    "_hex": "0x2fe3db"
  },
  "gasUsed": {
    "_hex": "0x546c"
  },
  "miner": "0xf927a40C8B7F6E07c5af7FA2155B4864a4112B13",
  "extraData": "0x476574682f76312e302e312f6c696e75782f676f312e342e32",
  "transactions": [
    {
      "hash": "0x607d523d3aeee81b647e8a9481e6ce94742df63ce16ef8c76ca3c0e5e1c233a5",
      "blockHash": "0x2626f2b140eeb244b747d772a47387e98c738686cd087bbb24dc2b264b0b61b2",
      "blockNumber": 56147,
      "transactionIndex": 0,
      "confirmations": null,
      "from": "0x271e8fC01E1C9E1621fD3d108e348450b2498541",
      "gasPrice": {
        "_hex": "0xd7d40ace3"
      },
      "gasLimit": {
        "_hex": "0x15f90"
      },
      "to": "0x2910543Af39abA0Cd09dBb2D50200b3E800A63D2",
      "value": {
        "_hex": "0x1158e460913d00000"
      },
      "nonce": 2,
      "data": "0x454e50325452424638",
      "r": "0x1cee032f590c08a722a828a41156f80d64a68270e56bcd48fbb9a7fe4088f26e",
      "s": "0x307df0c877b01575cc565193098008c3bb4fe019aa21c8dece69cd6cb6751d93",
      "v": 27,
      "creates": null,
      "raw": "0xf87702850d7d40ace383015f90942910543af39aba0cd09dbb2d50200b3e800a63d28901158e460913d0000089454e503254524246381ba01cee032f590c08a722a828a41156f80d64a68270e56bcd48fbb9a7fe4088f26ea0307df0c877b01575cc565193098008c3bb4fe019aa21c8dece69cd6cb6751d93",
      "networkId": 0,
      "chainId": 0
    }
  ]
}