{
  "hash": "0x805b74247d4a91804b9f52ee6d8add55d0f45ad222ee54729f2ac22f00ee515e",
  "parentHash": "0x4ee5d0dd2f053eb58184e462da759f6ea8b5ac7983f43eebbb4e6810c514ac48",
  "number": 50811,
  "timestamp": 1438994967,
  "nonce": "0x569a0585d5e5ea18",
  "difficulty": 1549956646428,
  "gasLimit": {
    "_hex": "0x79b4e"
  },
  "gasUsed": {
    "_hex": "0x5208"
  },
  "miner": "0x9746c7e1ef2bd21FF3997fa467593a89cb852BD0",
  "extraData": "0x476574682f76312e302e312f77696e646f77732f676f312e342e32",
  "transactions": [
    {
      "hash": "0xd3c88efae3be0599c12252f44917a302c600ae25c0cd53023fd7de7049d9b36d",
      "blockHash": "0x805b74247d4a91804b9f52ee6d8add55d0f45ad222ee54729f2ac22f00ee515e",
      "blockNumber": 50811,
      "transactionIndex": 0,
      "confirmations": null,
      "from": "0x93Db80284c8E4d2B0eE8586dE2D072208c075145",
      "gasPrice": {
        "_hex": "0xce9fb5a64"
      },
      "gasLimit": {
        "_hex": "0x5208"
      },
      "to": "0x32Be343B94f860124dC4fEe278FDCBD38C102D88",
      "value": {
        "_hex": "0x56bc33ad33cf7c000"
      },
      "nonce": 0,
      "data": "0x",
      "r": "0x4b300a2066f4b75de9787e094eea22fd037164d7349c4e12448e6603058ffc0f",
      "s": "0x7c5bc2f85340a384c4c0e3acf64247d78a29c2888e92756da88f6dcbf7da072b",
      "v": 27,
      "creates": null,
      "raw": "0xf86d80850ce9fb5a648252089432be343b94f860124dc4fee278fdcbd38c102d8889056bc33ad33cf7c000801ba04b300a2066f4b75de9787e094eea22fd037164d7349c4e12448e6603058ffc0fa07c5bc2f85340a384c4c0e3acf64247d78a29c2888e92756da88f6dcbf7da072b",
      "networkId": 0,
      "chainId": 0
    }
  ]
}