{
  "hash": "0xd3447c75d7d1818b4f34f8e711cae664f70755c15c236408b5ff2f9966761780",
  "parentHash": "0x66b4cace1ad58757d1b8e0152f79900151457d4a6870dc376c3a2872c6235e42",
  "number": 116001,
  "timestamp": 1440066738,
  "nonce": "0x927ca5ce5204a46d",
  "difficulty": 4591495520566,
  "gasLimit": {
    "_hex": "0x2fefd8"
  },
  "gasUsed": {
    "_hex": "0x5208"
  },
  "miner": "0xdB312D1d6A2Ccc64DD94a3892928baC82B4E8C15",
  "extraData": "0x476574682f76312e302e312d65383935333663612f6c696e75782f676f312e34",
  "transactions": [
    {
      "hash": "0x3e9651720eaf67ff68ac58da97fb5e89fc382c3a433eb1f3d286dfd288b14dee",
      "blockHash": "0xd3447c75d7d1818b4f34f8e711cae664f70755c15c236408b5ff2f9966761780",
      "blockNumber": 116001,
      "transactionIndex": 0,
      "confirmations": null,
      "from": "0xC47Aaa860008be6f65B58c6C6E02a84e666EfE31",
      "gasPrice": {
        "_hex": "0xdd54c5273"
      },
      "gasLimit": {
        "_hex": "0x15f90"
      },
      "to": "0x3aFca45be577815985f0d83E5E4C738F45804Fec",
      "value": {
        "_hex": "0x43c33c1937564800000"
      },
      "nonce": 113,
      "data": "0x",
      "r": "0xbfc202126e22e5b0772d99c5e8469a703c4efb65c6cc619315e92eb399d8dc2d",
      "s": "0x54c003f056294113066f933d1c75665f5185cc1be25d3780cd9d0f3e35955c2e",
      "v": 28,
      "creates": null,
      "raw": "0xf86f71850dd54c527383015f90943afca45be577815985f0d83e5e4c738f45804fec8a043c33c1937564800000801ca0bfc202126e22e5b0772d99c5e8469a703c4efb65c6cc619315e92eb399d8dc2da054c003f056294113066f933d1c75665f5185cc1be25d3780cd9d0f3e35955c2e",
      "networkId": 0,
      "chainId": 0
    }
  ]
}