{
  "hash": "0xf6e0aa0c8186e7efdc253dabe2591b1ec1e758e8fe5ef50e35830418ad6bf0ae",
  "parentHash": "0xce6fb89075b30bf49f1722622a3fcf71c9d5571b36c7f00e2a839879f9db4184",
  "number": 80580,
  "timestamp": 1439487674,
  "nonce": "0x8a1eb24ed4da7e9c",
  "difficulty": 2414411561922,
  "gasLimit": {
    "_hex": "0x2fefd8"
  },
  "gasUsed": {
    "_hex": "0x6ed7"
  },
  "miner": "0xe6A7a1d47ff21B6321162AEA7C6CB457D5476Bca",
  "extraData": "0x476574682f76312e302e312d38326566323666362f6c696e75782f676f312e34",
  "transactions": [
    {
      "hash": "0x55a8554a7d5a937abe0f35914ac2811d4eec286bd0e30821980c32fd700d63e1",
      "blockHash": "0xf6e0aa0c8186e7efdc253dabe2591b1ec1e758e8fe5ef50e35830418ad6bf0ae",
      "blockNumber": 80580,
      "transactionIndex": 0,
      "confirmations": null,
      "from": "0x87C5B5874A18B4306DF8a752a6C8cc3E82daFc19",
      "gasPrice": {
        "_hex": "0x1094170778c"
      },
      "gasLimit": {
        "_hex": "0x493e0"
      },
      "to": "0xC4c51de1AbF5D60DBd329eC0F999Fd8f021ae9fC",
      "value": {
        "_hex": "0x0"
      },
      "nonce": 252,
      "data": "0xbd66528a6b6b6b0000000000000000000000000000000000000000000000000000000000",
      "r": "0x8fc0c31f6c53f00c2b9bfd0ee3d94136170fde7f646e1c21fa5ec93d067cc5bc",
      "s": "0x0da15e92670d91c1d18fa0b485965188e2f33584fbf8d88d976325ea75f5f149",
      "v": 27,
      "creates": null,
      "raw": "0xf88b81fc8601094170778c830493e094c4c51de1abf5d60dbd329ec0f999fd8f021ae9fc80a4bd66528a6b6b6b00000000000000000000000000000000000000000000000000000000001ba08fc0c31f6c53f00c2b9bfd0ee3d94136170fde7f646e1c21fa5ec93d067cc5bca00da15e92670d91c1d18fa0b485965188e2f33584fbf8d88d976325ea75f5f149",
      "networkId": 0,
      "chainId": 0
    }
  ]
}