{
  "hash": "0x88719b2d90b8c4c9eca3183eb0386c4604be9fbf2c0361a1f198e02f6bb36097",
  "parentHash": "0xdc0078de1e68e164a145e64b810fe5a5ffce96233e168184bf2819658d544a73",
  "number": 113593,
  "timestamp": 1440026317,
  "nonce": "0x84d614c1d7008c98",
  "difficulty": 4451507692089,
  "gasLimit": {
    "_hex": "0x2fefd8"
  },
  "gasUsed": {
    "_hex": "0x5208"
  },
  "miner": "0x52bc44d5378309EE2abF1539BF71dE1b7d7bE3b5",
  "extraData": "0x476574682f76312e302e312d61383839306436312f6c696e75782f676f312e34",
  "transactions": [
    {
      "hash": "0x92cf8e09e2bc790e420f2b0e0b0ed7744dc768420211790f3d8d673f43223c07",
      "blockHash": "0x88719b2d90b8c4c9eca3183eb0386c4604be9fbf2c0361a1f198e02f6bb36097",
      "blockNumber": 113593,
      "transactionIndex": 0,
      "confirmations": null,
      "from": "0x49f0609Ed78ee50FAa268a9Bdeb2949fa50d83eD",
      "gasPrice": {
        "_hex": "0xcf4a37dac"
      },
      "gasLimit": {
        "_hex": "0x5208"
      },
      "to": "0x32Be343B94f860124dC4fEe278FDCBD38C102D88",
      "value": {
        "_hex": "0x1158a149d09dce000"
      },
      "nonce": 4,
      "data": "0x",
      "r": "0x43ce1528316f2f797b039c36af8106561defcf4abed76dd09852b43c9d27b226",
      "s": "0x53820d0fc65529a1c1eab7fe223662fca0d5733c4a275c69f46c29ae0982e783",
      "v": 27,
      "creates": null,
      "raw": "0xf86d04850cf4a37dac8252089432be343b94f860124dc4fee278fdcbd38c102d888901158a149d09dce000801ba043ce1528316f2f797b039c36af8106561defcf4abed76dd09852b43c9d27b226a053820d0fc65529a1c1eab7fe223662fca0d5733c4a275c69f46c29ae0982e783",
      "networkId": 0,
      "chainId": 0
    }
  ]
}