{
  "hash": "0x4df329c1c5bfff96aff8ef4274a558a722b15a2422f467f140b2abd8fbff0872",
  "parentHash": "0x36d29d6aca20530df648062e0d19a08ef680fe5296f0fc43ec4596ea91efb472",
  "number": 93598,
  "timestamp": 1439694095,
  "nonce": "0x11ca85e12f5459a1",
  "difficulty": 3463253437804,
  "gasLimit": {
    "_hex": "0x2fefd5"
  },
  "gasUsed": {
    "_hex": "0xa410"
  },
  "miner": "0x77EC9ad4A7E9418774C29415CAaF4Ee0da96eF64",
  "extraData": "0x",
  "transactions": [
    {
      "hash": "0x0aa69730eda5b2650d4c2ed9d04e60727467c664064d0bfb17454c1afbadaf40",
      "blockHash": "0x4df329c1c5bfff96aff8ef4274a558a722b15a2422f467f140b2abd8fbff0872",
      "blockNumber": 93598,
      "transactionIndex": 0,
      "confirmations": null,
      "from": "0x0D123Cb78ef69F3189d4b5bD0b091e79EF0Ce877",
      "gasPrice": {
        "_hex": "0xddef87db2"
      },
      "gasLimit": {
        "_hex": "0x5208"
      },
      "to": "0x32Be343B94f860124dC4fEe278FDCBD38C102D88",
      "value": {
        "_hex": "0x192ff750b211af00000"
      },
      "nonce": 1,
      "data": "0x",
      "r": "0xa262bb2a0e6a5f5d0f4916ae1e0b6b8648d566fd37eae85c5d07de9ddd6fab25",
      "s": "0x45d59f39de7f037ca72520b079a756eaec49bd0f1bb8666ad85ea7e65859d7e8",
      "v": 27,
      "creates": null,
      "raw": "0xf86e01850ddef87db28252089432be343b94f860124dc4fee278fdcbd38c102d888a0192ff750b211af00000801ba0a262bb2a0e6a5f5d0f4916ae1e0b6b8648d566fd37eae85c5d07de9ddd6fab25a045d59f39de7f037ca72520b079a756eaec49bd0f1bb8666ad85ea7e65859d7e8",
      "networkId": 0,
      "chainId": 0
    },
    {
      "hash": "0xbe7924bac177fe68c7be6c5617761fb77fac5eb400c6421069c112e30439dfbb",
      "blockHash": "0x4df329c1c5bfff96aff8ef4274a558a722b15a2422f467f140b2abd8fbff0872",
      "blockNumber": 93598,
      "transactionIndex": 1,
      "confirmations": null,
      "from": "0xCbbdAd70d0ff27254925AD37B5C135EEe1116615",
      "gasPrice": {
        "_hex": "0xccdfdcc0a"
      },
      "gasLimit": {
        "_hex": "0x15f90"
      },
      "to": "0x886e83d9133F65B9c27A946f699E88e71A888E4C",
      "value": {
        "_hex": "0xde0b6b3a7640000"
      },
      "nonce": 7,
      "data": "0x",
      "r": "0x45d839affb4071045ceceb11da794f92170163023b5b2c4edce806b6bca0c6e0",
      "s": "0x03aa998fefadf5d3c735391a1c2e2c0f42c10f1e24984dbb07966ff307ed01a4",
      "v": 28,
      "creates": null,
      "raw": "0xf86d07850ccdfdcc0a83015f9094886e83d9133f65b9c27a946f699e88e71a888e4c880de0b6b3a7640000801ca045d839affb4071045ceceb11da794f92170163023b5b2c4edce806b6bca0c6e0a003aa998fefadf5d3c735391a1c2e2c0f42c10f1e24984dbb07966ff307ed01a4",
      "networkId": 0,
      "chainId": 0
    }
  ]
}