{
  "hash": "0x4f775c6553f799701fdaf39cb51f51aea8335f7a806ca4859cdb50e75ea97c51",
  "parentHash": "0x112da2869459b2c0a0741824a386091e29df633e0e2d7a111e5d9c3e97ce7427",
  "number": 84994,
  "timestamp": 1439557083,
  "nonce": "0x21b8d07255deaa39",
  "difficulty": 2723786934812,
  "gasLimit": {
    "_hex": "0x2fefd5"
  },
  "gasUsed": {
    "_hex": "0xa674"
  },
  "miner": "0xe6A7a1d47ff21B6321162AEA7C6CB457D5476Bca",
  "extraData": "0x476574682f76312e302e312d38326566323666362f6c696e75782f676f312e34",
  "transactions": [
    {
      "hash": "0xe1f55ad6a7c197aa50758865753621b2cb6b7cff050bc18c81f215485e035a22",
      "blockHash": "0x4f775c6553f799701fdaf39cb51f51aea8335f7a806ca4859cdb50e75ea97c51",
      "blockNumber": 84994,
      "transactionIndex": 0,
      "confirmations": null,
      "from": "0x6CE13F1816a2cFab76C59714291Cb8403CbBB3D8",
      "gasPrice": {
        "_hex": "0xd7d40ace3"
      },
      "gasLimit": {
        "_hex": "0x55f0"
      },
      "to": "0x2910543Af39abA0Cd09dBb2D50200b3E800A63D2",
      "value": {
        "_hex": "0x2f2f39fc6c540000"
      },
      "nonce": 4,
      "data": "0x454e37513531443138",
      "r": "0xd5431066a83e1ac4c9ba683f39ef1b1be0447dc0ac0e1ede0e3b5338ba581dd0",
      "s": "0x549d6ce12d6fbc586827342c1e449e5d94009ca64855bd54d4a94e43cb53b1af",
      "v": 28,
      "creates": null,
      "raw": "0xf87504850d7d40ace38255f0942910543af39aba0cd09dbb2d50200b3e800a63d2882f2f39fc6c54000089454e375135314431381ca0d5431066a83e1ac4c9ba683f39ef1b1be0447dc0ac0e1ede0e3b5338ba581dd0a0549d6ce12d6fbc586827342c1e449e5d94009ca64855bd54d4a94e43cb53b1af",
      "networkId": 0,
      "chainId": 0
    },
    {
      "hash": "0x777df3f6c38b37a6c9dd97e5e390bb2bf54602afc01e5dca12de3f89f14b78fc",
      "blockHash": "0x4f775c6553f799701fdaf39cb51f51aea8335f7a806ca4859cdb50e75ea97c51",
      "blockNumber": 84994,
      "transactionIndex": 1,
      "confirmations": null,
      "from": "0x32Be343B94f860124dC4fEe278FDCBD38C102D88",
      "gasPrice": {
        "_hex": "0xcee611629"
      },
      "gasLimit": {
        "_hex": "0x5208"
      },
      "to": "0x2c900D63C99FD0D908b951746E3F80E88C4B138D",
      "value": {
        "_hex": "0x2386f26fc10000"
      },
      "nonce": 718,
      "data": "0x",
      "r": "0x877cb4b7291df3f0ba9e47fc07db19e345a301db1d1e09e12ac29a6e793b5b14",
      "s": "0x5a21a1b68f13154d1b7f2398ca85ffd6fb922b448041e718146102c46d6ac38d",
      "v": 27,
      "creates": null,
      "raw": "0xf86d8202ce850cee611629825208942c900d63c99fd0d908b951746e3f80e88c4b138d872386f26fc10000801ba0877cb4b7291df3f0ba9e47fc07db19e345a301db1d1e09e12ac29a6e793b5b14a05a21a1b68f13154d1b7f2398ca85ffd6fb922b448041e718146102c46d6ac38d",
      "networkId": 0,
      "chainId": 0
    }
  ]
}