{
  "hash": "0x7b15ebb99e869c6814270a1bf07aab9fde23fd0b02b28709398901b6cc323b61",
  "parentHash": "0xd747b6576945168d08e2eec7ad38e68629ef4598e674d825b508d42277f9dace",
  "number": 78780,
  "timestamp": 1439459235,
  "nonce": "0xa7cfd5f3b7c4d6c7",
  "difficulty": 2299845727420,
  "gasLimit": {
    "_hex": "0x2fefd8"
  },
  "gasUsed": {
    "_hex": "0x5208"
  },
  "miner": "0xf927a40C8B7F6E07c5af7FA2155B4864a4112B13",
  "extraData": "0x",
  "transactions": [
    {
      "hash": "0xac3afdc1148db10ff221631745478d329709e5b1be22bd54ba84ddfd390adfd0",
      "blockHash": "0x7b15ebb99e869c6814270a1bf07aab9fde23fd0b02b28709398901b6cc323b61",
      "blockNumber": 78780,
      "transactionIndex": 0,
      "confirmations": null,
      "from": "0xbE4316eE81D409F20Bb3CDa8B5fA705dd93CD145",
      "gasPrice": {
        "_hex": "0xde6e7d5d1"
      },
      "gasLimit": {
        "_hex": "0x5208"
      },
      "to": "0x32Be343B94f860124dC4fEe278FDCBD38C102D88",
      "value": {
        "_hex": "0x727c7fcc367b1c000"
      },
      "nonce": 0,
      "data": "0x",
      "r": "0xf87ce8e455c2e74864b4dbe935770ae4d2ac02448e27f1e696bd2507fba61a92",
      "s": "0x187b3fdd8e2ae344b0e6ac03c1090626e94e6bbeb597d0abf0bcc770108f1334",
      "v": 27,
      "creates": null,
      "raw": "0xf86d80850de6e7d5d18252089432be343b94f860124dc4fee278fdcbd38c102d88890727c7fcc367b1c000801ba0f87ce8e455c2e74864b4dbe935770ae4d2ac02448e27f1e696bd2507fba61a92a0187b3fdd8e2ae344b0e6ac03c1090626e94e6bbeb597d0abf0bcc770108f1334",
      "networkId": 0,
      "chainId": 0
    }
  ]
}