{
  "hash": "0x830344f459941d674183c7dae1205ce3f9225ec428e19afea37cf6778c584c9a",
  "parentHash": "0xee5f432ed8e468f6a097eb767487e0a7596c8fbba8dfaa7d13926c56105a7f6a",
  "number": 55017,
  "timestamp": 1439064057,
  "nonce": "0x63b632d5374cdb90",
  "difficulty": 1623526393952,
  "gasLimit": {
    "_hex": "0x2fefd8"
  },
  "gasUsed": {
    "_hex": "0x5208"
  },
  "miner": "0x20dff602D440dC119Bd3fF52E76f5cFE42Da65Fe",
  "extraData": "0x476574682f76312e302e312d37666266393930632f6c696e75782f676f312e34",
  "transactions": [
    {
      "hash": "0x34ddaf9e082ad7fcd9d0ed2d48cd745d0a3912aa1ae86fb1d1c7abf36595e9d7",
      "blockHash": "0x830344f459941d674183c7dae1205ce3f9225ec428e19afea37cf6778c584c9a",
      "blockNumber": 55017,
      "transactionIndex": 0,
      "confirmations": null,
      "from": "0xAb5199486803893a6dc1AD1D31612895300BCcA9",
      "gasPrice": {
        "_hex": "0xd7d40ace3"
      },
      "gasLimit": {
        "_hex": "0x7530"
      },
      "to": "0x5edeF194D1fB66CDeB5ca06baC41be4f3E2D0BE2",
      "value": {
        "_hex": "0x3cb71f51fc5580000"
      },
      "nonce": 4,
      "data": "0x",
      "r": "0xda8638572b3db8323922a3074892373f0b3cf26eed236f03a49e36ed4cd88309",
      "s": "0x3d58eca247470e0fea16f4160eb5e49cbf4f2de9cfe8cc2d6de28df0c4fe506d",
      "v": 28,
      "creates": null,
      "raw": "0xf86d04850d7d40ace3827530945edef194d1fb66cdeb5ca06bac41be4f3e2d0be28903cb71f51fc5580000801ca0da8638572b3db8323922a3074892373f0b3cf26eed236f03a49e36ed4cd88309a03d58eca247470e0fea16f4160eb5e49cbf4f2de9cfe8cc2d6de28df0c4fe506d",
      "networkId": 0,
      "chainId": 0
    }
  ]
}