{
  "hash": "0x1ea0c47e3218c563948ba17325308ddee9b84213d6c8c1ada318b8ee1693e59a",
  "parentHash": "0x4e6c24f8b1cf65b9e32bd28b62cd3a21556457986cd693c47345ff446b6f1632",
  "number": 105427,
  "timestamp": 1439887371,
  "nonce": "0x6399aa1c7cdc8985",
  "difficulty": 4382479873597,
  "gasLimit": {
    "_hex": "0x2fefd8"
  },
  "gasUsed": {
    "_hex": "0x5208"
  },
  "miner": "0xf8E0CA3Ed80bd541b94BEdCf259e8CF2141A9523",
  "extraData": "0x476574682f76312e302e312f77696e646f77732f676f312e342e32",
  "transactions": [
    {
      "hash": "0x7e86b5fd23a8e1a28cedb92f7b70ae2a91ce4939f323b9fdd997ee5214bdd2b3",
      "blockHash": "0x1ea0c47e3218c563948ba17325308ddee9b84213d6c8c1ada318b8ee1693e59a",
      "blockNumber": 105427,
      "transactionIndex": 0,
      "confirmations": null,
      "from": "0x090d50347263c6E24312c2A4f42C456f4AcC40Ca",
      "gasPrice": {
        "_hex": "0xd4b3fef57"
      },
      "gasLimit": {
        "_hex": "0x5208"
      },
      "to": "0x32Be343B94f860124dC4fEe278FDCBD38C102D88",
      "value": {
        "_hex": "0x2620e7eb2fb93400"
      },
      "nonce": 5,
      "data": "0x",
      "r": "0xebe48c9671211872f1efcd2ceb0cfd69420fdf301fe66459b278224b24c90270",
      "s": "0x522f5d30e94b31a12b7fa92c6cee0410d8599a7f592f935d73fe1b490ad071bb",
      "v": 27,
      "creates": null,
      "raw": "0xf86c05850d4b3fef578252089432be343b94f860124dc4fee278fdcbd38c102d88882620e7eb2fb93400801ba0ebe48c9671211872f1efcd2ceb0cfd69420fdf301fe66459b278224b24c90270a0522f5d30e94b31a12b7fa92c6cee0410d8599a7f592f935d73fe1b490ad071bb",
      "networkId": 0,
      "chainId": 0
    }
  ]
}