{
  "hash": "0xad4ddfe0f5e405ad0bafbc9f417a116f82822463ebb4f8ad26edf505b8a5be1c",
  "parentHash": "0xce73ca0b96a4cca86d7c9d789d0162844b6a5a5287ffcf4cdd850436d61cd101",
  "number": 63415,
  "timestamp": 1439204122,
  "nonce": "0x1c82b95e3ef34de5",
  "difficulty": 1836061700240,
  "gasLimit": {
    "_hex": "0x2fefd8"
  },
  "gasUsed": {
    "_hex": "0xc9c3"
  },
  "miner": "0x20c6Efe179C293690A5B3375F5bd81c2f07Ed037",
  "extraData": "0x476574682f76312e302e312d38326566323666362f6c696e75782f676f312e34",
  "transactions": [
    {
      "hash": "0x864f2f0d8ad72ce063969da9eba83ab7a93bc9003c89a6a59e95d5f6475e8227",
      "blockHash": "0xad4ddfe0f5e405ad0bafbc9f417a116f82822463ebb4f8ad26edf505b8a5be1c",
      "blockNumber": 63415,
      "transactionIndex": 0,
      "confirmations": null,
      "from": "0x0028795F5139935918A4176C80b01d32549E2819",
      "gasPrice": {
        "_hex": "0xd7d40ace3"
      },
      "gasLimit": {
        "_hex": "0x7a120"
      },
      "to": "0xfBc128067A2FE13C11BBC6cc55f29AA1F27630DA",
      "value": {
        "_hex": "0xde0b6b3a7640000"
      },
      "nonce": 3,
      "data": "0x",
      "r": "0x5c7c3f7ad19d864e755f8a6fe8990452bfbf4feabcf85b165fa6747613a40de6",
      "s": "0x16edba0ebe5db09e3e430db86e59745d645a064651e3f2977f3b56ea3fa8b49b",
      "v": 27,
      "creates": null,
      "raw": "0xf86d03850d7d40ace38307a12094fbc128067a2fe13c11bbc6cc55f29aa1f27630da880de0b6b3a7640000801ba05c7c3f7ad19d864e755f8a6fe8990452bfbf4feabcf85b165fa6747613a40de6a016edba0ebe5db09e3e430db86e59745d645a064651e3f2977f3b56ea3fa8b49b",
      "networkId": 0,
      "chainId": 0
    }
  ]
}