{
  "hash": "0xce57f78d7a9f39f925147567f454e8e4f88c21a7a5b5c7b0d26cb5b8e41e1b47",
  "parentHash": "0xd25049c9eb8a6d3389c6f47d78d661ab14543df53d4404cbf7e03486110e11af",
  "number": 96222,
  "timestamp": 1439736911,
  "nonce": "0xdcfff547fd5d8793",
  "difficulty": 3663929742237,
  "gasLimit": {
    "_hex": "0x2fefd8"
  },
  "gasUsed": {
    "_hex": "0x5208"
  },
  "miner": "0xe6A7a1d47ff21B6321162AEA7C6CB457D5476Bca",
  "extraData": "0x476574682f76312e302e312d38326566323666362f6c696e75782f676f312e34",
  "transactions": [
    {
      "hash": "0xa1aec0d49ede2641397968e66400eefa8fbd3a353ec1a03932dee08a09d27ab4",
      "blockHash": "0xce57f78d7a9f39f925147567f454e8e4f88c21a7a5b5c7b0d26cb5b8e41e1b47",
      "blockNumber": 96222,
      "transactionIndex": 0,
      "confirmations": null,
      "from": "0x7884D470204862a0d1A21122F41ee77430396Ee5",
      "gasPrice": {
        "_hex": "0xde3cfc504"
      },
      "gasLimit": {
        "_hex": "0x15f90"
      },
      "to": "0xc963C32F15E59ABfcB814Dd1d96A900CF588B783",
      "value": {
        "_hex": "0x174876e800"
      },
      "nonce": 14,
      "data": "0x",
      "r": "0x24bee1193de129b4b1d09ec5f1b99e292962b3c344267dfc1fdad5f562f06b57",
      "s": "0x07c627b211442ac21ed3ca53e00f079162588d5dc265b2cdda5913be52466ba3",
      "v": 28,
      "creates": null,
      "raw": "0xf86a0e850de3cfc50483015f9094c963c32f15e59abfcb814dd1d96a900cf588b78385174876e800801ca024bee1193de129b4b1d09ec5f1b99e292962b3c344267dfc1fdad5f562f06b57a007c627b211442ac21ed3ca53e00f079162588d5dc265b2cdda5913be52466ba3",
      "networkId": 0,
      "chainId": 0
    }
  ]
}