{
  "hash": "0xf4e85a8f611cd3c85202347cbb9074707a8b4aa468c440911ba96d8afafde48a",
  "parentHash": "0x691d7667baef6e3d1131cac3425817684290f953e2b819accb086b3d1cafe3d7",
  "number": 79596,
  "timestamp": 1439472228,
  "nonce": "0xc6bf35dac6495cb5",
  "difficulty": 2342689105215,
  "gasLimit": {
    "_hex": "0x2fefd8"
  },
  "gasUsed": {
    "_hex": "0x5208"
  },
  "miner": "0x88D74a59454F6cF3B51ef6b9136AFb6b9D405A88",
  "extraData": "0x476574682f76312e302e312d37666266393930632f6c696e75782f676f312e34",
  "transactions": [
    {
      "hash": "0x8bfd84456a8925bc304eede2c075633eeae5f02e79b3c45ff1847bc77d532722",
      "blockHash": "0xf4e85a8f611cd3c85202347cbb9074707a8b4aa468c440911ba96d8afafde48a",
      "blockNumber": 79596,
      "transactionIndex": 0,
      "confirmations": null,
      "from": "0x959C29f8182718575D9A58fa3EF8fF8A5f9D79e8",
      "gasPrice": {
        "_hex": "0xd804d8f50"
      },
      "gasLimit": {
        "_hex": "0x5208"
      },
      "to": "0x32Be343B94f860124dC4fEe278FDCBD38C102D88",
      "value": {
        "_hex": "0xac997e2df8e940000"
      },
      "nonce": 0,
      "data": "0x",
      "r": "0x93fbe418dd8b3b2f09cd6a043fb05a454f7fda19c017d515cfb9c4682a3cee5c",
      "s": "0x393cad17a2d0f4b9c20a5ae6fed6db266fc1126b5177425e16e16517b0d42438",
      "v": 27,
      "creates": null,
      "raw": "0xf86d80850d804d8f508252089432be343b94f860124dc4fee278fdcbd38c102d88890ac997e2df8e940000801ba093fbe418dd8b3b2f09cd6a043fb05a454f7fda19c017d515cfb9c4682a3cee5ca0393cad17a2d0f4b9c20a5ae6fed6db266fc1126b5177425e16e16517b0d42438",
      "networkId": 0,
      "chainId": 0
    }
  ]
}