{
  "hash": "0x6d556deb5a1be56ac639633c03eab4d9546de90490c025b63a530d1ffe1e638b",
  "parentHash": "0x0e9024976a7402dd4e304360214c2ef045f7eda05b2ff4de7183e036a05cb63f",
  "number": 51412,
  "timestamp": 1439004520,
  "nonce": "0x990bf77ff70017a4",
  "difficulty": 1564290959296,
  "gasLimit": {
    "_hex": "0xae00f"
  },
  "gasUsed": {
    "_hex": "0x5208"
  },
  "miner": "0xf927a40C8B7F6E07c5af7FA2155B4864a4112B13",
  "extraData": "0x476574682f76312e302e312f6c696e75782f676f312e342e32",
  "transactions": [
    {
      "hash": "0x4f2a14e74b73576420edc97ee8b4aa8e617fd963a3b8f5f45f5847ce710d46d2",
      "blockHash": "0x6d556deb5a1be56ac639633c03eab4d9546de90490c025b63a530d1ffe1e638b",
      "blockNumber": 51412,
      "transactionIndex": 0,
      "confirmations": null,
      "from": "0x851A5680487032aaDF727270E0A310C24C269c52",
      "gasPrice": {
        "_hex": "0x10f4aec1c97"
      },
      "gasLimit": {
        "_hex": "0x5208"
      },
      "to": "0x4c74B6F32c9680aCB5Fe0e72B7Aa95C612540A04",
      "value": {
        "_hex": "0x29a2241af62c0000"
      },
      "nonce": 0,
      "data": "0x",
      "r": "0xea0874c4b732a30d8575490d0cb22d9ec3ddc9b87270b303e10563b8a0047384",
      "s": "0x054767f3f46d44e2cf995fad8bbfd070afc8835c0d117febb40896d98e812f10",
      "v": 28,
      "creates": null,
      "raw": "0xf86d8086010f4aec1c97825208944c74b6f32c9680acb5fe0e72b7aa95c612540a048829a2241af62c0000801ca0ea0874c4b732a30d8575490d0cb22d9ec3ddc9b87270b303e10563b8a0047384a0054767f3f46d44e2cf995fad8bbfd070afc8835c0d117febb40896d98e812f10",
      "networkId": 0,
      "chainId": 0
    }
  ]
}