{
  "hash": "0x34a4682b1f5d5d4c8236817eafbd3aa8b48af885a4823512197f9121af17ccff",
  "parentHash": "0xbb596a7d93ff7af1cf52cb98cbf0c79add823b17a99532a78b5d2d1fd800d49c",
  "number": 55169,
  "timestamp": 1439066376,
  "nonce": "0x5afadea9c8b05f14",
  "difficulty": 1642634246354,
  "gasLimit": {
    "_hex": "0x2fefd8"
  },
  "gasUsed": {
    "_hex": "0x2dc6c0"
  },
  "miner": "0xeB1325C8D9d3ea8D74aC11F4B00F1B2367686319",
  "extraData": "0x476574682f76312e302e312f77696e646f77732f676f312e342e32",
  "transactions": [
    {
      "hash": "0x62230645b546a58c543e9e31c3033ea8320e708b2d42c36150ceeab093a33cbf",
      "blockHash": "0x34a4682b1f5d5d4c8236817eafbd3aa8b48af885a4823512197f9121af17ccff",
      "blockNumber": 55169,
      "transactionIndex": 0,
      "confirmations": null,
      "from": "0x0ae3F81a67725a8A7758FeB8684c6c17dA20755D",
      "gasPrice": {
        "_hex": "0xdf763ac59"
      },
      "gasLimit": {
        "_hex": "0x7a120"
      },
      "to": "0xBAA54d6E90c3F4d7Ebec11bD180134C7eD8eBb52",
      "value": {
        "_hex": "0x16345785d8a0000"
      },
      "nonce": 28,
      "data": "0x",
      "r": "0xdecd6d4084a5efe065f8b268996ea28cef82c17ee66ccf3d94591e4c7cddf42c",
      "s": "0x70c818d7318d11e636dbe4f082539d6fc3a40c4c58c2070e8e12bda69f4c547b",
      "v": 27,
      "creates": null,
      "raw": "0xf86d1c850df763ac598307a12094baa54d6e90c3f4d7ebec11bd180134c7ed8ebb5288016345785d8a0000801ba0decd6d4084a5efe065f8b268996ea28cef82c17ee66ccf3d94591e4c7cddf42ca070c818d7318d11e636dbe4f082539d6fc3a40c4c58c2070e8e12bda69f4c547b",
      "networkId": 0,
      "chainId": 0
    },
    {
      "hash": "0x38daf5e44da68fea544af57a6ca7f1ad488f48163dbe44fd540da526164a424a",
      "blockHash": "0x34a4682b1f5d5d4c8236817eafbd3aa8b48af885a4823512197f9121af17ccff",
      "blockNumber": 55169,
      "transactionIndex": 1,
      "confirmations": null,
      "from": "0x0ae3F81a67725a8A7758FeB8684c6c17dA20755D",
      "gasPrice": {
        "_hex": "0xdf763ac59"
      },
      "gasLimit": {
        "_hex": "0x7a120"
      },
      "to": "0xBAA54d6E90c3F4d7Ebec11bD180134C7eD8eBb52",
      "value": {
        "_hex": "0x16345785d8a0000"
      },
      "nonce": 29,
      "data": "0x",
      "r": "0x5534ee27b1c4d1ae33435234c60b4c4bd114c158c18b8cf4d31d81f01057ee8c",
      "s": "0x78b446ca2d575a44516fe239008e98fb1a7adfd7e5ee345fed80d1b6b6ef2914",
      "v": 27,
      "creates": null,
      "raw": "0xf86d1d850df763ac598307a12094baa54d6e90c3f4d7ebec11bd180134c7ed8ebb5288016345785d8a0000801ba05534ee27b1c4d1ae33435234c60b4c4bd114c158c18b8cf4d31d81f01057ee8ca078b446ca2d575a44516fe239008e98fb1a7adfd7e5ee345fed80d1b6b6ef2914",
      "networkId": 0,
      "chainId": 0
    },
    {
      "hash": "0x47c2d918c4500f690289ee169819d00f5316813a94dbe90aac83d704cb3b8a27",
      "blockHash": "0x34a4682b1f5d5d4c8236817eafbd3aa8b48af885a4823512197f9121af17ccff",
      "blockNumber": 55169,
      "transactionIndex": 2,
      "confirmations": null,
      "from": "0x0ae3F81a67725a8A7758FeB8684c6c17dA20755D",
      "gasPrice": {
        "_hex": "0xdf763ac59"
      },
      "gasLimit": {
        "_hex": "0x7a120"
      },
      "to": "0xBAA54d6E90c3F4d7Ebec11bD180134C7eD8eBb52",
      "value": {
        "_hex": "0x16345785d8a0000"
      },
      "nonce": 30,
      "data": "0x",
      "r": "0xf515672e65f83c8d5e54c8f32fe54e186c3c7e7e769670a5389f70aec692b48c",
      "s": "0x51f0fad3785671ab060aa616e38da34896ce5c63bb3e3f89933c007b37e73bef",
      "v": 27,
      "creates": null,
      "raw": "0xf86d1e850df763ac598307a12094baa54d6e90c3f4d7ebec11bd180134c7ed8ebb5288016345785d8a0000801ba0f515672e65f83c8d5e54c8f32fe54e186c3c7e7e769670a5389f70aec692b48ca051f0fad3785671ab060aa616e38da34896ce5c63bb3e3f89933c007b37e73bef",
      "networkId": 0,
      "chainId": 0
    },
    {
      "hash": "0xe02f4896cb07d8f5f36c90e7417c28e7e1a59cfc58d665e121d15a0080b7c48c",
      "blockHash": "0x34a4682b1f5d5d4c8236817eafbd3aa8b48af885a4823512197f9121af17ccff",
      "blockNumber": 55169,
      "transactionIndex": 3,
      "confirmations": null,
      "from": "0x0ae3F81a67725a8A7758FeB8684c6c17dA20755D",
      "gasPrice": {
        "_hex": "0xdf763ac59"
      },
      "gasLimit": {
        "_hex": "0x7a120"
      },
      "to": "0xBAA54d6E90c3F4d7Ebec11bD180134C7eD8eBb52",
      "value": {
        "_hex": "0x16345785d8a0000"
      },
      "nonce": 31,
      "data": "0x",
      "r": "0x81c8d05a0c92c8b3f30d7cc0512fabc3b0472d44f6eac158938b9ea27c1ac46b",
      "s": "0x70ea64f8461a61ed5437c966ee5c2bcd5bb249c9b2e01864c5d90c259610373b",
      "v": 27,
      "creates": null,
      "raw": "0xf86d1f850df763ac598307a12094baa54d6e90c3f4d7ebec11bd180134c7ed8ebb5288016345785d8a0000801ba081c8d05a0c92c8b3f30d7cc0512fabc3b0472d44f6eac158938b9ea27c1ac46ba070ea64f8461a61ed5437c966ee5c2bcd5bb249c9b2e01864c5d90c259610373b",
      "networkId": 0,
      "chainId": 0
    },
    {
      "hash": "0x844c5bb02eaa72f659d2fee34f1bd74f18fef19b3a6a2b9ffd66b0bbfdfc1088",
      "blockHash": "0x34a4682b1f5d5d4c8236817eafbd3aa8b48af885a4823512197f9121af17ccff",
      "blockNumber": 55169,
      "transactionIndex": 4,
      "confirmations": null,
      "from": "0x0ae3F81a67725a8A7758FeB8684c6c17dA20755D",
      "gasPrice": {
        "_hex": "0xdf763ac59"
      },
      "gasLimit": {
        "_hex": "0x7a120"
      },
      "to": "0xBAA54d6E90c3F4d7Ebec11bD180134C7eD8eBb52",
      "value": {
        "_hex": "0x16345785d8a0000"
      },
      "nonce": 32,
      "data": "0x",
      "r": "0xa2f233c8e73d0eccd64c5afd6d1c77d0abaf93ac658c20986b81a5be4a7a04ec",
      "s": "0x1266d389f3def7cec73ca714c3f5faa70c27f34e0f97cd69e61ae1cff99a05a9",
      "v": 28,
      "creates": null,
      "raw": "0xf86d20850df763ac598307a12094baa54d6e90c3f4d7ebec11bd180134c7ed8ebb5288016345785d8a0000801ca0a2f233c8e73d0eccd64c5afd6d1c77d0abaf93ac658c20986b81a5be4a7a04eca01266d389f3def7cec73ca714c3f5faa70c27f34e0f97cd69e61ae1cff99a05a9",
      "networkId": 0,
      "chainId": 0
    },
    {
      "hash": "0x2fd0f9c7716719a7e1832dba8b680ef2d3acefd5e973b8e70979fe5a515cebb4",
      "blockHash": "0x34a4682b1f5d5d4c8236817eafbd3aa8b48af885a4823512197f9121af17ccff",
      "blockNumber": 55169,
      "transactionIndex": 5,
      "confirmations": null,
      "from": "0x0ae3F81a67725a8A7758FeB8684c6c17dA20755D",
      "gasPrice": {
        "_hex": "0xdf763ac59"
      },
      "gasLimit": {
        "_hex": "0x7a120"
      },
      "to": "0xBAA54d6E90c3F4d7Ebec11bD180134C7eD8eBb52",
      "value": {
        "_hex": "0x16345785d8a0000"
      },
      "nonce": 33,
      "data": "0x",
      "r": "0xae3eb351b932117ad84e1f07f1e2ba1887961826dcf978a7be11b4d7a0d150bb",
      "s": "0x2f3e644e4d6ba04a55cf8062def5442d1be83f183112bb393d079022cfbc98c2",
      "v": 28,
      "creates": null,
      "raw": "0xf86d21850df763ac598307a12094baa54d6e90c3f4d7ebec11bd180134c7ed8ebb5288016345785d8a0000801ca0ae3eb351b932117ad84e1f07f1e2ba1887961826dcf978a7be11b4d7a0d150bba02f3e644e4d6ba04a55cf8062def5442d1be83f183112bb393d079022cfbc98c2",
      "networkId": 0,
      "chainId": 0
    }
  ]
}