{
  "hash": "0x7efd0b4b9c888e221a96be0c9e8bf6f8137faa252b5e040f240dc1870d85cccf",
  "parentHash": "0x602b620fee21543f793e1ae3de2cb89b1f8f2554a6e3fc5008bdf0c00b2cfce6",
  "number": 62511,
  "timestamp": 1439190025,
  "nonce": "0x8358866575e4d394",
  "difficulty": 1764189886112,
  "gasLimit": {
    "_hex": "0x2fefd8"
  },
  "gasUsed": {
    "_hex": "0xf886"
  },
  "miner": "0x0193d941b50d91BE6567c7eE1C0Fe7AF498b4137",
  "extraData": "0x4a5ace9e4e",
  "transactions": [
    {
      "hash": "0x0a4b35cc151e71d4803290cff4166d752d51acc847bc03452fbabe44274957e8",
      "blockHash": "0x7efd0b4b9c888e221a96be0c9e8bf6f8137faa252b5e040f240dc1870d85cccf",
      "blockNumber": 62511,
      "transactionIndex": 0,
      "confirmations": null,
      "from": "0xE2beA3e7d349ab64EBD9873418e78912e13CD35f",
      "gasPrice": {
        "_hex": "0xd156bc85f"
      },
      "gasLimit": {
        "_hex": "0x15f90"
      },
      "to": "0x6C18EB3a3cbFc8fc6EeC1d80aB1d0dc5510FA0b1",
      "value": {
        "_hex": "0xde0b6b3a7640000"
      },
      "nonce": 25,
      "data": "0xa55526db",
      "r": "0xa17ad889b90bde141ac1725cfa81bc3a67b757ae23265655c7e831a92b1274b3",
      "s": "0x75c23136be9a26983e4cee7c1e0e0ba7fd1b384d9802e491d5c87b3a2d8df607",
      "v": 28,
      "creates": null,
      "raw": "0xf87119850d156bc85f83015f90946c18eb3a3cbfc8fc6eec1d80ab1d0dc5510fa0b1880de0b6b3a764000084a55526db1ca0a17ad889b90bde141ac1725cfa81bc3a67b757ae23265655c7e831a92b1274b3a075c23136be9a26983e4cee7c1e0e0ba7fd1b384d9802e491d5c87b3a2d8df607",
      "networkId": 0,
      "chainId": 0
    },
    {
      "hash": "0x5c1d20ae9ef116e78c23a381f49d2fb64b837de457e920765b987730b5511f65",
      "blockHash": "0x7efd0b4b9c888e221a96be0c9e8bf6f8137faa252b5e040f240dc1870d85cccf",
      "blockNumber": 62511,
      "transactionIndex": 1,
      "confirmations": null,
      "from": "0xE2beA3e7d349ab64EBD9873418e78912e13CD35f",
      "gasPrice": {
        "_hex": "0xd156bc85f"
      },
      "gasLimit": {
        "_hex": "0x15f90"
      },
      "to": "0x6C18EB3a3cbFc8fc6EeC1d80aB1d0dc5510FA0b1",
      "value": {
        "_hex": "0xde0b6b3a7640000"
      },
      "nonce": 26,
      "data": "0xa55526db",
      "r": "0x204d8e2f9f86f575d5c40d8b4a874ab53490ffc4dca2ca924b9d5d0d7f2f38ac",
      "s": "0x40d5a9f7ee5d1b974b192c40ed33f20f4634bb8c540c1977e4de0771d0a59af8",
      "v": 28,
      "creates": null,
      "raw": "0xf8711a850d156bc85f83015f90946c18eb3a3cbfc8fc6eec1d80ab1d0dc5510fa0b1880de0b6b3a764000084a55526db1ca0204d8e2f9f86f575d5c40d8b4a874ab53490ffc4dca2ca924b9d5d0d7f2f38aca040d5a9f7ee5d1b974b192c40ed33f20f4634bb8c540c1977e4de0771d0a59af8",
      "networkId": 0,
      "chainId": 0
    }
  ]
}