{
  "hash": "0x113b7e8221f03c2ecb456fb9da10acebad9c61bf9ed2e766cb8de2ec2ebe0020",
  "parentHash": "0x5212e7825094953a377c57f960744f308f6be3039ad7163e45f3e778715460d5",
  "number": 89178,
  "timestamp": 1439619349,
  "nonce": "0x02bc110f66e3bfde",
  "difficulty": 3283875929500,
  "gasLimit": {
    "_hex": "0x2fefd8"
  },
  "gasUsed": {
    "_hex": "0xa410"
  },
  "miner": "0x896f51055242AFb540C777EAf24AffA8EA14956b",
  "extraData": "0x",
  "transactions": [
    {
      "hash": "0x217e69cdad6751766f122b38c6e526424cdeb0a9c171c0e8f35c833d4abcf56b",
      "blockHash": "0x113b7e8221f03c2ecb456fb9da10acebad9c61bf9ed2e766cb8de2ec2ebe0020",
      "blockNumber": 89178,
      "transactionIndex": 0,
      "confirmations": null,
      "from": "0x2910543Af39abA0Cd09dBb2D50200b3E800A63D2",
      "gasPrice": {
        "_hex": "0xda6fc6ed1"
      },
      "gasLimit": {
        "_hex": "0x5208"
      },
      "to": "0x0e2eD0C2048E434193301F549ac76A9E081C29B2",
      "value": {
        "_hex": "0x8e0d1ef44155c90000"
      },
      "nonce": 745,
      "data": "0x",
      "r": "0xa38bec1e2af1bde6cad3e553bd98f7149544eb9d627702d93100e06857122a5b",
      "s": "0x623e34645c428d27023b952344b06d8bde4d027e586c347c5c4d129c7a44f996",
      "v": 28,
      "creates": null,
      "raw": "0xf86f8202e9850da6fc6ed1825208940e2ed0c2048e434193301f549ac76a9e081c29b2898e0d1ef44155c90000801ca0a38bec1e2af1bde6cad3e553bd98f7149544eb9d627702d93100e06857122a5ba0623e34645c428d27023b952344b06d8bde4d027e586c347c5c4d129c7a44f996",
      "networkId": 0,
      "chainId": 0
    },
    {
      "hash": "0xfbe93aa64e3a9fe751cddc1781a5ac4858c12f7c3b518f24ea5ee1820a979b00",
      "blockHash": "0x113b7e8221f03c2ecb456fb9da10acebad9c61bf9ed2e766cb8de2ec2ebe0020",
      "blockNumber": 89178,
      "transactionIndex": 1,
      "confirmations": null,
      "from": "0x019D3FA6E3cdA649b26F74395A846575c7bEA14C",
      "gasPrice": {
        "_hex": "0xd603ef014"
      },
      "gasLimit": {
        "_hex": "0x15f90"
      },
      "to": "0x04a2a3ee9C9ea82e1F918ecE209f8A7E6d7521E7",
      "value": {
        "_hex": "0xd18df9ff2c660000"
      },
      "nonce": 7,
      "data": "0x",
      "r": "0x8313ee9ff2a8f545c454ee1ca85e31734ef48fb690504708cba8a41a203b35a6",
      "s": "0x79bc9d2c594689ddf6101c36358c3181c774eb3af6d63c14338cc274bff0cc9a",
      "v": 27,
      "creates": null,
      "raw": "0xf86d07850d603ef01483015f909404a2a3ee9c9ea82e1f918ece209f8a7e6d7521e788d18df9ff2c660000801ba08313ee9ff2a8f545c454ee1ca85e31734ef48fb690504708cba8a41a203b35a6a079bc9d2c594689ddf6101c36358c3181c774eb3af6d63c14338cc274bff0cc9a",
      "networkId": 0,
      "chainId": 0
    }
  ]
}