{
  "hash": "0xcf6470a3af779f23a648065e16c610a2bd17c2c6950df7aa601ecd67a370cbc1",
  "parentHash": "0xe229183dfb5edcd4d1b906d5c22c6b8c43a53d2b523c97e576c347cf9087840c",
  "number": 69803,
  "timestamp": 1439309875,
  "nonce": "0xc42c61f59e8e5c4f",
  "difficulty": 2099348427665,
  "gasLimit": {
    "_hex": "0x2fefd8"
  },
  "gasUsed": {
    "_hex": "0x5208"
  },
  "miner": "0x0eDEd3DA479d0beF8eeC92A76644D3f4E3C177f7",
  "extraData": "0x476574682f76312e302e312f6c696e75782f676f312e342e32",
  "transactions": [
    {
      "hash": "0xa5bba5dcdea7beb2ae2613f4014eddd952f185b84a29d9c4f862384c48c39934",
      "blockHash": "0xcf6470a3af779f23a648065e16c610a2bd17c2c6950df7aa601ecd67a370cbc1",
      "blockNumber": 69803,
      "transactionIndex": 0,
      "confirmations": null,
      "from": "0x120A270bbC009644e35F0bB6ab13f95b8199c4ad",
      "gasPrice": {
        "_hex": "0xd0ca76fd2"
      },
      "gasLimit": {
        "_hex": "0x15f90"
      },
      "to": "0x017481d0d93849d5Fa4120CEB377Ab89F42E0206",
      "value": {
        "_hex": "0x14fbca4710afbdd800"
      },
      "nonce": 184,
      "data": "0x",
      "r": "0x56a9ffd6ef8fae8b62a9d4707beed7607f1ac32b0eccab0e095cc5d563f85cfa",
      "s": "0x04a8f1cd5de4671d9c1a95f17799dee876027bd17f36a9df963545f494ce8da4",
      "v": 27,
      "creates": null,
      "raw": "0xf86f81b8850d0ca76fd283015f9094017481d0d93849d5fa4120ceb377ab89f42e02068914fbca4710afbdd800801ba056a9ffd6ef8fae8b62a9d4707beed7607f1ac32b0eccab0e095cc5d563f85cfaa004a8f1cd5de4671d9c1a95f17799dee876027bd17f36a9df963545f494ce8da4",
      "networkId": 0,
      "chainId": 0
    }
  ]
}