{
  "hash": "0x0db0cb303afed91f64122c4b17451f4826f1d511a137fd498a8fef81ea651517",
  "parentHash": "0x8f7dcc77c4aa06d9f13d8639f8c6aa7ba3b88089092e274091bc8124861de707",
  "number": 86711,
  "timestamp": 1439581842,
  "nonce": "0x8f9d5354e561018f",
  "difficulty": 2940203061225,
  "gasLimit": {
    "_hex": "0x2fefd8"
  },
  "gasUsed": {
    "_hex": "0x5d9f"
  },
  "miner": "0xA1623430350C5df1b52B0b57483A5bb45d1796Da",
  "extraData": "0x476574682f76312e302e312d38326566323666362f6c696e75782f676f312e34",
  "transactions": [
    {
      "hash": "0x7162c183cd1ac3b9557082a1f0ded6c93f3b5a99fdce23b57335cf4007d2663f",
      "blockHash": "0x0db0cb303afed91f64122c4b17451f4826f1d511a137fd498a8fef81ea651517",
      "blockNumber": 86711,
      "transactionIndex": 0,
      "confirmations": null,
      "from": "0x8A243A0A9fEA49b839547745ff2D11Af3F4b0522",
      "gasPrice": {
        "_hex": "0xd2083afa0"
      },
      "gasLimit": {
        "_hex": "0x15f90"
      },
      "to": "0xCAc7000C7dBaa2E33Af15325AF5D435E011C7BdD",
      "value": {
        "_hex": "0xe12c61ef9cc751310"
      },
      "nonce": 2,
      "data": "0xb214faa53754414c4f394246510000000000000000000000000000000000000000000000",
      "r": "0x63663621ea3dc8a29858ec92b87e61d65f1fdaf2e17ea0f18c7c67f6521f71c1",
      "s": "0x618059ebf2a2f764c0e5b749ef4ab5642a2477e51c03a6fb4dedfa47500fe3f0",
      "v": 27,
      "creates": null,
      "raw": "0xf89202850d2083afa083015f9094cac7000c7dbaa2e33af15325af5d435e011c7bdd890e12c61ef9cc751310a4b214faa53754414c4f3942465100000000000000000000000000000000000000000000001ba063663621ea3dc8a29858ec92b87e61d65f1fdaf2e17ea0f18c7c67f6521f71c1a0618059ebf2a2f764c0e5b749ef4ab5642a2477e51c03a6fb4dedfa47500fe3f0",
      "networkId": 0,
      "chainId": 0
    }
  ]
}