{
  "hash": "0xf75efc1f6669d5255ed55caf13b000491a41a6885eb339698a8504ed406bcbf3",
  "parentHash": "0x661e486b5a81f2de109cb4fff18b76d33dfa2f8f68f851157295b81288b63098",
  "number": 67747,
  "timestamp": 1439276697,
  "nonce": "0x382ea440e56b0d5d",
  "difficulty": 1943953283781,
  "gasLimit": {
    "_hex": "0x2fefd8"
  },
  "gasUsed": {
    "_hex": "0x5208"
  },
  "miner": "0xEF247E639d49461D25F57e9362CadE3120910Ce0",
  "extraData": "0x476574682f76312e302e312f6c696e75782f676f312e342e32",
  "transactions": [
    {
      "hash": "0xddce88daaf8f632d9bf394f9bd34e2c6c078b23fe5947f26fe2625ba36405510",
      "blockHash": "0xf75efc1f6669d5255ed55caf13b000491a41a6885eb339698a8504ed406bcbf3",
      "blockNumber": 67747,
      "transactionIndex": 0,
      "confirmations": null,
      "from": "0x9Eb13f2Df9A75B34f1e48D8eC2aF7DfbDabA1764",
      "gasPrice": {
        "_hex": "0xd932cbea9"
      },
      "gasLimit": {
        "_hex": "0x15f90"
      },
      "to": "0x608F680cB915b87F83f3d369bBbb796D778c6162",
      "value": {
        "_hex": "0x0"
      },
      "nonce": 1,
      "data": "0x",
      "r": "0xffdc22eeb08b9f19db1d7f09970ab00beaba96d21fe3f3d2c5601475c951045b",
      "s": "0x164f53aed823c7ce3d4b36b47b41056a70e726f7b3c44340cff371c4567e5e33",
      "v": 28,
      "creates": null,
      "raw": "0xf86501850d932cbea983015f9094608f680cb915b87f83f3d369bbbb796d778c616280801ca0ffdc22eeb08b9f19db1d7f09970ab00beaba96d21fe3f3d2c5601475c951045ba0164f53aed823c7ce3d4b36b47b41056a70e726f7b3c44340cff371c4567e5e33",
      "networkId": 0,
      "chainId": 0
    }
  ]
}