{
  "hash": "0xf537dcba2cb1e16674d9cc6a6ae314d3ab84a607adfbac92317236106f969501",
  "parentHash": "0xedcdf0f2ca0ee4a1435f21db5a4fc61e93621eb6abadd99a97c0132f71000f00",
  "number": 107008,
  "timestamp": 1439914442,
  "nonce": "0x5857d00279c0ad73",
  "difficulty": 4452828703695,
  "gasLimit": {
    "_hex": "0x2fefd8"
  },
  "gasUsed": {
    "_hex": "0x5208"
  },
  "miner": "0xaB638742EBe3A78F2a85028350e1AADB86C0a6ed",
  "extraData": "0x",
  "transactions": [
    {
      "hash": "0x379f8a6f6fa661be0b02bbcb1884ab2d6a1d6f11bdf5488eccb0fa8e9b82caed",
      "blockHash": "0xf537dcba2cb1e16674d9cc6a6ae314d3ab84a607adfbac92317236106f969501",
      "blockNumber": 107008,
      "transactionIndex": 0,
      "confirmations": null,
      "from": "0x120A270bbC009644e35F0bB6ab13f95b8199c4ad",
      "gasPrice": {
        "_hex": "0xd18e01702"
      },
      "gasLimit": {
        "_hex": "0x3d090"
      },
      "to": "0x9eE2bcfE9d322cFD264b1aa913ff9e2Ca905C204",
      "value": {
        "_hex": "0x258199107fa51ee400"
      },
      "nonce": 796,
      "data": "0x",
      "r": "0xa2972b9d332dbc5e779f62db9f93120ea878d95d61b02b9b62be51b5f448be0b",
      "s": "0x008307ca0c3f9fb1babcfe04b5ae6cb384b8293889bfb9cb9c7f8d07a9b69d7c",
      "v": 28,
      "creates": null,
      "raw": "0xf86f82031c850d18e017028303d090949ee2bcfe9d322cfd264b1aa913ff9e2ca905c20489258199107fa51ee400801ca0a2972b9d332dbc5e779f62db9f93120ea878d95d61b02b9b62be51b5f448be0b9f8307ca0c3f9fb1babcfe04b5ae6cb384b8293889bfb9cb9c7f8d07a9b69d7c",
      "networkId": 0,
      "chainId": 0
    }
  ]
}