{
  "hash": "0x0b40320e80ab8c71683edf86f2689e9730db2dc2cbd8e35213c03c19320e8a83",
  "parentHash": "0x535fe6878a505e8e89fbe61e55210848491ba2dcc6d1271c9b515bf6349b994f",
  "number": 57516,
  "timestamp": 1439104862,
  "nonce": "0xf8801c897c0bc928",
  "difficulty": 1731943307475,
  "gasLimit": {
    "_hex": "0x2fefd8"
  },
  "gasUsed": {
    "_hex": "0x5208"
  },
  "miner": "0x2134e2a2b718DCa96580ECAC31E653Ea1fdd58DA",
  "extraData": "0x476574682f76312e302e312f77696e646f77732f676f312e342e32",
  "transactions": [
    {
      "hash": "0x7c606aa2964af527023fedeb7853f75481dc380bd1d3a869ee080609077229f2",
      "blockHash": "0x0b40320e80ab8c71683edf86f2689e9730db2dc2cbd8e35213c03c19320e8a83",
      "blockNumber": 57516,
      "transactionIndex": 0,
      "confirmations": null,
      "from": "0x293C2306Df3604Ae4FdA0D207aBa736f67dE0792",
      "gasPrice": {
        "_hex": "0xd31bbdac3"
      },
      "gasLimit": {
        "_hex": "0x15f90"
      },
      "to": "0x466d47d07dB25bd4bECb2D0232D2847ACF6D1d37",
      "value": {
        "_hex": "0x1d017f2642556bc00"
      },
      "nonce": 2,
      "data": "0x",
      "r": "0x56d7a767cb2e9832886953bfab088a695c8df660de0aabb09509cd80dfd1c793",
      "s": "0x713240317e6cd98d281638cde9c304469552d4102a00c7f32e08d4b1fd354c5d",
      "v": 27,
      "creates": null,
      "raw": "0xf86e02850d31bbdac383015f9094466d47d07db25bd4becb2d0232d2847acf6d1d378901d017f2642556bc00801ba056d7a767cb2e9832886953bfab088a695c8df660de0aabb09509cd80dfd1c793a0713240317e6cd98d281638cde9c304469552d4102a00c7f32e08d4b1fd354c5d",
      "networkId": 0,
      "chainId": 0
    }
  ]
}