{
  "hash": "0xc384e8c28d8736c1db794f8c1409703e301dd885510bda9b36f9e5bed02d6a04",
  "parentHash": "0xefb1ec26267ae2fe2ef06509b0212857ebc59f6f471e481521d88d0309765bfa",
  "number": 72205,
  "timestamp": 1439349084,
  "nonce": "0x759df89bec8a4b77",
  "difficulty": 2167484434526,
  "gasLimit": {
    "_hex": "0x2fefd8"
  },
  "gasUsed": {
    "_hex": "0x9400"
  },
  "miner": "0xf8E0CA3Ed80bd541b94BEdCf259e8CF2141A9523",
  "extraData": "0x476574682f76312e302e312f77696e646f77732f676f312e342e32",
  "transactions": [
    {
      "hash": "0x8d199c6f58a656e940a96e0b2972c6d05d61477152b91f096cadaeeaf11ba1cd",
      "blockHash": "0xc384e8c28d8736c1db794f8c1409703e301dd885510bda9b36f9e5bed02d6a04",
      "blockNumber": 72205,
      "transactionIndex": 0,
      "confirmations": null,
      "from": "0x17580B766f7453525ca4C6A88b01b50570EA088C",
      "gasPrice": {
        "_hex": "0xd10f844ab"
      },
      "gasLimit": {
        "_hex": "0x61a80"
      },
      "to": "0x5Fe5B7546D1628f7348B023A0393de1FC825A4fD",
      "value": {
        "_hex": "0x8ac7230489e80000"
      },
      "nonce": 373,
      "data": "0xb595b8b50000000000000000000000000000000000000000000000000000000000000001",
      "r": "0x2d23e38f086ac1de5b55eb85fba6df8e06b3511685034e8bff550962cc3ed57c",
      "s": "0x34e72c3de3f981d7686786f12b233b128befd508b108a1ae773da455a11e408d",
      "v": 27,
      "creates": null,
      "raw": "0xf893820175850d10f844ab83061a80945fe5b7546d1628f7348b023a0393de1fc825a4fd888ac7230489e80000a4b595b8b500000000000000000000000000000000000000000000000000000000000000011ba02d23e38f086ac1de5b55eb85fba6df8e06b3511685034e8bff550962cc3ed57ca034e72c3de3f981d7686786f12b233b128befd508b108a1ae773da455a11e408d",
      "networkId": 0,
      "chainId": 0
    }
  ]
}