{
  "hash": "0x12e510a629b376e5b622a01c47cf9812cc1aa84f3266311bf0df44adad6b8e93",
  "parentHash": "0xb8a96e471fe14a22fae470b03c44ffdeb566f732948b869802e82c38df778031",
  "number": 97758,
  "timestamp": 1439761198,
  "nonce": "0xc89ce88dbc2cd356",
  "difficulty": 3846567894911,
  "gasLimit": {
    "_hex": "0x2fefd8"
  },
  "gasUsed": {
    "_hex": "0x5b88"
  },
  "miner": "0xe6A7a1d47ff21B6321162AEA7C6CB457D5476Bca",
  "extraData": "0x476574682f76312e302e312d38326566323666362f6c696e75782f676f312e34",
  "transactions": [
    {
      "hash": "0x5b032c905524b9b13a820c89ff6f15a188ac18ed36e244c4ceccc3dc76c14168",
      "blockHash": "0x12e510a629b376e5b622a01c47cf9812cc1aa84f3266311bf0df44adad6b8e93",
      "blockNumber": 97758,
      "transactionIndex": 0,
      "confirmations": null,
      "from": "0x387D649ec193BBbADad77eAF0A42e0eA8c87448c",
      "gasPrice": {
        "_hex": "0x9184e72a000"
      },
      "gasLimit": {
        "_hex": "0x6484"
      },
      "to": "0x0000000000000000000000000000000000000000",
      "value": {
        "_hex": "0x0"
      },
      "nonce": 0,
      "data": "0x00000000000000000000000000000000000000000000000000000000000000000000000000000000000000000000000000000000000000000000000000002710000000000000000000000000000000000000000000000000000000000000000a72656769737465720000000000000000000000000000000000000000000000004d79457468657265756d41646472657373000000000000000000000000000000",
      "r": "0x6b15779ef76223dbdac9fc9be09fd9616e12d4540365099755580d4b8f76c7f6",
      "s": "0xfe5b8a90ff2421f3a4226cc05ba3cd5f8c4d364e5c4a27304931aad8a6a4d4b6",
      "v": 28,
      "creates": null,
      "raw": "0xf90106808609184e72a00082648494000000000000000000000000000000000000000080b8a000000000000000000000000000000000000000000000000000000000000000000000000000000000000000000000000000000000000000000000000000002710000000000000000000000000000000000000000000000000000000000000000a72656769737465720000000000000000000000000000000000000000000000004d79457468657265756d416464726573730000000000000000000000000000001ca06b15779ef76223dbdac9fc9be09fd9616e12d4540365099755580d4b8f76c7f6a0fe5b8a90ff2421f3a4226cc05ba3cd5f8c4d364e5c4a27304931aad8a6a4d4b6",
      "networkId": 0,
      "chainId": 0
    }
  ]
}