{
  "hash": "0x80f2145ce4cda88059cc432b549a9ffa16f31b39d6b6e16ee1b20ceb10859a4c",
  "parentHash": "0x8488faac36d34403fde7eba776f04a9fce35895d4f2c544e44beb6ae07725426",
  "number": 114464,
  "timestamp": 1440040688,
  "nonce": "0x212dedff8774aada",
  "difficulty": 4514521368583,
  "gasLimit": {
    "_hex": "0x2fefd8"
  },
  "gasUsed": {
    "_hex": "0x5208"
  },
  "miner": "0xf927a40C8B7F6E07c5af7FA2155B4864a4112B13",
  "extraData": "0x476574682f76312e302e302f6c696e75782f676f312e342e32",
  "transactions": [
    {
      "hash": "0x8af64826237a3a8457ad4ff6a7b626c2f82250081687d06c8b3a0c8f78b744ea",
      "blockHash": "0x80f2145ce4cda88059cc432b549a9ffa16f31b39d6b6e16ee1b20ceb10859a4c",
      "blockNumber": 114464,
      "transactionIndex": 0,
      "confirmations": null,
      "from": "0x120A270bbC009644e35F0bB6ab13f95b8199c4ad",
      "gasPrice": {
        "_hex": "0xdf46aff98"
      },
      "gasLimit": {
        "_hex": "0x3d090"
      },
      "to": "0x412eB54ad792c5a980Bd8359838b24c450A26714",
      "value": {
        "_hex": "0x1bc16d674ec80000"
      },
      "nonce": 930,
      "data": "0x",
      "r": "0x03dea572d304ad24a2dbaba53ccbbb9d2713e730f7ad1456d2396dde330516da",
      "s": "0x6c49832d5f026dffd5ee628f5a1c53d3350ef678f32e5d3209531765cfdd2b4d",
      "v": 28,
      "creates": null,
      "raw": "0xf86f8203a2850df46aff988303d09094412eb54ad792c5a980bd8359838b24c450a26714881bc16d674ec80000801ca003dea572d304ad24a2dbaba53ccbbb9d2713e730f7ad1456d2396dde330516daa06c49832d5f026dffd5ee628f5a1c53d3350ef678f32e5d3209531765cfdd2b4d",
      "networkId": 0,
      "chainId": 0
    }
  ]
}