{
  "hash": "0x4e771e26d1a6e2b03a12701f5dacc1abeb788263491d697deeb8e067b50a58d8",
  "parentHash": "0x0340c2d0d161e8a92e68198b84260c3277a93ebe604d10a9313d56c036e59167",
  "number": 54182,
  "timestamp": 1439050003,
  "nonce": "0x442bf089550849fb",
  "difficulty": 1605555238894,
  "gasLimit": {
    "_hex": "0x2fefd8"
  },
  "gasUsed": {
    "_hex": "0xa410"
  },
  "miner": "0xf927a40C8B7F6E07c5af7FA2155B4864a4112B13",
  "extraData": "0x476574682f76312e302e312f6c696e75782f676f312e342e32",
  "transactions": [
    {
      "hash": "0xd72e67908a8ef482813d8442b455a4f656450f2e282a3c983c90591bc17fad38",
      "blockHash": "0x4e771e26d1a6e2b03a12701f5dacc1abeb788263491d697deeb8e067b50a58d8",
      "blockNumber": 54182,
      "transactionIndex": 0,
      "confirmations": null,
      "from": "0x811ef7e711aaa8957Fb864d9211F9F826c927BB2",
      "gasPrice": {
        "_hex": "0x109f2e534c8"
      },
      "gasLimit": {
        "_hex": "0x186a0"
      },
      "to": "0x2a9C57Fe7B6B138A920D676F3c76b6C2A0EEf699",
      "value": {
        "_hex": "0x58d15e176280000"
      },
      "nonce": 1,
      "data": "0x",
      "r": "0x30717cb75e06765eb72cb9e364a79b8e7506f81dff47379ea11fd6b387091699",
      "s": "0x3d103981b47613c932f9f1be16043e784fed868a54f7b96369c8cdb6170b19c3",
      "v": 28,
      "creates": null,
      "raw": "0xf86e01860109f2e534c8830186a0942a9c57fe7b6b138a920d676f3c76b6c2a0eef69988058d15e176280000801ca030717cb75e06765eb72cb9e364a79b8e7506f81dff47379ea11fd6b387091699a03d103981b47613c932f9f1be16043e784fed868a54f7b96369c8cdb6170b19c3",
      "networkId": 0,
      "chainId": 0
    },
    {
      "hash": "0xb9fefcbf6830596862147b2b7bb8ae5644c670452de8eaf9c6fc6f68d8e5ff42",
      "blockHash": "0x4e771e26d1a6e2b03a12701f5dacc1abeb788263491d697deeb8e067b50a58d8",
      "blockNumber": 54182,
      "transactionIndex": 1,
      "confirmations": null,
      "from": "0x64CF897D51472Dc7CfF0e6368EB15B9e2d5168E3",
      "gasPrice": {
        "_hex": "0x746a528800"
      },
      "gasLimit": {
        "_hex": "0x5b04"
      },
      "to": "0x9bc6B0dEB59eF75AeDe905EBa5a779514F43D409",
      "value": {
        "_hex": "0x359d21d40dad540000"
      },
      "nonce": 8,
      "data": "0x",
      "r": "0x9c35835fd6512e84b9cf20bf8e5ec21cad6ef07035a3cb28897e56987d0a04ee",
      "s": "0x0766b1bd1e44a44be5a9efa03058987558fd91269108efed9ee22779a440ad71",
      "v": 28,
      "creates": null,
      "raw": "0xf86d0885746a528800825b04949bc6b0deb59ef75aede905eba5a779514f43d40989359d21d40dad540000801ca09c35835fd6512e84b9cf20bf8e5ec21cad6ef07035a3cb28897e56987d0a04eea00766b1bd1e44a44be5a9efa03058987558fd91269108efed9ee22779a440ad71",
      "networkId": 0,
      "chainId": 0
    }
  ]
}