{
  "hash": "0xe5f02c98385de6c32ab58cd660a1b154edf4fbee62fc811ef82d9f376d941528",
  "parentHash": "0x2bb5f118fa5f95449ab099ca269f5021aaea4503c6fe3af5e13df77e4febef8d",
  "number": 119715,
  "timestamp": 1440147606,
  "nonce": "0x857142077b9601d5",
  "difficulty": 4392145065489,
  "gasLimit": {
    "_hex": "0x2fefd8"
  },
  "gasUsed": {
    "_hex": "0xf618"
  },
  "miner": "0x52bc44d5378309EE2abF1539BF71dE1b7d7bE3b5",
  "extraData": "0xd783010002844765746887676f312e342e32856c696e7578",
  "transactions": [
    {
      "hash": "0x87ba3deb22c565e419fcbda29e6042f54604350daf4ce285edce3f7248c913e1",
      "blockHash": "0xe5f02c98385de6c32ab58cd660a1b154edf4fbee62fc811ef82d9f376d941528",
      "blockNumber": 119715,
      "transactionIndex": 0,
      "confirmations": null,
      "from": "0x608f4b86321a68453f9adf6F06F7Fc3E621739ad",
      "gasPrice": {
        "_hex": "0xba43b7400"
      },
      "gasLimit": {
        "_hex": "0x5208"
      },
      "to": "0x32Be343B94f860124dC4fEe278FDCBD38C102D88",
      "value": {
        "_hex": "0x455fd68a17f06000"
      },
      "nonce": 41,
      "data": "0x",
      "r": "0x86addafba91edd9a7bdda0a7d54c0995ecd1fba7a7508237cc795cde6583b675",
      "s": "0x2452cd8433cbaad5e3ba2d57bfab9f4c4cf0d97935e28262fb9b8dcbb49bf115",
      "v": 28,
      "creates": null,
      "raw": "0xf86c29850ba43b74008252089432be343b94f860124dc4fee278fdcbd38c102d8888455fd68a17f06000801ca086addafba91edd9a7bdda0a7d54c0995ecd1fba7a7508237cc795cde6583b675a02452cd8433cbaad5e3ba2d57bfab9f4c4cf0d97935e28262fb9b8dcbb49bf115",
      "networkId": 0,
      "chainId": 0
    },
    {
      "hash": "0xfae6d4481ae7e88923a817149076b26186cdecef8ed21711bfddb4463b6b922d",
      "blockHash": "0xe5f02c98385de6c32ab58cd660a1b154edf4fbee62fc811ef82d9f376d941528",
      "blockNumber": 119715,
      "transactionIndex": 1,
      "confirmations": null,
      "from": "0x2533B90f7afF15196EaA7e4719E057c85dEF3A47",
      "gasPrice": {
        "_hex": "0xba43b7400"
      },
      "gasLimit": {
        "_hex": "0x5208"
      },
      "to": "0x32Be343B94f860124dC4fEe278FDCBD38C102D88",
      "value": {
        "_hex": "0x20c2643eaa17d6000"
      },
      "nonce": 8,
      "data": "0x",
      "r": "0x96e2b853322c5576fb1a6138bea175700cf26cf6014cc0236951edb6e13068a0",
      "s": "0x56cf9bb720c288e465eb47f72e600499fcf35a251271d540334bedb711269f6c",
      "v": 27,
      "creates": null,
      "raw": "0xf86d08850ba43b74008252089432be343b94f860124dc4fee278fdcbd38c102d8889020c2643eaa17d6000801ba096e2b853322c5576fb1a6138bea175700cf26cf6014cc0236951edb6e13068a0a056cf9bb720c288e465eb47f72e600499fcf35a251271d540334bedb711269f6c",
      "networkId": 0,
      "chainId": 0
    },
    {
      "hash": "0x9382170765b57d7126d20e18b970f06ffb8bca3f65fb51b98060f0ccc231578a",
      "blockHash": "0xe5f02c98385de6c32ab58cd660a1b154edf4fbee62fc811ef82d9f376d941528",
      "blockNumber": 119715,
      "transactionIndex": 2,
      "confirmations": null,
      "from": "0x90fba3C13F19F8cf72A3Bb9EE63C8f728F548654",
      "gasPrice": {
        "_hex": "0xba43b7400"
      },
      "gasLimit": {
        "_hex": "0x5208"
      },
      "to": "0x32Be343B94f860124dC4fEe278FDCBD38C102D88",
      "value": {
        "_hex": "0x4eac27fd57736000"
      },
      "nonce": 11,
      "data": "0x",
      "r": "0x68600aab3c27de8f8287731d304574c4589ba2169fbf8e36af167e3d72e7ea7e",
      "s": "0x59db3590da0a126bbc9b8670571f05407fea97b2883ce5dedd42781138d57823",
      "v": 28,
      "creates": null,
      "raw": "0xf86c0b850ba43b74008252089432be343b94f860124dc4fee278fdcbd38c102d88884eac27fd57736000801ca068600aab3c27de8f8287731d304574c4589ba2169fbf8e36af167e3d72e7ea7ea059db3590da0a126bbc9b8670571f05407fea97b2883ce5dedd42781138d57823",
      "networkId": 0,
      "chainId": 0
    }
  ]
}