{
  "hash": "0x25958bab5384a4c459d8558ddd86f7c460f21aca659fdbbd2134f21e0eb88d28",
  "parentHash": "0x2f6871c3c2d34e9e92a76abc2b3d7c08020c836ef97fa360149d717228b57137",
  "number": 110431,
  "timestamp": 1439973707,
  "nonce": "0xd920a1a9d4823023",
  "difficulty": 4375591275791,
  "gasLimit": {
    "_hex": "0x2fefd8"
  },
  "gasUsed": {
    "_hex": "0x1820d"
  },
  "miner": "0xe6A7a1d47ff21B6321162AEA7C6CB457D5476Bca",
  "extraData": "0x476574682f76312e302e312d38326566323666362f6c696e75782f676f312e34",
  "transactions": [
    {
      "hash": "0x2a7edb70e0f39b72e44c7053a26e498d794a4a029eaa81e913c7250e461543db",
      "blockHash": "0x25958bab5384a4c459d8558ddd86f7c460f21aca659fdbbd2134f21e0eb88d28",
      "blockNumber": 110431,
      "transactionIndex": 0,
      "confirmations": null,
      "from": "0x17652e50FecdADE86A73838a37A62Fa39f29B541",
      "gasPrice": {
        "_hex": "0xd7d40ace3"
      },
      "gasLimit": {
        "_hex": "0x7a120"
      },
      "to": "0x109C4f2CCc82C4d77Bde15F306707320294Aea3F",
      "value": {
        "_hex": "0xde0b6b3a7640000"
      },
      "nonce": 0,
      "data": "0x",
      "r": "0x26861f963336d22642b76d0e6e3441cb58ea602f3f2a7f2b858dd42e52abedcc",
      "s": "0x2bf4c9c94db9bb17e79f93da300b721210999671aeb3bc1d8179f11c5ee94d80",
      "v": 28,
      "creates": null,
      "raw": "0xf86d80850d7d40ace38307a12094109c4f2ccc82c4d77bde15f306707320294aea3f880de0b6b3a7640000801ca026861f963336d22642b76d0e6e3441cb58ea602f3f2a7f2b858dd42e52abedcca02bf4c9c94db9bb17e79f93da300b721210999671aeb3bc1d8179f11c5ee94d80",
      "networkId": 0,
      "chainId": 0
    },
    {
      "hash": "0x442a84f9749000ad5ae0a498ad0b7939bd6cb18c4aa2663180410fd1ecc13310",
      "blockHash": "0x25958bab5384a4c459d8558ddd86f7c460f21aca659fdbbd2134f21e0eb88d28",
      "blockNumber": 110431,
      "transactionIndex": 1,
      "confirmations": null,
      "from": "0xE921770D00ff942284b8f101b71C029ecE92DA53",
      "gasPrice": {
        "_hex": "0xd57c2be0d"
      },
      "gasLimit": {
        "_hex": "0x5208"
      },
      "to": "0x32Be343B94f860124dC4fEe278FDCBD38C102D88",
      "value": {
        "_hex": "0x5a2b64a2262c78000"
      },
      "nonce": 5,
      "data": "0x",
      "r": "0x24b7bb7a5527440531c1e63ede81e552d6279db52fe0c41c1a6e90f3d4686d87",
      "s": "0x6801d8fa36476ab317a829ef446b507c770550a2ed7452c6a9cedabb525569a1",
      "v": 27,
      "creates": null,
      "raw": "0xf86d05850d57c2be0d8252089432be343b94f860124dc4fee278fdcbd38c102d888905a2b64a2262c78000801ba024b7bb7a5527440531c1e63ede81e552d6279db52fe0c41c1a6e90f3d4686d87a06801d8fa36476ab317a829ef446b507c770550a2ed7452c6a9cedabb525569a1",
      "networkId": 0,
      "chainId": 0
    },
    {
      "hash": "0xa7effae578a0c4e756d87ef037db35abde4a79f9bf47fab0c763ce95f41ceaa2",
      "blockHash": "0x25958bab5384a4c459d8558ddd86f7c460f21aca659fdbbd2134f21e0eb88d28",
      "blockNumber": 110431,
      "transactionIndex": 2,
      "confirmations": null,
      "from": "0xa61ff394e3846F8bfbBF8801afb051730B04Ee75",
      "gasPrice": {
        "_hex": "0xd57c2be0d"
      },
      "gasLimit": {
        "_hex": "0x5208"
      },
      "to": "0x32Be343B94f860124dC4fEe278FDCBD38C102D88",
      "value": {
        "_hex": "0x34066699a9f5bc00"
      },
      "nonce": 19,
      "data": "0x",
      "r": "0x230b11c83abf3558f258891782a3c2ba253aec07653179b27260145c937cf6b5",
      "s": "0x7559025158581f69c7fdbbb8fb433733de03946a0b5369e6f983cc0cdd37a6b7",
      "v": 28,
      "creates": null,
      "raw": "0xf86c13850d57c2be0d8252089432be343b94f860124dc4fee278fdcbd38c102d888834066699a9f5bc00801ca0230b11c83abf3558f258891782a3c2ba253aec07653179b27260145c937cf6b5a07559025158581f69c7fdbbb8fb433733de03946a0b5369e6f983cc0cdd37a6b7",
      "networkId": 0,
      "chainId": 0
    }
  ]
}