{
  "hash": "0x0479a551533ac74a3535e958c8475f89b32f07f04f8c5fa37aba851a926ed300",
  "parentHash": "0xacf39613140a4520362c4e8009011c93bf23998942ea6b20376b580833a04742",
  "number": 112804,
  "timestamp": 1440013533,
  "nonce": "0xec2c24f03f85af10",
  "difficulty": 4428078788652,
  "gasLimit": {
    "_hex": "0x2fefd8"
  },
  "gasUsed": {
    "_hex": "0x5208"
  },
  "miner": "0x9746c7e1ef2bd21FF3997fa467593a89cb852BD0",
  "extraData": "0x476574682f76312e302e312f77696e646f77732f676f312e342e32",
  "transactions": [
    {
      "hash": "0xbc20f9b0ff609023c0da1025446aabb864ab166b1cd2a20680e2c511233dd395",
      "blockHash": "0x0479a551533ac74a3535e958c8475f89b32f07f04f8c5fa37aba851a926ed300",
      "blockNumber": 112804,
      "transactionIndex": 0,
      "confirmations": null,
      "from": "0x5c59E28366c83f1d262567c1c529185146e68b16",
      "gasPrice": {
        "_hex": "0xd985e1c84"
      },
      "gasLimit": {
        "_hex": "0x5208"
      },
      "to": "0x32Be343B94f860124dC4fEe278FDCBD38C102D88",
      "value": {
        "_hex": "0x1f7107d052c3370000"
      },
      "nonce": 9,
      "data": "0x",
      "r": "0x330dd6796ae3a6b96d7dd668cfd2b73995efedd56b480281e8684251052cbc87",
      "s": "0x6068f7a87e7347ca483fef9d18489a31ac8b726fca2f3e828ff65b8bb2f4933b",
      "v": 27,
      "creates": null,
      "raw": "0xf86d09850d985e1c848252089432be343b94f860124dc4fee278fdcbd38c102d88891f7107d052c3370000801ba0330dd6796ae3a6b96d7dd668cfd2b73995efedd56b480281e8684251052cbc87a06068f7a87e7347ca483fef9d18489a31ac8b726fca2f3e828ff65b8bb2f4933b",
      "networkId": 0,
      "chainId": 0
    }
  ]
}