{
  "hash": "0xc21359707c22f6282d1e71ea1de5f6bb3632fef306ada28603e1262939b614ac",
  "parentHash": "0xbf6b6c67e15b886d74eee6701fb1a329d11728eb63e9562c793dae2112c990cf",
  "number": 88288,
  "timestamp": 1439605840,
  "nonce": "0x69031852ad3c8735",
  "difficulty": 3198760264107,
  "gasLimit": {
    "_hex": "0x2fefd8"
  },
  "gasUsed": {
    "_hex": "0x5208"
  },
  "miner": "0x007f7f58D3eb5b7510A301eCC749FC1fCDDBE14D",
  "extraData": "0x476574682f76312e302e312f77696e646f77732f676f312e342e32",
  "transactions": [
    {
      "hash": "0x0cd548f50a70aaf5e5b0305c551f94fa75763f112b5eead07034be3c61ac1ae9",
      "blockHash": "0xc21359707c22f6282d1e71ea1de5f6bb3632fef306ada28603e1262939b614ac",
      "blockNumber": 88288,
      "transactionIndex": 0,
      "confirmations": null,
      "from": "0xb2169f1326FE9745321aD99563654089bAdf09eb",
      "gasPrice": {
        "_hex": "0xba43b7400"
      },
      "gasLimit": {
        "_hex": "0x5208"
      },
      "to": "0xC47Aaa860008be6f65B58c6C6E02a84e666EfE31",
      "value": {
        "_hex": "0x1e5a37c1e7dc7b8f0"
      },
      "nonce": 13,
      "data": "0x",
      "r": "0x3d9007555baff1846de454af88aeebc981407c51de408002ab4d9430456ff1f4",
      "s": "0x2d0bcfaacf5df70dfef5610536897b3e89f3f5df38a5c73cad58d5ed7dbd3c0d",
      "v": 28,
      "creates": null,
      "raw": "0xf86d0d850ba43b740082520894c47aaa860008be6f65b58c6c6e02a84e666efe318901e5a37c1e7dc7b8f0801ca03d9007555baff1846de454af88aeebc981407c51de408002ab4d9430456ff1f4a02d0bcfaacf5df70dfef5610536897b3e89f3f5df38a5c73cad58d5ed7dbd3c0d",
      "networkId": 0,
      "chainId": 0
    }
  ]
}