{
  "hash": "0x48c7e7714efa24fc0040735221a3ef1402ed04485acc3bcb5c8d7ac7c86f42f0",
  "parentHash": "0x36a19d9df10d031ef81104dee2c7fe01b0f3160f69e23fa5bb06622b5703e83e",
  "number": 107280,
  "timestamp": 1439919598,
  "nonce": "0x3c1ce44f6c8dc9df",
  "difficulty": 4426670660443,
  "gasLimit": {
    "_hex": "0x2fefd8"
  },
  "gasUsed": {
    "_hex": "0xa410"
  },
  "miner": "0xe6A7a1d47ff21B6321162AEA7C6CB457D5476Bca",
  "extraData": "0x476574682f76312e302e312d38326566323666362f6c696e75782f676f312e34",
  "transactions": [
    {
      "hash": "0xeaa35b4a25b13b656ff330f6ba95d8a772f9b18d39012062bcdce2dc39009847",
      "blockHash": "0x48c7e7714efa24fc0040735221a3ef1402ed04485acc3bcb5c8d7ac7c86f42f0",
      "blockNumber": 107280,
      "transactionIndex": 0,
      "confirmations": null,
      "from": "0x733260BCf90f1633412F32cFec14be130D7cC1aD",
      "gasPrice": {
        "_hex": "0xdd93e081f"
      },
      "gasLimit": {
        "_hex": "0x5208"
      },
      "to": "0x32Be343B94f860124dC4fEe278FDCBD38C102D88",
      "value": {
        "_hex": "0x5126187c96b0400000"
      },
      "nonce": 0,
      "data": "0x",
      "r": "0x88710b6084822eca5a0350dce05012cada6f5d52c07058fa26ce15a8da2d42fc",
      "s": "0x359a1b1e8e71c6a35141571849ca2526b2025c7cb601d78cc5f685a7976fd627",
      "v": 28,
      "creates": null,
      "raw": "0xf86d80850dd93e081f8252089432be343b94f860124dc4fee278fdcbd38c102d88895126187c96b0400000801ca088710b6084822eca5a0350dce05012cada6f5d52c07058fa26ce15a8da2d42fca0359a1b1e8e71c6a35141571849ca2526b2025c7cb601d78cc5f685a7976fd627",
      "networkId": 0,
      "chainId": 0
    },
    {
      "hash": "0xcfcf467810a6dc7c4db47012810ff1c873e5c6ad04d8ca47a7ede3e3eb298d02",
      "blockHash": "0x48c7e7714efa24fc0040735221a3ef1402ed04485acc3bcb5c8d7ac7c86f42f0",
      "blockNumber": 107280,
      "transactionIndex": 1,
      "confirmations": null,
      "from": "0xA204d546E9DB0cAAf38C03d028AC021035D10f16",
      "gasPrice": {
        "_hex": "0xdd93e081f"
      },
      "gasLimit": {
        "_hex": "0x5208"
      },
      "to": "0x32Be343B94f860124dC4fEe278FDCBD38C102D88",
      "value": {
        "_hex": "0x114891760083d40000"
      },
      "nonce": 0,
      "data": "0x",
      "r": "0xa1f385934821988642f0c0247a6586cf98f407af79d050bebd2b4de8549efe35",
      "s": "0x65f34df58c0cf800d43cfefde3ec44bef233a7a6587e8a8d36df0e016c47fd28",
      "v": 28,
      "creates": null,
      "raw": "0xf86d80850dd93e081f8252089432be343b94f860124dc4fee278fdcbd38c102d8889114891760083d40000801ca0a1f385934821988642f0c0247a6586cf98f407af79d050bebd2b4de8549efe35a065f34df58c0cf800d43cfefde3ec44bef233a7a6587e8a8d36df0e016c47fd28",
      "networkId": 0,
      "chainId": 0
    }
  ]
}