{
  "hash": "0x65bafd3e204b6c97ba7b86318880768ff632c63eda73f8f8502fb6ee8da11670",
  "parentHash": "0x5c919c13193336dd9492bc9ed92dbb8c75471d25d83e301c413cf367469e3a39",
  "number": 66847,
  "timestamp": 1439261354,
  "nonce": "0xc59fe4162d231d24",
  "difficulty": 1949865997294,
  "gasLimit": {
    "_hex": "0x2fefd8"
  },
  "gasUsed": {
    "_hex": "0x85c7"
  },
  "miner": "0x47ff6576639c2e94762eA5443978D7681C0E78DC",
  "extraData": "0x476574682f76312e302e312f6c696e75782f676f312e342e32",
  "transactions": [
    {
      "hash": "0xefb64fa5b3ee38e7695e0143914709fa7aa4708af36f1db64f21de72a9475c41",
      "blockHash": "0x65bafd3e204b6c97ba7b86318880768ff632c63eda73f8f8502fb6ee8da11670",
      "blockNumber": 66847,
      "transactionIndex": 0,
      "confirmations": null,
      "from": "0xFBb1b73C4f0BDa4f67dcA266ce6Ef42f520fBB98",
      "gasPrice": {
        "_hex": "0xdbe00dc44"
      },
      "gasLimit": {
        "_hex": "0x15f90"
      },
      "to": "0xCAc7000C7dBaa2E33Af15325AF5D435E011C7BdD",
      "value": {
        "_hex": "0x9935f581f050000"
      },
      "nonce": 20,
      "data": "0x3feb1bd84249545452455830300000000000000000000000000000000000000000000000000000000000000000000000cac7000c7dbaa2e33af15325af5d435e011c7bdd00000000000000000000000000000000000000000000000009935f581f050000",
      "r": "0x4ad27e942b0111aa66f6da86456f2a9025c7febec699be10632f56c09b56883d",
      "s": "0x7b22c127779439c11d0c22e5c9bf8c79f9533f764db55decea6805a49aaae42d",
      "v": 27,
      "creates": null,
      "raw": "0xf8d214850dbe00dc4483015f9094cac7000c7dbaa2e33af15325af5d435e011c7bdd8809935f581f050000b8643feb1bd84249545452455830300000000000000000000000000000000000000000000000000000000000000000000000cac7000c7dbaa2e33af15325af5d435e011c7bdd00000000000000000000000000000000000000000000000009935f581f0500001ba04ad27e942b0111aa66f6da86456f2a9025c7febec699be10632f56c09b56883da07b22c127779439c11d0c22e5c9bf8c79f9533f764db55decea6805a49aaae42d",
      "networkId": 0,
      "chainId": 0
    }
  ]
}