{
  "hash": "0x68a6ba371ed333f03b53b8a39d489b36e23d7f3d3d46f0dfbb7dc0db0a41b7fe",
  "parentHash": "0x01760ca8fa01b9c0de17aee25ed989ccf7f218f134d259680586944a0d9a62e1",
  "number": 100385,
  "timestamp": 1439805590,
  "nonce": "0x87a00e49ce1de3e5",
  "difficulty": 3813576070502,
  "gasLimit": {
    "_hex": "0x2fefd8"
  },
  "gasUsed": {
    "_hex": "0xf618"
  },
  "miner": "0x790b8a3cE86E707ED0eD32bF89B3269692a23CC1",
  "extraData": "0xd783010001844765746887676f312e342e32856c696e7578",
  "transactions": [
    {
      "hash": "0x4a3a3dbcb27cc6fc6e7ea19333d82995fc5d368933ac885067bebcac0c6d7768",
      "blockHash": "0x68a6ba371ed333f03b53b8a39d489b36e23d7f3d3d46f0dfbb7dc0db0a41b7fe",
      "blockNumber": 100385,
      "transactionIndex": 0,
      "confirmations": null,
      "from": "0xb4eb03c9bDD4944DE22085E8e1dB5Ebd36889Bd8",
      "gasPrice": {
        "_hex": "0xcb942f3c4"
      },
      "gasLimit": {
        "_hex": "0x5208"
      },
      "to": "0x32Be343B94f860124dC4fEe278FDCBD38C102D88",
      "value": {
        "_hex": "0x72f0143210f8c000"
      },
      "nonce": 6,
      "data": "0x",
      "r": "0x47132b5f4d460468acb7dea1e46aff29f9b4b1cf9b903be2b966afdd9a591dcb",
      "s": "0x4d82ff61005759247102ec3e820eff04f301d594051843d22e9b23dddc74de92",
      "v": 28,
      "creates": null,
      "raw": "0xf86c06850cb942f3c48252089432be343b94f860124dc4fee278fdcbd38c102d888872f0143210f8c000801ca047132b5f4d460468acb7dea1e46aff29f9b4b1cf9b903be2b966afdd9a591dcba04d82ff61005759247102ec3e820eff04f301d594051843d22e9b23dddc74de92",
      "networkId": 0,
      "chainId": 0
    },
    {
      "hash": "0x160c832317ca365fecf930d55d329f2e5df2d337720773ee5804646b250c5c6f",
      "blockHash": "0x68a6ba371ed333f03b53b8a39d489b36e23d7f3d3d46f0dfbb7dc0db0a41b7fe",
      "blockNumber": 100385,
      "transactionIndex": 1,
      "confirmations": null,
      "from": "0x1a88c57A263f87c39AB07f02045f7bBe559d93bc",
      "gasPrice": {
        "_hex": "0xcb2522bbd"
      },
      "gasLimit": {
        "_hex": "0x5208"
      },
      "to": "0xFBb1b73C4f0BDa4f67dcA266ce6Ef42f520fBB98",
      "value": {
        "_hex": "0x1485f2a4b7001818"
      },
      "nonce": 3,
      "data": "0x",
      "r": "0x298b44461922de775a14f1d9cd8878094b3af0e8690d94e4b7d45caaf7b630d0",
      "s": "0x5a9bf742f9562fbd7588cd1eb745995518219cf4619de21d6b10b771463565ca",
      "v": 28,
      "creates": null,
      "raw": "0xf86c03850cb2522bbd82520894fbb1b73c4f0bda4f67dca266ce6ef42f520fbb98881485f2a4b7001818801ca0298b44461922de775a14f1d9cd8878094b3af0e8690d94e4b7d45caaf7b630d0a05a9bf742f9562fbd7588cd1eb745995518219cf4619de21d6b10b771463565ca",
      "networkId": 0,
      "chainId": 0
    },
    {
      "hash": "0x4a4bfd22a0bf30a5571ffd330469d5aaef6ca37e198b61acf1f5221c644a1218",
      "blockHash": "0x68a6ba371ed333f03b53b8a39d489b36e23d7f3d3d46f0dfbb7dc0db0a41b7fe",
      "blockNumber": 100385,
      "transactionIndex": 2,
      "confirmations": null,
      "from": "0x7246bC1603B6d03A536a04d0580414dB1FCcfFE8",
      "gasPrice": {
        "_hex": "0xcb2522bbd"
      },
      "gasLimit": {
        "_hex": "0x5208"
      },
      "to": "0xFBb1b73C4f0BDa4f67dcA266ce6Ef42f520fBB98",
      "value": {
        "_hex": "0x3737bb65d97a1818"
      },
      "nonce": 2,
      "data": "0x",
      "r": "0x44c9bc377200239e125180801e5abf3e8427e69b265da1d1a6278ec5a749d438",
      "s": "0x0f3e1247b1e2b8aa794c98133b273fe75634d36f6233d41733d87bb29bad244f",
      "v": 28,
      "creates": null,
      "raw": "0xf86c02850cb2522bbd82520894fbb1b73c4f0bda4f67dca266ce6ef42f520fbb98883737bb65d97a1818801ca044c9bc377200239e125180801e5abf3e8427e69b265da1d1a6278ec5a749d438a00f3e1247b1e2b8aa794c98133b273fe75634d36f6233d41733d87bb29bad244f",
      "networkId": 0,
      "chainId": 0
    }
  ]
}