{
  "hash": "0x197709821b3c843b7a3090a9b1f82ff7e2bdcf9f39e7ee978feef873f2f9e0be",
  "parentHash": "0x5c1cb5ba5e7a57c901fd66ec8832e2858cf6a0e876e49c90f94d9f893ec3ecda",
  "number": 66215,
  "timestamp": 1439250773,
  "nonce": "0x1f4523332859036c",
  "difficulty": 1944308337759,
  "gasLimit": {
    "_hex": "0x2fefd8"
  },
  "gasUsed": {
    "_hex": "0x5208"
  },
  "miner": "0xa50ec0D39fa913E62f1Bae7074E6F36caA71855b",
  "extraData": "0x",
  "transactions": [
    {
      "hash": "0x668915a5d41ed35d4375d3d65db42ac7729871b0f50cf6848a59e98730f91635",
      "blockHash": "0x197709821b3c843b7a3090a9b1f82ff7e2bdcf9f39e7ee978feef873f2f9e0be",
      "blockNumber": 66215,
      "transactionIndex": 0,
      "confirmations": null,
      "from": "0x903B6c16aC1f01D4a2E42e6AE5950c91e4391ed2",
      "gasPrice": {
        "_hex": "0xd4c37fe7b"
      },
      "gasLimit": {
        "_hex": "0x5208"
      },
      "to": "0x32Be343B94f860124dC4fEe278FDCBD38C102D88",
      "value": {
        "_hex": "0x2d51d05fda37b60000"
      },
      "nonce": 1,
      "data": "0x",
      "r": "0xa56255d5e6e593a814927c0fb26c96cd5e39035a0ff315cfceaa80bff9314baa",
      "s": "0x296b6470a7cf49cd1911cdea75e261d9b9bb0605c5ba3a9f54f0383a4198624a",
      "v": 28,
      "creates": null,
      "raw": "0xf86d01850d4c37fe7b8252089432be343b94f860124dc4fee278fdcbd38c102d88892d51d05fda37b60000801ca0a56255d5e6e593a814927c0fb26c96cd5e39035a0ff315cfceaa80bff9314baaa0296b6470a7cf49cd1911cdea75e261d9b9bb0605c5ba3a9f54f0383a4198624a",
      "networkId": 0,
      "chainId": 0
    }
  ]
}