{
  "hash": "0x5d9a8758424f2ca296e5ba1ec6a090521f58cb9f712aadadd3a868a64bcf61bd",
  "parentHash": "0x665ccbfc221220d4606cf1645606064c83f741e7c5bf17f8f3c691aab99b9f30",
  "number": 96893,
  "timestamp": 1439747622,
  "nonce": "0x5ea05f34053fc385",
  "difficulty": 3734071720261,
  "gasLimit": {
    "_hex": "0x2fefd8"
  },
  "gasUsed": {
    "_hex": "0x5208"
  },
  "miner": "0xe6A7a1d47ff21B6321162AEA7C6CB457D5476Bca",
  "extraData": "0x476574682f76312e302e312d38326566323666362f6c696e75782f676f312e34",
  "transactions": [
    {
      "hash": "0x22377c836eee14eaafd97ee70864de0bc1a21b2fad05779188219733a305d1d2",
      "blockHash": "0x5d9a8758424f2ca296e5ba1ec6a090521f58cb9f712aadadd3a868a64bcf61bd",
      "blockNumber": 96893,
      "transactionIndex": 0,
      "confirmations": null,
      "from": "0x007f7f58D3eb5b7510A301eCC749FC1fCDDBE14D",
      "gasPrice": {
        "_hex": "0xe308e1d1f"
      },
      "gasLimit": {
        "_hex": "0x15f90"
      },
      "to": "0xb1abce2918E21ddb93AA452731a12672A3d9F75a",
      "value": {
        "_hex": "0x4563918244f40000"
      },
      "nonce": 88,
      "data": "0x",
      "r": "0x254d8300fa06852db879cf6e98c95eb801c7e7a8aafa42a636419e870c64c770",
      "s": "0x1b0b7e9d98699d6abba6920294ce2948d08cefeb63401fddb06adda9d502d00c",
      "v": 27,
      "creates": null,
      "raw": "0xf86d58850e308e1d1f83015f9094b1abce2918e21ddb93aa452731a12672a3d9f75a884563918244f40000801ba0254d8300fa06852db879cf6e98c95eb801c7e7a8aafa42a636419e870c64c770a01b0b7e9d98699d6abba6920294ce2948d08cefeb63401fddb06adda9d502d00c",
      "networkId": 0,
      "chainId": 0
    }
  ]
}