{
  "hash": "0x3b65a158cb49dd1d6b66289212e3b0e1b20cd9ddaeae764fe9d159c1929cedb2",
  "parentHash": "0xb4439ef1c3bbf27d36626af64a5546f815acca9e849eac8d1c3b2ce00a2745e7",
  "number": 119553,
  "timestamp": 1440144911,
  "nonce": "0xf8950a7dd96c6bf6",
  "difficulty": 4387942693361,
  "gasLimit": {
    "_hex": "0x2fefd8"
  },
  "gasUsed": {
    "_hex": "0x5208"
  },
  "miner": "0xe6A7a1d47ff21B6321162AEA7C6CB457D5476Bca",
  "extraData": "0xd783010002844765746887676f312e342e32856c696e7578",
  "transactions": [
    {
      "hash": "0xc55c11acf2b9603ea5faf5b948cb75c3dffc9e03946aed8dcc18cec4c5a2759d",
      "blockHash": "0x3b65a158cb49dd1d6b66289212e3b0e1b20cd9ddaeae764fe9d159c1929cedb2",
      "blockNumber": 119553,
      "transactionIndex": 0,
      "confirmations": null,
      "from": "0x0dd48f729D5084545452A08F5E5AB412d7c2888a",
      "gasPrice": {
        "_hex": "0xba43b7400"
      },
      "gasLimit": {
        "_hex": "0x15f90"
      },
      "to": "0x2533B90f7afF15196EaA7e4719E057c85dEF3A47",
      "value": {
        "_hex": "0x16345785d8a0000"
      },
      "nonce": 7,
      "data": "0x",
      "r": "0x67d0d1546695630b960b12f099301f7a4a2ddc46463de820a6491f65e33ff1f7",
      "s": "0x443f62aa20d60a5d5fd9e4872dfad4303625cbb985b7a91eb4b8f8dfac58c7cc",
      "v": 28,
      "creates": null,
      "raw": "0xf86d07850ba43b740083015f90942533b90f7aff15196eaa7e4719e057c85def3a4788016345785d8a0000801ca067d0d1546695630b960b12f099301f7a4a2ddc46463de820a6491f65e33ff1f7a0443f62aa20d60a5d5fd9e4872dfad4303625cbb985b7a91eb4b8f8dfac58c7cc",
      "networkId": 0,
      "chainId": 0
    }
  ]
}