{
  "hash": "0xb426fc5bfbc06a0c65146468cf94b0d5729c72d0d51882671c77d9d2d560a617",
  "parentHash": "0x9ba5bcb0660d2dba59dba679128b2b809ddcb8df50152bfe584ed302a04c8a68",
  "number": 94187,
  "timestamp": 1439704022,
  "nonce": "0x257983dd024d55fb",
  "difficulty": 3474866989727,
  "gasLimit": {
    "_hex": "0x2fefd8"
  },
  "gasUsed": {
    "_hex": "0x5208"
  },
  "miner": "0x007f7f58D3eb5b7510A301eCC749FC1fCDDBE14D",
  "extraData": "0x476574682f76312e302e312f77696e646f77732f676f312e342e32",
  "transactions": [
    {
      "hash": "0xf8f3fc49efdd8dd9610b5a8d1a5699dc8924d4947ba1f4d21a6e796a72f8a3e8",
      "blockHash": "0xb426fc5bfbc06a0c65146468cf94b0d5729c72d0d51882671c77d9d2d560a617",
      "blockNumber": 94187,
      "transactionIndex": 0,
      "confirmations": null,
      "from": "0xFdC4D4765a942f5Bf96931a9e8Cc7ab8b757Ff4c",
      "gasPrice": {
        "_hex": "0xcf6fccc44"
      },
      "gasLimit": {
        "_hex": "0x15f90"
      },
      "to": "0x24C0B9E42a508F3cB1A66c03dEf2Baf4c4555a89",
      "value": {
        "_hex": "0x126c46b4e49009da0000"
      },
      "nonce": 1,
      "data": "0x",
      "r": "0xd990e7299235d2e62bff1a058feff07c59668d0b78531a065860410d11bdd904",
      "s": "0x58178998ebea26a6ed80559db201cf8836ce047f7cc4789f1e4c47a1e7af43a5",
      "v": 27,
      "creates": null,
      "raw": "0xf86f01850cf6fccc4483015f909424c0b9e42a508f3cb1a66c03def2baf4c4555a898a126c46b4e49009da0000801ba0d990e7299235d2e62bff1a058feff07c59668d0b78531a065860410d11bdd904a058178998ebea26a6ed80559db201cf8836ce047f7cc4789f1e4c47a1e7af43a5",
      "networkId": 0,
      "chainId": 0
    }
  ]
}