{
  "hash": "0x4592cbd93a36193654c9093cf6009ee4d8531c4f136172ef811214b5c7d016e5",
  "parentHash": "0xac4357e25898152eb489d84a9f222f99c751cb602eac4d4af6ea16e76b34353b",
  "number": 116333,
  "timestamp": 1440072385,
  "nonce": "0x2c8622e41fb9882b",
  "difficulty": 4591313804301,
  "gasLimit": {
    "_hex": "0x2fefd8"
  },
  "gasUsed": {
    "_hex": "0xa410"
  },
  "miner": "0x790b8a3cE86E707ED0eD32bF89B3269692a23CC1",
  "extraData": "0xd783010001844765746887676f312e342e32856c696e7578",
  "transactions": [
    {
      "hash": "0xdead0ccaca8053c72951f1ff31a847839c3e8110bae52b0e981c4797a607ee7a",
      "blockHash": "0x4592cbd93a36193654c9093cf6009ee4d8531c4f136172ef811214b5c7d016e5",
      "blockNumber": 116333,
      "transactionIndex": 0,
      "confirmations": null,
      "from": "0x47fe9Ce29dA03E8466a067e4321fD32312e39607",
      "gasPrice": {
        "_hex": "0xd322df6d6"
      },
      "gasLimit": {
        "_hex": "0x15f90"
      },
      "to": "0x132ACC4ebA2B5039C65849368648bc19f32BEd97",
      "value": {
        "_hex": "0x119ff24570bf0000"
      },
      "nonce": 8,
      "data": "0x",
      "r": "0x09cde1182bc4f9069fab8b03517bb1321ced15a4389152f4b8d867ffbd4d75ee",
      "s": "0x565e688efaefce5fd607811a56cb8b86f5749b85d23d963ea74bfe8dc486466c",
      "v": 28,
      "creates": null,
      "raw": "0xf86d08850d322df6d683015f9094132acc4eba2b5039c65849368648bc19f32bed9788119ff24570bf0000801ca009cde1182bc4f9069fab8b03517bb1321ced15a4389152f4b8d867ffbd4d75eea0565e688efaefce5fd607811a56cb8b86f5749b85d23d963ea74bfe8dc486466c",
      "networkId": 0,
      "chainId": 0
    },
    {
      "hash": "0x445c4bb4f74a343e9374183f1cdeb9fe6753b0df557bc3b2acc8fe2e202d456b",
      "blockHash": "0x4592cbd93a36193654c9093cf6009ee4d8531c4f136172ef811214b5c7d016e5",
      "blockNumber": 116333,
      "transactionIndex": 1,
      "confirmations": null,
      "from": "0x2071130408d9aAf3D5D65953118c3FE37aCB8D04",
      "gasPrice": {
        "_hex": "0xba43b7400"
      },
      "gasLimit": {
        "_hex": "0x5208"
      },
      "to": "0xC47Aaa860008be6f65B58c6C6E02a84e666EfE31",
      "value": {
        "_hex": "0x8ac3680c5ce46000"
      },
      "nonce": 11,
      "data": "0x",
      "r": "0xaea3222b66af59a054d3fd8b79397e9c1c9fcc33876b2e053f38f62323bb9fde",
      "s": "0x1efe071016fa70e2da6171aa73f8955555e95e2e496aab2bde4a51ce0c65cf51",
      "v": 27,
      "creates": null,
      "raw": "0xf86c0b850ba43b740082520894c47aaa860008be6f65b58c6c6e02a84e666efe31888ac3680c5ce46000801ba0aea3222b66af59a054d3fd8b79397e9c1c9fcc33876b2e053f38f62323bb9fdea01efe071016fa70e2da6171aa73f8955555e95e2e496aab2bde4a51ce0c65cf51",
      "networkId": 0,
      "chainId": 0
    }
  ]
}