{
  "hash": "0x96e5f38cdbc2f7c8a148b796221b08b3a72d553de2fde57b22d805a03eef6950",
  "parentHash": "0x274207e5a3f1879dd916c23ffea3ee6d1482a95dc5f5a58cf538df338ea71381",
  "number": 92491,
  "timestamp": 1439672915,
  "nonce": "0x90ffdbf900f08208",
  "difficulty": 3523413475260,
  "gasLimit": {
    "_hex": "0x2fefd8"
  },
  "gasUsed": {
    "_hex": "0x5208"
  },
  "miner": "0xBD744E3F13D79B33F6c8E1d5E32F8E9BA2866c46",
  "extraData": "0x476574682f76312e302e312d39613032663533372f6c696e75782f676f312e34",
  "transactions": [
    {
      "hash": "0x0ed500675f02707e1121c620ad4fc96bf6b622aabb6ab5a0167d504b6a10eac8",
      "blockHash": "0x96e5f38cdbc2f7c8a148b796221b08b3a72d553de2fde57b22d805a03eef6950",
      "blockNumber": 92491,
      "transactionIndex": 0,
      "confirmations": null,
      "from": "0x9bB76204186AF2F63be79168601687FC9bAD661F",
      "gasPrice": {
        "_hex": "0xba43b7400"
      },
      "gasLimit": {
        "_hex": "0x5208"
      },
      "to": "0x3735216E89f1FCA4d0aD519bD3A60F0e23338980",
      "value": {
        "_hex": "0x1043525f8ffc2c6000"
      },
      "nonce": 0,
      "data": "0x",
      "r": "0xb67c252c4e2667be06360d4f58a661b14d62945521904b1fd6494028b2da4ae0",
      "s": "0x6f7a3268a7d743d12fae5e4a0685dc839ecc2993b79c5c87018c0f36173e79cf",
      "v": 27,
      "creates": null,
      "raw": "0xf86d80850ba43b7400825208943735216e89f1fca4d0ad519bd3a60f0e23338980891043525f8ffc2c6000801ba0b67c252c4e2667be06360d4f58a661b14d62945521904b1fd6494028b2da4ae0a06f7a3268a7d743d12fae5e4a0685dc839ecc2993b79c5c87018c0f36173e79cf",
      "networkId": 0,
      "chainId": 0
    }
  ]
}