{
  "hash": "0x748996d7c283663c50fedf510cad7fce4838786cb6d1d2e967f95be9a2fc9a3f",
  "parentHash": "0x1145cfe0785f5d32fc8b8e81d82a317fa16849e395fbaa018dc1c55c006524f6",
  "number": 64852,
  "timestamp": 1439227194,
  "nonce": "0xc89214e91b167c63",
  "difficulty": 1906080906916,
  "gasLimit": {
    "_hex": "0x2fefd8"
  },
  "gasUsed": {
    "_hex": "0xa410"
  },
  "miner": "0x39A1BB80a741bF5EC39FB9BE59408Fa0F418fFBf",
  "extraData": "0x476574682f76312e302e312f77696e646f77732f676f312e342e32",
  "transactions": [
    {
      "hash": "0x33dd181c0d10c290b79d93904d3fb3a831fd9f87aa09eb782f0a4a5b37f97b35",
      "blockHash": "0x748996d7c283663c50fedf510cad7fce4838786cb6d1d2e967f95be9a2fc9a3f",
      "blockNumber": 64852,
      "transactionIndex": 0,
      "confirmations": null,
      "from": "0xf0E93902C82C20C953Ba57D195E6C2987E6ba37F",
      "gasPrice": {
        "_hex": "0xda7a08c6e"
      },
      "gasLimit": {
        "_hex": "0x55f0"
      },
      "to": "0x71ecE22139b206307f6733B8B683Ff04e06d5ef2",
      "value": {
        "_hex": "0x8ac7230489e80000"
      },
      "nonce": 4,
      "data": "0x",
      "r": "0x8cf4f15aa9238ddb6db17a778fb05a49b960b5977bd79a88d3ee8e85efe4eaff",
      "s": "0x58338f3fb4cbf25a035411c3d9e54338e4f83f9b227d3a9784bf886087cd34db",
      "v": 28,
      "creates": null,
      "raw": "0xf86c04850da7a08c6e8255f09471ece22139b206307f6733b8b683ff04e06d5ef2888ac7230489e80000801ca08cf4f15aa9238ddb6db17a778fb05a49b960b5977bd79a88d3ee8e85efe4eaffa058338f3fb4cbf25a035411c3d9e54338e4f83f9b227d3a9784bf886087cd34db",
      "networkId": 0,
      "chainId": 0
    },
    {
      "hash": "0xe658e3b9e5ec17dc688f3319c9099853fdd1653cb2fb0dd93ecacddc87820dbe",
      "blockHash": "0x748996d7c283663c50fedf510cad7fce4838786cb6d1d2e967f95be9a2fc9a3f",
      "blockNumber": 64852,
      "transactionIndex": 1,
      "confirmations": null,
      "from": "0xf0E93902C82C20C953Ba57D195E6C2987E6ba37F",
      "gasPrice": {
        "_hex": "0xda7a08c6e"
      },
      "gasLimit": {
        "_hex": "0x55f0"
      },
      "to": "0x6906b8Bc62dEaF2c7E76665A17C64b528B6063A9",
      "value": {
        "_hex": "0x8ac7230489e80000"
      },
      "nonce": 5,
      "data": "0x",
      "r": "0x492e763e586e11dbfcb7156a78278f55bb1da0c336951334a012ab5ff12fb191",
      "s": "0x6859ac856d3b9ad31bfe5c9f497d57ca500dfcb3a91e2641580a8fe46250959c",
      "v": 27,
      "creates": null,
      "raw": "0xf86c05850da7a08c6e8255f0946906b8bc62deaf2c7e76665a17c64b528b6063a9888ac7230489e80000801ba0492e763e586e11dbfcb7156a78278f55bb1da0c336951334a012ab5ff12fb191a06859ac856d3b9ad31bfe5c9f497d57ca500dfcb3a91e2641580a8fe46250959c",
      "networkId": 0,
      "chainId": 0
    }
  ]
}