{
  "hash": "0x8521a562940a0620bdeb1615657936a11e35e42eef54b4aab74d553245843e6e",
  "parentHash": "0xa92fbb32c917ca94598830caafeb66c6b4fdf75fd44aa5706b58a42c6c8df5a7",
  "number": 111165,
  "timestamp": 1439985811,
  "nonce": "0xb8f920157dad08c7",
  "difficulty": 4400919671198,
  "gasLimit": {
    "_hex": "0x2fefd8"
  },
  "gasUsed": {
    "_hex": "0x5208"
  },
  "miner": "0x790b8a3cE86E707ED0eD32bF89B3269692a23CC1",
  "extraData": "0xd783010001844765746887676f312e342e32856c696e7578",
  "transactions": [
    {
      "hash": "0x5f4efb92d5ef652ad1b978b465cc9badf3d62a9ae6c1254049b0be114b5c6683",
      "blockHash": "0x8521a562940a0620bdeb1615657936a11e35e42eef54b4aab74d553245843e6e",
      "blockNumber": 111165,
      "transactionIndex": 0,
      "confirmations": null,
      "from": "0x32Be343B94f860124dC4fEe278FDCBD38C102D88",
      "gasPrice": {
        "_hex": "0xcfa966b45"
      },
      "gasLimit": {
        "_hex": "0x5208"
      },
      "to": "0x1C89060f987C518fa079EC2c0a5EbFa30f5d20F7",
      "value": {
        "_hex": "0x5ed3d4d273ab4800"
      },
      "nonce": 1300,
      "data": "0x",
      "r": "0x45f3708189a707daf9155c0a12a321efb3c8cb9caaf130913df6409f4132bc19",
      "s": "0x6e316a0d5ff81d5ecf85bffdfd186ef962f832578e832aba56d0cee6cf79e28c",
      "v": 28,
      "creates": null,
      "raw": "0xf86e820514850cfa966b45825208941c89060f987c518fa079ec2c0a5ebfa30f5d20f7885ed3d4d273ab4800801ca045f3708189a707daf9155c0a12a321efb3c8cb9caaf130913df6409f4132bc19a06e316a0d5ff81d5ecf85bffdfd186ef962f832578e832aba56d0cee6cf79e28c",
      "networkId": 0,
      "chainId": 0
    }
  ]
}