{
  "hash": "0x9be9beadb6dad98ab70ab1bb41173c48acbcec92cf97145eb90604942d6c9bb2",
  "parentHash": "0xd986e6b8aa6d6ef3b2bca7527338961e6ca417e0c5eeb7ca358ad4ad49f5097e",
  "number": 62406,
  "timestamp": 1439188256,
  "nonce": "0x70ca4142b12cebae",
  "difficulty": 1765073610608,
  "gasLimit": {
    "_hex": "0x2fefd8"
  },
  "gasUsed": {
    "_hex": "0xa410"
  },
  "miner": "0xE13f83e0288E460362D9E7421f0601fB88C4fd91",
  "extraData": "0x476574682f76312e302e312f6c696e75782f676f312e342e32",
  "transactions": [
    {
      "hash": "0xfcb980bb575c152b3f3bb7481a03d40e8e7cc31a96f43fdf247b8095afb90f1d",
      "blockHash": "0x9be9beadb6dad98ab70ab1bb41173c48acbcec92cf97145eb90604942d6c9bb2",
      "blockNumber": 62406,
      "transactionIndex": 0,
      "confirmations": null,
      "from": "0x7d176AF44796fE9dE0343720170ea8443AFD97Bf",
      "gasPrice": {
        "_hex": "0xda0a459e0"
      },
      "gasLimit": {
        "_hex": "0x15f90"
      },
      "to": "0x3890681569061d29Ca2E22c131F532270871ef65",
      "value": {
        "_hex": "0xde0b6b3a7640000"
      },
      "nonce": 0,
      "data": "0x",
      "r": "0xbc878969dd9b91cd980eec3db933c8a6879debeeb569472fb3191f4196c016bc",
      "s": "0x129ac2f955f49116b896b45a6116c4be4ea11e8a33d7e0e5ae401cc05a7352cf",
      "v": 27,
      "creates": null,
      "raw": "0xf86d80850da0a459e083015f90943890681569061d29ca2e22c131f532270871ef65880de0b6b3a7640000801ba0bc878969dd9b91cd980eec3db933c8a6879debeeb569472fb3191f4196c016bca0129ac2f955f49116b896b45a6116c4be4ea11e8a33d7e0e5ae401cc05a7352cf",
      "networkId": 0,
      "chainId": 0
    },
    {
      "hash": "0x7bd670928bb60b59cb170a17de6a6d3ba9858e51342f11cda9aed5f64692ad9c",
      "blockHash": "0x9be9beadb6dad98ab70ab1bb41173c48acbcec92cf97145eb90604942d6c9bb2",
      "blockNumber": 62406,
      "transactionIndex": 1,
      "confirmations": null,
      "from": "0xe135e870a1ee4cfA8Fe5161492f1ee08cC1Ea67E",
      "gasPrice": {
        "_hex": "0xd23ee12e2"
      },
      "gasLimit": {
        "_hex": "0x15f90"
      },
      "to": "0xC25f24A505b8fEF751D8f4FCc397651001F7a160",
      "value": {
        "_hex": "0x45400a8fd5330000"
      },
      "nonce": 0,
      "data": "0x",
      "r": "0x816d3346a5c468cc2225727a14b1183ccad0e58a55ec57633bff79d1710fc2cf",
      "s": "0x6bb3648110f14470564c502f0107d06b4e7b39e5074bb88d81400eb92ed10f96",
      "v": 28,
      "creates": null,
      "raw": "0xf86d80850d23ee12e283015f9094c25f24a505b8fef751d8f4fcc397651001f7a1608845400a8fd5330000801ca0816d3346a5c468cc2225727a14b1183ccad0e58a55ec57633bff79d1710fc2cfa06bb3648110f14470564c502f0107d06b4e7b39e5074bb88d81400eb92ed10f96",
      "networkId": 0,
      "chainId": 0
    }
  ]
}