{
  "hash": "0x9491e66e323e1eee64fde0b1ec64937013b9f93b105ab1cf67b3c0f38bdc7ac2",
  "parentHash": "0xf8b9309bb0c3c48a19d325110690a76aca69046e9bc613ae90014f787d349c07",
  "number": 64856,
  "timestamp": 1439227292,
  "nonce": "0x55cb77bd4a8c4edf",
  "difficulty": 1906079998026,
  "gasLimit": {
    "_hex": "0x2fefd8"
  },
  "gasUsed": {
    "_hex": "0x5498"
  },
  "miner": "0x88D74a59454F6cF3B51ef6b9136AFb6b9D405A88",
  "extraData": "0x476574682f76312e302e312d38326566323666362f6c696e75782f676f312e34",
  "transactions": [
    {
      "hash": "0xcfdefbcc15b9f35b245cb4a5024c184bafa6ec715366402a3633636874bd192d",
      "blockHash": "0x9491e66e323e1eee64fde0b1ec64937013b9f93b105ab1cf67b3c0f38bdc7ac2",
      "blockNumber": 64856,
      "transactionIndex": 0,
      "confirmations": null,
      "from": "0x77b887762b497d2f8Cf6fE95d502D7081A867f0F",
      "gasPrice": {
        "_hex": "0xcfd535421"
      },
      "gasLimit": {
        "_hex": "0x15f90"
      },
      "to": "0x0000000000000000000000000000000000000000",
      "value": {
        "_hex": "0x0"
      },
      "nonce": 2,
      "data": "0x432ced04616c657800000000000000000000000000000000000000000000000000000000",
      "r": "0xf670ce8fb0f95de025d3b8fed600ea679c875ada2fc0571c7b0c62446ea6bb25",
      "s": "0x5c6279e6116472a7c40ff55fdebfb16a22fdb26dc4feaa90fb0995c66eb9fdf1",
      "v": 27,
      "creates": null,
      "raw": "0xf88902850cfd53542183015f9094000000000000000000000000000000000000000080a4432ced04616c6578000000000000000000000000000000000000000000000000000000001ba0f670ce8fb0f95de025d3b8fed600ea679c875ada2fc0571c7b0c62446ea6bb25a05c6279e6116472a7c40ff55fdebfb16a22fdb26dc4feaa90fb0995c66eb9fdf1",
      "networkId": 0,
      "chainId": 0
    }
  ]
}