{
  "hash": "0x03b60b5909bdc7c23beff4a8682c0a3682455c6d98e48ff67048d0f8d0c541a3",
  "parentHash": "0x1986c1c2111e8288f1a70916c65745d765930f0a2151ba55e437066dd00b978f",
  "number": 84859,
  "timestamp": 1439555436,
  "nonce": "0x96a58504d024c32c",
  "difficulty": 2654245284759,
  "gasLimit": {
    "_hex": "0x2fefd8"
  },
  "gasUsed": {
    "_hex": "0xa410"
  },
  "miner": "0x019D3FA6E3cdA649b26F74395A846575c7bEA14C",
  "extraData": "0x",
  "transactions": [
    {
      "hash": "0x872a3341dbae4569cf6ad75b772962bc73f723a74aa43485a6a09849642a19d6",
      "blockHash": "0x03b60b5909bdc7c23beff4a8682c0a3682455c6d98e48ff67048d0f8d0c541a3",
      "blockNumber": 84859,
      "transactionIndex": 0,
      "confirmations": null,
      "from": "0x2910543Af39abA0Cd09dBb2D50200b3E800A63D2",
      "gasPrice": {
        "_hex": "0xd788bc537"
      },
      "gasLimit": {
        "_hex": "0x5208"
      },
      "to": "0x11Ff1aa994C8e7D164E7Ee99Ce376549Db7a1A1D",
      "value": {
        "_hex": "0xdcef33a6f838000"
      },
      "nonce": 578,
      "data": "0x",
      "r": "0x95bbcbf540de1bc63dec487e76c75cc392f0eab04dd8343a36a9a50b5b91f50a",
      "s": "0x11e46185dd71b175b1f10bf1994a40fafaa686c937f0ca3ca2b7f9be5718062d",
      "v": 28,
      "creates": null,
      "raw": "0xf86e820242850d788bc5378252089411ff1aa994c8e7d164e7ee99ce376549db7a1a1d880dcef33a6f838000801ca095bbcbf540de1bc63dec487e76c75cc392f0eab04dd8343a36a9a50b5b91f50aa011e46185dd71b175b1f10bf1994a40fafaa686c937f0ca3ca2b7f9be5718062d",
      "networkId": 0,
      "chainId": 0
    },
    {
      "hash": "0xc69a753335d92194163ea94a837aef5ac18f4e9e0284bf46990042d5527d2f17",
      "blockHash": "0x03b60b5909bdc7c23beff4a8682c0a3682455c6d98e48ff67048d0f8d0c541a3",
      "blockNumber": 84859,
      "transactionIndex": 1,
      "confirmations": null,
      "from": "0x2910543Af39abA0Cd09dBb2D50200b3E800A63D2",
      "gasPrice": {
        "_hex": "0xd788bc537"
      },
      "gasLimit": {
        "_hex": "0x5208"
      },
      "to": "0x3AF05A4d613476D483A68D0B1a6Fdf4eb61644e2",
      "value": {
        "_hex": "0x15ae0141220e38000"
      },
      "nonce": 579,
      "data": "0x",
      "r": "0x9df3f186593487f9506fd1691f4ea0d65c5212991538e4af5da08b62958886c9",
      "s": "0x2ad5b396ffd71b5c0fac11314406405fee5b6a28ee631fb7e99edd776772ff60",
      "v": 28,
      "creates": null,
      "raw": "0xf86f820243850d788bc537825208943af05a4d613476d483a68d0b1a6fdf4eb61644e289015ae0141220e38000801ca09df3f186593487f9506fd1691f4ea0d65c5212991538e4af5da08b62958886c9a02ad5b396ffd71b5c0fac11314406405fee5b6a28ee631fb7e99edd776772ff60",
      "networkId": 0,
      "chainId": 0
    }
  ]
}