{
  "hash": "0x5b92f7a28381f27a752aedb8b82287ed71e47494f26d7a986356795bd04b5a6f",
  "parentHash": "0xbb4b020b228365bab601d163a5a7b29709de2686a08646f9dfbbc02bfd50c061",
  "number": 73184,
  "timestamp": 1439364544,
  "nonce": "0x7576bbc4ec1302cb",
  "difficulty": 2217542859805,
  "gasLimit": {
    "_hex": "0x2fefd8"
  },
  "gasUsed": {
    "_hex": "0x7a6a"
  },
  "miner": "0x39A1BB80a741bF5EC39FB9BE59408Fa0F418fFBf",
  "extraData": "0x476574682f76312e302e312f77696e646f77732f676f312e342e32",
  "transactions": [
    {
      "hash": "0x840ff031babbfe7b604d2092209585775b5c19e8408c5d42caf7a0e6eeef91bc",
      "blockHash": "0x5b92f7a28381f27a752aedb8b82287ed71e47494f26d7a986356795bd04b5a6f",
      "blockNumber": 73184,
      "transactionIndex": 0,
      "confirmations": null,
      "from": "0xD1826373C4E0938f0b4302B40324f7f9c546492C",
      "gasPrice": {
        "_hex": "0xda6626ed5"
      },
      "gasLimit": {
        "_hex": "0x30d40"
      },
      "to": "0x3e4Bd3AEA13f59b9502073b7a03Cfb52ECecc997",
      "value": {
        "_hex": "0x71afd498d0000"
      },
      "nonce": 1,
      "data": "0x",
      "r": "0x0e7cc14772cf5fa86a976b020ba0c2b7c46610ce6a111579b53e908723cc3abe",
      "s": "0x5fc69a7d3ff0d95bfee0bf5d46feff7c7afa06816d59652d5c20700540ff779a",
      "v": 28,
      "creates": null,
      "raw": "0xf86c01850da6626ed583030d40943e4bd3aea13f59b9502073b7a03cfb52ececc99787071afd498d0000801ca00e7cc14772cf5fa86a976b020ba0c2b7c46610ce6a111579b53e908723cc3abea05fc69a7d3ff0d95bfee0bf5d46feff7c7afa06816d59652d5c20700540ff779a",
      "networkId": 0,
      "chainId": 0
    }
  ]
}