{
  "hash": "0x1f5b2ed2f15d8e4fc20cf5b3425bdcfb6dcca94a86f6ad24d45814ed74ab312e",
  "parentHash": "0x0e62df58f10c273fdf64ecbed5c211197e7bd2e21e5442d7357dc275ed5f2102",
  "number": 89237,
  "timestamp": 1439620235,
  "nonce": "0xdfc61b196c077eaf",
  "difficulty": 3301538168042,
  "gasLimit": {
    "_hex": "0x2fefd8"
  },
  "gasUsed": {
    "_hex": "0x5208"
  },
  "miner": "0x21344BC13b25b709ec441c39C070d1eca5824cA3",
  "extraData": "0x476574682f76312e302e312f77696e646f77732f676f312e342e32",
  "transactions": [
    {
      "hash": "0xae520d54e2c1c68f9cec18466cd3c652482ea40c74bd8f5d2fce4bf8c1fc568a",
      "blockHash": "0x1f5b2ed2f15d8e4fc20cf5b3425bdcfb6dcca94a86f6ad24d45814ed74ab312e",
      "blockNumber": 89237,
      "transactionIndex": 0,
      "confirmations": null,
      "from": "0xd1ce10d2AdBa8b18135eF72Aa5296c9503a3501c",
      "gasPrice": {
        "_hex": "0xd3d37f23a"
      },
      "gasLimit": {
        "_hex": "0x15f90"
      },
      "to": "0xf2cC0eEAAAeD313542CB262B0B8c3972425143f0",
      "value": {
        "_hex": "0x115473824344e0000"
      },
      "nonce": 1,
      "data": "0x",
      "r": "0x78a44303d1c1a6f6a410bafdb5e72846a2e54407279015d0b84c6c2fd63aca17",
      "s": "0x680e9f8f60e6d6f0256a07ef988b636cd05cad550b7d24aaf7a6ad8d48649a4a",
      "v": 28,
      "creates": null,
      "raw": "0xf86e01850d3d37f23a83015f9094f2cc0eeaaaed313542cb262b0b8c3972425143f0890115473824344e0000801ca078a44303d1c1a6f6a410bafdb5e72846a2e54407279015d0b84c6c2fd63aca17a0680e9f8f60e6d6f0256a07ef988b636cd05cad550b7d24aaf7a6ad8d48649a4a",
      "networkId": 0,
      "chainId": 0
    }
  ]
}