{
  "hash": "0xcd650d85631df2afe3c33cfec572507f8d8ad09ba86de6d58e5c8f6df51b5526",
  "parentHash": "0xe6d6461bca5fa7e2ebc2c32507d7d9e8d535c50f7a5047d7aae030f6e1a0a3a2",
  "number": 71974,
  "timestamp": 1439344942,
  "nonce": "0xed23ec6bbca71163",
  "difficulty": 2168602751793,
  "gasLimit": {
    "_hex": "0x2fefd8"
  },
  "gasUsed": {
    "_hex": "0x5208"
  },
  "miner": "0x580992B51e3925e23280EfB93d3047C82f17E038",
  "extraData": "0x476574682f76312e302e312f6c696e75782f676f312e342e32",
  "transactions": [
    {
      "hash": "0xcb6c3fc2df127714c1338bb3e804de2d67e71c72c16160f60b1aca59e87fac5e",
      "blockHash": "0xcd650d85631df2afe3c33cfec572507f8d8ad09ba86de6d58e5c8f6df51b5526",
      "blockNumber": 71974,
      "transactionIndex": 0,
      "confirmations": null,
      "from": "0xE12517204a15E890f12755207271102F4800A0c4",
      "gasPrice": {
        "_hex": "0xd929d6e4f"
      },
      "gasLimit": {
        "_hex": "0x5208"
      },
      "to": "0x32Be343B94f860124dC4fEe278FDCBD38C102D88",
      "value": {
        "_hex": "0x16302bf19943dc000"
      },
      "nonce": 4,
      "data": "0x",
      "r": "0xaa05a87ee61371cea4d5bec963a8beb8b8e71e06765d84e35f958f5597d83351",
      "s": "0x78e2b2cb36220faaf7ae3add78357b3863ce6d478731d51542ae292e79738813",
      "v": 27,
      "creates": null,
      "raw": "0xf86d04850d929d6e4f8252089432be343b94f860124dc4fee278fdcbd38c102d8889016302bf19943dc000801ba0aa05a87ee61371cea4d5bec963a8beb8b8e71e06765d84e35f958f5597d83351a078e2b2cb36220faaf7ae3add78357b3863ce6d478731d51542ae292e79738813",
      "networkId": 0,
      "chainId": 0
    }
  ]
}