{
  "hash": "0xfdf389252d86a817f62bdfe0ed87b294ae6d347380c78d8233869fcc7a2d64a4",
  "parentHash": "0x3df9e61c0bbf9725af01d089a72908df2b6a957de69777fe87adb3ee349cb238",
  "number": 74316,
  "timestamp": 1439384212,
  "nonce": "0xe99ebb172f5322f3",
  "difficulty": 2212917305818,
  "gasLimit": {
    "_hex": "0x2fefd8"
  },
  "gasUsed": {
    "_hex": "0xa674"
  },
  "miner": "0xC603Ab5ef41fC61AA8b76bEddb09e3Cfcbb174BD",
  "extraData": "0x476574682f76312e302e312f77696e646f77732f676f312e342e32",
  "transactions": [
    {
      "hash": "0xcb1e836a4eb0f56ece490062a804880992e525eb2951e8d19ee6580ea8f3d78a",
      "blockHash": "0xfdf389252d86a817f62bdfe0ed87b294ae6d347380c78d8233869fcc7a2d64a4",
      "blockNumber": 74316,
      "transactionIndex": 0,
      "confirmations": null,
      "from": "0xd0DF24FD0DfcDc3850D1590dAA1D03ca7706b11B",
      "gasPrice": {
        "_hex": "0x10a8eb57137"
      },
      "gasLimit": {
        "_hex": "0x55f0"
      },
      "to": "0x2910543Af39abA0Cd09dBb2D50200b3E800A63D2",
      "value": {
        "_hex": "0xa1544be879ea80000"
      },
      "nonce": 4,
      "data": "0x454e364832354d3230",
      "r": "0xaad9853d734dcfb3d0004e23db3575fab2640d4543ef839181f51fa1cc2eddf8",
      "s": "0x5d4f7e073ab45ddc00ba59f7148a1b38df1283c82e3ec8ce5dd7d28e1ccfc1ca",
      "v": 27,
      "creates": null,
      "raw": "0xf8770486010a8eb571378255f0942910543af39aba0cd09dbb2d50200b3e800a63d2890a1544be879ea8000089454e364832354d32301ba0aad9853d734dcfb3d0004e23db3575fab2640d4543ef839181f51fa1cc2eddf8a05d4f7e073ab45ddc00ba59f7148a1b38df1283c82e3ec8ce5dd7d28e1ccfc1ca",
      "networkId": 0,
      "chainId": 0
    },
    {
      "hash": "0x7c49b05a65cee4da7263b33f19515ce75064efbd0a158f0812f0ac3a2c1ed871",
      "blockHash": "0xfdf389252d86a817f62bdfe0ed87b294ae6d347380c78d8233869fcc7a2d64a4",
      "blockNumber": 74316,
      "transactionIndex": 1,
      "confirmations": null,
      "from": "0xeB1325C8D9d3ea8D74aC11F4B00F1B2367686319",
      "gasPrice": {
        "_hex": "0xd3710221b"
      },
      "gasLimit": {
        "_hex": "0x15f90"
      },
      "to": "0x3010cacF5965f60685011055570972e92B4479aB",
      "value": {
        "_hex": "0x3782dace9d900000"
      },
      "nonce": 1,
      "data": "0x",
      "r": "0x929f9b84f55e4a872960b882c25ae4860e02b94575116e7b046642f76d9f8515",
      "s": "0x3a80d09d7c685f244463104560a26fddb307a49cd9f9c15c211a16d63ab54df2",
      "v": 27,
      "creates": null,
      "raw": "0xf86d01850d3710221b83015f90943010cacf5965f60685011055570972e92b4479ab883782dace9d900000801ba0929f9b84f55e4a872960b882c25ae4860e02b94575116e7b046642f76d9f8515a03a80d09d7c685f244463104560a26fddb307a49cd9f9c15c211a16d63ab54df2",
      "networkId": 0,
      "chainId": 0
    }
  ]
}