{
  "hash": "0xe6890f1a01dad10583f7330fc172d864d5f4a78056309ac01cc3c7faefdf9e8a",
  "parentHash": "0x3ff9b27c2e23fcf91fbdf04b30602b8f3abc4b811e8f2a1b1186fd07c9e6de88",
  "number": 63275,
  "timestamp": 1439201908,
  "nonce": "0x8a749b7e85dfacb2",
  "difficulty": 1814701217681,
  "gasLimit": {
    "_hex": "0x2fefd8"
  },
  "gasUsed": {
    "_hex": "0x5208"
  },
  "miner": "0xf8E0CA3Ed80bd541b94BEdCf259e8CF2141A9523",
  "extraData": "0x476574682f76312e302e312f77696e646f77732f676f312e342e32",
  "transactions": [
    {
      "hash": "0x2297d93901b6da2d1815cab56e7e637fcadf215a9431760d4f44db5c4c3e31b8",
      "blockHash": "0xe6890f1a01dad10583f7330fc172d864d5f4a78056309ac01cc3c7faefdf9e8a",
      "blockNumber": 63275,
      "transactionIndex": 0,
      "confirmations": null,
      "from": "0xd41CDe3742bE29F53EDb8A99B255F4c0C210935d",
      "gasPrice": {
        "_hex": "0xcdf6262f8"
      },
      "gasLimit": {
        "_hex": "0x5208"
      },
      "to": "0x32Be343B94f860124dC4fEe278FDCBD38C102D88",
      "value": {
        "_hex": "0x8ac2f86866bef000"
      },
      "nonce": 2,
      "data": "0x",
      "r": "0x2f45188cc4aff37fd61fa163b011663db12c78ee437c12afd90206354645bb03",
      "s": "0x56cce3bee022b1637e7250f3f8f4c8f891839cccc08eadd474819501b4fc6c4e",
      "v": 28,
      "creates": null,
      "raw": "0xf86c02850cdf6262f88252089432be343b94f860124dc4fee278fdcbd38c102d88888ac2f86866bef000801ca02f45188cc4aff37fd61fa163b011663db12c78ee437c12afd90206354645bb03a056cce3bee022b1637e7250f3f8f4c8f891839cccc08eadd474819501b4fc6c4e",
      "networkId": 0,
      "chainId": 0
    }
  ]
}