{
  "hash": "0x2bb8185d661af38911ecd6f6cf76d2f2bf37205a22ec9f48278ca2d2b084788c",
  "parentHash": "0x98e5bfde9d941f5cbd300ab7a613a16d03fdc5ee2cfa83da4cbee9376a74d0d5",
  "number": 107229,
  "timestamp": 1439918555,
  "nonce": "0xfaf9c0675be566a1",
  "difficulty": 4437518144554,
  "gasLimit": {
    "_hex": "0x2fefd8"
  },
  "gasUsed": {
    "_hex": "0x1bdbe"
  },
  "miner": "0x580992B51e3925e23280EfB93d3047C82f17E038",
  "extraData": "0x476574682f76312e302e312f6c696e75782f676f312e342e32",
  "transactions": [
    {
      "hash": "0xf9ac61ffa79330d842d1555a0188252e9fbb3f81e1ddc9004ceb00369486e53a",
      "blockHash": "0x2bb8185d661af38911ecd6f6cf76d2f2bf37205a22ec9f48278ca2d2b084788c",
      "blockNumber": 107229,
      "transactionIndex": 0,
      "confirmations": null,
      "from": "0x3e3Ada91f270f8b50A4fC1085F7f15eA3c37C962",
      "gasPrice": {
        "_hex": "0xd7c873199"
      },
      "gasLimit": {
        "_hex": "0x249f0"
      },
      "to": "0xE28e72FCf78647ADCe1F1252F240bbfaebD63BcC",
      "value": {
        "_hex": "0x4af0a763bb1c0000"
      },
      "nonce": 0,
      "data": "0x45466f3a",
      "r": "0x074b3986f90fc934efc0bc5e5d046cd9c33737f006646b9f656371d0185fbfbd",
      "s": "0x5d57a537e62b1dfb0f251ac7a4f678a2cb964d55f9aaf0c3d5f78779fcbab6c0",
      "v": 27,
      "creates": null,
      "raw": "0xf87180850d7c873199830249f094e28e72fcf78647adce1f1252f240bbfaebd63bcc884af0a763bb1c00008445466f3a1ba0074b3986f90fc934efc0bc5e5d046cd9c33737f006646b9f656371d0185fbfbda05d57a537e62b1dfb0f251ac7a4f678a2cb964d55f9aaf0c3d5f78779fcbab6c0",
      "networkId": 0,
      "chainId": 0
    }
  ]
}