{
  "hash": "0x7b043e48808443254af250fba27cfb39dc1821a5f62341a3816fd5ff80032975",
  "parentHash": "0xda028e19f12571a55fc6882b90bc7f72d5520c82f2df319ab3bb95489ca80959",
  "number": 81477,
  "timestamp": 1439502356,
  "nonce": "0x1a2d750ea66dd041",
  "difficulty": 2448581370442,
  "gasLimit": {
    "_hex": "0x2fefd8"
  },
  "gasUsed": {
    "_hex": "0x5208"
  },
  "miner": "0xe6A7a1d47ff21B6321162AEA7C6CB457D5476Bca",
  "extraData": "0x476574682f76312e302e312d38326566323666362f6c696e75782f676f312e34",
  "transactions": [
    {
      "hash": "0x6c9203afcfe96a4e27a145c1f0fedbcadf9dbe14027ab7ca6a176acbf3b1bc7b",
      "blockHash": "0x7b043e48808443254af250fba27cfb39dc1821a5f62341a3816fd5ff80032975",
      "blockNumber": 81477,
      "transactionIndex": 0,
      "confirmations": null,
      "from": "0x520A6622a4E770f751F4529e245231D259C12826",
      "gasPrice": {
        "_hex": "0x9184e72a000"
      },
      "gasLimit": {
        "_hex": "0x9965e"
      },
      "to": "0x0000000000000000000000000000000000000000",
      "value": {
        "_hex": "0xb1a2bc2ec50000"
      },
      "nonce": 1,
      "data": "0x",
      "r": "0x3ebae49c003f85e2070ce6838771f022bdcceefa18657134025b06ffaf492d89",
      "s": "0x2f154fd88d6204a62eb0d6debd4752c6ce82d5f1e50516ddb4d6e6fad9450a7c",
      "v": 28,
      "creates": null,
      "raw": "0xf86d018609184e72a0008309965e94000000000000000000000000000000000000000087b1a2bc2ec50000801ca03ebae49c003f85e2070ce6838771f022bdcceefa18657134025b06ffaf492d89a02f154fd88d6204a62eb0d6debd4752c6ce82d5f1e50516ddb4d6e6fad9450a7c",
      "networkId": 0,
      "chainId": 0
    }
  ]
}