{
  "hash": "0x270e1b8b8bbbbb1558203d3236efb55cac4b0c99d450a7cf82a54e4381a9a55f",
  "parentHash": "0x692267af77236f2824e5fd1c1e8aa4ea6985686aba8f1f7a2e1ebc8d7b5e8601",
  "number": 68830,
  "timestamp": 1439294364,
  "nonce": "0x2c9a943f021f0a2c",
  "difficulty": 2022117754352,
  "gasLimit": {
    "_hex": "0x2fefd8"
  },
  "gasUsed": {
    "_hex": "0x5208"
  },
  "miner": "0x785ffdDd5cE55c6DF963f345e68d3F2024E5Acb1",
  "extraData": "0x476574682f4d69676e6f7474652f76312e302e312f6c696e75782f676f312e34",
  "transactions": [
    {
      "hash": "0x905d54fae8d32b570e4f9dda709d27f080ae1a7afd98b91aa1c0dc669e5b2f4c",
      "blockHash": "0x270e1b8b8bbbbb1558203d3236efb55cac4b0c99d450a7cf82a54e4381a9a55f",
      "blockNumber": 68830,
      "transactionIndex": 0,
      "confirmations": null,
      "from": "0x2910543Af39abA0Cd09dBb2D50200b3E800A63D2",
      "gasPrice": {
        "_hex": "0xdd01d4224"
      },
      "gasLimit": {
        "_hex": "0x5208"
      },
      "to": "0xb4Ad43131139584E8f6F31D578E0dC4d11Df6D7b",
      "value": {
        "_hex": "0x2b5e3af16b1880000"
      },
      "nonce": 218,
      "data": "0x",
      "r": "0x7d3e9eb706888eee13e166bec1156d1c5a7d3b12d44859053cbe2a5bc5d3fea0",
      "s": "0x799b0287f1239a711af97a5ef68cb6772c2a83dd88e6320369e70de47364b993",
      "v": 28,
      "creates": null,
      "raw": "0xf86e81da850dd01d422482520894b4ad43131139584e8f6f31d578e0dc4d11df6d7b8902b5e3af16b1880000801ca07d3e9eb706888eee13e166bec1156d1c5a7d3b12d44859053cbe2a5bc5d3fea0a0799b0287f1239a711af97a5ef68cb6772c2a83dd88e6320369e70de47364b993",
      "networkId": 0,
      "chainId": 0
    }
  ]
}