{
  "hash": "0x3d40a653ebd7c43df5a68358b352e9d357f2d6b4a9ecb5adf49da19ae7b2beed",
  "parentHash": "0x60bd8b41fd131f89fdcc384902c58f679949ceac3a482430bab8a7bb288f837b",
  "number": 105172,
  "timestamp": 1439882979,
  "nonce": "0x21ab3b9892edf5fe",
  "difficulty": 4316774257904,
  "gasLimit": {
    "_hex": "0x2fefd8"
  },
  "gasUsed": {
    "_hex": "0xa410"
  },
  "miner": "0x007f7f58D3eb5b7510A301eCC749FC1fCDDBE14D",
  "extraData": "0x476574682f76312e302e312f77696e646f77732f676f312e342e32",
  "transactions": [
    {
      "hash": "0xdb8e913334ddf8c55a2beba087d3d1ee201a1193a6f3babc7c33d79a2e8ffeb0",
      "blockHash": "0x3d40a653ebd7c43df5a68358b352e9d357f2d6b4a9ecb5adf49da19ae7b2beed",
      "blockNumber": 105172,
      "transactionIndex": 0,
      "confirmations": null,
      "from": "0x7884D470204862a0d1A21122F41ee77430396Ee5",
      "gasPrice": {
        "_hex": "0xdccd54e84"
      },
      "gasLimit": {
        "_hex": "0x15f90"
      },
      "to": "0xE46181d0089f5D0e0e4668eE7AB335893BDB58bf",
      "value": {
        "_hex": "0x1aa535d3d0c0000"
      },
      "nonce": 105,
      "data": "0x",
      "r": "0x22c472030ea7c3cc123330afda0eb50c7038df968a16b2410a78db110030946d",
      "s": "0x528918ee6c3985fe1d94368c5a61a2bbf66a80b869e2b022fee5005baf28e711",
      "v": 28,
      "creates": null,
      "raw": "0xf86d69850dccd54e8483015f9094e46181d0089f5d0e0e4668ee7ab335893bdb58bf8801aa535d3d0c0000801ca022c472030ea7c3cc123330afda0eb50c7038df968a16b2410a78db110030946da0528918ee6c3985fe1d94368c5a61a2bbf66a80b869e2b022fee5005baf28e711",
      "networkId": 0,
      "chainId": 0
    },
    {
      "hash": "0x433077d332de11d4afd9f94ec33ffccf5c1feec25e5b1fe69c8389845425b328",
      "blockHash": "0x3d40a653ebd7c43df5a68358b352e9d357f2d6b4a9ecb5adf49da19ae7b2beed",
      "blockNumber": 105172,
      "transactionIndex": 1,
      "confirmations": null,
      "from": "0xC21fa6643A1F14C02996aD7144b75926E87ECb4B",
      "gasPrice": {
        "_hex": "0xd84fe089b"
      },
      "gasLimit": {
        "_hex": "0x15f90"
      },
      "to": "0x27D418Da6aadcD839aaF6d550aDF3B6B8f9Db287",
      "value": {
        "_hex": "0x4563918244f40000"
      },
      "nonce": 2,
      "data": "0x",
      "r": "0xfc86fb555265d8f7742e1aea2b2da5b2874b64b38d31782e25629c5ec047362a",
      "s": "0x46a13bbe94ce0fd753d3638514e7b9999650b514f90f832c3a27a2ec478a6f21",
      "v": 27,
      "creates": null,
      "raw": "0xf86d02850d84fe089b83015f909427d418da6aadcd839aaf6d550adf3b6b8f9db287884563918244f40000801ba0fc86fb555265d8f7742e1aea2b2da5b2874b64b38d31782e25629c5ec047362aa046a13bbe94ce0fd753d3638514e7b9999650b514f90f832c3a27a2ec478a6f21",
      "networkId": 0,
      "chainId": 0
    }
  ]
}