{
  "hash": "0x24bab551271410f186ffc3bd3e9878c033099730d159b4851e0d0397f2497393",
  "parentHash": "0x0ade6d442557a0630df3f38009c1c803b75428c7cdbeecbbd64fa0ee2bccbaf6",
  "number": 76827,
  "timestamp": 1439426952,
  "nonce": "0xd31519d5c753c6c7",
  "difficulty": 2230694875387,
  "gasLimit": {
    "_hex": "0x2fefd8"
  },
  "gasUsed": {
    "_hex": "0x5208"
  },
  "miner": "0xee5379D0c1ca47327368027455074C26D9952628",
  "extraData": "0x476574682f76312e302e312d38326566323666362f6c696e75782f676f312e34",
  "transactions": [
    {
      "hash": "0xd31eccfb3bb5aae4fb4b3b84869c25720369452a3ce50b25b89f75c85e2968e7",
      "blockHash": "0x24bab551271410f186ffc3bd3e9878c033099730d159b4851e0d0397f2497393",
      "blockNumber": 76827,
      "transactionIndex": 0,
      "confirmations": null,
      "from": "0x32Be343B94f860124dC4fEe278FDCBD38C102D88",
      "gasPrice": {
        "_hex": "0xcc1adbc1d"
      },
      "gasLimit": {
        "_hex": "0x5208"
      },
      "to": "0xE44722E814a70BF7009543535e6bCf0DF77545c2",
      "value": {
        "_hex": "0x4563918244f40000"
      },
      "nonce": 358,
      "data": "0x",
      "r": "0x617750ccc325b88fc4955a720f517c8cdb77068d4db3823585c6e802fdabd899",
      "s": "0x6d6cec316968ac1909fa84f7a3c192fff57ff0882fcf5ba91fa064c9332c83d3",
      "v": 28,
      "creates": null,
      "raw": "0xf86e820166850cc1adbc1d82520894e44722e814a70bf7009543535e6bcf0df77545c2884563918244f40000801ca0617750ccc325b88fc4955a720f517c8cdb77068d4db3823585c6e802fdabd899a06d6cec316968ac1909fa84f7a3c192fff57ff0882fcf5ba91fa064c9332c83d3",
      "networkId": 0,
      "chainId": 0
    }
  ]
}