{
  "hash": "0x9f7eda87ba1d101f0de2f204a1af09af586a008d41989d9e3be4581b2af352f5",
  "parentHash": "0xf746cf6bfaf9c854b01d65a856f144ca280b4f55131981d345cec0aaa977aca7",
  "number": 87535,
  "timestamp": 1439593747,
  "nonce": "0xbc4762ad87265c7e",
  "difficulty": 3147913332973,
  "gasLimit": {
    "_hex": "0x2fefd8"
  },
  "gasUsed": {
    "_hex": "0x5d9f"
  },
  "miner": "0x790b8a3cE86E707ED0eD32bF89B3269692a23CC1",
  "extraData": "0xd783010001844765746887676f312e342e32856c696e7578",
  "transactions": [
    {
      "hash": "0x88c4db321436d47cd6f4bd14058de9b496cce00cdd8cd02d9fda0199adf4eda0",
      "blockHash": "0x9f7eda87ba1d101f0de2f204a1af09af586a008d41989d9e3be4581b2af352f5",
      "blockNumber": 87535,
      "transactionIndex": 0,
      "confirmations": null,
      "from": "0x58c444CC2658bB485F7985d5889b1d5857614F31",
      "gasPrice": {
        "_hex": "0xd757a3a24"
      },
      "gasLimit": {
        "_hex": "0x15f90"
      },
      "to": "0xAd8d3a5d2d92EB14bB56CA9f380be35b8EFE0c04",
      "value": {
        "_hex": "0x8ac7230489e80000"
      },
      "nonce": 1,
      "data": "0xb214faa541414141424146454a0000000000000000000000000000000000000000000000",
      "r": "0x3d2c5000a63d6576b1f6be2ed32ce2fc0af2610132a9f3990d3158a24a71e4de",
      "s": "0x2ef5eb33c08c007d6ba44757edee043ee2ad7593ace7c31cae14d377ba71d6f5",
      "v": 28,
      "creates": null,
      "raw": "0xf89101850d757a3a2483015f9094ad8d3a5d2d92eb14bb56ca9f380be35b8efe0c04888ac7230489e80000a4b214faa541414141424146454a00000000000000000000000000000000000000000000001ca03d2c5000a63d6576b1f6be2ed32ce2fc0af2610132a9f3990d3158a24a71e4dea02ef5eb33c08c007d6ba44757edee043ee2ad7593ace7c31cae14d377ba71d6f5",
      "networkId": 0,
      "chainId": 0
    }
  ]
}