{
  "hash": "0xf710570d4c216821a55f1616d1321e4b0e414986c816d8c9e0bad81858159d8f",
  "parentHash": "0xe57d026242bd561856c662efa05de013f34fbae2315ff4d33bdf191211b69451",
  "number": 122033,
  "timestamp": 1440186994,
  "nonce": "0x41865d6e39eb11be",
  "difficulty": 4468798284707,
  "gasLimit": {
    "_hex": "0x2fefd8"
  },
  "gasUsed": {
    "_hex": "0x5208"
  },
  "miner": "0x790b8a3cE86E707ED0eD32bF89B3269692a23CC1",
  "extraData": "0xd783010002844765746887676f312e342e32856c696e7578",
  "transactions": [
    {
      "hash": "0x3a028803bc5115b32f2289755d66f593e9322b76910aebca01a1f5744f546fd7",
      "blockHash": "0xf710570d4c216821a55f1616d1321e4b0e414986c816d8c9e0bad81858159d8f",
      "blockNumber": 122033,
      "transactionIndex": 0,
      "confirmations": null,
      "from": "0xBeEC2A78aD28d873e968C60963cD2Fdf396FB594",
      "gasPrice": {
        "_hex": "0xcdd549a6f"
      },
      "gasLimit": {
        "_hex": "0x15f90"
      },
      "to": "0x9b0a028EAfDeCdE3AFc0fD00B7937098388b7C8a",
      "value": {
        "_hex": "0xbbacf70e8dda54938"
      },
      "nonce": 2,
      "data": "0x",
      "r": "0x3571d98438da8d115440a97b645fce3b3ba8827e637ccbc4198e2d982b71bf69",
      "s": "0x39922376f09ae950081119d620b23cf6a46392ff32673f9e363bbc91b25ea188",
      "v": 28,
      "creates": null,
      "raw": "0xf86e02850cdd549a6f83015f90949b0a028eafdecde3afc0fd00b7937098388b7c8a890bbacf70e8dda54938801ca03571d98438da8d115440a97b645fce3b3ba8827e637ccbc4198e2d982b71bf69a039922376f09ae950081119d620b23cf6a46392ff32673f9e363bbc91b25ea188",
      "networkId": 0,
      "chainId": 0
    }
  ]
}