{
  "hash": "0x1470bde48c335951ab9560ba457d19a55a4a8755467ebd2337707f35d0973fc2",
  "parentHash": "0xb37ab192257e4fbb73b6d0d4cef2d269d5f0ae595690324cf56d453d2b1df89d",
  "number": 105782,
  "timestamp": 1439893298,
  "nonce": "0x47c22b25b37cbdbc",
  "difficulty": 4431787030898,
  "gasLimit": {
    "_hex": "0x2fefd8"
  },
  "gasUsed": {
    "_hex": "0x5208"
  },
  "miner": "0xe6A7a1d47ff21B6321162AEA7C6CB457D5476Bca",
  "extraData": "0x476574682f76312e302e312d38326566323666362f6c696e75782f676f312e34",
  "transactions": [
    {
      "hash": "0xba087b34b8d3f926201b4d484c97131fcf2e00104f1aa63bf77369899a3bfdda",
      "blockHash": "0x1470bde48c335951ab9560ba457d19a55a4a8755467ebd2337707f35d0973fc2",
      "blockNumber": 105782,
      "transactionIndex": 0,
      "confirmations": null,
      "from": "0x120A270bbC009644e35F0bB6ab13f95b8199c4ad",
      "gasPrice": {
        "_hex": "0xcab1639a2"
      },
      "gasLimit": {
        "_hex": "0x3d090"
      },
      "to": "0xB913DDe91b912F058A0f03aA2Bf84B056BbbCba6",
      "value": {
        "_hex": "0x47e8213458b49000"
      },
      "nonce": 773,
      "data": "0x",
      "r": "0xa0051275d3411389b3106d4a0133f064663b8c1e8c5a359cb04365578503d9c8",
      "s": "0x2851dea4a7fad57c0c4f8637eb7869877d81859a42215fcf841b7760d0f59ce0",
      "v": 28,
      "creates": null,
      "raw": "0xf86f820305850cab1639a28303d09094b913dde91b912f058a0f03aa2bf84b056bbbcba68847e8213458b49000801ca0a0051275d3411389b3106d4a0133f064663b8c1e8c5a359cb04365578503d9c8a02851dea4a7fad57c0c4f8637eb7869877d81859a42215fcf841b7760d0f59ce0",
      "networkId": 0,
      "chainId": 0
    }
  ]
}