{
  "hash": "0x61acb60308dbcc75272f568b1b549414c389d52802482f49ab06609f11ee4c5e",
  "parentHash": "0x263bf8f13111f5dcf360cd5822229f921cdf21ef979a838ba498d4f9aef2d020",
  "number": 116149,
  "timestamp": 1440069175,
  "nonce": "0xce46460b84f2673a",
  "difficulty": 4595900507291,
  "gasLimit": {
    "_hex": "0x2fefd8"
  },
  "gasUsed": {
    "_hex": "0x5208"
  },
  "miner": "0xa4FDdE956cc0FF6102d3794647395E3ec786e8b5",
  "extraData": "0xd783010001844765746887676f312e342e32856c696e7578",
  "transactions": [
    {
      "hash": "0x05fd40df990c67a55d15498ffc2eae754b2d8eac95845fd26cbbb89d4b9026fc",
      "blockHash": "0x61acb60308dbcc75272f568b1b549414c389d52802482f49ab06609f11ee4c5e",
      "blockNumber": 116149,
      "transactionIndex": 0,
      "confirmations": null,
      "from": "0x2910543Af39abA0Cd09dBb2D50200b3E800A63D2",
      "gasPrice": {
        "_hex": "0xcbc71efde"
      },
      "gasLimit": {
        "_hex": "0x5208"
      },
      "to": "0x0004B15be8cB573A7be023e203E268DbcFFD302B",
      "value": {
        "_hex": "0x56bb59ab42b2f8000"
      },
      "nonce": 1127,
      "data": "0x",
      "r": "0xfc7c4eb582901f57f2bd4385e6d693e2c80a3b6fa2c3dc448a02f69c05bf6e57",
      "s": "0x749c6b2584260aff4f6a2d22f739a4cabd2a5743e58d9be44cdd407ad5e195fd",
      "v": 27,
      "creates": null,
      "raw": "0xf86f820467850cbc71efde825208940004b15be8cb573a7be023e203e268dbcffd302b89056bb59ab42b2f8000801ba0fc7c4eb582901f57f2bd4385e6d693e2c80a3b6fa2c3dc448a02f69c05bf6e57a0749c6b2584260aff4f6a2d22f739a4cabd2a5743e58d9be44cdd407ad5e195fd",
      "networkId": 0,
      "chainId": 0
    }
  ]
}