{
  "hash": "0x1019d8bd9905fb734f41ddeb5b92990bd0671d7289dca5ef614e52838c3419f4",
  "parentHash": "0x896770ae769a769564919d9f414b2a399354b37b4eab3548f376dfc5b97f69d2",
  "number": 119389,
  "timestamp": 1440141949,
  "nonce": "0x2635c6fa530995ba",
  "difficulty": 4418127531128,
  "gasLimit": {
    "_hex": "0x2fefd8"
  },
  "gasUsed": {
    "_hex": "0x14820"
  },
  "miner": "0x52bc44d5378309EE2abF1539BF71dE1b7d7bE3b5",
  "extraData": "0xd783010002844765746887676f312e342e32856c696e7578",
  "transactions": [
    {
      "hash": "0xb9560e55e860c7c28da5717e68ccb9579e81a7c3b681018b9b1f15cdab04b829",
      "blockHash": "0x1019d8bd9905fb734f41ddeb5b92990bd0671d7289dca5ef614e52838c3419f4",
      "blockNumber": 119389,
      "transactionIndex": 0,
      "confirmations": null,
      "from": "0x007f7f58D3eb5b7510A301eCC749FC1fCDDBE14D",
      "gasPrice": {
        "_hex": "0xba43b7400"
      },
      "gasLimit": {
        "_hex": "0x15f90"
      },
      "to": "0xb1abce2918E21ddb93AA452731a12672A3d9F75a",
      "value": {
        "_hex": "0x4563918244f40000"
      },
      "nonce": 358,
      "data": "0x",
      "r": "0xf2d963d811bc99c0da99cf6035767eb7e4b939b216cc9b5ed97844b38132ada8",
      "s": "0x0697b4fd14bc4698e1d7da01cc520509a51de1284b8df3d7e725944bbc126863",
      "v": 28,
      "creates": null,
      "raw": "0xf86f820166850ba43b740083015f9094b1abce2918e21ddb93aa452731a12672a3d9f75a884563918244f40000801ca0f2d963d811bc99c0da99cf6035767eb7e4b939b216cc9b5ed97844b38132ada8a00697b4fd14bc4698e1d7da01cc520509a51de1284b8df3d7e725944bbc126863",
      "networkId": 0,
      "chainId": 0
    },
    {
      "hash": "0x23da1af6a71143a93111b65ac9c2e78fa712208cee52238e354b7b11ac2c0d19",
      "blockHash": "0x1019d8bd9905fb734f41ddeb5b92990bd0671d7289dca5ef614e52838c3419f4",
      "blockNumber": 119389,
      "transactionIndex": 1,
      "confirmations": null,
      "from": "0x3629B45bBf972aDc23C064D31B7d7c6ce17415D5",
      "gasPrice": {
        "_hex": "0xba43b7400"
      },
      "gasLimit": {
        "_hex": "0x5208"
      },
      "to": "0x32Be343B94f860124dC4fEe278FDCBD38C102D88",
      "value": {
        "_hex": "0x1f135d90ce3c4a000"
      },
      "nonce": 9,
      "data": "0x",
      "r": "0x0736d364631703107e5e9871173b531e90ea557b4db02a17d6be8bcd43c65107",
      "s": "0x7353219146d0f455d7fa4ff2678ee9b813baed2e56e6abd32a0ec5a0feef8808",
      "v": 27,
      "creates": null,
      "raw": "0xf86d09850ba43b74008252089432be343b94f860124dc4fee278fdcbd38c102d888901f135d90ce3c4a000801ba00736d364631703107e5e9871173b531e90ea557b4db02a17d6be8bcd43c65107a07353219146d0f455d7fa4ff2678ee9b813baed2e56e6abd32a0ec5a0feef8808",
      "networkId": 0,
      "chainId": 0
    },
    {
      "hash": "0xf2bec5241d29120e1ab225c7080764793ad4b78954b35c208818e84d3a91ead1",
      "blockHash": "0x1019d8bd9905fb734f41ddeb5b92990bd0671d7289dca5ef614e52838c3419f4",
      "blockNumber": 119389,
      "transactionIndex": 2,
      "confirmations": null,
      "from": "0xe6A7a1d47ff21B6321162AEA7C6CB457D5476Bca",
      "gasPrice": {
        "_hex": "0xba43b7400"
      },
      "gasLimit": {
        "_hex": "0x55f0"
      },
      "to": "0xFa9F15F96E3244897308A95163a62861685e8917",
      "value": {
        "_hex": "0x42a0db6574b8a8ec0"
      },
      "nonce": 6358,
      "data": "0x",
      "r": "0xfe6dbfd7ac47d3665f4fcb601547dd1670f63e8e3ba647f439f7503a939e7b4a",
      "s": "0x3c6b317ed6e7f679c360a2fad350d0b8f777bad392472c998f261aeafddb67d2",
      "v": 27,
      "creates": null,
      "raw": "0xf86f8218d6850ba43b74008255f094fa9f15f96e3244897308a95163a62861685e891789042a0db6574b8a8ec0801ba0fe6dbfd7ac47d3665f4fcb601547dd1670f63e8e3ba647f439f7503a939e7b4aa03c6b317ed6e7f679c360a2fad350d0b8f777bad392472c998f261aeafddb67d2",
      "networkId": 0,
      "chainId": 0
    },
    {
      "hash": "0x261842095f26e2b8d29029f113efbc9f0f81fdf082bac5a8d56a406481ff70e9",
      "blockHash": "0x1019d8bd9905fb734f41ddeb5b92990bd0671d7289dca5ef614e52838c3419f4",
      "blockNumber": 119389,
      "transactionIndex": 3,
      "confirmations": null,
      "from": "0x7fDF07A0f977e4032C1f082Df831423abf58D13D",
      "gasPrice": {
        "_hex": "0xba43b7400"
      },
      "gasLimit": {
        "_hex": "0x5208"
      },
      "to": "0x32Be343B94f860124dC4fEe278FDCBD38C102D88",
      "value": {
        "_hex": "0x29f335d1c711bc00"
      },
      "nonce": 10,
      "data": "0x",
      "r": "0xcaf664a05d98b4b034e970722117026f1ebecfd5ce885c6410d5acaeb6eb8c53",
      "s": "0x1ee0e933ebd429df696d2c278d7ada50271db9aa4f475991b766f2caf7a62bc9",
      "v": 28,
      "creates": null,
      "raw": "0xf86c0a850ba43b74008252089432be343b94f860124dc4fee278fdcbd38c102d888829f335d1c711bc00801ca0caf664a05d98b4b034e970722117026f1ebecfd5ce885c6410d5acaeb6eb8c53a01ee0e933ebd429df696d2c278d7ada50271db9aa4f475991b766f2caf7a62bc9",
      "networkId": 0,
      "chainId": 0
    }
  ]
}