{
  "hash": "0xcfe1503007d64171db12d1effad1fa765e8c62b81077bf558a22ca85ffb530d4",
  "parentHash": "0x0556a33280de9be2d3ee12979d303120954463e31f1c7df8d8b59eae93095342",
  "number": 104111,
  "timestamp": 1439864568,
  "nonce": "0x7ad3fed97444b9ae",
  "difficulty": 4248311552876,
  "gasLimit": {
    "_hex": "0x2fefd8"
  },
  "gasUsed": {
    "_hex": "0x5208"
  },
  "miner": "0xe6A7a1d47ff21B6321162AEA7C6CB457D5476Bca",
  "extraData": "0x476574682f76312e302e312d38326566323666362f6c696e75782f676f312e34",
  "transactions": [
    {
      "hash": "0x5e0450f323359e893411bd9dc7a569184991834bc6f0d22a1c846d24fb78be66",
      "blockHash": "0xcfe1503007d64171db12d1effad1fa765e8c62b81077bf558a22ca85ffb530d4",
      "blockNumber": 104111,
      "transactionIndex": 0,
      "confirmations": null,
      "from": "0x2910543Af39abA0Cd09dBb2D50200b3E800A63D2",
      "gasPrice": {
        "_hex": "0xe0a40ff31"
      },
      "gasLimit": {
        "_hex": "0x5208"
      },
      "to": "0x4Ac82886d74f3E99Ca7a67c3D788dB5b361569DF",
      "value": {
        "_hex": "0xbdbc301cbb534f8000"
      },
      "nonce": 1013,
      "data": "0x",
      "r": "0x5a64e89b055a063b8b017c449d390c6f44311c9f00da09ce29d261e52be5579c",
      "s": "0x4d34af8b38a5a468015afbfd2bc3fb1d573bc3b5e53a77f7ce5b3fbcb2e8022b",
      "v": 27,
      "creates": null,
      "raw": "0xf86f8203f5850e0a40ff31825208944ac82886d74f3e99ca7a67c3d788db5b361569df89bdbc301cbb534f8000801ba05a64e89b055a063b8b017c449d390c6f44311c9f00da09ce29d261e52be5579ca04d34af8b38a5a468015afbfd2bc3fb1d573bc3b5e53a77f7ce5b3fbcb2e8022b",
      "networkId": 0,
      "chainId": 0
    }
  ]
}