{
  "hash": "0xa5fd50a0b025efd6ca32672c5964070621c57bf4ba94a2ac9004a8ec9cd3c8c2",
  "parentHash": "0x328f5670ffc8a981d2a01acc914dde60f909d43bc0b7b070b71184c4626d4078",
  "number": 114112,
  "timestamp": 1440035091,
  "nonce": "0xac1a24a3f8d56f4d",
  "difficulty": 4449059364584,
  "gasLimit": {
    "_hex": "0x2fefd8"
  },
  "gasUsed": {
    "_hex": "0x5208"
  },
  "miner": "0xe6A7a1d47ff21B6321162AEA7C6CB457D5476Bca",
  "extraData": "0x476574682f76312e302e312d38326566323666362f6c696e75782f676f312e34",
  "transactions": [
    {
      "hash": "0x3d3ba0e674b313234e9d18b61626f677b5a8f6fd12ef715fa849408c4e9203b4",
      "blockHash": "0xa5fd50a0b025efd6ca32672c5964070621c57bf4ba94a2ac9004a8ec9cd3c8c2",
      "blockNumber": 114112,
      "transactionIndex": 0,
      "confirmations": null,
      "from": "0x050A4C817B7DD7334cd378B11c0Be4f9D4684816",
      "gasPrice": {
        "_hex": "0xd7cc31615"
      },
      "gasLimit": {
        "_hex": "0x5208"
      },
      "to": "0x32Be343B94f860124dC4fEe278FDCBD38C102D88",
      "value": {
        "_hex": "0xebe7cf8c4b5d4000"
      },
      "nonce": 3,
      "data": "0x",
      "r": "0x8b11143bbdc02a8233c04e01012e3d1872cd57409b1e1f993019e9bd98b720ce",
      "s": "0x7c763283a4bcac3ecaad86b14b60a4accb25369fefc7f2a2428c4f60a0ae83b2",
      "v": 28,
      "creates": null,
      "raw": "0xf86c03850d7cc316158252089432be343b94f860124dc4fee278fdcbd38c102d8888ebe7cf8c4b5d4000801ca08b11143bbdc02a8233c04e01012e3d1872cd57409b1e1f993019e9bd98b720cea07c763283a4bcac3ecaad86b14b60a4accb25369fefc7f2a2428c4f60a0ae83b2",
      "networkId": 0,
      "chainId": 0
    }
  ]
}