{
  "hash": "0xa40fec8e80d13ee1631a8473c2ff12877d51f649a605ebd77bddba4c2110af1e",
  "parentHash": "0x7eac3c77cccafc32af1eda804f17829a9ddf8495883939d953c5c04c89fce438",
  "number": 105820,
  "timestamp": 1439894027,
  "nonce": "0x0d4eaaba8a2a0170",
  "difficulty": 4431766955158,
  "gasLimit": {
    "_hex": "0x2fefd8"
  },
  "gasUsed": {
    "_hex": "0x79fd"
  },
  "miner": "0xe6A7a1d47ff21B6321162AEA7C6CB457D5476Bca",
  "extraData": "0x476574682f76312e302e312d38326566323666362f6c696e75782f676f312e34",
  "transactions": [
    {
      "hash": "0x6908d9b8e1896dc428d29cb4ab13c8b0da25b0d34130b5b8eae713620d7c432f",
      "blockHash": "0xa40fec8e80d13ee1631a8473c2ff12877d51f649a605ebd77bddba4c2110af1e",
      "blockNumber": 105820,
      "transactionIndex": 0,
      "confirmations": null,
      "from": "0x87C5B5874A18B4306DF8a752a6C8cc3E82daFc19",
      "gasPrice": {
        "_hex": "0xfef9f5ac19"
      },
      "gasLimit": {
        "_hex": "0x493e0"
      },
      "to": "0xD79B4C6791784184e2755B2fC1659eaaB0f80456",
      "value": {
        "_hex": "0x219e84fb1b103f9e"
      },
      "nonce": 281,
      "data": "0x8d2161860000000000000000000000000000000000000000000000000000000000000006d3d96ceed0cfca4794c2a5a3d3aeefe69da0a2a669e66a5651f30b64831c3db0",
      "r": "0x0b5c78196dd84f548e75a3a0b0db5915ee571e7d41e4ffb087b88284581e98a7",
      "s": "0x4050a81a3f0e613c1502626db60b29c5f1660d48710464dd25df9621976d65d5",
      "v": 27,
      "creates": null,
      "raw": "0xf8b482011985fef9f5ac19830493e094d79b4c6791784184e2755b2fc1659eaab0f8045688219e84fb1b103f9eb8448d2161860000000000000000000000000000000000000000000000000000000000000006d3d96ceed0cfca4794c2a5a3d3aeefe69da0a2a669e66a5651f30b64831c3db01ba00b5c78196dd84f548e75a3a0b0db5915ee571e7d41e4ffb087b88284581e98a7a04050a81a3f0e613c1502626db60b29c5f1660d48710464dd25df9621976d65d5",
      "networkId": 0,
      "chainId": 0
    }
  ]
}