{
  "hash": "0x7f6b7573cf66c80024ef9a91fb150c9266693b5c44d8e4235a7eb8d705dd52be",
  "parentHash": "0x2470562357ab04ce8917e54a0526103ae6b9168aab5075239014bd48ed82e664",
  "number": 83786,
  "timestamp": 1439540881,
  "nonce": "0xdf1adc9a3e55e113",
  "difficulty": 2441938432992,
  "gasLimit": {
    "_hex": "0x2fefd8"
  },
  "gasUsed": {
    "_hex": "0x5208"
  },
  "miner": "0xe6A7a1d47ff21B6321162AEA7C6CB457D5476Bca",
  "extraData": "0x476574682f76312e302e312d38326566323666362f6c696e75782f676f312e34",
  "transactions": [
    {
      "hash": "0x87b5f1e5d35dde4e7bb6bc2d1abdbd6231a3812be65fb9a45e55db49e2aed71d",
      "blockHash": "0x7f6b7573cf66c80024ef9a91fb150c9266693b5c44d8e4235a7eb8d705dd52be",
      "blockNumber": 83786,
      "transactionIndex": 0,
      "confirmations": null,
      "from": "0xa54A2A9B2DFC75F04C37Ec18B194853DcdFEd443",
      "gasPrice": {
        "_hex": "0xcb9e634f7"
      },
      "gasLimit": {
        "_hex": "0x15f90"
      },
      "to": "0x4ECe0F75EDDc84c88C0B9C0020929aA06a434397",
      "value": {
        "_hex": "0xd99a8cec7e20000"
      },
      "nonce": 0,
      "data": "0x",
      "r": "0x42db850329e7af709aca29197c1801f193125bb406c83670f6cff4185f4b7934",
      "s": "0x71d94386c827bae0fb74289e59aaa0ed1ffc28038dc0d4e1a1b3aee08c8d61ff",
      "v": 28,
      "creates": null,
      "raw": "0xf86d80850cb9e634f783015f90944ece0f75eddc84c88c0b9c0020929aa06a434397880d99a8cec7e20000801ca042db850329e7af709aca29197c1801f193125bb406c83670f6cff4185f4b7934a071d94386c827bae0fb74289e59aaa0ed1ffc28038dc0d4e1a1b3aee08c8d61ff",
      "networkId": 0,
      "chainId": 0
    }
  ]
}