{
  "hash": "0xe18bef9e4a567ce54ff68f8e91bbbd7e739bcfef8aa9853bb2c85a026f956287",
  "parentHash": "0x492e80c81d9ff3578cadca76e5ce9d383d58ee32f3a62b6bb269f92d9394aab0",
  "number": 81301,
  "timestamp": 1439499463,
  "nonce": "0x958488e0fa20ad48",
  "difficulty": 2448632744268,
  "gasLimit": {
    "_hex": "0x2fefd8"
  },
  "gasUsed": {
    "_hex": "0x5208"
  },
  "miner": "0xf927a40C8B7F6E07c5af7FA2155B4864a4112B13",
  "extraData": "0x",
  "transactions": [
    {
      "hash": "0xc82ebad572be577dc2c65f7b9cdcb094d82979cdb52ff2e07661546ead4670d1",
      "blockHash": "0xe18bef9e4a567ce54ff68f8e91bbbd7e739bcfef8aa9853bb2c85a026f956287",
      "blockNumber": 81301,
      "transactionIndex": 0,
      "confirmations": null,
      "from": "0xA9bb0843E0Da908bd03b9eE0d6f95242129aaa50",
      "gasPrice": {
        "_hex": "0xdfd0242c0"
      },
      "gasLimit": {
        "_hex": "0x55f0"
      },
      "to": "0xa2BA1357f91629859aD8084f8B284D38c7edd321",
      "value": {
        "_hex": "0x6c6b935b8bbd40000"
      },
      "nonce": 1,
      "data": "0x",
      "r": "0x4abdeb2e54f4cfbdf649b27cdcc0212bb7e1cdb5bb8b6f6de12cac2f406564b3",
      "s": "0x50c41584775657f6cd70a9da2116a08e7356ba0e12444f68f6908c863ee2b951",
      "v": 27,
      "creates": null,
      "raw": "0xf86d01850dfd0242c08255f094a2ba1357f91629859ad8084f8b284d38c7edd3218906c6b935b8bbd40000801ba04abdeb2e54f4cfbdf649b27cdcc0212bb7e1cdb5bb8b6f6de12cac2f406564b3a050c41584775657f6cd70a9da2116a08e7356ba0e12444f68f6908c863ee2b951",
      "networkId": 0,
      "chainId": 0
    }
  ]
}