{
  "hash": "0xec12fd0af47016a1acbcbe284f7bb32406186e9d5533a262d9b9941888c7d69b",
  "parentHash": "0x1cbc225e34386444f5ba7a31e87fdf505a18e86a7736b09c5aef6a415f0ad2ba",
  "number": 102167,
  "timestamp": 1439833876,
  "nonce": "0xd1beee6046006eaa",
  "difficulty": 3910814037791,
  "gasLimit": {
    "_hex": "0x2fefd8"
  },
  "gasUsed": {
    "_hex": "0x5208"
  },
  "miner": "0xe6A7a1d47ff21B6321162AEA7C6CB457D5476Bca",
  "extraData": "0x476574682f76312e302e312d38326566323666362f6c696e75782f676f312e34",
  "transactions": [
    {
      "hash": "0x6eb7a9206f5b4304879773a47e8d0cfe12974d355a9875503e1d4ae4e6293179",
      "blockHash": "0xec12fd0af47016a1acbcbe284f7bb32406186e9d5533a262d9b9941888c7d69b",
      "blockNumber": 102167,
      "transactionIndex": 0,
      "confirmations": null,
      "from": "0xC47Aaa860008be6f65B58c6C6E02a84e666EfE31",
      "gasPrice": {
        "_hex": "0xd6892ec53"
      },
      "gasLimit": {
        "_hex": "0x15f90"
      },
      "to": "0x0d17eC14F1Da33cFA054634A622aFe6fa74772d8",
      "value": {
        "_hex": "0xe0346855910f022"
      },
      "nonce": 70,
      "data": "0x",
      "r": "0x73a43b6f4a2d402b5fcde38a211d52df39ab17cea83dd4bbf31f0825519125d5",
      "s": "0x7caddc50d1bbfe287f9dfcbd8db25648152184399470bc2471f8b818c2e5417d",
      "v": 28,
      "creates": null,
      "raw": "0xf86d46850d6892ec5383015f90940d17ec14f1da33cfa054634a622afe6fa74772d8880e0346855910f022801ca073a43b6f4a2d402b5fcde38a211d52df39ab17cea83dd4bbf31f0825519125d5a07caddc50d1bbfe287f9dfcbd8db25648152184399470bc2471f8b818c2e5417d",
      "networkId": 0,
      "chainId": 0
    }
  ]
}