{
  "hash": "0xf60cf5de9dfdda4f55dea26068a2cb2396dff5b2c24b262cb62aaf78e064c764",
  "parentHash": "0x94efafa96e7bbdaf3452c477ba94cfc4a40316dc7b0a6a8e432e8030a2cc97a9",
  "number": 90737,
  "timestamp": 1439644740,
  "nonce": "0x9d61ab8d7de95d54",
  "difficulty": 3375929172243,
  "gasLimit": {
    "_hex": "0x2fefd8"
  },
  "gasUsed": {
    "_hex": "0x5208"
  },
  "miner": "0x9D49F602b0fdb924Bd63DDE2Bd0907E4A07c63a7",
  "extraData": "0x476574682f76312e302e312f6c696e75782f676f312e342e32",
  "transactions": [
    {
      "hash": "0x6b6f276c601d0862f27c7d730a87f7e94a703d2b143654eafadcb87d754008c7",
      "blockHash": "0xf60cf5de9dfdda4f55dea26068a2cb2396dff5b2c24b262cb62aaf78e064c764",
      "blockNumber": 90737,
      "transactionIndex": 0,
      "confirmations": null,
      "from": "0x519DC97eF09491aE962A8F13fe144c71feca4662",
      "gasPrice": {
        "_hex": "0xd99174fe2"
      },
      "gasLimit": {
        "_hex": "0x5208"
      },
      "to": "0x32Be343B94f860124dC4fEe278FDCBD38C102D88",
      "value": {
        "_hex": "0x455f41d3f478c400"
      },
      "nonce": 7,
      "data": "0x",
      "r": "0x6d504d0387f60473d41f7cf9fdce8c13361ddc86829a2f7e4480a8ce4fbf66c3",
      "s": "0x2f5c68135297c17fc3d53677cffa2d0aa2c51ac0b6a8fa4f5f072e53ad623120",
      "v": 27,
      "creates": null,
      "raw": "0xf86c07850d99174fe28252089432be343b94f860124dc4fee278fdcbd38c102d8888455f41d3f478c400801ba06d504d0387f60473d41f7cf9fdce8c13361ddc86829a2f7e4480a8ce4fbf66c3a02f5c68135297c17fc3d53677cffa2d0aa2c51ac0b6a8fa4f5f072e53ad623120",
      "networkId": 0,
      "chainId": 0
    }
  ]
}