{
  "hash": "0xf76e415f83b5dcd5029319bad4e6320cfa0a8c7b7f64805e8175677fadbd4b6e",
  "parentHash": "0x4671a0fbc7d3a0bc57fca970c081474c30fbedb0e3778371149333c4066978a5",
  "number": 92117,
  "timestamp": 1439667040,
  "nonce": "0xefdcbce3c3ad67eb",
  "difficulty": 3472331959316,
  "gasLimit": {
    "_hex": "0x2fefd8"
  },
  "gasUsed": {
    "_hex": "0x5208"
  },
  "miner": "0xDdf735543837695220A5fF5920f5756696840A5D",
  "extraData": "0x476574682f76312e302e312f6c696e75782f676f312e342e32",
  "transactions": [
    {
      "hash": "0x26f132da6bd1823ce476b330a49019d49c19d39033950fa607b3a0e24c0b7804",
      "blockHash": "0xf76e415f83b5dcd5029319bad4e6320cfa0a8c7b7f64805e8175677fadbd4b6e",
      "blockNumber": 92117,
      "transactionIndex": 0,
      "confirmations": null,
      "from": "0x120A270bbC009644e35F0bB6ab13f95b8199c4ad",
      "gasPrice": {
        "_hex": "0xd6f77e20d"
      },
      "gasLimit": {
        "_hex": "0x3d090"
      },
      "to": "0x36B33F21Ba59c53E3502E52b8e0a7fD311215FFd",
      "value": {
        "_hex": "0x1ceb363b32978eb000"
      },
      "nonce": 541,
      "data": "0x",
      "r": "0x64ea55f9b50fe13260da7b472f2920dd21fa30d8efc8d55a1a1323045392a583",
      "s": "0x7771a8772902d334845395ac8f83f1d61d3b5d45851c520497d45768fd1b4e14",
      "v": 27,
      "creates": null,
      "raw": "0xf87082021d850d6f77e20d8303d0909436b33f21ba59c53e3502e52b8e0a7fd311215ffd891ceb363b32978eb000801ba064ea55f9b50fe13260da7b472f2920dd21fa30d8efc8d55a1a1323045392a583a07771a8772902d334845395ac8f83f1d61d3b5d45851c520497d45768fd1b4e14",
      "networkId": 0,
      "chainId": 0
    }
  ]
}