{
  "hash": "0x2f4dee41f5405628286bc46860ef9136a055a5c82cdda5ea3773a3ba72a3a9c3",
  "parentHash": "0xafe810ce45cb8b9f7eb12016893cd88a0e97bc890497a5c4374017718c14d689",
  "number": 46757,
  "timestamp": 1438928709,
  "nonce": "0x949519cf0b00bd0c",
  "difficulty": 1452491768141,
  "gasLimit": {
    "_hex": "0x770b"
  },
  "gasUsed": {
    "_hex": "0x5208"
  },
  "miner": "0xeB1325C8D9d3ea8D74aC11F4B00F1B2367686319",
  "extraData": "0x476574682f76312e302e312f77696e646f77732f676f312e342e32",
  "transactions": [
    {
      "hash": "0xa0ff14c9fa3462c04dab99fdeaa641dae0179ec14a527043795249d3005656ba",
      "blockHash": "0x2f4dee41f5405628286bc46860ef9136a055a5c82cdda5ea3773a3ba72a3a9c3",
      "blockNumber": 46757,
      "transactionIndex": 0,
      "confirmations": null,
      "from": "0xD1F647c106B7C9ed6Fdb157979744C4Acf521A40",
      "gasPrice": {
        "_hex": "0xcc62190f2"
      },
      "gasLimit": {
        "_hex": "0x5208"
      },
      "to": "0x32Be343B94f860124dC4fEe278FDCBD38C102D88",
      "value": {
        "_hex": "0x21e19dca79ade600000"
      },
      "nonce": 1,
      "data": "0x",
      "r": "0x0fbb21508e9efbc2240ccd45964afd4ff5af6eaf205959855019acba6672a9f6",
      "s": "0x02d59e131eea0ae2d15aa1db85886f797bd21d4fe03dad49d202441891d3757f",
      "v": 28,
      "creates": null,
      "raw": "0xf86e01850cc62190f28252089432be343b94f860124dc4fee278fdcbd38c102d888a021e19dca79ade600000801ca00fbb21508e9efbc2240ccd45964afd4ff5af6eaf205959855019acba6672a9f6a002d59e131eea0ae2d15aa1db85886f797bd21d4fe03dad49d202441891d3757f",
      "networkId": 0,
      "chainId": 0
    }
  ]
}