{
  "hash": "0xcbf10207263fe3844a80facbe82b9eacc69e757e6f7ff236be9794444cae2805",
  "parentHash": "0x6b8461bd781a63740df5fa9327ebe03bcbd25ceda2e4afdbaf363c31124e1dc2",
  "number": 121996,
  "timestamp": 1440186402,
  "nonce": "0xa82983dd8cf23897",
  "difficulty": 4466636487906,
  "gasLimit": {
    "_hex": "0x2fefd8"
  },
  "gasUsed": {
    "_hex": "0xf618"
  },
  "miner": "0x52bc44d5378309EE2abF1539BF71dE1b7d7bE3b5",
  "extraData": "0xd783010002844765746887676f312e342e32856c696e7578",
  "transactions": [
    {
      "hash": "0x17ee2bcc1f295e37154aa3da4e8d8bcd204023fe34fd5ce8ca8ddd2bc4479b06",
      "blockHash": "0xcbf10207263fe3844a80facbe82b9eacc69e757e6f7ff236be9794444cae2805",
      "blockNumber": 121996,
      "transactionIndex": 0,
      "confirmations": null,
      "from": "0xBdF25376dA0767EfBF7eE3dCAe463ECe5572bFF3",
      "gasPrice": {
        "_hex": "0xdb4b134a5"
      },
      "gasLimit": {
        "_hex": "0x15f90"
      },
      "to": "0x9b0a028EAfDeCdE3AFc0fD00B7937098388b7C8a",
      "value": {
        "_hex": "0x183928d8fb3bb6ad8"
      },
      "nonce": 8,
      "data": "0x",
      "r": "0x16df644cfbbf1f4921e87cbe3536a506b9db7ef41ae28634ac0b201a552bac50",
      "s": "0x5c890900b64ff28c55b557419e2e1b20d63c751e6fd9ad7cb766d678acc06761",
      "v": 28,
      "creates": null,
      "raw": "0xf86e08850db4b134a583015f90949b0a028eafdecde3afc0fd00b7937098388b7c8a890183928d8fb3bb6ad8801ca016df644cfbbf1f4921e87cbe3536a506b9db7ef41ae28634ac0b201a552bac50a05c890900b64ff28c55b557419e2e1b20d63c751e6fd9ad7cb766d678acc06761",
      "networkId": 0,
      "chainId": 0
    },
    {
      "hash": "0x2e1f9bd72b7cea55a358718a91e0a7a8b950320c687c4751e45208d975445de9",
      "blockHash": "0xcbf10207263fe3844a80facbe82b9eacc69e757e6f7ff236be9794444cae2805",
      "blockNumber": 121996,
      "transactionIndex": 1,
      "confirmations": null,
      "from": "0xBeEC2A78aD28d873e968C60963cD2Fdf396FB594",
      "gasPrice": {
        "_hex": "0xdb4b134a5"
      },
      "gasLimit": {
        "_hex": "0x15f90"
      },
      "to": "0x9b0a028EAfDeCdE3AFc0fD00B7937098388b7C8a",
      "value": {
        "_hex": "0xa86fc43c31ac7ff30"
      },
      "nonce": 1,
      "data": "0x",
      "r": "0x0ff913a44d9734d77529ee70feda6b95c62b8945dc26d1800f919e894872d8be",
      "s": "0x0c4510823039165da51fcd477c14ea09d7c88fd8e53514f456128997f7f5a4b5",
      "v": 27,
      "creates": null,
      "raw": "0xf86e01850db4b134a583015f90949b0a028eafdecde3afc0fd00b7937098388b7c8a890a86fc43c31ac7ff30801ba00ff913a44d9734d77529ee70feda6b95c62b8945dc26d1800f919e894872d8bea00c4510823039165da51fcd477c14ea09d7c88fd8e53514f456128997f7f5a4b5",
      "networkId": 0,
      "chainId": 0
    },
    {
      "hash": "0x967714b4142cd265ae3eea266e0404b2673d11ed92941c52aea6f159d8ec6e6b",
      "blockHash": "0xcbf10207263fe3844a80facbe82b9eacc69e757e6f7ff236be9794444cae2805",
      "blockNumber": 121996,
      "transactionIndex": 2,
      "confirmations": null,
      "from": "0x2910543Af39abA0Cd09dBb2D50200b3E800A63D2",
      "gasPrice": {
        "_hex": "0xcd1b8cd00"
      },
      "gasLimit": {
        "_hex": "0x5208"
      },
      "to": "0x81fB0aa0ceEebA4cCAfD0E67861de0B3174b0f5b",
      "value": {
        "_hex": "0x10f0cdea164213f8000"
      },
      "nonce": 1208,
      "data": "0x",
      "r": "0xdde7600018cc1ef22821ccfe65a7e30427c94bd6d3014c152cb635bdc682807f",
      "s": "0x0a3015d23fc38d804d69d72b5e5a0c68039cd48fb57e2c106e2bc4b388324a9c",
      "v": 28,
      "creates": null,
      "raw": "0xf8708204b8850cd1b8cd008252089481fb0aa0ceeeba4ccafd0e67861de0b3174b0f5b8a010f0cdea164213f8000801ca0dde7600018cc1ef22821ccfe65a7e30427c94bd6d3014c152cb635bdc682807fa00a3015d23fc38d804d69d72b5e5a0c68039cd48fb57e2c106e2bc4b388324a9c",
      "networkId": 0,
      "chainId": 0
    }
  ]
}