{
  "hash": "0x05393cd4ad5ca2332b09750db7190552bc7b162d0893daf50fcf6b41882154d1",
  "parentHash": "0x94b738e29e7e348eb86858d35e9f881ec7b2f025157f45040d89362a642dd7f9",
  "number": 110327,
  "timestamp": 1439971792,
  "nonce": "0x4d6b3c47a88c0b99",
  "difficulty": 4367107680806,
  "gasLimit": {
    "_hex": "0x2fefd8"
  },
  "gasUsed": {
    "_hex": "0xa410"
  },
  "miner": "0x9746c7e1ef2bd21FF3997fa467593a89cb852BD0",
  "extraData": "0x476574682f76312e302e312f77696e646f77732f676f312e342e32",
  "transactions": [
    {
      "hash": "0xf5b0f7ac6e3771008ac0d814b536a4a2b8a6f2e62126dbd41f61b2b82ccffc5b",
      "blockHash": "0x05393cd4ad5ca2332b09750db7190552bc7b162d0893daf50fcf6b41882154d1",
      "blockNumber": 110327,
      "transactionIndex": 0,
      "confirmations": null,
      "from": "0xFBb1b73C4f0BDa4f67dcA266ce6Ef42f520fBB98",
      "gasPrice": {
        "_hex": "0xd578f878b"
      },
      "gasLimit": {
        "_hex": "0x5208"
      },
      "to": "0xd4009b893e804b60A7A840267730d9E2c0052E55",
      "value": {
        "_hex": "0xd0b8d0508de0000"
      },
      "nonce": 217,
      "data": "0x",
      "r": "0x1278b9189db8c67a4f5bd1ad5108803a17d258eb4c19286180c98930afdd71e6",
      "s": "0x43ad88e7625f0ee747b8401f3955d71765ec03fffdbdcc2caed74f11707daa59",
      "v": 27,
      "creates": null,
      "raw": "0xf86d81d9850d578f878b82520894d4009b893e804b60a7a840267730d9e2c0052e55880d0b8d0508de0000801ba01278b9189db8c67a4f5bd1ad5108803a17d258eb4c19286180c98930afdd71e6a043ad88e7625f0ee747b8401f3955d71765ec03fffdbdcc2caed74f11707daa59",
      "networkId": 0,
      "chainId": 0
    },
    {
      "hash": "0xeb672420e083824d5a7a2e5295ce877fb2e52e07ddb108973cf6c37b3262fa1b",
      "blockHash": "0x05393cd4ad5ca2332b09750db7190552bc7b162d0893daf50fcf6b41882154d1",
      "blockNumber": 110327,
      "transactionIndex": 1,
      "confirmations": null,
      "from": "0xe6A7a1d47ff21B6321162AEA7C6CB457D5476Bca",
      "gasPrice": {
        "_hex": "0xd3e65021d"
      },
      "gasLimit": {
        "_hex": "0x55f0"
      },
      "to": "0x86889b1CeA13d370E827e099e3778b17d488B3Dd",
      "value": {
        "_hex": "0x13ccb2f93558241c"
      },
      "nonce": 4121,
      "data": "0x",
      "r": "0x51fd738a4195a8578ef2cdd6a9e270265ccbc3eb2e58a5010ceea64507e43af7",
      "s": "0x451e3921aa1eb81f5e075daa65662777870dbbdfc590eafb3c49cfa1d3ea9de8",
      "v": 28,
      "creates": null,
      "raw": "0xf86e821019850d3e65021d8255f09486889b1cea13d370e827e099e3778b17d488b3dd8813ccb2f93558241c801ca051fd738a4195a8578ef2cdd6a9e270265ccbc3eb2e58a5010ceea64507e43af7a0451e3921aa1eb81f5e075daa65662777870dbbdfc590eafb3c49cfa1d3ea9de8",
      "networkId": 0,
      "chainId": 0
    }
  ]
}