{
  "hash": "0x214f7f9c086d4b4fa58a56131bd787529ce3a9e3f102e8b742d9d358034634d7",
  "parentHash": "0x2ee0ff021e571f02ed2d1aa38daa959e35f1d70f3f39d2e554f7e1dbfb81b461",
  "number": 79938,
  "timestamp": 1439477569,
  "nonce": "0x17992fa9db4c60a4",
  "difficulty": 2351762249540,
  "gasLimit": {
    "_hex": "0x2fefd8"
  },
  "gasUsed": {
    "_hex": "0x12454"
  },
  "miner": "0x88D74a59454F6cF3B51ef6b9136AFb6b9D405A88",
  "extraData": "0x476574682f76312e302e312d37666266393930632f6c696e75782f676f312e34",
  "transactions": [
    {
      "hash": "0x4aaf16bdc2d1a1739023ab1bbc9ae31a92917b510f77803f2e8abb2ca39a99e3",
      "blockHash": "0x214f7f9c086d4b4fa58a56131bd787529ce3a9e3f102e8b742d9d358034634d7",
      "blockNumber": 79938,
      "transactionIndex": 0,
      "confirmations": null,
      "from": "0x008FC7CBAdFFbD0D7fe44F8DFD60a79d721a1c9C",
      "gasPrice": {
        "_hex": "0xdfa24b11a"
      },
      "gasLimit": {
        "_hex": "0x15f90"
      },
      "to": "0x67DE0f2F71e29b8003D957fbcDE9C9AE393CbE94",
      "value": {
        "_hex": "0x0"
      },
      "nonce": 46,
      "data": "0x237297a4",
      "r": "0xdd8fba52ee146b29ec116721d80b65229d17373840642c596fb572fe83f3a53b",
      "s": "0x5f59548bcf77f4872c8fc13c099c3e4ee648966d7da285982322728ed1b6bf0f",
      "v": 27,
      "creates": null,
      "raw": "0xf8692e850dfa24b11a83015f909467de0f2f71e29b8003d957fbcde9c9ae393cbe948084237297a41ba0dd8fba52ee146b29ec116721d80b65229d17373840642c596fb572fe83f3a53ba05f59548bcf77f4872c8fc13c099c3e4ee648966d7da285982322728ed1b6bf0f",
      "networkId": 0,
      "chainId": 0
    }
  ]
}