{
  "hash": "0x1af33aaab1e7f307f9fbed4df557f7a432ac55fa95eb0a689aab133a7ec375fd",
  "parentHash": "0x27c9fd69b09eee5ca6ee3ae5caaa7510ed271f621ae0573f419036d1ed3ee212",
  "number": 52655,
  "timestamp": 1439025220,
  "nonce": "0x1984ea73e9fa3dd3",
  "difficulty": 1566351965652,
  "gasLimit": {
    "_hex": "0x1710d9"
  },
  "gasUsed": {
    "_hex": "0x16e360"
  },
  "miner": "0x157c6f2431eB1a95797EE86F7d17b3c0FD47A247",
  "extraData": "0x476574682f76312e302e312f77696e646f77732f676f312e342e32",
  "transactions": [
    {
      "hash": "0x6428076b9ead06c351c5c89089dab37882e7d2dad475d147544730c8810fbdcc",
      "blockHash": "0x1af33aaab1e7f307f9fbed4df557f7a432ac55fa95eb0a689aab133a7ec375fd",
      "blockNumber": 52655,
      "transactionIndex": 0,
      "confirmations": null,
      "from": "0x54dAeb3E8a6BBC797E4aD2b0339f134b186e4637",
      "gasPrice": {
        "_hex": "0xd8bd64e50"
      },
      "gasLimit": {
        "_hex": "0x7a120"
      },
      "to": "0xBAA54d6E90c3F4d7Ebec11bD180134C7eD8eBb52",
      "value": {
        "_hex": "0x16345785d8a0000"
      },
      "nonce": 859,
      "data": "0x",
      "r": "0xec3dffec7b5960bd0b2981d67d2622e38b42b77a291a0f463de39ff2b769a9fa",
      "s": "0x7c879a9224dabcc054e60a5ed14381bffdf06da134b718c4c10cb8c88867c21e",
      "v": 27,
      "creates": null,
      "raw": "0xf86f82035b850d8bd64e508307a12094baa54d6e90c3f4d7ebec11bd180134c7ed8ebb5288016345785d8a0000801ba0ec3dffec7b5960bd0b2981d67d2622e38b42b77a291a0f463de39ff2b769a9faa07c879a9224dabcc054e60a5ed14381bffdf06da134b718c4c10cb8c88867c21e",
      "networkId": 0,
      "chainId": 0
    },
    {
      "hash": "0xf80356833e8b77122a58269f7e1cb08a8728d36d8659539c67026ebb2bdc9ac5",
      "blockHash": "0x1af33aaab1e7f307f9fbed4df557f7a432ac55fa95eb0a689aab133a7ec375fd",
      "blockNumber": 52655,
      "transactionIndex": 1,
      "confirmations": null,
      "from": "0x54dAeb3E8a6BBC797E4aD2b0339f134b186e4637",
      "gasPrice": {
        "_hex": "0xdf4ba21f9"
      },
      "gasLimit": {
        "_hex": "0x7a120"
      },
      "to": "0xBAA54d6E90c3F4d7Ebec11bD180134C7eD8eBb52",
      "value": {
        "_hex": "0x16345785d8a0000"
      },
      "nonce": 860,
      "data": "0x",
      "r": "0xdf6eb928ae5c85607d251af7496b0d214e1c315104017d5ba3b9ff29fb7ccb81",
      "s": "0x0b74d6c776d020aa64ed8a01a18a61a3711c7efff6931df16fb78105fab1256c",
      "v": 27,
      "creates": null,
      "raw": "0xf86f82035c850df4ba21f98307a12094baa54d6e90c3f4d7ebec11bd180134c7ed8ebb5288016345785d8a0000801ba0df6eb928ae5c85607d251af7496b0d214e1c315104017d5ba3b9ff29fb7ccb81a00b74d6c776d020aa64ed8a01a18a61a3711c7efff6931df16fb78105fab1256c",
      "networkId": 0,
      "chainId": 0
    },
    {
      "hash": "0x6f328634730bac1c564a3950fb1ad0434a6c982cac70e77b88ce017afcfab372",
      "blockHash": "0x1af33aaab1e7f307f9fbed4df557f7a432ac55fa95eb0a689aab133a7ec375fd",
      "blockNumber": 52655,
      "transactionIndex": 2,
      "confirmations": null,
      "from": "0x54dAeb3E8a6BBC797E4aD2b0339f134b186e4637",
      "gasPrice": {
        "_hex": "0xe1780dfbb"
      },
      "gasLimit": {
        "_hex": "0x7a120"
      },
      "to": "0xBAA54d6E90c3F4d7Ebec11bD180134C7eD8eBb52",
      "value": {
        "_hex": "0x16345785d8a0000"
      },
      "nonce": 861,
      "data": "0x",
      "r": "0xeb5c6eb1d085b7fa4451d0eb145940a83ad27ee6b52eac08cb4b51b4d0295188",
      "s": "0x0fdac52b3d632707278c3823b8cb8cccdeccf70bef3fd063d337e80040a3f94d",
      "v": 27,
      "creates": null,
      "raw": "0xf86f82035d850e1780dfbb8307a12094baa54d6e90c3f4d7ebec11bd180134c7ed8ebb5288016345785d8a0000801ba0eb5c6eb1d085b7fa4451d0eb145940a83ad27ee6b52eac08cb4b51b4d0295188a00fdac52b3d632707278c3823b8cb8cccdeccf70bef3fd063d337e80040a3f94d",
      "networkId": 0,
      "chainId": 0
    }
  ]
}