{
  "hash": "0xdc76cc09723989dea6e50f186eae5bc8c16bdbb9c823cdabd11c2c854860656e",
  "parentHash": "0xf739a68d7145730c5d698f66cec8cbb59a3685f04d7b3b03ab3f3cb24a51b1e0",
  "number": 77820,
  "timestamp": 1439443476,
  "nonce": "0xec6fe747fa558123",
  "difficulty": 2275532971688,
  "gasLimit": {
    "_hex": "0x2fefd5"
  },
  "gasUsed": {
    "_hex": "0xa410"
  },
  "miner": "0x580992B51e3925e23280EfB93d3047C82f17E038",
  "extraData": "0x476574682f76312e302e312f6c696e75782f676f312e342e32",
  "transactions": [
    {
      "hash": "0x67c5efa18d312dd11fde835c44754931e37d01172137200bc9d1f9a3fd67092d",
      "blockHash": "0xdc76cc09723989dea6e50f186eae5bc8c16bdbb9c823cdabd11c2c854860656e",
      "blockNumber": 77820,
      "transactionIndex": 0,
      "confirmations": null,
      "from": "0x32Be343B94f860124dC4fEe278FDCBD38C102D88",
      "gasPrice": {
        "_hex": "0xd4d67496b"
      },
      "gasLimit": {
        "_hex": "0x5208"
      },
      "to": "0x76899c112A85c5a7d27Ff89f1b97112e900aeEBc",
      "value": {
        "_hex": "0x55935bac36121c00"
      },
      "nonce": 375,
      "data": "0x",
      "r": "0x643afb468378e2f0088cf85cb00514794958f9db0ad97c1505eabf9493472d81",
      "s": "0x7832540cd60844a42abac5ad27819602c6dbd2847a6c3b72dba4b74616e9632b",
      "v": 28,
      "creates": null,
      "raw": "0xf86e820177850d4d67496b8252089476899c112a85c5a7d27ff89f1b97112e900aeebc8855935bac36121c00801ca0643afb468378e2f0088cf85cb00514794958f9db0ad97c1505eabf9493472d81a07832540cd60844a42abac5ad27819602c6dbd2847a6c3b72dba4b74616e9632b",
      "networkId": 0,
      "chainId": 0
    },
    {
      "hash": "0x01ec0d54eb87210c129c893351666a990cf3c9d1a700c3cb8a9de51871c9b108",
      "blockHash": "0xdc76cc09723989dea6e50f186eae5bc8c16bdbb9c823cdabd11c2c854860656e",
      "blockNumber": 77820,
      "transactionIndex": 1,
      "confirmations": null,
      "from": "0x32Be343B94f860124dC4fEe278FDCBD38C102D88",
      "gasPrice": {
        "_hex": "0xd4d67496b"
      },
      "gasLimit": {
        "_hex": "0x5208"
      },
      "to": "0xd1Ad4e224eB28404DE7B5f07b2D65E03ACA4f534",
      "value": {
        "_hex": "0x67883dc2e427f400"
      },
      "nonce": 376,
      "data": "0x",
      "r": "0xe676c534672b6f8446b7e6e33dced6c18224d50c81b5470768cd66e56aabe9f8",
      "s": "0x4df62702654d37b2129e06a0c43da25b874fae6148d7572cf4fc13da18dbc5a2",
      "v": 28,
      "creates": null,
      "raw": "0xf86e820178850d4d67496b82520894d1ad4e224eb28404de7b5f07b2d65e03aca4f5348867883dc2e427f400801ca0e676c534672b6f8446b7e6e33dced6c18224d50c81b5470768cd66e56aabe9f8a04df62702654d37b2129e06a0c43da25b874fae6148d7572cf4fc13da18dbc5a2",
      "networkId": 0,
      "chainId": 0
    }
  ]
}