{
  "hash": "0x8585ed75cdc9afadd7a24a76493a4444391bf5827e78ca3940724f0a70070b45",
  "parentHash": "0x776f6435d173336a244437d182617124fd8b5c8ed8eb59d99a6cd0573e7d33ed",
  "number": 81162,
  "timestamp": 1439497244,
  "nonce": "0x73b000e3af37bc24",
  "difficulty": 2440318116179,
  "gasLimit": {
    "_hex": "0x2fefd8"
  },
  "gasUsed": {
    "_hex": "0xa410"
  },
  "miner": "0xf927a40C8B7F6E07c5af7FA2155B4864a4112B13",
  "extraData": "0x",
  "transactions": [
    {
      "hash": "0x0c292f18a88eac3cb3615bfddaed72ff11ecb1e285477ca7bb089a694ffe9453",
      "blockHash": "0x8585ed75cdc9afadd7a24a76493a4444391bf5827e78ca3940724f0a70070b45",
      "blockNumber": 81162,
      "transactionIndex": 0,
      "confirmations": null,
      "from": "0xCb88dAC50e0b4f450f3a5d02c2D65Bc56361313E",
      "gasPrice": {
        "_hex": "0xd417984c6"
      },
      "gasLimit": {
        "_hex": "0x5208"
      },
      "to": "0x32Be343B94f860124dC4fEe278FDCBD38C102D88",
      "value": {
        "_hex": "0x56bc329eaea9f0000"
      },
      "nonce": 8,
      "data": "0x",
      "r": "0x3890e7a4ec39d6a92218834f584436f8f93975fdada2e2f87d52567c2a2cc0ab",
      "s": "0x649a4820651308c152490d9ea1c006c7da748f1a9328c587990a9ea22fed68bd",
      "v": 27,
      "creates": null,
      "raw": "0xf86d08850d417984c68252089432be343b94f860124dc4fee278fdcbd38c102d8889056bc329eaea9f0000801ba03890e7a4ec39d6a92218834f584436f8f93975fdada2e2f87d52567c2a2cc0aba0649a4820651308c152490d9ea1c006c7da748f1a9328c587990a9ea22fed68bd",
      "networkId": 0,
      "chainId": 0
    },
    {
      "hash": "0x9cce59dc9a17f20b7fb343454345b4d7ee30b58861c0221803298cbe95d2a9cf",
      "blockHash": "0x8585ed75cdc9afadd7a24a76493a4444391bf5827e78ca3940724f0a70070b45",
      "blockNumber": 81162,
      "transactionIndex": 1,
      "confirmations": null,
      "from": "0xAd941B747c499E3ad5728C285446813783A33564",
      "gasPrice": {
        "_hex": "0xd417984c6"
      },
      "gasLimit": {
        "_hex": "0x5208"
      },
      "to": "0x32Be343B94f860124dC4fEe278FDCBD38C102D88",
      "value": {
        "_hex": "0x455f5cebfad6f000"
      },
      "nonce": 9,
      "data": "0x",
      "r": "0x84138bb2da47749f841c45f7c4ef031714819ae9218956e1eb112c9a4c8ac70b",
      "s": "0x76735ba5a5e701235f5a0dbaa26cc41831ae6d1feb27a8a6a0d7930fbba2e581",
      "v": 28,
      "creates": null,
      "raw": "0xf86c09850d417984c68252089432be343b94f860124dc4fee278fdcbd38c102d8888455f5cebfad6f000801ca084138bb2da47749f841c45f7c4ef031714819ae9218956e1eb112c9a4c8ac70ba076735ba5a5e701235f5a0dbaa26cc41831ae6d1feb27a8a6a0d7930fbba2e581",
      "networkId": 0,
      "chainId": 0
    }
  ]
}