{
  "hash": "0xac802f6265e1485906ac7e0c0e34c3ccc387a3d75ddb6842b571fb9fc5985517",
  "parentHash": "0x947e6f0592cd5fc4bc21c4cdf4ab77890faf091128fed5dfc666f3bbec255f73",
  "number": 111668,
  "timestamp": 1439994057,
  "nonce": "0x0e03aca1bc98d365",
  "difficulty": 4446011846400,
  "gasLimit": {
    "_hex": "0x2fefd8"
  },
  "gasUsed": {
    "_hex": "0x5208"
  },
  "miner": "0xe6A7a1d47ff21B6321162AEA7C6CB457D5476Bca",
  "extraData": "0x476574682f76312e302e312d38326566323666362f6c696e75782f676f312e34",
  "transactions": [
    {
      "hash": "0xbe7bfb6dc5935a59c97676d140537ecff0f28cbf5e9b34574c66e75efc70bd72",
      "blockHash": "0xac802f6265e1485906ac7e0c0e34c3ccc387a3d75ddb6842b571fb9fc5985517",
      "blockNumber": 111668,
      "transactionIndex": 0,
      "confirmations": null,
      "from": "0xb2Cc35A981a37f727C203350f78142ceCb16fb45",
      "gasPrice": {
        "_hex": "0xd6b187d36"
      },
      "gasLimit": {
        "_hex": "0x61a8"
      },
      "to": "0x34fDf2118f88a297b3750FAD5eEB307808d08378",
      "value": {
        "_hex": "0x4ed369e7f4380000"
      },
      "nonce": 4,
      "data": "0x",
      "r": "0x88a1c924f7ed115f90d30148835ed2e09777d10fcc5c0be7f34a53f2c83bb8ad",
      "s": "0x36a6f66261a4bd3f313757005d42fd261b3b483ae536f66883003f52f8bb8d2f",
      "v": 28,
      "creates": null,
      "raw": "0xf86c04850d6b187d368261a89434fdf2118f88a297b3750fad5eeb307808d08378884ed369e7f4380000801ca088a1c924f7ed115f90d30148835ed2e09777d10fcc5c0be7f34a53f2c83bb8ada036a6f66261a4bd3f313757005d42fd261b3b483ae536f66883003f52f8bb8d2f",
      "networkId": 0,
      "chainId": 0
    }
  ]
}