{
  "hash": "0xa07a46b9d0cafcdc0d8d9e7f79caa56305d832c699600b519d0ac137b614b7ca",
  "parentHash": "0xb278a302d1022ac0ab0f98dcf61d0ce2bdfb1103054dc2856b700c7d903b58bd",
  "number": 100541,
  "timestamp": 1439808196,
  "nonce": "0x1caabcb58eb57f75",
  "difficulty": 3824693912457,
  "gasLimit": {
    "_hex": "0x2fefd8"
  },
  "gasUsed": {
    "_hex": "0x5208"
  },
  "miner": "0xa70a9a7040d542C632D8e0bE7c5513A8a5Bbc752",
  "extraData": "0x",
  "transactions": [
    {
      "hash": "0x5165094ddbf15a680becaa2f5ea5ef18502ca8623a7163e72680309bfbbfdb83",
      "blockHash": "0xa07a46b9d0cafcdc0d8d9e7f79caa56305d832c699600b519d0ac137b614b7ca",
      "blockNumber": 100541,
      "transactionIndex": 0,
      "confirmations": null,
      "from": "0x6C26A66F05426f23E15b992C6EcE6E01aa9c253a",
      "gasPrice": {
        "_hex": "0xdfcd48d7a"
      },
      "gasLimit": {
        "_hex": "0x15f90"
      },
      "to": "0x6C26A66F05426f23E15b992C6EcE6E01aa9c253a",
      "value": {
        "_hex": "0x56ed754370ca9a1400"
      },
      "nonce": 0,
      "data": "0x",
      "r": "0x6beb399467871f9338efd08aff61571f649a49a333744ec6cdef7ad2bd433815",
      "s": "0x2dfa74270ae9cc115dddd31e47f1d9697735135a8e737e4bebcb9775237e1a65",
      "v": 27,
      "creates": null,
      "raw": "0xf86e80850dfcd48d7a83015f90946c26a66f05426f23e15b992c6ece6e01aa9c253a8956ed754370ca9a1400801ba06beb399467871f9338efd08aff61571f649a49a333744ec6cdef7ad2bd433815a02dfa74270ae9cc115dddd31e47f1d9697735135a8e737e4bebcb9775237e1a65",
      "networkId": 0,
      "chainId": 0
    }
  ]
}