{
  "hash": "0x26ee8fd98826978756955bce8d58c30185dbfc3e2914034be7b3f69401a5cb5c",
  "parentHash": "0xe322ef8f683dd6c2245378713d0fd61678db56180e6c4ed61fc0c3f1f05ebd0f",
  "number": 116188,
  "timestamp": 1440069840,
  "nonce": "0xbe2a5223b26f66e2",
  "difficulty": 4584672416953,
  "gasLimit": {
    "_hex": "0x2fefd8"
  },
  "gasUsed": {
    "_hex": "0x546c"
  },
  "miner": "0xe6A7a1d47ff21B6321162AEA7C6CB457D5476Bca",
  "extraData": "0x476574682f76312e302e312d38326566323666362f6c696e75782f676f312e34",
  "transactions": [
    {
      "hash": "0xa92ea62ac98781b0d8dea7c07e91c11c65f170fb59a73fb093d8555cb22cc61b",
      "blockHash": "0x26ee8fd98826978756955bce8d58c30185dbfc3e2914034be7b3f69401a5cb5c",
      "blockNumber": 116188,
      "transactionIndex": 0,
      "confirmations": null,
      "from": "0xC58b9Cc61dEDbb98c33F224d271f0e228b583433",
      "gasPrice": {
        "_hex": "0x110c8f7d8de"
      },
      "gasLimit": {
        "_hex": "0xc350"
      },
      "to": "0x2910543Af39abA0Cd09dBb2D50200b3E800A63D2",
      "value": {
        "_hex": "0x56bc75e2d63100000"
      },
      "nonce": 0,
      "data": "0x454e4e5a44374e4547",
      "r": "0x4e83b01a24ddec48a2bbded6c375468a7f717828ee0932c61631eb17353dcbad",
      "s": "0xbfd4b9deddceea7f497f43469c4d0ac2839de13f58a14e8a0414695ed909b4b5",
      "v": 27,
      "creates": null,
      "raw": "0xf87780860110c8f7d8de82c350942910543af39aba0cd09dbb2d50200b3e800a63d289056bc75e2d6310000089454e4e5a44374e45471ba04e83b01a24ddec48a2bbded6c375468a7f717828ee0932c61631eb17353dcbada0bfd4b9deddceea7f497f43469c4d0ac2839de13f58a14e8a0414695ed909b4b5",
      "networkId": 0,
      "chainId": 0
    }
  ]
}