{
  "hash": "0x557cdd9413609985038d8dfa4ae3e283e4f5ad945407bc285a0d7dfbcc5b4ec0",
  "parentHash": "0x844c6a5ba5e597e2c28c7b08d6c516e3b3920d2f034ea2873ae6cadd60d58d22",
  "number": 75414,
  "timestamp": 1439402952,
  "nonce": "0x9ec7137faf91a58d",
  "difficulty": 2201850158798,
  "gasLimit": {
    "_hex": "0x2fefd8"
  },
  "gasUsed": {
    "_hex": "0x5208"
  },
  "miner": "0x897d64aD0a333394b4E4ae8e8DCccdbc71d4E4E8",
  "extraData": "0x",
  "transactions": [
    {
      "hash": "0x6158f69d03cdbe1b5bf527fea81ba4caeacfdf79c258ff2cd1ea1ff908db1798",
      "blockHash": "0x557cdd9413609985038d8dfa4ae3e283e4f5ad945407bc285a0d7dfbcc5b4ec0",
      "blockNumber": 75414,
      "transactionIndex": 0,
      "confirmations": null,
      "from": "0x32Be343B94f860124dC4fEe278FDCBD38C102D88",
      "gasPrice": {
        "_hex": "0xd99979141"
      },
      "gasLimit": {
        "_hex": "0x5208"
      },
      "to": "0x910560734C1155e546d762CB1C5e1669E798AEb4",
      "value": {
        "_hex": "0x12f981ef7e5013000"
      },
      "nonce": 338,
      "data": "0x",
      "r": "0x8483fc000f175d6d52107d1d3bf210a2a8338f5e220071d752904b5b05176a70",
      "s": "0x4f57bfd3074fb98a0a15ff20e799746f27f42d43ee74f746a80de463de682388",
      "v": 27,
      "creates": null,
      "raw": "0xf86f820152850d9997914182520894910560734c1155e546d762cb1c5e1669e798aeb489012f981ef7e5013000801ba08483fc000f175d6d52107d1d3bf210a2a8338f5e220071d752904b5b05176a70a04f57bfd3074fb98a0a15ff20e799746f27f42d43ee74f746a80de463de682388",
      "networkId": 0,
      "chainId": 0
    }
  ]
}