{
  "hash": "0xd60bb387b7e834b2d96a7e8047384618effdae94c37aaef13dec895d44e8ab1b",
  "parentHash": "0x2f1c4697b0e45f1a1b9d4bb716f8e366be100bc26e22154e4b138bbc3dd8b15f",
  "number": 52685,
  "timestamp": 1439025631,
  "nonce": "0x4717c16e9448ffb3",
  "difficulty": 1570941998276,
  "gasLimit": {
    "_hex": "0x17b717"
  },
  "gasUsed": {
    "_hex": "0x16e360"
  },
  "miner": "0x0A63E1A8C33e351679e3581AC84ce341C32f813a",
  "extraData": "0x476574682f76312e302e312d38326566323666362f6c696e75782f676f312e34",
  "transactions": [
    {
      "hash": "0xabaf6eee261dd77549762eb36ac8f376bbdf60d492b2679acf62717544295860",
      "blockHash": "0xd60bb387b7e834b2d96a7e8047384618effdae94c37aaef13dec895d44e8ab1b",
      "blockNumber": 52685,
      "transactionIndex": 0,
      "confirmations": null,
      "from": "0x54dAeb3E8a6BBC797E4aD2b0339f134b186e4637",
      "gasPrice": {
        "_hex": "0xe7d27df17"
      },
      "gasLimit": {
        "_hex": "0x7a120"
      },
      "to": "0xBAA54d6E90c3F4d7Ebec11bD180134C7eD8eBb52",
      "value": {
        "_hex": "0x16345785d8a0000"
      },
      "nonce": 936,
      "data": "0x",
      "r": "0xd65c5b007cb325e2aa9ffb400c7df2f95da80e1a254b06b9df60874f65370daf",
      "s": "0x0f94e14aa9cb7889ec1c798ee6056dc7d3d29dcb89c5d9d5aa5906406ea5e456",
      "v": 28,
      "creates": null,
      "raw": "0xf86f8203a8850e7d27df178307a12094baa54d6e90c3f4d7ebec11bd180134c7ed8ebb5288016345785d8a0000801ca0d65c5b007cb325e2aa9ffb400c7df2f95da80e1a254b06b9df60874f65370dafa00f94e14aa9cb7889ec1c798ee6056dc7d3d29dcb89c5d9d5aa5906406ea5e456",
      "networkId": 0,
      "chainId": 0
    },
    {
      "hash": "0xeb7b29461fe4ef1c2ed7751b4eb7b01f1cf758f0b3eefdd50a1b6a22e4bd448c",
      "blockHash": "0xd60bb387b7e834b2d96a7e8047384618effdae94c37aaef13dec895d44e8ab1b",
      "blockNumber": 52685,
      "transactionIndex": 1,
      "confirmations": null,
      "from": "0x54dAeb3E8a6BBC797E4aD2b0339f134b186e4637",
      "gasPrice": {
        "_hex": "0xe7d27df17"
      },
      "gasLimit": {
        "_hex": "0x7a120"
      },
      "to": "0xBAA54d6E90c3F4d7Ebec11bD180134C7eD8eBb52",
      "value": {
        "_hex": "0x16345785d8a0000"
      },
      "nonce": 937,
      "data": "0x",
      "r": "0xd328596d23ee40582e6c4a429ab66043923183dd9406bf6e7acf0dff1df8e465",
      "s": "0x591932fa3d9936a5a732588ff041babeebb188edcc9b205845a3c226a02b0de0",
      "v": 28,
      "creates": null,
      "raw": "0xf86f8203a9850e7d27df178307a12094baa54d6e90c3f4d7ebec11bd180134c7ed8ebb5288016345785d8a0000801ca0d328596d23ee40582e6c4a429ab66043923183dd9406bf6e7acf0dff1df8e465a0591932fa3d9936a5a732588ff041babeebb188edcc9b205845a3c226a02b0de0",
      "networkId": 0,
      "chainId": 0
    },
    {
      "hash": "0x6a777b75362f6d419eb79643bfa234b8180373997ed9a1e9ba932b5d6cb18c52",
      "blockHash": "0xd60bb387b7e834b2d96a7e8047384618effdae94c37aaef13dec895d44e8ab1b",
      "blockNumber": 52685,
      "transactionIndex": 2,
      "confirmations": null,
      "from": "0x54dAeb3E8a6BBC797E4aD2b0339f134b186e4637",
      "gasPrice": {
        "_hex": "0xdf4ba21f9"
      },
      "gasLimit": {
        "_hex": "0x7a120"
      },
      "to": "0xBAA54d6E90c3F4d7Ebec11bD180134C7eD8eBb52",
      "value": {
        "_hex": "0x16345785d8a0000"
      },
      "nonce": 938,
      "data": "0x",
      "r": "0xbec1f5a3bb99a09a35b8f3c44f3c552cd78076b2fca35a1bce953efd8a2bf7af",
      "s": "0x0adf90ec6118978cbb09956a4fd5def6e305825b6589778f53d8d6c0f8f91d3e",
      "v": 28,
      "creates": null,
      "raw": "0xf86f8203aa850df4ba21f98307a12094baa54d6e90c3f4d7ebec11bd180134c7ed8ebb5288016345785d8a0000801ca0bec1f5a3bb99a09a35b8f3c44f3c552cd78076b2fca35a1bce953efd8a2bf7afa00adf90ec6118978cbb09956a4fd5def6e305825b6589778f53d8d6c0f8f91d3e",
      "networkId": 0,
      "chainId": 0
    }
  ]
}