{
  "hash": "0xe7e8b2c685c0000d4baa7020aea9172dd6a629b5f8ab360d8e9e237dd58d281e",
  "parentHash": "0xa49c695d78259c42c27c707a2a0b0e8e3c25a909c641f0441fa34cb525511505",
  "number": 46873,
  "timestamp": 1438930797,
  "nonce": "0x1b4623cecb306df9",
  "difficulty": 1455311313970,
  "gasLimit": {
    "_hex": "0x812f"
  },
  "gasUsed": {
    "_hex": "0x5208"
  },
  "miner": "0xeB1325C8D9d3ea8D74aC11F4B00F1B2367686319",
  "extraData": "0x476574682f76312e302e312f77696e646f77732f676f312e342e32",
  "transactions": [
    {
      "hash": "0x3f9f692321f11266754dde392af66a8de23a7ed28616458353c83dbc59b75bb3",
      "blockHash": "0xe7e8b2c685c0000d4baa7020aea9172dd6a629b5f8ab360d8e9e237dd58d281e",
      "blockNumber": 46873,
      "transactionIndex": 0,
      "confirmations": null,
      "from": "0xe6A7a1d47ff21B6321162AEA7C6CB457D5476Bca",
      "gasPrice": {
        "_hex": "0xddca89f8b"
      },
      "gasLimit": {
        "_hex": "0x5208"
      },
      "to": "0xF178805EA39C903a49e6A465DBD40f22576aE24a",
      "value": {
        "_hex": "0x150c2d2b3700eed8"
      },
      "nonce": 12,
      "data": "0x",
      "r": "0x7695d34b536d9237bad79a2d8e33d3e4adbc0108feb583d8cf98b42eeef79f02",
      "s": "0x6a0b5d202fe83f2b188541236c3b581d01c7c4102b62861bc2d1f4f95fe9f790",
      "v": 27,
      "creates": null,
      "raw": "0xf86c0c850ddca89f8b82520894f178805ea39c903a49e6a465dbd40f22576ae24a88150c2d2b3700eed8801ba07695d34b536d9237bad79a2d8e33d3e4adbc0108feb583d8cf98b42eeef79f02a06a0b5d202fe83f2b188541236c3b581d01c7c4102b62861bc2d1f4f95fe9f790",
      "networkId": 0,
      "chainId": 0
    }
  ]
}