{
  "hash": "0xa39508ebcbc175d5016770befb462b467b4e0453cfe5def4affb97c40be923ec",
  "parentHash": "0xa20c9161f6aec263cfd8544be30911af00a4a5375e70e6a977b02c700706943b",
  "number": 57346,
  "timestamp": 1439101654,
  "nonce": "0x81df0557aef03afa",
  "difficulty": 1740456013589,
  "gasLimit": {
    "_hex": "0x2fefd5"
  },
  "gasUsed": {
    "_hex": "0xa4d0"
  },
  "miner": "0x64c0f4A860176e4f956550703F0eF522A9eD06F9",
  "extraData": "0x476574682f76312e302e312d38326566323666362f6c696e75782f676f312e34",
  "transactions": [
    {
      "hash": "0x5484194479d46eccb2c66f9ef77bc0ac8e8b82ff325cfd312f81b41edcc1a7ef",
      "blockHash": "0xa39508ebcbc175d5016770befb462b467b4e0453cfe5def4affb97c40be923ec",
      "blockNumber": 57346,
      "transactionIndex": 0,
      "confirmations": null,
      "from": "0x95a204DD5D814E40f300bA0DfB1194286F03e28A",
      "gasPrice": {
        "_hex": "0x746a528800"
      },
      "gasLimit": {
        "_hex": "0x5bc4"
      },
      "to": "0x71f913897f689FE1c71FF4a8009CBfe512660C6C",
      "value": {
        "_hex": "0x5af3107a4000"
      },
      "nonce": 1,
      "data": "0x000000000000000000000000000000000000000000000000000000000000007b",
      "r": "0xfe6fcdf91f571efbc9232469f2a8d005aae0e460296fd010361c52188426d1a4",
      "s": "0x290ffcf81306bb05624c79b1c1e5a88b89973a0d343bb975149f3362d62621a1",
      "v": 28,
      "creates": null,
      "raw": "0xf88a0185746a528800825bc49471f913897f689fe1c71ff4a8009cbfe512660c6c865af3107a4000a0000000000000000000000000000000000000000000000000000000000000007b1ca0fe6fcdf91f571efbc9232469f2a8d005aae0e460296fd010361c52188426d1a4a0290ffcf81306bb05624c79b1c1e5a88b89973a0d343bb975149f3362d62621a1",
      "networkId": 0,
      "chainId": 0
    },
    {
      "hash": "0x704b14c2df226aca583a9453301074b39d26bea4c27c48ec2b8583c6813e7d7c",
      "blockHash": "0xa39508ebcbc175d5016770befb462b467b4e0453cfe5def4affb97c40be923ec",
      "blockNumber": 57346,
      "transactionIndex": 1,
      "confirmations": null,
      "from": "0x3e0b8ed86ed669E12723AF7572FbacfE829b1e16",
      "gasPrice": {
        "_hex": "0xd66782c4b"
      },
      "gasLimit": {
        "_hex": "0x15f90"
      },
      "to": "0x0004B15be8cB573A7be023e203E268DbcFFD302B",
      "value": {
        "_hex": "0x50c5e761a444080000"
      },
      "nonce": 2,
      "data": "0x",
      "r": "0x6bbcc895bf5de41055f00b1ddf64b475e06cea32a27ee4ec932ad2a82c84073d",
      "s": "0x4366340e830ff073af083128a1a4dc19302f65b25e9c831455eaaf6e8f568c51",
      "v": 27,
      "creates": null,
      "raw": "0xf86e02850d66782c4b83015f90940004b15be8cb573a7be023e203e268dbcffd302b8950c5e761a444080000801ba06bbcc895bf5de41055f00b1ddf64b475e06cea32a27ee4ec932ad2a82c84073da04366340e830ff073af083128a1a4dc19302f65b25e9c831455eaaf6e8f568c51",
      "networkId": 0,
      "chainId": 0
    }
  ]
}