{
  "hash": "0xb495a28615b6a136dca3885cb3d89e9febd4fc706b5899e38454aa011a2a1716",
  "parentHash": "0x4e53a2480c9afb00fb593434d544dd9d38b3a4a0aa5489391e726b3f2d930ff7",
  "number": 86761,
  "timestamp": 1439582482,
  "nonce": "0xd9e020dd348d321f",
  "difficulty": 2951693098036,
  "gasLimit": {
    "_hex": "0x2fefd8"
  },
  "gasUsed": {
    "_hex": "0x5208"
  },
  "miner": "0xf927a40C8B7F6E07c5af7FA2155B4864a4112B13",
  "extraData": "0x",
  "transactions": [
    {
      "hash": "0xa1cdfbce9f214b01e9540671d1c27b07eb1e7120a427773a96886125f4470cb6",
      "blockHash": "0xb495a28615b6a136dca3885cb3d89e9febd4fc706b5899e38454aa011a2a1716",
      "blockNumber": 86761,
      "transactionIndex": 0,
      "confirmations": null,
      "from": "0x2910543Af39abA0Cd09dBb2D50200b3E800A63D2",
      "gasPrice": {
        "_hex": "0xcc510f6d3"
      },
      "gasLimit": {
        "_hex": "0x5208"
      },
      "to": "0xCe0df7AD79C6DBaB57E0b7ddc7612Bb087AaffF4",
      "value": {
        "_hex": "0x1a043a59465d78000"
      },
      "nonce": 678,
      "data": "0x",
      "r": "0xc562f228839be0d97dfa1d472631883cdc586a420605399fa97403afebcbf4f7",
      "s": "0x61789c247142eef93a9039deb87fade2588a1652e8ecbbbdb996e575a0321cd1",
      "v": 27,
      "creates": null,
      "raw": "0xf86f8202a6850cc510f6d382520894ce0df7ad79c6dbab57e0b7ddc7612bb087aafff48901a043a59465d78000801ba0c562f228839be0d97dfa1d472631883cdc586a420605399fa97403afebcbf4f7a061789c247142eef93a9039deb87fade2588a1652e8ecbbbdb996e575a0321cd1",
      "networkId": 0,
      "chainId": 0
    }
  ]
}