{
  "hash": "0x406b23fd7c5cdebcbb9203945cf272161b4564a64a9d0e1e9f538d1dfde2fe1f",
  "parentHash": "0x877b8cefa524411dd0831bc8616f258dcfe34a636b89db53b4ff78bd745c5f43",
  "number": 48638,
  "timestamp": 1438960248,
  "nonce": "0xbaf5cedd583cf220",
  "difficulty": 1472875285687,
  "gasLimit": {
    "_hex": "0x1b15b"
  },
  "gasUsed": {
    "_hex": "0xa674"
  },
  "miner": "0xe6A7a1d47ff21B6321162AEA7C6CB457D5476Bca",
  "extraData": "0x657468706f6f6c2e6f7267",
  "transactions": [
    {
      "hash": "0xfcd9751c4a1d18012be57df25b0c4d42f9954ad801919a0d839f77b02d6235b0",
      "blockHash": "0x406b23fd7c5cdebcbb9203945cf272161b4564a64a9d0e1e9f538d1dfde2fe1f",
      "blockNumber": 48638,
      "transactionIndex": 0,
      "confirmations": null,
      "from": "0x80bF995Ed8ba92701D10Fec49f9e7D014DBeE026",
      "gasPrice": {
        "_hex": "0xd44837214"
      },
      "gasLimit": {
        "_hex": "0x15f90"
      },
      "to": "0xd43630311cCE705Cb1d69EA014F64b34BeF443d1",
      "value": {
        "_hex": "0xde0b6b3a7640000"
      },
      "nonce": 0,
      "data": "0x",
      "r": "0x16003a0ed727eb7b3a4500d36cd96d961a1f36cb3826023c8fbf48e5a42f7cfb",
      "s": "0x4a960b7415a18738ff0b9c287172e443875d83afd40adb06aa6e5c39a374c725",
      "v": 27,
      "creates": null,
      "raw": "0xf86d80850d4483721483015f9094d43630311cce705cb1d69ea014f64b34bef443d1880de0b6b3a7640000801ba016003a0ed727eb7b3a4500d36cd96d961a1f36cb3826023c8fbf48e5a42f7cfba04a960b7415a18738ff0b9c287172e443875d83afd40adb06aa6e5c39a374c725",
      "networkId": 0,
      "chainId": 0
    },
    {
      "hash": "0x5441f43c6a549387c1e01d7dbcb735f44b9af2d2c5de936d41f28b9ac0a51794",
      "blockHash": "0x406b23fd7c5cdebcbb9203945cf272161b4564a64a9d0e1e9f538d1dfde2fe1f",
      "blockNumber": 48638,
      "transactionIndex": 1,
      "confirmations": null,
      "from": "0x709fe9d2C1f1ce42207c9585044A60899F35942f",
      "gasPrice": {
        "_hex": "0xe6ab9bd80"
      },
      "gasLimit": {
        "_hex": "0x55f0"
      },
      "to": "0x2910543Af39abA0Cd09dBb2D50200b3E800A63D2",
      "value": {
        "_hex": "0x3627e8f712373c0000"
      },
      "nonce": 1,
      "data": "0x454e43304244483138",
      "r": "0xc361133ca5f457abb95b6f3e2beef03a7694bdc98458616a7e7450003d798269",
      "s": "0x6322442c1a151ca3cfd0e95474a259255c91d26f38035d212809c09ebf4ab860",
      "v": 28,
      "creates": null,
      "raw": "0xf87601850e6ab9bd808255f0942910543af39aba0cd09dbb2d50200b3e800a63d2893627e8f712373c000089454e433042444831381ca0c361133ca5f457abb95b6f3e2beef03a7694bdc98458616a7e7450003d798269a06322442c1a151ca3cfd0e95474a259255c91d26f38035d212809c09ebf4ab860",
      "networkId": 0,
      "chainId": 0
    }
  ]
}