{
  "hash": "0xb39a69eec7fd1739c85f5fcf26c406d8253f34835c9c6b5233b636bfe5691d06",
  "parentHash": "0x08475fa198966de795bbb912fd353a21118a66f4b7079bfa280d966596988605",
  "number": 50487,
  "timestamp": 1438990125,
  "nonce": "0xca52f5b8061392af",
  "difficulty": 1508207458620,
  "gasLimit": {
    "_hex": "0x66145"
  },
  "gasUsed": {
    "_hex": "0x12082"
  },
  "miner": "0x36F60f6fAe70855D6a506c3cbDfa8B1Cc4d77c35",
  "extraData": "0x476574682f76312e302e312f6c696e75782f676f312e342e32",
  "transactions": [
    {
      "hash": "0x3fac854179691e377fc1aa180b71a4033b6bb3bde2a7ef00bc8e78f849ad356e",
      "blockHash": "0xb39a69eec7fd1739c85f5fcf26c406d8253f34835c9c6b5233b636bfe5691d06",
      "blockNumber": 50487,
      "transactionIndex": 0,
      "confirmations": null,
      "from": "0xEAb290b146d9fC82589a817012Aa157D5963aa61",
      "gasPrice": {
        "_hex": "0xcf00e7b15"
      },
      "gasLimit": {
        "_hex": "0x61a80"
      },
      "to": "0xBAA54d6E90c3F4d7Ebec11bD180134C7eD8eBb52",
      "value": {
        "_hex": "0x16345785d8a0000"
      },
      "nonce": 1,
      "data": "0x",
      "r": "0xc77137804f03ac2a4529af47d4b7563714c5e22cb9d53008fc11b7c8b84db163",
      "s": "0x0dc9e71957f86c68353ab64dfd116779816822eb61871bcb00504c420b05cab7",
      "v": 28,
      "creates": null,
      "raw": "0xf86d01850cf00e7b1583061a8094baa54d6e90c3f4d7ebec11bd180134c7ed8ebb5288016345785d8a0000801ca0c77137804f03ac2a4529af47d4b7563714c5e22cb9d53008fc11b7c8b84db163a00dc9e71957f86c68353ab64dfd116779816822eb61871bcb00504c420b05cab7",
      "networkId": 0,
      "chainId": 0
    }
  ]
}