{
  "hash": "0xacc4fbedbdd53e0ec9bd40975d5dc09e4fe1bcbe8eeb4903f5e3829e8e5fc89a",
  "parentHash": "0x16452ff476de7a6883bdd6d2461fc604c8953b792db6f2aa95cb8e4dc4ebf386",
  "number": 104691,
  "timestamp": 1439873881,
  "nonce": "0xc05654b6eaa94bee",
  "difficulty": 4357258642693,
  "gasLimit": {
    "_hex": "0x2fefd8"
  },
  "gasUsed": {
    "_hex": "0x5208"
  },
  "miner": "0xe6A7a1d47ff21B6321162AEA7C6CB457D5476Bca",
  "extraData": "0x476574682f76312e302e312d38326566323666362f6c696e75782f676f312e34",
  "transactions": [
    {
      "hash": "0xb56bc55f4fe577247f799348a38f6dbb55b5429c4993e5c8038a85f607666b30",
      "blockHash": "0xacc4fbedbdd53e0ec9bd40975d5dc09e4fe1bcbe8eeb4903f5e3829e8e5fc89a",
      "blockNumber": 104691,
      "transactionIndex": 0,
      "confirmations": null,
      "from": "0x223eA75ACE9d7F53BC6c131191Aff34B44bd57aC",
      "gasPrice": {
        "_hex": "0xcfc9a810f"
      },
      "gasLimit": {
        "_hex": "0x5208"
      },
      "to": "0x7339BF89A60F8a29d0Ed436F3198774F8e191f37",
      "value": {
        "_hex": "0x4563918244f40000"
      },
      "nonce": 5,
      "data": "0x",
      "r": "0xeae6366cfe623252833d6ec56f46f25b212679c5229072f4eb9167f4f19350bc",
      "s": "0x6e3c26b3ba0ab57ec3811f2f6fd7d58f8eba1e70836784be3068890a62c6a996",
      "v": 27,
      "creates": null,
      "raw": "0xf86c05850cfc9a810f825208947339bf89a60f8a29d0ed436f3198774f8e191f37884563918244f40000801ba0eae6366cfe623252833d6ec56f46f25b212679c5229072f4eb9167f4f19350bca06e3c26b3ba0ab57ec3811f2f6fd7d58f8eba1e70836784be3068890a62c6a996",
      "networkId": 0,
      "chainId": 0
    }
  ]
}