{
  "hash": "0xb0158895c004279a38f5a2f01b780e431b32f487d17633a08db2344167fac000",
  "parentHash": "0x9ac19f739f6a55fc177adcd614e43d9685a6100abfe793624fb7f3a8b6e8539b",
  "number": 97242,
  "timestamp": 1439753077,
  "nonce": "0x49cd7ea28adbea90",
  "difficulty": 3783468732844,
  "gasLimit": {
    "_hex": "0x2fefd8"
  },
  "gasUsed": {
    "_hex": "0x5208"
  },
  "miner": "0x580992B51e3925e23280EfB93d3047C82f17E038",
  "extraData": "0x476574682f76312e302e312f6c696e75782f676f312e342e32",
  "transactions": [
    {
      "hash": "0xd1237e3f3a33037fe308b64eb64f104c301162c103f03de38d9620a7347e0b74",
      "blockHash": "0xb0158895c004279a38f5a2f01b780e431b32f487d17633a08db2344167fac000",
      "blockNumber": 97242,
      "transactionIndex": 0,
      "confirmations": null,
      "from": "0x120A270bbC009644e35F0bB6ab13f95b8199c4ad",
      "gasPrice": {
        "_hex": "0xd1fdd6c7d"
      },
      "gasLimit": {
        "_hex": "0x3d090"
      },
      "to": "0xf6FC17A34bc34A0B30CecACEe3A3eDDBDB926B24",
      "value": {
        "_hex": "0x2514e15dd353f65000"
      },
      "nonce": 641,
      "data": "0x",
      "r": "0x01fab22dc371c18acca3752fa714c83c7a8c7620ed49a62f3ef615fe8029d525",
      "s": "0x042d84c4411aa62dbd6fc7d2e426af6de2880ce836bc7548886dab743f79454a",
      "v": 28,
      "creates": null,
      "raw": "0xf870820281850d1fdd6c7d8303d09094f6fc17a34bc34a0b30cecacee3a3eddbdb926b24892514e15dd353f65000801ca001fab22dc371c18acca3752fa714c83c7a8c7620ed49a62f3ef615fe8029d525a0042d84c4411aa62dbd6fc7d2e426af6de2880ce836bc7548886dab743f79454a",
      "networkId": 0,
      "chainId": 0
    }
  ]
}