{
  "hash": "0xbee0c8d1b124e129b2fd190d59a4c8674b4d0149f8a245616fd98dc4b08a6691",
  "parentHash": "0xc63886ac38498341165e1c5548a891ab9ae5ae9e32cbd95eb1c189dc2de631cd",
  "number": 115314,
  "timestamp": 1440055071,
  "nonce": "0x48d79d9bea65db1d",
  "difficulty": 4553913200323,
  "gasLimit": {
    "_hex": "0x2fefd8"
  },
  "gasUsed": {
    "_hex": "0xf618"
  },
  "miner": "0xa50ec0D39fa913E62f1Bae7074E6F36caA71855b",
  "extraData": "0xd783010001844765746887676f312e342e32856c696e7578",
  "transactions": [
    {
      "hash": "0x6f3f25c2e2974d91f4b23ad7b1da629e4de0eea731d6200bd073cffb6fe0be99",
      "blockHash": "0xbee0c8d1b124e129b2fd190d59a4c8674b4d0149f8a245616fd98dc4b08a6691",
      "blockNumber": 115314,
      "transactionIndex": 0,
      "confirmations": null,
      "from": "0xeD3Fe86896534C24D9F91232faE34b78DFf3c1f4",
      "gasPrice": {
        "_hex": "0xdac4a85f1"
      },
      "gasLimit": {
        "_hex": "0x5208"
      },
      "to": "0x32Be343B94f860124dC4fEe278FDCBD38C102D88",
      "value": {
        "_hex": "0x3db53df76d684800"
      },
      "nonce": 9,
      "data": "0x",
      "r": "0xb44ce5fe460ae3d2139a64977bb31af5f4d9f98c8eda6f9766b232e36b71cb3c",
      "s": "0x19b86318fe4f209b8c927adab6ab01fd26a5a211adf2e815de2e431b9571914c",
      "v": 27,
      "creates": null,
      "raw": "0xf86c09850dac4a85f18252089432be343b94f860124dc4fee278fdcbd38c102d88883db53df76d684800801ba0b44ce5fe460ae3d2139a64977bb31af5f4d9f98c8eda6f9766b232e36b71cb3ca019b86318fe4f209b8c927adab6ab01fd26a5a211adf2e815de2e431b9571914c",
      "networkId": 0,
      "chainId": 0
    },
    {
      "hash": "0x5e3552c130a9c1560e91d7df47f177ae0492c2b840448358feb60a553944e819",
      "blockHash": "0xbee0c8d1b124e129b2fd190d59a4c8674b4d0149f8a245616fd98dc4b08a6691",
      "blockNumber": 115314,
      "transactionIndex": 1,
      "confirmations": null,
      "from": "0x18883522e2679aA9b41E0fA688F20c3802897525",
      "gasPrice": {
        "_hex": "0xdac4a85f1"
      },
      "gasLimit": {
        "_hex": "0x5208"
      },
      "to": "0x32Be343B94f860124dC4fEe278FDCBD38C102D88",
      "value": {
        "_hex": "0x50403f997ccbe400"
      },
      "nonce": 10,
      "data": "0x",
      "r": "0xd1dc39ca4e531aaef1c1a45cb2cc815277f00a55fd1bdb083db87ae496ed5325",
      "s": "0x0da01c841e646439914b3e55ff207d06eb6c3bef4b2fecb7d6b01bc38de619d5",
      "v": 28,
      "creates": null,
      "raw": "0xf86c0a850dac4a85f18252089432be343b94f860124dc4fee278fdcbd38c102d888850403f997ccbe400801ca0d1dc39ca4e531aaef1c1a45cb2cc815277f00a55fd1bdb083db87ae496ed5325a00da01c841e646439914b3e55ff207d06eb6c3bef4b2fecb7d6b01bc38de619d5",
      "networkId": 0,
      "chainId": 0
    },
    {
      "hash": "0xda35be893b311bd4fc99d923c158ac066e05f4e5eeee1cea33476c5be19e7b10",
      "blockHash": "0xbee0c8d1b124e129b2fd190d59a4c8674b4d0149f8a245616fd98dc4b08a6691",
      "blockNumber": 115314,
      "transactionIndex": 2,
      "confirmations": null,
      "from": "0xec4B2cCFC84A4C62d73D56c44917986aAAaEe10f",
      "gasPrice": {
        "_hex": "0xdac4a85f1"
      },
      "gasLimit": {
        "_hex": "0x5208"
      },
      "to": "0x32Be343B94f860124dC4fEe278FDCBD38C102D88",
      "value": {
        "_hex": "0x37fa35ca79649000"
      },
      "nonce": 8,
      "data": "0x",
      "r": "0xc846a01085fb8f5fbee63ff0dc0a91f8d7ea8ec87543d2599784a9789c362228",
      "s": "0x5f165b37a4faf34f909220f1873afa03e8b4347f7be60adda0ea0d03332847f3",
      "v": 27,
      "creates": null,
      "raw": "0xf86c08850dac4a85f18252089432be343b94f860124dc4fee278fdcbd38c102d888837fa35ca79649000801ba0c846a01085fb8f5fbee63ff0dc0a91f8d7ea8ec87543d2599784a9789c362228a05f165b37a4faf34f909220f1873afa03e8b4347f7be60adda0ea0d03332847f3",
      "networkId": 0,
      "chainId": 0
    }
  ]
}