{
  "hash": "0x7c5ece41a341dc464e81c3c2d47ab22cb8814773f6b129fe84eecd4a33a924a7",
  "parentHash": "0x2d4f090c1005fca30d79eaa75b51d180d8a847ea4d79cf61a8a5d3d44b42b22a",
  "number": 105470,
  "timestamp": 1439888204,
  "nonce": "0x6cfd195caee3946d",
  "difficulty": 4393169840198,
  "gasLimit": {
    "_hex": "0x2fefd8"
  },
  "gasUsed": {
    "_hex": "0xf618"
  },
  "miner": "0x0D4EcC7d750180EBf4A9Df728B6669B5Bceb5E40",
  "extraData": "0x",
  "transactions": [
    {
      "hash": "0x89c71982c721bb1300334a2b113c8815d953047457ce675769e5dd9dce969230",
      "blockHash": "0x7c5ece41a341dc464e81c3c2d47ab22cb8814773f6b129fe84eecd4a33a924a7",
      "blockNumber": 105470,
      "transactionIndex": 0,
      "confirmations": null,
      "from": "0x557C2806B6ceA65a66F415bb2Ed1ce897B340745",
      "gasPrice": {
        "_hex": "0xcdbed62b5"
      },
      "gasLimit": {
        "_hex": "0x5208"
      },
      "to": "0x32Be343B94f860124dC4fEe278FDCBD38C102D88",
      "value": {
        "_hex": "0x425b191c98f6c00"
      },
      "nonce": 7,
      "data": "0x",
      "r": "0x1a22eac887579b6b91ab1a4e0bdcbae4608fd4892384a7a20c9f8b8d4d0613e3",
      "s": "0x4b9cfbfbdc391fe3cfd75022e93d5ea665b7d08a3f50647d457520d1549d8a44",
      "v": 28,
      "creates": null,
      "raw": "0xf86c07850cdbed62b58252089432be343b94f860124dc4fee278fdcbd38c102d88880425b191c98f6c00801ca01a22eac887579b6b91ab1a4e0bdcbae4608fd4892384a7a20c9f8b8d4d0613e3a04b9cfbfbdc391fe3cfd75022e93d5ea665b7d08a3f50647d457520d1549d8a44",
      "networkId": 0,
      "chainId": 0
    },
    {
      "hash": "0x21418d106e93714ef8c5bd42f8aae162f31b4cbd01d24dab7d0f159a159b800e",
      "blockHash": "0x7c5ece41a341dc464e81c3c2d47ab22cb8814773f6b129fe84eecd4a33a924a7",
      "blockNumber": 105470,
      "transactionIndex": 1,
      "confirmations": null,
      "from": "0x10d50b62A87413dFD8b111398613F2eB8d819f6C",
      "gasPrice": {
        "_hex": "0xcdbed62b5"
      },
      "gasLimit": {
        "_hex": "0x5208"
      },
      "to": "0x32Be343B94f860124dC4fEe278FDCBD38C102D88",
      "value": {
        "_hex": "0x17f550bb6f6d65000"
      },
      "nonce": 1,
      "data": "0x",
      "r": "0x2e2729cf4fa73de79b9a07cf51f2bdff1dce24ea1225b41ce39f18922c5e0514",
      "s": "0x4d0d7441919adc28acb51513e7dbaeee168f0640fbb6e8db8b56632c94b46a56",
      "v": 27,
      "creates": null,
      "raw": "0xf86d01850cdbed62b58252089432be343b94f860124dc4fee278fdcbd38c102d8889017f550bb6f6d65000801ba02e2729cf4fa73de79b9a07cf51f2bdff1dce24ea1225b41ce39f18922c5e0514a04d0d7441919adc28acb51513e7dbaeee168f0640fbb6e8db8b56632c94b46a56",
      "networkId": 0,
      "chainId": 0
    },
    {
      "hash": "0x63c7aa35861eb68ae1446cc073aa9a77a1411376d5b25dff810a3a2b9ac88d82",
      "blockHash": "0x7c5ece41a341dc464e81c3c2d47ab22cb8814773f6b129fe84eecd4a33a924a7",
      "blockNumber": 105470,
      "transactionIndex": 2,
      "confirmations": null,
      "from": "0x795dAa7Cd2C81b20de241CE0751981faC4930070",
      "gasPrice": {
        "_hex": "0xcdbed62b5"
      },
      "gasLimit": {
        "_hex": "0x5208"
      },
      "to": "0x32Be343B94f860124dC4fEe278FDCBD38C102D88",
      "value": {
        "_hex": "0xb1f8d09b4d6d38000"
      },
      "nonce": 1,
      "data": "0x",
      "r": "0x23b6a0fbc4d66f7e0cc8a794e68a7d29f40efd9da96e451d71b83949c790819b",
      "s": "0x772bdd094dfd3df56d56c16937abf66978ace1d0f0c028f2901ed803e1378bde",
      "v": 27,
      "creates": null,
      "raw": "0xf86d01850cdbed62b58252089432be343b94f860124dc4fee278fdcbd38c102d88890b1f8d09b4d6d38000801ba023b6a0fbc4d66f7e0cc8a794e68a7d29f40efd9da96e451d71b83949c790819ba0772bdd094dfd3df56d56c16937abf66978ace1d0f0c028f2901ed803e1378bde",
      "networkId": 0,
      "chainId": 0
    }
  ]
}