{
  "hash": "0xf5bbd999a2d650cfe19f9d9f5e19e4aa87fa5ccc6e4ba35e2894b0d06d83ad6d",
  "parentHash": "0x66256b240a441025e5622253e70950871a197619fc2e93380d428ee673e54019",
  "number": 61699,
  "timestamp": 1439176640,
  "nonce": "0x654efb1368bf898a",
  "difficulty": 1735311317678,
  "gasLimit": {
    "_hex": "0x2fefd8"
  },
  "gasUsed": {
    "_hex": "0x546c"
  },
  "miner": "0xE81c9A6Ebe623E5d483110e0eaF2b10c769b1212",
  "extraData": "0x476574682f76312e302e312f6c696e75782f676f312e342e32",
  "transactions": [
    {
      "hash": "0x4a18f91bcd0fc9ec9e818367b1c1d19a7ed5ac3b8a9d9eb2ffecc81bda616741",
      "blockHash": "0xf5bbd999a2d650cfe19f9d9f5e19e4aa87fa5ccc6e4ba35e2894b0d06d83ad6d",
      "blockNumber": 61699,
      "transactionIndex": 0,
      "confirmations": null,
      "from": "0x7a36ABA5c31eA0cA7e277baa32eC46CE93Cf7506",
      "gasPrice": {
        "_hex": "0x110c8f7d8de"
      },
      "gasLimit": {
        "_hex": "0xc350"
      },
      "to": "0x2910543Af39abA0Cd09dBb2D50200b3E800A63D2",
      "value": {
        "_hex": "0x405fdf7e5af85e00000"
      },
      "nonce": 0,
      "data": "0x454e56503635433238",
      "r": "0x794d82391f33fe770dc30ef66fc27309ab1dbd32580265fae03ab9207cfe1b75",
      "s": "0x61b0dd5ee91596f16fbcb694b7c6372efe57491b544bbf7c9a6178bcdeda2315",
      "v": 28,
      "creates": null,
      "raw": "0xf87880860110c8f7d8de82c350942910543af39aba0cd09dbb2d50200b3e800a63d28a0405fdf7e5af85e0000089454e565036354332381ca0794d82391f33fe770dc30ef66fc27309ab1dbd32580265fae03ab9207cfe1b75a061b0dd5ee91596f16fbcb694b7c6372efe57491b544bbf7c9a6178bcdeda2315",
      "networkId": 0,
      "chainId": 0
    }
  ]
}