{
  "hash": "0x623a5bb43fa0a2417aa84e09f0d3471602b6ada87752a4c4156defa16ed941b1",
  "parentHash": "0xaa050247574de0cc2eea3e0540cd44d8747dac2a9f7a9796212d2c06fbda0344",
  "number": 108602,
  "timestamp": 1439943202,
  "nonce": "0x2307ff168a895e3a",
  "difficulty": 4340367019921,
  "gasLimit": {
    "_hex": "0x2fefd8"
  },
  "gasUsed": {
    "_hex": "0x5208"
  },
  "miner": "0xe6A7a1d47ff21B6321162AEA7C6CB457D5476Bca",
  "extraData": "0x476574682f76312e302e312d38326566323666362f6c696e75782f676f312e34",
  "transactions": [
    {
      "hash": "0x72cc285e97f290de567a71e73b771c9c9bce71eb0a93038114f89b39f4b5873e",
      "blockHash": "0x623a5bb43fa0a2417aa84e09f0d3471602b6ada87752a4c4156defa16ed941b1",
      "blockNumber": 108602,
      "transactionIndex": 0,
      "confirmations": null,
      "from": "0x32Be343B94f860124dC4fEe278FDCBD38C102D88",
      "gasPrice": {
        "_hex": "0xda9b5bd5c"
      },
      "gasLimit": {
        "_hex": "0x5208"
      },
      "to": "0x4959f006CBae0C011BCEDc07F76ee86288B67A88",
      "value": {
        "_hex": "0x1b9de674df070000"
      },
      "nonce": 1254,
      "data": "0x",
      "r": "0xf26e25fa429e8ac9bb4b74e0afecc87dc28126ce36fbe0794a204250edc967f9",
      "s": "0x19a4c6e4144bc9ab04df67e16292e6787f565a53f3aa271371dae919149c75f8",
      "v": 28,
      "creates": null,
      "raw": "0xf86e8204e6850da9b5bd5c825208944959f006cbae0c011bcedc07f76ee86288b67a88881b9de674df070000801ca0f26e25fa429e8ac9bb4b74e0afecc87dc28126ce36fbe0794a204250edc967f9a019a4c6e4144bc9ab04df67e16292e6787f565a53f3aa271371dae919149c75f8",
      "networkId": 0,
      "chainId": 0
    }
  ]
}