{
  "hash": "0x912924e28a1bd8c486a60d82584027711a8c39612f7c63114f6fe14f63e92726",
  "parentHash": "0x5014c3440917210c5b88be56eadab2227f78dab3fd33f811df6bcd5438f2c794",
  "number": 107991,
  "timestamp": 1439932161,
  "nonce": "0x70d79b3a96a08991",
  "difficulty": 4359800414501,
  "gasLimit": {
    "_hex": "0x2fefd8"
  },
  "gasUsed": {
    "_hex": "0x5208"
  },
  "miner": "0xe6A7a1d47ff21B6321162AEA7C6CB457D5476Bca",
  "extraData": "0x476574682f76312e302e312d38326566323666362f6c696e75782f676f312e34",
  "transactions": [
    {
      "hash": "0x33bd4cd4c1be4880fca8aa925a8b3852559d38ae9d9ea91f05cbb7752d1ae3f2",
      "blockHash": "0x912924e28a1bd8c486a60d82584027711a8c39612f7c63114f6fe14f63e92726",
      "blockNumber": 107991,
      "transactionIndex": 0,
      "confirmations": null,
      "from": "0x32Be343B94f860124dC4fEe278FDCBD38C102D88",
      "gasPrice": {
        "_hex": "0xd4852f503"
      },
      "gasLimit": {
        "_hex": "0x5208"
      },
      "to": "0x65553f5e8FA2eDfCe37Aec51A90ed28777dDe402",
      "value": {
        "_hex": "0x16345785d8a0000"
      },
      "nonce": 1238,
      "data": "0x",
      "r": "0x0045f7f0497f13ffb8062cfbce4178c71df158d501753a7b65ea7c37a35d5322",
      "s": "0x7487a1b0bb1ed528c41e30574d9e4eee1f8563ca9a4e109c1d74a6c35a045b69",
      "v": 28,
      "creates": null,
      "raw": "0xf86d8204d6850d4852f5038252089465553f5e8fa2edfce37aec51a90ed28777dde40288016345785d8a0000801c9f45f7f0497f13ffb8062cfbce4178c71df158d501753a7b65ea7c37a35d5322a07487a1b0bb1ed528c41e30574d9e4eee1f8563ca9a4e109c1d74a6c35a045b69",
      "networkId": 0,
      "chainId": 0
    }
  ]
}