{
  "hash": "0x8eb6db370a0700aefc75fe2218d32466275cac09a98e5ea2a1e73708a0265ef5",
  "parentHash": "0xd7940cbe5ef87258194324fc1da2b61670b2072eb94fc0e196bb66cc42ea982b",
  "number": 78168,
  "timestamp": 1439449476,
  "nonce": "0x1899b0aa65e7dbf7",
  "difficulty": 2279887132719,
  "gasLimit": {
    "_hex": "0x2fefd5"
  },
  "gasUsed": {
    "_hex": "0x5208"
  },
  "miner": "0x5F8F73E26CdF436f19Cb24C82F90A15AFe55b592",
  "extraData": "0x476574682f76312e302e312f77696e646f77732f676f312e342e32",
  "transactions": [
    {
      "hash": "0x7abbfa14797eb2cce29a7588b1a650bb332cb9fe64b4d3db9124b4ac523ab39e",
      "blockHash": "0x8eb6db370a0700aefc75fe2218d32466275cac09a98e5ea2a1e73708a0265ef5",
      "blockNumber": 78168,
      "transactionIndex": 0,
      "confirmations": null,
      "from": "0x00a96cBf4B8f63462A88591fACae98742D627855",
      "gasPrice": {
        "_hex": "0xccff4851d"
      },
      "gasLimit": {
        "_hex": "0x5208"
      },
      "to": "0x32Be343B94f860124dC4fEe278FDCBD38C102D88",
      "value": {
        "_hex": "0x6c6a1a3794bc480000"
      },
      "nonce": 0,
      "data": "0x",
      "r": "0x471c9b33b596a6646356d316aa4d69ea5b7b7989b7daa2375a7f9ce70aa8fc5a",
      "s": "0x22b9828a219be3426426f091720389e0ade138026002b623627272cf256a95b9",
      "v": 27,
      "creates": null,
      "raw": "0xf86d80850ccff4851d8252089432be343b94f860124dc4fee278fdcbd38c102d88896c6a1a3794bc480000801ba0471c9b33b596a6646356d316aa4d69ea5b7b7989b7daa2375a7f9ce70aa8fc5aa022b9828a219be3426426f091720389e0ade138026002b623627272cf256a95b9",
      "networkId": 0,
      "chainId": 0
    }
  ]
}