{
  "hash": "0x17758519569e7fc81b27441d62396c75c788fb704f643464298fce51b9271d4e",
  "parentHash": "0x8ec7dd574b8ef1397b9362874bdcb2ee93a93e84aeb0cf20118e8d12c19fa89d",
  "number": 70979,
  "timestamp": 1439328548,
  "nonce": "0xf7094a140226ebaf",
  "difficulty": 2161459550280,
  "gasLimit": {
    "_hex": "0x2fefd8"
  },
  "gasUsed": {
    "_hex": "0x152d1"
  },
  "miner": "0xe6A7a1d47ff21B6321162AEA7C6CB457D5476Bca",
  "extraData": "0x476574682f76312e302e312d38326566323666362f6c696e75782f676f312e34",
  "transactions": [
    {
      "hash": "0xea1f401bcbf773860544c440c4c42927ddb5b614ed27a0ed4a1924f493ddbbad",
      "blockHash": "0x17758519569e7fc81b27441d62396c75c788fb704f643464298fce51b9271d4e",
      "blockNumber": 70979,
      "transactionIndex": 0,
      "confirmations": null,
      "from": "0x17580B766f7453525ca4C6A88b01b50570EA088C",
      "gasPrice": {
        "_hex": "0xddc448d9d"
      },
      "gasLimit": {
        "_hex": "0x61a80"
      },
      "to": "0x5Fe5B7546D1628f7348B023A0393de1FC825A4fD",
      "value": {
        "_hex": "0x8ac7230489e80000"
      },
      "nonce": 70,
      "data": "0xb595b8b50000000000000000000000000000000000000000000000000000000000000001",
      "r": "0x539e0509f2c192c27cd2b4d386405a8cecd81cbc8aca265feffb7a15b38e3ad0",
      "s": "0x518b3c9e36836ae6a309ec3a91576632ff2494f52575d25e89ec950bf958cfb4",
      "v": 27,
      "creates": null,
      "raw": "0xf89146850ddc448d9d83061a80945fe5b7546d1628f7348b023a0393de1fc825a4fd888ac7230489e80000a4b595b8b500000000000000000000000000000000000000000000000000000000000000011ba0539e0509f2c192c27cd2b4d386405a8cecd81cbc8aca265feffb7a15b38e3ad0a0518b3c9e36836ae6a309ec3a91576632ff2494f52575d25e89ec950bf958cfb4",
      "networkId": 0,
      "chainId": 0
    },
    {
      "hash": "0xa06d7eaf0080e536aeb3899db816835827c90b82e26b30059c00019e598dfab4",
      "blockHash": "0x17758519569e7fc81b27441d62396c75c788fb704f643464298fce51b9271d4e",
      "blockNumber": 70979,
      "transactionIndex": 1,
      "confirmations": null,
      "from": "0xC4E15a24b5f80FCeBC7104b922B1baF37FdD708B",
      "gasPrice": {
        "_hex": "0xd59ffc7e0"
      },
      "gasLimit": {
        "_hex": "0x5208"
      },
      "to": "0x3FEFA8C1e27b90BD417C1E60C15a4C0cFf6f2562",
      "value": {
        "_hex": "0xe043da617250000"
      },
      "nonce": 1,
      "data": "0x",
      "r": "0x6d3d23ecafd5d2f00e6bdaa87d7dd2dc4ca93e2b0d5626ef1468704fcdd102f7",
      "s": "0x3c0174a818415bbed475933fee776050c9cb53d5d90543866815a984ae4ca7d6",
      "v": 28,
      "creates": null,
      "raw": "0xf86c01850d59ffc7e0825208943fefa8c1e27b90bd417c1e60c15a4c0cff6f2562880e043da617250000801ca06d3d23ecafd5d2f00e6bdaa87d7dd2dc4ca93e2b0d5626ef1468704fcdd102f7a03c0174a818415bbed475933fee776050c9cb53d5d90543866815a984ae4ca7d6",
      "networkId": 0,
      "chainId": 0
    },
    {
      "hash": "0x6ad06c3f340c85fc7a40e61672c1ccd899a84aa0f1658f6659851646fc86f491",
      "blockHash": "0x17758519569e7fc81b27441d62396c75c788fb704f643464298fce51b9271d4e",
      "blockNumber": 70979,
      "transactionIndex": 2,
      "confirmations": null,
      "from": "0x32Be343B94f860124dC4fEe278FDCBD38C102D88",
      "gasPrice": {
        "_hex": "0xd161cff43"
      },
      "gasLimit": {
        "_hex": "0x5208"
      },
      "to": "0xE30fBFf0F73d76643501B77772aBc74377dacE64",
      "value": {
        "_hex": "0x4563918244f40000"
      },
      "nonce": 260,
      "data": "0x",
      "r": "0x493401ed1db00b06f0e0739b5919de110a6b59c2ed990b5ecf15b3a05e0cabcc",
      "s": "0x1f40357d8557c3bb396ffab17a11d2eb50a3a0a2b7604a2781686e980be7db4f",
      "v": 27,
      "creates": null,
      "raw": "0xf86e820104850d161cff4382520894e30fbff0f73d76643501b77772abc74377dace64884563918244f40000801ba0493401ed1db00b06f0e0739b5919de110a6b59c2ed990b5ecf15b3a05e0cabcca01f40357d8557c3bb396ffab17a11d2eb50a3a0a2b7604a2781686e980be7db4f",
      "networkId": 0,
      "chainId": 0
    }
  ]
}