{
  "hash": "0xbfb5af22f9192a9ba6f48fcda9e74ec89cad1184fd16d6dad34d3b2d3bc660e0",
  "parentHash": "0x834e6f02debdaedf4cccca970111e5e180e9cc84506a073715eaff01d5ef5457",
  "number": 115440,
  "timestamp": 1440057348,
  "nonce": "0x8dd3b93757b02897",
  "difficulty": 4562747719622,
  "gasLimit": {
    "_hex": "0x2fefd8"
  },
  "gasUsed": {
    "_hex": "0x5208"
  },
  "miner": "0xe6A7a1d47ff21B6321162AEA7C6CB457D5476Bca",
  "extraData": "0x476574682f76312e302e312d38326566323666362f6c696e75782f676f312e34",
  "transactions": [
    {
      "hash": "0xf75f9b2ef7abbc7b80cec5322d50a6b54c6429a6fd2dd1ba3ad80b80e8999345",
      "blockHash": "0xbfb5af22f9192a9ba6f48fcda9e74ec89cad1184fd16d6dad34d3b2d3bc660e0",
      "blockNumber": 115440,
      "transactionIndex": 0,
      "confirmations": null,
      "from": "0x526384ca4cF099ECa3f719e8ac32dEf6eaDB1E80",
      "gasPrice": {
        "_hex": "0x746a528800"
      },
      "gasLimit": {
        "_hex": "0x5208"
      },
      "to": "0x40B9b889A21Ff1534d018D71Dc406122EBcf3F5A",
      "value": {
        "_hex": "0x93e689d36cc7ddc000"
      },
      "nonce": 4,
      "data": "0x",
      "r": "0x8b5f011430f4a6f3eec13f5292e3a6ab4303aa5e97bf0a2aca4d508e9d454dd7",
      "s": "0x5fc9d4b566690bb6a526458e6f523c9b3ccc443500de60c48cf5c01e2b8cc41b",
      "v": 28,
      "creates": null,
      "raw": "0xf86d0485746a5288008252089440b9b889a21ff1534d018d71dc406122ebcf3f5a8993e689d36cc7ddc000801ca08b5f011430f4a6f3eec13f5292e3a6ab4303aa5e97bf0a2aca4d508e9d454dd7a05fc9d4b566690bb6a526458e6f523c9b3ccc443500de60c48cf5c01e2b8cc41b",
      "networkId": 0,
      "chainId": 0
    }
  ]
}