{
  "hash": "0x6cf00a7a266e84afa6d3ff3c8159e020461a461151a01328b966153b8cdce4e2",
  "parentHash": "0x18c60a481dc14417c8d70ac696d0819cb75b4bef34986288a558d898801903aa",
  "number": 89124,
  "timestamp": 1439618576,
  "nonce": "0x7b0c06787abeefa1",
  "difficulty": 3261525105774,
  "gasLimit": {
    "_hex": "0x2fefd8"
  },
  "gasUsed": {
    "_hex": "0x5208"
  },
  "miner": "0x900deD2eC098c430caD5347E6F3322932D7BB3a9",
  "extraData": "0x476574682f76312e302e312f77696e646f77732f676f312e342e32",
  "transactions": [
    {
      "hash": "0x9c7dbecbb7b8637e99af06b60c31fa1a4d8e8a7b1b01b1d154e7123cfa41484d",
      "blockHash": "0x6cf00a7a266e84afa6d3ff3c8159e020461a461151a01328b966153b8cdce4e2",
      "blockNumber": 89124,
      "transactionIndex": 0,
      "confirmations": null,
      "from": "0xaEAf103356C2Ee943F748E8655659D29881323E1",
      "gasPrice": {
        "_hex": "0xd7d40ace3"
      },
      "gasLimit": {
        "_hex": "0x15f90"
      },
      "to": "0x6d84df1cFAD609EAc476cBC2553390bFC23Cf6Fc",
      "value": {
        "_hex": "0x1c30731cec0320000"
      },
      "nonce": 1,
      "data": "0x",
      "r": "0xc092400e0b8115e2715dbef2bba3b5c5012ee753c25b2ff6455ba380e9a9b7a4",
      "s": "0x2b3894c01fcc5df7a9951d56123980be27fecfb28fc8dffb4991a528468e2f67",
      "v": 27,
      "creates": null,
      "raw": "0xf86e01850d7d40ace383015f90946d84df1cfad609eac476cbc2553390bfc23cf6fc8901c30731cec0320000801ba0c092400e0b8115e2715dbef2bba3b5c5012ee753c25b2ff6455ba380e9a9b7a4a02b3894c01fcc5df7a9951d56123980be27fecfb28fc8dffb4991a528468e2f67",
      "networkId": 0,
      "chainId": 0
    }
  ]
}