{
  "hash": "0x260705ba9872fd5aab0452146d2b259ec02c48df1e5d7c7d37ab7fdb658580fb",
  "parentHash": "0xd5ccd3ca1fa17588bc454c74497a18295dd946d5667d2fc98e36275d9c581625",
  "number": 74276,
  "timestamp": 1439383467,
  "nonce": "0x40bda5208e004470",
  "difficulty": 2208609950868,
  "gasLimit": {
    "_hex": "0x2fefd8"
  },
  "gasUsed": {
    "_hex": "0x5208"
  },
  "miner": "0x9746c7e1ef2bd21FF3997fa467593a89cb852BD0",
  "extraData": "0x476574682f76312e302e312f77696e646f77732f676f312e342e32",
  "transactions": [
    {
      "hash": "0x0cf99dec87c4a45ea7b62436091788c29a1b8adab2f70fe1f875a6f6479dc031",
      "blockHash": "0x260705ba9872fd5aab0452146d2b259ec02c48df1e5d7c7d37ab7fdb658580fb",
      "blockNumber": 74276,
      "transactionIndex": 0,
      "confirmations": null,
      "from": "0xF0224ea727d4924A8dd69a8d2d473Cc4c3590423",
      "gasPrice": {
        "_hex": "0xcbda5ce5a"
      },
      "gasLimit": {
        "_hex": "0x5208"
      },
      "to": "0x32Be343B94f860124dC4fEe278FDCBD38C102D88",
      "value": {
        "_hex": "0x5e906af11bf0f800"
      },
      "nonce": 5,
      "data": "0x",
      "r": "0x41156cded39ddb8f6ba12777ae7824c7bf10502b0ed8612e23ed389bf00a5fee",
      "s": "0x41f4919be85c536816c19d604709d570ce30a114cbe9b5c9055c7e994c9ee43c",
      "v": 28,
      "creates": null,
      "raw": "0xf86c05850cbda5ce5a8252089432be343b94f860124dc4fee278fdcbd38c102d88885e906af11bf0f800801ca041156cded39ddb8f6ba12777ae7824c7bf10502b0ed8612e23ed389bf00a5feea041f4919be85c536816c19d604709d570ce30a114cbe9b5c9055c7e994c9ee43c",
      "networkId": 0,
      "chainId": 0
    }
  ]
}