{
  "hash": "0x9f3faa8519ccf84b6d32e4a7d86a9eeaf97cff12879028f2df4952d6763f91bc",
  "parentHash": "0x13ec642b28e85d13300e802131ca6196c9aa7712a35a732b02fc7fc51b090d71",
  "number": 91859,
  "timestamp": 1439662795,
  "nonce": "0xddae7b199abae641",
  "difficulty": 3475831466073,
  "gasLimit": {
    "_hex": "0x2fefd5"
  },
  "gasUsed": {
    "_hex": "0x5208"
  },
  "miner": "0xe6A7a1d47ff21B6321162AEA7C6CB457D5476Bca",
  "extraData": "0x476574682f76312e302e312d38326566323666362f6c696e75782f676f312e34",
  "transactions": [
    {
      "hash": "0x33da8988031b32abf24078d8b91cbbd90fe18ab9c798072455d8b9d9457f500b",
      "blockHash": "0x9f3faa8519ccf84b6d32e4a7d86a9eeaf97cff12879028f2df4952d6763f91bc",
      "blockNumber": 91859,
      "transactionIndex": 0,
      "confirmations": null,
      "from": "0xA143616A882230de7571d01f1916F0A781d6480a",
      "gasPrice": {
        "_hex": "0xdb45f63b1"
      },
      "gasLimit": {
        "_hex": "0x5208"
      },
      "to": "0x32Be343B94f860124dC4fEe278FDCBD38C102D88",
      "value": {
        "_hex": "0x471f92310b5b500000"
      },
      "nonce": 3,
      "data": "0x",
      "r": "0x01afbf8a2eed1e6eeca6a4d44252a09ab391c0ee295ada0c760987b95ef3d39b",
      "s": "0x5bb833ea74df0a15516fcc3f8ca2ac25761d68b5ff6228bb12a5e947aa74d142",
      "v": 27,
      "creates": null,
      "raw": "0xf86d03850db45f63b18252089432be343b94f860124dc4fee278fdcbd38c102d8889471f92310b5b500000801ba001afbf8a2eed1e6eeca6a4d44252a09ab391c0ee295ada0c760987b95ef3d39ba05bb833ea74df0a15516fcc3f8ca2ac25761d68b5ff6228bb12a5e947aa74d142",
      "networkId": 0,
      "chainId": 0
    }
  ]
}