{
  "hash": "0x0a2e2efe090b2db2808af7dcaa3d2cd8bf9dfd88a7ef9b41b820d4d74743d6c7",
  "parentHash": "0x3e63faf85ae55cff31a5bf619478a498f1839eaef3c457881eb91dec9a37f666",
  "number": 46860,
  "timestamp": 1438930537,
  "nonce": "0x91d497e2793ea790",
  "difficulty": 1456024345198,
  "gasLimit": {
    "_hex": "0x801a"
  },
  "gasUsed": {
    "_hex": "0x5208"
  },
  "miner": "0x70137010922f2fC2964b3792907F79FBB75fEbe8",
  "extraData": "0x476574682f76312e302e302f6c696e75782f676f312e342e32",
  "transactions": [
    {
      "hash": "0x57b8cbf1ff9c759a018bb369383cbfc48188c38df37356598d52300dd219a5c6",
      "blockHash": "0x0a2e2efe090b2db2808af7dcaa3d2cd8bf9dfd88a7ef9b41b820d4d74743d6c7",
      "blockNumber": 46860,
      "transactionIndex": 0,
      "confirmations": null,
      "from": "0x53dAc344f48a004729edB5A2aB8900893B904783",
      "gasPrice": {
        "_hex": "0xd7b76eeca"
      },
      "gasLimit": {
        "_hex": "0x5208"
      },
      "to": "0x32Be343B94f860124dC4fEe278FDCBD38C102D88",
      "value": {
        "_hex": "0xddc64ba9b345400"
      },
      "nonce": 0,
      "data": "0x",
      "r": "0x21fbf3008097421c4e2e9bfc10f6d11e6b5b2b7f50b6293a90df176a51c94a75",
      "s": "0x499a6cec37405592c8874f4559c4998eae8543bbac237ec104fd4b5586381277",
      "v": 27,
      "creates": null,
      "raw": "0xf86c80850d7b76eeca8252089432be343b94f860124dc4fee278fdcbd38c102d88880ddc64ba9b345400801ba021fbf3008097421c4e2e9bfc10f6d11e6b5b2b7f50b6293a90df176a51c94a75a0499a6cec37405592c8874f4559c4998eae8543bbac237ec104fd4b5586381277",
      "networkId": 0,
      "chainId": 0
    }
  ]
}