{
  "hash": "0xaebd1004819c644ba9cbc48b764416678373179f323612fd24aca8dd2c520386",
  "parentHash": "0xe7f239e882a4d4cc951f46d6ad0fff3e421dc8d44ee82a07daa4ac2f0ac0eed6",
  "number": 83028,
  "timestamp": 1439528755,
  "nonce": "0x69bde2044fb23aa3",
  "difficulty": 2411351095142,
  "gasLimit": {
    "_hex": "0x2fefd8"
  },
  "gasUsed": {
    "_hex": "0x1bdbe"
  },
  "miner": "0xf8E0CA3Ed80bd541b94BEdCf259e8CF2141A9523",
  "extraData": "0x476574682f76312e302e312f77696e646f77732f676f312e342e32",
  "transactions": [
    {
      "hash": "0xf955ecebe80a199f24768771eb748a630a6fb2d8ded2d9e2cfd7bb44a3b6bb25",
      "blockHash": "0xaebd1004819c644ba9cbc48b764416678373179f323612fd24aca8dd2c520386",
      "blockNumber": 83028,
      "transactionIndex": 0,
      "confirmations": null,
      "from": "0x1c11Aa45C792e202e9ffDc2F12f99D0d209BEf70",
      "gasPrice": {
        "_hex": "0xddad40613"
      },
      "gasLimit": {
        "_hex": "0x249f0"
      },
      "to": "0x3983237438eB69D0C7b9AA3A4619F3738105c7f0",
      "value": {
        "_hex": "0x4"
      },
      "nonce": 18,
      "data": "0x45466f3a",
      "r": "0xefbf3785388d640a4090995b7bed9362798681bb0d96ea8215cf0063056c1809",
      "s": "0x7c82d6df3abdcae01f5b044f69a05a37ff5b60c19d479db566fa4b6e28740d18",
      "v": 28,
      "creates": null,
      "raw": "0xf86912850ddad40613830249f0943983237438eb69d0c7b9aa3a4619f3738105c7f0048445466f3a1ca0efbf3785388d640a4090995b7bed9362798681bb0d96ea8215cf0063056c1809a07c82d6df3abdcae01f5b044f69a05a37ff5b60c19d479db566fa4b6e28740d18",
      "networkId": 0,
      "chainId": 0
    }
  ]
}