{
  "hash": "0xddbd3dc520cf0e3100e6dc45d96fb0c6ab855e2f1cfccdb958da6b8b75448b2f",
  "parentHash": "0x81e8aa836a28e0669b5bc1b64868e674bef6e2a28b336ec33feb34c526242e24",
  "number": 85343,
  "timestamp": 1439562200,
  "nonce": "0x7a08f869c207d874",
  "difficulty": 2732998976470,
  "gasLimit": {
    "_hex": "0x2fefd8"
  },
  "gasUsed": {
    "_hex": "0x5208"
  },
  "miner": "0x47ff6576639c2e94762eA5443978D7681C0E78DC",
  "extraData": "0x476574682f76312e302e312f6c696e75782f676f312e342e32",
  "transactions": [
    {
      "hash": "0x9cbd1e885c2a4fcb5974a9063d0778324808102a783de35ed20c875e78127432",
      "blockHash": "0xddbd3dc520cf0e3100e6dc45d96fb0c6ab855e2f1cfccdb958da6b8b75448b2f",
      "blockNumber": 85343,
      "transactionIndex": 0,
      "confirmations": null,
      "from": "0x2910543Af39abA0Cd09dBb2D50200b3E800A63D2",
      "gasPrice": {
        "_hex": "0xd993bab4c"
      },
      "gasLimit": {
        "_hex": "0x5208"
      },
      "to": "0x2f86ba8019945f39edE131D38d4d8780884DA553",
      "value": {
        "_hex": "0xa05a6d4c5eed978000"
      },
      "nonce": 608,
      "data": "0x",
      "r": "0xf372f1314d3133893ccdd274f116662171a828e441dea0ac24c7b2c3cbbcbc7d",
      "s": "0x3b445d0ca1a57306193180db5bedd2b34278c00bc1ec7708ab8f1eab1719096d",
      "v": 28,
      "creates": null,
      "raw": "0xf86f820260850d993bab4c825208942f86ba8019945f39ede131d38d4d8780884da55389a05a6d4c5eed978000801ca0f372f1314d3133893ccdd274f116662171a828e441dea0ac24c7b2c3cbbcbc7da03b445d0ca1a57306193180db5bedd2b34278c00bc1ec7708ab8f1eab1719096d",
      "networkId": 0,
      "chainId": 0
    }
  ]
}