{
  "hash": "0xd2cf5ba07b033cfc50328e808106dc87c109615e8ee46ba4f8e8ad6f1518baba",
  "parentHash": "0x6d826e90db689a7c99509eac16c43f147071ae78ea57365c535863440e26679a",
  "number": 71783,
  "timestamp": 1439341881,
  "nonce": "0x09bab3c8d024a4aa",
  "difficulty": 2171831193842,
  "gasLimit": {
    "_hex": "0x2fefd8"
  },
  "gasUsed": {
    "_hex": "0x5208"
  },
  "miner": "0xf927a40C8B7F6E07c5af7FA2155B4864a4112B13",
  "extraData": "0x",
  "transactions": [
    {
      "hash": "0xa364662bdc33d77928362b2c820913b11ce93689884f37380e5ed4ee86da8b0b",
      "blockHash": "0xd2cf5ba07b033cfc50328e808106dc87c109615e8ee46ba4f8e8ad6f1518baba",
      "blockNumber": 71783,
      "transactionIndex": 0,
      "confirmations": null,
      "from": "0xcFc4E6f7f8b011414BfBa42F23AdFAA78d4ecc5E",
      "gasPrice": {
        "_hex": "0xd23ee12e2"
      },
      "gasLimit": {
        "_hex": "0x15f90"
      },
      "to": "0x26fd654dDe413DE0F2e4ba1bA1eDf063FeeD9383",
      "value": {
        "_hex": "0xad78ebc5ac6200000"
      },
      "nonce": 2,
      "data": "0x",
      "r": "0xc3ce70c314537cc577aa38d78a8dbacb485670cf6496057e228fa1148f8f62d2",
      "s": "0x783fb411e5cab3d5e1ada9c8fa4e9def11e15f2f4cceae9f8863d2976a24dba9",
      "v": 28,
      "creates": null,
      "raw": "0xf86e02850d23ee12e283015f909426fd654dde413de0f2e4ba1ba1edf063feed9383890ad78ebc5ac6200000801ca0c3ce70c314537cc577aa38d78a8dbacb485670cf6496057e228fa1148f8f62d2a0783fb411e5cab3d5e1ada9c8fa4e9def11e15f2f4cceae9f8863d2976a24dba9",
      "networkId": 0,
      "chainId": 0
    }
  ]
}