{
  "hash": "0xb64d4b2eb896c57ede1585271cda2c3f49a88b7bed65da11ba927c80dc12a001",
  "parentHash": "0xd8b258c3666672f00d48753333dd28df7c9438159490a7207574b9b4352e9414",
  "number": 77486,
  "timestamp": 1439438122,
  "nonce": "0x7a413afa8be7c0a6",
  "difficulty": 2238156532181,
  "gasLimit": {
    "_hex": "0x2fefd8"
  },
  "gasUsed": {
    "_hex": "0x5208"
  },
  "miner": "0xe6A7a1d47ff21B6321162AEA7C6CB457D5476Bca",
  "extraData": "0x476574682f76312e302e312d38326566323666362f6c696e75782f676f312e34",
  "transactions": [
    {
      "hash": "0x3558bbe5c4e0e9b237cced37f74cb932f1c8dcf09c10040f374096f6b6a45c75",
      "blockHash": "0xb64d4b2eb896c57ede1585271cda2c3f49a88b7bed65da11ba927c80dc12a001",
      "blockNumber": 77486,
      "transactionIndex": 0,
      "confirmations": null,
      "from": "0x9F3a74Fd5e7edCC1162993171381cbB632b7cFF0",
      "gasPrice": {
        "_hex": "0xd64d2a15d"
      },
      "gasLimit": {
        "_hex": "0x5208"
      },
      "to": "0xF0539A232722b1ac1BF9EDd44AF75EF756b523C1",
      "value": {
        "_hex": "0x1b1ae4d6e2ef500000"
      },
      "nonce": 0,
      "data": "0x",
      "r": "0x25c6eed6cd8ba5ef64afda7915a6b65398fe6c68c4de6d0c34d68a41456dc8aa",
      "s": "0x64f1478180856ad14f0a702f3a59c1b5afa9cbc114801c6490add42290670fa8",
      "v": 27,
      "creates": null,
      "raw": "0xf86d80850d64d2a15d82520894f0539a232722b1ac1bf9edd44af75ef756b523c1891b1ae4d6e2ef500000801ba025c6eed6cd8ba5ef64afda7915a6b65398fe6c68c4de6d0c34d68a41456dc8aaa064f1478180856ad14f0a702f3a59c1b5afa9cbc114801c6490add42290670fa8",
      "networkId": 0,
      "chainId": 0
    }
  ]
}