{
  "hash": "0x1ef01f9b420b2eab393e7b2bfdb9bf1fa309ceb6fef16ea3793efe03f19c75a7",
  "parentHash": "0xe0230d78c4864866f615abe5f56d71b3985b46bd2c1aebf851dfd9e736166a4e",
  "number": 78961,
  "timestamp": 1439462284,
  "nonce": "0x4ceeddf9c2b2dc96",
  "difficulty": 2294188215775,
  "gasLimit": {
    "_hex": "0x2fefd8"
  },
  "gasUsed": {
    "_hex": "0x5208"
  },
  "miner": "0xA0cd872D3Abd6c4BaA55f15C35aC05730a1b621b",
  "extraData": "0x",
  "transactions": [
    {
      "hash": "0xd3e83923f94353cec2bda7c9b8abbb1ea74d21a5da4c1a0baee5ac4e570c91ae",
      "blockHash": "0x1ef01f9b420b2eab393e7b2bfdb9bf1fa309ceb6fef16ea3793efe03f19c75a7",
      "blockNumber": 78961,
      "transactionIndex": 0,
      "confirmations": null,
      "from": "0xf70328Ef97625Fe745faA49ee0F9D4Aa3b0dFb69",
      "gasPrice": {
        "_hex": "0xd641f460d"
      },
      "gasLimit": {
        "_hex": "0x15f90"
      },
      "to": "0x873fB972fb3F75472404127d84FeF54DeA200059",
      "value": {
        "_hex": "0xde0b6b3a7640000"
      },
      "nonce": 0,
      "data": "0x",
      "r": "0xde85a89191b56c242c392aac1ed3b027a38607a025252983e22dcf222af79611",
      "s": "0x14fe555f15d93ffe7c55ae698fbff0a5a7a20ace4dc8cb9b756c00479ab57b7b",
      "v": 28,
      "creates": null,
      "raw": "0xf86d80850d641f460d83015f9094873fb972fb3f75472404127d84fef54dea200059880de0b6b3a7640000801ca0de85a89191b56c242c392aac1ed3b027a38607a025252983e22dcf222af79611a014fe555f15d93ffe7c55ae698fbff0a5a7a20ace4dc8cb9b756c00479ab57b7b",
      "networkId": 0,
      "chainId": 0
    }
  ]
}