{
  "hash": "0x3dd7ee7f223ae55e0bea6d742ba1706f2f2c1b80a78b44e14ec772f7720d2fe5",
  "parentHash": "0x37e724670b5ba084009caad0c553a50cc9d6aa523fb0ada1bec6cd8f09359b6b",
  "number": 61673,
  "timestamp": 1439176161,
  "nonce": "0xae5ed57771736e95",
  "difficulty": 1740408086666,
  "gasLimit": {
    "_hex": "0x2fefd8"
  },
  "gasUsed": {
    "_hex": "0x2a20"
  },
  "miner": "0xE4Dd37247830493DE1Df7c758DD746DCdE19419e",
  "extraData": "0x476574682f76312e302e312f77696e646f77732f676f312e342e32",
  "transactions": [
    {
      "hash": "0x62a13ab9eafc6a223c00da66b39177bac2ffb63d1e367a14caef9f7b04801529",
      "blockHash": "0x3dd7ee7f223ae55e0bea6d742ba1706f2f2c1b80a78b44e14ec772f7720d2fe5",
      "blockNumber": 61673,
      "transactionIndex": 0,
      "confirmations": null,
      "from": "0xE2beA3e7d349ab64EBD9873418e78912e13CD35f",
      "gasPrice": {
        "_hex": "0xd69b48315"
      },
      "gasLimit": {
        "_hex": "0x15f90"
      },
      "to": "0x3d20CA881Df543228b314BBE1D47bB54DB124383",
      "value": {
        "_hex": "0x0"
      },
      "nonce": 9,
      "data": "0x41c0e1b5",
      "r": "0x7830186f4e7440b064ee03fe2cc3029852082461df3550ae66c6a9f0498df762",
      "s": "0x799c17455b04eb7aa2c0e8c7fa32c89447595259b40dcf6ef95433d5f2ef9334",
      "v": 27,
      "creates": null,
      "raw": "0xf86909850d69b4831583015f90943d20ca881df543228b314bbe1d47bb54db124383808441c0e1b51ba07830186f4e7440b064ee03fe2cc3029852082461df3550ae66c6a9f0498df762a0799c17455b04eb7aa2c0e8c7fa32c89447595259b40dcf6ef95433d5f2ef9334",
      "networkId": 0,
      "chainId": 0
    }
  ]
}