{
  "hash": "0x69362d37359fd708b720a492dafef2a50a971f05610c68dfd01915b9218db35e",
  "parentHash": "0x9708a8e1090f13ae75c4d290c5f8fe3c3206d263fef59d112c1f98b1f8dec64d",
  "number": 111249,
  "timestamp": 1439987160,
  "nonce": "0xb9896c183ac19c20",
  "difficulty": 4392288530148,
  "gasLimit": {
    "_hex": "0x2fefd8"
  },
  "gasUsed": {
    "_hex": "0x5208"
  },
  "miner": "0x623d2411c3bb3340784155F9a688b0085251aB5c",
  "extraData": "0x",
  "transactions": [
    {
      "hash": "0x384f68d061012d62d7d2cb000d9e7c66b393f0faac2064adbf8a81b561c9dc77",
      "blockHash": "0x69362d37359fd708b720a492dafef2a50a971f05610c68dfd01915b9218db35e",
      "blockNumber": 111249,
      "transactionIndex": 0,
      "confirmations": null,
      "from": "0x790b8a3cE86E707ED0eD32bF89B3269692a23CC1",
      "gasPrice": {
        "_hex": "0xd2156841c"
      },
      "gasLimit": {
        "_hex": "0x15f90"
      },
      "to": "0x4D67f4F0Db45b3B5a3424B39ed8d972F710381D5",
      "value": {
        "_hex": "0x2c2612051fb620000"
      },
      "nonce": 44,
      "data": "0x",
      "r": "0x9b02e961af1bc89b43a1f263bbfab988e45795c8f2692992a4ec520dc2e2fafe",
      "s": "0x3b67978143fe5dc3842cff165aa6bf6ac79f21d4b5335c597b5e0d5cdb733513",
      "v": 27,
      "creates": null,
      "raw": "0xf86e2c850d2156841c83015f90944d67f4f0db45b3b5a3424b39ed8d972f710381d58902c2612051fb620000801ba09b02e961af1bc89b43a1f263bbfab988e45795c8f2692992a4ec520dc2e2fafea03b67978143fe5dc3842cff165aa6bf6ac79f21d4b5335c597b5e0d5cdb733513",
      "networkId": 0,
      "chainId": 0
    }
  ]
}