{
  "hash": "0x255f9d34b8c5f2863781e7c2ab14665a358c880b1a6fca46010cf6175a1b5cf1",
  "parentHash": "0x810b1e1a0cc27226042031aee11ae24a65fbafd3bfc6cac9e9ed67d905464b1d",
  "number": 101504,
  "timestamp": 1439823969,
  "nonce": "0xb549cf40ac54ca5c",
  "difficulty": 3856131290492,
  "gasLimit": {
    "_hex": "0x2fefd8"
  },
  "gasUsed": {
    "_hex": "0xa410"
  },
  "miner": "0x9D49F602b0fdb924Bd63DDE2Bd0907E4A07c63a7",
  "extraData": "0x476574682f76312e302e312f6c696e75782f676f312e342e32",
  "transactions": [
    {
      "hash": "0xf5e0d7fdc635f2930c9118d4476bd790957a3bc56fa5a79508153e6a295937cc",
      "blockHash": "0x255f9d34b8c5f2863781e7c2ab14665a358c880b1a6fca46010cf6175a1b5cf1",
      "blockNumber": 101504,
      "transactionIndex": 0,
      "confirmations": null,
      "from": "0x48fd93dbcc39f6531B44901Ff472112eAc83C917",
      "gasPrice": {
        "_hex": "0xba43b7400"
      },
      "gasLimit": {
        "_hex": "0x15f90"
      },
      "to": "0xc597A5d92F5dC1137D847db733cfe02c6d209f13",
      "value": {
        "_hex": "0xb78f8a5b7f9fa4f0"
      },
      "nonce": 1,
      "data": "0x",
      "r": "0x54f45fc82a331383843a5a9f9839ea8a934954331257acac7ad6b165a5e9aa2e",
      "s": "0x5ea85b3eb6be1d362b229af8b2feb1210cf7ae2a4567895e9379a2cf0944dd13",
      "v": 28,
      "creates": null,
      "raw": "0xf86d01850ba43b740083015f9094c597a5d92f5dc1137d847db733cfe02c6d209f1388b78f8a5b7f9fa4f0801ca054f45fc82a331383843a5a9f9839ea8a934954331257acac7ad6b165a5e9aa2ea05ea85b3eb6be1d362b229af8b2feb1210cf7ae2a4567895e9379a2cf0944dd13",
      "networkId": 0,
      "chainId": 0
    },
    {
      "hash": "0xcfd9519bce0885686eeb30d8c66e6d993a2b03d2696f0fe13d8f6c06cd99ca01",
      "blockHash": "0x255f9d34b8c5f2863781e7c2ab14665a358c880b1a6fca46010cf6175a1b5cf1",
      "blockNumber": 101504,
      "transactionIndex": 1,
      "confirmations": null,
      "from": "0x338043c8592eDAdd5969B5529090D7eE1C466e14",
      "gasPrice": {
        "_hex": "0xba43b7400"
      },
      "gasLimit": {
        "_hex": "0x15f90"
      },
      "to": "0xc597A5d92F5dC1137D847db733cfe02c6d209f13",
      "value": {
        "_hex": "0x1acab06ca88c228a8"
      },
      "nonce": 1,
      "data": "0x",
      "r": "0xabc70243ce18892554c94b8f387dc14359546db76e3454a8b6304398d9782184",
      "s": "0x4227b0bc026f69b42e985fca68c368f966f934fb08efccaf661cf7ca55fcebf5",
      "v": 28,
      "creates": null,
      "raw": "0xf86e01850ba43b740083015f9094c597a5d92f5dc1137d847db733cfe02c6d209f138901acab06ca88c228a8801ca0abc70243ce18892554c94b8f387dc14359546db76e3454a8b6304398d9782184a04227b0bc026f69b42e985fca68c368f966f934fb08efccaf661cf7ca55fcebf5",
      "networkId": 0,
      "chainId": 0
    }
  ]
}