{
  "hash": "0x3620516c37528ea35cf758e9ed9a069446895b846c494f8dde887e0c05cb3705",
  "parentHash": "0x58df08608dbe0f6a72aa25dc1911ac6e859d45f9ee4bb46446e4a61917967805",
  "number": 83074,
  "timestamp": 1439529766,
  "nonce": "0x35a9ad9c1b4ac9d1",
  "difficulty": 2401936956036,
  "gasLimit": {
    "_hex": "0x2fefd8"
  },
  "gasUsed": {
    "_hex": "0x5208"
  },
  "miner": "0x723E05fF30e4ba7A87b4D7D459eE5B488A9c36d1",
  "extraData": "0x",
  "transactions": [
    {
      "hash": "0xcfa780bc064297b22bdbfbe172c69a548eab134291614ee00576760bae5448fd",
      "blockHash": "0x3620516c37528ea35cf758e9ed9a069446895b846c494f8dde887e0c05cb3705",
      "blockNumber": 83074,
      "transactionIndex": 0,
      "confirmations": null,
      "from": "0x972ad000397A3c903299F1353d6d4b85eE4E4e2A",
      "gasPrice": {
        "_hex": "0xd232763c7"
      },
      "gasLimit": {
        "_hex": "0x5208"
      },
      "to": "0x32Be343B94f860124dC4fEe278FDCBD38C102D88",
      "value": {
        "_hex": "0x1e5b4d08d6a93c000"
      },
      "nonce": 7,
      "data": "0x",
      "r": "0x0eb0a8cb5ff2c419a61e67734012abd96d16d7236559324371d7666fa3fd5914",
      "s": "0x0f31fa2d3f581b97ea91617f3d33d65f3346db6f127eccd5539c8ba3b89f86d7",
      "v": 28,
      "creates": null,
      "raw": "0xf86d07850d232763c78252089432be343b94f860124dc4fee278fdcbd38c102d888901e5b4d08d6a93c000801ca00eb0a8cb5ff2c419a61e67734012abd96d16d7236559324371d7666fa3fd5914a00f31fa2d3f581b97ea91617f3d33d65f3346db6f127eccd5539c8ba3b89f86d7",
      "networkId": 0,
      "chainId": 0
    }
  ]
}