{
  "hash": "0x0d62ae42f082ccfcaccd0b1905abd2eb6b43080bf0dc38ffa7b7896b618c079a",
  "parentHash": "0xc8c2adbe494545c06bb32131b4e189799fd7e1efdf19d385a7e6684f31b83237",
  "number": 89518,
  "timestamp": 1439624630,
  "nonce": "0xe7ada1e601c23a06",
  "difficulty": 3335454262221,
  "gasLimit": {
    "_hex": "0x2fefd8"
  },
  "gasUsed": {
    "_hex": "0x5208"
  },
  "miner": "0xaB638742EBe3A78F2a85028350e1AADB86C0a6ed",
  "extraData": "0x",
  "transactions": [
    {
      "hash": "0xb2cbd2def022b749d9023fd670862380ae9da131f69f67bbc55697f34148ff08",
      "blockHash": "0x0d62ae42f082ccfcaccd0b1905abd2eb6b43080bf0dc38ffa7b7896b618c079a",
      "blockNumber": 89518,
      "transactionIndex": 0,
      "confirmations": null,
      "from": "0x8293b65bD915B9FF87F6aDAb479da2e5b6633fDB",
      "gasPrice": {
        "_hex": "0xcc70456af"
      },
      "gasLimit": {
        "_hex": "0x15f90"
      },
      "to": "0x9f78552704fe7e52cC7C3853534aA2C3cf580D54",
      "value": {
        "_hex": "0x8ac7230489e80000"
      },
      "nonce": 1,
      "data": "0x",
      "r": "0x6daf1b74db5664687e2f66b3fcdc2bc8a27ad908d95f8542b325335254d6c894",
      "s": "0x7c6b984057f9f100f56e7ffbea29989b7828f34440bc23864cad13159e49bf13",
      "v": 27,
      "creates": null,
      "raw": "0xf86d01850cc70456af83015f90949f78552704fe7e52cc7c3853534aa2c3cf580d54888ac7230489e80000801ba06daf1b74db5664687e2f66b3fcdc2bc8a27ad908d95f8542b325335254d6c894a07c6b984057f9f100f56e7ffbea29989b7828f34440bc23864cad13159e49bf13",
      "networkId": 0,
      "chainId": 0
    }
  ]
}