{
  "hash": "0xd3ceba987766e4d962df2430b3033bdf31fac4e6fcbfa30135ec8167cd8bcf3f",
  "parentHash": "0xde89b20f826941549f5065efad98db286b881ae861cfc7a35c6b620bfed216f6",
  "number": 47403,
  "timestamp": 1438939673,
  "nonce": "0xf92b087ae3bf5511",
  "difficulty": 1453798949847,
  "gasLimit": {
    "_hex": "0xb975"
  },
  "gasUsed": {
    "_hex": "0xa410"
  },
  "miner": "0x77ae86B52e88E569BBc84Dd0F70d5b8905F589c9",
  "extraData": "0x41676520616e64204c756b65204f776e6564207468697320426c6f636b",
  "transactions": [
    {
      "hash": "0x22409e83d87eca8f7b1997cc17d9f8af3a2428578045866998c615ae482106f6",
      "blockHash": "0xd3ceba987766e4d962df2430b3033bdf31fac4e6fcbfa30135ec8167cd8bcf3f",
      "blockNumber": 47403,
      "transactionIndex": 0,
      "confirmations": null,
      "from": "0xe6A7a1d47ff21B6321162AEA7C6CB457D5476Bca",
      "gasPrice": {
        "_hex": "0x18938407f7"
      },
      "gasLimit": {
        "_hex": "0x5208"
      },
      "to": "0x841B562a690B0808405F6E3713E1efdbebA96021",
      "value": {
        "_hex": "0x11c7c8889bfc7b300"
      },
      "nonce": 131,
      "data": "0x",
      "r": "0x588bc29cb12da00ba6f6f65b409ec08b5ad9fe802bfccf7d295ac6eff159f995",
      "s": "0x4b8b29d88ef1dbe9c00d941ced16ccaf10e26cbc26d3dbd6ad055906778c4244",
      "v": 28,
      "creates": null,
      "raw": "0xf86e81838518938407f782520894841b562a690b0808405f6e3713e1efdbeba9602189011c7c8889bfc7b300801ca0588bc29cb12da00ba6f6f65b409ec08b5ad9fe802bfccf7d295ac6eff159f995a04b8b29d88ef1dbe9c00d941ced16ccaf10e26cbc26d3dbd6ad055906778c4244",
      "networkId": 0,
      "chainId": 0
    },
    {
      "hash": "0x925604ea568ee3986e116b39da65a20c386685eec96a48cd27c12eef122d02bc",
      "blockHash": "0xd3ceba987766e4d962df2430b3033bdf31fac4e6fcbfa30135ec8167cd8bcf3f",
      "blockNumber": 47403,
      "transactionIndex": 1,
      "confirmations": null,
      "from": "0xe6A7a1d47ff21B6321162AEA7C6CB457D5476Bca",
      "gasPrice": {
        "_hex": "0x18938407f7"
      },
      "gasLimit": {
        "_hex": "0x5208"
      },
      "to": "0xfC989CB487bf1a7d17E4C1B7C4B7aaFdda6B0a8D",
      "value": {
        "_hex": "0x11da67945c6041bc8"
      },
      "nonce": 132,
      "data": "0x",
      "r": "0xf7a85e9af44d1332ec8d18131c03eeb39968f0c6c082e7cb12f166e68e0372fc",
      "s": "0x1509c98c7bdfbf5a89d2e08f30e8ba15ce9696efabdf11c68e0cb8a591058719",
      "v": 28,
      "creates": null,
      "raw": "0xf86e81848518938407f782520894fc989cb487bf1a7d17e4c1b7c4b7aafdda6b0a8d89011da67945c6041bc8801ca0f7a85e9af44d1332ec8d18131c03eeb39968f0c6c082e7cb12f166e68e0372fca01509c98c7bdfbf5a89d2e08f30e8ba15ce9696efabdf11c68e0cb8a591058719",
      "networkId": 0,
      "chainId": 0
    }
  ]
}