{
  "hash": "0xbacd39e1e33674154f6529f133110b09acbd3acdb208b21ef1d1af8030e55e12",
  "parentHash": "0xe16d73047956d2e9fa6d00ec82e7bd050b2d3ca3cb25ef8ebd30febbbb265787",
  "number": 110591,
  "timestamp": 1439976326,
  "nonce": "0xb00959c4b276304d",
  "difficulty": 4366970244598,
  "gasLimit": {
    "_hex": "0x2fefd8"
  },
  "gasUsed": {
    "_hex": "0xa410"
  },
  "miner": "0xe6A7a1d47ff21B6321162AEA7C6CB457D5476Bca",
  "extraData": "0x476574682f76312e302e312d38326566323666362f6c696e75782f676f312e34",
  "transactions": [
    {
      "hash": "0x3ee8e967a77a0bb7c6917bc1f4025a1bb29c8a4e871e03310f8884a89dffe74c",
      "blockHash": "0xbacd39e1e33674154f6529f133110b09acbd3acdb208b21ef1d1af8030e55e12",
      "blockNumber": 110591,
      "transactionIndex": 0,
      "confirmations": null,
      "from": "0x82f600f520d879ecc6101C4e8cdD6522Fdd24778",
      "gasPrice": {
        "_hex": "0xd6ed059f3"
      },
      "gasLimit": {
        "_hex": "0x5208"
      },
      "to": "0x32Be343B94f860124dC4fEe278FDCBD38C102D88",
      "value": {
        "_hex": "0x281f97e15e42800"
      },
      "nonce": 0,
      "data": "0x",
      "r": "0x9fdeec12ac2475e9c569b0d99e07608cf0139d94b7e2376dab65828c55e002d3",
      "s": "0x4b6df5526efa855d2f9c1674bbf21b4d0fc27eb173eff834e05026b69fb87264",
      "v": 28,
      "creates": null,
      "raw": "0xf86c80850d6ed059f38252089432be343b94f860124dc4fee278fdcbd38c102d88880281f97e15e42800801ca09fdeec12ac2475e9c569b0d99e07608cf0139d94b7e2376dab65828c55e002d3a04b6df5526efa855d2f9c1674bbf21b4d0fc27eb173eff834e05026b69fb87264",
      "networkId": 0,
      "chainId": 0
    },
    {
      "hash": "0xa5a14ae9799814ecf3f72d5c29d19bd34384e63ba9c91bc9096c6723fcda36e9",
      "blockHash": "0xbacd39e1e33674154f6529f133110b09acbd3acdb208b21ef1d1af8030e55e12",
      "blockNumber": 110591,
      "transactionIndex": 1,
      "confirmations": null,
      "from": "0xd9c13364c95E5f8e35d4bD4830e974a0652f83D8",
      "gasPrice": {
        "_hex": "0xd6ed059f3"
      },
      "gasLimit": {
        "_hex": "0x5208"
      },
      "to": "0x32Be343B94f860124dC4fEe278FDCBD38C102D88",
      "value": {
        "_hex": "0x8ebd87c407e7000"
      },
      "nonce": 0,
      "data": "0x",
      "r": "0x174970d6478df361c6492dfaee21f3c28351500f041c584274f5a4bf76e39732",
      "s": "0x77ec1052a981fa6b8ac7f64c59e8ebf9f65d8c74ad87c126a82676bfe25a05dd",
      "v": 28,
      "creates": null,
      "raw": "0xf86c80850d6ed059f38252089432be343b94f860124dc4fee278fdcbd38c102d888808ebd87c407e7000801ca0174970d6478df361c6492dfaee21f3c28351500f041c584274f5a4bf76e39732a077ec1052a981fa6b8ac7f64c59e8ebf9f65d8c74ad87c126a82676bfe25a05dd",
      "networkId": 0,
      "chainId": 0
    }
  ]
}