{
  "hash": "0x62e56142a1d5aa341047a911fa32b0e8fdc239d2ff11bef0bce21726525e1722",
  "parentHash": "0x3d50db9c99d90ef5e3465800bf724af39ab646bd3b0b9f89a9c61333dfc2abf4",
  "number": 99027,
  "timestamp": 1439783043,
  "nonce": "0x7fa98ffadf9e657b",
  "difficulty": 3829121818329,
  "gasLimit": {
    "_hex": "0x2fefd8"
  },
  "gasUsed": {
    "_hex": "0x5208"
  },
  "miner": "0xe6A7a1d47ff21B6321162AEA7C6CB457D5476Bca",
  "extraData": "0x476574682f76312e302e312d38326566323666362f6c696e75782f676f312e34",
  "transactions": [
    {
      "hash": "0xe23478b5a052f3e8e66fe1a8f65e465bb581cfdafff7af24e2637f7b8d9f5fb5",
      "blockHash": "0x62e56142a1d5aa341047a911fa32b0e8fdc239d2ff11bef0bce21726525e1722",
      "blockNumber": 99027,
      "transactionIndex": 0,
      "confirmations": null,
      "from": "0xE12517204a15E890f12755207271102F4800A0c4",
      "gasPrice": {
        "_hex": "0xd15547ed8"
      },
      "gasLimit": {
        "_hex": "0x5208"
      },
      "to": "0x32Be343B94f860124dC4fEe278FDCBD38C102D88",
      "value": {
        "_hex": "0x56bc321ab247e4000"
      },
      "nonce": 13,
      "data": "0x",
      "r": "0x44a037911118c083d9bc11c6976d46441e6c9a03a84a2385e6f3ba41ede70941",
      "s": "0x6ed11ac1d7e2e5a59d9f494c424f905ab8d5d9addd3ebcbcdf28985983c9fb66",
      "v": 27,
      "creates": null,
      "raw": "0xf86d0d850d15547ed88252089432be343b94f860124dc4fee278fdcbd38c102d8889056bc321ab247e4000801ba044a037911118c083d9bc11c6976d46441e6c9a03a84a2385e6f3ba41ede70941a06ed11ac1d7e2e5a59d9f494c424f905ab8d5d9addd3ebcbcdf28985983c9fb66",
      "networkId": 0,
      "chainId": 0
    }
  ]
}