{
  "hash": "0x1ade0f6d1cc4cc90ea66d454cd9ab6cdaf789fecdc8f3a3fa0c28d8dd4169f22",
  "parentHash": "0x98dc0ead02cf8479308b0cca362b4fa170294e73f1b0e6d1a4e4348b27994864",
  "number": 93164,
  "timestamp": 1439683980,
  "nonce": "0x94614b5cf21a81b6",
  "difficulty": 3615495584808,
  "gasLimit": {
    "_hex": "0x2fefd8"
  },
  "gasUsed": {
    "_hex": "0x5d9f"
  },
  "miner": "0xEF247E639d49461D25F57e9362CadE3120910Ce0",
  "extraData": "0x476574682f76312e302e312f6c696e75782f676f312e342e32",
  "transactions": [
    {
      "hash": "0x695d87ba9aa128fc3fffe0833fc4c8b4da180d61672c26a161cc00843c541e02",
      "blockHash": "0x1ade0f6d1cc4cc90ea66d454cd9ab6cdaf789fecdc8f3a3fa0c28d8dd4169f22",
      "blockNumber": 93164,
      "transactionIndex": 0,
      "confirmations": null,
      "from": "0x02020D22dCF88f5eDd66B382D7da019F161fB7e3",
      "gasPrice": {
        "_hex": "0xce19c86b8"
      },
      "gasLimit": {
        "_hex": "0x15f90"
      },
      "to": "0xCAc7000C7dBaa2E33Af15325AF5D435E011C7BdD",
      "value": {
        "_hex": "0xde0b6b3a7640000"
      },
      "nonce": 18,
      "data": "0xb214faa5384e53354b355737410000000000000000000000000000000000000000000000",
      "r": "0x48ef6e8b73c9da4dd254f0a0744cda9bf049dbe25e0a07b3dec1f5ea68fdad7c",
      "s": "0x219b12e89717035877faae2530ece63f9047a2d3d9a9eb9be488d5250dc21256",
      "v": 27,
      "creates": null,
      "raw": "0xf89112850ce19c86b883015f9094cac7000c7dbaa2e33af15325af5d435e011c7bdd880de0b6b3a7640000a4b214faa5384e53354b3557374100000000000000000000000000000000000000000000001ba048ef6e8b73c9da4dd254f0a0744cda9bf049dbe25e0a07b3dec1f5ea68fdad7ca0219b12e89717035877faae2530ece63f9047a2d3d9a9eb9be488d5250dc21256",
      "networkId": 0,
      "chainId": 0
    }
  ]
}