{
  "hash": "0xebc263743cafc6289db5fe6ad5d13a6b6b8d8c9915bdad6777a02f07fb946bb0",
  "parentHash": "0x896f203d1854cc4c9f2611da4418052a21e00c4f743e334b31954c4c8b7eaf06",
  "number": 50690,
  "timestamp": 1438993223,
  "nonce": "0xcc5c6baccc09d32c",
  "difficulty": 1532669391003,
  "gasLimit": {
    "_hex": "0x71eb0"
  },
  "gasUsed": {
    "_hex": "0x546c"
  },
  "miner": "0xf927a40C8B7F6E07c5af7FA2155B4864a4112B13",
  "extraData": "0x",
  "transactions": [
    {
      "hash": "0xe50f7cc34b53ae8ee89edc90e3769de552827aeda1a573512d4359c02e3a3036",
      "blockHash": "0xebc263743cafc6289db5fe6ad5d13a6b6b8d8c9915bdad6777a02f07fb946bb0",
      "blockNumber": 50690,
      "transactionIndex": 0,
      "confirmations": null,
      "from": "0x7a2dFc770e24368131B7847795F203F3d50d5b56",
      "gasPrice": {
        "_hex": "0xce64fb0ac"
      },
      "gasLimit": {
        "_hex": "0x15f90"
      },
      "to": "0x2910543Af39abA0Cd09dBb2D50200b3E800A63D2",
      "value": {
        "_hex": "0xd84c5f9412f0980000"
      },
      "nonce": 1,
      "data": "0x454e524b3232584638",
      "r": "0x8f68cdfe2673d7042a2997d61d4705f1199425577f0b91571d654ed389d95b71",
      "s": "0x5bd7d5aaf36db405c8fe3964b86e93e7ed4e4c2168b198aa31e420c4adbadfd2",
      "v": 27,
      "creates": null,
      "raw": "0xf87701850ce64fb0ac83015f90942910543af39aba0cd09dbb2d50200b3e800a63d289d84c5f9412f098000089454e524b32325846381ba08f68cdfe2673d7042a2997d61d4705f1199425577f0b91571d654ed389d95b71a05bd7d5aaf36db405c8fe3964b86e93e7ed4e4c2168b198aa31e420c4adbadfd2",
      "networkId": 0,
      "chainId": 0
    }
  ]
}