{
  "hash": "0x92aec762d2d87cdc29f98dbd13afead32e2fe911d228f871b8e6f1674df628bd",
  "parentHash": "0x0eae91b3a59019f82585f4a7de664d63c4e1df69717f8f027e53104d3cec90b5",
  "number": 86099,
  "timestamp": 1439573367,
  "nonce": "0xce39fa7276c24335",
  "difficulty": 2811251407472,
  "gasLimit": {
    "_hex": "0x2fefd8"
  },
  "gasUsed": {
    "_hex": "0x5208"
  },
  "miner": "0xbb7B8287f3F0a933474a79eAe42CBCa977791171",
  "extraData": "0x476574682f4c5649562f76312e302e312f6c696e75782f676f312e342e32",
  "transactions": [
    {
      "hash": "0x87293e30803aeaf515fb71a17c43982078e056f0b6b392cb1a8679cc4df8b43e",
      "blockHash": "0x92aec762d2d87cdc29f98dbd13afead32e2fe911d228f871b8e6f1674df628bd",
      "blockNumber": 86099,
      "transactionIndex": 0,
      "confirmations": null,
      "from": "0x32Be343B94f860124dC4fEe278FDCBD38C102D88",
      "gasPrice": {
        "_hex": "0xd0389cf3c"
      },
      "gasLimit": {
        "_hex": "0x5208"
      },
      "to": "0x7573b0837672370bAAaA5414F3887A18EdfA89D3",
      "value": {
        "_hex": "0xde0b6b3a7640000"
      },
      "nonce": 748,
      "data": "0x",
      "r": "0x177bdf8615d65b7cd223b66fcc63cb0576ae48ede12500b2e0a32f15918b4a38",
      "s": "0x2193b117d8373ab9dc07872af3e0fef3d14fa4d69a34cdcced17b48b156a2e8c",
      "v": 27,
      "creates": null,
      "raw": "0xf86e8202ec850d0389cf3c825208947573b0837672370baaaa5414f3887a18edfa89d3880de0b6b3a7640000801ba0177bdf8615d65b7cd223b66fcc63cb0576ae48ede12500b2e0a32f15918b4a38a02193b117d8373ab9dc07872af3e0fef3d14fa4d69a34cdcced17b48b156a2e8c",
      "networkId": 0,
      "chainId": 0
    }
  ]
}