{
  "hash": "0xe089a51de61cbec435db575614b520f12c183c53361c4dcca14f1dd252b7c1b2",
  "parentHash": "0x1708b7523377f3d84e1f131087023f1fefc912bbfc9bfc2e113ac4bf7a9cbbeb",
  "number": 73285,
  "timestamp": 1439366545,
  "nonce": "0x8cac3fe50d797904",
  "difficulty": 2205637601298,
  "gasLimit": {
    "_hex": "0x2fefd8"
  },
  "gasUsed": {
    "_hex": "0x5208"
  },
  "miner": "0x9746c7e1ef2bd21FF3997fa467593a89cb852BD0",
  "extraData": "0x476574682f76312e302e312f77696e646f77732f676f312e342e32",
  "transactions": [
    {
      "hash": "0x753efdc7ca4a2681c8262eda2b6dc1b54582dcf35c1ec238ca46901a0fe23087",
      "blockHash": "0xe089a51de61cbec435db575614b520f12c183c53361c4dcca14f1dd252b7c1b2",
      "blockNumber": 73285,
      "transactionIndex": 0,
      "confirmations": null,
      "from": "0x32Be343B94f860124dC4fEe278FDCBD38C102D88",
      "gasPrice": {
        "_hex": "0xd12260db3"
      },
      "gasLimit": {
        "_hex": "0x5208"
      },
      "to": "0xA5ab30442100373e87AA2B87Cb448881f9Ec5AFd",
      "value": {
        "_hex": "0x13fbe85edc90000"
      },
      "nonce": 287,
      "data": "0x",
      "r": "0xce3e3901743a266b3e859b6379735c973614569f4552e78009def148f1b322b4",
      "s": "0x5c27e2c616a993621d9052a2eefe73214c802e5271c1f8ebd4f4c2aacd72d1ca",
      "v": 28,
      "creates": null,
      "raw": "0xf86e82011f850d12260db382520894a5ab30442100373e87aa2b87cb448881f9ec5afd88013fbe85edc90000801ca0ce3e3901743a266b3e859b6379735c973614569f4552e78009def148f1b322b4a05c27e2c616a993621d9052a2eefe73214c802e5271c1f8ebd4f4c2aacd72d1ca",
      "networkId": 0,
      "chainId": 0
    }
  ]
}