{
  "hash": "0x8b6390a7cf1681307045bf72002523e4c5ffa9cd90a735a7dafa1f04b810f111",
  "parentHash": "0xdb5c0a083c67b3b0bc9d8917002b07445f79674e8f6ebc363b2693d59c8b96bf",
  "number": 91242,
  "timestamp": 1439652549,
  "nonce": "0x145fa01f6270255b",
  "difficulty": 3443987402905,
  "gasLimit": {
    "_hex": "0x2fefd8"
  },
  "gasUsed": {
    "_hex": "0xa410"
  },
  "miner": "0x47ff6576639c2e94762eA5443978D7681C0E78DC",
  "extraData": "0x476574682f76312e302e312f6c696e75782f676f312e342e32",
  "transactions": [
    {
      "hash": "0x4ffbf887a2386c919db7c897ecf4c1ad0af52013ca649b3c6e82ff6bb3af5f77",
      "blockHash": "0x8b6390a7cf1681307045bf72002523e4c5ffa9cd90a735a7dafa1f04b810f111",
      "blockNumber": 91242,
      "transactionIndex": 0,
      "confirmations": null,
      "from": "0x2910543Af39abA0Cd09dBb2D50200b3E800A63D2",
      "gasPrice": {
        "_hex": "0xde1d482e3"
      },
      "gasLimit": {
        "_hex": "0x5208"
      },
      "to": "0xC02766F362b0Cd21e0D78012DAe8Cd1Df1B0E8eD",
      "value": {
        "_hex": "0x79d96d07a459314000"
      },
      "nonce": 801,
      "data": "0x",
      "r": "0x12b6b7742381256aa26cc188c227184df6ee5985ac63f475f9859eb21839d179",
      "s": "0x7b651749e012538853216bc1ee638a4ed720d8721c352b629dcdb30df3264db3",
      "v": 28,
      "creates": null,
      "raw": "0xf86f820321850de1d482e382520894c02766f362b0cd21e0d78012dae8cd1df1b0e8ed8979d96d07a459314000801ca012b6b7742381256aa26cc188c227184df6ee5985ac63f475f9859eb21839d179a07b651749e012538853216bc1ee638a4ed720d8721c352b629dcdb30df3264db3",
      "networkId": 0,
      "chainId": 0
    },
    {
      "hash": "0x9a6658d66d6192dcb01ef6ab745c532bb5458a81ac21a029c67967a151f839a5",
      "blockHash": "0x8b6390a7cf1681307045bf72002523e4c5ffa9cd90a735a7dafa1f04b810f111",
      "blockNumber": 91242,
      "transactionIndex": 1,
      "confirmations": null,
      "from": "0x8293b65bD915B9FF87F6aDAb479da2e5b6633fDB",
      "gasPrice": {
        "_hex": "0xd53c1434b"
      },
      "gasLimit": {
        "_hex": "0x15f90"
      },
      "to": "0x9f78552704fe7e52cC7C3853534aA2C3cf580D54",
      "value": {
        "_hex": "0x4563918244f40000"
      },
      "nonce": 16,
      "data": "0x",
      "r": "0x1ea51fed058a37213638d49df85bb52ba7e3d9087697e1b46e10fe647e4fb27e",
      "s": "0x791403be3934af9193ab2779a6db51a360e8e63637fc06302e1f28e7028a506f",
      "v": 27,
      "creates": null,
      "raw": "0xf86d10850d53c1434b83015f90949f78552704fe7e52cc7c3853534aa2c3cf580d54884563918244f40000801ba01ea51fed058a37213638d49df85bb52ba7e3d9087697e1b46e10fe647e4fb27ea0791403be3934af9193ab2779a6db51a360e8e63637fc06302e1f28e7028a506f",
      "networkId": 0,
      "chainId": 0
    }
  ]
}