{
  "hash": "0xdade80885a9142a26f744d2bfea3b2cad9d2a4ae72f13e9e1c5e7412dd026681",
  "parentHash": "0xbd2d123658d2a94ff9e64f8e6a82cb89e2673887a8a5a9a68fdd6d95201a7b21",
  "number": 86793,
  "timestamp": 1439582932,
  "nonce": "0x4dbcf550ace2736e",
  "difficulty": 2948800743232,
  "gasLimit": {
    "_hex": "0x2fefd8"
  },
  "gasUsed": {
    "_hex": "0xac78"
  },
  "miner": "0x77EC9ad4A7E9418774C29415CAaF4Ee0da96eF64",
  "extraData": "0x",
  "transactions": [
    {
      "hash": "0x78b7220634ad329d5ff1846a807231b183bc56f57d3732391b8e866a18ea4f2e",
      "blockHash": "0xdade80885a9142a26f744d2bfea3b2cad9d2a4ae72f13e9e1c5e7412dd026681",
      "blockNumber": 86793,
      "transactionIndex": 0,
      "confirmations": null,
      "from": "0x77b97786B0FB73e55d9E92d4B182beFBF346F979",
      "gasPrice": {
        "_hex": "0xd12a504cd"
      },
      "gasLimit": {
        "_hex": "0xf4240"
      },
      "to": "0x432a20d509dE59361B86274732E6349D48818341",
      "value": {
        "_hex": "0x0"
      },
      "nonce": 12,
      "data": "0xfbd40121000000000000000000000000000000000000000000000000000000000001388000000000000000000000000000000000000000000000000000000000053573540000000000000000000000000000000000000000000000000000000006946714",
      "r": "0xe20bb2fcb529e54e0d80e18ca78075a59625313175a4f4f812a95e3818100309",
      "s": "0x48fd80387103eacd83a67c0e916d02d253f32ac1d367e8a717d796342e2ab599",
      "v": 28,
      "creates": null,
      "raw": "0xf8ca0c850d12a504cd830f424094432a20d509de59361b86274732e6349d4881834180b864fbd401210000000000000000000000000000000000000000000000000000000000013880000000000000000000000000000000000000000000000000000000000535735400000000000000000000000000000000000000000000000000000000069467141ca0e20bb2fcb529e54e0d80e18ca78075a59625313175a4f4f812a95e3818100309a048fd80387103eacd83a67c0e916d02d253f32ac1d367e8a717d796342e2ab599",
      "networkId": 0,
      "chainId": 0
    }
  ]
}