{
  "hash": "0xf9a9e097db3787e5a1f07256fa3414f4fa017e2a65588ee3aeeb5854cbe9df4e",
  "parentHash": "0x5e252dd9a960b2486ef302bd579e3abf6f55305e9f6f44d022f754ed57e4bb45",
  "number": 110392,
  "timestamp": 1439972954,
  "nonce": "0x1f74787bbe5676dd",
  "difficulty": 4373475610925,
  "gasLimit": {
    "_hex": "0x2fefd8"
  },
  "gasUsed": {
    "_hex": "0x5208"
  },
  "miner": "0xe6A7a1d47ff21B6321162AEA7C6CB457D5476Bca",
  "extraData": "0x476574682f76312e302e312d38326566323666362f6c696e75782f676f312e34",
  "transactions": [
    {
      "hash": "0xab334cd2a5f8c542da5d72367e9ff39299b558eacd7371b2bbaf2bb58b7b719d",
      "blockHash": "0xf9a9e097db3787e5a1f07256fa3414f4fa017e2a65588ee3aeeb5854cbe9df4e",
      "blockNumber": 110392,
      "transactionIndex": 0,
      "confirmations": null,
      "from": "0xD9a9A8ec148D2B0F7Cd8B2700013A9AA5cf89910",
      "gasPrice": {
        "_hex": "0xe17bdd627"
      },
      "gasLimit": {
        "_hex": "0x5208"
      },
      "to": "0x32Be343B94f860124dC4fEe278FDCBD38C102D88",
      "value": {
        "_hex": "0x1b8e5e4c965a68000"
      },
      "nonce": 8,
      "data": "0x",
      "r": "0x7cff58c7a63f0b117b7b3f16c8f77f0bfb45b0a9777667bb7925c03c6ac3398c",
      "s": "0x29e903a778bf65471ca880f4c99ae945a106810995b5dfee315f184f78fea24b",
      "v": 28,
      "creates": null,
      "raw": "0xf86d08850e17bdd6278252089432be343b94f860124dc4fee278fdcbd38c102d888901b8e5e4c965a68000801ca07cff58c7a63f0b117b7b3f16c8f77f0bfb45b0a9777667bb7925c03c6ac3398ca029e903a778bf65471ca880f4c99ae945a106810995b5dfee315f184f78fea24b",
      "networkId": 0,
      "chainId": 0
    }
  ]
}