{
  "hash": "0xbb8b52f52eced9e16b656adb1c78ece8f90039f98375ea7346bbe9d27b74c61c",
  "parentHash": "0xd1031abad25a4ca3dab8cb98724eb0efd5f2d8a9a4c5e2706cc3d26768013caf",
  "number": 96601,
  "timestamp": 1439742861,
  "nonce": "0xfc85aaa7d0408c66",
  "difficulty": 3716012736857,
  "gasLimit": {
    "_hex": "0x2fefd8"
  },
  "gasUsed": {
    "_hex": "0x5208"
  },
  "miner": "0x88D74a59454F6cF3B51ef6b9136AFb6b9D405A88",
  "extraData": "0x476574682f76312e302e312d37666266393930632f6c696e75782f676f312e34",
  "transactions": [
    {
      "hash": "0x196b480680abd0cd5e8a8403372c6e9f96cd57b13b4a66ae19d5dc997a93d714",
      "blockHash": "0xbb8b52f52eced9e16b656adb1c78ece8f90039f98375ea7346bbe9d27b74c61c",
      "blockNumber": 96601,
      "transactionIndex": 0,
      "confirmations": null,
      "from": "0x790b8a3cE86E707ED0eD32bF89B3269692a23CC1",
      "gasPrice": {
        "_hex": "0xd2f23101c"
      },
      "gasLimit": {
        "_hex": "0x15f90"
      },
      "to": "0x4D67f4F0Db45b3B5a3424B39ed8d972F710381D5",
      "value": {
        "_hex": "0x33f478ca2dde60000"
      },
      "nonce": 12,
      "data": "0x",
      "r": "0xc60b8dee69321b5953891a5a8e345a01b36debb2ed0cca4bef2daa5c598dfe37",
      "s": "0x5c8f2655de3c9276ee4af059e86b238a010a5f54cf510c64d21eb9195453facd",
      "v": 27,
      "creates": null,
      "raw": "0xf86e0c850d2f23101c83015f90944d67f4f0db45b3b5a3424b39ed8d972f710381d589033f478ca2dde60000801ba0c60b8dee69321b5953891a5a8e345a01b36debb2ed0cca4bef2daa5c598dfe37a05c8f2655de3c9276ee4af059e86b238a010a5f54cf510c64d21eb9195453facd",
      "networkId": 0,
      "chainId": 0
    }
  ]
}