{
  "hash": "0x3fec1a83bf60e6145eb99d2fb0927f4e2cfc69982433c18849be1281aa0044bc",
  "parentHash": "0xdd9795290b7b04ccea653d0941f3bbd7ba81c31abf1f3c8c1c640e0dc09dfd0a",
  "number": 65304,
  "timestamp": 1439234576,
  "nonce": "0xa858713809aade0a",
  "difficulty": 1945469204812,
  "gasLimit": {
    "_hex": "0x2fefd8"
  },
  "gasUsed": {
    "_hex": "0xf618"
  },
  "miner": "0x9746c7e1ef2bd21FF3997fa467593a89cb852BD0",
  "extraData": "0x476574682f76312e302e312f77696e646f77732f676f312e342e32",
  "transactions": [
    {
      "hash": "0x0742f8ca186bfeaf98caed80b75a0a021e196d1db1487d11944f0f69a8cb0411",
      "blockHash": "0x3fec1a83bf60e6145eb99d2fb0927f4e2cfc69982433c18849be1281aa0044bc",
      "blockNumber": 65304,
      "transactionIndex": 0,
      "confirmations": null,
      "from": "0x4b0bd8ACfcBC53A6010B40D4D08Ddd2d9d69622d",
      "gasPrice": {
        "_hex": "0xd641f460d"
      },
      "gasLimit": {
        "_hex": "0x15f90"
      },
      "to": "0xF2C98425f9f22071AB4DFA15A34628246FEDc163",
      "value": {
        "_hex": "0xde0b6b3a7640000"
      },
      "nonce": 0,
      "data": "0x",
      "r": "0x43b5f7a5004a35a6622ed3442856b3b1f7d154cb03965f6a68dd1a465d373b2c",
      "s": "0x2736908e75bfab7a118d8bb0726e4fd79cc2c042e4b90dfb1eab0ed2ae634239",
      "v": 28,
      "creates": null,
      "raw": "0xf86d80850d641f460d83015f9094f2c98425f9f22071ab4dfa15a34628246fedc163880de0b6b3a7640000801ca043b5f7a5004a35a6622ed3442856b3b1f7d154cb03965f6a68dd1a465d373b2ca02736908e75bfab7a118d8bb0726e4fd79cc2c042e4b90dfb1eab0ed2ae634239",
      "networkId": 0,
      "chainId": 0
    },
    {
      "hash": "0xcb551896dfe1f4c54af27ef4ede7c374725bd82433520ce095971ee53f21608f",
      "blockHash": "0x3fec1a83bf60e6145eb99d2fb0927f4e2cfc69982433c18849be1281aa0044bc",
      "blockNumber": 65304,
      "transactionIndex": 1,
      "confirmations": null,
      "from": "0x70F0f06B0d9fa951D3CE6CBc3c9700aBb37A7708",
      "gasPrice": {
        "_hex": "0xba43b7400"
      },
      "gasLimit": {
        "_hex": "0x5208"
      },
      "to": "0x2244e3b7736c8F48C4619388993F0FBf8506b865",
      "value": {
        "_hex": "0x82b0691e5f45000"
      },
      "nonce": 1,
      "data": "0x",
      "r": "0x5e98561b12b7eb3e44d64cd6041518e134cfa8d9cd75108b50f8e9b2b25f1ccf",
      "s": "0x71bc62dda25234ffa7e491fcc181a858db2ddd233c885afccbb5a99e3d0f6a6f",
      "v": 28,
      "creates": null,
      "raw": "0xf86c01850ba43b7400825208942244e3b7736c8f48c4619388993f0fbf8506b86588082b0691e5f45000801ca05e98561b12b7eb3e44d64cd6041518e134cfa8d9cd75108b50f8e9b2b25f1ccfa071bc62dda25234ffa7e491fcc181a858db2ddd233c885afccbb5a99e3d0f6a6f",
      "networkId": 0,
      "chainId": 0
    },
    {
      "hash": "0x4f9f248e442ddefafe4bba614345eaaf195742dd4f954685e31bacacf5e0b7db",
      "blockHash": "0x3fec1a83bf60e6145eb99d2fb0927f4e2cfc69982433c18849be1281aa0044bc",
      "blockNumber": 65304,
      "transactionIndex": 2,
      "confirmations": null,
      "from": "0x7e288A2093d928D44990466F2F9b14BA57886B82",
      "gasPrice": {
        "_hex": "0xba43b7400"
      },
      "gasLimit": {
        "_hex": "0x5208"
      },
      "to": "0xba27218B5f388B8621A4C3416e4b1B8Aa08B0c9a",
      "value": {
        "_hex": "0x89eb67225c68000"
      },
      "nonce": 1,
      "data": "0x",
      "r": "0x6a3040b9abe20c4f781eeac9cfca94c948deda864e7fdb8d400b213924d1287d",
      "s": "0x3aaf056e32069d0c49ef938c8603c67fc650a2cf831b504d23e778275e8b2293",
      "v": 27,
      "creates": null,
      "raw": "0xf86c01850ba43b740082520894ba27218b5f388b8621a4c3416e4b1b8aa08b0c9a88089eb67225c68000801ba06a3040b9abe20c4f781eeac9cfca94c948deda864e7fdb8d400b213924d1287da03aaf056e32069d0c49ef938c8603c67fc650a2cf831b504d23e778275e8b2293",
      "networkId": 0,
      "chainId": 0
    }
  ]
}