{
  "hash": "0xf9e3af2242f525dede49c9295a4d86ff5489ff07db7528450868b3221f473046",
  "parentHash": "0x14cce9eadbca6e9bbc547f7ef012f4ddfecffe37c8a5142b2764213c97125ec7",
  "number": 64746,
  "timestamp": 1439225712,
  "nonce": "0x1f50c7216bcaf12d",
  "difficulty": 1885738838197,
  "gasLimit": {
    "_hex": "0x2fefd8"
  },
  "gasUsed": {
    "_hex": "0xa410"
  },
  "miner": "0xa50ec0D39fa913E62f1Bae7074E6F36caA71855b",
  "extraData": "0x",
  "transactions": [
    {
      "hash": "0xc09e2949e151439bac19b987c1c523173b5fc98b6d81af83d51465e1eeef77c8",
      "blockHash": "0xf9e3af2242f525dede49c9295a4d86ff5489ff07db7528450868b3221f473046",
      "blockNumber": 64746,
      "transactionIndex": 0,
      "confirmations": null,
      "from": "0xb82415923664590236aea1c1912955E7653B9FCa",
      "gasPrice": {
        "_hex": "0xd0f9287d3"
      },
      "gasLimit": {
        "_hex": "0x5208"
      },
      "to": "0x32Be343B94f860124dC4fEe278FDCBD38C102D88",
      "value": {
        "_hex": "0x5a55271c8c47c00"
      },
      "nonce": 3,
      "data": "0x",
      "r": "0xb9cb504caa66fb5310f5b527e53338299ddd281047259d9087d241bc7bc0afdd",
      "s": "0x54850ad65457524db0a6978b1abb37fb0983836cb041f08edb625c52409a0898",
      "v": 28,
      "creates": null,
      "raw": "0xf86c03850d0f9287d38252089432be343b94f860124dc4fee278fdcbd38c102d888805a55271c8c47c00801ca0b9cb504caa66fb5310f5b527e53338299ddd281047259d9087d241bc7bc0afdda054850ad65457524db0a6978b1abb37fb0983836cb041f08edb625c52409a0898",
      "networkId": 0,
      "chainId": 0
    },
    {
      "hash": "0x9e54d81eb76ce3235868f965836da5e72e8ec09908a296c287f4fea847476192",
      "blockHash": "0xf9e3af2242f525dede49c9295a4d86ff5489ff07db7528450868b3221f473046",
      "blockNumber": 64746,
      "transactionIndex": 1,
      "confirmations": null,
      "from": "0x181E30E5B1a5254deBe9ed8070D6D6f2efEBEa32",
      "gasPrice": {
        "_hex": "0xba43b7400"
      },
      "gasLimit": {
        "_hex": "0x5208"
      },
      "to": "0x56Cc15ee5BE3267E41bB2e46251BDfC52D279F68",
      "value": {
        "_hex": "0x36ef271c4dd000"
      },
      "nonce": 1,
      "data": "0x",
      "r": "0x06f9339698dce0407f605cb6e262659469f59af849e175fd63aeb325e3b2b6da",
      "s": "0x2fcb50c6f8352f8f75c5147c697d7916b15e88fa1fedc2c21f45d14a84ae4694",
      "v": 27,
      "creates": null,
      "raw": "0xf86b01850ba43b74008252089456cc15ee5be3267e41bb2e46251bdfc52d279f688736ef271c4dd000801ba006f9339698dce0407f605cb6e262659469f59af849e175fd63aeb325e3b2b6daa02fcb50c6f8352f8f75c5147c697d7916b15e88fa1fedc2c21f45d14a84ae4694",
      "networkId": 0,
      "chainId": 0
    }
  ]
}