{
  "hash": "0xd21091bba56c97fc9e3e37a876d33f2f5d2d277414baddca3b3f3fd5ab35959d",
  "parentHash": "0x4b605dde2d517b986a43b629bbe3c597e237086444464b0a94b05af872be0340",
  "number": 64963,
  "timestamp": 1439229101,
  "nonce": "0x14bb826396d46273",
  "difficulty": 1912581671117,
  "gasLimit": {
    "_hex": "0x2fefd8"
  },
  "gasUsed": {
    "_hex": "0x17cd8"
  },
  "miner": "0xe6A7a1d47ff21B6321162AEA7C6CB457D5476Bca",
  "extraData": "0x476574682f76312e302e312f6c696e75782f676f312e342e32",
  "transactions": [
    {
      "hash": "0x5279a1c4d8ee379ee5084892768d64981111821d476022ed03923f989464b6ac",
      "blockHash": "0xd21091bba56c97fc9e3e37a876d33f2f5d2d277414baddca3b3f3fd5ab35959d",
      "blockNumber": 64963,
      "transactionIndex": 0,
      "confirmations": null,
      "from": "0x90BF64FfEb204D3C69051bACc3d058f1d99F41B2",
      "gasPrice": {
        "_hex": "0xba43b7400"
      },
      "gasLimit": {
        "_hex": "0x15f90"
      },
      "to": "0x793AE8C1b1a160BFc07BFB0d04F85eab1A71F4f2",
      "value": {
        "_hex": "0x0"
      },
      "nonce": 0,
      "data": "0x3ba15036",
      "r": "0x4699f59206c8b13817e9b3c50c3ed416d814f3c7502e52bdd6caf77dd1242ae6",
      "s": "0x7062d3c740686496c2a122347da01f5d5dfce947e7bd7fcaeddbb9e5992a11c9",
      "v": 28,
      "creates": null,
      "raw": "0xf86980850ba43b740083015f9094793ae8c1b1a160bfc07bfb0d04f85eab1a71f4f280843ba150361ca04699f59206c8b13817e9b3c50c3ed416d814f3c7502e52bdd6caf77dd1242ae6a07062d3c740686496c2a122347da01f5d5dfce947e7bd7fcaeddbb9e5992a11c9",
      "networkId": 0,
      "chainId": 0
    },
    {
      "hash": "0x24d961ecee06a2eb0c038a19f6ed28ed96b7ce2c1f95a6bcb7ff7f4e89a96532",
      "blockHash": "0xd21091bba56c97fc9e3e37a876d33f2f5d2d277414baddca3b3f3fd5ab35959d",
      "blockNumber": 64963,
      "transactionIndex": 1,
      "confirmations": null,
      "from": "0x685bc76108850B7e31250673af0498eEAFC66B1f",
      "gasPrice": {
        "_hex": "0xba43b7400"
      },
      "gasLimit": {
        "_hex": "0x15f90"
      },
      "to": "0x793AE8C1b1a160BFc07BFB0d04F85eab1A71F4f2",
      "value": {
        "_hex": "0x0"
      },
      "nonce": 0,
      "data": "0x3ba15036",
      "r": "0xc3b49e28af9b7ff79ade920cfb6f6beee435323c21b7cff77971afbe000a7555",
      "s": "0x5c1fe3188c970a74668cd3481413c09172620871670ac182aca95b9f8e74b961",
      "v": 27,
      "creates": null,
      "raw": "0xf86980850ba43b740083015f9094793ae8c1b1a160bfc07bfb0d04f85eab1a71f4f280843ba150361ba0c3b49e28af9b7ff79ade920cfb6f6beee435323c21b7cff77971afbe000a7555a05c1fe3188c970a74668cd3481413c09172620871670ac182aca95b9f8e74b961",
      "networkId": 0,
      "chainId": 0
    }
  ]
}