{
  "hash": "0xdb89061f0749f43842333e38f10ee6289e39359b18cb51eaa5fe7340417ae927",
  "parentHash": "0xc79f5d4411686ce9c40366fec873dfd3df913359e16d31aaa53424fbea8b33ca",
  "number": 47466,
  "timestamp": 1438940935,
  "nonce": "0x6fe2c439b061e641",
  "difficulty": 1450243073222,
  "gasLimit": {
    "_hex": "0xc1a0"
  },
  "gasUsed": {
    "_hex": "0x5208"
  },
  "miner": "0xf927a40C8B7F6E07c5af7FA2155B4864a4112B13",
  "extraData": "0x476574682f76312e302e312f6c696e75782f676f312e342e32",
  "transactions": [
    {
      "hash": "0x1f5f12c9babca09a92f2de1f7929ade6c962dd856285db699ef63c43f6a0609e",
      "blockHash": "0xdb89061f0749f43842333e38f10ee6289e39359b18cb51eaa5fe7340417ae927",
      "blockNumber": 47466,
      "transactionIndex": 0,
      "confirmations": null,
      "from": "0xe6A7a1d47ff21B6321162AEA7C6CB457D5476Bca",
      "gasPrice": {
        "_hex": "0x1be2341435"
      },
      "gasLimit": {
        "_hex": "0x5208"
      },
      "to": "0xFC700aC19c00bcBE58f37458e6e738de57FDaa34",
      "value": {
        "_hex": "0x1e39cb758d3390570"
      },
      "nonce": 155,
      "data": "0x",
      "r": "0xf027623ab74b5d3780abd78d4858cfcec4341bb166da5a7451a90bba6daa61fa",
      "s": "0x64d693ca5675828d26d5800bc5fbb79e313d8453f6023be642cb200a2ccfbbb2",
      "v": 28,
      "creates": null,
      "raw": "0xf86e819b851be234143582520894fc700ac19c00bcbe58f37458e6e738de57fdaa348901e39cb758d3390570801ca0f027623ab74b5d3780abd78d4858cfcec4341bb166da5a7451a90bba6daa61faa064d693ca5675828d26d5800bc5fbb79e313d8453f6023be642cb200a2ccfbbb2",
      "networkId": 0,
      "chainId": 0
    }
  ]
}