{
  "hash": "0x4ab23251908fcd386efb83865500dcf13630ad955194c9fa7fb0e653584d0d84",
  "parentHash": "0xdf0701816f0a674789d25fa973d277e0ab8d66d8e714c12566cecb4153d6e02e",
  "number": 103789,
  "timestamp": 1439858950,
  "nonce": "0x846b60b4e8914271",
  "difficulty": 4227780685904,
  "gasLimit": {
    "_hex": "0x2fefd8"
  },
  "gasUsed": {
    "_hex": "0x5208"
  },
  "miner": "0x9943C02b44B13e025fc0B938790F5d336BD920f9",
  "extraData": "0x476574682f76312e302e312f77696e646f77732f676f312e342e32",
  "transactions": [
    {
      "hash": "0x806f6bfcf3129320ccc0aebb3e049470e6dada042f600098c57b7624ecb19bc5",
      "blockHash": "0x4ab23251908fcd386efb83865500dcf13630ad955194c9fa7fb0e653584d0d84",
      "blockNumber": 103789,
      "transactionIndex": 0,
      "confirmations": null,
      "from": "0x7fa165177F28D171bA7C17f765c1904344Ec64CB",
      "gasPrice": {
        "_hex": "0xd7c64645c"
      },
      "gasLimit": {
        "_hex": "0x5208"
      },
      "to": "0x32Be343B94f860124dC4fEe278FDCBD38C102D88",
      "value": {
        "_hex": "0x24c66bd175ee3e000"
      },
      "nonce": 23,
      "data": "0x",
      "r": "0x031e4c4c238d500d12ce0b85d7004a8740fb67800ff99cced22bfdd5ab4be75b",
      "s": "0x430b8fadcc93b881cce8816d390eb7b4e71d0b3e978123e0c1a8e5f0d73e53bc",
      "v": 28,
      "creates": null,
      "raw": "0xf86d17850d7c64645c8252089432be343b94f860124dc4fee278fdcbd38c102d8889024c66bd175ee3e000801ca0031e4c4c238d500d12ce0b85d7004a8740fb67800ff99cced22bfdd5ab4be75ba0430b8fadcc93b881cce8816d390eb7b4e71d0b3e978123e0c1a8e5f0d73e53bc",
      "networkId": 0,
      "chainId": 0
    }
  ]
}