{
  "hash": "0xbcc63a8805b1aa78381b17591fd9520b0556179847a49ae953ccdb91a85f9a7a",
  "parentHash": "0xdd973b8899a2df59b0a6c46a6e0df385bd220689b824fb148831d905d1bdc1a3",
  "number": 112713,
  "timestamp": 1440011894,
  "nonce": "0xf8d07239760f7dae",
  "difficulty": 4425965181231,
  "gasLimit": {
    "_hex": "0x2fefd8"
  },
  "gasUsed": {
    "_hex": "0xa410"
  },
  "miner": "0x74fE33D5E3bed2C734685d3DA78110F9D7D3580B",
  "extraData": "0xd783010001844765746887676f312e342e32856c696e7578",
  "transactions": [
    {
      "hash": "0x775a371a062780df60a3a0d60ff7337a11b3434361b3e9d244a3639492245111",
      "blockHash": "0xbcc63a8805b1aa78381b17591fd9520b0556179847a49ae953ccdb91a85f9a7a",
      "blockNumber": 112713,
      "transactionIndex": 0,
      "confirmations": null,
      "from": "0x06BcFDb20583cc822f2031724E36F3678BBCa6E9",
      "gasPrice": {
        "_hex": "0xd2088d38f"
      },
      "gasLimit": {
        "_hex": "0x5208"
      },
      "to": "0x32Be343B94f860124dC4fEe278FDCBD38C102D88",
      "value": {
        "_hex": "0x119cda42fc7722000"
      },
      "nonce": 8,
      "data": "0x",
      "r": "0xae722d1926f9f88b285ebe831d25a7a2af6cc9b291e856a7f912aabe95e30866",
      "s": "0x60eaefa8d8a01153aaf491daf2c726239f339655933b140407670522ab96a0da",
      "v": 27,
      "creates": null,
      "raw": "0xf86d08850d2088d38f8252089432be343b94f860124dc4fee278fdcbd38c102d88890119cda42fc7722000801ba0ae722d1926f9f88b285ebe831d25a7a2af6cc9b291e856a7f912aabe95e30866a060eaefa8d8a01153aaf491daf2c726239f339655933b140407670522ab96a0da",
      "networkId": 0,
      "chainId": 0
    },
    {
      "hash": "0x868af7b14f0b0421d34aaa99636dc7ee0b1e507d82947f62a5c78001f4eb990c",
      "blockHash": "0xbcc63a8805b1aa78381b17591fd9520b0556179847a49ae953ccdb91a85f9a7a",
      "blockNumber": 112713,
      "transactionIndex": 1,
      "confirmations": null,
      "from": "0xD9a9A8ec148D2B0F7Cd8B2700013A9AA5cf89910",
      "gasPrice": {
        "_hex": "0xd2088d38f"
      },
      "gasLimit": {
        "_hex": "0x5208"
      },
      "to": "0x32Be343B94f860124dC4fEe278FDCBD38C102D88",
      "value": {
        "_hex": "0xcc1538514804c000"
      },
      "nonce": 9,
      "data": "0x",
      "r": "0x2e08b689163c81ff00bf1c01280aa32b72a44762e54d64a5684f8aa70c40d0a0",
      "s": "0x57717f8f4af231d1ba0641a67f4459b822d99fee4c849b8ef5d6762c92f674d6",
      "v": 27,
      "creates": null,
      "raw": "0xf86c09850d2088d38f8252089432be343b94f860124dc4fee278fdcbd38c102d8888cc1538514804c000801ba02e08b689163c81ff00bf1c01280aa32b72a44762e54d64a5684f8aa70c40d0a0a057717f8f4af231d1ba0641a67f4459b822d99fee4c849b8ef5d6762c92f674d6",
      "networkId": 0,
      "chainId": 0
    }
  ]
}