{
  "hash": "0x9a44e94847e92b0177c75ea0cc9af9782de6ba4867e36cfd13630fb1df0e73f4",
  "parentHash": "0xbabc25cc4079d2afacfa2f2a0ac486ba1916d0ffa16ceceb379ce685a6c16f12",
  "number": 81040,
  "timestamp": 1439495051,
  "nonce": "0x0e2590091d5a7a40",
  "difficulty": 2435591942851,
  "gasLimit": {
    "_hex": "0x2fefd8"
  },
  "gasUsed": {
    "_hex": "0xf618"
  },
  "miner": "0x007f7f58D3eb5b7510A301eCC749FC1fCDDBE14D",
  "extraData": "0x476574682f76312e302e312f77696e646f77732f676f312e342e32",
  "transactions": [
    {
      "hash": "0x7821693e9f61909082709ea0deff96e2e379bb9e71f174e60caaa5a5d4d08b9f",
      "blockHash": "0x9a44e94847e92b0177c75ea0cc9af9782de6ba4867e36cfd13630fb1df0e73f4",
      "blockNumber": 81040,
      "transactionIndex": 0,
      "confirmations": null,
      "from": "0x2910543Af39abA0Cd09dBb2D50200b3E800A63D2",
      "gasPrice": {
        "_hex": "0xd70887f47"
      },
      "gasLimit": {
        "_hex": "0x5208"
      },
      "to": "0xaD9c137D6bFC458Aabd4163b3463F557fADB70b4",
      "value": {
        "_hex": "0x8219949cadcb78000"
      },
      "nonce": 430,
      "data": "0x",
      "r": "0x0cb16f63b82ffc992fe0260e81c42f994605901a90436f3d566753d71f7b9545",
      "s": "0x75ab5793c57a42fd392d162172f4193646337a61aeca5d200ae11ae3fa6fdce4",
      "v": 28,
      "creates": null,
      "raw": "0xf86f8201ae850d70887f4782520894ad9c137d6bfc458aabd4163b3463f557fadb70b48908219949cadcb78000801ca00cb16f63b82ffc992fe0260e81c42f994605901a90436f3d566753d71f7b9545a075ab5793c57a42fd392d162172f4193646337a61aeca5d200ae11ae3fa6fdce4",
      "networkId": 0,
      "chainId": 0
    },
    {
      "hash": "0x7dff46588d4487583dafc164bae3e13298475d95178faf8c04ecb2f135f70af0",
      "blockHash": "0x9a44e94847e92b0177c75ea0cc9af9782de6ba4867e36cfd13630fb1df0e73f4",
      "blockNumber": 81040,
      "transactionIndex": 1,
      "confirmations": null,
      "from": "0x2910543Af39abA0Cd09dBb2D50200b3E800A63D2",
      "gasPrice": {
        "_hex": "0xd70887f47"
      },
      "gasLimit": {
        "_hex": "0x5208"
      },
      "to": "0xA1C2126016EC44266679D716Fb6DE01076e11231",
      "value": {
        "_hex": "0x8219949cadcb78000"
      },
      "nonce": 431,
      "data": "0x",
      "r": "0xe0f398bd2ed2f6d87feccd3533f8a7f22fc163781b4b60c651135ed163b6c5e8",
      "s": "0x6bdbc52c6ad44b6f8850e157a2b042e1b0bb184c8fb36ae529370cbfc577fe1c",
      "v": 27,
      "creates": null,
      "raw": "0xf86f8201af850d70887f4782520894a1c2126016ec44266679d716fb6de01076e112318908219949cadcb78000801ba0e0f398bd2ed2f6d87feccd3533f8a7f22fc163781b4b60c651135ed163b6c5e8a06bdbc52c6ad44b6f8850e157a2b042e1b0bb184c8fb36ae529370cbfc577fe1c",
      "networkId": 0,
      "chainId": 0
    },
    {
      "hash": "0x81b76df1a83476a2b8f03c71b5e5ed1be1a928383e3801cee910a914f00ed156",
      "blockHash": "0x9a44e94847e92b0177c75ea0cc9af9782de6ba4867e36cfd13630fb1df0e73f4",
      "blockNumber": 81040,
      "transactionIndex": 2,
      "confirmations": null,
      "from": "0xC3Ff472485ebe25dAe8d7d96d49Bb59a03103B38",
      "gasPrice": {
        "_hex": "0xba43b7400"
      },
      "gasLimit": {
        "_hex": "0x5267"
      },
      "to": "0x0e2feEC433472451e3E7ea6da95D453C2a82e4dC",
      "value": {
        "_hex": "0x245"
      },
      "nonce": 2,
      "data": "0x",
      "r": "0xc3d6100212b40687e1db87bc63e24380912c8ab5b3d7d764bc527d9ede30e45d",
      "s": "0x0283106a55029e5512b552d2c62f6f24941973ae0a6cbac9cef28c27242ec65c",
      "v": 27,
      "creates": null,
      "raw": "0xf86602850ba43b7400825267940e2feec433472451e3e7ea6da95d453c2a82e4dc820245801ba0c3d6100212b40687e1db87bc63e24380912c8ab5b3d7d764bc527d9ede30e45da00283106a55029e5512b552d2c62f6f24941973ae0a6cbac9cef28c27242ec65c",
      "networkId": 0,
      "chainId": 0
    }
  ]
}