{
  "hash": "0x073aee46975a214f82d9d724d4053b8d4c98b79f93302a8daf2f80ec135bea70",
  "parentHash": "0xd7c344534f54ac0e0a6be857e102367f6ccce934a0323e8d8bf722bfd653a104",
  "number": 80371,
  "timestamp": 1439484719,
  "nonce": "0x3cc1b296c75c7e05",
  "difficulty": 2378199746799,
  "gasLimit": {
    "_hex": "0x2fefd8"
  },
  "gasUsed": {
    "_hex": "0x5208"
  },
  "miner": "0xf927a40C8B7F6E07c5af7FA2155B4864a4112B13",
  "extraData": "0x",
  "transactions": [
    {
      "hash": "0x804f2d7afb640319959767390435244893c528183aa1ce6e7f7390f10b5a72f5",
      "blockHash": "0x073aee46975a214f82d9d724d4053b8d4c98b79f93302a8daf2f80ec135bea70",
      "blockNumber": 80371,
      "transactionIndex": 0,
      "confirmations": null,
      "from": "0xdb49193CE6f62833b2080DC8759acB57d519967F",
      "gasPrice": {
        "_hex": "0xba43b7400"
      },
      "gasLimit": {
        "_hex": "0x5208"
      },
      "to": "0xC47Aaa860008be6f65B58c6C6E02a84e666EfE31",
      "value": {
        "_hex": "0x56bb1dfbbfe2c0710"
      },
      "nonce": 2,
      "data": "0x",
      "r": "0x45956c23e4341f2e89df2f585b2889def74f9ac7c6f220ac52593078135494c9",
      "s": "0x19ec9b93ac044460d16074ee5afe01de23eb9c8469babaa50b41f4bf8093f790",
      "v": 27,
      "creates": null,
      "raw": "0xf86d02850ba43b740082520894c47aaa860008be6f65b58c6c6e02a84e666efe3189056bb1dfbbfe2c0710801ba045956c23e4341f2e89df2f585b2889def74f9ac7c6f220ac52593078135494c9a019ec9b93ac044460d16074ee5afe01de23eb9c8469babaa50b41f4bf8093f790",
      "networkId": 0,
      "chainId": 0
    }
  ]
}