{
  "hash": "0x111db80fa417b8dddb5e370e9b4c0d1426405211dcdad30151bbc068735d68bb",
  "parentHash": "0x73a5e0326259af0433fea4a4f4c50e0a1d9415b019bff24f0044112c4bf3a92b",
  "number": 112775,
  "timestamp": 1440012990,
  "nonce": "0xb3a40fcc636ed2f5",
  "difficulty": 4443255080428,
  "gasLimit": {
    "_hex": "0x2fefd8"
  },
  "gasUsed": {
    "_hex": "0x19a28"
  },
  "miner": "0xe6A7a1d47ff21B6321162AEA7C6CB457D5476Bca",
  "extraData": "0x476574682f76312e302e312d38326566323666362f6c696e75782f676f312e34",
  "transactions": [
    {
      "hash": "0x293582be7766890e7e5b8fce57c37eca0393fa2b8c442d1366fb5cf9bdb3c85e",
      "blockHash": "0x111db80fa417b8dddb5e370e9b4c0d1426405211dcdad30151bbc068735d68bb",
      "blockNumber": 112775,
      "transactionIndex": 0,
      "confirmations": null,
      "from": "0x463eADDDA71F29F36365F889EA7E6fcDBe1cF0c8",
      "gasPrice": {
        "_hex": "0xd2a63384d"
      },
      "gasLimit": {
        "_hex": "0x5208"
      },
      "to": "0x32Be343B94f860124dC4fEe278FDCBD38C102D88",
      "value": {
        "_hex": "0x169313ff69e3b5000"
      },
      "nonce": 7,
      "data": "0x",
      "r": "0x976c17db2db67d5f263ed1c5b0edc4b1a31ed25ddc82b535cee752975de207f6",
      "s": "0x2e4fb1dcdf1523471c82d52541d0a5c68df6b10c752785ebc649b03492b226d0",
      "v": 28,
      "creates": null,
      "raw": "0xf86d07850d2a63384d8252089432be343b94f860124dc4fee278fdcbd38c102d88890169313ff69e3b5000801ca0976c17db2db67d5f263ed1c5b0edc4b1a31ed25ddc82b535cee752975de207f6a02e4fb1dcdf1523471c82d52541d0a5c68df6b10c752785ebc649b03492b226d0",
      "networkId": 0,
      "chainId": 0
    },
    {
      "hash": "0x9e83b7ec4b57f637f651cdd951ec511a8d5e6ce23d65740c83f2e496e3b74767",
      "blockHash": "0x111db80fa417b8dddb5e370e9b4c0d1426405211dcdad30151bbc068735d68bb",
      "blockNumber": 112775,
      "transactionIndex": 1,
      "confirmations": null,
      "from": "0xC711d87af18Db9a7EbE2CFB279b73c8785E55d41",
      "gasPrice": {
        "_hex": "0xd2a63384d"
      },
      "gasLimit": {
        "_hex": "0x5208"
      },
      "to": "0x32Be343B94f860124dC4fEe278FDCBD38C102D88",
      "value": {
        "_hex": "0x1e58c159adc51400"
      },
      "nonce": 7,
      "data": "0x",
      "r": "0xc3a34886000eedbf2c595fa0ae362216f0f4c37d90766477e04d34051f84bad4",
      "s": "0x1f690d61395af6511649c6c9b2e69512f8c9b7e9e529c423522c06d77a8b7139",
      "v": 28,
      "creates": null,
      "raw": "0xf86c07850d2a63384d8252089432be343b94f860124dc4fee278fdcbd38c102d88881e58c159adc51400801ca0c3a34886000eedbf2c595fa0ae362216f0f4c37d90766477e04d34051f84bad4a01f690d61395af6511649c6c9b2e69512f8c9b7e9e529c423522c06d77a8b7139",
      "networkId": 0,
      "chainId": 0
    },
    {
      "hash": "0xb80516aff83eec508fd06b15f5d5bba89c9522187e934065c7ee5d47a318f693",
      "blockHash": "0x111db80fa417b8dddb5e370e9b4c0d1426405211dcdad30151bbc068735d68bb",
      "blockNumber": 112775,
      "transactionIndex": 2,
      "confirmations": null,
      "from": "0x8b687892C6Cf88925ddD772718782A864e5353Df",
      "gasPrice": {
        "_hex": "0xd2a63384d"
      },
      "gasLimit": {
        "_hex": "0x5208"
      },
      "to": "0x32Be343B94f860124dC4fEe278FDCBD38C102D88",
      "value": {
        "_hex": "0x17733d8b9abe9e000"
      },
      "nonce": 7,
      "data": "0x",
      "r": "0x651cef2dadcfea56061207411dcc2ac05193a58f8da7c0ce285ec779ef043c17",
      "s": "0x0e49a5db531dbc0bbed2fac7379bf344183ab502bc5e8dc08b013ae6ab13b08f",
      "v": 28,
      "creates": null,
      "raw": "0xf86d07850d2a63384d8252089432be343b94f860124dc4fee278fdcbd38c102d8889017733d8b9abe9e000801ca0651cef2dadcfea56061207411dcc2ac05193a58f8da7c0ce285ec779ef043c17a00e49a5db531dbc0bbed2fac7379bf344183ab502bc5e8dc08b013ae6ab13b08f",
      "networkId": 0,
      "chainId": 0
    },
    {
      "hash": "0x8fe7e34e8b22489acba5a45f2a3beb8b768bf76d4bd802a82c4ef4af906dc9dc",
      "blockHash": "0x111db80fa417b8dddb5e370e9b4c0d1426405211dcdad30151bbc068735d68bb",
      "blockNumber": 112775,
      "transactionIndex": 3,
      "confirmations": null,
      "from": "0x2637e8641e6ef9C8951adf3E0c7058e76D766cbA",
      "gasPrice": {
        "_hex": "0xd2a63384d"
      },
      "gasLimit": {
        "_hex": "0x5208"
      },
      "to": "0x32Be343B94f860124dC4fEe278FDCBD38C102D88",
      "value": {
        "_hex": "0x7c70315e7daf8800"
      },
      "nonce": 7,
      "data": "0x",
      "r": "0x16216015ddba044e828c428fe6628fb1babc3c00ab9c6071a64710df02cbde7b",
      "s": "0x21cab3dec4878a5dec3ac32f1a95bf04fa38e2ec85613d58a04107edf7701deb",
      "v": 27,
      "creates": null,
      "raw": "0xf86c07850d2a63384d8252089432be343b94f860124dc4fee278fdcbd38c102d88887c70315e7daf8800801ba016216015ddba044e828c428fe6628fb1babc3c00ab9c6071a64710df02cbde7ba021cab3dec4878a5dec3ac32f1a95bf04fa38e2ec85613d58a04107edf7701deb",
      "networkId": 0,
      "chainId": 0
    },
    {
      "hash": "0xa467cdb3e41248b57201e2a103310c663e0c2b77240d1388af763420b357965c",
      "blockHash": "0x111db80fa417b8dddb5e370e9b4c0d1426405211dcdad30151bbc068735d68bb",
      "blockNumber": 112775,
      "transactionIndex": 4,
      "confirmations": null,
      "from": "0xc7Dda420b6e858441b9Ea42B762dF14C59552fbb",
      "gasPrice": {
        "_hex": "0xd2a63384d"
      },
      "gasLimit": {
        "_hex": "0x5208"
      },
      "to": "0x32Be343B94f860124dC4fEe278FDCBD38C102D88",
      "value": {
        "_hex": "0x226a2b2905182000"
      },
      "nonce": 5,
      "data": "0x",
      "r": "0xac0b564267b934a717bdbd578a667e8d5166957dc045851c4c02a5f0af4969e0",
      "s": "0x46f65c2fd6077d296a99822ab001f4301e1a2bdfcedf77c20a5a896e3b3094a1",
      "v": 27,
      "creates": null,
      "raw": "0xf86c05850d2a63384d8252089432be343b94f860124dc4fee278fdcbd38c102d8888226a2b2905182000801ba0ac0b564267b934a717bdbd578a667e8d5166957dc045851c4c02a5f0af4969e0a046f65c2fd6077d296a99822ab001f4301e1a2bdfcedf77c20a5a896e3b3094a1",
      "networkId": 0,
      "chainId": 0
    }
  ]
}