{
  "hash": "0x90f332a168403bffee55f637d6f3fb71f87e85dc0395a5f217b16b2611f88d3f",
  "parentHash": "0xea90b7692f0940d1c4f876501739170324cdcece9ed1a5c258d972f6bf32eb5e",
  "number": 80772,
  "timestamp": 1439490512,
  "nonce": "0x495bb713518c07c6",
  "difficulty": 2447591759056,
  "gasLimit": {
    "_hex": "0x2fefd8"
  },
  "gasUsed": {
    "_hex": "0x9c78"
  },
  "miner": "0x31995C46B15C84523cDEE26f49A681b8237e43F5",
  "extraData": "0x476574682f76312e302e312f77696e646f77732f676f312e342e32",
  "transactions": [
    {
      "hash": "0x106e057e04d4e4e66ad74c9c032cd51b6a180349075fc1421bc58acab955786b",
      "blockHash": "0x90f332a168403bffee55f637d6f3fb71f87e85dc0395a5f217b16b2611f88d3f",
      "blockNumber": 80772,
      "transactionIndex": 0,
      "confirmations": null,
      "from": "0xC603Ab5ef41fC61AA8b76bEddb09e3Cfcbb174BD",
      "gasPrice": {
        "_hex": "0xd984cc42d"
      },
      "gasLimit": {
        "_hex": "0x15f90"
      },
      "to": "0x8F79f76381Aad7B98C19aF55eE75fdfEeb012211",
      "value": {
        "_hex": "0x3cb71f51fc5580000"
      },
      "nonce": 11,
      "data": "0x",
      "r": "0x56ab7e75c168678ce3e3b48f186bf6bc1d1d0b1f7ef6aa4defa5f38c6c26350d",
      "s": "0x470c3cb04ea02fb1f3add9456a2fba7f12266c776f46819e5bcba71e69bcac53",
      "v": 28,
      "creates": null,
      "raw": "0xf86e0b850d984cc42d83015f90948f79f76381aad7b98c19af55ee75fdfeeb0122118903cb71f51fc5580000801ca056ab7e75c168678ce3e3b48f186bf6bc1d1d0b1f7ef6aa4defa5f38c6c26350da0470c3cb04ea02fb1f3add9456a2fba7f12266c776f46819e5bcba71e69bcac53",
      "networkId": 0,
      "chainId": 0
    },
    {
      "hash": "0x1b92fea2c67f93de884103b5cad248f4e1e666d695e7f0a222d7946674faa997",
      "blockHash": "0x90f332a168403bffee55f637d6f3fb71f87e85dc0395a5f217b16b2611f88d3f",
      "blockNumber": 80772,
      "transactionIndex": 1,
      "confirmations": null,
      "from": "0x869e88783E4c2E97d967A89E1aca4523eeAB3D7C",
      "gasPrice": {
        "_hex": "0xd9121f6a5"
      },
      "gasLimit": {
        "_hex": "0x15f90"
      },
      "to": "0xE7B3A5522a9E1Fbfc7Ccc77B8f0B56c341C76498",
      "value": {
        "_hex": "0x0"
      },
      "nonce": 7,
      "data": "0x6198e339000000000000000000000000000000000000000000000000000000000000012c",
      "r": "0x5229cc5c51fff1c97af326ab086ba45292599c722a6c6c9bca41560530506088",
      "s": "0x3693f1ea194761dd0747546ba463c3ae65c0f28dcb842fe7eab03596126a4b7f",
      "v": 28,
      "creates": null,
      "raw": "0xf88907850d9121f6a583015f9094e7b3a5522a9e1fbfc7ccc77b8f0b56c341c7649880a46198e339000000000000000000000000000000000000000000000000000000000000012c1ca05229cc5c51fff1c97af326ab086ba45292599c722a6c6c9bca41560530506088a03693f1ea194761dd0747546ba463c3ae65c0f28dcb842fe7eab03596126a4b7f",
      "networkId": 0,
      "chainId": 0
    }
  ]
}