{
  "hash": "0x16c5ba1dbfc135f3014e6fe9339260704fe80ec9dc8e050d845e85ac673f6603",
  "parentHash": "0xc8019b84ba84c8b76501f853f27fefca0afcd3cf8e874c41db0e6cc6e681efeb",
  "number": 115084,
  "timestamp": 1440051194,
  "nonce": "0x73bc5cd0ff6b5ec2",
  "difficulty": 4540715677161,
  "gasLimit": {
    "_hex": "0x2fefd8"
  },
  "gasUsed": {
    "_hex": "0x5208"
  },
  "miner": "0xcf00A85f3826941e7A25BFcF9Aac575d40410852",
  "extraData": "0x476574682f76312e302e312f77696e646f77732f676f312e342e32",
  "transactions": [
    {
      "hash": "0xa92329c40acae21c8024ad2bcb6bb089573ec733f68cb5557dc56eefc8d5811f",
      "blockHash": "0x16c5ba1dbfc135f3014e6fe9339260704fe80ec9dc8e050d845e85ac673f6603",
      "blockNumber": 115084,
      "transactionIndex": 0,
      "confirmations": null,
      "from": "0xBFa71Aba804c2b986D969E175aCFdAC7266CDe9C",
      "gasPrice": {
        "_hex": "0xcd01555c5"
      },
      "gasLimit": {
        "_hex": "0x7530"
      },
      "to": "0xa9f5E7bf6Cbf6fEc55B30850Eb492b47A376d050",
      "value": {
        "_hex": "0x29a2241af62c00000"
      },
      "nonce": 5,
      "data": "0x",
      "r": "0x41fc15fe8a360998ecf5cfcb5495dd6def2013dcb681523d386cf1391ab969e5",
      "s": "0x2d6007b33f7ab74d0caf6bdab39c787edfdaf0e105e8719afbec8dcc9d5f88e9",
      "v": 28,
      "creates": null,
      "raw": "0xf86d05850cd01555c582753094a9f5e7bf6cbf6fec55b30850eb492b47a376d05089029a2241af62c00000801ca041fc15fe8a360998ecf5cfcb5495dd6def2013dcb681523d386cf1391ab969e5a02d6007b33f7ab74d0caf6bdab39c787edfdaf0e105e8719afbec8dcc9d5f88e9",
      "networkId": 0,
      "chainId": 0
    }
  ]
}