{
  "hash": "0x9f97e14fea9e4852606a185265b52e0624449e6dbd0601cbb79d09cd6e14940f",
  "parentHash": "0x5bd224cb583db3aeb329a8a6b4b07f634dcc678a904d5fd49799814dcf519323",
  "number": 101985,
  "timestamp": 1439830913,
  "nonce": "0x7fae9a5b81df122e",
  "difficulty": 3930041773120,
  "gasLimit": {
    "_hex": "0x2fefd8"
  },
  "gasUsed": {
    "_hex": "0xa410"
  },
  "miner": "0xEF247E639d49461D25F57e9362CadE3120910Ce0",
  "extraData": "0x476574682f76312e302e312f6c696e75782f676f312e342e32",
  "transactions": [
    {
      "hash": "0x4b3ead7828483bbd21c4228e3d5c1fe550736388e4302e279fce722d9dd46e33",
      "blockHash": "0x9f97e14fea9e4852606a185265b52e0624449e6dbd0601cbb79d09cd6e14940f",
      "blockNumber": 101985,
      "transactionIndex": 0,
      "confirmations": null,
      "from": "0xB8796061FcCcC0c40BD2060d95d6cff928bD1C1B",
      "gasPrice": {
        "_hex": "0xd8cb8272f"
      },
      "gasLimit": {
        "_hex": "0x5208"
      },
      "to": "0x32Be343B94f860124dC4fEe278FDCBD38C102D88",
      "value": {
        "_hex": "0x25521600773e74000"
      },
      "nonce": 5,
      "data": "0x",
      "r": "0xbc5b18e72b6ddfae2df90c888a2a699217b42d5780fe4f46979e28f9e53efdac",
      "s": "0x362b56f0f21c5c5fc4f41dc16e389931aa454e3bf3a48eefe39e1b6872048ee3",
      "v": 27,
      "creates": null,
      "raw": "0xf86d05850d8cb8272f8252089432be343b94f860124dc4fee278fdcbd38c102d8889025521600773e74000801ba0bc5b18e72b6ddfae2df90c888a2a699217b42d5780fe4f46979e28f9e53efdaca0362b56f0f21c5c5fc4f41dc16e389931aa454e3bf3a48eefe39e1b6872048ee3",
      "networkId": 0,
      "chainId": 0
    },
    {
      "hash": "0xb82b351a499dffac302bf9d7dbbf41ef148a440533f4a9d7789067f332d7fcef",
      "blockHash": "0x9f97e14fea9e4852606a185265b52e0624449e6dbd0601cbb79d09cd6e14940f",
      "blockNumber": 101985,
      "transactionIndex": 1,
      "confirmations": null,
      "from": "0xBFdD9820a04283b289957956353b5F3C1F665EcF",
      "gasPrice": {
        "_hex": "0xd8cb8272f"
      },
      "gasLimit": {
        "_hex": "0x5208"
      },
      "to": "0x32Be343B94f860124dC4fEe278FDCBD38C102D88",
      "value": {
        "_hex": "0x455bac854bcc3800"
      },
      "nonce": 46,
      "data": "0x",
      "r": "0xc5be34e36f0484206d638373cb4c39efdb33783fda218569b3bf0d0fe161a110",
      "s": "0x31e4b635d82ceb8d3ad0261831eabbae10dad147f71ad3415b3bd945d76f31c2",
      "v": 27,
      "creates": null,
      "raw": "0xf86c2e850d8cb8272f8252089432be343b94f860124dc4fee278fdcbd38c102d8888455bac854bcc3800801ba0c5be34e36f0484206d638373cb4c39efdb33783fda218569b3bf0d0fe161a110a031e4b635d82ceb8d3ad0261831eabbae10dad147f71ad3415b3bd945d76f31c2",
      "networkId": 0,
      "chainId": 0
    }
  ]
}