{
  "hash": "0xeb2b3f1efe0be41295cd4fbee8591c7089d136b8b576f8ebec48b3c63192ce69",
  "parentHash": "0x91a83dfc0aa7a1717c5df6404760e6be8f0ef77e8321f16b472020c92a160be0",
  "number": 60708,
  "timestamp": 1439160281,
  "nonce": "0xec9b5e58a2b3a95f",
  "difficulty": 1732975933900,
  "gasLimit": {
    "_hex": "0x2fefd8"
  },
  "gasUsed": {
    "_hex": "0x546c"
  },
  "miner": "0x88D74a59454F6cF3B51ef6b9136AFb6b9D405A88",
  "extraData": "0x476574682f76312e302e312d37666266393930632f6c696e75782f676f312e34",
  "transactions": [
    {
      "hash": "0xa5cc02a076e1388ab443d41ec56c04ae98b1cdc10d32f0066e37ddfb538717c7",
      "blockHash": "0xeb2b3f1efe0be41295cd4fbee8591c7089d136b8b576f8ebec48b3c63192ce69",
      "blockNumber": 60708,
      "transactionIndex": 0,
      "confirmations": null,
      "from": "0xD3a33636677fFF0BE34EC503b9E848b296E0972A",
      "gasPrice": {
        "_hex": "0x1102b2194bd"
      },
      "gasLimit": {
        "_hex": "0x55f0"
      },
      "to": "0x2910543Af39abA0Cd09dBb2D50200b3E800A63D2",
      "value": {
        "_hex": "0x6f05b59d3b20000"
      },
      "nonce": 0,
      "data": "0x454e324e5441315738",
      "r": "0x06f0b077656ae75176b42d4369e0d36be912ec2d3e1845a7d954025f424ffc75",
      "s": "0x6782d060b005c250e732816d9325136a01931889111eb13b335ee27952eabbfd",
      "v": 27,
      "creates": null,
      "raw": "0xf876808601102b2194bd8255f0942910543af39aba0cd09dbb2d50200b3e800a63d28806f05b59d3b2000089454e324e54413157381ba006f0b077656ae75176b42d4369e0d36be912ec2d3e1845a7d954025f424ffc75a06782d060b005c250e732816d9325136a01931889111eb13b335ee27952eabbfd",
      "networkId": 0,
      "chainId": 0
    }
  ]
}