{
  "hash": "0x330c698e7c9c987288f23a34a815122af29522cea4fde3d2296f21a0a2a7a113",
  "parentHash": "0x7e36e1f1e3fc1e53814c4549fa2574904a20881d2be9c3e4935e3432bf9df52f",
  "number": 112687,
  "timestamp": 1440011443,
  "nonce": "0xc885a8ad4af381f6",
  "difficulty": 4425978899274,
  "gasLimit": {
    "_hex": "0x2fefd8"
  },
  "gasUsed": {
    "_hex": "0xc2d30"
  },
  "miner": "0x47ff6576639c2e94762eA5443978D7681C0E78DC",
  "extraData": "0x",
  "transactions": [
    {
      "hash": "0x9d42833e0df596a95e27319374b6a3411f069258d94877c275d1f284a4731759",
      "blockHash": "0x330c698e7c9c987288f23a34a815122af29522cea4fde3d2296f21a0a2a7a113",
      "blockNumber": 112687,
      "transactionIndex": 0,
      "confirmations": null,
      "from": "0xe6A7a1d47ff21B6321162AEA7C6CB457D5476Bca",
      "gasPrice": {
        "_hex": "0xdfc7b164f"
      },
      "gasLimit": {
        "_hex": "0x55f0"
      },
      "to": "0xA4b566f129e5810957eF8cC2F750383E488D35Dd",
      "value": {
        "_hex": "0x2f937de244fb5df8"
      },
      "nonce": 4792,
      "data": "0x",
      "r": "0xfb5c3c516b104d798706fbd5daf2388faca02ec35fc04738d427affc7ec44551",
      "s": "0x606bc6dfe761b0e19ac0b2e7c6a7fcf6a3ae9b978852a7f110d3532b3a227dfa",
      "v": 28,
      "creates": null,
      "raw": "0xf86e8212b8850dfc7b164f8255f094a4b566f129e5810957ef8cc2f750383e488d35dd882f937de244fb5df8801ca0fb5c3c516b104d798706fbd5daf2388faca02ec35fc04738d427affc7ec44551a0606bc6dfe761b0e19ac0b2e7c6a7fcf6a3ae9b978852a7f110d3532b3a227dfa",
      "networkId": 0,
      "chainId": 0
    },
    {
      "hash": "0x9d7d8b62d3883b4e75793767624b7219afbdae5042dea4b646472a93a639ce14",
      "blockHash": "0x330c698e7c9c987288f23a34a815122af29522cea4fde3d2296f21a0a2a7a113",
      "blockNumber": 112687,
      "transactionIndex": 1,
      "confirmations": null,
      "from": "0xe6A7a1d47ff21B6321162AEA7C6CB457D5476Bca",
      "gasPrice": {
        "_hex": "0xdfc7b164f"
      },
      "gasLimit": {
        "_hex": "0x55f0"
      },
      "to": "0x902cA27B08D58442b67bb4Fa988de351468AB59f",
      "value": {
        "_hex": "0x3006387a19bbf3e4"
      },
      "nonce": 4793,
      "data": "0x",
      "r": "0xd3e5db1858c90ecc3f76a26a6b9f5872100d093baebd039696bfbf73a72135e4",
      "s": "0x2d84a7cdc51d182551617be609bb55272e9a182df71a5945b7ad32295c8e6f42",
      "v": 27,
      "creates": null,
      "raw": "0xf86e8212b9850dfc7b164f8255f094902ca27b08d58442b67bb4fa988de351468ab59f883006387a19bbf3e4801ba0d3e5db1858c90ecc3f76a26a6b9f5872100d093baebd039696bfbf73a72135e4a02d84a7cdc51d182551617be609bb55272e9a182df71a5945b7ad32295c8e6f42",
      "networkId": 0,
      "chainId": 0
    },
    {
      "hash": "0x998db75ff5cbfd7c82e649c7e8766fe7e669740f124032ba327fe28790916991",
      "blockHash": "0x330c698e7c9c987288f23a34a815122af29522cea4fde3d2296f21a0a2a7a113",
      "blockNumber": 112687,
      "transactionIndex": 2,
      "confirmations": null,
      "from": "0xe6A7a1d47ff21B6321162AEA7C6CB457D5476Bca",
      "gasPrice": {
        "_hex": "0xdfc7b164f"
      },
      "gasLimit": {
        "_hex": "0x55f0"
      },
      "to": "0xec4B2cCFC84A4C62d73D56c44917986aAAaEe10f",
      "value": {
        "_hex": "0x302746fd9b37e1dc"
      },
      "nonce": 4794,
      "data": "0x",
      "r": "0x1ce30e0be7435490415177e8c24d469f79d67585767e91719c50b9208a1569c8",
      "s": "0x5ebfb274d6a1f2031b74c0f7d9e2cbd0cee3b5e354cdbb9d9abdd1220a1f37d8",
      "v": 27,
      "creates": null,
      "raw": "0xf86e8212ba850dfc7b164f8255f094ec4b2ccfc84a4c62d73d56c44917986aaaaee10f88302746fd9b37e1dc801ba01ce30e0be7435490415177e8c24d469f79d67585767e91719c50b9208a1569c8a05ebfb274d6a1f2031b74c0f7d9e2cbd0cee3b5e354cdbb9d9abdd1220a1f37d8",
      "networkId": 0,
      "chainId": 0
    },
    {
      "hash": "0x1c4152faa8c596d35922f11b16e59cfd50d68e03dc7fbf1cc94f4a16a1eec904",
      "blockHash": "0x330c698e7c9c987288f23a34a815122af29522cea4fde3d2296f21a0a2a7a113",
      "blockNumber": 112687,
      "transactionIndex": 3,
      "confirmations": null,
      "from": "0xe6A7a1d47ff21B6321162AEA7C6CB457D5476Bca",
      "gasPrice": {
        "_hex": "0xdfc7b164f"
      },
      "gasLimit": {
        "_hex": "0x55f0"
      },
      "to": "0x8f30e76a8Ddf9FaEf40fd58197421716764B72D8",
      "value": {
        "_hex": "0x3033f6ff2717e608"
      },
      "nonce": 4795,
      "data": "0x",
      "r": "0x5cf14c8ad93e3e2f6e7440cf5684cb93e4227f2f7e7268870ecbb4f51838ee8a",
      "s": "0x74c6697541a5b9af91de4c650f073896c3eb3b79f014fe7932f7f6fc63cf2c7a",
      "v": 27,
      "creates": null,
      "raw": "0xf86e8212bb850dfc7b164f8255f0948f30e76a8ddf9faef40fd58197421716764b72d8883033f6ff2717e608801ba05cf14c8ad93e3e2f6e7440cf5684cb93e4227f2f7e7268870ecbb4f51838ee8aa074c6697541a5b9af91de4c650f073896c3eb3b79f014fe7932f7f6fc63cf2c7a",
      "networkId": 0,
      "chainId": 0
    },
    {
      "hash": "0x8615c24c31d0b643f14cbdc2f2ae1e46a8900b6e7244f32cd00c76bca3f9decd",
      "blockHash": "0x330c698e7c9c987288f23a34a815122af29522cea4fde3d2296f21a0a2a7a113",
      "blockNumber": 112687,
      "transactionIndex": 4,
      "confirmations": null,
      "from": "0xe6A7a1d47ff21B6321162AEA7C6CB457D5476Bca",
      "gasPrice": {
        "_hex": "0xdfc7b164f"
      },
      "gasLimit": {
        "_hex": "0x55f0"
      },
      "to": "0x305E8d20Ca61Ba9DD2DD18E1134e7CDB9a13F68D",
      "value": {
        "_hex": "0x30570b000175761c"
      },
      "nonce": 4796,
      "data": "0x",
      "r": "0xf4b50693f223a7344cd9a5ce22c1ef2c4bb3c45d240d04ff65776fff019dd2ff",
      "s": "0x6f4eac639df3b32936a77eece49c7b2e8264298b0b219bde344dec343dbd1d98",
      "v": 28,
      "creates": null,
      "raw": "0xf86e8212bc850dfc7b164f8255f094305e8d20ca61ba9dd2dd18e1134e7cdb9a13f68d8830570b000175761c801ca0f4b50693f223a7344cd9a5ce22c1ef2c4bb3c45d240d04ff65776fff019dd2ffa06f4eac639df3b32936a77eece49c7b2e8264298b0b219bde344dec343dbd1d98",
      "networkId": 0,
      "chainId": 0
    },
    {
      "hash": "0xfa2d2e2de110a40bb5fe4a36f894424345e98daacaeab9cb50f80505ae18d638",
      "blockHash": "0x330c698e7c9c987288f23a34a815122af29522cea4fde3d2296f21a0a2a7a113",
      "blockNumber": 112687,
      "transactionIndex": 5,
      "confirmations": null,
      "from": "0xe6A7a1d47ff21B6321162AEA7C6CB457D5476Bca",
      "gasPrice": {
        "_hex": "0xdfc7b164f"
      },
      "gasLimit": {
        "_hex": "0x55f0"
      },
      "to": "0xE7dAdedf7cEBAaBa85903823D254601B1D459C9B",
      "value": {
        "_hex": "0x30cfbcc34e7eeb80"
      },
      "nonce": 4797,
      "data": "0x",
      "r": "0x27e7f17f71a8541709d56d63ec39cc943fbd3e2b7fe1d64038be031501f12bd3",
      "s": "0x6ab71009e9c929697e76cf653bc12eeb1b8b07a8aa730a39af456e66ae30e794",
      "v": 27,
      "creates": null,
      "raw": "0xf86e8212bd850dfc7b164f8255f094e7dadedf7cebaaba85903823d254601b1d459c9b8830cfbcc34e7eeb80801ba027e7f17f71a8541709d56d63ec39cc943fbd3e2b7fe1d64038be031501f12bd3a06ab71009e9c929697e76cf653bc12eeb1b8b07a8aa730a39af456e66ae30e794",
      "networkId": 0,
      "chainId": 0
    },
    {
      "hash": "0xfaa1098604fff89f7e46e10283152b305aa77c8a6a7e6bbd1be8047be56645d0",
      "blockHash": "0x330c698e7c9c987288f23a34a815122af29522cea4fde3d2296f21a0a2a7a113",
      "blockNumber": 112687,
      "transactionIndex": 6,
      "confirmations": null,
      "from": "0xe6A7a1d47ff21B6321162AEA7C6CB457D5476Bca",
      "gasPrice": {
        "_hex": "0xdfc7b164f"
      },
      "gasLimit": {
        "_hex": "0x55f0"
      },
      "to": "0xF161498A7f225A91C338015ca11833B3399393A8",
      "value": {
        "_hex": "0x3142b658d36e13a0"
      },
      "nonce": 4798,
      "data": "0x",
      "r": "0x02e624a2a239ee1adbe7e763c0a785e6edc39312f3bc394db11e3a5c127fac16",
      "s": "0x5634d34190abeb11bd59ea473e383584c567b5fb57555167240bea6824693d07",
      "v": 28,
      "creates": null,
      "raw": "0xf86e8212be850dfc7b164f8255f094f161498a7f225a91c338015ca11833b3399393a8883142b658d36e13a0801ca002e624a2a239ee1adbe7e763c0a785e6edc39312f3bc394db11e3a5c127fac16a05634d34190abeb11bd59ea473e383584c567b5fb57555167240bea6824693d07",
      "networkId": 0,
      "chainId": 0
    },
    {
      "hash": "0x4cd95a2edc6e6b083c7b8891a6e4d4c05e0f46eaf775c71b3f4c816dbd71987c",
      "blockHash": "0x330c698e7c9c987288f23a34a815122af29522cea4fde3d2296f21a0a2a7a113",
      "blockNumber": 112687,
      "transactionIndex": 7,
      "confirmations": null,
      "from": "0xe6A7a1d47ff21B6321162AEA7C6CB457D5476Bca",
      "gasPrice": {
        "_hex": "0xdfc7b164f"
      },
      "gasLimit": {
        "_hex": "0x55f0"
      },
      "to": "0x7A3554F1e75C6Cf86Cb0eb6Ef3515C8008437be8",
      "value": {
        "_hex": "0x317aa745f41ba228"
      },
      "nonce": 4799,
      "data": "0x",
      "r": "0xd4be3f769f3c00e7885add3c5cdc1d5996c26cb01921450af97ecad6a31801b0",
      "s": "0x0b0d5b5e3d39bc541b0f47dcdbc7f56b24e459f8af4b3005ea4c815eab799e0a",
      "v": 27,
      "creates": null,
      "raw": "0xf86e8212bf850dfc7b164f8255f0947a3554f1e75c6cf86cb0eb6ef3515c8008437be888317aa745f41ba228801ba0d4be3f769f3c00e7885add3c5cdc1d5996c26cb01921450af97ecad6a31801b0a00b0d5b5e3d39bc541b0f47dcdbc7f56b24e459f8af4b3005ea4c815eab799e0a",
      "networkId": 0,
      "chainId": 0
    },
    {
      "hash": "0x0e7438e13d1c962041f14c8892e53f51b67291531e4ce0634ae2ad279d1b1587",
      "blockHash": "0x330c698e7c9c987288f23a34a815122af29522cea4fde3d2296f21a0a2a7a113",
      "blockNumber": 112687,
      "transactionIndex": 8,
      "confirmations": null,
      "from": "0xe6A7a1d47ff21B6321162AEA7C6CB457D5476Bca",
      "gasPrice": {
        "_hex": "0xdfc7b164f"
      },
      "gasLimit": {
        "_hex": "0x55f0"
      },
      "to": "0xeD3Fe86896534C24D9F91232faE34b78DFf3c1f4",
      "value": {
        "_hex": "0x31dd31aa9f81c498"
      },
      "nonce": 4800,
      "data": "0x",
      "r": "0xa2e252667d4c17df3ddbff3809841928ade36be25798174139a0c2ddb1d617e3",
      "s": "0x345511d6a487faebb3cf16918ec76d45728761c4ec8e7ebb2f09c6a8383d5c62",
      "v": 28,
      "creates": null,
      "raw": "0xf86e8212c0850dfc7b164f8255f094ed3fe86896534c24d9f91232fae34b78dff3c1f48831dd31aa9f81c498801ca0a2e252667d4c17df3ddbff3809841928ade36be25798174139a0c2ddb1d617e3a0345511d6a487faebb3cf16918ec76d45728761c4ec8e7ebb2f09c6a8383d5c62",
      "networkId": 0,
      "chainId": 0
    },
    {
      "hash": "0x8a1f6f5594b51d66fac6590402e9dcc6ed438f4fae3b41e56f731b1e746c78fa",
      "blockHash": "0x330c698e7c9c987288f23a34a815122af29522cea4fde3d2296f21a0a2a7a113",
      "blockNumber": 112687,
      "transactionIndex": 9,
      "confirmations": null,
      "from": "0xe6A7a1d47ff21B6321162AEA7C6CB457D5476Bca",
      "gasPrice": {
        "_hex": "0xdfc7b164f"
      },
      "gasLimit": {
        "_hex": "0x55f0"
      },
      "to": "0x46b29910396E1cF71678f81101334A180876E9b1",
      "value": {
        "_hex": "0x3202246b1fba600c"
      },
      "nonce": 4801,
      "data": "0x",
      "r": "0x0c6e23609547e75dbb90b17a2a5faaa595671e150966a27f9401f5d803f86470",
      "s": "0x402be20e030e868f4c6905aaa881dae7d980cc38ff18f35fbd9fd8843ae180a7",
      "v": 27,
      "creates": null,
      "raw": "0xf86e8212c1850dfc7b164f8255f09446b29910396e1cf71678f81101334a180876e9b1883202246b1fba600c801ba00c6e23609547e75dbb90b17a2a5faaa595671e150966a27f9401f5d803f86470a0402be20e030e868f4c6905aaa881dae7d980cc38ff18f35fbd9fd8843ae180a7",
      "networkId": 0,
      "chainId": 0
    },
    {
      "hash": "0xd681a61f2f2d890feeadd1f4a6dc9714f406023eb634305d1b820b981c5e9726",
      "blockHash": "0x330c698e7c9c987288f23a34a815122af29522cea4fde3d2296f21a0a2a7a113",
      "blockNumber": 112687,
      "transactionIndex": 10,
      "confirmations": null,
      "from": "0xe6A7a1d47ff21B6321162AEA7C6CB457D5476Bca",
      "gasPrice": {
        "_hex": "0xdfc7b164f"
      },
      "gasLimit": {
        "_hex": "0x55f0"
      },
      "to": "0x8d629C20608135491B5013f1002586A0383130e5",
      "value": {
        "_hex": "0x331c4c7f6fcb9c08"
      },
      "nonce": 4802,
      "data": "0x",
      "r": "0x8e64ec58d338d0cfa0d3bdea7a4a11d5b9a4e18e62bfa754abf15690ce42c028",
      "s": "0x675dfb005be80fad5544294a102b6d79e8440636108050f791001f39117eb597",
      "v": 27,
      "creates": null,
      "raw": "0xf86e8212c2850dfc7b164f8255f0948d629c20608135491b5013f1002586a0383130e588331c4c7f6fcb9c08801ba08e64ec58d338d0cfa0d3bdea7a4a11d5b9a4e18e62bfa754abf15690ce42c028a0675dfb005be80fad5544294a102b6d79e8440636108050f791001f39117eb597",
      "networkId": 0,
      "chainId": 0
    },
    {
      "hash": "0xf233c682fd6bc6119f850ddcf9708f29ae0fed9f69d82d0365d1c1d7c54db651",
      "blockHash": "0x330c698e7c9c987288f23a34a815122af29522cea4fde3d2296f21a0a2a7a113",
      "blockNumber": 112687,
      "transactionIndex": 11,
      "confirmations": null,
      "from": "0xe6A7a1d47ff21B6321162AEA7C6CB457D5476Bca",
      "gasPrice": {
        "_hex": "0xdfc7b164f"
      },
      "gasLimit": {
        "_hex": "0x55f0"
      },
      "to": "0x3F6DDbC103F2999640fe4AFc6884708fa691C2b8",
      "value": {
        "_hex": "0x337ee83c28b26890"
      },
      "nonce": 4803,
      "data": "0x",
      "r": "0x18952963bb3c08c58a71c736454e2f33b700b3b09aad80b7ecdb9b6e196f206e",
      "s": "0x442565c17976fa0ef59ec5802fa66d4645cb329570edb5168089c5a89e4105cd",
      "v": 28,
      "creates": null,
      "raw": "0xf86e8212c3850dfc7b164f8255f0943f6ddbc103f2999640fe4afc6884708fa691c2b888337ee83c28b26890801ca018952963bb3c08c58a71c736454e2f33b700b3b09aad80b7ecdb9b6e196f206ea0442565c17976fa0ef59ec5802fa66d4645cb329570edb5168089c5a89e4105cd",
      "networkId": 0,
      "chainId": 0
    },
    {
      "hash": "0x6d9422509da6dbc0ba00a16caf81d5662dd368efc9dfb649915e8ea73ffcec10",
      "blockHash": "0x330c698e7c9c987288f23a34a815122af29522cea4fde3d2296f21a0a2a7a113",
      "blockNumber": 112687,
      "transactionIndex": 12,
      "confirmations": null,
      "from": "0xe6A7a1d47ff21B6321162AEA7C6CB457D5476Bca",
      "gasPrice": {
        "_hex": "0xdfc7b164f"
      },
      "gasLimit": {
        "_hex": "0x55f0"
      },
      "to": "0x519DC97eF09491aE962A8F13fe144c71feca4662",
      "value": {
        "_hex": "0x338d019d32ec4f00"
      },
      "nonce": 4804,
      "data": "0x",
      "r": "0x59b60cc0c2d7bd6255a11dead8601e75b82f2d8f4b7320224ee416b75361e9c7",
      "s": "0x3f28578de8d4249aec22bee0a1223d33d706f37b4aeff77f3da401027406ec55",
      "v": 27,
      "creates": null,
      "raw": "0xf86e8212c4850dfc7b164f8255f094519dc97ef09491ae962a8f13fe144c71feca466288338d019d32ec4f00801ba059b60cc0c2d7bd6255a11dead8601e75b82f2d8f4b7320224ee416b75361e9c7a03f28578de8d4249aec22bee0a1223d33d706f37b4aeff77f3da401027406ec55",
      "networkId": 0,
      "chainId": 0
    },
    {
      "hash": "0xb8e907a2bc9fcfc5c3b31f94c23edca79a6e77da2a2ea493aaeaf60902526e37",
      "blockHash": "0x330c698e7c9c987288f23a34a815122af29522cea4fde3d2296f21a0a2a7a113",
      "blockNumber": 112687,
      "transactionIndex": 13,
      "confirmations": null,
      "from": "0xe6A7a1d47ff21B6321162AEA7C6CB457D5476Bca",
      "gasPrice": {
        "_hex": "0xdfc7b164f"
      },
      "gasLimit": {
        "_hex": "0x55f0"
      },
      "to": "0x63d25FB5edc318Aae1DEc4F3aBd7c645f921cff8",
      "value": {
        "_hex": "0x33a5934c42f8b0d8"
      },
      "nonce": 4805,
      "data": "0x",
      "r": "0x36508a5bbdbd4ade42951246acf51a2d0cafd5578004619b18549c3bdfcb95ef",
      "s": "0x7d933b9d4e66b815bde6444d9ebec65604a745f6aeb69c4c9277c09ac1d03b34",
      "v": 28,
      "creates": null,
      "raw": "0xf86e8212c5850dfc7b164f8255f09463d25fb5edc318aae1dec4f3abd7c645f921cff88833a5934c42f8b0d8801ca036508a5bbdbd4ade42951246acf51a2d0cafd5578004619b18549c3bdfcb95efa07d933b9d4e66b815bde6444d9ebec65604a745f6aeb69c4c9277c09ac1d03b34",
      "networkId": 0,
      "chainId": 0
    },
    {
      "hash": "0x38585d9cbe2cb0d57984179ef0060fac9e738411347426ff0e7ac772a50229db",
      "blockHash": "0x330c698e7c9c987288f23a34a815122af29522cea4fde3d2296f21a0a2a7a113",
      "blockNumber": 112687,
      "transactionIndex": 14,
      "confirmations": null,
      "from": "0xe6A7a1d47ff21B6321162AEA7C6CB457D5476Bca",
      "gasPrice": {
        "_hex": "0xdfc7b164f"
      },
      "gasLimit": {
        "_hex": "0x55f0"
      },
      "to": "0xCeC4fF1eD13686d78234A6F8377d9d65d67f0c5a",
      "value": {
        "_hex": "0x33f32cd403483bd8"
      },
      "nonce": 4806,
      "data": "0x",
      "r": "0xd40f78b9425b91675931a4d18c466fa35cbe7f06ebf66751ba4ceb5f78487348",
      "s": "0x5aabea62a02b82c6dea2064a7de00e572e9083c7fedd0724d28d1164ad9af593",
      "v": 28,
      "creates": null,
      "raw": "0xf86e8212c6850dfc7b164f8255f094cec4ff1ed13686d78234a6f8377d9d65d67f0c5a8833f32cd403483bd8801ca0d40f78b9425b91675931a4d18c466fa35cbe7f06ebf66751ba4ceb5f78487348a05aabea62a02b82c6dea2064a7de00e572e9083c7fedd0724d28d1164ad9af593",
      "networkId": 0,
      "chainId": 0
    },
    {
      "hash": "0x5bb9ad188f32d7fd7d43f250805d69b75c8fe720f948189bc422ec2d1c50c1e6",
      "blockHash": "0x330c698e7c9c987288f23a34a815122af29522cea4fde3d2296f21a0a2a7a113",
      "blockNumber": 112687,
      "transactionIndex": 15,
      "confirmations": null,
      "from": "0xe6A7a1d47ff21B6321162AEA7C6CB457D5476Bca",
      "gasPrice": {
        "_hex": "0xdd79a1349"
      },
      "gasLimit": {
        "_hex": "0x55f0"
      },
      "to": "0xfABFCDb9aD54126a8829d5aB6357F608C6B005d0",
      "value": {
        "_hex": "0x344160bf44546d28"
      },
      "nonce": 4807,
      "data": "0x",
      "r": "0xc0a82d7c215f7c4cc6998ffccd8ce901b001160dbd8fff6d4e83a72b594a88d4",
      "s": "0x2d8bca52226cefed09d3256671144cefc7b4b1244ae027fe2679f8e509d0d862",
      "v": 27,
      "creates": null,
      "raw": "0xf86e8212c7850dd79a13498255f094fabfcdb9ad54126a8829d5ab6357f608c6b005d088344160bf44546d28801ba0c0a82d7c215f7c4cc6998ffccd8ce901b001160dbd8fff6d4e83a72b594a88d4a02d8bca52226cefed09d3256671144cefc7b4b1244ae027fe2679f8e509d0d862",
      "networkId": 0,
      "chainId": 0
    },
    {
      "hash": "0x1cfad980498dbc6e242c7679f61215b6e2a797480f2cb30b8d6c5aaa84a9603e",
      "blockHash": "0x330c698e7c9c987288f23a34a815122af29522cea4fde3d2296f21a0a2a7a113",
      "blockNumber": 112687,
      "transactionIndex": 16,
      "confirmations": null,
      "from": "0xe6A7a1d47ff21B6321162AEA7C6CB457D5476Bca",
      "gasPrice": {
        "_hex": "0xdd79a1349"
      },
      "gasLimit": {
        "_hex": "0x55f0"
      },
      "to": "0xe33977E292cceF99Ea8828733e97562F3690a8ad",
      "value": {
        "_hex": "0x3450d70124dc8ddc"
      },
      "nonce": 4808,
      "data": "0x",
      "r": "0x92d9e6e60ec64294ce1212b61dcadd3d9d19617e64bfb7159e11f4266501858b",
      "s": "0x2f5146d7e69cd65ce44fcee166c62f7c58f5d9d22c44bda9a9d2d10c67699342",
      "v": 27,
      "creates": null,
      "raw": "0xf86e8212c8850dd79a13498255f094e33977e292ccef99ea8828733e97562f3690a8ad883450d70124dc8ddc801ba092d9e6e60ec64294ce1212b61dcadd3d9d19617e64bfb7159e11f4266501858ba02f5146d7e69cd65ce44fcee166c62f7c58f5d9d22c44bda9a9d2d10c67699342",
      "networkId": 0,
      "chainId": 0
    },
    {
      "hash": "0x7632766ae2e766932c30f28f7305e9b22305ca219d03e3fec579f4e2a38c15ee",
      "blockHash": "0x330c698e7c9c987288f23a34a815122af29522cea4fde3d2296f21a0a2a7a113",
      "blockNumber": 112687,
      "transactionIndex": 17,
      "confirmations": null,
      "from": "0xe6A7a1d47ff21B6321162AEA7C6CB457D5476Bca",
      "gasPrice": {
        "_hex": "0xdd79a1349"
      },
      "gasLimit": {
        "_hex": "0x55f0"
      },
      "to": "0x0d62E666D681E8Be96903Ac4aBD3537f28c6125A",
      "value": {
        "_hex": "0x34a5b66c3b0221e0"
      },
      "nonce": 4809,
      "data": "0x",
      "r": "0x113b806a5f4ebd3184d70af119cdd13d6cba736036645667e11951661e19ab75",
      "s": "0x7a8f35093ffd6731fe281fc596d63360349373ed650fae52e2f725998b03f363",
      "v": 27,
      "creates": null,
      "raw": "0xf86e8212c9850dd79a13498255f0940d62e666d681e8be96903ac4abd3537f28c6125a8834a5b66c3b0221e0801ba0113b806a5f4ebd3184d70af119cdd13d6cba736036645667e11951661e19ab75a07a8f35093ffd6731fe281fc596d63360349373ed650fae52e2f725998b03f363",
      "networkId": 0,
      "chainId": 0
    },
    {
      "hash": "0xcbb81587a1e2db57bcd6f413e9a5e2c20d1fce587e92a1b5df90fcf185417c2e",
      "blockHash": "0x330c698e7c9c987288f23a34a815122af29522cea4fde3d2296f21a0a2a7a113",
      "blockNumber": 112687,
      "transactionIndex": 18,
      "confirmations": null,
      "from": "0xe6A7a1d47ff21B6321162AEA7C6CB457D5476Bca",
      "gasPrice": {
        "_hex": "0xdd79a1349"
      },
      "gasLimit": {
        "_hex": "0x55f0"
      },
      "to": "0x248aCc54C440214585155Ba4fe5c9706Fb234061",
      "value": {
        "_hex": "0x34c2281d7dba962c"
      },
      "nonce": 4810,
      "data": "0x",
      "r": "0x37067167410d32dd235dfa6ee311b6b8c432b4ffb02f1cbd05595065cd8852bd",
      "s": "0x764c3675d43765d76ca718556072da009af487c64eb2962b9a90e62b94a33aae",
      "v": 28,
      "creates": null,
      "raw": "0xf86e8212ca850dd79a13498255f094248acc54c440214585155ba4fe5c9706fb2340618834c2281d7dba962c801ca037067167410d32dd235dfa6ee311b6b8c432b4ffb02f1cbd05595065cd8852bda0764c3675d43765d76ca718556072da009af487c64eb2962b9a90e62b94a33aae",
      "networkId": 0,
      "chainId": 0
    },
    {
      "hash": "0xb69063ff52438c502417aeb2ed30afe915f7dca87c6430a68456058605af4dda",
      "blockHash": "0x330c698e7c9c987288f23a34a815122af29522cea4fde3d2296f21a0a2a7a113",
      "blockNumber": 112687,
      "transactionIndex": 19,
      "confirmations": null,
      "from": "0xe6A7a1d47ff21B6321162AEA7C6CB457D5476Bca",
      "gasPrice": {
        "_hex": "0xdd79a1349"
      },
      "gasLimit": {
        "_hex": "0x55f0"
      },
      "to": "0x90891a4dAE53428129E5E2044f4677213EcCBB59",
      "value": {
        "_hex": "0x350416f9423c4890"
      },
      "nonce": 4811,
      "data": "0x",
      "r": "0xce31e64ddd03b0019adcee82254a5e2aacec4ff1883cbb937d6e5e8ead0be6e1",
      "s": "0x391cde37b6b6f922818421fa8e88bd6c3e1fcf1795f61f439bc4fc5759d41e65",
      "v": 28,
      "creates": null,
      "raw": "0xf86e8212cb850dd79a13498255f09490891a4dae53428129e5e2044f4677213eccbb5988350416f9423c4890801ca0ce31e64ddd03b0019adcee82254a5e2aacec4ff1883cbb937d6e5e8ead0be6e1a0391cde37b6b6f922818421fa8e88bd6c3e1fcf1795f61f439bc4fc5759d41e65",
      "networkId": 0,
      "chainId": 0
    },
    {
      "hash": "0x4640364770a304a170dceff55d39f4a3c20ae2b52133915218d4fe28ad739b16",
      "blockHash": "0x330c698e7c9c987288f23a34a815122af29522cea4fde3d2296f21a0a2a7a113",
      "blockNumber": 112687,
      "transactionIndex": 20,
      "confirmations": null,
      "from": "0xe6A7a1d47ff21B6321162AEA7C6CB457D5476Bca",
      "gasPrice": {
        "_hex": "0xdd79a1349"
      },
      "gasLimit": {
        "_hex": "0x55f0"
      },
      "to": "0x0a856CdC3EaFBAD120c51220d0F71d4Aa2Dee7AE",
      "value": {
        "_hex": "0x35393ef12119741c"
      },
      "nonce": 4812,
      "data": "0x",
      "r": "0x749f9b2075eebb8cc1e6464db8d4b7fae69bdfa3a98654582e1cc5d91a2a478b",
      "s": "0x01e1af5982b63787d1e36228436b3deb8c5a4f47f9bc78ee4295b282877a968d",
      "v": 28,
      "creates": null,
      "raw": "0xf86e8212cc850dd79a13498255f0940a856cdc3eafbad120c51220d0f71d4aa2dee7ae8835393ef12119741c801ca0749f9b2075eebb8cc1e6464db8d4b7fae69bdfa3a98654582e1cc5d91a2a478ba001e1af5982b63787d1e36228436b3deb8c5a4f47f9bc78ee4295b282877a968d",
      "networkId": 0,
      "chainId": 0
    },
    {
      "hash": "0x5ad5559654615f8ef07f10c1a61c2911af94a7cd6cd259980c9684dcd3f8db02",
      "blockHash": "0x330c698e7c9c987288f23a34a815122af29522cea4fde3d2296f21a0a2a7a113",
      "blockNumber": 112687,
      "transactionIndex": 21,
      "confirmations": null,
      "from": "0xe6A7a1d47ff21B6321162AEA7C6CB457D5476Bca",
      "gasPrice": {
        "_hex": "0xdd79a1349"
      },
      "gasLimit": {
        "_hex": "0x55f0"
      },
      "to": "0xB4EcAAfC5fB10d5D30A931de851f3FF1DaD41141",
      "value": {
        "_hex": "0x35a14422c3aa200c"
      },
      "nonce": 4813,
      "data": "0x",
      "r": "0xf986d17b66916681c8cda56bfb59135c16924f0fa8f9edabdfa4677dbb7442c0",
      "s": "0x723f8cd88e7d596e78c076e27ab8b877d89ce575e5308bce91e59b5a6dd8d172",
      "v": 27,
      "creates": null,
      "raw": "0xf86e8212cd850dd79a13498255f094b4ecaafc5fb10d5d30a931de851f3ff1dad411418835a14422c3aa200c801ba0f986d17b66916681c8cda56bfb59135c16924f0fa8f9edabdfa4677dbb7442c0a0723f8cd88e7d596e78c076e27ab8b877d89ce575e5308bce91e59b5a6dd8d172",
      "networkId": 0,
      "chainId": 0
    },
    {
      "hash": "0xc9ec139b38853031e20cd3e253a58e8a7322948453ddb2f66ade7963634243cb",
      "blockHash": "0x330c698e7c9c987288f23a34a815122af29522cea4fde3d2296f21a0a2a7a113",
      "blockNumber": 112687,
      "transactionIndex": 22,
      "confirmations": null,
      "from": "0xe6A7a1d47ff21B6321162AEA7C6CB457D5476Bca",
      "gasPrice": {
        "_hex": "0xdd79a1349"
      },
      "gasLimit": {
        "_hex": "0x55f0"
      },
      "to": "0x6589D22b54648e5D67Dc008eBd0c836D3DF39c87",
      "value": {
        "_hex": "0x35d26bc9ed1c89e8"
      },
      "nonce": 4814,
      "data": "0x",
      "r": "0xf1f57c931a8fc54798ee99673715ca9752a268f90b08e541bc808d52a520adce",
      "s": "0x48302894e47abbecc150424a2d034d1b41ec6ff6b64fa1b59c2d67cc78809bc5",
      "v": 27,
      "creates": null,
      "raw": "0xf86e8212ce850dd79a13498255f0946589d22b54648e5d67dc008ebd0c836d3df39c878835d26bc9ed1c89e8801ba0f1f57c931a8fc54798ee99673715ca9752a268f90b08e541bc808d52a520adcea048302894e47abbecc150424a2d034d1b41ec6ff6b64fa1b59c2d67cc78809bc5",
      "networkId": 0,
      "chainId": 0
    },
    {
      "hash": "0xdd1b4451e49942e3872cbc7e36400631ed00eb1202c90273f963da09d2770e5f",
      "blockHash": "0x330c698e7c9c987288f23a34a815122af29522cea4fde3d2296f21a0a2a7a113",
      "blockNumber": 112687,
      "transactionIndex": 23,
      "confirmations": null,
      "from": "0xe6A7a1d47ff21B6321162AEA7C6CB457D5476Bca",
      "gasPrice": {
        "_hex": "0xdd79a1349"
      },
      "gasLimit": {
        "_hex": "0x55f0"
      },
      "to": "0x014687B2Ed3c3256fe367D6aC47ab2482E055F6b",
      "value": {
        "_hex": "0x35d6ce19f9294a30"
      },
      "nonce": 4815,
      "data": "0x",
      "r": "0x6b0262c4049656aacbca304ea0c364a2ae5e0d8c7cde65cbcf7c2496d27cca60",
      "s": "0x1aee19c4a080fb6adc9093ecb6db3c3d6fbc300930007eb562aa42d09af9b0e6",
      "v": 28,
      "creates": null,
      "raw": "0xf86e8212cf850dd79a13498255f094014687b2ed3c3256fe367d6ac47ab2482e055f6b8835d6ce19f9294a30801ca06b0262c4049656aacbca304ea0c364a2ae5e0d8c7cde65cbcf7c2496d27cca60a01aee19c4a080fb6adc9093ecb6db3c3d6fbc300930007eb562aa42d09af9b0e6",
      "networkId": 0,
      "chainId": 0
    },
    {
      "hash": "0xb1fc65460f1f01ef4ba267f13301a84e9a9a37d8f37c1c758687b6aa52b6928d",
      "blockHash": "0x330c698e7c9c987288f23a34a815122af29522cea4fde3d2296f21a0a2a7a113",
      "blockNumber": 112687,
      "transactionIndex": 24,
      "confirmations": null,
      "from": "0xe6A7a1d47ff21B6321162AEA7C6CB457D5476Bca",
      "gasPrice": {
        "_hex": "0xdd79a1349"
      },
      "gasLimit": {
        "_hex": "0x55f0"
      },
      "to": "0x027698B61229ECCa19311e977ADE3C2923D4e414",
      "value": {
        "_hex": "0x362357a3dd0aece0"
      },
      "nonce": 4816,
      "data": "0x",
      "r": "0x739959c09be149ad2f97479954ed711a17db3564f363229abe81e1811449e42e",
      "s": "0x01e92695a5a91a0908958e1e92fc6ac4739d9a7861ef631bd520fea5a6ab2baa",
      "v": 28,
      "creates": null,
      "raw": "0xf86e8212d0850dd79a13498255f094027698b61229ecca19311e977ade3c2923d4e41488362357a3dd0aece0801ca0739959c09be149ad2f97479954ed711a17db3564f363229abe81e1811449e42ea001e92695a5a91a0908958e1e92fc6ac4739d9a7861ef631bd520fea5a6ab2baa",
      "networkId": 0,
      "chainId": 0
    },
    {
      "hash": "0xd1905fe0b373935ef69388ff55ceb537de2164a9b89e2903d5b8404fece78957",
      "blockHash": "0x330c698e7c9c987288f23a34a815122af29522cea4fde3d2296f21a0a2a7a113",
      "blockNumber": 112687,
      "transactionIndex": 25,
      "confirmations": null,
      "from": "0xe6A7a1d47ff21B6321162AEA7C6CB457D5476Bca",
      "gasPrice": {
        "_hex": "0xdd79a1349"
      },
      "gasLimit": {
        "_hex": "0x55f0"
      },
      "to": "0x3B6C409e2ADC909C20B59DF21a7c48F44c259F24",
      "value": {
        "_hex": "0x366a3661bd82e5b0"
      },
      "nonce": 4817,
      "data": "0x",
      "r": "0xe0362799a111d0ac3badd6d7a51fd441d7087eeaec9d8d0889900d8a4d2760ac",
      "s": "0x0052c4e0932a87598ebba116a9ffa978af5d60d5ad898ca465b05d62068281b6",
      "v": 27,
      "creates": null,
      "raw": "0xf86d8212d1850dd79a13498255f0943b6c409e2adc909c20b59df21a7c48f44c259f2488366a3661bd82e5b0801ba0e0362799a111d0ac3badd6d7a51fd441d7087eeaec9d8d0889900d8a4d2760ac9f52c4e0932a87598ebba116a9ffa978af5d60d5ad898ca465b05d62068281b6",
      "networkId": 0,
      "chainId": 0
    },
    {
      "hash": "0xde59f3781b5c183118fef202515354ae7e93fe8093d28419ef8839df43899956",
      "blockHash": "0x330c698e7c9c987288f23a34a815122af29522cea4fde3d2296f21a0a2a7a113",
      "blockNumber": 112687,
      "transactionIndex": 26,
      "confirmations": null,
      "from": "0xe6A7a1d47ff21B6321162AEA7C6CB457D5476Bca",
      "gasPrice": {
        "_hex": "0xdd79a1349"
      },
      "gasLimit": {
        "_hex": "0x55f0"
      },
      "to": "0xB7A755cBC2Bb4D94e844A9b1D1ff53420d836478",
      "value": {
        "_hex": "0x366aa8bdb3b73fe4"
      },
      "nonce": 4818,
      "data": "0x",
      "r": "0xd9690ae5fc140d40651243b0e79717167858425bea6f754be4bd170ed4644b67",
      "s": "0x65c3c2dbebb4b1d30e0ce3765b4f3960fc7675eade4d2da53d8e2bb48877e9f1",
      "v": 28,
      "creates": null,
      "raw": "0xf86e8212d2850dd79a13498255f094b7a755cbc2bb4d94e844a9b1d1ff53420d83647888366aa8bdb3b73fe4801ca0d9690ae5fc140d40651243b0e79717167858425bea6f754be4bd170ed4644b67a065c3c2dbebb4b1d30e0ce3765b4f3960fc7675eade4d2da53d8e2bb48877e9f1",
      "networkId": 0,
      "chainId": 0
    },
    {
      "hash": "0xdbd6b00c18af3b63d60c0c7ec0c69b62040e1ec2e93f637a74a7926f286f3c9e",
      "blockHash": "0x330c698e7c9c987288f23a34a815122af29522cea4fde3d2296f21a0a2a7a113",
      "blockNumber": 112687,
      "transactionIndex": 27,
      "confirmations": null,
      "from": "0xe6A7a1d47ff21B6321162AEA7C6CB457D5476Bca",
      "gasPrice": {
        "_hex": "0xdd79a1349"
      },
      "gasLimit": {
        "_hex": "0x55f0"
      },
      "to": "0x228ed249A4299B231F83A502c12d904e48C5842c",
      "value": {
        "_hex": "0x367345e8c04f9078"
      },
      "nonce": 4819,
      "data": "0x",
      "r": "0xa32ac9a67207c7cfc1f378b155dbfc0db706fe783aea2bb2319381374b3687e6",
      "s": "0x16044a96bb10e11391e463bdf3b346c8f396d7b15bcecfd5174a02a628067622",
      "v": 28,
      "creates": null,
      "raw": "0xf86e8212d3850dd79a13498255f094228ed249a4299b231f83a502c12d904e48c5842c88367345e8c04f9078801ca0a32ac9a67207c7cfc1f378b155dbfc0db706fe783aea2bb2319381374b3687e6a016044a96bb10e11391e463bdf3b346c8f396d7b15bcecfd5174a02a628067622",
      "networkId": 0,
      "chainId": 0
    },
    {
      "hash": "0x02502d2d120d796cba62407a0e9dbe18b42da3e5274fc14f296eab49e769dd00",
      "blockHash": "0x330c698e7c9c987288f23a34a815122af29522cea4fde3d2296f21a0a2a7a113",
      "blockNumber": 112687,
      "transactionIndex": 28,
      "confirmations": null,
      "from": "0xe6A7a1d47ff21B6321162AEA7C6CB457D5476Bca",
      "gasPrice": {
        "_hex": "0xdd79a1349"
      },
      "gasLimit": {
        "_hex": "0x55f0"
      },
      "to": "0x03809628C90e1092EA99EcFDACA6251435dbc94B",
      "value": {
        "_hex": "0x36b26796489a5ae0"
      },
      "nonce": 4820,
      "data": "0x",
      "r": "0xb36f3e3ef9d04d9373b828c44146ea7ecaf0b4fe7d144416a619827f2836a9a7",
      "s": "0x01890794170025f10e2f509b0ad11a9fe6b621e5d65b8af9837af56b597ae9f6",
      "v": 28,
      "creates": null,
      "raw": "0xf86e8212d4850dd79a13498255f09403809628c90e1092ea99ecfdaca6251435dbc94b8836b26796489a5ae0801ca0b36f3e3ef9d04d9373b828c44146ea7ecaf0b4fe7d144416a619827f2836a9a7a001890794170025f10e2f509b0ad11a9fe6b621e5d65b8af9837af56b597ae9f6",
      "networkId": 0,
      "chainId": 0
    },
    {
      "hash": "0xf7b41e572fb84ff60d6bed96f4f9ad2cf35175a7c8b451ffdcdc62a3aab21299",
      "blockHash": "0x330c698e7c9c987288f23a34a815122af29522cea4fde3d2296f21a0a2a7a113",
      "blockNumber": 112687,
      "transactionIndex": 29,
      "confirmations": null,
      "from": "0xe6A7a1d47ff21B6321162AEA7C6CB457D5476Bca",
      "gasPrice": {
        "_hex": "0xdd79a1349"
      },
      "gasLimit": {
        "_hex": "0x55f0"
      },
      "to": "0x77e41B4125b7c14757e0f07fE36b2E95db757a10",
      "value": {
        "_hex": "0x37b013531d909d70"
      },
      "nonce": 4821,
      "data": "0x",
      "r": "0xe28d3d92ad7d4e0b5c5b3ddfd577b5bb2069926632e6b7f984fb561ab6c1aea6",
      "s": "0x726d42c827b56f370c7e1d13ff0ff86dc086eabbe0c3e2ae921ab9eeca348f46",
      "v": 28,
      "creates": null,
      "raw": "0xf86e8212d5850dd79a13498255f09477e41b4125b7c14757e0f07fe36b2e95db757a108837b013531d909d70801ca0e28d3d92ad7d4e0b5c5b3ddfd577b5bb2069926632e6b7f984fb561ab6c1aea6a0726d42c827b56f370c7e1d13ff0ff86dc086eabbe0c3e2ae921ab9eeca348f46",
      "networkId": 0,
      "chainId": 0
    },
    {
      "hash": "0xe1d64d2803948cd12cf35806222941eb05cc7901cec76c77022b0e8d2e78312d",
      "blockHash": "0x330c698e7c9c987288f23a34a815122af29522cea4fde3d2296f21a0a2a7a113",
      "blockNumber": 112687,
      "transactionIndex": 30,
      "confirmations": null,
      "from": "0xe6A7a1d47ff21B6321162AEA7C6CB457D5476Bca",
      "gasPrice": {
        "_hex": "0xdd79a1349"
      },
      "gasLimit": {
        "_hex": "0x55f0"
      },
      "to": "0x2374d8ad849F04E476f8D13457503f7cca23892E",
      "value": {
        "_hex": "0x38284e6ffee40a1c"
      },
      "nonce": 4822,
      "data": "0x",
      "r": "0x4ff865216ea933c506c2069ff2044f0d7181daa1b9ac986215735b99f647bd07",
      "s": "0x32c0e6d06a0f7e3410d7f02400cbe16561751a5cb1152f84cab0ca9e4750c9b6",
      "v": 28,
      "creates": null,
      "raw": "0xf86e8212d6850dd79a13498255f0942374d8ad849f04e476f8d13457503f7cca23892e8838284e6ffee40a1c801ca04ff865216ea933c506c2069ff2044f0d7181daa1b9ac986215735b99f647bd07a032c0e6d06a0f7e3410d7f02400cbe16561751a5cb1152f84cab0ca9e4750c9b6",
      "networkId": 0,
      "chainId": 0
    },
    {
      "hash": "0x83514c3c8d4cbaa603451c4c2fe38df5b629ee3a48d945e8fb796069f3a9f17c",
      "blockHash": "0x330c698e7c9c987288f23a34a815122af29522cea4fde3d2296f21a0a2a7a113",
      "blockNumber": 112687,
      "transactionIndex": 31,
      "confirmations": null,
      "from": "0xe6A7a1d47ff21B6321162AEA7C6CB457D5476Bca",
      "gasPrice": {
        "_hex": "0xdd79a1349"
      },
      "gasLimit": {
        "_hex": "0x55f0"
      },
      "to": "0xaa71fa80d26F718E6A3c87e41D817b8D10944a63",
      "value": {
        "_hex": "0x38332fd2de16fe1c"
      },
      "nonce": 4823,
      "data": "0x",
      "r": "0x777c5740584c27d716b9dbbfca14ac4f1403221be1aa015aa8c5f52a04bbe3f7",
      "s": "0x735779c1afc7c334507f314cfabcc0766c81d4d2ba8a99c51049eb5072173480",
      "v": 27,
      "creates": null,
      "raw": "0xf86e8212d7850dd79a13498255f094aa71fa80d26f718e6a3c87e41d817b8d10944a638838332fd2de16fe1c801ba0777c5740584c27d716b9dbbfca14ac4f1403221be1aa015aa8c5f52a04bbe3f7a0735779c1afc7c334507f314cfabcc0766c81d4d2ba8a99c51049eb5072173480",
      "networkId": 0,
      "chainId": 0
    },
    {
      "hash": "0x786a7fb5a6f8015761d795172b6484a73e7c162958154b85c68ca1e77531f867",
      "blockHash": "0x330c698e7c9c987288f23a34a815122af29522cea4fde3d2296f21a0a2a7a113",
      "blockNumber": 112687,
      "transactionIndex": 32,
      "confirmations": null,
      "from": "0xe6A7a1d47ff21B6321162AEA7C6CB457D5476Bca",
      "gasPrice": {
        "_hex": "0xdd79a1349"
      },
      "gasLimit": {
        "_hex": "0x55f0"
      },
      "to": "0x2561d06bcc264cb07D32663B326f510d61E48f4c",
      "value": {
        "_hex": "0x384bcb05dee6d380"
      },
      "nonce": 4824,
      "data": "0x",
      "r": "0x5d599fafac3650db98a0be77722ddc5d2cd5b13cd39a0215f09b2f4c9f50909f",
      "s": "0x046a9c151d58163c52cee1637e4f90f78de832bc9e4322637932656713dcbbed",
      "v": 27,
      "creates": null,
      "raw": "0xf86e8212d8850dd79a13498255f0942561d06bcc264cb07d32663b326f510d61e48f4c88384bcb05dee6d380801ba05d599fafac3650db98a0be77722ddc5d2cd5b13cd39a0215f09b2f4c9f50909fa0046a9c151d58163c52cee1637e4f90f78de832bc9e4322637932656713dcbbed",
      "networkId": 0,
      "chainId": 0
    },
    {
      "hash": "0x25a85d60d5dce509aeeef0b93e11343c59c2fc90c93aaffe615d35389e34aa6e",
      "blockHash": "0x330c698e7c9c987288f23a34a815122af29522cea4fde3d2296f21a0a2a7a113",
      "blockNumber": 112687,
      "transactionIndex": 33,
      "confirmations": null,
      "from": "0xe6A7a1d47ff21B6321162AEA7C6CB457D5476Bca",
      "gasPrice": {
        "_hex": "0xdd79a1349"
      },
      "gasLimit": {
        "_hex": "0x55f0"
      },
      "to": "0x59C7860aBcb1eE791165B63365c3C8657EEe54c5",
      "value": {
        "_hex": "0x38b6c46042ba8a00"
      },
      "nonce": 4825,
      "data": "0x",
      "r": "0x296acc4fc4a3b798811a626b193a8bfc89814ad87c51746b7e9b579f753b0422",
      "s": "0x1d4f51ea63351af20854f6447266388c9d29ee5da6da640a97e6b0988468ea6a",
      "v": 28,
      "creates": null,
      "raw": "0xf86e8212d9850dd79a13498255f09459c7860abcb1ee791165b63365c3c8657eee54c58838b6c46042ba8a00801ca0296acc4fc4a3b798811a626b193a8bfc89814ad87c51746b7e9b579f753b0422a01d4f51ea63351af20854f6447266388c9d29ee5da6da640a97e6b0988468ea6a",
      "networkId": 0,
      "chainId": 0
    },
    {
      "hash": "0x364bde55737041a914224e0a271673b7a2a9dc8c05c4f3d39e82f855f781bcc9",
      "blockHash": "0x330c698e7c9c987288f23a34a815122af29522cea4fde3d2296f21a0a2a7a113",
      "blockNumber": 112687,
      "transactionIndex": 34,
      "confirmations": null,
      "from": "0xe6A7a1d47ff21B6321162AEA7C6CB457D5476Bca",
      "gasPrice": {
        "_hex": "0xdd79a1349"
      },
      "gasLimit": {
        "_hex": "0x55f0"
      },
      "to": "0x923707da8Dd7Ff41a0bDD87b62c9E5DfA9c420a5",
      "value": {
        "_hex": "0x38cfe4042de93c0c"
      },
      "nonce": 4826,
      "data": "0x",
      "r": "0x4f6c8321e8f3f569009acf060fcdf887f3bd4164b14dea62d45c9433122676b5",
      "s": "0x7c269fb624a035aca9a229871044829c45d0493f75a1d28b735733544eace5c6",
      "v": 27,
      "creates": null,
      "raw": "0xf86e8212da850dd79a13498255f094923707da8dd7ff41a0bdd87b62c9e5dfa9c420a58838cfe4042de93c0c801ba04f6c8321e8f3f569009acf060fcdf887f3bd4164b14dea62d45c9433122676b5a07c269fb624a035aca9a229871044829c45d0493f75a1d28b735733544eace5c6",
      "networkId": 0,
      "chainId": 0
    },
    {
      "hash": "0x0f5ef0d8e35b6dd747cddbfefc75ddb7d9a935867e76e1b3ac2bc6acc1884d87",
      "blockHash": "0x330c698e7c9c987288f23a34a815122af29522cea4fde3d2296f21a0a2a7a113",
      "blockNumber": 112687,
      "transactionIndex": 35,
      "confirmations": null,
      "from": "0xe6A7a1d47ff21B6321162AEA7C6CB457D5476Bca",
      "gasPrice": {
        "_hex": "0xdd79a1349"
      },
      "gasLimit": {
        "_hex": "0x55f0"
      },
      "to": "0xbc681E36E2BC0d9Cb397811ce7a5821da2D66059",
      "value": {
        "_hex": "0x39fa922bd47809d0"
      },
      "nonce": 4827,
      "data": "0x",
      "r": "0x4433ee29f523d4d0b19eb668ff15b83e681c004ea88f228e3c91c69f20b06166",
      "s": "0x62cc312b346f71dba6fd2361a5e24fd9ca237842790cab0932f87010b477c8ba",
      "v": 28,
      "creates": null,
      "raw": "0xf86e8212db850dd79a13498255f094bc681e36e2bc0d9cb397811ce7a5821da2d660598839fa922bd47809d0801ca04433ee29f523d4d0b19eb668ff15b83e681c004ea88f228e3c91c69f20b06166a062cc312b346f71dba6fd2361a5e24fd9ca237842790cab0932f87010b477c8ba",
      "networkId": 0,
      "chainId": 0
    },
    {
      "hash": "0xee5dda95d6d6a24de24d2ae542dbf6ec2bb83f222cb7d9c2a76efbf8a73a63b2",
      "blockHash": "0x330c698e7c9c987288f23a34a815122af29522cea4fde3d2296f21a0a2a7a113",
      "blockNumber": 112687,
      "transactionIndex": 36,
      "confirmations": null,
      "from": "0xe6A7a1d47ff21B6321162AEA7C6CB457D5476Bca",
      "gasPrice": {
        "_hex": "0xdd79a1349"
      },
      "gasLimit": {
        "_hex": "0x55f0"
      },
      "to": "0x0e308556B1C6EEB7457a08f91D5E132b4a54C9F1",
      "value": {
        "_hex": "0x3a4adbde582dcca0"
      },
      "nonce": 4828,
      "data": "0x",
      "r": "0x1258f2fe8badbfc5edafb9dba920feece2037e2f62a85305fc1dd64697b9eb48",
      "s": "0x2b748b28ef29cf7b5d66474806409e697e41f2e7cb9f2ae5d816420323fbd4fd",
      "v": 27,
      "creates": null,
      "raw": "0xf86e8212dc850dd79a13498255f0940e308556b1c6eeb7457a08f91d5e132b4a54c9f1883a4adbde582dcca0801ba01258f2fe8badbfc5edafb9dba920feece2037e2f62a85305fc1dd64697b9eb48a02b748b28ef29cf7b5d66474806409e697e41f2e7cb9f2ae5d816420323fbd4fd",
      "networkId": 0,
      "chainId": 0
    },
    {
      "hash": "0xb84630e6b516ae13d31cc7057a261434764b7543bc7de4ed08b8c7886855c93f",
      "blockHash": "0x330c698e7c9c987288f23a34a815122af29522cea4fde3d2296f21a0a2a7a113",
      "blockNumber": 112687,
      "transactionIndex": 37,
      "confirmations": null,
      "from": "0x32Be343B94f860124dC4fEe278FDCBD38C102D88",
      "gasPrice": {
        "_hex": "0xdc99b0ab0"
      },
      "gasLimit": {
        "_hex": "0x5208"
      },
      "to": "0x8C4E227F9D4D31e1Fdb1Ad0Ad3AA64Ce3f528bab",
      "value": {
        "_hex": "0x11f5022f87312900000"
      },
      "nonce": 1346,
      "data": "0x",
      "r": "0x6f35e5ba3b864a167befe202187fd18a4154b897917dc775d6389355e9cf6965",
      "s": "0x2c0d4fe70821bc7ac67f45dae476e0ecf4c6ef3b1e905782a39fcb39bb21cf83",
      "v": 28,
      "creates": null,
      "raw": "0xf870820542850dc99b0ab0825208948c4e227f9d4d31e1fdb1ad0ad3aa64ce3f528bab8a011f5022f87312900000801ca06f35e5ba3b864a167befe202187fd18a4154b897917dc775d6389355e9cf6965a02c0d4fe70821bc7ac67f45dae476e0ecf4c6ef3b1e905782a39fcb39bb21cf83",
      "networkId": 0,
      "chainId": 0
    }
  ]
}