{
  "hash": "0x6992065b478bd7ee38702d42a2c034e8e58f7e3410e0499b54a7f4e5942b91cb",
  "parentHash": "0xf456a2fca9baaa1ac121e1e9089feed7732c012fb82665878a9f1bd0ece4a2f6",
  "number": 92037,
  "timestamp": 1439665781,
  "nonce": "0xd7caf5b73a921418",
  "difficulty": 3472365074218,
  "gasLimit": {
    "_hex": "0x2fefd8"
  },
  "gasUsed": {
    "_hex": "0x5208"
  },
  "miner": "0xe6A7a1d47ff21B6321162AEA7C6CB457D5476Bca",
  "extraData": "0x476574682f76312e302e312d38326566323666362f6c696e75782f676f312e34",
  "transactions": [
    {
      "hash": "0x2431cb3649368ec0a86d5094426470d89d3840419aaeeb48d15025ed6bd302f4",
      "blockHash": "0x6992065b478bd7ee38702d42a2c034e8e58f7e3410e0499b54a7f4e5942b91cb",
      "blockNumber": 92037,
      "transactionIndex": 0,
      "confirmations": null,
      "from": "0x2FDfeedE63884ABE4F6A3D9476DF6091e0B27934",
      "gasPrice": {
        "_hex": "0xd92488659"
      },
      "gasLimit": {
        "_hex": "0x5208"
      },
      "to": "0x32Be343B94f860124dC4fEe278FDCBD38C102D88",
      "value": {
        "_hex": "0x56bc2f952c6738000"
      },
      "nonce": 3,
      "data": "0x",
      "r": "0x9c8e541dcc13ad41bb1feafcc86fa4e6004dac62f98b4ca9b9bba348bd3d85ec",
      "s": "0x14f02a203900ad1c1f83e76531844f18faf1095afa6ff9bab055649abff9cf1c",
      "v": 28,
      "creates": null,
      "raw": "0xf86d03850d924886598252089432be343b94f860124dc4fee278fdcbd38c102d8889056bc2f952c6738000801ca09c8e541dcc13ad41bb1feafcc86fa4e6004dac62f98b4ca9b9bba348bd3d85eca014f02a203900ad1c1f83e76531844f18faf1095afa6ff9bab055649abff9cf1c",
      "networkId": 0,
      "chainId": 0
    }
  ]
}