{
  "hash": "0xf2458e7e29fe7dd2581da318cb667fe4f28b8fab22d62b532328ec8dee6504b8",
  "parentHash": "0x6f01d1b33b6fe947ae107e01e75f21afdeb4369c20400e7bddf053c952e7d75c",
  "number": 106034,
  "timestamp": 1439897532,
  "nonce": "0xf5fcdcc08d283672",
  "difficulty": 4470775654861,
  "gasLimit": {
    "_hex": "0x2fefd8"
  },
  "gasUsed": {
    "_hex": "0x1b497"
  },
  "miner": "0xeB1325C8D9d3ea8D74aC11F4B00F1B2367686319",
  "extraData": "0x",
  "transactions": [
    {
      "hash": "0x707785a6600028f95caaeec7585a6fc1a8b371672f76ff313c797d1e632afd59",
      "blockHash": "0xf2458e7e29fe7dd2581da318cb667fe4f28b8fab22d62b532328ec8dee6504b8",
      "blockNumber": 106034,
      "transactionIndex": 0,
      "confirmations": null,
      "from": "0x87C5B5874A18B4306DF8a752a6C8cc3E82daFc19",
      "gasPrice": {
        "_hex": "0x10d467e0164"
      },
      "gasLimit": {
        "_hex": "0x493e0"
      },
      "to": "0xD79B4C6791784184e2755B2fC1659eaaB0f80456",
      "value": {
        "_hex": "0x1426d992feb5f1cc"
      },
      "nonce": 330,
      "data": "0x8d2161860000000000000000000000000000000000000000000000000000000000000007d3d96ceed0cfca4794c2a5a3d3aeefe69da0a2a669e66a5651f30b64831c3db0",
      "r": "0x4ac645f2f8fb58bd9e6270555e65545218c2e6db8feff530983f7de2b8a0fa1f",
      "s": "0x138891b78bfa499a451dca276af92d93d5215cf5b39ccdbf4d37c23a83b532d2",
      "v": 28,
      "creates": null,
      "raw": "0xf8b582014a86010d467e0164830493e094d79b4c6791784184e2755b2fc1659eaab0f80456881426d992feb5f1ccb8448d2161860000000000000000000000000000000000000000000000000000000000000007d3d96ceed0cfca4794c2a5a3d3aeefe69da0a2a669e66a5651f30b64831c3db01ca04ac645f2f8fb58bd9e6270555e65545218c2e6db8feff530983f7de2b8a0fa1fa0138891b78bfa499a451dca276af92d93d5215cf5b39ccdbf4d37c23a83b532d2",
      "networkId": 0,
      "chainId": 0
    }
  ]
}