{
  "hash": "0x136f9b75e5eeb4bfc9669684f462231a23e84c3e1a305f25ce4b2a1a8f43cf4f",
  "parentHash": "0x62dafe48620c6e217091acfde5f924178f0a2f40584241fd923802bba9aae8d1",
  "number": 81472,
  "timestamp": 1439502306,
  "nonce": "0xb467d2eda7d4ba9b",
  "difficulty": 2444998664135,
  "gasLimit": {
    "_hex": "0x2fefd8"
  },
  "gasUsed": {
    "_hex": "0x5208"
  },
  "miner": "0xf8E0CA3Ed80bd541b94BEdCf259e8CF2141A9523",
  "extraData": "0x476574682f76312e302e312f77696e646f77732f676f312e342e32",
  "transactions": [
    {
      "hash": "0x0e9675a74ac29bdeaf001d01a7241c6d04df1468eef160e8fd59033a0990b309",
      "blockHash": "0x136f9b75e5eeb4bfc9669684f462231a23e84c3e1a305f25ce4b2a1a8f43cf4f",
      "blockNumber": 81472,
      "transactionIndex": 0,
      "confirmations": null,
      "from": "0x2910543Af39abA0Cd09dBb2D50200b3E800A63D2",
      "gasPrice": {
        "_hex": "0xe17edef5e"
      },
      "gasLimit": {
        "_hex": "0x5208"
      },
      "to": "0x2A4D0D7f7bD3e0d40E717a73305D524c08c55a5a",
      "value": {
        "_hex": "0x11c37937e08000"
      },
      "nonce": 484,
      "data": "0x",
      "r": "0x78da04a771721cfe84721e6bc5c164350f08e3d632c268521123e23572eebf9c",
      "s": "0x3bd0c90f49938bfce1223cd32ad59d5d8c99147249492dd88164d7038ed8f667",
      "v": 28,
      "creates": null,
      "raw": "0xf86d8201e4850e17edef5e825208942a4d0d7f7bd3e0d40e717a73305d524c08c55a5a8711c37937e08000801ca078da04a771721cfe84721e6bc5c164350f08e3d632c268521123e23572eebf9ca03bd0c90f49938bfce1223cd32ad59d5d8c99147249492dd88164d7038ed8f667",
      "networkId": 0,
      "chainId": 0
    }
  ]
}