{
  "hash": "0xacebbdd514cd4ecd4f145b0477932fa56a697e5a9a08da4dd91cc03b8ac3a867",
  "parentHash": "0xf2de7a00dcf041e6f08d6a24f1174b12854a1a6f08c1282edcc974d32bf97885",
  "number": 112232,
  "timestamp": 1440004157,
  "nonce": "0x415abacd5cd6c6bb",
  "difficulty": 4376788537159,
  "gasLimit": {
    "_hex": "0x2fefd8"
  },
  "gasUsed": {
    "_hex": "0x546c"
  },
  "miner": "0xe6A7a1d47ff21B6321162AEA7C6CB457D5476Bca",
  "extraData": "0x476574682f76312e302e312d38326566323666362f6c696e75782f676f312e34",
  "transactions": [
    {
      "hash": "0x88226b36b13ef9869e894dcdaef5361f42142f6f59f778f7965b3959bc3ad4a1",
      "blockHash": "0xacebbdd514cd4ecd4f145b0477932fa56a697e5a9a08da4dd91cc03b8ac3a867",
      "blockNumber": 112232,
      "transactionIndex": 0,
      "confirmations": null,
      "from": "0x911ff233E1A211c0172C92B46Cf997030582c83a",
      "gasPrice": {
        "_hex": "0x110c8f7d8de"
      },
      "gasLimit": {
        "_hex": "0xc350"
      },
      "to": "0x2910543Af39abA0Cd09dBb2D50200b3E800A63D2",
      "value": {
        "_hex": "0x140ec80fa7ee880000"
      },
      "nonce": 0,
      "data": "0x454e4e473132374452",
      "r": "0x223de7370e8d9cb78d17fa2627e9fefe2cf94464000d3906e2cc420151883e6e",
      "s": "0xd19d8618ad396e330a1c110acdc2328a3a3c63ebfaa28fc0b386d6d87e7c06a9",
      "v": 28,
      "creates": null,
      "raw": "0xf87780860110c8f7d8de82c350942910543af39aba0cd09dbb2d50200b3e800a63d289140ec80fa7ee88000089454e4e4731323744521ca0223de7370e8d9cb78d17fa2627e9fefe2cf94464000d3906e2cc420151883e6ea0d19d8618ad396e330a1c110acdc2328a3a3c63ebfaa28fc0b386d6d87e7c06a9",
      "networkId": 0,
      "chainId": 0
    }
  ]
}