{
  "hash": "0x23b73b3bea78a4fa97f236972f37e7e7869810084c549de38de9ac78b268e0cc",
  "parentHash": "0xdf0fe64a25e4b1f1ba8d21ab14f6c540f6f368b1011505e891d6c852d46c1eb8",
  "number": 112742,
  "timestamp": 1440012480,
  "nonce": "0xc038081dea216387",
  "difficulty": 4441103522556,
  "gasLimit": {
    "_hex": "0x2fefd8"
  },
  "gasUsed": {
    "_hex": "0xa410"
  },
  "miner": "0xe6A7a1d47ff21B6321162AEA7C6CB457D5476Bca",
  "extraData": "0x476574682f76312e302e312d38326566323666362f6c696e75782f676f312e34",
  "transactions": [
    {
      "hash": "0x3972c360e62f4ff7eba03751cf542129ed952e130c0b42438289eb32906cdf91",
      "blockHash": "0x23b73b3bea78a4fa97f236972f37e7e7869810084c549de38de9ac78b268e0cc",
      "blockNumber": 112742,
      "transactionIndex": 0,
      "confirmations": null,
      "from": "0x0d62E666D681E8Be96903Ac4aBD3537f28c6125A",
      "gasPrice": {
        "_hex": "0xd8363f668"
      },
      "gasLimit": {
        "_hex": "0x5208"
      },
      "to": "0x32Be343B94f860124dC4fEe278FDCBD38C102D88",
      "value": {
        "_hex": "0x34a161ea432e0800"
      },
      "nonce": 8,
      "data": "0x",
      "r": "0x344b909f85164c6109ae6a037fe7070b6ab3b84204c17b302d1f5d0057dc10d5",
      "s": "0x14cce9fd53a5c9d66d7957aa971bff761d22b0c14519c533185ee1a54493d60e",
      "v": 28,
      "creates": null,
      "raw": "0xf86c08850d8363f6688252089432be343b94f860124dc4fee278fdcbd38c102d888834a161ea432e0800801ca0344b909f85164c6109ae6a037fe7070b6ab3b84204c17b302d1f5d0057dc10d5a014cce9fd53a5c9d66d7957aa971bff761d22b0c14519c533185ee1a54493d60e",
      "networkId": 0,
      "chainId": 0
    },
    {
      "hash": "0x10a39391413737e5fd09b2c1d9e694caec5cb1d0f7dd53ce9556e3cf5e18ffc4",
      "blockHash": "0x23b73b3bea78a4fa97f236972f37e7e7869810084c549de38de9ac78b268e0cc",
      "blockNumber": 112742,
      "transactionIndex": 1,
      "confirmations": null,
      "from": "0x6599C9c86f1635FAAEFE7A5540914811DAD8d167",
      "gasPrice": {
        "_hex": "0xd8363f668"
      },
      "gasLimit": {
        "_hex": "0x5208"
      },
      "to": "0x32Be343B94f860124dC4fEe278FDCBD38C102D88",
      "value": {
        "_hex": "0x3f012c8535241400"
      },
      "nonce": 8,
      "data": "0x",
      "r": "0xde892bd6ccf419c25e15dcb0d269f2a818f238decacbf3d9008ed15a10acf8a5",
      "s": "0x0f1e6fe19e38fcce5d4aea97632ed999318b8ef95c394a920ad106c86b4a62bb",
      "v": 28,
      "creates": null,
      "raw": "0xf86c08850d8363f6688252089432be343b94f860124dc4fee278fdcbd38c102d88883f012c8535241400801ca0de892bd6ccf419c25e15dcb0d269f2a818f238decacbf3d9008ed15a10acf8a5a00f1e6fe19e38fcce5d4aea97632ed999318b8ef95c394a920ad106c86b4a62bb",
      "networkId": 0,
      "chainId": 0
    }
  ]
}