{
  "hash": "0x4db302a06c1ae3355b1a1789bf6168e282a8d7f6625e0080cbae21879a67b187",
  "parentHash": "0xbbfd5b891ee9b5e2d5c1e75ef1040d0fb6067d2126f9cc1d2f38aed6219b31c9",
  "number": 48017,
  "timestamp": 1438949973,
  "nonce": "0xb07e8678e3bf84b1",
  "difficulty": 1460808009927,
  "gasLimit": {
    "_hex": "0x1199a"
  },
  "gasUsed": {
    "_hex": "0xa8d8"
  },
  "miner": "0x580992B51e3925e23280EfB93d3047C82f17E038",
  "extraData": "0x476574682f76312e302e312f6c696e75782f676f312e342e32",
  "transactions": [
    {
      "hash": "0xf7c33602cfd3727566c81c870f58753054248500aa4d7d1e85a1c7daf01e97ae",
      "blockHash": "0x4db302a06c1ae3355b1a1789bf6168e282a8d7f6625e0080cbae21879a67b187",
      "blockNumber": 48017,
      "transactionIndex": 0,
      "confirmations": null,
      "from": "0x7D5D2f73949DaDdA0856B206989Df0078D51A1E5",
      "gasPrice": {
        "_hex": "0xe8d4a51000"
      },
      "gasLimit": {
        "_hex": "0x55f0"
      },
      "to": "0x2910543Af39abA0Cd09dBb2D50200b3E800A63D2",
      "value": {
        "_hex": "0x3635c9adc5dea00000"
      },
      "nonce": 2,
      "data": "0x454e364738394a4147",
      "r": "0x1f2f885281c43071668e04ec33f1f119f8e9b5b0825fe8c2f0649d023f467d29",
      "s": "0x701d4783e8978795d7098ef45d5df2a2358ea72fd4dce3e5d639b40dd43f3045",
      "v": 27,
      "creates": null,
      "raw": "0xf8760285e8d4a510008255f0942910543af39aba0cd09dbb2d50200b3e800a63d2893635c9adc5dea0000089454e364738394a41471ba01f2f885281c43071668e04ec33f1f119f8e9b5b0825fe8c2f0649d023f467d29a0701d4783e8978795d7098ef45d5df2a2358ea72fd4dce3e5d639b40dd43f3045",
      "networkId": 0,
      "chainId": 0
    },
    {
      "hash": "0x7c402ff46c107f982a9f3556c6967a33e43298e02193b0fb167c91233817556f",
      "blockHash": "0x4db302a06c1ae3355b1a1789bf6168e282a8d7f6625e0080cbae21879a67b187",
      "blockNumber": 48017,
      "transactionIndex": 1,
      "confirmations": null,
      "from": "0x4970d3Acf72b5B1F32A7003cF102c64EE0547941",
      "gasPrice": {
        "_hex": "0xdac4cdb50"
      },
      "gasLimit": {
        "_hex": "0x7d00"
      },
      "to": "0x2910543Af39abA0Cd09dBb2D50200b3E800A63D2",
      "value": {
        "_hex": "0x7695a92c20d6fe00000"
      },
      "nonce": 2,
      "data": "0x454e36433831453038",
      "r": "0x207a4b6ca2c017de0019c0ee86fe5792b4db099f1e339a5f39aee015ec2212e1",
      "s": "0x623ecab9ebff27a307305acec0a90f9977bb21013699dc3b9790a5d224e04b71",
      "v": 28,
      "creates": null,
      "raw": "0xf87702850dac4cdb50827d00942910543af39aba0cd09dbb2d50200b3e800a63d28a07695a92c20d6fe0000089454e364338314530381ca0207a4b6ca2c017de0019c0ee86fe5792b4db099f1e339a5f39aee015ec2212e1a0623ecab9ebff27a307305acec0a90f9977bb21013699dc3b9790a5d224e04b71",
      "networkId": 0,
      "chainId": 0
    }
  ]
}