{
  "hash": "0x4e9d1cd6fc234287421b2d8bdc324a9c83df8588fca98f139e37d4baa0cf4caf",
  "parentHash": "0x6414607076e3709f87792b08d5ed40da7fe43478cb0bd594fcf8c0cf0a9b65bd",
  "number": 85693,
  "timestamp": 1439567327,
  "nonce": "0x6d89d011fe384659",
  "difficulty": 2786786279372,
  "gasLimit": {
    "_hex": "0x2fefd8"
  },
  "gasUsed": {
    "_hex": "0xa410"
  },
  "miner": "0xC603Ab5ef41fC61AA8b76bEddb09e3Cfcbb174BD",
  "extraData": "0x476574682f76312e302e312f77696e646f77732f676f312e342e32",
  "transactions": [
    {
      "hash": "0x86d9949d5a9de52bd316b93a4ef4884e9cea03c5637ca5f4fa87befa9123ac99",
      "blockHash": "0x4e9d1cd6fc234287421b2d8bdc324a9c83df8588fca98f139e37d4baa0cf4caf",
      "blockNumber": 85693,
      "transactionIndex": 0,
      "confirmations": null,
      "from": "0x6De181Fc4C140FA31F196e5393516c49EEeBdAd3",
      "gasPrice": {
        "_hex": "0xd92e2370b"
      },
      "gasLimit": {
        "_hex": "0x5208"
      },
      "to": "0x32Be343B94f860124dC4fEe278FDCBD38C102D88",
      "value": {
        "_hex": "0x398148f7104a66000"
      },
      "nonce": 13,
      "data": "0x",
      "r": "0x8b50b563f4790f60ce4a0f280893c0b4141f3612a80a2391c9624ec84e02cdee",
      "s": "0x49d9c6c68474505b294a90ac6e6575782711d6c7680b1a01305e063580a416df",
      "v": 27,
      "creates": null,
      "raw": "0xf86d0d850d92e2370b8252089432be343b94f860124dc4fee278fdcbd38c102d88890398148f7104a66000801ba08b50b563f4790f60ce4a0f280893c0b4141f3612a80a2391c9624ec84e02cdeea049d9c6c68474505b294a90ac6e6575782711d6c7680b1a01305e063580a416df",
      "networkId": 0,
      "chainId": 0
    },
    {
      "hash": "0x2959badcf8649f6d8ae6341619a7e297a295939953d3b9da6c0f985e71d62ebb",
      "blockHash": "0x4e9d1cd6fc234287421b2d8bdc324a9c83df8588fca98f139e37d4baa0cf4caf",
      "blockNumber": 85693,
      "transactionIndex": 1,
      "confirmations": null,
      "from": "0xa70a9a7040d542C632D8e0bE7c5513A8a5Bbc752",
      "gasPrice": {
        "_hex": "0xd92e2370b"
      },
      "gasLimit": {
        "_hex": "0x5208"
      },
      "to": "0x32Be343B94f860124dC4fEe278FDCBD38C102D88",
      "value": {
        "_hex": "0x8ac2c98cf7727000"
      },
      "nonce": 90,
      "data": "0x",
      "r": "0x0698dc9096fde6a579b05dca3f4ce4e9d37d7fedab159641e76d55d610d52044",
      "s": "0x6a818b11b54942721ad172cf6b9cb0d5b27581d2282319f01c97a26373f6ea17",
      "v": 27,
      "creates": null,
      "raw": "0xf86c5a850d92e2370b8252089432be343b94f860124dc4fee278fdcbd38c102d88888ac2c98cf7727000801ba00698dc9096fde6a579b05dca3f4ce4e9d37d7fedab159641e76d55d610d52044a06a818b11b54942721ad172cf6b9cb0d5b27581d2282319f01c97a26373f6ea17",
      "networkId": 0,
      "chainId": 0
    }
  ]
}