{
  "hash": "0x864681581cdb85b5e18499ee6cd20134c9af9e613f21669de2d125e8c757b75b",
  "parentHash": "0xc6409a76d537760bd4f42a416cbcfe340265c338e6cd90015984fe1fb5282ff6",
  "number": 55364,
  "timestamp": 1439069489,
  "nonce": "0xd5c0c740b183c376",
  "difficulty": 1627427603226,
  "gasLimit": {
    "_hex": "0x2fefd8"
  },
  "gasUsed": {
    "_hex": "0x5208"
  },
  "miner": "0xBb12b5a9B85D4AB8CDE6056E9c1b2a4a337D2261",
  "extraData": "0x476574682f76312e302e312d36393865393864392f6c696e75782f676f312e34",
  "transactions": [
    {
      "hash": "0x8e16f597f4eda38a946d865afec46bb38f6f2f27999b53b1852972560dd317cd",
      "blockHash": "0x864681581cdb85b5e18499ee6cd20134c9af9e613f21669de2d125e8c757b75b",
      "blockNumber": 55364,
      "transactionIndex": 0,
      "confirmations": null,
      "from": "0x120A270bbC009644e35F0bB6ab13f95b8199c4ad",
      "gasPrice": {
        "_hex": "0xd0e7eff34"
      },
      "gasLimit": {
        "_hex": "0x15f90"
      },
      "to": "0x9230b1300eF6Bc6abD4b702f79a69dee0fDCe4C1",
      "value": {
        "_hex": "0x1043561a8829300000"
      },
      "nonce": 14,
      "data": "0x",
      "r": "0x5fae83561f7eefe6121566b02288d38ffdcd1d175d3949894a3762c43425b877",
      "s": "0x008a95eb7bc1f4a507ab2629d838c5e246004b1e65d12c313090dc9a06d072c1",
      "v": 28,
      "creates": null,
      "raw": "0xf86d0e850d0e7eff3483015f90949230b1300ef6bc6abd4b702f79a69dee0fdce4c1891043561a8829300000801ca05fae83561f7eefe6121566b02288d38ffdcd1d175d3949894a3762c43425b8779f8a95eb7bc1f4a507ab2629d838c5e246004b1e65d12c313090dc9a06d072c1",
      "networkId": 0,
      "chainId": 0
    }
  ]
}