{
  "hash": "0xa495f347ae348943f6e9276c94ad392920330dc567373d67041d95347df0c997",
  "parentHash": "0xf7c9fb5c03921c58daf9fde3530bf465d3b07006c2770bf50f482a49524ba9cf",
  "number": 54296,
  "timestamp": 1439051861,
  "nonce": "0xc2c8062923104045",
  "difficulty": 1603966281245,
  "gasLimit": {
    "_hex": "0x2fefd8"
  },
  "gasUsed": {
    "_hex": "0xf618"
  },
  "miner": "0x9DedD6eC380c0FC0058bA1c2a8035e9ba583F34F",
  "extraData": "0x",
  "transactions": [
    {
      "hash": "0x06fe988b9ac36093473828c1cb0ebcaec3fcfadbfe4f3129963f836598278324",
      "blockHash": "0xa495f347ae348943f6e9276c94ad392920330dc567373d67041d95347df0c997",
      "blockNumber": 54296,
      "transactionIndex": 0,
      "confirmations": null,
      "from": "0x32Be343B94f860124dC4fEe278FDCBD38C102D88",
      "gasPrice": {
        "_hex": "0xcd85300eb"
      },
      "gasLimit": {
        "_hex": "0x5208"
      },
      "to": "0x5e0320BB4D82AB8Bb5d7291f2C67D1c99aBb3C05",
      "value": {
        "_hex": "0x11407799e46850000"
      },
      "nonce": 51,
      "data": "0x",
      "r": "0x7069ea894a341317536cbbf47663324e5a72b3601e8d7b8614340277c4730e2b",
      "s": "0x17ce92f8d31d82d22fb849427abd74de1a415acd7756ad284965a0022e3a7b56",
      "v": 28,
      "creates": null,
      "raw": "0xf86d33850cd85300eb825208945e0320bb4d82ab8bb5d7291f2c67d1c99abb3c0589011407799e46850000801ca07069ea894a341317536cbbf47663324e5a72b3601e8d7b8614340277c4730e2ba017ce92f8d31d82d22fb849427abd74de1a415acd7756ad284965a0022e3a7b56",
      "networkId": 0,
      "chainId": 0
    },
    {
      "hash": "0x8274ab5ab84fe8300edfc253e7eef67f289f9b8532f7933c45c3f588ce4b17cb",
      "blockHash": "0xa495f347ae348943f6e9276c94ad392920330dc567373d67041d95347df0c997",
      "blockNumber": 54296,
      "transactionIndex": 1,
      "confirmations": null,
      "from": "0x32Be343B94f860124dC4fEe278FDCBD38C102D88",
      "gasPrice": {
        "_hex": "0xcd85300eb"
      },
      "gasLimit": {
        "_hex": "0x5208"
      },
      "to": "0x3971D6c120E0626FE6d1b1c32791EBD0e616A137",
      "value": {
        "_hex": "0x78d907b7af5bc00"
      },
      "nonce": 52,
      "data": "0x",
      "r": "0x9b9ca1e7ee6312e2cceb2798fa69dff4a580c000ddc93e5ebcb8583cb874b654",
      "s": "0x2fd71bd59a76a66d03b3182d2d75571d82c53ada77fa5170975d49aca13dd07a",
      "v": 28,
      "creates": null,
      "raw": "0xf86c34850cd85300eb825208943971d6c120e0626fe6d1b1c32791ebd0e616a13788078d907b7af5bc00801ca09b9ca1e7ee6312e2cceb2798fa69dff4a580c000ddc93e5ebcb8583cb874b654a02fd71bd59a76a66d03b3182d2d75571d82c53ada77fa5170975d49aca13dd07a",
      "networkId": 0,
      "chainId": 0
    },
    {
      "hash": "0xd2a08298421e081a4980e0f1cb6211e6a340db20f39c40463f12be4d1f66c0e0",
      "blockHash": "0xa495f347ae348943f6e9276c94ad392920330dc567373d67041d95347df0c997",
      "blockNumber": 54296,
      "transactionIndex": 2,
      "confirmations": null,
      "from": "0x32Be343B94f860124dC4fEe278FDCBD38C102D88",
      "gasPrice": {
        "_hex": "0xcd85300eb"
      },
      "gasLimit": {
        "_hex": "0x5208"
      },
      "to": "0xfdEaE1b701A0720879850B9a6312459940886C02",
      "value": {
        "_hex": "0x297e9d28866b0000"
      },
      "nonce": 53,
      "data": "0x",
      "r": "0x763d73a7e7efb5788b87779e6c102e8a77e37658cc30ef85c5e454eecf693c78",
      "s": "0x4ccddf649af0b3b8959dee02f5f0b2785dc480160564e1e04032fc1988727168",
      "v": 28,
      "creates": null,
      "raw": "0xf86c35850cd85300eb82520894fdeae1b701a0720879850b9a6312459940886c0288297e9d28866b0000801ca0763d73a7e7efb5788b87779e6c102e8a77e37658cc30ef85c5e454eecf693c78a04ccddf649af0b3b8959dee02f5f0b2785dc480160564e1e04032fc1988727168",
      "networkId": 0,
      "chainId": 0
    }
  ]
}