{
  "hash": "0xaa101c636a921a0d3eac38a9bc89597ba9802e12dffd7b9f5418e07a524a714d",
  "parentHash": "0x6a50ab375519fd47e2e2be85d9949fa7710ce33d1e79731b00aa92add77ba72b",
  "number": 84453,
  "timestamp": 1439549883,
  "nonce": "0x66755d4d61843f3b",
  "difficulty": 2562677213645,
  "gasLimit": {
    "_hex": "0x2fefd8"
  },
  "gasUsed": {
    "_hex": "0x5208"
  },
  "miner": "0xe6A7a1d47ff21B6321162AEA7C6CB457D5476Bca",
  "extraData": "0x476574682f76312e302e312d38326566323666362f6c696e75782f676f312e34",
  "transactions": [
    {
      "hash": "0x799eb7339eb82f666f503990a3c628e5feb9fdbb9ed7133d597cf1068ca75b2c",
      "blockHash": "0xaa101c636a921a0d3eac38a9bc89597ba9802e12dffd7b9f5418e07a524a714d",
      "blockNumber": 84453,
      "transactionIndex": 0,
      "confirmations": null,
      "from": "0x9746c7e1ef2bd21FF3997fa467593a89cb852BD0",
      "gasPrice": {
        "_hex": "0xd38da680c"
      },
      "gasLimit": {
        "_hex": "0x5208"
      },
      "to": "0xB0bF4A71F730782368Ef660FE6D298F432F95450",
      "value": {
        "_hex": "0xad78ebc5ac6200000"
      },
      "nonce": 25,
      "data": "0x",
      "r": "0x7f354997fea7b0229cedde40da8fec6f875934cbc054e48572084427d9d2c3bf",
      "s": "0x5a12dbd3f42496168d9ad7bf3b917a2d2d37bdd259c3cc91d5a532c640cf1e90",
      "v": 28,
      "creates": null,
      "raw": "0xf86d19850d38da680c82520894b0bf4a71f730782368ef660fe6d298f432f95450890ad78ebc5ac6200000801ca07f354997fea7b0229cedde40da8fec6f875934cbc054e48572084427d9d2c3bfa05a12dbd3f42496168d9ad7bf3b917a2d2d37bdd259c3cc91d5a532c640cf1e90",
      "networkId": 0,
      "chainId": 0
    }
  ]
}