{
  "hash": "0x573f92b0870dbc9bc118728931f87d2ed8aff296039983f38068280afc636ac2",
  "parentHash": "0xb38d3d77a74667fb34db44142a76f6227f29da0a450eed776930b3fa4e542d96",
  "number": 112559,
  "timestamp": 1440009288,
  "nonce": "0xb568c92962ee2d29",
  "difficulty": 4430370857384,
  "gasLimit": {
    "_hex": "0x2fefd8"
  },
  "gasUsed": {
    "_hex": "0x5208"
  },
  "miner": "0x9D49F602b0fdb924Bd63DDE2Bd0907E4A07c63a7",
  "extraData": "0x476574682f76312e302e312f6c696e75782f676f312e342e32",
  "transactions": [
    {
      "hash": "0x65f2a188a916f3b998d1b91bfb11cfe36ecf226c60404ab3866fb61940ed7635",
      "blockHash": "0x573f92b0870dbc9bc118728931f87d2ed8aff296039983f38068280afc636ac2",
      "blockNumber": 112559,
      "transactionIndex": 0,
      "confirmations": null,
      "from": "0x85A12ea0FD4A0818d18A21653927028f92e24538",
      "gasPrice": {
        "_hex": "0xd23ee12e2"
      },
      "gasLimit": {
        "_hex": "0x15f90"
      },
      "to": "0x22F8c1Ba58a1a6554386175Ac3365A038e07aEfc",
      "value": {
        "_hex": "0x15af1d78b58c40000"
      },
      "nonce": 4,
      "data": "0x",
      "r": "0x83f1866235e3e64382af133fb1f811073626e376be19e9de8994132540ee1754",
      "s": "0x11423033e25d20d11faa03ee7833b9ae44f852587fd794066ee5622493bbe389",
      "v": 27,
      "creates": null,
      "raw": "0xf86e04850d23ee12e283015f909422f8c1ba58a1a6554386175ac3365a038e07aefc89015af1d78b58c40000801ba083f1866235e3e64382af133fb1f811073626e376be19e9de8994132540ee1754a011423033e25d20d11faa03ee7833b9ae44f852587fd794066ee5622493bbe389",
      "networkId": 0,
      "chainId": 0
    }
  ]
}