{
  "hash": "0x947375f0aa7aebfa683e8932a23721d9502f98aa0390430433c1f1dce4506289",
  "parentHash": "0xa49c879ad552e4ffd193e6b81f545a0543d476e94633f42516bf9ddbc57c81ca",
  "number": 63835,
  "timestamp": 1439211039,
  "nonce": "0xe76629ce979db8ff",
  "difficulty": 1846758989182,
  "gasLimit": {
    "_hex": "0x2fefd8"
  },
  "gasUsed": {
    "_hex": "0x5318"
  },
  "miner": "0x5F8F73E26CdF436f19Cb24C82F90A15AFe55b592",
  "extraData": "0x476574682f76312e302e312f77696e646f77732f676f312e342e32",
  "transactions": [
    {
      "hash": "0x5a80faf0546422dbb59925ae5deb10017008a2456917eb9863bb6e544b89136c",
      "blockHash": "0x947375f0aa7aebfa683e8932a23721d9502f98aa0390430433c1f1dce4506289",
      "blockNumber": 63835,
      "transactionIndex": 0,
      "confirmations": null,
      "from": "0x54dAeb3E8a6BBC797E4aD2b0339f134b186e4637",
      "gasPrice": {
        "_hex": "0xdb104d80a"
      },
      "gasLimit": {
        "_hex": "0x15f90"
      },
      "to": "0xC7d3E431Be6222543364408a94C12C0D089Be305",
      "value": {
        "_hex": "0x0"
      },
      "nonce": 971,
      "data": "0x3ba15036",
      "r": "0x01e810d7cba959220c61d3ff35828d1fb11a25354e7856799a89e3dec96fbe07",
      "s": "0x38fec237d8cf45d38dbdf373d56ae74fa00af3dec83b313230dc79e40515fca0",
      "v": 27,
      "creates": null,
      "raw": "0xf86b8203cb850db104d80a83015f9094c7d3e431be6222543364408a94c12c0d089be30580843ba150361ba001e810d7cba959220c61d3ff35828d1fb11a25354e7856799a89e3dec96fbe07a038fec237d8cf45d38dbdf373d56ae74fa00af3dec83b313230dc79e40515fca0",
      "networkId": 0,
      "chainId": 0
    }
  ]
}