{
  "hash": "0x5e86923c8e11c46b217f97cf094237a8908d330846b310e91d933a89b67cc3dc",
  "parentHash": "0x5a491103aaebed4dd7d9a4e8cda58ad2b6db1bbe0e2199e7c42442ec17c1bef7",
  "number": 85803,
  "timestamp": 1439569074,
  "nonce": "0x8d4d32cbb119a19f",
  "difficulty": 2767764652246,
  "gasLimit": {
    "_hex": "0x2fefd8"
  },
  "gasUsed": {
    "_hex": "0xa7e0"
  },
  "miner": "0x019D3FA6E3cdA649b26F74395A846575c7bEA14C",
  "extraData": "0x",
  "transactions": [
    {
      "hash": "0xe2d735ed06cd84e887e600d63be9f2ca6a9090beffbc85815571aa326cb452f6",
      "blockHash": "0x5e86923c8e11c46b217f97cf094237a8908d330846b310e91d933a89b67cc3dc",
      "blockNumber": 85803,
      "transactionIndex": 0,
      "confirmations": null,
      "from": "0xe090Ffdced499691fA9379752a59F8A058c1eE4A",
      "gasPrice": {
        "_hex": "0xd2222ce10"
      },
      "gasLimit": {
        "_hex": "0x55f0"
      },
      "to": "0x3cd384102468A37aa06544058b43063234A4DEBF",
      "value": {
        "_hex": "0x16345785d8a0000"
      },
      "nonce": 3,
      "data": "0xb214faa54f3558574c4f5930570000000000000000000000000000000000000000000000",
      "r": "0xbaec92a5b1dec3fc0f1fd7912a17ce328635842ab8e7ce6617c1777daf6d6be9",
      "s": "0x19359709de417aaecce68a27fcdb77bb65eebbb62041dc05e28ca23f0d7f7b7d",
      "v": 28,
      "creates": null,
      "raw": "0xf89003850d2222ce108255f0943cd384102468a37aa06544058b43063234a4debf88016345785d8a0000a4b214faa54f3558574c4f59305700000000000000000000000000000000000000000000001ca0baec92a5b1dec3fc0f1fd7912a17ce328635842ab8e7ce6617c1777daf6d6be9a019359709de417aaecce68a27fcdb77bb65eebbb62041dc05e28ca23f0d7f7b7d",
      "networkId": 0,
      "chainId": 0
    },
    {
      "hash": "0x46b5560cb6058e629b074f48593b5b96e6eba9e4dfb35023ee9adac41a5ffa87",
      "blockHash": "0x5e86923c8e11c46b217f97cf094237a8908d330846b310e91d933a89b67cc3dc",
      "blockNumber": 85803,
      "transactionIndex": 1,
      "confirmations": null,
      "from": "0x2D1d94521E896625F8Ec3f65171Fa82262Da6BCF",
      "gasPrice": {
        "_hex": "0xcb2ebede8"
      },
      "gasLimit": {
        "_hex": "0x5208"
      },
      "to": "0x32Be343B94f860124dC4fEe278FDCBD38C102D88",
      "value": {
        "_hex": "0x14d0d0f2275638000"
      },
      "nonce": 6,
      "data": "0x",
      "r": "0x2b39c8a73d5eab9bf8da53872449a123b02df16729fbc63eb1b0a071de134cf0",
      "s": "0x7f90544388a33d01b7d859623b3ab0b8691bbc22a56411ae8b1726f894daf9fb",
      "v": 28,
      "creates": null,
      "raw": "0xf86d06850cb2ebede88252089432be343b94f860124dc4fee278fdcbd38c102d8889014d0d0f2275638000801ca02b39c8a73d5eab9bf8da53872449a123b02df16729fbc63eb1b0a071de134cf0a07f90544388a33d01b7d859623b3ab0b8691bbc22a56411ae8b1726f894daf9fb",
      "networkId": 0,
      "chainId": 0
    }
  ]
}