{
  "hash": "0x7d77ecadbd630d138440ecaffbc4e8b17eb4d1c012263f1e3f4d15a7828ca797",
  "parentHash": "0x787ce33a1fb454063db1cda634beb69a6a2adebebf5d1ec6f7b28070f7d5dcf1",
  "number": 58532,
  "timestamp": 1439122264,
  "nonce": "0xbc78f92b9cbecfea",
  "difficulty": 1713230504556,
  "gasLimit": {
    "_hex": "0x2fefd8"
  },
  "gasUsed": {
    "_hex": "0x5208"
  },
  "miner": "0xC49418429e58989172a4ACE0bab0cB8D3F00F97f",
  "extraData": "0x476574682f76312e302e312f6c696e75782f676f312e342e32",
  "transactions": [
    {
      "hash": "0x2e4f5960471f7e2792f211253e6bd07a8a6c021d64a410cf08e2639477ebc063",
      "blockHash": "0x7d77ecadbd630d138440ecaffbc4e8b17eb4d1c012263f1e3f4d15a7828ca797",
      "blockNumber": 58532,
      "transactionIndex": 0,
      "confirmations": null,
      "from": "0xE8FBEb49c2590120e3a5A34048a725742Bd1a37c",
      "gasPrice": {
        "_hex": "0xd155e14cf"
      },
      "gasLimit": {
        "_hex": "0x15f90"
      },
      "to": "0xc92E31060EB45EFFdb9a3e383ea00f7Ebd0B8FBc",
      "value": {
        "_hex": "0x8ac7230489e80000"
      },
      "nonce": 5,
      "data": "0x",
      "r": "0xae72dd87df77a784ca930513bdd665481f9085977453787eaff9cb8f7ebe5d5f",
      "s": "0x34043200a03ca37712a2d82a56d34338f53a8b28dc7e4fae1cc3c90ef59fedb2",
      "v": 27,
      "creates": null,
      "raw": "0xf86d05850d155e14cf83015f9094c92e31060eb45effdb9a3e383ea00f7ebd0b8fbc888ac7230489e80000801ba0ae72dd87df77a784ca930513bdd665481f9085977453787eaff9cb8f7ebe5d5fa034043200a03ca37712a2d82a56d34338f53a8b28dc7e4fae1cc3c90ef59fedb2",
      "networkId": 0,
      "chainId": 0
    }
  ]
}