{
  "hash": "0xcd665c033b798f464e5c9947a79aa0b011482273f8eaa242bdc3a06702aeff80",
  "parentHash": "0x5661cdddc58a781362ba1a6453180ac588087012b804f9e325a1ee581f040b86",
  "number": 97302,
  "timestamp": 1439754037,
  "nonce": "0x08939c95f9cff578",
  "difficulty": 3779748707408,
  "gasLimit": {
    "_hex": "0x2fefd8"
  },
  "gasUsed": {
    "_hex": "0x6888"
  },
  "miner": "0xf927a40C8B7F6E07c5af7FA2155B4864a4112B13",
  "extraData": "0x",
  "transactions": [
    {
      "hash": "0xd0cf5626902e7cde227942529fe6bce356323754296e512d1a27851e62c42e8d",
      "blockHash": "0xcd665c033b798f464e5c9947a79aa0b011482273f8eaa242bdc3a06702aeff80",
      "blockNumber": 97302,
      "transactionIndex": 0,
      "confirmations": null,
      "from": "0xc469E0161968f12A38E4c1A1c153a18207e040c8",
      "gasPrice": {
        "_hex": "0xd354433b4"
      },
      "gasLimit": {
        "_hex": "0x15f90"
      },
      "to": "0x4d6387f3B967dA39B11DE111158D49754C31985d",
      "value": {
        "_hex": "0x0"
      },
      "nonce": 6,
      "data": "0x26a183750000000000000000000000000000000000000000000000000000000000000001",
      "r": "0x24f8b39f28d03ffe8712d05f46ec0f5188201c1db2c68b1ab3c0bef4315c18f1",
      "s": "0x0e7130fb06f3149753a8951cf7d3722578e71351eca9a05421fda8fd5ffcfe38",
      "v": 28,
      "creates": null,
      "raw": "0xf88906850d354433b483015f90944d6387f3b967da39b11de111158d49754c31985d80a426a1837500000000000000000000000000000000000000000000000000000000000000011ca024f8b39f28d03ffe8712d05f46ec0f5188201c1db2c68b1ab3c0bef4315c18f1a00e7130fb06f3149753a8951cf7d3722578e71351eca9a05421fda8fd5ffcfe38",
      "networkId": 0,
      "chainId": 0
    }
  ]
}