{
  "hash": "0xb98f08c761e4ae383c3562e11c88a8418d3f78ecb4ef9de4a229c334028f62d8",
  "parentHash": "0x2025d84589c0034bc791c43b9e40fd15d2294c7f0b147cd4a6d37e32ef6ba09b",
  "number": 106063,
  "timestamp": 1439897966,
  "nonce": "0x14208ef977581469",
  "difficulty": 4477313963706,
  "gasLimit": {
    "_hex": "0x2fefd8"
  },
  "gasUsed": {
    "_hex": "0xaa37"
  },
  "miner": "0x623d2411c3bb3340784155F9a688b0085251aB5c",
  "extraData": "0x",
  "transactions": [
    {
      "hash": "0x7b2e2c2f31116db4c1519678024405fa1338e844f94193d13f0a42023e0c7a51",
      "blockHash": "0xb98f08c761e4ae383c3562e11c88a8418d3f78ecb4ef9de4a229c334028f62d8",
      "blockNumber": 106063,
      "transactionIndex": 0,
      "confirmations": null,
      "from": "0x87C5B5874A18B4306DF8a752a6C8cc3E82daFc19",
      "gasPrice": {
        "_hex": "0x1115cad6ba4"
      },
      "gasLimit": {
        "_hex": "0x493e0"
      },
      "to": "0xD79B4C6791784184e2755B2fC1659eaaB0f80456",
      "value": {
        "_hex": "0x0"
      },
      "nonce": 339,
      "data": "0x03750d9400000000000000000000000087c5b5874a18b4306df8a752a6c8cc3e82dafc196b6b6b0000000000000000000000000000000000000000000000000000000000",
      "r": "0xb92c62d3e854db17bd73d9a2be0ef5f8c93c6983a78818657d373909e4d93e3f",
      "s": "0x783d547d12a9dbacec8c2708ee8e6d9217b28efea6ec340e28aa762314851042",
      "v": 28,
      "creates": null,
      "raw": "0xf8ad8201538601115cad6ba4830493e094d79b4c6791784184e2755b2fc1659eaab0f8045680b84403750d9400000000000000000000000087c5b5874a18b4306df8a752a6c8cc3e82dafc196b6b6b00000000000000000000000000000000000000000000000000000000001ca0b92c62d3e854db17bd73d9a2be0ef5f8c93c6983a78818657d373909e4d93e3fa0783d547d12a9dbacec8c2708ee8e6d9217b28efea6ec340e28aa762314851042",
      "networkId": 0,
      "chainId": 0
    }
  ]
}