{
  "hash": "0x0009cb4e0688398ed5d525ce10b1963d8d94adc1d0710e29c15ff767fe558c69",
  "parentHash": "0xaed31303a153b8fba6a995761e3bad32a95ce810e9a39624e0e3b4159cbdb9fc",
  "number": 94752,
  "timestamp": 1439713675,
  "nonce": "0xfbabb8bc3aaa9de3",
  "difficulty": 3479726478470,
  "gasLimit": {
    "_hex": "0x2fefd8"
  },
  "gasUsed": {
    "_hex": "0x5208"
  },
  "miner": "0x3D5292e9d2a2D31014717ff936A0F9375A5Cc8b7",
  "extraData": "0x476574682f76312e302e312f77696e646f77732f676f312e342e32",
  "transactions": [
    {
      "hash": "0x99e080ecf0d69a94467c5e6ca57c1f50ba74569b147cca3054f8512d707ebf7d",
      "blockHash": "0x0009cb4e0688398ed5d525ce10b1963d8d94adc1d0710e29c15ff767fe558c69",
      "blockNumber": 94752,
      "transactionIndex": 0,
      "confirmations": null,
      "from": "0xAF654b2845616930f74573a909B477E23752DcA4",
      "gasPrice": {
        "_hex": "0xba43b7400"
      },
      "gasLimit": {
        "_hex": "0x5264"
      },
      "to": "0x014e478251F22a79fA7014f285647d91462A9669",
      "value": {
        "_hex": "0xde0b6b3a7640000"
      },
      "nonce": 5,
      "data": "0x",
      "r": "0x35c7849c97e14f296605b1fd1ff27fe855f8f868401fa7ca50161da057106ccd",
      "s": "0x1b2ef378faf9e3dd393260850151bf28e17d53e9aefb7a1a53b701f8eb76ef7e",
      "v": 28,
      "creates": null,
      "raw": "0xf86c05850ba43b740082526494014e478251f22a79fa7014f285647d91462a9669880de0b6b3a7640000801ca035c7849c97e14f296605b1fd1ff27fe855f8f868401fa7ca50161da057106ccda01b2ef378faf9e3dd393260850151bf28e17d53e9aefb7a1a53b701f8eb76ef7e",
      "networkId": 0,
      "chainId": 0
    }
  ]
}