{
  "hash": "0xec4019a27e833a64e4fdebbdda066b96233eb20223d6f1d350c8962bdd02b67e",
  "parentHash": "0x6752def2444ac23a96f28fb672b965e2e7221a6874a80f83705344d6eb3e955d",
  "number": 82597,
  "timestamp": 1439521997,
  "nonce": "0xd455ca764474eecd",
  "difficulty": 2370613411116,
  "gasLimit": {
    "_hex": "0x2fefd8"
  },
  "gasUsed": {
    "_hex": "0x5208"
  },
  "miner": "0xC8224326e29eD30AEEC1B70ec238A818169ecaBA",
  "extraData": "0x476574682f76312e302e312f77696e646f77732f676f312e342e32",
  "transactions": [
    {
      "hash": "0x0637e475a35909eadacba4b30a134e8590d57bf0cfa2e26b645cece39937a642",
      "blockHash": "0xec4019a27e833a64e4fdebbdda066b96233eb20223d6f1d350c8962bdd02b67e",
      "blockNumber": 82597,
      "transactionIndex": 0,
      "confirmations": null,
      "from": "0x120A270bbC009644e35F0bB6ab13f95b8199c4ad",
      "gasPrice": {
        "_hex": "0xdada58905"
      },
      "gasLimit": {
        "_hex": "0x3d090"
      },
      "to": "0x1c11Aa45C792e202e9ffDc2F12f99D0d209BEf70",
      "value": {
        "_hex": "0xde0b6b3a7640000"
      },
      "nonce": 402,
      "data": "0x",
      "r": "0x5b766b0ee80b6445351b595de201d931fd1ab5b0bd93c533c3a719638dd86e6c",
      "s": "0x417df61ba59da61a1a7fa8535cddd06b469bd071ccfa38cb95b5c498e884420b",
      "v": 27,
      "creates": null,
      "raw": "0xf86f820192850dada589058303d090941c11aa45c792e202e9ffdc2f12f99d0d209bef70880de0b6b3a7640000801ba05b766b0ee80b6445351b595de201d931fd1ab5b0bd93c533c3a719638dd86e6ca0417df61ba59da61a1a7fa8535cddd06b469bd071ccfa38cb95b5c498e884420b",
      "networkId": 0,
      "chainId": 0
    }
  ]
}