{
  "hash": "0x56c6c4703f5a51e4bc50118a17831be188d46a377701a2a1d0582b85843d1d12",
  "parentHash": "0x0468af22210ba0e989b12c4d5e9b8ca9de1f775e4d954b0453e67af266379821",
  "number": 79134,
  "timestamp": 1439465035,
  "nonce": "0x56f9a5f9c73a66f2",
  "difficulty": 2315523471552,
  "gasLimit": {
    "_hex": "0x2fefd8"
  },
  "gasUsed": {
    "_hex": "0x5208"
  },
  "miner": "0x9667dF29De26704cE04E2fF2BE67BEd99308812D",
  "extraData": "0x476574682f76312e302e312d38326566323666362f6c696e75782f676f312e34",
  "transactions": [
    {
      "hash": "0x92bc35b656c14fc0037bd90649fead6e4e16a48681205a477d7293a8377b7af7",
      "blockHash": "0x56c6c4703f5a51e4bc50118a17831be188d46a377701a2a1d0582b85843d1d12",
      "blockNumber": 79134,
      "transactionIndex": 0,
      "confirmations": null,
      "from": "0x551999dDD205563327b9b530785AcFf9bC73A4bA",
      "gasPrice": {
        "_hex": "0xd1f217cbf"
      },
      "gasLimit": {
        "_hex": "0x927c0"
      },
      "to": "0xa701174A7e8338D26063A01C07674cC96F1777A8",
      "value": {
        "_hex": "0xa2a15d09519be00000"
      },
      "nonce": 0,
      "data": "0x",
      "r": "0x3e23867c34b71c370a4a9780aabe23e88965c15c21a142ffe459aab7fd46cfd8",
      "s": "0x4378eea0dc0bb14b448af6e4f2da780c079925b93e3afc93fede3b8a471c06ec",
      "v": 27,
      "creates": null,
      "raw": "0xf86e80850d1f217cbf830927c094a701174a7e8338d26063a01c07674cc96f1777a889a2a15d09519be00000801ba03e23867c34b71c370a4a9780aabe23e88965c15c21a142ffe459aab7fd46cfd8a04378eea0dc0bb14b448af6e4f2da780c079925b93e3afc93fede3b8a471c06ec",
      "networkId": 0,
      "chainId": 0
    }
  ]
}