{
  "hash": "0x4bcb526cc225968e5b4814c660d2b5ca331ee83391ed89e2907e8d1dbd7c462e",
  "parentHash": "0xa48b08e08b037d1bef594f64930de16dccdbd81a052359fc73a624d646f32daa",
  "number": 107334,
  "timestamp": 1439920700,
  "nonce": "0xce8b462f4291161b",
  "difficulty": 4396485106472,
  "gasLimit": {
    "_hex": "0x2fefd8"
  },
  "gasUsed": {
    "_hex": "0x5208"
  },
  "miner": "0xe6A7a1d47ff21B6321162AEA7C6CB457D5476Bca",
  "extraData": "0x476574682f76312e302e312d38326566323666362f6c696e75782f676f312e34",
  "transactions": [
    {
      "hash": "0xd5b8777037cc28c18c055813218f9a79c44a97292c7d07766eb8a2f2bc4d33d4",
      "blockHash": "0x4bcb526cc225968e5b4814c660d2b5ca331ee83391ed89e2907e8d1dbd7c462e",
      "blockNumber": 107334,
      "transactionIndex": 0,
      "confirmations": null,
      "from": "0x3e3Ada91f270f8b50A4fC1085F7f15eA3c37C962",
      "gasPrice": {
        "_hex": "0xde113e701"
      },
      "gasLimit": {
        "_hex": "0x15f90"
      },
      "to": "0xf14113F65cC397c91f89d61AbF0901E558E88C8E",
      "value": {
        "_hex": "0x0"
      },
      "nonce": 1,
      "data": "0x",
      "r": "0x106a745fefeb75ca7529627cd5aa6d5f69e96cb6ffed883173f9cb7dc88e9c90",
      "s": "0x3e5fb956522c5ca6ff3f85ba1046678d7111b5e00c9bbcdca9052101a2a4c674",
      "v": 28,
      "creates": null,
      "raw": "0xf86501850de113e70183015f9094f14113f65cc397c91f89d61abf0901e558e88c8e80801ca0106a745fefeb75ca7529627cd5aa6d5f69e96cb6ffed883173f9cb7dc88e9c90a03e5fb956522c5ca6ff3f85ba1046678d7111b5e00c9bbcdca9052101a2a4c674",
      "networkId": 0,
      "chainId": 0
    }
  ]
}