{
  "hash": "0x36412ec26de5905b0be5ca7747a1782779626adefd7973aed41db41898b74930",
  "parentHash": "0xd9d2a5b0f10895e580c59edf3bac01712eb01d90caaaf542437e49cd72d40133",
  "number": 101803,
  "timestamp": 1439828290,
  "nonce": "0x2cc258ad0346ba4a",
  "difficulty": 3884339670082,
  "gasLimit": {
    "_hex": "0x2fefd8"
  },
  "gasUsed": {
    "_hex": "0x5d9f"
  },
  "miner": "0xe6A7a1d47ff21B6321162AEA7C6CB457D5476Bca",
  "extraData": "0x476574682f76312e302e312d38326566323666362f6c696e75782f676f312e34",
  "transactions": [
    {
      "hash": "0xfc5954b8e1ad6654415f14140f42495c5da40b30af24556beccd34b319eeb7ab",
      "blockHash": "0x36412ec26de5905b0be5ca7747a1782779626adefd7973aed41db41898b74930",
      "blockNumber": 101803,
      "transactionIndex": 0,
      "confirmations": null,
      "from": "0x0089508679abF8c71BF6781687120e3E6a84584D",
      "gasPrice": {
        "_hex": "0xd9f6c9cf9"
      },
      "gasLimit": {
        "_hex": "0x15f90"
      },
      "to": "0xAd8d3a5d2d92EB14bB56CA9f380be35b8EFE0c04",
      "value": {
        "_hex": "0x542253a126ce40000"
      },
      "nonce": 7,
      "data": "0xb214faa54141414141414749450000000000000000000000000000000000000000000000",
      "r": "0xb1a66d5377da9915511fe01cf9c1d23acd4daca6fbec4d02466629f4fa6656ac",
      "s": "0x382c208217f3b4c99df5194c14dbb6624f39633039fcf8858558c09bce3f8aa5",
      "v": 28,
      "creates": null,
      "raw": "0xf89207850d9f6c9cf983015f9094ad8d3a5d2d92eb14bb56ca9f380be35b8efe0c04890542253a126ce40000a4b214faa541414141414147494500000000000000000000000000000000000000000000001ca0b1a66d5377da9915511fe01cf9c1d23acd4daca6fbec4d02466629f4fa6656aca0382c208217f3b4c99df5194c14dbb6624f39633039fcf8858558c09bce3f8aa5",
      "networkId": 0,
      "chainId": 0
    }
  ]
}