{
  "hash": "0x62fc917b7b83fde4181335e5928804aaf5f894610b877c63d401e36b19ddef8e",
  "parentHash": "0x31fb927febf55e30ba6ac4f39691b091c60633ee26d3c8237a01f34ad3504185",
  "number": 102134,
  "timestamp": 1439833370,
  "nonce": "0x6364ad32c9fdb1f6",
  "difficulty": 3908920303900,
  "gasLimit": {
    "_hex": "0x2fefd8"
  },
  "gasUsed": {
    "_hex": "0x5208"
  },
  "miner": "0xe6A7a1d47ff21B6321162AEA7C6CB457D5476Bca",
  "extraData": "0x476574682f76312e302e312d38326566323666362f6c696e75782f676f312e34",
  "transactions": [
    {
      "hash": "0xe6882891ca10a5cb1857da840f3b2cc2d92c754033046ab96202eb976b97a47a",
      "blockHash": "0x62fc917b7b83fde4181335e5928804aaf5f894610b877c63d401e36b19ddef8e",
      "blockNumber": 102134,
      "transactionIndex": 0,
      "confirmations": null,
      "from": "0xA7e983CBCf86d16420529CF812f74cd86d397516",
      "gasPrice": {
        "_hex": "0xd11865d13"
      },
      "gasLimit": {
        "_hex": "0x15f90"
      },
      "to": "0x9c4dB3C798408A4e36e443c1141E182809BD5e50",
      "value": {
        "_hex": "0x53444835ec580000"
      },
      "nonce": 3,
      "data": "0x",
      "r": "0xc2cb0e254f2d8c2bd8436f53cf13828e97b086a44345c8f2028a8b0b99a7fd6f",
      "s": "0x668ff002fedbf9127675b0499b035bff8c2255e3896b94090b0afb35442026da",
      "v": 28,
      "creates": null,
      "raw": "0xf86d03850d11865d1383015f90949c4db3c798408a4e36e443c1141e182809bd5e508853444835ec580000801ca0c2cb0e254f2d8c2bd8436f53cf13828e97b086a44345c8f2028a8b0b99a7fd6fa0668ff002fedbf9127675b0499b035bff8c2255e3896b94090b0afb35442026da",
      "networkId": 0,
      "chainId": 0
    }
  ]
}