{
  "hash": "0x40b944e469e539554f9ced8d60f90e7034993bdcc5b6ea2006afaa68134a426d",
  "parentHash": "0x6440b1b6d4a839d92430984338cb544d6e72ab6cba7e82f00f8bb4de484bbdf5",
  "number": 80856,
  "timestamp": 1439492108,
  "nonce": "0xdf9fa31026535478",
  "difficulty": 2447567250019,
  "gasLimit": {
    "_hex": "0x2fefd8"
  },
  "gasUsed": {
    "_hex": "0xa960"
  },
  "miner": "0x2f6BCe4fc330B69C9B4c2694d57C63Ec7B18feC7",
  "extraData": "0x476574682f76312e302e312f77696e646f77732f676f312e342e32",
  "transactions": [
    {
      "hash": "0x5b2405ab7b42b7ad4b69c22c44a027badea4cdfb603cca3e1044ca4049980487",
      "blockHash": "0x40b944e469e539554f9ced8d60f90e7034993bdcc5b6ea2006afaa68134a426d",
      "blockNumber": 80856,
      "transactionIndex": 0,
      "confirmations": null,
      "from": "0x86740a46648E845A5d96461B18091fF57BE8A16F",
      "gasPrice": {
        "_hex": "0xe1c30e8c4"
      },
      "gasLimit": {
        "_hex": "0x7530"
      },
      "to": "0x2910543Af39abA0Cd09dBb2D50200b3E800A63D2",
      "value": {
        "_hex": "0x98774738bc822200000"
      },
      "nonce": 0,
      "data": "0x584538394554484b52414b454e54335154375a52",
      "r": "0xb29977a245f092bce37c6acccb834dd0ea48836766a824846efe9a4dc2eff101",
      "s": "0x4d46ff854a25aac14058b7a648e76b342b4f49d5f609dfd34c71b4608e4a63c4",
      "v": 28,
      "creates": null,
      "raw": "0xf88280850e1c30e8c4827530942910543af39aba0cd09dbb2d50200b3e800a63d28a098774738bc82220000094584538394554484b52414b454e54335154375a521ca0b29977a245f092bce37c6acccb834dd0ea48836766a824846efe9a4dc2eff101a04d46ff854a25aac14058b7a648e76b342b4f49d5f609dfd34c71b4608e4a63c4",
      "networkId": 0,
      "chainId": 0
    },
    {
      "hash": "0x1ba403c8f2c4f4ffbb0100f0fa3e37f6b58480cdd038982707918aac50e60fa2",
      "blockHash": "0x40b944e469e539554f9ced8d60f90e7034993bdcc5b6ea2006afaa68134a426d",
      "blockNumber": 80856,
      "transactionIndex": 1,
      "confirmations": null,
      "from": "0x120A270bbC009644e35F0bB6ab13f95b8199c4ad",
      "gasPrice": {
        "_hex": "0xd5fb97b00"
      },
      "gasLimit": {
        "_hex": "0x3d090"
      },
      "to": "0xAA0FA7Ad7B07d2A28B426F7Ba19E2210C4b32dfE",
      "value": {
        "_hex": "0x1158e460913d00000"
      },
      "nonce": 351,
      "data": "0x",
      "r": "0xa865d2d3abec3c5b931b35a766946fc0bb4f146035035abaf3056a753f1285d9",
      "s": "0x150566a2d30723779ab590486e7567caf72abf4c1fb6ca946d354ce4524cc52e",
      "v": 27,
      "creates": null,
      "raw": "0xf87082015f850d5fb97b008303d09094aa0fa7ad7b07d2a28b426f7ba19e2210c4b32dfe8901158e460913d00000801ba0a865d2d3abec3c5b931b35a766946fc0bb4f146035035abaf3056a753f1285d9a0150566a2d30723779ab590486e7567caf72abf4c1fb6ca946d354ce4524cc52e",
      "networkId": 0,
      "chainId": 0
    }
  ]
}