{
  "hash": "0xbd96977589f3daf5db08e21186fbfbf5a75b43d857cc8876fcf586aa2b861542",
  "parentHash": "0x45fe7554cddb0c2bde6e43eead9d9d3bb3036afd6c3a95e32bcbc4a774edf089",
  "number": 92400,
  "timestamp": 1439671340,
  "nonce": "0x6d9bb67016d27942",
  "difficulty": 3525172553258,
  "gasLimit": {
    "_hex": "0x2fefd8"
  },
  "gasUsed": {
    "_hex": "0x5208"
  },
  "miner": "0xa50ec0D39fa913E62f1Bae7074E6F36caA71855b",
  "extraData": "0xd783010001844765746887676f312e342e32856c696e7578",
  "transactions": [
    {
      "hash": "0xe62ea4fbd5cc7fc602299ac11284c63189551207e79d4aa4729c43590e7ee7bc",
      "blockHash": "0xbd96977589f3daf5db08e21186fbfbf5a75b43d857cc8876fcf586aa2b861542",
      "blockNumber": 92400,
      "transactionIndex": 0,
      "confirmations": null,
      "from": "0x29Ab575850dCEf127cd8D646fB3c208b3860C2F0",
      "gasPrice": {
        "_hex": "0xd9dd8e9f7"
      },
      "gasLimit": {
        "_hex": "0x15f90"
      },
      "to": "0xA10CDF70bc138605c39F8651A78485Fe4F1C3811",
      "value": {
        "_hex": "0x8ac7230489e80000"
      },
      "nonce": 6,
      "data": "0x",
      "r": "0xf5dd8a073137dc4d65a0928f917a8d868116d5987baf72c74ee3de86ffe93cff",
      "s": "0x242dffc83aba3a619f09b6fe2175a7efce58b3fa3374983b124a8e29cda3db7b",
      "v": 27,
      "creates": null,
      "raw": "0xf86d06850d9dd8e9f783015f9094a10cdf70bc138605c39f8651a78485fe4f1c3811888ac7230489e80000801ba0f5dd8a073137dc4d65a0928f917a8d868116d5987baf72c74ee3de86ffe93cffa0242dffc83aba3a619f09b6fe2175a7efce58b3fa3374983b124a8e29cda3db7b",
      "networkId": 0,
      "chainId": 0
    }
  ]
}