{
  "hash": "0x6495d3acabaa0aaa884ebb9b10a6465a1d51f626f016b638a7eb6446a4728c07",
  "parentHash": "0xd8e62dc6118d95f17d9d7093b505d51dfd430e860260e8b27ae1a3bc1a9eb4b2",
  "number": 71212,
  "timestamp": 1439332557,
  "nonce": "0x65b54d5cba4e2d4d",
  "difficulty": 2143532466752,
  "gasLimit": {
    "_hex": "0x2fefd8"
  },
  "gasUsed": {
    "_hex": "0x1007b"
  },
  "miner": "0x458F183347F45a4001807728A89F31E9Da9D4A58",
  "extraData": "0x476574682f76312e302e312d38326566323666362f6c696e75782f676f312e34",
  "transactions": [
    {
      "hash": "0xbb44a53c9f1f7873617dd7981df76c8f3b5e17b23f6888103259cf316d28d40c",
      "blockHash": "0x6495d3acabaa0aaa884ebb9b10a6465a1d51f626f016b638a7eb6446a4728c07",
      "blockNumber": 71212,
      "transactionIndex": 0,
      "confirmations": null,
      "from": "0x17580B766f7453525ca4C6A88b01b50570EA088C",
      "gasPrice": {
        "_hex": "0xde5823200"
      },
      "gasLimit": {
        "_hex": "0x61a80"
      },
      "to": "0x5Fe5B7546D1628f7348B023A0393de1FC825A4fD",
      "value": {
        "_hex": "0x53444835ec580000"
      },
      "nonce": 119,
      "data": "0xb595b8b50000000000000000000000000000000000000000000000000000000000000000",
      "r": "0x35dbac8845b1537d883cbce8e9416032c5d2d0c02fe850daee1aedbfeb816b2d",
      "s": "0x45bd9f85a64b3d2642cf2a59201f8bee1c8371eb2ff1494706a9618050a2c3ae",
      "v": 27,
      "creates": null,
      "raw": "0xf89177850de582320083061a80945fe5b7546d1628f7348b023a0393de1fc825a4fd8853444835ec580000a4b595b8b500000000000000000000000000000000000000000000000000000000000000001ba035dbac8845b1537d883cbce8e9416032c5d2d0c02fe850daee1aedbfeb816b2da045bd9f85a64b3d2642cf2a59201f8bee1c8371eb2ff1494706a9618050a2c3ae",
      "networkId": 0,
      "chainId": 0
    },
    {
      "hash": "0xd8b15344076fc76e7dd612edf6851adae75b52dc724797e28ca10d9495bfe550",
      "blockHash": "0x6495d3acabaa0aaa884ebb9b10a6465a1d51f626f016b638a7eb6446a4728c07",
      "blockNumber": 71212,
      "transactionIndex": 1,
      "confirmations": null,
      "from": "0x132dDeF595eE2Bb0092F7484f2DCBCBfeE0DCB65",
      "gasPrice": {
        "_hex": "0xdb4792f93"
      },
      "gasLimit": {
        "_hex": "0x15f90"
      },
      "to": "0x6d921977dEFE5f4e0682CA512De1D07b1f4802E1",
      "value": {
        "_hex": "0xb1a2bc2ec500000"
      },
      "nonce": 3,
      "data": "0x",
      "r": "0x5b1f459ca444db731205613066f76a8c28d6160861f14ab4ec881b5e0e5cb4a6",
      "s": "0x603e2c01467a174d6eabbf305f0de455016c1c2eee4be21071ad496397ba0acf",
      "v": 27,
      "creates": null,
      "raw": "0xf86d03850db4792f9383015f90946d921977defe5f4e0682ca512de1d07b1f4802e1880b1a2bc2ec500000801ba05b1f459ca444db731205613066f76a8c28d6160861f14ab4ec881b5e0e5cb4a6a0603e2c01467a174d6eabbf305f0de455016c1c2eee4be21071ad496397ba0acf",
      "networkId": 0,
      "chainId": 0
    }
  ]
}