{
  "hash": "0xaeb930b5fcc32bcc4319d23fadc2059136a6b0ca829649ad02e942fcdd47119d",
  "parentHash": "0x1e882a3bbdfcc60cf901f56668c360dc1118c717449fe8fd1dca924cb4987fc8",
  "number": 81724,
  "timestamp": 1439506661,
  "nonce": "0x2c0a33a195ad81f1",
  "difficulty": 2428268854163,
  "gasLimit": {
    "_hex": "0x2fefd8"
  },
  "gasUsed": {
    "_hex": "0xcd7e"
  },
  "miner": "0xe6A7a1d47ff21B6321162AEA7C6CB457D5476Bca",
  "extraData": "0x476574682f76312e302e312d38326566323666362f6c696e75782f676f312e34",
  "transactions": [
    {
      "hash": "0x10dacc21b2dac279761eedddf5d1c7e26294e85c54d15efbf01b11b1ed99a142",
      "blockHash": "0xaeb930b5fcc32bcc4319d23fadc2059136a6b0ca829649ad02e942fcdd47119d",
      "blockNumber": 81724,
      "transactionIndex": 0,
      "confirmations": null,
      "from": "0xC5a96Db085dDA36FfBE390f455315D30D6D3DC52",
      "gasPrice": {
        "_hex": "0x746a528800"
      },
      "gasLimit": {
        "_hex": "0x4a879"
      },
      "to": "0xde0B295669a9FD93d5F28D9Ec85E40f4cb697BAe",
      "value": {
        "_hex": "0x0"
      },
      "nonce": 3,
      "data": "0xf00d4b5d0000000000000000000000007c56d94ebeccb769524379c450873519a9d805ff0000000000000000000000000037a6b811ffeb6e072da21179d11b1406371c63",
      "r": "0x21d495d956a6b35898fa4f74a71f812554ded87aa665552fb5fb3a805d691349",
      "s": "0x67c92a3b223414117cdb84c414c35135f3cb971104d125ea319e9d60312dcf25",
      "v": 27,
      "creates": null,
      "raw": "0xf8aa0385746a5288008304a87994de0b295669a9fd93d5f28d9ec85e40f4cb697bae80b844f00d4b5d0000000000000000000000007c56d94ebeccb769524379c450873519a9d805ff0000000000000000000000000037a6b811ffeb6e072da21179d11b1406371c631ba021d495d956a6b35898fa4f74a71f812554ded87aa665552fb5fb3a805d691349a067c92a3b223414117cdb84c414c35135f3cb971104d125ea319e9d60312dcf25",
      "networkId": 0,
      "chainId": 0
    }
  ]
}