{
  "hash": "0x15180830847d54ddd6e4538e4b54eeee41b8e46b2ccdf4e7a6faead1ffcf585a",
  "parentHash": "0x928bc9b96ff67c82b88cc4fb7dda1e5b77d263e5870f690abaf784d51f9b6797",
  "number": 116105,
  "timestamp": 1440068468,
  "nonce": "0x684e5fb71d55cabc",
  "difficulty": 4591438596625,
  "gasLimit": {
    "_hex": "0x2fefd8"
  },
  "gasUsed": {
    "_hex": "0x5208"
  },
  "miner": "0xe6A7a1d47ff21B6321162AEA7C6CB457D5476Bca",
  "extraData": "0x476574682f76312e302e312d38326566323666362f6c696e75782f676f312e34",
  "transactions": [
    {
      "hash": "0x9c6da83aa9285eeedfd7d7bfadcfb99e6fc05650696cb8cfb1c8a4dd691ffa6a",
      "blockHash": "0x15180830847d54ddd6e4538e4b54eeee41b8e46b2ccdf4e7a6faead1ffcf585a",
      "blockNumber": 116105,
      "transactionIndex": 0,
      "confirmations": null,
      "from": "0x32Be343B94f860124dC4fEe278FDCBD38C102D88",
      "gasPrice": {
        "_hex": "0xd466998d2"
      },
      "gasLimit": {
        "_hex": "0x5208"
      },
      "to": "0x8F68fbE2DCFf038C24F650C9e05Ee478038171cd",
      "value": {
        "_hex": "0x208688ae1de2a00000"
      },
      "nonce": 1458,
      "data": "0x",
      "r": "0xa7235054384a698fe8326b09d5f3c91e7b90ded94f5575472727f8419e164f5c",
      "s": "0x65a9f0b363c1b5f25f35a590633a75ff6faa032c5ddcab45b923862c7fad6f29",
      "v": 28,
      "creates": null,
      "raw": "0xf86f8205b2850d466998d2825208948f68fbe2dcff038c24f650c9e05ee478038171cd89208688ae1de2a00000801ca0a7235054384a698fe8326b09d5f3c91e7b90ded94f5575472727f8419e164f5ca065a9f0b363c1b5f25f35a590633a75ff6faa032c5ddcab45b923862c7fad6f29",
      "networkId": 0,
      "chainId": 0
    }
  ]
}