{
  "hash": "0x4ffb4ec8410d75dbc219cf2e025446809cb9c393f29c3e173221f4a76f1a612b",
  "parentHash": "0x6943b80f083e0a80992dc268a5e037bcd8e4af576aedd1e8eee70133d2d37b65",
  "number": 68553,
  "timestamp": 1439289927,
  "nonce": "0x7dc6532a9b00ec14",
  "difficulty": 2009389048110,
  "gasLimit": {
    "_hex": "0x2fefd8"
  },
  "gasUsed": {
    "_hex": "0x5208"
  },
  "miner": "0x39A1BB80a741bF5EC39FB9BE59408Fa0F418fFBf",
  "extraData": "0x476574682f76312e302e312f77696e646f77732f676f312e342e32",
  "transactions": [
    {
      "hash": "0x497e5dfea88b85553c527f0146dc75b8914acf2eb54ae003fce10e548fd4c201",
      "blockHash": "0x4ffb4ec8410d75dbc219cf2e025446809cb9c393f29c3e173221f4a76f1a612b",
      "blockNumber": 68553,
      "transactionIndex": 0,
      "confirmations": null,
      "from": "0x32Be343B94f860124dC4fEe278FDCBD38C102D88",
      "gasPrice": {
        "_hex": "0xe15b6bd45"
      },
      "gasLimit": {
        "_hex": "0x5208"
      },
      "to": "0x8F68fbE2DCFf038C24F650C9e05Ee478038171cd",
      "value": {
        "_hex": "0x6c33ecf9caaff00000"
      },
      "nonce": 227,
      "data": "0x",
      "r": "0x6261e4fe6a3fbc8cdfe3b4b0b8b7a942c556586fd385f137192458ba8a132c98",
      "s": "0x30576949453012ecbe995b6d80fbb2f76fec2245b44d10fed64a3b605793f716",
      "v": 28,
      "creates": null,
      "raw": "0xf86e81e3850e15b6bd45825208948f68fbe2dcff038c24f650c9e05ee478038171cd896c33ecf9caaff00000801ca06261e4fe6a3fbc8cdfe3b4b0b8b7a942c556586fd385f137192458ba8a132c98a030576949453012ecbe995b6d80fbb2f76fec2245b44d10fed64a3b605793f716",
      "networkId": 0,
      "chainId": 0
    }
  ]
}