{
  "hash": "0x0f25efc7c5e4ef1de2ace6b1546a2ba038b01a5b0abf42b07216ae21ea96cb76",
  "parentHash": "0x8900a44e77ffe1d4630ff92f9a8af2d1e1220d820225b9ec0231472e55f0d136",
  "number": 50285,
  "timestamp": 1438986643,
  "nonce": "0x498d2880e5be51cf",
  "difficulty": 1514146876818,
  "gasLimit": {
    "_hex": "0x5af52"
  },
  "gasUsed": {
    "_hex": "0x5428"
  },
  "miner": "0x0037ce3d4B7f8729C8607D8D0248252Be68202c0",
  "extraData": "0x476574682f76312e302e312f77696e646f77732f676f312e342e32",
  "transactions": [
    {
      "hash": "0xa9e392da6a7d0eb9d2560f2fe34dc19d77c5e46c4915c1dc1679a85b1574a0e7",
      "blockHash": "0x0f25efc7c5e4ef1de2ace6b1546a2ba038b01a5b0abf42b07216ae21ea96cb76",
      "blockNumber": 50285,
      "transactionIndex": 0,
      "confirmations": null,
      "from": "0x431f45FF1650D680041a5034211e066e89b7aAdd",
      "gasPrice": {
        "_hex": "0xd755aee4f"
      },
      "gasLimit": {
        "_hex": "0x15f90"
      },
      "to": "0xF8e6a503a2C62cE87d7cB0866e7DC32750D1310E",
      "value": {
        "_hex": "0x2a"
      },
      "nonce": 1,
      "data": "0x67617465636f696e",
      "r": "0x94853557658731c72464dc96485c323dce69de4e9c1c6ca668f09a66ae17e9ba",
      "s": "0x113167cdbe3cafbea1da9ecd5ae5a5ecc55cf8bde7013400d3ad23a5b0ac75e9",
      "v": 28,
      "creates": null,
      "raw": "0xf86d01850d755aee4f83015f9094f8e6a503a2c62ce87d7cb0866e7dc32750d1310e2a8867617465636f696e1ca094853557658731c72464dc96485c323dce69de4e9c1c6ca668f09a66ae17e9baa0113167cdbe3cafbea1da9ecd5ae5a5ecc55cf8bde7013400d3ad23a5b0ac75e9",
      "networkId": 0,
      "chainId": 0
    }
  ]
}