{
  "hash": "0xa7d46d79772b89e6d2bd2f17320c13bfb8a96fd3dd688fa0a420613baada9b54",
  "parentHash": "0xb70b124d5b16f86826ee709fd0ba4d7eafbe6d74629fc2498b638223da26c618",
  "number": 97170,
  "timestamp": 1439751974,
  "nonce": "0x79017a986ee6ef4e",
  "difficulty": 3761397074067,
  "gasLimit": {
    "_hex": "0x2fefd5"
  },
  "gasUsed": {
    "_hex": "0x7c28"
  },
  "miner": "0xe6A7a1d47ff21B6321162AEA7C6CB457D5476Bca",
  "extraData": "0x476574682f76312e302e312d38326566323666362f6c696e75782f676f312e34",
  "transactions": [
    {
      "hash": "0x6693600e4132d458f6fdf09bf17eecb36c554a529624227a14870d0f95055b7d",
      "blockHash": "0xa7d46d79772b89e6d2bd2f17320c13bfb8a96fd3dd688fa0a420613baada9b54",
      "blockNumber": 97170,
      "transactionIndex": 0,
      "confirmations": null,
      "from": "0xb1abce2918E21ddb93AA452731a12672A3d9F75a",
      "gasPrice": {
        "_hex": "0xdbca821cd"
      },
      "gasLimit": {
        "_hex": "0x5208"
      },
      "to": "0x32Be343B94f860124dC4fEe278FDCBD38C102D88",
      "value": {
        "_hex": "0x455f2aa76e1f7400"
      },
      "nonce": 67,
      "data": "0x",
      "r": "0xfc1992776b3bde412fe6a19c350ef5ee5d0d4b119442e70af087b45503f731d4",
      "s": "0x10f93b773cc213a9a65888d5eef622e8bce6d384ad8b2d28bec27b46aa6d7ea8",
      "v": 28,
      "creates": null,
      "raw": "0xf86c43850dbca821cd8252089432be343b94f860124dc4fee278fdcbd38c102d8888455f2aa76e1f7400801ca0fc1992776b3bde412fe6a19c350ef5ee5d0d4b119442e70af087b45503f731d4a010f93b773cc213a9a65888d5eef622e8bce6d384ad8b2d28bec27b46aa6d7ea8",
      "networkId": 0,
      "chainId": 0
    },
    {
      "hash": "0x0d475555d0ab15c5751fa245a7fa077c6e49e85fbf760f49183b898184575b99",
      "blockHash": "0xa7d46d79772b89e6d2bd2f17320c13bfb8a96fd3dd688fa0a420613baada9b54",
      "blockNumber": 97170,
      "transactionIndex": 1,
      "confirmations": null,
      "from": "0x4BBc2EF7E5482B88E8c9C4bc05c5A3d3FF2B03c7",
      "gasPrice": {
        "_hex": "0xda866a963"
      },
      "gasLimit": {
        "_hex": "0x15f90"
      },
      "to": "0x5817E80DF02122D86831622f0B72b45335352f68",
      "value": {
        "_hex": "0x0"
      },
      "nonce": 1,
      "data": "0x41c0e1b5",
      "r": "0x336c4ee929615f1c32cb179ba6d40ec4ff4233f39bd2f7f060595e3280314426",
      "s": "0x57fbf2c918a01418a53ccc034ca889812d24b822140a9cc0a141312849447d87",
      "v": 27,
      "creates": null,
      "raw": "0xf86901850da866a96383015f90945817e80df02122d86831622f0b72b45335352f68808441c0e1b51ba0336c4ee929615f1c32cb179ba6d40ec4ff4233f39bd2f7f060595e3280314426a057fbf2c918a01418a53ccc034ca889812d24b822140a9cc0a141312849447d87",
      "networkId": 0,
      "chainId": 0
    }
  ]
}