{
  "hash": "0x6140cc5cae79b228626ca1580ee301561bc979d4e926ff82702d4581bfdadeb9",
  "parentHash": "0x87ed7f3152ed9b964d497cc70b64e588950990abcb2ee06bc8df5286bfd0b62a",
  "number": 79448,
  "timestamp": 1439469874,
  "nonce": "0x320ce84b5b194923",
  "difficulty": 2333596996461,
  "gasLimit": {
    "_hex": "0x2fefd8"
  },
  "gasUsed": {
    "_hex": "0x5208"
  },
  "miner": "0x01d9DA08cc6Fb97c0DE1B6F4C28910A0859Ed1A1",
  "extraData": "0x476574682f76312e302e312f6c696e75782f676f312e342e32",
  "transactions": [
    {
      "hash": "0x10fd90b478a7bfaf97e449b9b2eaa489e50580f80374bb9a589354e88e8a820c",
      "blockHash": "0x6140cc5cae79b228626ca1580ee301561bc979d4e926ff82702d4581bfdadeb9",
      "blockNumber": 79448,
      "transactionIndex": 0,
      "confirmations": null,
      "from": "0xeF0a7407D5b9AF9fA9f38f67aBB66d20686afb55",
      "gasPrice": {
        "_hex": "0xd8364fc25"
      },
      "gasLimit": {
        "_hex": "0x15f90"
      },
      "to": "0xeC210EC3715d5918B37CFa4D344a45d177eD849f",
      "value": {
        "_hex": "0x254beb02d1dcc0000"
      },
      "nonce": 3,
      "data": "0x",
      "r": "0x0e3b63908ed0e8fc31f5fed0531354671bf5eb330e767606b93defa8a0c58a43",
      "s": "0x3564d435a378e949fce8ffba2487d8e71b6cd6c6146f3991a4f50ca4e8c7d1bc",
      "v": 27,
      "creates": null,
      "raw": "0xf86e03850d8364fc2583015f9094ec210ec3715d5918b37cfa4d344a45d177ed849f890254beb02d1dcc0000801ba00e3b63908ed0e8fc31f5fed0531354671bf5eb330e767606b93defa8a0c58a43a03564d435a378e949fce8ffba2487d8e71b6cd6c6146f3991a4f50ca4e8c7d1bc",
      "networkId": 0,
      "chainId": 0
    }
  ]
}