{
  "hash": "0x9fd7ca2c502c76054ea61d4b6f59120b019289c42684d92340af8ed551f64cef",
  "parentHash": "0xe3a00765482961378abeaa9e9692056f7922ead8814e91fe1bd2eeea3b05f04d",
  "number": 81230,
  "timestamp": 1439498227,
  "nonce": "0xfb1c005ff6739ef9",
  "difficulty": 2452242992659,
  "gasLimit": {
    "_hex": "0x2fefd8"
  },
  "gasUsed": {
    "_hex": "0x5208"
  },
  "miner": "0xDFAEf2eeE901dde3f2f790b3D81c491D2EeEaeB4",
  "extraData": "0xd983010001844765746887676f312e342e328777696e646f7773",
  "transactions": [
    {
      "hash": "0x7e02355efd10e6acb40a40ba718a0bf7a3b74e85d5d7cf1b2ff2f84b1ad65bda",
      "blockHash": "0x9fd7ca2c502c76054ea61d4b6f59120b019289c42684d92340af8ed551f64cef",
      "blockNumber": 81230,
      "transactionIndex": 0,
      "confirmations": null,
      "from": "0x63BBedc46A1113Ba7938CF7C18CCb5Aed20eC733",
      "gasPrice": {
        "_hex": "0xd461bca8c"
      },
      "gasLimit": {
        "_hex": "0x15f90"
      },
      "to": "0x0A319A7e0C887F104359e1eEe6717BD8f232d3Da",
      "value": {
        "_hex": "0x1c9f78d2893e40000"
      },
      "nonce": 7,
      "data": "0x",
      "r": "0x5f78c39488e8002c2c41177a73b24574688d2272860b9c74268787f93e27922d",
      "s": "0x739aacac6139e65fe1cd9d382d2234c9bda128707a1ef03fb7f9c5e35a85ba6d",
      "v": 27,
      "creates": null,
      "raw": "0xf86e07850d461bca8c83015f90940a319a7e0c887f104359e1eee6717bd8f232d3da8901c9f78d2893e40000801ba05f78c39488e8002c2c41177a73b24574688d2272860b9c74268787f93e27922da0739aacac6139e65fe1cd9d382d2234c9bda128707a1ef03fb7f9c5e35a85ba6d",
      "networkId": 0,
      "chainId": 0
    }
  ]
}