{
  "hash": "0xd13be4ef6f869e1c9b3c90fc6331ae99eab6a1e7e9c346e0ca6b935111bd6e05",
  "parentHash": "0x9b79dc532fa6da50e375f0926288008de7825921fbd3a0ce52313570ba06503f",
  "number": 79868,
  "timestamp": 1439476402,
  "nonce": "0xa02a35336afe7102",
  "difficulty": 2351781874254,
  "gasLimit": {
    "_hex": "0x2fefd8"
  },
  "gasUsed": {
    "_hex": "0x5208"
  },
  "miner": "0xe6A7a1d47ff21B6321162AEA7C6CB457D5476Bca",
  "extraData": "0x476574682f76312e302e312d38326566323666362f6c696e75782f676f312e34",
  "transactions": [
    {
      "hash": "0x7391d6e3b2d93b88ce4e271715beb9f592466259e03ec0fc218a532e06493464",
      "blockHash": "0xd13be4ef6f869e1c9b3c90fc6331ae99eab6a1e7e9c346e0ca6b935111bd6e05",
      "blockNumber": 79868,
      "transactionIndex": 0,
      "confirmations": null,
      "from": "0xb5CE1861d98E85c84531Dbc18720278328Fd97f6",
      "gasPrice": {
        "_hex": "0xdf8475800"
      },
      "gasLimit": {
        "_hex": "0x5208"
      },
      "to": "0xa8C9190b83f8d6855E85931AA6fB4A744556Ace6",
      "value": {
        "_hex": "0x1a055690d9db80000"
      },
      "nonce": 0,
      "data": "0x",
      "r": "0xbe1cc06c07ab4f74bba2ecd9480a142d0d5e1d44eedc3f9891b4aff2cf060033",
      "s": "0x2f22f346b1de59852fbb6b2fe5e8a69cc2e5236bde82d0ba11e02a053753370a",
      "v": 28,
      "creates": null,
      "raw": "0xf86d80850df847580082520894a8c9190b83f8d6855e85931aa6fb4a744556ace68901a055690d9db80000801ca0be1cc06c07ab4f74bba2ecd9480a142d0d5e1d44eedc3f9891b4aff2cf060033a02f22f346b1de59852fbb6b2fe5e8a69cc2e5236bde82d0ba11e02a053753370a",
      "networkId": 0,
      "chainId": 0
    }
  ]
}