{
  "hash": "0xdfde21338545acff42e28915ee04849cfa14fd80f2467cff785652d61f54af48",
  "parentHash": "0x528cb792a92751457f7151dd0c2ecd2d2852f701944e68e08ae049447f862bd4",
  "number": 48497,
  "timestamp": 1438958136,
  "nonce": "0x23042de09852d4ae",
  "difficulty": 1460724424207,
  "gasLimit": {
    "_hex": "0x1838c"
  },
  "gasUsed": {
    "_hex": "0x546c"
  },
  "miner": "0xf927a40C8B7F6E07c5af7FA2155B4864a4112B13",
  "extraData": "0x476574682f76312e302e312f6c696e75782f676f312e342e32",
  "transactions": [
    {
      "hash": "0x6f2cb0c7bb64d82e75e2d855611709e2bfc41fef775a51b17a0ab50cac8af9fd",
      "blockHash": "0xdfde21338545acff42e28915ee04849cfa14fd80f2467cff785652d61f54af48",
      "blockNumber": 48497,
      "transactionIndex": 0,
      "confirmations": null,
      "from": "0x5584a5A361e70D0757D8Ca2B151f041136C9C28a",
      "gasPrice": {
        "_hex": "0x114391e0b60"
      },
      "gasLimit": {
        "_hex": "0x15f90"
      },
      "to": "0x2910543Af39abA0Cd09dBb2D50200b3E800A63D2",
      "value": {
        "_hex": "0x4563918244f40000"
      },
      "nonce": 1,
      "data": "0x454e433933464b3330",
      "r": "0x9bb409d5324f5832d5f7d4c5bfdeaf4cd7b3ec3e6c8588ac52af65cd6de89516",
      "s": "0x70162abd708842fd53548cf6c01709a7ab93df16e4af04bd7aac8fd7be3614e2",
      "v": 27,
      "creates": null,
      "raw": "0xf87701860114391e0b6083015f90942910543af39aba0cd09dbb2d50200b3e800a63d2884563918244f4000089454e433933464b33301ba09bb409d5324f5832d5f7d4c5bfdeaf4cd7b3ec3e6c8588ac52af65cd6de89516a070162abd708842fd53548cf6c01709a7ab93df16e4af04bd7aac8fd7be3614e2",
      "networkId": 0,
      "chainId": 0
    }
  ]
}