{
  "hash": "0x2dbff4c8a844dda2c3c0b28b0df3b69616f3c86165d2c0838ec88fad01026080",
  "parentHash": "0xa1a9bf184d3fdedfa2c2dbc6e0bee4f1f01967ceb59a5cbff36241df68d98ede",
  "number": 85986,
  "timestamp": 1439571878,
  "nonce": "0x0baabddcfcb9d5da",
  "difficulty": 2788049963616,
  "gasLimit": {
    "_hex": "0x2fefd8"
  },
  "gasUsed": {
    "_hex": "0xa674"
  },
  "miner": "0xe6A7a1d47ff21B6321162AEA7C6CB457D5476Bca",
  "extraData": "0x476574682f76312e302e312d38326566323666362f6c696e75782f676f312e34",
  "transactions": [
    {
      "hash": "0xf00afe839809a944b295066131d7f284e9dc768e1b395a9e57fe9fcb60c62d2f",
      "blockHash": "0x2dbff4c8a844dda2c3c0b28b0df3b69616f3c86165d2c0838ec88fad01026080",
      "blockNumber": 85986,
      "transactionIndex": 0,
      "confirmations": null,
      "from": "0x710b0274d712C77E08a5707D6f3E70c0Ce3d92CF",
      "gasPrice": {
        "_hex": "0x1118e2e1885"
      },
      "gasLimit": {
        "_hex": "0x55f0"
      },
      "to": "0x2910543Af39abA0Cd09dBb2D50200b3E800A63D2",
      "value": {
        "_hex": "0x56bc75e2d631000000"
      },
      "nonce": 3,
      "data": "0x454e48515141384447",
      "r": "0x2b12c038a550d17a6e2d96cd94d76985ad94d43eb798bedda3694d45c715f7be",
      "s": "0x3b0cb354dac27658503da18fdb411741776ea945ddd40932e4f653d79754f6b6",
      "v": 27,
      "creates": null,
      "raw": "0xf877038601118e2e18858255f0942910543af39aba0cd09dbb2d50200b3e800a63d28956bc75e2d63100000089454e485151413844471ba02b12c038a550d17a6e2d96cd94d76985ad94d43eb798bedda3694d45c715f7bea03b0cb354dac27658503da18fdb411741776ea945ddd40932e4f653d79754f6b6",
      "networkId": 0,
      "chainId": 0
    },
    {
      "hash": "0x4e7e1954f0944c022f7f8ff467d4769b16cd2b1eb223bc340421c317fa0ee68e",
      "blockHash": "0x2dbff4c8a844dda2c3c0b28b0df3b69616f3c86165d2c0838ec88fad01026080",
      "blockNumber": 85986,
      "transactionIndex": 1,
      "confirmations": null,
      "from": "0x32Be343B94f860124dC4fEe278FDCBD38C102D88",
      "gasPrice": {
        "_hex": "0xe0644f4d7"
      },
      "gasLimit": {
        "_hex": "0x5208"
      },
      "to": "0x654C5Ab883F5816f49a6E6548452520ce62a047d",
      "value": {
        "_hex": "0x1bae6605c8b6c800"
      },
      "nonce": 744,
      "data": "0x",
      "r": "0xf065c5e3c4b02feb71861327c69f9b5a9a9fb58353895fc68179bebd57fe01be",
      "s": "0x29277c9250b218c9558b8e866d1d2cb30efeea41796dd973993ae8d4a14190d6",
      "v": 27,
      "creates": null,
      "raw": "0xf86e8202e8850e0644f4d782520894654c5ab883f5816f49a6e6548452520ce62a047d881bae6605c8b6c800801ba0f065c5e3c4b02feb71861327c69f9b5a9a9fb58353895fc68179bebd57fe01bea029277c9250b218c9558b8e866d1d2cb30efeea41796dd973993ae8d4a14190d6",
      "networkId": 0,
      "chainId": 0
    }
  ]
}