{
  "hash": "0xe7ba41679f4a8ae49eb384ba65bfdc4c87f115b3a5067f48658b9edc6e24426f",
  "parentHash": "0xa92fd3e546a75926dca8e09b24a2a25f4d415f0cbe93c09a5f385b0598cf34bd",
  "number": 83773,
  "timestamp": 1439540675,
  "nonce": "0xb54de8af5a7f88f5",
  "difficulty": 2443134863160,
  "gasLimit": {
    "_hex": "0x2fefd8"
  },
  "gasUsed": {
    "_hex": "0x5208"
  },
  "miner": "0x9Fa9952255B2b06639A04D63804d4BdFFf6E2d7e",
  "extraData": "0x476574682f76312e302e312f77696e646f77732f676f312e342e32",
  "transactions": [
    {
      "hash": "0x72fa5fd8283d517183f5304b2801a0ef0593620632d3bd8d62fec3c3f3de9b27",
      "blockHash": "0xe7ba41679f4a8ae49eb384ba65bfdc4c87f115b3a5067f48658b9edc6e24426f",
      "blockNumber": 83773,
      "transactionIndex": 0,
      "confirmations": null,
      "from": "0x2910543Af39abA0Cd09dBb2D50200b3E800A63D2",
      "gasPrice": {
        "_hex": "0xd2bcd3a52"
      },
      "gasLimit": {
        "_hex": "0x5208"
      },
      "to": "0xb2169f1326FE9745321aD99563654089bAdf09eb",
      "value": {
        "_hex": "0xad77cf8e18e3f8000"
      },
      "nonce": 532,
      "data": "0x",
      "r": "0x9dbf5a596a2532138e0307b91ca3edbd1ba8311c97d6f1e5de270bc75030b410",
      "s": "0x4f958ee46ba0fe60f89360a7cb62e91c17f5810b89e6acc76ac70d7f6ab42ccd",
      "v": 28,
      "creates": null,
      "raw": "0xf86f820214850d2bcd3a5282520894b2169f1326fe9745321ad99563654089badf09eb890ad77cf8e18e3f8000801ca09dbf5a596a2532138e0307b91ca3edbd1ba8311c97d6f1e5de270bc75030b410a04f958ee46ba0fe60f89360a7cb62e91c17f5810b89e6acc76ac70d7f6ab42ccd",
      "networkId": 0,
      "chainId": 0
    }
  ]
}