{
  "hash": "0x7a4143cba6c72a0782da5afab2b0de8d347840d8f45c30f804cdc76bf5c20203",
  "parentHash": "0xda6308caf96786b9dc907e794452d7fe55444fdc7547902139832c7fdae64ca1",
  "number": 100497,
  "timestamp": 1439807469,
  "nonce": "0x1f7b6d6e530c3581",
  "difficulty": 3820980724469,
  "gasLimit": {
    "_hex": "0x2fefd8"
  },
  "gasUsed": {
    "_hex": "0x5208"
  },
  "miner": "0xAa9164cC61C67064351596c21760491616AA95F4",
  "extraData": "0x",
  "transactions": [
    {
      "hash": "0x21e12776b436e9ce8e4bc4b090be87ce1962e3e44fa91a55a85ce5ba7530e291",
      "blockHash": "0x7a4143cba6c72a0782da5afab2b0de8d347840d8f45c30f804cdc76bf5c20203",
      "blockNumber": 100497,
      "transactionIndex": 0,
      "confirmations": null,
      "from": "0x6C4163642Fce79F094c50853FEaF94397bDDcd09",
      "gasPrice": {
        "_hex": "0xcdd3a2983"
      },
      "gasLimit": {
        "_hex": "0x15f90"
      },
      "to": "0xf2cC0eEAAAeD313542CB262B0B8c3972425143f0",
      "value": {
        "_hex": "0x8aa39c121a270000"
      },
      "nonce": 1,
      "data": "0x",
      "r": "0x11d261da44d5d60cdea788dd55e242b6969a1c5b0c0cf8d9c3588f42f0a9d902",
      "s": "0x69df31a7dccc637cbbd5be5affbe238af9bbce1f402292eef2687dc37ea5a902",
      "v": 27,
      "creates": null,
      "raw": "0xf86d01850cdd3a298383015f9094f2cc0eeaaaed313542cb262b0b8c3972425143f0888aa39c121a270000801ba011d261da44d5d60cdea788dd55e242b6969a1c5b0c0cf8d9c3588f42f0a9d902a069df31a7dccc637cbbd5be5affbe238af9bbce1f402292eef2687dc37ea5a902",
      "networkId": 0,
      "chainId": 0
    }
  ]
}