{
  "hash": "0x70531ebc3dce21c34b1bf4b1ebb33468924e105bcfcbd95486dbf8d994b575c9",
  "parentHash": "0x4e39a1d97bdd6d71032db376b63de36cce3ccffdc75d7f2da85acf5a6c40b245",
  "number": 47824,
  "timestamp": 1438946927,
  "nonce": "0xdfdf20785f73bf20",
  "difficulty": 1457279461666,
  "gasLimit": {
    "_hex": "0xf7c4"
  },
  "gasUsed": {
    "_hex": "0x5208"
  },
  "miner": "0x580992B51e3925e23280EfB93d3047C82f17E038",
  "extraData": "0x476574682f76312e302e312f6c696e75782f676f312e342e32",
  "transactions": [
    {
      "hash": "0x7b0d500c261463d1c2dde43e8f83199e34ce5f3814b47cc7ca6b83339066d5d2",
      "blockHash": "0x70531ebc3dce21c34b1bf4b1ebb33468924e105bcfcbd95486dbf8d994b575c9",
      "blockNumber": 47824,
      "transactionIndex": 0,
      "confirmations": null,
      "from": "0x40A331195B977325c2aA28FA2f42cb25Ec3c253c",
      "gasPrice": {
        "_hex": "0xe013086cb"
      },
      "gasLimit": {
        "_hex": "0x9c40"
      },
      "to": "0x3aA42c21B9b31C3E27CCD17E099aF679CdF56907",
      "value": {
        "_hex": "0x1"
      },
      "nonce": 2,
      "data": "0x",
      "r": "0x36554a9d5dc385601c6bd80525409eca32c7a261e93bb3405ec0eaf33208f292",
      "s": "0x22f7b2e7a984509b656793dca363e618848a80889c89541e6f81d40e2f018c7f",
      "v": 28,
      "creates": null,
      "raw": "0xf86402850e013086cb829c40943aa42c21b9b31c3e27ccd17e099af679cdf5690701801ca036554a9d5dc385601c6bd80525409eca32c7a261e93bb3405ec0eaf33208f292a022f7b2e7a984509b656793dca363e618848a80889c89541e6f81d40e2f018c7f",
      "networkId": 0,
      "chainId": 0
    }
  ]
}