{
  "hash": "0x20a1cdc5cd4efcd1f0442b3a3cd3f0fad6e95c964d96883e9eb4394591b17d71",
  "parentHash": "0x26a550e73f3b77bb117338be01180b3a3828e970507aa0849f4d44cda55059d3",
  "number": 69915,
  "timestamp": 1439311770,
  "nonce": "0xbe8963e1b2765c0e",
  "difficulty": 2111657212675,
  "gasLimit": {
    "_hex": "0x2fefd8"
  },
  "gasUsed": {
    "_hex": "0x546c"
  },
  "miner": "0x9746c7e1ef2bd21FF3997fa467593a89cb852BD0",
  "extraData": "0x476574682f76312e302e312f77696e646f77732f676f312e342e32",
  "transactions": [
    {
      "hash": "0x5ba00e6687d3cb5fe2b3313a1ddf40d12aa250e4a403d77a341a9b9b64e4009a",
      "blockHash": "0x20a1cdc5cd4efcd1f0442b3a3cd3f0fad6e95c964d96883e9eb4394591b17d71",
      "blockNumber": 69915,
      "transactionIndex": 0,
      "confirmations": null,
      "from": "0x813ee1C90CeA0A07aa24CB733cA38Ad46CCf8CF0",
      "gasPrice": {
        "_hex": "0xd7d40ace3"
      },
      "gasLimit": {
        "_hex": "0x55f0"
      },
      "to": "0x2910543Af39abA0Cd09dBb2D50200b3E800A63D2",
      "value": {
        "_hex": "0xf43fc2c04ee0000"
      },
      "nonce": 0,
      "data": "0x454e51343033375047",
      "r": "0xad07b365b5d50352fba007efd88ed9c85d8093b59dfcf8fa14558b5636b0fd05",
      "s": "0x667fef7c7339aa0a7aac4e9b70a066690f9a3b6a48ebd692c918d019b872cf0e",
      "v": 27,
      "creates": null,
      "raw": "0xf87580850d7d40ace38255f0942910543af39aba0cd09dbb2d50200b3e800a63d2880f43fc2c04ee000089454e513430333750471ba0ad07b365b5d50352fba007efd88ed9c85d8093b59dfcf8fa14558b5636b0fd05a0667fef7c7339aa0a7aac4e9b70a066690f9a3b6a48ebd692c918d019b872cf0e",
      "networkId": 0,
      "chainId": 0
    }
  ]
}