{
  "hash": "0x285a5ea4074b7b3d164026e45adc2d3f9ccf9c4c19b28b53bf052845f2b673c6",
  "parentHash": "0xb23449c1f96e2ee74865e8b9e72fb5ea024bd5604975e5367ed7e4dc33a37b91",
  "number": 68431,
  "timestamp": 1439287811,
  "nonce": "0x271eed99c55d23ba",
  "difficulty": 2011381553105,
  "gasLimit": {
    "_hex": "0x2fefd8"
  },
  "gasUsed": {
    "_hex": "0x23e38"
  },
  "miner": "0xE4BA8cF48d11D4cd54fba46C5331b5477DbF5539",
  "extraData": "0x476574682f76312e302e312f77696e646f77732f676f312e342e32",
  "transactions": [
    {
      "hash": "0x204c070449ec512945f15b0da75de05db9830aca1e434f4ead897e827a35feb9",
      "blockHash": "0x285a5ea4074b7b3d164026e45adc2d3f9ccf9c4c19b28b53bf052845f2b673c6",
      "blockNumber": 68431,
      "transactionIndex": 0,
      "confirmations": null,
      "from": "0x57158f5B5B35cDDC7Ac8FAB8E10C136FF7de587e",
      "gasPrice": {
        "_hex": "0xd1b0a5f92"
      },
      "gasLimit": {
        "_hex": "0x15f90"
      },
      "to": "0xD441bA6FFe06b0BD76330aC8F9c2946dA2dF88A2",
      "value": {
        "_hex": "0x1cdda4faccd0000"
      },
      "nonce": 8,
      "data": "0x",
      "r": "0x46f20be744c10376c184b6332a43033a8a359a2f7dd9904e083482d7d6a05dcf",
      "s": "0x6de7bc719aba3f41ff8f861fe27720b3743d2dcd45d026d6726584b377249607",
      "v": 27,
      "creates": null,
      "raw": "0xf86d08850d1b0a5f9283015f9094d441ba6ffe06b0bd76330ac8f9c2946da2df88a28801cdda4faccd0000801ba046f20be744c10376c184b6332a43033a8a359a2f7dd9904e083482d7d6a05dcfa06de7bc719aba3f41ff8f861fe27720b3743d2dcd45d026d6726584b377249607",
      "networkId": 0,
      "chainId": 0
    },
    {
      "hash": "0x7fbdb169fb22245f6358f8ad41e4fd1c970f24a2e608926212f62665259e753f",
      "blockHash": "0x285a5ea4074b7b3d164026e45adc2d3f9ccf9c4c19b28b53bf052845f2b673c6",
      "blockNumber": 68431,
      "transactionIndex": 1,
      "confirmations": null,
      "from": "0xfBd83cCd7fCEf1D510264618Cea654e411871b8D",
      "gasPrice": {
        "_hex": "0xba43b7400"
      },
      "gasLimit": {
        "_hex": "0x5208"
      },
      "to": "0xc34477640E46f8Cc61Ad2c43f08E16a59C1577bA",
      "value": {
        "_hex": "0x937bda828f9000"
      },
      "nonce": 1,
      "data": "0x",
      "r": "0x0c1d0a987b9161103df02de5b47ea7adae6ad7adb3d5345af8a3280f6ac3124f",
      "s": "0x12f48d3c361d1c930d94c07b7a690a7ba6e53f85b6cc93dff4d4c3ec6c6a3414",
      "v": 28,
      "creates": null,
      "raw": "0xf86b01850ba43b740082520894c34477640e46f8cc61ad2c43f08e16a59c1577ba87937bda828f9000801ca00c1d0a987b9161103df02de5b47ea7adae6ad7adb3d5345af8a3280f6ac3124fa012f48d3c361d1c930d94c07b7a690a7ba6e53f85b6cc93dff4d4c3ec6c6a3414",
      "networkId": 0,
      "chainId": 0
    },
    {
      "hash": "0xd9bce37df9d766590f5ccad3bb0cda1a9649ce2c5410cc94e148e884c81becbf",
      "blockHash": "0x285a5ea4074b7b3d164026e45adc2d3f9ccf9c4c19b28b53bf052845f2b673c6",
      "blockNumber": 68431,
      "transactionIndex": 2,
      "confirmations": null,
      "from": "0xDde2Fe460B0732E23210B8Cfbf4B57c806396dCE",
      "gasPrice": {
        "_hex": "0xba43b7400"
      },
      "gasLimit": {
        "_hex": "0x5208"
      },
      "to": "0x3F08337A0c155f8b683cEFC1688D3198b195C6D6",
      "value": {
        "_hex": "0x937bda828f9000"
      },
      "nonce": 1,
      "data": "0x",
      "r": "0x8af56d7c613ea1eef48ac756217e6580140c41f5518647f41adb99e015db152b",
      "s": "0x5a546f3204d9fdab7adeaca7ccfa8ae000b541ba8990b403af8acbfb2ed0dec2",
      "v": 28,
      "creates": null,
      "raw": "0xf86b01850ba43b7400825208943f08337a0c155f8b683cefc1688d3198b195c6d687937bda828f9000801ca08af56d7c613ea1eef48ac756217e6580140c41f5518647f41adb99e015db152ba05a546f3204d9fdab7adeaca7ccfa8ae000b541ba8990b403af8acbfb2ed0dec2",
      "networkId": 0,
      "chainId": 0
    },
    {
      "hash": "0x7df8c7c829c80afeb03f635107c65d1bdf82450966f85e6396bc3160c19ae5ff",
      "blockHash": "0x285a5ea4074b7b3d164026e45adc2d3f9ccf9c4c19b28b53bf052845f2b673c6",
      "blockNumber": 68431,
      "transactionIndex": 3,
      "confirmations": null,
      "from": "0x72dB9745D14ec4254f266041025FD00Eb68C39FD",
      "gasPrice": {
        "_hex": "0xba43b7400"
      },
      "gasLimit": {
        "_hex": "0x5208"
      },
      "to": "0xf928ff449bcDe87b8755819Fa8D262D5c8D2352B",
      "value": {
        "_hex": "0x937bda828f9000"
      },
      "nonce": 1,
      "data": "0x",
      "r": "0x9dc593f000cafdcaf6ccac3212dbc9221be2a2dd6bc841cae24a1d9b873398e5",
      "s": "0x13e475b667e8c099af8c8549e04ba452169b5b4851408b70ef6ef6ba5fa88ed9",
      "v": 28,
      "creates": null,
      "raw": "0xf86b01850ba43b740082520894f928ff449bcde87b8755819fa8d262d5c8d2352b87937bda828f9000801ca09dc593f000cafdcaf6ccac3212dbc9221be2a2dd6bc841cae24a1d9b873398e5a013e475b667e8c099af8c8549e04ba452169b5b4851408b70ef6ef6ba5fa88ed9",
      "networkId": 0,
      "chainId": 0
    },
    {
      "hash": "0xedb75b053b277e66b2ee9001ba213f321a7153b2bc3a7079e43916b5f5bb8b85",
      "blockHash": "0x285a5ea4074b7b3d164026e45adc2d3f9ccf9c4c19b28b53bf052845f2b673c6",
      "blockNumber": 68431,
      "transactionIndex": 4,
      "confirmations": null,
      "from": "0x56d41eaC43FD18c88eEAeD881FBbe4ED5DD7C721",
      "gasPrice": {
        "_hex": "0xba43b7400"
      },
      "gasLimit": {
        "_hex": "0x5208"
      },
      "to": "0xb3Ac99Fc53fAEDbE62160E7c06392C9754A7Fd0c",
      "value": {
        "_hex": "0x937bda828f9000"
      },
      "nonce": 1,
      "data": "0x",
      "r": "0x9b19e6596ce5abdf9c134b9163bd24e3e158c5d2e6eea4e432388a350fa8a564",
      "s": "0x0e9d4db4cc827fe1726723258a4739144ecec8e9b6de70bba9d9df1705d2ea73",
      "v": 27,
      "creates": null,
      "raw": "0xf86b01850ba43b740082520894b3ac99fc53faedbe62160e7c06392c9754a7fd0c87937bda828f9000801ba09b19e6596ce5abdf9c134b9163bd24e3e158c5d2e6eea4e432388a350fa8a564a00e9d4db4cc827fe1726723258a4739144ecec8e9b6de70bba9d9df1705d2ea73",
      "networkId": 0,
      "chainId": 0
    },
    {
      "hash": "0x6c264f049fb3a82dbfabb7c3903675bca81a6c083116a9238375cc8297014600",
      "blockHash": "0x285a5ea4074b7b3d164026e45adc2d3f9ccf9c4c19b28b53bf052845f2b673c6",
      "blockNumber": 68431,
      "transactionIndex": 5,
      "confirmations": null,
      "from": "0xAaF1E5b11BF904bD437EfBeD9F489b8Eb037E77e",
      "gasPrice": {
        "_hex": "0xba43b7400"
      },
      "gasLimit": {
        "_hex": "0x5208"
      },
      "to": "0xDA72851d88C0c7A0e2000E72e2d7959470Ef435d",
      "value": {
        "_hex": "0x937bda828f9000"
      },
      "nonce": 1,
      "data": "0x",
      "r": "0x7db4457c841deb00c0047382cc9355d6a58c5492e16f91e84a3e890639c68e68",
      "s": "0x5860a86a3f3a293a2fc2b34a3080a51012b2d1e750b05897adfcf4397a1be142",
      "v": 27,
      "creates": null,
      "raw": "0xf86b01850ba43b740082520894da72851d88c0c7a0e2000e72e2d7959470ef435d87937bda828f9000801ba07db4457c841deb00c0047382cc9355d6a58c5492e16f91e84a3e890639c68e68a05860a86a3f3a293a2fc2b34a3080a51012b2d1e750b05897adfcf4397a1be142",
      "networkId": 0,
      "chainId": 0
    },
    {
      "hash": "0xf74deb1b5615f3cf977d2847de3db5f1615a4fd458b7b0b52fd6d0a6132f53cb",
      "blockHash": "0x285a5ea4074b7b3d164026e45adc2d3f9ccf9c4c19b28b53bf052845f2b673c6",
      "blockNumber": 68431,
      "transactionIndex": 6,
      "confirmations": null,
      "from": "0x19ADd149ce0fDaC30CCE0E46D90677f78707262f",
      "gasPrice": {
        "_hex": "0xba43b7400"
      },
      "gasLimit": {
        "_hex": "0x5208"
      },
      "to": "0x3811Cff8d1F549e8f080942519fd44706921573D",
      "value": {
        "_hex": "0x937bda828f9000"
      },
      "nonce": 1,
      "data": "0x",
      "r": "0x23d63ebfae31d73d2d91a12b1e1b8875a78110e79fa821f85523dd2501f70f01",
      "s": "0x6ebe568993abde9f6103bf60c97df90020d2abc7927f6928b8a93bfd0d53516e",
      "v": 28,
      "creates": null,
      "raw": "0xf86b01850ba43b7400825208943811cff8d1f549e8f080942519fd44706921573d87937bda828f9000801ca023d63ebfae31d73d2d91a12b1e1b8875a78110e79fa821f85523dd2501f70f01a06ebe568993abde9f6103bf60c97df90020d2abc7927f6928b8a93bfd0d53516e",
      "networkId": 0,
      "chainId": 0
    }
  ]
}