{
  "hash": "0x10879c1a0e8376f24eb8bc789a2d610a4ec5e1800d55af663baf3b721253258e",
  "parentHash": "0x43a56a0595fa56def7bee620d4c7843c269e3174b1459be1715774cf45e5ebf3",
  "number": 52557,
  "timestamp": 1439023444,
  "nonce": "0x3b8605be4d97c601",
  "difficulty": 1569432571411,
  "gasLimit": {
    "_hex": "0x156d8f"
  },
  "gasUsed": {
    "_hex": "0xf4240"
  },
  "miner": "0xe6A7a1d47ff21B6321162AEA7C6CB457D5476Bca",
  "extraData": "0x657468706f6f6c2e6f7267",
  "transactions": [
    {
      "hash": "0xdd6761e810d7b0126a14835c51c231abb9dc705fdce7824af799575c377edbc9",
      "blockHash": "0x10879c1a0e8376f24eb8bc789a2d610a4ec5e1800d55af663baf3b721253258e",
      "blockNumber": 52557,
      "transactionIndex": 0,
      "confirmations": null,
      "from": "0x54dAeb3E8a6BBC797E4aD2b0339f134b186e4637",
      "gasPrice": {
        "_hex": "0xe7d27df17"
      },
      "gasLimit": {
        "_hex": "0x7a120"
      },
      "to": "0xBAA54d6E90c3F4d7Ebec11bD180134C7eD8eBb52",
      "value": {
        "_hex": "0x16345785d8a0000"
      },
      "nonce": 718,
      "data": "0x",
      "r": "0xbdee1fabb6da043c49368e742fb85869b25f0f5a73dde4076a16b8f0dda483d2",
      "s": "0x1ae7306d324d4dab32300eb49459bdfe2331c3e457e47070c9ce0ff7c96766cc",
      "v": 27,
      "creates": null,
      "raw": "0xf86f8202ce850e7d27df178307a12094baa54d6e90c3f4d7ebec11bd180134c7ed8ebb5288016345785d8a0000801ba0bdee1fabb6da043c49368e742fb85869b25f0f5a73dde4076a16b8f0dda483d2a01ae7306d324d4dab32300eb49459bdfe2331c3e457e47070c9ce0ff7c96766cc",
      "networkId": 0,
      "chainId": 0
    },
    {
      "hash": "0x025c7cc540015d445aed87b599b42a28d6c122b86406b0b849e1b66f180765b6",
      "blockHash": "0x10879c1a0e8376f24eb8bc789a2d610a4ec5e1800d55af663baf3b721253258e",
      "blockNumber": 52557,
      "transactionIndex": 1,
      "confirmations": null,
      "from": "0x54dAeb3E8a6BBC797E4aD2b0339f134b186e4637",
      "gasPrice": {
        "_hex": "0xe7d27df17"
      },
      "gasLimit": {
        "_hex": "0x7a120"
      },
      "to": "0xBAA54d6E90c3F4d7Ebec11bD180134C7eD8eBb52",
      "value": {
        "_hex": "0x16345785d8a0000"
      },
      "nonce": 719,
      "data": "0x",
      "r": "0xbb58307be1e4d09b06f7637ef9d3a9da5a5534c419fc1fe6a525be3d7eb03341",
      "s": "0x6beb1416dd323db65a90be2e261fddc4466ec01648759397c509dfad2a88e70e",
      "v": 28,
      "creates": null,
      "raw": "0xf86f8202cf850e7d27df178307a12094baa54d6e90c3f4d7ebec11bd180134c7ed8ebb5288016345785d8a0000801ca0bb58307be1e4d09b06f7637ef9d3a9da5a5534c419fc1fe6a525be3d7eb03341a06beb1416dd323db65a90be2e261fddc4466ec01648759397c509dfad2a88e70e",
      "networkId": 0,
      "chainId": 0
    }
  ]
}