{
  "hash": "0x584bc4b1a04a722673984225b6e2e3febe9bdb564b5ae8ed8caabc9d6a8bb4c3",
  "parentHash": "0xe4306978b43663b1a10af7d7a83b0b65f29f1315c98697da9a9c3946c27f06bc",
  "number": 106025,
  "timestamp": 1439897429,
  "nonce": "0x51da5aca265cde9a",
  "difficulty": 4464236250453,
  "gasLimit": {
    "_hex": "0x2fefd8"
  },
  "gasUsed": {
    "_hex": "0x1cc07"
  },
  "miner": "0xe6A7a1d47ff21B6321162AEA7C6CB457D5476Bca",
  "extraData": "0x476574682f76312e302e312d38326566323666362f6c696e75782f676f312e34",
  "transactions": [
    {
      "hash": "0xa4b3cb0a79e9068d5cc17f49ac71e22d41c64128bf158f825432f0588232430d",
      "blockHash": "0x584bc4b1a04a722673984225b6e2e3febe9bdb564b5ae8ed8caabc9d6a8bb4c3",
      "blockNumber": 106025,
      "transactionIndex": 0,
      "confirmations": null,
      "from": "0x87C5B5874A18B4306DF8a752a6C8cc3E82daFc19",
      "gasPrice": {
        "_hex": "0x10b012a1b05"
      },
      "gasLimit": {
        "_hex": "0x493e0"
      },
      "to": "0xD79B4C6791784184e2755B2fC1659eaaB0f80456",
      "value": {
        "_hex": "0x1508150f9628e441"
      },
      "nonce": 327,
      "data": "0x8d2161860000000000000000000000000000000000000000000000000000000000000007d3d96ceed0cfca4794c2a5a3d3aeefe69da0a2a669e66a5651f30b64831c3db0",
      "r": "0xf332adb14c27565f76c728ea95eb2fa56bc332cc6c69f22685b0e2623cf0996b",
      "s": "0x1bf8435978f6ae0fc0a4928fb17cf9c7d6d2c13113f1f2acb8d79dbe126e71ae",
      "v": 28,
      "creates": null,
      "raw": "0xf8b582014786010b012a1b05830493e094d79b4c6791784184e2755b2fc1659eaab0f80456881508150f9628e441b8448d2161860000000000000000000000000000000000000000000000000000000000000007d3d96ceed0cfca4794c2a5a3d3aeefe69da0a2a669e66a5651f30b64831c3db01ca0f332adb14c27565f76c728ea95eb2fa56bc332cc6c69f22685b0e2623cf0996ba01bf8435978f6ae0fc0a4928fb17cf9c7d6d2c13113f1f2acb8d79dbe126e71ae",
      "networkId": 0,
      "chainId": 0
    },
    {
      "hash": "0xfb0d2cc501ff3ab67fcec21c2ac108a74a183a1d73485e7f8196fa85954f953b",
      "blockHash": "0x584bc4b1a04a722673984225b6e2e3febe9bdb564b5ae8ed8caabc9d6a8bb4c3",
      "blockNumber": 106025,
      "transactionIndex": 1,
      "confirmations": null,
      "from": "0xFBb1b73C4f0BDa4f67dcA266ce6Ef42f520fBB98",
      "gasPrice": {
        "_hex": "0xcd6107dbd"
      },
      "gasLimit": {
        "_hex": "0x5208"
      },
      "to": "0x0a0a0a169A784a9B524d0d40f03552053B360F21",
      "value": {
        "_hex": "0x1b18a622f2efa3000"
      },
      "nonce": 112,
      "data": "0x",
      "r": "0xd47cb5ba1472130a1980dc27a7a65d30075c90e8d18e8a4c0d4323f09e1ce223",
      "s": "0x582cb537cb2d4b1c3040d114383b4b1f3b0431546dcf60a60bfa35c47b40ccf1",
      "v": 27,
      "creates": null,
      "raw": "0xf86d70850cd6107dbd825208940a0a0a169a784a9b524d0d40f03552053b360f218901b18a622f2efa3000801ba0d47cb5ba1472130a1980dc27a7a65d30075c90e8d18e8a4c0d4323f09e1ce223a0582cb537cb2d4b1c3040d114383b4b1f3b0431546dcf60a60bfa35c47b40ccf1",
      "networkId": 0,
      "chainId": 0
    }
  ]
}