{
  "hash": "0x5f2774320031ad8a967996df4eeddfc104acea276f36e1e393f80e2262e3b607",
  "parentHash": "0x58b7f819239e7594b87d790b8e6ad1473683dddaf2886e7fe19dd2fcff02c594",
  "number": 102272,
  "timestamp": 1439835424,
  "nonce": "0xafbc85a2bd348f83",
  "difficulty": 3939513539242,
  "gasLimit": {
    "_hex": "0x2fefd8"
  },
  "gasUsed": {
    "_hex": "0xa410"
  },
  "miner": "0x0037ce3d4B7f8729C8607D8D0248252Be68202c0",
  "extraData": "0x476574682f76312e302e312f77696e646f77732f676f312e342e32",
  "transactions": [
    {
      "hash": "0xc89f5da589e9a4d92ef14743c9b49a250d0336cd80d24c0b188261cc066111e5",
      "blockHash": "0x5f2774320031ad8a967996df4eeddfc104acea276f36e1e393f80e2262e3b607",
      "blockNumber": 102272,
      "transactionIndex": 0,
      "confirmations": null,
      "from": "0xf2cC0eEAAAeD313542CB262B0B8c3972425143f0",
      "gasPrice": {
        "_hex": "0xd96a7b36f"
      },
      "gasLimit": {
        "_hex": "0x5208"
      },
      "to": "0x32Be343B94f860124dC4fEe278FDCBD38C102D88",
      "value": {
        "_hex": "0x453bafddf0783800"
      },
      "nonce": 15,
      "data": "0x",
      "r": "0x4dd95657b3dd414b9257223c6cbcfde505adcc91733663974e6eb55bf378f934",
      "s": "0x7eb75d603da5150caa30a2f6ea5cb55ca15409aa102b1fb67c9fed91222bc496",
      "v": 28,
      "creates": null,
      "raw": "0xf86c0f850d96a7b36f8252089432be343b94f860124dc4fee278fdcbd38c102d8888453bafddf0783800801ca04dd95657b3dd414b9257223c6cbcfde505adcc91733663974e6eb55bf378f934a07eb75d603da5150caa30a2f6ea5cb55ca15409aa102b1fb67c9fed91222bc496",
      "networkId": 0,
      "chainId": 0
    },
    {
      "hash": "0x48894acb2a9c2576dd67bb7ff22bba0eaf9a92c8cfb6606a7dddbbf157aa8469",
      "blockHash": "0x5f2774320031ad8a967996df4eeddfc104acea276f36e1e393f80e2262e3b607",
      "blockNumber": 102272,
      "transactionIndex": 1,
      "confirmations": null,
      "from": "0xb1abce2918E21ddb93AA452731a12672A3d9F75a",
      "gasPrice": {
        "_hex": "0xd96a7b36f"
      },
      "gasLimit": {
        "_hex": "0x5208"
      },
      "to": "0x32Be343B94f860124dC4fEe278FDCBD38C102D88",
      "value": {
        "_hex": "0x455f36d2b4451c00"
      },
      "nonce": 102,
      "data": "0x",
      "r": "0x85d1025deebae898580a218d7987d30d8f40b6fdf909f3e3a59de78a3cf2d4c2",
      "s": "0x6542c5abee14edd96e2d493ebf38251c14d722dd1f9090afc8b40aab75c2536a",
      "v": 27,
      "creates": null,
      "raw": "0xf86c66850d96a7b36f8252089432be343b94f860124dc4fee278fdcbd38c102d8888455f36d2b4451c00801ba085d1025deebae898580a218d7987d30d8f40b6fdf909f3e3a59de78a3cf2d4c2a06542c5abee14edd96e2d493ebf38251c14d722dd1f9090afc8b40aab75c2536a",
      "networkId": 0,
      "chainId": 0
    }
  ]
}