{
  "hash": "0xf227c689fe0408961fef9421732220ec166f5ac6d53acd1bc70f04b78010a423",
  "parentHash": "0xe4b5e8100ffee88947135d7bcf350c3ea0a1682946c5be3aa933558af452be4c",
  "number": 68228,
  "timestamp": 1439284505,
  "nonce": "0x3b818a8d91879ac2",
  "difficulty": 1983148767058,
  "gasLimit": {
    "_hex": "0x2fefd8"
  },
  "gasUsed": {
    "_hex": "0x5208"
  },
  "miner": "0x47ff6576639c2e94762eA5443978D7681C0E78DC",
  "extraData": "0x476574682f76312e302e312f6c696e75782f676f312e342e32",
  "transactions": [
    {
      "hash": "0x1f554f9dc210e4d44367feecf7fb56039eca15bd03d2222a4320c4a8d3b39ab0",
      "blockHash": "0xf227c689fe0408961fef9421732220ec166f5ac6d53acd1bc70f04b78010a423",
      "blockNumber": 68228,
      "transactionIndex": 0,
      "confirmations": null,
      "from": "0x5435C6c1793317d32Ce13bBA4c4FfEB973b78ADc",
      "gasPrice": {
        "_hex": "0x746a528800"
      },
      "gasLimit": {
        "_hex": "0x5267"
      },
      "to": "0x117D2945355d346cE6637d6D5CC9A9E46CB43B73",
      "value": {
        "_hex": "0xd8d726b7177a80000"
      },
      "nonce": 0,
      "data": "0x",
      "r": "0x024943ccc05b948f0426eeed08b42fe58345f14276dcf1e13bf41af084456d7a",
      "s": "0xf9298e33bf3ec256407c7d0d8681dca762489da8cf322fce7384d2a7562367a8",
      "v": 28,
      "creates": null,
      "raw": "0xf86d8085746a52880082526794117d2945355d346ce6637d6d5cc9a9e46cb43b73890d8d726b7177a80000801ca0024943ccc05b948f0426eeed08b42fe58345f14276dcf1e13bf41af084456d7aa0f9298e33bf3ec256407c7d0d8681dca762489da8cf322fce7384d2a7562367a8",
      "networkId": 0,
      "chainId": 0
    }
  ]
}