{
  "hash": "0xbeef4695655fd9e5c7a3d35220b474de152ba5f5e9cead20bc860e985f6d0c29",
  "parentHash": "0x109d4a09d55e93f15147f6b7f020e5baab231266f3eb2edfdf381cab6e23dd38",
  "number": 120439,
  "timestamp": 1440160002,
  "nonce": "0xce8abe5c3fec0be1",
  "difficulty": 4400352057380,
  "gasLimit": {
    "_hex": "0x2fefd8"
  },
  "gasUsed": {
    "_hex": "0x5208"
  },
  "miner": "0x790b8a3cE86E707ED0eD32bF89B3269692a23CC1",
  "extraData": "0xd783010002844765746887676f312e342e32856c696e7578",
  "transactions": [
    {
      "hash": "0x52431ece6b8fc3ff8535abd5be13400376a8af75f37fff8fc4a2c1702bc9a81c",
      "blockHash": "0xbeef4695655fd9e5c7a3d35220b474de152ba5f5e9cead20bc860e985f6d0c29",
      "blockNumber": 120439,
      "transactionIndex": 0,
      "confirmations": null,
      "from": "0x7884D470204862a0d1A21122F41ee77430396Ee5",
      "gasPrice": {
        "_hex": "0xd4be89f70"
      },
      "gasLimit": {
        "_hex": "0x15f90"
      },
      "to": "0xa3996Da6398FEd2F271F75486d810eF151dc9e71",
      "value": {
        "_hex": "0x174876e800"
      },
      "nonce": 109,
      "data": "0x",
      "r": "0xf338af909eb1be5bf274a34e5e40549a31990d289fae0dae39491529bf31520a",
      "s": "0x5056688eeba4fda97875c1714a309d64986732c57c40f2e6853f716fd5998d18",
      "v": 27,
      "creates": null,
      "raw": "0xf86a6d850d4be89f7083015f9094a3996da6398fed2f271f75486d810ef151dc9e7185174876e800801ba0f338af909eb1be5bf274a34e5e40549a31990d289fae0dae39491529bf31520aa05056688eeba4fda97875c1714a309d64986732c57c40f2e6853f716fd5998d18",
      "networkId": 0,
      "chainId": 0
    }
  ]
}