{
  "hash": "0x05f4331ad2d4d3ad85f90186a41f0a2f701d92aabc49e33ceb357a9386ea818e",
  "parentHash": "0xf179434d253eb6b17b536fe62e2a85b6190d5e06f6349bd31ec42e377a574f7b",
  "number": 72193,
  "timestamp": 1439348815,
  "nonce": "0x28179d0d8d662805",
  "difficulty": 2178096851782,
  "gasLimit": {
    "_hex": "0x2fefd8"
  },
  "gasUsed": {
    "_hex": "0xaec1"
  },
  "miner": "0x5214803C763281b785cDC039b80605fd088D42Ca",
  "extraData": "0x",
  "transactions": [
    {
      "hash": "0x7516b0558d4b48c2cfc92cba7f98746b398169a0840318f220e1a317bc705924",
      "blockHash": "0x05f4331ad2d4d3ad85f90186a41f0a2f701d92aabc49e33ceb357a9386ea818e",
      "blockNumber": 72193,
      "transactionIndex": 0,
      "confirmations": null,
      "from": "0x17580B766f7453525ca4C6A88b01b50570EA088C",
      "gasPrice": {
        "_hex": "0xd4cb1517d"
      },
      "gasLimit": {
        "_hex": "0x61a80"
      },
      "to": "0x5Fe5B7546D1628f7348B023A0393de1FC825A4fD",
      "value": {
        "_hex": "0x8ac7230489e80000"
      },
      "nonce": 358,
      "data": "0xb595b8b50000000000000000000000000000000000000000000000000000000000000001",
      "r": "0x5d204c1a214bda5c7f320b63e95f74ac0093c11f8ad0f62c879683076301181b",
      "s": "0x1c50336b7cef4d055e332708e4c8f8f8b84cb85700a49f224e385b4e0e36e573",
      "v": 27,
      "creates": null,
      "raw": "0xf893820166850d4cb1517d83061a80945fe5b7546d1628f7348b023a0393de1fc825a4fd888ac7230489e80000a4b595b8b500000000000000000000000000000000000000000000000000000000000000011ba05d204c1a214bda5c7f320b63e95f74ac0093c11f8ad0f62c879683076301181ba01c50336b7cef4d055e332708e4c8f8f8b84cb85700a49f224e385b4e0e36e573",
      "networkId": 0,
      "chainId": 0
    }
  ]
}