{
  "hash": "0x342509d141d241fee20181b82efc5acb337581b558b58f2645ac2477be15c3c4",
  "parentHash": "0x522024b03e327afb0dfa95fe35f5a64e2be93304ee4b2b07eeea47c842bf9fd9",
  "number": 51869,
  "timestamp": 1439012281,
  "nonce": "0xef0bcc81925653b7",
  "difficulty": 1561916101369,
  "gasLimit": {
    "_hex": "0xe7c55"
  },
  "gasUsed": {
    "_hex": "0x5208"
  },
  "miner": "0x9746c7e1ef2bd21FF3997fa467593a89cb852BD0",
  "extraData": "0x476574682f76312e302e312f77696e646f77732f676f312e342e32",
  "transactions": [
    {
      "hash": "0xb739a6cfff1772f71ef1ea67cee25ef878c5233acc6f9c8f28cddc5ecc1b13c3",
      "blockHash": "0x342509d141d241fee20181b82efc5acb337581b558b58f2645ac2477be15c3c4",
      "blockNumber": 51869,
      "transactionIndex": 0,
      "confirmations": null,
      "from": "0x01434e4Ac3238bEC44a39ad642aBaBBB68D097e6",
      "gasPrice": {
        "_hex": "0x45d964b800"
      },
      "gasLimit": {
        "_hex": "0x5208"
      },
      "to": "0xb891F05f7E7E5F3767E96bF020C5b49dbEC895C0",
      "value": {
        "_hex": "0x1158e460913d00000"
      },
      "nonce": 3,
      "data": "0x",
      "r": "0x1c2f46d3c1bcacdbae78322cc5031b30307723907a40e6b37b487e2d33a2a32e",
      "s": "0x2ec45dd87e87f02784fb696a276f838552d325b5d8f0b4ee215dcd5e034c9df8",
      "v": 27,
      "creates": null,
      "raw": "0xf86d038545d964b80082520894b891f05f7e7e5f3767e96bf020c5b49dbec895c08901158e460913d00000801ba01c2f46d3c1bcacdbae78322cc5031b30307723907a40e6b37b487e2d33a2a32ea02ec45dd87e87f02784fb696a276f838552d325b5d8f0b4ee215dcd5e034c9df8",
      "networkId": 0,
      "chainId": 0
    }
  ]
}