{
  "hash": "0xbbe635d073b0a3bd42b1254b27ca8ea652df15c0b163ad344a410457095def2c",
  "parentHash": "0x6b8da9dacf69d85f7557a3015752ec7e28b2d385e9990f80297a795bcbb7f350",
  "number": 67551,
  "timestamp": 1439273945,
  "nonce": "0xabffa0e7effd2115",
  "difficulty": 1917601456572,
  "gasLimit": {
    "_hex": "0x2fe3db"
  },
  "gasUsed": {
    "_hex": "0x1203d"
  },
  "miner": "0x33bC13fDF135073277971B4D9F4f72082e907996",
  "extraData": "0x476574682f76312e302e312d38326566323666362f6c696e75782f676f312e34",
  "transactions": [
    {
      "hash": "0x7fd6ec56dc61e27ab616f1f468a05ea8f1036d1cb6917b4143adac1a535b1ef7",
      "blockHash": "0xbbe635d073b0a3bd42b1254b27ca8ea652df15c0b163ad344a410457095def2c",
      "blockNumber": 67551,
      "transactionIndex": 0,
      "confirmations": null,
      "from": "0x87898CE53471043FcCa0a2aF4E1dC6d8B3fCf607",
      "gasPrice": {
        "_hex": "0xdbf56a77d"
      },
      "gasLimit": {
        "_hex": "0x5208"
      },
      "to": "0xBFdD9820a04283b289957956353b5F3C1F665EcF",
      "value": {
        "_hex": "0x4563918244f40000"
      },
      "nonce": 21,
      "data": "0x",
      "r": "0xa7e28a4b64a033b006f7ec0ee9041b231aa389f32b1d3e772913d407bf26775e",
      "s": "0x441677888bdc11d2788d80bd70a48fa8f55dbb92eba298d7a3272a1f7a6820fd",
      "v": 27,
      "creates": null,
      "raw": "0xf86c15850dbf56a77d82520894bfdd9820a04283b289957956353b5f3c1f665ecf884563918244f40000801ba0a7e28a4b64a033b006f7ec0ee9041b231aa389f32b1d3e772913d407bf26775ea0441677888bdc11d2788d80bd70a48fa8f55dbb92eba298d7a3272a1f7a6820fd",
      "networkId": 0,
      "chainId": 0
    },
    {
      "hash": "0x9e0cac18467ceebd64e72cb9494f34530bf68f5b56915865c6b4c50b7c505547",
      "blockHash": "0xbbe635d073b0a3bd42b1254b27ca8ea652df15c0b163ad344a410457095def2c",
      "blockNumber": 67551,
      "transactionIndex": 1,
      "confirmations": null,
      "from": "0x87898CE53471043FcCa0a2aF4E1dC6d8B3fCf607",
      "gasPrice": {
        "_hex": "0xdbf56a77d"
      },
      "gasLimit": {
        "_hex": "0x5208"
      },
      "to": "0xBFdD9820a04283b289957956353b5F3C1F665EcF",
      "value": {
        "_hex": "0x4563918244f40000"
      },
      "nonce": 22,
      "data": "0x",
      "r": "0x2db844be757139790969f12ef676f1a67be0a0e86ce1868d7eb0b5f2e75d677f",
      "s": "0x0f95a9027bcadf03023e06af62bacaea650803b9e6e4ecdae057c582b6064232",
      "v": 28,
      "creates": null,
      "raw": "0xf86c16850dbf56a77d82520894bfdd9820a04283b289957956353b5f3c1f665ecf884563918244f40000801ca02db844be757139790969f12ef676f1a67be0a0e86ce1868d7eb0b5f2e75d677fa00f95a9027bcadf03023e06af62bacaea650803b9e6e4ecdae057c582b6064232",
      "networkId": 0,
      "chainId": 0
    },
    {
      "hash": "0x768cf879109fdf9c7042fe8cde902abd5bb1819af0a6659072c15313a40aabfe",
      "blockHash": "0xbbe635d073b0a3bd42b1254b27ca8ea652df15c0b163ad344a410457095def2c",
      "blockNumber": 67551,
      "transactionIndex": 2,
      "confirmations": null,
      "from": "0x976349705b839e2F5719387Fb27D2519d519da03",
      "gasPrice": {
        "_hex": "0xd492e0d2f"
      },
      "gasLimit": {
        "_hex": "0x15f90"
      },
      "to": "0x125B606C67E8066Da65069652b656c19717745Fa",
      "value": {
        "_hex": "0x47b7c88bc48e00"
      },
      "nonce": 15,
      "data": "0xa55526db",
      "r": "0x9e3211888bace87474720063c6a5bdf168a22c73ce2289f2138d3b9f90ac9d2b",
      "s": "0x6bac8529769ec0b8fa1c2cde803f92a5672d7db26e47421e97a1535dfd912913",
      "v": 28,
      "creates": null,
      "raw": "0xf8700f850d492e0d2f83015f9094125b606c67e8066da65069652b656c19717745fa8747b7c88bc48e0084a55526db1ca09e3211888bace87474720063c6a5bdf168a22c73ce2289f2138d3b9f90ac9d2ba06bac8529769ec0b8fa1c2cde803f92a5672d7db26e47421e97a1535dfd912913",
      "networkId": 0,
      "chainId": 0
    }
  ]
}