{
  "hash": "0xe806469bef9d37d7a4a303f3f819792915edead1c86348b4a5f1a0d940a6f3b6",
  "parentHash": "0xbaad69ccf6f4da62ed00b9794d115bf9e4d51ccd1869a3f033e00e0b69c8a6b1",
  "number": 68887,
  "timestamp": 1439295160,
  "nonce": "0x5b033c0917f1c1bb",
  "difficulty": 2027046823262,
  "gasLimit": {
    "_hex": "0x2fefd8"
  },
  "gasUsed": {
    "_hex": "0x5208"
  },
  "miner": "0x70C6b45fe0A5116E97B112B806A76E2F51E24413",
  "extraData": "0x476574682f76312e302e312f77696e646f77732f676f312e342e32",
  "transactions": [
    {
      "hash": "0x2fc48b859bd6b2c39bce1c294216cad5a5c7a8be42c6bc6d813ca5946a838db8",
      "blockHash": "0xe806469bef9d37d7a4a303f3f819792915edead1c86348b4a5f1a0d940a6f3b6",
      "blockNumber": 68887,
      "transactionIndex": 0,
      "confirmations": null,
      "from": "0x6747f922385c9a6F9cfDf095F34345257DD597bE",
      "gasPrice": {
        "_hex": "0xba43b7400"
      },
      "gasLimit": {
        "_hex": "0x5208"
      },
      "to": "0x51527CECDC752C9110795fAA1f9A2312B65c0327",
      "value": {
        "_hex": "0x1fcbfa42bd6000"
      },
      "nonce": 146,
      "data": "0x",
      "r": "0x3a04a7cc411118e280c29f972271a7f1d51bed5f0cdea183fe63ad4464134a74",
      "s": "0x46ddd3f9428d08edbca7308a3d54eac8e1ea115962024491b1853d85e8496def",
      "v": 28,
      "creates": null,
      "raw": "0xf86c8192850ba43b74008252089451527cecdc752c9110795faa1f9a2312b65c0327871fcbfa42bd6000801ca03a04a7cc411118e280c29f972271a7f1d51bed5f0cdea183fe63ad4464134a74a046ddd3f9428d08edbca7308a3d54eac8e1ea115962024491b1853d85e8496def",
      "networkId": 0,
      "chainId": 0
    }
  ]
}