{
  "hash": "0xdf0f5efca7704ed0f6ab8f6defe310ba6bfd019503e8e05d3a7fc8f8a85fc366",
  "parentHash": "0x329977ad82e16d04f432f7e53bd151a14307135a53725b6638d35994104b5dce",
  "number": 49781,
  "timestamp": 1438979107,
  "nonce": "0xe3a5986ceb6db33d",
  "difficulty": 1487852965228,
  "gasLimit": {
    "_hex": "0x3ebcf"
  },
  "gasUsed": {
    "_hex": "0xa674"
  },
  "miner": "0x0193d941b50d91BE6567c7eE1C0Fe7AF498b4137",
  "extraData": "0x4a5ace9e4e",
  "transactions": [
    {
      "hash": "0x4a0d25fa97a06e784c5d65a8a59cd3053cc5a35358ed453b5c5c6fa1ab5a6324",
      "blockHash": "0xdf0f5efca7704ed0f6ab8f6defe310ba6bfd019503e8e05d3a7fc8f8a85fc366",
      "blockNumber": 49781,
      "transactionIndex": 0,
      "confirmations": null,
      "from": "0xE09C68e61998D9c81b14E4ee802BA7ADf6d74CdB",
      "gasPrice": {
        "_hex": "0x110c8f7d8de"
      },
      "gasLimit": {
        "_hex": "0x55f0"
      },
      "to": "0x2910543Af39abA0Cd09dBb2D50200b3E800A63D2",
      "value": {
        "_hex": "0x2386f26fc10000"
      },
      "nonce": 11,
      "data": "0x454e32413658483230",
      "r": "0x4bfc8ce1b8e0dbd47ac2d06b4ab844765913ef6293ab99582baf5de227aa79b7",
      "s": "0xf6ea3bd0b4a43e0fd24e92b274de814e24e2143fc378ebbd9c6e19a822ee1526",
      "v": 28,
      "creates": null,
      "raw": "0xf8750b860110c8f7d8de8255f0942910543af39aba0cd09dbb2d50200b3e800a63d2872386f26fc1000089454e324136584832301ca04bfc8ce1b8e0dbd47ac2d06b4ab844765913ef6293ab99582baf5de227aa79b7a0f6ea3bd0b4a43e0fd24e92b274de814e24e2143fc378ebbd9c6e19a822ee1526",
      "networkId": 0,
      "chainId": 0
    },
    {
      "hash": "0x694a06482d8e198535210cb6822ded6ad93efe7ab2fd18fc912839170762b7d7",
      "blockHash": "0xdf0f5efca7704ed0f6ab8f6defe310ba6bfd019503e8e05d3a7fc8f8a85fc366",
      "blockNumber": 49781,
      "transactionIndex": 1,
      "confirmations": null,
      "from": "0xC6Bf5B6558f2eE21F2E43d9fF9B5408A0Cb89413",
      "gasPrice": {
        "_hex": "0xdf41efbdc"
      },
      "gasLimit": {
        "_hex": "0x15f90"
      },
      "to": "0x33A3f479f6c3e7F91128348490D1f7E8D2A0FAb5",
      "value": {
        "_hex": "0x4563918244f40000"
      },
      "nonce": 3,
      "data": "0x",
      "r": "0x5d559e2e7a6d515497d2c0e7ec3aa623b5a2584910c616bdd0f89c6161d72329",
      "s": "0x7bcedf4d3991a8912f18740ed9679783c7608c2d8215a6d3190ee7ce8c6fa78f",
      "v": 28,
      "creates": null,
      "raw": "0xf86d03850df41efbdc83015f909433a3f479f6c3e7f91128348490d1f7e8d2a0fab5884563918244f40000801ca05d559e2e7a6d515497d2c0e7ec3aa623b5a2584910c616bdd0f89c6161d72329a07bcedf4d3991a8912f18740ed9679783c7608c2d8215a6d3190ee7ce8c6fa78f",
      "networkId": 0,
      "chainId": 0
    }
  ]
}