{
  "hash": "0xe1ecf628d09852940ebe37456e75a65f180e7b6cd1d8f76557517a64d5a8d49c",
  "parentHash": "0xf1314c11dc4ff62a4bf4ad1feccb2ccfdd64b8fcb72ef898c3101e2369d0fe76",
  "number": 55958,
  "timestamp": 1439079780,
  "nonce": "0x7620740c5adcbec0",
  "difficulty": 1616226097798,
  "gasLimit": {
    "_hex": "0x2fefd8"
  },
  "gasUsed": {
    "_hex": "0x546c"
  },
  "miner": "0xF2d2AfF1320476cb8C6b607199D23175cc595693",
  "extraData": "0x476574682f76312e302e312f77696e646f77732f676f312e342e32",
  "transactions": [
    {
      "hash": "0x4f32a169f757488ea360623009d684fb365ea5fdbb4e92f95e66c2bd355e7ccb",
      "blockHash": "0xe1ecf628d09852940ebe37456e75a65f180e7b6cd1d8f76557517a64d5a8d49c",
      "blockNumber": 55958,
      "transactionIndex": 0,
      "confirmations": null,
      "from": "0x2dd325FDfFB97B19995284aFA5abDB574a1Df16a",
      "gasPrice": {
        "_hex": "0xd6673ca24"
      },
      "gasLimit": {
        "_hex": "0x15f90"
      },
      "to": "0x2910543Af39abA0Cd09dBb2D50200b3E800A63D2",
      "value": {
        "_hex": "0x2b5e3af16b1880000"
      },
      "nonce": 4,
      "data": "0x454e32345444484547",
      "r": "0x4534d241618981bc4de7dc6e0f8bf6d0527073e74feb22605eade45225961198",
      "s": "0x68f23f38599d9a8110326efb768baab84df686824f73bd6f93519ced70958a46",
      "v": 28,
      "creates": null,
      "raw": "0xf87704850d6673ca2483015f90942910543af39aba0cd09dbb2d50200b3e800a63d28902b5e3af16b188000089454e323454444845471ca04534d241618981bc4de7dc6e0f8bf6d0527073e74feb22605eade45225961198a068f23f38599d9a8110326efb768baab84df686824f73bd6f93519ced70958a46",
      "networkId": 0,
      "chainId": 0
    }
  ]
}