{
  "hash": "0x5425226f49fb5c382fc54e0601b24809b16a181737dfd2935108f1a4d2a0f71d",
  "parentHash": "0xb1e011949a22e1bc0b6ee165f5388256178e67f14aebbbe6e0ad08e0e681f28b",
  "number": 56573,
  "timestamp": 1439089253,
  "nonce": "0xa46def0f8e44f02d",
  "difficulty": 1666594411576,
  "gasLimit": {
    "_hex": "0x2fefd8"
  },
  "gasUsed": {
    "_hex": "0x5208"
  },
  "miner": "0xbb7B8287f3F0a933474a79eAe42CBCa977791171",
  "extraData": "0x476574682f4c5649562f76312e302e312f6c696e75782f676f312e342e32",
  "transactions": [
    {
      "hash": "0x1c6b536ba70479681abbd8352a0711d58d000556b2a73c369a1d6287fd4eb402",
      "blockHash": "0x5425226f49fb5c382fc54e0601b24809b16a181737dfd2935108f1a4d2a0f71d",
      "blockNumber": 56573,
      "transactionIndex": 0,
      "confirmations": null,
      "from": "0xD2581A55ce23aB10D8AD8c44378F59079BD6F658",
      "gasPrice": {
        "_hex": "0xda9b7c57f"
      },
      "gasLimit": {
        "_hex": "0x15f90"
      },
      "to": "0x3f4e6ef4c172d29A5bfc4CC6073A6602eca6c2EB",
      "value": {
        "_hex": "0xb80b16f084e32c0000"
      },
      "nonce": 7,
      "data": "0x",
      "r": "0x45ee1a6529d1d46ed3a871de3e2f0bbd0537205d2f23076978186268ddd75c9c",
      "s": "0x7a5e633b787751994552b84ea91741dd38732e00e8cf4f2894ddbe3510d55d3e",
      "v": 27,
      "creates": null,
      "raw": "0xf86e07850da9b7c57f83015f90943f4e6ef4c172d29a5bfc4cc6073a6602eca6c2eb89b80b16f084e32c0000801ba045ee1a6529d1d46ed3a871de3e2f0bbd0537205d2f23076978186268ddd75c9ca07a5e633b787751994552b84ea91741dd38732e00e8cf4f2894ddbe3510d55d3e",
      "networkId": 0,
      "chainId": 0
    }
  ]
}