{
  "hash": "0x195577a12201faee53cc46090f33dd803a6a25ac25a9e9f1b5bbdb659a44610f",
  "parentHash": "0x7a078ed37bbf0754f604cc2c4722b773138c7166a3d1480354e1782563aaedfd",
  "number": 52470,
  "timestamp": 1439022025,
  "nonce": "0xa5a91d67edd2f2e9",
  "difficulty": 1571749530587,
  "gasLimit": {
    "_hex": "0x142736"
  },
  "gasUsed": {
    "_hex": "0x5208"
  },
  "miner": "0x9746c7e1ef2bd21FF3997fa467593a89cb852BD0",
  "extraData": "0x476574682f76312e302e312f77696e646f77732f676f312e342e32",
  "transactions": [
    {
      "hash": "0x60c8bd9d6f7285214d6257d6c97ee0790876d15e255eacc21432f538ce43f141",
      "blockHash": "0x195577a12201faee53cc46090f33dd803a6a25ac25a9e9f1b5bbdb659a44610f",
      "blockNumber": 52470,
      "transactionIndex": 0,
      "confirmations": null,
      "from": "0x1908dA5B6FA3132dEc867Ec6A74DdB252292107D",
      "gasPrice": {
        "_hex": "0x746a528800"
      },
      "gasLimit": {
        "_hex": "0x5b04"
      },
      "to": "0x3234d29E2390E0Ac637B3ad0ACA3dF88aC82dC5d",
      "value": {
        "_hex": "0x4563918244f40000"
      },
      "nonce": 1,
      "data": "0x",
      "r": "0x62b48d091e333bf3c14e2a9fc05e51ab2d3aee405cf95530fbfc632bc674ad4f",
      "s": "0x94884ddf0d2b8b9c44a2904807b5cc266b13b905868d7a4b8d240d956ab67f76",
      "v": 28,
      "creates": null,
      "raw": "0xf86c0185746a528800825b04943234d29e2390e0ac637b3ad0aca3df88ac82dc5d884563918244f40000801ca062b48d091e333bf3c14e2a9fc05e51ab2d3aee405cf95530fbfc632bc674ad4fa094884ddf0d2b8b9c44a2904807b5cc266b13b905868d7a4b8d240d956ab67f76",
      "networkId": 0,
      "chainId": 0
    }
  ]
}