{
  "hash": "0x28c63bf0c51235dd79cac1da6f84457ecb9795355d5d38b10fbb9be8eaa1e02d",
  "parentHash": "0x5ec8c1f7ac36845bfcd3fbd3b3ea9954e5c3e5b7d800034e490640ad80d51df1",
  "number": 111260,
  "timestamp": 1439987334,
  "nonce": "0x6c6ef012957e6bef",
  "difficulty": 4398721493718,
  "gasLimit": {
    "_hex": "0x2fefd8"
  },
  "gasUsed": {
    "_hex": "0x5208"
  },
  "miner": "0x7E6930B63D03e88F5928C5cd6ee3FCee4D714F7F",
  "extraData": "0x",
  "transactions": [
    {
      "hash": "0x30f73df0ac105f5f74812bdcc1932ff5a8a538de8f4b8b35835d6508c2c2c8b8",
      "blockHash": "0x28c63bf0c51235dd79cac1da6f84457ecb9795355d5d38b10fbb9be8eaa1e02d",
      "blockNumber": 111260,
      "transactionIndex": 0,
      "confirmations": null,
      "from": "0x007f7f58D3eb5b7510A301eCC749FC1fCDDBE14D",
      "gasPrice": {
        "_hex": "0xd382b0b9c"
      },
      "gasLimit": {
        "_hex": "0x15f90"
      },
      "to": "0xb1abce2918E21ddb93AA452731a12672A3d9F75a",
      "value": {
        "_hex": "0x4563918244f40000"
      },
      "nonce": 307,
      "data": "0x",
      "r": "0x9c2a4c5cffef7ff5a71b129067268dab341dedc2a111a1b6fa6b423b9bcf4902",
      "s": "0x2e324246bedd7a60ebc6ec8e5327235168c5650ffac159829819df9eaf7a4f80",
      "v": 27,
      "creates": null,
      "raw": "0xf86f820133850d382b0b9c83015f9094b1abce2918e21ddb93aa452731a12672a3d9f75a884563918244f40000801ba09c2a4c5cffef7ff5a71b129067268dab341dedc2a111a1b6fa6b423b9bcf4902a02e324246bedd7a60ebc6ec8e5327235168c5650ffac159829819df9eaf7a4f80",
      "networkId": 0,
      "chainId": 0
    }
  ]
}