{
  "hash": "0xf4c85e746892e149999c6c20bc6f6a94598cc4b3f55e314ab8cb4e2f99432576",
  "parentHash": "0xa6c6a6353da875270de17abf392b22311d56cc5989c1873a246343ada0307149",
  "number": 114083,
  "timestamp": 1440034617,
  "nonce": "0x9ef2f71d12e80ec5",
  "difficulty": 4446902875653,
  "gasLimit": {
    "_hex": "0x2fefd8"
  },
  "gasUsed": {
    "_hex": "0x5208"
  },
  "miner": "0xe6A7a1d47ff21B6321162AEA7C6CB457D5476Bca",
  "extraData": "0x476574682f76312e302e312d38326566323666362f6c696e75782f676f312e34",
  "transactions": [
    {
      "hash": "0xc50ce34b0c446f20430eeac399cfb8431d736d027eef1a586777a020d054b745",
      "blockHash": "0xf4c85e746892e149999c6c20bc6f6a94598cc4b3f55e314ab8cb4e2f99432576",
      "blockNumber": 114083,
      "transactionIndex": 0,
      "confirmations": null,
      "from": "0x32Be343B94f860124dC4fEe278FDCBD38C102D88",
      "gasPrice": {
        "_hex": "0xd03872d70"
      },
      "gasLimit": {
        "_hex": "0x5208"
      },
      "to": "0x4C332121711c53560B6e6F11dd707E9226DCF142",
      "value": {
        "_hex": "0x56c5579f722140000"
      },
      "nonce": 1379,
      "data": "0x",
      "r": "0xef820fcb5f8118792d119c5fc53f63022d6026e433bf69dd7ea7a58f99f34ed0",
      "s": "0x1c0eef951b7934d03d46c57f585d72bef8e178b4fbb4ac4729fd0e59be241881",
      "v": 28,
      "creates": null,
      "raw": "0xf86f820563850d03872d70825208944c332121711c53560b6e6f11dd707e9226dcf14289056c5579f722140000801ca0ef820fcb5f8118792d119c5fc53f63022d6026e433bf69dd7ea7a58f99f34ed0a01c0eef951b7934d03d46c57f585d72bef8e178b4fbb4ac4729fd0e59be241881",
      "networkId": 0,
      "chainId": 0
    }
  ]
}