{
  "hash": "0x3e4e878fef18f5b14cef22fbbd50bfcc5a0a20e765e79ca3beb036834c6cf933",
  "parentHash": "0x34f5cf9fbe708251e2a186af8f6858d303dcb2b51c44ab2834fc5346b12586ee",
  "number": 60762,
  "timestamp": 1439161212,
  "nonce": "0x4f77db2bae9cb49e",
  "difficulty": 1727895162415,
  "gasLimit": {
    "_hex": "0x2fefd8"
  },
  "gasUsed": {
    "_hex": "0xa410"
  },
  "miner": "0x8B454d830feF179e66206840F8F3D1d83bC32b17",
  "extraData": "0x476574682f76312e302e312f77696e646f77732f676f312e342e32",
  "transactions": [
    {
      "hash": "0xf5d431782489d2bb3ccacffaf8361d30c278801220838f4d634b28e81266ede6",
      "blockHash": "0x3e4e878fef18f5b14cef22fbbd50bfcc5a0a20e765e79ca3beb036834c6cf933",
      "blockNumber": 60762,
      "transactionIndex": 0,
      "confirmations": null,
      "from": "0x3Ad06149b21C55Ff867cc3fb9740D2BCc7101231",
      "gasPrice": {
        "_hex": "0xd88759803"
      },
      "gasLimit": {
        "_hex": "0x15f90"
      },
      "to": "0xC624b0Cd3307f6CFFC473f5019FA380E6811ee58",
      "value": {
        "_hex": "0xde0b6b3a7640000"
      },
      "nonce": 17,
      "data": "0x",
      "r": "0xe9ca9124ba44ae043817685462b1c75d266b8fdb5af73929f7b838d1d4f6495e",
      "s": "0x458842a83ecdea3bbc254dc8d606ecbdb7da993168c3927de6f4249fb6be9c31",
      "v": 27,
      "creates": null,
      "raw": "0xf86d11850d8875980383015f9094c624b0cd3307f6cffc473f5019fa380e6811ee58880de0b6b3a7640000801ba0e9ca9124ba44ae043817685462b1c75d266b8fdb5af73929f7b838d1d4f6495ea0458842a83ecdea3bbc254dc8d606ecbdb7da993168c3927de6f4249fb6be9c31",
      "networkId": 0,
      "chainId": 0
    },
    {
      "hash": "0x820211aa7a8530661fcdabf5e06ea1df4a63c2c2257f5345ef234088fcff219e",
      "blockHash": "0x3e4e878fef18f5b14cef22fbbd50bfcc5a0a20e765e79ca3beb036834c6cf933",
      "blockNumber": 60762,
      "transactionIndex": 1,
      "confirmations": null,
      "from": "0x32Be343B94f860124dC4fEe278FDCBD38C102D88",
      "gasPrice": {
        "_hex": "0xcc453ca5b"
      },
      "gasLimit": {
        "_hex": "0x5208"
      },
      "to": "0xb794F5eA0ba39494cE839613fffBA74279579268",
      "value": {
        "_hex": "0xa968163f0a57b000000"
      },
      "nonce": 126,
      "data": "0x",
      "r": "0x7572a1e67c2b5974bdf97b0f66ba8cabcda5b0be02ffba4a67f296ecfb692b04",
      "s": "0x1b2ac015e6e41d9bde4e10d1a05e1cfba23ae7206fcef119b5d9b00b3a3b5b8a",
      "v": 27,
      "creates": null,
      "raw": "0xf86e7e850cc453ca5b82520894b794f5ea0ba39494ce839613fffba742795792688a0a968163f0a57b000000801ba07572a1e67c2b5974bdf97b0f66ba8cabcda5b0be02ffba4a67f296ecfb692b04a01b2ac015e6e41d9bde4e10d1a05e1cfba23ae7206fcef119b5d9b00b3a3b5b8a",
      "networkId": 0,
      "chainId": 0
    }
  ]
}