{
  "hash": "0x31be2f2ca203c0ddddc01dbb59c324f946d53d25590ff260964845ee44d3581a",
  "parentHash": "0xa4551345a7d436f41c618acc1a38a77b1e18673b6cdc82cc5662683df6bd7de8",
  "number": 57534,
  "timestamp": 1439105212,
  "nonce": "0x99c9ce219acbe13a",
  "difficulty": 1730249069326,
  "gasLimit": {
    "_hex": "0x2fefd8"
  },
  "gasUsed": {
    "_hex": "0xa674"
  },
  "miner": "0xa50ec0D39fa913E62f1Bae7074E6F36caA71855b",
  "extraData": "0x",
  "transactions": [
    {
      "hash": "0xb180562ccd81ca0006dd2de195f7183ec234bc22f235551797e4f7eecd965d63",
      "blockHash": "0x31be2f2ca203c0ddddc01dbb59c324f946d53d25590ff260964845ee44d3581a",
      "blockNumber": 57534,
      "transactionIndex": 0,
      "confirmations": null,
      "from": "0x32Be343B94f860124dC4fEe278FDCBD38C102D88",
      "gasPrice": {
        "_hex": "0xde2b03813"
      },
      "gasLimit": {
        "_hex": "0x5208"
      },
      "to": "0x2da617695009cc57d26Ad490B32a5DFBEB934e5E",
      "value": {
        "_hex": "0x11478943c184c700000"
      },
      "nonce": 89,
      "data": "0x",
      "r": "0xc4e015ea044f1692ebed10a3d48986df8fc5bc8e9a3afbe357bb7548476d7ad4",
      "s": "0x2f2521c30ab5d2bd15486fead1184506ee8b2c6864bf7adda2e42cee23d804bd",
      "v": 28,
      "creates": null,
      "raw": "0xf86e59850de2b03813825208942da617695009cc57d26ad490b32a5dfbeb934e5e8a011478943c184c700000801ca0c4e015ea044f1692ebed10a3d48986df8fc5bc8e9a3afbe357bb7548476d7ad4a02f2521c30ab5d2bd15486fead1184506ee8b2c6864bf7adda2e42cee23d804bd",
      "networkId": 0,
      "chainId": 0
    },
    {
      "hash": "0x3fc76284ee465d0fa476ecbf75d80e5498950c56be3ef3f57480dc919d918b00",
      "blockHash": "0x31be2f2ca203c0ddddc01dbb59c324f946d53d25590ff260964845ee44d3581a",
      "blockNumber": 57534,
      "transactionIndex": 1,
      "confirmations": null,
      "from": "0xD5377B8cbCca498A7fc78984898C27A98F982503",
      "gasPrice": {
        "_hex": "0xd4dfa5aef"
      },
      "gasLimit": {
        "_hex": "0x15f90"
      },
      "to": "0xf8E0CA3Ed80bd541b94BEdCf259e8CF2141A9523",
      "value": {
        "_hex": "0x53444835ec580000"
      },
      "nonce": 0,
      "data": "0x454e433933464b3330",
      "r": "0xc01a0d2a258cd4f7966a87c73a314a3b68ee7bb6000f94525a2cbe8ef8dbd195",
      "s": "0x5372444d242c17b474e53a4658e62606ff1bb636e692c3787e8c28b8f6d5a292",
      "v": 28,
      "creates": null,
      "raw": "0xf87680850d4dfa5aef83015f9094f8e0ca3ed80bd541b94bedcf259e8cf2141a95238853444835ec58000089454e433933464b33301ca0c01a0d2a258cd4f7966a87c73a314a3b68ee7bb6000f94525a2cbe8ef8dbd195a05372444d242c17b474e53a4658e62606ff1bb636e692c3787e8c28b8f6d5a292",
      "networkId": 0,
      "chainId": 0
    }
  ]
}