{
  "hash": "0x2735b3ac982cbd0beaee8b496e437cee5d6ade0a6d987d2048f60773fb425b0a",
  "parentHash": "0x74302f8ba57c97492e26cddfa84bac8b0c668205f1194a88202c165872cfd513",
  "number": 47871,
  "timestamp": 1438947722,
  "nonce": "0x03c1905c4a9de521",
  "difficulty": 1456559912175,
  "gasLimit": {
    "_hex": "0xfe99"
  },
  "gasUsed": {
    "_hex": "0x546c"
  },
  "miner": "0x5B7970CD176308e0Ffd0358e8B14aaF4A19BA544",
  "extraData": "0x476574682f76312e302e302f77696e646f77732f676f312e342e32",
  "transactions": [
    {
      "hash": "0xecc8b99ad31237530b77edf4ffb1c59851bff1a218984418f54ac10231025458",
      "blockHash": "0x2735b3ac982cbd0beaee8b496e437cee5d6ade0a6d987d2048f60773fb425b0a",
      "blockNumber": 47871,
      "transactionIndex": 0,
      "confirmations": null,
      "from": "0x7aBb10F5bd9BC33B8Ec1A82d64b55b6B18777541",
      "gasPrice": {
        "_hex": "0xdf8475800"
      },
      "gasLimit": {
        "_hex": "0x55f0"
      },
      "to": "0x2910543Af39abA0Cd09dBb2D50200b3E800A63D2",
      "value": {
        "_hex": "0x875cd60e53b6640000"
      },
      "nonce": 4,
      "data": "0x454e34573751343547",
      "r": "0x334f18ba6a02e87816bd3e4f9c2446fda422de5cd264094a8131c8ce74e56ae2",
      "s": "0x5dd2287863223c2abb5e23b59911c066b3929fc218561c39a9e2abaee3a9d1a2",
      "v": 28,
      "creates": null,
      "raw": "0xf87604850df84758008255f0942910543af39aba0cd09dbb2d50200b3e800a63d289875cd60e53b664000089454e345737513435471ca0334f18ba6a02e87816bd3e4f9c2446fda422de5cd264094a8131c8ce74e56ae2a05dd2287863223c2abb5e23b59911c066b3929fc218561c39a9e2abaee3a9d1a2",
      "networkId": 0,
      "chainId": 0
    }
  ]
}