{
  "hash": "0x95172d8ca4f9895ea7f76fab9e38be76704f93803996cfff2593a3af68dadb96",
  "parentHash": "0xa9f5c31a0415d472a7f316772cc5db0eafa246693f3ab8f2514cbc5724c6498b",
  "number": 75249,
  "timestamp": 1439400119,
  "nonce": "0x062f4bf450bda75e",
  "difficulty": 2194380312122,
  "gasLimit": {
    "_hex": "0x2fefd8"
  },
  "gasUsed": {
    "_hex": "0x1b497"
  },
  "miner": "0xe6A7a1d47ff21B6321162AEA7C6CB457D5476Bca",
  "extraData": "0x476574682f76312e302e312d38326566323666362f6c696e75782f676f312e34",
  "transactions": [
    {
      "hash": "0x45c24c144a1c6f1a7a71275c001d83349a9d42bce04637a9f2ec61ffb3e3f582",
      "blockHash": "0x95172d8ca4f9895ea7f76fab9e38be76704f93803996cfff2593a3af68dadb96",
      "blockNumber": 75249,
      "transactionIndex": 0,
      "confirmations": null,
      "from": "0x326Be8F71bFb0379f989aAB1CC1fE37f0a771f60",
      "gasPrice": {
        "_hex": "0x10f0960874e"
      },
      "gasLimit": {
        "_hex": "0x493e0"
      },
      "to": "0xD79B4C6791784184e2755B2fC1659eaaB0f80456",
      "value": {
        "_hex": "0xde0b6b3a7640000"
      },
      "nonce": 87,
      "data": "0x8d2161860000000000000000000000000000000000000000000000000000000000000033aec39d1addd7382d4744bd6a85a2633615a30f62511587b8fb9de71b8ac0ade7",
      "r": "0x607bd033b11bb7a497485dee20fc18a463f562937b0af0f3e4cc1c008c2af0b5",
      "s": "0x6bf6c054a099c78c031b3cbe20b98126213ded8672f167c88ce335cf738c32f2",
      "v": 28,
      "creates": null,
      "raw": "0xf8b35786010f0960874e830493e094d79b4c6791784184e2755b2fc1659eaab0f80456880de0b6b3a7640000b8448d2161860000000000000000000000000000000000000000000000000000000000000033aec39d1addd7382d4744bd6a85a2633615a30f62511587b8fb9de71b8ac0ade71ca0607bd033b11bb7a497485dee20fc18a463f562937b0af0f3e4cc1c008c2af0b5a06bf6c054a099c78c031b3cbe20b98126213ded8672f167c88ce335cf738c32f2",
      "networkId": 0,
      "chainId": 0
    }
  ]
}