{
  "hash": "0xc7e8383b97a4a7178d38f276a6e13d78342a71bfaa9dabc7188e2541d27a0a16",
  "parentHash": "0x4c3558da904d66e4c53903e3b8697a607bd35262a77b76821f40c4d223eb2715",
  "number": 65263,
  "timestamp": 1439234006,
  "nonce": "0xc70bd29219d96e1f",
  "difficulty": 1940734802470,
  "gasLimit": {
    "_hex": "0x2fefd8"
  },
  "gasUsed": {
    "_hex": "0x17cd8"
  },
  "miner": "0x123843545FB525C8E134c9A5F15ADA6865cc3848",
  "extraData": "0x476574682f76312e302e312f77696e646f77732f676f312e342e32",
  "transactions": [
    {
      "hash": "0x564876369516e67136e993d02583ca4e42c737dee89f328924951bf9f193657d",
      "blockHash": "0xc7e8383b97a4a7178d38f276a6e13d78342a71bfaa9dabc7188e2541d27a0a16",
      "blockNumber": 65263,
      "transactionIndex": 0,
      "confirmations": null,
      "from": "0xF073e771325d740CA7623A25884507eD94e9eB16",
      "gasPrice": {
        "_hex": "0xba43b7400"
      },
      "gasLimit": {
        "_hex": "0x15f90"
      },
      "to": "0x793AE8C1b1a160BFc07BFB0d04F85eab1A71F4f2",
      "value": {
        "_hex": "0x0"
      },
      "nonce": 0,
      "data": "0x3ba15036",
      "r": "0x3875f45209117305c87c0e3d87426bb3423c7017a12d6a90c53dd1fd437200f3",
      "s": "0x26ed2f15648cb634cd915adb62f332bd4b4c9505b7ecdc77e764afcb4b62a7c3",
      "v": 27,
      "creates": null,
      "raw": "0xf86980850ba43b740083015f9094793ae8c1b1a160bfc07bfb0d04f85eab1a71f4f280843ba150361ba03875f45209117305c87c0e3d87426bb3423c7017a12d6a90c53dd1fd437200f3a026ed2f15648cb634cd915adb62f332bd4b4c9505b7ecdc77e764afcb4b62a7c3",
      "networkId": 0,
      "chainId": 0
    },
    {
      "hash": "0x7972f6529c6a0385e7d59d1fd57f446e9d9d21f322df1870ac035dae53b719e7",
      "blockHash": "0xc7e8383b97a4a7178d38f276a6e13d78342a71bfaa9dabc7188e2541d27a0a16",
      "blockNumber": 65263,
      "transactionIndex": 1,
      "confirmations": null,
      "from": "0xC721D35B52b0c443F330771c90E78672191E4025",
      "gasPrice": {
        "_hex": "0xba43b7400"
      },
      "gasLimit": {
        "_hex": "0x15f90"
      },
      "to": "0x793AE8C1b1a160BFc07BFB0d04F85eab1A71F4f2",
      "value": {
        "_hex": "0x0"
      },
      "nonce": 0,
      "data": "0x3ba15036",
      "r": "0x8987d04d8515432c2690313817e5d56d088b396dd3a571c1753a21d5740a5117",
      "s": "0x69ad5cf4390b5d6160d3dabb3e6eb588f375269ce625355969079e8274376d4c",
      "v": 28,
      "creates": null,
      "raw": "0xf86980850ba43b740083015f9094793ae8c1b1a160bfc07bfb0d04f85eab1a71f4f280843ba150361ca08987d04d8515432c2690313817e5d56d088b396dd3a571c1753a21d5740a5117a069ad5cf4390b5d6160d3dabb3e6eb588f375269ce625355969079e8274376d4c",
      "networkId": 0,
      "chainId": 0
    }
  ]
}