{
  "hash": "0x6e4c88dcc4d9045b12b3a6f591981f8a1ba2c4fb2d398f2eccd73399b5201cc9",
  "parentHash": "0x47b4950d7cacd27507dabf37ad4c42f3af8bcdf1b9571763ee2a225ef41cc432",
  "number": 79787,
  "timestamp": 1439475082,
  "nonce": "0x27fac5686314d7aa",
  "difficulty": 2352953205635,
  "gasLimit": {
    "_hex": "0x2fefd8"
  },
  "gasUsed": {
    "_hex": "0x7a13"
  },
  "miner": "0x55bAf64fc9eAccFFd7Cc643BB61142E1C6ac093e",
  "extraData": "0x",
  "transactions": [
    {
      "hash": "0x0840108b1d5bf4f954c70fa2641928c94904bf5b3905c28bd8a1fd10578ea6b2",
      "blockHash": "0x6e4c88dcc4d9045b12b3a6f591981f8a1ba2c4fb2d398f2eccd73399b5201cc9",
      "blockNumber": 79787,
      "transactionIndex": 0,
      "confirmations": null,
      "from": "0x87C5B5874A18B4306DF8a752a6C8cc3E82daFc19",
      "gasPrice": {
        "_hex": "0x112a605fffe"
      },
      "gasLimit": {
        "_hex": "0x493e0"
      },
      "to": "0xC4c51de1AbF5D60DBd329eC0F999Fd8f021ae9fC",
      "value": {
        "_hex": "0x2c3c465ca58ec0000"
      },
      "nonce": 102,
      "data": "0x8d21618600000000000000000000000000000000000000000000000000000000000000808d5adaad541502933bfca57b79fdcf7b21a9ea7dbcf2e9321d253f5db02ac8f3",
      "r": "0xf9ce39277780e372a73c43c159b7b67b532deacdea96c6a4d168a59b85d2b9d1",
      "s": "0x3002f4e64bf8f13739d15dbb68ae311d9704d12ccbbd378294869b9fb163ce40",
      "v": 27,
      "creates": null,
      "raw": "0xf8b466860112a605fffe830493e094c4c51de1abf5d60dbd329ec0f999fd8f021ae9fc8902c3c465ca58ec0000b8448d21618600000000000000000000000000000000000000000000000000000000000000808d5adaad541502933bfca57b79fdcf7b21a9ea7dbcf2e9321d253f5db02ac8f31ba0f9ce39277780e372a73c43c159b7b67b532deacdea96c6a4d168a59b85d2b9d1a03002f4e64bf8f13739d15dbb68ae311d9704d12ccbbd378294869b9fb163ce40",
      "networkId": 0,
      "chainId": 0
    }
  ]
}