{
  "hash": "0xd0d3e3870ed0c23f13b623142f70c199f21084a4c0220b122e278e3855179a47",
  "parentHash": "0xcfc5a12442f3b07f11648665386ba67d5f73556d6ee60866c46e8ba93abc853f",
  "number": 105808,
  "timestamp": 1439893782,
  "nonce": "0x4a361009e95ee859",
  "difficulty": 4436103312729,
  "gasLimit": {
    "_hex": "0x2fefd8"
  },
  "gasUsed": {
    "_hex": "0x5208"
  },
  "miner": "0xaB638742EBe3A78F2a85028350e1AADB86C0a6ed",
  "extraData": "0x",
  "transactions": [
    {
      "hash": "0xbda801c4a957bcdb1afd8c5e67d056f8c7033404b20a27ac45d8937b40754168",
      "blockHash": "0xd0d3e3870ed0c23f13b623142f70c199f21084a4c0220b122e278e3855179a47",
      "blockNumber": 105808,
      "transactionIndex": 0,
      "confirmations": null,
      "from": "0xf2cC0eEAAAeD313542CB262B0B8c3972425143f0",
      "gasPrice": {
        "_hex": "0xcd6f37e2c"
      },
      "gasLimit": {
        "_hex": "0x5208"
      },
      "to": "0x32Be343B94f860124dC4fEe278FDCBD38C102D88",
      "value": {
        "_hex": "0x455f74426a064800"
      },
      "nonce": 17,
      "data": "0x",
      "r": "0x6833ad654b9727b65a46361c59293b569ddc351e3f3b39e28bc81ffe417f929f",
      "s": "0x7c06cd8015dec9b0e6b754e4961a9e810fb96ad401bbee203bdd3e0f1c1778bc",
      "v": 27,
      "creates": null,
      "raw": "0xf86c11850cd6f37e2c8252089432be343b94f860124dc4fee278fdcbd38c102d8888455f74426a064800801ba06833ad654b9727b65a46361c59293b569ddc351e3f3b39e28bc81ffe417f929fa07c06cd8015dec9b0e6b754e4961a9e810fb96ad401bbee203bdd3e0f1c1778bc",
      "networkId": 0,
      "chainId": 0
    }
  ]
}