{
  "hash": "0x5e3e3fe1e0ada663782cd27d9c60f8b2f5768bd5ccba4859bbbf5127664428aa",
  "parentHash": "0xd87bb00041be3918ca21667d9e14593ed37059c434b933a69b7d65080e1ed4ca",
  "number": 85168,
  "timestamp": 1439559469,
  "nonce": "0xa78e1b571cd05daf",
  "difficulty": 2742413475267,
  "gasLimit": {
    "_hex": "0x2fefd8"
  },
  "gasUsed": {
    "_hex": "0x5208"
  },
  "miner": "0xe6A7a1d47ff21B6321162AEA7C6CB457D5476Bca",
  "extraData": "0x476574682f76312e302e312d38326566323666362f6c696e75782f676f312e34",
  "transactions": [
    {
      "hash": "0xbb66ec9aeeb5deef886abf3922f7eb95ca9e045cb3b08c52247b3648c788091d",
      "blockHash": "0x5e3e3fe1e0ada663782cd27d9c60f8b2f5768bd5ccba4859bbbf5127664428aa",
      "blockNumber": 85168,
      "transactionIndex": 0,
      "confirmations": null,
      "from": "0x2C89f5FDcA3D155409b638B98A742E55eb4652B7",
      "gasPrice": {
        "_hex": "0x108652228e5"
      },
      "gasLimit": {
        "_hex": "0x15f90"
      },
      "to": "0x2aBAA2b360f586C7B4997E0532C4BD76bCFb20fF",
      "value": {
        "_hex": "0x1b1a06cb77b4d9c0000"
      },
      "nonce": 27,
      "data": "0x",
      "r": "0xf3a0cc792dbb7caf51dc36ab4aaa232a530c9bbce300e5cb28ea412c248e7fb3",
      "s": "0x514ebaf9f61a2f999793ecc805a7f5b67404bf5d74cb43da23cece4608897624",
      "v": 28,
      "creates": null,
      "raw": "0xf8701b860108652228e583015f90942abaa2b360f586c7b4997e0532c4bd76bcfb20ff8a01b1a06cb77b4d9c0000801ca0f3a0cc792dbb7caf51dc36ab4aaa232a530c9bbce300e5cb28ea412c248e7fb3a0514ebaf9f61a2f999793ecc805a7f5b67404bf5d74cb43da23cece4608897624",
      "networkId": 0,
      "chainId": 0
    }
  ]
}