{
  "hash": "0xa69b459eb51d43f3bf87b95bbfa267d3e239d25f1f93e649c1baa951811072e0",
  "parentHash": "0x8dfc5a4739a2712c67e41c068c08fbe028a3746b91c370b8b217585c95c53af6",
  "number": 94184,
  "timestamp": 1439703978,
  "nonce": "0x1e17e8aae3abe945",
  "difficulty": 3473171933467,
  "gasLimit": {
    "_hex": "0x2fefd8"
  },
  "gasUsed": {
    "_hex": "0x5208"
  },
  "miner": "0xe6A7a1d47ff21B6321162AEA7C6CB457D5476Bca",
  "extraData": "0x476574682f76312e302e312d38326566323666362f6c696e75782f676f312e34",
  "transactions": [
    {
      "hash": "0x5afd1557fd1b8992ca1d65b86a3068d9abcea440c06f98811cec61a2d4f630aa",
      "blockHash": "0xa69b459eb51d43f3bf87b95bbfa267d3e239d25f1f93e649c1baa951811072e0",
      "blockNumber": 94184,
      "transactionIndex": 0,
      "confirmations": null,
      "from": "0x1C89060f987C518fa079EC2c0a5EbFa30f5d20F7",
      "gasPrice": {
        "_hex": "0xd7d40ace3"
      },
      "gasLimit": {
        "_hex": "0x55f0"
      },
      "to": "0x0A87bCDa651fF8811d1E497138251Ac0c7654547",
      "value": {
        "_hex": "0x80b7128a85a81d80000"
      },
      "nonce": 1,
      "data": "0x",
      "r": "0x37d52c537b032171e9f348b99b12810d12356c12a7e84cad2b059bb6cb93ad52",
      "s": "0x7143cf4156014ce09644bdc89a692b1a8710e547a3bd37ac14035b077400cf9d",
      "v": 27,
      "creates": null,
      "raw": "0xf86e01850d7d40ace38255f0940a87bcda651ff8811d1e497138251ac0c76545478a080b7128a85a81d80000801ba037d52c537b032171e9f348b99b12810d12356c12a7e84cad2b059bb6cb93ad52a07143cf4156014ce09644bdc89a692b1a8710e547a3bd37ac14035b077400cf9d",
      "networkId": 0,
      "chainId": 0
    }
  ]
}