{
  "hash": "0xc16b85eba77be19e9136e9bcf4181f277c8b3f4bc19f550c03b25c367a76f619",
  "parentHash": "0x9e9b8d765ed06b26e55194e759404f5592cea5a5dccf438014b75542145b8a68",
  "number": 92697,
  "timestamp": 1439675799,
  "nonce": "0x3743a6ffaf508abe",
  "difficulty": 3585807978785,
  "gasLimit": {
    "_hex": "0x2fefd8"
  },
  "gasUsed": {
    "_hex": "0x14820"
  },
  "miner": "0x9D49F602b0fdb924Bd63DDE2Bd0907E4A07c63a7",
  "extraData": "0x476574682f76312e302e312f6c696e75782f676f312e342e32",
  "transactions": [
    {
      "hash": "0xcfe53ee1606e94bd74c68648d9c659b61d661bcdac8adf37eb7f67174448930a",
      "blockHash": "0xc16b85eba77be19e9136e9bcf4181f277c8b3f4bc19f550c03b25c367a76f619",
      "blockNumber": 92697,
      "transactionIndex": 0,
      "confirmations": null,
      "from": "0xc8ebccC5F5689Fa8659d83713341e5aD19349448",
      "gasPrice": {
        "_hex": "0xd24b4f842"
      },
      "gasLimit": {
        "_hex": "0x15f90"
      },
      "to": "0x0F87Fb507513e749081E34373c84E95e85b5c057",
      "value": {
        "_hex": "0x65f23b1648f80"
      },
      "nonce": 69,
      "data": "0x",
      "r": "0x240f27131469baab89639cf9afdbd704a3456a1ca4f6d4f2748e9a0598d68676",
      "s": "0x55057c0798a7a7d42e662db2136da465d7ca08a44a46edd71f68dc3700f47e25",
      "v": 27,
      "creates": null,
      "raw": "0xf86c45850d24b4f84283015f90940f87fb507513e749081e34373c84e95e85b5c05787065f23b1648f80801ba0240f27131469baab89639cf9afdbd704a3456a1ca4f6d4f2748e9a0598d68676a055057c0798a7a7d42e662db2136da465d7ca08a44a46edd71f68dc3700f47e25",
      "networkId": 0,
      "chainId": 0
    },
    {
      "hash": "0x1f45d4ee24466646a75bbe87ff3556200bd029f23cc26034100a6c9c08d94cb0",
      "blockHash": "0xc16b85eba77be19e9136e9bcf4181f277c8b3f4bc19f550c03b25c367a76f619",
      "blockNumber": 92697,
      "transactionIndex": 1,
      "confirmations": null,
      "from": "0x7fa165177F28D171bA7C17f765c1904344Ec64CB",
      "gasPrice": {
        "_hex": "0xd01417574"
      },
      "gasLimit": {
        "_hex": "0x5208"
      },
      "to": "0x32Be343B94f860124dC4fEe278FDCBD38C102D88",
      "value": {
        "_hex": "0x23795d27e154b6000"
      },
      "nonce": 18,
      "data": "0x",
      "r": "0x0f495caf7353198d8ec882c532c29171d09e3e50c6600b1de24a787050c09393",
      "s": "0x326b360be5b5ca8039a1f9c358e851414821b95375d641a64469d1e3bec789c9",
      "v": 27,
      "creates": null,
      "raw": "0xf86d12850d014175748252089432be343b94f860124dc4fee278fdcbd38c102d8889023795d27e154b6000801ba00f495caf7353198d8ec882c532c29171d09e3e50c6600b1de24a787050c09393a0326b360be5b5ca8039a1f9c358e851414821b95375d641a64469d1e3bec789c9",
      "networkId": 0,
      "chainId": 0
    },
    {
      "hash": "0x91f27a80170cce33c649007d9fb30831e8eae81a012de0554891d4ec75f26b7c",
      "blockHash": "0xc16b85eba77be19e9136e9bcf4181f277c8b3f4bc19f550c03b25c367a76f619",
      "blockNumber": 92697,
      "transactionIndex": 2,
      "confirmations": null,
      "from": "0x7a10A647313b28DC7fD0EB1197E6f0840B97d642",
      "gasPrice": {
        "_hex": "0xcf5f0f801"
      },
      "gasLimit": {
        "_hex": "0x30d40"
      },
      "to": "0x120A270bbC009644e35F0bB6ab13f95b8199c4ad",
      "value": {
        "_hex": "0x82aa31069a9cfc6c0"
      },
      "nonce": 0,
      "data": "0x",
      "r": "0xb9e051286b8199be387435e8ab386f4eb8e8a0eac440344cc4df8ff13e39dc59",
      "s": "0x31bd30a0c9aca9757573115cd26d051f375509efc155a1cf74427a60f0dab015",
      "v": 28,
      "creates": null,
      "raw": "0xf86e80850cf5f0f80183030d4094120a270bbc009644e35f0bb6ab13f95b8199c4ad89082aa31069a9cfc6c0801ca0b9e051286b8199be387435e8ab386f4eb8e8a0eac440344cc4df8ff13e39dc59a031bd30a0c9aca9757573115cd26d051f375509efc155a1cf74427a60f0dab015",
      "networkId": 0,
      "chainId": 0
    },
    {
      "hash": "0xa625b5f0af75b3548d28f1815f2850c59f3394d098a6463858a9ea2ded5c8581",
      "blockHash": "0xc16b85eba77be19e9136e9bcf4181f277c8b3f4bc19f550c03b25c367a76f619",
      "blockNumber": 92697,
      "transactionIndex": 3,
      "confirmations": null,
      "from": "0xf2Bde9e6008EAF68ae55A747B6eB839d95BF9DCB",
      "gasPrice": {
        "_hex": "0xcf5f0f801"
      },
      "gasLimit": {
        "_hex": "0x30d40"
      },
      "to": "0x120A270bbC009644e35F0bB6ab13f95b8199c4ad",
      "value": {
        "_hex": "0x18efa0bd4326d6f2c0"
      },
      "nonce": 0,
      "data": "0x",
      "r": "0x48a9538a2bb804f44d1dcf5fc6dda962b5a0678575c54737e67cf79cb1c89d45",
      "s": "0x0e757f04a4db90beda1b5bb3fd3631733a3b29a2f1260acbc1a2a993845343e3",
      "v": 27,
      "creates": null,
      "raw": "0xf86e80850cf5f0f80183030d4094120a270bbc009644e35f0bb6ab13f95b8199c4ad8918efa0bd4326d6f2c0801ba048a9538a2bb804f44d1dcf5fc6dda962b5a0678575c54737e67cf79cb1c89d45a00e757f04a4db90beda1b5bb3fd3631733a3b29a2f1260acbc1a2a993845343e3",
      "networkId": 0,
      "chainId": 0
    }
  ]
}