{
  "hash": "0x8a169d25a53f51af6e84efc9121006b2f2133562bb57a4fbaff5baf2750da291",
  "parentHash": "0x9ba1b2dd656d9d2d4145521cae2058d98f1aedffdf9472842af6a5e78b5cce34",
  "number": 61570,
  "timestamp": 1439174589,
  "nonce": "0x9a0bb85d06cec97a",
  "difficulty": 1736185543481,
  "gasLimit": {
    "_hex": "0x2fefd8"
  },
  "gasUsed": {
    "_hex": "0xa410"
  },
  "miner": "0xe997A23B159E2E2a5Ce72333262972374B15425c",
  "extraData": "0x",
  "transactions": [
    {
      "hash": "0xbcfa7c9af48a3c8f30237e1583f124a727991d1a669a199109ec320cff3e3f47",
      "blockHash": "0x8a169d25a53f51af6e84efc9121006b2f2133562bb57a4fbaff5baf2750da291",
      "blockNumber": 61570,
      "transactionIndex": 0,
      "confirmations": null,
      "from": "0x120A270bbC009644e35F0bB6ab13f95b8199c4ad",
      "gasPrice": {
        "_hex": "0xde1c51e17"
      },
      "gasLimit": {
        "_hex": "0x15f90"
      },
      "to": "0xc6d6401db95aD24CcD97bF8f623c4EC08c6a1c12",
      "value": {
        "_hex": "0x4563918244f40000"
      },
      "nonce": 76,
      "data": "0x",
      "r": "0x89b488cb0c76eb6ba8eec21d04fe936a07c5bcbd5f11a7c1e6b1119691320398",
      "s": "0x33a9576d78235aa3129cf503877c76686a1b6f4ac3bb7d5675a75197c33997cc",
      "v": 27,
      "creates": null,
      "raw": "0xf86d4c850de1c51e1783015f9094c6d6401db95ad24ccd97bf8f623c4ec08c6a1c12884563918244f40000801ba089b488cb0c76eb6ba8eec21d04fe936a07c5bcbd5f11a7c1e6b1119691320398a033a9576d78235aa3129cf503877c76686a1b6f4ac3bb7d5675a75197c33997cc",
      "networkId": 0,
      "chainId": 0
    },
    {
      "hash": "0x41706e6a75d778dee940ca2c3ec249a4aa35923e425e37885f22a8f77d3dc115",
      "blockHash": "0x8a169d25a53f51af6e84efc9121006b2f2133562bb57a4fbaff5baf2750da291",
      "blockNumber": 61570,
      "transactionIndex": 1,
      "confirmations": null,
      "from": "0xC25f24A505b8fEF751D8f4FCc397651001F7a160",
      "gasPrice": {
        "_hex": "0xcc23d2b1d"
      },
      "gasLimit": {
        "_hex": "0x5208"
      },
      "to": "0x32Be343B94f860124dC4fEe278FDCBD38C102D88",
      "value": {
        "_hex": "0x70abfcba380ddc00"
      },
      "nonce": 5,
      "data": "0x",
      "r": "0xa6d3fac45ae204d648e33af42e5af4e1ed5faa37bc22aa89952bb36d85d232b8",
      "s": "0x7794b3fb1b6b4af823366254e10fe3a7c2269737ecd5776746eea3c38af28ab8",
      "v": 27,
      "creates": null,
      "raw": "0xf86c05850cc23d2b1d8252089432be343b94f860124dc4fee278fdcbd38c102d888870abfcba380ddc00801ba0a6d3fac45ae204d648e33af42e5af4e1ed5faa37bc22aa89952bb36d85d232b8a07794b3fb1b6b4af823366254e10fe3a7c2269737ecd5776746eea3c38af28ab8",
      "networkId": 0,
      "chainId": 0
    }
  ]
}