{
  "hash": "0x116659e5855705e9bac3a1913280af2c77c407600bbacddac34ff142622197a5",
  "parentHash": "0xd59714a99582fcfdc212b61892c62a9bafc850b0eac4395033b9bf05eba902fa",
  "number": 105711,
  "timestamp": 1439892308,
  "nonce": "0x900e663046a11184",
  "difficulty": 4395189193485,
  "gasLimit": {
    "_hex": "0x2fefd8"
  },
  "gasUsed": {
    "_hex": "0xf618"
  },
  "miner": "0xa50ec0D39fa913E62f1Bae7074E6F36caA71855b",
  "extraData": "0xd783010001844765746887676f312e342e32856c696e7578",
  "transactions": [
    {
      "hash": "0xe0ef6b9ebcd77aa7ca3ee3622247b77d6aa94ce9de57b31db7d838d4540d3886",
      "blockHash": "0x116659e5855705e9bac3a1913280af2c77c407600bbacddac34ff142622197a5",
      "blockNumber": 105711,
      "transactionIndex": 0,
      "confirmations": null,
      "from": "0xc93a69dFC0fb3E867D9207599f7fe87d51619635",
      "gasPrice": {
        "_hex": "0xba43b7400"
      },
      "gasLimit": {
        "_hex": "0x5208"
      },
      "to": "0xC47Aaa860008be6f65B58c6C6E02a84e666EfE31",
      "value": {
        "_hex": "0x2b5dff41e84846000"
      },
      "nonce": 13,
      "data": "0x",
      "r": "0x273c4dee181af113b2f4db1c6d045c02f52c1e58f59c79c71ba259ca087f4f1f",
      "s": "0x69012b70d4005418521598826073003b2ac950b4eb2f28d7285f60c54e937143",
      "v": 27,
      "creates": null,
      "raw": "0xf86d0d850ba43b740082520894c47aaa860008be6f65b58c6c6e02a84e666efe318902b5dff41e84846000801ba0273c4dee181af113b2f4db1c6d045c02f52c1e58f59c79c71ba259ca087f4f1fa069012b70d4005418521598826073003b2ac950b4eb2f28d7285f60c54e937143",
      "networkId": 0,
      "chainId": 0
    },
    {
      "hash": "0xf19da37301023deb4ddf69cab9eb67b67649731b89e4f7b02a80ab6e52a41285",
      "blockHash": "0x116659e5855705e9bac3a1913280af2c77c407600bbacddac34ff142622197a5",
      "blockNumber": 105711,
      "transactionIndex": 1,
      "confirmations": null,
      "from": "0x676f38C13B01f0489cc4aC94F883fdCDE708C0de",
      "gasPrice": {
        "_hex": "0xba43b7400"
      },
      "gasLimit": {
        "_hex": "0x5208"
      },
      "to": "0xC47Aaa860008be6f65B58c6C6E02a84e666EfE31",
      "value": {
        "_hex": "0xf99ed05b27375a0"
      },
      "nonce": 0,
      "data": "0x",
      "r": "0x2b442a7be1170132be32271fa79ab6a168b90dd2123823510af67d49d68d2724",
      "s": "0x23ce64d4bfa3491639c98b5819878afc53f7af3f60fd1b4816ba573e59654253",
      "v": 28,
      "creates": null,
      "raw": "0xf86c80850ba43b740082520894c47aaa860008be6f65b58c6c6e02a84e666efe31880f99ed05b27375a0801ca02b442a7be1170132be32271fa79ab6a168b90dd2123823510af67d49d68d2724a023ce64d4bfa3491639c98b5819878afc53f7af3f60fd1b4816ba573e59654253",
      "networkId": 0,
      "chainId": 0
    },
    {
      "hash": "0x9de7493a8c2da33360ac6c4eeb701570f267b8ba8052bdb1c80bbbb235c4c801",
      "blockHash": "0x116659e5855705e9bac3a1913280af2c77c407600bbacddac34ff142622197a5",
      "blockNumber": 105711,
      "transactionIndex": 2,
      "confirmations": null,
      "from": "0xe6C9430205BD87DA80B9D5F286442Bf45CB49423",
      "gasPrice": {
        "_hex": "0xba43b7400"
      },
      "gasLimit": {
        "_hex": "0x5208"
      },
      "to": "0xC47Aaa860008be6f65B58c6C6E02a84e666EfE31",
      "value": {
        "_hex": "0x1364b82524267fe0"
      },
      "nonce": 3,
      "data": "0x",
      "r": "0xdc5fa254fca48397ad139edc37705f75c49e8db3bfa9c017afd584e694a0ecb0",
      "s": "0x08e78b8fe3eff15637c55c7d250d8b18c176b35e3b508f832c14aa7a18d8c7b7",
      "v": 28,
      "creates": null,
      "raw": "0xf86c03850ba43b740082520894c47aaa860008be6f65b58c6c6e02a84e666efe31881364b82524267fe0801ca0dc5fa254fca48397ad139edc37705f75c49e8db3bfa9c017afd584e694a0ecb0a008e78b8fe3eff15637c55c7d250d8b18c176b35e3b508f832c14aa7a18d8c7b7",
      "networkId": 0,
      "chainId": 0
    }
  ]
}