{
  "hash": "0x3e058b4f999f7eb54f5138168944170206a46646f99ac41256e2724da494356e",
  "parentHash": "0x32f283aa072684529990c9fd20646df28e3036e8ee2cd4cb2495b949acf2dda1",
  "number": 47366,
  "timestamp": 1438938985,
  "nonce": "0x523669b8558d2be8",
  "difficulty": 1453095669519,
  "gasLimit": {
    "_hex": "0xb596"
  },
  "gasUsed": {
    "_hex": "0xa410"
  },
  "miner": "0xf927a40C8B7F6E07c5af7FA2155B4864a4112B13",
  "extraData": "0x476574682f76312e302e312f6c696e75782f676f312e342e32",
  "transactions": [
    {
      "hash": "0x3b70f36c94bdb765b4c010e82f8f704df73b6a8497813f78f1248093fb7e901d",
      "blockHash": "0x3e058b4f999f7eb54f5138168944170206a46646f99ac41256e2724da494356e",
      "blockNumber": 47366,
      "transactionIndex": 0,
      "confirmations": null,
      "from": "0x23c99bA087448e19C9701Df66e0cab52368331FA",
      "gasPrice": {
        "_hex": "0x45d964b800"
      },
      "gasLimit": {
        "_hex": "0x5208"
      },
      "to": "0xC3e7418901ea7aa9c78094F9dB49063627f5cFbb",
      "value": {
        "_hex": "0x2386f26fc10000"
      },
      "nonce": 0,
      "data": "0x",
      "r": "0xf234c1cddc85e79ff7e75631238e40b76fde6a7da0d74ad7e7dfdb168341d0d3",
      "s": "0x309afb8d3a5ea6e973a3871e948bade21dcd591f388681a6a179a1ec4f1af8f5",
      "v": 27,
      "creates": null,
      "raw": "0xf86b808545d964b80082520894c3e7418901ea7aa9c78094f9db49063627f5cfbb872386f26fc10000801ba0f234c1cddc85e79ff7e75631238e40b76fde6a7da0d74ad7e7dfdb168341d0d3a0309afb8d3a5ea6e973a3871e948bade21dcd591f388681a6a179a1ec4f1af8f5",
      "networkId": 0,
      "chainId": 0
    },
    {
      "hash": "0xd11c4faa42cfe894d9900810a5cd8feaea442f01aa7611339c52cb7122e2e37a",
      "blockHash": "0x3e058b4f999f7eb54f5138168944170206a46646f99ac41256e2724da494356e",
      "blockNumber": 47366,
      "transactionIndex": 1,
      "confirmations": null,
      "from": "0xe6A7a1d47ff21B6321162AEA7C6CB457D5476Bca",
      "gasPrice": {
        "_hex": "0x1925fdbefe"
      },
      "gasLimit": {
        "_hex": "0x5208"
      },
      "to": "0x8C93d2F70d641AC1F4cCc3287E2A1376Ce3c7DCC",
      "value": {
        "_hex": "0x1075e7427d9ce8610"
      },
      "nonce": 125,
      "data": "0x",
      "r": "0xe123c946add0305b79faf0c955595c2876554fab9d067fa3a72bef71d1b9ff28",
      "s": "0x40f246b216efbbad72cfa802e16edcf45bdb074421dcf92c0b5ff791e03aea02",
      "v": 28,
      "creates": null,
      "raw": "0xf86d7d851925fdbefe825208948c93d2f70d641ac1f4ccc3287e2a1376ce3c7dcc8901075e7427d9ce8610801ca0e123c946add0305b79faf0c955595c2876554fab9d067fa3a72bef71d1b9ff28a040f246b216efbbad72cfa802e16edcf45bdb074421dcf92c0b5ff791e03aea02",
      "networkId": 0,
      "chainId": 0
    }
  ]
}