{
  "hash": "0x006aab9e4bd0191d2c87d057a0852c45ce0b69cac5e64e95a9d4eb6e085f5760",
  "parentHash": "0x2df001a93fcc9cfc8e3f174fafd012585c450eac86479a79b7fa000954783cc9",
  "number": 100555,
  "timestamp": 1439808435,
  "nonce": "0x643d35f99c5c46a2",
  "difficulty": 3817224726159,
  "gasLimit": {
    "_hex": "0x2fefd8"
  },
  "gasUsed": {
    "_hex": "0x5208"
  },
  "miner": "0x790b8a3cE86E707ED0eD32bF89B3269692a23CC1",
  "extraData": "0xd783010001844765746887676f312e342e32856c696e7578",
  "transactions": [
    {
      "hash": "0xcb6f834cc41b613f8d5f44ac1eaf04417288fada8d42b3c5927dd99338069639",
      "blockHash": "0x006aab9e4bd0191d2c87d057a0852c45ce0b69cac5e64e95a9d4eb6e085f5760",
      "blockNumber": 100555,
      "transactionIndex": 0,
      "confirmations": null,
      "from": "0x7884D470204862a0d1A21122F41ee77430396Ee5",
      "gasPrice": {
        "_hex": "0xdb78ae971"
      },
      "gasLimit": {
        "_hex": "0x15f90"
      },
      "to": "0xE48C6aEf177Cc031c609f4b25C53FfAd61398493",
      "value": {
        "_hex": "0x186cc6acd4b0000"
      },
      "nonce": 59,
      "data": "0x",
      "r": "0x901146f11be1d72086cbe6436e7863581d4e7d697545a14319393f66b866327d",
      "s": "0x7d4586eefe56b69b9927208a1ffd6e1b6d9f2f8df50f0aa3360fd8d3f3c9e9f9",
      "v": 27,
      "creates": null,
      "raw": "0xf86d3b850db78ae97183015f9094e48c6aef177cc031c609f4b25c53ffad61398493880186cc6acd4b0000801ba0901146f11be1d72086cbe6436e7863581d4e7d697545a14319393f66b866327da07d4586eefe56b69b9927208a1ffd6e1b6d9f2f8df50f0aa3360fd8d3f3c9e9f9",
      "networkId": 0,
      "chainId": 0
    }
  ]
}