{
  "hash": "0x9727da0da09f11bb64d86d966604310b304b2127326c88084d9dc43214818322",
  "parentHash": "0x4dba44fa054d20e45bf3fe44f4cae0ea10ae16293d74bf11c56851ff4f92438f",
  "number": 119812,
  "timestamp": 1440149096,
  "nonce": "0xfa3c463f1d32f5d2",
  "difficulty": 4402830265472,
  "gasLimit": {
    "_hex": "0x2fefd8"
  },
  "gasUsed": {
    "_hex": "0xa410"
  },
  "miner": "0x35e8e5dC5FBd97c5b421A80B596C030a2Be2A04D",
  "extraData": "0x",
  "transactions": [
    {
      "hash": "0xa711904bfd6674261ce5476aa2af1a8ff7421741f7b795031fb5636bc753e83d",
      "blockHash": "0x9727da0da09f11bb64d86d966604310b304b2127326c88084d9dc43214818322",
      "blockNumber": 119812,
      "transactionIndex": 0,
      "confirmations": null,
      "from": "0x1543667B9bad3e41865C3233E1764d8dda8E1F3D",
      "gasPrice": {
        "_hex": "0xba43b7400"
      },
      "gasLimit": {
        "_hex": "0x5208"
      },
      "to": "0x32Be343B94f860124dC4fEe278FDCBD38C102D88",
      "value": {
        "_hex": "0x5187f5aff49b48000"
      },
      "nonce": 17,
      "data": "0x",
      "r": "0x7aa2c50cef46a7da5f8d22f9e8824bd49e922697918bb47ee7db1688d4eb8062",
      "s": "0x731240f2951c122ef305d62f94e4598a63ba56302530fa6568cd680492bb9c91",
      "v": 28,
      "creates": null,
      "raw": "0xf86d11850ba43b74008252089432be343b94f860124dc4fee278fdcbd38c102d888905187f5aff49b48000801ca07aa2c50cef46a7da5f8d22f9e8824bd49e922697918bb47ee7db1688d4eb8062a0731240f2951c122ef305d62f94e4598a63ba56302530fa6568cd680492bb9c91",
      "networkId": 0,
      "chainId": 0
    },
    {
      "hash": "0x85f4fdf8127e1ac371de5a92da8ced74b973a56891119b52fac608be6cb3bc54",
      "blockHash": "0x9727da0da09f11bb64d86d966604310b304b2127326c88084d9dc43214818322",
      "blockNumber": 119812,
      "transactionIndex": 1,
      "confirmations": null,
      "from": "0xb1abce2918E21ddb93AA452731a12672A3d9F75a",
      "gasPrice": {
        "_hex": "0xba43b7400"
      },
      "gasLimit": {
        "_hex": "0x5208"
      },
      "to": "0x32Be343B94f860124dC4fEe278FDCBD38C102D88",
      "value": {
        "_hex": "0x455fd68a17f06000"
      },
      "nonce": 200,
      "data": "0x",
      "r": "0x211e2a25483db33fdaa8ba99dfa654077f43799949b87f35d64dbb10e7711c18",
      "s": "0x746c2371a29f054fe1ddd82818eb9df07cfdacb9363c7afbfdd915a09aa07c8a",
      "v": 27,
      "creates": null,
      "raw": "0xf86d81c8850ba43b74008252089432be343b94f860124dc4fee278fdcbd38c102d8888455fd68a17f06000801ba0211e2a25483db33fdaa8ba99dfa654077f43799949b87f35d64dbb10e7711c18a0746c2371a29f054fe1ddd82818eb9df07cfdacb9363c7afbfdd915a09aa07c8a",
      "networkId": 0,
      "chainId": 0
    }
  ]
}