{
  "hash": "0xb0d9210d04a64513898cbe170844479f4ef48d725779936551f6c0dfed857017",
  "parentHash": "0x023f40584df5ed7393b2c84c77badb7fee64cfa7450afd17e9a963278c040149",
  "number": 70372,
  "timestamp": 1439318878,
  "nonce": "0x9661b813562afe87",
  "difficulty": 2137475803218,
  "gasLimit": {
    "_hex": "0x2fefd8"
  },
  "gasUsed": {
    "_hex": "0xf87c"
  },
  "miner": "0x70C6b45fe0A5116E97B112B806A76E2F51E24413",
  "extraData": "0x476574682f76312e302e312f77696e646f77732f676f312e342e32",
  "transactions": [
    {
      "hash": "0x9fb419a9c7b52d083697af978f2b5d9b4f338ae03b492797290f4a4b8cb9f9b1",
      "blockHash": "0xb0d9210d04a64513898cbe170844479f4ef48d725779936551f6c0dfed857017",
      "blockNumber": 70372,
      "transactionIndex": 0,
      "confirmations": null,
      "from": "0x120A270bbC009644e35F0bB6ab13f95b8199c4ad",
      "gasPrice": {
        "_hex": "0xde8f063d4"
      },
      "gasLimit": {
        "_hex": "0x15f90"
      },
      "to": "0x12950B5C428e5A1dDF67Cf2158e24eefb301b0a3",
      "value": {
        "_hex": "0x6d8d370a7ad000"
      },
      "nonce": 200,
      "data": "0x",
      "r": "0x8a9c578ff1b9a3049c5359899a7ae3ca6f4062d14ff4537a5c0ca7ed4b119ef9",
      "s": "0x1d686ad68cde6756966a14a0925672d93173ec0d4964f09a6f614c38f01724ad",
      "v": 28,
      "creates": null,
      "raw": "0xf86d81c8850de8f063d483015f909412950b5c428e5a1ddf67cf2158e24eefb301b0a3876d8d370a7ad000801ca08a9c578ff1b9a3049c5359899a7ae3ca6f4062d14ff4537a5c0ca7ed4b119ef9a01d686ad68cde6756966a14a0925672d93173ec0d4964f09a6f614c38f01724ad",
      "networkId": 0,
      "chainId": 0
    },
    {
      "hash": "0x89636bf77dbed4af9125f8cc294a00baae92d226b23bffa79c4405f7008b86ec",
      "blockHash": "0xb0d9210d04a64513898cbe170844479f4ef48d725779936551f6c0dfed857017",
      "blockNumber": 70372,
      "transactionIndex": 1,
      "confirmations": null,
      "from": "0x120A270bbC009644e35F0bB6ab13f95b8199c4ad",
      "gasPrice": {
        "_hex": "0xde8f063d4"
      },
      "gasLimit": {
        "_hex": "0x15f90"
      },
      "to": "0xC557b4a4380B69196d6CF08Bf42B8fC2d0AEf083",
      "value": {
        "_hex": "0x456f460a0c3000"
      },
      "nonce": 201,
      "data": "0x",
      "r": "0x2f4b03a092578c7d3ebacac08a0e622ba4527e49e90ac3159f652e91c7d30c7a",
      "s": "0x5d403bbf2100cbe58173107ce5f01360e084c6af19ed615a82be30b3498fb0a7",
      "v": 28,
      "creates": null,
      "raw": "0xf86d81c9850de8f063d483015f9094c557b4a4380b69196d6cf08bf42b8fc2d0aef08387456f460a0c3000801ca02f4b03a092578c7d3ebacac08a0e622ba4527e49e90ac3159f652e91c7d30c7aa05d403bbf2100cbe58173107ce5f01360e084c6af19ed615a82be30b3498fb0a7",
      "networkId": 0,
      "chainId": 0
    },
    {
      "hash": "0x1983d8af1b753960b005998fd9d3e713ad1c4c92a6551769bf809f50cd3875c0",
      "blockHash": "0xb0d9210d04a64513898cbe170844479f4ef48d725779936551f6c0dfed857017",
      "blockNumber": 70372,
      "transactionIndex": 2,
      "confirmations": null,
      "from": "0x5a891155f50E42074374C739BAADF7df2651153A",
      "gasPrice": {
        "_hex": "0xd4be89f70"
      },
      "gasLimit": {
        "_hex": "0x15f90"
      },
      "to": "0x2910543Af39abA0Cd09dBb2D50200b3E800A63D2",
      "value": {
        "_hex": "0x3635c9adc5dea00000"
      },
      "nonce": 3,
      "data": "0x454e41525454343952",
      "r": "0x20b1af4dc376343cabf222242987624b8ccfb7552f9756479cc86d084b73bae2",
      "s": "0x221d709e6de2c88ff7348870c3c2e3008d269525c900d37b1e89894f20042b7b",
      "v": 27,
      "creates": null,
      "raw": "0xf87703850d4be89f7083015f90942910543af39aba0cd09dbb2d50200b3e800a63d2893635c9adc5dea0000089454e415254543439521ba020b1af4dc376343cabf222242987624b8ccfb7552f9756479cc86d084b73bae2a0221d709e6de2c88ff7348870c3c2e3008d269525c900d37b1e89894f20042b7b",
      "networkId": 0,
      "chainId": 0
    }
  ]
}