{
  "hash": "0x6b97c8636193a896e2540165cc94be549488ca36792e09cd3812ab64fbe86c2e",
  "parentHash": "0x200eb5d18b832361b43911caa5c5bfc7cebea18dd3ce339b1b6f60149165c6f4",
  "number": 73203,
  "timestamp": 1439364879,
  "nonce": "0x84f70ccef8561cff",
  "difficulty": 2218620883754,
  "gasLimit": {
    "_hex": "0x2fefd8"
  },
  "gasUsed": {
    "_hex": "0x1b2b1"
  },
  "miner": "0xf927a40C8B7F6E07c5af7FA2155B4864a4112B13",
  "extraData": "0x",
  "transactions": [
    {
      "hash": "0x4803647088e0bdc58a32c7a0f17f03cf6879f13a26f3fb043c393d5d17736c82",
      "blockHash": "0x6b97c8636193a896e2540165cc94be549488ca36792e09cd3812ab64fbe86c2e",
      "blockNumber": 73203,
      "transactionIndex": 0,
      "confirmations": null,
      "from": "0x326Be8F71bFb0379f989aAB1CC1fE37f0a771f60",
      "gasPrice": {
        "_hex": "0x109cc84cddf"
      },
      "gasLimit": {
        "_hex": "0x493e0"
      },
      "to": "0x7153FdeEf24E488Af4dc001F620407764ee47747",
      "value": {
        "_hex": "0x2710"
      },
      "nonce": 29,
      "data": "0x8d21618600000000000000000000000000000000000000000000000000000000000000808d5adaad541502933bfca57b79fdcf7b21a9ea7dbcf2e9321d253f5db02ac8f3",
      "r": "0xc881a1649fb80ba31df084427794f273473db9e793d102b6f70c326c95e546d1",
      "s": "0x7c1ba31993777798ec54184e944036da4a4bdf3e0c70b3e0bf7771c249f7c500",
      "v": 28,
      "creates": null,
      "raw": "0xf8ad1d860109cc84cddf830493e0947153fdeef24e488af4dc001f620407764ee47747822710b8448d21618600000000000000000000000000000000000000000000000000000000000000808d5adaad541502933bfca57b79fdcf7b21a9ea7dbcf2e9321d253f5db02ac8f31ca0c881a1649fb80ba31df084427794f273473db9e793d102b6f70c326c95e546d1a07c1ba31993777798ec54184e944036da4a4bdf3e0c70b3e0bf7771c249f7c500",
      "networkId": 0,
      "chainId": 0
    }
  ]
}