{
  "hash": "0xbe3e253ea260819290e32dc9a66c7d13d5655a602966ac7d5fc719d86040158d",
  "parentHash": "0xa48520ee6166563da84cdef055c14bc94dccfbc1d18b293fa53658bb47bcb866",
  "number": 121188,
  "timestamp": 1440172961,
  "nonce": "0x8707aa42eb5fce58",
  "difficulty": 4397811283992,
  "gasLimit": {
    "_hex": "0x2fefd8"
  },
  "gasUsed": {
    "_hex": "0x5208"
  },
  "miner": "0xe6A7a1d47ff21B6321162AEA7C6CB457D5476Bca",
  "extraData": "0xd783010002844765746887676f312e342e32856c696e7578",
  "transactions": [
    {
      "hash": "0x75b78da38c08c495b8ca515d7035c9a2422447c9176ce1801a83cfecf0ca576e",
      "blockHash": "0xbe3e253ea260819290e32dc9a66c7d13d5655a602966ac7d5fc719d86040158d",
      "blockNumber": 121188,
      "transactionIndex": 0,
      "confirmations": null,
      "from": "0x2910543Af39abA0Cd09dBb2D50200b3E800A63D2",
      "gasPrice": {
        "_hex": "0xdcdc90a05"
      },
      "gasLimit": {
        "_hex": "0x5208"
      },
      "to": "0xF837465BD5Fc6C70Cc1EdDAAa233eA0e31043Ca8",
      "value": {
        "_hex": "0x35896e89c12bf98000"
      },
      "nonce": 1186,
      "data": "0x",
      "r": "0xbc0ee38d5bc4f6710aede97f01b2d4729e2d3065f84dbb61dce17ccad707ec32",
      "s": "0x0668b47d09ab282a6c544ca836801a75131e5a5d6506d2047433a273df417b2b",
      "v": 27,
      "creates": null,
      "raw": "0xf86f8204a2850dcdc90a0582520894f837465bd5fc6c70cc1eddaaa233ea0e31043ca88935896e89c12bf98000801ba0bc0ee38d5bc4f6710aede97f01b2d4729e2d3065f84dbb61dce17ccad707ec32a00668b47d09ab282a6c544ca836801a75131e5a5d6506d2047433a273df417b2b",
      "networkId": 0,
      "chainId": 0
    }
  ]
}