{
  "hash": "0x912326e0170de98f8b0f518a528c0ef7e75bbe9f277e626a822b7a08ee9d0661",
  "parentHash": "0x07ba0e6efe1c853d056aa664105a6ad8e151228eda5585b81f3f4c920525a518",
  "number": 81446,
  "timestamp": 1439501825,
  "nonce": "0x5a99982dc86367b9",
  "difficulty": 2449786311989,
  "gasLimit": {
    "_hex": "0x2fefd8"
  },
  "gasUsed": {
    "_hex": "0xa674"
  },
  "miner": "0xA21Ba94e45f0E168dA824fC67aC9cb5Cb577a8aF",
  "extraData": "0x",
  "transactions": [
    {
      "hash": "0x2630a382fa02db09760165fa37c7faf021a3ca298659cc32ca6a35ec7708b9d9",
      "blockHash": "0x912326e0170de98f8b0f518a528c0ef7e75bbe9f277e626a822b7a08ee9d0661",
      "blockNumber": 81446,
      "transactionIndex": 0,
      "confirmations": null,
      "from": "0xa7cbf63d892f644ceE55c262EFf3A307a725f6a3",
      "gasPrice": {
        "_hex": "0xd893be32a"
      },
      "gasLimit": {
        "_hex": "0x55f0"
      },
      "to": "0x2910543Af39abA0Cd09dBb2D50200b3E800A63D2",
      "value": {
        "_hex": "0x17241802416400"
      },
      "nonce": 2,
      "data": "0x454e57474d4b385a47",
      "r": "0xd6f6fb8773c9670d951ef973551c8227d6f86828fc41573f0e8b0087f6ff6e25",
      "s": "0x7c810645f0ef67728b2362a0a9101e4a6e33ee1394e0fe39a05e9bb9bd3a52be",
      "v": 27,
      "creates": null,
      "raw": "0xf87402850d893be32a8255f0942910543af39aba0cd09dbb2d50200b3e800a63d2871724180241640089454e57474d4b385a471ba0d6f6fb8773c9670d951ef973551c8227d6f86828fc41573f0e8b0087f6ff6e25a07c810645f0ef67728b2362a0a9101e4a6e33ee1394e0fe39a05e9bb9bd3a52be",
      "networkId": 0,
      "chainId": 0
    },
    {
      "hash": "0x3e16ebed9b60485ab4ec52a9bccc8410fa5e92693b42581b48aad95aafba0380",
      "blockHash": "0x912326e0170de98f8b0f518a528c0ef7e75bbe9f277e626a822b7a08ee9d0661",
      "blockNumber": 81446,
      "transactionIndex": 1,
      "confirmations": null,
      "from": "0x120A270bbC009644e35F0bB6ab13f95b8199c4ad",
      "gasPrice": {
        "_hex": "0xcd0f51f19"
      },
      "gasLimit": {
        "_hex": "0x3d090"
      },
      "to": "0xD776e16A63629bd6665584eFD7a9b11C79d6d554",
      "value": {
        "_hex": "0x8ac7230489e80000"
      },
      "nonce": 379,
      "data": "0x",
      "r": "0x2825592ff3311afa6ad9b6b997669ca14743cc9b44df51d7234047e9b9bccc3f",
      "s": "0x072267d3203b15a0d797f1b395c67d7cab55609d8cfd5bbc8ecf57bf117d4acc",
      "v": 28,
      "creates": null,
      "raw": "0xf86f82017b850cd0f51f198303d09094d776e16a63629bd6665584efd7a9b11c79d6d554888ac7230489e80000801ca02825592ff3311afa6ad9b6b997669ca14743cc9b44df51d7234047e9b9bccc3fa0072267d3203b15a0d797f1b395c67d7cab55609d8cfd5bbc8ecf57bf117d4acc",
      "networkId": 0,
      "chainId": 0
    }
  ]
}