{
  "hash": "0xc48d52ec78c0c77aec4a249392f38d05e3def0ddde6ed815efb87a6ed3f11730",
  "parentHash": "0xe785082fb56127afdb6da9ef4821070932742901420c1cca331a20b1ce1e6cd9",
  "number": 70934,
  "timestamp": 1439327679,
  "nonce": "0xbf9b2d02a89097a5",
  "difficulty": 2160415996995,
  "gasLimit": {
    "_hex": "0x2fefd8"
  },
  "gasUsed": {
    "_hex": "0xf618"
  },
  "miner": "0x55bAf64fc9eAccFFd7Cc643BB61142E1C6ac093e",
  "extraData": "0x",
  "transactions": [
    {
      "hash": "0xecbac41895ec859d5e7bff41cd2a983ab14f8e023bfdd42e26367c53be4e70c4",
      "blockHash": "0xc48d52ec78c0c77aec4a249392f38d05e3def0ddde6ed815efb87a6ed3f11730",
      "blockNumber": 70934,
      "transactionIndex": 0,
      "confirmations": null,
      "from": "0x42Dd879f8Eb7e9B43036A5b4C97B02c6176D6B99",
      "gasPrice": {
        "_hex": "0x10dc90d85e7"
      },
      "gasLimit": {
        "_hex": "0x15f90"
      },
      "to": "0x5Ef8C0F62039a8E2526bA6Ac21784B70dc758Eca",
      "value": {
        "_hex": "0xde0b6b3a7640000"
      },
      "nonce": 1,
      "data": "0x",
      "r": "0x84faafb5c486d68ff40fae3c82f43729c46760e04fd30ff86f344dbc1e602c60",
      "s": "0x0e56fd574ff01615699bb0ecfec6226e86be5de4c8c9f0533df77a86db163dcc",
      "v": 28,
      "creates": null,
      "raw": "0xf86e0186010dc90d85e783015f90945ef8c0f62039a8e2526ba6ac21784b70dc758eca880de0b6b3a7640000801ca084faafb5c486d68ff40fae3c82f43729c46760e04fd30ff86f344dbc1e602c60a00e56fd574ff01615699bb0ecfec6226e86be5de4c8c9f0533df77a86db163dcc",
      "networkId": 0,
      "chainId": 0
    },
    {
      "hash": "0x9068ce1ade7683acb85e6d13bdae083c09c456ee86b7205b7110288baeeaee6e",
      "blockHash": "0xc48d52ec78c0c77aec4a249392f38d05e3def0ddde6ed815efb87a6ed3f11730",
      "blockNumber": 70934,
      "transactionIndex": 1,
      "confirmations": null,
      "from": "0x952f389eCE021cECc7e7E00B5316925e14396B92",
      "gasPrice": {
        "_hex": "0xdf8475800"
      },
      "gasLimit": {
        "_hex": "0x5266"
      },
      "to": "0x65C40Ee4e07E09671fF3cE2dff2AcCbE366bb5C8",
      "value": {
        "_hex": "0x2dc2ca04ff44c000"
      },
      "nonce": 4,
      "data": "0x",
      "r": "0xd735063869c0c96763fadf9194be4f07bbf80c3ebf70f6720507b851230ebc40",
      "s": "0x9a9ebfd0f50a2924346b0f2269adf48084d32a1277dd24c56f5741e01111a9a2",
      "v": 28,
      "creates": null,
      "raw": "0xf86c04850df84758008252669465c40ee4e07e09671ff3ce2dff2accbe366bb5c8882dc2ca04ff44c000801ca0d735063869c0c96763fadf9194be4f07bbf80c3ebf70f6720507b851230ebc40a09a9ebfd0f50a2924346b0f2269adf48084d32a1277dd24c56f5741e01111a9a2",
      "networkId": 0,
      "chainId": 0
    },
    {
      "hash": "0xb6097405ab7624b5c51b86cf07b8f9f5a00b7b0b69e4b7e405d1e9b545bc5e69",
      "blockHash": "0xc48d52ec78c0c77aec4a249392f38d05e3def0ddde6ed815efb87a6ed3f11730",
      "blockNumber": 70934,
      "transactionIndex": 2,
      "confirmations": null,
      "from": "0x32Be343B94f860124dC4fEe278FDCBD38C102D88",
      "gasPrice": {
        "_hex": "0xd5900ee22"
      },
      "gasLimit": {
        "_hex": "0x5208"
      },
      "to": "0x120A270bbC009644e35F0bB6ab13f95b8199c4ad",
      "value": {
        "_hex": "0xa2a15d09519be00000"
      },
      "nonce": 259,
      "data": "0x",
      "r": "0x12c4d7e2f15d3c23756383d84d89d44bc48c7431363e442d637e51e72ddb1083",
      "s": "0x3b808a30aefc59e1e0bdaba56f1890710063969ff9ad161e138353020c2c6e6a",
      "v": 27,
      "creates": null,
      "raw": "0xf86f820103850d5900ee2282520894120a270bbc009644e35f0bb6ab13f95b8199c4ad89a2a15d09519be00000801ba012c4d7e2f15d3c23756383d84d89d44bc48c7431363e442d637e51e72ddb1083a03b808a30aefc59e1e0bdaba56f1890710063969ff9ad161e138353020c2c6e6a",
      "networkId": 0,
      "chainId": 0
    }
  ]
}