{
  "hash": "0x1041d2f78945bfa698953f6b1de794f6a96820f29e735af10fee407a14e1d467",
  "parentHash": "0xcad14b85e1cfd32158f4e08df2af2b91e2aa3e367eed37eb398496b593baa1d4",
  "number": 79532,
  "timestamp": 1439471227,
  "nonce": "0xd6f2d1e96dbb01e4",
  "difficulty": 2338135844108,
  "gasLimit": {
    "_hex": "0x2fefd8"
  },
  "gasUsed": {
    "_hex": "0xa410"
  },
  "miner": "0x727A42a8D67fcaa0Ab81D46f1EE66bfc9b8789AC",
  "extraData": "0x",
  "transactions": [
    {
      "hash": "0x5ccb5711a11a217cfc906fbb9edb511ba66068a38feb1ba810a8c64903c59528",
      "blockHash": "0x1041d2f78945bfa698953f6b1de794f6a96820f29e735af10fee407a14e1d467",
      "blockNumber": 79532,
      "transactionIndex": 0,
      "confirmations": null,
      "from": "0x65B3d2B5Ae9509D36126cd6db6BF5950C5A6F2FE",
      "gasPrice": {
        "_hex": "0xdaa2a78b6"
      },
      "gasLimit": {
        "_hex": "0x5208"
      },
      "to": "0x32Be343B94f860124dC4fEe278FDCBD38C102D88",
      "value": {
        "_hex": "0xddc55c48acc4000"
      },
      "nonce": 0,
      "data": "0x",
      "r": "0xc382b7a3ee7b93a215ecc3a8876d7b290e75c4ea31f44b8fe0bdfd784a6df381",
      "s": "0x7fd804bb2c3c03ab72d4c340903413f52f324000d8159a71866772ff5b6fb441",
      "v": 27,
      "creates": null,
      "raw": "0xf86c80850daa2a78b68252089432be343b94f860124dc4fee278fdcbd38c102d88880ddc55c48acc4000801ba0c382b7a3ee7b93a215ecc3a8876d7b290e75c4ea31f44b8fe0bdfd784a6df381a07fd804bb2c3c03ab72d4c340903413f52f324000d8159a71866772ff5b6fb441",
      "networkId": 0,
      "chainId": 0
    },
    {
      "hash": "0xa458c349a72958ee4ae9b399a2bd21f18b6f7975caa47c4d7a0217de5a5627a4",
      "blockHash": "0x1041d2f78945bfa698953f6b1de794f6a96820f29e735af10fee407a14e1d467",
      "blockNumber": 79532,
      "transactionIndex": 1,
      "confirmations": null,
      "from": "0xA5fb3E4399E8F18643f969D0Ce65CC352fc252C6",
      "gasPrice": {
        "_hex": "0xdaa2a78b6"
      },
      "gasLimit": {
        "_hex": "0x5208"
      },
      "to": "0x32Be343B94f860124dC4fEe278FDCBD38C102D88",
      "value": {
        "_hex": "0x30923965d81484000"
      },
      "nonce": 6,
      "data": "0x",
      "r": "0xbfddbc76faf14d960cc7da32aae3dc4847021be57c93e1dc5411b6572347ac55",
      "s": "0x6fab3e785847851651dc1b1d757f45e222b14bd919d9c40bc214b7dc0c503512",
      "v": 27,
      "creates": null,
      "raw": "0xf86d06850daa2a78b68252089432be343b94f860124dc4fee278fdcbd38c102d8889030923965d81484000801ba0bfddbc76faf14d960cc7da32aae3dc4847021be57c93e1dc5411b6572347ac55a06fab3e785847851651dc1b1d757f45e222b14bd919d9c40bc214b7dc0c503512",
      "networkId": 0,
      "chainId": 0
    }
  ]
}