{
  "hash": "0x30477749deef40c4ff365054402f4efeeaa339723e6aad728af55942abe3d615",
  "parentHash": "0x443e0f8e069b9e1935f39a89a840cdf7cf95a596a9318ea068553292e1365556",
  "number": 85584,
  "timestamp": 1439565777,
  "nonce": "0xbb0181ea91487dbc",
  "difficulty": 2771894330707,
  "gasLimit": {
    "_hex": "0x2fefd8"
  },
  "gasUsed": {
    "_hex": "0x5208"
  },
  "miner": "0xe6A7a1d47ff21B6321162AEA7C6CB457D5476Bca",
  "extraData": "0x476574682f76312e302e312d38326566323666362f6c696e75782f676f312e34",
  "transactions": [
    {
      "hash": "0xd43694a8dd3b7215d6dbc6a5acadd1c835a6d9b4350bf6868ecbc1e16d218bb0",
      "blockHash": "0x30477749deef40c4ff365054402f4efeeaa339723e6aad728af55942abe3d615",
      "blockNumber": 85584,
      "transactionIndex": 0,
      "confirmations": null,
      "from": "0x120A270bbC009644e35F0bB6ab13f95b8199c4ad",
      "gasPrice": {
        "_hex": "0xdf520558c"
      },
      "gasLimit": {
        "_hex": "0x3d090"
      },
      "to": "0xd0c9016C1669D8D4B331F8a68BC0b4E7937F3475",
      "value": {
        "_hex": "0x14e63584d35c34000"
      },
      "nonce": 461,
      "data": "0x",
      "r": "0xdd70a83577608f8ea4cb2b840f6f34261feb61401984ed0af78113009076eb88",
      "s": "0x1dd419bde0f289c0c12afe3dc43c74c3a68d02a3b0efbcf3eb273cdb9b845708",
      "v": 27,
      "creates": null,
      "raw": "0xf8708201cd850df520558c8303d09094d0c9016c1669d8d4b331f8a68bc0b4e7937f347589014e63584d35c34000801ba0dd70a83577608f8ea4cb2b840f6f34261feb61401984ed0af78113009076eb88a01dd419bde0f289c0c12afe3dc43c74c3a68d02a3b0efbcf3eb273cdb9b845708",
      "networkId": 0,
      "chainId": 0
    }
  ]
}