{
  "hash": "0x920e0c136be87cdf603bd7215598c2a1890b4a832e8da026ba482404f64fa6e7",
  "parentHash": "0x807c755dfc7ddba1c843436aea4c38b6b5816da4bc6995989f4061fc4fd79ad5",
  "number": 120715,
  "timestamp": 1440164637,
  "nonce": "0x9e1982bb571c4c33",
  "difficulty": 4434718536572,
  "gasLimit": {
    "_hex": "0x2fefd8"
  },
  "gasUsed": {
    "_hex": "0xa481"
  },
  "miner": "0xe6A7a1d47ff21B6321162AEA7C6CB457D5476Bca",
  "extraData": "0xd783010002844765746887676f312e342e32856c696e7578",
  "transactions": [
    {
      "hash": "0xf518bc77ec62faa43de8133df7d664470e6d2eb8700f89e8c2cd8455482b843f",
      "blockHash": "0x920e0c136be87cdf603bd7215598c2a1890b4a832e8da026ba482404f64fa6e7",
      "blockNumber": 120715,
      "transactionIndex": 0,
      "confirmations": null,
      "from": "0x608f4b86321a68453f9adf6F06F7Fc3E621739ad",
      "gasPrice": {
        "_hex": "0xba43b7400"
      },
      "gasLimit": {
        "_hex": "0x5208"
      },
      "to": "0x32Be343B94f860124dC4fEe278FDCBD38C102D88",
      "value": {
        "_hex": "0x455fd68a17f06000"
      },
      "nonce": 77,
      "data": "0x",
      "r": "0x7b15ccd4a5659705ae117c73bac8e374df0219e2503044cc013c98a02dc8f539",
      "s": "0x312c8075ef79c51ccd68f063f789f8126a0164b1fe88517a4753a2c18d26b398",
      "v": 28,
      "creates": null,
      "raw": "0xf86c4d850ba43b74008252089432be343b94f860124dc4fee278fdcbd38c102d8888455fd68a17f06000801ca07b15ccd4a5659705ae117c73bac8e374df0219e2503044cc013c98a02dc8f539a0312c8075ef79c51ccd68f063f789f8126a0164b1fe88517a4753a2c18d26b398",
      "networkId": 0,
      "chainId": 0
    },
    {
      "hash": "0x216f448d15d7d4c54c1814cd93ee0c48902dbfff648f38e6acaab779513a2d98",
      "blockHash": "0x920e0c136be87cdf603bd7215598c2a1890b4a832e8da026ba482404f64fa6e7",
      "blockNumber": 120715,
      "transactionIndex": 1,
      "confirmations": null,
      "from": "0xD007C3Ce0bFCFE50559e15a3737C236f8Fa15BbE",
      "gasPrice": {
        "_hex": "0xba43b7400"
      },
      "gasLimit": {
        "_hex": "0x7a120"
      },
      "to": "0x325e36e383630422B27dF8dBbd7C72BD40fB4F8B",
      "value": {
        "_hex": "0x0"
      },
      "nonce": 8,
      "data": "0x",
      "r": "0x44b539db22ec0918ba286020dd952859d1b5747e90b8b30473dd1dfb08eddf02",
      "s": "0x7b84d1f2d14ac47a90607155d29427ea36a67528b89c84b83ab6a5d53a4f9754",
      "v": 28,
      "creates": null,
      "raw": "0xf86508850ba43b74008307a12094325e36e383630422b27df8dbbd7c72bd40fb4f8b80801ca044b539db22ec0918ba286020dd952859d1b5747e90b8b30473dd1dfb08eddf02a07b84d1f2d14ac47a90607155d29427ea36a67528b89c84b83ab6a5d53a4f9754",
      "networkId": 0,
      "chainId": 0
    }
  ]
}