{
  "hash": "0xd086441a5ac0774e8d2f78928e3e39ca0db3b58f83713323d1ee811efb26395d",
  "parentHash": "0x44e25aa76eb0a02fb369c20a08553b34121c2e8423987a916a3bfb4934df89db",
  "number": 100410,
  "timestamp": 1439806125,
  "nonce": "0xa80237652e46c99b",
  "difficulty": 3804265599798,
  "gasLimit": {
    "_hex": "0x2fefd8"
  },
  "gasUsed": {
    "_hex": "0xf87c"
  },
  "miner": "0xe6A7a1d47ff21B6321162AEA7C6CB457D5476Bca",
  "extraData": "0x476574682f76312e302e312d38326566323666362f6c696e75782f676f312e34",
  "transactions": [
    {
      "hash": "0x8a7574c56a3c750b303b48c63dc4a4668b3c108f9a1dc9ec0dc5a717c7d58554",
      "blockHash": "0xd086441a5ac0774e8d2f78928e3e39ca0db3b58f83713323d1ee811efb26395d",
      "blockNumber": 100410,
      "transactionIndex": 0,
      "confirmations": null,
      "from": "0x7884D470204862a0d1A21122F41ee77430396Ee5",
      "gasPrice": {
        "_hex": "0xda6bfe4ae"
      },
      "gasLimit": {
        "_hex": "0x15f90"
      },
      "to": "0xbbF7FF495c4f0738098bE4E0372575576DE7E0Bb",
      "value": {
        "_hex": "0x186cc6acd4b0000"
      },
      "nonce": 50,
      "data": "0x",
      "r": "0xe52a4d3aa2f831eb514bdce73b2906ace31724d9c2ff2e039934014dbd9892b4",
      "s": "0x2420502451d05c968845a6e36e7ee84cb792f5803d02294fcc3508a803d105b0",
      "v": 27,
      "creates": null,
      "raw": "0xf86d32850da6bfe4ae83015f9094bbf7ff495c4f0738098be4e0372575576de7e0bb880186cc6acd4b0000801ba0e52a4d3aa2f831eb514bdce73b2906ace31724d9c2ff2e039934014dbd9892b4a02420502451d05c968845a6e36e7ee84cb792f5803d02294fcc3508a803d105b0",
      "networkId": 0,
      "chainId": 0
    },
    {
      "hash": "0xa9011df39715c66876aaad7c08784519a9702b6aec1cb38fdd28efe9f7be6f2c",
      "blockHash": "0xd086441a5ac0774e8d2f78928e3e39ca0db3b58f83713323d1ee811efb26395d",
      "blockNumber": 100410,
      "transactionIndex": 1,
      "confirmations": null,
      "from": "0xeD3Fe86896534C24D9F91232faE34b78DFf3c1f4",
      "gasPrice": {
        "_hex": "0xd9abeaee2"
      },
      "gasLimit": {
        "_hex": "0x5208"
      },
      "to": "0x32Be343B94f860124dC4fEe278FDCBD38C102D88",
      "value": {
        "_hex": "0x957aa741d51b2000"
      },
      "nonce": 5,
      "data": "0x",
      "r": "0x1133fb28652fc266c93db04d82d04f09b1a418ca9ceacc43828de885abb7ab04",
      "s": "0x688d0135278b7708ac7f280882f9427cf1dbec9c20c5406232ed8662259d384c",
      "v": 27,
      "creates": null,
      "raw": "0xf86c05850d9abeaee28252089432be343b94f860124dc4fee278fdcbd38c102d8888957aa741d51b2000801ba01133fb28652fc266c93db04d82d04f09b1a418ca9ceacc43828de885abb7ab04a0688d0135278b7708ac7f280882f9427cf1dbec9c20c5406232ed8662259d384c",
      "networkId": 0,
      "chainId": 0
    },
    {
      "hash": "0x480689b48015956a860a719c002c3bebe3d06021c2e1b2d5b77cb5f0e6948fb6",
      "blockHash": "0xd086441a5ac0774e8d2f78928e3e39ca0db3b58f83713323d1ee811efb26395d",
      "blockNumber": 100410,
      "transactionIndex": 2,
      "confirmations": null,
      "from": "0x77e41B4125b7c14757e0f07fE36b2E95db757a10",
      "gasPrice": {
        "_hex": "0xd641f460d"
      },
      "gasLimit": {
        "_hex": "0x55f0"
      },
      "to": "0x2910543Af39abA0Cd09dBb2D50200b3E800A63D2",
      "value": {
        "_hex": "0xf91b35e596430000"
      },
      "nonce": 12,
      "data": "0x454e47583939505930",
      "r": "0xbec53e0f6519fedb14405e914a573d3a99e6b53a3118dbd6e693d7a98529622f",
      "s": "0x0af69bb537950890b00a13eb7adf4d199279abcfe51cb2cd382c7ad9a46db5c1",
      "v": 27,
      "creates": null,
      "raw": "0xf8750c850d641f460d8255f0942910543af39aba0cd09dbb2d50200b3e800a63d288f91b35e59643000089454e475839395059301ba0bec53e0f6519fedb14405e914a573d3a99e6b53a3118dbd6e693d7a98529622fa00af69bb537950890b00a13eb7adf4d199279abcfe51cb2cd382c7ad9a46db5c1",
      "networkId": 0,
      "chainId": 0
    }
  ]
}