{
  "hash": "0x0a04004163ccb71d41e1d46a43e64038097bc9e83af357594ba3e190dd6a1258",
  "parentHash": "0x27ec8289c839eca1fd2343df71cd871acbfe6a7ec463f5d0234b9f3460ddc31b",
  "number": 49749,
  "timestamp": 1438978384,
  "nonce": "0x487455817145a4f9",
  "difficulty": 1493681955482,
  "gasLimit": {
    "_hex": "0x3d477"
  },
  "gasUsed": {
    "_hex": "0x546c"
  },
  "miner": "0xa50ec0D39fa913E62f1Bae7074E6F36caA71855b",
  "extraData": "0x",
  "transactions": [
    {
      "hash": "0x6f8058676260087766aec3afb48a404f3d5c84976c1183b5dbbfd9fd87caa2d4",
      "blockHash": "0x0a04004163ccb71d41e1d46a43e64038097bc9e83af357594ba3e190dd6a1258",
      "blockNumber": 49749,
      "transactionIndex": 0,
      "confirmations": null,
      "from": "0xb782BFD1e2DE70F467646f9Bc09EA5b1Fcf450Af",
      "gasPrice": {
        "_hex": "0x110c8f7d8de"
      },
      "gasLimit": {
        "_hex": "0xc350"
      },
      "to": "0x2910543Af39abA0Cd09dBb2D50200b3E800A63D2",
      "value": {
        "_hex": "0xd54d3590f5c10000"
      },
      "nonce": 2,
      "data": "0x454e3845464b545752",
      "r": "0x8562e22c2b8fa0c5e55a0ce1a311cba74cfc9c0ecc517a362f943b98461d8baa",
      "s": "0x533cab762f0fc00802761c080ea80881cf9ddb04bd6c9e783dbd21acb79e7364",
      "v": 27,
      "creates": null,
      "raw": "0xf87602860110c8f7d8de82c350942910543af39aba0cd09dbb2d50200b3e800a63d288d54d3590f5c1000089454e3845464b5457521ba08562e22c2b8fa0c5e55a0ce1a311cba74cfc9c0ecc517a362f943b98461d8baaa0533cab762f0fc00802761c080ea80881cf9ddb04bd6c9e783dbd21acb79e7364",
      "networkId": 0,
      "chainId": 0
    }
  ]
}