{
  "hash": "0x8357305ff2cd39c784178400b89f57f0fc572472c9f4d1b975c393b1fe38f773",
  "parentHash": "0xeff3e5321b1b1d6486925371eca04484f57e91b54c218d7ba19889252afc85b7",
  "number": 90442,
  "timestamp": 1439640074,
  "nonce": "0x9004619f44c477b9",
  "difficulty": 3335086884185,
  "gasLimit": {
    "_hex": "0x2fefd8"
  },
  "gasUsed": {
    "_hex": "0x5208"
  },
  "miner": "0xe6A7a1d47ff21B6321162AEA7C6CB457D5476Bca",
  "extraData": "0x476574682f76312e302e312d38326566323666362f6c696e75782f676f312e34",
  "transactions": [
    {
      "hash": "0x063cda6975967d625042bfe614dfcd6a5b18ed32a7653ff901aacbf045471474",
      "blockHash": "0x8357305ff2cd39c784178400b89f57f0fc572472c9f4d1b975c393b1fe38f773",
      "blockNumber": 90442,
      "transactionIndex": 0,
      "confirmations": null,
      "from": "0x8293b65bD915B9FF87F6aDAb479da2e5b6633fDB",
      "gasPrice": {
        "_hex": "0xd397f9425"
      },
      "gasLimit": {
        "_hex": "0x15f90"
      },
      "to": "0x9f78552704fe7e52cC7C3853534aA2C3cf580D54",
      "value": {
        "_hex": "0x8ac7230489e80000"
      },
      "nonce": 4,
      "data": "0x",
      "r": "0xe5e875023acd4d462e34750645fa86463c3a717c90fa9a57820e6fa69caafe56",
      "s": "0x6d6db376c0497fe3fd94ccbfe841a76f3159128b24ddd6317a957c5643a2e312",
      "v": 28,
      "creates": null,
      "raw": "0xf86d04850d397f942583015f90949f78552704fe7e52cc7c3853534aa2c3cf580d54888ac7230489e80000801ca0e5e875023acd4d462e34750645fa86463c3a717c90fa9a57820e6fa69caafe56a06d6db376c0497fe3fd94ccbfe841a76f3159128b24ddd6317a957c5643a2e312",
      "networkId": 0,
      "chainId": 0
    }
  ]
}