{
  "hash": "0xe06062740dd9201a94bd37e1165ea6c25b1f1c5ea883c1f35da474cb241efbeb",
  "parentHash": "0xbcd2bd67a6fa21681c979008fe43798130446687cda39ecdd513e790d707efd9",
  "number": 104811,
  "timestamp": 1439876193,
  "nonce": "0xa7dfd20eda44545f",
  "difficulty": 4348694467610,
  "gasLimit": {
    "_hex": "0x2fefd8"
  },
  "gasUsed": {
    "_hex": "0x5208"
  },
  "miner": "0xEF247E639d49461D25F57e9362CadE3120910Ce0",
  "extraData": "0x476574682f76312e302e312f6c696e75782f676f312e342e32",
  "transactions": [
    {
      "hash": "0x080e8ca6c050d647faed48aff3733b8fa357a6e676f89b5a2ed4ba060d7fc515",
      "blockHash": "0xe06062740dd9201a94bd37e1165ea6c25b1f1c5ea883c1f35da474cb241efbeb",
      "blockNumber": 104811,
      "transactionIndex": 0,
      "confirmations": null,
      "from": "0x1308A2e95c0160B90803ddCA9B9a5bb55E416d79",
      "gasPrice": {
        "_hex": "0xd31f47328"
      },
      "gasLimit": {
        "_hex": "0x15f90"
      },
      "to": "0xbCab99c9250A69cCD7395f2543ed52FF1e220398",
      "value": {
        "_hex": "0x699b3630664960c00"
      },
      "nonce": 164,
      "data": "0x",
      "r": "0x7005e4f2d7ebdacb0057d6f3b9b2fbde7e669f6f31689af1d86d0da0b973858b",
      "s": "0x65c55f0395ceb50766b8e9b3c1a2bcf574cf632dd0348ff3a6399b239e0c45be",
      "v": 27,
      "creates": null,
      "raw": "0xf86f81a4850d31f4732883015f9094bcab99c9250a69ccd7395f2543ed52ff1e220398890699b3630664960c00801ba07005e4f2d7ebdacb0057d6f3b9b2fbde7e669f6f31689af1d86d0da0b973858ba065c55f0395ceb50766b8e9b3c1a2bcf574cf632dd0348ff3a6399b239e0c45be",
      "networkId": 0,
      "chainId": 0
    }
  ]
}