{
  "hash": "0x7df3436ce2561561c896b67f3bb7daf90533cb24a893c84175ac692e1b01d6f9",
  "parentHash": "0x8dfbc9f1e7acf006962cdc101d28fc5d8e85582cc5a89c154c1fcffe6f8dd0cc",
  "number": 75512,
  "timestamp": 1439404688,
  "nonce": "0xfa794054a8f7ec10",
  "difficulty": 2208284552288,
  "gasLimit": {
    "_hex": "0x2fefd8"
  },
  "gasUsed": {
    "_hex": "0x5208"
  },
  "miner": "0x46b92ea5c3E696bf123354DfCc564cbac1C90671",
  "extraData": "0x",
  "transactions": [
    {
      "hash": "0x629659766da60ec0de48b2a5a872f5f2dcb801ee3370962b79d3a754bd26ec88",
      "blockHash": "0x7df3436ce2561561c896b67f3bb7daf90533cb24a893c84175ac692e1b01d6f9",
      "blockNumber": 75512,
      "transactionIndex": 0,
      "confirmations": null,
      "from": "0x1BF3aa6bA1a55E2e26b26a4799d33c2c14945406",
      "gasPrice": {
        "_hex": "0xd0308a3d1"
      },
      "gasLimit": {
        "_hex": "0x5208"
      },
      "to": "0x32Be343B94f860124dC4fEe278FDCBD38C102D88",
      "value": {
        "_hex": "0x8ac2f7a27ecc4000"
      },
      "nonce": 0,
      "data": "0x",
      "r": "0x52ebdd92cd640a73df9e2471b74ed277c156f490f22e1b1cd314a7562d6fa9d2",
      "s": "0x2458f3a93562277ebc23d44401cf2ed16308d26a6a212e4e775218215ad4f7a3",
      "v": 28,
      "creates": null,
      "raw": "0xf86c80850d0308a3d18252089432be343b94f860124dc4fee278fdcbd38c102d88888ac2f7a27ecc4000801ca052ebdd92cd640a73df9e2471b74ed277c156f490f22e1b1cd314a7562d6fa9d2a02458f3a93562277ebc23d44401cf2ed16308d26a6a212e4e775218215ad4f7a3",
      "networkId": 0,
      "chainId": 0
    }
  ]
}