{
  "hash": "0x452f99f74fe4591c8cacbc29c51afa1843a6a025ef8a8118ae1ae032ee67fce3",
  "parentHash": "0x7d19af34bbf32019caf674ff7557fa240e105e58e99aaaf7d631853746b1af27",
  "number": 69128,
  "timestamp": 1439298617,
  "nonce": "0xce7c5b0987722ed6",
  "difficulty": 2061927206602,
  "gasLimit": {
    "_hex": "0x2fefd8"
  },
  "gasUsed": {
    "_hex": "0x5208"
  },
  "miner": "0xf927a40C8B7F6E07c5af7FA2155B4864a4112B13",
  "extraData": "0x",
  "transactions": [
    {
      "hash": "0x79c50c7f34b0fed7954b0f2bd9c9cad1973951cf0ac5250a16104e922c3d88a4",
      "blockHash": "0x452f99f74fe4591c8cacbc29c51afa1843a6a025ef8a8118ae1ae032ee67fce3",
      "blockNumber": 69128,
      "transactionIndex": 0,
      "confirmations": null,
      "from": "0xB21579b0E4fEE074437eCf5422a88cd044A3aCfe",
      "gasPrice": {
        "_hex": "0x746a528800"
      },
      "gasLimit": {
        "_hex": "0x5267"
      },
      "to": "0xAD8c7FBFaBC46C35aDb03F7b3A67e731E5793899",
      "value": {
        "_hex": "0x451c839d65720000"
      },
      "nonce": 0,
      "data": "0x",
      "r": "0xdbbe5da1e5ca74f0d45b2911e1afceca405f9722441866c229976b67b9d2247a",
      "s": "0x7f83c168655f7b2f6013175612628c18679e56b4ec5afed24a68de406571fe11",
      "v": 27,
      "creates": null,
      "raw": "0xf86c8085746a52880082526794ad8c7fbfabc46c35adb03f7b3a67e731e579389988451c839d65720000801ba0dbbe5da1e5ca74f0d45b2911e1afceca405f9722441866c229976b67b9d2247aa07f83c168655f7b2f6013175612628c18679e56b4ec5afed24a68de406571fe11",
      "networkId": 0,
      "chainId": 0
    }
  ]
}