{
  "hash": "0xd136d35e88d9ac73430f90f15d362640bc50f57a15913509b6eb80746afdcb3b",
  "parentHash": "0x83189476101927e938b3289cff2f2e76c1cfcc6840dcc22a796e0a60005be0d2",
  "number": 48403,
  "timestamp": 1438956610,
  "nonce": "0x0b1414fab301c87e",
  "difficulty": 1456467541025,
  "gasLimit": {
    "_hex": "0x16ba2"
  },
  "gasUsed": {
    "_hex": "0x5208"
  },
  "miner": "0x3FF679B0823a026F2378E5f5F22A6F127cC85828",
  "extraData": "0x476574682f76312e302e302f6c696e75782f676f312e342e32",
  "transactions": [
    {
      "hash": "0x8dc15a700accf7f61bc8fc78ea220ed183bde20349e08dcd501563031391e10e",
      "blockHash": "0xd136d35e88d9ac73430f90f15d362640bc50f57a15913509b6eb80746afdcb3b",
      "blockNumber": 48403,
      "transactionIndex": 0,
      "confirmations": null,
      "from": "0xDf3435b39f96cA23a759D8B1eCC82ad9cE30CAAf",
      "gasPrice": {
        "_hex": "0xcc0b4ab20"
      },
      "gasLimit": {
        "_hex": "0x5208"
      },
      "to": "0x32Be343B94f860124dC4fEe278FDCBD38C102D88",
      "value": {
        "_hex": "0x6c6b8f456af2b00000"
      },
      "nonce": 0,
      "data": "0x",
      "r": "0x647c112fffe51883de7c4a09e79177e014b2eeb4cd403b41dd2749a99b299c4d",
      "s": "0x026fb899045beab38fe02b2b0a5087a6596b36a25a9a9498fa8d480156b5e3f2",
      "v": 28,
      "creates": null,
      "raw": "0xf86d80850cc0b4ab208252089432be343b94f860124dc4fee278fdcbd38c102d88896c6b8f456af2b00000801ca0647c112fffe51883de7c4a09e79177e014b2eeb4cd403b41dd2749a99b299c4da0026fb899045beab38fe02b2b0a5087a6596b36a25a9a9498fa8d480156b5e3f2",
      "networkId": 0,
      "chainId": 0
    }
  ]
}