{
  "hash": "0x1a78366b121b9b2e9ac803033df1ae9215b473ba604b3ff07af2f08a99374a81",
  "parentHash": "0x4da2880ccdeca8337bbb47e14e1c93014469a528a49e59f43f7014440c9ae7f4",
  "number": 104236,
  "timestamp": 1439866510,
  "nonce": "0x46835d20ac8e20c6",
  "difficulty": 4279477576125,
  "gasLimit": {
    "_hex": "0x2fefd8"
  },
  "gasUsed": {
    "_hex": "0x5208"
  },
  "miner": "0xe6A7a1d47ff21B6321162AEA7C6CB457D5476Bca",
  "extraData": "0x476574682f76312e302e312d38326566323666362f6c696e75782f676f312e34",
  "transactions": [
    {
      "hash": "0x8568105a2d9d24213b927643926ae96482782fbb3a4e171273ec56940c52dbb4",
      "blockHash": "0x1a78366b121b9b2e9ac803033df1ae9215b473ba604b3ff07af2f08a99374a81",
      "blockNumber": 104236,
      "transactionIndex": 0,
      "confirmations": null,
      "from": "0x120A270bbC009644e35F0bB6ab13f95b8199c4ad",
      "gasPrice": {
        "_hex": "0xcc0113110"
      },
      "gasLimit": {
        "_hex": "0x3d090"
      },
      "to": "0x9eE2bcfE9d322cFD264b1aa913ff9e2Ca905C204",
      "value": {
        "_hex": "0x29775e1f4946fe8000"
      },
      "nonce": 741,
      "data": "0x",
      "r": "0x36ab741d8a45ccc75e9a8508355f2708e907eee7a4fbc6122e44478458d8dd84",
      "s": "0x4430e987ef6b0ece105bfac20fef8e0cff17cc1427afe4ff795ed560852b8710",
      "v": 28,
      "creates": null,
      "raw": "0xf8708202e5850cc01131108303d090949ee2bcfe9d322cfd264b1aa913ff9e2ca905c2048929775e1f4946fe8000801ca036ab741d8a45ccc75e9a8508355f2708e907eee7a4fbc6122e44478458d8dd84a04430e987ef6b0ece105bfac20fef8e0cff17cc1427afe4ff795ed560852b8710",
      "networkId": 0,
      "chainId": 0
    }
  ]
}