{
  "hash": "0xf438975178d33aeed7c1bfb6a7211f3022b20ea38b86f5e495b31ce47b69dff2",
  "parentHash": "0x8a95071df88771a5f38cda41c53f086734833d100d4840cd5e450802733c15ee",
  "number": 64839,
  "timestamp": 1439227061,
  "nonce": "0xe5e5ffbe7dce0018",
  "difficulty": 1903293789569,
  "gasLimit": {
    "_hex": "0x2fefd8"
  },
  "gasUsed": {
    "_hex": "0xa410"
  },
  "miner": "0xf927a40C8B7F6E07c5af7FA2155B4864a4112B13",
  "extraData": "0x",
  "transactions": [
    {
      "hash": "0x31cd7c4aea375fe54904da3217d0a5f5605f32e60007e76bc29aceec2408f72e",
      "blockHash": "0xf438975178d33aeed7c1bfb6a7211f3022b20ea38b86f5e495b31ce47b69dff2",
      "blockNumber": 64839,
      "transactionIndex": 0,
      "confirmations": null,
      "from": "0x1cc15169AeE1d7dffEFF5CAcaaBe484b4c172d60",
      "gasPrice": {
        "_hex": "0xba43b7400"
      },
      "gasLimit": {
        "_hex": "0x5208"
      },
      "to": "0xD5cf4BD91f4F5101E2dCf01DC83818ABa4A75baE",
      "value": {
        "_hex": "0x24b182ea847e000"
      },
      "nonce": 1,
      "data": "0x",
      "r": "0xe212ae5ef80ce1107adc9e3a979429730e4e35080dc93db5dfcfcad65181f0a7",
      "s": "0x72ebe26624038e0a76d1490c00f55756a31520ae4ecc5403a1143d868aec146b",
      "v": 27,
      "creates": null,
      "raw": "0xf86c01850ba43b740082520894d5cf4bd91f4f5101e2dcf01dc83818aba4a75bae88024b182ea847e000801ba0e212ae5ef80ce1107adc9e3a979429730e4e35080dc93db5dfcfcad65181f0a7a072ebe26624038e0a76d1490c00f55756a31520ae4ecc5403a1143d868aec146b",
      "networkId": 0,
      "chainId": 0
    },
    {
      "hash": "0xce044b22293033a1d884977c2241f8708b43695b55b6ae994d26c41b77eb8778",
      "blockHash": "0xf438975178d33aeed7c1bfb6a7211f3022b20ea38b86f5e495b31ce47b69dff2",
      "blockNumber": 64839,
      "transactionIndex": 1,
      "confirmations": null,
      "from": "0x62863432702C48884c8831D4d2bB2C8Ef3867182",
      "gasPrice": {
        "_hex": "0xba43b7400"
      },
      "gasLimit": {
        "_hex": "0x5208"
      },
      "to": "0xe687Af0f0C4D28fF4651B7d75504642746c417D1",
      "value": {
        "_hex": "0x21cd1d4f5270000"
      },
      "nonce": 1,
      "data": "0x",
      "r": "0xbb24042104a729c4c1e00f82e1a1624a81dc5729928969cda84f900686643b87",
      "s": "0x4bd67775a42591f607ae52b9170e6ee3d7c893c20c9326734246837f7398f3fb",
      "v": 28,
      "creates": null,
      "raw": "0xf86c01850ba43b740082520894e687af0f0c4d28ff4651b7d75504642746c417d188021cd1d4f5270000801ca0bb24042104a729c4c1e00f82e1a1624a81dc5729928969cda84f900686643b87a04bd67775a42591f607ae52b9170e6ee3d7c893c20c9326734246837f7398f3fb",
      "networkId": 0,
      "chainId": 0
    }
  ]
}