{
  "hash": "0x3057ea6fc2dfa60699579e5ac1c74be08096f56ff38f686df5b92111db8e1579",
  "parentHash": "0x52811f081d128a8e340d7537c1007e9a320650680f8417a92faee46b6c942ae5",
  "number": 68131,
  "timestamp": 1439283123,
  "nonce": "0x366c7720ba20b388",
  "difficulty": 1964858213527,
  "gasLimit": {
    "_hex": "0x2fefd8"
  },
  "gasUsed": {
    "_hex": "0xbe6c"
  },
  "miner": "0xf927a40C8B7F6E07c5af7FA2155B4864a4112B13",
  "extraData": "0x",
  "transactions": [
    {
      "hash": "0x5962b1de9791d8868396407db74868e56a5f4098efaa7f71bae8cbc4a4b409fd",
      "blockHash": "0x3057ea6fc2dfa60699579e5ac1c74be08096f56ff38f686df5b92111db8e1579",
      "blockNumber": 68131,
      "transactionIndex": 0,
      "confirmations": null,
      "from": "0xC3254b9978566516cAa1F1c652fe3Ca372e27d6C",
      "gasPrice": {
        "_hex": "0xba43b7400"
      },
      "gasLimit": {
        "_hex": "0x15f90"
      },
      "to": "0x793AE8C1b1a160BFc07BFB0d04F85eab1A71F4f2",
      "value": {
        "_hex": "0x0"
      },
      "nonce": 0,
      "data": "0x3ba15036",
      "r": "0xc0b6829dfed650199488bc22f7a30d1833e954f51ca09c6d71b554e514c834aa",
      "s": "0x300aedb4a539c829da7e89b2faa06c47105cbee50a4b5856dd875a9632088710",
      "v": 27,
      "creates": null,
      "raw": "0xf86980850ba43b740083015f9094793ae8c1b1a160bfc07bfb0d04f85eab1a71f4f280843ba150361ba0c0b6829dfed650199488bc22f7a30d1833e954f51ca09c6d71b554e514c834aaa0300aedb4a539c829da7e89b2faa06c47105cbee50a4b5856dd875a9632088710",
      "networkId": 0,
      "chainId": 0
    }
  ]
}