{
  "hash": "0xd5519a05c615a642c73970e58552383d564e21661349e161600193ed9b717b2f",
  "parentHash": "0xb344578b8fca33342908211c262eb7c8cc0e067dc0a16c1ee65986ad6873a1a9",
  "number": 119608,
  "timestamp": 1440145894,
  "nonce": "0x59a3bd4cf3407a09",
  "difficulty": 4381491020484,
  "gasLimit": {
    "_hex": "0x2fefd8"
  },
  "gasUsed": {
    "_hex": "0xf618"
  },
  "miner": "0xa70a9a7040d542C632D8e0bE7c5513A8a5Bbc752",
  "extraData": "0x",
  "transactions": [
    {
      "hash": "0x280fb04393e6998e5f006f6e96a410b858883098ccfee91f15f038ce9730d2b3",
      "blockHash": "0xd5519a05c615a642c73970e58552383d564e21661349e161600193ed9b717b2f",
      "blockNumber": 119608,
      "transactionIndex": 0,
      "confirmations": null,
      "from": "0x2910543Af39abA0Cd09dBb2D50200b3E800A63D2",
      "gasPrice": {
        "_hex": "0xd3022aa8e"
      },
      "gasLimit": {
        "_hex": "0x5208"
      },
      "to": "0xb18C1F3dc4887497b28ca4beF419370Dc8946E26",
      "value": {
        "_hex": "0xad77cf8e18e3f8000"
      },
      "nonce": 1159,
      "data": "0x",
      "r": "0xd93be1dfd335543d84133d72b74e64fb6c7a0f578c3b162709dd9d0412825789",
      "s": "0x094b58a30aa06ecea4578c9a7a6cc8664d98dc23612b07151c852210a5d68593",
      "v": 28,
      "creates": null,
      "raw": "0xf86f820487850d3022aa8e82520894b18c1f3dc4887497b28ca4bef419370dc8946e26890ad77cf8e18e3f8000801ca0d93be1dfd335543d84133d72b74e64fb6c7a0f578c3b162709dd9d0412825789a0094b58a30aa06ecea4578c9a7a6cc8664d98dc23612b07151c852210a5d68593",
      "networkId": 0,
      "chainId": 0
    },
    {
      "hash": "0x811db65ba46b4629c65c9d017475ec89e8ca8a742b32cdeb969c0f0cb127ab79",
      "blockHash": "0xd5519a05c615a642c73970e58552383d564e21661349e161600193ed9b717b2f",
      "blockNumber": 119608,
      "transactionIndex": 1,
      "confirmations": null,
      "from": "0x60a175bB691fEE8557a7b6D8eFC9E49889486f41",
      "gasPrice": {
        "_hex": "0xba43b7400"
      },
      "gasLimit": {
        "_hex": "0x15f90"
      },
      "to": "0xBb7f43EDfd8bf08B022fEd5BD91e3f9dE7e74D09",
      "value": {
        "_hex": "0xde0b6b3a7640000"
      },
      "nonce": 19,
      "data": "0x",
      "r": "0x6b13496d2637acba2a72ea72b40ee84592667840b078621b9cfc8c6a88b9f905",
      "s": "0x25115204cdda62f7041d86224931d3d7c97d7c321e47619a53320cdc58d0671a",
      "v": 28,
      "creates": null,
      "raw": "0xf86d13850ba43b740083015f9094bb7f43edfd8bf08b022fed5bd91e3f9de7e74d09880de0b6b3a7640000801ca06b13496d2637acba2a72ea72b40ee84592667840b078621b9cfc8c6a88b9f905a025115204cdda62f7041d86224931d3d7c97d7c321e47619a53320cdc58d0671a",
      "networkId": 0,
      "chainId": 0
    },
    {
      "hash": "0xbae485d25e170bc0c8ce3975afdacf0215b2f8d7b44793fa87946c971efdefb0",
      "blockHash": "0xd5519a05c615a642c73970e58552383d564e21661349e161600193ed9b717b2f",
      "blockNumber": 119608,
      "transactionIndex": 2,
      "confirmations": null,
      "from": "0x32Be343B94f860124dC4fEe278FDCBD38C102D88",
      "gasPrice": {
        "_hex": "0xba43b7400"
      },
      "gasLimit": {
        "_hex": "0x5208"
      },
      "to": "0xDbEdE24fCCCAa29C0F7E950314a9b28f91f8d659",
      "value": {
        "_hex": "0x15aef9f1c31c7f0000"
      },
      "nonce": 1511,
      "data": "0x",
      "r": "0x5ad67024ded0b4c08ff50b0c6a3e525163387872ae43fd8e93e4d41061092b1d",
      "s": "0x3fa7fb9225314057a6751ca0fc1645de136136fd1911edbc98b9ae41f10cd7b2",
      "v": 27,
      "creates": null,
      "raw": "0xf86f8205e7850ba43b740082520894dbede24fcccaa29c0f7e950314a9b28f91f8d6598915aef9f1c31c7f0000801ba05ad67024ded0b4c08ff50b0c6a3e525163387872ae43fd8e93e4d41061092b1da03fa7fb9225314057a6751ca0fc1645de136136fd1911edbc98b9ae41f10cd7b2",
      "networkId": 0,
      "chainId": 0
    }
  ]
}