{
  "hash": "0xdbd07d3b8ba74d636c2140db40a427e9faee3112939d7b081fe95a8bdad0416c",
  "parentHash": "0xe94d121a2cac518e3e8d8d89715b5ba03c52ebd2b8e46420115ab576bc8f4a9c",
  "number": 51228,
  "timestamp": 1439001530,
  "nonce": "0xbd33110ecf3686f9",
  "difficulty": 1564325271640,
  "gasLimit": {
    "_hex": "0x9c186"
  },
  "gasUsed": {
    "_hex": "0xddfd"
  },
  "miner": "0xbb7B8287f3F0a933474a79eAe42CBCa977791171",
  "extraData": "0x476574682f4c5649562f76312e302e312f6c696e75782f676f312e342e32",
  "transactions": [
    {
      "hash": "0x0522b16dfe6685e64e42bad3cf12b5635d5795c9ea4cd3871fb0467f2cc932c4",
      "blockHash": "0xdbd07d3b8ba74d636c2140db40a427e9faee3112939d7b081fe95a8bdad0416c",
      "blockNumber": 51228,
      "transactionIndex": 0,
      "confirmations": null,
      "from": "0xc8ebccC5F5689Fa8659d83713341e5aD19349448",
      "gasPrice": {
        "_hex": "0xcda68eb26"
      },
      "gasLimit": {
        "_hex": "0x7a120"
      },
      "to": "0xBAA54d6E90c3F4d7Ebec11bD180134C7eD8eBb52",
      "value": {
        "_hex": "0x16345785d8a0000"
      },
      "nonce": 11,
      "data": "0x",
      "r": "0x90b6cd20dd518111b0c87bb444c272f87ea7a0034f64cc018da732e99e0c2694",
      "s": "0x65f826d8effb402bd7ac228ee463563844be7d8b282110a3fc3500de528e3983",
      "v": 28,
      "creates": null,
      "raw": "0xf86d0b850cda68eb268307a12094baa54d6e90c3f4d7ebec11bd180134c7ed8ebb5288016345785d8a0000801ca090b6cd20dd518111b0c87bb444c272f87ea7a0034f64cc018da732e99e0c2694a065f826d8effb402bd7ac228ee463563844be7d8b282110a3fc3500de528e3983",
      "networkId": 0,
      "chainId": 0
    }
  ]
}