{
  "hash": "0x3c9ac100ed29e19bc233f359a5b4af6c0712e42f699255f6003a833d834bb308",
  "parentHash": "0x46832a56c320c3b7c53b559f5b13bd0a146b846930a25f0e02f0a9bf6b3d2242",
  "number": 81939,
  "timestamp": 1439510423,
  "nonce": "0x225b3e5f958eb806",
  "difficulty": 2417559200058,
  "gasLimit": {
    "_hex": "0x2fefd8"
  },
  "gasUsed": {
    "_hex": "0x5208"
  },
  "miner": "0x0089508679abF8c71BF6781687120e3E6a84584D",
  "extraData": "0x",
  "transactions": [
    {
      "hash": "0x8641155853439a7066e02cf2235ab3f40491eb16cf877668c3da435c1fc820d4",
      "blockHash": "0x3c9ac100ed29e19bc233f359a5b4af6c0712e42f699255f6003a833d834bb308",
      "blockNumber": 81939,
      "transactionIndex": 0,
      "confirmations": null,
      "from": "0xEdD03B3afA58aaE8C5732fF58e26099bc5C10659",
      "gasPrice": {
        "_hex": "0xba43b7400"
      },
      "gasLimit": {
        "_hex": "0x5208"
      },
      "to": "0xC47Aaa860008be6f65B58c6C6E02a84e666EfE31",
      "value": {
        "_hex": "0xab4db9bb28d57be000"
      },
      "nonce": 0,
      "data": "0x",
      "r": "0xdc24f7c87c870c1babd86dc92624aa81736dd618231a894322f3e336c065dde0",
      "s": "0x02266552550f2aecb833c91053345a798ba8738e8715952a3f9a31805796a34f",
      "v": 28,
      "creates": null,
      "raw": "0xf86d80850ba43b740082520894c47aaa860008be6f65b58c6c6e02a84e666efe3189ab4db9bb28d57be000801ca0dc24f7c87c870c1babd86dc92624aa81736dd618231a894322f3e336c065dde0a002266552550f2aecb833c91053345a798ba8738e8715952a3f9a31805796a34f",
      "networkId": 0,
      "chainId": 0
    }
  ]
}