{
  "hash": "0x6efa96a67b542906f6da614e7281b889e836c0a58b5499c9f3529a9ca9d101fb",
  "parentHash": "0xf35813acb250dc652a8b87a0fb304f2ff51b1e475cb660ca5078eb7a4f24c73c",
  "number": 64609,
  "timestamp": 1439223556,
  "nonce": "0x756e87085d1ab610",
  "difficulty": 1888534018013,
  "gasLimit": {
    "_hex": "0x2fefd8"
  },
  "gasUsed": {
    "_hex": "0x5208"
  },
  "miner": "0xF2d2AfF1320476cb8C6b607199D23175cc595693",
  "extraData": "0x476574682f76312e302e312f77696e646f77732f676f312e342e32",
  "transactions": [
    {
      "hash": "0x536159dc0c533b0c89d10b45635a0f77a538f9366f18e8382658849a0de23300",
      "blockHash": "0x6efa96a67b542906f6da614e7281b889e836c0a58b5499c9f3529a9ca9d101fb",
      "blockNumber": 64609,
      "transactionIndex": 0,
      "confirmations": null,
      "from": "0x6747f922385c9a6F9cfDf095F34345257DD597bE",
      "gasPrice": {
        "_hex": "0xba43b7400"
      },
      "gasLimit": {
        "_hex": "0x5208"
      },
      "to": "0x1943d2139121f9D669a1A7A1D0fb621D693FdC59",
      "value": {
        "_hex": "0x1fcbfa42bd6000"
      },
      "nonce": 15,
      "data": "0x",
      "r": "0xd05140b59ec41ab04d42a0d2a2924c9aeba2c0971739b39eaf382eca437164c4",
      "s": "0x6272218e244d9c9c8c1703701a3ff16f345832e4889a5310df628891ba15bade",
      "v": 27,
      "creates": null,
      "raw": "0xf86b0f850ba43b7400825208941943d2139121f9d669a1a7a1d0fb621d693fdc59871fcbfa42bd6000801ba0d05140b59ec41ab04d42a0d2a2924c9aeba2c0971739b39eaf382eca437164c4a06272218e244d9c9c8c1703701a3ff16f345832e4889a5310df628891ba15bade",
      "networkId": 0,
      "chainId": 0
    }
  ]
}