{
  "hash": "0x521090e6c4bc1f8608c705499168ba62f4c4f4935e086230ec3df9cabe5fb94c",
  "parentHash": "0x545fcfc836796fa54d91c63fa1fc1406035be1577fecfb2fcce6c91f751f54f7",
  "number": 53538,
  "timestamp": 1439039283,
  "nonce": "0x4ef8e33035ef49fe",
  "difficulty": 1594739615990,
  "gasLimit": {
    "_hex": "0x2b4a81"
  },
  "gasUsed": {
    "_hex": "0x5208"
  },
  "miner": "0xEF247E639d49461D25F57e9362CadE3120910Ce0",
  "extraData": "0x476574682f76312e302e312f6c696e75782f676f312e342e32",
  "transactions": [
    {
      "hash": "0x288e5952492c503b429f300836f10f8ec85b9792331eb104b4e3789ab11e1bbd",
      "blockHash": "0x521090e6c4bc1f8608c705499168ba62f4c4f4935e086230ec3df9cabe5fb94c",
      "blockNumber": 53538,
      "transactionIndex": 0,
      "confirmations": null,
      "from": "0x47ff6576639c2e94762eA5443978D7681C0E78DC",
      "gasPrice": {
        "_hex": "0xcef7f6924"
      },
      "gasLimit": {
        "_hex": "0x5208"
      },
      "to": "0xeD17Ea8E9fd42159037deE95ea173a56c54f55ce",
      "value": {
        "_hex": "0x564d702d38f5e0000"
      },
      "nonce": 7,
      "data": "0x",
      "r": "0xd5d8cc528dcc4ad2dc922316a1030c18c4edf838455ecc7f8a7d22c6d44955a6",
      "s": "0x79716625ca36dfe9a9f5db2305803395544277d1cd659b4b34d83d8a43db3cff",
      "v": 27,
      "creates": null,
      "raw": "0xf86d07850cef7f692482520894ed17ea8e9fd42159037dee95ea173a56c54f55ce890564d702d38f5e0000801ba0d5d8cc528dcc4ad2dc922316a1030c18c4edf838455ecc7f8a7d22c6d44955a6a079716625ca36dfe9a9f5db2305803395544277d1cd659b4b34d83d8a43db3cff",
      "networkId": 0,
      "chainId": 0
    }
  ]
}