{
  "hash": "0xcedf8565c440fbe37eef465f7a252104dcbabc437b98cce028f3277c0c954506",
  "parentHash": "0xcb3a00c6cd2fc08ddc458b5736d38928faed3aa2fda2f0ecbc9e65a4df5b1e64",
  "number": 47964,
  "timestamp": 1438949036,
  "nonce": "0x060bc9e1fc2a825f",
  "difficulty": 1461530703374,
  "gasLimit": {
    "_hex": "0x10f1c"
  },
  "gasUsed": {
    "_hex": "0x5208"
  },
  "miner": "0xF2d2AfF1320476cb8C6b607199D23175cc595693",
  "extraData": "0x476574682f76312e302e312f77696e646f77732f676f312e342e32",
  "transactions": [
    {
      "hash": "0x0841b277e4835a57fda4d891f4755907b7419a580eb08cc1ae90b9ee7cd04350",
      "blockHash": "0xcedf8565c440fbe37eef465f7a252104dcbabc437b98cce028f3277c0c954506",
      "blockNumber": 47964,
      "transactionIndex": 0,
      "confirmations": null,
      "from": "0xc27376f45D21E15edE3b26F2655FceE02Ccc0F2a",
      "gasPrice": {
        "_hex": "0x109ee2c7909"
      },
      "gasLimit": {
        "_hex": "0x5208"
      },
      "to": "0x38B6F7080B3814966Cd2Cd70944639679db754F9",
      "value": {
        "_hex": "0x2386f26fc10000"
      },
      "nonce": 0,
      "data": "0x",
      "r": "0x153f2033796d32afa4e21c524036f6515cbdc58d03ad8261f231d7b8e6123fb8",
      "s": "0x1b581742925fd005579d06ef24234884ba67d4c4631240a35f9e8350812329ce",
      "v": 28,
      "creates": null,
      "raw": "0xf86c80860109ee2c79098252089438b6f7080b3814966cd2cd70944639679db754f9872386f26fc10000801ca0153f2033796d32afa4e21c524036f6515cbdc58d03ad8261f231d7b8e6123fb8a01b581742925fd005579d06ef24234884ba67d4c4631240a35f9e8350812329ce",
      "networkId": 0,
      "chainId": 0
    }
  ]
}