{
  "hash": "0x9fe8d15da0783c24fd8982e074d54e8259b22d7074cdd15b1a4fa5e2f32e8a0e",
  "parentHash": "0xd121c39bcfa42825b1c0c02cf50f3404c33127dc7d247d57bee09412b97df2ae",
  "number": 89865,
  "timestamp": 1439630403,
  "nonce": "0x05be8173db588569",
  "difficulty": 3336945262121,
  "gasLimit": {
    "_hex": "0x2fefd8"
  },
  "gasUsed": {
    "_hex": "0x14a84"
  },
  "miner": "0xe6A7a1d47ff21B6321162AEA7C6CB457D5476Bca",
  "extraData": "0x476574682f76312e302e312d38326566323666362f6c696e75782f676f312e34",
  "transactions": [
    {
      "hash": "0x058650bf08b58101a8f23e063066f4a939673b96a55221f2dd913ac8d26465ca",
      "blockHash": "0x9fe8d15da0783c24fd8982e074d54e8259b22d7074cdd15b1a4fa5e2f32e8a0e",
      "blockNumber": 89865,
      "transactionIndex": 0,
      "confirmations": null,
      "from": "0x5c34E9095588400B7CFF963daa495eFbEFCa083E",
      "gasPrice": {
        "_hex": "0xda2f8ed0e"
      },
      "gasLimit": {
        "_hex": "0x5208"
      },
      "to": "0x32Be343B94f860124dC4fEe278FDCBD38C102D88",
      "value": {
        "_hex": "0x2f9af6ec13be3000"
      },
      "nonce": 2,
      "data": "0x",
      "r": "0xb09b1a385618201e2481f71ff2bceb46dfea417528b564f3daa6dd1376a2b05e",
      "s": "0x7dd5b8982df1da949a84dd00d7d1af5606091fe9bd3f9b7faf2bb25aecbde4e5",
      "v": 28,
      "creates": null,
      "raw": "0xf86c02850da2f8ed0e8252089432be343b94f860124dc4fee278fdcbd38c102d88882f9af6ec13be3000801ca0b09b1a385618201e2481f71ff2bceb46dfea417528b564f3daa6dd1376a2b05ea07dd5b8982df1da949a84dd00d7d1af5606091fe9bd3f9b7faf2bb25aecbde4e5",
      "networkId": 0,
      "chainId": 0
    },
    {
      "hash": "0xdbc79dd5f31e69320b1b56dc5dae8b2641df214cda78ca9b6afe7fc44580b0e1",
      "blockHash": "0x9fe8d15da0783c24fd8982e074d54e8259b22d7074cdd15b1a4fa5e2f32e8a0e",
      "blockNumber": 89865,
      "transactionIndex": 1,
      "confirmations": null,
      "from": "0x04a6c6a293340Fc3f2244D097b0CFD84d5317bA5",
      "gasPrice": {
        "_hex": "0xda2f8ed0e"
      },
      "gasLimit": {
        "_hex": "0x5208"
      },
      "to": "0x32Be343B94f860124dC4fEe278FDCBD38C102D88",
      "value": {
        "_hex": "0x2f9d02bf52a8f6000"
      },
      "nonce": 1,
      "data": "0x",
      "r": "0xdb920d694f49d6c42eb72fa6c7ecf474ec51e214afa0713314d12cc790a9ea5a",
      "s": "0x23a4936e4d2fad20770d939a184d768bd6f2023d65fa278900542555202ed513",
      "v": 27,
      "creates": null,
      "raw": "0xf86d01850da2f8ed0e8252089432be343b94f860124dc4fee278fdcbd38c102d888902f9d02bf52a8f6000801ba0db920d694f49d6c42eb72fa6c7ecf474ec51e214afa0713314d12cc790a9ea5aa023a4936e4d2fad20770d939a184d768bd6f2023d65fa278900542555202ed513",
      "networkId": 0,
      "chainId": 0
    },
    {
      "hash": "0xad28c1860ecf9686d1ca10b497ada41984a92f40c7c99b1e37213498ba0c9481",
      "blockHash": "0x9fe8d15da0783c24fd8982e074d54e8259b22d7074cdd15b1a4fa5e2f32e8a0e",
      "blockNumber": 89865,
      "transactionIndex": 2,
      "confirmations": null,
      "from": "0xFCb0b0382b155BE6Dd68dcdB7f29d2366D1C7502",
      "gasPrice": {
        "_hex": "0xda2f8ed0e"
      },
      "gasLimit": {
        "_hex": "0x5208"
      },
      "to": "0x32Be343B94f860124dC4fEe278FDCBD38C102D88",
      "value": {
        "_hex": "0x7aa54a4d61e80800"
      },
      "nonce": 1,
      "data": "0x",
      "r": "0x61b7adda7a921587014bff81ac6e8eb39a91ef928e8d9db12be057319a764d88",
      "s": "0x73675384a681949f01126bedad491fc993d3354198af3c4cfc32e28ee621cfbf",
      "v": 28,
      "creates": null,
      "raw": "0xf86c01850da2f8ed0e8252089432be343b94f860124dc4fee278fdcbd38c102d88887aa54a4d61e80800801ca061b7adda7a921587014bff81ac6e8eb39a91ef928e8d9db12be057319a764d88a073675384a681949f01126bedad491fc993d3354198af3c4cfc32e28ee621cfbf",
      "networkId": 0,
      "chainId": 0
    },
    {
      "hash": "0x9738a5221c3ac3995ea5eb9419316cfacd30d3d48c2489ff0904b0b4db4eab50",
      "blockHash": "0x9fe8d15da0783c24fd8982e074d54e8259b22d7074cdd15b1a4fa5e2f32e8a0e",
      "blockNumber": 89865,
      "transactionIndex": 3,
      "confirmations": null,
      "from": "0x72dcecdD4a7374231676f7fA910A678DfC7c98D6",
      "gasPrice": {
        "_hex": "0xd7d40ace3"
      },
      "gasLimit": {
        "_hex": "0x15f90"
      },
      "to": "0x2910543Af39abA0Cd09dBb2D50200b3E800A63D2",
      "value": {
        "_hex": "0x8ac7230489e80000"
      },
      "nonce": 7,
      "data": "0x454e35585546344d47",
      "r": "0xd01d06f675986229b530eb60f4db10037a39d6d93b882043e96eb2725c3bd5d8",
      "s": "0x564ef23c6832906b1588be48ed46e4c58a9e803c21790be5fa53159167e8b841",
      "v": 28,
      "creates": null,
      "raw": "0xf87607850d7d40ace383015f90942910543af39aba0cd09dbb2d50200b3e800a63d2888ac7230489e8000089454e35585546344d471ca0d01d06f675986229b530eb60f4db10037a39d6d93b882043e96eb2725c3bd5d8a0564ef23c6832906b1588be48ed46e4c58a9e803c21790be5fa53159167e8b841",
      "networkId": 0,
      "chainId": 0
    }
  ]
}