{
  "hash": "0x9ded1b8daa75a1442f024503d36e32cb582cc87fcb375f31c5ce412d4e3ea880",
  "parentHash": "0x131e749fac024decbb418a838022181beed71ab01f4a1584709a133b0d2442c2",
  "number": 81441,
  "timestamp": 1439501689,
  "nonce": "0xa24e1f591573b0cc",
  "difficulty": 2453378958387,
  "gasLimit": {
    "_hex": "0x2fefd8"
  },
  "gasUsed": {
    "_hex": "0x5208"
  },
  "miner": "0x0a58b1C9aaF19693813c11b8a20D20C2a8Fe8883",
  "extraData": "0xd983010001844765746887676f312e342e328777696e646f7773",
  "transactions": [
    {
      "hash": "0x43fb207d6fae8e08c08225c3bcefdf90754c602e86dc5708026f46b78f10e0b6",
      "blockHash": "0x9ded1b8daa75a1442f024503d36e32cb582cc87fcb375f31c5ce412d4e3ea880",
      "blockNumber": 81441,
      "transactionIndex": 0,
      "confirmations": null,
      "from": "0xfC9491EAfD2285d8469b6A20000eb9d97F93Fe5F",
      "gasPrice": {
        "_hex": "0xce7ab9c0d"
      },
      "gasLimit": {
        "_hex": "0x15f90"
      },
      "to": "0x4b1fE3B3697EFD4515b60Fc3c54995B215F58e97",
      "value": {
        "_hex": "0x2386f26fc10000"
      },
      "nonce": 0,
      "data": "0x",
      "r": "0x35e4b8796902002e896671ae28e62bf51426ab28849b5f6c5a6b886a3fafb57d",
      "s": "0x7e79b4fa725bbacf5997f86f43dfe736e8b39b0e3c0220b0aacf4d64aabe5de1",
      "v": 28,
      "creates": null,
      "raw": "0xf86c80850ce7ab9c0d83015f90944b1fe3b3697efd4515b60fc3c54995b215f58e97872386f26fc10000801ca035e4b8796902002e896671ae28e62bf51426ab28849b5f6c5a6b886a3fafb57da07e79b4fa725bbacf5997f86f43dfe736e8b39b0e3c0220b0aacf4d64aabe5de1",
      "networkId": 0,
      "chainId": 0
    }
  ]
}