{
  "hash": "0x1047fb290bab1c4d9467af523e15d06de174f7dc2e46768fc767aaf2291b743c",
  "parentHash": "0x6b3bda3be1d37afddd544ab7a5cf285f963976984d414fd1dcd3283818e42c95",
  "number": 60963,
  "timestamp": 1439164380,
  "nonce": "0x48d3b2be1619ed1e",
  "difficulty": 1742255990122,
  "gasLimit": {
    "_hex": "0x2fe3d8"
  },
  "gasUsed": {
    "_hex": "0x5208"
  },
  "miner": "0x4947190fcC30D3fb3a16233b259bFe6b3492339a",
  "extraData": "0x476574682f76312e302e312d38326566323666362f6c696e75782f676f312e34",
  "transactions": [
    {
      "hash": "0x093ed35ace9906715a79ff8fd26cfb176e26c73b823680bec7d288602f11971d",
      "blockHash": "0x1047fb290bab1c4d9467af523e15d06de174f7dc2e46768fc767aaf2291b743c",
      "blockNumber": 60963,
      "transactionIndex": 0,
      "confirmations": null,
      "from": "0x120A270bbC009644e35F0bB6ab13f95b8199c4ad",
      "gasPrice": {
        "_hex": "0xcd6c4d829"
      },
      "gasLimit": {
        "_hex": "0x15f90"
      },
      "to": "0xD388D8671aC6EDb904D91c1585DEDbd6895b9EF8",
      "value": {
        "_hex": "0xcd40b4d440ec4000"
      },
      "nonce": 59,
      "data": "0x",
      "r": "0xb5c047004254ea96a974d2cad2159e847aae0d846c459f12fd335c82a4fa21c0",
      "s": "0x0222ba617eb9b8527566c6afab33aa06ad44ed41a125c4a95652f1c0d578f581",
      "v": 28,
      "creates": null,
      "raw": "0xf86d3b850cd6c4d82983015f9094d388d8671ac6edb904d91c1585dedbd6895b9ef888cd40b4d440ec4000801ca0b5c047004254ea96a974d2cad2159e847aae0d846c459f12fd335c82a4fa21c0a00222ba617eb9b8527566c6afab33aa06ad44ed41a125c4a95652f1c0d578f581",
      "networkId": 0,
      "chainId": 0
    }
  ]
}