{
  "hash": "0x0f597ffbba818a1262ebec6c23bd4622ab128817eff0a26a92ba7aef10cc566a",
  "parentHash": "0xb6d7dfb854dd7d00bd05086cfbb68ac2fbebb03766a5f573c31bf77132d1acbd",
  "number": 68760,
  "timestamp": 1439293250,
  "nonce": "0x04e4c395177e3750",
  "difficulty": 2022134628291,
  "gasLimit": {
    "_hex": "0x2fe3de"
  },
  "gasUsed": {
    "_hex": "0x546c"
  },
  "miner": "0x4278273854a158e72fcf5E752fD5fDA7238eBea8",
  "extraData": "0x476574682f76312e302e302d30333937633636632f6c696e75782f676f312e34",
  "transactions": [
    {
      "hash": "0xd474948e9ad24c029e38632b4327c7f4e734e6cb5cd282d5f315eb82f8af9a55",
      "blockHash": "0x0f597ffbba818a1262ebec6c23bd4622ab128817eff0a26a92ba7aef10cc566a",
      "blockNumber": 68760,
      "transactionIndex": 0,
      "confirmations": null,
      "from": "0x7AD82Caea1A8B4ED05319B9C9870173C814e06EE",
      "gasPrice": {
        "_hex": "0x110c8f7d8de"
      },
      "gasLimit": {
        "_hex": "0xc350"
      },
      "to": "0x2910543Af39abA0Cd09dBb2D50200b3E800A63D2",
      "value": {
        "_hex": "0x2156d6e997213c0000"
      },
      "nonce": 0,
      "data": "0x454e4b425532435438",
      "r": "0xb7ddd5eccb24cda7c1c4919b00d9a05fbf4ace3fce4e90d0df82322a85f01bf9",
      "s": "0x59f04501eda68253397b7c1f292adb08cf6ec60d8b7fd838d7db07de8d5f9410",
      "v": 27,
      "creates": null,
      "raw": "0xf87780860110c8f7d8de82c350942910543af39aba0cd09dbb2d50200b3e800a63d2892156d6e997213c000089454e4b4255324354381ba0b7ddd5eccb24cda7c1c4919b00d9a05fbf4ace3fce4e90d0df82322a85f01bf9a059f04501eda68253397b7c1f292adb08cf6ec60d8b7fd838d7db07de8d5f9410",
      "networkId": 0,
      "chainId": 0
    }
  ]
}