{
  "hash": "0x705404afb0d128604ef0dd3d6340d516f8c9bc2141ff6af6aeb1007bc2a3410d",
  "parentHash": "0x774cc76c52079cf2e22f2876386848561f42896fc0ab1a3f085fee8365125c55",
  "number": 60391,
  "timestamp": 1439154794,
  "nonce": "0xd48dbe7da56b5621",
  "difficulty": 1740674087168,
  "gasLimit": {
    "_hex": "0x2fefd8"
  },
  "gasUsed": {
    "_hex": "0x14820"
  },
  "miner": "0xbb7B8287f3F0a933474a79eAe42CBCa977791171",
  "extraData": "0x476574682f4c5649562f76312e302e312f6c696e75782f676f312e342e32",
  "transactions": [
    {
      "hash": "0x4e853efdd49ca3813f6590d64743505acb0b70aed82896b8e0f5e9bd9b80a099",
      "blockHash": "0x705404afb0d128604ef0dd3d6340d516f8c9bc2141ff6af6aeb1007bc2a3410d",
      "blockNumber": 60391,
      "transactionIndex": 0,
      "confirmations": null,
      "from": "0x16919885ae5b483cFFd18E00783c6352297bAFbA",
      "gasPrice": {
        "_hex": "0x746a528800"
      },
      "gasLimit": {
        "_hex": "0x35b60"
      },
      "to": "0x2910543Af39abA0Cd09dBb2D50200b3E800A63D2",
      "value": {
        "_hex": "0x1bc16d674ec80000"
      },
      "nonce": 0,
      "data": "0x",
      "r": "0x6c824be41abd181c80bc96a08d0b9c7147d785683e52cb94285366fe9d9fcda5",
      "s": "0x41fff1603c10178222f391c53535e23cb175214fcee084e4b41daee590b97772",
      "v": 27,
      "creates": null,
      "raw": "0xf86d8085746a52880083035b60942910543af39aba0cd09dbb2d50200b3e800a63d2881bc16d674ec80000801ba06c824be41abd181c80bc96a08d0b9c7147d785683e52cb94285366fe9d9fcda5a041fff1603c10178222f391c53535e23cb175214fcee084e4b41daee590b97772",
      "networkId": 0,
      "chainId": 0
    },
    {
      "hash": "0x9714c932dee1366d2f924a7975dfdd1136a1d4b4065799bd1cee9d201fea644a",
      "blockHash": "0x705404afb0d128604ef0dd3d6340d516f8c9bc2141ff6af6aeb1007bc2a3410d",
      "blockNumber": 60391,
      "transactionIndex": 1,
      "confirmations": null,
      "from": "0x8155Fa6c51Eb31D808412d748aA086105018122f",
      "gasPrice": {
        "_hex": "0xe13f2e54b"
      },
      "gasLimit": {
        "_hex": "0x15f90"
      },
      "to": "0xc955d372Fe1c428D17CD86E05d26F0206F3677b1",
      "value": {
        "_hex": "0x6f05b59d3b20000"
      },
      "nonce": 23,
      "data": "0x",
      "r": "0xa5a3b97711ce990750d33e76e72fac968bfad691da8897650250482229de5c9a",
      "s": "0x4fa39d6cd2a9ad6a6463fad4362735579de78639645dcf49b7c5f3e5cca46d46",
      "v": 27,
      "creates": null,
      "raw": "0xf86d17850e13f2e54b83015f9094c955d372fe1c428d17cd86e05d26f0206f3677b18806f05b59d3b20000801ba0a5a3b97711ce990750d33e76e72fac968bfad691da8897650250482229de5c9aa04fa39d6cd2a9ad6a6463fad4362735579de78639645dcf49b7c5f3e5cca46d46",
      "networkId": 0,
      "chainId": 0
    },
    {
      "hash": "0x31c8b877de8f9918f356a61408d52695c9b9ac996893134c3fc6c1ba8c9dd447",
      "blockHash": "0x705404afb0d128604ef0dd3d6340d516f8c9bc2141ff6af6aeb1007bc2a3410d",
      "blockNumber": 60391,
      "transactionIndex": 2,
      "confirmations": null,
      "from": "0x8155Fa6c51Eb31D808412d748aA086105018122f",
      "gasPrice": {
        "_hex": "0xe13f2e54b"
      },
      "gasLimit": {
        "_hex": "0x15f90"
      },
      "to": "0xc955d372Fe1c428D17CD86E05d26F0206F3677b1",
      "value": {
        "_hex": "0x58d15e176280000"
      },
      "nonce": 24,
      "data": "0x",
      "r": "0xfd5ea5d3a8f74ce58f1ddca47be9d0ebf83bd694b80e1bed0d03c3101f861d41",
      "s": "0x247618070d005aa2f6f579817edbc52c5ff69a959b6d8cf95f1b3575675d60e9",
      "v": 27,
      "creates": null,
      "raw": "0xf86d18850e13f2e54b83015f9094c955d372fe1c428d17cd86e05d26f0206f3677b188058d15e176280000801ba0fd5ea5d3a8f74ce58f1ddca47be9d0ebf83bd694b80e1bed0d03c3101f861d41a0247618070d005aa2f6f579817edbc52c5ff69a959b6d8cf95f1b3575675d60e9",
      "networkId": 0,
      "chainId": 0
    },
    {
      "hash": "0x58311b28e8fc56dcaee3100c1112f8e1a1b08f42505d2ad9b5f27a620b045e4b",
      "blockHash": "0x705404afb0d128604ef0dd3d6340d516f8c9bc2141ff6af6aeb1007bc2a3410d",
      "blockNumber": 60391,
      "transactionIndex": 3,
      "confirmations": null,
      "from": "0xc955d372Fe1c428D17CD86E05d26F0206F3677b1",
      "gasPrice": {
        "_hex": "0xdbe3a84a6"
      },
      "gasLimit": {
        "_hex": "0x5208"
      },
      "to": "0x32Be343B94f860124dC4fEe278FDCBD38C102D88",
      "value": {
        "_hex": "0x41eb1d5facc4d8000"
      },
      "nonce": 5,
      "data": "0x",
      "r": "0xb0cb8d64471d8eab8a22871630aade00d1f29a915ac0fef68014a8d65609ab98",
      "s": "0x1492edd8accd88b380b9203432c216cafdd25c12702e05638222bcf092ab7d2c",
      "v": 27,
      "creates": null,
      "raw": "0xf86d05850dbe3a84a68252089432be343b94f860124dc4fee278fdcbd38c102d8889041eb1d5facc4d8000801ba0b0cb8d64471d8eab8a22871630aade00d1f29a915ac0fef68014a8d65609ab98a01492edd8accd88b380b9203432c216cafdd25c12702e05638222bcf092ab7d2c",
      "networkId": 0,
      "chainId": 0
    }
  ]
}