{
  "hash": "0xc40d138698a4e83c2de175a1b63a8ae5cd2f3f4a55581a6a9e722e5a95e19cd9",
  "parentHash": "0xf04b199dba72a1fb8162adba92556c0b291993ed61cda037e91114eb4f085e2e",
  "number": 76860,
  "timestamp": 1439427448,
  "nonce": "0x4fb0365e2a4d4d45",
  "difficulty": 2233956101344,
  "gasLimit": {
    "_hex": "0x2fefd8"
  },
  "gasUsed": {
    "_hex": "0xa410"
  },
  "miner": "0xe6A7a1d47ff21B6321162AEA7C6CB457D5476Bca",
  "extraData": "0x476574682f76312e302e312d38326566323666362f6c696e75782f676f312e34",
  "transactions": [
    {
      "hash": "0x34d65ec4eeda2d591fa35a029f435f435effe62501d409eee43499402c3e0884",
      "blockHash": "0xc40d138698a4e83c2de175a1b63a8ae5cd2f3f4a55581a6a9e722e5a95e19cd9",
      "blockNumber": 76860,
      "transactionIndex": 0,
      "confirmations": null,
      "from": "0x3620db64D25D412bAb4C8d93E2e0D7e64e8Cb933",
      "gasPrice": {
        "_hex": "0xdda6fac15"
      },
      "gasLimit": {
        "_hex": "0x5208"
      },
      "to": "0x32Be343B94f860124dC4fEe278FDCBD38C102D88",
      "value": {
        "_hex": "0xd7f8d445640aa8000"
      },
      "nonce": 4,
      "data": "0x",
      "r": "0xfa66a40911118d4fb397a5f8930465a8c7ffcf54b632cacc910a1107dbf8f20e",
      "s": "0x411b14bb1d58fbe194497bbb223d9e9f3039d1ee8479e79d26ea16a631502dab",
      "v": 27,
      "creates": null,
      "raw": "0xf86d04850dda6fac158252089432be343b94f860124dc4fee278fdcbd38c102d88890d7f8d445640aa8000801ba0fa66a40911118d4fb397a5f8930465a8c7ffcf54b632cacc910a1107dbf8f20ea0411b14bb1d58fbe194497bbb223d9e9f3039d1ee8479e79d26ea16a631502dab",
      "networkId": 0,
      "chainId": 0
    },
    {
      "hash": "0x46f32b946a5ab997a04b50580e330ef8b572bf9aba65dc7fc07a5c94656bcac5",
      "blockHash": "0xc40d138698a4e83c2de175a1b63a8ae5cd2f3f4a55581a6a9e722e5a95e19cd9",
      "blockNumber": 76860,
      "transactionIndex": 1,
      "confirmations": null,
      "from": "0xa6BDc31c431B8F97848c9D60cbbe9660dc450eB7",
      "gasPrice": {
        "_hex": "0xdda6fac15"
      },
      "gasLimit": {
        "_hex": "0x5208"
      },
      "to": "0x32Be343B94f860124dC4fEe278FDCBD38C102D88",
      "value": {
        "_hex": "0x455f211ab55a4c00"
      },
      "nonce": 14,
      "data": "0x",
      "r": "0x200b65106fc153b1df139406ee071d35cee5250ee5220eca912bf50025b971cf",
      "s": "0x61cb4ba553032c4cafe82a1d95b0a760938473faa7a18cec02e1be5a58fb5b21",
      "v": 28,
      "creates": null,
      "raw": "0xf86c0e850dda6fac158252089432be343b94f860124dc4fee278fdcbd38c102d8888455f211ab55a4c00801ca0200b65106fc153b1df139406ee071d35cee5250ee5220eca912bf50025b971cfa061cb4ba553032c4cafe82a1d95b0a760938473faa7a18cec02e1be5a58fb5b21",
      "networkId": 0,
      "chainId": 0
    }
  ]
}