{
  "hash": "0x35131dbda8fddf35ea5ea5d7d5a3660d3fba732dbafc7cbb6b229504675b22b4",
  "parentHash": "0x595cae9b391380a9426ed316a6e810c7fe15ad200f332da43acef008c88cfdbf",
  "number": 61522,
  "timestamp": 1439173648,
  "nonce": "0x49dc4df51f2ac2e6",
  "difficulty": 1744693726489,
  "gasLimit": {
    "_hex": "0x2fefd8"
  },
  "gasUsed": {
    "_hex": "0x5208"
  },
  "miner": "0xde8B4cca204F866220e8e25817668Cd44a5fee88",
  "extraData": "0x",
  "transactions": [
    {
      "hash": "0xc59297cd695c7179faf2e8c983e1fefa8ae427986aaefc2c8856207bef72675c",
      "blockHash": "0x35131dbda8fddf35ea5ea5d7d5a3660d3fba732dbafc7cbb6b229504675b22b4",
      "blockNumber": 61522,
      "transactionIndex": 0,
      "confirmations": null,
      "from": "0x1308A2e95c0160B90803ddCA9B9a5bb55E416d79",
      "gasPrice": {
        "_hex": "0xe8d4a51000"
      },
      "gasLimit": {
        "_hex": "0x15f90"
      },
      "to": "0x025c3B43d57E72D2150E14B2B0c6D923FbFC0474",
      "value": {
        "_hex": "0x3635c9adc5dea00000"
      },
      "nonce": 85,
      "data": "0x",
      "r": "0x2faa0a1a3c96adb9e8ebf0ca32d06d5ba81cf156c23d1a76d5f55e5c5152b9f2",
      "s": "0x057071981f1217ef67a5460eebaec66a5275e6bb737732c424a0e3cf8294cd6d",
      "v": 28,
      "creates": null,
      "raw": "0xf86e5585e8d4a5100083015f9094025c3b43d57e72d2150e14b2b0c6d923fbfc0474893635c9adc5dea00000801ca02faa0a1a3c96adb9e8ebf0ca32d06d5ba81cf156c23d1a76d5f55e5c5152b9f2a0057071981f1217ef67a5460eebaec66a5275e6bb737732c424a0e3cf8294cd6d",
      "networkId": 0,
      "chainId": 0
    }
  ]
}