{
  "hash": "0xbe5300691da056f60f7c1d6364696f76fa5a305e3d63e4ae55a43fcb4371b761",
  "parentHash": "0x64c5806ffb945c2124568dda602a813e392959e4579200e0df03549f37a2b46e",
  "number": 117927,
  "timestamp": 1440117650,
  "nonce": "0x1f5bc85ebb101a84",
  "difficulty": 4346142591079,
  "gasLimit": {
    "_hex": "0x2fefd8"
  },
  "gasUsed": {
    "_hex": "0x5208"
  },
  "miner": "0x608f4b86321a68453f9adf6F06F7Fc3E621739ad",
  "extraData": "0xd783010002844765746887676f312e342e32856c696e7578",
  "transactions": [
    {
      "hash": "0x2c306e24d00b0f5d448c5942003a028a6d937743f7431b1fe1d0cc712aac6ed3",
      "blockHash": "0xbe5300691da056f60f7c1d6364696f76fa5a305e3d63e4ae55a43fcb4371b761",
      "blockNumber": 117927,
      "transactionIndex": 0,
      "confirmations": null,
      "from": "0x795dAa7Cd2C81b20de241CE0751981faC4930070",
      "gasPrice": {
        "_hex": "0xba43b7400"
      },
      "gasLimit": {
        "_hex": "0x5208"
      },
      "to": "0x32Be343B94f860124dC4fEe278FDCBD38C102D88",
      "value": {
        "_hex": "0x476c90ff1241d8000"
      },
      "nonce": 5,
      "data": "0x",
      "r": "0x26fbcd348d520389aef75f41e090e983cb749823a381908b425abeedc019ed54",
      "s": "0x55393daf6f7a93d48cf0020e9af673f7801d3881239f484b89398d28d82e6282",
      "v": 27,
      "creates": null,
      "raw": "0xf86d05850ba43b74008252089432be343b94f860124dc4fee278fdcbd38c102d88890476c90ff1241d8000801ba026fbcd348d520389aef75f41e090e983cb749823a381908b425abeedc019ed54a055393daf6f7a93d48cf0020e9af673f7801d3881239f484b89398d28d82e6282",
      "networkId": 0,
      "chainId": 0
    }
  ]
}