{
  "hash": "0xc4c4bd2f38dc83bafa6f25f56e209ded1c6b95ace9df5bff09c50b75237de581",
  "parentHash": "0x0902bdeeff2bab7d0ffbeedaa541d38fe8fec2acedff4bc15d2fd723bd745b6d",
  "number": 110469,
  "timestamp": 1439974308,
  "nonce": "0x5bc5dc35c173baa0",
  "difficulty": 4379846561063,
  "gasLimit": {
    "_hex": "0x2fefd8"
  },
  "gasUsed": {
    "_hex": "0x14820"
  },
  "miner": "0xe6A7a1d47ff21B6321162AEA7C6CB457D5476Bca",
  "extraData": "0x476574682f76312e302e312d38326566323666362f6c696e75782f676f312e34",
  "transactions": [
    {
      "hash": "0x92547f85237ad175f280c2e98b779392e4b84a5427f6ab6f34c42a03c9216f02",
      "blockHash": "0xc4c4bd2f38dc83bafa6f25f56e209ded1c6b95ace9df5bff09c50b75237de581",
      "blockNumber": 110469,
      "transactionIndex": 0,
      "confirmations": null,
      "from": "0xe6F63A7e7F8dc774F8E3504c9b0c5458D7E28ED8",
      "gasPrice": {
        "_hex": "0xe11f07b12"
      },
      "gasLimit": {
        "_hex": "0x5208"
      },
      "to": "0x32Be343B94f860124dC4fEe278FDCBD38C102D88",
      "value": {
        "_hex": "0x938418979fb85800"
      },
      "nonce": 4,
      "data": "0x",
      "r": "0x0408e33cbc9ba74a7ed2dac789e58a891e1b9acf48217ecb3ae097b067214659",
      "s": "0x642e7a4c3d594bb12d1892dd51ed212e13389b1dc213bc6ac9529fe993abe08e",
      "v": 27,
      "creates": null,
      "raw": "0xf86c04850e11f07b128252089432be343b94f860124dc4fee278fdcbd38c102d8888938418979fb85800801ba00408e33cbc9ba74a7ed2dac789e58a891e1b9acf48217ecb3ae097b067214659a0642e7a4c3d594bb12d1892dd51ed212e13389b1dc213bc6ac9529fe993abe08e",
      "networkId": 0,
      "chainId": 0
    },
    {
      "hash": "0x2a3cbb982d54fadb7702cd8349558bde59596c252d0e5db3cca83ea2fef688dd",
      "blockHash": "0xc4c4bd2f38dc83bafa6f25f56e209ded1c6b95ace9df5bff09c50b75237de581",
      "blockNumber": 110469,
      "transactionIndex": 1,
      "confirmations": null,
      "from": "0x833ef381A23744E510a302c665a63D41ba0E28DB",
      "gasPrice": {
        "_hex": "0xe11f07b12"
      },
      "gasLimit": {
        "_hex": "0x5208"
      },
      "to": "0x32Be343B94f860124dC4fEe278FDCBD38C102D88",
      "value": {
        "_hex": "0x1ea5be1c0e195800"
      },
      "nonce": 4,
      "data": "0x",
      "r": "0xaa056c5f20514202a5bf9f8b89ac828c3ce592b925b6fd8c386bd4dfb7f07e50",
      "s": "0x4258873a70b1a499f203aa155b8bbf88583c38bc55de6cecd043462515a8405f",
      "v": 28,
      "creates": null,
      "raw": "0xf86c04850e11f07b128252089432be343b94f860124dc4fee278fdcbd38c102d88881ea5be1c0e195800801ca0aa056c5f20514202a5bf9f8b89ac828c3ce592b925b6fd8c386bd4dfb7f07e50a04258873a70b1a499f203aa155b8bbf88583c38bc55de6cecd043462515a8405f",
      "networkId": 0,
      "chainId": 0
    },
    {
      "hash": "0x96b7f14e9ebb13b136f0944af69259ec00d3979b23849ae7ae4e1244c411a475",
      "blockHash": "0xc4c4bd2f38dc83bafa6f25f56e209ded1c6b95ace9df5bff09c50b75237de581",
      "blockNumber": 110469,
      "transactionIndex": 2,
      "confirmations": null,
      "from": "0x806C4e20CC913d7b70f5b7e24C6Ba15B16c56a5C",
      "gasPrice": {
        "_hex": "0xe11f07b12"
      },
      "gasLimit": {
        "_hex": "0x5208"
      },
      "to": "0x32Be343B94f860124dC4fEe278FDCBD38C102D88",
      "value": {
        "_hex": "0xafb68e089a663000"
      },
      "nonce": 4,
      "data": "0x",
      "r": "0x55aea0dd49c7e39fafcdef305bf0ddfdd02fd9655d2df2140d60be1e33375478",
      "s": "0x6b541bde3168e43e3687fe5d497de20f4611f328219195c70b4976cc0f29272e",
      "v": 28,
      "creates": null,
      "raw": "0xf86c04850e11f07b128252089432be343b94f860124dc4fee278fdcbd38c102d8888afb68e089a663000801ca055aea0dd49c7e39fafcdef305bf0ddfdd02fd9655d2df2140d60be1e33375478a06b541bde3168e43e3687fe5d497de20f4611f328219195c70b4976cc0f29272e",
      "networkId": 0,
      "chainId": 0
    },
    {
      "hash": "0x71aa8c57aef6375ec69df58639136830ddfbb06cc380c80ae21d9a943843fc3d",
      "blockHash": "0xc4c4bd2f38dc83bafa6f25f56e209ded1c6b95ace9df5bff09c50b75237de581",
      "blockNumber": 110469,
      "transactionIndex": 3,
      "confirmations": null,
      "from": "0x233b4fC39b20bb5eCf29882D7F068544BCc5eB78",
      "gasPrice": {
        "_hex": "0xe11f07b12"
      },
      "gasLimit": {
        "_hex": "0x5208"
      },
      "to": "0x32Be343B94f860124dC4fEe278FDCBD38C102D88",
      "value": {
        "_hex": "0x12c3ffc32cb44d000"
      },
      "nonce": 5,
      "data": "0x",
      "r": "0x36249b374a8ba64ab14c31e46051e77d1b78928b5ec4f241032736ef02c37a33",
      "s": "0x298c2572f8d844ae6f0124bf553f37d25c9e94ca3af804ad9c6b1c8901a379bb",
      "v": 28,
      "creates": null,
      "raw": "0xf86d05850e11f07b128252089432be343b94f860124dc4fee278fdcbd38c102d8889012c3ffc32cb44d000801ca036249b374a8ba64ab14c31e46051e77d1b78928b5ec4f241032736ef02c37a33a0298c2572f8d844ae6f0124bf553f37d25c9e94ca3af804ad9c6b1c8901a379bb",
      "networkId": 0,
      "chainId": 0
    }
  ]
}