{
  "hash": "0xfda4ac5b4516cd00da41f613a81a44ca450bfe2612d941df3b22b76fb904ea5d",
  "parentHash": "0x0496010fc5726ae81e6adb7dc717dc2009918e31ec75a88c1537192d55e0d204",
  "number": 98412,
  "timestamp": 1439772280,
  "nonce": "0xbeaaec0358aab0c8",
  "difficulty": 3876434673420,
  "gasLimit": {
    "_hex": "0x2fefd8"
  },
  "gasUsed": {
    "_hex": "0xf618"
  },
  "miner": "0xe6A7a1d47ff21B6321162AEA7C6CB457D5476Bca",
  "extraData": "0x476574682f76312e302e312d38326566323666362f6c696e75782f676f312e34",
  "transactions": [
    {
      "hash": "0x040b92a14adf94303ae1eb96a7da6484fbb6e2f1aa6b83ae2f7e649cfb474730",
      "blockHash": "0xfda4ac5b4516cd00da41f613a81a44ca450bfe2612d941df3b22b76fb904ea5d",
      "blockNumber": 98412,
      "transactionIndex": 0,
      "confirmations": null,
      "from": "0xa70a9a7040d542C632D8e0bE7c5513A8a5Bbc752",
      "gasPrice": {
        "_hex": "0xcfaa8c0a9"
      },
      "gasLimit": {
        "_hex": "0x5208"
      },
      "to": "0x32Be343B94f860124dC4fEe278FDCBD38C102D88",
      "value": {
        "_hex": "0x455f5d7c55b82800"
      },
      "nonce": 185,
      "data": "0x",
      "r": "0xf3b087767ed133745555fd6d154c7e46177537bb77eeb229b0f2bb0092a4f210",
      "s": "0x3852d0d168262b30ac022d5a65c9c71ccccfd40578ecba3c303acdd0b43c3fff",
      "v": 27,
      "creates": null,
      "raw": "0xf86d81b9850cfaa8c0a98252089432be343b94f860124dc4fee278fdcbd38c102d8888455f5d7c55b82800801ba0f3b087767ed133745555fd6d154c7e46177537bb77eeb229b0f2bb0092a4f210a03852d0d168262b30ac022d5a65c9c71ccccfd40578ecba3c303acdd0b43c3fff",
      "networkId": 0,
      "chainId": 0
    },
    {
      "hash": "0x24029fc6c43a5aa5e2e9166f5338f4171631da020d8fa0d9a9c15924525c72a5",
      "blockHash": "0xfda4ac5b4516cd00da41f613a81a44ca450bfe2612d941df3b22b76fb904ea5d",
      "blockNumber": 98412,
      "transactionIndex": 1,
      "confirmations": null,
      "from": "0x32Be343B94f860124dC4fEe278FDCBD38C102D88",
      "gasPrice": {
        "_hex": "0xcfaa8c0a9"
      },
      "gasLimit": {
        "_hex": "0x5208"
      },
      "to": "0x50532e4Be195D1dE0c2E6DfA46D9ec0a4Fee6861",
      "value": {
        "_hex": "0x4fec43bebd5f2c00"
      },
      "nonce": 1039,
      "data": "0x",
      "r": "0x24cddcbd6d076ec5247cf109ba6d9e2f70b8e6583b5d3f34cf3a010cf7098f00",
      "s": "0x048100d38392f028ef495ef343543bf38b5b91beae3715390d52e26ddbdfdfd8",
      "v": 27,
      "creates": null,
      "raw": "0xf86e82040f850cfaa8c0a98252089450532e4be195d1de0c2e6dfa46d9ec0a4fee6861884fec43bebd5f2c00801ba024cddcbd6d076ec5247cf109ba6d9e2f70b8e6583b5d3f34cf3a010cf7098f00a0048100d38392f028ef495ef343543bf38b5b91beae3715390d52e26ddbdfdfd8",
      "networkId": 0,
      "chainId": 0
    },
    {
      "hash": "0x62108456ee3e6a6fd626dea01f5d3de094284be6d8ebea63d01a2a9fa15d9896",
      "blockHash": "0xfda4ac5b4516cd00da41f613a81a44ca450bfe2612d941df3b22b76fb904ea5d",
      "blockNumber": 98412,
      "transactionIndex": 2,
      "confirmations": null,
      "from": "0x32Be343B94f860124dC4fEe278FDCBD38C102D88",
      "gasPrice": {
        "_hex": "0xcfaa8c0a9"
      },
      "gasLimit": {
        "_hex": "0x5208"
      },
      "to": "0xdB73C34EcF0048c947189db06659F672a357726A",
      "value": {
        "_hex": "0x2dbd622a9ef3d800000"
      },
      "nonce": 1040,
      "data": "0x",
      "r": "0x815fc12f4beadfb3798db4af782da6052cabe7030efd84aa98df86a8fd1d85a3",
      "s": "0x60697f0c62a677a504fd3e0cf9f9360d895c5b8a65802dca0eb013e18a8ee40d",
      "v": 28,
      "creates": null,
      "raw": "0xf870820410850cfaa8c0a982520894db73c34ecf0048c947189db06659f672a357726a8a02dbd622a9ef3d800000801ca0815fc12f4beadfb3798db4af782da6052cabe7030efd84aa98df86a8fd1d85a3a060697f0c62a677a504fd3e0cf9f9360d895c5b8a65802dca0eb013e18a8ee40d",
      "networkId": 0,
      "chainId": 0
    }
  ]
}