{
  "hash": "0x75961ee9fcac3613418d009a198102369c293ae7633ad88ef05ee3f407fee6a4",
  "parentHash": "0xe6d776003105d71e10ae95ee911df6c233163e98c3426d2d20dcc83153d3912b",
  "number": 66931,
  "timestamp": 1439262717,
  "nonce": "0xcbe962cf56f868a0",
  "difficulty": 1953658487901,
  "gasLimit": {
    "_hex": "0x2fe3db"
  },
  "gasUsed": {
    "_hex": "0x5208"
  },
  "miner": "0xb3395f0a13448d9A660aC4aB2aBBC61F555f3656",
  "extraData": "0x476574682f76312e302e312f77696e646f77732f676f312e342e32",
  "transactions": [
    {
      "hash": "0x228221b13f42ea2fa6137a4daca8e24e57613d86fe32ff2356cd453f6eb431d8",
      "blockHash": "0x75961ee9fcac3613418d009a198102369c293ae7633ad88ef05ee3f407fee6a4",
      "blockNumber": 66931,
      "transactionIndex": 0,
      "confirmations": null,
      "from": "0x36c68a0907F43244f6dD524a7144A2C5982eb1A1",
      "gasPrice": {
        "_hex": "0xba43b7400"
      },
      "gasLimit": {
        "_hex": "0x5b04"
      },
      "to": "0x0000000000000000000000000000000000000000",
      "value": {
        "_hex": "0x6f05b59d3b20000"
      },
      "nonce": 1,
      "data": "0x",
      "r": "0x5851d865d100834f28e308dd8afba5431980cedbaf7bb7ab45ee8c89a0c2318a",
      "s": "0x7012c25b1334baa059dec4c9b7ad19001232964bee39b8a6ab5f01ae1f4ed157",
      "v": 27,
      "creates": null,
      "raw": "0xf86c01850ba43b7400825b049400000000000000000000000000000000000000008806f05b59d3b20000801ba05851d865d100834f28e308dd8afba5431980cedbaf7bb7ab45ee8c89a0c2318aa07012c25b1334baa059dec4c9b7ad19001232964bee39b8a6ab5f01ae1f4ed157",
      "networkId": 0,
      "chainId": 0
    }
  ]
}