{
  "hash": "0x0bfae34fedb9acad7e864747b0ec1689765caff370edc342a20c20eb8f91a491",
  "parentHash": "0xeeada9c763e7941fe4ea07a3b74287ac28126e5d1bc555872a95aab663d79bef",
  "number": 87120,
  "timestamp": 1439587443,
  "nonce": "0x1ceb866bf94efa99",
  "difficulty": 3058671511675,
  "gasLimit": {
    "_hex": "0x2fefd8"
  },
  "gasUsed": {
    "_hex": "0x5208"
  },
  "miner": "0xe6A7a1d47ff21B6321162AEA7C6CB457D5476Bca",
  "extraData": "0x476574682f76312e302e312d38326566323666362f6c696e75782f676f312e34",
  "transactions": [
    {
      "hash": "0x97d7e65b9fdac8bb6676bd353ef33000bb56e25c16ab30e6824b8215a63bd981",
      "blockHash": "0x0bfae34fedb9acad7e864747b0ec1689765caff370edc342a20c20eb8f91a491",
      "blockNumber": 87120,
      "transactionIndex": 0,
      "confirmations": null,
      "from": "0x2910543Af39abA0Cd09dBb2D50200b3E800A63D2",
      "gasPrice": {
        "_hex": "0xd08fce892"
      },
      "gasLimit": {
        "_hex": "0x5208"
      },
      "to": "0xCd012c195F358C570Ece0b63673D6A36F76eE4D5",
      "value": {
        "_hex": "0x168c0cac5c8478000"
      },
      "nonce": 693,
      "data": "0x",
      "r": "0x8844ac84e9194c33a5889ffd776105fc1d5c076e7fb63b5a4b73dfe04a8b240d",
      "s": "0x6f82b387d96ad436816122b193d9b83de978ef4265974c41234b8bab2bf5102f",
      "v": 27,
      "creates": null,
      "raw": "0xf86f8202b5850d08fce89282520894cd012c195f358c570ece0b63673d6a36f76ee4d5890168c0cac5c8478000801ba08844ac84e9194c33a5889ffd776105fc1d5c076e7fb63b5a4b73dfe04a8b240da06f82b387d96ad436816122b193d9b83de978ef4265974c41234b8bab2bf5102f",
      "networkId": 0,
      "chainId": 0
    }
  ]
}