{
  "hash": "0xcb5042cf332f7a0e181b2e9899829450bd63ec08730b8c2b5a16191e375f25ec",
  "parentHash": "0x40293c07f9a09c0f667d69be69b3f3d6bfd76d93ab608d635ccb2da97cb6f187",
  "number": 56413,
  "timestamp": 1439086921,
  "nonce": "0x52c0a466e0008728",
  "difficulty": 1652042299943,
  "gasLimit": {
    "_hex": "0x2fefd8"
  },
  "gasUsed": {
    "_hex": "0xa410"
  },
  "miner": "0x01d9DA08cc6Fb97c0DE1B6F4C28910A0859Ed1A1",
  "extraData": "0x476574682f76312e302e312f6c696e75782f676f312e342e32",
  "transactions": [
    {
      "hash": "0x56db6ff105fb8f0480abb59fcbd9a461c89a551d0c48fdac4687ad97f6804dd3",
      "blockHash": "0xcb5042cf332f7a0e181b2e9899829450bd63ec08730b8c2b5a16191e375f25ec",
      "blockNumber": 56413,
      "transactionIndex": 0,
      "confirmations": null,
      "from": "0x27e806e70622d2864e1B1f4426D72FFb0457C83a",
      "gasPrice": {
        "_hex": "0xd1dd52763"
      },
      "gasLimit": {
        "_hex": "0x5208"
      },
      "to": "0x32Be343B94f860124dC4fEe278FDCBD38C102D88",
      "value": {
        "_hex": "0x95dd1acf7f438000"
      },
      "nonce": 1,
      "data": "0x",
      "r": "0xd4dc4dc9417d730aa670724124fd8ca488bce8e91aa272eb9443fd0a9b20ad7f",
      "s": "0x4604a170b9925d44abd2b738db1d7bdccb438c7ddc1d604f0ba6cd3c086a848d",
      "v": 27,
      "creates": null,
      "raw": "0xf86c01850d1dd527638252089432be343b94f860124dc4fee278fdcbd38c102d888895dd1acf7f438000801ba0d4dc4dc9417d730aa670724124fd8ca488bce8e91aa272eb9443fd0a9b20ad7fa04604a170b9925d44abd2b738db1d7bdccb438c7ddc1d604f0ba6cd3c086a848d",
      "networkId": 0,
      "chainId": 0
    },
    {
      "hash": "0xac83c60159b88ea4625a1302c7839fc79569d455636f350ec8c32fb0ea98292c",
      "blockHash": "0xcb5042cf332f7a0e181b2e9899829450bd63ec08730b8c2b5a16191e375f25ec",
      "blockNumber": 56413,
      "transactionIndex": 1,
      "confirmations": null,
      "from": "0xA9634393AFaCf497F51723fdf76c7e5d8c8ACacd",
      "gasPrice": {
        "_hex": "0xd1dd52763"
      },
      "gasLimit": {
        "_hex": "0x5208"
      },
      "to": "0x32Be343B94f860124dC4fEe278FDCBD38C102D88",
      "value": {
        "_hex": "0xb570f07add89780000"
      },
      "nonce": 3,
      "data": "0x",
      "r": "0xe991e4d536f53db061e2c44bf6bde8568458da3bb0b8e8a6921d600e5777ead8",
      "s": "0x7923b414221abceb2f46175b85c41d2720134d00d8a19c4c8d26bfc5a3bed36a",
      "v": 27,
      "creates": null,
      "raw": "0xf86d03850d1dd527638252089432be343b94f860124dc4fee278fdcbd38c102d8889b570f07add89780000801ba0e991e4d536f53db061e2c44bf6bde8568458da3bb0b8e8a6921d600e5777ead8a07923b414221abceb2f46175b85c41d2720134d00d8a19c4c8d26bfc5a3bed36a",
      "networkId": 0,
      "chainId": 0
    }
  ]
}