{
  "hash": "0x582e5fff3dcefa8f40124d606c840fe7eb4a6472cc823b81b0fe7a59de73bd3d",
  "parentHash": "0x944493f3b3f6936784d62be53d6a7f7c0a476bbcacaa8dc5da4a0315b956d932",
  "number": 73588,
  "timestamp": 1439371531,
  "nonce": "0xac62e315d0bee81b",
  "difficulty": 2226114864327,
  "gasLimit": {
    "_hex": "0x2fefd8"
  },
  "gasUsed": {
    "_hex": "0x7a83"
  },
  "miner": "0xbb7B8287f3F0a933474a79eAe42CBCa977791171",
  "extraData": "0x476574682f4c5649562f76312e302e312f6c696e75782f676f312e342e32",
  "transactions": [
    {
      "hash": "0xf7601891b915f1bee57b45cc1cbf5c60e9bf71205a5f35494fa5f492fa6735fd",
      "blockHash": "0x582e5fff3dcefa8f40124d606c840fe7eb4a6472cc823b81b0fe7a59de73bd3d",
      "blockNumber": 73588,
      "transactionIndex": 0,
      "confirmations": null,
      "from": "0xD1826373C4E0938f0b4302B40324f7f9c546492C",
      "gasPrice": {
        "_hex": "0xde3a1218b"
      },
      "gasLimit": {
        "_hex": "0x30d40"
      },
      "to": "0x91601CBAb0bD60A0BC314a409da5070f135BeC6E",
      "value": {
        "_hex": "0x38d7ea4c68000"
      },
      "nonce": 6,
      "data": "0x",
      "r": "0x806751307802c74a121b1d208a9c8b72e4e28d2f4b51520ef55037bb3f9f8b1b",
      "s": "0x4b64efa7917df89d0f724be61813a2dd99f72aaef6d41f9906d40c3423bfbbc1",
      "v": 27,
      "creates": null,
      "raw": "0xf86c06850de3a1218b83030d409491601cbab0bd60a0bc314a409da5070f135bec6e87038d7ea4c68000801ba0806751307802c74a121b1d208a9c8b72e4e28d2f4b51520ef55037bb3f9f8b1ba04b64efa7917df89d0f724be61813a2dd99f72aaef6d41f9906d40c3423bfbbc1",
      "networkId": 0,
      "chainId": 0
    }
  ]
}