{
  "hash": "0xfa2bb6471a0c66a72c32a2e424f6baa0d410cbde13caee97f6b8d6c4e1d4363b",
  "parentHash": "0xd8bccc6aeffb24b650a0c0fe447e6f4d288ec780b9dbf4a315b516d4065e1fe9",
  "number": 52044,
  "timestamp": 1439015114,
  "nonce": "0xcc095691711e9a26",
  "difficulty": 1565701368643,
  "gasLimit": {
    "_hex": "0xfd7dc"
  },
  "gasUsed": {
    "_hex": "0xddfd"
  },
  "miner": "0xf927a40C8B7F6E07c5af7FA2155B4864a4112B13",
  "extraData": "0x476574682f76312e302e312f6c696e75782f676f312e342e32",
  "transactions": [
    {
      "hash": "0xba6e42ca9ff2c72c15cbae2bed2d3227bc904057ee7b93ba760679bb3a8ac025",
      "blockHash": "0xfa2bb6471a0c66a72c32a2e424f6baa0d410cbde13caee97f6b8d6c4e1d4363b",
      "blockNumber": 52044,
      "transactionIndex": 0,
      "confirmations": null,
      "from": "0xDC5F5aD663A6F263327D64cAc9Cb133D2C960597",
      "gasPrice": {
        "_hex": "0xd08962fb9"
      },
      "gasLimit": {
        "_hex": "0xf4240"
      },
      "to": "0xA327075af2a223A1C83a36aDa1126afE7430f955",
      "value": {
        "_hex": "0x8ac7230489e80000"
      },
      "nonce": 0,
      "data": "0x",
      "r": "0x62c372cb7f71a0f4e67013321fce0a82d4e99319b917cc168c6a3a7bbca62657",
      "s": "0x4283ac1de3d3e1dd792b26efa987714c2d78ad71d8ac95911654f4017a056738",
      "v": 27,
      "creates": null,
      "raw": "0xf86d80850d08962fb9830f424094a327075af2a223a1c83a36ada1126afe7430f955888ac7230489e80000801ba062c372cb7f71a0f4e67013321fce0a82d4e99319b917cc168c6a3a7bbca62657a04283ac1de3d3e1dd792b26efa987714c2d78ad71d8ac95911654f4017a056738",
      "networkId": 0,
      "chainId": 0
    }
  ]
}