{
  "hash": "0x48ff099239d66ab93ce9e6667595d905289a0df4cd6ecfe0e844334af1aa4e3a",
  "parentHash": "0x034e1b2ec8d640a56346ed1bd9a627948befc14e2ff259ac02d72c787dac4074",
  "number": 91367,
  "timestamp": 1439654594,
  "nonce": "0x54b560984185754c",
  "difficulty": 3469252826616,
  "gasLimit": {
    "_hex": "0x2fefd8"
  },
  "gasUsed": {
    "_hex": "0x5208"
  },
  "miner": "0x0037ce3d4B7f8729C8607D8D0248252Be68202c0",
  "extraData": "0x476574682f76312e302e312f77696e646f77732f676f312e342e32",
  "transactions": [
    {
      "hash": "0x441970b0b59cdc8ac3a8e284edd087c44f8b1dbf234026a1ddc965121b7af778",
      "blockHash": "0x48ff099239d66ab93ce9e6667595d905289a0df4cd6ecfe0e844334af1aa4e3a",
      "blockNumber": 91367,
      "transactionIndex": 0,
      "confirmations": null,
      "from": "0xE4Dd37247830493DE1Df7c758DD746DCdE19419e",
      "gasPrice": {
        "_hex": "0xd31597d38"
      },
      "gasLimit": {
        "_hex": "0x7530"
      },
      "to": "0x6De181Fc4C140FA31F196e5393516c49EEeBdAd3",
      "value": {
        "_hex": "0x8ac7230489e80000"
      },
      "nonce": 7,
      "data": "0x",
      "r": "0xcb087be7d0e3863d98f2d6125df970d10f09e484aac9ff073bf077f39256bf9b",
      "s": "0x1c94981144eae539cf0f109fecd9c99a06325db3ea87cad3fb53176a0c28d0b1",
      "v": 27,
      "creates": null,
      "raw": "0xf86c07850d31597d38827530946de181fc4c140fa31f196e5393516c49eeebdad3888ac7230489e80000801ba0cb087be7d0e3863d98f2d6125df970d10f09e484aac9ff073bf077f39256bf9ba01c94981144eae539cf0f109fecd9c99a06325db3ea87cad3fb53176a0c28d0b1",
      "networkId": 0,
      "chainId": 0
    }
  ]
}