{
  "hash": "0x36e70526d21267474a90c5d169c7efbf6458ada4edb8b07653b924d862dbd720",
  "parentHash": "0x15b3822d2c6c2b043d835ec67c35847747d2a869b6c44be70db175b886f6a199",
  "number": 117897,
  "timestamp": 1440117160,
  "nonce": "0x029a286b858356a7",
  "difficulty": 4346158134124,
  "gasLimit": {
    "_hex": "0x2fefd8"
  },
  "gasUsed": {
    "_hex": "0x5208"
  },
  "miner": "0x8df03bD37602d97980327B58D940258dC57007B3",
  "extraData": "0x",
  "transactions": [
    {
      "hash": "0xa70f773893a50555cfa7f2ad9e86a74087794fc64e3a8d741ea4704120d05194",
      "blockHash": "0x36e70526d21267474a90c5d169c7efbf6458ada4edb8b07653b924d862dbd720",
      "blockNumber": 117897,
      "transactionIndex": 0,
      "confirmations": null,
      "from": "0x09D6b0F8DE057aC9116C0f321eA4017444de0801",
      "gasPrice": {
        "_hex": "0xba43b7400"
      },
      "gasLimit": {
        "_hex": "0x5208"
      },
      "to": "0x32Be343B94f860124dC4fEe278FDCBD38C102D88",
      "value": {
        "_hex": "0x625c30c94b7f200000"
      },
      "nonce": 7,
      "data": "0x",
      "r": "0x199e0789baef43f92fbec80909da1e2b46166318dd36dfffdff0f2c021354cb9",
      "s": "0x455cf471362c4079a445ed30d083cd551d606b758ebe6c5393cda277208863d5",
      "v": 28,
      "creates": null,
      "raw": "0xf86d07850ba43b74008252089432be343b94f860124dc4fee278fdcbd38c102d8889625c30c94b7f200000801ca0199e0789baef43f92fbec80909da1e2b46166318dd36dfffdff0f2c021354cb9a0455cf471362c4079a445ed30d083cd551d606b758ebe6c5393cda277208863d5",
      "networkId": 0,
      "chainId": 0
    }
  ]
}