{
  "hash": "0x5b748321df938d2798c7b1950418ea25afa88469268a1a44ff635ed84d08a8e7",
  "parentHash": "0x3aad22564666738217babc9fd108a966a7dae1cdea8902c18518953e0b695367",
  "number": 82606,
  "timestamp": 1439522141,
  "nonce": "0xa8d19e0943b45911",
  "difficulty": 2367140835087,
  "gasLimit": {
    "_hex": "0x2fefd8"
  },
  "gasUsed": {
    "_hex": "0xa410"
  },
  "miner": "0xDaD56904f2996453f00a79C2C7ee2E8c47dFbba3",
  "extraData": "0x476574682f76312e302e312f6c696e75782f676f312e342e32",
  "transactions": [
    {
      "hash": "0x084654df17dc4b710f84c5254d3f857a7a0be6a511813ed453161fe27c713298",
      "blockHash": "0x5b748321df938d2798c7b1950418ea25afa88469268a1a44ff635ed84d08a8e7",
      "blockNumber": 82606,
      "transactionIndex": 0,
      "confirmations": null,
      "from": "0x007f7f58D3eb5b7510A301eCC749FC1fCDDBE14D",
      "gasPrice": {
        "_hex": "0xd23ee12e2"
      },
      "gasLimit": {
        "_hex": "0x15f90"
      },
      "to": "0xD9666150A9dA92d9108198a4072970805a8B3428",
      "value": {
        "_hex": "0x270801d946c940000"
      },
      "nonce": 0,
      "data": "0x",
      "r": "0x478c4126074d07d2672be5ff6c652612dc6f2f46d433773a5165e30e0570f9bf",
      "s": "0x351babd9a6e7b1712a41f79c17b05d1812b715b39ff594042ec897c4a3d04765",
      "v": 28,
      "creates": null,
      "raw": "0xf86e80850d23ee12e283015f9094d9666150a9da92d9108198a4072970805a8b3428890270801d946c940000801ca0478c4126074d07d2672be5ff6c652612dc6f2f46d433773a5165e30e0570f9bfa0351babd9a6e7b1712a41f79c17b05d1812b715b39ff594042ec897c4a3d04765",
      "networkId": 0,
      "chainId": 0
    },
    {
      "hash": "0x718384b00ead062332a30bd4bb8eec4e14d568fd3edb57de94b448e7b0f99159",
      "blockHash": "0x5b748321df938d2798c7b1950418ea25afa88469268a1a44ff635ed84d08a8e7",
      "blockNumber": 82606,
      "transactionIndex": 1,
      "confirmations": null,
      "from": "0x64c0f4A860176e4f956550703F0eF522A9eD06F9",
      "gasPrice": {
        "_hex": "0xcd3870a0d"
      },
      "gasLimit": {
        "_hex": "0x15f90"
      },
      "to": "0xFDE80370e058cfC8292D8eE4D7ed14c37Aa66D89",
      "value": {
        "_hex": "0xa"
      },
      "nonce": 0,
      "data": "0x",
      "r": "0xf80051370b8b9eeed3931f338ef17406534a2ea0d83d3266ee7c97825bf8eff2",
      "s": "0x78ccf011e3b033a09c6a38255345c188e037b248171f2de34d924c567131ba36",
      "v": 28,
      "creates": null,
      "raw": "0xf86580850cd3870a0d83015f9094fde80370e058cfc8292d8ee4d7ed14c37aa66d890a801ca0f80051370b8b9eeed3931f338ef17406534a2ea0d83d3266ee7c97825bf8eff2a078ccf011e3b033a09c6a38255345c188e037b248171f2de34d924c567131ba36",
      "networkId": 0,
      "chainId": 0
    }
  ]
}