{
  "hash": "0x90c36faa45348abb6c5e50b928bf72a20717769f66ab305c074819b93e870bbb",
  "parentHash": "0x6550ee66f2bb5ef8d645a065d21551d13b5aaf708647811baa0013ad1d96ae84",
  "number": 62020,
  "timestamp": 1439182090,
  "nonce": "0xae9ff34ca79d3c48",
  "difficulty": 1742887283816,
  "gasLimit": {
    "_hex": "0x2fefd5"
  },
  "gasUsed": {
    "_hex": "0x5208"
  },
  "miner": "0xeB1325C8D9d3ea8D74aC11F4B00F1B2367686319",
  "extraData": "0x476574682f76312e302e312f77696e646f77732f676f312e342e32",
  "transactions": [
    {
      "hash": "0x043673bf7c95958f364da1bdb1b8e78634c8b956c873499a669dfdeee777734c",
      "blockHash": "0x90c36faa45348abb6c5e50b928bf72a20717769f66ab305c074819b93e870bbb",
      "blockNumber": 62020,
      "transactionIndex": 0,
      "confirmations": null,
      "from": "0x39A1BB80a741bF5EC39FB9BE59408Fa0F418fFBf",
      "gasPrice": {
        "_hex": "0xda7195310"
      },
      "gasLimit": {
        "_hex": "0x15f90"
      },
      "to": "0x8F79f76381Aad7B98C19aF55eE75fdfEeb012211",
      "value": {
        "_hex": "0xde0b6b3a7640000"
      },
      "nonce": 0,
      "data": "0x",
      "r": "0xdc6e57c920ba2ac649eb10e9bdd9cbcebe19b4780a470c636bd23c23fce6b872",
      "s": "0x6251750b051109c071d0852a887cd28d925746ff89df5407210ccb1cfc3bd273",
      "v": 27,
      "creates": null,
      "raw": "0xf86d80850da719531083015f90948f79f76381aad7b98c19af55ee75fdfeeb012211880de0b6b3a7640000801ba0dc6e57c920ba2ac649eb10e9bdd9cbcebe19b4780a470c636bd23c23fce6b872a06251750b051109c071d0852a887cd28d925746ff89df5407210ccb1cfc3bd273",
      "networkId": 0,
      "chainId": 0
    }
  ]
}