{
  "hash": "0x09ab083b96d741f93f88b0471b910363b90210924cd6909d3b4837e0635c2242",
  "parentHash": "0x1784048fcf3e9f024642ee951b73824b150dc276bbe9af724ea6c931b06a798d",
  "number": 68549,
  "timestamp": 1439289883,
  "nonce": "0x8cc5f66bdfcdeebb",
  "difficulty": 2007428669018,
  "gasLimit": {
    "_hex": "0x2fefd8"
  },
  "gasUsed": {
    "_hex": "0xa410"
  },
  "miner": "0x0338116f55fEd2F5ee9391C8624612Dc9744D149",
  "extraData": "0x476574682f76312e302e312f6c696e75782f676f312e342e32",
  "transactions": [
    {
      "hash": "0x5fcdac19f23e4e81237c4a4f8a75342d0088f6c0d9882cf25032e2978886b359",
      "blockHash": "0x09ab083b96d741f93f88b0471b910363b90210924cd6909d3b4837e0635c2242",
      "blockNumber": 68549,
      "transactionIndex": 0,
      "confirmations": null,
      "from": "0x922162DD675E77959331ea791b5dDE0044F5cEff",
      "gasPrice": {
        "_hex": "0xba43b7400"
      },
      "gasLimit": {
        "_hex": "0x5208"
      },
      "to": "0x5D3EFa349DDB55Cc05cf4630d44c2966E0a9EcBE",
      "value": {
        "_hex": "0x653580cf6eb000"
      },
      "nonce": 1,
      "data": "0x",
      "r": "0xc49f80564104b4969c21fd8894371f251910d41b9ee16f12eb31147e02351348",
      "s": "0x4151b07941330aaafb558345f0b261ee1b7b39a1fc6eef00a3250e824a2e2237",
      "v": 28,
      "creates": null,
      "raw": "0xf86b01850ba43b7400825208945d3efa349ddb55cc05cf4630d44c2966e0a9ecbe87653580cf6eb000801ca0c49f80564104b4969c21fd8894371f251910d41b9ee16f12eb31147e02351348a04151b07941330aaafb558345f0b261ee1b7b39a1fc6eef00a3250e824a2e2237",
      "networkId": 0,
      "chainId": 0
    },
    {
      "hash": "0x69a146897ea389c386977535067ab8ab9b39b6a395c1f794c0cb5ecbd52c4c6b",
      "blockHash": "0x09ab083b96d741f93f88b0471b910363b90210924cd6909d3b4837e0635c2242",
      "blockNumber": 68549,
      "transactionIndex": 1,
      "confirmations": null,
      "from": "0x46750EF414dEF91b58bBf318df65BeE53321f05f",
      "gasPrice": {
        "_hex": "0xba43b7400"
      },
      "gasLimit": {
        "_hex": "0x5208"
      },
      "to": "0x3414F3c013dfb3118e4a008f22dcefDC539E82c9",
      "value": {
        "_hex": "0x653580cf6eb000"
      },
      "nonce": 1,
      "data": "0x",
      "r": "0x5793904a362531c17dc11d989a64d39d815cd5181102d114b099708b2e74dc01",
      "s": "0x68af73bc1196f532576987ba02dd9473c6306980d70292e7edfdd21a51747709",
      "v": 27,
      "creates": null,
      "raw": "0xf86b01850ba43b7400825208943414f3c013dfb3118e4a008f22dcefdc539e82c987653580cf6eb000801ba05793904a362531c17dc11d989a64d39d815cd5181102d114b099708b2e74dc01a068af73bc1196f532576987ba02dd9473c6306980d70292e7edfdd21a51747709",
      "networkId": 0,
      "chainId": 0
    }
  ]
}