{
  "hash": "0xedc72de874771b871f7aa55a0ed492a3f9b06a33b0417fec5793f10f7bea14dd",
  "parentHash": "0xab8ecdfcf95c2df43c8019c51b47a52860ebb95a68d4b711648ee9dcc5ebad27",
  "number": 49526,
  "timestamp": 1438974903,
  "nonce": "0xc4559dfdb359a12e",
  "difficulty": 1475598594593,
  "gasLimit": {
    "_hex": "0x3457f"
  },
  "gasUsed": {
    "_hex": "0xa410"
  },
  "miner": "0xe6A7a1d47ff21B6321162AEA7C6CB457D5476Bca",
  "extraData": "0x657468706f6f6c2e6f7267",
  "transactions": [
    {
      "hash": "0xf2f403f08ea2f121e489d95020010d1268f98bccd02c5eaf9d749bc164b8caac",
      "blockHash": "0xedc72de874771b871f7aa55a0ed492a3f9b06a33b0417fec5793f10f7bea14dd",
      "blockNumber": 49526,
      "transactionIndex": 0,
      "confirmations": null,
      "from": "0x28EE9f11DB43ea073BccB423AF9bbb6fb77fFC09",
      "gasPrice": {
        "_hex": "0xda31f1047"
      },
      "gasLimit": {
        "_hex": "0x5208"
      },
      "to": "0x32Be343B94f860124dC4fEe278FDCBD38C102D88",
      "value": {
        "_hex": "0xddc4c2e81d78800"
      },
      "nonce": 0,
      "data": "0x",
      "r": "0x6f975189bd121c6b81e2926cfbc49eacbb486eef01de4c09b281d85e8b4567fa",
      "s": "0x15c5793b729c038403948bc9164d4c5a93f81858a58d81515b60d39c99b774fd",
      "v": 28,
      "creates": null,
      "raw": "0xf86c80850da31f10478252089432be343b94f860124dc4fee278fdcbd38c102d88880ddc4c2e81d78800801ca06f975189bd121c6b81e2926cfbc49eacbb486eef01de4c09b281d85e8b4567faa015c5793b729c038403948bc9164d4c5a93f81858a58d81515b60d39c99b774fd",
      "networkId": 0,
      "chainId": 0
    },
    {
      "hash": "0xe568b5dec39164641b852f9b8a0202548402313d95aba7beecb6981113e1fbc1",
      "blockHash": "0xedc72de874771b871f7aa55a0ed492a3f9b06a33b0417fec5793f10f7bea14dd",
      "blockNumber": 49526,
      "transactionIndex": 1,
      "confirmations": null,
      "from": "0x8bb807c77969259B4Bb4fB3522e1720f4f6bebed",
      "gasPrice": {
        "_hex": "0xdc818856e"
      },
      "gasLimit": {
        "_hex": "0x5208"
      },
      "to": "0x32Be343B94f860124dC4fEe278FDCBD38C102D88",
      "value": {
        "_hex": "0x8ac2b87f645b8800"
      },
      "nonce": 0,
      "data": "0x",
      "r": "0x61b63dec0eab375300f959fc1b1e3d56f860240aad6dd5b1bd3c28f365aa367a",
      "s": "0x69fafb8e5af194cd8417566ea7953c021d984d2668386eed85e5223fc2858e16",
      "v": 28,
      "creates": null,
      "raw": "0xf86c80850dc818856e8252089432be343b94f860124dc4fee278fdcbd38c102d88888ac2b87f645b8800801ca061b63dec0eab375300f959fc1b1e3d56f860240aad6dd5b1bd3c28f365aa367aa069fafb8e5af194cd8417566ea7953c021d984d2668386eed85e5223fc2858e16",
      "networkId": 0,
      "chainId": 0
    }
  ]
}