{
  "hash": "0x30931495fb6c227028e72c4b77d7d7104150c2f79c604783d637f0ba520202bb",
  "parentHash": "0x4e15c7bdbab6bb2cb338ca9bee3858e5d5c66083c3478f27dd144ae87a8112ac",
  "number": 102205,
  "timestamp": 1439834382,
  "nonce": "0xcaf05ddd193dda86",
  "difficulty": 3926102747270,
  "gasLimit": {
    "_hex": "0x2fefd8"
  },
  "gasUsed": {
    "_hex": "0x261ce"
  },
  "miner": "0xa70a9a7040d542C632D8e0bE7c5513A8a5Bbc752",
  "extraData": "0x",
  "transactions": [
    {
      "hash": "0xd0302fefbfb834eee6af5c1d1d718046f3219b031556f0b59d513eed80d3781e",
      "blockHash": "0x30931495fb6c227028e72c4b77d7d7104150c2f79c604783d637f0ba520202bb",
      "blockNumber": 102205,
      "transactionIndex": 0,
      "confirmations": null,
      "from": "0x007f7f58D3eb5b7510A301eCC749FC1fCDDBE14D",
      "gasPrice": {
        "_hex": "0xe0cfe7246"
      },
      "gasLimit": {
        "_hex": "0x15f90"
      },
      "to": "0xb1abce2918E21ddb93AA452731a12672A3d9F75a",
      "value": {
        "_hex": "0x4563918244f40000"
      },
      "nonce": 205,
      "data": "0x",
      "r": "0x830563d2f1e6a9945f90131ce6926dd0d3558997d4e4c7422d4d92f4e095b66c",
      "s": "0x2a7812eb41bce1f2629d0177cd6eb7676975bc0884b3c04dcdeb7120b2636a57",
      "v": 28,
      "creates": null,
      "raw": "0xf86e81cd850e0cfe724683015f9094b1abce2918e21ddb93aa452731a12672a3d9f75a884563918244f40000801ca0830563d2f1e6a9945f90131ce6926dd0d3558997d4e4c7422d4d92f4e095b66ca02a7812eb41bce1f2629d0177cd6eb7676975bc0884b3c04dcdeb7120b2636a57",
      "networkId": 0,
      "chainId": 0
    },
    {
      "hash": "0xe81e48d4134a596493a7dab49ddd7574129f8745d5aa6860fe8ad929b763f0b9",
      "blockHash": "0x30931495fb6c227028e72c4b77d7d7104150c2f79c604783d637f0ba520202bb",
      "blockNumber": 102205,
      "transactionIndex": 1,
      "confirmations": null,
      "from": "0xE60d047A7f89348A473EB1b32c27A13cB459d776",
      "gasPrice": {
        "_hex": "0xd641f460d"
      },
      "gasLimit": {
        "_hex": "0x249f0"
      },
      "to": "0xE28e72FCf78647ADCe1F1252F240bbfaebD63BcC",
      "value": {
        "_hex": "0xde0b6b3a7640000"
      },
      "nonce": 1,
      "data": "0x45466f3a",
      "r": "0xdca3a2ac0f0de2b1d0dccc29e3568a99456ecbaa7c9d43c20a4b0ac06d80afa2",
      "s": "0x0a817bcabeadb90039fb56bd4b62bca13f2fafef3eab7fbb2dc18fad468d812c",
      "v": 28,
      "creates": null,
      "raw": "0xf87101850d641f460d830249f094e28e72fcf78647adce1f1252f240bbfaebd63bcc880de0b6b3a76400008445466f3a1ca0dca3a2ac0f0de2b1d0dccc29e3568a99456ecbaa7c9d43c20a4b0ac06d80afa2a00a817bcabeadb90039fb56bd4b62bca13f2fafef3eab7fbb2dc18fad468d812c",
      "networkId": 0,
      "chainId": 0
    },
    {
      "hash": "0x83ad293314b1a447e2ea21b51b60aa9eedf3f50d52de3b40181170277bbe1ebe",
      "blockHash": "0x30931495fb6c227028e72c4b77d7d7104150c2f79c604783d637f0ba520202bb",
      "blockNumber": 102205,
      "transactionIndex": 2,
      "confirmations": null,
      "from": "0x120A270bbC009644e35F0bB6ab13f95b8199c4ad",
      "gasPrice": {
        "_hex": "0xce3b4dc7d"
      },
      "gasLimit": {
        "_hex": "0x3d090"
      },
      "to": "0xF6F1A44309051c6B25e47dff909B179Bb9aB591C",
      "value": {
        "_hex": "0x30ca024f987b900000"
      },
      "nonce": 693,
      "data": "0x",
      "r": "0x7830957a7116b9fd9c27ed92ef63330dc959b13a33626027eb29d5317b094c2b",
      "s": "0x690eeb50104f02b7cd356972ccdf3ddadbd19d7cf21b7d7cb4bb16951159e83d",
      "v": 28,
      "creates": null,
      "raw": "0xf8708202b5850ce3b4dc7d8303d09094f6f1a44309051c6b25e47dff909b179bb9ab591c8930ca024f987b900000801ca07830957a7116b9fd9c27ed92ef63330dc959b13a33626027eb29d5317b094c2ba0690eeb50104f02b7cd356972ccdf3ddadbd19d7cf21b7d7cb4bb16951159e83d",
      "networkId": 0,
      "chainId": 0
    }
  ]
}