{
  "hash": "0x24fa817785711978bd41dde35b244cd316fa9beaa65305432688186ef8db02a5",
  "parentHash": "0x931ea6e2683421b28dff2d67059fddc556f863a67f61f4397177fb53e0862cf9",
  "number": 98355,
  "timestamp": 1439771280,
  "nonce": "0x1499338907521405",
  "difficulty": 3885936592670,
  "gasLimit": {
    "_hex": "0x2fefd8"
  },
  "gasUsed": {
    "_hex": "0x5208"
  },
  "miner": "0x157c6f2431eB1a95797EE86F7d17b3c0FD47A247",
  "extraData": "0x476574682f76312e302e312f77696e646f77732f676f312e342e32",
  "transactions": [
    {
      "hash": "0x6e2e2beb6a5606f67129d451864dde4d7086d85e16d3f77fb9f48d38063fedbd",
      "blockHash": "0x24fa817785711978bd41dde35b244cd316fa9beaa65305432688186ef8db02a5",
      "blockNumber": 98355,
      "transactionIndex": 0,
      "confirmations": null,
      "from": "0xa6BDc31c431B8F97848c9D60cbbe9660dc450eB7",
      "gasPrice": {
        "_hex": "0xd90d9e677"
      },
      "gasLimit": {
        "_hex": "0x5208"
      },
      "to": "0x32Be343B94f860124dC4fEe278FDCBD38C102D88",
      "value": {
        "_hex": "0x34065451c4999400"
      },
      "nonce": 141,
      "data": "0x",
      "r": "0xbf872c9820f626d5420398fe582522fca990e7bc7d175ee0734133298bf47a12",
      "s": "0x6ce2969edd60ba14e30cf2825bd0d6b7072f523cd836f5db93e1d9ff0af01214",
      "v": 28,
      "creates": null,
      "raw": "0xf86d818d850d90d9e6778252089432be343b94f860124dc4fee278fdcbd38c102d888834065451c4999400801ca0bf872c9820f626d5420398fe582522fca990e7bc7d175ee0734133298bf47a12a06ce2969edd60ba14e30cf2825bd0d6b7072f523cd836f5db93e1d9ff0af01214",
      "networkId": 0,
      "chainId": 0
    }
  ]
}