{
  "hash": "0x1d8520a5c3d48e6ef44cef22bb48d5db7572bb5b459326883ff2f8fd22b88549",
  "parentHash": "0xe89bb61d348d0f0cb080cd33969dfecf8fb725a747bf9ce9c436663a703991bc",
  "number": 86380,
  "timestamp": 1439577347,
  "nonce": "0xa7cc35e42198609b",
  "difficulty": 2879227446088,
  "gasLimit": {
    "_hex": "0x2fefd8"
  },
  "gasUsed": {
    "_hex": "0x5208"
  },
  "miner": "0x47ff6576639c2e94762eA5443978D7681C0E78DC",
  "extraData": "0x476574682f76312e302e312f6c696e75782f676f312e342e32",
  "transactions": [
    {
      "hash": "0x37ac5f0b1812d4cbd389cacebdc367673e2e8bf9f58f0f3b1c18cf044960757a",
      "blockHash": "0x1d8520a5c3d48e6ef44cef22bb48d5db7572bb5b459326883ff2f8fd22b88549",
      "blockNumber": 86380,
      "transactionIndex": 0,
      "confirmations": null,
      "from": "0x4DD41Fe23f6A246A02528dC2052495a83a8Dd596",
      "gasPrice": {
        "_hex": "0xd0e9516c8"
      },
      "gasLimit": {
        "_hex": "0x5208"
      },
      "to": "0x32Be343B94f860124dC4fEe278FDCBD38C102D88",
      "value": {
        "_hex": "0x5fb5ba67f2760000"
      },
      "nonce": 0,
      "data": "0x",
      "r": "0xaed09c19cadf1cbd42f35aab872ba29d547345a65a97555641eb0ad5c913d385",
      "s": "0x4a007df228cece2b11e067240a927efe683b08817a2933afd10502e8d0d79e48",
      "v": 28,
      "creates": null,
      "raw": "0xf86c80850d0e9516c88252089432be343b94f860124dc4fee278fdcbd38c102d88885fb5ba67f2760000801ca0aed09c19cadf1cbd42f35aab872ba29d547345a65a97555641eb0ad5c913d385a04a007df228cece2b11e067240a927efe683b08817a2933afd10502e8d0d79e48",
      "networkId": 0,
      "chainId": 0
    }
  ]
}