{
  "hash": "0x476114ca18621a771c2ec7124008fe73bc8b3a3a256e93cde2d5bacdfd53f7ce",
  "parentHash": "0x6435524f931dc3e7804118a4e33ebbcf01fca92e07f353e3a3cb1edb43da9fe9",
  "number": 85596,
  "timestamp": 1439565928,
  "nonce": "0x20737aae954e88c8",
  "difficulty": 2780023045970,
  "gasLimit": {
    "_hex": "0x2fefd8"
  },
  "gasUsed": {
    "_hex": "0xa674"
  },
  "miner": "0xee5379D0c1ca47327368027455074C26D9952628",
  "extraData": "0x476574682f76312e302e312d38326566323666362f6c696e75782f676f312e34",
  "transactions": [
    {
      "hash": "0xdf3fe2dda7143ecdd0fadeb36ff9df62f5e7ec5bfe1dae5fae73d2c97dcb6cbf",
      "blockHash": "0x476114ca18621a771c2ec7124008fe73bc8b3a3a256e93cde2d5bacdfd53f7ce",
      "blockNumber": 85596,
      "transactionIndex": 0,
      "confirmations": null,
      "from": "0x8B5f29cc2fAA262CDEf30Ef554F50Eb488146EAc",
      "gasPrice": {
        "_hex": "0x110c8f7d8de"
      },
      "gasLimit": {
        "_hex": "0xc350"
      },
      "to": "0x2910543Af39abA0Cd09dBb2D50200b3E800A63D2",
      "value": {
        "_hex": "0x6690c647c11f10000"
      },
      "nonce": 0,
      "data": "0x454e514e3230413330",
      "r": "0x8fa520645ed67734862fba4e54482fecebf99f2b7e7264f4e5192d65511dc7f9",
      "s": "0x5cdcde60af8febf8b7e7f2e14228376ff29bb792b19a643f8f89d355d4f866bd",
      "v": 28,
      "creates": null,
      "raw": "0xf87780860110c8f7d8de82c350942910543af39aba0cd09dbb2d50200b3e800a63d28906690c647c11f1000089454e514e32304133301ca08fa520645ed67734862fba4e54482fecebf99f2b7e7264f4e5192d65511dc7f9a05cdcde60af8febf8b7e7f2e14228376ff29bb792b19a643f8f89d355d4f866bd",
      "networkId": 0,
      "chainId": 0
    },
    {
      "hash": "0x5749f62a1a6563d7801598e02c45fb77e713c0e018612653030b78a2822821cd",
      "blockHash": "0x476114ca18621a771c2ec7124008fe73bc8b3a3a256e93cde2d5bacdfd53f7ce",
      "blockNumber": 85596,
      "transactionIndex": 1,
      "confirmations": null,
      "from": "0x292D4fe90093af505D6073477Ed402B022f9b8f9",
      "gasPrice": {
        "_hex": "0xba43b7400"
      },
      "gasLimit": {
        "_hex": "0x5208"
      },
      "to": "0xC47Aaa860008be6f65B58c6C6E02a84e666EfE31",
      "value": {
        "_hex": "0x23577555ef5fac0f0"
      },
      "nonce": 1,
      "data": "0x",
      "r": "0x7e113d42459438cb4e2880a583055c38bd6ee43b8b09c78b34b4ba34b6ca6e9b",
      "s": "0x16e6a5026cf7f9c07cbaa1e927b74eb117dff6bed2ee1d47baa34e97744898f5",
      "v": 27,
      "creates": null,
      "raw": "0xf86d01850ba43b740082520894c47aaa860008be6f65b58c6c6e02a84e666efe3189023577555ef5fac0f0801ba07e113d42459438cb4e2880a583055c38bd6ee43b8b09c78b34b4ba34b6ca6e9ba016e6a5026cf7f9c07cbaa1e927b74eb117dff6bed2ee1d47baa34e97744898f5",
      "networkId": 0,
      "chainId": 0
    }
  ]
}