{
  "hash": "0x7fc6278f1ca9229551d39965d65c56c93bb46c77cf00c53102f06c26d63cb1de",
  "parentHash": "0x73d25beccffedd72d4be21118619f556e65661ad7cf3f7a488fbe837891c9b55",
  "number": 94711,
  "timestamp": 1439712822,
  "nonce": "0x1b49ca2a402ce851",
  "difficulty": 3488249333015,
  "gasLimit": {
    "_hex": "0x2fefd8"
  },
  "gasUsed": {
    "_hex": "0x5208"
  },
  "miner": "0xe6A7a1d47ff21B6321162AEA7C6CB457D5476Bca",
  "extraData": "0x476574682f76312e302e312d38326566323666362f6c696e75782f676f312e34",
  "transactions": [
    {
      "hash": "0x9dc761f961aa9a32de68db1dbcd64d9278026ccf8b37720c1cf9963360e9960a",
      "blockHash": "0x7fc6278f1ca9229551d39965d65c56c93bb46c77cf00c53102f06c26d63cb1de",
      "blockNumber": 94711,
      "transactionIndex": 0,
      "confirmations": null,
      "from": "0x164d6C84C4D54AA3E22A5b2B72cFb968eDe862C5",
      "gasPrice": {
        "_hex": "0xd0cecdd87"
      },
      "gasLimit": {
        "_hex": "0x5208"
      },
      "to": "0x32Be343B94f860124dC4fEe278FDCBD38C102D88",
      "value": {
        "_hex": "0x21e63aeaf7d8a0000"
      },
      "nonce": 2,
      "data": "0x",
      "r": "0x8ce2e63a608f7238fc23ea2962fbeb3cb900419bc9c626bcb14478c39bfb43ae",
      "s": "0x2b126530a6af0c1c2ca6a5b4e7583afa8d0af37562412c3cd43c43b3d1d608cf",
      "v": 27,
      "creates": null,
      "raw": "0xf86d02850d0cecdd878252089432be343b94f860124dc4fee278fdcbd38c102d8889021e63aeaf7d8a0000801ba08ce2e63a608f7238fc23ea2962fbeb3cb900419bc9c626bcb14478c39bfb43aea02b126530a6af0c1c2ca6a5b4e7583afa8d0af37562412c3cd43c43b3d1d608cf",
      "networkId": 0,
      "chainId": 0
    }
  ]
}