{
  "hash": "0x6d35614a77ad85bc0d9076f15ac1eb79436f749cc7a727aab8c8f2b060dbd71b",
  "parentHash": "0x266d47654255badf467888918b1256ffead3f5a01eb329727d3749257d690d62",
  "number": 94729,
  "timestamp": 1439713244,
  "nonce": "0xb962c8bed0fc3364",
  "difficulty": 3478037344007,
  "gasLimit": {
    "_hex": "0x2fefd8"
  },
  "gasUsed": {
    "_hex": "0x5208"
  },
  "miner": "0x3D5292e9d2a2D31014717ff936A0F9375A5Cc8b7",
  "extraData": "0x476574682f76312e302e312f77696e646f77732f676f312e342e32",
  "transactions": [
    {
      "hash": "0x18f7488f281efe8888128ba9dfca7666bb499e30533c008d1a81b42a3c110fa8",
      "blockHash": "0x6d35614a77ad85bc0d9076f15ac1eb79436f749cc7a727aab8c8f2b060dbd71b",
      "blockNumber": 94729,
      "transactionIndex": 0,
      "confirmations": null,
      "from": "0x468569500925D53e06Dd0993014aD166fD7Dd381",
      "gasPrice": {
        "_hex": "0xd6a85da12"
      },
      "gasLimit": {
        "_hex": "0x5208"
      },
      "to": "0x32Be343B94f860124dC4fEe278FDCBD38C102D88",
      "value": {
        "_hex": "0x1c40d2d1c6fe0c00"
      },
      "nonce": 4,
      "data": "0x",
      "r": "0x23f47ec5ecd65451c0be0af092ebeee30f5f7f23c09f34fa6cfd0eb9bd9e1ade",
      "s": "0x1907cf35ce86e83a50483a87432ba4bbb4c8d9c12a02be784d7f353e9c313a99",
      "v": 27,
      "creates": null,
      "raw": "0xf86c04850d6a85da128252089432be343b94f860124dc4fee278fdcbd38c102d88881c40d2d1c6fe0c00801ba023f47ec5ecd65451c0be0af092ebeee30f5f7f23c09f34fa6cfd0eb9bd9e1adea01907cf35ce86e83a50483a87432ba4bbb4c8d9c12a02be784d7f353e9c313a99",
      "networkId": 0,
      "chainId": 0
    }
  ]
}