{
  "hash": "0x47f959c741587d3133fbe36c23e3dc16a1c0dde7ee351b02802692cb9b279c81",
  "parentHash": "0x58ed2f031f420199f53868e07c0f3bd022e21722d5d89329d74e224bffaf1307",
  "number": 54134,
  "timestamp": 1439049312,
  "nonce": "0xaf6a60061bd84af6",
  "difficulty": 1602431618093,
  "gasLimit": {
    "_hex": "0x2fe3fc"
  },
  "gasUsed": {
    "_hex": "0x5698"
  },
  "miner": "0x356CEFb4Eb836DC68403308309E075a31DD991D2",
  "extraData": "0x476574682f76312e302e302f6c696e75782f676f312e342e32",
  "transactions": [
    {
      "hash": "0x67cbd1a0ebfad84aa633096801696b722402fe9d7299964022014c56e2f0fd38",
      "blockHash": "0x47f959c741587d3133fbe36c23e3dc16a1c0dde7ee351b02802692cb9b279c81",
      "blockNumber": 54134,
      "transactionIndex": 0,
      "confirmations": null,
      "from": "0xAcE365e4cD93314Ccf1C389F17216FFC5966BB1F",
      "gasPrice": {
        "_hex": "0x109c7f391bd"
      },
      "gasLimit": {
        "_hex": "0x15f90"
      },
      "to": "0x0000000000000000000000000000000000000000",
      "value": {
        "_hex": "0x0"
      },
      "nonce": 0,
      "data": "0x432ced04456172746820446f6c6c61720000000000000000000000000000000000000000",
      "r": "0x835cba944995ebbaf97e2d8f3cf28cfd11a23445e24e0e14aec07b54f9ccd1b1",
      "s": "0x4db558ef4c0eaef0136dc44a3940ca890b88f577ea355e2192bfe7688be19c4f",
      "v": 27,
      "creates": null,
      "raw": "0xf88a80860109c7f391bd83015f9094000000000000000000000000000000000000000080a4432ced04456172746820446f6c6c617200000000000000000000000000000000000000001ba0835cba944995ebbaf97e2d8f3cf28cfd11a23445e24e0e14aec07b54f9ccd1b1a04db558ef4c0eaef0136dc44a3940ca890b88f577ea355e2192bfe7688be19c4f",
      "networkId": 0,
      "chainId": 0
    }
  ]
}