{
  "hash": "0xd299239202b0cba232758e63ac69bf56827824f757ee64ab6e3e7ebfc7e0dbe7",
  "parentHash": "0x91848cecc66aa9eba8b3c96adf908c7b9e72d3570a323008e8ee0f6e1a6bbdc3",
  "number": 65812,
  "timestamp": 1439243246,
  "nonce": "0xa4bfa3c74b456057",
  "difficulty": 1949154621638,
  "gasLimit": {
    "_hex": "0x2fefd8"
  },
  "gasUsed": {
    "_hex": "0x5208"
  },
  "miner": "0xA21Ba94e45f0E168dA824fC67aC9cb5Cb577a8aF",
  "extraData": "0x",
  "transactions": [
    {
      "hash": "0xc9a0a0e3adedec1d70196e473a0737cbf9b14ea382a18b58e5eae863e0e6ccfe",
      "blockHash": "0xd299239202b0cba232758e63ac69bf56827824f757ee64ab6e3e7ebfc7e0dbe7",
      "blockNumber": 65812,
      "transactionIndex": 0,
      "confirmations": null,
      "from": "0x8F586E3212291c58DCc78980a9c3432a3aFd3b6E",
      "gasPrice": {
        "_hex": "0xe07e84881"
      },
      "gasLimit": {
        "_hex": "0x5208"
      },
      "to": "0x32Be343B94f860124dC4fEe278FDCBD38C102D88",
      "value": {
        "_hex": "0x2083e136996bc40000"
      },
      "nonce": 5,
      "data": "0x",
      "r": "0x9192f1001d09407971f5d21176c05efb1067d0f08f5714eace62bd5700781e95",
      "s": "0x107e6d1a2cf5cdd7b977319445575ec5784e217d45870c9580dbe94bcde6643f",
      "v": 28,
      "creates": null,
      "raw": "0xf86d05850e07e848818252089432be343b94f860124dc4fee278fdcbd38c102d88892083e136996bc40000801ca09192f1001d09407971f5d21176c05efb1067d0f08f5714eace62bd5700781e95a0107e6d1a2cf5cdd7b977319445575ec5784e217d45870c9580dbe94bcde6643f",
      "networkId": 0,
      "chainId": 0
    }
  ]
}