{
  "hash": "0x90f914d66c5b534189f9e729101e3b68218dc81c022248afc19e2c05d3fff0ba",
  "parentHash": "0xd5eea5ee6c80e69eb789aa3eedc5dcfbac97b799dba9a53e659c3bb5a1928c26",
  "number": 46992,
  "timestamp": 1438932849,
  "nonce": "0xe5ba68f3d8758b52",
  "difficulty": 1450325021832,
  "gasLimit": {
    "_hex": "0x8cd3"
  },
  "gasUsed": {
    "_hex": "0x5208"
  },
  "miner": "0x4D5513ac71Bb29A4C087c71E17Ac4A057F6B20f9",
  "extraData": "0x476574682f76312e302e312d38326566323666362f6c696e75782f676f312e34",
  "transactions": [
    {
      "hash": "0xb0bf6b3c60720bd690fe6a594d5717a594fa904e5f19e2c7c938442041b75cb3",
      "blockHash": "0x90f914d66c5b534189f9e729101e3b68218dc81c022248afc19e2c05d3fff0ba",
      "blockNumber": 46992,
      "transactionIndex": 0,
      "confirmations": null,
      "from": "0xe6A7a1d47ff21B6321162AEA7C6CB457D5476Bca",
      "gasPrice": {
        "_hex": "0xd980cfe98"
      },
      "gasLimit": {
        "_hex": "0x5208"
      },
      "to": "0x985D744C50fdcB355d105EE00565A8b32BF0B08f",
      "value": {
        "_hex": "0x1ccf4adc959ad1e0"
      },
      "nonce": 29,
      "data": "0x",
      "r": "0xc35e369297b2b6f406d797be5d7786031cafef605a06100b1a7ae9f6071363ed",
      "s": "0x52fd7671e71e99205b5c64ced9224097c724cca82461c79739d6d1d7df0e8e5b",
      "v": 28,
      "creates": null,
      "raw": "0xf86c1d850d980cfe9882520894985d744c50fdcb355d105ee00565a8b32bf0b08f881ccf4adc959ad1e0801ca0c35e369297b2b6f406d797be5d7786031cafef605a06100b1a7ae9f6071363eda052fd7671e71e99205b5c64ced9224097c724cca82461c79739d6d1d7df0e8e5b",
      "networkId": 0,
      "chainId": 0
    }
  ]
}