{
  "hash": "0xf01fd5322ad52adc79e5dc3b8853ea4deb1026c3fae76fd43e6bc5938b51c410",
  "parentHash": "0x33b3bea98bf8ecff59b866d1f96df2ab77993f2ae01bdf429a7293262673e86f",
  "number": 48725,
  "timestamp": 1438961961,
  "nonce": "0xb33a5824480c7142",
  "difficulty": 1476460253224,
  "gasLimit": {
    "_hex": "0x1cd32"
  },
  "gasUsed": {
    "_hex": "0xfd44"
  },
  "miner": "0xf8E0CA3Ed80bd541b94BEdCf259e8CF2141A9523",
  "extraData": "0x476574682f76312e302e312f77696e646f77732f676f312e342e32",
  "transactions": [
    {
      "hash": "0x6405bc4af60b7c1de283b12c48c306092d2cc552a60b3c5f518528c6ad2036e4",
      "blockHash": "0xf01fd5322ad52adc79e5dc3b8853ea4deb1026c3fae76fd43e6bc5938b51c410",
      "blockNumber": 48725,
      "transactionIndex": 0,
      "confirmations": null,
      "from": "0xe44ea51063405154AAE736Be2BF1Ee3B9BE639ae",
      "gasPrice": {
        "_hex": "0x110c8f7d8de"
      },
      "gasLimit": {
        "_hex": "0xc350"
      },
      "to": "0x2910543Af39abA0Cd09dBb2D50200b3E800A63D2",
      "value": {
        "_hex": "0x83d6c7aab6360000"
      },
      "nonce": 2,
      "data": "0x454e52435736594147",
      "r": "0x0083021c4deb98d748f60806babb18824c3e019b8332b58712ca3df55fb92e84",
      "s": "0xf26f2b87d3a4ad08b666e31d229418bd61af00f0219d5e429038c33e51f05907",
      "v": 28,
      "creates": null,
      "raw": "0xf87502860110c8f7d8de82c350942910543af39aba0cd09dbb2d50200b3e800a63d28883d6c7aab636000089454e524357365941471c9f83021c4deb98d748f60806babb18824c3e019b8332b58712ca3df55fb92e84a0f26f2b87d3a4ad08b666e31d229418bd61af00f0219d5e429038c33e51f05907",
      "networkId": 0,
      "chainId": 0
    },
    {
      "hash": "0xd38637e4d4c52f00bf5017af6f95cd0eb2485ff3259f271c4ab7c42f76350c3a",
      "blockHash": "0xf01fd5322ad52adc79e5dc3b8853ea4deb1026c3fae76fd43e6bc5938b51c410",
      "blockNumber": 48725,
      "transactionIndex": 1,
      "confirmations": null,
      "from": "0x305f78d618b990B4295bAC8a2DfA262884f804Ea",
      "gasPrice": {
        "_hex": "0x110c8f7d8de"
      },
      "gasLimit": {
        "_hex": "0xc350"
      },
      "to": "0x2910543Af39abA0Cd09dBb2D50200b3E800A63D2",
      "value": {
        "_hex": "0xd84afc4e9a930e0000"
      },
      "nonce": 1,
      "data": "0x454e395a524d554e47",
      "r": "0xa0e1a135f134521f4c77ba1e85061007e8ad3b373fc1be9e89b1a5ba7b7c2134",
      "s": "0xfd3e0ebbf44407ce8f42f105ce4bec5b4ec4eb4159610e05f0f591262d022533",
      "v": 27,
      "creates": null,
      "raw": "0xf87701860110c8f7d8de82c350942910543af39aba0cd09dbb2d50200b3e800a63d289d84afc4e9a930e000089454e395a524d554e471ba0a0e1a135f134521f4c77ba1e85061007e8ad3b373fc1be9e89b1a5ba7b7c2134a0fd3e0ebbf44407ce8f42f105ce4bec5b4ec4eb4159610e05f0f591262d022533",
      "networkId": 0,
      "chainId": 0
    },
    {
      "hash": "0x8741e271a56d5a6d4301fb9b131f9f3136fd4ffdd255f515b514cf68c892819b",
      "blockHash": "0xf01fd5322ad52adc79e5dc3b8853ea4deb1026c3fae76fd43e6bc5938b51c410",
      "blockNumber": 48725,
      "transactionIndex": 2,
      "confirmations": null,
      "from": "0x25e037f00a18270BA5EC3420229DDB0A2CE38Fa2",
      "gasPrice": {
        "_hex": "0x110c8f7d8de"
      },
      "gasLimit": {
        "_hex": "0xc350"
      },
      "to": "0x2910543Af39abA0Cd09dBb2D50200b3E800A63D2",
      "value": {
        "_hex": "0x21e0c0013070adc0000"
      },
      "nonce": 0,
      "data": "0x454e5041314b325052",
      "r": "0xf0337d90bfd1bd6aff4c8f9830c2dbc355cbf1250f5154ac4fb420ce8158f69a",
      "s": "0x23b9dd09e9febe0f117d332bab48d852dae94013a4591f54faa982c04b062f47",
      "v": 28,
      "creates": null,
      "raw": "0xf87880860110c8f7d8de82c350942910543af39aba0cd09dbb2d50200b3e800a63d28a021e0c0013070adc000089454e5041314b3250521ca0f0337d90bfd1bd6aff4c8f9830c2dbc355cbf1250f5154ac4fb420ce8158f69aa023b9dd09e9febe0f117d332bab48d852dae94013a4591f54faa982c04b062f47",
      "networkId": 0,
      "chainId": 0
    }
  ]
}