{
  "hash": "0x3dcb0041dd219e5a915073d9142166012c745231f47cebafc734a4ab5d346428",
  "parentHash": "0x350acd42de725eb4897c870e354693faf0dec15a1bf2d4d72b176658a5fce566",
  "number": 52257,
  "timestamp": 1439018943,
  "nonce": "0x45a7d80f04ba0571",
  "difficulty": 1554236256453,
  "gasLimit": {
    "_hex": "0x11c946"
  },
  "gasUsed": {
    "_hex": "0x5208"
  },
  "miner": "0x6dED38803DA575897de5d51b7AEF3b86f35945A1",
  "extraData": "0x476574682f76312e302e312f6c696e75782f676f312e342e32",
  "transactions": [
    {
      "hash": "0xcf7222989802fffdc173f207ac4182c67362c55a34bf592ac20bdaec0892ed8b",
      "blockHash": "0x3dcb0041dd219e5a915073d9142166012c745231f47cebafc734a4ab5d346428",
      "blockNumber": 52257,
      "transactionIndex": 0,
      "confirmations": null,
      "from": "0xCA092A957744f6385B1aee5dC694143E8A06F805",
      "gasPrice": {
        "_hex": "0xe385dc9dd"
      },
      "gasLimit": {
        "_hex": "0x15f90"
      },
      "to": "0x77b9E5A712e862b6feaaC49BbcAE8BE895E22A85",
      "value": {
        "_hex": "0x32cf614bbd30400"
      },
      "nonce": 12,
      "data": "0x",
      "r": "0x93b21decf197b3fcc989c27a0b55e4df0030bbc4a4c89be59b0478d6b045748c",
      "s": "0x7f7c3f63968de08d7d86222f157cc56f5a0a7f9bdb2603715f67a3011bfdd6b9",
      "v": 27,
      "creates": null,
      "raw": "0xf86d0c850e385dc9dd83015f909477b9e5a712e862b6feaac49bbcae8be895e22a8588032cf614bbd30400801ba093b21decf197b3fcc989c27a0b55e4df0030bbc4a4c89be59b0478d6b045748ca07f7c3f63968de08d7d86222f157cc56f5a0a7f9bdb2603715f67a3011bfdd6b9",
      "networkId": 0,
      "chainId": 0
    }
  ]
}