{
  "hash": "0x111ec4cad423424fbd4c4aea7feefcec0880208e124a23412ceaa2448f499c03",
  "parentHash": "0xba8e85ac52bb418b7bd66ae4f45bc7ebe5fe235e82d26659f91c1ee65ed2bb42",
  "number": 55746,
  "timestamp": 1439076284,
  "nonce": "0xbab61b9b316c7b0f",
  "difficulty": 1597436862453,
  "gasLimit": {
    "_hex": "0x2fe3ff"
  },
  "gasUsed": {
    "_hex": "0x546c"
  },
  "miner": "0x70C6b45fe0A5116E97B112B806A76E2F51E24413",
  "extraData": "0x476574682f76312e302e302f77696e646f77732f676f312e342e32",
  "transactions": [
    {
      "hash": "0x3a7e7db2bc2cb630fdcb1405ccb55062cb9d6cfe0358a9b976077b1b7c517356",
      "blockHash": "0x111ec4cad423424fbd4c4aea7feefcec0880208e124a23412ceaa2448f499c03",
      "blockNumber": 55746,
      "transactionIndex": 0,
      "confirmations": null,
      "from": "0x8D6DF209484d7B94702b03A53e56b9fb0660f6F0",
      "gasPrice": {
        "_hex": "0x110c8f7d8de"
      },
      "gasLimit": {
        "_hex": "0xc350"
      },
      "to": "0x2910543Af39abA0Cd09dBb2D50200b3E800A63D2",
      "value": {
        "_hex": "0x3627e8f712373c0000"
      },
      "nonce": 1,
      "data": "0x454e474a354a555530",
      "r": "0x298c87cc3d3fb5ed1e8738150d713cd6dbd94d8f3a32670763d529da21c6bf88",
      "s": "0x3cf7ff605196cda6bc28e65712e3e23683055fa831b1f4552c28d4df73968aac",
      "v": 27,
      "creates": null,
      "raw": "0xf87701860110c8f7d8de82c350942910543af39aba0cd09dbb2d50200b3e800a63d2893627e8f712373c000089454e474a354a5555301ba0298c87cc3d3fb5ed1e8738150d713cd6dbd94d8f3a32670763d529da21c6bf88a03cf7ff605196cda6bc28e65712e3e23683055fa831b1f4552c28d4df73968aac",
      "networkId": 0,
      "chainId": 0
    }
  ]
}