{
  "hash": "0xb7b1487874d5ff3b39df59a442ec2afb0035c82134230f97cafadaf41f087b28",
  "parentHash": "0x7babee5e7e64283ddadcf00ba90079473967694e634e83a50d693ee9b595d285",
  "number": 90890,
  "timestamp": 1439647015,
  "nonce": "0x32f073bdb4c4c32b",
  "difficulty": 3407332415092,
  "gasLimit": {
    "_hex": "0x2fefd8"
  },
  "gasUsed": {
    "_hex": "0x5208"
  },
  "miner": "0xe6A7a1d47ff21B6321162AEA7C6CB457D5476Bca",
  "extraData": "0x476574682f76312e302e312d38326566323666362f6c696e75782f676f312e34",
  "transactions": [
    {
      "hash": "0x0b84a77fd975744778069944471307c252f27b12966af3eab9874025a3372f2e",
      "blockHash": "0xb7b1487874d5ff3b39df59a442ec2afb0035c82134230f97cafadaf41f087b28",
      "blockNumber": 90890,
      "transactionIndex": 0,
      "confirmations": null,
      "from": "0x2e32A53e7972001B996D994722B1ab3dD869949d",
      "gasPrice": {
        "_hex": "0xd0994e757"
      },
      "gasLimit": {
        "_hex": "0x5208"
      },
      "to": "0x32Be343B94f860124dC4fEe278FDCBD38C102D88",
      "value": {
        "_hex": "0x1323d970f0802c00"
      },
      "nonce": 1,
      "data": "0x",
      "r": "0xf5c219671ab3885a261e0563ae7709b7efcc32a7ccb265975e7acef377b60197",
      "s": "0x6cc45ac04ade395e96b003d33f1a3d69a4c929bebb0c78d893fd7ddc89bcf440",
      "v": 27,
      "creates": null,
      "raw": "0xf86c01850d0994e7578252089432be343b94f860124dc4fee278fdcbd38c102d88881323d970f0802c00801ba0f5c219671ab3885a261e0563ae7709b7efcc32a7ccb265975e7acef377b60197a06cc45ac04ade395e96b003d33f1a3d69a4c929bebb0c78d893fd7ddc89bcf440",
      "networkId": 0,
      "chainId": 0
    }
  ]
}