{
  "hash": "0xa3f7adbe4eee807d9398bf673dd1c8b6ff9be68ad3c914e5b2ead5d7f7375246",
  "parentHash": "0x01fb761bb17a2e3b69724bb5799a9e0e337394269af5363cd1e418208cbd09fe",
  "number": 69043,
  "timestamp": 1439297577,
  "nonce": "0x132d6264819bab79",
  "difficulty": 2040913105355,
  "gasLimit": {
    "_hex": "0x2fefd8"
  },
  "gasUsed": {
    "_hex": "0x5208"
  },
  "miner": "0xf927a40C8B7F6E07c5af7FA2155B4864a4112B13",
  "extraData": "0x",
  "transactions": [
    {
      "hash": "0xe7807490050977716152c7b201e359deb4341533a8725becd888be65afedd38d",
      "blockHash": "0xa3f7adbe4eee807d9398bf673dd1c8b6ff9be68ad3c914e5b2ead5d7f7375246",
      "blockNumber": 69043,
      "transactionIndex": 0,
      "confirmations": null,
      "from": "0x7B9fe200a9d435DA2D142176A6A658050D8458B4",
      "gasPrice": {
        "_hex": "0xba43b7400"
      },
      "gasLimit": {
        "_hex": "0x5208"
      },
      "to": "0xdAcd27d0A3Bc927AC02ed380c1B28D29bE5a771d",
      "value": {
        "_hex": "0x1ee8b7b42062000"
      },
      "nonce": 1,
      "data": "0x",
      "r": "0xb2233f677adfa8e36734eb5e03e1e3dd7b095d15980120ecf3da371587b0809a",
      "s": "0x604d88952eca57f6c8df426ec33452e84c561ce7ec362251ec04c130aca1d3fb",
      "v": 28,
      "creates": null,
      "raw": "0xf86c01850ba43b740082520894dacd27d0a3bc927ac02ed380c1b28d29be5a771d8801ee8b7b42062000801ca0b2233f677adfa8e36734eb5e03e1e3dd7b095d15980120ecf3da371587b0809aa0604d88952eca57f6c8df426ec33452e84c561ce7ec362251ec04c130aca1d3fb",
      "networkId": 0,
      "chainId": 0
    }
  ]
}