{
  "hash": "0x73e74c4869217d7eb3c81b720268e82eb16c94c52323fb5a853d93f49163d8c5",
  "parentHash": "0xd2c38b86d23d89e5a8483cb11d583fe7eebabd2ed21f373231f925bafae44f0d",
  "number": 65025,
  "timestamp": 1439230108,
  "nonce": "0x8b5cf01859c13e1e",
  "difficulty": 1918178976842,
  "gasLimit": {
    "_hex": "0x2fefd8"
  },
  "gasUsed": {
    "_hex": "0xa410"
  },
  "miner": "0xf927a40C8B7F6E07c5af7FA2155B4864a4112B13",
  "extraData": "0x",
  "transactions": [
    {
      "hash": "0xb81a0f3bf3a0770be7af03b7fc858d202a7ca7f865ba4968b48883badfbbbbf4",
      "blockHash": "0x73e74c4869217d7eb3c81b720268e82eb16c94c52323fb5a853d93f49163d8c5",
      "blockNumber": 65025,
      "transactionIndex": 0,
      "confirmations": null,
      "from": "0x7C3167f6775133a8974439b34aF759AdfFAeE9cC",
      "gasPrice": {
        "_hex": "0xba43b7400"
      },
      "gasLimit": {
        "_hex": "0x5208"
      },
      "to": "0x8665D94A5a2b9ce37b3265426E4e07513523C62B",
      "value": {
        "_hex": "0x31b54c24e5bd000"
      },
      "nonce": 1,
      "data": "0x",
      "r": "0x0a2228bfaaa0689703799b5598db7eca1e4c94cd451ea2f0fe19ac03f902dac1",
      "s": "0x62737ecc3aa4e602a0bc582ceec58553a70a05cff39ca66e14781f31f11b7885",
      "v": 28,
      "creates": null,
      "raw": "0xf86c01850ba43b7400825208948665d94a5a2b9ce37b3265426e4e07513523c62b88031b54c24e5bd000801ca00a2228bfaaa0689703799b5598db7eca1e4c94cd451ea2f0fe19ac03f902dac1a062737ecc3aa4e602a0bc582ceec58553a70a05cff39ca66e14781f31f11b7885",
      "networkId": 0,
      "chainId": 0
    },
    {
      "hash": "0x662ddc118c2a78817d2685767cf2f00a1310a5c23b04cc59e178a12687ef3d82",
      "blockHash": "0x73e74c4869217d7eb3c81b720268e82eb16c94c52323fb5a853d93f49163d8c5",
      "blockNumber": 65025,
      "transactionIndex": 1,
      "confirmations": null,
      "from": "0x38Dfa501D885fbbd00AF63C5E022D549c0AB95A7",
      "gasPrice": {
        "_hex": "0xba43b7400"
      },
      "gasLimit": {
        "_hex": "0x5208"
      },
      "to": "0xe3D2CC033D83A012041189034e92b101FA507bFC",
      "value": {
        "_hex": "0x2bec80ee81a1000"
      },
      "nonce": 1,
      "data": "0x",
      "r": "0xea8ea8a0456e0f76d93de85f578fa5f699caf71db85f52db94a491148b6206ca",
      "s": "0x45c26f87838ed3d622a6d337e2f8607ba1664493dffe72b6849d614694784768",
      "v": 28,
      "creates": null,
      "raw": "0xf86c01850ba43b740082520894e3d2cc033d83a012041189034e92b101fa507bfc8802bec80ee81a1000801ca0ea8ea8a0456e0f76d93de85f578fa5f699caf71db85f52db94a491148b6206caa045c26f87838ed3d622a6d337e2f8607ba1664493dffe72b6849d614694784768",
      "networkId": 0,
      "chainId": 0
    }
  ]
}