{
  "hash": "0x871b709ecd97fe9b524a50d83b181e251e4534f4f49b843996d940816e883d7d",
  "parentHash": "0xd83856cce700b01f65e936b9dc079c7e8ae08640e0708554a037a60f2632b1bb",
  "number": 112817,
  "timestamp": 1440013735,
  "nonce": "0xa2dfb7f10e18fbac",
  "difficulty": 4425910309484,
  "gasLimit": {
    "_hex": "0x2fefd8"
  },
  "gasUsed": {
    "_hex": "0xa410"
  },
  "miner": "0xA628b8BC80aA27eA70d8F27F30e254a90f959507",
  "extraData": "0xd983010001844765746887676f312e342e328777696e646f7773",
  "transactions": [
    {
      "hash": "0x7ab84a16606b7d76d588270298ffbb0a83efe52c29ebc54746e86eecb8c389c2",
      "blockHash": "0x871b709ecd97fe9b524a50d83b181e251e4534f4f49b843996d940816e883d7d",
      "blockNumber": 112817,
      "transactionIndex": 0,
      "confirmations": null,
      "from": "0x996369610F6aF04368872864ea319A09787B608D",
      "gasPrice": {
        "_hex": "0xd253e2c26"
      },
      "gasLimit": {
        "_hex": "0x5208"
      },
      "to": "0x32Be343B94f860124dC4fEe278FDCBD38C102D88",
      "value": {
        "_hex": "0x250a80fc3c2aec00"
      },
      "nonce": 3,
      "data": "0x",
      "r": "0x2899140459e013061241de9f7f7c2465de23fe14a8cd88ab474857a4e87572b4",
      "s": "0x7cbfb61e2727cab4975aac256e8b06394fbb9a0932b724441dd03bdc33b8ef18",
      "v": 27,
      "creates": null,
      "raw": "0xf86c03850d253e2c268252089432be343b94f860124dc4fee278fdcbd38c102d8888250a80fc3c2aec00801ba02899140459e013061241de9f7f7c2465de23fe14a8cd88ab474857a4e87572b4a07cbfb61e2727cab4975aac256e8b06394fbb9a0932b724441dd03bdc33b8ef18",
      "networkId": 0,
      "chainId": 0
    },
    {
      "hash": "0x3f9150c0ae15f8886b99b2991223eea81ac13f39723770cddd7660267ed0d137",
      "blockHash": "0x871b709ecd97fe9b524a50d83b181e251e4534f4f49b843996d940816e883d7d",
      "blockNumber": 112817,
      "transactionIndex": 1,
      "confirmations": null,
      "from": "0xf00955cEDD33a99B4a993aABeb4239e268aaD294",
      "gasPrice": {
        "_hex": "0xd253e2c26"
      },
      "gasLimit": {
        "_hex": "0x5208"
      },
      "to": "0x32Be343B94f860124dC4fEe278FDCBD38C102D88",
      "value": {
        "_hex": "0x266ccdfb44c10c00"
      },
      "nonce": 3,
      "data": "0x",
      "r": "0x62fa0d22951b3c7564b79e3ef361f0eadbf65cecde46985d1aa41c5b72432435",
      "s": "0x50ae573bf4fce09bfd793a3efdcc420303c5dc0ef077d6d07160a59f3582022c",
      "v": 28,
      "creates": null,
      "raw": "0xf86c03850d253e2c268252089432be343b94f860124dc4fee278fdcbd38c102d8888266ccdfb44c10c00801ca062fa0d22951b3c7564b79e3ef361f0eadbf65cecde46985d1aa41c5b72432435a050ae573bf4fce09bfd793a3efdcc420303c5dc0ef077d6d07160a59f3582022c",
      "networkId": 0,
      "chainId": 0
    }
  ]
}