{
  "hash": "0x865b8ed99cbcc1056b20ba407381ae63058be24efdd78e49762e1c4109702cad",
  "parentHash": "0x411e7e4a95b4de3f8972033288b004bad4c51912b8167de9f96bd7206dc14a59",
  "number": 50527,
  "timestamp": 1438990690,
  "nonce": "0x85db98c1732fdc0c",
  "difficulty": 1514103196355,
  "gasLimit": {
    "_hex": "0x68391"
  },
  "gasUsed": {
    "_hex": "0x546c"
  },
  "miner": "0xA1623430350C5df1b52B0b57483A5bb45d1796Da",
  "extraData": "0x476574682f76312e302e302d30636463373634372f6c696e75782f676f312e34",
  "transactions": [
    {
      "hash": "0x9a8e8611ecfb35639a1f2c8a50cb6487dbebcf213ccfbbd967f1b59301c25e6c",
      "blockHash": "0x865b8ed99cbcc1056b20ba407381ae63058be24efdd78e49762e1c4109702cad",
      "blockNumber": 50527,
      "transactionIndex": 0,
      "confirmations": null,
      "from": "0xE528A0e5a267D667e9393a6584E19b34Dc9BE973",
      "gasPrice": {
        "_hex": "0x110c8f7d8de"
      },
      "gasLimit": {
        "_hex": "0xc350"
      },
      "to": "0x2910543Af39abA0Cd09dBb2D50200b3E800A63D2",
      "value": {
        "_hex": "0x2b505a3ab7711c0000"
      },
      "nonce": 3,
      "data": "0x454e52344851514d52",
      "r": "0x5c9cb98282216bb642270a19384184e788058079e3dc954d43c75063e7751af3",
      "s": "0x795fef01ed9dcf526c9551c25d219fe99d2d1c086a176f6490d21d2616bb8abb",
      "v": 28,
      "creates": null,
      "raw": "0xf87703860110c8f7d8de82c350942910543af39aba0cd09dbb2d50200b3e800a63d2892b505a3ab7711c000089454e52344851514d521ca05c9cb98282216bb642270a19384184e788058079e3dc954d43c75063e7751af3a0795fef01ed9dcf526c9551c25d219fe99d2d1c086a176f6490d21d2616bb8abb",
      "networkId": 0,
      "chainId": 0
    }
  ]
}