{
  "hash": "0x23962ef5b9ceb677cd45d5345e7a22000e03e2a042b82258ca5056bdece125c4",
  "parentHash": "0x2020a48c1953aded24a42908318bb170398f2bf9ab5e33e5b9aabdf7d761230a",
  "number": 86115,
  "timestamp": 1439573632,
  "nonce": "0xf4bd85d73dac9786",
  "difficulty": 2811246045440,
  "gasLimit": {
    "_hex": "0x2fefd8"
  },
  "gasUsed": {
    "_hex": "0x5208"
  },
  "miner": "0x790b8a3cE86E707ED0eD32bF89B3269692a23CC1",
  "extraData": "0xd783010001844765746887676f312e342e32856c696e7578",
  "transactions": [
    {
      "hash": "0x4b45df5895428cb272d7b93f8f2d1cc8e7d6ba8d7d14f5a5092df88139201e89",
      "blockHash": "0x23962ef5b9ceb677cd45d5345e7a22000e03e2a042b82258ca5056bdece125c4",
      "blockNumber": 86115,
      "transactionIndex": 0,
      "confirmations": null,
      "from": "0xF9634a7Ee627EeF74f4d803113CD4F87E5162079",
      "gasPrice": {
        "_hex": "0xba43b7400"
      },
      "gasLimit": {
        "_hex": "0x5b04"
      },
      "to": "0x9f78552704fe7e52cC7C3853534aA2C3cf580D54",
      "value": {
        "_hex": "0x4563918244f40000"
      },
      "nonce": 6,
      "data": "0x",
      "r": "0x8c8fb01921a1da3a1f54cb09c96d522712afa579e92528876cf83bc0ba1886d7",
      "s": "0x655e95f5d64d46e32e9805bd251a995e3b47238096018395237fe7e9820beb23",
      "v": 27,
      "creates": null,
      "raw": "0xf86c06850ba43b7400825b04949f78552704fe7e52cc7c3853534aa2c3cf580d54884563918244f40000801ba08c8fb01921a1da3a1f54cb09c96d522712afa579e92528876cf83bc0ba1886d7a0655e95f5d64d46e32e9805bd251a995e3b47238096018395237fe7e9820beb23",
      "networkId": 0,
      "chainId": 0
    }
  ]
}