{
  "hash": "0xf81f5dc3f9d33bc8300e374d683990abb21a69fe292940c8f4e805acbc1fb036",
  "parentHash": "0xed284ea858381258dd0c1a00c15d6753a9c792b74050d5b0edd695922bb25f46",
  "number": 76180,
  "timestamp": 1439416111,
  "nonce": "0x663db1f84800f190",
  "difficulty": 2238505011982,
  "gasLimit": {
    "_hex": "0x2fefd8"
  },
  "gasUsed": {
    "_hex": "0x546c"
  },
  "miner": "0xf927a40C8B7F6E07c5af7FA2155B4864a4112B13",
  "extraData": "0x",
  "transactions": [
    {
      "hash": "0x585811f2e76811db0e3dcd56d7743555493ac4599881823241b83c44fdf064cb",
      "blockHash": "0xf81f5dc3f9d33bc8300e374d683990abb21a69fe292940c8f4e805acbc1fb036",
      "blockNumber": 76180,
      "transactionIndex": 0,
      "confirmations": null,
      "from": "0x5C31996Dcac015F9be985b611F468730EF244D90",
      "gasPrice": {
        "_hex": "0x110c8f7d8de"
      },
      "gasLimit": {
        "_hex": "0xc350"
      },
      "to": "0x2910543Af39abA0Cd09dBb2D50200b3E800A63D2",
      "value": {
        "_hex": "0xac9ae05a71ebc0000"
      },
      "nonce": 0,
      "data": "0x454e31474237354530",
      "r": "0x831fefeadfb6d8be4e4d6846aa60038f46d2c4b48719daa7a4d11a2de1cee5e6",
      "s": "0x398c4238319b1383fbf4352efc6b210d1fff254ead0e30e8b20ad6d73a4bf0ee",
      "v": 28,
      "creates": null,
      "raw": "0xf87780860110c8f7d8de82c350942910543af39aba0cd09dbb2d50200b3e800a63d2890ac9ae05a71ebc000089454e314742373545301ca0831fefeadfb6d8be4e4d6846aa60038f46d2c4b48719daa7a4d11a2de1cee5e6a0398c4238319b1383fbf4352efc6b210d1fff254ead0e30e8b20ad6d73a4bf0ee",
      "networkId": 0,
      "chainId": 0
    }
  ]
}