{
  "hash": "0x8b386c349b13e380a5d058510a8ef181f560da8dc86ca116eca7f507f52d1605",
  "parentHash": "0x3d600ee5392a033a3a0fcd21d8eb8ee961055ff9ac7080ea0f7ddc82fd24ac18",
  "number": 101229,
  "timestamp": 1439819511,
  "nonce": "0x19cfa87275a8f6b5",
  "difficulty": 3828116810035,
  "gasLimit": {
    "_hex": "0x2fefd8"
  },
  "gasUsed": {
    "_hex": "0xa410"
  },
  "miner": "0xB1A4B41b8e75a153841c99c62d18588d45e7b406",
  "extraData": "0x",
  "transactions": [
    {
      "hash": "0x296710c2235bc1477fa2d9dd6e5b3e2886e56dc4988fd261f39e0350b3f2e477",
      "blockHash": "0x8b386c349b13e380a5d058510a8ef181f560da8dc86ca116eca7f507f52d1605",
      "blockNumber": 101229,
      "transactionIndex": 0,
      "confirmations": null,
      "from": "0x283396ce3CaC398BcBE7227F323e78FF96D08767",
      "gasPrice": {
        "_hex": "0xde391d541"
      },
      "gasLimit": {
        "_hex": "0x15f90"
      },
      "to": "0x17CEa9B05ce30C0870Bc2104C2F9CaB6F3bE8d6B",
      "value": {
        "_hex": "0x2386f26fc10000"
      },
      "nonce": 4,
      "data": "0x",
      "r": "0x2583b0c8d2efbd89abe625c9dd70eae2e15c245f6d272a54648420e86ffeead0",
      "s": "0x2d6fdfb7775f4eb5d52c9e61d341b3ad2a64474e4255336bbe9901fc5f8d45ff",
      "v": 27,
      "creates": null,
      "raw": "0xf86c04850de391d54183015f909417cea9b05ce30c0870bc2104c2f9cab6f3be8d6b872386f26fc10000801ba02583b0c8d2efbd89abe625c9dd70eae2e15c245f6d272a54648420e86ffeead0a02d6fdfb7775f4eb5d52c9e61d341b3ad2a64474e4255336bbe9901fc5f8d45ff",
      "networkId": 0,
      "chainId": 0
    },
    {
      "hash": "0x9842f2b9472ba08454306c3c6f93ef491da8617cbaf84ac658471474d4cc2394",
      "blockHash": "0x8b386c349b13e380a5d058510a8ef181f560da8dc86ca116eca7f507f52d1605",
      "blockNumber": 101229,
      "transactionIndex": 1,
      "confirmations": null,
      "from": "0x035052044374B3607Fc995a2460f096a5c5c0184",
      "gasPrice": {
        "_hex": "0xd92eebd38"
      },
      "gasLimit": {
        "_hex": "0x5208"
      },
      "to": "0x621733B1DcDa5b3f450D3f4231aC8342D3419f8f",
      "value": {
        "_hex": "0x4e1003b28d9280000"
      },
      "nonce": 2,
      "data": "0x",
      "r": "0x485e929f10e2cd455ed1bb09011b52048774ebb3bd2cf8f82b4eb52798bf0aa9",
      "s": "0x7e548ca540c018e94f76875ef506bc9f7e350354fec3f9ad04b23db97844b753",
      "v": 28,
      "creates": null,
      "raw": "0xf86d02850d92eebd3882520894621733b1dcda5b3f450d3f4231ac8342d3419f8f8904e1003b28d9280000801ca0485e929f10e2cd455ed1bb09011b52048774ebb3bd2cf8f82b4eb52798bf0aa9a07e548ca540c018e94f76875ef506bc9f7e350354fec3f9ad04b23db97844b753",
      "networkId": 0,
      "chainId": 0
    }
  ]
}