{
  "hash": "0x713b58f9822b706a01acaf9fdc8ce286ea4241c4cfeb05943e6c1a3e2c2c4354",
  "parentHash": "0x99fbcd2e3739809eb518ad8265adf19e4a05d5e9bcb2f0723dd1b8724dacd023",
  "number": 92283,
  "timestamp": 1439669686,
  "nonce": "0xd609d4f828541c8e",
  "difficulty": 3485853302091,
  "gasLimit": {
    "_hex": "0x2fefd8"
  },
  "gasUsed": {
    "_hex": "0xddfd"
  },
  "miner": "0x8df03bD37602d97980327B58D940258dC57007B3",
  "extraData": "0x",
  "transactions": [
    {
      "hash": "0x15c2b757b6ea454c0881f755292c84dff9fe373a1f33c9cc9f31b869a8a9ad22",
      "blockHash": "0x713b58f9822b706a01acaf9fdc8ce286ea4241c4cfeb05943e6c1a3e2c2c4354",
      "blockNumber": 92283,
      "transactionIndex": 0,
      "confirmations": null,
      "from": "0x4459e455175681CB925de98347A69DcC99A640DA",
      "gasPrice": {
        "_hex": "0xce962d5be"
      },
      "gasLimit": {
        "_hex": "0x7a120"
      },
      "to": "0x109C4f2CCc82C4d77Bde15F306707320294Aea3F",
      "value": {
        "_hex": "0xde0b6b3a7640000"
      },
      "nonce": 0,
      "data": "0x",
      "r": "0x1a5afe2836571bdee0b8ff4cf0c416183546d23dd82e6138c1244241c236806d",
      "s": "0x7c8d83fffcd3c9457bee6bb16490ba824597334e5f7e3881c1a71433f940cc0a",
      "v": 28,
      "creates": null,
      "raw": "0xf86d80850ce962d5be8307a12094109c4f2ccc82c4d77bde15f306707320294aea3f880de0b6b3a7640000801ca01a5afe2836571bdee0b8ff4cf0c416183546d23dd82e6138c1244241c236806da07c8d83fffcd3c9457bee6bb16490ba824597334e5f7e3881c1a71433f940cc0a",
      "networkId": 0,
      "chainId": 0
    }
  ]
}