{
  "hash": "0x7e68701734be3dc7c829705947cb11cabd75774aa522f25d5a96afcb78e2d964",
  "parentHash": "0x9331ab7e5b7a0cd7028d1ccd82c5353ce008896407d1bae003c903e7f1ef3d68",
  "number": 91352,
  "timestamp": 1439654291,
  "nonce": "0x7262056aa5ab66d4",
  "difficulty": 3477739249097,
  "gasLimit": {
    "_hex": "0x2fefd8"
  },
  "gasUsed": {
    "_hex": "0x5208"
  },
  "miner": "0x60a175bB691fEE8557a7b6D8eFC9E49889486f41",
  "extraData": "0x476574682f76312e302e312f77696e646f77732f676f312e342e32",
  "transactions": [
    {
      "hash": "0x97888886192b9e52efbdc6098884332220212093e1f3ef211c833ca201112532",
      "blockHash": "0x7e68701734be3dc7c829705947cb11cabd75774aa522f25d5a96afcb78e2d964",
      "blockNumber": 91352,
      "transactionIndex": 0,
      "confirmations": null,
      "from": "0x53c451B5977b29118899c6B6613Cf4dEC25E6Cb0",
      "gasPrice": {
        "_hex": "0x45d964b800"
      },
      "gasLimit": {
        "_hex": "0x5208"
      },
      "to": "0x6b1F4e104e6ffF726773eE5FD45410BA2120d0Fc",
      "value": {
        "_hex": "0xde0b6b3a7640000"
      },
      "nonce": 0,
      "data": "0x",
      "r": "0x9b096a4c30ce165499b11a3461020ac10a92ffe40374bab253c0a66d118d99be",
      "s": "0x5c4444603ffd4468ef77249205c578fb9aeb65cf250ac4c3b795e6e922cde8d4",
      "v": 27,
      "creates": null,
      "raw": "0xf86c808545d964b800825208946b1f4e104e6fff726773ee5fd45410ba2120d0fc880de0b6b3a7640000801ba09b096a4c30ce165499b11a3461020ac10a92ffe40374bab253c0a66d118d99bea05c4444603ffd4468ef77249205c578fb9aeb65cf250ac4c3b795e6e922cde8d4",
      "networkId": 0,
      "chainId": 0
    }
  ]
}