{
  "hash": "0xdbdb6ab6ef116b498ceab7141a8ab1646960e2550bafbe3e8e22f1daffacc7cf",
  "parentHash": "0x41d44babe64e7b2e68eeaca99f6801c2596ff4afdff5c5d534cfff84eeda7372",
  "number": 87936,
  "timestamp": 1439599900,
  "nonce": "0x050e1bbf20691606",
  "difficulty": 3186423183546,
  "gasLimit": {
    "_hex": "0x2fefd8"
  },
  "gasUsed": {
    "_hex": "0x5208"
  },
  "miner": "0xa50ec0D39fa913E62f1Bae7074E6F36caA71855b",
  "extraData": "0xd783010001844765746887676f312e342e32856c696e7578",
  "transactions": [
    {
      "hash": "0x831a62a594cb62b250a606a63d3a762300815c8d3765c6192d46d6bca440faa6",
      "blockHash": "0xdbdb6ab6ef116b498ceab7141a8ab1646960e2550bafbe3e8e22f1daffacc7cf",
      "blockNumber": 87936,
      "transactionIndex": 0,
      "confirmations": null,
      "from": "0x32Be343B94f860124dC4fEe278FDCBD38C102D88",
      "gasPrice": {
        "_hex": "0xde197ae65"
      },
      "gasLimit": {
        "_hex": "0x5208"
      },
      "to": "0x78293691c74717191d1D417b531f398350D54e89",
      "value": {
        "_hex": "0x5fc1b97136320000"
      },
      "nonce": 810,
      "data": "0x",
      "r": "0xc8fc04e29b0859a7f265b67af7d4c5c6bc9e3d5a8de4950f89fa71a12a3cf8ae",
      "s": "0x7dd15a10f9f2c8d1519a6044d880d04756798fc23923ff94f4823df8dc5b987a",
      "v": 28,
      "creates": null,
      "raw": "0xf86e82032a850de197ae658252089478293691c74717191d1d417b531f398350d54e89885fc1b97136320000801ca0c8fc04e29b0859a7f265b67af7d4c5c6bc9e3d5a8de4950f89fa71a12a3cf8aea07dd15a10f9f2c8d1519a6044d880d04756798fc23923ff94f4823df8dc5b987a",
      "networkId": 0,
      "chainId": 0
    }
  ]
}