{
  "hash": "0x76f24bfe25921cfda135d9bda92761705a8e94a9ea209f05b78daff4237a41b5",
  "parentHash": "0x06b2580a79b303a025bba96eefcb453630e45b229d845bdb4b04b5acf604b083",
  "number": 72160,
  "timestamp": 1439348280,
  "nonce": "0x886d22f068866fdb",
  "difficulty": 2174917171576,
  "gasLimit": {
    "_hex": "0x2fefd8"
  },
  "gasUsed": {
    "_hex": "0x127b2"
  },
  "miner": "0x9D49F602b0fdb924Bd63DDE2Bd0907E4A07c63a7",
  "extraData": "0x476574682f76312e302e312f6c696e75782f676f312e342e32",
  "transactions": [
    {
      "hash": "0x2acaf338e694b26c682c102e1f853cc247741ece1fb85d553f263f304e40fb9b",
      "blockHash": "0x76f24bfe25921cfda135d9bda92761705a8e94a9ea209f05b78daff4237a41b5",
      "blockNumber": 72160,
      "transactionIndex": 0,
      "confirmations": null,
      "from": "0x17580B766f7453525ca4C6A88b01b50570EA088C",
      "gasPrice": {
        "_hex": "0xdb42ca7ce"
      },
      "gasLimit": {
        "_hex": "0x61a80"
      },
      "to": "0x5Fe5B7546D1628f7348B023A0393de1FC825A4fD",
      "value": {
        "_hex": "0x8ac7230489e80000"
      },
      "nonce": 333,
      "data": "0xb595b8b50000000000000000000000000000000000000000000000000000000000000000",
      "r": "0x881e86557980cdb03a2a6e6f7027f8a905f74cdccfe6ac0848404bb0c59615a3",
      "s": "0x5e3b86dc377911978cddf03738cc8e10337ea4dab33dd128a25d335dd3ce74bf",
      "v": 28,
      "creates": null,
      "raw": "0xf89382014d850db42ca7ce83061a80945fe5b7546d1628f7348b023a0393de1fc825a4fd888ac7230489e80000a4b595b8b500000000000000000000000000000000000000000000000000000000000000001ca0881e86557980cdb03a2a6e6f7027f8a905f74cdccfe6ac0848404bb0c59615a3a05e3b86dc377911978cddf03738cc8e10337ea4dab33dd128a25d335dd3ce74bf",
      "networkId": 0,
      "chainId": 0
    },
    {
      "hash": "0x8e36a334c1c1d692d2b4b3eb4a458a8a4942959f86474ee89b8a1c388e16a36a",
      "blockHash": "0x76f24bfe25921cfda135d9bda92761705a8e94a9ea209f05b78daff4237a41b5",
      "blockNumber": 72160,
      "transactionIndex": 1,
      "confirmations": null,
      "from": "0x17580B766f7453525ca4C6A88b01b50570EA088C",
      "gasPrice": {
        "_hex": "0xdb42ca7ce"
      },
      "gasLimit": {
        "_hex": "0x61a80"
      },
      "to": "0x5Fe5B7546D1628f7348B023A0393de1FC825A4fD",
      "value": {
        "_hex": "0x53444835ec580000"
      },
      "nonce": 334,
      "data": "0xb595b8b50000000000000000000000000000000000000000000000000000000000000001",
      "r": "0xe4733f13dc60d5dec6c732666a076ffb9987462541b79918b3f106ef391a86f1",
      "s": "0x3ce0e722b18c35aab3232392f80fe6694fee11810dc74ea46cbaac5daf59d7ac",
      "v": 27,
      "creates": null,
      "raw": "0xf89382014e850db42ca7ce83061a80945fe5b7546d1628f7348b023a0393de1fc825a4fd8853444835ec580000a4b595b8b500000000000000000000000000000000000000000000000000000000000000011ba0e4733f13dc60d5dec6c732666a076ffb9987462541b79918b3f106ef391a86f1a03ce0e722b18c35aab3232392f80fe6694fee11810dc74ea46cbaac5daf59d7ac",
      "networkId": 0,
      "chainId": 0
    }
  ]
}