{
  "hash": "0xc692569c0930f7dce46181d78b19905aa405d2e9365937f432feee29a3b29fe3",
  "parentHash": "0x50578f0e5a463e9c5c24f0fd3e6e81a604cb108cb8e38845f19d752c7fe806bd",
  "number": 99772,
  "timestamp": 1439795360,
  "nonce": "0x327811f3de272532",
  "difficulty": 3826912699424,
  "gasLimit": {
    "_hex": "0x2fefd8"
  },
  "gasUsed": {
    "_hex": "0x5208"
  },
  "miner": "0xaA35779Ef4dfBEd0B3D6F46F5f11cb86261B17A5",
  "extraData": "0x476574682f76312e302e312f77696e646f77732f676f312e342e32",
  "transactions": [
    {
      "hash": "0x1ab8b32e6046960c0ef030451c9459b472ce540cd3df86a41e8a5dae0b7ab111",
      "blockHash": "0xc692569c0930f7dce46181d78b19905aa405d2e9365937f432feee29a3b29fe3",
      "blockNumber": 99772,
      "transactionIndex": 0,
      "confirmations": null,
      "from": "0x7246bC1603B6d03A536a04d0580414dB1FCcfFE8",
      "gasPrice": {
        "_hex": "0xcd130e2aa"
      },
      "gasLimit": {
        "_hex": "0x5208"
      },
      "to": "0xFBb1b73C4f0BDa4f67dcA266ce6Ef42f520fBB98",
      "value": {
        "_hex": "0xddc9b4b754276b0"
      },
      "nonce": 1,
      "data": "0x",
      "r": "0xb9c4ee096a4221b7b9583dca9ee436d7986d629fd5ffaeef69af1c6a06186825",
      "s": "0x39c41ff0c38150399e4d51cb32a1f5c75da9e681a51a168ecb09ce91f56ff5f6",
      "v": 27,
      "creates": null,
      "raw": "0xf86c01850cd130e2aa82520894fbb1b73c4f0bda4f67dca266ce6ef42f520fbb98880ddc9b4b754276b0801ba0b9c4ee096a4221b7b9583dca9ee436d7986d629fd5ffaeef69af1c6a06186825a039c41ff0c38150399e4d51cb32a1f5c75da9e681a51a168ecb09ce91f56ff5f6",
      "networkId": 0,
      "chainId": 0
    }
  ]
}