{
  "hash": "0xb73ed14825e1d84217640ab231ba511f9840e27aad651bf176fa24682bf1f3dd",
  "parentHash": "0x8e1617eab5fb41ad1076213fc4b8f41002052914faba0c8cec1030d5e87da7f4",
  "number": 77439,
  "timestamp": 1439437244,
  "nonce": "0x5f53eac0cde18154",
  "difficulty": 2237076482934,
  "gasLimit": {
    "_hex": "0x2fefd8"
  },
  "gasUsed": {
    "_hex": "0x5208"
  },
  "miner": "0x3FF679B0823a026F2378E5f5F22A6F127cC85828",
  "extraData": "0x",
  "transactions": [
    {
      "hash": "0x4b69edebfd740b79e4e73262e0c293dd09e0e321cc85d007de65d6e27aad3dd3",
      "blockHash": "0xb73ed14825e1d84217640ab231ba511f9840e27aad651bf176fa24682bf1f3dd",
      "blockNumber": 77439,
      "transactionIndex": 0,
      "confirmations": null,
      "from": "0x32Be343B94f860124dC4fEe278FDCBD38C102D88",
      "gasPrice": {
        "_hex": "0xd103aa5c8"
      },
      "gasLimit": {
        "_hex": "0x5208"
      },
      "to": "0x8C9f57da55BdaE907b0772f067d8fDd917Cbe937",
      "value": {
        "_hex": "0x16345785d8a0000"
      },
      "nonce": 363,
      "data": "0x",
      "r": "0xc6279bb7d6ff5378d63cd86c400b3ac6b11f76f7899d1220bae04782720bf434",
      "s": "0x0c56e2a482411c32c2f34c51ad1b01ec2be7d088a15c5f0e9fa8fec52c2e2e91",
      "v": 27,
      "creates": null,
      "raw": "0xf86e82016b850d103aa5c8825208948c9f57da55bdae907b0772f067d8fdd917cbe93788016345785d8a0000801ba0c6279bb7d6ff5378d63cd86c400b3ac6b11f76f7899d1220bae04782720bf434a00c56e2a482411c32c2f34c51ad1b01ec2be7d088a15c5f0e9fa8fec52c2e2e91",
      "networkId": 0,
      "chainId": 0
    }
  ]
}