{
  "hash": "0x4bec38a79b6c54e13f682e643cbf2490b131a4d4a8210731fc50e53c812a5650",
  "parentHash": "0x8e75f489b22b40df0eb97f138e63eaa0659e72ae79e9b7c7af4027522531bc0a",
  "number": 52418,
  "timestamp": 1439021258,
  "nonce": "0xe2e5da163e0dba31",
  "difficulty": 1567161248528,
  "gasLimit": {
    "_hex": "0x138f1d"
  },
  "gasUsed": {
    "_hex": "0x5208"
  },
  "miner": "0x9746c7e1ef2bd21FF3997fa467593a89cb852BD0",
  "extraData": "0x476574682f76312e302e312f77696e646f77732f676f312e342e32",
  "transactions": [
    {
      "hash": "0x7cc8966653038df81da43a80900ad2cfe9c03e86c258de09c25d01a325798d8c",
      "blockHash": "0x4bec38a79b6c54e13f682e643cbf2490b131a4d4a8210731fc50e53c812a5650",
      "blockNumber": 52418,
      "transactionIndex": 0,
      "confirmations": null,
      "from": "0xa80b38CE85260252BDb8BE027868c1A32a2201a6",
      "gasPrice": {
        "_hex": "0xd06d17bff"
      },
      "gasLimit": {
        "_hex": "0x5208"
      },
      "to": "0x32Be343B94f860124dC4fEe278FDCBD38C102D88",
      "value": {
        "_hex": "0xc7944a39490cc00"
      },
      "nonce": 0,
      "data": "0x",
      "r": "0x10638f53e9be0f35ad30afb086ac060e4c9ca0264c8ef555862d8b4948a314a8",
      "s": "0x00715cdbc2f1a7affaae6804f3fc8fa11ceb1d3c85c06e516d758daa6a8a510f",
      "v": 27,
      "creates": null,
      "raw": "0xf86b80850d06d17bff8252089432be343b94f860124dc4fee278fdcbd38c102d88880c7944a39490cc00801ba010638f53e9be0f35ad30afb086ac060e4c9ca0264c8ef555862d8b4948a314a89f715cdbc2f1a7affaae6804f3fc8fa11ceb1d3c85c06e516d758daa6a8a510f",
      "networkId": 0,
      "chainId": 0
    }
  ]
}