{
  "hash": "0xd2e0c74044011aa7cae2c527e6ed249f2e6b49ae35a6ccfb34c383b33d28bf6d",
  "parentHash": "0x112338c5afd3263301eeae556b41386cb429336d09970ec1ed208e40ad582155",
  "number": 75603,
  "timestamp": 1439406206,
  "nonce": "0x978e82b573f59a8d",
  "difficulty": 2222322459852,
  "gasLimit": {
    "_hex": "0x2fefd8"
  },
  "gasUsed": {
    "_hex": "0x2620e"
  },
  "miner": "0x6e9E0a2aAa3c4d41aa69f4E7328095278284f7e2",
  "extraData": "0x476574682f76312e302e312f6c696e75782f676f312e342e32",
  "transactions": [
    {
      "hash": "0x69775160837dc6eeb446e91a322ec86a4f46e0b0de52125597da8f220842098a",
      "blockHash": "0xd2e0c74044011aa7cae2c527e6ed249f2e6b49ae35a6ccfb34c383b33d28bf6d",
      "blockNumber": 75603,
      "transactionIndex": 0,
      "confirmations": null,
      "from": "0x87C5B5874A18B4306DF8a752a6C8cc3E82daFc19",
      "gasPrice": {
        "_hex": "0x116eb40b0b9"
      },
      "gasLimit": {
        "_hex": "0x493e0"
      },
      "to": "0xD79B4C6791784184e2755B2fC1659eaaB0f80456",
      "value": {
        "_hex": "0x0"
      },
      "nonce": 55,
      "data": "0x03750d94000000000000000000000000326be8f71bfb0379f989aab1cc1fe37f0a771f603166393737383936636635633732323300000000000000000000000000000000",
      "r": "0xa5883c3e65e0b0417ae98be0b89ee950877af9ed42d0cc6f7e9d5411c06b0439",
      "s": "0x48d9b4a748c59e14e2d7a6974d4827a5f3923421d08c926c91d3e60dc5439a0c",
      "v": 27,
      "creates": null,
      "raw": "0xf8ab37860116eb40b0b9830493e094d79b4c6791784184e2755b2fc1659eaab0f8045680b84403750d94000000000000000000000000326be8f71bfb0379f989aab1cc1fe37f0a771f6031663937373839366366356337323233000000000000000000000000000000001ba0a5883c3e65e0b0417ae98be0b89ee950877af9ed42d0cc6f7e9d5411c06b0439a048d9b4a748c59e14e2d7a6974d4827a5f3923421d08c926c91d3e60dc5439a0c",
      "networkId": 0,
      "chainId": 0
    },
    {
      "hash": "0x246be9cefefd76c3e75494799908cea2420f8bf5f9defb566e96759ac8f32fd7",
      "blockHash": "0xd2e0c74044011aa7cae2c527e6ed249f2e6b49ae35a6ccfb34c383b33d28bf6d",
      "blockNumber": 75603,
      "transactionIndex": 1,
      "confirmations": null,
      "from": "0xe1237d552429cc333FfD3038Fc3ba3441d0B7ddE",
      "gasPrice": {
        "_hex": "0xcd82198e8"
      },
      "gasLimit": {
        "_hex": "0x493e0"
      },
      "to": "0xD79B4C6791784184e2755B2fC1659eaaB0f80456",
      "value": {
        "_hex": "0xde0b6b3a7640000"
      },
      "nonce": 3,
      "data": "0x8d21618600000000000000000000000000000000000000000000000000000000000000992d6cb5f559b649a2b754f66c6717183659e8644fcab83b4ffc1db88e2ec0dace",
      "r": "0x4a47224c9fa3f842774acdc7ef416cb8e285b83fa17cce57fb597dcb40cb3b8b",
      "s": "0x7d46d33bf994ba9c8b3ce8467132f034afd0630110a3bca55feab510b0f182d3",
      "v": 28,
      "creates": null,
      "raw": "0xf8b203850cd82198e8830493e094d79b4c6791784184e2755b2fc1659eaab0f80456880de0b6b3a7640000b8448d21618600000000000000000000000000000000000000000000000000000000000000992d6cb5f559b649a2b754f66c6717183659e8644fcab83b4ffc1db88e2ec0dace1ca04a47224c9fa3f842774acdc7ef416cb8e285b83fa17cce57fb597dcb40cb3b8ba07d46d33bf994ba9c8b3ce8467132f034afd0630110a3bca55feab510b0f182d3",
      "networkId": 0,
      "chainId": 0
    }
  ]
}