{
  "hash": "0x086a4ae86e4c1242c9212b0bc870289293b7f0d49c2f549fcd5c0b514800b85d",
  "parentHash": "0xe3efa4dac0b60afe2c42c1e7bff1fcedb7a82ad53fb43d8f4e3dc02f3e6f4740",
  "number": 78047,
  "timestamp": 1439447307,
  "nonce": "0x7eebb55a35f24955",
  "difficulty": 2287726047567,
  "gasLimit": {
    "_hex": "0x2fefd8"
  },
  "gasUsed": {
    "_hex": "0x370f"
  },
  "miner": "0x88D74a59454F6cF3B51ef6b9136AFb6b9D405A88",
  "extraData": "0x476574682f76312e302e312d37666266393930632f6c696e75782f676f312e34",
  "transactions": [
    {
      "hash": "0x259b42d368f492c3352a4a8dd3b30ddeae5842bf6123d16407faec4f68164b77",
      "blockHash": "0x086a4ae86e4c1242c9212b0bc870289293b7f0d49c2f549fcd5c0b514800b85d",
      "blockNumber": 78047,
      "transactionIndex": 0,
      "confirmations": null,
      "from": "0xD1826373C4E0938f0b4302B40324f7f9c546492C",
      "gasPrice": {
        "_hex": "0xd417b451c"
      },
      "gasLimit": {
        "_hex": "0x30d40"
      },
      "to": "0x93eEA62C088759fd22ebc15a6f9645672D3a9265",
      "value": {
        "_hex": "0xe8d4a51000"
      },
      "nonce": 15,
      "data": "0x",
      "r": "0xf8bbe96f3f8f2b4e46bbf02e9ae147329b33dcde415560d200d119d357ba88d2",
      "s": "0x0d8095afd20a640708a201bde71c0ee7c5ad5acaba36cf971a57302b1641059a",
      "v": 28,
      "creates": null,
      "raw": "0xf86a0f850d417b451c83030d409493eea62c088759fd22ebc15a6f9645672d3a926585e8d4a51000801ca0f8bbe96f3f8f2b4e46bbf02e9ae147329b33dcde415560d200d119d357ba88d2a00d8095afd20a640708a201bde71c0ee7c5ad5acaba36cf971a57302b1641059a",
      "networkId": 0,
      "chainId": 0
    }
  ]
}