{
  "hash": "0x583142c2fe698cce8da9846e8689b6ef36bbff607cc5385a29b3332e714558df",
  "parentHash": "0xedf6bc5eebbaf5e82b6879e40584b05d31c380ac27c357445cf3f5c57b68e673",
  "number": 88786,
  "timestamp": 1439613430,
  "nonce": "0xf1a0a3d592359e5a",
  "difficulty": 3245769284487,
  "gasLimit": {
    "_hex": "0x2fefd8"
  },
  "gasUsed": {
    "_hex": "0x5208"
  },
  "miner": "0x7401a69c0eE823157d3e28dD29f870A08D47567D",
  "extraData": "0x476574682f76312e302e312f6c696e75782f676f312e342e32",
  "transactions": [
    {
      "hash": "0x32acd9b7c114c49bf603010d0aee15d62e02511d0ade2c735d10fe3aaf8b3abf",
      "blockHash": "0x583142c2fe698cce8da9846e8689b6ef36bbff607cc5385a29b3332e714558df",
      "blockNumber": 88786,
      "transactionIndex": 0,
      "confirmations": null,
      "from": "0xbEB64d852Bb6731CD479E80F7139ADEa5D6A5a28",
      "gasPrice": {
        "_hex": "0xdd7b883a8"
      },
      "gasLimit": {
        "_hex": "0x5208"
      },
      "to": "0x32Be343B94f860124dC4fEe278FDCBD38C102D88",
      "value": {
        "_hex": "0x2a7fe88dafeffc000"
      },
      "nonce": 4,
      "data": "0x",
      "r": "0xce2acf0c7d0d10b537881f6c6a22de53676c38b8413e83734e3fb9f155e9c52a",
      "s": "0x169f21b184550dc76a0bb879bca303791c6b019117622cce35e5f90bfe1b7339",
      "v": 28,
      "creates": null,
      "raw": "0xf86d04850dd7b883a88252089432be343b94f860124dc4fee278fdcbd38c102d888902a7fe88dafeffc000801ca0ce2acf0c7d0d10b537881f6c6a22de53676c38b8413e83734e3fb9f155e9c52aa0169f21b184550dc76a0bb879bca303791c6b019117622cce35e5f90bfe1b7339",
      "networkId": 0,
      "chainId": 0
    }
  ]
}