{
  "hash": "0x4f50b4bb2aedf17d92ea63f9489b186177a89ea2c8444829b896e7fc2774dff8",
  "parentHash": "0x0ddd1c2322c50d1d52233aeb2fcb48d7f60f225244de8600fd5199cff9fc8e8c",
  "number": 56486,
  "timestamp": 1439088009,
  "nonce": "0xe530e06ec0d40dbf",
  "difficulty": 1657684164661,
  "gasLimit": {
    "_hex": "0x2fefd8"
  },
  "gasUsed": {
    "_hex": "0xf618"
  },
  "miner": "0x00eBA8Ef4fF9B21Ec2FFF273953fDCC81f6fE7da",
  "extraData": "0x476574682f76312e302e312f6c696e75782f676f312e342e32",
  "transactions": [
    {
      "hash": "0x2bed8290815ecdc2a926dc5a78a64b0f277bc24a6f29878c2b834bd161ea2ef3",
      "blockHash": "0x4f50b4bb2aedf17d92ea63f9489b186177a89ea2c8444829b896e7fc2774dff8",
      "blockNumber": 56486,
      "transactionIndex": 0,
      "confirmations": null,
      "from": "0x1308A2e95c0160B90803ddCA9B9a5bb55E416d79",
      "gasPrice": {
        "_hex": "0xe8d4a51000"
      },
      "gasLimit": {
        "_hex": "0x15f90"
      },
      "to": "0x7266c8FD66eD582bEA23bd8BC48E58D7f17321F3",
      "value": {
        "_hex": "0x56bc75e2d63100000"
      },
      "nonce": 63,
      "data": "0x",
      "r": "0x2bd6cc7a0c6039fcf334ea5dc4d0e9b3f178321faf2254e4b49928f964469a26",
      "s": "0x2e8b78fdff60df62551f321ba7402f6b961ae34c1194a80411cd87ec197b0e66",
      "v": 27,
      "creates": null,
      "raw": "0xf86e3f85e8d4a5100083015f90947266c8fd66ed582bea23bd8bc48e58d7f17321f389056bc75e2d63100000801ba02bd6cc7a0c6039fcf334ea5dc4d0e9b3f178321faf2254e4b49928f964469a26a02e8b78fdff60df62551f321ba7402f6b961ae34c1194a80411cd87ec197b0e66",
      "networkId": 0,
      "chainId": 0
    },
    {
      "hash": "0x1d81f309b5ce4b1078abce823acc7cedaa12734e9398665e47ac988d35835814",
      "blockHash": "0x4f50b4bb2aedf17d92ea63f9489b186177a89ea2c8444829b896e7fc2774dff8",
      "blockNumber": 56486,
      "transactionIndex": 1,
      "confirmations": null,
      "from": "0x1308A2e95c0160B90803ddCA9B9a5bb55E416d79",
      "gasPrice": {
        "_hex": "0xe8d4a51000"
      },
      "gasLimit": {
        "_hex": "0x15f90"
      },
      "to": "0x7266c8FD66eD582bEA23bd8BC48E58D7f17321F3",
      "value": {
        "_hex": "0x56bc75e2d63100000"
      },
      "nonce": 64,
      "data": "0x",
      "r": "0xe4b24f22aed901d2b3a3ec48e0b9ca66bfcadb5d1090a5b4a444902ba56fa9a7",
      "s": "0x21d2b25d1968b1bade81e7327b17b9257689229448542b558a9c6ef07d107978",
      "v": 28,
      "creates": null,
      "raw": "0xf86e4085e8d4a5100083015f90947266c8fd66ed582bea23bd8bc48e58d7f17321f389056bc75e2d63100000801ca0e4b24f22aed901d2b3a3ec48e0b9ca66bfcadb5d1090a5b4a444902ba56fa9a7a021d2b25d1968b1bade81e7327b17b9257689229448542b558a9c6ef07d107978",
      "networkId": 0,
      "chainId": 0
    },
    {
      "hash": "0x71d9dfa54b501d8a91c5178d69e721208d975f8f22acbf7b8157d41818cb573f",
      "blockHash": "0x4f50b4bb2aedf17d92ea63f9489b186177a89ea2c8444829b896e7fc2774dff8",
      "blockNumber": 56486,
      "transactionIndex": 2,
      "confirmations": null,
      "from": "0x1308A2e95c0160B90803ddCA9B9a5bb55E416d79",
      "gasPrice": {
        "_hex": "0xe8d4a51000"
      },
      "gasLimit": {
        "_hex": "0x15f90"
      },
      "to": "0x7266c8FD66eD582bEA23bd8BC48E58D7f17321F3",
      "value": {
        "_hex": "0x56bc75e2d63100000"
      },
      "nonce": 65,
      "data": "0x",
      "r": "0xc5c8f9293578d90312636f77e1a48f45ef072fc6df3190a3cf7689e55ae54123",
      "s": "0x19ba10230a948cbe5997515d780a525f9f7ddf7243ef9ab79e37df121f248e0d",
      "v": 27,
      "creates": null,
      "raw": "0xf86e4185e8d4a5100083015f90947266c8fd66ed582bea23bd8bc48e58d7f17321f389056bc75e2d63100000801ba0c5c8f9293578d90312636f77e1a48f45ef072fc6df3190a3cf7689e55ae54123a019ba10230a948cbe5997515d780a525f9f7ddf7243ef9ab79e37df121f248e0d",
      "networkId": 0,
      "chainId": 0
    }
  ]
}