{
  "hash": "0x52127d7886e0955bf8c9ba09763affffd8fb93fe1a9bf92df8780869addaa67d",
  "parentHash": "0xc643b122cfadbc403a965db32d7378df5d3575b31cc849874705de063bee4cf6",
  "number": 50353,
  "timestamp": 1438987790,
  "nonce": "0x93d02a7661408a02",
  "difficulty": 1512656677412,
  "gasLimit": {
    "_hex": "0x5dbcd"
  },
  "gasUsed": {
    "_hex": "0xa674"
  },
  "miner": "0xf927a40C8B7F6E07c5af7FA2155B4864a4112B13",
  "extraData": "0x476574682f76312e302e312f6c696e75782f676f312e342e32",
  "transactions": [
    {
      "hash": "0xff25b289fe26405a099bd8031bd06669a73999a7f85f53a5f6f79ba301e7f5c9",
      "blockHash": "0x52127d7886e0955bf8c9ba09763affffd8fb93fe1a9bf92df8780869addaa67d",
      "blockNumber": 50353,
      "transactionIndex": 0,
      "confirmations": null,
      "from": "0x7c8Bb65a6fBB49bD413396a9D7e31053bBB37aA9",
      "gasPrice": {
        "_hex": "0x110c8f7d8de"
      },
      "gasLimit": {
        "_hex": "0xc350"
      },
      "to": "0x2910543Af39abA0Cd09dBb2D50200b3E800A63D2",
      "value": {
        "_hex": "0x6c6b935b8bbd400000"
      },
      "nonce": 1,
      "data": "0x454e484e5150543852",
      "r": "0xfa3533f6f92c02ac113c7337f2c97d0ff9c1f0b68260e86473e996395d9a6156",
      "s": "0x4ba6d7775fc23bbb3dc4f216916e30963f18877e2c3f97f8801f982f4331def4",
      "v": 28,
      "creates": null,
      "raw": "0xf87701860110c8f7d8de82c350942910543af39aba0cd09dbb2d50200b3e800a63d2896c6b935b8bbd40000089454e484e51505438521ca0fa3533f6f92c02ac113c7337f2c97d0ff9c1f0b68260e86473e996395d9a6156a04ba6d7775fc23bbb3dc4f216916e30963f18877e2c3f97f8801f982f4331def4",
      "networkId": 0,
      "chainId": 0
    },
    {
      "hash": "0xdaa0dceb1def64b15a8fe5dc9e343009d577f63e887aff3381bdb514c9ef60bc",
      "blockHash": "0x52127d7886e0955bf8c9ba09763affffd8fb93fe1a9bf92df8780869addaa67d",
      "blockNumber": 50353,
      "transactionIndex": 1,
      "confirmations": null,
      "from": "0x6ACDDca3cd2B4990E25CD65c24149D0912099e79",
      "gasPrice": {
        "_hex": "0xcc261f291"
      },
      "gasLimit": {
        "_hex": "0x5208"
      },
      "to": "0x5CB4A151541Fcd1f86244DDE8d78Ede47535BeC3",
      "value": {
        "_hex": "0xe5aed51cbaa0000"
      },
      "nonce": 1,
      "data": "0x",
      "r": "0x3fb20818ab0f66cd7d03e12936072ee436387bb34a7bb13fb68cbda5dc39eca1",
      "s": "0x5deb8df733f2f95cfc45ad4b688a29abd0b80ffe3ebd203765b1a39bb2a7e368",
      "v": 27,
      "creates": null,
      "raw": "0xf86c01850cc261f291825208945cb4a151541fcd1f86244dde8d78ede47535bec3880e5aed51cbaa0000801ba03fb20818ab0f66cd7d03e12936072ee436387bb34a7bb13fb68cbda5dc39eca1a05deb8df733f2f95cfc45ad4b688a29abd0b80ffe3ebd203765b1a39bb2a7e368",
      "networkId": 0,
      "chainId": 0
    }
  ]
}