{
  "hash": "0x70631e415f96147e8d90c112fce10bc376038da1dd22c955314683f3b1875efc",
  "parentHash": "0xbdb3d57f89a17f7160b70d5b558881b4d83afbce5e4c1be17955043edc13c72e",
  "number": 101117,
  "timestamp": 1439817693,
  "nonce": "0x034fb5446d5450e4",
  "difficulty": 3861962223630,
  "gasLimit": {
    "_hex": "0x2fefd8"
  },
  "gasUsed": {
    "_hex": "0x5208"
  },
  "miner": "0x7E6930B63D03e88F5928C5cd6ee3FCee4D714F7F",
  "extraData": "0x",
  "transactions": [
    {
      "hash": "0x416901f3f7f60b8d7efa3578e6908c6f1f60d95952a7eb997f8105116b7a74e5",
      "blockHash": "0x70631e415f96147e8d90c112fce10bc376038da1dd22c955314683f3b1875efc",
      "blockNumber": 101117,
      "transactionIndex": 0,
      "confirmations": null,
      "from": "0x007f7f58D3eb5b7510A301eCC749FC1fCDDBE14D",
      "gasPrice": {
        "_hex": "0xe0cfe7246"
      },
      "gasLimit": {
        "_hex": "0x15f90"
      },
      "to": "0xb1abce2918E21ddb93AA452731a12672A3d9F75a",
      "value": {
        "_hex": "0x4563918244f40000"
      },
      "nonce": 180,
      "data": "0x",
      "r": "0xa5afc2022fa07d383841f4343476997fb97979b20230e9cf8fb336fc41773f3c",
      "s": "0x7bbf68c9f602f96f268f7a8b5af42973f73a163f6773b6798a17ecac456efa80",
      "v": 28,
      "creates": null,
      "raw": "0xf86e81b4850e0cfe724683015f9094b1abce2918e21ddb93aa452731a12672a3d9f75a884563918244f40000801ca0a5afc2022fa07d383841f4343476997fb97979b20230e9cf8fb336fc41773f3ca07bbf68c9f602f96f268f7a8b5af42973f73a163f6773b6798a17ecac456efa80",
      "networkId": 0,
      "chainId": 0
    }
  ]
}