{
  "hash": "0xa9228f2ca819bb0b515a80add662b5e17a5ac32efb6edaec7b2858205d6f1cfa",
  "parentHash": "0x5c518864c2c4716802322d4053994762b2332fe315f31a07d8dd2304ffbb878e",
  "number": 68428,
  "timestamp": 1439287724,
  "nonce": "0x062a07c1d4be2465",
  "difficulty": 2012364632573,
  "gasLimit": {
    "_hex": "0x2fefd8"
  },
  "gasUsed": {
    "_hex": "0x5208"
  },
  "miner": "0x6dED38803DA575897de5d51b7AEF3b86f35945A1",
  "extraData": "0x476574682f76312e302e312f6c696e75782f676f312e342e32",
  "transactions": [
    {
      "hash": "0x76546cc3e7c08a541001dd3ceb9bea0928825b06aa981d00bdbff3c6e0c76e36",
      "blockHash": "0xa9228f2ca819bb0b515a80add662b5e17a5ac32efb6edaec7b2858205d6f1cfa",
      "blockNumber": 68428,
      "transactionIndex": 0,
      "confirmations": null,
      "from": "0x6747f922385c9a6F9cfDf095F34345257DD597bE",
      "gasPrice": {
        "_hex": "0xba43b7400"
      },
      "gasLimit": {
        "_hex": "0x5208"
      },
      "to": "0xca41A8cBB10457bfD58f05BD452a52f01A8Ce3d4",
      "value": {
        "_hex": "0x1fcbfa42bd6000"
      },
      "nonce": 84,
      "data": "0x",
      "r": "0x48b233fd315baab8b268288adbe47e65c2c13065cd4b34a38906c896fcd89081",
      "s": "0x2e85586ccaf09e3867cce2b3c5e0d53d95e0173d47778f988538dab4fc7a4593",
      "v": 28,
      "creates": null,
      "raw": "0xf86b54850ba43b740082520894ca41a8cbb10457bfd58f05bd452a52f01a8ce3d4871fcbfa42bd6000801ca048b233fd315baab8b268288adbe47e65c2c13065cd4b34a38906c896fcd89081a02e85586ccaf09e3867cce2b3c5e0d53d95e0173d47778f988538dab4fc7a4593",
      "networkId": 0,
      "chainId": 0
    }
  ]
}