{
  "hash": "0xd326ad7eb94fc8d23a87759618f049c638e406e8aa3946c0bfc58130f8805a13",
  "parentHash": "0x3cc907316c4003f44ae00c6e2550a1e4d8e94386402d373d2ef8ec3d73b26667",
  "number": 94757,
  "timestamp": 1439713798,
  "nonce": "0x36d8d488bc32b8d3",
  "difficulty": 3474630882959,
  "gasLimit": {
    "_hex": "0x2fefd8"
  },
  "gasUsed": {
    "_hex": "0xf618"
  },
  "miner": "0xe6A7a1d47ff21B6321162AEA7C6CB457D5476Bca",
  "extraData": "0x476574682f76312e302e312d38326566323666362f6c696e75782f676f312e34",
  "transactions": [
    {
      "hash": "0x51e05acc923466d327a203a2a7c0da29d3f6d9128d963b9b20b27031d1ba8fd2",
      "blockHash": "0xd326ad7eb94fc8d23a87759618f049c638e406e8aa3946c0bfc58130f8805a13",
      "blockNumber": 94757,
      "transactionIndex": 0,
      "confirmations": null,
      "from": "0x19d1f826fce0c97733e0202eFCCc4A5608e8Eb6d",
      "gasPrice": {
        "_hex": "0xdc8f2cb3a"
      },
      "gasLimit": {
        "_hex": "0x5208"
      },
      "to": "0x32Be343B94f860124dC4fEe278FDCBD38C102D88",
      "value": {
        "_hex": "0x19c835ae177d51000"
      },
      "nonce": 2,
      "data": "0x",
      "r": "0xf7ba4bbb2adf910459d4a379b96a7bbab8a6c7a75e6968f0af961a623e9eda33",
      "s": "0x27d2f93c0e9d99a54e245dbd7c9ffa6e4c03e3adecacc4e244bc9127b7bef50e",
      "v": 27,
      "creates": null,
      "raw": "0xf86d02850dc8f2cb3a8252089432be343b94f860124dc4fee278fdcbd38c102d8889019c835ae177d51000801ba0f7ba4bbb2adf910459d4a379b96a7bbab8a6c7a75e6968f0af961a623e9eda33a027d2f93c0e9d99a54e245dbd7c9ffa6e4c03e3adecacc4e244bc9127b7bef50e",
      "networkId": 0,
      "chainId": 0
    },
    {
      "hash": "0x0944a2810a62e1c3060b8c1f0bb824554f2d41a6baa8aebe293714919fe649bc",
      "blockHash": "0xd326ad7eb94fc8d23a87759618f049c638e406e8aa3946c0bfc58130f8805a13",
      "blockNumber": 94757,
      "transactionIndex": 1,
      "confirmations": null,
      "from": "0x13258A1Aa418C990ce59616C26338A44899d854c",
      "gasPrice": {
        "_hex": "0xdc8f2cb3a"
      },
      "gasLimit": {
        "_hex": "0x5208"
      },
      "to": "0x32Be343B94f860124dC4fEe278FDCBD38C102D88",
      "value": {
        "_hex": "0x43262d66fc5c5400"
      },
      "nonce": 2,
      "data": "0x",
      "r": "0x0d2cf155dd2742a961959611c37642f255d60bce7c667fa7c559eee811c73e6f",
      "s": "0x4d14e412871843edd4fc271229531905b02b047d0e8fe24d7d25f19de62c8b27",
      "v": 27,
      "creates": null,
      "raw": "0xf86c02850dc8f2cb3a8252089432be343b94f860124dc4fee278fdcbd38c102d888843262d66fc5c5400801ba00d2cf155dd2742a961959611c37642f255d60bce7c667fa7c559eee811c73e6fa04d14e412871843edd4fc271229531905b02b047d0e8fe24d7d25f19de62c8b27",
      "networkId": 0,
      "chainId": 0
    },
    {
      "hash": "0xe088e1539393c6d476e5fc68b5c129fca9690fff1c31a8f3878fe20f6c02bfcf",
      "blockHash": "0xd326ad7eb94fc8d23a87759618f049c638e406e8aa3946c0bfc58130f8805a13",
      "blockNumber": 94757,
      "transactionIndex": 2,
      "confirmations": null,
      "from": "0x7B578F673507975447C714DF2bdCd15801fe30Fe",
      "gasPrice": {
        "_hex": "0xdc8f2cb3a"
      },
      "gasLimit": {
        "_hex": "0x5208"
      },
      "to": "0x32Be343B94f860124dC4fEe278FDCBD38C102D88",
      "value": {
        "_hex": "0x2cf5f86e65be4800"
      },
      "nonce": 2,
      "data": "0x",
      "r": "0xaf5c5a4537f34b0ac1413362166058b76224bbbff8e8bb1f344e3fa01d9a0f82",
      "s": "0x378d93de2ff4b451a666bf874fa66a5eea7996820908ce917b23b91ed3e44716",
      "v": 28,
      "creates": null,
      "raw": "0xf86c02850dc8f2cb3a8252089432be343b94f860124dc4fee278fdcbd38c102d88882cf5f86e65be4800801ca0af5c5a4537f34b0ac1413362166058b76224bbbff8e8bb1f344e3fa01d9a0f82a0378d93de2ff4b451a666bf874fa66a5eea7996820908ce917b23b91ed3e44716",
      "networkId": 0,
      "chainId": 0
    }
  ]
}