{
  "hash": "0x3f0124ee75d004d30f9f9f0773f46ab887358d570dc3b63c73f6731f5b9879ae",
  "parentHash": "0x9702bfaedc9f500671d7b9f89e765d53d8cd7bb0970c3f5adb40ddaf6527e35d",
  "number": 53196,
  "timestamp": 1439033883,
  "nonce": "0x922cb06294fd962e",
  "difficulty": 1579306168226,
  "gasLimit": {
    "_hex": "0x21736a"
  },
  "gasUsed": {
    "_hex": "0x7a120"
  },
  "miner": "0x8B454d830feF179e66206840F8F3D1d83bC32b17",
  "extraData": "0x476574682f76312e302e312f77696e646f77732f676f312e342e32",
  "transactions": [
    {
      "hash": "0x163e2e25318e6bd0570b525d5c0cf39f439f29940867e8a71836ea6263d43a8a",
      "blockHash": "0x3f0124ee75d004d30f9f9f0773f46ab887358d570dc3b63c73f6731f5b9879ae",
      "blockNumber": 53196,
      "transactionIndex": 0,
      "confirmations": null,
      "from": "0x8674c218F0351a62C3BA78C34FD2182A93Da94E2",
      "gasPrice": {
        "_hex": "0xba43b7400"
      },
      "gasLimit": {
        "_hex": "0x7a120"
      },
      "to": "0xDc884e349103eAee4aeF913D532Cb5db2745f48b",
      "value": {
        "_hex": "0x0"
      },
      "nonce": 5,
      "data": "0xde6f24bb0000000000000000000000008674c218f0351a62c3ba78c34fd2182a93da94e20000000000000000000000000000000000000000000000000000000000000040000000000000000000000000000000000000000000000000000000000000000568656c6c6f000000000000000000000000000000000000000000000000000000",
      "r": "0x17da7b56c0d855c8782e4e9561a6221a8af23eb6e5ff745f6195c06f9c2cfeb7",
      "s": "0x78e47f2d8147bcd64ea619bf62e5dec95b667eefa6d15662013431ef5cf653f4",
      "v": 28,
      "creates": null,
      "raw": "0xf8ea05850ba43b74008307a12094dc884e349103eaee4aef913d532cb5db2745f48b80b884de6f24bb0000000000000000000000008674c218f0351a62c3ba78c34fd2182a93da94e20000000000000000000000000000000000000000000000000000000000000040000000000000000000000000000000000000000000000000000000000000000568656c6c6f0000000000000000000000000000000000000000000000000000001ca017da7b56c0d855c8782e4e9561a6221a8af23eb6e5ff745f6195c06f9c2cfeb7a078e47f2d8147bcd64ea619bf62e5dec95b667eefa6d15662013431ef5cf653f4",
      "networkId": 0,
      "chainId": 0
    }
  ]
}