{
  "hash": "0x25ca987f25feb4ed9e0c2a8a3138f00234f5d62fa579bccc2c4ab1d40e3edc03",
  "parentHash": "0x88df89f64ef4a0ffcbe70a09f4737bbd4063b61a10558a838a46ef2ccad1d159",
  "number": 51145,
  "timestamp": 1439000058,
  "nonce": "0x94f61cd4e0979886",
  "difficulty": 1559003008830,
  "gasLimit": {
    "_hex": "0x94788"
  },
  "gasUsed": {
    "_hex": "0x546c"
  },
  "miner": "0xf927a40C8B7F6E07c5af7FA2155B4864a4112B13",
  "extraData": "0x476574682f76312e302e312f6c696e75782f676f312e342e32",
  "transactions": [
    {
      "hash": "0xb3c684318c249d3621b6f7043a21eed06844fdb7050678fa1e4a2638abad6f13",
      "blockHash": "0x25ca987f25feb4ed9e0c2a8a3138f00234f5d62fa579bccc2c4ab1d40e3edc03",
      "blockNumber": 51145,
      "transactionIndex": 0,
      "confirmations": null,
      "from": "0xC272293AD54739bF7aAdd8924Aa3d712D672Eed1",
      "gasPrice": {
        "_hex": "0xd01e98cc8"
      },
      "gasLimit": {
        "_hex": "0x15f90"
      },
      "to": "0x2910543Af39abA0Cd09dBb2D50200b3E800A63D2",
      "value": {
        "_hex": "0x8ac7230489e80000"
      },
      "nonce": 1,
      "data": "0x454e44504338454a38",
      "r": "0xe26a39522e833b9f627306a1d56069e4903d4369bb65a85908824baef7651e79",
      "s": "0x00b1d5a6105b9de9afca8db3a41900e713fc80f322b161362f0e5a6f97b6ef95",
      "v": 28,
      "creates": null,
      "raw": "0xf87501850d01e98cc883015f90942910543af39aba0cd09dbb2d50200b3e800a63d2888ac7230489e8000089454e44504338454a381ca0e26a39522e833b9f627306a1d56069e4903d4369bb65a85908824baef7651e799fb1d5a6105b9de9afca8db3a41900e713fc80f322b161362f0e5a6f97b6ef95",
      "networkId": 0,
      "chainId": 0
    }
  ]
}