{
  "hash": "0x67d16d9e814bbb439d8ed0a7f08a4502941a133e06a597f41158c6a85ba0e3d6",
  "parentHash": "0x269062423b503c4f96f4e649327bb8fecbb4652f661c73200b0f83c1d188e5b1",
  "number": 96363,
  "timestamp": 1439739203,
  "nonce": "0x6a3bb40c20a2bf57",
  "difficulty": 3662079595974,
  "gasLimit": {
    "_hex": "0x2fefd8"
  },
  "gasUsed": {
    "_hex": "0xafa7"
  },
  "miner": "0xe6A7a1d47ff21B6321162AEA7C6CB457D5476Bca",
  "extraData": "0x476574682f76312e302e312d38326566323666362f6c696e75782f676f312e34",
  "transactions": [
    {
      "hash": "0xd48154a9aa373e92c54c66c7c0e34c508a1c7ae51aedebfca6fe4dbfe146bd2a",
      "blockHash": "0x67d16d9e814bbb439d8ed0a7f08a4502941a133e06a597f41158c6a85ba0e3d6",
      "blockNumber": 96363,
      "transactionIndex": 0,
      "confirmations": null,
      "from": "0x05336e9A722728d963E7a1cF2759FD0274530fcA",
      "gasPrice": {
        "_hex": "0xdb3ae10a1"
      },
      "gasLimit": {
        "_hex": "0x15f90"
      },
      "to": "0xCAc7000C7dBaa2E33Af15325AF5D435E011C7BdD",
      "value": {
        "_hex": "0x31a220b8961ab88000"
      },
      "nonce": 0,
      "data": "0xb214faa54732503248363448370000000000000000000000000000000000000000000000",
      "r": "0xf51dd605ddb441dba45a38ea6463a2acb519f8a0b6c805fec51da00d9f19936d",
      "s": "0x6358d66a46fb37b5bdfa18202ba2b0d745445c1ed1daa3e16ae22a899e85ac6c",
      "v": 28,
      "creates": null,
      "raw": "0xf89280850db3ae10a183015f9094cac7000c7dbaa2e33af15325af5d435e011c7bdd8931a220b8961ab88000a4b214faa547325032483634483700000000000000000000000000000000000000000000001ca0f51dd605ddb441dba45a38ea6463a2acb519f8a0b6c805fec51da00d9f19936da06358d66a46fb37b5bdfa18202ba2b0d745445c1ed1daa3e16ae22a899e85ac6c",
      "networkId": 0,
      "chainId": 0
    },
    {
      "hash": "0x45666eb352095cfe08cc36d25001ed0c723e08ac8ff62fff8a7bdfca2decea2c",
      "blockHash": "0x67d16d9e814bbb439d8ed0a7f08a4502941a133e06a597f41158c6a85ba0e3d6",
      "blockNumber": 96363,
      "transactionIndex": 1,
      "confirmations": null,
      "from": "0x32Be343B94f860124dC4fEe278FDCBD38C102D88",
      "gasPrice": {
        "_hex": "0xcb9607191"
      },
      "gasLimit": {
        "_hex": "0x5208"
      },
      "to": "0xe324bc8cB83B45cF7Ad7D440B92Ed2181161302D",
      "value": {
        "_hex": "0x4723f3f89da48400"
      },
      "nonce": 1002,
      "data": "0x",
      "r": "0xd877fc7c950b182ac4b89e4c8aace978f0187271a911cf583cc23c22762929af",
      "s": "0x4fca26dcb303de1394aa9c520216ee1d702c253b07f47f876e91339a695d1a15",
      "v": 28,
      "creates": null,
      "raw": "0xf86e8203ea850cb960719182520894e324bc8cb83b45cf7ad7d440b92ed2181161302d884723f3f89da48400801ca0d877fc7c950b182ac4b89e4c8aace978f0187271a911cf583cc23c22762929afa04fca26dcb303de1394aa9c520216ee1d702c253b07f47f876e91339a695d1a15",
      "networkId": 0,
      "chainId": 0
    }
  ]
}