{
  "hash": "0x51ef3eeb4ea38302e4521efe968b6c74e52c7dc1d889ffc9c0abde89325fd6b9",
  "parentHash": "0x663cd853d7f8528473f270b87222287479925d842ba8009dbc285fef05d17b5f",
  "number": 76188,
  "timestamp": 1439416218,
  "nonce": "0x840b3bf627503841",
  "difficulty": 2238502877178,
  "gasLimit": {
    "_hex": "0x2fefd8"
  },
  "gasUsed": {
    "_hex": "0x5d9f"
  },
  "miner": "0x55bAf64fc9eAccFFd7Cc643BB61142E1C6ac093e",
  "extraData": "0x",
  "transactions": [
    {
      "hash": "0x85cfeaf88313742bc2e6f143eb2d88b435262234a9a88f8e04e511d95f1ab9bf",
      "blockHash": "0x51ef3eeb4ea38302e4521efe968b6c74e52c7dc1d889ffc9c0abde89325fd6b9",
      "blockNumber": 76188,
      "transactionIndex": 0,
      "confirmations": null,
      "from": "0x770d98d31b4353FceEE8560c4CCf803e88C0c4e0",
      "gasPrice": {
        "_hex": "0xd90dbfdee"
      },
      "gasLimit": {
        "_hex": "0x15f90"
      },
      "to": "0xCAc7000C7dBaa2E33Af15325AF5D435E011C7BdD",
      "value": {
        "_hex": "0x38d7ea4c68000"
      },
      "nonce": 4,
      "data": "0xb214faa54131313131313131410000000000000000000000000000000000000000000000",
      "r": "0x5b15e7511ed1d06e156a71f15496536afa711bd893c9e15b109907a757f3e319",
      "s": "0x5e749789fa7a52c74d97ca000ee9d33c1bbe1578ce9d328bc7f6916d0789abb2",
      "v": 28,
      "creates": null,
      "raw": "0xf89004850d90dbfdee83015f9094cac7000c7dbaa2e33af15325af5d435e011c7bdd87038d7ea4c68000a4b214faa541313131313131314100000000000000000000000000000000000000000000001ca05b15e7511ed1d06e156a71f15496536afa711bd893c9e15b109907a757f3e319a05e749789fa7a52c74d97ca000ee9d33c1bbe1578ce9d328bc7f6916d0789abb2",
      "networkId": 0,
      "chainId": 0
    }
  ]
}