{
  "hash": "0x61f50811dd53aefb6bf85445bd1df860ccfa232a56770717bc1455b8465e545b",
  "parentHash": "0xd1e18d12860995d16e7dc95e612c6a6cccf7c94f46b41fce7bcc158d723d3275",
  "number": 57313,
  "timestamp": 1439101150,
  "nonce": "0xf624334586a6d148",
  "difficulty": 1736218865918,
  "gasLimit": {
    "_hex": "0x2fefd8"
  },
  "gasUsed": {
    "_hex": "0x5208"
  },
  "miner": "0x33b01a7fe4A1a5F774Bb73f89A4eF15a6Ffe1141",
  "extraData": "0x476574682f76312e302e312f6c696e75782f676f312e342e32",
  "transactions": [
    {
      "hash": "0xa138838e329b72f240272d5f0bdee0b2856079a4bb99a7e5c677287e3afc1e16",
      "blockHash": "0x61f50811dd53aefb6bf85445bd1df860ccfa232a56770717bc1455b8465e545b",
      "blockNumber": 57313,
      "transactionIndex": 0,
      "confirmations": null,
      "from": "0x2001BEF77b66F51e1599B02Fb110194A0099b78d",
      "gasPrice": {
        "_hex": "0xd093eb2e2"
      },
      "gasLimit": {
        "_hex": "0x15f90"
      },
      "to": "0x94F429fDA438c622D39c8f98d586679951F63581",
      "value": {
        "_hex": "0xd8d726b7177a80000"
      },
      "nonce": 5,
      "data": "0x",
      "r": "0x0c4f9f863cebc09dca7a1d972ee106ba3bec2eb98912df3a3eb63a54573bbbbb",
      "s": "0x22daaf7e75f3db973d0112c6ee765a894b50e260325976f0fb1baffb368c5de4",
      "v": 27,
      "creates": null,
      "raw": "0xf86e05850d093eb2e283015f909494f429fda438c622d39c8f98d586679951f63581890d8d726b7177a80000801ba00c4f9f863cebc09dca7a1d972ee106ba3bec2eb98912df3a3eb63a54573bbbbba022daaf7e75f3db973d0112c6ee765a894b50e260325976f0fb1baffb368c5de4",
      "networkId": 0,
      "chainId": 0
    }
  ]
}