{
  "hash": "0x071218ca3c6549337289e5e0e78227f59a82d62a972d6d73e6b8e55dcbaa65eb",
  "parentHash": "0xfb9fe1197073aee4491b647b2b8d08f25e68a18e5f166419e5ec98d66dc8a9ca",
  "number": 56159,
  "timestamp": 1439082875,
  "nonce": "0xda7ab53d95099882",
  "difficulty": 1640837235775,
  "gasLimit": {
    "_hex": "0x2fefd8"
  },
  "gasUsed": {
    "_hex": "0x5208"
  },
  "miner": "0xF2d2AfF1320476cb8C6b607199D23175cc595693",
  "extraData": "0x476574682f76312e302e312f77696e646f77732f676f312e342e32",
  "transactions": [
    {
      "hash": "0xc00240ca8ed958edff156064ca760a905904bc0d3eaa2c063eeb3728ffd24aa0",
      "blockHash": "0x071218ca3c6549337289e5e0e78227f59a82d62a972d6d73e6b8e55dcbaa65eb",
      "blockNumber": 56159,
      "transactionIndex": 0,
      "confirmations": null,
      "from": "0xA6C45aF12785c7c425684AD94576184afe192c05",
      "gasPrice": {
        "_hex": "0xba43b7400"
      },
      "gasLimit": {
        "_hex": "0x5b04"
      },
      "to": "0xEe2e3665531f220d70d01CCaBb559537a2663174",
      "value": {
        "_hex": "0x22b1c8c1227a00000"
      },
      "nonce": 5,
      "data": "0x",
      "r": "0x3a5920b7b6763d5e56597b6738d1e7290b72edbfbbe9ee76424b38af14b5d168",
      "s": "0x2df518671826acca002813c41b1db1bfed9da2a0c1a6a0c7e9470af7683e6790",
      "v": 27,
      "creates": null,
      "raw": "0xf86d05850ba43b7400825b0494ee2e3665531f220d70d01ccabb559537a266317489022b1c8c1227a00000801ba03a5920b7b6763d5e56597b6738d1e7290b72edbfbbe9ee76424b38af14b5d168a02df518671826acca002813c41b1db1bfed9da2a0c1a6a0c7e9470af7683e6790",
      "networkId": 0,
      "chainId": 0
    }
  ]
}