{
  "hash": "0x951536917c076e07fde08aa1bbe297ba5795dda5ea9afc3528e5130adad541e6",
  "parentHash": "0x395aefa0faa131c2e9a8306aaf81842264e26908680be2826a6468d432954e1a",
  "number": 112674,
  "timestamp": 1440011198,
  "nonce": "0x9d54694f8fd9395a",
  "difficulty": 4428147412048,
  "gasLimit": {
    "_hex": "0x2fefd8"
  },
  "gasUsed": {
    "_hex": "0x19a28"
  },
  "miner": "0xa50ec0D39fa913E62f1Bae7074E6F36caA71855b",
  "extraData": "0xd783010001844765746887676f312e342e32856c696e7578",
  "transactions": [
    {
      "hash": "0x0a79a8570dfc83eebf45b9df898e088429b25d2c873c8ff43e9ed082d3c5d595",
      "blockHash": "0x951536917c076e07fde08aa1bbe297ba5795dda5ea9afc3528e5130adad541e6",
      "blockNumber": 112674,
      "transactionIndex": 0,
      "confirmations": null,
      "from": "0xe6A7a1d47ff21B6321162AEA7C6CB457D5476Bca",
      "gasPrice": {
        "_hex": "0xcf0323275"
      },
      "gasLimit": {
        "_hex": "0x55f0"
      },
      "to": "0x64fd89BDC1a51083fa01B387A4F8d02899321850",
      "value": {
        "_hex": "0xdc5a7c4ef2f0df8"
      },
      "nonce": 4621,
      "data": "0x",
      "r": "0x8e03637c3465a19957427705dd30eefbad4379786e06c8df249e19002f97c8f1",
      "s": "0x1dd544918c1d5fb0d67f616d5481d0302d80d3b7bc4f78129a33bd94957f5a29",
      "v": 28,
      "creates": null,
      "raw": "0xf86e82120d850cf03232758255f09464fd89bdc1a51083fa01b387a4f8d02899321850880dc5a7c4ef2f0df8801ca08e03637c3465a19957427705dd30eefbad4379786e06c8df249e19002f97c8f1a01dd544918c1d5fb0d67f616d5481d0302d80d3b7bc4f78129a33bd94957f5a29",
      "networkId": 0,
      "chainId": 0
    },
    {
      "hash": "0x4fd4c25f845f3124734318a56d2659d996a20a7862c99231af95e12d750855fd",
      "blockHash": "0x951536917c076e07fde08aa1bbe297ba5795dda5ea9afc3528e5130adad541e6",
      "blockNumber": 112674,
      "transactionIndex": 1,
      "confirmations": null,
      "from": "0xe6A7a1d47ff21B6321162AEA7C6CB457D5476Bca",
      "gasPrice": {
        "_hex": "0xcf0323275"
      },
      "gasLimit": {
        "_hex": "0x55f0"
      },
      "to": "0xA4fbA5C740C8141d6c4469eD292bfCC8cCAc774F",
      "value": {
        "_hex": "0xdcbffec6d60b688"
      },
      "nonce": 4622,
      "data": "0x",
      "r": "0x104924133e5420ab9a8e5988317d50a8b862b22e9927bca7d0e9710b8ceb4143",
      "s": "0x58d7036f2ef84bf2ccc259313bb982528a3d6dfc8023ea4e16089c77b387c2b4",
      "v": 27,
      "creates": null,
      "raw": "0xf86e82120e850cf03232758255f094a4fba5c740c8141d6c4469ed292bfcc8ccac774f880dcbffec6d60b688801ba0104924133e5420ab9a8e5988317d50a8b862b22e9927bca7d0e9710b8ceb4143a058d7036f2ef84bf2ccc259313bb982528a3d6dfc8023ea4e16089c77b387c2b4",
      "networkId": 0,
      "chainId": 0
    },
    {
      "hash": "0x124b4414bf0aaab9c0f651f58a497249d497379958e2fcb1a73999cf8f0a1d6f",
      "blockHash": "0x951536917c076e07fde08aa1bbe297ba5795dda5ea9afc3528e5130adad541e6",
      "blockNumber": 112674,
      "transactionIndex": 2,
      "confirmations": null,
      "from": "0xe6A7a1d47ff21B6321162AEA7C6CB457D5476Bca",
      "gasPrice": {
        "_hex": "0xcf0323275"
      },
      "gasLimit": {
        "_hex": "0x55f0"
      },
      "to": "0x9aB9F7a4B85412bfbe2f4F63b1C98808851C4F32",
      "value": {
        "_hex": "0xdcca7710105b9d4"
      },
      "nonce": 4623,
      "data": "0x",
      "r": "0xc0ac8a1e0afe0b2f377acc52f61c9b5594f650d8b7973e3345459f8705ed8a4c",
      "s": "0x33ea8d9a99c0201e8e52e716f5f16626f80e38982e01b7a79632a3441a207f19",
      "v": 28,
      "creates": null,
      "raw": "0xf86e82120f850cf03232758255f0949ab9f7a4b85412bfbe2f4f63b1c98808851c4f32880dcca7710105b9d4801ca0c0ac8a1e0afe0b2f377acc52f61c9b5594f650d8b7973e3345459f8705ed8a4ca033ea8d9a99c0201e8e52e716f5f16626f80e38982e01b7a79632a3441a207f19",
      "networkId": 0,
      "chainId": 0
    },
    {
      "hash": "0x009aeff7b5988df28648474d8faaf6290d8f813a729d0eac513989e2b3b37f06",
      "blockHash": "0x951536917c076e07fde08aa1bbe297ba5795dda5ea9afc3528e5130adad541e6",
      "blockNumber": 112674,
      "transactionIndex": 3,
      "confirmations": null,
      "from": "0xe6A7a1d47ff21B6321162AEA7C6CB457D5476Bca",
      "gasPrice": {
        "_hex": "0xcf0323275"
      },
      "gasLimit": {
        "_hex": "0x55f0"
      },
      "to": "0xad74C8133300eB63De8d69A384B1E8CcFe28DED7",
      "value": {
        "_hex": "0xdd27ce0b82d3a84"
      },
      "nonce": 4624,
      "data": "0x",
      "r": "0x7b86ac09f202b47d7fd6c660dc82f2e5fe2ed6aaae31ec881dde1d1fa34a47a0",
      "s": "0x34fc336ba8678b8d63b5572a350905931827d4922def6a35f5e0bae858895612",
      "v": 28,
      "creates": null,
      "raw": "0xf86e821210850cf03232758255f094ad74c8133300eb63de8d69a384b1e8ccfe28ded7880dd27ce0b82d3a84801ca07b86ac09f202b47d7fd6c660dc82f2e5fe2ed6aaae31ec881dde1d1fa34a47a0a034fc336ba8678b8d63b5572a350905931827d4922def6a35f5e0bae858895612",
      "networkId": 0,
      "chainId": 0
    },
    {
      "hash": "0x76f70b385707e3ea00079e8280965f8e11f53e474ba1e83a6284b35c7f2b7a9b",
      "blockHash": "0x951536917c076e07fde08aa1bbe297ba5795dda5ea9afc3528e5130adad541e6",
      "blockNumber": 112674,
      "transactionIndex": 4,
      "confirmations": null,
      "from": "0xe6A7a1d47ff21B6321162AEA7C6CB457D5476Bca",
      "gasPrice": {
        "_hex": "0xcf0323275"
      },
      "gasLimit": {
        "_hex": "0x55f0"
      },
      "to": "0x4fE031a312590cD9cC645aF0AE2AdC977D45cec9",
      "value": {
        "_hex": "0xdd32a202eaf5790"
      },
      "nonce": 4625,
      "data": "0x",
      "r": "0x5475c61359e3cfd71fa4e429fe4a1a53dba53ee705fdc84868cb59eca755b779",
      "s": "0x5f760ba60284f6189e47fa03c125067c239810b4b1db4e169dd22977575bf643",
      "v": 28,
      "creates": null,
      "raw": "0xf86e821211850cf03232758255f0944fe031a312590cd9cc645af0ae2adc977d45cec9880dd32a202eaf5790801ca05475c61359e3cfd71fa4e429fe4a1a53dba53ee705fdc84868cb59eca755b779a05f760ba60284f6189e47fa03c125067c239810b4b1db4e169dd22977575bf643",
      "networkId": 0,
      "chainId": 0
    }
  ]
}