{
  "hash": "0x64148386d8e9fe777cc35eec48bc6f019b18707916d83c4522d72ff0654e1009",
  "parentHash": "0x1aecf61acce582081c1e660c81f935aff4c66125f0e770a9074292e90717a13d",
  "number": 82046,
  "timestamp": 1439512533,
  "nonce": "0x010d3bf3e996e81d",
  "difficulty": 2397544045115,
  "gasLimit": {
    "_hex": "0x2fefd8"
  },
  "gasUsed": {
    "_hex": "0x16bca"
  },
  "miner": "0x007f7f58D3eb5b7510A301eCC749FC1fCDDBE14D",
  "extraData": "0x476574682f76312e302e312f77696e646f77732f676f312e342e32",
  "transactions": [
    {
      "hash": "0x7bc07044b3249586186433e9b0e7835d073f0ed50f42d419958d83cc96f4f854",
      "blockHash": "0x64148386d8e9fe777cc35eec48bc6f019b18707916d83c4522d72ff0654e1009",
      "blockNumber": 82046,
      "transactionIndex": 0,
      "confirmations": null,
      "from": "0x7e7eC15A5944e978257dDae0008C2F2eCe0A6090",
      "gasPrice": {
        "_hex": "0xd13088cd9"
      },
      "gasLimit": {
        "_hex": "0x2dc6c0"
      },
      "to": "0x35E57F2b08596f1946ECD9D31975eC3c2D7e1C1D",
      "value": {
        "_hex": "0x16345785d8a0000"
      },
      "nonce": 2,
      "data": "0xe2543d1c0000000000000000000000000000000000000000000000000000000000000000",
      "r": "0xb52d710e5b51d66fc80b0cf85be41ad9b5a987bed3a0925a7b45b3b68e8c82cf",
      "s": "0x01bfb4af5f4ae8e741aefa196523feb1d743665bfe6662f81deed73b28135c3e",
      "v": 27,
      "creates": null,
      "raw": "0xf89102850d13088cd9832dc6c09435e57f2b08596f1946ecd9d31975ec3c2d7e1c1d88016345785d8a0000a4e2543d1c00000000000000000000000000000000000000000000000000000000000000001ba0b52d710e5b51d66fc80b0cf85be41ad9b5a987bed3a0925a7b45b3b68e8c82cfa001bfb4af5f4ae8e741aefa196523feb1d743665bfe6662f81deed73b28135c3e",
      "networkId": 0,
      "chainId": 0
    }
  ]
}