{
  "hash": "0xabe216fe6cbbc88e8f614f82476fd847b6ba5539c6934ccb0d3170a676f15e57",
  "parentHash": "0xfcffb7e4a23fdf554d29d7b38a19fa8f3766473e50604c4818c40f5d533166fa",
  "number": 106609,
  "timestamp": 1439907352,
  "nonce": "0x1eb2dafb84943cd7",
  "difficulty": 4481396780728,
  "gasLimit": {
    "_hex": "0x2fefd8"
  },
  "gasUsed": {
    "_hex": "0x5208"
  },
  "miner": "0xe6A7a1d47ff21B6321162AEA7C6CB457D5476Bca",
  "extraData": "0x476574682f76312e302e312d38326566323666362f6c696e75782f676f312e34",
  "transactions": [
    {
      "hash": "0x8f7da5f5664beaf29ce9bc472b652044a7b90012fed2252886e5d5604c59e0e0",
      "blockHash": "0xabe216fe6cbbc88e8f614f82476fd847b6ba5539c6934ccb0d3170a676f15e57",
      "blockNumber": 106609,
      "transactionIndex": 0,
      "confirmations": null,
      "from": "0x4D67f4F0Db45b3B5a3424B39ed8d972F710381D5",
      "gasPrice": {
        "_hex": "0xd3feb8804"
      },
      "gasLimit": {
        "_hex": "0x5208"
      },
      "to": "0x32Be343B94f860124dC4fEe278FDCBD38C102D88",
      "value": {
        "_hex": "0x2ebfefb077d2b4000"
      },
      "nonce": 28,
      "data": "0x",
      "r": "0xcd75c6ce660360c8255fc59c5c7019088fcd803efda0ff11a936410406cc94c0",
      "s": "0x0d2c4e23a51df4c42a327edcac5792c1f9da7505a28b3979494063c374f09cfb",
      "v": 27,
      "creates": null,
      "raw": "0xf86d1c850d3feb88048252089432be343b94f860124dc4fee278fdcbd38c102d888902ebfefb077d2b4000801ba0cd75c6ce660360c8255fc59c5c7019088fcd803efda0ff11a936410406cc94c0a00d2c4e23a51df4c42a327edcac5792c1f9da7505a28b3979494063c374f09cfb",
      "networkId": 0,
      "chainId": 0
    }
  ]
}