{
  "hash": "0x943ac238878932a00cc85013feedd884c8c971a0a3d160c7e7b4642fa8db6578",
  "parentHash": "0x9ac387fdeca37b7b7fa413ca5769c21022d399030c52ff813ef64b9ec2ba53b9",
  "number": 60916,
  "timestamp": 1439163702,
  "nonce": "0x865ae4feaa1551a1",
  "difficulty": 1736320906796,
  "gasLimit": {
    "_hex": "0x2fefd8"
  },
  "gasUsed": {
    "_hex": "0x31818"
  },
  "miner": "0x72d9276a182AbDB16CfF178709f2176b214c38e4",
  "extraData": "0x476574682f69534f63482f76312e302e312f6c696e75782f676f312e342e32",
  "transactions": [
    {
      "hash": "0xdf38b54e9d360e394654842a88f928f77db4f7d12585c85cf4bd6919b916cf5d",
      "blockHash": "0x943ac238878932a00cc85013feedd884c8c971a0a3d160c7e7b4642fa8db6578",
      "blockNumber": 60916,
      "transactionIndex": 0,
      "confirmations": null,
      "from": "0x25c6e74Ff1d928df98137AF4dF8430df24F07Cd7",
      "gasPrice": {
        "_hex": "0xcf960e50e"
      },
      "gasLimit": {
        "_hex": "0x61a80"
      },
      "to": "0x020522bF9B8eD6FF41E2fa6765a17E20E2767D64",
      "value": {
        "_hex": "0x56bc75e2d63100000"
      },
      "nonce": 3,
      "data": "0x",
      "r": "0x593a15c819188f8b9d1ccd239f1d97c53b8c4e5e9d3cbad15bbf3e7d01e10f22",
      "s": "0x53b887be9bc628cc15ea921c606cc66faab7b2e76f030c8effc43e58f2a33328",
      "v": 28,
      "creates": null,
      "raw": "0xf86e03850cf960e50e83061a8094020522bf9b8ed6ff41e2fa6765a17e20e2767d6489056bc75e2d63100000801ca0593a15c819188f8b9d1ccd239f1d97c53b8c4e5e9d3cbad15bbf3e7d01e10f22a053b887be9bc628cc15ea921c606cc66faab7b2e76f030c8effc43e58f2a33328",
      "networkId": 0,
      "chainId": 0
    }
  ]
}