{
  "hash": "0xb2781319dc60aae006ddb7182f84b2e6891844a994a802b3219f1d796920b25a",
  "parentHash": "0x8f7f404e1ab1929bce2f7b6332567181336d5f938634ac74ed0b8d553556a2b4",
  "number": 115344,
  "timestamp": 1440055611,
  "nonce": "0x09ca8a322a5cb293",
  "difficulty": 4549451919738,
  "gasLimit": {
    "_hex": "0x2fefd8"
  },
  "gasUsed": {
    "_hex": "0x546c"
  },
  "miner": "0x52bc44d5378309EE2abF1539BF71dE1b7d7bE3b5",
  "extraData": "0x476574682f76312e302e312d65626434373230372f6c696e75782f676f312e34",
  "transactions": [
    {
      "hash": "0x057ceef2f98f53e238a113ae5c1978724dc1a4d92cc7b5b9978289f9cbc3243d",
      "blockHash": "0xb2781319dc60aae006ddb7182f84b2e6891844a994a802b3219f1d796920b25a",
      "blockNumber": 115344,
      "transactionIndex": 0,
      "confirmations": null,
      "from": "0x837A2A346557050c8cF0fb24b84Aa695E8Add19f",
      "gasPrice": {
        "_hex": "0xcc3f099a4"
      },
      "gasLimit": {
        "_hex": "0x55f0"
      },
      "to": "0x2910543Af39abA0Cd09dBb2D50200b3E800A63D2",
      "value": {
        "_hex": "0x5e8adca7e45940000"
      },
      "nonce": 11,
      "data": "0x454e415157474e5a38",
      "r": "0xeb93e65c81a6ba3cb5c423b633e822ccb6c33d13d1ba139c4bc5ed888c2542c2",
      "s": "0x0967b866a0c1482ee90e414c3698afbe83a918da80f380a27de6bb3e83f354d8",
      "v": 28,
      "creates": null,
      "raw": "0xf8760b850cc3f099a48255f0942910543af39aba0cd09dbb2d50200b3e800a63d28905e8adca7e4594000089454e415157474e5a381ca0eb93e65c81a6ba3cb5c423b633e822ccb6c33d13d1ba139c4bc5ed888c2542c2a00967b866a0c1482ee90e414c3698afbe83a918da80f380a27de6bb3e83f354d8",
      "networkId": 0,
      "chainId": 0
    }
  ]
}