{
  "hash": "0xe9756ab3ca10e91c8995ff7d635df643ab60c48c3765efe40b96f5a6495e9fb2",
  "parentHash": "0xe0586ba66e8eaf6598f1ed738969da7f543ffa2325140c8facd529282bc3980c",
  "number": 46764,
  "timestamp": 1438928783,
  "nonce": "0x27601d7f1e6a8e2a",
  "difficulty": 1456041008175,
  "gasLimit": {
    "_hex": "0x7797"
  },
  "gasUsed": {
    "_hex": "0x5208"
  },
  "miner": "0xF2d2AfF1320476cb8C6b607199D23175cc595693",
  "extraData": "0x476574682f76312e302e312f77696e646f77732f676f312e342e32",
  "transactions": [
    {
      "hash": "0x6fd71911e4fd35400a6acbdac7995e58ae8154e0fdb3500fc3a6f3e843ea8823",
      "blockHash": "0xe9756ab3ca10e91c8995ff7d635df643ab60c48c3765efe40b96f5a6495e9fb2",
      "blockNumber": 46764,
      "transactionIndex": 0,
      "confirmations": null,
      "from": "0x17f8255F73211f9129a7E93250e8B7DF5D7F752d",
      "gasPrice": {
        "_hex": "0xdcc5fed66"
      },
      "gasLimit": {
        "_hex": "0x5208"
      },
      "to": "0x32Be343B94f860124dC4fEe278FDCBD38C102D88",
      "value": {
        "_hex": "0xd8d7224b32c1f00000"
      },
      "nonce": 2,
      "data": "0x",
      "r": "0x8e8a3779affdaa0048fea43ef828af3342088cfd84e6812f05bbf487afefa1a6",
      "s": "0x2946855d5fc9c8c7b5de8080a42dde902bcf8dfc2d6de0343ef40fe1c129a3e2",
      "v": 28,
      "creates": null,
      "raw": "0xf86d02850dcc5fed668252089432be343b94f860124dc4fee278fdcbd38c102d8889d8d7224b32c1f00000801ca08e8a3779affdaa0048fea43ef828af3342088cfd84e6812f05bbf487afefa1a6a02946855d5fc9c8c7b5de8080a42dde902bcf8dfc2d6de0343ef40fe1c129a3e2",
      "networkId": 0,
      "chainId": 0
    }
  ]
}