{
  "hash": "0x1cbd2e2dafca52db3ebaa6c12eb4f5da7f9e4300c70837754b57f3cbf43feb8d",
  "parentHash": "0x0843f9dd723329ed1dd95209a07fa791539ccf5c4e84dfeba5da3203c38db8b2",
  "number": 110459,
  "timestamp": 1439974146,
  "nonce": "0xdfd6ab749e53ce72",
  "difficulty": 4379851782250,
  "gasLimit": {
    "_hex": "0x2fefd8"
  },
  "gasUsed": {
    "_hex": "0x5208"
  },
  "miner": "0xaB638742EBe3A78F2a85028350e1AADB86C0a6ed",
  "extraData": "0x",
  "transactions": [
    {
      "hash": "0x465883175dcebcf84b3cc3e3fe26a3bab334c8b30cbd7b1994add0c9d11050e9",
      "blockHash": "0x1cbd2e2dafca52db3ebaa6c12eb4f5da7f9e4300c70837754b57f3cbf43feb8d",
      "blockNumber": 110459,
      "transactionIndex": 0,
      "confirmations": null,
      "from": "0x4A29dF8a7967b36664f256F18dAcf2e58E9f1E7E",
      "gasPrice": {
        "_hex": "0xdde19ffb6"
      },
      "gasLimit": {
        "_hex": "0x5208"
      },
      "to": "0x32Be343B94f860124dC4fEe278FDCBD38C102D88",
      "value": {
        "_hex": "0x239ce16376791a000"
      },
      "nonce": 5,
      "data": "0x",
      "r": "0x8a58e5fc885a885770c6ebfd024ac83600e4daf6fbd7395dd948166014877a2c",
      "s": "0x3d7d4365045b0f4f6f57a48987d8dd7a34ac165ea502fd8062f7573a508b37e5",
      "v": 27,
      "creates": null,
      "raw": "0xf86d05850dde19ffb68252089432be343b94f860124dc4fee278fdcbd38c102d88890239ce16376791a000801ba08a58e5fc885a885770c6ebfd024ac83600e4daf6fbd7395dd948166014877a2ca03d7d4365045b0f4f6f57a48987d8dd7a34ac165ea502fd8062f7573a508b37e5",
      "networkId": 0,
      "chainId": 0
    }
  ]
}