{
  "hash": "0x73cc0941cb38fb7a3d1a97b4e2aa01e4cb7bae525855e059b5e0d5400ca491e0",
  "parentHash": "0x801efd24778e9f61a1fdff703a136308f439aac3729ff218c8e98bf8fe4d62f2",
  "number": 75868,
  "timestamp": 1439410817,
  "nonce": "0xc25455b9379a391b",
  "difficulty": 2229860841670,
  "gasLimit": {
    "_hex": "0x2fefd8"
  },
  "gasUsed": {
    "_hex": "0x5208"
  },
  "miner": "0x6DE55b563cE6E319cCB403032Da3BE5Ad4ec4FcF",
  "extraData": "0x",
  "transactions": [
    {
      "hash": "0xfa9a4fbf76d22f64879d1868d01096ac40c05da849b7a18e353ca67dcc580469",
      "blockHash": "0x73cc0941cb38fb7a3d1a97b4e2aa01e4cb7bae525855e059b5e0d5400ca491e0",
      "blockNumber": 75868,
      "transactionIndex": 0,
      "confirmations": null,
      "from": "0x2910543Af39abA0Cd09dBb2D50200b3E800A63D2",
      "gasPrice": {
        "_hex": "0xcdbf687bc"
      },
      "gasLimit": {
        "_hex": "0x5208"
      },
      "to": "0xB5295c4c6890366946FA087a01E97C2e70B3D31e",
      "value": {
        "_hex": "0x6c6b819812855f8000"
      },
      "nonce": 315,
      "data": "0x",
      "r": "0x851e802619e6c79ddf0d38c341d0fd99a734c71789a7d9cb51f630671b6c216b",
      "s": "0x5edfa3c2c18b764bd1c76f0b2bede32c3d81e9f0793f424123de31e9b0ebab1e",
      "v": 27,
      "creates": null,
      "raw": "0xf86f82013b850cdbf687bc82520894b5295c4c6890366946fa087a01e97c2e70b3d31e896c6b819812855f8000801ba0851e802619e6c79ddf0d38c341d0fd99a734c71789a7d9cb51f630671b6c216ba05edfa3c2c18b764bd1c76f0b2bede32c3d81e9f0793f424123de31e9b0ebab1e",
      "networkId": 0,
      "chainId": 0
    }
  ]
}