{
  "hash": "0x8105fa32d8c3a361eab30375ad3c22a8f20865df6529d613ff8d7e4682b07b08",
  "parentHash": "0xd577cece1678f51bf956311390ac6a28c5a56d58a268e80753f645479aca3fa0",
  "number": 89850,
  "timestamp": 1439630127,
  "nonce": "0x2d9e6ebb81ec9e12",
  "difficulty": 3341842923500,
  "gasLimit": {
    "_hex": "0x2fefd8"
  },
  "gasUsed": {
    "_hex": "0xa410"
  },
  "miner": "0x87898CE53471043FcCa0a2aF4E1dC6d8B3fCf607",
  "extraData": "0x476574682f5369626572696131392f76312e302e312d37666266393930632f6c",
  "transactions": [
    {
      "hash": "0xfc8ed1e6fd08775739f0a977ab63ca3083e9096e907bec2f4d08ef6823729301",
      "blockHash": "0x8105fa32d8c3a361eab30375ad3c22a8f20865df6529d613ff8d7e4682b07b08",
      "blockNumber": 89850,
      "transactionIndex": 0,
      "confirmations": null,
      "from": "0xCCe96724c29e042F35bCe1c2405feB0e8E30082b",
      "gasPrice": {
        "_hex": "0xce576e166"
      },
      "gasLimit": {
        "_hex": "0x5208"
      },
      "to": "0x32Be343B94f860124dC4fEe278FDCBD38C102D88",
      "value": {
        "_hex": "0x111bcfe52e7766000"
      },
      "nonce": 3,
      "data": "0x",
      "r": "0xad4981718380db936cba226a300ba8a3f1573c502648951b64bb99dabef5b1c9",
      "s": "0x3e8bc9d6c2e0aa45cad8b91211524aaaeff6a926a4ed352642b04eba91e5349d",
      "v": 27,
      "creates": null,
      "raw": "0xf86d03850ce576e1668252089432be343b94f860124dc4fee278fdcbd38c102d88890111bcfe52e7766000801ba0ad4981718380db936cba226a300ba8a3f1573c502648951b64bb99dabef5b1c9a03e8bc9d6c2e0aa45cad8b91211524aaaeff6a926a4ed352642b04eba91e5349d",
      "networkId": 0,
      "chainId": 0
    },
    {
      "hash": "0x8d7e668d9f9697aa5239f1d2731e56a4b44a9280e71314f6af3d56955aa17297",
      "blockHash": "0x8105fa32d8c3a361eab30375ad3c22a8f20865df6529d613ff8d7e4682b07b08",
      "blockNumber": 89850,
      "transactionIndex": 1,
      "confirmations": null,
      "from": "0x164d6C84C4D54AA3E22A5b2B72cFb968eDe862C5",
      "gasPrice": {
        "_hex": "0xce576e166"
      },
      "gasLimit": {
        "_hex": "0x5208"
      },
      "to": "0x32Be343B94f860124dC4fEe278FDCBD38C102D88",
      "value": {
        "_hex": "0x1a865175ea57cc000"
      },
      "nonce": 1,
      "data": "0x",
      "r": "0x004e171713e8a987f3879c275f96c15ab179d16b54505f352937897b45556677",
      "s": "0x42896c8bca29d708527b8cc5b8bb5af5e8c64ecf95b256bca9a45fb7f00bc6e2",
      "v": 27,
      "creates": null,
      "raw": "0xf86c01850ce576e1668252089432be343b94f860124dc4fee278fdcbd38c102d888901a865175ea57cc000801b9f4e171713e8a987f3879c275f96c15ab179d16b54505f352937897b45556677a042896c8bca29d708527b8cc5b8bb5af5e8c64ecf95b256bca9a45fb7f00bc6e2",
      "networkId": 0,
      "chainId": 0
    }
  ]
}