{
  "hash": "0x876a65f7597cc76698a079e30a3e0ee5b104e4c8a30002ddaa95493220379e61",
  "parentHash": "0x9a6f46c2424ac8dc5b6c4c6e682c6c542d4ea97f38916defae39a759c4362f20",
  "number": 80654,
  "timestamp": 1439488668,
  "nonce": "0xcfc398359725e83b",
  "difficulty": 2433326562347,
  "gasLimit": {
    "_hex": "0x2fefd8"
  },
  "gasUsed": {
    "_hex": "0x6ed7"
  },
  "miner": "0xdB312D1d6A2Ccc64DD94a3892928baC82B4E8C15",
  "extraData": "0x476574682f76312e302e312d65383935333663612f6c696e75782f676f312e34",
  "transactions": [
    {
      "hash": "0x1bb0e9ae628a849791f90bc1ca472647d50fdd3f9b3791b4b9b01ff7205e4ec8",
      "blockHash": "0x876a65f7597cc76698a079e30a3e0ee5b104e4c8a30002ddaa95493220379e61",
      "blockNumber": 80654,
      "transactionIndex": 0,
      "confirmations": null,
      "from": "0x87C5B5874A18B4306DF8a752a6C8cc3E82daFc19",
      "gasPrice": {
        "_hex": "0x108a03ebe17"
      },
      "gasLimit": {
        "_hex": "0x493e0"
      },
      "to": "0xC4c51de1AbF5D60DBd329eC0F999Fd8f021ae9fC",
      "value": {
        "_hex": "0x0"
      },
      "nonce": 274,
      "data": "0xbd66528a6b6b6b0000000000000000000000000000000000000000000000000000000000",
      "r": "0x6610d6e15d87696cd6b97de6840de7029407e282056531a1de4fe8c941246a0a",
      "s": "0x2c8e58471f3235f4c563126af6f1316779f868b77a24b7b3d9fbc9b95aeadde9",
      "v": 28,
      "creates": null,
      "raw": "0xf88c820112860108a03ebe17830493e094c4c51de1abf5d60dbd329ec0f999fd8f021ae9fc80a4bd66528a6b6b6b00000000000000000000000000000000000000000000000000000000001ca06610d6e15d87696cd6b97de6840de7029407e282056531a1de4fe8c941246a0aa02c8e58471f3235f4c563126af6f1316779f868b77a24b7b3d9fbc9b95aeadde9",
      "networkId": 0,
      "chainId": 0
    }
  ]
}