{
  "hash": "0x2f57a2841e84174070039ba056165f81f077886e3a60cdeacadf036004be91d0",
  "parentHash": "0x76f4ce139dd19c1328395e3b29f9054836c53e94b9e186d684ceb5234474ae54",
  "number": 91618,
  "timestamp": 1439658621,
  "nonce": "0x041c6314eb0878b5",
  "difficulty": 3498065520975,
  "gasLimit": {
    "_hex": "0x2fefd8"
  },
  "gasUsed": {
    "_hex": "0x5208"
  },
  "miner": "0xf927a40C8B7F6E07c5af7FA2155B4864a4112B13",
  "extraData": "0x",
  "transactions": [
    {
      "hash": "0xbf510b45ac6185fd7cdb805dc543fc8aaa46e370f31a8abd9c1761df9297800c",
      "blockHash": "0x2f57a2841e84174070039ba056165f81f077886e3a60cdeacadf036004be91d0",
      "blockNumber": 91618,
      "transactionIndex": 0,
      "confirmations": null,
      "from": "0x8132d5ae06e2b76cbF52673A79AA2766b0Ad8437",
      "gasPrice": {
        "_hex": "0xba43b7400"
      },
      "gasLimit": {
        "_hex": "0x5208"
      },
      "to": "0xC47Aaa860008be6f65B58c6C6E02a84e666EfE31",
      "value": {
        "_hex": "0x3d0c35b7e6b46000"
      },
      "nonce": 0,
      "data": "0x",
      "r": "0x9db049a8e9acbd5540b427c79365adf984f46ea7fff2ab7f7e47ea9cb2567e72",
      "s": "0x20294850198c84413ddab0bde32f24ff587708227dc3e45e7454064bb54e9080",
      "v": 27,
      "creates": null,
      "raw": "0xf86c80850ba43b740082520894c47aaa860008be6f65b58c6c6e02a84e666efe31883d0c35b7e6b46000801ba09db049a8e9acbd5540b427c79365adf984f46ea7fff2ab7f7e47ea9cb2567e72a020294850198c84413ddab0bde32f24ff587708227dc3e45e7454064bb54e9080",
      "networkId": 0,
      "chainId": 0
    }
  ]
}