{
  "hash": "0xf6808555075b8c7ebdfb2b1d3a9d10f0c5968af6c5ed887a426080c9824ab938",
  "parentHash": "0x97348ce880488551de4857306350d7447331bfdc3991a5c4b09be2cb49f8ca4e",
  "number": 93291,
  "timestamp": 1439687176,
  "nonce": "0x8000a5b17d504d19",
  "difficulty": 3543781101990,
  "gasLimit": {
    "_hex": "0x2fefd8"
  },
  "gasUsed": {
    "_hex": "0x5208"
  },
  "miner": "0xf927a40C8B7F6E07c5af7FA2155B4864a4112B13",
  "extraData": "0x",
  "transactions": [
    {
      "hash": "0x232bfe939800d88f704b1bc42ab6daadccb0b2ac67920b7d730a83c49e0edeb4",
      "blockHash": "0xf6808555075b8c7ebdfb2b1d3a9d10f0c5968af6c5ed887a426080c9824ab938",
      "blockNumber": 93291,
      "transactionIndex": 0,
      "confirmations": null,
      "from": "0x4b0424c09BaC4Ee3f4376f1D3fA354E8Cb2D3171",
      "gasPrice": {
        "_hex": "0xdc8428316"
      },
      "gasLimit": {
        "_hex": "0x15f90"
      },
      "to": "0x34d34F0a638F6991e4E2536F41295DF6E934A646",
      "value": {
        "_hex": "0x4563918244f40000"
      },
      "nonce": 14,
      "data": "0x",
      "r": "0xe96755523a2c2388525b9f25ad797df7167a8a8e793f83340c1b74f7c60a7bd2",
      "s": "0x673828f4eea05cd1430d83976e4fb0966684caedcad022735267c949adc7acb3",
      "v": 27,
      "creates": null,
      "raw": "0xf86d0e850dc842831683015f909434d34f0a638f6991e4e2536f41295df6e934a646884563918244f40000801ba0e96755523a2c2388525b9f25ad797df7167a8a8e793f83340c1b74f7c60a7bd2a0673828f4eea05cd1430d83976e4fb0966684caedcad022735267c949adc7acb3",
      "networkId": 0,
      "chainId": 0
    }
  ]
}