{
  "hash": "0x78381ffa18036c151a01257fa878db0987d7ddabdcecf0dff18d5afe61bed61b",
  "parentHash": "0xcaa16dfa0548a8848192cb748fbd325214b3dde8e979745e9fdc341b6c9233a3",
  "number": 114974,
  "timestamp": 1440049611,
  "nonce": "0xccbe89880b89d466",
  "difficulty": 4496647526507,
  "gasLimit": {
    "_hex": "0x2fefd8"
  },
  "gasUsed": {
    "_hex": "0x18326"
  },
  "miner": "0xe6A7a1d47ff21B6321162AEA7C6CB457D5476Bca",
  "extraData": "0x476574682f76312e302e312d38326566323666362f6c696e75782f676f312e34",
  "transactions": [
    {
      "hash": "0xc524bf8be4e77318c2c3bd05ec921b204f832bb3c6682dcfb0a105f3fb3319fb",
      "blockHash": "0x78381ffa18036c151a01257fa878db0987d7ddabdcecf0dff18d5afe61bed61b",
      "blockNumber": 114974,
      "transactionIndex": 0,
      "confirmations": null,
      "from": "0x9d93fAb6E22845f8f45A07496F11dE71530dEbC7",
      "gasPrice": {
        "_hex": "0x100960eb49e"
      },
      "gasLimit": {
        "_hex": "0x249f0"
      },
      "to": "0xE28e72FCf78647ADCe1F1252F240bbfaebD63BcC",
      "value": {
        "_hex": "0x6c19b258ce2e720000"
      },
      "nonce": 3,
      "data": "0x45466f3a",
      "r": "0x87277042da8e85b2b58c73201fc623c7d44f78a5451968281cdcd9010c652b77",
      "s": "0x0c7bebcf4575e5fc5994c3ef47126b7ae54aa029d84989bc7e1434c32acdf5a4",
      "v": 28,
      "creates": null,
      "raw": "0xf87303860100960eb49e830249f094e28e72fcf78647adce1f1252f240bbfaebd63bcc896c19b258ce2e7200008445466f3a1ca087277042da8e85b2b58c73201fc623c7d44f78a5451968281cdcd9010c652b77a00c7bebcf4575e5fc5994c3ef47126b7ae54aa029d84989bc7e1434c32acdf5a4",
      "networkId": 0,
      "chainId": 0
    }
  ]
}