{
  "hash": "0xc14e6c0bc11b7c9e87efe1753be0579ed763fe45d41ae5cc0627bd4b2c69b231",
  "parentHash": "0x95b0002fecf92122277b7ade623e0d00ee472cf9e6e52666b695ad6c34d87476",
  "number": 70443,
  "timestamp": 1439319805,
  "nonce": "0x2d5a6a9a9a4108b3",
  "difficulty": 2146871506910,
  "gasLimit": {
    "_hex": "0x2fefd8"
  },
  "gasUsed": {
    "_hex": "0xa410"
  },
  "miner": "0x88D74a59454F6cF3B51ef6b9136AFb6b9D405A88",
  "extraData": "0x476574682f76312e302e312d38326566323666362f6c696e75782f676f312e34",
  "transactions": [
    {
      "hash": "0x87e3764b11f0418912c539e3e8510733e62b8ca0cd55a6ded61d88fc62e6e11e",
      "blockHash": "0xc14e6c0bc11b7c9e87efe1753be0579ed763fe45d41ae5cc0627bd4b2c69b231",
      "blockNumber": 70443,
      "transactionIndex": 0,
      "confirmations": null,
      "from": "0x9b22a80D5c7B3374a05b446081f97d0A34079e7F",
      "gasPrice": {
        "_hex": "0xdf6de509f"
      },
      "gasLimit": {
        "_hex": "0x15f90"
      },
      "to": "0xE5F2F0A5603F889856C85B3A255501d1D291467D",
      "value": {
        "_hex": "0x878678326eac900000"
      },
      "nonce": 1,
      "data": "0x",
      "r": "0x996f19623b5c84c68c2aeab577e399b436e862f4e1011b28cdc5627136f1eece",
      "s": "0x12b9d40b2163a5050a79599c5e396eafb5e7b9d9bd14f466437679af3e90adf8",
      "v": 28,
      "creates": null,
      "raw": "0xf86e01850df6de509f83015f9094e5f2f0a5603f889856c85b3a255501d1d291467d89878678326eac900000801ca0996f19623b5c84c68c2aeab577e399b436e862f4e1011b28cdc5627136f1eecea012b9d40b2163a5050a79599c5e396eafb5e7b9d9bd14f466437679af3e90adf8",
      "networkId": 0,
      "chainId": 0
    },
    {
      "hash": "0x7ade484e9596f4079106e84542242a0e391072f1c9c092338f67a657bca8db8b",
      "blockHash": "0xc14e6c0bc11b7c9e87efe1753be0579ed763fe45d41ae5cc0627bd4b2c69b231",
      "blockNumber": 70443,
      "transactionIndex": 1,
      "confirmations": null,
      "from": "0x2910543Af39abA0Cd09dBb2D50200b3E800A63D2",
      "gasPrice": {
        "_hex": "0xdd1f3f0ee"
      },
      "gasLimit": {
        "_hex": "0x5208"
      },
      "to": "0xF23e4DBf58683a7179356343fea5168902146F66",
      "value": {
        "_hex": "0x15ae0141220e38000"
      },
      "nonce": 241,
      "data": "0x",
      "r": "0x8888490cce364c67e9040d5e407e73fb5a2cb298c911bf30f4c842fb150f6473",
      "s": "0x5cf87b41206307c0e1e94f0d7d3b565bfcde24bc9a495d6f3591d3862a917ed1",
      "v": 27,
      "creates": null,
      "raw": "0xf86e81f1850dd1f3f0ee82520894f23e4dbf58683a7179356343fea5168902146f6689015ae0141220e38000801ba08888490cce364c67e9040d5e407e73fb5a2cb298c911bf30f4c842fb150f6473a05cf87b41206307c0e1e94f0d7d3b565bfcde24bc9a495d6f3591d3862a917ed1",
      "networkId": 0,
      "chainId": 0
    }
  ]
}