{
  "hash": "0xac50c19def65a2ae192f19ae3380a592a826461ed470fbd8191b52a0138d72d8",
  "parentHash": "0x4861afb07af4a0835121b62d4f03737ea6f746584209c351da6f5a0be9e10cd9",
  "number": 109994,
  "timestamp": 1439966124,
  "nonce": "0xee4f1ddedf28c445",
  "difficulty": 4407986341293,
  "gasLimit": {
    "_hex": "0x2fefd8"
  },
  "gasUsed": {
    "_hex": "0x5208"
  },
  "miner": "0x2dC0950003aEa14Af0c9E3439E59cf8e79Fa569d",
  "extraData": "0x",
  "transactions": [
    {
      "hash": "0xfad9f79d76cd98e61cc95991db576245041083317f4693bbf52a0ccf148a663e",
      "blockHash": "0xac50c19def65a2ae192f19ae3380a592a826461ed470fbd8191b52a0138d72d8",
      "blockNumber": 109994,
      "transactionIndex": 0,
      "confirmations": null,
      "from": "0x5532A650304265014A873E4399A3487d0296B8CF",
      "gasPrice": {
        "_hex": "0xd7e605f38"
      },
      "gasLimit": {
        "_hex": "0x15f90"
      },
      "to": "0xcD690730A45cdebeF24F2a3db2de181bFBA5CBea",
      "value": {
        "_hex": "0x116f18b81715a0000"
      },
      "nonce": 4,
      "data": "0x",
      "r": "0x5da48a7f4e90b4d265235863c9dea2063c0d67035e5fd06b161663748c128264",
      "s": "0x1b797f4227ff0cc3444ddcfac1880ab7f8d4ffb54b3d6fae38da8aedecfe77c4",
      "v": 27,
      "creates": null,
      "raw": "0xf86e04850d7e605f3883015f9094cd690730a45cdebef24f2a3db2de181bfba5cbea890116f18b81715a0000801ba05da48a7f4e90b4d265235863c9dea2063c0d67035e5fd06b161663748c128264a01b797f4227ff0cc3444ddcfac1880ab7f8d4ffb54b3d6fae38da8aedecfe77c4",
      "networkId": 0,
      "chainId": 0
    }
  ]
}