{
  "hash": "0x8b2350c0d16e105387e5bb46b4b30cdef287dfe3143ecde69503491800d56900",
  "parentHash": "0xed6070680cb1337bc226f923791417c19cbdc8c38dccb4c7e2fe7da82d36fef1",
  "number": 74221,
  "timestamp": 1439382554,
  "nonce": "0x9f9cd11e8eac1c71",
  "difficulty": 2214023169183,
  "gasLimit": {
    "_hex": "0x2fefd8"
  },
  "gasUsed": {
    "_hex": "0x546c"
  },
  "miner": "0x31995C46B15C84523cDEE26f49A681b8237e43F5",
  "extraData": "0x476574682f76312e302e312f77696e646f77732f676f312e342e32",
  "transactions": [
    {
      "hash": "0x6b20bdce121a658d5bba33529e976f42c17675e45c83996d9345a9e126ad505a",
      "blockHash": "0x8b2350c0d16e105387e5bb46b4b30cdef287dfe3143ecde69503491800d56900",
      "blockNumber": 74221,
      "transactionIndex": 0,
      "confirmations": null,
      "from": "0x52F058D46147e9006D29bF2C09304Ad1cdDd6E15",
      "gasPrice": {
        "_hex": "0x110c8f7d8de"
      },
      "gasLimit": {
        "_hex": "0xc350"
      },
      "to": "0x2910543Af39abA0Cd09dBb2D50200b3E800A63D2",
      "value": {
        "_hex": "0x83d6c7aab6360000"
      },
      "nonce": 1,
      "data": "0x454e44514d4d5a4547",
      "r": "0x7aeec9ac0381fb7a461e6ac8a583d3bc6cd15712215a8d5e64eabfc819e12846",
      "s": "0x542a5320dd722226cff8dbc51ad5691714ea8b1e5a9b646a475c0f33eae4a865",
      "v": 27,
      "creates": null,
      "raw": "0xf87601860110c8f7d8de82c350942910543af39aba0cd09dbb2d50200b3e800a63d28883d6c7aab636000089454e44514d4d5a45471ba07aeec9ac0381fb7a461e6ac8a583d3bc6cd15712215a8d5e64eabfc819e12846a0542a5320dd722226cff8dbc51ad5691714ea8b1e5a9b646a475c0f33eae4a865",
      "networkId": 0,
      "chainId": 0
    }
  ]
}