{
  "hash": "0xbcdbef407e529e2ba1013269b2a79e031ad45d8b82312389d3a70cb6fb5e333c",
  "parentHash": "0xd217b436e02ff50a988e084fc72e3bffa2b01588dcd6ca13cb7f7866c45849e5",
  "number": 49043,
  "timestamp": 1438966883,
  "nonce": "0xb4acc3e0e92d5cd6",
  "difficulty": 1486531466958,
  "gasLimit": {
    "_hex": "0x2460c"
  },
  "gasUsed": {
    "_hex": "0xf618"
  },
  "miner": "0x57a5156876AA9d5bA611Db7871966a2a8c1D8f4e",
  "extraData": "0x476574682f76312e302e312d38326566323666362f6c696e75782f676f312e34",
  "transactions": [
    {
      "hash": "0xfcbabd0b608b0f905481a4b3f64143bb19a22ff72ac682ba9ca62842a4d28a6b",
      "blockHash": "0xbcdbef407e529e2ba1013269b2a79e031ad45d8b82312389d3a70cb6fb5e333c",
      "blockNumber": 49043,
      "transactionIndex": 0,
      "confirmations": null,
      "from": "0x5Fcb6761B7463127E5e79e151Fb542472a454C3E",
      "gasPrice": {
        "_hex": "0xd6718735d"
      },
      "gasLimit": {
        "_hex": "0x5208"
      },
      "to": "0x32Be343B94f860124dC4fEe278FDCBD38C102D88",
      "value": {
        "_hex": "0x56bc312bc1039c000"
      },
      "nonce": 1,
      "data": "0x",
      "r": "0xcf0571c3878cbbc312843e2bb800cb727df7d44a37c7ad37ddfe068ef7d5d9e1",
      "s": "0x217ba7d4f3d7a43197d023e22048c26c5bb756ea6270ffe8d41f304f37a68daa",
      "v": 28,
      "creates": null,
      "raw": "0xf86d01850d6718735d8252089432be343b94f860124dc4fee278fdcbd38c102d8889056bc312bc1039c000801ca0cf0571c3878cbbc312843e2bb800cb727df7d44a37c7ad37ddfe068ef7d5d9e1a0217ba7d4f3d7a43197d023e22048c26c5bb756ea6270ffe8d41f304f37a68daa",
      "networkId": 0,
      "chainId": 0
    },
    {
      "hash": "0xe0d58383c6e8c1f252ea1a8818dfab614b3fcfa2ccc37c3718a42dd83fb13e77",
      "blockHash": "0xbcdbef407e529e2ba1013269b2a79e031ad45d8b82312389d3a70cb6fb5e333c",
      "blockNumber": 49043,
      "transactionIndex": 1,
      "confirmations": null,
      "from": "0x1Bb2E0301Ccc81367BC1C2c97B9d60548ECe3B69",
      "gasPrice": {
        "_hex": "0xd6718735d"
      },
      "gasLimit": {
        "_hex": "0x5208"
      },
      "to": "0x32Be343B94f860124dC4fEe278FDCBD38C102D88",
      "value": {
        "_hex": "0xddc6b42548dcc00"
      },
      "nonce": 0,
      "data": "0x",
      "r": "0x418e488583299e742b94b877bb82716ad71e2de3fcefeb32a122aa3abbf9732c",
      "s": "0x67b151b387292760588bd79c75247da159649241d35381ac42175ae9d04db817",
      "v": 28,
      "creates": null,
      "raw": "0xf86c80850d6718735d8252089432be343b94f860124dc4fee278fdcbd38c102d88880ddc6b42548dcc00801ca0418e488583299e742b94b877bb82716ad71e2de3fcefeb32a122aa3abbf9732ca067b151b387292760588bd79c75247da159649241d35381ac42175ae9d04db817",
      "networkId": 0,
      "chainId": 0
    },
    {
      "hash": "0xabc3ad4b8e32335e3c8e547a4b07ffb66d01dc02f688baad5ba89063a31a2ead",
      "blockHash": "0xbcdbef407e529e2ba1013269b2a79e031ad45d8b82312389d3a70cb6fb5e333c",
      "blockNumber": 49043,
      "transactionIndex": 2,
      "confirmations": null,
      "from": "0xaed5c6263d084cFFc0a3fAD197702CecE3e9c3E3",
      "gasPrice": {
        "_hex": "0xd6718735d"
      },
      "gasLimit": {
        "_hex": "0x5208"
      },
      "to": "0x32Be343B94f860124dC4fEe278FDCBD38C102D88",
      "value": {
        "_hex": "0x299dd8a9a355cc00"
      },
      "nonce": 0,
      "data": "0x",
      "r": "0x9d47d7a3405b909f7613e6da7559b57c492ce48460c5cd6f9e78a2f7d876a2dd",
      "s": "0x2d189efd5fcd1a650ca571ff67a21eadc0c3924216cfd01fd181780c6c812a4f",
      "v": 28,
      "creates": null,
      "raw": "0xf86c80850d6718735d8252089432be343b94f860124dc4fee278fdcbd38c102d8888299dd8a9a355cc00801ca09d47d7a3405b909f7613e6da7559b57c492ce48460c5cd6f9e78a2f7d876a2dda02d189efd5fcd1a650ca571ff67a21eadc0c3924216cfd01fd181780c6c812a4f",
      "networkId": 0,
      "chainId": 0
    }
  ]
}