{
  "hash": "0x09a35855f52080ef2af980af902fa12947d5e92a956145a3faac9b1793e7a3b6",
  "parentHash": "0x6398a1c09d70d63eb64be8824576d199842628915a91ce860f1d82a6f039a4c5",
  "number": 114889,
  "timestamp": 1440048170,
  "nonce": "0xe1282c80bbd8520a",
  "difficulty": 4459521511695,
  "gasLimit": {
    "_hex": "0x2fefd8"
  },
  "gasUsed": {
    "_hex": "0x5208"
  },
  "miner": "0xe6A7a1d47ff21B6321162AEA7C6CB457D5476Bca",
  "extraData": "0x476574682f76312e302e312d38326566323666362f6c696e75782f676f312e34",
  "transactions": [
    {
      "hash": "0xde55703abf8853d574bf5cdafa05f79833bd77b136110b05d4b9f06676acfa61",
      "blockHash": "0x09a35855f52080ef2af980af902fa12947d5e92a956145a3faac9b1793e7a3b6",
      "blockNumber": 114889,
      "transactionIndex": 0,
      "confirmations": null,
      "from": "0x32Be343B94f860124dC4fEe278FDCBD38C102D88",
      "gasPrice": {
        "_hex": "0xd1a5cd089"
      },
      "gasLimit": {
        "_hex": "0x5208"
      },
      "to": "0xAAc7c655830b2fF580BDFEa1a416E5efAfAb3291",
      "value": {
        "_hex": "0x10d7e61b6903cc000"
      },
      "nonce": 1402,
      "data": "0x",
      "r": "0x2b8b650899bd29b9dbccb03c0bcd452354027e44fabf78d96d634ba48c553f30",
      "s": "0x321923f4783088b66fc16c581706ac28373a2bc84819ff546187d9f69f2b9e24",
      "v": 28,
      "creates": null,
      "raw": "0xf86f82057a850d1a5cd08982520894aac7c655830b2ff580bdfea1a416e5efafab329189010d7e61b6903cc000801ca02b8b650899bd29b9dbccb03c0bcd452354027e44fabf78d96d634ba48c553f30a0321923f4783088b66fc16c581706ac28373a2bc84819ff546187d9f69f2b9e24",
      "networkId": 0,
      "chainId": 0
    }
  ]
}