{
  "hash": "0xf7c63eb68871b86fe4b72dc7550a690c0cbb3965cb93e661014caeda7179b2ba",
  "parentHash": "0x8f5d87d94a807bed0e051aaaf821688b056372e109bf75539c56a58f229d3d3a",
  "number": 56375,
  "timestamp": 1439086348,
  "nonce": "0x8295741e70222c69",
  "difficulty": 1645609051406,
  "gasLimit": {
    "_hex": "0x2fefd8"
  },
  "gasUsed": {
    "_hex": "0xddfd"
  },
  "miner": "0x55bAf64fc9eAccFFd7Cc643BB61142E1C6ac093e",
  "extraData": "0x",
  "transactions": [
    {
      "hash": "0x29d738fa75a146d50862ddc180fac732ea8555c1d4d652e7e16853011bb9c9c6",
      "blockHash": "0xf7c63eb68871b86fe4b72dc7550a690c0cbb3965cb93e661014caeda7179b2ba",
      "blockNumber": 56375,
      "transactionIndex": 0,
      "confirmations": null,
      "from": "0xb996Aa4730618799F3FcC30a682d21E1BF70Ef90",
      "gasPrice": {
        "_hex": "0xdb2816147"
      },
      "gasLimit": {
        "_hex": "0x7a120"
      },
      "to": "0x109C4f2CCc82C4d77Bde15F306707320294Aea3F",
      "value": {
        "_hex": "0xde0b6b3a7640000"
      },
      "nonce": 0,
      "data": "0x",
      "r": "0x9ac313879cac6f7596db7d1022ed919b778becf052a404abe382f0b167a549b8",
      "s": "0x0925fe24964dbc95d6607ff7716ee12ff59b99c083cc604d551bb46ebc1df700",
      "v": 27,
      "creates": null,
      "raw": "0xf86d80850db28161478307a12094109c4f2ccc82c4d77bde15f306707320294aea3f880de0b6b3a7640000801ba09ac313879cac6f7596db7d1022ed919b778becf052a404abe382f0b167a549b8a00925fe24964dbc95d6607ff7716ee12ff59b99c083cc604d551bb46ebc1df700",
      "networkId": 0,
      "chainId": 0
    }
  ]
}