{
  "hash": "0x1276131b7eed02104ae6cad67fa76a2ec54bff30ec8633270528709d413997e4",
  "parentHash": "0xbf9d04904d428275efed149603792263c01d1e26d083507d89b7e6e32dcf816f",
  "number": 81408,
  "timestamp": 1439501119,
  "nonce": "0x493e89a2bf6acc52",
  "difficulty": 2456985074512,
  "gasLimit": {
    "_hex": "0x2fefd5"
  },
  "gasUsed": {
    "_hex": "0x5208"
  },
  "miner": "0x9746c7e1ef2bd21FF3997fa467593a89cb852BD0",
  "extraData": "0x476574682f76312e302e312f77696e646f77732f676f312e342e32",
  "transactions": [
    {
      "hash": "0x0ce9949e535c322cc9ee9cddb901e89d6af93b7ff9f730da82d6a2d2ee74acbf",
      "blockHash": "0x1276131b7eed02104ae6cad67fa76a2ec54bff30ec8633270528709d413997e4",
      "blockNumber": 81408,
      "transactionIndex": 0,
      "confirmations": null,
      "from": "0x8BdB732318A05BCf3B490c142c90beC03836Fe57",
      "gasPrice": {
        "_hex": "0xba43b7400"
      },
      "gasLimit": {
        "_hex": "0x5208"
      },
      "to": "0xC47Aaa860008be6f65B58c6C6E02a84e666EfE31",
      "value": {
        "_hex": "0xdb974c90a901dc0"
      },
      "nonce": 0,
      "data": "0x",
      "r": "0x7d4a37faa2cee21645d9938f0d7de9287587201d0cf8a17db9344754781965a1",
      "s": "0x3d986d47c2249f34215027c5372d8fc9c5f73581e6f9b6fca82c55284909c081",
      "v": 28,
      "creates": null,
      "raw": "0xf86c80850ba43b740082520894c47aaa860008be6f65b58c6c6e02a84e666efe31880db974c90a901dc0801ca07d4a37faa2cee21645d9938f0d7de9287587201d0cf8a17db9344754781965a1a03d986d47c2249f34215027c5372d8fc9c5f73581e6f9b6fca82c55284909c081",
      "networkId": 0,
      "chainId": 0
    }
  ]
}