{
  "hash": "0x9e8a0a205ffb0d1933f09b06d29a0235d657141b3511e23f19c49c1e2f5f536a",
  "parentHash": "0xaf06901b08a5a3b8149ffbc977f76c95a13bc2b33ed1b2797a8aee899e3a168a",
  "number": 76354,
  "timestamp": 1439418998,
  "nonce": "0x9ad6e93552a44b3e",
  "difficulty": 2223208798956,
  "gasLimit": {
    "_hex": "0x2fefd8"
  },
  "gasUsed": {
    "_hex": "0x5208"
  },
  "miner": "0xbb7B8287f3F0a933474a79eAe42CBCa977791171",
  "extraData": "0x476574682f4c5649562f76312e302e312f6c696e75782f676f312e342e32",
  "transactions": [
    {
      "hash": "0x0f80408305064ccc884f1c1b2f342031ffc3035bda486dac2ab741542db398c8",
      "blockHash": "0x9e8a0a205ffb0d1933f09b06d29a0235d657141b3511e23f19c49c1e2f5f536a",
      "blockNumber": 76354,
      "transactionIndex": 0,
      "confirmations": null,
      "from": "0xf661E21B71A9CA331E251e51a412857D2B61d8F8",
      "gasPrice": {
        "_hex": "0xd669dbd16"
      },
      "gasLimit": {
        "_hex": "0x15f90"
      },
      "to": "0x740Fc79C926C4Bd3BD78DEFBE690814FF803C40c",
      "value": {
        "_hex": "0x61b31ab352c0000"
      },
      "nonce": 7,
      "data": "0x",
      "r": "0xb3af2b9324c51f7af1f092c488218399010c1db87b328d80463a3c8945c1ac73",
      "s": "0x43259610ded7e697219bf4d25fe61e817e4f67da8a0622767ffa87ccc281f076",
      "v": 27,
      "creates": null,
      "raw": "0xf86d07850d669dbd1683015f9094740fc79c926c4bd3bd78defbe690814ff803c40c88061b31ab352c0000801ba0b3af2b9324c51f7af1f092c488218399010c1db87b328d80463a3c8945c1ac73a043259610ded7e697219bf4d25fe61e817e4f67da8a0622767ffa87ccc281f076",
      "networkId": 0,
      "chainId": 0
    }
  ]
}