{
  "hash": "0xc2404230bb98d42eb534151d84bdfc97a6a5df48509d5d54860ddd232df43484",
  "parentHash": "0x366bb37da5b0c837b5a8e38085f17faecd0681fc72b9d0d5b34f56fcbe82b345",
  "number": 46731,
  "timestamp": 1438928266,
  "nonce": "0xe1e3fc8310437e35",
  "difficulty": 1452496270063,
  "gasLimit": {
    "_hex": "0x74f5"
  },
  "gasUsed": {
    "_hex": "0x5208"
  },
  "miner": "0xf927a40C8B7F6E07c5af7FA2155B4864a4112B13",
  "extraData": "0x476574682f76312e302e312f6c696e75782f676f312e342e32",
  "transactions": [
    {
      "hash": "0xb7c8df07b78561d9c5ed1b8444b6660cf0614b11f0980cc6fde7a030edd653e3",
      "blockHash": "0xc2404230bb98d42eb534151d84bdfc97a6a5df48509d5d54860ddd232df43484",
      "blockNumber": 46731,
      "transactionIndex": 0,
      "confirmations": null,
      "from": "0xa89AC93b23370472DaAc337E9afdF642543F3E57",
      "gasPrice": {
        "_hex": "0x12df463de9"
      },
      "gasLimit": {
        "_hex": "0x5208"
      },
      "to": "0x92c27672FE65e002159Ec2597fcf8897ADBf5B29",
      "value": {
        "_hex": "0xbef55718ad60000"
      },
      "nonce": 15,
      "data": "0x",
      "r": "0x835ee08c846cf579e730a64e7951c4e53b5ef7ae258b96ab056d93298a03c5c7",
      "s": "0x338f6f701e42fe6ad3d46583996ba5dacbbb5a03e7615ca816585c9300ddefe7",
      "v": 28,
      "creates": null,
      "raw": "0xf86c0f8512df463de98252089492c27672fe65e002159ec2597fcf8897adbf5b29880bef55718ad60000801ca0835ee08c846cf579e730a64e7951c4e53b5ef7ae258b96ab056d93298a03c5c7a0338f6f701e42fe6ad3d46583996ba5dacbbb5a03e7615ca816585c9300ddefe7",
      "networkId": 0,
      "chainId": 0
    }
  ]
}