{
  "hash": "0x64e0c9aea25d1d950d7b40e8fd19310c6911f20e6ac4d4c8eaaa47f78431c212",
  "parentHash": "0x6649a5d4b05506c7a5b227dc5155f6d804d062e52d359cfde7e75cbeffccfbe6",
  "number": 113560,
  "timestamp": 1440025633,
  "nonce": "0xce261b335aa4bb24",
  "difficulty": 4453699331152,
  "gasLimit": {
    "_hex": "0x2fefd8"
  },
  "gasUsed": {
    "_hex": "0x5208"
  },
  "miner": "0x5F8F73E26CdF436f19Cb24C82F90A15AFe55b592",
  "extraData": "0x476574682f76312e302e312f77696e646f77732f676f312e342e32",
  "transactions": [
    {
      "hash": "0x2935971bcf9f4cd5b2c1d6877ef353dd10dcec30443876ae9115c0f52af5ac45",
      "blockHash": "0x64e0c9aea25d1d950d7b40e8fd19310c6911f20e6ac4d4c8eaaa47f78431c212",
      "blockNumber": 113560,
      "transactionIndex": 0,
      "confirmations": null,
      "from": "0x2910543Af39abA0Cd09dBb2D50200b3E800A63D2",
      "gasPrice": {
        "_hex": "0xd7ab6631b"
      },
      "gasLimit": {
        "_hex": "0x5208"
      },
      "to": "0xEb459A5CdDB6cd03432B2e1842C27593b634ba71",
      "value": {
        "_hex": "0x1f0570ad4d4770e000"
      },
      "nonce": 1114,
      "data": "0x",
      "r": "0x8b1aeda36f9d1cc15d6edea502277f91aaa51aeb577181497a17bd79e8c73144",
      "s": "0x025c6f6ee1db06666ac87e8be2a824e56e373834070b7de5fb820eb20b9a87ac",
      "v": 28,
      "creates": null,
      "raw": "0xf86f82045a850d7ab6631b82520894eb459a5cddb6cd03432b2e1842c27593b634ba71891f0570ad4d4770e000801ca08b1aeda36f9d1cc15d6edea502277f91aaa51aeb577181497a17bd79e8c73144a0025c6f6ee1db06666ac87e8be2a824e56e373834070b7de5fb820eb20b9a87ac",
      "networkId": 0,
      "chainId": 0
    }
  ]
}