{
  "hash": "0x51dc6bb420e707cb6e0c3590b9fe3e988733addae859debaae27e963ff6980b8",
  "parentHash": "0xf7d6472c417dc3feb99c62fec60868f2d21b6223a6e4bb25e0dbc072cb408f5b",
  "number": 86166,
  "timestamp": 1439574509,
  "nonce": "0xca8574cf48b406c3",
  "difficulty": 2801636662974,
  "gasLimit": {
    "_hex": "0x2fefd8"
  },
  "gasUsed": {
    "_hex": "0x5208"
  },
  "miner": "0x55bAf64fc9eAccFFd7Cc643BB61142E1C6ac093e",
  "extraData": "0x",
  "transactions": [
    {
      "hash": "0x6395b3b7b532d6985b38d33074e55e38641fe6fa38bcf5a95244399948884835",
      "blockHash": "0x51dc6bb420e707cb6e0c3590b9fe3e988733addae859debaae27e963ff6980b8",
      "blockNumber": 86166,
      "transactionIndex": 0,
      "confirmations": null,
      "from": "0x2910543Af39abA0Cd09dBb2D50200b3E800A63D2",
      "gasPrice": {
        "_hex": "0xdc7a791c2"
      },
      "gasLimit": {
        "_hex": "0x5208"
      },
      "to": "0xD05f85Eb920117eeBBf13dd94FeEA60e9eB34537",
      "value": {
        "_hex": "0x23dadcb38e9840000"
      },
      "nonce": 648,
      "data": "0x",
      "r": "0xe3c92ecf8b8a8531673b6ba60f181a9fb0197277d43a6fce8c56e5b5642572c6",
      "s": "0x5be1c0d1877d96f9b03b15c12b52a4bafcfb91959406c384dcd075c2bc4c4832",
      "v": 28,
      "creates": null,
      "raw": "0xf86f820288850dc7a791c282520894d05f85eb920117eebbf13dd94feea60e9eb3453789023dadcb38e9840000801ca0e3c92ecf8b8a8531673b6ba60f181a9fb0197277d43a6fce8c56e5b5642572c6a05be1c0d1877d96f9b03b15c12b52a4bafcfb91959406c384dcd075c2bc4c4832",
      "networkId": 0,
      "chainId": 0
    }
  ]
}