{
  "hash": "0x05e4bc30e7df32f9ac8c0a66f57dfcea9f85cd0005a02d924f4ffa557bfd4dfc",
  "parentHash": "0xdd46767670d8ab989b34721a6ad4ad400d243b0d5bbf4c4f005f2bd64a4cf406",
  "number": 50858,
  "timestamp": 1438995703,
  "nonce": "0x4dcb9e734d696cc7",
  "difficulty": 1546168524808,
  "gasLimit": {
    "_hex": "0x7db28"
  },
  "gasUsed": {
    "_hex": "0x546c"
  },
  "miner": "0xbcB2E3693d246E1fc00348754334BadEb88b2a11",
  "extraData": "0x476574682f76312e302e302f6c696e75782f676f312e342e32",
  "transactions": [
    {
      "hash": "0x2b028488ea5efa335e3770daeeaae4363e026228aba4523cdfd8308f23b562b0",
      "blockHash": "0x05e4bc30e7df32f9ac8c0a66f57dfcea9f85cd0005a02d924f4ffa557bfd4dfc",
      "blockNumber": 50858,
      "transactionIndex": 0,
      "confirmations": null,
      "from": "0xefA38028F9f7c5274E3a7E154F858c297e03a3e8",
      "gasPrice": {
        "_hex": "0x108ffa1892e"
      },
      "gasLimit": {
        "_hex": "0x15f90"
      },
      "to": "0x2910543Af39abA0Cd09dBb2D50200b3E800A63D2",
      "value": {
        "_hex": "0xc249fdd327780000"
      },
      "nonce": 0,
      "data": "0x454e47345551393952",
      "r": "0x8093f21fc29ef2d933d1edc3d1f8ea3762583eef406c603943ee71114a1dd5e8",
      "s": "0x2943aab7dd044275e0627318d8867c2848e94e1a992afe342b0f9c5b69461910",
      "v": 27,
      "creates": null,
      "raw": "0xf87780860108ffa1892e83015f90942910543af39aba0cd09dbb2d50200b3e800a63d288c249fdd32778000089454e473455513939521ba08093f21fc29ef2d933d1edc3d1f8ea3762583eef406c603943ee71114a1dd5e8a02943aab7dd044275e0627318d8867c2848e94e1a992afe342b0f9c5b69461910",
      "networkId": 0,
      "chainId": 0
    }
  ]
}