{
  "hash": "0x6a2e7374d1ac2f800de92d4d01621eafd0d54e3ed7fbdd4fe8969ed24e0f9cc7",
  "parentHash": "0x7655a1624a0bceb1a4932c188bafd007c53338b0462cf6292127528e4e55a834",
  "number": 88332,
  "timestamp": 1439606605,
  "nonce": "0x8dd1f722ec6f83d8",
  "difficulty": 3189385880562,
  "gasLimit": {
    "_hex": "0x2fefd8"
  },
  "gasUsed": {
    "_hex": "0x5b58"
  },
  "miner": "0xe6A7a1d47ff21B6321162AEA7C6CB457D5476Bca",
  "extraData": "0x476574682f76312e302e312d38326566323666362f6c696e75782f676f312e34",
  "transactions": [
    {
      "hash": "0x03526e629b456a12b16785683f6f1d5599a157b7d0499dc42de6fb47d015b779",
      "blockHash": "0x6a2e7374d1ac2f800de92d4d01621eafd0d54e3ed7fbdd4fe8969ed24e0f9cc7",
      "blockNumber": 88332,
      "transactionIndex": 0,
      "confirmations": null,
      "from": "0xf2Ae859397af92154241eAd0aC7c4ce3bea76E8F",
      "gasPrice": {
        "_hex": "0xdfb16455f"
      },
      "gasLimit": {
        "_hex": "0x15f90"
      },
      "to": "0x0000000000000000000000000000000000000000",
      "value": {
        "_hex": "0x0"
      },
      "nonce": 13,
      "data": "0xbe99a9806379706572780000000000000000000000000000000000000000000000000000000000000000000000000000f2ae859397af92154241ead0ac7c4ce3bea76e8f0000000000000000000000000000000000000000000000000000000000000001",
      "r": "0x042d73d99193c730058b53bc152b0d61f46d3a45102913aaf7398df542dd7706",
      "s": "0x0516c32ac9f61f6aac01ad48b1f814a729a69b8293a3107119663f5908ae54d1",
      "v": 28,
      "creates": null,
      "raw": "0xf8ca0d850dfb16455f83015f9094000000000000000000000000000000000000000080b864be99a9806379706572780000000000000000000000000000000000000000000000000000000000000000000000000000f2ae859397af92154241ead0ac7c4ce3bea76e8f00000000000000000000000000000000000000000000000000000000000000011ca0042d73d99193c730058b53bc152b0d61f46d3a45102913aaf7398df542dd7706a00516c32ac9f61f6aac01ad48b1f814a729a69b8293a3107119663f5908ae54d1",
      "networkId": 0,
      "chainId": 0
    }
  ]
}