{
  "hash": "0x3910b8934181f5abe25f3c7e6e3a882eabed00cf26f26287cb1cba1088801d93",
  "parentHash": "0x05e57151f1a3b311ddfdf62b8a0aef3cf618891edbf5b9ee58cb76df631bbac7",
  "number": 80192,
  "timestamp": 1439481551,
  "nonce": "0x04a9e2b56670feb0",
  "difficulty": 2374769279167,
  "gasLimit": {
    "_hex": "0x2fefd8"
  },
  "gasUsed": {
    "_hex": "0x12aa5"
  },
  "miner": "0x785ffdDd5cE55c6DF963f345e68d3F2024E5Acb1",
  "extraData": "0x",
  "transactions": [
    {
      "hash": "0x9fe6e2563fafe6f113bbf787003eac8cb2ccfb41cc973a4698fb3b93ea87b7cf",
      "blockHash": "0x3910b8934181f5abe25f3c7e6e3a882eabed00cf26f26287cb1cba1088801d93",
      "blockNumber": 80192,
      "transactionIndex": 0,
      "confirmations": null,
      "from": "0x87C5B5874A18B4306DF8a752a6C8cc3E82daFc19",
      "gasPrice": {
        "_hex": "0x10e40f46eba"
      },
      "gasLimit": {
        "_hex": "0x493e0"
      },
      "to": "0xC4c51de1AbF5D60DBd329eC0F999Fd8f021ae9fC",
      "value": {
        "_hex": "0x0"
      },
      "nonce": 137,
      "data": "0x8772ae3c0000000000000000000000000000000000000000000000000000000000000000",
      "r": "0x76bb0db86a17b8515bca33838a5991ec0bce52279591294d6280a83a86fdca8c",
      "s": "0x1a60e7e1a709434ad47f777822747518f564a405878fe58a4f93d05b305a82a9",
      "v": 27,
      "creates": null,
      "raw": "0xf88b818986010e40f46eba830493e094c4c51de1abf5d60dbd329ec0f999fd8f021ae9fc80a48772ae3c00000000000000000000000000000000000000000000000000000000000000001ba076bb0db86a17b8515bca33838a5991ec0bce52279591294d6280a83a86fdca8ca01a60e7e1a709434ad47f777822747518f564a405878fe58a4f93d05b305a82a9",
      "networkId": 0,
      "chainId": 0
    },
    {
      "hash": "0xd4a872cc63e135a82aaded2191dc68e76e24b6471c37db57c18bbd19a3433223",
      "blockHash": "0x3910b8934181f5abe25f3c7e6e3a882eabed00cf26f26287cb1cba1088801d93",
      "blockNumber": 80192,
      "transactionIndex": 1,
      "confirmations": null,
      "from": "0x2910543Af39abA0Cd09dBb2D50200b3E800A63D2",
      "gasPrice": {
        "_hex": "0xd63475154"
      },
      "gasLimit": {
        "_hex": "0x5208"
      },
      "to": "0x2d11763B4999FB3b61Ca8d19C8C77a743079f7bd",
      "value": {
        "_hex": "0x8ab55f8b52078000"
      },
      "nonce": 383,
      "data": "0x",
      "r": "0x4e64031b846490e866b4cdb3814b5c38173c4907c2428afc5e2b9e4f59634bc3",
      "s": "0x7009f7635cc4cb08af4e0fcd52c6d75c89043ccec1d98084597728cd2f04d762",
      "v": 28,
      "creates": null,
      "raw": "0xf86e82017f850d63475154825208942d11763b4999fb3b61ca8d19c8c77a743079f7bd888ab55f8b52078000801ca04e64031b846490e866b4cdb3814b5c38173c4907c2428afc5e2b9e4f59634bc3a07009f7635cc4cb08af4e0fcd52c6d75c89043ccec1d98084597728cd2f04d762",
      "networkId": 0,
      "chainId": 0
    },
    {
      "hash": "0xac52e375ce95c385816c31f1a22e91869696cb5ab26d6e0212688c8d83756878",
      "blockHash": "0x3910b8934181f5abe25f3c7e6e3a882eabed00cf26f26287cb1cba1088801d93",
      "blockNumber": 80192,
      "transactionIndex": 2,
      "confirmations": null,
      "from": "0x2910543Af39abA0Cd09dBb2D50200b3E800A63D2",
      "gasPrice": {
        "_hex": "0xd63475154"
      },
      "gasLimit": {
        "_hex": "0x5208"
      },
      "to": "0x9D07C02db02Cab411277aE82bF03C4C63c481379",
      "value": {
        "_hex": "0x71f127a5835b230000"
      },
      "nonce": 384,
      "data": "0x",
      "r": "0xfa50b0a11e4ea9c3f5f03b0b7934321ac14fc7233736fbd4e369d24a62d8329b",
      "s": "0x0641a4a030fbe0d040fec590ecb0b8a83dffd82f463bb5654005d03a4f38a656",
      "v": 28,
      "creates": null,
      "raw": "0xf86f820180850d63475154825208949d07c02db02cab411277ae82bf03c4c63c4813798971f127a5835b230000801ca0fa50b0a11e4ea9c3f5f03b0b7934321ac14fc7233736fbd4e369d24a62d8329ba00641a4a030fbe0d040fec590ecb0b8a83dffd82f463bb5654005d03a4f38a656",
      "networkId": 0,
      "chainId": 0
    },
    {
      "hash": "0x0b90d14ef545491effacfff7d4d3ecfcdd64dceac9f1d5dd232c5d0222b60e9c",
      "blockHash": "0x3910b8934181f5abe25f3c7e6e3a882eabed00cf26f26287cb1cba1088801d93",
      "blockNumber": 80192,
      "transactionIndex": 3,
      "confirmations": null,
      "from": "0xE300c4587D260cE22a677755Db6429B491A4309E",
      "gasPrice": {
        "_hex": "0xd4e3f2aaa"
      },
      "gasLimit": {
        "_hex": "0x15f90"
      },
      "to": "0x06EC48800B2DB3eEfa052e98A9b5Fc2Bf783Ee74",
      "value": {
        "_hex": "0x1158e460913d00000"
      },
      "nonce": 0,
      "data": "0x",
      "r": "0x14584c5e02697139841e074edd6a8f1a9645cc1bd5949f7ef433265b0aab3fa3",
      "s": "0x079401588b16ec23d17e4c188c7c5498970a64f7b494b4e7afd076c4bf7cee69",
      "v": 27,
      "creates": null,
      "raw": "0xf86e80850d4e3f2aaa83015f909406ec48800b2db3eefa052e98a9b5fc2bf783ee748901158e460913d00000801ba014584c5e02697139841e074edd6a8f1a9645cc1bd5949f7ef433265b0aab3fa3a0079401588b16ec23d17e4c188c7c5498970a64f7b494b4e7afd076c4bf7cee69",
      "networkId": 0,
      "chainId": 0
    }
  ]
}