{
  "hash": "0x5b818640a9d3d0f39da2e17515a87722978770796f758e817d6e4bbeda9d2570",
  "parentHash": "0xa056a2e73d2d3dda1ac96fd067e8d17e133de3786e31b81a1505d7c39fffc585",
  "number": 71439,
  "timestamp": 1439336046,
  "nonce": "0x6958bf8e8e5dea16",
  "difficulty": 2178292636241,
  "gasLimit": {
    "_hex": "0x2fefd8"
  },
  "gasUsed": {
    "_hex": "0x1032d"
  },
  "miner": "0x785ffdDd5cE55c6DF963f345e68d3F2024E5Acb1",
  "extraData": "0x476574682f4d69676e6f7474652f76312e302e312f6c696e75782f676f312e34",
  "transactions": [
    {
      "hash": "0x5aaeb089ae081b6cac9c227a14e5ade23586eb7d73f4e24aa56be06781683a3f",
      "blockHash": "0x5b818640a9d3d0f39da2e17515a87722978770796f758e817d6e4bbeda9d2570",
      "blockNumber": 71439,
      "transactionIndex": 0,
      "confirmations": null,
      "from": "0x7C0883054c2D02Bc7a852b1f86c42777d0D5c856",
      "gasPrice": {
        "_hex": "0x110c8f7d8de"
      },
      "gasLimit": {
        "_hex": "0xc350"
      },
      "to": "0x2910543Af39abA0Cd09dBb2D50200b3E800A63D2",
      "value": {
        "_hex": "0x1b1981916a91c60000"
      },
      "nonce": 0,
      "data": "0x454e31435237464a52",
      "r": "0x174d64d0625a190475b8c2f2101e1c15e3237473645ecc86f847f9a66ce2370c",
      "s": "0x708e1d721dcbf44684db10e077cef4fb339f2245a3e209ef903e3dd15714e20f",
      "v": 28,
      "creates": null,
      "raw": "0xf87780860110c8f7d8de82c350942910543af39aba0cd09dbb2d50200b3e800a63d2891b1981916a91c6000089454e31435237464a521ca0174d64d0625a190475b8c2f2101e1c15e3237473645ecc86f847f9a66ce2370ca0708e1d721dcbf44684db10e077cef4fb339f2245a3e209ef903e3dd15714e20f",
      "networkId": 0,
      "chainId": 0
    },
    {
      "hash": "0xce1e30c3b27e1c28fe0c6a507f803b33dceb558a644cf112670ec60ac2c28ac0",
      "blockHash": "0x5b818640a9d3d0f39da2e17515a87722978770796f758e817d6e4bbeda9d2570",
      "blockNumber": 71439,
      "transactionIndex": 1,
      "confirmations": null,
      "from": "0x17580B766f7453525ca4C6A88b01b50570EA088C",
      "gasPrice": {
        "_hex": "0xdef776d9a"
      },
      "gasLimit": {
        "_hex": "0x61a80"
      },
      "to": "0x5Fe5B7546D1628f7348B023A0393de1FC825A4fD",
      "value": {
        "_hex": "0x29a2241af62c0000"
      },
      "nonce": 189,
      "data": "0xb595b8b50000000000000000000000000000000000000000000000000000000000000001",
      "r": "0xc29739fec79e95a3ebd922ce4faec279f0eca39bcc96e146fc33db296b378dc6",
      "s": "0x16fbd558ffd5557dbce27399f43b5672cf26630b9784b6609ac4beff0c350e22",
      "v": 27,
      "creates": null,
      "raw": "0xf89281bd850def776d9a83061a80945fe5b7546d1628f7348b023a0393de1fc825a4fd8829a2241af62c0000a4b595b8b500000000000000000000000000000000000000000000000000000000000000011ba0c29739fec79e95a3ebd922ce4faec279f0eca39bcc96e146fc33db296b378dc6a016fbd558ffd5557dbce27399f43b5672cf26630b9784b6609ac4beff0c350e22",
      "networkId": 0,
      "chainId": 0
    }
  ]
}