{
  "hash": "0xd86bfcb8795bf41890b47cd34bb636bebbd060b2e93e4c09e031abde6d42b86e",
  "parentHash": "0x90edf669a048058d92148eede4f4a7d74c617bb6bb01804f137ed2e24e4a19b9",
  "number": 67011,
  "timestamp": 1439264232,
  "nonce": "0x22ae61c77d8696c6",
  "difficulty": 1944123849924,
  "gasLimit": {
    "_hex": "0x2fe3db"
  },
  "gasUsed": {
    "_hex": "0x5208"
  },
  "miner": "0xC0EdE9a639d107851462c15f2fb729c7c61bBf62",
  "extraData": "0x",
  "transactions": [
    {
      "hash": "0xd19bb8c7607d1bd13d33e9a99854b1f8175b013d8dc6eeb66549c772500c9fa5",
      "blockHash": "0xd86bfcb8795bf41890b47cd34bb636bebbd060b2e93e4c09e031abde6d42b86e",
      "blockNumber": 67011,
      "transactionIndex": 0,
      "confirmations": null,
      "from": "0x120A270bbC009644e35F0bB6ab13f95b8199c4ad",
      "gasPrice": {
        "_hex": "0xd4006d2a7"
      },
      "gasLimit": {
        "_hex": "0x15f90"
      },
      "to": "0x7244C460dEA1e5835772469AbBF5426D4ad14d59",
      "value": {
        "_hex": "0x46791fc84e07d00000"
      },
      "nonce": 153,
      "data": "0x",
      "r": "0x4ec3ce35beedba6838c71d95ca2c9c7388ba3a0ca9ab1dec67be31108e3a45cc",
      "s": "0x3f9d1e372e9c4783a4aab843d74075e6163096ba3f242bb0713cd74601ab5894",
      "v": 27,
      "creates": null,
      "raw": "0xf86f8199850d4006d2a783015f90947244c460dea1e5835772469abbf5426d4ad14d598946791fc84e07d00000801ba04ec3ce35beedba6838c71d95ca2c9c7388ba3a0ca9ab1dec67be31108e3a45cca03f9d1e372e9c4783a4aab843d74075e6163096ba3f242bb0713cd74601ab5894",
      "networkId": 0,
      "chainId": 0
    }
  ]
}