{
  "hash": "0xcd6be5e60823aca0f2d490f36890f0a603a2aa2ea1cccbefa1abf07e9b0e6c86",
  "parentHash": "0x3c96df4f9966033b707368ca5856dc233969f867c4f28b0996d1d77caf1254e5",
  "number": 70099,
  "timestamp": 1439314664,
  "nonce": "0x8edee33b43e2e1c6",
  "difficulty": 2111610895015,
  "gasLimit": {
    "_hex": "0x2fefd8"
  },
  "gasUsed": {
    "_hex": "0x5208"
  },
  "miner": "0xe6A7a1d47ff21B6321162AEA7C6CB457D5476Bca",
  "extraData": "0x476574682f76312e302e312d38326566323666362f6c696e75782f676f312e34",
  "transactions": [
    {
      "hash": "0x87a0e096fe00a7653a57191b929f224eda0315cc91a0254b6fafb397c7a40690",
      "blockHash": "0xcd6be5e60823aca0f2d490f36890f0a603a2aa2ea1cccbefa1abf07e9b0e6c86",
      "blockNumber": 70099,
      "transactionIndex": 0,
      "confirmations": null,
      "from": "0x2d3Cf607ADCE246F0750b08eBDC87789edb2a407",
      "gasPrice": {
        "_hex": "0x68c6171400"
      },
      "gasLimit": {
        "_hex": "0x55f0"
      },
      "to": "0x2aBD9e50d51e97aFc9a984f64657eD9539c59c91",
      "value": {
        "_hex": "0x6c6b935b8bbd400000"
      },
      "nonce": 1,
      "data": "0x",
      "r": "0xd30fc589f55dea2f6dc241f2aa8d1ea46d3332f231d45837c54ae3449867987e",
      "s": "0x2e3706b72a7a073cdf54c3aaaef974d415c861621dd765082f4d52b7f3e18d36",
      "v": 28,
      "creates": null,
      "raw": "0xf86d018568c61714008255f0942abd9e50d51e97afc9a984f64657ed9539c59c91896c6b935b8bbd400000801ca0d30fc589f55dea2f6dc241f2aa8d1ea46d3332f231d45837c54ae3449867987ea02e3706b72a7a073cdf54c3aaaef974d415c861621dd765082f4d52b7f3e18d36",
      "networkId": 0,
      "chainId": 0
    }
  ]
}