{
  "hash": "0xc469d114189eb451fa863b550a3573cae07aa08afe75a1437cc0a7e12f7203c2",
  "parentHash": "0xdd57b52fbb4ef706dfc19569cc573401ba943b645a8dc3ff4f800e3ad3721ebb",
  "number": 52403,
  "timestamp": 1439020975,
  "nonce": "0x82abca3579111fad",
  "difficulty": 1567929454566,
  "gasLimit": {
    "_hex": "0x136362"
  },
  "gasUsed": {
    "_hex": "0x5208"
  },
  "miner": "0x1B7047b4338ACf65bE94C1A3e8c5c9338ad7d67C",
  "extraData": "0x476574682f76312e302e312d38326566323666362f6c696e75782f676f312e34",
  "transactions": [
    {
      "hash": "0x631ba865d04d175301dc955b0bc806c54c725d00cc508240365bbec5511fe3fb",
      "blockHash": "0xc469d114189eb451fa863b550a3573cae07aa08afe75a1437cc0a7e12f7203c2",
      "blockNumber": 52403,
      "transactionIndex": 0,
      "confirmations": null,
      "from": "0xcF8B7642aA648095761328c56AebC30e752E12A2",
      "gasPrice": {
        "_hex": "0xd7d40ace3"
      },
      "gasLimit": {
        "_hex": "0x7a120"
      },
      "to": "0xa80b38CE85260252BDb8BE027868c1A32a2201a6",
      "value": {
        "_hex": "0xc7d713b49da0000"
      },
      "nonce": 0,
      "data": "0x",
      "r": "0x20378cd299763f22475ea2feb04c0f40ccd8659835f2790b0d877b70cdf605ec",
      "s": "0x4f09d3ee6aa00e11ff18aae419f2033832be091e6c229847d4930255612a9b5b",
      "v": 28,
      "creates": null,
      "raw": "0xf86d80850d7d40ace38307a12094a80b38ce85260252bdb8be027868c1a32a2201a6880c7d713b49da0000801ca020378cd299763f22475ea2feb04c0f40ccd8659835f2790b0d877b70cdf605eca04f09d3ee6aa00e11ff18aae419f2033832be091e6c229847d4930255612a9b5b",
      "networkId": 0,
      "chainId": 0
    }
  ]
}