{
  "hash": "0x52d2485f7298d774c904a1bbcf1a5ad69c26f7c728440f79acbb6c3f58d544d3",
  "parentHash": "0x3d924a49f12c7fa8afa845be4025c0e762f738c037cc52cba44bd54e780bab5b",
  "number": 80375,
  "timestamp": 1439484753,
  "nonce": "0x88b94914d8f783a5",
  "difficulty": 2380522206935,
  "gasLimit": {
    "_hex": "0x2fefd8"
  },
  "gasUsed": {
    "_hex": "0xaa37"
  },
  "miner": "0xFF72187BDe655112a85e30AAa0d1Dd5B43b9d607",
  "extraData": "0x476574682f76312e302e312f77696e646f77732f676f312e342e32",
  "transactions": [
    {
      "hash": "0x946cf48b08ed50ab51ef17fac26571db914f3726c4df267ef4b95e06f92d2814",
      "blockHash": "0x52d2485f7298d774c904a1bbcf1a5ad69c26f7c728440f79acbb6c3f58d544d3",
      "blockNumber": 80375,
      "transactionIndex": 0,
      "confirmations": null,
      "from": "0x87C5B5874A18B4306DF8a752a6C8cc3E82daFc19",
      "gasPrice": {
        "_hex": "0x115575be1ef"
      },
      "gasLimit": {
        "_hex": "0x493e0"
      },
      "to": "0xC4c51de1AbF5D60DBd329eC0F999Fd8f021ae9fC",
      "value": {
        "_hex": "0x0"
      },
      "nonce": 190,
      "data": "0x03750d9400000000000000000000000087c5b5874a18b4306df8a752a6c8cc3e82dafc196b6b6b0000000000000000000000000000000000000000000000000000000000",
      "r": "0x5b14621b1c61e8b4da5fbce4e25a9bf3be16eab153664fe8f952f256f2de9708",
      "s": "0x01eefe075699976b49f4c3b1364486f3885b3d0c6b67d4ac2a2a5675fd548370",
      "v": 28,
      "creates": null,
      "raw": "0xf8ac81be860115575be1ef830493e094c4c51de1abf5d60dbd329ec0f999fd8f021ae9fc80b84403750d9400000000000000000000000087c5b5874a18b4306df8a752a6c8cc3e82dafc196b6b6b00000000000000000000000000000000000000000000000000000000001ca05b14621b1c61e8b4da5fbce4e25a9bf3be16eab153664fe8f952f256f2de9708a001eefe075699976b49f4c3b1364486f3885b3d0c6b67d4ac2a2a5675fd548370",
      "networkId": 0,
      "chainId": 0
    }
  ]
}