{
  "hash": "0x7378dbce9fda9d7731bb5f4f629b4148356bbbefd7355f64adea1cf2debb34b4",
  "parentHash": "0x15024d6321e505f055aea36e493e606934d519954ee8b097b79145d8d49db0aa",
  "number": 100725,
  "timestamp": 1439811366,
  "nonce": "0x25dc98e49f73a9cb",
  "difficulty": 3835831363129,
  "gasLimit": {
    "_hex": "0x2fefd5"
  },
  "gasUsed": {
    "_hex": "0xf618"
  },
  "miner": "0x1217627fe41A00f0b828317F43E6d58F47dBfc43",
  "extraData": "0x476574682f76312e302e302d66313265303136312f6c696e75782f676f312e34",
  "transactions": [
    {
      "hash": "0x3c6519c6b9a4cad79554b7cec6e0afb2f8b8b622da2ae47eed04eb9a5c5c25be",
      "blockHash": "0x7378dbce9fda9d7731bb5f4f629b4148356bbbefd7355f64adea1cf2debb34b4",
      "blockNumber": 100725,
      "transactionIndex": 0,
      "confirmations": null,
      "from": "0xa69Dd2F55e5A3d4CB2B4b3eE2f613562b57a1D2F",
      "gasPrice": {
        "_hex": "0xd9bf60a98"
      },
      "gasLimit": {
        "_hex": "0x5208"
      },
      "to": "0x32Be343B94f860124dC4fEe278FDCBD38C102D88",
      "value": {
        "_hex": "0x4ae2441e30b2b000"
      },
      "nonce": 3,
      "data": "0x",
      "r": "0x2c64ac302b2678a864fc8a2966e682988627455a4827134cfcdfa9c1523c8af6",
      "s": "0x3b28b8df4d3a1e9bb33dd6ae81a9a49c1775f33de472cca3de3d6b829691517c",
      "v": 27,
      "creates": null,
      "raw": "0xf86c03850d9bf60a988252089432be343b94f860124dc4fee278fdcbd38c102d88884ae2441e30b2b000801ba02c64ac302b2678a864fc8a2966e682988627455a4827134cfcdfa9c1523c8af6a03b28b8df4d3a1e9bb33dd6ae81a9a49c1775f33de472cca3de3d6b829691517c",
      "networkId": 0,
      "chainId": 0
    },
    {
      "hash": "0x5cb36263cf06590f123522e1a685030de438ae1998c8c031fa720c2bab5ac55d",
      "blockHash": "0x7378dbce9fda9d7731bb5f4f629b4148356bbbefd7355f64adea1cf2debb34b4",
      "blockNumber": 100725,
      "transactionIndex": 1,
      "confirmations": null,
      "from": "0x8263B7757b139904C7cD8511B3D0a6D1479848Ba",
      "gasPrice": {
        "_hex": "0xd7c38e2fb"
      },
      "gasLimit": {
        "_hex": "0x5208"
      },
      "to": "0x32Be343B94f860124dC4fEe278FDCBD38C102D88",
      "value": {
        "_hex": "0x811e4c63668cd000"
      },
      "nonce": 5,
      "data": "0x",
      "r": "0x2bedf66bd2f56d35fa9421f2ab181c0c0f05cde2fdb08a2ac1664bf9339a8f89",
      "s": "0x66342d080c0f359640d3d02e44637a23df9fd1dab72bebefe755d54b92c1ba03",
      "v": 28,
      "creates": null,
      "raw": "0xf86c05850d7c38e2fb8252089432be343b94f860124dc4fee278fdcbd38c102d8888811e4c63668cd000801ca02bedf66bd2f56d35fa9421f2ab181c0c0f05cde2fdb08a2ac1664bf9339a8f89a066342d080c0f359640d3d02e44637a23df9fd1dab72bebefe755d54b92c1ba03",
      "networkId": 0,
      "chainId": 0
    },
    {
      "hash": "0x7426a3090cb4e861cd29b7ad4690d2571d723746847a8db92b805b98a8a3f37d",
      "blockHash": "0x7378dbce9fda9d7731bb5f4f629b4148356bbbefd7355f64adea1cf2debb34b4",
      "blockNumber": 100725,
      "transactionIndex": 2,
      "confirmations": null,
      "from": "0x187b1f47Cd55b27878699DfCDCee2234cD49E97e",
      "gasPrice": {
        "_hex": "0xd7c38e2fb"
      },
      "gasLimit": {
        "_hex": "0x5208"
      },
      "to": "0x32Be343B94f860124dC4fEe278FDCBD38C102D88",
      "value": {
        "_hex": "0x353b6f0c9703ac000"
      },
      "nonce": 5,
      "data": "0x",
      "r": "0x028474b6e2818109b189a053b8d80b0b0cd9025d80c276379f6eb81993f0290f",
      "s": "0x3208c9fecc45432af185a5d5c875b88d306d6f590352f374286522e5898c82df",
      "v": 28,
      "creates": null,
      "raw": "0xf86d05850d7c38e2fb8252089432be343b94f860124dc4fee278fdcbd38c102d88890353b6f0c9703ac000801ca0028474b6e2818109b189a053b8d80b0b0cd9025d80c276379f6eb81993f0290fa03208c9fecc45432af185a5d5c875b88d306d6f590352f374286522e5898c82df",
      "networkId": 0,
      "chainId": 0
    }
  ]
}