{
  "hash": "0x6cab839015be4462bda47c5dad1c2e394187fecb0243ba1a2d2d40e9e3add472",
  "parentHash": "0xb749c7b4d91cac254927f96be50ca91f3d2a68d5c7a2963add3c74ebf359aa9a",
  "number": 69910,
  "timestamp": 1439311645,
  "nonce": "0x1fdd6ec2c2326140",
  "difficulty": 2110627639691,
  "gasLimit": {
    "_hex": "0x2fefd8"
  },
  "gasUsed": {
    "_hex": "0x546c"
  },
  "miner": "0x7E6930B63D03e88F5928C5cd6ee3FCee4D714F7F",
  "extraData": "0x",
  "transactions": [
    {
      "hash": "0x49b24ff3195c74e87b22eadb760ec01677b7a2fb522e56f505759d222852307e",
      "blockHash": "0x6cab839015be4462bda47c5dad1c2e394187fecb0243ba1a2d2d40e9e3add472",
      "blockNumber": 69910,
      "transactionIndex": 0,
      "confirmations": null,
      "from": "0xf6939024FA41613B3B6c4DE6D086Aa16648f5fa3",
      "gasPrice": {
        "_hex": "0xd600a1a1c"
      },
      "gasLimit": {
        "_hex": "0x55f0"
      },
      "to": "0x2910543Af39abA0Cd09dBb2D50200b3E800A63D2",
      "value": {
        "_hex": "0xc249fdd327780000"
      },
      "nonce": 1,
      "data": "0x454e51343033375047",
      "r": "0xf816ac7c06a784314c443eb5176d9793ef0ecc6a09ac8e1c8e036c66f6c0d55f",
      "s": "0x48057ae15a56ff57c3ae6fc453983a0d0f78e6b418eaec221cae173ac003acb6",
      "v": 27,
      "creates": null,
      "raw": "0xf87501850d600a1a1c8255f0942910543af39aba0cd09dbb2d50200b3e800a63d288c249fdd32778000089454e513430333750471ba0f816ac7c06a784314c443eb5176d9793ef0ecc6a09ac8e1c8e036c66f6c0d55fa048057ae15a56ff57c3ae6fc453983a0d0f78e6b418eaec221cae173ac003acb6",
      "networkId": 0,
      "chainId": 0
    }
  ]
}