{
  "hash": "0xe4d999d037f3fcef02c2008975e3bbbcffa6c2de6493ee3c53b0d2e89b0319e6",
  "parentHash": "0x23f07ae2097beccb940bcc0f57c94dd7e8574a64363825d184114879f389bccc",
  "number": 46669,
  "timestamp": 1438927183,
  "nonce": "0x278984339ad82303",
  "difficulty": 1459616668846,
  "gasLimit": {
    "_hex": "0x6fff"
  },
  "gasUsed": {
    "_hex": "0x5208"
  },
  "miner": "0xC713D2B774095B6E4c738c3FB95e6648Dee3e75D",
  "extraData": "0x476574682f76312e302e312d38326566323666362f6c696e75782f676f312e34",
  "transactions": [
    {
      "hash": "0xa29c8d598d837c9b06251d5ea2c3d4dbf2836a074aef219e41634960b4d21c1a",
      "blockHash": "0xe4d999d037f3fcef02c2008975e3bbbcffa6c2de6493ee3c53b0d2e89b0319e6",
      "blockNumber": 46669,
      "transactionIndex": 0,
      "confirmations": null,
      "from": "0xFD2605a2bF58fDbB90db1Da55dF61628B47F9e8c",
      "gasPrice": {
        "_hex": "0xd1f217cbf"
      },
      "gasLimit": {
        "_hex": "0x5208"
      },
      "to": "0x04B0AEb6048bA81523Ecf83b50f72BB691C5Ee88",
      "value": {
        "_hex": "0x16345785d8a0000"
      },
      "nonce": 6,
      "data": "0x",
      "r": "0xc7d6fb3e1069ed60c4a93b68af77dfef0d0fa35a819e459561f7705e95e9b0c4",
      "s": "0x4247aad9b1f90a413714790c1cde5892a2bc2b7f6416797d584570eea7415229",
      "v": 28,
      "creates": null,
      "raw": "0xf86c06850d1f217cbf8252089404b0aeb6048ba81523ecf83b50f72bb691c5ee8888016345785d8a0000801ca0c7d6fb3e1069ed60c4a93b68af77dfef0d0fa35a819e459561f7705e95e9b0c4a04247aad9b1f90a413714790c1cde5892a2bc2b7f6416797d584570eea7415229",
      "networkId": 0,
      "chainId": 0
    }
  ]
}