{
  "hash": "0x7b66deccf6f1148a293e637945f3be2b64246d84af5e61cc3166696293fc3970",
  "parentHash": "0xebc15d3216e5566893c52553172237c80451b3248bb33e056ffd368db93a14ca",
  "number": 110853,
  "timestamp": 1439980708,
  "nonce": "0x46c358fdefa3df87",
  "difficulty": 4392495881304,
  "gasLimit": {
    "_hex": "0x2fefd8"
  },
  "gasUsed": {
    "_hex": "0x5208"
  },
  "miner": "0x580992B51e3925e23280EfB93d3047C82f17E038",
  "extraData": "0x476574682f76312e302e312f6c696e75782f676f312e342e32",
  "transactions": [
    {
      "hash": "0x9de7d865d40c2a9199fe18a6a090d645cfd2dcfedf194ffb17660b0bd5e2c220",
      "blockHash": "0x7b66deccf6f1148a293e637945f3be2b64246d84af5e61cc3166696293fc3970",
      "blockNumber": 110853,
      "transactionIndex": 0,
      "confirmations": null,
      "from": "0x007f7f58D3eb5b7510A301eCC749FC1fCDDBE14D",
      "gasPrice": {
        "_hex": "0xd382b0b9c"
      },
      "gasLimit": {
        "_hex": "0x15f90"
      },
      "to": "0xb1abce2918E21ddb93AA452731a12672A3d9F75a",
      "value": {
        "_hex": "0x4563918244f40000"
      },
      "nonce": 296,
      "data": "0x",
      "r": "0xb8619aeb50cbdcccc8cce3ba512bb71fa295296673ac12e27782ea215ba88cf6",
      "s": "0x344bad7e425ce58f9b55efece5a95bf97de0423ad7bd2a3bf326676565c409d5",
      "v": 28,
      "creates": null,
      "raw": "0xf86f820128850d382b0b9c83015f9094b1abce2918e21ddb93aa452731a12672a3d9f75a884563918244f40000801ca0b8619aeb50cbdcccc8cce3ba512bb71fa295296673ac12e27782ea215ba88cf6a0344bad7e425ce58f9b55efece5a95bf97de0423ad7bd2a3bf326676565c409d5",
      "networkId": 0,
      "chainId": 0
    }
  ]
}