{
  "hash": "0x32ea4cf3a4bb56a9bfe98cc4f7aeae7009bb59e2a897d0cff3ee0528b6338064",
  "parentHash": "0x8d4f4ccf280fca1da192f42f7d851a900aa3d82bf256b3876b2466bdbc4175c0",
  "number": 114633,
  "timestamp": 1440043670,
  "nonce": "0x30242d45a0dabf7f",
  "difficulty": 4499026574875,
  "gasLimit": {
    "_hex": "0x2fefd8"
  },
  "gasUsed": {
    "_hex": "0x1168e"
  },
  "miner": "0xe6A7a1d47ff21B6321162AEA7C6CB457D5476Bca",
  "extraData": "0x476574682f76312e302e312d38326566323666362f6c696e75782f676f312e34",
  "transactions": [
    {
      "hash": "0xce4869249ff324f80d144478622b4c885b0127c65f6c55eb7f73a99f2e6c0b2a",
      "blockHash": "0x32ea4cf3a4bb56a9bfe98cc4f7aeae7009bb59e2a897d0cff3ee0528b6338064",
      "blockNumber": 114633,
      "transactionIndex": 0,
      "confirmations": null,
      "from": "0x3d1FC29b89717742e275fB98A8D2a26F216f49F2",
      "gasPrice": {
        "_hex": "0x10c8fbe6724"
      },
      "gasLimit": {
        "_hex": "0x15f90"
      },
      "to": "0xf5EfDc94e8AD7D73B2bf860071004656e7Ea38c4",
      "value": {
        "_hex": "0xde0b6b3a7640000"
      },
      "nonce": 2,
      "data": "0x",
      "r": "0x0c6208ebbe3e9a09d5655f4b5d1c1573ddec4d7a1ae34c8505748fb9b25afc6f",
      "s": "0x02d7f91828a7a07abccd570d2a084d36755e7939075d2ca3c878809313a28bb2",
      "v": 28,
      "creates": null,
      "raw": "0xf86e0286010c8fbe672483015f9094f5efdc94e8ad7d73b2bf860071004656e7ea38c4880de0b6b3a7640000801ca00c6208ebbe3e9a09d5655f4b5d1c1573ddec4d7a1ae34c8505748fb9b25afc6fa002d7f91828a7a07abccd570d2a084d36755e7939075d2ca3c878809313a28bb2",
      "networkId": 0,
      "chainId": 0
    },
    {
      "hash": "0x261c81a6d4edea28722a33bbd95428ff33b6382c656ad705c7b37ced1aa617ff",
      "blockHash": "0x32ea4cf3a4bb56a9bfe98cc4f7aeae7009bb59e2a897d0cff3ee0528b6338064",
      "blockNumber": 114633,
      "transactionIndex": 1,
      "confirmations": null,
      "from": "0xcD063B3081Ea55535E5b60a21eff7f14E785A877",
      "gasPrice": {
        "_hex": "0xcdb0545f7"
      },
      "gasLimit": {
        "_hex": "0x15f90"
      },
      "to": "0x3edDc7ebC7db94f54b72D8Ed1F42cE6A527305bB",
      "value": {
        "_hex": "0x0"
      },
      "nonce": 10,
      "data": "0x90b98a110000000000000000000000003eddc7ebc7db94f54b72d8ed1f42ce6a527305bb000000000000000000000000000000000000000000000000000000000000000a",
      "r": "0x53ece23b14105b1c6c1fe8e6d773c94c6f50b24627960d48cb844abc55311775",
      "s": "0x60aa9ee01aa86e1d1a15236a2322d328ea19f5e27fdbab2f6d165c8311320fc6",
      "v": 27,
      "creates": null,
      "raw": "0xf8aa0a850cdb0545f783015f90943eddc7ebc7db94f54b72d8ed1f42ce6a527305bb80b84490b98a110000000000000000000000003eddc7ebc7db94f54b72d8ed1f42ce6a527305bb000000000000000000000000000000000000000000000000000000000000000a1ba053ece23b14105b1c6c1fe8e6d773c94c6f50b24627960d48cb844abc55311775a060aa9ee01aa86e1d1a15236a2322d328ea19f5e27fdbab2f6d165c8311320fc6",
      "networkId": 0,
      "chainId": 0
    }
  ]
}