{
  "hash": "0xce4f60e6b8187e7fb2dddf7f16c868c2f190a4bf1aa82c50d62c8727d3ac1083",
  "parentHash": "0xcd16f689e20fb3d7517279489559d86537d0b9acf39624dc80542137c9a3a869",
  "number": 69262,
  "timestamp": 1439300736,
  "nonce": "0xa62ced4d2009920e",
  "difficulty": 2069964296183,
  "gasLimit": {
    "_hex": "0x2fefd8"
  },
  "gasUsed": {
    "_hex": "0x19a28"
  },
  "miner": "0x5B7970CD176308e0Ffd0358e8B14aaF4A19BA544",
  "extraData": "0x476574682f76312e302e302f77696e646f77732f676f312e342e32",
  "transactions": [
    {
      "hash": "0x0ffe48a82eb708864ddc744f43af570488bad562d31de32d989e1b543b81a6f0",
      "blockHash": "0xce4f60e6b8187e7fb2dddf7f16c868c2f190a4bf1aa82c50d62c8727d3ac1083",
      "blockNumber": 69262,
      "transactionIndex": 0,
      "confirmations": null,
      "from": "0xe6A7a1d47ff21B6321162AEA7C6CB457D5476Bca",
      "gasPrice": {
        "_hex": "0xcfeab6a3b"
      },
      "gasLimit": {
        "_hex": "0x55f0"
      },
      "to": "0x9746c7e1ef2bd21FF3997fa467593a89cb852BD0",
      "value": {
        "_hex": "0xf305ed2c0ec97f4"
      },
      "nonce": 516,
      "data": "0x",
      "r": "0x3bb7670c4a883d119db0ff03149a334c3009da3ead23280ff11b380d46b886ed",
      "s": "0x053f51d7b3cb75ef65b855f50732fdd31640f306780ed5fde6342d9a8ee01899",
      "v": 28,
      "creates": null,
      "raw": "0xf86e820204850cfeab6a3b8255f0949746c7e1ef2bd21ff3997fa467593a89cb852bd0880f305ed2c0ec97f4801ca03bb7670c4a883d119db0ff03149a334c3009da3ead23280ff11b380d46b886eda0053f51d7b3cb75ef65b855f50732fdd31640f306780ed5fde6342d9a8ee01899",
      "networkId": 0,
      "chainId": 0
    },
    {
      "hash": "0x444f31d87140ed80d962d68ba5900dc7f3c9017b757749620117d8451687b8d8",
      "blockHash": "0xce4f60e6b8187e7fb2dddf7f16c868c2f190a4bf1aa82c50d62c8727d3ac1083",
      "blockNumber": 69262,
      "transactionIndex": 1,
      "confirmations": null,
      "from": "0xe6A7a1d47ff21B6321162AEA7C6CB457D5476Bca",
      "gasPrice": {
        "_hex": "0xcfeab6a3b"
      },
      "gasLimit": {
        "_hex": "0x55f0"
      },
      "to": "0x3175a28CF6105466923f11bFFabD279F162aa2f8",
      "value": {
        "_hex": "0xf570c044de4762c"
      },
      "nonce": 517,
      "data": "0x",
      "r": "0xbae3092b29c2aea906c4a572128d806eefc650bc0ac7ee53920173a7c3bf3540",
      "s": "0x0abec8a4f7eae53dccaffd0ff67634d26044cfd932b9459ad9116b24c49b24a9",
      "v": 28,
      "creates": null,
      "raw": "0xf86e820205850cfeab6a3b8255f0943175a28cf6105466923f11bffabd279f162aa2f8880f570c044de4762c801ca0bae3092b29c2aea906c4a572128d806eefc650bc0ac7ee53920173a7c3bf3540a00abec8a4f7eae53dccaffd0ff67634d26044cfd932b9459ad9116b24c49b24a9",
      "networkId": 0,
      "chainId": 0
    },
    {
      "hash": "0x9ade13c0339d1a85adc55a79b324d7ac547d091a8249f8ba9cff72bd9d14905c",
      "blockHash": "0xce4f60e6b8187e7fb2dddf7f16c868c2f190a4bf1aa82c50d62c8727d3ac1083",
      "blockNumber": 69262,
      "transactionIndex": 2,
      "confirmations": null,
      "from": "0xe6A7a1d47ff21B6321162AEA7C6CB457D5476Bca",
      "gasPrice": {
        "_hex": "0xcfeab6a3b"
      },
      "gasLimit": {
        "_hex": "0x55f0"
      },
      "to": "0x813ee1C90CeA0A07aa24CB733cA38Ad46CCf8CF0",
      "value": {
        "_hex": "0x100fd9273e175224"
      },
      "nonce": 518,
      "data": "0x",
      "r": "0x2761e549cb710d67b799ca0e375c6639f48ee548157e2d345bb8b976c9fd8e4a",
      "s": "0x0af241c933bb0a7f5d25ac007c13d46a95fd997eb38f45b0617c9c61454c6557",
      "v": 27,
      "creates": null,
      "raw": "0xf86e820206850cfeab6a3b8255f094813ee1c90cea0a07aa24cb733ca38ad46ccf8cf088100fd9273e175224801ba02761e549cb710d67b799ca0e375c6639f48ee548157e2d345bb8b976c9fd8e4aa00af241c933bb0a7f5d25ac007c13d46a95fd997eb38f45b0617c9c61454c6557",
      "networkId": 0,
      "chainId": 0
    },
    {
      "hash": "0xf12b8e40e7110f8b470815831cea70a789d2031931d1190d7425a2abde879d5f",
      "blockHash": "0xce4f60e6b8187e7fb2dddf7f16c868c2f190a4bf1aa82c50d62c8727d3ac1083",
      "blockNumber": 69262,
      "transactionIndex": 3,
      "confirmations": null,
      "from": "0xe6A7a1d47ff21B6321162AEA7C6CB457D5476Bca",
      "gasPrice": {
        "_hex": "0xcfeab6a3b"
      },
      "gasLimit": {
        "_hex": "0x55f0"
      },
      "to": "0x399e51beB529F28056C392653C99A2Ebb654571F",
      "value": {
        "_hex": "0x104b0d628db41a88"
      },
      "nonce": 519,
      "data": "0x",
      "r": "0x3733198c5f82f844271fc6ce710416085c5b5b0bad3ad6a0fd7a5dff61d95f77",
      "s": "0x44bcde73d56938fa253b763c215ab399961c3508fc323e09cda74f00ca809d3a",
      "v": 28,
      "creates": null,
      "raw": "0xf86e820207850cfeab6a3b8255f094399e51beb529f28056c392653c99a2ebb654571f88104b0d628db41a88801ca03733198c5f82f844271fc6ce710416085c5b5b0bad3ad6a0fd7a5dff61d95f77a044bcde73d56938fa253b763c215ab399961c3508fc323e09cda74f00ca809d3a",
      "networkId": 0,
      "chainId": 0
    },
    {
      "hash": "0x48b5eb08b0834c6ca50c1c9001745e32eead122d3079a8091584dc83f353b53a",
      "blockHash": "0xce4f60e6b8187e7fb2dddf7f16c868c2f190a4bf1aa82c50d62c8727d3ac1083",
      "blockNumber": 69262,
      "transactionIndex": 4,
      "confirmations": null,
      "from": "0xe6A7a1d47ff21B6321162AEA7C6CB457D5476Bca",
      "gasPrice": {
        "_hex": "0xcfeab6a3b"
      },
      "gasLimit": {
        "_hex": "0x55f0"
      },
      "to": "0x5AAd6A78E472B14f92C052774C9a82D1077703a6",
      "value": {
        "_hex": "0x105241e02d1d2b10"
      },
      "nonce": 520,
      "data": "0x",
      "r": "0xb7372582595f150dd1956815bdf563dfe90b25a0aa528f46b400050afe96c839",
      "s": "0x6545f7a440d0a94175a5b166ab7d0eee2fc6fe295811c9122addb701a1fc3bd6",
      "v": 27,
      "creates": null,
      "raw": "0xf86e820208850cfeab6a3b8255f0945aad6a78e472b14f92c052774c9a82d1077703a688105241e02d1d2b10801ba0b7372582595f150dd1956815bdf563dfe90b25a0aa528f46b400050afe96c839a06545f7a440d0a94175a5b166ab7d0eee2fc6fe295811c9122addb701a1fc3bd6",
      "networkId": 0,
      "chainId": 0
    }
  ]
}