{
  "hash": "0x8993e413310b3be29a37620d2464deb5c070939d400650079ff25c430278f408",
  "parentHash": "0xd4eb9403616a3acb61ec0daab2c1b8ade854934ef1aa1c3a2d5f4030dbf4df90",
  "number": 85231,
  "timestamp": 1439560393,
  "nonce": "0xeea9ec921632e20a",
  "difficulty": 2751782330499,
  "gasLimit": {
    "_hex": "0x2fefd8"
  },
  "gasUsed": {
    "_hex": "0xa410"
  },
  "miner": "0x3FF679B0823a026F2378E5f5F22A6F127cC85828",
  "extraData": "0x",
  "transactions": [
    {
      "hash": "0xbfa8d15a0a1e05b1398b6aad509cbec6f686d9d0ec66aae44c17f7bed639e171",
      "blockHash": "0x8993e413310b3be29a37620d2464deb5c070939d400650079ff25c430278f408",
      "blockNumber": 85231,
      "transactionIndex": 0,
      "confirmations": null,
      "from": "0x2910543Af39abA0Cd09dBb2D50200b3E800A63D2",
      "gasPrice": {
        "_hex": "0xcebffc841"
      },
      "gasLimit": {
        "_hex": "0x5208"
      },
      "to": "0x2f86ba8019945f39edE131D38d4d8780884DA553",
      "value": {
        "_hex": "0x3635b7ea4ca6bf8000"
      },
      "nonce": 597,
      "data": "0x",
      "r": "0xca3c1f83ec5257e3f8aa652ca759948c7c9e54a7d154ecb3a711705857e3a50c",
      "s": "0x06242dc233550ed9d91474da35c2803218772f14d8b19520fb5e81515e4eac2c",
      "v": 28,
      "creates": null,
      "raw": "0xf86f820255850cebffc841825208942f86ba8019945f39ede131d38d4d8780884da553893635b7ea4ca6bf8000801ca0ca3c1f83ec5257e3f8aa652ca759948c7c9e54a7d154ecb3a711705857e3a50ca006242dc233550ed9d91474da35c2803218772f14d8b19520fb5e81515e4eac2c",
      "networkId": 0,
      "chainId": 0
    },
    {
      "hash": "0x0dfb6549b94b1bcb7251042af0cd85abffd77f7dafa179e26f62d0837d4c3557",
      "blockHash": "0x8993e413310b3be29a37620d2464deb5c070939d400650079ff25c430278f408",
      "blockNumber": 85231,
      "transactionIndex": 1,
      "confirmations": null,
      "from": "0x2910543Af39abA0Cd09dBb2D50200b3E800A63D2",
      "gasPrice": {
        "_hex": "0xcebffc841"
      },
      "gasLimit": {
        "_hex": "0x5208"
      },
      "to": "0x35a5214E74955f8C9836aE8D52a95FbEF9Fb9501",
      "value": {
        "_hex": "0xdcef33a6f838000"
      },
      "nonce": 598,
      "data": "0x",
      "r": "0xabfde232e607f98e271a23cfd711e18f8cde933d946f116e60e39128cec7fc10",
      "s": "0x4a2e64a293cefc96687ebedaff6ba75c2e372edd72a937e45ee5e851815e0065",
      "v": 28,
      "creates": null,
      "raw": "0xf86e820256850cebffc8418252089435a5214e74955f8c9836ae8d52a95fbef9fb9501880dcef33a6f838000801ca0abfde232e607f98e271a23cfd711e18f8cde933d946f116e60e39128cec7fc10a04a2e64a293cefc96687ebedaff6ba75c2e372edd72a937e45ee5e851815e0065",
      "networkId": 0,
      "chainId": 0
    }
  ]
}