{
  "hash": "0xb3984bb298d328a0026a7c607131e4ac1814c4a5adcff8917512bda977a2835b",
  "parentHash": "0x5a84db536b5bb626518f697bfa3496def0a1698e280f06baf90cad7992a9fa08",
  "number": 80723,
  "timestamp": 1439489830,
  "nonce": "0xcfa82591bae6b69e",
  "difficulty": 2436873573345,
  "gasLimit": {
    "_hex": "0x2fefd8"
  },
  "gasUsed": {
    "_hex": "0xa410"
  },
  "miner": "0xe6A7a1d47ff21B6321162AEA7C6CB457D5476Bca",
  "extraData": "0x476574682f76312e302e312d38326566323666362f6c696e75782f676f312e34",
  "transactions": [
    {
      "hash": "0x0198c3d280a250a5356da3587fd74664739ed16069e2d220d10a35465817a7df",
      "blockHash": "0xb3984bb298d328a0026a7c607131e4ac1814c4a5adcff8917512bda977a2835b",
      "blockNumber": 80723,
      "transactionIndex": 0,
      "confirmations": null,
      "from": "0x28a9D631e5C22Ee57312DDdc75936822a2243A05",
      "gasPrice": {
        "_hex": "0xba43b7400"
      },
      "gasLimit": {
        "_hex": "0x5208"
      },
      "to": "0xC47Aaa860008be6f65B58c6C6E02a84e666EfE31",
      "value": {
        "_hex": "0x107ab81d3e0abb000"
      },
      "nonce": 3,
      "data": "0x",
      "r": "0x95f056a45fd3c5924df15995a75f7134fcb38716e6fb9c57831660c7633d0cb3",
      "s": "0x70f568f7e4a54002da9a6d36d9d48f30b79870f609f65c2c9952d061572dd8ea",
      "v": 27,
      "creates": null,
      "raw": "0xf86d03850ba43b740082520894c47aaa860008be6f65b58c6c6e02a84e666efe31890107ab81d3e0abb000801ba095f056a45fd3c5924df15995a75f7134fcb38716e6fb9c57831660c7633d0cb3a070f568f7e4a54002da9a6d36d9d48f30b79870f609f65c2c9952d061572dd8ea",
      "networkId": 0,
      "chainId": 0
    },
    {
      "hash": "0x9bf7fea3a5af9080af68e5113257d71b3e1eca7d066af0dbeea2ea5c7d536e7e",
      "blockHash": "0xb3984bb298d328a0026a7c607131e4ac1814c4a5adcff8917512bda977a2835b",
      "blockNumber": 80723,
      "transactionIndex": 1,
      "confirmations": null,
      "from": "0xd24E847f7aCfCb5d65Af455EB13671730E45D727",
      "gasPrice": {
        "_hex": "0xba43b7400"
      },
      "gasLimit": {
        "_hex": "0x5208"
      },
      "to": "0xC47Aaa860008be6f65B58c6C6E02a84e666EfE31",
      "value": {
        "_hex": "0x297ae23059581dc0"
      },
      "nonce": 0,
      "data": "0x",
      "r": "0xb8c625d3a2557ee4a45be4af8ad09923953da52301ebed84086bd229a770b5e4",
      "s": "0x158256b5944e536be2e0be1378d26239c78acb12472fd97e569b34d2ed22a95e",
      "v": 28,
      "creates": null,
      "raw": "0xf86c80850ba43b740082520894c47aaa860008be6f65b58c6c6e02a84e666efe3188297ae23059581dc0801ca0b8c625d3a2557ee4a45be4af8ad09923953da52301ebed84086bd229a770b5e4a0158256b5944e536be2e0be1378d26239c78acb12472fd97e569b34d2ed22a95e",
      "networkId": 0,
      "chainId": 0
    }
  ]
}