{
  "hash": "0x5bf3e06c89b0476884e812d71d0cab3235929134c7856caa2bd30d9dda641f50",
  "parentHash": "0x29df09637e6556eb5f83883f0b7d9b42c0a3bfc5d641c9169511dc7ed07b63c6",
  "number": 94855,
  "timestamp": 1439715034,
  "nonce": "0xc3fdc8c372cab164",
  "difficulty": 3525862223583,
  "gasLimit": {
    "_hex": "0x2fefd8"
  },
  "gasUsed": {
    "_hex": "0x5208"
  },
  "miner": "0xe6A7a1d47ff21B6321162AEA7C6CB457D5476Bca",
  "extraData": "0x476574682f76312e302e312d38326566323666362f6c696e75782f676f312e34",
  "transactions": [
    {
      "hash": "0x39a66403434725a584a1a1f93b63c1f53cb24d1e4649332ccec750a3b9c37139",
      "blockHash": "0x5bf3e06c89b0476884e812d71d0cab3235929134c7856caa2bd30d9dda641f50",
      "blockNumber": 94855,
      "transactionIndex": 0,
      "confirmations": null,
      "from": "0x7366ADF97960d404c38D975e1A8786bEb14B6507",
      "gasPrice": {
        "_hex": "0xd4cdc2c02"
      },
      "gasLimit": {
        "_hex": "0x15f90"
      },
      "to": "0xB9A0a0410aA5e26bFa66Cc3ACAF0A6FC61Df5588",
      "value": {
        "_hex": "0x54c4efe255a8ac000"
      },
      "nonce": 5,
      "data": "0x",
      "r": "0x1df904beba4da346e064c49d4d5e5e9cd843bb5a8a8d56c2db3ab89dfeead394",
      "s": "0x77273ef8e0dbb16f185289af0b94d0c0050cef644e5dbc1f711e2196fab8026f",
      "v": 27,
      "creates": null,
      "raw": "0xf86e05850d4cdc2c0283015f9094b9a0a0410aa5e26bfa66cc3acaf0a6fc61df558889054c4efe255a8ac000801ba01df904beba4da346e064c49d4d5e5e9cd843bb5a8a8d56c2db3ab89dfeead394a077273ef8e0dbb16f185289af0b94d0c0050cef644e5dbc1f711e2196fab8026f",
      "networkId": 0,
      "chainId": 0
    }
  ]
}