{
  "hash": "0x1464321f7caed7a38ef319becdcc6eb4e36d2789fbd1ad36913e7cc10203e069",
  "parentHash": "0x89c0f1734c23f31ff2684310b256d2696a0f719a272c0faf6a131b87860480ca",
  "number": 94915,
  "timestamp": 1439715971,
  "nonce": "0x861d05b81b925572",
  "difficulty": 3532730135064,
  "gasLimit": {
    "_hex": "0x2fefd8"
  },
  "gasUsed": {
    "_hex": "0x5208"
  },
  "miner": "0x007f7f58D3eb5b7510A301eCC749FC1fCDDBE14D",
  "extraData": "0x476574682f76312e302e312f77696e646f77732f676f312e342e32",
  "transactions": [
    {
      "hash": "0xbb949134ecfff7d025a5dc9b6922d3e2228d572a9f33919627d62af565575697",
      "blockHash": "0x1464321f7caed7a38ef319becdcc6eb4e36d2789fbd1ad36913e7cc10203e069",
      "blockNumber": 94915,
      "transactionIndex": 0,
      "confirmations": null,
      "from": "0xA10C59651885FeAaac91F871082a23BBbaBeDfCf",
      "gasPrice": {
        "_hex": "0x110d1874486"
      },
      "gasLimit": {
        "_hex": "0x5208"
      },
      "to": "0x4c74B6F32c9680aCB5Fe0e72B7Aa95C612540A04",
      "value": {
        "_hex": "0x31708ae0045440000"
      },
      "nonce": 32,
      "data": "0x",
      "r": "0x86174bbde17faaf60bf1d43351dfb2af8abc2051c59c6272205c5bc0d86b6788",
      "s": "0x0c596b5e345694539fb0d3aa2f97a6e01a78bdefb94030da1531df688440f75e",
      "v": 27,
      "creates": null,
      "raw": "0xf86e20860110d1874486825208944c74b6f32c9680acb5fe0e72b7aa95c612540a0489031708ae0045440000801ba086174bbde17faaf60bf1d43351dfb2af8abc2051c59c6272205c5bc0d86b6788a00c596b5e345694539fb0d3aa2f97a6e01a78bdefb94030da1531df688440f75e",
      "networkId": 0,
      "chainId": 0
    }
  ]
}