{
  "hash": "0x5d795a5c87855ff85a7a654b6376146ccfa4d8ffb366fbfc061cde3a6679a9f7",
  "parentHash": "0xd91a4e6df8c11b13f35dd4455fd1ef6bf680a26bf910578fce21f0fde1954884",
  "number": 80255,
  "timestamp": 1439482604,
  "nonce": "0x3783e57a1b9dfedc",
  "difficulty": 2385210328646,
  "gasLimit": {
    "_hex": "0x2fefd8"
  },
  "gasUsed": {
    "_hex": "0x17102"
  },
  "miner": "0x35c6f22E8fFA3d3aEf1EE7744BdbA64E1b188a15",
  "extraData": "0x476574682f76312e302e312f6c696e75782f676f312e342e32",
  "transactions": [
    {
      "hash": "0x0fd5bcc5d592170dbdcbd9c11ae577691667d543012b24df51c991d813f9bc84",
      "blockHash": "0x5d795a5c87855ff85a7a654b6376146ccfa4d8ffb366fbfc061cde3a6679a9f7",
      "blockNumber": 80255,
      "transactionIndex": 0,
      "confirmations": null,
      "from": "0x72B04597570ca1Bd15727a8a23D7df9D432530b1",
      "gasPrice": {
        "_hex": "0x45d964b800"
      },
      "gasLimit": {
        "_hex": "0x5208"
      },
      "to": "0x69b8bc60d27EC3b7526bC96385C0f5ad76cD534A",
      "value": {
        "_hex": "0x410d586a20a4c0000"
      },
      "nonce": 1,
      "data": "0x",
      "r": "0x68b36679e17ce45b900386a8ad8c174df0aebac56bfcdad92d66796582ceb1be",
      "s": "0x54b6692ca044fafecc3b480115c956cfd7f1bffeb2b769359e20de04e0212cac",
      "v": 28,
      "creates": null,
      "raw": "0xf86d018545d964b8008252089469b8bc60d27ec3b7526bc96385c0f5ad76cd534a890410d586a20a4c0000801ca068b36679e17ce45b900386a8ad8c174df0aebac56bfcdad92d66796582ceb1bea054b6692ca044fafecc3b480115c956cfd7f1bffeb2b769359e20de04e0212cac",
      "networkId": 0,
      "chainId": 0
    },
    {
      "hash": "0xc3ae5778b9e36f69e46ec9ddce78fca378f0e6eaeb8175954b7075b58e1a7dfb",
      "blockHash": "0x5d795a5c87855ff85a7a654b6376146ccfa4d8ffb366fbfc061cde3a6679a9f7",
      "blockNumber": 80255,
      "transactionIndex": 1,
      "confirmations": null,
      "from": "0x775e18be7A50a0Abb8A4e82B1bD697D79F31fE04",
      "gasPrice": {
        "_hex": "0xccc9a5bf3"
      },
      "gasLimit": {
        "_hex": "0xf4240"
      },
      "to": "0xde0B295669a9FD93d5F28D9Ec85E40f4cb697BAe",
      "value": {
        "_hex": "0x0"
      },
      "nonce": 5,
      "data": "0xf00d4b5d00000000000000000000000005096a47749d8bfab0a90c1bb7a95115dbe4cea60000000000000000000000005ed8cee6b63b1c6afce3ad7c92f4fd7e1b8fad9f",
      "r": "0x560fee5bfd97773e80666a8189c146e72d5a681660bc0ead7eb35f18286c3456",
      "s": "0x651a31e4f930db68e55805ebe4a9fdd8b98af0ca75f50d8c0e082b0cae8dd528",
      "v": 28,
      "creates": null,
      "raw": "0xf8aa05850ccc9a5bf3830f424094de0b295669a9fd93d5f28d9ec85e40f4cb697bae80b844f00d4b5d00000000000000000000000005096a47749d8bfab0a90c1bb7a95115dbe4cea60000000000000000000000005ed8cee6b63b1c6afce3ad7c92f4fd7e1b8fad9f1ca0560fee5bfd97773e80666a8189c146e72d5a681660bc0ead7eb35f18286c3456a0651a31e4f930db68e55805ebe4a9fdd8b98af0ca75f50d8c0e082b0cae8dd528",
      "networkId": 0,
      "chainId": 0
    },
    {
      "hash": "0xe701898b2f1b675db0525ddbaedd322cc040c85c2998cc3198df28a5309a43e6",
      "blockHash": "0x5d795a5c87855ff85a7a654b6376146ccfa4d8ffb366fbfc061cde3a6679a9f7",
      "blockNumber": 80255,
      "transactionIndex": 2,
      "confirmations": null,
      "from": "0x7c56d94ebECcb769524379C450873519a9d805FF",
      "gasPrice": {
        "_hex": "0xba43b7400"
      },
      "gasLimit": {
        "_hex": "0x8f82"
      },
      "to": "0xde0B295669a9FD93d5F28D9Ec85E40f4cb697BAe",
      "value": {
        "_hex": "0x0"
      },
      "nonce": 6,
      "data": "0xf00d4b5d00000000000000000000000005096a47749d8bfab0a90c1bb7a95115dbe4cea60000000000000000000000005ed8cee6b63b1c6afce3ad7c92f4fd7e1b8fad9f",
      "r": "0x8a9785bdb30080476aeb7c8059bf278516e51fda9bb9aec260104f7acaee5a26",
      "s": "0x7617260a9c130f8e9c124000e841ec949efe653abeba4f95416aba8cb48b29dc",
      "v": 28,
      "creates": null,
      "raw": "0xf8a906850ba43b7400828f8294de0b295669a9fd93d5f28d9ec85e40f4cb697bae80b844f00d4b5d00000000000000000000000005096a47749d8bfab0a90c1bb7a95115dbe4cea60000000000000000000000005ed8cee6b63b1c6afce3ad7c92f4fd7e1b8fad9f1ca08a9785bdb30080476aeb7c8059bf278516e51fda9bb9aec260104f7acaee5a26a07617260a9c130f8e9c124000e841ec949efe653abeba4f95416aba8cb48b29dc",
      "networkId": 0,
      "chainId": 0
    }
  ]
}