{
  "hash": "0xfa8f2c50690cdecea25a341fb685f46ee52a6489259779021a948b765259ac70",
  "parentHash": "0x48df6dfe6f85e7d6821fa95c1d8a3e8659fc51355186e269ae08d3a5928cb788",
  "number": 68412,
  "timestamp": 1439287429,
  "nonce": "0xf89320db312ba203",
  "difficulty": 2016302719127,
  "gasLimit": {
    "_hex": "0x2fefd8"
  },
  "gasUsed": {
    "_hex": "0x142c1"
  },
  "miner": "0xbb7B8287f3F0a933474a79eAe42CBCa977791171",
  "extraData": "0x476574682f4c5649562f76312e302e312f6c696e75782f676f312e342e32",
  "transactions": [
    {
      "hash": "0xa8d0858f9959cb0cca38c9c36fd1595b6ce93aa50b0dead5085572917931d59c",
      "blockHash": "0xfa8f2c50690cdecea25a341fb685f46ee52a6489259779021a948b765259ac70",
      "blockNumber": 68412,
      "transactionIndex": 0,
      "confirmations": null,
      "from": "0x17580B766f7453525ca4C6A88b01b50570EA088C",
      "gasPrice": {
        "_hex": "0xd88331a21"
      },
      "gasLimit": {
        "_hex": "0x61a80"
      },
      "to": "0x5Fe5B7546D1628f7348B023A0393de1FC825A4fD",
      "value": {
        "_hex": "0xde0b6b3a7640000"
      },
      "nonce": 19,
      "data": "0xb595b8b50000000000000000000000000000000000000000000000000000000000000001",
      "r": "0x52f057d45e1575ed0c67b197e5bf652198a49371cdfd821b9dffc4bb3268a327",
      "s": "0x0725f6fbff910ac0d7bc0e1df02218f0ae29f404294aeffba72798cfec1ae9e8",
      "v": 28,
      "creates": null,
      "raw": "0xf89113850d88331a2183061a80945fe5b7546d1628f7348b023a0393de1fc825a4fd880de0b6b3a7640000a4b595b8b500000000000000000000000000000000000000000000000000000000000000011ca052f057d45e1575ed0c67b197e5bf652198a49371cdfd821b9dffc4bb3268a327a00725f6fbff910ac0d7bc0e1df02218f0ae29f404294aeffba72798cfec1ae9e8",
      "networkId": 0,
      "chainId": 0
    },
    {
      "hash": "0xfb200dc759b00dc69c0578fbce9df31d08c97dc33bc82c84c3b92f3071a4f65b",
      "blockHash": "0xfa8f2c50690cdecea25a341fb685f46ee52a6489259779021a948b765259ac70",
      "blockNumber": 68412,
      "transactionIndex": 1,
      "confirmations": null,
      "from": "0x17580B766f7453525ca4C6A88b01b50570EA088C",
      "gasPrice": {
        "_hex": "0xd88331a21"
      },
      "gasLimit": {
        "_hex": "0x61a80"
      },
      "to": "0x5Fe5B7546D1628f7348B023A0393de1FC825A4fD",
      "value": {
        "_hex": "0xde0b6b3a7640000"
      },
      "nonce": 20,
      "data": "0xb595b8b50000000000000000000000000000000000000000000000000000000000000001",
      "r": "0x0a7cc8817c1fd096f54ec3155581e33615758db8d4fb55bd295fbc4309dac13e",
      "s": "0x33c31bc9e4fb70131ca65501e7b773b8032d5c1f54a249b0d98460ac56368af7",
      "v": 28,
      "creates": null,
      "raw": "0xf89114850d88331a2183061a80945fe5b7546d1628f7348b023a0393de1fc825a4fd880de0b6b3a7640000a4b595b8b500000000000000000000000000000000000000000000000000000000000000011ca00a7cc8817c1fd096f54ec3155581e33615758db8d4fb55bd295fbc4309dac13ea033c31bc9e4fb70131ca65501e7b773b8032d5c1f54a249b0d98460ac56368af7",
      "networkId": 0,
      "chainId": 0
    }
  ]
}