{
  "hash": "0x6acdc38cf59553752a9c8e5ed243f60fc23368d52b29a295b97a12f7c6a4d409",
  "parentHash": "0xb607eb0713c8e79477f33fedcfbff5b06c16c989a68533202b4bd67f47e5ee48",
  "number": 84448,
  "timestamp": 1439549790,
  "nonce": "0x0fdf9e13130e55d3",
  "difficulty": 2563930354744,
  "gasLimit": {
    "_hex": "0x2fefd8"
  },
  "gasUsed": {
    "_hex": "0xa410"
  },
  "miner": "0x3FF679B0823a026F2378E5f5F22A6F127cC85828",
  "extraData": "0x",
  "transactions": [
    {
      "hash": "0x972c948979f617f6592e3fd34168401db9c32b50cecb8fcdeb8111e4ff8de304",
      "blockHash": "0x6acdc38cf59553752a9c8e5ed243f60fc23368d52b29a295b97a12f7c6a4d409",
      "blockNumber": 84448,
      "transactionIndex": 0,
      "confirmations": null,
      "from": "0xf2cC0eEAAAeD313542CB262B0B8c3972425143f0",
      "gasPrice": {
        "_hex": "0xd90e9cc25"
      },
      "gasLimit": {
        "_hex": "0x5208"
      },
      "to": "0x32Be343B94f860124dC4fEe278FDCBD38C102D88",
      "value": {
        "_hex": "0x8a9f433b2ee5e800"
      },
      "nonce": 2,
      "data": "0x",
      "r": "0xc6feb34a39b5841b29c0cedac6ed57d7af8bf81fc26fae9a2bd8b286029034df",
      "s": "0x5b53c78a32cd52d5b618318c7089f4b8ad81bc28c3940145dc19f0257f0afe1f",
      "v": 27,
      "creates": null,
      "raw": "0xf86c02850d90e9cc258252089432be343b94f860124dc4fee278fdcbd38c102d88888a9f433b2ee5e800801ba0c6feb34a39b5841b29c0cedac6ed57d7af8bf81fc26fae9a2bd8b286029034dfa05b53c78a32cd52d5b618318c7089f4b8ad81bc28c3940145dc19f0257f0afe1f",
      "networkId": 0,
      "chainId": 0
    },
    {
      "hash": "0x83142897cb7ee9ea2f510c7c5301f6154c168372d3a821b38e59cce05532d513",
      "blockHash": "0x6acdc38cf59553752a9c8e5ed243f60fc23368d52b29a295b97a12f7c6a4d409",
      "blockNumber": 84448,
      "transactionIndex": 1,
      "confirmations": null,
      "from": "0x5fF827e73C5B866c300b824fe12719a3DD350513",
      "gasPrice": {
        "_hex": "0xd90e9cc25"
      },
      "gasLimit": {
        "_hex": "0x5208"
      },
      "to": "0x32Be343B94f860124dC4fEe278FDCBD38C102D88",
      "value": {
        "_hex": "0x11589ed32288ee000"
      },
      "nonce": 16,
      "data": "0x",
      "r": "0xb537144e4106c3384228759b62df5e3648a9b5283a73db07b3dd7f866dbf7816",
      "s": "0x0292e3fb446114277699fcc58a93613ea3f08921767e5e9411f52bc81364e6b3",
      "v": 28,
      "creates": null,
      "raw": "0xf86d10850d90e9cc258252089432be343b94f860124dc4fee278fdcbd38c102d8889011589ed32288ee000801ca0b537144e4106c3384228759b62df5e3648a9b5283a73db07b3dd7f866dbf7816a00292e3fb446114277699fcc58a93613ea3f08921767e5e9411f52bc81364e6b3",
      "networkId": 0,
      "chainId": 0
    }
  ]
}