{
  "hash": "0x87c4d4b395e6fa0f8aceb9016de13cd9be47013e10f10a591743189fe7a81fb7",
  "parentHash": "0xd69ae316c37c235cf60b6d01578fd0889500f2ad2a843205246a6b3ae6ebfb5c",
  "number": 68233,
  "timestamp": 1439284623,
  "nonce": "0x441272d3cf25f789",
  "difficulty": 1984116155317,
  "gasLimit": {
    "_hex": "0x2fefd5"
  },
  "gasUsed": {
    "_hex": "0x5208"
  },
  "miner": "0xbb7B8287f3F0a933474a79eAe42CBCa977791171",
  "extraData": "0x476574682f4c5649562f76312e302e312f6c696e75782f676f312e342e32",
  "transactions": [
    {
      "hash": "0x5e7831a88abe819874612d223548cdcbfd773425ad6c23845a00abd3053404db",
      "blockHash": "0x87c4d4b395e6fa0f8aceb9016de13cd9be47013e10f10a591743189fe7a81fb7",
      "blockNumber": 68233,
      "transactionIndex": 0,
      "confirmations": null,
      "from": "0x32Be343B94f860124dC4fEe278FDCBD38C102D88",
      "gasPrice": {
        "_hex": "0xde0c38f42"
      },
      "gasLimit": {
        "_hex": "0x5208"
      },
      "to": "0x4BD5f0Ee173C81d42765154865EE69361b6aD189",
      "value": {
        "_hex": "0x8aa39c121a270000"
      },
      "nonce": 221,
      "data": "0x",
      "r": "0x60e573203f8c3d1b38cc7db27775fa0172d47bb2865047e3f8b67613f9d6758c",
      "s": "0x40bcdba588fdc33a9eededeb01d14fd17cec8e937d64605929d6f2c330f812e0",
      "v": 28,
      "creates": null,
      "raw": "0xf86d81dd850de0c38f42825208944bd5f0ee173c81d42765154865ee69361b6ad189888aa39c121a270000801ca060e573203f8c3d1b38cc7db27775fa0172d47bb2865047e3f8b67613f9d6758ca040bcdba588fdc33a9eededeb01d14fd17cec8e937d64605929d6f2c330f812e0",
      "networkId": 0,
      "chainId": 0
    }
  ]
}