{
  "hash": "0x222b4309efa4a5da7f72fd6e142481298f770bd9f0ac31d1766da05467e71e2b",
  "parentHash": "0xfad3058ec820b2c497d5b17672f9960504b4b00d25635a9d403194732552f9cc",
  "number": 64621,
  "timestamp": 1439223727,
  "nonce": "0xa75c175b9c69cd6e",
  "difficulty": 1886687947664,
  "gasLimit": {
    "_hex": "0x2fefd8"
  },
  "gasUsed": {
    "_hex": "0xf87c"
  },
  "miner": "0xde8B4cca204F866220e8e25817668Cd44a5fee88",
  "extraData": "0x",
  "transactions": [
    {
      "hash": "0xdcf89f2d2f4b4166e5b3f61a58ad36172c8a793eba21ca9e4d7f6b060983f67e",
      "blockHash": "0x222b4309efa4a5da7f72fd6e142481298f770bd9f0ac31d1766da05467e71e2b",
      "blockNumber": 64621,
      "transactionIndex": 0,
      "confirmations": null,
      "from": "0x8cf3546Fd1cda33D58845FC8FcfECAbCa7c5642A",
      "gasPrice": {
        "_hex": "0x110c8f7d8de"
      },
      "gasLimit": {
        "_hex": "0xc350"
      },
      "to": "0x2910543Af39abA0Cd09dBb2D50200b3E800A63D2",
      "value": {
        "_hex": "0x58d15e176280000"
      },
      "nonce": 2,
      "data": "0x454e32355855353452",
      "r": "0x7f4583945e42fefffb056c554b7cb8336bded3a0906060ee6724420ffcc4792e",
      "s": "0xb3d2d6d16d6c62e563a7489f2f0e07a2ba8609d258a8997756271348d80e413a",
      "v": 27,
      "creates": null,
      "raw": "0xf87602860110c8f7d8de82c350942910543af39aba0cd09dbb2d50200b3e800a63d288058d15e17628000089454e323558553534521ba07f4583945e42fefffb056c554b7cb8336bded3a0906060ee6724420ffcc4792ea0b3d2d6d16d6c62e563a7489f2f0e07a2ba8609d258a8997756271348d80e413a",
      "networkId": 0,
      "chainId": 0
    },
    {
      "hash": "0x9a8ae8b43446a3234de1d2739bf52e38c8fe8098bef45bcb5cd0a3a7e351f74d",
      "blockHash": "0x222b4309efa4a5da7f72fd6e142481298f770bd9f0ac31d1766da05467e71e2b",
      "blockNumber": 64621,
      "transactionIndex": 1,
      "confirmations": null,
      "from": "0x5842592fE477B8bE20917940A4Ae5be72373f35B",
      "gasPrice": {
        "_hex": "0xba43b7400"
      },
      "gasLimit": {
        "_hex": "0x5208"
      },
      "to": "0x302d3b0d7a8eAa079b8b34Bf43C909062Fec8C7E",
      "value": {
        "_hex": "0x7c58ada8ff2000"
      },
      "nonce": 1,
      "data": "0x",
      "r": "0x22dd33bc7032d63fd5b05f2656afa4982d77c9b2ebdeacacba5253b67dbf7c6e",
      "s": "0x69afe812ea5c2cf883abeaf6fc4b1c6622a201fada4a1c128e6313be98b9a461",
      "v": 28,
      "creates": null,
      "raw": "0xf86b01850ba43b740082520894302d3b0d7a8eaa079b8b34bf43c909062fec8c7e877c58ada8ff2000801ca022dd33bc7032d63fd5b05f2656afa4982d77c9b2ebdeacacba5253b67dbf7c6ea069afe812ea5c2cf883abeaf6fc4b1c6622a201fada4a1c128e6313be98b9a461",
      "networkId": 0,
      "chainId": 0
    },
    {
      "hash": "0x4bd68cdf2230b2a02bfa9686b0c25ee97657db9364f8bea20f0069acdd447cf3",
      "blockHash": "0x222b4309efa4a5da7f72fd6e142481298f770bd9f0ac31d1766da05467e71e2b",
      "blockNumber": 64621,
      "transactionIndex": 2,
      "confirmations": null,
      "from": "0xC5c1093E4CD1441b7bB025918ae8e78ec2B51EaC",
      "gasPrice": {
        "_hex": "0xba43b7400"
      },
      "gasLimit": {
        "_hex": "0x5208"
      },
      "to": "0xcdd7eeb6f6553DcDD3f3e5c0dE60b1510458c2E3",
      "value": {
        "_hex": "0xaa9f075c200000"
      },
      "nonce": 1,
      "data": "0x",
      "r": "0x1e31b3b5d67aed6e45dc16d77eace66ac759a70bc546f9c16bcac5b43badf2ab",
      "s": "0x616364b694beb2c086d8a93e3fd45dc2be683b6842fbf110e2186cb9ba047012",
      "v": 27,
      "creates": null,
      "raw": "0xf86b01850ba43b740082520894cdd7eeb6f6553dcdd3f3e5c0de60b1510458c2e387aa9f075c200000801ba01e31b3b5d67aed6e45dc16d77eace66ac759a70bc546f9c16bcac5b43badf2aba0616364b694beb2c086d8a93e3fd45dc2be683b6842fbf110e2186cb9ba047012",
      "networkId": 0,
      "chainId": 0
    }
  ]
}