{
  "hash": "0xe12293a2644d9b7c83aaa258a5de8184e84504edfba82bea8cb91ddc1cf73cef",
  "parentHash": "0x97a88413c7d31f4e43148ac1397348ffff24f445f2c4a7bd0b280f57c6a67c8f",
  "number": 105414,
  "timestamp": 1439887159,
  "nonce": "0xf47526e48fa7209c",
  "difficulty": 4376071706117,
  "gasLimit": {
    "_hex": "0x2fefd8"
  },
  "gasUsed": {
    "_hex": "0x5208"
  },
  "miner": "0xe6A7a1d47ff21B6321162AEA7C6CB457D5476Bca",
  "extraData": "0x476574682f76312e302e312d38326566323666362f6c696e75782f676f312e34",
  "transactions": [
    {
      "hash": "0xc9a276264b9252d242032e35aa4b0708e964404302127c04d2ad78074b18955c",
      "blockHash": "0xe12293a2644d9b7c83aaa258a5de8184e84504edfba82bea8cb91ddc1cf73cef",
      "blockNumber": 105414,
      "transactionIndex": 0,
      "confirmations": null,
      "from": "0xcD690730A45cdebeF24F2a3db2de181bFBA5CBea",
      "gasPrice": {
        "_hex": "0xdba38b4cd"
      },
      "gasLimit": {
        "_hex": "0x5208"
      },
      "to": "0x32Be343B94f860124dC4fEe278FDCBD38C102D88",
      "value": {
        "_hex": "0x15f69bff2f0302000"
      },
      "nonce": 7,
      "data": "0x",
      "r": "0x760bdfa348f7049e322bcc2e32bbd7cf84b2fb425560113f50cac9d0deb60383",
      "s": "0x56ec0d151c249c50c2e5c04a968590abd3b87c209556769d322a02e8cb376ea1",
      "v": 27,
      "creates": null,
      "raw": "0xf86d07850dba38b4cd8252089432be343b94f860124dc4fee278fdcbd38c102d8889015f69bff2f0302000801ba0760bdfa348f7049e322bcc2e32bbd7cf84b2fb425560113f50cac9d0deb60383a056ec0d151c249c50c2e5c04a968590abd3b87c209556769d322a02e8cb376ea1",
      "networkId": 0,
      "chainId": 0
    }
  ]
}