{
  "hash": "0xb2c0d08aaff63710834bee510eb5d422e477bd5466332b9abd5df605d7c5af3a",
  "parentHash": "0xa613ef7646ad5c10bbe42474c9846481972031b3c56e576835f0e2ce8ffd3046",
  "number": 96336,
  "timestamp": 1439738706,
  "nonce": "0xc094cfef53207373",
  "difficulty": 3674629713456,
  "gasLimit": {
    "_hex": "0x2fefd8"
  },
  "gasUsed": {
    "_hex": "0xa410"
  },
  "miner": "0xe64D681b0eBCa2997D5f35e72EbC7777973299D7",
  "extraData": "0x",
  "transactions": [
    {
      "hash": "0xcdf01c20b8d68a023590c1c81ca4a2b178e96a4af7f6f48966568f7fe0b272d9",
      "blockHash": "0xb2c0d08aaff63710834bee510eb5d422e477bd5466332b9abd5df605d7c5af3a",
      "blockNumber": 96336,
      "transactionIndex": 0,
      "confirmations": null,
      "from": "0x0D4EcC7d750180EBf4A9Df728B6669B5Bceb5E40",
      "gasPrice": {
        "_hex": "0xd771e6d69"
      },
      "gasLimit": {
        "_hex": "0x5208"
      },
      "to": "0x32Be343B94f860124dC4fEe278FDCBD38C102D88",
      "value": {
        "_hex": "0x455f40efc7eb7c00"
      },
      "nonce": 42,
      "data": "0x",
      "r": "0xbeff1b55947ab8d65f1c09c33ee57bb29813ab0824bd29d132a8639196113633",
      "s": "0x0ad1f6bb5c2100ffbb0532f5e259339b5d802c6eb96de35102b08c359f08061e",
      "v": 28,
      "creates": null,
      "raw": "0xf86c2a850d771e6d698252089432be343b94f860124dc4fee278fdcbd38c102d8888455f40efc7eb7c00801ca0beff1b55947ab8d65f1c09c33ee57bb29813ab0824bd29d132a8639196113633a00ad1f6bb5c2100ffbb0532f5e259339b5d802c6eb96de35102b08c359f08061e",
      "networkId": 0,
      "chainId": 0
    },
    {
      "hash": "0x6cf7e38565b327101ebda8bfce3e583ce79313e6450a7369b8a859f48a29cea0",
      "blockHash": "0xb2c0d08aaff63710834bee510eb5d422e477bd5466332b9abd5df605d7c5af3a",
      "blockNumber": 96336,
      "transactionIndex": 1,
      "confirmations": null,
      "from": "0xb1abce2918E21ddb93AA452731a12672A3d9F75a",
      "gasPrice": {
        "_hex": "0xd771e6d69"
      },
      "gasLimit": {
        "_hex": "0x5208"
      },
      "to": "0x32Be343B94f860124dC4fEe278FDCBD38C102D88",
      "value": {
        "_hex": "0x8ac2c6e76dee4800"
      },
      "nonce": 54,
      "data": "0x",
      "r": "0x6fbc4f5594fec61fb90a74f8ec489340cdcb162de6cb8ef6b4337cbcc9d7e62e",
      "s": "0x3dbcea0ed6aa3be3728f8f52807769be78d0d8977e9ab80b7c3266339e86b6dd",
      "v": 28,
      "creates": null,
      "raw": "0xf86c36850d771e6d698252089432be343b94f860124dc4fee278fdcbd38c102d88888ac2c6e76dee4800801ca06fbc4f5594fec61fb90a74f8ec489340cdcb162de6cb8ef6b4337cbcc9d7e62ea03dbcea0ed6aa3be3728f8f52807769be78d0d8977e9ab80b7c3266339e86b6dd",
      "networkId": 0,
      "chainId": 0
    }
  ]
}