{
  "hash": "0xab14ea530f8686029ec8602c8c5581caa0a5a53b405b0d831a197506f92ede87",
  "parentHash": "0xb109cc6e047077dc8499adfbb5da517a5ce6d088bf52c8df428bd1d9ae79224d",
  "number": 100048,
  "timestamp": 1439799819,
  "nonce": "0x9a2986c79e8d90ce",
  "difficulty": 3849275189579,
  "gasLimit": {
    "_hex": "0x2fefd8"
  },
  "gasUsed": {
    "_hex": "0x5208"
  },
  "miner": "0xe6A7a1d47ff21B6321162AEA7C6CB457D5476Bca",
  "extraData": "0x476574682f76312e302e312d38326566323666362f6c696e75782f676f312e34",
  "transactions": [
    {
      "hash": "0xd3f4aba70839cacc3bdc77b6d965fe9b68c23edd2267a5ef6c78093e2067ec81",
      "blockHash": "0xab14ea530f8686029ec8602c8c5581caa0a5a53b405b0d831a197506f92ede87",
      "blockNumber": 100048,
      "transactionIndex": 0,
      "confirmations": null,
      "from": "0x7884D470204862a0d1A21122F41ee77430396Ee5",
      "gasPrice": {
        "_hex": "0xe2741dcd4"
      },
      "gasLimit": {
        "_hex": "0x15f90"
      },
      "to": "0x7884D470204862a0d1A21122F41ee77430396Ee5",
      "value": {
        "_hex": "0x2386f26fc10000"
      },
      "nonce": 44,
      "data": "0x",
      "r": "0xd92dae40e4dbf2a8b61fedbeab90b7141d248f9234c2638153c8e03f7d5e1b7c",
      "s": "0x43309dc17ff4534ad2c7c41b050aa8f6d7d5e980cf6b9b8a3632163fa5f8efa2",
      "v": 27,
      "creates": null,
      "raw": "0xf86c2c850e2741dcd483015f90947884d470204862a0d1a21122f41ee77430396ee5872386f26fc10000801ba0d92dae40e4dbf2a8b61fedbeab90b7141d248f9234c2638153c8e03f7d5e1b7ca043309dc17ff4534ad2c7c41b050aa8f6d7d5e980cf6b9b8a3632163fa5f8efa2",
      "networkId": 0,
      "chainId": 0
    }
  ]
}