{
  "hash": "0x9ee1b5458f8fc2a03a0711927a03d85c1fae7f4354a425a783381a6096f49824",
  "parentHash": "0x3d992cb32a2ee75a84b66f2d7682a7a1134181d52c3de4683a4aedd1f21ccb2b",
  "number": 119567,
  "timestamp": 1440145175,
  "nonce": "0x0d9eeb8d52550f25",
  "difficulty": 4383652368371,
  "gasLimit": {
    "_hex": "0x2fefd8"
  },
  "gasUsed": {
    "_hex": "0x5208"
  },
  "miner": "0x608f4b86321a68453f9adf6F06F7Fc3E621739ad",
  "extraData": "0xd783010002844765746887676f312e342e32856c696e7578",
  "transactions": [
    {
      "hash": "0xe30cc407a83e32d08a23f8581a811fc0307d91ce29312775708caaa4d33cb5d6",
      "blockHash": "0x9ee1b5458f8fc2a03a0711927a03d85c1fae7f4354a425a783381a6096f49824",
      "blockNumber": 119567,
      "transactionIndex": 0,
      "confirmations": null,
      "from": "0xc3DBDB3Efa722db2a3F6041b0ca0042782296ba9",
      "gasPrice": {
        "_hex": "0xba43b7400"
      },
      "gasLimit": {
        "_hex": "0x15f90"
      },
      "to": "0x92857A8BC0A6F66180324f49541C695A3a0Ff944",
      "value": {
        "_hex": "0x1d7d843dc3b480000"
      },
      "nonce": 11,
      "data": "0x",
      "r": "0x3a7810660cbd75cf6eac1b871029c04b04c47712968458ee4288bfac5ba09acd",
      "s": "0x02dd1d69a190ca6ddfa1926409f515b9c48ef1921a08e5489e68dbbd6e06c568",
      "v": 28,
      "creates": null,
      "raw": "0xf86e0b850ba43b740083015f909492857a8bc0a6f66180324f49541c695a3a0ff9448901d7d843dc3b480000801ca03a7810660cbd75cf6eac1b871029c04b04c47712968458ee4288bfac5ba09acda002dd1d69a190ca6ddfa1926409f515b9c48ef1921a08e5489e68dbbd6e06c568",
      "networkId": 0,
      "chainId": 0
    }
  ]
}