{
  "hash": "0x43291b92ffafb864d7b27002aebdd250cadcf7bcd5fbbf3b5b006d86e522c12d",
  "parentHash": "0x789a5e544003dec89be9d9bf1be90ae840c6a7d60e81b8f04a1bd2938b3504f3",
  "number": 70818,
  "timestamp": 1439325995,
  "nonce": "0x36fab1c450fd9f02",
  "difficulty": 2143633147548,
  "gasLimit": {
    "_hex": "0x2fefd8"
  },
  "gasUsed": {
    "_hex": "0xa410"
  },
  "miner": "0xf927a40C8B7F6E07c5af7FA2155B4864a4112B13",
  "extraData": "0x",
  "transactions": [
    {
      "hash": "0xbb350c4180a97a7d00906e8c5bd81965e2ec5c1de2ff1c8ed250e6ab2b0d919b",
      "blockHash": "0x43291b92ffafb864d7b27002aebdd250cadcf7bcd5fbbf3b5b006d86e522c12d",
      "blockNumber": 70818,
      "transactionIndex": 0,
      "confirmations": null,
      "from": "0x32Be343B94f860124dC4fEe278FDCBD38C102D88",
      "gasPrice": {
        "_hex": "0xd84378904"
      },
      "gasLimit": {
        "_hex": "0x5208"
      },
      "to": "0xE60d047A7f89348A473EB1b32c27A13cB459d776",
      "value": {
        "_hex": "0x821878651a4d70000"
      },
      "nonce": 256,
      "data": "0x",
      "r": "0x5ed862f539f42208f323cb8d21fa14187e211dbeecc713a449bf1033f667ea56",
      "s": "0x303d5ddc6efea724d9b47196b25f83d64fdb7361845bbb2e940864c8d9ca4a67",
      "v": 27,
      "creates": null,
      "raw": "0xf86f820100850d8437890482520894e60d047a7f89348a473eb1b32c27a13cb459d776890821878651a4d70000801ba05ed862f539f42208f323cb8d21fa14187e211dbeecc713a449bf1033f667ea56a0303d5ddc6efea724d9b47196b25f83d64fdb7361845bbb2e940864c8d9ca4a67",
      "networkId": 0,
      "chainId": 0
    },
    {
      "hash": "0x245d109175ced7ddc04d92bf2a2249748eba7973bc77c6d46533fb97fe15b593",
      "blockHash": "0x43291b92ffafb864d7b27002aebdd250cadcf7bcd5fbbf3b5b006d86e522c12d",
      "blockNumber": 70818,
      "transactionIndex": 1,
      "confirmations": null,
      "from": "0x2910543Af39abA0Cd09dBb2D50200b3E800A63D2",
      "gasPrice": {
        "_hex": "0xcd89bad08"
      },
      "gasLimit": {
        "_hex": "0x5208"
      },
      "to": "0x12E09fC5550e428D07861F6bE42728cfc2Db2f3d",
      "value": {
        "_hex": "0x299060a1be4b8000"
      },
      "nonce": 256,
      "data": "0x",
      "r": "0xfb74db04a4ed0d0720ed6de8cab1ee2db1a25b5004b0ac14293bd38fab808e5b",
      "s": "0x6fa076aacddc04e5ad5c0c755e0488e0c1698c373e0a023ebfa0946155b1191a",
      "v": 27,
      "creates": null,
      "raw": "0xf86e820100850cd89bad088252089412e09fc5550e428d07861f6be42728cfc2db2f3d88299060a1be4b8000801ba0fb74db04a4ed0d0720ed6de8cab1ee2db1a25b5004b0ac14293bd38fab808e5ba06fa076aacddc04e5ad5c0c755e0488e0c1698c373e0a023ebfa0946155b1191a",
      "networkId": 0,
      "chainId": 0
    }
  ]
}