{
  "hash": "0x21b68861cd7a004992a222751814d3551e1fccb56f97fa38036f0fc49e1c943f",
  "parentHash": "0xb919cf8a49b118530a7da07e1006d77f47c3b5d75fb56d7596d4a7833e509a9d",
  "number": 113497,
  "timestamp": 1440024595,
  "nonce": "0x9ba2991a8c717f52",
  "difficulty": 4451558635846,
  "gasLimit": {
    "_hex": "0x2fefd8"
  },
  "gasUsed": {
    "_hex": "0x5208"
  },
  "miner": "0x52bc44d5378309EE2abF1539BF71dE1b7d7bE3b5",
  "extraData": "0x476574682f76312e302e312d39353236303766382f6c696e75782f676f312e34",
  "transactions": [
    {
      "hash": "0xa3868c32dfe8c4afc03bb9394cda412afa599f9897f5bbe0959a37e26e3b6872",
      "blockHash": "0x21b68861cd7a004992a222751814d3551e1fccb56f97fa38036f0fc49e1c943f",
      "blockNumber": 113497,
      "transactionIndex": 0,
      "confirmations": null,
      "from": "0xBBDa93a81B882774e1c9b5e3F933Fa35DaC8bc88",
      "gasPrice": {
        "_hex": "0xce3ed6108"
      },
      "gasLimit": {
        "_hex": "0x5208"
      },
      "to": "0x32Be343B94f860124dC4fEe278FDCBD38C102D88",
      "value": {
        "_hex": "0x22b186aa7ef6c6000"
      },
      "nonce": 19,
      "data": "0x",
      "r": "0x1df5b2041971b075177cf0165f011569b55cfad9f6826e0c351313aabd440046",
      "s": "0x38c75f6140465e0c1cadfca206f8339beb227a2712f966125301443aabeb9aa4",
      "v": 28,
      "creates": null,
      "raw": "0xf86d13850ce3ed61088252089432be343b94f860124dc4fee278fdcbd38c102d8889022b186aa7ef6c6000801ca01df5b2041971b075177cf0165f011569b55cfad9f6826e0c351313aabd440046a038c75f6140465e0c1cadfca206f8339beb227a2712f966125301443aabeb9aa4",
      "networkId": 0,
      "chainId": 0
    }
  ]
}