{
  "hash": "0x2e66ed64df6609060ef677e747c3202b2b8eb9edaf4f0cff1ac06794ff4a858f",
  "parentHash": "0x7af1cd83545779252e8135a96e0c515d51e52c711bf7834d6f47d2c4023a4290",
  "number": 87550,
  "timestamp": 1439593953,
  "nonce": "0xfdff0b72bac9c787",
  "difficulty": 3149445143821,
  "gasLimit": {
    "_hex": "0x2fefd8"
  },
  "gasUsed": {
    "_hex": "0x546c"
  },
  "miner": "0xe6A7a1d47ff21B6321162AEA7C6CB457D5476Bca",
  "extraData": "0x476574682f76312e302e312d38326566323666362f6c696e75782f676f312e34",
  "transactions": [
    {
      "hash": "0xce87aa786f0f985c7ff1a32654650efa9f627cb663bab2e52ec72e459925a6ba",
      "blockHash": "0x2e66ed64df6609060ef677e747c3202b2b8eb9edaf4f0cff1ac06794ff4a858f",
      "blockNumber": 87550,
      "transactionIndex": 0,
      "confirmations": null,
      "from": "0xCfF7f89a4D4219A38295251331568210FfC1c134",
      "gasPrice": {
        "_hex": "0x110c8f7d8de"
      },
      "gasLimit": {
        "_hex": "0xc350"
      },
      "to": "0x2910543Af39abA0Cd09dBb2D50200b3E800A63D2",
      "value": {
        "_hex": "0x5f1b30e0ca59500000"
      },
      "nonce": 1,
      "data": "0x454e554a4634524238",
      "r": "0x77b9ed91af9b8bb99fcf219f81df96b1155c4284eb251afb1e259a4898614393",
      "s": "0x27b0a99d4690526fc44e25e905c9ebf3b5b85ba2946296a06881ef5c19478f9f",
      "v": 27,
      "creates": null,
      "raw": "0xf87701860110c8f7d8de82c350942910543af39aba0cd09dbb2d50200b3e800a63d2895f1b30e0ca5950000089454e554a46345242381ba077b9ed91af9b8bb99fcf219f81df96b1155c4284eb251afb1e259a4898614393a027b0a99d4690526fc44e25e905c9ebf3b5b85ba2946296a06881ef5c19478f9f",
      "networkId": 0,
      "chainId": 0
    }
  ]
}