{
  "hash": "0xb923d14e2cdbf9d51ae64995e60534b126fd8b3bfd89f16867de497188e7af74",
  "parentHash": "0x695d1a8f2fc81726f775d7b84f96486ae43ce243c55f3165f14551b26589f450",
  "number": 105480,
  "timestamp": 1439888392,
  "nonce": "0xea4bf0dbd23abf59",
  "difficulty": 4384592576684,
  "gasLimit": {
    "_hex": "0x2fefd8"
  },
  "gasUsed": {
    "_hex": "0x5208"
  },
  "miner": "0xe6A7a1d47ff21B6321162AEA7C6CB457D5476Bca",
  "extraData": "0x476574682f76312e302e312d38326566323666362f6c696e75782f676f312e34",
  "transactions": [
    {
      "hash": "0x05fbc2d88cfeaac56997200d986e3d9c7244e53518ae17e52c6323afe1f6060b",
      "blockHash": "0xb923d14e2cdbf9d51ae64995e60534b126fd8b3bfd89f16867de497188e7af74",
      "blockNumber": 105480,
      "transactionIndex": 0,
      "confirmations": null,
      "from": "0x32Be343B94f860124dC4fEe278FDCBD38C102D88",
      "gasPrice": {
        "_hex": "0xce5621997"
      },
      "gasLimit": {
        "_hex": "0x5208"
      },
      "to": "0x344a8Db086Faed4Efc37131B3a22b0782Dad7095",
      "value": {
        "_hex": "0x97cc06bc1dd1d0000"
      },
      "nonce": 1169,
      "data": "0x",
      "r": "0x710cfa573a2aa2873305953290713ad6743f482bda89d6997eed4327cf89685e",
      "s": "0x5f49481a1db904773fd05975b683512c618da53fb5cab34b9fe3e0fbdd71b735",
      "v": 27,
      "creates": null,
      "raw": "0xf86f820491850ce562199782520894344a8db086faed4efc37131b3a22b0782dad709589097cc06bc1dd1d0000801ba0710cfa573a2aa2873305953290713ad6743f482bda89d6997eed4327cf89685ea05f49481a1db904773fd05975b683512c618da53fb5cab34b9fe3e0fbdd71b735",
      "networkId": 0,
      "chainId": 0
    }
  ]
}