{
  "hash": "0x4f768fde5216c55a57ff99299fa7c35768505ebac38a70c08500738d85decde9",
  "parentHash": "0xe3fba28006eb27316cc3dab4b0175a0d9ffe40904da391bb505faffd458a4046",
  "number": 112595,
  "timestamp": 1440009877,
  "nonce": "0xe4a3592e6782709c",
  "difficulty": 4430351844332,
  "gasLimit": {
    "_hex": "0x2fefd8"
  },
  "gasUsed": {
    "_hex": "0xf618"
  },
  "miner": "0x52bc44d5378309EE2abF1539BF71dE1b7d7bE3b5",
  "extraData": "0x476574682f76312e302e312d63303261396266632f6c696e75782f676f312e34",
  "transactions": [
    {
      "hash": "0xcb7d3dbc5f4a570568fc42bce2fac39d599bf7937f045644d1818cb9f13a9c91",
      "blockHash": "0x4f768fde5216c55a57ff99299fa7c35768505ebac38a70c08500738d85decde9",
      "blockNumber": 112595,
      "transactionIndex": 0,
      "confirmations": null,
      "from": "0x2910543Af39abA0Cd09dBb2D50200b3E800A63D2",
      "gasPrice": {
        "_hex": "0xda27be2c2"
      },
      "gasLimit": {
        "_hex": "0x5208"
      },
      "to": "0x141d08EDaDA2C1bA62A2940184Ba03d62d3fFF22",
      "value": {
        "_hex": "0x1bc0512fbb49f8000"
      },
      "nonce": 1109,
      "data": "0x",
      "r": "0xda3143906e2fd8add44afb1597f575886dfa354bdc5153e45dc66a361825f6e3",
      "s": "0x3a5a99809e973c41a9ccf109513f9185c597c63a35b1244e71d9d719fd6efaac",
      "v": 28,
      "creates": null,
      "raw": "0xf86f820455850da27be2c282520894141d08edada2c1ba62a2940184ba03d62d3fff228901bc0512fbb49f8000801ca0da3143906e2fd8add44afb1597f575886dfa354bdc5153e45dc66a361825f6e3a03a5a99809e973c41a9ccf109513f9185c597c63a35b1244e71d9d719fd6efaac",
      "networkId": 0,
      "chainId": 0
    },
    {
      "hash": "0xfba11326d1c77c04635c171bd06d91bdc744700654a1ab0ea2b39e02a7b3a5a8",
      "blockHash": "0x4f768fde5216c55a57ff99299fa7c35768505ebac38a70c08500738d85decde9",
      "blockNumber": 112595,
      "transactionIndex": 1,
      "confirmations": null,
      "from": "0x3C869c09696523cED824a070414605Bb76231fF2",
      "gasPrice": {
        "_hex": "0xd1f217cbf"
      },
      "gasLimit": {
        "_hex": "0x15f90"
      },
      "to": "0xcC26443fa886eca41C2c5aE022228246e376d352",
      "value": {
        "_hex": "0xde0b6b3a7640000"
      },
      "nonce": 0,
      "data": "0x",
      "r": "0x639b1f36fb36ad3ed79fc44190e08c03e0bfc784ae2426739454c48ba69a93bf",
      "s": "0x734524b925843dc573a7c055f131dba8bfff1861bd2c0d1b56b8b40bcf7d5ac3",
      "v": 28,
      "creates": null,
      "raw": "0xf86d80850d1f217cbf83015f9094cc26443fa886eca41c2c5ae022228246e376d352880de0b6b3a7640000801ca0639b1f36fb36ad3ed79fc44190e08c03e0bfc784ae2426739454c48ba69a93bfa0734524b925843dc573a7c055f131dba8bfff1861bd2c0d1b56b8b40bcf7d5ac3",
      "networkId": 0,
      "chainId": 0
    },
    {
      "hash": "0xb5aceca52fab30fa504e47544708548648cabc3730696b886061e9fd1131e062",
      "blockHash": "0x4f768fde5216c55a57ff99299fa7c35768505ebac38a70c08500738d85decde9",
      "blockNumber": 112595,
      "transactionIndex": 2,
      "confirmations": null,
      "from": "0xc597A5d92F5dC1137D847db733cfe02c6d209f13",
      "gasPrice": {
        "_hex": "0xba43b7400"
      },
      "gasLimit": {
        "_hex": "0x15f90"
      },
      "to": "0x570ae11C6C12605E66D52e5c7B96df006f4DA13d",
      "value": {
        "_hex": "0x43b6f8116b4000"
      },
      "nonce": 49,
      "data": "0x",
      "r": "0x5e8c142cffe453157e583181802652f05bc0f5f2a84d0e9da85e5880106325d0",
      "s": "0x1e03b7b033f323551fd0e19de3ac9232c5c093042fca1027757f374fa946f56d",
      "v": 28,
      "creates": null,
      "raw": "0xf86c31850ba43b740083015f9094570ae11c6c12605e66d52e5c7b96df006f4da13d8743b6f8116b4000801ca05e8c142cffe453157e583181802652f05bc0f5f2a84d0e9da85e5880106325d0a01e03b7b033f323551fd0e19de3ac9232c5c093042fca1027757f374fa946f56d",
      "networkId": 0,
      "chainId": 0
    }
  ]
}