{
  "hash": "0x1d9a79f0dabb0fa624f71bc160c66c8279c2704fa7bd0d66882beec009cfc217",
  "parentHash": "0xafba1a9ec0192cf031a2a0b593bcbbeeee6393e088a8664fde62312912a7fdd5",
  "number": 120061,
  "timestamp": 1440153423,
  "nonce": "0x323f25ff2fd2795e",
  "difficulty": 4404849858441,
  "gasLimit": {
    "_hex": "0x2fefd8"
  },
  "gasUsed": {
    "_hex": "0x546c"
  },
  "miner": "0x9D49F602b0fdb924Bd63DDE2Bd0907E4A07c63a7",
  "extraData": "0x",
  "transactions": [
    {
      "hash": "0xa4f6b3ce6398aefd7832a969e429a77a5bbd24ea4c845d647e8313341478b6aa",
      "blockHash": "0x1d9a79f0dabb0fa624f71bc160c66c8279c2704fa7bd0d66882beec009cfc217",
      "blockNumber": 120061,
      "transactionIndex": 0,
      "confirmations": null,
      "from": "0x8C7bAEA34346a2E47026485BCD8f323012dEA6aA",
      "gasPrice": {
        "_hex": "0xba43b7400"
      },
      "gasLimit": {
        "_hex": "0x55f0"
      },
      "to": "0x2910543Af39abA0Cd09dBb2D50200b3E800A63D2",
      "value": {
        "_hex": "0x48dbbf2f2ecd00000"
      },
      "nonce": 2,
      "data": "0x454e324342555a5238",
      "r": "0xf25c7b877b1ea6f2ca329de87084e961cc89d6edaa6ca877a34aa2f6516bb40f",
      "s": "0x27475c08ae2510dd41b3c0816775730e0a2fd4fcae1658598fcd98a3cb0cd51a",
      "v": 28,
      "creates": null,
      "raw": "0xf87602850ba43b74008255f0942910543af39aba0cd09dbb2d50200b3e800a63d289048dbbf2f2ecd0000089454e324342555a52381ca0f25c7b877b1ea6f2ca329de87084e961cc89d6edaa6ca877a34aa2f6516bb40fa027475c08ae2510dd41b3c0816775730e0a2fd4fcae1658598fcd98a3cb0cd51a",
      "networkId": 0,
      "chainId": 0
    }
  ]
}