{
  "hash": "0xd81b99148a57691251958d9429b16b4e619f4f7d63b079bf8ff0aee50057da75",
  "parentHash": "0x8dc3ab045a3955c17176fc227810d88460268f1f3447b70bae5e9a7b2a263946",
  "number": 117911,
  "timestamp": 1440117398,
  "nonce": "0xecd38397a7651a53",
  "difficulty": 4346150880697,
  "gasLimit": {
    "_hex": "0x2fefd8"
  },
  "gasUsed": {
    "_hex": "0x5208"
  },
  "miner": "0xaB638742EBe3A78F2a85028350e1AADB86C0a6ed",
  "extraData": "0xd983010002844765746887676f312e342e328777696e646f7773",
  "transactions": [
    {
      "hash": "0x34c661f7af2cf11869cf5cb98441e8520acf1d85971a751e69c895e3b8f9ac2d",
      "blockHash": "0xd81b99148a57691251958d9429b16b4e619f4f7d63b079bf8ff0aee50057da75",
      "blockNumber": 117911,
      "transactionIndex": 0,
      "confirmations": null,
      "from": "0x4a900C6a7785648E677cd96E39603466c0C7744A",
      "gasPrice": {
        "_hex": "0xba43b7400"
      },
      "gasLimit": {
        "_hex": "0x5208"
      },
      "to": "0x32Be343B94f860124dC4fEe278FDCBD38C102D88",
      "value": {
        "_hex": "0xeb970f18e57a400"
      },
      "nonce": 9,
      "data": "0x",
      "r": "0xce900390e1e3cc1145432233b9568dc55ea98fea9a739c1ba1dafa54a88ec87e",
      "s": "0x1f0ca2d0c1efd778dd3b41764b7461fb629f7acbcd9f68d61bcc1fa087898a99",
      "v": 28,
      "creates": null,
      "raw": "0xf86c09850ba43b74008252089432be343b94f860124dc4fee278fdcbd38c102d88880eb970f18e57a400801ca0ce900390e1e3cc1145432233b9568dc55ea98fea9a739c1ba1dafa54a88ec87ea01f0ca2d0c1efd778dd3b41764b7461fb629f7acbcd9f68d61bcc1fa087898a99",
      "networkId": 0,
      "chainId": 0
    }
  ]
}