{
  "hash": "0x6eb9b0336299add9c457b469f2208979e6bb0637b1d875125946a28e88c761b1",
  "parentHash": "0x9040e1913865faf167469bbf2b8b3475172533c09b706a7b1a4d9af8e622a2b1",
  "number": 103219,
  "timestamp": 1439849677,
  "nonce": "0x9e3ee58241a4443c",
  "difficulty": 4191070040568,
  "gasLimit": {
    "_hex": "0x2fefd8"
  },
  "gasUsed": {
    "_hex": "0x1bdbe"
  },
  "miner": "0xEcbbFE46500E669149DD031fcdbeb3ed9be638Fb",
  "extraData": "0x476574682f76312e302e312f6c696e75782f676f312e342e32",
  "transactions": [
    {
      "hash": "0x2fccaacd2ca4bf521e32bf9aa355ae446bba942f508b06349d8b120934c084c8",
      "blockHash": "0x6eb9b0336299add9c457b469f2208979e6bb0637b1d875125946a28e88c761b1",
      "blockNumber": 103219,
      "transactionIndex": 0,
      "confirmations": null,
      "from": "0x5b437365Ae3A9A2Ff97C68e6F90A7620188c7d19",
      "gasPrice": {
        "_hex": "0xd760c81c2"
      },
      "gasLimit": {
        "_hex": "0x249f0"
      },
      "to": "0xE28e72FCf78647ADCe1F1252F240bbfaebD63BcC",
      "value": {
        "_hex": "0x1c7310237d8d0000"
      },
      "nonce": 0,
      "data": "0x45466f3a",
      "r": "0x40bd052714981cd270f91d197ddcf1f3c7ac937696488d4cfb0ad2b907e0f786",
      "s": "0x476557f2e2cf7f04843e9d53b3a640e91df1a1b0e14f0bcf8737379fec4cd8fa",
      "v": 27,
      "creates": null,
      "raw": "0xf87180850d760c81c2830249f094e28e72fcf78647adce1f1252f240bbfaebd63bcc881c7310237d8d00008445466f3a1ba040bd052714981cd270f91d197ddcf1f3c7ac937696488d4cfb0ad2b907e0f786a0476557f2e2cf7f04843e9d53b3a640e91df1a1b0e14f0bcf8737379fec4cd8fa",
      "networkId": 0,
      "chainId": 0
    }
  ]
}