{
  "hash": "0x4ecfeae95e26e18282d5c067e0786d5d99132b0c74970d194be57c6cbb8b2365",
  "parentHash": "0xddb29a5562c2b4bc7df0be1ad6e5f57c5ec77fe353d37f662832d8ea9e8b96f9",
  "number": 108370,
  "timestamp": 1439939177,
  "nonce": "0xc9267c79c50c6e84",
  "difficulty": 4340487061197,
  "gasLimit": {
    "_hex": "0x2fefd8"
  },
  "gasUsed": {
    "_hex": "0xf618"
  },
  "miner": "0xe6A7a1d47ff21B6321162AEA7C6CB457D5476Bca",
  "extraData": "0x476574682f76312e302e312d38326566323666362f6c696e75782f676f312e34",
  "transactions": [
    {
      "hash": "0x4a7e7096c83e90c86c53e37ef569bbf2877b8beb03adf069e05324021d880ee6",
      "blockHash": "0x4ecfeae95e26e18282d5c067e0786d5d99132b0c74970d194be57c6cbb8b2365",
      "blockNumber": 108370,
      "transactionIndex": 0,
      "confirmations": null,
      "from": "0xc15fa6D616245a5c7B7D75A6dFDcA10C0250BD2B",
      "gasPrice": {
        "_hex": "0xd6e838f53"
      },
      "gasLimit": {
        "_hex": "0x15f90"
      },
      "to": "0xdeE4977F74E6Aef6D627191c9A45D2627e331150",
      "value": {
        "_hex": "0xde0b6b3a76400000"
      },
      "nonce": 13,
      "data": "0x",
      "r": "0x069508b7f9c8bad23d537b9855badc930aa260444fe3ca26a1641ee4617a40ee",
      "s": "0x01da75d874f92954da8df477a3d981126a2cc408ecb20cd6994a246c4f41d42d",
      "v": 28,
      "creates": null,
      "raw": "0xf86d0d850d6e838f5383015f9094dee4977f74e6aef6d627191c9a45d2627e33115088de0b6b3a76400000801ca0069508b7f9c8bad23d537b9855badc930aa260444fe3ca26a1641ee4617a40eea001da75d874f92954da8df477a3d981126a2cc408ecb20cd6994a246c4f41d42d",
      "networkId": 0,
      "chainId": 0
    },
    {
      "hash": "0x2ed6215fef9c861cb927e1f19f21ff6990c99a8b921225f70b561c96134315b2",
      "blockHash": "0x4ecfeae95e26e18282d5c067e0786d5d99132b0c74970d194be57c6cbb8b2365",
      "blockNumber": 108370,
      "transactionIndex": 1,
      "confirmations": null,
      "from": "0xFBb1b73C4f0BDa4f67dcA266ce6Ef42f520fBB98",
      "gasPrice": {
        "_hex": "0xccca80812"
      },
      "gasLimit": {
        "_hex": "0x5208"
      },
      "to": "0x683FEDdafc2A8542744a4587DE0C45626D7B8E68",
      "value": {
        "_hex": "0x6bac9c580a8400"
      },
      "nonce": 189,
      "data": "0x",
      "r": "0x2f2492b04bad56ef80162673e303a911376ac8257d8e48aaf12816ee43f15643",
      "s": "0x1429dcc432e7baec115ee8e187de13c2992d2679037361ab160f5a5b71d17e1b",
      "v": 27,
      "creates": null,
      "raw": "0xf86c81bd850ccca8081282520894683feddafc2a8542744a4587de0c45626d7b8e68876bac9c580a8400801ba02f2492b04bad56ef80162673e303a911376ac8257d8e48aaf12816ee43f15643a01429dcc432e7baec115ee8e187de13c2992d2679037361ab160f5a5b71d17e1b",
      "networkId": 0,
      "chainId": 0
    },
    {
      "hash": "0xbb01492cf274143fdb350963b4af47981bfcd9ec4049f4ee46f096d5ba1a2613",
      "blockHash": "0x4ecfeae95e26e18282d5c067e0786d5d99132b0c74970d194be57c6cbb8b2365",
      "blockNumber": 108370,
      "transactionIndex": 2,
      "confirmations": null,
      "from": "0xFBb1b73C4f0BDa4f67dcA266ce6Ef42f520fBB98",
      "gasPrice": {
        "_hex": "0xccca80812"
      },
      "gasLimit": {
        "_hex": "0x5208"
      },
      "to": "0xE6ea7feBb65f6Fb46dc42DEA2f873C67AADB1f72",
      "value": {
        "_hex": "0xf32814fffe4400"
      },
      "nonce": 190,
      "data": "0x",
      "r": "0x6c84f393024c8d7bf29bc4f2fb9de01e23b4c8a0f07539e56145fbb4570e92b7",
      "s": "0x2be96c496f4adbe4b1a416276f6fdeaac7054170e18febcb4b67f6341ce5722b",
      "v": 27,
      "creates": null,
      "raw": "0xf86c81be850ccca8081282520894e6ea7febb65f6fb46dc42dea2f873c67aadb1f7287f32814fffe4400801ba06c84f393024c8d7bf29bc4f2fb9de01e23b4c8a0f07539e56145fbb4570e92b7a02be96c496f4adbe4b1a416276f6fdeaac7054170e18febcb4b67f6341ce5722b",
      "networkId": 0,
      "chainId": 0
    }
  ]
}