{
  "hash": "0xd83e065398a6a390a7584f471f96b96cea0d4d0a1745de79584f83423845e24f",
  "parentHash": "0x877d776ce486e4df7b5f92cb69ad9c1f7286cbea341f47e5a1c7316462de69b4",
  "number": 105871,
  "timestamp": 1439894785,
  "nonce": "0x2a005d0d0a225e35",
  "difficulty": 4455607343971,
  "gasLimit": {
    "_hex": "0x2fefd8"
  },
  "gasUsed": {
    "_hex": "0x179ff"
  },
  "miner": "0x157c6f2431eB1a95797EE86F7d17b3c0FD47A247",
  "extraData": "0x476574682f76312e302e312f77696e646f77732f676f312e342e32",
  "transactions": [
    {
      "hash": "0x029a690ddbd010a2af764b967b2a5bf09642e71050260ad32492ddb318f61cbc",
      "blockHash": "0xd83e065398a6a390a7584f471f96b96cea0d4d0a1745de79584f83423845e24f",
      "blockNumber": 105871,
      "transactionIndex": 0,
      "confirmations": null,
      "from": "0x87C5B5874A18B4306DF8a752a6C8cc3E82daFc19",
      "gasPrice": {
        "_hex": "0x10b012a1b05"
      },
      "gasLimit": {
        "_hex": "0x493e0"
      },
      "to": "0xD79B4C6791784184e2755B2fC1659eaaB0f80456",
      "value": {
        "_hex": "0x219e84fb1b103f9e"
      },
      "nonce": 286,
      "data": "0x8d2161860000000000000000000000000000000000000000000000000000000000000007d3d96ceed0cfca4794c2a5a3d3aeefe69da0a2a669e66a5651f30b64831c3db0",
      "r": "0xbebafceb4f61acf332f846c27bca5e04403125ce1bf6e1f5e04f597624543859",
      "s": "0x1f28052723c5d87a17fa66e4eb5c469c4881fd8c1587d3ed08c34ed6d0475ce4",
      "v": 28,
      "creates": null,
      "raw": "0xf8b582011e86010b012a1b05830493e094d79b4c6791784184e2755b2fc1659eaab0f8045688219e84fb1b103f9eb8448d2161860000000000000000000000000000000000000000000000000000000000000007d3d96ceed0cfca4794c2a5a3d3aeefe69da0a2a669e66a5651f30b64831c3db01ca0bebafceb4f61acf332f846c27bca5e04403125ce1bf6e1f5e04f597624543859a01f28052723c5d87a17fa66e4eb5c469c4881fd8c1587d3ed08c34ed6d0475ce4",
      "networkId": 0,
      "chainId": 0
    }
  ]
}