{
  "hash": "0xbf44efd2a27beac4e4169dbd010389867e321a789cf4e2ccab7f2f67576a0329",
  "parentHash": "0xdacc3d940b8d775a5c40b9f101ad2a4a50e60d2cfb7dba50fc1806f2a9f64dc7",
  "number": 101485,
  "timestamp": 1439823660,
  "nonce": "0x62c5636f2b4186d4",
  "difficulty": 3858023365332,
  "gasLimit": {
    "_hex": "0x2fefd8"
  },
  "gasUsed": {
    "_hex": "0xa410"
  },
  "miner": "0xe6A7a1d47ff21B6321162AEA7C6CB457D5476Bca",
  "extraData": "0x476574682f76312e302e312d38326566323666362f6c696e75782f676f312e34",
  "transactions": [
    {
      "hash": "0x7e827f08e681ae95e4b7f5ae6d413c358f287b567e0c6081af556605b07fbf90",
      "blockHash": "0xbf44efd2a27beac4e4169dbd010389867e321a789cf4e2ccab7f2f67576a0329",
      "blockNumber": 101485,
      "transactionIndex": 0,
      "confirmations": null,
      "from": "0x32Be343B94f860124dC4fEe278FDCBD38C102D88",
      "gasPrice": {
        "_hex": "0xd338821b1"
      },
      "gasLimit": {
        "_hex": "0x5208"
      },
      "to": "0xA61A4A69dcB2D8C74BdeCd17AD5821Adc21E95ec",
      "value": {
        "_hex": "0xa688906bd8b00000"
      },
      "nonce": 1081,
      "data": "0x",
      "r": "0x3ab7bf4685fcd3c73b7a9269d7c69872ded509d2d1cc9653fd36af01d2885f27",
      "s": "0x6e5f586d3ad5987968c993eb1e78e369e0764fed5f3b3854e4399ee7d5fe61a8",
      "v": 27,
      "creates": null,
      "raw": "0xf86e820439850d338821b182520894a61a4a69dcb2d8c74bdecd17ad5821adc21e95ec88a688906bd8b00000801ba03ab7bf4685fcd3c73b7a9269d7c69872ded509d2d1cc9653fd36af01d2885f27a06e5f586d3ad5987968c993eb1e78e369e0764fed5f3b3854e4399ee7d5fe61a8",
      "networkId": 0,
      "chainId": 0
    },
    {
      "hash": "0x299ccff8084ca3d932fc10a179138434325b512f3deb71caf39194839a91435c",
      "blockHash": "0xbf44efd2a27beac4e4169dbd010389867e321a789cf4e2ccab7f2f67576a0329",
      "blockNumber": 101485,
      "transactionIndex": 1,
      "confirmations": null,
      "from": "0x233b4fC39b20bb5eCf29882D7F068544BCc5eB78",
      "gasPrice": {
        "_hex": "0xd338821b1"
      },
      "gasLimit": {
        "_hex": "0x5208"
      },
      "to": "0x32Be343B94f860124dC4fEe278FDCBD38C102D88",
      "value": {
        "_hex": "0x1613f00804ed92000"
      },
      "nonce": 3,
      "data": "0x",
      "r": "0x238276a841a433b0aed2cbe6db352b2f91f9cd6bfaabf4327190155f1e5fa4ed",
      "s": "0x059d73509096a0564ab47aaba103501c319cf1e1ac54c3a571ea707456f146cc",
      "v": 28,
      "creates": null,
      "raw": "0xf86d03850d338821b18252089432be343b94f860124dc4fee278fdcbd38c102d888901613f00804ed92000801ca0238276a841a433b0aed2cbe6db352b2f91f9cd6bfaabf4327190155f1e5fa4eda0059d73509096a0564ab47aaba103501c319cf1e1ac54c3a571ea707456f146cc",
      "networkId": 0,
      "chainId": 0
    }
  ]
}