{
  "hash": "0x2a81e38f3129cd704f18d0cba4371ae6b4f96595b7dc32497e42dc520f0af291",
  "parentHash": "0x68a637a3170f7ee43b538d7958feccea69289a38a62507578cf2b0739a9f9c34",
  "number": 116833,
  "timestamp": 1440098346,
  "nonce": "0x8ab4779432674fac",
  "difficulty": 4338228047894,
  "gasLimit": {
    "_hex": "0x2fefd8"
  },
  "gasUsed": {
    "_hex": "0x546c"
  },
  "miner": "0xe6A7a1d47ff21B6321162AEA7C6CB457D5476Bca",
  "extraData": "0xd783010002844765746887676f312e342e32856c696e7578",
  "transactions": [
    {
      "hash": "0x63ac66c1e4346c3deee6be67551ddd7486c0b84612afb158634d1ce67a64ba03",
      "blockHash": "0x2a81e38f3129cd704f18d0cba4371ae6b4f96595b7dc32497e42dc520f0af291",
      "blockNumber": 116833,
      "transactionIndex": 0,
      "confirmations": null,
      "from": "0x1C7Cb2FE6BF3E09cbcDC187aF38Fa8F5053a70b6",
      "gasPrice": {
        "_hex": "0x110c8f7d8de"
      },
      "gasLimit": {
        "_hex": "0xc350"
      },
      "to": "0x2910543Af39abA0Cd09dBb2D50200b3E800A63D2",
      "value": {
        "_hex": "0x1c75d6ae6e48140000"
      },
      "nonce": 1,
      "data": "0x454e573554514a4147",
      "r": "0x2d1cab04787b6f192bd5027e0d5a2fbb50b4793e9ea7f39182dd063053d0f2d6",
      "s": "0xda5b3741220e8075e4edfc9c5b71ad9e63d9ada5890e7f036d4af11a4da9398d",
      "v": 27,
      "creates": null,
      "raw": "0xf87701860110c8f7d8de82c350942910543af39aba0cd09dbb2d50200b3e800a63d2891c75d6ae6e4814000089454e573554514a41471ba02d1cab04787b6f192bd5027e0d5a2fbb50b4793e9ea7f39182dd063053d0f2d6a0da5b3741220e8075e4edfc9c5b71ad9e63d9ada5890e7f036d4af11a4da9398d",
      "networkId": 0,
      "chainId": 0
    }
  ]
}