{
  "hash": "0xac1a68556f2db1dde72269491c488d1e20235605707f4471cfa16723d495d18e",
  "parentHash": "0xb87071d4887772967c682458c30c3919a35cdb77e3b02b14b87728c85ec95554",
  "number": 113028,
  "timestamp": 1440016810,
  "nonce": "0xfe831ea5d3044c20",
  "difficulty": 4475782932641,
  "gasLimit": {
    "_hex": "0x2fefd8"
  },
  "gasUsed": {
    "_hex": "0x5208"
  },
  "miner": "0x007f7f58D3eb5b7510A301eCC749FC1fCDDBE14D",
  "extraData": "0x476574682f76312e302e312f77696e646f77732f676f312e342e32",
  "transactions": [
    {
      "hash": "0x7e1a642aa664fda620b8b7631c6e241e214ec231889042004eb3d93d95e256cf",
      "blockHash": "0xac1a68556f2db1dde72269491c488d1e20235605707f4471cfa16723d495d18e",
      "blockNumber": 113028,
      "transactionIndex": 0,
      "confirmations": null,
      "from": "0xBeb3B1d443791e4B2207a9866800E02DAcF19c02",
      "gasPrice": {
        "_hex": "0xd8364fc25"
      },
      "gasLimit": {
        "_hex": "0x15f90"
      },
      "to": "0xC876c021eCE519A8CB7D3d1b8EEa2D1cEE9929Ba",
      "value": {
        "_hex": "0xde0b6b3a7640000"
      },
      "nonce": 18,
      "data": "0x",
      "r": "0x2c5392d3527d22e1ca420d4be769cfefa3f6fcd7e329cff4e3a3bee7cb1d5bf6",
      "s": "0x6a2ee320526b9ad74b15242a1f46596319c381efa07421fcb927f1f3afc6909e",
      "v": 27,
      "creates": null,
      "raw": "0xf86d12850d8364fc2583015f9094c876c021ece519a8cb7d3d1b8eea2d1cee9929ba880de0b6b3a7640000801ba02c5392d3527d22e1ca420d4be769cfefa3f6fcd7e329cff4e3a3bee7cb1d5bf6a06a2ee320526b9ad74b15242a1f46596319c381efa07421fcb927f1f3afc6909e",
      "networkId": 0,
      "chainId": 0
    }
  ]
}