{
  "hash": "0x470bf86caef086eaaa2d9b9bf5ba5763ea8789b5dc2a17961a80c58150aeba4c",
  "parentHash": "0x7bb0d4d4a64dfc044c73045d7e8a283dd93523a973dbd797cc20837ba7516fa6",
  "number": 87492,
  "timestamp": 1439593144,
  "nonce": "0x730660baa5ed5487",
  "difficulty": 3137188310745,
  "gasLimit": {
    "_hex": "0x2fefd8"
  },
  "gasUsed": {
    "_hex": "0x5208"
  },
  "miner": "0xE706a05a40761915bC70310f7a94e6B2B596dbf8",
  "extraData": "0x476574682f76312e302e312d38326566323666362f6c696e75782f676f312e34",
  "transactions": [
    {
      "hash": "0x6dd75ac72642dbbf1e45bf9a3157c298dec32c37760a60748ce7773aa8734f21",
      "blockHash": "0x470bf86caef086eaaa2d9b9bf5ba5763ea8789b5dc2a17961a80c58150aeba4c",
      "blockNumber": 87492,
      "transactionIndex": 0,
      "confirmations": null,
      "from": "0x32Be343B94f860124dC4fEe278FDCBD38C102D88",
      "gasPrice": {
        "_hex": "0xd1f55b7a8"
      },
      "gasLimit": {
        "_hex": "0x5208"
      },
      "to": "0xE44722E814a70BF7009543535e6bCf0DF77545c2",
      "value": {
        "_hex": "0x1b95e0d1471fe000"
      },
      "nonce": 788,
      "data": "0x",
      "r": "0x12e8f3b7ced0166d7009e7f177ad48cbf103eb2fa61cf403c572e7af3c463561",
      "s": "0x5727cf6826dffd0f3c685ed6e1cc5131ab971d22f62ada813675f1f574db7fec",
      "v": 28,
      "creates": null,
      "raw": "0xf86e820314850d1f55b7a882520894e44722e814a70bf7009543535e6bcf0df77545c2881b95e0d1471fe000801ca012e8f3b7ced0166d7009e7f177ad48cbf103eb2fa61cf403c572e7af3c463561a05727cf6826dffd0f3c685ed6e1cc5131ab971d22f62ada813675f1f574db7fec",
      "networkId": 0,
      "chainId": 0
    }
  ]
}