{
  "hash": "0x0d8b09a73f3a7bc244979879c2885ee3755883c5f157e2984c03f30b6744d128",
  "parentHash": "0x0123c2b83ed742a6503ed790ea1832a0ffbac9d93fd8ec8c52124760cbf1ff73",
  "number": 121835,
  "timestamp": 1440183398,
  "nonce": "0x5f277aba96f0772a",
  "difficulty": 4490777946171,
  "gasLimit": {
    "_hex": "0x2fefd8"
  },
  "gasUsed": {
    "_hex": "0xa410"
  },
  "miner": "0x53824166ea5271d3425e3194c848A90CA4e97eB2",
  "extraData": "0x",
  "transactions": [
    {
      "hash": "0x9fbfbbe7129cc9cae1d911cdbf282caca39dbf3341f7cd130140f90350fe3f9d",
      "blockHash": "0x0d8b09a73f3a7bc244979879c2885ee3755883c5f157e2984c03f30b6744d128",
      "blockNumber": 121835,
      "transactionIndex": 0,
      "confirmations": null,
      "from": "0x557C2806B6ceA65a66F415bb2Ed1ce897B340745",
      "gasPrice": {
        "_hex": "0xd6cb6a374"
      },
      "gasLimit": {
        "_hex": "0x5208"
      },
      "to": "0x32Be343B94f860124dC4fEe278FDCBD38C102D88",
      "value": {
        "_hex": "0x8ac2d5c635df7000"
      },
      "nonce": 17,
      "data": "0x",
      "r": "0x22650f56aff458d22b929722a795684432c83e6941803586d040773ae331318d",
      "s": "0x1d9d6d38a397533ec79c1fd5c4b0604706823815d49db5b3638d4b7c995f14fc",
      "v": 28,
      "creates": null,
      "raw": "0xf86c11850d6cb6a3748252089432be343b94f860124dc4fee278fdcbd38c102d88888ac2d5c635df7000801ca022650f56aff458d22b929722a795684432c83e6941803586d040773ae331318da01d9d6d38a397533ec79c1fd5c4b0604706823815d49db5b3638d4b7c995f14fc",
      "networkId": 0,
      "chainId": 0
    },
    {
      "hash": "0xd7e84f074bb479531c203bcc8535e45d5064698d830c705e357b7c1827d67c97",
      "blockHash": "0x0d8b09a73f3a7bc244979879c2885ee3755883c5f157e2984c03f30b6744d128",
      "blockNumber": 121835,
      "transactionIndex": 1,
      "confirmations": null,
      "from": "0x9FA0960220d2d51D54f755501E391Da140c2EF63",
      "gasPrice": {
        "_hex": "0xd6cb6a374"
      },
      "gasLimit": {
        "_hex": "0x5208"
      },
      "to": "0x32Be343B94f860124dC4fEe278FDCBD38C102D88",
      "value": {
        "_hex": "0x7cbe97d0f5262c00"
      },
      "nonce": 12,
      "data": "0x",
      "r": "0x5bac574e66a12641077b85dda27a67e8985e5abe07aacdcbb48b39df7ec7bf7e",
      "s": "0x67dcd7bfbe5dfa8df3d8301201a66716e1067addcb25986f70c2c35ed7204bd2",
      "v": 28,
      "creates": null,
      "raw": "0xf86c0c850d6cb6a3748252089432be343b94f860124dc4fee278fdcbd38c102d88887cbe97d0f5262c00801ca05bac574e66a12641077b85dda27a67e8985e5abe07aacdcbb48b39df7ec7bf7ea067dcd7bfbe5dfa8df3d8301201a66716e1067addcb25986f70c2c35ed7204bd2",
      "networkId": 0,
      "chainId": 0
    }
  ]
}