{
  "hash": "0xb6bb6f2a051664bb15cdf55b17a8decfec911fa73540f40424b66d2a2b9ec659",
  "parentHash": "0xbbf2594d1087d793601cd515290b1a26b9acc046e23b22d4c55ee914f4879761",
  "number": 47237,
  "timestamp": 1438936629,
  "nonce": "0x8e4ff10430539813",
  "difficulty": 1462371246875,
  "gasLimit": {
    "_hex": "0xa72b"
  },
  "gasUsed": {
    "_hex": "0x5208"
  },
  "miner": "0xf927a40C8B7F6E07c5af7FA2155B4864a4112B13",
  "extraData": "0x476574682f76312e302e312f6c696e75782f676f312e342e32",
  "transactions": [
    {
      "hash": "0x15f09db1c3aa4c858ac119db83be1ff3452d5682cba683d71a89700da9f0fbcf",
      "blockHash": "0xb6bb6f2a051664bb15cdf55b17a8decfec911fa73540f40424b66d2a2b9ec659",
      "blockNumber": 47237,
      "transactionIndex": 0,
      "confirmations": null,
      "from": "0x24339341F29d2aaD7d3c591c0f9931e7D4bFEd6e",
      "gasPrice": {
        "_hex": "0x45d964b800"
      },
      "gasLimit": {
        "_hex": "0x5208"
      },
      "to": "0x56011d6b57A70c27F7cc294905A5DdA65BfBd154",
      "value": {
        "_hex": "0xac9ae05a71ebc0000"
      },
      "nonce": 2,
      "data": "0x",
      "r": "0x538400c6a07dc1806bc96a02f4322100c39d7d45362a44eb3f2264ce57318b90",
      "s": "0x6cf802ffe0102fa9d20f14b16d9d358363c9b7804db77321abb2cd640752e57c",
      "v": 28,
      "creates": null,
      "raw": "0xf86d028545d964b8008252089456011d6b57a70c27f7cc294905a5dda65bfbd154890ac9ae05a71ebc0000801ca0538400c6a07dc1806bc96a02f4322100c39d7d45362a44eb3f2264ce57318b90a06cf802ffe0102fa9d20f14b16d9d358363c9b7804db77321abb2cd640752e57c",
      "networkId": 0,
      "chainId": 0
    }
  ]
}