{
  "hash": "0xbab94572bb0602aaf285cca48f844c77c86f1612abe02708b7e6e5636f680700",
  "parentHash": "0x8809ef4055034c10a9b7830980adcec07e17bfae241b7459e7e70da854873d26",
  "number": 88032,
  "timestamp": 1439601471,
  "nonce": "0x421f7a4a690bd41f",
  "difficulty": 3201983294756,
  "gasLimit": {
    "_hex": "0x2fefd8"
  },
  "gasUsed": {
    "_hex": "0x55d8"
  },
  "miner": "0xfC25864D8326b4CB335C6942218e5F4Ee8D1E1EF",
  "extraData": "0x476574682f76312e302e312f77696e646f77732f676f312e342e32",
  "transactions": [
    {
      "hash": "0x0fd8e01a8060851e2a56a5031ded7aad0579435585819b7726c87b0e5b13aace",
      "blockHash": "0xbab94572bb0602aaf285cca48f844c77c86f1612abe02708b7e6e5636f680700",
      "blockNumber": 88032,
      "transactionIndex": 0,
      "confirmations": null,
      "from": "0xD3a33636677fFF0BE34EC503b9E848b296E0972A",
      "gasPrice": {
        "_hex": "0x1176df4ff07"
      },
      "gasLimit": {
        "_hex": "0x15f90"
      },
      "to": "0x0000000000000000000000000000000000000000",
      "value": {
        "_hex": "0xde0b6b3a7640000"
      },
      "nonce": 3,
      "data": "0xb214faa53445534e51425851330000000000000000000000000000000000000000000000",
      "r": "0x13e2883f67f8da9121785ec64bd0ee85551b36d6711fb5661650555b34db46bc",
      "s": "0x4c5ff09663b3fb311fe85cd5377e14db6648fb8dae7d5b58f2b611fbba4c3894",
      "v": 28,
      "creates": null,
      "raw": "0xf892038601176df4ff0783015f90940000000000000000000000000000000000000000880de0b6b3a7640000a4b214faa53445534e514258513300000000000000000000000000000000000000000000001ca013e2883f67f8da9121785ec64bd0ee85551b36d6711fb5661650555b34db46bca04c5ff09663b3fb311fe85cd5377e14db6648fb8dae7d5b58f2b611fbba4c3894",
      "networkId": 0,
      "chainId": 0
    }
  ]
}