{
  "hash": "0x358d8263ae0967a321f5df24ec33294eb924f1efce4057a164335e1ade326964",
  "parentHash": "0xaafaf1bc739623477c59559be176465dafa9ddd4457a488156cf8d4d1cd2cc05",
  "number": 91741,
  "timestamp": 1439660750,
  "nonce": "0xb0e6e2a39f490153",
  "difficulty": 3472487602093,
  "gasLimit": {
    "_hex": "0x2fefd8"
  },
  "gasUsed": {
    "_hex": "0x5208"
  },
  "miner": "0xE87470b43FA5904a32866396B2f798D898c13978",
  "extraData": "0x",
  "transactions": [
    {
      "hash": "0x90b745b8b333a127ce0783268aa0ebeac1feacbdf8801a0c62f8c1b4ca321846",
      "blockHash": "0x358d8263ae0967a321f5df24ec33294eb924f1efce4057a164335e1ade326964",
      "blockNumber": 91741,
      "transactionIndex": 0,
      "confirmations": null,
      "from": "0x2910543Af39abA0Cd09dBb2D50200b3E800A63D2",
      "gasPrice": {
        "_hex": "0xcb31e349a"
      },
      "gasLimit": {
        "_hex": "0x5208"
      },
      "to": "0x186475e042f36775666b8722CC09640fC91f093f",
      "value": {
        "_hex": "0x11c37937e08000"
      },
      "nonce": 815,
      "data": "0x",
      "r": "0x70c82a411fea1729aeb76f9a8b9e2724fdf42f064c582bc75ee377e12ebe41f8",
      "s": "0x60360fc340d09a5402cb83d4eb13b6dd91f412f1d09b442876654a6d941ed9ae",
      "v": 28,
      "creates": null,
      "raw": "0xf86d82032f850cb31e349a82520894186475e042f36775666b8722cc09640fc91f093f8711c37937e08000801ca070c82a411fea1729aeb76f9a8b9e2724fdf42f064c582bc75ee377e12ebe41f8a060360fc340d09a5402cb83d4eb13b6dd91f412f1d09b442876654a6d941ed9ae",
      "networkId": 0,
      "chainId": 0
    }
  ]
}