{
  "hash": "0x9e7231ce9991a82fa45bb423257b9fb1e40aa7ac64c5d49be767475043c3ce6a",
  "parentHash": "0xb4698c5f610cc786754180551d5606bbf7d74cf56a590ffba90ebaa95c413593",
  "number": 97812,
  "timestamp": 1439762257,
  "nonce": "0x84797047232c6c59",
  "difficulty": 3839037685244,
  "gasLimit": {
    "_hex": "0x2fefd5"
  },
  "gasUsed": {
    "_hex": "0x5208"
  },
  "miner": "0x87898CE53471043FcCa0a2aF4E1dC6d8B3fCf607",
  "extraData": "0x476574682f5369626572696131392f76312e302e312d39393231366634612f6c",
  "transactions": [
    {
      "hash": "0xf50e33d851f9f7a30fa701147c8dbaa55ffb1d8868caad7ae85b68383a3f62d8",
      "blockHash": "0x9e7231ce9991a82fa45bb423257b9fb1e40aa7ac64c5d49be767475043c3ce6a",
      "blockNumber": 97812,
      "transactionIndex": 0,
      "confirmations": null,
      "from": "0x0D4EcC7d750180EBf4A9Df728B6669B5Bceb5E40",
      "gasPrice": {
        "_hex": "0xd8be95769"
      },
      "gasLimit": {
        "_hex": "0x5208"
      },
      "to": "0x32Be343B94f860124dC4fEe278FDCBD38C102D88",
      "value": {
        "_hex": "0x455f3a4521dfa800"
      },
      "nonce": 45,
      "data": "0x",
      "r": "0x474bcf09a989772de76d8ffb2c4c2c6697fd07df1c2422f5531ca75729aa236a",
      "s": "0x19b6de288e578d9fa82e2bbea7ce0288f2adea59b85a826ec6c9cb8aece35fcf",
      "v": 28,
      "creates": null,
      "raw": "0xf86c2d850d8be957698252089432be343b94f860124dc4fee278fdcbd38c102d8888455f3a4521dfa800801ca0474bcf09a989772de76d8ffb2c4c2c6697fd07df1c2422f5531ca75729aa236aa019b6de288e578d9fa82e2bbea7ce0288f2adea59b85a826ec6c9cb8aece35fcf",
      "networkId": 0,
      "chainId": 0
    }
  ]
}