{
  "hash": "0x8d59e03718f557b4ae4c0760b12e445fa170c9a702d8c46ee5ca6948e36caea9",
  "parentHash": "0xe196508a85c12b812622a92febc1ae0c0aa23eecad809e59d2334b5030ba6795",
  "number": 110462,
  "timestamp": 1439974204,
  "nonce": "0x7b9f816443b4a9f5",
  "difficulty": 4381989337005,
  "gasLimit": {
    "_hex": "0x2fefd8"
  },
  "gasUsed": {
    "_hex": "0xa410"
  },
  "miner": "0xe6A7a1d47ff21B6321162AEA7C6CB457D5476Bca",
  "extraData": "0x476574682f76312e302e312d38326566323666362f6c696e75782f676f312e34",
  "transactions": [
    {
      "hash": "0x181b7428dc9972ad7d22f73e30146fb0ecbd8212a9b4ac0adce351719472c56f",
      "blockHash": "0x8d59e03718f557b4ae4c0760b12e445fa170c9a702d8c46ee5ca6948e36caea9",
      "blockNumber": 110462,
      "transactionIndex": 0,
      "confirmations": null,
      "from": "0xaA35779Ef4dfBEd0B3D6F46F5f11cb86261B17A5",
      "gasPrice": {
        "_hex": "0xd7d40ace3"
      },
      "gasLimit": {
        "_hex": "0x61a8"
      },
      "to": "0x30beD8049947963394D93412326225E4e3123601",
      "value": {
        "_hex": "0x15564c1a9e29c0000"
      },
      "nonce": 16,
      "data": "0x",
      "r": "0x3fefd927e1053692535cc8c893ce71a5bdf0b38d4d4d1c25e9e764ca6edb02cd",
      "s": "0x63b75dcc2247d6374133bd3b1fcf02c03b1cfa8b858c2f0c7d702c84dd3ee7f1",
      "v": 27,
      "creates": null,
      "raw": "0xf86d10850d7d40ace38261a89430bed8049947963394d93412326225e4e312360189015564c1a9e29c0000801ba03fefd927e1053692535cc8c893ce71a5bdf0b38d4d4d1c25e9e764ca6edb02cda063b75dcc2247d6374133bd3b1fcf02c03b1cfa8b858c2f0c7d702c84dd3ee7f1",
      "networkId": 0,
      "chainId": 0
    },
    {
      "hash": "0xeb672a9888a51776b784ccd6c33d398691e0dfdf48e17eaac29017372a2d3103",
      "blockHash": "0x8d59e03718f557b4ae4c0760b12e445fa170c9a702d8c46ee5ca6948e36caea9",
      "blockNumber": 110462,
      "transactionIndex": 1,
      "confirmations": null,
      "from": "0xBB33a4b72d92FA335a3b591Ce7eE217f7a7338C1",
      "gasPrice": {
        "_hex": "0xd79410bc5"
      },
      "gasLimit": {
        "_hex": "0x5208"
      },
      "to": "0x32Be343B94f860124dC4fEe278FDCBD38C102D88",
      "value": {
        "_hex": "0xde0719f705afd000"
      },
      "nonce": 10,
      "data": "0x",
      "r": "0x2363e5394d07050f915f6d6cf407203ed39854f346ad383a3434c64067b4bfda",
      "s": "0x434c2b86f78c3e32697c03428bfe9c632b3c711b149ffacdba97a8265a4d09d8",
      "v": 28,
      "creates": null,
      "raw": "0xf86c0a850d79410bc58252089432be343b94f860124dc4fee278fdcbd38c102d8888de0719f705afd000801ca02363e5394d07050f915f6d6cf407203ed39854f346ad383a3434c64067b4bfdaa0434c2b86f78c3e32697c03428bfe9c632b3c711b149ffacdba97a8265a4d09d8",
      "networkId": 0,
      "chainId": 0
    }
  ]
}