{
  "hash": "0x10cf429f89669beb38e7834d75524c6544a13b3301c77f92a251a1bfe809b7f5",
  "parentHash": "0xc406277e1de5147f3ff95babe3b7a52d2c6e1ee907feafb61b2e520d9e41db86",
  "number": 105326,
  "timestamp": 1439885589,
  "nonce": "0x4c0001bc5f5293f6",
  "difficulty": 4367578849142,
  "gasLimit": {
    "_hex": "0x2fefd8"
  },
  "gasUsed": {
    "_hex": "0xa410"
  },
  "miner": "0xe6A7a1d47ff21B6321162AEA7C6CB457D5476Bca",
  "extraData": "0x476574682f76312e302e312d38326566323666362f6c696e75782f676f312e34",
  "transactions": [
    {
      "hash": "0xb319207e161e07c1781c5d303e2eda08a9ae8e64ca20de96ea31d2e57f93b18e",
      "blockHash": "0x10cf429f89669beb38e7834d75524c6544a13b3301c77f92a251a1bfe809b7f5",
      "blockNumber": 105326,
      "transactionIndex": 0,
      "confirmations": null,
      "from": "0xe6A7a1d47ff21B6321162AEA7C6CB457D5476Bca",
      "gasPrice": {
        "_hex": "0xdc46f7d05"
      },
      "gasLimit": {
        "_hex": "0x55f0"
      },
      "to": "0xBf7d5E6CD66bc79d7759B640cbe188bCFA030cc4",
      "value": {
        "_hex": "0x5d011e9978244468"
      },
      "nonce": 3805,
      "data": "0x",
      "r": "0x5e090976f77baae8241723b3bf3dea159794bc7961c6402b57d7347293f976d9",
      "s": "0x7a117d8b66627b2dcd9b90ed12e3802a2e2744e1116160a90a3c68617b30238c",
      "v": 28,
      "creates": null,
      "raw": "0xf86e820edd850dc46f7d058255f094bf7d5e6cd66bc79d7759b640cbe188bcfa030cc4885d011e9978244468801ca05e090976f77baae8241723b3bf3dea159794bc7961c6402b57d7347293f976d9a07a117d8b66627b2dcd9b90ed12e3802a2e2744e1116160a90a3c68617b30238c",
      "networkId": 0,
      "chainId": 0
    },
    {
      "hash": "0x20530cde932294dc0efac6bc3862b0cd5eef53d364b61710b804f14cf691e17d",
      "blockHash": "0x10cf429f89669beb38e7834d75524c6544a13b3301c77f92a251a1bfe809b7f5",
      "blockNumber": 105326,
      "transactionIndex": 1,
      "confirmations": null,
      "from": "0xF18446BCC37B179f7ccc3De19387269cE04023F1",
      "gasPrice": {
        "_hex": "0xd0f5a6d10"
      },
      "gasLimit": {
        "_hex": "0x5208"
      },
      "to": "0x32Be343B94f860124dC4fEe278FDCBD38C102D88",
      "value": {
        "_hex": "0x26572fda0e09fc00"
      },
      "nonce": 6,
      "data": "0x",
      "r": "0x62bf007f28560e4e6c35b9759825ee7dfddd513423604e7eedd8a6d10ead1c36",
      "s": "0x11997cbf295ab82fc504466e7e5dfd206d3d78658dd47ee798456d7f6568512e",
      "v": 27,
      "creates": null,
      "raw": "0xf86c06850d0f5a6d108252089432be343b94f860124dc4fee278fdcbd38c102d888826572fda0e09fc00801ba062bf007f28560e4e6c35b9759825ee7dfddd513423604e7eedd8a6d10ead1c36a011997cbf295ab82fc504466e7e5dfd206d3d78658dd47ee798456d7f6568512e",
      "networkId": 0,
      "chainId": 0
    }
  ]
}