{
  "hash": "0x205ef82fc6dff7127f3e9db2f52202d09716b134c1203ce3e03ac5a85c32aa35",
  "parentHash": "0x8137814a726655e957df5eba3516a5a681acf6f17843681c826a670a3cc04729",
  "number": 82112,
  "timestamp": 1439513711,
  "nonce": "0xd7d2a2062be9da6e",
  "difficulty": 2392847084959,
  "gasLimit": {
    "_hex": "0x2fefd8"
  },
  "gasUsed": {
    "_hex": "0x5208"
  },
  "miner": "0x53824166ea5271d3425e3194c848A90CA4e97eB2",
  "extraData": "0x476574682f76312e302e312f6c696e75782f676f312e342e32",
  "transactions": [
    {
      "hash": "0x0af2edc3636cb52f495284e5880e3fabc251aa2462a0c2e1d30f0b25c4440de8",
      "blockHash": "0x205ef82fc6dff7127f3e9db2f52202d09716b134c1203ce3e03ac5a85c32aa35",
      "blockNumber": 82112,
      "transactionIndex": 0,
      "confirmations": null,
      "from": "0x141d08EDaDA2C1bA62A2940184Ba03d62d3fFF22",
      "gasPrice": {
        "_hex": "0xba43b7400"
      },
      "gasLimit": {
        "_hex": "0x5208"
      },
      "to": "0xC47Aaa860008be6f65B58c6C6E02a84e666EfE31",
      "value": {
        "_hex": "0x8ab1a49324f49dc0"
      },
      "nonce": 0,
      "data": "0x",
      "r": "0x0fc130dc1c9b43a3cf85b2bbcb5b8e644b3016b36639d7539a1854ba3add697b",
      "s": "0x44fdf4c121b5aed61ab32abb2e0a5f683b4469ed08c50e7683bc975ff73ca257",
      "v": 27,
      "creates": null,
      "raw": "0xf86c80850ba43b740082520894c47aaa860008be6f65b58c6c6e02a84e666efe31888ab1a49324f49dc0801ba00fc130dc1c9b43a3cf85b2bbcb5b8e644b3016b36639d7539a1854ba3add697ba044fdf4c121b5aed61ab32abb2e0a5f683b4469ed08c50e7683bc975ff73ca257",
      "networkId": 0,
      "chainId": 0
    }
  ]
}