{
  "hash": "0x02b0eaeab90e164d3696316c10259d1e3853829aa31b2e8282fcd4be34091372",
  "parentHash": "0x0ce9211e1eeb50308067ef6726e53eaa5780f2a87a30b07d6b260606a29835ad",
  "number": 94929,
  "timestamp": 1439716175,
  "nonce": "0x7bfbf8c2fe476592",
  "difficulty": 3532724239188,
  "gasLimit": {
    "_hex": "0x2fefd8"
  },
  "gasUsed": {
    "_hex": "0x5208"
  },
  "miner": "0x89972aA7C0b19D1aE9cd89386160c3f28f7bB590",
  "extraData": "0xd983010001844765746887676f312e342e328777696e646f7773",
  "transactions": [
    {
      "hash": "0x2c1950ac4d0ee60cb546a0c834d66cb2bf768a80d4f3e8c8f7fe1ec82fd7c45d",
      "blockHash": "0x02b0eaeab90e164d3696316c10259d1e3853829aa31b2e8282fcd4be34091372",
      "blockNumber": 94929,
      "transactionIndex": 0,
      "confirmations": null,
      "from": "0x32Be343B94f860124dC4fEe278FDCBD38C102D88",
      "gasPrice": {
        "_hex": "0xcef587caa"
      },
      "gasLimit": {
        "_hex": "0x5208"
      },
      "to": "0xD58c3AfB06F28bE4dc3e3bc8573eDe1D73773458",
      "value": {
        "_hex": "0xad78ebc5ac6200000"
      },
      "nonce": 966,
      "data": "0x",
      "r": "0x84f72246ddcaea9e42b0e700088b75d03b2dac4abe9145f6e81d3e762eff1aeb",
      "s": "0x0aa00e13feee86f15f2230945edcc539869832cd61bdb50feb7f34f406e77b2b",
      "v": 27,
      "creates": null,
      "raw": "0xf86f8203c6850cef587caa82520894d58c3afb06f28be4dc3e3bc8573ede1d73773458890ad78ebc5ac6200000801ba084f72246ddcaea9e42b0e700088b75d03b2dac4abe9145f6e81d3e762eff1aeba00aa00e13feee86f15f2230945edcc539869832cd61bdb50feb7f34f406e77b2b",
      "networkId": 0,
      "chainId": 0
    }
  ]
}