{
  "hash": "0x40e57ed40b35f5eac0da3e358bec6d3359f1d276c656cd949acb38179f60135c",
  "parentHash": "0xc3403b2d84d3e47d53eb67bb4b6684070091e57ad5d07c8b5eb052576304c7aa",
  "number": 63667,
  "timestamp": 1439208163,
  "nonce": "0xa76db7342737ffd2",
  "difficulty": 1841393357243,
  "gasLimit": {
    "_hex": "0x2fefd8"
  },
  "gasUsed": {
    "_hex": "0xa410"
  },
  "miner": "0xA21Ba94e45f0E168dA824fC67aC9cb5Cb577a8aF",
  "extraData": "0x",
  "transactions": [
    {
      "hash": "0x200980ac290a849351c407d7e39fd2c3e94b3a1242614259ee72bcd536fbef60",
      "blockHash": "0x40e57ed40b35f5eac0da3e358bec6d3359f1d276c656cd949acb38179f60135c",
      "blockNumber": 63667,
      "transactionIndex": 0,
      "confirmations": null,
      "from": "0xBFdD9820a04283b289957956353b5F3C1F665EcF",
      "gasPrice": {
        "_hex": "0xd9ae3a7f5"
      },
      "gasLimit": {
        "_hex": "0x5208"
      },
      "to": "0x32Be343B94f860124dC4fEe278FDCBD38C102D88",
      "value": {
        "_hex": "0xd026624ee56b4800"
      },
      "nonce": 14,
      "data": "0x",
      "r": "0x2bcdc8b860c9aacb016172641c050166ab2bd7636582f94fb1b4ccee9ce0d83e",
      "s": "0x2284efff7846dfa09007ee41887d0c99eaef3b598e15c1d7e67096a9d0c384d5",
      "v": 28,
      "creates": null,
      "raw": "0xf86c0e850d9ae3a7f58252089432be343b94f860124dc4fee278fdcbd38c102d8888d026624ee56b4800801ca02bcdc8b860c9aacb016172641c050166ab2bd7636582f94fb1b4ccee9ce0d83ea02284efff7846dfa09007ee41887d0c99eaef3b598e15c1d7e67096a9d0c384d5",
      "networkId": 0,
      "chainId": 0
    },
    {
      "hash": "0x416e21d5034cdd6e2bc4788b77f122ad04571daaa57115e06d86536a0fbf591e",
      "blockHash": "0x40e57ed40b35f5eac0da3e358bec6d3359f1d276c656cd949acb38179f60135c",
      "blockNumber": 63667,
      "transactionIndex": 1,
      "confirmations": null,
      "from": "0x79d5794171E11dd5C2f0e26E1C187319db2FE6f7",
      "gasPrice": {
        "_hex": "0xd9ae3a7f5"
      },
      "gasLimit": {
        "_hex": "0x5208"
      },
      "to": "0x32Be343B94f860124dC4fEe278FDCBD38C102D88",
      "value": {
        "_hex": "0x4563966b8e08f000"
      },
      "nonce": 0,
      "data": "0x",
      "r": "0x041f4063cb8d2d157b9beb8b5c2adcd09d7b713adbad8dc53b1db44641ade606",
      "s": "0x5b6d5e20d254ecb0896154301e1439b6353c77e6e4f508ce558f35811311fc41",
      "v": 27,
      "creates": null,
      "raw": "0xf86c80850d9ae3a7f58252089432be343b94f860124dc4fee278fdcbd38c102d88884563966b8e08f000801ba0041f4063cb8d2d157b9beb8b5c2adcd09d7b713adbad8dc53b1db44641ade606a05b6d5e20d254ecb0896154301e1439b6353c77e6e4f508ce558f35811311fc41",
      "networkId": 0,
      "chainId": 0
    }
  ]
}