{
  "hash": "0xbeb4e845db26a54a0d2c6c7fec180c8e7c5a43e57e0a3b0812dd0a8a9ca21d9b",
  "parentHash": "0x8a21f67e9414377efc748267e61ea25638224e8dba6ce06ad87169604309c780",
  "number": 103928,
  "timestamp": 1439861118,
  "nonce": "0xfafd1343aa10ee36",
  "difficulty": 4271284201546,
  "gasLimit": {
    "_hex": "0x2fefd8"
  },
  "gasUsed": {
    "_hex": "0xf618"
  },
  "miner": "0x9746c7e1ef2bd21FF3997fa467593a89cb852BD0",
  "extraData": "0x476574682f76312e302e312f77696e646f77732f676f312e342e32",
  "transactions": [
    {
      "hash": "0x1827b235737f21fd5c4700375d91937782cd87f91c967fcd2901237785979efa",
      "blockHash": "0xbeb4e845db26a54a0d2c6c7fec180c8e7c5a43e57e0a3b0812dd0a8a9ca21d9b",
      "blockNumber": 103928,
      "transactionIndex": 0,
      "confirmations": null,
      "from": "0xC6Bf5B6558f2eE21F2E43d9fF9B5408A0Cb89413",
      "gasPrice": {
        "_hex": "0xd38673e7e"
      },
      "gasLimit": {
        "_hex": "0x15f90"
      },
      "to": "0x1D3ffA437e5bce40fCC134f4E0ac62841E4A9E81",
      "value": {
        "_hex": "0x27147114878000"
      },
      "nonce": 16,
      "data": "0x",
      "r": "0xe2a2bea2ec7cfb0ed888493bbc2324a92e194aaa0e8f9e602f451fb6eea1c6e5",
      "s": "0x11a6dbc62a117d14d52ba10b6d9524d0f3b53b0bbf17dbaf8508c70ee02f3657",
      "v": 27,
      "creates": null,
      "raw": "0xf86c10850d38673e7e83015f90941d3ffa437e5bce40fcc134f4e0ac62841e4a9e818727147114878000801ba0e2a2bea2ec7cfb0ed888493bbc2324a92e194aaa0e8f9e602f451fb6eea1c6e5a011a6dbc62a117d14d52ba10b6d9524d0f3b53b0bbf17dbaf8508c70ee02f3657",
      "networkId": 0,
      "chainId": 0
    },
    {
      "hash": "0x57b87574675b5d7ca45a0db9b3f38cf816ebaa1b79a0b877cfbb53106a7a3c61",
      "blockHash": "0xbeb4e845db26a54a0d2c6c7fec180c8e7c5a43e57e0a3b0812dd0a8a9ca21d9b",
      "blockNumber": 103928,
      "transactionIndex": 1,
      "confirmations": null,
      "from": "0xC6Bf5B6558f2eE21F2E43d9fF9B5408A0Cb89413",
      "gasPrice": {
        "_hex": "0xd38673e7e"
      },
      "gasLimit": {
        "_hex": "0x15f90"
      },
      "to": "0x1D3ffA437e5bce40fCC134f4E0ac62841E4A9E81",
      "value": {
        "_hex": "0x214e8348c4f0000"
      },
      "nonce": 17,
      "data": "0x",
      "r": "0xee4f828668b6c90eb4d0fed829011abf4a0c8908d4685a928794007042816c5b",
      "s": "0x5cf356b2d55ed979c0f7677f99ae43402a87c02b85581dc09f8b242a30e47085",
      "v": 28,
      "creates": null,
      "raw": "0xf86d11850d38673e7e83015f90941d3ffa437e5bce40fcc134f4e0ac62841e4a9e81880214e8348c4f0000801ca0ee4f828668b6c90eb4d0fed829011abf4a0c8908d4685a928794007042816c5ba05cf356b2d55ed979c0f7677f99ae43402a87c02b85581dc09f8b242a30e47085",
      "networkId": 0,
      "chainId": 0
    },
    {
      "hash": "0xfe9efe76dd77ac682e5f2611fd20e9389afc887ed1ccd4e81730c75008cc57a6",
      "blockHash": "0xbeb4e845db26a54a0d2c6c7fec180c8e7c5a43e57e0a3b0812dd0a8a9ca21d9b",
      "blockNumber": 103928,
      "transactionIndex": 2,
      "confirmations": null,
      "from": "0xC6Bf5B6558f2eE21F2E43d9fF9B5408A0Cb89413",
      "gasPrice": {
        "_hex": "0xd38673e7e"
      },
      "gasLimit": {
        "_hex": "0x15f90"
      },
      "to": "0x1D3ffA437e5bce40fCC134f4E0ac62841E4A9E81",
      "value": {
        "_hex": "0x470de4df820000"
      },
      "nonce": 18,
      "data": "0x",
      "r": "0x267cd9259bf06d9af00de79654f7008bdf000cd2f575abb62a5b699d3852c3db",
      "s": "0x70baa70f559f6a7f4f6a593402dfdfc735ead16da83574e6d80dd2d28677e298",
      "v": 27,
      "creates": null,
      "raw": "0xf86c12850d38673e7e83015f90941d3ffa437e5bce40fcc134f4e0ac62841e4a9e8187470de4df820000801ba0267cd9259bf06d9af00de79654f7008bdf000cd2f575abb62a5b699d3852c3dba070baa70f559f6a7f4f6a593402dfdfc735ead16da83574e6d80dd2d28677e298",
      "networkId": 0,
      "chainId": 0
    }
  ]
}