{
  "hash": "0x89d7a128ac0c11b173f74f39d895e58939f1ade1acbdcfdf0d4a1b6961a25c4f",
  "parentHash": "0x6d5852b17033b6150be7bf7df8c60b8983698708bbc7d3141ccd5453092f72ac",
  "number": 81239,
  "timestamp": 1439498344,
  "nonce": "0x86bdc3a86442cd6c",
  "difficulty": 2455835143194,
  "gasLimit": {
    "_hex": "0x2fefd8"
  },
  "gasUsed": {
    "_hex": "0x19a28"
  },
  "miner": "0x580992B51e3925e23280EfB93d3047C82f17E038",
  "extraData": "0x476574682f76312e302e312f6c696e75782f676f312e342e32",
  "transactions": [
    {
      "hash": "0x3fc831f04451d015d71dcf928bce6070597695147874c2fac9931cc78bfe7a3a",
      "blockHash": "0x89d7a128ac0c11b173f74f39d895e58939f1ade1acbdcfdf0d4a1b6961a25c4f",
      "blockNumber": 81239,
      "transactionIndex": 0,
      "confirmations": null,
      "from": "0x32Be343B94f860124dC4fEe278FDCBD38C102D88",
      "gasPrice": {
        "_hex": "0xcf2d4baf1"
      },
      "gasLimit": {
        "_hex": "0x5208"
      },
      "to": "0x69083A99C2c1A7147334DE2Be848EF63Cc6bD6da",
      "value": {
        "_hex": "0x2bd401a3663b0000"
      },
      "nonce": 584,
      "data": "0x",
      "r": "0xf8b00da1f16aad592c6ba02e8631457564a9d052ceb910601c5dbf7cdecaf752",
      "s": "0x6361f6c8a09304b90c15b5151b43dab6cbdae5bd3f4be4a2315824a267fcdabc",
      "v": 28,
      "creates": null,
      "raw": "0xf86e820248850cf2d4baf18252089469083a99c2c1a7147334de2be848ef63cc6bd6da882bd401a3663b0000801ca0f8b00da1f16aad592c6ba02e8631457564a9d052ceb910601c5dbf7cdecaf752a06361f6c8a09304b90c15b5151b43dab6cbdae5bd3f4be4a2315824a267fcdabc",
      "networkId": 0,
      "chainId": 0
    },
    {
      "hash": "0xe1e1a87e7af7b67d1f189224d2eb0897c65ff14628eb2fd56490f428d4e5061c",
      "blockHash": "0x89d7a128ac0c11b173f74f39d895e58939f1ade1acbdcfdf0d4a1b6961a25c4f",
      "blockNumber": 81239,
      "transactionIndex": 1,
      "confirmations": null,
      "from": "0x32Be343B94f860124dC4fEe278FDCBD38C102D88",
      "gasPrice": {
        "_hex": "0xcf2d4baf1"
      },
      "gasLimit": {
        "_hex": "0x5208"
      },
      "to": "0xb571A6a701b02EeBff6c09aa6B3242ad011030d8",
      "value": {
        "_hex": "0x27e39427bf3400000"
      },
      "nonce": 585,
      "data": "0x",
      "r": "0x4cb50487f5dbfa0c9a0f72c5fe88a0f5cb9ee36e9b5dbf2f660c47524eaf9285",
      "s": "0x1ff0e3e20edf4390df0e051fd7a5bf8fab387363cdaab03db99371207675d2bf",
      "v": 28,
      "creates": null,
      "raw": "0xf86f820249850cf2d4baf182520894b571a6a701b02eebff6c09aa6b3242ad011030d889027e39427bf3400000801ca04cb50487f5dbfa0c9a0f72c5fe88a0f5cb9ee36e9b5dbf2f660c47524eaf9285a01ff0e3e20edf4390df0e051fd7a5bf8fab387363cdaab03db99371207675d2bf",
      "networkId": 0,
      "chainId": 0
    },
    {
      "hash": "0xd6222955938f938353ad801b6cde6c8ddcd04deeb48fd706917bfe7365826107",
      "blockHash": "0x89d7a128ac0c11b173f74f39d895e58939f1ade1acbdcfdf0d4a1b6961a25c4f",
      "blockNumber": 81239,
      "transactionIndex": 2,
      "confirmations": null,
      "from": "0x32Be343B94f860124dC4fEe278FDCBD38C102D88",
      "gasPrice": {
        "_hex": "0xcf2d4baf1"
      },
      "gasLimit": {
        "_hex": "0x5208"
      },
      "to": "0x120A270bbC009644e35F0bB6ab13f95b8199c4ad",
      "value": {
        "_hex": "0x56bc75e2d63100000"
      },
      "nonce": 586,
      "data": "0x",
      "r": "0x2bbb97a88ed2c8747fcb1ae3527d1732b42b3e5fb10025452f5c375fbe33ccbf",
      "s": "0x013ae0284728d381e8c1d4720cc7d0aaf53d72fbcb75f50789b70c0dd7278659",
      "v": 27,
      "creates": null,
      "raw": "0xf86f82024a850cf2d4baf182520894120a270bbc009644e35f0bb6ab13f95b8199c4ad89056bc75e2d63100000801ba02bbb97a88ed2c8747fcb1ae3527d1732b42b3e5fb10025452f5c375fbe33ccbfa0013ae0284728d381e8c1d4720cc7d0aaf53d72fbcb75f50789b70c0dd7278659",
      "networkId": 0,
      "chainId": 0
    },
    {
      "hash": "0x3be3fecaa9d62f741a0bf5008d1082c006147444c99cc372d2b588e9a4f8f2ef",
      "blockHash": "0x89d7a128ac0c11b173f74f39d895e58939f1ade1acbdcfdf0d4a1b6961a25c4f",
      "blockNumber": 81239,
      "transactionIndex": 3,
      "confirmations": null,
      "from": "0x32Be343B94f860124dC4fEe278FDCBD38C102D88",
      "gasPrice": {
        "_hex": "0xcf2d4baf1"
      },
      "gasLimit": {
        "_hex": "0x5208"
      },
      "to": "0x72bb27Cb99f3E2C2CF90A98F707d30E4A201A071",
      "value": {
        "_hex": "0x56ba3d73af34f0000"
      },
      "nonce": 587,
      "data": "0x",
      "r": "0x0e7afa5b4110c709e8247b7c74b6766a06ce599d85a54dd7000fed007e40ae9a",
      "s": "0x2b51c313cb6e9551a0695ee13aeb72f28e643352dcad2a35a0c58483bb43457c",
      "v": 28,
      "creates": null,
      "raw": "0xf86f82024b850cf2d4baf18252089472bb27cb99f3e2c2cf90a98f707d30e4a201a07189056ba3d73af34f0000801ca00e7afa5b4110c709e8247b7c74b6766a06ce599d85a54dd7000fed007e40ae9aa02b51c313cb6e9551a0695ee13aeb72f28e643352dcad2a35a0c58483bb43457c",
      "networkId": 0,
      "chainId": 0
    },
    {
      "hash": "0x6fc0c3ccce5b735b08e0b39f5f43e011a6001e61a4360b4a04f8795a3ce720c5",
      "blockHash": "0x89d7a128ac0c11b173f74f39d895e58939f1ade1acbdcfdf0d4a1b6961a25c4f",
      "blockNumber": 81239,
      "transactionIndex": 4,
      "confirmations": null,
      "from": "0xA5a5181868a8Df772f87DC95aB9B366e974Da936",
      "gasPrice": {
        "_hex": "0xba43b7400"
      },
      "gasLimit": {
        "_hex": "0x525a"
      },
      "to": "0x1527fcd698B3A8707bb745F80ab114FfF3Db35E2",
      "value": {
        "_hex": "0xde0b6b3a7640000"
      },
      "nonce": 5,
      "data": "0x",
      "r": "0x0dac191502fd4251964f73db098bc4693ac2381141a40c72e067219ac2a1a714",
      "s": "0x0a99c6a75add82b37c585fabd23c91081cc1d8b1e78ca96ecc3335cf355133a2",
      "v": 28,
      "creates": null,
      "raw": "0xf86c05850ba43b740082525a941527fcd698b3a8707bb745f80ab114fff3db35e2880de0b6b3a7640000801ca00dac191502fd4251964f73db098bc4693ac2381141a40c72e067219ac2a1a714a00a99c6a75add82b37c585fabd23c91081cc1d8b1e78ca96ecc3335cf355133a2",
      "networkId": 0,
      "chainId": 0
    }
  ]
}