{
  "hash": "0x94ba7b3040c3096198465ccd3d56fffc20ad723ba057ed975610672084a9ce38",
  "parentHash": "0x161278c800197709dc0ebf14ff6231b70039e1f5ab2002045097e7acef67245a",
  "number": 95281,
  "timestamp": 1439721814,
  "nonce": "0x569e14e5c5e4ad68",
  "difficulty": 3553335451730,
  "gasLimit": {
    "_hex": "0x2fefd8"
  },
  "gasUsed": {
    "_hex": "0x8f7d"
  },
  "miner": "0xe6A7a1d47ff21B6321162AEA7C6CB457D5476Bca",
  "extraData": "0x476574682f76312e302e312d38326566323666362f6c696e75782f676f312e34",
  "transactions": [
    {
      "hash": "0x88a721b58e777f03b7929060f29de7927fb24f8d2e38d6dfb96aff1aa5bb3c43",
      "blockHash": "0x94ba7b3040c3096198465ccd3d56fffc20ad723ba057ed975610672084a9ce38",
      "blockNumber": 95281,
      "transactionIndex": 0,
      "confirmations": null,
      "from": "0x775e18be7A50a0Abb8A4e82B1bD697D79F31fE04",
      "gasPrice": {
        "_hex": "0xd76a99450"
      },
      "gasLimit": {
        "_hex": "0xf4240"
      },
      "to": "0xde0B295669a9FD93d5F28D9Ec85E40f4cb697BAe",
      "value": {
        "_hex": "0x0"
      },
      "nonce": 7,
      "data": "0xf00d4b5d000000000000000000000000cda0ad7542e30bf520652a05056ebe0105c7e49a00000000000000000000000002e816afc1b5c0f39852131959d946eb3b07b5ad",
      "r": "0x93e0de7b482a8f8ca1dc41a41ae62beaff5620cb545ee99d5c3c0c6e150a6cef",
      "s": "0x76fdcc6bc14ab9793a5cf015fffe51903588b2fca772d89d8d39528534ae9290",
      "v": 27,
      "creates": null,
      "raw": "0xf8aa07850d76a99450830f424094de0b295669a9fd93d5f28d9ec85e40f4cb697bae80b844f00d4b5d000000000000000000000000cda0ad7542e30bf520652a05056ebe0105c7e49a00000000000000000000000002e816afc1b5c0f39852131959d946eb3b07b5ad1ba093e0de7b482a8f8ca1dc41a41ae62beaff5620cb545ee99d5c3c0c6e150a6cefa076fdcc6bc14ab9793a5cf015fffe51903588b2fca772d89d8d39528534ae9290",
      "networkId": 0,
      "chainId": 0
    }
  ]
}