{
  "hash": "0xf5ef6e7c85dc947cd717e82a1c7779b1d68d87638a5dfe2f73926e1e51c1d429",
  "parentHash": "0xd7a39642b030c6f91f2c21f5382e77ae10a69c9be13d9164cffdfe8890ad69d7",
  "number": 95687,
  "timestamp": 1439727902,
  "nonce": "0x2e187053bc5f045c",
  "difficulty": 3623243353853,
  "gasLimit": {
    "_hex": "0x2fefd8"
  },
  "gasUsed": {
    "_hex": "0x5208"
  },
  "miner": "0x785ffdDd5cE55c6DF963f345e68d3F2024E5Acb1",
  "extraData": "0x",
  "transactions": [
    {
      "hash": "0xab4fb7864f81441b180cc89c8f64d19e939f02727bb5f2ec938aad93ef295a4d",
      "blockHash": "0xf5ef6e7c85dc947cd717e82a1c7779b1d68d87638a5dfe2f73926e1e51c1d429",
      "blockNumber": 95687,
      "transactionIndex": 0,
      "confirmations": null,
      "from": "0xfE835cf9F715fec23A7dECbCa85D616e7f6E5Aec",
      "gasPrice": {
        "_hex": "0xba43b7400"
      },
      "gasLimit": {
        "_hex": "0x5208"
      },
      "to": "0xC47Aaa860008be6f65B58c6C6E02a84e666EfE31",
      "value": {
        "_hex": "0x8ab1a4932503b8f0"
      },
      "nonce": 0,
      "data": "0x",
      "r": "0x92c528bbf5160df17590a97d913e137cceccaee5d79439ec15abc5bc3fcc4d5f",
      "s": "0x536de071988168782b34cbaf97d5e83c91fa7db50203b98d0938bd447dd8ca08",
      "v": 28,
      "creates": null,
      "raw": "0xf86c80850ba43b740082520894c47aaa860008be6f65b58c6c6e02a84e666efe31888ab1a4932503b8f0801ca092c528bbf5160df17590a97d913e137cceccaee5d79439ec15abc5bc3fcc4d5fa0536de071988168782b34cbaf97d5e83c91fa7db50203b98d0938bd447dd8ca08",
      "networkId": 0,
      "chainId": 0
    }
  ]
}