{
  "hash": "0x3fba1d9e3bec665170d828bde67fcb20308a51e5ff7de555629be41b5f37602a",
  "parentHash": "0x960fef4f7820b140a13645c69417101dd0d116eebb712cb5ae5a207961caabe3",
  "number": 100218,
  "timestamp": 1439802972,
  "nonce": "0xce3f906db023cb1e",
  "difficulty": 3815514581361,
  "gasLimit": {
    "_hex": "0x2fefd8"
  },
  "gasUsed": {
    "_hex": "0x5208"
  },
  "miner": "0xe6A7a1d47ff21B6321162AEA7C6CB457D5476Bca",
  "extraData": "0x476574682f76312e302e312d38326566323666362f6c696e75782f676f312e34",
  "transactions": [
    {
      "hash": "0x41de8c5d8087ba69d2be922edf9db276006a8aec17b5fa9f6151edc2f5de2b80",
      "blockHash": "0x3fba1d9e3bec665170d828bde67fcb20308a51e5ff7de555629be41b5f37602a",
      "blockNumber": 100218,
      "transactionIndex": 0,
      "confirmations": null,
      "from": "0x3aFca45be577815985f0d83E5E4C738F45804Fec",
      "gasPrice": {
        "_hex": "0xcad4f1a50"
      },
      "gasLimit": {
        "_hex": "0x15f90"
      },
      "to": "0xE44722E814a70BF7009543535e6bCf0DF77545c2",
      "value": {
        "_hex": "0xc7d713b49da0000"
      },
      "nonce": 0,
      "data": "0x",
      "r": "0x7a00af508528a6d0fa3c09fe87f1c36e44af9b45bcf5209b89637c925050d744",
      "s": "0x169b054abcc947b6f0df713a01a986a98a07a9df24466a079710b2de7891d362",
      "v": 27,
      "creates": null,
      "raw": "0xf86d80850cad4f1a5083015f9094e44722e814a70bf7009543535e6bcf0df77545c2880c7d713b49da0000801ba07a00af508528a6d0fa3c09fe87f1c36e44af9b45bcf5209b89637c925050d744a0169b054abcc947b6f0df713a01a986a98a07a9df24466a079710b2de7891d362",
      "networkId": 0,
      "chainId": 0
    }
  ]
}