{
  "hash": "0x1f6d5555ce9d600068bb863612763306f23c5cbb37468b19167b15728dd3dd03",
  "parentHash": "0x6e12b4c1973aebf838f2f381eb60ef074f0ce065c3ca6128fe3e835e47ea6a51",
  "number": 65176,
  "timestamp": 1439232366,
  "nonce": "0xc3512a101bb2b9b1",
  "difficulty": 1945498890548,
  "gasLimit": {
    "_hex": "0x2fefd8"
  },
  "gasUsed": {
    "_hex": "0x17cd8"
  },
  "miner": "0xde8B4cca204F866220e8e25817668Cd44a5fee88",
  "extraData": "0x",
  "transactions": [
    {
      "hash": "0xd8253f43d8a4c2d90a4ffc29e903431130eddb4528a47154759eb1a84d86cc96",
      "blockHash": "0x1f6d5555ce9d600068bb863612763306f23c5cbb37468b19167b15728dd3dd03",
      "blockNumber": 65176,
      "transactionIndex": 0,
      "confirmations": null,
      "from": "0xF3Dc7CEdf2D46a63a27Df75dC463ac8Ed7335812",
      "gasPrice": {
        "_hex": "0xba43b7400"
      },
      "gasLimit": {
        "_hex": "0x15f90"
      },
      "to": "0x793AE8C1b1a160BFc07BFB0d04F85eab1A71F4f2",
      "value": {
        "_hex": "0x0"
      },
      "nonce": 0,
      "data": "0x3ba15036",
      "r": "0x9db2d88b5888efaff41e029c4ab96227c61826b03fc9f508458b8229d176391d",
      "s": "0x13fb3f245e267dcf5f9b95e4302e5722ea26ef608d2bc86dd5b86263f860ba44",
      "v": 27,
      "creates": null,
      "raw": "0xf86980850ba43b740083015f9094793ae8c1b1a160bfc07bfb0d04f85eab1a71f4f280843ba150361ba09db2d88b5888efaff41e029c4ab96227c61826b03fc9f508458b8229d176391da013fb3f245e267dcf5f9b95e4302e5722ea26ef608d2bc86dd5b86263f860ba44",
      "networkId": 0,
      "chainId": 0
    },
    {
      "hash": "0xe159e8b7e89fe3469afc104d98f1a5bfaa533de30057411f1c0cb853c117ce46",
      "blockHash": "0x1f6d5555ce9d600068bb863612763306f23c5cbb37468b19167b15728dd3dd03",
      "blockNumber": 65176,
      "transactionIndex": 1,
      "confirmations": null,
      "from": "0x7e988DAE3276EFD32b62159C5cAeeeD3528A695f",
      "gasPrice": {
        "_hex": "0xba43b7400"
      },
      "gasLimit": {
        "_hex": "0x15f90"
      },
      "to": "0x793AE8C1b1a160BFc07BFB0d04F85eab1A71F4f2",
      "value": {
        "_hex": "0x0"
      },
      "nonce": 0,
      "data": "0x3ba15036",
      "r": "0xbaf9e63f5d2d5b3791e7bf2759bbf2164825d9cc9a0bfd9b59db54c6a6f9e9c3",
      "s": "0x253903c56170459ece0950c2b353fda9f321a6254b8be101b20f3153d250878d",
      "v": 28,
      "creates": null,
      "raw": "0xf86980850ba43b740083015f9094793ae8c1b1a160bfc07bfb0d04f85eab1a71f4f280843ba150361ca0baf9e63f5d2d5b3791e7bf2759bbf2164825d9cc9a0bfd9b59db54c6a6f9e9c3a0253903c56170459ece0950c2b353fda9f321a6254b8be101b20f3153d250878d",
      "networkId": 0,
      "chainId": 0
    }
  ]
}