{
  "hash": "0x3314a8c39bce50404dc30b0622b48c74189131fb5c954400fa9df2c2c5b8cc41",
  "parentHash": "0x58ef3ecfbb4dd63ed93a2fbbf4833cab7faf1edcd4217dcf5d63f8cd55b2d0c9",
  "number": 51161,
  "timestamp": 1439000251,
  "nonce": "0x7d4522460153a7f8",
  "difficulty": 1562047932949,
  "gasLimit": {
    "_hex": "0x95ec4"
  },
  "gasUsed": {
    "_hex": "0x546c"
  },
  "miner": "0x3222BA3F3e79eA0e31467EEE7639B57923558cCD",
  "extraData": "0x",
  "transactions": [
    {
      "hash": "0x64c1dac23e9684a247c56e39276f06b43326cff0080b220f9f931191657e1812",
      "blockHash": "0x3314a8c39bce50404dc30b0622b48c74189131fb5c954400fa9df2c2c5b8cc41",
      "blockNumber": 51161,
      "transactionIndex": 0,
      "confirmations": null,
      "from": "0xC272293AD54739bF7aAdd8924Aa3d712D672Eed1",
      "gasPrice": {
        "_hex": "0xd9590887e"
      },
      "gasLimit": {
        "_hex": "0x15f90"
      },
      "to": "0x2910543Af39abA0Cd09dBb2D50200b3E800A63D2",
      "value": {
        "_hex": "0x18493fba64ef00000"
      },
      "nonce": 3,
      "data": "0x454e44504338454a38",
      "r": "0xb549e5ea4d9ff495eabcc5cf0b82ed0b9963165a3e88fc31ba9665ffda541b36",
      "s": "0x06e950291bd2d5d1caece8953666b0d96f55b1e6c47496ffa657d3b02a1aabe7",
      "v": 28,
      "creates": null,
      "raw": "0xf87703850d9590887e83015f90942910543af39aba0cd09dbb2d50200b3e800a63d289018493fba64ef0000089454e44504338454a381ca0b549e5ea4d9ff495eabcc5cf0b82ed0b9963165a3e88fc31ba9665ffda541b36a006e950291bd2d5d1caece8953666b0d96f55b1e6c47496ffa657d3b02a1aabe7",
      "networkId": 0,
      "chainId": 0
    }
  ]
}