{
  "hash": "0x0eaf90274d7911ddbd369031de34fee0b933b22eafc4692ff1faf06300779742",
  "parentHash": "0x99e0b5b043e4f29b3df91029ff0cc29b50fcf7b656e5e8758944a4a1141fba66",
  "number": 83827,
  "timestamp": 1439541463,
  "nonce": "0x4db3c22ab31ce241",
  "difficulty": 2445506160081,
  "gasLimit": {
    "_hex": "0x2fefd8"
  },
  "gasUsed": {
    "_hex": "0x5208"
  },
  "miner": "0xe090Ffdced499691fA9379752a59F8A058c1eE4A",
  "extraData": "0x476574682f76312e302e312f6c696e75782f676f312e342e32",
  "transactions": [
    {
      "hash": "0xb52f8cb54be973a0ccb509ff0c50a2b1091e7a1a32d9e6c7a64da229558c7075",
      "blockHash": "0x0eaf90274d7911ddbd369031de34fee0b933b22eafc4692ff1faf06300779742",
      "blockNumber": 83827,
      "transactionIndex": 0,
      "confirmations": null,
      "from": "0xAaf5B207b88B0dE4Ac40d747CEE06e172dF6E745",
      "gasPrice": {
        "_hex": "0xdc2f686cf"
      },
      "gasLimit": {
        "_hex": "0x5208"
      },
      "to": "0x428780201c611BD04Cb80F1C3f0a54F6B4D9f8a7",
      "value": {
        "_hex": "0x16c4abbebea0100000"
      },
      "nonce": 2,
      "data": "0x",
      "r": "0x56b627ab20c053c3f5806c5b8f74a691382800d015c49de5e3a869fc9210bbc7",
      "s": "0x4c525d2d3e6cd3fa8b4f166e3a232213ecd7d4e46b3e2e02781c5afdef62484d",
      "v": 28,
      "creates": null,
      "raw": "0xf86d02850dc2f686cf82520894428780201c611bd04cb80f1c3f0a54f6b4d9f8a78916c4abbebea0100000801ca056b627ab20c053c3f5806c5b8f74a691382800d015c49de5e3a869fc9210bbc7a04c525d2d3e6cd3fa8b4f166e3a232213ecd7d4e46b3e2e02781c5afdef62484d",
      "networkId": 0,
      "chainId": 0
    }
  ]
}