{
  "hash": "0x1011798b5257940710ffff5f648424fac99ecdb79df4c75def593db1e3700de1",
  "parentHash": "0x62c38a4889f3b504374cd98dad542cbb7df4758c5537013d8f4a5943608bd2cb",
  "number": 107275,
  "timestamp": 1439919523,
  "nonce": "0xf9286898fbb15126",
  "difficulty": 4428835288475,
  "gasLimit": {
    "_hex": "0x2fefd8"
  },
  "gasUsed": {
    "_hex": "0x5208"
  },
  "miner": "0xf927a40C8B7F6E07c5af7FA2155B4864a4112B13",
  "extraData": "0x",
  "transactions": [
    {
      "hash": "0x0ae5292efdbf92c372a36461e6a12d06ee8f70286117ad66584f52c90f24c91d",
      "blockHash": "0x1011798b5257940710ffff5f648424fac99ecdb79df4c75def593db1e3700de1",
      "blockNumber": 107275,
      "transactionIndex": 0,
      "confirmations": null,
      "from": "0xFBb1b73C4f0BDa4f67dcA266ce6Ef42f520fBB98",
      "gasPrice": {
        "_hex": "0xd04bdd148"
      },
      "gasLimit": {
        "_hex": "0x5208"
      },
      "to": "0xA204d546E9DB0cAAf38C03d028AC021035D10f16",
      "value": {
        "_hex": "0x114895e6064979fc00"
      },
      "nonce": 117,
      "data": "0x",
      "r": "0xdb56461c8895c0b20a96096c8f05d726ef580bcb98425c9d5a51e93291d76309",
      "s": "0x1178722e6c125762516ba888849f9c9c1e9d5a9b0fa4e29d6b92b9a38a833f58",
      "v": 27,
      "creates": null,
      "raw": "0xf86d75850d04bdd14882520894a204d546e9db0caaf38c03d028ac021035d10f1689114895e6064979fc00801ba0db56461c8895c0b20a96096c8f05d726ef580bcb98425c9d5a51e93291d76309a01178722e6c125762516ba888849f9c9c1e9d5a9b0fa4e29d6b92b9a38a833f58",
      "networkId": 0,
      "chainId": 0
    }
  ]
}