{
  "hash": "0x28acb3fa6e6fffd14e760def7b9f92920726f75df799d97a54cd77ed230ac76a",
  "parentHash": "0xbea0fb43be10878af5f75451e308f862d1d3cf65f29f3e945796f8978458ae2a",
  "number": 97390,
  "timestamp": 1439755231,
  "nonce": "0x897ef2088f88fbc2",
  "difficulty": 3820530265077,
  "gasLimit": {
    "_hex": "0x2fefd8"
  },
  "gasUsed": {
    "_hex": "0x5208"
  },
  "miner": "0xe6A7a1d47ff21B6321162AEA7C6CB457D5476Bca",
  "extraData": "0x476574682f76312e302e312d38326566323666362f6c696e75782f676f312e34",
  "transactions": [
    {
      "hash": "0x9ef806b29b4434fbd74b04ee90d72edc2d12b9596ac7228561d0bc3736214336",
      "blockHash": "0x28acb3fa6e6fffd14e760def7b9f92920726f75df799d97a54cd77ed230ac76a",
      "blockNumber": 97390,
      "transactionIndex": 0,
      "confirmations": null,
      "from": "0x79d5794171E11dd5C2f0e26E1C187319db2FE6f7",
      "gasPrice": {
        "_hex": "0xdca370a01"
      },
      "gasLimit": {
        "_hex": "0x5208"
      },
      "to": "0x32Be343B94f860124dC4fEe278FDCBD38C102D88",
      "value": {
        "_hex": "0x455f1b4643946800"
      },
      "nonce": 35,
      "data": "0x",
      "r": "0x3ba9a8fd12097484a1f288e7c414de25a3e5b3c4e53cd0e6c1c40dd980d9cbe2",
      "s": "0x6e685a2a3a3e93dd180b1df161601829d81fd93ff6bc00fc7254fd1faf4a5b10",
      "v": 27,
      "creates": null,
      "raw": "0xf86c23850dca370a018252089432be343b94f860124dc4fee278fdcbd38c102d8888455f1b4643946800801ba03ba9a8fd12097484a1f288e7c414de25a3e5b3c4e53cd0e6c1c40dd980d9cbe2a06e685a2a3a3e93dd180b1df161601829d81fd93ff6bc00fc7254fd1faf4a5b10",
      "networkId": 0,
      "chainId": 0
    }
  ]
}