{
  "hash": "0x3479284ad796f94d1f54c3abfff99ea19acaa26eeaf7ccde7c7b79a70d2d4dfb",
  "parentHash": "0x68df75efc09d8ed2f59c920e00fdb470c8d2ab7dce8a25b106472838a5cbaf15",
  "number": 48490,
  "timestamp": 1438958000,
  "nonce": "0x8163a37720a2b549",
  "difficulty": 1462866946082,
  "gasLimit": {
    "_hex": "0x180f3"
  },
  "gasUsed": {
    "_hex": "0x546c"
  },
  "miner": "0x5B40711F65053004dc86F296Dd8F09862E00998F",
  "extraData": "0x476574682f76312e302e312d38326566323666362f6c696e75782f676f312e34",
  "transactions": [
    {
      "hash": "0x4dd28b21e73e12d90dc26427701bd7f195cc351b18e2f11a67e03921c0da989f",
      "blockHash": "0x3479284ad796f94d1f54c3abfff99ea19acaa26eeaf7ccde7c7b79a70d2d4dfb",
      "blockNumber": 48490,
      "transactionIndex": 0,
      "confirmations": null,
      "from": "0x5584a5A361e70D0757D8Ca2B151f041136C9C28a",
      "gasPrice": {
        "_hex": "0x10bd2717cdb"
      },
      "gasLimit": {
        "_hex": "0x15f90"
      },
      "to": "0x2910543Af39abA0Cd09dBb2D50200b3E800A63D2",
      "value": {
        "_hex": "0x4563918244f40000"
      },
      "nonce": 0,
      "data": "0x454e433933464b3330",
      "r": "0x8d16dc8506b75a31256a853af0b980488983847264c6c32038d871f8b98a232d",
      "s": "0x6e8162fc37c60928682f5d009ff7043a90e81ef6251e8102000fca98fa68d65b",
      "v": 27,
      "creates": null,
      "raw": "0xf8778086010bd2717cdb83015f90942910543af39aba0cd09dbb2d50200b3e800a63d2884563918244f4000089454e433933464b33301ba08d16dc8506b75a31256a853af0b980488983847264c6c32038d871f8b98a232da06e8162fc37c60928682f5d009ff7043a90e81ef6251e8102000fca98fa68d65b",
      "networkId": 0,
      "chainId": 0
    }
  ]
}