{
  "hash": "0x55c752487bbee5ca8e1718c20dc880af40e98d94a6ea332fc01870cd2a0c1fa9",
  "parentHash": "0xe31355cb7f79331190a3a3e522266d35c8e6affdd43a64cd3395b27da1b2c509",
  "number": 100301,
  "timestamp": 1439804156,
  "nonce": "0x94a0fec08e1dce4f",
  "difficulty": 3832280959009,
  "gasLimit": {
    "_hex": "0x2fefd8"
  },
  "gasUsed": {
    "_hex": "0xf618"
  },
  "miner": "0x52292dB8B133f37fDA9D9F4E996A3140b41E7634",
  "extraData": "0x476574682f76312e302e312f77696e646f77732f676f312e342e32",
  "transactions": [
    {
      "hash": "0x992b099794813e80fd9e56b98bf1fe6905c7ec9797c613859ab202456509b94d",
      "blockHash": "0x55c752487bbee5ca8e1718c20dc880af40e98d94a6ea332fc01870cd2a0c1fa9",
      "blockNumber": 100301,
      "transactionIndex": 0,
      "confirmations": null,
      "from": "0xFBb1b73C4f0BDa4f67dcA266ce6Ef42f520fBB98",
      "gasPrice": {
        "_hex": "0xe20eb1a1f"
      },
      "gasLimit": {
        "_hex": "0x5208"
      },
      "to": "0x1a88c57A263f87c39AB07f02045f7bBe559d93bc",
      "value": {
        "_hex": "0xa4502144dca0000"
      },
      "nonce": 88,
      "data": "0x",
      "r": "0xe030f1d8131b5cbfb74ccf4397a68475454b42bfab530ea688f4ee2291b79967",
      "s": "0x6ceaab15b8ef5eaaadfe43ffb26e19dc085f7286ac964ab4093afad3f6ff60c0",
      "v": 27,
      "creates": null,
      "raw": "0xf86c58850e20eb1a1f825208941a88c57a263f87c39ab07f02045f7bbe559d93bc880a4502144dca0000801ba0e030f1d8131b5cbfb74ccf4397a68475454b42bfab530ea688f4ee2291b79967a06ceaab15b8ef5eaaadfe43ffb26e19dc085f7286ac964ab4093afad3f6ff60c0",
      "networkId": 0,
      "chainId": 0
    },
    {
      "hash": "0x2b608b34159629bf268554c61b39e19a821d8a3b0966b40bc87b9168a9a3a52b",
      "blockHash": "0x55c752487bbee5ca8e1718c20dc880af40e98d94a6ea332fc01870cd2a0c1fa9",
      "blockNumber": 100301,
      "transactionIndex": 1,
      "confirmations": null,
      "from": "0xFBb1b73C4f0BDa4f67dcA266ce6Ef42f520fBB98",
      "gasPrice": {
        "_hex": "0xe20eb1a1f"
      },
      "gasLimit": {
        "_hex": "0x5208"
      },
      "to": "0x7246bC1603B6d03A536a04d0580414dB1FCcfFE8",
      "value": {
        "_hex": "0x1b9de674df070000"
      },
      "nonce": 89,
      "data": "0x",
      "r": "0x50475c6f17555b9c5424d36efcd3aef02d103369a8138f4c9551bab16041186e",
      "s": "0x7f10ebd2848716f09bd7b56af37a638c2017255db9c739feaddd168e83555a89",
      "v": 28,
      "creates": null,
      "raw": "0xf86c59850e20eb1a1f825208947246bc1603b6d03a536a04d0580414db1fccffe8881b9de674df070000801ca050475c6f17555b9c5424d36efcd3aef02d103369a8138f4c9551bab16041186ea07f10ebd2848716f09bd7b56af37a638c2017255db9c739feaddd168e83555a89",
      "networkId": 0,
      "chainId": 0
    },
    {
      "hash": "0xd34cb37fe7bcd66f743698764cf616bca11e67ca42e91e9df35356cb606dabaa",
      "blockHash": "0x55c752487bbee5ca8e1718c20dc880af40e98d94a6ea332fc01870cd2a0c1fa9",
      "blockNumber": 100301,
      "transactionIndex": 2,
      "confirmations": null,
      "from": "0xB6AC12CefF0375Da80503AcCa54bf3061Fa917a8",
      "gasPrice": {
        "_hex": "0xd607039e5"
      },
      "gasLimit": {
        "_hex": "0x15f90"
      },
      "to": "0x5fF827e73C5B866c300b824fe12719a3DD350513",
      "value": {
        "_hex": "0x1158e460913d00000"
      },
      "nonce": 20,
      "data": "0x",
      "r": "0xeb13da6cceac2d88d55557ac0890937f22c14a96d7487dd23d8a80f4231d3d2c",
      "s": "0x0136bc6b513646b9df4cedfa443f92e588359a0cd130f05291a4620d81123027",
      "v": 28,
      "creates": null,
      "raw": "0xf86e14850d607039e583015f90945ff827e73c5b866c300b824fe12719a3dd3505138901158e460913d00000801ca0eb13da6cceac2d88d55557ac0890937f22c14a96d7487dd23d8a80f4231d3d2ca00136bc6b513646b9df4cedfa443f92e588359a0cd130f05291a4620d81123027",
      "networkId": 0,
      "chainId": 0
    }
  ]
}