{
  "hash": "0xefc5ee66849241fffa1979aea1cbf2e9e5846b5cc59f6d62a95544b300030c2f",
  "parentHash": "0xcba59f17707549b456e1e41dc0f19e2b809eae5e945b698b8894fe1bbe9b425f",
  "number": 65229,
  "timestamp": 1439233411,
  "nonce": "0x7adbb5df2884a1c4",
  "difficulty": 1944536885922,
  "gasLimit": {
    "_hex": "0x2fefd8"
  },
  "gasUsed": {
    "_hex": "0x17cd8"
  },
  "miner": "0x0193d941b50d91BE6567c7eE1C0Fe7AF498b4137",
  "extraData": "0x4a5ace9e4e",
  "transactions": [
    {
      "hash": "0x7265cdd4f31c6076369b5dda73601674af7b4da4a34b0ce7af25e37080e51447",
      "blockHash": "0xefc5ee66849241fffa1979aea1cbf2e9e5846b5cc59f6d62a95544b300030c2f",
      "blockNumber": 65229,
      "transactionIndex": 0,
      "confirmations": null,
      "from": "0xcf0a2986c44d35f0ebBD8943c4B14dacfF14049D",
      "gasPrice": {
        "_hex": "0xba43b7400"
      },
      "gasLimit": {
        "_hex": "0x15f90"
      },
      "to": "0x793AE8C1b1a160BFc07BFB0d04F85eab1A71F4f2",
      "value": {
        "_hex": "0x0"
      },
      "nonce": 0,
      "data": "0x3ba15036",
      "r": "0xc1330a6bca5661ac8bc0cd324d147a9c7e1822b7041abf17bde5aa770393a1a2",
      "s": "0x2a2d163e3aa5a4ec5d121c9ba55e264460f0e5478556457df40304794b53bccd",
      "v": 27,
      "creates": null,
      "raw": "0xf86980850ba43b740083015f9094793ae8c1b1a160bfc07bfb0d04f85eab1a71f4f280843ba150361ba0c1330a6bca5661ac8bc0cd324d147a9c7e1822b7041abf17bde5aa770393a1a2a02a2d163e3aa5a4ec5d121c9ba55e264460f0e5478556457df40304794b53bccd",
      "networkId": 0,
      "chainId": 0
    },
    {
      "hash": "0x686e572b33094bfa4758a16fff962c969e96238341b40c301d0d239ad92cd805",
      "blockHash": "0xefc5ee66849241fffa1979aea1cbf2e9e5846b5cc59f6d62a95544b300030c2f",
      "blockNumber": 65229,
      "transactionIndex": 1,
      "confirmations": null,
      "from": "0xA725D243d631dA2c9A1BaF73fD323EAE46D87023",
      "gasPrice": {
        "_hex": "0xba43b7400"
      },
      "gasLimit": {
        "_hex": "0x15f90"
      },
      "to": "0x793AE8C1b1a160BFc07BFB0d04F85eab1A71F4f2",
      "value": {
        "_hex": "0x0"
      },
      "nonce": 0,
      "data": "0x3ba15036",
      "r": "0xfd6b7c98ea1783c9ac81be6703ccab61423b90e0c47efee2c9f2aa21a90cd5ac",
      "s": "0x38f8f7b07685bf6fd17517f190072115942d4a332ca1f9f9cb099f97ad9ed725",
      "v": 28,
      "creates": null,
      "raw": "0xf86980850ba43b740083015f9094793ae8c1b1a160bfc07bfb0d04f85eab1a71f4f280843ba150361ca0fd6b7c98ea1783c9ac81be6703ccab61423b90e0c47efee2c9f2aa21a90cd5aca038f8f7b07685bf6fd17517f190072115942d4a332ca1f9f9cb099f97ad9ed725",
      "networkId": 0,
      "chainId": 0
    }
  ]
}