{
  "hash": "0x8e5e8c332c360d6aab80e5e7ddde2970eeaba3abcc1452bc828ee3a499e7d95e",
  "parentHash": "0x4281aca6dbadafa113e3ac326f0bb7ae31208b45a494589ff27b5d9e0826b844",
  "number": 54486,
  "timestamp": 1439054944,
  "nonce": "0x58403086e3e8dade",
  "difficulty": 1614931879372,
  "gasLimit": {
    "_hex": "0x2fefd8"
  },
  "gasUsed": {
    "_hex": "0x546c"
  },
  "miner": "0x01d9DA08cc6Fb97c0DE1B6F4C28910A0859Ed1A1",
  "extraData": "0x476574682f76312e302e312f6c696e75782f676f312e342e32",
  "transactions": [
    {
      "hash": "0x2ee76f167dcbd8036433c303b7c6b0a4f5d7a0ffb8af9433d2d646040e021fd7",
      "blockHash": "0x8e5e8c332c360d6aab80e5e7ddde2970eeaba3abcc1452bc828ee3a499e7d95e",
      "blockNumber": 54486,
      "transactionIndex": 0,
      "confirmations": null,
      "from": "0x1cF105AB23023B554C583E86d7921179eE83169F",
      "gasPrice": {
        "_hex": "0xd2d8ca930"
      },
      "gasLimit": {
        "_hex": "0x15f90"
      },
      "to": "0x2910543Af39abA0Cd09dBb2D50200b3E800A63D2",
      "value": {
        "_hex": "0xde0b6b3a7640000"
      },
      "nonce": 2,
      "data": "0x454e524a3243334a52",
      "r": "0x6bb46a2b57dbfe1ecbc72cf244fe636c8622d8a817952fb9dc7f40318d0050b4",
      "s": "0x18a6c732985b5bf9e7f2cc08496f122d5874285649aec95e5d7d9689e958fb5a",
      "v": 27,
      "creates": null,
      "raw": "0xf87602850d2d8ca93083015f90942910543af39aba0cd09dbb2d50200b3e800a63d2880de0b6b3a764000089454e524a3243334a521ba06bb46a2b57dbfe1ecbc72cf244fe636c8622d8a817952fb9dc7f40318d0050b4a018a6c732985b5bf9e7f2cc08496f122d5874285649aec95e5d7d9689e958fb5a",
      "networkId": 0,
      "chainId": 0
    }
  ]
}