{
  "hash": "0xdb4a64afc432868ebaeba54915d0da500af147d5a391d817b15acc6dcdb2b320",
  "parentHash": "0xfc840a8ea0849332b68ffbb31e07571acfbec64de27cc639a1afab91b8b68e74",
  "number": 55976,
  "timestamp": 1439080232,
  "nonce": "0x64b462d7838e733e",
  "difficulty": 1614645057644,
  "gasLimit": {
    "_hex": "0x2fefd8"
  },
  "gasUsed": {
    "_hex": "0x5208"
  },
  "miner": "0x664B099B945b899AaC84DA69dd6D4eEb3D03c8a3",
  "extraData": "0xdd809b302e392e34302b2b653834372d5257696e646f2f6d73762f4a4954",
  "transactions": [
    {
      "hash": "0xc977699974d9275aaed518f172a41b632ecf94ca33b63b0deb20db527af37505",
      "blockHash": "0xdb4a64afc432868ebaeba54915d0da500af147d5a391d817b15acc6dcdb2b320",
      "blockNumber": 55976,
      "transactionIndex": 0,
      "confirmations": null,
      "from": "0xc842A75953D9E17E9eCEA6EF339133b0e111b714",
      "gasPrice": {
        "_hex": "0xd7d40ace3"
      },
      "gasLimit": {
        "_hex": "0x15f90"
      },
      "to": "0x946B4421c64331bdAe148e6F27d66B92612E0BF6",
      "value": {
        "_hex": "0xb1a2bc2ec50000"
      },
      "nonce": 1,
      "data": "0x",
      "r": "0x2e42611e4acd417384f44da516d84a4c8e193cb162bfff624e3ff424cca52445",
      "s": "0x3c8e99445746b56f9a576cf66caa8f59f7d5fe15cdb71f8c26ea9f82be24661a",
      "v": 27,
      "creates": null,
      "raw": "0xf86c01850d7d40ace383015f9094946b4421c64331bdae148e6f27d66b92612e0bf687b1a2bc2ec50000801ba02e42611e4acd417384f44da516d84a4c8e193cb162bfff624e3ff424cca52445a03c8e99445746b56f9a576cf66caa8f59f7d5fe15cdb71f8c26ea9f82be24661a",
      "networkId": 0,
      "chainId": 0
    }
  ]
}