{
  "hash": "0x662b9de2b4f35e45629a5d69e6579d9a11e7674ab7dd984e1b59686c3fcf6ea3",
  "parentHash": "0x858efd04a57729628e76aada599a9c16f0615f00581d119cc9bbe8d7b0d7c74a",
  "number": 88155,
  "timestamp": 1439603580,
  "nonce": "0x57f51c3856f98e82",
  "difficulty": 3203500172605,
  "gasLimit": {
    "_hex": "0x2fefd8"
  },
  "gasUsed": {
    "_hex": "0x10387"
  },
  "miner": "0xe6A7a1d47ff21B6321162AEA7C6CB457D5476Bca",
  "extraData": "0x476574682f76312e302e312d38326566323666362f6c696e75782f676f312e34",
  "transactions": [
    {
      "hash": "0x4e3c1b24b8453ed522bca3dab18746cc0af45e7e6da0a70dec7551b650c88317",
      "blockHash": "0x662b9de2b4f35e45629a5d69e6579d9a11e7674ab7dd984e1b59686c3fcf6ea3",
      "blockNumber": 88155,
      "transactionIndex": 0,
      "confirmations": null,
      "from": "0x0037ce3d4B7f8729C8607D8D0248252Be68202c0",
      "gasPrice": {
        "_hex": "0xd76cd7b7b"
      },
      "gasLimit": {
        "_hex": "0x15f90"
      },
      "to": "0x1490dF8723A2496AD757c0D395840Ef9331e7e3c",
      "value": {
        "_hex": "0xb38b3bb4459dc0000"
      },
      "nonce": 16,
      "data": "0x",
      "r": "0xa14c56903edf9dcd10d7a4495332308e7a677fa6f8d57e497fb462c3eba92522",
      "s": "0x3e917c1d8a359e24cb967f8e40953113e6b5f281039fbbb897ed520e63ce07b1",
      "v": 27,
      "creates": null,
      "raw": "0xf86e10850d76cd7b7b83015f90941490df8723a2496ad757c0d395840ef9331e7e3c890b38b3bb4459dc0000801ba0a14c56903edf9dcd10d7a4495332308e7a677fa6f8d57e497fb462c3eba92522a03e917c1d8a359e24cb967f8e40953113e6b5f281039fbbb897ed520e63ce07b1",
      "networkId": 0,
      "chainId": 0
    },
    {
      "hash": "0x720a41753b3122e14f6b968a06405e865da78268e9368821e693b61e0d74c4a8",
      "blockHash": "0x662b9de2b4f35e45629a5d69e6579d9a11e7674ab7dd984e1b59686c3fcf6ea3",
      "blockNumber": 88155,
      "transactionIndex": 1,
      "confirmations": null,
      "from": "0x8dE9CAbD5635c9d182DD72e16237C40bf24487C7",
      "gasPrice": {
        "_hex": "0xd01198da9"
      },
      "gasLimit": {
        "_hex": "0x15f90"
      },
      "to": "0xbc6046c2B27B703A5fd5d33118ac7D9fe6BE3f2c",
      "value": {
        "_hex": "0x3f50bda9ea0aa000"
      },
      "nonce": 0,
      "data": "0x",
      "r": "0x1bee49c59ce858b3129826d227796b372fe3ae23a51b380ad72f901cb60273fe",
      "s": "0x77dc548dae07cf7229febbf6554108107626a687994ed15f9ea63f1a0c62b026",
      "v": 28,
      "creates": null,
      "raw": "0xf86d80850d01198da983015f9094bc6046c2b27b703a5fd5d33118ac7d9fe6be3f2c883f50bda9ea0aa000801ca01bee49c59ce858b3129826d227796b372fe3ae23a51b380ad72f901cb60273fea077dc548dae07cf7229febbf6554108107626a687994ed15f9ea63f1a0c62b026",
      "networkId": 0,
      "chainId": 0
    },
    {
      "hash": "0x3cc8507e0642aa348596beeb0458ac0e6585a4eb472d9056704f0e9f81ca9f1b",
      "blockHash": "0x662b9de2b4f35e45629a5d69e6579d9a11e7674ab7dd984e1b59686c3fcf6ea3",
      "blockNumber": 88155,
      "transactionIndex": 2,
      "confirmations": null,
      "from": "0xFD2605a2bF58fDbB90db1Da55dF61628B47F9e8c",
      "gasPrice": {
        "_hex": "0xcffb2f5c9"
      },
      "gasLimit": {
        "_hex": "0x15f90"
      },
      "to": "0xa50156cF80fa9eC2e16899E4fb7e072300787417",
      "value": {
        "_hex": "0x0"
      },
      "nonce": 69,
      "data": "0x960edffb000000000000000000000000000000000000000000000000000000000000000200000000000000000000000000000000000000000000000000000000000000020000000000000000000000000000000000000000000000000000000000000003",
      "r": "0xf99cc11bc1b438dbdc0c635a031dee8a05fda412b6f70bad77c14d4215972176",
      "s": "0x500be7472f602576f31e1bdc973551cfbf10d3dd251481292a735c250f140c5d",
      "v": 27,
      "creates": null,
      "raw": "0xf8ca45850cffb2f5c983015f9094a50156cf80fa9ec2e16899e4fb7e07230078741780b864960edffb0000000000000000000000000000000000000000000000000000000000000002000000000000000000000000000000000000000000000000000000000000000200000000000000000000000000000000000000000000000000000000000000031ba0f99cc11bc1b438dbdc0c635a031dee8a05fda412b6f70bad77c14d4215972176a0500be7472f602576f31e1bdc973551cfbf10d3dd251481292a735c250f140c5d",
      "networkId": 0,
      "chainId": 0
    }
  ]
}