{
  "hash": "0xd2d6bc9d94aaad9aad7570d00854de1bffa514473b66ab8b2b84fe1a6a5d3302",
  "parentHash": "0x30ed9b95ba662f4fe94c4012229e0a6209ada57b61d64693972d04c1d1c38b46",
  "number": 88902,
  "timestamp": 1439615215,
  "nonce": "0xf6404242f6da3d04",
  "difficulty": 3252069902129,
  "gasLimit": {
    "_hex": "0x2fefd8"
  },
  "gasUsed": {
    "_hex": "0x546c"
  },
  "miner": "0xbb7B8287f3F0a933474a79eAe42CBCa977791171",
  "extraData": "0x476574682f4c5649562f76312e302e312f6c696e75782f676f312e342e32",
  "transactions": [
    {
      "hash": "0x44fad5ab2f8e028bf265a6e635717cd7a692bec540403c114583c9dca1f9fcf7",
      "blockHash": "0xd2d6bc9d94aaad9aad7570d00854de1bffa514473b66ab8b2b84fe1a6a5d3302",
      "blockNumber": 88902,
      "transactionIndex": 0,
      "confirmations": null,
      "from": "0x34E2849Bea583AB0CC37975190f322b395055582",
      "gasPrice": {
        "_hex": "0x110c8f7d8de"
      },
      "gasLimit": {
        "_hex": "0xc350"
      },
      "to": "0x2910543Af39abA0Cd09dBb2D50200b3E800A63D2",
      "value": {
        "_hex": "0x3baf71c2a6e9140000"
      },
      "nonce": 1,
      "data": "0x454e434a5033463438",
      "r": "0xbd228f435f601abc538b4d5aa17a3d183a39b7602fffbbdb7d4190df71aeced1",
      "s": "0x06437d81763979f9ac718b93758947bd58ab3b741429baf20f03a3aff2da72b5",
      "v": 28,
      "creates": null,
      "raw": "0xf87701860110c8f7d8de82c350942910543af39aba0cd09dbb2d50200b3e800a63d2893baf71c2a6e914000089454e434a50334634381ca0bd228f435f601abc538b4d5aa17a3d183a39b7602fffbbdb7d4190df71aeced1a006437d81763979f9ac718b93758947bd58ab3b741429baf20f03a3aff2da72b5",
      "networkId": 0,
      "chainId": 0
    }
  ]
}