{
  "hash": "0x221c5139b2a551933a4c24dd2d2dbf53d9ceb7cc3da6b405478557939d62788b",
  "parentHash": "0x9ebf5ad09038019ab68d46784bc6a96e3869abcbe15e4f8b0253f26c8dff7fc8",
  "number": 106555,
  "timestamp": 1439906387,
  "nonce": "0xdf40bde8d08ee140",
  "difficulty": 4477051372578,
  "gasLimit": {
    "_hex": "0x2fefd8"
  },
  "gasUsed": {
    "_hex": "0x5208"
  },
  "miner": "0xfFcD9CAE6d9f54fd8ae05296F839892677ff6EaA",
  "extraData": "0x476574682f76312e302e312f77696e646f77732f676f312e342e32",
  "transactions": [
    {
      "hash": "0xa64d9bdcb7038d1cbea421f393abee862019566fd1008fcb5e7d8cf4f5c7bb8b",
      "blockHash": "0x221c5139b2a551933a4c24dd2d2dbf53d9ceb7cc3da6b405478557939d62788b",
      "blockNumber": 106555,
      "transactionIndex": 0,
      "confirmations": null,
      "from": "0x5FB181054Cdd53e106812529a8D545b2eC664E87",
      "gasPrice": {
        "_hex": "0xfdecb112be"
      },
      "gasLimit": {
        "_hex": "0x4cb2f"
      },
      "to": "0xCE2F5F938b7E660a5A9156C136f53E2d8f9F1Ecb",
      "value": {
        "_hex": "0x1bc16d674ec80000"
      },
      "nonce": 3,
      "data": "0x",
      "r": "0xc1572a1909346bb007aa295a99dbe0fe5c51a782fa6416b524537deed7fb2de8",
      "s": "0x0ab70fd19e59b81fd40a65d8340a5766a4863ae6b82bdf8bee7e7e62240145a5",
      "v": 27,
      "creates": null,
      "raw": "0xf86d0385fdecb112be8304cb2f94ce2f5f938b7e660a5a9156c136f53e2d8f9f1ecb881bc16d674ec80000801ba0c1572a1909346bb007aa295a99dbe0fe5c51a782fa6416b524537deed7fb2de8a00ab70fd19e59b81fd40a65d8340a5766a4863ae6b82bdf8bee7e7e62240145a5",
      "networkId": 0,
      "chainId": 0
    }
  ]
}