{
  "hash": "0x2783120367f24a29451b4ba8de537473d66d3b43e85e1a0319f0b8cb5ead72b5",
  "parentHash": "0x003ac7b1c84b45663e3434ea8621aef29290aba141c7a54c88a879362ca6526d",
  "number": 95112,
  "timestamp": 1439719123,
  "nonce": "0x1369dc21015b8d2d",
  "difficulty": 3510294160577,
  "gasLimit": {
    "_hex": "0x2fefd8"
  },
  "gasUsed": {
    "_hex": "0x5208"
  },
  "miner": "0xe6A7a1d47ff21B6321162AEA7C6CB457D5476Bca",
  "extraData": "0x476574682f76312e302e312d38326566323666362f6c696e75782f676f312e34",
  "transactions": [
    {
      "hash": "0xf188bf994c8e15947070b1e93078ed59776b4a74fda68ca1e78d4ff29aa565de",
      "blockHash": "0x2783120367f24a29451b4ba8de537473d66d3b43e85e1a0319f0b8cb5ead72b5",
      "blockNumber": 95112,
      "transactionIndex": 0,
      "confirmations": null,
      "from": "0x790b8a3cE86E707ED0eD32bF89B3269692a23CC1",
      "gasPrice": {
        "_hex": "0xd912e43b9"
      },
      "gasLimit": {
        "_hex": "0x15f90"
      },
      "to": "0x4D67f4F0Db45b3B5a3424B39ed8d972F710381D5",
      "value": {
        "_hex": "0x2ec03446cf18e0000"
      },
      "nonce": 6,
      "data": "0x",
      "r": "0x59df5bb142b868f7ac23203533c52375568f8bff5b74c43c13c963db79889f9c",
      "s": "0x47f212b1ccd53f76ce23abf0e69997982e1f28c08f34f3870ee758189b3c7318",
      "v": 28,
      "creates": null,
      "raw": "0xf86e06850d912e43b983015f90944d67f4f0db45b3b5a3424b39ed8d972f710381d58902ec03446cf18e0000801ca059df5bb142b868f7ac23203533c52375568f8bff5b74c43c13c963db79889f9ca047f212b1ccd53f76ce23abf0e69997982e1f28c08f34f3870ee758189b3c7318",
      "networkId": 0,
      "chainId": 0
    }
  ]
}