{
  "hash": "0xcf9cfa74bdd064003f8d7dcf450edfcb7cc356bbc62eb3df80d15fc1244dd86f",
  "parentHash": "0x0d64e5b39afd3d18acf0b81f254fdb38a28b1357eabfb91f59b3aa2453ce0e4d",
  "number": 86714,
  "timestamp": 1439581862,
  "nonce": "0x0cd78a4b141c2a5e",
  "difficulty": 2941638005909,
  "gasLimit": {
    "_hex": "0x2fefd8"
  },
  "gasUsed": {
    "_hex": "0x5208"
  },
  "miner": "0xe6A7a1d47ff21B6321162AEA7C6CB457D5476Bca",
  "extraData": "0x476574682f76312e302e312d38326566323666362f6c696e75782f676f312e34",
  "transactions": [
    {
      "hash": "0xe5b835c8653900cb4ca609cd5b7a40bface12f5751d479923cb45bfd861a213f",
      "blockHash": "0xcf9cfa74bdd064003f8d7dcf450edfcb7cc356bbc62eb3df80d15fc1244dd86f",
      "blockNumber": 86714,
      "transactionIndex": 0,
      "confirmations": null,
      "from": "0xa9E3dE793dD570894Aadb48ce8990062Fd4bb5Bb",
      "gasPrice": {
        "_hex": "0xd27fcd29d"
      },
      "gasLimit": {
        "_hex": "0x5208"
      },
      "to": "0x32Be343B94f860124dC4fEe278FDCBD38C102D88",
      "value": {
        "_hex": "0x3635c5767516940000"
      },
      "nonce": 1,
      "data": "0x",
      "r": "0xda07512a7b64da6dc98c53447a785fa8f46f63f226f5f87e2f03a32ff6b49c99",
      "s": "0x6fdd05b6b44c66fa26e12f9135962e8f7a3b5fc1f39a7b10b3e31efd5420f1ab",
      "v": 28,
      "creates": null,
      "raw": "0xf86d01850d27fcd29d8252089432be343b94f860124dc4fee278fdcbd38c102d88893635c5767516940000801ca0da07512a7b64da6dc98c53447a785fa8f46f63f226f5f87e2f03a32ff6b49c99a06fdd05b6b44c66fa26e12f9135962e8f7a3b5fc1f39a7b10b3e31efd5420f1ab",
      "networkId": 0,
      "chainId": 0
    }
  ]
}