{
  "hash": "0x9ab693a72ee8a4febbfbebe1c48d44817f63c554f2da5ad385678e5df0c7d4dc",
  "parentHash": "0x8094b9448f2db0acef1cbe0d75478fdae58fd3ddea33e25e556ae6a521c2332c",
  "number": 68443,
  "timestamp": 1439288015,
  "nonce": "0xc31202be82740561",
  "difficulty": 2007454035421,
  "gasLimit": {
    "_hex": "0x2fefd8"
  },
  "gasUsed": {
    "_hex": "0xf618"
  },
  "miner": "0x67B3F11a0e02DBe28208D4F85528D08Cd7C0AA75",
  "extraData": "0x",
  "transactions": [
    {
      "hash": "0x27cadb8335adc5d76572e6a0ffaae4a1d418673a5427c032a66067ccfb6e48dd",
      "blockHash": "0x9ab693a72ee8a4febbfbebe1c48d44817f63c554f2da5ad385678e5df0c7d4dc",
      "blockNumber": 68443,
      "transactionIndex": 0,
      "confirmations": null,
      "from": "0x12614c4D024a865466B4CBa60FE4006131745b2f",
      "gasPrice": {
        "_hex": "0xba43b7400"
      },
      "gasLimit": {
        "_hex": "0x5208"
      },
      "to": "0xe580B5d164cdc0DE94c58f49A2B3A161d56c5f8F",
      "value": {
        "_hex": "0xc1c23435b07000"
      },
      "nonce": 1,
      "data": "0x",
      "r": "0x24e3bd0afedd9b7b7a342f45805bd8f54bd154acd023b36d158a786c48679ec6",
      "s": "0x54991399acbf8f497eb632e4535e7bf502a8bb5fe5347fe7126dd4792cc3d8ed",
      "v": 28,
      "creates": null,
      "raw": "0xf86b01850ba43b740082520894e580b5d164cdc0de94c58f49a2b3a161d56c5f8f87c1c23435b07000801ca024e3bd0afedd9b7b7a342f45805bd8f54bd154acd023b36d158a786c48679ec6a054991399acbf8f497eb632e4535e7bf502a8bb5fe5347fe7126dd4792cc3d8ed",
      "networkId": 0,
      "chainId": 0
    },
    {
      "hash": "0x56f2976d459fefbc73b3c1f9fdee028bbc3b344ccad6fcc34f9e758bbc5ffa5b",
      "blockHash": "0x9ab693a72ee8a4febbfbebe1c48d44817f63c554f2da5ad385678e5df0c7d4dc",
      "blockNumber": 68443,
      "transactionIndex": 1,
      "confirmations": null,
      "from": "0x91Bb1e4deCBA5c69152c6F73B83Ad792e587171d",
      "gasPrice": {
        "_hex": "0xba43b7400"
      },
      "gasLimit": {
        "_hex": "0x5208"
      },
      "to": "0x3e15dD383aE6C3E86B43a770fC62C699FA4b4E8E",
      "value": {
        "_hex": "0xc1c23435b07000"
      },
      "nonce": 1,
      "data": "0x",
      "r": "0x74be2ce8775f8e84b75872f25b81342cc46ba7dbe59416c46ce48d9f07bf343b",
      "s": "0x3065bda5612245cc1cc10e9ff50c185eb99be923dc8367361043ddb61c5875fc",
      "v": 27,
      "creates": null,
      "raw": "0xf86b01850ba43b7400825208943e15dd383ae6c3e86b43a770fc62c699fa4b4e8e87c1c23435b07000801ba074be2ce8775f8e84b75872f25b81342cc46ba7dbe59416c46ce48d9f07bf343ba03065bda5612245cc1cc10e9ff50c185eb99be923dc8367361043ddb61c5875fc",
      "networkId": 0,
      "chainId": 0
    },
    {
      "hash": "0xdcaddc25530fe7889a94ce8cba658ce038e9715269bc836cd53c4676ef0fe0e6",
      "blockHash": "0x9ab693a72ee8a4febbfbebe1c48d44817f63c554f2da5ad385678e5df0c7d4dc",
      "blockNumber": 68443,
      "transactionIndex": 2,
      "confirmations": null,
      "from": "0xAa21d7F3D0b344045E33EDD2884Ef51Db6c491C7",
      "gasPrice": {
        "_hex": "0xba43b7400"
      },
      "gasLimit": {
        "_hex": "0x5208"
      },
      "to": "0x2DB6Ead51b46e58Ca87Cb59d666F2CB65FA28e40",
      "value": {
        "_hex": "0xc1c23435b07000"
      },
      "nonce": 1,
      "data": "0x",
      "r": "0x7a8a0354b6597e8c8e13c020dab8410958c9ac4536c8ae8f3147dcd2d0fc8a4e",
      "s": "0x0efd15e2ec9de69ccb28980711c1e8bcee34732174455678d3d443a213912bd8",
      "v": 27,
      "creates": null,
      "raw": "0xf86b01850ba43b7400825208942db6ead51b46e58ca87cb59d666f2cb65fa28e4087c1c23435b07000801ba07a8a0354b6597e8c8e13c020dab8410958c9ac4536c8ae8f3147dcd2d0fc8a4ea00efd15e2ec9de69ccb28980711c1e8bcee34732174455678d3d443a213912bd8",
      "networkId": 0,
      "chainId": 0
    }
  ]
}