{
  "hash": "0xe9e31467b4dab5b1ee16350bb5bbb1fec540e12317f4a29a63fdd9bf374e0530",
  "parentHash": "0x31e9083a2dba4d32a1bdc8a23a067846f63e3564e2b70197b647ca9af33ff7c2",
  "number": 91837,
  "timestamp": 1439662286,
  "nonce": "0x96fbee77bcdccdd3",
  "difficulty": 3492853963781,
  "gasLimit": {
    "_hex": "0x2fefd8"
  },
  "gasUsed": {
    "_hex": "0x5208"
  },
  "miner": "0x87898CE53471043FcCa0a2aF4E1dC6d8B3fCf607",
  "extraData": "0x476574682f5369626572696131392f76312e302e312d37666266393930632f6c",
  "transactions": [
    {
      "hash": "0xfeacac099f7c62afb3f4209012233cbe07e5063d057ea7993dda30070a280c4c",
      "blockHash": "0xe9e31467b4dab5b1ee16350bb5bbb1fec540e12317f4a29a63fdd9bf374e0530",
      "blockNumber": 91837,
      "transactionIndex": 0,
      "confirmations": null,
      "from": "0x32Be343B94f860124dC4fEe278FDCBD38C102D88",
      "gasPrice": {
        "_hex": "0xdb480f924"
      },
      "gasLimit": {
        "_hex": "0x5208"
      },
      "to": "0xb62A0BF317fceb39ed916f0F9E60e623Ad309127",
      "value": {
        "_hex": "0x14de37b348e588000"
      },
      "nonce": 887,
      "data": "0x",
      "r": "0x1c284fcde1b820edfe797af353ceb0688213d1528d9a158c1a9fd2a3dc67df3a",
      "s": "0x78296b914cee718679fba964c30f9bf65e7acc6f9bcc0a0f8af1d1009d2a1fd8",
      "v": 27,
      "creates": null,
      "raw": "0xf86f820377850db480f92482520894b62a0bf317fceb39ed916f0f9e60e623ad30912789014de37b348e588000801ba01c284fcde1b820edfe797af353ceb0688213d1528d9a158c1a9fd2a3dc67df3aa078296b914cee718679fba964c30f9bf65e7acc6f9bcc0a0f8af1d1009d2a1fd8",
      "networkId": 0,
      "chainId": 0
    }
  ]
}