{
  "hash": "0x0293216c0023ddae04f1bca0beccbbe230db6e6960778a4d1806e27bdb55bcd6",
  "parentHash": "0xbc732e314e4f1cf12c75a4f5524c4e0c268a7c848083c3cee1bc1f0b632f714d",
  "number": 54517,
  "timestamp": 1439055326,
  "nonce": "0x7c2679783a99ad06",
  "difficulty": 1622038370880,
  "gasLimit": {
    "_hex": "0x2fefd8"
  },
  "gasUsed": {
    "_hex": "0x5208"
  },
  "miner": "0xf927a40C8B7F6E07c5af7FA2155B4864a4112B13",
  "extraData": "0x476574682f76312e302e312f6c696e75782f676f312e342e32",
  "transactions": [
    {
      "hash": "0x0373db0bebe4f45071cfa3799a3bb9d9e1c57963d954493a9e63d0027e2e59bb",
      "blockHash": "0x0293216c0023ddae04f1bca0beccbbe230db6e6960778a4d1806e27bdb55bcd6",
      "blockNumber": 54517,
      "transactionIndex": 0,
      "confirmations": null,
      "from": "0xcaD6D85426181593cf3E16f594824847600c6122",
      "gasPrice": {
        "_hex": "0xd743fd8b9"
      },
      "gasLimit": {
        "_hex": "0x5208"
      },
      "to": "0xb6c00721Fbd69a851EE6456d71C429fBd8f0d022",
      "value": {
        "_hex": "0x3cb71f51fc5580000"
      },
      "nonce": 2,
      "data": "0x",
      "r": "0xb7de26dbdaf5f5772002be4bc98d09cdb3852b3a9c898b80aa43dd49b9b85638",
      "s": "0x17d6fd9e1ef84d95849fd2f00209dee6e2fc9badda85386ca8c054741e52bc30",
      "v": 28,
      "creates": null,
      "raw": "0xf86d02850d743fd8b982520894b6c00721fbd69a851ee6456d71c429fbd8f0d0228903cb71f51fc5580000801ca0b7de26dbdaf5f5772002be4bc98d09cdb3852b3a9c898b80aa43dd49b9b85638a017d6fd9e1ef84d95849fd2f00209dee6e2fc9badda85386ca8c054741e52bc30",
      "networkId": 0,
      "chainId": 0
    }
  ]
}