{
  "hash": "0x27c48a03820e17ce1e96440f4fb8e5b1d6271f6f01c9643f13d826dda8133c66",
  "parentHash": "0x2936be367e53525bf6b4a39a20a4c033b0dcd11986918a332ee392167003c53a",
  "number": 118064,
  "timestamp": 1440119980,
  "nonce": "0x9f5fe8c8a99d5f48",
  "difficulty": 4335474026406,
  "gasLimit": {
    "_hex": "0x2fefd8"
  },
  "gasUsed": {
    "_hex": "0x5208"
  },
  "miner": "0xf8E0CA3Ed80bd541b94BEdCf259e8CF2141A9523",
  "extraData": "0x",
  "transactions": [
    {
      "hash": "0x0d991f7b5884ec91b3836a1a5e839d23485d942883a5fa10a7b97e3c67095c25",
      "blockHash": "0x27c48a03820e17ce1e96440f4fb8e5b1d6271f6f01c9643f13d826dda8133c66",
      "blockNumber": 118064,
      "transactionIndex": 0,
      "confirmations": null,
      "from": "0xDa1d8D4c5fcF90F031f912409052224a15B83101",
      "gasPrice": {
        "_hex": "0xba43b7400"
      },
      "gasLimit": {
        "_hex": "0x15f90"
      },
      "to": "0xeDc1c224e7D9A03E71143A45645d83e12fB0acb5",
      "value": {
        "_hex": "0x5776e8eb899834000"
      },
      "nonce": 2,
      "data": "0x",
      "r": "0x52fea44a18ccbd1fe352a0689e52f183b99f5ba814e0f72ba9484eb0c27b5aea",
      "s": "0x2b2c2f2b2fbb2bdf17217bf51e218431300fdfd65c4f2551e1a2fb4229a78adb",
      "v": 28,
      "creates": null,
      "raw": "0xf86e02850ba43b740083015f9094edc1c224e7d9a03e71143a45645d83e12fb0acb58905776e8eb899834000801ca052fea44a18ccbd1fe352a0689e52f183b99f5ba814e0f72ba9484eb0c27b5aeaa02b2c2f2b2fbb2bdf17217bf51e218431300fdfd65c4f2551e1a2fb4229a78adb",
      "networkId": 0,
      "chainId": 0
    }
  ]
}