{
  "hash": "0x9db1ab8385ef3950640036cf38d6c5ea408158e52f7bb10888d1012a6b8d35a1",
  "parentHash": "0xc33a4299d52aecd444839b7ad2890be59505e773102830c10d3335e3a05fa0ae",
  "number": 53901,
  "timestamp": 1439045425,
  "nonce": "0x458a839b905c74bc",
  "difficulty": 1601693859374,
  "gasLimit": {
    "_hex": "0x2fefd2"
  },
  "gasUsed": {
    "_hex": "0x546c"
  },
  "miner": "0xbe4532E1B1Db5c913Cf553be76180c1777055403",
  "extraData": "0x476574682f686261722f76312e302e312f6c696e75782f676f312e342e32",
  "transactions": [
    {
      "hash": "0x8a0ae52cd0697b2d4304cf55e6e4264a150f89b267b177c6faad70eae425cc5b",
      "blockHash": "0x9db1ab8385ef3950640036cf38d6c5ea408158e52f7bb10888d1012a6b8d35a1",
      "blockNumber": 53901,
      "transactionIndex": 0,
      "confirmations": null,
      "from": "0x09d6CEFd75b0c4b3F8f1D687A522C96123F1F539",
      "gasPrice": {
        "_hex": "0x1122fa6c90f"
      },
      "gasLimit": {
        "_hex": "0x7918"
      },
      "to": "0x2910543Af39abA0Cd09dBb2D50200b3E800A63D2",
      "value": {
        "_hex": "0xde0b6b3a7640000"
      },
      "nonce": 4,
      "data": "0x454e4337464d375547",
      "r": "0x744090eafff93ed8aceb131198513f5f6bbb0a950ff76f0a6b76f2508c9ea33f",
      "s": "0x273b4138792c6305562885278d189a7bbd2e0f889f95fab01b2292a74dbf8b94",
      "v": 27,
      "creates": null,
      "raw": "0xf876048601122fa6c90f827918942910543af39aba0cd09dbb2d50200b3e800a63d2880de0b6b3a764000089454e4337464d3755471ba0744090eafff93ed8aceb131198513f5f6bbb0a950ff76f0a6b76f2508c9ea33fa0273b4138792c6305562885278d189a7bbd2e0f889f95fab01b2292a74dbf8b94",
      "networkId": 0,
      "chainId": 0
    }
  ]
}