{
  "hash": "0x92062eb7449ddecf0aaae671e5201e2dc557a08c56e6e161b727da5fd1ec6237",
  "parentHash": "0x5f006b8b569422f1b5ddc08a7299727cc5e79ae4b97aca60e6c727447542db8c",
  "number": 90459,
  "timestamp": 1439640384,
  "nonce": "0x1140d82843c67c94",
  "difficulty": 3336708980301,
  "gasLimit": {
    "_hex": "0x2fefd5"
  },
  "gasUsed": {
    "_hex": "0x546c"
  },
  "miner": "0x88D74a59454F6cF3B51ef6b9136AFb6b9D405A88",
  "extraData": "0x476574682f76312e302e312d37666266393930632f6c696e75782f676f312e34",
  "transactions": [
    {
      "hash": "0x24118362982944258cd25fe3f58f84896fa1ad409f4eafe4661e46c47f69d71f",
      "blockHash": "0x92062eb7449ddecf0aaae671e5201e2dc557a08c56e6e161b727da5fd1ec6237",
      "blockNumber": 90459,
      "transactionIndex": 0,
      "confirmations": null,
      "from": "0x271e8fC01E1C9E1621fD3d108e348450b2498541",
      "gasPrice": {
        "_hex": "0xd4be89f70"
      },
      "gasLimit": {
        "_hex": "0x55f0"
      },
      "to": "0x2910543Af39abA0Cd09dBb2D50200b3E800A63D2",
      "value": {
        "_hex": "0x1bc16d674ec800000"
      },
      "nonce": 14,
      "data": "0x454e30334b52455730",
      "r": "0xd2c09d8d65218a43f6f526ff82ef0d0864e890de7d419a8a8808692756438645",
      "s": "0x4a78111bf5c8b77ae6d5b99b555d9547a518101972b735439772238271548863",
      "v": 28,
      "creates": null,
      "raw": "0xf8760e850d4be89f708255f0942910543af39aba0cd09dbb2d50200b3e800a63d28901bc16d674ec80000089454e30334b524557301ca0d2c09d8d65218a43f6f526ff82ef0d0864e890de7d419a8a8808692756438645a04a78111bf5c8b77ae6d5b99b555d9547a518101972b735439772238271548863",
      "networkId": 0,
      "chainId": 0
    }
  ]
}