{
  "hash": "0xe00f5b73d79680aa74751142412d319bcec7f638a071d4af2f8b2f0286abee5a",
  "parentHash": "0x2c51527090c89382cb618f44025084291594461938a38adcbfa9db2be1da429f",
  "number": 121680,
  "timestamp": 1440180892,
  "nonce": "0x1dbbe78d9448d32c",
  "difficulty": 4479910281150,
  "gasLimit": {
    "_hex": "0x2fefd8"
  },
  "gasUsed": {
    "_hex": "0xa410"
  },
  "miner": "0x790b8a3cE86E707ED0eD32bF89B3269692a23CC1",
  "extraData": "0xd783010002844765746887676f312e342e32856c696e7578",
  "transactions": [
    {
      "hash": "0xdb7cfb13312940b4f5c66c346698d692e8c40ce2ddb2ffcc494757c2732c6579",
      "blockHash": "0xe00f5b73d79680aa74751142412d319bcec7f638a071d4af2f8b2f0286abee5a",
      "blockNumber": 121680,
      "transactionIndex": 0,
      "confirmations": null,
      "from": "0x17B719A685fC6C0002798e7f8151D0E2E83B7497",
      "gasPrice": {
        "_hex": "0xba43b7400"
      },
      "gasLimit": {
        "_hex": "0x15f90"
      },
      "to": "0x8F79f76381Aad7B98C19aF55eE75fdfEeb012211",
      "value": {
        "_hex": "0xa1544be879ea80000"
      },
      "nonce": 2,
      "data": "0x",
      "r": "0xaffac82e76108077971cafcfea96e8390bdb57e6c18b3c89200f8f1bf18f789b",
      "s": "0x2f76a5ba66ce2787a1599f71a725122deac781d9c212ea94ccbb96f99d17e1a5",
      "v": 28,
      "creates": null,
      "raw": "0xf86e02850ba43b740083015f90948f79f76381aad7b98c19af55ee75fdfeeb012211890a1544be879ea80000801ca0affac82e76108077971cafcfea96e8390bdb57e6c18b3c89200f8f1bf18f789ba02f76a5ba66ce2787a1599f71a725122deac781d9c212ea94ccbb96f99d17e1a5",
      "networkId": 0,
      "chainId": 0
    },
    {
      "hash": "0xab9073bed6077ddb36985d55de6636aded646a1907aa4388358f29ac55deef73",
      "blockHash": "0xe00f5b73d79680aa74751142412d319bcec7f638a071d4af2f8b2f0286abee5a",
      "blockNumber": 121680,
      "transactionIndex": 1,
      "confirmations": null,
      "from": "0xAbA21175EF27AcBe1648642b9D9E678b856F62a8",
      "gasPrice": {
        "_hex": "0xba43b7400"
      },
      "gasLimit": {
        "_hex": "0x15f90"
      },
      "to": "0x3F587446d527E3a66c695E46D735838500fA92fe",
      "value": {
        "_hex": "0xe35fa931a0000"
      },
      "nonce": 2,
      "data": "0x",
      "r": "0xabc2833bb574d42f5c04a24fdf055622bbdd7909c7030ea4eba6bc729947aa62",
      "s": "0x350fa7943ee516824044a5173bfa044b26d2cecd0b521ceb70e10466916862ea",
      "v": 28,
      "creates": null,
      "raw": "0xf86c02850ba43b740083015f90943f587446d527e3a66c695e46d735838500fa92fe870e35fa931a0000801ca0abc2833bb574d42f5c04a24fdf055622bbdd7909c7030ea4eba6bc729947aa62a0350fa7943ee516824044a5173bfa044b26d2cecd0b521ceb70e10466916862ea",
      "networkId": 0,
      "chainId": 0
    }
  ]
}