{
  "hash": "0x9bc6e12f6e6f0fcec76409fc84d59debc318525aa04c3dbf4c97ec6db5d6ca5d",
  "parentHash": "0xd1a9a43bd8d6fd21163cba79122f4eaa7d85fc13ea98d2bbc6f239d3f6069c62",
  "number": 84425,
  "timestamp": 1439549424,
  "nonce": "0xbe7b54ed7ade2109",
  "difficulty": 2570204645177,
  "gasLimit": {
    "_hex": "0x2fefd8"
  },
  "gasUsed": {
    "_hex": "0xf618"
  },
  "miner": "0x7E6930B63D03e88F5928C5cd6ee3FCee4D714F7F",
  "extraData": "0x",
  "transactions": [
    {
      "hash": "0x71013a1404250c6c719f73eed7d1ec55e2c5268488bece063157644d23826b3a",
      "blockHash": "0x9bc6e12f6e6f0fcec76409fc84d59debc318525aa04c3dbf4c97ec6db5d6ca5d",
      "blockNumber": 84425,
      "transactionIndex": 0,
      "confirmations": null,
      "from": "0x6Fa72015fA78696EFd9A86174f7F1f21019286b1",
      "gasPrice": {
        "_hex": "0xdff979fb9"
      },
      "gasLimit": {
        "_hex": "0x15f90"
      },
      "to": "0xFDE80370e058cfC8292D8eE4D7ed14c37Aa66D89",
      "value": {
        "_hex": "0x4283ed9015ddcffc60"
      },
      "nonce": 2,
      "data": "0x",
      "r": "0xfd7239cc073868fda19c82e70ed60c34bd1bc8de4d7f8b615e3121a45d5df107",
      "s": "0x5f3de9fc9b6bff31f72b9d7a1bb7d91f7feb493c312c9e74ac4e92654331a594",
      "v": 27,
      "creates": null,
      "raw": "0xf86e02850dff979fb983015f9094fde80370e058cfc8292d8ee4d7ed14c37aa66d89894283ed9015ddcffc60801ba0fd7239cc073868fda19c82e70ed60c34bd1bc8de4d7f8b615e3121a45d5df107a05f3de9fc9b6bff31f72b9d7a1bb7d91f7feb493c312c9e74ac4e92654331a594",
      "networkId": 0,
      "chainId": 0
    },
    {
      "hash": "0x67fff720d622f762718ccadf6daf8419d9cf6ad3d285febbedbedb2a0e6cd0fb",
      "blockHash": "0x9bc6e12f6e6f0fcec76409fc84d59debc318525aa04c3dbf4c97ec6db5d6ca5d",
      "blockNumber": 84425,
      "transactionIndex": 1,
      "confirmations": null,
      "from": "0x1406854D149E081aC09Cb4CA560Da463f3123059",
      "gasPrice": {
        "_hex": "0xd75d7658b"
      },
      "gasLimit": {
        "_hex": "0x7a120"
      },
      "to": "0xa0E74ae010D51894734c308D612131056bB721AD",
      "value": {
        "_hex": "0x56bc75e2d63100000"
      },
      "nonce": 18,
      "data": "0x",
      "r": "0x211e46c5de1b35118a4a4c73c0d4340e910ab175cc8a7839e64ef9209a7bfd12",
      "s": "0x18651ecf2ea160789b251ea8387215a2902f22950a1ad6807b39f79ea18e306f",
      "v": 28,
      "creates": null,
      "raw": "0xf86e12850d75d7658b8307a12094a0e74ae010d51894734c308d612131056bb721ad89056bc75e2d63100000801ca0211e46c5de1b35118a4a4c73c0d4340e910ab175cc8a7839e64ef9209a7bfd12a018651ecf2ea160789b251ea8387215a2902f22950a1ad6807b39f79ea18e306f",
      "networkId": 0,
      "chainId": 0
    },
    {
      "hash": "0x7cdc2f50352d7b3754f0808fbf1b83d9ce05fbf086a4441756f47b7dae98bf13",
      "blockHash": "0x9bc6e12f6e6f0fcec76409fc84d59debc318525aa04c3dbf4c97ec6db5d6ca5d",
      "blockNumber": 84425,
      "transactionIndex": 2,
      "confirmations": null,
      "from": "0x1406854D149E081aC09Cb4CA560Da463f3123059",
      "gasPrice": {
        "_hex": "0xd75d7658b"
      },
      "gasLimit": {
        "_hex": "0x7a120"
      },
      "to": "0xa0E74ae010D51894734c308D612131056bB721AD",
      "value": {
        "_hex": "0x56bc75e2d63100000"
      },
      "nonce": 19,
      "data": "0x",
      "r": "0xbd15dd1ec9a53825d41a824b0f1ce1c986b965e86e26e32a3b6d0ba4bea3383f",
      "s": "0x3a3eb6347eecb684a5233a33e130a2fc7f1ae79e650b641e72b41a17be9998f5",
      "v": 27,
      "creates": null,
      "raw": "0xf86e13850d75d7658b8307a12094a0e74ae010d51894734c308d612131056bb721ad89056bc75e2d63100000801ba0bd15dd1ec9a53825d41a824b0f1ce1c986b965e86e26e32a3b6d0ba4bea3383fa03a3eb6347eecb684a5233a33e130a2fc7f1ae79e650b641e72b41a17be9998f5",
      "networkId": 0,
      "chainId": 0
    }
  ]
}