{
  "hash": "0x241705b7663a95f328bfd8fe0316b1efcc3828a343874752629efeaf96d7247b",
  "parentHash": "0xeb1f0169a50f645853396769be5a0ca9af12634a96d8260efa9980783c36d2e4",
  "number": 65090,
  "timestamp": 1439231098,
  "nonce": "0x11e6469dc2c3bbfd",
  "difficulty": 1930378687018,
  "gasLimit": {
    "_hex": "0x2fe418"
  },
  "gasUsed": {
    "_hex": "0x17cd8"
  },
  "miner": "0x47ff6576639c2e94762eA5443978D7681C0E78DC",
  "extraData": "0x476574682f76312e302e312f6c696e75782f676f312e342e32",
  "transactions": [
    {
      "hash": "0xbfbbab0e16ad2caae15d9639ceeea17d7aadb49e53e10278a007968409c9f927",
      "blockHash": "0x241705b7663a95f328bfd8fe0316b1efcc3828a343874752629efeaf96d7247b",
      "blockNumber": 65090,
      "transactionIndex": 0,
      "confirmations": null,
      "from": "0x9912e376B1aaCD3cb9dec1dc7d983e72e49101a4",
      "gasPrice": {
        "_hex": "0xba43b7400"
      },
      "gasLimit": {
        "_hex": "0x15f90"
      },
      "to": "0x793AE8C1b1a160BFc07BFB0d04F85eab1A71F4f2",
      "value": {
        "_hex": "0x0"
      },
      "nonce": 0,
      "data": "0x3ba15036",
      "r": "0x740a26d9bc2c00c4f700b86e3a9cf4ed63fe61687f7edd60de5126244baf83aa",
      "s": "0x09bee93bcb2acd6c8341c31e77b87d62526fa085bce20b1690f254174fbb0868",
      "v": 28,
      "creates": null,
      "raw": "0xf86980850ba43b740083015f9094793ae8c1b1a160bfc07bfb0d04f85eab1a71f4f280843ba150361ca0740a26d9bc2c00c4f700b86e3a9cf4ed63fe61687f7edd60de5126244baf83aaa009bee93bcb2acd6c8341c31e77b87d62526fa085bce20b1690f254174fbb0868",
      "networkId": 0,
      "chainId": 0
    },
    {
      "hash": "0xd2c3a9b0846ef3fa73388e2b60a529989373df4c00c0a244c551b64d15fa27b3",
      "blockHash": "0x241705b7663a95f328bfd8fe0316b1efcc3828a343874752629efeaf96d7247b",
      "blockNumber": 65090,
      "transactionIndex": 1,
      "confirmations": null,
      "from": "0xF989f7A72a6e5e3Aca7B1E65E467E883B023f5Da",
      "gasPrice": {
        "_hex": "0xba43b7400"
      },
      "gasLimit": {
        "_hex": "0x15f90"
      },
      "to": "0x793AE8C1b1a160BFc07BFB0d04F85eab1A71F4f2",
      "value": {
        "_hex": "0x0"
      },
      "nonce": 0,
      "data": "0x3ba15036",
      "r": "0xc7eb54a4faad11e0d0da8f5aa6941afd325eeeae6f023741f49f31710f0012ab",
      "s": "0x75df9cc4b98feb8da8bed56ff64c482f48b5df99d9e258993cb48bea8d386ad0",
      "v": 28,
      "creates": null,
      "raw": "0xf86980850ba43b740083015f9094793ae8c1b1a160bfc07bfb0d04f85eab1a71f4f280843ba150361ca0c7eb54a4faad11e0d0da8f5aa6941afd325eeeae6f023741f49f31710f0012aba075df9cc4b98feb8da8bed56ff64c482f48b5df99d9e258993cb48bea8d386ad0",
      "networkId": 0,
      "chainId": 0
    }
  ]
}