{
  "hash": "0x0b70a472f88651ec486e899156a81cf83e29aa74353f22fdd37a6210a7ca97f9",
  "parentHash": "0x2c3323e49e092bdf5fcb2fd46eeccbe61aecff74e24098a8c3ad02e457410dee",
  "number": 68976,
  "timestamp": 1439296597,
  "nonce": "0x3068d2f8874f287d",
  "difficulty": 2031980155760,
  "gasLimit": {
    "_hex": "0x2fefd8"
  },
  "gasUsed": {
    "_hex": "0x5208"
  },
  "miner": "0xbb7B8287f3F0a933474a79eAe42CBCa977791171",
  "extraData": "0x476574682f4c5649562f76312e302e312f6c696e75782f676f312e342e32",
  "transactions": [
    {
      "hash": "0x4509ef7345a1d046e786cb9b8c20bd0c1dede692db71d73b30a7c840f383cbc8",
      "blockHash": "0x0b70a472f88651ec486e899156a81cf83e29aa74353f22fdd37a6210a7ca97f9",
      "blockNumber": 68976,
      "transactionIndex": 0,
      "confirmations": null,
      "from": "0xCFA5AF0DC5F71d251275c54CEEDe67ff0546e7C6",
      "gasPrice": {
        "_hex": "0xba43b7400"
      },
      "gasLimit": {
        "_hex": "0x5208"
      },
      "to": "0x4DEd26f6128464a4463e60daD9d5777dc256113D",
      "value": {
        "_hex": "0x11e4ee79bf23000"
      },
      "nonce": 1,
      "data": "0x",
      "r": "0xd6111e67da91da0e08403a47ba81ae18e8d264e3bd427810f6736626eb2998d3",
      "s": "0x0e00dcc8c4b317600c919b3283c0e8998c46a3d198f40f81c085af2feeb5f68f",
      "v": 28,
      "creates": null,
      "raw": "0xf86c01850ba43b7400825208944ded26f6128464a4463e60dad9d5777dc256113d88011e4ee79bf23000801ca0d6111e67da91da0e08403a47ba81ae18e8d264e3bd427810f6736626eb2998d3a00e00dcc8c4b317600c919b3283c0e8998c46a3d198f40f81c085af2feeb5f68f",
      "networkId": 0,
      "chainId": 0
    }
  ]
}