{
  "hash": "0x06d0463bd00f07df99c224afa9a19df9f4ddef315b73f709fc424ca4bdde20df",
  "parentHash": "0x816f84d33416e4e0dd2258557be229c8062456981f6c58da014741575b364b47",
  "number": 106584,
  "timestamp": 1439906946,
  "nonce": "0x414e281bb627f2c9",
  "difficulty": 4479222481774,
  "gasLimit": {
    "_hex": "0x2fefd8"
  },
  "gasUsed": {
    "_hex": "0xf618"
  },
  "miner": "0xe6A7a1d47ff21B6321162AEA7C6CB457D5476Bca",
  "extraData": "0x476574682f76312e302e312d38326566323666362f6c696e75782f676f312e34",
  "transactions": [
    {
      "hash": "0x9b60d4590a8d264c780fa54897bd569915fcba2a5af6b1654e3f971f6c78bac4",
      "blockHash": "0x06d0463bd00f07df99c224afa9a19df9f4ddef315b73f709fc424ca4bdde20df",
      "blockNumber": 106584,
      "transactionIndex": 0,
      "confirmations": null,
      "from": "0xC19E6ed60D732A740C1C0844374c4885Ca411743",
      "gasPrice": {
        "_hex": "0xdea1e07d0"
      },
      "gasLimit": {
        "_hex": "0x30d40"
      },
      "to": "0x120A270bbC009644e35F0bB6ab13f95b8199c4ad",
      "value": {
        "_hex": "0x1270b470051fc00"
      },
      "nonce": 0,
      "data": "0x",
      "r": "0xa22d5806d3df04b60ade7d7add81555c07930e9e2fcd837c591af9fe7365a2ef",
      "s": "0x19167dcf625b0afa3fd9c8fa635268b064012992d97faac568038efbb34b1c5b",
      "v": 28,
      "creates": null,
      "raw": "0xf86d80850dea1e07d083030d4094120a270bbc009644e35f0bb6ab13f95b8199c4ad8801270b470051fc00801ca0a22d5806d3df04b60ade7d7add81555c07930e9e2fcd837c591af9fe7365a2efa019167dcf625b0afa3fd9c8fa635268b064012992d97faac568038efbb34b1c5b",
      "networkId": 0,
      "chainId": 0
    },
    {
      "hash": "0xa65869dfb0ca1bfc6295d28348ad4c1f069796840bb3e5f709532c6570a5e7c2",
      "blockHash": "0x06d0463bd00f07df99c224afa9a19df9f4ddef315b73f709fc424ca4bdde20df",
      "blockNumber": 106584,
      "transactionIndex": 1,
      "confirmations": null,
      "from": "0x2910543Af39abA0Cd09dBb2D50200b3E800A63D2",
      "gasPrice": {
        "_hex": "0xd72a5f0be"
      },
      "gasLimit": {
        "_hex": "0x5208"
      },
      "to": "0x2f86ba8019945f39edE131D38d4d8780884DA553",
      "value": {
        "_hex": "0x3635b7ea4ca6bf8000"
      },
      "nonce": 1035,
      "data": "0x",
      "r": "0x7d2e9ac03a51c0228e8cfacb3f7a72b7440f71990399ed3ededb819be1d8cedf",
      "s": "0x520ad6b67101898936b589eb33a0c0036a2417f065e481243c2d0a662d819466",
      "v": 28,
      "creates": null,
      "raw": "0xf86f82040b850d72a5f0be825208942f86ba8019945f39ede131d38d4d8780884da553893635b7ea4ca6bf8000801ca07d2e9ac03a51c0228e8cfacb3f7a72b7440f71990399ed3ededb819be1d8cedfa0520ad6b67101898936b589eb33a0c0036a2417f065e481243c2d0a662d819466",
      "networkId": 0,
      "chainId": 0
    },
    {
      "hash": "0x730a5dbd85ec0a05bd6128dba663b3e82a76c47be24a993588c465abfbcae1b8",
      "blockHash": "0x06d0463bd00f07df99c224afa9a19df9f4ddef315b73f709fc424ca4bdde20df",
      "blockNumber": 106584,
      "transactionIndex": 2,
      "confirmations": null,
      "from": "0x83D8Eec14470cdd640ec06e83212519D19B804bc",
      "gasPrice": {
        "_hex": "0xd41013c7c"
      },
      "gasLimit": {
        "_hex": "0x15f90"
      },
      "to": "0x2fd8Ad8C541bc201DD24a3C7b60FCBBB6429A4E2",
      "value": {
        "_hex": "0x7ce66c50e2840000"
      },
      "nonce": 1,
      "data": "0x",
      "r": "0xa647965cdf0551c9d41b679dd847fbf530cdfcf2ef3d610a4d4defe73f9450dc",
      "s": "0x3fee25634bc946bf47dd3498f7a7daad8e80ee311bcc1c360a87549cdd18b0fd",
      "v": 28,
      "creates": null,
      "raw": "0xf86d01850d41013c7c83015f90942fd8ad8c541bc201dd24a3c7b60fcbbb6429a4e2887ce66c50e2840000801ca0a647965cdf0551c9d41b679dd847fbf530cdfcf2ef3d610a4d4defe73f9450dca03fee25634bc946bf47dd3498f7a7daad8e80ee311bcc1c360a87549cdd18b0fd",
      "networkId": 0,
      "chainId": 0
    }
  ]
}