{
  "hash": "0x3de8fd239cc3d0a7c0d57f82cec3bd66142dddd3eab1d121f885b2b995117503",
  "parentHash": "0x18e51f8b39525cc6fc6845ce87291753d726310d299b1c298307ffb111b4cfa5",
  "number": 112412,
  "timestamp": 1440007063,
  "nonce": "0x2b833357d6c41bc9",
  "difficulty": 4406715930723,
  "gasLimit": {
    "_hex": "0x2fefd8"
  },
  "gasUsed": {
    "_hex": "0xa410"
  },
  "miner": "0xe6A7a1d47ff21B6321162AEA7C6CB457D5476Bca",
  "extraData": "0x476574682f76312e302e312d38326566323666362f6c696e75782f676f312e34",
  "transactions": [
    {
      "hash": "0xe45cda2ff5d06997cf6c1fd4a5d8c20c58123d65ae60bce4ad59459e1ba651b3",
      "blockHash": "0x3de8fd239cc3d0a7c0d57f82cec3bd66142dddd3eab1d121f885b2b995117503",
      "blockNumber": 112412,
      "transactionIndex": 0,
      "confirmations": null,
      "from": "0x32Be343B94f860124dC4fEe278FDCBD38C102D88",
      "gasPrice": {
        "_hex": "0xe2bac51f0"
      },
      "gasLimit": {
        "_hex": "0x5208"
      },
      "to": "0x06F1954B2d0Abe779ec3BbBca2F3A637c14509dD",
      "value": {
        "_hex": "0xdbd2fc137a30000"
      },
      "nonce": 1340,
      "data": "0x",
      "r": "0xd8a446c2f0cb3f21b1c96e3d0443492b9a172092ea4117350c8a2fbeb393dc28",
      "s": "0x44f5ed26ce989296f262c491fbdad69041519d60aaf59e9084bce8fd19ac3cac",
      "v": 28,
      "creates": null,
      "raw": "0xf86e82053c850e2bac51f08252089406f1954b2d0abe779ec3bbbca2f3a637c14509dd880dbd2fc137a30000801ca0d8a446c2f0cb3f21b1c96e3d0443492b9a172092ea4117350c8a2fbeb393dc28a044f5ed26ce989296f262c491fbdad69041519d60aaf59e9084bce8fd19ac3cac",
      "networkId": 0,
      "chainId": 0
    },
    {
      "hash": "0x4cf013bde2025f8aa31c7eb96fccd7f28ab5c6cd170051552a3d183621966493",
      "blockHash": "0x3de8fd239cc3d0a7c0d57f82cec3bd66142dddd3eab1d121f885b2b995117503",
      "blockNumber": 112412,
      "transactionIndex": 1,
      "confirmations": null,
      "from": "0x458F183347F45a4001807728A89F31E9Da9D4A58",
      "gasPrice": {
        "_hex": "0xcfc07ebce"
      },
      "gasLimit": {
        "_hex": "0x15f90"
      },
      "to": "0x7313946aA53dCDd777C90905D75A9B41e17Ca2c9",
      "value": {
        "_hex": "0x1bc16d674ec80000"
      },
      "nonce": 47,
      "data": "0x",
      "r": "0xc0b30466ead888d2a53ceaa087a80f7d2778e5f5f214ceff679932a30c71cdb4",
      "s": "0x38ceea7260a1bb502cde307ab179e29a4bbd8f6ba804910310a3cb57ecd23fd1",
      "v": 28,
      "creates": null,
      "raw": "0xf86d2f850cfc07ebce83015f90947313946aa53dcdd777c90905d75a9b41e17ca2c9881bc16d674ec80000801ca0c0b30466ead888d2a53ceaa087a80f7d2778e5f5f214ceff679932a30c71cdb4a038ceea7260a1bb502cde307ab179e29a4bbd8f6ba804910310a3cb57ecd23fd1",
      "networkId": 0,
      "chainId": 0
    }
  ]
}