{
  "hash": "0x62f902bf050c4877aa75378dff8e2d3d93cbdfb32ed16bf7a7e853519da6eccc",
  "parentHash": "0x778447f03777a70c914b0fc23c4403dd6251e03371c29f7ff0998eb60e223e22",
  "number": 100708,
  "timestamp": 1439810976,
  "nonce": "0x4e1c153620d4399b",
  "difficulty": 3837712562491,
  "gasLimit": {
    "_hex": "0x2fefd8"
  },
  "gasUsed": {
    "_hex": "0x5208"
  },
  "miner": "0x76d4a9bc9612bE738A81d0fE632b00B971E2bB9a",
  "extraData": "0x",
  "transactions": [
    {
      "hash": "0x49b4fa2103738fc25097cf019ff593ab658dee6f32115bc741f3d4a040c53086",
      "blockHash": "0x62f902bf050c4877aa75378dff8e2d3d93cbdfb32ed16bf7a7e853519da6eccc",
      "blockNumber": 100708,
      "transactionIndex": 0,
      "confirmations": null,
      "from": "0x7884D470204862a0d1A21122F41ee77430396Ee5",
      "gasPrice": {
        "_hex": "0xcf1a2740e"
      },
      "gasLimit": {
        "_hex": "0x15f90"
      },
      "to": "0x793d023CA82d977dAd23B85B4E6357E4E53eaC60",
      "value": {
        "_hex": "0x186cc6acd4b0000"
      },
      "nonce": 66,
      "data": "0x",
      "r": "0x9c60db80d80210752a22b6a0d98125f233809d8ed9f0b107a394f5cf796c3a67",
      "s": "0x5ee802dfc0b43deffce64799979fdbd5a83d3c8b872cdd017494867153ce1f89",
      "v": 27,
      "creates": null,
      "raw": "0xf86d42850cf1a2740e83015f9094793d023ca82d977dad23b85b4e6357e4e53eac60880186cc6acd4b0000801ba09c60db80d80210752a22b6a0d98125f233809d8ed9f0b107a394f5cf796c3a67a05ee802dfc0b43deffce64799979fdbd5a83d3c8b872cdd017494867153ce1f89",
      "networkId": 0,
      "chainId": 0
    }
  ]
}