{
  "hash": "0xc94a523986585bcbcdf4a6faaefd00fedf00936a043f03c7389337d3a75badfe",
  "parentHash": "0x9bc1305d06f2303dd5e9e474e88c846b69804e9bd0ff3fe285013f2235829704",
  "number": 68941,
  "timestamp": 1439295986,
  "nonce": "0x298d3d9cd9b18ca4",
  "difficulty": 2032981058161,
  "gasLimit": {
    "_hex": "0x2fefd8"
  },
  "gasUsed": {
    "_hex": "0xf618"
  },
  "miner": "0x858079E02403b10748B71A02195b6608Abaf6b8f",
  "extraData": "0x476574682f76312e302e312f77696e646f77732f676f312e342e32",
  "transactions": [
    {
      "hash": "0x2187139636a140643cdfc6de93a24434e8d9874ac2eefc074f90c184b32aeba6",
      "blockHash": "0xc94a523986585bcbcdf4a6faaefd00fedf00936a043f03c7389337d3a75badfe",
      "blockNumber": 68941,
      "transactionIndex": 0,
      "confirmations": null,
      "from": "0x5Bd7842d8a39931007FAa0454fb235A0dFB4143c",
      "gasPrice": {
        "_hex": "0xba43b7400"
      },
      "gasLimit": {
        "_hex": "0x5208"
      },
      "to": "0xd1F105e1859Ea55476CB304f015F997Ed9Ca6bd0",
      "value": {
        "_hex": "0xaa9f075c200000"
      },
      "nonce": 1,
      "data": "0x",
      "r": "0xbd9939bb6f1bb4c078219060b733e7985cac555d02ce7cc1d6fdf0c00e026610",
      "s": "0x522d17e1c56603533fabd83f3ba344f202731598f10679f3b0c2f5b857aaa031",
      "v": 28,
      "creates": null,
      "raw": "0xf86b01850ba43b740082520894d1f105e1859ea55476cb304f015f997ed9ca6bd087aa9f075c200000801ca0bd9939bb6f1bb4c078219060b733e7985cac555d02ce7cc1d6fdf0c00e026610a0522d17e1c56603533fabd83f3ba344f202731598f10679f3b0c2f5b857aaa031",
      "networkId": 0,
      "chainId": 0
    },
    {
      "hash": "0x0f95209a9592f7793697deaa77fec86eee127705c137ab05ba1d22ebd81f2cc1",
      "blockHash": "0xc94a523986585bcbcdf4a6faaefd00fedf00936a043f03c7389337d3a75badfe",
      "blockNumber": 68941,
      "transactionIndex": 1,
      "confirmations": null,
      "from": "0xd1079398D21E23EAaddA7178e5Ad5E114e11D57f",
      "gasPrice": {
        "_hex": "0xba43b7400"
      },
      "gasLimit": {
        "_hex": "0x5208"
      },
      "to": "0xd352EBaF7D800953741B07638a90d0d01E7f2Fe7",
      "value": {
        "_hex": "0xaa9f075c200000"
      },
      "nonce": 1,
      "data": "0x",
      "r": "0x5af59d8fe074ca8ca3a064deceef4e17fe5a04337d8ba3b1aa275c50cd70911b",
      "s": "0x5e26fda53c721a4b8c26dfb3ec956954f9b03c5d11472215bd2668fc81d0e613",
      "v": 28,
      "creates": null,
      "raw": "0xf86b01850ba43b740082520894d352ebaf7d800953741b07638a90d0d01e7f2fe787aa9f075c200000801ca05af59d8fe074ca8ca3a064deceef4e17fe5a04337d8ba3b1aa275c50cd70911ba05e26fda53c721a4b8c26dfb3ec956954f9b03c5d11472215bd2668fc81d0e613",
      "networkId": 0,
      "chainId": 0
    },
    {
      "hash": "0x7ce9296225431bf50ded06f22e2c41b7ed66400425c987ad673d71f9eb558add",
      "blockHash": "0xc94a523986585bcbcdf4a6faaefd00fedf00936a043f03c7389337d3a75badfe",
      "blockNumber": 68941,
      "transactionIndex": 2,
      "confirmations": null,
      "from": "0x790D724959b5641A5041F3bFf130e1a97e75E132",
      "gasPrice": {
        "_hex": "0xba43b7400"
      },
      "gasLimit": {
        "_hex": "0x5208"
      },
      "to": "0x5b915a920711fd4f281E098BF4010e3AE55135B8",
      "value": {
        "_hex": "0xaa9f075c200000"
      },
      "nonce": 1,
      "data": "0x",
      "r": "0x13e7c0094caa49071c7f1aabd327836a69d408daca3281d652cab7bce9c22312",
      "s": "0x363dbad99792799d839577a367350137b62461496e20d6421e5cc541348aedff",
      "v": 28,
      "creates": null,
      "raw": "0xf86b01850ba43b7400825208945b915a920711fd4f281e098bf4010e3ae55135b887aa9f075c200000801ca013e7c0094caa49071c7f1aabd327836a69d408daca3281d652cab7bce9c22312a0363dbad99792799d839577a367350137b62461496e20d6421e5cc541348aedff",
      "networkId": 0,
      "chainId": 0
    }
  ]
}