{
  "hash": "0x67185ae0a71399f2e323703619949021f72dfe1c366d2aa02d1bb36c684adeb0",
  "parentHash": "0x40143e8ae6304797ea2a270859c43504b49b8ed87347d72a464c3be4f95071e9",
  "number": 97077,
  "timestamp": 1439750411,
  "nonce": "0x7ddb3b41578e5c6a",
  "difficulty": 3755932887995,
  "gasLimit": {
    "_hex": "0x2fefd8"
  },
  "gasUsed": {
    "_hex": "0xa410"
  },
  "miner": "0xe6A7a1d47ff21B6321162AEA7C6CB457D5476Bca",
  "extraData": "0x476574682f76312e302e312d38326566323666362f6c696e75782f676f312e34",
  "transactions": [
    {
      "hash": "0xa4d672ba4fd3dac4932a480443abbebf9567c6eb4749974a621e84b6729010be",
      "blockHash": "0x67185ae0a71399f2e323703619949021f72dfe1c366d2aa02d1bb36c684adeb0",
      "blockNumber": 97077,
      "transactionIndex": 0,
      "confirmations": null,
      "from": "0x007f7f58D3eb5b7510A301eCC749FC1fCDDBE14D",
      "gasPrice": {
        "_hex": "0xe308e1d1f"
      },
      "gasLimit": {
        "_hex": "0x15f90"
      },
      "to": "0xb1abce2918E21ddb93AA452731a12672A3d9F75a",
      "value": {
        "_hex": "0x4563918244f40000"
      },
      "nonce": 92,
      "data": "0x",
      "r": "0xd8403e20175f961635f6bb36033e70c13c172414cbcabd11b3c44391a5634f8a",
      "s": "0x05c3236224c418aaad69a2344f5dd52496be4cce3e1ad03238c57e0d551fb1d6",
      "v": 27,
      "creates": null,
      "raw": "0xf86d5c850e308e1d1f83015f9094b1abce2918e21ddb93aa452731a12672a3d9f75a884563918244f40000801ba0d8403e20175f961635f6bb36033e70c13c172414cbcabd11b3c44391a5634f8aa005c3236224c418aaad69a2344f5dd52496be4cce3e1ad03238c57e0d551fb1d6",
      "networkId": 0,
      "chainId": 0
    },
    {
      "hash": "0xe72b4fd5f6aeab0fb6f011ed5ac4e021974bb1dfe8324e4229f388f98a694f78",
      "blockHash": "0x67185ae0a71399f2e323703619949021f72dfe1c366d2aa02d1bb36c684adeb0",
      "blockNumber": 97077,
      "transactionIndex": 1,
      "confirmations": null,
      "from": "0x59C7860aBcb1eE791165B63365c3C8657EEe54c5",
      "gasPrice": {
        "_hex": "0xd28130294"
      },
      "gasLimit": {
        "_hex": "0x15f90"
      },
      "to": "0xF42B87d9E83eb6b6947aaBD558904Bc615C6091f",
      "value": {
        "_hex": "0x6124fee993bc0000"
      },
      "nonce": 1,
      "data": "0x",
      "r": "0xce03c64620eec8113e6a2c3c38e4cce56ce23f99f08a66242d343ffdfbcff4c8",
      "s": "0x62b6ee4654479c343a7b3ee93b86e308f6d3741eba06e9094c8e27540cc99380",
      "v": 27,
      "creates": null,
      "raw": "0xf86d01850d2813029483015f9094f42b87d9e83eb6b6947aabd558904bc615c6091f886124fee993bc0000801ba0ce03c64620eec8113e6a2c3c38e4cce56ce23f99f08a66242d343ffdfbcff4c8a062b6ee4654479c343a7b3ee93b86e308f6d3741eba06e9094c8e27540cc99380",
      "networkId": 0,
      "chainId": 0
    }
  ]
}