{
  "hash": "0x993c48ecc7099196f99e241f02981e07841fc83b3992a91e6ac41d7b7c458fab",
  "parentHash": "0x4ab679b56122a4d1eb94119b5e1fe5dba08038e72a9d1444e2cad5a8eb8d2390",
  "number": 59827,
  "timestamp": 1439144359,
  "nonce": "0x42b1580d035be1f9",
  "difficulty": 1720510291180,
  "gasLimit": {
    "_hex": "0x2fefd8"
  },
  "gasUsed": {
    "_hex": "0x5698"
  },
  "miner": "0x39A1BB80a741bF5EC39FB9BE59408Fa0F418fFBf",
  "extraData": "0x476574682f76312e302e312f77696e646f77732f676f312e342e32",
  "transactions": [
    {
      "hash": "0x17c4b7b6a90e7f4402387181ae1216624d518860d484659f5a5c1f60a27db571",
      "blockHash": "0x993c48ecc7099196f99e241f02981e07841fc83b3992a91e6ac41d7b7c458fab",
      "blockNumber": 59827,
      "transactionIndex": 0,
      "confirmations": null,
      "from": "0xAcE365e4cD93314Ccf1C389F17216FFC5966BB1F",
      "gasPrice": {
        "_hex": "0x10bea8586b6"
      },
      "gasLimit": {
        "_hex": "0x15f90"
      },
      "to": "0x0000000000000000000000000000000000000000",
      "value": {
        "_hex": "0x0"
      },
      "nonce": 1,
      "data": "0x432ced04456172746820446f6c6c61720000000000000000000000000000000000000000",
      "r": "0xf9ef82f10ee9c52fb0b1232874319ccf34d18d75d907a242ee8804bef49d141d",
      "s": "0x5bae705266873b68d5c56b76b79a09a7ea709a1f7d0084143cb7a0d1bf01f1e7",
      "v": 27,
      "creates": null,
      "raw": "0xf88a0186010bea8586b683015f9094000000000000000000000000000000000000000080a4432ced04456172746820446f6c6c617200000000000000000000000000000000000000001ba0f9ef82f10ee9c52fb0b1232874319ccf34d18d75d907a242ee8804bef49d141da05bae705266873b68d5c56b76b79a09a7ea709a1f7d0084143cb7a0d1bf01f1e7",
      "networkId": 0,
      "chainId": 0
    }
  ]
}