{
  "hash": "0x364ac9a5db3f991f24cef3c75838190aa93a541e3aaaf0192dacb33cf2807733",
  "parentHash": "0x365670ec09faa535785592bdffad2b3a954cd9361467aceb098dfae2b41926ef",
  "number": 97417,
  "timestamp": 1439755749,
  "nonce": "0xcba303c4ca02b33d",
  "difficulty": 3811201907730,
  "gasLimit": {
    "_hex": "0x2fefd8"
  },
  "gasUsed": {
    "_hex": "0xa410"
  },
  "miner": "0x580992B51e3925e23280EfB93d3047C82f17E038",
  "extraData": "0x476574682f76312e302e312f6c696e75782f676f312e342e32",
  "transactions": [
    {
      "hash": "0x59dff9db5720080c6610ebae019d62f236265a7c37a10a8f798ec7deb4d9c138",
      "blockHash": "0x364ac9a5db3f991f24cef3c75838190aa93a541e3aaaf0192dacb33cf2807733",
      "blockNumber": 97417,
      "transactionIndex": 0,
      "confirmations": null,
      "from": "0x2AeDF47e935C75601e9D779453F1a5F8c616bd6E",
      "gasPrice": {
        "_hex": "0xd8ea0a407"
      },
      "gasLimit": {
        "_hex": "0x5208"
      },
      "to": "0xFBb1b73C4f0BDa4f67dcA266ce6Ef42f520fBB98",
      "value": {
        "_hex": "0x2c6c210e7bbac245400"
      },
      "nonce": 5,
      "data": "0x",
      "r": "0x68a2ac2e336822114c6d90d4c3cd7b2e8d765503992649ff2fff897d4c2a6f8b",
      "s": "0x5e44a9c80ac378e39b4c7a4d2d49b8aeee14048e14b93e2bc771cbb9a2038551",
      "v": 28,
      "creates": null,
      "raw": "0xf86e05850d8ea0a40782520894fbb1b73c4f0bda4f67dca266ce6ef42f520fbb988a02c6c210e7bbac245400801ca068a2ac2e336822114c6d90d4c3cd7b2e8d765503992649ff2fff897d4c2a6f8ba05e44a9c80ac378e39b4c7a4d2d49b8aeee14048e14b93e2bc771cbb9a2038551",
      "networkId": 0,
      "chainId": 0
    },
    {
      "hash": "0xf2cc1707c4278c7c1c7cbfcecd2df3314f9e4568d1406150b9fae404e87dab3f",
      "blockHash": "0x364ac9a5db3f991f24cef3c75838190aa93a541e3aaaf0192dacb33cf2807733",
      "blockNumber": 97417,
      "transactionIndex": 1,
      "confirmations": null,
      "from": "0xa6BDc31c431B8F97848c9D60cbbe9660dc450eB7",
      "gasPrice": {
        "_hex": "0xceafe75ee"
      },
      "gasLimit": {
        "_hex": "0x5208"
      },
      "to": "0x32Be343B94f860124dC4fEe278FDCBD38C102D88",
      "value": {
        "_hex": "0x455f6dd44d2f9c00"
      },
      "nonce": 132,
      "data": "0x",
      "r": "0xaa1122915f6aea4079c4991fcef84c59998ac50b9fd7f0a03227a063230ddfe7",
      "s": "0x348af386499d51dcf922bdf3919ad7972d6db8ffe082d6452c088b350e064799",
      "v": 27,
      "creates": null,
      "raw": "0xf86d8184850ceafe75ee8252089432be343b94f860124dc4fee278fdcbd38c102d8888455f6dd44d2f9c00801ba0aa1122915f6aea4079c4991fcef84c59998ac50b9fd7f0a03227a063230ddfe7a0348af386499d51dcf922bdf3919ad7972d6db8ffe082d6452c088b350e064799",
      "networkId": 0,
      "chainId": 0
    }
  ]
}