{
  "hash": "0xd17311b302b239b6e53be8d6b48c662236e9b440ce2a981fb389362d4e189979",
  "parentHash": "0xefcabe88c477c802effd4db5e1777720e462c51a4f68c4bba593cecc5cb3a0d5",
  "number": 98739,
  "timestamp": 1439778286,
  "nonce": "0x406d19a13bbbb399",
  "difficulty": 3829253283061,
  "gasLimit": {
    "_hex": "0x2fefd8"
  },
  "gasUsed": {
    "_hex": "0x5208"
  },
  "miner": "0x7aAaa306d4a7Fd1696A82A66cc538D29f5af4e39",
  "extraData": "0x",
  "transactions": [
    {
      "hash": "0x104cfd573ed0a8392f40272e38e5eceec96e6cfe6f16066860bb4ce60a700a38",
      "blockHash": "0xd17311b302b239b6e53be8d6b48c662236e9b440ce2a981fb389362d4e189979",
      "blockNumber": 98739,
      "transactionIndex": 0,
      "confirmations": null,
      "from": "0xF87481A262E993a75F791E7859E71BaC36A606Eb",
      "gasPrice": {
        "_hex": "0xcea93de26"
      },
      "gasLimit": {
        "_hex": "0x5208"
      },
      "to": "0x32Be343B94f860124dC4fEe278FDCBD38C102D88",
      "value": {
        "_hex": "0x8ac2ff797ed5f800"
      },
      "nonce": 33,
      "data": "0x",
      "r": "0x88c8c4baf4f174f3a72f90b4d77acf629782fac16525b32872f5ae7e6019add9",
      "s": "0x47af74cee248693ec9b90b52ba9f8ed15c97565b0cffe76659df6bb623101afd",
      "v": 27,
      "creates": null,
      "raw": "0xf86c21850cea93de268252089432be343b94f860124dc4fee278fdcbd38c102d88888ac2ff797ed5f800801ba088c8c4baf4f174f3a72f90b4d77acf629782fac16525b32872f5ae7e6019add9a047af74cee248693ec9b90b52ba9f8ed15c97565b0cffe76659df6bb623101afd",
      "networkId": 0,
      "chainId": 0
    }
  ]
}