{
  "hash": "0xbfa9a0927fbbb53f7f1226570c1ab9c37e0969b3f7c896648026339ac7edfea2",
  "parentHash": "0x493684cde7e3337d54e8310ae4419934451f57c6bb6181f956b51c8a72a99f8f",
  "number": 65674,
  "timestamp": 1439241053,
  "nonce": "0xb02b526716984fbd",
  "difficulty": 1934017994884,
  "gasLimit": {
    "_hex": "0x2fefd8"
  },
  "gasUsed": {
    "_hex": "0x5208"
  },
  "miner": "0x79d5794171E11dd5C2f0e26E1C187319db2FE6f7",
  "extraData": "0x",
  "transactions": [
    {
      "hash": "0x0ce35e740f077148dfe82e6775ff730a594c8729f655d396c502d1ac01cc0871",
      "blockHash": "0xbfa9a0927fbbb53f7f1226570c1ab9c37e0969b3f7c896648026339ac7edfea2",
      "blockNumber": 65674,
      "transactionIndex": 0,
      "confirmations": null,
      "from": "0xB1a2B43A7433dd150BB82227eD519Cd6b142d382",
      "gasPrice": {
        "_hex": "0xe1bc2d36d"
      },
      "gasLimit": {
        "_hex": "0x15f90"
      },
      "to": "0x323568426ffe039a56c0aF194e87aBde5ee2Ffa2",
      "value": {
        "_hex": "0x5150ae84a8cdf00000"
      },
      "nonce": 8,
      "data": "0x",
      "r": "0x82286b5fa585c74d8993b5ff9270618aafda3df39bbcf93f23e2c9b9dbea9257",
      "s": "0x0afe86462a0c9efef592489b5f0a38320c66140a0fa0f684690762e9aa9c4cba",
      "v": 27,
      "creates": null,
      "raw": "0xf86e08850e1bc2d36d83015f9094323568426ffe039a56c0af194e87abde5ee2ffa2895150ae84a8cdf00000801ba082286b5fa585c74d8993b5ff9270618aafda3df39bbcf93f23e2c9b9dbea9257a00afe86462a0c9efef592489b5f0a38320c66140a0fa0f684690762e9aa9c4cba",
      "networkId": 0,
      "chainId": 0
    }
  ]
}