{
  "hash": "0xe5d861a4b25104d34f177e322dcc33c1eec01693e737fa2cc465f87a45e902aa",
  "parentHash": "0x335c7665fa0f1d724738565428ca907b81d3ba7c1b307b42180212ec43643e47",
  "number": 55144,
  "timestamp": 1439066048,
  "nonce": "0x77b8b09b5abb36fb",
  "difficulty": 1637034236250,
  "gasLimit": {
    "_hex": "0x2ff24b"
  },
  "gasUsed": {
    "_hex": "0xa674"
  },
  "miner": "0x47ff6576639c2e94762eA5443978D7681C0E78DC",
  "extraData": "0x476574682f76312e302e312f6c696e75782f676f312e342e32",
  "transactions": [
    {
      "hash": "0x1c0ed473d497dcba19857a291867ca31b93ed6a45d9716009ace871f64f994f5",
      "blockHash": "0xe5d861a4b25104d34f177e322dcc33c1eec01693e737fa2cc465f87a45e902aa",
      "blockNumber": 55144,
      "transactionIndex": 0,
      "confirmations": null,
      "from": "0xC6Bf5B6558f2eE21F2E43d9fF9B5408A0Cb89413",
      "gasPrice": {
        "_hex": "0xcb7a55191"
      },
      "gasLimit": {
        "_hex": "0x15f90"
      },
      "to": "0x33A3f479f6c3e7F91128348490D1f7E8D2A0FAb5",
      "value": {
        "_hex": "0x8ac7230489e80000"
      },
      "nonce": 8,
      "data": "0x",
      "r": "0x6de8dc28fa8e3ba96f88962a7cb5620d674b71f1af5b3874f3a39f8bf0455be1",
      "s": "0x748b9b1bcfca366261ddc35c95f9297f2407018f46fb1ba0685042a28cc55b53",
      "v": 28,
      "creates": null,
      "raw": "0xf86d08850cb7a5519183015f909433a3f479f6c3e7f91128348490d1f7e8d2a0fab5888ac7230489e80000801ca06de8dc28fa8e3ba96f88962a7cb5620d674b71f1af5b3874f3a39f8bf0455be1a0748b9b1bcfca366261ddc35c95f9297f2407018f46fb1ba0685042a28cc55b53",
      "networkId": 0,
      "chainId": 0
    },
    {
      "hash": "0x994d9078e0f579976c3325e8ebba2799b37f154266dd8aeba633e5302b7d535b",
      "blockHash": "0xe5d861a4b25104d34f177e322dcc33c1eec01693e737fa2cc465f87a45e902aa",
      "blockNumber": 55144,
      "transactionIndex": 1,
      "confirmations": null,
      "from": "0x0361540510aaC3F834967945511CE54871dc050D",
      "gasPrice": {
        "_hex": "0xbdfd63e00"
      },
      "gasLimit": {
        "_hex": "0x9965e"
      },
      "to": "0x2910543Af39abA0Cd09dBb2D50200b3E800A63D2",
      "value": {
        "_hex": "0x8ac7230489e80000"
      },
      "nonce": 1,
      "data": "0x454e344430414e4830",
      "r": "0x986e536cc6f618a18398ef26118c814657c0579ce61d62c6c49b04209ec96e27",
      "s": "0x5b8a4a77134746dc92a1eb4488cbc336f8b0281b87f513120ac4e599cc91af3b",
      "v": 28,
      "creates": null,
      "raw": "0xf87601850bdfd63e008309965e942910543af39aba0cd09dbb2d50200b3e800a63d2888ac7230489e8000089454e344430414e48301ca0986e536cc6f618a18398ef26118c814657c0579ce61d62c6c49b04209ec96e27a05b8a4a77134746dc92a1eb4488cbc336f8b0281b87f513120ac4e599cc91af3b",
      "networkId": 0,
      "chainId": 0
    }
  ]
}