{
  "hash": "0x38687c534b9c8f376217f1b13ba2ca5c1fad55866ad744e3cddec3964f8792e1",
  "parentHash": "0x7073d9889bec78ae8d94692f1bf85641927b18c29af4d34aec312983b441390e",
  "number": 122353,
  "timestamp": 1440192845,
  "nonce": "0x5ff6376d67a5f34c",
  "difficulty": 4477364134994,
  "gasLimit": {
    "_hex": "0x2fefd8"
  },
  "gasUsed": {
    "_hex": "0x15f90"
  },
  "miner": "0xD0ee3F53eE0fCf3F9fbCcdd17BD1b6441DdC2074",
  "extraData": "0x",
  "transactions": [
    {
      "hash": "0x8f6d29798378cc2b06bae35d077fe624d83234aa2f407899143bbfe2c4c4f8d5",
      "blockHash": "0x38687c534b9c8f376217f1b13ba2ca5c1fad55866ad744e3cddec3964f8792e1",
      "blockNumber": 122353,
      "transactionIndex": 0,
      "confirmations": null,
      "from": "0xD007C3Ce0bFCFE50559e15a3737C236f8Fa15BbE",
      "gasPrice": {
        "_hex": "0xba43b7400"
      },
      "gasLimit": {
        "_hex": "0x15f90"
      },
      "to": "0x0360977F2A812174149Db52a89448Bc85629D3bD",
      "value": {
        "_hex": "0x0"
      },
      "nonce": 13,
      "data": "0xbcaec98a0000000000000000000000000000000000000000000000000000000000000060000000000000000000000000000000000000000000000000000000000000000200000000000000000000000000000000000000000000000000000000000000000000000000000000000000000000000000000000000000000000000000000006000000000000000000000000000000000000000000000000000000000000000100000000000000000000000000000000000000000000000000000000000000020000000000000000000000000000000000000000000000000000000000000003000000000000000000000000000000000000000000000000000000000000000400000000000000000000000000000000000000000000000000000000000000050000000000000000000000000000000000000000000000000000000000000006",
      "r": "0x5604aec2b4931d22b41de9d54b9885b33856c51b7612e0cb12d5851221e64ef9",
      "s": "0x357eb27ae389066f06d229d3188e33a333b6068b0693a8b0c2362b0896bbcd74",
      "v": 28,
      "creates": null,
      "raw": "0xf901ab0d850ba43b740083015f90940360977f2a812174149db52a89448bc85629d3bd80b90144bcaec98a00000000000000000000000000000000000000000000000000000000000000600000000000000000000000000000000000000000000000000000000000000002000000000000000000000000000000000000000000000000000000000000000000000000000000000000000000000000000000000000000000000000000000060000000000000000000000000000000000000000000000000000000000000001000000000000000000000000000000000000000000000000000000000000000200000000000000000000000000000000000000000000000000000000000000030000000000000000000000000000000000000000000000000000000000000004000000000000000000000000000000000000000000000000000000000000000500000000000000000000000000000000000000000000000000000000000000061ca05604aec2b4931d22b41de9d54b9885b33856c51b7612e0cb12d5851221e64ef9a0357eb27ae389066f06d229d3188e33a333b6068b0693a8b0c2362b0896bbcd74",
      "networkId": 0,
      "chainId": 0
    }
  ]
}