{
  "hash": "0xca77c2ff541e5f31ca81f9233025e728a8cf5fb052bfa2e521a25c8d7e577ae5",
  "parentHash": "0xd3b405bd7a52bdc34985b03260863ae4564a8f9f6a49820fa32430e9486d8a55",
  "number": 98146,
  "timestamp": 1439767815,
  "nonce": "0xe51db20c8cd6065a",
  "difficulty": 3872773742652,
  "gasLimit": {
    "_hex": "0x2fefd8"
  },
  "gasUsed": {
    "_hex": "0x5208"
  },
  "miner": "0xaB638742EBe3A78F2a85028350e1AADB86C0a6ed",
  "extraData": "0x",
  "transactions": [
    {
      "hash": "0x4c4ce5f77d959f0f29fc92f97b3a7b9c61922554b84a557158d5624f93e8888d",
      "blockHash": "0xca77c2ff541e5f31ca81f9233025e728a8cf5fb052bfa2e521a25c8d7e577ae5",
      "blockNumber": 98146,
      "transactionIndex": 0,
      "confirmations": null,
      "from": "0x71762C63678C18D1C6378ce068E666381315147e",
      "gasPrice": {
        "_hex": "0x1066e9dc2f2"
      },
      "gasLimit": {
        "_hex": "0x55f0"
      },
      "to": "0x67A75F5fBBCa0974C961b43E7D62204a4093c1Bb",
      "value": {
        "_hex": "0x4563918244f40000"
      },
      "nonce": 0,
      "data": "0x",
      "r": "0x09574de9c851362c7e1047324842fb40f54e0f2b88368c18fe29c5104038d611",
      "s": "0x3db882edf4595739694859dbb4017681081c5e1e16b0a05e4a08f83f6c23644e",
      "v": 27,
      "creates": null,
      "raw": "0xf86d808601066e9dc2f28255f09467a75f5fbbca0974c961b43e7d62204a4093c1bb884563918244f40000801ba009574de9c851362c7e1047324842fb40f54e0f2b88368c18fe29c5104038d611a03db882edf4595739694859dbb4017681081c5e1e16b0a05e4a08f83f6c23644e",
      "networkId": 0,
      "chainId": 0
    }
  ]
}