{
  "hash": "0x99e8a21aad8136818049ca471d5c510b3278988c93ce2746d7166d4be472a5e4",
  "parentHash": "0x9f50f3109baac7747f36b9b8840a6cc39c132ece7ea7d3389a6b7879e2ef10af",
  "number": 109695,
  "timestamp": 1439961029,
  "nonce": "0x9741b703b6961a13",
  "difficulty": 4440548194888,
  "gasLimit": {
    "_hex": "0x2fefd8"
  },
  "gasUsed": {
    "_hex": "0xa6b8"
  },
  "miner": "0xD0ee3F53eE0fCf3F9fbCcdd17BD1b6441DdC2074",
  "extraData": "0x476574682f76312e302e312d38326566323666362f6c696e75782f676f312e34",
  "transactions": [
    {
      "hash": "0xafc3452c5fc817464815d0fb9737b04e1706ebaf9e5d9c7a37822cdce045bdbe",
      "blockHash": "0x99e8a21aad8136818049ca471d5c510b3278988c93ce2746d7166d4be472a5e4",
      "blockNumber": 109695,
      "transactionIndex": 0,
      "confirmations": null,
      "from": "0x007f7f58D3eb5b7510A301eCC749FC1fCDDBE14D",
      "gasPrice": {
        "_hex": "0xd382b0b9c"
      },
      "gasLimit": {
        "_hex": "0x15f90"
      },
      "to": "0xb1abce2918E21ddb93AA452731a12672A3d9F75a",
      "value": {
        "_hex": "0x4563918244f40000"
      },
      "nonce": 276,
      "data": "0x",
      "r": "0x203e0589c5e1cb3b95b30991c77bb30ac2c375ca956cde83f1d43dcbe25f931f",
      "s": "0x43555a0405787ea936a8ad0c6dc2b645f84d71fd4da1e5859127cc4085622fa4",
      "v": 27,
      "creates": null,
      "raw": "0xf86f820114850d382b0b9c83015f9094b1abce2918e21ddb93aa452731a12672a3d9f75a884563918244f40000801ba0203e0589c5e1cb3b95b30991c77bb30ac2c375ca956cde83f1d43dcbe25f931fa043555a0405787ea936a8ad0c6dc2b645f84d71fd4da1e5859127cc4085622fa4",
      "networkId": 0,
      "chainId": 0
    },
    {
      "hash": "0x7a1e94c239e4dd6ff4f8638c88bc82b7deb6a2b54e30d6fa1fef707635fecb7f",
      "blockHash": "0x99e8a21aad8136818049ca471d5c510b3278988c93ce2746d7166d4be472a5e4",
      "blockNumber": 109695,
      "transactionIndex": 1,
      "confirmations": null,
      "from": "0x320e69e693Df6C1476c13836CDBE2F6E5dEf83A1",
      "gasPrice": {
        "_hex": "0xba43b7400"
      },
      "gasLimit": {
        "_hex": "0x55f0"
      },
      "to": "0x40B9b889A21Ff1534d018D71Dc406122EBcf3F5A",
      "value": {
        "_hex": "0x6a94d74f430000"
      },
      "nonce": 8,
      "data": "0x44565855423230363833",
      "r": "0xd8a6ba604182968a579c72be0a1b86642ffadd61999632abdba0f6af266f974e",
      "s": "0x09c28f3ce74d70c50671b577783251000cac63d4c7772b5392479585d932a94a",
      "v": 27,
      "creates": null,
      "raw": "0xf87508850ba43b74008255f09440b9b889a21ff1534d018d71dc406122ebcf3f5a876a94d74f4300008a445658554232303638331ba0d8a6ba604182968a579c72be0a1b86642ffadd61999632abdba0f6af266f974ea009c28f3ce74d70c50671b577783251000cac63d4c7772b5392479585d932a94a",
      "networkId": 0,
      "chainId": 0
    }
  ]
}