{
  "hash": "0x4aedaa6d1e3c3e43d3c94d60774df3f46f7a137aa55c1c103357c6641d7cca71",
  "parentHash": "0x8cfb5ba6fe0f2ae4a364bd8d724a8ef5cb95382a8a55a083b69ea2698113a41a",
  "number": 68783,
  "timestamp": 1439293737,
  "nonce": "0xf180ffa136bebb28",
  "difficulty": 2019169149046,
  "gasLimit": {
    "_hex": "0x2fefd8"
  },
  "gasUsed": {
    "_hex": "0x8f7d"
  },
  "miner": "0x39A1BB80a741bF5EC39FB9BE59408Fa0F418fFBf",
  "extraData": "0x476574682f76312e302e312f77696e646f77732f676f312e342e32",
  "transactions": [
    {
      "hash": "0xd90ce562962445bc66a7e0ce205219fc1307b4e577ff55f8728494a314fffc0a",
      "blockHash": "0x4aedaa6d1e3c3e43d3c94d60774df3f46f7a137aa55c1c103357c6641d7cca71",
      "blockNumber": 68783,
      "transactionIndex": 0,
      "confirmations": null,
      "from": "0x7c56d94ebECcb769524379C450873519a9d805FF",
      "gasPrice": {
        "_hex": "0xba43b7400"
      },
      "gasLimit": {
        "_hex": "0x8fac"
      },
      "to": "0xde0B295669a9FD93d5F28D9Ec85E40f4cb697BAe",
      "value": {
        "_hex": "0x0"
      },
      "nonce": 1,
      "data": "0xf00d4b5d00000000000000000000000005096a47749d8bfab0a90c1bb7a95115dbe4cea60000000000000000000000005ed8cee6b63b1c6afce3ad7c92f4fd7e1b8fad9f",
      "r": "0x15d2710810937fd50ae5e6ce0f4107fa3ff0e445d9a4735f8c6835bd4e4d2956",
      "s": "0x18ff21f4cea49ad0ac86d61736e3d31c52e3d293b458a74b756dc3e65dffcb4a",
      "v": 27,
      "creates": null,
      "raw": "0xf8a901850ba43b7400828fac94de0b295669a9fd93d5f28d9ec85e40f4cb697bae80b844f00d4b5d00000000000000000000000005096a47749d8bfab0a90c1bb7a95115dbe4cea60000000000000000000000005ed8cee6b63b1c6afce3ad7c92f4fd7e1b8fad9f1ba015d2710810937fd50ae5e6ce0f4107fa3ff0e445d9a4735f8c6835bd4e4d2956a018ff21f4cea49ad0ac86d61736e3d31c52e3d293b458a74b756dc3e65dffcb4a",
      "networkId": 0,
      "chainId": 0
    }
  ]
}