{
  "hash": "0x17da525ccd8b21c69ca68603e2134b5f5452dc1b2cc8c97b38fd0217d7bec5d7",
  "parentHash": "0xc44529b9990e4737bfa5ca760b221141d030bba84399230e65646a9d304784d7",
  "number": 113271,
  "timestamp": 1440020453,
  "nonce": "0xd49a40b9b449219d",
  "difficulty": 4526200270907,
  "gasLimit": {
    "_hex": "0x2fefd8"
  },
  "gasUsed": {
    "_hex": "0x5208"
  },
  "miner": "0xcf00A85f3826941e7A25BFcF9Aac575d40410852",
  "extraData": "0x476574682f76312e302e312f77696e646f77732f676f312e342e32",
  "transactions": [
    {
      "hash": "0xaafb8afa9d27d6f9ca2982a1f9157fbf85985a10f16b260e5630d9cc605140c8",
      "blockHash": "0x17da525ccd8b21c69ca68603e2134b5f5452dc1b2cc8c97b38fd0217d7bec5d7",
      "blockNumber": 113271,
      "transactionIndex": 0,
      "confirmations": null,
      "from": "0x120A270bbC009644e35F0bB6ab13f95b8199c4ad",
      "gasPrice": {
        "_hex": "0xdff92d38c"
      },
      "gasLimit": {
        "_hex": "0x3d090"
      },
      "to": "0x6bf4181DB31Ed1c38500284215c6712C643122A4",
      "value": {
        "_hex": "0xde0b6b3a7640000"
      },
      "nonce": 907,
      "data": "0x",
      "r": "0x99df8c47ca12fe9d49fb4f2c228f9084057d238119cd0c12df4fd1da2c0d566d",
      "s": "0x70e664a5e997d23d8aab2242c3614bb3956609868313bf48219e2aa8b5b61eef",
      "v": 27,
      "creates": null,
      "raw": "0xf86f82038b850dff92d38c8303d090946bf4181db31ed1c38500284215c6712c643122a4880de0b6b3a7640000801ba099df8c47ca12fe9d49fb4f2c228f9084057d238119cd0c12df4fd1da2c0d566da070e664a5e997d23d8aab2242c3614bb3956609868313bf48219e2aa8b5b61eef",
      "networkId": 0,
      "chainId": 0
    }
  ]
}