{
  "hash": "0x76b5a51daaad2d00b17ed7b7ac56294aafd2903bfe16cf1e8cdd957619f2cd76",
  "parentHash": "0x6401e18eebb42eca15dd0ef86504081f726db64b257329f67d5a48cc34280cff",
  "number": 102809,
  "timestamp": 1439843477,
  "nonce": "0xed0b931c37a910ac",
  "difficulty": 4058357729679,
  "gasLimit": {
    "_hex": "0x2fefd8"
  },
  "gasUsed": {
    "_hex": "0xf618"
  },
  "miner": "0xC978e305Aaa59952FAb39Ba288d6E9CB09B952E1",
  "extraData": "0x476574682f76312e302e312f77696e646f77732f676f312e342e32",
  "transactions": [
    {
      "hash": "0x4495c8b44b1dad3978e884b85b26bd50e24028efc2be7a6b0c7c91191251e7fb",
      "blockHash": "0x76b5a51daaad2d00b17ed7b7ac56294aafd2903bfe16cf1e8cdd957619f2cd76",
      "blockNumber": 102809,
      "transactionIndex": 0,
      "confirmations": null,
      "from": "0xc3a54b95AEc42EBAEE1b351B4B89c1a0B9759Bb8",
      "gasPrice": {
        "_hex": "0xde10e8b0e"
      },
      "gasLimit": {
        "_hex": "0x15f90"
      },
      "to": "0xd2a25DC828b52BdC5f63b95d5B1D1Bb90d6D299B",
      "value": {
        "_hex": "0xde0b6b3a7640000"
      },
      "nonce": 4,
      "data": "0x",
      "r": "0x6208f7baf923d720896112e886a7099db66bbbf07b01f85d2e42251747544175",
      "s": "0x51d3db9c07a051a59a5603e1bc16983bb87527c8a550686ddaddccd7acb4adf2",
      "v": 27,
      "creates": null,
      "raw": "0xf86d04850de10e8b0e83015f9094d2a25dc828b52bdc5f63b95d5b1d1bb90d6d299b880de0b6b3a7640000801ba06208f7baf923d720896112e886a7099db66bbbf07b01f85d2e42251747544175a051d3db9c07a051a59a5603e1bc16983bb87527c8a550686ddaddccd7acb4adf2",
      "networkId": 0,
      "chainId": 0
    },
    {
      "hash": "0x5545fd6cc9f16e6cd0e1ff58e41ca2a7bf89a23ee194568db0a9d8442a6fd58e",
      "blockHash": "0x76b5a51daaad2d00b17ed7b7ac56294aafd2903bfe16cf1e8cdd957619f2cd76",
      "blockNumber": 102809,
      "transactionIndex": 1,
      "confirmations": null,
      "from": "0xa70a9a7040d542C632D8e0bE7c5513A8a5Bbc752",
      "gasPrice": {
        "_hex": "0xdbefaa5b5"
      },
      "gasLimit": {
        "_hex": "0x5208"
      },
      "to": "0x32Be343B94f860124dC4fEe278FDCBD38C102D88",
      "value": {
        "_hex": "0x455f29e882506c00"
      },
      "nonce": 222,
      "data": "0x",
      "r": "0x3cc828c627e6ac4c23c43b7539fe0a0958b520a0369c96ccb744badb8b7edb9e",
      "s": "0x351a60c7e9593a250f56085856abbed464ca36e23c9e6a0d05859e1089ba487d",
      "v": 27,
      "creates": null,
      "raw": "0xf86d81de850dbefaa5b58252089432be343b94f860124dc4fee278fdcbd38c102d8888455f29e882506c00801ba03cc828c627e6ac4c23c43b7539fe0a0958b520a0369c96ccb744badb8b7edb9ea0351a60c7e9593a250f56085856abbed464ca36e23c9e6a0d05859e1089ba487d",
      "networkId": 0,
      "chainId": 0
    },
    {
      "hash": "0xa61d01124a5555e64ba6801ab94acf1e9da24975a598041cc7a8e2ac66f9e9b1",
      "blockHash": "0x76b5a51daaad2d00b17ed7b7ac56294aafd2903bfe16cf1e8cdd957619f2cd76",
      "blockNumber": 102809,
      "transactionIndex": 2,
      "confirmations": null,
      "from": "0x0EDcC8702211F285ca090EF919b6EFF6C2E92eB0",
      "gasPrice": {
        "_hex": "0xdbefaa5b5"
      },
      "gasLimit": {
        "_hex": "0x5208"
      },
      "to": "0x32Be343B94f860124dC4fEe278FDCBD38C102D88",
      "value": {
        "_hex": "0xc1fe885485527000"
      },
      "nonce": 1,
      "data": "0x",
      "r": "0x64aa37331fb8626e0ac61ccd39f2829f98321fc540864860e71b00573d38de45",
      "s": "0x7b4f326f441320c620efdd58f11ae0241f9969093bb49db78628ab886e9ebbfb",
      "v": 28,
      "creates": null,
      "raw": "0xf86c01850dbefaa5b58252089432be343b94f860124dc4fee278fdcbd38c102d8888c1fe885485527000801ca064aa37331fb8626e0ac61ccd39f2829f98321fc540864860e71b00573d38de45a07b4f326f441320c620efdd58f11ae0241f9969093bb49db78628ab886e9ebbfb",
      "networkId": 0,
      "chainId": 0
    }
  ]
}