{
  "hash": "0xf9b000e39243976d0cc0aaa3596ce1074ef6b8bc28abcaaac9ce05448cfbf780",
  "parentHash": "0x196273edaf59104d42f0a1a93b1676dbb40b7db7665379fa1ff1a4bc2b702089",
  "number": 53011,
  "timestamp": 1439031035,
  "nonce": "0x39949df5817e7e39",
  "difficulty": 1569347634416,
  "gasLimit": {
    "_hex": "0x1db6ff"
  },
  "gasUsed": {
    "_hex": "0x5208"
  },
  "miner": "0xEF247E639d49461D25F57e9362CadE3120910Ce0",
  "extraData": "0x476574682f76312e302e312f6c696e75782f676f312e342e32",
  "transactions": [
    {
      "hash": "0x32b9e3153d1db4f3ef612e90e3af419a357a02de4265cd01a19e778bca757df6",
      "blockHash": "0xf9b000e39243976d0cc0aaa3596ce1074ef6b8bc28abcaaac9ce05448cfbf780",
      "blockNumber": 53011,
      "transactionIndex": 0,
      "confirmations": null,
      "from": "0x6111E933E5e6297DFd0AAd9aAB64017c69062a08",
      "gasPrice": {
        "_hex": "0xccc934498"
      },
      "gasLimit": {
        "_hex": "0x5208"
      },
      "to": "0x32Be343B94f860124dC4fEe278FDCBD38C102D88",
      "value": {
        "_hex": "0x1e5b4ec12df20c000"
      },
      "nonce": 1,
      "data": "0x",
      "r": "0xb77c0e7971d562af0274fd9a5a862fa601e1753326f59504c4e41da55dd2fb33",
      "s": "0x6883e92fda5a7ae5e9a7e990dab2d09d8256290e78a4abf892bdf68ad9c0b79f",
      "v": 28,
      "creates": null,
      "raw": "0xf86d01850ccc9344988252089432be343b94f860124dc4fee278fdcbd38c102d888901e5b4ec12df20c000801ca0b77c0e7971d562af0274fd9a5a862fa601e1753326f59504c4e41da55dd2fb33a06883e92fda5a7ae5e9a7e990dab2d09d8256290e78a4abf892bdf68ad9c0b79f",
      "networkId": 0,
      "chainId": 0
    }
  ]
}