{
  "hash": "0xc5db2caf8f860d3ee7fb00c380a402209acc0bdd5a26a43016dd444c1bd0c3eb",
  "parentHash": "0x2d2abdf2996fb44663e953d4694ebbee2db9d0bc9894615213a175de7eb23f21",
  "number": 50017,
  "timestamp": 1438982816,
  "nonce": "0x84d1e31fb71396d1",
  "difficulty": 1499480155530,
  "gasLimit": {
    "_hex": "0x4b181"
  },
  "gasUsed": {
    "_hex": "0x14f4c"
  },
  "miner": "0x9746c7e1ef2bd21FF3997fa467593a89cb852BD0",
  "extraData": "0x476574682f76312e302e312f77696e646f77732f676f312e342e32",
  "transactions": [
    {
      "hash": "0x493908aa35949d98f7d2b02577a66e1511edfd1e75f2014743ec307f8b29339b",
      "blockHash": "0xc5db2caf8f860d3ee7fb00c380a402209acc0bdd5a26a43016dd444c1bd0c3eb",
      "blockNumber": 50017,
      "transactionIndex": 0,
      "confirmations": null,
      "from": "0x86F05d19063e9369c6004eB3F123943A7cfF4eaB",
      "gasPrice": {
        "_hex": "0x110c8f7d8de"
      },
      "gasLimit": {
        "_hex": "0xc350"
      },
      "to": "0x2910543Af39abA0Cd09dBb2D50200b3E800A63D2",
      "value": {
        "_hex": "0x55de6a779bbac0000"
      },
      "nonce": 1,
      "data": "0x454e5057364e524638",
      "r": "0x5cc9a4f5053755d3cbe320acb2c720f8fdb97a61601e69ec9edb6358eec5122e",
      "s": "0x3e2c34241f159decf92f8ea48067f09c8d6eeefacdf520ecd92605a50cc031e6",
      "v": 28,
      "creates": null,
      "raw": "0xf87701860110c8f7d8de82c350942910543af39aba0cd09dbb2d50200b3e800a63d289055de6a779bbac000089454e5057364e5246381ca05cc9a4f5053755d3cbe320acb2c720f8fdb97a61601e69ec9edb6358eec5122ea03e2c34241f159decf92f8ea48067f09c8d6eeefacdf520ecd92605a50cc031e6",
      "networkId": 0,
      "chainId": 0
    },
    {
      "hash": "0xc173b771ce6c50eff46c7f6024e0e747f6c306767a27cabb8d8e3017b421b250",
      "blockHash": "0xc5db2caf8f860d3ee7fb00c380a402209acc0bdd5a26a43016dd444c1bd0c3eb",
      "blockNumber": 50017,
      "transactionIndex": 1,
      "confirmations": null,
      "from": "0xA29319e81069e5D60dF00F3De5ADEe3505Ecd5fb",
      "gasPrice": {
        "_hex": "0x110c8f7d8de"
      },
      "gasLimit": {
        "_hex": "0xc350"
      },
      "to": "0x2910543Af39abA0Cd09dBb2D50200b3E800A63D2",
      "value": {
        "_hex": "0x6c6a3016135fb60000"
      },
      "nonce": 0,
      "data": "0x454e4e365758593338",
      "r": "0x35b3a8522baff633b1c2f5a55a7d276b1fb0ab55adc7c8a2de412050a7657689",
      "s": "0x4ae80cbd04344b3bb499a0b2e81ae1d60e1d3d65c3491a92a60fcc2e249e1412",
      "v": 28,
      "creates": null,
      "raw": "0xf87780860110c8f7d8de82c350942910543af39aba0cd09dbb2d50200b3e800a63d2896c6a3016135fb6000089454e4e3657585933381ca035b3a8522baff633b1c2f5a55a7d276b1fb0ab55adc7c8a2de412050a7657689a04ae80cbd04344b3bb499a0b2e81ae1d60e1d3d65c3491a92a60fcc2e249e1412",
      "networkId": 0,
      "chainId": 0
    },
    {
      "hash": "0xb9b249251e816bce959069f91b5d02d3a907351e0e4bdb1b660fe9a0562bc144",
      "blockHash": "0xc5db2caf8f860d3ee7fb00c380a402209acc0bdd5a26a43016dd444c1bd0c3eb",
      "blockNumber": 50017,
      "transactionIndex": 2,
      "confirmations": null,
      "from": "0x5E51b8a3BB09D303EA7c86051582fd600FB3DC1a",
      "gasPrice": {
        "_hex": "0x10041aab762"
      },
      "gasLimit": {
        "_hex": "0x15f90"
      },
      "to": "0x796fB5FF91099467f7669c8FB0C68739Fd3a9e40",
      "value": {
        "_hex": "0xcc8effe775420000"
      },
      "nonce": 2,
      "data": "0x",
      "r": "0x33811a64a5e668cca8be5ee5d9422106164c7551cf84ebf37b10c2ce3e12786a",
      "s": "0x42cff6644dbf8acce7416f05dbcd2504a9015063ffff096d8adcd6dc8aeace76",
      "v": 27,
      "creates": null,
      "raw": "0xf86e0286010041aab76283015f9094796fb5ff91099467f7669c8fb0c68739fd3a9e4088cc8effe775420000801ba033811a64a5e668cca8be5ee5d9422106164c7551cf84ebf37b10c2ce3e12786aa042cff6644dbf8acce7416f05dbcd2504a9015063ffff096d8adcd6dc8aeace76",
      "networkId": 0,
      "chainId": 0
    },
    {
      "hash": "0x34e0b1bb33a844acec6672654d8f82e5c79d6e6da4594137463a55f362c0d448",
      "blockHash": "0xc5db2caf8f860d3ee7fb00c380a402209acc0bdd5a26a43016dd444c1bd0c3eb",
      "blockNumber": 50017,
      "transactionIndex": 3,
      "confirmations": null,
      "from": "0xa7247c53D059EB7c9310F628d7Fc6c6A0a773f08",
      "gasPrice": {
        "_hex": "0x45d964b800"
      },
      "gasLimit": {
        "_hex": "0x55f0"
      },
      "to": "0x2910543Af39abA0Cd09dBb2D50200b3E800A63D2",
      "value": {
        "_hex": "0xad78ebc5ac6200000"
      },
      "nonce": 0,
      "data": "0x454e46373246475a47",
      "r": "0xf8cd2a5c7e5263c6124e5ea2aedc93fc7592e2e8fbb4e70e2a7e29a68de163eb",
      "s": "0x555bb9ccc39814a157e48349b5bb7d4b5e32fbba8c10b21b39b1d7c129c31c95",
      "v": 27,
      "creates": null,
      "raw": "0xf876808545d964b8008255f0942910543af39aba0cd09dbb2d50200b3e800a63d2890ad78ebc5ac620000089454e46373246475a471ba0f8cd2a5c7e5263c6124e5ea2aedc93fc7592e2e8fbb4e70e2a7e29a68de163eba0555bb9ccc39814a157e48349b5bb7d4b5e32fbba8c10b21b39b1d7c129c31c95",
      "networkId": 0,
      "chainId": 0
    }
  ]
}