{
  "hash": "0x9d4618102ed2f4e23ce14fd0c2184861c6f69a7a923dd50ec2766b87b9c6b18f",
  "parentHash": "0xd13fe4a6d7f8293862f29c73b584cf0a41e706213e9e34d0ec8d96af5c1f1789",
  "number": 106421,
  "timestamp": 1439903884,
  "nonce": "0xfb6c96a813dd6bda",
  "difficulty": 4494645854708,
  "gasLimit": {
    "_hex": "0x2fefd8"
  },
  "gasUsed": {
    "_hex": "0xc0db"
  },
  "miner": "0x580992B51e3925e23280EfB93d3047C82f17E038",
  "extraData": "0x476574682f76312e302e312f6c696e75782f676f312e342e32",
  "transactions": [
    {
      "hash": "0xb1416e4fea034a5d091cde9614ee1172b091c614ddbac652e49240d35bbeecf8",
      "blockHash": "0x9d4618102ed2f4e23ce14fd0c2184861c6f69a7a923dd50ec2766b87b9c6b18f",
      "blockNumber": 106421,
      "transactionIndex": 0,
      "confirmations": null,
      "from": "0x87C5B5874A18B4306DF8a752a6C8cc3E82daFc19",
      "gasPrice": {
        "_hex": "0x10c028f84d3"
      },
      "gasLimit": {
        "_hex": "0x493e0"
      },
      "to": "0xD79B4C6791784184e2755B2fC1659eaaB0f80456",
      "value": {
        "_hex": "0x0"
      },
      "nonce": 355,
      "data": "0xbd66528a6b6b6b0000000000000000000000000000000000000000000000000000000000",
      "r": "0x293f59a956fd5e02d4848d71a5b81c23f0db418a0d5d2bfc2347645a346eb56e",
      "s": "0x04079b26657634fc81c4c0e6d43c9b60d3650aae6ab6ae476ab603d461987352",
      "v": 28,
      "creates": null,
      "raw": "0xf88c82016386010c028f84d3830493e094d79b4c6791784184e2755b2fc1659eaab0f8045680a4bd66528a6b6b6b00000000000000000000000000000000000000000000000000000000001ca0293f59a956fd5e02d4848d71a5b81c23f0db418a0d5d2bfc2347645a346eb56ea004079b26657634fc81c4c0e6d43c9b60d3650aae6ab6ae476ab603d461987352",
      "networkId": 0,
      "chainId": 0
    },
    {
      "hash": "0x2c14dbc22f803541356fe50733347926d0f0d5379475b3b4cf77c69fd1812cca",
      "blockHash": "0x9d4618102ed2f4e23ce14fd0c2184861c6f69a7a923dd50ec2766b87b9c6b18f",
      "blockNumber": 106421,
      "transactionIndex": 1,
      "confirmations": null,
      "from": "0x32Be343B94f860124dC4fEe278FDCBD38C102D88",
      "gasPrice": {
        "_hex": "0xd19565357"
      },
      "gasLimit": {
        "_hex": "0x5208"
      },
      "to": "0x3e3Ada91f270f8b50A4fC1085F7f15eA3c37C962",
      "value": {
        "_hex": "0x4c50e162ebe3e000"
      },
      "nonce": 1189,
      "data": "0x",
      "r": "0x553f99cdb40cf0ecd6384d4dd02878d88c014eb139bd619bccf5ca9091090c77",
      "s": "0x4caa263b469b541c8b23943008dda11b93e34533d27cee50c26ad64dbc87b638",
      "v": 28,
      "creates": null,
      "raw": "0xf86e8204a5850d19565357825208943e3ada91f270f8b50a4fc1085f7f15ea3c37c962884c50e162ebe3e000801ca0553f99cdb40cf0ecd6384d4dd02878d88c014eb139bd619bccf5ca9091090c77a04caa263b469b541c8b23943008dda11b93e34533d27cee50c26ad64dbc87b638",
      "networkId": 0,
      "chainId": 0
    }
  ]
}