{
  "hash": "0xb137036b92f2e8f93fd019b64bf9d68e5ee6cae85622925ed0c44a6e1c4a49bb",
  "parentHash": "0x9830d8a1b809958d8f831fdba6edf446482ab5e1a2d6aa05708bff981eeb1c7e",
  "number": 56339,
  "timestamp": 1439085621,
  "nonce": "0x7a5bc68881dac361",
  "difficulty": 1655286700419,
  "gasLimit": {
    "_hex": "0x2fefd8"
  },
  "gasUsed": {
    "_hex": "0x5208"
  },
  "miner": "0x0193d941b50d91BE6567c7eE1C0Fe7AF498b4137",
  "extraData": "0x4a5ace9e4e",
  "transactions": [
    {
      "hash": "0xc373876c10d186b7cbb68497705104ce8ab7c79489c3df1df5b02e47275adc50",
      "blockHash": "0xb137036b92f2e8f93fd019b64bf9d68e5ee6cae85622925ed0c44a6e1c4a49bb",
      "blockNumber": 56339,
      "transactionIndex": 0,
      "confirmations": null,
      "from": "0xD2581A55ce23aB10D8AD8c44378F59079BD6F658",
      "gasPrice": {
        "_hex": "0xdf0fba704"
      },
      "gasLimit": {
        "_hex": "0x15f90"
      },
      "to": "0x7a3193C7532579275d8eD0e2e5680959B06c00F5",
      "value": {
        "_hex": "0x2386f26fc10000"
      },
      "nonce": 5,
      "data": "0x",
      "r": "0x0bb51b0f2aa53606ea436ed3ed426b692efb04706622dbd7862fd82415b806e7",
      "s": "0x4a0f3850ad7eaee6cb60b3725f0ee4d154fcce8544e0e8b1e4020f0e0554dead",
      "v": 28,
      "creates": null,
      "raw": "0xf86c05850df0fba70483015f90947a3193c7532579275d8ed0e2e5680959b06c00f5872386f26fc10000801ca00bb51b0f2aa53606ea436ed3ed426b692efb04706622dbd7862fd82415b806e7a04a0f3850ad7eaee6cb60b3725f0ee4d154fcce8544e0e8b1e4020f0e0554dead",
      "networkId": 0,
      "chainId": 0
    }
  ]
}