{
  "hash": "0xcd7fb5eb7514aa829f0e3d0eb15cc7dc8b377e73d8d9ef4f48a836e80ca4efb3",
  "parentHash": "0x59fef4e6abcb8b3082e4c70dd1cab7f682df2baf0c80139cbdab0399bc8642ea",
  "number": 106521,
  "timestamp": 1439905579,
  "nonce": "0x5217ab8038180114",
  "difficulty": 4507779334069,
  "gasLimit": {
    "_hex": "0x2fefd8"
  },
  "gasUsed": {
    "_hex": "0x5208"
  },
  "miner": "0x01d9DA08cc6Fb97c0DE1B6F4C28910A0859Ed1A1",
  "extraData": "0x476574682f76312e302e312f6c696e75782f676f312e342e32",
  "transactions": [
    {
      "hash": "0xf8b8547b1b1658a4de506a3b04ef20e91ec1b1cc7c07ae6a4c9e82df8028c454",
      "blockHash": "0xcd7fb5eb7514aa829f0e3d0eb15cc7dc8b377e73d8d9ef4f48a836e80ca4efb3",
      "blockNumber": 106521,
      "transactionIndex": 0,
      "confirmations": null,
      "from": "0x566E0aa7681c4028af41EAf57a41A8b9c09c644C",
      "gasPrice": {
        "_hex": "0xda877219a"
      },
      "gasLimit": {
        "_hex": "0x5208"
      },
      "to": "0x32Be343B94f860124dC4fEe278FDCBD38C102D88",
      "value": {
        "_hex": "0x1216d7df46098c00000"
      },
      "nonce": 1,
      "data": "0x",
      "r": "0xc663d840a31ca310d3e411ffdb82735679f7bdbfe9c459f78e5f6a9b60208631",
      "s": "0x465a4f6bf82c88346b3b3c4cde125588f59c2c649b5a7401060ea6c5c7ca36f7",
      "v": 27,
      "creates": null,
      "raw": "0xf86e01850da877219a8252089432be343b94f860124dc4fee278fdcbd38c102d888a01216d7df46098c00000801ba0c663d840a31ca310d3e411ffdb82735679f7bdbfe9c459f78e5f6a9b60208631a0465a4f6bf82c88346b3b3c4cde125588f59c2c649b5a7401060ea6c5c7ca36f7",
      "networkId": 0,
      "chainId": 0
    }
  ]
}