{
  "hash": "0xce874ccf09f7628d427925e1b6529b1da5de1a7b98bf87ea370afad3731e87f4",
  "parentHash": "0x3a5c19420d4cb13477a290af1627095cc9f7a4df1b1442950f0e804a2b813b90",
  "number": 87968,
  "timestamp": 1439600432,
  "nonce": "0xffa6c2916c15043d",
  "difficulty": 3186411028329,
  "gasLimit": {
    "_hex": "0x2fefd8"
  },
  "gasUsed": {
    "_hex": "0x5208"
  },
  "miner": "0xbb7B8287f3F0a933474a79eAe42CBCa977791171",
  "extraData": "0x476574682f4c5649562f76312e302e312f6c696e75782f676f312e342e32",
  "transactions": [
    {
      "hash": "0x369933d85f79f352c5ce350da0e1efd945ee05d6d7504104b483a2f8c6bcb9df",
      "blockHash": "0xce874ccf09f7628d427925e1b6529b1da5de1a7b98bf87ea370afad3731e87f4",
      "blockNumber": 87968,
      "transactionIndex": 0,
      "confirmations": null,
      "from": "0x120A270bbC009644e35F0bB6ab13f95b8199c4ad",
      "gasPrice": {
        "_hex": "0xd6271b218"
      },
      "gasLimit": {
        "_hex": "0x3d090"
      },
      "to": "0xc5623FA5c297c05c2d965A336b2068CfA0e567FA",
      "value": {
        "_hex": "0x1fcf8a0f22da5bb000"
      },
      "nonce": 508,
      "data": "0x",
      "r": "0xbf3b47f4ae9a01acc458342fc903096d3f3053e20529d46c98e20fb1df3a5db1",
      "s": "0x680f8518ad0734db915f478c7e835d0c6bd4a52e3f27dbc12350bda99a5d70f9",
      "v": 28,
      "creates": null,
      "raw": "0xf8708201fc850d6271b2188303d09094c5623fa5c297c05c2d965a336b2068cfa0e567fa891fcf8a0f22da5bb000801ca0bf3b47f4ae9a01acc458342fc903096d3f3053e20529d46c98e20fb1df3a5db1a0680f8518ad0734db915f478c7e835d0c6bd4a52e3f27dbc12350bda99a5d70f9",
      "networkId": 0,
      "chainId": 0
    }
  ]
}