{
  "hash": "0x2e1a31c6570ca0ba6f9b3c3a8b4ff1ea0d9d73a9a4cdda8384050df84cb6049d",
  "parentHash": "0x2e0e670b4882987077eb22a6957f0c0cd21cfd788e9f144d42454fb8f844a32e",
  "number": 57431,
  "timestamp": 1439103376,
  "nonce": "0x3818c3a5a2ab6329",
  "difficulty": 1739588761955,
  "gasLimit": {
    "_hex": "0x2fefd8"
  },
  "gasUsed": {
    "_hex": "0x5208"
  },
  "miner": "0xf927a40C8B7F6E07c5af7FA2155B4864a4112B13",
  "extraData": "0x476574682f76312e302e312f6c696e75782f676f312e342e32",
  "transactions": [
    {
      "hash": "0x010ce8bdf2f3ed2f2004d6b4463f8db2e9341049405b50dc0556c74273c34cc9",
      "blockHash": "0x2e1a31c6570ca0ba6f9b3c3a8b4ff1ea0d9d73a9a4cdda8384050df84cb6049d",
      "blockNumber": 57431,
      "transactionIndex": 0,
      "confirmations": null,
      "from": "0xB7268c7705A1866b2A78e882fdfDc8E2a4e1428E",
      "gasPrice": {
        "_hex": "0xd8364fc25"
      },
      "gasLimit": {
        "_hex": "0x15f90"
      },
      "to": "0x96811Ad897894eC178872117C8BF2f03971A393B",
      "value": {
        "_hex": "0x4563918244f40000"
      },
      "nonce": 4,
      "data": "0x",
      "r": "0xc7cdba48b59b8ac4dd542012dd159f4a51e24371cf4cde92e7b4d13e54b33fe6",
      "s": "0x174fc67a34405022c8acf838a23f7af556e0d74e3b9fe8140034dfa2dc8f2df1",
      "v": 27,
      "creates": null,
      "raw": "0xf86d04850d8364fc2583015f909496811ad897894ec178872117c8bf2f03971a393b884563918244f40000801ba0c7cdba48b59b8ac4dd542012dd159f4a51e24371cf4cde92e7b4d13e54b33fe6a0174fc67a34405022c8acf838a23f7af556e0d74e3b9fe8140034dfa2dc8f2df1",
      "networkId": 0,
      "chainId": 0
    }
  ]
}