{
  "hash": "0xb27fd28cd535aea286146a5043ac5edb7a08dd7397a54801669a06eb55b23204",
  "parentHash": "0xe50c0a2ec7acbe39ee7b884b669a363da071ea23aa7d304704ed2427a5dd7ca1",
  "number": 58124,
  "timestamp": 1439115522,
  "nonce": "0x13a1ac089f826fb1",
  "difficulty": 1706634255507,
  "gasLimit": {
    "_hex": "0x2fefd5"
  },
  "gasUsed": {
    "_hex": "0xa674"
  },
  "miner": "0x0b05F904e70ccC93c9a94452F71414Ed9c609f49",
  "extraData": "0x",
  "transactions": [
    {
      "hash": "0x3cda959ac9625a598cb2ec5b38972fbfad577befae3c806f4c2de0a350338be8",
      "blockHash": "0xb27fd28cd535aea286146a5043ac5edb7a08dd7397a54801669a06eb55b23204",
      "blockNumber": 58124,
      "transactionIndex": 0,
      "confirmations": null,
      "from": "0x04E5f5bC7c923FD1E31735e72EF968FD67110c6e",
      "gasPrice": {
        "_hex": "0x110c8f7d8de"
      },
      "gasLimit": {
        "_hex": "0xc350"
      },
      "to": "0x2910543Af39abA0Cd09dBb2D50200b3E800A63D2",
      "value": {
        "_hex": "0x57473d05dabae80000"
      },
      "nonce": 0,
      "data": "0x454e424d4342415930",
      "r": "0x48308bc352a43d5b2cdf75361fec248d67a4d42d2d9caa65337c4f0b2d31fdbc",
      "s": "0xc0e9e7751f2f995aa28b4df0d5089ba53ad73088e179514215a1957ed36ea8ab",
      "v": 27,
      "creates": null,
      "raw": "0xf87780860110c8f7d8de82c350942910543af39aba0cd09dbb2d50200b3e800a63d28957473d05dabae8000089454e424d43424159301ba048308bc352a43d5b2cdf75361fec248d67a4d42d2d9caa65337c4f0b2d31fdbca0c0e9e7751f2f995aa28b4df0d5089ba53ad73088e179514215a1957ed36ea8ab",
      "networkId": 0,
      "chainId": 0
    },
    {
      "hash": "0x295c8739c499b673ae4f8358d0798e2bdfaed4f6f8687629122c92aab6eb19e9",
      "blockHash": "0xb27fd28cd535aea286146a5043ac5edb7a08dd7397a54801669a06eb55b23204",
      "blockNumber": 58124,
      "transactionIndex": 1,
      "confirmations": null,
      "from": "0x32Be343B94f860124dC4fEe278FDCBD38C102D88",
      "gasPrice": {
        "_hex": "0xded55d790"
      },
      "gasLimit": {
        "_hex": "0x5208"
      },
      "to": "0x4e745F269e097f3E00B0B0F66b182281C12FFde1",
      "value": {
        "_hex": "0x1158e460913d00000"
      },
      "nonce": 95,
      "data": "0x",
      "r": "0x8237f9644ed09e83873450f4836cafd2859e8c2ff0338a420b63d85172251461",
      "s": "0x35ee7934a6beb87fe3fe48fb17dc9a019fe7780708e7f84fb4a7df48935a4743",
      "v": 28,
      "creates": null,
      "raw": "0xf86d5f850ded55d790825208944e745f269e097f3e00b0b0f66b182281c12ffde18901158e460913d00000801ca08237f9644ed09e83873450f4836cafd2859e8c2ff0338a420b63d85172251461a035ee7934a6beb87fe3fe48fb17dc9a019fe7780708e7f84fb4a7df48935a4743",
      "networkId": 0,
      "chainId": 0
    }
  ]
}