{
  "hash": "0x606018112e282dfa72b63daa6c72a5216d239e9d50c271d01f9fe75b09724ffa",
  "parentHash": "0x83076c469b87464e27fa1906867d425cfafc02eb73494acd474ecc92352f4f10",
  "number": 87225,
  "timestamp": 1439589130,
  "nonce": "0x5014c7d29c872f99",
  "difficulty": 3072104064289,
  "gasLimit": {
    "_hex": "0x2fefd8"
  },
  "gasUsed": {
    "_hex": "0xa410"
  },
  "miner": "0xe6A7a1d47ff21B6321162AEA7C6CB457D5476Bca",
  "extraData": "0x476574682f76312e302e312d38326566323666362f6c696e75782f676f312e34",
  "transactions": [
    {
      "hash": "0x28a7859e002722ffa6874b039e30cd717656fc3e0a914a845e7e45231d418de5",
      "blockHash": "0x606018112e282dfa72b63daa6c72a5216d239e9d50c271d01f9fe75b09724ffa",
      "blockNumber": 87225,
      "transactionIndex": 0,
      "confirmations": null,
      "from": "0x7313946aA53dCDd777C90905D75A9B41e17Ca2c9",
      "gasPrice": {
        "_hex": "0xd675004ad"
      },
      "gasLimit": {
        "_hex": "0x5208"
      },
      "to": "0x32Be343B94f860124dC4fEe278FDCBD38C102D88",
      "value": {
        "_hex": "0x4825c579624c7c00"
      },
      "nonce": 1,
      "data": "0x",
      "r": "0xb658fdf425aa0c212eeb02d8e8fb0b06682eab0a9c72f49f8e0a2ce577a73be3",
      "s": "0x756a6c5087dd10112794010e4a6bc4b630f7386bcc61ed0d20ef6f3b80a530ee",
      "v": 27,
      "creates": null,
      "raw": "0xf86c01850d675004ad8252089432be343b94f860124dc4fee278fdcbd38c102d88884825c579624c7c00801ba0b658fdf425aa0c212eeb02d8e8fb0b06682eab0a9c72f49f8e0a2ce577a73be3a0756a6c5087dd10112794010e4a6bc4b630f7386bcc61ed0d20ef6f3b80a530ee",
      "networkId": 0,
      "chainId": 0
    },
    {
      "hash": "0x677c9f934f41c0aa99fd7fab6723f949039d6148c0d00d508fde7b14a1e81043",
      "blockHash": "0x606018112e282dfa72b63daa6c72a5216d239e9d50c271d01f9fe75b09724ffa",
      "blockNumber": 87225,
      "transactionIndex": 1,
      "confirmations": null,
      "from": "0xa10F76A0856Df6C76321377105657AD3eB5c830b",
      "gasPrice": {
        "_hex": "0xd675004ad"
      },
      "gasLimit": {
        "_hex": "0x5208"
      },
      "to": "0x32Be343B94f860124dC4fEe278FDCBD38C102D88",
      "value": {
        "_hex": "0x173cb58653228c00"
      },
      "nonce": 0,
      "data": "0x",
      "r": "0x6959a48691a22e2c063d4389c2aac4a2d230531e508b701b28ef30a8041be292",
      "s": "0x245ca43027097381979a40a603651228f7bb06e2074ade9af333d7755cce12d9",
      "v": 28,
      "creates": null,
      "raw": "0xf86c80850d675004ad8252089432be343b94f860124dc4fee278fdcbd38c102d8888173cb58653228c00801ca06959a48691a22e2c063d4389c2aac4a2d230531e508b701b28ef30a8041be292a0245ca43027097381979a40a603651228f7bb06e2074ade9af333d7755cce12d9",
      "networkId": 0,
      "chainId": 0
    }
  ]
}