{
  "hash": "0xe885ed3c57bdf5b33cae27d5b2e014576afd1022626d5e13f3e93310499192a1",
  "parentHash": "0xdb952d41235eed7a868183cc6bfd0e139581f436105a3210a5f6e5f094522ddf",
  "number": 107348,
  "timestamp": 1439920994,
  "nonce": "0x17d8e7816b2c9000",
  "difficulty": 4396477769051,
  "gasLimit": {
    "_hex": "0x2fefd8"
  },
  "gasUsed": {
    "_hex": "0x5208"
  },
  "miner": "0x007f7f58D3eb5b7510A301eCC749FC1fCDDBE14D",
  "extraData": "0x476574682f76312e302e312f77696e646f77732f676f312e342e32",
  "transactions": [
    {
      "hash": "0x76816cfa3d585bc4649af168a00d6e2989eccc81ac17a9b328ad62504b89426a",
      "blockHash": "0xe885ed3c57bdf5b33cae27d5b2e014576afd1022626d5e13f3e93310499192a1",
      "blockNumber": 107348,
      "transactionIndex": 0,
      "confirmations": null,
      "from": "0x3e3Ada91f270f8b50A4fC1085F7f15eA3c37C962",
      "gasPrice": {
        "_hex": "0xd3e72ce50"
      },
      "gasLimit": {
        "_hex": "0x15f90"
      },
      "to": "0xf14113F65cC397c91f89d61AbF0901E558E88C8E",
      "value": {
        "_hex": "0x0"
      },
      "nonce": 2,
      "data": "0x",
      "r": "0x31dfc65dd57013402e8ed95cf8157569dbc523ee2320b7d4112870d3ca8a1eb1",
      "s": "0x434d9d9d83caea11e2c3a20cbb8c027160ff35efab4270df68faa3c54885d2d6",
      "v": 27,
      "creates": null,
      "raw": "0xf86502850d3e72ce5083015f9094f14113f65cc397c91f89d61abf0901e558e88c8e80801ba031dfc65dd57013402e8ed95cf8157569dbc523ee2320b7d4112870d3ca8a1eb1a0434d9d9d83caea11e2c3a20cbb8c027160ff35efab4270df68faa3c54885d2d6",
      "networkId": 0,
      "chainId": 0
    }
  ]
}