{
  "hash": "0x132afb0967f71782f506de87608d945ecaaaf50347fbfbbc55162186d315cf50",
  "parentHash": "0x95d5c3101e295688c5ab970bbeda13baf5621bdde9480ccb799cf70a66e7e251",
  "number": 91227,
  "timestamp": 1439652262,
  "nonce": "0x5f7dc3cdfa301f2b",
  "difficulty": 3449042170892,
  "gasLimit": {
    "_hex": "0x2fefd8"
  },
  "gasUsed": {
    "_hex": "0xa410"
  },
  "miner": "0x040F866D0793aEbf4DaCDA92B2F2128e8599B5CF",
  "extraData": "0x476574682f76312e302e312f6c696e75782f676f312e342e32",
  "transactions": [
    {
      "hash": "0xb81dfb92e3fd441c3cddeaad577c36d0c268b04786a1755cb0c39a76d9df5b62",
      "blockHash": "0x132afb0967f71782f506de87608d945ecaaaf50347fbfbbc55162186d315cf50",
      "blockNumber": 91227,
      "transactionIndex": 0,
      "confirmations": null,
      "from": "0xE9820EfC74A9fe5fb68bf1e0FBf9945c1302bC0B",
      "gasPrice": {
        "_hex": "0xcb7cb0865"
      },
      "gasLimit": {
        "_hex": "0x5208"
      },
      "to": "0x32Be343B94f860124dC4fEe278FDCBD38C102D88",
      "value": {
        "_hex": "0x317049aba914a4000"
      },
      "nonce": 2,
      "data": "0x",
      "r": "0x6bde68c5e617145fecda1a76799a577a08d42c0d4830352952d1cd1ac3783c2d",
      "s": "0x397d14c065ef94618bcfb6443f3f59ba553364204b03327ea109e9e24e83a658",
      "v": 28,
      "creates": null,
      "raw": "0xf86d02850cb7cb08658252089432be343b94f860124dc4fee278fdcbd38c102d88890317049aba914a4000801ca06bde68c5e617145fecda1a76799a577a08d42c0d4830352952d1cd1ac3783c2da0397d14c065ef94618bcfb6443f3f59ba553364204b03327ea109e9e24e83a658",
      "networkId": 0,
      "chainId": 0
    },
    {
      "hash": "0x243f3a6157b1f237ac7ef323cc6e0a691843e315471dbe0952c4fcb259b38ec9",
      "blockHash": "0x132afb0967f71782f506de87608d945ecaaaf50347fbfbbc55162186d315cf50",
      "blockNumber": 91227,
      "transactionIndex": 1,
      "confirmations": null,
      "from": "0x8Ba74c19d14CC77E53A2B1DA67e92F2454E56634",
      "gasPrice": {
        "_hex": "0xcb7cb0865"
      },
      "gasLimit": {
        "_hex": "0x5208"
      },
      "to": "0x32Be343B94f860124dC4fEe278FDCBD38C102D88",
      "value": {
        "_hex": "0x8ac30fbed5ee5000"
      },
      "nonce": 0,
      "data": "0x",
      "r": "0xecf049fec83561baa98acd01d85d1b6c83432531340938774d692888d502672e",
      "s": "0x4cc2c5abb170300f982eac4b31a4d84e6a3cc04d78918f2ccf22cd17fa842088",
      "v": 28,
      "creates": null,
      "raw": "0xf86c80850cb7cb08658252089432be343b94f860124dc4fee278fdcbd38c102d88888ac30fbed5ee5000801ca0ecf049fec83561baa98acd01d85d1b6c83432531340938774d692888d502672ea04cc2c5abb170300f982eac4b31a4d84e6a3cc04d78918f2ccf22cd17fa842088",
      "networkId": 0,
      "chainId": 0
    }
  ]
}