{
  "hash": "0x7f0512af509378c80130d9961f1d9d8284773a797ab35355f9cd0cfc7fc269f2",
  "parentHash": "0xb1bec912a0918b44e8faea283571f51f4f54d5ffeccf20d4effba4f33acc84a3",
  "number": 99153,
  "timestamp": 1439785277,
  "nonce": "0xf85f08324d57e533",
  "difficulty": 3806693980558,
  "gasLimit": {
    "_hex": "0x2fefd8"
  },
  "gasUsed": {
    "_hex": "0xf618"
  },
  "miner": "0xe6A7a1d47ff21B6321162AEA7C6CB457D5476Bca",
  "extraData": "0x476574682f76312e302e312d38326566323666362f6c696e75782f676f312e34",
  "transactions": [
    {
      "hash": "0x1de9a3abab55cec63d590d4ed7677a6ee6c20641083183b4e64cbdc87998a243",
      "blockHash": "0x7f0512af509378c80130d9961f1d9d8284773a797ab35355f9cd0cfc7fc269f2",
      "blockNumber": 99153,
      "transactionIndex": 0,
      "confirmations": null,
      "from": "0xFBb1b73C4f0BDa4f67dcA266ce6Ef42f520fBB98",
      "gasPrice": {
        "_hex": "0xd7d40ace3"
      },
      "gasLimit": {
        "_hex": "0x15f90"
      },
      "to": "0x1a88c57A263f87c39AB07f02045f7bBe559d93bc",
      "value": {
        "_hex": "0x2c8c35fe21010000"
      },
      "nonce": 80,
      "data": "0x",
      "r": "0x1b0aacc1fdcb953fe1f296756e57a952db24173d6023380b2d505652a20f27b1",
      "s": "0x2600e3f066f6fe6b1cb30886e95f53be1f7eba9ad522b78673ce32f7f95708fe",
      "v": 28,
      "creates": null,
      "raw": "0xf86d50850d7d40ace383015f90941a88c57a263f87c39ab07f02045f7bbe559d93bc882c8c35fe21010000801ca01b0aacc1fdcb953fe1f296756e57a952db24173d6023380b2d505652a20f27b1a02600e3f066f6fe6b1cb30886e95f53be1f7eba9ad522b78673ce32f7f95708fe",
      "networkId": 0,
      "chainId": 0
    },
    {
      "hash": "0xbe7a37409317e292d5be3c2cbc2bd126db5f8122bfcf03e41b8cd2093462ed4c",
      "blockHash": "0x7f0512af509378c80130d9961f1d9d8284773a797ab35355f9cd0cfc7fc269f2",
      "blockNumber": 99153,
      "transactionIndex": 1,
      "confirmations": null,
      "from": "0x0D4EcC7d750180EBf4A9Df728B6669B5Bceb5E40",
      "gasPrice": {
        "_hex": "0xcc750423d"
      },
      "gasLimit": {
        "_hex": "0x5208"
      },
      "to": "0x32Be343B94f860124dC4fEe278FDCBD38C102D88",
      "value": {
        "_hex": "0x115964900260f4000"
      },
      "nonce": 52,
      "data": "0x",
      "r": "0xb3c591c902376a20255699beb1583a650096aefca1effa8a6eda983dfc486129",
      "s": "0x3a50eb359cf39cb4db8a9854d5b08557ca3d4f4b969faa85b94012e2473f51fd",
      "v": 27,
      "creates": null,
      "raw": "0xf86d34850cc750423d8252089432be343b94f860124dc4fee278fdcbd38c102d88890115964900260f4000801ba0b3c591c902376a20255699beb1583a650096aefca1effa8a6eda983dfc486129a03a50eb359cf39cb4db8a9854d5b08557ca3d4f4b969faa85b94012e2473f51fd",
      "networkId": 0,
      "chainId": 0
    },
    {
      "hash": "0xac06a3c9fd5a74c2d519c0f81b0d5ff801d75084bd7f93b5b4b74d7f9855da83",
      "blockHash": "0x7f0512af509378c80130d9961f1d9d8284773a797ab35355f9cd0cfc7fc269f2",
      "blockNumber": 99153,
      "transactionIndex": 2,
      "confirmations": null,
      "from": "0xdeE4977F74E6Aef6D627191c9A45D2627e331150",
      "gasPrice": {
        "_hex": "0xcc750423d"
      },
      "gasLimit": {
        "_hex": "0x5208"
      },
      "to": "0x32Be343B94f860124dC4fEe278FDCBD38C102D88",
      "value": {
        "_hex": "0x1158a3a0a04fed000"
      },
      "nonce": 14,
      "data": "0x",
      "r": "0x41b80f0e22e8f7975ba0364db40c62418857a24dc3687db28f3b9fe491f7dda4",
      "s": "0x03fe36e22e1c0139b2596dd24609060c5f02eda4b42abbae24e193923897ace9",
      "v": 27,
      "creates": null,
      "raw": "0xf86d0e850cc750423d8252089432be343b94f860124dc4fee278fdcbd38c102d888901158a3a0a04fed000801ba041b80f0e22e8f7975ba0364db40c62418857a24dc3687db28f3b9fe491f7dda4a003fe36e22e1c0139b2596dd24609060c5f02eda4b42abbae24e193923897ace9",
      "networkId": 0,
      "chainId": 0
    }
  ]
}