{
  "hash": "0xbfa3b43af64ba5fc67f278590cb4624719e8ac9c784a8095b272f089fea843d8",
  "parentHash": "0xad46ea016edce8ab3d6685b6f2d7e1173096514e89b906de73a6e748b08a0645",
  "number": 113424,
  "timestamp": 1440023325,
  "nonce": "0x45c100cf64fa3b3f",
  "difficulty": 4466838829210,
  "gasLimit": {
    "_hex": "0x2fefd8"
  },
  "gasUsed": {
    "_hex": "0x5208"
  },
  "miner": "0xe6A7a1d47ff21B6321162AEA7C6CB457D5476Bca",
  "extraData": "0x476574682f76312e302e312d38326566323666362f6c696e75782f676f312e34",
  "transactions": [
    {
      "hash": "0x7093323797fb90443236e72d39846551ae6cde1c762dec74ca245619639da3c8",
      "blockHash": "0xbfa3b43af64ba5fc67f278590cb4624719e8ac9c784a8095b272f089fea843d8",
      "blockNumber": 113424,
      "transactionIndex": 0,
      "confirmations": null,
      "from": "0xb4c8A15086d7c2E2aa5506FF51e34e3E23d053a7",
      "gasPrice": {
        "_hex": "0xcb09ee0ab"
      },
      "gasLimit": {
        "_hex": "0x5208"
      },
      "to": "0x32Be343B94f860124dC4fEe278FDCBD38C102D88",
      "value": {
        "_hex": "0xa164890b70592800"
      },
      "nonce": 1,
      "data": "0x",
      "r": "0x85173282e96eda10acf1b749ee2a9af9e2b7204774aed53c83ca3a751b0a3651",
      "s": "0x52b2985b8ef0f58c7b49bca55ccd2fa03818b4f974d26d73a52e938b994cb364",
      "v": 27,
      "creates": null,
      "raw": "0xf86c01850cb09ee0ab8252089432be343b94f860124dc4fee278fdcbd38c102d8888a164890b70592800801ba085173282e96eda10acf1b749ee2a9af9e2b7204774aed53c83ca3a751b0a3651a052b2985b8ef0f58c7b49bca55ccd2fa03818b4f974d26d73a52e938b994cb364",
      "networkId": 0,
      "chainId": 0
    }
  ]
}