{
  "hash": "0xfc09c788b63eb60f9adc70beebf33bf26dc65df26a5f84c1c3e88fe746627936",
  "parentHash": "0x2657b982d02bf53b940cb688bfcbdc1826949e30ebffbc37c613c5a473d55016",
  "number": 64530,
  "timestamp": 1439222378,
  "nonce": "0x420ab4d4652edbb9",
  "difficulty": 1876601891922,
  "gasLimit": {
    "_hex": "0x2fefd8"
  },
  "gasUsed": {
    "_hex": "0xf618"
  },
  "miner": "0x2134e2a2b718DCa96580ECAC31E653Ea1fdd58DA",
  "extraData": "0x476574682f76312e302e312f77696e646f77732f676f312e342e32",
  "transactions": [
    {
      "hash": "0x46454cf28ad3ef2374b56dbf1c373006a78a5ee20a3e627ed5fb5feef1c0bee5",
      "blockHash": "0xfc09c788b63eb60f9adc70beebf33bf26dc65df26a5f84c1c3e88fe746627936",
      "blockNumber": 64530,
      "transactionIndex": 0,
      "confirmations": null,
      "from": "0x20a8D178f543EaFdab3638E52c6546b6Db0536c2",
      "gasPrice": {
        "_hex": "0xba43b7400"
      },
      "gasLimit": {
        "_hex": "0x5208"
      },
      "to": "0xAB54437bD27bB7e6914e9B36927F5a128Bc1487f",
      "value": {
        "_hex": "0x36ef271c4dd000"
      },
      "nonce": 1,
      "data": "0x",
      "r": "0x37e1e34fdf289783d48d303c7744da0d16fcfddfc541eb6ad92be49b3e60a6ea",
      "s": "0x53617c16a295dffeff799687b4924fd69faa6221cc177c1603da1bfbc0727390",
      "v": 27,
      "creates": null,
      "raw": "0xf86b01850ba43b740082520894ab54437bd27bb7e6914e9b36927f5a128bc1487f8736ef271c4dd000801ba037e1e34fdf289783d48d303c7744da0d16fcfddfc541eb6ad92be49b3e60a6eaa053617c16a295dffeff799687b4924fd69faa6221cc177c1603da1bfbc0727390",
      "networkId": 0,
      "chainId": 0
    },
    {
      "hash": "0x168b4f2fc6269285b98e2fbc0698213e1637bc60dd38667a253cf35d696dd4f6",
      "blockHash": "0xfc09c788b63eb60f9adc70beebf33bf26dc65df26a5f84c1c3e88fe746627936",
      "blockNumber": 64530,
      "transactionIndex": 1,
      "confirmations": null,
      "from": "0x52216e23190E8398A68c70757236aCFeEF34F3c5",
      "gasPrice": {
        "_hex": "0xba43b7400"
      },
      "gasLimit": {
        "_hex": "0x5208"
      },
      "to": "0x365e172fF4921b034AA2E3ED21431EBf56f12Ab2",
      "value": {
        "_hex": "0x36ef271c4dd000"
      },
      "nonce": 1,
      "data": "0x",
      "r": "0x2e8fa0af3c2db46ddd1264259eb482eda97187304179a2b056020fd063b03fb7",
      "s": "0x6a282d81e8ae7af942f1651444f0d60f176de375103cd60ecb5fbaaae36b47c0",
      "v": 27,
      "creates": null,
      "raw": "0xf86b01850ba43b740082520894365e172ff4921b034aa2e3ed21431ebf56f12ab28736ef271c4dd000801ba02e8fa0af3c2db46ddd1264259eb482eda97187304179a2b056020fd063b03fb7a06a282d81e8ae7af942f1651444f0d60f176de375103cd60ecb5fbaaae36b47c0",
      "networkId": 0,
      "chainId": 0
    },
    {
      "hash": "0x160b8ff724c55a5c887a2a94788abdd4bcdfe8accc9ed0ca353fa8ff412190a1",
      "blockHash": "0xfc09c788b63eb60f9adc70beebf33bf26dc65df26a5f84c1c3e88fe746627936",
      "blockNumber": 64530,
      "transactionIndex": 2,
      "confirmations": null,
      "from": "0xB5512b430FC2E9F3867cB3B5B9b15D4f1f51943d",
      "gasPrice": {
        "_hex": "0xba43b7400"
      },
      "gasLimit": {
        "_hex": "0x5208"
      },
      "to": "0x2ee2a55a9770Aa821751F881F6B4e81a994153D6",
      "value": {
        "_hex": "0x36ef271c4dd000"
      },
      "nonce": 1,
      "data": "0x",
      "r": "0xd419ac687602a848da8044c88817f7fa0cb43e492ee17ce073ce23a13fe00560",
      "s": "0x25b93f3c01c94d178b8e546d66f0f675baf452da42a434970d1f3fa5a212e845",
      "v": 27,
      "creates": null,
      "raw": "0xf86b01850ba43b7400825208942ee2a55a9770aa821751f881f6b4e81a994153d68736ef271c4dd000801ba0d419ac687602a848da8044c88817f7fa0cb43e492ee17ce073ce23a13fe00560a025b93f3c01c94d178b8e546d66f0f675baf452da42a434970d1f3fa5a212e845",
      "networkId": 0,
      "chainId": 0
    }
  ]
}