{
  "hash": "0x832726fece83f60b0f4d8b7b36e4b0c9986594313be189d13b9d459a83c964db",
  "parentHash": "0xdc77c1defff3051cdd2566342ce75541c765aa632caf6ead92b3eb9170b2b843",
  "number": 47149,
  "timestamp": 1438934951,
  "nonce": "0x12ca8bd823605d32",
  "difficulty": 1460959172924,
  "gasLimit": {
    "_hex": "0x9c03"
  },
  "gasUsed": {
    "_hex": "0x5208"
  },
  "miner": "0x9746c7e1ef2bd21FF3997fa467593a89cb852BD0",
  "extraData": "0x476574682f76312e302e312f77696e646f77732f676f312e342e32",
  "transactions": [
    {
      "hash": "0xfa8fd3539349c5535e22d3e7184e083fce547c4fb95835f6f61068297c6d1584",
      "blockHash": "0x832726fece83f60b0f4d8b7b36e4b0c9986594313be189d13b9d459a83c964db",
      "blockNumber": 47149,
      "transactionIndex": 0,
      "confirmations": null,
      "from": "0x7d7e7c61779adB7706C94D32409A2bb4E994bf60",
      "gasPrice": {
        "_hex": "0x2ba7def3000"
      },
      "gasLimit": {
        "_hex": "0x5208"
      },
      "to": "0x734B61f8167583Fcd27c677b8dB9369C6A3d0689",
      "value": {
        "_hex": "0x2386f26fc10000"
      },
      "nonce": 0,
      "data": "0x",
      "r": "0xf7b671d45d97f3f0c4f7d5b6aea69450e94e706290ea3e64037c10a9b32d1aaa",
      "s": "0x118a0d2f22bbae826c55fa3de66b779972de6d517487a88c9b5892eca9cd4582",
      "v": 27,
      "creates": null,
      "raw": "0xf86c808602ba7def300082520894734b61f8167583fcd27c677b8db9369c6a3d0689872386f26fc10000801ba0f7b671d45d97f3f0c4f7d5b6aea69450e94e706290ea3e64037c10a9b32d1aaaa0118a0d2f22bbae826c55fa3de66b779972de6d517487a88c9b5892eca9cd4582",
      "networkId": 0,
      "chainId": 0
    }
  ]
}