{
  "hash": "0x7223072733655cb484d6d1a2cde7783ceee6e7f46764ff35c78e599fb84cfa49",
  "parentHash": "0x2a73663c8f139146e47041b3d499485cfbada62f61cc62b8657517bfc5f2489a",
  "number": 90483,
  "timestamp": 1439640722,
  "nonce": "0x1cde2641fdb3160e",
  "difficulty": 3343222793906,
  "gasLimit": {
    "_hex": "0x2fefd8"
  },
  "gasUsed": {
    "_hex": "0x5208"
  },
  "miner": "0xe6A7a1d47ff21B6321162AEA7C6CB457D5476Bca",
  "extraData": "0x476574682f76312e302e312d38326566323666362f6c696e75782f676f312e34",
  "transactions": [
    {
      "hash": "0xe628177bf66a70d0334f676fc9dbab166d7e8b2ea75ff0308bb0207b7311541c",
      "blockHash": "0x7223072733655cb484d6d1a2cde7783ceee6e7f46764ff35c78e599fb84cfa49",
      "blockNumber": 90483,
      "transactionIndex": 0,
      "confirmations": null,
      "from": "0xB0bA9ec050654A083c88777e30261F815cB0A3B7",
      "gasPrice": {
        "_hex": "0xd91fafb23"
      },
      "gasLimit": {
        "_hex": "0x5208"
      },
      "to": "0x32Be343B94f860124dC4fEe278FDCBD38C102D88",
      "value": {
        "_hex": "0xc326a773d81fe8000"
      },
      "nonce": 1,
      "data": "0x",
      "r": "0x5b5c416de3e3670898ff7abc28b008d02f1edf63363d1c8691a16e472363fe16",
      "s": "0x3a8832ad06fe011563b74115f3fbd38ea8cdfeefe134ede71b25818d4f6640c4",
      "v": 28,
      "creates": null,
      "raw": "0xf86d01850d91fafb238252089432be343b94f860124dc4fee278fdcbd38c102d88890c326a773d81fe8000801ca05b5c416de3e3670898ff7abc28b008d02f1edf63363d1c8691a16e472363fe16a03a8832ad06fe011563b74115f3fbd38ea8cdfeefe134ede71b25818d4f6640c4",
      "networkId": 0,
      "chainId": 0
    }
  ]
}