{
  "hash": "0x695bd962ad1d9e0afccd2ba80106a55f7b01fddb3e09d292191b09db6e544603",
  "parentHash": "0x62fb6c0cffefa65418df4a598a7cb206b6e3b21c8b92fd82f014dd74a3e0dbed",
  "number": 49564,
  "timestamp": 1438975414,
  "nonce": "0xeaa365f5a746f093",
  "difficulty": 1481367214115,
  "gasLimit": {
    "_hex": "0x35933"
  },
  "gasUsed": {
    "_hex": "0x5208"
  },
  "miner": "0x0037ce3d4B7f8729C8607D8D0248252Be68202c0",
  "extraData": "0x476574682f76312e302e312f77696e646f77732f676f312e342e32",
  "transactions": [
    {
      "hash": "0x51098a2fa44068cc957ff95da5fff804fc4c92bbc34817841e560cf9dfbacdfc",
      "blockHash": "0x695bd962ad1d9e0afccd2ba80106a55f7b01fddb3e09d292191b09db6e544603",
      "blockNumber": 49564,
      "transactionIndex": 0,
      "confirmations": null,
      "from": "0x28EE9f11DB43ea073BccB423AF9bbb6fb77fFC09",
      "gasPrice": {
        "_hex": "0xcc228c374"
      },
      "gasLimit": {
        "_hex": "0x5208"
      },
      "to": "0x32Be343B94f860124dC4fEe278FDCBD38C102D88",
      "value": {
        "_hex": "0x56bc3536d4e9bc000"
      },
      "nonce": 1,
      "data": "0x",
      "r": "0xb75dee877c350ab21abead90d87fd1d232f568bc57efc3e6c46bba9cca2db5cc",
      "s": "0x2a54adc805cdbff5ad8669c774faafe7a4d0e33fc7927adf71795b7c6610fa2a",
      "v": 28,
      "creates": null,
      "raw": "0xf86d01850cc228c3748252089432be343b94f860124dc4fee278fdcbd38c102d8889056bc3536d4e9bc000801ca0b75dee877c350ab21abead90d87fd1d232f568bc57efc3e6c46bba9cca2db5cca02a54adc805cdbff5ad8669c774faafe7a4d0e33fc7927adf71795b7c6610fa2a",
      "networkId": 0,
      "chainId": 0
    }
  ]
}