{
  "hash": "0x63dfaa1d25f6849bd681cc3a7a6b6cd9976785b37fb0aaf2faab568f85307c49",
  "parentHash": "0xe29134e6c16019ecb43f87d650f8a845646edfa6ea7a88297c638bd07b06fc9e",
  "number": 84237,
  "timestamp": 1439546817,
  "nonce": "0x3f4e57605b71d56a",
  "difficulty": 2530414021782,
  "gasLimit": {
    "_hex": "0x2fefd8"
  },
  "gasUsed": {
    "_hex": "0x5208"
  },
  "miner": "0x157c6f2431eB1a95797EE86F7d17b3c0FD47A247",
  "extraData": "0x476574682f76312e302e312f77696e646f77732f676f312e342e32",
  "transactions": [
    {
      "hash": "0x71ef3d9b2ac9712227234b1ae0ad370828ac3a6bdeaaad0d739be415817bc51b",
      "blockHash": "0x63dfaa1d25f6849bd681cc3a7a6b6cd9976785b37fb0aaf2faab568f85307c49",
      "blockNumber": 84237,
      "transactionIndex": 0,
      "confirmations": null,
      "from": "0x120A270bbC009644e35F0bB6ab13f95b8199c4ad",
      "gasPrice": {
        "_hex": "0xda9db56a6"
      },
      "gasLimit": {
        "_hex": "0x3d090"
      },
      "to": "0xbae281B6b389e840f52b74C832EcdaEf7820d8a5",
      "value": {
        "_hex": "0x555a5de8155c4d000"
      },
      "nonce": 423,
      "data": "0x",
      "r": "0x2b4112c711291f0920ddb9ca53e9bdd38204e4e3e051e5619e22f2b2c969a991",
      "s": "0x205169159f2642288869391757fba7a4637aeb4f397e284984795c0236a7f57f",
      "v": 28,
      "creates": null,
      "raw": "0xf8708201a7850da9db56a68303d09094bae281b6b389e840f52b74c832ecdaef7820d8a5890555a5de8155c4d000801ca02b4112c711291f0920ddb9ca53e9bdd38204e4e3e051e5619e22f2b2c969a991a0205169159f2642288869391757fba7a4637aeb4f397e284984795c0236a7f57f",
      "networkId": 0,
      "chainId": 0
    }
  ]
}