{
  "hash": "0x2ea38a38bd62c87f9094628838253772e5ae99c2f8596942d0f885a2823c2d55",
  "parentHash": "0xa27d91ce5be3816a30faaf68e5b1a3ef59bd3ec9a978e36cec732930cca21c46",
  "number": 109084,
  "timestamp": 1439950705,
  "nonce": "0xf8757420fbc3813c",
  "difficulty": 4434371220988,
  "gasLimit": {
    "_hex": "0x2fefd8"
  },
  "gasUsed": {
    "_hex": "0x5208"
  },
  "miner": "0x9746c7e1ef2bd21FF3997fa467593a89cb852BD0",
  "extraData": "0x476574682f76312e302e312f77696e646f77732f676f312e342e32",
  "transactions": [
    {
      "hash": "0x5c4682ce8545c6588f5f44b140d54674cfd2f6f0682c5e9c1d452c77646ab132",
      "blockHash": "0x2ea38a38bd62c87f9094628838253772e5ae99c2f8596942d0f885a2823c2d55",
      "blockNumber": 109084,
      "transactionIndex": 0,
      "confirmations": null,
      "from": "0x406598dCeF6Ba564F5705c8C61857fE905EEC03c",
      "gasPrice": {
        "_hex": "0xde225b402"
      },
      "gasLimit": {
        "_hex": "0x15f90"
      },
      "to": "0x7B60F3f033e6D7808428C9f2dBC81682ff24984F",
      "value": {
        "_hex": "0x872b6e65304e0000"
      },
      "nonce": 1,
      "data": "0x",
      "r": "0xea7dea0c231594ed2bb9590ade9bddebf829e9d6501763d3fed5073599f96cf1",
      "s": "0x5880e783fab1f8305600599c56764105c2fcaeda29405016f395230ef4d54034",
      "v": 28,
      "creates": null,
      "raw": "0xf86d01850de225b40283015f90947b60f3f033e6d7808428c9f2dbc81682ff24984f88872b6e65304e0000801ca0ea7dea0c231594ed2bb9590ade9bddebf829e9d6501763d3fed5073599f96cf1a05880e783fab1f8305600599c56764105c2fcaeda29405016f395230ef4d54034",
      "networkId": 0,
      "chainId": 0
    }
  ]
}