{
  "hash": "0x6077e65f903976c53cd0e5e933b37119d6f19f76af3b058b5f0ee61653b0dbd7",
  "parentHash": "0x48bc71361f0af0db8921845acbc1062016b925e8c9fa10181bcef3e6efcde38c",
  "number": 85555,
  "timestamp": 1439565433,
  "nonce": "0xb537c99b410de041",
  "difficulty": 2759749420235,
  "gasLimit": {
    "_hex": "0x2fefd8"
  },
  "gasUsed": {
    "_hex": "0x14820"
  },
  "miner": "0x31995C46B15C84523cDEE26f49A681b8237e43F5",
  "extraData": "0x476574682f76312e302e312f77696e646f77732f676f312e342e32",
  "transactions": [
    {
      "hash": "0x86fa65bf6c24ff6eef475a2b7d334df2a011894265e0fcd02daf8c718d696427",
      "blockHash": "0x6077e65f903976c53cd0e5e933b37119d6f19f76af3b058b5f0ee61653b0dbd7",
      "blockNumber": 85555,
      "transactionIndex": 0,
      "confirmations": null,
      "from": "0x695b4cCE085856d9e1f9Ff3e79942023359E5fbC",
      "gasPrice": {
        "_hex": "0xe1aee2f38"
      },
      "gasLimit": {
        "_hex": "0x5208"
      },
      "to": "0xBb8F3Dd31Dd284Cc1Deeec5Ac356aD38296Ea6A0",
      "value": {
        "_hex": "0x38d7ea4c68000"
      },
      "nonce": 1,
      "data": "0x",
      "r": "0xe662ec0a8a75c07a1e22830fc787a8f24f03b10ca1d1d54d12fac66101dbca31",
      "s": "0x221f2b0f9e7e7765e42f554c0b6b70b20014b0fd18ed5bcceb09134132a8eb91",
      "v": 27,
      "creates": null,
      "raw": "0xf86b01850e1aee2f3882520894bb8f3dd31dd284cc1deeec5ac356ad38296ea6a087038d7ea4c68000801ba0e662ec0a8a75c07a1e22830fc787a8f24f03b10ca1d1d54d12fac66101dbca31a0221f2b0f9e7e7765e42f554c0b6b70b20014b0fd18ed5bcceb09134132a8eb91",
      "networkId": 0,
      "chainId": 0
    },
    {
      "hash": "0x6495c6727291bfea111e3125701b510d02577f280d0fbd8e982b81f76cf6d43a",
      "blockHash": "0x6077e65f903976c53cd0e5e933b37119d6f19f76af3b058b5f0ee61653b0dbd7",
      "blockNumber": 85555,
      "transactionIndex": 1,
      "confirmations": null,
      "from": "0x120A270bbC009644e35F0bB6ab13f95b8199c4ad",
      "gasPrice": {
        "_hex": "0xd6a4235ca"
      },
      "gasLimit": {
        "_hex": "0x3d090"
      },
      "to": "0xd0c9016C1669D8D4B331F8a68BC0b4E7937F3475",
      "value": {
        "_hex": "0x14d2dce8c2b595400"
      },
      "nonce": 457,
      "data": "0x",
      "r": "0xb94d4ebdab859f8f23806cc33774eda8daed6688bf748e9c8faa56bdca2cc239",
      "s": "0x62c4467c532b48480442202012cab46386bcaa27db5f245d083aa96288ba7254",
      "v": 27,
      "creates": null,
      "raw": "0xf8708201c9850d6a4235ca8303d09094d0c9016c1669d8d4b331f8a68bc0b4e7937f347589014d2dce8c2b595400801ba0b94d4ebdab859f8f23806cc33774eda8daed6688bf748e9c8faa56bdca2cc239a062c4467c532b48480442202012cab46386bcaa27db5f245d083aa96288ba7254",
      "networkId": 0,
      "chainId": 0
    },
    {
      "hash": "0x784f3c5d55de72be9ebc6fa9cb5cd3edb01ad821bbae155b1f7722d3018998cc",
      "blockHash": "0x6077e65f903976c53cd0e5e933b37119d6f19f76af3b058b5f0ee61653b0dbd7",
      "blockNumber": 85555,
      "transactionIndex": 2,
      "confirmations": null,
      "from": "0x120A270bbC009644e35F0bB6ab13f95b8199c4ad",
      "gasPrice": {
        "_hex": "0xd6a4235ca"
      },
      "gasLimit": {
        "_hex": "0x3d090"
      },
      "to": "0x88F04B8296a5bed52A9e1E416c8cCD98339Ee56e",
      "value": {
        "_hex": "0xde0b6b3a7640000"
      },
      "nonce": 458,
      "data": "0x",
      "r": "0x99b7b187497d7170111eda56ca2db156a9e13982beaaab59be477ea7cd833d93",
      "s": "0x678499fa162d9786347de55796c3e001b2741855f9446989aa36866c1face7bb",
      "v": 28,
      "creates": null,
      "raw": "0xf86f8201ca850d6a4235ca8303d0909488f04b8296a5bed52a9e1e416c8ccd98339ee56e880de0b6b3a7640000801ca099b7b187497d7170111eda56ca2db156a9e13982beaaab59be477ea7cd833d93a0678499fa162d9786347de55796c3e001b2741855f9446989aa36866c1face7bb",
      "networkId": 0,
      "chainId": 0
    },
    {
      "hash": "0x9d93cee4e24ee8078dc8b96f06a767883e3002da21d174cf7d5977ea043eabbe",
      "blockHash": "0x6077e65f903976c53cd0e5e933b37119d6f19f76af3b058b5f0ee61653b0dbd7",
      "blockNumber": 85555,
      "transactionIndex": 3,
      "confirmations": null,
      "from": "0x120A270bbC009644e35F0bB6ab13f95b8199c4ad",
      "gasPrice": {
        "_hex": "0xd6a4235ca"
      },
      "gasLimit": {
        "_hex": "0x3d090"
      },
      "to": "0xE482d255EDE56B04c3E8dF151F56e9ca62aAA8C2",
      "value": {
        "_hex": "0x56bc75e2d63100000"
      },
      "nonce": 459,
      "data": "0x",
      "r": "0x0dc72a138ab98fe9fb0c2c68ec0cf8cc560ec2bfa62d496b053175ed95fd2d6b",
      "s": "0x69179ed88c2dc95a06d30c53e2377a472bc0cc5b86f5837b3c66ecf7ae281051",
      "v": 28,
      "creates": null,
      "raw": "0xf8708201cb850d6a4235ca8303d09094e482d255ede56b04c3e8df151f56e9ca62aaa8c289056bc75e2d63100000801ca00dc72a138ab98fe9fb0c2c68ec0cf8cc560ec2bfa62d496b053175ed95fd2d6ba069179ed88c2dc95a06d30c53e2377a472bc0cc5b86f5837b3c66ecf7ae281051",
      "networkId": 0,
      "chainId": 0
    }
  ]
}