{
  "hash": "0xe02f309b69ddd06c01defbea2dca9f1945f8fe63c5c5fb8a9c90995ac90b043c",
  "parentHash": "0xa44fa06a3b921c8b9b91fdfb437a79731850b6ed6bbe4122b7a0ff84096b1812",
  "number": 100505,
  "timestamp": 1439807590,
  "nonce": "0xea66c04b93ab23ad",
  "difficulty": 3820977080497,
  "gasLimit": {
    "_hex": "0x2fefd8"
  },
  "gasUsed": {
    "_hex": "0x5208"
  },
  "miner": "0x88D74a59454F6cF3B51ef6b9136AFb6b9D405A88",
  "extraData": "0x476574682f76312e302e312d38326566323666362f6c696e75782f676f312e34",
  "transactions": [
    {
      "hash": "0x126d764e8725a499585110c71a36d2a338508f22d71596a6085f4b9eade81665",
      "blockHash": "0xe02f309b69ddd06c01defbea2dca9f1945f8fe63c5c5fb8a9c90995ac90b043c",
      "blockNumber": 100505,
      "transactionIndex": 0,
      "confirmations": null,
      "from": "0x18883522e2679aA9b41E0fA688F20c3802897525",
      "gasPrice": {
        "_hex": "0xdbcd11c98"
      },
      "gasLimit": {
        "_hex": "0x5208"
      },
      "to": "0x32Be343B94f860124dC4fEe278FDCBD38C102D88",
      "value": {
        "_hex": "0xbd6e53ba3f71d800"
      },
      "nonce": 6,
      "data": "0x",
      "r": "0xd8eac2a92a90bd0e256a60b8ef5e92baa2928e9ab69e3a2a6e2dc5d859cd0cab",
      "s": "0x6d6719a72df7cf095a69585d44d26a430fd417fb2e61447147a9f16cf5aaab88",
      "v": 27,
      "creates": null,
      "raw": "0xf86c06850dbcd11c988252089432be343b94f860124dc4fee278fdcbd38c102d8888bd6e53ba3f71d800801ba0d8eac2a92a90bd0e256a60b8ef5e92baa2928e9ab69e3a2a6e2dc5d859cd0caba06d6719a72df7cf095a69585d44d26a430fd417fb2e61447147a9f16cf5aaab88",
      "networkId": 0,
      "chainId": 0
    }
  ]
}