{
  "hash": "0x196bc88859659926ac00be12c169171c73330f5c69caba8d57a12072106008c6",
  "parentHash": "0xc282618145408755e4c976d1d81c7c3e52d36518ceb17342ddc1d59094c3f12a",
  "number": 118922,
  "timestamp": 1440133740,
  "nonce": "0xe5671a417084d8fc",
  "difficulty": 4394705616375,
  "gasLimit": {
    "_hex": "0x2fefd8"
  },
  "gasUsed": {
    "_hex": "0x5208"
  },
  "miner": "0x790b8a3cE86E707ED0eD32bF89B3269692a23CC1",
  "extraData": "0xd783010002844765746887676f312e342e32856c696e7578",
  "transactions": [
    {
      "hash": "0x4f6f49230aa47ac53339a605f9443cb109c49d28298568f83731c14d7db16fa5",
      "blockHash": "0x196bc88859659926ac00be12c169171c73330f5c69caba8d57a12072106008c6",
      "blockNumber": 118922,
      "transactionIndex": 0,
      "confirmations": null,
      "from": "0x8Bf770A8F2F4cCa135f0699F96f4FB1CEb9c44c9",
      "gasPrice": {
        "_hex": "0xba43b7400"
      },
      "gasLimit": {
        "_hex": "0x15f90"
      },
      "to": "0x13aE5B35f82651Ff327d41502F0Aa90DA76D777E",
      "value": {
        "_hex": "0x4563918244f40000"
      },
      "nonce": 4,
      "data": "0x",
      "r": "0xca96ab4cf19250d12c9d9c7d23b0255b3cdf832eea0f8e93792cb1cc6fcb5190",
      "s": "0x617da554f6853fa5ec18810843e7d57cae83787d2ea18a6330b02a04cdf2b2e5",
      "v": 28,
      "creates": null,
      "raw": "0xf86d04850ba43b740083015f909413ae5b35f82651ff327d41502f0aa90da76d777e884563918244f40000801ca0ca96ab4cf19250d12c9d9c7d23b0255b3cdf832eea0f8e93792cb1cc6fcb5190a0617da554f6853fa5ec18810843e7d57cae83787d2ea18a6330b02a04cdf2b2e5",
      "networkId": 0,
      "chainId": 0
    }
  ]
}