{
  "hash": "0xc2978e493be16aac200c053749b7360873b2ab517e9a9420ebc7dfabb8aad152",
  "parentHash": "0x13e9c70820e41f928011aae0af08b30a27eb5b51f56c8e50bf4e0110385982b4",
  "number": 75922,
  "timestamp": 1439411905,
  "nonce": "0xf5c6e175c02fab1f",
  "difficulty": 2223323293657,
  "gasLimit": {
    "_hex": "0x2fefd8"
  },
  "gasUsed": {
    "_hex": "0x546c"
  },
  "miner": "0xe6A7a1d47ff21B6321162AEA7C6CB457D5476Bca",
  "extraData": "0x476574682f76312e302e312d38326566323666362f6c696e75782f676f312e34",
  "transactions": [
    {
      "hash": "0x06ca25a402bf56cf827388eaab196181145abb5788702f0f6e496152d666779a",
      "blockHash": "0xc2978e493be16aac200c053749b7360873b2ab517e9a9420ebc7dfabb8aad152",
      "blockNumber": 75922,
      "transactionIndex": 0,
      "confirmations": null,
      "from": "0x2dd325FDfFB97B19995284aFA5abDB574a1Df16a",
      "gasPrice": {
        "_hex": "0xd829211eb"
      },
      "gasLimit": {
        "_hex": "0x15f90"
      },
      "to": "0x2910543Af39abA0Cd09dBb2D50200b3E800A63D2",
      "value": {
        "_hex": "0x2b5e3af16b1880000"
      },
      "nonce": 5,
      "data": "0x454e47454d4d595630",
      "r": "0xe41a358aa5cd9c6f234fe3bcfc35c0c5eb14b5f7ced3bcd48df37e52f43893de",
      "s": "0x0632b84c5dcfb8cbe88f12927d1863a11755c8f8fadd9569c60d2c1832319fe3",
      "v": 28,
      "creates": null,
      "raw": "0xf87705850d829211eb83015f90942910543af39aba0cd09dbb2d50200b3e800a63d28902b5e3af16b188000089454e47454d4d5956301ca0e41a358aa5cd9c6f234fe3bcfc35c0c5eb14b5f7ced3bcd48df37e52f43893dea00632b84c5dcfb8cbe88f12927d1863a11755c8f8fadd9569c60d2c1832319fe3",
      "networkId": 0,
      "chainId": 0
    }
  ]
}