{
  "hash": "0xb5daf73c8b07bb2693fbd74e706b1845a970eac25c1d8ba6a5b6206257b93e07",
  "parentHash": "0xe8e252d9ef7be1c396be5e1cfe5a408c1bc7d55bfd992ca49d00adb34458ac42",
  "number": 78638,
  "timestamp": 1439456969,
  "nonce": "0x3b4eda4c0426337b",
  "difficulty": 2290918257643,
  "gasLimit": {
    "_hex": "0x2fefd5"
  },
  "gasUsed": {
    "_hex": "0xa410"
  },
  "miner": "0x02dE7d35a60bf6A216411476040ec648668769D7",
  "extraData": "0x476574682f76312e302e312f77696e646f77732f676f312e342e32",
  "transactions": [
    {
      "hash": "0x9ada3662bc68f888c347c0ab8677e9fe26a0a3851c42197e410fe9f40b126345",
      "blockHash": "0xb5daf73c8b07bb2693fbd74e706b1845a970eac25c1d8ba6a5b6206257b93e07",
      "blockNumber": 78638,
      "transactionIndex": 0,
      "confirmations": null,
      "from": "0x83816f103117f26a382c0ED30c21D0CF23f1D687",
      "gasPrice": {
        "_hex": "0xddaac13ce"
      },
      "gasLimit": {
        "_hex": "0x15f90"
      },
      "to": "0x6D323c1c25030139D0FfCdA344bF3BFc9686EbD1",
      "value": {
        "_hex": "0xbc37ade48e3c40000"
      },
      "nonce": 4,
      "data": "0x",
      "r": "0xde1177e8cc9e4b369eeefa6f3722428568627a3cc4706a9ce1a2e9cf15cd756b",
      "s": "0x58d60a6ab2fcc191021f0aaaedece09688a82a980777225900d6a36a4d9a26e0",
      "v": 27,
      "creates": null,
      "raw": "0xf86e04850ddaac13ce83015f90946d323c1c25030139d0ffcda344bf3bfc9686ebd1890bc37ade48e3c40000801ba0de1177e8cc9e4b369eeefa6f3722428568627a3cc4706a9ce1a2e9cf15cd756ba058d60a6ab2fcc191021f0aaaedece09688a82a980777225900d6a36a4d9a26e0",
      "networkId": 0,
      "chainId": 0
    },
    {
      "hash": "0xb037ea38eb0254dcaba51abf01439290d81fa05b39e6163ea198676ddd04629a",
      "blockHash": "0xb5daf73c8b07bb2693fbd74e706b1845a970eac25c1d8ba6a5b6206257b93e07",
      "blockNumber": 78638,
      "transactionIndex": 1,
      "confirmations": null,
      "from": "0x120A270bbC009644e35F0bB6ab13f95b8199c4ad",
      "gasPrice": {
        "_hex": "0xcb351d946"
      },
      "gasLimit": {
        "_hex": "0x3d090"
      },
      "to": "0x5688C48Cb5CcD47777e6a90E2a62412933E64bD0",
      "value": {
        "_hex": "0x4563918244f40000"
      },
      "nonce": 327,
      "data": "0x",
      "r": "0x7b5e88b15421e731c034e207931d20ff97aeb1a7781964b510c13edb27996a2a",
      "s": "0x24139e497346e6311dd89ce457abced58f0fa8f0c322a3d90807a2f0161604e5",
      "v": 27,
      "creates": null,
      "raw": "0xf86f820147850cb351d9468303d090945688c48cb5ccd47777e6a90e2a62412933e64bd0884563918244f40000801ba07b5e88b15421e731c034e207931d20ff97aeb1a7781964b510c13edb27996a2aa024139e497346e6311dd89ce457abced58f0fa8f0c322a3d90807a2f0161604e5",
      "networkId": 0,
      "chainId": 0
    }
  ]
}