{
  "hash": "0xe934a085b615bbf97c2d83a869cd56ea97b76e12ae99c9003aaa664b4a5629e6",
  "parentHash": "0x4501ad61410dd462811665fa607cd5a471d14cce4705af2e59a32f710cc4caf8",
  "number": 96383,
  "timestamp": 1439739483,
  "nonce": "0x2caf248b6a01a8cb",
  "difficulty": 3658496369188,
  "gasLimit": {
    "_hex": "0x2fefd8"
  },
  "gasUsed": {
    "_hex": "0x5208"
  },
  "miner": "0xa50ec0D39fa913E62f1Bae7074E6F36caA71855b",
  "extraData": "0xd783010001844765746887676f312e342e32856c696e7578",
  "transactions": [
    {
      "hash": "0xbba1d73ba1ed5335cf3ccddc3b1eec457f7951119f9911d588d75df5ee285ca1",
      "blockHash": "0xe934a085b615bbf97c2d83a869cd56ea97b76e12ae99c9003aaa664b4a5629e6",
      "blockNumber": 96383,
      "transactionIndex": 0,
      "confirmations": null,
      "from": "0x7D60e9b25EaBC5f5971381c991D4757D07a2a51F",
      "gasPrice": {
        "_hex": "0x746a528800"
      },
      "gasLimit": {
        "_hex": "0x5208"
      },
      "to": "0x0DBaD90C967BFfeA4d6B589c0d2AF50A0eA16304",
      "value": {
        "_hex": "0x1a078f0000d790000"
      },
      "nonce": 4,
      "data": "0x",
      "r": "0x51815e7908d15195e3a4f61a7808a3afdeeeaade14ad204e66dafe8d0a386f57",
      "s": "0x63bfd025c444265a013d607f447365b107c928739ae2bb81dced89d075a4eab8",
      "v": 27,
      "creates": null,
      "raw": "0xf86d0485746a528800825208940dbad90c967bffea4d6b589c0d2af50a0ea163048901a078f0000d790000801ba051815e7908d15195e3a4f61a7808a3afdeeeaade14ad204e66dafe8d0a386f57a063bfd025c444265a013d607f447365b107c928739ae2bb81dced89d075a4eab8",
      "networkId": 0,
      "chainId": 0
    }
  ]
}