{
  "hash": "0x85ebc0e86681b05586dee6c15ec337f932ece4ba0aebb1b04709feea8081dfec",
  "parentHash": "0x7fe633ae2a6262b92dc5bc4b4c05753e927945a4038f62e74bd46406e93950a8",
  "number": 72841,
  "timestamp": 1439358900,
  "nonce": "0xc31ee00af46b5c6a",
  "difficulty": 2192867793971,
  "gasLimit": {
    "_hex": "0x2fe3de"
  },
  "gasUsed": {
    "_hex": "0x5208"
  },
  "miner": "0xad5C1768e5974C231b2148169da064e61910f31a",
  "extraData": "0x476574682f76312e302e302f6c696e75782f676f312e342e32",
  "transactions": [
    {
      "hash": "0xbd3dde249e843823908317bcaf7f5664ba75e476b15b393c92c284b67cdbc056",
      "blockHash": "0x85ebc0e86681b05586dee6c15ec337f932ece4ba0aebb1b04709feea8081dfec",
      "blockNumber": 72841,
      "transactionIndex": 0,
      "confirmations": null,
      "from": "0x45e43898393E6b184c2aA9930D66FDeC295B36B4",
      "gasPrice": {
        "_hex": "0x746a528800"
      },
      "gasLimit": {
        "_hex": "0x5257"
      },
      "to": "0xE2d2df4fa47EBDEbDE9F4fC0845CA35f8081fC59",
      "value": {
        "_hex": "0x5d530135fdf70000"
      },
      "nonce": 1,
      "data": "0x",
      "r": "0x17c5dda08c4ac5611827fb9e0c09c7f767904683afeb82a26cd734e7493e25db",
      "s": "0xf1feaf92b5dd0fa033ff3603c967f8e7b797703af77c4f00dae48b00d7e6e628",
      "v": 27,
      "creates": null,
      "raw": "0xf86c0185746a52880082525794e2d2df4fa47ebdebde9f4fc0845ca35f8081fc59885d530135fdf70000801ba017c5dda08c4ac5611827fb9e0c09c7f767904683afeb82a26cd734e7493e25dba0f1feaf92b5dd0fa033ff3603c967f8e7b797703af77c4f00dae48b00d7e6e628",
      "networkId": 0,
      "chainId": 0
    }
  ]
}