{
  "hash": "0x4135a20396266be29a440b5c93045e8e2ccabe75af031ee862f4d85c85f4826a",
  "parentHash": "0x070a71cc7d1a6c527852b56e046cfbce8298f17cf35a7a5956c021823180b686",
  "number": 63335,
  "timestamp": 1439202778,
  "nonce": "0x2b365076d744a031",
  "difficulty": 1825352389828,
  "gasLimit": {
    "_hex": "0x2fefd8"
  },
  "gasUsed": {
    "_hex": "0x2047b"
  },
  "miner": "0xF2d2AfF1320476cb8C6b607199D23175cc595693",
  "extraData": "0x476574682f76312e302e312f77696e646f77732f676f312e342e32",
  "transactions": [
    {
      "hash": "0xfb1c1559f577ce70e0ba6762887f4ce198d5bbd5911b536df96bd6fc009a39be",
      "blockHash": "0x4135a20396266be29a440b5c93045e8e2ccabe75af031ee862f4d85c85f4826a",
      "blockNumber": 63335,
      "transactionIndex": 0,
      "confirmations": null,
      "from": "0xa914cDb571BFd93D64da66a4e108EA134e50D000",
      "gasPrice": {
        "_hex": "0x9184e72a000"
      },
      "gasLimit": {
        "_hex": "0x55f0"
      },
      "to": "0x2910543Af39abA0Cd09dBb2D50200b3E800A63D2",
      "value": {
        "_hex": "0x56bc75e2d63100000"
      },
      "nonce": 6,
      "data": "0x454e43523838455252",
      "r": "0x7b2b351c2327aa036ce4a4476036a6cbe23d9c7240979c768e5f04613aeb91f7",
      "s": "0x30d093b1943f90a7fcd2d015ed1831a856a2a97489157e1e7395a27033aaab6a",
      "v": 27,
      "creates": null,
      "raw": "0xf877068609184e72a0008255f0942910543af39aba0cd09dbb2d50200b3e800a63d289056bc75e2d6310000089454e435238384552521ba07b2b351c2327aa036ce4a4476036a6cbe23d9c7240979c768e5f04613aeb91f7a030d093b1943f90a7fcd2d015ed1831a856a2a97489157e1e7395a27033aaab6a",
      "networkId": 0,
      "chainId": 0
    },
    {
      "hash": "0xbfd516457fc50a12b5e9d24d32ce4390c303acc5583e1d82eb19bb8d3eed74ba",
      "blockHash": "0x4135a20396266be29a440b5c93045e8e2ccabe75af031ee862f4d85c85f4826a",
      "blockNumber": 63335,
      "transactionIndex": 1,
      "confirmations": null,
      "from": "0xdD38c62D238bE6bB72162aFeC32DDcceDd3A0A51",
      "gasPrice": {
        "_hex": "0xdf2ef6e0e"
      },
      "gasLimit": {
        "_hex": "0x15f90"
      },
      "to": "0x2272D8d4dEc7DF90a36f03EFF778DECc6918F1A9",
      "value": {
        "_hex": "0x0"
      },
      "nonce": 2,
      "data": "0x432ced044861736852656700000000000000000000000000000000000000000000000000",
      "r": "0xfd7cf76ef80d66b4713371c98c55b4d1cefac30abc8a19329deb1dd278cc1df4",
      "s": "0x0a5747adc771da8ce213697151bd4f0c80f0ba2075b3996e07a7d4abd2ef238e",
      "v": 28,
      "creates": null,
      "raw": "0xf88902850df2ef6e0e83015f90942272d8d4dec7df90a36f03eff778decc6918f1a980a4432ced0448617368526567000000000000000000000000000000000000000000000000001ca0fd7cf76ef80d66b4713371c98c55b4d1cefac30abc8a19329deb1dd278cc1df4a00a5747adc771da8ce213697151bd4f0c80f0ba2075b3996e07a7d4abd2ef238e",
      "networkId": 0,
      "chainId": 0
    },
    {
      "hash": "0xd6228854f0b8c3047acd027b75a25bf0bd41ec3c0a2d549b850d336b48bda277",
      "blockHash": "0x4135a20396266be29a440b5c93045e8e2ccabe75af031ee862f4d85c85f4826a",
      "blockNumber": 63335,
      "transactionIndex": 2,
      "confirmations": null,
      "from": "0xdD38c62D238bE6bB72162aFeC32DDcceDd3A0A51",
      "gasPrice": {
        "_hex": "0xdf2ef6e0e"
      },
      "gasLimit": {
        "_hex": "0x15f90"
      },
      "to": "0x2272D8d4dEc7DF90a36f03EFF778DECc6918F1A9",
      "value": {
        "_hex": "0x0"
      },
      "nonce": 3,
      "data": "0xbe99a9804861736852656700000000000000000000000000000000000000000000000000000000000000000000000000a85146c7ba442f7cba546c89bc555432ab9bbf060000000000000000000000000000000000000000000000000000000000000001",
      "r": "0x602ec098a5ef69f6cdb56fff38d3559c2288f8260eac6f50b4e2a646c298cf89",
      "s": "0x6cd05e0cbc2067def8cd84afa41345988d43b694e972b65ead3e81464a20065c",
      "v": 27,
      "creates": null,
      "raw": "0xf8ca03850df2ef6e0e83015f90942272d8d4dec7df90a36f03eff778decc6918f1a980b864be99a9804861736852656700000000000000000000000000000000000000000000000000000000000000000000000000a85146c7ba442f7cba546c89bc555432ab9bbf0600000000000000000000000000000000000000000000000000000000000000011ba0602ec098a5ef69f6cdb56fff38d3559c2288f8260eac6f50b4e2a646c298cf89a06cd05e0cbc2067def8cd84afa41345988d43b694e972b65ead3e81464a20065c",
      "networkId": 0,
      "chainId": 0
    }
  ]
}