{
  "hash": "0x358abce2e7400995e0516783a0edb9d2946dbd1c18c21a6ca618e6d6f5b42e19",
  "parentHash": "0x183559f6ef83f69e9bf8f00728eef412378bf07de9c0fbb2af5fa9239a0f3512",
  "number": 118827,
  "timestamp": 1440132163,
  "nonce": "0x05284aece18f4892",
  "difficulty": 4384039088812,
  "gasLimit": {
    "_hex": "0x2fefd8"
  },
  "gasUsed": {
    "_hex": "0x5208"
  },
  "miner": "0x84ad64deFF6B187f690634051D2a096C359D1099",
  "extraData": "0xd783010003844765746887676f312e342e32856c696e7578",
  "transactions": [
    {
      "hash": "0x3a00b32280c73d02219d61f6b23a372bf34b8bced892381bb54770dca0226a52",
      "blockHash": "0x358abce2e7400995e0516783a0edb9d2946dbd1c18c21a6ca618e6d6f5b42e19",
      "blockNumber": 118827,
      "transactionIndex": 0,
      "confirmations": null,
      "from": "0x1308A2e95c0160B90803ddCA9B9a5bb55E416d79",
      "gasPrice": {
        "_hex": "0xd27c8ef0c"
      },
      "gasLimit": {
        "_hex": "0x15f90"
      },
      "to": "0x690E9A82e837aad27186c9DdBA090F43f8939f79",
      "value": {
        "_hex": "0x128974caeb7b39c00"
      },
      "nonce": 182,
      "data": "0x",
      "r": "0x7e288e680f1ffde080d5b2d155769d78204ffd52b770d277970ed1c572a528c1",
      "s": "0x04500fcc68fd52c48e203cd3b6bb0ee5ca807e8afbd184d8f5c88a4b9b03f282",
      "v": 27,
      "creates": null,
      "raw": "0xf86f81b6850d27c8ef0c83015f9094690e9a82e837aad27186c9ddba090f43f8939f79890128974caeb7b39c00801ba07e288e680f1ffde080d5b2d155769d78204ffd52b770d277970ed1c572a528c1a004500fcc68fd52c48e203cd3b6bb0ee5ca807e8afbd184d8f5c88a4b9b03f282",
      "networkId": 0,
      "chainId": 0
    }
  ]
}