{
  "hash": "0xfb59345a395a7e3b76373188fc79e87f9bef18219a936c79c9312c00a19abdf0",
  "parentHash": "0xf36e129c814ec4d2ebbba0f9bf6e35396048583f7133cf4b5720bd38d89f2f92",
  "number": 104256,
  "timestamp": 1439866830,
  "nonce": "0xd8c51835983ebe72",
  "difficulty": 4275290245324,
  "gasLimit": {
    "_hex": "0x2fefd8"
  },
  "gasUsed": {
    "_hex": "0x5208"
  },
  "miner": "0xa50ec0D39fa913E62f1Bae7074E6F36caA71855b",
  "extraData": "0xd783010001844765746887676f312e342e32856c696e7578",
  "transactions": [
    {
      "hash": "0xc3ceed81a89e914231d2617a86cfd5a17f60ab6e9273e20459522bc4a99e5fe3",
      "blockHash": "0xfb59345a395a7e3b76373188fc79e87f9bef18219a936c79c9312c00a19abdf0",
      "blockNumber": 104256,
      "transactionIndex": 0,
      "confirmations": null,
      "from": "0xb6E2d440C46510EC44266A3f58165E3956173df0",
      "gasPrice": {
        "_hex": "0xd702f20d1"
      },
      "gasLimit": {
        "_hex": "0x15f90"
      },
      "to": "0x1Dd20cba1Ac0a6ADaFc39b52A8e3E9429A444Ada",
      "value": {
        "_hex": "0x2386f26fc10000"
      },
      "nonce": 0,
      "data": "0x",
      "r": "0xeac932855bf069a8bd11a92cb074ef9acbe7ab7b7578c31d79b042171a957ef8",
      "s": "0x469af4c4043d50ad4b31f27e598ebaefbf836bb02b933754c14300dd60b06042",
      "v": 28,
      "creates": null,
      "raw": "0xf86c80850d702f20d183015f90941dd20cba1ac0a6adafc39b52a8e3e9429a444ada872386f26fc10000801ca0eac932855bf069a8bd11a92cb074ef9acbe7ab7b7578c31d79b042171a957ef8a0469af4c4043d50ad4b31f27e598ebaefbf836bb02b933754c14300dd60b06042",
      "networkId": 0,
      "chainId": 0
    }
  ]
}