{
  "hash": "0x7de8cf260dd486f496dcb5d1530736d8aab4d54a0908fc35dde65f462731cbbf",
  "parentHash": "0x195c2eeb39c9e37b31322d76688a5e4bf503afaddd6de32bd8db44d20ba43fb9",
  "number": 80831,
  "timestamp": 1439491638,
  "nonce": "0x0b73339e8643bc75",
  "difficulty": 2458354156348,
  "gasLimit": {
    "_hex": "0x2fefd5"
  },
  "gasUsed": {
    "_hex": "0xa410"
  },
  "miner": "0x9746c7e1ef2bd21FF3997fa467593a89cb852BD0",
  "extraData": "0x476574682f76312e302e312f77696e646f77732f676f312e342e32",
  "transactions": [
    {
      "hash": "0x753f60bcbcb304847521963ab858bc8c158f0ce9ad0ff81efc8e934c95c64cf2",
      "blockHash": "0x7de8cf260dd486f496dcb5d1530736d8aab4d54a0908fc35dde65f462731cbbf",
      "blockNumber": 80831,
      "transactionIndex": 0,
      "confirmations": null,
      "from": "0x900deD2eC098c430caD5347E6F3322932D7BB3a9",
      "gasPrice": {
        "_hex": "0xdadd8ba2f"
      },
      "gasLimit": {
        "_hex": "0x15f90"
      },
      "to": "0xaA9485EBA854ABA86Bfdd64C8f4f08Badd0f31C3",
      "value": {
        "_hex": "0x1bc16d674ec80000"
      },
      "nonce": 0,
      "data": "0x",
      "r": "0xdbafb995dac1b679c4c3d0ec28ff31d93ca7861392ac4047cf968d764f65c0e9",
      "s": "0x60302b16054b552b155c9fee72d1d80f4f066b1e3973f5dc2c10fb945f37b9ab",
      "v": 27,
      "creates": null,
      "raw": "0xf86d80850dadd8ba2f83015f9094aa9485eba854aba86bfdd64c8f4f08badd0f31c3881bc16d674ec80000801ba0dbafb995dac1b679c4c3d0ec28ff31d93ca7861392ac4047cf968d764f65c0e9a060302b16054b552b155c9fee72d1d80f4f066b1e3973f5dc2c10fb945f37b9ab",
      "networkId": 0,
      "chainId": 0
    },
    {
      "hash": "0x36090343362da39820865e50fba25735d8ad1b24832f340608cc5037b12a2449",
      "blockHash": "0x7de8cf260dd486f496dcb5d1530736d8aab4d54a0908fc35dde65f462731cbbf",
      "blockNumber": 80831,
      "transactionIndex": 1,
      "confirmations": null,
      "from": "0x690Db014Ed1665B5c774E3d1dD8c5C348157620d",
      "gasPrice": {
        "_hex": "0xcba2cece2"
      },
      "gasLimit": {
        "_hex": "0x15f90"
      },
      "to": "0xe35257B41e5FB4Ee89c00D6e778c1F69F5d58A78",
      "value": {
        "_hex": "0xdbd2fc137a30000"
      },
      "nonce": 0,
      "data": "0x",
      "r": "0xbb7fceb734ffde0d779f31677781a2792c2aa285a54055eba502209d3944a28b",
      "s": "0x1a666c19e0b3ba2690c40da4f7d3c76e0cc771bf358f2ba91f605de42ac9f3d7",
      "v": 27,
      "creates": null,
      "raw": "0xf86d80850cba2cece283015f9094e35257b41e5fb4ee89c00d6e778c1f69f5d58a78880dbd2fc137a30000801ba0bb7fceb734ffde0d779f31677781a2792c2aa285a54055eba502209d3944a28ba01a666c19e0b3ba2690c40da4f7d3c76e0cc771bf358f2ba91f605de42ac9f3d7",
      "networkId": 0,
      "chainId": 0
    }
  ]
}