{
  "hash": "0xf8b0ee65060d24e59b3712a17326fb50c5caf2767f8cfc61c9354092f438b972",
  "parentHash": "0xb07bb4c1b111702dcfa799a27e59dfec6f4212c2b69b987d93eff210b774d028",
  "number": 100738,
  "timestamp": 1439811627,
  "nonce": "0x79d1176538b31006",
  "difficulty": 3833952914077,
  "gasLimit": {
    "_hex": "0x2fefd8"
  },
  "gasUsed": {
    "_hex": "0x14820"
  },
  "miner": "0xe6A7a1d47ff21B6321162AEA7C6CB457D5476Bca",
  "extraData": "0x476574682f76312e302e312d38326566323666362f6c696e75782f676f312e34",
  "transactions": [
    {
      "hash": "0x109ff989f06c30f65957688b84e365a2684813937fe223817bfc9bd599d282d0",
      "blockHash": "0xf8b0ee65060d24e59b3712a17326fb50c5caf2767f8cfc61c9354092f438b972",
      "blockNumber": 100738,
      "transactionIndex": 0,
      "confirmations": null,
      "from": "0x7884D470204862a0d1A21122F41ee77430396Ee5",
      "gasPrice": {
        "_hex": "0xd5e523a28"
      },
      "gasLimit": {
        "_hex": "0x15f90"
      },
      "to": "0xE9f1bbcC9F6d340c67Dac6983ab7fc17051Aa1C2",
      "value": {
        "_hex": "0x13fbe85edc90000"
      },
      "nonce": 71,
      "data": "0x",
      "r": "0xc74f6e180f63fae826e1f2b9a29579deea94aa032e320ea16c43574da98de186",
      "s": "0x1a6f907246bd41762c49963f03e02946252eb2e5643cfbd64991754c45344abc",
      "v": 28,
      "creates": null,
      "raw": "0xf86d47850d5e523a2883015f9094e9f1bbcc9f6d340c67dac6983ab7fc17051aa1c288013fbe85edc90000801ca0c74f6e180f63fae826e1f2b9a29579deea94aa032e320ea16c43574da98de186a01a6f907246bd41762c49963f03e02946252eb2e5643cfbd64991754c45344abc",
      "networkId": 0,
      "chainId": 0
    },
    {
      "hash": "0xc8a7f402dc85a7e1d9e04378cf06c3e33b0d1890ebfa22fa773361811e1c02b3",
      "blockHash": "0xf8b0ee65060d24e59b3712a17326fb50c5caf2767f8cfc61c9354092f438b972",
      "blockNumber": 100738,
      "transactionIndex": 1,
      "confirmations": null,
      "from": "0x03bbfbb9d362b4B1C6a113BE654A0190Fc6aEa80",
      "gasPrice": {
        "_hex": "0xd2be3f79c"
      },
      "gasLimit": {
        "_hex": "0x5208"
      },
      "to": "0x32Be343B94f860124dC4fEe278FDCBD38C102D88",
      "value": {
        "_hex": "0xd8c75c2a763dd000"
      },
      "nonce": 5,
      "data": "0x",
      "r": "0xb059a19257da8d17c16fdf297eece75cb61597cc5c48481c15aeab06ee317c34",
      "s": "0x17a5d26bffc94d5eeeda22d44aabb9886950d3d1a1f5e3b1c34bd80ccaea6306",
      "v": 28,
      "creates": null,
      "raw": "0xf86c05850d2be3f79c8252089432be343b94f860124dc4fee278fdcbd38c102d8888d8c75c2a763dd000801ca0b059a19257da8d17c16fdf297eece75cb61597cc5c48481c15aeab06ee317c34a017a5d26bffc94d5eeeda22d44aabb9886950d3d1a1f5e3b1c34bd80ccaea6306",
      "networkId": 0,
      "chainId": 0
    },
    {
      "hash": "0x28d66b63c66174fe6fa9431f94ec47fa975e480185899fff13d54c1017b8d6f6",
      "blockHash": "0xf8b0ee65060d24e59b3712a17326fb50c5caf2767f8cfc61c9354092f438b972",
      "blockNumber": 100738,
      "transactionIndex": 2,
      "confirmations": null,
      "from": "0x50056353D06a71b1f427499419D04F81f5dE4F20",
      "gasPrice": {
        "_hex": "0xd2be3f79c"
      },
      "gasLimit": {
        "_hex": "0x5208"
      },
      "to": "0x32Be343B94f860124dC4fEe278FDCBD38C102D88",
      "value": {
        "_hex": "0x129a70b6547d4b000"
      },
      "nonce": 6,
      "data": "0x",
      "r": "0x0121236e5903b2100d18e4895e5a55c54d96a05d208a4d258702891354c8f8f6",
      "s": "0x1023e1348f608ac6ba525e479dbc49f8248a382a506f0b6f44ec0b939e96d0fa",
      "v": 28,
      "creates": null,
      "raw": "0xf86d06850d2be3f79c8252089432be343b94f860124dc4fee278fdcbd38c102d88890129a70b6547d4b000801ca00121236e5903b2100d18e4895e5a55c54d96a05d208a4d258702891354c8f8f6a01023e1348f608ac6ba525e479dbc49f8248a382a506f0b6f44ec0b939e96d0fa",
      "networkId": 0,
      "chainId": 0
    },
    {
      "hash": "0xdec75855d6a2c29deb36e0251884056dbf38a5b9144192209f19fd6352813d8e",
      "blockHash": "0xf8b0ee65060d24e59b3712a17326fb50c5caf2767f8cfc61c9354092f438b972",
      "blockNumber": 100738,
      "transactionIndex": 3,
      "confirmations": null,
      "from": "0xE7dAdedf7cEBAaBa85903823D254601B1D459C9B",
      "gasPrice": {
        "_hex": "0xd2be3f79c"
      },
      "gasLimit": {
        "_hex": "0x5208"
      },
      "to": "0x32Be343B94f860124dC4fEe278FDCBD38C102D88",
      "value": {
        "_hex": "0x43143650a0e48800"
      },
      "nonce": 3,
      "data": "0x",
      "r": "0x737d493bef89eaf0ca10ad77ac9c531c465e3d6e27c71957affe94cbe41076ea",
      "s": "0x137c11b01217be555057bbf0149dc9b9319d7415a2fd8db80926ec6fb3f9c211",
      "v": 27,
      "creates": null,
      "raw": "0xf86c03850d2be3f79c8252089432be343b94f860124dc4fee278fdcbd38c102d888843143650a0e48800801ba0737d493bef89eaf0ca10ad77ac9c531c465e3d6e27c71957affe94cbe41076eaa0137c11b01217be555057bbf0149dc9b9319d7415a2fd8db80926ec6fb3f9c211",
      "networkId": 0,
      "chainId": 0
    }
  ]
}