{
  "hash": "0xa51445e28e2aef5c4570b0cdf2232eb49520f9f4b864aa363161d08d0b501f4f",
  "parentHash": "0x12b90870ad304207b15eec03f7d9453a58adc5a0a4be50d7a159fb94c1de910a",
  "number": 110526,
  "timestamp": 1439975208,
  "nonce": "0xe8acf6b892403751",
  "difficulty": 4373405749376,
  "gasLimit": {
    "_hex": "0x2fefd8"
  },
  "gasUsed": {
    "_hex": "0x18326"
  },
  "miner": "0x88D74a59454F6cF3B51ef6b9136AFb6b9D405A88",
  "extraData": "0x",
  "transactions": [
    {
      "hash": "0x75a98d92a25c70192692b6c1cb14ece006194d82ebe6f575f314155dab8b4554",
      "blockHash": "0xa51445e28e2aef5c4570b0cdf2232eb49520f9f4b864aa363161d08d0b501f4f",
      "blockNumber": 110526,
      "transactionIndex": 0,
      "confirmations": null,
      "from": "0xeD3Fd00D62A795a3A07c71B4f4D94003F92f8A86",
      "gasPrice": {
        "_hex": "0xdb0f1de9a"
      },
      "gasLimit": {
        "_hex": "0x249f0"
      },
      "to": "0xE28e72FCf78647ADCe1F1252F240bbfaebD63BcC",
      "value": {
        "_hex": "0x4e1003b28d9280000"
      },
      "nonce": 3,
      "data": "0x45466f3a",
      "r": "0x3835de9153a07c0f79d9a33f0eefdd4881c292bbf16adb7faa88b13f47937247",
      "s": "0x1ff0c4b919459012115d10f5b215822608a5ff84332c6a09df52215e43cb4f1d",
      "v": 27,
      "creates": null,
      "raw": "0xf87203850db0f1de9a830249f094e28e72fcf78647adce1f1252f240bbfaebd63bcc8904e1003b28d92800008445466f3a1ba03835de9153a07c0f79d9a33f0eefdd4881c292bbf16adb7faa88b13f47937247a01ff0c4b919459012115d10f5b215822608a5ff84332c6a09df52215e43cb4f1d",
      "networkId": 0,
      "chainId": 0
    }
  ]
}