{
  "hash": "0x8629902a631028e442882f01f21086d66210815289492203cfef398ad918d91d",
  "parentHash": "0x8d71648ae80ee54fe1d9dc5fd1b644ec904b52c8471583d83f8ba68a8ee919b7",
  "number": 117180,
  "timestamp": 1440104933,
  "nonce": "0x7a358f58a7dff366",
  "difficulty": 4306391850672,
  "gasLimit": {
    "_hex": "0x2fefd8"
  },
  "gasUsed": {
    "_hex": "0x5208"
  },
  "miner": "0x4cfeF0a00715760Ed2b03C3782D07a4EA9A8dfDc",
  "extraData": "0xd783010100844765746887676f312e342e32856c696e7578",
  "transactions": [
    {
      "hash": "0xe1a138af2e1f550414cc0bf291c775f43911b1c76f5ba12affba28ed5ee81bc2",
      "blockHash": "0x8629902a631028e442882f01f21086d66210815289492203cfef398ad918d91d",
      "blockNumber": 117180,
      "transactionIndex": 0,
      "confirmations": null,
      "from": "0x007f7f58D3eb5b7510A301eCC749FC1fCDDBE14D",
      "gasPrice": {
        "_hex": "0xba43b7400"
      },
      "gasLimit": {
        "_hex": "0x15f90"
      },
      "to": "0xb1abce2918E21ddb93AA452731a12672A3d9F75a",
      "value": {
        "_hex": "0x4563918244f40000"
      },
      "nonce": 318,
      "data": "0x",
      "r": "0x8ef4337954fe36703db79ccdc0250bfd10e3d1eea5d38009ed9095df8f5b7fac",
      "s": "0x5f2d80d64ba60858edfdb16226b8f29e67ab060ce799faad2ab8b19ae0bd8d31",
      "v": 28,
      "creates": null,
      "raw": "0xf86f82013e850ba43b740083015f9094b1abce2918e21ddb93aa452731a12672a3d9f75a884563918244f40000801ca08ef4337954fe36703db79ccdc0250bfd10e3d1eea5d38009ed9095df8f5b7faca05f2d80d64ba60858edfdb16226b8f29e67ab060ce799faad2ab8b19ae0bd8d31",
      "networkId": 0,
      "chainId": 0
    }
  ]
}