{
  "hash": "0x625a346886cc6e4abebd33c8efe2fc2526896d0013d218de4d4542f4a1455957",
  "parentHash": "0x339a6bad841e87bc92920ab3cb3e2d819f10e19a711af321ec68437ece248a8a",
  "number": 73298,
  "timestamp": 1439366835,
  "nonce": "0x9531a24e762b1c6d",
  "difficulty": 2202405638707,
  "gasLimit": {
    "_hex": "0x2fefd8"
  },
  "gasUsed": {
    "_hex": "0x13af2"
  },
  "miner": "0xf927a40C8B7F6E07c5af7FA2155B4864a4112B13",
  "extraData": "0x",
  "transactions": [
    {
      "hash": "0xa6b4294a119ea1e531089e2f70413945a66580d041aee51b6074f22585e69703",
      "blockHash": "0x625a346886cc6e4abebd33c8efe2fc2526896d0013d218de4d4542f4a1455957",
      "blockNumber": 73298,
      "transactionIndex": 0,
      "confirmations": null,
      "from": "0x326Be8F71bFb0379f989aAB1CC1fE37f0a771f60",
      "gasPrice": {
        "_hex": "0x1109c811aad"
      },
      "gasLimit": {
        "_hex": "0x493e0"
      },
      "to": "0xB86A36e3E0d2E8132F5798119148eDEF957E1912",
      "value": {
        "_hex": "0x0"
      },
      "nonce": 39,
      "data": "0x2e1a7d4d0000000000000000000000000000000000000000000000004563918244f40000",
      "r": "0xe080dea3ede6843c8208968833c6f13ed72860c9e316b05e21a25b148c64d98d",
      "s": "0x6bc4adb41cd0aa9e36874a16b7c20f5e7e3be3f84db35952c7492a23a6c0ede3",
      "v": 28,
      "creates": null,
      "raw": "0xf88a278601109c811aad830493e094b86a36e3e0d2e8132f5798119148edef957e191280a42e1a7d4d0000000000000000000000000000000000000000000000004563918244f400001ca0e080dea3ede6843c8208968833c6f13ed72860c9e316b05e21a25b148c64d98da06bc4adb41cd0aa9e36874a16b7c20f5e7e3be3f84db35952c7492a23a6c0ede3",
      "networkId": 0,
      "chainId": 0
    },
    {
      "hash": "0xbaa93f461de434e89337f4d023d081cdd2dc765e98c00d870a21a7017e94145e",
      "blockHash": "0x625a346886cc6e4abebd33c8efe2fc2526896d0013d218de4d4542f4a1455957",
      "blockNumber": 73298,
      "transactionIndex": 1,
      "confirmations": null,
      "from": "0x326Be8F71bFb0379f989aAB1CC1fE37f0a771f60",
      "gasPrice": {
        "_hex": "0x1109c811aad"
      },
      "gasLimit": {
        "_hex": "0x493e0"
      },
      "to": "0xB86A36e3E0d2E8132F5798119148eDEF957E1912",
      "value": {
        "_hex": "0x8ac7230489e80000"
      },
      "nonce": 40,
      "data": "0x8d21618600000000000000000000000000000000000000000000000000000000000000808d5adaad541502933bfca57b79fdcf7b21a9ea7dbcf2e9321d253f5db02ac8f3",
      "r": "0xea1131a213efcd9093f5fb76995958c65e1bb1b5972dd378ebf0a83bbe6a6aa3",
      "s": "0x5ecd699e89adfde5f9ae4bcf65011f2220fdeb995e7f1ff2fbda047c4ffac72b",
      "v": 27,
      "creates": null,
      "raw": "0xf8b3288601109c811aad830493e094b86a36e3e0d2e8132f5798119148edef957e1912888ac7230489e80000b8448d21618600000000000000000000000000000000000000000000000000000000000000808d5adaad541502933bfca57b79fdcf7b21a9ea7dbcf2e9321d253f5db02ac8f31ba0ea1131a213efcd9093f5fb76995958c65e1bb1b5972dd378ebf0a83bbe6a6aa3a05ecd699e89adfde5f9ae4bcf65011f2220fdeb995e7f1ff2fbda047c4ffac72b",
      "networkId": 0,
      "chainId": 0
    }
  ]
}