{
  "hash": "0x45d838341a32758e5fc13bf728dd58bdb82567f71f9082dabb1bee1b6e3b87a6",
  "parentHash": "0xa7f5b0ff30afdff952758b33ddf36653e9252d5292036aaade4b8ac3261478ab",
  "number": 86652,
  "timestamp": 1439580935,
  "nonce": "0xae6c5ca8dc8aa6dd",
  "difficulty": 2938788434981,
  "gasLimit": {
    "_hex": "0x2fefd8"
  },
  "gasUsed": {
    "_hex": "0x5208"
  },
  "miner": "0x790b8a3cE86E707ED0eD32bF89B3269692a23CC1",
  "extraData": "0xd783010001844765746887676f312e342e32856c696e7578",
  "transactions": [
    {
      "hash": "0xe52414c0d510b741ec7b7464c1bc41401e10deb50b2c19090c5f3b4993ec3601",
      "blockHash": "0x45d838341a32758e5fc13bf728dd58bdb82567f71f9082dabb1bee1b6e3b87a6",
      "blockNumber": 86652,
      "transactionIndex": 0,
      "confirmations": null,
      "from": "0xAD6Ca8714649EF78661Bd275407FF50064C657a4",
      "gasPrice": {
        "_hex": "0xba43b7400"
      },
      "gasLimit": {
        "_hex": "0x5208"
      },
      "to": "0xC47Aaa860008be6f65B58c6C6E02a84e666EfE31",
      "value": {
        "_hex": "0x410adb449d0ee5710"
      },
      "nonce": 1,
      "data": "0x",
      "r": "0xb71eb6d961d1508d38bd9513f9423c4993e2b86d6ad4ebe8bd7b94c2d9e7e188",
      "s": "0x574902ec852653b2afac9f3f7d376bcf5ae49e8dc0ceed0b334adade31a26cb5",
      "v": 27,
      "creates": null,
      "raw": "0xf86d01850ba43b740082520894c47aaa860008be6f65b58c6c6e02a84e666efe31890410adb449d0ee5710801ba0b71eb6d961d1508d38bd9513f9423c4993e2b86d6ad4ebe8bd7b94c2d9e7e188a0574902ec852653b2afac9f3f7d376bcf5ae49e8dc0ceed0b334adade31a26cb5",
      "networkId": 0,
      "chainId": 0
    }
  ]
}