{
  "hash": "0x1bdae20dedeb92d94fa995b229f60b3dd03c3f3d8745cf1daee20d11208b5408",
  "parentHash": "0xbcd69da1141e482c0ad988ba433038693fd01f4669afc39651cfc91a3bb81181",
  "number": 48356,
  "timestamp": 1438955890,
  "nonce": "0xe90e9fbce67c8138",
  "difficulty": 1452924189343,
  "gasLimit": {
    "_hex": "0x15fb5"
  },
  "gasUsed": {
    "_hex": "0x546c"
  },
  "miner": "0xbb7B8287f3F0a933474a79eAe42CBCa977791171",
  "extraData": "0x476574682f4c5649562f76312e302e312f6c696e75782f676f312e342e32",
  "transactions": [
    {
      "hash": "0xc5e43e653a248953cb7cfb38eb978e34c611a0f09bc2753c55ae184082a8f087",
      "blockHash": "0x1bdae20dedeb92d94fa995b229f60b3dd03c3f3d8745cf1daee20d11208b5408",
      "blockNumber": 48356,
      "transactionIndex": 0,
      "confirmations": null,
      "from": "0xDB0CC78f74d9827bdc8A6473276eB84Fdc976212",
      "gasPrice": {
        "_hex": "0x1020c1baba0"
      },
      "gasLimit": {
        "_hex": "0x55f0"
      },
      "to": "0x0000000000000000000000000000000000000000",
      "value": {
        "_hex": "0x4563918244f40000"
      },
      "nonce": 4,
      "data": "0x454e4236384b513130",
      "r": "0xf5a8f0e14bd343601d649b127f4ebe251fdce23c50ba877e708dff5c652e5c56",
      "s": "0x146c85ed6f26cef543c0a0a58ff7d5487080d9d79e84436c9bf375ade79a9b46",
      "v": 28,
      "creates": null,
      "raw": "0xf876048601020c1baba08255f0940000000000000000000000000000000000000000884563918244f4000089454e4236384b5131301ca0f5a8f0e14bd343601d649b127f4ebe251fdce23c50ba877e708dff5c652e5c56a0146c85ed6f26cef543c0a0a58ff7d5487080d9d79e84436c9bf375ade79a9b46",
      "networkId": 0,
      "chainId": 0
    }
  ]
}