{
  "hash": "0x7bc5b6aa6b07cdbb9686c2041c746e22af438400b1817c5c0af3f169ddb00bc3",
  "parentHash": "0x3a760a30351e417d15b615a1d33f15707ccaa4574bdbc2e2c29bfc38ad3e92d0",
  "number": 101498,
  "timestamp": 1439823878,
  "nonce": "0x57aa1add05824272",
  "difficulty": 3856134048613,
  "gasLimit": {
    "_hex": "0x2fefd8"
  },
  "gasUsed": {
    "_hex": "0x14a84"
  },
  "miner": "0x785ffdDd5cE55c6DF963f345e68d3F2024E5Acb1",
  "extraData": "0x",
  "transactions": [
    {
      "hash": "0x00cd728104cea1b3b2ede52f86bd4db7ff8e5689b8eaa5986fd7c8e5d0e97e6b",
      "blockHash": "0x7bc5b6aa6b07cdbb9686c2041c746e22af438400b1817c5c0af3f169ddb00bc3",
      "blockNumber": 101498,
      "transactionIndex": 0,
      "confirmations": null,
      "from": "0xC978e305Aaa59952FAb39Ba288d6E9CB09B952E1",
      "gasPrice": {
        "_hex": "0xd12985bc3"
      },
      "gasLimit": {
        "_hex": "0x15f90"
      },
      "to": "0x42979fca296FEA2C163EA66E1900acDe7886F86F",
      "value": {
        "_hex": "0x43bdaf0355e020000"
      },
      "nonce": 0,
      "data": "0x454e433933464b3330",
      "r": "0xbde8604f4da96d393a335ebb564ed3fc787db1e1d293c410b5e677ee0552bd5b",
      "s": "0x07e7022695e5b8f93e13c75ca507b1ca99d91affae6d4b5436091ea635c8c51b",
      "v": 27,
      "creates": null,
      "raw": "0xf87780850d12985bc383015f909442979fca296fea2c163ea66e1900acde7886f86f89043bdaf0355e02000089454e433933464b33301ba0bde8604f4da96d393a335ebb564ed3fc787db1e1d293c410b5e677ee0552bd5ba007e7022695e5b8f93e13c75ca507b1ca99d91affae6d4b5436091ea635c8c51b",
      "networkId": 0,
      "chainId": 0
    },
    {
      "hash": "0x23cc25ecd729705f8fa91c0bb4ee7f904844c437999378ad3b04ad7a224ea522",
      "blockHash": "0x7bc5b6aa6b07cdbb9686c2041c746e22af438400b1817c5c0af3f169ddb00bc3",
      "blockNumber": 101498,
      "transactionIndex": 1,
      "confirmations": null,
      "from": "0x806C4e20CC913d7b70f5b7e24C6Ba15B16c56a5C",
      "gasPrice": {
        "_hex": "0xce1aa8668"
      },
      "gasLimit": {
        "_hex": "0x5208"
      },
      "to": "0x32Be343B94f860124dC4fEe278FDCBD38C102D88",
      "value": {
        "_hex": "0xb5ba1f39e218a000"
      },
      "nonce": 2,
      "data": "0x",
      "r": "0x4c679948af3093e88a7f6bdb6893be980c95cb82e2f9967ffe5701c2bcafbb7a",
      "s": "0x6711ebec95fed6d630b87477ee485770a470ecea4882c8a6bc54d4be74bf9715",
      "v": 27,
      "creates": null,
      "raw": "0xf86c02850ce1aa86688252089432be343b94f860124dc4fee278fdcbd38c102d8888b5ba1f39e218a000801ba04c679948af3093e88a7f6bdb6893be980c95cb82e2f9967ffe5701c2bcafbb7aa06711ebec95fed6d630b87477ee485770a470ecea4882c8a6bc54d4be74bf9715",
      "networkId": 0,
      "chainId": 0
    },
    {
      "hash": "0x3f4ebc5deae9b0912a43b12e5f4a4ea7037055ef9b006e216fa73229262571d2",
      "blockHash": "0x7bc5b6aa6b07cdbb9686c2041c746e22af438400b1817c5c0af3f169ddb00bc3",
      "blockNumber": 101498,
      "transactionIndex": 2,
      "confirmations": null,
      "from": "0x1151790FE5F7C3113dfb07Dc3914B1916EcC8a7A",
      "gasPrice": {
        "_hex": "0xce1aa8668"
      },
      "gasLimit": {
        "_hex": "0x5208"
      },
      "to": "0x32Be343B94f860124dC4fEe278FDCBD38C102D88",
      "value": {
        "_hex": "0x33ff717475ada000"
      },
      "nonce": 3,
      "data": "0x",
      "r": "0x0e2d316376564914d9ec7d95d6cfe8b6dfc3c48763e77dd3370d27050ad9c37d",
      "s": "0x68a9823a166dadeec4ee2bedbf9929a3abb6729b48528119d967094218914821",
      "v": 27,
      "creates": null,
      "raw": "0xf86c03850ce1aa86688252089432be343b94f860124dc4fee278fdcbd38c102d888833ff717475ada000801ba00e2d316376564914d9ec7d95d6cfe8b6dfc3c48763e77dd3370d27050ad9c37da068a9823a166dadeec4ee2bedbf9929a3abb6729b48528119d967094218914821",
      "networkId": 0,
      "chainId": 0
    },
    {
      "hash": "0x1f3f87e85c3282e0e94290e402caace695e18e91972d8d37b148de05bb3f02e7",
      "blockHash": "0x7bc5b6aa6b07cdbb9686c2041c746e22af438400b1817c5c0af3f169ddb00bc3",
      "blockNumber": 101498,
      "transactionIndex": 3,
      "confirmations": null,
      "from": "0xD9666150A9dA92d9108198a4072970805a8B3428",
      "gasPrice": {
        "_hex": "0xce1aa8668"
      },
      "gasLimit": {
        "_hex": "0x5208"
      },
      "to": "0x32Be343B94f860124dC4fEe278FDCBD38C102D88",
      "value": {
        "_hex": "0x455f70d25077a000"
      },
      "nonce": 50,
      "data": "0x",
      "r": "0xe3f5b547af7c1a2587d58d9ca933ef3d33ba1dafe1795df3177059de922e04c2",
      "s": "0x1459f33adcc57a0032cd67f5181e6c2ef0f589c3c050436db06463b3a5435406",
      "v": 28,
      "creates": null,
      "raw": "0xf86c32850ce1aa86688252089432be343b94f860124dc4fee278fdcbd38c102d8888455f70d25077a000801ca0e3f5b547af7c1a2587d58d9ca933ef3d33ba1dafe1795df3177059de922e04c2a01459f33adcc57a0032cd67f5181e6c2ef0f589c3c050436db06463b3a5435406",
      "networkId": 0,
      "chainId": 0
    }
  ]
}