{
  "hash": "0xece251171bde91f3109aafbf0fe175272c6483cd41938d6ada946a695e7d5fd3",
  "parentHash": "0x7c441fd65f01bac137877fc2b89a1bbf86f1324cc6df14d8feaa1e35d0ca23bd",
  "number": 72006,
  "timestamp": 1439345663,
  "nonce": "0xe8eae7b2288889eb",
  "difficulty": 2162250472122,
  "gasLimit": {
    "_hex": "0x2fefd8"
  },
  "gasUsed": {
    "_hex": "0x5208"
  },
  "miner": "0xf8E0CA3Ed80bd541b94BEdCf259e8CF2141A9523",
  "extraData": "0x476574682f76312e302e312f77696e646f77732f676f312e342e32",
  "transactions": [
    {
      "hash": "0x66723c73d800065ec6630f189507d6ee3d5915d2e2b9c99e505aad38ae654bdb",
      "blockHash": "0xece251171bde91f3109aafbf0fe175272c6483cd41938d6ada946a695e7d5fd3",
      "blockNumber": 72006,
      "transactionIndex": 0,
      "confirmations": null,
      "from": "0xa21E0cF3793cf75D63930696158E4474aF8383bA",
      "gasPrice": {
        "_hex": "0x100155d52bd"
      },
      "gasLimit": {
        "_hex": "0x15f90"
      },
      "to": "0x556ca325C21e450b2aFf86D9c8eF0Fa371971c97",
      "value": {
        "_hex": "0x2629f66e0c5300000"
      },
      "nonce": 10,
      "data": "0x",
      "r": "0xe2e693471381c8027c1a01f83ece1c4cb2fd5a3e2a5f6e8901e4c5e124c8af7e",
      "s": "0x7bf56265bf98475b8e0996e00742c4807e7816efe3b72168a49b9e6cccf2d2c0",
      "v": 28,
      "creates": null,
      "raw": "0xf86f0a860100155d52bd83015f9094556ca325c21e450b2aff86d9c8ef0fa371971c978902629f66e0c5300000801ca0e2e693471381c8027c1a01f83ece1c4cb2fd5a3e2a5f6e8901e4c5e124c8af7ea07bf56265bf98475b8e0996e00742c4807e7816efe3b72168a49b9e6cccf2d2c0",
      "networkId": 0,
      "chainId": 0
    }
  ]
}