{
  "hash": "0xc36375b2440a3d06a467b50491bccde6f3649eab04e3b355ca03fe1a2e739297",
  "parentHash": "0xaf5c2dc45a6e7ef35368e9f21cc4ecc96047ea1253ef8a21f82dceba42c7d7fd",
  "number": 51758,
  "timestamp": 1439010371,
  "nonce": "0x7aa00cd3b7f2639d",
  "difficulty": 1553569949262,
  "gasLimit": {
    "_hex": "0xd9572"
  },
  "gasUsed": {
    "_hex": "0x5208"
  },
  "miner": "0x400fb5A6482E54E44b2250E75251707514c605C1",
  "extraData": "0x476574682f76312e302e312f77696e646f77732f676f312e342e32",
  "transactions": [
    {
      "hash": "0x0a39d0648d1e483544ccc9aadcfb0f60fac4718d18375ec3b269ca14baf61d75",
      "blockHash": "0xc36375b2440a3d06a467b50491bccde6f3649eab04e3b355ca03fe1a2e739297",
      "blockNumber": 51758,
      "transactionIndex": 0,
      "confirmations": null,
      "from": "0xD2581A55ce23aB10D8AD8c44378F59079BD6F658",
      "gasPrice": {
        "_hex": "0xdc2ef1cd4"
      },
      "gasLimit": {
        "_hex": "0x15f90"
      },
      "to": "0x0cC205067597e1a5E7adB4B3dC3ad76ee23F0562",
      "value": {
        "_hex": "0xde0b6b3a7640000"
      },
      "nonce": 1,
      "data": "0x",
      "r": "0x097aa10d34493d6ed463f713e76822bfe327ac64deb1654a0ccdf5018efa64ec",
      "s": "0x113823decb8c5bd1b535b4ce9f880c9cb86c75e7a3156850694d046f0bc5f834",
      "v": 27,
      "creates": null,
      "raw": "0xf86d01850dc2ef1cd483015f90940cc205067597e1a5e7adb4b3dc3ad76ee23f0562880de0b6b3a7640000801ba0097aa10d34493d6ed463f713e76822bfe327ac64deb1654a0ccdf5018efa64eca0113823decb8c5bd1b535b4ce9f880c9cb86c75e7a3156850694d046f0bc5f834",
      "networkId": 0,
      "chainId": 0
    }
  ]
}