{
  "hash": "0xd5a1197c6a9ea495de0050de159126d48d326e0cddf165bf3564253e787573cf",
  "parentHash": "0x17cdc7566fa0101ec5d2adb54a832b94f73995f37d183e2d4eea11f6c47ba5a2",
  "number": 59583,
  "timestamp": 1439140591,
  "nonce": "0x02ebabc33305f775",
  "difficulty": 1700515199859,
  "gasLimit": {
    "_hex": "0x2fefd8"
  },
  "gasUsed": {
    "_hex": "0x5208"
  },
  "miner": "0x3F98e477a361F777DA14611a7e419A75Fd238b6b",
  "extraData": "0x476574682f76312e302e312f6c696e75782f676f312e342e32",
  "transactions": [
    {
      "hash": "0xb7ab2c56edf126fec258f1717ef2f4c9b3c31c99c8573284e44c0140264bbe54",
      "blockHash": "0xd5a1197c6a9ea495de0050de159126d48d326e0cddf165bf3564253e787573cf",
      "blockNumber": 59583,
      "transactionIndex": 0,
      "confirmations": null,
      "from": "0xB5EDD17d2582A94610ebf0C6832c1652EBBBe210",
      "gasPrice": {
        "_hex": "0xd35d9dbfa"
      },
      "gasLimit": {
        "_hex": "0x5208"
      },
      "to": "0x98077F47f89BEd877C8877Bf95753f6cE0CE4fcF",
      "value": {
        "_hex": "0x6194049f30f7200000"
      },
      "nonce": 1,
      "data": "0x",
      "r": "0x304ae653836b64187da680e4905acfab3a729c15dc5a8fac459ea8a42be6481a",
      "s": "0x257365233e4dcf9954cded6da37829797258de02ace5fc6562018f3c388e5afe",
      "v": 27,
      "creates": null,
      "raw": "0xf86d01850d35d9dbfa8252089498077f47f89bed877c8877bf95753f6ce0ce4fcf896194049f30f7200000801ba0304ae653836b64187da680e4905acfab3a729c15dc5a8fac459ea8a42be6481aa0257365233e4dcf9954cded6da37829797258de02ace5fc6562018f3c388e5afe",
      "networkId": 0,
      "chainId": 0
    }
  ]
}