{
  "hash": "0x9d68dda5cda45f2e9de91669ecda910fa44a546d07c82bcfe4c217655a59f991",
  "parentHash": "0x769efeb4201604c30de9825c5cdd67cfbb1adfd6c3062b916cdb422c9f6aa568",
  "number": 97247,
  "timestamp": 1439753139,
  "nonce": "0x6d3115f0e2845c43",
  "difficulty": 3781619532785,
  "gasLimit": {
    "_hex": "0x2fefd8"
  },
  "gasUsed": {
    "_hex": "0x520c"
  },
  "miner": "0x893FF53FE9b3DA680472E1948F2294F970D44678",
  "extraData": "0x476574682f76312e302e312f6c696e75782f676f312e342e32",
  "transactions": [
    {
      "hash": "0x1d777ce29a6e4f396d42e0c647864d439f9363e15e1dbbd74a10ade0d3f4ebea",
      "blockHash": "0x9d68dda5cda45f2e9de91669ecda910fa44a546d07c82bcfe4c217655a59f991",
      "blockNumber": 97247,
      "transactionIndex": 0,
      "confirmations": null,
      "from": "0x0BE1Bcb90343FAe5303173F461Bd914A4839056c",
      "gasPrice": {
        "_hex": "0xe132bce02"
      },
      "gasLimit": {
        "_hex": "0x7530"
      },
      "to": "0x80Cee9c0Af90D34358927D5F99f585e2bF92bc11",
      "value": {
        "_hex": "0x12a19f4850ca1100000"
      },
      "nonce": 1,
      "data": "0x00",
      "r": "0x3b25e9a69c4994f3f67496893c3ae9c08d5dd79884b61636aaf05669ee682ad2",
      "s": "0x63a529361a5140c85da1884dc4bba9b3e264723277ebc059b5987b22928b3103",
      "v": 28,
      "creates": null,
      "raw": "0xf86e01850e132bce028275309480cee9c0af90d34358927d5f99f585e2bf92bc118a012a19f4850ca1100000001ca03b25e9a69c4994f3f67496893c3ae9c08d5dd79884b61636aaf05669ee682ad2a063a529361a5140c85da1884dc4bba9b3e264723277ebc059b5987b22928b3103",
      "networkId": 0,
      "chainId": 0
    }
  ]
}