{
  "hash": "0x8fb2c1b6e56b30f21701330f4fbebd75facc39add618d42c44c2810207b57f63",
  "parentHash": "0xa619b146404a2ab40b90e705f0df2554beb38347ad79ec365ffe9c756b1ef40a",
  "number": 83473,
  "timestamp": 1439535915,
  "nonce": "0xb473109d715d2801",
  "difficulty": 2431321519146,
  "gasLimit": {
    "_hex": "0x2fefd8"
  },
  "gasUsed": {
    "_hex": "0x546c"
  },
  "miner": "0xbb7B8287f3F0a933474a79eAe42CBCa977791171",
  "extraData": "0x476574682f4c5649562f76312e302e312f6c696e75782f676f312e342e32",
  "transactions": [
    {
      "hash": "0x1a746fe65f2e3041f7ba8bcecf4a2c1fe240543dbb761cc196140dec754a8f1c",
      "blockHash": "0x8fb2c1b6e56b30f21701330f4fbebd75facc39add618d42c44c2810207b57f63",
      "blockNumber": 83473,
      "transactionIndex": 0,
      "confirmations": null,
      "from": "0x89Ab13eE266D779c35E8BB04cD8a90cc2103a95B",
      "gasPrice": {
        "_hex": "0x110c8f7d8de"
      },
      "gasLimit": {
        "_hex": "0xc350"
      },
      "to": "0x2910543Af39abA0Cd09dBb2D50200b3E800A63D2",
      "value": {
        "_hex": "0xde0b6b3a7640000"
      },
      "nonce": 0,
      "data": "0x454e35394830354538",
      "r": "0x9a2b5bf696f7e5ddf82e82b785d7e8966c089e51384031390b0d562cf4abeb56",
      "s": "0xe58332c9b42af0b24e9e4f740b96211348b1f936e824b913c58bddc44a7b1cef",
      "v": 27,
      "creates": null,
      "raw": "0xf87680860110c8f7d8de82c350942910543af39aba0cd09dbb2d50200b3e800a63d2880de0b6b3a764000089454e353948303545381ba09a2b5bf696f7e5ddf82e82b785d7e8966c089e51384031390b0d562cf4abeb56a0e58332c9b42af0b24e9e4f740b96211348b1f936e824b913c58bddc44a7b1cef",
      "networkId": 0,
      "chainId": 0
    }
  ]
}