{
  "hash": "0xfea330525e32c657bd88d9255609b481078e8076771c4463cd224aa76d6558bf",
  "parentHash": "0x85f5c28e9d52bedd4adb1a6bb9e87425b5cde240a06c230a0067fcadbcb4ea88",
  "number": 47128,
  "timestamp": 1438934630,
  "nonce": "0xe554f03756d245eb",
  "difficulty": 1461676365288,
  "gasLimit": {
    "_hex": "0x99e6"
  },
  "gasUsed": {
    "_hex": "0x5208"
  },
  "miner": "0xa50ec0D39fa913E62f1Bae7074E6F36caA71855b",
  "extraData": "0x476574682f76312e302e302f6c696e75782f676f312e342e32",
  "transactions": [
    {
      "hash": "0x95dd107ec459049c81357c9e9e9e87c43e408e9e2a316ac0aa50fd06cfce038e",
      "blockHash": "0xfea330525e32c657bd88d9255609b481078e8076771c4463cd224aa76d6558bf",
      "blockNumber": 47128,
      "transactionIndex": 0,
      "confirmations": null,
      "from": "0xe6A7a1d47ff21B6321162AEA7C6CB457D5476Bca",
      "gasPrice": {
        "_hex": "0xde92c270d"
      },
      "gasLimit": {
        "_hex": "0x5208"
      },
      "to": "0x17bF56c2B514eDf8fF776D44D4a85908B645F5ED",
      "value": {
        "_hex": "0x31c7d410822cf0f0"
      },
      "nonce": 49,
      "data": "0x",
      "r": "0x3e96ca52eae633819e89b95b56c023abe98be4e1278068e731f1a41224f26af8",
      "s": "0x66586eca152488584d9cfcd3e4b22599611691c8cb7264117e85a188115204e3",
      "v": 28,
      "creates": null,
      "raw": "0xf86c31850de92c270d8252089417bf56c2b514edf8ff776d44d4a85908b645f5ed8831c7d410822cf0f0801ca03e96ca52eae633819e89b95b56c023abe98be4e1278068e731f1a41224f26af8a066586eca152488584d9cfcd3e4b22599611691c8cb7264117e85a188115204e3",
      "networkId": 0,
      "chainId": 0
    }
  ]
}