{
  "hash": "0xb4a5eca1ed9f435e852edebdd77144cb07e344ba17fe0f002f627d1b5f51bcfa",
  "parentHash": "0xd0a755264ed32e98db0981bbf2b9386b0315b7c2f34115a462d08e2e917d7177",
  "number": 47002,
  "timestamp": 1438932968,
  "nonce": "0x1f2322a82e4c6168",
  "difficulty": 1450323292910,
  "gasLimit": {
    "_hex": "0x8e27"
  },
  "gasUsed": {
    "_hex": "0x5208"
  },
  "miner": "0xf927a40C8B7F6E07c5af7FA2155B4864a4112B13",
  "extraData": "0x476574682f76312e302e312f6c696e75782f676f312e342e32",
  "transactions": [
    {
      "hash": "0x65c132288a8e6adbc50b196f12287ae55d0d6f323a82cbebb1b2ff21fe04cfb1",
      "blockHash": "0xb4a5eca1ed9f435e852edebdd77144cb07e344ba17fe0f002f627d1b5f51bcfa",
      "blockNumber": 47002,
      "transactionIndex": 0,
      "confirmations": null,
      "from": "0x6B925dD5D8eD6132Ab6D0860b82C44e1a51F1fEe",
      "gasPrice": {
        "_hex": "0xcb0d51c2d"
      },
      "gasLimit": {
        "_hex": "0x55f0"
      },
      "to": "0xbc3324C4020F0A7dDc0d9Be8254b1f3f291E53fE",
      "value": {
        "_hex": "0x2386f26fc10000"
      },
      "nonce": 0,
      "data": "0x",
      "r": "0xc96e87c4de725e63d9dc9f52800bb65d978c25aab09ca8e932f43bc3870ff1d1",
      "s": "0x655b385aa8348a956267a8dc94e848ae1df08136982f0ab54bfc6257b52d3076",
      "v": 28,
      "creates": null,
      "raw": "0xf86b80850cb0d51c2d8255f094bc3324c4020f0a7ddc0d9be8254b1f3f291e53fe872386f26fc10000801ca0c96e87c4de725e63d9dc9f52800bb65d978c25aab09ca8e932f43bc3870ff1d1a0655b385aa8348a956267a8dc94e848ae1df08136982f0ab54bfc6257b52d3076",
      "networkId": 0,
      "chainId": 0
    }
  ]
}