{
  "hash": "0x231bb97fdec84e1a7575594ca92a715645177dbef19ea3f89a9ea105162df863",
  "parentHash": "0x801277750cfb29e1b3aafa16fd6b0b8e34d59d0c1a04ddcf7d1568669f96a380",
  "number": 79910,
  "timestamp": 1439477181,
  "nonce": "0xb4b582b3111f7653",
  "difficulty": 2349474569783,
  "gasLimit": {
    "_hex": "0x2fefd8"
  },
  "gasUsed": {
    "_hex": "0x546c"
  },
  "miner": "0xbb7B8287f3F0a933474a79eAe42CBCa977791171",
  "extraData": "0x476574682f4c5649562f76312e302e312f6c696e75782f676f312e342e32",
  "transactions": [
    {
      "hash": "0x694fabc35c169677764d7ea7ea428c171a9b7d6e4f58c0750526a633dacc62ff",
      "blockHash": "0x231bb97fdec84e1a7575594ca92a715645177dbef19ea3f89a9ea105162df863",
      "blockNumber": 79910,
      "transactionIndex": 0,
      "confirmations": null,
      "from": "0x6c341709A69F0D286ff289986ECd928bb3a51B7A",
      "gasPrice": {
        "_hex": "0x9184e72a000"
      },
      "gasLimit": {
        "_hex": "0x55f0"
      },
      "to": "0x2910543Af39abA0Cd09dBb2D50200b3E800A63D2",
      "value": {
        "_hex": "0x5b97e9081d940000"
      },
      "nonce": 4,
      "data": "0x454e58455657313530",
      "r": "0xda4ac000ff25474e75c7c27e8d52171304c4b5397b25e1d3971a272229d56b6e",
      "s": "0x5e432618a76a2149e424f681a3772d1c79f38f653aaa11e47d8c8dc18120a1b7",
      "v": 27,
      "creates": null,
      "raw": "0xf876048609184e72a0008255f0942910543af39aba0cd09dbb2d50200b3e800a63d2885b97e9081d94000089454e584556573135301ba0da4ac000ff25474e75c7c27e8d52171304c4b5397b25e1d3971a272229d56b6ea05e432618a76a2149e424f681a3772d1c79f38f653aaa11e47d8c8dc18120a1b7",
      "networkId": 0,
      "chainId": 0
    }
  ]
}