{
  "hash": "0xbeef8f52793c6a2b41db3591c70a367b1236b655b4fcec6574b42c5d68dcdc68",
  "parentHash": "0x1c359781733ad4ffec5fa20816d84c64c69297646dd5299bd99ae4d6ab4c181d",
  "number": 87033,
  "timestamp": 1439586290,
  "nonce": "0x167fd9a732337467",
  "difficulty": 3018643177934,
  "gasLimit": {
    "_hex": "0x2fefd8"
  },
  "gasUsed": {
    "_hex": "0x5208"
  },
  "miner": "0xeB1325C8D9d3ea8D74aC11F4B00F1B2367686319",
  "extraData": "0x476574682f76312e302e312f77696e646f77732f676f312e342e32",
  "transactions": [
    {
      "hash": "0xf75f5e5d1f53ce2abae864a39db6c116b8b141ac68c3981576e3aa0ec7d33733",
      "blockHash": "0xbeef8f52793c6a2b41db3591c70a367b1236b655b4fcec6574b42c5d68dcdc68",
      "blockNumber": 87033,
      "transactionIndex": 0,
      "confirmations": null,
      "from": "0x8b6bdecDD971D3Fd0f59CDe23843B0320962C9B3",
      "gasPrice": {
        "_hex": "0xd3d37f23a"
      },
      "gasLimit": {
        "_hex": "0x15f90"
      },
      "to": "0x3b8E0D4377E08D6d82FB5F22B246399f54bfCddD",
      "value": {
        "_hex": "0x71afd498d0000"
      },
      "nonce": 0,
      "data": "0x",
      "r": "0xcad7ffde18b1d8140e833693b72dadd94be3df284b6dd7b2b69585ba1b8f87af",
      "s": "0x50e2ee780591e3b7e208685c5173ba9120a1ad68436f6ee10298cbb3c8680fa1",
      "v": 27,
      "creates": null,
      "raw": "0xf86c80850d3d37f23a83015f90943b8e0d4377e08d6d82fb5f22b246399f54bfcddd87071afd498d0000801ba0cad7ffde18b1d8140e833693b72dadd94be3df284b6dd7b2b69585ba1b8f87afa050e2ee780591e3b7e208685c5173ba9120a1ad68436f6ee10298cbb3c8680fa1",
      "networkId": 0,
      "chainId": 0
    }
  ]
}