{
  "hash": "0x9a3e6f615cdc05ecd93c794f67c2eb740d5d85181262349ae3174b6d5e4a70b0",
  "parentHash": "0x111d967af6f01044847941df9dbfd033aa6aac5d7e30925ce560e7f2dcd53038",
  "number": 108027,
  "timestamp": 1439932835,
  "nonce": "0xe2645b926c2211a6",
  "difficulty": 4372573231718,
  "gasLimit": {
    "_hex": "0x2fefd8"
  },
  "gasUsed": {
    "_hex": "0x5208"
  },
  "miner": "0x580992B51e3925e23280EfB93d3047C82f17E038",
  "extraData": "0x476574682f76312e302e312f6c696e75782f676f312e342e32",
  "transactions": [
    {
      "hash": "0x90aaee0dc31646bc7072f0e3ee4a6a2f0857dd7ec252f066fe38cd2362ddd005",
      "blockHash": "0x9a3e6f615cdc05ecd93c794f67c2eb740d5d85181262349ae3174b6d5e4a70b0",
      "blockNumber": 108027,
      "transactionIndex": 0,
      "confirmations": null,
      "from": "0xb02fA29387eC12e37F6922AC4Ce98c5B09E0B00F",
      "gasPrice": {
        "_hex": "0xe056d2d29"
      },
      "gasLimit": {
        "_hex": "0x5208"
      },
      "to": "0x470A744BbB2f703d035Ac1d61E2660129b087C21",
      "value": {
        "_hex": "0x6c6b8edd5e995f74b8"
      },
      "nonce": 0,
      "data": "0x",
      "r": "0xb6caab1d40b40c965946ff7f9b689afa559186acb6b85aafc6b8cf118c403064",
      "s": "0x38e5e37ba5d9f88f9c4dcd9c12976e8ab7b568274aa5a536fa8567e1f2162a31",
      "v": 27,
      "creates": null,
      "raw": "0xf86d80850e056d2d2982520894470a744bbb2f703d035ac1d61e2660129b087c21896c6b8edd5e995f74b8801ba0b6caab1d40b40c965946ff7f9b689afa559186acb6b85aafc6b8cf118c403064a038e5e37ba5d9f88f9c4dcd9c12976e8ab7b568274aa5a536fa8567e1f2162a31",
      "networkId": 0,
      "chainId": 0
    }
  ]
}