{
  "hash": "0xaf55917ad2739085e82a7887e4e9e7e37f89b17aeb5ab3e9f36268f86b9e2b48",
  "parentHash": "0x54ff132057613f8fc73f32e392d140c04bb97eccb2382ba9db48c8b4dc26e199",
  "number": 55675,
  "timestamp": 1439074865,
  "nonce": "0x8e65de885d22972a",
  "difficulty": 1610765657366,
  "gasLimit": {
    "_hex": "0x2fe3de"
  },
  "gasUsed": {
    "_hex": "0x5208"
  },
  "miner": "0x88D74a59454F6cF3B51ef6b9136AFb6b9D405A88",
  "extraData": "0x476574682f76312e302e302d66633739643332642f6c696e75782f676f312e34",
  "transactions": [
    {
      "hash": "0xef64f009410827ba75541701c4330062c9ddadbef42d7a0fc762eda9e4c65948",
      "blockHash": "0xaf55917ad2739085e82a7887e4e9e7e37f89b17aeb5ab3e9f36268f86b9e2b48",
      "blockNumber": 55675,
      "transactionIndex": 0,
      "confirmations": null,
      "from": "0x1308A2e95c0160B90803ddCA9B9a5bb55E416d79",
      "gasPrice": {
        "_hex": "0xe8d4a51000"
      },
      "gasLimit": {
        "_hex": "0x15f90"
      },
      "to": "0x025c3B43d57E72D2150E14B2B0c6D923FbFC0474",
      "value": {
        "_hex": "0x3635c9adc5dea00000"
      },
      "nonce": 29,
      "data": "0x",
      "r": "0xb919d8dd68fa2859bcc2f638b90ca46c1e514e2d87372c72cc357c280b9dd9d4",
      "s": "0x7803652727f72a5d988e9e341237cb6dd36fc76c4b19d29c4c85794bb4950052",
      "v": 27,
      "creates": null,
      "raw": "0xf86e1d85e8d4a5100083015f9094025c3b43d57e72d2150e14b2b0c6d923fbfc0474893635c9adc5dea00000801ba0b919d8dd68fa2859bcc2f638b90ca46c1e514e2d87372c72cc357c280b9dd9d4a07803652727f72a5d988e9e341237cb6dd36fc76c4b19d29c4c85794bb4950052",
      "networkId": 0,
      "chainId": 0
    }
  ]
}