{
  "hash": "0xd4769ff14172c5c301faf1940348743b14c3eb1c2bb0f5b79b13374095b4c5f4",
  "parentHash": "0x6b798eddd341cc5f1a8bf38f7aad2e8caac078dfafecca389c0bb699c4163db0",
  "number": 57408,
  "timestamp": 1439102707,
  "nonce": "0x0dec1614eb41009d",
  "difficulty": 1742143631799,
  "gasLimit": {
    "_hex": "0x2fefd8"
  },
  "gasUsed": {
    "_hex": "0x5208"
  },
  "miner": "0xeB1325C8D9d3ea8D74aC11F4B00F1B2367686319",
  "extraData": "0x476574682f76312e302e312f77696e646f77732f676f312e342e32",
  "transactions": [
    {
      "hash": "0x1bf54b7106119ba056ba71f27f9612d39c6aeeb2211518576265f5fd617dcd97",
      "blockHash": "0xd4769ff14172c5c301faf1940348743b14c3eb1c2bb0f5b79b13374095b4c5f4",
      "blockNumber": 57408,
      "transactionIndex": 0,
      "confirmations": null,
      "from": "0x8c3E011071dfaE52a3ff942cE9D9664eb3E55763",
      "gasPrice": {
        "_hex": "0xe0bcc71be"
      },
      "gasLimit": {
        "_hex": "0x5208"
      },
      "to": "0x32Be343B94f860124dC4fEe278FDCBD38C102D88",
      "value": {
        "_hex": "0x53f8acfcd35bb40000"
      },
      "nonce": 0,
      "data": "0x",
      "r": "0x185d282ec6b24e2d7dcfab4c70f22479641038a99d0a8f30e7b395a6b1ff4f75",
      "s": "0x28eb9f15feb92ef35d5a81758b6e202384ebe12fad5935cda6b60da135c1591e",
      "v": 28,
      "creates": null,
      "raw": "0xf86d80850e0bcc71be8252089432be343b94f860124dc4fee278fdcbd38c102d888953f8acfcd35bb40000801ca0185d282ec6b24e2d7dcfab4c70f22479641038a99d0a8f30e7b395a6b1ff4f75a028eb9f15feb92ef35d5a81758b6e202384ebe12fad5935cda6b60da135c1591e",
      "networkId": 0,
      "chainId": 0
    }
  ]
}