{
  "hash": "0xf5289ef5c02d2641340b38abddd74263c20daaa0ba1b8aa262ecec880d4a78d4",
  "parentHash": "0x6487a73e342e994812487ae58efbabe662777870da21f5971fcd7ffb38adfc8b",
  "number": 75126,
  "timestamp": 1439398095,
  "nonce": "0x645b4572521dbc26",
  "difficulty": 2191200369525,
  "gasLimit": {
    "_hex": "0x2fefd8"
  },
  "gasUsed": {
    "_hex": "0xe167"
  },
  "miner": "0x6DE55b563cE6E319cCB403032Da3BE5Ad4ec4FcF",
  "extraData": "0x",
  "transactions": [
    {
      "hash": "0xbc064fcd150e931b741fe24e65de3edae2dc7c6af3bc5cd99c478c01d0cf9b17",
      "blockHash": "0xf5289ef5c02d2641340b38abddd74263c20daaa0ba1b8aa262ecec880d4a78d4",
      "blockNumber": 75126,
      "transactionIndex": 0,
      "confirmations": null,
      "from": "0x326Be8F71bFb0379f989aAB1CC1fE37f0a771f60",
      "gasPrice": {
        "_hex": "0x11786f97ea3"
      },
      "gasLimit": {
        "_hex": "0x493e0"
      },
      "to": "0xD79B4C6791784184e2755B2fC1659eaaB0f80456",
      "value": {
        "_hex": "0xde0b6b3a7640000"
      },
      "nonce": 72,
      "data": "0x8d2161860000000000000000000000000000000000000000000000000000000000000040506413004d23310ffc1586b803fbe6e6a8a2c4e45c8191061531d2301850be9b",
      "r": "0x80e4d1f33fff2bfe4b0a07356074c3fb3dd6fcf8e699262f12b13f3d4fee75eb",
      "s": "0x052b34b7d29bda0882027cc878a594ced3442d30de2bb513424f26a7d3eab119",
      "v": 28,
      "creates": null,
      "raw": "0xf8b34886011786f97ea3830493e094d79b4c6791784184e2755b2fc1659eaab0f80456880de0b6b3a7640000b8448d2161860000000000000000000000000000000000000000000000000000000000000040506413004d23310ffc1586b803fbe6e6a8a2c4e45c8191061531d2301850be9b1ca080e4d1f33fff2bfe4b0a07356074c3fb3dd6fcf8e699262f12b13f3d4fee75eba0052b34b7d29bda0882027cc878a594ced3442d30de2bb513424f26a7d3eab119",
      "networkId": 0,
      "chainId": 0
    },
    {
      "hash": "0xdd14c5cd4220ebdbc192edd0bf62c108e0cd1cf188f55705c46e5e5a015c61de",
      "blockHash": "0xf5289ef5c02d2641340b38abddd74263c20daaa0ba1b8aa262ecec880d4a78d4",
      "blockNumber": 75126,
      "transactionIndex": 1,
      "confirmations": null,
      "from": "0x770d98d31b4353FceEE8560c4CCf803e88C0c4e0",
      "gasPrice": {
        "_hex": "0xcf8a49ee8"
      },
      "gasLimit": {
        "_hex": "0x15f90"
      },
      "to": "0xCc519A6f707571a4C58F0c4b574643283a0742B8",
      "value": {
        "_hex": "0x2386f26fc10000"
      },
      "nonce": 1,
      "data": "0x",
      "r": "0xf68b1c6fac00f562b6b86f6a4edd426b790481762c31456c975b33202c97a1f9",
      "s": "0x1beae74f2f4eab66fb18a6321043e176b5caa5bfe248be7e5b3f72a2c6daf2e7",
      "v": 28,
      "creates": null,
      "raw": "0xf86c01850cf8a49ee883015f9094cc519a6f707571a4c58f0c4b574643283a0742b8872386f26fc10000801ca0f68b1c6fac00f562b6b86f6a4edd426b790481762c31456c975b33202c97a1f9a01beae74f2f4eab66fb18a6321043e176b5caa5bfe248be7e5b3f72a2c6daf2e7",
      "networkId": 0,
      "chainId": 0
    }
  ]
}