{
  "hash": "0x5a11e6d99acc54afe9645f78ffcc515c450b946c877c2281699b863002abdbc3",
  "parentHash": "0x139522f9bf5c0b76862a7b41eb35709151ed1a7e40d13fa1b1c69af33a417582",
  "number": 64294,
  "timestamp": 1439218421,
  "nonce": "0xf9a9987b450f492a",
  "difficulty": 1876654687845,
  "gasLimit": {
    "_hex": "0x2fefd8"
  },
  "gasUsed": {
    "_hex": "0x5208"
  },
  "miner": "0x4197aa0c90c2D4AD72A06a26a014C315a589579D",
  "extraData": "0xdd809b302e392e34302b2b616339392d5257696e646f2f6d73762f4a4954",
  "transactions": [
    {
      "hash": "0x77ee81c8d4b366f04727406b9dc31cb46405791e05458f97ae2d89bc8ea620bf",
      "blockHash": "0x5a11e6d99acc54afe9645f78ffcc515c450b946c877c2281699b863002abdbc3",
      "blockNumber": 64294,
      "transactionIndex": 0,
      "confirmations": null,
      "from": "0x2910543Af39abA0Cd09dBb2D50200b3E800A63D2",
      "gasPrice": {
        "_hex": "0xce9c67271"
      },
      "gasLimit": {
        "_hex": "0x5208"
      },
      "to": "0xB0bA9ec050654A083c88777e30261F815cB0A3B7",
      "value": {
        "_hex": "0x1b78844c6c60d80000"
      },
      "nonce": 140,
      "data": "0x",
      "r": "0x36542c48b2124ee79f795b2d2e72e6b9965beb6ee1e5bc28467eeaa0fc380957",
      "s": "0x498f0a210314033c04f70b0774d52b385e983fd2bfd3132a3f060a74a3ec207c",
      "v": 28,
      "creates": null,
      "raw": "0xf86e818c850ce9c6727182520894b0ba9ec050654a083c88777e30261f815cb0a3b7891b78844c6c60d80000801ca036542c48b2124ee79f795b2d2e72e6b9965beb6ee1e5bc28467eeaa0fc380957a0498f0a210314033c04f70b0774d52b385e983fd2bfd3132a3f060a74a3ec207c",
      "networkId": 0,
      "chainId": 0
    }
  ]
}