{
  "hash": "0xc8f51749cc95fe7f058e0b74fa971ac85bd22fbfd3c09386c76c5a6c0b0e552e",
  "parentHash": "0x5f6297b53ea1a6991679758453d7b43850ad947750f7570dafa8ef1352a7d6cf",
  "number": 90663,
  "timestamp": 1439643540,
  "nonce": "0x02024fde05a977a8",
  "difficulty": 3346417447755,
  "gasLimit": {
    "_hex": "0x2fefd8"
  },
  "gasUsed": {
    "_hex": "0x5208"
  },
  "miner": "0x6DE55b563cE6E319cCB403032Da3BE5Ad4ec4FcF",
  "extraData": "0x",
  "transactions": [
    {
      "hash": "0x710b81cc0670dffcbb4a0e36450112742e0367da51768923c3cfc1974295a680",
      "blockHash": "0xc8f51749cc95fe7f058e0b74fa971ac85bd22fbfd3c09386c76c5a6c0b0e552e",
      "blockNumber": 90663,
      "transactionIndex": 0,
      "confirmations": null,
      "from": "0x8293b65bD915B9FF87F6aDAb479da2e5b6633fDB",
      "gasPrice": {
        "_hex": "0xd7daf8a13"
      },
      "gasLimit": {
        "_hex": "0x15f90"
      },
      "to": "0x9f78552704fe7e52cC7C3853534aA2C3cf580D54",
      "value": {
        "_hex": "0x8ac7230489e80000"
      },
      "nonce": 8,
      "data": "0x",
      "r": "0xcf49ffe6c83d52be07093ba9f1973d5822d70b37664467f698b6e4355d993cc7",
      "s": "0x5da0f8cd22c92cb414c4264300f8b7a2c1efe277e14353897bc02abaa292536b",
      "v": 27,
      "creates": null,
      "raw": "0xf86d08850d7daf8a1383015f90949f78552704fe7e52cc7c3853534aa2c3cf580d54888ac7230489e80000801ba0cf49ffe6c83d52be07093ba9f1973d5822d70b37664467f698b6e4355d993cc7a05da0f8cd22c92cb414c4264300f8b7a2c1efe277e14353897bc02abaa292536b",
      "networkId": 0,
      "chainId": 0
    }
  ]
}