{
  "hash": "0xd31980a0b7f23e108c985c68e5ab242c82bea45cf578d70a94d606449cdd2d23",
  "parentHash": "0xcd56f23d69d306395f7aee0c4c5e5f2b74340e8c9126fb055b84384582eba1d8",
  "number": 75398,
  "timestamp": 1439402661,
  "nonce": "0xc8fdec4573bc23cf",
  "difficulty": 2199705159517,
  "gasLimit": {
    "_hex": "0x2fefd8"
  },
  "gasUsed": {
    "_hex": "0xad77"
  },
  "miner": "0xFf9a46E0358502f3Ae5D7faBF50E71A067259A9A",
  "extraData": "0x476574682f76312e302e312f77696e646f77732f676f312e342e32",
  "transactions": [
    {
      "hash": "0xdb6ae77dba64827d7514e89a36bc39e7f7c32581cacc6ea8b80a4ad0eccf8604",
      "blockHash": "0xd31980a0b7f23e108c985c68e5ab242c82bea45cf578d70a94d606449cdd2d23",
      "blockNumber": 75398,
      "transactionIndex": 0,
      "confirmations": null,
      "from": "0x87C5B5874A18B4306DF8a752a6C8cc3E82daFc19",
      "gasPrice": {
        "_hex": "0x10c701d3b9f"
      },
      "gasLimit": {
        "_hex": "0x493e0"
      },
      "to": "0xD79B4C6791784184e2755B2fC1659eaaB0f80456",
      "value": {
        "_hex": "0x0"
      },
      "nonce": 45,
      "data": "0x03750d940000000000000000000000000c7a4e5c8aca4ff0c9655edd175f82fef48f17173339346437373532356135393034616300000000000000000000000000000000",
      "r": "0x614abb9fa549ebe8091ca8a8f4becc0b686b6913d395e95e5b9f73fb563d0c0c",
      "s": "0x4a2db9f7844258084e126ef39b601f3bcf8979f59867fc4c11304cec247f50b5",
      "v": 27,
      "creates": null,
      "raw": "0xf8ab2d86010c701d3b9f830493e094d79b4c6791784184e2755b2fc1659eaab0f8045680b84403750d940000000000000000000000000c7a4e5c8aca4ff0c9655edd175f82fef48f171733393464373735323561353930346163000000000000000000000000000000001ba0614abb9fa549ebe8091ca8a8f4becc0b686b6913d395e95e5b9f73fb563d0c0ca04a2db9f7844258084e126ef39b601f3bcf8979f59867fc4c11304cec247f50b5",
      "networkId": 0,
      "chainId": 0
    }
  ]
}