{
  "hash": "0x0b14125ff9fdb36bef8a566c1a3cf6aa1356a366b2f42fdcc252466a2240aea8",
  "parentHash": "0x19a9630d3019589a2c1b7673a16a622118c92e587754a42caf029958bb83bfe2",
  "number": 65407,
  "timestamp": 1439236394,
  "nonce": "0x997ef0d5e22eeffc",
  "difficulty": 1946395473899,
  "gasLimit": {
    "_hex": "0x2fefd8"
  },
  "gasUsed": {
    "_hex": "0x4bfe8"
  },
  "miner": "0x39A1BB80a741bF5EC39FB9BE59408Fa0F418fFBf",
  "extraData": "0x476574682f76312e302e312f77696e646f77732f676f312e342e32",
  "transactions": [
    {
      "hash": "0x3dc804035ebfcfde8ac771b4c58f38bb4865fc8a03b273266271284ccca788ec",
      "blockHash": "0x0b14125ff9fdb36bef8a566c1a3cf6aa1356a366b2f42fdcc252466a2240aea8",
      "blockNumber": 65407,
      "transactionIndex": 0,
      "confirmations": null,
      "from": "0xFBb1b73C4f0BDa4f67dcA266ce6Ef42f520fBB98",
      "gasPrice": {
        "_hex": "0xcf11c368c"
      },
      "gasLimit": {
        "_hex": "0x15f90"
      },
      "to": "0xa1A111bc074c9cfa781F0C38e63bD51c91b8af00",
      "value": {
        "_hex": "0x3bd913e6c1df40000"
      },
      "nonce": 1,
      "data": "0x432ced044254525800000000000000000000000000000000000000000000000000000000",
      "r": "0x288d501b45992cc815294deb95307eac7d35f0c115f676f45a0677f44dcb6285",
      "s": "0x3afd50c8c7e2d43753a24921daef625077c41d8a6d1bc34b5347510e03eeb5c4",
      "v": 28,
      "creates": null,
      "raw": "0xf89201850cf11c368c83015f9094a1a111bc074c9cfa781f0c38e63bd51c91b8af008903bd913e6c1df40000a4432ced0442545258000000000000000000000000000000000000000000000000000000001ca0288d501b45992cc815294deb95307eac7d35f0c115f676f45a0677f44dcb6285a03afd50c8c7e2d43753a24921daef625077c41d8a6d1bc34b5347510e03eeb5c4",
      "networkId": 0,
      "chainId": 0
    },
    {
      "hash": "0x2eb8389429099e3b89eb776bbe2679b469e9fa5a6776b32758c0be0171c8b819",
      "blockHash": "0x0b14125ff9fdb36bef8a566c1a3cf6aa1356a366b2f42fdcc252466a2240aea8",
      "blockNumber": 65407,
      "transactionIndex": 1,
      "confirmations": null,
      "from": "0xFBb1b73C4f0BDa4f67dcA266ce6Ef42f520fBB98",
      "gasPrice": {
        "_hex": "0xcf11c368c"
      },
      "gasLimit": {
        "_hex": "0x445c0"
      },
      "to": null,
      "value": {
        "_hex": "0x0"
      },
      "nonce": 2,
      "data": "0x60606040525b33600060006101000a81548173ffffffffffffffffffffffffffffffffffffffff021916908302179055505b610352806100406000396000f30060606040523615610053576000357c0100000000000000000000000000000000000000000000000000000000900480633feb1bd8146100aa5780636042a760146100c9578063b214faa5146100ee57610053565b6100a85b3373ffffffffffffffffffffffffffffffffffffffff167fceaafb6781e240ba6b317a906047690d1c227df2d967ff3f53b44f14a62c2cab346040518082815260200191505060405180910390a25b565b005b6100c7600480359060200180359060200180359060200150610154565b005b6100ec600480359060200180359060200180359060200180359060200150610233565b005b6100ff600480359060200150610101565b005b803373ffffffffffffffffffffffffffffffffffffffff167f19dacbf83c5de6658e14cbf7bcae5c15eca2eedecf1c66fbca928e4d351bea0f346040518082815260200191505060405180910390a35b50565b600060009054906101000a900473ffffffffffffffffffffffffffffffffffffffff1673ffffffffffffffffffffffffffffffffffffffff163373ffffffffffffffffffffffffffffffffffffffff16141561022d578173ffffffffffffffffffffffffffffffffffffffff16600082604051809050600060405180830381858888f19350505050508173ffffffffffffffffffffffffffffffffffffffff16837f4c13017ee95afc4bbd8a701dd9fbc9733f1f09f5a1b5438b5b9abd48e4c92d78836040518082815260200191505060405180910390a35b5b505050565b600060009054906101000a900473ffffffffffffffffffffffffffffffffffffffff1673ffffffffffffffffffffffffffffffffffffffff163373ffffffffffffffffffffffffffffffffffffffff16141561034b578273ffffffffffffffffffffffffffffffffffffffff1663b214faa58284604051837c01000000000000000000000000000000000000000000000000000000000281526004018082815260200191505060006040518083038185886185025a03f11561000257505050508273ffffffffffffffffffffffffffffffffffffffff16847f260c3af1b30cb645202dd6dbf41affda680b1ffebd32d401b7f121c2b92626808484604051808381526020018281526020019250505060405180910390a35b5b5050505056",
      "r": "0xf5022c2ea06eb0c3b37053167967a4c04a24f0ac8b83c9e865ec87fba417ef52",
      "s": "0x7e2c63175dac16dff8b087f2c269a11b2912064ec39124bfb5de073c68c6171b",
      "v": 27,
      "creates": "0xEd5868F9ec0651F5A9797fAD4716c1269B776730",
      "raw": "0xf903e502850cf11c368c830445c08080b9039260606040525b33600060006101000a81548173ffffffffffffffffffffffffffffffffffffffff021916908302179055505b610352806100406000396000f30060606040523615610053576000357c0100000000000000000000000000000000000000000000000000000000900480633feb1bd8146100aa5780636042a760146100c9578063b214faa5146100ee57610053565b6100a85b3373ffffffffffffffffffffffffffffffffffffffff167fceaafb6781e240ba6b317a906047690d1c227df2d967ff3f53b44f14a62c2cab346040518082815260200191505060405180910390a25b565b005b6100c7600480359060200180359060200180359060200150610154565b005b6100ec600480359060200180359060200180359060200180359060200150610233565b005b6100ff600480359060200150610101565b005b803373ffffffffffffffffffffffffffffffffffffffff167f19dacbf83c5de6658e14cbf7bcae5c15eca2eedecf1c66fbca928e4d351bea0f346040518082815260200191505060405180910390a35b50565b600060009054906101000a900473ffffffffffffffffffffffffffffffffffffffff1673ffffffffffffffffffffffffffffffffffffffff163373ffffffffffffffffffffffffffffffffffffffff16141561022d578173ffffffffffffffffffffffffffffffffffffffff16600082604051809050600060405180830381858888f19350505050508173ffffffffffffffffffffffffffffffffffffffff16837f4c13017ee95afc4bbd8a701dd9fbc9733f1f09f5a1b5438b5b9abd48e4c92d78836040518082815260200191505060405180910390a35b5b505050565b600060009054906101000a900473ffffffffffffffffffffffffffffffffffffffff1673ffffffffffffffffffffffffffffffffffffffff163373ffffffffffffffffffffffffffffffffffffffff16141561034b578273ffffffffffffffffffffffffffffffffffffffff1663b214faa58284604051837c01000000000000000000000000000000000000000000000000000000000281526004018082815260200191505060006040518083038185886185025a03f11561000257505050508273ffffffffffffffffffffffffffffffffffffffff16847f260c3af1b30cb645202dd6dbf41affda680b1ffebd32d401b7f121c2b92626808484604051808381526020018281526020019250505060405180910390a35b5b50505050561ba0f5022c2ea06eb0c3b37053167967a4c04a24f0ac8b83c9e865ec87fba417ef52a07e2c63175dac16dff8b087f2c269a11b2912064ec39124bfb5de073c68c6171b",
      "networkId": 0,
      "chainId": 0
    }
  ]
}