{
  "hash": "0xcf2c0b1b8d1ba7fa78f78063433c7d42adfa7a8119360f74551fb1bb25035d79",
  "parentHash": "0x338f7b6f60705412d00056257ce7873a35fd1a6bc11f9c78f5c02c169872ea76",
  "number": 80232,
  "timestamp": 1439482289,
  "nonce": "0xffac68329c81bb07",
  "difficulty": 2377078187899,
  "gasLimit": {
    "_hex": "0x2fe3de"
  },
  "gasUsed": {
    "_hex": "0xaa37"
  },
  "miner": "0x87cD3b7f4DBBFE553DB92Ac1C97c6C24231c5D26",
  "extraData": "0x476574682f76312e302e302f6c696e75782f676f312e342e32",
  "transactions": [
    {
      "hash": "0xe9ed0902b918446b1d4288816dcb8bbad6cd6f491af626bacf55ff35b0d9f435",
      "blockHash": "0xcf2c0b1b8d1ba7fa78f78063433c7d42adfa7a8119360f74551fb1bb25035d79",
      "blockNumber": 80232,
      "transactionIndex": 0,
      "confirmations": null,
      "from": "0x87C5B5874A18B4306DF8a752a6C8cc3E82daFc19",
      "gasPrice": {
        "_hex": "0x117b6352992"
      },
      "gasLimit": {
        "_hex": "0x493e0"
      },
      "to": "0xC4c51de1AbF5D60DBd329eC0F999Fd8f021ae9fC",
      "value": {
        "_hex": "0x0"
      },
      "nonce": 146,
      "data": "0x03750d9400000000000000000000000087c5b5874a18b4306df8a752a6c8cc3e82dafc196b6b6b0000000000000000000000000000000000000000000000000000000000",
      "r": "0xfb3dcb86c193eadd4d125d625a52f6844176786ca550e6fc2a89b9215fade67e",
      "s": "0x5efe7e2b3a3c4970cd588d10d9ed85e123e64ebb9116d64f2024965a45acdff5",
      "v": 28,
      "creates": null,
      "raw": "0xf8ac8192860117b6352992830493e094c4c51de1abf5d60dbd329ec0f999fd8f021ae9fc80b84403750d9400000000000000000000000087c5b5874a18b4306df8a752a6c8cc3e82dafc196b6b6b00000000000000000000000000000000000000000000000000000000001ca0fb3dcb86c193eadd4d125d625a52f6844176786ca550e6fc2a89b9215fade67ea05efe7e2b3a3c4970cd588d10d9ed85e123e64ebb9116d64f2024965a45acdff5",
      "networkId": 0,
      "chainId": 0
    }
  ]
}