{
  "hash": "0x244f5d4a857fd4bda682b0866d2053c15445125678a47c6430b60f65a40c8cb3",
  "parentHash": "0x43922e7f19b032a5aa3881ae3e6d2ea1cc5dec2460d193306bfcba4b9d51ebcb",
  "number": 70759,
  "timestamp": 1439325152,
  "nonce": "0x5f6fdb4a7872795c",
  "difficulty": 2132165353426,
  "gasLimit": {
    "_hex": "0x2fefd8"
  },
  "gasUsed": {
    "_hex": "0x5208"
  },
  "miner": "0xf8E0CA3Ed80bd541b94BEdCf259e8CF2141A9523",
  "extraData": "0x476574682f76312e302e312f77696e646f77732f676f312e342e32",
  "transactions": [
    {
      "hash": "0x0557d04b7be545fbea4503128ca5e83e660280cc9d37cff0f91ef3d78e0fb15f",
      "blockHash": "0x244f5d4a857fd4bda682b0866d2053c15445125678a47c6430b60f65a40c8cb3",
      "blockNumber": 70759,
      "transactionIndex": 0,
      "confirmations": null,
      "from": "0x55bAf64fc9eAccFFd7Cc643BB61142E1C6ac093e",
      "gasPrice": {
        "_hex": "0xd3d37f23a"
      },
      "gasLimit": {
        "_hex": "0x15f90"
      },
      "to": "0xfE439e496730A23d448f85fA219972ea04793aB7",
      "value": {
        "_hex": "0xde0b6b3a7640000"
      },
      "nonce": 1,
      "data": "0x",
      "r": "0x55a2b805d1edf6e8602101c7482668d48b092998a28f50f1c7c6975868adc700",
      "s": "0x3d4ac6408aecebbb515c26a318b2266b85da1f3edc7d4970b99e30a7b9650e63",
      "v": 27,
      "creates": null,
      "raw": "0xf86d01850d3d37f23a83015f9094fe439e496730a23d448f85fa219972ea04793ab7880de0b6b3a7640000801ba055a2b805d1edf6e8602101c7482668d48b092998a28f50f1c7c6975868adc700a03d4ac6408aecebbb515c26a318b2266b85da1f3edc7d4970b99e30a7b9650e63",
      "networkId": 0,
      "chainId": 0
    }
  ]
}