{
  "hash": "0x41f04bf60a8797378f49c408932dafffe9e7bd8caa17738071301025cf83d178",
  "parentHash": "0xb28b97f5b4037e56bef46f5466e45d6195a9221da48a6d4e98e4e0a905e06c08",
  "number": 99965,
  "timestamp": 1439798534,
  "nonce": "0xcf05d4148d588d8a",
  "difficulty": 3843678760839,
  "gasLimit": {
    "_hex": "0x2fefd8"
  },
  "gasUsed": {
    "_hex": "0xf618"
  },
  "miner": "0xe6A7a1d47ff21B6321162AEA7C6CB457D5476Bca",
  "extraData": "0x476574682f76312e302e312d38326566323666362f6c696e75782f676f312e34",
  "transactions": [
    {
      "hash": "0x48ffeb9ece82531b7e814f033bdcd97795e7a3baee274bd89b595af07accff14",
      "blockHash": "0x41f04bf60a8797378f49c408932dafffe9e7bd8caa17738071301025cf83d178",
      "blockNumber": 99965,
      "transactionIndex": 0,
      "confirmations": null,
      "from": "0x27A2f708f13CFE24f8e5d6E8b7D8E971D2449Ba0",
      "gasPrice": {
        "_hex": "0xd59f5dc84"
      },
      "gasLimit": {
        "_hex": "0x15f90"
      },
      "to": "0x61F642543d22bAf5382908a714E675Cc0b51ea45",
      "value": {
        "_hex": "0xb30601a7228a0000"
      },
      "nonce": 8,
      "data": "0x",
      "r": "0xfc836d76147c428002797ab45e70af231e0a9ee3cba2196aa7e7a2e44b7ab6fd",
      "s": "0x6dbb1a05c7079883894d6bc71c87b5abba2c8d93e674bcf81923341311c957b5",
      "v": 27,
      "creates": null,
      "raw": "0xf86d08850d59f5dc8483015f909461f642543d22baf5382908a714e675cc0b51ea4588b30601a7228a0000801ba0fc836d76147c428002797ab45e70af231e0a9ee3cba2196aa7e7a2e44b7ab6fda06dbb1a05c7079883894d6bc71c87b5abba2c8d93e674bcf81923341311c957b5",
      "networkId": 0,
      "chainId": 0
    },
    {
      "hash": "0x70d377561299df9958d9f7fd85bd322a769b0a0f17b31bc254ca5161c7130b9e",
      "blockHash": "0x41f04bf60a8797378f49c408932dafffe9e7bd8caa17738071301025cf83d178",
      "blockNumber": 99965,
      "transactionIndex": 1,
      "confirmations": null,
      "from": "0xe6A7a1d47ff21B6321162AEA7C6CB457D5476Bca",
      "gasPrice": {
        "_hex": "0xd1f68a9b9"
      },
      "gasLimit": {
        "_hex": "0x55f0"
      },
      "to": "0xA270859a7dD7bEF18258BDE4b85Dd3691FdE277D",
      "value": {
        "_hex": "0x90dd8245e3fcf188"
      },
      "nonce": 3342,
      "data": "0x",
      "r": "0x8c46d7e33def34723e94a033f40489863d3a6327dd0f6fa46c7a7ea53755e7d9",
      "s": "0x66a6781bbaf7be4e34048bb0361049aea0285eec75e6d616f6fe5e8eb452e313",
      "v": 28,
      "creates": null,
      "raw": "0xf86e820d0e850d1f68a9b98255f094a270859a7dd7bef18258bde4b85dd3691fde277d8890dd8245e3fcf188801ca08c46d7e33def34723e94a033f40489863d3a6327dd0f6fa46c7a7ea53755e7d9a066a6781bbaf7be4e34048bb0361049aea0285eec75e6d616f6fe5e8eb452e313",
      "networkId": 0,
      "chainId": 0
    },
    {
      "hash": "0xd4956b8ba0fc6a8063dbe0723796fc7af4a6d3259986fda2b2f6dca6fedca782",
      "blockHash": "0x41f04bf60a8797378f49c408932dafffe9e7bd8caa17738071301025cf83d178",
      "blockNumber": 99965,
      "transactionIndex": 2,
      "confirmations": null,
      "from": "0xe6A7a1d47ff21B6321162AEA7C6CB457D5476Bca",
      "gasPrice": {
        "_hex": "0xcfa7d2af3"
      },
      "gasLimit": {
        "_hex": "0x55f0"
      },
      "to": "0xeD3Fe86896534C24D9F91232faE34b78DFf3c1f4",
      "value": {
        "_hex": "0x957f0342811fb720"
      },
      "nonce": 3343,
      "data": "0x",
      "r": "0x0812f1ddc4ef51df3a2fa99c32663a7b5447a0d9e5fa9ac85c2fcccc8902ccc3",
      "s": "0x5741441eee9b051cba11853314c2f2018a0919ce4c86ea542dda6e4224a38e1c",
      "v": 27,
      "creates": null,
      "raw": "0xf86e820d0f850cfa7d2af38255f094ed3fe86896534c24d9f91232fae34b78dff3c1f488957f0342811fb720801ba00812f1ddc4ef51df3a2fa99c32663a7b5447a0d9e5fa9ac85c2fcccc8902ccc3a05741441eee9b051cba11853314c2f2018a0919ce4c86ea542dda6e4224a38e1c",
      "networkId": 0,
      "chainId": 0
    }
  ]
}