{
  "hash": "0x3e13ab4559b51bc2005236b93d45df0cfe92774b32856006433f81441f634c40",
  "parentHash": "0x2d48220dd72f71e9c81c087ae8656c0fd52d61124115a33e876bb88584b1646c",
  "number": 97126,
  "timestamp": 1439751228,
  "nonce": "0xe134bcd9f8a4e31c",
  "difficulty": 3761416803434,
  "gasLimit": {
    "_hex": "0x2fefd8"
  },
  "gasUsed": {
    "_hex": "0x5208"
  },
  "miner": "0xaEAf103356C2Ee943F748E8655659D29881323E1",
  "extraData": "0x476574682f76312e302e312f77696e646f77732f676f312e342e32",
  "transactions": [
    {
      "hash": "0x3757955e5f0b542522d08c0de51b3fa9615545fffb1ae5d1aed64584db3125e9",
      "blockHash": "0x3e13ab4559b51bc2005236b93d45df0cfe92774b32856006433f81441f634c40",
      "blockNumber": 97126,
      "transactionIndex": 0,
      "confirmations": null,
      "from": "0xD9666150A9dA92d9108198a4072970805a8B3428",
      "gasPrice": {
        "_hex": "0xdd6189ed9"
      },
      "gasLimit": {
        "_hex": "0x5208"
      },
      "to": "0x32Be343B94f860124dC4fEe278FDCBD38C102D88",
      "value": {
        "_hex": "0x455f227ef0759000"
      },
      "nonce": 22,
      "data": "0x",
      "r": "0x060744d20c13f72ed29445e8e2b1394f3571e3d6e5616e2d53fcebeb59b49262",
      "s": "0x3e8a0cfe75bfaaca0522468365c2de2c38e488ca1491b30d16f607b8cac98af9",
      "v": 27,
      "creates": null,
      "raw": "0xf86c16850dd6189ed98252089432be343b94f860124dc4fee278fdcbd38c102d8888455f227ef0759000801ba0060744d20c13f72ed29445e8e2b1394f3571e3d6e5616e2d53fcebeb59b49262a03e8a0cfe75bfaaca0522468365c2de2c38e488ca1491b30d16f607b8cac98af9",
      "networkId": 0,
      "chainId": 0
    }
  ]
}