{
  "hash": "0xe3a790600f848b43b9eba2122031f4a10aecdaa77a3438fe0f64da5ecd75343e",
  "parentHash": "0xd99dc0f9a1eafd74f1f2880cd9978526c60bae6454af7d337231d6031773820d",
  "number": 98482,
  "timestamp": 1439773538,
  "nonce": "0x63799c1bd794e836",
  "difficulty": 3868838616003,
  "gasLimit": {
    "_hex": "0x2fefd8"
  },
  "gasUsed": {
    "_hex": "0xf618"
  },
  "miner": "0xaB638742EBe3A78F2a85028350e1AADB86C0a6ed",
  "extraData": "0x",
  "transactions": [
    {
      "hash": "0xbcd962facfd92f0aaf765923c43d507c5c2bcfd93c693d9bf2bf756281747ed6",
      "blockHash": "0xe3a790600f848b43b9eba2122031f4a10aecdaa77a3438fe0f64da5ecd75343e",
      "blockNumber": 98482,
      "transactionIndex": 0,
      "confirmations": null,
      "from": "0x27A2f708f13CFE24f8e5d6E8b7D8E971D2449Ba0",
      "gasPrice": {
        "_hex": "0xd59f5dc84"
      },
      "gasLimit": {
        "_hex": "0x15f90"
      },
      "to": "0x61F642543d22bAf5382908a714E675Cc0b51ea45",
      "value": {
        "_hex": "0xb30601a7228a0000"
      },
      "nonce": 7,
      "data": "0x",
      "r": "0x5ce701c5b624f34f517fa4165c2d5741dab8191cf63f8435b3c719a7c9d1fd23",
      "s": "0x567a8100cd1cf3bf41cc1308fd3fe33683d833f4e69f2550a47b2448446cf4fa",
      "v": 28,
      "creates": null,
      "raw": "0xf86d07850d59f5dc8483015f909461f642543d22baf5382908a714e675cc0b51ea4588b30601a7228a0000801ca05ce701c5b624f34f517fa4165c2d5741dab8191cf63f8435b3c719a7c9d1fd23a0567a8100cd1cf3bf41cc1308fd3fe33683d833f4e69f2550a47b2448446cf4fa",
      "networkId": 0,
      "chainId": 0
    },
    {
      "hash": "0xc6ff9fab4f3b9c81a58681d8fafd489c32d45b17fd25c7f7a0316ef0f915a03d",
      "blockHash": "0xe3a790600f848b43b9eba2122031f4a10aecdaa77a3438fe0f64da5ecd75343e",
      "blockNumber": 98482,
      "transactionIndex": 1,
      "confirmations": null,
      "from": "0x007f7f58D3eb5b7510A301eCC749FC1fCDDBE14D",
      "gasPrice": {
        "_hex": "0xd0b4209c1"
      },
      "gasLimit": {
        "_hex": "0x15f90"
      },
      "to": "0xb1abce2918E21ddb93AA452731a12672A3d9F75a",
      "value": {
        "_hex": "0x4563918244f40000"
      },
      "nonce": 94,
      "data": "0x",
      "r": "0xbb452863ee90de40c7179aeead0d449526eac015bed4a58e3137c74eecb88347",
      "s": "0x61041e6e14ddfdefaa448d4abfdfc1a522f2064267fe7be8d13e2d616494d4b5",
      "v": 27,
      "creates": null,
      "raw": "0xf86d5e850d0b4209c183015f9094b1abce2918e21ddb93aa452731a12672a3d9f75a884563918244f40000801ba0bb452863ee90de40c7179aeead0d449526eac015bed4a58e3137c74eecb88347a061041e6e14ddfdefaa448d4abfdfc1a522f2064267fe7be8d13e2d616494d4b5",
      "networkId": 0,
      "chainId": 0
    },
    {
      "hash": "0xbbc5d1e581a619bd2c2f4b7f515741d6ab306e35d5a9b8fd756f7358168c0f58",
      "blockHash": "0xe3a790600f848b43b9eba2122031f4a10aecdaa77a3438fe0f64da5ecd75343e",
      "blockNumber": 98482,
      "transactionIndex": 2,
      "confirmations": null,
      "from": "0x007f7f58D3eb5b7510A301eCC749FC1fCDDBE14D",
      "gasPrice": {
        "_hex": "0xd0b4209c1"
      },
      "gasLimit": {
        "_hex": "0x15f90"
      },
      "to": "0xb1abce2918E21ddb93AA452731a12672A3d9F75a",
      "value": {
        "_hex": "0x4563918244f40000"
      },
      "nonce": 95,
      "data": "0x",
      "r": "0xb8ed1a4acdb301b07709d7add54a1e37119e862c72a59936350bd3e062384297",
      "s": "0x0187ebc0b65ca22de742fbaf5f295408fa4b648113706d18e6a2c3e8fed54a7c",
      "v": 28,
      "creates": null,
      "raw": "0xf86d5f850d0b4209c183015f9094b1abce2918e21ddb93aa452731a12672a3d9f75a884563918244f40000801ca0b8ed1a4acdb301b07709d7add54a1e37119e862c72a59936350bd3e062384297a00187ebc0b65ca22de742fbaf5f295408fa4b648113706d18e6a2c3e8fed54a7c",
      "networkId": 0,
      "chainId": 0
    }
  ]
}