{
  "hash": "0xa77fb306e54deb59796b20fdce57a53a1ccd669fc4c67f2f472ee3edeb9bc664",
  "parentHash": "0xa4d9438915872ee8339bde05111988cc9babf120638a6f41fbfcfd1fb3672497",
  "number": 107441,
  "timestamp": 1439922539,
  "nonce": "0x67646cb406e74a11",
  "difficulty": 4402873829179,
  "gasLimit": {
    "_hex": "0x2fefd8"
  },
  "gasUsed": {
    "_hex": "0x5208"
  },
  "miner": "0xf927a40C8B7F6E07c5af7FA2155B4864a4112B13",
  "extraData": "0x",
  "transactions": [
    {
      "hash": "0xab1cdb6ec74fc3e88a0f23fbd395b285b86063a22b66b7b42fd5656b4b2528ac",
      "blockHash": "0xa77fb306e54deb59796b20fdce57a53a1ccd669fc4c67f2f472ee3edeb9bc664",
      "blockNumber": 107441,
      "transactionIndex": 0,
      "confirmations": null,
      "from": "0x3e3Ada91f270f8b50A4fC1085F7f15eA3c37C962",
      "gasPrice": {
        "_hex": "0xd07878ef6"
      },
      "gasLimit": {
        "_hex": "0x15f90"
      },
      "to": "0xf14113F65cC397c91f89d61AbF0901E558E88C8E",
      "value": {
        "_hex": "0x11c37937e080000"
      },
      "nonce": 3,
      "data": "0x",
      "r": "0x9933d7ca7538c7939f4925d6ba18c077361325194e9d68806d50da02fe6c2a4a",
      "s": "0x260520a2b84a45cdadd302b7e47207876083fd68388a133342ea0f9dd0688e5c",
      "v": 28,
      "creates": null,
      "raw": "0xf86d03850d07878ef683015f9094f14113f65cc397c91f89d61abf0901e558e88c8e88011c37937e080000801ca09933d7ca7538c7939f4925d6ba18c077361325194e9d68806d50da02fe6c2a4aa0260520a2b84a45cdadd302b7e47207876083fd68388a133342ea0f9dd0688e5c",
      "networkId": 0,
      "chainId": 0
    }
  ]
}