{
  "hash": "0x0926fd040b6662ac33110de813c5bc992d5745994e6eea2e1fdb5a31d1652877",
  "parentHash": "0xe2b9b37a4d97f42b0509e4886d745fbac85accacce6239207680f9bff167fafe",
  "number": 80879,
  "timestamp": 1439492559,
  "nonce": "0x7203a8d66961b203",
  "difficulty": 2443977869877,
  "gasLimit": {
    "_hex": "0x2fefd8"
  },
  "gasUsed": {
    "_hex": "0xa410"
  },
  "miner": "0xbb7B8287f3F0a933474a79eAe42CBCa977791171",
  "extraData": "0x476574682f4c5649562f76312e302e312f6c696e75782f676f312e342e32",
  "transactions": [
    {
      "hash": "0xea8292bd289e1aba12391e51140872e564066260f5ea742ce2abf6cd8d098c27",
      "blockHash": "0x0926fd040b6662ac33110de813c5bc992d5745994e6eea2e1fdb5a31d1652877",
      "blockNumber": 80879,
      "transactionIndex": 0,
      "confirmations": null,
      "from": "0xc597A5d92F5dC1137D847db733cfe02c6d209f13",
      "gasPrice": {
        "_hex": "0xdbd2100bb"
      },
      "gasLimit": {
        "_hex": "0x15f90"
      },
      "to": "0x52cAD867237d735C7bC59F916364743cA70e5F35",
      "value": {
        "_hex": "0x1b754e0ae5213800"
      },
      "nonce": 22,
      "data": "0x",
      "r": "0xfd48e6d9bb6bbc22871587115f86f0cc772f51a30ad88a1b9f820a1abcc0cabd",
      "s": "0x3c87686c41b21202c642c3b49f74ea4a7dd13cb0d989cecbb6ecc14b14f9ccc9",
      "v": 27,
      "creates": null,
      "raw": "0xf86d16850dbd2100bb83015f909452cad867237d735c7bc59f916364743ca70e5f35881b754e0ae5213800801ba0fd48e6d9bb6bbc22871587115f86f0cc772f51a30ad88a1b9f820a1abcc0cabda03c87686c41b21202c642c3b49f74ea4a7dd13cb0d989cecbb6ecc14b14f9ccc9",
      "networkId": 0,
      "chainId": 0
    },
    {
      "hash": "0x5ff4a43afb88efbf9884bc9b37a641079f55ebe7ba5233725bbe11ee2fb8ae44",
      "blockHash": "0x0926fd040b6662ac33110de813c5bc992d5745994e6eea2e1fdb5a31d1652877",
      "blockNumber": 80879,
      "transactionIndex": 1,
      "confirmations": null,
      "from": "0x2910543Af39abA0Cd09dBb2D50200b3E800A63D2",
      "gasPrice": {
        "_hex": "0xd1a7a82be"
      },
      "gasLimit": {
        "_hex": "0x5208"
      },
      "to": "0xb4Ad43131139584E8f6F31D578E0dC4d11Df6D7b",
      "value": {
        "_hex": "0x2b5e3af16b1880000"
      },
      "nonce": 410,
      "data": "0x",
      "r": "0x8de55f790234cffe9d4f977d2b7c4e38ba38f52a10e8a56ad5cb3b1f273dc31d",
      "s": "0x75590a06ed903089594bb6ef53d366737ed2ce40469c6535992b0cdc2ed884ae",
      "v": 28,
      "creates": null,
      "raw": "0xf86f82019a850d1a7a82be82520894b4ad43131139584e8f6f31d578e0dc4d11df6d7b8902b5e3af16b1880000801ca08de55f790234cffe9d4f977d2b7c4e38ba38f52a10e8a56ad5cb3b1f273dc31da075590a06ed903089594bb6ef53d366737ed2ce40469c6535992b0cdc2ed884ae",
      "networkId": 0,
      "chainId": 0
    }
  ]
}