{
  "hash": "0xcee3e09bc163129905c385514cdcf3adb93007faa9f9ccdd044e69d1f3ea559a",
  "parentHash": "0xd12ad00b64c575d19c9fd1bcb9d928659e3ff558b3fb1a85283f16715f8cea6b",
  "number": 77600,
  "timestamp": 1439439903,
  "nonce": "0x9da4d188b0b04e8e",
  "difficulty": 2260089888669,
  "gasLimit": {
    "_hex": "0x2fefd8"
  },
  "gasUsed": {
    "_hex": "0x54b0"
  },
  "miner": "0x88D74a59454F6cF3B51ef6b9136AFb6b9D405A88",
  "extraData": "0x476574682f76312e302e312d38326566323666362f6c696e75782f676f312e34",
  "transactions": [
    {
      "hash": "0x9e52d49d5203800748aa3ca7b6ae68df8f52180f59591d7ffad6e8f892f04de1",
      "blockHash": "0xcee3e09bc163129905c385514cdcf3adb93007faa9f9ccdd044e69d1f3ea559a",
      "blockNumber": 77600,
      "transactionIndex": 0,
      "confirmations": null,
      "from": "0x8F68fbE2DCFf038C24F650C9e05Ee478038171cd",
      "gasPrice": {
        "_hex": "0xd1fa949e7"
      },
      "gasLimit": {
        "_hex": "0x55f0"
      },
      "to": "0x40B9b889A21Ff1534d018D71Dc406122EBcf3F5A",
      "value": {
        "_hex": "0x6c6b935b8bbd400000"
      },
      "nonce": 12,
      "data": "0x4a465343433732393935",
      "r": "0x17e054bce5e11cb8a3457abbff8e93206d6f7967b8541edc3d2d2cb1b8fe5977",
      "s": "0x14e82ff476412b365aaabe019d8c0e67de2b85448e08fbc8496537666c05d7a8",
      "v": 27,
      "creates": null,
      "raw": "0xf8770c850d1fa949e78255f09440b9b889a21ff1534d018d71dc406122ebcf3f5a896c6b935b8bbd4000008a4a4653434337323939351ba017e054bce5e11cb8a3457abbff8e93206d6f7967b8541edc3d2d2cb1b8fe5977a014e82ff476412b365aaabe019d8c0e67de2b85448e08fbc8496537666c05d7a8",
      "networkId": 0,
      "chainId": 0
    }
  ]
}