{
  "hash": "0xd8404708876035518c8143524ed9aa2581dfa58e1177a6f95365bb39163207ef",
  "parentHash": "0xa310f154f02a61ede05f75b783c038e7bea8f9fa78436d77471dbb2fba237521",
  "number": 49736,
  "timestamp": 1438978166,
  "nonce": "0x8c34efde00ab3200",
  "difficulty": 1494413786445,
  "gasLimit": {
    "_hex": "0x3cbd3"
  },
  "gasUsed": {
    "_hex": "0xf87c"
  },
  "miner": "0xbb7B8287f3F0a933474a79eAe42CBCa977791171",
  "extraData": "0x476574682f4c5649562f76312e302e312f6c696e75782f676f312e342e32",
  "transactions": [
    {
      "hash": "0x9253260f9fb4244f3b2ce330c4f8cfb6a13a8f9fb014d4ab0b5926260be949c7",
      "blockHash": "0xd8404708876035518c8143524ed9aa2581dfa58e1177a6f95365bb39163207ef",
      "blockNumber": 49736,
      "transactionIndex": 0,
      "confirmations": null,
      "from": "0x94050F23a757023992Ac79b7f72C069dC5A83784",
      "gasPrice": {
        "_hex": "0x10453ec48eb"
      },
      "gasLimit": {
        "_hex": "0x15f90"
      },
      "to": "0x2910543Af39abA0Cd09dBb2D50200b3E800A63D2",
      "value": {
        "_hex": "0x796e3ea3f8ab00000"
      },
      "nonce": 1,
      "data": "0x454e50455739365530",
      "r": "0x26b14a73a41bed89afa30397df6e486b83279ebd14ec1d350933556926fd93fa",
      "s": "0x5fb6624b1da6554d66877ee223aaea9eb0cac323fb117bd2291d51b309148c71",
      "v": 27,
      "creates": null,
      "raw": "0xf8780186010453ec48eb83015f90942910543af39aba0cd09dbb2d50200b3e800a63d2890796e3ea3f8ab0000089454e504557393655301ba026b14a73a41bed89afa30397df6e486b83279ebd14ec1d350933556926fd93faa05fb6624b1da6554d66877ee223aaea9eb0cac323fb117bd2291d51b309148c71",
      "networkId": 0,
      "chainId": 0
    },
    {
      "hash": "0xcb1cf573ec8c3a8d64d7897780e38520dc39a00f37bbe5dff984507009227684",
      "blockHash": "0xd8404708876035518c8143524ed9aa2581dfa58e1177a6f95365bb39163207ef",
      "blockNumber": 49736,
      "transactionIndex": 1,
      "confirmations": null,
      "from": "0xc8b25f8890816e7F491d8EE02BA8b4548c73D3A4",
      "gasPrice": {
        "_hex": "0xd6749143f"
      },
      "gasLimit": {
        "_hex": "0x5208"
      },
      "to": "0x32Be343B94f860124dC4fEe278FDCBD38C102D88",
      "value": {
        "_hex": "0xddc6b32083a9000"
      },
      "nonce": 0,
      "data": "0x",
      "r": "0xab91ebda260c8666a7daa184b21c5aa35cc2758b911a50912eae0487e654a770",
      "s": "0x7384314b191fdd65aba6256379dda263f9b893ad7d9a3adc8cbf437c86374dd5",
      "v": 27,
      "creates": null,
      "raw": "0xf86c80850d6749143f8252089432be343b94f860124dc4fee278fdcbd38c102d88880ddc6b32083a9000801ba0ab91ebda260c8666a7daa184b21c5aa35cc2758b911a50912eae0487e654a770a07384314b191fdd65aba6256379dda263f9b893ad7d9a3adc8cbf437c86374dd5",
      "networkId": 0,
      "chainId": 0
    },
    {
      "hash": "0x12bec8ebed6dd28e32d997ffd6367dd3254f00e1697f3fe0c3711509ecf8f788",
      "blockHash": "0xd8404708876035518c8143524ed9aa2581dfa58e1177a6f95365bb39163207ef",
      "blockNumber": 49736,
      "transactionIndex": 2,
      "confirmations": null,
      "from": "0xb14D7F7458c2Ad414B1D07e1e7F71b48b4B2fbf6",
      "gasPrice": {
        "_hex": "0xd6749143f"
      },
      "gasLimit": {
        "_hex": "0x5208"
      },
      "to": "0x32Be343B94f860124dC4fEe278FDCBD38C102D88",
      "value": {
        "_hex": "0x6aa19782e18a340000"
      },
      "nonce": 1,
      "data": "0x",
      "r": "0xc4c07a05d66e50a5bf6415981f8ec453d13a123dbd2cfc26c60b80da364f58f2",
      "s": "0x00d5281129521bcbf37ec6981c8066e0790ac70aa9557f4fbb47644db3948638",
      "v": 27,
      "creates": null,
      "raw": "0xf86c01850d6749143f8252089432be343b94f860124dc4fee278fdcbd38c102d88896aa19782e18a340000801ba0c4c07a05d66e50a5bf6415981f8ec453d13a123dbd2cfc26c60b80da364f58f29fd5281129521bcbf37ec6981c8066e0790ac70aa9557f4fbb47644db3948638",
      "networkId": 0,
      "chainId": 0
    }
  ]
}