{
  "hash": "0x492e3381de304e0b507f596bc3dc38350b58e87a7f8ebe87057226abfd397f0d",
  "parentHash": "0x0b21a1a5dedb254a6c4e72874e1a16eb37e03472652d82ae239c270d1ff4e5c5",
  "number": 60030,
  "timestamp": 1439147954,
  "nonce": "0x6bdea7bcb8372fc1",
  "difficulty": 1726359225943,
  "gasLimit": {
    "_hex": "0x2fefd8"
  },
  "gasUsed": {
    "_hex": "0x5208"
  },
  "miner": "0xeB1325C8D9d3ea8D74aC11F4B00F1B2367686319",
  "extraData": "0x476574682f76312e302e312f77696e646f77732f676f312e342e32",
  "transactions": [
    {
      "hash": "0xfd28f7a13c2c82fdebf30a24580b35b8e54c8d12a20195c2133cd54757efc38d",
      "blockHash": "0x492e3381de304e0b507f596bc3dc38350b58e87a7f8ebe87057226abfd397f0d",
      "blockNumber": 60030,
      "transactionIndex": 0,
      "confirmations": null,
      "from": "0x17CCeb5416303CC5b49303348eA8b6914ca47A62",
      "gasPrice": {
        "_hex": "0xd956091d6"
      },
      "gasLimit": {
        "_hex": "0x15f90"
      },
      "to": "0xd223eD5b348a82910987CbBc7875a7AE62E1Ba53",
      "value": {
        "_hex": "0x27e60d44813f80000"
      },
      "nonce": 1,
      "data": "0x",
      "r": "0xb998bf1d82a8136b0d691171c2dd1026fa1cde16bd3e7165308e6fc787338654",
      "s": "0x6e8b55ed120ff09621f05662ceafbc6e47ee7356a3c1d15b6b7d9d942f01023e",
      "v": 28,
      "creates": null,
      "raw": "0xf86e01850d956091d683015f9094d223ed5b348a82910987cbbc7875a7ae62e1ba5389027e60d44813f80000801ca0b998bf1d82a8136b0d691171c2dd1026fa1cde16bd3e7165308e6fc787338654a06e8b55ed120ff09621f05662ceafbc6e47ee7356a3c1d15b6b7d9d942f01023e",
      "networkId": 0,
      "chainId": 0
    }
  ]
}