{
  "hash": "0xe6c99c266d941c77f8826a859cb98d65f0dd119f80e985f72ebf5e7f581c8cb4",
  "parentHash": "0x9da2c94542d8e8ecc85705fc62c8b501b08f412cfa83e5fac25d191a9a010f8c",
  "number": 105349,
  "timestamp": 1439886147,
  "nonce": "0xe897b3fb956c2342",
  "difficulty": 4356916873940,
  "gasLimit": {
    "_hex": "0x2fefd8"
  },
  "gasUsed": {
    "_hex": "0xa410"
  },
  "miner": "0x790b8a3cE86E707ED0eD32bF89B3269692a23CC1",
  "extraData": "0xd783010001844765746887676f312e342e32856c696e7578",
  "transactions": [
    {
      "hash": "0x73ec872fc2e1ad51c58237daeecc1a173b34f4da86ab15e743dc770bd8aad340",
      "blockHash": "0xe6c99c266d941c77f8826a859cb98d65f0dd119f80e985f72ebf5e7f581c8cb4",
      "blockNumber": 105349,
      "transactionIndex": 0,
      "confirmations": null,
      "from": "0x7CabE4dE323c392C7135680c61a04d5Eb7519897",
      "gasPrice": {
        "_hex": "0xddd60194b"
      },
      "gasLimit": {
        "_hex": "0x5208"
      },
      "to": "0x32Be343B94f860124dC4fEe278FDCBD38C102D88",
      "value": {
        "_hex": "0xce9838d5fd2dc800"
      },
      "nonce": 6,
      "data": "0x",
      "r": "0x2abe1757a26d1d2a3fc2c943b6f2b7815cdfcafc2236fbe39efd00856e3bc21e",
      "s": "0x386aaeeedbcc48a8cf082c30838bafe45b4643df11ce5ce42f1d5d87b8cbc354",
      "v": 27,
      "creates": null,
      "raw": "0xf86c06850ddd60194b8252089432be343b94f860124dc4fee278fdcbd38c102d8888ce9838d5fd2dc800801ba02abe1757a26d1d2a3fc2c943b6f2b7815cdfcafc2236fbe39efd00856e3bc21ea0386aaeeedbcc48a8cf082c30838bafe45b4643df11ce5ce42f1d5d87b8cbc354",
      "networkId": 0,
      "chainId": 0
    },
    {
      "hash": "0x07ef07dacce4deb3ae0e26d69a2d6a64fd0937aa3c7a412a73e5729157378381",
      "blockHash": "0xe6c99c266d941c77f8826a859cb98d65f0dd119f80e985f72ebf5e7f581c8cb4",
      "blockNumber": 105349,
      "transactionIndex": 1,
      "confirmations": null,
      "from": "0xBA7933704d52A3e7fdBb5B5deD29e45213EA1111",
      "gasPrice": {
        "_hex": "0xddd60194b"
      },
      "gasLimit": {
        "_hex": "0x5208"
      },
      "to": "0x32Be343B94f860124dC4fEe278FDCBD38C102D88",
      "value": {
        "_hex": "0x317fe54acfa8aa000"
      },
      "nonce": 7,
      "data": "0x",
      "r": "0xf8b871d139bf59b3bc65074c29a77fc265f0570d14ca5bb2084492aa035034db",
      "s": "0x34fef5e94ec3431e98482074edbe17a9fd26f9be41d22a75d7c826c17c9c8435",
      "v": 28,
      "creates": null,
      "raw": "0xf86d07850ddd60194b8252089432be343b94f860124dc4fee278fdcbd38c102d88890317fe54acfa8aa000801ca0f8b871d139bf59b3bc65074c29a77fc265f0570d14ca5bb2084492aa035034dba034fef5e94ec3431e98482074edbe17a9fd26f9be41d22a75d7c826c17c9c8435",
      "networkId": 0,
      "chainId": 0
    }
  ]
}