{
  "hash": "0xcba59f17707549b456e1e41dc0f19e2b809eae5e945b698b8894fe1bbe9b425f",
  "parentHash": "0xb0fa3904d1699c0988ce17678d7be6b5171d20219b2f4f0de5380ba225bc495c",
  "number": 65228,
  "timestamp": 1439233395,
  "nonce": "0x86989064f88e6c86",
  "difficulty": 1945486830663,
  "gasLimit": {
    "_hex": "0x2fefd8"
  },
  "gasUsed": {
    "_hex": "0x5208"
  },
  "miner": "0x5F8F73E26CdF436f19Cb24C82F90A15AFe55b592",
  "extraData": "0x476574682f76312e302e312f77696e646f77732f676f312e342e32",
  "transactions": [
    {
      "hash": "0xc8e50d629a4cf6fdfefefd367c55cc2ab9b48d52ee51fb1474d5c8c2e21e1c25",
      "blockHash": "0xcba59f17707549b456e1e41dc0f19e2b809eae5e945b698b8894fe1bbe9b425f",
      "blockNumber": 65228,
      "transactionIndex": 0,
      "confirmations": null,
      "from": "0x84ad64deFF6B187f690634051D2a096C359D1099",
      "gasPrice": {
        "_hex": "0xdb3701a57"
      },
      "gasLimit": {
        "_hex": "0x5208"
      },
      "to": "0xd8806Af9F36874CABFdC064548e4B74197E75e11",
      "value": {
        "_hex": "0x2629f66e0c5300000"
      },
      "nonce": 5,
      "data": "0x",
      "r": "0x3c675cdb77eca5dfc6ae076211ffd493292aefcfe312fc6a1954b553e47f2094",
      "s": "0x7a7f59323d61dd23c45590d1dfa7c166ba772d9c778fddf4dc64f3abbb31fc45",
      "v": 27,
      "creates": null,
      "raw": "0xf86d05850db3701a5782520894d8806af9f36874cabfdc064548e4b74197e75e118902629f66e0c5300000801ba03c675cdb77eca5dfc6ae076211ffd493292aefcfe312fc6a1954b553e47f2094a07a7f59323d61dd23c45590d1dfa7c166ba772d9c778fddf4dc64f3abbb31fc45",
      "networkId": 0,
      "chainId": 0
    }
  ]
}