{
  "hash": "0x4c6a5df19f41a27982c046f1e3d08147f566cb14809209ade447d4b346a42794",
  "parentHash": "0x3106ac575811d50edbb4dbaff2718afc2c4ae5995787c5c6f7c4a63e986d431d",
  "number": 93492,
  "timestamp": 1439691413,
  "nonce": "0x0ffd04588917b407",
  "difficulty": 3507545120435,
  "gasLimit": {
    "_hex": "0x2fefd8"
  },
  "gasUsed": {
    "_hex": "0x5208"
  },
  "miner": "0x00eBA8Ef4fF9B21Ec2FFF273953fDCC81f6fE7da",
  "extraData": "0x476574682f76312e302e312f6c696e75782f676f312e342e32",
  "transactions": [
    {
      "hash": "0xf1a51685a8e171a4f593046a5b9e4547d62c8aacadc2153b81efad2c53db40fd",
      "blockHash": "0x4c6a5df19f41a27982c046f1e3d08147f566cb14809209ade447d4b346a42794",
      "blockNumber": 93492,
      "transactionIndex": 0,
      "confirmations": null,
      "from": "0x0A63E1A8C33e351679e3581AC84ce341C32f813a",
      "gasPrice": {
        "_hex": "0xcbf081b0e"
      },
      "gasLimit": {
        "_hex": "0x5208"
      },
      "to": "0x4Eaf4CaDd87499C20bA3412B1D222f9a72DA7AFF",
      "value": {
        "_hex": "0x821ab0d44149800000"
      },
      "nonce": 7,
      "data": "0x",
      "r": "0x2ad6539cd7f23ae189841be16272d358d9e2e6e2898679bb9a0f9f5b58bc2c50",
      "s": "0x7f21be1a611ed24d70a42be31f278b962d7ba317afe6095f516884fa3c0795b9",
      "v": 27,
      "creates": null,
      "raw": "0xf86d07850cbf081b0e825208944eaf4cadd87499c20ba3412b1d222f9a72da7aff89821ab0d44149800000801ba02ad6539cd7f23ae189841be16272d358d9e2e6e2898679bb9a0f9f5b58bc2c50a07f21be1a611ed24d70a42be31f278b962d7ba317afe6095f516884fa3c0795b9",
      "networkId": 0,
      "chainId": 0
    }
  ]
}