{
  "hash": "0x18c1e0bea79e5c507f63396abe2c3fef52472273d94341aba86b6155d62c0fdf",
  "parentHash": "0x17562fa8ce2e084df80a46c2b7d9edfcc118cd2d05826b39728a5d7a3fba917b",
  "number": 71199,
  "timestamp": 1439332223,
  "nonce": "0x33d9b785206899ed",
  "difficulty": 2148775424155,
  "gasLimit": {
    "_hex": "0x2fefd8"
  },
  "gasUsed": {
    "_hex": "0x5208"
  },
  "miner": "0xe6A7a1d47ff21B6321162AEA7C6CB457D5476Bca",
  "extraData": "0x476574682f76312e302e312d38326566323666362f6c696e75782f676f312e34",
  "transactions": [
    {
      "hash": "0xfe5f243a7d00f5e79b74ce2d6ccaed649a016c3ef904aa9edc402ad78c747ef1",
      "blockHash": "0x18c1e0bea79e5c507f63396abe2c3fef52472273d94341aba86b6155d62c0fdf",
      "blockNumber": 71199,
      "transactionIndex": 0,
      "confirmations": null,
      "from": "0x132dDeF595eE2Bb0092F7484f2DCBCBfeE0DCB65",
      "gasPrice": {
        "_hex": "0xe00792fb1"
      },
      "gasLimit": {
        "_hex": "0x15f90"
      },
      "to": "0x6d921977dEFE5f4e0682CA512De1D07b1f4802E1",
      "value": {
        "_hex": "0x10a741a462780000"
      },
      "nonce": 1,
      "data": "0x",
      "r": "0x4febeb1c8e960ae913f9f838a1538de2e187044afa0cb674a4cf70fe465aa193",
      "s": "0x3d6a2bb54a8368721f7681876eef36b8cf21901e18cada505c3ebc80dbe6c6b0",
      "v": 27,
      "creates": null,
      "raw": "0xf86d01850e00792fb183015f90946d921977defe5f4e0682ca512de1d07b1f4802e18810a741a462780000801ba04febeb1c8e960ae913f9f838a1538de2e187044afa0cb674a4cf70fe465aa193a03d6a2bb54a8368721f7681876eef36b8cf21901e18cada505c3ebc80dbe6c6b0",
      "networkId": 0,
      "chainId": 0
    }
  ]
}