{
  "hash": "0xdeb17e59d1c863d1f182c4578675c52c97bbd49dfe62460d4649f49c7540b4c3",
  "parentHash": "0xd8dac1f34a4f0762a616839f9f8c810829cbfd2d4550c6007a832ee271e7b8a8",
  "number": 87349,
  "timestamp": 1439590908,
  "nonce": "0x48de4f298b631138",
  "difficulty": 3108271111089,
  "gasLimit": {
    "_hex": "0x2fefd8"
  },
  "gasUsed": {
    "_hex": "0x546c"
  },
  "miner": "0x513cc87Fc09c7Dedae9A780a66dc47ebeE4B5C5A",
  "extraData": "0x",
  "transactions": [
    {
      "hash": "0x8733afb5bdab9e81479cc936a6c29cb7e43dc12d685478d6dafb1d98f272f0d8",
      "blockHash": "0xdeb17e59d1c863d1f182c4578675c52c97bbd49dfe62460d4649f49c7540b4c3",
      "blockNumber": 87349,
      "transactionIndex": 0,
      "confirmations": null,
      "from": "0x369eF761195f3A373e24eCE6CD22520fE0b9E86E",
      "gasPrice": {
        "_hex": "0x110c8f7d8de"
      },
      "gasLimit": {
        "_hex": "0xc350"
      },
      "to": "0x2910543Af39abA0Cd09dBb2D50200b3E800A63D2",
      "value": {
        "_hex": "0x4563918244f40000"
      },
      "nonce": 0,
      "data": "0x454e4a5257355a3452",
      "r": "0x217ab480a36023820e79045e1fe8b449eb6e86c3615fc5e8dde553a02e3e833e",
      "s": "0x6113d6da071be098250d080ba911a316f559c390cff3f1ded3fce4e411fa5634",
      "v": 28,
      "creates": null,
      "raw": "0xf87680860110c8f7d8de82c350942910543af39aba0cd09dbb2d50200b3e800a63d2884563918244f4000089454e4a5257355a34521ca0217ab480a36023820e79045e1fe8b449eb6e86c3615fc5e8dde553a02e3e833ea06113d6da071be098250d080ba911a316f559c390cff3f1ded3fce4e411fa5634",
      "networkId": 0,
      "chainId": 0
    }
  ]
}