{
  "hash": "0xa7fbeea61d34a7cddc992bbfc5473357b60883f02830eda48a3a42ffd8977762",
  "parentHash": "0x6cb07b667594266462fd043b866411663cc7ae72a118eb70bc76286501f699b4",
  "number": 67086,
  "timestamp": 1439265715,
  "nonce": "0x3c06b6f9f382f672",
  "difficulty": 1924273636913,
  "gasLimit": {
    "_hex": "0x2fefd8"
  },
  "gasUsed": {
    "_hex": "0x5208"
  },
  "miner": "0xf8E0CA3Ed80bd541b94BEdCf259e8CF2141A9523",
  "extraData": "0x476574682f76312e302e312f77696e646f77732f676f312e342e32",
  "transactions": [
    {
      "hash": "0xab96657d1981cdc530a3632642e561fc7d77901a6ec5fe2c38d559f684de6136",
      "blockHash": "0xa7fbeea61d34a7cddc992bbfc5473357b60883f02830eda48a3a42ffd8977762",
      "blockNumber": 67086,
      "transactionIndex": 0,
      "confirmations": null,
      "from": "0x32Be343B94f860124dC4fEe278FDCBD38C102D88",
      "gasPrice": {
        "_hex": "0xd63648650"
      },
      "gasLimit": {
        "_hex": "0x5208"
      },
      "to": "0xb794F5eA0ba39494cE839613fffBA74279579268",
      "value": {
        "_hex": "0x1fc3842bd1f072000000"
      },
      "nonce": 204,
      "data": "0x",
      "r": "0xa5fdfeaefef24d1e3d0b7530511a67a2b67a005f202cfbda564c92a07e7eab63",
      "s": "0x4c1d53621ec74b1b229bafa55cf2e3465199ba3ce3d22e661f40afbea35cf1d2",
      "v": 27,
      "creates": null,
      "raw": "0xf86f81cc850d6364865082520894b794f5ea0ba39494ce839613fffba742795792688a1fc3842bd1f072000000801ba0a5fdfeaefef24d1e3d0b7530511a67a2b67a005f202cfbda564c92a07e7eab63a04c1d53621ec74b1b229bafa55cf2e3465199ba3ce3d22e661f40afbea35cf1d2",
      "networkId": 0,
      "chainId": 0
    }
  ]
}