{
  "hash": "0x5ba907d5d4c6a2b4874e9bf3b16df76feb1364b88a66f51e4c9a45563cb04afe",
  "parentHash": "0x0cb3d0c2b47faecd4c65dea0e63aa9cc91a913d9328a87008511dfe9092d9278",
  "number": 99830,
  "timestamp": 1439796255,
  "nonce": "0x0e17eeb0a108a492",
  "difficulty": 3841864250152,
  "gasLimit": {
    "_hex": "0x2fefd8"
  },
  "gasUsed": {
    "_hex": "0x5208"
  },
  "miner": "0x785ffdDd5cE55c6DF963f345e68d3F2024E5Acb1",
  "extraData": "0x",
  "transactions": [
    {
      "hash": "0x815e8963aefd01fdf7a320893aa0c25653cbb244210fe56ddaa64a80ddb2251b",
      "blockHash": "0x5ba907d5d4c6a2b4874e9bf3b16df76feb1364b88a66f51e4c9a45563cb04afe",
      "blockNumber": 99830,
      "transactionIndex": 0,
      "confirmations": null,
      "from": "0xcf00A85f3826941e7A25BFcF9Aac575d40410852",
      "gasPrice": {
        "_hex": "0xcb5bea614"
      },
      "gasLimit": {
        "_hex": "0x15f90"
      },
      "to": "0xD9666150A9dA92d9108198a4072970805a8B3428",
      "value": {
        "_hex": "0x4563918244f40000"
      },
      "nonce": 23,
      "data": "0x",
      "r": "0x32886e51c71118b9fb95d4c91706d067c564c5446e8949d8310ad8ab17cdf8a8",
      "s": "0x26a0752bf99eb481d843615b1c21878be686a415c91a29bbf09e41d577c1c2f5",
      "v": 27,
      "creates": null,
      "raw": "0xf86d17850cb5bea61483015f9094d9666150a9da92d9108198a4072970805a8b3428884563918244f40000801ba032886e51c71118b9fb95d4c91706d067c564c5446e8949d8310ad8ab17cdf8a8a026a0752bf99eb481d843615b1c21878be686a415c91a29bbf09e41d577c1c2f5",
      "networkId": 0,
      "chainId": 0
    }
  ]
}