{
  "hash": "0xeee8b88724e7d5720d9079a0fa8f1cc9a173330063ddd022ebfec09a54cf50f7",
  "parentHash": "0x0877df957de001016f4ee035596b5d3c5f851d6a010fdd8f67d1ba64ab94daec",
  "number": 111111,
  "timestamp": 1439984825,
  "nonce": "0xa2a2038de2c1a4a7",
  "difficulty": 4400948001340,
  "gasLimit": {
    "_hex": "0x2fefd8"
  },
  "gasUsed": {
    "_hex": "0x5208"
  },
  "miner": "0xA21Ba94e45f0E168dA824fC67aC9cb5Cb577a8aF",
  "extraData": "0x",
  "transactions": [
    {
      "hash": "0xb99a6e0b40f38c4887617bc1df560fde1d0456b712cb2bb1b52fdb8880d3cd74",
      "blockHash": "0xeee8b88724e7d5720d9079a0fa8f1cc9a173330063ddd022ebfec09a54cf50f7",
      "blockNumber": 111111,
      "transactionIndex": 0,
      "confirmations": null,
      "from": "0x4193122032b38236825BBa166F42e54fc3F4A1EE",
      "gasPrice": {
        "_hex": "0xded86d983"
      },
      "gasLimit": {
        "_hex": "0x15f90"
      },
      "to": "0x1177848589133f5C4E69EdFcb18bBCd9cACE72D1",
      "value": {
        "_hex": "0x470de4df820000"
      },
      "nonce": 0,
      "data": "0x",
      "r": "0x31e7d9370539b8bbfbff1dca6dff0fa6bff6418b52ffde2148ac0252a0610c40",
      "s": "0x256df5fd4de2ec8d5bf883e02e1492035b98c3965e3a48b3cffca8db9629afec",
      "v": 28,
      "creates": null,
      "raw": "0xf86c80850ded86d98383015f90941177848589133f5c4e69edfcb18bbcd9cace72d187470de4df820000801ca031e7d9370539b8bbfbff1dca6dff0fa6bff6418b52ffde2148ac0252a0610c40a0256df5fd4de2ec8d5bf883e02e1492035b98c3965e3a48b3cffca8db9629afec",
      "networkId": 0,
      "chainId": 0
    }
  ]
}