{
  "hash": "0x5f324d481cb953010cd5ee99147e23736556c0b91ab43f680a6e0c81c6fd6550",
  "parentHash": "0x20c940215c911c6ed8da4cdf2258d7e3aa9b9f04fe100e0b0f1d8f2301be020e",
  "number": 122383,
  "timestamp": 1440193424,
  "nonce": "0x253c1d48d2685733",
  "difficulty": 4481722669003,
  "gasLimit": {
    "_hex": "0x2fefd8"
  },
  "gasUsed": {
    "_hex": "0xa410"
  },
  "miner": "0xf953405630EB592EA47C1ff0f22d3b38891f6cd6",
  "extraData": "0xd983010002844765746887676f312e342e328777696e646f7773",
  "transactions": [
    {
      "hash": "0x6b932786cab4ef4f6ef3831f1b6114359a35c20be041114946630dbe90ef9c7f",
      "blockHash": "0x5f324d481cb953010cd5ee99147e23736556c0b91ab43f680a6e0c81c6fd6550",
      "blockNumber": 122383,
      "transactionIndex": 0,
      "confirmations": null,
      "from": "0x267069452478cA39b3f5F1A4fFdD4131f50Bc977",
      "gasPrice": {
        "_hex": "0xd7411fd09"
      },
      "gasLimit": {
        "_hex": "0x5208"
      },
      "to": "0x32Be343B94f860124dC4fEe278FDCBD38C102D88",
      "value": {
        "_hex": "0x6202c60a9230c0000"
      },
      "nonce": 17,
      "data": "0x",
      "r": "0x5faad18503c82b6f8feddddd4c755c4fe441951f20dbbf1c6bcb5e6508159575",
      "s": "0x4e704cb722206dadefa6f69f736950a5833e1ee1bd8d8dfaf6ed5064753630ef",
      "v": 28,
      "creates": null,
      "raw": "0xf86d11850d7411fd098252089432be343b94f860124dc4fee278fdcbd38c102d888906202c60a9230c0000801ca05faad18503c82b6f8feddddd4c755c4fe441951f20dbbf1c6bcb5e6508159575a04e704cb722206dadefa6f69f736950a5833e1ee1bd8d8dfaf6ed5064753630ef",
      "networkId": 0,
      "chainId": 0
    },
    {
      "hash": "0x6289215cf4cc27bcf3a464f9a1a11db91f51fa8e20ecb509ee2e5eb020f720c0",
      "blockHash": "0x5f324d481cb953010cd5ee99147e23736556c0b91ab43f680a6e0c81c6fd6550",
      "blockNumber": 122383,
      "transactionIndex": 1,
      "confirmations": null,
      "from": "0xb1abce2918E21ddb93AA452731a12672A3d9F75a",
      "gasPrice": {
        "_hex": "0xd7411fd09"
      },
      "gasLimit": {
        "_hex": "0x5208"
      },
      "to": "0x32Be343B94f860124dC4fEe278FDCBD38C102D88",
      "value": {
        "_hex": "0x455f4cb247fa1000"
      },
      "nonce": 230,
      "data": "0x",
      "r": "0xc6485df0fae462bded668df17eddea38e5929b18f4d1b9d262628adb1809cb97",
      "s": "0x10bba74cc97b693499544fddd38e5e53960f9757be2ad1dc7bc8b33f10cb94f6",
      "v": 27,
      "creates": null,
      "raw": "0xf86d81e6850d7411fd098252089432be343b94f860124dc4fee278fdcbd38c102d8888455f4cb247fa1000801ba0c6485df0fae462bded668df17eddea38e5929b18f4d1b9d262628adb1809cb97a010bba74cc97b693499544fddd38e5e53960f9757be2ad1dc7bc8b33f10cb94f6",
      "networkId": 0,
      "chainId": 0
    }
  ]
}