{
  "hash": "0x3f50aae64d9d745017129f47bb750f6754e673a6bc96e04b762f2cfa644245bf",
  "parentHash": "0x3f2f491d0fc6eb754c15083daa4cc2211ac3bb449c42d081626e34e06f2b14ff",
  "number": 87612,
  "timestamp": 1439594879,
  "nonce": "0xde3122e4bff5ece8",
  "difficulty": 3158662218101,
  "gasLimit": {
    "_hex": "0x2fefd8"
  },
  "gasUsed": {
    "_hex": "0xa410"
  },
  "miner": "0x88D74a59454F6cF3B51ef6b9136AFb6b9D405A88",
  "extraData": "0x476574682f76312e302e312d37666266393930632f6c696e75782f676f312e34",
  "transactions": [
    {
      "hash": "0x84c9554034ec1424f2f5ef0949da7ef26c29520ab178732992bd73398c7d6c10",
      "blockHash": "0x3f50aae64d9d745017129f47bb750f6754e673a6bc96e04b762f2cfa644245bf",
      "blockNumber": 87612,
      "transactionIndex": 0,
      "confirmations": null,
      "from": "0x990BA897951E7bB159badE10e800f0B27A4CB89F",
      "gasPrice": {
        "_hex": "0xda1ae5e97"
      },
      "gasLimit": {
        "_hex": "0x30d40"
      },
      "to": "0x120A270bbC009644e35F0bB6ab13f95b8199c4ad",
      "value": {
        "_hex": "0xd4f0e7d2d683f340"
      },
      "nonce": 0,
      "data": "0x",
      "r": "0x643c4fd1084c62c60c99705bb48e41e93b2396eb9c70f1819d72969065c66cff",
      "s": "0x4ffd64714bcc5c77096a6c61daf8451398c7d29b904a28444c0a62bcc7e1ac15",
      "v": 28,
      "creates": null,
      "raw": "0xf86d80850da1ae5e9783030d4094120a270bbc009644e35f0bb6ab13f95b8199c4ad88d4f0e7d2d683f340801ca0643c4fd1084c62c60c99705bb48e41e93b2396eb9c70f1819d72969065c66cffa04ffd64714bcc5c77096a6c61daf8451398c7d29b904a28444c0a62bcc7e1ac15",
      "networkId": 0,
      "chainId": 0
    },
    {
      "hash": "0x24456439d38a8e94a085afca9037ef67e78f06f36970b1bb3b8106cda01f5f56",
      "blockHash": "0x3f50aae64d9d745017129f47bb750f6754e673a6bc96e04b762f2cfa644245bf",
      "blockNumber": 87612,
      "transactionIndex": 1,
      "confirmations": null,
      "from": "0x120A270bbC009644e35F0bB6ab13f95b8199c4ad",
      "gasPrice": {
        "_hex": "0xda1ae5e97"
      },
      "gasLimit": {
        "_hex": "0x3d090"
      },
      "to": "0x6F82e9631D02d910203Bf51fA534283eC2859f2A",
      "value": {
        "_hex": "0x1158e460913d00000"
      },
      "nonce": 503,
      "data": "0x",
      "r": "0xc1b0cac2856249ed3fb0b9115dc7ecee80432b28edfdaa267851eac6dfcf92fe",
      "s": "0x764c3f2035b4a1879a4cfca8f2850ed096d48c6114ace872df51f9eb8b90f820",
      "v": 28,
      "creates": null,
      "raw": "0xf8708201f7850da1ae5e978303d090946f82e9631d02d910203bf51fa534283ec2859f2a8901158e460913d00000801ca0c1b0cac2856249ed3fb0b9115dc7ecee80432b28edfdaa267851eac6dfcf92fea0764c3f2035b4a1879a4cfca8f2850ed096d48c6114ace872df51f9eb8b90f820",
      "networkId": 0,
      "chainId": 0
    }
  ]
}