{
  "hash": "0x46cb4c1047bc61b3bb1cce6d9ff1b2d273d99eedacd1d659e0ee5de26302d006",
  "parentHash": "0xfa16f761134974a5864944997334e512ded63eb959579a06f65ea3d20304bda5",
  "number": 88369,
  "timestamp": 1439607054,
  "nonce": "0xe0ff19beb5046183",
  "difficulty": 3203418449824,
  "gasLimit": {
    "_hex": "0x2fefd8"
  },
  "gasUsed": {
    "_hex": "0x3954e"
  },
  "miner": "0x580992B51e3925e23280EfB93d3047C82f17E038",
  "extraData": "0x476574682f76312e302e312f6c696e75782f676f312e342e32",
  "transactions": [
    {
      "hash": "0x068ec2304b20c9ad929c92f1714c869ebd67c02b5ba515a6cb50fd5e02bdb462",
      "blockHash": "0x46cb4c1047bc61b3bb1cce6d9ff1b2d273d99eedacd1d659e0ee5de26302d006",
      "blockNumber": 88369,
      "transactionIndex": 0,
      "confirmations": null,
      "from": "0xf2Ae859397af92154241eAd0aC7c4ce3bea76E8F",
      "gasPrice": {
        "_hex": "0xd6b46715b"
      },
      "gasLimit": {
        "_hex": "0xf4240"
      },
      "to": null,
      "value": {
        "_hex": "0x0"
      },
      "nonce": 18,
      "data": "0x606060405260405160208061025a8339016040526060805190602001505b8080602757506127105b600060005060003373ffffffffffffffffffffffffffffffffffffffff168152602001908152602001600020600050819055505b506101ef8061006b6000396000f30060606040526000357c01000000000000000000000000000000000000000000000000000000009004806390b98a1114610044578063bbd39ac01461007157610042565b005b61005b6004803590602001803590602001506100b3565b6040518082815260200191505060405180910390f35b610082600480359060200150610098565b6040518082815260200191505060405180910390f35b60006000506020528060005260406000206000915090505481565b600081600060005060003373ffffffffffffffffffffffffffffffffffffffff1681526020019081526020016000206000505410156100f557600090506101e9565b81600060005060003373ffffffffffffffffffffffffffffffffffffffff16815260200190815260200160002060008282825054039250508190555081600060005060008573ffffffffffffffffffffffffffffffffffffffff1681526020019081526020016000206000828282505401925050819055507f16cdf1707799c6655baac6e210f52b94b7cec08adcaf9ede7dfe8649da926146338484604051808473ffffffffffffffffffffffffffffffffffffffff1681526020018373ffffffffffffffffffffffffffffffffffffffff168152602001828152602001935050505060405180910390a1600190506101e9565b92915050560000000000000000000000000000000000000000000000000000000000002710",
      "r": "0xeead2c98fac9c1db40c19b0ba1f0724fe399d401c06ba423aa6fba1996af8d5d",
      "s": "0x7fc88efee0cea3f07b9f8aa751243f5958b6826f7cad9b6470eb0ff182e1c8b2",
      "v": 28,
      "creates": "0x1377065D347F9e7Bee6aBbe02302d5d97078Ce8d",
      "raw": "0xf902cd12850d6b46715b830f42408080b9027a606060405260405160208061025a8339016040526060805190602001505b8080602757506127105b600060005060003373ffffffffffffffffffffffffffffffffffffffff168152602001908152602001600020600050819055505b506101ef8061006b6000396000f30060606040526000357c01000000000000000000000000000000000000000000000000000000009004806390b98a1114610044578063bbd39ac01461007157610042565b005b61005b6004803590602001803590602001506100b3565b6040518082815260200191505060405180910390f35b610082600480359060200150610098565b6040518082815260200191505060405180910390f35b60006000506020528060005260406000206000915090505481565b600081600060005060003373ffffffffffffffffffffffffffffffffffffffff1681526020019081526020016000206000505410156100f557600090506101e9565b81600060005060003373ffffffffffffffffffffffffffffffffffffffff16815260200190815260200160002060008282825054039250508190555081600060005060008573ffffffffffffffffffffffffffffffffffffffff1681526020019081526020016000206000828282505401925050819055507f16cdf1707799c6655baac6e210f52b94b7cec08adcaf9ede7dfe8649da926146338484604051808473ffffffffffffffffffffffffffffffffffffffff1681526020018373ffffffffffffffffffffffffffffffffffffffff168152602001828152602001935050505060405180910390a1600190506101e9565b929150505600000000000000000000000000000000000000000000000000000000000027101ca0eead2c98fac9c1db40c19b0ba1f0724fe399d401c06ba423aa6fba1996af8d5da07fc88efee0cea3f07b9f8aa751243f5958b6826f7cad9b6470eb0ff182e1c8b2",
      "networkId": 0,
      "chainId": 0
    },
    {
      "hash": "0xfb8ca51ab42be26e1587d929604c1d3e3d3d0dba64e81bf0c5f279ff05b5bf6a",
      "blockHash": "0x46cb4c1047bc61b3bb1cce6d9ff1b2d273d99eedacd1d659e0ee5de26302d006",
      "blockNumber": 88369,
      "transactionIndex": 1,
      "confirmations": null,
      "from": "0xFBb1b73C4f0BDa4f67dcA266ce6Ef42f520fBB98",
      "gasPrice": {
        "_hex": "0xd12cd5afc"
      },
      "gasLimit": {
        "_hex": "0x15f90"
      },
      "to": "0xCAc7000C7dBaa2E33Af15325AF5D435E011C7BdD",
      "value": {
        "_hex": "0x0"
      },
      "nonce": 39,
      "data": "0x3feb1bd842495454524558303000000000000000000000000000000000000000000000000000000000000000000000001ecdfe2c738a656fcc99f5061cec5e951e2e955d000000000000000000000000000000000000000000000000006a94d74f430000",
      "r": "0xec476f9c0e856910ab7f46140d41a0aea6b77191b93b0bb2105decbb10f42675",
      "s": "0x2b9d12f1f9257bcf48c29fc5eb9d3f72e30243ebb5804a3dd48e1a5200540c4d",
      "v": 28,
      "creates": null,
      "raw": "0xf8ca27850d12cd5afc83015f9094cac7000c7dbaa2e33af15325af5d435e011c7bdd80b8643feb1bd842495454524558303000000000000000000000000000000000000000000000000000000000000000000000001ecdfe2c738a656fcc99f5061cec5e951e2e955d000000000000000000000000000000000000000000000000006a94d74f4300001ca0ec476f9c0e856910ab7f46140d41a0aea6b77191b93b0bb2105decbb10f42675a02b9d12f1f9257bcf48c29fc5eb9d3f72e30243ebb5804a3dd48e1a5200540c4d",
      "networkId": 0,
      "chainId": 0
    }
  ]
}