{
  "hash": "0xbaaeda58eee39d1cf614b2ee9b79ed798e3833bb52c233afd42253c329eb7ac2",
  "parentHash": "0x86eab513f9aa866763501ea5901539a81b1956671e0bb765d0795f58fc071fd6",
  "number": 121158,
  "timestamp": 1440172390,
  "nonce": "0x7aa4b5324bc804ad",
  "difficulty": 4406424912043,
  "gasLimit": {
    "_hex": "0x2fefd8"
  },
  "gasUsed": {
    "_hex": "0x5208"
  },
  "miner": "0xb553EA87675eF890a0318b068C2272d76c1c672C",
  "extraData": "0x",
  "transactions": [
    {
      "hash": "0x09f56fba6056527fa29e3ce60d3fcbb61ffefac20c3a32b36e79d1969f47b268",
      "blockHash": "0xbaaeda58eee39d1cf614b2ee9b79ed798e3833bb52c233afd42253c329eb7ac2",
      "blockNumber": 121158,
      "transactionIndex": 0,
      "confirmations": null,
      "from": "0x608f4b86321a68453f9adf6F06F7Fc3E621739ad",
      "gasPrice": {
        "_hex": "0xba43b7400"
      },
      "gasLimit": {
        "_hex": "0x5208"
      },
      "to": "0x32Be343B94f860124dC4fEe278FDCBD38C102D88",
      "value": {
        "_hex": "0x455fd68a17f06000"
      },
      "nonce": 94,
      "data": "0x",
      "r": "0x570f13324fca5bc4947dec32a3e47b49e40ee274be7f9a94570f425ec38a4843",
      "s": "0x3bf3bc9856a91e6b3a79604b52f296506186fcbc216c96dd8770e5cbaac1af27",
      "v": 27,
      "creates": null,
      "raw": "0xf86c5e850ba43b74008252089432be343b94f860124dc4fee278fdcbd38c102d8888455fd68a17f06000801ba0570f13324fca5bc4947dec32a3e47b49e40ee274be7f9a94570f425ec38a4843a03bf3bc9856a91e6b3a79604b52f296506186fcbc216c96dd8770e5cbaac1af27",
      "networkId": 0,
      "chainId": 0
    }
  ]
}