{
  "hash": "0x35f1f503c40b61e8302089004f8b215cceec983c9790c90d97b06448e59df75a",
  "parentHash": "0x607404db003f559a56e5b2d22244b6d39e0270e027e3b296e8316276e378f3e4",
  "number": 112825,
  "timestamp": 1440013866,
  "nonce": "0xcda19186c413d995",
  "difficulty": 4425906088609,
  "gasLimit": {
    "_hex": "0x2fefd8"
  },
  "gasUsed": {
    "_hex": "0x5208"
  },
  "miner": "0xe6A7a1d47ff21B6321162AEA7C6CB457D5476Bca",
  "extraData": "0x476574682f76312e302e312d38326566323666362f6c696e75782f676f312e34",
  "transactions": [
    {
      "hash": "0xd9440456eb53b1afec97623126f8ea6d0e1ca72e491f153d94edfa91db3fc96f",
      "blockHash": "0x35f1f503c40b61e8302089004f8b215cceec983c9790c90d97b06448e59df75a",
      "blockNumber": 112825,
      "transactionIndex": 0,
      "confirmations": null,
      "from": "0xA270859a7dD7bEF18258BDE4b85Dd3691FdE277D",
      "gasPrice": {
        "_hex": "0xd7151ed24"
      },
      "gasLimit": {
        "_hex": "0x5208"
      },
      "to": "0x32Be343B94f860124dC4fEe278FDCBD38C102D88",
      "value": {
        "_hex": "0x61a52350274d4800"
      },
      "nonce": 5,
      "data": "0x",
      "r": "0x42272b6326ccb17bc54aaf52ac5de59ed3954fbf0e57753ac31fdbebb5a24f87",
      "s": "0x7ba0edcd315472c40da31ee4f11442b73bf8c08cf2ac04a51ac9e0008da45224",
      "v": 27,
      "creates": null,
      "raw": "0xf86c05850d7151ed248252089432be343b94f860124dc4fee278fdcbd38c102d888861a52350274d4800801ba042272b6326ccb17bc54aaf52ac5de59ed3954fbf0e57753ac31fdbebb5a24f87a07ba0edcd315472c40da31ee4f11442b73bf8c08cf2ac04a51ac9e0008da45224",
      "networkId": 0,
      "chainId": 0
    }
  ]
}