{
  "hash": "0x8df1747761ddf961c43654924c5ffd6248b34ce6f7afd9b0b8f951b1fec25fd9",
  "parentHash": "0xe1504235da98b57310e69491c7a62935eddc128b8b7b68051e4fcdd26e35e036",
  "number": 46687,
  "timestamp": 1438927424,
  "nonce": "0x08ef95097b0f6847",
  "difficulty": 1461039637032,
  "gasLimit": {
    "_hex": "0x717e"
  },
  "gasUsed": {
    "_hex": "0x5208"
  },
  "miner": "0xf927a40C8B7F6E07c5af7FA2155B4864a4112B13",
  "extraData": "0x476574682f76312e302e312f6c696e75782f676f312e342e32",
  "transactions": [
    {
      "hash": "0x70b6d61ce19489fb1908d91a2ad3d2599239dba1070a3d8fd2cb0deba513f861",
      "blockHash": "0x8df1747761ddf961c43654924c5ffd6248b34ce6f7afd9b0b8f951b1fec25fd9",
      "blockNumber": 46687,
      "transactionIndex": 0,
      "confirmations": null,
      "from": "0xF90b585a1e878eE18838B2688687e670bCf29D35",
      "gasPrice": {
        "_hex": "0xd6d58f838"
      },
      "gasLimit": {
        "_hex": "0x55f0"
      },
      "to": "0xBc91527B31Fbbe397F91C2b9273Ea32b0d9a19a0",
      "value": {
        "_hex": "0x8be7d9ac507b3a000"
      },
      "nonce": 0,
      "data": "0x",
      "r": "0x6690b0f2db09ce4c83d96d8f9c9cc17494dcee407d0a784482ec0420c3aeeabc",
      "s": "0x037ee59679c72699f0b18ad7b42f2ea95be23e2322e41826b82261df6aff29bf",
      "v": 27,
      "creates": null,
      "raw": "0xf86d80850d6d58f8388255f094bc91527b31fbbe397f91c2b9273ea32b0d9a19a08908be7d9ac507b3a000801ba06690b0f2db09ce4c83d96d8f9c9cc17494dcee407d0a784482ec0420c3aeeabca0037ee59679c72699f0b18ad7b42f2ea95be23e2322e41826b82261df6aff29bf",
      "networkId": 0,
      "chainId": 0
    }
  ]
}