{
  "hash": "0xc95dbb888cd66daed92bff0861ece95377f0b682c35ac19674c69fdd18fe8a9e",
  "parentHash": "0xb71d3d7c47f1944bd1aaca95f2d66d1e56c807c220d40846496e6a3dcb11e9cc",
  "number": 110313,
  "timestamp": 1439971572,
  "nonce": "0xa09bf46e53a5dcfd",
  "difficulty": 4375652826348,
  "gasLimit": {
    "_hex": "0x2fefd8"
  },
  "gasUsed": {
    "_hex": "0x5208"
  },
  "miner": "0x7E6930B63D03e88F5928C5cd6ee3FCee4D714F7F",
  "extraData": "0x",
  "transactions": [
    {
      "hash": "0x96f8247fd61f2fbdc684155688f4f01477017df9876315f3fb1b0be1e9a2990a",
      "blockHash": "0xc95dbb888cd66daed92bff0861ece95377f0b682c35ac19674c69fdd18fe8a9e",
      "blockNumber": 110313,
      "transactionIndex": 0,
      "confirmations": null,
      "from": "0x196c02210a450ab0B36370655F717Aa87Bd1C004",
      "gasPrice": {
        "_hex": "0xe2baaf0d7"
      },
      "gasLimit": {
        "_hex": "0x5208"
      },
      "to": "0xC1aF7cD316C1A99d40Dd7208172fD88dD0280a4d",
      "value": {
        "_hex": "0xe10a856e9bd439b48"
      },
      "nonce": 0,
      "data": "0x",
      "r": "0x73961f93dc7dab4a683f13a9d243cd0911070ae2aebf0ebf9cb2b0c75c6772d5",
      "s": "0x0299f60984ac781e67de68095ac3f4eaee6bc7948227b41e6f2f8380c678c4c2",
      "v": 27,
      "creates": null,
      "raw": "0xf86d80850e2baaf0d782520894c1af7cd316c1a99d40dd7208172fd88dd0280a4d890e10a856e9bd439b48801ba073961f93dc7dab4a683f13a9d243cd0911070ae2aebf0ebf9cb2b0c75c6772d5a00299f60984ac781e67de68095ac3f4eaee6bc7948227b41e6f2f8380c678c4c2",
      "networkId": 0,
      "chainId": 0
    }
  ]
}