{
  "hash": "0x4fceda8a374c6f2167773a582b730f252b14405722eae6b68e775c7b7c4a38f8",
  "parentHash": "0xb9eec55227ae1b9cf44d8d03292b19eb38ea404a30b6ee73f19bc4dbf2316f0d",
  "number": 79117,
  "timestamp": 1439464734,
  "nonce": "0x0a50ec9f2fc76b25",
  "difficulty": 2316659069251,
  "gasLimit": {
    "_hex": "0x2fefd8"
  },
  "gasUsed": {
    "_hex": "0xa410"
  },
  "miner": "0xf927a40C8B7F6E07c5af7FA2155B4864a4112B13",
  "extraData": "0x",
  "transactions": [
    {
      "hash": "0xd22e8cedb9293ae1fc252d8087bc709e4b1b783e5e9de9c4e9937cdd05ff24b4",
      "blockHash": "0x4fceda8a374c6f2167773a582b730f252b14405722eae6b68e775c7b7c4a38f8",
      "blockNumber": 79117,
      "transactionIndex": 0,
      "confirmations": null,
      "from": "0xc0920452d99591a4e8b190632c52754c72F73328",
      "gasPrice": {
        "_hex": "0xd096e7c5a"
      },
      "gasLimit": {
        "_hex": "0x5208"
      },
      "to": "0x32Be343B94f860124dC4fEe278FDCBD38C102D88",
      "value": {
        "_hex": "0x297631d880c518000"
      },
      "nonce": 3,
      "data": "0x",
      "r": "0x0a95aa9f611fbbbc676164c919f0bc41ba40ffe7436abe5540304fb323110bf3",
      "s": "0x6d9f81310db96b809f0b8cd734a2677965b67c93a432a037eeeb41e07441f5e6",
      "v": 27,
      "creates": null,
      "raw": "0xf86d03850d096e7c5a8252089432be343b94f860124dc4fee278fdcbd38c102d88890297631d880c518000801ba00a95aa9f611fbbbc676164c919f0bc41ba40ffe7436abe5540304fb323110bf3a06d9f81310db96b809f0b8cd734a2677965b67c93a432a037eeeb41e07441f5e6",
      "networkId": 0,
      "chainId": 0
    },
    {
      "hash": "0xee7fcc5f2a7f24e91fd25deb65088c5823e9f9000d618515ddd44546f6c36dce",
      "blockHash": "0x4fceda8a374c6f2167773a582b730f252b14405722eae6b68e775c7b7c4a38f8",
      "blockNumber": 79117,
      "transactionIndex": 1,
      "confirmations": null,
      "from": "0xdCB14605B0EE4F372D223e5DF87aa9e760886D01",
      "gasPrice": {
        "_hex": "0xd096e7c5a"
      },
      "gasLimit": {
        "_hex": "0x5208"
      },
      "to": "0x32Be343B94f860124dC4fEe278FDCBD38C102D88",
      "value": {
        "_hex": "0x3aa2a10d428b04000"
      },
      "nonce": 3,
      "data": "0x",
      "r": "0xe36216a8ca02820fd09d6c812b93dee1dcf37fae6ea9d0d4edae8aecfa4b4b22",
      "s": "0x0e9fb7e7a51e3bde98dedd375de59bc277fefaa8150ac6bc8dfe790819db985d",
      "v": 28,
      "creates": null,
      "raw": "0xf86d03850d096e7c5a8252089432be343b94f860124dc4fee278fdcbd38c102d888903aa2a10d428b04000801ca0e36216a8ca02820fd09d6c812b93dee1dcf37fae6ea9d0d4edae8aecfa4b4b22a00e9fb7e7a51e3bde98dedd375de59bc277fefaa8150ac6bc8dfe790819db985d",
      "networkId": 0,
      "chainId": 0
    }
  ]
}