{
  "hash": "0x682bad268d70232e820fd4938f041e32a35d08be4180c733f2ba18fbd78eeff9",
  "parentHash": "0x343ec1bb68e606e2f79672f176f991264507459b262a5592ebc95ceef4906ff9",
  "number": 64526,
  "timestamp": 1439222347,
  "nonce": "0xd253b256343c89c6",
  "difficulty": 1874771061245,
  "gasLimit": {
    "_hex": "0x2fefd8"
  },
  "gasUsed": {
    "_hex": "0x14a84"
  },
  "miner": "0xf8E0CA3Ed80bd541b94BEdCf259e8CF2141A9523",
  "extraData": "0x476574682f76312e302e312f77696e646f77732f676f312e342e32",
  "transactions": [
    {
      "hash": "0x8191fa05a8036355b8df9e288bb57ce4ed5caa422c2a95b489581d98161f5377",
      "blockHash": "0x682bad268d70232e820fd4938f041e32a35d08be4180c733f2ba18fbd78eeff9",
      "blockNumber": 64526,
      "transactionIndex": 0,
      "confirmations": null,
      "from": "0x4FcE8429bA49cAa0369d1E494Db57E89Eab2AD39",
      "gasPrice": {
        "_hex": "0xd49a919f5"
      },
      "gasLimit": {
        "_hex": "0x55f0"
      },
      "to": "0x2910543Af39abA0Cd09dBb2D50200b3E800A63D2",
      "value": {
        "_hex": "0x7ce66c50e2840000"
      },
      "nonce": 2,
      "data": "0x454e454d5851434b30",
      "r": "0x5723f3feaa754238aea9136608fbeeafa87531317727580b164f3f84c92eb563",
      "s": "0x6f5e762d9cefb264218364cdd1b955df7e425fa5da3b8084f8f51f41210130a5",
      "v": 27,
      "creates": null,
      "raw": "0xf87502850d49a919f58255f0942910543af39aba0cd09dbb2d50200b3e800a63d2887ce66c50e284000089454e454d5851434b301ba05723f3feaa754238aea9136608fbeeafa87531317727580b164f3f84c92eb563a06f5e762d9cefb264218364cdd1b955df7e425fa5da3b8084f8f51f41210130a5",
      "networkId": 0,
      "chainId": 0
    },
    {
      "hash": "0x2dcca5f374e07907c7d15237dcfff1aae98096890f4cf843df7850d2c2f4440c",
      "blockHash": "0x682bad268d70232e820fd4938f041e32a35d08be4180c733f2ba18fbd78eeff9",
      "blockNumber": 64526,
      "transactionIndex": 1,
      "confirmations": null,
      "from": "0xdac32601E492EDFDdF3726F104A5CD2422c4262D",
      "gasPrice": {
        "_hex": "0xba43b7400"
      },
      "gasLimit": {
        "_hex": "0x5208"
      },
      "to": "0x12b24cEa0a89Eef1f1bD18E2329B61439d36Fc90",
      "value": {
        "_hex": "0x4e1253f5de4000"
      },
      "nonce": 1,
      "data": "0x",
      "r": "0x4e5b7d7767cbe1b8e1695e6d1d7f726b5e20b3480f2c453d6947b8d4785c29f1",
      "s": "0x375caf11e53289667fbc28208ec5ec1033447d39b68d5d5b476d38daf552fd6c",
      "v": 27,
      "creates": null,
      "raw": "0xf86b01850ba43b74008252089412b24cea0a89eef1f1bd18e2329b61439d36fc90874e1253f5de4000801ba04e5b7d7767cbe1b8e1695e6d1d7f726b5e20b3480f2c453d6947b8d4785c29f1a0375caf11e53289667fbc28208ec5ec1033447d39b68d5d5b476d38daf552fd6c",
      "networkId": 0,
      "chainId": 0
    },
    {
      "hash": "0x993c63c08fab128200df6018715d079c0817b343d70ac9487bcc3b3f1dcfd19c",
      "blockHash": "0x682bad268d70232e820fd4938f041e32a35d08be4180c733f2ba18fbd78eeff9",
      "blockNumber": 64526,
      "transactionIndex": 2,
      "confirmations": null,
      "from": "0x0BAbc2Eb79Ad56aa8446a217ac2d6Cd8820d172E",
      "gasPrice": {
        "_hex": "0xba43b7400"
      },
      "gasLimit": {
        "_hex": "0x5208"
      },
      "to": "0x83d28958d42998Bdc3A65F3bCC76a8680E21D1f5",
      "value": {
        "_hex": "0x653580cf6eb000"
      },
      "nonce": 1,
      "data": "0x",
      "r": "0xbc5ca79f23def5a86e9b17b5d806c4e250b271b9fe432523141bf06981b5a47f",
      "s": "0x6b23169ebd2685aa42c8717516889a210c4501a1ae5ee6842f121409aade2473",
      "v": 28,
      "creates": null,
      "raw": "0xf86b01850ba43b74008252089483d28958d42998bdc3a65f3bcc76a8680e21d1f587653580cf6eb000801ca0bc5ca79f23def5a86e9b17b5d806c4e250b271b9fe432523141bf06981b5a47fa06b23169ebd2685aa42c8717516889a210c4501a1ae5ee6842f121409aade2473",
      "networkId": 0,
      "chainId": 0
    },
    {
      "hash": "0xe6875833b56a4a9a342deb3e042fcd28b3870f308a51d95100b0cbe831e5f126",
      "blockHash": "0x682bad268d70232e820fd4938f041e32a35d08be4180c733f2ba18fbd78eeff9",
      "blockNumber": 64526,
      "transactionIndex": 3,
      "confirmations": null,
      "from": "0xbEF2c3a18011C3760F611296db4bb1Cb120cAE47",
      "gasPrice": {
        "_hex": "0xba43b7400"
      },
      "gasLimit": {
        "_hex": "0x5208"
      },
      "to": "0xe53BDA6bEcD6b70868fC69d9312C1BA44e899B12",
      "value": {
        "_hex": "0x4e1253f5de4000"
      },
      "nonce": 1,
      "data": "0x",
      "r": "0x771c7760bbf397e24f8f61e974492d43c70f1e86bc0091d2b7e6785cb03af3cb",
      "s": "0x4cafcaee432ea693ea409a4755c11106dfd8cde4c342fa8be2de0953fc0fb74a",
      "v": 28,
      "creates": null,
      "raw": "0xf86b01850ba43b740082520894e53bda6becd6b70868fc69d9312c1ba44e899b12874e1253f5de4000801ca0771c7760bbf397e24f8f61e974492d43c70f1e86bc0091d2b7e6785cb03af3cba04cafcaee432ea693ea409a4755c11106dfd8cde4c342fa8be2de0953fc0fb74a",
      "networkId": 0,
      "chainId": 0
    }
  ]
}