{
  "hash": "0xbb50fde81c59f6a2db73389f0c5f5342da1c8a6d01207a0d4ec4bda981bc242c",
  "parentHash": "0x2d8d79fe55a96ddfdc19662722fdc2291e907c04c5ed9f9c4278acf306d481b6",
  "number": 93796,
  "timestamp": 1439697978,
  "nonce": "0xcd4efe3f28700676",
  "difficulty": 3426168753539,
  "gasLimit": {
    "_hex": "0x2fefd8"
  },
  "gasUsed": {
    "_hex": "0xe216"
  },
  "miner": "0xa50ec0D39fa913E62f1Bae7074E6F36caA71855b",
  "extraData": "0xd783010001844765746887676f312e342e32856c696e7578",
  "transactions": [
    {
      "hash": "0x4ea690fa6b05106f235be1d58ae7b134c8b684bc296525393f393efdd6fba9a6",
      "blockHash": "0xbb50fde81c59f6a2db73389f0c5f5342da1c8a6d01207a0d4ec4bda981bc242c",
      "blockNumber": 93796,
      "transactionIndex": 0,
      "confirmations": null,
      "from": "0xFBb1b73C4f0BDa4f67dcA266ce6Ef42f520fBB98",
      "gasPrice": {
        "_hex": "0xd73cdf73c"
      },
      "gasLimit": {
        "_hex": "0x15f90"
      },
      "to": "0xCAc7000C7dBaa2E33Af15325AF5D435E011C7BdD",
      "value": {
        "_hex": "0x0"
      },
      "nonce": 58,
      "data": "0x3feb1bd8424954545245583030000000000000000000000000000000000000000000000000000000000000000000000023f6b61e953f76813b95a35cf10584b8b1ffe56900000000000000000000000000000000000000000000006c6b935b8bbd400000",
      "r": "0xd4bbbafdacabd1d326d458ae4234bad106c23938ec202bed9aac65a2a50c5c93",
      "s": "0x4c3172720922bf6a7c11d3dce467b23f7fb69ebbfc021cae13ff914cd3d61c62",
      "v": 28,
      "creates": null,
      "raw": "0xf8ca3a850d73cdf73c83015f9094cac7000c7dbaa2e33af15325af5d435e011c7bdd80b8643feb1bd8424954545245583030000000000000000000000000000000000000000000000000000000000000000000000023f6b61e953f76813b95a35cf10584b8b1ffe56900000000000000000000000000000000000000000000006c6b935b8bbd4000001ca0d4bbbafdacabd1d326d458ae4234bad106c23938ec202bed9aac65a2a50c5c93a04c3172720922bf6a7c11d3dce467b23f7fb69ebbfc021cae13ff914cd3d61c62",
      "networkId": 0,
      "chainId": 0
    }
  ]
}