{
  "hash": "0x12c55f77907b92bbe1d9c0724adb3691151ff6083534cf3420264a543b5ce46d",
  "parentHash": "0x748930297ce48a940db692e9976c7c80ef8768345d1ef36971a2016a005f93af",
  "number": 63307,
  "timestamp": 1439202441,
  "nonce": "0x7973323376b90d2d",
  "difficulty": 1816467323290,
  "gasLimit": {
    "_hex": "0x2fefd8"
  },
  "gasUsed": {
    "_hex": "0x19c8c"
  },
  "miner": "0xf927a40C8B7F6E07c5af7FA2155B4864a4112B13",
  "extraData": "0x476574682f76312e302e312f6c696e75782f676f312e342e32",
  "transactions": [
    {
      "hash": "0x5152ca447b3124d71b27b800b90b9f8a58a0b67126ac2bddba4fab80b8019d65",
      "blockHash": "0x12c55f77907b92bbe1d9c0724adb3691151ff6083534cf3420264a543b5ce46d",
      "blockNumber": 63307,
      "transactionIndex": 0,
      "confirmations": null,
      "from": "0x51B4758e9E1450e7AF4268C3C7B1e7BD6F5C7550",
      "gasPrice": {
        "_hex": "0x110c8f7d8de"
      },
      "gasLimit": {
        "_hex": "0xc350"
      },
      "to": "0x2910543Af39abA0Cd09dBb2D50200b3E800A63D2",
      "value": {
        "_hex": "0x3627e8f712373c0000"
      },
      "nonce": 0,
      "data": "0x454e44355a385a5752",
      "r": "0xfea4814c14c2a4aacd84f072b3200ad11a0e07162ab323b3b8dd887ed0c93e10",
      "s": "0x837e9e157197850a46c069ff956b781a4c391b671b3e528fcc0cf3f78340f401",
      "v": 28,
      "creates": null,
      "raw": "0xf87780860110c8f7d8de82c350942910543af39aba0cd09dbb2d50200b3e800a63d2893627e8f712373c000089454e44355a385a57521ca0fea4814c14c2a4aacd84f072b3200ad11a0e07162ab323b3b8dd887ed0c93e10a0837e9e157197850a46c069ff956b781a4c391b671b3e528fcc0cf3f78340f401",
      "networkId": 0,
      "chainId": 0
    },
    {
      "hash": "0x9bd8aa499a2f07e14661688cc14ad5fd7da6804d21069bc5fc8938521046b2c6",
      "blockHash": "0x12c55f77907b92bbe1d9c0724adb3691151ff6083534cf3420264a543b5ce46d",
      "blockNumber": 63307,
      "transactionIndex": 1,
      "confirmations": null,
      "from": "0x80bF995Ed8ba92701D10Fec49f9e7D014DBeE026",
      "gasPrice": {
        "_hex": "0xd829211eb"
      },
      "gasLimit": {
        "_hex": "0x15f90"
      },
      "to": "0xd43630311cCE705Cb1d69EA014F64b34BeF443d1",
      "value": {
        "_hex": "0x221b262dd8000"
      },
      "nonce": 2,
      "data": "0x",
      "r": "0x09a6988c65658df4629a9b216da80efa539745f33dbe3f17aab24fdbfb6af363",
      "s": "0x3e2c2a8237354d5cfebb7eefbdfad4e65260bef4048ee37c8cbcf05003b92363",
      "v": 27,
      "creates": null,
      "raw": "0xf86c02850d829211eb83015f9094d43630311cce705cb1d69ea014f64b34bef443d1870221b262dd8000801ba009a6988c65658df4629a9b216da80efa539745f33dbe3f17aab24fdbfb6af363a03e2c2a8237354d5cfebb7eefbdfad4e65260bef4048ee37c8cbcf05003b92363",
      "networkId": 0,
      "chainId": 0
    },
    {
      "hash": "0x6d328425e93ff051a655a235280e655e36fe3e183d21b02d27fd8093e1a20c90",
      "blockHash": "0x12c55f77907b92bbe1d9c0724adb3691151ff6083534cf3420264a543b5ce46d",
      "blockNumber": 63307,
      "transactionIndex": 2,
      "confirmations": null,
      "from": "0x2910543Af39abA0Cd09dBb2D50200b3E800A63D2",
      "gasPrice": {
        "_hex": "0xd328a2e81"
      },
      "gasLimit": {
        "_hex": "0x5208"
      },
      "to": "0xFfeef280ABabd07bD185B0ff831Ac17b8020d365",
      "value": {
        "_hex": "0x6aae604d8352b8000"
      },
      "nonce": 126,
      "data": "0x",
      "r": "0xe745f1d002ed33dacb93196a22193c0dec921852c2802dab9b19695f32bdc253",
      "s": "0x62136e4ca761969cdbd4f23083d5383fa53f18f93474537e801cf8da69338031",
      "v": 28,
      "creates": null,
      "raw": "0xf86d7e850d328a2e8182520894ffeef280ababd07bd185b0ff831ac17b8020d3658906aae604d8352b8000801ca0e745f1d002ed33dacb93196a22193c0dec921852c2802dab9b19695f32bdc253a062136e4ca761969cdbd4f23083d5383fa53f18f93474537e801cf8da69338031",
      "networkId": 0,
      "chainId": 0
    },
    {
      "hash": "0x5ab5c07c0d6fb34c31ce77786957283fea21686fc481c1bcc2460635f8720d30",
      "blockHash": "0x12c55f77907b92bbe1d9c0724adb3691151ff6083534cf3420264a543b5ce46d",
      "blockNumber": 63307,
      "transactionIndex": 3,
      "confirmations": null,
      "from": "0x5fF827e73C5B866c300b824fe12719a3DD350513",
      "gasPrice": {
        "_hex": "0xcd8173d73"
      },
      "gasLimit": {
        "_hex": "0x5208"
      },
      "to": "0x32Be343B94f860124dC4fEe278FDCBD38C102D88",
      "value": {
        "_hex": "0x455f73e2f41ec400"
      },
      "nonce": 7,
      "data": "0x",
      "r": "0x378e4f2c5a774eaa9c889ea8869cd64e53e209bf9b5cadd1b1a7143a9551553f",
      "s": "0x2ae69422e9c3258dd26a04959f2a352728d9e80fab3514955d00c99488af8f36",
      "v": 27,
      "creates": null,
      "raw": "0xf86c07850cd8173d738252089432be343b94f860124dc4fee278fdcbd38c102d8888455f73e2f41ec400801ba0378e4f2c5a774eaa9c889ea8869cd64e53e209bf9b5cadd1b1a7143a9551553fa02ae69422e9c3258dd26a04959f2a352728d9e80fab3514955d00c99488af8f36",
      "networkId": 0,
      "chainId": 0
    },
    {
      "hash": "0x4b8aeb01c5f66d292e08601e32c858e5b39b5b2f71131e054fcff4a0624940a3",
      "blockHash": "0x12c55f77907b92bbe1d9c0724adb3691151ff6083534cf3420264a543b5ce46d",
      "blockNumber": 63307,
      "transactionIndex": 4,
      "confirmations": null,
      "from": "0xCb88dAC50e0b4f450f3a5d02c2D65Bc56361313E",
      "gasPrice": {
        "_hex": "0xcd8173d73"
      },
      "gasLimit": {
        "_hex": "0x5208"
      },
      "to": "0x32Be343B94f860124dC4fEe278FDCBD38C102D88",
      "value": {
        "_hex": "0xddc8e5d97d79c00"
      },
      "nonce": 1,
      "data": "0x",
      "r": "0xc139fdd3417d2e828a43be59478725824d0a30b2c556a6fe4d6e48b06175ff03",
      "s": "0x05d4cd5f051bcd4c120091570a70d7a6b7cce3eb80850612f0abaa8efcd60f7d",
      "v": 28,
      "creates": null,
      "raw": "0xf86c01850cd8173d738252089432be343b94f860124dc4fee278fdcbd38c102d88880ddc8e5d97d79c00801ca0c139fdd3417d2e828a43be59478725824d0a30b2c556a6fe4d6e48b06175ff03a005d4cd5f051bcd4c120091570a70d7a6b7cce3eb80850612f0abaa8efcd60f7d",
      "networkId": 0,
      "chainId": 0
    }
  ]
}