{
  "hash": "0x8fb9381b22b645a041dac54e57fd2ccac92ef7a625a999b1f571a38a180f8bf8",
  "parentHash": "0x35d6f31d1d0b3c56d4afb9ab970cb60779864a08d9ba67bfd9f513b96b2d0261",
  "number": 88497,
  "timestamp": 1439608928,
  "nonce": "0xf1fa680fde5b4760",
  "difficulty": 3237966258566,
  "gasLimit": {
    "_hex": "0x2fefd8"
  },
  "gasUsed": {
    "_hex": "0x5208"
  },
  "miner": "0x6866e5e1FaBB4AbceF3EEb9Ea0d8CD6b52dfC9FF",
  "extraData": "0x",
  "transactions": [
    {
      "hash": "0xed4f568485151b56addc62c36f17297ed702440c5134a50613c995725d6a0f4c",
      "blockHash": "0x8fb9381b22b645a041dac54e57fd2ccac92ef7a625a999b1f571a38a180f8bf8",
      "blockNumber": 88497,
      "transactionIndex": 0,
      "confirmations": null,
      "from": "0xa70a9a7040d542C632D8e0bE7c5513A8a5Bbc752",
      "gasPrice": {
        "_hex": "0xd3ada817f"
      },
      "gasLimit": {
        "_hex": "0x5208"
      },
      "to": "0x32Be343B94f860124dC4fEe278FDCBD38C102D88",
      "value": {
        "_hex": "0x455f543ec6874800"
      },
      "nonce": 106,
      "data": "0x",
      "r": "0x5bd6c1cc891cdca1ba72b1f3b40679a2ab043ca726ba1292408299dd5e2d4120",
      "s": "0x3f6f9f9bcff6a63f8e4a91c5099d39fd7732f7c4a9027e38ad4364709746ecd4",
      "v": 27,
      "creates": null,
      "raw": "0xf86c6a850d3ada817f8252089432be343b94f860124dc4fee278fdcbd38c102d8888455f543ec6874800801ba05bd6c1cc891cdca1ba72b1f3b40679a2ab043ca726ba1292408299dd5e2d4120a03f6f9f9bcff6a63f8e4a91c5099d39fd7732f7c4a9027e38ad4364709746ecd4",
      "networkId": 0,
      "chainId": 0
    }
  ]
}