{
  "hash": "0x14d0f6c390e611f4c71fa0eda313af0dc5ce9d8ec812a74c6cd3690346b926ad",
  "parentHash": "0xb80196c725208724274d84b3f88fcdf485e9881c44536b672f5b5de93d0f49a5",
  "number": 90948,
  "timestamp": 1439647840,
  "nonce": "0x02f7e0592db68a16",
  "difficulty": 3423986792479,
  "gasLimit": {
    "_hex": "0x2fefd8"
  },
  "gasUsed": {
    "_hex": "0x302aa"
  },
  "miner": "0x0037ce3d4B7f8729C8607D8D0248252Be68202c0",
  "extraData": "0x476574682f76312e302e312f77696e646f77732f676f312e342e32",
  "transactions": [
    {
      "hash": "0xcfd49128521c91b1abb368924b31af5a427b396c5dfbee06a99879e10d5266f1",
      "blockHash": "0x14d0f6c390e611f4c71fa0eda313af0dc5ce9d8ec812a74c6cd3690346b926ad",
      "blockNumber": 90948,
      "transactionIndex": 0,
      "confirmations": null,
      "from": "0x2910543Af39abA0Cd09dBb2D50200b3E800A63D2",
      "gasPrice": {
        "_hex": "0xd93a279b4"
      },
      "gasLimit": {
        "_hex": "0x5208"
      },
      "to": "0x85582FD46E835e2694DE150F6ff48933C2B8a8b8",
      "value": {
        "_hex": "0x51509cc12f960f8000"
      },
      "nonce": 784,
      "data": "0x",
      "r": "0x00b115e26ac047a67061e3ecbd99e177f5d50fe38c769d95506c82e92f6b0918",
      "s": "0x663ed6477c256a453ba48fb55d6d3f759358f611a2c398787a131b52859df5a9",
      "v": 28,
      "creates": null,
      "raw": "0xf86e820310850d93a279b48252089485582fd46e835e2694de150f6ff48933c2b8a8b88951509cc12f960f8000801c9fb115e26ac047a67061e3ecbd99e177f5d50fe38c769d95506c82e92f6b0918a0663ed6477c256a453ba48fb55d6d3f759358f611a2c398787a131b52859df5a9",
      "networkId": 0,
      "chainId": 0
    },
    {
      "hash": "0x9e5f272b9739c16c4510f25c41c4a70f2a8bf9c8355481d46144e54f80fc4108",
      "blockHash": "0x14d0f6c390e611f4c71fa0eda313af0dc5ce9d8ec812a74c6cd3690346b926ad",
      "blockNumber": 90948,
      "transactionIndex": 1,
      "confirmations": null,
      "from": "0x2910543Af39abA0Cd09dBb2D50200b3E800A63D2",
      "gasPrice": {
        "_hex": "0xd93a279b4"
      },
      "gasLimit": {
        "_hex": "0x5208"
      },
      "to": "0x0CDf45a0f7A9bFD8777c2B6311a6614345aB9D9d",
      "value": {
        "_hex": "0x1b0b0d21ecc09f4000"
      },
      "nonce": 785,
      "data": "0x",
      "r": "0x7a42252c1d343d4baf30369514fbe149256e0dd049c354e81658005f91f160be",
      "s": "0x172128b968f5cdad7e72dabcab549c26a6da3045880179c25038ed42cac448d5",
      "v": 28,
      "creates": null,
      "raw": "0xf86f820311850d93a279b4825208940cdf45a0f7a9bfd8777c2b6311a6614345ab9d9d891b0b0d21ecc09f4000801ca07a42252c1d343d4baf30369514fbe149256e0dd049c354e81658005f91f160bea0172128b968f5cdad7e72dabcab549c26a6da3045880179c25038ed42cac448d5",
      "networkId": 0,
      "chainId": 0
    },
    {
      "hash": "0x973ae31f203891a2d1ff1c2b9562f80899d168ce0baefd364939aa74b231a8ef",
      "blockHash": "0x14d0f6c390e611f4c71fa0eda313af0dc5ce9d8ec812a74c6cd3690346b926ad",
      "blockNumber": 90948,
      "transactionIndex": 2,
      "confirmations": null,
      "from": "0x2910543Af39abA0Cd09dBb2D50200b3E800A63D2",
      "gasPrice": {
        "_hex": "0xd93a279b4"
      },
      "gasLimit": {
        "_hex": "0x5208"
      },
      "to": "0x198D56231387bCe73779303B332E48A8b29aAe06",
      "value": {
        "_hex": "0x1af130ef4ec1438000"
      },
      "nonce": 786,
      "data": "0x",
      "r": "0xa9e023125aed899e23e62ec55cf4227e9f27203090c54fed02c1848ad4518d0d",
      "s": "0x1618cbddee8cc9ce84a75e76b5952536a4f30ca13b315cca04cbc06e7f20410a",
      "v": 28,
      "creates": null,
      "raw": "0xf86f820312850d93a279b482520894198d56231387bce73779303b332e48a8b29aae06891af130ef4ec1438000801ca0a9e023125aed899e23e62ec55cf4227e9f27203090c54fed02c1848ad4518d0da01618cbddee8cc9ce84a75e76b5952536a4f30ca13b315cca04cbc06e7f20410a",
      "networkId": 0,
      "chainId": 0
    },
    {
      "hash": "0xf832c49e8e76578c62389c64a74e6fa3b3515a91bbb511c3e4fb4e3e1232f510",
      "blockHash": "0x14d0f6c390e611f4c71fa0eda313af0dc5ce9d8ec812a74c6cd3690346b926ad",
      "blockNumber": 90948,
      "transactionIndex": 3,
      "confirmations": null,
      "from": "0x2910543Af39abA0Cd09dBb2D50200b3E800A63D2",
      "gasPrice": {
        "_hex": "0xd93a279b4"
      },
      "gasLimit": {
        "_hex": "0x5208"
      },
      "to": "0x3F17fFb99f0518a3d0ff3fAEd1F55e93336A33B0",
      "value": {
        "_hex": "0xdcef33a6f838000"
      },
      "nonce": 787,
      "data": "0x",
      "r": "0x649090fcc1478988bdf102a93f52f396c4cf8dc9f8adf8001aed44bf79941e9d",
      "s": "0x50496c6f03b4bfd5389bf7c3c7cf4c4b5d574ec8ea7fd8056752867882ea99d6",
      "v": 28,
      "creates": null,
      "raw": "0xf86e820313850d93a279b4825208943f17ffb99f0518a3d0ff3faed1f55e93336a33b0880dcef33a6f838000801ca0649090fcc1478988bdf102a93f52f396c4cf8dc9f8adf8001aed44bf79941e9da050496c6f03b4bfd5389bf7c3c7cf4c4b5d574ec8ea7fd8056752867882ea99d6",
      "networkId": 0,
      "chainId": 0
    },
    {
      "hash": "0x3dda2555f44e89ee63c0fad69f18a85ed61d04bb5f1b35df96f4583539f914c6",
      "blockHash": "0x14d0f6c390e611f4c71fa0eda313af0dc5ce9d8ec812a74c6cd3690346b926ad",
      "blockNumber": 90948,
      "transactionIndex": 4,
      "confirmations": null,
      "from": "0x2910543Af39abA0Cd09dBb2D50200b3E800A63D2",
      "gasPrice": {
        "_hex": "0xd93a279b4"
      },
      "gasLimit": {
        "_hex": "0x5208"
      },
      "to": "0x09D6b0F8DE057aC9116C0f321eA4017444de0801",
      "value": {
        "_hex": "0x51509cc12f960f8000"
      },
      "nonce": 788,
      "data": "0x",
      "r": "0xea62449fb9cda3f3d0baf55540e0a3c5ab98b454ec5833972a018bb9d9df4af7",
      "s": "0x6af1aeecf6c2eec7a50267ad8c230921d82ab662afd711dd1e5dd0ce397db204",
      "v": 28,
      "creates": null,
      "raw": "0xf86f820314850d93a279b48252089409d6b0f8de057ac9116c0f321ea4017444de08018951509cc12f960f8000801ca0ea62449fb9cda3f3d0baf55540e0a3c5ab98b454ec5833972a018bb9d9df4af7a06af1aeecf6c2eec7a50267ad8c230921d82ab662afd711dd1e5dd0ce397db204",
      "networkId": 0,
      "chainId": 0
    },
    {
      "hash": "0xd4b41f77f44bd23f60bce97eb0b67803b1733f1e5617addd41f808feb9638888",
      "blockHash": "0x14d0f6c390e611f4c71fa0eda313af0dc5ce9d8ec812a74c6cd3690346b926ad",
      "blockNumber": 90948,
      "transactionIndex": 5,
      "confirmations": null,
      "from": "0x2910543Af39abA0Cd09dBb2D50200b3E800A63D2",
      "gasPrice": {
        "_hex": "0xd93a279b4"
      },
      "gasLimit": {
        "_hex": "0x5208"
      },
      "to": "0x54A6ae0918896330899e0999038D20D94031c6fe",
      "value": {
        "_hex": "0x1e5a73716aacb8000"
      },
      "nonce": 789,
      "data": "0x",
      "r": "0x12b6813ea6e068803b06a800d4a335104ee8055c8d2b959a866b522bd9d8a70e",
      "s": "0x08c9f31aa51eac898eae9f22b60b250e01dae6e6b1d63eee5ec0e672a615bae0",
      "v": 28,
      "creates": null,
      "raw": "0xf86f820315850d93a279b48252089454a6ae0918896330899e0999038d20d94031c6fe8901e5a73716aacb8000801ca012b6813ea6e068803b06a800d4a335104ee8055c8d2b959a866b522bd9d8a70ea008c9f31aa51eac898eae9f22b60b250e01dae6e6b1d63eee5ec0e672a615bae0",
      "networkId": 0,
      "chainId": 0
    },
    {
      "hash": "0x02e3c2dfd4b681af7c232e61ffa1c534834edcf8f85d0dfb8216754634e8ee9e",
      "blockHash": "0x14d0f6c390e611f4c71fa0eda313af0dc5ce9d8ec812a74c6cd3690346b926ad",
      "blockNumber": 90948,
      "transactionIndex": 6,
      "confirmations": null,
      "from": "0x2910543Af39abA0Cd09dBb2D50200b3E800A63D2",
      "gasPrice": {
        "_hex": "0xd93a279b4"
      },
      "gasLimit": {
        "_hex": "0x5208"
      },
      "to": "0x5a0f0935E8E5591B2f9f2d55f29C626B50292088",
      "value": {
        "_hex": "0x56bb59ab42b2f8000"
      },
      "nonce": 790,
      "data": "0x",
      "r": "0xf3aa3b3611c8ff97bff52976a446787eaf771a3cba18484cca3fd684617c9402",
      "s": "0x7901b3e8bc7e2a9814f0a52c3517a99f9646c7009cb46aeac74dfbe2574e03a8",
      "v": 27,
      "creates": null,
      "raw": "0xf86f820316850d93a279b4825208945a0f0935e8e5591b2f9f2d55f29c626b5029208889056bb59ab42b2f8000801ba0f3aa3b3611c8ff97bff52976a446787eaf771a3cba18484cca3fd684617c9402a07901b3e8bc7e2a9814f0a52c3517a99f9646c7009cb46aeac74dfbe2574e03a8",
      "networkId": 0,
      "chainId": 0
    },
    {
      "hash": "0xfa01d976128d39351048f959ad433da304d7289070ccc381ae9941c01b9005ce",
      "blockHash": "0x14d0f6c390e611f4c71fa0eda313af0dc5ce9d8ec812a74c6cd3690346b926ad",
      "blockNumber": 90948,
      "transactionIndex": 7,
      "confirmations": null,
      "from": "0x5e0320BB4D82AB8Bb5d7291f2C67D1c99aBb3C05",
      "gasPrice": {
        "_hex": "0xd4e87b89a"
      },
      "gasLimit": {
        "_hex": "0x15f90"
      },
      "to": "0xc4A23A06e6642Fa00989b89575f0b9f783259159",
      "value": {
        "_hex": "0x0"
      },
      "nonce": 11,
      "data": "0x90b98a110000000000000000000000005c021a7942a469b1c8db66539efbcffa4456fae9000000000000000000000000000000000000000000000000000000000000044c",
      "r": "0x65a8608f6e9931f90f13529cf4411e896c9ca0ea0745a36f83ae6a26f4777c55",
      "s": "0x2ebbc6aa8235539bf8aaed5693d7e1e79e523957f368d3711fe541661d623949",
      "v": 27,
      "creates": null,
      "raw": "0xf8aa0b850d4e87b89a83015f9094c4a23a06e6642fa00989b89575f0b9f78325915980b84490b98a110000000000000000000000005c021a7942a469b1c8db66539efbcffa4456fae9000000000000000000000000000000000000000000000000000000000000044c1ba065a8608f6e9931f90f13529cf4411e896c9ca0ea0745a36f83ae6a26f4777c55a02ebbc6aa8235539bf8aaed5693d7e1e79e523957f368d3711fe541661d623949",
      "networkId": 0,
      "chainId": 0
    }
  ]
}