{
  "hash": "0xb5e13d2ccac88b7d27d758a241a482f268ae75e21f6fa816dc18099a40b38e66",
  "parentHash": "0x81ebd9ca834347fb0665a1baf48c2ef293e7c851013520980834e2b2c83ae828",
  "number": 63534,
  "timestamp": 1439206071,
  "nonce": "0xf9df27a30a541642",
  "difficulty": 1836932374990,
  "gasLimit": {
    "_hex": "0x2fefd8"
  },
  "gasUsed": {
    "_hex": "0x5208"
  },
  "miner": "0x458F183347F45a4001807728A89F31E9Da9D4A58",
  "extraData": "0x",
  "transactions": [
    {
      "hash": "0xa6eb94e9b12c49da82fe48175227cb84a69d76c9f9f26a24ef1e3fb7b1f634f5",
      "blockHash": "0xb5e13d2ccac88b7d27d758a241a482f268ae75e21f6fa816dc18099a40b38e66",
      "blockNumber": 63534,
      "transactionIndex": 0,
      "confirmations": null,
      "from": "0xEF247E639d49461D25F57e9362CadE3120910Ce0",
      "gasPrice": {
        "_hex": "0xd8d47ff59"
      },
      "gasLimit": {
        "_hex": "0x15f90"
      },
      "to": "0xF87481A262E993a75F791E7859E71BaC36A606Eb",
      "value": {
        "_hex": "0xe873f44133cb00000"
      },
      "nonce": 10,
      "data": "0x",
      "r": "0x13ab03f7961c88d0bad01b59a4d18eafb360004f6bd4b90cb897bbedeb51e7f7",
      "s": "0x66494573b2e7b914d53c354a51ca9eec08ebf240f7e4456ac266db54e5e0d5fd",
      "v": 28,
      "creates": null,
      "raw": "0xf86e0a850d8d47ff5983015f9094f87481a262e993a75f791e7859e71bac36a606eb890e873f44133cb00000801ca013ab03f7961c88d0bad01b59a4d18eafb360004f6bd4b90cb897bbedeb51e7f7a066494573b2e7b914d53c354a51ca9eec08ebf240f7e4456ac266db54e5e0d5fd",
      "networkId": 0,
      "chainId": 0
    }
  ]
}