{
  "hash": "0x9245aae35e73a844ca05b5754553a1ba7d247607f24b1cbaea973cfea5f836b8",
  "parentHash": "0x7370cbabf919e9a570a9fdc6ac557ce95469033de1d4fbc16c5c937a9641450d",
  "number": 60161,
  "timestamp": 1439150402,
  "nonce": "0xf7a256be3845788a",
  "difficulty": 1740721813871,
  "gasLimit": {
    "_hex": "0x2fefd8"
  },
  "gasUsed": {
    "_hex": "0x5208"
  },
  "miner": "0xbb7B8287f3F0a933474a79eAe42CBCa977791171",
  "extraData": "0x476574682f4c5649562f76312e302e312f6c696e75782f676f312e342e32",
  "transactions": [
    {
      "hash": "0x225afdda6250bf7b9771198d5795fd555d96233be3e3f1254d5cb4d982733159",
      "blockHash": "0x9245aae35e73a844ca05b5754553a1ba7d247607f24b1cbaea973cfea5f836b8",
      "blockNumber": 60161,
      "transactionIndex": 0,
      "confirmations": null,
      "from": "0x2910543Af39abA0Cd09dBb2D50200b3E800A63D2",
      "gasPrice": {
        "_hex": "0xd9bf53982"
      },
      "gasLimit": {
        "_hex": "0x5208"
      },
      "to": "0x344BBD5023F03dA0BDFe384c65b4A5d62B0b2Bca",
      "value": {
        "_hex": "0x11c37937e08000"
      },
      "nonce": 6,
      "data": "0x",
      "r": "0x92b076053975d1d568bfd3e49d9f301a63596d46ee7c2ed7f187d99c19167b4b",
      "s": "0x61023ec65777a02d3933c5bc2ad7ac2bc414a99065dd4c94e80ca75fd8590492",
      "v": 27,
      "creates": null,
      "raw": "0xf86b06850d9bf5398282520894344bbd5023f03da0bdfe384c65b4a5d62b0b2bca8711c37937e08000801ba092b076053975d1d568bfd3e49d9f301a63596d46ee7c2ed7f187d99c19167b4ba061023ec65777a02d3933c5bc2ad7ac2bc414a99065dd4c94e80ca75fd8590492",
      "networkId": 0,
      "chainId": 0
    }
  ]
}