{
  "hash": "0x0c5a04bcb92759244c77df1747a5cd518202d4bf619c75ae5b0ca2917954b214",
  "parentHash": "0x77f64148b67a3adba61b581e80392a4d87abe5af484b15ed2fdd7d76a0d4af5a",
  "number": 90008,
  "timestamp": 1439632515,
  "nonce": "0x80a705be6d564ef2",
  "difficulty": 3351584707440,
  "gasLimit": {
    "_hex": "0x2fefd8"
  },
  "gasUsed": {
    "_hex": "0x5208"
  },
  "miner": "0xe6A7a1d47ff21B6321162AEA7C6CB457D5476Bca",
  "extraData": "0x476574682f76312e302e312d38326566323666362f6c696e75782f676f312e34",
  "transactions": [
    {
      "hash": "0x0bc6a89445647242d3b8c2ee7fb849acfa48bae175d130c045eed18242668a68",
      "blockHash": "0x0c5a04bcb92759244c77df1747a5cd518202d4bf619c75ae5b0ca2917954b214",
      "blockNumber": 90008,
      "transactionIndex": 0,
      "confirmations": null,
      "from": "0xc2E9e042B88164B5408bd895Df7DdaD491c6321E",
      "gasPrice": {
        "_hex": "0xd6064f4aa"
      },
      "gasLimit": {
        "_hex": "0x15f90"
      },
      "to": "0xa114c802ef29776f05f9c6925cE915232e8ae102",
      "value": {
        "_hex": "0x8ac7230489e80000"
      },
      "nonce": 16,
      "data": "0x",
      "r": "0x21a4e395d41ff02ed9dbbda8af5e73a355df9425b0122b6c249f7fd16cd380a2",
      "s": "0x2c2fd45524daec53252a808d88f2f206f9aa88dd05a1eaa69bf98a4edfe7f4a0",
      "v": 28,
      "creates": null,
      "raw": "0xf86d10850d6064f4aa83015f9094a114c802ef29776f05f9c6925ce915232e8ae102888ac7230489e80000801ca021a4e395d41ff02ed9dbbda8af5e73a355df9425b0122b6c249f7fd16cd380a2a02c2fd45524daec53252a808d88f2f206f9aa88dd05a1eaa69bf98a4edfe7f4a0",
      "networkId": 0,
      "chainId": 0
    }
  ]
}