{
  "hash": "0xd9b3033a2eeb03027aa1a34a40f3d2bbb5a57fe9ffb4921a8d56480bd3185ded",
  "parentHash": "0xf62d3d9736c834ff7eb3d99666be8eb4aa2b5fc732727a58fe242d5d93d95ffa",
  "number": 56133,
  "timestamp": 1439082425,
  "nonce": "0xa344a50b837b0ebb",
  "difficulty": 1642445489337,
  "gasLimit": {
    "_hex": "0x2fefd8"
  },
  "gasUsed": {
    "_hex": "0xa410"
  },
  "miner": "0x9746c7e1ef2bd21FF3997fa467593a89cb852BD0",
  "extraData": "0x476574682f76312e302e312f77696e646f77732f676f312e342e32",
  "transactions": [
    {
      "hash": "0x6aaeae05fc47cd22dd937703dcb1033588f3de7b4215dadc8c84971aa0b2a886",
      "blockHash": "0xd9b3033a2eeb03027aa1a34a40f3d2bbb5a57fe9ffb4921a8d56480bd3185ded",
      "blockNumber": 56133,
      "transactionIndex": 0,
      "confirmations": null,
      "from": "0xCDfD8217339725d7ebac11A63655F265eFF1CC3d",
      "gasPrice": {
        "_hex": "0x114c93b7982"
      },
      "gasLimit": {
        "_hex": "0x5208"
      },
      "to": "0xb6Ad95318E9C1727be55974BBBBAcf7196923E4c",
      "value": {
        "_hex": "0x53444835ec580000"
      },
      "nonce": 4,
      "data": "0x",
      "r": "0xcb2e1bfd1714c4311cdd1fe0ff942b099d7f07480ebbe836479693fad970f161",
      "s": "0x4a264f7fbceacd0db83c256f100fcacef60bef9622df3304a87c7e2a1fc0911e",
      "v": 27,
      "creates": null,
      "raw": "0xf86d04860114c93b798282520894b6ad95318e9c1727be55974bbbbacf7196923e4c8853444835ec580000801ba0cb2e1bfd1714c4311cdd1fe0ff942b099d7f07480ebbe836479693fad970f161a04a264f7fbceacd0db83c256f100fcacef60bef9622df3304a87c7e2a1fc0911e",
      "networkId": 0,
      "chainId": 0
    },
    {
      "hash": "0xbf4de93225cf87aed75c54cbe3ddf9d54150bd67ffd3b6b478e8921ba755dc54",
      "blockHash": "0xd9b3033a2eeb03027aa1a34a40f3d2bbb5a57fe9ffb4921a8d56480bd3185ded",
      "blockNumber": 56133,
      "transactionIndex": 1,
      "confirmations": null,
      "from": "0x32Be343B94f860124dC4fEe278FDCBD38C102D88",
      "gasPrice": {
        "_hex": "0xcd9746158"
      },
      "gasLimit": {
        "_hex": "0x5208"
      },
      "to": "0x58c444CC2658bB485F7985d5889b1d5857614F31",
      "value": {
        "_hex": "0xdb614c3ee160000"
      },
      "nonce": 81,
      "data": "0x",
      "r": "0x05a610e987cef173b68ffe022f596d3f900b0e6eec50bce43d4b381baac27c0f",
      "s": "0x4891db40eff1832c1559fb5cbcf56d1097fb90ad6f34b7d964277fb6be14843e",
      "v": 27,
      "creates": null,
      "raw": "0xf86c51850cd97461588252089458c444cc2658bb485f7985d5889b1d5857614f31880db614c3ee160000801ba005a610e987cef173b68ffe022f596d3f900b0e6eec50bce43d4b381baac27c0fa04891db40eff1832c1559fb5cbcf56d1097fb90ad6f34b7d964277fb6be14843e",
      "networkId": 0,
      "chainId": 0
    }
  ]
}