{
  "hash": "0x6758d6746001b23d27755447ab7a4b47a645cc2b48d5fac9f397420ddcea74ed",
  "parentHash": "0x3410d3b1c33bf6678e9aa9fe600e1a941021b600b285cb58c73ff9e00482bbdb",
  "number": 46867,
  "timestamp": 1438930708,
  "nonce": "0xf8a688221df28e5d",
  "difficulty": 1455312354891,
  "gasLimit": {
    "_hex": "0x80d3"
  },
  "gasUsed": {
    "_hex": "0x5208"
  },
  "miner": "0xa50ec0D39fa913E62f1Bae7074E6F36caA71855b",
  "extraData": "0x476574682f76312e302e302f6c696e75782f676f312e342e32",
  "transactions": [
    {
      "hash": "0x587e6540b87f921eb6cc22ac02dbbe26367af512a160fc2d6ee4172c5ff9df52",
      "blockHash": "0x6758d6746001b23d27755447ab7a4b47a645cc2b48d5fac9f397420ddcea74ed",
      "blockNumber": 46867,
      "transactionIndex": 0,
      "confirmations": null,
      "from": "0x004BfBE1546BC6c65B5C7EAA55304B38bbfEC6D3",
      "gasPrice": {
        "_hex": "0xd641f460d"
      },
      "gasLimit": {
        "_hex": "0x5208"
      },
      "to": "0xb583f9403De6C5B2c83D7e2DE9928331176071b8",
      "value": {
        "_hex": "0x6c64a30031e98e0000"
      },
      "nonce": 0,
      "data": "0x",
      "r": "0xbd3a688c69a6fb1a456d5101c5a6309bb9f52b587d55c92a544361aa44389c06",
      "s": "0x21d9404f262a04074a64117301c6e628fecde18e128e53e1539a8eae5757d6bf",
      "v": 28,
      "creates": null,
      "raw": "0xf86d80850d641f460d82520894b583f9403de6c5b2c83d7e2de9928331176071b8896c64a30031e98e0000801ca0bd3a688c69a6fb1a456d5101c5a6309bb9f52b587d55c92a544361aa44389c06a021d9404f262a04074a64117301c6e628fecde18e128e53e1539a8eae5757d6bf",
      "networkId": 0,
      "chainId": 0
    }
  ]
}