{
  "hash": "0xecb9f89b49c7c71a5c20453e8dc23f18e672e15751404e63e1b3e3cc156428ef",
  "parentHash": "0x59fbe3d09e65a8ffb3a45f9b54042c17699e95e56efb5943c0207ecabb0192b8",
  "number": 84363,
  "timestamp": 1439548670,
  "nonce": "0x8d76d2a527a943e8",
  "difficulty": 2542761580511,
  "gasLimit": {
    "_hex": "0x2fefd8"
  },
  "gasUsed": {
    "_hex": "0x5208"
  },
  "miner": "0x0eDEd3DA479d0beF8eeC92A76644D3f4E3C177f7",
  "extraData": "0x476574682f76312e302e312f6c696e75782f676f312e342e32",
  "transactions": [
    {
      "hash": "0xebce9ab6e0ff6d074fea4c066c8d3922985dbaf6a0bb69016aa70e1bb4f47ec8",
      "blockHash": "0xecb9f89b49c7c71a5c20453e8dc23f18e672e15751404e63e1b3e3cc156428ef",
      "blockNumber": 84363,
      "transactionIndex": 0,
      "confirmations": null,
      "from": "0xc15fa6D616245a5c7B7D75A6dFDcA10C0250BD2B",
      "gasPrice": {
        "_hex": "0xd6c36ab0a"
      },
      "gasLimit": {
        "_hex": "0x15f90"
      },
      "to": "0xdeE4977F74E6Aef6D627191c9A45D2627e331150",
      "value": {
        "_hex": "0xd02ab486cedc0000"
      },
      "nonce": 2,
      "data": "0x",
      "r": "0x12e5090cfa965958febc8ac46cf29b0bcbaf21308feff88d8e13aced37a706a2",
      "s": "0x25a7cad4c460a8d0d9edd2838574f635f1f9e869e088b2639a2f768ac57b08e5",
      "v": 27,
      "creates": null,
      "raw": "0xf86d02850d6c36ab0a83015f9094dee4977f74e6aef6d627191c9a45d2627e33115088d02ab486cedc0000801ba012e5090cfa965958febc8ac46cf29b0bcbaf21308feff88d8e13aced37a706a2a025a7cad4c460a8d0d9edd2838574f635f1f9e869e088b2639a2f768ac57b08e5",
      "networkId": 0,
      "chainId": 0
    }
  ]
}