{
  "hash": "0x086781cc782b2218be5a277d4c02de7ee83c4e7294611ab14771c06f2e3e0e5e",
  "parentHash": "0x8585ed75cdc9afadd7a24a76493a4444391bf5827e78ca3940724f0a70070b45",
  "number": 81163,
  "timestamp": 1439497245,
  "nonce": "0xc20a194c711dfdad",
  "difficulty": 2441509677759,
  "gasLimit": {
    "_hex": "0x2fefd8"
  },
  "gasUsed": {
    "_hex": "0x5208"
  },
  "miner": "0xF11940EA05aA9CC3F13aCF5C5cA6EDCF312E3Aec",
  "extraData": "0x476574682f76312e302e312f77696e646f77732f676f312e342e32",
  "transactions": [
    {
      "hash": "0xcb5c3c5c1fe1dac81940176fa067de17645a67bd2452d7a323450e4b79103a22",
      "blockHash": "0x086781cc782b2218be5a277d4c02de7ee83c4e7294611ab14771c06f2e3e0e5e",
      "blockNumber": 81163,
      "transactionIndex": 0,
      "confirmations": null,
      "from": "0x5ec36DCeA7A8bAAC535C0e739d9F6300c428ca9f",
      "gasPrice": {
        "_hex": "0xd20d45736"
      },
      "gasLimit": {
        "_hex": "0x5208"
      },
      "to": "0x32Be343B94f860124dC4fEe278FDCBD38C102D88",
      "value": {
        "_hex": "0x242e04dc949a740000"
      },
      "nonce": 1,
      "data": "0x",
      "r": "0x223a8b624f48b57e287c50c425b830db724c930f4c4276dcff79dab9db933d0f",
      "s": "0x430ced7bb52f5437edb52af6e1c8e70a628a5c016312d19ee42196710e242cf6",
      "v": 27,
      "creates": null,
      "raw": "0xf86d01850d20d457368252089432be343b94f860124dc4fee278fdcbd38c102d8889242e04dc949a740000801ba0223a8b624f48b57e287c50c425b830db724c930f4c4276dcff79dab9db933d0fa0430ced7bb52f5437edb52af6e1c8e70a628a5c016312d19ee42196710e242cf6",
      "networkId": 0,
      "chainId": 0
    }
  ]
}