{
  "hash": "0x7fc831b2c73e6f05c2fdcd7a3c58781a77f95ba837d7aa24f3e7dd68f67e6909",
  "parentHash": "0xa96e679309dd59398347c517ceaad722b860300319930dc1223383dd281783b3",
  "number": 121878,
  "timestamp": 1440184304,
  "nonce": "0x1d9642aa58b20b11",
  "difficulty": 4471063461151,
  "gasLimit": {
    "_hex": "0x2fefd8"
  },
  "gasUsed": {
    "_hex": "0xb3718"
  },
  "miner": "0xe6A7a1d47ff21B6321162AEA7C6CB457D5476Bca",
  "extraData": "0xd783010002844765746887676f312e342e32856c696e7578",
  "transactions": [
    {
      "hash": "0xb9622a47b070dcacb38ca6efbeec1581f92821cbc7a6f8e6750e2cff46eb0c17",
      "blockHash": "0x7fc831b2c73e6f05c2fdcd7a3c58781a77f95ba837d7aa24f3e7dd68f67e6909",
      "blockNumber": 121878,
      "transactionIndex": 0,
      "confirmations": null,
      "from": "0xe6A7a1d47ff21B6321162AEA7C6CB457D5476Bca",
      "gasPrice": {
        "_hex": "0xba43b7400"
      },
      "gasLimit": {
        "_hex": "0x55f0"
      },
      "to": "0x4CD33268dF93C6b4F6b3D504009EAE965Afe272d",
      "value": {
        "_hex": "0x40e0ccc4fc94f660"
      },
      "nonce": 6599,
      "data": "0x",
      "r": "0xaa91cf2daa08fbba3ffae6c0ecd438550b4dd1fc38e01197e8a42fe42efd75d9",
      "s": "0x6d1e94d626d7adf55dd318f512e87f5bc2433412faf803f48ab92cd0577745fb",
      "v": 28,
      "creates": null,
      "raw": "0xf86e8219c7850ba43b74008255f0944cd33268df93c6b4f6b3d504009eae965afe272d8840e0ccc4fc94f660801ca0aa91cf2daa08fbba3ffae6c0ecd438550b4dd1fc38e01197e8a42fe42efd75d9a06d1e94d626d7adf55dd318f512e87f5bc2433412faf803f48ab92cd0577745fb",
      "networkId": 0,
      "chainId": 0
    },
    {
      "hash": "0x8a38240a24b206af0f3de4ac1dd5247605623a64b952a6cbd4b3463b22061fea",
      "blockHash": "0x7fc831b2c73e6f05c2fdcd7a3c58781a77f95ba837d7aa24f3e7dd68f67e6909",
      "blockNumber": 121878,
      "transactionIndex": 1,
      "confirmations": null,
      "from": "0xe6A7a1d47ff21B6321162AEA7C6CB457D5476Bca",
      "gasPrice": {
        "_hex": "0xba43b7400"
      },
      "gasLimit": {
        "_hex": "0x55f0"
      },
      "to": "0xeD3Fe86896534C24D9F91232faE34b78DFf3c1f4",
      "value": {
        "_hex": "0x418cba155534a240"
      },
      "nonce": 6600,
      "data": "0x",
      "r": "0x25ce96c9e592cdac86f0905a82b80ccb3024787ae2011b5a5c8637d1f6424491",
      "s": "0x48f2c808346a52a2b54b01997eb22606c79a35d7299e1cf7d7486f3a948d3d6e",
      "v": 27,
      "creates": null,
      "raw": "0xf86e8219c8850ba43b74008255f094ed3fe86896534c24d9f91232fae34b78dff3c1f488418cba155534a240801ba025ce96c9e592cdac86f0905a82b80ccb3024787ae2011b5a5c8637d1f6424491a048f2c808346a52a2b54b01997eb22606c79a35d7299e1cf7d7486f3a948d3d6e",
      "networkId": 0,
      "chainId": 0
    },
    {
      "hash": "0xfec846937518782408c7b1e118e0651cce60fa00444a93a71f22ad70e6188322",
      "blockHash": "0x7fc831b2c73e6f05c2fdcd7a3c58781a77f95ba837d7aa24f3e7dd68f67e6909",
      "blockNumber": 121878,
      "transactionIndex": 2,
      "confirmations": null,
      "from": "0xe6A7a1d47ff21B6321162AEA7C6CB457D5476Bca",
      "gasPrice": {
        "_hex": "0xba43b7400"
      },
      "gasLimit": {
        "_hex": "0x55f0"
      },
      "to": "0x5BeBc02e4CDF3e92B5a2947CfD1430c4EBBa4039",
      "value": {
        "_hex": "0x427e8da874816670"
      },
      "nonce": 6601,
      "data": "0x",
      "r": "0x1c68ad9206ad7c0af09b10bbb685c9f31e253d7adaec744128e8878a67c10dfc",
      "s": "0x46c89bb720c49d7d611972626c16289b77a10e852d027133c2ed2e308b236e0b",
      "v": 27,
      "creates": null,
      "raw": "0xf86e8219c9850ba43b74008255f0945bebc02e4cdf3e92b5a2947cfd1430c4ebba403988427e8da874816670801ba01c68ad9206ad7c0af09b10bbb685c9f31e253d7adaec744128e8878a67c10dfca046c89bb720c49d7d611972626c16289b77a10e852d027133c2ed2e308b236e0b",
      "networkId": 0,
      "chainId": 0
    },
    {
      "hash": "0xcfd3116f3aa5e71d4c4450785748dfb1da2b7f778d706c53fb69f31d55d57ff7",
      "blockHash": "0x7fc831b2c73e6f05c2fdcd7a3c58781a77f95ba837d7aa24f3e7dd68f67e6909",
      "blockNumber": 121878,
      "transactionIndex": 3,
      "confirmations": null,
      "from": "0xe6A7a1d47ff21B6321162AEA7C6CB457D5476Bca",
      "gasPrice": {
        "_hex": "0xba43b7400"
      },
      "gasLimit": {
        "_hex": "0x55f0"
      },
      "to": "0xc7Dda420b6e858441b9Ea42B762dF14C59552fbb",
      "value": {
        "_hex": "0x439ea4ff50590778"
      },
      "nonce": 6602,
      "data": "0x",
      "r": "0x64fc376c2ad03f2ca86ad2045ff0983b75417d9acceaa8649a26c298c64340a1",
      "s": "0x61b50749e78ea2435a029f81f8fd0a52ed39285231276655a0d8bd77ea994570",
      "v": 28,
      "creates": null,
      "raw": "0xf86e8219ca850ba43b74008255f094c7dda420b6e858441b9ea42b762df14c59552fbb88439ea4ff50590778801ca064fc376c2ad03f2ca86ad2045ff0983b75417d9acceaa8649a26c298c64340a1a061b50749e78ea2435a029f81f8fd0a52ed39285231276655a0d8bd77ea994570",
      "networkId": 0,
      "chainId": 0
    },
    {
      "hash": "0xceab7d59deb1fe42a3c50f4b2f858b2dd9bce002b9ca8be36112665c55c2a09d",
      "blockHash": "0x7fc831b2c73e6f05c2fdcd7a3c58781a77f95ba837d7aa24f3e7dd68f67e6909",
      "blockNumber": 121878,
      "transactionIndex": 4,
      "confirmations": null,
      "from": "0xe6A7a1d47ff21B6321162AEA7C6CB457D5476Bca",
      "gasPrice": {
        "_hex": "0xba43b7400"
      },
      "gasLimit": {
        "_hex": "0x55f0"
      },
      "to": "0x4bA6C728e6251DC89C317f7dbCA89D4136C0baB0",
      "value": {
        "_hex": "0x4467b04321c51de8"
      },
      "nonce": 6603,
      "data": "0x",
      "r": "0x1c89878e98755b3bb9d6f45acd99f8748185a9721ca13b9d7b00feb25461d0be",
      "s": "0x50450853674a8e1b24d8fad98550952663bd8f71c00be8f3eea2d89d16f141c1",
      "v": 27,
      "creates": null,
      "raw": "0xf86e8219cb850ba43b74008255f0944ba6c728e6251dc89c317f7dbca89d4136c0bab0884467b04321c51de8801ba01c89878e98755b3bb9d6f45acd99f8748185a9721ca13b9d7b00feb25461d0bea050450853674a8e1b24d8fad98550952663bd8f71c00be8f3eea2d89d16f141c1",
      "networkId": 0,
      "chainId": 0
    },
    {
      "hash": "0x8897eba85d97091db5ad35ab71fdc1a1bec7652a3d6e1facd6cdd65d5958fc6e",
      "blockHash": "0x7fc831b2c73e6f05c2fdcd7a3c58781a77f95ba837d7aa24f3e7dd68f67e6909",
      "blockNumber": 121878,
      "transactionIndex": 5,
      "confirmations": null,
      "from": "0xe6A7a1d47ff21B6321162AEA7C6CB457D5476Bca",
      "gasPrice": {
        "_hex": "0xba43b7400"
      },
      "gasLimit": {
        "_hex": "0x55f0"
      },
      "to": "0x27e806e70622d2864e1B1f4426D72FFb0457C83a",
      "value": {
        "_hex": "0x45e91703e91d59b0"
      },
      "nonce": 6604,
      "data": "0x",
      "r": "0x5fc32b1ec73ed1023056f6d09b8d1f644cbca57e477efafc3d8e056a099e6205",
      "s": "0x5a90f00d3f967bb218a4236d731da42347d0b7d9720f19846a1956f11db6dfdc",
      "v": 27,
      "creates": null,
      "raw": "0xf86e8219cc850ba43b74008255f09427e806e70622d2864e1b1f4426d72ffb0457c83a8845e91703e91d59b0801ba05fc32b1ec73ed1023056f6d09b8d1f644cbca57e477efafc3d8e056a099e6205a05a90f00d3f967bb218a4236d731da42347d0b7d9720f19846a1956f11db6dfdc",
      "networkId": 0,
      "chainId": 0
    },
    {
      "hash": "0x6196c4fb71ce571b4160db6188f6015ab49f8e2f93c725f363f2a734363fe6ed",
      "blockHash": "0x7fc831b2c73e6f05c2fdcd7a3c58781a77f95ba837d7aa24f3e7dd68f67e6909",
      "blockNumber": 121878,
      "transactionIndex": 6,
      "confirmations": null,
      "from": "0xe6A7a1d47ff21B6321162AEA7C6CB457D5476Bca",
      "gasPrice": {
        "_hex": "0xba43b7400"
      },
      "gasLimit": {
        "_hex": "0x55f0"
      },
      "to": "0xaC49eeb6a55aF554D86d37b4A4eA7940010866E1",
      "value": {
        "_hex": "0x4641403f0e40f6e0"
      },
      "nonce": 6605,
      "data": "0x",
      "r": "0xc36db8ec57f90624bf98c50273332e35cb1ce250e0e54cf153e3074e46f4c318",
      "s": "0x1864c4fca223de0afe05f63d32bca8cdbaa0d64ffead6e5b67c8b6f0a2caea42",
      "v": 27,
      "creates": null,
      "raw": "0xf86e8219cd850ba43b74008255f094ac49eeb6a55af554d86d37b4a4ea7940010866e1884641403f0e40f6e0801ba0c36db8ec57f90624bf98c50273332e35cb1ce250e0e54cf153e3074e46f4c318a01864c4fca223de0afe05f63d32bca8cdbaa0d64ffead6e5b67c8b6f0a2caea42",
      "networkId": 0,
      "chainId": 0
    },
    {
      "hash": "0x8425447257bb87c57d3dd10709e49e37d3d4b4920e5e11af52c04b71c0a31cbc",
      "blockHash": "0x7fc831b2c73e6f05c2fdcd7a3c58781a77f95ba837d7aa24f3e7dd68f67e6909",
      "blockNumber": 121878,
      "transactionIndex": 7,
      "confirmations": null,
      "from": "0xe6A7a1d47ff21B6321162AEA7C6CB457D5476Bca",
      "gasPrice": {
        "_hex": "0xba43b7400"
      },
      "gasLimit": {
        "_hex": "0x55f0"
      },
      "to": "0x2637e8641e6ef9C8951adf3E0c7058e76D766cbA",
      "value": {
        "_hex": "0x46f0871d58f7ff10"
      },
      "nonce": 6606,
      "data": "0x",
      "r": "0x65cc61a3b0fc619cb94721d7327b580764762c9d0b672a4850d29e50dce00ef2",
      "s": "0x53c592f1d2d0f92bc71637146687df99d77a7d5d1ff06222f6d9314e3437d43d",
      "v": 27,
      "creates": null,
      "raw": "0xf86e8219ce850ba43b74008255f0942637e8641e6ef9c8951adf3e0c7058e76d766cba8846f0871d58f7ff10801ba065cc61a3b0fc619cb94721d7327b580764762c9d0b672a4850d29e50dce00ef2a053c592f1d2d0f92bc71637146687df99d77a7d5d1ff06222f6d9314e3437d43d",
      "networkId": 0,
      "chainId": 0
    },
    {
      "hash": "0x2a4a58de08736a49e09cf94a3dfe0f4f44d1b23c12b9812f785faebeced44fcf",
      "blockHash": "0x7fc831b2c73e6f05c2fdcd7a3c58781a77f95ba837d7aa24f3e7dd68f67e6909",
      "blockNumber": 121878,
      "transactionIndex": 8,
      "confirmations": null,
      "from": "0xe6A7a1d47ff21B6321162AEA7C6CB457D5476Bca",
      "gasPrice": {
        "_hex": "0xba43b7400"
      },
      "gasLimit": {
        "_hex": "0x55f0"
      },
      "to": "0x6CB5e8313a5B29aDb14AE1884D3EcE4489d02D77",
      "value": {
        "_hex": "0x471425c0262063b0"
      },
      "nonce": 6607,
      "data": "0x",
      "r": "0x086bcd55b26e25a87d2d541047bf1915e1f56f37b06e04fa59fd2290e9069c19",
      "s": "0x46da0df85949ceacd1b861b3202614bf0d0719da69efdd430c6c913646ef592c",
      "v": 27,
      "creates": null,
      "raw": "0xf86e8219cf850ba43b74008255f0946cb5e8313a5b29adb14ae1884d3ece4489d02d7788471425c0262063b0801ba0086bcd55b26e25a87d2d541047bf1915e1f56f37b06e04fa59fd2290e9069c19a046da0df85949ceacd1b861b3202614bf0d0719da69efdd430c6c913646ef592c",
      "networkId": 0,
      "chainId": 0
    },
    {
      "hash": "0x1e117fda329ed7ec0354f189b58c06c9daa0df7a93768b92221f3de6f824c8a2",
      "blockHash": "0x7fc831b2c73e6f05c2fdcd7a3c58781a77f95ba837d7aa24f3e7dd68f67e6909",
      "blockNumber": 121878,
      "transactionIndex": 9,
      "confirmations": null,
      "from": "0xe6A7a1d47ff21B6321162AEA7C6CB457D5476Bca",
      "gasPrice": {
        "_hex": "0xba43b7400"
      },
      "gasLimit": {
        "_hex": "0x55f0"
      },
      "to": "0x4EF5e475724b7c945A4bdbB1Be68d76103bA9013",
      "value": {
        "_hex": "0x4729ef2c3b9e8f78"
      },
      "nonce": 6608,
      "data": "0x",
      "r": "0xebe9f7dccd97a2c00d43116e09737093bdb7acf51187686b4f502e9e7c3a154f",
      "s": "0x42a00ba5dfabcefed01f7bd8d8ebdfc00b06e6273c46f20bd3efd166752f5314",
      "v": 27,
      "creates": null,
      "raw": "0xf86e8219d0850ba43b74008255f0944ef5e475724b7c945a4bdbb1be68d76103ba9013884729ef2c3b9e8f78801ba0ebe9f7dccd97a2c00d43116e09737093bdb7acf51187686b4f502e9e7c3a154fa042a00ba5dfabcefed01f7bd8d8ebdfc00b06e6273c46f20bd3efd166752f5314",
      "networkId": 0,
      "chainId": 0
    },
    {
      "hash": "0xee01d5df61fd9d91f997d2473d25836678b5bb7ec1d0ce492ad64262394faeda",
      "blockHash": "0x7fc831b2c73e6f05c2fdcd7a3c58781a77f95ba837d7aa24f3e7dd68f67e6909",
      "blockNumber": 121878,
      "transactionIndex": 10,
      "confirmations": null,
      "from": "0x9AF9d7882B168eC626D865EFcd6ACE678549d67E",
      "gasPrice": {
        "_hex": "0xba43b7400"
      },
      "gasLimit": {
        "_hex": "0x5208"
      },
      "to": "0xFBb1b73C4f0BDa4f67dcA266ce6Ef42f520fBB98",
      "value": {
        "_hex": "0x21ae90fbb8268800"
      },
      "nonce": 0,
      "data": "0x",
      "r": "0x88afbbf8bb825b5b0e6901afaaa8571f5f3fa3c002535b435f6f3eb8f239ffcc",
      "s": "0x2eeafb3b7f058e6d8ff1805aafbef0f53647d078918653a1dcef70a63caba3e7",
      "v": 27,
      "creates": null,
      "raw": "0xf86c80850ba43b740082520894fbb1b73c4f0bda4f67dca266ce6ef42f520fbb988821ae90fbb8268800801ba088afbbf8bb825b5b0e6901afaaa8571f5f3fa3c002535b435f6f3eb8f239ffcca02eeafb3b7f058e6d8ff1805aafbef0f53647d078918653a1dcef70a63caba3e7",
      "networkId": 0,
      "chainId": 0
    },
    {
      "hash": "0x2d125a9856a02fc905ba7c9c66b8f23fac502f52c529485808480b0f0635a451",
      "blockHash": "0x7fc831b2c73e6f05c2fdcd7a3c58781a77f95ba837d7aa24f3e7dd68f67e6909",
      "blockNumber": 121878,
      "transactionIndex": 11,
      "confirmations": null,
      "from": "0xDaAC0F7D8959CE050D3D68467a441D60B611eD2A",
      "gasPrice": {
        "_hex": "0xba43b7400"
      },
      "gasLimit": {
        "_hex": "0x5208"
      },
      "to": "0xFBb1b73C4f0BDa4f67dcA266ce6Ef42f520fBB98",
      "value": {
        "_hex": "0x1a03fea9c38d3e000"
      },
      "nonce": 0,
      "data": "0x",
      "r": "0xeb82d690629f12cba60b3cce84a1d84f030fd3fa781f52f32e144d923b57fa83",
      "s": "0x1e8874cbbb40ebcb807c98f9980dc12e5d7b61dc52628050cff0a78393d31ca6",
      "v": 27,
      "creates": null,
      "raw": "0xf86d80850ba43b740082520894fbb1b73c4f0bda4f67dca266ce6ef42f520fbb988901a03fea9c38d3e000801ba0eb82d690629f12cba60b3cce84a1d84f030fd3fa781f52f32e144d923b57fa83a01e8874cbbb40ebcb807c98f9980dc12e5d7b61dc52628050cff0a78393d31ca6",
      "networkId": 0,
      "chainId": 0
    },
    {
      "hash": "0xba82839382e805c896adee8b57d9ab6bc5f97ffc6269e6c620a990e9fd3546cc",
      "blockHash": "0x7fc831b2c73e6f05c2fdcd7a3c58781a77f95ba837d7aa24f3e7dd68f67e6909",
      "blockNumber": 121878,
      "transactionIndex": 12,
      "confirmations": null,
      "from": "0xe6A7a1d47ff21B6321162AEA7C6CB457D5476Bca",
      "gasPrice": {
        "_hex": "0xba43b7400"
      },
      "gasLimit": {
        "_hex": "0x55f0"
      },
      "to": "0x2374d8ad849F04E476f8D13457503f7cca23892E",
      "value": {
        "_hex": "0x47838e1f6a9bd3f8"
      },
      "nonce": 6609,
      "data": "0x",
      "r": "0x75b0681c148d2e6c6416350c801fb02cfd65eda5412310914284a292fa916431",
      "s": "0x3509942bce438634a6b97f94e071d8c44c3c78856e2ae6d21490df5a3889537c",
      "v": 28,
      "creates": null,
      "raw": "0xf86e8219d1850ba43b74008255f0942374d8ad849f04e476f8d13457503f7cca23892e8847838e1f6a9bd3f8801ca075b0681c148d2e6c6416350c801fb02cfd65eda5412310914284a292fa916431a03509942bce438634a6b97f94e071d8c44c3c78856e2ae6d21490df5a3889537c",
      "networkId": 0,
      "chainId": 0
    },
    {
      "hash": "0xebd54e7c7a8034367a690e5c46dfc26f31e307983c8f754bdb7d1aa46f14035f",
      "blockHash": "0x7fc831b2c73e6f05c2fdcd7a3c58781a77f95ba837d7aa24f3e7dd68f67e6909",
      "blockNumber": 121878,
      "transactionIndex": 13,
      "confirmations": null,
      "from": "0xe6A7a1d47ff21B6321162AEA7C6CB457D5476Bca",
      "gasPrice": {
        "_hex": "0xba43b7400"
      },
      "gasLimit": {
        "_hex": "0x55f0"
      },
      "to": "0x82b25DdBdf31a6d7F0C93E1aC4c13f155AfAF7fd",
      "value": {
        "_hex": "0x4794773d995c1a28"
      },
      "nonce": 6610,
      "data": "0x",
      "r": "0xe9f9ef960e95331b1ec7ac4c7b59b32eb5e828bbe1a255ddcd9fc0373a260048",
      "s": "0x4691423979f0858e348b2455c2e5bf8dc5bd62a764a006e08c6161e287e83a3b",
      "v": 28,
      "creates": null,
      "raw": "0xf86e8219d2850ba43b74008255f09482b25ddbdf31a6d7f0c93e1ac4c13f155afaf7fd884794773d995c1a28801ca0e9f9ef960e95331b1ec7ac4c7b59b32eb5e828bbe1a255ddcd9fc0373a260048a04691423979f0858e348b2455c2e5bf8dc5bd62a764a006e08c6161e287e83a3b",
      "networkId": 0,
      "chainId": 0
    },
    {
      "hash": "0x14c2df8661aa8a36c948966d86a8ac98eda78a01101fc87087cbed9cfd839dc6",
      "blockHash": "0x7fc831b2c73e6f05c2fdcd7a3c58781a77f95ba837d7aa24f3e7dd68f67e6909",
      "blockNumber": 121878,
      "transactionIndex": 14,
      "confirmations": null,
      "from": "0xe6A7a1d47ff21B6321162AEA7C6CB457D5476Bca",
      "gasPrice": {
        "_hex": "0xba43b7400"
      },
      "gasLimit": {
        "_hex": "0x55f0"
      },
      "to": "0xAD220cCE3937674e425c9693786E3eC3615C900C",
      "value": {
        "_hex": "0x47fe315d20c856f0"
      },
      "nonce": 6611,
      "data": "0x",
      "r": "0xe16f5ff919f9af93ac8224619222ef20c45ac8be7f93caca82cf37066aa5bcc5",
      "s": "0x268e76b74dedcf59458966ba8ae674f37e4ea2fa3886a023be04677edc931e48",
      "v": 28,
      "creates": null,
      "raw": "0xf86e8219d3850ba43b74008255f094ad220cce3937674e425c9693786e3ec3615c900c8847fe315d20c856f0801ca0e16f5ff919f9af93ac8224619222ef20c45ac8be7f93caca82cf37066aa5bcc5a0268e76b74dedcf59458966ba8ae674f37e4ea2fa3886a023be04677edc931e48",
      "networkId": 0,
      "chainId": 0
    },
    {
      "hash": "0x695a4942aebc448622b959b1c0e4735debc80631a1f328e016057dfd38437a87",
      "blockHash": "0x7fc831b2c73e6f05c2fdcd7a3c58781a77f95ba837d7aa24f3e7dd68f67e6909",
      "blockNumber": 121878,
      "transactionIndex": 15,
      "confirmations": null,
      "from": "0xe6A7a1d47ff21B6321162AEA7C6CB457D5476Bca",
      "gasPrice": {
        "_hex": "0xba43b7400"
      },
      "gasLimit": {
        "_hex": "0x55f0"
      },
      "to": "0x6111E933E5e6297DFd0AAd9aAB64017c69062a08",
      "value": {
        "_hex": "0x485fce8364b6cd18"
      },
      "nonce": 6612,
      "data": "0x",
      "r": "0x8e198faabfb3b2f990aa811339bed12b12fb448404ebdde645a657651afa6ff2",
      "s": "0x0fa5bf0d3741041e0431c2223394c1a8d7a4643a38b6dcd3b97ce9d2dc608570",
      "v": 28,
      "creates": null,
      "raw": "0xf86e8219d4850ba43b74008255f0946111e933e5e6297dfd0aad9aab64017c69062a0888485fce8364b6cd18801ca08e198faabfb3b2f990aa811339bed12b12fb448404ebdde645a657651afa6ff2a00fa5bf0d3741041e0431c2223394c1a8d7a4643a38b6dcd3b97ce9d2dc608570",
      "networkId": 0,
      "chainId": 0
    },
    {
      "hash": "0x44acee62d477b9cc5c9d3827c694b70d8aa63df4109267ed1c41e294386ee680",
      "blockHash": "0x7fc831b2c73e6f05c2fdcd7a3c58781a77f95ba837d7aa24f3e7dd68f67e6909",
      "blockNumber": 121878,
      "transactionIndex": 16,
      "confirmations": null,
      "from": "0xe6A7a1d47ff21B6321162AEA7C6CB457D5476Bca",
      "gasPrice": {
        "_hex": "0xba43b7400"
      },
      "gasLimit": {
        "_hex": "0x55f0"
      },
      "to": "0x18883522e2679aA9b41E0fA688F20c3802897525",
      "value": {
        "_hex": "0x4a5416027f849780"
      },
      "nonce": 6613,
      "data": "0x",
      "r": "0x74a8da0a2dda18f787a28c6652e7e32ec96ee20f0b6742f66390204a2a2e7a2a",
      "s": "0x4dab250359f154a630b349ea8a75fd5e4577857bef63a1931d90bdfe471daf30",
      "v": 28,
      "creates": null,
      "raw": "0xf86e8219d5850ba43b74008255f09418883522e2679aa9b41e0fa688f20c3802897525884a5416027f849780801ca074a8da0a2dda18f787a28c6652e7e32ec96ee20f0b6742f66390204a2a2e7a2aa04dab250359f154a630b349ea8a75fd5e4577857bef63a1931d90bdfe471daf30",
      "networkId": 0,
      "chainId": 0
    },
    {
      "hash": "0x97a50ed63591672cc6aa6226023bb97c0b9c0872febb81784e94ef8c06335e37",
      "blockHash": "0x7fc831b2c73e6f05c2fdcd7a3c58781a77f95ba837d7aa24f3e7dd68f67e6909",
      "blockNumber": 121878,
      "transactionIndex": 17,
      "confirmations": null,
      "from": "0xe6A7a1d47ff21B6321162AEA7C6CB457D5476Bca",
      "gasPrice": {
        "_hex": "0xba43b7400"
      },
      "gasLimit": {
        "_hex": "0x55f0"
      },
      "to": "0x10c4712a317A10F60fE9347b199400d6BaA89558",
      "value": {
        "_hex": "0x4a6f0910c7b71408"
      },
      "nonce": 6614,
      "data": "0x",
      "r": "0x3a2055482abf354bfb61cfa5ba558a2ac8d957deb0a3317f93b9a039f09ae925",
      "s": "0x0355a8c72fe09e1a31fe3b3ecb8f1131e08610f3eff9e642b103cc5b97896eac",
      "v": 28,
      "creates": null,
      "raw": "0xf86e8219d6850ba43b74008255f09410c4712a317a10f60fe9347b199400d6baa89558884a6f0910c7b71408801ca03a2055482abf354bfb61cfa5ba558a2ac8d957deb0a3317f93b9a039f09ae925a00355a8c72fe09e1a31fe3b3ecb8f1131e08610f3eff9e642b103cc5b97896eac",
      "networkId": 0,
      "chainId": 0
    },
    {
      "hash": "0x26947d1c115bd74b4081f4e407b11853fad5dd247987268294749c9ff142a9ac",
      "blockHash": "0x7fc831b2c73e6f05c2fdcd7a3c58781a77f95ba837d7aa24f3e7dd68f67e6909",
      "blockNumber": 121878,
      "transactionIndex": 18,
      "confirmations": null,
      "from": "0xe6A7a1d47ff21B6321162AEA7C6CB457D5476Bca",
      "gasPrice": {
        "_hex": "0xba43b7400"
      },
      "gasLimit": {
        "_hex": "0x55f0"
      },
      "to": "0xcF9DD62019778E76a6B393f0ac4590f03A7429F7",
      "value": {
        "_hex": "0x4b060515d2e43b60"
      },
      "nonce": 6615,
      "data": "0x",
      "r": "0x5b8872b79ca480ba6bd852e39b000f3865ee2da4cdbbadd581a46d1871cf0856",
      "s": "0x0f1978787a58f525a349ead2ef7c78c341a8410724b12ab3a18205411f94e3b7",
      "v": 28,
      "creates": null,
      "raw": "0xf86e8219d7850ba43b74008255f094cf9dd62019778e76a6b393f0ac4590f03a7429f7884b060515d2e43b60801ca05b8872b79ca480ba6bd852e39b000f3865ee2da4cdbbadd581a46d1871cf0856a00f1978787a58f525a349ead2ef7c78c341a8410724b12ab3a18205411f94e3b7",
      "networkId": 0,
      "chainId": 0
    },
    {
      "hash": "0x3089fb33b0c989c4df171e129fbfe0e046c342474dae7bceaaabab523a738977",
      "blockHash": "0x7fc831b2c73e6f05c2fdcd7a3c58781a77f95ba837d7aa24f3e7dd68f67e6909",
      "blockNumber": 121878,
      "transactionIndex": 19,
      "confirmations": null,
      "from": "0xe6A7a1d47ff21B6321162AEA7C6CB457D5476Bca",
      "gasPrice": {
        "_hex": "0xba43b7400"
      },
      "gasLimit": {
        "_hex": "0x55f0"
      },
      "to": "0x77b8115f6C7A1a949B92a8C5Ab5e3Bce37693cf8",
      "value": {
        "_hex": "0x4ca28df88c85cff8"
      },
      "nonce": 6616,
      "data": "0x",
      "r": "0xa0497450c80842118bc3aa75b5eebd6ad334697d571478a219a38d4389139622",
      "s": "0x66c2f7c752b620b7b17a3c6daee5c476bd7bd3b5d62c635a008beee24ddbca61",
      "v": 28,
      "creates": null,
      "raw": "0xf86e8219d8850ba43b74008255f09477b8115f6c7a1a949b92a8c5ab5e3bce37693cf8884ca28df88c85cff8801ca0a0497450c80842118bc3aa75b5eebd6ad334697d571478a219a38d4389139622a066c2f7c752b620b7b17a3c6daee5c476bd7bd3b5d62c635a008beee24ddbca61",
      "networkId": 0,
      "chainId": 0
    },
    {
      "hash": "0x862cf33ded035fb753f5dff7c9bc90b05d9d98305f35df4b3567358130a6dd08",
      "blockHash": "0x7fc831b2c73e6f05c2fdcd7a3c58781a77f95ba837d7aa24f3e7dd68f67e6909",
      "blockNumber": 121878,
      "transactionIndex": 20,
      "confirmations": null,
      "from": "0xe6A7a1d47ff21B6321162AEA7C6CB457D5476Bca",
      "gasPrice": {
        "_hex": "0xba43b7400"
      },
      "gasLimit": {
        "_hex": "0x55f0"
      },
      "to": "0x5175f107219871c88e0C4202F14A5f34088b54c8",
      "value": {
        "_hex": "0x4ca2cf46d955af08"
      },
      "nonce": 6617,
      "data": "0x",
      "r": "0x523516661b64d070472da999e2142b7fbefc354161eff158ae3fa2101110c5d6",
      "s": "0x10d0fcaa86dccc82191a8b99982e64c2d5ea5a2f44216f42c75e4a17994a1873",
      "v": 28,
      "creates": null,
      "raw": "0xf86e8219d9850ba43b74008255f0945175f107219871c88e0c4202f14a5f34088b54c8884ca2cf46d955af08801ca0523516661b64d070472da999e2142b7fbefc354161eff158ae3fa2101110c5d6a010d0fcaa86dccc82191a8b99982e64c2d5ea5a2f44216f42c75e4a17994a1873",
      "networkId": 0,
      "chainId": 0
    },
    {
      "hash": "0x8f8637bab396a249a20525e6247bd60687a7c8453a1b8db85dbb1da16ab96a3f",
      "blockHash": "0x7fc831b2c73e6f05c2fdcd7a3c58781a77f95ba837d7aa24f3e7dd68f67e6909",
      "blockNumber": 121878,
      "transactionIndex": 21,
      "confirmations": null,
      "from": "0xe6A7a1d47ff21B6321162AEA7C6CB457D5476Bca",
      "gasPrice": {
        "_hex": "0xba43b7400"
      },
      "gasLimit": {
        "_hex": "0x55f0"
      },
      "to": "0xf07aAde57CeD1af9a2D538eCcbfD96103f6F2410",
      "value": {
        "_hex": "0x4cad01f0553e0f80"
      },
      "nonce": 6618,
      "data": "0x",
      "r": "0x2d4ed1424e699008e11938e4bdf35718b1d507bdbeb23d0e0cf0743426c73583",
      "s": "0x341187e9f7a8439c92b1bdd73743ada76e27ca0f4e699d8140f28982433c3058",
      "v": 27,
      "creates": null,
      "raw": "0xf86e8219da850ba43b74008255f094f07aade57ced1af9a2d538eccbfd96103f6f2410884cad01f0553e0f80801ba02d4ed1424e699008e11938e4bdf35718b1d507bdbeb23d0e0cf0743426c73583a0341187e9f7a8439c92b1bdd73743ada76e27ca0f4e699d8140f28982433c3058",
      "networkId": 0,
      "chainId": 0
    },
    {
      "hash": "0xff7ed0655400471115f227329f36fa8a8a0a144cd5904b88431d171a3581c049",
      "blockHash": "0x7fc831b2c73e6f05c2fdcd7a3c58781a77f95ba837d7aa24f3e7dd68f67e6909",
      "blockNumber": 121878,
      "transactionIndex": 22,
      "confirmations": null,
      "from": "0xe6A7a1d47ff21B6321162AEA7C6CB457D5476Bca",
      "gasPrice": {
        "_hex": "0xba43b7400"
      },
      "gasLimit": {
        "_hex": "0x55f0"
      },
      "to": "0x9ac4E9D48C027208905CF2A81f304664A5dAeF87",
      "value": {
        "_hex": "0x4d003b2850285838"
      },
      "nonce": 6619,
      "data": "0x",
      "r": "0xd0bc879f78f604d56852567c43667307dc69eb9613543064df00b1f462166dee",
      "s": "0x50b4216cacc087311d97fabca2407dd8b0d7e11fc79012284fcc23111a67f59e",
      "v": 28,
      "creates": null,
      "raw": "0xf86e8219db850ba43b74008255f0949ac4e9d48c027208905cf2a81f304664a5daef87884d003b2850285838801ca0d0bc879f78f604d56852567c43667307dc69eb9613543064df00b1f462166deea050b4216cacc087311d97fabca2407dd8b0d7e11fc79012284fcc23111a67f59e",
      "networkId": 0,
      "chainId": 0
    },
    {
      "hash": "0xeac2fce7bc261d40cb45f340465a98cd155581d4efa18ee7b7c22dbf376f2bc1",
      "blockHash": "0x7fc831b2c73e6f05c2fdcd7a3c58781a77f95ba837d7aa24f3e7dd68f67e6909",
      "blockNumber": 121878,
      "transactionIndex": 23,
      "confirmations": null,
      "from": "0xe6A7a1d47ff21B6321162AEA7C6CB457D5476Bca",
      "gasPrice": {
        "_hex": "0xba43b7400"
      },
      "gasLimit": {
        "_hex": "0x55f0"
      },
      "to": "0x7CabE4dE323c392C7135680c61a04d5Eb7519897",
      "value": {
        "_hex": "0x4d7d4f33ac6c1570"
      },
      "nonce": 6620,
      "data": "0x",
      "r": "0x86111a78abbfda3dcf7ffde7933eb683bf5b23b5c0ecaae7bb146531516541a1",
      "s": "0x7a2f913f00a5daeaec500e9b1ed8a702e5b920b38c1de6842868e7247fc4ed15",
      "v": 28,
      "creates": null,
      "raw": "0xf86e8219dc850ba43b74008255f0947cabe4de323c392c7135680c61a04d5eb7519897884d7d4f33ac6c1570801ca086111a78abbfda3dcf7ffde7933eb683bf5b23b5c0ecaae7bb146531516541a1a07a2f913f00a5daeaec500e9b1ed8a702e5b920b38c1de6842868e7247fc4ed15",
      "networkId": 0,
      "chainId": 0
    },
    {
      "hash": "0x3dbb168057c7dc893c4af22b1ec249ff157aaf9dbc1b50462d723f635f0619a9",
      "blockHash": "0x7fc831b2c73e6f05c2fdcd7a3c58781a77f95ba837d7aa24f3e7dd68f67e6909",
      "blockNumber": 121878,
      "transactionIndex": 24,
      "confirmations": null,
      "from": "0xe6A7a1d47ff21B6321162AEA7C6CB457D5476Bca",
      "gasPrice": {
        "_hex": "0xba43b7400"
      },
      "gasLimit": {
        "_hex": "0x55f0"
      },
      "to": "0x952f389eCE021cECc7e7E00B5316925e14396B92",
      "value": {
        "_hex": "0x4e37407732fdb230"
      },
      "nonce": 6621,
      "data": "0x",
      "r": "0xcfd69ab84d37a2a3261d6f427c7310565ad8a50d3e050373e020a3f046e1dc0d",
      "s": "0x6c621c2bd01bf3f395b39af4523afe74ee566b37f0230fc9e55e5425e00dd76f",
      "v": 28,
      "creates": null,
      "raw": "0xf86e8219dd850ba43b74008255f094952f389ece021cecc7e7e00b5316925e14396b92884e37407732fdb230801ca0cfd69ab84d37a2a3261d6f427c7310565ad8a50d3e050373e020a3f046e1dc0da06c621c2bd01bf3f395b39af4523afe74ee566b37f0230fc9e55e5425e00dd76f",
      "networkId": 0,
      "chainId": 0
    },
    {
      "hash": "0x647020591f41febafb3239a435a6e10192721980a392f245873f65d845394cb3",
      "blockHash": "0x7fc831b2c73e6f05c2fdcd7a3c58781a77f95ba837d7aa24f3e7dd68f67e6909",
      "blockNumber": 121878,
      "transactionIndex": 25,
      "confirmations": null,
      "from": "0xe6A7a1d47ff21B6321162AEA7C6CB457D5476Bca",
      "gasPrice": {
        "_hex": "0xba43b7400"
      },
      "gasLimit": {
        "_hex": "0x55f0"
      },
      "to": "0x5214803C763281b785cDC039b80605fd088D42Ca",
      "value": {
        "_hex": "0x4e763b004b601800"
      },
      "nonce": 6622,
      "data": "0x",
      "r": "0xe0093970f61562765a7c16ffa68ab29af6eb1479c0b62504f639c7f2a67fca8b",
      "s": "0x28073696aee22287c2e0e9062d0a68e0e980ba01fa360d731a3e55ae5c8e0bad",
      "v": 28,
      "creates": null,
      "raw": "0xf86e8219de850ba43b74008255f0945214803c763281b785cdc039b80605fd088d42ca884e763b004b601800801ca0e0093970f61562765a7c16ffa68ab29af6eb1479c0b62504f639c7f2a67fca8ba028073696aee22287c2e0e9062d0a68e0e980ba01fa360d731a3e55ae5c8e0bad",
      "networkId": 0,
      "chainId": 0
    },
    {
      "hash": "0x7b30e88c74abedecce3565ed078a5dd62419680af7c9ae6efd1fe1db8bbeba9c",
      "blockHash": "0x7fc831b2c73e6f05c2fdcd7a3c58781a77f95ba837d7aa24f3e7dd68f67e6909",
      "blockNumber": 121878,
      "transactionIndex": 26,
      "confirmations": null,
      "from": "0xe6A7a1d47ff21B6321162AEA7C6CB457D5476Bca",
      "gasPrice": {
        "_hex": "0xba43b7400"
      },
      "gasLimit": {
        "_hex": "0x55f0"
      },
      "to": "0x03bbfbb9d362b4B1C6a113BE654A0190Fc6aEa80",
      "value": {
        "_hex": "0x4eebcdbcc785a750"
      },
      "nonce": 6623,
      "data": "0x",
      "r": "0x97c6f995a2adcb10b761c95e3e50450eae3f22e0c86dd3a1173febacbe80861b",
      "s": "0x1f9cb1b76cc933abd45c85aaa2576bf2693e36b885a23412b48925d39defa06d",
      "v": 27,
      "creates": null,
      "raw": "0xf86e8219df850ba43b74008255f09403bbfbb9d362b4b1c6a113be654a0190fc6aea80884eebcdbcc785a750801ba097c6f995a2adcb10b761c95e3e50450eae3f22e0c86dd3a1173febacbe80861ba01f9cb1b76cc933abd45c85aaa2576bf2693e36b885a23412b48925d39defa06d",
      "networkId": 0,
      "chainId": 0
    },
    {
      "hash": "0x70d5b2279baaa32a9aff0ebe1c6a283294a19853639bd58e9c22b3e7f89658db",
      "blockHash": "0x7fc831b2c73e6f05c2fdcd7a3c58781a77f95ba837d7aa24f3e7dd68f67e6909",
      "blockNumber": 121878,
      "transactionIndex": 27,
      "confirmations": null,
      "from": "0xe6A7a1d47ff21B6321162AEA7C6CB457D5476Bca",
      "gasPrice": {
        "_hex": "0xba43b7400"
      },
      "gasLimit": {
        "_hex": "0x55f0"
      },
      "to": "0xe6F63A7e7F8dc774F8E3504c9b0c5458D7E28ED8",
      "value": {
        "_hex": "0x4ef59ea84a9b9fa8"
      },
      "nonce": 6624,
      "data": "0x",
      "r": "0xed58360eba7da4f5121672ed68982bcb3f4a640650042fb507bace9bd24d1c27",
      "s": "0x7e08d3029e8ee631f00bc4b674bb7a4a9dd7facb247f0c36909a9fb48c2b0631",
      "v": 27,
      "creates": null,
      "raw": "0xf86e8219e0850ba43b74008255f094e6f63a7e7f8dc774f8e3504c9b0c5458d7e28ed8884ef59ea84a9b9fa8801ba0ed58360eba7da4f5121672ed68982bcb3f4a640650042fb507bace9bd24d1c27a07e08d3029e8ee631f00bc4b674bb7a4a9dd7facb247f0c36909a9fb48c2b0631",
      "networkId": 0,
      "chainId": 0
    },
    {
      "hash": "0x3e9eafdab1f936165ec561ca13f3cd8c264b9d39063ee4c207138bc395787997",
      "blockHash": "0x7fc831b2c73e6f05c2fdcd7a3c58781a77f95ba837d7aa24f3e7dd68f67e6909",
      "blockNumber": 121878,
      "transactionIndex": 28,
      "confirmations": null,
      "from": "0xe6A7a1d47ff21B6321162AEA7C6CB457D5476Bca",
      "gasPrice": {
        "_hex": "0xba43b7400"
      },
      "gasLimit": {
        "_hex": "0x55f0"
      },
      "to": "0x702bD0d370bBf0B97B66FE95578c62697c583393",
      "value": {
        "_hex": "0x507055f98194be98"
      },
      "nonce": 6625,
      "data": "0x",
      "r": "0x886d2bfb772b97d33bff6ab9ec8f3948bc4ac7b1f69d80532c6b69473aff523a",
      "s": "0x14358e7f217377d448772b0ee7e706f97b13ad8c23ad68df0799134d0a0b4d95",
      "v": 27,
      "creates": null,
      "raw": "0xf86e8219e1850ba43b74008255f094702bd0d370bbf0b97b66fe95578c62697c58339388507055f98194be98801ba0886d2bfb772b97d33bff6ab9ec8f3948bc4ac7b1f69d80532c6b69473aff523aa014358e7f217377d448772b0ee7e706f97b13ad8c23ad68df0799134d0a0b4d95",
      "networkId": 0,
      "chainId": 0
    },
    {
      "hash": "0xfe9de3c745dd3c130e1f5065d0986cc2d83fbe64b96e9e2a28ca47f5c51bf177",
      "blockHash": "0x7fc831b2c73e6f05c2fdcd7a3c58781a77f95ba837d7aa24f3e7dd68f67e6909",
      "blockNumber": 121878,
      "transactionIndex": 29,
      "confirmations": null,
      "from": "0xe6A7a1d47ff21B6321162AEA7C6CB457D5476Bca",
      "gasPrice": {
        "_hex": "0xba43b7400"
      },
      "gasLimit": {
        "_hex": "0x55f0"
      },
      "to": "0xDD6f935a791F13ce18c10310c688E09cfc4a5d60",
      "value": {
        "_hex": "0x5166fddba63c17d8"
      },
      "nonce": 6626,
      "data": "0x",
      "r": "0x668ab7ebc382f7a287b56f09747f41f0a40497de8ecd9638d05e3d6cff4e6c9c",
      "s": "0x4d30b2f4307e72b2fef2d109bda2aedb8995e1d13b9de0e24e61b6dafdbbbdde",
      "v": 27,
      "creates": null,
      "raw": "0xf86e8219e2850ba43b74008255f094dd6f935a791f13ce18c10310c688e09cfc4a5d60885166fddba63c17d8801ba0668ab7ebc382f7a287b56f09747f41f0a40497de8ecd9638d05e3d6cff4e6c9ca04d30b2f4307e72b2fef2d109bda2aedb8995e1d13b9de0e24e61b6dafdbbbdde",
      "networkId": 0,
      "chainId": 0
    },
    {
      "hash": "0xd463d98b2d1ff1d320bf33ebbddb65ac09ec10d65ef0a664666de23b53032104",
      "blockHash": "0x7fc831b2c73e6f05c2fdcd7a3c58781a77f95ba837d7aa24f3e7dd68f67e6909",
      "blockNumber": 121878,
      "transactionIndex": 30,
      "confirmations": null,
      "from": "0xe6A7a1d47ff21B6321162AEA7C6CB457D5476Bca",
      "gasPrice": {
        "_hex": "0xba43b7400"
      },
      "gasLimit": {
        "_hex": "0x55f0"
      },
      "to": "0xD924AAC0bCB65C13bE4044f6BeA8aAe34D7a7126",
      "value": {
        "_hex": "0x520cb604e623fc08"
      },
      "nonce": 6627,
      "data": "0x",
      "r": "0x1e18bdcea30769fe59b6e77bc73514e793e62ace530f295bac5147015b13e8b8",
      "s": "0x3b65ddc0bd478d412616f3b32b76b32f20aad2b96a8e2ca7869f6e65ef6ea538",
      "v": 27,
      "creates": null,
      "raw": "0xf86e8219e3850ba43b74008255f094d924aac0bcb65c13be4044f6bea8aae34d7a712688520cb604e623fc08801ba01e18bdcea30769fe59b6e77bc73514e793e62ace530f295bac5147015b13e8b8a03b65ddc0bd478d412616f3b32b76b32f20aad2b96a8e2ca7869f6e65ef6ea538",
      "networkId": 0,
      "chainId": 0
    },
    {
      "hash": "0xdb245b5e4545826fe5d84d4614a2dd1e3556fde468067c7b469573b93f8fff2a",
      "blockHash": "0x7fc831b2c73e6f05c2fdcd7a3c58781a77f95ba837d7aa24f3e7dd68f67e6909",
      "blockNumber": 121878,
      "transactionIndex": 31,
      "confirmations": null,
      "from": "0xe6A7a1d47ff21B6321162AEA7C6CB457D5476Bca",
      "gasPrice": {
        "_hex": "0xba43b7400"
      },
      "gasLimit": {
        "_hex": "0x55f0"
      },
      "to": "0x72E9B6674F1F4eb48556178f40657D8f129bFb79",
      "value": {
        "_hex": "0x522136abbaaace30"
      },
      "nonce": 6628,
      "data": "0x",
      "r": "0x153317b3cb79a5cbe0d07c0dcc54c81caa1398195dde6a38bc0cccc0060bb0f6",
      "s": "0x2d0c747ffd15459ececa8b8dbbf4b30a9da64c3c702be0837e145c5193cb0d8b",
      "v": 27,
      "creates": null,
      "raw": "0xf86e8219e4850ba43b74008255f09472e9b6674f1f4eb48556178f40657d8f129bfb7988522136abbaaace30801ba0153317b3cb79a5cbe0d07c0dcc54c81caa1398195dde6a38bc0cccc0060bb0f6a02d0c747ffd15459ececa8b8dbbf4b30a9da64c3c702be0837e145c5193cb0d8b",
      "networkId": 0,
      "chainId": 0
    },
    {
      "hash": "0x3da3ff1d23dfd25f8091b220ce370651c52086270060f701294e148a0c197763",
      "blockHash": "0x7fc831b2c73e6f05c2fdcd7a3c58781a77f95ba837d7aa24f3e7dd68f67e6909",
      "blockNumber": 121878,
      "transactionIndex": 32,
      "confirmations": null,
      "from": "0xe6A7a1d47ff21B6321162AEA7C6CB457D5476Bca",
      "gasPrice": {
        "_hex": "0xba43b7400"
      },
      "gasLimit": {
        "_hex": "0x55f0"
      },
      "to": "0x7C197542A77e913547d2E58e8d3c6F224f6f0f98",
      "value": {
        "_hex": "0x52d4894c13619198"
      },
      "nonce": 6629,
      "data": "0x",
      "r": "0x9dd11124d45a7e9d697794a900bccf22ce88f04e7a99164d07c9d8c7dbcd7762",
      "s": "0x1332c2660ca4d6eb1b16f3dabe78a43df91404341344737214c279ce14ec5e72",
      "v": 27,
      "creates": null,
      "raw": "0xf86e8219e5850ba43b74008255f0947c197542a77e913547d2e58e8d3c6f224f6f0f988852d4894c13619198801ba09dd11124d45a7e9d697794a900bccf22ce88f04e7a99164d07c9d8c7dbcd7762a01332c2660ca4d6eb1b16f3dabe78a43df91404341344737214c279ce14ec5e72",
      "networkId": 0,
      "chainId": 0
    },
    {
      "hash": "0x8df9422238048475def1efea316bff411b5d8b03f1086e164e9517a522d42713",
      "blockHash": "0x7fc831b2c73e6f05c2fdcd7a3c58781a77f95ba837d7aa24f3e7dd68f67e6909",
      "blockNumber": 121878,
      "transactionIndex": 33,
      "confirmations": null,
      "from": "0xe6A7a1d47ff21B6321162AEA7C6CB457D5476Bca",
      "gasPrice": {
        "_hex": "0xba43b7400"
      },
      "gasLimit": {
        "_hex": "0x55f0"
      },
      "to": "0x91139B30e3d090a8c542CFB2AA1Cc6e3bfFB491C",
      "value": {
        "_hex": "0x5318ef24780d4880"
      },
      "nonce": 6630,
      "data": "0x",
      "r": "0x1fe926b1a44c6087a1fe48fd8ac6051b403799ee880baf713a95d6f67f5e85cd",
      "s": "0x5b4f5ff158101492f1de030c782b7994ef2f1f5499f4c5b9a6f47fbd8fe1169d",
      "v": 27,
      "creates": null,
      "raw": "0xf86e8219e6850ba43b74008255f09491139b30e3d090a8c542cfb2aa1cc6e3bffb491c885318ef24780d4880801ba01fe926b1a44c6087a1fe48fd8ac6051b403799ee880baf713a95d6f67f5e85cda05b4f5ff158101492f1de030c782b7994ef2f1f5499f4c5b9a6f47fbd8fe1169d",
      "networkId": 0,
      "chainId": 0
    },
    {
      "hash": "0xd7e4855baa9ff783c2cc504897e4f5a80d11921e8396e6ad2f753102b89eb216",
      "blockHash": "0x7fc831b2c73e6f05c2fdcd7a3c58781a77f95ba837d7aa24f3e7dd68f67e6909",
      "blockNumber": 121878,
      "transactionIndex": 34,
      "confirmations": null,
      "from": "0xe6A7a1d47ff21B6321162AEA7C6CB457D5476Bca",
      "gasPrice": {
        "_hex": "0xba43b7400"
      },
      "gasLimit": {
        "_hex": "0x55f0"
      },
      "to": "0x1332996a46dcBBE02f9cF164Dfc153aB976a9766",
      "value": {
        "_hex": "0x534db285956bd5f0"
      },
      "nonce": 6631,
      "data": "0x",
      "r": "0x83d7d57edd853f2673fe2ed34503161d5db2fb66a474a44cda13b0ca6696615f",
      "s": "0x20160a253360caed0924ed51e7b2c8a39ee294064219b599003b2b124505395a",
      "v": 27,
      "creates": null,
      "raw": "0xf86e8219e7850ba43b74008255f0941332996a46dcbbe02f9cf164dfc153ab976a976688534db285956bd5f0801ba083d7d57edd853f2673fe2ed34503161d5db2fb66a474a44cda13b0ca6696615fa020160a253360caed0924ed51e7b2c8a39ee294064219b599003b2b124505395a",
      "networkId": 0,
      "chainId": 0
    }
  ]
}