{
  "hash": "0x25d9a6e9f0e94c2b429ecf81082f06e480d3d4419938e66ddb9db1bc94ade652",
  "parentHash": "0xed4e3e058a953fbb23f5b2f418fb779208860288c672f8a20ab0a73b373641f6",
  "number": 93037,
  "timestamp": 1439681314,
  "nonce": "0x6e32dc843582cda4",
  "difficulty": 3645687123472,
  "gasLimit": {
    "_hex": "0x2fefd8"
  },
  "gasUsed": {
    "_hex": "0x5208"
  },
  "miner": "0xe6A7a1d47ff21B6321162AEA7C6CB457D5476Bca",
  "extraData": "0x476574682f76312e302e312d38326566323666362f6c696e75782f676f312e34",
  "transactions": [
    {
      "hash": "0x7989ee9a462d486fe2077beae742c29fb5be00ee9e9f96aebcaed813140d607e",
      "blockHash": "0x25d9a6e9f0e94c2b429ecf81082f06e480d3d4419938e66ddb9db1bc94ade652",
      "blockNumber": 93037,
      "transactionIndex": 0,
      "confirmations": null,
      "from": "0xF630f7D90cf03682522980B725BaF441559B7d80",
      "gasPrice": {
        "_hex": "0xccbc1200a"
      },
      "gasLimit": {
        "_hex": "0x5208"
      },
      "to": "0x32Be343B94f860124dC4fEe278FDCBD38C102D88",
      "value": {
        "_hex": "0xddc9d0926c33000"
      },
      "nonce": 0,
      "data": "0x",
      "r": "0x6b3e39a4eef35f3b6b92baa50914584137e2db1d475fab49818239019b8388a9",
      "s": "0x5212e9348f2b07534b3e9d0147ab5532b41c77f6a12d3e7c15f2d8c359bf33eb",
      "v": 28,
      "creates": null,
      "raw": "0xf86c80850ccbc1200a8252089432be343b94f860124dc4fee278fdcbd38c102d88880ddc9d0926c33000801ca06b3e39a4eef35f3b6b92baa50914584137e2db1d475fab49818239019b8388a9a05212e9348f2b07534b3e9d0147ab5532b41c77f6a12d3e7c15f2d8c359bf33eb",
      "networkId": 0,
      "chainId": 0
    }
  ]
}