{
  "hash": "0xba5d47a0c2a1d6241e225bc76c1cf48dccc004e906c5ee5c3766bc6a468db350",
  "parentHash": "0x5790b5ac0f884b4ba44f4516d499bbc46cec234d6d9a5287bb934440cdf17576",
  "number": 48691,
  "timestamp": 1438961143,
  "nonce": "0xc6b443d87d79fea6",
  "difficulty": 1475025079634,
  "gasLimit": {
    "_hex": "0x1c1ad"
  },
  "gasUsed": {
    "_hex": "0xa8d8"
  },
  "miner": "0xa50ec0D39fa913E62f1Bae7074E6F36caA71855b",
  "extraData": "0x476574682f76312e302e302f6c696e75782f676f312e342e32",
  "transactions": [
    {
      "hash": "0xfc78273a9ab618962416678f73afe6045ddb693e5ab50ea615228bb870d2a398",
      "blockHash": "0xba5d47a0c2a1d6241e225bc76c1cf48dccc004e906c5ee5c3766bc6a468db350",
      "blockNumber": 48691,
      "transactionIndex": 0,
      "confirmations": null,
      "from": "0xddf3AD76353810be6a89d731b787F6F17188612B",
      "gasPrice": {
        "_hex": "0xe476b2b2c"
      },
      "gasLimit": {
        "_hex": "0x15f90"
      },
      "to": "0x2910543Af39abA0Cd09dBb2D50200b3E800A63D2",
      "value": {
        "_hex": "0x878678326eac900000"
      },
      "nonce": 2,
      "data": "0x454e4e475639304647",
      "r": "0xd1bc3624d8af05b9e093100627178e5b231aafe8bd563d0b37a376dc2827cb30",
      "s": "0x1aa29017a4669ab9fbe6fc957a3e59d1754d96ce3ef5b4fd24e347fba500de38",
      "v": 28,
      "creates": null,
      "raw": "0xf87702850e476b2b2c83015f90942910543af39aba0cd09dbb2d50200b3e800a63d289878678326eac90000089454e4e4756393046471ca0d1bc3624d8af05b9e093100627178e5b231aafe8bd563d0b37a376dc2827cb30a01aa29017a4669ab9fbe6fc957a3e59d1754d96ce3ef5b4fd24e347fba500de38",
      "networkId": 0,
      "chainId": 0
    },
    {
      "hash": "0x8bb1197da289ee12aab0e2cc4591b43bd5fbb5ee425e3bb6c7bc969e79120d83",
      "blockHash": "0xba5d47a0c2a1d6241e225bc76c1cf48dccc004e906c5ee5c3766bc6a468db350",
      "blockNumber": 48691,
      "transactionIndex": 1,
      "confirmations": null,
      "from": "0xE4Dd37247830493DE1Df7c758DD746DCdE19419e",
      "gasPrice": {
        "_hex": "0xd79642c9c"
      },
      "gasLimit": {
        "_hex": "0x7530"
      },
      "to": "0x2910543Af39abA0Cd09dBb2D50200b3E800A63D2",
      "value": {
        "_hex": "0xde0b6b3a7640000"
      },
      "nonce": 1,
      "data": "0x454e52315751343752",
      "r": "0xe51e7f111c0d9d18fcca20d221eab32d8514c0cf1d63f1819ef8a74c5dc29b1c",
      "s": "0x7c21945329a69b188866ed536d408da8bcdc3381b1326ff7cf0da395dce51d88",
      "v": 27,
      "creates": null,
      "raw": "0xf87501850d79642c9c827530942910543af39aba0cd09dbb2d50200b3e800a63d2880de0b6b3a764000089454e523157513437521ba0e51e7f111c0d9d18fcca20d221eab32d8514c0cf1d63f1819ef8a74c5dc29b1ca07c21945329a69b188866ed536d408da8bcdc3381b1326ff7cf0da395dce51d88",
      "networkId": 0,
      "chainId": 0
    }
  ]
}