{
  "hash": "0xf5f909ef9f310f75d844186b96c57713e9e414c35ee539c9b3a845f08d3e2bb7",
  "parentHash": "0x189b2036bd893f51ba33afe2f8c87c7081014f0944e6e0a00784ead324d8855d",
  "number": 50982,
  "timestamp": 1438997674,
  "nonce": "0x6cb58a80f8fb9378",
  "difficulty": 1547656315080,
  "gasLimit": {
    "_hex": "0x8896c"
  },
  "gasUsed": {
    "_hex": "0x5208"
  },
  "miner": "0x863b7d048A0B7bfc239AF19F6A736E0995fB1C73",
  "extraData": "0x476574682f76312e302e312f6c696e75782f676f312e342e32",
  "transactions": [
    {
      "hash": "0xf73fc02e2f35e36ea8ea961ef88e5a4f71db2c8ca22809ad8680b4e260399172",
      "blockHash": "0xf5f909ef9f310f75d844186b96c57713e9e414c35ee539c9b3a845f08d3e2bb7",
      "blockNumber": 50982,
      "transactionIndex": 0,
      "confirmations": null,
      "from": "0x3Ad06149b21C55Ff867cc3fb9740D2BCc7101231",
      "gasPrice": {
        "_hex": "0xd77be35c2"
      },
      "gasLimit": {
        "_hex": "0x15f90"
      },
      "to": "0x1308A2e95c0160B90803ddCA9B9a5bb55E416d79",
      "value": {
        "_hex": "0x21e19e0c9bab2400000"
      },
      "nonce": 9,
      "data": "0x",
      "r": "0x4f1ffd35ccec3101e9659d07e481a3a75f90dd94361b666ff3aecf308a4f1939",
      "s": "0x5b750b992e566f389902f6453cbf694da3ca26ea61caacf324ce259e10662032",
      "v": 28,
      "creates": null,
      "raw": "0xf86f09850d77be35c283015f90941308a2e95c0160b90803ddca9b9a5bb55e416d798a021e19e0c9bab2400000801ca04f1ffd35ccec3101e9659d07e481a3a75f90dd94361b666ff3aecf308a4f1939a05b750b992e566f389902f6453cbf694da3ca26ea61caacf324ce259e10662032",
      "networkId": 0,
      "chainId": 0
    }
  ]
}