{
  "hash": "0x6d2cb141bf4eec93ec426446e91f38d44e85b65e713e597ca2a7d2bd44b9ade1",
  "parentHash": "0x5201289a96c85f4714decb0838fc777470dce1566e8a2c2282fe2d3f92aa4848",
  "number": 79623,
  "timestamp": 1439472738,
  "nonce": "0xf01c9bf82396f1eb",
  "difficulty": 2339252414408,
  "gasLimit": {
    "_hex": "0x2fefd8"
  },
  "gasUsed": {
    "_hex": "0xa410"
  },
  "miner": "0x5B3e850E39e6f2C7dD38707b649e2B3536F14C0b",
  "extraData": "0x476574682f76312e302e312f64617277696e2f676f312e342e32",
  "transactions": [
    {
      "hash": "0xad2322197c8151769aaf5941d686aae9047a477914ccc9bd885498df2453ec1f",
      "blockHash": "0x6d2cb141bf4eec93ec426446e91f38d44e85b65e713e597ca2a7d2bd44b9ade1",
      "blockNumber": 79623,
      "transactionIndex": 0,
      "confirmations": null,
      "from": "0xa6BDc31c431B8F97848c9D60cbbe9660dc450eB7",
      "gasPrice": {
        "_hex": "0xcbd764817"
      },
      "gasLimit": {
        "_hex": "0x5208"
      },
      "to": "0x32Be343B94f860124dC4fEe278FDCBD38C102D88",
      "value": {
        "_hex": "0x455f7c6d3bbc1000"
      },
      "nonce": 36,
      "data": "0x",
      "r": "0x60d133eb2c33f7768900cdd3aeda51ea18819afc436c373e5246837169a7fdb2",
      "s": "0x6e9fb4f79e0b025e5d57b1543400ae52e4a486a04788725dfba71bf06ab0f0c9",
      "v": 28,
      "creates": null,
      "raw": "0xf86c24850cbd7648178252089432be343b94f860124dc4fee278fdcbd38c102d8888455f7c6d3bbc1000801ca060d133eb2c33f7768900cdd3aeda51ea18819afc436c373e5246837169a7fdb2a06e9fb4f79e0b025e5d57b1543400ae52e4a486a04788725dfba71bf06ab0f0c9",
      "networkId": 0,
      "chainId": 0
    },
    {
      "hash": "0x9ea56122adffbe8c543e99531854eaba9ba77c2c7b99dcf7fd2ecf05ca59d40a",
      "blockHash": "0x6d2cb141bf4eec93ec426446e91f38d44e85b65e713e597ca2a7d2bd44b9ade1",
      "blockNumber": 79623,
      "transactionIndex": 1,
      "confirmations": null,
      "from": "0xb50405193Dc0c7077dD65252C15C39242F0aCB76",
      "gasPrice": {
        "_hex": "0xcbd764817"
      },
      "gasLimit": {
        "_hex": "0x5208"
      },
      "to": "0x32Be343B94f860124dC4fEe278FDCBD38C102D88",
      "value": {
        "_hex": "0x1a05153f894801000"
      },
      "nonce": 4,
      "data": "0x",
      "r": "0x6cc564468e2ff9f506d87241243a26dde4c3c613946f00f1c798a11d059bd040",
      "s": "0x5c5f517414e022bafefc0f206ce54ea0a4a1cdeed9d470ae584d2bbcae3c2011",
      "v": 28,
      "creates": null,
      "raw": "0xf86d04850cbd7648178252089432be343b94f860124dc4fee278fdcbd38c102d888901a05153f894801000801ca06cc564468e2ff9f506d87241243a26dde4c3c613946f00f1c798a11d059bd040a05c5f517414e022bafefc0f206ce54ea0a4a1cdeed9d470ae584d2bbcae3c2011",
      "networkId": 0,
      "chainId": 0
    }
  ]
}