{
  "hash": "0xddbb70e56ebd7ec4a7798a73ce32cf88228dd0e9bdf0e0d300960df44cd0a787",
  "parentHash": "0xe97967d38e762af78e162373984d360a283df6b4ff76b8349d98cdae4a3533bf",
  "number": 63988,
  "timestamp": 1439213568,
  "nonce": "0xeda476848b731381",
  "difficulty": 1845823805106,
  "gasLimit": {
    "_hex": "0x2fefd5"
  },
  "gasUsed": {
    "_hex": "0x11bcb"
  },
  "miner": "0x9D49F602b0fdb924Bd63DDE2Bd0907E4A07c63a7",
  "extraData": "0x476574682f76312e302e312f6c696e75782f676f312e342e32",
  "transactions": [
    {
      "hash": "0x2d8640f08fd27787a07fb474111c85410818e40b9600b6f289a01f84ed986352",
      "blockHash": "0xddbb70e56ebd7ec4a7798a73ce32cf88228dd0e9bdf0e0d300960df44cd0a787",
      "blockNumber": 63988,
      "transactionIndex": 0,
      "confirmations": null,
      "from": "0xDC5F5aD663A6F263327D64cAc9Cb133D2C960597",
      "gasPrice": {
        "_hex": "0xd7d40ace3"
      },
      "gasLimit": {
        "_hex": "0x7a120"
      },
      "to": "0xfBc128067A2FE13C11BBC6cc55f29AA1F27630DA",
      "value": {
        "_hex": "0xde0b6b3a7640000"
      },
      "nonce": 2,
      "data": "0x",
      "r": "0xbd5613d242286162d781ff87fa7adfe58fffce8bb351cfd6ff63c07284786e9f",
      "s": "0x4fc83f9dc79febc265b1ed50b60d94f0146b92ccd78c60f44eaf912c06b212c3",
      "v": 27,
      "creates": null,
      "raw": "0xf86d02850d7d40ace38307a12094fbc128067a2fe13c11bbc6cc55f29aa1f27630da880de0b6b3a7640000801ba0bd5613d242286162d781ff87fa7adfe58fffce8bb351cfd6ff63c07284786e9fa04fc83f9dc79febc265b1ed50b60d94f0146b92ccd78c60f44eaf912c06b212c3",
      "networkId": 0,
      "chainId": 0
    },
    {
      "hash": "0x8fa7c48a3b96ce77d199641b7ead36bfa0e53537f09253a5595d25fbd460c5ce",
      "blockHash": "0xddbb70e56ebd7ec4a7798a73ce32cf88228dd0e9bdf0e0d300960df44cd0a787",
      "blockNumber": 63988,
      "transactionIndex": 1,
      "confirmations": null,
      "from": "0x87898CE53471043FcCa0a2aF4E1dC6d8B3fCf607",
      "gasPrice": {
        "_hex": "0xcc69599ab"
      },
      "gasLimit": {
        "_hex": "0x5208"
      },
      "to": "0xBFdD9820a04283b289957956353b5F3C1F665EcF",
      "value": {
        "_hex": "0x4563918244f40000"
      },
      "nonce": 15,
      "data": "0x",
      "r": "0xee6459087acc248682695dfbd81e413d47757efc18b159b573f6690d42f2cf89",
      "s": "0x7d8707ba908b8f1028f902f7130e5d6a42564f740274d6d8d7e0db0ad4391e6e",
      "v": 28,
      "creates": null,
      "raw": "0xf86c0f850cc69599ab82520894bfdd9820a04283b289957956353b5f3c1f665ecf884563918244f40000801ca0ee6459087acc248682695dfbd81e413d47757efc18b159b573f6690d42f2cf89a07d8707ba908b8f1028f902f7130e5d6a42564f740274d6d8d7e0db0ad4391e6e",
      "networkId": 0,
      "chainId": 0
    }
  ]
}