{
  "hash": "0xb91031942165d7ef2854522c6f20099a25c3eb2cc53de0972414c87152cf987a",
  "parentHash": "0xe9e4c17f00ed8cb912986e99be973917219608c8d9e8b4d2d2e5ab5e9759980b",
  "number": 92181,
  "timestamp": 1439668233,
  "nonce": "0x7aa627c857c2c857",
  "difficulty": 3475698047464,
  "gasLimit": {
    "_hex": "0x2fefd8"
  },
  "gasUsed": {
    "_hex": "0x5208"
  },
  "miner": "0xe6A7a1d47ff21B6321162AEA7C6CB457D5476Bca",
  "extraData": "0x476574682f76312e302e312d38326566323666362f6c696e75782f676f312e34",
  "transactions": [
    {
      "hash": "0x1941f23e9892d3fea4b48fb8b4432e0dee50ec169f580c70a685896d167046cb",
      "blockHash": "0xb91031942165d7ef2854522c6f20099a25c3eb2cc53de0972414c87152cf987a",
      "blockNumber": 92181,
      "transactionIndex": 0,
      "confirmations": null,
      "from": "0x120A270bbC009644e35F0bB6ab13f95b8199c4ad",
      "gasPrice": {
        "_hex": "0xd61351580"
      },
      "gasLimit": {
        "_hex": "0x3d090"
      },
      "to": "0xc72322CEA06c8576280ED2f09d907e76Ca73686a",
      "value": {
        "_hex": "0xf7871a555af9c7400"
      },
      "nonce": 542,
      "data": "0x",
      "r": "0x9f83bcf4d509b4de8b92f2c1c4db33b68598ae6e5b5246f9939786f1d267bd92",
      "s": "0x3a2528c62ed5574f2947f4f67db6d1193b430a2d4c24eedcf5c30387c6c6479e",
      "v": 28,
      "creates": null,
      "raw": "0xf87082021e850d613515808303d09094c72322cea06c8576280ed2f09d907e76ca73686a890f7871a555af9c7400801ca09f83bcf4d509b4de8b92f2c1c4db33b68598ae6e5b5246f9939786f1d267bd92a03a2528c62ed5574f2947f4f67db6d1193b430a2d4c24eedcf5c30387c6c6479e",
      "networkId": 0,
      "chainId": 0
    }
  ]
}