{
  "hash": "0x845bac9b46bfa044b4e1c02df6fdae1a9c0e807dab5a029707f94f5e8ab648c0",
  "parentHash": "0x37d9a46ddc423d404162e2b92b75b3deb787ac7d07972824536d64864cdca240",
  "number": 92503,
  "timestamp": 1439673079,
  "nonce": "0x79f52403830f5e2e",
  "difficulty": 3526850944441,
  "gasLimit": {
    "_hex": "0x2fefd8"
  },
  "gasUsed": {
    "_hex": "0x5208"
  },
  "miner": "0x9D49F602b0fdb924Bd63DDE2Bd0907E4A07c63a7",
  "extraData": "0x476574682f76312e302e312f6c696e75782f676f312e342e32",
  "transactions": [
    {
      "hash": "0xf4afe173125d080d9a31fafc116fc291452825365893bfe30e1d898e22e68df0",
      "blockHash": "0x845bac9b46bfa044b4e1c02df6fdae1a9c0e807dab5a029707f94f5e8ab648c0",
      "blockNumber": 92503,
      "transactionIndex": 0,
      "confirmations": null,
      "from": "0x7Eb9F59f9547E376188eD83EFCD1F6dbF3712eA6",
      "gasPrice": {
        "_hex": "0xd89f52c58"
      },
      "gasLimit": {
        "_hex": "0x15f90"
      },
      "to": "0xAd941B747c499E3ad5728C285446813783A33564",
      "value": {
        "_hex": "0x1e5b8fa8fe2ac0000"
      },
      "nonce": 12,
      "data": "0x",
      "r": "0x414986237365fac3234b83af76a49270cd665df5c336d8e5ea7f02ecbaacd6bb",
      "s": "0x795cd244e741b03dc2d43538a80249769f7d8fa18495e13c8fe6f0c6f81e63de",
      "v": 27,
      "creates": null,
      "raw": "0xf86e0c850d89f52c5883015f9094ad941b747c499e3ad5728c285446813783a335648901e5b8fa8fe2ac0000801ba0414986237365fac3234b83af76a49270cd665df5c336d8e5ea7f02ecbaacd6bba0795cd244e741b03dc2d43538a80249769f7d8fa18495e13c8fe6f0c6f81e63de",
      "networkId": 0,
      "chainId": 0
    }
  ]
}