{
  "hash": "0xbf28e0032d2beb96786a6e56a697023392ba3a7a8ba27cf0db84840d77b22e3b",
  "parentHash": "0x0f25efc7c5e4ef1de2ace6b1546a2ba038b01a5b0abf42b07216ae21ea96cb76",
  "number": 50286,
  "timestamp": 1438986661,
  "nonce": "0x37cef43d3aa70bad",
  "difficulty": 1513407547289,
  "gasLimit": {
    "_hex": "0x5b0bc"
  },
  "gasUsed": {
    "_hex": "0x546c"
  },
  "miner": "0x70137010922f2fC2964b3792907F79FBB75fEbe8",
  "extraData": "0x476574682f76312e302e302f6c696e75782f676f312e342e32",
  "transactions": [
    {
      "hash": "0x40f3e6c9438e7f62e2d95a5cc28ff8ea0f6082a02acd99a593609a51b836efac",
      "blockHash": "0xbf28e0032d2beb96786a6e56a697023392ba3a7a8ba27cf0db84840d77b22e3b",
      "blockNumber": 50286,
      "transactionIndex": 0,
      "confirmations": null,
      "from": "0x2744Ff67464121e35AFc2922177164Fa2fcB0267",
      "gasPrice": {
        "_hex": "0x110c8f7d8de"
      },
      "gasLimit": {
        "_hex": "0xc350"
      },
      "to": "0x2910543Af39abA0Cd09dBb2D50200b3E800A63D2",
      "value": {
        "_hex": "0x58d15e176280000"
      },
      "nonce": 1,
      "data": "0x454e554643515a5030",
      "r": "0x0829f0b3220ad49fe86d0d8875515502551868038f9ef726c44aab656ea19376",
      "s": "0x7656c8ed76b4a1357cdab6d74c47ec9fb739f4a64b8bebe179cf13537d201deb",
      "v": 28,
      "creates": null,
      "raw": "0xf87601860110c8f7d8de82c350942910543af39aba0cd09dbb2d50200b3e800a63d288058d15e17628000089454e554643515a50301ca00829f0b3220ad49fe86d0d8875515502551868038f9ef726c44aab656ea19376a07656c8ed76b4a1357cdab6d74c47ec9fb739f4a64b8bebe179cf13537d201deb",
      "networkId": 0,
      "chainId": 0
    }
  ]
}