{
  "hash": "0x16c8249757061ba68636b0105b9a64a762f93b57280f8fd6d99a46e710304999",
  "parentHash": "0xb5571e75131b0490f2a13007c9119c7b081a2715c04c277409d0f87668034e64",
  "number": 49713,
  "timestamp": 1438977863,
  "nonce": "0xafaeba065ceba3c2",
  "difficulty": 1493688365683,
  "gasLimit": {
    "_hex": "0x3bf2d"
  },
  "gasUsed": {
    "_hex": "0x546c"
  },
  "miner": "0xeB1325C8D9d3ea8D74aC11F4B00F1B2367686319",
  "extraData": "0x476574682f76312e302e312f77696e646f77732f676f312e342e32",
  "transactions": [
    {
      "hash": "0x63d9ec764919c68ab09ee0af88c6815462704cbbe4fe69da11179f7545dfae2f",
      "blockHash": "0x16c8249757061ba68636b0105b9a64a762f93b57280f8fd6d99a46e710304999",
      "blockNumber": 49713,
      "transactionIndex": 0,
      "confirmations": null,
      "from": "0x09c177F1AE442411dDACf187D46Db956148360E7",
      "gasPrice": {
        "_hex": "0x110c8f7d8de"
      },
      "gasLimit": {
        "_hex": "0xc350"
      },
      "to": "0x2910543Af39abA0Cd09dBb2D50200b3E800A63D2",
      "value": {
        "_hex": "0xd5967be4fc3f100000"
      },
      "nonce": 1,
      "data": "0x454e31554d35375030",
      "r": "0x78c331d67f7a706bbcd07195fb40214df94d423365bc1c3738d6a5950f8e8007",
      "s": "0x77fc318dd8d325461032933a97835e70dc32cebf653c9fbd4e84720e6c946e27",
      "v": 28,
      "creates": null,
      "raw": "0xf87701860110c8f7d8de82c350942910543af39aba0cd09dbb2d50200b3e800a63d289d5967be4fc3f10000089454e31554d353750301ca078c331d67f7a706bbcd07195fb40214df94d423365bc1c3738d6a5950f8e8007a077fc318dd8d325461032933a97835e70dc32cebf653c9fbd4e84720e6c946e27",
      "networkId": 0,
      "chainId": 0
    }
  ]
}