{
  "hash": "0x95d5c3101e295688c5ab970bbeda13baf5621bdde9480ccb799cf70a66e7e251",
  "parentHash": "0x2166323f476d579766c75c2a4c109fff91c34acefbcd40fa865ee3ed16cf4eba",
  "number": 91226,
  "timestamp": 1439652250,
  "nonce": "0xd579c2c761a34698",
  "difficulty": 3447358890184,
  "gasLimit": {
    "_hex": "0x2fefd8"
  },
  "gasUsed": {
    "_hex": "0x5208"
  },
  "miner": "0xe6A7a1d47ff21B6321162AEA7C6CB457D5476Bca",
  "extraData": "0x476574682f76312e302e312d38326566323666362f6c696e75782f676f312e34",
  "transactions": [
    {
      "hash": "0x09c43c77003794ef3460ad9e448c3bb53bd28b2a6625753155c1f1588ac216fd",
      "blockHash": "0x95d5c3101e295688c5ab970bbeda13baf5621bdde9480ccb799cf70a66e7e251",
      "blockNumber": 91226,
      "transactionIndex": 0,
      "confirmations": null,
      "from": "0xD96719eF8eFF64F6e84Fd03120014834F4E76c40",
      "gasPrice": {
        "_hex": "0xcfb132142"
      },
      "gasLimit": {
        "_hex": "0x5208"
      },
      "to": "0x32Be343B94f860124dC4fEe278FDCBD38C102D88",
      "value": {
        "_hex": "0x1a48467b9ab88800"
      },
      "nonce": 3,
      "data": "0x",
      "r": "0x1f0bc9f0d453485335c2e740053110709424514519793deef304089814fd32e7",
      "s": "0x38df78109ce128ccea5acd4719925a402746eca4c9a0836ba2e136b1ecd4ce59",
      "v": 28,
      "creates": null,
      "raw": "0xf86c03850cfb1321428252089432be343b94f860124dc4fee278fdcbd38c102d88881a48467b9ab88800801ca01f0bc9f0d453485335c2e740053110709424514519793deef304089814fd32e7a038df78109ce128ccea5acd4719925a402746eca4c9a0836ba2e136b1ecd4ce59",
      "networkId": 0,
      "chainId": 0
    }
  ]
}