{
  "hash": "0x772ffcff575fa1f988c4391b03b01a219ef839c731a3a7f71a8bdbcb0dfdb7d6",
  "parentHash": "0x802f21fb99ece38be24b90e1f8c2d5e84541e991a9d35083dcbb594098838798",
  "number": 58412,
  "timestamp": 1439120066,
  "nonce": "0x55efe94391931380",
  "difficulty": 1721640973222,
  "gasLimit": {
    "_hex": "0x2fefd5"
  },
  "gasUsed": {
    "_hex": "0x546c"
  },
  "miner": "0x02020D22dCF88f5eDd66B382D7da019F161fB7e3",
  "extraData": "0x",
  "transactions": [
    {
      "hash": "0xa482ce87e61f4e0777e0c49a3bfae1c6a2b28082b4567fe8eca5b91b263d85c6",
      "blockHash": "0x772ffcff575fa1f988c4391b03b01a219ef839c731a3a7f71a8bdbcb0dfdb7d6",
      "blockNumber": 58412,
      "transactionIndex": 0,
      "confirmations": null,
      "from": "0x29C0024a99b44d481694cB5D98907a1343D390fD",
      "gasPrice": {
        "_hex": "0xd7700fc75"
      },
      "gasLimit": {
        "_hex": "0x55f0"
      },
      "to": "0x2910543Af39abA0Cd09dBb2D50200b3E800A63D2",
      "value": {
        "_hex": "0x1158e460913d00000"
      },
      "nonce": 2,
      "data": "0x454e59454557563738",
      "r": "0xa2b25941f7b0d09505e3e5527fe251bfd66366d870d4aea34c3558c142f136ab",
      "s": "0x7c5037f48d7f10947f704a2ff637d35fef00a800b9e026163ffa5a83b9ac6007",
      "v": 28,
      "creates": null,
      "raw": "0xf87602850d7700fc758255f0942910543af39aba0cd09dbb2d50200b3e800a63d28901158e460913d0000089454e594545575637381ca0a2b25941f7b0d09505e3e5527fe251bfd66366d870d4aea34c3558c142f136aba07c5037f48d7f10947f704a2ff637d35fef00a800b9e026163ffa5a83b9ac6007",
      "networkId": 0,
      "chainId": 0
    }
  ]
}