{
  "hash": "0xcffd5d60038c0b92fd05c14666be99171e2a36ee9c0ff8ee657308bd29eaef2b",
  "parentHash": "0x3c7d211360abe84127e9c18e682ee9cee7422f2e2966f55b96dd8f62fc1c013a",
  "number": 102983,
  "timestamp": 1439846017,
  "nonce": "0x18d82a454a2fa33d",
  "difficulty": 4130241069780,
  "gasLimit": {
    "_hex": "0x2fefd8"
  },
  "gasUsed": {
    "_hex": "0x5208"
  },
  "miner": "0x5F8F73E26CdF436f19Cb24C82F90A15AFe55b592",
  "extraData": "0x476574682f76312e302e312f77696e646f77732f676f312e342e32",
  "transactions": [
    {
      "hash": "0xbf94965e93ec67a58db844059291cdd23b7d8f509796d6f7e379e916bad39303",
      "blockHash": "0xcffd5d60038c0b92fd05c14666be99171e2a36ee9c0ff8ee657308bd29eaef2b",
      "blockNumber": 102983,
      "transactionIndex": 0,
      "confirmations": null,
      "from": "0x0D4EcC7d750180EBf4A9Df728B6669B5Bceb5E40",
      "gasPrice": {
        "_hex": "0xd7222cfaa"
      },
      "gasLimit": {
        "_hex": "0x5208"
      },
      "to": "0x32Be343B94f860124dC4fEe278FDCBD38C102D88",
      "value": {
        "_hex": "0x455f42873c0c5800"
      },
      "nonce": 68,
      "data": "0x",
      "r": "0xb73bddd868e592ab2703dbb0880f379bc7a4d37e29147c3727cea64e1bbbbb5d",
      "s": "0x02b61d8b595c6772a2130a24cd325d59275a79ff47c0ceaf080211be39de6af1",
      "v": 27,
      "creates": null,
      "raw": "0xf86c44850d7222cfaa8252089432be343b94f860124dc4fee278fdcbd38c102d8888455f42873c0c5800801ba0b73bddd868e592ab2703dbb0880f379bc7a4d37e29147c3727cea64e1bbbbb5da002b61d8b595c6772a2130a24cd325d59275a79ff47c0ceaf080211be39de6af1",
      "networkId": 0,
      "chainId": 0
    }
  ]
}