{
  "hash": "0xee080ac665e41392c4cacfb5c29165fe7415a887ee0a556b8758dfb40acd5d80",
  "parentHash": "0x3fa2e44bfff69454e890b2dfdb24d4104fb9071f13bd5192290adf7a72ea2938",
  "number": 111633,
  "timestamp": 1439993642,
  "nonce": "0x39e746126ba6b567",
  "difficulty": 4426535043432,
  "gasLimit": {
    "_hex": "0x2fefd8"
  },
  "gasUsed": {
    "_hex": "0x5208"
  },
  "miner": "0x146095feE8714DAfd3ab50d93C04dA070b21114E",
  "extraData": "0x",
  "transactions": [
    {
      "hash": "0x7d90bcb29cbf1cbcd77c34a6e6908ccca70e1232310d8f884a3b768ee2a3340c",
      "blockHash": "0xee080ac665e41392c4cacfb5c29165fe7415a887ee0a556b8758dfb40acd5d80",
      "blockNumber": 111633,
      "transactionIndex": 0,
      "confirmations": null,
      "from": "0x2910543Af39abA0Cd09dBb2D50200b3E800A63D2",
      "gasPrice": {
        "_hex": "0xdbf75b80b"
      },
      "gasLimit": {
        "_hex": "0x5208"
      },
      "to": "0x9f2DCCCF9e6A2601798E05e9ab5Eb6ccf7bAA111",
      "value": {
        "_hex": "0x568ef0fc3701b8000"
      },
      "nonce": 1097,
      "data": "0x",
      "r": "0xd74b272d957e685fef717ea44354d82063211c1b87c6b1771cd6b1739ad66303",
      "s": "0x51a9c3315687a93976e89f365fb542224d3b8c27b864435e6b2337346ed8d4a5",
      "v": 28,
      "creates": null,
      "raw": "0xf86f820449850dbf75b80b825208949f2dcccf9e6a2601798e05e9ab5eb6ccf7baa111890568ef0fc3701b8000801ca0d74b272d957e685fef717ea44354d82063211c1b87c6b1771cd6b1739ad66303a051a9c3315687a93976e89f365fb542224d3b8c27b864435e6b2337346ed8d4a5",
      "networkId": 0,
      "chainId": 0
    }
  ]
}