{
  "hash": "0x5bac59442f8211423b0e2b45d98ea92b9b91c12993204b44d57a99e0fa3bced7",
  "parentHash": "0xe64cb00f6e3c9f5ee42dd6b6b13a591425cd6db2d686f435e896fce4e270c4d2",
  "number": 84677,
  "timestamp": 1439553003,
  "nonce": "0x8f01518ba129e917",
  "difficulty": 2610601056587,
  "gasLimit": {
    "_hex": "0x2fefd8"
  },
  "gasUsed": {
    "_hex": "0xf618"
  },
  "miner": "0xe6A7a1d47ff21B6321162AEA7C6CB457D5476Bca",
  "extraData": "0x476574682f76312e302e312d38326566323666362f6c696e75782f676f312e34",
  "transactions": [
    {
      "hash": "0xe1d965f6f6b28d98e496f1f6b585e2af4be63438f86c2b5ff25c27e81dc17f54",
      "blockHash": "0x5bac59442f8211423b0e2b45d98ea92b9b91c12993204b44d57a99e0fa3bced7",
      "blockNumber": 84677,
      "transactionIndex": 0,
      "confirmations": null,
      "from": "0x120A270bbC009644e35F0bB6ab13f95b8199c4ad",
      "gasPrice": {
        "_hex": "0xd732e8a15"
      },
      "gasLimit": {
        "_hex": "0x3d090"
      },
      "to": "0x11E18eE92d56A8880ba25FAcde9615121eBe5d9B",
      "value": {
        "_hex": "0xa42517a1c9b91800"
      },
      "nonce": 433,
      "data": "0x",
      "r": "0x72fd0ea5d811ce787684551dd9ef4a3f2a8e7bc65ade423a7be315dea80e750c",
      "s": "0x136a990a1b70f9b6abe71bfa79e516390fce133fd1060c45d413a1e1fa5f2cf7",
      "v": 27,
      "creates": null,
      "raw": "0xf86f8201b1850d732e8a158303d0909411e18ee92d56a8880ba25facde9615121ebe5d9b88a42517a1c9b91800801ba072fd0ea5d811ce787684551dd9ef4a3f2a8e7bc65ade423a7be315dea80e750ca0136a990a1b70f9b6abe71bfa79e516390fce133fd1060c45d413a1e1fa5f2cf7",
      "networkId": 0,
      "chainId": 0
    },
    {
      "hash": "0x4c4b62bf2bfe8e422144e97696e4dedc0113048766ee03fb7985f680b4e7c6df",
      "blockHash": "0x5bac59442f8211423b0e2b45d98ea92b9b91c12993204b44d57a99e0fa3bced7",
      "blockNumber": 84677,
      "transactionIndex": 1,
      "confirmations": null,
      "from": "0x723E05fF30e4ba7A87b4D7D459eE5B488A9c36d1",
      "gasPrice": {
        "_hex": "0xd1dbba4cc"
      },
      "gasLimit": {
        "_hex": "0x15f90"
      },
      "to": "0xabceA603089850F8f6bB612A9031554D90A247CF",
      "value": {
        "_hex": "0x34bc4fdde27c0000"
      },
      "nonce": 22,
      "data": "0x",
      "r": "0x1c421534343604e0473ee29221b6a6c0d2df60030e2ac143d5c83ffc4ae9ee53",
      "s": "0x79dd6e8c6df025b2bb0f64999455fa599dc34f27825954c4e188e5e4b80b80df",
      "v": 28,
      "creates": null,
      "raw": "0xf86d16850d1dbba4cc83015f9094abcea603089850f8f6bb612a9031554d90a247cf8834bc4fdde27c0000801ca01c421534343604e0473ee29221b6a6c0d2df60030e2ac143d5c83ffc4ae9ee53a079dd6e8c6df025b2bb0f64999455fa599dc34f27825954c4e188e5e4b80b80df",
      "networkId": 0,
      "chainId": 0
    },
    {
      "hash": "0xcffdda4882097b960c42f47f082a989c8d7659c2a1de7b5e6aaffd216b922a03",
      "blockHash": "0x5bac59442f8211423b0e2b45d98ea92b9b91c12993204b44d57a99e0fa3bced7",
      "blockNumber": 84677,
      "transactionIndex": 2,
      "confirmations": null,
      "from": "0x922a07a31F45e2b18d81AE6eF0467e6f50C9F7A3",
      "gasPrice": {
        "_hex": "0xba43b7400"
      },
      "gasLimit": {
        "_hex": "0x5208"
      },
      "to": "0xC47Aaa860008be6f65B58c6C6E02a84e666EfE31",
      "value": {
        "_hex": "0x25f24c515318abfc40"
      },
      "nonce": 0,
      "data": "0x",
      "r": "0x9eddb863402c40886018e58b0acc904bbcbeb87baff6e64071d650acf4c0f96c",
      "s": "0x5c34cb6be00b17c51a7b369799138be41dfc53e1dd9e8d8b7826b66267a150f6",
      "v": 28,
      "creates": null,
      "raw": "0xf86d80850ba43b740082520894c47aaa860008be6f65b58c6c6e02a84e666efe318925f24c515318abfc40801ca09eddb863402c40886018e58b0acc904bbcbeb87baff6e64071d650acf4c0f96ca05c34cb6be00b17c51a7b369799138be41dfc53e1dd9e8d8b7826b66267a150f6",
      "networkId": 0,
      "chainId": 0
    }
  ]
}