{
  "hash": "0x99cdd91cf4632f003f0625e922f1399c9792995239b2cffa737c2ac6f8eb70df",
  "parentHash": "0x083b0910f6eb2d4a2b5786a673c575f4ec66d6c65fe5b124927bcabee183dad2",
  "number": 74116,
  "timestamp": 1439380678,
  "nonce": "0x3f1ed047443d4afd",
  "difficulty": 2232505724581,
  "gasLimit": {
    "_hex": "0x2fefd8"
  },
  "gasUsed": {
    "_hex": "0x5208"
  },
  "miner": "0xe6A7a1d47ff21B6321162AEA7C6CB457D5476Bca",
  "extraData": "0x476574682f76312e302e312d38326566323666362f6c696e75782f676f312e34",
  "transactions": [
    {
      "hash": "0x6d7198b05052d0db15d6de591dd2700848593dc6a338505d6f79e040e5deb8ec",
      "blockHash": "0x99cdd91cf4632f003f0625e922f1399c9792995239b2cffa737c2ac6f8eb70df",
      "blockNumber": 74116,
      "transactionIndex": 0,
      "confirmations": null,
      "from": "0x62b0559efe3a073EDfe78bBe7CB491A6C65F0806",
      "gasPrice": {
        "_hex": "0xd641f460d"
      },
      "gasLimit": {
        "_hex": "0x15f90"
      },
      "to": "0xb68c4428193f7F71bA7351366022f0c3E81ca552",
      "value": {
        "_hex": "0xde0b6b3a7640000"
      },
      "nonce": 0,
      "data": "0x",
      "r": "0x4b0c1be87475d8ffaac0cf0f01ac8c03f1ba5c395eeb0e929e1ac6167236ff6b",
      "s": "0x36c17083159001000b353cb4e739c27618b45ef6899c6e90632407a06f205220",
      "v": 28,
      "creates": null,
      "raw": "0xf86d80850d641f460d83015f9094b68c4428193f7f71ba7351366022f0c3e81ca552880de0b6b3a7640000801ca04b0c1be87475d8ffaac0cf0f01ac8c03f1ba5c395eeb0e929e1ac6167236ff6ba036c17083159001000b353cb4e739c27618b45ef6899c6e90632407a06f205220",
      "networkId": 0,
      "chainId": 0
    }
  ]
}