{
  "hash": "0xccc7c9079c2676fd813628ad4a8a50af13e4aa045be1c242605bbe72e89db83e",
  "parentHash": "0xb60e2fea656f347fbef155dade4d472b0322440c88933c253e10f44eb75ccc49",
  "number": 119345,
  "timestamp": 1440141192,
  "nonce": "0xa4863d301681ae56",
  "difficulty": 4405225845421,
  "gasLimit": {
    "_hex": "0x2fefd8"
  },
  "gasUsed": {
    "_hex": "0x19a28"
  },
  "miner": "0x52bc44d5378309EE2abF1539BF71dE1b7d7bE3b5",
  "extraData": "0xd783010002844765746887676f312e342e32856c696e7578",
  "transactions": [
    {
      "hash": "0x25b5eb96eb38572197784c7d74a0f7a0bc61fda12bb8d8acaf3ac1123fd24612",
      "blockHash": "0xccc7c9079c2676fd813628ad4a8a50af13e4aa045be1c242605bbe72e89db83e",
      "blockNumber": 119345,
      "transactionIndex": 0,
      "confirmations": null,
      "from": "0xb4eb03c9bDD4944DE22085E8e1dB5Ebd36889Bd8",
      "gasPrice": {
        "_hex": "0xba43b7400"
      },
      "gasLimit": {
        "_hex": "0x5208"
      },
      "to": "0x32Be343B94f860124dC4fEe278FDCBD38C102D88",
      "value": {
        "_hex": "0x1b94c568ebc41c00"
      },
      "nonce": 12,
      "data": "0x",
      "r": "0x4787f4d5f07e2a64f762f0075776b69c9d68a399bc92fa88e81ea31acc7c1e5c",
      "s": "0x5b497b8836afc26cd682a8311f1e3cc33f0bf0c85f8841b32f647d1a8cce709e",
      "v": 27,
      "creates": null,
      "raw": "0xf86c0c850ba43b74008252089432be343b94f860124dc4fee278fdcbd38c102d88881b94c568ebc41c00801ba04787f4d5f07e2a64f762f0075776b69c9d68a399bc92fa88e81ea31acc7c1e5ca05b497b8836afc26cd682a8311f1e3cc33f0bf0c85f8841b32f647d1a8cce709e",
      "networkId": 0,
      "chainId": 0
    },
    {
      "hash": "0x6f089f93e762345712f3b17b545f9635b99b0e998acfb617c6a5a725ff1b1928",
      "blockHash": "0xccc7c9079c2676fd813628ad4a8a50af13e4aa045be1c242605bbe72e89db83e",
      "blockNumber": 119345,
      "transactionIndex": 1,
      "confirmations": null,
      "from": "0xe6A7a1d47ff21B6321162AEA7C6CB457D5476Bca",
      "gasPrice": {
        "_hex": "0xba43b7400"
      },
      "gasLimit": {
        "_hex": "0x55f0"
      },
      "to": "0xD924AAC0bCB65C13bE4044f6BeA8aAe34D7a7126",
      "value": {
        "_hex": "0x59b084b86b568940"
      },
      "nonce": 6187,
      "data": "0x",
      "r": "0xb2f434592b75293fdb0981a2c9c28cfba7e96be665e17d4fa8fc9eb98868e5a2",
      "s": "0x6db795f9b763d895ffb7374c22fe671ff604b48ecd7066695ba7da625a32deae",
      "v": 28,
      "creates": null,
      "raw": "0xf86e82182b850ba43b74008255f094d924aac0bcb65c13be4044f6bea8aae34d7a71268859b084b86b568940801ca0b2f434592b75293fdb0981a2c9c28cfba7e96be665e17d4fa8fc9eb98868e5a2a06db795f9b763d895ffb7374c22fe671ff604b48ecd7066695ba7da625a32deae",
      "networkId": 0,
      "chainId": 0
    },
    {
      "hash": "0x4b5f434cd4c85f6d3d28d2fd9d3260e410ea2f0faba1facf11693b355b368ee7",
      "blockHash": "0xccc7c9079c2676fd813628ad4a8a50af13e4aa045be1c242605bbe72e89db83e",
      "blockNumber": 119345,
      "transactionIndex": 2,
      "confirmations": null,
      "from": "0xa70a9a7040d542C632D8e0bE7c5513A8a5Bbc752",
      "gasPrice": {
        "_hex": "0xba43b7400"
      },
      "gasLimit": {
        "_hex": "0x5208"
      },
      "to": "0x32Be343B94f860124dC4fEe278FDCBD38C102D88",
      "value": {
        "_hex": "0x45905524611f8000"
      },
      "nonce": 320,
      "data": "0x",
      "r": "0x08cded720a8d369b97706910bc20cca9ad91f3f1ea415775de7f649b4c8bb56d",
      "s": "0x7a3c7f013065ef560616be2379f3d3d6365ed37241bff604e72ea7e0004ed5d3",
      "v": 27,
      "creates": null,
      "raw": "0xf86e820140850ba43b74008252089432be343b94f860124dc4fee278fdcbd38c102d888845905524611f8000801ba008cded720a8d369b97706910bc20cca9ad91f3f1ea415775de7f649b4c8bb56da07a3c7f013065ef560616be2379f3d3d6365ed37241bff604e72ea7e0004ed5d3",
      "networkId": 0,
      "chainId": 0
    },
    {
      "hash": "0x70a00e819ca96ab5e08e664ba895ed2def6aabe2148f56ece9aee17e8eda8489",
      "blockHash": "0xccc7c9079c2676fd813628ad4a8a50af13e4aa045be1c242605bbe72e89db83e",
      "blockNumber": 119345,
      "transactionIndex": 3,
      "confirmations": null,
      "from": "0x46e97208BC7F618816Cb502A2b516fb4BC41f1D3",
      "gasPrice": {
        "_hex": "0xba43b7400"
      },
      "gasLimit": {
        "_hex": "0x5208"
      },
      "to": "0x32Be343B94f860124dC4fEe278FDCBD38C102D88",
      "value": {
        "_hex": "0x18e29129b730e400"
      },
      "nonce": 12,
      "data": "0x",
      "r": "0x5929e9a39930a98db46500b0128f9e7f0883deed16d5cfdd4ec8f69acc0f1edf",
      "s": "0x15369f28ee47f444015e8dd2c2bea8ed8fb9fcf5524ae6648e9cb0c90cfc71d2",
      "v": 28,
      "creates": null,
      "raw": "0xf86c0c850ba43b74008252089432be343b94f860124dc4fee278fdcbd38c102d888818e29129b730e400801ca05929e9a39930a98db46500b0128f9e7f0883deed16d5cfdd4ec8f69acc0f1edfa015369f28ee47f444015e8dd2c2bea8ed8fb9fcf5524ae6648e9cb0c90cfc71d2",
      "networkId": 0,
      "chainId": 0
    },
    {
      "hash": "0x339ec75276eca49df21bcce5603f07944b3b11a6de394d47f91fdd464ed89f9f",
      "blockHash": "0xccc7c9079c2676fd813628ad4a8a50af13e4aa045be1c242605bbe72e89db83e",
      "blockNumber": 119345,
      "transactionIndex": 4,
      "confirmations": null,
      "from": "0xe6A7a1d47ff21B6321162AEA7C6CB457D5476Bca",
      "gasPrice": {
        "_hex": "0xba43b7400"
      },
      "gasLimit": {
        "_hex": "0x55f0"
      },
      "to": "0xB1A4B41b8e75a153841c99c62d18588d45e7b406",
      "value": {
        "_hex": "0x59d87b3481fdaaa8"
      },
      "nonce": 6188,
      "data": "0x",
      "r": "0xac0c44d5f951f26dce3ee363d2c91e13c43458b05d4f37a175d85eb917278e75",
      "s": "0x32e4d025b91a1fdbadc6d1009bb969ce3d3f200c68cb2d11627f2f556e5bd9a4",
      "v": 28,
      "creates": null,
      "raw": "0xf86e82182c850ba43b74008255f094b1a4b41b8e75a153841c99c62d18588d45e7b4068859d87b3481fdaaa8801ca0ac0c44d5f951f26dce3ee363d2c91e13c43458b05d4f37a175d85eb917278e75a032e4d025b91a1fdbadc6d1009bb969ce3d3f200c68cb2d11627f2f556e5bd9a4",
      "networkId": 0,
      "chainId": 0
    }
  ]
}