{
  "hash": "0xbf74730830e48187054cf30c9badb125799fa4219b2a9b5e295f0319c4bd3534",
  "parentHash": "0x344e381ee09065a17445aae15caf09883461f371736d6c93af435fe06c45829a",
  "number": 83498,
  "timestamp": 1439536330,
  "nonce": "0xfff70f8779c16155",
  "difficulty": 2432501728403,
  "gasLimit": {
    "_hex": "0x2fefd8"
  },
  "gasUsed": {
    "_hex": "0x14820"
  },
  "miner": "0xe6A7a1d47ff21B6321162AEA7C6CB457D5476Bca",
  "extraData": "0x476574682f76312e302e312d38326566323666362f6c696e75782f676f312e34",
  "transactions": [
    {
      "hash": "0x38adde2166b862e52347d3947e4dbb8112a073f14af069e6c6dfb8bf0917d4a0",
      "blockHash": "0xbf74730830e48187054cf30c9badb125799fa4219b2a9b5e295f0319c4bd3534",
      "blockNumber": 83498,
      "transactionIndex": 0,
      "confirmations": null,
      "from": "0x1a9a2d477B21bf34d80D5c528ff4696278c1786d",
      "gasPrice": {
        "_hex": "0xce8140005"
      },
      "gasLimit": {
        "_hex": "0x5208"
      },
      "to": "0x32Be343B94f860124dC4fEe278FDCBD38C102D88",
      "value": {
        "_hex": "0xad78aa57d63cd8000"
      },
      "nonce": 1,
      "data": "0x",
      "r": "0x09c43297e111b1bfeaad80e67b31ec457b4359c3484a52d96a817dc36c94c5bb",
      "s": "0x0e5a2106c015f91b73cf6922811d6a17d924ab7a739a024583f610d917472881",
      "v": 27,
      "creates": null,
      "raw": "0xf86d01850ce81400058252089432be343b94f860124dc4fee278fdcbd38c102d88890ad78aa57d63cd8000801ba009c43297e111b1bfeaad80e67b31ec457b4359c3484a52d96a817dc36c94c5bba00e5a2106c015f91b73cf6922811d6a17d924ab7a739a024583f610d917472881",
      "networkId": 0,
      "chainId": 0
    },
    {
      "hash": "0x38bc06269f85ace6c38304f401d88ebff8b1bc507343e11615cb3b78dcc7442b",
      "blockHash": "0xbf74730830e48187054cf30c9badb125799fa4219b2a9b5e295f0319c4bd3534",
      "blockNumber": 83498,
      "transactionIndex": 1,
      "confirmations": null,
      "from": "0xa70a9a7040d542C632D8e0bE7c5513A8a5Bbc752",
      "gasPrice": {
        "_hex": "0xce8140005"
      },
      "gasLimit": {
        "_hex": "0x5208"
      },
      "to": "0x32Be343B94f860124dC4fEe278FDCBD38C102D88",
      "value": {
        "_hex": "0x455f79c55e2c0000"
      },
      "nonce": 73,
      "data": "0x",
      "r": "0x04908cc25b1b22bbcc4af23b2849944207f499a800e3d8c7d9c47da948b9bc96",
      "s": "0x2239f262a1f69419449c99ee42b7466cb050882f7e2292d92cc83fc4ac02c64f",
      "v": 28,
      "creates": null,
      "raw": "0xf86c49850ce81400058252089432be343b94f860124dc4fee278fdcbd38c102d8888455f79c55e2c0000801ca004908cc25b1b22bbcc4af23b2849944207f499a800e3d8c7d9c47da948b9bc96a02239f262a1f69419449c99ee42b7466cb050882f7e2292d92cc83fc4ac02c64f",
      "networkId": 0,
      "chainId": 0
    },
    {
      "hash": "0x719953f6615f10437c2cde1fd5d4c27709378bfbd2661c7f8a531e24653c34f9",
      "blockHash": "0xbf74730830e48187054cf30c9badb125799fa4219b2a9b5e295f0319c4bd3534",
      "blockNumber": 83498,
      "transactionIndex": 2,
      "confirmations": null,
      "from": "0xAd941B747c499E3ad5728C285446813783A33564",
      "gasPrice": {
        "_hex": "0xce8140005"
      },
      "gasLimit": {
        "_hex": "0x5208"
      },
      "to": "0x32Be343B94f860124dC4fEe278FDCBD38C102D88",
      "value": {
        "_hex": "0x107a96c9745706000"
      },
      "nonce": 12,
      "data": "0x",
      "r": "0xb85f08fabd6e531cf735756f838d55648af5f700f549a17484974532a59360a2",
      "s": "0x20c9dd2fc52463f7b567fd6beef19849cda960221a914563015689f3bf9cc54c",
      "v": 28,
      "creates": null,
      "raw": "0xf86d0c850ce81400058252089432be343b94f860124dc4fee278fdcbd38c102d88890107a96c9745706000801ca0b85f08fabd6e531cf735756f838d55648af5f700f549a17484974532a59360a2a020c9dd2fc52463f7b567fd6beef19849cda960221a914563015689f3bf9cc54c",
      "networkId": 0,
      "chainId": 0
    },
    {
      "hash": "0xe03dbb71845e0f4942fa7788c0084669cc98207a38d69fe398ef0a94cbf13743",
      "blockHash": "0xbf74730830e48187054cf30c9badb125799fa4219b2a9b5e295f0319c4bd3534",
      "blockNumber": 83498,
      "transactionIndex": 3,
      "confirmations": null,
      "from": "0x32Be343B94f860124dC4fEe278FDCBD38C102D88",
      "gasPrice": {
        "_hex": "0xce8140005"
      },
      "gasLimit": {
        "_hex": "0x5208"
      },
      "to": "0x841B562a690B0808405F6E3713E1efdbebA96021",
      "value": {
        "_hex": "0x1b99cfe6a648c800"
      },
      "nonce": 653,
      "data": "0x",
      "r": "0x4e154fb186bf78cd115d8e25579f7b36b6bdc7bf9d0184ffefed153948052151",
      "s": "0x1e1e29e87bd3613b1334a3c830a0699ebc1463422dfe8dd850f04e8a48763f37",
      "v": 27,
      "creates": null,
      "raw": "0xf86e82028d850ce814000582520894841b562a690b0808405f6e3713e1efdbeba96021881b99cfe6a648c800801ba04e154fb186bf78cd115d8e25579f7b36b6bdc7bf9d0184ffefed153948052151a01e1e29e87bd3613b1334a3c830a0699ebc1463422dfe8dd850f04e8a48763f37",
      "networkId": 0,
      "chainId": 0
    }
  ]
}