{
  "hash": "0x5835bef51ddce4c915bceaf497d0193af3de4814f620c7374ad057b37d47f6b6",
  "parentHash": "0x0688da998746dbbb498a7938cce7023e7462ddbb1e1a008445dfcddce39b42f3",
  "number": 80297,
  "timestamp": 1439483316,
  "nonce": "0x3d55b6502b1666ec",
  "difficulty": 2378220726151,
  "gasLimit": {
    "_hex": "0x2fefd8"
  },
  "gasUsed": {
    "_hex": "0x17a15"
  },
  "miner": "0x434EB5ad1A8d64BEa8A9b24c03a7CA7bf7DefcF2",
  "extraData": "0xd983010001844765746887676f312e342e328777696e646f7773",
  "transactions": [
    {
      "hash": "0xeb1b5d91d3f7b65d12255dc32330a02b22fb6ec9c10229231c81c8ee5c435c21",
      "blockHash": "0x5835bef51ddce4c915bceaf497d0193af3de4814f620c7374ad057b37d47f6b6",
      "blockNumber": 80297,
      "transactionIndex": 0,
      "confirmations": null,
      "from": "0x87C5B5874A18B4306DF8a752a6C8cc3E82daFc19",
      "gasPrice": {
        "_hex": "0x1116cf8ee27"
      },
      "gasLimit": {
        "_hex": "0x493e0"
      },
      "to": "0xC4c51de1AbF5D60DBd329eC0F999Fd8f021ae9fC",
      "value": {
        "_hex": "0x2a9c2b4b893f6af9"
      },
      "nonce": 167,
      "data": "0x8d216186000000000000000000000000000000000000000000000000000000000000001ad3d96ceed0cfca4794c2a5a3d3aeefe69da0a2a669e66a5651f30b64831c3db0",
      "r": "0xdf6f1534926ad9447b83d7efa4afe9e1914d4269c83f772b305204d717d7209e",
      "s": "0x362aa3cf7d8f6009b04bd80454be2a7364183952d19962bead5dd526aad4e4aa",
      "v": 28,
      "creates": null,
      "raw": "0xf8b481a78601116cf8ee27830493e094c4c51de1abf5d60dbd329ec0f999fd8f021ae9fc882a9c2b4b893f6af9b8448d216186000000000000000000000000000000000000000000000000000000000000001ad3d96ceed0cfca4794c2a5a3d3aeefe69da0a2a669e66a5651f30b64831c3db01ca0df6f1534926ad9447b83d7efa4afe9e1914d4269c83f772b305204d717d7209ea0362aa3cf7d8f6009b04bd80454be2a7364183952d19962bead5dd526aad4e4aa",
      "networkId": 0,
      "chainId": 0
    }
  ]
}