{
  "hash": "0x0728b10c24f40ff1a53212c3dfb050379db74d6658d680e241e315a1219e6c66",
  "parentHash": "0xb863690cb7c3e89591f9035a9f6ed74538fdf0f6ed063384bf1009575830394d",
  "number": 74506,
  "timestamp": 1439387102,
  "nonce": "0x9a13f1615242a35e",
  "difficulty": 2217193414340,
  "gasLimit": {
    "_hex": "0x2fefd8"
  },
  "gasUsed": {
    "_hex": "0x5208"
  },
  "miner": "0x93641e54c9aA6F9038FE7Adb03629a1747326Cd6",
  "extraData": "0x476574682f76312e302e312f77696e646f77732f676f312e342e32",
  "transactions": [
    {
      "hash": "0x48da0dd8863be738b411b493c646748dc4daa8217b5fd83a499fbd3b1736cafd",
      "blockHash": "0x0728b10c24f40ff1a53212c3dfb050379db74d6658d680e241e315a1219e6c66",
      "blockNumber": 74506,
      "transactionIndex": 0,
      "confirmations": null,
      "from": "0x0037ce3d4B7f8729C8607D8D0248252Be68202c0",
      "gasPrice": {
        "_hex": "0xdfb3bb8c5"
      },
      "gasLimit": {
        "_hex": "0x15f90"
      },
      "to": "0x8B454d830feF179e66206840F8F3D1d83bC32b17",
      "value": {
        "_hex": "0x2b5e3af16b1880000"
      },
      "nonce": 10,
      "data": "0x",
      "r": "0x888c837549928cc5d7a09112b882e96dfdf1e0570224252b104cea2a3f637c5b",
      "s": "0x60c9db2e929e9af12924f2dd659d8c0083bdcfa5f034a6dcfeab7cfb7c8598be",
      "v": 28,
      "creates": null,
      "raw": "0xf86e0a850dfb3bb8c583015f90948b454d830fef179e66206840f8f3d1d83bc32b178902b5e3af16b1880000801ca0888c837549928cc5d7a09112b882e96dfdf1e0570224252b104cea2a3f637c5ba060c9db2e929e9af12924f2dd659d8c0083bdcfa5f034a6dcfeab7cfb7c8598be",
      "networkId": 0,
      "chainId": 0
    }
  ]
}