{
  "hash": "0xbb2ed818b2b4079a244f423aeae064815633cac60485d2cea55655cfc197c944",
  "parentHash": "0x53d341980c99c3335ad6fd1f16a27ecac34e94a1b5d0a3f1ceceb47c3caa0734",
  "number": 121291,
  "timestamp": 1440174656,
  "nonce": "0xe3eab0668fe15d5d",
  "difficulty": 4417125895709,
  "gasLimit": {
    "_hex": "0x2fefd8"
  },
  "gasUsed": {
    "_hex": "0x5208"
  },
  "miner": "0xe6A7a1d47ff21B6321162AEA7C6CB457D5476Bca",
  "extraData": "0xd783010002844765746887676f312e342e32856c696e7578",
  "transactions": [
    {
      "hash": "0x0f237608995f709c30280db8a5a89a5cb4b2d01242030461910972fd715f2601",
      "blockHash": "0xbb2ed818b2b4079a244f423aeae064815633cac60485d2cea55655cfc197c944",
      "blockNumber": 121291,
      "transactionIndex": 0,
      "confirmations": null,
      "from": "0x867A5221564160c128F2b0EC6b22216c380DdC76",
      "gasPrice": {
        "_hex": "0xba43b7400"
      },
      "gasLimit": {
        "_hex": "0x5208"
      },
      "to": "0x32Be343B94f860124dC4fEe278FDCBD38C102D88",
      "value": {
        "_hex": "0x12347bad21e6f6000"
      },
      "nonce": 0,
      "data": "0x",
      "r": "0xf3abca195a96e32adc981dce2befa5ae55f12ae57908f39f00b4e1cf2da24706",
      "s": "0x16a359b568b6ffc60be0a88f974ffb008df59aae1147aef83faaa098020e833c",
      "v": 27,
      "creates": null,
      "raw": "0xf86d80850ba43b74008252089432be343b94f860124dc4fee278fdcbd38c102d8889012347bad21e6f6000801ba0f3abca195a96e32adc981dce2befa5ae55f12ae57908f39f00b4e1cf2da24706a016a359b568b6ffc60be0a88f974ffb008df59aae1147aef83faaa098020e833c",
      "networkId": 0,
      "chainId": 0
    }
  ]
}