{
  "hash": "0xcf4d16df77119c63d98aabb7e96a5c0392d641a4071f8472f48b7a208111cf7c",
  "parentHash": "0x8b1c30541869646316fbda671a1777e518c63066edba19e21f2afa264ff88a75",
  "number": 80825,
  "timestamp": 1439491510,
  "nonce": "0x3f6dc14ece4831ea",
  "difficulty": 2455956348166,
  "gasLimit": {
    "_hex": "0x2fefd8"
  },
  "gasUsed": {
    "_hex": "0x14820"
  },
  "miner": "0x9746c7e1ef2bd21FF3997fa467593a89cb852BD0",
  "extraData": "0x476574682f76312e302e312f77696e646f77732f676f312e342e32",
  "transactions": [
    {
      "hash": "0x7872a5fe25bbf75ea829f1950b978d222194f0d21d5b6b763203655f63f3000a",
      "blockHash": "0xcf4d16df77119c63d98aabb7e96a5c0392d641a4071f8472f48b7a208111cf7c",
      "blockNumber": 80825,
      "transactionIndex": 0,
      "confirmations": null,
      "from": "0x723E05fF30e4ba7A87b4D7D459eE5B488A9c36d1",
      "gasPrice": {
        "_hex": "0xd6b0a4690"
      },
      "gasLimit": {
        "_hex": "0x15f90"
      },
      "to": "0xabceA603089850F8f6bB612A9031554D90A247CF",
      "value": {
        "_hex": "0x4563918244f40000"
      },
      "nonce": 17,
      "data": "0x",
      "r": "0x5e3c2d1fd79d71d0f01502a7878a9cf93b9a50e14ce2341b10d52b201e1aff7e",
      "s": "0x152fea43c7157bcace80f144574e0cfad03308d63fd87edd44cbe97b658cebac",
      "v": 27,
      "creates": null,
      "raw": "0xf86d11850d6b0a469083015f9094abcea603089850f8f6bb612a9031554d90a247cf884563918244f40000801ba05e3c2d1fd79d71d0f01502a7878a9cf93b9a50e14ce2341b10d52b201e1aff7ea0152fea43c7157bcace80f144574e0cfad03308d63fd87edd44cbe97b658cebac",
      "networkId": 0,
      "chainId": 0
    },
    {
      "hash": "0xa197d75b0ec25ceb9245fc14b0247154eb40edec0fe720f6504f881efec4c5f1",
      "blockHash": "0xcf4d16df77119c63d98aabb7e96a5c0392d641a4071f8472f48b7a208111cf7c",
      "blockNumber": 80825,
      "transactionIndex": 1,
      "confirmations": null,
      "from": "0xeF76c144553e10420Aa7FA2c205Db698AF95bed3",
      "gasPrice": {
        "_hex": "0xd2c32ef7d"
      },
      "gasLimit": {
        "_hex": "0x5208"
      },
      "to": "0x32Be343B94f860124dC4fEe278FDCBD38C102D88",
      "value": {
        "_hex": "0x75f1d864f85cd800"
      },
      "nonce": 3,
      "data": "0x",
      "r": "0x0206e1f55c5d5c60273ebe2fd4b37ec1ad9eaa7fc9ed0800eae304c8740e9ffa",
      "s": "0x5ad7b7b5afd736d48d0a8441351e42988cef01a52cb83eb8e3696b0f3388964a",
      "v": 28,
      "creates": null,
      "raw": "0xf86c03850d2c32ef7d8252089432be343b94f860124dc4fee278fdcbd38c102d888875f1d864f85cd800801ca00206e1f55c5d5c60273ebe2fd4b37ec1ad9eaa7fc9ed0800eae304c8740e9ffaa05ad7b7b5afd736d48d0a8441351e42988cef01a52cb83eb8e3696b0f3388964a",
      "networkId": 0,
      "chainId": 0
    },
    {
      "hash": "0x0187f5971349cce6fb314b89c3605c6234f6da03c632a2d08bcaaddd6e368ca2",
      "blockHash": "0xcf4d16df77119c63d98aabb7e96a5c0392d641a4071f8472f48b7a208111cf7c",
      "blockNumber": 80825,
      "transactionIndex": 2,
      "confirmations": null,
      "from": "0x3620db64D25D412bAb4C8d93E2e0D7e64e8Cb933",
      "gasPrice": {
        "_hex": "0xd2c32ef7d"
      },
      "gasLimit": {
        "_hex": "0x5208"
      },
      "to": "0x32Be343B94f860124dC4fEe278FDCBD38C102D88",
      "value": {
        "_hex": "0x1a3cd53dcacd460000"
      },
      "nonce": 7,
      "data": "0x",
      "r": "0xa0c283ee0f3d1d2df07b7a9232b28f17a47020c7fe7d6fd9fbceba14a9882a79",
      "s": "0x094f611b7edcc754d55cc0e8ff257ae411f22ee6988d7d6e6887e3cf1e46b4fa",
      "v": 28,
      "creates": null,
      "raw": "0xf86d07850d2c32ef7d8252089432be343b94f860124dc4fee278fdcbd38c102d88891a3cd53dcacd460000801ca0a0c283ee0f3d1d2df07b7a9232b28f17a47020c7fe7d6fd9fbceba14a9882a79a0094f611b7edcc754d55cc0e8ff257ae411f22ee6988d7d6e6887e3cf1e46b4fa",
      "networkId": 0,
      "chainId": 0
    },
    {
      "hash": "0x58cb6530cc500986d2f4d5f8573fd779a012d5a5ea35c8eaaf0f26bb9e0fb5b2",
      "blockHash": "0xcf4d16df77119c63d98aabb7e96a5c0392d641a4071f8472f48b7a208111cf7c",
      "blockNumber": 80825,
      "transactionIndex": 3,
      "confirmations": null,
      "from": "0x43279854AaF8825a6d1fcCf056caF190Ab8a7b76",
      "gasPrice": {
        "_hex": "0xd2c32ef7d"
      },
      "gasLimit": {
        "_hex": "0x5208"
      },
      "to": "0x32Be343B94f860124dC4fEe278FDCBD38C102D88",
      "value": {
        "_hex": "0xa2a158d0c1d9780000"
      },
      "nonce": 9,
      "data": "0x",
      "r": "0x92402f5e97a7f8144d4cd5378ebea1f01b89bcd67a8b8397fa055db2f41cc697",
      "s": "0x3ea6f38bf7342e412dcc1b4bd39760028f83cff5987f200844bbe63f69ae950d",
      "v": 27,
      "creates": null,
      "raw": "0xf86d09850d2c32ef7d8252089432be343b94f860124dc4fee278fdcbd38c102d8889a2a158d0c1d9780000801ba092402f5e97a7f8144d4cd5378ebea1f01b89bcd67a8b8397fa055db2f41cc697a03ea6f38bf7342e412dcc1b4bd39760028f83cff5987f200844bbe63f69ae950d",
      "networkId": 0,
      "chainId": 0
    }
  ]
}