{
  "hash": "0x44efb1e095e2b677bb25d7b9e0595da5589cb476908aba0a7b21acf3f0ebf25b",
  "parentHash": "0x5ce1e1ee50d9ae90e896c8d16162ff6d0051191b5528257854d9cbdfecd43dc7",
  "number": 56354,
  "timestamp": 1439085950,
  "nonce": "0x018dcb4ecfeee210",
  "difficulty": 1652860783365,
  "gasLimit": {
    "_hex": "0x2fefd8"
  },
  "gasUsed": {
    "_hex": "0x5208"
  },
  "miner": "0x34f0F706648F334eDf39e555766d4EACD54D61dC",
  "extraData": "0x476574682f76312e302e312d38326566323666362f6c696e75782f676f312e34",
  "transactions": [
    {
      "hash": "0xfe27c442383f51e956b0cbd54b12f2123a76782e383c9b9c2caf1527fab54257",
      "blockHash": "0x44efb1e095e2b677bb25d7b9e0595da5589cb476908aba0a7b21acf3f0ebf25b",
      "blockNumber": 56354,
      "transactionIndex": 0,
      "confirmations": null,
      "from": "0x39d4A931402c0c79c457186F24dF8729cf957031",
      "gasPrice": {
        "_hex": "0xd87e190f6"
      },
      "gasLimit": {
        "_hex": "0x61a8"
      },
      "to": "0xe1F5B8dc9336BC9637eA97c3f3b13Cd363F88854",
      "value": {
        "_hex": "0x2629f66e0c5300000"
      },
      "nonce": 3,
      "data": "0x",
      "r": "0x2669b1b66893dd108ecf8efaa31b128dd78f7c534bfae4294ae09d43299ae5b4",
      "s": "0x05277f8b86d691b76a5f51881db4231f9ed51c8af3557215cf2d3ea4d5e13116",
      "v": 27,
      "creates": null,
      "raw": "0xf86d03850d87e190f68261a894e1f5b8dc9336bc9637ea97c3f3b13cd363f888548902629f66e0c5300000801ba02669b1b66893dd108ecf8efaa31b128dd78f7c534bfae4294ae09d43299ae5b4a005277f8b86d691b76a5f51881db4231f9ed51c8af3557215cf2d3ea4d5e13116",
      "networkId": 0,
      "chainId": 0
    }
  ]
}