{
  "hash": "0x28df25921dbec071c8feaaf55228d02ff7e368001337ded0715a29738c340c8e",
  "parentHash": "0x82d82fba88f115bf300cad803bd3ffa312497041de3756e84d37906c2075ae65",
  "number": 102100,
  "timestamp": 1439832924,
  "nonce": "0x1f7569f75f07790f",
  "difficulty": 3893696648235,
  "gasLimit": {
    "_hex": "0x2fefd8"
  },
  "gasUsed": {
    "_hex": "0x19a28"
  },
  "miner": "0xa50ec0D39fa913E62f1Bae7074E6F36caA71855b",
  "extraData": "0xd783010001844765746887676f312e342e32856c696e7578",
  "transactions": [
    {
      "hash": "0x96da2076b1cca282664472a1b1e0c0e45dfd81325e0c14fbc446aced5d594484",
      "blockHash": "0x28df25921dbec071c8feaaf55228d02ff7e368001337ded0715a29738c340c8e",
      "blockNumber": 102100,
      "transactionIndex": 0,
      "confirmations": null,
      "from": "0xC47Aaa860008be6f65B58c6C6E02a84e666EfE31",
      "gasPrice": {
        "_hex": "0xe2b6ba622"
      },
      "gasLimit": {
        "_hex": "0x15f90"
      },
      "to": "0x0cA19A53a3256482A89770FC1daFC7630717F201",
      "value": {
        "_hex": "0xa4cbe78c10753b671"
      },
      "nonce": 63,
      "data": "0x",
      "r": "0x66811d9b2d8ce8f3b7c439de1894bdbe71d53ce2bbcc518593ca84c63a3d0641",
      "s": "0x01afa08547889be0fc8469fd538ab4473602492e2d69bcae6a35f52cef8637bd",
      "v": 27,
      "creates": null,
      "raw": "0xf86e3f850e2b6ba62283015f90940ca19a53a3256482a89770fc1dafc7630717f201890a4cbe78c10753b671801ba066811d9b2d8ce8f3b7c439de1894bdbe71d53ce2bbcc518593ca84c63a3d0641a001afa08547889be0fc8469fd538ab4473602492e2d69bcae6a35f52cef8637bd",
      "networkId": 0,
      "chainId": 0
    },
    {
      "hash": "0xfffa5f7fd1aa5e7c42f2bf4dffbdede30b7283794d54cfda90800addfbb7cf40",
      "blockHash": "0x28df25921dbec071c8feaaf55228d02ff7e368001337ded0715a29738c340c8e",
      "blockNumber": 102100,
      "transactionIndex": 1,
      "confirmations": null,
      "from": "0xC47Aaa860008be6f65B58c6C6E02a84e666EfE31",
      "gasPrice": {
        "_hex": "0xe2b6ba622"
      },
      "gasLimit": {
        "_hex": "0x15f90"
      },
      "to": "0x3bFc4B3A53996526FA62CD808a89424B6957013c",
      "value": {
        "_hex": "0x622ae743129eaf20"
      },
      "nonce": 64,
      "data": "0x",
      "r": "0xc3581fecde578a697ca51eff8adf16778e31a591b3ef9ec33f22018caa174a4d",
      "s": "0x6df49fa582b9d1ca0be269d796b16dd1b8282e82b65e4bf31f37233cbe3e6ef0",
      "v": 28,
      "creates": null,
      "raw": "0xf86d40850e2b6ba62283015f90943bfc4b3a53996526fa62cd808a89424b6957013c88622ae743129eaf20801ca0c3581fecde578a697ca51eff8adf16778e31a591b3ef9ec33f22018caa174a4da06df49fa582b9d1ca0be269d796b16dd1b8282e82b65e4bf31f37233cbe3e6ef0",
      "networkId": 0,
      "chainId": 0
    },
    {
      "hash": "0xa00318d8c01ce0e55392832e23f7ce06874a2711ce0cb4e32845978ecf5afdc1",
      "blockHash": "0x28df25921dbec071c8feaaf55228d02ff7e368001337ded0715a29738c340c8e",
      "blockNumber": 102100,
      "transactionIndex": 2,
      "confirmations": null,
      "from": "0x6ACfef6b58D6EE01D4BdB53CA81c5D6560824446",
      "gasPrice": {
        "_hex": "0xdaa96517e"
      },
      "gasLimit": {
        "_hex": "0x5208"
      },
      "to": "0x32Be343B94f860124dC4fEe278FDCBD38C102D88",
      "value": {
        "_hex": "0xddc55a19e19e400"
      },
      "nonce": 3,
      "data": "0x",
      "r": "0x27e7d8d2a8fcc9f7edc800c1534e2afdbb88bc3e1ca29c5afff3e6efbb1efadd",
      "s": "0x2c980a5f76607d2c569a8f226f3356f07dbc96040621e3a1e4c3a186d698c0a5",
      "v": 28,
      "creates": null,
      "raw": "0xf86c03850daa96517e8252089432be343b94f860124dc4fee278fdcbd38c102d88880ddc55a19e19e400801ca027e7d8d2a8fcc9f7edc800c1534e2afdbb88bc3e1ca29c5afff3e6efbb1efadda02c980a5f76607d2c569a8f226f3356f07dbc96040621e3a1e4c3a186d698c0a5",
      "networkId": 0,
      "chainId": 0
    },
    {
      "hash": "0xacb433128ea633f337de1960188f16c9e423acbbb83bec771b34aa3d35ea96a5",
      "blockHash": "0x28df25921dbec071c8feaaf55228d02ff7e368001337ded0715a29738c340c8e",
      "blockNumber": 102100,
      "transactionIndex": 3,
      "confirmations": null,
      "from": "0x2533B90f7afF15196EaA7e4719E057c85dEF3A47",
      "gasPrice": {
        "_hex": "0xdaa96517e"
      },
      "gasLimit": {
        "_hex": "0x5208"
      },
      "to": "0x32Be343B94f860124dC4fEe278FDCBD38C102D88",
      "value": {
        "_hex": "0x2b5df593dc98ee000"
      },
      "nonce": 1,
      "data": "0x",
      "r": "0xd3c32689edcd7fa280b0e81df5fff837d37abf5fe0f97229291e2122ea4fc19a",
      "s": "0x5c9aaf6f963ab5c5184b53aa124a9814c84dec0c96313a28eae6287e487f7994",
      "v": 27,
      "creates": null,
      "raw": "0xf86d01850daa96517e8252089432be343b94f860124dc4fee278fdcbd38c102d888902b5df593dc98ee000801ba0d3c32689edcd7fa280b0e81df5fff837d37abf5fe0f97229291e2122ea4fc19aa05c9aaf6f963ab5c5184b53aa124a9814c84dec0c96313a28eae6287e487f7994",
      "networkId": 0,
      "chainId": 0
    },
    {
      "hash": "0x61e4aeb47ab901b481c217c6bc84d7b6a665fbbbcc930ef27b5ec74487e56727",
      "blockHash": "0x28df25921dbec071c8feaaf55228d02ff7e368001337ded0715a29738c340c8e",
      "blockNumber": 102100,
      "transactionIndex": 4,
      "confirmations": null,
      "from": "0xb1abce2918E21ddb93AA452731a12672A3d9F75a",
      "gasPrice": {
        "_hex": "0xdaa96517e"
      },
      "gasLimit": {
        "_hex": "0x5208"
      },
      "to": "0x32Be343B94f860124dC4fEe278FDCBD38C102D88",
      "value": {
        "_hex": "0x8ac2c1f2809de000"
      },
      "nonce": 99,
      "data": "0x",
      "r": "0x054796c2640914a073057f17f892ee7ed39563883a832c1a1cfcbe27755f7561",
      "s": "0x7902403b2fd05936cf385ab678da439196576142b25e0971f97c09bbffc610f4",
      "v": 27,
      "creates": null,
      "raw": "0xf86c63850daa96517e8252089432be343b94f860124dc4fee278fdcbd38c102d88888ac2c1f2809de000801ba0054796c2640914a073057f17f892ee7ed39563883a832c1a1cfcbe27755f7561a07902403b2fd05936cf385ab678da439196576142b25e0971f97c09bbffc610f4",
      "networkId": 0,
      "chainId": 0
    }
  ]
}