{
  "hash": "0x6ab445c9a252cb67eae5e023f1cdbbb606e8f082c50c20d955f58cf5c205cd7d",
  "parentHash": "0x27d12f1b3de7e075d450d6499a974ee823f9ca525339c3984ea59234b35303e1",
  "number": 81635,
  "timestamp": 1439505076,
  "nonce": "0x0ffdf2506060d0e2",
  "difficulty": 2438989316637,
  "gasLimit": {
    "_hex": "0x2fefd8"
  },
  "gasUsed": {
    "_hex": "0x5208"
  },
  "miner": "0xe6A7a1d47ff21B6321162AEA7C6CB457D5476Bca",
  "extraData": "0x476574682f76312e302e312d38326566323666362f6c696e75782f676f312e34",
  "transactions": [
    {
      "hash": "0x3d068f25dbb7ac25ca629fb4b4adbd058db1493833ee0230a5aa49581ad3845d",
      "blockHash": "0x6ab445c9a252cb67eae5e023f1cdbbb606e8f082c50c20d955f58cf5c205cd7d",
      "blockNumber": 81635,
      "transactionIndex": 0,
      "confirmations": null,
      "from": "0x120A270bbC009644e35F0bB6ab13f95b8199c4ad",
      "gasPrice": {
        "_hex": "0xcff4c2b01"
      },
      "gasLimit": {
        "_hex": "0x3d090"
      },
      "to": "0x1D53254e8aeaD8c79d618422A4401517a905CFb8",
      "value": {
        "_hex": "0x56bc75e2d63100000"
      },
      "nonce": 386,
      "data": "0x",
      "r": "0x96965120fe9c0510d1af8d15a4754e233450ce457b04e1a699bc3a3f3b773609",
      "s": "0x5fdcffd25d8816df9fbdf5bfa2cd53967dabd1e7bcf931d62480d0e209b1460b",
      "v": 27,
      "creates": null,
      "raw": "0xf870820182850cff4c2b018303d090941d53254e8aead8c79d618422a4401517a905cfb889056bc75e2d63100000801ba096965120fe9c0510d1af8d15a4754e233450ce457b04e1a699bc3a3f3b773609a05fdcffd25d8816df9fbdf5bfa2cd53967dabd1e7bcf931d62480d0e209b1460b",
      "networkId": 0,
      "chainId": 0
    }
  ]
}