{
  "hash": "0xa3ba3685e0ddad053671371c9322a37e64329eaef62e9366fc3aa84b6e3f4f46",
  "parentHash": "0xea9079dc8711039604db0f99c68864a47239042f337ae484ea595a8d93e8c430",
  "number": 91349,
  "timestamp": 1439654263,
  "nonce": "0x1355d73584d78082",
  "difficulty": 3476042791736,
  "gasLimit": {
    "_hex": "0x2fefd8"
  },
  "gasUsed": {
    "_hex": "0x5208"
  },
  "miner": "0xBF26bdEBFe8e9CCe5f9868Ccb198d03F3de44055",
  "extraData": "0x476574682f76312e302e312f6c696e75782f676f312e342e32",
  "transactions": [
    {
      "hash": "0x8fb33bae4211dda7dcf2d7f34b86bd8ef7e27e75eb68424679dbac4418d3ec03",
      "blockHash": "0xa3ba3685e0ddad053671371c9322a37e64329eaef62e9366fc3aa84b6e3f4f46",
      "blockNumber": 91349,
      "transactionIndex": 0,
      "confirmations": null,
      "from": "0xF8B26B68612287Ee162e0c6ad2415d0BAD041FB6",
      "gasPrice": {
        "_hex": "0xcd08b59f7"
      },
      "gasLimit": {
        "_hex": "0x5208"
      },
      "to": "0x32Be343B94f860124dC4fEe278FDCBD38C102D88",
      "value": {
        "_hex": "0x51dce7899253ac00"
      },
      "nonce": 0,
      "data": "0x",
      "r": "0x7820d8fe94b551b4e81f42ed2b5a05222c56fc9c57bcee005c366cfa190ff4ee",
      "s": "0x274e43187cd62e9a018d505497709a8d8150d9a7d8643e21bb0918a4744bce2e",
      "v": 28,
      "creates": null,
      "raw": "0xf86c80850cd08b59f78252089432be343b94f860124dc4fee278fdcbd38c102d888851dce7899253ac00801ca07820d8fe94b551b4e81f42ed2b5a05222c56fc9c57bcee005c366cfa190ff4eea0274e43187cd62e9a018d505497709a8d8150d9a7d8643e21bb0918a4744bce2e",
      "networkId": 0,
      "chainId": 0
    }
  ]
}