{
  "hash": "0x61c0105eb5084550202752b6bceef688ad5af0cd1d2f8592f8501a1802d0e207",
  "parentHash": "0x0c29bd74ba286abc96d2abd76fc4703b6fbc882ea95cccbbb88a6fcac17be571",
  "number": 117052,
  "timestamp": 1440102866,
  "nonce": "0x033aa037992d9493",
  "difficulty": 4289668273254,
  "gasLimit": {
    "_hex": "0x2fefd8"
  },
  "gasUsed": {
    "_hex": "0x5208"
  },
  "miner": "0xe6A7a1d47ff21B6321162AEA7C6CB457D5476Bca",
  "extraData": "0xd783010002844765746887676f312e342e32856c696e7578",
  "transactions": [
    {
      "hash": "0x823a912f7c1b42bcad91a390c73dcba03d43628898923487db3801f7dbf56bb4",
      "blockHash": "0x61c0105eb5084550202752b6bceef688ad5af0cd1d2f8592f8501a1802d0e207",
      "blockNumber": 117052,
      "transactionIndex": 0,
      "confirmations": null,
      "from": "0x007f7f58D3eb5b7510A301eCC749FC1fCDDBE14D",
      "gasPrice": {
        "_hex": "0xba43b7400"
      },
      "gasLimit": {
        "_hex": "0x15f90"
      },
      "to": "0xb1abce2918E21ddb93AA452731a12672A3d9F75a",
      "value": {
        "_hex": "0x4563918244f40000"
      },
      "nonce": 313,
      "data": "0x",
      "r": "0x6a0d1ba3d4eb946e6e0eb13ef7be1aa2eb3a0a1bb47bb5004ebc674a08601410",
      "s": "0x035eed17c4740ff80786f2efeffa8e615764c2107fe40ad116c98da8920961a7",
      "v": 28,
      "creates": null,
      "raw": "0xf86f820139850ba43b740083015f9094b1abce2918e21ddb93aa452731a12672a3d9f75a884563918244f40000801ca06a0d1ba3d4eb946e6e0eb13ef7be1aa2eb3a0a1bb47bb5004ebc674a08601410a0035eed17c4740ff80786f2efeffa8e615764c2107fe40ad116c98da8920961a7",
      "networkId": 0,
      "chainId": 0
    }
  ]
}