{
  "hash": "0x908b33a3f040fede55c9b217eb4139d9d2ba5a2b8a19d7548d97a414c0a16739",
  "parentHash": "0x9763f7d076afe4e608a3d9240bb3c73d61982b57257a1824a324b9cb75d01363",
  "number": 69524,
  "timestamp": 1439305420,
  "nonce": "0x0b4e95d7df895d9a",
  "difficulty": 2067879246487,
  "gasLimit": {
    "_hex": "0x2fefd8"
  },
  "gasUsed": {
    "_hex": "0xa410"
  },
  "miner": "0x9746c7e1ef2bd21FF3997fa467593a89cb852BD0",
  "extraData": "0x476574682f76312e302e312f77696e646f77732f676f312e342e32",
  "transactions": [
    {
      "hash": "0x91ab5ab20f1a056a361b711ec9469429fa3e07c47f910fda854e4d159db58bd1",
      "blockHash": "0x908b33a3f040fede55c9b217eb4139d9d2ba5a2b8a19d7548d97a414c0a16739",
      "blockNumber": 69524,
      "transactionIndex": 0,
      "confirmations": null,
      "from": "0x34d34F0a638F6991e4E2536F41295DF6E934A646",
      "gasPrice": {
        "_hex": "0xde37afa70"
      },
      "gasLimit": {
        "_hex": "0x5208"
      },
      "to": "0x32Be343B94f860124dC4fEe278FDCBD38C102D88",
      "value": {
        "_hex": "0x10dc44db4ab391000"
      },
      "nonce": 1,
      "data": "0x",
      "r": "0x9e466fb73ebb42dfe4e5b907b519e1351f9746995ab278632372ebba9455a1df",
      "s": "0x7cac7df33e7ac740c854f07e0b13eed2a5f53e46a557d6962c88c1112ef78745",
      "v": 27,
      "creates": null,
      "raw": "0xf86d01850de37afa708252089432be343b94f860124dc4fee278fdcbd38c102d8889010dc44db4ab391000801ba09e466fb73ebb42dfe4e5b907b519e1351f9746995ab278632372ebba9455a1dfa07cac7df33e7ac740c854f07e0b13eed2a5f53e46a557d6962c88c1112ef78745",
      "networkId": 0,
      "chainId": 0
    },
    {
      "hash": "0x617ac014611b314a4a3b08d21804be018b7c0750c71dd93c3cbd01d1b673f962",
      "blockHash": "0x908b33a3f040fede55c9b217eb4139d9d2ba5a2b8a19d7548d97a414c0a16739",
      "blockNumber": 69524,
      "transactionIndex": 1,
      "confirmations": null,
      "from": "0x79d5794171E11dd5C2f0e26E1C187319db2FE6f7",
      "gasPrice": {
        "_hex": "0xde37afa70"
      },
      "gasLimit": {
        "_hex": "0x5208"
      },
      "to": "0x32Be343B94f860124dC4fEe278FDCBD38C102D88",
      "value": {
        "_hex": "0x45b9133c87742400"
      },
      "nonce": 13,
      "data": "0x",
      "r": "0xe6149dacee6489953e5e400542eb1e34eaa250de17d815eec542e83555b078de",
      "s": "0x28b85182c77580055052e30745f3af392ccff66b970f4d1ba14d66919b15cbc2",
      "v": 27,
      "creates": null,
      "raw": "0xf86c0d850de37afa708252089432be343b94f860124dc4fee278fdcbd38c102d888845b9133c87742400801ba0e6149dacee6489953e5e400542eb1e34eaa250de17d815eec542e83555b078dea028b85182c77580055052e30745f3af392ccff66b970f4d1ba14d66919b15cbc2",
      "networkId": 0,
      "chainId": 0
    }
  ]
}