{
  "hash": "0x2680e2e453a1d08a018fc4bb864dfbf4911dfbf637b1b1ead1eca4a66c18ace1",
  "parentHash": "0xeaa5c941e8626b936c60a616f3438e43bb86f4fd947f544025b9af41c993d4fa",
  "number": 84610,
  "timestamp": 1439552061,
  "nonce": "0x5c88e15433baa733",
  "difficulty": 2586514269191,
  "gasLimit": {
    "_hex": "0x2fefd8"
  },
  "gasUsed": {
    "_hex": "0xa410"
  },
  "miner": "0xe6A7a1d47ff21B6321162AEA7C6CB457D5476Bca",
  "extraData": "0x476574682f76312e302e312d38326566323666362f6c696e75782f676f312e34",
  "transactions": [
    {
      "hash": "0x6c8368147b822f3bb141e7470e830d8f1477d68f8956f5ff75f03ae5c8f34948",
      "blockHash": "0x2680e2e453a1d08a018fc4bb864dfbf4911dfbf637b1b1ead1eca4a66c18ace1",
      "blockNumber": 84610,
      "transactionIndex": 0,
      "confirmations": null,
      "from": "0x32Be343B94f860124dC4fEe278FDCBD38C102D88",
      "gasPrice": {
        "_hex": "0xe2bd49190"
      },
      "gasLimit": {
        "_hex": "0x5208"
      },
      "to": "0x25A0be9f6fCbDE4F61024B86a33dd80F7cbB3cEc",
      "value": {
        "_hex": "0x8ac7230489e80000"
      },
      "nonce": 685,
      "data": "0x",
      "r": "0xcaac2071e0aa30089f56ff8ddec4567b8d4b1e151e68a487ab66ddce41e8686a",
      "s": "0x22ecd84b5f772af64acbc7160ce5e73c699a4ebae77d0596d704ba7b536bf6d1",
      "v": 28,
      "creates": null,
      "raw": "0xf86e8202ad850e2bd491908252089425a0be9f6fcbde4f61024b86a33dd80f7cbb3cec888ac7230489e80000801ca0caac2071e0aa30089f56ff8ddec4567b8d4b1e151e68a487ab66ddce41e8686aa022ecd84b5f772af64acbc7160ce5e73c699a4ebae77d0596d704ba7b536bf6d1",
      "networkId": 0,
      "chainId": 0
    },
    {
      "hash": "0x40dace7b7577b6f5385e71d808f570243258d9ba8f71fbd68101029d99ff57aa",
      "blockHash": "0x2680e2e453a1d08a018fc4bb864dfbf4911dfbf637b1b1ead1eca4a66c18ace1",
      "blockNumber": 84610,
      "transactionIndex": 1,
      "confirmations": null,
      "from": "0x32Be343B94f860124dC4fEe278FDCBD38C102D88",
      "gasPrice": {
        "_hex": "0xe2bd49190"
      },
      "gasLimit": {
        "_hex": "0x5208"
      },
      "to": "0x416d7c513C4bB2805acaaa0987DeB82260F9E3AA",
      "value": {
        "_hex": "0x8dd3074b6f0000"
      },
      "nonce": 686,
      "data": "0x",
      "r": "0x3adc7952f2e083106e1b931471dec30a65514e1802121d73f8c7782e6b431022",
      "s": "0x6e8616d4320a0a65ece5253988be58be89bb4a08b700a8b7475a766672ee5752",
      "v": 27,
      "creates": null,
      "raw": "0xf86d8202ae850e2bd4919082520894416d7c513c4bb2805acaaa0987deb82260f9e3aa878dd3074b6f0000801ba03adc7952f2e083106e1b931471dec30a65514e1802121d73f8c7782e6b431022a06e8616d4320a0a65ece5253988be58be89bb4a08b700a8b7475a766672ee5752",
      "networkId": 0,
      "chainId": 0
    }
  ]
}