{
  "hash": "0xe390dbcebae0c8ba4e87b0aabac5963015ac8322a9d1ce2f5f1074b794947584",
  "parentHash": "0xfe55014554a117f3aa54154e1136536f38c3f86f4e7d79575526dfcd5b9088e6",
  "number": 73179,
  "timestamp": 1439364370,
  "nonce": "0x47d4b6defce35c35",
  "difficulty": 2220794917884,
  "gasLimit": {
    "_hex": "0x2fefd8"
  },
  "gasUsed": {
    "_hex": "0xcc72"
  },
  "miner": "0xa70a9a7040d542C632D8e0bE7c5513A8a5Bbc752",
  "extraData": "0x",
  "transactions": [
    {
      "hash": "0x33929412bda3d3e6843ff345ea1b3016c29b80adf62559f08a5e714da36c72cf",
      "blockHash": "0xe390dbcebae0c8ba4e87b0aabac5963015ac8322a9d1ce2f5f1074b794947584",
      "blockNumber": 73179,
      "transactionIndex": 0,
      "confirmations": null,
      "from": "0x40B9b889A21Ff1534d018D71Dc406122EBcf3F5A",
      "gasPrice": {
        "_hex": "0x108127f7887"
      },
      "gasLimit": {
        "_hex": "0x15f90"
      },
      "to": "0x50Da60D4Da4c04E154eA22AF84437e69Dd6dA401",
      "value": {
        "_hex": "0x16345785d8a0000"
      },
      "nonce": 4,
      "data": "0x",
      "r": "0xc6558de76e3692fcf3fba3438fd9a4783858a5e7ee4b12c039fa5bc2aa2c1732",
      "s": "0x6531a9c47da1143d782e2c1f91ba66ffbc10d761be53fe30209fb35e2c00e3cd",
      "v": 28,
      "creates": null,
      "raw": "0xf86e04860108127f788783015f909450da60d4da4c04e154ea22af84437e69dd6da40188016345785d8a0000801ca0c6558de76e3692fcf3fba3438fd9a4783858a5e7ee4b12c039fa5bc2aa2c1732a06531a9c47da1143d782e2c1f91ba66ffbc10d761be53fe30209fb35e2c00e3cd",
      "networkId": 0,
      "chainId": 0
    },
    {
      "hash": "0x9aafd376d62b6ef4bbc0e6300f3c988a63644fade0276a532ec32265b2802193",
      "blockHash": "0xe390dbcebae0c8ba4e87b0aabac5963015ac8322a9d1ce2f5f1074b794947584",
      "blockNumber": 73179,
      "transactionIndex": 1,
      "confirmations": null,
      "from": "0x008FC7CBAdFFbD0D7fe44F8DFD60a79d721a1c9C",
      "gasPrice": {
        "_hex": "0xcff6f2d10"
      },
      "gasLimit": {
        "_hex": "0x30d40"
      },
      "to": "0x3e4Bd3AEA13f59b9502073b7a03Cfb52ECecc997",
      "value": {
        "_hex": "0x71afd498d0000"
      },
      "nonce": 7,
      "data": "0x",
      "r": "0x2c55253f86568a214627b1196c45032f45ea26d9baa86daa16670a512794139f",
      "s": "0x0de733be53e34c27e454182294dd4a198b6ea4e6dbbbc33cc3cf6d65e20c35a2",
      "v": 28,
      "creates": null,
      "raw": "0xf86c07850cff6f2d1083030d40943e4bd3aea13f59b9502073b7a03cfb52ececc99787071afd498d0000801ca02c55253f86568a214627b1196c45032f45ea26d9baa86daa16670a512794139fa00de733be53e34c27e454182294dd4a198b6ea4e6dbbbc33cc3cf6d65e20c35a2",
      "networkId": 0,
      "chainId": 0
    }
  ]
}