{
  "hash": "0x2177dbfb54b92c6cbd8e0daca8996ece733012739545c71894fd4af1156389a0",
  "parentHash": "0x074f849ce9cbbdc4fbe1d57d351d3133a5fafea6f514dcf233b8e79f11c42c56",
  "number": 85205,
  "timestamp": 1439560005,
  "nonce": "0xa5e9480aaac9e58b",
  "difficulty": 2749104875255,
  "gasLimit": {
    "_hex": "0x2fefd8"
  },
  "gasUsed": {
    "_hex": "0x5208"
  },
  "miner": "0x9D49F602b0fdb924Bd63DDE2Bd0907E4A07c63a7",
  "extraData": "0x476574682f76312e302e312f6c696e75782f676f312e342e32",
  "transactions": [
    {
      "hash": "0x509012a94051c090156ecd3b0fab144b788d8af5de183d5e4069ffa9b234bef2",
      "blockHash": "0x2177dbfb54b92c6cbd8e0daca8996ece733012739545c71894fd4af1156389a0",
      "blockNumber": 85205,
      "transactionIndex": 0,
      "confirmations": null,
      "from": "0xB12eD07b8a38AD5506363fC07a0b6d799936bDaF",
      "gasPrice": {
        "_hex": "0xd3d37f23a"
      },
      "gasLimit": {
        "_hex": "0x15f90"
      },
      "to": "0x04936E4b4AE7a0F12Eb3677c2389e5DBDd514d89",
      "value": {
        "_hex": "0x6aaf7c8516d0c0000"
      },
      "nonce": 0,
      "data": "0x",
      "r": "0x29ea5060d1b0e10895a30c7d1e53b417588db47bb8d6cc0f41f7282cf8daf7e2",
      "s": "0x4083f1f35b48d1dd4d7c412306b75ed710ec15ad6418b76ef0d48d9a45a11382",
      "v": 28,
      "creates": null,
      "raw": "0xf86e80850d3d37f23a83015f909404936e4b4ae7a0f12eb3677c2389e5dbdd514d898906aaf7c8516d0c0000801ca029ea5060d1b0e10895a30c7d1e53b417588db47bb8d6cc0f41f7282cf8daf7e2a04083f1f35b48d1dd4d7c412306b75ed710ec15ad6418b76ef0d48d9a45a11382",
      "networkId": 0,
      "chainId": 0
    }
  ]
}