{
  "hash": "0x2a78b21000841317fc77ec517e9ac895c04b9d5b6ccc091f4f0e127a8b8e58aa",
  "parentHash": "0xb2010967a8be9ec1bf7d5c96bb5074637dd11f3b5b7f626fa8fe2c4c7167774f",
  "number": 101092,
  "timestamp": 1439817380,
  "nonce": "0xf0afcfd117f03d6f",
  "difficulty": 3856320686083,
  "gasLimit": {
    "_hex": "0x2fefd5"
  },
  "gasUsed": {
    "_hex": "0x14820"
  },
  "miner": "0xC6A5D22D1DDd24B32a308bA4A49ec3cA38a2D0A6",
  "extraData": "0x",
  "transactions": [
    {
      "hash": "0x2b4f5745ac575edbdd7ecd1bcdef237ad687213a889637623a01f75a0e951b72",
      "blockHash": "0x2a78b21000841317fc77ec517e9ac895c04b9d5b6ccc091f4f0e127a8b8e58aa",
      "blockNumber": 101092,
      "transactionIndex": 0,
      "confirmations": null,
      "from": "0x007f7f58D3eb5b7510A301eCC749FC1fCDDBE14D",
      "gasPrice": {
        "_hex": "0xe0cfe7246"
      },
      "gasLimit": {
        "_hex": "0x15f90"
      },
      "to": "0xb1abce2918E21ddb93AA452731a12672A3d9F75a",
      "value": {
        "_hex": "0x4563918244f40000"
      },
      "nonce": 179,
      "data": "0x",
      "r": "0xffbc0e0946e77e29e8ace09e04b40975411da22e658211d3fe07151c016f5473",
      "s": "0x2e2b6b368a993366dee6ebd2652c87f4d91a2b65ec7aebb0ccc8686f3eb119ef",
      "v": 27,
      "creates": null,
      "raw": "0xf86e81b3850e0cfe724683015f9094b1abce2918e21ddb93aa452731a12672a3d9f75a884563918244f40000801ba0ffbc0e0946e77e29e8ace09e04b40975411da22e658211d3fe07151c016f5473a02e2b6b368a993366dee6ebd2652c87f4d91a2b65ec7aebb0ccc8686f3eb119ef",
      "networkId": 0,
      "chainId": 0
    },
    {
      "hash": "0x13b1085b502d8e88be1c904864f498b1c1444d9e51cdbb44bff89781f8363593",
      "blockHash": "0x2a78b21000841317fc77ec517e9ac895c04b9d5b6ccc091f4f0e127a8b8e58aa",
      "blockNumber": 101092,
      "transactionIndex": 1,
      "confirmations": null,
      "from": "0xb1abce2918E21ddb93AA452731a12672A3d9F75a",
      "gasPrice": {
        "_hex": "0xd0fe8289f"
      },
      "gasLimit": {
        "_hex": "0x5208"
      },
      "to": "0x32Be343B94f860124dC4fEe278FDCBD38C102D88",
      "value": {
        "_hex": "0x455f6203d4d9b000"
      },
      "nonce": 83,
      "data": "0x",
      "r": "0xc91f214682b593ae93c7d98aae3e1f69ae54ea1c3eb2423de13019d0882ba6c5",
      "s": "0x4be01f913aac295283a2b5449d26a68a90affea9816f10f606cc3367777b1286",
      "v": 27,
      "creates": null,
      "raw": "0xf86c53850d0fe8289f8252089432be343b94f860124dc4fee278fdcbd38c102d8888455f6203d4d9b000801ba0c91f214682b593ae93c7d98aae3e1f69ae54ea1c3eb2423de13019d0882ba6c5a04be01f913aac295283a2b5449d26a68a90affea9816f10f606cc3367777b1286",
      "networkId": 0,
      "chainId": 0
    },
    {
      "hash": "0x586eeb4a9dfae3358d765448268f929b84c1988b5954af338e17da1adc7873e6",
      "blockHash": "0x2a78b21000841317fc77ec517e9ac895c04b9d5b6ccc091f4f0e127a8b8e58aa",
      "blockNumber": 101092,
      "transactionIndex": 2,
      "confirmations": null,
      "from": "0x8b687892C6Cf88925ddD772718782A864e5353Df",
      "gasPrice": {
        "_hex": "0xcef2b8689"
      },
      "gasLimit": {
        "_hex": "0x5208"
      },
      "to": "0x32Be343B94f860124dC4fEe278FDCBD38C102D88",
      "value": {
        "_hex": "0x3b2b4dd465f0ec000"
      },
      "nonce": 4,
      "data": "0x",
      "r": "0xa19b5b655d5faba5603a451062e193c3cd8e0ff5163bac1da8789a33c5c3fc49",
      "s": "0x2faa593a400bb8873f29a5f0d15c558c18ce000dca27f02a05d7c32798e8cd0e",
      "v": 27,
      "creates": null,
      "raw": "0xf86d04850cef2b86898252089432be343b94f860124dc4fee278fdcbd38c102d888903b2b4dd465f0ec000801ba0a19b5b655d5faba5603a451062e193c3cd8e0ff5163bac1da8789a33c5c3fc49a02faa593a400bb8873f29a5f0d15c558c18ce000dca27f02a05d7c32798e8cd0e",
      "networkId": 0,
      "chainId": 0
    },
    {
      "hash": "0x465b94c3a6d655f6e86e01949cf974f4dee1ae25ec01a01c21bd5a62be5fb02e",
      "blockHash": "0x2a78b21000841317fc77ec517e9ac895c04b9d5b6ccc091f4f0e127a8b8e58aa",
      "blockNumber": 101092,
      "transactionIndex": 3,
      "confirmations": null,
      "from": "0xBb7f43EDfd8bf08B022fEd5BD91e3f9dE7e74D09",
      "gasPrice": {
        "_hex": "0xcef2b8689"
      },
      "gasLimit": {
        "_hex": "0x5208"
      },
      "to": "0x32Be343B94f860124dC4fEe278FDCBD38C102D88",
      "value": {
        "_hex": "0x455f6c7e0a5bb000"
      },
      "nonce": 0,
      "data": "0x",
      "r": "0x963e6a54ac216abef7954ded5420348701fad282d300de7092a41d0b40a008b5",
      "s": "0x504bd50305b0698e4e26995730abb7b5bb588b34a7e82506381353e01fd673ac",
      "v": 28,
      "creates": null,
      "raw": "0xf86c80850cef2b86898252089432be343b94f860124dc4fee278fdcbd38c102d8888455f6c7e0a5bb000801ca0963e6a54ac216abef7954ded5420348701fad282d300de7092a41d0b40a008b5a0504bd50305b0698e4e26995730abb7b5bb588b34a7e82506381353e01fd673ac",
      "networkId": 0,
      "chainId": 0
    }
  ]
}