{
  "hash": "0x77496605c0889394627dcdce269e7e4ddc003f630ca34885a2bef2ad1ecc0382",
  "parentHash": "0x1720d93168b05a48b723bd7e6651c4ae3d2a39598c1e04eb99e52ced865c0e8d",
  "number": 120681,
  "timestamp": 1440164132,
  "nonce": "0xa4fceb731d6326a5",
  "difficulty": 4421763131142,
  "gasLimit": {
    "_hex": "0x2fefd8"
  },
  "gasUsed": {
    "_hex": "0x5208"
  },
  "miner": "0xe6A7a1d47ff21B6321162AEA7C6CB457D5476Bca",
  "extraData": "0xd783010002844765746887676f312e342e32856c696e7578",
  "transactions": [
    {
      "hash": "0xc96c7fd836152a1c5064c0f638a7b0ee9c53167c9cd526b0d43a1ab2f15d2e9e",
      "blockHash": "0x77496605c0889394627dcdce269e7e4ddc003f630ca34885a2bef2ad1ecc0382",
      "blockNumber": 120681,
      "transactionIndex": 0,
      "confirmations": null,
      "from": "0x65C40Ee4e07E09671fF3cE2dff2AcCbE366bb5C8",
      "gasPrice": {
        "_hex": "0xba43b7400"
      },
      "gasLimit": {
        "_hex": "0x5208"
      },
      "to": "0x32Be343B94f860124dC4fEe278FDCBD38C102D88",
      "value": {
        "_hex": "0xb29756e495c92000"
      },
      "nonce": 8,
      "data": "0x",
      "r": "0x79226acfd38b9a78355b996a78c2e868be9323302cad2ba35c6d2df975f04a5d",
      "s": "0x085493a9e572a30bf2780638dcb6dab838fa5ad2002d6fe0b095c6a56ee1349c",
      "v": 28,
      "creates": null,
      "raw": "0xf86c08850ba43b74008252089432be343b94f860124dc4fee278fdcbd38c102d8888b29756e495c92000801ca079226acfd38b9a78355b996a78c2e868be9323302cad2ba35c6d2df975f04a5da0085493a9e572a30bf2780638dcb6dab838fa5ad2002d6fe0b095c6a56ee1349c",
      "networkId": 0,
      "chainId": 0
    }
  ]
}