{
  "hash": "0x84376ccb11952741bfbdeae2c7d1531abe6bb3b9df57ba1fea20b8a04778c244",
  "parentHash": "0x7d2ee2870a25b2a5fb805faa9450cd5734fa7cfd54d41799d6ce5b33e154e8e2",
  "number": 59137,
  "timestamp": 1439132611,
  "nonce": "0xa8a59f1aad58dd4b",
  "difficulty": 1717294447995,
  "gasLimit": {
    "_hex": "0x2fe3de"
  },
  "gasUsed": {
    "_hex": "0x5208"
  },
  "miner": "0x70C6b45fe0A5116E97B112B806A76E2F51E24413",
  "extraData": "0x476574682f76312e302e302f77696e646f77732f676f312e342e32",
  "transactions": [
    {
      "hash": "0x98759b90582e0092e27f716d8df69f0e25134d94cc63b06cbb046a684fe5133f",
      "blockHash": "0x84376ccb11952741bfbdeae2c7d1531abe6bb3b9df57ba1fea20b8a04778c244",
      "blockNumber": 59137,
      "transactionIndex": 0,
      "confirmations": null,
      "from": "0x5161fd49E847F67455f1C8Bb7abb36e985260D03",
      "gasPrice": {
        "_hex": "0x1172ffbbce0"
      },
      "gasLimit": {
        "_hex": "0x15f90"
      },
      "to": "0xDeDbaA6D17975d4edc31195983F9AFaB1529CD47",
      "value": {
        "_hex": "0x448586170a7dc0000"
      },
      "nonce": 2,
      "data": "0x",
      "r": "0xcaf7e74a5643545d7f13b333e26a1e5a2d3f2281e64de443c0febcb7d43b9969",
      "s": "0x0a9936f9f4235d7a3eae2d6fbb8da672d49e6ff7011178855bcaba4525ffb85d",
      "v": 27,
      "creates": null,
      "raw": "0xf86f028601172ffbbce083015f9094dedbaa6d17975d4edc31195983f9afab1529cd47890448586170a7dc0000801ba0caf7e74a5643545d7f13b333e26a1e5a2d3f2281e64de443c0febcb7d43b9969a00a9936f9f4235d7a3eae2d6fbb8da672d49e6ff7011178855bcaba4525ffb85d",
      "networkId": 0,
      "chainId": 0
    }
  ]
}