{
  "hash": "0x400137d417917f8d28a25c3f89f0a612843b750d9ad29b20bc2e1fef6d687a30",
  "parentHash": "0x0efcd0c5966d0682ceb28c5426e91376c49961de6d300e9c046b2d99fe8e148f",
  "number": 90364,
  "timestamp": 1439638718,
  "nonce": "0x16000e7f9c75b884",
  "difficulty": 3328610349496,
  "gasLimit": {
    "_hex": "0x2fefd8"
  },
  "gasUsed": {
    "_hex": "0x5208"
  },
  "miner": "0xe6A7a1d47ff21B6321162AEA7C6CB457D5476Bca",
  "extraData": "0x476574682f76312e302e312d38326566323666362f6c696e75782f676f312e34",
  "transactions": [
    {
      "hash": "0x1f3238026252b7f2c9f95b1b2db8db145e22b818035ac644b2d57ba152c243bb",
      "blockHash": "0x400137d417917f8d28a25c3f89f0a612843b750d9ad29b20bc2e1fef6d687a30",
      "blockNumber": 90364,
      "transactionIndex": 0,
      "confirmations": null,
      "from": "0x859217617481BD9b6E3e38f6aE9BB677F0D26154",
      "gasPrice": {
        "_hex": "0xdcc6bfb27"
      },
      "gasLimit": {
        "_hex": "0x5208"
      },
      "to": "0x32Be343B94f860124dC4fEe278FDCBD38C102D88",
      "value": {
        "_hex": "0x3635c536c89d660000"
      },
      "nonce": 2,
      "data": "0x",
      "r": "0x96bb23a1482c93a0995da44188e3d545e72fa843b81ed23e2f3830466ddd66c1",
      "s": "0x711df1f66f328a0940d9f3565b4a55082c666c05002d4a8ad21e4297ff323413",
      "v": 27,
      "creates": null,
      "raw": "0xf86d02850dcc6bfb278252089432be343b94f860124dc4fee278fdcbd38c102d88893635c536c89d660000801ba096bb23a1482c93a0995da44188e3d545e72fa843b81ed23e2f3830466ddd66c1a0711df1f66f328a0940d9f3565b4a55082c666c05002d4a8ad21e4297ff323413",
      "networkId": 0,
      "chainId": 0
    }
  ]
}