{
  "hash": "0x896a238004636eacc8e842200de188065956b6af0447e5cd2ff0427e5ab2750b",
  "parentHash": "0x723233e898dec7c7d79a849e093a5de591e0626354ee42e0cefcef321124a41b",
  "number": 119650,
  "timestamp": 1440146481,
  "nonce": "0xf3290f734744d4e2",
  "difficulty": 4385749951999,
  "gasLimit": {
    "_hex": "0x2fefd8"
  },
  "gasUsed": {
    "_hex": "0x5208"
  },
  "miner": "0x790b8a3cE86E707ED0eD32bF89B3269692a23CC1",
  "extraData": "0xd783010002844765746887676f312e342e32856c696e7578",
  "transactions": [
    {
      "hash": "0x9defc9ab72a129472151d00105121e4cf4931e2bd7df0d01862470f384e3470a",
      "blockHash": "0x896a238004636eacc8e842200de188065956b6af0447e5cd2ff0427e5ab2750b",
      "blockNumber": 119650,
      "transactionIndex": 0,
      "confirmations": null,
      "from": "0x8312c82650D4A0bF2393eCE0554f650dA73eD14b",
      "gasPrice": {
        "_hex": "0xba43b7400"
      },
      "gasLimit": {
        "_hex": "0x5208"
      },
      "to": "0xFBb1b73C4f0BDa4f67dcA266ce6Ef42f520fBB98",
      "value": {
        "_hex": "0xddcfbbb7a606000"
      },
      "nonce": 0,
      "data": "0x",
      "r": "0xdd017fda54825944c526ce79c1610e7ad6185a37328edb9a4363a76f2821f56c",
      "s": "0x2a72bbcaa499386de265a92d8665ab233ba815ae068025df2189f443eec6ac51",
      "v": 28,
      "creates": null,
      "raw": "0xf86c80850ba43b740082520894fbb1b73c4f0bda4f67dca266ce6ef42f520fbb98880ddcfbbb7a606000801ca0dd017fda54825944c526ce79c1610e7ad6185a37328edb9a4363a76f2821f56ca02a72bbcaa499386de265a92d8665ab233ba815ae068025df2189f443eec6ac51",
      "networkId": 0,
      "chainId": 0
    }
  ]
}