{
  "hash": "0x32d81b09579b536055f67092f4c04e28b82e625ef32ff2cb1170553128e2f295",
  "parentHash": "0xf91de311d6af6e8569e17fbe287edbae204e51d284a9bb62b8688410775347df",
  "number": 74902,
  "timestamp": 1439394407,
  "nonce": "0xa2b316b0998dfb09",
  "difficulty": 2191258881677,
  "gasLimit": {
    "_hex": "0x2fefd8"
  },
  "gasUsed": {
    "_hex": "0x5208"
  },
  "miner": "0xf927a40C8B7F6E07c5af7FA2155B4864a4112B13",
  "extraData": "0x",
  "transactions": [
    {
      "hash": "0x834d5c7e0d46aaabb28c9d433a67a369a75e7716015ec5ddaf28aa5283d97b4c",
      "blockHash": "0x32d81b09579b536055f67092f4c04e28b82e625ef32ff2cb1170553128e2f295",
      "blockNumber": 74902,
      "transactionIndex": 0,
      "confirmations": null,
      "from": "0x2bCdBcd7A2323bA65c13FeB8b267D9738bb18bA3",
      "gasPrice": {
        "_hex": "0xd33a611a7"
      },
      "gasLimit": {
        "_hex": "0x5208"
      },
      "to": "0x7339BF89A60F8a29d0Ed436F3198774F8e191f37",
      "value": {
        "_hex": "0x67873e79a86a0000"
      },
      "nonce": 0,
      "data": "0x",
      "r": "0xa2be5a0a470787008a7810cd5919da0bb174582693fc1be3a60e048ee002e932",
      "s": "0x4a04f9cf40346d7419693d0527ab819e6bdb9b2e862b283c1c5635bc79e0ee8a",
      "v": 28,
      "creates": null,
      "raw": "0xf86c80850d33a611a7825208947339bf89a60f8a29d0ed436f3198774f8e191f378867873e79a86a0000801ca0a2be5a0a470787008a7810cd5919da0bb174582693fc1be3a60e048ee002e932a04a04f9cf40346d7419693d0527ab819e6bdb9b2e862b283c1c5635bc79e0ee8a",
      "networkId": 0,
      "chainId": 0
    }
  ]
}