{
  "hash": "0xfacb24fcc8390d82fa3bf43cb35ad515057ea1bd601ef9d637309a9c044456dd",
  "parentHash": "0xc3a7b525b8db81be646f585ffa661073dc99f322a46930f1ae67ccbe6684df48",
  "number": 64958,
  "timestamp": 1439229020,
  "nonce": "0x7d5c07033d63f3e0",
  "difficulty": 1913516917539,
  "gasLimit": {
    "_hex": "0x2fefd8"
  },
  "gasUsed": {
    "_hex": "0x5208"
  },
  "miner": "0x31995C46B15C84523cDEE26f49A681b8237e43F5",
  "extraData": "0x476574682f76312e302e312f77696e646f77732f676f312e342e32",
  "transactions": [
    {
      "hash": "0x27d74f15350d803580fa8b08a9a707d5c06ca687e85556b476406b41852fb615",
      "blockHash": "0xfacb24fcc8390d82fa3bf43cb35ad515057ea1bd601ef9d637309a9c044456dd",
      "blockNumber": 64958,
      "transactionIndex": 0,
      "confirmations": null,
      "from": "0x2910543Af39abA0Cd09dBb2D50200b3E800A63D2",
      "gasPrice": {
        "_hex": "0xd9935026c"
      },
      "gasLimit": {
        "_hex": "0x5208"
      },
      "to": "0x105D15475A1a83ee69CC0Df3671112145f4EbDe0",
      "value": {
        "_hex": "0xbabd17dd175b98000"
      },
      "nonce": 162,
      "data": "0x",
      "r": "0x84242fbb608cf370c06b37b193635cc84ceb803a54c27f100f68a375ee66aa9d",
      "s": "0x73857cbff7f48589ba1a298332a2621b470715deaf17c04fc047e019b41709dc",
      "v": 27,
      "creates": null,
      "raw": "0xf86e81a2850d9935026c82520894105d15475a1a83ee69cc0df3671112145f4ebde0890babd17dd175b98000801ba084242fbb608cf370c06b37b193635cc84ceb803a54c27f100f68a375ee66aa9da073857cbff7f48589ba1a298332a2621b470715deaf17c04fc047e019b41709dc",
      "networkId": 0,
      "chainId": 0
    }
  ]
}