{
  "hash": "0x90984ea46c853faaa9998532bfa8c74e4fb277da3f5b6108360b6d4da870bd75",
  "parentHash": "0x67f38747128243a176a4fde554b5a46c7024e36246d8eb923cb61e0b6cd03dd0",
  "number": 48535,
  "timestamp": 1438958603,
  "nonce": "0x4b2f298e841086c3",
  "difficulty": 1472174359869,
  "gasLimit": {
    "_hex": "0x1910a"
  },
  "gasUsed": {
    "_hex": "0x546c"
  },
  "miner": "0x157c6f2431eB1a95797EE86F7d17b3c0FD47A247",
  "extraData": "0x476574682f76312e302e312f77696e646f77732f676f312e342e32",
  "transactions": [
    {
      "hash": "0x703629b41192c026f92f9d4ace589a4caecfb156bb633b63027aa769cf3e3a1d",
      "blockHash": "0x90984ea46c853faaa9998532bfa8c74e4fb277da3f5b6108360b6d4da870bd75",
      "blockNumber": 48535,
      "transactionIndex": 0,
      "confirmations": null,
      "from": "0x7c8Bb65a6fBB49bD413396a9D7e31053bBB37aA9",
      "gasPrice": {
        "_hex": "0xd9aa458d6"
      },
      "gasLimit": {
        "_hex": "0x15f90"
      },
      "to": "0x2910543Af39abA0Cd09dBb2D50200b3E800A63D2",
      "value": {
        "_hex": "0x6c6b935b8bbd400000"
      },
      "nonce": 0,
      "data": "0x454e484e5150543852",
      "r": "0x4436306b17829ad4a74f9f36d62c7d08392ca32740d9c70d7754af57edd0d4a3",
      "s": "0x36ffde76f74bcf4db752a74ea2b2322b78af1de395b614a9e3fbd0b2543b09d5",
      "v": 27,
      "creates": null,
      "raw": "0xf87780850d9aa458d683015f90942910543af39aba0cd09dbb2d50200b3e800a63d2896c6b935b8bbd40000089454e484e51505438521ba04436306b17829ad4a74f9f36d62c7d08392ca32740d9c70d7754af57edd0d4a3a036ffde76f74bcf4db752a74ea2b2322b78af1de395b614a9e3fbd0b2543b09d5",
      "networkId": 0,
      "chainId": 0
    }
  ]
}