{
  "hash": "0x1a5beb873acdcf6b69d9040da573e092680619a95a8c267fcda55d4eddac3e05",
  "parentHash": "0x45c3adb900009f16ca7a4c146036857f6498ff34081efb8a596c74eda2e79546",
  "number": 108922,
  "timestamp": 1439948449,
  "nonce": "0xdd0ecb5d5628b335",
  "difficulty": 4378515883385,
  "gasLimit": {
    "_hex": "0x2fefd8"
  },
  "gasUsed": {
    "_hex": "0x5208"
  },
  "miner": "0xe6A7a1d47ff21B6321162AEA7C6CB457D5476Bca",
  "extraData": "0x476574682f76312e302e312d38326566323666362f6c696e75782f676f312e34",
  "transactions": [
    {
      "hash": "0x5990466ee1c1341ca0d0cb8d358d3b4eb310aadfddf82c573b6142f81696d77e",
      "blockHash": "0x1a5beb873acdcf6b69d9040da573e092680619a95a8c267fcda55d4eddac3e05",
      "blockNumber": 108922,
      "transactionIndex": 0,
      "confirmations": null,
      "from": "0x32Be343B94f860124dC4fEe278FDCBD38C102D88",
      "gasPrice": {
        "_hex": "0xd099f98fa"
      },
      "gasLimit": {
        "_hex": "0x5208"
      },
      "to": "0x8E1372aB42e7495276e7b0b5e785e8ed59111C0a",
      "value": {
        "_hex": "0x51508afdb65e300000"
      },
      "nonce": 1263,
      "data": "0x",
      "r": "0x427ee058b79c1d25d572080ea3e1659487bdffc72827dee1b08b239e647d5ab6",
      "s": "0x24bcb165dee7ccfcdd87b167cfeadcef16e4c8d14ee5c34d1131038576685fab",
      "v": 27,
      "creates": null,
      "raw": "0xf86f8204ef850d099f98fa825208948e1372ab42e7495276e7b0b5e785e8ed59111c0a8951508afdb65e300000801ba0427ee058b79c1d25d572080ea3e1659487bdffc72827dee1b08b239e647d5ab6a024bcb165dee7ccfcdd87b167cfeadcef16e4c8d14ee5c34d1131038576685fab",
      "networkId": 0,
      "chainId": 0
    }
  ]
}