{
  "hash": "0x2ac398dc98de6815856332482d01b20cd46304ba88b8bafbb7a8e459dabd6f02",
  "parentHash": "0x3f9b16169e961357ff435b17a0f1a15f2c2be7d66dca5616b02a8fe0c61ac590",
  "number": 86286,
  "timestamp": 1439576184,
  "nonce": "0xcf8def7ad3adb90e",
  "difficulty": 2848495692114,
  "gasLimit": {
    "_hex": "0x2fe3de"
  },
  "gasUsed": {
    "_hex": "0x546c"
  },
  "miner": "0x74fE33D5E3bed2C734685d3DA78110F9D7D3580B",
  "extraData": "0x476574682f76312e302e302f6c696e75782f676f312e342e32",
  "transactions": [
    {
      "hash": "0xdd7a7568ecb5000f6d385c19befa222f23a95509157a48db2335818fdfb10a3f",
      "blockHash": "0x2ac398dc98de6815856332482d01b20cd46304ba88b8bafbb7a8e459dabd6f02",
      "blockNumber": 86286,
      "transactionIndex": 0,
      "confirmations": null,
      "from": "0x303a30Ac4286aE17Cf483dAD7B870c6BD64D7b4A",
      "gasPrice": {
        "_hex": "0x110c8f7d8de"
      },
      "gasLimit": {
        "_hex": "0xc350"
      },
      "to": "0x2910543Af39abA0Cd09dBb2D50200b3E800A63D2",
      "value": {
        "_hex": "0xad78ebc5ac6200000"
      },
      "nonce": 1,
      "data": "0x454e4b513447313738",
      "r": "0x17307f2446e30c511aaf6e32c7dabb07d1db4f9c7be8766e02091f7569f2f033",
      "s": "0x7d73368110e1261c15c3f2421f8a382cd44c1e371849aaab2b7cf0e69c76ee76",
      "v": 28,
      "creates": null,
      "raw": "0xf87701860110c8f7d8de82c350942910543af39aba0cd09dbb2d50200b3e800a63d2890ad78ebc5ac620000089454e4b5134473137381ca017307f2446e30c511aaf6e32c7dabb07d1db4f9c7be8766e02091f7569f2f033a07d73368110e1261c15c3f2421f8a382cd44c1e371849aaab2b7cf0e69c76ee76",
      "networkId": 0,
      "chainId": 0
    }
  ]
}