{
  "hash": "0x09e28ca53e59b038d81b40c7d05497881785acb516bcb04b5ea1c7674343d83e",
  "parentHash": "0x80ee2235ada0449d26adbcbbee370a8d8677390a2184a7dd84f4527a3c4ed1c0",
  "number": 69359,
  "timestamp": 1439302683,
  "nonce": "0xf21d0868dcef5a6a",
  "difficulty": 2060863900381,
  "gasLimit": {
    "_hex": "0x2fefd5"
  },
  "gasUsed": {
    "_hex": "0xa410"
  },
  "miner": "0x39A1BB80a741bF5EC39FB9BE59408Fa0F418fFBf",
  "extraData": "0x476574682f76312e302e312f77696e646f77732f676f312e342e32",
  "transactions": [
    {
      "hash": "0x4137489d4ffdd8eb67f61c815429b164d23a7bf5fc357ef0ff462c9f00370ab6",
      "blockHash": "0x09e28ca53e59b038d81b40c7d05497881785acb516bcb04b5ea1c7674343d83e",
      "blockNumber": 69359,
      "transactionIndex": 0,
      "confirmations": null,
      "from": "0xA10C59651885FeAaac91F871082a23BBbaBeDfCf",
      "gasPrice": {
        "_hex": "0xfefd506d83"
      },
      "gasLimit": {
        "_hex": "0x5208"
      },
      "to": "0x4c74B6F32c9680aCB5Fe0e72B7Aa95C612540A04",
      "value": {
        "_hex": "0x56bc75e2d63100000"
      },
      "nonce": 16,
      "data": "0x",
      "r": "0x96a4a5311ad471489700d6031e8a275ec083210d1cf2d2eb13e3dc37762ecadc",
      "s": "0x3a2e26c2df8fa0ab5e411cb65563cbb4982f32f70e32905706178b1e679d101f",
      "v": 27,
      "creates": null,
      "raw": "0xf86d1085fefd506d83825208944c74b6f32c9680acb5fe0e72b7aa95c612540a0489056bc75e2d63100000801ba096a4a5311ad471489700d6031e8a275ec083210d1cf2d2eb13e3dc37762ecadca03a2e26c2df8fa0ab5e411cb65563cbb4982f32f70e32905706178b1e679d101f",
      "networkId": 0,
      "chainId": 0
    },
    {
      "hash": "0xeb58faf21037b6380d8c70f06f33135b42774323d62542269d57d1012d488e1c",
      "blockHash": "0x09e28ca53e59b038d81b40c7d05497881785acb516bcb04b5ea1c7674343d83e",
      "blockNumber": 69359,
      "transactionIndex": 1,
      "confirmations": null,
      "from": "0x52Dc504a422f0E2A9e7632A34a50f1a82F8224c7",
      "gasPrice": {
        "_hex": "0xd2bfbd0a5"
      },
      "gasLimit": {
        "_hex": "0x15f90"
      },
      "to": "0x097738363B1662599ad0777E19461601F5EC8dF9",
      "value": {
        "_hex": "0xe18398e7601900000"
      },
      "nonce": 5,
      "data": "0x",
      "r": "0xeea5584613949a03f1353c455c24be9b665012a846415d18060b493a676d6e34",
      "s": "0x7fdd6b334e04aaee5194e5e2be94ff0d65e991ea0eccab21ece1f7e32ef04995",
      "v": 27,
      "creates": null,
      "raw": "0xf86e05850d2bfbd0a583015f9094097738363b1662599ad0777e19461601f5ec8df9890e18398e7601900000801ba0eea5584613949a03f1353c455c24be9b665012a846415d18060b493a676d6e34a07fdd6b334e04aaee5194e5e2be94ff0d65e991ea0eccab21ece1f7e32ef04995",
      "networkId": 0,
      "chainId": 0
    }
  ]
}