{
  "hash": "0x5639de6bd1228665a13720bc9a4fa33edb12d201f0addb9ac79927282467ab24",
  "parentHash": "0x8beaa43cf04ab40bf2dd0d933f24aa24c07a8aac98488080fcf874ea5b014d88",
  "number": 85002,
  "timestamp": 1439557181,
  "nonce": "0x72defcbe6d4fbb19",
  "difficulty": 2723784337208,
  "gasLimit": {
    "_hex": "0x2fefd8"
  },
  "gasUsed": {
    "_hex": "0x5208"
  },
  "miner": "0x0eDEd3DA479d0beF8eeC92A76644D3f4E3C177f7",
  "extraData": "0x476574682f76312e302e312f6c696e75782f676f312e342e32",
  "transactions": [
    {
      "hash": "0x096fc69e94586bd337634a760e3a193401ca0ecb25720e24190986031b37bfa1",
      "blockHash": "0x5639de6bd1228665a13720bc9a4fa33edb12d201f0addb9ac79927282467ab24",
      "blockNumber": 85002,
      "transactionIndex": 0,
      "confirmations": null,
      "from": "0xd7eF340E66B0d7AfcCe20A19cB7bfc81DA33D94E",
      "gasPrice": {
        "_hex": "0xd8364fc25"
      },
      "gasLimit": {
        "_hex": "0x15f90"
      },
      "to": "0x0f23c93c4A3D51947370570984dedA49B04E383D",
      "value": {
        "_hex": "0xde0b6b3a7640000"
      },
      "nonce": 0,
      "data": "0x",
      "r": "0xcf443dd141a959e6b68875619de4804cba6b65703bf763f07e16abb87d1222f5",
      "s": "0x739a54181781ad633abc04b10cbb4104daf87a395f5760bc264663e4ab745aa3",
      "v": 28,
      "creates": null,
      "raw": "0xf86d80850d8364fc2583015f90940f23c93c4a3d51947370570984deda49b04e383d880de0b6b3a7640000801ca0cf443dd141a959e6b68875619de4804cba6b65703bf763f07e16abb87d1222f5a0739a54181781ad633abc04b10cbb4104daf87a395f5760bc264663e4ab745aa3",
      "networkId": 0,
      "chainId": 0
    }
  ]
}