{
  "hash": "0xd5965e7374ad86f3f8ee10604d51d5d341843af39eb5e43cdf65088b117964f8",
  "parentHash": "0xee96eda89ca46f583c7b985d0cf24dc239857d90a4db74aa2e0b103d8367954d",
  "number": 69294,
  "timestamp": 1439301428,
  "nonce": "0xc0fb3c98706bdea7",
  "difficulty": 2061886404058,
  "gasLimit": {
    "_hex": "0x2fefd8"
  },
  "gasUsed": {
    "_hex": "0x23e38"
  },
  "miner": "0xf927a40C8B7F6E07c5af7FA2155B4864a4112B13",
  "extraData": "0x",
  "transactions": [
    {
      "hash": "0xe7fbd433ae613a0e6cd8178187e4c6c427b080adb200b97e1b825a82dc511c04",
      "blockHash": "0xd5965e7374ad86f3f8ee10604d51d5d341843af39eb5e43cdf65088b117964f8",
      "blockNumber": 69294,
      "transactionIndex": 0,
      "confirmations": null,
      "from": "0xBA7933704d52A3e7fdBb5B5deD29e45213EA1111",
      "gasPrice": {
        "_hex": "0xd49231c7d"
      },
      "gasLimit": {
        "_hex": "0x5208"
      },
      "to": "0x32Be343B94f860124dC4fEe278FDCBD38C102D88",
      "value": {
        "_hex": "0x50621576a0cd1c00"
      },
      "nonce": 0,
      "data": "0x",
      "r": "0x717aa9a583a2840bba12afc8e875af6985207620ca5cc4bc9b42f5e52de1fbd9",
      "s": "0x044e0b16ff585d062b00a10c970d715cd7377a9a20da0b5332ffb8844b8013c2",
      "v": 27,
      "creates": null,
      "raw": "0xf86c80850d49231c7d8252089432be343b94f860124dc4fee278fdcbd38c102d888850621576a0cd1c00801ba0717aa9a583a2840bba12afc8e875af6985207620ca5cc4bc9b42f5e52de1fbd9a0044e0b16ff585d062b00a10c970d715cd7377a9a20da0b5332ffb8844b8013c2",
      "networkId": 0,
      "chainId": 0
    },
    {
      "hash": "0x672abacadf874f3b1156b997d5e938a5771281535a446503d7cac5fa2713820f",
      "blockHash": "0xd5965e7374ad86f3f8ee10604d51d5d341843af39eb5e43cdf65088b117964f8",
      "blockNumber": 69294,
      "transactionIndex": 1,
      "confirmations": null,
      "from": "0xD924AAC0bCB65C13bE4044f6BeA8aAe34D7a7126",
      "gasPrice": {
        "_hex": "0xd49231c7d"
      },
      "gasLimit": {
        "_hex": "0x5208"
      },
      "to": "0x32Be343B94f860124dC4fEe278FDCBD38C102D88",
      "value": {
        "_hex": "0x7465d805b0cbd000"
      },
      "nonce": 1,
      "data": "0x",
      "r": "0xc79e50cb59d4e2f00579b27db93773290bf477b693b408dcaea541341451f83a",
      "s": "0x01ad945fa80bec90416f7ac1eabb3fe545661ebc08039354c3a50ce898c3cd57",
      "v": 27,
      "creates": null,
      "raw": "0xf86c01850d49231c7d8252089432be343b94f860124dc4fee278fdcbd38c102d88887465d805b0cbd000801ba0c79e50cb59d4e2f00579b27db93773290bf477b693b408dcaea541341451f83aa001ad945fa80bec90416f7ac1eabb3fe545661ebc08039354c3a50ce898c3cd57",
      "networkId": 0,
      "chainId": 0
    },
    {
      "hash": "0x3537cc3ca88244133be6356e9a54a86eb20f7d6a0aebe74f4fe165f85677f38b",
      "blockHash": "0xd5965e7374ad86f3f8ee10604d51d5d341843af39eb5e43cdf65088b117964f8",
      "blockNumber": 69294,
      "transactionIndex": 2,
      "confirmations": null,
      "from": "0xad74C8133300eB63De8d69A384B1E8CcFe28DED7",
      "gasPrice": {
        "_hex": "0xd49231c7d"
      },
      "gasLimit": {
        "_hex": "0x5208"
      },
      "to": "0x32Be343B94f860124dC4fEe278FDCBD38C102D88",
      "value": {
        "_hex": "0x5a152acfd257bc00"
      },
      "nonce": 0,
      "data": "0x",
      "r": "0x3b81f91a1600f8937dcd7b3b556bafecbf2799f494841929088a8ac479ed55d1",
      "s": "0x38c492de2be679fa946e8eb358be86c69f743a4950cbe7b9a0f82c7f9c56ec0f",
      "v": 27,
      "creates": null,
      "raw": "0xf86c80850d49231c7d8252089432be343b94f860124dc4fee278fdcbd38c102d88885a152acfd257bc00801ba03b81f91a1600f8937dcd7b3b556bafecbf2799f494841929088a8ac479ed55d1a038c492de2be679fa946e8eb358be86c69f743a4950cbe7b9a0f82c7f9c56ec0f",
      "networkId": 0,
      "chainId": 0
    },
    {
      "hash": "0x384d2b1a3743502143b1b815f9f66e219f0be4a5d40d7a2c2f4a6cfe21ca0ce1",
      "blockHash": "0xd5965e7374ad86f3f8ee10604d51d5d341843af39eb5e43cdf65088b117964f8",
      "blockNumber": 69294,
      "transactionIndex": 3,
      "confirmations": null,
      "from": "0x01Ad0ACFf478127D9d702B1A13599D706cB759b1",
      "gasPrice": {
        "_hex": "0xd49231c7d"
      },
      "gasLimit": {
        "_hex": "0x5208"
      },
      "to": "0x32Be343B94f860124dC4fEe278FDCBD38C102D88",
      "value": {
        "_hex": "0x69a1f79aeca35400"
      },
      "nonce": 11,
      "data": "0x",
      "r": "0xfbd6e7df0270c1ac44f8e0b2217b0ddce74a4b23f8b8b3ad9fdf47c06fa27cdb",
      "s": "0x1e9620f043e481512809206164b752e7a326f21a96b95d64aac031d8a248b4f8",
      "v": 27,
      "creates": null,
      "raw": "0xf86c0b850d49231c7d8252089432be343b94f860124dc4fee278fdcbd38c102d888869a1f79aeca35400801ba0fbd6e7df0270c1ac44f8e0b2217b0ddce74a4b23f8b8b3ad9fdf47c06fa27cdba01e9620f043e481512809206164b752e7a326f21a96b95d64aac031d8a248b4f8",
      "networkId": 0,
      "chainId": 0
    },
    {
      "hash": "0xf40d39303e88aabe5fef0f52b3c2f2baf1b6a1da8563d20b65c86489e36f4aa1",
      "blockHash": "0xd5965e7374ad86f3f8ee10604d51d5d341843af39eb5e43cdf65088b117964f8",
      "blockNumber": 69294,
      "transactionIndex": 4,
      "confirmations": null,
      "from": "0x2D1d94521E896625F8Ec3f65171Fa82262Da6BCF",
      "gasPrice": {
        "_hex": "0xd49231c7d"
      },
      "gasLimit": {
        "_hex": "0x5208"
      },
      "to": "0x32Be343B94f860124dC4fEe278FDCBD38C102D88",
      "value": {
        "_hex": "0x136f07f83bf96f000"
      },
      "nonce": 0,
      "data": "0x",
      "r": "0x57274c29292c32ae78f07bc42aad13c1fd028220954a98a6b82b3645646828ed",
      "s": "0x2e2cdc53407e473cd5eca00aa3c95f832e23fee64098d041b4e9cf76b7ed4ffa",
      "v": 27,
      "creates": null,
      "raw": "0xf86d80850d49231c7d8252089432be343b94f860124dc4fee278fdcbd38c102d88890136f07f83bf96f000801ba057274c29292c32ae78f07bc42aad13c1fd028220954a98a6b82b3645646828eda02e2cdc53407e473cd5eca00aa3c95f832e23fee64098d041b4e9cf76b7ed4ffa",
      "networkId": 0,
      "chainId": 0
    },
    {
      "hash": "0xacc3a83d6e8bc4932aa5a7e41f15108c1dda225f56120e9baa47b7ddd849388d",
      "blockHash": "0xd5965e7374ad86f3f8ee10604d51d5d341843af39eb5e43cdf65088b117964f8",
      "blockNumber": 69294,
      "transactionIndex": 5,
      "confirmations": null,
      "from": "0xE6D67E3661E28eE2DfC1c68D5DeeA3C3bB880059",
      "gasPrice": {
        "_hex": "0xd49231c7d"
      },
      "gasLimit": {
        "_hex": "0x5208"
      },
      "to": "0x32Be343B94f860124dC4fEe278FDCBD38C102D88",
      "value": {
        "_hex": "0x7892ae70a641ac00"
      },
      "nonce": 0,
      "data": "0x",
      "r": "0x0835c4ca96ff02be0e397164be4ca31356c36853b6d38adbc06fb629e2a930ec",
      "s": "0x67e5414f2b9009fcf6d706efd4c0b062030ab7d468a773c140bf05f575a61948",
      "v": 28,
      "creates": null,
      "raw": "0xf86c80850d49231c7d8252089432be343b94f860124dc4fee278fdcbd38c102d88887892ae70a641ac00801ca00835c4ca96ff02be0e397164be4ca31356c36853b6d38adbc06fb629e2a930eca067e5414f2b9009fcf6d706efd4c0b062030ab7d468a773c140bf05f575a61948",
      "networkId": 0,
      "chainId": 0
    },
    {
      "hash": "0xd9a9b5a86bdef01e24eac953443c08769e319784a577697b17d2593682a96ebb",
      "blockHash": "0xd5965e7374ad86f3f8ee10604d51d5d341843af39eb5e43cdf65088b117964f8",
      "blockNumber": 69294,
      "transactionIndex": 6,
      "confirmations": null,
      "from": "0xf79785E5a846aCea08F94379fCCe79B1054bDB99",
      "gasPrice": {
        "_hex": "0xd49231c7d"
      },
      "gasLimit": {
        "_hex": "0x5208"
      },
      "to": "0x32Be343B94f860124dC4fEe278FDCBD38C102D88",
      "value": {
        "_hex": "0x76f1c4ed74490400"
      },
      "nonce": 6,
      "data": "0x",
      "r": "0x6bb7de95123518d0630b97bf4660915f65f1c170edeef85067e0165ca14debdf",
      "s": "0x49624b7644daaba50178af32315978ab90422f83027a7661ba4c98b18583a67a",
      "v": 28,
      "creates": null,
      "raw": "0xf86c06850d49231c7d8252089432be343b94f860124dc4fee278fdcbd38c102d888876f1c4ed74490400801ca06bb7de95123518d0630b97bf4660915f65f1c170edeef85067e0165ca14debdfa049624b7644daaba50178af32315978ab90422f83027a7661ba4c98b18583a67a",
      "networkId": 0,
      "chainId": 0
    }
  ]
}