{
  "hash": "0x912958919f4e82d23e9ce4e0f8f5fa00c8b32fea72c4a20c219bd29caaf0d474",
  "parentHash": "0x5b3f05987b69a4d5cfb8abed0b48a0849b21b6313ec09ad189b415dbbb92c4db",
  "number": 119418,
  "timestamp": 1440142552,
  "nonce": "0x5595c7d48ede7d3f",
  "difficulty": 4394445774716,
  "gasLimit": {
    "_hex": "0x2fefd8"
  },
  "gasUsed": {
    "_hex": "0x29040"
  },
  "miner": "0x580992B51e3925e23280EfB93d3047C82f17E038",
  "extraData": "0x",
  "transactions": [
    {
      "hash": "0xad1346360048df1e9bf663541f308e1d531b92fadf3b8af689d1ec9b3c3692b1",
      "blockHash": "0x912958919f4e82d23e9ce4e0f8f5fa00c8b32fea72c4a20c219bd29caaf0d474",
      "blockNumber": 119418,
      "transactionIndex": 0,
      "confirmations": null,
      "from": "0x4CD33268dF93C6b4F6b3D504009EAE965Afe272d",
      "gasPrice": {
        "_hex": "0xcb8cc3bff"
      },
      "gasLimit": {
        "_hex": "0x5208"
      },
      "to": "0x32Be343B94f860124dC4fEe278FDCBD38C102D88",
      "value": {
        "_hex": "0x33ad5dcedf85c400"
      },
      "nonce": 10,
      "data": "0x",
      "r": "0x254232faded7f3de44b95bc23119a860c73cf55e8e187f9be830f69ea3272bea",
      "s": "0x27893442a726753ef983b64ac5692b02b2926c87a06eb0beae2e734e43cfcfee",
      "v": 27,
      "creates": null,
      "raw": "0xf86c0a850cb8cc3bff8252089432be343b94f860124dc4fee278fdcbd38c102d888833ad5dcedf85c400801ba0254232faded7f3de44b95bc23119a860c73cf55e8e187f9be830f69ea3272beaa027893442a726753ef983b64ac5692b02b2926c87a06eb0beae2e734e43cfcfee",
      "networkId": 0,
      "chainId": 0
    },
    {
      "hash": "0x13cd2aeb1f04e7670df414f82a15a986aa3888478713ca175f1da0cd4c3d7131",
      "blockHash": "0x912958919f4e82d23e9ce4e0f8f5fa00c8b32fea72c4a20c219bd29caaf0d474",
      "blockNumber": 119418,
      "transactionIndex": 1,
      "confirmations": null,
      "from": "0xD72ab61a64fEAeE7b5EB3D42B5445858B95d38fd",
      "gasPrice": {
        "_hex": "0xcb8cc3bff"
      },
      "gasLimit": {
        "_hex": "0x5208"
      },
      "to": "0x32Be343B94f860124dC4fEe278FDCBD38C102D88",
      "value": {
        "_hex": "0x966ef82020c84000"
      },
      "nonce": 10,
      "data": "0x",
      "r": "0x08cadf2b41fdfa1a67b7312e92c634b707210b7c12eea54905446d1b3bf270d8",
      "s": "0x72aa4de28fa15e7da58d4ab44a10eaf0bdedff86a926c077c0fa7addda0553c4",
      "v": 27,
      "creates": null,
      "raw": "0xf86c0a850cb8cc3bff8252089432be343b94f860124dc4fee278fdcbd38c102d8888966ef82020c84000801ba008cadf2b41fdfa1a67b7312e92c634b707210b7c12eea54905446d1b3bf270d8a072aa4de28fa15e7da58d4ab44a10eaf0bdedff86a926c077c0fa7addda0553c4",
      "networkId": 0,
      "chainId": 0
    },
    {
      "hash": "0xe7ec0be3f42eb1f27ae79cf7c76583693d4e98520c6abbf0588bba690730d2d3",
      "blockHash": "0x912958919f4e82d23e9ce4e0f8f5fa00c8b32fea72c4a20c219bd29caaf0d474",
      "blockNumber": 119418,
      "transactionIndex": 2,
      "confirmations": null,
      "from": "0xFAF4d1326d886D8dFe403B3F8A00DC7a7EA05629",
      "gasPrice": {
        "_hex": "0xcb8cc3bff"
      },
      "gasLimit": {
        "_hex": "0x5208"
      },
      "to": "0x32Be343B94f860124dC4fEe278FDCBD38C102D88",
      "value": {
        "_hex": "0x25fc21d6ce2a1000"
      },
      "nonce": 10,
      "data": "0x",
      "r": "0xc8202d59799963493052244a7c3267650a1e0f40198e0db4d9d4aebae699e616",
      "s": "0x43f54527e7be40c94b3062453190add309d070683cf033ea2ec3508d75b0c854",
      "v": 27,
      "creates": null,
      "raw": "0xf86c0a850cb8cc3bff8252089432be343b94f860124dc4fee278fdcbd38c102d888825fc21d6ce2a1000801ba0c8202d59799963493052244a7c3267650a1e0f40198e0db4d9d4aebae699e616a043f54527e7be40c94b3062453190add309d070683cf033ea2ec3508d75b0c854",
      "networkId": 0,
      "chainId": 0
    },
    {
      "hash": "0xe6d5ae1cbe29a699bae8ec2333dddfda6d70583714cdc359e91dc3d72d4b9c0e",
      "blockHash": "0x912958919f4e82d23e9ce4e0f8f5fa00c8b32fea72c4a20c219bd29caaf0d474",
      "blockNumber": 119418,
      "transactionIndex": 3,
      "confirmations": null,
      "from": "0x4db3262Ca80d30Fce03fd51C8d31a03F449FA847",
      "gasPrice": {
        "_hex": "0xcb4a01e7e"
      },
      "gasLimit": {
        "_hex": "0x5208"
      },
      "to": "0xFBb1b73C4f0BDa4f67dcA266ce6Ef42f520fBB98",
      "value": {
        "_hex": "0xd4bc5dd4c028c10"
      },
      "nonce": 0,
      "data": "0x",
      "r": "0xe318e81f58cdeb5430a8e7123236bb682e27e233520b748f5b688494054c3ff5",
      "s": "0x2238aeabae594b04fee0895d4a62de749983f330b9f97511017cd256c59d94a5",
      "v": 28,
      "creates": null,
      "raw": "0xf86c80850cb4a01e7e82520894fbb1b73c4f0bda4f67dca266ce6ef42f520fbb98880d4bc5dd4c028c10801ca0e318e81f58cdeb5430a8e7123236bb682e27e233520b748f5b688494054c3ff5a02238aeabae594b04fee0895d4a62de749983f330b9f97511017cd256c59d94a5",
      "networkId": 0,
      "chainId": 0
    },
    {
      "hash": "0x9ab73736b477ae7c57e90d79da91a75232a4d4aa8cde4cf374955ae99f34c6d3",
      "blockHash": "0x912958919f4e82d23e9ce4e0f8f5fa00c8b32fea72c4a20c219bd29caaf0d474",
      "blockNumber": 119418,
      "transactionIndex": 4,
      "confirmations": null,
      "from": "0x3D31A7CdbF1B9952C1c4d567b97c54fc354E6A7B",
      "gasPrice": {
        "_hex": "0xcb4a01e7e"
      },
      "gasLimit": {
        "_hex": "0x5208"
      },
      "to": "0xFBb1b73C4f0BDa4f67dcA266ce6Ef42f520fBB98",
      "value": {
        "_hex": "0x3e41a657d4d2c10"
      },
      "nonce": 11,
      "data": "0x",
      "r": "0x109db617ccda039b486f143dd8841c8878433991b5e9f7ba34e218e20feb66f7",
      "s": "0x4dc37021e4a28b7d254681cdd64526ab66f1b7ee9f0047027567068d9beb2fb5",
      "v": 28,
      "creates": null,
      "raw": "0xf86c0b850cb4a01e7e82520894fbb1b73c4f0bda4f67dca266ce6ef42f520fbb988803e41a657d4d2c10801ca0109db617ccda039b486f143dd8841c8878433991b5e9f7ba34e218e20feb66f7a04dc37021e4a28b7d254681cdd64526ab66f1b7ee9f0047027567068d9beb2fb5",
      "networkId": 0,
      "chainId": 0
    },
    {
      "hash": "0x1c909a9a4926ae6cd0facb324ee1aa2fcd37733c66e0097724d579bbca9cf99d",
      "blockHash": "0x912958919f4e82d23e9ce4e0f8f5fa00c8b32fea72c4a20c219bd29caaf0d474",
      "blockNumber": 119418,
      "transactionIndex": 5,
      "confirmations": null,
      "from": "0x52bc44d5378309EE2abF1539BF71dE1b7d7bE3b5",
      "gasPrice": {
        "_hex": "0xba43b7400"
      },
      "gasLimit": {
        "_hex": "0x61a8"
      },
      "to": "0x44595E22eA03eB2bEF2B96Ba2509df8ce212721e",
      "value": {
        "_hex": "0xd08db24671ce180"
      },
      "nonce": 609,
      "data": "0x",
      "r": "0x2199bc594b83346e60af32e77843dba68e882e52474cce6a4188d0ba0ec424f5",
      "s": "0x361ef9a51b1ca3b27779e8baca5d3e30cfe54acd8fd41be1448ed196c289c091",
      "v": 28,
      "creates": null,
      "raw": "0xf86e820261850ba43b74008261a89444595e22ea03eb2bef2b96ba2509df8ce212721e880d08db24671ce180801ca02199bc594b83346e60af32e77843dba68e882e52474cce6a4188d0ba0ec424f5a0361ef9a51b1ca3b27779e8baca5d3e30cfe54acd8fd41be1448ed196c289c091",
      "networkId": 0,
      "chainId": 0
    },
    {
      "hash": "0x39d13ff0a418ccc4d2ca417da02bbbf71fdce203ef93d80caab25acd0e81a690",
      "blockHash": "0x912958919f4e82d23e9ce4e0f8f5fa00c8b32fea72c4a20c219bd29caaf0d474",
      "blockNumber": 119418,
      "transactionIndex": 6,
      "confirmations": null,
      "from": "0x52bc44d5378309EE2abF1539BF71dE1b7d7bE3b5",
      "gasPrice": {
        "_hex": "0xba43b7400"
      },
      "gasLimit": {
        "_hex": "0x61a8"
      },
      "to": "0x0094B66634dc6758951e5900ec3F4Bcc7597C062",
      "value": {
        "_hex": "0x1e66a31d43406e00"
      },
      "nonce": 610,
      "data": "0x",
      "r": "0x772e352e8b8650c2a31dc84e098705bb4b3e7a4dd921a18d6d65b4058a6d0613",
      "s": "0x5b93a14f3e52d98c9a0e59d5669ef7acbb006cc24ce4d34dd77babc77a3a3606",
      "v": 27,
      "creates": null,
      "raw": "0xf86e820262850ba43b74008261a8940094b66634dc6758951e5900ec3f4bcc7597c062881e66a31d43406e00801ba0772e352e8b8650c2a31dc84e098705bb4b3e7a4dd921a18d6d65b4058a6d0613a05b93a14f3e52d98c9a0e59d5669ef7acbb006cc24ce4d34dd77babc77a3a3606",
      "networkId": 0,
      "chainId": 0
    },
    {
      "hash": "0xf80fc5c4808787fe20ce93dfb03e53baf3ce9fbad318e8c65a25ca93f188af42",
      "blockHash": "0x912958919f4e82d23e9ce4e0f8f5fa00c8b32fea72c4a20c219bd29caaf0d474",
      "blockNumber": 119418,
      "transactionIndex": 7,
      "confirmations": null,
      "from": "0x52bc44d5378309EE2abF1539BF71dE1b7d7bE3b5",
      "gasPrice": {
        "_hex": "0xba43b7400"
      },
      "gasLimit": {
        "_hex": "0x61a8"
      },
      "to": "0xd03F6B5b7FBCf7Dd4DEE4919543236c733546a2A",
      "value": {
        "_hex": "0x2d246c3a3c112400"
      },
      "nonce": 611,
      "data": "0x",
      "r": "0x65e5b8c71cd1a37f0a568e6a1af8dca51a9ca242211cd8b388549771368c12bc",
      "s": "0x4d72e243fcb2dd03595f74c58c9bc758150fef358d0f8b197ab197b876db351e",
      "v": 28,
      "creates": null,
      "raw": "0xf86e820263850ba43b74008261a894d03f6b5b7fbcf7dd4dee4919543236c733546a2a882d246c3a3c112400801ca065e5b8c71cd1a37f0a568e6a1af8dca51a9ca242211cd8b388549771368c12bca04d72e243fcb2dd03595f74c58c9bc758150fef358d0f8b197ab197b876db351e",
      "networkId": 0,
      "chainId": 0
    }
  ]
}