{
  "hash": "0x7d6cd010dfd40dee96de70b6b7f88db738e48e654b6bcedbb0c921fe0b560161",
  "parentHash": "0xdf67899fdef910ccf50af502dc46c1c1f6d2b65021518517849f897abb5bf7ac",
  "number": 46989,
  "timestamp": 1438932802,
  "nonce": "0x7a81644767d29861",
  "difficulty": 1451033880253,
  "gasLimit": {
    "_hex": "0x8c6d"
  },
  "gasUsed": {
    "_hex": "0x5208"
  },
  "miner": "0xbb7B8287f3F0a933474a79eAe42CBCa977791171",
  "extraData": "0x476574682f4c5649562f76312e302e312f6c696e75782f676f312e342e32",
  "transactions": [
    {
      "hash": "0xae3da4887334ab317317c1faf5d92800f99883a05d7fe92f5f97409c16c67cdb",
      "blockHash": "0x7d6cd010dfd40dee96de70b6b7f88db738e48e654b6bcedbb0c921fe0b560161",
      "blockNumber": 46989,
      "transactionIndex": 0,
      "confirmations": null,
      "from": "0xe6A7a1d47ff21B6321162AEA7C6CB457D5476Bca",
      "gasPrice": {
        "_hex": "0xe045a6151"
      },
      "gasLimit": {
        "_hex": "0x5208"
      },
      "to": "0xD0a2D2eA08cDb43A8970fbBe131cbc13AdeB993d",
      "value": {
        "_hex": "0x1c8b135519ae729c"
      },
      "nonce": 28,
      "data": "0x",
      "r": "0x36d2457c74bd128e7bc564eed185b061329aeee4e54dab30f0a742c0c7a3fd98",
      "s": "0x10c0369a06516b56e85df01ef6dab114ffa27a99b1e0d36d015ec11355d2308f",
      "v": 27,
      "creates": null,
      "raw": "0xf86c1c850e045a615182520894d0a2d2ea08cdb43a8970fbbe131cbc13adeb993d881c8b135519ae729c801ba036d2457c74bd128e7bc564eed185b061329aeee4e54dab30f0a742c0c7a3fd98a010c0369a06516b56e85df01ef6dab114ffa27a99b1e0d36d015ec11355d2308f",
      "networkId": 0,
      "chainId": 0
    }
  ]
}