{
  "hash": "0x461a2d056120c017ea1179d0e285b017b9bbde15787d264f807f54f1cbcaab90",
  "parentHash": "0x71892f811f0b69a37f33c36cbae8cadcd00bf3a0428a7e5ad7f3374bd4b221a5",
  "number": 71221,
  "timestamp": 1439332700,
  "nonce": "0x07fe98ca444d85c5",
  "difficulty": 2144577068236,
  "gasLimit": {
    "_hex": "0x2fefd8"
  },
  "gasUsed": {
    "_hex": "0x5208"
  },
  "miner": "0x9746c7e1ef2bd21FF3997fa467593a89cb852BD0",
  "extraData": "0x476574682f76312e302e312f77696e646f77732f676f312e342e32",
  "transactions": [
    {
      "hash": "0x94ff9947e3b9fc7bb6fe4891f03ac35b471f87a7d2afebb9a7ab2aaa4768ba29",
      "blockHash": "0x461a2d056120c017ea1179d0e285b017b9bbde15787d264f807f54f1cbcaab90",
      "blockNumber": 71221,
      "transactionIndex": 0,
      "confirmations": null,
      "from": "0x120A270bbC009644e35F0bB6ab13f95b8199c4ad",
      "gasPrice": {
        "_hex": "0xd7d1d9c14"
      },
      "gasLimit": {
        "_hex": "0x15f90"
      },
      "to": "0x1fc000454B2169C9EFfB548829DBf7154Ddb6878",
      "value": {
        "_hex": "0xd0d1b0a25348ac800"
      },
      "nonce": 221,
      "data": "0x",
      "r": "0xd2fefc965de469f30529b5ba0c250020f09b48c38183b0ffe0c26a2259814cbb",
      "s": "0x73693f926c407716172d66186fdbd6b88f39f9129faa8549e12368600fe99989",
      "v": 27,
      "creates": null,
      "raw": "0xf86f81dd850d7d1d9c1483015f90941fc000454b2169c9effb548829dbf7154ddb6878890d0d1b0a25348ac800801ba0d2fefc965de469f30529b5ba0c250020f09b48c38183b0ffe0c26a2259814cbba073693f926c407716172d66186fdbd6b88f39f9129faa8549e12368600fe99989",
      "networkId": 0,
      "chainId": 0
    }
  ]
}