{
  "hash": "0x805cee7450763b975a8ba981bbebe0cf499039c1aac94b73d642a22927581dfd",
  "parentHash": "0xc4c989d588d3b0207307b64278e344a7f315e56b91a1b5a121ae7d96edac68b7",
  "number": 93713,
  "timestamp": 1439696485,
  "nonce": "0xaef3bf087fd56423",
  "difficulty": 3427876012643,
  "gasLimit": {
    "_hex": "0x2fefd8"
  },
  "gasUsed": {
    "_hex": "0x5208"
  },
  "miner": "0xe6A7a1d47ff21B6321162AEA7C6CB457D5476Bca",
  "extraData": "0x476574682f76312e302e312d38326566323666362f6c696e75782f676f312e34",
  "transactions": [
    {
      "hash": "0x6aa8cb13d1e449ce4df69d58305542d25b458a894f77f30fbe1886d56e8c7634",
      "blockHash": "0x805cee7450763b975a8ba981bbebe0cf499039c1aac94b73d642a22927581dfd",
      "blockNumber": 93713,
      "transactionIndex": 0,
      "confirmations": null,
      "from": "0xCbbdAd70d0ff27254925AD37B5C135EEe1116615",
      "gasPrice": {
        "_hex": "0xcba1393be"
      },
      "gasLimit": {
        "_hex": "0x15f90"
      },
      "to": "0x886e83d9133F65B9c27A946f699E88e71A888E4C",
      "value": {
        "_hex": "0xde0b6b3a7640000"
      },
      "nonce": 8,
      "data": "0x",
      "r": "0x44e99fc247156c2ec1ae1f170cc74ad365d5830ced01f33698268a5d23b7af59",
      "s": "0x30aa1f166450f4e787d014a245b5111b6c547ecc0391e94208568da2e9d247cb",
      "v": 28,
      "creates": null,
      "raw": "0xf86d08850cba1393be83015f9094886e83d9133f65b9c27a946f699e88e71a888e4c880de0b6b3a7640000801ca044e99fc247156c2ec1ae1f170cc74ad365d5830ced01f33698268a5d23b7af59a030aa1f166450f4e787d014a245b5111b6c547ecc0391e94208568da2e9d247cb",
      "networkId": 0,
      "chainId": 0
    }
  ]
}