{
  "hash": "0x8bd9e53c5801d4654a2259c7b5b3ebd64155814f478acf9130e21843cbc7646b",
  "parentHash": "0xc2e6f4be666e78d1cf99fa7edf111c3788f23b1cfa3e04c4f954bcd4bc93123e",
  "number": 66874,
  "timestamp": 1439261804,
  "nonce": "0x2c5fc8b058e249fc",
  "difficulty": 1950812033862,
  "gasLimit": {
    "_hex": "0x2fe3fa"
  },
  "gasUsed": {
    "_hex": "0x223d6"
  },
  "miner": "0x9746c7e1ef2bd21FF3997fa467593a89cb852BD0",
  "extraData": "0x476574682f76312e302e312f77696e646f77732f676f312e342e32",
  "transactions": [
    {
      "hash": "0xb172ad22e9855adf73d047537f4d925ad9c8938103f3a8f059350c53ec2be13e",
      "blockHash": "0x8bd9e53c5801d4654a2259c7b5b3ebd64155814f478acf9130e21843cbc7646b",
      "blockNumber": 66874,
      "transactionIndex": 0,
      "confirmations": null,
      "from": "0xD3221E91D252E8f4ec403E46ae6478b7EBaC265c",
      "gasPrice": {
        "_hex": "0x746a528800"
      },
      "gasLimit": {
        "_hex": "0x5b04"
      },
      "to": "0x0d187496799a43E7c43e4324026E32d1Dc80D8E4",
      "value": {
        "_hex": "0x6f05b59d3b200000"
      },
      "nonce": 2,
      "data": "0x",
      "r": "0xa9503890e578df36cb6098506be4960f1949c16dd52fa6eaed634dec6fc9dd63",
      "s": "0xdf26743a151b78b66ba7eff8779e61d4cdb025e61b514d450198e6be8fbf62f4",
      "v": 27,
      "creates": null,
      "raw": "0xf86c0285746a528800825b04940d187496799a43e7c43e4324026e32d1dc80d8e4886f05b59d3b200000801ba0a9503890e578df36cb6098506be4960f1949c16dd52fa6eaed634dec6fc9dd63a0df26743a151b78b66ba7eff8779e61d4cdb025e61b514d450198e6be8fbf62f4",
      "networkId": 0,
      "chainId": 0
    },
    {
      "hash": "0xe55b2a781b801bc6c89236f9398ea88e0c8d46140509ac7ba12be99f75c56601",
      "blockHash": "0x8bd9e53c5801d4654a2259c7b5b3ebd64155814f478acf9130e21843cbc7646b",
      "blockNumber": 66874,
      "transactionIndex": 1,
      "confirmations": null,
      "from": "0x707e0B3205D90E717a6b1171816F3C36d18c2D63",
      "gasPrice": {
        "_hex": "0x45d964b800"
      },
      "gasLimit": {
        "_hex": "0x5208"
      },
      "to": "0x827039b481254dee41Ef8f8333AdF1aba69a2f5A",
      "value": {
        "_hex": "0x5b97e9081d940000"
      },
      "nonce": 2,
      "data": "0x",
      "r": "0x16c180bced0a3607613bad92fc899f146da87fa67a0307f07e63ed9a9a33d986",
      "s": "0x7b3e76709967d6d853b768a9ee3cfc58980996950ae7f3de1451d670dd9fedfe",
      "v": 27,
      "creates": null,
      "raw": "0xf86c028545d964b80082520894827039b481254dee41ef8f8333adf1aba69a2f5a885b97e9081d940000801ba016c180bced0a3607613bad92fc899f146da87fa67a0307f07e63ed9a9a33d986a07b3e76709967d6d853b768a9ee3cfc58980996950ae7f3de1451d670dd9fedfe",
      "networkId": 0,
      "chainId": 0
    },
    {
      "hash": "0x0f3d20eab0ff339075e784347ebf292f6d4405ceae8b043c3bf2e3170224fd3a",
      "blockHash": "0x8bd9e53c5801d4654a2259c7b5b3ebd64155814f478acf9130e21843cbc7646b",
      "blockNumber": 66874,
      "transactionIndex": 2,
      "confirmations": null,
      "from": "0xC25f24A505b8fEF751D8f4FCc397651001F7a160",
      "gasPrice": {
        "_hex": "0xd3c314a87"
      },
      "gasLimit": {
        "_hex": "0x5208"
      },
      "to": "0x32Be343B94f860124dC4fEe278FDCBD38C102D88",
      "value": {
        "_hex": "0x8a7be3542a8b6000"
      },
      "nonce": 9,
      "data": "0x",
      "r": "0x7f81891dd2e224f44877fe5c06cc8c1f20ee5da56cd96d0decd322b09d75f53d",
      "s": "0x5e490645f592cde1571c8563f5cc9be6763a2ea9429090d3af4e5852f1175514",
      "v": 28,
      "creates": null,
      "raw": "0xf86c09850d3c314a878252089432be343b94f860124dc4fee278fdcbd38c102d88888a7be3542a8b6000801ca07f81891dd2e224f44877fe5c06cc8c1f20ee5da56cd96d0decd322b09d75f53da05e490645f592cde1571c8563f5cc9be6763a2ea9429090d3af4e5852f1175514",
      "networkId": 0,
      "chainId": 0
    },
    {
      "hash": "0x28ddd1eb7ca963082f1490378494dde889bcdb0287fa2a0636d39f01dc390684",
      "blockHash": "0x8bd9e53c5801d4654a2259c7b5b3ebd64155814f478acf9130e21843cbc7646b",
      "blockNumber": 66874,
      "transactionIndex": 3,
      "confirmations": null,
      "from": "0xFBb1b73C4f0BDa4f67dcA266ce6Ef42f520fBB98",
      "gasPrice": {
        "_hex": "0xcfbff20af"
      },
      "gasLimit": {
        "_hex": "0x15f90"
      },
      "to": "0xCAc7000C7dBaa2E33Af15325AF5D435E011C7BdD",
      "value": {
        "_hex": "0xf43fc2c04ee0000"
      },
      "nonce": 21,
      "data": "0x6042a7604249545452455830300000000000000000000000000000000000000000000000000000000000000000000000cac7000c7dbaa2e33af15325af5d435e011c7bdd00000000000000000000000000000000000000000000000000000000000000000000000000000000000000000000000000000000000000000f43fc2c04ee0000",
      "r": "0x9e29b8f432b7a006f556a173ab5f1823858f16871326bb43ee926fa8cbb01e85",
      "s": "0x137db0e0503b890b700870c093364ae711696e81b66a4145facb96f29ffb22ec",
      "v": 27,
      "creates": null,
      "raw": "0xf8f215850cfbff20af83015f9094cac7000c7dbaa2e33af15325af5d435e011c7bdd880f43fc2c04ee0000b8846042a7604249545452455830300000000000000000000000000000000000000000000000000000000000000000000000cac7000c7dbaa2e33af15325af5d435e011c7bdd00000000000000000000000000000000000000000000000000000000000000000000000000000000000000000000000000000000000000000f43fc2c04ee00001ba09e29b8f432b7a006f556a173ab5f1823858f16871326bb43ee926fa8cbb01e85a0137db0e0503b890b700870c093364ae711696e81b66a4145facb96f29ffb22ec",
      "networkId": 0,
      "chainId": 0
    },
    {
      "hash": "0x8483bfb7d2771856dbdebafa8583aff8f1f620fa67173352392bf1c2fb38a263",
      "blockHash": "0x8bd9e53c5801d4654a2259c7b5b3ebd64155814f478acf9130e21843cbc7646b",
      "blockNumber": 66874,
      "transactionIndex": 4,
      "confirmations": null,
      "from": "0xB7f5530DF01aeFE061dAbFA6E778eE694157A71f",
      "gasPrice": {
        "_hex": "0xcb6c94a32"
      },
      "gasLimit": {
        "_hex": "0x15f90"
      },
      "to": "0x42979fca296FEA2C163EA66E1900acDe7886F86F",
      "value": {
        "_hex": "0x119d4f417273ad0000"
      },
      "nonce": 0,
      "data": "0x",
      "r": "0x79916991f0047666d6c1a3beed98a9e88700860575577a4ce0b4260cea04d8a3",
      "s": "0x3561195864032d7a083db0adf45af6abd4a3fdf39dbebec6828f868f36f763ca",
      "v": 28,
      "creates": null,
      "raw": "0xf86e80850cb6c94a3283015f909442979fca296fea2c163ea66e1900acde7886f86f89119d4f417273ad0000801ca079916991f0047666d6c1a3beed98a9e88700860575577a4ce0b4260cea04d8a3a03561195864032d7a083db0adf45af6abd4a3fdf39dbebec6828f868f36f763ca",
      "networkId": 0,
      "chainId": 0
    },
    {
      "hash": "0xb5bdae5ddc9530ec21b70a6afdae7e67fabe915c94f1bc4c22a49f5643cf7761",
      "blockHash": "0x8bd9e53c5801d4654a2259c7b5b3ebd64155814f478acf9130e21843cbc7646b",
      "blockNumber": 66874,
      "transactionIndex": 5,
      "confirmations": null,
      "from": "0x00818287ff6BA78A461D21bD5832891592dc6C6B",
      "gasPrice": {
        "_hex": "0xba43b7400"
      },
      "gasLimit": {
        "_hex": "0x5208"
      },
      "to": "0x00cDBe22d1E508635F75Ee617b459595072c9229",
      "value": {
        "_hex": "0x16345785d8a0000"
      },
      "nonce": 5,
      "data": "0x",
      "r": "0x7ab796fe49c7e9c12878a616443352e4f1be2a059e56a4ebd0d516e9aac4ceb3",
      "s": "0x137bee39917886ab3a90116ad71d432f6b75f9cc8966332835d7062cd13c3d1e",
      "v": 27,
      "creates": null,
      "raw": "0xf86c05850ba43b74008252089400cdbe22d1e508635f75ee617b459595072c922988016345785d8a0000801ba07ab796fe49c7e9c12878a616443352e4f1be2a059e56a4ebd0d516e9aac4ceb3a0137bee39917886ab3a90116ad71d432f6b75f9cc8966332835d7062cd13c3d1e",
      "networkId": 0,
      "chainId": 0
    }
  ]
}