{
  "hash": "0xe3bf47713e8a4b031022b450ba41ad370bce71304aec7cc70b2770a291308008",
  "parentHash": "0xa309606e5bdeb9d6cce567b8e28db2b5d0dc67461dc832221e2c7156199d2cbe",
  "number": 102028,
  "timestamp": 1439831649,
  "nonce": "0x23bdb4437c30a6ae",
  "difficulty": 3920438550502,
  "gasLimit": {
    "_hex": "0x2fefd8"
  },
  "gasUsed": {
    "_hex": "0xa410"
  },
  "miner": "0xe6A7a1d47ff21B6321162AEA7C6CB457D5476Bca",
  "extraData": "0x476574682f76312e302e312d38326566323666362f6c696e75782f676f312e34",
  "transactions": [
    {
      "hash": "0x871117f72c64905f67fb614396d628e5cc544be2163912f4fa01e040af2ff975",
      "blockHash": "0xe3bf47713e8a4b031022b450ba41ad370bce71304aec7cc70b2770a291308008",
      "blockNumber": 102028,
      "transactionIndex": 0,
      "confirmations": null,
      "from": "0xD9666150A9dA92d9108198a4072970805a8B3428",
      "gasPrice": {
        "_hex": "0xd3d5ca018"
      },
      "gasLimit": {
        "_hex": "0x5208"
      },
      "to": "0x32Be343B94f860124dC4fEe278FDCBD38C102D88",
      "value": {
        "_hex": "0x455f536f8e650400"
      },
      "nonce": 55,
      "data": "0x",
      "r": "0x700565dcda5795e07429120d449a8f7e867df6a345a42b081aa6e2a0391e7496",
      "s": "0x68ee7852fa4238243d3de2dc9cb765502694ab90d87fdafd8c6343fa96eba661",
      "v": 27,
      "creates": null,
      "raw": "0xf86c37850d3d5ca0188252089432be343b94f860124dc4fee278fdcbd38c102d8888455f536f8e650400801ba0700565dcda5795e07429120d449a8f7e867df6a345a42b081aa6e2a0391e7496a068ee7852fa4238243d3de2dc9cb765502694ab90d87fdafd8c6343fa96eba661",
      "networkId": 0,
      "chainId": 0
    },
    {
      "hash": "0x118912bcf0667524b3ce755e42c7770e8ad20d95cf3a837a8c50f7b182cadbaf",
      "blockHash": "0xe3bf47713e8a4b031022b450ba41ad370bce71304aec7cc70b2770a291308008",
      "blockNumber": 102028,
      "transactionIndex": 1,
      "confirmations": null,
      "from": "0xb1abce2918E21ddb93AA452731a12672A3d9F75a",
      "gasPrice": {
        "_hex": "0xd3d5ca018"
      },
      "gasLimit": {
        "_hex": "0x5208"
      },
      "to": "0x32Be343B94f860124dC4fEe278FDCBD38C102D88",
      "value": {
        "_hex": "0x455f536f8e650400"
      },
      "nonce": 97,
      "data": "0x",
      "r": "0x7e338ffd9c0125f4037275081890b63f16da03ab3bc3a82ea257c138479ba6a0",
      "s": "0x449a5784ee7f4659f0af8d930560a177129ff924805e60b9f31816d67962d9f1",
      "v": 28,
      "creates": null,
      "raw": "0xf86c61850d3d5ca0188252089432be343b94f860124dc4fee278fdcbd38c102d8888455f536f8e650400801ca07e338ffd9c0125f4037275081890b63f16da03ab3bc3a82ea257c138479ba6a0a0449a5784ee7f4659f0af8d930560a177129ff924805e60b9f31816d67962d9f1",
      "networkId": 0,
      "chainId": 0
    }
  ]
}