{
  "hash": "0x5c8678e67446198f8200c8b00b0bcfba26b542bc6b08e2c93553a4c51f0dad86",
  "parentHash": "0x712cd21d7858aae94917fd89d0e60c0184c6c63394795a1c6ea1c5523cd02b26",
  "number": 84785,
  "timestamp": 1439554561,
  "nonce": "0xd684f870910aeef2",
  "difficulty": 2628474258858,
  "gasLimit": {
    "_hex": "0x2fefd8"
  },
  "gasUsed": {
    "_hex": "0xa410"
  },
  "miner": "0x9746c7e1ef2bd21FF3997fa467593a89cb852BD0",
  "extraData": "0x476574682f76312e302e312f77696e646f77732f676f312e342e32",
  "transactions": [
    {
      "hash": "0x9fe27d5fc3f89cc0ce69eaa1ce42693e8123eb39498acebf026001442e3fb9a5",
      "blockHash": "0x5c8678e67446198f8200c8b00b0bcfba26b542bc6b08e2c93553a4c51f0dad86",
      "blockNumber": 84785,
      "transactionIndex": 0,
      "confirmations": null,
      "from": "0x120A270bbC009644e35F0bB6ab13f95b8199c4ad",
      "gasPrice": {
        "_hex": "0xd81132676"
      },
      "gasLimit": {
        "_hex": "0x3d090"
      },
      "to": "0xbae281B6b389e840f52b74C832EcdaEf7820d8a5",
      "value": {
        "_hex": "0xd21274e97ed8d5800"
      },
      "nonce": 435,
      "data": "0x",
      "r": "0x55a5e22292e2a0dba55f7ed884779f7ea2dc3b21edb25b80145c35b7b799df63",
      "s": "0x7796cc67f4e7b99e94ff3ea205ba12ce55e516be93dfa5bddd1e4ec34cd45e8e",
      "v": 28,
      "creates": null,
      "raw": "0xf8708201b3850d811326768303d09094bae281b6b389e840f52b74c832ecdaef7820d8a5890d21274e97ed8d5800801ca055a5e22292e2a0dba55f7ed884779f7ea2dc3b21edb25b80145c35b7b799df63a07796cc67f4e7b99e94ff3ea205ba12ce55e516be93dfa5bddd1e4ec34cd45e8e",
      "networkId": 0,
      "chainId": 0
    },
    {
      "hash": "0x5e6e8ee5a7cf03cd0a1752feb97ff5dacf726b7c34e619ad4491bec7da4cee8b",
      "blockHash": "0x5c8678e67446198f8200c8b00b0bcfba26b542bc6b08e2c93553a4c51f0dad86",
      "blockNumber": 84785,
      "transactionIndex": 1,
      "confirmations": null,
      "from": "0x5465B1c380c9D2446965E503EB731F08A30ecD25",
      "gasPrice": {
        "_hex": "0xd2c54cf9e"
      },
      "gasLimit": {
        "_hex": "0x5208"
      },
      "to": "0x32Be343B94f860124dC4fEe278FDCBD38C102D88",
      "value": {
        "_hex": "0x14cccdb1e86e9800"
      },
      "nonce": 0,
      "data": "0x",
      "r": "0x895fa827bb2b9bd4b7015dea4cc1ffe84019f2db95c5d686a001a90e9d651afc",
      "s": "0x1cb24283fec84b7746a3b2e1151421c4c8da72584a5b715888182d946da95ace",
      "v": 28,
      "creates": null,
      "raw": "0xf86c80850d2c54cf9e8252089432be343b94f860124dc4fee278fdcbd38c102d888814cccdb1e86e9800801ca0895fa827bb2b9bd4b7015dea4cc1ffe84019f2db95c5d686a001a90e9d651afca01cb24283fec84b7746a3b2e1151421c4c8da72584a5b715888182d946da95ace",
      "networkId": 0,
      "chainId": 0
    }
  ]
}