{
  "hash": "0x5790b5ac0f884b4ba44f4516d499bbc46cec234d6d9a5287bb934440cdf17576",
  "parentHash": "0x57df4c1a4682650461bf9fa867f72450049e4863b851bb1f97a80f5b00349664",
  "number": 48690,
  "timestamp": 1438961137,
  "nonce": "0x3636fe98617cf26b",
  "difficulty": 1474305204047,
  "gasLimit": {
    "_hex": "0x1c13e"
  },
  "gasUsed": {
    "_hex": "0x546c"
  },
  "miner": "0x87cD3b7f4DBBFE553DB92Ac1C97c6C24231c5D26",
  "extraData": "0x476574682f76312e302e302f6c696e75782f676f312e342e32",
  "transactions": [
    {
      "hash": "0x0e9d4bff8e6575ce8f2fd1006cf897f5e6fdb894143cb85faa9512919a3eaffb",
      "blockHash": "0x5790b5ac0f884b4ba44f4516d499bbc46cec234d6d9a5287bb934440cdf17576",
      "blockNumber": 48690,
      "transactionIndex": 0,
      "confirmations": null,
      "from": "0x9c344098BA615A398F11D009905b177C44a7b602",
      "gasPrice": {
        "_hex": "0x1104a92f495"
      },
      "gasLimit": {
        "_hex": "0x15f90"
      },
      "to": "0x2910543Af39abA0Cd09dBb2D50200b3E800A63D2",
      "value": {
        "_hex": "0xde0b6b3a7640000"
      },
      "nonce": 2,
      "data": "0x454e515a3244355030",
      "r": "0xae1853c09b9a6daf683b9284d3c4b171939e892731fdc86eccd4c136b23e7868",
      "s": "0x70f7d7e33bebb9a36b1dbaec76e6ca5c64bd9e1836e3bf7eaf9654d1808e02ea",
      "v": 28,
      "creates": null,
      "raw": "0xf877028601104a92f49583015f90942910543af39aba0cd09dbb2d50200b3e800a63d2880de0b6b3a764000089454e515a32443550301ca0ae1853c09b9a6daf683b9284d3c4b171939e892731fdc86eccd4c136b23e7868a070f7d7e33bebb9a36b1dbaec76e6ca5c64bd9e1836e3bf7eaf9654d1808e02ea",
      "networkId": 0,
      "chainId": 0
    }
  ]
}