{
  "hash": "0x1fbd6628a122a8ae393081ebf46e0a730a25ccdb1701d1d788b01e9244216a73",
  "parentHash": "0x197e569ba0bb67426b1df70b2cf77aacbf9aa3a78e5c292d2f96ce346db5151a",
  "number": 93360,
  "timestamp": 1439688818,
  "nonce": "0xcf32f0939f8bafdd",
  "difficulty": 3514457791277,
  "gasLimit": {
    "_hex": "0x2fefd8"
  },
  "gasUsed": {
    "_hex": "0x5208"
  },
  "miner": "0x0037ce3d4B7f8729C8607D8D0248252Be68202c0",
  "extraData": "0x476574682f76312e302e312f77696e646f77732f676f312e342e32",
  "transactions": [
    {
      "hash": "0x15d0bb7cb565830f6f0e39c330342bdb7e459487faf004114be266b06859d97e",
      "blockHash": "0x1fbd6628a122a8ae393081ebf46e0a730a25ccdb1701d1d788b01e9244216a73",
      "blockNumber": 93360,
      "transactionIndex": 0,
      "confirmations": null,
      "from": "0xeDb63085aAC5CF2eDbc0C9AD9c274076201da37E",
      "gasPrice": {
        "_hex": "0xd3a831d1c"
      },
      "gasLimit": {
        "_hex": "0x5208"
      },
      "to": "0x2AeDF47e935C75601e9D779453F1a5F8c616bd6E",
      "value": {
        "_hex": "0x3e6ef9009dd61f20"
      },
      "nonce": 3,
      "data": "0x",
      "r": "0x9e4002b92b7dc613e8643b152c27ec7832fafefd30ec96a82607649483285e4f",
      "s": "0x6229dd35334043135caa7aee92405fa67be4655d13775f0c07f69de03d2b18ad",
      "v": 28,
      "creates": null,
      "raw": "0xf86c03850d3a831d1c825208942aedf47e935c75601e9d779453f1a5f8c616bd6e883e6ef9009dd61f20801ca09e4002b92b7dc613e8643b152c27ec7832fafefd30ec96a82607649483285e4fa06229dd35334043135caa7aee92405fa67be4655d13775f0c07f69de03d2b18ad",
      "networkId": 0,
      "chainId": 0
    }
  ]
}