{
  "hash": "0x0efff85bcf2fa8d1648fac26a395103d46179fb86fc373b4640cec5cb13a369f",
  "parentHash": "0xe7b73f2fb50ae830b555071fe42c569e6431c8a650956b89575186903ecc5cb7",
  "number": 49232,
  "timestamp": 1438970219,
  "nonce": "0x4bc41cdcfdd870fd",
  "difficulty": 1478535257741,
  "gasLimit": {
    "_hex": "0x29af9"
  },
  "gasUsed": {
    "_hex": "0xa674"
  },
  "miner": "0xf8E0CA3Ed80bd541b94BEdCf259e8CF2141A9523",
  "extraData": "0x476574682f76312e302e312f77696e646f77732f676f312e342e32",
  "transactions": [
    {
      "hash": "0xa590f7e375a3250694e614b660fe2b7514db420385c28a70a6902ff347ced6d2",
      "blockHash": "0x0efff85bcf2fa8d1648fac26a395103d46179fb86fc373b4640cec5cb13a369f",
      "blockNumber": 49232,
      "transactionIndex": 0,
      "confirmations": null,
      "from": "0x4420Aa35465BE617ad2498F370de0A3CC4D230Af",
      "gasPrice": {
        "_hex": "0x110c8f7d8de"
      },
      "gasLimit": {
        "_hex": "0xc350"
      },
      "to": "0x2910543Af39abA0Cd09dBb2D50200b3E800A63D2",
      "value": {
        "_hex": "0x6c5db2a4d815dc0000"
      },
      "nonce": 0,
      "data": "0x454e475a554d484138",
      "r": "0xa62afe1fb9f8be640b6732c6e1bb13b870a6e2a6cd3a5cbae7c083de1e0498fe",
      "s": "0xad96c6d767797efa1d2813e6beb7da5ad3d022bd945658b8ef5fe051ee742b8c",
      "v": 27,
      "creates": null,
      "raw": "0xf87780860110c8f7d8de82c350942910543af39aba0cd09dbb2d50200b3e800a63d2896c5db2a4d815dc000089454e475a554d4841381ba0a62afe1fb9f8be640b6732c6e1bb13b870a6e2a6cd3a5cbae7c083de1e0498fea0ad96c6d767797efa1d2813e6beb7da5ad3d022bd945658b8ef5fe051ee742b8c",
      "networkId": 0,
      "chainId": 0
    },
    {
      "hash": "0x7a7b7436109c64224bf9629b1d7d35ac5f6171b7e344d15dcf3ec1978ce8c830",
      "blockHash": "0x0efff85bcf2fa8d1648fac26a395103d46179fb86fc373b4640cec5cb13a369f",
      "blockNumber": 49232,
      "transactionIndex": 1,
      "confirmations": null,
      "from": "0x3cCEf88679573947E94997798a1e327e08603A65",
      "gasPrice": {
        "_hex": "0x45d964b800"
      },
      "gasLimit": {
        "_hex": "0x5208"
      },
      "to": "0x38876939fFE3E2F973C27BB77c403BB85CD78645",
      "value": {
        "_hex": "0x2bc90074ce2cec4000"
      },
      "nonce": 0,
      "data": "0x",
      "r": "0xf72aba5cd046650c8031315f0cb14c2da231c452a977669558a2cff88730edb5",
      "s": "0x6b7d5f318781c51118aa841a749e6b23f743954281ccadbb2a42c5b6fb8a9f3f",
      "v": 28,
      "creates": null,
      "raw": "0xf86d808545d964b8008252089438876939ffe3e2f973c27bb77c403bb85cd78645892bc90074ce2cec4000801ca0f72aba5cd046650c8031315f0cb14c2da231c452a977669558a2cff88730edb5a06b7d5f318781c51118aa841a749e6b23f743954281ccadbb2a42c5b6fb8a9f3f",
      "networkId": 0,
      "chainId": 0
    }
  ]
}