{
  "hash": "0xd14ee27c331228364e850306b28efbef51e4d79d62bee0d40aaabb9bce533c6d",
  "parentHash": "0x386dd41d9d6ef7b4684868b2f2fc30eb1f2d0a052bec4173737f9c8ca047778c",
  "number": 109213,
  "timestamp": 1439952745,
  "nonce": "0x4a694622b3aa055b",
  "difficulty": 4462539987772,
  "gasLimit": {
    "_hex": "0x2fefd8"
  },
  "gasUsed": {
    "_hex": "0x546c"
  },
  "miner": "0xC759dc67E0c3816fdC56A2f5bb29920fc07e767D",
  "extraData": "0x476574682f76312e302e312f77696e646f77732f676f312e342e32",
  "transactions": [
    {
      "hash": "0x295f2fdd7dda8d530d25102b246394de0af2e6c783ec2f58f14685963e7f3f98",
      "blockHash": "0xd14ee27c331228364e850306b28efbef51e4d79d62bee0d40aaabb9bce533c6d",
      "blockNumber": 109213,
      "transactionIndex": 0,
      "confirmations": null,
      "from": "0x85A2F6ea94D05E8C1d9Ae2F4910338a358e98DeD",
      "gasPrice": {
        "_hex": "0xba43b7400"
      },
      "gasLimit": {
        "_hex": "0x15f90"
      },
      "to": "0xf4D60FFa86A2C7560599a493080F471D05745a38",
      "value": {
        "_hex": "0x8ac7230489e80000"
      },
      "nonce": 5,
      "data": "0x454e373342334b5547",
      "r": "0x47faad701232090615fd4aafe63b359517f499fe0b6860066c3e0b32a23f698c",
      "s": "0x7d7e80447e7f13dd80566b13db0e99da6c48e5d2c27d78013cd97ad11e8fd237",
      "v": 28,
      "creates": null,
      "raw": "0xf87605850ba43b740083015f9094f4d60ffa86a2c7560599a493080f471d05745a38888ac7230489e8000089454e373342334b55471ca047faad701232090615fd4aafe63b359517f499fe0b6860066c3e0b32a23f698ca07d7e80447e7f13dd80566b13db0e99da6c48e5d2c27d78013cd97ad11e8fd237",
      "networkId": 0,
      "chainId": 0
    }
  ]
}