{
  "hash": "0xf92ba5be8a5463bc1eb6857030ffcad93ac475014ed20a27d63968fc0a6f9d2b",
  "parentHash": "0x9b101d1a02d45281696f1b9c49beca76848f6142dd4c3e8503da8a6539bd7fa6",
  "number": 120923,
  "timestamp": 1440168548,
  "nonce": "0x7810001bd5563f3a",
  "difficulty": 4417319674962,
  "gasLimit": {
    "_hex": "0x2fefd8"
  },
  "gasUsed": {
    "_hex": "0x5208"
  },
  "miner": "0xe6A7a1d47ff21B6321162AEA7C6CB457D5476Bca",
  "extraData": "0xd783010002844765746887676f312e342e32856c696e7578",
  "transactions": [
    {
      "hash": "0xdcf7b545f9bc68c172fea72529d0a29c9ae82d5f20d78b5c8d1149802617a5ab",
      "blockHash": "0xf92ba5be8a5463bc1eb6857030ffcad93ac475014ed20a27d63968fc0a6f9d2b",
      "blockNumber": 120923,
      "transactionIndex": 0,
      "confirmations": null,
      "from": "0x2910543Af39abA0Cd09dBb2D50200b3E800A63D2",
      "gasPrice": {
        "_hex": "0xdea87ccd0"
      },
      "gasLimit": {
        "_hex": "0x5208"
      },
      "to": "0x8F586E3212291c58DCc78980a9c3432a3aFd3b6E",
      "value": {
        "_hex": "0x15af0bb53c545f8000"
      },
      "nonce": 1185,
      "data": "0x",
      "r": "0x8fa9c5bfac5f9672fcd40084755ccdf35bcf577ebb3974b14a2ea84583510c95",
      "s": "0x2e5cf7282e86f507e74eb1319c51c2f8f6f3692d4dc939554ba8f5a9b3ebed87",
      "v": 27,
      "creates": null,
      "raw": "0xf86f8204a1850dea87ccd0825208948f586e3212291c58dcc78980a9c3432a3afd3b6e8915af0bb53c545f8000801ba08fa9c5bfac5f9672fcd40084755ccdf35bcf577ebb3974b14a2ea84583510c95a02e5cf7282e86f507e74eb1319c51c2f8f6f3692d4dc939554ba8f5a9b3ebed87",
      "networkId": 0,
      "chainId": 0
    }
  ]
}