{
  "hash": "0x3ead68fa9166c3fba275bfc5ff66c0ca0e1cf5821da329585fcb257b4f50cb0f",
  "parentHash": "0x633e5b6f93546f00036c044f2edcc0591b3e402f8b298c16f73a4d33bfd5d910",
  "number": 52581,
  "timestamp": 1439023870,
  "nonce": "0x047d94bd7e269862",
  "difficulty": 1567896184621,
  "gasLimit": {
    "_hex": "0x15d550"
  },
  "gasUsed": {
    "_hex": "0xf4240"
  },
  "miner": "0xa50ec0D39fa913E62f1Bae7074E6F36caA71855b",
  "extraData": "0x",
  "transactions": [
    {
      "hash": "0x9f31ffc73cb67c5c0a47271a6c4174e2bfb35b59feac143644ac3b7232202835",
      "blockHash": "0x3ead68fa9166c3fba275bfc5ff66c0ca0e1cf5821da329585fcb257b4f50cb0f",
      "blockNumber": 52581,
      "transactionIndex": 0,
      "confirmations": null,
      "from": "0x54dAeb3E8a6BBC797E4aD2b0339f134b186e4637",
      "gasPrice": {
        "_hex": "0xdf4ba21f9"
      },
      "gasLimit": {
        "_hex": "0x7a120"
      },
      "to": "0xBAA54d6E90c3F4d7Ebec11bD180134C7eD8eBb52",
      "value": {
        "_hex": "0x16345785d8a0000"
      },
      "nonce": 757,
      "data": "0x",
      "r": "0x20e79390786787b602abaca1f484c4dfbba67fdd56e76278d7923fde807db534",
      "s": "0x5bbdd13dbc4a156eae174de6d2fcc9c595dd8368a28d89acfa413786eda3efc7",
      "v": 27,
      "creates": null,
      "raw": "0xf86f8202f5850df4ba21f98307a12094baa54d6e90c3f4d7ebec11bd180134c7ed8ebb5288016345785d8a0000801ba020e79390786787b602abaca1f484c4dfbba67fdd56e76278d7923fde807db534a05bbdd13dbc4a156eae174de6d2fcc9c595dd8368a28d89acfa413786eda3efc7",
      "networkId": 0,
      "chainId": 0
    },
    {
      "hash": "0x123fd551e71fa6c860f47a1bfee5fdfc31b01ac81e033de21dd2f2d30079811c",
      "blockHash": "0x3ead68fa9166c3fba275bfc5ff66c0ca0e1cf5821da329585fcb257b4f50cb0f",
      "blockNumber": 52581,
      "transactionIndex": 1,
      "confirmations": null,
      "from": "0x54dAeb3E8a6BBC797E4aD2b0339f134b186e4637",
      "gasPrice": {
        "_hex": "0xe7d27df17"
      },
      "gasLimit": {
        "_hex": "0x7a120"
      },
      "to": "0xBAA54d6E90c3F4d7Ebec11bD180134C7eD8eBb52",
      "value": {
        "_hex": "0x16345785d8a0000"
      },
      "nonce": 758,
      "data": "0x",
      "r": "0xfb6c2b290afc7393331c74e2c760be6b13effa8fc31a8e08460e6765099cd9b9",
      "s": "0x6f74e87e6aa2571a786f8f097169cbc00f9b8d1d525c82b6fb7459cfac749ca5",
      "v": 27,
      "creates": null,
      "raw": "0xf86f8202f6850e7d27df178307a12094baa54d6e90c3f4d7ebec11bd180134c7ed8ebb5288016345785d8a0000801ba0fb6c2b290afc7393331c74e2c760be6b13effa8fc31a8e08460e6765099cd9b9a06f74e87e6aa2571a786f8f097169cbc00f9b8d1d525c82b6fb7459cfac749ca5",
      "networkId": 0,
      "chainId": 0
    }
  ]
}