{
  "hash": "0x5ce05d03a650a48cf448bec55893335e19f9df6b2514985f9305f3317ded3a38",
  "parentHash": "0xcbd5300123fe528f7caa35b0623eef0e8cede108d5974dcdd3b17e20e6179244",
  "number": 97993,
  "timestamp": 1439765306,
  "nonce": "0x503c2841c2e1f202",
  "difficulty": 3855862383198,
  "gasLimit": {
    "_hex": "0x2fefd8"
  },
  "gasUsed": {
    "_hex": "0x5208"
  },
  "miner": "0xD0ee3F53eE0fCf3F9fbCcdd17BD1b6441DdC2074",
  "extraData": "0x476574682f76312e302e312d38326566323666362f6c696e75782f676f312e34",
  "transactions": [
    {
      "hash": "0x3f6666117a28cf8e4deff9bc4622add7f7136791bdc2905419f04aec1fa11c3e",
      "blockHash": "0x5ce05d03a650a48cf448bec55893335e19f9df6b2514985f9305f3317ded3a38",
      "blockNumber": 97993,
      "transactionIndex": 0,
      "confirmations": null,
      "from": "0xb62A0BF317fceb39ed916f0F9E60e623Ad309127",
      "gasPrice": {
        "_hex": "0xd641f460d"
      },
      "gasLimit": {
        "_hex": "0x15f90"
      },
      "to": "0x93923a3BfcF68a4bd9463Ab5444689269B0d31bb",
      "value": {
        "_hex": "0x16345785d8a0000"
      },
      "nonce": 3,
      "data": "0x",
      "r": "0x068a3ecb47b70c48fc3f9d9779422ade7784bd83fb7446997384190507efe393",
      "s": "0x6c9689e6ae77d087e952d1c07a77aaeaea2c3874db57f819cdd68a08f446442b",
      "v": 27,
      "creates": null,
      "raw": "0xf86d03850d641f460d83015f909493923a3bfcf68a4bd9463ab5444689269b0d31bb88016345785d8a0000801ba0068a3ecb47b70c48fc3f9d9779422ade7784bd83fb7446997384190507efe393a06c9689e6ae77d087e952d1c07a77aaeaea2c3874db57f819cdd68a08f446442b",
      "networkId": 0,
      "chainId": 0
    }
  ]
}