{
  "hash": "0x67a5fe27ec88b2cac32535f3c17222a570725e3a3175e717a7bfb685fd345765",
  "parentHash": "0x4e772144b6099c2dacf2294737e471f8742ff0e472ec8f234557bce9640c3fec",
  "number": 64951,
  "timestamp": 1439228879,
  "nonce": "0x2c6fbd56e85c95fe",
  "difficulty": 1914453077734,
  "gasLimit": {
    "_hex": "0x2fefd8"
  },
  "gasUsed": {
    "_hex": "0x17cd8"
  },
  "miner": "0xB57a69A9cFD1BC39510a70Ab14De3BDa11d1dF70",
  "extraData": "0x476574682f76312e302e312f6c696e75782f676f312e342e32",
  "transactions": [
    {
      "hash": "0x781ff23620307eb7a2fad17f8371137727ec20fcb64e352d9dbcf6c7ef4edd19",
      "blockHash": "0x67a5fe27ec88b2cac32535f3c17222a570725e3a3175e717a7bfb685fd345765",
      "blockNumber": 64951,
      "transactionIndex": 0,
      "confirmations": null,
      "from": "0x12e4342f7DDA76C35f95f3bc3B38962aF11eABF7",
      "gasPrice": {
        "_hex": "0xba43b7400"
      },
      "gasLimit": {
        "_hex": "0x15f90"
      },
      "to": "0x793AE8C1b1a160BFc07BFB0d04F85eab1A71F4f2",
      "value": {
        "_hex": "0x0"
      },
      "nonce": 0,
      "data": "0x3ba15036",
      "r": "0xf3114321bf2c1728dbbebaad508967506dc73a07741ce0e1f15ef4c2d4e665ca",
      "s": "0x6c8f8b8b9ae9a7ed4c838d978ea3342ec2062ce13a66cb9b4c932f19ffb4244e",
      "v": 28,
      "creates": null,
      "raw": "0xf86980850ba43b740083015f9094793ae8c1b1a160bfc07bfb0d04f85eab1a71f4f280843ba150361ca0f3114321bf2c1728dbbebaad508967506dc73a07741ce0e1f15ef4c2d4e665caa06c8f8b8b9ae9a7ed4c838d978ea3342ec2062ce13a66cb9b4c932f19ffb4244e",
      "networkId": 0,
      "chainId": 0
    },
    {
      "hash": "0x62d7f12244543c5133c0a267f7a2a7d9bc8aebf260a06230b77ab466e40c3a35",
      "blockHash": "0x67a5fe27ec88b2cac32535f3c17222a570725e3a3175e717a7bfb685fd345765",
      "blockNumber": 64951,
      "transactionIndex": 1,
      "confirmations": null,
      "from": "0x74cCE2aC834cF71B3B73e62e5Ec11BF94bb267F1",
      "gasPrice": {
        "_hex": "0xba43b7400"
      },
      "gasLimit": {
        "_hex": "0x15f90"
      },
      "to": "0x793AE8C1b1a160BFc07BFB0d04F85eab1A71F4f2",
      "value": {
        "_hex": "0x0"
      },
      "nonce": 0,
      "data": "0x3ba15036",
      "r": "0x168e200a9ea4b82e130c61f67d539e73cb3bb224397a8f70b8fa38fc9461a899",
      "s": "0x09c469278ab1d6ed48cc571880f5377f7eb38727e35a3bad08834875228e755c",
      "v": 28,
      "creates": null,
      "raw": "0xf86980850ba43b740083015f9094793ae8c1b1a160bfc07bfb0d04f85eab1a71f4f280843ba150361ca0168e200a9ea4b82e130c61f67d539e73cb3bb224397a8f70b8fa38fc9461a899a009c469278ab1d6ed48cc571880f5377f7eb38727e35a3bad08834875228e755c",
      "networkId": 0,
      "chainId": 0
    }
  ]
}