{
  "hash": "0xc0e91fdc55cc09d70f23e46881bd417c85d77d7e1773b6173c011bd59ed08176",
  "parentHash": "0xd3669a8a75c5b50bee895450336060606b613504415751b89ad8358ab70ee176",
  "number": 108741,
  "timestamp": 1439945458,
  "nonce": "0xfe194d8529b885b9",
  "difficulty": 4338176332668,
  "gasLimit": {
    "_hex": "0x2fefd8"
  },
  "gasUsed": {
    "_hex": "0x5208"
  },
  "miner": "0x790b8a3cE86E707ED0eD32bF89B3269692a23CC1",
  "extraData": "0xd783010001844765746887676f312e342e32856c696e7578",
  "transactions": [
    {
      "hash": "0x55d28f840ce073431666a694bfaca376d73b2658c65d8ef271a6416a1533d021",
      "blockHash": "0xc0e91fdc55cc09d70f23e46881bd417c85d77d7e1773b6173c011bd59ed08176",
      "blockNumber": 108741,
      "transactionIndex": 0,
      "confirmations": null,
      "from": "0x731f48FB82E3aa0085A39775Fe6987f943B05362",
      "gasPrice": {
        "_hex": "0xdc5646c8f"
      },
      "gasLimit": {
        "_hex": "0x15f90"
      },
      "to": "0x2910543Af39abA0Cd09dBb2D50200b3E800A63D2",
      "value": {
        "_hex": "0x386effa47d7d1"
      },
      "nonce": 1,
      "data": "0x",
      "r": "0x98b5a741fcb1f4f37db3a776ec4e58bae4d50229bc596ce4fc01e6e10e799ca4",
      "s": "0x02d175de1b698231cadcea2e3946692fccd73b1930e514337e9a6e12c8fd86b4",
      "v": 28,
      "creates": null,
      "raw": "0xf86c01850dc5646c8f83015f90942910543af39aba0cd09dbb2d50200b3e800a63d2870386effa47d7d1801ca098b5a741fcb1f4f37db3a776ec4e58bae4d50229bc596ce4fc01e6e10e799ca4a002d175de1b698231cadcea2e3946692fccd73b1930e514337e9a6e12c8fd86b4",
      "networkId": 0,
      "chainId": 0
    }
  ]
}