{
  "hash": "0x5aca32fe445515f743bdc254bc3d242c793a83cfa5a0f96cadf7dae8f63ec9c7",
  "parentHash": "0xfe2ad0257c3fb6cb5d0162bcd37b28db1211e44e3f7c71550212baea6633df86",
  "number": 96242,
  "timestamp": 1439737190,
  "nonce": "0x01c9b5d0a34d208a",
  "difficulty": 3671084095968,
  "gasLimit": {
    "_hex": "0x2fefd8"
  },
  "gasUsed": {
    "_hex": "0x5208"
  },
  "miner": "0xe6A7a1d47ff21B6321162AEA7C6CB457D5476Bca",
  "extraData": "0x476574682f76312e302e312d38326566323666362f6c696e75782f676f312e34",
  "transactions": [
    {
      "hash": "0xd30a7c2b1793213c1c6ed87e34807a03385186f8219177aa4bd9ee0555886680",
      "blockHash": "0x5aca32fe445515f743bdc254bc3d242c793a83cfa5a0f96cadf7dae8f63ec9c7",
      "blockNumber": 96242,
      "transactionIndex": 0,
      "confirmations": null,
      "from": "0xa5D364A2d05C34Dd34e3163E76554626debAe686",
      "gasPrice": {
        "_hex": "0xd754c6177"
      },
      "gasLimit": {
        "_hex": "0x5208"
      },
      "to": "0x32Be343B94f860124dC4fEe278FDCBD38C102D88",
      "value": {
        "_hex": "0x6107b25fc425dc0000"
      },
      "nonce": 3,
      "data": "0x",
      "r": "0x539d82f722b9ee8ab786293482e2e5adf377157fc0227291cc9b9ebc70eae786",
      "s": "0x07738c0cfc956f302ccf656e583e9075ddb655fd9580b058acbb0158ee95e5be",
      "v": 27,
      "creates": null,
      "raw": "0xf86d03850d754c61778252089432be343b94f860124dc4fee278fdcbd38c102d88896107b25fc425dc0000801ba0539d82f722b9ee8ab786293482e2e5adf377157fc0227291cc9b9ebc70eae786a007738c0cfc956f302ccf656e583e9075ddb655fd9580b058acbb0158ee95e5be",
      "networkId": 0,
      "chainId": 0
    }
  ]
}