{
  "hash": "0xc3d6244933cdae1fd56feb12f4cf42d1b963ec0a331ea02c86a73a60645dd5a2",
  "parentHash": "0x8252b8dc694933760afc14b95f55c1f27e1a78a0b5343dc61d3c9006af9231a5",
  "number": 89639,
  "timestamp": 1439626758,
  "nonce": "0xa80b385f0c7c635f",
  "difficulty": 3311066149250,
  "gasLimit": {
    "_hex": "0x2fefd8"
  },
  "gasUsed": {
    "_hex": "0x5208"
  },
  "miner": "0xe6A7a1d47ff21B6321162AEA7C6CB457D5476Bca",
  "extraData": "0x476574682f76312e302e312d38326566323666362f6c696e75782f676f312e34",
  "transactions": [
    {
      "hash": "0xc4f801946f23af7a570145c49080e4a61f74cec24dd26ba02f3ae52715ea4eda",
      "blockHash": "0xc3d6244933cdae1fd56feb12f4cf42d1b963ec0a331ea02c86a73a60645dd5a2",
      "blockNumber": 89639,
      "transactionIndex": 0,
      "confirmations": null,
      "from": "0x2910543Af39abA0Cd09dBb2D50200b3E800A63D2",
      "gasPrice": {
        "_hex": "0xe08774f18"
      },
      "gasLimit": {
        "_hex": "0x5208"
      },
      "to": "0x2be0891637A46bd64D778d489c9B277c0Cb624eB",
      "value": {
        "_hex": "0x8e07bc132beb8f8000"
      },
      "nonce": 760,
      "data": "0x",
      "r": "0x38537c5de39c6e8cae5887c86d324546d6f730d97d5a3209c40c87716462970f",
      "s": "0x6563ae44c4f13cd9b1419145d8fc55f88f2a941f540906e379bcd876bb9269e4",
      "v": 27,
      "creates": null,
      "raw": "0xf86f8202f8850e08774f18825208942be0891637a46bd64d778d489c9b277c0cb624eb898e07bc132beb8f8000801ba038537c5de39c6e8cae5887c86d324546d6f730d97d5a3209c40c87716462970fa06563ae44c4f13cd9b1419145d8fc55f88f2a941f540906e379bcd876bb9269e4",
      "networkId": 0,
      "chainId": 0
    }
  ]
}