{
  "hash": "0xfcf684526dd5c0eb30f8bdae6a1bac7f14f6f882a99a4966975381c981529d9d",
  "parentHash": "0x32bc67ffd1f96a503218e1464b30008c829426e9e87665b265d92adfb3b878b7",
  "number": 101281,
  "timestamp": 1439820418,
  "nonce": "0xfd4ae70728088614",
  "difficulty": 3820623631921,
  "gasLimit": {
    "_hex": "0x2fefd8"
  },
  "gasUsed": {
    "_hex": "0xf618"
  },
  "miner": "0x790b8a3cE86E707ED0eD32bF89B3269692a23CC1",
  "extraData": "0xd783010001844765746887676f312e342e32856c696e7578",
  "transactions": [
    {
      "hash": "0xf00c84a992bc566b448f7986729358e5017dd04e79753ff820210614e3fc5be5",
      "blockHash": "0xfcf684526dd5c0eb30f8bdae6a1bac7f14f6f882a99a4966975381c981529d9d",
      "blockNumber": 101281,
      "transactionIndex": 0,
      "confirmations": null,
      "from": "0x2910543Af39abA0Cd09dBb2D50200b3E800A63D2",
      "gasPrice": {
        "_hex": "0xcd36d01d7"
      },
      "gasLimit": {
        "_hex": "0x5208"
      },
      "to": "0x28124371de5Caddd3E9a09A4b745cDcb0FC5337E",
      "value": {
        "_hex": "0x8ab55f8b52078000"
      },
      "nonce": 963,
      "data": "0x",
      "r": "0x5c6b655ac8b64cead87407e44383575da219fcf65cdc98882d9d32ff2270e2e9",
      "s": "0x5301b3268171e54a92107b4b0a428194bf20025e4517c2136eb0269efd9e0992",
      "v": 28,
      "creates": null,
      "raw": "0xf86e8203c3850cd36d01d78252089428124371de5caddd3e9a09a4b745cdcb0fc5337e888ab55f8b52078000801ca05c6b655ac8b64cead87407e44383575da219fcf65cdc98882d9d32ff2270e2e9a05301b3268171e54a92107b4b0a428194bf20025e4517c2136eb0269efd9e0992",
      "networkId": 0,
      "chainId": 0
    },
    {
      "hash": "0xec4d7dcaa1c61b6a794038b079cab9ae2ed0d5d50896181b61a611c8d19c8624",
      "blockHash": "0xfcf684526dd5c0eb30f8bdae6a1bac7f14f6f882a99a4966975381c981529d9d",
      "blockNumber": 101281,
      "transactionIndex": 1,
      "confirmations": null,
      "from": "0x95B8Be50517B180F2F101f1cFe0E4C66Ad6fa7dd",
      "gasPrice": {
        "_hex": "0xccb4d3f9d"
      },
      "gasLimit": {
        "_hex": "0x15f90"
      },
      "to": "0xbCab99c9250A69cCD7395f2543ed52FF1e220398",
      "value": {
        "_hex": "0x1"
      },
      "nonce": 5,
      "data": "0x",
      "r": "0x37dd826544c53af018521fbef597865858ac04bdcc53919e6d8d12e355a29bb3",
      "s": "0x6cdcbd10ec14b320b791b420ef06d21203357b58aeeffc1d20b33db0baf41128",
      "v": 28,
      "creates": null,
      "raw": "0xf86505850ccb4d3f9d83015f9094bcab99c9250a69ccd7395f2543ed52ff1e22039801801ca037dd826544c53af018521fbef597865858ac04bdcc53919e6d8d12e355a29bb3a06cdcbd10ec14b320b791b420ef06d21203357b58aeeffc1d20b33db0baf41128",
      "networkId": 0,
      "chainId": 0
    },
    {
      "hash": "0xc235b678e03d1ba0c6f0b0d6dbae649458e716d829351c474351e3d16fc67216",
      "blockHash": "0xfcf684526dd5c0eb30f8bdae6a1bac7f14f6f882a99a4966975381c981529d9d",
      "blockNumber": 101281,
      "transactionIndex": 2,
      "confirmations": null,
      "from": "0x95B8Be50517B180F2F101f1cFe0E4C66Ad6fa7dd",
      "gasPrice": {
        "_hex": "0xccb4d3f9d"
      },
      "gasLimit": {
        "_hex": "0x7530"
      },
      "to": "0xbCab99c9250A69cCD7395f2543ed52FF1e220398",
      "value": {
        "_hex": "0x16345785d8a0000"
      },
      "nonce": 6,
      "data": "0x",
      "r": "0x96a0de59562a903cc36b317373db21d617d699ff83b51d7557b00f1e8831db56",
      "s": "0x3e1821aa30234206b6370f83c65433e392cc517c222322a777ae60285c3c130a",
      "v": 28,
      "creates": null,
      "raw": "0xf86c06850ccb4d3f9d82753094bcab99c9250a69ccd7395f2543ed52ff1e22039888016345785d8a0000801ca096a0de59562a903cc36b317373db21d617d699ff83b51d7557b00f1e8831db56a03e1821aa30234206b6370f83c65433e392cc517c222322a777ae60285c3c130a",
      "networkId": 0,
      "chainId": 0
    }
  ]
}