{
  "hash": "0xa16fe9c6c15a0e6a4c609416500b4907b3156e6e4612cee3e44fb68562b559ec",
  "parentHash": "0x3d9b3bc8d7aecfa84fc2f2f60fec68d69c1afddf8779637a43adb165845d9433",
  "number": 99803,
  "timestamp": 1439795827,
  "nonce": "0xf4e9830a9f90ddac",
  "difficulty": 3840001157240,
  "gasLimit": {
    "_hex": "0x2fefd8"
  },
  "gasUsed": {
    "_hex": "0xa410"
  },
  "miner": "0xe6A7a1d47ff21B6321162AEA7C6CB457D5476Bca",
  "extraData": "0x476574682f76312e302e312d38326566323666362f6c696e75782f676f312e34",
  "transactions": [
    {
      "hash": "0xc49f0db8a1eaf791cb7d4afe0ec338262beb854e0667895fa60e918ed3adb404",
      "blockHash": "0xa16fe9c6c15a0e6a4c609416500b4907b3156e6e4612cee3e44fb68562b559ec",
      "blockNumber": 99803,
      "transactionIndex": 0,
      "confirmations": null,
      "from": "0xdeE4977F74E6Aef6D627191c9A45D2627e331150",
      "gasPrice": {
        "_hex": "0xcc539ea46"
      },
      "gasLimit": {
        "_hex": "0x5208"
      },
      "to": "0x32Be343B94f860124dC4fEe278FDCBD38C102D88",
      "value": {
        "_hex": "0x107a977c26e7a0000"
      },
      "nonce": 16,
      "data": "0x",
      "r": "0xac9df26f415ab6c911ca31d384e3ab2040334bff51b4b9bee88e279af2ee98e8",
      "s": "0x38c981730606e59b3cf4c1c6c605b2feb47129b864ab4dbe354cb0450f66cf30",
      "v": 28,
      "creates": null,
      "raw": "0xf86d10850cc539ea468252089432be343b94f860124dc4fee278fdcbd38c102d88890107a977c26e7a0000801ca0ac9df26f415ab6c911ca31d384e3ab2040334bff51b4b9bee88e279af2ee98e8a038c981730606e59b3cf4c1c6c605b2feb47129b864ab4dbe354cb0450f66cf30",
      "networkId": 0,
      "chainId": 0
    },
    {
      "hash": "0x0fe4b359b6aeb6fb6590fcc7cd10fb32bff9ed52559f93bc175af994cb99af9f",
      "blockHash": "0xa16fe9c6c15a0e6a4c609416500b4907b3156e6e4612cee3e44fb68562b559ec",
      "blockNumber": 99803,
      "transactionIndex": 1,
      "confirmations": null,
      "from": "0x96811Ad897894eC178872117C8BF2f03971A393B",
      "gasPrice": {
        "_hex": "0xcc539ea46"
      },
      "gasLimit": {
        "_hex": "0x5208"
      },
      "to": "0x32Be343B94f860124dC4fEe278FDCBD38C102D88",
      "value": {
        "_hex": "0x1049bd4157c866000"
      },
      "nonce": 37,
      "data": "0x",
      "r": "0xdea127cadcfa0d0e1487ca2d8ea75c2b03918e15d7a4aa01c053351ce39de8e4",
      "s": "0x7d0d079bf2be39dbe1e3b5568a8f286e50632bdc5647770227d368c8f3abd81f",
      "v": 27,
      "creates": null,
      "raw": "0xf86d25850cc539ea468252089432be343b94f860124dc4fee278fdcbd38c102d888901049bd4157c866000801ba0dea127cadcfa0d0e1487ca2d8ea75c2b03918e15d7a4aa01c053351ce39de8e4a07d0d079bf2be39dbe1e3b5568a8f286e50632bdc5647770227d368c8f3abd81f",
      "networkId": 0,
      "chainId": 0
    }
  ]
}