{
  "hash": "0x6c8a58a1b4ce496d6cfa8b72bf55ae548dc9346766da15053a538fd5cf2a7d0d",
  "parentHash": "0x5f85421a0d0c2355d0cc83e36f387dc92ea115860a43fa9a99cac451428a9bca",
  "number": 56422,
  "timestamp": 1439087067,
  "nonce": "0xbc961deb44e9e68c",
  "difficulty": 1654462282241,
  "gasLimit": {
    "_hex": "0x2fefd8"
  },
  "gasUsed": {
    "_hex": "0x1484d"
  },
  "miner": "0x400fb5A6482E54E44b2250E75251707514c605C1",
  "extraData": "0x476574682f76312e302e312f77696e646f77732f676f312e342e32",
  "transactions": [
    {
      "hash": "0xff5855834a064f5341d0f9fbd0eaebaebb01cad4adc309d5a2536767cfcdbb40",
      "blockHash": "0x6c8a58a1b4ce496d6cfa8b72bf55ae548dc9346766da15053a538fd5cf2a7d0d",
      "blockNumber": 56422,
      "transactionIndex": 0,
      "confirmations": null,
      "from": "0xFD2605a2bF58fDbB90db1Da55dF61628B47F9e8c",
      "gasPrice": {
        "_hex": "0xdac4c948c"
      },
      "gasLimit": {
        "_hex": "0x186a0"
      },
      "to": "0xf38B4b47b3d6A50078Aa97B3C0a75664224EA71c",
      "value": {
        "_hex": "0x16345785d8a0000"
      },
      "nonce": 33,
      "data": "0x67dd74caf395757e0d74803aae4e8adb875451d99622e911b61c64e044e0bd16a16f18cd",
      "r": "0x41b2f5e8ae624e8c03eaf8d7cc7049e34bed497136943badc26afba47acdef8b",
      "s": "0x77faced606e7d40238c2b38404d4f0c29397eeef613d8cb962c78e3aef792cff",
      "v": 27,
      "creates": null,
      "raw": "0xf89121850dac4c948c830186a094f38b4b47b3d6a50078aa97b3c0a75664224ea71c88016345785d8a0000a467dd74caf395757e0d74803aae4e8adb875451d99622e911b61c64e044e0bd16a16f18cd1ba041b2f5e8ae624e8c03eaf8d7cc7049e34bed497136943badc26afba47acdef8ba077faced606e7d40238c2b38404d4f0c29397eeef613d8cb962c78e3aef792cff",
      "networkId": 0,
      "chainId": 0
    }
  ]
}