{
  "hash": "0x7be5ac58b10331793d9ce13ab9d18000b23fcf1345d4a89eea019efc3d9cfebe",
  "parentHash": "0x988a481ff3400da58dba771a66ceb05d29e569dafca3e2f3121664e71d4101dd",
  "number": 76222,
  "timestamp": 1439416839,
  "nonce": "0x70304bfd4b6cf02f",
  "difficulty": 2238493804284,
  "gasLimit": {
    "_hex": "0x2fefd8"
  },
  "gasUsed": {
    "_hex": "0xa8d8"
  },
  "miner": "0xf8E0CA3Ed80bd541b94BEdCf259e8CF2141A9523",
  "extraData": "0x476574682f76312e302e312f77696e646f77732f676f312e342e32",
  "transactions": [
    {
      "hash": "0xe8dd1957b7f75c9339239aa1001882066d0933a7566bc366594c92a7d4b75ed4",
      "blockHash": "0x7be5ac58b10331793d9ce13ab9d18000b23fcf1345d4a89eea019efc3d9cfebe",
      "blockNumber": 76222,
      "transactionIndex": 0,
      "confirmations": null,
      "from": "0x42Dd879f8Eb7e9B43036A5b4C97B02c6176D6B99",
      "gasPrice": {
        "_hex": "0x114c7363a6d"
      },
      "gasLimit": {
        "_hex": "0x15f90"
      },
      "to": "0x2910543Af39abA0Cd09dBb2D50200b3E800A63D2",
      "value": {
        "_hex": "0x32d26d12e980b600000"
      },
      "nonce": 5,
      "data": "0x454e39595456545230",
      "r": "0x300f7086149593e20a72ce543acae687492fb9dfb11637f1880ca40e3162e269",
      "s": "0x6de7bdb41f92d3b68ce6aea80f4427c56364661b70f03af17b3753ddb3dcc9ee",
      "v": 27,
      "creates": null,
      "raw": "0xf87905860114c7363a6d83015f90942910543af39aba0cd09dbb2d50200b3e800a63d28a032d26d12e980b60000089454e395954565452301ba0300f7086149593e20a72ce543acae687492fb9dfb11637f1880ca40e3162e269a06de7bdb41f92d3b68ce6aea80f4427c56364661b70f03af17b3753ddb3dcc9ee",
      "networkId": 0,
      "chainId": 0
    },
    {
      "hash": "0xb106f3d2f26ec66172adab09c792801a4e1b2e2f5da7e47ebb6aa47cb6551987",
      "blockHash": "0x7be5ac58b10331793d9ce13ab9d18000b23fcf1345d4a89eea019efc3d9cfebe",
      "blockNumber": 76222,
      "transactionIndex": 1,
      "confirmations": null,
      "from": "0x88975A5f1ef2528C300b83c0C607b8e87dd69315",
      "gasPrice": {
        "_hex": "0x110c8f7d8de"
      },
      "gasLimit": {
        "_hex": "0xc350"
      },
      "to": "0x2910543Af39abA0Cd09dBb2D50200b3E800A63D2",
      "value": {
        "_hex": "0x47fdb3c3f456c0000"
      },
      "nonce": 0,
      "data": "0x454e48444635455a30",
      "r": "0xf17815bfae89fb299ce5a6935fac3ec4b87599f88dd3130cc8d3230162b111f8",
      "s": "0x7e35eadaeb6f40eb3a9d402a53bbb3011bb05b097992af0f026b87cacee5e4e5",
      "v": 28,
      "creates": null,
      "raw": "0xf87780860110c8f7d8de82c350942910543af39aba0cd09dbb2d50200b3e800a63d289047fdb3c3f456c000089454e48444635455a301ca0f17815bfae89fb299ce5a6935fac3ec4b87599f88dd3130cc8d3230162b111f8a07e35eadaeb6f40eb3a9d402a53bbb3011bb05b097992af0f026b87cacee5e4e5",
      "networkId": 0,
      "chainId": 0
    }
  ]
}