{
  "hash": "0xb15d4362d3bdb7350647ecc2df12e1930144e757abf337cb498f4b1b01dc7169",
  "parentHash": "0x785bcbe09936ca0c281f91bfc21d5a9c8bb1b9408f52bc78cd2b3e3e6b3f4938",
  "number": 100699,
  "timestamp": 1439810775,
  "nonce": "0x5902da8bb9bcc786",
  "difficulty": 3839591022726,
  "gasLimit": {
    "_hex": "0x2fefd8"
  },
  "gasUsed": {
    "_hex": "0x5208"
  },
  "miner": "0x790b8a3cE86E707ED0eD32bF89B3269692a23CC1",
  "extraData": "0xd783010001844765746887676f312e342e32856c696e7578",
  "transactions": [
    {
      "hash": "0xcf2889e101a177adeb58565830d6f9ceb83656f972550dd7a153e149fe933650",
      "blockHash": "0xb15d4362d3bdb7350647ecc2df12e1930144e757abf337cb498f4b1b01dc7169",
      "blockNumber": 100699,
      "transactionIndex": 0,
      "confirmations": null,
      "from": "0xeDbc07d54406D3B56bdaeADEEa788b9721f779ba",
      "gasPrice": {
        "_hex": "0xd0a0e2766"
      },
      "gasLimit": {
        "_hex": "0x55f0"
      },
      "to": "0x0DBaD90C967BFfeA4d6B589c0d2AF50A0eA16304",
      "value": {
        "_hex": "0x4b1d1012c6cd40000"
      },
      "nonce": 1,
      "data": "0x",
      "r": "0x7c18c87da0d7e91c627aca87242b0602e8d83a952a172400ce7310a38e1d1fef",
      "s": "0x2830c6f6f62825f9f743b8dd1d95f7d685ec05f3c66ececf372e1061fe45f2ab",
      "v": 27,
      "creates": null,
      "raw": "0xf86d01850d0a0e27668255f0940dbad90c967bffea4d6b589c0d2af50a0ea163048904b1d1012c6cd40000801ba07c18c87da0d7e91c627aca87242b0602e8d83a952a172400ce7310a38e1d1fefa02830c6f6f62825f9f743b8dd1d95f7d685ec05f3c66ececf372e1061fe45f2ab",
      "networkId": 0,
      "chainId": 0
    }
  ]
}