{
  "hash": "0x8ee767710184d260abfac7cd440a6ea8cf58e8fc740269c38fce19e87314fb76",
  "parentHash": "0x3eeec79fd081e835e2011650d6fb4446838ede7e19901be9f1a02af2debd4eff",
  "number": 82225,
  "timestamp": 1439515766,
  "nonce": "0x6b02ecfdea139481",
  "difficulty": 2377674189318,
  "gasLimit": {
    "_hex": "0x2fefd8"
  },
  "gasUsed": {
    "_hex": "0x14820"
  },
  "miner": "0x157c6f2431eB1a95797EE86F7d17b3c0FD47A247",
  "extraData": "0x476574682f76312e302e312f77696e646f77732f676f312e342e32",
  "transactions": [
    {
      "hash": "0x1a624dad51cd7af2db89b7501d3e957d6ae7757f9bb79b9622a2ec3c7f50036a",
      "blockHash": "0x8ee767710184d260abfac7cd440a6ea8cf58e8fc740269c38fce19e87314fb76",
      "blockNumber": 82225,
      "transactionIndex": 0,
      "confirmations": null,
      "from": "0xc0b9d23f8d37650D0141B559dbD33d94Ea004e07",
      "gasPrice": {
        "_hex": "0xd0af726b0"
      },
      "gasLimit": {
        "_hex": "0x5208"
      },
      "to": "0x32Be343B94f860124dC4fEe278FDCBD38C102D88",
      "value": {
        "_hex": "0x56bc33041befec000"
      },
      "nonce": 10,
      "data": "0x",
      "r": "0x2dd2021351778a4c8265f94e2699403f205a2ac02f14c9ce1678f2e300ee336b",
      "s": "0x60df98ba4d04f841cc71941a8adeb7a1d4fb36c755935812141a763b79ae8067",
      "v": 28,
      "creates": null,
      "raw": "0xf86d0a850d0af726b08252089432be343b94f860124dc4fee278fdcbd38c102d8889056bc33041befec000801ca02dd2021351778a4c8265f94e2699403f205a2ac02f14c9ce1678f2e300ee336ba060df98ba4d04f841cc71941a8adeb7a1d4fb36c755935812141a763b79ae8067",
      "networkId": 0,
      "chainId": 0
    },
    {
      "hash": "0xe99d918026c74512decce67223cb537cb13c1f174172d18b83f9fe50431ca5fc",
      "blockHash": "0x8ee767710184d260abfac7cd440a6ea8cf58e8fc740269c38fce19e87314fb76",
      "blockNumber": 82225,
      "transactionIndex": 1,
      "confirmations": null,
      "from": "0x5140c73CF82b871927b782e5f55e7957ddD6D3f2",
      "gasPrice": {
        "_hex": "0xd0af726b0"
      },
      "gasLimit": {
        "_hex": "0x5208"
      },
      "to": "0x32Be343B94f860124dC4fEe278FDCBD38C102D88",
      "value": {
        "_hex": "0x56bb16cc8871e4000"
      },
      "nonce": 0,
      "data": "0x",
      "r": "0x7e559afabad7c302b658c37fd42e632eb3b28364ede9b269bda50b8d620d59f2",
      "s": "0x06cd817dc1da4ee7374f4762e1afca72245e6dcd8fb53e29e20de983bdc411d2",
      "v": 28,
      "creates": null,
      "raw": "0xf86d80850d0af726b08252089432be343b94f860124dc4fee278fdcbd38c102d8889056bb16cc8871e4000801ca07e559afabad7c302b658c37fd42e632eb3b28364ede9b269bda50b8d620d59f2a006cd817dc1da4ee7374f4762e1afca72245e6dcd8fb53e29e20de983bdc411d2",
      "networkId": 0,
      "chainId": 0
    },
    {
      "hash": "0xe69ec40b25a3336dbd64823bbdae076a5977f5b459cedc7cab5396255a8c7222",
      "blockHash": "0x8ee767710184d260abfac7cd440a6ea8cf58e8fc740269c38fce19e87314fb76",
      "blockNumber": 82225,
      "transactionIndex": 2,
      "confirmations": null,
      "from": "0xa6BDc31c431B8F97848c9D60cbbe9660dc450eB7",
      "gasPrice": {
        "_hex": "0xd0af726b0"
      },
      "gasLimit": {
        "_hex": "0x5208"
      },
      "to": "0x32Be343B94f860124dC4fEe278FDCBD38C102D88",
      "value": {
        "_hex": "0x45b9589cd9c1d400"
      },
      "nonce": 50,
      "data": "0x",
      "r": "0xf77e3d2aae17b5ba44a7819c8f8ca58ec3013e4f7f74237882f92bfbbc1f165f",
      "s": "0x3baf37f3e1e81b2293f420ee6f116c9695193d3fb6e69a37bffea3b002628c32",
      "v": 27,
      "creates": null,
      "raw": "0xf86c32850d0af726b08252089432be343b94f860124dc4fee278fdcbd38c102d888845b9589cd9c1d400801ba0f77e3d2aae17b5ba44a7819c8f8ca58ec3013e4f7f74237882f92bfbbc1f165fa03baf37f3e1e81b2293f420ee6f116c9695193d3fb6e69a37bffea3b002628c32",
      "networkId": 0,
      "chainId": 0
    },
    {
      "hash": "0xb752fca79aa51966b79f2d97e68b57e8bd4065eb4cf367241cdae2c97eeec84b",
      "blockHash": "0x8ee767710184d260abfac7cd440a6ea8cf58e8fc740269c38fce19e87314fb76",
      "blockNumber": 82225,
      "transactionIndex": 3,
      "confirmations": null,
      "from": "0x0D4EcC7d750180EBf4A9Df728B6669B5Bceb5E40",
      "gasPrice": {
        "_hex": "0xd0af726b0"
      },
      "gasLimit": {
        "_hex": "0x5208"
      },
      "to": "0x32Be343B94f860124dC4fEe278FDCBD38C102D88",
      "value": {
        "_hex": "0x4584b14ab712e800"
      },
      "nonce": 15,
      "data": "0x",
      "r": "0xd3503987d2b0e40b2426d342ad76dcd54d9136dc32679a1338d8d8a6ac70d716",
      "s": "0x474ba61c4a5c982dc468ba55ce5a8eff90fed1db95cda3c414702c1f88ed986e",
      "v": 28,
      "creates": null,
      "raw": "0xf86c0f850d0af726b08252089432be343b94f860124dc4fee278fdcbd38c102d88884584b14ab712e800801ca0d3503987d2b0e40b2426d342ad76dcd54d9136dc32679a1338d8d8a6ac70d716a0474ba61c4a5c982dc468ba55ce5a8eff90fed1db95cda3c414702c1f88ed986e",
      "networkId": 0,
      "chainId": 0
    }
  ]
}