{
  "hash": "0xe9634e530181e87f1abbb04471b553dffd12c66b9490e094dc0a8cce07b920b9",
  "parentHash": "0x7215059faf9d1f3fcaf8a78169037e9026822310b3aefd9cde59ac2b055fd7d2",
  "number": 104874,
  "timestamp": 1439877362,
  "nonce": "0xb7f4d18e6046c7e4",
  "difficulty": 4346538956353,
  "gasLimit": {
    "_hex": "0x2fefd8"
  },
  "gasUsed": {
    "_hex": "0x5208"
  },
  "miner": "0x5F8F73E26CdF436f19Cb24C82F90A15AFe55b592",
  "extraData": "0x476574682f76312e302e312f77696e646f77732f676f312e342e32",
  "transactions": [
    {
      "hash": "0x27e0833999b44b787a0bc3b96508b79f840c25462cdad2e5d240a153f9f3910f",
      "blockHash": "0xe9634e530181e87f1abbb04471b553dffd12c66b9490e094dc0a8cce07b920b9",
      "blockNumber": 104874,
      "transactionIndex": 0,
      "confirmations": null,
      "from": "0xcf00A85f3826941e7A25BFcF9Aac575d40410852",
      "gasPrice": {
        "_hex": "0xcb5bea614"
      },
      "gasLimit": {
        "_hex": "0x15f90"
      },
      "to": "0xD9666150A9dA92d9108198a4072970805a8B3428",
      "value": {
        "_hex": "0x4563918244f40000"
      },
      "nonce": 62,
      "data": "0x",
      "r": "0xd132ab396e6bb16cad6b2c256e9035cb494f390f97a1fc6be07bca8b9b417bcf",
      "s": "0x1ddddd54919d3d27f88c25c1a17f7af28e3f6a276d75e2b2f210d4b6eae5f01a",
      "v": 27,
      "creates": null,
      "raw": "0xf86d3e850cb5bea61483015f9094d9666150a9da92d9108198a4072970805a8b3428884563918244f40000801ba0d132ab396e6bb16cad6b2c256e9035cb494f390f97a1fc6be07bca8b9b417bcfa01ddddd54919d3d27f88c25c1a17f7af28e3f6a276d75e2b2f210d4b6eae5f01a",
      "networkId": 0,
      "chainId": 0
    }
  ]
}