{
  "hash": "0x7006733637efa333a4ea563263569d91163a4fa48f969c986dafeb82b9045210",
  "parentHash": "0xb2f6ac63c1ad30c31d34f1d6d098e31066abeff0b2cc2e8b64ccfec69afee2d0",
  "number": 91428,
  "timestamp": 1439655609,
  "nonce": "0x725249a7ea3e7595",
  "difficulty": 3467534053681,
  "gasLimit": {
    "_hex": "0x2fefd8"
  },
  "gasUsed": {
    "_hex": "0x5208"
  },
  "miner": "0xe6A7a1d47ff21B6321162AEA7C6CB457D5476Bca",
  "extraData": "0x476574682f76312e302e312d38326566323666362f6c696e75782f676f312e34",
  "transactions": [
    {
      "hash": "0xd80e2b79e4bd5c7e447c5f4f3d8dc4ceee5f79e2848c174a6196b3f7d975b0e9",
      "blockHash": "0x7006733637efa333a4ea563263569d91163a4fa48f969c986dafeb82b9045210",
      "blockNumber": 91428,
      "transactionIndex": 0,
      "confirmations": null,
      "from": "0xC47Aaa860008be6f65B58c6C6E02a84e666EfE31",
      "gasPrice": {
        "_hex": "0xd3f825e43"
      },
      "gasLimit": {
        "_hex": "0x15f90"
      },
      "to": "0x007695872AB13E1016138E7Bf2BE234cA7A77740",
      "value": {
        "_hex": "0xde0b6b3a7640000"
      },
      "nonce": 27,
      "data": "0x",
      "r": "0xda16ed84dbc65cdd092301f6370a4fabc2e87d03ed3d4f14cfb4f8b9e35d5e2c",
      "s": "0x42896d5cdb5ebb225c82e8a7c4c4926115d6855a0d7e47cda38ed2bfc6f50f79",
      "v": 28,
      "creates": null,
      "raw": "0xf86d1b850d3f825e4383015f9094007695872ab13e1016138e7bf2be234ca7a77740880de0b6b3a7640000801ca0da16ed84dbc65cdd092301f6370a4fabc2e87d03ed3d4f14cfb4f8b9e35d5e2ca042896d5cdb5ebb225c82e8a7c4c4926115d6855a0d7e47cda38ed2bfc6f50f79",
      "networkId": 0,
      "chainId": 0
    }
  ]
}