{
  "hash": "0x5a1acd37bcb1360f771374e81d02293c32c4dba14582a7f54ee3f0d05107764a",
  "parentHash": "0xe4a76354c9d3b1d84c4da2f1666969f7942fe61b2e7f689b229720fc8355fb51",
  "number": 46528,
  "timestamp": 1438924597,
  "nonce": "0x51d93901113b210b",
  "difficulty": 1466069757318,
  "gasLimit": {
    "_hex": "0x6697"
  },
  "gasUsed": {
    "_hex": "0x5208"
  },
  "miner": "0x3FF679B0823a026F2378E5f5F22A6F127cC85828",
  "extraData": "0x476574682f76312e302e302f6c696e75782f676f312e342e32",
  "transactions": [
    {
      "hash": "0x7984e7cf2dcf69b6bbec4a44c6957edf8d6ecd3fd3dda74c6e007ec22374b64d",
      "blockHash": "0x5a1acd37bcb1360f771374e81d02293c32c4dba14582a7f54ee3f0d05107764a",
      "blockNumber": 46528,
      "transactionIndex": 0,
      "confirmations": null,
      "from": "0xd7E30ae310C1D1800F5B641Baa7af95b2e1FD98C",
      "gasPrice": {
        "_hex": "0xe8d4a51000"
      },
      "gasLimit": {
        "_hex": "0x5208"
      },
      "to": "0xf7B8418409F2A9de568A4bcbd93d7e26D70509ae",
      "value": {
        "_hex": "0xde0b6b3a7640000"
      },
      "nonce": 0,
      "data": "0x",
      "r": "0x3d4f387e6754200a6b40eb8ce18690c08e7721b1aa68601631a089e37b1c7571",
      "s": "0x5957e7de53797ec22ed2dcaee0fec3dacbb2f47d1a3c8399c51abd3d1219302e",
      "v": 28,
      "creates": null,
      "raw": "0xf86c8085e8d4a5100082520894f7b8418409f2a9de568a4bcbd93d7e26d70509ae880de0b6b3a7640000801ca03d4f387e6754200a6b40eb8ce18690c08e7721b1aa68601631a089e37b1c7571a05957e7de53797ec22ed2dcaee0fec3dacbb2f47d1a3c8399c51abd3d1219302e",
      "networkId": 0,
      "chainId": 0
    }
  ]
}