{
  "hash": "0xb5134ac74977760c8011bc024f0f6dcfe77e922f92fa98877467ca7618687462",
  "parentHash": "0x3dddc42ace81832165d6a25e78a73157b18e75007b6a592e95b953f5a1417f7d",
  "number": 99058,
  "timestamp": 1439783563,
  "nonce": "0xc9a90839f0b268fe",
  "difficulty": 3827238442646,
  "gasLimit": {
    "_hex": "0x2fefd5"
  },
  "gasUsed": {
    "_hex": "0x5208"
  },
  "miner": "0xe6A7a1d47ff21B6321162AEA7C6CB457D5476Bca",
  "extraData": "0x476574682f76312e302e312d38326566323666362f6c696e75782f676f312e34",
  "transactions": [
    {
      "hash": "0x36277ba5e1be06cb59095433db68ef413ad02e3545cb5e0cd3973c77f7f8eeca",
      "blockHash": "0xb5134ac74977760c8011bc024f0f6dcfe77e922f92fa98877467ca7618687462",
      "blockNumber": 99058,
      "transactionIndex": 0,
      "confirmations": null,
      "from": "0x047fF53dFE1F7BD2c3Ed2D1f777F35D1f64e9ffE",
      "gasPrice": {
        "_hex": "0xd440148d5"
      },
      "gasLimit": {
        "_hex": "0x5208"
      },
      "to": "0x32Be343B94f860124dC4fEe278FDCBD38C102D88",
      "value": {
        "_hex": "0x28c3d4ac831eea000"
      },
      "nonce": 7,
      "data": "0x",
      "r": "0xbaa36c65d60c2add34c55f579d388782f658b0a8b9f56860b6e1e240740b04f0",
      "s": "0x260e283422e5b18b1bf7f9225cff52f71fa5b0e4b7c3f365fbcc7c7e4d63fd5c",
      "v": 27,
      "creates": null,
      "raw": "0xf86d07850d440148d58252089432be343b94f860124dc4fee278fdcbd38c102d8889028c3d4ac831eea000801ba0baa36c65d60c2add34c55f579d388782f658b0a8b9f56860b6e1e240740b04f0a0260e283422e5b18b1bf7f9225cff52f71fa5b0e4b7c3f365fbcc7c7e4d63fd5c",
      "networkId": 0,
      "chainId": 0
    }
  ]
}