{
  "hash": "0x6db397e5d559680f7840f1869d41335e7fbe181d33f97b5482d58eaad5a2b9d9",
  "parentHash": "0xa0754cf10d3967f32edd329ab8a1b31f9459aec68e982736ebe5dccdc5b719a7",
  "number": 93349,
  "timestamp": 1439688524,
  "nonce": "0xfb07dc237c0bda48",
  "difficulty": 3523053113389,
  "gasLimit": {
    "_hex": "0x2fefd8"
  },
  "gasUsed": {
    "_hex": "0x5208"
  },
  "miner": "0x9D49F602b0fdb924Bd63DDE2Bd0907E4A07c63a7",
  "extraData": "0x476574682f76312e302e312f6c696e75782f676f312e342e32",
  "transactions": [
    {
      "hash": "0xcfc50f11f8aa6a679048567eb09f1808fd256667930ba05d1036c40a0f0468d7",
      "blockHash": "0x6db397e5d559680f7840f1869d41335e7fbe181d33f97b5482d58eaad5a2b9d9",
      "blockNumber": 93349,
      "transactionIndex": 0,
      "confirmations": null,
      "from": "0x284b73e057B56e75a1AE26079031D3bFFDE2E7A7",
      "gasPrice": {
        "_hex": "0xd1319f46c"
      },
      "gasLimit": {
        "_hex": "0xa410"
      },
      "to": "0x4d67f2AB8599fef5Fc413999Aa01FD7fcE70B43D",
      "value": {
        "_hex": "0x6124fee993bc0000"
      },
      "nonce": 0,
      "data": "0x",
      "r": "0xe3ad18dcea6f3639de271c31b06cc232884a5124f5e1d7cb73229b124dd475fc",
      "s": "0x62d707472d97b857a8a209df9e1152770939f1b3a1258ef11a11fd1788654207",
      "v": 28,
      "creates": null,
      "raw": "0xf86c80850d1319f46c82a410944d67f2ab8599fef5fc413999aa01fd7fce70b43d886124fee993bc0000801ca0e3ad18dcea6f3639de271c31b06cc232884a5124f5e1d7cb73229b124dd475fca062d707472d97b857a8a209df9e1152770939f1b3a1258ef11a11fd1788654207",
      "networkId": 0,
      "chainId": 0
    }
  ]
}