{
  "hash": "0xda9d716709af711dd51c1c05dd82385bb79d067edc9ed226ed5612fadd638703",
  "parentHash": "0xbbb2700c94379830eda527873f857cbe1290a284fd03eb38f21055cf196aceed",
  "number": 84435,
  "timestamp": 1439549557,
  "nonce": "0x7ba01b288d783eb2",
  "difficulty": 2570201581256,
  "gasLimit": {
    "_hex": "0x2fefd8"
  },
  "gasUsed": {
    "_hex": "0x2e4ac"
  },
  "miner": "0x26E3f7C9e444f2Ca9E0BE2aF841bd060cF1CbDDb",
  "extraData": "0x476574682f76312e302e312f6c696e75782f676f312e342e32",
  "transactions": [
    {
      "hash": "0xe34385915cef59f9f60e3706d8e07b369d256ee24f12169d2d0bdf7fd58c7f47",
      "blockHash": "0xda9d716709af711dd51c1c05dd82385bb79d067edc9ed226ed5612fadd638703",
      "blockNumber": 84435,
      "transactionIndex": 0,
      "confirmations": null,
      "from": "0xE20954D0F4108C82d4DCb2148D26BBd924F6dd24",
      "gasPrice": {
        "_hex": "0x110c8f7d8de"
      },
      "gasLimit": {
        "_hex": "0xc350"
      },
      "to": "0x2910543Af39abA0Cd09dBb2D50200b3E800A63D2",
      "value": {
        "_hex": "0x21df98af712fb970000"
      },
      "nonce": 1,
      "data": "0x454e35333336554e47",
      "r": "0x9c42da14ef9088fc4a536147b8177248f94ee9c62d640c80dc7b1b13f5f64294",
      "s": "0xf0b7fc860be22ea74ed59ff8ace6780b1f9e80641f66a655b5d6712ded2afb9d",
      "v": 27,
      "creates": null,
      "raw": "0xf87801860110c8f7d8de82c350942910543af39aba0cd09dbb2d50200b3e800a63d28a021df98af712fb97000089454e35333336554e471ba09c42da14ef9088fc4a536147b8177248f94ee9c62d640c80dc7b1b13f5f64294a0f0b7fc860be22ea74ed59ff8ace6780b1f9e80641f66a655b5d6712ded2afb9d",
      "networkId": 0,
      "chainId": 0
    },
    {
      "hash": "0x3738326a8294dea810a0978eec3bda45fd9fe1e82b44f7e82bf824f3e1208202",
      "blockHash": "0xda9d716709af711dd51c1c05dd82385bb79d067edc9ed226ed5612fadd638703",
      "blockNumber": 84435,
      "transactionIndex": 1,
      "confirmations": null,
      "from": "0xa0E74ae010D51894734c308D612131056bB721AD",
      "gasPrice": {
        "_hex": "0xe05c0bf23"
      },
      "gasLimit": {
        "_hex": "0x5208"
      },
      "to": "0x32Be343B94f860124dC4fEe278FDCBD38C102D88",
      "value": {
        "_hex": "0xad78a4a4dca1e0000"
      },
      "nonce": 6,
      "data": "0x",
      "r": "0xf70c460f58ffdec5f534c83968a162a9058f1e15ee9f5ef474015b761fc7e97f",
      "s": "0x35a66e05575e1b01b6a5b09aa703d81eed5799a5361970993ddae3bad2a2a337",
      "v": 27,
      "creates": null,
      "raw": "0xf86d06850e05c0bf238252089432be343b94f860124dc4fee278fdcbd38c102d88890ad78a4a4dca1e0000801ba0f70c460f58ffdec5f534c83968a162a9058f1e15ee9f5ef474015b761fc7e97fa035a66e05575e1b01b6a5b09aa703d81eed5799a5361970993ddae3bad2a2a337",
      "networkId": 0,
      "chainId": 0
    },
    {
      "hash": "0xc31f4aa3ce746bcc97a5496652c60c0f3afc393b0bbcc63f258ec473854f9d19",
      "blockHash": "0xda9d716709af711dd51c1c05dd82385bb79d067edc9ed226ed5612fadd638703",
      "blockNumber": 84435,
      "transactionIndex": 2,
      "confirmations": null,
      "from": "0x1c7214DE5162a5606CF124ed3A8c3556b1899804",
      "gasPrice": {
        "_hex": "0xde4271fd0"
      },
      "gasLimit": {
        "_hex": "0x5208"
      },
      "to": "0x32Be343B94f860124dC4fEe278FDCBD38C102D88",
      "value": {
        "_hex": "0x454d4fc07e98b400"
      },
      "nonce": 5,
      "data": "0x",
      "r": "0x53a5706de4cfe8d3fa81b84000052a30c48436e9c1ef9bd126defb9b9c021b3d",
      "s": "0x274ec9e35848927e6d7ede06c1ea54c4e08533ac6ea5d4a31a8a0344090eb00a",
      "v": 27,
      "creates": null,
      "raw": "0xf86c05850de4271fd08252089432be343b94f860124dc4fee278fdcbd38c102d8888454d4fc07e98b400801ba053a5706de4cfe8d3fa81b84000052a30c48436e9c1ef9bd126defb9b9c021b3da0274ec9e35848927e6d7ede06c1ea54c4e08533ac6ea5d4a31a8a0344090eb00a",
      "networkId": 0,
      "chainId": 0
    },
    {
      "hash": "0x4f44f9397f9c78f5c54e60e6a301beeaabdb42d9d43d0b8179bd75f68d368320",
      "blockHash": "0xda9d716709af711dd51c1c05dd82385bb79d067edc9ed226ed5612fadd638703",
      "blockNumber": 84435,
      "transactionIndex": 3,
      "confirmations": null,
      "from": "0xa6BDc31c431B8F97848c9D60cbbe9660dc450eB7",
      "gasPrice": {
        "_hex": "0xde4271fd0"
      },
      "gasLimit": {
        "_hex": "0x5208"
      },
      "to": "0x32Be343B94f860124dC4fEe278FDCBD38C102D88",
      "value": {
        "_hex": "0x8ac2af8306779800"
      },
      "nonce": 65,
      "data": "0x",
      "r": "0x6599dce1ef26f875245741f24db2e77858766cbd0eaf14cabdb92e47a9ca52d4",
      "s": "0x59dcd32bdf73d211ead4dd8ef3004b4745ed0f14b3f3f7dc7d48bde9a3a12328",
      "v": 27,
      "creates": null,
      "raw": "0xf86c41850de4271fd08252089432be343b94f860124dc4fee278fdcbd38c102d88888ac2af8306779800801ba06599dce1ef26f875245741f24db2e77858766cbd0eaf14cabdb92e47a9ca52d4a059dcd32bdf73d211ead4dd8ef3004b4745ed0f14b3f3f7dc7d48bde9a3a12328",
      "networkId": 0,
      "chainId": 0
    },
    {
      "hash": "0x2d41eff555f0a66164367fe4cedb0d01ca8847a6825440ed49360550c68dd2b2",
      "blockHash": "0xda9d716709af711dd51c1c05dd82385bb79d067edc9ed226ed5612fadd638703",
      "blockNumber": 84435,
      "transactionIndex": 4,
      "confirmations": null,
      "from": "0xCDA330c8160f0c90B8B528C6Db267acc17381818",
      "gasPrice": {
        "_hex": "0xde4271fd0"
      },
      "gasLimit": {
        "_hex": "0x5208"
      },
      "to": "0x32Be343B94f860124dC4fEe278FDCBD38C102D88",
      "value": {
        "_hex": "0x1bbcf9e3774bb400"
      },
      "nonce": 2,
      "data": "0x",
      "r": "0x5ec3cd28f873ce5c1b9226b94cf40dd9ce6989d76a641be2a67c2e570053d376",
      "s": "0x2d26cdcce5039d3c01ffaf5ead3cda6fc08ad2864583d78ad34ef1ec57e227aa",
      "v": 27,
      "creates": null,
      "raw": "0xf86c02850de4271fd08252089432be343b94f860124dc4fee278fdcbd38c102d88881bbcf9e3774bb400801ba05ec3cd28f873ce5c1b9226b94cf40dd9ce6989d76a641be2a67c2e570053d376a02d26cdcce5039d3c01ffaf5ead3cda6fc08ad2864583d78ad34ef1ec57e227aa",
      "networkId": 0,
      "chainId": 0
    },
    {
      "hash": "0x73f3489f5a75f9ebe10aa56ee542d66984b2b5fa0d3557f96a15befe0ac65577",
      "blockHash": "0xda9d716709af711dd51c1c05dd82385bb79d067edc9ed226ed5612fadd638703",
      "blockNumber": 84435,
      "transactionIndex": 5,
      "confirmations": null,
      "from": "0xFDE80370e058cfC8292D8eE4D7ed14c37Aa66D89",
      "gasPrice": {
        "_hex": "0xde4271fd0"
      },
      "gasLimit": {
        "_hex": "0x5208"
      },
      "to": "0x32Be343B94f860124dC4fEe278FDCBD38C102D88",
      "value": {
        "_hex": "0x4283e91c92c0ec0000"
      },
      "nonce": 4,
      "data": "0x",
      "r": "0x88913fc1bc6738535c4f4a8101d7ef3b98b8433c38ea6f4752c9bfdcd02166ea",
      "s": "0x3e25ad1c46b340260969a245f12742a0ae4fd952a5526218e97fbdf986e163c9",
      "v": 28,
      "creates": null,
      "raw": "0xf86d04850de4271fd08252089432be343b94f860124dc4fee278fdcbd38c102d88894283e91c92c0ec0000801ca088913fc1bc6738535c4f4a8101d7ef3b98b8433c38ea6f4752c9bfdcd02166eaa03e25ad1c46b340260969a245f12742a0ae4fd952a5526218e97fbdf986e163c9",
      "networkId": 0,
      "chainId": 0
    },
    {
      "hash": "0xcee7c5cb9d806097e6ee3bc0ed7a97cf515286e3f7f5921aa001cdab9e0bb26d",
      "blockHash": "0xda9d716709af711dd51c1c05dd82385bb79d067edc9ed226ed5612fadd638703",
      "blockNumber": 84435,
      "transactionIndex": 6,
      "confirmations": null,
      "from": "0x60781265e9850f54AE0Bc9545948d05DeE6FC3e3",
      "gasPrice": {
        "_hex": "0xde4271fd0"
      },
      "gasLimit": {
        "_hex": "0x5208"
      },
      "to": "0x32Be343B94f860124dC4fEe278FDCBD38C102D88",
      "value": {
        "_hex": "0x3ba837b3deb1b400"
      },
      "nonce": 5,
      "data": "0x",
      "r": "0x6e1ae18972a93f8cbceca0f8ce5fb6286e9ee0f11202ad7e26f02bafa2fa9a2a",
      "s": "0x401e1edb8d4903a3568bee98acfe5662e433376d04b3b02194e3965fb33ca9fc",
      "v": 27,
      "creates": null,
      "raw": "0xf86c05850de4271fd08252089432be343b94f860124dc4fee278fdcbd38c102d88883ba837b3deb1b400801ba06e1ae18972a93f8cbceca0f8ce5fb6286e9ee0f11202ad7e26f02bafa2fa9a2aa0401e1edb8d4903a3568bee98acfe5662e433376d04b3b02194e3965fb33ca9fc",
      "networkId": 0,
      "chainId": 0
    },
    {
      "hash": "0x92aba1b51935d29e662ffd5d520d369e7811cd2d463d75a7e35db03a3cc70ee6",
      "blockHash": "0xda9d716709af711dd51c1c05dd82385bb79d067edc9ed226ed5612fadd638703",
      "blockNumber": 84435,
      "transactionIndex": 7,
      "confirmations": null,
      "from": "0x910a4aADabb3A7B3F7879118332E13Da66b68D77",
      "gasPrice": {
        "_hex": "0xde4271fd0"
      },
      "gasLimit": {
        "_hex": "0x5208"
      },
      "to": "0x32Be343B94f860124dC4fEe278FDCBD38C102D88",
      "value": {
        "_hex": "0x15aed64078147b000"
      },
      "nonce": 15,
      "data": "0x",
      "r": "0x79f5d0d52d0fe233f82b1d7f8686fa1facc49f3803d5d32a8f6fbeb6bcb62fab",
      "s": "0x1e37defc8f6bc17047e2667bebf67c2e0e53b6a3520272cdeb10e88f42459502",
      "v": 27,
      "creates": null,
      "raw": "0xf86d0f850de4271fd08252089432be343b94f860124dc4fee278fdcbd38c102d8889015aed64078147b000801ba079f5d0d52d0fe233f82b1d7f8686fa1facc49f3803d5d32a8f6fbeb6bcb62faba01e37defc8f6bc17047e2667bebf67c2e0e53b6a3520272cdeb10e88f42459502",
      "networkId": 0,
      "chainId": 0
    },
    {
      "hash": "0x0289c6124ecd2ef7774534825f588d264c3bc0e97bdc229602d7e4507a3e2559",
      "blockHash": "0xda9d716709af711dd51c1c05dd82385bb79d067edc9ed226ed5612fadd638703",
      "blockNumber": 84435,
      "transactionIndex": 8,
      "confirmations": null,
      "from": "0x43D575Cc486538f9B89F6e46188822F6fBC68D94",
      "gasPrice": {
        "_hex": "0xde4271fd0"
      },
      "gasLimit": {
        "_hex": "0x5208"
      },
      "to": "0x32Be343B94f860124dC4fEe278FDCBD38C102D88",
      "value": {
        "_hex": "0x61208b65bc3fb400"
      },
      "nonce": 3,
      "data": "0x",
      "r": "0x5f65b2b6890be3a1f1e283d0a8a78e72ae1a06a8f1a99950c171754a846d34c5",
      "s": "0x74f45a6068aa9616a965e1d3856b447e39b1373a5214eaba45ec500d8307c783",
      "v": 27,
      "creates": null,
      "raw": "0xf86c03850de4271fd08252089432be343b94f860124dc4fee278fdcbd38c102d888861208b65bc3fb400801ba05f65b2b6890be3a1f1e283d0a8a78e72ae1a06a8f1a99950c171754a846d34c5a074f45a6068aa9616a965e1d3856b447e39b1373a5214eaba45ec500d8307c783",
      "networkId": 0,
      "chainId": 0
    }
  ]
}