{
  "hash": "0x1524f2c449229936522bd09dd533cad02127df5fdfd185843c5b389a5d8c6483",
  "parentHash": "0x7d24bd401f7c02af00cd552a43d6c4ac27f6e23fe5677bec4240b3bee1b696fa",
  "number": 57016,
  "timestamp": 1439096052,
  "nonce": "0x651148adf9b01326",
  "difficulty": 1708527358768,
  "gasLimit": {
    "_hex": "0x2fefd8"
  },
  "gasUsed": {
    "_hex": "0x546c"
  },
  "miner": "0x88D74a59454F6cF3B51ef6b9136AFb6b9D405A88",
  "extraData": "0x476574682f76312e302e312d37666266393930632f6c696e75782f676f312e34",
  "transactions": [
    {
      "hash": "0x95ac29d2a9befe199f39a40849bbe9baef56b285c8186d0f7a72d1de325f98de",
      "blockHash": "0x1524f2c449229936522bd09dd533cad02127df5fdfd185843c5b389a5d8c6483",
      "blockNumber": 57016,
      "transactionIndex": 0,
      "confirmations": null,
      "from": "0xeA79057Dabef5E64E7B44f7f18648e7E533718d2",
      "gasPrice": {
        "_hex": "0x110c8f7d8de"
      },
      "gasLimit": {
        "_hex": "0xc350"
      },
      "to": "0x2910543Af39abA0Cd09dBb2D50200b3E800A63D2",
      "value": {
        "_hex": "0x29a2241af62c0000"
      },
      "nonce": 1,
      "data": "0x454e334d574b353330",
      "r": "0xd2d52580da899fd90aeb9eea35002863a8e4e08dffde7b34376d149d57ce96c4",
      "s": "0x126c8bac2bdd580c587d5c6d2b2ea48d6f72f5d2ae18a61094e4f32c6a743a86",
      "v": 27,
      "creates": null,
      "raw": "0xf87601860110c8f7d8de82c350942910543af39aba0cd09dbb2d50200b3e800a63d28829a2241af62c000089454e334d574b3533301ba0d2d52580da899fd90aeb9eea35002863a8e4e08dffde7b34376d149d57ce96c4a0126c8bac2bdd580c587d5c6d2b2ea48d6f72f5d2ae18a61094e4f32c6a743a86",
      "networkId": 0,
      "chainId": 0
    }
  ]
}