{
  "hash": "0xc28fb1d8364e58b7f43b187b6c56958164f75493e9c1a2d1fafc0a26ba430cd4",
  "parentHash": "0xd86252ecc5fa5086cb1bb33d13705c68855298508ade35df0c3248bcfd412186",
  "number": 110763,
  "timestamp": 1439979000,
  "nonce": "0x4cd9cc2a70080ada",
  "difficulty": 4396834696261,
  "gasLimit": {
    "_hex": "0x2fefd8"
  },
  "gasUsed": {
    "_hex": "0x14820"
  },
  "miner": "0xe6A7a1d47ff21B6321162AEA7C6CB457D5476Bca",
  "extraData": "0x476574682f76312e302e312d38326566323666362f6c696e75782f676f312e34",
  "transactions": [
    {
      "hash": "0xbe1db3e891c2b0d4b802e5c50ddd0d6c240bbe1050041be2e5c294057bdb55c2",
      "blockHash": "0xc28fb1d8364e58b7f43b187b6c56958164f75493e9c1a2d1fafc0a26ba430cd4",
      "blockNumber": 110763,
      "transactionIndex": 0,
      "confirmations": null,
      "from": "0xa70a9a7040d542C632D8e0bE7c5513A8a5Bbc752",
      "gasPrice": {
        "_hex": "0xe6c8e4c1c"
      },
      "gasLimit": {
        "_hex": "0x5208"
      },
      "to": "0x32Be343B94f860124dC4fEe278FDCBD38C102D88",
      "value": {
        "_hex": "0x455ef24d3e552400"
      },
      "nonce": 286,
      "data": "0x",
      "r": "0x1e15e4988257b3174fad603ecd3dee11578bcf061b6c887db03023f6509ea228",
      "s": "0x61430283ea798c9f649fb71ab38f32bbbb4e41c8e7954f47a88fa07f05def3bd",
      "v": 28,
      "creates": null,
      "raw": "0xf86e82011e850e6c8e4c1c8252089432be343b94f860124dc4fee278fdcbd38c102d8888455ef24d3e552400801ca01e15e4988257b3174fad603ecd3dee11578bcf061b6c887db03023f6509ea228a061430283ea798c9f649fb71ab38f32bbbb4e41c8e7954f47a88fa07f05def3bd",
      "networkId": 0,
      "chainId": 0
    },
    {
      "hash": "0xcfa7e7bdff19aa1f6e4deb415cab9ff628269b2669ad90923dd7e9f9fed111f9",
      "blockHash": "0xc28fb1d8364e58b7f43b187b6c56958164f75493e9c1a2d1fafc0a26ba430cd4",
      "blockNumber": 110763,
      "transactionIndex": 1,
      "confirmations": null,
      "from": "0x976349705b839e2F5719387Fb27D2519d519da03",
      "gasPrice": {
        "_hex": "0xd4a4598e8"
      },
      "gasLimit": {
        "_hex": "0x15f90"
      },
      "to": "0xF8826dfd9F3f8d2CF1B2B14607CB82A223B9D7bB",
      "value": {
        "_hex": "0x16345785d8a0000"
      },
      "nonce": 29,
      "data": "0x",
      "r": "0xa7d5338144167dff151bb089527157b82cc139c79c6fba2bd586088766c24543",
      "s": "0x7dca2299dc2bd690b9deff23ee11d41630c736e52084e2861261aebca43bee3c",
      "v": 27,
      "creates": null,
      "raw": "0xf86d1d850d4a4598e883015f9094f8826dfd9f3f8d2cf1b2b14607cb82a223b9d7bb88016345785d8a0000801ba0a7d5338144167dff151bb089527157b82cc139c79c6fba2bd586088766c24543a07dca2299dc2bd690b9deff23ee11d41630c736e52084e2861261aebca43bee3c",
      "networkId": 0,
      "chainId": 0
    },
    {
      "hash": "0x2964f3a91408337b05aeb8f8f670f4107999be05376e630742404664c96a5c31",
      "blockHash": "0xc28fb1d8364e58b7f43b187b6c56958164f75493e9c1a2d1fafc0a26ba430cd4",
      "blockNumber": 110763,
      "transactionIndex": 2,
      "confirmations": null,
      "from": "0x976349705b839e2F5719387Fb27D2519d519da03",
      "gasPrice": {
        "_hex": "0xd4a4598e8"
      },
      "gasLimit": {
        "_hex": "0x15f90"
      },
      "to": "0x4193122032b38236825BBa166F42e54fc3F4A1EE",
      "value": {
        "_hex": "0x16345785d8a0000"
      },
      "nonce": 30,
      "data": "0x",
      "r": "0x8d328d6644d32bc40183dc72d4a21732d83d085e7cb17247212acbe14d91a01d",
      "s": "0x53d612ceba9fd978c001e1a47a07a1a0cba6590ac9df21229fd28c35adeb4d34",
      "v": 27,
      "creates": null,
      "raw": "0xf86d1e850d4a4598e883015f90944193122032b38236825bba166f42e54fc3f4a1ee88016345785d8a0000801ba08d328d6644d32bc40183dc72d4a21732d83d085e7cb17247212acbe14d91a01da053d612ceba9fd978c001e1a47a07a1a0cba6590ac9df21229fd28c35adeb4d34",
      "networkId": 0,
      "chainId": 0
    },
    {
      "hash": "0xf62d7aed0599efa0c26b6b44fbd53945fa1abbc3fd2e24bf88b0835eb71c5a32",
      "blockHash": "0xc28fb1d8364e58b7f43b187b6c56958164f75493e9c1a2d1fafc0a26ba430cd4",
      "blockNumber": 110763,
      "transactionIndex": 3,
      "confirmations": null,
      "from": "0x976349705b839e2F5719387Fb27D2519d519da03",
      "gasPrice": {
        "_hex": "0xd4a4598e8"
      },
      "gasLimit": {
        "_hex": "0x15f90"
      },
      "to": "0x1177848589133f5C4E69EdFcb18bBCd9cACE72D1",
      "value": {
        "_hex": "0x16345785d8a0000"
      },
      "nonce": 31,
      "data": "0x",
      "r": "0xb8d432cb2e7f30c2b9fd839370efdee15925641c292f4e35f69c5b1c995ed486",
      "s": "0x3f2b81854e89a31c492cf0a038010a016f5f64edb1da6f09879808bf773ffc17",
      "v": 28,
      "creates": null,
      "raw": "0xf86d1f850d4a4598e883015f90941177848589133f5c4e69edfcb18bbcd9cace72d188016345785d8a0000801ca0b8d432cb2e7f30c2b9fd839370efdee15925641c292f4e35f69c5b1c995ed486a03f2b81854e89a31c492cf0a038010a016f5f64edb1da6f09879808bf773ffc17",
      "networkId": 0,
      "chainId": 0
    }
  ]
}