{
  "hash": "0x3fe820ac329a3a08d80061776fb0d4f21227ef35c7d30d20d095aae00a942800",
  "parentHash": "0x05f4a21f717f0d13529322bc07336e6eeeb39693b507f61db79a6c690335206a",
  "number": 89775,
  "timestamp": 1439628804,
  "nonce": "0x320d2455c9f87b27",
  "difficulty": 3346771711106,
  "gasLimit": {
    "_hex": "0x2fefd8"
  },
  "gasUsed": {
    "_hex": "0xa410"
  },
  "miner": "0x47ff6576639c2e94762eA5443978D7681C0E78DC",
  "extraData": "0x476574682f76312e302e312f6c696e75782f676f312e342e32",
  "transactions": [
    {
      "hash": "0x02611bbcebe3e32363698f90239b7694562db018cdbc48159ed20f3257d04c9a",
      "blockHash": "0x3fe820ac329a3a08d80061776fb0d4f21227ef35c7d30d20d095aae00a942800",
      "blockNumber": 89775,
      "transactionIndex": 0,
      "confirmations": null,
      "from": "0xe6A7a1d47ff21B6321162AEA7C6CB457D5476Bca",
      "gasPrice": {
        "_hex": "0xe17ba77db"
      },
      "gasLimit": {
        "_hex": "0x55f0"
      },
      "to": "0xB89e64F8FeFfdeadD40d06B60856B1EDFbfd1b0C",
      "value": {
        "_hex": "0x215059906d4545fc"
      },
      "nonce": 2042,
      "data": "0x",
      "r": "0xfcaae1024f86ad85cc0a36f7d19690859871db1f0b7b95fe93afaba89575772a",
      "s": "0x410508a2cd0fcbbbef4275a51213376d7ec50608e5757a956696f556962451aa",
      "v": 27,
      "creates": null,
      "raw": "0xf86e8207fa850e17ba77db8255f094b89e64f8feffdeadd40d06b60856b1edfbfd1b0c88215059906d4545fc801ba0fcaae1024f86ad85cc0a36f7d19690859871db1f0b7b95fe93afaba89575772aa0410508a2cd0fcbbbef4275a51213376d7ec50608e5757a956696f556962451aa",
      "networkId": 0,
      "chainId": 0
    },
    {
      "hash": "0x63c109800badfed31d457c6cec3018f7fb43d9e622f5bb4ba484a5caf62e9514",
      "blockHash": "0x3fe820ac329a3a08d80061776fb0d4f21227ef35c7d30d20d095aae00a942800",
      "blockNumber": 89775,
      "transactionIndex": 1,
      "confirmations": null,
      "from": "0xe6A7a1d47ff21B6321162AEA7C6CB457D5476Bca",
      "gasPrice": {
        "_hex": "0xe17ba77db"
      },
      "gasLimit": {
        "_hex": "0x55f0"
      },
      "to": "0xa66f0927F63Be3Af16690f52e907F845Da66EaF8",
      "value": {
        "_hex": "0x215b4d9556de9210"
      },
      "nonce": 2043,
      "data": "0x",
      "r": "0xaebbd7cfdfde8cff684565f0083d5462f954b71da42ad9f1a6344074db7f441c",
      "s": "0x72fc84dab329768b36414124fe61074209153af7fc27fda63ce1a8d90efd39b3",
      "v": 27,
      "creates": null,
      "raw": "0xf86e8207fb850e17ba77db8255f094a66f0927f63be3af16690f52e907f845da66eaf888215b4d9556de9210801ba0aebbd7cfdfde8cff684565f0083d5462f954b71da42ad9f1a6344074db7f441ca072fc84dab329768b36414124fe61074209153af7fc27fda63ce1a8d90efd39b3",
      "networkId": 0,
      "chainId": 0
    }
  ]
}