{
  "hash": "0xf64d9b0cb36d1df2042325645e4cbfd1cdc58c9bd989aa813597fb36f9f754c0",
  "parentHash": "0xd0a02f60b1ab8019b553ab28322d1347496234f774c0bc81d13a316c2029a6ac",
  "number": 109175,
  "timestamp": 1439952075,
  "nonce": "0x75caff9b4c149ea2",
  "difficulty": 4458204360845,
  "gasLimit": {
    "_hex": "0x2fefd5"
  },
  "gasUsed": {
    "_hex": "0x5208"
  },
  "miner": "0x88D74a59454F6cF3B51ef6b9136AFb6b9D405A88",
  "extraData": "0x",
  "transactions": [
    {
      "hash": "0x8de8470953cc5c5d96471558918c555d7f88fd909c0c167f7e49a5021a9e1ce9",
      "blockHash": "0xf64d9b0cb36d1df2042325645e4cbfd1cdc58c9bd989aa813597fb36f9f754c0",
      "blockNumber": 109175,
      "transactionIndex": 0,
      "confirmations": null,
      "from": "0x4b0424c09BaC4Ee3f4376f1D3fA354E8Cb2D3171",
      "gasPrice": {
        "_hex": "0xe0d4e5648"
      },
      "gasLimit": {
        "_hex": "0x15f90"
      },
      "to": "0x34d34F0a638F6991e4E2536F41295DF6E934A646",
      "value": {
        "_hex": "0x8ac7230489e80000"
      },
      "nonce": 17,
      "data": "0x",
      "r": "0x19705763262d5d8ef348113aee5fe8fbb316703163e43917ef4e7f120dc8280f",
      "s": "0x0b63c6d6538893cec3ce4efda20b3b1347918d73dad20c2f90d9e26960a966d5",
      "v": 27,
      "creates": null,
      "raw": "0xf86d11850e0d4e564883015f909434d34f0a638f6991e4e2536f41295df6e934a646888ac7230489e80000801ba019705763262d5d8ef348113aee5fe8fbb316703163e43917ef4e7f120dc8280fa00b63c6d6538893cec3ce4efda20b3b1347918d73dad20c2f90d9e26960a966d5",
      "networkId": 0,
      "chainId": 0
    }
  ]
}