{
  "hash": "0x1bcec5cfeea8787bce24e6d25daa33b85cd1a8f91a7eaab89832acb523cd288c",
  "parentHash": "0x46abe36dc019d0f1be87469851f015b4bf1cc19b733cf20ea8d69cfcf0fbdba7",
  "number": 53574,
  "timestamp": 1439039845,
  "nonce": "0x18b4d35d80866272",
  "difficulty": 1596290889144,
  "gasLimit": {
    "_hex": "0x2c3adb"
  },
  "gasUsed": {
    "_hex": "0x546c"
  },
  "miner": "0x3FF679B0823a026F2378E5f5F22A6F127cC85828",
  "extraData": "0x476574682f76312e302e302f6c696e75782f676f312e342e32",
  "transactions": [
    {
      "hash": "0x047f71be6f573bd754256e5ca18c7c276058cf1c9b1e538e0dd58f28b98db8d1",
      "blockHash": "0x1bcec5cfeea8787bce24e6d25daa33b85cd1a8f91a7eaab89832acb523cd288c",
      "blockNumber": 53574,
      "transactionIndex": 0,
      "confirmations": null,
      "from": "0xc3631c7698b6C5111989BF452727B3f9395a6deA",
      "gasPrice": {
        "_hex": "0x9eca5e2400"
      },
      "gasLimit": {
        "_hex": "0x59d8"
      },
      "to": "0x2910543Af39abA0Cd09dBb2D50200b3E800A63D2",
      "value": {
        "_hex": "0x30ca024f987b900000"
      },
      "nonce": 0,
      "data": "0x454e34354139455138",
      "r": "0xf1f6a5701a704032d4a5baabb60749b6f8fa35c7b671ff0d75a99708898f69ae",
      "s": "0x35948abb025463a5b81e5c2284f4420ad70a826953564e4c61eaeb114256155d",
      "v": 27,
      "creates": null,
      "raw": "0xf87680859eca5e24008259d8942910543af39aba0cd09dbb2d50200b3e800a63d28930ca024f987b90000089454e343541394551381ba0f1f6a5701a704032d4a5baabb60749b6f8fa35c7b671ff0d75a99708898f69aea035948abb025463a5b81e5c2284f4420ad70a826953564e4c61eaeb114256155d",
      "networkId": 0,
      "chainId": 0
    }
  ]
}