{
  "hash": "0x2fc39aabb4dc8dcec5bd68ec24d78f2147bcaff04b55ddf01164ced1a3b95d7d",
  "parentHash": "0x5759d4f5bfd64283c46188f211468bcaf208cdd10157d066d0491f5e821a2cdc",
  "number": 65608,
  "timestamp": 1439239900,
  "nonce": "0xf369e3947b88306c",
  "difficulty": 1939707632892,
  "gasLimit": {
    "_hex": "0x2fefd8"
  },
  "gasUsed": {
    "_hex": "0x5208"
  },
  "miner": "0x896f51055242AFb540C777EAf24AffA8EA14956b",
  "extraData": "0x",
  "transactions": [
    {
      "hash": "0xd3dc8c74ece3ccfdbf387740a1bdb5b8ca30c9ea9ecf6e84d14cccb578fdf195",
      "blockHash": "0x2fc39aabb4dc8dcec5bd68ec24d78f2147bcaff04b55ddf01164ced1a3b95d7d",
      "blockNumber": 65608,
      "transactionIndex": 0,
      "confirmations": null,
      "from": "0x727A42a8D67fcaa0Ab81D46f1EE66bfc9b8789AC",
      "gasPrice": {
        "_hex": "0xd09ab018b"
      },
      "gasLimit": {
        "_hex": "0x15f90"
      },
      "to": "0x285B048CC4cB946abCF3eF11aDe982C36946AF18",
      "value": {
        "_hex": "0x4563918244f40000"
      },
      "nonce": 2,
      "data": "0x",
      "r": "0x7681b4f5b9ee2d36f6138edd418c0912abee76b0a829c4b25bf7455e2a14b555",
      "s": "0x6f8e6cae9b5761af0c8ac65591be18cd0af8de96efd58ad37a5e4b0ffd1c96f0",
      "v": 27,
      "creates": null,
      "raw": "0xf86d02850d09ab018b83015f9094285b048cc4cb946abcf3ef11ade982c36946af18884563918244f40000801ba07681b4f5b9ee2d36f6138edd418c0912abee76b0a829c4b25bf7455e2a14b555a06f8e6cae9b5761af0c8ac65591be18cd0af8de96efd58ad37a5e4b0ffd1c96f0",
      "networkId": 0,
      "chainId": 0
    }
  ]
}