{
  "hash": "0x9a7eb7d7c5d9a5b43514cbaa2c51f3e0f19af2a67ace42edfdae34fc21fafa95",
  "parentHash": "0x42d9fdb6e13a325a1bea9ce67071c16f448f00625ab7c57b80c7e0aa6ed73e4d",
  "number": 68978,
  "timestamp": 1439296623,
  "nonce": "0x9890df2f9f06fef7",
  "difficulty": 2031979671298,
  "gasLimit": {
    "_hex": "0x2fefd8"
  },
  "gasUsed": {
    "_hex": "0xf618"
  },
  "miner": "0x40dDAE161B79aaebeb68187233fe59bd3B1c2db2",
  "extraData": "0x476574682f76312e302e312f77696e646f77732f676f312e342e32",
  "transactions": [
    {
      "hash": "0x1cc451b060ffee13fb9cc11d4ae55e1eb55a73dd82bd5990fd17fc4843799843",
      "blockHash": "0x9a7eb7d7c5d9a5b43514cbaa2c51f3e0f19af2a67ace42edfdae34fc21fafa95",
      "blockNumber": 68978,
      "transactionIndex": 0,
      "confirmations": null,
      "from": "0x61a43802bc9029e595983d935e08A526AD614C83",
      "gasPrice": {
        "_hex": "0xba43b7400"
      },
      "gasLimit": {
        "_hex": "0x5208"
      },
      "to": "0xB77BEA7F1926D55dAB9eeEADD72b490c90eBCCc9",
      "value": {
        "_hex": "0x11e4ee79bf23000"
      },
      "nonce": 1,
      "data": "0x",
      "r": "0xb03be330eaa7ad576a7ffa7af2ef724a5c6e5ed4dc5c54bd68d7195f767c4831",
      "s": "0x66e7f0bbe8a56a847f6445a0c0e9c661b0f2fb56b58084657d66950f85c7352c",
      "v": 28,
      "creates": null,
      "raw": "0xf86c01850ba43b740082520894b77bea7f1926d55dab9eeeadd72b490c90ebccc988011e4ee79bf23000801ca0b03be330eaa7ad576a7ffa7af2ef724a5c6e5ed4dc5c54bd68d7195f767c4831a066e7f0bbe8a56a847f6445a0c0e9c661b0f2fb56b58084657d66950f85c7352c",
      "networkId": 0,
      "chainId": 0
    },
    {
      "hash": "0xadedb8e43c50801b48344762807c30869ef5098553584fce9e73d739a8c02b19",
      "blockHash": "0x9a7eb7d7c5d9a5b43514cbaa2c51f3e0f19af2a67ace42edfdae34fc21fafa95",
      "blockNumber": 68978,
      "transactionIndex": 1,
      "confirmations": null,
      "from": "0xE7367Af47E7A4370A939c4fc0710D0446Fd14052",
      "gasPrice": {
        "_hex": "0xba43b7400"
      },
      "gasLimit": {
        "_hex": "0x5208"
      },
      "to": "0x0Fc5AC27128A1437b3E17FE25B1797EeF18cf7Fc",
      "value": {
        "_hex": "0x11e4ee79bf23000"
      },
      "nonce": 1,
      "data": "0x",
      "r": "0x3cf25d9c95a556d7bd18faccd371ce97c4b4bf0fe9bb68c2a20f644efe4ccb7e",
      "s": "0x264545c0f789ae4fc581e84f6902f8e995ca33d8bb3535f3a2a93f2debfbe44e",
      "v": 28,
      "creates": null,
      "raw": "0xf86c01850ba43b7400825208940fc5ac27128a1437b3e17fe25b1797eef18cf7fc88011e4ee79bf23000801ca03cf25d9c95a556d7bd18faccd371ce97c4b4bf0fe9bb68c2a20f644efe4ccb7ea0264545c0f789ae4fc581e84f6902f8e995ca33d8bb3535f3a2a93f2debfbe44e",
      "networkId": 0,
      "chainId": 0
    },
    {
      "hash": "0x6a2fdab79f4bef6d7426edacf32ab21063ea1eca24c8110bf2f527f1129f698d",
      "blockHash": "0x9a7eb7d7c5d9a5b43514cbaa2c51f3e0f19af2a67ace42edfdae34fc21fafa95",
      "blockNumber": 68978,
      "transactionIndex": 2,
      "confirmations": null,
      "from": "0x9348eC746F7cFC445e1f304e8a5676624c218811",
      "gasPrice": {
        "_hex": "0xba43b7400"
      },
      "gasLimit": {
        "_hex": "0x5208"
      },
      "to": "0xce9F1bdFe4fd7645C0f12b04027585C961771C43",
      "value": {
        "_hex": "0x11e4ee79bf23000"
      },
      "nonce": 1,
      "data": "0x",
      "r": "0xd130875edfa2e8ba084384ab83c0b27bd8b8f3606abd9766511a3a60dbc1a4fd",
      "s": "0x3016f31104529b3db316fa68b7ab4deba1d9efa20555644d2a7f2cce6c6d734e",
      "v": 28,
      "creates": null,
      "raw": "0xf86c01850ba43b740082520894ce9f1bdfe4fd7645c0f12b04027585c961771c4388011e4ee79bf23000801ca0d130875edfa2e8ba084384ab83c0b27bd8b8f3606abd9766511a3a60dbc1a4fda03016f31104529b3db316fa68b7ab4deba1d9efa20555644d2a7f2cce6c6d734e",
      "networkId": 0,
      "chainId": 0
    }
  ]
}