{
  "hash": "0x461f615ae4500f9579747d728f139a8d7e2bee54d1763e810d72d138eff9911c",
  "parentHash": "0x6ef9bcba6f7eca5d044bc5ff828a090a163d34489fc1a2f7f3ff1929713eeae7",
  "number": 93542,
  "timestamp": 1439692629,
  "nonce": "0xf096e53227522b06",
  "difficulty": 3476831439864,
  "gasLimit": {
    "_hex": "0x2fefd8"
  },
  "gasUsed": {
    "_hex": "0x1a5bf"
  },
  "miner": "0x2B15C5211bdA6A867c582080536f6c61766aA5Af",
  "extraData": "0x476574682f76312e302e312f6c696e75782f676f312e342e32",
  "transactions": [
    {
      "hash": "0xd38d3cb0c728c9dad50b3636b74d6ef4c1cd4c44e0b1bfce379b8ccce23a5541",
      "blockHash": "0x461f615ae4500f9579747d728f139a8d7e2bee54d1763e810d72d138eff9911c",
      "blockNumber": 93542,
      "transactionIndex": 0,
      "confirmations": null,
      "from": "0x0F9c57Ebf3A5ba27b543bB64220caA7b4478B04b",
      "gasPrice": {
        "_hex": "0xd4f60a317"
      },
      "gasLimit": {
        "_hex": "0x15f90"
      },
      "to": "0xCAc7000C7dBaa2E33Af15325AF5D435E011C7BdD",
      "value": {
        "_hex": "0x93cc6692e9e900000"
      },
      "nonce": 2,
      "data": "0xb214faa54c39584d534d4d30340000000000000000000000000000000000000000000000",
      "r": "0x9f030bf5d8b73dbe31741ae86c6bf8f60b844fde05121294e1cf51d1590e2047",
      "s": "0x64462d001a9ff848f2c01db9fe3a011d1799ff4b09747b765802b290cf2256fc",
      "v": 27,
      "creates": null,
      "raw": "0xf89202850d4f60a31783015f9094cac7000c7dbaa2e33af15325af5d435e011c7bdd89093cc6692e9e900000a4b214faa54c39584d534d4d303400000000000000000000000000000000000000000000001ba09f030bf5d8b73dbe31741ae86c6bf8f60b844fde05121294e1cf51d1590e2047a064462d001a9ff848f2c01db9fe3a011d1799ff4b09747b765802b290cf2256fc",
      "networkId": 0,
      "chainId": 0
    },
    {
      "hash": "0x4dbf6abeb57eb82de012c03af3cdc582026868aeba0a227980a5e0eed6c565ed",
      "blockHash": "0x461f615ae4500f9579747d728f139a8d7e2bee54d1763e810d72d138eff9911c",
      "blockNumber": 93542,
      "transactionIndex": 1,
      "confirmations": null,
      "from": "0x2f86ba8019945f39edE131D38d4d8780884DA553",
      "gasPrice": {
        "_hex": "0xce1177954"
      },
      "gasLimit": {
        "_hex": "0x5208"
      },
      "to": "0x32Be343B94f860124dC4fEe278FDCBD38C102D88",
      "value": {
        "_hex": "0x6c6b7d779375dc0000"
      },
      "nonce": 20,
      "data": "0x",
      "r": "0x1c7379317d5fae1a551763577997dd2213c2caefea62f5a1fd990c4b9661fccf",
      "s": "0x206cd94ebfc38d2f072cd6d01536919b0f3c756a5c17089a60679715a62f1a46",
      "v": 28,
      "creates": null,
      "raw": "0xf86d14850ce11779548252089432be343b94f860124dc4fee278fdcbd38c102d88896c6b7d779375dc0000801ca01c7379317d5fae1a551763577997dd2213c2caefea62f5a1fd990c4b9661fccfa0206cd94ebfc38d2f072cd6d01536919b0f3c756a5c17089a60679715a62f1a46",
      "networkId": 0,
      "chainId": 0
    },
    {
      "hash": "0x2c64db3483b65c6b2c9e654a7bc0dfd7292e8c080a08b0063b710021654b5a18",
      "blockHash": "0x461f615ae4500f9579747d728f139a8d7e2bee54d1763e810d72d138eff9911c",
      "blockNumber": 93542,
      "transactionIndex": 2,
      "confirmations": null,
      "from": "0xa70a9a7040d542C632D8e0bE7c5513A8a5Bbc752",
      "gasPrice": {
        "_hex": "0xce1177954"
      },
      "gasLimit": {
        "_hex": "0x5208"
      },
      "to": "0x32Be343B94f860124dC4fEe278FDCBD38C102D88",
      "value": {
        "_hex": "0x455f7100e1657000"
      },
      "nonce": 136,
      "data": "0x",
      "r": "0x0e2a05ad64c296064ed5b825854f8cb75861deaffa7c583c252fcb9c63c26d20",
      "s": "0x4bc887c62152bb5572db7b79739d98f7d296616f2e6171cc12a17a9043013560",
      "v": 28,
      "creates": null,
      "raw": "0xf86d8188850ce11779548252089432be343b94f860124dc4fee278fdcbd38c102d8888455f7100e1657000801ca00e2a05ad64c296064ed5b825854f8cb75861deaffa7c583c252fcb9c63c26d20a04bc887c62152bb5572db7b79739d98f7d296616f2e6171cc12a17a9043013560",
      "networkId": 0,
      "chainId": 0
    },
    {
      "hash": "0x4b4fb0afc900bec10c914656873bfc15afcef200d67c310d754d5a4bab518f83",
      "blockHash": "0x461f615ae4500f9579747d728f139a8d7e2bee54d1763e810d72d138eff9911c",
      "blockNumber": 93542,
      "transactionIndex": 3,
      "confirmations": null,
      "from": "0xc07082b0caEF1afaAA062CDae1c592c110B82aa5",
      "gasPrice": {
        "_hex": "0xce1177954"
      },
      "gasLimit": {
        "_hex": "0x5208"
      },
      "to": "0x32Be343B94f860124dC4fEe278FDCBD38C102D88",
      "value": {
        "_hex": "0x10a32122fee97000"
      },
      "nonce": 2,
      "data": "0x",
      "r": "0x67c0c9f0cc26544ac3225f80f18146a543ea4c48fff2985c0bdcbbf358726ed8",
      "s": "0x7a5708c5bcdf7dca5bf0a55b1f9608983ebd9142c3890bde046ee818236c5bf0",
      "v": 27,
      "creates": null,
      "raw": "0xf86c02850ce11779548252089432be343b94f860124dc4fee278fdcbd38c102d888810a32122fee97000801ba067c0c9f0cc26544ac3225f80f18146a543ea4c48fff2985c0bdcbbf358726ed8a07a5708c5bcdf7dca5bf0a55b1f9608983ebd9142c3890bde046ee818236c5bf0",
      "networkId": 0,
      "chainId": 0
    },
    {
      "hash": "0x36a03b89edb6999e8f799519204bd392f8bd35cebca670a0806d92e567fdda12",
      "blockHash": "0x461f615ae4500f9579747d728f139a8d7e2bee54d1763e810d72d138eff9911c",
      "blockNumber": 93542,
      "transactionIndex": 4,
      "confirmations": null,
      "from": "0x32Be343B94f860124dC4fEe278FDCBD38C102D88",
      "gasPrice": {
        "_hex": "0xce1177954"
      },
      "gasLimit": {
        "_hex": "0x5208"
      },
      "to": "0x107C98584d4B18bC54E1D74F4d7a0bF505Ca466f",
      "value": {
        "_hex": "0xa4c98d85752be0000"
      },
      "nonce": 925,
      "data": "0x",
      "r": "0x647ebcb84a8c8cd6c9d046f4735ba5e928ff0046ca056fbfff0e8bd026a7171a",
      "s": "0x379355318af32a264c99031ff31ff217976b7913af19597174cfd473fdb4ad52",
      "v": 27,
      "creates": null,
      "raw": "0xf86f82039d850ce117795482520894107c98584d4b18bc54e1d74f4d7a0bf505ca466f890a4c98d85752be0000801ba0647ebcb84a8c8cd6c9d046f4735ba5e928ff0046ca056fbfff0e8bd026a7171aa0379355318af32a264c99031ff31ff217976b7913af19597174cfd473fdb4ad52",
      "networkId": 0,
      "chainId": 0
    }
  ]
}