{
  "hash": "0x5d5645a4ca608645334f73db4a005d6648923eb316eab1d091b0ca267e9e9508",
  "parentHash": "0xd1717795e58bd7d1829cd3913af4d6d1d1245a4aa81ba18e76879a7bc32d520a",
  "number": 69832,
  "timestamp": 1439310405,
  "nonce": "0x4e2c12a1ae77b7d1",
  "difficulty": 2098316351296,
  "gasLimit": {
    "_hex": "0x2fefd8"
  },
  "gasUsed": {
    "_hex": "0xa410"
  },
  "miner": "0xa50ec0D39fa913E62f1Bae7074E6F36caA71855b",
  "extraData": "0x",
  "transactions": [
    {
      "hash": "0xeda5604919593f309ed4ddda424e51ce3a2175c04f46d70051b9757855de2a61",
      "blockHash": "0x5d5645a4ca608645334f73db4a005d6648923eb316eab1d091b0ca267e9e9508",
      "blockNumber": 69832,
      "transactionIndex": 0,
      "confirmations": null,
      "from": "0x6d921977dEFE5f4e0682CA512De1D07b1f4802E1",
      "gasPrice": {
        "_hex": "0xd19181980"
      },
      "gasLimit": {
        "_hex": "0x5208"
      },
      "to": "0x32Be343B94f860124dC4fEe278FDCBD38C102D88",
      "value": {
        "_hex": "0x1633b2915a33bc00"
      },
      "nonce": 0,
      "data": "0x",
      "r": "0xc03f86f878381958d2b223c972453618ab8d065377825d0f8385da62d616eeef",
      "s": "0x13cf13d5833cae0ad2d0157e84ca66336958c31a946ab78b29fdb8360e480433",
      "v": 27,
      "creates": null,
      "raw": "0xf86c80850d191819808252089432be343b94f860124dc4fee278fdcbd38c102d88881633b2915a33bc00801ba0c03f86f878381958d2b223c972453618ab8d065377825d0f8385da62d616eeefa013cf13d5833cae0ad2d0157e84ca66336958c31a946ab78b29fdb8360e480433",
      "networkId": 0,
      "chainId": 0
    },
    {
      "hash": "0xd4e52aaf7b5e7df02273f2910ef5ab096ca1ffca5e218bcd8fdbc671781482b8",
      "blockHash": "0x5d5645a4ca608645334f73db4a005d6648923eb316eab1d091b0ca267e9e9508",
      "blockNumber": 69832,
      "transactionIndex": 1,
      "confirmations": null,
      "from": "0x99181ED48C7c51532622dA23e20E2B38392476A7",
      "gasPrice": {
        "_hex": "0xd19181980"
      },
      "gasLimit": {
        "_hex": "0x5208"
      },
      "to": "0x32Be343B94f860124dC4fEe278FDCBD38C102D88",
      "value": {
        "_hex": "0x1b99b401bbd43c00"
      },
      "nonce": 1,
      "data": "0x",
      "r": "0x0d195dae4cc36c88dc5e64d8dea4ec8f3cd8636ca64c2d797a23e850c10fa797",
      "s": "0x21eb53fcd6672893eb2031e3f4bab5d6fa0b72405bf9350873501e8c8e94d23f",
      "v": 28,
      "creates": null,
      "raw": "0xf86c01850d191819808252089432be343b94f860124dc4fee278fdcbd38c102d88881b99b401bbd43c00801ca00d195dae4cc36c88dc5e64d8dea4ec8f3cd8636ca64c2d797a23e850c10fa797a021eb53fcd6672893eb2031e3f4bab5d6fa0b72405bf9350873501e8c8e94d23f",
      "networkId": 0,
      "chainId": 0
    }
  ]
}