{
  "hash": "0x33f5528a1d0b397366d9b8ec0e80d6995ecfb9ac6c7e847b3d9b9d0e15290cc5",
  "parentHash": "0xad8f4509c96567b54f3003075277a7485ea7c0fac280725765c6ae108e1b0aca",
  "number": 65321,
  "timestamp": 1439234824,
  "nonce": "0x9fbf5c7c5a586e4c",
  "difficulty": 1948317153343,
  "gasLimit": {
    "_hex": "0x2fefd8"
  },
  "gasUsed": {
    "_hex": "0xbe6c"
  },
  "miner": "0x9746c7e1ef2bd21FF3997fa467593a89cb852BD0",
  "extraData": "0x476574682f76312e302e312f77696e646f77732f676f312e342e32",
  "transactions": [
    {
      "hash": "0xd96f6fe8af5f570fa3059216aac75d83a4a3d0eed3e4c69a4d9c4b625ed0f0fc",
      "blockHash": "0x33f5528a1d0b397366d9b8ec0e80d6995ecfb9ac6c7e847b3d9b9d0e15290cc5",
      "blockNumber": 65321,
      "transactionIndex": 0,
      "confirmations": null,
      "from": "0xC2a9a8a6CE3Ee563EEa4C09dB777Bbb13EE00c29",
      "gasPrice": {
        "_hex": "0xba43b7400"
      },
      "gasLimit": {
        "_hex": "0x15f90"
      },
      "to": "0x793AE8C1b1a160BFc07BFB0d04F85eab1A71F4f2",
      "value": {
        "_hex": "0x0"
      },
      "nonce": 0,
      "data": "0x3ba15036",
      "r": "0x8c52b99165bdba1fed25c73a5365ef4646bf288305be487410d0f4d65b623ae0",
      "s": "0x7630ef4b1c96b5730fc4ee4e96368699bae7e75a76c1a7c7a80cb10b73c75f55",
      "v": 27,
      "creates": null,
      "raw": "0xf86980850ba43b740083015f9094793ae8c1b1a160bfc07bfb0d04f85eab1a71f4f280843ba150361ba08c52b99165bdba1fed25c73a5365ef4646bf288305be487410d0f4d65b623ae0a07630ef4b1c96b5730fc4ee4e96368699bae7e75a76c1a7c7a80cb10b73c75f55",
      "networkId": 0,
      "chainId": 0
    }
  ]
}