{
  "hash": "0x16dc57b1084eb47660a93dff6b77268419322b35dd099482da5ad21c0d37e7f2",
  "parentHash": "0x3fd9c70de2681a05385ec2fa9d4060c23da95f6ce01800a3818da0837cca059d",
  "number": 47268,
  "timestamp": 1438937078,
  "nonce": "0xc435278ed8ab3ac6",
  "difficulty": 1465940433839,
  "gasLimit": {
    "_hex": "0xaa8b"
  },
  "gasUsed": {
    "_hex": "0xa410"
  },
  "miner": "0xf8E0CA3Ed80bd541b94BEdCf259e8CF2141A9523",
  "extraData": "0x476574682f76312e302e312f77696e646f77732f676f312e342e32",
  "transactions": [
    {
      "hash": "0x0369700c828d1439ed6b48c82f9e3dc2a26872d4d2d9562c4b7f1dd9c9564954",
      "blockHash": "0x16dc57b1084eb47660a93dff6b77268419322b35dd099482da5ad21c0d37e7f2",
      "blockNumber": 47268,
      "transactionIndex": 0,
      "confirmations": null,
      "from": "0xdCd8Aa0E6fD68B057C5AC5e362619808A175CE87",
      "gasPrice": {
        "_hex": "0xdf8475800"
      },
      "gasLimit": {
        "_hex": "0x5208"
      },
      "to": "0x1A6e2D880420fd418522F080D5E31feE4A74a55E",
      "value": {
        "_hex": "0xf9ccd8a1c5080000"
      },
      "nonce": 2,
      "data": "0x",
      "r": "0xf6b9542b8c63083a6648e4fa5ce7e151ea7e2162701d243f65209214212e1ce5",
      "s": "0x20c405be01ec33e8a27cd28f98746a0a6fa614e977ce443cafb1a852b29abb18",
      "v": 28,
      "creates": null,
      "raw": "0xf86c02850df8475800825208941a6e2d880420fd418522f080d5e31fee4a74a55e88f9ccd8a1c5080000801ca0f6b9542b8c63083a6648e4fa5ce7e151ea7e2162701d243f65209214212e1ce5a020c405be01ec33e8a27cd28f98746a0a6fa614e977ce443cafb1a852b29abb18",
      "networkId": 0,
      "chainId": 0
    },
    {
      "hash": "0xb9a48413be5fd869f8af4f98231624c50360c4e81607aca1b6f1d9b01711f426",
      "blockHash": "0x16dc57b1084eb47660a93dff6b77268419322b35dd099482da5ad21c0d37e7f2",
      "blockNumber": 47268,
      "transactionIndex": 1,
      "confirmations": null,
      "from": "0xe6A7a1d47ff21B6321162AEA7C6CB457D5476Bca",
      "gasPrice": {
        "_hex": "0xdd239d720"
      },
      "gasLimit": {
        "_hex": "0x5208"
      },
      "to": "0xB4f6A8f7Cd91Cd4bcADcc0a20e417c392E5f50A4",
      "value": {
        "_hex": "0x8f978591710f7738"
      },
      "nonce": 93,
      "data": "0x",
      "r": "0x1cdb80566b31aff593f65acf17daa93938d768f5b27af45eebe88383992d4beb",
      "s": "0x39d0b1eaefefb6b32fe447446f055441c6a10537c5929f69c3f33751c503abcd",
      "v": 28,
      "creates": null,
      "raw": "0xf86c5d850dd239d72082520894b4f6a8f7cd91cd4bcadcc0a20e417c392e5f50a4888f978591710f7738801ca01cdb80566b31aff593f65acf17daa93938d768f5b27af45eebe88383992d4beba039d0b1eaefefb6b32fe447446f055441c6a10537c5929f69c3f33751c503abcd",
      "networkId": 0,
      "chainId": 0
    }
  ]
}