{
  "hash": "0x9e1a8ab06fa32676daef659bc5ad3b19f1f6e4d8ae458f7b19b59535b715c5d3",
  "parentHash": "0x79f2cb88b92c9d83a0f722d1469240171a12a9b825155031d67551c3f8ae0433",
  "number": 56405,
  "timestamp": 1439086756,
  "nonce": "0x3a58017490d012f3",
  "difficulty": 1653657987691,
  "gasLimit": {
    "_hex": "0x2fd7e7"
  },
  "gasUsed": {
    "_hex": "0x5208"
  },
  "miner": "0x70C6b45fe0A5116E97B112B806A76E2F51E24413",
  "extraData": "0x476574682f76312e302e302f77696e646f77732f676f312e342e32",
  "transactions": [
    {
      "hash": "0xee51e8c26ab87f207200a420ff1bac19da1e9ae5e92121de08ec3ce1fe23a611",
      "blockHash": "0x9e1a8ab06fa32676daef659bc5ad3b19f1f6e4d8ae458f7b19b59535b715c5d3",
      "blockNumber": 56405,
      "transactionIndex": 0,
      "confirmations": null,
      "from": "0x664B099B945b899AaC84DA69dd6D4eEb3D03c8a3",
      "gasPrice": {
        "_hex": "0x746a528800"
      },
      "gasLimit": {
        "_hex": "0x5267"
      },
      "to": "0x27e806e70622d2864e1B1f4426D72FFb0457C83a",
      "value": {
        "_hex": "0x95e14ec776380000"
      },
      "nonce": 5,
      "data": "0x",
      "r": "0x13aebab304947280bd601751890aed47b936a1135f6abde4e6fe6e6fb7f1c1e1",
      "s": "0x7314573f93ad576112aca377b7f788c567b290f5b61359ad81417f0ccb41faa9",
      "v": 28,
      "creates": null,
      "raw": "0xf86c0585746a5288008252679427e806e70622d2864e1b1f4426d72ffb0457c83a8895e14ec776380000801ca013aebab304947280bd601751890aed47b936a1135f6abde4e6fe6e6fb7f1c1e1a07314573f93ad576112aca377b7f788c567b290f5b61359ad81417f0ccb41faa9",
      "networkId": 0,
      "chainId": 0
    }
  ]
}