{
  "hash": "0xa09a4f838fc03c36efba7dc251639bc1abb95a8a433e8325e06fb46185492d6f",
  "parentHash": "0x9eb809899a1ffec89e286c4e2e3b3ae5783e46aadf5972cfd41b65ccc0c36bf0",
  "number": 64180,
  "timestamp": 1439216600,
  "nonce": "0x7e34ea807efbf64f",
  "difficulty": 1871190150542,
  "gasLimit": {
    "_hex": "0x2fefd8"
  },
  "gasUsed": {
    "_hex": "0x546c"
  },
  "miner": "0xf8E0CA3Ed80bd541b94BEdCf259e8CF2141A9523",
  "extraData": "0x476574682f76312e302e312f77696e646f77732f676f312e342e32",
  "transactions": [
    {
      "hash": "0x651206fe910422469b3748e99c4da14dee7168900fef99c17380d4ba7a1d375b",
      "blockHash": "0xa09a4f838fc03c36efba7dc251639bc1abb95a8a433e8325e06fb46185492d6f",
      "blockNumber": 64180,
      "transactionIndex": 0,
      "confirmations": null,
      "from": "0x1D889aFF5D57138c9819412d63b5d877567B5936",
      "gasPrice": {
        "_hex": "0xd3d37f23a"
      },
      "gasLimit": {
        "_hex": "0x7530"
      },
      "to": "0x2910543Af39abA0Cd09dBb2D50200b3E800A63D2",
      "value": {
        "_hex": "0x61ecd5fd4859a0000"
      },
      "nonce": 9,
      "data": "0x454e3651304d384252",
      "r": "0x0e0145455cec1451486a6e5c69cc60baf863025ce468300f564adf130b6204a6",
      "s": "0x3cbe2b2020b4d4aa62e36a3f34cbab19c2722731ea12a89fdb6cf0ff900bb085",
      "v": 27,
      "creates": null,
      "raw": "0xf87609850d3d37f23a827530942910543af39aba0cd09dbb2d50200b3e800a63d289061ecd5fd4859a000089454e3651304d3842521ba00e0145455cec1451486a6e5c69cc60baf863025ce468300f564adf130b6204a6a03cbe2b2020b4d4aa62e36a3f34cbab19c2722731ea12a89fdb6cf0ff900bb085",
      "networkId": 0,
      "chainId": 0
    }
  ]
}