{
  "hash": "0x1da6621a3cffc55761f2665c8e698262b9199da9755bca10c8fb85bdfada4bc7",
  "parentHash": "0x782a59a5615800c75e933615ed04e6b28542744966e7baf3d14ddc8a68e94a65",
  "number": 90080,
  "timestamp": 1439633976,
  "nonce": "0x08b6d35cda3a157c",
  "difficulty": 3335230808860,
  "gasLimit": {
    "_hex": "0x2fefd8"
  },
  "gasUsed": {
    "_hex": "0xf618"
  },
  "miner": "0x9746c7e1ef2bd21FF3997fa467593a89cb852BD0",
  "extraData": "0x476574682f76312e302e312f77696e646f77732f676f312e342e32",
  "transactions": [
    {
      "hash": "0x2b30dd74c5c11f47b680dfe2de6d625f604f1f5e495e5ee3bf88df5e188e719e",
      "blockHash": "0x1da6621a3cffc55761f2665c8e698262b9199da9755bca10c8fb85bdfada4bc7",
      "blockNumber": 90080,
      "transactionIndex": 0,
      "confirmations": null,
      "from": "0xBAE5e6c08894238A8d3477Eb8Ebb6F2fD53a2484",
      "gasPrice": {
        "_hex": "0xd9a4be9a7"
      },
      "gasLimit": {
        "_hex": "0x5208"
      },
      "to": "0x32Be343B94f860124dC4fEe278FDCBD38C102D88",
      "value": {
        "_hex": "0xdd8cd5b6bfc9c00"
      },
      "nonce": 0,
      "data": "0x",
      "r": "0xb11d6f048c25c8518cf07c55360a92b0b7e1d56680f3213b668ca069df353e0a",
      "s": "0x639819fc0bb784a58cc739130a4006fe2df6944c42fad330afcb92a08167e3be",
      "v": 28,
      "creates": null,
      "raw": "0xf86c80850d9a4be9a78252089432be343b94f860124dc4fee278fdcbd38c102d88880dd8cd5b6bfc9c00801ca0b11d6f048c25c8518cf07c55360a92b0b7e1d56680f3213b668ca069df353e0aa0639819fc0bb784a58cc739130a4006fe2df6944c42fad330afcb92a08167e3be",
      "networkId": 0,
      "chainId": 0
    },
    {
      "hash": "0xc8781cb6528d68204fe6b3a4845d973682654ce9f873efcdb03ace2d434f97b2",
      "blockHash": "0x1da6621a3cffc55761f2665c8e698262b9199da9755bca10c8fb85bdfada4bc7",
      "blockNumber": 90080,
      "transactionIndex": 1,
      "confirmations": null,
      "from": "0x95050751FDb44f5CE4199EAAB8c87B3A7c33be91",
      "gasPrice": {
        "_hex": "0xd9a4be9a7"
      },
      "gasLimit": {
        "_hex": "0x5208"
      },
      "to": "0x32Be343B94f860124dC4fEe278FDCBD38C102D88",
      "value": {
        "_hex": "0xddc50314a534c00"
      },
      "nonce": 0,
      "data": "0x",
      "r": "0x67ce28503d580ecd0192d3b01eac97af41f5d19a83168e4cfb864ab4b258b819",
      "s": "0x63d3251abeb0b888398340a5b685faed8fe292b90ec662f876fb62f90c5d5206",
      "v": 28,
      "creates": null,
      "raw": "0xf86c80850d9a4be9a78252089432be343b94f860124dc4fee278fdcbd38c102d88880ddc50314a534c00801ca067ce28503d580ecd0192d3b01eac97af41f5d19a83168e4cfb864ab4b258b819a063d3251abeb0b888398340a5b685faed8fe292b90ec662f876fb62f90c5d5206",
      "networkId": 0,
      "chainId": 0
    },
    {
      "hash": "0xf557a58427509da7e27021535d4d74addf0432e475e066beb1561874452ccbd7",
      "blockHash": "0x1da6621a3cffc55761f2665c8e698262b9199da9755bca10c8fb85bdfada4bc7",
      "blockNumber": 90080,
      "transactionIndex": 2,
      "confirmations": null,
      "from": "0x2F85B3bF062769b2A2672200aFb21e3F4067a86d",
      "gasPrice": {
        "_hex": "0xd94bdd62d"
      },
      "gasLimit": {
        "_hex": "0x15f90"
      },
      "to": "0x89ec7E9734CE329a5ef22B060A1055144f6b72Ad",
      "value": {
        "_hex": "0xde0b6b3a7640000"
      },
      "nonce": 3,
      "data": "0x",
      "r": "0x24a269799f67540e16f0b5a41c03b78f638aaf174eed42df0dd15f31fd21a8b2",
      "s": "0x35a6eb331fe5895499882ca1740c73d86bc7fa38360ab3ae14d2220042708ecd",
      "v": 28,
      "creates": null,
      "raw": "0xf86d03850d94bdd62d83015f909489ec7e9734ce329a5ef22b060a1055144f6b72ad880de0b6b3a7640000801ca024a269799f67540e16f0b5a41c03b78f638aaf174eed42df0dd15f31fd21a8b2a035a6eb331fe5895499882ca1740c73d86bc7fa38360ab3ae14d2220042708ecd",
      "networkId": 0,
      "chainId": 0
    }
  ]
}