{
  "hash": "0xf9511b2a488b04fe0cdebd8e93d5ec8d072a5bd9db67d1941b394e7fa19ae293",
  "parentHash": "0x9f162bab83a41984a4925dd274bcfa19b6ad90d6d25171f29c602427fda80f84",
  "number": 98419,
  "timestamp": 1439772393,
  "nonce": "0xc331948390acbb2b",
  "difficulty": 3878324689792,
  "gasLimit": {
    "_hex": "0x2fefd8"
  },
  "gasUsed": {
    "_hex": "0x54b0"
  },
  "miner": "0x785ffdDd5cE55c6DF963f345e68d3F2024E5Acb1",
  "extraData": "0x",
  "transactions": [
    {
      "hash": "0xd7453b9100221bdabc705acc8335465dcd37459404173abdecaf11387e75a588",
      "blockHash": "0xf9511b2a488b04fe0cdebd8e93d5ec8d072a5bd9db67d1941b394e7fa19ae293",
      "blockNumber": 98419,
      "transactionIndex": 0,
      "confirmations": null,
      "from": "0x8F68fbE2DCFf038C24F650C9e05Ee478038171cd",
      "gasPrice": {
        "_hex": "0xd21fcf240"
      },
      "gasLimit": {
        "_hex": "0x55f0"
      },
      "to": "0x40B9b889A21Ff1534d018D71Dc406122EBcf3F5A",
      "value": {
        "_hex": "0x18896f0763d52e80000"
      },
      "nonce": 21,
      "data": "0x4a465343433732393935",
      "r": "0x975c3f4a16967ef757cc1c20e3b2b72abed52e893c1ba948cc06025cc1afda18",
      "s": "0x4977839488d84bb177cbadf1d7429c77724e69d117932cbdcd6240fa8db154a3",
      "v": 28,
      "creates": null,
      "raw": "0xf87815850d21fcf2408255f09440b9b889a21ff1534d018d71dc406122ebcf3f5a8a018896f0763d52e800008a4a4653434337323939351ca0975c3f4a16967ef757cc1c20e3b2b72abed52e893c1ba948cc06025cc1afda18a04977839488d84bb177cbadf1d7429c77724e69d117932cbdcd6240fa8db154a3",
      "networkId": 0,
      "chainId": 0
    }
  ]
}