{
  "hash": "0xfd26a6db01d8b4ce1dcff0a9faaff50aad288bdd9bd49560a53cbaff6e72767a",
  "parentHash": "0xd55d5f36f5490a48777d2ef0e53e0bc7ef4548993bbd17123e41b43dfa56e522",
  "number": 64456,
  "timestamp": 1439220967,
  "nonce": "0x1d3ac8c0bf040d64",
  "difficulty": 1880287298808,
  "gasLimit": {
    "_hex": "0x2fefd8"
  },
  "gasUsed": {
    "_hex": "0xbe6c"
  },
  "miner": "0x9746c7e1ef2bd21FF3997fa467593a89cb852BD0",
  "extraData": "0x476574682f76312e302e312f77696e646f77732f676f312e342e32",
  "transactions": [
    {
      "hash": "0x2f68915f1db2ec4c337e1152eb25292c3c4bebbfe7ea737e536cbf56cb48ac94",
      "blockHash": "0xfd26a6db01d8b4ce1dcff0a9faaff50aad288bdd9bd49560a53cbaff6e72767a",
      "blockNumber": 64456,
      "transactionIndex": 0,
      "confirmations": null,
      "from": "0x7d176AF44796fE9dE0343720170ea8443AFD97Bf",
      "gasPrice": {
        "_hex": "0xd9666adb5"
      },
      "gasLimit": {
        "_hex": "0x15f90"
      },
      "to": "0x793AE8C1b1a160BFc07BFB0d04F85eab1A71F4f2",
      "value": {
        "_hex": "0x0"
      },
      "nonce": 1,
      "data": "0x3ba15036",
      "r": "0x2275416b16a743668ca5d4f8c6e488134f5cd52f325e36a9062fd8909bf87831",
      "s": "0x1435e173d3d791efb84e6f00464ba0093a808afb4e310ce25ba53620d945010c",
      "v": 28,
      "creates": null,
      "raw": "0xf86901850d9666adb583015f9094793ae8c1b1a160bfc07bfb0d04f85eab1a71f4f280843ba150361ca02275416b16a743668ca5d4f8c6e488134f5cd52f325e36a9062fd8909bf87831a01435e173d3d791efb84e6f00464ba0093a808afb4e310ce25ba53620d945010c",
      "networkId": 0,
      "chainId": 0
    }
  ]
}