{
  "hash": "0xb54f3f6be38862cc009b28c28ed1178d966d465b2f5f324b7054fae44c92f193",
  "parentHash": "0x442784d673c68b41701b21844b938a221baa657bba6c5d64ccb07a7e2600faa7",
  "number": 117914,
  "timestamp": 1440117457,
  "nonce": "0x37f128a3b034eb5c",
  "difficulty": 4344027701016,
  "gasLimit": {
    "_hex": "0x2fefd8"
  },
  "gasUsed": {
    "_hex": "0x14820"
  },
  "miner": "0x52bc44d5378309EE2abF1539BF71dE1b7d7bE3b5",
  "extraData": "0xd783010002844765746887676f312e342e32856c696e7578",
  "transactions": [
    {
      "hash": "0x9d440c90c6f887deed1c8791bbb4847d1e7548cafaba56d1f91d6fdc58ef711a",
      "blockHash": "0xb54f3f6be38862cc009b28c28ed1178d966d465b2f5f324b7054fae44c92f193",
      "blockNumber": 117914,
      "transactionIndex": 0,
      "confirmations": null,
      "from": "0x007f7f58D3eb5b7510A301eCC749FC1fCDDBE14D",
      "gasPrice": {
        "_hex": "0xba43b7400"
      },
      "gasLimit": {
        "_hex": "0x15f90"
      },
      "to": "0xb1abce2918E21ddb93AA452731a12672A3d9F75a",
      "value": {
        "_hex": "0x4563918244f40000"
      },
      "nonce": 329,
      "data": "0x",
      "r": "0xd3805e28b5f23029ef6d4da22807b265694328f92a517f873087745d2a969e08",
      "s": "0x03a541c6a61aa93c75ea5438c611cf7bc8536da278076caa1070312042f71f46",
      "v": 27,
      "creates": null,
      "raw": "0xf86f820149850ba43b740083015f9094b1abce2918e21ddb93aa452731a12672a3d9f75a884563918244f40000801ba0d3805e28b5f23029ef6d4da22807b265694328f92a517f873087745d2a969e08a003a541c6a61aa93c75ea5438c611cf7bc8536da278076caa1070312042f71f46",
      "networkId": 0,
      "chainId": 0
    },
    {
      "hash": "0xae61d6dc1b26c65d8ba2ab9716ddf923481db2039b0c241e3fd7c69870acce36",
      "blockHash": "0xb54f3f6be38862cc009b28c28ed1178d966d465b2f5f324b7054fae44c92f193",
      "blockNumber": 117914,
      "transactionIndex": 1,
      "confirmations": null,
      "from": "0xB28fE7b9815982FF203F751ce550111D752d8795",
      "gasPrice": {
        "_hex": "0xba43b7400"
      },
      "gasLimit": {
        "_hex": "0x5208"
      },
      "to": "0x32Be343B94f860124dC4fEe278FDCBD38C102D88",
      "value": {
        "_hex": "0x19c176fe34534c000"
      },
      "nonce": 8,
      "data": "0x",
      "r": "0x8584507222a966193acc7175d7bc6fefc944037775bf23fe195792c484000d1e",
      "s": "0x79f5242632813356384b9116fd41495703242b0e04559f90e415bdb86544670f",
      "v": 28,
      "creates": null,
      "raw": "0xf86d08850ba43b74008252089432be343b94f860124dc4fee278fdcbd38c102d8889019c176fe34534c000801ca08584507222a966193acc7175d7bc6fefc944037775bf23fe195792c484000d1ea079f5242632813356384b9116fd41495703242b0e04559f90e415bdb86544670f",
      "networkId": 0,
      "chainId": 0
    },
    {
      "hash": "0x32df141aedb2f460771c495640ba12e1fc4dfd5ac3c1c6e018b52983f90f6b85",
      "blockHash": "0xb54f3f6be38862cc009b28c28ed1178d966d465b2f5f324b7054fae44c92f193",
      "blockNumber": 117914,
      "transactionIndex": 2,
      "confirmations": null,
      "from": "0x8fA33bA169f6aFf86fB3C9E172bddA7CA6D2A66a",
      "gasPrice": {
        "_hex": "0xba43b7400"
      },
      "gasLimit": {
        "_hex": "0x5208"
      },
      "to": "0x32Be343B94f860124dC4fEe278FDCBD38C102D88",
      "value": {
        "_hex": "0x3174b22a52893800"
      },
      "nonce": 7,
      "data": "0x",
      "r": "0x4e1bfbf597882a6720d8ed8e82ff71e606dafe7d809b2c7a5840e7f183aa0c2c",
      "s": "0x145cc9a5650f6c187931d5a7c8660f09756d412ab05aca676ed2a4e4df3aa391",
      "v": 27,
      "creates": null,
      "raw": "0xf86c07850ba43b74008252089432be343b94f860124dc4fee278fdcbd38c102d88883174b22a52893800801ba04e1bfbf597882a6720d8ed8e82ff71e606dafe7d809b2c7a5840e7f183aa0c2ca0145cc9a5650f6c187931d5a7c8660f09756d412ab05aca676ed2a4e4df3aa391",
      "networkId": 0,
      "chainId": 0
    },
    {
      "hash": "0x7d7895e82d19aa2094a813cabb7692a1b4e27c81db75114b497fb67cd5bb2b88",
      "blockHash": "0xb54f3f6be38862cc009b28c28ed1178d966d465b2f5f324b7054fae44c92f193",
      "blockNumber": 117914,
      "transactionIndex": 3,
      "confirmations": null,
      "from": "0x7548566f611b89EBfb57C547FeA0c293A2830aD2",
      "gasPrice": {
        "_hex": "0xba43b7400"
      },
      "gasLimit": {
        "_hex": "0x5208"
      },
      "to": "0x32Be343B94f860124dC4fEe278FDCBD38C102D88",
      "value": {
        "_hex": "0x455fd68a17f06000"
      },
      "nonce": 7,
      "data": "0x",
      "r": "0x924b3ceecfbdca7b20e7b6fa6ceca5b1a1e3daae024e5411f0a3058ce5f63963",
      "s": "0x567375ab922fbb7505ef4f90068d23615bea5f06747d40e2d4da5c8359922358",
      "v": 27,
      "creates": null,
      "raw": "0xf86c07850ba43b74008252089432be343b94f860124dc4fee278fdcbd38c102d8888455fd68a17f06000801ba0924b3ceecfbdca7b20e7b6fa6ceca5b1a1e3daae024e5411f0a3058ce5f63963a0567375ab922fbb7505ef4f90068d23615bea5f06747d40e2d4da5c8359922358",
      "networkId": 0,
      "chainId": 0
    }
  ]
}