{
  "hash": "0xa12a23c1f4e5dc9a71d60e21a0c63f6eaaad8019b51170d9925a796587342994",
  "parentHash": "0xfaa0ef977d62a6e8a1497990449f967e0468fb879968cdef6623c6806c8462d3",
  "number": 72233,
  "timestamp": 1439349513,
  "nonce": "0x55c4640a16e55a66",
  "difficulty": 2173836542033,
  "gasLimit": {
    "_hex": "0x2fefd8"
  },
  "gasUsed": {
    "_hex": "0x9400"
  },
  "miner": "0xe6A7a1d47ff21B6321162AEA7C6CB457D5476Bca",
  "extraData": "0x476574682f76312e302e312d38326566323666362f6c696e75782f676f312e34",
  "transactions": [
    {
      "hash": "0x024e77aff62f11b0ffa2816932967ae61fd0258e187bad6ac12d36ca8a9d1d9d",
      "blockHash": "0xa12a23c1f4e5dc9a71d60e21a0c63f6eaaad8019b51170d9925a796587342994",
      "blockNumber": 72233,
      "transactionIndex": 0,
      "confirmations": null,
      "from": "0x17580B766f7453525ca4C6A88b01b50570EA088C",
      "gasPrice": {
        "_hex": "0xd78773bda"
      },
      "gasLimit": {
        "_hex": "0x61a80"
      },
      "to": "0x5Fe5B7546D1628f7348B023A0393de1FC825A4fD",
      "value": {
        "_hex": "0x8ac7230489e80000"
      },
      "nonce": 402,
      "data": "0xb595b8b50000000000000000000000000000000000000000000000000000000000000001",
      "r": "0x77788f044efc64ad2ae42d1c2ec35c90218a2e86b3b0b9110b8ec4d5627c4dff",
      "s": "0x5cd06face0987a68652e18af8c24445577e782831614484145cc509dbebbad5a",
      "v": 27,
      "creates": null,
      "raw": "0xf893820192850d78773bda83061a80945fe5b7546d1628f7348b023a0393de1fc825a4fd888ac7230489e80000a4b595b8b500000000000000000000000000000000000000000000000000000000000000011ba077788f044efc64ad2ae42d1c2ec35c90218a2e86b3b0b9110b8ec4d5627c4dffa05cd06face0987a68652e18af8c24445577e782831614484145cc509dbebbad5a",
      "networkId": 0,
      "chainId": 0
    }
  ]
}