{
  "hash": "0xd5944d363adf4d1f61c386e7c473244f297844225153435619c2d961dd38cadf",
  "parentHash": "0x7ef04ccc204f5eb1c2deac74fccb8689dbf107beae54605cae4195404b65f619",
  "number": 47074,
  "timestamp": 1438933963,
  "nonce": "0x3682ef5061c986c0",
  "difficulty": 1453146251379,
  "gasLimit": {
    "_hex": "0x948d"
  },
  "gasUsed": {
    "_hex": "0x5208"
  },
  "miner": "0xF2d2AfF1320476cb8C6b607199D23175cc595693",
  "extraData": "0x476574682f76312e302e312f77696e646f77732f676f312e342e32",
  "transactions": [
    {
      "hash": "0xb83334e89197f565384cfe29e326c71efc586901f5750c2b77e661fc7c1864f0",
      "blockHash": "0xd5944d363adf4d1f61c386e7c473244f297844225153435619c2d961dd38cadf",
      "blockNumber": 47074,
      "transactionIndex": 0,
      "confirmations": null,
      "from": "0xe6A7a1d47ff21B6321162AEA7C6CB457D5476Bca",
      "gasPrice": {
        "_hex": "0xdc3059b4d"
      },
      "gasLimit": {
        "_hex": "0x5208"
      },
      "to": "0x134886E027977a26593C096A782c671D72873073",
      "value": {
        "_hex": "0x2261e4700920d078"
      },
      "nonce": 39,
      "data": "0x",
      "r": "0x0045829aae0140185acdfe507ac87a0f0430412c0d16c4412d68fe59f01ca468",
      "s": "0x6218d0ec57fb50501fd75c598a44ede482fe5c0790e2f0264eb2114b91ea8d5e",
      "v": 28,
      "creates": null,
      "raw": "0xf86b27850dc3059b4d82520894134886e027977a26593c096a782c671d72873073882261e4700920d078801c9f45829aae0140185acdfe507ac87a0f0430412c0d16c4412d68fe59f01ca468a06218d0ec57fb50501fd75c598a44ede482fe5c0790e2f0264eb2114b91ea8d5e",
      "networkId": 0,
      "chainId": 0
    }
  ]
}