{
  "hash": "0x2a73064fb12ee45fa72015222739322e3f9e8b1169942192c387e23f0316a963",
  "parentHash": "0x6bf8cefe4d99e1cd8624d7ea52c7f9d129e68e0b2e286b5390eba155d21f7af1",
  "number": 67178,
  "timestamp": 1439267311,
  "nonce": "0xbdb331fcfccaf089",
  "difficulty": 1929898258136,
  "gasLimit": {
    "_hex": "0x2fefd8"
  },
  "gasUsed": {
    "_hex": "0x5208"
  },
  "miner": "0x93641e54c9aA6F9038FE7Adb03629a1747326Cd6",
  "extraData": "0x476574682f76312e302e312f77696e646f77732f676f312e342e32",
  "transactions": [
    {
      "hash": "0x72e696f5cedf7e4ab9def45cd3645a2b1586223577eddd04024ea0e438daf7cf",
      "blockHash": "0x2a73064fb12ee45fa72015222739322e3f9e8b1169942192c387e23f0316a963",
      "blockNumber": 67178,
      "transactionIndex": 0,
      "confirmations": null,
      "from": "0xDA4E0Ba268486216E0B3Ad5ccEAa1E7EdB1C2751",
      "gasPrice": {
        "_hex": "0xcc3ede878"
      },
      "gasLimit": {
        "_hex": "0x5208"
      },
      "to": "0x32Be343B94f860124dC4fEe278FDCBD38C102D88",
      "value": {
        "_hex": "0xddc94599e67a400"
      },
      "nonce": 0,
      "data": "0x",
      "r": "0x0f3446c379a8e98864c903cd72824bb6bc389e658629bb6276613968b1b72daa",
      "s": "0x5c0da901bde4228481e7d2a17aa7117df5b6c2c61229b41a7186121f59ec5859",
      "v": 27,
      "creates": null,
      "raw": "0xf86c80850cc3ede8788252089432be343b94f860124dc4fee278fdcbd38c102d88880ddc94599e67a400801ba00f3446c379a8e98864c903cd72824bb6bc389e658629bb6276613968b1b72daaa05c0da901bde4228481e7d2a17aa7117df5b6c2c61229b41a7186121f59ec5859",
      "networkId": 0,
      "chainId": 0
    }
  ]
}