{
  "hash": "0xf07a8b67c435fbfb8be79cc0c61baffa322504ac4cbc22e40a77b8d2239248b2",
  "parentHash": "0xea21ad26c91a1da8bcd29094448b76367256456473a4ff464b9ee7f9ff6fc936",
  "number": 75001,
  "timestamp": 1439395899,
  "nonce": "0xf87375ebc45a81e8",
  "difficulty": 2192303220546,
  "gasLimit": {
    "_hex": "0x2fefd8"
  },
  "gasUsed": {
    "_hex": "0x546c"
  },
  "miner": "0xC41B263BF9c94a7b5f189942FB97298CE7757d6D",
  "extraData": "0x476574682f76312e302e312f6c696e75782f676f312e342e32",
  "transactions": [
    {
      "hash": "0x5913720c8414ccb9d97dd1aae426146ae9fdf8794dfb9f0321f6b2a0a34eea1a",
      "blockHash": "0xf07a8b67c435fbfb8be79cc0c61baffa322504ac4cbc22e40a77b8d2239248b2",
      "blockNumber": 75001,
      "transactionIndex": 0,
      "confirmations": null,
      "from": "0x95dF4e3445D7662624c48eba74cF9e0a53E9f732",
      "gasPrice": {
        "_hex": "0xcb361a2fb"
      },
      "gasLimit": {
        "_hex": "0x546c"
      },
      "to": "0x2910543Af39abA0Cd09dBb2D50200b3E800A63D2",
      "value": {
        "_hex": "0x6c6b935b8bbd400000"
      },
      "nonce": 12,
      "data": "0x454e454b5537393138",
      "r": "0xc3f73510cc6d4414b4d7a914905ded9a53c42cc1e0d2c39636bd0a85ee7e5f4d",
      "s": "0x7d0bae36e9ca492d1f248d491e58f7bd8d953b2be373fb25c15807420ce99b8e",
      "v": 27,
      "creates": null,
      "raw": "0xf8760c850cb361a2fb82546c942910543af39aba0cd09dbb2d50200b3e800a63d2896c6b935b8bbd40000089454e454b55373931381ba0c3f73510cc6d4414b4d7a914905ded9a53c42cc1e0d2c39636bd0a85ee7e5f4da07d0bae36e9ca492d1f248d491e58f7bd8d953b2be373fb25c15807420ce99b8e",
      "networkId": 0,
      "chainId": 0
    }
  ]
}