{
  "hash": "0x79b3f9807125807e14357682ed9ad5a07bca834a6ef6a845454602a2f2d6489b",
  "parentHash": "0x49ed2daebc6880a4ea315cdd35959665720840cb9c5b29f04c5b31418b24159d",
  "number": 61185,
  "timestamp": 1439168340,
  "nonce": "0xadfb99a73b23345e",
  "difficulty": 1725278918416,
  "gasLimit": {
    "_hex": "0x2fefd8"
  },
  "gasUsed": {
    "_hex": "0x5208"
  },
  "miner": "0xA1623430350C5df1b52B0b57483A5bb45d1796Da",
  "extraData": "0x476574682f76312e302e312d38326566323666362f6c696e75782f676f312e34",
  "transactions": [
    {
      "hash": "0xc1fe7236acc0af647e28284b0a8cf6a95f38421fafc8a40a4a29a12ce3b8eb42",
      "blockHash": "0x79b3f9807125807e14357682ed9ad5a07bca834a6ef6a845454602a2f2d6489b",
      "blockNumber": 61185,
      "transactionIndex": 0,
      "confirmations": null,
      "from": "0x6800E12aFd6CAa35c8482E7757119ccf6b576FD0",
      "gasPrice": {
        "_hex": "0xcdb96dfd8"
      },
      "gasLimit": {
        "_hex": "0x5208"
      },
      "to": "0x32Be343B94f860124dC4fEe278FDCBD38C102D88",
      "value": {
        "_hex": "0x2b5df9058fefc4000"
      },
      "nonce": 1,
      "data": "0x",
      "r": "0x564a0bb3fde300be6d2612766b8c35e8ab9ea97080b5028c4cd8240e8d14cd24",
      "s": "0x1ec65f33f07ab297d89e5b5801d5f52959dec603e8a5c4e565a81b3614d58a2d",
      "v": 28,
      "creates": null,
      "raw": "0xf86d01850cdb96dfd88252089432be343b94f860124dc4fee278fdcbd38c102d888902b5df9058fefc4000801ca0564a0bb3fde300be6d2612766b8c35e8ab9ea97080b5028c4cd8240e8d14cd24a01ec65f33f07ab297d89e5b5801d5f52959dec603e8a5c4e565a81b3614d58a2d",
      "networkId": 0,
      "chainId": 0
    }
  ]
}