{
  "hash": "0x1277037a7e2302654bf362d3695985279618d0d79d21468a0c4e43d5b432f2b1",
  "parentHash": "0xa169d68e8b1913cfa1e32c16e091fcd227c4c004782ca9a43c16bfc8f8abaab5",
  "number": 52225,
  "timestamp": 1439018487,
  "nonce": "0x61689c3bfc306fd2",
  "difficulty": 1548182768892,
  "gasLimit": {
    "_hex": "0x116e91"
  },
  "gasUsed": {
    "_hex": "0xf4240"
  },
  "miner": "0xF2d2AfF1320476cb8C6b607199D23175cc595693",
  "extraData": "0x476574682f76312e302e312f77696e646f77732f676f312e342e32",
  "transactions": [
    {
      "hash": "0x0eb60532584827ec828c3e6eebeedf1017982e09a022bdbdb5c8c9c2d90823d2",
      "blockHash": "0x1277037a7e2302654bf362d3695985279618d0d79d21468a0c4e43d5b432f2b1",
      "blockNumber": 52225,
      "transactionIndex": 0,
      "confirmations": null,
      "from": "0xAd7F5C601260b460ADAC6A54411Ca6Cf07dC83c3",
      "gasPrice": {
        "_hex": "0xdaa36d5ae"
      },
      "gasLimit": {
        "_hex": "0x7a120"
      },
      "to": "0xBAA54d6E90c3F4d7Ebec11bD180134C7eD8eBb52",
      "value": {
        "_hex": "0x16345785d8a0000"
      },
      "nonce": 2,
      "data": "0x",
      "r": "0x672e22349f8430d25f3be3cad38644489c638dd7b3e0acff2f6e14556c1c4cf1",
      "s": "0x61505414782654301062eaf7150706824cf4b6586fa607b35cddb4468afc7ac5",
      "v": 28,
      "creates": null,
      "raw": "0xf86d02850daa36d5ae8307a12094baa54d6e90c3f4d7ebec11bd180134c7ed8ebb5288016345785d8a0000801ca0672e22349f8430d25f3be3cad38644489c638dd7b3e0acff2f6e14556c1c4cf1a061505414782654301062eaf7150706824cf4b6586fa607b35cddb4468afc7ac5",
      "networkId": 0,
      "chainId": 0
    },
    {
      "hash": "0xe83371f4a84767703530764010f39a548293fe64137ee88f321d1e0701438d93",
      "blockHash": "0x1277037a7e2302654bf362d3695985279618d0d79d21468a0c4e43d5b432f2b1",
      "blockNumber": 52225,
      "transactionIndex": 1,
      "confirmations": null,
      "from": "0xAd7F5C601260b460ADAC6A54411Ca6Cf07dC83c3",
      "gasPrice": {
        "_hex": "0xdaa36d5ae"
      },
      "gasLimit": {
        "_hex": "0x7a120"
      },
      "to": "0xBAA54d6E90c3F4d7Ebec11bD180134C7eD8eBb52",
      "value": {
        "_hex": "0x16345785d8a0000"
      },
      "nonce": 3,
      "data": "0x",
      "r": "0x6a988cb56b9f067be6ec2cde304221eece729fe54de7eb1cda412192dfbddd9a",
      "s": "0x79e34c6391a36ceae13356eb5bb40f2db28d69d5d2e879bc4cda618b15cd6a84",
      "v": 28,
      "creates": null,
      "raw": "0xf86d03850daa36d5ae8307a12094baa54d6e90c3f4d7ebec11bd180134c7ed8ebb5288016345785d8a0000801ca06a988cb56b9f067be6ec2cde304221eece729fe54de7eb1cda412192dfbddd9aa079e34c6391a36ceae13356eb5bb40f2db28d69d5d2e879bc4cda618b15cd6a84",
      "networkId": 0,
      "chainId": 0
    }
  ]
}