{
  "hash": "0xe4b8ef92fedd9425f0a3c7c0456052f54675daccb7dfa44344c17acdab4bf965",
  "parentHash": "0xb0f95c309d21780fa1753ec24afd4e04733e488e3301bf6ec5795f1dc27284c5",
  "number": 120575,
  "timestamp": 1440162207,
  "nonce": "0x1b4a06ecda69ab98",
  "difficulty": 4430463811092,
  "gasLimit": {
    "_hex": "0x2fefd8"
  },
  "gasUsed": {
    "_hex": "0x5208"
  },
  "miner": "0x52bc44d5378309EE2abF1539BF71dE1b7d7bE3b5",
  "extraData": "0xd783010002844765746887676f312e342e32856c696e7578",
  "transactions": [
    {
      "hash": "0xd83aae02f7d7ba56a11fbf906fa0ded4cf7e87227beca11d4719bea747ba4835",
      "blockHash": "0xe4b8ef92fedd9425f0a3c7c0456052f54675daccb7dfa44344c17acdab4bf965",
      "blockNumber": 120575,
      "transactionIndex": 0,
      "confirmations": null,
      "from": "0x32Be343B94f860124dC4fEe278FDCBD38C102D88",
      "gasPrice": {
        "_hex": "0xba43b7400"
      },
      "gasLimit": {
        "_hex": "0x5208"
      },
      "to": "0x62b0559efe3a073EDfe78bBe7CB491A6C65F0806",
      "value": {
        "_hex": "0x6449e84e47a8a80000"
      },
      "nonce": 1523,
      "data": "0x",
      "r": "0xfad3f6ceedaa7cf0dd1d2105a7a6cc5abe83b4e8cdb7142dcd2836ec11b975ee",
      "s": "0x586ef2e53ad581a7b693233c3f58bf933c6fe2f48278610ce493b0efe203bfd4",
      "v": 28,
      "creates": null,
      "raw": "0xf86f8205f3850ba43b74008252089462b0559efe3a073edfe78bbe7cb491a6c65f0806896449e84e47a8a80000801ca0fad3f6ceedaa7cf0dd1d2105a7a6cc5abe83b4e8cdb7142dcd2836ec11b975eea0586ef2e53ad581a7b693233c3f58bf933c6fe2f48278610ce493b0efe203bfd4",
      "networkId": 0,
      "chainId": 0
    }
  ]
}