{
  "hash": "0x21eb33ac90a9fb3e1fc4cb6777dd57207318cbb4fe9acfbb41f6c39fdcb5e169",
  "parentHash": "0xba5e1ca330c3fd625c9705f7d2227d2cc7133dd7fa6408a559ac9edf91549157",
  "number": 102359,
  "timestamp": 1439836711,
  "nonce": "0x511168c813a9f2f0",
  "difficulty": 3956822914266,
  "gasLimit": {
    "_hex": "0x2fefd8"
  },
  "gasUsed": {
    "_hex": "0x5208"
  },
  "miner": "0xe6A7a1d47ff21B6321162AEA7C6CB457D5476Bca",
  "extraData": "0x476574682f76312e302e312d38326566323666362f6c696e75782f676f312e34",
  "transactions": [
    {
      "hash": "0xe5f0d380e51c1169e97f726e062822f2c931c2d8feca62f5d87778873aceeca2",
      "blockHash": "0x21eb33ac90a9fb3e1fc4cb6777dd57207318cbb4fe9acfbb41f6c39fdcb5e169",
      "blockNumber": 102359,
      "transactionIndex": 0,
      "confirmations": null,
      "from": "0x32Be343B94f860124dC4fEe278FDCBD38C102D88",
      "gasPrice": {
        "_hex": "0xd4cbe6464"
      },
      "gasLimit": {
        "_hex": "0x5208"
      },
      "to": "0x27B72eD589B301EAc50Acb674CA6CA54A86F95B8",
      "value": {
        "_hex": "0xdbd2fc137a30000"
      },
      "nonce": 1100,
      "data": "0x",
      "r": "0xb52993622de39abdcab46f533fad8a98c52a3cba19398ea18cbdcb1114c36959",
      "s": "0x07a60cee68ed02fa08f2c150077ca6eafbc6b7eaa11a4177f3dfa63928a1ead9",
      "v": 28,
      "creates": null,
      "raw": "0xf86e82044c850d4cbe64648252089427b72ed589b301eac50acb674ca6ca54a86f95b8880dbd2fc137a30000801ca0b52993622de39abdcab46f533fad8a98c52a3cba19398ea18cbdcb1114c36959a007a60cee68ed02fa08f2c150077ca6eafbc6b7eaa11a4177f3dfa63928a1ead9",
      "networkId": 0,
      "chainId": 0
    }
  ]
}