{
  "hash": "0xce6c4356e7a22abff7358b59b1cf5fc794c859d10c3d68df937a062a65b2faa4",
  "parentHash": "0x2ee682eee8ed7ecfca086c6ae8f489cb0af69af9fecbaf6cbded532414248ca6",
  "number": 112758,
  "timestamp": 1440012684,
  "nonce": "0xfeda13d89bb7ac78",
  "difficulty": 4445434177431,
  "gasLimit": {
    "_hex": "0x2fefd8"
  },
  "gasUsed": {
    "_hex": "0xa410"
  },
  "miner": "0x9746c7e1ef2bd21FF3997fa467593a89cb852BD0",
  "extraData": "0x476574682f76312e302e312f77696e646f77732f676f312e342e32",
  "transactions": [
    {
      "hash": "0x7b953e41b50ed8366d2928a156b6c97dcfe6b9dcc6e9d1bf7f30deb6aa12d066",
      "blockHash": "0xce6c4356e7a22abff7358b59b1cf5fc794c859d10c3d68df937a062a65b2faa4",
      "blockNumber": 112758,
      "transactionIndex": 0,
      "confirmations": null,
      "from": "0x8263B7757b139904C7cD8511B3D0a6D1479848Ba",
      "gasPrice": {
        "_hex": "0xdf3730d79"
      },
      "gasLimit": {
        "_hex": "0x5208"
      },
      "to": "0x32Be343B94f860124dC4fEe278FDCBD38C102D88",
      "value": {
        "_hex": "0x1ea3e10d65c66400"
      },
      "nonce": 8,
      "data": "0x",
      "r": "0x4d597b75514be87e63028a040c12e1b481678c2a257ac90b6e68147824460415",
      "s": "0x61c0a818a5bfd716f88df05748ffe3d2421b65de8e62330e5b33098a535852d4",
      "v": 28,
      "creates": null,
      "raw": "0xf86c08850df3730d798252089432be343b94f860124dc4fee278fdcbd38c102d88881ea3e10d65c66400801ca04d597b75514be87e63028a040c12e1b481678c2a257ac90b6e68147824460415a061c0a818a5bfd716f88df05748ffe3d2421b65de8e62330e5b33098a535852d4",
      "networkId": 0,
      "chainId": 0
    },
    {
      "hash": "0x602762bdd9734fa9dfd974341dca67492f2c019ba5a2599f41cffa6457ab4e94",
      "blockHash": "0xce6c4356e7a22abff7358b59b1cf5fc794c859d10c3d68df937a062a65b2faa4",
      "blockNumber": 112758,
      "transactionIndex": 1,
      "confirmations": null,
      "from": "0xD6CBc00b3ECFF6E48a1106fEaf62f77C4F52E465",
      "gasPrice": {
        "_hex": "0xd84e12627"
      },
      "gasLimit": {
        "_hex": "0x5208"
      },
      "to": "0x4bf8C1C2A2229ddE2Fd519276a21cF1e7721eCe0",
      "value": {
        "_hex": "0xde0b6b3a7640000"
      },
      "nonce": 1,
      "data": "0x",
      "r": "0x669faf3ec8f8041fe674a7d2d7a8a95f8da75c72b87260e06de17f154dd5002c",
      "s": "0x2e286e53faa2fb3ca61443709ae82b2cd29c9b8ac509ca06ddd2dcbfa4602427",
      "v": 28,
      "creates": null,
      "raw": "0xf86c01850d84e12627825208944bf8c1c2a2229dde2fd519276a21cf1e7721ece0880de0b6b3a7640000801ca0669faf3ec8f8041fe674a7d2d7a8a95f8da75c72b87260e06de17f154dd5002ca02e286e53faa2fb3ca61443709ae82b2cd29c9b8ac509ca06ddd2dcbfa4602427",
      "networkId": 0,
      "chainId": 0
    }
  ]
}