{
  "hash": "0x4e727c6d0c5a4b22564f275313e2ce530e7fb62d5c575b9b536a670a64674765",
  "parentHash": "0x404f8edeb5fd50bf4b725dc02ab15e4b1606c5644f3c21064793bf5ec1bcf28c",
  "number": 88268,
  "timestamp": 1439605423,
  "nonce": "0xaca7d1deab65825d",
  "difficulty": 3208153022643,
  "gasLimit": {
    "_hex": "0x2fefd8"
  },
  "gasUsed": {
    "_hex": "0xa410"
  },
  "miner": "0xEF247E639d49461D25F57e9362CadE3120910Ce0",
  "extraData": "0x476574682f76312e302e312f6c696e75782f676f312e342e32",
  "transactions": [
    {
      "hash": "0x0a760ad2ed919a8e4fd530fcd1ef211a9a841b31d8994486bfe5a8870d49ed4b",
      "blockHash": "0x4e727c6d0c5a4b22564f275313e2ce530e7fb62d5c575b9b536a670a64674765",
      "blockNumber": 88268,
      "transactionIndex": 0,
      "confirmations": null,
      "from": "0x32Be343B94f860124dC4fEe278FDCBD38C102D88",
      "gasPrice": {
        "_hex": "0xcf9a28df3"
      },
      "gasLimit": {
        "_hex": "0x5208"
      },
      "to": "0x8eC407EDf8FAbf4dCDD81b9bf6AC7f07591D1488",
      "value": {
        "_hex": "0x3780a25f7693f0000"
      },
      "nonce": 823,
      "data": "0x",
      "r": "0x38789cc298a8da0254f4acaa0edf5b6d9698b1e1370997feb1745ed024edf537",
      "s": "0x02e89d8db57058cdcd813d5424cfdc2b71be36a3691bad18fc5dc9e8c45e4a1e",
      "v": 27,
      "creates": null,
      "raw": "0xf86f820337850cf9a28df3825208948ec407edf8fabf4dcdd81b9bf6ac7f07591d14888903780a25f7693f0000801ba038789cc298a8da0254f4acaa0edf5b6d9698b1e1370997feb1745ed024edf537a002e89d8db57058cdcd813d5424cfdc2b71be36a3691bad18fc5dc9e8c45e4a1e",
      "networkId": 0,
      "chainId": 0
    },
    {
      "hash": "0x8b429f2e5bd50cec71148391ed29b231e14d4a9d29bb62ef281d18f40525d31d",
      "blockHash": "0x4e727c6d0c5a4b22564f275313e2ce530e7fb62d5c575b9b536a670a64674765",
      "blockNumber": 88268,
      "transactionIndex": 1,
      "confirmations": null,
      "from": "0x32Be343B94f860124dC4fEe278FDCBD38C102D88",
      "gasPrice": {
        "_hex": "0xcf9a28df3"
      },
      "gasLimit": {
        "_hex": "0x5208"
      },
      "to": "0x5F28bcc5faFC8982536A9e4be559657998CdE1E3",
      "value": {
        "_hex": "0x8aa39c121a270000"
      },
      "nonce": 824,
      "data": "0x",
      "r": "0x2a5dee8254da8796adfdfe630d24396499294ce9b6fa1f4553a277f152a66c42",
      "s": "0x08535b2a2f37599a45c9a6d13318f23644e02e3368f460878747cb1c19466983",
      "v": 28,
      "creates": null,
      "raw": "0xf86e820338850cf9a28df3825208945f28bcc5fafc8982536a9e4be559657998cde1e3888aa39c121a270000801ca02a5dee8254da8796adfdfe630d24396499294ce9b6fa1f4553a277f152a66c42a008535b2a2f37599a45c9a6d13318f23644e02e3368f460878747cb1c19466983",
      "networkId": 0,
      "chainId": 0
    }
  ]
}