{
  "hash": "0x183d7de029f96f2c5c0bf5be9e8da15eeba0f4fe1059934ef4fe77d3cba24e03",
  "parentHash": "0x912b446e7713540b2ad189152365c0ce9711bf01756de82ca2283e3843944d59",
  "number": 69008,
  "timestamp": 1439297030,
  "nonce": "0x6c54354e1f479b60",
  "difficulty": 2037934177813,
  "gasLimit": {
    "_hex": "0x2fefd8"
  },
  "gasUsed": {
    "_hex": "0x29040"
  },
  "miner": "0x64c0f4A860176e4f956550703F0eF522A9eD06F9",
  "extraData": "0x476574682f76312e302e312d38326566323666362f6c696e75782f676f312e34",
  "transactions": [
    {
      "hash": "0x5033c40d7b85537d9cb7ebd0aabc6359bb5fb5c347526a71e233a7dfd56bd1ca",
      "blockHash": "0x183d7de029f96f2c5c0bf5be9e8da15eeba0f4fe1059934ef4fe77d3cba24e03",
      "blockNumber": 69008,
      "transactionIndex": 0,
      "confirmations": null,
      "from": "0xAc60064787B321e2CA3fbEBD9e51C7A15193F11d",
      "gasPrice": {
        "_hex": "0xba43b7400"
      },
      "gasLimit": {
        "_hex": "0x5208"
      },
      "to": "0xDf0CEB30803a28F74819DFE344Daae6883321ba5",
      "value": {
        "_hex": "0x17adb9b0233f000"
      },
      "nonce": 1,
      "data": "0x",
      "r": "0x1ad9429e684c3c823376a0118f0cf976caa4e99c4dceed4d171fe641924d7449",
      "s": "0x2cf228290079f7191325fd2c93d8454c5449fcf738aa16328ee0509c851c387a",
      "v": 28,
      "creates": null,
      "raw": "0xf86c01850ba43b740082520894df0ceb30803a28f74819dfe344daae6883321ba588017adb9b0233f000801ca01ad9429e684c3c823376a0118f0cf976caa4e99c4dceed4d171fe641924d7449a02cf228290079f7191325fd2c93d8454c5449fcf738aa16328ee0509c851c387a",
      "networkId": 0,
      "chainId": 0
    },
    {
      "hash": "0x78975d236a239e5b7edc5194969f104558a6b57c0ae29e18bb32ced141f2c004",
      "blockHash": "0x183d7de029f96f2c5c0bf5be9e8da15eeba0f4fe1059934ef4fe77d3cba24e03",
      "blockNumber": 69008,
      "transactionIndex": 1,
      "confirmations": null,
      "from": "0xBb0957aB71420Fd651CD9fe0979496519F51D07b",
      "gasPrice": {
        "_hex": "0xba43b7400"
      },
      "gasLimit": {
        "_hex": "0x5208"
      },
      "to": "0xB4A18258def0419Ed96c1359aBf228FE04C2590b",
      "value": {
        "_hex": "0x17adb9b0233f000"
      },
      "nonce": 1,
      "data": "0x",
      "r": "0x0e5bf5eac4082dd5daa74199578fea682ad0fc0c2bd849b23007e95cd8a084d2",
      "s": "0x1d75babc14b84c97691b7be3e44fd9ba134f13b6d0fc3c100fec0b0b5c17da9f",
      "v": 27,
      "creates": null,
      "raw": "0xf86c01850ba43b740082520894b4a18258def0419ed96c1359abf228fe04c2590b88017adb9b0233f000801ba00e5bf5eac4082dd5daa74199578fea682ad0fc0c2bd849b23007e95cd8a084d2a01d75babc14b84c97691b7be3e44fd9ba134f13b6d0fc3c100fec0b0b5c17da9f",
      "networkId": 0,
      "chainId": 0
    },
    {
      "hash": "0x46c969c1031c9f0c00dbc855021f31685e5e2a62e0c4d7c9a22effcf3c0fe886",
      "blockHash": "0x183d7de029f96f2c5c0bf5be9e8da15eeba0f4fe1059934ef4fe77d3cba24e03",
      "blockNumber": 69008,
      "transactionIndex": 2,
      "confirmations": null,
      "from": "0xfb4b25e3dE99e25D92801DF0f27F0CeEb5Cfb7a1",
      "gasPrice": {
        "_hex": "0xba43b7400"
      },
      "gasLimit": {
        "_hex": "0x5208"
      },
      "to": "0xa9E0860818586ce969d91e6991138D1D98f1F973",
      "value": {
        "_hex": "0x17adb9b0233f000"
      },
      "nonce": 1,
      "data": "0x",
      "r": "0x3ae21958623c1b33ceef711d22a03650033917e8ac2967af0da6a214a8baf3e0",
      "s": "0x6fea2de2d8e830343c940010061ad0a86aee220378d42ffadac9df4f879427df",
      "v": 28,
      "creates": null,
      "raw": "0xf86c01850ba43b740082520894a9e0860818586ce969d91e6991138d1d98f1f97388017adb9b0233f000801ca03ae21958623c1b33ceef711d22a03650033917e8ac2967af0da6a214a8baf3e0a06fea2de2d8e830343c940010061ad0a86aee220378d42ffadac9df4f879427df",
      "networkId": 0,
      "chainId": 0
    },
    {
      "hash": "0x525d17469694d3dee0a4754fd7a1fb0fcec09a0b2c8c746339553d20111f4169",
      "blockHash": "0x183d7de029f96f2c5c0bf5be9e8da15eeba0f4fe1059934ef4fe77d3cba24e03",
      "blockNumber": 69008,
      "transactionIndex": 3,
      "confirmations": null,
      "from": "0x08c18FB1F2b3e5137a5ac245d9647eA59c4ED343",
      "gasPrice": {
        "_hex": "0xba43b7400"
      },
      "gasLimit": {
        "_hex": "0x5208"
      },
      "to": "0xF5D9F94A4890899363C3Da583eD23498fEfd6E98",
      "value": {
        "_hex": "0x17adb9b0233f000"
      },
      "nonce": 1,
      "data": "0x",
      "r": "0x357551a809dfb80ef375d1414e670b90a9eb6cd8d3f50a52e2fa977b4ed24aae",
      "s": "0x11085fc289a7e2460b1296b832f5a8a67188faba612afda2014e024223842df8",
      "v": 27,
      "creates": null,
      "raw": "0xf86c01850ba43b740082520894f5d9f94a4890899363c3da583ed23498fefd6e9888017adb9b0233f000801ba0357551a809dfb80ef375d1414e670b90a9eb6cd8d3f50a52e2fa977b4ed24aaea011085fc289a7e2460b1296b832f5a8a67188faba612afda2014e024223842df8",
      "networkId": 0,
      "chainId": 0
    },
    {
      "hash": "0x2729ac0a4900925099c9cc85e7b9b6d06c24db79dff92e6ed4bd23f17d73f4df",
      "blockHash": "0x183d7de029f96f2c5c0bf5be9e8da15eeba0f4fe1059934ef4fe77d3cba24e03",
      "blockNumber": 69008,
      "transactionIndex": 4,
      "confirmations": null,
      "from": "0xfB11B3EB6c19d6Ed7F8B8B75096fB982c9f285dA",
      "gasPrice": {
        "_hex": "0xba43b7400"
      },
      "gasLimit": {
        "_hex": "0x5208"
      },
      "to": "0xDa5c95269510C58E38A3440acD4b068bF45088f1",
      "value": {
        "_hex": "0x17adb9b0233f000"
      },
      "nonce": 1,
      "data": "0x",
      "r": "0x943b51e2e138119345215b23fb21f7b847d4547eb2bc967e0893b567d7725d11",
      "s": "0x4e9d9c499bab21762b1a4f04309f2e19e7d342b9f9faa80649d2bc10a3b120d5",
      "v": 27,
      "creates": null,
      "raw": "0xf86c01850ba43b740082520894da5c95269510c58e38a3440acd4b068bf45088f188017adb9b0233f000801ba0943b51e2e138119345215b23fb21f7b847d4547eb2bc967e0893b567d7725d11a04e9d9c499bab21762b1a4f04309f2e19e7d342b9f9faa80649d2bc10a3b120d5",
      "networkId": 0,
      "chainId": 0
    },
    {
      "hash": "0x6ac10d9579712b63d6781b23df00ba79431f1b76663e3aa58a73042587752ea7",
      "blockHash": "0x183d7de029f96f2c5c0bf5be9e8da15eeba0f4fe1059934ef4fe77d3cba24e03",
      "blockNumber": 69008,
      "transactionIndex": 5,
      "confirmations": null,
      "from": "0x2C59c406B8613ae780e9ceA017020CDb5553D0FF",
      "gasPrice": {
        "_hex": "0xba43b7400"
      },
      "gasLimit": {
        "_hex": "0x5208"
      },
      "to": "0xf35D87901C1D2AC4D49b9FB6A1B80397C40e7B84",
      "value": {
        "_hex": "0x17adb9b0233f000"
      },
      "nonce": 1,
      "data": "0x",
      "r": "0x8a74174d8f7ca0a8987a2bd3043812f92cd5dcdc2247977fbca87672cab42037",
      "s": "0x320a78486984e57ef8046dc9f9a0f55ccae6fe992238697fc99b3abf346257dd",
      "v": 27,
      "creates": null,
      "raw": "0xf86c01850ba43b740082520894f35d87901c1d2ac4d49b9fb6a1b80397c40e7b8488017adb9b0233f000801ba08a74174d8f7ca0a8987a2bd3043812f92cd5dcdc2247977fbca87672cab42037a0320a78486984e57ef8046dc9f9a0f55ccae6fe992238697fc99b3abf346257dd",
      "networkId": 0,
      "chainId": 0
    },
    {
      "hash": "0xed88fbabbfc9168797a7a17ad6f87cbbfae279074d89f4cecec80ab269b13685",
      "blockHash": "0x183d7de029f96f2c5c0bf5be9e8da15eeba0f4fe1059934ef4fe77d3cba24e03",
      "blockNumber": 69008,
      "transactionIndex": 6,
      "confirmations": null,
      "from": "0x0C4a61FFB7dd0e45f32ADAc06dbC5B0E4483AcAb",
      "gasPrice": {
        "_hex": "0xba43b7400"
      },
      "gasLimit": {
        "_hex": "0x5208"
      },
      "to": "0xBb25D42bbB8C974d78407111f23Af849f7b432c8",
      "value": {
        "_hex": "0x17adb9b0233f000"
      },
      "nonce": 1,
      "data": "0x",
      "r": "0x3a7d1cee265f95effe6b2e878dcd3895a90055512ed9dafa707ffae69aba33c2",
      "s": "0x1e84f760087f813c9ec1186bb9099e9ba88859d27eafb3f430fe2eac4f6fe1c7",
      "v": 27,
      "creates": null,
      "raw": "0xf86c01850ba43b740082520894bb25d42bbb8c974d78407111f23af849f7b432c888017adb9b0233f000801ba03a7d1cee265f95effe6b2e878dcd3895a90055512ed9dafa707ffae69aba33c2a01e84f760087f813c9ec1186bb9099e9ba88859d27eafb3f430fe2eac4f6fe1c7",
      "networkId": 0,
      "chainId": 0
    },
    {
      "hash": "0xbd3812f83a7b7471162ea1ce7b14b2168e399fb0e224079028f057f6ddf665e7",
      "blockHash": "0x183d7de029f96f2c5c0bf5be9e8da15eeba0f4fe1059934ef4fe77d3cba24e03",
      "blockNumber": 69008,
      "transactionIndex": 7,
      "confirmations": null,
      "from": "0x71b57a7b79abDAffE9731742c7A41F9ffd102684",
      "gasPrice": {
        "_hex": "0xba43b7400"
      },
      "gasLimit": {
        "_hex": "0x5208"
      },
      "to": "0xa3bF0C6b774E02e97e63B4C5c6d1FD6E31088175",
      "value": {
        "_hex": "0x17adb9b0233f000"
      },
      "nonce": 1,
      "data": "0x",
      "r": "0x87a146873b6d67c82638fb27853ef502558189358445c974752524da7914d248",
      "s": "0x13918dacf556017b7b2428fdf7f333bdc6a3166c7c1bce00eba62a9117a7c5c1",
      "v": 27,
      "creates": null,
      "raw": "0xf86c01850ba43b740082520894a3bf0c6b774e02e97e63b4c5c6d1fd6e3108817588017adb9b0233f000801ba087a146873b6d67c82638fb27853ef502558189358445c974752524da7914d248a013918dacf556017b7b2428fdf7f333bdc6a3166c7c1bce00eba62a9117a7c5c1",
      "networkId": 0,
      "chainId": 0
    }
  ]
}