{
  "hash": "0xb21fa793a3e7201f00a8eeaa4dd500bac4eb9ec207853acaab389b8543639ae0",
  "parentHash": "0xe77bc8fd7fdc1f09ebb0af60f750e88befcde594f3243a6eea62b3ae4ed26eb3",
  "number": 88653,
  "timestamp": 1439611336,
  "nonce": "0x11161542620f6950",
  "difficulty": 3237906043790,
  "gasLimit": {
    "_hex": "0x2fefd8"
  },
  "gasUsed": {
    "_hex": "0xa410"
  },
  "miner": "0xeB1325C8D9d3ea8D74aC11F4B00F1B2367686319",
  "extraData": "0x476574682f76312e302e312f77696e646f77732f676f312e342e32",
  "transactions": [
    {
      "hash": "0x08ab423a9fe07e7f7adcb06ba23b369905d0417e4419e0a43b2991211aaab4a5",
      "blockHash": "0xb21fa793a3e7201f00a8eeaa4dd500bac4eb9ec207853acaab389b8543639ae0",
      "blockNumber": 88653,
      "transactionIndex": 0,
      "confirmations": null,
      "from": "0xC603Ab5ef41fC61AA8b76bEddb09e3Cfcbb174BD",
      "gasPrice": {
        "_hex": "0xcd1611a81"
      },
      "gasLimit": {
        "_hex": "0x15f90"
      },
      "to": "0x8F79f76381Aad7B98C19aF55eE75fdfEeb012211",
      "value": {
        "_hex": "0x393ef1a5127c80000"
      },
      "nonce": 20,
      "data": "0x",
      "r": "0x3096932f2bc0aae9c1868615664f71439d4e596afacba1df3b22d995dbea71df",
      "s": "0x0c2b5cb928648b01c74fc638ef90279951c93807ca990cdcefeb28712b8f669c",
      "v": 28,
      "creates": null,
      "raw": "0xf86e14850cd1611a8183015f90948f79f76381aad7b98c19af55ee75fdfeeb012211890393ef1a5127c80000801ca03096932f2bc0aae9c1868615664f71439d4e596afacba1df3b22d995dbea71dfa00c2b5cb928648b01c74fc638ef90279951c93807ca990cdcefeb28712b8f669c",
      "networkId": 0,
      "chainId": 0
    },
    {
      "hash": "0xe96386af7a1be747a60c1dd37f5f37d4d8ffc0a985027d9d05428380cf955dba",
      "blockHash": "0xb21fa793a3e7201f00a8eeaa4dd500bac4eb9ec207853acaab389b8543639ae0",
      "blockNumber": 88653,
      "transactionIndex": 1,
      "confirmations": null,
      "from": "0x120A270bbC009644e35F0bB6ab13f95b8199c4ad",
      "gasPrice": {
        "_hex": "0xcb1bdaa3c"
      },
      "gasLimit": {
        "_hex": "0x3d090"
      },
      "to": "0x53BFCE3f348BBcE29164602DB6C6557c73298a4c",
      "value": {
        "_hex": "0x8ac7230489e80000"
      },
      "nonce": 518,
      "data": "0x",
      "r": "0xa60d43ecfd1be8310ea5201edc88d266778afa41e3759850f078575bc2584a15",
      "s": "0x2f3aa98c8b77e8e1d3f05d48458bb828ca22604e98ab4504fc808a8569c752f2",
      "v": 27,
      "creates": null,
      "raw": "0xf86f820206850cb1bdaa3c8303d0909453bfce3f348bbce29164602db6c6557c73298a4c888ac7230489e80000801ba0a60d43ecfd1be8310ea5201edc88d266778afa41e3759850f078575bc2584a15a02f3aa98c8b77e8e1d3f05d48458bb828ca22604e98ab4504fc808a8569c752f2",
      "networkId": 0,
      "chainId": 0
    }
  ]
}