{
  "hash": "0xbc45132fcd36d5a6db2e19572fa640c68c909b8fdd640e18b94eb652b660efa0",
  "parentHash": "0xca32829e3bd24e9aba84faffbc9b8810e8a949645deb983a8356f3006cb36fc1",
  "number": 99494,
  "timestamp": 1439791096,
  "nonce": "0x47d97773da9f2f0e",
  "difficulty": 3786148768031,
  "gasLimit": {
    "_hex": "0x2fefd8"
  },
  "gasUsed": {
    "_hex": "0x5208"
  },
  "miner": "0xe6A7a1d47ff21B6321162AEA7C6CB457D5476Bca",
  "extraData": "0x476574682f76312e302e312d38326566323666362f6c696e75782f676f312e34",
  "transactions": [
    {
      "hash": "0xba22a3006c8b5c85948ec0cc577330cfd13df17bc79ded3c2757fc00cbef4ef1",
      "blockHash": "0xbc45132fcd36d5a6db2e19572fa640c68c909b8fdd640e18b94eb652b660efa0",
      "blockNumber": 99494,
      "transactionIndex": 0,
      "confirmations": null,
      "from": "0xFBb1b73C4f0BDa4f67dcA266ce6Ef42f520fBB98",
      "gasPrice": {
        "_hex": "0xd1f0b3193"
      },
      "gasLimit": {
        "_hex": "0x5208"
      },
      "to": "0x7246bC1603B6d03A536a04d0580414dB1FCcfFE8",
      "value": {
        "_hex": "0x14d1120d7b160000"
      },
      "nonce": 83,
      "data": "0x",
      "r": "0xcb9045b3acdad4cf2b71a3b3a1f9cc43580bc1516c10eb615a4a305480ccffe0",
      "s": "0x160e8e3c763d58f564693fbc0df847694aff77724048046b4ee6683b93dffcf0",
      "v": 27,
      "creates": null,
      "raw": "0xf86c53850d1f0b3193825208947246bc1603b6d03a536a04d0580414db1fccffe88814d1120d7b160000801ba0cb9045b3acdad4cf2b71a3b3a1f9cc43580bc1516c10eb615a4a305480ccffe0a0160e8e3c763d58f564693fbc0df847694aff77724048046b4ee6683b93dffcf0",
      "networkId": 0,
      "chainId": 0
    }
  ]
}