{
  "hash": "0x19b77f633f7d50ea19135c20ea9c4fd88d54e170e01a0875630ba859db3d0580",
  "parentHash": "0x84b28498a5448e1e16d7b0cdda548ecd9c4cd70a986b9dd3c5880c9f38a56945",
  "number": 69589,
  "timestamp": 1439306407,
  "nonce": "0xe00a31e7a645ab20",
  "difficulty": 2078999792491,
  "gasLimit": {
    "_hex": "0x2fefd8"
  },
  "gasUsed": {
    "_hex": "0xf61c"
  },
  "miner": "0xe6A7a1d47ff21B6321162AEA7C6CB457D5476Bca",
  "extraData": "0x476574682f76312e302e312d38326566323666362f6c696e75782f676f312e34",
  "transactions": [
    {
      "hash": "0xe35c42a68b957269a637739dcc012328f8d02e88c368febeefe3443151ed0eda",
      "blockHash": "0x19b77f633f7d50ea19135c20ea9c4fd88d54e170e01a0875630ba859db3d0580",
      "blockNumber": 69589,
      "transactionIndex": 0,
      "confirmations": null,
      "from": "0x32Be343B94f860124dC4fEe278FDCBD38C102D88",
      "gasPrice": {
        "_hex": "0xd6a945a71"
      },
      "gasLimit": {
        "_hex": "0x5208"
      },
      "to": "0x8dAF65AaB22cFaF831f3e95ac3F71e0D4F2f1ACB",
      "value": {
        "_hex": "0x11f0c9918b4f400"
      },
      "nonce": 235,
      "data": "0x",
      "r": "0x45e7154ff147913f4fcad20d11ab4fff1e4c8cf60b914de85e801598874f3836",
      "s": "0x4be9bc0c6cf296d94c999da40b626f7ed9f2d4ec67e452aebdcc6a57b105c60e",
      "v": 28,
      "creates": null,
      "raw": "0xf86d81eb850d6a945a71825208948daf65aab22cfaf831f3e95ac3f71e0d4f2f1acb88011f0c9918b4f400801ca045e7154ff147913f4fcad20d11ab4fff1e4c8cf60b914de85e801598874f3836a04be9bc0c6cf296d94c999da40b626f7ed9f2d4ec67e452aebdcc6a57b105c60e",
      "networkId": 0,
      "chainId": 0
    },
    {
      "hash": "0xcfbfcd3f7234437d6908ae586f1403467c3e141854609617a42f439260d6f1f6",
      "blockHash": "0x19b77f633f7d50ea19135c20ea9c4fd88d54e170e01a0875630ba859db3d0580",
      "blockNumber": 69589,
      "transactionIndex": 1,
      "confirmations": null,
      "from": "0xC432c9Acf2CD728b0f53AbDE2caa535c432bF36a",
      "gasPrice": {
        "_hex": "0xce670d5d6"
      },
      "gasLimit": {
        "_hex": "0x15f90"
      },
      "to": "0x01Ad0ACFf478127D9d702B1A13599D706cB759b1",
      "value": {
        "_hex": "0x4563918244f40000"
      },
      "nonce": 3,
      "data": "0x",
      "r": "0xdc88bdbb48022ab9ab89a8f5624f3146e18b52b0f02cf2562fbb8b2341666ff1",
      "s": "0x46c6d5ad28abffc9a51505e128e7e695483f430e1a95f8d704e1cbf2a8e74403",
      "v": 28,
      "creates": null,
      "raw": "0xf86d03850ce670d5d683015f909401ad0acff478127d9d702b1a13599d706cb759b1884563918244f40000801ca0dc88bdbb48022ab9ab89a8f5624f3146e18b52b0f02cf2562fbb8b2341666ff1a046c6d5ad28abffc9a51505e128e7e695483f430e1a95f8d704e1cbf2a8e74403",
      "networkId": 0,
      "chainId": 0
    },
    {
      "hash": "0x2d65728b430264f3f42d4da3ac81f87c508aa652ea0f43a863c4c0b02be56cef",
      "blockHash": "0x19b77f633f7d50ea19135c20ea9c4fd88d54e170e01a0875630ba859db3d0580",
      "blockNumber": 69589,
      "transactionIndex": 2,
      "confirmations": null,
      "from": "0x4E567864EC2EFAd2a2186806b9aFeeF0cAF9a427",
      "gasPrice": {
        "_hex": "0xccc73ae70"
      },
      "gasLimit": {
        "_hex": "0x55f0"
      },
      "to": "0x4E567864EC2EFAd2a2186806b9aFeeF0cAF9a427",
      "value": {
        "_hex": "0x1bc16d674ec80000"
      },
      "nonce": 5,
      "data": "0x00",
      "r": "0x67a47d007d52a89a3fb66d529b412f5e87e8dadbe0e9e0b3598cfaf0677645ae",
      "s": "0x1f0475559fe2f9a7b9d6d7a7d7bd5b48546c2d9a41f93c8f5f03f020a91c3336",
      "v": 27,
      "creates": null,
      "raw": "0xf86c05850ccc73ae708255f0944e567864ec2efad2a2186806b9afeef0caf9a427881bc16d674ec80000001ba067a47d007d52a89a3fb66d529b412f5e87e8dadbe0e9e0b3598cfaf0677645aea01f0475559fe2f9a7b9d6d7a7d7bd5b48546c2d9a41f93c8f5f03f020a91c3336",
      "networkId": 0,
      "chainId": 0
    }
  ]
}