{
  "hash": "0xac6e7009cb73caa20f4adf1e8f31ac967c4aab44f1db8b7c51f17665da9ac684",
  "parentHash": "0x906cb0458eabce38b5366430cf1937cb4e432b43ec569007e6162f75e3909011",
  "number": 82431,
  "timestamp": 1439519262,
  "nonce": "0x9ea2744a13ec60e0",
  "difficulty": 2372976551975,
  "gasLimit": {
    "_hex": "0x2fefd8"
  },
  "gasUsed": {
    "_hex": "0x5208"
  },
  "miner": "0x580992B51e3925e23280EfB93d3047C82f17E038",
  "extraData": "0x476574682f76312e302e312f6c696e75782f676f312e342e32",
  "transactions": [
    {
      "hash": "0x5d2e2b2aec4d75c0aa86c92b7f4c7cc00a617e59f1d4a1d831c4af70c18c0819",
      "blockHash": "0xac6e7009cb73caa20f4adf1e8f31ac967c4aab44f1db8b7c51f17665da9ac684",
      "blockNumber": 82431,
      "transactionIndex": 0,
      "confirmations": null,
      "from": "0x7548566f611b89EBfb57C547FeA0c293A2830aD2",
      "gasPrice": {
        "_hex": "0xcb0be343b"
      },
      "gasLimit": {
        "_hex": "0x5208"
      },
      "to": "0x32Be343B94f860124dC4fEe278FDCBD38C102D88",
      "value": {
        "_hex": "0x6120e322e8549000"
      },
      "nonce": 1,
      "data": "0x",
      "r": "0xf95ada28f8f174eed74c3b9f99dd1c87c97be5f16545fb5a74f33732efe49eb7",
      "s": "0x57ba37e221f1c0f07401afaa3a6bf152d0e206b8c522b2c779156ceb5bedf529",
      "v": 28,
      "creates": null,
      "raw": "0xf86c01850cb0be343b8252089432be343b94f860124dc4fee278fdcbd38c102d88886120e322e8549000801ca0f95ada28f8f174eed74c3b9f99dd1c87c97be5f16545fb5a74f33732efe49eb7a057ba37e221f1c0f07401afaa3a6bf152d0e206b8c522b2c779156ceb5bedf529",
      "networkId": 0,
      "chainId": 0
    }
  ]
}