{
  "hash": "0x3b1c1344a8f028089c8afa0679a507169acb5b8ad51e8b164f1d2d3236904c9a",
  "parentHash": "0x8ea32a9ff7638707b8b751cf4a2483ee45b68a1f01340af885398482ba387ceb",
  "number": 63484,
  "timestamp": 1439205290,
  "nonce": "0x7a29243e423ba731",
  "difficulty": 1833359045190,
  "gasLimit": {
    "_hex": "0x2fefd8"
  },
  "gasUsed": {
    "_hex": "0x11bcb"
  },
  "miner": "0xf927a40C8B7F6E07c5af7FA2155B4864a4112B13",
  "extraData": "0x476574682f76312e302e312f6c696e75782f676f312e342e32",
  "transactions": [
    {
      "hash": "0x626ae4cf29a49fc4372b8b585c0dd627000604f84914ae6bbd1c323ac86ce657",
      "blockHash": "0x3b1c1344a8f028089c8afa0679a507169acb5b8ad51e8b164f1d2d3236904c9a",
      "blockNumber": 63484,
      "transactionIndex": 0,
      "confirmations": null,
      "from": "0x29Ab575850dCEf127cd8D646fB3c208b3860C2F0",
      "gasPrice": {
        "_hex": "0xdcfea1679"
      },
      "gasLimit": {
        "_hex": "0x15f90"
      },
      "to": "0xA10CDF70bc138605c39F8651A78485Fe4F1C3811",
      "value": {
        "_hex": "0x23468dd8567230000"
      },
      "nonce": 2,
      "data": "0x",
      "r": "0x1dda869ec26e425e26d0c82eb99a084342cb3c3445f015ece5fbd7d22a7611c0",
      "s": "0x4a0e9fda704e68b2c87083881e8934ddb5c9fe54f64e6178f1119f77a86f556e",
      "v": 27,
      "creates": null,
      "raw": "0xf86e02850dcfea167983015f9094a10cdf70bc138605c39f8651a78485fe4f1c381189023468dd8567230000801ba01dda869ec26e425e26d0c82eb99a084342cb3c3445f015ece5fbd7d22a7611c0a04a0e9fda704e68b2c87083881e8934ddb5c9fe54f64e6178f1119f77a86f556e",
      "networkId": 0,
      "chainId": 0
    },
    {
      "hash": "0xd97fbc12a00fe7c5abc41aa482c01d9376de1df3838a77e19018f9f541346c58",
      "blockHash": "0x3b1c1344a8f028089c8afa0679a507169acb5b8ad51e8b164f1d2d3236904c9a",
      "blockNumber": 63484,
      "transactionIndex": 1,
      "confirmations": null,
      "from": "0x4705E331214F54eE19677a920BeB64e5206Fd610",
      "gasPrice": {
        "_hex": "0xd15aa5505"
      },
      "gasLimit": {
        "_hex": "0x7a120"
      },
      "to": "0xfBc128067A2FE13C11BBC6cc55f29AA1F27630DA",
      "value": {
        "_hex": "0xde0b6b3a7640000"
      },
      "nonce": 1,
      "data": "0x",
      "r": "0xdc3d7c650d891fe4600ee2f4e434097610dae49e95d05517e9469b3ff19ff47a",
      "s": "0x58eff7052ad9957466578add88ebfabb62646677130274f0c29b1e9fedb7a5d3",
      "v": 28,
      "creates": null,
      "raw": "0xf86d01850d15aa55058307a12094fbc128067a2fe13c11bbc6cc55f29aa1f27630da880de0b6b3a7640000801ca0dc3d7c650d891fe4600ee2f4e434097610dae49e95d05517e9469b3ff19ff47aa058eff7052ad9957466578add88ebfabb62646677130274f0c29b1e9fedb7a5d3",
      "networkId": 0,
      "chainId": 0
    }
  ]
}