{
  "hash": "0xb6a4ab056d3a139659306971a724f99b5b4ee40ce42e36cfa9b1f313afea48fa",
  "parentHash": "0x5a38d5db09a71eb2b24c63e6589965308b541fc584353cb810ec75dc9de6acfa",
  "number": 60021,
  "timestamp": 1439147725,
  "nonce": "0x32e98ff5f396ef7e",
  "difficulty": 1730580976332,
  "gasLimit": {
    "_hex": "0x2fefd8"
  },
  "gasUsed": {
    "_hex": "0xf618"
  },
  "miner": "0x1217627fe41A00f0b828317F43E6d58F47dBfc43",
  "extraData": "0x476574682f76312e302e302d66313265303136312f6c696e75782f676f312e34",
  "transactions": [
    {
      "hash": "0xab77ce7a20f82cb9d4cbd4f8a2f2cfec5b41fea90ceb692d4e4b40e85834a65a",
      "blockHash": "0xb6a4ab056d3a139659306971a724f99b5b4ee40ce42e36cfa9b1f313afea48fa",
      "blockNumber": 60021,
      "transactionIndex": 0,
      "confirmations": null,
      "from": "0x2910543Af39abA0Cd09dBb2D50200b3E800A63D2",
      "gasPrice": {
        "_hex": "0xe055b2ecd"
      },
      "gasLimit": {
        "_hex": "0x5208"
      },
      "to": "0xa577C0A78748B2600891DD16806a6823cB439316",
      "value": {
        "_hex": "0xee9abae04eeeb830"
      },
      "nonce": 2,
      "data": "0x",
      "r": "0xa640edb6c72a776759f04087b9775b8938adaa63b4fc8af42da26183f65346e3",
      "s": "0x1c36a67ac43ddfadda8f27a3b9f3f50d933e46a365faa349e3fb7e097dd56e85",
      "v": 28,
      "creates": null,
      "raw": "0xf86c02850e055b2ecd82520894a577c0a78748b2600891dd16806a6823cb43931688ee9abae04eeeb830801ca0a640edb6c72a776759f04087b9775b8938adaa63b4fc8af42da26183f65346e3a01c36a67ac43ddfadda8f27a3b9f3f50d933e46a365faa349e3fb7e097dd56e85",
      "networkId": 0,
      "chainId": 0
    },
    {
      "hash": "0xd8cc5eaa9f5f1f2ad9d6d388cec29db691a19cb07a212b55621cd951ea21e5a4",
      "blockHash": "0xb6a4ab056d3a139659306971a724f99b5b4ee40ce42e36cfa9b1f313afea48fa",
      "blockNumber": 60021,
      "transactionIndex": 1,
      "confirmations": null,
      "from": "0x2910543Af39abA0Cd09dBb2D50200b3E800A63D2",
      "gasPrice": {
        "_hex": "0xe055b2ecd"
      },
      "gasLimit": {
        "_hex": "0x5208"
      },
      "to": "0xBeb3B1d443791e4B2207a9866800E02DAcF19c02",
      "value": {
        "_hex": "0x8ab55f8b52078000"
      },
      "nonce": 3,
      "data": "0x",
      "r": "0xfa57cf38f18849f7a63576cfcaf3c514cf8a2bd0a18c53a1c1e8725f545c2562",
      "s": "0x5a68b0b3653f1e0a95b6bb99db05d16ba3cf40549c7b77d9f5f8b60994584187",
      "v": 27,
      "creates": null,
      "raw": "0xf86c03850e055b2ecd82520894beb3b1d443791e4b2207a9866800e02dacf19c02888ab55f8b52078000801ba0fa57cf38f18849f7a63576cfcaf3c514cf8a2bd0a18c53a1c1e8725f545c2562a05a68b0b3653f1e0a95b6bb99db05d16ba3cf40549c7b77d9f5f8b60994584187",
      "networkId": 0,
      "chainId": 0
    },
    {
      "hash": "0x675df4dfa3d2289e5a282d24c11ac1e4a110fc3836006ca1d026fad67937a018",
      "blockHash": "0xb6a4ab056d3a139659306971a724f99b5b4ee40ce42e36cfa9b1f313afea48fa",
      "blockNumber": 60021,
      "transactionIndex": 2,
      "confirmations": null,
      "from": "0x2910543Af39abA0Cd09dBb2D50200b3E800A63D2",
      "gasPrice": {
        "_hex": "0xe055b2ecd"
      },
      "gasLimit": {
        "_hex": "0x5208"
      },
      "to": "0xAA977A3542936031d6D16289441e1C32052Cb913",
      "value": {
        "_hex": "0x104344570ef14f8000"
      },
      "nonce": 4,
      "data": "0x",
      "r": "0xb04450095bf226a7f5b8aa266f025f333242a3f7a16ecd6e11bbec8126a2d9a6",
      "s": "0x3d761506e179f2d353b0f80ab89c6ede4c4fbf169b768548110e582bac5e9348",
      "v": 28,
      "creates": null,
      "raw": "0xf86d04850e055b2ecd82520894aa977a3542936031d6d16289441e1c32052cb91389104344570ef14f8000801ca0b04450095bf226a7f5b8aa266f025f333242a3f7a16ecd6e11bbec8126a2d9a6a03d761506e179f2d353b0f80ab89c6ede4c4fbf169b768548110e582bac5e9348",
      "networkId": 0,
      "chainId": 0
    }
  ]
}