{
  "hash": "0xca3dcfe683f3dace31bfd1029f5d2c5cfb3c232731195eb22a69c9a842a3e456",
  "parentHash": "0xaa14d6d8a792524780029b92c8343cc5ed68164068e318de4afcc42cdcce4b7c",
  "number": 54930,
  "timestamp": 1439062641,
  "nonce": "0x468c6637db5fed75",
  "difficulty": 1614846405021,
  "gasLimit": {
    "_hex": "0x2fefd8"
  },
  "gasUsed": {
    "_hex": "0x5208"
  },
  "miner": "0x9746c7e1ef2bd21FF3997fa467593a89cb852BD0",
  "extraData": "0x476574682f76312e302e312f77696e646f77732f676f312e342e32",
  "transactions": [
    {
      "hash": "0xdd55d4a61a84879c412bebe797be3d3f683f063313562f1453638eb5f13bca77",
      "blockHash": "0xca3dcfe683f3dace31bfd1029f5d2c5cfb3c232731195eb22a69c9a842a3e456",
      "blockNumber": 54930,
      "transactionIndex": 0,
      "confirmations": null,
      "from": "0x32Be343B94f860124dC4fEe278FDCBD38C102D88",
      "gasPrice": {
        "_hex": "0xdaf5fc142"
      },
      "gasLimit": {
        "_hex": "0x5208"
      },
      "to": "0x57158f5B5B35cDDC7Ac8FAB8E10C136FF7de587e",
      "value": {
        "_hex": "0x47786428bb2e3800"
      },
      "nonce": 62,
      "data": "0x",
      "r": "0xbea03fc29fdc1f4980e9c62b7cbf5e22ad5f0685fdc8278a49af7cfa4cc1afee",
      "s": "0x3e362f8d6d3c003e32b6e4e93dd4cf71dad43f9d50360f2485cf824d467c40cb",
      "v": 27,
      "creates": null,
      "raw": "0xf86c3e850daf5fc1428252089457158f5b5b35cddc7ac8fab8e10c136ff7de587e8847786428bb2e3800801ba0bea03fc29fdc1f4980e9c62b7cbf5e22ad5f0685fdc8278a49af7cfa4cc1afeea03e362f8d6d3c003e32b6e4e93dd4cf71dad43f9d50360f2485cf824d467c40cb",
      "networkId": 0,
      "chainId": 0
    }
  ]
}