{
  "hash": "0x13969386d9abeab1218cbfb65bac17319670451a712de684e88f721093a06bf3",
  "parentHash": "0x5b1ee72ec33d9adaff90ee7556f41fb8655961f3e6132f906dc03d95dae6507d",
  "number": 101404,
  "timestamp": 1439822524,
  "nonce": "0x132110c3272b986e",
  "difficulty": 3837394161922,
  "gasLimit": {
    "_hex": "0x2fefd8"
  },
  "gasUsed": {
    "_hex": "0x5208"
  },
  "miner": "0xe6A7a1d47ff21B6321162AEA7C6CB457D5476Bca",
  "extraData": "0x476574682f76312e302e312d38326566323666362f6c696e75782f676f312e34",
  "transactions": [
    {
      "hash": "0xf2ccd5c004d3b1aa3cf814626473adc752297d528b05e2e842851d14d8dee38a",
      "blockHash": "0x13969386d9abeab1218cbfb65bac17319670451a712de684e88f721093a06bf3",
      "blockNumber": 101404,
      "transactionIndex": 0,
      "confirmations": null,
      "from": "0x2910543Af39abA0Cd09dBb2D50200b3E800A63D2",
      "gasPrice": {
        "_hex": "0xcb2ad36f9"
      },
      "gasLimit": {
        "_hex": "0x5208"
      },
      "to": "0x707D7E3d6849a59f4B7dC0a51654605D1C4daEFe",
      "value": {
        "_hex": "0x1d7c6806303678000"
      },
      "nonce": 968,
      "data": "0x",
      "r": "0x0a0243a51791423bda97b29a5691609a715dbaa0e053c1fa73861727685d982e",
      "s": "0x39e77dca7772d03beadc4dfee2c87aff868f96befa8e22edd32fcce307ef2ef0",
      "v": 28,
      "creates": null,
      "raw": "0xf86f8203c8850cb2ad36f982520894707d7e3d6849a59f4b7dc0a51654605d1c4daefe8901d7c6806303678000801ca00a0243a51791423bda97b29a5691609a715dbaa0e053c1fa73861727685d982ea039e77dca7772d03beadc4dfee2c87aff868f96befa8e22edd32fcce307ef2ef0",
      "networkId": 0,
      "chainId": 0
    }
  ]
}