{
  "hash": "0x90643bcfad5cb834ea267666a01bd32b71f76ea111aa818aad764fffbfd5b270",
  "parentHash": "0x46d8d2cc94b37525cec0852fd35ef4935f7d1897d3aab076aa13ec5abcf68031",
  "number": 60925,
  "timestamp": 1439163811,
  "nonce": "0x380c512d488710f4",
  "difficulty": 1737167063046,
  "gasLimit": {
    "_hex": "0x2fefd8"
  },
  "gasUsed": {
    "_hex": "0xa410"
  },
  "miner": "0x5F8F73E26CdF436f19Cb24C82F90A15AFe55b592",
  "extraData": "0x476574682f76312e302e312f77696e646f77732f676f312e342e32",
  "transactions": [
    {
      "hash": "0x7cd893d4f1bad0d36cc7c3053e07c248fae87a62a53876cb57b0d283946aee9c",
      "blockHash": "0x90643bcfad5cb834ea267666a01bd32b71f76ea111aa818aad764fffbfd5b270",
      "blockNumber": 60925,
      "transactionIndex": 0,
      "confirmations": null,
      "from": "0x664B099B945b899AaC84DA69dd6D4eEb3D03c8a3",
      "gasPrice": {
        "_hex": "0x746a528800"
      },
      "gasLimit": {
        "_hex": "0x5267"
      },
      "to": "0x27e806e70622d2864e1B1f4426D72FFb0457C83a",
      "value": {
        "_hex": "0x4563918244f40000"
      },
      "nonce": 8,
      "data": "0x",
      "r": "0x9d35977162353b6f44937a6eb21bf1f94c7040407c5dc50492e0a88970395363",
      "s": "0x4ec19cd4fb5d3fa889310bb28354f7b198deceda69a64e63c9bc841376a2cdaa",
      "v": 27,
      "creates": null,
      "raw": "0xf86c0885746a5288008252679427e806e70622d2864e1b1f4426d72ffb0457c83a884563918244f40000801ba09d35977162353b6f44937a6eb21bf1f94c7040407c5dc50492e0a88970395363a04ec19cd4fb5d3fa889310bb28354f7b198deceda69a64e63c9bc841376a2cdaa",
      "networkId": 0,
      "chainId": 0
    },
    {
      "hash": "0x5af875dd7b2d64abffefd1a36b4b6ffee2832c7c85720534cc045cdf37e9f318",
      "blockHash": "0x90643bcfad5cb834ea267666a01bd32b71f76ea111aa818aad764fffbfd5b270",
      "blockNumber": 60925,
      "transactionIndex": 1,
      "confirmations": null,
      "from": "0xCd12F20c28FF2fFc4B0a00a4a1DA71749DDEa9fC",
      "gasPrice": {
        "_hex": "0xd594dcb84"
      },
      "gasLimit": {
        "_hex": "0x5208"
      },
      "to": "0x32Be343B94f860124dC4fEe278FDCBD38C102D88",
      "value": {
        "_hex": "0x4797c4a268e86800"
      },
      "nonce": 2,
      "data": "0x",
      "r": "0xd6dedb7c9c89126883555dd065b73e3336ea3a3f4a48e3853728c68cc24470fe",
      "s": "0x28166aad6251561bb471e4e22090ab4c7fcc2a66f07e85babe5e9bb6def5406e",
      "v": 28,
      "creates": null,
      "raw": "0xf86c02850d594dcb848252089432be343b94f860124dc4fee278fdcbd38c102d88884797c4a268e86800801ca0d6dedb7c9c89126883555dd065b73e3336ea3a3f4a48e3853728c68cc24470fea028166aad6251561bb471e4e22090ab4c7fcc2a66f07e85babe5e9bb6def5406e",
      "networkId": 0,
      "chainId": 0
    }
  ]
}