{
  "hash": "0x04a5ce7fcbfa1e2cc79e2a7338337c9ab61fd985f1bf7f84c72dd4e3676390ff",
  "parentHash": "0xf09e66ff96dbc1f0fea59bf2575a396309dd1236722c1cd66518dd9fa5295d3d",
  "number": 51721,
  "timestamp": 1439009732,
  "nonce": "0x3fb63ae165479ad4",
  "difficulty": 1552818404365,
  "gasLimit": {
    "_hex": "0xd482b"
  },
  "gasUsed": {
    "_hex": "0x7a120"
  },
  "miner": "0xbb7B8287f3F0a933474a79eAe42CBCa977791171",
  "extraData": "0x476574682f4c5649562f76312e302e312f6c696e75782f676f312e342e32",
  "transactions": [
    {
      "hash": "0x2fdcd394be7beeaa47895bc0ba25b28a073b6d83ae351904e4d9d7c28aa3349b",
      "blockHash": "0x04a5ce7fcbfa1e2cc79e2a7338337c9ab61fd985f1bf7f84c72dd4e3676390ff",
      "blockNumber": 51721,
      "transactionIndex": 0,
      "confirmations": null,
      "from": "0xcCF7110d1Bd9A74bfd1d7d7d2d9D55607E7B837d",
      "gasPrice": {
        "_hex": "0xcdd42bdaa"
      },
      "gasLimit": {
        "_hex": "0x7a120"
      },
      "to": "0x109C4f2CCc82C4d77Bde15F306707320294Aea3F",
      "value": {
        "_hex": "0xde0b6b3a7640000"
      },
      "nonce": 2,
      "data": "0x",
      "r": "0xaf443c935dc2a5d481c1c2f15b88c70074e9b96c003247bd2d021560874873a0",
      "s": "0x1e95dcc8f9ff2f96bf8912a1a2f7f8fdb42e29182251fcc4d6a88bd0737d7452",
      "v": 28,
      "creates": null,
      "raw": "0xf86d02850cdd42bdaa8307a12094109c4f2ccc82c4d77bde15f306707320294aea3f880de0b6b3a7640000801ca0af443c935dc2a5d481c1c2f15b88c70074e9b96c003247bd2d021560874873a0a01e95dcc8f9ff2f96bf8912a1a2f7f8fdb42e29182251fcc4d6a88bd0737d7452",
      "networkId": 0,
      "chainId": 0
    }
  ]
}