{
  "hash": "0x88fa54e5a9932d3f81cc84111b68ce8615c94a74b978d30e72b626d1b5c8b27e",
  "parentHash": "0x59b1b99e45e729a2cc62ba55c39f54c5011694237d17509c55ae7fdcb3585d7c",
  "number": 83761,
  "timestamp": 1439540508,
  "nonce": "0x85763033ce8b1932",
  "difficulty": 2438371259998,
  "gasLimit": {
    "_hex": "0x2fefd8"
  },
  "gasUsed": {
    "_hex": "0xa674"
  },
  "miner": "0xf927a40C8B7F6E07c5af7FA2155B4864a4112B13",
  "extraData": "0x",
  "transactions": [
    {
      "hash": "0x35b88742ae02327e33fed9b0ffc1a4c1dc05cfc10e7b9ab3b5a1ec51ef1e20f2",
      "blockHash": "0x88fa54e5a9932d3f81cc84111b68ce8615c94a74b978d30e72b626d1b5c8b27e",
      "blockNumber": 83761,
      "transactionIndex": 0,
      "confirmations": null,
      "from": "0x562bCed38aB2Ab6c080F3b0541b8456e70824b3f",
      "gasPrice": {
        "_hex": "0x110c8f7d8de"
      },
      "gasLimit": {
        "_hex": "0xc350"
      },
      "to": "0x2910543Af39abA0Cd09dBb2D50200b3E800A63D2",
      "value": {
        "_hex": "0x22c93cd72e40690000"
      },
      "nonce": 0,
      "data": "0x454e4e56514d373947",
      "r": "0x9995ced05cb3434ff3c1bb00cdcd90b959a05d984581bcd1feeccf7f0b90235f",
      "s": "0x30d208bdccfe50f73270a666f1d6858ceb2e725415db79b52dd28c48775d8b79",
      "v": 28,
      "creates": null,
      "raw": "0xf87780860110c8f7d8de82c350942910543af39aba0cd09dbb2d50200b3e800a63d28922c93cd72e4069000089454e4e56514d3739471ca09995ced05cb3434ff3c1bb00cdcd90b959a05d984581bcd1feeccf7f0b90235fa030d208bdccfe50f73270a666f1d6858ceb2e725415db79b52dd28c48775d8b79",
      "networkId": 0,
      "chainId": 0
    },
    {
      "hash": "0xa899cb09dc6c55fd51e3897f8832a0a466f6ba4638b5569e9d8e33d2848e5b6e",
      "blockHash": "0x88fa54e5a9932d3f81cc84111b68ce8615c94a74b978d30e72b626d1b5c8b27e",
      "blockNumber": 83761,
      "transactionIndex": 1,
      "confirmations": null,
      "from": "0xF2d2AfF1320476cb8C6b607199D23175cc595693",
      "gasPrice": {
        "_hex": "0xd795052c4"
      },
      "gasLimit": {
        "_hex": "0x15f90"
      },
      "to": "0xF5EeDc192aB70b08D8354384aD94efD095849E00",
      "value": {
        "_hex": "0x56bc75e2d63100000"
      },
      "nonce": 39,
      "data": "0x",
      "r": "0x0d5034611471b284d80ba6bf14c2929f355ffd66e4d068673c809156b12d494e",
      "s": "0x111df5d40ddcbb14a8bfd5ca36fcb7d0964a8edda1159a41d939f96caec6bfa2",
      "v": 27,
      "creates": null,
      "raw": "0xf86e27850d795052c483015f9094f5eedc192ab70b08d8354384ad94efd095849e0089056bc75e2d63100000801ba00d5034611471b284d80ba6bf14c2929f355ffd66e4d068673c809156b12d494ea0111df5d40ddcbb14a8bfd5ca36fcb7d0964a8edda1159a41d939f96caec6bfa2",
      "networkId": 0,
      "chainId": 0
    }
  ]
}