{
  "hash": "0x5bbdd3f14d914069b31be05c252b2ce4eac245700abaa3cf8f8fb6fd4c05997d",
  "parentHash": "0x6a53ea31995ba91d298229731011e29b1adee68e4035c2ab5bb61113fa4fbd49",
  "number": 122359,
  "timestamp": 1440192959,
  "nonce": "0xb56224f5c0c9595e",
  "difficulty": 4481735491335,
  "gasLimit": {
    "_hex": "0x2fefd8"
  },
  "gasUsed": {
    "_hex": "0xf87c"
  },
  "miner": "0x52bc44d5378309EE2abF1539BF71dE1b7d7bE3b5",
  "extraData": "0xd783010002844765746887676f312e342e32856c696e7578",
  "transactions": [
    {
      "hash": "0x0ce59b01208f56bb8dc7e984c901087683385f0b42076906f3b302db8b1f6169",
      "blockHash": "0x5bbdd3f14d914069b31be05c252b2ce4eac245700abaa3cf8f8fb6fd4c05997d",
      "blockNumber": 122359,
      "transactionIndex": 0,
      "confirmations": null,
      "from": "0xBDe8541989cF94E88cA73e2D46a8839414968F9B",
      "gasPrice": {
        "_hex": "0xddf7fc61a"
      },
      "gasLimit": {
        "_hex": "0x5208"
      },
      "to": "0x32Be343B94f860124dC4fEe278FDCBD38C102D88",
      "value": {
        "_hex": "0x6f0143998f4da800"
      },
      "nonce": 3,
      "data": "0x",
      "r": "0x21e13a42f8a6dd22644466613e0ef81963005ace788f49b1269b255466eee689",
      "s": "0x6652ef5d6daecdc02d6bf933b4f1db0ef2b0a696d504bc3c6ed2d294b323a889",
      "v": 27,
      "creates": null,
      "raw": "0xf86c03850ddf7fc61a8252089432be343b94f860124dc4fee278fdcbd38c102d88886f0143998f4da800801ba021e13a42f8a6dd22644466613e0ef81963005ace788f49b1269b255466eee689a06652ef5d6daecdc02d6bf933b4f1db0ef2b0a696d504bc3c6ed2d294b323a889",
      "networkId": 0,
      "chainId": 0
    },
    {
      "hash": "0x9482a58253fd7ca430f83e41936ab314ff963b66bb6c35fb8e81a4c7bd63497d",
      "blockHash": "0x5bbdd3f14d914069b31be05c252b2ce4eac245700abaa3cf8f8fb6fd4c05997d",
      "blockNumber": 122359,
      "transactionIndex": 1,
      "confirmations": null,
      "from": "0xb1abce2918E21ddb93AA452731a12672A3d9F75a",
      "gasPrice": {
        "_hex": "0xddf7fc61a"
      },
      "gasLimit": {
        "_hex": "0x5208"
      },
      "to": "0x32Be343B94f860124dC4fEe278FDCBD38C102D88",
      "value": {
        "_hex": "0x455f1f7e9921a800"
      },
      "nonce": 228,
      "data": "0x",
      "r": "0x89d0120d9e9075a19af81be37915c6ce89e5872e372b3ef32fecbba514077395",
      "s": "0x44eb4f288e935cf98a1934a2df609899edcd40b5594b96fecc4589a6fe03c26c",
      "v": 27,
      "creates": null,
      "raw": "0xf86d81e4850ddf7fc61a8252089432be343b94f860124dc4fee278fdcbd38c102d8888455f1f7e9921a800801ba089d0120d9e9075a19af81be37915c6ce89e5872e372b3ef32fecbba514077395a044eb4f288e935cf98a1934a2df609899edcd40b5594b96fecc4589a6fe03c26c",
      "networkId": 0,
      "chainId": 0
    },
    {
      "hash": "0x3aec43d41f8c9709b56b850c7b87bd911df5aac72f8943857b683fdda97732be",
      "blockHash": "0x5bbdd3f14d914069b31be05c252b2ce4eac245700abaa3cf8f8fb6fd4c05997d",
      "blockNumber": 122359,
      "transactionIndex": 2,
      "confirmations": null,
      "from": "0x796C24bD0325fc7d33BE618526173a8f4D5083Ce",
      "gasPrice": {
        "_hex": "0xba43b7400"
      },
      "gasLimit": {
        "_hex": "0x55f0"
      },
      "to": "0x2910543Af39abA0Cd09dBb2D50200b3E800A63D2",
      "value": {
        "_hex": "0x8aa39c121a270000"
      },
      "nonce": 0,
      "data": "0x454e423451384a3252",
      "r": "0x25f32f1408dd0ccfe2a2f18d53966a406cfe523af1efba89d9cd851a7c4ca94c",
      "s": "0x2334088620603921e7328082db20e1f2e66a661863f07bf02e098b558e450e04",
      "v": 28,
      "creates": null,
      "raw": "0xf87580850ba43b74008255f0942910543af39aba0cd09dbb2d50200b3e800a63d2888aa39c121a27000089454e423451384a32521ca025f32f1408dd0ccfe2a2f18d53966a406cfe523af1efba89d9cd851a7c4ca94ca02334088620603921e7328082db20e1f2e66a661863f07bf02e098b558e450e04",
      "networkId": 0,
      "chainId": 0
    }
  ]
}