{
  "hash": "0x2efe2501102fa5e8815e3aa4e43a48be63e79b21c035288b805fd9a0733e52a9",
  "parentHash": "0x3431b67ae2b40988079169db33a24922a37725b1f914d13146c160184c1baa5d",
  "number": 96273,
  "timestamp": 1439737698,
  "nonce": "0xfe4327975d05a1b3",
  "difficulty": 3680044054342,
  "gasLimit": {
    "_hex": "0x2fefd8"
  },
  "gasUsed": {
    "_hex": "0x5208"
  },
  "miner": "0xe6A7a1d47ff21B6321162AEA7C6CB457D5476Bca",
  "extraData": "0x476574682f76312e302e312d38326566323666362f6c696e75782f676f312e34",
  "transactions": [
    {
      "hash": "0xc66744c3ab66e2ae56f3199d011cf3848f48223ce836c422f5cb061cf96292d3",
      "blockHash": "0x2efe2501102fa5e8815e3aa4e43a48be63e79b21c035288b805fd9a0733e52a9",
      "blockNumber": 96273,
      "transactionIndex": 0,
      "confirmations": null,
      "from": "0x32Be343B94f860124dC4fEe278FDCBD38C102D88",
      "gasPrice": {
        "_hex": "0xd60e3d497"
      },
      "gasLimit": {
        "_hex": "0x5208"
      },
      "to": "0xef49D7Bf6cD9A01fA487f94d4e79A6be31F89a34",
      "value": {
        "_hex": "0x7cc2e55e72c30000"
      },
      "nonce": 999,
      "data": "0x",
      "r": "0x12134e88f8aded12ebe74e4f146e9ac90977d1c36b217ebbc11e9d4bb23c939a",
      "s": "0x3c9927124e9118b66d6737a7453ee6e74e4ff3d858dd4e35cb48e2a7390a9281",
      "v": 27,
      "creates": null,
      "raw": "0xf86e8203e7850d60e3d49782520894ef49d7bf6cd9a01fa487f94d4e79a6be31f89a34887cc2e55e72c30000801ba012134e88f8aded12ebe74e4f146e9ac90977d1c36b217ebbc11e9d4bb23c939aa03c9927124e9118b66d6737a7453ee6e74e4ff3d858dd4e35cb48e2a7390a9281",
      "networkId": 0,
      "chainId": 0
    }
  ]
}