{
  "hash": "0x8c05f500b0dba0285c5577d0587068e80c317b031775035f0ff481d7ecc09a29",
  "parentHash": "0xd607de7e97eb67274fb19a6837264d3469dd3e54ea319e83d73101ce53ceb48a",
  "number": 53760,
  "timestamp": 1439043072,
  "nonce": "0xc82020acd48e1f3e",
  "difficulty": 1594697412615,
  "gasLimit": {
    "_hex": "0x2fefd8"
  },
  "gasUsed": {
    "_hex": "0x546c"
  },
  "miner": "0xf927a40C8B7F6E07c5af7FA2155B4864a4112B13",
  "extraData": "0x476574682f76312e302e312f6c696e75782f676f312e342e32",
  "transactions": [
    {
      "hash": "0x077a126c5ad9e1d1c8dd49d84f78773ae29b20dcfbf698385b85fb69738257f0",
      "blockHash": "0x8c05f500b0dba0285c5577d0587068e80c317b031775035f0ff481d7ecc09a29",
      "blockNumber": 53760,
      "transactionIndex": 0,
      "confirmations": null,
      "from": "0x415D096aB06293183f3c033D25F6Cf7178aC3BC7",
      "gasPrice": {
        "_hex": "0x110c8f7d8de"
      },
      "gasLimit": {
        "_hex": "0xc350"
      },
      "to": "0x2910543Af39abA0Cd09dBb2D50200b3E800A63D2",
      "value": {
        "_hex": "0x21d3bd55e803c0000"
      },
      "nonce": 0,
      "data": "0x454e3838585a413338",
      "r": "0x7352d043f073c2dca254facddcb75ab68fbeb1ada389de4784cdf03ccb158ff9",
      "s": "0x7803192f1b711d2ca7f7d1a1d0a5075f89c9b77e788300ca96abaee6468c28b8",
      "v": 27,
      "creates": null,
      "raw": "0xf87780860110c8f7d8de82c350942910543af39aba0cd09dbb2d50200b3e800a63d289021d3bd55e803c000089454e3838585a4133381ba07352d043f073c2dca254facddcb75ab68fbeb1ada389de4784cdf03ccb158ff9a07803192f1b711d2ca7f7d1a1d0a5075f89c9b77e788300ca96abaee6468c28b8",
      "networkId": 0,
      "chainId": 0
    }
  ]
}