{
  "hash": "0xde69c22caced32053a424584037ab07c370dee7fa50daf9a71157cecbe241a87",
  "parentHash": "0xec46ee8db536b9bfe6c0721c9d98e231c9b4731acf60ae6e74f41645ad0354ac",
  "number": 116526,
  "timestamp": 1440088809,
  "nonce": "0x288fd925c301d6b4",
  "difficulty": 4562157058578,
  "gasLimit": {
    "_hex": "0x2ff2e3"
  },
  "gasUsed": {
    "_hex": "0x2221df"
  },
  "miner": "0x608f4b86321a68453f9adf6F06F7Fc3E621739ad",
  "extraData": "0xd783010002844765746887676f312e342e32856c696e7578",
  "transactions": [
    {
      "hash": "0x8435381e8d71fa91d48b4bca5c460482acf7045b1a26c01de6a766cdbe900fc0",
      "blockHash": "0xde69c22caced32053a424584037ab07c370dee7fa50daf9a71157cecbe241a87",
      "blockNumber": 116526,
      "transactionIndex": 0,
      "confirmations": null,
      "from": "0xC6A5D22D1DDd24B32a308bA4A49ec3cA38a2D0A6",
      "gasPrice": {
        "_hex": "0xe1bad97a9"
      },
      "gasLimit": {
        "_hex": "0x15f90"
      },
      "to": "0x047fF53dFE1F7BD2c3Ed2D1f777F35D1f64e9ffE",
      "value": {
        "_hex": "0x4f1a77ccd3ba0000"
      },
      "nonce": 2,
      "data": "0x",
      "r": "0x8faa27e386f626373444033767fecc9e4bdac49487f784bd247d8b13e78e4e8d",
      "s": "0x688f991c8a89f8037122c8633db49328368604e31c69657854c7d409391d6bb5",
      "v": 28,
      "creates": null,
      "raw": "0xf86d02850e1bad97a983015f9094047ff53dfe1f7bd2c3ed2d1f777f35d1f64e9ffe884f1a77ccd3ba0000801ca08faa27e386f626373444033767fecc9e4bdac49487f784bd247d8b13e78e4e8da0688f991c8a89f8037122c8633db49328368604e31c69657854c7d409391d6bb5",
      "networkId": 0,
      "chainId": 0
    },
    {
      "hash": "0x27e9e56dd5d59aa99bbd041bb002f589ad9abf8aa254c0964404c936138299ec",
      "blockHash": "0xde69c22caced32053a424584037ab07c370dee7fa50daf9a71157cecbe241a87",
      "blockNumber": 116526,
      "transactionIndex": 1,
      "confirmations": null,
      "from": "0x120A270bbC009644e35F0bB6ab13f95b8199c4ad",
      "gasPrice": {
        "_hex": "0xdfe42eb58"
      },
      "gasLimit": {
        "_hex": "0x3d090"
      },
      "to": "0xD3c6b518F1631509963232bA8e1882D3474a5838",
      "value": {
        "_hex": "0x1928817bfeaca53400"
      },
      "nonce": 943,
      "data": "0x",
      "r": "0xef7063d853b85192a0125e45eb5c64cb5ea7d8fd27bc0b9cc313f847f30dc9d0",
      "s": "0x036aa5c3d5e503f0d49e46806a374a53b3ea4749a6d17149cdf310ddc2632934",
      "v": 28,
      "creates": null,
      "raw": "0xf8708203af850dfe42eb588303d09094d3c6b518f1631509963232ba8e1882d3474a5838891928817bfeaca53400801ca0ef7063d853b85192a0125e45eb5c64cb5ea7d8fd27bc0b9cc313f847f30dc9d0a0036aa5c3d5e503f0d49e46806a374a53b3ea4749a6d17149cdf310ddc2632934",
      "networkId": 0,
      "chainId": 0
    },
    {
      "hash": "0x5cbc5123562a59e51bf60d86592e8642db81beb4c1958c172576b4391d032927",
      "blockHash": "0xde69c22caced32053a424584037ab07c370dee7fa50daf9a71157cecbe241a87",
      "blockNumber": 116526,
      "transactionIndex": 2,
      "confirmations": null,
      "from": "0x85987614170a7d08Fbae35c5bc179A0110d1fA2F",
      "gasPrice": {
        "_hex": "0xdec7a7292"
      },
      "gasLimit": {
        "_hex": "0x15f90"
      },
      "to": "0xe340fe5D4a4b3a905a34cAAB0be95f7177E24D3c",
      "value": {
        "_hex": "0x6f05b59d3b20000"
      },
      "nonce": 5,
      "data": "0x",
      "r": "0xec26e6b07e43546635fb4bcb8a519c18c148e2f65ebd48a65f6104eec6bf5172",
      "s": "0x47ea616ba49338dd99ea2868c71823eb3ab52ba4deaec96ba92b0a0745e6ebd4",
      "v": 28,
      "creates": null,
      "raw": "0xf86d05850dec7a729283015f9094e340fe5d4a4b3a905a34caab0be95f7177e24d3c8806f05b59d3b20000801ca0ec26e6b07e43546635fb4bcb8a519c18c148e2f65ebd48a65f6104eec6bf5172a047ea616ba49338dd99ea2868c71823eb3ab52ba4deaec96ba92b0a0745e6ebd4",
      "networkId": 0,
      "chainId": 0
    },
    {
      "hash": "0x985b6c03ac5fed49764e17857063a10271bc7e7712c2ed3dd122b89cdbfbfe1e",
      "blockHash": "0xde69c22caced32053a424584037ab07c370dee7fa50daf9a71157cecbe241a87",
      "blockNumber": 116526,
      "transactionIndex": 3,
      "confirmations": null,
      "from": "0xC876c021eCE519A8CB7D3d1b8EEa2D1cEE9929Ba",
      "gasPrice": {
        "_hex": "0xdb92457d1"
      },
      "gasLimit": {
        "_hex": "0xf4240"
      },
      "to": null,
      "value": {
        "_hex": "0x0"
      },
      "nonce": 10,
      "data": "0x60606040526040516101fd3803806101fd8339016040526060805160600190602001805190602001505b5b33600060006101000a81548173ffffffffffffffffffffffffffffffffffffffff021916908302179055505b80600160005081905550816002600050908051906020019082805482825590600052602060002090810192821560aa579160200282015b8281111560a9578251826000505591602001919060010190608d565b5b50905060d1919060b5565b8082111560cd576000818150600090555060010160b5565b5090565b50505b5050610118806100e56000396000f30060606040526000357c010000000000000000000000000000000000000000000000000000000090048063370158ea1461004457806341c0e1b51461006557610042565b005b61004f600450610106565b6040518082815260200191505060405180910390f35b610070600450610072565b005b600060009054906101000a900473ffffffffffffffffffffffffffffffffffffffff1673ffffffffffffffffffffffffffffffffffffffff163373ffffffffffffffffffffffffffffffffffffffff16141561010357600060009054906101000a900473ffffffffffffffffffffffffffffffffffffffff1673ffffffffffffffffffffffffffffffffffffffff16ff5b5b565b60006001600050549050610115565b9056",
      "r": "0x948e400e3da7e64e79688f94db24bca307af5ee3d5d375d5fa351deb694cac3d",
      "s": "0x5ac998d1b9e331d243b02d8f0ebc781868177d7721da288c7e2048372cbde043",
      "v": 28,
      "creates": "0x2945A11956a46EB63Fe5bb376738Ad75A2f4D0ED",
      "raw": "0xf902500a850db92457d1830f42408080b901fd60606040526040516101fd3803806101fd8339016040526060805160600190602001805190602001505b5b33600060006101000a81548173ffffffffffffffffffffffffffffffffffffffff021916908302179055505b80600160005081905550816002600050908051906020019082805482825590600052602060002090810192821560aa579160200282015b8281111560a9578251826000505591602001919060010190608d565b5b50905060d1919060b5565b8082111560cd576000818150600090555060010160b5565b5090565b50505b5050610118806100e56000396000f30060606040526000357c010000000000000000000000000000000000000000000000000000000090048063370158ea1461004457806341c0e1b51461006557610042565b005b61004f600450610106565b6040518082815260200191505060405180910390f35b610070600450610072565b005b600060009054906101000a900473ffffffffffffffffffffffffffffffffffffffff1673ffffffffffffffffffffffffffffffffffffffff163373ffffffffffffffffffffffffffffffffffffffff16141561010357600060009054906101000a900473ffffffffffffffffffffffffffffffffffffffff1673ffffffffffffffffffffffffffffffffffffffff16ff5b5b565b60006001600050549050610115565b90561ca0948e400e3da7e64e79688f94db24bca307af5ee3d5d375d5fa351deb694cac3da05ac998d1b9e331d243b02d8f0ebc781868177d7721da288c7e2048372cbde043",
      "networkId": 0,
      "chainId": 0
    },
    {
      "hash": "0x786160a09027809e7d9f3e82e38bf6e622ac684a1c9ac5f28de023433e0cf8d1",
      "blockHash": "0xde69c22caced32053a424584037ab07c370dee7fa50daf9a71157cecbe241a87",
      "blockNumber": 116526,
      "transactionIndex": 4,
      "confirmations": null,
      "from": "0x60f7C29656Fc491e766750556fE4F0E407f81eB5",
      "gasPrice": {
        "_hex": "0xdb46a379a"
      },
      "gasLimit": {
        "_hex": "0x15f90"
      },
      "to": "0x5773DFFDd4AD3114CAB6eFE3b9Ca703Fa450Fe40",
      "value": {
        "_hex": "0x16345785d8a0000"
      },
      "nonce": 12,
      "data": "0x",
      "r": "0x6841277f7ad27b0e4b5665fb97881e3da258e8221d2b3f6780abb4eef0988ccb",
      "s": "0x34053675d80ca581eae9e3b810c46c5de9fc3eccb9d7ca024e752f7b4dec371a",
      "v": 28,
      "creates": null,
      "raw": "0xf86d0c850db46a379a83015f90945773dffdd4ad3114cab6efe3b9ca703fa450fe4088016345785d8a0000801ca06841277f7ad27b0e4b5665fb97881e3da258e8221d2b3f6780abb4eef0988ccba034053675d80ca581eae9e3b810c46c5de9fc3eccb9d7ca024e752f7b4dec371a",
      "networkId": 0,
      "chainId": 0
    },
    {
      "hash": "0x49c98863e935ce59e46f01c07959d2cdb952436a437fd82b2d601600470306e6",
      "blockHash": "0xde69c22caced32053a424584037ab07c370dee7fa50daf9a71157cecbe241a87",
      "blockNumber": 116526,
      "transactionIndex": 5,
      "confirmations": null,
      "from": "0x32Be343B94f860124dC4fEe278FDCBD38C102D88",
      "gasPrice": {
        "_hex": "0xd9643a033"
      },
      "gasLimit": {
        "_hex": "0x5208"
      },
      "to": "0x3D31A7CdbF1B9952C1c4d567b97c54fc354E6A7B",
      "value": {
        "_hex": "0x1156abf16a40f0000"
      },
      "nonce": 1470,
      "data": "0x",
      "r": "0x0cd1e592a2fe7a7328a5d0ce98465be3dce1e19d8102a0cbf9c6c7a961aecc34",
      "s": "0x07c8b9b6d3139900f6b004713fce1590122c5a2170bc23100d24957e00b59a47",
      "v": 28,
      "creates": null,
      "raw": "0xf86f8205be850d9643a033825208943d31a7cdbf1b9952c1c4d567b97c54fc354e6a7b8901156abf16a40f0000801ca00cd1e592a2fe7a7328a5d0ce98465be3dce1e19d8102a0cbf9c6c7a961aecc34a007c8b9b6d3139900f6b004713fce1590122c5a2170bc23100d24957e00b59a47",
      "networkId": 0,
      "chainId": 0
    },
    {
      "hash": "0xdc98382431edda2157d273d855614b56ca4c629c8474490916fb18c4f6d46139",
      "blockHash": "0xde69c22caced32053a424584037ab07c370dee7fa50daf9a71157cecbe241a87",
      "blockNumber": 116526,
      "transactionIndex": 6,
      "confirmations": null,
      "from": "0x056507108FE6d30189EcCD6cd7F4Fad56eEef622",
      "gasPrice": {
        "_hex": "0xd8e2aa4a5"
      },
      "gasLimit": {
        "_hex": "0x15f90"
      },
      "to": "0x0cA19A53a3256482A89770FC1daFC7630717F201",
      "value": {
        "_hex": "0x1e553a232ca30ae3e"
      },
      "nonce": 30,
      "data": "0x",
      "r": "0x165590e00bf3f488375a43aaa75453f5d6bc169719cc019f0b9a89baa33b57ee",
      "s": "0x6e00c0a7e13ecc2ec5db5f611b7b8e3e87d70dff143b1921cff8383c7c893487",
      "v": 28,
      "creates": null,
      "raw": "0xf86e1e850d8e2aa4a583015f90940ca19a53a3256482a89770fc1dafc7630717f2018901e553a232ca30ae3e801ca0165590e00bf3f488375a43aaa75453f5d6bc169719cc019f0b9a89baa33b57eea06e00c0a7e13ecc2ec5db5f611b7b8e3e87d70dff143b1921cff8383c7c893487",
      "networkId": 0,
      "chainId": 0
    },
    {
      "hash": "0x62673e000826e8536dfb4aeafaa8830c5d172cb34bba77b9093d5a2298d08867",
      "blockHash": "0xde69c22caced32053a424584037ab07c370dee7fa50daf9a71157cecbe241a87",
      "blockNumber": 116526,
      "transactionIndex": 7,
      "confirmations": null,
      "from": "0xED5fc0A526e8a986166d7486F815bE1253320104",
      "gasPrice": {
        "_hex": "0xd860dca37"
      },
      "gasLimit": {
        "_hex": "0x15f90"
      },
      "to": "0x5F47Ce7D9e58D9aCd9B684C5A6CbCfA0aC12478b",
      "value": {
        "_hex": "0x278d3be669dd0000"
      },
      "nonce": 2,
      "data": "0x",
      "r": "0x85a7c22cb4ef0cc4b66892144759e4dd1a6862491adc85264a9974d29a01dd44",
      "s": "0x4b343633cea1dc2a10730bfcbeac4b18b20bced10cf8a8060f90a6de68cde209",
      "v": 28,
      "creates": null,
      "raw": "0xf86d02850d860dca3783015f90945f47ce7d9e58d9acd9b684c5a6cbcfa0ac12478b88278d3be669dd0000801ca085a7c22cb4ef0cc4b66892144759e4dd1a6862491adc85264a9974d29a01dd44a04b343633cea1dc2a10730bfcbeac4b18b20bced10cf8a8060f90a6de68cde209",
      "networkId": 0,
      "chainId": 0
    },
    {
      "hash": "0x6b2ad76bcbe64421a4e562e76cd569582497b087f32ade781bc9378fbc056a01",
      "blockHash": "0xde69c22caced32053a424584037ab07c370dee7fa50daf9a71157cecbe241a87",
      "blockNumber": 116526,
      "transactionIndex": 8,
      "confirmations": null,
      "from": "0x2561d06bcc264cb07D32663B326f510d61E48f4c",
      "gasPrice": {
        "_hex": "0xd7d40ace3"
      },
      "gasLimit": {
        "_hex": "0x15f90"
      },
      "to": "0x6aaa90577344a6D5B9FdC9eeafA7B706796D0c34",
      "value": {
        "_hex": "0x55005f0c614480000"
      },
      "nonce": 1,
      "data": "0x",
      "r": "0x0ba0f00bd31bf60f072b24eeba6646dd151b8cc4b30634a2190bd36bd07820eb",
      "s": "0x3f9a4f445bfd812e833acd5899619f5bbc9f21fd1b0d72b268a02bef709c066e",
      "v": 27,
      "creates": null,
      "raw": "0xf86e01850d7d40ace383015f90946aaa90577344a6d5b9fdc9eeafa7b706796d0c3489055005f0c614480000801ba00ba0f00bd31bf60f072b24eeba6646dd151b8cc4b30634a2190bd36bd07820eba03f9a4f445bfd812e833acd5899619f5bbc9f21fd1b0d72b268a02bef709c066e",
      "networkId": 0,
      "chainId": 0
    },
    {
      "hash": "0xe9e558e4301dbdc778e10e3e45f57034d68dde60f88197107647e04b68a25039",
      "blockHash": "0xde69c22caced32053a424584037ab07c370dee7fa50daf9a71157cecbe241a87",
      "blockNumber": 116526,
      "transactionIndex": 9,
      "confirmations": null,
      "from": "0xC47Aaa860008be6f65B58c6C6E02a84e666EfE31",
      "gasPrice": {
        "_hex": "0xd6c35ad0e"
      },
      "gasLimit": {
        "_hex": "0x15f90"
      },
      "to": "0x4ed586a68C396F1756D842f9Cf705e43bfD16EC3",
      "value": {
        "_hex": "0x2086a8a791ad99dc5f"
      },
      "nonce": 119,
      "data": "0x",
      "r": "0x15e4ab1db806732a552ed97e50d7f34e2293e4c113434225753def8ef57e5be6",
      "s": "0x1fc4418f54c9085dd61cbfaaf1d5dbfea5ca3b564d21e43267d57ee9e2ddff9a",
      "v": 27,
      "creates": null,
      "raw": "0xf86e77850d6c35ad0e83015f90944ed586a68c396f1756d842f9cf705e43bfd16ec3892086a8a791ad99dc5f801ba015e4ab1db806732a552ed97e50d7f34e2293e4c113434225753def8ef57e5be6a01fc4418f54c9085dd61cbfaaf1d5dbfea5ca3b564d21e43267d57ee9e2ddff9a",
      "networkId": 0,
      "chainId": 0
    },
    {
      "hash": "0x8fe967ae29c9e5935c31bf0e58f9dc69671b1443e51917b2101cc3b162fa4341",
      "blockHash": "0xde69c22caced32053a424584037ab07c370dee7fa50daf9a71157cecbe241a87",
      "blockNumber": 116526,
      "transactionIndex": 10,
      "confirmations": null,
      "from": "0xC47Aaa860008be6f65B58c6C6E02a84e666EfE31",
      "gasPrice": {
        "_hex": "0xd5049a7c7"
      },
      "gasLimit": {
        "_hex": "0x15f90"
      },
      "to": "0x4ed586a68C396F1756D842f9Cf705e43bfD16EC3",
      "value": {
        "_hex": "0x36c353ce3c7ed4d1eb"
      },
      "nonce": 120,
      "data": "0x",
      "r": "0xe14dcbeb540ce9b1aac3dcae362fb806b4acde9a6b3f5e7673e6147a74dd55c7",
      "s": "0x209ed1a9422559ab12c00358e237b259d05d50135df4368bb120217966f92f35",
      "v": 27,
      "creates": null,
      "raw": "0xf86e78850d5049a7c783015f90944ed586a68c396f1756d842f9cf705e43bfd16ec38936c353ce3c7ed4d1eb801ba0e14dcbeb540ce9b1aac3dcae362fb806b4acde9a6b3f5e7673e6147a74dd55c7a0209ed1a9422559ab12c00358e237b259d05d50135df4368bb120217966f92f35",
      "networkId": 0,
      "chainId": 0
    },
    {
      "hash": "0x322c8e599a387a90169e070d8694e34f19582e996a3ffcd46ce4a8b2ec0143be",
      "blockHash": "0xde69c22caced32053a424584037ab07c370dee7fa50daf9a71157cecbe241a87",
      "blockNumber": 116526,
      "transactionIndex": 11,
      "confirmations": null,
      "from": "0x32Be343B94f860124dC4fEe278FDCBD38C102D88",
      "gasPrice": {
        "_hex": "0xd19f1d63f"
      },
      "gasLimit": {
        "_hex": "0x5208"
      },
      "to": "0x3D31A7CdbF1B9952C1c4d567b97c54fc354E6A7B",
      "value": {
        "_hex": "0x1156abf16a40f0000"
      },
      "nonce": 1471,
      "data": "0x",
      "r": "0x51c9ab518088f7261fad29756ae235066ad4b8b4321e67a43d0f46e26a05a54d",
      "s": "0x1e13043a8cb594551be6be18a2dd457d588ce5c3671b027840c978df11360f5e",
      "v": 27,
      "creates": null,
      "raw": "0xf86f8205bf850d19f1d63f825208943d31a7cdbf1b9952c1c4d567b97c54fc354e6a7b8901156abf16a40f0000801ba051c9ab518088f7261fad29756ae235066ad4b8b4321e67a43d0f46e26a05a54da01e13043a8cb594551be6be18a2dd457d588ce5c3671b027840c978df11360f5e",
      "networkId": 0,
      "chainId": 0
    },
    {
      "hash": "0xdd6a4a1f0e3a3db023a6915c9f66fc6db1acb4253e25054edabf6989ca8e4db8",
      "blockHash": "0xde69c22caced32053a424584037ab07c370dee7fa50daf9a71157cecbe241a87",
      "blockNumber": 116526,
      "transactionIndex": 12,
      "confirmations": null,
      "from": "0x60a175bB691fEE8557a7b6D8eFC9E49889486f41",
      "gasPrice": {
        "_hex": "0xd02c2b7c3"
      },
      "gasLimit": {
        "_hex": "0x15f90"
      },
      "to": "0x67a8Acb3621e0683EC4eeb0be82BE8cf344d97c6",
      "value": {
        "_hex": "0x8ac7230489e80000"
      },
      "nonce": 18,
      "data": "0x",
      "r": "0x1971e5a00fe64910c66e006b4157f7bc9b3ba4224e4ad71759248b22c0b2d1f9",
      "s": "0x37ba894e273e15d861856fef21019b000cc55a6f8d56db666559a9837b60ebb1",
      "v": 28,
      "creates": null,
      "raw": "0xf86d12850d02c2b7c383015f909467a8acb3621e0683ec4eeb0be82be8cf344d97c6888ac7230489e80000801ca01971e5a00fe64910c66e006b4157f7bc9b3ba4224e4ad71759248b22c0b2d1f9a037ba894e273e15d861856fef21019b000cc55a6f8d56db666559a9837b60ebb1",
      "networkId": 0,
      "chainId": 0
    },
    {
      "hash": "0x20138b5c98715fbc06ff894a8c4fca69fd97a15977c999d736403c5be64035c2",
      "blockHash": "0xde69c22caced32053a424584037ab07c370dee7fa50daf9a71157cecbe241a87",
      "blockNumber": 116526,
      "transactionIndex": 13,
      "confirmations": null,
      "from": "0x120A270bbC009644e35F0bB6ab13f95b8199c4ad",
      "gasPrice": {
        "_hex": "0xcf0b7d3d4"
      },
      "gasLimit": {
        "_hex": "0x3d090"
      },
      "to": "0x80a2A362F7328959F956E06121ae770b07144F5F",
      "value": {
        "_hex": "0x22521828388b861000"
      },
      "nonce": 944,
      "data": "0x",
      "r": "0xf34210db6552a7586f7227ab309444a7fea892b9aff62a85726a39be22440936",
      "s": "0x14752ec48429737d450bb1fa61ccf02ce15b8691ef50be13727c9058450f7942",
      "v": 28,
      "creates": null,
      "raw": "0xf8708203b0850cf0b7d3d48303d0909480a2a362f7328959f956e06121ae770b07144f5f8922521828388b861000801ca0f34210db6552a7586f7227ab309444a7fea892b9aff62a85726a39be22440936a014752ec48429737d450bb1fa61ccf02ce15b8691ef50be13727c9058450f7942",
      "networkId": 0,
      "chainId": 0
    },
    {
      "hash": "0x46cfac082cc2cebdb36384c0388715d4eed8026d93aad31a5737641296739c43",
      "blockHash": "0xde69c22caced32053a424584037ab07c370dee7fa50daf9a71157cecbe241a87",
      "blockNumber": 116526,
      "transactionIndex": 14,
      "confirmations": null,
      "from": "0x85987614170a7d08Fbae35c5bc179A0110d1fA2F",
      "gasPrice": {
        "_hex": "0xcf0406b2f"
      },
      "gasLimit": {
        "_hex": "0x15f90"
      },
      "to": "0x9b0a028EAfDeCdE3AFc0fD00B7937098388b7C8a",
      "value": {
        "_hex": "0x6f05b59d3b20000"
      },
      "nonce": 6,
      "data": "0x",
      "r": "0xb6136027db9c512ecbf3be818bd34cc7cc20703435155ac1a39af6bef14123c9",
      "s": "0x0414ca90876624c83196a53e6964764bf95fc72b2634675579034689cb817dd9",
      "v": 27,
      "creates": null,
      "raw": "0xf86d06850cf0406b2f83015f90949b0a028eafdecde3afc0fd00b7937098388b7c8a8806f05b59d3b20000801ba0b6136027db9c512ecbf3be818bd34cc7cc20703435155ac1a39af6bef14123c9a00414ca90876624c83196a53e6964764bf95fc72b2634675579034689cb817dd9",
      "networkId": 0,
      "chainId": 0
    },
    {
      "hash": "0xde71edf66cb907a3fd0d16d1c3dc4cc73f3877bd89a59a1e2a400bb5814d1636",
      "blockHash": "0xde69c22caced32053a424584037ab07c370dee7fa50daf9a71157cecbe241a87",
      "blockNumber": 116526,
      "transactionIndex": 15,
      "confirmations": null,
      "from": "0x2910543Af39abA0Cd09dBb2D50200b3E800A63D2",
      "gasPrice": {
        "_hex": "0xce03e58a1"
      },
      "gasLimit": {
        "_hex": "0x5208"
      },
      "to": "0x419bdE7316CC1Ed295c885aCe342C79bf7Ee33eA",
      "value": {
        "_hex": "0xd62131448791178000"
      },
      "nonce": 1138,
      "data": "0x",
      "r": "0x4efef5848bd9b440b370a5415ef695ee769682ba7e2cfaf2e2fcad0e8f0b10d7",
      "s": "0x3fcfc2afd5f57ccb364827dd52c2c00812d20ec116c7babd4c4b6f8439b0b0b1",
      "v": 27,
      "creates": null,
      "raw": "0xf86f820472850ce03e58a182520894419bde7316cc1ed295c885ace342c79bf7ee33ea89d62131448791178000801ba04efef5848bd9b440b370a5415ef695ee769682ba7e2cfaf2e2fcad0e8f0b10d7a03fcfc2afd5f57ccb364827dd52c2c00812d20ec116c7babd4c4b6f8439b0b0b1",
      "networkId": 0,
      "chainId": 0
    },
    {
      "hash": "0x94a40df264dc0ba4f68d7ab8d501ebfd79fb456fc51bc07efb996f14f171914f",
      "blockHash": "0xde69c22caced32053a424584037ab07c370dee7fa50daf9a71157cecbe241a87",
      "blockNumber": 116526,
      "transactionIndex": 16,
      "confirmations": null,
      "from": "0xB1a2B43A7433dd150BB82227eD519Cd6b142d382",
      "gasPrice": {
        "_hex": "0xba43b7400"
      },
      "gasLimit": {
        "_hex": "0x422a4"
      },
      "to": "0x2c785Fa15498FE27F1FC5F809BcD9c10C9481752",
      "value": {
        "_hex": "0x0"
      },
      "nonce": 14,
      "data": "0xb61d27f60000000000000000000000009b22a80d5c7b3374a05b446081f97d0a34079e7f00000000000000000000000000000000000000000000000018fae27693b40000000000000000000000000000000000000000000000000000000000000000006000000000000000000000000000000000000000000000000000000000000000000000000000000000000000000000000000000000000000000000000000000000",
      "r": "0x696e474a7c34dbf1b73e9202fd06c65f7962a6b61206e572bc9cb4edcf6a79cd",
      "s": "0x1c0945682c9a072d27298b1c5cc79a25b396b7d8d0451d596aed3643069ac37f",
      "v": 28,
      "creates": null,
      "raw": "0xf9010a0e850ba43b7400830422a4942c785fa15498fe27f1fc5f809bcd9c10c948175280b8a4b61d27f60000000000000000000000009b22a80d5c7b3374a05b446081f97d0a34079e7f00000000000000000000000000000000000000000000000018fae27693b400000000000000000000000000000000000000000000000000000000000000000060000000000000000000000000000000000000000000000000000000000000000000000000000000000000000000000000000000000000000000000000000000001ca0696e474a7c34dbf1b73e9202fd06c65f7962a6b61206e572bc9cb4edcf6a79cda01c0945682c9a072d27298b1c5cc79a25b396b7d8d0451d596aed3643069ac37f",
      "networkId": 0,
      "chainId": 0
    },
    {
      "hash": "0xcca123f76d828a78a74b240dc464a57d561fd21b08c4bab2f670f05c49fca620",
      "blockHash": "0xde69c22caced32053a424584037ab07c370dee7fa50daf9a71157cecbe241a87",
      "blockNumber": 116526,
      "transactionIndex": 17,
      "confirmations": null,
      "from": "0xC272293AD54739bF7aAdd8924Aa3d712D672Eed1",
      "gasPrice": {
        "_hex": "0xba43b7400"
      },
      "gasLimit": {
        "_hex": "0x15f90"
      },
      "to": "0xA616A0Fd1E5b6A0c9d2F72C30A3fBB4ef6730a4F",
      "value": {
        "_hex": "0xcd7f84b2088d4000"
      },
      "nonce": 5,
      "data": "0x",
      "r": "0x5684e0bb890b4842b17e180768c5b005cdc046d3a38b548561064fe6bd68f1c5",
      "s": "0x408a6daf6649037d0e6757cbf4615b0d3773fc3c55d7bdeaaf892d9fb7748682",
      "v": 28,
      "creates": null,
      "raw": "0xf86d05850ba43b740083015f9094a616a0fd1e5b6a0c9d2f72c30a3fbb4ef6730a4f88cd7f84b2088d4000801ca05684e0bb890b4842b17e180768c5b005cdc046d3a38b548561064fe6bd68f1c5a0408a6daf6649037d0e6757cbf4615b0d3773fc3c55d7bdeaaf892d9fb7748682",
      "networkId": 0,
      "chainId": 0
    },
    {
      "hash": "0xb3d3bc7525fbeecef09f4856cd841128a7645563777e1eb48931e97f9a85b5f4",
      "blockHash": "0xde69c22caced32053a424584037ab07c370dee7fa50daf9a71157cecbe241a87",
      "blockNumber": 116526,
      "transactionIndex": 18,
      "confirmations": null,
      "from": "0xC272293AD54739bF7aAdd8924Aa3d712D672Eed1",
      "gasPrice": {
        "_hex": "0xba43b7400"
      },
      "gasLimit": {
        "_hex": "0x15f90"
      },
      "to": "0xA616A0Fd1E5b6A0c9d2F72C30A3fBB4ef6730a4F",
      "value": {
        "_hex": "0x881bf32fc3994000"
      },
      "nonce": 6,
      "data": "0x",
      "r": "0x590a2de9b239d9a5fb2560dd22c3870b0c26dc2d14c639755ea77a2dfec3f45c",
      "s": "0x5d82aed7bbe0f44581bebee35de3daed350189013b460d894659ef286c413a11",
      "v": 28,
      "creates": null,
      "raw": "0xf86d06850ba43b740083015f9094a616a0fd1e5b6a0c9d2f72c30a3fbb4ef6730a4f88881bf32fc3994000801ca0590a2de9b239d9a5fb2560dd22c3870b0c26dc2d14c639755ea77a2dfec3f45ca05d82aed7bbe0f44581bebee35de3daed350189013b460d894659ef286c413a11",
      "networkId": 0,
      "chainId": 0
    },
    {
      "hash": "0x9aa4e29c716c3e95ead3905e3476cc48f766dec80b32cf1e4d150277e04fac9a",
      "blockHash": "0xde69c22caced32053a424584037ab07c370dee7fa50daf9a71157cecbe241a87",
      "blockNumber": 116526,
      "transactionIndex": 19,
      "confirmations": null,
      "from": "0x9b22a80D5c7B3374a05b446081f97d0A34079e7F",
      "gasPrice": {
        "_hex": "0xba43b7400"
      },
      "gasLimit": {
        "_hex": "0x201d39"
      },
      "to": "0x2c785Fa15498FE27F1FC5F809BcD9c10C9481752",
      "value": {
        "_hex": "0x0"
      },
      "nonce": 5,
      "data": "0x797af62749e82cb85fe910f1fb34f292cfe1c507d80bb681e019c043712c5f48db9b835e",
      "r": "0x17ce938348514d895188daa192e89c2593232afb79edb621a0854dd627f72b0c",
      "s": "0x625098ac329ffeeed2e687e5a86a91206f95c70020828bddb6cca60d099adb45",
      "v": 28,
      "creates": null,
      "raw": "0xf88905850ba43b740083201d39942c785fa15498fe27f1fc5f809bcd9c10c948175280a4797af62749e82cb85fe910f1fb34f292cfe1c507d80bb681e019c043712c5f48db9b835e1ca017ce938348514d895188daa192e89c2593232afb79edb621a0854dd627f72b0ca0625098ac329ffeeed2e687e5a86a91206f95c70020828bddb6cca60d099adb45",
      "networkId": 0,
      "chainId": 0
    },
    {
      "hash": "0x4a89721401aaeff6d2a128d341f22aad55641e1025f017db09145a653f6ed7e3",
      "blockHash": "0xde69c22caced32053a424584037ab07c370dee7fa50daf9a71157cecbe241a87",
      "blockNumber": 116526,
      "transactionIndex": 20,
      "confirmations": null,
      "from": "0xB1a2B43A7433dd150BB82227eD519Cd6b142d382",
      "gasPrice": {
        "_hex": "0xba43b7400"
      },
      "gasLimit": {
        "_hex": "0x25a94"
      },
      "to": "0x2c785Fa15498FE27F1FC5F809BcD9c10C9481752",
      "value": {
        "_hex": "0x0"
      },
      "nonce": 15,
      "data": "0xb61d27f60000000000000000000000009b22a80d5c7b3374a05b446081f97d0a34079e7f0000000000000000000000000000000000000000000000000c7d713b49da0000000000000000000000000000000000000000000000000000000000000000006000000000000000000000000000000000000000000000000000000000000000000000000000000000000000000000000000000000000000000000000000000000",
      "r": "0xe5ab1389d153b85cfd48ae03634c709d2f50f47b4d089a9834080eb7295063a2",
      "s": "0x438c43c88acff857d8b73f10964e0c104e7707379553d84b922a53afc51ed7bb",
      "v": 27,
      "creates": null,
      "raw": "0xf9010a0f850ba43b740083025a94942c785fa15498fe27f1fc5f809bcd9c10c948175280b8a4b61d27f60000000000000000000000009b22a80d5c7b3374a05b446081f97d0a34079e7f0000000000000000000000000000000000000000000000000c7d713b49da00000000000000000000000000000000000000000000000000000000000000000060000000000000000000000000000000000000000000000000000000000000000000000000000000000000000000000000000000000000000000000000000000001ba0e5ab1389d153b85cfd48ae03634c709d2f50f47b4d089a9834080eb7295063a2a0438c43c88acff857d8b73f10964e0c104e7707379553d84b922a53afc51ed7bb",
      "networkId": 0,
      "chainId": 0
    },
    {
      "hash": "0x3010140fbe38c0af0cc1020a82f4c1cac76f5cbb34abb90f6f480572e10dc7b8",
      "blockHash": "0xde69c22caced32053a424584037ab07c370dee7fa50daf9a71157cecbe241a87",
      "blockNumber": 116526,
      "transactionIndex": 21,
      "confirmations": null,
      "from": "0xB1a2B43A7433dd150BB82227eD519Cd6b142d382",
      "gasPrice": {
        "_hex": "0xba43b7400"
      },
      "gasLimit": {
        "_hex": "0x1e8480"
      },
      "to": null,
      "value": {
        "_hex": "0x0"
      },
      "nonce": 16,
      "data": "0x60606040526002610108600050556040516110e53803806110e583398101604052805160805160a051919092019190808383815160019081018155600090600160a060020a0332169060029060038390559183525061010260205260408220555b82518110156100eb57828181518110156100025790602001906020020151600160a060020a03166002600050826002016101008110156100025790900160005081905550806002016101026000506000858481518110156100025790602001906020020151600160a060020a0316815260200190815260200160002060005081905550600101610060565b81600060005081905550505050806101056000508190555061010f62015180420490565b6101075550505050610fbf806101266000396000f300606060405236156100da5760e060020a6000350463173825d9811461012c5780632f54bf6e146101875780634123cb6b146101af57806352375093146101b857806354fd4d50146101c25780635c52c2f5146101cc578063659010e7146101fd5780637065cb4814610207578063746c91711461023b578063797af62714610244578063b20d30a914610257578063b61d27f61461028b578063b75c7dc6146102ac578063ba51a6df146102db578063c2cf73261461030f578063cbf0b0c01461034d578063f00d4b5d14610381578063f1736d86146103ba575b6103c4600034111561012a5760408051600160a060020a033216815234602082015281517fe1fffcc4923d04b559f4d29a8bfc6cda04eb5b0d3c460751c2402c5c5cc9109c929181900390910190a15b565b6103c46004356000600036436040518084848082843750505090910190815260405190819003602001902090506106c9815b600160a060020a03321660009081526101026020526040812054818082811415610c3f57610d97565b6103c66004355b600160a060020a03811660009081526101026020526040812054115b919050565b6103c660015481565b6103c66101075481565b6103c66101085481565b6103c46000364360405180848480828437505050909101908152604051908190036020019020905061081a8161015e565b6103c66101065481565b6103c4600435600036436040518084848082843750505090910190815260405190819003602001902090506106418161015e565b6103c660005481565b6103c66004355b600081610a7d8161015e565b6103c46004356000364360405180848480828437505050909101908152604051908190036020019020905061080e8161015e565b6103c66004803590602480359160443591820191013560006108393261018e565b6103c4600435600160a060020a033216600090815261010260205260408120549080828114156103d857610457565b6103c4600435600036436040518084848082843750505090910190815260405190819003602001902090506107888161015e565b6103c6600435602435600082815261010360209081526040808320600160a060020a038516845261010290925282205482818114156107e157610805565b6103c4600435600036436040518084848082843750505090910190815260405190819003602001902090506108288161015e565b6103c46004356024356000600036436040518084848082843750505090910190815260405190819003602001902090506104e28161015e565b6103c66101055481565b005b60408051918252519081900360200190f35b50506000828152610103602052604081206001810154600284900a9290831611156104575780546001828101805492909101835590839003905560408051600160a060020a03321681526020810186905281517fc7fb647e59b18047309aa15aad418e5d7ca96d173ad704f1031a2c3d7591734b929181900390910190a15b50505050565b600160a060020a03831660028361010081101561000257508301819055600160a060020a03851660008181526101026020908152604080832083905584835291829020869055815192835282019290925281517fb532073b38c83145e3e5135377a08bf9aab55bc0fd7c1179cd4fb995d2a5159c929181900390910190a1505b505050565b15610457576104f08361018e565b156104fb57506104dd565b600160a060020a03841660009081526101026020526040812054925082141561052457506104dd565b61045d5b6101045460005b81811015610ee457610104805461010991600091849081101561000257600080516020610f9f83398151915201548252506020918252604081208054600160a060020a0319168155600181018290556002810180548382559083528383209193610f6992601f9290920104810190610a65565b60018054810190819055600160a060020a038316906002906101008110156100025790900160005081905550600160005054610102600050600084600160a060020a03168152602001908152602001600020600050819055507f994a936646fe87ffe4f1e469d3d6aa417d6b855598397f323de5b449f765f0c3826040518082600160a060020a0316815260200191505060405180910390a15b505b50565b1561063c5761064f8261018e565b1561065a575061063e565b610662610528565b60015460fa90106106775761067561068c565b505b60015460fa90106105a2575061063e565b6107465b600060015b600154811015610a79575b600154811080156106bc5750600281610100811015610002570154600014155b15610d9f5760010161069c565b156104dd57600160a060020a0383166000908152610102602052604081205492508214156106f7575061063c565b6001600160005054036000600050541115610712575061063c565b600060028361010081101561000257508301819055600160a060020a03841681526101026020526040812055610688610528565b5060408051600160a060020a038516815290517f58619076adf5bb0943d100ef88d52d7c3fd691b19d3a9071b555b651fbf418da9181900360200190a1505050565b1561063c5760015482111561079d575061063e565b60008290556107aa610528565b6040805183815290517facbdb084c721332ac59f9b8e392196c9eb0e4932862da8eb9beaf0dad4f550da9181900360200190a15050565b506001820154600282900a908116600014156108005760009350610805565b600193505b50505092915050565b1561063c575061010555565b1561063e5760006101065550565b1561063c5781600160a060020a0316ff5b15610a555761084d846000610e793261018e565b15610909577f92ca3a80853e6663fa31fa10b99225f18d4902939b4c53a9caae9043f6efd00432858786866040518086600160a060020a0316815260200185815260200184600160a060020a031681526020018060200182810382528484828181526020019250808284378201915050965050505050505060405180910390a184600160a060020a03168484846040518083838082843750505090810191506000908083038185876185025a03f15060009350610a5592505050565b6000364360405180848480828437505050909101908152604051908190036020019020915061093990508161024b565b15801561095c575060008181526101096020526040812054600160a060020a0316145b15610a555760008181526101096020908152604082208054600160a060020a03191688178155600181018790556002018054858255818452928290209092601f01919091048101908490868215610a5d579182015b82811115610a5d5782358260005055916020019190600101906109b1565b50507f1733cbb53659d713b79580f79f3f9ff215f78a7c7aa45890f3b89fc5cddfbf328132868887876040518087815260200186600160a060020a0316815260200185815260200184600160a060020a03168152602001806020018281038252848482818152602001925080828437820191505097505050505050505060405180910390a15b949350505050565b506109cf9291505b80821115610a795760008155600101610a65565b5090565b15610c2c5760008381526101096020526040812054600160a060020a031614610c2c5760408051600091909120805460018201546002929092018054600160a060020a0392909216939091819083908015610afd57820191906000526020600020905b815481529060010190602001808311610ae057829003601f168201915b505091505060006040518083038185876185025a03f150505060008481526101096020908152604080519281902080546001820154600160a060020a033281811688529587018b905293860181905292166060850181905260a06080860181815260029390930180549187018290527fe7c957c06e9a662c1a6c77366179f5b702b97651dc28eee7d5bf1dff6e40bb4a975094958a959293909160c083019084908015610bcf57820191906000526020600020905b815481529060010190602001808311610bb257829003601f168201915b5050965050505050505060405180910390a160008381526101096020908152604082208054600160a060020a031916815560018101839055600281018054848255908452828420919392610c3292601f9290920104810190610a65565b50919050565b50505060019150506101aa565b60008581526101036020526040812080549093501415610cc7576000805483556001838101919091556101048054918201808255828015829011610c9657818360005260206000209182019101610c969190610a65565b50505060028301819055610104805487929081101561000257600091909152600080516020610f9f83398151915201555b506001810154600283900a90811660001415610d975760408051600160a060020a03321681526020810187905281517fe1c52dc63b719ade82e8bea94cc41a0d5d28e4aaf536adb5e9cccc9ff8c1aeda929181900390910190a1815460019011610d84576000858152610103602052604090206002015461010480549091908110156100025760406000908120600080516020610f9f8339815191529290920181905580825560018083018290556002909201559450610d979050565b8154600019018255600182018054821790555b505050919050565b5b60018054118015610dc257506001546002906101008110156100025701546000145b15610dd65760018054600019019055610da0565b60015481108015610df95750600154600290610100811015610002570154600014155b8015610e1357506002816101008110156100025701546000145b15610e7457600154600290610100811015610002578101549082610100811015610002578101919091558190610102906000908361010081101561000257810154825260209290925260408120929092556001546101008110156100025701555b610691565b156101aa5761010754610e8f5b62015180420490565b1115610ea857600061010655610ea3610e86565b610107555b6101065480830110801590610ec65750610106546101055490830111155b15610edc575061010680548201905560016101aa565b5060006101aa565b61063c6101045460005b81811015610f745761010480548290811015610002576000918252600080516020610f9f833981519152015414610f6157610104805461010391600091849081101561000257600080516020610f9f83398151915201548252506020919091526040812081815560018101829055600201555b600101610eee565b50505060010161052f565b61010480546000808355919091526104dd90600080516020610f9f83398151915290810190610a6556004c0be60200faa20559308cb7b5a1bb3255c16cb1cab91f525b5ae7a03d02fabe",
      "r": "0x6c57f40a2a6e49b3a8d97a6dc7cb49823d6b667bfbf623e312f57ea15af1e8d7",
      "s": "0x3aeee4683fffbd354e67a518e7d93adc2bce2ef0a95b5f75590c80101fb5c0ce",
      "v": 27,
      "creates": "0x273930d21e01eE25e4c219b63259d214872220a2",
      "raw": "0xf9113810850ba43b7400831e84808080b910e560606040526002610108600050556040516110e53803806110e583398101604052805160805160a051919092019190808383815160019081018155600090600160a060020a0332169060029060038390559183525061010260205260408220555b82518110156100eb57828181518110156100025790602001906020020151600160a060020a03166002600050826002016101008110156100025790900160005081905550806002016101026000506000858481518110156100025790602001906020020151600160a060020a0316815260200190815260200160002060005081905550600101610060565b81600060005081905550505050806101056000508190555061010f62015180420490565b6101075550505050610fbf806101266000396000f300606060405236156100da5760e060020a6000350463173825d9811461012c5780632f54bf6e146101875780634123cb6b146101af57806352375093146101b857806354fd4d50146101c25780635c52c2f5146101cc578063659010e7146101fd5780637065cb4814610207578063746c91711461023b578063797af62714610244578063b20d30a914610257578063b61d27f61461028b578063b75c7dc6146102ac578063ba51a6df146102db578063c2cf73261461030f578063cbf0b0c01461034d578063f00d4b5d14610381578063f1736d86146103ba575b6103c4600034111561012a5760408051600160a060020a033216815234602082015281517fe1fffcc4923d04b559f4d29a8bfc6cda04eb5b0d3c460751c2402c5c5cc9109c929181900390910190a15b565b6103c46004356000600036436040518084848082843750505090910190815260405190819003602001902090506106c9815b600160a060020a03321660009081526101026020526040812054818082811415610c3f57610d97565b6103c66004355b600160a060020a03811660009081526101026020526040812054115b919050565b6103c660015481565b6103c66101075481565b6103c66101085481565b6103c46000364360405180848480828437505050909101908152604051908190036020019020905061081a8161015e565b6103c66101065481565b6103c4600435600036436040518084848082843750505090910190815260405190819003602001902090506106418161015e565b6103c660005481565b6103c66004355b600081610a7d8161015e565b6103c46004356000364360405180848480828437505050909101908152604051908190036020019020905061080e8161015e565b6103c66004803590602480359160443591820191013560006108393261018e565b6103c4600435600160a060020a033216600090815261010260205260408120549080828114156103d857610457565b6103c4600435600036436040518084848082843750505090910190815260405190819003602001902090506107888161015e565b6103c6600435602435600082815261010360209081526040808320600160a060020a038516845261010290925282205482818114156107e157610805565b6103c4600435600036436040518084848082843750505090910190815260405190819003602001902090506108288161015e565b6103c46004356024356000600036436040518084848082843750505090910190815260405190819003602001902090506104e28161015e565b6103c66101055481565b005b60408051918252519081900360200190f35b50506000828152610103602052604081206001810154600284900a9290831611156104575780546001828101805492909101835590839003905560408051600160a060020a03321681526020810186905281517fc7fb647e59b18047309aa15aad418e5d7ca96d173ad704f1031a2c3d7591734b929181900390910190a15b50505050565b600160a060020a03831660028361010081101561000257508301819055600160a060020a03851660008181526101026020908152604080832083905584835291829020869055815192835282019290925281517fb532073b38c83145e3e5135377a08bf9aab55bc0fd7c1179cd4fb995d2a5159c929181900390910190a1505b505050565b15610457576104f08361018e565b156104fb57506104dd565b600160a060020a03841660009081526101026020526040812054925082141561052457506104dd565b61045d5b6101045460005b81811015610ee457610104805461010991600091849081101561000257600080516020610f9f83398151915201548252506020918252604081208054600160a060020a0319168155600181018290556002810180548382559083528383209193610f6992601f9290920104810190610a65565b60018054810190819055600160a060020a038316906002906101008110156100025790900160005081905550600160005054610102600050600084600160a060020a03168152602001908152602001600020600050819055507f994a936646fe87ffe4f1e469d3d6aa417d6b855598397f323de5b449f765f0c3826040518082600160a060020a0316815260200191505060405180910390a15b505b50565b1561063c5761064f8261018e565b1561065a575061063e565b610662610528565b60015460fa90106106775761067561068c565b505b60015460fa90106105a2575061063e565b6107465b600060015b600154811015610a79575b600154811080156106bc5750600281610100811015610002570154600014155b15610d9f5760010161069c565b156104dd57600160a060020a0383166000908152610102602052604081205492508214156106f7575061063c565b6001600160005054036000600050541115610712575061063c565b600060028361010081101561000257508301819055600160a060020a03841681526101026020526040812055610688610528565b5060408051600160a060020a038516815290517f58619076adf5bb0943d100ef88d52d7c3fd691b19d3a9071b555b651fbf418da9181900360200190a1505050565b1561063c5760015482111561079d575061063e565b60008290556107aa610528565b6040805183815290517facbdb084c721332ac59f9b8e392196c9eb0e4932862da8eb9beaf0dad4f550da9181900360200190a15050565b506001820154600282900a908116600014156108005760009350610805565b600193505b50505092915050565b1561063c575061010555565b1561063e5760006101065550565b1561063c5781600160a060020a0316ff5b15610a555761084d846000610e793261018e565b15610909577f92ca3a80853e6663fa31fa10b99225f18d4902939b4c53a9caae9043f6efd00432858786866040518086600160a060020a0316815260200185815260200184600160a060020a031681526020018060200182810382528484828181526020019250808284378201915050965050505050505060405180910390a184600160a060020a03168484846040518083838082843750505090810191506000908083038185876185025a03f15060009350610a5592505050565b6000364360405180848480828437505050909101908152604051908190036020019020915061093990508161024b565b15801561095c575060008181526101096020526040812054600160a060020a0316145b15610a555760008181526101096020908152604082208054600160a060020a03191688178155600181018790556002018054858255818452928290209092601f01919091048101908490868215610a5d579182015b82811115610a5d5782358260005055916020019190600101906109b1565b50507f1733cbb53659d713b79580f79f3f9ff215f78a7c7aa45890f3b89fc5cddfbf328132868887876040518087815260200186600160a060020a0316815260200185815260200184600160a060020a03168152602001806020018281038252848482818152602001925080828437820191505097505050505050505060405180910390a15b949350505050565b506109cf9291505b80821115610a795760008155600101610a65565b5090565b15610c2c5760008381526101096020526040812054600160a060020a031614610c2c5760408051600091909120805460018201546002929092018054600160a060020a0392909216939091819083908015610afd57820191906000526020600020905b815481529060010190602001808311610ae057829003601f168201915b505091505060006040518083038185876185025a03f150505060008481526101096020908152604080519281902080546001820154600160a060020a033281811688529587018b905293860181905292166060850181905260a06080860181815260029390930180549187018290527fe7c957c06e9a662c1a6c77366179f5b702b97651dc28eee7d5bf1dff6e40bb4a975094958a959293909160c083019084908015610bcf57820191906000526020600020905b815481529060010190602001808311610bb257829003601f168201915b5050965050505050505060405180910390a160008381526101096020908152604082208054600160a060020a031916815560018101839055600281018054848255908452828420919392610c3292601f9290920104810190610a65565b50919050565b50505060019150506101aa565b60008581526101036020526040812080549093501415610cc7576000805483556001838101919091556101048054918201808255828015829011610c9657818360005260206000209182019101610c969190610a65565b50505060028301819055610104805487929081101561000257600091909152600080516020610f9f83398151915201555b506001810154600283900a90811660001415610d975760408051600160a060020a03321681526020810187905281517fe1c52dc63b719ade82e8bea94cc41a0d5d28e4aaf536adb5e9cccc9ff8c1aeda929181900390910190a1815460019011610d84576000858152610103602052604090206002015461010480549091908110156100025760406000908120600080516020610f9f8339815191529290920181905580825560018083018290556002909201559450610d979050565b8154600019018255600182018054821790555b505050919050565b5b60018054118015610dc257506001546002906101008110156100025701546000145b15610dd65760018054600019019055610da0565b60015481108015610df95750600154600290610100811015610002570154600014155b8015610e1357506002816101008110156100025701546000145b15610e7457600154600290610100811015610002578101549082610100811015610002578101919091558190610102906000908361010081101561000257810154825260209290925260408120929092556001546101008110156100025701555b610691565b156101aa5761010754610e8f5b62015180420490565b1115610ea857600061010655610ea3610e86565b610107555b6101065480830110801590610ec65750610106546101055490830111155b15610edc575061010680548201905560016101aa565b5060006101aa565b61063c6101045460005b81811015610f745761010480548290811015610002576000918252600080516020610f9f833981519152015414610f6157610104805461010391600091849081101561000257600080516020610f9f83398151915201548252506020919091526040812081815560018101829055600201555b600101610eee565b50505060010161052f565b61010480546000808355919091526104dd90600080516020610f9f83398151915290810190610a6556004c0be60200faa20559308cb7b5a1bb3255c16cb1cab91f525b5ae7a03d02fabe1ba06c57f40a2a6e49b3a8d97a6dc7cb49823d6b667bfbf623e312f57ea15af1e8d7a03aeee4683fffbd354e67a518e7d93adc2bce2ef0a95b5f75590c80101fb5c0ce",
      "networkId": 0,
      "chainId": 0
    },
    {
      "hash": "0x535fe48ecbae4b7d98555e18c478621e8bcbeec4893594263611489ab9a9f268",
      "blockHash": "0xde69c22caced32053a424584037ab07c370dee7fa50daf9a71157cecbe241a87",
      "blockNumber": 116526,
      "transactionIndex": 22,
      "confirmations": null,
      "from": "0xB1a2B43A7433dd150BB82227eD519Cd6b142d382",
      "gasPrice": {
        "_hex": "0xa954d522e"
      },
      "gasLimit": {
        "_hex": "0x422a4"
      },
      "to": "0x2c785Fa15498FE27F1FC5F809BcD9c10C9481752",
      "value": {
        "_hex": "0x0"
      },
      "nonce": 17,
      "data": "0xb61d27f60000000000000000000000009b22a80d5c7b3374a05b446081f97d0a34079e7f000000000000000000000000000000000000000000000000120a871cc0020000000000000000000000000000000000000000000000000000000000000000006000000000000000000000000000000000000000000000000000000000000000000000000000000000000000000000000000000000000000000000000000000000",
      "r": "0x7449d62f3b7fab9affc57349f3b87b5e7d9eb4c8fc710b7b2c5cbac51a215e1c",
      "s": "0x365f8f66db7c013e919e3dd79158032e5f4a445524ed43d863a5e11a1bd02c52",
      "v": 27,
      "creates": null,
      "raw": "0xf9010a11850a954d522e830422a4942c785fa15498fe27f1fc5f809bcd9c10c948175280b8a4b61d27f60000000000000000000000009b22a80d5c7b3374a05b446081f97d0a34079e7f000000000000000000000000000000000000000000000000120a871cc00200000000000000000000000000000000000000000000000000000000000000000060000000000000000000000000000000000000000000000000000000000000000000000000000000000000000000000000000000000000000000000000000000001ba07449d62f3b7fab9affc57349f3b87b5e7d9eb4c8fc710b7b2c5cbac51a215e1ca0365f8f66db7c013e919e3dd79158032e5f4a445524ed43d863a5e11a1bd02c52",
      "networkId": 0,
      "chainId": 0
    }
  ]
}