{
  "hash": "0xb87449a1958afa6b21dbe556cfab96b1379c41b2df6271c1127abc53c5acbec8",
  "parentHash": "0x40ab9d5013261826187a67dbbea98150c377771d3f12f920320d5b510de09618",
  "number": 47370,
  "timestamp": 1438939062,
  "nonce": "0x58b3ccd26261ab18",
  "difficulty": 1453094976630,
  "gasLimit": {
    "_hex": "0xb62b"
  },
  "gasUsed": {
    "_hex": "0x5208"
  },
  "miner": "0x5B40711F65053004dc86F296Dd8F09862E00998F",
  "extraData": "0x476574682f76312e302e312d38326566323666362f6c696e75782f676f312e34",
  "transactions": [
    {
      "hash": "0xae6e530e74ca9148964640d685dd111bbf623d7fdc30b1d403d50e8a9a2d90bf",
      "blockHash": "0xb87449a1958afa6b21dbe556cfab96b1379c41b2df6271c1127abc53c5acbec8",
      "blockNumber": 47370,
      "transactionIndex": 0,
      "confirmations": null,
      "from": "0x655Ce0C27E77D78C7e3e89F09EA6dfa394610b5f",
      "gasPrice": {
        "_hex": "0x19c49602c4"
      },
      "gasLimit": {
        "_hex": "0x5208"
      },
      "to": "0x32Be343B94f860124dC4fEe278FDCBD38C102D88",
      "value": {
        "_hex": "0x2d19cc455aefd4000"
      },
      "nonce": 0,
      "data": "0x",
      "r": "0x500f019a58fda5be34a8c8e89ab1de009833028cb6529ac81b2a7ccccdf955ae",
      "s": "0x2853d7144d5449c750bebca1478cd9e43d716ea8160d534cab69dd4f94e863e7",
      "v": 27,
      "creates": null,
      "raw": "0xf86d808519c49602c48252089432be343b94f860124dc4fee278fdcbd38c102d888902d19cc455aefd4000801ba0500f019a58fda5be34a8c8e89ab1de009833028cb6529ac81b2a7ccccdf955aea02853d7144d5449c750bebca1478cd9e43d716ea8160d534cab69dd4f94e863e7",
      "networkId": 0,
      "chainId": 0
    }
  ]
}