{
  "hash": "0x5a1f770029d585e354c1ff7f4f238ec72afba0fce87a37467e7946d66634d665",
  "parentHash": "0xeb562abeb3e7d6e6c24aaf98401ec2ab3d821f2fa819ea4c0361edd933c95267",
  "number": 102691,
  "timestamp": 1439841679,
  "nonce": "0x34f64c37f13c8a36",
  "difficulty": 4050495961484,
  "gasLimit": {
    "_hex": "0x2fefd8"
  },
  "gasUsed": {
    "_hex": "0x5208"
  },
  "miner": "0xe6A7a1d47ff21B6321162AEA7C6CB457D5476Bca",
  "extraData": "0x476574682f76312e302e312d38326566323666362f6c696e75782f676f312e34",
  "transactions": [
    {
      "hash": "0xde06922f567863edfd7a8bec52d54fad58f2c93b5c96030befa4fd173395a42b",
      "blockHash": "0x5a1f770029d585e354c1ff7f4f238ec72afba0fce87a37467e7946d66634d665",
      "blockNumber": 102691,
      "transactionIndex": 0,
      "confirmations": null,
      "from": "0xaB7668Bea763e384bD4aEf98D771f70Db28FFbD4",
      "gasPrice": {
        "_hex": "0xd1e2d13e3"
      },
      "gasLimit": {
        "_hex": "0x5208"
      },
      "to": "0x32Be343B94f860124dC4fEe278FDCBD38C102D88",
      "value": {
        "_hex": "0x56bc32a197b8cc000"
      },
      "nonce": 0,
      "data": "0x",
      "r": "0x5277d3a0d9d3ebd13fd05ffc14e84eb625514d3e189e97665e8c5d611a31585e",
      "s": "0x4396db2a37315514919b0ec9c1703a721e56d69c130e4a5467180469c1b4f0dc",
      "v": 27,
      "creates": null,
      "raw": "0xf86d80850d1e2d13e38252089432be343b94f860124dc4fee278fdcbd38c102d8889056bc32a197b8cc000801ba05277d3a0d9d3ebd13fd05ffc14e84eb625514d3e189e97665e8c5d611a31585ea04396db2a37315514919b0ec9c1703a721e56d69c130e4a5467180469c1b4f0dc",
      "networkId": 0,
      "chainId": 0
    }
  ]
}