{
  "hash": "0xddb29a5562c2b4bc7df0be1ad6e5f57c5ec77fe353d37f662832d8ea9e8b96f9",
  "parentHash": "0x6671f7c0d49f5476e2dd63b52c3eb14c95131ad005200868c3666280331209d3",
  "number": 108369,
  "timestamp": 1439939133,
  "nonce": "0x83d60f3e0dd40583",
  "difficulty": 4342607475003,
  "gasLimit": {
    "_hex": "0x2fefd8"
  },
  "gasUsed": {
    "_hex": "0xa410"
  },
  "miner": "0xe6A7a1d47ff21B6321162AEA7C6CB457D5476Bca",
  "extraData": "0x476574682f76312e302e312d38326566323666362f6c696e75782f676f312e34",
  "transactions": [
    {
      "hash": "0xf83638852d141c5509c397601f06fbd28309c54a0998fd1205b6012f0843599f",
      "blockHash": "0xddb29a5562c2b4bc7df0be1ad6e5f57c5ec77fe353d37f662832d8ea9e8b96f9",
      "blockNumber": 108369,
      "transactionIndex": 0,
      "confirmations": null,
      "from": "0x3a4CC071e426cFFbA54C267391e401e820a5E472",
      "gasPrice": {
        "_hex": "0xd0aacd4f1"
      },
      "gasLimit": {
        "_hex": "0x5208"
      },
      "to": "0x32Be343B94f860124dC4fEe278FDCBD38C102D88",
      "value": {
        "_hex": "0x3c5bdb33a424400"
      },
      "nonce": 0,
      "data": "0x",
      "r": "0x73d1ffd5ca112a27f9db053d8d65b47d6334efa4847de770261eb98ffdc9a732",
      "s": "0x587002d68a38add7165448c71712d88bcdf7c1843ef585e399ad4ba260ab3a5d",
      "v": 28,
      "creates": null,
      "raw": "0xf86c80850d0aacd4f18252089432be343b94f860124dc4fee278fdcbd38c102d888803c5bdb33a424400801ca073d1ffd5ca112a27f9db053d8d65b47d6334efa4847de770261eb98ffdc9a732a0587002d68a38add7165448c71712d88bcdf7c1843ef585e399ad4ba260ab3a5d",
      "networkId": 0,
      "chainId": 0
    },
    {
      "hash": "0x27593083aab30bb64d978afdcbfb9e3b061970cbfd49deb4d65e3e2ba4409039",
      "blockHash": "0xddb29a5562c2b4bc7df0be1ad6e5f57c5ec77fe353d37f662832d8ea9e8b96f9",
      "blockNumber": 108369,
      "transactionIndex": 1,
      "confirmations": null,
      "from": "0xb4c8A15086d7c2E2aa5506FF51e34e3E23d053a7",
      "gasPrice": {
        "_hex": "0xd0aacd4f1"
      },
      "gasLimit": {
        "_hex": "0x5208"
      },
      "to": "0x32Be343B94f860124dC4fEe278FDCBD38C102D88",
      "value": {
        "_hex": "0x34d8645e0a0bc00"
      },
      "nonce": 0,
      "data": "0x",
      "r": "0x4e515c9c54aedcb3f106229a218bcd9e62edd612dc02cb0c82f16f90c71bf6b5",
      "s": "0x2ee5eb4ef6d4426ae9aab97d81b9e9a303c71a1abe5add25e5bb0977440ab0a7",
      "v": 27,
      "creates": null,
      "raw": "0xf86c80850d0aacd4f18252089432be343b94f860124dc4fee278fdcbd38c102d8888034d8645e0a0bc00801ba04e515c9c54aedcb3f106229a218bcd9e62edd612dc02cb0c82f16f90c71bf6b5a02ee5eb4ef6d4426ae9aab97d81b9e9a303c71a1abe5add25e5bb0977440ab0a7",
      "networkId": 0,
      "chainId": 0
    }
  ]
}