{
  "hash": "0x032156e2cac8ae3356cc3b696286198b9cf04396b2ae205e38efd2d406892513",
  "parentHash": "0x10ed8e6424b4ff7e74dc399a9ef7f01d1b510a6cd4a98bcb0efb140e453539ae",
  "number": 113205,
  "timestamp": 1440019449,
  "nonce": "0xdb68efb12ce9268a",
  "difficulty": 4521817887344,
  "gasLimit": {
    "_hex": "0x2fefd8"
  },
  "gasUsed": {
    "_hex": "0x546c"
  },
  "miner": "0x580992B51e3925e23280EfB93d3047C82f17E038",
  "extraData": "0x476574682f76312e302e312f6c696e75782f676f312e342e32",
  "transactions": [
    {
      "hash": "0x8470cb72a14d128a82a846f2395aac697284bd6efd94f8671a0924e2343019ad",
      "blockHash": "0x032156e2cac8ae3356cc3b696286198b9cf04396b2ae205e38efd2d406892513",
      "blockNumber": 113205,
      "transactionIndex": 0,
      "confirmations": null,
      "from": "0xA12E42660746c6a0484965f36D7b4d6a727BDa72",
      "gasPrice": {
        "_hex": "0x117bff07010"
      },
      "gasLimit": {
        "_hex": "0x55f0"
      },
      "to": "0x2910543Af39abA0Cd09dBb2D50200b3E800A63D2",
      "value": {
        "_hex": "0x4563918244f40000"
      },
      "nonce": 11,
      "data": "0x454e54314834395730",
      "r": "0x30100c882bdd5e9c312a38664a921984428b5881699ddb6d140aafaeb5a6ce25",
      "s": "0x381c4eb6b9b63cb26523384c46e464b2325858d168004f1d3768175b7ec38a06",
      "v": 28,
      "creates": null,
      "raw": "0xf8760b860117bff070108255f0942910543af39aba0cd09dbb2d50200b3e800a63d2884563918244f4000089454e543148343957301ca030100c882bdd5e9c312a38664a921984428b5881699ddb6d140aafaeb5a6ce25a0381c4eb6b9b63cb26523384c46e464b2325858d168004f1d3768175b7ec38a06",
      "networkId": 0,
      "chainId": 0
    }
  ]
}