{
  "hash": "0x5dfd56499fd275499ddbc75fa1d8bccbefc182c88c33c3b2f401385e40bb706b",
  "parentHash": "0xb6a70865914a4fbc2b6593b9461b35a53430e8eb7a7aee1cdc78f83113c84e86",
  "number": 83006,
  "timestamp": 1439528422,
  "nonce": "0x3f69e4edbf6ad29f",
  "difficulty": 2406652332646,
  "gasLimit": {
    "_hex": "0x2fefd8"
  },
  "gasUsed": {
    "_hex": "0x546c"
  },
  "miner": "0x9746c7e1ef2bd21FF3997fa467593a89cb852BD0",
  "extraData": "0x476574682f76312e302e312f77696e646f77732f676f312e342e32",
  "transactions": [
    {
      "hash": "0xb202ab9fe68357c1bbca225f575d11983453fa98916c0ed7892b54d7d70936bf",
      "blockHash": "0x5dfd56499fd275499ddbc75fa1d8bccbefc182c88c33c3b2f401385e40bb706b",
      "blockNumber": 83006,
      "transactionIndex": 0,
      "confirmations": null,
      "from": "0x2a9c96c19151fFCBe29A4616D0C52b3933B4659F",
      "gasPrice": {
        "_hex": "0x110c8f7d8de"
      },
      "gasLimit": {
        "_hex": "0xc350"
      },
      "to": "0x2910543Af39abA0Cd09dBb2D50200b3E800A63D2",
      "value": {
        "_hex": "0x3bd913e6c1df40000"
      },
      "nonce": 0,
      "data": "0x454e3730344a485238",
      "r": "0x4412ff93691500101a478d8ccab57cb38960fe2f2d92ba926d11e99f23d3c28e",
      "s": "0x0639bba35d6b6cdc88720e8ed0a32fd0bd64b6c23d00451a336290680b851861",
      "v": 28,
      "creates": null,
      "raw": "0xf87780860110c8f7d8de82c350942910543af39aba0cd09dbb2d50200b3e800a63d28903bd913e6c1df4000089454e3730344a4852381ca04412ff93691500101a478d8ccab57cb38960fe2f2d92ba926d11e99f23d3c28ea00639bba35d6b6cdc88720e8ed0a32fd0bd64b6c23d00451a336290680b851861",
      "networkId": 0,
      "chainId": 0
    }
  ]
}