{
  "hash": "0x0c5a199249f54df4d36fbdd96e8125b6431a4eeb919c45f1ee9a21e16ffbfa30",
  "parentHash": "0x294b9efec1fcd4fb42c2c74bbb9ff0a68b27d35a33211f2e6cf394e9adb47d4f",
  "number": 115259,
  "timestamp": 1440054089,
  "nonce": "0x5fde0cc6b5cba5e3",
  "difficulty": 4551719995804,
  "gasLimit": {
    "_hex": "0x2fefd8"
  },
  "gasUsed": {
    "_hex": "0x5208"
  },
  "miner": "0x0193d941b50d91BE6567c7eE1C0Fe7AF498b4137",
  "extraData": "0x4a5ace9e4e",
  "transactions": [
    {
      "hash": "0x0adbb437dee3fd3c08274d47ba9ea7b7c20312109181fcd451cb7e13ed414682",
      "blockHash": "0x0c5a199249f54df4d36fbdd96e8125b6431a4eeb919c45f1ee9a21e16ffbfa30",
      "blockNumber": 115259,
      "transactionIndex": 0,
      "confirmations": null,
      "from": "0x8Bf770A8F2F4cCa135f0699F96f4FB1CEb9c44c9",
      "gasPrice": {
        "_hex": "0xd7d40ace3"
      },
      "gasLimit": {
        "_hex": "0x15f90"
      },
      "to": "0x13aE5B35f82651Ff327d41502F0Aa90DA76D777E",
      "value": {
        "_hex": "0x149e0010fa7090000"
      },
      "nonce": 3,
      "data": "0x",
      "r": "0x7ddb0bc24895b4ab2a62f122465ecfa6310ee9cbbd985a208a86d86362cefbdc",
      "s": "0x226f4018ce7040093540215153b0beeb8c2c16bc1b09e448d37bb1c6d1fa40e4",
      "v": 28,
      "creates": null,
      "raw": "0xf86e03850d7d40ace383015f909413ae5b35f82651ff327d41502f0aa90da76d777e890149e0010fa7090000801ca07ddb0bc24895b4ab2a62f122465ecfa6310ee9cbbd985a208a86d86362cefbdca0226f4018ce7040093540215153b0beeb8c2c16bc1b09e448d37bb1c6d1fa40e4",
      "networkId": 0,
      "chainId": 0
    }
  ]
}