{
  "hash": "0x0b21a1a5dedb254a6c4e72874e1a16eb37e03472652d82ae239c270d1ff4e5c5",
  "parentHash": "0xdccc24ee94a9405493aa4f82c3bc3135eda76c007fb0c9fe64dbd06392b02095",
  "number": 60029,
  "timestamp": 1439147931,
  "nonce": "0x3d040ac60ae350d3",
  "difficulty": 1727202586580,
  "gasLimit": {
    "_hex": "0x2fefd8"
  },
  "gasUsed": {
    "_hex": "0x5208"
  },
  "miner": "0xbb7B8287f3F0a933474a79eAe42CBCa977791171",
  "extraData": "0x476574682f4c5649562f76312e302e312f6c696e75782f676f312e342e32",
  "transactions": [
    {
      "hash": "0xee6e64c3c296e9c2110ddf602267b342d632f74943e330a5a3ab06bee58de8ff",
      "blockHash": "0x0b21a1a5dedb254a6c4e72874e1a16eb37e03472652d82ae239c270d1ff4e5c5",
      "blockNumber": 60029,
      "transactionIndex": 0,
      "confirmations": null,
      "from": "0xA21Ba94e45f0E168dA824fC67aC9cb5Cb577a8aF",
      "gasPrice": {
        "_hex": "0x45d964b800"
      },
      "gasLimit": {
        "_hex": "0x5208"
      },
      "to": "0x56011d6b57A70c27F7cc294905A5DdA65BfBd154",
      "value": {
        "_hex": "0x796e3ea3f8ab00000"
      },
      "nonce": 1,
      "data": "0x",
      "r": "0x3cbba67815eb36bb83d061d05a133ac77368fb5f4ae87143bc0c0bb39495478f",
      "s": "0x17753aee97c0bb06686a97dd7cd6f948db297f9b016d3995e505bccfa8825d32",
      "v": 28,
      "creates": null,
      "raw": "0xf86d018545d964b8008252089456011d6b57a70c27f7cc294905a5dda65bfbd154890796e3ea3f8ab00000801ca03cbba67815eb36bb83d061d05a133ac77368fb5f4ae87143bc0c0bb39495478fa017753aee97c0bb06686a97dd7cd6f948db297f9b016d3995e505bccfa8825d32",
      "networkId": 0,
      "chainId": 0
    }
  ]
}