{
  "hash": "0x16a2b46606eb369ba3493e8376ab6f998507afb76d4095db8556a5fa8f0e34b5",
  "parentHash": "0xf2cb72f8fde7618bc0a938cf10179ba2487745b00fcb1ea306555e3bb8c848d8",
  "number": 46826,
  "timestamp": 1438929799,
  "nonce": "0x61ae29f369d52e39",
  "difficulty": 1458876834913,
  "gasLimit": {
    "_hex": "0x7c78"
  },
  "gasUsed": {
    "_hex": "0x5208"
  },
  "miner": "0x9746c7e1ef2bd21FF3997fa467593a89cb852BD0",
  "extraData": "0x476574682f76312e302e312f77696e646f77732f676f312e342e32",
  "transactions": [
    {
      "hash": "0x1e975908596cc460068ea8e83a3d2fb10563ae7606b21856a4a7397ee4dc6ab4",
      "blockHash": "0x16a2b46606eb369ba3493e8376ab6f998507afb76d4095db8556a5fa8f0e34b5",
      "blockNumber": 46826,
      "transactionIndex": 0,
      "confirmations": null,
      "from": "0xbcd95ef962462B6eDFA10FDa87D72242FE3EdB5C",
      "gasPrice": {
        "_hex": "0x746a528800"
      },
      "gasLimit": {
        "_hex": "0x5208"
      },
      "to": "0x6268eFD741C08f1EC4299A8FbE1D726a081DA611",
      "value": {
        "_hex": "0x121ce1937e3d744000"
      },
      "nonce": 0,
      "data": "0x",
      "r": "0x2b3856f7bc7d320cc55f3ff885b02b78398f9a88413c027bc665a2b5013f9806",
      "s": "0x768056aa8246f340d51efe5490383744e75d39c2f920b6124ca291cb9e819b7a",
      "v": 27,
      "creates": null,
      "raw": "0xf86d8085746a528800825208946268efd741c08f1ec4299a8fbe1d726a081da61189121ce1937e3d744000801ba02b3856f7bc7d320cc55f3ff885b02b78398f9a88413c027bc665a2b5013f9806a0768056aa8246f340d51efe5490383744e75d39c2f920b6124ca291cb9e819b7a",
      "networkId": 0,
      "chainId": 0
    }
  ]
}