{
  "hash": "0x685481aa02f41ce1e4b0bea33e08ca44be1cc0a7f2f637c4cdf41d5d982a2a42",
  "parentHash": "0x5008bc04f39102700ac5dbd6486e2d0e3332c72ab7d9a76b0c8831a8819ef38c",
  "number": 103660,
  "timestamp": 1439856955,
  "nonce": "0x863b511471c353ee",
  "difficulty": 4209307063842,
  "gasLimit": {
    "_hex": "0x2fefd8"
  },
  "gasUsed": {
    "_hex": "0x5208"
  },
  "miner": "0xe6A7a1d47ff21B6321162AEA7C6CB457D5476Bca",
  "extraData": "0x476574682f76312e302e312d38326566323666362f6c696e75782f676f312e34",
  "transactions": [
    {
      "hash": "0xb2e0cb4cc4938be0be884c545010504a11ccaf08997769ad7643d38454f24191",
      "blockHash": "0x685481aa02f41ce1e4b0bea33e08ca44be1cc0a7f2f637c4cdf41d5d982a2a42",
      "blockNumber": 103660,
      "transactionIndex": 0,
      "confirmations": null,
      "from": "0xD9666150A9dA92d9108198a4072970805a8B3428",
      "gasPrice": {
        "_hex": "0xdc0a0c336"
      },
      "gasLimit": {
        "_hex": "0x5208"
      },
      "to": "0x32Be343B94f860124dC4fEe278FDCBD38C102D88",
      "value": {
        "_hex": "0x8ac2c6fa0e4d6800"
      },
      "nonce": 64,
      "data": "0x",
      "r": "0x976b17e471bf9a6236a9ed60325cea2a5e7a9e2bf5b84dcdca2ee0ddce91b3a6",
      "s": "0x17bf7372995601cbab9024df39ee3d0df73828fee4dba89001ced3c07ac9dd63",
      "v": 27,
      "creates": null,
      "raw": "0xf86c40850dc0a0c3368252089432be343b94f860124dc4fee278fdcbd38c102d88888ac2c6fa0e4d6800801ba0976b17e471bf9a6236a9ed60325cea2a5e7a9e2bf5b84dcdca2ee0ddce91b3a6a017bf7372995601cbab9024df39ee3d0df73828fee4dba89001ced3c07ac9dd63",
      "networkId": 0,
      "chainId": 0
    }
  ]
}