{
  "hash": "0x98c9df986e94f6416319991b792bb2d792940a1f3c90bcfc5afc7426ca0d9eca",
  "parentHash": "0x825a646c9d79f57879861df9b2aa5b012cf524057df89f3b07dc6cf5aef20165",
  "number": 112823,
  "timestamp": 1440013832,
  "nonce": "0x91b67e5af06d0716",
  "difficulty": 4425907143827,
  "gasLimit": {
    "_hex": "0x2fefd8"
  },
  "gasUsed": {
    "_hex": "0xa410"
  },
  "miner": "0xf927a40C8B7F6E07c5af7FA2155B4864a4112B13",
  "extraData": "0x",
  "transactions": [
    {
      "hash": "0x9d53d071aba581652e120c71193510a1d727fc5d52217fc024435a63616c5fcb",
      "blockHash": "0x98c9df986e94f6416319991b792bb2d792940a1f3c90bcfc5afc7426ca0d9eca",
      "blockNumber": 112823,
      "transactionIndex": 0,
      "confirmations": null,
      "from": "0xc08E05f51581aDA37f9DD2edbF7a68fE7E199D55",
      "gasPrice": {
        "_hex": "0xdb60f6b12"
      },
      "gasLimit": {
        "_hex": "0x5208"
      },
      "to": "0x32Be343B94f860124dC4fEe278FDCBD38C102D88",
      "value": {
        "_hex": "0x3b027b02c4054400"
      },
      "nonce": 5,
      "data": "0x",
      "r": "0xa07502aff7e76cd998d0082c04cdcd91f4abe6ab71cb85191337ab26b6352d0a",
      "s": "0x0d8cf7eb647cd41c856ba38b96c551102fbda4d24c9f394de830a6daa5dc3f2b",
      "v": 27,
      "creates": null,
      "raw": "0xf86c05850db60f6b128252089432be343b94f860124dc4fee278fdcbd38c102d88883b027b02c4054400801ba0a07502aff7e76cd998d0082c04cdcd91f4abe6ab71cb85191337ab26b6352d0aa00d8cf7eb647cd41c856ba38b96c551102fbda4d24c9f394de830a6daa5dc3f2b",
      "networkId": 0,
      "chainId": 0
    },
    {
      "hash": "0x170868f5a1bafc4e13b2c59a9d715b818f5a43cac9c63455add3629f2531eb13",
      "blockHash": "0x98c9df986e94f6416319991b792bb2d792940a1f3c90bcfc5afc7426ca0d9eca",
      "blockNumber": 112823,
      "transactionIndex": 1,
      "confirmations": null,
      "from": "0x59cC965F1643a68ad7a4272ff1654d4af4343ea7",
      "gasPrice": {
        "_hex": "0xdb60f6b12"
      },
      "gasLimit": {
        "_hex": "0x5208"
      },
      "to": "0x32Be343B94f860124dC4fEe278FDCBD38C102D88",
      "value": {
        "_hex": "0x406e74998f62e0000"
      },
      "nonce": 6,
      "data": "0x",
      "r": "0x804fa0c875d4a9770ae0202810143cdaf22050fb4e4b952d40f8371fc305cb58",
      "s": "0x45dc5884dcc9917bd4fcd66da049e71559f3c18aef84ae8ca8fb9e067f7b5c89",
      "v": 28,
      "creates": null,
      "raw": "0xf86d06850db60f6b128252089432be343b94f860124dc4fee278fdcbd38c102d88890406e74998f62e0000801ca0804fa0c875d4a9770ae0202810143cdaf22050fb4e4b952d40f8371fc305cb58a045dc5884dcc9917bd4fcd66da049e71559f3c18aef84ae8ca8fb9e067f7b5c89",
      "networkId": 0,
      "chainId": 0
    }
  ]
}