{
  "hash": "0x6fd8bccc2cb413b62c63ce46d96a31a8dd00e0142688506f396fbd630dd03344",
  "parentHash": "0x9cf2ecd7a27a971fd298682ec88cc307d79b3e14ca3949ed817ddeee06975ee5",
  "number": 80200,
  "timestamp": 1439481704,
  "nonce": "0xd3a4a3242bd85972",
  "difficulty": 2372449037824,
  "gasLimit": {
    "_hex": "0x2fefd8"
  },
  "gasUsed": {
    "_hex": "0x14e47"
  },
  "miner": "0xf8E0CA3Ed80bd541b94BEdCf259e8CF2141A9523",
  "extraData": "0x476574682f76312e302e312f77696e646f77732f676f312e342e32",
  "transactions": [
    {
      "hash": "0x109458a8fb4c442e604701d12310689cb6319500ed4e537d8653f2e93f2c79a2",
      "blockHash": "0x6fd8bccc2cb413b62c63ce46d96a31a8dd00e0142688506f396fbd630dd03344",
      "blockNumber": 80200,
      "transactionIndex": 0,
      "confirmations": null,
      "from": "0x87C5B5874A18B4306DF8a752a6C8cc3E82daFc19",
      "gasPrice": {
        "_hex": "0x103429489e0"
      },
      "gasLimit": {
        "_hex": "0x493e0"
      },
      "to": "0xC4c51de1AbF5D60DBd329eC0F999Fd8f021ae9fC",
      "value": {
        "_hex": "0x0"
      },
      "nonce": 139,
      "data": "0x03750d9400000000000000000000000087c5b5874a18b4306df8a752a6c8cc3e82dafc196b6b6b0000000000000000000000000000000000000000000000000000000000",
      "r": "0x86c482be50217afcb9434e8eb16e7194a77b52cacd37632135954afdb7f2fdae",
      "s": "0x458620979c10de336291176c9948286fd9648d848ca73330201ec5c22f2a01ea",
      "v": 28,
      "creates": null,
      "raw": "0xf8ac818b860103429489e0830493e094c4c51de1abf5d60dbd329ec0f999fd8f021ae9fc80b84403750d9400000000000000000000000087c5b5874a18b4306df8a752a6c8cc3e82dafc196b6b6b00000000000000000000000000000000000000000000000000000000001ca086c482be50217afcb9434e8eb16e7194a77b52cacd37632135954afdb7f2fdaea0458620979c10de336291176c9948286fd9648d848ca73330201ec5c22f2a01ea",
      "networkId": 0,
      "chainId": 0
    },
    {
      "hash": "0x40bfcb5f744bc6ec2be00b330c40afcd6b262287c27f094aeb8d864b8bae4511",
      "blockHash": "0x6fd8bccc2cb413b62c63ce46d96a31a8dd00e0142688506f396fbd630dd03344",
      "blockNumber": 80200,
      "transactionIndex": 1,
      "confirmations": null,
      "from": "0x2910543Af39abA0Cd09dBb2D50200b3E800A63D2",
      "gasPrice": {
        "_hex": "0xdb813638a"
      },
      "gasLimit": {
        "_hex": "0x5208"
      },
      "to": "0xb2169f1326FE9745321aD99563654089bAdf09eb",
      "value": {
        "_hex": "0x601658781af06c000"
      },
      "nonce": 385,
      "data": "0x",
      "r": "0xac3b65e7c3c9cab7c36bf48b77e855e200e33253e98b736a66cad38281103ccb",
      "s": "0x26d65675be12e7eb0143d0c94703c6cba7b553e3f29bb6cec573d9d3ad493821",
      "v": 28,
      "creates": null,
      "raw": "0xf86f820181850db813638a82520894b2169f1326fe9745321ad99563654089badf09eb890601658781af06c000801ca0ac3b65e7c3c9cab7c36bf48b77e855e200e33253e98b736a66cad38281103ccba026d65675be12e7eb0143d0c94703c6cba7b553e3f29bb6cec573d9d3ad493821",
      "networkId": 0,
      "chainId": 0
    },
    {
      "hash": "0x4d384753b18518b77f10eaba99945bc5e5df10e456fc9c0d032f0926d3c28560",
      "blockHash": "0x6fd8bccc2cb413b62c63ce46d96a31a8dd00e0142688506f396fbd630dd03344",
      "blockNumber": 80200,
      "transactionIndex": 2,
      "confirmations": null,
      "from": "0x2910543Af39abA0Cd09dBb2D50200b3E800A63D2",
      "gasPrice": {
        "_hex": "0xdb813638a"
      },
      "gasLimit": {
        "_hex": "0x5208"
      },
      "to": "0xb2169f1326FE9745321aD99563654089bAdf09eb",
      "value": {
        "_hex": "0xad77cf8e18e3f8000"
      },
      "nonce": 386,
      "data": "0x",
      "r": "0x641e2698bc1c32c437450fc2510a41ae9c04eb8a893af00ce07b7c75dd5a3011",
      "s": "0x526cff9100dc9391cedd4d4a337ae96af5c3b6fba89886a1b66243dac6c1a1e7",
      "v": 28,
      "creates": null,
      "raw": "0xf86f820182850db813638a82520894b2169f1326fe9745321ad99563654089badf09eb890ad77cf8e18e3f8000801ca0641e2698bc1c32c437450fc2510a41ae9c04eb8a893af00ce07b7c75dd5a3011a0526cff9100dc9391cedd4d4a337ae96af5c3b6fba89886a1b66243dac6c1a1e7",
      "networkId": 0,
      "chainId": 0
    }
  ]
}