{
  "hash": "0x372c02434a1616b8ef6c1d57df19cb40ab442e030ccd5fa29e8a65248ea52846",
  "parentHash": "0xd5ee6b2a463a7a334fcbe49d685d1aa91058c7cd55fd1c30283687991095ab40",
  "number": 108181,
  "timestamp": 1439935665,
  "nonce": "0xfdd31768627d7267",
  "difficulty": 4368225031033,
  "gasLimit": {
    "_hex": "0x2fefd8"
  },
  "gasUsed": {
    "_hex": "0x5208"
  },
  "miner": "0x580992B51e3925e23280EfB93d3047C82f17E038",
  "extraData": "0x476574682f76312e302e312f6c696e75782f676f312e342e32",
  "transactions": [
    {
      "hash": "0x0a6143f9d7c85713009342a604306e23cd1d7072e9acf73d4e28d8ed5b1e1bc5",
      "blockHash": "0x372c02434a1616b8ef6c1d57df19cb40ab442e030ccd5fa29e8a65248ea52846",
      "blockNumber": 108181,
      "transactionIndex": 0,
      "confirmations": null,
      "from": "0x32Be343B94f860124dC4fEe278FDCBD38C102D88",
      "gasPrice": {
        "_hex": "0xd61196577"
      },
      "gasLimit": {
        "_hex": "0x5208"
      },
      "to": "0xd268fB48FA174088a25a120aFF0fd8eb0C2d4c87",
      "value": {
        "_hex": "0x21e19e0c9bab2400000"
      },
      "nonce": 1244,
      "data": "0x",
      "r": "0xa974e1166e72766f75568c76dafc584c075bea7f7699d6822918c3966c7cd570",
      "s": "0x51fa4c2130caae8a09343ee55a4efab302028a471e5ebd811de7f45d2b6ec1e1",
      "v": 28,
      "creates": null,
      "raw": "0xf8708204dc850d6119657782520894d268fb48fa174088a25a120aff0fd8eb0c2d4c878a021e19e0c9bab2400000801ca0a974e1166e72766f75568c76dafc584c075bea7f7699d6822918c3966c7cd570a051fa4c2130caae8a09343ee55a4efab302028a471e5ebd811de7f45d2b6ec1e1",
      "networkId": 0,
      "chainId": 0
    }
  ]
}