{
  "hash": "0xf2f0b11316655c082631b5fa9f9e930df28f2140835dd51e1640d37514a60447",
  "parentHash": "0x576b4190b155e1bd1a4b6a0f321881d6ef2f840899e23c07a7205ed654599aa1",
  "number": 103689,
  "timestamp": 1439857473,
  "nonce": "0xa4f13f0e2806b761",
  "difficulty": 4199028452605,
  "gasLimit": {
    "_hex": "0x2fefd8"
  },
  "gasUsed": {
    "_hex": "0x5208"
  },
  "miner": "0x9D49F602b0fdb924Bd63DDE2Bd0907E4A07c63a7",
  "extraData": "0x476574682f76312e302e312f6c696e75782f676f312e342e32",
  "transactions": [
    {
      "hash": "0x7bea50410cd5913c0fefd7001c0126ee53b3bc7b8a1241ffd0661fbf913b4129",
      "blockHash": "0xf2f0b11316655c082631b5fa9f9e930df28f2140835dd51e1640d37514a60447",
      "blockNumber": 103689,
      "transactionIndex": 0,
      "confirmations": null,
      "from": "0x0D4EcC7d750180EBf4A9Df728B6669B5Bceb5E40",
      "gasPrice": {
        "_hex": "0xcb251f6a9"
      },
      "gasLimit": {
        "_hex": "0x5208"
      },
      "to": "0x32Be343B94f860124dC4fEe278FDCBD38C102D88",
      "value": {
        "_hex": "0x45684f9a394f6c00"
      },
      "nonce": 70,
      "data": "0x",
      "r": "0xf4afe96b191e9f3e5f2ba2abeb1d6e00d525c62d6c17666a66091e1dc277ebde",
      "s": "0x7c76e06ced4252d1dbd516587f7d8aa398cf2ebb2e21958c132d79e8af3fcb3b",
      "v": 27,
      "creates": null,
      "raw": "0xf86c46850cb251f6a98252089432be343b94f860124dc4fee278fdcbd38c102d888845684f9a394f6c00801ba0f4afe96b191e9f3e5f2ba2abeb1d6e00d525c62d6c17666a66091e1dc277ebdea07c76e06ced4252d1dbd516587f7d8aa398cf2ebb2e21958c132d79e8af3fcb3b",
      "networkId": 0,
      "chainId": 0
    }
  ]
}