{
  "hash": "0x4b764aae214bdd16aa933e92187565a9da4bf1ac602bd12f1c271bee94c84d51",
  "parentHash": "0xe0fbab6d6f785579a650cd86b316d20acd759e1b1370d93e96376c39725dabdc",
  "number": 106199,
  "timestamp": 1439900318,
  "nonce": "0x5a8d3ed54ccf99f4",
  "difficulty": 4472871203846,
  "gasLimit": {
    "_hex": "0x2fefd8"
  },
  "gasUsed": {
    "_hex": "0xf61c"
  },
  "miner": "0xf927a40C8B7F6E07c5af7FA2155B4864a4112B13",
  "extraData": "0x",
  "transactions": [
    {
      "hash": "0xa2b6e9a6b0f7f54b99560d673593583c851ff75a25256cf9618da5bec1a751d4",
      "blockHash": "0x4b764aae214bdd16aa933e92187565a9da4bf1ac602bd12f1c271bee94c84d51",
      "blockNumber": 106199,
      "transactionIndex": 0,
      "confirmations": null,
      "from": "0xDf660a91Dab9F730f6190D50c8390561500756Ca",
      "gasPrice": {
        "_hex": "0xd5d5b57f7"
      },
      "gasLimit": {
        "_hex": "0x7530"
      },
      "to": "0x7cB57B5A97eAbe94205C07890BE4c1aD31E486A8",
      "value": {
        "_hex": "0x6f05b59d3b20000"
      },
      "nonce": 1,
      "data": "0x00",
      "r": "0x41e515b110c4836496ca051f3ae841932713695731a062c44566f4c3b3a46557",
      "s": "0x641acef7bdf502cee4fd261499f7fc1d73b9393aa2d53393005f2731b639518f",
      "v": 28,
      "creates": null,
      "raw": "0xf86c01850d5d5b57f7827530947cb57b5a97eabe94205c07890be4c1ad31e486a88806f05b59d3b20000001ca041e515b110c4836496ca051f3ae841932713695731a062c44566f4c3b3a46557a0641acef7bdf502cee4fd261499f7fc1d73b9393aa2d53393005f2731b639518f",
      "networkId": 0,
      "chainId": 0
    },
    {
      "hash": "0x8b534d86f2e1f482e72defa7e4634ac0a29e8af3f5b05de2028ef956e348669b",
      "blockHash": "0x4b764aae214bdd16aa933e92187565a9da4bf1ac602bd12f1c271bee94c84d51",
      "blockNumber": 106199,
      "transactionIndex": 1,
      "confirmations": null,
      "from": "0x90FC537b210658660a83BAa9Ac4a8402f65746a8",
      "gasPrice": {
        "_hex": "0xd3e166472"
      },
      "gasLimit": {
        "_hex": "0x15f90"
      },
      "to": "0xDA8EB527657210FE1D6d014A23A483F5E19d942F",
      "value": {
        "_hex": "0x6f05b59d3b20000"
      },
      "nonce": 0,
      "data": "0x",
      "r": "0x8962d710c57c4357a349a1604857d96ad1d219acc97ef4ac88aac17ae2fd1493",
      "s": "0x7dd65db9d76a45131649b6676c2c715f97b343747f3f5d0c865b86fc34eb16cf",
      "v": 27,
      "creates": null,
      "raw": "0xf86d80850d3e16647283015f9094da8eb527657210fe1d6d014a23a483f5e19d942f8806f05b59d3b20000801ba08962d710c57c4357a349a1604857d96ad1d219acc97ef4ac88aac17ae2fd1493a07dd65db9d76a45131649b6676c2c715f97b343747f3f5d0c865b86fc34eb16cf",
      "networkId": 0,
      "chainId": 0
    },
    {
      "hash": "0x53b4c1c90e006eb9495829efeef1a43b772eec8a517d40d73b7563ea31b12a8c",
      "blockHash": "0x4b764aae214bdd16aa933e92187565a9da4bf1ac602bd12f1c271bee94c84d51",
      "blockNumber": 106199,
      "transactionIndex": 2,
      "confirmations": null,
      "from": "0xAa37b1200B856ce897a85b9C2b11a8213095Bf2a",
      "gasPrice": {
        "_hex": "0xcdb3087c9"
      },
      "gasLimit": {
        "_hex": "0x5208"
      },
      "to": "0x32Be343B94f860124dC4fEe278FDCBD38C102D88",
      "value": {
        "_hex": "0x47fb396afbbc5c000"
      },
      "nonce": 2,
      "data": "0x",
      "r": "0xe3d82e6daacd1f26f95f76cbc62ff851cc54f6580629df1e61e83b5d8a29a3ac",
      "s": "0x469f5cd7451d5f839ac4f6d8d600cea8978b6e7264bbd8190d711e7046d5695e",
      "v": 28,
      "creates": null,
      "raw": "0xf86d02850cdb3087c98252089432be343b94f860124dc4fee278fdcbd38c102d8889047fb396afbbc5c000801ca0e3d82e6daacd1f26f95f76cbc62ff851cc54f6580629df1e61e83b5d8a29a3aca0469f5cd7451d5f839ac4f6d8d600cea8978b6e7264bbd8190d711e7046d5695e",
      "networkId": 0,
      "chainId": 0
    }
  ]
}