{
  "hash": "0x0d383fee13888aa7fd890f7b4811097c751ef405fbf3c3d906eaa76fea457b95",
  "parentHash": "0xe8f331e5c9d442b769cc4833f0175649a8703baafdfb67e1ae6def8092018e57",
  "number": 69099,
  "timestamp": 1439298324,
  "nonce": "0xb0a04c2d3aeefa82",
  "difficulty": 2054898737739,
  "gasLimit": {
    "_hex": "0x2fefd8"
  },
  "gasUsed": {
    "_hex": "0xa410"
  },
  "miner": "0x47ff6576639c2e94762eA5443978D7681C0E78DC",
  "extraData": "0x476574682f76312e302e312f6c696e75782f676f312e342e32",
  "transactions": [
    {
      "hash": "0x0dc4ae9a5a143b75ea8bc417e572513be90da60511beb5e09e8f73adcbe223df",
      "blockHash": "0x0d383fee13888aa7fd890f7b4811097c751ef405fbf3c3d906eaa76fea457b95",
      "blockNumber": 69099,
      "transactionIndex": 0,
      "confirmations": null,
      "from": "0x7A03EA4B5a06c24D67A5ebF4eeCf9Af2a7994135",
      "gasPrice": {
        "_hex": "0xba43b7400"
      },
      "gasLimit": {
        "_hex": "0x5208"
      },
      "to": "0x08eee5986e1E1cEcdfdA06fDa53cef108D1dbAC6",
      "value": {
        "_hex": "0xaa9f075c200000"
      },
      "nonce": 1,
      "data": "0x",
      "r": "0x2412dc4e1363ac4155e50148c2d5f93b27e206192d21aac7e3257d6d188325be",
      "s": "0x7f62f7ea76b0bdb8bec31152468c37ca4a151683e5958f720c0ad2d209555900",
      "v": 28,
      "creates": null,
      "raw": "0xf86b01850ba43b74008252089408eee5986e1e1cecdfda06fda53cef108d1dbac687aa9f075c200000801ca02412dc4e1363ac4155e50148c2d5f93b27e206192d21aac7e3257d6d188325bea07f62f7ea76b0bdb8bec31152468c37ca4a151683e5958f720c0ad2d209555900",
      "networkId": 0,
      "chainId": 0
    },
    {
      "hash": "0xd70ee0ea75709b1179977641225f2bb1671d490edbc5538d23710a78aa300e40",
      "blockHash": "0x0d383fee13888aa7fd890f7b4811097c751ef405fbf3c3d906eaa76fea457b95",
      "blockNumber": 69099,
      "transactionIndex": 1,
      "confirmations": null,
      "from": "0x8bA6B4B89e7Bc7320b229C480d36f8Fd79b660C8",
      "gasPrice": {
        "_hex": "0xba43b7400"
      },
      "gasLimit": {
        "_hex": "0x5208"
      },
      "to": "0xe32ee025CfD3fD259b22635dF8E30409C5A4A39A",
      "value": {
        "_hex": "0xaa9f075c200000"
      },
      "nonce": 1,
      "data": "0x",
      "r": "0x2e4c257d09aa0a45ac16214795529b9bdb7b292af78f45f5b6cdb1d1d188d8c6",
      "s": "0x76e8460c0d25b7ca708602f3d487dd57e7f22d3172465477c75d5afa89826f9b",
      "v": 27,
      "creates": null,
      "raw": "0xf86b01850ba43b740082520894e32ee025cfd3fd259b22635df8e30409c5a4a39a87aa9f075c200000801ba02e4c257d09aa0a45ac16214795529b9bdb7b292af78f45f5b6cdb1d1d188d8c6a076e8460c0d25b7ca708602f3d487dd57e7f22d3172465477c75d5afa89826f9b",
      "networkId": 0,
      "chainId": 0
    }
  ]
}