{
  "hash": "0x418d591513f89d7f060c3f6e3506c2d0f702964878d533e03b66c266d1a3d649",
  "parentHash": "0xe54401e86bb536ef0335c24d52e5db3ef8e2708ad286c4832dd572dccc367b1a",
  "number": 92111,
  "timestamp": 1439666960,
  "nonce": "0x9a29ca0949bfc742",
  "difficulty": 3475727051073,
  "gasLimit": {
    "_hex": "0x2fefd8"
  },
  "gasUsed": {
    "_hex": "0x5208"
  },
  "miner": "0xe6A7a1d47ff21B6321162AEA7C6CB457D5476Bca",
  "extraData": "0x476574682f76312e302e312d38326566323666362f6c696e75782f676f312e34",
  "transactions": [
    {
      "hash": "0x724cd44e172d56b8d2a470553a4a1d298e5abb9d05d2b426799e4b0421dc2fc2",
      "blockHash": "0x418d591513f89d7f060c3f6e3506c2d0f702964878d533e03b66c266d1a3d649",
      "blockNumber": 92111,
      "transactionIndex": 0,
      "confirmations": null,
      "from": "0x4f764C5F486975D3a385bAe004AA285Ad3b73076",
      "gasPrice": {
        "_hex": "0xcc2cf5030"
      },
      "gasLimit": {
        "_hex": "0x15f90"
      },
      "to": "0x2e41275bF9571c7244de1cF0EA68133d0f6d7422",
      "value": {
        "_hex": "0xcc09972423a0000"
      },
      "nonce": 0,
      "data": "0x",
      "r": "0xa2b040483e65f26b3ca102657ae29cab799edd3e87981e412dbb78bbdce2d2f5",
      "s": "0x0d18545f785c1c81bc4494761049daa4d83a36bc1ef0abac2eda210535513639",
      "v": 28,
      "creates": null,
      "raw": "0xf86d80850cc2cf503083015f90942e41275bf9571c7244de1cf0ea68133d0f6d7422880cc09972423a0000801ca0a2b040483e65f26b3ca102657ae29cab799edd3e87981e412dbb78bbdce2d2f5a00d18545f785c1c81bc4494761049daa4d83a36bc1ef0abac2eda210535513639",
      "networkId": 0,
      "chainId": 0
    }
  ]
}