{
  "hash": "0x0f6eda7051fcfeb55c8b940ecea92485d0cd1d76c626d1ed43d6f7c39e99ab2d",
  "parentHash": "0x16f4b0e92e20ff07c2088fb08c0e9f89b9995c85a98257e32046eeb97ac627d4",
  "number": 47249,
  "timestamp": 1438936793,
  "nonce": "0xc423cf67a12f65bf",
  "difficulty": 1462369154937,
  "gasLimit": {
    "_hex": "0xa88c"
  },
  "gasUsed": {
    "_hex": "0x5208"
  },
  "miner": "0x6232dF6f3A300fCD3Bc591452ac447eeA3aC079F",
  "extraData": "0x476574682f76312e302e312f77696e646f77732f676f312e342e32",
  "transactions": [
    {
      "hash": "0x1e838ac9713849a82c2a9d964c890375ab6952abd6189cb2be123b7b9d85f1e9",
      "blockHash": "0x0f6eda7051fcfeb55c8b940ecea92485d0cd1d76c626d1ed43d6f7c39e99ab2d",
      "blockNumber": 47249,
      "transactionIndex": 0,
      "confirmations": null,
      "from": "0xe6A7a1d47ff21B6321162AEA7C6CB457D5476Bca",
      "gasPrice": {
        "_hex": "0xd65d66429"
      },
      "gasLimit": {
        "_hex": "0x5208"
      },
      "to": "0xc6407f14351edfDC1F152Ac1ca004D678F586856",
      "value": {
        "_hex": "0x848c7c0d85360f18"
      },
      "nonce": 86,
      "data": "0x",
      "r": "0x2f71986133271f8269c87f2005e59e740fb7fe07cf46b562ffa9d9cb8d7bcb96",
      "s": "0x58c3537f898306f2b777b0494e7ddc77ecfcdd99d9c79b592ca870545e2f8c16",
      "v": 28,
      "creates": null,
      "raw": "0xf86c56850d65d6642982520894c6407f14351edfdc1f152ac1ca004d678f58685688848c7c0d85360f18801ca02f71986133271f8269c87f2005e59e740fb7fe07cf46b562ffa9d9cb8d7bcb96a058c3537f898306f2b777b0494e7ddc77ecfcdd99d9c79b592ca870545e2f8c16",
      "networkId": 0,
      "chainId": 0
    }
  ]
}