{
  "hash": "0x6e020cc7e4e00a0927a1bbc01f29b2fcba5c83bac0465d5dcc829a57a58d2b43",
  "parentHash": "0xef23c02f5791ee75f27be2f20e56b88c878ac1d38a1705bed9934fb2d4692d34",
  "number": 49485,
  "timestamp": 1438974154,
  "nonce": "0x93fe3daac8c8f466",
  "difficulty": 1482104672336,
  "gasLimit": {
    "_hex": "0x32c7a"
  },
  "gasUsed": {
    "_hex": "0x5208"
  },
  "miner": "0xab84940B570d6358ed6A9Dbf7e0bc8Ec8F5A6E89",
  "extraData": "0x322831652933",
  "transactions": [
    {
      "hash": "0x4a09bebf259c57f63842a15d1519f3b06615205af25f9f1352965bedf6f32c3d",
      "blockHash": "0x6e020cc7e4e00a0927a1bbc01f29b2fcba5c83bac0465d5dcc829a57a58d2b43",
      "blockNumber": 49485,
      "transactionIndex": 0,
      "confirmations": null,
      "from": "0xEE04c7b429f39243C8d1ae8578acD96de91ca4C8",
      "gasPrice": {
        "_hex": "0xd675832b9"
      },
      "gasLimit": {
        "_hex": "0x5208"
      },
      "to": "0x32Be343B94f860124dC4fEe278FDCBD38C102D88",
      "value": {
        "_hex": "0x6bd2e7367981940000"
      },
      "nonce": 1,
      "data": "0x",
      "r": "0x8ba30e26e7a37a40b76ac52836e2517d99353f0f627d4084226f1b8ec316b136",
      "s": "0x526399f60d181817869d6c7f436eadab1f4bcbcaf23de6f9966f386afa058e87",
      "v": 27,
      "creates": null,
      "raw": "0xf86d01850d675832b98252089432be343b94f860124dc4fee278fdcbd38c102d88896bd2e7367981940000801ba08ba30e26e7a37a40b76ac52836e2517d99353f0f627d4084226f1b8ec316b136a0526399f60d181817869d6c7f436eadab1f4bcbcaf23de6f9966f386afa058e87",
      "networkId": 0,
      "chainId": 0
    }
  ]
}