{
  "hash": "0xec5833322365d2ac5fb7e47cb55826903b427e8311f68089bf5fd12a2b2cc025",
  "parentHash": "0x668b626cac16f0c241fe1fad98d1d508e6dd21e284ced55a989c089457299919",
  "number": 95058,
  "timestamp": 1439718313,
  "nonce": "0xe5115c9b10288df9",
  "difficulty": 3496631328313,
  "gasLimit": {
    "_hex": "0x2fefd8"
  },
  "gasUsed": {
    "_hex": "0x19a28"
  },
  "miner": "0xEF247E639d49461D25F57e9362CadE3120910Ce0",
  "extraData": "0x476574682f76312e302e312f6c696e75782f676f312e342e32",
  "transactions": [
    {
      "hash": "0x3233bc6a3469d697eb66a8473f0e9c75bcc7751bba6ceaa0c9ab64eaaf85c7e5",
      "blockHash": "0xec5833322365d2ac5fb7e47cb55826903b427e8311f68089bf5fd12a2b2cc025",
      "blockNumber": 95058,
      "transactionIndex": 0,
      "confirmations": null,
      "from": "0xD15B7A3ADE211fcCf62eb4d41557Bb7e62C7e3a0",
      "gasPrice": {
        "_hex": "0xba43b7400"
      },
      "gasLimit": {
        "_hex": "0x5208"
      },
      "to": "0xC47Aaa860008be6f65B58c6C6E02a84e666EfE31",
      "value": {
        "_hex": "0x63dac44c1ecc4210"
      },
      "nonce": 2,
      "data": "0x",
      "r": "0xcad6bdf503640c3a9ca2eba6baa4c13328544d82d6fa1410cd72670561e573de",
      "s": "0x0280a39b2ac335e4d17ac2a6383507063be8f9e41467df4cfb5975d780c4d868",
      "v": 28,
      "creates": null,
      "raw": "0xf86c02850ba43b740082520894c47aaa860008be6f65b58c6c6e02a84e666efe318863dac44c1ecc4210801ca0cad6bdf503640c3a9ca2eba6baa4c13328544d82d6fa1410cd72670561e573dea00280a39b2ac335e4d17ac2a6383507063be8f9e41467df4cfb5975d780c4d868",
      "networkId": 0,
      "chainId": 0
    },
    {
      "hash": "0xe4f8f14d5ca95b5e639d6ff3d6b2ea626e66b22adf3414e77aff659c1fbd8fb4",
      "blockHash": "0xec5833322365d2ac5fb7e47cb55826903b427e8311f68089bf5fd12a2b2cc025",
      "blockNumber": 95058,
      "transactionIndex": 1,
      "confirmations": null,
      "from": "0x02f4c7248513B56356B261cB797fBC618c410569",
      "gasPrice": {
        "_hex": "0xba43b7400"
      },
      "gasLimit": {
        "_hex": "0x5208"
      },
      "to": "0xC47Aaa860008be6f65B58c6C6E02a84e666EfE31",
      "value": {
        "_hex": "0x34bc7efbee45aa10"
      },
      "nonce": 2,
      "data": "0x",
      "r": "0xb858b57836fe42479ca5058749b37b2b9111b3f1df555c13da8cb14979c916bc",
      "s": "0x262bed8d098b8a097466200765bbb48260d17aaf4b489726f8f78c1e87a27b6c",
      "v": 27,
      "creates": null,
      "raw": "0xf86c02850ba43b740082520894c47aaa860008be6f65b58c6c6e02a84e666efe318834bc7efbee45aa10801ba0b858b57836fe42479ca5058749b37b2b9111b3f1df555c13da8cb14979c916bca0262bed8d098b8a097466200765bbb48260d17aaf4b489726f8f78c1e87a27b6c",
      "networkId": 0,
      "chainId": 0
    },
    {
      "hash": "0x97ff1663508513362bc990a42859538159ecaf8573121cb28a3d65a05944eb3d",
      "blockHash": "0xec5833322365d2ac5fb7e47cb55826903b427e8311f68089bf5fd12a2b2cc025",
      "blockNumber": 95058,
      "transactionIndex": 2,
      "confirmations": null,
      "from": "0xc9450a30B259ebB8631b9bC49c64dBAeC472D6Af",
      "gasPrice": {
        "_hex": "0xba43b7400"
      },
      "gasLimit": {
        "_hex": "0x5208"
      },
      "to": "0xC47Aaa860008be6f65B58c6C6E02a84e666EfE31",
      "value": {
        "_hex": "0x6118e38733c0d0b0"
      },
      "nonce": 2,
      "data": "0x",
      "r": "0x96a6c283680ab88366b3056b5f2e5cb626b299e1a01dd0e13e7be540c234bef0",
      "s": "0x70c2a28d03987a03e20e630de99c71373e55717c3e1670e459a4dd504ef60263",
      "v": 27,
      "creates": null,
      "raw": "0xf86c02850ba43b740082520894c47aaa860008be6f65b58c6c6e02a84e666efe31886118e38733c0d0b0801ba096a6c283680ab88366b3056b5f2e5cb626b299e1a01dd0e13e7be540c234bef0a070c2a28d03987a03e20e630de99c71373e55717c3e1670e459a4dd504ef60263",
      "networkId": 0,
      "chainId": 0
    },
    {
      "hash": "0xa2b6da0da42c312034dc114e134a360a74124359d756fa65fc9f7b4fb7835eeb",
      "blockHash": "0xec5833322365d2ac5fb7e47cb55826903b427e8311f68089bf5fd12a2b2cc025",
      "blockNumber": 95058,
      "transactionIndex": 3,
      "confirmations": null,
      "from": "0x63d25FB5edc318Aae1DEc4F3aBd7c645f921cff8",
      "gasPrice": {
        "_hex": "0xba43b7400"
      },
      "gasLimit": {
        "_hex": "0x5208"
      },
      "to": "0xC47Aaa860008be6f65B58c6C6E02a84e666EfE31",
      "value": {
        "_hex": "0x5b8dcf5298bac6d0"
      },
      "nonce": 3,
      "data": "0x",
      "r": "0x088f7078db60ad6505cc30bb01def2bc16f8836c26aca58524e1f8d673cec1d0",
      "s": "0x320b66d70a2b3701d57ed729b24f1ef672239492cdfb6820ea47745be7f0a22f",
      "v": 27,
      "creates": null,
      "raw": "0xf86c03850ba43b740082520894c47aaa860008be6f65b58c6c6e02a84e666efe31885b8dcf5298bac6d0801ba0088f7078db60ad6505cc30bb01def2bc16f8836c26aca58524e1f8d673cec1d0a0320b66d70a2b3701d57ed729b24f1ef672239492cdfb6820ea47745be7f0a22f",
      "networkId": 0,
      "chainId": 0
    },
    {
      "hash": "0x7834876a4d1211b7ee4f506c8845ae133762fbe2fcbc0d0dcf66eea9efdaea6a",
      "blockHash": "0xec5833322365d2ac5fb7e47cb55826903b427e8311f68089bf5fd12a2b2cc025",
      "blockNumber": 95058,
      "transactionIndex": 4,
      "confirmations": null,
      "from": "0x514Cb503F290d5F2BE2d38163440f926781D47a1",
      "gasPrice": {
        "_hex": "0xba43b7400"
      },
      "gasLimit": {
        "_hex": "0x5208"
      },
      "to": "0xC47Aaa860008be6f65B58c6C6E02a84e666EfE31",
      "value": {
        "_hex": "0x334f8d31fd878ea0"
      },
      "nonce": 1,
      "data": "0x",
      "r": "0x5d6c12f07f3eada9b185b01ce80cdb53698a0a010390366ae95a6d4db2cb3470",
      "s": "0x5c2c2cc259155dfc144382f5f8dfb0090b6040ddcea02f8ddfff2f9bd3837135",
      "v": 28,
      "creates": null,
      "raw": "0xf86c01850ba43b740082520894c47aaa860008be6f65b58c6c6e02a84e666efe3188334f8d31fd878ea0801ca05d6c12f07f3eada9b185b01ce80cdb53698a0a010390366ae95a6d4db2cb3470a05c2c2cc259155dfc144382f5f8dfb0090b6040ddcea02f8ddfff2f9bd3837135",
      "networkId": 0,
      "chainId": 0
    }
  ]
}