{
  "hash": "0x57e2e412709609a2300c2083af912bb1e22745a26faf92493069e11245a4cad4",
  "parentHash": "0x846013b106beaae59c6bada13a6ac57fead22045ff51b65f977c11181a46105e",
  "number": 82514,
  "timestamp": 1439520636,
  "nonce": "0x248d2299c5324414",
  "difficulty": 2376431625882,
  "gasLimit": {
    "_hex": "0x2fefd8"
  },
  "gasUsed": {
    "_hex": "0xa410"
  },
  "miner": "0xe6A7a1d47ff21B6321162AEA7C6CB457D5476Bca",
  "extraData": "0x476574682f76312e302e312d38326566323666362f6c696e75782f676f312e34",
  "transactions": [
    {
      "hash": "0xdf6bf2ff91f8e8d4f4751f7de08d8e537b7620eeea22ac452b944705a0f19724",
      "blockHash": "0x57e2e412709609a2300c2083af912bb1e22745a26faf92493069e11245a4cad4",
      "blockNumber": 82514,
      "transactionIndex": 0,
      "confirmations": null,
      "from": "0xC47Aaa860008be6f65B58c6C6E02a84e666EfE31",
      "gasPrice": {
        "_hex": "0xdff4075e3"
      },
      "gasLimit": {
        "_hex": "0x15f90"
      },
      "to": "0x193bB9b5E9b6099FB6c33DBb5CcDA4AC18ed14D7",
      "value": {
        "_hex": "0x3d94f1e54c7f56d59"
      },
      "nonce": 7,
      "data": "0x",
      "r": "0xfbd3b6514f2c08d2d1b6012bdbcd7fbb58dfd3aeaa5e01151f0c713bdaabb044",
      "s": "0x4f407093f4a6bf655e4ae44b076452260334a3891452d7c8adc4801af5dc8eab",
      "v": 27,
      "creates": null,
      "raw": "0xf86e07850dff4075e383015f9094193bb9b5e9b6099fb6c33dbb5ccda4ac18ed14d78903d94f1e54c7f56d59801ba0fbd3b6514f2c08d2d1b6012bdbcd7fbb58dfd3aeaa5e01151f0c713bdaabb044a04f407093f4a6bf655e4ae44b076452260334a3891452d7c8adc4801af5dc8eab",
      "networkId": 0,
      "chainId": 0
    },
    {
      "hash": "0x8527897d7bc68f51771306531f59a383603c3542bf84194244f81b7bfb59a4b5",
      "blockHash": "0x57e2e412709609a2300c2083af912bb1e22745a26faf92493069e11245a4cad4",
      "blockNumber": 82514,
      "transactionIndex": 1,
      "confirmations": null,
      "from": "0x3faFe90631678f97C1D101ea02D4cd743cBD24ed",
      "gasPrice": {
        "_hex": "0xba43b7400"
      },
      "gasLimit": {
        "_hex": "0x5208"
      },
      "to": "0xC47Aaa860008be6f65B58c6C6E02a84e666EfE31",
      "value": {
        "_hex": "0x454e1310e0009dc0"
      },
      "nonce": 2,
      "data": "0x",
      "r": "0x597a761c90e486f3f8f9fc632349a041beaa785bfead52c708b59459b45f96bf",
      "s": "0x3d82111c57b4d99af0d29d235702ecb55831d48707eb0c9535ac93924e6cc520",
      "v": 27,
      "creates": null,
      "raw": "0xf86c02850ba43b740082520894c47aaa860008be6f65b58c6c6e02a84e666efe3188454e1310e0009dc0801ba0597a761c90e486f3f8f9fc632349a041beaa785bfead52c708b59459b45f96bfa03d82111c57b4d99af0d29d235702ecb55831d48707eb0c9535ac93924e6cc520",
      "networkId": 0,
      "chainId": 0
    }
  ]
}