{
  "hash": "0x95c97836a08c098ed9ea74702385910a92aa207f581ec9bbcd51b469f2750743",
  "parentHash": "0x6dfcea7f6fbb33d57054f8c394505d9558d7c1b7769e96565d0fc840f4d59343",
  "number": 49416,
  "timestamp": 1438973140,
  "nonce": "0x198e45cc6e197ca7",
  "difficulty": 1478502827151,
  "gasLimit": {
    "_hex": "0x307b6"
  },
  "gasUsed": {
    "_hex": "0xf618"
  },
  "miner": "0xF2d2AfF1320476cb8C6b607199D23175cc595693",
  "extraData": "0x476574682f76312e302e312f77696e646f77732f676f312e342e32",
  "transactions": [
    {
      "hash": "0x1c31214e6aa479ead77cdbece9a272fde123f0835ea5cba37e34b51c0fb5b2db",
      "blockHash": "0x95c97836a08c098ed9ea74702385910a92aa207f581ec9bbcd51b469f2750743",
      "blockNumber": 49416,
      "transactionIndex": 0,
      "confirmations": null,
      "from": "0xaed5c6263d084cFFc0a3fAD197702CecE3e9c3E3",
      "gasPrice": {
        "_hex": "0xceb48d283"
      },
      "gasLimit": {
        "_hex": "0x5208"
      },
      "to": "0x32Be343B94f860124dC4fEe278FDCBD38C102D88",
      "value": {
        "_hex": "0x15245231ebc21d0000"
      },
      "nonce": 2,
      "data": "0x",
      "r": "0xae1daed326031abf2d1594882ba6de80e9aeeb8ad0fb9c71bda80044d2908e88",
      "s": "0x692e810887edbb77942c1aaaea24cf2ab37e3ffcdf0fbc2c65b981e4d0405768",
      "v": 27,
      "creates": null,
      "raw": "0xf86d02850ceb48d2838252089432be343b94f860124dc4fee278fdcbd38c102d888915245231ebc21d0000801ba0ae1daed326031abf2d1594882ba6de80e9aeeb8ad0fb9c71bda80044d2908e88a0692e810887edbb77942c1aaaea24cf2ab37e3ffcdf0fbc2c65b981e4d0405768",
      "networkId": 0,
      "chainId": 0
    },
    {
      "hash": "0x42d24c13ac2426bc4d15b71145ad2354a1efab5d190b157c9bbad079b4b59f63",
      "blockHash": "0x95c97836a08c098ed9ea74702385910a92aa207f581ec9bbcd51b469f2750743",
      "blockNumber": 49416,
      "transactionIndex": 1,
      "confirmations": null,
      "from": "0xb82415923664590236aea1c1912955E7653B9FCa",
      "gasPrice": {
        "_hex": "0xceb48d283"
      },
      "gasLimit": {
        "_hex": "0x5208"
      },
      "to": "0x32Be343B94f860124dC4fEe278FDCBD38C102D88",
      "value": {
        "_hex": "0x2559c795c043e80000"
      },
      "nonce": 2,
      "data": "0x",
      "r": "0x3cca61d607e296e679a861b19f0c5f57219b69fc317de8d67ebc9db4a041adb7",
      "s": "0x74efeb9ba6e1fcd0e184369b8c43c2e3d18b0fdfdcc6fe25cf65e9b74c0d2090",
      "v": 28,
      "creates": null,
      "raw": "0xf86d02850ceb48d2838252089432be343b94f860124dc4fee278fdcbd38c102d88892559c795c043e80000801ca03cca61d607e296e679a861b19f0c5f57219b69fc317de8d67ebc9db4a041adb7a074efeb9ba6e1fcd0e184369b8c43c2e3d18b0fdfdcc6fe25cf65e9b74c0d2090",
      "networkId": 0,
      "chainId": 0
    },
    {
      "hash": "0xb3cd4f005955c2e836963ae50ad077cad4baf3ed0d60e596793c69a8786b87d7",
      "blockHash": "0x95c97836a08c098ed9ea74702385910a92aa207f581ec9bbcd51b469f2750743",
      "blockNumber": 49416,
      "transactionIndex": 2,
      "confirmations": null,
      "from": "0x33A3f479f6c3e7F91128348490D1f7E8D2A0FAb5",
      "gasPrice": {
        "_hex": "0xcc7096038"
      },
      "gasLimit": {
        "_hex": "0x5208"
      },
      "to": "0x32Be343B94f860124dC4fEe278FDCBD38C102D88",
      "value": {
        "_hex": "0x455f6dbd04b8b400"
      },
      "nonce": 2,
      "data": "0x",
      "r": "0x891d6cb45f8025df610c60ff5745595e6b47fddf84c8efc98ba69f19aa5d9ea0",
      "s": "0x315a07e18acba53844c2ad991e7b3c5b239072c19025528708f921a6be0cbaf7",
      "v": 28,
      "creates": null,
      "raw": "0xf86c02850cc70960388252089432be343b94f860124dc4fee278fdcbd38c102d8888455f6dbd04b8b400801ca0891d6cb45f8025df610c60ff5745595e6b47fddf84c8efc98ba69f19aa5d9ea0a0315a07e18acba53844c2ad991e7b3c5b239072c19025528708f921a6be0cbaf7",
      "networkId": 0,
      "chainId": 0
    }
  ]
}