{
  "hash": "0x0621b13a3ca75f20df1016903895efd3af38e08f21a0c031b780bc46f1ddeea8",
  "parentHash": "0xf4f6dce6ed47ac609192184ebd7e84eb20bda8df0c5478d10346c881f0a4d14e",
  "number": 48548,
  "timestamp": 1438958879,
  "nonce": "0x72fc96f87fd47576",
  "difficulty": 1468582291861,
  "gasLimit": {
    "_hex": "0x193dd"
  },
  "gasUsed": {
    "_hex": "0x546c"
  },
  "miner": "0xC759dc67E0c3816fdC56A2f5bb29920fc07e767D",
  "extraData": "0x476574682f76312e302e312f77696e646f77732f676f312e342e32",
  "transactions": [
    {
      "hash": "0xfa3ee1b8a5db993fcd83d3ee884bd840c03012772947945b80d4af787c140aee",
      "blockHash": "0x0621b13a3ca75f20df1016903895efd3af38e08f21a0c031b780bc46f1ddeea8",
      "blockNumber": 48548,
      "transactionIndex": 0,
      "confirmations": null,
      "from": "0x0927220492194B2edA9fc4BBe38f25d681dfD36C",
      "gasPrice": {
        "_hex": "0xd1cc0c31c"
      },
      "gasLimit": {
        "_hex": "0x15f90"
      },
      "to": "0x2910543Af39abA0Cd09dBb2D50200b3E800A63D2",
      "value": {
        "_hex": "0x5150ae84a8cdf00000"
      },
      "nonce": 1,
      "data": "0x454e42334b45444730",
      "r": "0x9f25f4542d9e5688b695811ed6d797afff09a8343e1aae220c1da5e9a875df4a",
      "s": "0x503da5fd70f3a1c07b32e938eedbf65c5f2002765fa04bcdc663f99b64407d18",
      "v": 28,
      "creates": null,
      "raw": "0xf87701850d1cc0c31c83015f90942910543af39aba0cd09dbb2d50200b3e800a63d2895150ae84a8cdf0000089454e42334b454447301ca09f25f4542d9e5688b695811ed6d797afff09a8343e1aae220c1da5e9a875df4aa0503da5fd70f3a1c07b32e938eedbf65c5f2002765fa04bcdc663f99b64407d18",
      "networkId": 0,
      "chainId": 0
    }
  ]
}