{
  "hash": "0x95a075e3edb64d130b2b7158cce6db718c44d2dc2373c60fe063d0c76bc5bf90",
  "parentHash": "0xb43176da51fbe78561a0da77fabb3cc7d52536473d46e13669cb7c3d97ceb63e",
  "number": 89470,
  "timestamp": 1439623964,
  "nonce": "0xbe37009ed28f81ca",
  "difficulty": 3315986702741,
  "gasLimit": {
    "_hex": "0x2fefd8"
  },
  "gasUsed": {
    "_hex": "0xa410"
  },
  "miner": "0x8293b65bD915B9FF87F6aDAb479da2e5b6633fDB",
  "extraData": "0x476574682f76312e302e312f77696e646f77732f676f312e342e32",
  "transactions": [
    {
      "hash": "0xb75d67ab7ee984233769eafb53a6922ddbd4b479b36133d166f3f3dc3b1289e9",
      "blockHash": "0x95a075e3edb64d130b2b7158cce6db718c44d2dc2373c60fe063d0c76bc5bf90",
      "blockNumber": 89470,
      "transactionIndex": 0,
      "confirmations": null,
      "from": "0xD9666150A9dA92d9108198a4072970805a8B3428",
      "gasPrice": {
        "_hex": "0xd6f77708b"
      },
      "gasLimit": {
        "_hex": "0x5208"
      },
      "to": "0x32Be343B94f860124dC4fEe278FDCBD38C102D88",
      "value": {
        "_hex": "0x1314b6550360e1000"
      },
      "nonce": 8,
      "data": "0x",
      "r": "0xda742e3e8d8d97075ce2bb69fa40adda66cf1af34dfa1c9fbf8506fb03ab149b",
      "s": "0x3bae63b1381b0d5c97e40e9f3d7b4d82c3bae0231e4ffd5703df7f3fa8da190f",
      "v": 28,
      "creates": null,
      "raw": "0xf86d08850d6f77708b8252089432be343b94f860124dc4fee278fdcbd38c102d888901314b6550360e1000801ca0da742e3e8d8d97075ce2bb69fa40adda66cf1af34dfa1c9fbf8506fb03ab149ba03bae63b1381b0d5c97e40e9f3d7b4d82c3bae0231e4ffd5703df7f3fa8da190f",
      "networkId": 0,
      "chainId": 0
    },
    {
      "hash": "0xfb27e99f17e4e2a2422151a24e5d39c79be9d544a44dc307c4a739ad7b6d080e",
      "blockHash": "0x95a075e3edb64d130b2b7158cce6db718c44d2dc2373c60fe063d0c76bc5bf90",
      "blockNumber": 89470,
      "transactionIndex": 1,
      "confirmations": null,
      "from": "0x18aC3828876aC1968eF70ebCD8018A9223A4C56e",
      "gasPrice": {
        "_hex": "0xd6f77708b"
      },
      "gasLimit": {
        "_hex": "0x5208"
      },
      "to": "0x32Be343B94f860124dC4fEe278FDCBD38C102D88",
      "value": {
        "_hex": "0x1bbd1f47223e1000"
      },
      "nonce": 0,
      "data": "0x",
      "r": "0xbf12f260965a473609cbe4b423999585c105fd34e204efcabe2265c77abeb054",
      "s": "0x79c16e24e5fae5ebed71a2211462be79f0b0a81e5e13e45114d34ae9403dc49a",
      "v": 28,
      "creates": null,
      "raw": "0xf86c80850d6f77708b8252089432be343b94f860124dc4fee278fdcbd38c102d88881bbd1f47223e1000801ca0bf12f260965a473609cbe4b423999585c105fd34e204efcabe2265c77abeb054a079c16e24e5fae5ebed71a2211462be79f0b0a81e5e13e45114d34ae9403dc49a",
      "networkId": 0,
      "chainId": 0
    }
  ]
}