{
  "hash": "0xfb6819765605b3c69edea13b9eff43c50bbd88fa861f19e95c9ed6fb5440b73c",
  "parentHash": "0xfb14523ec759d181a46caa3320151b61c3ab5cb28f8e29e8f0ddd7fa43e94319",
  "number": 116173,
  "timestamp": 1440069617,
  "nonce": "0xb43fcabaf512685a",
  "difficulty": 4591401377503,
  "gasLimit": {
    "_hex": "0x2fefd8"
  },
  "gasUsed": {
    "_hex": "0x5208"
  },
  "miner": "0x2134e2a2b718DCa96580ECAC31E653Ea1fdd58DA",
  "extraData": "0x476574682f76312e302e312f77696e646f77732f676f312e342e32",
  "transactions": [
    {
      "hash": "0x6bab4eb4b52ac81f3fcd3802c198cd63995591470176f65f55af944d3e974aa6",
      "blockHash": "0xfb6819765605b3c69edea13b9eff43c50bbd88fa861f19e95c9ed6fb5440b73c",
      "blockNumber": 116173,
      "transactionIndex": 0,
      "confirmations": null,
      "from": "0xB76CeFA8d0680c6dA05CA47e1C4B70aA092B69a9",
      "gasPrice": {
        "_hex": "0xcd01555c5"
      },
      "gasLimit": {
        "_hex": "0x15f90"
      },
      "to": "0xeC06c233d618b41076FbfF739Efb85a4999F89Da",
      "value": {
        "_hex": "0xed96754b5ab0000"
      },
      "nonce": 10,
      "data": "0x",
      "r": "0x4651d797a276c7c6167c62328d5fcb39f25f9b576caef9d493f7a9d557edeb7d",
      "s": "0x55bd5a1e40ba91e6875a061d3ae8066d5b248df9dc0f530d8f5bc34e350dce96",
      "v": 28,
      "creates": null,
      "raw": "0xf86d0a850cd01555c583015f9094ec06c233d618b41076fbff739efb85a4999f89da880ed96754b5ab0000801ca04651d797a276c7c6167c62328d5fcb39f25f9b576caef9d493f7a9d557edeb7da055bd5a1e40ba91e6875a061d3ae8066d5b248df9dc0f530d8f5bc34e350dce96",
      "networkId": 0,
      "chainId": 0
    }
  ]
}