{
  "hash": "0x6d7baaa673a22447f1ba11068e3a0b15951893ae823dbef362cdefddd7d44fce",
  "parentHash": "0xae0f33fcb750b8da4e97e3ca7d6d79c224ca335ede80cc8486a19eb16118d518",
  "number": 89883,
  "timestamp": 1439630714,
  "nonce": "0xdfd0c22c5975be98",
  "difficulty": 3330427004637,
  "gasLimit": {
    "_hex": "0x2fefd8"
  },
  "gasUsed": {
    "_hex": "0x5208"
  },
  "miner": "0x33b01a7fe4A1a5F774Bb73f89A4eF15a6Ffe1141",
  "extraData": "0x476574682f76312e302e312f6c696e75782f676f312e342e32",
  "transactions": [
    {
      "hash": "0x091b316ce5dafa74c9724515279fad221ac2835c8b891ef661a1f030ba3d8608",
      "blockHash": "0x6d7baaa673a22447f1ba11068e3a0b15951893ae823dbef362cdefddd7d44fce",
      "blockNumber": 89883,
      "transactionIndex": 0,
      "confirmations": null,
      "from": "0x383Ad663AFd1716301FC92d469d9985b97cfBCB0",
      "gasPrice": {
        "_hex": "0xde2fc69cb"
      },
      "gasLimit": {
        "_hex": "0x5208"
      },
      "to": "0x32Be343B94f860124dC4fEe278FDCBD38C102D88",
      "value": {
        "_hex": "0x1dfb817c190572000"
      },
      "nonce": 1,
      "data": "0x",
      "r": "0xbb8d60d2e8d51aa713040dd569b08379d924500b8646d0cc72dd2392bcd4ab08",
      "s": "0x3aab497145fced3e55c6ed2ad8f8684610b406d3d472cf2001856347a70dbc1b",
      "v": 28,
      "creates": null,
      "raw": "0xf86d01850de2fc69cb8252089432be343b94f860124dc4fee278fdcbd38c102d888901dfb817c190572000801ca0bb8d60d2e8d51aa713040dd569b08379d924500b8646d0cc72dd2392bcd4ab08a03aab497145fced3e55c6ed2ad8f8684610b406d3d472cf2001856347a70dbc1b",
      "networkId": 0,
      "chainId": 0
    }
  ]
}