{
  "hash": "0x16dac9a5b0e31a34ecd8e122a9f71a06a205f682cca244cd37b39b85a965bdd0",
  "parentHash": "0x900e2e1fe57af4e600b6b03e63b4bc1ea003dad9e858de302596ed3ce12df07e",
  "number": 75050,
  "timestamp": 1439396921,
  "nonce": "0x49171dc65d7330dd",
  "difficulty": 2180546982274,
  "gasLimit": {
    "_hex": "0x2fefd5"
  },
  "gasUsed": {
    "_hex": "0x546c"
  },
  "miner": "0x6DE55b563cE6E319cCB403032Da3BE5Ad4ec4FcF",
  "extraData": "0x",
  "transactions": [
    {
      "hash": "0xe987719690bc1d330bef10dbf7a60bba326bcafc1cdeabc2e92b8dfd9e9ea465",
      "blockHash": "0x16dac9a5b0e31a34ecd8e122a9f71a06a205f682cca244cd37b39b85a965bdd0",
      "blockNumber": 75050,
      "transactionIndex": 0,
      "confirmations": null,
      "from": "0x5Bf5E9cf9B456d6591073513De7Fd69A9BEF04Bc",
      "gasPrice": {
        "_hex": "0xd59ffc7e0"
      },
      "gasLimit": {
        "_hex": "0x55f0"
      },
      "to": "0xBc91527B31Fbbe397F91C2b9273Ea32b0d9a19a0",
      "value": {
        "_hex": "0x2386f26fc10000"
      },
      "nonce": 2,
      "data": "0x454e51575855545752",
      "r": "0x249c5f5d5f288fa1ec5ab444ea6ef931bd4d0bcf3ef7093876c11544d8c73e92",
      "s": "0x1e4caa74231abd7b816c740132b040c93464cb994affd8b94efd3c6b8d652271",
      "v": 27,
      "creates": null,
      "raw": "0xf87402850d59ffc7e08255f094bc91527b31fbbe397f91c2b9273ea32b0d9a19a0872386f26fc1000089454e515758555457521ba0249c5f5d5f288fa1ec5ab444ea6ef931bd4d0bcf3ef7093876c11544d8c73e92a01e4caa74231abd7b816c740132b040c93464cb994affd8b94efd3c6b8d652271",
      "networkId": 0,
      "chainId": 0
    }
  ]
}