{
  "hash": "0x8e2f57199312d7659a3caaa14a06b82f571c7ddc53443e2ba0e4b2ba1aa8c393",
  "parentHash": "0x60340c19943f3dd54c72490be41f2b95d80e4bd0fcaa98557ba76c9d102c2f36",
  "number": 118902,
  "timestamp": 1440133326,
  "nonce": "0xf739bc80dbcf491e",
  "difficulty": 4399009905705,
  "gasLimit": {
    "_hex": "0x2fefd8"
  },
  "gasUsed": {
    "_hex": "0x5208"
  },
  "miner": "0xe6A7a1d47ff21B6321162AEA7C6CB457D5476Bca",
  "extraData": "0xd783010002844765746887676f312e342e32856c696e7578",
  "transactions": [
    {
      "hash": "0xd6bd6de4d9cf4faa8072f6431a14146318a698378cf72b031c264fbffe250e78",
      "blockHash": "0x8e2f57199312d7659a3caaa14a06b82f571c7ddc53443e2ba0e4b2ba1aa8c393",
      "blockNumber": 118902,
      "transactionIndex": 0,
      "confirmations": null,
      "from": "0x61F642543d22bAf5382908a714E675Cc0b51ea45",
      "gasPrice": {
        "_hex": "0xba43b7400"
      },
      "gasLimit": {
        "_hex": "0x5208"
      },
      "to": "0x32Be343B94f860124dC4fEe278FDCBD38C102D88",
      "value": {
        "_hex": "0x8ac3680eb0f04000"
      },
      "nonce": 28,
      "data": "0x",
      "r": "0xa263033edf231dcf2cffaf2955e7955c462e966c315ff47d542456887deadc76",
      "s": "0x5453fb0096a7bf49d79dbfbd6ee6f9c2cb7e2202dea3c7002a9d0b713bd49daa",
      "v": 27,
      "creates": null,
      "raw": "0xf86c1c850ba43b74008252089432be343b94f860124dc4fee278fdcbd38c102d88888ac3680eb0f04000801ba0a263033edf231dcf2cffaf2955e7955c462e966c315ff47d542456887deadc76a05453fb0096a7bf49d79dbfbd6ee6f9c2cb7e2202dea3c7002a9d0b713bd49daa",
      "networkId": 0,
      "chainId": 0
    }
  ]
}