{
  "hash": "0x4f3d4eae569a3137db5ff951fcd55a3012ad4792d07065b5d0262addf6eebc65",
  "parentHash": "0xe7f73cb295a4ecceadf7cee4604e0e9d07cc0bcf9b21d50242f399306b43ab8f",
  "number": 103722,
  "timestamp": 1439857980,
  "nonce": "0x03ba8b18f9a12fe3",
  "difficulty": 4205167338175,
  "gasLimit": {
    "_hex": "0x2fefd8"
  },
  "gasUsed": {
    "_hex": "0x5208"
  },
  "miner": "0xe6A7a1d47ff21B6321162AEA7C6CB457D5476Bca",
  "extraData": "0x476574682f76312e302e312d38326566323666362f6c696e75782f676f312e34",
  "transactions": [
    {
      "hash": "0x91eaa20dfad0ceabed603560fbfc80855e47f7a427e9ffaf4219ff7fd00f0140",
      "blockHash": "0x4f3d4eae569a3137db5ff951fcd55a3012ad4792d07065b5d0262addf6eebc65",
      "blockNumber": 103722,
      "transactionIndex": 0,
      "confirmations": null,
      "from": "0x120A270bbC009644e35F0bB6ab13f95b8199c4ad",
      "gasPrice": {
        "_hex": "0xcd6b5ada9"
      },
      "gasLimit": {
        "_hex": "0x3d090"
      },
      "to": "0x60d85a32126130b225913C23dF4e5EF8b759fA09",
      "value": {
        "_hex": "0x2c82218f2ba52e6000"
      },
      "nonce": 728,
      "data": "0x",
      "r": "0xe64358be584f0708efd2105358bb2932aa7f9b3169d8b35ea05c2828cd5cf43f",
      "s": "0x39de361aae88ad8e686ea0e5fa621b955993b07584cc87dcc41a95a4f6e87563",
      "v": 28,
      "creates": null,
      "raw": "0xf8708202d8850cd6b5ada98303d0909460d85a32126130b225913c23df4e5ef8b759fa09892c82218f2ba52e6000801ca0e64358be584f0708efd2105358bb2932aa7f9b3169d8b35ea05c2828cd5cf43fa039de361aae88ad8e686ea0e5fa621b955993b07584cc87dcc41a95a4f6e87563",
      "networkId": 0,
      "chainId": 0
    }
  ]
}