{
  "hash": "0xad2b10c11a61e1c3b82160bb4c06506871c475d97ec32d27387f719e7c0f1ee5",
  "parentHash": "0xb930dcb003440f05a3bea57f4e72a1d6135dbc5fd3c00c1c7d0ee78208895949",
  "number": 108845,
  "timestamp": 1439947100,
  "nonce": "0x5d0589ba401a1192",
  "difficulty": 4372146868855,
  "gasLimit": {
    "_hex": "0x2fefd8"
  },
  "gasUsed": {
    "_hex": "0x546c"
  },
  "miner": "0x05f74a38293C914C6B14a39f5d8dEa98f22E4FBA",
  "extraData": "0x",
  "transactions": [
    {
      "hash": "0x5658b8cd11707ee0963cc4ee7d30fadd5ec1b93256f4212386754688330ccccb",
      "blockHash": "0xad2b10c11a61e1c3b82160bb4c06506871c475d97ec32d27387f719e7c0f1ee5",
      "blockNumber": 108845,
      "transactionIndex": 0,
      "confirmations": null,
      "from": "0x8035fe4E6B6AF27Ae492a578515e9D39fa6fA65b",
      "gasPrice": {
        "_hex": "0x110c8f7d8de"
      },
      "gasLimit": {
        "_hex": "0xc350"
      },
      "to": "0x2910543Af39abA0Cd09dBb2D50200b3E800A63D2",
      "value": {
        "_hex": "0xa2a15d09519be00000"
      },
      "nonce": 0,
      "data": "0x454e565a5a38425552",
      "r": "0xaf219977067149d97bf96ce08a8c654ddbc551f18b45913c0e5ec43c34426d6d",
      "s": "0xad3a5ecd0703b96a88868585df5fb4769bf154e268e8c3a7961fb690902462ba",
      "v": 28,
      "creates": null,
      "raw": "0xf87780860110c8f7d8de82c350942910543af39aba0cd09dbb2d50200b3e800a63d289a2a15d09519be0000089454e565a5a384255521ca0af219977067149d97bf96ce08a8c654ddbc551f18b45913c0e5ec43c34426d6da0ad3a5ecd0703b96a88868585df5fb4769bf154e268e8c3a7961fb690902462ba",
      "networkId": 0,
      "chainId": 0
    }
  ]
}