{
  "hash": "0x4e6c24f8b1cf65b9e32bd28b62cd3a21556457986cd693c47345ff446b6f1632",
  "parentHash": "0x35c2197c9c0e6c1d72dba49b163e13542f0bf14a1d9aaee9dc02869795c3b049",
  "number": 105426,
  "timestamp": 1439887366,
  "nonce": "0xb65191be19c91395",
  "difficulty": 4380341035201,
  "gasLimit": {
    "_hex": "0x2fefd8"
  },
  "gasUsed": {
    "_hex": "0x23e38"
  },
  "miner": "0xE300c4587D260cE22a677755Db6429B491A4309E",
  "extraData": "0x",
  "transactions": [
    {
      "hash": "0x968623c5429dfadfbcebade4b28ef7b06bb7e698e6da7933fb25f9fa7c095be5",
      "blockHash": "0x4e6c24f8b1cf65b9e32bd28b62cd3a21556457986cd693c47345ff446b6f1632",
      "blockNumber": 105426,
      "transactionIndex": 0,
      "confirmations": null,
      "from": "0x2637e8641e6ef9C8951adf3E0c7058e76D766cbA",
      "gasPrice": {
        "_hex": "0xd6f9b3c12"
      },
      "gasLimit": {
        "_hex": "0x5208"
      },
      "to": "0x32Be343B94f860124dC4fEe278FDCBD38C102D88",
      "value": {
        "_hex": "0xf5c45ea3418be000"
      },
      "nonce": 5,
      "data": "0x",
      "r": "0x048be6761b1da479489a9bdea78eb91d38899d522033a245fd959154ae327d0d",
      "s": "0x0f386ce794a6607171ecb9b55862b6b9b0cda2c4ccd6eb03003a361ceb0149ff",
      "v": 27,
      "creates": null,
      "raw": "0xf86c05850d6f9b3c128252089432be343b94f860124dc4fee278fdcbd38c102d8888f5c45ea3418be000801ba0048be6761b1da479489a9bdea78eb91d38899d522033a245fd959154ae327d0da00f386ce794a6607171ecb9b55862b6b9b0cda2c4ccd6eb03003a361ceb0149ff",
      "networkId": 0,
      "chainId": 0
    },
    {
      "hash": "0xbb7bff2ec369627c0b57f01d91a321bc7df7d2f35ae745214a8146b392d30b46",
      "blockHash": "0x4e6c24f8b1cf65b9e32bd28b62cd3a21556457986cd693c47345ff446b6f1632",
      "blockNumber": 105426,
      "transactionIndex": 1,
      "confirmations": null,
      "from": "0x5c34E9095588400B7CFF963daa495eFbEFCa083E",
      "gasPrice": {
        "_hex": "0xd6f9b3c12"
      },
      "gasLimit": {
        "_hex": "0x5208"
      },
      "to": "0x32Be343B94f860124dC4fEe278FDCBD38C102D88",
      "value": {
        "_hex": "0x27b32d6e48b6f800"
      },
      "nonce": 5,
      "data": "0x",
      "r": "0x2c608a30f7831be8a42f837445454d00ff70ac14348a1ea90986a9351ec5f6ae",
      "s": "0x3c41bda220b303afc2f632615c422c15f8c7a9864d64870213a9a117b681a8ac",
      "v": 27,
      "creates": null,
      "raw": "0xf86c05850d6f9b3c128252089432be343b94f860124dc4fee278fdcbd38c102d888827b32d6e48b6f800801ba02c608a30f7831be8a42f837445454d00ff70ac14348a1ea90986a9351ec5f6aea03c41bda220b303afc2f632615c422c15f8c7a9864d64870213a9a117b681a8ac",
      "networkId": 0,
      "chainId": 0
    },
    {
      "hash": "0x9588e153d544e392dedd8b62e178c9b20f1cde816f3f019bdb66dce2736a2d27",
      "blockHash": "0x4e6c24f8b1cf65b9e32bd28b62cd3a21556457986cd693c47345ff446b6f1632",
      "blockNumber": 105426,
      "transactionIndex": 2,
      "confirmations": null,
      "from": "0xFCb0b0382b155BE6Dd68dcdB7f29d2366D1C7502",
      "gasPrice": {
        "_hex": "0xd6f9b3c12"
      },
      "gasLimit": {
        "_hex": "0x5208"
      },
      "to": "0x32Be343B94f860124dC4fEe278FDCBD38C102D88",
      "value": {
        "_hex": "0x6fb68163e41a1400"
      },
      "nonce": 4,
      "data": "0x",
      "r": "0x346d632946fe22d502c1e15c5b257f6a2f18542877b64f4f26b3be80307fd248",
      "s": "0x45c948a4ac1dac82a84175d9b3f04ee8a9f1602db49fb974161078dbc7c738e4",
      "v": 27,
      "creates": null,
      "raw": "0xf86c04850d6f9b3c128252089432be343b94f860124dc4fee278fdcbd38c102d88886fb68163e41a1400801ba0346d632946fe22d502c1e15c5b257f6a2f18542877b64f4f26b3be80307fd248a045c948a4ac1dac82a84175d9b3f04ee8a9f1602db49fb974161078dbc7c738e4",
      "networkId": 0,
      "chainId": 0
    },
    {
      "hash": "0x0baa2099cf2eef0ebe8b39a6253f84d4c7404d392b69d7f7dc91c1232bb86fec",
      "blockHash": "0x4e6c24f8b1cf65b9e32bd28b62cd3a21556457986cd693c47345ff446b6f1632",
      "blockNumber": 105426,
      "transactionIndex": 3,
      "confirmations": null,
      "from": "0x8b687892C6Cf88925ddD772718782A864e5353Df",
      "gasPrice": {
        "_hex": "0xd6f9b3c12"
      },
      "gasLimit": {
        "_hex": "0x5208"
      },
      "to": "0x32Be343B94f860124dC4fEe278FDCBD38C102D88",
      "value": {
        "_hex": "0x37cba56a8af926000"
      },
      "nonce": 5,
      "data": "0x",
      "r": "0x71c526b9ae04fb80dc4655d27ba11503f05aff5a87b5d2ba388f01ec82172f2a",
      "s": "0x6a570869ef9de8b7452055188ed14a2f78099638818e2fd24e356867b8a1087b",
      "v": 27,
      "creates": null,
      "raw": "0xf86d05850d6f9b3c128252089432be343b94f860124dc4fee278fdcbd38c102d8889037cba56a8af926000801ba071c526b9ae04fb80dc4655d27ba11503f05aff5a87b5d2ba388f01ec82172f2aa06a570869ef9de8b7452055188ed14a2f78099638818e2fd24e356867b8a1087b",
      "networkId": 0,
      "chainId": 0
    },
    {
      "hash": "0x526c7e51ff26efc5c05497a48cea27c809a38690f00c81d36fb33edce281e565",
      "blockHash": "0x4e6c24f8b1cf65b9e32bd28b62cd3a21556457986cd693c47345ff446b6f1632",
      "blockNumber": 105426,
      "transactionIndex": 4,
      "confirmations": null,
      "from": "0xA10DcDc99cF571e66c6Af1F1175a15686C4C6800",
      "gasPrice": {
        "_hex": "0xd6f9b3c12"
      },
      "gasLimit": {
        "_hex": "0x5208"
      },
      "to": "0x32Be343B94f860124dC4fEe278FDCBD38C102D88",
      "value": {
        "_hex": "0x1fc681c8cd2a0000"
      },
      "nonce": 5,
      "data": "0x",
      "r": "0xc20307af3bdd5ea9621c3a6a9b2d0feff6fda09d3b436bf1071c79d13d44c082",
      "s": "0x2910f7724ac173ecefee923fd0c4efd864a319696e68a85384ba2655283a4d52",
      "v": 27,
      "creates": null,
      "raw": "0xf86c05850d6f9b3c128252089432be343b94f860124dc4fee278fdcbd38c102d88881fc681c8cd2a0000801ba0c20307af3bdd5ea9621c3a6a9b2d0feff6fda09d3b436bf1071c79d13d44c082a02910f7724ac173ecefee923fd0c4efd864a319696e68a85384ba2655283a4d52",
      "networkId": 0,
      "chainId": 0
    },
    {
      "hash": "0xcc9ce2a09bb6d93e0c2cb95a7b1c1a74e89084c21c386a42cd940047e435aa9e",
      "blockHash": "0x4e6c24f8b1cf65b9e32bd28b62cd3a21556457986cd693c47345ff446b6f1632",
      "blockNumber": 105426,
      "transactionIndex": 5,
      "confirmations": null,
      "from": "0x8C37447a7930187595EC51FEA6f749C4F8a96cD4",
      "gasPrice": {
        "_hex": "0xd6f9b3c12"
      },
      "gasLimit": {
        "_hex": "0x5208"
      },
      "to": "0x32Be343B94f860124dC4fEe278FDCBD38C102D88",
      "value": {
        "_hex": "0x1b75190115c38e000"
      },
      "nonce": 5,
      "data": "0x",
      "r": "0xdc14abc718e8e8040684625ba0d71e50979a08465022111b04e0e9e33a7d6476",
      "s": "0x7ba02e2a3ef45f1a0283f5075148702d65c1bf24bb235b6e0458b643dee4e072",
      "v": 27,
      "creates": null,
      "raw": "0xf86d05850d6f9b3c128252089432be343b94f860124dc4fee278fdcbd38c102d888901b75190115c38e000801ba0dc14abc718e8e8040684625ba0d71e50979a08465022111b04e0e9e33a7d6476a07ba02e2a3ef45f1a0283f5075148702d65c1bf24bb235b6e0458b643dee4e072",
      "networkId": 0,
      "chainId": 0
    },
    {
      "hash": "0x30da1a49d835ca896a22b329b55ef0f77d6bd97c9058c5f08dd10d1b493303fb",
      "blockHash": "0x4e6c24f8b1cf65b9e32bd28b62cd3a21556457986cd693c47345ff446b6f1632",
      "blockNumber": 105426,
      "transactionIndex": 6,
      "confirmations": null,
      "from": "0xc7Dda420b6e858441b9Ea42B762dF14C59552fbb",
      "gasPrice": {
        "_hex": "0xd6f9b3c12"
      },
      "gasLimit": {
        "_hex": "0x5208"
      },
      "to": "0x32Be343B94f860124dC4fEe278FDCBD38C102D88",
      "value": {
        "_hex": "0x3a911efb2f2d7c00"
      },
      "nonce": 3,
      "data": "0x",
      "r": "0xe6ee0d721fb32f6c04be54c0df58af1bf5eaf9e164f8be4d1a25143cb4a6b2e8",
      "s": "0x421c0c7ab796e7ce51f7791cd59347bd6a38ad4af97a5a5b952d07962a2afc2b",
      "v": 27,
      "creates": null,
      "raw": "0xf86c03850d6f9b3c128252089432be343b94f860124dc4fee278fdcbd38c102d88883a911efb2f2d7c00801ba0e6ee0d721fb32f6c04be54c0df58af1bf5eaf9e164f8be4d1a25143cb4a6b2e8a0421c0c7ab796e7ce51f7791cd59347bd6a38ad4af97a5a5b952d07962a2afc2b",
      "networkId": 0,
      "chainId": 0
    }
  ]
}