{
  "hash": "0x45b71ea095152bafe9d15d0b809381cec1ec74ecd9213b2487c2c76d7490068d",
  "parentHash": "0x454ac668e363d2db1ab4ee22db40391968f2bf779d0ad318e6ea83fb9a7354a6",
  "number": 110325,
  "timestamp": 1439971770,
  "nonce": "0x7ccf6c6165648258",
  "difficulty": 4367108722006,
  "gasLimit": {
    "_hex": "0x2fefd8"
  },
  "gasUsed": {
    "_hex": "0xf618"
  },
  "miner": "0x9D49F602b0fdb924Bd63DDE2Bd0907E4A07c63a7",
  "extraData": "0x476574682f76312e302e312f6c696e75782f676f312e342e32",
  "transactions": [
    {
      "hash": "0xce259bbf050cd7491d2c434603a22d3c6889a30346d2d32f88e817b29c9cde43",
      "blockHash": "0x45b71ea095152bafe9d15d0b809381cec1ec74ecd9213b2487c2c76d7490068d",
      "blockNumber": 110325,
      "transactionIndex": 0,
      "confirmations": null,
      "from": "0xe6A7a1d47ff21B6321162AEA7C6CB457D5476Bca",
      "gasPrice": {
        "_hex": "0xd8697342b"
      },
      "gasLimit": {
        "_hex": "0x55f0"
      },
      "to": "0x39BEd032922B0C9b8e5445245bE8e9423F8f2730",
      "value": {
        "_hex": "0x1340b5e4d4fa6208"
      },
      "nonce": 4117,
      "data": "0x",
      "r": "0x9f7c531e96c588bb15fdc2130469679c8bb988d5890952a0048726223b36acad",
      "s": "0x69590ea186228c988b662a9a0f4039657e14b3617ad7e6fe25574046a2dfb377",
      "v": 27,
      "creates": null,
      "raw": "0xf86e821015850d8697342b8255f09439bed032922b0c9b8e5445245be8e9423f8f2730881340b5e4d4fa6208801ba09f7c531e96c588bb15fdc2130469679c8bb988d5890952a0048726223b36acada069590ea186228c988b662a9a0f4039657e14b3617ad7e6fe25574046a2dfb377",
      "networkId": 0,
      "chainId": 0
    },
    {
      "hash": "0x20e61c74fba3ca37597e5f698ec636a70a7046e2da1a47522b2d52a7e8b36f0c",
      "blockHash": "0x45b71ea095152bafe9d15d0b809381cec1ec74ecd9213b2487c2c76d7490068d",
      "blockNumber": 110325,
      "transactionIndex": 1,
      "confirmations": null,
      "from": "0xe6A7a1d47ff21B6321162AEA7C6CB457D5476Bca",
      "gasPrice": {
        "_hex": "0xd8697342b"
      },
      "gasLimit": {
        "_hex": "0x55f0"
      },
      "to": "0x3D1d22d2A05a3E9b3792561f2FF5f8D879352d6c",
      "value": {
        "_hex": "0x1349069cb9ab8200"
      },
      "nonce": 4118,
      "data": "0x",
      "r": "0x9e2ce1807aebf95cfcbc15b39af3ed8fc5d956ab88469787cf8e7ad82f741a61",
      "s": "0x726d6430f477f3b4a950a40bef8215682403f94ff2178eafb4e7071bcd5c33f6",
      "v": 27,
      "creates": null,
      "raw": "0xf86e821016850d8697342b8255f0943d1d22d2a05a3e9b3792561f2ff5f8d879352d6c881349069cb9ab8200801ba09e2ce1807aebf95cfcbc15b39af3ed8fc5d956ab88469787cf8e7ad82f741a61a0726d6430f477f3b4a950a40bef8215682403f94ff2178eafb4e7071bcd5c33f6",
      "networkId": 0,
      "chainId": 0
    },
    {
      "hash": "0x5a4f170b18636d27c42b69ff1c1db08d011c222dad5f1e74a593fac2d2601646",
      "blockHash": "0x45b71ea095152bafe9d15d0b809381cec1ec74ecd9213b2487c2c76d7490068d",
      "blockNumber": 110325,
      "transactionIndex": 2,
      "confirmations": null,
      "from": "0xe6A7a1d47ff21B6321162AEA7C6CB457D5476Bca",
      "gasPrice": {
        "_hex": "0xd8697342b"
      },
      "gasLimit": {
        "_hex": "0x55f0"
      },
      "to": "0xe6C9430205BD87DA80B9D5F286442Bf45CB49423",
      "value": {
        "_hex": "0x136e0ef810bcbdb0"
      },
      "nonce": 4119,
      "data": "0x",
      "r": "0xead461daa329e814993b5812159b80be7b07e74e6eaf1679c6a884f6d7c27377",
      "s": "0x61a200231d634b9f4b5f9d4a83e5a83645f5b24c79c9ecba402d7f64023fde14",
      "v": 28,
      "creates": null,
      "raw": "0xf86e821017850d8697342b8255f094e6c9430205bd87da80b9d5f286442bf45cb4942388136e0ef810bcbdb0801ca0ead461daa329e814993b5812159b80be7b07e74e6eaf1679c6a884f6d7c27377a061a200231d634b9f4b5f9d4a83e5a83645f5b24c79c9ecba402d7f64023fde14",
      "networkId": 0,
      "chainId": 0
    }
  ]
}