{
  "hash": "0x25423e68d92d4fc6540f8fd1373f774e8f05eed5f1bd5ee53eee1920f548e5b2",
  "parentHash": "0x4e4636b37fbbfae1d3ab06d24b671a6690677199fe4b865da7adf423436279bd",
  "number": 56080,
  "timestamp": 1439081656,
  "nonce": "0xc345964660ae1503",
  "difficulty": 1630470106242,
  "gasLimit": {
    "_hex": "0x2fefd8"
  },
  "gasUsed": {
    "_hex": "0x5208"
  },
  "miner": "0xf8E0CA3Ed80bd541b94BEdCf259e8CF2141A9523",
  "extraData": "0x476574682f76312e302e312f77696e646f77732f676f312e342e32",
  "transactions": [
    {
      "hash": "0x16eb9dbb766e60ecf51328cb024972595d3f60628e0d87c239e161b0e92e6354",
      "blockHash": "0x25423e68d92d4fc6540f8fd1373f774e8f05eed5f1bd5ee53eee1920f548e5b2",
      "blockNumber": 56080,
      "transactionIndex": 0,
      "confirmations": null,
      "from": "0xEe2e3665531f220d70d01CCaBb559537a2663174",
      "gasPrice": {
        "_hex": "0xd05d846e4"
      },
      "gasLimit": {
        "_hex": "0x5208"
      },
      "to": "0x32Be343B94f860124dC4fEe278FDCBD38C102D88",
      "value": {
        "_hex": "0x455f6539b93f1400"
      },
      "nonce": 1,
      "data": "0x",
      "r": "0x2bf7499870b48398b1168ece85dede67ffeadb3f03da36f86860a76a061c43b0",
      "s": "0x7382cab59f4fff7a11470a8982119dfd1adfa536ba101457081819ef7cb304f8",
      "v": 28,
      "creates": null,
      "raw": "0xf86c01850d05d846e48252089432be343b94f860124dc4fee278fdcbd38c102d8888455f6539b93f1400801ca02bf7499870b48398b1168ece85dede67ffeadb3f03da36f86860a76a061c43b0a07382cab59f4fff7a11470a8982119dfd1adfa536ba101457081819ef7cb304f8",
      "networkId": 0,
      "chainId": 0
    }
  ]
}