{
  "hash": "0xd3b080dcd968c1cfb8e03e33900cf9a844f92f1650fd1c7da2b07c584ffc35ea",
  "parentHash": "0x0c4a4cc8e9af02d70fa529517349ef790d1c3f7326a438b2c87e25b90af843cf",
  "number": 80440,
  "timestamp": 1439485547,
  "nonce": "0xa3ab0033e53231f5",
  "difficulty": 2402691276187,
  "gasLimit": {
    "_hex": "0x2fefd8"
  },
  "gasUsed": {
    "_hex": "0xaa37"
  },
  "miner": "0xC603Ab5ef41fC61AA8b76bEddb09e3Cfcbb174BD",
  "extraData": "0x476574682f76312e302e312f77696e646f77732f676f312e342e32",
  "transactions": [
    {
      "hash": "0x7e3fd05abcfd259cbb57405bf5d8c9addd12015bed3f78ee29be51a659a27f9c",
      "blockHash": "0xd3b080dcd968c1cfb8e03e33900cf9a844f92f1650fd1c7da2b07c584ffc35ea",
      "blockNumber": 80440,
      "transactionIndex": 0,
      "confirmations": null,
      "from": "0x87C5B5874A18B4306DF8a752a6C8cc3E82daFc19",
      "gasPrice": {
        "_hex": "0x10f6242262b"
      },
      "gasLimit": {
        "_hex": "0x493e0"
      },
      "to": "0xC4c51de1AbF5D60DBd329eC0F999Fd8f021ae9fC",
      "value": {
        "_hex": "0x0"
      },
      "nonce": 208,
      "data": "0x03750d9400000000000000000000000087c5b5874a18b4306df8a752a6c8cc3e82dafc196b6b6b0000000000000000000000000000000000000000000000000000000000",
      "r": "0xb9305e5324d1f57b9ae12b3ffd25cc6c965cc5ed8de35e1759d2cf336714718d",
      "s": "0x64219c0c7eedb51abc029ee567bcb708ca84fb81e33ccc282b70e4abd224fb87",
      "v": 27,
      "creates": null,
      "raw": "0xf8ac81d086010f6242262b830493e094c4c51de1abf5d60dbd329ec0f999fd8f021ae9fc80b84403750d9400000000000000000000000087c5b5874a18b4306df8a752a6c8cc3e82dafc196b6b6b00000000000000000000000000000000000000000000000000000000001ba0b9305e5324d1f57b9ae12b3ffd25cc6c965cc5ed8de35e1759d2cf336714718da064219c0c7eedb51abc029ee567bcb708ca84fb81e33ccc282b70e4abd224fb87",
      "networkId": 0,
      "chainId": 0
    }
  ]
}