{
  "hash": "0xa35710285c37e1bbcebaf70f04fe717b0b2fc738c79d96b16b72e37a0c83dc88",
  "parentHash": "0xeb2a0b4522559459d16f4af3c7d7418d3283b69350ae5cb82d083da60a607734",
  "number": 64809,
  "timestamp": 1439226600,
  "nonce": "0x578f260ced001d49",
  "difficulty": 1894029787845,
  "gasLimit": {
    "_hex": "0x2fefd8"
  },
  "gasUsed": {
    "_hex": "0xf618"
  },
  "miner": "0xa50ec0D39fa913E62f1Bae7074E6F36caA71855b",
  "extraData": "0x",
  "transactions": [
    {
      "hash": "0x7d0259cc856c1565b47d47b521a7c4a52260ee753dcb52308eeb7e99b1c4e10b",
      "blockHash": "0xa35710285c37e1bbcebaf70f04fe717b0b2fc738c79d96b16b72e37a0c83dc88",
      "blockNumber": 64809,
      "transactionIndex": 0,
      "confirmations": null,
      "from": "0x2910543Af39abA0Cd09dBb2D50200b3E800A63D2",
      "gasPrice": {
        "_hex": "0xcbb3cc3dc"
      },
      "gasLimit": {
        "_hex": "0x5208"
      },
      "to": "0x57a81b1F363e2868d9669a659e437Fb9e1C5fCAd",
      "value": {
        "_hex": "0x229bc1e324de8000"
      },
      "nonce": 158,
      "data": "0x",
      "r": "0xa3a317c6d17dc36f1485a088cf9a9597315257e5f20aae35d9e561ffff33a5b8",
      "s": "0x351af4f5251d14269737e8d4d5594b88749ca9030663f19a0abdc63febc043f0",
      "v": 28,
      "creates": null,
      "raw": "0xf86d819e850cbb3cc3dc8252089457a81b1f363e2868d9669a659e437fb9e1c5fcad88229bc1e324de8000801ca0a3a317c6d17dc36f1485a088cf9a9597315257e5f20aae35d9e561ffff33a5b8a0351af4f5251d14269737e8d4d5594b88749ca9030663f19a0abdc63febc043f0",
      "networkId": 0,
      "chainId": 0
    },
    {
      "hash": "0x6604536be32a455ad55eb429dbbaee9ba83f282dc13e760d6064a98d62a37a4b",
      "blockHash": "0xa35710285c37e1bbcebaf70f04fe717b0b2fc738c79d96b16b72e37a0c83dc88",
      "blockNumber": 64809,
      "transactionIndex": 1,
      "confirmations": null,
      "from": "0x3a84DF304F068DEdeBD09600db815e691284818D",
      "gasPrice": {
        "_hex": "0xba43b7400"
      },
      "gasLimit": {
        "_hex": "0x5208"
      },
      "to": "0x4Dcf7ffF63B7cbD7AcCEdb81DE2005A7e7a03bea",
      "value": {
        "_hex": "0x17adb9b0233f000"
      },
      "nonce": 1,
      "data": "0x",
      "r": "0x5c953e19627e470783efea897ac7c6a216c9d070331f91524ba1de0ee69df45a",
      "s": "0x49bd3458e71f06435e23afce0480df8c27b75670c1f8a02d4d877f2888930486",
      "v": 28,
      "creates": null,
      "raw": "0xf86c01850ba43b7400825208944dcf7fff63b7cbd7accedb81de2005a7e7a03bea88017adb9b0233f000801ca05c953e19627e470783efea897ac7c6a216c9d070331f91524ba1de0ee69df45aa049bd3458e71f06435e23afce0480df8c27b75670c1f8a02d4d877f2888930486",
      "networkId": 0,
      "chainId": 0
    },
    {
      "hash": "0xc30350b43783f9d04b13da61043699457487f993dbdcf84f8c102b393be6cfe7",
      "blockHash": "0xa35710285c37e1bbcebaf70f04fe717b0b2fc738c79d96b16b72e37a0c83dc88",
      "blockNumber": 64809,
      "transactionIndex": 2,
      "confirmations": null,
      "from": "0xEB66e20bb0f2C6e3c34a574840cb7c2Bf7116Be6",
      "gasPrice": {
        "_hex": "0xba43b7400"
      },
      "gasLimit": {
        "_hex": "0x5208"
      },
      "to": "0x28c8f8e2a6d6254964acbCC8F42f6b1cF8E73bA0",
      "value": {
        "_hex": "0x1a921f4b554d000"
      },
      "nonce": 1,
      "data": "0x",
      "r": "0x2e4743aa2e2196aebbc38f09d0e9890226bbb0644b1b4ee631f45b534286889d",
      "s": "0x1fb5893543a011a677985ea6a8968305cbe4ebd07ba6f17036596d2f5d8779be",
      "v": 27,
      "creates": null,
      "raw": "0xf86c01850ba43b74008252089428c8f8e2a6d6254964acbcc8f42f6b1cf8e73ba08801a921f4b554d000801ba02e4743aa2e2196aebbc38f09d0e9890226bbb0644b1b4ee631f45b534286889da01fb5893543a011a677985ea6a8968305cbe4ebd07ba6f17036596d2f5d8779be",
      "networkId": 0,
      "chainId": 0
    }
  ]
}