{
  "hash": "0x67ef76cc4653039e60d766733fa5fab3e90f86d3d5ab8e4539cb5638b1acf236",
  "parentHash": "0xd6ef167c4cf91d9efc87558eb2fe6a7e77ae84b83d50125ef2bd13c166356530",
  "number": 108574,
  "timestamp": 1439942748,
  "nonce": "0xf382df7dbd910223",
  "difficulty": 4331912472416,
  "gasLimit": {
    "_hex": "0x2fefd8"
  },
  "gasUsed": {
    "_hex": "0x1ec30"
  },
  "miner": "0xD0317e8d007a61B8d740516E8a268D4faDADccbF",
  "extraData": "0x",
  "transactions": [
    {
      "hash": "0x6fb66560bbd22beefe462eb35516777fcd2c61d17fab5430aa3fd9f22da71eb0",
      "blockHash": "0x67ef76cc4653039e60d766733fa5fab3e90f86d3d5ab8e4539cb5638b1acf236",
      "blockNumber": 108574,
      "transactionIndex": 0,
      "confirmations": null,
      "from": "0x32Be343B94f860124dC4fEe278FDCBD38C102D88",
      "gasPrice": {
        "_hex": "0xd75d39079"
      },
      "gasLimit": {
        "_hex": "0x5208"
      },
      "to": "0x1c5882903DB408D54A042Ff314258d9080d1c158",
      "value": {
        "_hex": "0xe043da617250000"
      },
      "nonce": 1252,
      "data": "0x",
      "r": "0xccd0722695b33bb0793252d3020c9952788bd0e5cf061acc71d0bbbba26b5bc4",
      "s": "0x321c4535879d6ff2977146c5a6fa0833633e3ad3463eacf8b32e951c1aea9c66",
      "v": 28,
      "creates": null,
      "raw": "0xf86e8204e4850d75d39079825208941c5882903db408d54a042ff314258d9080d1c158880e043da617250000801ca0ccd0722695b33bb0793252d3020c9952788bd0e5cf061acc71d0bbbba26b5bc4a0321c4535879d6ff2977146c5a6fa0833633e3ad3463eacf8b32e951c1aea9c66",
      "networkId": 0,
      "chainId": 0
    },
    {
      "hash": "0xe5aac1a9c586b0c93341e5ea36ae27c4dee0edf863445bd3029153087f57e3a3",
      "blockHash": "0x67ef76cc4653039e60d766733fa5fab3e90f86d3d5ab8e4539cb5638b1acf236",
      "blockNumber": 108574,
      "transactionIndex": 1,
      "confirmations": null,
      "from": "0x32Be343B94f860124dC4fEe278FDCBD38C102D88",
      "gasPrice": {
        "_hex": "0xd75d39079"
      },
      "gasLimit": {
        "_hex": "0x5208"
      },
      "to": "0x2f0ca050Fc765CA22c752A40a74Fc981BB40D63e",
      "value": {
        "_hex": "0x1a1313c09b13230000"
      },
      "nonce": 1253,
      "data": "0x",
      "r": "0x4c0ed48914007c30c409aacd93d914d0de2082ab6a753ac954e87bd01e34c24e",
      "s": "0x09453277af522c92faa25f3b3bc07f9d1b57ac62664ea9bce499571a0b28f3e2",
      "v": 28,
      "creates": null,
      "raw": "0xf86f8204e5850d75d39079825208942f0ca050fc765ca22c752a40a74fc981bb40d63e891a1313c09b13230000801ca04c0ed48914007c30c409aacd93d914d0de2082ab6a753ac954e87bd01e34c24ea009453277af522c92faa25f3b3bc07f9d1b57ac62664ea9bce499571a0b28f3e2",
      "networkId": 0,
      "chainId": 0
    },
    {
      "hash": "0xe3da97af75799ad61805c1cb124d63c0030a84f25071c61fd497be12cbdcbd2e",
      "blockHash": "0x67ef76cc4653039e60d766733fa5fab3e90f86d3d5ab8e4539cb5638b1acf236",
      "blockNumber": 108574,
      "transactionIndex": 2,
      "confirmations": null,
      "from": "0xC47Aaa860008be6f65B58c6C6E02a84e666EfE31",
      "gasPrice": {
        "_hex": "0xcc6fb95f1"
      },
      "gasLimit": {
        "_hex": "0x15f90"
      },
      "to": "0x65553f5e8FA2eDfCe37Aec51A90ed28777dDe402",
      "value": {
        "_hex": "0xddd2935029d7fff"
      },
      "nonce": 88,
      "data": "0x",
      "r": "0xffe7f47a028fa2b665c093ec53c362e8ddf689d55007734f67b3b6cdb15e1f6f",
      "s": "0x7cc2dc51f73bcaa264031158682a33efda0b0ce038524f0e21048619fa000df2",
      "v": 28,
      "creates": null,
      "raw": "0xf86d58850cc6fb95f183015f909465553f5e8fa2edfce37aec51a90ed28777dde402880ddd2935029d7fff801ca0ffe7f47a028fa2b665c093ec53c362e8ddf689d55007734f67b3b6cdb15e1f6fa07cc2dc51f73bcaa264031158682a33efda0b0ce038524f0e21048619fa000df2",
      "networkId": 0,
      "chainId": 0
    },
    {
      "hash": "0xa6df994601437838dddd184bcade2b46c5cfd893e9b1914a402abc885cffe568",
      "blockHash": "0x67ef76cc4653039e60d766733fa5fab3e90f86d3d5ab8e4539cb5638b1acf236",
      "blockNumber": 108574,
      "transactionIndex": 3,
      "confirmations": null,
      "from": "0xC47Aaa860008be6f65B58c6C6E02a84e666EfE31",
      "gasPrice": {
        "_hex": "0xcc6fb95f1"
      },
      "gasLimit": {
        "_hex": "0x15f90"
      },
      "to": "0xC5421FF9a6C1dfE6fE5BE19FA1322E70b77c8cb1",
      "value": {
        "_hex": "0xddd2935029d7fff"
      },
      "nonce": 89,
      "data": "0x",
      "r": "0x63ff349d96f1dc835db2d1d4afeeff32fc05c31ad3526e2aff2740b6e4f697c3",
      "s": "0x256a50b5f06467a5fafa9506b101daac99f8fc7e9539eea7c14c55e54fa80d5a",
      "v": 27,
      "creates": null,
      "raw": "0xf86d59850cc6fb95f183015f9094c5421ff9a6c1dfe6fe5be19fa1322e70b77c8cb1880ddd2935029d7fff801ba063ff349d96f1dc835db2d1d4afeeff32fc05c31ad3526e2aff2740b6e4f697c3a0256a50b5f06467a5fafa9506b101daac99f8fc7e9539eea7c14c55e54fa80d5a",
      "networkId": 0,
      "chainId": 0
    },
    {
      "hash": "0xf26734125992a797dc917d90ccc414f5ce16e852191cc5ab7e39f99c415a397b",
      "blockHash": "0x67ef76cc4653039e60d766733fa5fab3e90f86d3d5ab8e4539cb5638b1acf236",
      "blockNumber": 108574,
      "transactionIndex": 4,
      "confirmations": null,
      "from": "0xC47Aaa860008be6f65B58c6C6E02a84e666EfE31",
      "gasPrice": {
        "_hex": "0xcc6fb95f1"
      },
      "gasLimit": {
        "_hex": "0x15f90"
      },
      "to": "0x95aC27Ac0ab7B97CA9A05f935A3478b70002D213",
      "value": {
        "_hex": "0xddd2935029d7fff"
      },
      "nonce": 90,
      "data": "0x",
      "r": "0x64848927e177aaa27acda2777595702ff86ab698496d2c6f1f0a2d36641508ad",
      "s": "0x7a31047e93529384019051deaf1ce7eff75ad1cdb6d785b3aa4b07782d22711e",
      "v": 27,
      "creates": null,
      "raw": "0xf86d5a850cc6fb95f183015f909495ac27ac0ab7b97ca9a05f935a3478b70002d213880ddd2935029d7fff801ba064848927e177aaa27acda2777595702ff86ab698496d2c6f1f0a2d36641508ada07a31047e93529384019051deaf1ce7eff75ad1cdb6d785b3aa4b07782d22711e",
      "networkId": 0,
      "chainId": 0
    },
    {
      "hash": "0x8b943d3dfedeff67645169063c38222b489baaf88fde7ae5a6de46f53855c91a",
      "blockHash": "0x67ef76cc4653039e60d766733fa5fab3e90f86d3d5ab8e4539cb5638b1acf236",
      "blockNumber": 108574,
      "transactionIndex": 5,
      "confirmations": null,
      "from": "0x1D3ffA437e5bce40fCC134f4E0ac62841E4A9E81",
      "gasPrice": {
        "_hex": "0xba43b7400"
      },
      "gasLimit": {
        "_hex": "0x5208"
      },
      "to": "0xC47Aaa860008be6f65B58c6C6E02a84e666EfE31",
      "value": {
        "_hex": "0x299e6922c92838f0"
      },
      "nonce": 18,
      "data": "0x",
      "r": "0xb725d0ae8db3152faa55ba52b039c111a886bcc5255a80ceef22e9e78192c24b",
      "s": "0x17ffde984adddef07577b89ae278daf878954b9eca57e02b51664ef96b723ef1",
      "v": 27,
      "creates": null,
      "raw": "0xf86c12850ba43b740082520894c47aaa860008be6f65b58c6c6e02a84e666efe3188299e6922c92838f0801ba0b725d0ae8db3152faa55ba52b039c111a886bcc5255a80ceef22e9e78192c24ba017ffde984adddef07577b89ae278daf878954b9eca57e02b51664ef96b723ef1",
      "networkId": 0,
      "chainId": 0
    }
  ]
}