{
  "hash": "0x478f59c3627c26ef505301c4789330bbf26b24199daf419e984ea52febcbdfc8",
  "parentHash": "0xd859e2f61d1cdc86bf8fd562b0a666a5062cee92f9112637316edd10f8c9c492",
  "number": 118595,
  "timestamp": 1440128388,
  "nonce": "0x8a43b52941bf3e1c",
  "difficulty": 4337316912710,
  "gasLimit": {
    "_hex": "0x2fefd8"
  },
  "gasUsed": {
    "_hex": "0x5208"
  },
  "miner": "0xe6A7a1d47ff21B6321162AEA7C6CB457D5476Bca",
  "extraData": "0xd783010002844765746887676f312e342e32856c696e7578",
  "transactions": [
    {
      "hash": "0xe7c99479f323095cbf7117c9e4f15e40dd5cd6a2b7ac2018021134f1da805257",
      "blockHash": "0x478f59c3627c26ef505301c4789330bbf26b24199daf419e984ea52febcbdfc8",
      "blockNumber": 118595,
      "transactionIndex": 0,
      "confirmations": null,
      "from": "0x007f7f58D3eb5b7510A301eCC749FC1fCDDBE14D",
      "gasPrice": {
        "_hex": "0xba43b7400"
      },
      "gasLimit": {
        "_hex": "0x15f90"
      },
      "to": "0xb1abce2918E21ddb93AA452731a12672A3d9F75a",
      "value": {
        "_hex": "0x4563918244f40000"
      },
      "nonce": 345,
      "data": "0x",
      "r": "0xcfd23dde9af921b0253cd3689b39d7149903fe17cb83e9265cf6a1f68809604f",
      "s": "0x471f4b03ff11b93aeebe8f7cc80cae2f8092f33e0421c09b82d4aa6d31a90fbf",
      "v": 27,
      "creates": null,
      "raw": "0xf86f820159850ba43b740083015f9094b1abce2918e21ddb93aa452731a12672a3d9f75a884563918244f40000801ba0cfd23dde9af921b0253cd3689b39d7149903fe17cb83e9265cf6a1f68809604fa0471f4b03ff11b93aeebe8f7cc80cae2f8092f33e0421c09b82d4aa6d31a90fbf",
      "networkId": 0,
      "chainId": 0
    }
  ]
}