{
  "hash": "0x7d7852d4f259bfb6434e3e7bf2166f446e400b3de97c31f01f539662d939d263",
  "parentHash": "0xe42fd51b826049faa4eade7341e3f423cc9926f992b128d9367a414cde31158d",
  "number": 91602,
  "timestamp": 1439658283,
  "nonce": "0x1179640c906e9223",
  "difficulty": 3498072193014,
  "gasLimit": {
    "_hex": "0x2fefd8"
  },
  "gasUsed": {
    "_hex": "0xa410"
  },
  "miner": "0xE9dEfDfce0C01e6385eD158792d329d53D7569Df",
  "extraData": "0x476574682f76312e302e312f77696e646f77732f676f312e342e32",
  "transactions": [
    {
      "hash": "0xf772bc59f1d1b7529bb45ebe550a97c1c2c8b1b5f0d6131ddbe54f6f111d8a00",
      "blockHash": "0x7d7852d4f259bfb6434e3e7bf2166f446e400b3de97c31f01f539662d939d263",
      "blockNumber": 91602,
      "transactionIndex": 0,
      "confirmations": null,
      "from": "0xcD690730A45cdebeF24F2a3db2de181bFBA5CBea",
      "gasPrice": {
        "_hex": "0xd285c2bfc"
      },
      "gasLimit": {
        "_hex": "0x5208"
      },
      "to": "0x32Be343B94f860124dC4fEe278FDCBD38C102D88",
      "value": {
        "_hex": "0x455f5a2a80c41400"
      },
      "nonce": 4,
      "data": "0x",
      "r": "0xf120e3bf8d1cfb38d42e703d30ed863013cfdf1bd51c781d39f4e56844286a2f",
      "s": "0x3ea9b3429457913eddd760e74002141c3638dd4825e66f8520a8879dcfd59762",
      "v": 28,
      "creates": null,
      "raw": "0xf86c04850d285c2bfc8252089432be343b94f860124dc4fee278fdcbd38c102d8888455f5a2a80c41400801ca0f120e3bf8d1cfb38d42e703d30ed863013cfdf1bd51c781d39f4e56844286a2fa03ea9b3429457913eddd760e74002141c3638dd4825e66f8520a8879dcfd59762",
      "networkId": 0,
      "chainId": 0
    },
    {
      "hash": "0x6db4f65d177c813021cbbddec1458f626546dcadd5549134c87f387b789fd485",
      "blockHash": "0x7d7852d4f259bfb6434e3e7bf2166f446e400b3de97c31f01f539662d939d263",
      "blockNumber": 91602,
      "transactionIndex": 1,
      "confirmations": null,
      "from": "0x32Be343B94f860124dC4fEe278FDCBD38C102D88",
      "gasPrice": {
        "_hex": "0xd285c2bfc"
      },
      "gasLimit": {
        "_hex": "0x5208"
      },
      "to": "0x29062F7438d8fa6ac773F453E356A34542b6f2AF",
      "value": {
        "_hex": "0x1b1ac14ff07f8f0000"
      },
      "nonce": 878,
      "data": "0x",
      "r": "0xe1562776a00a6b9bc2deead6cb6a920b8d7841c2542890adabaa71ce9f485979",
      "s": "0x0da9a40d7cc23126e0078d5f45d858b6bd49436131938c2af683332d9f1fa42e",
      "v": 27,
      "creates": null,
      "raw": "0xf86f82036e850d285c2bfc8252089429062f7438d8fa6ac773f453e356a34542b6f2af891b1ac14ff07f8f0000801ba0e1562776a00a6b9bc2deead6cb6a920b8d7841c2542890adabaa71ce9f485979a00da9a40d7cc23126e0078d5f45d858b6bd49436131938c2af683332d9f1fa42e",
      "networkId": 0,
      "chainId": 0
    }
  ]
}