{
  "hash": "0x70e83b0c3559df72f06b46d88686b7bb6329c7d0945573e3a5ce2b37249d3150",
  "parentHash": "0x5cc3cf50fdbd9d6054b0c37f4f2dfe7238904305366d40fee1650cc1f817ef99",
  "number": 72134,
  "timestamp": 1439347834,
  "nonce": "0x3d7d1c70c21d4dec",
  "difficulty": 2170680159653,
  "gasLimit": {
    "_hex": "0x2fefd8"
  },
  "gasUsed": {
    "_hex": "0x93b2"
  },
  "miner": "0x3222BA3F3e79eA0e31467EEE7639B57923558cCD",
  "extraData": "0x",
  "transactions": [
    {
      "hash": "0x50b08de92c5dbb8ae0ae9ba7768e7dfb85592f6655b13d50c78b68dc52ae0cef",
      "blockHash": "0x70e83b0c3559df72f06b46d88686b7bb6329c7d0945573e3a5ce2b37249d3150",
      "blockNumber": 72134,
      "transactionIndex": 0,
      "confirmations": null,
      "from": "0x17580B766f7453525ca4C6A88b01b50570EA088C",
      "gasPrice": {
        "_hex": "0xccb7c51b6"
      },
      "gasLimit": {
        "_hex": "0x61a80"
      },
      "to": "0x5Fe5B7546D1628f7348B023A0393de1FC825A4fD",
      "value": {
        "_hex": "0x1bc16d674ec80000"
      },
      "nonce": 325,
      "data": "0xb595b8b50000000000000000000000000000000000000000000000000000000000000000",
      "r": "0x265047ba9e05d332edc52771d489b1807fd51e984688f36af0c68f68b1034d08",
      "s": "0x6739acddd59710b764547c46c58702bcb3c07b19f5fe79864cbd0bc4d4a3e5a8",
      "v": 27,
      "creates": null,
      "raw": "0xf893820145850ccb7c51b683061a80945fe5b7546d1628f7348b023a0393de1fc825a4fd881bc16d674ec80000a4b595b8b500000000000000000000000000000000000000000000000000000000000000001ba0265047ba9e05d332edc52771d489b1807fd51e984688f36af0c68f68b1034d08a06739acddd59710b764547c46c58702bcb3c07b19f5fe79864cbd0bc4d4a3e5a8",
      "networkId": 0,
      "chainId": 0
    }
  ]
}