{
  "hash": "0xc1431a15ba8c77cbef43191797b4f40b623601be429ab184bc7add0194e790a1",
  "parentHash": "0xcfdf6fc530d9ed9bddd410bced5e663ee8687c38d81cf0456ec5b3d21bc568d4",
  "number": 96628,
  "timestamp": 1439743308,
  "nonce": "0xf216cc5f5aa24f4c",
  "difficulty": 3714186765593,
  "gasLimit": {
    "_hex": "0x2fefd8"
  },
  "gasUsed": {
    "_hex": "0x5208"
  },
  "miner": "0xf8E0CA3Ed80bd541b94BEdCf259e8CF2141A9523",
  "extraData": "0x476574682f76312e302e312f77696e646f77732f676f312e342e32",
  "transactions": [
    {
      "hash": "0x7b0714004552422f478e0a35f7acd81e0b55dd561ea7bb93fabe4e51815da9e4",
      "blockHash": "0xc1431a15ba8c77cbef43191797b4f40b623601be429ab184bc7add0194e790a1",
      "blockNumber": 96628,
      "transactionIndex": 0,
      "confirmations": null,
      "from": "0x2910543Af39abA0Cd09dBb2D50200b3E800A63D2",
      "gasPrice": {
        "_hex": "0xd63d60588"
      },
      "gasLimit": {
        "_hex": "0x5208"
      },
      "to": "0x0117aCA5D98443a8CE8AeE7aC4BEc8450ABbd852",
      "value": {
        "_hex": "0xc6badc211f98000"
      },
      "nonce": 911,
      "data": "0x",
      "r": "0xbddf8d087e1c16de7215f7300baa2b19706199f0cf8c78982adc7c4297c52c64",
      "s": "0x468f3d9ccb69234208f26fc3149c42f24ff1b93f15725e547c76724f058da25e",
      "v": 28,
      "creates": null,
      "raw": "0xf86e82038f850d63d60588825208940117aca5d98443a8ce8aee7ac4bec8450abbd852880c6badc211f98000801ca0bddf8d087e1c16de7215f7300baa2b19706199f0cf8c78982adc7c4297c52c64a0468f3d9ccb69234208f26fc3149c42f24ff1b93f15725e547c76724f058da25e",
      "networkId": 0,
      "chainId": 0
    }
  ]
}