{
  "hash": "0x36f68393d79e3efd322a5151ea3102a5fdc21181922b8d393586ee64b661afdd",
  "parentHash": "0x13e845974ac72e2572364e92e6150833aa79b84f660802c7f9d5b885379feaf9",
  "number": 63254,
  "timestamp": 1439201641,
  "nonce": "0x9199d80d200c659b",
  "difficulty": 1808513740625,
  "gasLimit": {
    "_hex": "0x2fefd8"
  },
  "gasUsed": {
    "_hex": "0x13005"
  },
  "miner": "0x4F85e43F44D2B0e6f57C9355806cE3e1B3F40Ab8",
  "extraData": "0x476574682f76312e302e312f6c696e75782f676f312e342e32",
  "transactions": [
    {
      "hash": "0xe734a02ff3024bece8fc543d0e42fc502a55acf06d526ac67a2ee0e33babad34",
      "blockHash": "0x36f68393d79e3efd322a5151ea3102a5fdc21181922b8d393586ee64b661afdd",
      "blockNumber": 63254,
      "transactionIndex": 0,
      "confirmations": null,
      "from": "0x87Ef6D8B6a7cBF9b5c8C97f67eE2adc2a73b3F77",
      "gasPrice": {
        "_hex": "0x10c421a41c6"
      },
      "gasLimit": {
        "_hex": "0x61a80"
      },
      "to": "0x020522bF9B8eD6FF41E2fa6765a17E20E2767D64",
      "value": {
        "_hex": "0x56bc75e2d63100000"
      },
      "nonce": 1,
      "data": "0x",
      "r": "0xe44c89c7e122a5478c3c161a87963f733cd32cbdea8874be972c77279947582e",
      "s": "0x4fb221d1c3e47e78b370e1236333ed1ef6e61c57e74ff24ee63c704349f6aee6",
      "v": 27,
      "creates": null,
      "raw": "0xf86f0186010c421a41c683061a8094020522bf9b8ed6ff41e2fa6765a17e20e2767d6489056bc75e2d63100000801ba0e44c89c7e122a5478c3c161a87963f733cd32cbdea8874be972c77279947582ea04fb221d1c3e47e78b370e1236333ed1ef6e61c57e74ff24ee63c704349f6aee6",
      "networkId": 0,
      "chainId": 0
    },
    {
      "hash": "0xa30fc1a683ffc7cebab91383d29700127952dffd675dfa0490fe403f62ba7e5e",
      "blockHash": "0x36f68393d79e3efd322a5151ea3102a5fdc21181922b8d393586ee64b661afdd",
      "blockNumber": 63254,
      "transactionIndex": 1,
      "confirmations": null,
      "from": "0xC25f24A505b8fEF751D8f4FCc397651001F7a160",
      "gasPrice": {
        "_hex": "0xd1beccb0d"
      },
      "gasLimit": {
        "_hex": "0x5208"
      },
      "to": "0x32Be343B94f860124dC4fEe278FDCBD38C102D88",
      "value": {
        "_hex": "0x453bd73631671000"
      },
      "nonce": 7,
      "data": "0x",
      "r": "0xb8258b8693d440bdcf07cfc257d38c1d5919f2d8f9936fbbe7117c49a4787c8d",
      "s": "0x18abeb7ffc031e988baebc9752e8f8b632681ae3eaf98201d69d77742b15f381",
      "v": 28,
      "creates": null,
      "raw": "0xf86c07850d1beccb0d8252089432be343b94f860124dc4fee278fdcbd38c102d8888453bd73631671000801ca0b8258b8693d440bdcf07cfc257d38c1d5919f2d8f9936fbbe7117c49a4787c8da018abeb7ffc031e988baebc9752e8f8b632681ae3eaf98201d69d77742b15f381",
      "networkId": 0,
      "chainId": 0
    }
  ]
}