{
  "hash": "0x1a0bb1c7650af3af51831b452fbc99d71df31ccd74d80911b1f8d54768778f08",
  "parentHash": "0x541ab5c946386c8c5a95903eef7df68bd212141a8e16ffbe866c4a6e75a40ec2",
  "number": 94990,
  "timestamp": 1439717230,
  "nonce": "0x389ea0b3937ba220",
  "difficulty": 3524084316831,
  "gasLimit": {
    "_hex": "0x2fefd8"
  },
  "gasUsed": {
    "_hex": "0x546c"
  },
  "miner": "0x790b8a3cE86E707ED0eD32bF89B3269692a23CC1",
  "extraData": "0xd783010001844765746887676f312e342e32856c696e7578",
  "transactions": [
    {
      "hash": "0x295b47cd643c9740f98fc0fa19ebd664d3e37f3258cbc12ab64318efd2474f55",
      "blockHash": "0x1a0bb1c7650af3af51831b452fbc99d71df31ccd74d80911b1f8d54768778f08",
      "blockNumber": 94990,
      "transactionIndex": 0,
      "confirmations": null,
      "from": "0xEa53c954F4eD97Fd4810111bdAB69EF981eF25B9",
      "gasPrice": {
        "_hex": "0x110c8f7d8de"
      },
      "gasLimit": {
        "_hex": "0xc350"
      },
      "to": "0x2910543Af39abA0Cd09dBb2D50200b3E800A63D2",
      "value": {
        "_hex": "0x3a9c7d9edf84a6c0000"
      },
      "nonce": 0,
      "data": "0x454e48555a564a5a52",
      "r": "0x997f627f3b1de59d15d154dc994471b30f7e03d76a40975b2a24d489d3d4973f",
      "s": "0x39d9ea6305cdc9eb2242f6f3cb6aefa0933d7bed9d6d9160a5cc48b37e455fc4",
      "v": 28,
      "creates": null,
      "raw": "0xf87880860110c8f7d8de82c350942910543af39aba0cd09dbb2d50200b3e800a63d28a03a9c7d9edf84a6c000089454e48555a564a5a521ca0997f627f3b1de59d15d154dc994471b30f7e03d76a40975b2a24d489d3d4973fa039d9ea6305cdc9eb2242f6f3cb6aefa0933d7bed9d6d9160a5cc48b37e455fc4",
      "networkId": 0,
      "chainId": 0
    }
  ]
}