{
  "hash": "0xdff1f2c284ef2d83d6929ea4e6a0976f34f4dccbff811f850846ed54fe03906a",
  "parentHash": "0x73c208cb51713007a76ffc49635dcc94bc2a0ff4736cc7f78ae44297e8a55816",
  "number": 117923,
  "timestamp": 1440117591,
  "nonce": "0x4558b95b68aa77ac",
  "difficulty": 4346144663482,
  "gasLimit": {
    "_hex": "0x2fefd8"
  },
  "gasUsed": {
    "_hex": "0x14820"
  },
  "miner": "0xe6A7a1d47ff21B6321162AEA7C6CB457D5476Bca",
  "extraData": "0xd783010002844765746887676f312e342e32856c696e7578",
  "transactions": [
    {
      "hash": "0xa67323baafc599210f36aed1f1c47c282f5d41beffaea06e20a2c542913b7c78",
      "blockHash": "0xdff1f2c284ef2d83d6929ea4e6a0976f34f4dccbff811f850846ed54fe03906a",
      "blockNumber": 117923,
      "transactionIndex": 0,
      "confirmations": null,
      "from": "0x4D67f4F0Db45b3B5a3424B39ed8d972F710381D5",
      "gasPrice": {
        "_hex": "0xccde83717"
      },
      "gasLimit": {
        "_hex": "0x5208"
      },
      "to": "0x32Be343B94f860124dC4fEe278FDCBD38C102D88",
      "value": {
        "_hex": "0x2f9dfe0c524c98000"
      },
      "nonce": 50,
      "data": "0x",
      "r": "0xf7fc676b464cf4596bab2e8ab2f38bacfdae3f0de7d2fe853a1bb7ccdec9719a",
      "s": "0x2abd3d18b1de55377eb7c9c9b9e69a5e9718043b2963e938a04eb950207c49ce",
      "v": 27,
      "creates": null,
      "raw": "0xf86d32850ccde837178252089432be343b94f860124dc4fee278fdcbd38c102d888902f9dfe0c524c98000801ba0f7fc676b464cf4596bab2e8ab2f38bacfdae3f0de7d2fe853a1bb7ccdec9719aa02abd3d18b1de55377eb7c9c9b9e69a5e9718043b2963e938a04eb950207c49ce",
      "networkId": 0,
      "chainId": 0
    },
    {
      "hash": "0xcf87f94fd9452b09a61b1ba48243b33b12ec5779427dcb8e314734a482fe66b0",
      "blockHash": "0xdff1f2c284ef2d83d6929ea4e6a0976f34f4dccbff811f850846ed54fe03906a",
      "blockNumber": 117923,
      "transactionIndex": 1,
      "confirmations": null,
      "from": "0xA270859a7dD7bEF18258BDE4b85Dd3691FdE277D",
      "gasPrice": {
        "_hex": "0xba43b7400"
      },
      "gasLimit": {
        "_hex": "0x5208"
      },
      "to": "0x32Be343B94f860124dC4fEe278FDCBD38C102D88",
      "value": {
        "_hex": "0x4792448959c61000"
      },
      "nonce": 7,
      "data": "0x",
      "r": "0x45f7b3e3f9ac207f46ddc2849bff252c88a303e44ae28709d48d66a6d5691bb3",
      "s": "0x1ddf8b4f3ea720ee9fbcd63b9076ce80e0ebcc447cd55ff46032cd32563795b1",
      "v": 27,
      "creates": null,
      "raw": "0xf86c07850ba43b74008252089432be343b94f860124dc4fee278fdcbd38c102d88884792448959c61000801ba045f7b3e3f9ac207f46ddc2849bff252c88a303e44ae28709d48d66a6d5691bb3a01ddf8b4f3ea720ee9fbcd63b9076ce80e0ebcc447cd55ff46032cd32563795b1",
      "networkId": 0,
      "chainId": 0
    },
    {
      "hash": "0x97d4f2854adb7958504e0da1a92ffe2d1f66079bc897326156530a31e15b2a18",
      "blockHash": "0xdff1f2c284ef2d83d6929ea4e6a0976f34f4dccbff811f850846ed54fe03906a",
      "blockNumber": 117923,
      "transactionIndex": 2,
      "confirmations": null,
      "from": "0xFc8B1B712E10a89E87176215AED8352b323B7265",
      "gasPrice": {
        "_hex": "0xba43b7400"
      },
      "gasLimit": {
        "_hex": "0x5208"
      },
      "to": "0x32Be343B94f860124dC4fEe278FDCBD38C102D88",
      "value": {
        "_hex": "0x407424bab2511800"
      },
      "nonce": 4,
      "data": "0x",
      "r": "0xe70b61b413ddb0682037768b28589fd6019994d01243900a90d72efef4558836",
      "s": "0x4421d0d2b116ceeb6ca4f0f67aab8ca391332348cecf93b0f22797fd845a1b70",
      "v": 27,
      "creates": null,
      "raw": "0xf86c04850ba43b74008252089432be343b94f860124dc4fee278fdcbd38c102d8888407424bab2511800801ba0e70b61b413ddb0682037768b28589fd6019994d01243900a90d72efef4558836a04421d0d2b116ceeb6ca4f0f67aab8ca391332348cecf93b0f22797fd845a1b70",
      "networkId": 0,
      "chainId": 0
    },
    {
      "hash": "0xff1ab4ac3fe9ff87b445f09ec74fa4f1f2127c89f6a75ca8a08c0012cd9797ae",
      "blockHash": "0xdff1f2c284ef2d83d6929ea4e6a0976f34f4dccbff811f850846ed54fe03906a",
      "blockNumber": 117923,
      "transactionIndex": 3,
      "confirmations": null,
      "from": "0xE21812b7c0Bd57f6922B6A5670BDAec864beEF6b",
      "gasPrice": {
        "_hex": "0xba43b7400"
      },
      "gasLimit": {
        "_hex": "0x5208"
      },
      "to": "0x32Be343B94f860124dC4fEe278FDCBD38C102D88",
      "value": {
        "_hex": "0x2446ed80864de400"
      },
      "nonce": 7,
      "data": "0x",
      "r": "0x47abaa322958145138b56610fdd944ac3aefe106c115f1b38ae52530a7ae4095",
      "s": "0x57c7acbd76a256005f8e8a339aa2b4e63bd45063b0a05b288dbd0c23e7298b01",
      "v": 28,
      "creates": null,
      "raw": "0xf86c07850ba43b74008252089432be343b94f860124dc4fee278fdcbd38c102d88882446ed80864de400801ca047abaa322958145138b56610fdd944ac3aefe106c115f1b38ae52530a7ae4095a057c7acbd76a256005f8e8a339aa2b4e63bd45063b0a05b288dbd0c23e7298b01",
      "networkId": 0,
      "chainId": 0
    }
  ]
}