{
  "hash": "0x50015406be6a9c4ae01effc0f796006085f5593770d70aeaae128f8f5e873b7b",
  "parentHash": "0x801f0ce47a47515ae8d48ed57e928e9cc1fbb71bd42f0f09a6196855628376fa",
  "number": 46700,
  "timestamp": 1438927702,
  "nonce": "0xb63fd92ae959f507",
  "difficulty": 1456052116931,
  "gasLimit": {
    "_hex": "0x728f"
  },
  "gasUsed": {
    "_hex": "0x5208"
  },
  "miner": "0x356CEFb4Eb836DC68403308309E075a31DD991D2",
  "extraData": "0x476574682f76312e302e302f6c696e75782f676f312e342e32",
  "transactions": [
    {
      "hash": "0xa97f58d6672697aaa3751fc678456ad6196a95e0bb928ecb83bc2d7dde39c1fd",
      "blockHash": "0x50015406be6a9c4ae01effc0f796006085f5593770d70aeaae128f8f5e873b7b",
      "blockNumber": 46700,
      "transactionIndex": 0,
      "confirmations": null,
      "from": "0x0cDA12BF72d461BBc479eB92e6491d057e6B5Ad1",
      "gasPrice": {
        "_hex": "0x68c6171400"
      },
      "gasLimit": {
        "_hex": "0x55f0"
      },
      "to": "0xe1237d552429cc333FfD3038Fc3ba3441d0B7ddE",
      "value": {
        "_hex": "0xa2a15d09519be00000"
      },
      "nonce": 6,
      "data": "0x",
      "r": "0xa0a53e589c10a15648a45e9f0c0b568c617bb095211bf717d34f28fc75f01af9",
      "s": "0x23f89178bff62d25195ead5f5b47fbedd987bf9b0bd7d324655b67ad0cb8735d",
      "v": 27,
      "creates": null,
      "raw": "0xf86d068568c61714008255f094e1237d552429cc333ffd3038fc3ba3441d0b7dde89a2a15d09519be00000801ba0a0a53e589c10a15648a45e9f0c0b568c617bb095211bf717d34f28fc75f01af9a023f89178bff62d25195ead5f5b47fbedd987bf9b0bd7d324655b67ad0cb8735d",
      "networkId": 0,
      "chainId": 0
    }
  ]
}