{
  "hash": "0x9848b30558adef782aabe07672718fdd12312398713c1176f5f8430eb7a25bc3",
  "parentHash": "0x02eda374cbf32e5c74293ed7291ee38db1224d67ef6afbc8ef45b750782f8ada",
  "number": 102146,
  "timestamp": 1439833558,
  "nonce": "0x40dc97fcd3fccd05",
  "difficulty": 3905099275632,
  "gasLimit": {
    "_hex": "0x2fefd8"
  },
  "gasUsed": {
    "_hex": "0x5208"
  },
  "miner": "0xaB638742EBe3A78F2a85028350e1AADB86C0a6ed",
  "extraData": "0x",
  "transactions": [
    {
      "hash": "0xe8614a5ec14d61100485b7c4a90f37a9cf3f946b700f75e75495849cb3cd5baa",
      "blockHash": "0x9848b30558adef782aabe07672718fdd12312398713c1176f5f8430eb7a25bc3",
      "blockNumber": 102146,
      "transactionIndex": 0,
      "confirmations": null,
      "from": "0x4959f006CBae0C011BCEDc07F76ee86288B67A88",
      "gasPrice": {
        "_hex": "0xcb9a9427a"
      },
      "gasLimit": {
        "_hex": "0x15f90"
      },
      "to": "0xd6a11e232034E46794bf55A927B2bdf1e73e6cEe",
      "value": {
        "_hex": "0x2386f26fc10000"
      },
      "nonce": 0,
      "data": "0x",
      "r": "0xa9639be79fbc9ce0e1bc4dcfe157118d62a7eb89cf988670e52c63f098238bde",
      "s": "0x7d99d55b86477ce09c66f3d08b179df4f862a0a1fe9bc80222970e53f5be0051",
      "v": 27,
      "creates": null,
      "raw": "0xf86c80850cb9a9427a83015f9094d6a11e232034e46794bf55a927b2bdf1e73e6cee872386f26fc10000801ba0a9639be79fbc9ce0e1bc4dcfe157118d62a7eb89cf988670e52c63f098238bdea07d99d55b86477ce09c66f3d08b179df4f862a0a1fe9bc80222970e53f5be0051",
      "networkId": 0,
      "chainId": 0
    }
  ]
}