{
  "hash": "0x6d75dfcf78e8cd375ced6c6aa334f711230fa10a2079d2c7fed35e7f7c4be4e1",
  "parentHash": "0xe6ade3c7e98413eb92371da356aeb8047b23d73ed55b657a80228372eaf8e3c4",
  "number": 84720,
  "timestamp": 1439553686,
  "nonce": "0xb719de7faa93d7d8",
  "difficulty": 2611862687052,
  "gasLimit": {
    "_hex": "0x2fefd8"
  },
  "gasUsed": {
    "_hex": "0x546c"
  },
  "miner": "0xf927a40C8B7F6E07c5af7FA2155B4864a4112B13",
  "extraData": "0x",
  "transactions": [
    {
      "hash": "0xad2da19f4187302e375713154a4c71c4e4b5d491d7cd1eabb72d91a50e8cfcbb",
      "blockHash": "0x6d75dfcf78e8cd375ced6c6aa334f711230fa10a2079d2c7fed35e7f7c4be4e1",
      "blockNumber": 84720,
      "transactionIndex": 0,
      "confirmations": null,
      "from": "0x055ab658C6F0Ed4F875eD6742e4bC7292D1abbf0",
      "gasPrice": {
        "_hex": "0x110c8f7d8de"
      },
      "gasLimit": {
        "_hex": "0xc350"
      },
      "to": "0x2910543Af39abA0Cd09dBb2D50200b3E800A63D2",
      "value": {
        "_hex": "0x6f05b59d3b20000"
      },
      "nonce": 0,
      "data": "0x454e4d4d34334d5538",
      "r": "0x0b5aa46f1ccf916f00d17707a0571b6eb801ca88cc94afe813d42a15f38c736c",
      "s": "0x335fd2fc37f50b01bd2aafc80a5728bdc635c09e141a51158c29ad8ff706130d",
      "v": 28,
      "creates": null,
      "raw": "0xf87680860110c8f7d8de82c350942910543af39aba0cd09dbb2d50200b3e800a63d28806f05b59d3b2000089454e4d4d34334d55381ca00b5aa46f1ccf916f00d17707a0571b6eb801ca88cc94afe813d42a15f38c736ca0335fd2fc37f50b01bd2aafc80a5728bdc635c09e141a51158c29ad8ff706130d",
      "networkId": 0,
      "chainId": 0
    }
  ]
}