{
  "hash": "0x662aac4bb1407aef5624153c72e0be2ee02ee5db7fc1c9477b52bcbb547282e4",
  "parentHash": "0xbf069ab62d53f1559de91c6c0c7502375345c05b3e1d768d0d366bf5fcd5d68f",
  "number": 112498,
  "timestamp": 1440008467,
  "nonce": "0x0d34cdf9a407de4c",
  "difficulty": 4406670753299,
  "gasLimit": {
    "_hex": "0x2fefd8"
  },
  "gasUsed": {
    "_hex": "0xa410"
  },
  "miner": "0xe6A7a1d47ff21B6321162AEA7C6CB457D5476Bca",
  "extraData": "0x476574682f76312e302e312d38326566323666362f6c696e75782f676f312e34",
  "transactions": [
    {
      "hash": "0xe764367e4cb1f243f870deb3e349376a8892db2c5b2cd8f2d05fbee29755efce",
      "blockHash": "0x662aac4bb1407aef5624153c72e0be2ee02ee5db7fc1c9477b52bcbb547282e4",
      "blockNumber": 112498,
      "transactionIndex": 0,
      "confirmations": null,
      "from": "0x120A270bbC009644e35F0bB6ab13f95b8199c4ad",
      "gasPrice": {
        "_hex": "0xdb972518b"
      },
      "gasLimit": {
        "_hex": "0x3d090"
      },
      "to": "0xA1C2778bD875155d371Aa3dB27348c40Deaf7a9D",
      "value": {
        "_hex": "0x15af1d78b58c400000"
      },
      "nonce": 895,
      "data": "0x",
      "r": "0x01ba6bbe47b916263a7c0d69458ddd02935798cd5d158cb6030b3f8e092e13de",
      "s": "0x7be243c2bfa4517b9c06af51cd643bf97380e6680374fbcba4e9c3b71d5e3b00",
      "v": 28,
      "creates": null,
      "raw": "0xf87082037f850db972518b8303d09094a1c2778bd875155d371aa3db27348c40deaf7a9d8915af1d78b58c400000801ca001ba6bbe47b916263a7c0d69458ddd02935798cd5d158cb6030b3f8e092e13dea07be243c2bfa4517b9c06af51cd643bf97380e6680374fbcba4e9c3b71d5e3b00",
      "networkId": 0,
      "chainId": 0
    },
    {
      "hash": "0x0b98edc976ead897712ff09e97c4118f1db98dfee00cf2ddbc6b0f802fbf97a8",
      "blockHash": "0x662aac4bb1407aef5624153c72e0be2ee02ee5db7fc1c9477b52bcbb547282e4",
      "blockNumber": 112498,
      "transactionIndex": 1,
      "confirmations": null,
      "from": "0x790b8a3cE86E707ED0eD32bF89B3269692a23CC1",
      "gasPrice": {
        "_hex": "0xcdbb9a9a4"
      },
      "gasLimit": {
        "_hex": "0x15f90"
      },
      "to": "0x4D67f4F0Db45b3B5a3424B39ed8d972F710381D5",
      "value": {
        "_hex": "0x33166d5ef36820000"
      },
      "nonce": 48,
      "data": "0x",
      "r": "0x24cc4383e08e275f6940d68e20493d2fdad5253b9190e4ac66d19ae92131a72d",
      "s": "0x39b3d7860214d3280def6c331706f0222c42a7ef5497b774715743bc3270c573",
      "v": 28,
      "creates": null,
      "raw": "0xf86e30850cdbb9a9a483015f90944d67f4f0db45b3b5a3424b39ed8d972f710381d589033166d5ef36820000801ca024cc4383e08e275f6940d68e20493d2fdad5253b9190e4ac66d19ae92131a72da039b3d7860214d3280def6c331706f0222c42a7ef5497b774715743bc3270c573",
      "networkId": 0,
      "chainId": 0
    }
  ]
}