{
  "hash": "0x3c2933d80f1691668eaf9c2ba7e34a80f02ee1f29e198845ae5dae3a6c90927b",
  "parentHash": "0x7d764ad2a1af0611509ec3dceba2c4e32428c32279eba754db990ca9e27bc539",
  "number": 74329,
  "timestamp": 1439384384,
  "nonce": "0x9953ff2589aa16ea",
  "difficulty": 2216157825092,
  "gasLimit": {
    "_hex": "0x2fefd8"
  },
  "gasUsed": {
    "_hex": "0x5208"
  },
  "miner": "0xe6A7a1d47ff21B6321162AEA7C6CB457D5476Bca",
  "extraData": "0x476574682f76312e302e312d38326566323666362f6c696e75782f676f312e34",
  "transactions": [
    {
      "hash": "0x94fc32dacb1dd9a818956f082585bb09842fd597fa5ca306c8750b59ef4a05c3",
      "blockHash": "0x3c2933d80f1691668eaf9c2ba7e34a80f02ee1f29e198845ae5dae3a6c90927b",
      "blockNumber": 74329,
      "transactionIndex": 0,
      "confirmations": null,
      "from": "0x2910543Af39abA0Cd09dBb2D50200b3E800A63D2",
      "gasPrice": {
        "_hex": "0xcd750677f"
      },
      "gasLimit": {
        "_hex": "0x5208"
      },
      "to": "0x574443E2d39ae23b3b15B02729d1Cc6aaD184B2E",
      "value": {
        "_hex": "0x6f05b59d3b200000"
      },
      "nonce": 301,
      "data": "0x",
      "r": "0x2649f7b384ccec4832a973d23196f9b8a10ff60ce144a2e2080825f2998cc006",
      "s": "0x59c34d264ad517540aceb973107e5ef4781458b6209e1a2435de399d249b05c1",
      "v": 27,
      "creates": null,
      "raw": "0xf86e82012d850cd750677f82520894574443e2d39ae23b3b15b02729d1cc6aad184b2e886f05b59d3b200000801ba02649f7b384ccec4832a973d23196f9b8a10ff60ce144a2e2080825f2998cc006a059c34d264ad517540aceb973107e5ef4781458b6209e1a2435de399d249b05c1",
      "networkId": 0,
      "chainId": 0
    }
  ]
}