{
  "hash": "0x1d874f048b5994dc90504098e2e1f7430677361566f73c9bde12fc382887d1e2",
  "parentHash": "0xac26b1cfb1d1a1b44d5f5000797acb101b1180c399fa570aca0c9e7a0740c1bb",
  "number": 103089,
  "timestamp": 1439847536,
  "nonce": "0xb0aae3658d8cf3d0",
  "difficulty": 4166649362728,
  "gasLimit": {
    "_hex": "0x2fefd8"
  },
  "gasUsed": {
    "_hex": "0x5208"
  },
  "miner": "0xe6A7a1d47ff21B6321162AEA7C6CB457D5476Bca",
  "extraData": "0x476574682f76312e302e312d38326566323666362f6c696e75782f676f312e34",
  "transactions": [
    {
      "hash": "0x47174822504edc8ba0a8599ec4acdd076c0d27db479b8bc5ae27feed58b91841",
      "blockHash": "0x1d874f048b5994dc90504098e2e1f7430677361566f73c9bde12fc382887d1e2",
      "blockNumber": 103089,
      "transactionIndex": 0,
      "confirmations": null,
      "from": "0x7892e574CADDBB5E9491DE9F26C1F2747F442eeE",
      "gasPrice": {
        "_hex": "0xba43b7400"
      },
      "gasLimit": {
        "_hex": "0x15f90"
      },
      "to": "0x893FF53FE9b3DA680472E1948F2294F970D44678",
      "value": {
        "_hex": "0x38d7ea4c68000"
      },
      "nonce": 5,
      "data": "0x",
      "r": "0xd19e66bf012e10b2fdcbcb28a7b99b8b525d9af53fdf180acde0e1406357fee6",
      "s": "0x3adba67dcb6fb99b567aa42b2d38d8172ee2510ab21402efec891384b26c3d1d",
      "v": 28,
      "creates": null,
      "raw": "0xf86c05850ba43b740083015f9094893ff53fe9b3da680472e1948f2294f970d4467887038d7ea4c68000801ca0d19e66bf012e10b2fdcbcb28a7b99b8b525d9af53fdf180acde0e1406357fee6a03adba67dcb6fb99b567aa42b2d38d8172ee2510ab21402efec891384b26c3d1d",
      "networkId": 0,
      "chainId": 0
    }
  ]
}