{
  "hash": "0x1d428b63a9c7c64c1c80a5a1e3a2275049e737ce619abef9e29062aa9d978cf4",
  "parentHash": "0x4dc67791e1617e5720bae2bcfc68add0d95db4deb5413671505e0565d71b5fa4",
  "number": 107997,
  "timestamp": 1439932283,
  "nonce": "0x7968d19667386ecd",
  "difficulty": 4355541759482,
  "gasLimit": {
    "_hex": "0x2fefd8"
  },
  "gasUsed": {
    "_hex": "0x5208"
  },
  "miner": "0x580992B51e3925e23280EfB93d3047C82f17E038",
  "extraData": "0x476574682f76312e302e312f6c696e75782f676f312e342e32",
  "transactions": [
    {
      "hash": "0x2c0e77f34d537382ebb5877f990e4b583d37b20a2e5c12059bd5d64ca1863add",
      "blockHash": "0x1d428b63a9c7c64c1c80a5a1e3a2275049e737ce619abef9e29062aa9d978cf4",
      "blockNumber": 107997,
      "transactionIndex": 0,
      "confirmations": null,
      "from": "0x65553f5e8FA2eDfCe37Aec51A90ed28777dDe402",
      "gasPrice": {
        "_hex": "0xde4e2a266"
      },
      "gasLimit": {
        "_hex": "0x5208"
      },
      "to": "0xFBb1b73C4f0BDa4f67dcA266ce6Ef42f520fBB98",
      "value": {
        "_hex": "0x18258ab0e3140d0"
      },
      "nonce": 0,
      "data": "0x",
      "r": "0x54b1870851fe9b7ab82141ff9f0df958f7cd85c8022c105465a5702b09b9d322",
      "s": "0x1a798ed6f538746b62aa1006c4ef1cb4d74abae4e111d772363996f7fcf5db09",
      "v": 27,
      "creates": null,
      "raw": "0xf86c80850de4e2a26682520894fbb1b73c4f0bda4f67dca266ce6ef42f520fbb9888018258ab0e3140d0801ba054b1870851fe9b7ab82141ff9f0df958f7cd85c8022c105465a5702b09b9d322a01a798ed6f538746b62aa1006c4ef1cb4d74abae4e111d772363996f7fcf5db09",
      "networkId": 0,
      "chainId": 0
    }
  ]
}