{
  "hash": "0x5744371aa962b46a91b5343b0bfd68f4fe858966fb4d67ab4f17bedb12daf74e",
  "parentHash": "0x3f951a71593a61e0ecf3d3c670007b0881c04c4dad625f05881befcfde4f4ae7",
  "number": 105953,
  "timestamp": 1439896150,
  "nonce": "0xc7886a7248e88c2e",
  "difficulty": 4473002374900,
  "gasLimit": {
    "_hex": "0x2fefd8"
  },
  "gasUsed": {
    "_hex": "0x5208"
  },
  "miner": "0xf8E0CA3Ed80bd541b94BEdCf259e8CF2141A9523",
  "extraData": "0x476574682f76312e302e312f77696e646f77732f676f312e342e32",
  "transactions": [
    {
      "hash": "0xf264865aae416501dbc64459346cb6ff7c89bc19544316568c4f3a6da6759e91",
      "blockHash": "0x5744371aa962b46a91b5343b0bfd68f4fe858966fb4d67ab4f17bedb12daf74e",
      "blockNumber": 105953,
      "transactionIndex": 0,
      "confirmations": null,
      "from": "0xE300c4587D260cE22a677755Db6429B491A4309E",
      "gasPrice": {
        "_hex": "0xdb72d4fc5"
      },
      "gasLimit": {
        "_hex": "0x15f90"
      },
      "to": "0x06EC48800B2DB3eEfa052e98A9b5Fc2Bf783Ee74",
      "value": {
        "_hex": "0x796e3ea3f8ab0000"
      },
      "nonce": 22,
      "data": "0x",
      "r": "0x4a05fd1c59755122fb90d96df04138c91fa08647155faba46ca712aa86ee54e1",
      "s": "0x556207f8269459862da54abb62a47a9db475a3146c837853dd3ff053fbcb5d6f",
      "v": 27,
      "creates": null,
      "raw": "0xf86d16850db72d4fc583015f909406ec48800b2db3eefa052e98a9b5fc2bf783ee7488796e3ea3f8ab0000801ba04a05fd1c59755122fb90d96df04138c91fa08647155faba46ca712aa86ee54e1a0556207f8269459862da54abb62a47a9db475a3146c837853dd3ff053fbcb5d6f",
      "networkId": 0,
      "chainId": 0
    }
  ]
}