{
  "hash": "0x5b48a34beda2bf68fbce93ff52ecc4e407acb5f88824a0c246d2b48441403025",
  "parentHash": "0xc60c069baeb9134a596c055a93a94b0e658cff7d5f3f7eb535fa09e9a073bce1",
  "number": 64903,
  "timestamp": 1439228089,
  "nonce": "0x7ed8b66314c2fbc9",
  "difficulty": 1908863458540,
  "gasLimit": {
    "_hex": "0x2fefd5"
  },
  "gasUsed": {
    "_hex": "0xbe6c"
  },
  "miner": "0xc8ebccC5F5689Fa8659d83713341e5aD19349448",
  "extraData": "0x476574682f76312e302e302d35363231396135652f6c696e75782f676f312e34",
  "transactions": [
    {
      "hash": "0x07e8548dcffa02005bff5cfb909dcbcf722953ee1e920ef82c30643904986ef2",
      "blockHash": "0x5b48a34beda2bf68fbce93ff52ecc4e407acb5f88824a0c246d2b48441403025",
      "blockNumber": 64903,
      "transactionIndex": 0,
      "confirmations": null,
      "from": "0x1999ed00546629B40dA720685bB56bf43277B265",
      "gasPrice": {
        "_hex": "0xba43b7400"
      },
      "gasLimit": {
        "_hex": "0x15f90"
      },
      "to": "0x793AE8C1b1a160BFc07BFB0d04F85eab1A71F4f2",
      "value": {
        "_hex": "0x0"
      },
      "nonce": 0,
      "data": "0x3ba15036",
      "r": "0xfc9c77fd036a22a86aab77b583e13ffd9b3cfb8b81ab903235c25db0ef185945",
      "s": "0x612011b24a6d7ccee000246adbaa1fa5ba15e4f2f0c52459d12b60b536064165",
      "v": 27,
      "creates": null,
      "raw": "0xf86980850ba43b740083015f9094793ae8c1b1a160bfc07bfb0d04f85eab1a71f4f280843ba150361ba0fc9c77fd036a22a86aab77b583e13ffd9b3cfb8b81ab903235c25db0ef185945a0612011b24a6d7ccee000246adbaa1fa5ba15e4f2f0c52459d12b60b536064165",
      "networkId": 0,
      "chainId": 0
    }
  ]
}