{
  "hash": "0x52981087637b7dbf2c0b1f75b8d3db06a7a1c9683aee17cf0d9fbce12f7445e1",
  "parentHash": "0xee63411b9670e4393c0c2974c0db3d97ed9d5f68ee91cb4c6b6ba5b573a51199",
  "number": 65843,
  "timestamp": 1439243752,
  "nonce": "0x3a268abe9c27dce1",
  "difficulty": 1950099383182,
  "gasLimit": {
    "_hex": "0x2fe3db"
  },
  "gasUsed": {
    "_hex": "0x5208"
  },
  "miner": "0x47ff6576639c2e94762eA5443978D7681C0E78DC",
  "extraData": "0x476574682f76312e302e312f6c696e75782f676f312e342e32",
  "transactions": [
    {
      "hash": "0x9f7bc5d1f8b57339db4b12f650aabb64ee952138662e2e2be601a09ef25bb755",
      "blockHash": "0x52981087637b7dbf2c0b1f75b8d3db06a7a1c9683aee17cf0d9fbce12f7445e1",
      "blockNumber": 65843,
      "transactionIndex": 0,
      "confirmations": null,
      "from": "0x3668a45E28EDD089fcBe31209de076cef5F06501",
      "gasPrice": {
        "_hex": "0xcf693dd9f"
      },
      "gasLimit": {
        "_hex": "0x5208"
      },
      "to": "0x32Be343B94f860124dC4fEe278FDCBD38C102D88",
      "value": {
        "_hex": "0x2b5cdc4398eefc000"
      },
      "nonce": 0,
      "data": "0x",
      "r": "0xc7ff49f6c65dada403bb1686385ec019e76e33436965e67e87f004fcf57b6bb4",
      "s": "0x49df8d49976c1bd1afaa6648953336e97bb3401c86c622f2c26b54af49b34337",
      "v": 28,
      "creates": null,
      "raw": "0xf86d80850cf693dd9f8252089432be343b94f860124dc4fee278fdcbd38c102d888902b5cdc4398eefc000801ca0c7ff49f6c65dada403bb1686385ec019e76e33436965e67e87f004fcf57b6bb4a049df8d49976c1bd1afaa6648953336e97bb3401c86c622f2c26b54af49b34337",
      "networkId": 0,
      "chainId": 0
    }
  ]
}