{
  "hash": "0x6bf4de17a44a5a552a37d089952e54899cd08b4cb9cdb02932dfd927e5925778",
  "parentHash": "0xe304df716b1ba98b68072e4e29b41a91e70e8b4f0864fb7a0f6f405322c05ad0",
  "number": 107808,
  "timestamp": 1439929173,
  "nonce": "0x72fbe81569d96328",
  "difficulty": 4374823010055,
  "gasLimit": {
    "_hex": "0x2fefd8"
  },
  "gasUsed": {
    "_hex": "0x5208"
  },
  "miner": "0xe6A7a1d47ff21B6321162AEA7C6CB457D5476Bca",
  "extraData": "0x476574682f76312e302e312d38326566323666362f6c696e75782f676f312e34",
  "transactions": [
    {
      "hash": "0x52f550178012307d02cb44bb2d024427039c438619cc04009e76ce87ee8d4c25",
      "blockHash": "0x6bf4de17a44a5a552a37d089952e54899cd08b4cb9cdb02932dfd927e5925778",
      "blockNumber": 107808,
      "transactionIndex": 0,
      "confirmations": null,
      "from": "0x2910543Af39abA0Cd09dBb2D50200b3E800A63D2",
      "gasPrice": {
        "_hex": "0xce6a325f7"
      },
      "gasLimit": {
        "_hex": "0x5208"
      },
      "to": "0x2f86ba8019945f39edE131D38d4d8780884DA553",
      "value": {
        "_hex": "0xc327f77ae8b65f8000"
      },
      "nonce": 1055,
      "data": "0x",
      "r": "0x53f9adbf0ac9b9ba96579ded476486f3a4d2726da7ffc9c46da326e8db5acde9",
      "s": "0x3955b4ae9ea1c7791b58cb8948946acc344231111a26741c2e46ac250f417208",
      "v": 28,
      "creates": null,
      "raw": "0xf86f82041f850ce6a325f7825208942f86ba8019945f39ede131d38d4d8780884da55389c327f77ae8b65f8000801ca053f9adbf0ac9b9ba96579ded476486f3a4d2726da7ffc9c46da326e8db5acde9a03955b4ae9ea1c7791b58cb8948946acc344231111a26741c2e46ac250f417208",
      "networkId": 0,
      "chainId": 0
    }
  ]
}