{
  "hash": "0x33d5cd26441bcebd8fcc4d8b656df9dc19630dc41494508894ccc2b4af92cd41",
  "parentHash": "0xae186aaf0862ca1e38ecd6047cc2c0b7d9b13160f121e51e0628b0625d58786d",
  "number": 71078,
  "timestamp": 1439330273,
  "nonce": "0xe5f0236d621e101c",
  "difficulty": 2151956391464,
  "gasLimit": {
    "_hex": "0x2fefd8"
  },
  "gasUsed": {
    "_hex": "0xa410"
  },
  "miner": "0x7E6930B63D03e88F5928C5cd6ee3FCee4D714F7F",
  "extraData": "0x",
  "transactions": [
    {
      "hash": "0xb62cb72d03e3d52dbe0b3398149ad4bb79b78359cbd801452b5dccb3aaaa11d0",
      "blockHash": "0x33d5cd26441bcebd8fcc4d8b656df9dc19630dc41494508894ccc2b4af92cd41",
      "blockNumber": 71078,
      "transactionIndex": 0,
      "confirmations": null,
      "from": "0xf661E21B71A9CA331E251e51a412857D2B61d8F8",
      "gasPrice": {
        "_hex": "0xcd26a27ba"
      },
      "gasLimit": {
        "_hex": "0x7a120"
      },
      "to": "0xa04f46f1e328BF2f564313Be73e6A77Fe870e535",
      "value": {
        "_hex": "0xde0b6b3a7640000"
      },
      "nonce": 3,
      "data": "0x",
      "r": "0xa78277733bd1ba48c7862811509b34837d16a4ba7ff639c431a13908347707f3",
      "s": "0x47e06f70c9b5a5fc8e327fd0011589953aab5126059ac8d1d681558d29aac9f5",
      "v": 28,
      "creates": null,
      "raw": "0xf86d03850cd26a27ba8307a12094a04f46f1e328bf2f564313be73e6a77fe870e535880de0b6b3a7640000801ca0a78277733bd1ba48c7862811509b34837d16a4ba7ff639c431a13908347707f3a047e06f70c9b5a5fc8e327fd0011589953aab5126059ac8d1d681558d29aac9f5",
      "networkId": 0,
      "chainId": 0
    },
    {
      "hash": "0xcba1f359cccf659fe6c1931a1eaf4c284343c7daf7ec63d014e15f0941718b27",
      "blockHash": "0x33d5cd26441bcebd8fcc4d8b656df9dc19630dc41494508894ccc2b4af92cd41",
      "blockNumber": 71078,
      "transactionIndex": 1,
      "confirmations": null,
      "from": "0x120A270bbC009644e35F0bB6ab13f95b8199c4ad",
      "gasPrice": {
        "_hex": "0xcb34199aa"
      },
      "gasLimit": {
        "_hex": "0x15f90"
      },
      "to": "0x4880617F9b93B1e5A9fa6a1B2EB29358D0D38B8d",
      "value": {
        "_hex": "0xe18398e7601900000"
      },
      "nonce": 216,
      "data": "0x",
      "r": "0xce19102a0b53c0d5eafac8c845ce458c9d0993daf273c05fb7da2c14b0df38e1",
      "s": "0x7fb0ea1a8147465e5cad7413c45df80a6657c19e79e4012310d05e1a553f9db8",
      "v": 27,
      "creates": null,
      "raw": "0xf86f81d8850cb34199aa83015f90944880617f9b93b1e5a9fa6a1b2eb29358d0d38b8d890e18398e7601900000801ba0ce19102a0b53c0d5eafac8c845ce458c9d0993daf273c05fb7da2c14b0df38e1a07fb0ea1a8147465e5cad7413c45df80a6657c19e79e4012310d05e1a553f9db8",
      "networkId": 0,
      "chainId": 0
    }
  ]
}