{
  "hash": "0x82f09ee13761ec4ef0039aad1737beebfc2816f4b60a544319132f1dc69b1552",
  "parentHash": "0x8a1de368e3b0784cc220b6238532857abba1d3e8825249ab370f621f5335c7b9",
  "number": 89766,
  "timestamp": 1439628723,
  "nonce": "0xccdc49012809a566",
  "difficulty": 3341876387482,
  "gasLimit": {
    "_hex": "0x2fefd8"
  },
  "gasUsed": {
    "_hex": "0x33450"
  },
  "miner": "0xe6A7a1d47ff21B6321162AEA7C6CB457D5476Bca",
  "extraData": "0x476574682f76312e302e312d38326566323666362f6c696e75782f676f312e34",
  "transactions": [
    {
      "hash": "0x4ca14fbba5f8ef221f6fe03a9020f76e5192ca13a99f83945bbed7674f6e9f76",
      "blockHash": "0x82f09ee13761ec4ef0039aad1737beebfc2816f4b60a544319132f1dc69b1552",
      "blockNumber": 89766,
      "transactionIndex": 0,
      "confirmations": null,
      "from": "0xe6A7a1d47ff21B6321162AEA7C6CB457D5476Bca",
      "gasPrice": {
        "_hex": "0xe080e0387"
      },
      "gasLimit": {
        "_hex": "0x55f0"
      },
      "to": "0x5E4b2D8d8fc2332da92f225890520d41EdB0Ea50",
      "value": {
        "_hex": "0x146d9c7a1019d7d4"
      },
      "nonce": 1977,
      "data": "0x",
      "r": "0xb601f21070258b4c9ed274f4737c03ee6a2aad38d99151dc39e9579765bd101d",
      "s": "0x22cc01a3c5e22456a683b4fb5fb279a55d8116d6968507c270164c4512696256",
      "v": 28,
      "creates": null,
      "raw": "0xf86e8207b9850e080e03878255f0945e4b2d8d8fc2332da92f225890520d41edb0ea5088146d9c7a1019d7d4801ca0b601f21070258b4c9ed274f4737c03ee6a2aad38d99151dc39e9579765bd101da022cc01a3c5e22456a683b4fb5fb279a55d8116d6968507c270164c4512696256",
      "networkId": 0,
      "chainId": 0
    },
    {
      "hash": "0x5ed840fe371cd756379ddbbff45232c9eabd2d3768505ba4fab2e6ffbaa24b14",
      "blockHash": "0x82f09ee13761ec4ef0039aad1737beebfc2816f4b60a544319132f1dc69b1552",
      "blockNumber": 89766,
      "transactionIndex": 1,
      "confirmations": null,
      "from": "0xe6A7a1d47ff21B6321162AEA7C6CB457D5476Bca",
      "gasPrice": {
        "_hex": "0xde0af91fd"
      },
      "gasLimit": {
        "_hex": "0x55f0"
      },
      "to": "0x223eA75ACE9d7F53BC6c131191Aff34B44bd57aC",
      "value": {
        "_hex": "0x14af82b1c964a7f0"
      },
      "nonce": 1978,
      "data": "0x",
      "r": "0x9f349bc2ef6136d2c036d56b68ea832777bef98eae0a344e8a55a347c142fc26",
      "s": "0x09b505a506647446e0131a1b6a45238e9c4db8f82c9ed9cc04d26ba0413f8133",
      "v": 28,
      "creates": null,
      "raw": "0xf86e8207ba850de0af91fd8255f094223ea75ace9d7f53bc6c131191aff34b44bd57ac8814af82b1c964a7f0801ca09f349bc2ef6136d2c036d56b68ea832777bef98eae0a344e8a55a347c142fc26a009b505a506647446e0131a1b6a45238e9c4db8f82c9ed9cc04d26ba0413f8133",
      "networkId": 0,
      "chainId": 0
    },
    {
      "hash": "0xb1b47b9d184cf5d0a04706f77e6b8ced72f8667ffb76b89afa4bbc978c840726",
      "blockHash": "0x82f09ee13761ec4ef0039aad1737beebfc2816f4b60a544319132f1dc69b1552",
      "blockNumber": 89766,
      "transactionIndex": 2,
      "confirmations": null,
      "from": "0xe6A7a1d47ff21B6321162AEA7C6CB457D5476Bca",
      "gasPrice": {
        "_hex": "0xde0af91fd"
      },
      "gasLimit": {
        "_hex": "0x55f0"
      },
      "to": "0x378fCAEF49580b550cB7164f14811a5E613BD683",
      "value": {
        "_hex": "0x14bf89ee5bbe6c50"
      },
      "nonce": 1979,
      "data": "0x",
      "r": "0x87a40c516421c4a1c9d2b33fa9a595913073fbe7be0c9cad36f41bae6b17d049",
      "s": "0x64c478e68fb5ec447757e0410866abc000727f8edbdaeb5fe3dee468fcdc153e",
      "v": 28,
      "creates": null,
      "raw": "0xf86e8207bb850de0af91fd8255f094378fcaef49580b550cb7164f14811a5e613bd6838814bf89ee5bbe6c50801ca087a40c516421c4a1c9d2b33fa9a595913073fbe7be0c9cad36f41bae6b17d049a064c478e68fb5ec447757e0410866abc000727f8edbdaeb5fe3dee468fcdc153e",
      "networkId": 0,
      "chainId": 0
    },
    {
      "hash": "0x03c6d2a660de4f2fc27d0e081824dc718391812a9e2d452dd767e31651867d94",
      "blockHash": "0x82f09ee13761ec4ef0039aad1737beebfc2816f4b60a544319132f1dc69b1552",
      "blockNumber": 89766,
      "transactionIndex": 3,
      "confirmations": null,
      "from": "0xe6A7a1d47ff21B6321162AEA7C6CB457D5476Bca",
      "gasPrice": {
        "_hex": "0xde0af91fd"
      },
      "gasLimit": {
        "_hex": "0x55f0"
      },
      "to": "0x0Ca595962471f3C517a9C71150cB2F722f7298EF",
      "value": {
        "_hex": "0x14d963c72360b724"
      },
      "nonce": 1980,
      "data": "0x",
      "r": "0x0b24bce11c44bb667ea4c09532d1589111e21d57b883ba6ed792e9b176239dbc",
      "s": "0x7c42022b4e100bbc75079b628bbb79770073f2240893aad5d29bd0d77d5b826a",
      "v": 27,
      "creates": null,
      "raw": "0xf86e8207bc850de0af91fd8255f0940ca595962471f3c517a9c71150cb2f722f7298ef8814d963c72360b724801ba00b24bce11c44bb667ea4c09532d1589111e21d57b883ba6ed792e9b176239dbca07c42022b4e100bbc75079b628bbb79770073f2240893aad5d29bd0d77d5b826a",
      "networkId": 0,
      "chainId": 0
    },
    {
      "hash": "0x3a3ddd7a52592c660c8fc59fa931903b86320062acb7366cbb0d88f043e80043",
      "blockHash": "0x82f09ee13761ec4ef0039aad1737beebfc2816f4b60a544319132f1dc69b1552",
      "blockNumber": 89766,
      "transactionIndex": 4,
      "confirmations": null,
      "from": "0xe6A7a1d47ff21B6321162AEA7C6CB457D5476Bca",
      "gasPrice": {
        "_hex": "0xde0af91fd"
      },
      "gasLimit": {
        "_hex": "0x55f0"
      },
      "to": "0x1918175e6aB029996E0BC00238AeA5f89f3F84ad",
      "value": {
        "_hex": "0x1545155536e5a8d0"
      },
      "nonce": 1981,
      "data": "0x",
      "r": "0x3b0923bc4d5bbe79f09a62b186026e8b0e9caee0dd6c658ea4568287cabd8a2e",
      "s": "0x7c7a9ff84b5591af4f91e6f952aad49c7aa2e2c6d877f098a036e8f230013988",
      "v": 27,
      "creates": null,
      "raw": "0xf86e8207bd850de0af91fd8255f0941918175e6ab029996e0bc00238aea5f89f3f84ad881545155536e5a8d0801ba03b0923bc4d5bbe79f09a62b186026e8b0e9caee0dd6c658ea4568287cabd8a2ea07c7a9ff84b5591af4f91e6f952aad49c7aa2e2c6d877f098a036e8f230013988",
      "networkId": 0,
      "chainId": 0
    },
    {
      "hash": "0x98cc26b15454455b66be4de786405b00cb2da66cec42ee27324e47790ae556b8",
      "blockHash": "0x82f09ee13761ec4ef0039aad1737beebfc2816f4b60a544319132f1dc69b1552",
      "blockNumber": 89766,
      "transactionIndex": 5,
      "confirmations": null,
      "from": "0xe6A7a1d47ff21B6321162AEA7C6CB457D5476Bca",
      "gasPrice": {
        "_hex": "0xde0af91fd"
      },
      "gasLimit": {
        "_hex": "0x55f0"
      },
      "to": "0xb9b373b3776bAcfE434e7c2dc66D4Ee715d91C0E",
      "value": {
        "_hex": "0x1557e79a29cf3150"
      },
      "nonce": 1982,
      "data": "0x",
      "r": "0xbf261d6dfd1ec9d41acb48114ccd8f5246b06a146fbd6a6f984db4294ec0e50a",
      "s": "0x3b16eb5343bcf094ce227f5f103670a92a41dc45b4eeb1b3c6a7d0bd94c6f84c",
      "v": 28,
      "creates": null,
      "raw": "0xf86e8207be850de0af91fd8255f094b9b373b3776bacfe434e7c2dc66d4ee715d91c0e881557e79a29cf3150801ca0bf261d6dfd1ec9d41acb48114ccd8f5246b06a146fbd6a6f984db4294ec0e50aa03b16eb5343bcf094ce227f5f103670a92a41dc45b4eeb1b3c6a7d0bd94c6f84c",
      "networkId": 0,
      "chainId": 0
    },
    {
      "hash": "0x869b11240e09c77972919234e08ad0287360c396a1fd88801addedcfc6fbc525",
      "blockHash": "0x82f09ee13761ec4ef0039aad1737beebfc2816f4b60a544319132f1dc69b1552",
      "blockNumber": 89766,
      "transactionIndex": 6,
      "confirmations": null,
      "from": "0xe6A7a1d47ff21B6321162AEA7C6CB457D5476Bca",
      "gasPrice": {
        "_hex": "0xde0af91fd"
      },
      "gasLimit": {
        "_hex": "0x55f0"
      },
      "to": "0xE9c4c542f72044d8296171067B020A6d17F8187b",
      "value": {
        "_hex": "0x156c501fe511c520"
      },
      "nonce": 1983,
      "data": "0x",
      "r": "0x0aaea56c9aad186f7ef61529ccc0774919e443db92d646532b42f0d44c08fa9c",
      "s": "0x48390224c2495cced1b7d79165cb0e1b240237a90d87764135711b6061296bb8",
      "v": 27,
      "creates": null,
      "raw": "0xf86e8207bf850de0af91fd8255f094e9c4c542f72044d8296171067b020a6d17f8187b88156c501fe511c520801ba00aaea56c9aad186f7ef61529ccc0774919e443db92d646532b42f0d44c08fa9ca048390224c2495cced1b7d79165cb0e1b240237a90d87764135711b6061296bb8",
      "networkId": 0,
      "chainId": 0
    },
    {
      "hash": "0x0c7f8e668590d3e9110d4c506140fc696b0860ebbdff1bf956b83deb65d0ef29",
      "blockHash": "0x82f09ee13761ec4ef0039aad1737beebfc2816f4b60a544319132f1dc69b1552",
      "blockNumber": 89766,
      "transactionIndex": 7,
      "confirmations": null,
      "from": "0xe6A7a1d47ff21B6321162AEA7C6CB457D5476Bca",
      "gasPrice": {
        "_hex": "0xde0af91fd"
      },
      "gasLimit": {
        "_hex": "0x55f0"
      },
      "to": "0xdC49b9dc1AbB93Ebb856547a1C0578D65f4A32DE",
      "value": {
        "_hex": "0x157a90623e5b901c"
      },
      "nonce": 1984,
      "data": "0x",
      "r": "0x6a574891d211a61ad5fc3f98e159be5e935b717230aa517ccae3b0f017fdb72d",
      "s": "0x4032fd054e33377abb5c0dc8eea6dbc69169c1ddb2dc98387dd735b02321ae60",
      "v": 27,
      "creates": null,
      "raw": "0xf86e8207c0850de0af91fd8255f094dc49b9dc1abb93ebb856547a1c0578d65f4a32de88157a90623e5b901c801ba06a574891d211a61ad5fc3f98e159be5e935b717230aa517ccae3b0f017fdb72da04032fd054e33377abb5c0dc8eea6dbc69169c1ddb2dc98387dd735b02321ae60",
      "networkId": 0,
      "chainId": 0
    },
    {
      "hash": "0xd65e8166fd7e2bac02ab0a40769ed9e583966ac1f892f19d59dd08fdab57904e",
      "blockHash": "0x82f09ee13761ec4ef0039aad1737beebfc2816f4b60a544319132f1dc69b1552",
      "blockNumber": 89766,
      "transactionIndex": 8,
      "confirmations": null,
      "from": "0xe6A7a1d47ff21B6321162AEA7C6CB457D5476Bca",
      "gasPrice": {
        "_hex": "0xde0af91fd"
      },
      "gasLimit": {
        "_hex": "0x55f0"
      },
      "to": "0x52524C3c4B039D2C330eD2D34973906987B21413",
      "value": {
        "_hex": "0x15961a6001a506a0"
      },
      "nonce": 1985,
      "data": "0x",
      "r": "0x1227e04576de08ff7c0cc9de9e11cbd690a3f82b8840f3de2793e7bce57fbe93",
      "s": "0x3cc9407edf836c87e6414b2104b8eab537f706f41dfd2476e5688e6b6369aeaf",
      "v": 27,
      "creates": null,
      "raw": "0xf86e8207c1850de0af91fd8255f09452524c3c4b039d2c330ed2d34973906987b214138815961a6001a506a0801ba01227e04576de08ff7c0cc9de9e11cbd690a3f82b8840f3de2793e7bce57fbe93a03cc9407edf836c87e6414b2104b8eab537f706f41dfd2476e5688e6b6369aeaf",
      "networkId": 0,
      "chainId": 0
    },
    {
      "hash": "0x102038a6fa4d4ad5745d62d3e8026166f111e7671fb0d1572bb74fadd01bccc8",
      "blockHash": "0x82f09ee13761ec4ef0039aad1737beebfc2816f4b60a544319132f1dc69b1552",
      "blockNumber": 89766,
      "transactionIndex": 9,
      "confirmations": null,
      "from": "0xe6A7a1d47ff21B6321162AEA7C6CB457D5476Bca",
      "gasPrice": {
        "_hex": "0xde0af91fd"
      },
      "gasLimit": {
        "_hex": "0x55f0"
      },
      "to": "0xAba5352947CBaEAcf6B2E11E03EaE0008176aeDF",
      "value": {
        "_hex": "0x159829a9e2e0a610"
      },
      "nonce": 1986,
      "data": "0x",
      "r": "0x5d4786bf90a622a4ac00b23f468d0d46ba8c533302132800c94eb4b213236d9d",
      "s": "0x2fc947f65072413764193224d72babcc7fa272b913c08e672f422ffff5ab0e35",
      "v": 27,
      "creates": null,
      "raw": "0xf86e8207c2850de0af91fd8255f094aba5352947cbaeacf6b2e11e03eae0008176aedf88159829a9e2e0a610801ba05d4786bf90a622a4ac00b23f468d0d46ba8c533302132800c94eb4b213236d9da02fc947f65072413764193224d72babcc7fa272b913c08e672f422ffff5ab0e35",
      "networkId": 0,
      "chainId": 0
    }
  ]
}