{
  "hash": "0xa173e9650b38a67b39a9b88ec9c9578654c5d862fba4a87864dd28d7d2fac784",
  "parentHash": "0x9befb9b802f4f0af8ef17e606a1250c88cf5558529f243b23c5f05421adb5eb9",
  "number": 83745,
  "timestamp": 1439540234,
  "nonce": "0x5c975683b279f6bc",
  "difficulty": 2435995846492,
  "gasLimit": {
    "_hex": "0x2fefd8"
  },
  "gasUsed": {
    "_hex": "0x5208"
  },
  "miner": "0x580992B51e3925e23280EfB93d3047C82f17E038",
  "extraData": "0x476574682f76312e302e312f6c696e75782f676f312e342e32",
  "transactions": [
    {
      "hash": "0xb6eca110fc28d5e080bfbbe2be20615b7321f2fe0bd364fcef97ad0dab9891dc",
      "blockHash": "0xa173e9650b38a67b39a9b88ec9c9578654c5d862fba4a87864dd28d7d2fac784",
      "blockNumber": 83745,
      "transactionIndex": 0,
      "confirmations": null,
      "from": "0xA0cd872D3Abd6c4BaA55f15C35aC05730a1b621b",
      "gasPrice": {
        "_hex": "0xd23b049ac"
      },
      "gasLimit": {
        "_hex": "0x55f0"
      },
      "to": "0xEa4933866ad977Ce24bBb244ECc2C79463454Fe4",
      "value": {
        "_hex": "0x1158e460913d00000"
      },
      "nonce": 1,
      "data": "0x",
      "r": "0xc05ae3d12514013ce05a9c3f051996074f55f625d2831689a565eb5275f1f18d",
      "s": "0x418c4cc297f9acb0f1f686fb1fc516b5f4dfd40f3bc1a9eda565116b80d60580",
      "v": 28,
      "creates": null,
      "raw": "0xf86d01850d23b049ac8255f094ea4933866ad977ce24bbb244ecc2c79463454fe48901158e460913d00000801ca0c05ae3d12514013ce05a9c3f051996074f55f625d2831689a565eb5275f1f18da0418c4cc297f9acb0f1f686fb1fc516b5f4dfd40f3bc1a9eda565116b80d60580",
      "networkId": 0,
      "chainId": 0
    }
  ]
}