{
  "hash": "0x41f6f647cafec89fef8c9f5d36127d871e7a851f038c9a72ba69424bd8d07b97",
  "parentHash": "0xf246fe246d721a88c5cfecdc23b010cf6490f083704c2661d57cb4fd62d53a0b",
  "number": 81165,
  "timestamp": 1439497277,
  "nonce": "0x7b2abda28c43cab5",
  "difficulty": 2441509095658,
  "gasLimit": {
    "_hex": "0x2fefd8"
  },
  "gasUsed": {
    "_hex": "0xa630"
  },
  "miner": "0x85804C279425A6403f00cC9C4b7045dC0CA2F82E",
  "extraData": "0x",
  "transactions": [
    {
      "hash": "0x4cf8144f1da438c851d375918a30d01c6bc0e62325a917786cc6cb03d82b2c36",
      "blockHash": "0x41f6f647cafec89fef8c9f5d36127d871e7a851f038c9a72ba69424bd8d07b97",
      "blockNumber": 81165,
      "transactionIndex": 0,
      "confirmations": null,
      "from": "0xa61e151af0007B7406d969Dce51740caf0D69088",
      "gasPrice": {
        "_hex": "0x10dc90d85e7"
      },
      "gasLimit": {
        "_hex": "0x55f0"
      },
      "to": "0x0000000000000000000000000000000000000000",
      "value": {
        "_hex": "0x16345785d8a0000"
      },
      "nonce": 2,
      "data": "0x454e374242585858",
      "r": "0xcc959610fad024a8b2da57c8d663bf1310237c2a765c0e283fe8ea287e6de8d5",
      "s": "0x51cf12d65a40fc3763e04e84f187116d11d73c1b4cd7d828a627f9dc80d6726b",
      "v": 27,
      "creates": null,
      "raw": "0xf8750286010dc90d85e78255f094000000000000000000000000000000000000000088016345785d8a000088454e3742425858581ba0cc959610fad024a8b2da57c8d663bf1310237c2a765c0e283fe8ea287e6de8d5a051cf12d65a40fc3763e04e84f187116d11d73c1b4cd7d828a627f9dc80d6726b",
      "networkId": 0,
      "chainId": 0
    },
    {
      "hash": "0x6433b739e6e6af82c56a2901c707a8194687c03b860a9bd4d31390655dbc8d8f",
      "blockHash": "0x41f6f647cafec89fef8c9f5d36127d871e7a851f038c9a72ba69424bd8d07b97",
      "blockNumber": 81165,
      "transactionIndex": 1,
      "confirmations": null,
      "from": "0x2910543Af39abA0Cd09dBb2D50200b3E800A63D2",
      "gasPrice": {
        "_hex": "0xd811b3928"
      },
      "gasLimit": {
        "_hex": "0x5208"
      },
      "to": "0xEdD03B3afA58aaE8C5732fF58e26099bc5C10659",
      "value": {
        "_hex": "0xab4dbd7621027f8000"
      },
      "nonce": 447,
      "data": "0x",
      "r": "0xdcfd2885c8e7cfbe029e4a0cc240ab8405dd615fff11b324cb723cd8ad5ac9a4",
      "s": "0x1ddda12ce2306785354b314d9e5df4849d54da850dbf480918aecb39fab01d11",
      "v": 27,
      "creates": null,
      "raw": "0xf86f8201bf850d811b392882520894edd03b3afa58aae8c5732ff58e26099bc5c1065989ab4dbd7621027f8000801ba0dcfd2885c8e7cfbe029e4a0cc240ab8405dd615fff11b324cb723cd8ad5ac9a4a01ddda12ce2306785354b314d9e5df4849d54da850dbf480918aecb39fab01d11",
      "networkId": 0,
      "chainId": 0
    }
  ]
}