{
  "hash": "0xb0267d0a83b4bbbb8214ee25edee9f49fb8ded32a9add50215140d28093480d8",
  "parentHash": "0xe3fadbbd1e6d5e2cbd21d10c5863e9ade1e1569d9390b790316d2c7b4e5e624c",
  "number": 69722,
  "timestamp": 1439308721,
  "nonce": "0x7454779d4674898b",
  "difficulty": 2092205370791,
  "gasLimit": {
    "_hex": "0x2fefd8"
  },
  "gasUsed": {
    "_hex": "0xa410"
  },
  "miner": "0xf927a40C8B7F6E07c5af7FA2155B4864a4112B13",
  "extraData": "0x",
  "transactions": [
    {
      "hash": "0x339eb26bbdcca23526551a93bde56989b96cd1b3b31381e6030f37c9e688e17d",
      "blockHash": "0xb0267d0a83b4bbbb8214ee25edee9f49fb8ded32a9add50215140d28093480d8",
      "blockNumber": 69722,
      "transactionIndex": 0,
      "confirmations": null,
      "from": "0xB6AC12CefF0375Da80503AcCa54bf3061Fa917a8",
      "gasPrice": {
        "_hex": "0xd5e4513d9"
      },
      "gasLimit": {
        "_hex": "0x15f90"
      },
      "to": "0x5fF827e73C5B866c300b824fe12719a3DD350513",
      "value": {
        "_hex": "0xbf8372e26c640000"
      },
      "nonce": 14,
      "data": "0x",
      "r": "0x12bfca6ae1550e07707c813b0e20343f5f8ff8102ace5e8264aba133d3813a49",
      "s": "0x6077c306e367ec9a365e91f4a88e5c561ba78408d86b57cf3ac274597fc559ac",
      "v": 28,
      "creates": null,
      "raw": "0xf86d0e850d5e4513d983015f90945ff827e73c5b866c300b824fe12719a3dd35051388bf8372e26c640000801ca012bfca6ae1550e07707c813b0e20343f5f8ff8102ace5e8264aba133d3813a49a06077c306e367ec9a365e91f4a88e5c561ba78408d86b57cf3ac274597fc559ac",
      "networkId": 0,
      "chainId": 0
    },
    {
      "hash": "0xe64e6bdf6a633c841552b82047cfe14b79208ebe4515172518e6b6881f55aa7e",
      "blockHash": "0xb0267d0a83b4bbbb8214ee25edee9f49fb8ded32a9add50215140d28093480d8",
      "blockNumber": 69722,
      "transactionIndex": 1,
      "confirmations": null,
      "from": "0x528101Ce46B720a2214dcdAe6618A53177ffa377",
      "gasPrice": {
        "_hex": "0xd23ee12e2"
      },
      "gasLimit": {
        "_hex": "0x5208"
      },
      "to": "0x6004d0aECc160A8A377C100C3DA7cEa41F509AeC",
      "value": {
        "_hex": "0x93782284780053400"
      },
      "nonce": 1,
      "data": "0x",
      "r": "0x854e08c9cc913e1fc93b7b6dc69d28526159f79f37ad885669d30d2020c15c4a",
      "s": "0x33e380a7a1b5f507389d402e10f8a9ac50a1a1d114ced023360dd81732bc4d71",
      "v": 27,
      "creates": null,
      "raw": "0xf86d01850d23ee12e2825208946004d0aecc160a8a377c100c3da7cea41f509aec89093782284780053400801ba0854e08c9cc913e1fc93b7b6dc69d28526159f79f37ad885669d30d2020c15c4aa033e380a7a1b5f507389d402e10f8a9ac50a1a1d114ced023360dd81732bc4d71",
      "networkId": 0,
      "chainId": 0
    }
  ]
}