{
  "hash": "0x2edf8f85d24911cb9f17df5b46bf2a9643317220c85857bd7829ebde71ba4603",
  "parentHash": "0x5a79f3e09edc0e88ada180fdc99b428b7fc96134d67925769532beab3f265d1d",
  "number": 70932,
  "timestamp": 1439327637,
  "nonce": "0x06331b5e40bd1292",
  "difficulty": 2162527324498,
  "gasLimit": {
    "_hex": "0x2fefd8"
  },
  "gasUsed": {
    "_hex": "0x21a99"
  },
  "miner": "0xeB1325C8D9d3ea8D74aC11F4B00F1B2367686319",
  "extraData": "0x476574682f76312e302e312f77696e646f77732f676f312e342e32",
  "transactions": [
    {
      "hash": "0x20236757b503e37611c191017a85f9e2aad9748c997033a469d61874b2e1313a",
      "blockHash": "0x2edf8f85d24911cb9f17df5b46bf2a9643317220c85857bd7829ebde71ba4603",
      "blockNumber": 70932,
      "transactionIndex": 0,
      "confirmations": null,
      "from": "0x81139bfdcCA656C430203f72958c543b6580D40C",
      "gasPrice": {
        "_hex": "0x110c8f7d8de"
      },
      "gasLimit": {
        "_hex": "0xc350"
      },
      "to": "0x2910543Af39abA0Cd09dBb2D50200b3E800A63D2",
      "value": {
        "_hex": "0xad78ebc5ac6200000"
      },
      "nonce": 1,
      "data": "0x454e3633564b5a5052",
      "r": "0x69b37112f118117806f71d97bcf396b457d1198581fc3d2aea16d13d87364417",
      "s": "0x9ebda8c79b2168183bf5dd1598e0cb8a3cc74da016cceabd2656cbb4c4cecfd0",
      "v": 27,
      "creates": null,
      "raw": "0xf87701860110c8f7d8de82c350942910543af39aba0cd09dbb2d50200b3e800a63d2890ad78ebc5ac620000089454e3633564b5a50521ba069b37112f118117806f71d97bcf396b457d1198581fc3d2aea16d13d87364417a09ebda8c79b2168183bf5dd1598e0cb8a3cc74da016cceabd2656cbb4c4cecfd0",
      "networkId": 0,
      "chainId": 0
    },
    {
      "hash": "0x1b5185b3e26fcc678acf699bc76cdd0c3814b238a0ede79b8b476a7bc7e22015",
      "blockHash": "0x2edf8f85d24911cb9f17df5b46bf2a9643317220c85857bd7829ebde71ba4603",
      "blockNumber": 70932,
      "transactionIndex": 1,
      "confirmations": null,
      "from": "0xF5d14552B1dCe0d6dc1F320da6FFc8A331cd6f0C",
      "gasPrice": {
        "_hex": "0xdb1800fe4"
      },
      "gasLimit": {
        "_hex": "0x61a80"
      },
      "to": "0x020522bF9B8eD6FF41E2fa6765a17E20E2767D64",
      "value": {
        "_hex": "0x56bc75e2d63100000"
      },
      "nonce": 5,
      "data": "0x",
      "r": "0x19d5117e5d4c5fcd46671d098244d8f207e43e4772a8254f1dca3dfb4cc6e91c",
      "s": "0x1f5d34a375a5fff551f6a056520ef413b78a943255b499a4b8965377de1354ee",
      "v": 28,
      "creates": null,
      "raw": "0xf86e05850db1800fe483061a8094020522bf9b8ed6ff41e2fa6765a17e20e2767d6489056bc75e2d63100000801ca019d5117e5d4c5fcd46671d098244d8f207e43e4772a8254f1dca3dfb4cc6e91ca01f5d34a375a5fff551f6a056520ef413b78a943255b499a4b8965377de1354ee",
      "networkId": 0,
      "chainId": 0
    },
    {
      "hash": "0xf3ea5c8ef32288835086ba0b729a20c6ce35f8878f7bc443f3b9e90c110e774f",
      "blockHash": "0x2edf8f85d24911cb9f17df5b46bf2a9643317220c85857bd7829ebde71ba4603",
      "blockNumber": 70932,
      "transactionIndex": 2,
      "confirmations": null,
      "from": "0x91d32201228cd1Dea4e21d71f7A9e0CeF5de4A39",
      "gasPrice": {
        "_hex": "0xd7d40ace3"
      },
      "gasLimit": {
        "_hex": "0x15f90"
      },
      "to": "0x8C65FdfE51a3493bC533ee2db5b1f639a702F145",
      "value": {
        "_hex": "0xde0b6b3a7640000"
      },
      "nonce": 0,
      "data": "0x6368696e6368696c6c61",
      "r": "0x10d36c2ed421d3327c42f97c5fab61c3e546450c4f983e088c73e518d9723274",
      "s": "0x0f3617edd722b366379b3358aae64672bbd0e7e6d086537597829692ee528801",
      "v": 28,
      "creates": null,
      "raw": "0xf87780850d7d40ace383015f90948c65fdfe51a3493bc533ee2db5b1f639a702f145880de0b6b3a76400008a6368696e6368696c6c611ca010d36c2ed421d3327c42f97c5fab61c3e546450c4f983e088c73e518d9723274a00f3617edd722b366379b3358aae64672bbd0e7e6d086537597829692ee528801",
      "networkId": 0,
      "chainId": 0
    },
    {
      "hash": "0x592c06dd0df8cce1d232a03c10382d4ce22471d48ae00f2c6db1ba945a4585b6",
      "blockHash": "0x2edf8f85d24911cb9f17df5b46bf2a9643317220c85857bd7829ebde71ba4603",
      "blockNumber": 70932,
      "transactionIndex": 3,
      "confirmations": null,
      "from": "0x17580B766f7453525ca4C6A88b01b50570EA088C",
      "gasPrice": {
        "_hex": "0xd4e31c14e"
      },
      "gasLimit": {
        "_hex": "0x61a80"
      },
      "to": "0x5Fe5B7546D1628f7348B023A0393de1FC825A4fD",
      "value": {
        "_hex": "0xde0b6b3a7640000"
      },
      "nonce": 55,
      "data": "0x5808e1c20000000000000000000000000000000000000000000000000000000000000016",
      "r": "0x421c9127a434e3da74b0dfe5c98e71acb2fc33966803b34086dc930019f3b42d",
      "s": "0x16a658414fa128276342d54d525990434557e89d731b52b7d66af15f9a32d466",
      "v": 28,
      "creates": null,
      "raw": "0xf89137850d4e31c14e83061a80945fe5b7546d1628f7348b023a0393de1fc825a4fd880de0b6b3a7640000a45808e1c200000000000000000000000000000000000000000000000000000000000000161ca0421c9127a434e3da74b0dfe5c98e71acb2fc33966803b34086dc930019f3b42da016a658414fa128276342d54d525990434557e89d731b52b7d66af15f9a32d466",
      "networkId": 0,
      "chainId": 0
    }
  ]
}