{
  "hash": "0x48df6dfe6f85e7d6821fa95c1d8a3e8659fc51355186e269ae08d3a5928cb788",
  "parentHash": "0x23c435573b8e38b6dd09958016f9f9c4339eb24491b7c9bd3ab962446d081a73",
  "number": 68411,
  "timestamp": 1439287392,
  "nonce": "0xfd2470fb5d759abd",
  "difficulty": 2017287722897,
  "gasLimit": {
    "_hex": "0x2fefd8"
  },
  "gasUsed": {
    "_hex": "0x12ea94"
  },
  "miner": "0x72e3Ea8234b449531A581F05f1c1E07cceb559d2",
  "extraData": "0x476574682f76312e302e312f6c696e75782f676f312e342e32",
  "transactions": [
    {
      "hash": "0x4e4ebd8911dace6bceee6eff09ebcf24cd6d67d0e45c6bd19fec2591a0ece1ce",
      "blockHash": "0x48df6dfe6f85e7d6821fa95c1d8a3e8659fc51355186e269ae08d3a5928cb788",
      "blockNumber": 68411,
      "transactionIndex": 0,
      "confirmations": null,
      "from": "0xF9d53F9B73309839062739bFCcE3879e0dF9224f",
      "gasPrice": {
        "_hex": "0xba43b7400"
      },
      "gasLimit": {
        "_hex": "0x15f90"
      },
      "to": "0x793AE8C1b1a160BFc07BFB0d04F85eab1A71F4f2",
      "value": {
        "_hex": "0x0"
      },
      "nonce": 0,
      "data": "0x3ba15036",
      "r": "0x2ba70e365318a18b87c54de7fcd1f43b9cedd3ac25d7b47acdfb1283870750fb",
      "s": "0x784ccf187d27a23f69b2e71890f18275592e6e488113eb7bec6ab755e04f6b8e",
      "v": 28,
      "creates": null,
      "raw": "0xf86980850ba43b740083015f9094793ae8c1b1a160bfc07bfb0d04f85eab1a71f4f280843ba150361ca02ba70e365318a18b87c54de7fcd1f43b9cedd3ac25d7b47acdfb1283870750fba0784ccf187d27a23f69b2e71890f18275592e6e488113eb7bec6ab755e04f6b8e",
      "networkId": 0,
      "chainId": 0
    },
    {
      "hash": "0x7046745857e15ab86139da71c3646af3d7fcc4636095b9acce747b65601045cd",
      "blockHash": "0x48df6dfe6f85e7d6821fa95c1d8a3e8659fc51355186e269ae08d3a5928cb788",
      "blockNumber": 68411,
      "transactionIndex": 1,
      "confirmations": null,
      "from": "0xdcF122edD9f9b21eDdFe415B9fE85Dc656160458",
      "gasPrice": {
        "_hex": "0xba43b7400"
      },
      "gasLimit": {
        "_hex": "0x15f90"
      },
      "to": "0x793AE8C1b1a160BFc07BFB0d04F85eab1A71F4f2",
      "value": {
        "_hex": "0x0"
      },
      "nonce": 0,
      "data": "0x3ba15036",
      "r": "0xd8a2d08872ccaee3924eeff168cac9da3462e55f194dabf79348f130dd22c266",
      "s": "0x7fdcc362fea5b5153e79ecaaf47b9d0d55f6b6fa81fbab043f846937625203a5",
      "v": 27,
      "creates": null,
      "raw": "0xf86980850ba43b740083015f9094793ae8c1b1a160bfc07bfb0d04f85eab1a71f4f280843ba150361ba0d8a2d08872ccaee3924eeff168cac9da3462e55f194dabf79348f130dd22c266a07fdcc362fea5b5153e79ecaaf47b9d0d55f6b6fa81fbab043f846937625203a5",
      "networkId": 0,
      "chainId": 0
    },
    {
      "hash": "0x786905ac90218804be0098fb718145b443b56b6a98c3b1ca46c8742af0087e9a",
      "blockHash": "0x48df6dfe6f85e7d6821fa95c1d8a3e8659fc51355186e269ae08d3a5928cb788",
      "blockNumber": 68411,
      "transactionIndex": 2,
      "confirmations": null,
      "from": "0x075463323923dd2e21505493c74d8e9FEcBc62Bd",
      "gasPrice": {
        "_hex": "0xba43b7400"
      },
      "gasLimit": {
        "_hex": "0x15f90"
      },
      "to": "0x793AE8C1b1a160BFc07BFB0d04F85eab1A71F4f2",
      "value": {
        "_hex": "0x0"
      },
      "nonce": 0,
      "data": "0x3ba15036",
      "r": "0xbe98a376771dd5d6730769bb633e09f7967ad49d01a4c7145403149467c26af0",
      "s": "0x4f1e04ebf9c12bcdbf7cc0a94b3b22fe91825acb3f79a7ed71d1ed7af4e6c4cf",
      "v": 28,
      "creates": null,
      "raw": "0xf86980850ba43b740083015f9094793ae8c1b1a160bfc07bfb0d04f85eab1a71f4f280843ba150361ca0be98a376771dd5d6730769bb633e09f7967ad49d01a4c7145403149467c26af0a04f1e04ebf9c12bcdbf7cc0a94b3b22fe91825acb3f79a7ed71d1ed7af4e6c4cf",
      "networkId": 0,
      "chainId": 0
    },
    {
      "hash": "0x3b4930daf1672be834d3dcf1bc13062529b88a9277a51932ba90c58356eafd90",
      "blockHash": "0x48df6dfe6f85e7d6821fa95c1d8a3e8659fc51355186e269ae08d3a5928cb788",
      "blockNumber": 68411,
      "transactionIndex": 3,
      "confirmations": null,
      "from": "0x1Bb700719a9f63CD887DA4a2803feF2dFDEed9C3",
      "gasPrice": {
        "_hex": "0xba43b7400"
      },
      "gasLimit": {
        "_hex": "0x15f90"
      },
      "to": "0x793AE8C1b1a160BFc07BFB0d04F85eab1A71F4f2",
      "value": {
        "_hex": "0x0"
      },
      "nonce": 0,
      "data": "0x3ba15036",
      "r": "0x45bfd3a0e160d3a507a8009f15044b6049630f7f977930c7c7daaacf525a3089",
      "s": "0x62a70120afea8e1c8b6d4493b5fa7f8abaa39fd645d013108d06097bec36ee27",
      "v": 28,
      "creates": null,
      "raw": "0xf86980850ba43b740083015f9094793ae8c1b1a160bfc07bfb0d04f85eab1a71f4f280843ba150361ca045bfd3a0e160d3a507a8009f15044b6049630f7f977930c7c7daaacf525a3089a062a70120afea8e1c8b6d4493b5fa7f8abaa39fd645d013108d06097bec36ee27",
      "networkId": 0,
      "chainId": 0
    },
    {
      "hash": "0x0fb2e5f8017ec8bea9c33591a431f82f49061a090f9bfc6de9578486f082dc6e",
      "blockHash": "0x48df6dfe6f85e7d6821fa95c1d8a3e8659fc51355186e269ae08d3a5928cb788",
      "blockNumber": 68411,
      "transactionIndex": 4,
      "confirmations": null,
      "from": "0x76DdF02a03BF15c2BDC5c52defd562D6A3523832",
      "gasPrice": {
        "_hex": "0xba43b7400"
      },
      "gasLimit": {
        "_hex": "0x15f90"
      },
      "to": "0x793AE8C1b1a160BFc07BFB0d04F85eab1A71F4f2",
      "value": {
        "_hex": "0x0"
      },
      "nonce": 0,
      "data": "0x3ba15036",
      "r": "0x93a5cc167b95e012869524e44bc82e5b36859a720043a024b297438e52c0b7e9",
      "s": "0x059014153101f7491354fb26660895353c163cceb4450de4f1916b1cbd75161e",
      "v": 27,
      "creates": null,
      "raw": "0xf86980850ba43b740083015f9094793ae8c1b1a160bfc07bfb0d04f85eab1a71f4f280843ba150361ba093a5cc167b95e012869524e44bc82e5b36859a720043a024b297438e52c0b7e9a0059014153101f7491354fb26660895353c163cceb4450de4f1916b1cbd75161e",
      "networkId": 0,
      "chainId": 0
    },
    {
      "hash": "0x23a974401d864f88f031df95f3a0bb1182c98be99b53f686f5d013a406358631",
      "blockHash": "0x48df6dfe6f85e7d6821fa95c1d8a3e8659fc51355186e269ae08d3a5928cb788",
      "blockNumber": 68411,
      "transactionIndex": 5,
      "confirmations": null,
      "from": "0xE911e68E68D12d178704A0d63C052Bf9194C126E",
      "gasPrice": {
        "_hex": "0xba43b7400"
      },
      "gasLimit": {
        "_hex": "0x15f90"
      },
      "to": "0x793AE8C1b1a160BFc07BFB0d04F85eab1A71F4f2",
      "value": {
        "_hex": "0x0"
      },
      "nonce": 0,
      "data": "0x3ba15036",
      "r": "0x2b3c14054f322c5fb70ebab31ac366c1936f6818ebac5314dff156dd8eead3b9",
      "s": "0x1442d983f688ac69bec0186993fd095f90ef10f08e2ac326cb90972a26fc103f",
      "v": 28,
      "creates": null,
      "raw": "0xf86980850ba43b740083015f9094793ae8c1b1a160bfc07bfb0d04f85eab1a71f4f280843ba150361ca02b3c14054f322c5fb70ebab31ac366c1936f6818ebac5314dff156dd8eead3b9a01442d983f688ac69bec0186993fd095f90ef10f08e2ac326cb90972a26fc103f",
      "networkId": 0,
      "chainId": 0
    },
    {
      "hash": "0x6f0a0e665b2942b5443b1f268eca21e215955add15714ae31e4f31fcdf6a9ee0",
      "blockHash": "0x48df6dfe6f85e7d6821fa95c1d8a3e8659fc51355186e269ae08d3a5928cb788",
      "blockNumber": 68411,
      "transactionIndex": 6,
      "confirmations": null,
      "from": "0x2A4640F87138253C2343205ae3296669d88a8128",
      "gasPrice": {
        "_hex": "0xba43b7400"
      },
      "gasLimit": {
        "_hex": "0x15f90"
      },
      "to": "0x793AE8C1b1a160BFc07BFB0d04F85eab1A71F4f2",
      "value": {
        "_hex": "0x0"
      },
      "nonce": 0,
      "data": "0x3ba15036",
      "r": "0xf4fea943ea0228673de18ed0dedaaebd3aa9e3a57a4ea11263e330994b278c27",
      "s": "0x2a4f5d856d98b856c152504788c97a504d492da783cb2de495086602f89f0781",
      "v": 28,
      "creates": null,
      "raw": "0xf86980850ba43b740083015f9094793ae8c1b1a160bfc07bfb0d04f85eab1a71f4f280843ba150361ca0f4fea943ea0228673de18ed0dedaaebd3aa9e3a57a4ea11263e330994b278c27a02a4f5d856d98b856c152504788c97a504d492da783cb2de495086602f89f0781",
      "networkId": 0,
      "chainId": 0
    },
    {
      "hash": "0xc036c52376ae8408f44e62ea395d6222c4ae6949e8f7e0e5e9486236c620716f",
      "blockHash": "0x48df6dfe6f85e7d6821fa95c1d8a3e8659fc51355186e269ae08d3a5928cb788",
      "blockNumber": 68411,
      "transactionIndex": 7,
      "confirmations": null,
      "from": "0xEE8784A8609a52036AAA70f2A0E5cBFBeA1aCf09",
      "gasPrice": {
        "_hex": "0xba43b7400"
      },
      "gasLimit": {
        "_hex": "0x15f90"
      },
      "to": "0x793AE8C1b1a160BFc07BFB0d04F85eab1A71F4f2",
      "value": {
        "_hex": "0x0"
      },
      "nonce": 0,
      "data": "0x3ba15036",
      "r": "0x5d25d8540daa24c8bdbe8609c1a0c6458cf436ab940dd78d12ac15ebf5aca00e",
      "s": "0x4a3e4876bd41ba7644ed1544935c6197bbeaff6d1feb76bcf4599d466913eced",
      "v": 27,
      "creates": null,
      "raw": "0xf86980850ba43b740083015f9094793ae8c1b1a160bfc07bfb0d04f85eab1a71f4f280843ba150361ba05d25d8540daa24c8bdbe8609c1a0c6458cf436ab940dd78d12ac15ebf5aca00ea04a3e4876bd41ba7644ed1544935c6197bbeaff6d1feb76bcf4599d466913eced",
      "networkId": 0,
      "chainId": 0
    },
    {
      "hash": "0x73185a74684d2918b84a8dc6647e401a8174163466af9962428d420370befc87",
      "blockHash": "0x48df6dfe6f85e7d6821fa95c1d8a3e8659fc51355186e269ae08d3a5928cb788",
      "blockNumber": 68411,
      "transactionIndex": 8,
      "confirmations": null,
      "from": "0xe86E78088E8aC7F483b3C4A466e4d7B255bAC723",
      "gasPrice": {
        "_hex": "0xba43b7400"
      },
      "gasLimit": {
        "_hex": "0x15f90"
      },
      "to": "0x793AE8C1b1a160BFc07BFB0d04F85eab1A71F4f2",
      "value": {
        "_hex": "0x0"
      },
      "nonce": 0,
      "data": "0x3ba15036",
      "r": "0x71b87b9b080685df19167ff7ce67df7e614516c4f3baec2b61a67a6812a38ed6",
      "s": "0x2e24eeb45e226da16fa06219398f70bdbe15ec61f5347ad49425a8621f42f2f6",
      "v": 27,
      "creates": null,
      "raw": "0xf86980850ba43b740083015f9094793ae8c1b1a160bfc07bfb0d04f85eab1a71f4f280843ba150361ba071b87b9b080685df19167ff7ce67df7e614516c4f3baec2b61a67a6812a38ed6a02e24eeb45e226da16fa06219398f70bdbe15ec61f5347ad49425a8621f42f2f6",
      "networkId": 0,
      "chainId": 0
    },
    {
      "hash": "0x2439cfd9656871a71de54fd1024e14a8d0c350e232c2dd2dfe62bc340e62e3c5",
      "blockHash": "0x48df6dfe6f85e7d6821fa95c1d8a3e8659fc51355186e269ae08d3a5928cb788",
      "blockNumber": 68411,
      "transactionIndex": 9,
      "confirmations": null,
      "from": "0x63b5CF239a3579a0047fcE4B4b4eb8049D275698",
      "gasPrice": {
        "_hex": "0xba43b7400"
      },
      "gasLimit": {
        "_hex": "0x15f90"
      },
      "to": "0x793AE8C1b1a160BFc07BFB0d04F85eab1A71F4f2",
      "value": {
        "_hex": "0x0"
      },
      "nonce": 0,
      "data": "0x3ba15036",
      "r": "0x1c44640aa3f4436036c0dccf24a8954a7e0f33bd9d28d57f4d44da565f074166",
      "s": "0x6c3645a619aa785435a065e1354bd9e6c5b0952ff92b2f88b6d3d1839168d740",
      "v": 28,
      "creates": null,
      "raw": "0xf86980850ba43b740083015f9094793ae8c1b1a160bfc07bfb0d04f85eab1a71f4f280843ba150361ca01c44640aa3f4436036c0dccf24a8954a7e0f33bd9d28d57f4d44da565f074166a06c3645a619aa785435a065e1354bd9e6c5b0952ff92b2f88b6d3d1839168d740",
      "networkId": 0,
      "chainId": 0
    },
    {
      "hash": "0x1db0f2884cf993629d716b4353bbf382d723799f398c678755a533a4a0e785bf",
      "blockHash": "0x48df6dfe6f85e7d6821fa95c1d8a3e8659fc51355186e269ae08d3a5928cb788",
      "blockNumber": 68411,
      "transactionIndex": 10,
      "confirmations": null,
      "from": "0x67Ce514908A9B316C5d27887070322D67b994255",
      "gasPrice": {
        "_hex": "0xba43b7400"
      },
      "gasLimit": {
        "_hex": "0x15f90"
      },
      "to": "0x793AE8C1b1a160BFc07BFB0d04F85eab1A71F4f2",
      "value": {
        "_hex": "0x0"
      },
      "nonce": 0,
      "data": "0x3ba15036",
      "r": "0xafdd3d24983eb02d9ab6686f483fcd41d51ff52fe7e581c3822454db9efb52ba",
      "s": "0x151dce45dbb477cb11ecef4a7fbb13304db9832ae384c1279cacd3c6ef620883",
      "v": 27,
      "creates": null,
      "raw": "0xf86980850ba43b740083015f9094793ae8c1b1a160bfc07bfb0d04f85eab1a71f4f280843ba150361ba0afdd3d24983eb02d9ab6686f483fcd41d51ff52fe7e581c3822454db9efb52baa0151dce45dbb477cb11ecef4a7fbb13304db9832ae384c1279cacd3c6ef620883",
      "networkId": 0,
      "chainId": 0
    },
    {
      "hash": "0x2e8b610eb8df51d0787e921241b2f56396294a7e6c6bcc35d9df9da0b92a4828",
      "blockHash": "0x48df6dfe6f85e7d6821fa95c1d8a3e8659fc51355186e269ae08d3a5928cb788",
      "blockNumber": 68411,
      "transactionIndex": 11,
      "confirmations": null,
      "from": "0x9Bab7780f539D2C6aa49856b1D92f9537ac5f980",
      "gasPrice": {
        "_hex": "0xba43b7400"
      },
      "gasLimit": {
        "_hex": "0x15f90"
      },
      "to": "0x793AE8C1b1a160BFc07BFB0d04F85eab1A71F4f2",
      "value": {
        "_hex": "0x0"
      },
      "nonce": 0,
      "data": "0x3ba15036",
      "r": "0x7ec1eb31205619ddf59dd207d62df6038d68f7b8fa4e162b00b774502e17e77e",
      "s": "0x16077d5c588fc7f3c196cde7597c8dbb3978b2d5a710f8e999b2c14c442fda43",
      "v": 28,
      "creates": null,
      "raw": "0xf86980850ba43b740083015f9094793ae8c1b1a160bfc07bfb0d04f85eab1a71f4f280843ba150361ca07ec1eb31205619ddf59dd207d62df6038d68f7b8fa4e162b00b774502e17e77ea016077d5c588fc7f3c196cde7597c8dbb3978b2d5a710f8e999b2c14c442fda43",
      "networkId": 0,
      "chainId": 0
    },
    {
      "hash": "0x388e85a27700568ab843ecf69659560227a0827bd6e1557370fefa4dde6da1c6",
      "blockHash": "0x48df6dfe6f85e7d6821fa95c1d8a3e8659fc51355186e269ae08d3a5928cb788",
      "blockNumber": 68411,
      "transactionIndex": 12,
      "confirmations": null,
      "from": "0x5ADa9364f934632201003845862615237D0E6A31",
      "gasPrice": {
        "_hex": "0xba43b7400"
      },
      "gasLimit": {
        "_hex": "0x15f90"
      },
      "to": "0x793AE8C1b1a160BFc07BFB0d04F85eab1A71F4f2",
      "value": {
        "_hex": "0x0"
      },
      "nonce": 0,
      "data": "0x3ba15036",
      "r": "0x97ca1f7d4a3c5fa17d208d2d7e70b75daa42b560989ed8058c01cf62474e74e8",
      "s": "0x71ae94afde5e44478fda52834a58154d6c2a952808551e9afac86bd88b75fd07",
      "v": 27,
      "creates": null,
      "raw": "0xf86980850ba43b740083015f9094793ae8c1b1a160bfc07bfb0d04f85eab1a71f4f280843ba150361ba097ca1f7d4a3c5fa17d208d2d7e70b75daa42b560989ed8058c01cf62474e74e8a071ae94afde5e44478fda52834a58154d6c2a952808551e9afac86bd88b75fd07",
      "networkId": 0,
      "chainId": 0
    },
    {
      "hash": "0xcfc1fb73fefa1adb5ce6bdedcb13dbd32f05830a641ce28b691ebda49a55b058",
      "blockHash": "0x48df6dfe6f85e7d6821fa95c1d8a3e8659fc51355186e269ae08d3a5928cb788",
      "blockNumber": 68411,
      "transactionIndex": 13,
      "confirmations": null,
      "from": "0xFA8c94401cFc41730b8D9357067c628a12d8F50c",
      "gasPrice": {
        "_hex": "0xba43b7400"
      },
      "gasLimit": {
        "_hex": "0x15f90"
      },
      "to": "0x793AE8C1b1a160BFc07BFB0d04F85eab1A71F4f2",
      "value": {
        "_hex": "0x0"
      },
      "nonce": 0,
      "data": "0x3ba15036",
      "r": "0x9706a5b489364a1ce8eb02e07b66f68ddcb6186d42240678bfd549d0b3ff56bc",
      "s": "0x0714427b3082e4a09e77aeee9d84c177846c857cf29459e670ded946f12a7b92",
      "v": 28,
      "creates": null,
      "raw": "0xf86980850ba43b740083015f9094793ae8c1b1a160bfc07bfb0d04f85eab1a71f4f280843ba150361ca09706a5b489364a1ce8eb02e07b66f68ddcb6186d42240678bfd549d0b3ff56bca00714427b3082e4a09e77aeee9d84c177846c857cf29459e670ded946f12a7b92",
      "networkId": 0,
      "chainId": 0
    },
    {
      "hash": "0x1cfba63d56059e136c9fe8f756cf22e118a8a4420d03a66c29ed3733e9cf435b",
      "blockHash": "0x48df6dfe6f85e7d6821fa95c1d8a3e8659fc51355186e269ae08d3a5928cb788",
      "blockNumber": 68411,
      "transactionIndex": 14,
      "confirmations": null,
      "from": "0xf637612c4d3862896925EA5939b70d4604421b34",
      "gasPrice": {
        "_hex": "0xba43b7400"
      },
      "gasLimit": {
        "_hex": "0x15f90"
      },
      "to": "0x793AE8C1b1a160BFc07BFB0d04F85eab1A71F4f2",
      "value": {
        "_hex": "0x0"
      },
      "nonce": 0,
      "data": "0x3ba15036",
      "r": "0xa2f981aa7fda59c08580449b572f8f0b3c96a4f3eb49285f5cbeeefbef72cbc8",
      "s": "0x3acfe80b08883d14bfd5d97cf4edbc83990607399d3a7ff0f2f1359bf7444d04",
      "v": 27,
      "creates": null,
      "raw": "0xf86980850ba43b740083015f9094793ae8c1b1a160bfc07bfb0d04f85eab1a71f4f280843ba150361ba0a2f981aa7fda59c08580449b572f8f0b3c96a4f3eb49285f5cbeeefbef72cbc8a03acfe80b08883d14bfd5d97cf4edbc83990607399d3a7ff0f2f1359bf7444d04",
      "networkId": 0,
      "chainId": 0
    },
    {
      "hash": "0x3138f4644c41172910ff1d4f5ebd5cf758f3721bc9128ff48f0b99c729f7077a",
      "blockHash": "0x48df6dfe6f85e7d6821fa95c1d8a3e8659fc51355186e269ae08d3a5928cb788",
      "blockNumber": 68411,
      "transactionIndex": 15,
      "confirmations": null,
      "from": "0x7e31e41Ac07f88c918e8fBFe51935b7EAbbD87d2",
      "gasPrice": {
        "_hex": "0xba43b7400"
      },
      "gasLimit": {
        "_hex": "0x15f90"
      },
      "to": "0x793AE8C1b1a160BFc07BFB0d04F85eab1A71F4f2",
      "value": {
        "_hex": "0x0"
      },
      "nonce": 0,
      "data": "0x3ba15036",
      "r": "0x58973e290a18a76eb3b115259a5895f79b7fa837b00b443383cf827f7124fbf4",
      "s": "0x50c9ae86c43b78b386bdb1b576d945187e17b066659a1c66cdb72711eb899c24",
      "v": 27,
      "creates": null,
      "raw": "0xf86980850ba43b740083015f9094793ae8c1b1a160bfc07bfb0d04f85eab1a71f4f280843ba150361ba058973e290a18a76eb3b115259a5895f79b7fa837b00b443383cf827f7124fbf4a050c9ae86c43b78b386bdb1b576d945187e17b066659a1c66cdb72711eb899c24",
      "networkId": 0,
      "chainId": 0
    },
    {
      "hash": "0x1c13716dc50dfe39d03f27f2ba4c52672f5c666b27a73b0c22e0af63e5524452",
      "blockHash": "0x48df6dfe6f85e7d6821fa95c1d8a3e8659fc51355186e269ae08d3a5928cb788",
      "blockNumber": 68411,
      "transactionIndex": 16,
      "confirmations": null,
      "from": "0xd07c28E0675b4A7fb5F5F1624520dD0Edc7Baa70",
      "gasPrice": {
        "_hex": "0xba43b7400"
      },
      "gasLimit": {
        "_hex": "0x15f90"
      },
      "to": "0x793AE8C1b1a160BFc07BFB0d04F85eab1A71F4f2",
      "value": {
        "_hex": "0x0"
      },
      "nonce": 0,
      "data": "0x3ba15036",
      "r": "0x61ea264de9120f6a42ee5d371ef729ec81f0054fb5ef6dbcd4cfd8d1d9101e59",
      "s": "0x4d9fcd5631c169e338ac1310957b530d2345f02245f994c28875d46288f2b5af",
      "v": 27,
      "creates": null,
      "raw": "0xf86980850ba43b740083015f9094793ae8c1b1a160bfc07bfb0d04f85eab1a71f4f280843ba150361ba061ea264de9120f6a42ee5d371ef729ec81f0054fb5ef6dbcd4cfd8d1d9101e59a04d9fcd5631c169e338ac1310957b530d2345f02245f994c28875d46288f2b5af",
      "networkId": 0,
      "chainId": 0
    },
    {
      "hash": "0xbc7a72ac5ed4f693f752e72c972f1038b536e87dcb3c69893d06d875407636a5",
      "blockHash": "0x48df6dfe6f85e7d6821fa95c1d8a3e8659fc51355186e269ae08d3a5928cb788",
      "blockNumber": 68411,
      "transactionIndex": 17,
      "confirmations": null,
      "from": "0x938C45cfae0b71bf30402A545Ae800344ba3261f",
      "gasPrice": {
        "_hex": "0xba43b7400"
      },
      "gasLimit": {
        "_hex": "0x15f90"
      },
      "to": "0x793AE8C1b1a160BFc07BFB0d04F85eab1A71F4f2",
      "value": {
        "_hex": "0x0"
      },
      "nonce": 0,
      "data": "0x3ba15036",
      "r": "0xd7bd9a93303cbe05dcb3bd0b371011b226b7876f3c0bfef4de2c88f60e71b93c",
      "s": "0x7f210ef6c3b7e21df50f1dbcfa1dd510c1bd02a4a8a72d6e910f0a1ec020da21",
      "v": 27,
      "creates": null,
      "raw": "0xf86980850ba43b740083015f9094793ae8c1b1a160bfc07bfb0d04f85eab1a71f4f280843ba150361ba0d7bd9a93303cbe05dcb3bd0b371011b226b7876f3c0bfef4de2c88f60e71b93ca07f210ef6c3b7e21df50f1dbcfa1dd510c1bd02a4a8a72d6e910f0a1ec020da21",
      "networkId": 0,
      "chainId": 0
    },
    {
      "hash": "0xc8594384bd9e3e7f91a5abcea0a8782ae175912666faf244144b68eece916e1c",
      "blockHash": "0x48df6dfe6f85e7d6821fa95c1d8a3e8659fc51355186e269ae08d3a5928cb788",
      "blockNumber": 68411,
      "transactionIndex": 18,
      "confirmations": null,
      "from": "0xfbb161Fe875F09290A4B262BC60110848F0D2226",
      "gasPrice": {
        "_hex": "0xba43b7400"
      },
      "gasLimit": {
        "_hex": "0x5208"
      },
      "to": "0x678e56B6f93163213D619B73A22cc42fD2855CB5",
      "value": {
        "_hex": "0x6c6b8fa093903c6000"
      },
      "nonce": 0,
      "data": "0x",
      "r": "0xb5b0436462c80bdf7a82f7ea3dd6f462d022d69b6e867d7170f226f6adeee8b5",
      "s": "0xa222dda40c1ee751efa4046617abc1815da3f021fa7a47acc7c60b753de1cd18",
      "v": 27,
      "creates": null,
      "raw": "0xf86d80850ba43b740082520894678e56b6f93163213d619b73a22cc42fd2855cb5896c6b8fa093903c6000801ba0b5b0436462c80bdf7a82f7ea3dd6f462d022d69b6e867d7170f226f6adeee8b5a0a222dda40c1ee751efa4046617abc1815da3f021fa7a47acc7c60b753de1cd18",
      "networkId": 0,
      "chainId": 0
    },
    {
      "hash": "0x1477df0be5930793425d7f6c335fa8f1ab931a9909522f8658511b855ac7e6ea",
      "blockHash": "0x48df6dfe6f85e7d6821fa95c1d8a3e8659fc51355186e269ae08d3a5928cb788",
      "blockNumber": 68411,
      "transactionIndex": 19,
      "confirmations": null,
      "from": "0xE1cc11868D59150955F9418CDF7cF0e0dDdf08f6",
      "gasPrice": {
        "_hex": "0xba43b7400"
      },
      "gasLimit": {
        "_hex": "0x15f90"
      },
      "to": "0x793AE8C1b1a160BFc07BFB0d04F85eab1A71F4f2",
      "value": {
        "_hex": "0x0"
      },
      "nonce": 0,
      "data": "0x3ba15036",
      "r": "0xfe7c12c335d3628b7f49449ac30b52f9d6da3466841e7a86cb3f623f3f8425c0",
      "s": "0x0d41e20035fd24096a5b34618a494e908b67f92b174743c312b1fef165a4df85",
      "v": 28,
      "creates": null,
      "raw": "0xf86980850ba43b740083015f9094793ae8c1b1a160bfc07bfb0d04f85eab1a71f4f280843ba150361ca0fe7c12c335d3628b7f49449ac30b52f9d6da3466841e7a86cb3f623f3f8425c0a00d41e20035fd24096a5b34618a494e908b67f92b174743c312b1fef165a4df85",
      "networkId": 0,
      "chainId": 0
    },
    {
      "hash": "0xf2193988bdfd119ad6cdb9edb09b8c0bf93a76d9315bb8819897c491c72b0d78",
      "blockHash": "0x48df6dfe6f85e7d6821fa95c1d8a3e8659fc51355186e269ae08d3a5928cb788",
      "blockNumber": 68411,
      "transactionIndex": 20,
      "confirmations": null,
      "from": "0x9ab934e3A4bE47c95768236c8C7C90542A3E2FDf",
      "gasPrice": {
        "_hex": "0xba43b7400"
      },
      "gasLimit": {
        "_hex": "0x15f90"
      },
      "to": "0x793AE8C1b1a160BFc07BFB0d04F85eab1A71F4f2",
      "value": {
        "_hex": "0x0"
      },
      "nonce": 0,
      "data": "0x3ba15036",
      "r": "0xaa9ad9a2c3a8e4bc06df0ced1a5ebfb04e3b5a81a56724f7c675e9f9d39751d8",
      "s": "0x176ecd65f4e7fbc5b71e833cdf1eb5ea52ab970405df8c76e932a88f6ccd4b2b",
      "v": 28,
      "creates": null,
      "raw": "0xf86980850ba43b740083015f9094793ae8c1b1a160bfc07bfb0d04f85eab1a71f4f280843ba150361ca0aa9ad9a2c3a8e4bc06df0ced1a5ebfb04e3b5a81a56724f7c675e9f9d39751d8a0176ecd65f4e7fbc5b71e833cdf1eb5ea52ab970405df8c76e932a88f6ccd4b2b",
      "networkId": 0,
      "chainId": 0
    },
    {
      "hash": "0xc6519ed4dc923522edd43d83aed5323ce815233552ef34ea745207768de69309",
      "blockHash": "0x48df6dfe6f85e7d6821fa95c1d8a3e8659fc51355186e269ae08d3a5928cb788",
      "blockNumber": 68411,
      "transactionIndex": 21,
      "confirmations": null,
      "from": "0x6C8B51bA3eF6445Bc26f3641f99a391827b365b6",
      "gasPrice": {
        "_hex": "0xba43b7400"
      },
      "gasLimit": {
        "_hex": "0x15f90"
      },
      "to": "0x793AE8C1b1a160BFc07BFB0d04F85eab1A71F4f2",
      "value": {
        "_hex": "0x0"
      },
      "nonce": 0,
      "data": "0x3ba15036",
      "r": "0x6de1ca567bd5b1fb447514f46c97673814aedf1c4b7514ec46cc746d735b51f1",
      "s": "0x070831e06d4d422807fc69376c4f90c9f992da9d1beb3b0e83d41ea300e1de0f",
      "v": 28,
      "creates": null,
      "raw": "0xf86980850ba43b740083015f9094793ae8c1b1a160bfc07bfb0d04f85eab1a71f4f280843ba150361ca06de1ca567bd5b1fb447514f46c97673814aedf1c4b7514ec46cc746d735b51f1a0070831e06d4d422807fc69376c4f90c9f992da9d1beb3b0e83d41ea300e1de0f",
      "networkId": 0,
      "chainId": 0
    },
    {
      "hash": "0xb5567dbdcc1b479aaa8e3c98f42a6723c1ccc2df7afcbc0af6d43b1cd2b28ff6",
      "blockHash": "0x48df6dfe6f85e7d6821fa95c1d8a3e8659fc51355186e269ae08d3a5928cb788",
      "blockNumber": 68411,
      "transactionIndex": 22,
      "confirmations": null,
      "from": "0x92F6d00F74F8931b3A3758f4Aa6d04F8A35F48Ba",
      "gasPrice": {
        "_hex": "0xba43b7400"
      },
      "gasLimit": {
        "_hex": "0x15f90"
      },
      "to": "0x793AE8C1b1a160BFc07BFB0d04F85eab1A71F4f2",
      "value": {
        "_hex": "0x0"
      },
      "nonce": 0,
      "data": "0x3ba15036",
      "r": "0x35bd2ac2ec425adc09c3c8ca1d2e0a5f6e64055d7f9fd3d3fb41bf3785e72ed7",
      "s": "0x0d04eafc93a1fe25694cb5ad5a6861a7ae3ff6670f6ad51d21bdacb6c1002f81",
      "v": 28,
      "creates": null,
      "raw": "0xf86980850ba43b740083015f9094793ae8c1b1a160bfc07bfb0d04f85eab1a71f4f280843ba150361ca035bd2ac2ec425adc09c3c8ca1d2e0a5f6e64055d7f9fd3d3fb41bf3785e72ed7a00d04eafc93a1fe25694cb5ad5a6861a7ae3ff6670f6ad51d21bdacb6c1002f81",
      "networkId": 0,
      "chainId": 0
    },
    {
      "hash": "0xe4e40009f40ba33eb19e4d97a92a4174c1314b56c9a6e25201a3584c07460233",
      "blockHash": "0x48df6dfe6f85e7d6821fa95c1d8a3e8659fc51355186e269ae08d3a5928cb788",
      "blockNumber": 68411,
      "transactionIndex": 23,
      "confirmations": null,
      "from": "0x9b98398cE9dce2DeA30F57234732a8fcaaEfe43E",
      "gasPrice": {
        "_hex": "0xba43b7400"
      },
      "gasLimit": {
        "_hex": "0x15f90"
      },
      "to": "0x793AE8C1b1a160BFc07BFB0d04F85eab1A71F4f2",
      "value": {
        "_hex": "0x0"
      },
      "nonce": 0,
      "data": "0x3ba15036",
      "r": "0xba9b1d36cc77f2dc3396fb22e1b3a8628307727091335bdce6dacbd7d7f590ef",
      "s": "0x3b6c277fdfc6a24538ea0e9395b291d7875bc265e9d87e9f74e29ee6a8990602",
      "v": 28,
      "creates": null,
      "raw": "0xf86980850ba43b740083015f9094793ae8c1b1a160bfc07bfb0d04f85eab1a71f4f280843ba150361ca0ba9b1d36cc77f2dc3396fb22e1b3a8628307727091335bdce6dacbd7d7f590efa03b6c277fdfc6a24538ea0e9395b291d7875bc265e9d87e9f74e29ee6a8990602",
      "networkId": 0,
      "chainId": 0
    },
    {
      "hash": "0x2c40e0ebf594f98cd576cc9c25a87dd96ac618cc9a8ec7f2a141152795927690",
      "blockHash": "0x48df6dfe6f85e7d6821fa95c1d8a3e8659fc51355186e269ae08d3a5928cb788",
      "blockNumber": 68411,
      "transactionIndex": 24,
      "confirmations": null,
      "from": "0x03AF1A1b92ef0F8A8210e75176E3dB5E8b69c287",
      "gasPrice": {
        "_hex": "0xba43b7400"
      },
      "gasLimit": {
        "_hex": "0x15f90"
      },
      "to": "0x793AE8C1b1a160BFc07BFB0d04F85eab1A71F4f2",
      "value": {
        "_hex": "0x0"
      },
      "nonce": 0,
      "data": "0x3ba15036",
      "r": "0xfccd3843f1ae6dc31249e3c15fb8ccc2b2b2fa2561b4cad308a5c7e3bba3b9a4",
      "s": "0x24a327176ee518b614f691e61d8e8b7d817bf41af40f9f1e1b9859e127774083",
      "v": 28,
      "creates": null,
      "raw": "0xf86980850ba43b740083015f9094793ae8c1b1a160bfc07bfb0d04f85eab1a71f4f280843ba150361ca0fccd3843f1ae6dc31249e3c15fb8ccc2b2b2fa2561b4cad308a5c7e3bba3b9a4a024a327176ee518b614f691e61d8e8b7d817bf41af40f9f1e1b9859e127774083",
      "networkId": 0,
      "chainId": 0
    },
    {
      "hash": "0xcf3b4d23cf7106c70a753ccd7d5a1d9553fdb0b2af5ab99ed12ae540eb418d9b",
      "blockHash": "0x48df6dfe6f85e7d6821fa95c1d8a3e8659fc51355186e269ae08d3a5928cb788",
      "blockNumber": 68411,
      "transactionIndex": 25,
      "confirmations": null,
      "from": "0x13D0f8853Cb144752aBb4433E9a8530a313287ae",
      "gasPrice": {
        "_hex": "0xba43b7400"
      },
      "gasLimit": {
        "_hex": "0x15f90"
      },
      "to": "0x793AE8C1b1a160BFc07BFB0d04F85eab1A71F4f2",
      "value": {
        "_hex": "0x0"
      },
      "nonce": 0,
      "data": "0x3ba15036",
      "r": "0xa3a81debe71d50378680f02c36d3d3413eac3e9e5c9ff361ba20adc1bc17fcd5",
      "s": "0x671ef75cad52ad2913fae0c6ac7e876358d3d00a209f6c81e51463227e56d9d7",
      "v": 27,
      "creates": null,
      "raw": "0xf86980850ba43b740083015f9094793ae8c1b1a160bfc07bfb0d04f85eab1a71f4f280843ba150361ba0a3a81debe71d50378680f02c36d3d3413eac3e9e5c9ff361ba20adc1bc17fcd5a0671ef75cad52ad2913fae0c6ac7e876358d3d00a209f6c81e51463227e56d9d7",
      "networkId": 0,
      "chainId": 0
    }
  ]
}