{
  "hash": "0x5427584eff74499aac3f930340b59364d9f1bb4346e1c390277085db694c037f",
  "parentHash": "0xaa07da146cd37435cef3edc344acd0b21d9e2a4810bf183b3fd8842020bfc3db",
  "number": 98137,
  "timestamp": 1439767629,
  "nonce": "0xb5d9e58e3f5b4d76",
  "difficulty": 3878455069709,
  "gasLimit": {
    "_hex": "0x2fefd8"
  },
  "gasUsed": {
    "_hex": "0xa410"
  },
  "miner": "0xe6A7a1d47ff21B6321162AEA7C6CB457D5476Bca",
  "extraData": "0x476574682f76312e302e312d38326566323666362f6c696e75782f676f312e34",
  "transactions": [
    {
      "hash": "0x31f142d7b0ec6813bc4bb4ff41ab4dd8f8e69fa34ab02767c0735f13b8a8f8b1",
      "blockHash": "0x5427584eff74499aac3f930340b59364d9f1bb4346e1c390277085db694c037f",
      "blockNumber": 98137,
      "transactionIndex": 0,
      "confirmations": null,
      "from": "0xC759dc67E0c3816fdC56A2f5bb29920fc07e767D",
      "gasPrice": {
        "_hex": "0xd6b187d36"
      },
      "gasLimit": {
        "_hex": "0x5208"
      },
      "to": "0x910a4aADabb3A7B3F7879118332E13Da66b68D77",
      "value": {
        "_hex": "0x8ac7230489e80000"
      },
      "nonce": 22,
      "data": "0x",
      "r": "0x7c461cf7e905e8354442ace449a3b9cf092854d5083c9e024cff922aca72749e",
      "s": "0x26f978576c48c8d0f730bbe0f30075cc91ae3bf48fb86b80e14baa4a7a5f42d8",
      "v": 27,
      "creates": null,
      "raw": "0xf86c16850d6b187d3682520894910a4aadabb3a7b3f7879118332e13da66b68d77888ac7230489e80000801ba07c461cf7e905e8354442ace449a3b9cf092854d5083c9e024cff922aca72749ea026f978576c48c8d0f730bbe0f30075cc91ae3bf48fb86b80e14baa4a7a5f42d8",
      "networkId": 0,
      "chainId": 0
    },
    {
      "hash": "0xfd7fdc3fba29c643571fe74c6ed64e2ce5bc23327387cb0bb5cdc60a1f516d28",
      "blockHash": "0x5427584eff74499aac3f930340b59364d9f1bb4346e1c390277085db694c037f",
      "blockNumber": 98137,
      "transactionIndex": 1,
      "confirmations": null,
      "from": "0x120A270bbC009644e35F0bB6ab13f95b8199c4ad",
      "gasPrice": {
        "_hex": "0xcb9e46f5d"
      },
      "gasLimit": {
        "_hex": "0x3d090"
      },
      "to": "0xef39804Fd2836Ef471E13ecFa2B91C42C368cE76",
      "value": {
        "_hex": "0xde0b6b3a7640000"
      },
      "nonce": 650,
      "data": "0x",
      "r": "0x89c4a5bdab1c7d4298f23e132e99b6b4ebf3737101c2e7ac7668b0a4fe446d61",
      "s": "0x4c1d7ee11b5aa349e4ec4d28fb3b02421dc3424a196fd8686d04bc950b66594f",
      "v": 27,
      "creates": null,
      "raw": "0xf86f82028a850cb9e46f5d8303d09094ef39804fd2836ef471e13ecfa2b91c42c368ce76880de0b6b3a7640000801ba089c4a5bdab1c7d4298f23e132e99b6b4ebf3737101c2e7ac7668b0a4fe446d61a04c1d7ee11b5aa349e4ec4d28fb3b02421dc3424a196fd8686d04bc950b66594f",
      "networkId": 0,
      "chainId": 0
    }
  ]
}