{
  "hash": "0x549232a374e620038f0baa10d242f77e9f5a1775581a13f7f67380f4eb060866",
  "parentHash": "0xb139c95c54ed04683aac319d321cbc9ebb4c9ebdae1811d7c011d73958a2da6a",
  "number": 70702,
  "timestamp": 1439324187,
  "nonce": "0xe91ae9b1eb7ced3a",
  "difficulty": 2141570391497,
  "gasLimit": {
    "_hex": "0x2fefd8"
  },
  "gasUsed": {
    "_hex": "0x23e38"
  },
  "miner": "0x7E6930B63D03e88F5928C5cd6ee3FCee4D714F7F",
  "extraData": "0x",
  "transactions": [
    {
      "hash": "0xdbd3cc87b759e7384d9909658af1301f69780c65e53fb8488ab94fcb27c29f04",
      "blockHash": "0x549232a374e620038f0baa10d242f77e9f5a1775581a13f7f67380f4eb060866",
      "blockNumber": 70702,
      "transactionIndex": 0,
      "confirmations": null,
      "from": "0x314c7Daa4825ffC0293819119c5FDCC0CcF19827",
      "gasPrice": {
        "_hex": "0xdf588e31c"
      },
      "gasLimit": {
        "_hex": "0x5208"
      },
      "to": "0x32Be343B94f860124dC4fEe278FDCBD38C102D88",
      "value": {
        "_hex": "0xddc3d9ee37aa400"
      },
      "nonce": 8,
      "data": "0x",
      "r": "0xb028b2aed4c17ec5beb03690a0e862d108dff0ea28e67d1b2d2e865df1a2632f",
      "s": "0x6ca1f998fa1ab971e6e86c238674f9a798ecbc1f8767b3c6b822fd38564f7daf",
      "v": 28,
      "creates": null,
      "raw": "0xf86c08850df588e31c8252089432be343b94f860124dc4fee278fdcbd38c102d88880ddc3d9ee37aa400801ca0b028b2aed4c17ec5beb03690a0e862d108dff0ea28e67d1b2d2e865df1a2632fa06ca1f998fa1ab971e6e86c238674f9a798ecbc1f8767b3c6b822fd38564f7daf",
      "networkId": 0,
      "chainId": 0
    },
    {
      "hash": "0x71c5469767907b555f55b4ff59500a0c2a94ad67067122073da4443d0d748b4f",
      "blockHash": "0x549232a374e620038f0baa10d242f77e9f5a1775581a13f7f67380f4eb060866",
      "blockNumber": 70702,
      "transactionIndex": 1,
      "confirmations": null,
      "from": "0xC624b0Cd3307f6CFFC473f5019FA380E6811ee58",
      "gasPrice": {
        "_hex": "0xdf588e31c"
      },
      "gasLimit": {
        "_hex": "0x5208"
      },
      "to": "0x32Be343B94f860124dC4fEe278FDCBD38C102D88",
      "value": {
        "_hex": "0xddc3d9ee37aa400"
      },
      "nonce": 6,
      "data": "0x",
      "r": "0x4be01a2bf1c9c2ca01b91f3a7b571699dd2c61fa603d221043492b64eae5d554",
      "s": "0x1aadaa6f1ba1723057111384d2f0c38930c9240ed9904618c0ab5ab98cee8b41",
      "v": 27,
      "creates": null,
      "raw": "0xf86c06850df588e31c8252089432be343b94f860124dc4fee278fdcbd38c102d88880ddc3d9ee37aa400801ba04be01a2bf1c9c2ca01b91f3a7b571699dd2c61fa603d221043492b64eae5d554a01aadaa6f1ba1723057111384d2f0c38930c9240ed9904618c0ab5ab98cee8b41",
      "networkId": 0,
      "chainId": 0
    },
    {
      "hash": "0xf712d80942bcbee55a23e723f47886cc3ba2c14acd3c13f35c813269761243dd",
      "blockHash": "0x549232a374e620038f0baa10d242f77e9f5a1775581a13f7f67380f4eb060866",
      "blockNumber": 70702,
      "transactionIndex": 2,
      "confirmations": null,
      "from": "0xa70a9a7040d542C632D8e0bE7c5513A8a5Bbc752",
      "gasPrice": {
        "_hex": "0xdf588e31c"
      },
      "gasLimit": {
        "_hex": "0x5208"
      },
      "to": "0x32Be343B94f860124dC4fEe278FDCBD38C102D88",
      "value": {
        "_hex": "0x455f186d810aa400"
      },
      "nonce": 10,
      "data": "0x",
      "r": "0xf4fd02a710756777639551863c6c76203853705d45d175c89827d2eefcffa955",
      "s": "0x6a3d4e146e5073f8549931ee8763f65418b24d35c9c2ab0e7e061abca86c4fcb",
      "v": 28,
      "creates": null,
      "raw": "0xf86c0a850df588e31c8252089432be343b94f860124dc4fee278fdcbd38c102d8888455f186d810aa400801ca0f4fd02a710756777639551863c6c76203853705d45d175c89827d2eefcffa955a06a3d4e146e5073f8549931ee8763f65418b24d35c9c2ab0e7e061abca86c4fcb",
      "networkId": 0,
      "chainId": 0
    },
    {
      "hash": "0xeba2bcea909da4aad633252a2bff46ffdda1e5c1f49e81ba7e48fc0f56247693",
      "blockHash": "0x549232a374e620038f0baa10d242f77e9f5a1775581a13f7f67380f4eb060866",
      "blockNumber": 70702,
      "transactionIndex": 3,
      "confirmations": null,
      "from": "0x50056353D06a71b1f427499419D04F81f5dE4F20",
      "gasPrice": {
        "_hex": "0xdf588e31c"
      },
      "gasLimit": {
        "_hex": "0x5208"
      },
      "to": "0x32Be343B94f860124dC4fEe278FDCBD38C102D88",
      "value": {
        "_hex": "0x1e7d5f90a40f8d00000"
      },
      "nonce": 2,
      "data": "0x",
      "r": "0x0e976cc8120e51ab1b322527257f22c7a9836638f18f9cb6f1d7669dc35ceff8",
      "s": "0x76d88df0bf87f4957da1c9794dafdb90cf27591e3196182a97222f0d2a56aabf",
      "v": 27,
      "creates": null,
      "raw": "0xf86e02850df588e31c8252089432be343b94f860124dc4fee278fdcbd38c102d888a01e7d5f90a40f8d00000801ba00e976cc8120e51ab1b322527257f22c7a9836638f18f9cb6f1d7669dc35ceff8a076d88df0bf87f4957da1c9794dafdb90cf27591e3196182a97222f0d2a56aabf",
      "networkId": 0,
      "chainId": 0
    },
    {
      "hash": "0x62148832c04d91bea7453a6bd0f0164b26324ae46b6b5e7661bc8eba9d0e89ec",
      "blockHash": "0x549232a374e620038f0baa10d242f77e9f5a1775581a13f7f67380f4eb060866",
      "blockNumber": 70702,
      "transactionIndex": 4,
      "confirmations": null,
      "from": "0xa9f5E7bf6Cbf6fEc55B30850Eb492b47A376d050",
      "gasPrice": {
        "_hex": "0xdf588e31c"
      },
      "gasLimit": {
        "_hex": "0x5208"
      },
      "to": "0x32Be343B94f860124dC4fEe278FDCBD38C102D88",
      "value": {
        "_hex": "0x2ef22592a77c5e0000"
      },
      "nonce": 10,
      "data": "0x",
      "r": "0xb03a1f616b810e1b2a8dc43e9bcddf009d7319d4cf9fc888c7719e4fa48613cb",
      "s": "0x638dce419adb2972e8c25cee062af3d12720a57bc22f2ebfd3296050c4695baa",
      "v": 27,
      "creates": null,
      "raw": "0xf86d0a850df588e31c8252089432be343b94f860124dc4fee278fdcbd38c102d88892ef22592a77c5e0000801ba0b03a1f616b810e1b2a8dc43e9bcddf009d7319d4cf9fc888c7719e4fa48613cba0638dce419adb2972e8c25cee062af3d12720a57bc22f2ebfd3296050c4695baa",
      "networkId": 0,
      "chainId": 0
    },
    {
      "hash": "0x81c49ac779d770e8af629db0ff7bccfab6b06ba3644bde93d64ce59b12cbfa5e",
      "blockHash": "0x549232a374e620038f0baa10d242f77e9f5a1775581a13f7f67380f4eb060866",
      "blockNumber": 70702,
      "transactionIndex": 5,
      "confirmations": null,
      "from": "0x4319c276D263FDd9156052Bb78B548E6ED740a86",
      "gasPrice": {
        "_hex": "0xdf588e31c"
      },
      "gasLimit": {
        "_hex": "0x5208"
      },
      "to": "0x32Be343B94f860124dC4fEe278FDCBD38C102D88",
      "value": {
        "_hex": "0x6c6b8ee276f9580000"
      },
      "nonce": 2,
      "data": "0x",
      "r": "0xfbdec3e240b15631827f704197c3c2d250b1b9ba1cecf90f0535619ea693c584",
      "s": "0x21211caea239adb62a284cf3788aee2d38afeafa84f4c5875c4009b61a27a28f",
      "v": 27,
      "creates": null,
      "raw": "0xf86d02850df588e31c8252089432be343b94f860124dc4fee278fdcbd38c102d88896c6b8ee276f9580000801ba0fbdec3e240b15631827f704197c3c2d250b1b9ba1cecf90f0535619ea693c584a021211caea239adb62a284cf3788aee2d38afeafa84f4c5875c4009b61a27a28f",
      "networkId": 0,
      "chainId": 0
    },
    {
      "hash": "0x0b8ca3583bad6339a02454e4b9d134debdf017b63dfd74cfe86fc41afef47179",
      "blockHash": "0x549232a374e620038f0baa10d242f77e9f5a1775581a13f7f67380f4eb060866",
      "blockNumber": 70702,
      "transactionIndex": 6,
      "confirmations": null,
      "from": "0xF87481A262E993a75F791E7859E71BaC36A606Eb",
      "gasPrice": {
        "_hex": "0xdf588e31c"
      },
      "gasLimit": {
        "_hex": "0x5208"
      },
      "to": "0x32Be343B94f860124dC4fEe278FDCBD38C102D88",
      "value": {
        "_hex": "0xb2ace8b7bee8e8000"
      },
      "nonce": 11,
      "data": "0x",
      "r": "0x404eae9ff6f6efd09c947b64a2cffcce2ac7686342817a7db14bc8538b354ed2",
      "s": "0x04d84913d8063091875cffbb2294779337e0ad27f51f46b2eb5fc97ab1844e80",
      "v": 27,
      "creates": null,
      "raw": "0xf86d0b850df588e31c8252089432be343b94f860124dc4fee278fdcbd38c102d88890b2ace8b7bee8e8000801ba0404eae9ff6f6efd09c947b64a2cffcce2ac7686342817a7db14bc8538b354ed2a004d84913d8063091875cffbb2294779337e0ad27f51f46b2eb5fc97ab1844e80",
      "networkId": 0,
      "chainId": 0
    }
  ]
}