{
  "hash": "0xe892cec653cb5330669ebf3a13eb15aab57e8e8e26efb1058d6ef3e75f283f1d",
  "parentHash": "0x6fd2f3d4294c8859aa475e733688166b651e0fc9bcbcab0d50d9a30fb415a155",
  "number": 71242,
  "timestamp": 1439332984,
  "nonce": "0x4b202d5cdd6be4e8",
  "difficulty": 2145619109442,
  "gasLimit": {
    "_hex": "0x2fefd8"
  },
  "gasUsed": {
    "_hex": "0x5208"
  },
  "miner": "0xe6A7a1d47ff21B6321162AEA7C6CB457D5476Bca",
  "extraData": "0x476574682f76312e302e312d38326566323666362f6c696e75782f676f312e34",
  "transactions": [
    {
      "hash": "0x5d6c7c990c0659227c71946d0c52aa37b0ff77bdae928f63ef435d4565c62ac2",
      "blockHash": "0xe892cec653cb5330669ebf3a13eb15aab57e8e8e26efb1058d6ef3e75f283f1d",
      "blockNumber": 71242,
      "transactionIndex": 0,
      "confirmations": null,
      "from": "0x120A270bbC009644e35F0bB6ab13f95b8199c4ad",
      "gasPrice": {
        "_hex": "0xda180b1cb"
      },
      "gasLimit": {
        "_hex": "0x15f90"
      },
      "to": "0x65226161C65964f689da8cf012D2E08408142c4f",
      "value": {
        "_hex": "0x14d1120d7b1600000"
      },
      "nonce": 222,
      "data": "0x",
      "r": "0xbe5566b1c0db105285742a529c09e00bde171f7eb5328bdadb89278d6be654a4",
      "s": "0x41d39fe124546aade1f320cc59e323dd71d2df8ba7b8b6a75d393eb677f00882",
      "v": 27,
      "creates": null,
      "raw": "0xf86f81de850da180b1cb83015f909465226161c65964f689da8cf012d2e08408142c4f89014d1120d7b1600000801ba0be5566b1c0db105285742a529c09e00bde171f7eb5328bdadb89278d6be654a4a041d39fe124546aade1f320cc59e323dd71d2df8ba7b8b6a75d393eb677f00882",
      "networkId": 0,
      "chainId": 0
    }
  ]
}