{
  "hash": "0xa1eeac08ff3e858f185b1c4dffb39e7474a6739b9fb5e36518497b0666f9660d",
  "parentHash": "0x6fe16e772cf1c44569adf46cc4ddcff2327c4dd9538058fd05d85d891fa8508d",
  "number": 63759,
  "timestamp": 1439209678,
  "nonce": "0xc75dcbba3235d038",
  "difficulty": 1844973108993,
  "gasLimit": {
    "_hex": "0x2fefd8"
  },
  "gasUsed": {
    "_hex": "0x5208"
  },
  "miner": "0x88D74a59454F6cF3B51ef6b9136AFb6b9D405A88",
  "extraData": "0x476574682f76312e302e312d37666266393930632f6c696e75782f676f312e34",
  "transactions": [
    {
      "hash": "0xece8969db60f7fb86b4c5cb4971ac64dbaba8f11ffe22f6b937320af01994f49",
      "blockHash": "0xa1eeac08ff3e858f185b1c4dffb39e7474a6739b9fb5e36518497b0666f9660d",
      "blockNumber": 63759,
      "transactionIndex": 0,
      "confirmations": null,
      "from": "0x5edeF194D1fB66CDeB5ca06baC41be4f3E2D0BE2",
      "gasPrice": {
        "_hex": "0xdb879bb10"
      },
      "gasLimit": {
        "_hex": "0x5208"
      },
      "to": "0x32Be343B94f860124dC4fEe278FDCBD38C102D88",
      "value": {
        "_hex": "0x4f1a1a95f10e9c0000"
      },
      "nonce": 4,
      "data": "0x",
      "r": "0xeeb79ad4109b03a3f4f6789b7ca50c186e8dea9e2d8ce632248d070aff8882fd",
      "s": "0x72f83cf95bd037891a4694e46e98db5893f5d93219ce4c5f50968c662ce2ee63",
      "v": 28,
      "creates": null,
      "raw": "0xf86d04850db879bb108252089432be343b94f860124dc4fee278fdcbd38c102d88894f1a1a95f10e9c0000801ca0eeb79ad4109b03a3f4f6789b7ca50c186e8dea9e2d8ce632248d070aff8882fda072f83cf95bd037891a4694e46e98db5893f5d93219ce4c5f50968c662ce2ee63",
      "networkId": 0,
      "chainId": 0
    }
  ]
}