{
  "hash": "0x87389a5c9dbb8f2ee541a84f759d9d35a862211f15f9bc6f5e600eb12a7cc119",
  "parentHash": "0xa6f22f3dd64a251ab5dc6deabecbadb2f4eb16e84ec94cb07e163008a7a81f67",
  "number": 102730,
  "timestamp": 1439842326,
  "nonce": "0xe6d4150f9def9438",
  "difficulty": 4036656357703,
  "gasLimit": {
    "_hex": "0x2fefd8"
  },
  "gasUsed": {
    "_hex": "0x5208"
  },
  "miner": "0x007f7f58D3eb5b7510A301eCC749FC1fCDDBE14D",
  "extraData": "0x476574682f76312e302e312f77696e646f77732f676f312e342e32",
  "transactions": [
    {
      "hash": "0xf2c58db3ad07e1da33ee52087c81887159bce0fb2f3eb0acd620de726d090421",
      "blockHash": "0x87389a5c9dbb8f2ee541a84f759d9d35a862211f15f9bc6f5e600eb12a7cc119",
      "blockNumber": 102730,
      "transactionIndex": 0,
      "confirmations": null,
      "from": "0xc3a54b95AEc42EBAEE1b351B4B89c1a0B9759Bb8",
      "gasPrice": {
        "_hex": "0xd304fc852"
      },
      "gasLimit": {
        "_hex": "0x15f90"
      },
      "to": "0xd2a25DC828b52BdC5f63b95d5B1D1Bb90d6D299B",
      "value": {
        "_hex": "0x14"
      },
      "nonce": 1,
      "data": "0x",
      "r": "0xf099ad228efd54065b6705fff139988b7456332ac7ef8bdc948fad471b3b6f2c",
      "s": "0x513248198f428503aef8d81ac65b6b6cd942bee29f50fa400f6d4757f40fa368",
      "v": 27,
      "creates": null,
      "raw": "0xf86501850d304fc85283015f9094d2a25dc828b52bdc5f63b95d5b1d1bb90d6d299b14801ba0f099ad228efd54065b6705fff139988b7456332ac7ef8bdc948fad471b3b6f2ca0513248198f428503aef8d81ac65b6b6cd942bee29f50fa400f6d4757f40fa368",
      "networkId": 0,
      "chainId": 0
    }
  ]
}