{
  "hash": "0xe1d9e225f8e2e4df2cf410c30bad0841dd111c4a71f4161d59f822c86aac79c5",
  "parentHash": "0xc39b8c571d98e9956de7ba3ccc3ec85dd18a29393a75d0c3c15dd86fc8a32287",
  "number": 85392,
  "timestamp": 1439562902,
  "nonce": "0x924807b2b0a5a18c",
  "difficulty": 2739663486266,
  "gasLimit": {
    "_hex": "0x2fefd8"
  },
  "gasUsed": {
    "_hex": "0x5208"
  },
  "miner": "0x6DE55b563cE6E319cCB403032Da3BE5Ad4ec4FcF",
  "extraData": "0x",
  "transactions": [
    {
      "hash": "0xc93d7ae9a8665ab24f04da83a80e0329a3c250eb0185520cb1471689df6e7c99",
      "blockHash": "0xe1d9e225f8e2e4df2cf410c30bad0841dd111c4a71f4161d59f822c86aac79c5",
      "blockNumber": 85392,
      "transactionIndex": 0,
      "confirmations": null,
      "from": "0x458F183347F45a4001807728A89F31E9Da9D4A58",
      "gasPrice": {
        "_hex": "0xcf0c069cf"
      },
      "gasLimit": {
        "_hex": "0x15f90"
      },
      "to": "0x7fa165177F28D171bA7C17f765c1904344Ec64CB",
      "value": {
        "_hex": "0xad78ebc5ac620000"
      },
      "nonce": 21,
      "data": "0x",
      "r": "0x0b0533f05778b00ee5f095e416c3013ea30297d8d9ac270d779d8a88c771dd78",
      "s": "0x0d316d219a666318a245a366bd6ae1955130ffb3bd69301b0872b0c59819439e",
      "v": 28,
      "creates": null,
      "raw": "0xf86d15850cf0c069cf83015f90947fa165177f28d171ba7c17f765c1904344ec64cb88ad78ebc5ac620000801ca00b0533f05778b00ee5f095e416c3013ea30297d8d9ac270d779d8a88c771dd78a00d316d219a666318a245a366bd6ae1955130ffb3bd69301b0872b0c59819439e",
      "networkId": 0,
      "chainId": 0
    }
  ]
}