{
  "hash": "0xb9135fb3999687ddae34bafd256f584aa0541ef9280ad573450c8dc69a8587eb",
  "parentHash": "0x28d1ddcb5e28b37ac428ceb8828ac4c6669c3c358f264a3e4d6592beca178c0a",
  "number": 46823,
  "timestamp": 1438929731,
  "nonce": "0xe4e8e7518d0167ac",
  "difficulty": 1459589873103,
  "gasLimit": {
    "_hex": "0x7c1e"
  },
  "gasUsed": {
    "_hex": "0x5208"
  },
  "miner": "0x157c6f2431eB1a95797EE86F7d17b3c0FD47A247",
  "extraData": "0x476574682f76312e302e312f77696e646f77732f676f312e342e32",
  "transactions": [
    {
      "hash": "0xb6ad300540656a1ede0606724cbba5513d46f301842b72bced6135b85c515ed8",
      "blockHash": "0xb9135fb3999687ddae34bafd256f584aa0541ef9280ad573450c8dc69a8587eb",
      "blockNumber": 46823,
      "transactionIndex": 0,
      "confirmations": null,
      "from": "0xe6A7a1d47ff21B6321162AEA7C6CB457D5476Bca",
      "gasPrice": {
        "_hex": "0xd8cac2519"
      },
      "gasLimit": {
        "_hex": "0x5208"
      },
      "to": "0x6bAF48E1C966D16559cE2ddDb616FFa72004851e",
      "value": {
        "_hex": "0xff21f60ffffa718"
      },
      "nonce": 5,
      "data": "0x",
      "r": "0x4e0326f7bf9c5440ee5fa3194d72a5ffd25abd172ee2cd28f1f7bc6c690981de",
      "s": "0x182ff96ee2835ecc41d80c2e3101b9aa0ea077b62c23906fed007d7b7e480ad2",
      "v": 27,
      "creates": null,
      "raw": "0xf86c05850d8cac2519825208946baf48e1c966d16559ce2dddb616ffa72004851e880ff21f60ffffa718801ba04e0326f7bf9c5440ee5fa3194d72a5ffd25abd172ee2cd28f1f7bc6c690981dea0182ff96ee2835ecc41d80c2e3101b9aa0ea077b62c23906fed007d7b7e480ad2",
      "networkId": 0,
      "chainId": 0
    }
  ]
}