{
  "hash": "0x3b683ec17145556e0833f15875f77175714f51cf78a831be60bef820a8ca3cb1",
  "parentHash": "0x526178d25662be1f5e23205d12e7a634ec99b884b03a3a3b2ae87a5ce2b5f344",
  "number": 47413,
  "timestamp": 1438939951,
  "nonce": "0x75ff149b32ca996a",
  "difficulty": 1450960539965,
  "gasLimit": {
    "_hex": "0xbade"
  },
  "gasUsed": {
    "_hex": "0xa410"
  },
  "miner": "0x53824166ea5271d3425e3194c848A90CA4e97eB2",
  "extraData": "0x476574682f76312e302e312f6c696e75782f676f312e342e32",
  "transactions": [
    {
      "hash": "0x0e2d2783c72430a2d12ec1eaa8314ffdaf808e7f3d4503302e1a885c21019f97",
      "blockHash": "0x3b683ec17145556e0833f15875f77175714f51cf78a831be60bef820a8ca3cb1",
      "blockNumber": 47413,
      "transactionIndex": 0,
      "confirmations": null,
      "from": "0xe6A7a1d47ff21B6321162AEA7C6CB457D5476Bca",
      "gasPrice": {
        "_hex": "0x1b7958b363"
      },
      "gasLimit": {
        "_hex": "0x5208"
      },
      "to": "0x051219f568c86EA6DD6Dd2cC8052c31504F33d44",
      "value": {
        "_hex": "0x12e4aac6a96b97e78"
      },
      "nonce": 136,
      "data": "0x",
      "r": "0x06db7324130adfb66278caaf918079221dd1aaae5e188342f7d1f1539d03ea4f",
      "s": "0x287a52a28847f076b601bf140b156b9285d32155b11dbe63c63b6bcae2bb6c1e",
      "v": 28,
      "creates": null,
      "raw": "0xf86e8188851b7958b36382520894051219f568c86ea6dd6dd2cc8052c31504f33d4489012e4aac6a96b97e78801ca006db7324130adfb66278caaf918079221dd1aaae5e188342f7d1f1539d03ea4fa0287a52a28847f076b601bf140b156b9285d32155b11dbe63c63b6bcae2bb6c1e",
      "networkId": 0,
      "chainId": 0
    },
    {
      "hash": "0x9ecf9af9268ca0da65d8e188e4ff96c6b7af7c7f878047e05c8afaf5df047f32",
      "blockHash": "0x3b683ec17145556e0833f15875f77175714f51cf78a831be60bef820a8ca3cb1",
      "blockNumber": 47413,
      "transactionIndex": 1,
      "confirmations": null,
      "from": "0xe6A7a1d47ff21B6321162AEA7C6CB457D5476Bca",
      "gasPrice": {
        "_hex": "0x1b7958b363"
      },
      "gasLimit": {
        "_hex": "0x5208"
      },
      "to": "0x430F8F6FDc140D44d9c99dA1f0A0e7ea541DB4b0",
      "value": {
        "_hex": "0x1308b5abe8cc96e38"
      },
      "nonce": 137,
      "data": "0x",
      "r": "0x06b0f71df78cb493da7758ecf8394cbe10fcfeff5689665e3bc8d4d59d358da7",
      "s": "0x2f3ded381d313287cb28cceddbc358974d598973779b2e098d8be6ae87ba2b7f",
      "v": 27,
      "creates": null,
      "raw": "0xf86e8189851b7958b36382520894430f8f6fdc140d44d9c99da1f0a0e7ea541db4b08901308b5abe8cc96e38801ba006b0f71df78cb493da7758ecf8394cbe10fcfeff5689665e3bc8d4d59d358da7a02f3ded381d313287cb28cceddbc358974d598973779b2e098d8be6ae87ba2b7f",
      "networkId": 0,
      "chainId": 0
    }
  ]
}