{
  "hash": "0x1fc15fd2bcedc22b93bb0c33f066620047c6f833bae1fed05be6ac6c52155229",
  "parentHash": "0x0f21e4936313e815d0e228f45da501e2a1f6382f756a90e346b1ca262464272f",
  "number": 122119,
  "timestamp": 1440188459,
  "nonce": "0x21943bb1497671a5",
  "difficulty": 4477489032702,
  "gasLimit": {
    "_hex": "0x2fefd8"
  },
  "gasUsed": {
    "_hex": "0xa410"
  },
  "miner": "0x9746c7e1ef2bd21FF3997fa467593a89cb852BD0",
  "extraData": "0x476574682f76312e302e312f77696e646f77732f676f312e342e32",
  "transactions": [
    {
      "hash": "0xfbdd325ea9465b96d352485bc28d067c220182680307013e91af3b50ee600239",
      "blockHash": "0x1fc15fd2bcedc22b93bb0c33f066620047c6f833bae1fed05be6ac6c52155229",
      "blockNumber": 122119,
      "transactionIndex": 0,
      "confirmations": null,
      "from": "0x710c5fEBe84c40b3C12BE2cB2378B863f67235df",
      "gasPrice": {
        "_hex": "0xba43b7400"
      },
      "gasLimit": {
        "_hex": "0x7a120"
      },
      "to": "0xBBDa93a81B882774e1c9b5e3F933Fa35DaC8bc88",
      "value": {
        "_hex": "0x4563918244f40000"
      },
      "nonce": 2,
      "data": "0x",
      "r": "0x80254812ca51d80c8c59a1b4d7acef36662fffce10f6551d6c38dd532c9cbbba",
      "s": "0x78bb470b5a1ed1df943f732e73ba774e982eb5ab997fe3291ce1d83fe87b1d00",
      "v": 27,
      "creates": null,
      "raw": "0xf86d02850ba43b74008307a12094bbda93a81b882774e1c9b5e3f933fa35dac8bc88884563918244f40000801ba080254812ca51d80c8c59a1b4d7acef36662fffce10f6551d6c38dd532c9cbbbaa078bb470b5a1ed1df943f732e73ba774e982eb5ab997fe3291ce1d83fe87b1d00",
      "networkId": 0,
      "chainId": 0
    },
    {
      "hash": "0xdf45a76df41bddf90ed4b35ea8931511e6cd39a5cd589f908bb6d4b3a9c91cb3",
      "blockHash": "0x1fc15fd2bcedc22b93bb0c33f066620047c6f833bae1fed05be6ac6c52155229",
      "blockNumber": 122119,
      "transactionIndex": 1,
      "confirmations": null,
      "from": "0xCEFA54c1A83A0eCC31Dd4E329e0D4B42869b1eb9",
      "gasPrice": {
        "_hex": "0xba43b7400"
      },
      "gasLimit": {
        "_hex": "0x7a120"
      },
      "to": "0xBBDa93a81B882774e1c9b5e3F933Fa35DaC8bc88",
      "value": {
        "_hex": "0xd02ab486cedc0000"
      },
      "nonce": 3,
      "data": "0x",
      "r": "0xf1028774c329aa348237723be0f54616d30a69642dd9f169e5631a2a13c801f6",
      "s": "0x719446a5881b424238b6efeaaf214cf890223562afa8be175660e7d9d3addd28",
      "v": 28,
      "creates": null,
      "raw": "0xf86d03850ba43b74008307a12094bbda93a81b882774e1c9b5e3f933fa35dac8bc8888d02ab486cedc0000801ca0f1028774c329aa348237723be0f54616d30a69642dd9f169e5631a2a13c801f6a0719446a5881b424238b6efeaaf214cf890223562afa8be175660e7d9d3addd28",
      "networkId": 0,
      "chainId": 0
    }
  ]
}