{
  "hash": "0xcce6a1a8dbdd5b480ca588b3747038ffdd31d13b14b69adcb2b9b77ce9afb3e5",
  "parentHash": "0xdaf27bf42ca17e75cbd6ef9591a24c16743c5fb7893fa0111ea72e162b983830",
  "number": 53757,
  "timestamp": 1439043028,
  "nonce": "0xaff97911ed17296b",
  "difficulty": 1595476834242,
  "gasLimit": {
    "_hex": "0x2fefd8"
  },
  "gasUsed": {
    "_hex": "0x5208"
  },
  "miner": "0xF2d2AfF1320476cb8C6b607199D23175cc595693",
  "extraData": "0x476574682f76312e302e312f77696e646f77732f676f312e342e32",
  "transactions": [
    {
      "hash": "0xc921c59c049bea0fded0fd84eb2fed8d342a42e61cb539479f34bdcbc74e43a8",
      "blockHash": "0xcce6a1a8dbdd5b480ca588b3747038ffdd31d13b14b69adcb2b9b77ce9afb3e5",
      "blockNumber": 53757,
      "transactionIndex": 0,
      "confirmations": null,
      "from": "0x1cF105AB23023B554C583E86d7921179eE83169F",
      "gasPrice": {
        "_hex": "0xcf6a2d5c9"
      },
      "gasLimit": {
        "_hex": "0x15f90"
      },
      "to": "0x6BD72C1161826cFA413c4fb70CCE879BA7c2219c",
      "value": {
        "_hex": "0x8ac7230489e80000"
      },
      "nonce": 1,
      "data": "0x",
      "r": "0x819d9b9be566d06a72c04e19572462b746d0c1d3f47acdf7b3c555c5283d3b6e",
      "s": "0x757b954eb0cc82d012c43e8a0be3867f5ea8a41a5f1e2af024da07e0bb1f7c36",
      "v": 27,
      "creates": null,
      "raw": "0xf86d01850cf6a2d5c983015f90946bd72c1161826cfa413c4fb70cce879ba7c2219c888ac7230489e80000801ba0819d9b9be566d06a72c04e19572462b746d0c1d3f47acdf7b3c555c5283d3b6ea0757b954eb0cc82d012c43e8a0be3867f5ea8a41a5f1e2af024da07e0bb1f7c36",
      "networkId": 0,
      "chainId": 0
    }
  ]
}