{
  "hash": "0x04c9a8c844c9c4775d794ca367b7e808ba6b44523fc0c7f3b158cfb1c8f5fc7f",
  "parentHash": "0x2ab6500cb65aed23691d5db2723bdc9f031157556b1ffc2852bd03090d867658",
  "number": 49281,
  "timestamp": 1438971055,
  "nonce": "0x7cf5531bc39acb17",
  "difficulty": 1479248734431,
  "gasLimit": {
    "_hex": "0x2b8e7"
  },
  "gasUsed": {
    "_hex": "0x546c"
  },
  "miner": "0x33b01a7fe4A1a5F774Bb73f89A4eF15a6Ffe1141",
  "extraData": "0x476574682f76312e302e312f6c696e75782f676f312e342e32",
  "transactions": [
    {
      "hash": "0xe708547e13e30fde90c802bf625d211f9cb3b2a7e9ead6d49e8d3e0324e1d015",
      "blockHash": "0x04c9a8c844c9c4775d794ca367b7e808ba6b44523fc0c7f3b158cfb1c8f5fc7f",
      "blockNumber": 49281,
      "transactionIndex": 0,
      "confirmations": null,
      "from": "0x8A7a06Be199A3a58019D846AC9cbD4D95DD757de",
      "gasPrice": {
        "_hex": "0x111752e8a31"
      },
      "gasLimit": {
        "_hex": "0x61a8"
      },
      "to": "0x2910543Af39abA0Cd09dBb2D50200b3E800A63D2",
      "value": {
        "_hex": "0xa21695e64d11f80000"
      },
      "nonce": 2,
      "data": "0x454e51594e32314b52",
      "r": "0x31a704fac028d8e48903a0444bc3880e992018fb3bdb3e39700c2c4da31525cd",
      "s": "0x55760583009873901b6e8bf0945dd834d303ec4655de851428476de2bc445345",
      "v": 28,
      "creates": null,
      "raw": "0xf87702860111752e8a318261a8942910543af39aba0cd09dbb2d50200b3e800a63d289a21695e64d11f8000089454e51594e32314b521ca031a704fac028d8e48903a0444bc3880e992018fb3bdb3e39700c2c4da31525cda055760583009873901b6e8bf0945dd834d303ec4655de851428476de2bc445345",
      "networkId": 0,
      "chainId": 0
    }
  ]
}