{
  "hash": "0x9860fcdde9610dca664e36f35315fd35d9a96d5ca7a037c258b54619a928974a",
  "parentHash": "0x318e1d3506ee717ce33e6c46dc4404d7791630362759f4b86f5f74c72c038265",
  "number": 75575,
  "timestamp": 1439405823,
  "nonce": "0x0b3a1a123ddff157",
  "difficulty": 2213665833876,
  "gasLimit": {
    "_hex": "0x2fefd8"
  },
  "gasUsed": {
    "_hex": "0xa410"
  },
  "miner": "0x47ff6576639c2e94762eA5443978D7681C0E78DC",
  "extraData": "0x476574682f76312e302e312f6c696e75782f676f312e342e32",
  "transactions": [
    {
      "hash": "0x3aa700d055b859342d1720c762f3374604647aaf9d70a82e32cbc81e38203b94",
      "blockHash": "0x9860fcdde9610dca664e36f35315fd35d9a96d5ca7a037c258b54619a928974a",
      "blockNumber": 75575,
      "transactionIndex": 0,
      "confirmations": null,
      "from": "0xaFF2628417768132E1d04f605Fe1e797f2ECA3F8",
      "gasPrice": {
        "_hex": "0x746a528800"
      },
      "gasLimit": {
        "_hex": "0x5b04"
      },
      "to": "0x1467bcfA961fE8067c779935a78B4a73E7393BD8",
      "value": {
        "_hex": "0xde0b6b3a7640000"
      },
      "nonce": 0,
      "data": "0x",
      "r": "0x17d77a28abee144023e93152bba35e128880ff404ddbc971ba0e14f188efc54c",
      "s": "0xe7ed99bbb1541e0e6d0dc8cdb2450f6ccee222f8ef82c7fdb266e7a0622f0114",
      "v": 28,
      "creates": null,
      "raw": "0xf86c8085746a528800825b04941467bcfa961fe8067c779935a78b4a73e7393bd8880de0b6b3a7640000801ca017d77a28abee144023e93152bba35e128880ff404ddbc971ba0e14f188efc54ca0e7ed99bbb1541e0e6d0dc8cdb2450f6ccee222f8ef82c7fdb266e7a0622f0114",
      "networkId": 0,
      "chainId": 0
    },
    {
      "hash": "0x35e2d5d690b0988261dae7eecf169e44ddad2af11786a564d6a546fb2431cd87",
      "blockHash": "0x9860fcdde9610dca664e36f35315fd35d9a96d5ca7a037c258b54619a928974a",
      "blockNumber": 75575,
      "transactionIndex": 1,
      "confirmations": null,
      "from": "0x36d85Dc3683156e63Bf880A9fAb7788CF8143a27",
      "gasPrice": {
        "_hex": "0xce7abc8e3"
      },
      "gasLimit": {
        "_hex": "0x15f90"
      },
      "to": "0xDE72E29D65eAabbD236b21c1d59a486c19AbDad5",
      "value": {
        "_hex": "0x0"
      },
      "nonce": 13,
      "data": "0x",
      "r": "0x4c77b2be1958956992aee2ec4880d2eec0c2f8cd9c6540605ed9d48bc8d63068",
      "s": "0x7c1880723c10618e74b3ea242fba202392e06ba1e6b4596629b1df1ebb38f4be",
      "v": 28,
      "creates": null,
      "raw": "0xf8650d850ce7abc8e383015f9094de72e29d65eaabbd236b21c1d59a486c19abdad580801ca04c77b2be1958956992aee2ec4880d2eec0c2f8cd9c6540605ed9d48bc8d63068a07c1880723c10618e74b3ea242fba202392e06ba1e6b4596629b1df1ebb38f4be",
      "networkId": 0,
      "chainId": 0
    }
  ]
}