{
  "hash": "0xbde5712743821efc1c9e7256f73430ee7fc87022de065dc615b106cad0a04850",
  "parentHash": "0x12b3abd098d856ece53eb83079f791e3a8075de390ea6dc01d4d1969751930a3",
  "number": 112577,
  "timestamp": 1440009528,
  "nonce": "0xd430fc36086d1c6e",
  "difficulty": 4443359957778,
  "gasLimit": {
    "_hex": "0x2fefd8"
  },
  "gasUsed": {
    "_hex": "0x5208"
  },
  "miner": "0xe6A7a1d47ff21B6321162AEA7C6CB457D5476Bca",
  "extraData": "0x476574682f76312e302e312d38326566323666362f6c696e75782f676f312e34",
  "transactions": [
    {
      "hash": "0x177eaa9be013386946bf7f373adc2f6e433fc8d55f11d3e11a5106a00ffd225d",
      "blockHash": "0xbde5712743821efc1c9e7256f73430ee7fc87022de065dc615b106cad0a04850",
      "blockNumber": 112577,
      "transactionIndex": 0,
      "confirmations": null,
      "from": "0x22F8c1Ba58a1a6554386175Ac3365A038e07aEfc",
      "gasPrice": {
        "_hex": "0xd13280a21"
      },
      "gasLimit": {
        "_hex": "0x5208"
      },
      "to": "0x32Be343B94f860124dC4fEe278FDCBD38C102D88",
      "value": {
        "_hex": "0x15aed9cd86f707000"
      },
      "nonce": 1,
      "data": "0x",
      "r": "0xd00c8e9b80c475e88810c961cbbb82fd653a951f4892e2110e173d64536dc509",
      "s": "0x7827b7bc6bfb295992fc815b896cc0139c9051ecf9b025f6ae076b581fd07c5d",
      "v": 27,
      "creates": null,
      "raw": "0xf86d01850d13280a218252089432be343b94f860124dc4fee278fdcbd38c102d8889015aed9cd86f707000801ba0d00c8e9b80c475e88810c961cbbb82fd653a951f4892e2110e173d64536dc509a07827b7bc6bfb295992fc815b896cc0139c9051ecf9b025f6ae076b581fd07c5d",
      "networkId": 0,
      "chainId": 0
    }
  ]
}