{
  "hash": "0x64a5d0384323436628ff49667cc17c02ffc609315434103d63bf7fead071c037",
  "parentHash": "0xe1b52ab779ebb016a2bd101b99193a8ba08ba8b2102d110e1f060098d75ba590",
  "number": 46506,
  "timestamp": 1438924206,
  "nonce": "0x12a5d82a453272dc",
  "difficulty": 1468939825610,
  "gasLimit": {
    "_hex": "0x656b"
  },
  "gasUsed": {
    "_hex": "0x5208"
  },
  "miner": "0x70C6b45fe0A5116E97B112B806A76E2F51E24413",
  "extraData": "0x476574682f76312e302e302f77696e646f77732f676f312e342e32",
  "transactions": [
    {
      "hash": "0x9fd830e16da473bb4a551a2d24fe90351fa663e129c2908e1df28bb5c621b375",
      "blockHash": "0x64a5d0384323436628ff49667cc17c02ffc609315434103d63bf7fead071c037",
      "blockNumber": 46506,
      "transactionIndex": 0,
      "confirmations": null,
      "from": "0x39d4A931402c0c79c457186F24dF8729cf957031",
      "gasPrice": {
        "_hex": "0x746a528800"
      },
      "gasLimit": {
        "_hex": "0x61a8"
      },
      "to": "0xe1F5B8dc9336BC9637eA97c3f3b13Cd363F88854",
      "value": {
        "_hex": "0x36301910f1f8b70000"
      },
      "nonce": 1,
      "data": "0x",
      "r": "0x27c09417c9110c6a68d5f397eed712255212294bf6a13a027a726eb2d2aadac9",
      "s": "0x7fc52e988cdccff05e4bfbc8e7d516272a50f4512eafc864a346aabcbc0dd634",
      "v": 28,
      "creates": null,
      "raw": "0xf86d0185746a5288008261a894e1f5b8dc9336bc9637ea97c3f3b13cd363f888548936301910f1f8b70000801ca027c09417c9110c6a68d5f397eed712255212294bf6a13a027a726eb2d2aadac9a07fc52e988cdccff05e4bfbc8e7d516272a50f4512eafc864a346aabcbc0dd634",
      "networkId": 0,
      "chainId": 0
    }
  ]
}