{
  "hash": "0xf402ee7c0cde7b2318f8906bceadfa677de77a15ddf178ff41d77fe1972514f7",
  "parentHash": "0xcfd98113587f113dac04692050928f418b9a400319097433773193cbdcabe60f",
  "number": 110417,
  "timestamp": 1439973409,
  "nonce": "0x7d2fa767b798f0aa",
  "difficulty": 4384153021234,
  "gasLimit": {
    "_hex": "0x2fefd8"
  },
  "gasUsed": {
    "_hex": "0x261ce"
  },
  "miner": "0x9D0B366c06Bdb8D00C9Ab617db64B505f9e05d79",
  "extraData": "0x476574682f76312e302e312d38326566323666362f6c696e75782f676f312e34",
  "transactions": [
    {
      "hash": "0x9bc2e864695e9b90f5058ee9d1a2797eec29092da42e80c20aba20c31a4f8577",
      "blockHash": "0xf402ee7c0cde7b2318f8906bceadfa677de77a15ddf178ff41d77fe1972514f7",
      "blockNumber": 110417,
      "transactionIndex": 0,
      "confirmations": null,
      "from": "0xce8ff6d2027CA9837abb85FD515752151b6C7d0A",
      "gasPrice": {
        "_hex": "0xdb872fd34"
      },
      "gasLimit": {
        "_hex": "0x5208"
      },
      "to": "0x32Be343B94f860124dC4fEe278FDCBD38C102D88",
      "value": {
        "_hex": "0x6c2e6d615f1e8c00"
      },
      "nonce": 7,
      "data": "0x",
      "r": "0xe2b6124869d710b0a50d047cbf3cc20e0e1c5d9e6d2edc7ecdd653a48765cf4e",
      "s": "0x0f3cff19e347f326cc1b99c188a74d9d7b94b3f1b60cc5b543a5474e10c33e3b",
      "v": 28,
      "creates": null,
      "raw": "0xf86c07850db872fd348252089432be343b94f860124dc4fee278fdcbd38c102d88886c2e6d615f1e8c00801ca0e2b6124869d710b0a50d047cbf3cc20e0e1c5d9e6d2edc7ecdd653a48765cf4ea00f3cff19e347f326cc1b99c188a74d9d7b94b3f1b60cc5b543a5474e10c33e3b",
      "networkId": 0,
      "chainId": 0
    },
    {
      "hash": "0x800d690bd39c40e776937fa6284f55a1c2ffdf49e3e20fd79a7a0772442723a1",
      "blockHash": "0xf402ee7c0cde7b2318f8906bceadfa677de77a15ddf178ff41d77fe1972514f7",
      "blockNumber": 110417,
      "transactionIndex": 1,
      "confirmations": null,
      "from": "0xA4fbA5C740C8141d6c4469eD292bfCC8cCAc774F",
      "gasPrice": {
        "_hex": "0xdb872fd34"
      },
      "gasLimit": {
        "_hex": "0x5208"
      },
      "to": "0x32Be343B94f860124dC4fEe278FDCBD38C102D88",
      "value": {
        "_hex": "0x1c3ed043832a0c00"
      },
      "nonce": 5,
      "data": "0x",
      "r": "0x654a13af04e76aef65fa74311640d3e0d6ebd10f87feb0b5cd5a16ec4aad24bc",
      "s": "0x7cf3a3034d9019d9ca4857db342ae0e7534341f7bb5129a9db476b18f1355c3d",
      "v": 27,
      "creates": null,
      "raw": "0xf86c05850db872fd348252089432be343b94f860124dc4fee278fdcbd38c102d88881c3ed043832a0c00801ba0654a13af04e76aef65fa74311640d3e0d6ebd10f87feb0b5cd5a16ec4aad24bca07cf3a3034d9019d9ca4857db342ae0e7534341f7bb5129a9db476b18f1355c3d",
      "networkId": 0,
      "chainId": 0
    },
    {
      "hash": "0x4180b048dbb23201b9bbb37430e760c452222a80338018fdebe54f85f07c7aee",
      "blockHash": "0xf402ee7c0cde7b2318f8906bceadfa677de77a15ddf178ff41d77fe1972514f7",
      "blockNumber": 110417,
      "transactionIndex": 2,
      "confirmations": null,
      "from": "0x05665155CC49cbF6aAbdd5ae92cbFaAD82B8C0c1",
      "gasPrice": {
        "_hex": "0xd6b187d36"
      },
      "gasLimit": {
        "_hex": "0x249f0"
      },
      "to": "0xE28e72FCf78647ADCe1F1252F240bbfaebD63BcC",
      "value": {
        "_hex": "0x8ac7230489e80000"
      },
      "nonce": 0,
      "data": "0x45466f3a",
      "r": "0x101faa94557084abf3f4ee7bd34711c41e4e8d372a00b3547ba22e5978aab5ab",
      "s": "0x6534dae25c3288c06536bbbef02390dfe98c01411700fbedda775020a354bfa5",
      "v": 27,
      "creates": null,
      "raw": "0xf87180850d6b187d36830249f094e28e72fcf78647adce1f1252f240bbfaebd63bcc888ac7230489e800008445466f3a1ba0101faa94557084abf3f4ee7bd34711c41e4e8d372a00b3547ba22e5978aab5aba06534dae25c3288c06536bbbef02390dfe98c01411700fbedda775020a354bfa5",
      "networkId": 0,
      "chainId": 0
    }
  ]
}