{
  "hash": "0x99a16412a195c1f9697a19c738a9c885db04e3106f7b536dd7cb4c78e421d561",
  "parentHash": "0x6394bbf94d6b0d3184a8ca8886a964ee4ae904f3d0228f32a2abd6faba06cddc",
  "number": 121269,
  "timestamp": 1440174308,
  "nonce": "0xb5a3c5a097e17ab4",
  "difficulty": 4404215584414,
  "gasLimit": {
    "_hex": "0x2fefd8"
  },
  "gasUsed": {
    "_hex": "0x5208"
  },
  "miner": "0xe6A7a1d47ff21B6321162AEA7C6CB457D5476Bca",
  "extraData": "0xd783010002844765746887676f312e342e32856c696e7578",
  "transactions": [
    {
      "hash": "0x442fe1246a34405ad283506ba0d6b9ec1e4d858bdfa8891c14342d33b4f3917a",
      "blockHash": "0x99a16412a195c1f9697a19c738a9c885db04e3106f7b536dd7cb4c78e421d561",
      "blockNumber": 121269,
      "transactionIndex": 0,
      "confirmations": null,
      "from": "0x983C3f45E26ee1a84155C1dDBB1cfDBf85a4d2b3",
      "gasPrice": {
        "_hex": "0xba43b7400"
      },
      "gasLimit": {
        "_hex": "0x5208"
      },
      "to": "0xC47Aaa860008be6f65B58c6C6E02a84e666EfE31",
      "value": {
        "_hex": "0x1faca1876fff7b70"
      },
      "nonce": 2,
      "data": "0x",
      "r": "0xe89ce167c870a74a3ca39953509f6b2bbbc373163f45aa696a543e277a3c71ff",
      "s": "0x54e62585e1688198c9ca9ee7fa83bde1bb01d5f8a141e7666988bb1c55810b64",
      "v": 28,
      "creates": null,
      "raw": "0xf86c02850ba43b740082520894c47aaa860008be6f65b58c6c6e02a84e666efe31881faca1876fff7b70801ca0e89ce167c870a74a3ca39953509f6b2bbbc373163f45aa696a543e277a3c71ffa054e62585e1688198c9ca9ee7fa83bde1bb01d5f8a141e7666988bb1c55810b64",
      "networkId": 0,
      "chainId": 0
    }
  ]
}