{
  "hash": "0x5dff19f46cb19c9f8135238e2c1d659e2c51cbbf5f298c5051215af5f0de1783",
  "parentHash": "0xbd5683e1eba72c1eed4ad4fd6c3137e340bc4ccf1da6b3c90b541f46c0a8197a",
  "number": 109651,
  "timestamp": 1439960288,
  "nonce": "0xba97638e9435bce1",
  "difficulty": 4449252953661,
  "gasLimit": {
    "_hex": "0x2fefd8"
  },
  "gasUsed": {
    "_hex": "0xa674"
  },
  "miner": "0xa50ec0D39fa913E62f1Bae7074E6F36caA71855b",
  "extraData": "0xd783010001844765746887676f312e342e32856c696e7578",
  "transactions": [
    {
      "hash": "0x62fb795b92f55cb4e309c5e983df55b77119ca96e85f9092a7a7b8b19d967fc4",
      "blockHash": "0x5dff19f46cb19c9f8135238e2c1d659e2c51cbbf5f298c5051215af5f0de1783",
      "blockNumber": 109651,
      "transactionIndex": 0,
      "confirmations": null,
      "from": "0x2836123046b284E5eF102BFD22B1765E508116ad",
      "gasPrice": {
        "_hex": "0x110c8f7d8de"
      },
      "gasLimit": {
        "_hex": "0xc350"
      },
      "to": "0x2910543Af39abA0Cd09dBb2D50200b3E800A63D2",
      "value": {
        "_hex": "0x1632f4406042760000"
      },
      "nonce": 1,
      "data": "0x454e45594358304430",
      "r": "0x297a4562fa3ad65bd24bd6491ad90ee9c0e83d13df40aeb09ad891c77d7a1d9d",
      "s": "0xf679a229790dde99ee8d20e57fe630c62826f7809a95fc91bfb0b2521c7fe7e9",
      "v": 27,
      "creates": null,
      "raw": "0xf87701860110c8f7d8de82c350942910543af39aba0cd09dbb2d50200b3e800a63d2891632f440604276000089454e455943583044301ba0297a4562fa3ad65bd24bd6491ad90ee9c0e83d13df40aeb09ad891c77d7a1d9da0f679a229790dde99ee8d20e57fe630c62826f7809a95fc91bfb0b2521c7fe7e9",
      "networkId": 0,
      "chainId": 0
    },
    {
      "hash": "0x6fc817a2dcc1840b5def5275cabd97190b02779f60726afc53648758c648aff9",
      "blockHash": "0x5dff19f46cb19c9f8135238e2c1d659e2c51cbbf5f298c5051215af5f0de1783",
      "blockNumber": 109651,
      "transactionIndex": 1,
      "confirmations": null,
      "from": "0x120A270bbC009644e35F0bB6ab13f95b8199c4ad",
      "gasPrice": {
        "_hex": "0xdbb95f36d"
      },
      "gasLimit": {
        "_hex": "0x3d090"
      },
      "to": "0xB9ba603b2F93B701C63326677937d4F5D92f4154",
      "value": {
        "_hex": "0x12f939c99edab80000"
      },
      "nonce": 863,
      "data": "0x",
      "r": "0x042c8a4f5588d6f42a378d15194210ca73bfa74e53e899a3df0b016714c5d419",
      "s": "0x05ee7bd9ceb594b423a1a637e83ed1c5a3097814119df4bcfb09552466f71d2a",
      "v": 28,
      "creates": null,
      "raw": "0xf87082035f850dbb95f36d8303d09094b9ba603b2f93b701c63326677937d4f5d92f41548912f939c99edab80000801ca0042c8a4f5588d6f42a378d15194210ca73bfa74e53e899a3df0b016714c5d419a005ee7bd9ceb594b423a1a637e83ed1c5a3097814119df4bcfb09552466f71d2a",
      "networkId": 0,
      "chainId": 0
    }
  ]
}