{
  "hash": "0xb6d0d44416eef0be74d955d4ba131a6abcbf9ee05cb26c87648b41f3ffd3e0a3",
  "parentHash": "0x0d94165e9d1130d637fe61d95bf0ecf2fc9402d611231092bc235e11e596b770",
  "number": 118417,
  "timestamp": 1440125756,
  "nonce": "0x5ce0668285c91d77",
  "difficulty": 4278511964210,
  "gasLimit": {
    "_hex": "0x2fefd8"
  },
  "gasUsed": {
    "_hex": "0x59e3"
  },
  "miner": "0x3DfCf2bF579C831a03379a140b74f884e49CaFf3",
  "extraData": "0x476574682f76312e302e322d61303330336666342f6c696e75782f676f312e34",
  "transactions": [
    {
      "hash": "0x118195d71d577abf7a6e843cd8ff555d57731a71d1597ba72ccb8ce4a7f4e396",
      "blockHash": "0xb6d0d44416eef0be74d955d4ba131a6abcbf9ee05cb26c87648b41f3ffd3e0a3",
      "blockNumber": 118417,
      "transactionIndex": 0,
      "confirmations": null,
      "from": "0x001aA0CB9c5fA098a119070024460feBb868742D",
      "gasPrice": {
        "_hex": "0xba43b7400"
      },
      "gasLimit": {
        "_hex": "0x186a0"
      },
      "to": "0xE28e72FCf78647ADCe1F1252F240bbfaebD63BcC",
      "value": {
        "_hex": "0x0"
      },
      "nonce": 1,
      "data": "0x000000000000000000000000000000000000000000000000000000007871b018000000000000000000000000001aa0cb9c5fa098a119070024460febb868742d",
      "r": "0xcec73d15bd9a95028f9f05a945cbffb3a27a1d18e69cd39a4defbaa8f8e82509",
      "s": "0x78744bccb51dc4e539b1d29caccaa37ec3689c3e417f36910bdf97aa6c0d62ac",
      "v": 28,
      "creates": null,
      "raw": "0xf8a601850ba43b7400830186a094e28e72fcf78647adce1f1252f240bbfaebd63bcc80b840000000000000000000000000000000000000000000000000000000007871b018000000000000000000000000001aa0cb9c5fa098a119070024460febb868742d1ca0cec73d15bd9a95028f9f05a945cbffb3a27a1d18e69cd39a4defbaa8f8e82509a078744bccb51dc4e539b1d29caccaa37ec3689c3e417f36910bdf97aa6c0d62ac",
      "networkId": 0,
      "chainId": 0
    }
  ]
}