{
  "hash": "0xb7944189732b3fe0f4038233841a26c653e01358c175bac7409e707cfaa5a4b9",
  "parentHash": "0xa16af06a86b939ee67b282b13904c1316b8ed197e872ede3b24a24ff72b6b59c",
  "number": 97621,
  "timestamp": 1439758991,
  "nonce": "0x8af938106e2795a7",
  "difficulty": 3841000127889,
  "gasLimit": {
    "_hex": "0x2fefd8"
  },
  "gasUsed": {
    "_hex": "0x5208"
  },
  "miner": "0xe6A7a1d47ff21B6321162AEA7C6CB457D5476Bca",
  "extraData": "0x476574682f76312e302e312d38326566323666362f6c696e75782f676f312e34",
  "transactions": [
    {
      "hash": "0xe98be945286f513e4dfcf23f48f7013218efcae481cfdb267bdb248cb6bd9562",
      "blockHash": "0xb7944189732b3fe0f4038233841a26c653e01358c175bac7409e707cfaa5a4b9",
      "blockNumber": 97621,
      "transactionIndex": 0,
      "confirmations": null,
      "from": "0x0D4EcC7d750180EBf4A9Df728B6669B5Bceb5E40",
      "gasPrice": {
        "_hex": "0xd86d40509"
      },
      "gasLimit": {
        "_hex": "0x5208"
      },
      "to": "0x32Be343B94f860124dC4fEe278FDCBD38C102D88",
      "value": {
        "_hex": "0x3406578554f31400"
      },
      "nonce": 44,
      "data": "0x",
      "r": "0xdd75212dda350719f8d0a4d4395a080fccd63af3c4f57b293d9bb0b69281107a",
      "s": "0x29f556dad58ff828979f6774aa7f4f49bba32923113d61505a9407a790e3503b",
      "v": 27,
      "creates": null,
      "raw": "0xf86c2c850d86d405098252089432be343b94f860124dc4fee278fdcbd38c102d88883406578554f31400801ba0dd75212dda350719f8d0a4d4395a080fccd63af3c4f57b293d9bb0b69281107aa029f556dad58ff828979f6774aa7f4f49bba32923113d61505a9407a790e3503b",
      "networkId": 0,
      "chainId": 0
    }
  ]
}