{
  "hash": "0x74c790a5b594b538a4caad6747fab09d3af4a579ed17610cabf3fdbe0eef61e2",
  "parentHash": "0x47310ce7e97a38a313ef11f509759e03a35177578c6d55f11edf9223350a8b93",
  "number": 80214,
  "timestamp": 1439481978,
  "nonce": "0x500f243753bd31d5",
  "difficulty": 2374763051092,
  "gasLimit": {
    "_hex": "0x2fefd8"
  },
  "gasUsed": {
    "_hex": "0x14820"
  },
  "miner": "0x6541237dAaFf6688A79f9F2F370Ca0E7Ee20BD33",
  "extraData": "0x476574682f76312e302e312f77696e646f77732f676f312e342e32",
  "transactions": [
    {
      "hash": "0x39ef15234823fb0c05d863a2096532bce163f4429725682046ef3c2148aa647e",
      "blockHash": "0x74c790a5b594b538a4caad6747fab09d3af4a579ed17610cabf3fdbe0eef61e2",
      "blockNumber": 80214,
      "transactionIndex": 0,
      "confirmations": null,
      "from": "0xD2e57181beE0BF25a2E7D377EaCCec854Bd65334",
      "gasPrice": {
        "_hex": "0xd9f9be498"
      },
      "gasLimit": {
        "_hex": "0x5208"
      },
      "to": "0x32Be343B94f860124dC4fEe278FDCBD38C102D88",
      "value": {
        "_hex": "0x56bc30af7b08f4000"
      },
      "nonce": 4,
      "data": "0x",
      "r": "0xe11255fa9fe920ef2fb9d9e097a135c41c2b5cfbcbd6854b794f759077da943f",
      "s": "0x52d65ec6da4c067e35fee818128c29fe6427d49c5c9de7c75906f8da81c8c3ca",
      "v": 28,
      "creates": null,
      "raw": "0xf86d04850d9f9be4988252089432be343b94f860124dc4fee278fdcbd38c102d8889056bc30af7b08f4000801ca0e11255fa9fe920ef2fb9d9e097a135c41c2b5cfbcbd6854b794f759077da943fa052d65ec6da4c067e35fee818128c29fe6427d49c5c9de7c75906f8da81c8c3ca",
      "networkId": 0,
      "chainId": 0
    },
    {
      "hash": "0xc9025302aeee9ec1a7762f9c76e655f5842869c53891c902989146451c1632b0",
      "blockHash": "0x74c790a5b594b538a4caad6747fab09d3af4a579ed17610cabf3fdbe0eef61e2",
      "blockNumber": 80214,
      "transactionIndex": 1,
      "confirmations": null,
      "from": "0x3a3e78131Aa0d6192896c7d0D13924B144e79E4d",
      "gasPrice": {
        "_hex": "0xd9f9be498"
      },
      "gasLimit": {
        "_hex": "0x5208"
      },
      "to": "0x32Be343B94f860124dC4fEe278FDCBD38C102D88",
      "value": {
        "_hex": "0x51dca530937d9000"
      },
      "nonce": 1,
      "data": "0x",
      "r": "0x1045eafb5a6a42907615dddfc77923e7ab9e71257ad7f7e8086d27881c0f60a8",
      "s": "0x63a82b7bad1714f01270ac024f56eb72bae9425ccf96dfbf032ec2cf79bc9671",
      "v": 27,
      "creates": null,
      "raw": "0xf86c01850d9f9be4988252089432be343b94f860124dc4fee278fdcbd38c102d888851dca530937d9000801ba01045eafb5a6a42907615dddfc77923e7ab9e71257ad7f7e8086d27881c0f60a8a063a82b7bad1714f01270ac024f56eb72bae9425ccf96dfbf032ec2cf79bc9671",
      "networkId": 0,
      "chainId": 0
    },
    {
      "hash": "0x2c77ad4ec494b1e37a2ac58444a46136895ee5acb2c347bd64f94f54a2942fe0",
      "blockHash": "0x74c790a5b594b538a4caad6747fab09d3af4a579ed17610cabf3fdbe0eef61e2",
      "blockNumber": 80214,
      "transactionIndex": 2,
      "confirmations": null,
      "from": "0x34fDf2118f88a297b3750FAD5eEB307808d08378",
      "gasPrice": {
        "_hex": "0xd9f9be498"
      },
      "gasLimit": {
        "_hex": "0x5208"
      },
      "to": "0x32Be343B94f860124dC4fEe278FDCBD38C102D88",
      "value": {
        "_hex": "0x327f8329eb1b9000"
      },
      "nonce": 0,
      "data": "0x",
      "r": "0xa26cac7b494ee1711bbede6b3f5d686fe3ab92fd840a745d9f5d5206f82f6b32",
      "s": "0x7bbb5799a1d2a70d23080919ba748e076730cad8357c26da8eaec5f573130f9b",
      "v": 28,
      "creates": null,
      "raw": "0xf86c80850d9f9be4988252089432be343b94f860124dc4fee278fdcbd38c102d8888327f8329eb1b9000801ca0a26cac7b494ee1711bbede6b3f5d686fe3ab92fd840a745d9f5d5206f82f6b32a07bbb5799a1d2a70d23080919ba748e076730cad8357c26da8eaec5f573130f9b",
      "networkId": 0,
      "chainId": 0
    },
    {
      "hash": "0xa422e2a1f346b0f5eed5306e61242485afa6481cf43c3baf3693242097142ab6",
      "blockHash": "0x74c790a5b594b538a4caad6747fab09d3af4a579ed17610cabf3fdbe0eef61e2",
      "blockNumber": 80214,
      "transactionIndex": 3,
      "confirmations": null,
      "from": "0xF8CDdB4300504E2827E28101BF15c9215658296c",
      "gasPrice": {
        "_hex": "0xd641f460d"
      },
      "gasLimit": {
        "_hex": "0x15f90"
      },
      "to": "0xD3c9D979502844332d115ff245381BE054A0b98E",
      "value": {
        "_hex": "0x35834391ede8000"
      },
      "nonce": 0,
      "data": "0x",
      "r": "0xe735cb6b77372106bf1dd73b91fbfd4274b357224b9f50ed48aee069b9a673ce",
      "s": "0x300af04fd5cf2cec292cc607372cb0f2d5f81bc76a23bd41cfd2ef799e899df6",
      "v": 27,
      "creates": null,
      "raw": "0xf86d80850d641f460d83015f9094d3c9d979502844332d115ff245381be054a0b98e88035834391ede8000801ba0e735cb6b77372106bf1dd73b91fbfd4274b357224b9f50ed48aee069b9a673cea0300af04fd5cf2cec292cc607372cb0f2d5f81bc76a23bd41cfd2ef799e899df6",
      "networkId": 0,
      "chainId": 0
    }
  ]
}