{
  "hash": "0x89bb885c4fa8d9301c5fb166b0773f93a4013f2e5aea5e352486c2cb9e4c4507",
  "parentHash": "0x0387862f56be336e60fed5280f2dec497730d857b62c6bfde6e2284c4c720cbe",
  "number": 87131,
  "timestamp": 1439587648,
  "nonce": "0x20c543efe2b12c18",
  "difficulty": 3054190310502,
  "gasLimit": {
    "_hex": "0x2fefd8"
  },
  "gasUsed": {
    "_hex": "0x14a84"
  },
  "miner": "0xeB1325C8D9d3ea8D74aC11F4B00F1B2367686319",
  "extraData": "0x476574682f76312e302e312f77696e646f77732f676f312e342e32",
  "transactions": [
    {
      "hash": "0x32b6be62f8f0dd7b4cc78135b51bf2ec4ac1c180f6f58f63053a4fee80129555",
      "blockHash": "0x89bb885c4fa8d9301c5fb166b0773f93a4013f2e5aea5e352486c2cb9e4c4507",
      "blockNumber": 87131,
      "transactionIndex": 0,
      "confirmations": null,
      "from": "0x3A9E5441D44b243Be55B75027a1cEB9eAcf50dF2",
      "gasPrice": {
        "_hex": "0x1150212132b"
      },
      "gasLimit": {
        "_hex": "0x15f90"
      },
      "to": "0xbe0F7470Ad8DE0F233eD37fB29aD46FeB98DF95C",
      "value": {
        "_hex": "0xde0b6b3a7640000"
      },
      "nonce": 3,
      "data": "0x",
      "r": "0xab62c9afb618932c8d6c53634bbc52c3dc735c84c017205d02729402e352d649",
      "s": "0x4d245591c48e018063f3f95f187eb441610991dd6f165ef33105cb4ccfd00ed2",
      "v": 28,
      "creates": null,
      "raw": "0xf86e038601150212132b83015f9094be0f7470ad8de0f233ed37fb29ad46feb98df95c880de0b6b3a7640000801ca0ab62c9afb618932c8d6c53634bbc52c3dc735c84c017205d02729402e352d649a04d245591c48e018063f3f95f187eb441610991dd6f165ef33105cb4ccfd00ed2",
      "networkId": 0,
      "chainId": 0
    },
    {
      "hash": "0x39a7ae3dd6512a78e5a87573554bee37135b132fafbe0088d6ee47cfb8498be0",
      "blockHash": "0x89bb885c4fa8d9301c5fb166b0773f93a4013f2e5aea5e352486c2cb9e4c4507",
      "blockNumber": 87131,
      "transactionIndex": 1,
      "confirmations": null,
      "from": "0x3A9E5441D44b243Be55B75027a1cEB9eAcf50dF2",
      "gasPrice": {
        "_hex": "0x1150212132b"
      },
      "gasLimit": {
        "_hex": "0x15f90"
      },
      "to": "0xbe0F7470Ad8DE0F233eD37fB29aD46FeB98DF95C",
      "value": {
        "_hex": "0x1ae361fc1451c00000"
      },
      "nonce": 4,
      "data": "0x",
      "r": "0xe934bc9a1df24fed10f1f3c990e955279b7d041933ceb4d15aff4bb793fd31a8",
      "s": "0x360a50e90a4fe94038a9a5b86d8cbf9940a749af6b5c2b4726b81a1b278e1e71",
      "v": 27,
      "creates": null,
      "raw": "0xf86f048601150212132b83015f9094be0f7470ad8de0f233ed37fb29ad46feb98df95c891ae361fc1451c00000801ba0e934bc9a1df24fed10f1f3c990e955279b7d041933ceb4d15aff4bb793fd31a8a0360a50e90a4fe94038a9a5b86d8cbf9940a749af6b5c2b4726b81a1b278e1e71",
      "networkId": 0,
      "chainId": 0
    },
    {
      "hash": "0x94d4f9f6adc9524b17045f9b82971b148f8bea3b484ca7d302cda57373995ef3",
      "blockHash": "0x89bb885c4fa8d9301c5fb166b0773f93a4013f2e5aea5e352486c2cb9e4c4507",
      "blockNumber": 87131,
      "transactionIndex": 2,
      "confirmations": null,
      "from": "0x94a9a71691317c2064271B51C9353fBDED3501a8",
      "gasPrice": {
        "_hex": "0x110c8f7d8de"
      },
      "gasLimit": {
        "_hex": "0xc350"
      },
      "to": "0x2910543Af39abA0Cd09dBb2D50200b3E800A63D2",
      "value": {
        "_hex": "0x48a43c54602f700000"
      },
      "nonce": 0,
      "data": "0x454e46563245464752",
      "r": "0x2e28a24a38d185d4d08b55baba83fd6e7f7d5d52565f5d5ea7bb1043f0103f54",
      "s": "0xcea534afee0fe66e39038c1679741278b47e19f8ea6d47ab8c6eb617a0620f4b",
      "v": 28,
      "creates": null,
      "raw": "0xf87780860110c8f7d8de82c350942910543af39aba0cd09dbb2d50200b3e800a63d28948a43c54602f70000089454e465632454647521ca02e28a24a38d185d4d08b55baba83fd6e7f7d5d52565f5d5ea7bb1043f0103f54a0cea534afee0fe66e39038c1679741278b47e19f8ea6d47ab8c6eb617a0620f4b",
      "networkId": 0,
      "chainId": 0
    },
    {
      "hash": "0x6983bd33ed46c184e5f108fd53f734a686dfd20dfcae29bafb6456153836f1e1",
      "blockHash": "0x89bb885c4fa8d9301c5fb166b0773f93a4013f2e5aea5e352486c2cb9e4c4507",
      "blockNumber": 87131,
      "transactionIndex": 3,
      "confirmations": null,
      "from": "0x32Be343B94f860124dC4fEe278FDCBD38C102D88",
      "gasPrice": {
        "_hex": "0xda304b14a"
      },
      "gasLimit": {
        "_hex": "0x5208"
      },
      "to": "0x34071Aa50197a0A4e258b9A8B0Dc2086608D9a35",
      "value": {
        "_hex": "0x2386f26fc10000"
      },
      "nonce": 777,
      "data": "0x",
      "r": "0xb021ebb2ec713d5772e7c1fe5df6f3095bc8a39aed0c8cd5a46f46268262eb32",
      "s": "0x26026a3be04e5d35d7a65fd35e26d8b64dbd0c4c593616b78d70948a5b4e1ff6",
      "v": 27,
      "creates": null,
      "raw": "0xf86d820309850da304b14a8252089434071aa50197a0a4e258b9a8b0dc2086608d9a35872386f26fc10000801ba0b021ebb2ec713d5772e7c1fe5df6f3095bc8a39aed0c8cd5a46f46268262eb32a026026a3be04e5d35d7a65fd35e26d8b64dbd0c4c593616b78d70948a5b4e1ff6",
      "networkId": 0,
      "chainId": 0
    }
  ]
}