{
  "hash": "0x39f478c009c6d2d8c8acc44bb8ca730ee083ef74d349edb6a7bda6c2256fb17e",
  "parentHash": "0x8a6085e8eb9acddcc830f090315725ea99c0db635597e7730c2e00c57c4fa13a",
  "number": 121568,
  "timestamp": 1440179072,
  "nonce": "0x4bc0e53ed2c0dc4c",
  "difficulty": 4449449733321,
  "gasLimit": {
    "_hex": "0x2fefd8"
  },
  "gasUsed": {
    "_hex": "0x5208"
  },
  "miner": "0x17B719A685fC6C0002798e7f8151D0E2E83B7497",
  "extraData": "0x",
  "transactions": [
    {
      "hash": "0xb0ed311e45a99713fca32a1d165ef7181a11130a9a5a318eed5277db6cc56bb9",
      "blockHash": "0x39f478c009c6d2d8c8acc44bb8ca730ee083ef74d349edb6a7bda6c2256fb17e",
      "blockNumber": 121568,
      "transactionIndex": 0,
      "confirmations": null,
      "from": "0x32Be343B94f860124dC4fEe278FDCBD38C102D88",
      "gasPrice": {
        "_hex": "0xba43b7400"
      },
      "gasLimit": {
        "_hex": "0x5208"
      },
      "to": "0xf8520276975f4a52ee4dc848Cb8e7788C92E1F55",
      "value": {
        "_hex": "0x56ba3d73af34f0000"
      },
      "nonce": 1562,
      "data": "0x",
      "r": "0x6ffdfd8f77cf148a05cc47df542de4039759dcf53e02a61719d586d1e91b37db",
      "s": "0x57f099778de32a369f5c4321f95131845c6136afc5d7d88d906cac7752a6706e",
      "v": 27,
      "creates": null,
      "raw": "0xf86f82061a850ba43b740082520894f8520276975f4a52ee4dc848cb8e7788c92e1f5589056ba3d73af34f0000801ba06ffdfd8f77cf148a05cc47df542de4039759dcf53e02a61719d586d1e91b37dba057f099778de32a369f5c4321f95131845c6136afc5d7d88d906cac7752a6706e",
      "networkId": 0,
      "chainId": 0
    }
  ]
}