{
  "hash": "0x1e9416813b56e4710834b2a87efd6ee85b4f017cf2aaf6bc476a5303a08d75d5",
  "parentHash": "0xaf021be004d1b2febc536fabe14191f275a55154f3c752db5e6431a767aef6db",
  "number": 83466,
  "timestamp": 1439535778,
  "nonce": "0xf90772bf5139155c",
  "difficulty": 2437266648785,
  "gasLimit": {
    "_hex": "0x2fefd8"
  },
  "gasUsed": {
    "_hex": "0x14ac8"
  },
  "miner": "0xe6A7a1d47ff21B6321162AEA7C6CB457D5476Bca",
  "extraData": "0x476574682f76312e302e312d38326566323666362f6c696e75782f676f312e34",
  "transactions": [
    {
      "hash": "0xa5a7ff9068fc9d33fc30f8124dfab294107edafcdf1110304fbf74a50f495f5d",
      "blockHash": "0x1e9416813b56e4710834b2a87efd6ee85b4f017cf2aaf6bc476a5303a08d75d5",
      "blockNumber": 83466,
      "transactionIndex": 0,
      "confirmations": null,
      "from": "0x8F68fbE2DCFf038C24F650C9e05Ee478038171cd",
      "gasPrice": {
        "_hex": "0xd5b001d94"
      },
      "gasLimit": {
        "_hex": "0x55f0"
      },
      "to": "0x40B9b889A21Ff1534d018D71Dc406122EBcf3F5A",
      "value": {
        "_hex": "0x15af1d78b58c40000"
      },
      "nonce": 15,
      "data": "0x4a465343433732393935",
      "r": "0x40ceaab356948be066e0430955ea902ecd326b285c1f6b924b6ad49732ed747a",
      "s": "0x0fa2a77a090d30160dda543a86c257e6b5d8fbb4f40d9276b3762e656ef80f41",
      "v": 27,
      "creates": null,
      "raw": "0xf8770f850d5b001d948255f09440b9b889a21ff1534d018d71dc406122ebcf3f5a89015af1d78b58c400008a4a4653434337323939351ba040ceaab356948be066e0430955ea902ecd326b285c1f6b924b6ad49732ed747aa00fa2a77a090d30160dda543a86c257e6b5d8fbb4f40d9276b3762e656ef80f41",
      "networkId": 0,
      "chainId": 0
    },
    {
      "hash": "0xc789382243905c639a812cc7a203a0e670b94ff3cb50fd02f8f042d93675223c",
      "blockHash": "0x1e9416813b56e4710834b2a87efd6ee85b4f017cf2aaf6bc476a5303a08d75d5",
      "blockNumber": 83466,
      "transactionIndex": 1,
      "confirmations": null,
      "from": "0x7Eb9F59f9547E376188eD83EFCD1F6dbF3712eA6",
      "gasPrice": {
        "_hex": "0xd5ad0926f"
      },
      "gasLimit": {
        "_hex": "0x15f90"
      },
      "to": "0xAd941B747c499E3ad5728C285446813783A33564",
      "value": {
        "_hex": "0x107ad8f556c6c0000"
      },
      "nonce": 11,
      "data": "0x",
      "r": "0x820b14ec9aa7acb384494c0695469e69bba3691233d3a2979716e44fed3e0894",
      "s": "0x52396cdfead942206d2cc4bb3768031fbb62d8c4a582883f1528aa78335ecbc6",
      "v": 28,
      "creates": null,
      "raw": "0xf86e0b850d5ad0926f83015f9094ad941b747c499e3ad5728c285446813783a33564890107ad8f556c6c0000801ca0820b14ec9aa7acb384494c0695469e69bba3691233d3a2979716e44fed3e0894a052396cdfead942206d2cc4bb3768031fbb62d8c4a582883f1528aa78335ecbc6",
      "networkId": 0,
      "chainId": 0
    },
    {
      "hash": "0xec70c87bbc13eb3e5c76b2b91c21b5f89b20744c0bd0d15d5b5d0cd8c4813a7a",
      "blockHash": "0x1e9416813b56e4710834b2a87efd6ee85b4f017cf2aaf6bc476a5303a08d75d5",
      "blockNumber": 83466,
      "transactionIndex": 2,
      "confirmations": null,
      "from": "0xa114c802ef29776f05f9c6925cE915232e8ae102",
      "gasPrice": {
        "_hex": "0xcf9cce2ad"
      },
      "gasLimit": {
        "_hex": "0x5208"
      },
      "to": "0x32Be343B94f860124dC4fEe278FDCBD38C102D88",
      "value": {
        "_hex": "0x1a0514c70be0aa000"
      },
      "nonce": 16,
      "data": "0x",
      "r": "0xcfc63cb43f76bfc4629d5a97c35e58de3612c3351f3d42b79640605895580e52",
      "s": "0x7be52d1f8d99c25a06cfd25ce33ddf6c89cc662efdac3bf96950a79100c0580d",
      "v": 27,
      "creates": null,
      "raw": "0xf86d10850cf9cce2ad8252089432be343b94f860124dc4fee278fdcbd38c102d888901a0514c70be0aa000801ba0cfc63cb43f76bfc4629d5a97c35e58de3612c3351f3d42b79640605895580e52a07be52d1f8d99c25a06cfd25ce33ddf6c89cc662efdac3bf96950a79100c0580d",
      "networkId": 0,
      "chainId": 0
    },
    {
      "hash": "0xb86bb3a38b83f07f60320cf6264a053290bb8831a0511c2a5dd05c0f8a491817",
      "blockHash": "0x1e9416813b56e4710834b2a87efd6ee85b4f017cf2aaf6bc476a5303a08d75d5",
      "blockNumber": 83466,
      "transactionIndex": 3,
      "confirmations": null,
      "from": "0x9ecD1Bc07d16eb926077282970FA5240cc983F25",
      "gasPrice": {
        "_hex": "0xcf9cce2ad"
      },
      "gasLimit": {
        "_hex": "0x5208"
      },
      "to": "0x32Be343B94f860124dC4fEe278FDCBD38C102D88",
      "value": {
        "_hex": "0xdae7540e3beb400"
      },
      "nonce": 2,
      "data": "0x",
      "r": "0xf4bde78e2b516ad3ce52ab0e864be55700095d94ff447f98735081c5ffc5fbd1",
      "s": "0x19a8e828a561d30dff15075281509a9da538bd3673f962b452a2408dc2b4e210",
      "v": 27,
      "creates": null,
      "raw": "0xf86c02850cf9cce2ad8252089432be343b94f860124dc4fee278fdcbd38c102d88880dae7540e3beb400801ba0f4bde78e2b516ad3ce52ab0e864be55700095d94ff447f98735081c5ffc5fbd1a019a8e828a561d30dff15075281509a9da538bd3673f962b452a2408dc2b4e210",
      "networkId": 0,
      "chainId": 0
    }
  ]
}