{
  "hash": "0xf624c359b216bdc3004dbc77c0421f3d9db5678431e24f2a888f14bc5040e005",
  "parentHash": "0x8c3779577f011ce8e14450625f86c21d732fa98906bc82a9a69723c1949cfd67",
  "number": 83692,
  "timestamp": 1439539199,
  "nonce": "0x04be6e5bc18a601c",
  "difficulty": 2444351693922,
  "gasLimit": {
    "_hex": "0x2fefd8"
  },
  "gasUsed": {
    "_hex": "0x5208"
  },
  "miner": "0x7E6930B63D03e88F5928C5cd6ee3FCee4D714F7F",
  "extraData": "0x",
  "transactions": [
    {
      "hash": "0xcbf4e48c297eef320e8bbff3b79ef23f745b61a9b07cb9205741128b546648f6",
      "blockHash": "0xf624c359b216bdc3004dbc77c0421f3d9db5678431e24f2a888f14bc5040e005",
      "blockNumber": 83692,
      "transactionIndex": 0,
      "confirmations": null,
      "from": "0xF9634a7Ee627EeF74f4d803113CD4F87E5162079",
      "gasPrice": {
        "_hex": "0xba43b7400"
      },
      "gasLimit": {
        "_hex": "0x5b04"
      },
      "to": "0x9f78552704fe7e52cC7C3853534aA2C3cf580D54",
      "value": {
        "_hex": "0x4563918244f40000"
      },
      "nonce": 2,
      "data": "0x",
      "r": "0xa67b90ba8c63d73d61db519848e09ac1cb9da380607f047b364b0946095ea5d1",
      "s": "0x8bf6ecd2307ad697688f15007a3f7502a38c94418ca053570f4569d1bf527077",
      "v": 28,
      "creates": null,
      "raw": "0xf86c02850ba43b7400825b04949f78552704fe7e52cc7c3853534aa2c3cf580d54884563918244f40000801ca0a67b90ba8c63d73d61db519848e09ac1cb9da380607f047b364b0946095ea5d1a08bf6ecd2307ad697688f15007a3f7502a38c94418ca053570f4569d1bf527077",
      "networkId": 0,
      "chainId": 0
    }
  ]
}