{
  "hash": "0x59367d450578e282de4eef5f25441f121e222dc18eb33a619c26a6f571835a01",
  "parentHash": "0xc1841a3f95e79924196310f3d64af7c4295472b7246c51e43bedfba82b244a47",
  "number": 53131,
  "timestamp": 1439032967,
  "nonce": "0x051be235acf27f0b",
  "difficulty": 1572393268570,
  "gasLimit": {
    "_hex": "0x205118"
  },
  "gasUsed": {
    "_hex": "0x899a"
  },
  "miner": "0x893FF53FE9b3DA680472E1948F2294F970D44678",
  "extraData": "0x476574682f76312e302e312f6c696e75782f676f312e342e32",
  "transactions": [
    {
      "hash": "0x16a6e787439074b3f6f5eb70d0af5cb79ab8e0b6412f7d554aa730b13795021e",
      "blockHash": "0x59367d450578e282de4eef5f25441f121e222dc18eb33a619c26a6f571835a01",
      "blockNumber": 53131,
      "transactionIndex": 0,
      "confirmations": null,
      "from": "0x4b0C6F0297CEe4B551B6fab3277067B64B238990",
      "gasPrice": {
        "_hex": "0x10c41f92eda"
      },
      "gasLimit": {
        "_hex": "0x15f90"
      },
      "to": "0x33e98638ea7F2C2fd83731528fb53802Af395D13",
      "value": {
        "_hex": "0x0"
      },
      "nonce": 7,
      "data": "0x90b98a11000000000000000000000000258091741a3ab6ddd5e304ea6b9eff060badb8bf0000000000000000000000000000000000000000000000000000000000000001",
      "r": "0xecf5609002ade233b5698886950e5c365a81577e7dc4b6126fd396df6dba0003",
      "s": "0x7fa4b6f199b250567dbf8f8b8fb8dd45ca0c7b0073142679a845156795798111",
      "v": 27,
      "creates": null,
      "raw": "0xf8ab0786010c41f92eda83015f909433e98638ea7f2c2fd83731528fb53802af395d1380b84490b98a11000000000000000000000000258091741a3ab6ddd5e304ea6b9eff060badb8bf00000000000000000000000000000000000000000000000000000000000000011ba0ecf5609002ade233b5698886950e5c365a81577e7dc4b6126fd396df6dba0003a07fa4b6f199b250567dbf8f8b8fb8dd45ca0c7b0073142679a845156795798111",
      "networkId": 0,
      "chainId": 0
    }
  ]
}