{
  "hash": "0x118c06cdcc17e7cfc092055f30ee17d0c69208fff3f116e86b7084031fc497e4",
  "parentHash": "0x245550438d4d50e5f90f55ad9a0943e2043646c9ec5f467037787cd171cba402",
  "number": 65063,
  "timestamp": 1439230636,
  "nonce": "0x737ab7ab89ef7e78",
  "difficulty": 1927559257834,
  "gasLimit": {
    "_hex": "0x2fefd8"
  },
  "gasUsed": {
    "_hex": "0xa410"
  },
  "miner": "0x841B562a690B0808405F6E3713E1efdbebA96021",
  "extraData": "0x476574682f76312e302e312f77696e646f77732f676f312e342e32",
  "transactions": [
    {
      "hash": "0xceb1c5d873a4c8741b3be4b8920083423e4712d1e4ff18ee1ec3f6cc6e5e6f15",
      "blockHash": "0x118c06cdcc17e7cfc092055f30ee17d0c69208fff3f116e86b7084031fc497e4",
      "blockNumber": 65063,
      "transactionIndex": 0,
      "confirmations": null,
      "from": "0x2077F896f0274b3Cb2c8fd8c956aF1689d90D532",
      "gasPrice": {
        "_hex": "0xba43b7400"
      },
      "gasLimit": {
        "_hex": "0x5208"
      },
      "to": "0xfe94A04FD0E639e25E3ee538c8DAAFa20e0B8c3E",
      "value": {
        "_hex": "0x3eb9155f46fc000"
      },
      "nonce": 1,
      "data": "0x",
      "r": "0xd8463a6b8bbc1c9e14938e2972ad4ef6be0f6ba0528441672561f5cee0cdd702",
      "s": "0x0405cf757a0bd912eaf7a67e83766feaad471ced84dd0b79d01403b33b8da55f",
      "v": 28,
      "creates": null,
      "raw": "0xf86c01850ba43b740082520894fe94a04fd0e639e25e3ee538c8daafa20e0b8c3e8803eb9155f46fc000801ca0d8463a6b8bbc1c9e14938e2972ad4ef6be0f6ba0528441672561f5cee0cdd702a00405cf757a0bd912eaf7a67e83766feaad471ced84dd0b79d01403b33b8da55f",
      "networkId": 0,
      "chainId": 0
    },
    {
      "hash": "0x0a76709efab3d33032ac2139dc031962fd6649a8fa7599a529577ee7752a9317",
      "blockHash": "0x118c06cdcc17e7cfc092055f30ee17d0c69208fff3f116e86b7084031fc497e4",
      "blockNumber": 65063,
      "transactionIndex": 1,
      "confirmations": null,
      "from": "0x4cECAbA591fa209ae22E8bDb9fbb444Bf0949B86",
      "gasPrice": {
        "_hex": "0xba43b7400"
      },
      "gasLimit": {
        "_hex": "0x5208"
      },
      "to": "0x1C4b22D11D3004A1d4ef2a4433E2E3cC2b9aC5D9",
      "value": {
        "_hex": "0x38f04a28e2e0000"
      },
      "nonce": 1,
      "data": "0x",
      "r": "0x3629dbbb962a120adec424e31b3ab263c09df5f0283e98d60aef8e102d91a2e5",
      "s": "0x28eef497fb67fb7a79b55018dfbc466697a4b4e4388d49155773d4084e4ef757",
      "v": 28,
      "creates": null,
      "raw": "0xf86c01850ba43b7400825208941c4b22d11d3004a1d4ef2a4433e2e3cc2b9ac5d988038f04a28e2e0000801ca03629dbbb962a120adec424e31b3ab263c09df5f0283e98d60aef8e102d91a2e5a028eef497fb67fb7a79b55018dfbc466697a4b4e4388d49155773d4084e4ef757",
      "networkId": 0,
      "chainId": 0
    }
  ]
}