{
  "hash": "0x2fbe4f2654ea89aed5564381c0656579e93b05814b5f2d01e67c77b0fa02f684",
  "parentHash": "0x6f9eeacadf8b5f0ecf21bf7ebc1ee2f20cd0e4607159a4b8c0e0d14754a79422",
  "number": 68658,
  "timestamp": 1439291496,
  "nonce": "0x5347b5cb7f14606b",
  "difficulty": 2018213540700,
  "gasLimit": {
    "_hex": "0x2fefd8"
  },
  "gasUsed": {
    "_hex": "0x388bc"
  },
  "miner": "0x896f51055242AFb540C777EAf24AffA8EA14956b",
  "extraData": "0x",
  "transactions": [
    {
      "hash": "0xf859048802a225cf563ef03c5ef3f375aa5e8a60739643123449db7b4893d77c",
      "blockHash": "0x2fbe4f2654ea89aed5564381c0656579e93b05814b5f2d01e67c77b0fa02f684",
      "blockNumber": 68658,
      "transactionIndex": 0,
      "confirmations": null,
      "from": "0x95dF4e3445D7662624c48eba74cF9e0a53E9f732",
      "gasPrice": {
        "_hex": "0xdd2d27d00"
      },
      "gasLimit": {
        "_hex": "0x5492"
      },
      "to": "0x2910543Af39abA0Cd09dBb2D50200b3E800A63D2",
      "value": {
        "_hex": "0x6c6b935b8bbd400000"
      },
      "nonce": 4,
      "data": "0x454e454b5537393138",
      "r": "0xd7576011b30c2c7545b43b5cd7a627dfae022af00f0f1e09978fa136e77372db",
      "s": "0x7e71c4992e7a15ca73a4210d86435af4a9460afb0fab6784ea1045a8034f96ff",
      "v": 28,
      "creates": null,
      "raw": "0xf87604850dd2d27d00825492942910543af39aba0cd09dbb2d50200b3e800a63d2896c6b935b8bbd40000089454e454b55373931381ca0d7576011b30c2c7545b43b5cd7a627dfae022af00f0f1e09978fa136e77372dba07e71c4992e7a15ca73a4210d86435af4a9460afb0fab6784ea1045a8034f96ff",
      "networkId": 0,
      "chainId": 0
    },
    {
      "hash": "0x2bceb9e4cc472afa0bdc2eb90d9aadf04ae94bd4ce4f62127226f3a315497e31",
      "blockHash": "0x2fbe4f2654ea89aed5564381c0656579e93b05814b5f2d01e67c77b0fa02f684",
      "blockNumber": 68658,
      "transactionIndex": 1,
      "confirmations": null,
      "from": "0xE88E2A3ba421815f8B1117dd99A03b59dE07bF7a",
      "gasPrice": {
        "_hex": "0xba43b7400"
      },
      "gasLimit": {
        "_hex": "0x5208"
      },
      "to": "0xbA66d47eC3F5151712D1CEaDEbb272624A60d195",
      "value": {
        "_hex": "0x1d7684e6875b000"
      },
      "nonce": 1,
      "data": "0x",
      "r": "0x8152a7cee2264ad8d1d0b4815f02f3933c04f85d5fd72c95842006e99751ec6e",
      "s": "0x1d9b56f10044ab5441ddc117c3731d541764ea28ed39521162462573767f8b69",
      "v": 27,
      "creates": null,
      "raw": "0xf86c01850ba43b740082520894ba66d47ec3f5151712d1ceadebb272624a60d1958801d7684e6875b000801ba08152a7cee2264ad8d1d0b4815f02f3933c04f85d5fd72c95842006e99751ec6ea01d9b56f10044ab5441ddc117c3731d541764ea28ed39521162462573767f8b69",
      "networkId": 0,
      "chainId": 0
    },
    {
      "hash": "0x153cdffb9690d8417e3a617dbacd93c38248226df51ca6a9e00ffcca79401f5a",
      "blockHash": "0x2fbe4f2654ea89aed5564381c0656579e93b05814b5f2d01e67c77b0fa02f684",
      "blockNumber": 68658,
      "transactionIndex": 2,
      "confirmations": null,
      "from": "0x21ed96c11BF1B0a620A18822793e9F96d301ddDB",
      "gasPrice": {
        "_hex": "0xba43b7400"
      },
      "gasLimit": {
        "_hex": "0x5208"
      },
      "to": "0xaf7AeE4DB4d23C0c96D067D96f020147fED242C5",
      "value": {
        "_hex": "0x1d7684e6875b000"
      },
      "nonce": 1,
      "data": "0x",
      "r": "0x0e4ad1e94abeaf5a1b449882a8e9d02a1284b1e9a384fc44cb898ff62d45e26c",
      "s": "0x3ad61be7a8bcb837883d6ccfd274170462cc72b1c7f3cb8eb93040a24c15db0e",
      "v": 28,
      "creates": null,
      "raw": "0xf86c01850ba43b740082520894af7aee4db4d23c0c96d067d96f020147fed242c58801d7684e6875b000801ca00e4ad1e94abeaf5a1b449882a8e9d02a1284b1e9a384fc44cb898ff62d45e26ca03ad61be7a8bcb837883d6ccfd274170462cc72b1c7f3cb8eb93040a24c15db0e",
      "networkId": 0,
      "chainId": 0
    },
    {
      "hash": "0x99607915070cb4ed49de3d54bc6396ff3e9f210646ee7d08de046dfc97f345ce",
      "blockHash": "0x2fbe4f2654ea89aed5564381c0656579e93b05814b5f2d01e67c77b0fa02f684",
      "blockNumber": 68658,
      "transactionIndex": 3,
      "confirmations": null,
      "from": "0x5843E88CE5f22026758c6bd772eF4c9724E82e93",
      "gasPrice": {
        "_hex": "0xba43b7400"
      },
      "gasLimit": {
        "_hex": "0x5208"
      },
      "to": "0xEfD17419b3f8C278F396F4e60eF3CE4c7B082919",
      "value": {
        "_hex": "0x1d7684e6875b000"
      },
      "nonce": 1,
      "data": "0x",
      "r": "0xa00f5276d912e47814cb9a5e69abd77e15cf9c49960eed11f7e80c8fe7e51e4b",
      "s": "0x418df0244ed3fb1691d1cf26c6cacd49a6e70a9f871087799890d538cf352d75",
      "v": 28,
      "creates": null,
      "raw": "0xf86c01850ba43b740082520894efd17419b3f8c278f396f4e60ef3ce4c7b0829198801d7684e6875b000801ca0a00f5276d912e47814cb9a5e69abd77e15cf9c49960eed11f7e80c8fe7e51e4ba0418df0244ed3fb1691d1cf26c6cacd49a6e70a9f871087799890d538cf352d75",
      "networkId": 0,
      "chainId": 0
    },
    {
      "hash": "0xd75160749f5a5f63e999772ee0413a9a1b26183265fe22daef49444cf9b1fde3",
      "blockHash": "0x2fbe4f2654ea89aed5564381c0656579e93b05814b5f2d01e67c77b0fa02f684",
      "blockNumber": 68658,
      "transactionIndex": 4,
      "confirmations": null,
      "from": "0xE4c12fD570f076F76CA78D1BF128E59041304f61",
      "gasPrice": {
        "_hex": "0xba43b7400"
      },
      "gasLimit": {
        "_hex": "0x5208"
      },
      "to": "0xDBf81E29CcbfD8A1129da3A78305e3B4A58d2303",
      "value": {
        "_hex": "0x1d7684e6875b000"
      },
      "nonce": 1,
      "data": "0x",
      "r": "0x62e09ecfc31ebf61ec8af308294f8da4296599c22f7c4ef8016a31ef89ff6386",
      "s": "0x71d9c968b95633635d825d50680e08675f4085848c0ae6ee804756e45ca1c952",
      "v": 27,
      "creates": null,
      "raw": "0xf86c01850ba43b740082520894dbf81e29ccbfd8a1129da3a78305e3b4a58d23038801d7684e6875b000801ba062e09ecfc31ebf61ec8af308294f8da4296599c22f7c4ef8016a31ef89ff6386a071d9c968b95633635d825d50680e08675f4085848c0ae6ee804756e45ca1c952",
      "networkId": 0,
      "chainId": 0
    },
    {
      "hash": "0x8a749af3f8ba57aad591305968457080b07283467e54985cb59409033f415eac",
      "blockHash": "0x2fbe4f2654ea89aed5564381c0656579e93b05814b5f2d01e67c77b0fa02f684",
      "blockNumber": 68658,
      "transactionIndex": 5,
      "confirmations": null,
      "from": "0xC8C731737A2824862DB9B6194Ad169De0F52c598",
      "gasPrice": {
        "_hex": "0xba43b7400"
      },
      "gasLimit": {
        "_hex": "0x5208"
      },
      "to": "0x9Dd091647B06fbb9380147feeDd3fe3Ecc827990",
      "value": {
        "_hex": "0x1d7684e6875b000"
      },
      "nonce": 1,
      "data": "0x",
      "r": "0xefcee8f2607a8bd25ed8f71f902dced18c0565f719d78fed2ec7e05ccc54e8dd",
      "s": "0x5b2311b789fd0e35b5b76813c2b6af7a781990c60ed854ca88c81cf2384f1773",
      "v": 27,
      "creates": null,
      "raw": "0xf86c01850ba43b7400825208949dd091647b06fbb9380147feedd3fe3ecc8279908801d7684e6875b000801ba0efcee8f2607a8bd25ed8f71f902dced18c0565f719d78fed2ec7e05ccc54e8dda05b2311b789fd0e35b5b76813c2b6af7a781990c60ed854ca88c81cf2384f1773",
      "networkId": 0,
      "chainId": 0
    },
    {
      "hash": "0xc7f73fc66eec058b00fc9668271927370e4279c87fed27bf450474689a07c545",
      "blockHash": "0x2fbe4f2654ea89aed5564381c0656579e93b05814b5f2d01e67c77b0fa02f684",
      "blockNumber": 68658,
      "transactionIndex": 6,
      "confirmations": null,
      "from": "0x26CE3503991060FdC3D8c9b7c27da33742D07b10",
      "gasPrice": {
        "_hex": "0xba43b7400"
      },
      "gasLimit": {
        "_hex": "0x5208"
      },
      "to": "0xA2c6dDAA9A96067993BFc8671608589de3Ba60F0",
      "value": {
        "_hex": "0x1d7684e6875b000"
      },
      "nonce": 1,
      "data": "0x",
      "r": "0x86c0ffadfe3c342b5748af800a7d0fa1edac592479b58e2d8b2a617266d019c6",
      "s": "0x6a7ee6658347e669ca8baaf9c159c4c13a7c52032a7c0413928ecd3aacbde4c2",
      "v": 27,
      "creates": null,
      "raw": "0xf86c01850ba43b740082520894a2c6ddaa9a96067993bfc8671608589de3ba60f08801d7684e6875b000801ba086c0ffadfe3c342b5748af800a7d0fa1edac592479b58e2d8b2a617266d019c6a06a7ee6658347e669ca8baaf9c159c4c13a7c52032a7c0413928ecd3aacbde4c2",
      "networkId": 0,
      "chainId": 0
    },
    {
      "hash": "0xa25b1904bf003ef72d705fedbd8be8a707e40c75b979a9fef0e16046c3bf8b94",
      "blockHash": "0x2fbe4f2654ea89aed5564381c0656579e93b05814b5f2d01e67c77b0fa02f684",
      "blockNumber": 68658,
      "transactionIndex": 7,
      "confirmations": null,
      "from": "0x4d293a52b7838A44EE791C2ABfC09daBd41985aE",
      "gasPrice": {
        "_hex": "0xba43b7400"
      },
      "gasLimit": {
        "_hex": "0x5208"
      },
      "to": "0xd9Bf1c77439dB284A4f0f6243fbC214252906afD",
      "value": {
        "_hex": "0x1d7684e6875b000"
      },
      "nonce": 1,
      "data": "0x",
      "r": "0x5a6110d147902381d826b21ec6f53bc6178ebbd841aaaa9b14e0cc984a1fbd9b",
      "s": "0x0ef0b9649c8d9f44dd37b090f1ce5dfd0360a3db900c9120052f8ac6fba54aea",
      "v": 27,
      "creates": null,
      "raw": "0xf86c01850ba43b740082520894d9bf1c77439db284a4f0f6243fbc214252906afd8801d7684e6875b000801ba05a6110d147902381d826b21ec6f53bc6178ebbd841aaaa9b14e0cc984a1fbd9ba00ef0b9649c8d9f44dd37b090f1ce5dfd0360a3db900c9120052f8ac6fba54aea",
      "networkId": 0,
      "chainId": 0
    },
    {
      "hash": "0xd17e7446d5d9c17196b72485c4a82281800b06893eb4b4835270ba499957d30b",
      "blockHash": "0x2fbe4f2654ea89aed5564381c0656579e93b05814b5f2d01e67c77b0fa02f684",
      "blockNumber": 68658,
      "transactionIndex": 8,
      "confirmations": null,
      "from": "0x4a7003798C6Ef43Eda17c4F26BD5f08bD36B5180",
      "gasPrice": {
        "_hex": "0xba43b7400"
      },
      "gasLimit": {
        "_hex": "0x5208"
      },
      "to": "0xBF9B812BaD5FD0301bF4ae4C6415d9dfcfdCA889",
      "value": {
        "_hex": "0x1d7684e6875b000"
      },
      "nonce": 1,
      "data": "0x",
      "r": "0xe7432df277f7723891ec20f4946e91d9cadde4a7f17973acb8b8ef10c8e6bea5",
      "s": "0x7ab6c358fc59017231e3dec6d87b52db1b446eb60f10fb7e7ffc819651d4ee2f",
      "v": 27,
      "creates": null,
      "raw": "0xf86c01850ba43b740082520894bf9b812bad5fd0301bf4ae4c6415d9dfcfdca8898801d7684e6875b000801ba0e7432df277f7723891ec20f4946e91d9cadde4a7f17973acb8b8ef10c8e6bea5a07ab6c358fc59017231e3dec6d87b52db1b446eb60f10fb7e7ffc819651d4ee2f",
      "networkId": 0,
      "chainId": 0
    },
    {
      "hash": "0xdcece0795e21a6d613cc2fc75e1b7ace175b11ddb46fcb6b0f47c3d4319b88fb",
      "blockHash": "0x2fbe4f2654ea89aed5564381c0656579e93b05814b5f2d01e67c77b0fa02f684",
      "blockNumber": 68658,
      "transactionIndex": 9,
      "confirmations": null,
      "from": "0xB3266dFBd5D48973a1cB6C58C949aeDF28Ef8f52",
      "gasPrice": {
        "_hex": "0xba43b7400"
      },
      "gasLimit": {
        "_hex": "0x5208"
      },
      "to": "0x847599CA040B4F2eA042b7d2C7980630027315ba",
      "value": {
        "_hex": "0x1d7684e6875b000"
      },
      "nonce": 1,
      "data": "0x",
      "r": "0xf688207a5bc6424d9b52c05b5f64abee1de6e290c601bfbc3e162206bbcd253a",
      "s": "0x0877a8c9ac7697bb5144d116924a3985cde2b77c381e02596ad6ed3d2076661d",
      "v": 27,
      "creates": null,
      "raw": "0xf86c01850ba43b740082520894847599ca040b4f2ea042b7d2c7980630027315ba8801d7684e6875b000801ba0f688207a5bc6424d9b52c05b5f64abee1de6e290c601bfbc3e162206bbcd253aa00877a8c9ac7697bb5144d116924a3985cde2b77c381e02596ad6ed3d2076661d",
      "networkId": 0,
      "chainId": 0
    },
    {
      "hash": "0xb8f1b4b98e90b757385aa643ccf953f0932be3c0699df51ee869473320b34391",
      "blockHash": "0x2fbe4f2654ea89aed5564381c0656579e93b05814b5f2d01e67c77b0fa02f684",
      "blockNumber": 68658,
      "transactionIndex": 10,
      "confirmations": null,
      "from": "0xa45e8160D2C6Bc02c737CDE37A16B84eBD24Ea61",
      "gasPrice": {
        "_hex": "0xba43b7400"
      },
      "gasLimit": {
        "_hex": "0x5208"
      },
      "to": "0xeeD203A3ACD617a6bd47Ca74b0c27bb025609C5d",
      "value": {
        "_hex": "0x1d7684e6875b000"
      },
      "nonce": 1,
      "data": "0x",
      "r": "0xd18f005d58b7ecf2af1e4ce7bf5cdceb8fdd89c45be8721ab9e07729aba104e0",
      "s": "0x262e6df7978863906c58988abeb93b633b1dc817f41c4d0c5236872331c5afeb",
      "v": 28,
      "creates": null,
      "raw": "0xf86c01850ba43b740082520894eed203a3acd617a6bd47ca74b0c27bb025609c5d8801d7684e6875b000801ca0d18f005d58b7ecf2af1e4ce7bf5cdceb8fdd89c45be8721ab9e07729aba104e0a0262e6df7978863906c58988abeb93b633b1dc817f41c4d0c5236872331c5afeb",
      "networkId": 0,
      "chainId": 0
    }
  ]
}