{
  "hash": "0xbcb25e3be4feef41d63add01ac1220d90f8e82cc1a7e8963d9dc43ddb9ebc174",
  "parentHash": "0x114763f120ad96ea3bdbc70868a346063b68e1251aac47649fd2837b1880bd72",
  "number": 99865,
  "timestamp": 1439796842,
  "nonce": "0xe27f7fc28196fd38",
  "difficulty": 3836224632723,
  "gasLimit": {
    "_hex": "0x2fefd8"
  },
  "gasUsed": {
    "_hex": "0x5208"
  },
  "miner": "0xaA35779Ef4dfBEd0B3D6F46F5f11cb86261B17A5",
  "extraData": "0x476574682f76312e302e312f77696e646f77732f676f312e342e32",
  "transactions": [
    {
      "hash": "0x4dff80106526e9eb2db9a351742f314876e74d805da517363a8650a82e47a4c9",
      "blockHash": "0xbcb25e3be4feef41d63add01ac1220d90f8e82cc1a7e8963d9dc43ddb9ebc174",
      "blockNumber": 99865,
      "transactionIndex": 0,
      "confirmations": null,
      "from": "0x32Be343B94f860124dC4fEe278FDCBD38C102D88",
      "gasPrice": {
        "_hex": "0xdfa930367"
      },
      "gasLimit": {
        "_hex": "0x5208"
      },
      "to": "0x7A2F47C09a9436e8b7fCfEacDD4e7Ee10a0D00b7",
      "value": {
        "_hex": "0x354a6ba7a180000"
      },
      "nonce": 1067,
      "data": "0x",
      "r": "0x1ea79d1eb9e033548debe0f425d5096c3896e828289bf0ad0b76943ebbbfbd43",
      "s": "0x1c01f498d8ef4090c794421d04447f4a1ebe1d8dc3fd5c9d2b0b224a031cb576",
      "v": 28,
      "creates": null,
      "raw": "0xf86e82042b850dfa930367825208947a2f47c09a9436e8b7fcfeacdd4e7ee10a0d00b7880354a6ba7a180000801ca01ea79d1eb9e033548debe0f425d5096c3896e828289bf0ad0b76943ebbbfbd43a01c01f498d8ef4090c794421d04447f4a1ebe1d8dc3fd5c9d2b0b224a031cb576",
      "networkId": 0,
      "chainId": 0
    }
  ]
}