{
  "hash": "0x125673d996aed6e22d124fe030c4a044801a05b035a1fd9eec2ab93e2cff3092",
  "parentHash": "0x83ff580abfb3060dc0f98ef6c19fb43752ee6f03bee13f2cd0670f1e260e79dd",
  "number": 84342,
  "timestamp": 1439548336,
  "nonce": "0x189dd1e9b2c7cd1a",
  "difficulty": 2539045914791,
  "gasLimit": {
    "_hex": "0x2fefd8"
  },
  "gasUsed": {
    "_hex": "0x5208"
  },
  "miner": "0x0eDEd3DA479d0beF8eeC92A76644D3f4E3C177f7",
  "extraData": "0x476574682f76312e302e312f6c696e75782f676f312e342e32",
  "transactions": [
    {
      "hash": "0x740849f2f835bf289080583eeba964d911a7d00a09f016046b2d5120e179c215",
      "blockHash": "0x125673d996aed6e22d124fe030c4a044801a05b035a1fd9eec2ab93e2cff3092",
      "blockNumber": 84342,
      "transactionIndex": 0,
      "confirmations": null,
      "from": "0xa83A3BD5fBcceD1b6e82119B404769f74a89Cab4",
      "gasPrice": {
        "_hex": "0xd61392373"
      },
      "gasLimit": {
        "_hex": "0x15f90"
      },
      "to": "0x4FCD326ae0739D0DA0fC71020adb6aBf9abf3BdA",
      "value": {
        "_hex": "0xde0b6b3a7640000"
      },
      "nonce": 0,
      "data": "0x",
      "r": "0xf19ed75789a23b437c23de7f4bed29f0f8dc2467ae6e7d0b9c215d5b2d800000",
      "s": "0x7eb72ba48e8cae48f7f9b724252b6e6d9e05bb93b356f5189be56f9228bd7b23",
      "v": 27,
      "creates": null,
      "raw": "0xf86d80850d6139237383015f90944fcd326ae0739d0da0fc71020adb6abf9abf3bda880de0b6b3a7640000801ba0f19ed75789a23b437c23de7f4bed29f0f8dc2467ae6e7d0b9c215d5b2d800000a07eb72ba48e8cae48f7f9b724252b6e6d9e05bb93b356f5189be56f9228bd7b23",
      "networkId": 0,
      "chainId": 0
    }
  ]
}