{
  "hash": "0xbd6fb31d59758729f3a0dbda32c2a8bb08aa06d961a416f71794567a6ebc8cc5",
  "parentHash": "0x8c28efe1c061920d8677bf4383974cb81731b271b914867bbf13ed20a500278b",
  "number": 72521,
  "timestamp": 1439354054,
  "nonce": "0xa7d4a7f4a5f4eef8",
  "difficulty": 2197238740928,
  "gasLimit": {
    "_hex": "0x2fefd8"
  },
  "gasUsed": {
    "_hex": "0x15f90"
  },
  "miner": "0x9746c7e1ef2bd21FF3997fa467593a89cb852BD0",
  "extraData": "0x476574682f76312e302e312f77696e646f77732f676f312e342e32",
  "transactions": [
    {
      "hash": "0x1dda8b92d3ceb96c0514343e22cd4dbffb5be9531308e5b5e5b97f77b8acb9d7",
      "blockHash": "0xbd6fb31d59758729f3a0dbda32c2a8bb08aa06d961a416f71794567a6ebc8cc5",
      "blockNumber": 72521,
      "transactionIndex": 0,
      "confirmations": null,
      "from": "0x326Be8F71bFb0379f989aAB1CC1fE37f0a771f60",
      "gasPrice": {
        "_hex": "0x10dd0dff6f6"
      },
      "gasLimit": {
        "_hex": "0x15f90"
      },
      "to": "0x8dD3Da3fAB45051Ed2Cd677c0e53c9dE0011944c",
      "value": {
        "_hex": "0x0"
      },
      "nonce": 5,
      "data": "0x8d21618600000000000000000000000000000000000000000000000000000000000000806361740000000000000000000000000000000000000000000000000000000000",
      "r": "0x40faf5f8cff6c1fafa8ec07221a9b3b894889daa3a57e3f56a2f283a2238a283",
      "s": "0x0c20b9f32246c22c69cde10b9f71f41db04a5c91792971b6e7cba4dea04c6fdc",
      "v": 27,
      "creates": null,
      "raw": "0xf8ab0586010dd0dff6f683015f90948dd3da3fab45051ed2cd677c0e53c9de0011944c80b8448d216186000000000000000000000000000000000000000000000000000000000000008063617400000000000000000000000000000000000000000000000000000000001ba040faf5f8cff6c1fafa8ec07221a9b3b894889daa3a57e3f56a2f283a2238a283a00c20b9f32246c22c69cde10b9f71f41db04a5c91792971b6e7cba4dea04c6fdc",
      "networkId": 0,
      "chainId": 0
    }
  ]
}