{
  "hash": "0x6c10b801b8c450a46196f8e81d4b9bc2df79063531f477904833e73ad1765126",
  "parentHash": "0x3b5d7d381db89ef22d2699a23d78b02ed26bce19d1ac3c66eb65667a3b49489a",
  "number": 121753,
  "timestamp": 1440181967,
  "nonce": "0xb363c328024ff3e6",
  "difficulty": 4477684392518,
  "gasLimit": {
    "_hex": "0x2fefd8"
  },
  "gasUsed": {
    "_hex": "0x14820"
  },
  "miner": "0xe6A7a1d47ff21B6321162AEA7C6CB457D5476Bca",
  "extraData": "0xd783010002844765746887676f312e342e32856c696e7578",
  "transactions": [
    {
      "hash": "0x7116bf33a2e3dd2d05bbdc4f0e026d8d64032a6db9e275b3003a7641a124ccff",
      "blockHash": "0x6c10b801b8c450a46196f8e81d4b9bc2df79063531f477904833e73ad1765126",
      "blockNumber": 121753,
      "transactionIndex": 0,
      "confirmations": null,
      "from": "0x32Be343B94f860124dC4fEe278FDCBD38C102D88",
      "gasPrice": {
        "_hex": "0xd2fef5c79"
      },
      "gasLimit": {
        "_hex": "0x5208"
      },
      "to": "0xf01e25B76A4274d2e5af5810302E4230c8A515D3",
      "value": {
        "_hex": "0x224a4fb833a276000"
      },
      "nonce": 1570,
      "data": "0x",
      "r": "0x722760b7e41752a8cf2e21002773b20d821ead99c0a52ac42ac2e2bb2796782b",
      "s": "0x432db886624c13e21fc08d043aeea1867c6f3fba3b43c0f69d0bbf672396d917",
      "v": 28,
      "creates": null,
      "raw": "0xf86f820622850d2fef5c7982520894f01e25b76a4274d2e5af5810302e4230c8a515d3890224a4fb833a276000801ca0722760b7e41752a8cf2e21002773b20d821ead99c0a52ac42ac2e2bb2796782ba0432db886624c13e21fc08d043aeea1867c6f3fba3b43c0f69d0bbf672396d917",
      "networkId": 0,
      "chainId": 0
    },
    {
      "hash": "0xa3563c71c6422199180a3b7190b79da749de5b7f86e97cf37a688296cd224eb7",
      "blockHash": "0x6c10b801b8c450a46196f8e81d4b9bc2df79063531f477904833e73ad1765126",
      "blockNumber": 121753,
      "transactionIndex": 1,
      "confirmations": null,
      "from": "0x32Be343B94f860124dC4fEe278FDCBD38C102D88",
      "gasPrice": {
        "_hex": "0xd39ff2227"
      },
      "gasLimit": {
        "_hex": "0x5208"
      },
      "to": "0x14b17b694095306BE800D68e43cAF4EF963FecBb",
      "value": {
        "_hex": "0x56ba3d73af34f0000"
      },
      "nonce": 1571,
      "data": "0x",
      "r": "0x18cd4c351f544000e22410fcf609d423dbfc71ffb056578969ce19ef3729b78c",
      "s": "0x42a83bfea5a5c112ae31a35778342e0947aeb524e1b26102ab4cb7f01a8433da",
      "v": 27,
      "creates": null,
      "raw": "0xf86f820623850d39ff22278252089414b17b694095306be800d68e43caf4ef963fecbb89056ba3d73af34f0000801ba018cd4c351f544000e22410fcf609d423dbfc71ffb056578969ce19ef3729b78ca042a83bfea5a5c112ae31a35778342e0947aeb524e1b26102ab4cb7f01a8433da",
      "networkId": 0,
      "chainId": 0
    },
    {
      "hash": "0xe47ddbbb1ecc097648bd350b7cbde5b85b6bd463823c782335e62e2a18a4037e",
      "blockHash": "0x6c10b801b8c450a46196f8e81d4b9bc2df79063531f477904833e73ad1765126",
      "blockNumber": 121753,
      "transactionIndex": 2,
      "confirmations": null,
      "from": "0x32Be343B94f860124dC4fEe278FDCBD38C102D88",
      "gasPrice": {
        "_hex": "0xdc710c7b9"
      },
      "gasLimit": {
        "_hex": "0x5208"
      },
      "to": "0xd268fB48FA174088a25a120aFF0fd8eb0C2d4c87",
      "value": {
        "_hex": "0xdc3a8351f3d86800000"
      },
      "nonce": 1572,
      "data": "0x",
      "r": "0x55133defe34645da7da550a4e0508a6c310528e44030e54300fc9838922a2472",
      "s": "0x2d386945baa4e4c190f48ffb60e587c1263e324dc32a2df06a3304dcd7e93fc9",
      "v": 27,
      "creates": null,
      "raw": "0xf870820624850dc710c7b982520894d268fb48fa174088a25a120aff0fd8eb0c2d4c878a0dc3a8351f3d86800000801ba055133defe34645da7da550a4e0508a6c310528e44030e54300fc9838922a2472a02d386945baa4e4c190f48ffb60e587c1263e324dc32a2df06a3304dcd7e93fc9",
      "networkId": 0,
      "chainId": 0
    },
    {
      "hash": "0xccf02c3f970e7fbf7e3a703bff1fc57ef802975f5278df3ae97d86823e7f9fae",
      "blockHash": "0x6c10b801b8c450a46196f8e81d4b9bc2df79063531f477904833e73ad1765126",
      "blockNumber": 121753,
      "transactionIndex": 3,
      "confirmations": null,
      "from": "0x32Be343B94f860124dC4fEe278FDCBD38C102D88",
      "gasPrice": {
        "_hex": "0xdc710c7b9"
      },
      "gasLimit": {
        "_hex": "0x5208"
      },
      "to": "0x1A45221Bb8D9c78D59bf1De0B3a361F5da3f965E",
      "value": {
        "_hex": "0x297e9d28866b0000"
      },
      "nonce": 1573,
      "data": "0x",
      "r": "0x8a2d0ad8f23e207b05793d6eb27fa2edfa4b4bbf1f101f101a2517d3b1742e11",
      "s": "0x0d49a41eeba47370bfd5b0280ae77d87cb15c47e1fd55d2e13f4698799a32126",
      "v": 28,
      "creates": null,
      "raw": "0xf86e820625850dc710c7b9825208941a45221bb8d9c78d59bf1de0b3a361f5da3f965e88297e9d28866b0000801ca08a2d0ad8f23e207b05793d6eb27fa2edfa4b4bbf1f101f101a2517d3b1742e11a00d49a41eeba47370bfd5b0280ae77d87cb15c47e1fd55d2e13f4698799a32126",
      "networkId": 0,
      "chainId": 0
    }
  ]
}