{
  "hash": "0x673c5ffe4f82b26fac39d319073a55e48ebd696224102e6251c59bc2b0487f67",
  "parentHash": "0x248606b045d85ab22a75289fc477de73416a7c01ace163082cec530c9dc93f62",
  "number": 68614,
  "timestamp": 1439290765,
  "nonce": "0xd6c9ca5ffd2c2cc2",
  "difficulty": 2024145562887,
  "gasLimit": {
    "_hex": "0x2fefd8"
  },
  "gasUsed": {
    "_hex": "0x6b1cc"
  },
  "miner": "0xB7268c7705A1866b2A78e882fdfDc8E2a4e1428E",
  "extraData": "0x476574682f76312e302e312f77696e646f77732f676f312e342e32",
  "transactions": [
    {
      "hash": "0xc47ce6fd637d27c18c6471d8887fbbe92014441217aacf0b5abf3c23cbcf1b26",
      "blockHash": "0x673c5ffe4f82b26fac39d319073a55e48ebd696224102e6251c59bc2b0487f67",
      "blockNumber": 68614,
      "transactionIndex": 0,
      "confirmations": null,
      "from": "0x8d26F6184815619CEBC9BdED2B18E0948091163A",
      "gasPrice": {
        "_hex": "0xba43b7400"
      },
      "gasLimit": {
        "_hex": "0x15f90"
      },
      "to": "0x793AE8C1b1a160BFc07BFB0d04F85eab1A71F4f2",
      "value": {
        "_hex": "0x0"
      },
      "nonce": 0,
      "data": "0x3ba15036",
      "r": "0x02db7cef568664268fdd449f8136405f46ad02979252cef4f43614db94cb4a01",
      "s": "0x116d4b52327c88ac5403961d698646a2eb575d169d86c3f1adcd9bac10558b74",
      "v": 28,
      "creates": null,
      "raw": "0xf86980850ba43b740083015f9094793ae8c1b1a160bfc07bfb0d04f85eab1a71f4f280843ba150361ca002db7cef568664268fdd449f8136405f46ad02979252cef4f43614db94cb4a01a0116d4b52327c88ac5403961d698646a2eb575d169d86c3f1adcd9bac10558b74",
      "networkId": 0,
      "chainId": 0
    },
    {
      "hash": "0xc68854ef9ed2e5744a0dfdbcb37c31a75d3a3a4e937846369b877fe1fcd469c2",
      "blockHash": "0x673c5ffe4f82b26fac39d319073a55e48ebd696224102e6251c59bc2b0487f67",
      "blockNumber": 68614,
      "transactionIndex": 1,
      "confirmations": null,
      "from": "0xb02138fbC53544795A44Cc80095AeADcdB7c1E66",
      "gasPrice": {
        "_hex": "0xba43b7400"
      },
      "gasLimit": {
        "_hex": "0x15f90"
      },
      "to": "0x793AE8C1b1a160BFc07BFB0d04F85eab1A71F4f2",
      "value": {
        "_hex": "0x0"
      },
      "nonce": 0,
      "data": "0x3ba15036",
      "r": "0xfd49294379139bf220415052f494de91cfbc9974fab1d66229296b03b499940d",
      "s": "0x72a135f96d4760f21bad01590e99581264c7cf268be2ebec9ca4fc5ffb9911b1",
      "v": 27,
      "creates": null,
      "raw": "0xf86980850ba43b740083015f9094793ae8c1b1a160bfc07bfb0d04f85eab1a71f4f280843ba150361ba0fd49294379139bf220415052f494de91cfbc9974fab1d66229296b03b499940da072a135f96d4760f21bad01590e99581264c7cf268be2ebec9ca4fc5ffb9911b1",
      "networkId": 0,
      "chainId": 0
    },
    {
      "hash": "0xe494e2282573fee55aeeb2b46bd060ac89a977a3765bac5c79674aeb228dfe89",
      "blockHash": "0x673c5ffe4f82b26fac39d319073a55e48ebd696224102e6251c59bc2b0487f67",
      "blockNumber": 68614,
      "transactionIndex": 2,
      "confirmations": null,
      "from": "0xcF17222385A67666573dd44c02Af3c34FAA8Ab1D",
      "gasPrice": {
        "_hex": "0xba43b7400"
      },
      "gasLimit": {
        "_hex": "0x15f90"
      },
      "to": "0x793AE8C1b1a160BFc07BFB0d04F85eab1A71F4f2",
      "value": {
        "_hex": "0x0"
      },
      "nonce": 0,
      "data": "0x3ba15036",
      "r": "0x5d1ee63bc7cb31e723c3fa1facc3b88c5ba5034f27754e1a58bc0a6a69c70419",
      "s": "0x0a42901a564fdcc933cedce43f3b4f014525251e1f3a900a94dc0439629143d4",
      "v": 27,
      "creates": null,
      "raw": "0xf86980850ba43b740083015f9094793ae8c1b1a160bfc07bfb0d04f85eab1a71f4f280843ba150361ba05d1ee63bc7cb31e723c3fa1facc3b88c5ba5034f27754e1a58bc0a6a69c70419a00a42901a564fdcc933cedce43f3b4f014525251e1f3a900a94dc0439629143d4",
      "networkId": 0,
      "chainId": 0
    },
    {
      "hash": "0xd846d66ff332509f143e891a55aa5be5cb9ef1d7bfe05d965793dd2049fc3c69",
      "blockHash": "0x673c5ffe4f82b26fac39d319073a55e48ebd696224102e6251c59bc2b0487f67",
      "blockNumber": 68614,
      "transactionIndex": 3,
      "confirmations": null,
      "from": "0x4310c55fc1138430cb61AC5e2A877F2A19d7030A",
      "gasPrice": {
        "_hex": "0xba43b7400"
      },
      "gasLimit": {
        "_hex": "0x15f90"
      },
      "to": "0x793AE8C1b1a160BFc07BFB0d04F85eab1A71F4f2",
      "value": {
        "_hex": "0x0"
      },
      "nonce": 0,
      "data": "0x3ba15036",
      "r": "0x0a4fbb97b57ac1bb29cf25125ae87b23d811ba2fc24465dc6606dc18228677d1",
      "s": "0x1b6b5404c3b574c74aec384e46bc601784a60c254351d7c412f9c4240353508b",
      "v": 27,
      "creates": null,
      "raw": "0xf86980850ba43b740083015f9094793ae8c1b1a160bfc07bfb0d04f85eab1a71f4f280843ba150361ba00a4fbb97b57ac1bb29cf25125ae87b23d811ba2fc24465dc6606dc18228677d1a01b6b5404c3b574c74aec384e46bc601784a60c254351d7c412f9c4240353508b",
      "networkId": 0,
      "chainId": 0
    },
    {
      "hash": "0x491e89e2efd1ea3d0cdb9330217497814bfa41f89b80feb25d0edc6557e143ab",
      "blockHash": "0x673c5ffe4f82b26fac39d319073a55e48ebd696224102e6251c59bc2b0487f67",
      "blockNumber": 68614,
      "transactionIndex": 4,
      "confirmations": null,
      "from": "0x455d1099E130c8bc8a1306010fbB3a7Ff0F279B1",
      "gasPrice": {
        "_hex": "0xba43b7400"
      },
      "gasLimit": {
        "_hex": "0x15f90"
      },
      "to": "0x793AE8C1b1a160BFc07BFB0d04F85eab1A71F4f2",
      "value": {
        "_hex": "0x0"
      },
      "nonce": 0,
      "data": "0x3ba15036",
      "r": "0xa1affafa3c33bdd6dbb86f43a05ff316bf29636cbfa35a5cbf3b4ae71d36a395",
      "s": "0x7b60110c8cf694e2826fabbf3a3945a2193e12735bd4953c6c2b871690b8264d",
      "v": 28,
      "creates": null,
      "raw": "0xf86980850ba43b740083015f9094793ae8c1b1a160bfc07bfb0d04f85eab1a71f4f280843ba150361ca0a1affafa3c33bdd6dbb86f43a05ff316bf29636cbfa35a5cbf3b4ae71d36a395a07b60110c8cf694e2826fabbf3a3945a2193e12735bd4953c6c2b871690b8264d",
      "networkId": 0,
      "chainId": 0
    },
    {
      "hash": "0xc6ce629c03edfc3c486ab9d0b72001bafb3d8601f32e0141d647b86fcb24be38",
      "blockHash": "0x673c5ffe4f82b26fac39d319073a55e48ebd696224102e6251c59bc2b0487f67",
      "blockNumber": 68614,
      "transactionIndex": 5,
      "confirmations": null,
      "from": "0x6e3B9d2E64A89822C8ED91E46146F507ceEEC057",
      "gasPrice": {
        "_hex": "0xba43b7400"
      },
      "gasLimit": {
        "_hex": "0x15f90"
      },
      "to": "0x793AE8C1b1a160BFc07BFB0d04F85eab1A71F4f2",
      "value": {
        "_hex": "0x0"
      },
      "nonce": 0,
      "data": "0x3ba15036",
      "r": "0xc5299689c3c239f5a74d8de58f7de646328cb5e7adc072ee5b8da5e45e93dc35",
      "s": "0x7123810ac365c7725eca05de3d162991d288dad6156dd40b2476a48fb845d166",
      "v": 28,
      "creates": null,
      "raw": "0xf86980850ba43b740083015f9094793ae8c1b1a160bfc07bfb0d04f85eab1a71f4f280843ba150361ca0c5299689c3c239f5a74d8de58f7de646328cb5e7adc072ee5b8da5e45e93dc35a07123810ac365c7725eca05de3d162991d288dad6156dd40b2476a48fb845d166",
      "networkId": 0,
      "chainId": 0
    },
    {
      "hash": "0xd8303b420f44caff5516669691fcf03b1db214103650ba09624a2b59a7eac150",
      "blockHash": "0x673c5ffe4f82b26fac39d319073a55e48ebd696224102e6251c59bc2b0487f67",
      "blockNumber": 68614,
      "transactionIndex": 6,
      "confirmations": null,
      "from": "0xF98d59565E4Ef5D621f2D5C2730da8143242da99",
      "gasPrice": {
        "_hex": "0xba43b7400"
      },
      "gasLimit": {
        "_hex": "0x15f90"
      },
      "to": "0x793AE8C1b1a160BFc07BFB0d04F85eab1A71F4f2",
      "value": {
        "_hex": "0x0"
      },
      "nonce": 0,
      "data": "0x3ba15036",
      "r": "0xb71a503066085182072d50eb6a0c1f6367b5ab91f8958b86fbf1738853f6a843",
      "s": "0x50a4de74e0b78477b6171ca0812301fa656dbb6e9882cda0db7d9f7e8a646367",
      "v": 27,
      "creates": null,
      "raw": "0xf86980850ba43b740083015f9094793ae8c1b1a160bfc07bfb0d04f85eab1a71f4f280843ba150361ba0b71a503066085182072d50eb6a0c1f6367b5ab91f8958b86fbf1738853f6a843a050a4de74e0b78477b6171ca0812301fa656dbb6e9882cda0db7d9f7e8a646367",
      "networkId": 0,
      "chainId": 0
    },
    {
      "hash": "0x25b53d0518d469139c3becb63d26e0291ca35d734f611bfb5ec4cf5dccfd2c5c",
      "blockHash": "0x673c5ffe4f82b26fac39d319073a55e48ebd696224102e6251c59bc2b0487f67",
      "blockNumber": 68614,
      "transactionIndex": 7,
      "confirmations": null,
      "from": "0x2109fE67fE18539Bf9e5e03D08e3b537c7c428a1",
      "gasPrice": {
        "_hex": "0xba43b7400"
      },
      "gasLimit": {
        "_hex": "0x15f90"
      },
      "to": "0x793AE8C1b1a160BFc07BFB0d04F85eab1A71F4f2",
      "value": {
        "_hex": "0x0"
      },
      "nonce": 0,
      "data": "0x3ba15036",
      "r": "0x872e131b4444ab40db10ff7738d084971660fad66e7106e6684711fc95063a08",
      "s": "0x3fff25e6d1b4889dd7102867b4ed5fffe21298225ec51dd81d9faf0077f4fb61",
      "v": 27,
      "creates": null,
      "raw": "0xf86980850ba43b740083015f9094793ae8c1b1a160bfc07bfb0d04f85eab1a71f4f280843ba150361ba0872e131b4444ab40db10ff7738d084971660fad66e7106e6684711fc95063a08a03fff25e6d1b4889dd7102867b4ed5fffe21298225ec51dd81d9faf0077f4fb61",
      "networkId": 0,
      "chainId": 0
    },
    {
      "hash": "0xff0c6c5a93ebf27c3aafbc4b17c783e6d687cc3b28e959d3b8f1928cc8c6733f",
      "blockHash": "0x673c5ffe4f82b26fac39d319073a55e48ebd696224102e6251c59bc2b0487f67",
      "blockNumber": 68614,
      "transactionIndex": 8,
      "confirmations": null,
      "from": "0x01BffB0ab3786F6dCED5af1AF081fd538f148441",
      "gasPrice": {
        "_hex": "0xba43b7400"
      },
      "gasLimit": {
        "_hex": "0x15f90"
      },
      "to": "0x793AE8C1b1a160BFc07BFB0d04F85eab1A71F4f2",
      "value": {
        "_hex": "0x0"
      },
      "nonce": 0,
      "data": "0x3ba15036",
      "r": "0xebeac12b0dd9af34216c3a737ffa17529593bb6be7d700091180bf349577b597",
      "s": "0x2d0b62193089589ad7fc9bfe7313dd2c5031593e68afc5d88bf7678bf2ebe2fa",
      "v": 28,
      "creates": null,
      "raw": "0xf86980850ba43b740083015f9094793ae8c1b1a160bfc07bfb0d04f85eab1a71f4f280843ba150361ca0ebeac12b0dd9af34216c3a737ffa17529593bb6be7d700091180bf349577b597a02d0b62193089589ad7fc9bfe7313dd2c5031593e68afc5d88bf7678bf2ebe2fa",
      "networkId": 0,
      "chainId": 0
    }
  ]
}