{
  "hash": "0xdf9d0aa9dd82f402e1425535e5ea7ba63f257a07880d645f01d98b70ed0a41ba",
  "parentHash": "0xae04dd80cfe6af42d69b8873a8c77988a751c4905a3970c7afe4bb9f00dc46af",
  "number": 54110,
  "timestamp": 1439048921,
  "nonce": "0x348b0f6a6112d214",
  "difficulty": 1597748435212,
  "gasLimit": {
    "_hex": "0x2fefd8"
  },
  "gasUsed": {
    "_hex": "0x5208"
  },
  "miner": "0xf927a40C8B7F6E07c5af7FA2155B4864a4112B13",
  "extraData": "0x476574682f76312e302e312f6c696e75782f676f312e342e32",
  "transactions": [
    {
      "hash": "0xe302f53a56d0bf728e95f593547ddbbe1b792008460edae493d2bcab079fc160",
      "blockHash": "0xdf9d0aa9dd82f402e1425535e5ea7ba63f257a07880d645f01d98b70ed0a41ba",
      "blockNumber": 54110,
      "transactionIndex": 0,
      "confirmations": null,
      "from": "0x2a9C57Fe7B6B138A920D676F3c76b6C2A0EEf699",
      "gasPrice": {
        "_hex": "0x107cab509ac"
      },
      "gasLimit": {
        "_hex": "0x7a120"
      },
      "to": "0x811ef7e711aaa8957Fb864d9211F9F826c927BB2",
      "value": {
        "_hex": "0x8ac7230489e80000"
      },
      "nonce": 2,
      "data": "0x",
      "r": "0x51e485612e3f2c8871512d20a9952323ac26740756e0a108c6fc3f206a425b20",
      "s": "0x5554b3a9eed2da645db385bce417b97cec9e21771e878945bad7487e61401db9",
      "v": 28,
      "creates": null,
      "raw": "0xf86e02860107cab509ac8307a12094811ef7e711aaa8957fb864d9211f9f826c927bb2888ac7230489e80000801ca051e485612e3f2c8871512d20a9952323ac26740756e0a108c6fc3f206a425b20a05554b3a9eed2da645db385bce417b97cec9e21771e878945bad7487e61401db9",
      "networkId": 0,
      "chainId": 0
    }
  ]
}