{
  "hash": "0xa0d1e894112cac2ba7a9fd46785a05b136e5ff2c4e1c96a5475eea3750fa7b58",
  "parentHash": "0xa2387d1b5a83313823621fc92d20699637d0ec53413a6fb5f46bbd8f3e90b091",
  "number": 52610,
  "timestamp": 1439024320,
  "nonce": "0xa226ee3c75335460",
  "difficulty": 1570189162458,
  "gasLimit": {
    "_hex": "0x16400b"
  },
  "gasUsed": {
    "_hex": "0x11359c"
  },
  "miner": "0x72e3Ea8234b449531A581F05f1c1E07cceb559d2",
  "extraData": "0x476574682f76312e302e312f6c696e75782f676f312e342e32",
  "transactions": [
    {
      "hash": "0x0484dc5e794eef058d2400d7b00497f626284a038a05d406dd8a48ec97e6e219",
      "blockHash": "0xa0d1e894112cac2ba7a9fd46785a05b136e5ff2c4e1c96a5475eea3750fa7b58",
      "blockNumber": 52610,
      "transactionIndex": 0,
      "confirmations": null,
      "from": "0x54dAeb3E8a6BBC797E4aD2b0339f134b186e4637",
      "gasPrice": {
        "_hex": "0xdada9c769"
      },
      "gasLimit": {
        "_hex": "0x7a120"
      },
      "to": "0xBAA54d6E90c3F4d7Ebec11bD180134C7eD8eBb52",
      "value": {
        "_hex": "0x16345785d8a0000"
      },
      "nonce": 795,
      "data": "0x",
      "r": "0xdf1bd06c247790f4968f77e7471d4580693bbcc2f883d04037b5bee0c7d52e56",
      "s": "0x45088913d3a79e7594a71fe05ce612905e4c09c19dae19d5fcf82f03c0a8d875",
      "v": 27,
      "creates": null,
      "raw": "0xf86f82031b850dada9c7698307a12094baa54d6e90c3f4d7ebec11bd180134c7ed8ebb5288016345785d8a0000801ba0df1bd06c247790f4968f77e7471d4580693bbcc2f883d04037b5bee0c7d52e56a045088913d3a79e7594a71fe05ce612905e4c09c19dae19d5fcf82f03c0a8d875",
      "networkId": 0,
      "chainId": 0
    },
    {
      "hash": "0x0e6f23a769290ec1b1724ac982a0458271fd36008627516dd6ed2a8b41244fee",
      "blockHash": "0xa0d1e894112cac2ba7a9fd46785a05b136e5ff2c4e1c96a5475eea3750fa7b58",
      "blockNumber": 52610,
      "transactionIndex": 1,
      "confirmations": null,
      "from": "0x54dAeb3E8a6BBC797E4aD2b0339f134b186e4637",
      "gasPrice": {
        "_hex": "0xdada9c769"
      },
      "gasLimit": {
        "_hex": "0x7a120"
      },
      "to": "0xBAA54d6E90c3F4d7Ebec11bD180134C7eD8eBb52",
      "value": {
        "_hex": "0x16345785d8a0000"
      },
      "nonce": 796,
      "data": "0x",
      "r": "0x23845086b7d9ccd832a57b7921e7c9b69aa4205c736155978a94960dace2602f",
      "s": "0x0914cd6a54f7856c1bd23ecba1812a77605260ac93e765a1b5836221614e4198",
      "v": 28,
      "creates": null,
      "raw": "0xf86f82031c850dada9c7698307a12094baa54d6e90c3f4d7ebec11bd180134c7ed8ebb5288016345785d8a0000801ca023845086b7d9ccd832a57b7921e7c9b69aa4205c736155978a94960dace2602fa00914cd6a54f7856c1bd23ecba1812a77605260ac93e765a1b5836221614e4198",
      "networkId": 0,
      "chainId": 0
    },
    {
      "hash": "0x3474af5adacb2c9d28106549c8794134d3092ed65b19785781e51235f47e072f",
      "blockHash": "0xa0d1e894112cac2ba7a9fd46785a05b136e5ff2c4e1c96a5475eea3750fa7b58",
      "blockNumber": 52610,
      "transactionIndex": 2,
      "confirmations": null,
      "from": "0x32Be343B94f860124dC4fEe278FDCBD38C102D88",
      "gasPrice": {
        "_hex": "0xdb6f50ac3"
      },
      "gasLimit": {
        "_hex": "0x5208"
      },
      "to": "0x0000000000000000000000000000000000000000",
      "value": {
        "_hex": "0xdb614c3ee160000"
      },
      "nonce": 15,
      "data": "0x",
      "r": "0x45c7a37ac874065fa5657cb744e5f669fce9f1c248866440a11729d3c0d6b858",
      "s": "0x319dcfe046bc95f4b110ecf0e8d466243a5b499a602dea0711e8b98e9c44cb59",
      "v": 28,
      "creates": null,
      "raw": "0xf86c0f850db6f50ac3825208940000000000000000000000000000000000000000880db614c3ee160000801ca045c7a37ac874065fa5657cb744e5f669fce9f1c248866440a11729d3c0d6b858a0319dcfe046bc95f4b110ecf0e8d466243a5b499a602dea0711e8b98e9c44cb59",
      "networkId": 0,
      "chainId": 0
    },
    {
      "hash": "0xdd1d031228864ab87cc58de36a11ae6b36fb8c2cdfb1911612582f688c11d1a9",
      "blockHash": "0xa0d1e894112cac2ba7a9fd46785a05b136e5ff2c4e1c96a5475eea3750fa7b58",
      "blockNumber": 52610,
      "transactionIndex": 3,
      "confirmations": null,
      "from": "0x32Be343B94f860124dC4fEe278FDCBD38C102D88",
      "gasPrice": {
        "_hex": "0xdb6f50ac3"
      },
      "gasLimit": {
        "_hex": "0x5208"
      },
      "to": "0x2910543Af39abA0Cd09dBb2D50200b3E800A63D2",
      "value": {
        "_hex": "0x25ee56c7cd1a400"
      },
      "nonce": 16,
      "data": "0x",
      "r": "0xbbf99e2b7060594110d3af09dfcca799397473dad1b1a2abf222b261e0168f0b",
      "s": "0x19bcd22a4d7d5c5ab59a6f66b682a55088a4d779a206f1b5beca371ff2f01379",
      "v": 28,
      "creates": null,
      "raw": "0xf86c10850db6f50ac3825208942910543af39aba0cd09dbb2d50200b3e800a63d288025ee56c7cd1a400801ca0bbf99e2b7060594110d3af09dfcca799397473dad1b1a2abf222b261e0168f0ba019bcd22a4d7d5c5ab59a6f66b682a55088a4d779a206f1b5beca371ff2f01379",
      "networkId": 0,
      "chainId": 0
    },
    {
      "hash": "0x75ddd87d05dd6c9db55bd1185380938cf84472a575809534af0790053c3faf5b",
      "blockHash": "0xa0d1e894112cac2ba7a9fd46785a05b136e5ff2c4e1c96a5475eea3750fa7b58",
      "blockNumber": 52610,
      "transactionIndex": 4,
      "confirmations": null,
      "from": "0x46Aa501870677e7f0A504876b4E8801A0ad01C46",
      "gasPrice": {
        "_hex": "0xd92b9a77b"
      },
      "gasLimit": {
        "_hex": "0x15f90"
      },
      "to": "0x8c62BeD016C5a2F6954504Dbc4640ded5FB14eE3",
      "value": {
        "_hex": "0xde0b6b3a7640000"
      },
      "nonce": 0,
      "data": "0x",
      "r": "0xfd33f4edddbfbe68d8595e5d6ea40c46726dc3f9398e1d074ae35ee9a71df91e",
      "s": "0x04211a17eea9e0d9f82d3773bb5c903db91750ee01bf31939314098b23f59c84",
      "v": 27,
      "creates": null,
      "raw": "0xf86d80850d92b9a77b83015f90948c62bed016c5a2f6954504dbc4640ded5fb14ee3880de0b6b3a7640000801ba0fd33f4edddbfbe68d8595e5d6ea40c46726dc3f9398e1d074ae35ee9a71df91ea004211a17eea9e0d9f82d3773bb5c903db91750ee01bf31939314098b23f59c84",
      "networkId": 0,
      "chainId": 0
    },
    {
      "hash": "0x47627ddf3a9034c4053b7bcfa759277a2bfcab260ce909c18bceb42fe6088db8",
      "blockHash": "0xa0d1e894112cac2ba7a9fd46785a05b136e5ff2c4e1c96a5475eea3750fa7b58",
      "blockNumber": 52610,
      "transactionIndex": 5,
      "confirmations": null,
      "from": "0x594A76F06935388dDE5e234696a0668bC20d2ddC",
      "gasPrice": {
        "_hex": "0xccaa61f42"
      },
      "gasLimit": {
        "_hex": "0x15f90"
      },
      "to": "0x2910543Af39abA0Cd09dBb2D50200b3E800A63D2",
      "value": {
        "_hex": "0x11c37937e08000"
      },
      "nonce": 0,
      "data": "0x454e39504530485638",
      "r": "0x4732a8ced1319c3470aaf59b7c8e58f4a061fd11625a0d345c0947c2e1bad7f1",
      "s": "0x1ae65d993f1b6b82681ffc8c13b1b6b50cff978e03324114fb8fe5572aeb517b",
      "v": 27,
      "creates": null,
      "raw": "0xf87580850ccaa61f4283015f90942910543af39aba0cd09dbb2d50200b3e800a63d28711c37937e0800089454e395045304856381ba04732a8ced1319c3470aaf59b7c8e58f4a061fd11625a0d345c0947c2e1bad7f1a01ae65d993f1b6b82681ffc8c13b1b6b50cff978e03324114fb8fe5572aeb517b",
      "networkId": 0,
      "chainId": 0
    },
    {
      "hash": "0xac42d1a3c508332bfccfc8545c92ecec72a987ff391679272ee2aa80cb527f4a",
      "blockHash": "0xa0d1e894112cac2ba7a9fd46785a05b136e5ff2c4e1c96a5475eea3750fa7b58",
      "blockNumber": 52610,
      "transactionIndex": 6,
      "confirmations": null,
      "from": "0x2C964849b1F69CC7CeA4442538ED87Fdf16cFc8f",
      "gasPrice": {
        "_hex": "0xcc5263074"
      },
      "gasLimit": {
        "_hex": "0x15f90"
      },
      "to": "0x2910543Af39abA0Cd09dBb2D50200b3E800A63D2",
      "value": {
        "_hex": "0xc7d713b49da0000"
      },
      "nonce": 2,
      "data": "0x454e56573656563752",
      "r": "0x5cf96eefedc7c08d949b6e3521ef590a1dd29bc82116706f50739d485cc00104",
      "s": "0x02a357baaa85f9d2e287b2b365a2d82145e52e9a47dd4637261509eb6518773e",
      "v": 27,
      "creates": null,
      "raw": "0xf87602850cc526307483015f90942910543af39aba0cd09dbb2d50200b3e800a63d2880c7d713b49da000089454e565736565637521ba05cf96eefedc7c08d949b6e3521ef590a1dd29bc82116706f50739d485cc00104a002a357baaa85f9d2e287b2b365a2d82145e52e9a47dd4637261509eb6518773e",
      "networkId": 0,
      "chainId": 0
    },
    {
      "hash": "0x284de46ab1db79c21f0e8935003a3567847131818827bd5fccd2131cebb92766",
      "blockHash": "0xa0d1e894112cac2ba7a9fd46785a05b136e5ff2c4e1c96a5475eea3750fa7b58",
      "blockNumber": 52610,
      "transactionIndex": 7,
      "confirmations": null,
      "from": "0x20b2a17fFa355d7Bcb269812A39e8F57D750A5b3",
      "gasPrice": {
        "_hex": "0xa7a358200"
      },
      "gasLimit": {
        "_hex": "0x55f0"
      },
      "to": "0x2910543Af39abA0Cd09dBb2D50200b3E800A63D2",
      "value": {
        "_hex": "0x102794ad20da680000"
      },
      "nonce": 2,
      "data": "0x454e56554d55584738",
      "r": "0xcfe3a0504d380b6db1f32d9e4d91a755c9a01021b5739268d8d03163854510b9",
      "s": "0x39aa1330e541b7b30b9a65b4d8fc4f047dae7ac132f7168aaddf2c957c89eaf6",
      "v": 27,
      "creates": null,
      "raw": "0xf87602850a7a3582008255f0942910543af39aba0cd09dbb2d50200b3e800a63d289102794ad20da68000089454e56554d555847381ba0cfe3a0504d380b6db1f32d9e4d91a755c9a01021b5739268d8d03163854510b9a039aa1330e541b7b30b9a65b4d8fc4f047dae7ac132f7168aaddf2c957c89eaf6",
      "networkId": 0,
      "chainId": 0
    }
  ]
}