{
  "hash": "0x9d951c8ddb0da72131909e4c89896542d336b89019e3f89c3fb5201b581557b0",
  "parentHash": "0x39ff4012f729f696addee1f6c0ba7597113804a8c16b1742d38a8f62658d07c8",
  "number": 55695,
  "timestamp": 1439075244,
  "nonce": "0x0e283d10190c4efe",
  "difficulty": 1609189575116,
  "gasLimit": {
    "_hex": "0x2fefd8"
  },
  "gasUsed": {
    "_hex": "0x663d"
  },
  "miner": "0xf927a40C8B7F6E07c5af7FA2155B4864a4112B13",
  "extraData": "0x476574682f76312e302e312f6c696e75782f676f312e342e32",
  "transactions": [
    {
      "hash": "0xb4842405aefeeeb9e10299b58f6664ca8d7e5d210d374c3a28d79ae55f9f37b5",
      "blockHash": "0x9d951c8ddb0da72131909e4c89896542d336b89019e3f89c3fb5201b581557b0",
      "blockNumber": 55695,
      "transactionIndex": 0,
      "confirmations": null,
      "from": "0xc70bA22fe446A85A247bf85BaD1AdDf3ddaF62E9",
      "gasPrice": {
        "_hex": "0xcb03072ef"
      },
      "gasLimit": {
        "_hex": "0x15f90"
      },
      "to": "0xb87824547dB80F1fb37D0225B99F1A602f8642AD",
      "value": {
        "_hex": "0x190"
      },
      "nonce": 14,
      "data": "0x",
      "r": "0xdc73ff73285a1dace3777e489a68c03978afd147881732a73fe0aa8df570553c",
      "s": "0x135c081cf463a32e87d60c4c75a6d917d622d5fc2cf65652dcbaaff619d57912",
      "v": 27,
      "creates": null,
      "raw": "0xf8670e850cb03072ef83015f9094b87824547db80f1fb37d0225b99f1a602f8642ad820190801ba0dc73ff73285a1dace3777e489a68c03978afd147881732a73fe0aa8df570553ca0135c081cf463a32e87d60c4c75a6d917d622d5fc2cf65652dcbaaff619d57912",
      "networkId": 0,
      "chainId": 0
    }
  ]
}