{
  "hash": "0x98ac695d7147fa2774fe35aae0ca6530d1cfa4e070d4b9601974ec405b1c3212",
  "parentHash": "0x1a5927e88a1b41c9d234107d62e22e34535eb9b73d453e492bcc1c9d5c10dd06",
  "number": 95116,
  "timestamp": 1439719249,
  "nonce": "0x9902b0155be6533c",
  "difficulty": 3503443137178,
  "gasLimit": {
    "_hex": "0x2fefd8"
  },
  "gasUsed": {
    "_hex": "0x5208"
  },
  "miner": "0xe6A7a1d47ff21B6321162AEA7C6CB457D5476Bca",
  "extraData": "0x476574682f76312e302e312d38326566323666362f6c696e75782f676f312e34",
  "transactions": [
    {
      "hash": "0xe189c974d9cc6d154a938aa2281ab84dfb18b2c65b32240f3ab5b6e719757663",
      "blockHash": "0x98ac695d7147fa2774fe35aae0ca6530d1cfa4e070d4b9601974ec405b1c3212",
      "blockNumber": 95116,
      "transactionIndex": 0,
      "confirmations": null,
      "from": "0x2910543Af39abA0Cd09dBb2D50200b3E800A63D2",
      "gasPrice": {
        "_hex": "0xccc99feff"
      },
      "gasLimit": {
        "_hex": "0x5208"
      },
      "to": "0x17E4a0e52BAc3eE44eFe0954e753d4b85D644E05",
      "value": {
        "_hex": "0x3ba17f487a09cf8000"
      },
      "nonce": 890,
      "data": "0x",
      "r": "0x7b8ab64ab05bbf9093ac3fb528c0d3ff8d529368d451bf45e9f64ba84a6446a4",
      "s": "0x0d31cc2c91d83764c2dc190980397cba94cee5193c3bb27eaa06b559d991a986",
      "v": 28,
      "creates": null,
      "raw": "0xf86f82037a850ccc99feff8252089417e4a0e52bac3ee44efe0954e753d4b85d644e05893ba17f487a09cf8000801ca07b8ab64ab05bbf9093ac3fb528c0d3ff8d529368d451bf45e9f64ba84a6446a4a00d31cc2c91d83764c2dc190980397cba94cee5193c3bb27eaa06b559d991a986",
      "networkId": 0,
      "chainId": 0
    }
  ]
}