{
  "hash": "0x5d67dd698541ce49cd7645f0055edc9b75de435bf82017e8d75c7bed04bcc3e0",
  "parentHash": "0xb43f1070c69a33c6b476dfcbb089d1012d4dbe493c02bbad8915a25a719a5aa1",
  "number": 72965,
  "timestamp": 1439361040,
  "nonce": "0x65a1694c4f3d5d0a",
  "difficulty": 2207876818728,
  "gasLimit": {
    "_hex": "0x2fefd8"
  },
  "gasUsed": {
    "_hex": "0x5208"
  },
  "miner": "0x7E6930B63D03e88F5928C5cd6ee3FCee4D714F7F",
  "extraData": "0x",
  "transactions": [
    {
      "hash": "0xe0124ae45316a18443e9ee58a2dd5a3dfe2c8d8c0fec1a102180236a47f28287",
      "blockHash": "0x5d67dd698541ce49cd7645f0055edc9b75de435bf82017e8d75c7bed04bcc3e0",
      "blockNumber": 72965,
      "transactionIndex": 0,
      "confirmations": null,
      "from": "0x63BBedc46A1113Ba7938CF7C18CCb5Aed20eC733",
      "gasPrice": {
        "_hex": "0xd7a7abea2"
      },
      "gasLimit": {
        "_hex": "0x15f90"
      },
      "to": "0x0A319A7e0C887F104359e1eEe6717BD8f232d3Da",
      "value": {
        "_hex": "0x22b1c8c1227a00000"
      },
      "nonce": 4,
      "data": "0x",
      "r": "0x91e542a685e3bdb474229a1c5b5181c396db65625967562dbd96464e8353c124",
      "s": "0x65a38d3bf159b3515432171bdc688968fe05ba2ae0b70fda9a09232b0e799ff5",
      "v": 28,
      "creates": null,
      "raw": "0xf86e04850d7a7abea283015f90940a319a7e0c887f104359e1eee6717bd8f232d3da89022b1c8c1227a00000801ca091e542a685e3bdb474229a1c5b5181c396db65625967562dbd96464e8353c124a065a38d3bf159b3515432171bdc688968fe05ba2ae0b70fda9a09232b0e799ff5",
      "networkId": 0,
      "chainId": 0
    }
  ]
}