{
  "hash": "0x342ecfc53b671272ba3a930f2de820d08ff8bfeebd38b2aa356173cad7f0b780",
  "parentHash": "0xd0032e872eae968ea2bdc1268284b18a206103e27c83fffd3e70cf6acd8b43ac",
  "number": 103028,
  "timestamp": 1439846627,
  "nonce": "0x735078bb4e67bc48",
  "difficulty": 4156519510744,
  "gasLimit": {
    "_hex": "0x2fefd8"
  },
  "gasUsed": {
    "_hex": "0x5208"
  },
  "miner": "0x458F183347F45a4001807728A89F31E9Da9D4A58",
  "extraData": "0x476574682f76312e302e312d38326566323666362f6c696e75782f676f312e34",
  "transactions": [
    {
      "hash": "0x31388e20005f0b5fd59e3216414fb35fe21996266b60ff5727a32523673bd3bb",
      "blockHash": "0x342ecfc53b671272ba3a930f2de820d08ff8bfeebd38b2aa356173cad7f0b780",
      "blockNumber": 103028,
      "transactionIndex": 0,
      "confirmations": null,
      "from": "0x7aAaa306d4a7Fd1696A82A66cc538D29f5af4e39",
      "gasPrice": {
        "_hex": "0xcd4b413c6"
      },
      "gasLimit": {
        "_hex": "0x15f90"
      },
      "to": "0x50EEfd3CA3DdB144266bfAB2194Ba9CcE30cC8F0",
      "value": {
        "_hex": "0xf2ee40c1293680000"
      },
      "nonce": 1,
      "data": "0x",
      "r": "0x444e5b74e0a53610db7b378e936e810a2f8494e945f3e778b6c1b81ab932c778",
      "s": "0x0f5db55446cca714bf5218db00a8b38661b39426b3785cb6b3ad528cb851a09a",
      "v": 27,
      "creates": null,
      "raw": "0xf86e01850cd4b413c683015f909450eefd3ca3ddb144266bfab2194ba9cce30cc8f0890f2ee40c1293680000801ba0444e5b74e0a53610db7b378e936e810a2f8494e945f3e778b6c1b81ab932c778a00f5db55446cca714bf5218db00a8b38661b39426b3785cb6b3ad528cb851a09a",
      "networkId": 0,
      "chainId": 0
    }
  ]
}