{
  "hash": "0x5c8c8cb220e1028c3e2859cfd76b44f7538d29a963b7badaafdb897d78e93226",
  "parentHash": "0xa60a40fa56085caec06d83383cd33133baf30081115178621ba7d935939efccd",
  "number": 78952,
  "timestamp": 1439462185,
  "nonce": "0xbf7071c48f884c8c",
  "difficulty": 2290832506232,
  "gasLimit": {
    "_hex": "0x2fefd8"
  },
  "gasUsed": {
    "_hex": "0x5208"
  },
  "miner": "0xbb7B8287f3F0a933474a79eAe42CBCa977791171",
  "extraData": "0x476574682f4c5649562f76312e302e312f6c696e75782f676f312e342e32",
  "transactions": [
    {
      "hash": "0x4b8e543534e08a0c176702435d27f84420f48874d8f0b7044101155a19fef662",
      "blockHash": "0x5c8c8cb220e1028c3e2859cfd76b44f7538d29a963b7badaafdb897d78e93226",
      "blockNumber": 78952,
      "transactionIndex": 0,
      "confirmations": null,
      "from": "0x7CdE613438e85F25D299265Ab4bB2b4015fe2BD1",
      "gasPrice": {
        "_hex": "0x746a528800"
      },
      "gasLimit": {
        "_hex": "0x5213"
      },
      "to": "0x0966686ed6164a792d67B3C62b43F46959073A58",
      "value": {
        "_hex": "0x1d7d843dc3b480000"
      },
      "nonce": 0,
      "data": "0x",
      "r": "0x79645025ad3cfaf69fd7478ee58b6660375b40832b549b6a378b74af55eb5340",
      "s": "0x64b0d2ca8ee6da6d57cbecf1ad6ca10590bc102afd599f4f1aa5ea460167b920",
      "v": 27,
      "creates": null,
      "raw": "0xf86d8085746a528800825213940966686ed6164a792d67b3c62b43f46959073a588901d7d843dc3b480000801ba079645025ad3cfaf69fd7478ee58b6660375b40832b549b6a378b74af55eb5340a064b0d2ca8ee6da6d57cbecf1ad6ca10590bc102afd599f4f1aa5ea460167b920",
      "networkId": 0,
      "chainId": 0
    }
  ]
}