{
  "hash": "0xa3a355b490ec23375ce47422c63eb5980ca9639b650c9550b9ea8a1edd94fa26",
  "parentHash": "0xf9a9607516a97555ac14f2a1e7a46431f11817fbe72215edf1e37ab21713cb1f",
  "number": 97931,
  "timestamp": 1439764253,
  "nonce": "0xa230b75226472e90",
  "difficulty": 3848367194165,
  "gasLimit": {
    "_hex": "0x2fefd8"
  },
  "gasUsed": {
    "_hex": "0xa410"
  },
  "miner": "0x35e8e5dC5FBd97c5b421A80B596C030a2Be2A04D",
  "extraData": "0x476574682f76312e302e312f6c696e75782f676f312e342e32",
  "transactions": [
    {
      "hash": "0xa9643af072a5957ce22eac5a14b66517fc0eb823d63aced0a5daaef2a368d054",
      "blockHash": "0xa3a355b490ec23375ce47422c63eb5980ca9639b650c9550b9ea8a1edd94fa26",
      "blockNumber": 97931,
      "transactionIndex": 0,
      "confirmations": null,
      "from": "0xB8796061FcCcC0c40BD2060d95d6cff928bD1C1B",
      "gasPrice": {
        "_hex": "0xdd30762a4"
      },
      "gasLimit": {
        "_hex": "0x5208"
      },
      "to": "0x32Be343B94f860124dC4fEe278FDCBD38C102D88",
      "value": {
        "_hex": "0x2258b12ba4ff6a000"
      },
      "nonce": 4,
      "data": "0x",
      "r": "0x76f18b73e85e28b1f4962eb2ba30c73405a4f1d2323864c95b9831b47ef269ce",
      "s": "0x26301ca427080cdb619730208eef5e362c7b145d6994e6a66a8456bbde768acd",
      "v": 28,
      "creates": null,
      "raw": "0xf86d04850dd30762a48252089432be343b94f860124dc4fee278fdcbd38c102d888902258b12ba4ff6a000801ca076f18b73e85e28b1f4962eb2ba30c73405a4f1d2323864c95b9831b47ef269cea026301ca427080cdb619730208eef5e362c7b145d6994e6a66a8456bbde768acd",
      "networkId": 0,
      "chainId": 0
    },
    {
      "hash": "0x0444b85f424b02e652d68362eb53a5f16dc7aeefeeb1a152b67dbf555feed92a",
      "blockHash": "0xa3a355b490ec23375ce47422c63eb5980ca9639b650c9550b9ea8a1edd94fa26",
      "blockNumber": 97931,
      "transactionIndex": 1,
      "confirmations": null,
      "from": "0x84a2dcC780Ba2Bfdc390077007DE77714793887f",
      "gasPrice": {
        "_hex": "0xd681c5382"
      },
      "gasLimit": {
        "_hex": "0x15f90"
      },
      "to": "0x07fa0859A7282d3c93c1A1168421077878E5c54b",
      "value": {
        "_hex": "0x16345785d8a0000"
      },
      "nonce": 0,
      "data": "0x",
      "r": "0x7d48a82d2c585122a92199fb747a0ec4034bed6c48aa4269e29e99f5d63fd548",
      "s": "0x5cce9598536a90b1f85207758a75c08852da7943dbaba0f13395e47e8702d864",
      "v": 27,
      "creates": null,
      "raw": "0xf86d80850d681c538283015f909407fa0859a7282d3c93c1a1168421077878e5c54b88016345785d8a0000801ba07d48a82d2c585122a92199fb747a0ec4034bed6c48aa4269e29e99f5d63fd548a05cce9598536a90b1f85207758a75c08852da7943dbaba0f13395e47e8702d864",
      "networkId": 0,
      "chainId": 0
    }
  ]
}