{
  "hash": "0x1d08f1b99388480c6981cd2e84a19035ba7321418068179a4bb6f928be817ca4",
  "parentHash": "0x258395d7af1d36f1fc32107ef2aad8ae92178806ad02db23e6e8b328f7f148bd",
  "number": 102624,
  "timestamp": 1439840745,
  "nonce": "0x960df83dd0f3d382",
  "difficulty": 4013123941407,
  "gasLimit": {
    "_hex": "0x2fefd8"
  },
  "gasUsed": {
    "_hex": "0xa410"
  },
  "miner": "0xC603Ab5ef41fC61AA8b76bEddb09e3Cfcbb174BD",
  "extraData": "0x476574682f76312e302e312f77696e646f77732f676f312e342e32",
  "transactions": [
    {
      "hash": "0xbb565ebf362e5cd7113ee40d4099416c2738023582b20b01dfdb6d447065026f",
      "blockHash": "0x1d08f1b99388480c6981cd2e84a19035ba7321418068179a4bb6f928be817ca4",
      "blockNumber": 102624,
      "transactionIndex": 0,
      "confirmations": null,
      "from": "0x2629E4624822667AB36BE14544200cc00779247B",
      "gasPrice": {
        "_hex": "0x11256b04705"
      },
      "gasLimit": {
        "_hex": "0x15f90"
      },
      "to": "0x937457d08DC5675DF46691F70098e4186f335548",
      "value": {
        "_hex": "0x4e1003b28d9280000"
      },
      "nonce": 2,
      "data": "0x",
      "r": "0x10e29cac635b60ff07c56d6f7d9602156f35aea1226c50cfcda614ed93a2d442",
      "s": "0x700921e07b9317a00ea31def21eb51ff22e593be9f0e97554012c1e440d0a827",
      "v": 28,
      "creates": null,
      "raw": "0xf86f0286011256b0470583015f9094937457d08dc5675df46691f70098e4186f3355488904e1003b28d9280000801ca010e29cac635b60ff07c56d6f7d9602156f35aea1226c50cfcda614ed93a2d442a0700921e07b9317a00ea31def21eb51ff22e593be9f0e97554012c1e440d0a827",
      "networkId": 0,
      "chainId": 0
    },
    {
      "hash": "0x83d9a2fe1290de481123be71e80422e285cdc3771b303c4c1cfc0a1dc91eddf0",
      "blockHash": "0x1d08f1b99388480c6981cd2e84a19035ba7321418068179a4bb6f928be817ca4",
      "blockNumber": 102624,
      "transactionIndex": 1,
      "confirmations": null,
      "from": "0x1a8E703197aCd1C0d3aB7ecD62dC01389F076E4b",
      "gasPrice": {
        "_hex": "0xd92c2ab59"
      },
      "gasLimit": {
        "_hex": "0x7a120"
      },
      "to": "0xBBDa93a81B882774e1c9b5e3F933Fa35DaC8bc88",
      "value": {
        "_hex": "0xcf7911caa0170000"
      },
      "nonce": 0,
      "data": "0x",
      "r": "0xaea58faa389f5af5101d4a6901f540a3e3ac81dc40c13557549ee682db666f16",
      "s": "0x4a2c0cbe9d2e77eef9dc91084322e5ccc2d028c6b6e01adcf7f24b63dd53fb7e",
      "v": 28,
      "creates": null,
      "raw": "0xf86d80850d92c2ab598307a12094bbda93a81b882774e1c9b5e3f933fa35dac8bc8888cf7911caa0170000801ca0aea58faa389f5af5101d4a6901f540a3e3ac81dc40c13557549ee682db666f16a04a2c0cbe9d2e77eef9dc91084322e5ccc2d028c6b6e01adcf7f24b63dd53fb7e",
      "networkId": 0,
      "chainId": 0
    }
  ]
}