{
  "hash": "0x9b94af74795ba3ba841d806ba7a30bb4d59e1814a4b65f7a035a2bbd668d45a5",
  "parentHash": "0x44f83d233c646e3fb21b2ec82506cd1f8b14d4da57abd6679bbe1ca40252d3c2",
  "number": 51018,
  "timestamp": 1438998143,
  "nonce": "0xdad572e96de57bdd",
  "difficulty": 1550675380609,
  "gasLimit": {
    "_hex": "0x8b17b"
  },
  "gasUsed": {
    "_hex": "0x5208"
  },
  "miner": "0xf927a40C8B7F6E07c5af7FA2155B4864a4112B13",
  "extraData": "0x476574682f76312e302e312f6c696e75782f676f312e342e32",
  "transactions": [
    {
      "hash": "0x5bb351f43428b75263f416714bd5035f292d4e47ef3c80591975d56adc518179",
      "blockHash": "0x9b94af74795ba3ba841d806ba7a30bb4d59e1814a4b65f7a035a2bbd668d45a5",
      "blockNumber": 51018,
      "transactionIndex": 0,
      "confirmations": null,
      "from": "0xC555B93156F09101233c6f7CF6eB3c4F196D3346",
      "gasPrice": {
        "_hex": "0xd12415afe"
      },
      "gasLimit": {
        "_hex": "0x15f90"
      },
      "to": "0xD4aff3818e2AD1f52ACF4742975dB3C42300B8cE",
      "value": {
        "_hex": "0x0"
      },
      "nonce": 2,
      "data": "0x",
      "r": "0x9b3fd3e048cb10509822b8949721c7527095871c0183ba0ba3c16b8567ec4243",
      "s": "0x1cdeee9a6fc466cbeb0eb670462eb5d469e484ef10ec3f8f5860656509b45f9b",
      "v": 28,
      "creates": null,
      "raw": "0xf86502850d12415afe83015f9094d4aff3818e2ad1f52acf4742975db3c42300b8ce80801ca09b3fd3e048cb10509822b8949721c7527095871c0183ba0ba3c16b8567ec4243a01cdeee9a6fc466cbeb0eb670462eb5d469e484ef10ec3f8f5860656509b45f9b",
      "networkId": 0,
      "chainId": 0
    }
  ]
}