{
  "hash": "0x0ad333dea2a21af373a67d5de746ace794797134ae1f03ae5b51d28bf7fa5e05",
  "parentHash": "0xfc08fd37a30b26598a46c600912ce08ef4b5113a7a46cdae1a9d0091fafad4e8",
  "number": 94497,
  "timestamp": 1439709401,
  "nonce": "0x60216246e7c421af",
  "difficulty": 3484933404313,
  "gasLimit": {
    "_hex": "0x2fefd8"
  },
  "gasUsed": {
    "_hex": "0x5208"
  },
  "miner": "0xe6A7a1d47ff21B6321162AEA7C6CB457D5476Bca",
  "extraData": "0x476574682f76312e302e312d38326566323666362f6c696e75782f676f312e34",
  "transactions": [
    {
      "hash": "0xd822a2c86b72967bb0d9dd8162521718763cf99902232c1806a9c01b7590738f",
      "blockHash": "0x0ad333dea2a21af373a67d5de746ace794797134ae1f03ae5b51d28bf7fa5e05",
      "blockNumber": 94497,
      "transactionIndex": 0,
      "confirmations": null,
      "from": "0x74A2B23F7e1bC34c7a605776e0Cd2CbF73566794",
      "gasPrice": {
        "_hex": "0xd7100fd3f"
      },
      "gasLimit": {
        "_hex": "0x5208"
      },
      "to": "0x32Be343B94f860124dC4fEe278FDCBD38C102D88",
      "value": {
        "_hex": "0x375afa7be3d05c00"
      },
      "nonce": 0,
      "data": "0x",
      "r": "0x97a6754e040f8d86451dcb1482508ebdd7e4aec88884192fc7577be9cbd37e2a",
      "s": "0x7403ff3c5db115d5a1ac016d4c2d5db6a61e281600022ff88583cd6996edccea",
      "v": 28,
      "creates": null,
      "raw": "0xf86c80850d7100fd3f8252089432be343b94f860124dc4fee278fdcbd38c102d8888375afa7be3d05c00801ca097a6754e040f8d86451dcb1482508ebdd7e4aec88884192fc7577be9cbd37e2aa07403ff3c5db115d5a1ac016d4c2d5db6a61e281600022ff88583cd6996edccea",
      "networkId": 0,
      "chainId": 0
    }
  ]
}