{
  "hash": "0xc51e9b7da5fdc2c3fd25c82cd32e5c4bb0ea35fae4a138916fa5b4160f6f31ec",
  "parentHash": "0x72781942e2871cfd1ed6811ba8e8b8060f8e5208bdcabbbd333422dc8c3589e1",
  "number": 117853,
  "timestamp": 1440116412,
  "nonce": "0xf107fefb26df57b1",
  "difficulty": 4333466611328,
  "gasLimit": {
    "_hex": "0x2fefd8"
  },
  "gasUsed": {
    "_hex": "0xa410"
  },
  "miner": "0xe6A7a1d47ff21B6321162AEA7C6CB457D5476Bca",
  "extraData": "0xd783010002844765746887676f312e342e32856c696e7578",
  "transactions": [
    {
      "hash": "0xa3ef786d3278935fea1891af5ecf9b7a62239c976f36fd85a0a33935be6bdc1d",
      "blockHash": "0xc51e9b7da5fdc2c3fd25c82cd32e5c4bb0ea35fae4a138916fa5b4160f6f31ec",
      "blockNumber": 117853,
      "transactionIndex": 0,
      "confirmations": null,
      "from": "0xb4eb03c9bDD4944DE22085E8e1dB5Ebd36889Bd8",
      "gasPrice": {
        "_hex": "0xba43b7400"
      },
      "gasLimit": {
        "_hex": "0x5208"
      },
      "to": "0x32Be343B94f860124dC4fEe278FDCBD38C102D88",
      "value": {
        "_hex": "0x14d94969eceb2c00"
      },
      "nonce": 11,
      "data": "0x",
      "r": "0x8658f2d937d4563cf446aa3d8e343b182d786999e44c02615043085fe971dfba",
      "s": "0x277d5fad7755462179f999d5eac03d666dd8a18b9ed09db5ab560d20c6afb66f",
      "v": 27,
      "creates": null,
      "raw": "0xf86c0b850ba43b74008252089432be343b94f860124dc4fee278fdcbd38c102d888814d94969eceb2c00801ba08658f2d937d4563cf446aa3d8e343b182d786999e44c02615043085fe971dfbaa0277d5fad7755462179f999d5eac03d666dd8a18b9ed09db5ab560d20c6afb66f",
      "networkId": 0,
      "chainId": 0
    },
    {
      "hash": "0xe9aa9e14d1c66aa5cc7326c1a3699dd9956429541f9ab4ac3fa13e2941564907",
      "blockHash": "0xc51e9b7da5fdc2c3fd25c82cd32e5c4bb0ea35fae4a138916fa5b4160f6f31ec",
      "blockNumber": 117853,
      "transactionIndex": 1,
      "confirmations": null,
      "from": "0xa114c802ef29776f05f9c6925cE915232e8ae102",
      "gasPrice": {
        "_hex": "0xba43b7400"
      },
      "gasLimit": {
        "_hex": "0x5208"
      },
      "to": "0x32Be343B94f860124dC4fEe278FDCBD38C102D88",
      "value": {
        "_hex": "0x85ecde680b8ec000"
      },
      "nonce": 27,
      "data": "0x",
      "r": "0x79a14d5dfb52d4ed017b20832ecabae54f6db3a84c162e2db98b72b142049e5b",
      "s": "0x24eb1474b0e6a5f394775b1dd1a16b9e18445262a6dcf3dd3af307ac73c80468",
      "v": 27,
      "creates": null,
      "raw": "0xf86c1b850ba43b74008252089432be343b94f860124dc4fee278fdcbd38c102d888885ecde680b8ec000801ba079a14d5dfb52d4ed017b20832ecabae54f6db3a84c162e2db98b72b142049e5ba024eb1474b0e6a5f394775b1dd1a16b9e18445262a6dcf3dd3af307ac73c80468",
      "networkId": 0,
      "chainId": 0
    }
  ]
}