{
  "hash": "0x7338664ddb7c9c20e59f8afe4df341ca8f94d211f19069937d92ef047c9981c7",
  "parentHash": "0xc8c87d522948fae0a9830111045a40e97eef72f2de18788284084abac992d600",
  "number": 60549,
  "timestamp": 1439157685,
  "nonce": "0x663aae01c15f84c9",
  "difficulty": 1737244929298,
  "gasLimit": {
    "_hex": "0x2fefd8"
  },
  "gasUsed": {
    "_hex": "0xfd44"
  },
  "miner": "0x9746c7e1ef2bd21FF3997fa467593a89cb852BD0",
  "extraData": "0x476574682f76312e302e312f77696e646f77732f676f312e342e32",
  "transactions": [
    {
      "hash": "0x5b09b20791b5ec0b674354a3b32803b95cc9428116e662fb11dadff6d8010096",
      "blockHash": "0x7338664ddb7c9c20e59f8afe4df341ca8f94d211f19069937d92ef047c9981c7",
      "blockNumber": 60549,
      "transactionIndex": 0,
      "confirmations": null,
      "from": "0xd78EcD25adC86bc2051D96f65364866B42A426B7",
      "gasPrice": {
        "_hex": "0x110c8f7d8de"
      },
      "gasLimit": {
        "_hex": "0xc350"
      },
      "to": "0x2910543Af39abA0Cd09dBb2D50200b3E800A63D2",
      "value": {
        "_hex": "0x16345785d8a0000"
      },
      "nonce": 0,
      "data": "0x454e3359304d354538",
      "r": "0xa14d1a1d69fa7e8a0a6e3bb5aa7950f138606b35c02206ea3dd8cb0f002a8f26",
      "s": "0x7265999c250ad1214efc62f16b02d5ae0a9781f586671ffe019a96a606a9b386",
      "v": 27,
      "creates": null,
      "raw": "0xf87680860110c8f7d8de82c350942910543af39aba0cd09dbb2d50200b3e800a63d288016345785d8a000089454e3359304d3545381ba0a14d1a1d69fa7e8a0a6e3bb5aa7950f138606b35c02206ea3dd8cb0f002a8f26a07265999c250ad1214efc62f16b02d5ae0a9781f586671ffe019a96a606a9b386",
      "networkId": 0,
      "chainId": 0
    },
    {
      "hash": "0x9a6750f12eb5636a9f4da1accd3cdb8cd16a01cac602611e66ba9fd8f6250ce2",
      "blockHash": "0x7338664ddb7c9c20e59f8afe4df341ca8f94d211f19069937d92ef047c9981c7",
      "blockNumber": 60549,
      "transactionIndex": 1,
      "confirmations": null,
      "from": "0x6dBE8aBFA1742806263981371Bf3D35590806b6E",
      "gasPrice": {
        "_hex": "0x109afae6c45"
      },
      "gasLimit": {
        "_hex": "0x61a8"
      },
      "to": "0x2910543Af39abA0Cd09dBb2D50200b3E800A63D2",
      "value": {
        "_hex": "0xde0b6b3a7640000"
      },
      "nonce": 2,
      "data": "0x454e32564e57354d30",
      "r": "0xd3b3a43b8f57ed40503652c39cbc7e01e26b132868412d7a8ba49d55bc4a041f",
      "s": "0x42d487685e652dab03bb2664760159a20ca34245c9402ebad14ee62ccbb83d5e",
      "v": 28,
      "creates": null,
      "raw": "0xf87602860109afae6c458261a8942910543af39aba0cd09dbb2d50200b3e800a63d2880de0b6b3a764000089454e32564e57354d301ca0d3b3a43b8f57ed40503652c39cbc7e01e26b132868412d7a8ba49d55bc4a041fa042d487685e652dab03bb2664760159a20ca34245c9402ebad14ee62ccbb83d5e",
      "networkId": 0,
      "chainId": 0
    },
    {
      "hash": "0xfabe919b892403f41a74df7bb3ded56d2e8941e5a97b9ef25c468d6726541ce3",
      "blockHash": "0x7338664ddb7c9c20e59f8afe4df341ca8f94d211f19069937d92ef047c9981c7",
      "blockNumber": 60549,
      "transactionIndex": 2,
      "confirmations": null,
      "from": "0x6dBE8aBFA1742806263981371Bf3D35590806b6E",
      "gasPrice": {
        "_hex": "0x109afae6c45"
      },
      "gasLimit": {
        "_hex": "0x61a8"
      },
      "to": "0x2910543Af39abA0Cd09dBb2D50200b3E800A63D2",
      "value": {
        "_hex": "0x1bc16d674ec80000"
      },
      "nonce": 3,
      "data": "0x454e32564e57354d30",
      "r": "0xeea66d46bd2f50c54b3c5e637b4000738e061959c3d71eded0ec671d43cc7451",
      "s": "0x58f479d490570ace8cbf9ffca3ecb76e9474a296e2b7cc68f59bdd726c17a65d",
      "v": 28,
      "creates": null,
      "raw": "0xf87603860109afae6c458261a8942910543af39aba0cd09dbb2d50200b3e800a63d2881bc16d674ec8000089454e32564e57354d301ca0eea66d46bd2f50c54b3c5e637b4000738e061959c3d71eded0ec671d43cc7451a058f479d490570ace8cbf9ffca3ecb76e9474a296e2b7cc68f59bdd726c17a65d",
      "networkId": 0,
      "chainId": 0
    }
  ]
}