{
  "hash": "0x7e84da5215d66a5b435b99083d99381970730a8d938944bae03a2bbcc4c67865",
  "parentHash": "0x846be609d80d4073bd9e3e55ee5fb4f1325dc42fc6dac9c31b8f36e85e789e11",
  "number": 47376,
  "timestamp": 1438939190,
  "nonce": "0x0628bf44bcfffb93",
  "difficulty": 1453093937296,
  "gasLimit": {
    "_hex": "0xb6f9"
  },
  "gasUsed": {
    "_hex": "0x5208"
  },
  "miner": "0x3222BA3F3e79eA0e31467EEE7639B57923558cCD",
  "extraData": "0x476574682f76312e302e302f77696e646f77732f676f312e342e32",
  "transactions": [
    {
      "hash": "0xb61d0bbabd40a7784c7289ed3bb03b3740e09678af1194a089a5f08e4bed7a99",
      "blockHash": "0x7e84da5215d66a5b435b99083d99381970730a8d938944bae03a2bbcc4c67865",
      "blockNumber": 47376,
      "transactionIndex": 0,
      "confirmations": null,
      "from": "0xe6A7a1d47ff21B6321162AEA7C6CB457D5476Bca",
      "gasPrice": {
        "_hex": "0x1f420e3bf4"
      },
      "gasLimit": {
        "_hex": "0x5208"
      },
      "to": "0x228ed249A4299B231F83A502c12d904e48C5842c",
      "value": {
        "_hex": "0x119e1c67dc8148030"
      },
      "nonce": 129,
      "data": "0x",
      "r": "0x608631f4012e14e2aaea2863f578fea41f60e9c227f4cc0db40077a711343c17",
      "s": "0x1666c2ccd1d974f6105b6d3120281a58ee79f036ec9a3dfc9ded46fa66772aca",
      "v": 27,
      "creates": null,
      "raw": "0xf86e8181851f420e3bf482520894228ed249a4299b231f83a502c12d904e48c5842c890119e1c67dc8148030801ba0608631f4012e14e2aaea2863f578fea41f60e9c227f4cc0db40077a711343c17a01666c2ccd1d974f6105b6d3120281a58ee79f036ec9a3dfc9ded46fa66772aca",
      "networkId": 0,
      "chainId": 0
    }
  ]
}