{
  "hash": "0x9928c444cbe7fd326324a2c99f64e1a8d9e2ceb31f936a310b07e91ef04ff0c2",
  "parentHash": "0xa64dee461f41a3499524b0e43b6c622b3c23070192642ebac9649930bf6c1d38",
  "number": 101687,
  "timestamp": 1439826640,
  "nonce": "0x547b95c355060e59",
  "difficulty": 3880601882592,
  "gasLimit": {
    "_hex": "0x2fefd8"
  },
  "gasUsed": {
    "_hex": "0x14c30"
  },
  "miner": "0xfC25864D8326b4CB335C6942218e5F4Ee8D1E1EF",
  "extraData": "0x476574682f76312e302e312f77696e646f77732f676f312e342e32",
  "transactions": [
    {
      "hash": "0xb53819ecd79be0bad374dea40b6daccecdb8397a94790e316d47ce95bafa09e9",
      "blockHash": "0x9928c444cbe7fd326324a2c99f64e1a8d9e2ceb31f936a310b07e91ef04ff0c2",
      "blockNumber": 101687,
      "transactionIndex": 0,
      "confirmations": null,
      "from": "0x8f7f160D267B54245003AaEeDB71b3cDD3A8BB65",
      "gasPrice": {
        "_hex": "0xe18f28072"
      },
      "gasLimit": {
        "_hex": "0x15f90"
      },
      "to": "0x0000000000000000000000000000000000000000",
      "value": {
        "_hex": "0x0"
      },
      "nonce": 2,
      "data": "0x432ced0470726f76656e616e636500000000000000000000000000000000000000000000",
      "r": "0xa8d7594212b59ede9d8e01a54813a2991a23f20caab4e952b1f1ea2b92b9bc9d",
      "s": "0x5286cd84ba974cc2f48831c4ca07287c82873f1c5e0cb1dba9548ccc9943a9fb",
      "v": 28,
      "creates": null,
      "raw": "0xf88902850e18f2807283015f9094000000000000000000000000000000000000000080a4432ced0470726f76656e616e6365000000000000000000000000000000000000000000001ca0a8d7594212b59ede9d8e01a54813a2991a23f20caab4e952b1f1ea2b92b9bc9da05286cd84ba974cc2f48831c4ca07287c82873f1c5e0cb1dba9548ccc9943a9fb",
      "networkId": 0,
      "chainId": 0
    },
    {
      "hash": "0x2f7ef4b59e4a9f6fee03dc40b196ead938333a5cb87e09d2c04cef550d6ec621",
      "blockHash": "0x9928c444cbe7fd326324a2c99f64e1a8d9e2ceb31f936a310b07e91ef04ff0c2",
      "blockNumber": 101687,
      "transactionIndex": 1,
      "confirmations": null,
      "from": "0xb3395f0a13448d9A660aC4aB2aBBC61F555f3656",
      "gasPrice": {
        "_hex": "0xd2ce78e70"
      },
      "gasLimit": {
        "_hex": "0x7530"
      },
      "to": "0x6De181Fc4C140FA31F196e5393516c49EEeBdAd3",
      "value": {
        "_hex": "0xebec21ee1da40000"
      },
      "nonce": 5,
      "data": "0x",
      "r": "0xff51a6c99724c117a6fe4e1d5061b2003fbb8ff47eaf6bae2aff17463c377c97",
      "s": "0x63dbcc8b1c4343f4936ec5a6a476ef25f4eaada5c8f0ad9a75c38a331255aeaf",
      "v": 27,
      "creates": null,
      "raw": "0xf86c05850d2ce78e70827530946de181fc4c140fa31f196e5393516c49eeebdad388ebec21ee1da40000801ba0ff51a6c99724c117a6fe4e1d5061b2003fbb8ff47eaf6bae2aff17463c377c97a063dbcc8b1c4343f4936ec5a6a476ef25f4eaada5c8f0ad9a75c38a331255aeaf",
      "networkId": 0,
      "chainId": 0
    },
    {
      "hash": "0x08383ae19601a59ca0f4dc8e22223075865f790db48c7ea7e639e696affa07c7",
      "blockHash": "0x9928c444cbe7fd326324a2c99f64e1a8d9e2ceb31f936a310b07e91ef04ff0c2",
      "blockNumber": 101687,
      "transactionIndex": 2,
      "confirmations": null,
      "from": "0x6De181Fc4C140FA31F196e5393516c49EEeBdAd3",
      "gasPrice": {
        "_hex": "0xccdb5189a"
      },
      "gasLimit": {
        "_hex": "0x5208"
      },
      "to": "0x32Be343B94f860124dC4fEe278FDCBD38C102D88",
      "value": {
        "_hex": "0x2629b4c959d5ac000"
      },
      "nonce": 18,
      "data": "0x",
      "r": "0x84ec3fedd1732fda608218b0cdf64cc6d0a54786374f61c548ffb72e429099e5",
      "s": "0x15c6633a97f6ad42d8780f591827c971636f0560d5110a30e72aa2c762b2f551",
      "v": 28,
      "creates": null,
      "raw": "0xf86d12850ccdb5189a8252089432be343b94f860124dc4fee278fdcbd38c102d888902629b4c959d5ac000801ca084ec3fedd1732fda608218b0cdf64cc6d0a54786374f61c548ffb72e429099e5a015c6633a97f6ad42d8780f591827c971636f0560d5110a30e72aa2c762b2f551",
      "networkId": 0,
      "chainId": 0
    },
    {
      "hash": "0xa036ff51bf083298ba595514caf10d9ccc103b8ce9e8f9c71defd5f31b79f810",
      "blockHash": "0x9928c444cbe7fd326324a2c99f64e1a8d9e2ceb31f936a310b07e91ef04ff0c2",
      "blockNumber": 101687,
      "transactionIndex": 3,
      "confirmations": null,
      "from": "0xc08E05f51581aDA37f9DD2edbF7a68fE7E199D55",
      "gasPrice": {
        "_hex": "0xccdb5189a"
      },
      "gasLimit": {
        "_hex": "0x5208"
      },
      "to": "0x32Be343B94f860124dC4fEe278FDCBD38C102D88",
      "value": {
        "_hex": "0x2375f3241b004800"
      },
      "nonce": 2,
      "data": "0x",
      "r": "0x62e9839bb33331b4972629b7681a7542b9d5690d288876f7c4f1f6cb395a0fa3",
      "s": "0x1a604aaa2e894b690d8ee9b26263d83d447dd14921fc616966727e2b151831e2",
      "v": 27,
      "creates": null,
      "raw": "0xf86c02850ccdb5189a8252089432be343b94f860124dc4fee278fdcbd38c102d88882375f3241b004800801ba062e9839bb33331b4972629b7681a7542b9d5690d288876f7c4f1f6cb395a0fa3a01a604aaa2e894b690d8ee9b26263d83d447dd14921fc616966727e2b151831e2",
      "networkId": 0,
      "chainId": 0
    }
  ]
}