{
  "hash": "0xec6083d739f40847c68b02ba1310d66fdcfe8121b2df2fc1f2856968396e1d89",
  "parentHash": "0xea318c8f3e35582351cbb31e237336ba40eb9743e95ffdd82b22a3d34a5e27cf",
  "number": 106565,
  "timestamp": 1439906578,
  "nonce": "0xf340cb29a7ca9da3",
  "difficulty": 4477046035519,
  "gasLimit": {
    "_hex": "0x2fefd8"
  },
  "gasUsed": {
    "_hex": "0xa410"
  },
  "miner": "0x580992B51e3925e23280EfB93d3047C82f17E038",
  "extraData": "0x476574682f76312e302e312f6c696e75782f676f312e342e32",
  "transactions": [
    {
      "hash": "0xc904e8324922d7cd15c612f4738e44df1d95e82fee699f8dc436b363ff1ea7a3",
      "blockHash": "0xec6083d739f40847c68b02ba1310d66fdcfe8121b2df2fc1f2856968396e1d89",
      "blockNumber": 106565,
      "transactionIndex": 0,
      "confirmations": null,
      "from": "0x2910543Af39abA0Cd09dBb2D50200b3E800A63D2",
      "gasPrice": {
        "_hex": "0xd3634d2ff"
      },
      "gasLimit": {
        "_hex": "0x5208"
      },
      "to": "0xaDBc14F6eCe4d9868995f6884427cDA25367873d",
      "value": {
        "_hex": "0x2b5e3af16b1880000"
      },
      "nonce": 1033,
      "data": "0x",
      "r": "0xaeaa4491467f787c71cbd1dc71c05c85a69c778481401c97df65deb15f37efcf",
      "s": "0x496971a2937ac769626c44a3256a2df4afcef4ae196c52369f33682a1c105a92",
      "v": 27,
      "creates": null,
      "raw": "0xf86f820409850d3634d2ff82520894adbc14f6ece4d9868995f6884427cda25367873d8902b5e3af16b1880000801ba0aeaa4491467f787c71cbd1dc71c05c85a69c778481401c97df65deb15f37efcfa0496971a2937ac769626c44a3256a2df4afcef4ae196c52369f33682a1c105a92",
      "networkId": 0,
      "chainId": 0
    },
    {
      "hash": "0xeb9e747d2a22ff65d0887f0312e08ff61a298f64be296386328fc02160be37ed",
      "blockHash": "0xec6083d739f40847c68b02ba1310d66fdcfe8121b2df2fc1f2856968396e1d89",
      "blockNumber": 106565,
      "transactionIndex": 1,
      "confirmations": null,
      "from": "0x2910543Af39abA0Cd09dBb2D50200b3E800A63D2",
      "gasPrice": {
        "_hex": "0xd3634d2ff"
      },
      "gasLimit": {
        "_hex": "0x5208"
      },
      "to": "0x2f86ba8019945f39edE131D38d4d8780884DA553",
      "value": {
        "_hex": "0x56bc641f5cf91f8000"
      },
      "nonce": 1034,
      "data": "0x",
      "r": "0x6a044e41265461516e43a6bdeeb750c8ddfe13b1ea87af619b958e7152196b84",
      "s": "0x18f94a36d3465c95741fd09d86e219b18ee251ec6104516c5804e343bf9f5a70",
      "v": 27,
      "creates": null,
      "raw": "0xf86f82040a850d3634d2ff825208942f86ba8019945f39ede131d38d4d8780884da5538956bc641f5cf91f8000801ba06a044e41265461516e43a6bdeeb750c8ddfe13b1ea87af619b958e7152196b84a018f94a36d3465c95741fd09d86e219b18ee251ec6104516c5804e343bf9f5a70",
      "networkId": 0,
      "chainId": 0
    }
  ]
}