{
  "hash": "0x8a9d6a64bb7069c233fb58ae397455fb97ebad33bef5d0c56afea43c3128602e",
  "parentHash": "0xa44ef7fa4c2d592ac0b17dd43dba434e1b37a1182b5f8c69c0140cc7a108fe40",
  "number": 63541,
  "timestamp": 1439206198,
  "nonce": "0xd0be112b264401c6",
  "difficulty": 1834241995110,
  "gasLimit": {
    "_hex": "0x2fefd8"
  },
  "gasUsed": {
    "_hex": "0x5208"
  },
  "miner": "0x0eDEd3DA479d0beF8eeC92A76644D3f4E3C177f7",
  "extraData": "0x476574682f76312e302e312f6c696e75782f676f312e342e32",
  "transactions": [
    {
      "hash": "0xf6343f42797c7612a4aaf34c773c59474b75f896b41b8ff7612361b3d15ba331",
      "blockHash": "0x8a9d6a64bb7069c233fb58ae397455fb97ebad33bef5d0c56afea43c3128602e",
      "blockNumber": 63541,
      "transactionIndex": 0,
      "confirmations": null,
      "from": "0xa914cDb571BFd93D64da66a4e108EA134e50D000",
      "gasPrice": {
        "_hex": "0x9184e72a000"
      },
      "gasLimit": {
        "_hex": "0x55f0"
      },
      "to": "0xCb88dAC50e0b4f450f3a5d02c2D65Bc56361313E",
      "value": {
        "_hex": "0x56bc75e2d63100000"
      },
      "nonce": 10,
      "data": "0x",
      "r": "0x81d4eee591b251c9120fc1b52e8b573939bb14da9c4f39153b38a3dbc1566c94",
      "s": "0x2ddfe58250fddecb6467760d727b5a2ec81f02ba56677bbc6cb1ddb5a362de02",
      "v": 28,
      "creates": null,
      "raw": "0xf86e0a8609184e72a0008255f094cb88dac50e0b4f450f3a5d02c2d65bc56361313e89056bc75e2d63100000801ca081d4eee591b251c9120fc1b52e8b573939bb14da9c4f39153b38a3dbc1566c94a02ddfe58250fddecb6467760d727b5a2ec81f02ba56677bbc6cb1ddb5a362de02",
      "networkId": 0,
      "chainId": 0
    }
  ]
}