{
  "hash": "0xfa2afb5a9b61456399a18917dfacd307d4d0ca1c353010b39b39262f42e1e214",
  "parentHash": "0xf2a3b5e8d46425974cc9e320a6a4191b6fd8d1aaf1a84f8b9ba0fb856178469a",
  "number": 52851,
  "timestamp": 1439028327,
  "nonce": "0x9878b3139cd3aa94",
  "difficulty": 1567845720330,
  "gasLimit": {
    "_hex": "0x1ad0cf"
  },
  "gasUsed": {
    "_hex": "0xa410"
  },
  "miner": "0xbDF1683C24A708a51587EF6298972Fdbd1E25B5B",
  "extraData": "0x",
  "transactions": [
    {
      "hash": "0xffa9668b9b8bfb58ec569fc823e32f10c62c602c07173d310180ab593061589f",
      "blockHash": "0xfa2afb5a9b61456399a18917dfacd307d4d0ca1c353010b39b39262f42e1e214",
      "blockNumber": 52851,
      "transactionIndex": 0,
      "confirmations": null,
      "from": "0x32Be343B94f860124dC4fEe278FDCBD38C102D88",
      "gasPrice": {
        "_hex": "0xd303f5f16"
      },
      "gasLimit": {
        "_hex": "0x5208"
      },
      "to": "0x0000000000000000000000000000000000000000",
      "value": {
        "_hex": "0x6ccd46763f10000"
      },
      "nonce": 25,
      "data": "0x",
      "r": "0x40ccc81542630102396339901c6c267a3a24bf0f4ffabeafdec819590aed7ff4",
      "s": "0x33ca6f459a10787036c11fe292cd5e36f0219f5005fcbdeb794363cb00f27ed6",
      "v": 28,
      "creates": null,
      "raw": "0xf86c19850d303f5f168252089400000000000000000000000000000000000000008806ccd46763f10000801ca040ccc81542630102396339901c6c267a3a24bf0f4ffabeafdec819590aed7ff4a033ca6f459a10787036c11fe292cd5e36f0219f5005fcbdeb794363cb00f27ed6",
      "networkId": 0,
      "chainId": 0
    },
    {
      "hash": "0xa950d899c9fd6dec95f298ce591072a01fe00ad32a4b927a0f31a0d1b6909e86",
      "blockHash": "0xfa2afb5a9b61456399a18917dfacd307d4d0ca1c353010b39b39262f42e1e214",
      "blockNumber": 52851,
      "transactionIndex": 1,
      "confirmations": null,
      "from": "0x32Be343B94f860124dC4fEe278FDCBD38C102D88",
      "gasPrice": {
        "_hex": "0xd303f5f16"
      },
      "gasLimit": {
        "_hex": "0x5208"
      },
      "to": "0x3cD41F8B22D7F3f4793E10f8E96247356A567dD9",
      "value": {
        "_hex": "0x5698eef06670000"
      },
      "nonce": 26,
      "data": "0x",
      "r": "0x55c9a5075118784d45093469aab16df43c85b44f0dc237a9f442848b58a3d2cd",
      "s": "0x5f6d00fac3f7ea538a98e3607b3510b38d26ec07135f3a41438af25ee376fc1a",
      "v": 27,
      "creates": null,
      "raw": "0xf86c1a850d303f5f16825208943cd41f8b22d7f3f4793e10f8e96247356a567dd98805698eef06670000801ba055c9a5075118784d45093469aab16df43c85b44f0dc237a9f442848b58a3d2cda05f6d00fac3f7ea538a98e3607b3510b38d26ec07135f3a41438af25ee376fc1a",
      "networkId": 0,
      "chainId": 0
    }
  ]
}