{
  "hash": "0x42cc67753cfae8333f09b60115b81d7f8ace6e0f10cef88a6232c92fb18a8860",
  "parentHash": "0x09481c2406095b8b1cf52cc24d77843ab3260f6aec2c1755b0961ff5919c54eb",
  "number": 68791,
  "timestamp": 1439293844,
  "nonce": "0x43449d7eb839c460",
  "difficulty": 2017196342771,
  "gasLimit": {
    "_hex": "0x2fefd2"
  },
  "gasUsed": {
    "_hex": "0x5208"
  },
  "miner": "0x9D49F602b0fdb924Bd63DDE2Bd0907E4A07c63a7",
  "extraData": "0x476574682f76312e302e312f6c696e75782f676f312e342e32",
  "transactions": [
    {
      "hash": "0x54fe1e3d64867aa0246322d34786b1fb6aa8538a4cea0d6cf1344172a2c20b61",
      "blockHash": "0x42cc67753cfae8333f09b60115b81d7f8ace6e0f10cef88a6232c92fb18a8860",
      "blockNumber": 68791,
      "transactionIndex": 0,
      "confirmations": null,
      "from": "0x630598A7a5c84c21d8661710969c9a4127c7c8D4",
      "gasPrice": {
        "_hex": "0xd8364fc25"
      },
      "gasLimit": {
        "_hex": "0x15f90"
      },
      "to": "0x0D81FD2bB264D9Ee0F432599b443ae1B691f6134",
      "value": {
        "_hex": "0x4563918244f40000"
      },
      "nonce": 0,
      "data": "0x",
      "r": "0xfdd22b61e62b0b42a3b60f4d8a4d3e3d78dba148933cf8390e6b2545a4603b04",
      "s": "0x377db246c50683176be123879fbac15f4d01d095e34ed8b9ad2db689d9678634",
      "v": 27,
      "creates": null,
      "raw": "0xf86d80850d8364fc2583015f90940d81fd2bb264d9ee0f432599b443ae1b691f6134884563918244f40000801ba0fdd22b61e62b0b42a3b60f4d8a4d3e3d78dba148933cf8390e6b2545a4603b04a0377db246c50683176be123879fbac15f4d01d095e34ed8b9ad2db689d9678634",
      "networkId": 0,
      "chainId": 0
    }
  ]
}