{
  "hash": "0xd7e579a612e553a99c1818b6ad9eaee9ed8bb8ed7213501262261ae83d409021",
  "parentHash": "0x244cb0239bb8e269fcbfd58972c92099b7b48134a84eeec42acd5c618b089013",
  "number": 62231,
  "timestamp": 1439185236,
  "nonce": "0x5955f7bc66ae4f08",
  "difficulty": 1776350384392,
  "gasLimit": {
    "_hex": "0x2fefd8"
  },
  "gasUsed": {
    "_hex": "0x546c"
  },
  "miner": "0xa50ec0D39fa913E62f1Bae7074E6F36caA71855b",
  "extraData": "0x",
  "transactions": [
    {
      "hash": "0xdd2b57d2717d3f4f0d145e025c30cd13ea3b8fbbdf84e221be59f28a358d689e",
      "blockHash": "0xd7e579a612e553a99c1818b6ad9eaee9ed8bb8ed7213501262261ae83d409021",
      "blockNumber": 62231,
      "transactionIndex": 0,
      "confirmations": null,
      "from": "0x2496580535aEEF037C3232D8AfeB01545735c3Dc",
      "gasPrice": {
        "_hex": "0xd8364fc25"
      },
      "gasLimit": {
        "_hex": "0x55f0"
      },
      "to": "0x2910543Af39abA0Cd09dBb2D50200b3E800A63D2",
      "value": {
        "_hex": "0x8ac7230489e80000"
      },
      "nonce": 5,
      "data": "0x454e584136594a4230",
      "r": "0x4508095b2356ea433d5e4cf079aa81c5c2134f05b4f6fae54512439684981aa0",
      "s": "0x14aff355b25f147553f03f28396ed7cb9a7857045b9d9aceb42644b61bb4d566",
      "v": 28,
      "creates": null,
      "raw": "0xf87505850d8364fc258255f0942910543af39aba0cd09dbb2d50200b3e800a63d2888ac7230489e8000089454e584136594a42301ca04508095b2356ea433d5e4cf079aa81c5c2134f05b4f6fae54512439684981aa0a014aff355b25f147553f03f28396ed7cb9a7857045b9d9aceb42644b61bb4d566",
      "networkId": 0,
      "chainId": 0
    }
  ]
}