{
  "hash": "0x585ae50dd50d1142148c159df7b237224a0a6b47ac8650b3f5afa94aad663889",
  "parentHash": "0x7b7e40c65cc0831c24e22b3726d5035cd05174a256aa6b1c8450c26d5cbfc6be",
  "number": 105688,
  "timestamp": 1439892039,
  "nonce": "0x8c72dc53d3f84210",
  "difficulty": 4384483859722,
  "gasLimit": {
    "_hex": "0x2fefd8"
  },
  "gasUsed": {
    "_hex": "0xa410"
  },
  "miner": "0xe6A7a1d47ff21B6321162AEA7C6CB457D5476Bca",
  "extraData": "0x476574682f76312e302e312d38326566323666362f6c696e75782f676f312e34",
  "transactions": [
    {
      "hash": "0xe6296de2e28b7f0ea70eab74b69d5fde3569c31d5a00f5878a78aec53dff2626",
      "blockHash": "0x585ae50dd50d1142148c159df7b237224a0a6b47ac8650b3f5afa94aad663889",
      "blockNumber": 105688,
      "transactionIndex": 0,
      "confirmations": null,
      "from": "0x23f2D0fd3B4C98Fb1698564deB4898275E2e831f",
      "gasPrice": {
        "_hex": "0xcfc0dbc7e"
      },
      "gasLimit": {
        "_hex": "0x5208"
      },
      "to": "0x32Be343B94f860124dC4fEe278FDCBD38C102D88",
      "value": {
        "_hex": "0x5a3460fd6b8f14000"
      },
      "nonce": 18,
      "data": "0x",
      "r": "0x29068e6ab10e22cb5c72d2e0da620214d610f71bf104a15f14b952db78ffe418",
      "s": "0x3e0c1cefe30983da66d676d3d2ada0562c13215d80cef263905ffed4c1334af9",
      "v": 28,
      "creates": null,
      "raw": "0xf86d12850cfc0dbc7e8252089432be343b94f860124dc4fee278fdcbd38c102d888905a3460fd6b8f14000801ca029068e6ab10e22cb5c72d2e0da620214d610f71bf104a15f14b952db78ffe418a03e0c1cefe30983da66d676d3d2ada0562c13215d80cef263905ffed4c1334af9",
      "networkId": 0,
      "chainId": 0
    },
    {
      "hash": "0xc19e95c0953572cffad25396441c0a3df67c71d794c1f88a234d1861fd45bf60",
      "blockHash": "0x585ae50dd50d1142148c159df7b237224a0a6b47ac8650b3f5afa94aad663889",
      "blockNumber": 105688,
      "transactionIndex": 1,
      "confirmations": null,
      "from": "0xE12517204a15E890f12755207271102F4800A0c4",
      "gasPrice": {
        "_hex": "0xcfc0dbc7e"
      },
      "gasLimit": {
        "_hex": "0x5208"
      },
      "to": "0x32Be343B94f860124dC4fEe278FDCBD38C102D88",
      "value": {
        "_hex": "0x2b5df85f169d96000"
      },
      "nonce": 17,
      "data": "0x",
      "r": "0x9b5180f3a16f209f59d9ac7b8759374b48447652b1a91c9cbbd9676a0691bccf",
      "s": "0x7c86f99e51b9c3fbac44412c3fbf24e0fdce1ef55e21c4832963730ed8f11a8d",
      "v": 28,
      "creates": null,
      "raw": "0xf86d11850cfc0dbc7e8252089432be343b94f860124dc4fee278fdcbd38c102d888902b5df85f169d96000801ca09b5180f3a16f209f59d9ac7b8759374b48447652b1a91c9cbbd9676a0691bccfa07c86f99e51b9c3fbac44412c3fbf24e0fdce1ef55e21c4832963730ed8f11a8d",
      "networkId": 0,
      "chainId": 0
    }
  ]
}