{
  "hash": "0x7405cd05a6299f5c2bd8d6abea381e753c95498a8b61c45541237c771c647900",
  "parentHash": "0xf7a802a7b789742f1ba3b43e4d237ccc0c622275a0d26442b4108c75b148f6de",
  "number": 105189,
  "timestamp": 1439883269,
  "nonce": "0x3d3e85518a142754",
  "difficulty": 4331545324584,
  "gasLimit": {
    "_hex": "0x2fefd8"
  },
  "gasUsed": {
    "_hex": "0x5208"
  },
  "miner": "0xe6A7a1d47ff21B6321162AEA7C6CB457D5476Bca",
  "extraData": "0x476574682f76312e302e312d38326566323666362f6c696e75782f676f312e34",
  "transactions": [
    {
      "hash": "0x4fbec9b20cff7e43d5511205ae1e91c77e50e666d4b1ed021cb7b7fbd7cec074",
      "blockHash": "0x7405cd05a6299f5c2bd8d6abea381e753c95498a8b61c45541237c771c647900",
      "blockNumber": 105189,
      "transactionIndex": 0,
      "confirmations": null,
      "from": "0x187b1f47Cd55b27878699DfCDCee2234cD49E97e",
      "gasPrice": {
        "_hex": "0xd60d76dca"
      },
      "gasLimit": {
        "_hex": "0x5208"
      },
      "to": "0x32Be343B94f860124dC4fEe278FDCBD38C102D88",
      "value": {
        "_hex": "0x455f48112c55bc00"
      },
      "nonce": 6,
      "data": "0x",
      "r": "0x5108264d6a75f33c51071faf34131f094a6afbe28530018b1b2e88b8318d2f29",
      "s": "0x0b95eb13c989293ed35f7ef6c153a741fa783486eb193d380f19fe1c9f168a30",
      "v": 28,
      "creates": null,
      "raw": "0xf86c06850d60d76dca8252089432be343b94f860124dc4fee278fdcbd38c102d8888455f48112c55bc00801ca05108264d6a75f33c51071faf34131f094a6afbe28530018b1b2e88b8318d2f29a00b95eb13c989293ed35f7ef6c153a741fa783486eb193d380f19fe1c9f168a30",
      "networkId": 0,
      "chainId": 0
    }
  ]
}