{
  "hash": "0xdda2576bcceeaee4e8b4b683227b8566b77ab4f5ff1140f917701cf3502fd52c",
  "parentHash": "0x1940a02053473632f9e9359523f39924b13930a8ccbd0aadf604462cce96ab1c",
  "number": 96211,
  "timestamp": 1439736736,
  "nonce": "0xc19928593e63975b",
  "difficulty": 3665724014287,
  "gasLimit": {
    "_hex": "0x2fefd8"
  },
  "gasUsed": {
    "_hex": "0x5208"
  },
  "miner": "0x8B454d830feF179e66206840F8F3D1d83bC32b17",
  "extraData": "0x476574682f76312e302e312f77696e646f77732f676f312e342e32",
  "transactions": [
    {
      "hash": "0x3b8f4aec895a3c30485c4134dd34c1f981d4a356e4c23b153755feb189525fee",
      "blockHash": "0xdda2576bcceeaee4e8b4b683227b8566b77ab4f5ff1140f917701cf3502fd52c",
      "blockNumber": 96211,
      "transactionIndex": 0,
      "confirmations": null,
      "from": "0xfC25864D8326b4CB335C6942218e5F4Ee8D1E1EF",
      "gasPrice": {
        "_hex": "0xd7d40ace3"
      },
      "gasLimit": {
        "_hex": "0x15f90"
      },
      "to": "0xA5fb3E4399E8F18643f969D0Ce65CC352fc252C6",
      "value": {
        "_hex": "0xad78ebc5ac6200000"
      },
      "nonce": 1,
      "data": "0x",
      "r": "0xe87c96185b73fb622055ac6872c3e57e158c594e29becf32e0f2ffcf6ed55aac",
      "s": "0x63e18a4625863ab1db8587979fed5eca1a468bf514b8bf34237e448f787dc00f",
      "v": 27,
      "creates": null,
      "raw": "0xf86e01850d7d40ace383015f9094a5fb3e4399e8f18643f969d0ce65cc352fc252c6890ad78ebc5ac6200000801ba0e87c96185b73fb622055ac6872c3e57e158c594e29becf32e0f2ffcf6ed55aaca063e18a4625863ab1db8587979fed5eca1a468bf514b8bf34237e448f787dc00f",
      "networkId": 0,
      "chainId": 0
    }
  ]
}