{
  "hash": "0x5ed8a366481468344def67ca6e0cd2ba971855081c88cd7e5558b55a1636a3ef",
  "parentHash": "0x055dba5d3c422a07cd97d6df7adadff6cc60ab55293cdfcc898c0acc703603cd",
  "number": 119682,
  "timestamp": 1440147162,
  "nonce": "0xae11027c3e393299",
  "difficulty": 4377175695526,
  "gasLimit": {
    "_hex": "0x2fefd8"
  },
  "gasUsed": {
    "_hex": "0xf618"
  },
  "miner": "0x790b8a3cE86E707ED0eD32bF89B3269692a23CC1",
  "extraData": "0xd783010002844765746887676f312e342e32856c696e7578",
  "transactions": [
    {
      "hash": "0x72261d0dd0298ff41fa81d90c1080caac985aa15ad183a1b4dfab6aaaa354730",
      "blockHash": "0x5ed8a366481468344def67ca6e0cd2ba971855081c88cd7e5558b55a1636a3ef",
      "blockNumber": 119682,
      "transactionIndex": 0,
      "confirmations": null,
      "from": "0x2910543Af39abA0Cd09dBb2D50200b3E800A63D2",
      "gasPrice": {
        "_hex": "0xd6ebb16c0"
      },
      "gasLimit": {
        "_hex": "0x5208"
      },
      "to": "0x48C2140d5d4E39F74e8746c405fdb73F63573c8d",
      "value": {
        "_hex": "0x354a6ba7a18000"
      },
      "nonce": 1160,
      "data": "0x",
      "r": "0x6b123c2e29f585dc0eb5286be9f1d44f2451a038d432482b01797a19f7af5fab",
      "s": "0x46a9f7963f0e6128836fcd029acc84ac7aa5f0bc8b611afc00d7bd6689cb409f",
      "v": 28,
      "creates": null,
      "raw": "0xf86d820488850d6ebb16c08252089448c2140d5d4e39f74e8746c405fdb73f63573c8d87354a6ba7a18000801ca06b123c2e29f585dc0eb5286be9f1d44f2451a038d432482b01797a19f7af5faba046a9f7963f0e6128836fcd029acc84ac7aa5f0bc8b611afc00d7bd6689cb409f",
      "networkId": 0,
      "chainId": 0
    },
    {
      "hash": "0x0f03a24e3eb9c2d32625bd8e74be768cd90ed3d59365f7222369689b148f3536",
      "blockHash": "0x5ed8a366481468344def67ca6e0cd2ba971855081c88cd7e5558b55a1636a3ef",
      "blockNumber": 119682,
      "transactionIndex": 1,
      "confirmations": null,
      "from": "0x2910543Af39abA0Cd09dBb2D50200b3E800A63D2",
      "gasPrice": {
        "_hex": "0xd6ebb16c0"
      },
      "gasLimit": {
        "_hex": "0x5208"
      },
      "to": "0xeB22a5357D4554f33854eb2B29914533065534D1",
      "value": {
        "_hex": "0x354a6ba7a18000"
      },
      "nonce": 1161,
      "data": "0x",
      "r": "0x26cd456114b27708938a18531f092b43cfccddcad5415add5f6bbac0ad99cdaf",
      "s": "0x6eb206e01bc69b5d742583becd3a926a50000f1e0df1d2860cde598342dc445f",
      "v": 27,
      "creates": null,
      "raw": "0xf86d820489850d6ebb16c082520894eb22a5357d4554f33854eb2b29914533065534d187354a6ba7a18000801ba026cd456114b27708938a18531f092b43cfccddcad5415add5f6bbac0ad99cdafa06eb206e01bc69b5d742583becd3a926a50000f1e0df1d2860cde598342dc445f",
      "networkId": 0,
      "chainId": 0
    },
    {
      "hash": "0xeb4fe29a8e888f89dcf3332e742bdfaa1ded5e87d59732031fad4d70c1c5a214",
      "blockHash": "0x5ed8a366481468344def67ca6e0cd2ba971855081c88cd7e5558b55a1636a3ef",
      "blockNumber": 119682,
      "transactionIndex": 2,
      "confirmations": null,
      "from": "0x2910543Af39abA0Cd09dBb2D50200b3E800A63D2",
      "gasPrice": {
        "_hex": "0xd6ebb16c0"
      },
      "gasLimit": {
        "_hex": "0x5208"
      },
      "to": "0x81fB0aa0ceEebA4cCAfD0E67861de0B3174b0f5b",
      "value": {
        "_hex": "0x354a6ba7a18000"
      },
      "nonce": 1162,
      "data": "0x",
      "r": "0xd863163c75497efb3b7e015fdb3afacdbf059464c0828d23620485f908cd1d8d",
      "s": "0x5a581af41aa020d7074010f12c13cc39f6834a5bd2897e9455a824ca732e6476",
      "v": 28,
      "creates": null,
      "raw": "0xf86d82048a850d6ebb16c08252089481fb0aa0ceeeba4ccafd0e67861de0b3174b0f5b87354a6ba7a18000801ca0d863163c75497efb3b7e015fdb3afacdbf059464c0828d23620485f908cd1d8da05a581af41aa020d7074010f12c13cc39f6834a5bd2897e9455a824ca732e6476",
      "networkId": 0,
      "chainId": 0
    }
  ]
}