{
  "hash": "0x3a58baf24e4a4298c61353fac15f35b9236e3296b82adb1a29ad1694991fc0d2",
  "parentHash": "0xbb308f0d69e8e3ebb7d7691de169399f4a1e0cf64ec6d84c81b89bd0c0843f70",
  "number": 53126,
  "timestamp": 1439032832,
  "nonce": "0x55601d2525b6f318",
  "difficulty": 1573162163933,
  "gasLimit": {
    "_hex": "0x2028d7"
  },
  "gasUsed": {
    "_hex": "0xa410"
  },
  "miner": "0x34BDAF0a5ed72734a4c4c6CE6Cc8132EC81fb2a8",
  "extraData": "0x",
  "transactions": [
    {
      "hash": "0x1bb3453c78327e922e273c930181f10afe3252527387af67f6865b4215326d45",
      "blockHash": "0x3a58baf24e4a4298c61353fac15f35b9236e3296b82adb1a29ad1694991fc0d2",
      "blockNumber": 53126,
      "transactionIndex": 0,
      "confirmations": null,
      "from": "0xa21E0cF3793cf75D63930696158E4474aF8383bA",
      "gasPrice": {
        "_hex": "0xd7d40ace3"
      },
      "gasLimit": {
        "_hex": "0x15f90"
      },
      "to": "0x556ca325C21e450b2aFf86D9c8eF0Fa371971c97",
      "value": {
        "_hex": "0x56bc75e2d63100000"
      },
      "nonce": 6,
      "data": "0x",
      "r": "0x74e22a0fe029af16a36ef600eb8954a60b9ef4d13cb3d5ed3aee5b828e13abfb",
      "s": "0x3282bfea1e4db45345413bef60e4713fd8650281a133b999d861bc1f77a7f86e",
      "v": 27,
      "creates": null,
      "raw": "0xf86e06850d7d40ace383015f9094556ca325c21e450b2aff86d9c8ef0fa371971c9789056bc75e2d63100000801ba074e22a0fe029af16a36ef600eb8954a60b9ef4d13cb3d5ed3aee5b828e13abfba03282bfea1e4db45345413bef60e4713fd8650281a133b999d861bc1f77a7f86e",
      "networkId": 0,
      "chainId": 0
    },
    {
      "hash": "0x934ec02bfd01d14455a6ea5ae55d9ab96c55ca19f70f6a123890f2d6939dc1bd",
      "blockHash": "0x3a58baf24e4a4298c61353fac15f35b9236e3296b82adb1a29ad1694991fc0d2",
      "blockNumber": 53126,
      "transactionIndex": 1,
      "confirmations": null,
      "from": "0x09BFb16C3f990AabAF72B06b7042C71B3bDcB4F6",
      "gasPrice": {
        "_hex": "0xceafef792"
      },
      "gasLimit": {
        "_hex": "0x5208"
      },
      "to": "0x32Be343B94f860124dC4fEe278FDCBD38C102D88",
      "value": {
        "_hex": "0x6c6b8f2c398a080000"
      },
      "nonce": 2,
      "data": "0x",
      "r": "0x49a2ea00fd951a523c85277b05980118771f215f83fb7cf428dfa72d8adf8362",
      "s": "0x01bac37d550215380535e1839ac8507396ee674921f48856e6afb3adc2e9076a",
      "v": 28,
      "creates": null,
      "raw": "0xf86d02850ceafef7928252089432be343b94f860124dc4fee278fdcbd38c102d88896c6b8f2c398a080000801ca049a2ea00fd951a523c85277b05980118771f215f83fb7cf428dfa72d8adf8362a001bac37d550215380535e1839ac8507396ee674921f48856e6afb3adc2e9076a",
      "networkId": 0,
      "chainId": 0
    }
  ]
}