{
  "hash": "0xe2334bc0e1a1371face5406d5899080dda857e803d6a4638f8f193f419a0ef76",
  "parentHash": "0x34a56ffa99e5546b6131f2abdfa5f0246505a41a6a4b562b66c0acc419a694cf",
  "number": 96580,
  "timestamp": 1439742610,
  "nonce": "0x36290b940a6fd7c3",
  "difficulty": 3703342472833,
  "gasLimit": {
    "_hex": "0x2fefd8"
  },
  "gasUsed": {
    "_hex": "0x5208"
  },
  "miner": "0x7E6930B63D03e88F5928C5cd6ee3FCee4D714F7F",
  "extraData": "0x",
  "transactions": [
    {
      "hash": "0x297fb1c6ed8278fae9d6d14d279d22080a61c1e87e0c9c5788f200f694a4e720",
      "blockHash": "0xe2334bc0e1a1371face5406d5899080dda857e803d6a4638f8f193f419a0ef76",
      "blockNumber": 96580,
      "transactionIndex": 0,
      "confirmations": null,
      "from": "0xc15fa6D616245a5c7B7D75A6dFDcA10C0250BD2B",
      "gasPrice": {
        "_hex": "0xda8167ac5"
      },
      "gasLimit": {
        "_hex": "0x15f90"
      },
      "to": "0xdeE4977F74E6Aef6D627191c9A45D2627e331150",
      "value": {
        "_hex": "0xd02ab486cedc0000"
      },
      "nonce": 8,
      "data": "0x",
      "r": "0xe8fe1f00ecf5268cf7e65592c376fd5378c32d73b08bdf971099b29a1cffdd40",
      "s": "0x0996cac8b88612c46c087ef3089f9f1025aad9fc65d0efa278ca0d1c6802d6ad",
      "v": 28,
      "creates": null,
      "raw": "0xf86d08850da8167ac583015f9094dee4977f74e6aef6d627191c9a45d2627e33115088d02ab486cedc0000801ca0e8fe1f00ecf5268cf7e65592c376fd5378c32d73b08bdf971099b29a1cffdd40a00996cac8b88612c46c087ef3089f9f1025aad9fc65d0efa278ca0d1c6802d6ad",
      "networkId": 0,
      "chainId": 0
    }
  ]
}