{
  "hash": "0x7b1240a7f4c3d47b6dc1c0e9d54cf38888ff3aef47ac4d4b6e2012f9c12cfb19",
  "parentHash": "0xfdc0cbd2a90d3fc1e3e5b075b2268f7cb56f616b266479dddf5c1dcc7a2b0047",
  "number": 101146,
  "timestamp": 1439818134,
  "nonce": "0x2a5504444ffbc647",
  "difficulty": 3867610170143,
  "gasLimit": {
    "_hex": "0x2fefd8"
  },
  "gasUsed": {
    "_hex": "0xa410"
  },
  "miner": "0xEF247E639d49461D25F57e9362CadE3120910Ce0",
  "extraData": "0x476574682f76312e302e312f6c696e75782f676f312e342e32",
  "transactions": [
    {
      "hash": "0xc733c69113a9eb5cd53054399ebe520ea2be5a8f55d350bd58150e516e5c4671",
      "blockHash": "0x7b1240a7f4c3d47b6dc1c0e9d54cf38888ff3aef47ac4d4b6e2012f9c12cfb19",
      "blockNumber": 101146,
      "transactionIndex": 0,
      "confirmations": null,
      "from": "0x463eADDDA71F29F36365F889EA7E6fcDBe1cF0c8",
      "gasPrice": {
        "_hex": "0xd2890ff2d"
      },
      "gasLimit": {
        "_hex": "0x5208"
      },
      "to": "0x32Be343B94f860124dC4fEe278FDCBD38C102D88",
      "value": {
        "_hex": "0x434218e19aece8000"
      },
      "nonce": 4,
      "data": "0x",
      "r": "0xa704111ad57233902d6d34f7aa3df71d938c65e0d4feab45e9b8b813da439d86",
      "s": "0x6f8e3647380cb4b5940fd7f7193680054ee8a348f6e0b1b766ed76f35da55ab1",
      "v": 27,
      "creates": null,
      "raw": "0xf86d04850d2890ff2d8252089432be343b94f860124dc4fee278fdcbd38c102d88890434218e19aece8000801ba0a704111ad57233902d6d34f7aa3df71d938c65e0d4feab45e9b8b813da439d86a06f8e3647380cb4b5940fd7f7193680054ee8a348f6e0b1b766ed76f35da55ab1",
      "networkId": 0,
      "chainId": 0
    },
    {
      "hash": "0x76f63cadaabd14d491d5133977d91976cdf4ddf86917b946f2c423e956df9a55",
      "blockHash": "0x7b1240a7f4c3d47b6dc1c0e9d54cf38888ff3aef47ac4d4b6e2012f9c12cfb19",
      "blockNumber": 101146,
      "transactionIndex": 1,
      "confirmations": null,
      "from": "0xC711d87af18Db9a7EbE2CFB279b73c8785E55d41",
      "gasPrice": {
        "_hex": "0xd2890ff2d"
      },
      "gasLimit": {
        "_hex": "0x5208"
      },
      "to": "0x32Be343B94f860124dC4fEe278FDCBD38C102D88",
      "value": {
        "_hex": "0x4d6d787c9dc31c00"
      },
      "nonce": 4,
      "data": "0x",
      "r": "0xe4c05fe7ac06c790f417cdc03eddbedc54fe82e6ed13086bb64c03f949026685",
      "s": "0x632ec97fbe00a202e40950c1f524d5138a40431b212ba8cd00980b8c080307aa",
      "v": 27,
      "creates": null,
      "raw": "0xf86c04850d2890ff2d8252089432be343b94f860124dc4fee278fdcbd38c102d88884d6d787c9dc31c00801ba0e4c05fe7ac06c790f417cdc03eddbedc54fe82e6ed13086bb64c03f949026685a0632ec97fbe00a202e40950c1f524d5138a40431b212ba8cd00980b8c080307aa",
      "networkId": 0,
      "chainId": 0
    }
  ]
}