{
  "hash": "0x3b18a8ff8e7c2070e8fb74f3089610e00b8d52050ecfead24332191ee882fd00",
  "parentHash": "0x13bc782f5da85faab3bf3a2f3e78e6c315e6f48f47c4184da1610a66bafdcf94",
  "number": 56913,
  "timestamp": 1439094447,
  "nonce": "0xa19834bf1b03ad24",
  "difficulty": 1711052927660,
  "gasLimit": {
    "_hex": "0x2fefd8"
  },
  "gasUsed": {
    "_hex": "0x5208"
  },
  "miner": "0xbb7B8287f3F0a933474a79eAe42CBCa977791171",
  "extraData": "0x476574682f4c5649562f76312e302e312f6c696e75782f676f312e342e32",
  "transactions": [
    {
      "hash": "0x220aaa4f396fedd463487f34e90a77e4a2ad0868561e3d3ce39aea1a78961a82",
      "blockHash": "0x3b18a8ff8e7c2070e8fb74f3089610e00b8d52050ecfead24332191ee882fd00",
      "blockNumber": 56913,
      "transactionIndex": 0,
      "confirmations": null,
      "from": "0xdFEa98c36ccCe9785DAFd1932E128d53621DA69b",
      "gasPrice": {
        "_hex": "0xd1f217cbf"
      },
      "gasLimit": {
        "_hex": "0x15f90"
      },
      "to": "0x81bF04fab4b5E3b80865eb356308cA9bD5640b89",
      "value": {
        "_hex": "0x1"
      },
      "nonce": 3,
      "data": "0x",
      "r": "0x1227a09659d3c9e1b0cb3e37964c696217101b6d69c34ab68d7a1e4e52c0695f",
      "s": "0x3eb97c9dd25ee78f8dabded8d5aa021aa9ceb171d410c1920085cc2eb6735d9f",
      "v": 28,
      "creates": null,
      "raw": "0xf86503850d1f217cbf83015f909481bf04fab4b5e3b80865eb356308ca9bd5640b8901801ca01227a09659d3c9e1b0cb3e37964c696217101b6d69c34ab68d7a1e4e52c0695fa03eb97c9dd25ee78f8dabded8d5aa021aa9ceb171d410c1920085cc2eb6735d9f",
      "networkId": 0,
      "chainId": 0
    }
  ]
}