{
  "hash": "0xc8bd4333d4af11d6ac345425eee7622aa29864d272f55b447038597e2f9e26b5",
  "parentHash": "0x35c3fa20112478e5dd6eb23a3e6acf1391b8c4b7cdc2efac1fde2ed7c2b0b490",
  "number": 86020,
  "timestamp": 1439572337,
  "nonce": "0xb44cf63c80b2f65a",
  "difficulty": 2788038663349,
  "gasLimit": {
    "_hex": "0x2fefd8"
  },
  "gasUsed": {
    "_hex": "0x5208"
  },
  "miner": "0xe6A7a1d47ff21B6321162AEA7C6CB457D5476Bca",
  "extraData": "0x476574682f76312e302e312d38326566323666362f6c696e75782f676f312e34",
  "transactions": [
    {
      "hash": "0xb240e479d2c0f65a87965400977b85afa58145e1014d97d2640c53386394d5fc",
      "blockHash": "0xc8bd4333d4af11d6ac345425eee7622aa29864d272f55b447038597e2f9e26b5",
      "blockNumber": 86020,
      "transactionIndex": 0,
      "confirmations": null,
      "from": "0x2C5CfC5ae898F1Dc91Ffcf34076b3567510265B9",
      "gasPrice": {
        "_hex": "0xdb446b6e5"
      },
      "gasLimit": {
        "_hex": "0x5208"
      },
      "to": "0x32Be343B94f860124dC4fEe278FDCBD38C102D88",
      "value": {
        "_hex": "0xa2a158a5259ec00000"
      },
      "nonce": 1,
      "data": "0x",
      "r": "0xb3624af7f9242efab5198b9436a78075dfa18deae8a1553c97d4936fa4e922a0",
      "s": "0x2ce0decb9ea3f10e8bbeeea542c9f496ea3a855951995d828a35a4892ed0cb3d",
      "v": 28,
      "creates": null,
      "raw": "0xf86d01850db446b6e58252089432be343b94f860124dc4fee278fdcbd38c102d8889a2a158a5259ec00000801ca0b3624af7f9242efab5198b9436a78075dfa18deae8a1553c97d4936fa4e922a0a02ce0decb9ea3f10e8bbeeea542c9f496ea3a855951995d828a35a4892ed0cb3d",
      "networkId": 0,
      "chainId": 0
    }
  ]
}