{
  "hash": "0xf1bee0be1dff577c9e8a79ce97927c500bbc2b345df34755b4f0aacc60e4801b",
  "parentHash": "0xbbe19502cd930134cbf928c185ed75c0473d7e0986f637596211f001b75ed0fb",
  "number": 90879,
  "timestamp": 1439646770,
  "nonce": "0xe8b18cfb65b7e17a",
  "difficulty": 3409001028235,
  "gasLimit": {
    "_hex": "0x2fefd8"
  },
  "gasUsed": {
    "_hex": "0xa410"
  },
  "miner": "0xe6A7a1d47ff21B6321162AEA7C6CB457D5476Bca",
  "extraData": "0x476574682f76312e302e312d38326566323666362f6c696e75782f676f312e34",
  "transactions": [
    {
      "hash": "0x5dc6720ee5fac44582e5bc4b6bec26ffd15443cceae009c8426f983e27957679",
      "blockHash": "0xf1bee0be1dff577c9e8a79ce97927c500bbc2b345df34755b4f0aacc60e4801b",
      "blockNumber": 90879,
      "transactionIndex": 0,
      "confirmations": null,
      "from": "0x32Be343B94f860124dC4fEe278FDCBD38C102D88",
      "gasPrice": {
        "_hex": "0xd0525f231"
      },
      "gasLimit": {
        "_hex": "0x5208"
      },
      "to": "0x0C66AD817fcbFD565513051e51EdF2519A8d2ABd",
      "value": {
        "_hex": "0x1b1ae4d6e2ef500000"
      },
      "nonce": 864,
      "data": "0x",
      "r": "0x7dc6e9be46e918a4b005eef16c337faaa6bbfcb3f6570bdbd3a2b6e52b81be34",
      "s": "0x58b6ffc714e5272ad359f4939a1906bb19f709e6212e0a205edebed59aa9f5b0",
      "v": 28,
      "creates": null,
      "raw": "0xf86f820360850d0525f231825208940c66ad817fcbfd565513051e51edf2519a8d2abd891b1ae4d6e2ef500000801ca07dc6e9be46e918a4b005eef16c337faaa6bbfcb3f6570bdbd3a2b6e52b81be34a058b6ffc714e5272ad359f4939a1906bb19f709e6212e0a205edebed59aa9f5b0",
      "networkId": 0,
      "chainId": 0
    },
    {
      "hash": "0x9b5650aa49eb2113ac9748a151d2558f308ff5ffc4db065225170810a85fde33",
      "blockHash": "0xf1bee0be1dff577c9e8a79ce97927c500bbc2b345df34755b4f0aacc60e4801b",
      "blockNumber": 90879,
      "transactionIndex": 1,
      "confirmations": null,
      "from": "0x32Be343B94f860124dC4fEe278FDCBD38C102D88",
      "gasPrice": {
        "_hex": "0xd0525f231"
      },
      "gasLimit": {
        "_hex": "0x5208"
      },
      "to": "0x2e32A53e7972001B996D994722B1ab3dD869949d",
      "value": {
        "_hex": "0x132806ea7e4ac400"
      },
      "nonce": 865,
      "data": "0x",
      "r": "0xcd17b245437e2d20111717a9036d061eef0d921b447840f8b0d17edf8d4220fa",
      "s": "0x2b8e13d8238a261a2454c016ad38bcdf3bdfc23b6dfad1bfc5667924be6616ff",
      "v": 27,
      "creates": null,
      "raw": "0xf86e820361850d0525f231825208942e32a53e7972001b996d994722b1ab3dd869949d88132806ea7e4ac400801ba0cd17b245437e2d20111717a9036d061eef0d921b447840f8b0d17edf8d4220faa02b8e13d8238a261a2454c016ad38bcdf3bdfc23b6dfad1bfc5667924be6616ff",
      "networkId": 0,
      "chainId": 0
    }
  ]
}