{
  "hash": "0x12613405bd4a8db75fc4401eeb72c8954f5b4f69951fa1de54f816f48000c2ac",
  "parentHash": "0x8965598e76524680aa4b864d5db3632742b84ccb9caff8f3ea295a828bbb029d",
  "number": 119415,
  "timestamp": 1440142475,
  "nonce": "0x5352bce2f78fd792",
  "difficulty": 4400889242567,
  "gasLimit": {
    "_hex": "0x2fefd8"
  },
  "gasUsed": {
    "_hex": "0x14820"
  },
  "miner": "0x52bc44d5378309EE2abF1539BF71dE1b7d7bE3b5",
  "extraData": "0xd783010002844765746887676f312e342e32856c696e7578",
  "transactions": [
    {
      "hash": "0x8fe61e8499d1193f1980dde6d75972db07efa198f00144943a54404fc3bba38c",
      "blockHash": "0x12613405bd4a8db75fc4401eeb72c8954f5b4f69951fa1de54f816f48000c2ac",
      "blockNumber": 119415,
      "transactionIndex": 0,
      "confirmations": null,
      "from": "0x52bc44d5378309EE2abF1539BF71dE1b7d7bE3b5",
      "gasPrice": {
        "_hex": "0xba43b7400"
      },
      "gasLimit": {
        "_hex": "0x61a8"
      },
      "to": "0xC3fe64D1af00F0d9c324E4387EF7533f7D788e95",
      "value": {
        "_hex": "0x50eb070160b3d900"
      },
      "nonce": 459,
      "data": "0x",
      "r": "0x3396468fc25938cf63b5c489d4dc8e784ebea4c0453bd7de84ae579737ce402c",
      "s": "0x28477e153766a683b8bc863b6006f735439a3ee8f6cf31cb4dfc3c64801325e8",
      "v": 27,
      "creates": null,
      "raw": "0xf86e8201cb850ba43b74008261a894c3fe64d1af00f0d9c324e4387ef7533f7d788e958850eb070160b3d900801ba03396468fc25938cf63b5c489d4dc8e784ebea4c0453bd7de84ae579737ce402ca028477e153766a683b8bc863b6006f735439a3ee8f6cf31cb4dfc3c64801325e8",
      "networkId": 0,
      "chainId": 0
    },
    {
      "hash": "0xf261bba4ddd1468f2aac50d9dedd83757893fe75c266a48882831572224bb5bf",
      "blockHash": "0x12613405bd4a8db75fc4401eeb72c8954f5b4f69951fa1de54f816f48000c2ac",
      "blockNumber": 119415,
      "transactionIndex": 1,
      "confirmations": null,
      "from": "0x52bc44d5378309EE2abF1539BF71dE1b7d7bE3b5",
      "gasPrice": {
        "_hex": "0xba43b7400"
      },
      "gasLimit": {
        "_hex": "0x61a8"
      },
      "to": "0x689DACb52e18F08d8DFCDd62415c7776aEd8fB89",
      "value": {
        "_hex": "0xb8768b0edc83680"
      },
      "nonce": 460,
      "data": "0x",
      "r": "0x7007077d53a8f602e150e368b228256e0efcabe4160b9bbf7b8f4a30a7dcb175",
      "s": "0x73a489f675a3603827d8c2dbbf0bb3b9151330359e6be9e7e2b61dd5ddb1dd49",
      "v": 28,
      "creates": null,
      "raw": "0xf86e8201cc850ba43b74008261a894689dacb52e18f08d8dfcdd62415c7776aed8fb89880b8768b0edc83680801ca07007077d53a8f602e150e368b228256e0efcabe4160b9bbf7b8f4a30a7dcb175a073a489f675a3603827d8c2dbbf0bb3b9151330359e6be9e7e2b61dd5ddb1dd49",
      "networkId": 0,
      "chainId": 0
    },
    {
      "hash": "0x4302cf9dbe02a6a8a5e156828cdc9c84aac8f64ecdb9ce1d11ad61709809d125",
      "blockHash": "0x12613405bd4a8db75fc4401eeb72c8954f5b4f69951fa1de54f816f48000c2ac",
      "blockNumber": 119415,
      "transactionIndex": 2,
      "confirmations": null,
      "from": "0x52bc44d5378309EE2abF1539BF71dE1b7d7bE3b5",
      "gasPrice": {
        "_hex": "0xba43b7400"
      },
      "gasLimit": {
        "_hex": "0x61a8"
      },
      "to": "0x2927CD65394568Daa1A93bF8e9cf2D956e1020cb",
      "value": {
        "_hex": "0x23ffff07cc87c980"
      },
      "nonce": 461,
      "data": "0x",
      "r": "0x95a1c0bf95c4b153dfeb04737d445155084e5cbc6cdacba6ea4437412141b863",
      "s": "0x315ee6ab79fba00cc8b4644c052b06d6386a157667fdfb673f267939ec3fdd90",
      "v": 27,
      "creates": null,
      "raw": "0xf86e8201cd850ba43b74008261a8942927cd65394568daa1a93bf8e9cf2d956e1020cb8823ffff07cc87c980801ba095a1c0bf95c4b153dfeb04737d445155084e5cbc6cdacba6ea4437412141b863a0315ee6ab79fba00cc8b4644c052b06d6386a157667fdfb673f267939ec3fdd90",
      "networkId": 0,
      "chainId": 0
    },
    {
      "hash": "0x340203255ec72386c66c74e172ef1b8bdefafebf6c416c906b4eb881ca02cae9",
      "blockHash": "0x12613405bd4a8db75fc4401eeb72c8954f5b4f69951fa1de54f816f48000c2ac",
      "blockNumber": 119415,
      "transactionIndex": 3,
      "confirmations": null,
      "from": "0xc7Dda420b6e858441b9Ea42B762dF14C59552fbb",
      "gasPrice": {
        "_hex": "0xba43b7400"
      },
      "gasLimit": {
        "_hex": "0x5208"
      },
      "to": "0x32Be343B94f860124dC4fEe278FDCBD38C102D88",
      "value": {
        "_hex": "0x4af71bf356b67400"
      },
      "nonce": 8,
      "data": "0x",
      "r": "0x1d8429e5a15772ccec39cf84dfc449d5a4fbf22baa9492408bbb58e41e1bb998",
      "s": "0x05b68e394b1313582ce5f150b1d4ef2e9a18c008493aca7787e910b4db8f12c7",
      "v": 28,
      "creates": null,
      "raw": "0xf86c08850ba43b74008252089432be343b94f860124dc4fee278fdcbd38c102d88884af71bf356b67400801ca01d8429e5a15772ccec39cf84dfc449d5a4fbf22baa9492408bbb58e41e1bb998a005b68e394b1313582ce5f150b1d4ef2e9a18c008493aca7787e910b4db8f12c7",
      "networkId": 0,
      "chainId": 0
    }
  ]
}