{
  "hash": "0xbf34c83ca99585e2f837fc6f5b64d014404885269412a7ff7b133641480755cc",
  "parentHash": "0x51839d66957b34c3dbfb120a5b49e8320b6174e41d75f1d6ad5727355fd10e6b",
  "number": 96254,
  "timestamp": 1439737366,
  "nonce": "0x26d69254bb994235",
  "difficulty": 3678255927468,
  "gasLimit": {
    "_hex": "0x2fefd8"
  },
  "gasUsed": {
    "_hex": "0x5208"
  },
  "miner": "0xe6A7a1d47ff21B6321162AEA7C6CB457D5476Bca",
  "extraData": "0x476574682f76312e302e312d38326566323666362f6c696e75782f676f312e34",
  "transactions": [
    {
      "hash": "0x55339862098b9dcb3ccd552d491619172926eb77070bb9e2b5b8b1d1360acc80",
      "blockHash": "0xbf34c83ca99585e2f837fc6f5b64d014404885269412a7ff7b133641480755cc",
      "blockNumber": 96254,
      "transactionIndex": 0,
      "confirmations": null,
      "from": "0x2910543Af39abA0Cd09dBb2D50200b3E800A63D2",
      "gasPrice": {
        "_hex": "0xd370fbb7a"
      },
      "gasLimit": {
        "_hex": "0x5208"
      },
      "to": "0x56011d6b57A70c27F7cc294905A5DdA65BfBd154",
      "value": {
        "_hex": "0x70c0b03c1c8e78000"
      },
      "nonce": 906,
      "data": "0x",
      "r": "0xf4b87db2cb5c4f762a3adc21411c86042d2e66fbccdf890b2a9b2ea7ed621f21",
      "s": "0x2818d24b40aaa13dd26487b4bcf8d79a3e9459c9dee852dc9f4816272649e790",
      "v": 27,
      "creates": null,
      "raw": "0xf86f82038a850d370fbb7a8252089456011d6b57a70c27f7cc294905a5dda65bfbd15489070c0b03c1c8e78000801ba0f4b87db2cb5c4f762a3adc21411c86042d2e66fbccdf890b2a9b2ea7ed621f21a02818d24b40aaa13dd26487b4bcf8d79a3e9459c9dee852dc9f4816272649e790",
      "networkId": 0,
      "chainId": 0
    }
  ]
}