{
  "hash": "0x5a5eb942fae290499fc0ad876b7e1bcd8e635d952566a7a8c4dcca1bce50af28",
  "parentHash": "0xadbd99f095465aea7866f06b9d65ad2bcc7dd2681845d4cafb978b51fdb4ecf7",
  "number": 121902,
  "timestamp": 1440184623,
  "nonce": "0xce62e3c6ff78b870",
  "difficulty": 4479791724293,
  "gasLimit": {
    "_hex": "0x2fefd8"
  },
  "gasUsed": {
    "_hex": "0xa410"
  },
  "miner": "0xf927a40C8B7F6E07c5af7FA2155B4864a4112B13",
  "extraData": "0x476574682f76312e302e322f6c696e75782f676f312e342e32",
  "transactions": [
    {
      "hash": "0xc2deef7d997adef82c259cb2fbd334c7c35b0a5903885496601370cf34bba402",
      "blockHash": "0x5a5eb942fae290499fc0ad876b7e1bcd8e635d952566a7a8c4dcca1bce50af28",
      "blockNumber": 121902,
      "transactionIndex": 0,
      "confirmations": null,
      "from": "0x5BeBc02e4CDF3e92B5a2947CfD1430c4EBBa4039",
      "gasPrice": {
        "_hex": "0xce1ec4c1e"
      },
      "gasLimit": {
        "_hex": "0x5208"
      },
      "to": "0x32Be343B94f860124dC4fEe278FDCBD38C102D88",
      "value": {
        "_hex": "0x427a6ce3f5d9a000"
      },
      "nonce": 10,
      "data": "0x",
      "r": "0xd0ed8e3e359e08bf7f9b94e57c8b8766b61c9ddfd7f7642aa4eb34b705ad22f0",
      "s": "0x242fa567293c2688bb87d8c1345c312aaa59b2b4045c2e8efb21800197d9bf8d",
      "v": 28,
      "creates": null,
      "raw": "0xf86c0a850ce1ec4c1e8252089432be343b94f860124dc4fee278fdcbd38c102d8888427a6ce3f5d9a000801ca0d0ed8e3e359e08bf7f9b94e57c8b8766b61c9ddfd7f7642aa4eb34b705ad22f0a0242fa567293c2688bb87d8c1345c312aaa59b2b4045c2e8efb21800197d9bf8d",
      "networkId": 0,
      "chainId": 0
    },
    {
      "hash": "0x09cda44551a92dea54bbd01d3ab11e1c4be8aef7921ff5c240dba240bb2f59dd",
      "blockHash": "0x5a5eb942fae290499fc0ad876b7e1bcd8e635d952566a7a8c4dcca1bce50af28",
      "blockNumber": 121902,
      "transactionIndex": 1,
      "confirmations": null,
      "from": "0x037658E13e294088Cfd16A534b9C1F3B37282eB2",
      "gasPrice": {
        "_hex": "0xce1ec4c1e"
      },
      "gasLimit": {
        "_hex": "0x5208"
      },
      "to": "0x32Be343B94f860124dC4fEe278FDCBD38C102D88",
      "value": {
        "_hex": "0x2c10c296bee8a400"
      },
      "nonce": 10,
      "data": "0x",
      "r": "0x91bc206dedb2c64e16cebd9edb069a12b2fdcd18d1fd54eee767ebbb1c69be01",
      "s": "0x259bad8055876019685ffb1be934df97452d689dfefb59f110039998670f1bad",
      "v": 28,
      "creates": null,
      "raw": "0xf86c0a850ce1ec4c1e8252089432be343b94f860124dc4fee278fdcbd38c102d88882c10c296bee8a400801ca091bc206dedb2c64e16cebd9edb069a12b2fdcd18d1fd54eee767ebbb1c69be01a0259bad8055876019685ffb1be934df97452d689dfefb59f110039998670f1bad",
      "networkId": 0,
      "chainId": 0
    }
  ]
}