{
  "hash": "0x53b119d85e094c8a95f14e0866361bb2584e8dada0e435bdba93c9b940e22ff2",
  "parentHash": "0xafed8a11048805f7659ba4582af446a96bcfde4f8cd48fbd11ffd3854ab79755",
  "number": 98781,
  "timestamp": 1439778982,
  "nonce": "0x9638cc7b6e2e8a97",
  "difficulty": 3847977266924,
  "gasLimit": {
    "_hex": "0x2fefd8"
  },
  "gasUsed": {
    "_hex": "0x5208"
  },
  "miner": "0xbb7B8287f3F0a933474a79eAe42CBCa977791171",
  "extraData": "0x476574682f4c5649562f76312e302e312f6c696e75782f676f312e342e32",
  "transactions": [
    {
      "hash": "0x3a112720933c9836c7a40cb8ad8f483d897447fb5a3f59cabdcd09f83f5da8af",
      "blockHash": "0x53b119d85e094c8a95f14e0866361bb2584e8dada0e435bdba93c9b940e22ff2",
      "blockNumber": 98781,
      "transactionIndex": 0,
      "confirmations": null,
      "from": "0x120A270bbC009644e35F0bB6ab13f95b8199c4ad",
      "gasPrice": {
        "_hex": "0xd1d8488f0"
      },
      "gasLimit": {
        "_hex": "0x15f90"
      },
      "to": "0xF7AA2cF13Dc689B51E6D81149e11b2F24ea3Ca3e",
      "value": {
        "_hex": "0x4085a05558a863800"
      },
      "nonce": 662,
      "data": "0x",
      "r": "0x516333be065f89b03a2e68c9cecf8b101986565ca339ff0e2cfc06404ed10520",
      "s": "0x5ec6a716e69e2528bacda92d351a2720fea37f794f331ea9466ea830e798188e",
      "v": 28,
      "creates": null,
      "raw": "0xf870820296850d1d8488f083015f9094f7aa2cf13dc689b51e6d81149e11b2f24ea3ca3e8904085a05558a863800801ca0516333be065f89b03a2e68c9cecf8b101986565ca339ff0e2cfc06404ed10520a05ec6a716e69e2528bacda92d351a2720fea37f794f331ea9466ea830e798188e",
      "networkId": 0,
      "chainId": 0
    }
  ]
}