{
  "hash": "0x632b3411e0bda41506910818356b51b50ecdcd4e94ec6ce4b2631272d05776a5",
  "parentHash": "0xb6b9b0135dc9d354ec55be0027c45c3cb1802b9ae826fe1fa62adbecc0ecb2b4",
  "number": 102510,
  "timestamp": 1439839178,
  "nonce": "0xe62597e4c59692e0",
  "difficulty": 3962551960348,
  "gasLimit": {
    "_hex": "0x2fefd8"
  },
  "gasUsed": {
    "_hex": "0xf87c"
  },
  "miner": "0xe6A7a1d47ff21B6321162AEA7C6CB457D5476Bca",
  "extraData": "0x476574682f76312e302e312d38326566323666362f6c696e75782f676f312e34",
  "transactions": [
    {
      "hash": "0x65a435c5631b41533be493b56023895df6c85ae44d6c4957a290c34927bba959",
      "blockHash": "0x632b3411e0bda41506910818356b51b50ecdcd4e94ec6ce4b2631272d05776a5",
      "blockNumber": 102510,
      "transactionIndex": 0,
      "confirmations": null,
      "from": "0x8D795c5F4a5689AD62da961671F028065286d554",
      "gasPrice": {
        "_hex": "0x110c8f7d8de"
      },
      "gasLimit": {
        "_hex": "0xc350"
      },
      "to": "0x2910543Af39abA0Cd09dBb2D50200b3E800A63D2",
      "value": {
        "_hex": "0x1db3c75a0c64470000"
      },
      "nonce": 1,
      "data": "0x454e474d4d45564352",
      "r": "0x14feba99b1d5b02984b759975e1cafe0423261af79a70a6390e153cab549b425",
      "s": "0xa5d952ce172eb172503d2302a4b2bbc602164e73a5c6a99fe870ce0b95608b48",
      "v": 28,
      "creates": null,
      "raw": "0xf87701860110c8f7d8de82c350942910543af39aba0cd09dbb2d50200b3e800a63d2891db3c75a0c6447000089454e474d4d455643521ca014feba99b1d5b02984b759975e1cafe0423261af79a70a6390e153cab549b425a0a5d952ce172eb172503d2302a4b2bbc602164e73a5c6a99fe870ce0b95608b48",
      "networkId": 0,
      "chainId": 0
    },
    {
      "hash": "0xf8c27fb67286293162e38f817ee46de8da2df55797bd120bde5381a1c0972609",
      "blockHash": "0x632b3411e0bda41506910818356b51b50ecdcd4e94ec6ce4b2631272d05776a5",
      "blockNumber": 102510,
      "transactionIndex": 1,
      "confirmations": null,
      "from": "0x7C102f1558D7A6E6fE89121bc98749c4eD0D0995",
      "gasPrice": {
        "_hex": "0xd5a6889a2"
      },
      "gasLimit": {
        "_hex": "0x5208"
      },
      "to": "0x32Be343B94f860124dC4fEe278FDCBD38C102D88",
      "value": {
        "_hex": "0x4298c92fc6d8b400"
      },
      "nonce": 2,
      "data": "0x",
      "r": "0x8ceb28a7547b6d7087a0b438c354c2497786d0c317ebc1b5e7f61c517ee87a30",
      "s": "0x6d27d45466a0f5f2bc0eabc21e1b0c40cd926a110395878fd19c19f1dcddb043",
      "v": 27,
      "creates": null,
      "raw": "0xf86c02850d5a6889a28252089432be343b94f860124dc4fee278fdcbd38c102d88884298c92fc6d8b400801ba08ceb28a7547b6d7087a0b438c354c2497786d0c317ebc1b5e7f61c517ee87a30a06d27d45466a0f5f2bc0eabc21e1b0c40cd926a110395878fd19c19f1dcddb043",
      "networkId": 0,
      "chainId": 0
    },
    {
      "hash": "0x384ca87d1e82efc2737a08a81c96bf878b0c4fb0aed6d23a1fb350b9d1d39b46",
      "blockHash": "0x632b3411e0bda41506910818356b51b50ecdcd4e94ec6ce4b2631272d05776a5",
      "blockNumber": 102510,
      "transactionIndex": 2,
      "confirmations": null,
      "from": "0xA143616A882230de7571d01f1916F0A781d6480a",
      "gasPrice": {
        "_hex": "0xd5a6889a2"
      },
      "gasLimit": {
        "_hex": "0x5208"
      },
      "to": "0x32Be343B94f860124dC4fEe278FDCBD38C102D88",
      "value": {
        "_hex": "0x2cfe7a4f9eec440000"
      },
      "nonce": 7,
      "data": "0x",
      "r": "0xef725b9cc62e4e4e1075662126a86f5fd9ea07399b1c3b6912c73dd3cafd6d28",
      "s": "0x3c0a62a33f11e93144e739976edd09748a12337efbd3456bdf404f1eca5c2d1d",
      "v": 28,
      "creates": null,
      "raw": "0xf86d07850d5a6889a28252089432be343b94f860124dc4fee278fdcbd38c102d88892cfe7a4f9eec440000801ca0ef725b9cc62e4e4e1075662126a86f5fd9ea07399b1c3b6912c73dd3cafd6d28a03c0a62a33f11e93144e739976edd09748a12337efbd3456bdf404f1eca5c2d1d",
      "networkId": 0,
      "chainId": 0
    }
  ]
}