{
  "hash": "0x9634ac3f5792076f3140cc2e3aff80fe2b13cf6281b78cb4760627c692815ccf",
  "parentHash": "0x716ea140fe16aac9d49eef25942a5aa61d5de477e68aecdafcfd16e5814f3920",
  "number": 117488,
  "timestamp": 1440110406,
  "nonce": "0xcbe00d160a11596e",
  "difficulty": 4302030484076,
  "gasLimit": {
    "_hex": "0x2fefd8"
  },
  "gasUsed": {
    "_hex": "0x1bdbe"
  },
  "miner": "0x52bc44d5378309EE2abF1539BF71dE1b7d7bE3b5",
  "extraData": "0xd783010002844765746887676f312e342e32856c696e7578",
  "transactions": [
    {
      "hash": "0x110a2c5d71db5725daee09780356a8a3d0aec399c4761c7125b25844c216172f",
      "blockHash": "0x9634ac3f5792076f3140cc2e3aff80fe2b13cf6281b78cb4760627c692815ccf",
      "blockNumber": 117488,
      "transactionIndex": 0,
      "confirmations": null,
      "from": "0x7b43C7eea8D62355B0a8A81da081C6446B33e9e0",
      "gasPrice": {
        "_hex": "0xba43b7400"
      },
      "gasLimit": {
        "_hex": "0x249f0"
      },
      "to": "0xE28e72FCf78647ADCe1F1252F240bbfaebD63BcC",
      "value": {
        "_hex": "0xde0b6b3a7640000"
      },
      "nonce": 0,
      "data": "0x45466f3a",
      "r": "0x3e5ab9a7c2a341fae692b3715e6f4e43ce91bd72c174a3d254e1ba1f6ab6a210",
      "s": "0x69f20136887c4d9d5bb5d9d5ef74f11015d1ffc9493fd3dcd89ebda68ad540ea",
      "v": 27,
      "creates": null,
      "raw": "0xf87180850ba43b7400830249f094e28e72fcf78647adce1f1252f240bbfaebd63bcc880de0b6b3a76400008445466f3a1ba03e5ab9a7c2a341fae692b3715e6f4e43ce91bd72c174a3d254e1ba1f6ab6a210a069f20136887c4d9d5bb5d9d5ef74f11015d1ffc9493fd3dcd89ebda68ad540ea",
      "networkId": 0,
      "chainId": 0
    }
  ]
}