{
  "hash": "0x89c181f9d8cf3e0b75423311a9d5aabc6a4c8b42723e8834b787e80cf3e34c6f",
  "parentHash": "0x6795c28a111212713e56bf94720847981662c7a810dee2cc2ad42b6ec55c96a3",
  "number": 110848,
  "timestamp": 1439980506,
  "nonce": "0xa747fe26f967c271",
  "difficulty": 4403235474903,
  "gasLimit": {
    "_hex": "0x2fefd8"
  },
  "gasUsed": {
    "_hex": "0xa410"
  },
  "miner": "0xbb7B8287f3F0a933474a79eAe42CBCa977791171",
  "extraData": "0x476574682f4c5649562f76312e302e312f6c696e75782f676f312e342e32",
  "transactions": [
    {
      "hash": "0x99e4ab5afe431f78f3fccd720cf9c7c3f3208d9ad38dc17205d78ee533f6fe5e",
      "blockHash": "0x89c181f9d8cf3e0b75423311a9d5aabc6a4c8b42723e8834b787e80cf3e34c6f",
      "blockNumber": 110848,
      "transactionIndex": 0,
      "confirmations": null,
      "from": "0xFc8B1B712E10a89E87176215AED8352b323B7265",
      "gasPrice": {
        "_hex": "0xce2bf9c17"
      },
      "gasLimit": {
        "_hex": "0x5208"
      },
      "to": "0x32Be343B94f860124dC4fEe278FDCBD38C102D88",
      "value": {
        "_hex": "0x54ea85029c99e400"
      },
      "nonce": 1,
      "data": "0x",
      "r": "0x6c215819f2a3885da12df7f47a2897b1e1421e567f00fbb320dcb0e30030eb16",
      "s": "0x623e9a95a95141db0f4d665dcca9c84c74aa89d36aaf9f2d616f6b9977227b08",
      "v": 28,
      "creates": null,
      "raw": "0xf86c01850ce2bf9c178252089432be343b94f860124dc4fee278fdcbd38c102d888854ea85029c99e400801ca06c215819f2a3885da12df7f47a2897b1e1421e567f00fbb320dcb0e30030eb16a0623e9a95a95141db0f4d665dcca9c84c74aa89d36aaf9f2d616f6b9977227b08",
      "networkId": 0,
      "chainId": 0
    },
    {
      "hash": "0x930f29648f8ddb6cd083fa0246598ec0f36b2222ff4163d80f70cdd23e281799",
      "blockHash": "0x89c181f9d8cf3e0b75423311a9d5aabc6a4c8b42723e8834b787e80cf3e34c6f",
      "blockNumber": 110848,
      "transactionIndex": 1,
      "confirmations": null,
      "from": "0x2071130408d9aAf3D5D65953118c3FE37aCB8D04",
      "gasPrice": {
        "_hex": "0xba43b7400"
      },
      "gasLimit": {
        "_hex": "0x5208"
      },
      "to": "0xC47Aaa860008be6f65B58c6C6E02a84e666EfE31",
      "value": {
        "_hex": "0xa684d573abac6000"
      },
      "nonce": 9,
      "data": "0x",
      "r": "0xa0f6700afeae93e5148814bd47369881828e328f842e536a54d83b15123fbe50",
      "s": "0x086f14ca4c7702f5d92b4e5965edd22002fb29d299c7cdfaef952a7d1dfb81b2",
      "v": 28,
      "creates": null,
      "raw": "0xf86c09850ba43b740082520894c47aaa860008be6f65b58c6c6e02a84e666efe3188a684d573abac6000801ca0a0f6700afeae93e5148814bd47369881828e328f842e536a54d83b15123fbe50a0086f14ca4c7702f5d92b4e5965edd22002fb29d299c7cdfaef952a7d1dfb81b2",
      "networkId": 0,
      "chainId": 0
    }
  ]
}