{
  "hash": "0x09e0e06eb50e789c058956becdec8f638cb0c3a01720a0731e18edce01599b3e",
  "parentHash": "0x46ea14f31ed322dab11b1bd3f6e4bffa77391890b311b0a556177ea9a04d0c39",
  "number": 110877,
  "timestamp": 1439981109,
  "nonce": "0xf98b6bfd4f17a5fe",
  "difficulty": 4396774944298,
  "gasLimit": {
    "_hex": "0x2fefd5"
  },
  "gasUsed": {
    "_hex": "0x5208"
  },
  "miner": "0x5B034036Ae40b7C5d7bbbF041D07b7f76E200039",
  "extraData": "0x476574682f76312e302e312f77696e646f77732f676f312e342e32",
  "transactions": [
    {
      "hash": "0x528107168da520773f96e7848a2a9fd0552cdbad575de392057af673610829cc",
      "blockHash": "0x09e0e06eb50e789c058956becdec8f638cb0c3a01720a0731e18edce01599b3e",
      "blockNumber": 110877,
      "transactionIndex": 0,
      "confirmations": null,
      "from": "0xD79835E404FB86BF845fbA090d6bA25e0C8866a6",
      "gasPrice": {
        "_hex": "0xd641f460d"
      },
      "gasLimit": {
        "_hex": "0x15f90"
      },
      "to": "0x3ec1e84c020b83fF4A0Fedf5622D2d58530Fad83",
      "value": {
        "_hex": "0x25f273933db5700000"
      },
      "nonce": 4,
      "data": "0x",
      "r": "0x63deeb51834ea31cfa77c7236fe2a611eea469a5f284b37b028b806916a721c7",
      "s": "0x2dd2a6cece690f616ef65cacf7edbde4c85b9c03a39c7ac09438d6f8b3be6864",
      "v": 27,
      "creates": null,
      "raw": "0xf86e04850d641f460d83015f90943ec1e84c020b83ff4a0fedf5622d2d58530fad838925f273933db5700000801ba063deeb51834ea31cfa77c7236fe2a611eea469a5f284b37b028b806916a721c7a02dd2a6cece690f616ef65cacf7edbde4c85b9c03a39c7ac09438d6f8b3be6864",
      "networkId": 0,
      "chainId": 0
    }
  ]
}