{
  "hash": "0xe99c38d1da7ae52a7dc4ffd286aaad65b5e70be1192de3e562681d263442dd5f",
  "parentHash": "0xa74ab7a22f6568b0c6568e2f19182a208e9150909ad7be4471b7a05db0a577cf",
  "number": 85242,
  "timestamp": 1439560513,
  "nonce": "0xbbf3bb6b72853458",
  "difficulty": 2755812602045,
  "gasLimit": {
    "_hex": "0x2fefd8"
  },
  "gasUsed": {
    "_hex": "0xf618"
  },
  "miner": "0x47ff6576639c2e94762eA5443978D7681C0E78DC",
  "extraData": "0x476574682f76312e302e312f6c696e75782f676f312e342e32",
  "transactions": [
    {
      "hash": "0x6a1d5cfdfb9e043f6de8b15a1e8cc388e0f40ea8cb2952fdc6adb6f2c9861c47",
      "blockHash": "0xe99c38d1da7ae52a7dc4ffd286aaad65b5e70be1192de3e562681d263442dd5f",
      "blockNumber": 85242,
      "transactionIndex": 0,
      "confirmations": null,
      "from": "0x02b2e758D92E953DfC0aDC59BA237528E37606F5",
      "gasPrice": {
        "_hex": "0xd69fe86f4"
      },
      "gasLimit": {
        "_hex": "0x15f90"
      },
      "to": "0xCDA330c8160f0c90B8B528C6Db267acc17381818",
      "value": {
        "_hex": "0x141d36e22554f0000"
      },
      "nonce": 0,
      "data": "0x",
      "r": "0x7b7540fe7e17dce4abe268bb4de33810daf5b8a38f35d53c06ab97b01d18b704",
      "s": "0x3943dcd470c6d55a5152eb7f8529afe5d9623702b3d5b29d4167b9b912c9c032",
      "v": 27,
      "creates": null,
      "raw": "0xf86e80850d69fe86f483015f9094cda330c8160f0c90b8b528c6db267acc17381818890141d36e22554f0000801ba07b7540fe7e17dce4abe268bb4de33810daf5b8a38f35d53c06ab97b01d18b704a03943dcd470c6d55a5152eb7f8529afe5d9623702b3d5b29d4167b9b912c9c032",
      "networkId": 0,
      "chainId": 0
    },
    {
      "hash": "0x345fd1f783c5f08d5fad8f837f32781e50f2c5b78c9e41103b02d05fac95b0eb",
      "blockHash": "0xe99c38d1da7ae52a7dc4ffd286aaad65b5e70be1192de3e562681d263442dd5f",
      "blockNumber": 85242,
      "transactionIndex": 1,
      "confirmations": null,
      "from": "0x2910543Af39abA0Cd09dBb2D50200b3E800A63D2",
      "gasPrice": {
        "_hex": "0xcbf81fc5c"
      },
      "gasLimit": {
        "_hex": "0x5208"
      },
      "to": "0x2f86ba8019945f39edE131D38d4d8780884DA553",
      "value": {
        "_hex": "0x1b1ad31369b76f8000"
      },
      "nonce": 599,
      "data": "0x",
      "r": "0x57285b13d66b742adf2db63f641eb6e74a7169bb112f21771a59ac2cb4c58c26",
      "s": "0x30a0f9a750b839a95e3a0cdd0d540fc5718e990c26c3e63ffe20815c6794940a",
      "v": 27,
      "creates": null,
      "raw": "0xf86f820257850cbf81fc5c825208942f86ba8019945f39ede131d38d4d8780884da553891b1ad31369b76f8000801ba057285b13d66b742adf2db63f641eb6e74a7169bb112f21771a59ac2cb4c58c26a030a0f9a750b839a95e3a0cdd0d540fc5718e990c26c3e63ffe20815c6794940a",
      "networkId": 0,
      "chainId": 0
    },
    {
      "hash": "0x3af07c790367eeb2732e329e7698ca79cc4176a10e42e0c7f5cf06246f87d267",
      "blockHash": "0xe99c38d1da7ae52a7dc4ffd286aaad65b5e70be1192de3e562681d263442dd5f",
      "blockNumber": 85242,
      "transactionIndex": 2,
      "confirmations": null,
      "from": "0x2910543Af39abA0Cd09dBb2D50200b3E800A63D2",
      "gasPrice": {
        "_hex": "0xcbf81fc5c"
      },
      "gasLimit": {
        "_hex": "0x5208"
      },
      "to": "0xB67b6BB30Bb68ED96f23f1fB8C6Da01B3C37F6D4",
      "value": {
        "_hex": "0xdcef33a6f838000"
      },
      "nonce": 600,
      "data": "0x",
      "r": "0xd987fdf25b5ce27ecb2ba9c511afbe05100f46b0df4818c2f7e13c7360db8c1d",
      "s": "0x52798b0eca47e2dbffdccd14fea3759b82904f5137ab538038f7c3434267588a",
      "v": 27,
      "creates": null,
      "raw": "0xf86e820258850cbf81fc5c82520894b67b6bb30bb68ed96f23f1fb8c6da01b3c37f6d4880dcef33a6f838000801ba0d987fdf25b5ce27ecb2ba9c511afbe05100f46b0df4818c2f7e13c7360db8c1da052798b0eca47e2dbffdccd14fea3759b82904f5137ab538038f7c3434267588a",
      "networkId": 0,
      "chainId": 0
    }
  ]
}