{
  "hash": "0x23ba1480b6df959cf6a0f9bc08ed63ad9a093d57760281f9d5dd3e0efaa06c13",
  "parentHash": "0x3a04acd31df40151fe2c3a580e0a1535402ffa0985211901314f9bb444efac04",
  "number": 95513,
  "timestamp": 1439725295,
  "nonce": "0x06da562c8c32b3f4",
  "difficulty": 3616248621364,
  "gasLimit": {
    "_hex": "0x2fefd8"
  },
  "gasUsed": {
    "_hex": "0x5208"
  },
  "miner": "0xC759dc67E0c3816fdC56A2f5bb29920fc07e767D",
  "extraData": "0x476574682f76312e302e312f77696e646f77732f676f312e342e32",
  "transactions": [
    {
      "hash": "0x7154edaf22816aeefb5beffc9bebc27772d2337dd3cc774921c6664a2b38df30",
      "blockHash": "0x23ba1480b6df959cf6a0f9bc08ed63ad9a093d57760281f9d5dd3e0efaa06c13",
      "blockNumber": 95513,
      "transactionIndex": 0,
      "confirmations": null,
      "from": "0xbAeF66124E137Eb5eE0DE1BbAB5a30002508a1bf",
      "gasPrice": {
        "_hex": "0xe15d17769"
      },
      "gasLimit": {
        "_hex": "0x15f90"
      },
      "to": "0xAF17A4ab5d6B10055Fc1eB1BFaCcbDe69B83aF76",
      "value": {
        "_hex": "0x31708ae0045440000"
      },
      "nonce": 2,
      "data": "0x",
      "r": "0x7b8391097eec2c57363d37a3cd53def0d7db2b1d83dff30b35fd1d878d77e56b",
      "s": "0x7e7def0bf46b27ece6e13cc495dfbccd399fbd759cb9e1d72aa8b2f4f215f8fb",
      "v": 28,
      "creates": null,
      "raw": "0xf86e02850e15d1776983015f9094af17a4ab5d6b10055fc1eb1bfaccbde69b83af7689031708ae0045440000801ca07b8391097eec2c57363d37a3cd53def0d7db2b1d83dff30b35fd1d878d77e56ba07e7def0bf46b27ece6e13cc495dfbccd399fbd759cb9e1d72aa8b2f4f215f8fb",
      "networkId": 0,
      "chainId": 0
    }
  ]
}