{
  "hash": "0x10f06d141e208f45d627c51ef3b103e947b1a56f82699308ee1b958b001f8e82",
  "parentHash": "0x3fc51978a7da65a966e5669c72f2ead27f0add11fb4c665d94748ce893ff8ebb",
  "number": 49351,
  "timestamp": 1438972278,
  "nonce": "0xff3fdbec7bafd4a7",
  "difficulty": 1473469394061,
  "gasLimit": {
    "_hex": "0x2dff9"
  },
  "gasUsed": {
    "_hex": "0x5208"
  },
  "miner": "0xf927a40C8B7F6E07c5af7FA2155B4864a4112B13",
  "extraData": "0x476574682f76312e302e312f6c696e75782f676f312e342e32",
  "transactions": [
    {
      "hash": "0x33d44a69d6a1203deb7e0be91eaf2c708a530f3abc2f096abec8ee4665ca72d0",
      "blockHash": "0x10f06d141e208f45d627c51ef3b103e947b1a56f82699308ee1b958b001f8e82",
      "blockNumber": 49351,
      "transactionIndex": 0,
      "confirmations": null,
      "from": "0x6DA3bF9AC75f2892b8C1FB8aDD8d27a199104dE0",
      "gasPrice": {
        "_hex": "0xba43b7400"
      },
      "gasLimit": {
        "_hex": "0x5b04"
      },
      "to": "0xb82415923664590236aea1c1912955E7653B9FCa",
      "value": {
        "_hex": "0x56bc75e2d63100000"
      },
      "nonce": 2,
      "data": "0x",
      "r": "0x898fe53729ecf62cb9ce59564fc63f12d7ee655af890b262b233d2f0ef75cc2e",
      "s": "0x9e4deada2789c1b5f2d212c7ec8bb39b58b2b4df804eb02e0a3a0463240ebc67",
      "v": 28,
      "creates": null,
      "raw": "0xf86d02850ba43b7400825b0494b82415923664590236aea1c1912955e7653b9fca89056bc75e2d63100000801ca0898fe53729ecf62cb9ce59564fc63f12d7ee655af890b262b233d2f0ef75cc2ea09e4deada2789c1b5f2d212c7ec8bb39b58b2b4df804eb02e0a3a0463240ebc67",
      "networkId": 0,
      "chainId": 0
    }
  ]
}