{
  "hash": "0x4a30586a4fdd8228774aff7a012e17aa37d54f984116122dcfbe7f1aeb221d72",
  "parentHash": "0xf4960509e830a035307083aca32b3dc55d45ca61baa879ca2066762f1ede8ec0",
  "number": 105312,
  "timestamp": 1439885417,
  "nonce": "0x0df23569c9cc8aec",
  "difficulty": 4359064021070,
  "gasLimit": {
    "_hex": "0x2fefd8"
  },
  "gasUsed": {
    "_hex": "0xcd140"
  },
  "miner": "0xe6A7a1d47ff21B6321162AEA7C6CB457D5476Bca",
  "extraData": "0x476574682f76312e302e312d38326566323666362f6c696e75782f676f312e34",
  "transactions": [
    {
      "hash": "0x59facf3a64a539a44b88f72cd18814866d9f853b15d5a3e8aada9121b402d9e9",
      "blockHash": "0x4a30586a4fdd8228774aff7a012e17aa37d54f984116122dcfbe7f1aeb221d72",
      "blockNumber": 105312,
      "transactionIndex": 0,
      "confirmations": null,
      "from": "0xe6A7a1d47ff21B6321162AEA7C6CB457D5476Bca",
      "gasPrice": {
        "_hex": "0xd19a16450"
      },
      "gasLimit": {
        "_hex": "0x55f0"
      },
      "to": "0x47fe9Ce29dA03E8466a067e4321fD32312e39607",
      "value": {
        "_hex": "0x1cc9e6cf17e479e8"
      },
      "nonce": 3634,
      "data": "0x",
      "r": "0xc564fde841c52b3df49671cfa3fe6cc37c4131c6d48ecd7e4e6f349df3c04027",
      "s": "0x7cefa363587d6025e59174951b86f9794313aadb589f6bf3d44ceaffeadcb825",
      "v": 27,
      "creates": null,
      "raw": "0xf86e820e32850d19a164508255f09447fe9ce29da03e8466a067e4321fd32312e39607881cc9e6cf17e479e8801ba0c564fde841c52b3df49671cfa3fe6cc37c4131c6d48ecd7e4e6f349df3c04027a07cefa363587d6025e59174951b86f9794313aadb589f6bf3d44ceaffeadcb825",
      "networkId": 0,
      "chainId": 0
    },
    {
      "hash": "0xf353d5684a6ad95bbce520ece7d4efa644dea75b08932b05f417604b331a3bfe",
      "blockHash": "0x4a30586a4fdd8228774aff7a012e17aa37d54f984116122dcfbe7f1aeb221d72",
      "blockNumber": 105312,
      "transactionIndex": 1,
      "confirmations": null,
      "from": "0xe6A7a1d47ff21B6321162AEA7C6CB457D5476Bca",
      "gasPrice": {
        "_hex": "0xd19a16450"
      },
      "gasLimit": {
        "_hex": "0x55f0"
      },
      "to": "0xF178805EA39C903a49e6A465DBD40f22576aE24a",
      "value": {
        "_hex": "0x1ce1c35fe5a5060c"
      },
      "nonce": 3635,
      "data": "0x",
      "r": "0x977d523d09f0b88b8055e4006ac89a3dae8a189d1427d7f9ec2e31566b992bf7",
      "s": "0x5f7cc23388e63335209f837287da393dcb0f6344e77a0966c92387990bece88d",
      "v": 27,
      "creates": null,
      "raw": "0xf86e820e33850d19a164508255f094f178805ea39c903a49e6a465dbd40f22576ae24a881ce1c35fe5a5060c801ba0977d523d09f0b88b8055e4006ac89a3dae8a189d1427d7f9ec2e31566b992bf7a05f7cc23388e63335209f837287da393dcb0f6344e77a0966c92387990bece88d",
      "networkId": 0,
      "chainId": 0
    },
    {
      "hash": "0xd7122c46b435a7fe58342c5f60eb11fb95c11a5003826c913e50d1c7a5ea5fe0",
      "blockHash": "0x4a30586a4fdd8228774aff7a012e17aa37d54f984116122dcfbe7f1aeb221d72",
      "blockNumber": 105312,
      "transactionIndex": 2,
      "confirmations": null,
      "from": "0xe6A7a1d47ff21B6321162AEA7C6CB457D5476Bca",
      "gasPrice": {
        "_hex": "0xd19a16450"
      },
      "gasLimit": {
        "_hex": "0x55f0"
      },
      "to": "0xE9c4c542f72044d8296171067B020A6d17F8187b",
      "value": {
        "_hex": "0x1ce314b81085b510"
      },
      "nonce": 3636,
      "data": "0x",
      "r": "0x6e3419eb826f0eee846869f9c999c7cf31a25bcc25ede508971d52a10e7f9c97",
      "s": "0x064cb4d8e04cbb3571e1ddccefb942f3796d1e9d7ba6156d8286f6884d2b193a",
      "v": 27,
      "creates": null,
      "raw": "0xf86e820e34850d19a164508255f094e9c4c542f72044d8296171067b020a6d17f8187b881ce314b81085b510801ba06e3419eb826f0eee846869f9c999c7cf31a25bcc25ede508971d52a10e7f9c97a0064cb4d8e04cbb3571e1ddccefb942f3796d1e9d7ba6156d8286f6884d2b193a",
      "networkId": 0,
      "chainId": 0
    },
    {
      "hash": "0x6015f6eff506e9a7511f8575723ce40ebbd7cbaecd5221d673a72ef3d395f125",
      "blockHash": "0x4a30586a4fdd8228774aff7a012e17aa37d54f984116122dcfbe7f1aeb221d72",
      "blockNumber": 105312,
      "transactionIndex": 3,
      "confirmations": null,
      "from": "0xe6A7a1d47ff21B6321162AEA7C6CB457D5476Bca",
      "gasPrice": {
        "_hex": "0xd19a16450"
      },
      "gasLimit": {
        "_hex": "0x55f0"
      },
      "to": "0x0d187496799a43E7c43e4324026E32d1Dc80D8E4",
      "value": {
        "_hex": "0x1cf537fb5203c018"
      },
      "nonce": 3637,
      "data": "0x",
      "r": "0xc04f8bfb4716ef65530f24d09908245a34404080a83cdfd27bf782beb9e0edd8",
      "s": "0x066e17cb2f5bd23c8526e72dfa72dbefcbc06ca3773726d9c16b4b605a0e3c3e",
      "v": 27,
      "creates": null,
      "raw": "0xf86e820e35850d19a164508255f0940d187496799a43e7c43e4324026e32d1dc80d8e4881cf537fb5203c018801ba0c04f8bfb4716ef65530f24d09908245a34404080a83cdfd27bf782beb9e0edd8a0066e17cb2f5bd23c8526e72dfa72dbefcbc06ca3773726d9c16b4b605a0e3c3e",
      "networkId": 0,
      "chainId": 0
    },
    {
      "hash": "0x8157d97e92e3e82c5bd1ed600e9d8af1b49ddd8996ba05726e822b8da924c8b4",
      "blockHash": "0x4a30586a4fdd8228774aff7a012e17aa37d54f984116122dcfbe7f1aeb221d72",
      "blockNumber": 105312,
      "transactionIndex": 4,
      "confirmations": null,
      "from": "0xe6A7a1d47ff21B6321162AEA7C6CB457D5476Bca",
      "gasPrice": {
        "_hex": "0xd19a16450"
      },
      "gasLimit": {
        "_hex": "0x55f0"
      },
      "to": "0xA4fbA5C740C8141d6c4469eD292bfCC8cCAc774F",
      "value": {
        "_hex": "0x1cf9464d6c3c2fd8"
      },
      "nonce": 3638,
      "data": "0x",
      "r": "0x47a998a2c7dbddaba2dbf4411694617dba9534303a1adb1f51676f0cac8983a6",
      "s": "0x52f8e96bc8ecc015764158f431cf941fb67b25374a6fefd83b1c5fb706a25d5b",
      "v": 28,
      "creates": null,
      "raw": "0xf86e820e36850d19a164508255f094a4fba5c740c8141d6c4469ed292bfcc8ccac774f881cf9464d6c3c2fd8801ca047a998a2c7dbddaba2dbf4411694617dba9534303a1adb1f51676f0cac8983a6a052f8e96bc8ecc015764158f431cf941fb67b25374a6fefd83b1c5fb706a25d5b",
      "networkId": 0,
      "chainId": 0
    },
    {
      "hash": "0x58c80c50f6ad03bdf0de61cbddb5221059c38061f73ae62f095636e163464f8c",
      "blockHash": "0x4a30586a4fdd8228774aff7a012e17aa37d54f984116122dcfbe7f1aeb221d72",
      "blockNumber": 105312,
      "transactionIndex": 5,
      "confirmations": null,
      "from": "0xe6A7a1d47ff21B6321162AEA7C6CB457D5476Bca",
      "gasPrice": {
        "_hex": "0xcf83a7068"
      },
      "gasLimit": {
        "_hex": "0x55f0"
      },
      "to": "0xA542d5046D885E5fC7Dc4006ADb648C5710Ff0ED",
      "value": {
        "_hex": "0x1d18515418c31e08"
      },
      "nonce": 3639,
      "data": "0x",
      "r": "0xfebad417b1a3a9e5a428e02506909c47d8fd57f58768592a50bdc91283085dde",
      "s": "0x1401f246b514531a7f985023835527fdd86e47fe8880ff88a30c4d6cec90b663",
      "v": 27,
      "creates": null,
      "raw": "0xf86e820e37850cf83a70688255f094a542d5046d885e5fc7dc4006adb648c5710ff0ed881d18515418c31e08801ba0febad417b1a3a9e5a428e02506909c47d8fd57f58768592a50bdc91283085ddea01401f246b514531a7f985023835527fdd86e47fe8880ff88a30c4d6cec90b663",
      "networkId": 0,
      "chainId": 0
    },
    {
      "hash": "0xa59acf9d8bc0ca95046aaeeb7aac644f6f1b5da430077c0f7125ef2b88ffc814",
      "blockHash": "0x4a30586a4fdd8228774aff7a012e17aa37d54f984116122dcfbe7f1aeb221d72",
      "blockNumber": 105312,
      "transactionIndex": 6,
      "confirmations": null,
      "from": "0xe6A7a1d47ff21B6321162AEA7C6CB457D5476Bca",
      "gasPrice": {
        "_hex": "0xcf83a7068"
      },
      "gasLimit": {
        "_hex": "0x55f0"
      },
      "to": "0xb71F25995CC5De7A465fB37688126E07654Fa662",
      "value": {
        "_hex": "0x1d95821f1acefc0c"
      },
      "nonce": 3640,
      "data": "0x",
      "r": "0x3006a6f37ab5b21074aa6add521302ffe9593842e29ee5be4eaddd236a8441e8",
      "s": "0x2676039bdee9a532641d1801e6021a7d9273fb5898bd65f928a00b37a83d0439",
      "v": 27,
      "creates": null,
      "raw": "0xf86e820e38850cf83a70688255f094b71f25995cc5de7a465fb37688126e07654fa662881d95821f1acefc0c801ba03006a6f37ab5b21074aa6add521302ffe9593842e29ee5be4eaddd236a8441e8a02676039bdee9a532641d1801e6021a7d9273fb5898bd65f928a00b37a83d0439",
      "networkId": 0,
      "chainId": 0
    },
    {
      "hash": "0x07d38cd99b64ec611b44e743afacf4524d86c6c11695acedef0014c33e885bf9",
      "blockHash": "0x4a30586a4fdd8228774aff7a012e17aa37d54f984116122dcfbe7f1aeb221d72",
      "blockNumber": 105312,
      "transactionIndex": 7,
      "confirmations": null,
      "from": "0xe6A7a1d47ff21B6321162AEA7C6CB457D5476Bca",
      "gasPrice": {
        "_hex": "0xcf83a7068"
      },
      "gasLimit": {
        "_hex": "0x55f0"
      },
      "to": "0x4C84686094c69469502847D76a8190f3CD9e921c",
      "value": {
        "_hex": "0x1da80b3df827d218"
      },
      "nonce": 3641,
      "data": "0x",
      "r": "0xf82fbb5b3c6caa13a39ec8e3112fff8f59115579bee0897601d9296577f86d49",
      "s": "0x4e73f05b7f3c434fe9498b8c966273e038b0ca19f36d38eaa949b32a621fd387",
      "v": 28,
      "creates": null,
      "raw": "0xf86e820e39850cf83a70688255f0944c84686094c69469502847d76a8190f3cd9e921c881da80b3df827d218801ca0f82fbb5b3c6caa13a39ec8e3112fff8f59115579bee0897601d9296577f86d49a04e73f05b7f3c434fe9498b8c966273e038b0ca19f36d38eaa949b32a621fd387",
      "networkId": 0,
      "chainId": 0
    },
    {
      "hash": "0x0c2290c60d161ece65ea7e611568fb52ff3aad3000818c97f7c3f93a7a853a3b",
      "blockHash": "0x4a30586a4fdd8228774aff7a012e17aa37d54f984116122dcfbe7f1aeb221d72",
      "blockNumber": 105312,
      "transactionIndex": 8,
      "confirmations": null,
      "from": "0xe6A7a1d47ff21B6321162AEA7C6CB457D5476Bca",
      "gasPrice": {
        "_hex": "0xcf83a7068"
      },
      "gasLimit": {
        "_hex": "0x55f0"
      },
      "to": "0x160aa7EC7e94C7E72bbd4560b1db208E951e4d70",
      "value": {
        "_hex": "0x1e01bf54dae0fae8"
      },
      "nonce": 3642,
      "data": "0x",
      "r": "0x4b18c5c170eae5398fe6437cc63e4381987671eba6c149c896d5a563789d4bdb",
      "s": "0x247fc9457b269e67c6a06dc802786db0f0dd3e673bf6c86072aa897ccd121b14",
      "v": 28,
      "creates": null,
      "raw": "0xf86e820e3a850cf83a70688255f094160aa7ec7e94c7e72bbd4560b1db208e951e4d70881e01bf54dae0fae8801ca04b18c5c170eae5398fe6437cc63e4381987671eba6c149c896d5a563789d4bdba0247fc9457b269e67c6a06dc802786db0f0dd3e673bf6c86072aa897ccd121b14",
      "networkId": 0,
      "chainId": 0
    },
    {
      "hash": "0x2fdd650fe216c1080127e11645be089515fb30c9cb2c647c8fcda13fe35d8887",
      "blockHash": "0x4a30586a4fdd8228774aff7a012e17aa37d54f984116122dcfbe7f1aeb221d72",
      "blockNumber": 105312,
      "transactionIndex": 9,
      "confirmations": null,
      "from": "0xe6A7a1d47ff21B6321162AEA7C6CB457D5476Bca",
      "gasPrice": {
        "_hex": "0xcf83a7068"
      },
      "gasLimit": {
        "_hex": "0x55f0"
      },
      "to": "0x9b7999611FD5eFF3ef9A86653490c42E83ED4B8E",
      "value": {
        "_hex": "0x1e155edcc41742dc"
      },
      "nonce": 3643,
      "data": "0x",
      "r": "0x132d0b0a7c3811419f2c5571bee637df43f32ccbdd815edd4feb4f1bb63e356a",
      "s": "0x5601e5db44bace5939d67a718e33a454d20de07e0329f633c86a55438d0baade",
      "v": 27,
      "creates": null,
      "raw": "0xf86e820e3b850cf83a70688255f0949b7999611fd5eff3ef9a86653490c42e83ed4b8e881e155edcc41742dc801ba0132d0b0a7c3811419f2c5571bee637df43f32ccbdd815edd4feb4f1bb63e356aa05601e5db44bace5939d67a718e33a454d20de07e0329f633c86a55438d0baade",
      "networkId": 0,
      "chainId": 0
    },
    {
      "hash": "0x04016dd4872ffa3eba15eb6dfe4eb7bc31f4173c23cf22aeb4ddf59da5a07fc8",
      "blockHash": "0x4a30586a4fdd8228774aff7a012e17aa37d54f984116122dcfbe7f1aeb221d72",
      "blockNumber": 105312,
      "transactionIndex": 10,
      "confirmations": null,
      "from": "0xe6A7a1d47ff21B6321162AEA7C6CB457D5476Bca",
      "gasPrice": {
        "_hex": "0xcf83a7068"
      },
      "gasLimit": {
        "_hex": "0x55f0"
      },
      "to": "0x315260950914163880F3AD5A7FEEC87407fa4868",
      "value": {
        "_hex": "0x1e4d353ed1da4610"
      },
      "nonce": 3644,
      "data": "0x",
      "r": "0xf056b9590a2d5312e177afb20b6e023041b114d7f323cc9184f2d3b6304736ce",
      "s": "0x71cd1a30f172063a5d309ca161afc15f855ca3bbc24d31d03f8dacc57a0e4bea",
      "v": 27,
      "creates": null,
      "raw": "0xf86e820e3c850cf83a70688255f094315260950914163880f3ad5a7feec87407fa4868881e4d353ed1da4610801ba0f056b9590a2d5312e177afb20b6e023041b114d7f323cc9184f2d3b6304736cea071cd1a30f172063a5d309ca161afc15f855ca3bbc24d31d03f8dacc57a0e4bea",
      "networkId": 0,
      "chainId": 0
    },
    {
      "hash": "0x1a8eaef37f595cf8879f775100cfc6a80198620faaee3fffe1d521db7a9fd848",
      "blockHash": "0x4a30586a4fdd8228774aff7a012e17aa37d54f984116122dcfbe7f1aeb221d72",
      "blockNumber": 105312,
      "transactionIndex": 11,
      "confirmations": null,
      "from": "0xe6A7a1d47ff21B6321162AEA7C6CB457D5476Bca",
      "gasPrice": {
        "_hex": "0xcf83a7068"
      },
      "gasLimit": {
        "_hex": "0x55f0"
      },
      "to": "0x2435CaC661de90FF84BF79A55629C5bc30B40a0d",
      "value": {
        "_hex": "0x1ea5b441a350acf0"
      },
      "nonce": 3645,
      "data": "0x",
      "r": "0x80c681af50338ec9984c1215380fcffb57a279f49ff568e0900e4954b0dc738b",
      "s": "0x06ba3286d5923aae439e4f8363b1c187a98ac5826946b35a2e26c8e7c0baca06",
      "v": 28,
      "creates": null,
      "raw": "0xf86e820e3d850cf83a70688255f0942435cac661de90ff84bf79a55629c5bc30b40a0d881ea5b441a350acf0801ca080c681af50338ec9984c1215380fcffb57a279f49ff568e0900e4954b0dc738ba006ba3286d5923aae439e4f8363b1c187a98ac5826946b35a2e26c8e7c0baca06",
      "networkId": 0,
      "chainId": 0
    },
    {
      "hash": "0xd59900f0580e12a6b145bd82e5609202b36b36d4c1058687690b6e89978a2a6c",
      "blockHash": "0x4a30586a4fdd8228774aff7a012e17aa37d54f984116122dcfbe7f1aeb221d72",
      "blockNumber": 105312,
      "transactionIndex": 12,
      "confirmations": null,
      "from": "0xe6A7a1d47ff21B6321162AEA7C6CB457D5476Bca",
      "gasPrice": {
        "_hex": "0xcf83a7068"
      },
      "gasLimit": {
        "_hex": "0x55f0"
      },
      "to": "0xcA8f4Fb1A28593337AeE456Acc76ABD4C3c83257",
      "value": {
        "_hex": "0x1eb73b89ff7a65d0"
      },
      "nonce": 3646,
      "data": "0x",
      "r": "0x725d174959c2339ec32cb22fb554196a37fd43d2c25cb6483b0c26eedc30b63d",
      "s": "0x268e7be4e34b594d82965cf5c189349c6378f32888cee85f836f59653ddd7b74",
      "v": 27,
      "creates": null,
      "raw": "0xf86e820e3e850cf83a70688255f094ca8f4fb1a28593337aee456acc76abd4c3c83257881eb73b89ff7a65d0801ba0725d174959c2339ec32cb22fb554196a37fd43d2c25cb6483b0c26eedc30b63da0268e7be4e34b594d82965cf5c189349c6378f32888cee85f836f59653ddd7b74",
      "networkId": 0,
      "chainId": 0
    },
    {
      "hash": "0xb9771acd83bfcd6e434f062f27c3ccb798ae5cfe225917aa5fd9e6de402e222a",
      "blockHash": "0x4a30586a4fdd8228774aff7a012e17aa37d54f984116122dcfbe7f1aeb221d72",
      "blockNumber": 105312,
      "transactionIndex": 13,
      "confirmations": null,
      "from": "0xe6A7a1d47ff21B6321162AEA7C6CB457D5476Bca",
      "gasPrice": {
        "_hex": "0xcf83a7068"
      },
      "gasLimit": {
        "_hex": "0x55f0"
      },
      "to": "0xA1A13F48D504123E1d50e360267F894e8e43838c",
      "value": {
        "_hex": "0x1ec25605f9870ce0"
      },
      "nonce": 3647,
      "data": "0x",
      "r": "0xb48d5f4047435e6a8695597434af38350939fe9f79e82887dc68648785717088",
      "s": "0x56cc6615ea2a882105ebec1601dee433243bd1bf9266f53ed5260f53519f3a6f",
      "v": 28,
      "creates": null,
      "raw": "0xf86e820e3f850cf83a70688255f094a1a13f48d504123e1d50e360267f894e8e43838c881ec25605f9870ce0801ca0b48d5f4047435e6a8695597434af38350939fe9f79e82887dc68648785717088a056cc6615ea2a882105ebec1601dee433243bd1bf9266f53ed5260f53519f3a6f",
      "networkId": 0,
      "chainId": 0
    },
    {
      "hash": "0xe4860fccd795c1b14a2a5d9d8f90b4c8ae16d7b5cc9c025437d6a55c3ba611c3",
      "blockHash": "0x4a30586a4fdd8228774aff7a012e17aa37d54f984116122dcfbe7f1aeb221d72",
      "blockNumber": 105312,
      "transactionIndex": 14,
      "confirmations": null,
      "from": "0xe6A7a1d47ff21B6321162AEA7C6CB457D5476Bca",
      "gasPrice": {
        "_hex": "0xcf83a7068"
      },
      "gasLimit": {
        "_hex": "0x55f0"
      },
      "to": "0x7812D42e3DDAaC2BFB738279ED0F7026Ef0Eef4D",
      "value": {
        "_hex": "0x1ed789c2145703e0"
      },
      "nonce": 3648,
      "data": "0x",
      "r": "0x6859031e222a85005e4cd79f7aacdbcf32c638bfd4210bbed7347034be2911f8",
      "s": "0x4f890fe2f67a5b54141371ae786191fbf9049516babec940d335432939ef476f",
      "v": 28,
      "creates": null,
      "raw": "0xf86e820e40850cf83a70688255f0947812d42e3ddaac2bfb738279ed0f7026ef0eef4d881ed789c2145703e0801ca06859031e222a85005e4cd79f7aacdbcf32c638bfd4210bbed7347034be2911f8a04f890fe2f67a5b54141371ae786191fbf9049516babec940d335432939ef476f",
      "networkId": 0,
      "chainId": 0
    },
    {
      "hash": "0xd15e12ce4af2009b169199757e39b826b657d1fb46937e9c46a22aa5055fb7f7",
      "blockHash": "0x4a30586a4fdd8228774aff7a012e17aa37d54f984116122dcfbe7f1aeb221d72",
      "blockNumber": 105312,
      "transactionIndex": 15,
      "confirmations": null,
      "from": "0xe6A7a1d47ff21B6321162AEA7C6CB457D5476Bca",
      "gasPrice": {
        "_hex": "0xcf83a7068"
      },
      "gasLimit": {
        "_hex": "0x55f0"
      },
      "to": "0x1d06b86EBBfD6bA717B6d14c0136dE1D88aa5989",
      "value": {
        "_hex": "0x1eeb883da58d7c08"
      },
      "nonce": 3649,
      "data": "0x",
      "r": "0xc879baa9546e0e26fe662f08cf0c6d6f864133221a3e618b05702b0e784ab14d",
      "s": "0x03f0368224667e25ae92d84496cb17a4dcfd26c5156ccaeed57f598426b10cc2",
      "v": 27,
      "creates": null,
      "raw": "0xf86e820e41850cf83a70688255f0941d06b86ebbfd6ba717b6d14c0136de1d88aa5989881eeb883da58d7c08801ba0c879baa9546e0e26fe662f08cf0c6d6f864133221a3e618b05702b0e784ab14da003f0368224667e25ae92d84496cb17a4dcfd26c5156ccaeed57f598426b10cc2",
      "networkId": 0,
      "chainId": 0
    },
    {
      "hash": "0x14281501278ce2b5ee71ebffe22602b085db9ee0db3e98c95ef8c65e822c2dba",
      "blockHash": "0x4a30586a4fdd8228774aff7a012e17aa37d54f984116122dcfbe7f1aeb221d72",
      "blockNumber": 105312,
      "transactionIndex": 16,
      "confirmations": null,
      "from": "0xe6A7a1d47ff21B6321162AEA7C6CB457D5476Bca",
      "gasPrice": {
        "_hex": "0xcf83a7068"
      },
      "gasLimit": {
        "_hex": "0x55f0"
      },
      "to": "0xD042e5C2443591c48f1FBa5F6bAf8E7193f454B9",
      "value": {
        "_hex": "0x1f1d57415c344dfc"
      },
      "nonce": 3650,
      "data": "0x",
      "r": "0x73c86bd93df3d0c799dc9addda4372d5ceacd41c6ba74994fb525390ef824838",
      "s": "0x3b45b0689adfc2b26ae5737f6a6b9b062c35fea5b46ac25b6061d9903ea8df37",
      "v": 27,
      "creates": null,
      "raw": "0xf86e820e42850cf83a70688255f094d042e5c2443591c48f1fba5f6baf8e7193f454b9881f1d57415c344dfc801ba073c86bd93df3d0c799dc9addda4372d5ceacd41c6ba74994fb525390ef824838a03b45b0689adfc2b26ae5737f6a6b9b062c35fea5b46ac25b6061d9903ea8df37",
      "networkId": 0,
      "chainId": 0
    },
    {
      "hash": "0xcafd5f7c012d6b98eac1dfdf5d5fdcca6e0bf0b0c541ca040b90f1430f782401",
      "blockHash": "0x4a30586a4fdd8228774aff7a012e17aa37d54f984116122dcfbe7f1aeb221d72",
      "blockNumber": 105312,
      "transactionIndex": 17,
      "confirmations": null,
      "from": "0xe6A7a1d47ff21B6321162AEA7C6CB457D5476Bca",
      "gasPrice": {
        "_hex": "0xcf83a7068"
      },
      "gasLimit": {
        "_hex": "0x55f0"
      },
      "to": "0x83B72f566f6ef3fd4a25C58119809f846602292C",
      "value": {
        "_hex": "0x1f3a5a2f108bd8e4"
      },
      "nonce": 3651,
      "data": "0x",
      "r": "0x3e89c1a0d2534f2b3157a413d5b211df40793decce9590bda8d2bafbce1ff93b",
      "s": "0x2beaa0f8d73948357aeb1f9496d50886ed4de5af571b8078ec7d236c6d1c638f",
      "v": 27,
      "creates": null,
      "raw": "0xf86e820e43850cf83a70688255f09483b72f566f6ef3fd4a25c58119809f846602292c881f3a5a2f108bd8e4801ba03e89c1a0d2534f2b3157a413d5b211df40793decce9590bda8d2bafbce1ff93ba02beaa0f8d73948357aeb1f9496d50886ed4de5af571b8078ec7d236c6d1c638f",
      "networkId": 0,
      "chainId": 0
    },
    {
      "hash": "0x2452d4a5185376e6bebaccba85356e1ee93fe808bb5e9668e23633798c98826e",
      "blockHash": "0x4a30586a4fdd8228774aff7a012e17aa37d54f984116122dcfbe7f1aeb221d72",
      "blockNumber": 105312,
      "transactionIndex": 18,
      "confirmations": null,
      "from": "0xe6A7a1d47ff21B6321162AEA7C6CB457D5476Bca",
      "gasPrice": {
        "_hex": "0xcf83a7068"
      },
      "gasLimit": {
        "_hex": "0x55f0"
      },
      "to": "0xc8ebccC5F5689Fa8659d83713341e5aD19349448",
      "value": {
        "_hex": "0x1f3cc2ffc2fbf9d8"
      },
      "nonce": 3652,
      "data": "0x",
      "r": "0xc03841c858033eb343bb9e121a4f3cfde909e3879c7597f87bfdfedc1b9f9788",
      "s": "0x5a3cc0ebaec21f74a05ea376e739ca31f5d7766d14ba271e1d0bf8e34986fb0d",
      "v": 27,
      "creates": null,
      "raw": "0xf86e820e44850cf83a70688255f094c8ebccc5f5689fa8659d83713341e5ad19349448881f3cc2ffc2fbf9d8801ba0c03841c858033eb343bb9e121a4f3cfde909e3879c7597f87bfdfedc1b9f9788a05a3cc0ebaec21f74a05ea376e739ca31f5d7766d14ba271e1d0bf8e34986fb0d",
      "networkId": 0,
      "chainId": 0
    },
    {
      "hash": "0x09a661f325364d2880bccfcae4b0f7c1ca8f18af21c5172e63645862f0586587",
      "blockHash": "0x4a30586a4fdd8228774aff7a012e17aa37d54f984116122dcfbe7f1aeb221d72",
      "blockNumber": 105312,
      "transactionIndex": 19,
      "confirmations": null,
      "from": "0xe6A7a1d47ff21B6321162AEA7C6CB457D5476Bca",
      "gasPrice": {
        "_hex": "0xcf83a7068"
      },
      "gasLimit": {
        "_hex": "0x55f0"
      },
      "to": "0x3aAE6435730f753ecF6214996ae2a55A1503F97c",
      "value": {
        "_hex": "0x1f57ee00e3647b68"
      },
      "nonce": 3653,
      "data": "0x",
      "r": "0x261313fa5e6cdf3c334fab719f85aa7987bab3e36f4d7122eff0f3b741d57ad6",
      "s": "0x327724259a741c8832e8f1c6697774d22468285c87065b1e04e03892d47a87bc",
      "v": 28,
      "creates": null,
      "raw": "0xf86e820e45850cf83a70688255f0943aae6435730f753ecf6214996ae2a55a1503f97c881f57ee00e3647b68801ca0261313fa5e6cdf3c334fab719f85aa7987bab3e36f4d7122eff0f3b741d57ad6a0327724259a741c8832e8f1c6697774d22468285c87065b1e04e03892d47a87bc",
      "networkId": 0,
      "chainId": 0
    },
    {
      "hash": "0xadccef1315f48952a24ffbd4da98240ece89f9f9768c6b6822240e2a7acad2da",
      "blockHash": "0x4a30586a4fdd8228774aff7a012e17aa37d54f984116122dcfbe7f1aeb221d72",
      "blockNumber": 105312,
      "transactionIndex": 20,
      "confirmations": null,
      "from": "0xe6A7a1d47ff21B6321162AEA7C6CB457D5476Bca",
      "gasPrice": {
        "_hex": "0xcf83a7068"
      },
      "gasLimit": {
        "_hex": "0x55f0"
      },
      "to": "0x8C93d2F70d641AC1F4cCc3287E2A1376Ce3c7DCC",
      "value": {
        "_hex": "0x1f5be5da6c66c770"
      },
      "nonce": 3654,
      "data": "0x",
      "r": "0x3e84981d6748a156f06ef9a7509b785aaa019d06941443ee4f70513df07d5411",
      "s": "0x32111b0be278945b8cab152a7d742fe663e110e6c307d86534493fdefe81d6de",
      "v": 28,
      "creates": null,
      "raw": "0xf86e820e46850cf83a70688255f0948c93d2f70d641ac1f4ccc3287e2a1376ce3c7dcc881f5be5da6c66c770801ca03e84981d6748a156f06ef9a7509b785aaa019d06941443ee4f70513df07d5411a032111b0be278945b8cab152a7d742fe663e110e6c307d86534493fdefe81d6de",
      "networkId": 0,
      "chainId": 0
    },
    {
      "hash": "0x1ed9365a12c31d5809d79e04b962a61b1fc008415e0489b72e3102245f9e01b6",
      "blockHash": "0x4a30586a4fdd8228774aff7a012e17aa37d54f984116122dcfbe7f1aeb221d72",
      "blockNumber": 105312,
      "transactionIndex": 21,
      "confirmations": null,
      "from": "0xe6A7a1d47ff21B6321162AEA7C6CB457D5476Bca",
      "gasPrice": {
        "_hex": "0xcf83a7068"
      },
      "gasLimit": {
        "_hex": "0x55f0"
      },
      "to": "0xc47d9E6C75d388Aeb92574429dAD43A148f2f3ea",
      "value": {
        "_hex": "0x1f65f51ebc62c0f0"
      },
      "nonce": 3655,
      "data": "0x",
      "r": "0xad40e96df97913535f0b568235784673f217fb5b393684119837008510c6998e",
      "s": "0x49502e94fab220177c13fc82b18fe929f6e76bb1aa25a8e68caf843e7b6df7a0",
      "v": 28,
      "creates": null,
      "raw": "0xf86e820e47850cf83a70688255f094c47d9e6c75d388aeb92574429dad43a148f2f3ea881f65f51ebc62c0f0801ca0ad40e96df97913535f0b568235784673f217fb5b393684119837008510c6998ea049502e94fab220177c13fc82b18fe929f6e76bb1aa25a8e68caf843e7b6df7a0",
      "networkId": 0,
      "chainId": 0
    },
    {
      "hash": "0xcb16c7e2ef8ccfff24013d5746cbd1488ddcf70d23be06b9941b3ef6951cc1ac",
      "blockHash": "0x4a30586a4fdd8228774aff7a012e17aa37d54f984116122dcfbe7f1aeb221d72",
      "blockNumber": 105312,
      "transactionIndex": 22,
      "confirmations": null,
      "from": "0xe6A7a1d47ff21B6321162AEA7C6CB457D5476Bca",
      "gasPrice": {
        "_hex": "0xcf83a7068"
      },
      "gasLimit": {
        "_hex": "0x55f0"
      },
      "to": "0xE7bD36a7CF4F1F8896378D41177BEf637075a1eD",
      "value": {
        "_hex": "0x1fa7af273b19e320"
      },
      "nonce": 3656,
      "data": "0x",
      "r": "0xe7c51a366dd21d24c727c4d74f29f7340222f56736b4983f529ab9a0e0179fe3",
      "s": "0x2eb0a3ad0d9fe9777592b6ae0d5a4d29bd99a27a72ddee69a780f312f2ea0d97",
      "v": 27,
      "creates": null,
      "raw": "0xf86e820e48850cf83a70688255f094e7bd36a7cf4f1f8896378d41177bef637075a1ed881fa7af273b19e320801ba0e7c51a366dd21d24c727c4d74f29f7340222f56736b4983f529ab9a0e0179fe3a02eb0a3ad0d9fe9777592b6ae0d5a4d29bd99a27a72ddee69a780f312f2ea0d97",
      "networkId": 0,
      "chainId": 0
    },
    {
      "hash": "0x36dfbb89c5890286742647248e5a3d497422de7766da15aee06d6373d8ce4eec",
      "blockHash": "0x4a30586a4fdd8228774aff7a012e17aa37d54f984116122dcfbe7f1aeb221d72",
      "blockNumber": 105312,
      "transactionIndex": 23,
      "confirmations": null,
      "from": "0xe6A7a1d47ff21B6321162AEA7C6CB457D5476Bca",
      "gasPrice": {
        "_hex": "0xcf83a7068"
      },
      "gasLimit": {
        "_hex": "0x55f0"
      },
      "to": "0xA10DcDc99cF571e66c6Af1F1175a15686C4C6800",
      "value": {
        "_hex": "0x1fcacff38be7e918"
      },
      "nonce": 3657,
      "data": "0x",
      "r": "0x31811a58b4066724ce5a0a85bb7c3a54b7494d24376db4e5cd3315f7f8fde529",
      "s": "0x748df8c3a1b177d71d65ab6728c2f3bb87fc0f3099c22505373c1b7eab1f93ab",
      "v": 28,
      "creates": null,
      "raw": "0xf86e820e49850cf83a70688255f094a10dcdc99cf571e66c6af1f1175a15686c4c6800881fcacff38be7e918801ca031811a58b4066724ce5a0a85bb7c3a54b7494d24376db4e5cd3315f7f8fde529a0748df8c3a1b177d71d65ab6728c2f3bb87fc0f3099c22505373c1b7eab1f93ab",
      "networkId": 0,
      "chainId": 0
    },
    {
      "hash": "0x855032a9df4d03a16dd3f6c29df0f313099e12c1a9840cd75d083df0d7c49868",
      "blockHash": "0x4a30586a4fdd8228774aff7a012e17aa37d54f984116122dcfbe7f1aeb221d72",
      "blockNumber": 105312,
      "transactionIndex": 24,
      "confirmations": null,
      "from": "0xe6A7a1d47ff21B6321162AEA7C6CB457D5476Bca",
      "gasPrice": {
        "_hex": "0xcf83a7068"
      },
      "gasLimit": {
        "_hex": "0x55f0"
      },
      "to": "0x833ef381A23744E510a302c665a63D41ba0E28DB",
      "value": {
        "_hex": "0x2025d156dc17c858"
      },
      "nonce": 3658,
      "data": "0x",
      "r": "0x0d7f2ea57c537ad8c5e2144cda6e02664e6b6adaca53f5cf69828afaa7151f71",
      "s": "0x0bb988e139eb36df69b2db0990ac736a1740233f5d9cfa833f4491270ede1144",
      "v": 27,
      "creates": null,
      "raw": "0xf86e820e4a850cf83a70688255f094833ef381a23744e510a302c665a63d41ba0e28db882025d156dc17c858801ba00d7f2ea57c537ad8c5e2144cda6e02664e6b6adaca53f5cf69828afaa7151f71a00bb988e139eb36df69b2db0990ac736a1740233f5d9cfa833f4491270ede1144",
      "networkId": 0,
      "chainId": 0
    },
    {
      "hash": "0x6766a4204cca70de2c2789d4c490cdc9d2b7805702742f7cbc9d66c1a843eee5",
      "blockHash": "0x4a30586a4fdd8228774aff7a012e17aa37d54f984116122dcfbe7f1aeb221d72",
      "blockNumber": 105312,
      "transactionIndex": 25,
      "confirmations": null,
      "from": "0xe6A7a1d47ff21B6321162AEA7C6CB457D5476Bca",
      "gasPrice": {
        "_hex": "0xcf83a7068"
      },
      "gasLimit": {
        "_hex": "0x55f0"
      },
      "to": "0xBc8405A1c3b4f67A4Ba6C70C91eF1F0152B6d3ab",
      "value": {
        "_hex": "0x202cbeaa2d1fd604"
      },
      "nonce": 3659,
      "data": "0x",
      "r": "0xf232304fccd442f790b8b66a6d433f902fb73b3afde862ae8ed11d169cd17a0e",
      "s": "0x79b0c1f9675e4f60e1424a80fcbb0d5a9a6c6ec5b633fd3f8bdd47e828deac39",
      "v": 28,
      "creates": null,
      "raw": "0xf86e820e4b850cf83a70688255f094bc8405a1c3b4f67a4ba6c70c91ef1f0152b6d3ab88202cbeaa2d1fd604801ca0f232304fccd442f790b8b66a6d433f902fb73b3afde862ae8ed11d169cd17a0ea079b0c1f9675e4f60e1424a80fcbb0d5a9a6c6ec5b633fd3f8bdd47e828deac39",
      "networkId": 0,
      "chainId": 0
    },
    {
      "hash": "0x5fd533338c0fd9bec1909c41bbec3354685d1be6c789276a507e6a5aa0e738cf",
      "blockHash": "0x4a30586a4fdd8228774aff7a012e17aa37d54f984116122dcfbe7f1aeb221d72",
      "blockNumber": 105312,
      "transactionIndex": 26,
      "confirmations": null,
      "from": "0xe6A7a1d47ff21B6321162AEA7C6CB457D5476Bca",
      "gasPrice": {
        "_hex": "0xcf83a7068"
      },
      "gasLimit": {
        "_hex": "0x55f0"
      },
      "to": "0x7903428Eb39b4da60a93f8FCB5228b3b431b7B52",
      "value": {
        "_hex": "0x206385cdf5abece0"
      },
      "nonce": 3660,
      "data": "0x",
      "r": "0x9f745d91ca15378abf48f53166ec2af1dc2220839174dd6c92d0f17bea926748",
      "s": "0x6d1f291021865d35d0efc995fe2d96c68e3ff7a484bcceea54cd9f81e6c7ec1f",
      "v": 27,
      "creates": null,
      "raw": "0xf86e820e4c850cf83a70688255f0947903428eb39b4da60a93f8fcb5228b3b431b7b5288206385cdf5abece0801ba09f745d91ca15378abf48f53166ec2af1dc2220839174dd6c92d0f17bea926748a06d1f291021865d35d0efc995fe2d96c68e3ff7a484bcceea54cd9f81e6c7ec1f",
      "networkId": 0,
      "chainId": 0
    },
    {
      "hash": "0x17aa6993d9d4ae73a186ba99b0ec6002a6f4343e70bec78040987293d7b6b5a7",
      "blockHash": "0x4a30586a4fdd8228774aff7a012e17aa37d54f984116122dcfbe7f1aeb221d72",
      "blockNumber": 105312,
      "transactionIndex": 27,
      "confirmations": null,
      "from": "0xe6A7a1d47ff21B6321162AEA7C6CB457D5476Bca",
      "gasPrice": {
        "_hex": "0xcf83a7068"
      },
      "gasLimit": {
        "_hex": "0x55f0"
      },
      "to": "0x0C9A9E318c2FbF98388cCC81141392c066fbbC19",
      "value": {
        "_hex": "0x2079a5aee1500fd0"
      },
      "nonce": 3661,
      "data": "0x",
      "r": "0x7cbcd72d275f485b19d385bb99931168ab4963ca53d0c17295929dd3587432db",
      "s": "0x614bc5f03814bd77ec6b77d6f0139d4ef718b48fe379593559addcdb546efc3f",
      "v": 28,
      "creates": null,
      "raw": "0xf86e820e4d850cf83a70688255f0940c9a9e318c2fbf98388ccc81141392c066fbbc19882079a5aee1500fd0801ca07cbcd72d275f485b19d385bb99931168ab4963ca53d0c17295929dd3587432dba0614bc5f03814bd77ec6b77d6f0139d4ef718b48fe379593559addcdb546efc3f",
      "networkId": 0,
      "chainId": 0
    },
    {
      "hash": "0x93d691824d51cb903c19ec77d12abe40cfe3a97933055494fc38649e3a064c28",
      "blockHash": "0x4a30586a4fdd8228774aff7a012e17aa37d54f984116122dcfbe7f1aeb221d72",
      "blockNumber": 105312,
      "transactionIndex": 28,
      "confirmations": null,
      "from": "0xe6A7a1d47ff21B6321162AEA7C6CB457D5476Bca",
      "gasPrice": {
        "_hex": "0xcf83a7068"
      },
      "gasLimit": {
        "_hex": "0x55f0"
      },
      "to": "0x9900467341E2d122D382794f203a0Fa60f42e508",
      "value": {
        "_hex": "0x20a93434316f4f88"
      },
      "nonce": 3662,
      "data": "0x",
      "r": "0x8508ee27986f6c87cf432ee6436fc991aaf744cdffa0c2a913cb1111335eaa65",
      "s": "0x0243ee2070fca537a15bb8ff0e3e49c8a1426e99788fa3da60e88f6af565fcea",
      "v": 28,
      "creates": null,
      "raw": "0xf86e820e4e850cf83a70688255f0949900467341e2d122d382794f203a0fa60f42e5088820a93434316f4f88801ca08508ee27986f6c87cf432ee6436fc991aaf744cdffa0c2a913cb1111335eaa65a00243ee2070fca537a15bb8ff0e3e49c8a1426e99788fa3da60e88f6af565fcea",
      "networkId": 0,
      "chainId": 0
    },
    {
      "hash": "0xa1bb892856e4bbd2950de9a6673026800c43ec4fc785b9f7a1859847b0b3ff88",
      "blockHash": "0x4a30586a4fdd8228774aff7a012e17aa37d54f984116122dcfbe7f1aeb221d72",
      "blockNumber": 105312,
      "transactionIndex": 29,
      "confirmations": null,
      "from": "0xe6A7a1d47ff21B6321162AEA7C6CB457D5476Bca",
      "gasPrice": {
        "_hex": "0xcf83a7068"
      },
      "gasLimit": {
        "_hex": "0x55f0"
      },
      "to": "0xe2F27cFd700a6d294Ac1BaFFa42c24bA0968631D",
      "value": {
        "_hex": "0x20ba4b133afcb610"
      },
      "nonce": 3663,
      "data": "0x",
      "r": "0x5552c3b177a2ca7bd0469595466d107a9d44b3fcbfce07ad9c40867869f1f498",
      "s": "0x4542acf1be3db6b35e4246ffdc95f429cf604a6e931ae26bf0a0188d2f322cff",
      "v": 28,
      "creates": null,
      "raw": "0xf86e820e4f850cf83a70688255f094e2f27cfd700a6d294ac1baffa42c24ba0968631d8820ba4b133afcb610801ca05552c3b177a2ca7bd0469595466d107a9d44b3fcbfce07ad9c40867869f1f498a04542acf1be3db6b35e4246ffdc95f429cf604a6e931ae26bf0a0188d2f322cff",
      "networkId": 0,
      "chainId": 0
    },
    {
      "hash": "0xf7159bf482d3be76fab7a8a4a28c76f112e55287de8ef93fb989890e53924d5e",
      "blockHash": "0x4a30586a4fdd8228774aff7a012e17aa37d54f984116122dcfbe7f1aeb221d72",
      "blockNumber": 105312,
      "transactionIndex": 30,
      "confirmations": null,
      "from": "0xe6A7a1d47ff21B6321162AEA7C6CB457D5476Bca",
      "gasPrice": {
        "_hex": "0xcf83a7068"
      },
      "gasLimit": {
        "_hex": "0x55f0"
      },
      "to": "0x3831A4852c55a662aFcFB2a03e8DE8D5899AC4f2",
      "value": {
        "_hex": "0x20bd7a3e3239be30"
      },
      "nonce": 3664,
      "data": "0x",
      "r": "0xa30521da019c6467db215fbe07ed4a87a3664d7d2c7804260cfe0dda5430fce2",
      "s": "0x0956f21fb69028db71333a888235edc5d87ec6cca65e14fc487c489fde8bbba6",
      "v": 28,
      "creates": null,
      "raw": "0xf86e820e50850cf83a70688255f0943831a4852c55a662afcfb2a03e8de8d5899ac4f28820bd7a3e3239be30801ca0a30521da019c6467db215fbe07ed4a87a3664d7d2c7804260cfe0dda5430fce2a00956f21fb69028db71333a888235edc5d87ec6cca65e14fc487c489fde8bbba6",
      "networkId": 0,
      "chainId": 0
    },
    {
      "hash": "0x84b61e05a75d168c7d1fb8ce5d5c885cde94da29a953a9aac2e166acb3a3a553",
      "blockHash": "0x4a30586a4fdd8228774aff7a012e17aa37d54f984116122dcfbe7f1aeb221d72",
      "blockNumber": 105312,
      "transactionIndex": 31,
      "confirmations": null,
      "from": "0xe6A7a1d47ff21B6321162AEA7C6CB457D5476Bca",
      "gasPrice": {
        "_hex": "0xcf83a7068"
      },
      "gasLimit": {
        "_hex": "0x55f0"
      },
      "to": "0xc9450a30B259ebB8631b9bC49c64dBAeC472D6Af",
      "value": {
        "_hex": "0x20eb2480e308be68"
      },
      "nonce": 3665,
      "data": "0x",
      "r": "0xa9fd8be4eca3dd4bf7491cee8f4fe501e1c37c538a55c2dc5f5094d3631d7bbd",
      "s": "0x319552b1f8fa347610247d7c859577ee43314aabe031c77e3e02dd8f5208d3e5",
      "v": 28,
      "creates": null,
      "raw": "0xf86e820e51850cf83a70688255f094c9450a30b259ebb8631b9bc49c64dbaec472d6af8820eb2480e308be68801ca0a9fd8be4eca3dd4bf7491cee8f4fe501e1c37c538a55c2dc5f5094d3631d7bbda0319552b1f8fa347610247d7c859577ee43314aabe031c77e3e02dd8f5208d3e5",
      "networkId": 0,
      "chainId": 0
    },
    {
      "hash": "0xc594bd2a58d8cb582a016ce45880d673b8042dd94bdd3978a436e43070dfe3ef",
      "blockHash": "0x4a30586a4fdd8228774aff7a012e17aa37d54f984116122dcfbe7f1aeb221d72",
      "blockNumber": 105312,
      "transactionIndex": 32,
      "confirmations": null,
      "from": "0xe6A7a1d47ff21B6321162AEA7C6CB457D5476Bca",
      "gasPrice": {
        "_hex": "0xcf83a7068"
      },
      "gasLimit": {
        "_hex": "0x55f0"
      },
      "to": "0x5C2422A39Bcb8E469423cA039cf2b89BbE55E93E",
      "value": {
        "_hex": "0x2111597c0992c348"
      },
      "nonce": 3666,
      "data": "0x",
      "r": "0x2874226640c608602a1892e447b7292594d1df4ecdf3585b41798925370636c3",
      "s": "0x50faee3a9870108696a384825beea4cdeca0c2368758fd20e6c92653cbb376ca",
      "v": 27,
      "creates": null,
      "raw": "0xf86e820e52850cf83a70688255f0945c2422a39bcb8e469423ca039cf2b89bbe55e93e882111597c0992c348801ba02874226640c608602a1892e447b7292594d1df4ecdf3585b41798925370636c3a050faee3a9870108696a384825beea4cdeca0c2368758fd20e6c92653cbb376ca",
      "networkId": 0,
      "chainId": 0
    },
    {
      "hash": "0x428af04a4f2aeed20dece87cf9af502916edee694ac133b0050c8ae872f71622",
      "blockHash": "0x4a30586a4fdd8228774aff7a012e17aa37d54f984116122dcfbe7f1aeb221d72",
      "blockNumber": 105312,
      "transactionIndex": 33,
      "confirmations": null,
      "from": "0xe6A7a1d47ff21B6321162AEA7C6CB457D5476Bca",
      "gasPrice": {
        "_hex": "0xcf83a7068"
      },
      "gasLimit": {
        "_hex": "0x55f0"
      },
      "to": "0x0EB0AcFB7C81a83296b8C023673f362e8FCd88bD",
      "value": {
        "_hex": "0x211b151222a219c8"
      },
      "nonce": 3667,
      "data": "0x",
      "r": "0x1989ef4eea206fdd09d73c57bae1a7a14a90789c3418c941171049f67bae9ad7",
      "s": "0x58c8e1a901d3363b4bcd864f92127bd1e15b1c54ad1615bdc105b826863a530f",
      "v": 28,
      "creates": null,
      "raw": "0xf86e820e53850cf83a70688255f0940eb0acfb7c81a83296b8c023673f362e8fcd88bd88211b151222a219c8801ca01989ef4eea206fdd09d73c57bae1a7a14a90789c3418c941171049f67bae9ad7a058c8e1a901d3363b4bcd864f92127bd1e15b1c54ad1615bdc105b826863a530f",
      "networkId": 0,
      "chainId": 0
    },
    {
      "hash": "0x1eb38af62222234ed2b9b55a6f83e683b7e0917770f26911a033c83f9d31d4b5",
      "blockHash": "0x4a30586a4fdd8228774aff7a012e17aa37d54f984116122dcfbe7f1aeb221d72",
      "blockNumber": 105312,
      "transactionIndex": 34,
      "confirmations": null,
      "from": "0xe6A7a1d47ff21B6321162AEA7C6CB457D5476Bca",
      "gasPrice": {
        "_hex": "0xcf83a7068"
      },
      "gasLimit": {
        "_hex": "0x55f0"
      },
      "to": "0xd141b7CB21652cCdEF036cbe70dE021F31a530Ad",
      "value": {
        "_hex": "0x219fe9737abc0f00"
      },
      "nonce": 3668,
      "data": "0x",
      "r": "0x2e3d733dced8cd1e93025e1db9a0467f7d4f1c3bd3d49f1281b017540c49c83e",
      "s": "0x7edffafacc69ebad6a1504c5c9c67b79cd6d87a96bf9d9fc79a3fe4d9dad440e",
      "v": 27,
      "creates": null,
      "raw": "0xf86e820e54850cf83a70688255f094d141b7cb21652ccdef036cbe70de021f31a530ad88219fe9737abc0f00801ba02e3d733dced8cd1e93025e1db9a0467f7d4f1c3bd3d49f1281b017540c49c83ea07edffafacc69ebad6a1504c5c9c67b79cd6d87a96bf9d9fc79a3fe4d9dad440e",
      "networkId": 0,
      "chainId": 0
    },
    {
      "hash": "0xbd00c1f0ebd992554e62ca9c6cff83fe81e23fa321d0dfe1463cf60edb3a6bda",
      "blockHash": "0x4a30586a4fdd8228774aff7a012e17aa37d54f984116122dcfbe7f1aeb221d72",
      "blockNumber": 105312,
      "transactionIndex": 35,
      "confirmations": null,
      "from": "0xe6A7a1d47ff21B6321162AEA7C6CB457D5476Bca",
      "gasPrice": {
        "_hex": "0xcf83a7068"
      },
      "gasLimit": {
        "_hex": "0x55f0"
      },
      "to": "0xaFF2628417768132E1d04f605Fe1e797f2ECA3F8",
      "value": {
        "_hex": "0x21af52802ea937c0"
      },
      "nonce": 3669,
      "data": "0x",
      "r": "0xdddfcad921e1d8001bc0f4b4ecb5f67d28067c4d2e6c9baa163e0c8d9429e286",
      "s": "0x13ca5fa2263e80598c15fece8cfc59d6f2738fdd9707cdf7b86158ed5980b3fb",
      "v": 28,
      "creates": null,
      "raw": "0xf86e820e55850cf83a70688255f094aff2628417768132e1d04f605fe1e797f2eca3f88821af52802ea937c0801ca0dddfcad921e1d8001bc0f4b4ecb5f67d28067c4d2e6c9baa163e0c8d9429e286a013ca5fa2263e80598c15fece8cfc59d6f2738fdd9707cdf7b86158ed5980b3fb",
      "networkId": 0,
      "chainId": 0
    },
    {
      "hash": "0x8d6904ebf282fa2f7f9fc0f48e2500f56f6c4116955808730c0e9cc025d28da6",
      "blockHash": "0x4a30586a4fdd8228774aff7a012e17aa37d54f984116122dcfbe7f1aeb221d72",
      "blockNumber": 105312,
      "transactionIndex": 36,
      "confirmations": null,
      "from": "0xe6A7a1d47ff21B6321162AEA7C6CB457D5476Bca",
      "gasPrice": {
        "_hex": "0xcf83a7068"
      },
      "gasLimit": {
        "_hex": "0x55f0"
      },
      "to": "0x91d32201228cd1Dea4e21d71f7A9e0CeF5de4A39",
      "value": {
        "_hex": "0x21f4e3c2ef4e0028"
      },
      "nonce": 3670,
      "data": "0x",
      "r": "0xc606b22e2707402a8177a03c51415e7a24fdeeaaa3bb3d88f9bbe9eb0c875572",
      "s": "0x31b452c6a6e877e2bbdf87986c92679869b7ab9fa4ce8c62a2d52978b80bebd3",
      "v": 27,
      "creates": null,
      "raw": "0xf86e820e56850cf83a70688255f09491d32201228cd1dea4e21d71f7a9e0cef5de4a398821f4e3c2ef4e0028801ba0c606b22e2707402a8177a03c51415e7a24fdeeaaa3bb3d88f9bbe9eb0c875572a031b452c6a6e877e2bbdf87986c92679869b7ab9fa4ce8c62a2d52978b80bebd3",
      "networkId": 0,
      "chainId": 0
    },
    {
      "hash": "0x3f0883c37610c3affecf0f38006e6d6aa58160b19d9bef20356b52642c96814b",
      "blockHash": "0x4a30586a4fdd8228774aff7a012e17aa37d54f984116122dcfbe7f1aeb221d72",
      "blockNumber": 105312,
      "transactionIndex": 37,
      "confirmations": null,
      "from": "0xe6A7a1d47ff21B6321162AEA7C6CB457D5476Bca",
      "gasPrice": {
        "_hex": "0xcf83a7068"
      },
      "gasLimit": {
        "_hex": "0x55f0"
      },
      "to": "0x1049cb6C4223942Bb3Ed14e47b27c7478449deB2",
      "value": {
        "_hex": "0x2209eccaea071610"
      },
      "nonce": 3671,
      "data": "0x",
      "r": "0x33afef178811c9da0093da0122fc49845bb1a3106e1560097187eb11af3f0aef",
      "s": "0x50ad928e2d2f5157312afe4576b88b0f33935b628e5f390bfbff7c839a4dfcc4",
      "v": 28,
      "creates": null,
      "raw": "0xf86e820e57850cf83a70688255f0941049cb6c4223942bb3ed14e47b27c7478449deb2882209eccaea071610801ca033afef178811c9da0093da0122fc49845bb1a3106e1560097187eb11af3f0aefa050ad928e2d2f5157312afe4576b88b0f33935b628e5f390bfbff7c839a4dfcc4",
      "networkId": 0,
      "chainId": 0
    },
    {
      "hash": "0xf4fc481ab73b39db2dd60373dc47b2b07e28c11a184f5d54e63d4cfa349046ab",
      "blockHash": "0x4a30586a4fdd8228774aff7a012e17aa37d54f984116122dcfbe7f1aeb221d72",
      "blockNumber": 105312,
      "transactionIndex": 38,
      "confirmations": null,
      "from": "0xe6A7a1d47ff21B6321162AEA7C6CB457D5476Bca",
      "gasPrice": {
        "_hex": "0xcf83a7068"
      },
      "gasLimit": {
        "_hex": "0x55f0"
      },
      "to": "0x1CC77ed71531833bAC1eA0E757Cd150dCD297920",
      "value": {
        "_hex": "0x22130a506f0b1518"
      },
      "nonce": 3672,
      "data": "0x",
      "r": "0xb81d88970423874a1b2ba587e949809b7f75947fddfd70c99982df747fd2cab1",
      "s": "0x549056ee024618a4b4732860575e81ec03bb6b7b810092722a886a0ef144d0c4",
      "v": 27,
      "creates": null,
      "raw": "0xf86e820e58850cf83a70688255f0941cc77ed71531833bac1ea0e757cd150dcd2979208822130a506f0b1518801ba0b81d88970423874a1b2ba587e949809b7f75947fddfd70c99982df747fd2cab1a0549056ee024618a4b4732860575e81ec03bb6b7b810092722a886a0ef144d0c4",
      "networkId": 0,
      "chainId": 0
    },
    {
      "hash": "0xae1e65d6b2bc8937e3e8e6ef2345b5bebfe23b02c96c0742218bec57578bbd75",
      "blockHash": "0x4a30586a4fdd8228774aff7a012e17aa37d54f984116122dcfbe7f1aeb221d72",
      "blockNumber": 105312,
      "transactionIndex": 39,
      "confirmations": null,
      "from": "0xcf00A85f3826941e7A25BFcF9Aac575d40410852",
      "gasPrice": {
        "_hex": "0xcb5bea614"
      },
      "gasLimit": {
        "_hex": "0x15f90"
      },
      "to": "0xD9666150A9dA92d9108198a4072970805a8B3428",
      "value": {
        "_hex": "0x4563918244f40000"
      },
      "nonce": 66,
      "data": "0x",
      "r": "0xd905fa9a42e1b6ccd188440b420ab97340dbc6efdf486650bdd7d215514fe74d",
      "s": "0x01eebbfd914584948ea992efc3b7e14344cea552e6aa5fd49facef422ce2189e",
      "v": 27,
      "creates": null,
      "raw": "0xf86d42850cb5bea61483015f9094d9666150a9da92d9108198a4072970805a8b3428884563918244f40000801ba0d905fa9a42e1b6ccd188440b420ab97340dbc6efdf486650bdd7d215514fe74da001eebbfd914584948ea992efc3b7e14344cea552e6aa5fd49facef422ce2189e",
      "networkId": 0,
      "chainId": 0
    }
  ]
}