{
  "hash": "0xc814a686b9778a79fc818610ca7db789dd2a5f3394ba3e767364c9f39809c008",
  "parentHash": "0x9376c8a37e3702074f6eb6e1b84e86ffd79ccdc5b70d98819cec4382c402d873",
  "number": 99882,
  "timestamp": 1439797121,
  "nonce": "0x419f9cf6ebe0e272",
  "difficulty": 3841840434959,
  "gasLimit": {
    "_hex": "0x2fefd8"
  },
  "gasUsed": {
    "_hex": "0x5208"
  },
  "miner": "0xe6A7a1d47ff21B6321162AEA7C6CB457D5476Bca",
  "extraData": "0x476574682f76312e302e312d38326566323666362f6c696e75782f676f312e34",
  "transactions": [
    {
      "hash": "0xb7955cf8ea98df25470263e30291f358ce6451cbbe52809b6c5e6019dcd6343c",
      "blockHash": "0xc814a686b9778a79fc818610ca7db789dd2a5f3394ba3e767364c9f39809c008",
      "blockNumber": 99882,
      "transactionIndex": 0,
      "confirmations": null,
      "from": "0xC7F13fb553585546Dbbf3D0e4b52b20Bb52Af854",
      "gasPrice": {
        "_hex": "0xd60340b78"
      },
      "gasLimit": {
        "_hex": "0x15f90"
      },
      "to": "0x385e7d962Ebd5c8422B3Cb9fC6718711dccbeAa0",
      "value": {
        "_hex": "0xde0b6b3a7640000"
      },
      "nonce": 0,
      "data": "0x",
      "r": "0xb607c4525b0a89e1df96b0f8c52675d549ead692ea36e65a5e5782ab7549bc9e",
      "s": "0x336fea54994c9d6c2e87acc096559dd69364329a98c9c155db752845f7b8e4c6",
      "v": 28,
      "creates": null,
      "raw": "0xf86d80850d60340b7883015f9094385e7d962ebd5c8422b3cb9fc6718711dccbeaa0880de0b6b3a7640000801ca0b607c4525b0a89e1df96b0f8c52675d549ead692ea36e65a5e5782ab7549bc9ea0336fea54994c9d6c2e87acc096559dd69364329a98c9c155db752845f7b8e4c6",
      "networkId": 0,
      "chainId": 0
    }
  ]
}