{
  "hash": "0xbb5a203bc72f25049709bbaf67a8c36e0a05dd536613a727702c870f5e8bbf72",
  "parentHash": "0x589e8ccc2007c09ef900a524bda8e233673d186ad493ce7da6611268963f1cae",
  "number": 90849,
  "timestamp": 1439646327,
  "nonce": "0x682aff35a3d9ed63",
  "difficulty": 3402361488270,
  "gasLimit": {
    "_hex": "0x2fefd8"
  },
  "gasUsed": {
    "_hex": "0x5208"
  },
  "miner": "0xfC97c2C87E3Cc03BeB5fA2fACaa10bbd0D0dA1AF",
  "extraData": "0x476574682f76312e302e312d38326566323666362f6c696e75782f676f312e34",
  "transactions": [
    {
      "hash": "0xab35ea547c3e9967b97715989e5c557435f44329ab9c0a2e23d2aeeefc881814",
      "blockHash": "0xbb5a203bc72f25049709bbaf67a8c36e0a05dd536613a727702c870f5e8bbf72",
      "blockNumber": 90849,
      "transactionIndex": 0,
      "confirmations": null,
      "from": "0x96Aaab1CD0Ed885803fd60609D452d6e4bf259FC",
      "gasPrice": {
        "_hex": "0xba43b7400"
      },
      "gasLimit": {
        "_hex": "0x5267"
      },
      "to": "0x52C222E2d709B9Bc81d0C047dd4Bc8D675EffD7f",
      "value": {
        "_hex": "0x1bc16d674ec80000"
      },
      "nonce": 1,
      "data": "0x",
      "r": "0xebafdaed58d1633e975fca00e0afc485837064ed93601d6cd053b7aa041f9171",
      "s": "0xfed2f85938e55d70d8fbe8cbe65e85e56834ab1db107503caa136b98af1a1254",
      "v": 28,
      "creates": null,
      "raw": "0xf86c01850ba43b74008252679452c222e2d709b9bc81d0c047dd4bc8d675effd7f881bc16d674ec80000801ca0ebafdaed58d1633e975fca00e0afc485837064ed93601d6cd053b7aa041f9171a0fed2f85938e55d70d8fbe8cbe65e85e56834ab1db107503caa136b98af1a1254",
      "networkId": 0,
      "chainId": 0
    }
  ]
}