{
  "hash": "0x42b43c2b912fec32e85c8ed7bb85f3af04715f4acee4f136b2e3c957a0d31074",
  "parentHash": "0x551c4c6bab313947108a1db3babe67b08c9a4e61e1432c139828f6d641f4e440",
  "number": 46722,
  "timestamp": 1438928100,
  "nonce": "0x0445ebf0b66c7206",
  "difficulty": 1454627070079,
  "gasLimit": {
    "_hex": "0x7447"
  },
  "gasUsed": {
    "_hex": "0x5208"
  },
  "miner": "0x24339341F29d2aaD7d3c591c0f9931e7D4bFEd6e",
  "extraData": "0x476574682f76312e302e312f6c696e75782f676f312e342e32",
  "transactions": [
    {
      "hash": "0x6e4774055cd353c0f014f2c4fe52f4471df5c3a2b3ac23f474465ba09d982f18",
      "blockHash": "0x42b43c2b912fec32e85c8ed7bb85f3af04715f4acee4f136b2e3c957a0d31074",
      "blockNumber": 46722,
      "transactionIndex": 0,
      "confirmations": null,
      "from": "0x1C257ad4A55105ea3B58Ed374b198dA266c85f63",
      "gasPrice": {
        "_hex": "0x1156725599e"
      },
      "gasLimit": {
        "_hex": "0x5208"
      },
      "to": "0x439632734cdF5a84774156c1938CbeDe2eF398F0",
      "value": {
        "_hex": "0x4563918244f40000"
      },
      "nonce": 0,
      "data": "0x",
      "r": "0xa0da1c4cd929e8d2f955ecc58621f094a2792eda1f730735b65e978f1a338e41",
      "s": "0x2d6b80638fe46f7d9d1b64724d70e219791ef408a03c892d5033a04fc304a28c",
      "v": 28,
      "creates": null,
      "raw": "0xf86d808601156725599e82520894439632734cdf5a84774156c1938cbede2ef398f0884563918244f40000801ca0a0da1c4cd929e8d2f955ecc58621f094a2792eda1f730735b65e978f1a338e41a02d6b80638fe46f7d9d1b64724d70e219791ef408a03c892d5033a04fc304a28c",
      "networkId": 0,
      "chainId": 0
    }
  ]
}