{
  "hash": "0x3ea43b9537cb5b71c432d6310edd832335da00fda2faf2d60c987a7edd3ce44d",
  "parentHash": "0xfa98de55563afcc36631a94158aafc279a2f86ecfe703774f1b8b1f6973427dd",
  "number": 121333,
  "timestamp": 1440175430,
  "nonce": "0xa9101f9c5d9f3e1c",
  "difficulty": 4412792307438,
  "gasLimit": {
    "_hex": "0x2fefd8"
  },
  "gasUsed": {
    "_hex": "0xf618"
  },
  "miner": "0xe6A7a1d47ff21B6321162AEA7C6CB457D5476Bca",
  "extraData": "0xd783010002844765746887676f312e342e32856c696e7578",
  "transactions": [
    {
      "hash": "0x49fa655a289b6ef5ededb2960535444db156c8f6693f32d84baab3f460d7bb0b",
      "blockHash": "0x3ea43b9537cb5b71c432d6310edd832335da00fda2faf2d60c987a7edd3ce44d",
      "blockNumber": 121333,
      "transactionIndex": 0,
      "confirmations": null,
      "from": "0xa70a9a7040d542C632D8e0bE7c5513A8a5Bbc752",
      "gasPrice": {
        "_hex": "0xba43b7400"
      },
      "gasLimit": {
        "_hex": "0x5208"
      },
      "to": "0x32Be343B94f860124dC4fEe278FDCBD38C102D88",
      "value": {
        "_hex": "0x4567f97929733400"
      },
      "nonce": 332,
      "data": "0x",
      "r": "0x43dc0760dbfc61d398cf48e85a3be67edf2e52016b1b97b9cdfe699118732fca",
      "s": "0x7cebccbdbf4dd4ad85cb7a30686075853ea734a116a740e7e3156dcb4e7d5115",
      "v": 27,
      "creates": null,
      "raw": "0xf86e82014c850ba43b74008252089432be343b94f860124dc4fee278fdcbd38c102d88884567f97929733400801ba043dc0760dbfc61d398cf48e85a3be67edf2e52016b1b97b9cdfe699118732fcaa07cebccbdbf4dd4ad85cb7a30686075853ea734a116a740e7e3156dcb4e7d5115",
      "networkId": 0,
      "chainId": 0
    },
    {
      "hash": "0xc06776cff9342954a126adc6a06f50e8edbae5c389a0ea5e7c7f57cebc23f66e",
      "blockHash": "0x3ea43b9537cb5b71c432d6310edd832335da00fda2faf2d60c987a7edd3ce44d",
      "blockNumber": 121333,
      "transactionIndex": 1,
      "confirmations": null,
      "from": "0xb1abce2918E21ddb93AA452731a12672A3d9F75a",
      "gasPrice": {
        "_hex": "0xba43b7400"
      },
      "gasLimit": {
        "_hex": "0x5208"
      },
      "to": "0x32Be343B94f860124dC4fEe278FDCBD38C102D88",
      "value": {
        "_hex": "0x455fd68a17f06000"
      },
      "nonce": 207,
      "data": "0x",
      "r": "0x9c82e672dc2c11e2c52f41a09e0bded00033df3701e42393703a346a0a0a674d",
      "s": "0x62fe6a0de6734b8f43112453ddee685b791dc63b785a018a8863db8d0cbd1a10",
      "v": 27,
      "creates": null,
      "raw": "0xf86d81cf850ba43b74008252089432be343b94f860124dc4fee278fdcbd38c102d8888455fd68a17f06000801ba09c82e672dc2c11e2c52f41a09e0bded00033df3701e42393703a346a0a0a674da062fe6a0de6734b8f43112453ddee685b791dc63b785a018a8863db8d0cbd1a10",
      "networkId": 0,
      "chainId": 0
    },
    {
      "hash": "0xbefab28043bd6b6082616d453b6ee558e77de0a909d083c285381c4ad2154ec2",
      "blockHash": "0x3ea43b9537cb5b71c432d6310edd832335da00fda2faf2d60c987a7edd3ce44d",
      "blockNumber": 121333,
      "transactionIndex": 2,
      "confirmations": null,
      "from": "0x4Eaf4CaDd87499C20bA3412B1D222f9a72DA7AFF",
      "gasPrice": {
        "_hex": "0xba43b7400"
      },
      "gasLimit": {
        "_hex": "0x5208"
      },
      "to": "0x32Be343B94f860124dC4fEe278FDCBD38C102D88",
      "value": {
        "_hex": "0x64d499f2dacdac0000"
      },
      "nonce": 8,
      "data": "0x",
      "r": "0x8b84c95b450f815fd3d6351958d6272ff814d3df5c526a1d7e823cc9b92242fa",
      "s": "0x5b1a1a9eb125b01f340714938ed8878c91146edb6f83b6a5ed13b2e3408ca6cd",
      "v": 27,
      "creates": null,
      "raw": "0xf86d08850ba43b74008252089432be343b94f860124dc4fee278fdcbd38c102d888964d499f2dacdac0000801ba08b84c95b450f815fd3d6351958d6272ff814d3df5c526a1d7e823cc9b92242faa05b1a1a9eb125b01f340714938ed8878c91146edb6f83b6a5ed13b2e3408ca6cd",
      "networkId": 0,
      "chainId": 0
    }
  ]
}