{
  "hash": "0xd5fda6a83cfa781d27c838aa0541dc4692f0b69d213cf8a1e72d7176fcd230dc",
  "parentHash": "0xc778b3eace021c50faeb27316e14bb0b7a07b97f77936ab6b27edac3c8af5e79",
  "number": 46345,
  "timestamp": 1438921604,
  "nonce": "0xf8178e95743cd8c3",
  "difficulty": 1462526755958,
  "gasLimit": {
    "_hex": "0x5bf7"
  },
  "gasUsed": {
    "_hex": "0x5208"
  },
  "miner": "0xeB1325C8D9d3ea8D74aC11F4B00F1B2367686319",
  "extraData": "0x476574682f76312e302e312f77696e646f77732f676f312e342e32",
  "transactions": [
    {
      "hash": "0x0550c0a0e5bbbdb7f168bb4c47106f89a064dd751240b838329a72d4dbd14d81",
      "blockHash": "0xd5fda6a83cfa781d27c838aa0541dc4692f0b69d213cf8a1e72d7176fcd230dc",
      "blockNumber": 46345,
      "transactionIndex": 0,
      "confirmations": null,
      "from": "0xBD744E3F13D79B33F6c8E1d5E32F8E9BA2866c46",
      "gasPrice": {
        "_hex": "0x6308544094"
      },
      "gasLimit": {
        "_hex": "0x5208"
      },
      "to": "0xD2e57181beE0BF25a2E7D377EaCCec854Bd65334",
      "value": {
        "_hex": "0x54915956c4096000"
      },
      "nonce": 3,
      "data": "0x",
      "r": "0xcf3e1818c726b6e0056bfc04f684199688c9240aeba31bb83995b44f7aef2bef",
      "s": "0x4cb83e4ed81469d1258681eb2a074ad05d79fbe0f76961ae7be7c56a8cb970c2",
      "v": 27,
      "creates": null,
      "raw": "0xf86c0385630854409482520894d2e57181bee0bf25a2e7d377eaccec854bd653348854915956c4096000801ba0cf3e1818c726b6e0056bfc04f684199688c9240aeba31bb83995b44f7aef2befa04cb83e4ed81469d1258681eb2a074ad05d79fbe0f76961ae7be7c56a8cb970c2",
      "networkId": 0,
      "chainId": 0
    }
  ]
}