{
  "hash": "0xb4a0f74b7b7bf21fb4eb3fd5cc79869fb11a6e3223c58067ca7c964da5d88631",
  "parentHash": "0x85253bee6842b3668bdd7ae2beb9af34efff3f188eb7d7128d08b868bfeb7d16",
  "number": 102567,
  "timestamp": 1439839929,
  "nonce": "0x69e6964974c1dc44",
  "difficulty": 3995553984696,
  "gasLimit": {
    "_hex": "0x2fefd8"
  },
  "gasUsed": {
    "_hex": "0xf618"
  },
  "miner": "0xe6A7a1d47ff21B6321162AEA7C6CB457D5476Bca",
  "extraData": "0x476574682f76312e302e312d38326566323666362f6c696e75782f676f312e34",
  "transactions": [
    {
      "hash": "0xef7c3dc94c6a1a61acb224714a15bf156fa2acd37e18b05620cf4a1e1f5e0dea",
      "blockHash": "0xb4a0f74b7b7bf21fb4eb3fd5cc79869fb11a6e3223c58067ca7c964da5d88631",
      "blockNumber": 102567,
      "transactionIndex": 0,
      "confirmations": null,
      "from": "0xa6BDc31c431B8F97848c9D60cbbe9660dc450eB7",
      "gasPrice": {
        "_hex": "0xced92b422"
      },
      "gasLimit": {
        "_hex": "0x5208"
      },
      "to": "0x32Be343B94f860124dC4fEe278FDCBD38C102D88",
      "value": {
        "_hex": "0x455f6d02c1017400"
      },
      "nonce": 156,
      "data": "0x",
      "r": "0x0e46bce71f82e7c1dfa914b0eba8213a6e136c076d630092d414547e655ef62e",
      "s": "0x577af720cdd395adf5a0c4d0e59f42e576a79ed738b14b82a5f50c12ec263fbf",
      "v": 27,
      "creates": null,
      "raw": "0xf86d819c850ced92b4228252089432be343b94f860124dc4fee278fdcbd38c102d8888455f6d02c1017400801ba00e46bce71f82e7c1dfa914b0eba8213a6e136c076d630092d414547e655ef62ea0577af720cdd395adf5a0c4d0e59f42e576a79ed738b14b82a5f50c12ec263fbf",
      "networkId": 0,
      "chainId": 0
    },
    {
      "hash": "0x0cf0d543c5e924d762701c82687aaa8f009ef36f5024baf4b6461b27f9cd67a0",
      "blockHash": "0xb4a0f74b7b7bf21fb4eb3fd5cc79869fb11a6e3223c58067ca7c964da5d88631",
      "blockNumber": 102567,
      "transactionIndex": 1,
      "confirmations": null,
      "from": "0xb1abce2918E21ddb93AA452731a12672A3d9F75a",
      "gasPrice": {
        "_hex": "0xcceed2981"
      },
      "gasLimit": {
        "_hex": "0x5208"
      },
      "to": "0x32Be343B94f860124dC4fEe278FDCBD38C102D88",
      "value": {
        "_hex": "0x455f76d2ff1f7000"
      },
      "nonce": 106,
      "data": "0x",
      "r": "0x7ac3c3072ebbe916ae0ca8843c67cfe4235c79960dca2fcdf0e5669f463ce7fc",
      "s": "0x26ef39970d3f6ea8b4a1932027b77dcaf5720bff695a47354d591507cbc48031",
      "v": 28,
      "creates": null,
      "raw": "0xf86c6a850cceed29818252089432be343b94f860124dc4fee278fdcbd38c102d8888455f76d2ff1f7000801ca07ac3c3072ebbe916ae0ca8843c67cfe4235c79960dca2fcdf0e5669f463ce7fca026ef39970d3f6ea8b4a1932027b77dcaf5720bff695a47354d591507cbc48031",
      "networkId": 0,
      "chainId": 0
    },
    {
      "hash": "0xfa8df711056bb84f29434ed11d700924721f5d52eb747183da4c75d241e866e2",
      "blockHash": "0xb4a0f74b7b7bf21fb4eb3fd5cc79869fb11a6e3223c58067ca7c964da5d88631",
      "blockNumber": 102567,
      "transactionIndex": 2,
      "confirmations": null,
      "from": "0xBBDa93a81B882774e1c9b5e3F933Fa35DaC8bc88",
      "gasPrice": {
        "_hex": "0xcceed2981"
      },
      "gasLimit": {
        "_hex": "0x5208"
      },
      "to": "0x32Be343B94f860124dC4fEe278FDCBD38C102D88",
      "value": {
        "_hex": "0x114d8944b2ada0000"
      },
      "nonce": 7,
      "data": "0x",
      "r": "0x951b6c9898ec45392dcb13da1a201814c98d7767dfcd4dcb43a6b025f3fd504c",
      "s": "0x2e6015d94ae9cd84b44dab022b08ceefa83adc8fb15e4cbc6b9e189570697748",
      "v": 28,
      "creates": null,
      "raw": "0xf86d07850cceed29818252089432be343b94f860124dc4fee278fdcbd38c102d88890114d8944b2ada0000801ca0951b6c9898ec45392dcb13da1a201814c98d7767dfcd4dcb43a6b025f3fd504ca02e6015d94ae9cd84b44dab022b08ceefa83adc8fb15e4cbc6b9e189570697748",
      "networkId": 0,
      "chainId": 0
    }
  ]
}