{
  "hash": "0x3413faf141e112b3f19007845b227a3e3823be0460b03cb16c1e82a2fb7a6655",
  "parentHash": "0x56c19b437c19efbec8f6b982af5cf615acfe5ae06c39f7231a14934133f4fb53",
  "number": 52605,
  "timestamp": 1439024187,
  "nonce": "0x12ea1d07e84e785b",
  "difficulty": 1570956980021,
  "gasLimit": {
    "_hex": "0x16342a"
  },
  "gasUsed": {
    "_hex": "0xf4240"
  },
  "miner": "0xbb7B8287f3F0a933474a79eAe42CBCa977791171",
  "extraData": "0x476574682f4c5649562f76312e302e312f6c696e75782f676f312e342e32",
  "transactions": [
    {
      "hash": "0xf2030dc478bd0aad485135d75ea054183852ad158e94bbf82c51c2a112e56ab2",
      "blockHash": "0x3413faf141e112b3f19007845b227a3e3823be0460b03cb16c1e82a2fb7a6655",
      "blockNumber": 52605,
      "transactionIndex": 0,
      "confirmations": null,
      "from": "0x54dAeb3E8a6BBC797E4aD2b0339f134b186e4637",
      "gasPrice": {
        "_hex": "0xe7d27df17"
      },
      "gasLimit": {
        "_hex": "0x7a120"
      },
      "to": "0xBAA54d6E90c3F4d7Ebec11bD180134C7eD8eBb52",
      "value": {
        "_hex": "0x16345785d8a0000"
      },
      "nonce": 789,
      "data": "0x",
      "r": "0x1335e6572975e4792c5959e309e70dfa90f3b0288e848cd072f066cb64957456",
      "s": "0x4386e41e38b8ba22714e6390831acd1245fa864226f0db35ed64b24db01439bf",
      "v": 28,
      "creates": null,
      "raw": "0xf86f820315850e7d27df178307a12094baa54d6e90c3f4d7ebec11bd180134c7ed8ebb5288016345785d8a0000801ca01335e6572975e4792c5959e309e70dfa90f3b0288e848cd072f066cb64957456a04386e41e38b8ba22714e6390831acd1245fa864226f0db35ed64b24db01439bf",
      "networkId": 0,
      "chainId": 0
    },
    {
      "hash": "0xa66afcb461b812c1f86aef53310f704ac0476e19dd78f9fd6c1631e2253ae81d",
      "blockHash": "0x3413faf141e112b3f19007845b227a3e3823be0460b03cb16c1e82a2fb7a6655",
      "blockNumber": 52605,
      "transactionIndex": 1,
      "confirmations": null,
      "from": "0x54dAeb3E8a6BBC797E4aD2b0339f134b186e4637",
      "gasPrice": {
        "_hex": "0xdf4ba21f9"
      },
      "gasLimit": {
        "_hex": "0x7a120"
      },
      "to": "0xBAA54d6E90c3F4d7Ebec11bD180134C7eD8eBb52",
      "value": {
        "_hex": "0x16345785d8a0000"
      },
      "nonce": 790,
      "data": "0x",
      "r": "0x7d6cecb786f4b6ea503d8c9c9ac1ac0b19e4f95d92ce6136827b94e480590ae7",
      "s": "0x6887908080846ee322f3c4428479789a148e64f56efca7b771ae5fd1eb564748",
      "v": 28,
      "creates": null,
      "raw": "0xf86f820316850df4ba21f98307a12094baa54d6e90c3f4d7ebec11bd180134c7ed8ebb5288016345785d8a0000801ca07d6cecb786f4b6ea503d8c9c9ac1ac0b19e4f95d92ce6136827b94e480590ae7a06887908080846ee322f3c4428479789a148e64f56efca7b771ae5fd1eb564748",
      "networkId": 0,
      "chainId": 0
    }
  ]
}