{
  "hash": "0xde0ef17bb99d5a3b868f7872d5f074abd98371c904a194e7d94ebd7ec467de92",
  "parentHash": "0xc9696c7e87152238a521c5145c9fb835c63446f8bf93db1271840d3f16680c9f",
  "number": 108926,
  "timestamp": 1439948510,
  "nonce": "0xc02a8af2ae11e2fa",
  "difficulty": 4378513795546,
  "gasLimit": {
    "_hex": "0x2fefd8"
  },
  "gasUsed": {
    "_hex": "0x5208"
  },
  "miner": "0x52bc44d5378309EE2abF1539BF71dE1b7d7bE3b5",
  "extraData": "0x476574682f76312e302e312d63303261396266632f6c696e75782f676f312e34",
  "transactions": [
    {
      "hash": "0xf0b15ed8159795c0d138d72d6166d9ae44aa9d88ae117c84efa4d74a740cec7d",
      "blockHash": "0xde0ef17bb99d5a3b868f7872d5f074abd98371c904a194e7d94ebd7ec467de92",
      "blockNumber": 108926,
      "transactionIndex": 0,
      "confirmations": null,
      "from": "0x8b6bdecDD971D3Fd0f59CDe23843B0320962C9B3",
      "gasPrice": {
        "_hex": "0xd641f460d"
      },
      "gasLimit": {
        "_hex": "0x15f90"
      },
      "to": "0xefe8745972E5cF49d99F05a72ad83A23db5D0A07",
      "value": {
        "_hex": "0x1043561a8829300000"
      },
      "nonce": 2,
      "data": "0x",
      "r": "0xbfe1b1711f6720e8714c14f70989d93c7d50618b44692bc722e54d50d4d09de1",
      "s": "0x50a345237e444a5ac1a21f80aaf8fd9eccef3f85c917eb045a6715e082149aff",
      "v": 28,
      "creates": null,
      "raw": "0xf86e02850d641f460d83015f9094efe8745972e5cf49d99f05a72ad83a23db5d0a07891043561a8829300000801ca0bfe1b1711f6720e8714c14f70989d93c7d50618b44692bc722e54d50d4d09de1a050a345237e444a5ac1a21f80aaf8fd9eccef3f85c917eb045a6715e082149aff",
      "networkId": 0,
      "chainId": 0
    }
  ]
}