{
  "hash": "0x786c7d1e45a3ea266a9ab40b66f23fbfbe9b92c6da4bc5d7bbd2ace2a6085e38",
  "parentHash": "0xaae12d1e847e2f7e27739c772acbf9349601afd7bac7cb0a53d402d0313e9f93",
  "number": 70962,
  "timestamp": 1439328064,
  "nonce": "0x38c74e4ac6704c6b",
  "difficulty": 2168864387421,
  "gasLimit": {
    "_hex": "0x2fefd8"
  },
  "gasUsed": {
    "_hex": "0x127b2"
  },
  "miner": "0x52Dc504a422f0E2A9e7632A34a50f1a82F8224c7",
  "extraData": "0x476574682f76312e302e312f6c696e75782f676f312e342e32",
  "transactions": [
    {
      "hash": "0x3b9bdd936ab4f6a0d106725183df3558a640b391fceee0448d3406350c522189",
      "blockHash": "0x786c7d1e45a3ea266a9ab40b66f23fbfbe9b92c6da4bc5d7bbd2ace2a6085e38",
      "blockNumber": 70962,
      "transactionIndex": 0,
      "confirmations": null,
      "from": "0x17580B766f7453525ca4C6A88b01b50570EA088C",
      "gasPrice": {
        "_hex": "0xd40460c24"
      },
      "gasLimit": {
        "_hex": "0x61a80"
      },
      "to": "0x5Fe5B7546D1628f7348B023A0393de1FC825A4fD",
      "value": {
        "_hex": "0xde0b6b3a7640000"
      },
      "nonce": 63,
      "data": "0xb595b8b50000000000000000000000000000000000000000000000000000000000000001",
      "r": "0xa0f3dfc6982ee0b68012a439ae06df31aae7e4d3ccb80edd1ac30d45537b3abc",
      "s": "0x255e7ccd5cf775c4278a9941f61cdd8737ed78f9e1a37fc9b1eac7b3a53d76de",
      "v": 27,
      "creates": null,
      "raw": "0xf8913f850d40460c2483061a80945fe5b7546d1628f7348b023a0393de1fc825a4fd880de0b6b3a7640000a4b595b8b500000000000000000000000000000000000000000000000000000000000000011ba0a0f3dfc6982ee0b68012a439ae06df31aae7e4d3ccb80edd1ac30d45537b3abca0255e7ccd5cf775c4278a9941f61cdd8737ed78f9e1a37fc9b1eac7b3a53d76de",
      "networkId": 0,
      "chainId": 0
    },
    {
      "hash": "0x1b1a9fe07c918bffa0d207b1b8b2c23e8b9d1633d543bc40255a326a7b3b8d0d",
      "blockHash": "0x786c7d1e45a3ea266a9ab40b66f23fbfbe9b92c6da4bc5d7bbd2ace2a6085e38",
      "blockNumber": 70962,
      "transactionIndex": 1,
      "confirmations": null,
      "from": "0x17580B766f7453525ca4C6A88b01b50570EA088C",
      "gasPrice": {
        "_hex": "0xd40460c24"
      },
      "gasLimit": {
        "_hex": "0x61a80"
      },
      "to": "0x5Fe5B7546D1628f7348B023A0393de1FC825A4fD",
      "value": {
        "_hex": "0xde0b6b3a7640000"
      },
      "nonce": 64,
      "data": "0xb595b8b50000000000000000000000000000000000000000000000000000000000000000",
      "r": "0xc8274e106621c08df376d4cf4a83ad4bcbb641bd0e9ca7e779de972eefadea71",
      "s": "0x6b434596df9fb2fca3594ad2009a975c1cf0a7346140617d1e3718a75af95a53",
      "v": 27,
      "creates": null,
      "raw": "0xf89140850d40460c2483061a80945fe5b7546d1628f7348b023a0393de1fc825a4fd880de0b6b3a7640000a4b595b8b500000000000000000000000000000000000000000000000000000000000000001ba0c8274e106621c08df376d4cf4a83ad4bcbb641bd0e9ca7e779de972eefadea71a06b434596df9fb2fca3594ad2009a975c1cf0a7346140617d1e3718a75af95a53",
      "networkId": 0,
      "chainId": 0
    }
  ]
}