{
  "hash": "0xbaecb0dced37e94b1ef3b85d5974bd6133482429c16deca72ed5c3198deea370",
  "parentHash": "0x9e9a7209cfbb9b74ff4e149fdda35e7d773fca263e0c5e5d53f5eee8548575ac",
  "number": 118347,
  "timestamp": 1440124567,
  "nonce": "0x4722a912ca17e209",
  "difficulty": 4307895750360,
  "gasLimit": {
    "_hex": "0x2fefd8"
  },
  "gasUsed": {
    "_hex": "0x5208"
  },
  "miner": "0xa50ec0D39fa913E62f1Bae7074E6F36caA71855b",
  "extraData": "0xd783010100844765746887676f312e342e32856c696e7578",
  "transactions": [
    {
      "hash": "0x1d48bad940debe6eef70ade570b293b9122ed078884cf70b08fcc4b3dfa55a84",
      "blockHash": "0xbaecb0dced37e94b1ef3b85d5974bd6133482429c16deca72ed5c3198deea370",
      "blockNumber": 118347,
      "transactionIndex": 0,
      "confirmations": null,
      "from": "0x790b8a3cE86E707ED0eD32bF89B3269692a23CC1",
      "gasPrice": {
        "_hex": "0xba43b7400"
      },
      "gasLimit": {
        "_hex": "0x15f90"
      },
      "to": "0x4D67f4F0Db45b3B5a3424B39ed8d972F710381D5",
      "value": {
        "_hex": "0x2b480699e53fe0000"
      },
      "nonce": 63,
      "data": "0x",
      "r": "0xc9ae8701c627c2dd15f4ceb4a1c8962db45d982e937cda752f8fceedd176bd4a",
      "s": "0x564118ad5a39de6023d6dc3d459b92126a51a33f78d1fa7423d8db7bb66fd012",
      "v": 28,
      "creates": null,
      "raw": "0xf86e3f850ba43b740083015f90944d67f4f0db45b3b5a3424b39ed8d972f710381d58902b480699e53fe0000801ca0c9ae8701c627c2dd15f4ceb4a1c8962db45d982e937cda752f8fceedd176bd4aa0564118ad5a39de6023d6dc3d459b92126a51a33f78d1fa7423d8db7bb66fd012",
      "networkId": 0,
      "chainId": 0
    }
  ]
}