{
  "hash": "0x15e8e1193d8d9a4fc1e5d7d6940137215f1afe5df07812817cbe04974342c9be",
  "parentHash": "0xab9a52615fc5a1d2ca18680e5d3d2ec2ed7623567a608a470cb7cff5a35f7e3b",
  "number": 67758,
  "timestamp": 1439276852,
  "nonce": "0x203e776b8c75c7bb",
  "difficulty": 1944900161216,
  "gasLimit": {
    "_hex": "0x2fe3db"
  },
  "gasUsed": {
    "_hex": "0x5208"
  },
  "miner": "0xEF247E639d49461D25F57e9362CadE3120910Ce0",
  "extraData": "0x476574682f76312e302e312f6c696e75782f676f312e342e32",
  "transactions": [
    {
      "hash": "0x28f793a3b2a08ba32a0eff5a0f442ecf30270d044b10dfe826b91205a98cfa79",
      "blockHash": "0x15e8e1193d8d9a4fc1e5d7d6940137215f1afe5df07812817cbe04974342c9be",
      "blockNumber": 67758,
      "transactionIndex": 0,
      "confirmations": null,
      "from": "0x32Be343B94f860124dC4fEe278FDCBD38C102D88",
      "gasPrice": {
        "_hex": "0xce0b96c84"
      },
      "gasLimit": {
        "_hex": "0x5208"
      },
      "to": "0x83816f103117f26a382c0ED30c21D0CF23f1D687",
      "value": {
        "_hex": "0x1d69e05a991caa000"
      },
      "nonce": 215,
      "data": "0x",
      "r": "0x0448cae339417ae6ef897b9ce57dc105233d37f603a09a614d0d16cab442991f",
      "s": "0x66c490c4a3459ffd61f00f2eebf634ecdc6226d4e6946c849846403d2cb0a3d0",
      "v": 27,
      "creates": null,
      "raw": "0xf86e81d7850ce0b96c848252089483816f103117f26a382c0ed30c21d0cf23f1d6878901d69e05a991caa000801ba00448cae339417ae6ef897b9ce57dc105233d37f603a09a614d0d16cab442991fa066c490c4a3459ffd61f00f2eebf634ecdc6226d4e6946c849846403d2cb0a3d0",
      "networkId": 0,
      "chainId": 0
    }
  ]
}