{
  "hash": "0x1f1ca4972bea3bd05cff5fd98f2ea8040905c4586169662233ab3c25e9862304",
  "parentHash": "0x62a26b341761988de2035c79f8b3233d27b462a6f8e93cad4c53be23fc923c2f",
  "number": 75551,
  "timestamp": 1439405291,
  "nonce": "0xe8faf806beb327d6",
  "difficulty": 2217999971024,
  "gasLimit": {
    "_hex": "0x2fefd8"
  },
  "gasUsed": {
    "_hex": "0x70d3"
  },
  "miner": "0x88D74a59454F6cF3B51ef6b9136AFb6b9D405A88",
  "extraData": "0x476574682f76312e302e312d37666266393930632f6c696e75782f676f312e34",
  "transactions": [
    {
      "hash": "0x0744ccf07acd8bb79f233ecda2fb3d9e45d440bb84dda27bc8e8e86fa33c4b6d",
      "blockHash": "0x1f1ca4972bea3bd05cff5fd98f2ea8040905c4586169662233ab3c25e9862304",
      "blockNumber": 75551,
      "transactionIndex": 0,
      "confirmations": null,
      "from": "0x9724Ac4dc56e03379eBA5d157D1513EcC32cBD8f",
      "gasPrice": {
        "_hex": "0xd6563d710"
      },
      "gasLimit": {
        "_hex": "0x493e0"
      },
      "to": "0xD79B4C6791784184e2755B2fC1659eaaB0f80456",
      "value": {
        "_hex": "0x0"
      },
      "nonce": 8,
      "data": "0xbd66528a73302e3636343536303035333231383439303400000000000000000000000000",
      "r": "0xf8ce385c1fd436bba6b9d5361464344ef920e2a9ec6be0e0a8462cdde3204ae7",
      "s": "0x7caa29c0f4bbf9cc64ff12a725cd613ac8193a0a6c193b8d26b87f0a51d60275",
      "v": 27,
      "creates": null,
      "raw": "0xf88908850d6563d710830493e094d79b4c6791784184e2755b2fc1659eaab0f8045680a4bd66528a73302e36363435363030353332313834393034000000000000000000000000001ba0f8ce385c1fd436bba6b9d5361464344ef920e2a9ec6be0e0a8462cdde3204ae7a07caa29c0f4bbf9cc64ff12a725cd613ac8193a0a6c193b8d26b87f0a51d60275",
      "networkId": 0,
      "chainId": 0
    }
  ]
}