{
  "hash": "0x963a8b0d8392b2145379401ac495fa6a79640adf10ddb579ef5d0006575406d9",
  "parentHash": "0xb447e9a3497c7503b83cd54b7ee5e04fed8033ace33ac85b47d81a3baed2d35e",
  "number": 81290,
  "timestamp": 1439499326,
  "nonce": "0x1d5c07db6689b92a",
  "difficulty": 2447440623902,
  "gasLimit": {
    "_hex": "0x2fefd8"
  },
  "gasUsed": {
    "_hex": "0x5208"
  },
  "miner": "0x8df03bD37602d97980327B58D940258dC57007B3",
  "extraData": "0x",
  "transactions": [
    {
      "hash": "0x2340b8fa60feca4e980045e17997627cc9ac896f03d2ecd3d92c699fe4e916fc",
      "blockHash": "0x963a8b0d8392b2145379401ac495fa6a79640adf10ddb579ef5d0006575406d9",
      "blockNumber": 81290,
      "transactionIndex": 0,
      "confirmations": null,
      "from": "0x05f74a38293C914C6B14a39f5d8dEa98f22E4FBA",
      "gasPrice": {
        "_hex": "0xdc1e52df5"
      },
      "gasLimit": {
        "_hex": "0x15f90"
      },
      "to": "0xbEB64d852Bb6731CD479E80F7139ADEa5D6A5a28",
      "value": {
        "_hex": "0x2b5e3af16b1880000"
      },
      "nonce": 1,
      "data": "0x",
      "r": "0x263a165337daaa3c53e48466a8e50c5a230c690d5d2edaabeec0bc0512919bda",
      "s": "0x37690a934a24d3a2fa5cce6541ebb88643dae1605e82f11eac90dc025f0d72d2",
      "v": 27,
      "creates": null,
      "raw": "0xf86e01850dc1e52df583015f9094beb64d852bb6731cd479e80f7139adea5d6a5a288902b5e3af16b1880000801ba0263a165337daaa3c53e48466a8e50c5a230c690d5d2edaabeec0bc0512919bdaa037690a934a24d3a2fa5cce6541ebb88643dae1605e82f11eac90dc025f0d72d2",
      "networkId": 0,
      "chainId": 0
    }
  ]
}