{
  "hash": "0x63c8519faddf4835b6f5d6ec1196ca9e44cdbc3bbcd942e91d7d4fa227804a10",
  "parentHash": "0x8ab8a492b496a0f575d6ea871932ecce0a3899b6228b69dbf59d73daa9337e46",
  "number": 57877,
  "timestamp": 1439111224,
  "nonce": "0x25521b6d25ab0cb1",
  "difficulty": 1727645737250,
  "gasLimit": {
    "_hex": "0x2fefd8"
  },
  "gasUsed": {
    "_hex": "0x5208"
  },
  "miner": "0xF2d2AfF1320476cb8C6b607199D23175cc595693",
  "extraData": "0x476574682f76312e302e312f77696e646f77732f676f312e342e32",
  "transactions": [
    {
      "hash": "0x8cfb8e1a4b001a69e3a3b266ea28ca3fc7c1440178c8b0548ac1a7db12859ba0",
      "blockHash": "0x63c8519faddf4835b6f5d6ec1196ca9e44cdbc3bbcd942e91d7d4fa227804a10",
      "blockNumber": 57877,
      "transactionIndex": 0,
      "confirmations": null,
      "from": "0x640534BBfb5dFDA363A3Daf5ceb9B9E00cbB740E",
      "gasPrice": {
        "_hex": "0xd2b04cee4"
      },
      "gasLimit": {
        "_hex": "0x5208"
      },
      "to": "0x32Be343B94f860124dC4fEe278FDCBD38C102D88",
      "value": {
        "_hex": "0x54b40adc16613800000"
      },
      "nonce": 1,
      "data": "0x",
      "r": "0xf9f56fe1126f1c18bb4364e212eff871940a78b93cbdb7352da14d34177b6afc",
      "s": "0x77a5ab53728a4b3779e77b86765963fc3f4304f032a02cfcaee9f0f9cfa42198",
      "v": 27,
      "creates": null,
      "raw": "0xf86e01850d2b04cee48252089432be343b94f860124dc4fee278fdcbd38c102d888a054b40adc16613800000801ba0f9f56fe1126f1c18bb4364e212eff871940a78b93cbdb7352da14d34177b6afca077a5ab53728a4b3779e77b86765963fc3f4304f032a02cfcaee9f0f9cfa42198",
      "networkId": 0,
      "chainId": 0
    }
  ]
}