{
  "hash": "0x491cde345835bedb367e4a9baef9a8210275f19efb0fd9bc125d05e7a84f784b",
  "parentHash": "0xe8bf8af7b1dcd1569d027f37bf42f1e782da6d1bea0a247203dd3f53d9be4a68",
  "number": 120613,
  "timestamp": 1440162985,
  "nonce": "0xb7878bfb92bb62e8",
  "difficulty": 4421798975131,
  "gasLimit": {
    "_hex": "0x2fefd8"
  },
  "gasUsed": {
    "_hex": "0xa410"
  },
  "miner": "0x954Fa3AAEb2272A61767DA893c9D8Dfd4eDef64D",
  "extraData": "0xd783010100844765746887676f312e342e32856c696e7578",
  "transactions": [
    {
      "hash": "0x15b157011c9dfa92e525bd3e2e60ffcd4cc2369ab6cfb2155051545bc9a61d70",
      "blockHash": "0x491cde345835bedb367e4a9baef9a8210275f19efb0fd9bc125d05e7a84f784b",
      "blockNumber": 120613,
      "transactionIndex": 0,
      "confirmations": null,
      "from": "0x32Be343B94f860124dC4fEe278FDCBD38C102D88",
      "gasPrice": {
        "_hex": "0xba43b7400"
      },
      "gasLimit": {
        "_hex": "0x5208"
      },
      "to": "0xA2E85113F9D7f452d7C638475bDf82c58306c26f",
      "value": {
        "_hex": "0xdbd2fc137a30000"
      },
      "nonce": 1530,
      "data": "0x",
      "r": "0x8b640b9eb6cd8d6fa37c67516205174b6d3d48f59ddab5341f8a28c9caace993",
      "s": "0x0d0665b4b135565991526ace4d64d7c562d41b73913ba1a276459c836e72f77c",
      "v": 28,
      "creates": null,
      "raw": "0xf86e8205fa850ba43b740082520894a2e85113f9d7f452d7c638475bdf82c58306c26f880dbd2fc137a30000801ca08b640b9eb6cd8d6fa37c67516205174b6d3d48f59ddab5341f8a28c9caace993a00d0665b4b135565991526ace4d64d7c562d41b73913ba1a276459c836e72f77c",
      "networkId": 0,
      "chainId": 0
    },
    {
      "hash": "0xce36fada0b0fe26393792a34ad308977eb5b44c76111c6c9f56f274b6943d5af",
      "blockHash": "0x491cde345835bedb367e4a9baef9a8210275f19efb0fd9bc125d05e7a84f784b",
      "blockNumber": 120613,
      "transactionIndex": 1,
      "confirmations": null,
      "from": "0x32Be343B94f860124dC4fEe278FDCBD38C102D88",
      "gasPrice": {
        "_hex": "0xba43b7400"
      },
      "gasLimit": {
        "_hex": "0x5208"
      },
      "to": "0x1C89060f987C518fa079EC2c0a5EbFa30f5d20F7",
      "value": {
        "_hex": "0x9b2a9c26f3eae00000"
      },
      "nonce": 1531,
      "data": "0x",
      "r": "0x895ebcfb74c274fc539571c2624e3ad2741a1a1e9bd77a610548ef1f01ffc5ab",
      "s": "0x13f9a61df9aa110bf40369f725f1dfb036f1f450f91150d771c5bc21c1bb1cde",
      "v": 27,
      "creates": null,
      "raw": "0xf86f8205fb850ba43b7400825208941c89060f987c518fa079ec2c0a5ebfa30f5d20f7899b2a9c26f3eae00000801ba0895ebcfb74c274fc539571c2624e3ad2741a1a1e9bd77a610548ef1f01ffc5aba013f9a61df9aa110bf40369f725f1dfb036f1f450f91150d771c5bc21c1bb1cde",
      "networkId": 0,
      "chainId": 0
    }
  ]
}