{
  "hash": "0x5d4b61c6d8eb8799f5686b93eae86cb714f35e56cc27e869ab1f1c2b0fb129eb",
  "parentHash": "0x7557b2f8d1c45cd45a92a49e178191d78bef893fce1accacc25b8a2adf15c771",
  "number": 114292,
  "timestamp": 1440038105,
  "nonce": "0xf3fc3c311026bf3c",
  "difficulty": 4457661773703,
  "gasLimit": {
    "_hex": "0x2fefd8"
  },
  "gasUsed": {
    "_hex": "0xa674"
  },
  "miner": "0xbb7B8287f3F0a933474a79eAe42CBCa977791171",
  "extraData": "0x476574682f4c5649562f76312e302e312f6c696e75782f676f312e342e32",
  "transactions": [
    {
      "hash": "0xde155c14b70cb2ed36ee5a0eee6465fd24c9541133e2a10a48213347450a5052",
      "blockHash": "0x5d4b61c6d8eb8799f5686b93eae86cb714f35e56cc27e869ab1f1c2b0fb129eb",
      "blockNumber": 114292,
      "transactionIndex": 0,
      "confirmations": null,
      "from": "0x1796BCc97B8Abc717F4B4a7C6B1036ea2182639f",
      "gasPrice": {
        "_hex": "0x110c8f7d8de"
      },
      "gasLimit": {
        "_hex": "0xc350"
      },
      "to": "0x2910543Af39abA0Cd09dBb2D50200b3E800A63D2",
      "value": {
        "_hex": "0x3bd913e6c1df40000"
      },
      "nonce": 2,
      "data": "0x454e52355a594a4830",
      "r": "0x7196f6ed12c3eef9942424ed8894e5a13b9b8249006d5ade59b5af44813f847b",
      "s": "0xf3efad0ba7752982ae05b497f10d0e7120898cf95ba2df56ee0dfae5b52225ad",
      "v": 27,
      "creates": null,
      "raw": "0xf87702860110c8f7d8de82c350942910543af39aba0cd09dbb2d50200b3e800a63d28903bd913e6c1df4000089454e52355a594a48301ba07196f6ed12c3eef9942424ed8894e5a13b9b8249006d5ade59b5af44813f847ba0f3efad0ba7752982ae05b497f10d0e7120898cf95ba2df56ee0dfae5b52225ad",
      "networkId": 0,
      "chainId": 0
    },
    {
      "hash": "0x2925a06174bd2a432f8d7e2709f6b357023692992ee7cf925e62bf079eb29649",
      "blockHash": "0x5d4b61c6d8eb8799f5686b93eae86cb714f35e56cc27e869ab1f1c2b0fb129eb",
      "blockNumber": 114292,
      "transactionIndex": 1,
      "confirmations": null,
      "from": "0xa70a9a7040d542C632D8e0bE7c5513A8a5Bbc752",
      "gasPrice": {
        "_hex": "0xdfb673ca3"
      },
      "gasLimit": {
        "_hex": "0x5208"
      },
      "to": "0x32Be343B94f860124dC4fEe278FDCBD38C102D88",
      "value": {
        "_hex": "0x478a33179d94e800"
      },
      "nonce": 305,
      "data": "0x",
      "r": "0xe0c11918fd4fe002ca5b89c53092739336891d0cc8839b89313af71c22b917a2",
      "s": "0x2410debdcd4336beb5c4219e484d710b3e10fd2a9ca3d8268e799b38492294b7",
      "v": 27,
      "creates": null,
      "raw": "0xf86e820131850dfb673ca38252089432be343b94f860124dc4fee278fdcbd38c102d8888478a33179d94e800801ba0e0c11918fd4fe002ca5b89c53092739336891d0cc8839b89313af71c22b917a2a02410debdcd4336beb5c4219e484d710b3e10fd2a9ca3d8268e799b38492294b7",
      "networkId": 0,
      "chainId": 0
    }
  ]
}