{
  "hash": "0x1927306c6f20b7c9a4ace0a8a86aea8e0f46c86b6db5c441c66ed3de5f1482c7",
  "parentHash": "0xc0647fdc016e0f04dee4df24afc5384f50b8f001b9abe673fbf9da67c9742716",
  "number": 121874,
  "timestamp": 1440184148,
  "nonce": "0x3798eb0da7dd90e6",
  "difficulty": 4479806677236,
  "gasLimit": {
    "_hex": "0x2fefd8"
  },
  "gasUsed": {
    "_hex": "0xf618"
  },
  "miner": "0xe6A7a1d47ff21B6321162AEA7C6CB457D5476Bca",
  "extraData": "0xd783010002844765746887676f312e342e32856c696e7578",
  "transactions": [
    {
      "hash": "0x3fe1f51e580bc46d9f376758de5c93b589751b932fb7605b4a4a942faae72722",
      "blockHash": "0x1927306c6f20b7c9a4ace0a8a86aea8e0f46c86b6db5c441c66ed3de5f1482c7",
      "blockNumber": 121874,
      "transactionIndex": 0,
      "confirmations": null,
      "from": "0xD042e5C2443591c48f1FBa5F6bAf8E7193f454B9",
      "gasPrice": {
        "_hex": "0xdd0a4c78b"
      },
      "gasLimit": {
        "_hex": "0x5208"
      },
      "to": "0x32Be343B94f860124dC4fEe278FDCBD38C102D88",
      "value": {
        "_hex": "0x124b1ee3dff84000"
      },
      "nonce": 13,
      "data": "0x",
      "r": "0xd9926ea095bb25cf35c138f2d7543c6436ab5cdd5fa77e5fafb1b72c7e327c56",
      "s": "0x6b37f8d1a680439348c1a0c84e1cdf11cd0f9cb66108655c05a8d3cf674a5f7c",
      "v": 28,
      "creates": null,
      "raw": "0xf86c0d850dd0a4c78b8252089432be343b94f860124dc4fee278fdcbd38c102d8888124b1ee3dff84000801ca0d9926ea095bb25cf35c138f2d7543c6436ab5cdd5fa77e5fafb1b72c7e327c56a06b37f8d1a680439348c1a0c84e1cdf11cd0f9cb66108655c05a8d3cf674a5f7c",
      "networkId": 0,
      "chainId": 0
    },
    {
      "hash": "0x520dd063b46d602eb75ec5836e3d087e908bc8921cf4b2f11fbfaf99bed95807",
      "blockHash": "0x1927306c6f20b7c9a4ace0a8a86aea8e0f46c86b6db5c441c66ed3de5f1482c7",
      "blockNumber": 121874,
      "transactionIndex": 1,
      "confirmations": null,
      "from": "0xe6A7a1d47ff21B6321162AEA7C6CB457D5476Bca",
      "gasPrice": {
        "_hex": "0xba43b7400"
      },
      "gasLimit": {
        "_hex": "0x55f0"
      },
      "to": "0xC711d87af18Db9a7EbE2CFB279b73c8785E55d41",
      "value": {
        "_hex": "0x1d1bd4e765fe8210"
      },
      "nonce": 6494,
      "data": "0x",
      "r": "0x1eaf9be06fe53b618cfb8570a4547d15c602b5599f9cf443c7b5cc76e3cc926b",
      "s": "0x7d532f326116706477de8ab057262840a88b172b30f28cc0b9b601026e891ae3",
      "v": 27,
      "creates": null,
      "raw": "0xf86e82195e850ba43b74008255f094c711d87af18db9a7ebe2cfb279b73c8785e55d41881d1bd4e765fe8210801ba01eaf9be06fe53b618cfb8570a4547d15c602b5599f9cf443c7b5cc76e3cc926ba07d532f326116706477de8ab057262840a88b172b30f28cc0b9b601026e891ae3",
      "networkId": 0,
      "chainId": 0
    },
    {
      "hash": "0x5aee9d89b68892bac0d74f83363139aac7b5c7922acab4f5981221cd00525a4d",
      "blockHash": "0x1927306c6f20b7c9a4ace0a8a86aea8e0f46c86b6db5c441c66ed3de5f1482c7",
      "blockNumber": 121874,
      "transactionIndex": 2,
      "confirmations": null,
      "from": "0x64916978a6c23c21Ce9526E4eE9a2A6077dD0e01",
      "gasPrice": {
        "_hex": "0xba43b7400"
      },
      "gasLimit": {
        "_hex": "0x5208"
      },
      "to": "0xFBb1b73C4f0BDa4f67dcA266ce6Ef42f520fBB98",
      "value": {
        "_hex": "0xddcfbbb7a606000"
      },
      "nonce": 3,
      "data": "0x",
      "r": "0x56784a8d4965fa58166a4ac95987915a4097d6990aa3f69f67cde741b2932fa3",
      "s": "0x4b0b70ffd647ff9e1ef51d18c9da969f57bb83a9078a154908a7c7572ae40d26",
      "v": 28,
      "creates": null,
      "raw": "0xf86c03850ba43b740082520894fbb1b73c4f0bda4f67dca266ce6ef42f520fbb98880ddcfbbb7a606000801ca056784a8d4965fa58166a4ac95987915a4097d6990aa3f69f67cde741b2932fa3a04b0b70ffd647ff9e1ef51d18c9da969f57bb83a9078a154908a7c7572ae40d26",
      "networkId": 0,
      "chainId": 0
    }
  ]
}