{
  "hash": "0xc58caa22aa9ab7583f8b4bdd0aaf4b89d3855fa8fb58f613ab9bbc81343001b5",
  "parentHash": "0x09403503bd1fc7f603c3292907374bd0a957eef3ed77bbcbe7b9424c245a65a7",
  "number": 105940,
  "timestamp": 1439895920,
  "nonce": "0x07ceff116359f2e1",
  "difficulty": 4466461843240,
  "gasLimit": {
    "_hex": "0x2fefd8"
  },
  "gasUsed": {
    "_hex": "0x1b497"
  },
  "miner": "0xa70a9a7040d542C632D8e0bE7c5513A8a5Bbc752",
  "extraData": "0x",
  "transactions": [
    {
      "hash": "0x1d846793646308ad6e6b6cdb2e4187a78902c95fac4d5092cb9ac906b126d462",
      "blockHash": "0xc58caa22aa9ab7583f8b4bdd0aaf4b89d3855fa8fb58f613ab9bbc81343001b5",
      "blockNumber": 105940,
      "transactionIndex": 0,
      "confirmations": null,
      "from": "0x87C5B5874A18B4306DF8a752a6C8cc3E82daFc19",
      "gasPrice": {
        "_hex": "0x109b825c01a"
      },
      "gasLimit": {
        "_hex": "0x493e0"
      },
      "to": "0xD79B4C6791784184e2755B2fC1659eaaB0f80456",
      "value": {
        "_hex": "0x1a0af1a4e5b31637"
      },
      "nonce": 306,
      "data": "0x8d2161860000000000000000000000000000000000000000000000000000000000000007d3d96ceed0cfca4794c2a5a3d3aeefe69da0a2a669e66a5651f30b64831c3db0",
      "r": "0x7e1bbe2532335ce2c6d5151e122f9c0b6f61f3dabe8359820c323b9aabdb739c",
      "s": "0x7d3c081679a7f9610b39f2717244c413420c387ce98e1ceb4e042d21d7807377",
      "v": 27,
      "creates": null,
      "raw": "0xf8b5820132860109b825c01a830493e094d79b4c6791784184e2755b2fc1659eaab0f80456881a0af1a4e5b31637b8448d2161860000000000000000000000000000000000000000000000000000000000000007d3d96ceed0cfca4794c2a5a3d3aeefe69da0a2a669e66a5651f30b64831c3db01ba07e1bbe2532335ce2c6d5151e122f9c0b6f61f3dabe8359820c323b9aabdb739ca07d3c081679a7f9610b39f2717244c413420c387ce98e1ceb4e042d21d7807377",
      "networkId": 0,
      "chainId": 0
    }
  ]
}