{
  "hash": "0x47670565a7bb961499eb99fa4906508797ceaee5d9b054a451201309376a02a5",
  "parentHash": "0xcc3c0260ede504eb4d807f5bf53197fec9ccc3df39ffea6f1be261fd81f8d403",
  "number": 117422,
  "timestamp": 1440109174,
  "nonce": "0x6740c3c37b13d62d",
  "difficulty": 4310475012732,
  "gasLimit": {
    "_hex": "0x2fefd8"
  },
  "gasUsed": {
    "_hex": "0x5208"
  },
  "miner": "0xe6A7a1d47ff21B6321162AEA7C6CB457D5476Bca",
  "extraData": "0xd783010002844765746887676f312e342e32856c696e7578",
  "transactions": [
    {
      "hash": "0xba0453631e42e4706d40e9972d297450ff2a1a78471b4c78bd43fc1dbec0df33",
      "blockHash": "0x47670565a7bb961499eb99fa4906508797ceaee5d9b054a451201309376a02a5",
      "blockNumber": 117422,
      "transactionIndex": 0,
      "confirmations": null,
      "from": "0xaC49eeb6a55aF554D86d37b4A4eA7940010866E1",
      "gasPrice": {
        "_hex": "0xba43b7400"
      },
      "gasLimit": {
        "_hex": "0x15f90"
      },
      "to": "0x063814ec45404958A5e6D30b59ea5D95bB9972E0",
      "value": {
        "_hex": "0x6f05b59d3b20000"
      },
      "nonce": 10,
      "data": "0x",
      "r": "0x1d2c3b95a2099febf5c91eda67efdb7bec11c549a507413801172ff61f7903da",
      "s": "0x7aeb5d57e2ace18c8c862fd53faa800572744fe3635cbc629383638fb4dfb7ca",
      "v": 27,
      "creates": null,
      "raw": "0xf86d0a850ba43b740083015f9094063814ec45404958a5e6d30b59ea5d95bb9972e08806f05b59d3b20000801ba01d2c3b95a2099febf5c91eda67efdb7bec11c549a507413801172ff61f7903daa07aeb5d57e2ace18c8c862fd53faa800572744fe3635cbc629383638fb4dfb7ca",
      "networkId": 0,
      "chainId": 0
    }
  ]
}