{
  "hash": "0x29c724da92ac3d66fef7015346d614f91eda83c05038202d79e9e2b376fbb51d",
  "parentHash": "0x61188c1d3003213361251d7524fa292dcb800dce1990f9a24e53fb3c41cd1330",
  "number": 101159,
  "timestamp": 1439818275,
  "nonce": "0xf11799262707c41c",
  "difficulty": 3873273764201,
  "gasLimit": {
    "_hex": "0x2fefd8"
  },
  "gasUsed": {
    "_hex": "0x5208"
  },
  "miner": "0x9746c7e1ef2bd21FF3997fa467593a89cb852BD0",
  "extraData": "0x476574682f76312e302e312f77696e646f77732f676f312e342e32",
  "transactions": [
    {
      "hash": "0xa5d95a43be0d174c52281c26e1241ce72156f59983f6a54e032a7129b212d020",
      "blockHash": "0x29c724da92ac3d66fef7015346d614f91eda83c05038202d79e9e2b376fbb51d",
      "blockNumber": 101159,
      "transactionIndex": 0,
      "confirmations": null,
      "from": "0x72bb27Cb99f3E2C2CF90A98F707d30E4A201A071",
      "gasPrice": {
        "_hex": "0xd641f460d"
      },
      "gasLimit": {
        "_hex": "0x15f90"
      },
      "to": "0x6896e22C387dc77Eef9566aaecbf584a65130067",
      "value": {
        "_hex": "0xd8d726b7177a80000"
      },
      "nonce": 3,
      "data": "0x",
      "r": "0x761e9282ac0636a8f232e0994fe1563b30a18170a2daf46279f08eb2970fc99a",
      "s": "0x10f64727cd2f9a9b97798053848f48a7c1fcd43d681889ff114161d89dce17f9",
      "v": 28,
      "creates": null,
      "raw": "0xf86e03850d641f460d83015f90946896e22c387dc77eef9566aaecbf584a65130067890d8d726b7177a80000801ca0761e9282ac0636a8f232e0994fe1563b30a18170a2daf46279f08eb2970fc99aa010f64727cd2f9a9b97798053848f48a7c1fcd43d681889ff114161d89dce17f9",
      "networkId": 0,
      "chainId": 0
    }
  ]
}