{
  "hash": "0xa2e7b718312940c83c61c8f6a0a63900aee6545916e9e9c520288dd8c6fcfce3",
  "parentHash": "0x22f5f308ac35e415603e7fbc74656587bd6ae5db03c840ec39628d78d23c4a0f",
  "number": 75147,
  "timestamp": 1439398411,
  "nonce": "0x391f99f5b2ad2f60",
  "difficulty": 2198697134247,
  "gasLimit": {
    "_hex": "0x2fefd8"
  },
  "gasUsed": {
    "_hex": "0xad77"
  },
  "miner": "0xe6A7a1d47ff21B6321162AEA7C6CB457D5476Bca",
  "extraData": "0x476574682f76312e302e312d38326566323666362f6c696e75782f676f312e34",
  "transactions": [
    {
      "hash": "0xcb916236e7b4959b9d5012a1412d68202b67b19c5cfbd729098638aaf4f7e496",
      "blockHash": "0xa2e7b718312940c83c61c8f6a0a63900aee6545916e9e9c520288dd8c6fcfce3",
      "blockNumber": 75147,
      "transactionIndex": 0,
      "confirmations": null,
      "from": "0x87C5B5874A18B4306DF8a752a6C8cc3E82daFc19",
      "gasPrice": {
        "_hex": "0x11536ca92cf"
      },
      "gasLimit": {
        "_hex": "0x493e0"
      },
      "to": "0xD79B4C6791784184e2755B2fC1659eaaB0f80456",
      "value": {
        "_hex": "0x0"
      },
      "nonce": 34,
      "data": "0x03750d94000000000000000000000000326be8f71bfb0379f989aab1cc1fe37f0a771f606533643961626563306238393862326600000000000000000000000000000000",
      "r": "0x56798470b86b165578876435a1bb83e3b9f16c64fc57bf40b48b98a50a20fe57",
      "s": "0x4d22cca42b3436c223e55ec2b1772392d2bc3452dcea7e6207f50f85147c13a7",
      "v": 27,
      "creates": null,
      "raw": "0xf8ab2286011536ca92cf830493e094d79b4c6791784184e2755b2fc1659eaab0f8045680b84403750d94000000000000000000000000326be8f71bfb0379f989aab1cc1fe37f0a771f6065336439616265633062383938623266000000000000000000000000000000001ba056798470b86b165578876435a1bb83e3b9f16c64fc57bf40b48b98a50a20fe57a04d22cca42b3436c223e55ec2b1772392d2bc3452dcea7e6207f50f85147c13a7",
      "networkId": 0,
      "chainId": 0
    }
  ]
}