{
  "hash": "0xed4a32790f9dce9b96f3e3c8636104b921c7eeb12e18bf63e3824f3792ddac64",
  "parentHash": "0x4ab7cac31f148e7bf3505cc9d6c1dafdb64311fb22fbd1ff2d86c7fe11f3768e",
  "number": 69322,
  "timestamp": 1439301955,
  "nonce": "0x0ab4c63a87f299fc",
  "difficulty": 2061879521778,
  "gasLimit": {
    "_hex": "0x2fefd8"
  },
  "gasUsed": {
    "_hex": "0x546c"
  },
  "miner": "0xeB1325C8D9d3ea8D74aC11F4B00F1B2367686319",
  "extraData": "0x476574682f76312e302e312f77696e646f77732f676f312e342e32",
  "transactions": [
    {
      "hash": "0x841b2c065d08b23dd812ccc0ca3aa565e4843840b095634e88ae368c5a6732c7",
      "blockHash": "0xed4a32790f9dce9b96f3e3c8636104b921c7eeb12e18bf63e3824f3792ddac64",
      "blockNumber": 69322,
      "transactionIndex": 0,
      "confirmations": null,
      "from": "0x837A2A346557050c8cF0fb24b84Aa695E8Add19f",
      "gasPrice": {
        "_hex": "0xd5bec21a0"
      },
      "gasLimit": {
        "_hex": "0x55f0"
      },
      "to": "0x2910543Af39abA0Cd09dBb2D50200b3E800A63D2",
      "value": {
        "_hex": "0x340aad21b3b700000"
      },
      "nonce": 0,
      "data": "0x454e415157474e5a38",
      "r": "0xdf151251372ce9169c3119e47c1837cc00e0ae11058eb2eeb454fce0298afc59",
      "s": "0x0c3838ae0a16f5117cdda140be560b1e674845d70c6928185c940cf1f40ce23f",
      "v": 28,
      "creates": null,
      "raw": "0xf87680850d5bec21a08255f0942910543af39aba0cd09dbb2d50200b3e800a63d2890340aad21b3b70000089454e415157474e5a381ca0df151251372ce9169c3119e47c1837cc00e0ae11058eb2eeb454fce0298afc59a00c3838ae0a16f5117cdda140be560b1e674845d70c6928185c940cf1f40ce23f",
      "networkId": 0,
      "chainId": 0
    }
  ]
}