{
  "hash": "0xf06ab927fc70a20fd61afdb25fc1f7988e898d72035fd06f1e565e5b1ebb5b83",
  "parentHash": "0xabdc0f25ffc026ffa3844ac5ec789ce321b9943308e93b581cea766ef266f5f9",
  "number": 104624,
  "timestamp": 1439872762,
  "nonce": "0xcd9230fa887e5c21",
  "difficulty": 4363680876085,
  "gasLimit": {
    "_hex": "0x2fefd8"
  },
  "gasUsed": {
    "_hex": "0xa410"
  },
  "miner": "0xf927a40C8B7F6E07c5af7FA2155B4864a4112B13",
  "extraData": "0x",
  "transactions": [
    {
      "hash": "0xe8c2a290d3760a6bf959fd2658cf4628109bdb8b2ba41ab8d191fc78202df894",
      "blockHash": "0xf06ab927fc70a20fd61afdb25fc1f7988e898d72035fd06f1e565e5b1ebb5b83",
      "blockNumber": 104624,
      "transactionIndex": 0,
      "confirmations": null,
      "from": "0x5A694aBD48819983b807355F679a5508B089C262",
      "gasPrice": {
        "_hex": "0xcbf4eb7d0"
      },
      "gasLimit": {
        "_hex": "0x5208"
      },
      "to": "0x32Be343B94f860124dC4fEe278FDCBD38C102D88",
      "value": {
        "_hex": "0x8e113db2d36608000"
      },
      "nonce": 0,
      "data": "0x",
      "r": "0x24f6da2cda0cc3e8593b1bcd93fc37b9069a84d2752fcfea559f2f0e71a61b02",
      "s": "0x126bc231361eea95c475a9b96c464020365d7f82894976ed87cc5f28da90d014",
      "v": 27,
      "creates": null,
      "raw": "0xf86d80850cbf4eb7d08252089432be343b94f860124dc4fee278fdcbd38c102d888908e113db2d36608000801ba024f6da2cda0cc3e8593b1bcd93fc37b9069a84d2752fcfea559f2f0e71a61b02a0126bc231361eea95c475a9b96c464020365d7f82894976ed87cc5f28da90d014",
      "networkId": 0,
      "chainId": 0
    },
    {
      "hash": "0xe2a47cdcd5c383c511d309c7ee542e952a73e131f31c12c5b67fb1399cca9d5a",
      "blockHash": "0xf06ab927fc70a20fd61afdb25fc1f7988e898d72035fd06f1e565e5b1ebb5b83",
      "blockNumber": 104624,
      "transactionIndex": 1,
      "confirmations": null,
      "from": "0xa70a9a7040d542C632D8e0bE7c5513A8a5Bbc752",
      "gasPrice": {
        "_hex": "0xcbf4eb7d0"
      },
      "gasLimit": {
        "_hex": "0x5208"
      },
      "to": "0x32Be343B94f860124dC4fEe278FDCBD38C102D88",
      "value": {
        "_hex": "0x8ac30d5829ab3000"
      },
      "nonce": 235,
      "data": "0x",
      "r": "0x8544840226e62f25ae6568fac20e82138f15d3910f5b61e4423be24dfc5b6393",
      "s": "0x55f9bed024ad897567380d4ab5af304606d4c3d36f9dbd2817078bfcbcbd4d3c",
      "v": 27,
      "creates": null,
      "raw": "0xf86d81eb850cbf4eb7d08252089432be343b94f860124dc4fee278fdcbd38c102d88888ac30d5829ab3000801ba08544840226e62f25ae6568fac20e82138f15d3910f5b61e4423be24dfc5b6393a055f9bed024ad897567380d4ab5af304606d4c3d36f9dbd2817078bfcbcbd4d3c",
      "networkId": 0,
      "chainId": 0
    }
  ]
}