{
  "hash": "0xfe3c056be504455845db53a55ee7fd78aca7e4d37bcb5d32082a76299a92631e",
  "parentHash": "0x8cc44ff28acbbaee46aa3ac082608bedd9cad92bec4269978fb3b8a721e9b598",
  "number": 114668,
  "timestamp": 1440044295,
  "nonce": "0xaf316b011b960747",
  "difficulty": 4488037294054,
  "gasLimit": {
    "_hex": "0x2fefd8"
  },
  "gasUsed": {
    "_hex": "0x5208"
  },
  "miner": "0xe6A7a1d47ff21B6321162AEA7C6CB457D5476Bca",
  "extraData": "0x476574682f76312e302e312d38326566323666362f6c696e75782f676f312e34",
  "transactions": [
    {
      "hash": "0x32af799d22c52e3ab68db991520ce6bed90a52463babe2345153d545eb32eb52",
      "blockHash": "0xfe3c056be504455845db53a55ee7fd78aca7e4d37bcb5d32082a76299a92631e",
      "blockNumber": 114668,
      "transactionIndex": 0,
      "confirmations": null,
      "from": "0xb0322e042c6d3062151184d90a8451Db8e76E6C3",
      "gasPrice": {
        "_hex": "0xd3d37f23a"
      },
      "gasLimit": {
        "_hex": "0x15f90"
      },
      "to": "0xa8E7201ff619fAFFc332E6aD37Ed41e301bf014a",
      "value": {
        "_hex": "0xde0b6b3a7640000"
      },
      "nonce": 0,
      "data": "0x",
      "r": "0xf56eca0d248bafaeec493f83b371318e46fc5055b1576fcb14acbbb071ae7f75",
      "s": "0x3b3b42588a0694fca021f7a3c72c5c784d60e1e97f702c4bdb68a11d7bdf91fe",
      "v": 28,
      "creates": null,
      "raw": "0xf86d80850d3d37f23a83015f9094a8e7201ff619faffc332e6ad37ed41e301bf014a880de0b6b3a7640000801ca0f56eca0d248bafaeec493f83b371318e46fc5055b1576fcb14acbbb071ae7f75a03b3b42588a0694fca021f7a3c72c5c784d60e1e97f702c4bdb68a11d7bdf91fe",
      "networkId": 0,
      "chainId": 0
    }
  ]
}