{
  "hash": "0x35dfc6eb7237a0996b8f520960bd3c1b97d6267ad41de1737422805040dc7a66",
  "parentHash": "0xc621cb91ce66704e906225fe34a6c03583ae898ffe48c898ffe9816827afa1ee",
  "number": 47152,
  "timestamp": 1438935007,
  "nonce": "0xfff895752add449b",
  "difficulty": 1461672183405,
  "gasLimit": {
    "_hex": "0x9c75"
  },
  "gasUsed": {
    "_hex": "0x5208"
  },
  "miner": "0x785ffdDd5cE55c6DF963f345e68d3F2024E5Acb1",
  "extraData": "0x476574682f4d69676e6f7474652f76312e302e312f6c696e75782f676f312e34",
  "transactions": [
    {
      "hash": "0x5f59b67f4f3658436a304ca335681b6e613b1afc21b1d04e1782ac20a5aa7c4c",
      "blockHash": "0x35dfc6eb7237a0996b8f520960bd3c1b97d6267ad41de1737422805040dc7a66",
      "blockNumber": 47152,
      "transactionIndex": 0,
      "confirmations": null,
      "from": "0xe6A7a1d47ff21B6321162AEA7C6CB457D5476Bca",
      "gasPrice": {
        "_hex": "0xd9b906c35"
      },
      "gasLimit": {
        "_hex": "0x5208"
      },
      "to": "0x8C0289BE956871067742EcFCd1E7797f313eC7D4",
      "value": {
        "_hex": "0x402db4806e5c6168"
      },
      "nonce": 56,
      "data": "0x",
      "r": "0xd8bafcb41b741dafc386420672c3757f40f00bea29792d8b6857529c01574206",
      "s": "0x48cc0807c13ed05d672baedd20423ebe9597cb8ef737d6a47403ea79e7c655cb",
      "v": 27,
      "creates": null,
      "raw": "0xf86c38850d9b906c35825208948c0289be956871067742ecfcd1e7797f313ec7d488402db4806e5c6168801ba0d8bafcb41b741dafc386420672c3757f40f00bea29792d8b6857529c01574206a048cc0807c13ed05d672baedd20423ebe9597cb8ef737d6a47403ea79e7c655cb",
      "networkId": 0,
      "chainId": 0
    }
  ]
}