{
  "hash": "0xda88c12c85724a7200e0b08b5917a47cc6790a812d869e12f6961878cafd7c6c",
  "parentHash": "0x52e93b139f12320fd02177f9ebea8e12d178fc220bb53e735d715c306d008c7e",
  "number": 61401,
  "timestamp": 1439171846,
  "nonce": "0xccf667ab876880b7",
  "difficulty": 1733679091551,
  "gasLimit": {
    "_hex": "0x2fefd8"
  },
  "gasUsed": {
    "_hex": "0xa410"
  },
  "miner": "0x7aAaa306d4a7Fd1696A82A66cc538D29f5af4e39",
  "extraData": "0x476574682f76312e302e312f6c696e75782f676f312e342e32",
  "transactions": [
    {
      "hash": "0x6cd179f71710e3dc4c8825da9818847a27426aca7ac11186f4003c376f601122",
      "blockHash": "0xda88c12c85724a7200e0b08b5917a47cc6790a812d869e12f6961878cafd7c6c",
      "blockNumber": 61401,
      "transactionIndex": 0,
      "confirmations": null,
      "from": "0x32Be343B94f860124dC4fEe278FDCBD38C102D88",
      "gasPrice": {
        "_hex": "0xcfca65eb2"
      },
      "gasLimit": {
        "_hex": "0x5208"
      },
      "to": "0x120A270bbC009644e35F0bB6ab13f95b8199c4ad",
      "value": {
        "_hex": "0x5150ae84a8cdf00000"
      },
      "nonce": 139,
      "data": "0x",
      "r": "0x045f07635b6d09764a7134d01785219101ca8733414cf77fb27ca4a741f7bb70",
      "s": "0x2a57a94261bf23e2a9dd54913385725f8477c3b1f7b2fe21f18b6c24bad5ef4e",
      "v": 27,
      "creates": null,
      "raw": "0xf86e818b850cfca65eb282520894120a270bbc009644e35f0bb6ab13f95b8199c4ad895150ae84a8cdf00000801ba0045f07635b6d09764a7134d01785219101ca8733414cf77fb27ca4a741f7bb70a02a57a94261bf23e2a9dd54913385725f8477c3b1f7b2fe21f18b6c24bad5ef4e",
      "networkId": 0,
      "chainId": 0
    },
    {
      "hash": "0x5b29f2a849bbdea255c9dda97a01028547fea9e0c35050e3a8850208cac1b366",
      "blockHash": "0xda88c12c85724a7200e0b08b5917a47cc6790a812d869e12f6961878cafd7c6c",
      "blockNumber": 61401,
      "transactionIndex": 1,
      "confirmations": null,
      "from": "0x0152109Fa464302AC3674853E8A99353309937AF",
      "gasPrice": {
        "_hex": "0xcfca65eb2"
      },
      "gasLimit": {
        "_hex": "0x5208"
      },
      "to": "0x32Be343B94f860124dC4fEe278FDCBD38C102D88",
      "value": {
        "_hex": "0xc3adbd87f54400"
      },
      "nonce": 0,
      "data": "0x",
      "r": "0x56076ae441831d74e858fa158fb518e9690034711ad9f6be2f13526983c5434c",
      "s": "0x1c9bf8fa6d3cc2e50b0238cf07e27f42f5b8f70afb8a8d6accfc6fa6b14c494f",
      "v": 27,
      "creates": null,
      "raw": "0xf86b80850cfca65eb28252089432be343b94f860124dc4fee278fdcbd38c102d8887c3adbd87f54400801ba056076ae441831d74e858fa158fb518e9690034711ad9f6be2f13526983c5434ca01c9bf8fa6d3cc2e50b0238cf07e27f42f5b8f70afb8a8d6accfc6fa6b14c494f",
      "networkId": 0,
      "chainId": 0
    }
  ]
}