{
  "hash": "0xd1ddb48be915f72b7e87cc35cf7b3c164e71ec595bc41a66e02eb3e6384f34b8",
  "parentHash": "0xdc7daeead94f726177568595771854d8c802c91d3374f4ed34ccdfc9536100f8",
  "number": 105522,
  "timestamp": 1439889022,
  "nonce": "0x6402a0531d8d2570",
  "difficulty": 4397434881699,
  "gasLimit": {
    "_hex": "0x2fefd8"
  },
  "gasUsed": {
    "_hex": "0x5208"
  },
  "miner": "0x580992B51e3925e23280EfB93d3047C82f17E038",
  "extraData": "0x476574682f76312e302e312f6c696e75782f676f312e342e32",
  "transactions": [
    {
      "hash": "0x5aa57ca326fbe4d7cbf666684db17e13ebaedc93ef652e0c73b32b3deab09c2c",
      "blockHash": "0xd1ddb48be915f72b7e87cc35cf7b3c164e71ec595bc41a66e02eb3e6384f34b8",
      "blockNumber": 105522,
      "transactionIndex": 0,
      "confirmations": null,
      "from": "0xa70a9a7040d542C632D8e0bE7c5513A8a5Bbc752",
      "gasPrice": {
        "_hex": "0xcb4b9c792"
      },
      "gasLimit": {
        "_hex": "0x5208"
      },
      "to": "0x32Be343B94f860124dC4fEe278FDCBD38C102D88",
      "value": {
        "_hex": "0x8cee2d465d1a2000"
      },
      "nonce": 243,
      "data": "0x",
      "r": "0x055b2ac57a638e8a8b246eeb684af9e7f7a0a8545e1a641026a1b1ebf2c1bef8",
      "s": "0x721a49dd406cd25d9af8f731a213eed331d57b19278ab1d7e1d288b4a553c2ed",
      "v": 27,
      "creates": null,
      "raw": "0xf86d81f3850cb4b9c7928252089432be343b94f860124dc4fee278fdcbd38c102d88888cee2d465d1a2000801ba0055b2ac57a638e8a8b246eeb684af9e7f7a0a8545e1a641026a1b1ebf2c1bef8a0721a49dd406cd25d9af8f731a213eed331d57b19278ab1d7e1d288b4a553c2ed",
      "networkId": 0,
      "chainId": 0
    }
  ]
}