{
  "hash": "0x427714288ad0f5b47d4ec6dd8d0fd2a2e7d4528a1f5488f431ed5a6c5aa350bb",
  "parentHash": "0x136a67586854114e39ecd01593d6a28747b38d86e8f821c8b9725e8b11d69375",
  "number": 89798,
  "timestamp": 1439629367,
  "nonce": "0xd2d0c06102eea2f5",
  "difficulty": 3335342931274,
  "gasLimit": {
    "_hex": "0x2fefd8"
  },
  "gasUsed": {
    "_hex": "0xa410"
  },
  "miner": "0xe6A7a1d47ff21B6321162AEA7C6CB457D5476Bca",
  "extraData": "0x476574682f76312e302e312d38326566323666362f6c696e75782f676f312e34",
  "transactions": [
    {
      "hash": "0xae7171032949abbfb7730821d4e738616b99a53dbda097d3ad43295d050ec8f0",
      "blockHash": "0x427714288ad0f5b47d4ec6dd8d0fd2a2e7d4528a1f5488f431ed5a6c5aa350bb",
      "blockNumber": 89798,
      "transactionIndex": 0,
      "confirmations": null,
      "from": "0xad74C8133300eB63De8d69A384B1E8CcFe28DED7",
      "gasPrice": {
        "_hex": "0xd17e4a31a"
      },
      "gasLimit": {
        "_hex": "0x5208"
      },
      "to": "0x32Be343B94f860124dC4fEe278FDCBD38C102D88",
      "value": {
        "_hex": "0x3e6dfbc82e313000"
      },
      "nonce": 4,
      "data": "0x",
      "r": "0xdc55677dc9a3b16a863e054ef913b414b424ceb4e894f1020bb03bada5e117a5",
      "s": "0x0139b71e40cfba01377eb02bea634e0fee46bb8155bb670726b751474796b684",
      "v": 27,
      "creates": null,
      "raw": "0xf86c04850d17e4a31a8252089432be343b94f860124dc4fee278fdcbd38c102d88883e6dfbc82e313000801ba0dc55677dc9a3b16a863e054ef913b414b424ceb4e894f1020bb03bada5e117a5a00139b71e40cfba01377eb02bea634e0fee46bb8155bb670726b751474796b684",
      "networkId": 0,
      "chainId": 0
    },
    {
      "hash": "0x814cffbe504f82bec73d089cff30d177953c96c0089ca74bb8261e609ba9e813",
      "blockHash": "0x427714288ad0f5b47d4ec6dd8d0fd2a2e7d4528a1f5488f431ed5a6c5aa350bb",
      "blockNumber": 89798,
      "transactionIndex": 1,
      "confirmations": null,
      "from": "0x2118baa5B9d6423676CF5502Eb6eaeD859228c33",
      "gasPrice": {
        "_hex": "0xd17e4a31a"
      },
      "gasLimit": {
        "_hex": "0x5208"
      },
      "to": "0x32Be343B94f860124dC4fEe278FDCBD38C102D88",
      "value": {
        "_hex": "0x3f5def6afc2e1000"
      },
      "nonce": 4,
      "data": "0x",
      "r": "0x7c990544fd90cf0a08d1d0314daa3c866c7188157268de8e75a2a2745d3842d1",
      "s": "0x29521651fb5af14341e9b8188bf102991490e29c3f93b252c51d37278eb5e087",
      "v": 27,
      "creates": null,
      "raw": "0xf86c04850d17e4a31a8252089432be343b94f860124dc4fee278fdcbd38c102d88883f5def6afc2e1000801ba07c990544fd90cf0a08d1d0314daa3c866c7188157268de8e75a2a2745d3842d1a029521651fb5af14341e9b8188bf102991490e29c3f93b252c51d37278eb5e087",
      "networkId": 0,
      "chainId": 0
    }
  ]
}