{
  "hash": "0x8111c5c2591103f3cba559df1aa654f3ec2d0749d8d13db28072452495eb2f6d",
  "parentHash": "0x80394ff4e95ddf0389a53e6c9a98743009d4268ddf300bac454caa223c7fd66c",
  "number": 101775,
  "timestamp": 1439827899,
  "nonce": "0x56cbfc369cfd1916",
  "difficulty": 3880561173667,
  "gasLimit": {
    "_hex": "0x2fefd8"
  },
  "gasUsed": {
    "_hex": "0xa410"
  },
  "miner": "0x60a175bB691fEE8557a7b6D8eFC9E49889486f41",
  "extraData": "0x476574682f76312e302e312f77696e646f77732f676f312e342e32",
  "transactions": [
    {
      "hash": "0xc0af0601cceceaa4910588bed60bcb3a402ea52821197456b7a3ba85be80d3a7",
      "blockHash": "0x8111c5c2591103f3cba559df1aa654f3ec2d0749d8d13db28072452495eb2f6d",
      "blockNumber": 101775,
      "transactionIndex": 0,
      "confirmations": null,
      "from": "0xf2cC0eEAAAeD313542CB262B0B8c3972425143f0",
      "gasPrice": {
        "_hex": "0xd853095d3"
      },
      "gasLimit": {
        "_hex": "0x5208"
      },
      "to": "0x32Be343B94f860124dC4fEe278FDCBD38C102D88",
      "value": {
        "_hex": "0x453bb57a8120bc00"
      },
      "nonce": 13,
      "data": "0x",
      "r": "0x380aef1beff276592223b8d02d782101e7c21bf081183c3f71a9070f298a45d8",
      "s": "0x2e89062173517bd3df1bc936607299967b18c4bfc5c7c0f7404e93bc2a9fbb11",
      "v": 27,
      "creates": null,
      "raw": "0xf86c0d850d853095d38252089432be343b94f860124dc4fee278fdcbd38c102d8888453bb57a8120bc00801ba0380aef1beff276592223b8d02d782101e7c21bf081183c3f71a9070f298a45d8a02e89062173517bd3df1bc936607299967b18c4bfc5c7c0f7404e93bc2a9fbb11",
      "networkId": 0,
      "chainId": 0
    },
    {
      "hash": "0xf41db4140c871e3571395cbf01f8fee155affe5f42a7cf50cdf5653019090266",
      "blockHash": "0x8111c5c2591103f3cba559df1aa654f3ec2d0749d8d13db28072452495eb2f6d",
      "blockNumber": 101775,
      "transactionIndex": 1,
      "confirmations": null,
      "from": "0xe7B79D2Fd13B6F1aEfF4274e8a17364219e00D01",
      "gasPrice": {
        "_hex": "0xd853095d3"
      },
      "gasLimit": {
        "_hex": "0x5208"
      },
      "to": "0x32Be343B94f860124dC4fEe278FDCBD38C102D88",
      "value": {
        "_hex": "0xd8b00cb8df1940000"
      },
      "nonce": 2,
      "data": "0x",
      "r": "0x48e74b7196c433fa35a140d3dea9e87de56452327aa1cde8b85581ccaa6736c2",
      "s": "0x0586a4eeb28e6fe2b54ed27d6a7ae16abe9416b95604b1237d89bcd79503e288",
      "v": 27,
      "creates": null,
      "raw": "0xf86d02850d853095d38252089432be343b94f860124dc4fee278fdcbd38c102d88890d8b00cb8df1940000801ba048e74b7196c433fa35a140d3dea9e87de56452327aa1cde8b85581ccaa6736c2a00586a4eeb28e6fe2b54ed27d6a7ae16abe9416b95604b1237d89bcd79503e288",
      "networkId": 0,
      "chainId": 0
    }
  ]
}