{
  "hash": "0xd23774fb0762860a1b6cd5fe7fc5495cb0ab811406e39c0ac0778bd4de187414",
  "parentHash": "0xd5944d363adf4d1f61c386e7c473244f297844225153435619c2d961dd38cadf",
  "number": 47075,
  "timestamp": 1438933976,
  "nonce": "0xec89d6f3e148fc18",
  "difficulty": 1452436707311,
  "gasLimit": {
    "_hex": "0x94b1"
  },
  "gasUsed": {
    "_hex": "0x5208"
  },
  "miner": "0xcd39cBcF71Ff4e9592F94db59db4ff45e34b174f",
  "extraData": "0x476574682f76312e302e312f6c696e75782f676f312e342e32",
  "transactions": [
    {
      "hash": "0xe6a86090cd382f1019f0e0f1972b5d4eeab3121de14f6409661a3e7ab41c843e",
      "blockHash": "0xd23774fb0762860a1b6cd5fe7fc5495cb0ab811406e39c0ac0778bd4de187414",
      "blockNumber": 47075,
      "transactionIndex": 0,
      "confirmations": null,
      "from": "0xebDc6dD87D3a9840bC68c0266f06122234430DBb",
      "gasPrice": {
        "_hex": "0xda595f31b"
      },
      "gasLimit": {
        "_hex": "0x88b8"
      },
      "to": "0x000c6F10734a65699707b23ba5b51754AA853845",
      "value": {
        "_hex": "0xe8d4a51000"
      },
      "nonce": 2,
      "data": "0x",
      "r": "0xa8b697a2b850cc282b6142139659146ffd55e771fbea7c27d6ae47022821307c",
      "s": "0x6b7234a026dabc14b4b9d85797c0ce69575aa012d13f21c3a82982c3cfdb1bb4",
      "v": 27,
      "creates": null,
      "raw": "0xf86902850da595f31b8288b894000c6f10734a65699707b23ba5b51754aa85384585e8d4a51000801ba0a8b697a2b850cc282b6142139659146ffd55e771fbea7c27d6ae47022821307ca06b7234a026dabc14b4b9d85797c0ce69575aa012d13f21c3a82982c3cfdb1bb4",
      "networkId": 0,
      "chainId": 0
    }
  ]
}