{
  "hash": "0xa8cf4fcc5f333872229f550e7eab19ed7dacb5237da48f84e051077854a482c5",
  "parentHash": "0xa666590d5281fdce742be06cbd7f32e6d57ac8ce0d997954fdd97f57f9bf49ee",
  "number": 62532,
  "timestamp": 1439190321,
  "nonce": "0xda49428ce3a29ab3",
  "difficulty": 1768497825388,
  "gasLimit": {
    "_hex": "0x2fefd8"
  },
  "gasUsed": {
    "_hex": "0xddfd"
  },
  "miner": "0xf927a40C8B7F6E07c5af7FA2155B4864a4112B13",
  "extraData": "0x476574682f76312e302e312f6c696e75782f676f312e342e32",
  "transactions": [
    {
      "hash": "0x6fcf1005b8d981a51ef70841fe21290a1bae4221fcae1157aee557de526e4fde",
      "blockHash": "0xa8cf4fcc5f333872229f550e7eab19ed7dacb5237da48f84e051077854a482c5",
      "blockNumber": 62532,
      "transactionIndex": 0,
      "confirmations": null,
      "from": "0x6B925dD5D8eD6132Ab6D0860b82C44e1a51F1fEe",
      "gasPrice": {
        "_hex": "0xd2d244d04"
      },
      "gasLimit": {
        "_hex": "0x61a80"
      },
      "to": "0x020522bF9B8eD6FF41E2fa6765a17E20E2767D64",
      "value": {
        "_hex": "0x56bc75e2d63100000"
      },
      "nonce": 8,
      "data": "0x",
      "r": "0xc763719ffc35b5c6f2056f453b6335fd1e2932477c6fc20a66c94d31afb6e009",
      "s": "0x33ea690f62beda3dda62a527c2dfd8c4caf81dd81ed3a96a4e457656882f653a",
      "v": 28,
      "creates": null,
      "raw": "0xf86e08850d2d244d0483061a8094020522bf9b8ed6ff41e2fa6765a17e20e2767d6489056bc75e2d63100000801ca0c763719ffc35b5c6f2056f453b6335fd1e2932477c6fc20a66c94d31afb6e009a033ea690f62beda3dda62a527c2dfd8c4caf81dd81ed3a96a4e457656882f653a",
      "networkId": 0,
      "chainId": 0
    }
  ]
}