{
  "hash": "0x337f6c135dccd22cb61f7a62683bd0164996a2230d340687b70a25961e456fcb",
  "parentHash": "0x012d8319b0e42956bf1d30e4f3cb19f6a9275b4a44b053f259746995ae609321",
  "number": 92438,
  "timestamp": 1439671947,
  "nonce": "0x221136bb42a7479f",
  "difficulty": 3525156584424,
  "gasLimit": {
    "_hex": "0x2fefd8"
  },
  "gasUsed": {
    "_hex": "0x5208"
  },
  "miner": "0xf8E0CA3Ed80bd541b94BEdCf259e8CF2141A9523",
  "extraData": "0x476574682f76312e302e312f77696e646f77732f676f312e342e32",
  "transactions": [
    {
      "hash": "0xfba3116ec222408d10b0a5821ad355bb1b93eaa4c1d35e184826d99a40d8627f",
      "blockHash": "0x337f6c135dccd22cb61f7a62683bd0164996a2230d340687b70a25961e456fcb",
      "blockNumber": 92438,
      "transactionIndex": 0,
      "confirmations": null,
      "from": "0xc8ebccC5F5689Fa8659d83713341e5aD19349448",
      "gasPrice": {
        "_hex": "0xd606428e3"
      },
      "gasLimit": {
        "_hex": "0x15f90"
      },
      "to": "0x0F87Fb507513e749081E34373c84E95e85b5c057",
      "value": {
        "_hex": "0xcff7719a4256a278"
      },
      "nonce": 68,
      "data": "0x",
      "r": "0x418d255c49f4af3775541d7b3d708b46bbd6b867ebe613bd34c7e10a620f2eef",
      "s": "0x3491452df1341d0f3aac8ce4e1e195f2240c8cd3b52593a99db864600705a9f6",
      "v": 27,
      "creates": null,
      "raw": "0xf86d44850d606428e383015f90940f87fb507513e749081e34373c84e95e85b5c05788cff7719a4256a278801ba0418d255c49f4af3775541d7b3d708b46bbd6b867ebe613bd34c7e10a620f2eefa03491452df1341d0f3aac8ce4e1e195f2240c8cd3b52593a99db864600705a9f6",
      "networkId": 0,
      "chainId": 0
    }
  ]
}