{
  "hash": "0xa22ddcfe66f467290cd854f0939a4fd6fb10b8f5388a497d3970932c2ecaa449",
  "parentHash": "0xea1f551456f9a710777b76ec0bfcba20eee3dd89ea04fca589df413c829c107a",
  "number": 70990,
  "timestamp": 1439328727,
  "nonce": "0x8e4fcb226c88d8f0",
  "difficulty": 2156186158007,
  "gasLimit": {
    "_hex": "0x2fefd8"
  },
  "gasUsed": {
    "_hex": "0xae73"
  },
  "miner": "0x0eDEd3DA479d0beF8eeC92A76644D3f4E3C177f7",
  "extraData": "0x476574682f76312e302e312f6c696e75782f676f312e342e32",
  "transactions": [
    {
      "hash": "0x3cb446d0066a206a0b5d71babc20872d8fffd539904542f577a30d50dc89f284",
      "blockHash": "0xa22ddcfe66f467290cd854f0939a4fd6fb10b8f5388a497d3970932c2ecaa449",
      "blockNumber": 70990,
      "transactionIndex": 0,
      "confirmations": null,
      "from": "0x17580B766f7453525ca4C6A88b01b50570EA088C",
      "gasPrice": {
        "_hex": "0xdded5c79b"
      },
      "gasLimit": {
        "_hex": "0x61a80"
      },
      "to": "0x5Fe5B7546D1628f7348B023A0393de1FC825A4fD",
      "value": {
        "_hex": "0x1bc16d674ec80000"
      },
      "nonce": 74,
      "data": "0xb595b8b50000000000000000000000000000000000000000000000000000000000000000",
      "r": "0x7714412a96af63bed3e5cb6f1032114cb56bdafd4abe93b809787b4b3466f0d6",
      "s": "0x6acd433416e4e7c76d28d7a4a1d0eae6f2ce949b141e9c6412b315d6a7ce77b0",
      "v": 27,
      "creates": null,
      "raw": "0xf8914a850dded5c79b83061a80945fe5b7546d1628f7348b023a0393de1fc825a4fd881bc16d674ec80000a4b595b8b500000000000000000000000000000000000000000000000000000000000000001ba07714412a96af63bed3e5cb6f1032114cb56bdafd4abe93b809787b4b3466f0d6a06acd433416e4e7c76d28d7a4a1d0eae6f2ce949b141e9c6412b315d6a7ce77b0",
      "networkId": 0,
      "chainId": 0
    }
  ]
}