{
  "hash": "0x33d16d4dd2ce9474210c11e2104d1f88691c8f1d27d16bb215b28ff59112c24c",
  "parentHash": "0xe466404a3b519a873c36b494f48633c40abfefd0733c71ea10e70033c6cee614",
  "number": 83618,
  "timestamp": 1439538044,
  "nonce": "0xb059ece5b5ae56b7",
  "difficulty": 2449152089041,
  "gasLimit": {
    "_hex": "0x2fefd8"
  },
  "gasUsed": {
    "_hex": "0x5208"
  },
  "miner": "0xF9634a7Ee627EeF74f4d803113CD4F87E5162079",
  "extraData": "0xdd809b302e392e34302b2b616339392d5257696e646f2f6d73762f4a4954",
  "transactions": [
    {
      "hash": "0x188715572a4be0ff2b594904fcc64a8d045a8f4ddb7cbd3ffc5aff6b7261edde",
      "blockHash": "0x33d16d4dd2ce9474210c11e2104d1f88691c8f1d27d16bb215b28ff59112c24c",
      "blockNumber": 83618,
      "transactionIndex": 0,
      "confirmations": null,
      "from": "0xa6BDc31c431B8F97848c9D60cbbe9660dc450eB7",
      "gasPrice": {
        "_hex": "0xdb63602d1"
      },
      "gasLimit": {
        "_hex": "0x5208"
      },
      "to": "0x32Be343B94f860124dC4fEe278FDCBD38C102D88",
      "value": {
        "_hex": "0x8ac2b3986f528000"
      },
      "nonce": 59,
      "data": "0x",
      "r": "0xfea6e392a16766a42a2e094698f970f58ca3f27661487bebf9b61c8a15e534ad",
      "s": "0x64aa929976fc5ef9d29840bbeae9f95569891792a290286e3a27eb8c407b992b",
      "v": 28,
      "creates": null,
      "raw": "0xf86c3b850db63602d18252089432be343b94f860124dc4fee278fdcbd38c102d88888ac2b3986f528000801ca0fea6e392a16766a42a2e094698f970f58ca3f27661487bebf9b61c8a15e534ada064aa929976fc5ef9d29840bbeae9f95569891792a290286e3a27eb8c407b992b",
      "networkId": 0,
      "chainId": 0
    }
  ]
}