{
  "hash": "0x4faea53f7a6bf0edc412a9e3c6852be28dc7066fe8c167abfc5c2aba91119367",
  "parentHash": "0x77e47146fc7a0d86ae42b4acc09594ca8277e0efe6195aa75b8f9781c3197c23",
  "number": 85815,
  "timestamp": 1439569204,
  "nonce": "0x1d0d99127058e81f",
  "difficulty": 2770464904646,
  "gasLimit": {
    "_hex": "0x2fefd8"
  },
  "gasUsed": {
    "_hex": "0xa410"
  },
  "miner": "0x89972aA7C0b19D1aE9cd89386160c3f28f7bB590",
  "extraData": "0xd983010001844765746887676f312e342e328777696e646f7773",
  "transactions": [
    {
      "hash": "0x82d220a86990f55289a707634ec1a5bf96b9df6e3953ed5552882cf842dfe1b2",
      "blockHash": "0x4faea53f7a6bf0edc412a9e3c6852be28dc7066fe8c167abfc5c2aba91119367",
      "blockNumber": 85815,
      "transactionIndex": 0,
      "confirmations": null,
      "from": "0x2910543Af39abA0Cd09dBb2D50200b3E800A63D2",
      "gasPrice": {
        "_hex": "0xdae688195"
      },
      "gasLimit": {
        "_hex": "0x5208"
      },
      "to": "0xABB4fEc7f89fb5f7443b2F4778e6398701612312",
      "value": {
        "_hex": "0x50edcd6ee8c5478000"
      },
      "nonce": 627,
      "data": "0x",
      "r": "0x099f58f6a28bf31d3360a3dbcdfb310edb286878979f23c92faf09bd3a5f87cb",
      "s": "0x1564526b05d58ab6247be0893c8c36cd7976adb547e2d6277729013c305bc679",
      "v": 27,
      "creates": null,
      "raw": "0xf86f820273850dae68819582520894abb4fec7f89fb5f7443b2f4778e63987016123128950edcd6ee8c5478000801ba0099f58f6a28bf31d3360a3dbcdfb310edb286878979f23c92faf09bd3a5f87cba01564526b05d58ab6247be0893c8c36cd7976adb547e2d6277729013c305bc679",
      "networkId": 0,
      "chainId": 0
    },
    {
      "hash": "0x770f78fe782c1a5da719b7bcdbb7681ab77188b14e3de9edcb40183caad13685",
      "blockHash": "0x4faea53f7a6bf0edc412a9e3c6852be28dc7066fe8c167abfc5c2aba91119367",
      "blockNumber": 85815,
      "transactionIndex": 1,
      "confirmations": null,
      "from": "0xa6b0Df3d84cb20F4F4a593855BfFAA0d3aaa02Aa",
      "gasPrice": {
        "_hex": "0xba43b7400"
      },
      "gasLimit": {
        "_hex": "0x5208"
      },
      "to": "0xC47Aaa860008be6f65B58c6C6E02a84e666EfE31",
      "value": {
        "_hex": "0x255258a0c400b6000"
      },
      "nonce": 1,
      "data": "0x",
      "r": "0x7c11f3611bfeac5805796b1c6fdb8750d88c2c193b12787b0a316e7222e577ef",
      "s": "0x53e89d4cef2b75c6e9a8435775bb8aa4a868b974685efb904268914bd0507032",
      "v": 28,
      "creates": null,
      "raw": "0xf86d01850ba43b740082520894c47aaa860008be6f65b58c6c6e02a84e666efe31890255258a0c400b6000801ca07c11f3611bfeac5805796b1c6fdb8750d88c2c193b12787b0a316e7222e577efa053e89d4cef2b75c6e9a8435775bb8aa4a868b974685efb904268914bd0507032",
      "networkId": 0,
      "chainId": 0
    }
  ]
}