{
  "hash": "0xcf7af60eb6afff5d0c5e66200dbfa8602e10e9de9448bebf00ea559260190a05",
  "parentHash": "0x152581ad243495d7c11316f65594d6812d54d80fa1a49b63125784f1ad662c67",
  "number": 120015,
  "timestamp": 1440152360,
  "nonce": "0x8e1b1d34123700ba",
  "difficulty": 4413485690408,
  "gasLimit": {
    "_hex": "0x2fefd8"
  },
  "gasUsed": {
    "_hex": "0xa410"
  },
  "miner": "0xe6A7a1d47ff21B6321162AEA7C6CB457D5476Bca",
  "extraData": "0xd783010002844765746887676f312e342e32856c696e7578",
  "transactions": [
    {
      "hash": "0x95360785ab5ee820c721c273ba7b1e780b89e89c0fadd23306421420dfefb416",
      "blockHash": "0xcf7af60eb6afff5d0c5e66200dbfa8602e10e9de9448bebf00ea559260190a05",
      "blockNumber": 120015,
      "transactionIndex": 0,
      "confirmations": null,
      "from": "0x2910543Af39abA0Cd09dBb2D50200b3E800A63D2",
      "gasPrice": {
        "_hex": "0xdf13ea553"
      },
      "gasLimit": {
        "_hex": "0x5208"
      },
      "to": "0x81fB0aa0ceEebA4cCAfD0E67861de0B3174b0f5b",
      "value": {
        "_hex": "0x104344570ef14f8000"
      },
      "nonce": 1167,
      "data": "0x",
      "r": "0x27dcef4e801beebec684dcd0acb530873c98043f053991165c9d56a46659e593",
      "s": "0x2a0bb4bcd5abbb1dbe4b7f2d6a3c9b1f82624d97e201c3e21655b469e3d13250",
      "v": 28,
      "creates": null,
      "raw": "0xf86f82048f850df13ea5538252089481fb0aa0ceeeba4ccafd0e67861de0b3174b0f5b89104344570ef14f8000801ca027dcef4e801beebec684dcd0acb530873c98043f053991165c9d56a46659e593a02a0bb4bcd5abbb1dbe4b7f2d6a3c9b1f82624d97e201c3e21655b469e3d13250",
      "networkId": 0,
      "chainId": 0
    },
    {
      "hash": "0x3ea8fcfd7960ad7352dd41d6a5374b0113b4510c6e8aad8670813cf0ebe739b5",
      "blockHash": "0xcf7af60eb6afff5d0c5e66200dbfa8602e10e9de9448bebf00ea559260190a05",
      "blockNumber": 120015,
      "transactionIndex": 1,
      "confirmations": null,
      "from": "0xE9820EfC74A9fe5fb68bf1e0FBf9945c1302bC0B",
      "gasPrice": {
        "_hex": "0xba43b7400"
      },
      "gasLimit": {
        "_hex": "0x5208"
      },
      "to": "0x32Be343B94f860124dC4fEe278FDCBD38C102D88",
      "value": {
        "_hex": "0x456355d2c223c8000"
      },
      "nonce": 12,
      "data": "0x",
      "r": "0x04c96b9b19a3078adf52f44ddef37531c9175d6cdab4fb580bbc889528c206f8",
      "s": "0x6d094f776605833abcb77d76b41a0a4757df6f2a2b7d4fe190354f84bc02e3b6",
      "v": 28,
      "creates": null,
      "raw": "0xf86d0c850ba43b74008252089432be343b94f860124dc4fee278fdcbd38c102d88890456355d2c223c8000801ca004c96b9b19a3078adf52f44ddef37531c9175d6cdab4fb580bbc889528c206f8a06d094f776605833abcb77d76b41a0a4757df6f2a2b7d4fe190354f84bc02e3b6",
      "networkId": 0,
      "chainId": 0
    }
  ]
}