{
  "hash": "0x5e0839c640961afe7c6bda989f4a5712aa546b0b5caf52cc6d0ac6b10344359e",
  "parentHash": "0xafad924f9d84ab745ffabd4f25d37138eaba615e5f23453a4bf7abad3b59190b",
  "number": 58518,
  "timestamp": 1439122063,
  "nonce": "0xee1203ad160731b0",
  "difficulty": 1709890470250,
  "gasLimit": {
    "_hex": "0x2fefd8"
  },
  "gasUsed": {
    "_hex": "0x5208"
  },
  "miner": "0x9D49F602b0fdb924Bd63DDE2Bd0907E4A07c63a7",
  "extraData": "0x476574682f76312e302e312f6c696e75782f676f312e342e32",
  "transactions": [
    {
      "hash": "0x692a61ec55a56966fa173cf3f1b14598bd23f53f3fae9baa9ee719fb6105806b",
      "blockHash": "0x5e0839c640961afe7c6bda989f4a5712aa546b0b5caf52cc6d0ac6b10344359e",
      "blockNumber": 58518,
      "transactionIndex": 0,
      "confirmations": null,
      "from": "0x8B454d830feF179e66206840F8F3D1d83bC32b17",
      "gasPrice": {
        "_hex": "0xd7cf76755"
      },
      "gasLimit": {
        "_hex": "0x15f90"
      },
      "to": "0x1543667B9bad3e41865C3233E1764d8dda8E1F3D",
      "value": {
        "_hex": "0x6f05b59d3b2000000"
      },
      "nonce": 7,
      "data": "0x",
      "r": "0x9e6ebfe49a43ba06c5716d478fabf3a25f5b401aede51dd39b81234027fe0b66",
      "s": "0x6cfa87247c8ce63341b67d22a0e3335948ca54accad884009d890c66f58be2f0",
      "v": 27,
      "creates": null,
      "raw": "0xf86e07850d7cf7675583015f90941543667b9bad3e41865c3233e1764d8dda8e1f3d8906f05b59d3b2000000801ba09e6ebfe49a43ba06c5716d478fabf3a25f5b401aede51dd39b81234027fe0b66a06cfa87247c8ce63341b67d22a0e3335948ca54accad884009d890c66f58be2f0",
      "networkId": 0,
      "chainId": 0
    }
  ]
}