{
  "hash": "0xb2aef92ab8be15c1f5ac4cd317bcfbc61825e45cb55cd28400a1431fc2f3a03f",
  "parentHash": "0x51774be303a5bd7241f415df3a7c37762a3f0e15945c6f016ea3cdbaf05e3c78",
  "number": 80844,
  "timestamp": 1439491936,
  "nonce": "0xc629f0114f108c8e",
  "difficulty": 2449962124769,
  "gasLimit": {
    "_hex": "0x2fefd8"
  },
  "gasUsed": {
    "_hex": "0x5208"
  },
  "miner": "0xe6A7a1d47ff21B6321162AEA7C6CB457D5476Bca",
  "extraData": "0x476574682f76312e302e312d38326566323666362f6c696e75782f676f312e34",
  "transactions": [
    {
      "hash": "0xce9087d38e31bb2a1583cf8a4290e4d990a3a00e2f61c7ac1a2b2e5481ce5b4a",
      "blockHash": "0xb2aef92ab8be15c1f5ac4cd317bcfbc61825e45cb55cd28400a1431fc2f3a03f",
      "blockNumber": 80844,
      "transactionIndex": 0,
      "confirmations": null,
      "from": "0xffBC3DA0381Ec339C1C049eb1Ed9ee34fDCea6ca",
      "gasPrice": {
        "_hex": "0xd23ee12e2"
      },
      "gasLimit": {
        "_hex": "0x15f90"
      },
      "to": "0xC7D86867a958b0F52385C9c1CD058B6d1eBdEc94",
      "value": {
        "_hex": "0x4563918244f40000"
      },
      "nonce": 3,
      "data": "0x",
      "r": "0xdbd54cf18c6f04fa54ba10c37ac833e212f3b145e24baf7ed80f605976c19ea5",
      "s": "0x6d989620fe94da5e27cc7cbc40ae8b5191b2a06c9920aeafb7df7f6d53110d25",
      "v": 27,
      "creates": null,
      "raw": "0xf86d03850d23ee12e283015f9094c7d86867a958b0f52385c9c1cd058b6d1ebdec94884563918244f40000801ba0dbd54cf18c6f04fa54ba10c37ac833e212f3b145e24baf7ed80f605976c19ea5a06d989620fe94da5e27cc7cbc40ae8b5191b2a06c9920aeafb7df7f6d53110d25",
      "networkId": 0,
      "chainId": 0
    }
  ]
}