{
  "hash": "0x73a74510ba76c2da3c5391343835adf3f2a642af8ba68641de9285f08d7a5650",
  "parentHash": "0x31cc2a713f9f01c5a3517dfa2d0bbcc3ef3be408bef012ee38ca08d6447e6f7d",
  "number": 52448,
  "timestamp": 1439021700,
  "nonce": "0xd83a6018be65d75f",
  "difficulty": 1568686817008,
  "gasLimit": {
    "_hex": "0x13eadb"
  },
  "gasUsed": {
    "_hex": "0xa674"
  },
  "miner": "0xeB1325C8D9d3ea8D74aC11F4B00F1B2367686319",
  "extraData": "0x476574682f76312e302e312f77696e646f77732f676f312e342e32",
  "transactions": [
    {
      "hash": "0x65955c1238783abd9aeaba3097acd3a9718a699e4c4b6fec0e3a547b345f658e",
      "blockHash": "0x73a74510ba76c2da3c5391343835adf3f2a642af8ba68641de9285f08d7a5650",
      "blockNumber": 52448,
      "transactionIndex": 0,
      "confirmations": null,
      "from": "0x3F98e477a361F777DA14611a7e419A75Fd238b6b",
      "gasPrice": {
        "_hex": "0xd7c2f1611"
      },
      "gasLimit": {
        "_hex": "0x15f90"
      },
      "to": "0x2910543Af39abA0Cd09dBb2D50200b3E800A63D2",
      "value": {
        "_hex": "0x1b1ae4d6e2ef500000"
      },
      "nonce": 4,
      "data": "0x454e414a33474d4352",
      "r": "0x481291f05b3ba1d401d411c6a571ed4b2699e7ccbce0081d424a976fc12388df",
      "s": "0x71fc04d551942df102f0bc67f756a0e3035ad4d4c08d34b2856f51211e61353d",
      "v": 27,
      "creates": null,
      "raw": "0xf87704850d7c2f161183015f90942910543af39aba0cd09dbb2d50200b3e800a63d2891b1ae4d6e2ef50000089454e414a33474d43521ba0481291f05b3ba1d401d411c6a571ed4b2699e7ccbce0081d424a976fc12388dfa071fc04d551942df102f0bc67f756a0e3035ad4d4c08d34b2856f51211e61353d",
      "networkId": 0,
      "chainId": 0
    },
    {
      "hash": "0x3135b75730a6190ebe503be4691f6d597ea7f31ec0402a890cbeb219ad89895d",
      "blockHash": "0x73a74510ba76c2da3c5391343835adf3f2a642af8ba68641de9285f08d7a5650",
      "blockNumber": 52448,
      "transactionIndex": 1,
      "confirmations": null,
      "from": "0x00E681Bc2D10DB62De85848324492250348E90Bf",
      "gasPrice": {
        "_hex": "0xd182d38dd"
      },
      "gasLimit": {
        "_hex": "0x15f90"
      },
      "to": "0x5562e886dF729822Ef77862A12f4631658cEa98e",
      "value": {
        "_hex": "0x3635c9adc5dea00000"
      },
      "nonce": 0,
      "data": "0x",
      "r": "0x631c09982871c46c8bb7f0e5196bc1731cf7b3ccec6d69f5a95caed297990d6e",
      "s": "0x0fe94ae8d1924f48366b5222b7233a4ccf7d6afb774fc3cf9419219bf9a8eee4",
      "v": 28,
      "creates": null,
      "raw": "0xf86e80850d182d38dd83015f90945562e886df729822ef77862a12f4631658cea98e893635c9adc5dea00000801ca0631c09982871c46c8bb7f0e5196bc1731cf7b3ccec6d69f5a95caed297990d6ea00fe94ae8d1924f48366b5222b7233a4ccf7d6afb774fc3cf9419219bf9a8eee4",
      "networkId": 0,
      "chainId": 0
    }
  ]
}