{
  "hash": "0x4b6cb8ef612bd10f3ecd81e9ee429023476432bd9afe8a435afe3e8abb3689f6",
  "parentHash": "0x159dcac71d18b4cb6554ffb5871968390a62e73e5e6395ab148736bf0b664b84",
  "number": 101967,
  "timestamp": 1439830634,
  "nonce": "0x34a06e47b1282f33",
  "difficulty": 3926214139510,
  "gasLimit": {
    "_hex": "0x2fefd8"
  },
  "gasUsed": {
    "_hex": "0x3cd88"
  },
  "miner": "0xe6A7a1d47ff21B6321162AEA7C6CB457D5476Bca",
  "extraData": "0x476574682f76312e302e312d38326566323666362f6c696e75782f676f312e34",
  "transactions": [
    {
      "hash": "0x6d1ddd13435fcd6a76d22fce677e762a55a9c2fbc6ebbb275eb08d7e352d2ff3",
      "blockHash": "0x4b6cb8ef612bd10f3ecd81e9ee429023476432bd9afe8a435afe3e8abb3689f6",
      "blockNumber": 101967,
      "transactionIndex": 0,
      "confirmations": null,
      "from": "0xCE0B181265D6F609920a9AA65547C2a1e1F26FcB",
      "gasPrice": {
        "_hex": "0xe119afdd2"
      },
      "gasLimit": {
        "_hex": "0x7530"
      },
      "to": "0x3cB84c3ABe6F70c91b412997640e050E1A5186DA",
      "value": {
        "_hex": "0xde0b6b3a7640000"
      },
      "nonce": 0,
      "data": "0x00",
      "r": "0x0a7bbd0304686434baeb7aef24800fa8779e13d7834b3a9df6409229da994073",
      "s": "0x2fd92e1a52db7c6b7f1cbec144a69e66f2d0609b6f84f4f059e4c5522712610e",
      "v": 28,
      "creates": null,
      "raw": "0xf86c80850e119afdd2827530943cb84c3abe6f70c91b412997640e050e1a5186da880de0b6b3a7640000001ca00a7bbd0304686434baeb7aef24800fa8779e13d7834b3a9df6409229da994073a02fd92e1a52db7c6b7f1cbec144a69e66f2d0609b6f84f4f059e4c5522712610e",
      "networkId": 0,
      "chainId": 0
    },
    {
      "hash": "0x240804e7298188e74d4cd42bca2ad15cedb51db44241f11454108a2ab4996b55",
      "blockHash": "0x4b6cb8ef612bd10f3ecd81e9ee429023476432bd9afe8a435afe3e8abb3689f6",
      "blockNumber": 101967,
      "transactionIndex": 1,
      "confirmations": null,
      "from": "0xB9Fd3833e88e7cf1fa9879BdF55aF4b99cd5ce3f",
      "gasPrice": {
        "_hex": "0xd423e5694"
      },
      "gasLimit": {
        "_hex": "0x249f0"
      },
      "to": "0xE28e72FCf78647ADCe1F1252F240bbfaebD63BcC",
      "value": {
        "_hex": "0x56bc75e2d63100000"
      },
      "nonce": 0,
      "data": "0x45466f3a",
      "r": "0x03ac8c7d1cabdaf156078f420edac3adfa5bc41baf40b695ad1ab6dfee1dd6cc",
      "s": "0x3620a1121a4ab6da99f7a9bf615c3672b40323eb8327eab5ff0e5f8b81fd9eac",
      "v": 27,
      "creates": null,
      "raw": "0xf87280850d423e5694830249f094e28e72fcf78647adce1f1252f240bbfaebd63bcc89056bc75e2d631000008445466f3a1ba003ac8c7d1cabdaf156078f420edac3adfa5bc41baf40b695ad1ab6dfee1dd6cca03620a1121a4ab6da99f7a9bf615c3672b40323eb8327eab5ff0e5f8b81fd9eac",
      "networkId": 0,
      "chainId": 0
    },
    {
      "hash": "0x0af8c4ae01cad8014dcb590ef847057d9703162238181d75e53db0b6e4f6f7d2",
      "blockHash": "0x4b6cb8ef612bd10f3ecd81e9ee429023476432bd9afe8a435afe3e8abb3689f6",
      "blockNumber": 101967,
      "transactionIndex": 2,
      "confirmations": null,
      "from": "0x40D992204baF2ae5adEa86071c68eb9aFfbc725b",
      "gasPrice": {
        "_hex": "0xcf57ccadb"
      },
      "gasLimit": {
        "_hex": "0x249f0"
      },
      "to": "0xE28e72FCf78647ADCe1F1252F240bbfaebD63BcC",
      "value": {
        "_hex": "0xd02ab486cedc0000"
      },
      "nonce": 1,
      "data": "0x45466f3a",
      "r": "0x4c8ab8544711b84637779b14dda1ed714203074d75cbaee73fbf2723f8cc292e",
      "s": "0x2376256658d6fcb827c9bfe85e4072ba28ba6bd3a4ac36000421f28ac12c369f",
      "v": 27,
      "creates": null,
      "raw": "0xf87101850cf57ccadb830249f094e28e72fcf78647adce1f1252f240bbfaebd63bcc88d02ab486cedc00008445466f3a1ba04c8ab8544711b84637779b14dda1ed714203074d75cbaee73fbf2723f8cc292ea02376256658d6fcb827c9bfe85e4072ba28ba6bd3a4ac36000421f28ac12c369f",
      "networkId": 0,
      "chainId": 0
    }
  ]
}