{
  "hash": "0x04c107f585d9f45ad9872f74312341b1b48b99592a459b255c594050ff6cb37b",
  "parentHash": "0x35f30bda594471e08f6f66168b0a9ff2179cbed3bcdd8e3496a909b6e83d0465",
  "number": 48745,
  "timestamp": 1438962274,
  "nonce": "0x5e244536fafe666c",
  "difficulty": 1475015584479,
  "gasLimit": {
    "_hex": "0x1d62b"
  },
  "gasUsed": {
    "_hex": "0x546c"
  },
  "miner": "0x1217627fe41A00f0b828317F43E6d58F47dBfc43",
  "extraData": "0x476574682f76312e302e302d66313265303136312f6c696e75782f676f312e34",
  "transactions": [
    {
      "hash": "0xd78dc9083770d1f8cb9ba8231f4c74362def71eb114b37b3554b9f5e69773365",
      "blockHash": "0x04c107f585d9f45ad9872f74312341b1b48b99592a459b255c594050ff6cb37b",
      "blockNumber": 48745,
      "transactionIndex": 0,
      "confirmations": null,
      "from": "0xF8ae857b67A4a2893A3fBE7c7a87ff1C01c6A6e7",
      "gasPrice": {
        "_hex": "0x110c8f7d8de"
      },
      "gasLimit": {
        "_hex": "0xc350"
      },
      "to": "0x2910543Af39abA0Cd09dBb2D50200b3E800A63D2",
      "value": {
        "_hex": "0x6c6b935b8bbd400000"
      },
      "nonce": 1,
      "data": "0x454e30373557365a38",
      "r": "0x534a2ac3d0c9568f32bb4a8317a8e382a214aefc660a274263b8a84407e50696",
      "s": "0x950580660f3961fbdec391c9ce5a9547e2d299db76db120ab6a918c2810f8a90",
      "v": 28,
      "creates": null,
      "raw": "0xf87701860110c8f7d8de82c350942910543af39aba0cd09dbb2d50200b3e800a63d2896c6b935b8bbd40000089454e30373557365a381ca0534a2ac3d0c9568f32bb4a8317a8e382a214aefc660a274263b8a84407e50696a0950580660f3961fbdec391c9ce5a9547e2d299db76db120ab6a918c2810f8a90",
      "networkId": 0,
      "chainId": 0
    }
  ]
}