{
  "hash": "0x2c2d055648371102ce851c83bdac5bc96af4c48ee54bedc32a01aa891eadf7af",
  "parentHash": "0xc757cca773fb1328dd4215a64274d44750fa431ff72fb8a94277ee110eb5e24a",
  "number": 82938,
  "timestamp": 1439527331,
  "nonce": "0x3343f06478ff73c3",
  "difficulty": 2406671841610,
  "gasLimit": {
    "_hex": "0x2fefd8"
  },
  "gasUsed": {
    "_hex": "0x55d8"
  },
  "miner": "0xcAF987dC6DAcB89E1e6Eba13265426e7132E15db",
  "extraData": "0x476574682f76312e302e312f6c696e75782f676f312e342e32",
  "transactions": [
    {
      "hash": "0x9b9c9c4f86d34c41f0f96944d8f9d88c411d0aa506942d110ed282706ef631d4",
      "blockHash": "0x2c2d055648371102ce851c83bdac5bc96af4c48ee54bedc32a01aa891eadf7af",
      "blockNumber": 82938,
      "transactionIndex": 0,
      "confirmations": null,
      "from": "0x1c11Aa45C792e202e9ffDc2F12f99D0d209BEf70",
      "gasPrice": {
        "_hex": "0xdca4d159f"
      },
      "gasLimit": {
        "_hex": "0x7a120"
      },
      "to": "0xc6d9d2cD449A754c494264e1809c50e34D64562b",
      "value": {
        "_hex": "0x0"
      },
      "nonce": 13,
      "data": "0x432ced04417567757253616c650000000000000000000000000000000000000000000000",
      "r": "0x808442173798b517e753c4760f7d40f449d9e549a1e7fdfe7521bf3abee12394",
      "s": "0x4cd9eee71d0fdc672a3a0c29b88ca5fa3ec610eddcf4629c1a35a472e0df93e4",
      "v": 28,
      "creates": null,
      "raw": "0xf8890d850dca4d159f8307a12094c6d9d2cd449a754c494264e1809c50e34d64562b80a4432ced04417567757253616c6500000000000000000000000000000000000000000000001ca0808442173798b517e753c4760f7d40f449d9e549a1e7fdfe7521bf3abee12394a04cd9eee71d0fdc672a3a0c29b88ca5fa3ec610eddcf4629c1a35a472e0df93e4",
      "networkId": 0,
      "chainId": 0
    }
  ]
}