{
  "hash": "0xe2373fc19fc2d9e6437283dbd2ef6ff6bc2a22e92b4ec26abaaf4f33e3a295e7",
  "parentHash": "0x50cfe7d76edb515979ec29c35642267bff5712960aa39b58d092625b560cdd62",
  "number": 105977,
  "timestamp": 1439896624,
  "nonce": "0x2e82d3cb66e4b09e",
  "difficulty": 4455551042449,
  "gasLimit": {
    "_hex": "0x2fefd8"
  },
  "gasUsed": {
    "_hex": "0xa9a6"
  },
  "miner": "0xa50ec0D39fa913E62f1Bae7074E6F36caA71855b",
  "extraData": "0xd783010001844765746887676f312e342e32856c696e7578",
  "transactions": [
    {
      "hash": "0x5b4e61b2b33e3bf1f7e6f7ea87d42229d2345b188cf18295df85314f3b6c0f5d",
      "blockHash": "0xe2373fc19fc2d9e6437283dbd2ef6ff6bc2a22e92b4ec26abaaf4f33e3a295e7",
      "blockNumber": 105977,
      "transactionIndex": 0,
      "confirmations": null,
      "from": "0x87C5B5874A18B4306DF8a752a6C8cc3E82daFc19",
      "gasPrice": {
        "_hex": "0xfe215393fa"
      },
      "gasLimit": {
        "_hex": "0x493e0"
      },
      "to": "0xD79B4C6791784184e2755B2fC1659eaaB0f80456",
      "value": {
        "_hex": "0x0"
      },
      "nonce": 318,
      "data": "0xbd66528a6b6b6b0000000000000000000000000000000000000000000000000000000000",
      "r": "0x07c895bf95ce1cb65efc0ddc2cef470bfb660f8d6225a3ddc30e16b54d8c5f96",
      "s": "0x6b44962432d70aa688a125f903195a34934e009c5f2d96d9af5dd5a90b132de4",
      "v": 28,
      "creates": null,
      "raw": "0xf88b82013e85fe215393fa830493e094d79b4c6791784184e2755b2fc1659eaab0f8045680a4bd66528a6b6b6b00000000000000000000000000000000000000000000000000000000001ca007c895bf95ce1cb65efc0ddc2cef470bfb660f8d6225a3ddc30e16b54d8c5f96a06b44962432d70aa688a125f903195a34934e009c5f2d96d9af5dd5a90b132de4",
      "networkId": 0,
      "chainId": 0
    },
    {
      "hash": "0x44ac81469c45fa8f59457bf0898be949f608361ff04595cac734fc4424249fcb",
      "blockHash": "0xe2373fc19fc2d9e6437283dbd2ef6ff6bc2a22e92b4ec26abaaf4f33e3a295e7",
      "blockNumber": 105977,
      "transactionIndex": 1,
      "confirmations": null,
      "from": "0xEF247E639d49461D25F57e9362CadE3120910Ce0",
      "gasPrice": {
        "_hex": "0xd05d1b9b4"
      },
      "gasLimit": {
        "_hex": "0x15f90"
      },
      "to": "0xF87481A262E993a75F791E7859E71BaC36A606Eb",
      "value": {
        "_hex": "0x340aad21b3b700000"
      },
      "nonce": 40,
      "data": "0x",
      "r": "0x42a7e156fcd2541950f46e252531dffbe3be967094b1873bc73c1a694cf92449",
      "s": "0x40afac21cf9d2267c1e6f288f2b9b1e03f365537a462248e57471fcea9844fe9",
      "v": 27,
      "creates": null,
      "raw": "0xf86e28850d05d1b9b483015f9094f87481a262e993a75f791e7859e71bac36a606eb890340aad21b3b700000801ba042a7e156fcd2541950f46e252531dffbe3be967094b1873bc73c1a694cf92449a040afac21cf9d2267c1e6f288f2b9b1e03f365537a462248e57471fcea9844fe9",
      "networkId": 0,
      "chainId": 0
    }
  ]
}