{
  "hash": "0xe351ef16429c843b463ae0744600af74230d069a4f538fcadf0beebb941198c8",
  "parentHash": "0xf63d77da4c9f7091f36034a19a5f5207b784e792e93e5c4e32015c6e26c61926",
  "number": 68558,
  "timestamp": 1439289976,
  "nonce": "0xec0df6cd840bf00f",
  "difficulty": 2012333446780,
  "gasLimit": {
    "_hex": "0x2fefd8"
  },
  "gasUsed": {
    "_hex": "0x189ca"
  },
  "miner": "0xBb12b5a9B85D4AB8CDE6056E9c1b2a4a337D2261",
  "extraData": "0x476574682f76312e302e312d36393865393864392f6c696e75782f676f312e34",
  "transactions": [
    {
      "hash": "0xba4ed41537db4b7b52815e8a18f71a3cf88eeac51eb71bf42747af7aab577d3d",
      "blockHash": "0xe351ef16429c843b463ae0744600af74230d069a4f538fcadf0beebb941198c8",
      "blockNumber": 68558,
      "transactionIndex": 0,
      "confirmations": null,
      "from": "0x17580B766f7453525ca4C6A88b01b50570EA088C",
      "gasPrice": {
        "_hex": "0xd402002a6"
      },
      "gasLimit": {
        "_hex": "0x61a80"
      },
      "to": "0x5Fe5B7546D1628f7348B023A0393de1FC825A4fD",
      "value": {
        "_hex": "0xde0b6b3a7640000"
      },
      "nonce": 39,
      "data": "0xb595b8b50000000000000000000000000000000000000000000000000000000000000000",
      "r": "0x34bbad11d47db7109ef0813a6b3dcd9e99cc4e17b993745041871c5ec1c09ce9",
      "s": "0x7c67a3c7141ce183e7b626fc3a9f753bbc6eb21e4693c1ef173ef32b8043a922",
      "v": 28,
      "creates": null,
      "raw": "0xf89127850d402002a683061a80945fe5b7546d1628f7348b023a0393de1fc825a4fd880de0b6b3a7640000a4b595b8b500000000000000000000000000000000000000000000000000000000000000001ca034bbad11d47db7109ef0813a6b3dcd9e99cc4e17b993745041871c5ec1c09ce9a07c67a3c7141ce183e7b626fc3a9f753bbc6eb21e4693c1ef173ef32b8043a922",
      "networkId": 0,
      "chainId": 0
    },
    {
      "hash": "0x5e5c3b75c9e47549618ec6faf1543765ba25fb58c2c97d1341d22ccd351a5a94",
      "blockHash": "0xe351ef16429c843b463ae0744600af74230d069a4f538fcadf0beebb941198c8",
      "blockNumber": 68558,
      "transactionIndex": 1,
      "confirmations": null,
      "from": "0x11F68f9Fb1b4429228fAdb619a486Bd0E784508d",
      "gasPrice": {
        "_hex": "0xba43b7400"
      },
      "gasLimit": {
        "_hex": "0x5208"
      },
      "to": "0xbDf5FD55744C3886D7bDd1801BA8e5B791102DCb",
      "value": {
        "_hex": "0x7c58ada8ff2000"
      },
      "nonce": 1,
      "data": "0x",
      "r": "0x61336b2a13d70ac8825786e49f78e2418428f50965218ad5b59f30b2cfe941de",
      "s": "0x50bc53d28f2c4b6c97a07b2f32275894bce68ea4ea8a3fb97557c7a869ce6a20",
      "v": 28,
      "creates": null,
      "raw": "0xf86b01850ba43b740082520894bdf5fd55744c3886d7bdd1801ba8e5b791102dcb877c58ada8ff2000801ca061336b2a13d70ac8825786e49f78e2418428f50965218ad5b59f30b2cfe941dea050bc53d28f2c4b6c97a07b2f32275894bce68ea4ea8a3fb97557c7a869ce6a20",
      "networkId": 0,
      "chainId": 0
    },
    {
      "hash": "0x203ae05b595cc01b0f310c88f4f1b600c1551cfd9a5ed7627d3c32433a3f9bf4",
      "blockHash": "0xe351ef16429c843b463ae0744600af74230d069a4f538fcadf0beebb941198c8",
      "blockNumber": 68558,
      "transactionIndex": 2,
      "confirmations": null,
      "from": "0x73e1a2bd15b77921eeABB24c9F417145134A0eeB",
      "gasPrice": {
        "_hex": "0xba43b7400"
      },
      "gasLimit": {
        "_hex": "0x5208"
      },
      "to": "0xf1ac916F565B58d58B67477144e1496DA31cAaf6",
      "value": {
        "_hex": "0x7c58ada8ff2000"
      },
      "nonce": 1,
      "data": "0x",
      "r": "0xb7b29780b2db97369a2f56b101fa91fbba9e9036d42d54bee7e32ca053475a7a",
      "s": "0x0b92972bd3aa67ac2feecfb5419c795fe9061d58567b1c1c650b6d5d6edf0d2d",
      "v": 28,
      "creates": null,
      "raw": "0xf86b01850ba43b740082520894f1ac916f565b58d58b67477144e1496da31caaf6877c58ada8ff2000801ca0b7b29780b2db97369a2f56b101fa91fbba9e9036d42d54bee7e32ca053475a7aa00b92972bd3aa67ac2feecfb5419c795fe9061d58567b1c1c650b6d5d6edf0d2d",
      "networkId": 0,
      "chainId": 0
    },
    {
      "hash": "0x658ba32aad6c458bd4872637081e4a0989333401aad04131313b48210f716570",
      "blockHash": "0xe351ef16429c843b463ae0744600af74230d069a4f538fcadf0beebb941198c8",
      "blockNumber": 68558,
      "transactionIndex": 3,
      "confirmations": null,
      "from": "0x5D3EFa349DDB55Cc05cf4630d44c2966E0a9EcBE",
      "gasPrice": {
        "_hex": "0xba43b7400"
      },
      "gasLimit": {
        "_hex": "0x5208"
      },
      "to": "0x4af01b1640B5494c4fb0B283b71698De0e1d4228",
      "value": {
        "_hex": "0x7c58ada8ff2000"
      },
      "nonce": 1,
      "data": "0x",
      "r": "0xee9a3be574248570e978193e69346425e6acb0023cc27919ecfa240309eae493",
      "s": "0x681d587d5b971da6564fbfe320e3f2d170a43a6b56cfb27d8613ff4bfa83b443",
      "v": 27,
      "creates": null,
      "raw": "0xf86b01850ba43b7400825208944af01b1640b5494c4fb0b283b71698de0e1d4228877c58ada8ff2000801ba0ee9a3be574248570e978193e69346425e6acb0023cc27919ecfa240309eae493a0681d587d5b971da6564fbfe320e3f2d170a43a6b56cfb27d8613ff4bfa83b443",
      "networkId": 0,
      "chainId": 0
    }
  ]
}