{
  "hash": "0x9f69318dd8027b081cf15fddda7c291b66423520782d1193a11447dbdc244ab0",
  "parentHash": "0x3da49bee9ee79c7cfd33fc263dc862b11b0e8f2fbbc2c9f0848fb94852621c17",
  "number": 47776,
  "timestamp": 1438946080,
  "nonce": "0xb774c3f7d33d004f",
  "difficulty": 1454444312600,
  "gasLimit": {
    "_hex": "0xf13e"
  },
  "gasUsed": {
    "_hex": "0xa410"
  },
  "miner": "0x24339341F29d2aaD7d3c591c0f9931e7D4bFEd6e",
  "extraData": "0x476574682f76312e302e312f6c696e75782f676f312e342e32",
  "transactions": [
    {
      "hash": "0xbc4ca84b935bd5f5e47f32893b75ca3afb4eb9f02f6f25185086a26b7cf70e0c",
      "blockHash": "0x9f69318dd8027b081cf15fddda7c291b66423520782d1193a11447dbdc244ab0",
      "blockNumber": 47776,
      "transactionIndex": 0,
      "confirmations": null,
      "from": "0xe6A7a1d47ff21B6321162AEA7C6CB457D5476Bca",
      "gasPrice": {
        "_hex": "0xdd19a2c50"
      },
      "gasLimit": {
        "_hex": "0x55f0"
      },
      "to": "0x29C0024a99b44d481694cB5D98907a1343D390fD",
      "value": {
        "_hex": "0x5b5ea70026558020"
      },
      "nonce": 229,
      "data": "0x",
      "r": "0xc50e2e1ef8eb9d9c8888a53838737832cd921d048023810b56a54734d8f0534f",
      "s": "0x124005fbc43e4dac4f67ff94a3697f503192b32bbbeb26b0c450ccb3ff517da1",
      "v": 27,
      "creates": null,
      "raw": "0xf86d81e5850dd19a2c508255f09429c0024a99b44d481694cb5d98907a1343d390fd885b5ea70026558020801ba0c50e2e1ef8eb9d9c8888a53838737832cd921d048023810b56a54734d8f0534fa0124005fbc43e4dac4f67ff94a3697f503192b32bbbeb26b0c450ccb3ff517da1",
      "networkId": 0,
      "chainId": 0
    },
    {
      "hash": "0x66b2c017bd1642a2123d59577aaf1479978515bb5e2a7084c6ad0fb12a2bcc88",
      "blockHash": "0x9f69318dd8027b081cf15fddda7c291b66423520782d1193a11447dbdc244ab0",
      "blockNumber": 47776,
      "transactionIndex": 1,
      "confirmations": null,
      "from": "0xe6A7a1d47ff21B6321162AEA7C6CB457D5476Bca",
      "gasPrice": {
        "_hex": "0xdd19a2c50"
      },
      "gasLimit": {
        "_hex": "0x55f0"
      },
      "to": "0x9def82c26c0c5fc4E0e7eC2f64425314E3F7B476",
      "value": {
        "_hex": "0x5c6249519bc14680"
      },
      "nonce": 230,
      "data": "0x",
      "r": "0xb5032bd5710fb3b1fdc188886f69f8b552331f3b1a091470fe8ac34e7cd44356",
      "s": "0x40840bd071d52435afa6e224f6dc41ef661894bbe26dd08f6831af2234fb8595",
      "v": 28,
      "creates": null,
      "raw": "0xf86d81e6850dd19a2c508255f0949def82c26c0c5fc4e0e7ec2f64425314e3f7b476885c6249519bc14680801ca0b5032bd5710fb3b1fdc188886f69f8b552331f3b1a091470fe8ac34e7cd44356a040840bd071d52435afa6e224f6dc41ef661894bbe26dd08f6831af2234fb8595",
      "networkId": 0,
      "chainId": 0
    }
  ]
}