{
  "hash": "0x189a72e148b23598f19802764439adc25684ae27e562aab4370523d44b84c1a6",
  "parentHash": "0xc1740dfc642a6b12ab921e1b7c037c664f2e608da19eade4cd3e5278b68fd48b",
  "number": 89795,
  "timestamp": 1439629337,
  "nonce": "0x6197af9848ebf122",
  "difficulty": 3333715935498,
  "gasLimit": {
    "_hex": "0x2fefd8"
  },
  "gasUsed": {
    "_hex": "0x14820"
  },
  "miner": "0xe6A7a1d47ff21B6321162AEA7C6CB457D5476Bca",
  "extraData": "0x476574682f76312e302e312d38326566323666362f6c696e75782f676f312e34",
  "transactions": [
    {
      "hash": "0x94ee4c8e0a0d95011b2c1dbe9024b5586db5e975dc57c6a1f74342c185fa63b3",
      "blockHash": "0x189a72e148b23598f19802764439adc25684ae27e562aab4370523d44b84c1a6",
      "blockNumber": 89795,
      "transactionIndex": 0,
      "confirmations": null,
      "from": "0x027698B61229ECCa19311e977ADE3C2923D4e414",
      "gasPrice": {
        "_hex": "0xd82d3690b"
      },
      "gasLimit": {
        "_hex": "0x5208"
      },
      "to": "0x32Be343B94f860124dC4fEe278FDCBD38C102D88",
      "value": {
        "_hex": "0x6cb077ab641c9400"
      },
      "nonce": 4,
      "data": "0x",
      "r": "0x0a3b3d89e6c32cec66a647e784d94a0e6bff2830f1623f674e29f3528fd0fb17",
      "s": "0x1aa105c12f614e8457227a08959ed3a03f9cecd3d0d2ed1466924b0e84913349",
      "v": 28,
      "creates": null,
      "raw": "0xf86c04850d82d3690b8252089432be343b94f860124dc4fee278fdcbd38c102d88886cb077ab641c9400801ca00a3b3d89e6c32cec66a647e784d94a0e6bff2830f1623f674e29f3528fd0fb17a01aa105c12f614e8457227a08959ed3a03f9cecd3d0d2ed1466924b0e84913349",
      "networkId": 0,
      "chainId": 0
    },
    {
      "hash": "0xc242934b7669f9ce5c318314657a34d0eabe11a4d1eaea71c9ff558b319a57fa",
      "blockHash": "0x189a72e148b23598f19802764439adc25684ae27e562aab4370523d44b84c1a6",
      "blockNumber": 89795,
      "transactionIndex": 1,
      "confirmations": null,
      "from": "0xe6A7a1d47ff21B6321162AEA7C6CB457D5476Bca",
      "gasPrice": {
        "_hex": "0xd2321c17e"
      },
      "gasLimit": {
        "_hex": "0x55f0"
      },
      "to": "0xB28fE7b9815982FF203F751ce550111D752d8795",
      "value": {
        "_hex": "0x38c6010f8b7272a80"
      },
      "nonce": 2441,
      "data": "0x",
      "r": "0x10cc68b9c9cb0b44e51f579be394d15dc9686662f514ac0c40aac977d65c8728",
      "s": "0x0bc1331fce9c634ca867ff83bacc40565564ed7a170dfb0bb7342a590b119f15",
      "v": 27,
      "creates": null,
      "raw": "0xf86f820989850d2321c17e8255f094b28fe7b9815982ff203f751ce550111d752d879589038c6010f8b7272a80801ba010cc68b9c9cb0b44e51f579be394d15dc9686662f514ac0c40aac977d65c8728a00bc1331fce9c634ca867ff83bacc40565564ed7a170dfb0bb7342a590b119f15",
      "networkId": 0,
      "chainId": 0
    },
    {
      "hash": "0x7ee171ef27aa0fc4732dee13a1351730ffd0127bde699b5a8881bafcdac646e5",
      "blockHash": "0x189a72e148b23598f19802764439adc25684ae27e562aab4370523d44b84c1a6",
      "blockNumber": 89795,
      "transactionIndex": 2,
      "confirmations": null,
      "from": "0xe6A7a1d47ff21B6321162AEA7C6CB457D5476Bca",
      "gasPrice": {
        "_hex": "0xcfee0968d"
      },
      "gasLimit": {
        "_hex": "0x55f0"
      },
      "to": "0x6964b95BF8BA16b837e2f3Ae8dA7D299553eC1f7",
      "value": {
        "_hex": "0x3a20c74a032362150"
      },
      "nonce": 2442,
      "data": "0x",
      "r": "0x5432e4de4abda1b5683937894ec573633c1868aeefd68fa18641fafb6b7dac91",
      "s": "0x605180e527cb6b561c77f383e2a218d42211f8b372b698ca6e4093f2167dddb3",
      "v": 27,
      "creates": null,
      "raw": "0xf86f82098a850cfee0968d8255f0946964b95bf8ba16b837e2f3ae8da7d299553ec1f78903a20c74a032362150801ba05432e4de4abda1b5683937894ec573633c1868aeefd68fa18641fafb6b7dac91a0605180e527cb6b561c77f383e2a218d42211f8b372b698ca6e4093f2167dddb3",
      "networkId": 0,
      "chainId": 0
    },
    {
      "hash": "0x409eeb8347f99fa7781f64c9f78576174972743f15c4499f9c073865caa8540c",
      "blockHash": "0x189a72e148b23598f19802764439adc25684ae27e562aab4370523d44b84c1a6",
      "blockNumber": 89795,
      "transactionIndex": 3,
      "confirmations": null,
      "from": "0xe6A7a1d47ff21B6321162AEA7C6CB457D5476Bca",
      "gasPrice": {
        "_hex": "0xcfee0968d"
      },
      "gasLimit": {
        "_hex": "0x55f0"
      },
      "to": "0x5b08838334DA22Dc7E25ce6a4161672F80e9074A",
      "value": {
        "_hex": "0x3a6e1678d6c8c8d30"
      },
      "nonce": 2443,
      "data": "0x",
      "r": "0xc3dd472532d8a1e5b92bb4a4a9977f789de92d81911f651c85dac08e1b572006",
      "s": "0x449a1c2a2a51bc0356b7e96e0ff30214c25a8da7297d270e2154fbcfd73b9335",
      "v": 28,
      "creates": null,
      "raw": "0xf86f82098b850cfee0968d8255f0945b08838334da22dc7e25ce6a4161672f80e9074a8903a6e1678d6c8c8d30801ca0c3dd472532d8a1e5b92bb4a4a9977f789de92d81911f651c85dac08e1b572006a0449a1c2a2a51bc0356b7e96e0ff30214c25a8da7297d270e2154fbcfd73b9335",
      "networkId": 0,
      "chainId": 0
    }
  ]
}