{
  "hash": "0x7ccb05268f5143651e134902a47318a5de54e85c81b62dc75953564071d6c19e",
  "parentHash": "0xd449ef05584961f1758b64aed2f5ce0623eb236ddb2a9d8e52bb7bf6d8afd135",
  "number": 94725,
  "timestamp": 1439713181,
  "nonce": "0xf8c13dc76f58126d",
  "difficulty": 3478039002465,
  "gasLimit": {
    "_hex": "0x2fefd8"
  },
  "gasUsed": {
    "_hex": "0x19a28"
  },
  "miner": "0x88D74a59454F6cF3B51ef6b9136AFb6b9D405A88",
  "extraData": "0x476574682f76312e302e312d37666266393930632f6c696e75782f676f312e34",
  "transactions": [
    {
      "hash": "0x6eecc22f2825b24794ee5145aa41af5b6619157905fca8d710d89e2d89137ddb",
      "blockHash": "0x7ccb05268f5143651e134902a47318a5de54e85c81b62dc75953564071d6c19e",
      "blockNumber": 94725,
      "transactionIndex": 0,
      "confirmations": null,
      "from": "0x6De181Fc4C140FA31F196e5393516c49EEeBdAd3",
      "gasPrice": {
        "_hex": "0xdfab2d711"
      },
      "gasLimit": {
        "_hex": "0x5208"
      },
      "to": "0x32Be343B94f860124dC4fEe278FDCBD38C102D88",
      "value": {
        "_hex": "0x2ba38844b7a1360000"
      },
      "nonce": 16,
      "data": "0x",
      "r": "0x36b8e682ff39f2e5416f182c4a97ff424b24d03542f443e69ec3082a972dd6df",
      "s": "0x0a29e236a4b795703f125b0090cde307f6d7a7e3db3e8c30be1b766c444cee6f",
      "v": 27,
      "creates": null,
      "raw": "0xf86d10850dfab2d7118252089432be343b94f860124dc4fee278fdcbd38c102d88892ba38844b7a1360000801ba036b8e682ff39f2e5416f182c4a97ff424b24d03542f443e69ec3082a972dd6dfa00a29e236a4b795703f125b0090cde307f6d7a7e3db3e8c30be1b766c444cee6f",
      "networkId": 0,
      "chainId": 0
    },
    {
      "hash": "0xb06680cc6a0df18f4b7edbf0ec434df2cc8d70548575427df5a701d655188361",
      "blockHash": "0x7ccb05268f5143651e134902a47318a5de54e85c81b62dc75953564071d6c19e",
      "blockNumber": 94725,
      "transactionIndex": 1,
      "confirmations": null,
      "from": "0x52191276589069F70F0E46bcCc718d793d1Aa1D0",
      "gasPrice": {
        "_hex": "0xdfab2d711"
      },
      "gasLimit": {
        "_hex": "0x5208"
      },
      "to": "0x32Be343B94f860124dC4fEe278FDCBD38C102D88",
      "value": {
        "_hex": "0x317043343c0e68000"
      },
      "nonce": 8,
      "data": "0x",
      "r": "0xa596feb1f0e2e9c1e45ca52fdd61beb46f848693855fe229a08976bad308a15a",
      "s": "0x3854c1f7a4434a074d7b4a60808183d4efdf0c331b02de84173013a358bd12f2",
      "v": 28,
      "creates": null,
      "raw": "0xf86d08850dfab2d7118252089432be343b94f860124dc4fee278fdcbd38c102d88890317043343c0e68000801ca0a596feb1f0e2e9c1e45ca52fdd61beb46f848693855fe229a08976bad308a15aa03854c1f7a4434a074d7b4a60808183d4efdf0c331b02de84173013a358bd12f2",
      "networkId": 0,
      "chainId": 0
    },
    {
      "hash": "0x208f7d6e1e41a18dd8995c41f10857778984bb0c8014276b2c34f124d777148d",
      "blockHash": "0x7ccb05268f5143651e134902a47318a5de54e85c81b62dc75953564071d6c19e",
      "blockNumber": 94725,
      "transactionIndex": 2,
      "confirmations": null,
      "from": "0xeD3Fe86896534C24D9F91232faE34b78DFf3c1f4",
      "gasPrice": {
        "_hex": "0xdfab2d711"
      },
      "gasLimit": {
        "_hex": "0x5208"
      },
      "to": "0x32Be343B94f860124dC4fEe278FDCBD38C102D88",
      "value": {
        "_hex": "0x6ec293e4abe9e800"
      },
      "nonce": 4,
      "data": "0x",
      "r": "0x0d7db3fc086c204e3802fd3b7664ebca2d0501e04b8e62f23ad2461684ba64ad",
      "s": "0x2b501b3a7c84e7795ce0920e212e0d84e698ca0354c2bd0e0f0957cbd34b32b3",
      "v": 27,
      "creates": null,
      "raw": "0xf86c04850dfab2d7118252089432be343b94f860124dc4fee278fdcbd38c102d88886ec293e4abe9e800801ba00d7db3fc086c204e3802fd3b7664ebca2d0501e04b8e62f23ad2461684ba64ada02b501b3a7c84e7795ce0920e212e0d84e698ca0354c2bd0e0f0957cbd34b32b3",
      "networkId": 0,
      "chainId": 0
    },
    {
      "hash": "0x4f04406a708ffe879f8578eb62c2e7a57006bd50adfe0f54c0ba5d192069fe21",
      "blockHash": "0x7ccb05268f5143651e134902a47318a5de54e85c81b62dc75953564071d6c19e",
      "blockNumber": 94725,
      "transactionIndex": 3,
      "confirmations": null,
      "from": "0x1308A2e95c0160B90803ddCA9B9a5bb55E416d79",
      "gasPrice": {
        "_hex": "0xcddfbfcb1"
      },
      "gasLimit": {
        "_hex": "0x15f90"
      },
      "to": "0xd5a4149C0B8196206C4021852201EeD869FA7560",
      "value": {
        "_hex": "0x2c1a7d77614813800"
      },
      "nonce": 154,
      "data": "0x",
      "r": "0x70539b9e0d2100651757b02ef63c0d12aeb37d32f8f01b138f5538781af81a72",
      "s": "0x26e8471f6525dcf3685d065a4df4d69db903a886f8595f37058df0a81af4898d",
      "v": 28,
      "creates": null,
      "raw": "0xf86f819a850cddfbfcb183015f9094d5a4149c0b8196206c4021852201eed869fa75608902c1a7d77614813800801ca070539b9e0d2100651757b02ef63c0d12aeb37d32f8f01b138f5538781af81a72a026e8471f6525dcf3685d065a4df4d69db903a886f8595f37058df0a81af4898d",
      "networkId": 0,
      "chainId": 0
    },
    {
      "hash": "0xb2d3e0f22eae67ff5d53d231137f5ee82303ad64fa788ef78a844e33051fcbd8",
      "blockHash": "0x7ccb05268f5143651e134902a47318a5de54e85c81b62dc75953564071d6c19e",
      "blockNumber": 94725,
      "transactionIndex": 4,
      "confirmations": null,
      "from": "0x1308A2e95c0160B90803ddCA9B9a5bb55E416d79",
      "gasPrice": {
        "_hex": "0xcddfbfcb1"
      },
      "gasLimit": {
        "_hex": "0x15f90"
      },
      "to": "0xBAE5e6c08894238A8d3477Eb8Ebb6F2fD53a2484",
      "value": {
        "_hex": "0xafdaa93e825533000"
      },
      "nonce": 155,
      "data": "0x",
      "r": "0xb386c6b9d6ed66a4ad78c14f0715d16ffd18dc318038c086f933944bb2a75d43",
      "s": "0x7038c92854b1f44a87dc922f073408bcd1873ceb40c964dd12705174c1de1652",
      "v": 28,
      "creates": null,
      "raw": "0xf86f819b850cddfbfcb183015f9094bae5e6c08894238a8d3477eb8ebb6f2fd53a2484890afdaa93e825533000801ca0b386c6b9d6ed66a4ad78c14f0715d16ffd18dc318038c086f933944bb2a75d43a07038c92854b1f44a87dc922f073408bcd1873ceb40c964dd12705174c1de1652",
      "networkId": 0,
      "chainId": 0
    }
  ]
}