{
  "hash": "0x98acd64013aba409eed9ec3247cbae93f45a299d538c309d8b11253254ef2f41",
  "parentHash": "0x02b1e6c0f9ceb7fce810c457d5aadbd5e4b9db0ef9dc8e1b91a516ed4d5b843c",
  "number": 84270,
  "timestamp": 1439547362,
  "nonce": "0x8867b416286c4ccb",
  "difficulty": 2526700134016,
  "gasLimit": {
    "_hex": "0x2fefd8"
  },
  "gasUsed": {
    "_hex": "0xf618"
  },
  "miner": "0x9Fa9952255B2b06639A04D63804d4BdFFf6E2d7e",
  "extraData": "0x476574682f76312e302e312f77696e646f77732f676f312e342e32",
  "transactions": [
    {
      "hash": "0xcd31b9e713793c84312b24ae0bec98f61b316155ddd892b33c8560b7e9b7c2b3",
      "blockHash": "0x98acd64013aba409eed9ec3247cbae93f45a299d538c309d8b11253254ef2f41",
      "blockNumber": 84270,
      "transactionIndex": 0,
      "confirmations": null,
      "from": "0xe6A7a1d47ff21B6321162AEA7C6CB457D5476Bca",
      "gasPrice": {
        "_hex": "0xd2d30ea5d"
      },
      "gasLimit": {
        "_hex": "0x55f0"
      },
      "to": "0x3fc4eAB8A8df5a124043b29146709935c65F1f7d",
      "value": {
        "_hex": "0x3855f526ff393600"
      },
      "nonce": 1647,
      "data": "0x",
      "r": "0xdfed3669084c2073ad01510d1a2bfc92bb674ae81523531314c011c4ea0c9255",
      "s": "0x1a0ec5ade310daabf4f5654818862a6723c775dbb3c3bcfdaeb3a89d3c1bee5b",
      "v": 28,
      "creates": null,
      "raw": "0xf86e82066f850d2d30ea5d8255f0943fc4eab8a8df5a124043b29146709935c65f1f7d883855f526ff393600801ca0dfed3669084c2073ad01510d1a2bfc92bb674ae81523531314c011c4ea0c9255a01a0ec5ade310daabf4f5654818862a6723c775dbb3c3bcfdaeb3a89d3c1bee5b",
      "networkId": 0,
      "chainId": 0
    },
    {
      "hash": "0x04ffefeedda3b8663ad9840f24f5bf0d3f61b9136d53a01ade98e240a5db90c9",
      "blockHash": "0x98acd64013aba409eed9ec3247cbae93f45a299d538c309d8b11253254ef2f41",
      "blockNumber": 84270,
      "transactionIndex": 1,
      "confirmations": null,
      "from": "0xe6A7a1d47ff21B6321162AEA7C6CB457D5476Bca",
      "gasPrice": {
        "_hex": "0xd092a575b"
      },
      "gasLimit": {
        "_hex": "0x55f0"
      },
      "to": "0x06Db13340f562261d079E4FA344802DdE8340307",
      "value": {
        "_hex": "0x3946132c0e675ddc"
      },
      "nonce": 1648,
      "data": "0x",
      "r": "0xbd75f32ee6383b2be879efff8839470fb806adc32eca3d50bf291b3af76e15a1",
      "s": "0x045d40224e89c232662ff01914e1dec9ca891cd5249f3434e36251aec580d5c5",
      "v": 28,
      "creates": null,
      "raw": "0xf86e820670850d092a575b8255f09406db13340f562261d079e4fa344802dde8340307883946132c0e675ddc801ca0bd75f32ee6383b2be879efff8839470fb806adc32eca3d50bf291b3af76e15a1a0045d40224e89c232662ff01914e1dec9ca891cd5249f3434e36251aec580d5c5",
      "networkId": 0,
      "chainId": 0
    },
    {
      "hash": "0x3ac19b2e392e3cfc58919a0d613d9eb3d8ce4fd4a72af15c6565e6c29ed98768",
      "blockHash": "0x98acd64013aba409eed9ec3247cbae93f45a299d538c309d8b11253254ef2f41",
      "blockNumber": 84270,
      "transactionIndex": 2,
      "confirmations": null,
      "from": "0x32Be343B94f860124dC4fEe278FDCBD38C102D88",
      "gasPrice": {
        "_hex": "0xce1854398"
      },
      "gasLimit": {
        "_hex": "0x5208"
      },
      "to": "0x28a9D631e5C22Ee57312DDdc75936822a2243A05",
      "value": {
        "_hex": "0x614fc19e3063ec00"
      },
      "nonce": 678,
      "data": "0x",
      "r": "0x1b9fef72034afad9ef9ebc1981a571a46dd950b6d47c3325abf935ac80ccfd08",
      "s": "0x7a61d0148a2244d7685e9f5c3b0c555f40a1567720a38647a71da06142c245ea",
      "v": 28,
      "creates": null,
      "raw": "0xf86e8202a6850ce18543988252089428a9d631e5c22ee57312dddc75936822a2243a0588614fc19e3063ec00801ca01b9fef72034afad9ef9ebc1981a571a46dd950b6d47c3325abf935ac80ccfd08a07a61d0148a2244d7685e9f5c3b0c555f40a1567720a38647a71da06142c245ea",
      "networkId": 0,
      "chainId": 0
    }
  ]
}