{
  "hash": "0x9497d37d464aed86fd276f23af661b621d39a08fdc62cf5556f838f6bc3182cc",
  "parentHash": "0x1dd69c80705f66e52f0731f50ed5c24b87e811989573cf385f8df0f8d257de94",
  "number": 89298,
  "timestamp": 1439621218,
  "nonce": "0xd64484e366d9ca10",
  "difficulty": 3309584345349,
  "gasLimit": {
    "_hex": "0x2fefd8"
  },
  "gasUsed": {
    "_hex": "0xf87c"
  },
  "miner": "0xe6A7a1d47ff21B6321162AEA7C6CB457D5476Bca",
  "extraData": "0x476574682f76312e302e312d38326566323666362f6c696e75782f676f312e34",
  "transactions": [
    {
      "hash": "0x4815bb70f6c2c58726a68ebc7483583f20c0d9cf0a9eea68b3f4a7a6f3196e45",
      "blockHash": "0x9497d37d464aed86fd276f23af661b621d39a08fdc62cf5556f838f6bc3182cc",
      "blockNumber": 89298,
      "transactionIndex": 0,
      "confirmations": null,
      "from": "0x9d30cB237BC096f17036FC80dd21CA68992ca2d9",
      "gasPrice": {
        "_hex": "0x110c8f7d8de"
      },
      "gasLimit": {
        "_hex": "0xc350"
      },
      "to": "0x2910543Af39abA0Cd09dBb2D50200b3E800A63D2",
      "value": {
        "_hex": "0x6a94d74f430000"
      },
      "nonce": 9,
      "data": "0x454e4e445759415947",
      "r": "0x1c0dd660040c77348c533d7ccd501adbb2ebd63f117eaad51ac83f86b7ae69b5",
      "s": "0x0ba58629b391b98c8f794bfa230bda0716a433ffdf02a52637a22b1492e81ae4",
      "v": 27,
      "creates": null,
      "raw": "0xf87509860110c8f7d8de82c350942910543af39aba0cd09dbb2d50200b3e800a63d2876a94d74f43000089454e4e4457594159471ba01c0dd660040c77348c533d7ccd501adbb2ebd63f117eaad51ac83f86b7ae69b5a00ba58629b391b98c8f794bfa230bda0716a433ffdf02a52637a22b1492e81ae4",
      "networkId": 0,
      "chainId": 0
    },
    {
      "hash": "0x0d63d278f8951b1ea492b3dbea771cd361ff8dc70b920aeba55864645c38f697",
      "blockHash": "0x9497d37d464aed86fd276f23af661b621d39a08fdc62cf5556f838f6bc3182cc",
      "blockNumber": 89298,
      "transactionIndex": 1,
      "confirmations": null,
      "from": "0x235a6dB6107b9b86C686bF9633f7Cc2d42B47e00",
      "gasPrice": {
        "_hex": "0xe058e6411"
      },
      "gasLimit": {
        "_hex": "0x5208"
      },
      "to": "0x32Be343B94f860124dC4fEe278FDCBD38C102D88",
      "value": {
        "_hex": "0xddc387b653c7000"
      },
      "nonce": 0,
      "data": "0x",
      "r": "0xb4ba3d27c27f3a30045d3aad36e2e636c7e8d78cc5176bdda25df9558a1ae7b1",
      "s": "0x01a2080882966649564d15df31b25336fb67c57b0bdcce2cb251ada0b982acd8",
      "v": 28,
      "creates": null,
      "raw": "0xf86c80850e058e64118252089432be343b94f860124dc4fee278fdcbd38c102d88880ddc387b653c7000801ca0b4ba3d27c27f3a30045d3aad36e2e636c7e8d78cc5176bdda25df9558a1ae7b1a001a2080882966649564d15df31b25336fb67c57b0bdcce2cb251ada0b982acd8",
      "networkId": 0,
      "chainId": 0
    },
    {
      "hash": "0x8a002aef0d8afb64882ef38d43a708b10582c94213669ee0c6a141805544e704",
      "blockHash": "0x9497d37d464aed86fd276f23af661b621d39a08fdc62cf5556f838f6bc3182cc",
      "blockNumber": 89298,
      "transactionIndex": 2,
      "confirmations": null,
      "from": "0xa6BDc31c431B8F97848c9D60cbbe9660dc450eB7",
      "gasPrice": {
        "_hex": "0xe058e6411"
      },
      "gasLimit": {
        "_hex": "0x5208"
      },
      "to": "0x32Be343B94f860124dC4fEe278FDCBD38C102D88",
      "value": {
        "_hex": "0x455f1dbf9036a800"
      },
      "nonce": 86,
      "data": "0x",
      "r": "0x7c6787cff0420f9faa193c12e4e878a126248ab7cf10f8b9481bbde02a48a5dc",
      "s": "0x0f95ece17e5b270132244859249a73c6627dbd259863c10cd42f9605dcc78988",
      "v": 27,
      "creates": null,
      "raw": "0xf86c56850e058e64118252089432be343b94f860124dc4fee278fdcbd38c102d8888455f1dbf9036a800801ba07c6787cff0420f9faa193c12e4e878a126248ab7cf10f8b9481bbde02a48a5dca00f95ece17e5b270132244859249a73c6627dbd259863c10cd42f9605dcc78988",
      "networkId": 0,
      "chainId": 0
    }
  ]
}