{
  "hash": "0xd5b8d258828146a2696ffe2f4ffd521fc2a9e5c889273bf9c2c5efa09ed88ddf",
  "parentHash": "0xe9cf1f54eb0ceb00dbab60d37bac6d12a8567a688129f4a213a0cdecd3d0b703",
  "number": 102191,
  "timestamp": 1439834198,
  "nonce": "0xe3dd6b8c769e0c6e",
  "difficulty": 3918448600421,
  "gasLimit": {
    "_hex": "0x2fefd8"
  },
  "gasUsed": {
    "_hex": "0x5208"
  },
  "miner": "0x3E19FcE1f1905c574a913E7484E854df61072e1b",
  "extraData": "0x476574682f76312e302e312f77696e646f77732f676f312e342e32",
  "transactions": [
    {
      "hash": "0x3a2ade6de1286b94ee28b4e7b6b41a3f3675f8795b7fc4e1805da283d23ab5c9",
      "blockHash": "0xd5b8d258828146a2696ffe2f4ffd521fc2a9e5c889273bf9c2c5efa09ed88ddf",
      "blockNumber": 102191,
      "transactionIndex": 0,
      "confirmations": null,
      "from": "0x007f7f58D3eb5b7510A301eCC749FC1fCDDBE14D",
      "gasPrice": {
        "_hex": "0xe0cfe7246"
      },
      "gasLimit": {
        "_hex": "0x15f90"
      },
      "to": "0xb1abce2918E21ddb93AA452731a12672A3d9F75a",
      "value": {
        "_hex": "0x4563918244f40000"
      },
      "nonce": 204,
      "data": "0x",
      "r": "0xad631572503be60f250f6c15274a53cf9260741000636c33cd01bd76da8b9b5f",
      "s": "0x53f950ed28c014153fc1da74449ff80b55453d22a7504eff4b7598b8aa40c23a",
      "v": 28,
      "creates": null,
      "raw": "0xf86e81cc850e0cfe724683015f9094b1abce2918e21ddb93aa452731a12672a3d9f75a884563918244f40000801ca0ad631572503be60f250f6c15274a53cf9260741000636c33cd01bd76da8b9b5fa053f950ed28c014153fc1da74449ff80b55453d22a7504eff4b7598b8aa40c23a",
      "networkId": 0,
      "chainId": 0
    }
  ]
}