{
  "hash": "0xc0f30f4b9bd8bba244ce562acc0c2fd9efa35ae6eeacce35596cb216910c0a4e",
  "parentHash": "0x575b7908f4c72a8909bdb1041923aff427bb7ee0240d2ee3450df1b1d7cacbbf",
  "number": 71349,
  "timestamp": 1439334523,
  "nonce": "0x260ac124cbb53c99",
  "difficulty": 2178316006912,
  "gasLimit": {
    "_hex": "0x2fefd8"
  },
  "gasUsed": {
    "_hex": "0x9400"
  },
  "miner": "0xe6A7a1d47ff21B6321162AEA7C6CB457D5476Bca",
  "extraData": "0x476574682f76312e302e312d38326566323666362f6c696e75782f676f312e34",
  "transactions": [
    {
      "hash": "0xff72438478530490cc3203582b61acf9c519d8d88b8ba7e35c5e56987e8baf55",
      "blockHash": "0xc0f30f4b9bd8bba244ce562acc0c2fd9efa35ae6eeacce35596cb216910c0a4e",
      "blockNumber": 71349,
      "transactionIndex": 0,
      "confirmations": null,
      "from": "0x17580B766f7453525ca4C6A88b01b50570EA088C",
      "gasPrice": {
        "_hex": "0xd7efba59f"
      },
      "gasLimit": {
        "_hex": "0x61a80"
      },
      "to": "0x5Fe5B7546D1628f7348B023A0393de1FC825A4fD",
      "value": {
        "_hex": "0x29a2241af62c0000"
      },
      "nonce": 157,
      "data": "0xb595b8b50000000000000000000000000000000000000000000000000000000000000001",
      "r": "0x0e0d13eadcc7bcb78befcebb7a7b8be77901f364dd2d7e6bb6eb70479b19ec6e",
      "s": "0x28c31514c2f6d26d2ff6fd41e2b436f06a546cc1dd124d1fe809712b273f8c07",
      "v": 28,
      "creates": null,
      "raw": "0xf892819d850d7efba59f83061a80945fe5b7546d1628f7348b023a0393de1fc825a4fd8829a2241af62c0000a4b595b8b500000000000000000000000000000000000000000000000000000000000000011ca00e0d13eadcc7bcb78befcebb7a7b8be77901f364dd2d7e6bb6eb70479b19ec6ea028c31514c2f6d26d2ff6fd41e2b436f06a546cc1dd124d1fe809712b273f8c07",
      "networkId": 0,
      "chainId": 0
    }
  ]
}