{
  "hash": "0xbccc4df623bcd62a7412c251b214fbd9245755979a54d18c8ccbf5c48c897f7f",
  "parentHash": "0x67827b3ed6173a841d230255518238f7cc6a298fec5d255e233028b850f2cd92",
  "number": 81827,
  "timestamp": 1439508529,
  "nonce": "0x540f5a18b98bbb06",
  "difficulty": 2424684651593,
  "gasLimit": {
    "_hex": "0x2fefd8"
  },
  "gasUsed": {
    "_hex": "0x546c"
  },
  "miner": "0x01d9DA08cc6Fb97c0DE1B6F4C28910A0859Ed1A1",
  "extraData": "0x476574682f76312e302e312f6c696e75782f676f312e342e32",
  "transactions": [
    {
      "hash": "0xd22dd7e3fd2385d854eb85bd8707680647254d626364b22d75566c1229f27dbd",
      "blockHash": "0xbccc4df623bcd62a7412c251b214fbd9245755979a54d18c8ccbf5c48c897f7f",
      "blockNumber": 81827,
      "transactionIndex": 0,
      "confirmations": null,
      "from": "0x4E7aa67E12183Ef9D7468eA28ad239C2eEF71b76",
      "gasPrice": {
        "_hex": "0x110c8f7d8de"
      },
      "gasLimit": {
        "_hex": "0xc350"
      },
      "to": "0x2910543Af39abA0Cd09dBb2D50200b3E800A63D2",
      "value": {
        "_hex": "0x16345785d8a0000"
      },
      "nonce": 3,
      "data": "0x454e41315648385247",
      "r": "0x31d77557fcea6ff2af33094e2311fa6c36447a58186fefca8e7430d4312bd65e",
      "s": "0x29a2dd2ff60e0269cfefdf9686ffc4e65bcc16ed452ff7d88ad32b575829ee42",
      "v": 28,
      "creates": null,
      "raw": "0xf87603860110c8f7d8de82c350942910543af39aba0cd09dbb2d50200b3e800a63d288016345785d8a000089454e413156483852471ca031d77557fcea6ff2af33094e2311fa6c36447a58186fefca8e7430d4312bd65ea029a2dd2ff60e0269cfefdf9686ffc4e65bcc16ed452ff7d88ad32b575829ee42",
      "networkId": 0,
      "chainId": 0
    }
  ]
}