{
  "hash": "0xe7a3cd1eb07ce444a2535b5d4d2f3fae00ae5b86c606d413b94104ce4323df77",
  "parentHash": "0x1e0f3bb313b3385516b08427b668fea84f612271528ebc06e457fc3f336b00ef",
  "number": 121947,
  "timestamp": 1440185289,
  "nonce": "0xe3626e6527f55110",
  "difficulty": 4486334661725,
  "gasLimit": {
    "_hex": "0x2fefd8"
  },
  "gasUsed": {
    "_hex": "0x5208"
  },
  "miner": "0x52bc44d5378309EE2abF1539BF71dE1b7d7bE3b5",
  "extraData": "0xd783010002844765746887676f312e342e32856c696e7578",
  "transactions": [
    {
      "hash": "0xe0e59718653f2018298cb834cfb8c0ed84023f9ee0db605552be6aea2e0d49e2",
      "blockHash": "0xe7a3cd1eb07ce444a2535b5d4d2f3fae00ae5b86c606d413b94104ce4323df77",
      "blockNumber": 121947,
      "transactionIndex": 0,
      "confirmations": null,
      "from": "0x007f7f58D3eb5b7510A301eCC749FC1fCDDBE14D",
      "gasPrice": {
        "_hex": "0xba43b7400"
      },
      "gasLimit": {
        "_hex": "0x15f90"
      },
      "to": "0xb1abce2918E21ddb93AA452731a12672A3d9F75a",
      "value": {
        "_hex": "0x4563918244f40000"
      },
      "nonce": 383,
      "data": "0x",
      "r": "0x7d4c8c0c63ed47a5d572ee03d36c3bc789f95f72a362df0b437c6a97c7abf819",
      "s": "0x673911893c6f49308ade975ebc188d13789c103732c67492f25906a432eabd00",
      "v": 27,
      "creates": null,
      "raw": "0xf86f82017f850ba43b740083015f9094b1abce2918e21ddb93aa452731a12672a3d9f75a884563918244f40000801ba07d4c8c0c63ed47a5d572ee03d36c3bc789f95f72a362df0b437c6a97c7abf819a0673911893c6f49308ade975ebc188d13789c103732c67492f25906a432eabd00",
      "networkId": 0,
      "chainId": 0
    }
  ]
}