{
  "hash": "0x2fbfcebdebc8cc7871ff5d919f6ce9eedb274d59cb0428110fa8a29b1aac7256",
  "parentHash": "0xe07c5d2bf5ab290f732d4c3e947d3bfbb990f9e41f1d086b5750e8b9f3dec5d8",
  "number": 95657,
  "timestamp": 1439727414,
  "nonce": "0x712553fd4574e46a",
  "difficulty": 3619719702222,
  "gasLimit": {
    "_hex": "0x2fefd8"
  },
  "gasUsed": {
    "_hex": "0x5208"
  },
  "miner": "0xe6A7a1d47ff21B6321162AEA7C6CB457D5476Bca",
  "extraData": "0x476574682f76312e302e312d38326566323666362f6c696e75782f676f312e34",
  "transactions": [
    {
      "hash": "0xe94baa4693f532a99f3dfee0cb2f495824d319c2ad327a175a49ddc2b4a6110b",
      "blockHash": "0x2fbfcebdebc8cc7871ff5d919f6ce9eedb274d59cb0428110fa8a29b1aac7256",
      "blockNumber": 95657,
      "transactionIndex": 0,
      "confirmations": null,
      "from": "0x5465B1c380c9D2446965E503EB731F08A30ecD25",
      "gasPrice": {
        "_hex": "0xdf86a6eb9"
      },
      "gasLimit": {
        "_hex": "0x5208"
      },
      "to": "0x32Be343B94f860124dC4fEe278FDCBD38C102D88",
      "value": {
        "_hex": "0x48021b7e4fa0cc00"
      },
      "nonce": 2,
      "data": "0x",
      "r": "0xd7f3579a6327d471585ef593673216b78ca359969397d87ffa6e7c71dc872968",
      "s": "0x78f48c1a0f22df7522bb2500637b2a8dc66a24c033ed7486b5299539188cf378",
      "v": 28,
      "creates": null,
      "raw": "0xf86c02850df86a6eb98252089432be343b94f860124dc4fee278fdcbd38c102d888848021b7e4fa0cc00801ca0d7f3579a6327d471585ef593673216b78ca359969397d87ffa6e7c71dc872968a078f48c1a0f22df7522bb2500637b2a8dc66a24c033ed7486b5299539188cf378",
      "networkId": 0,
      "chainId": 0
    }
  ]
}