{
  "hash": "0x5ca1b731966e2141682737798178b2b3140d542215efba3ee8da6e5c0e92e467",
  "parentHash": "0x127750a07ec7fe238c036a78896d06640b89dd9b73db64f8cf1fb1d973038d61",
  "number": 92876,
  "timestamp": 1439678594,
  "nonce": "0x12ad89a20f9fe9b8",
  "difficulty": 3647537684364,
  "gasLimit": {
    "_hex": "0x2fefd8"
  },
  "gasUsed": {
    "_hex": "0x5208"
  },
  "miner": "0xe6A7a1d47ff21B6321162AEA7C6CB457D5476Bca",
  "extraData": "0x476574682f76312e302e312d38326566323666362f6c696e75782f676f312e34",
  "transactions": [
    {
      "hash": "0x701d66300b6d182a427a11d1602084f67b683f856499bcea4c341fb9856250d3",
      "blockHash": "0x5ca1b731966e2141682737798178b2b3140d542215efba3ee8da6e5c0e92e467",
      "blockNumber": 92876,
      "transactionIndex": 0,
      "confirmations": null,
      "from": "0x32Be343B94f860124dC4fEe278FDCBD38C102D88",
      "gasPrice": {
        "_hex": "0xd5747a611"
      },
      "gasLimit": {
        "_hex": "0x5208"
      },
      "to": "0xd268fB48FA174088a25a120aFF0fd8eb0C2d4c87",
      "value": {
        "_hex": "0x2f6f10780d22cc00000"
      },
      "nonce": 904,
      "data": "0x",
      "r": "0x1e140196442e90f649258f1492efe7b7d6d42adbe1ae35aee5eac8c2766e2435",
      "s": "0x56c1e7af001208374938ae0fd53ba31fef2933bf816ffc578ffc1d5ae64c7f55",
      "v": 28,
      "creates": null,
      "raw": "0xf870820388850d5747a61182520894d268fb48fa174088a25a120aff0fd8eb0c2d4c878a02f6f10780d22cc00000801ca01e140196442e90f649258f1492efe7b7d6d42adbe1ae35aee5eac8c2766e2435a056c1e7af001208374938ae0fd53ba31fef2933bf816ffc578ffc1d5ae64c7f55",
      "networkId": 0,
      "chainId": 0
    }
  ]
}