{
  "hash": "0xbebf2c591006c3b7677743249fabb08e39f255c6d1d5e42efd50f4e34212ba0d",
  "parentHash": "0x3b829be509e811da5ee6708f54b935880354835f24c82d27c284d3560618f827",
  "number": 46864,
  "timestamp": 1438930675,
  "nonce": "0xcc9d889747254234",
  "difficulty": 1454602446764,
  "gasLimit": {
    "_hex": "0x8096"
  },
  "gasUsed": {
    "_hex": "0x5208"
  },
  "miner": "0x0037ce3d4B7f8729C8607D8D0248252Be68202c0",
  "extraData": "0x476574682f76312e302e312f77696e646f77732f676f312e342e32",
  "transactions": [
    {
      "hash": "0xe7315eccb919f2cb600da80958a2ee435532751de12d9f75f4a66a843b84bc99",
      "blockHash": "0xbebf2c591006c3b7677743249fabb08e39f255c6d1d5e42efd50f4e34212ba0d",
      "blockNumber": 46864,
      "transactionIndex": 0,
      "confirmations": null,
      "from": "0xe6A7a1d47ff21B6321162AEA7C6CB457D5476Bca",
      "gasPrice": {
        "_hex": "0xdd1c1f7d7"
      },
      "gasLimit": {
        "_hex": "0x5208"
      },
      "to": "0xE6E9CF0f014F687dEE574d81D6a2fB6aC182922c",
      "value": {
        "_hex": "0x1401d361433cfd4c"
      },
      "nonce": 10,
      "data": "0x",
      "r": "0x596c71878a8cfcb6bf9933c9c78b0bf6c946b54e6db9787741dc6a97e364c24b",
      "s": "0x50d12d5c30f9bd7134a7bcf5b39aa1801c3993f2721fc1e6df4c89199cc022c7",
      "v": 27,
      "creates": null,
      "raw": "0xf86c0a850dd1c1f7d782520894e6e9cf0f014f687dee574d81d6a2fb6ac182922c881401d361433cfd4c801ba0596c71878a8cfcb6bf9933c9c78b0bf6c946b54e6db9787741dc6a97e364c24ba050d12d5c30f9bd7134a7bcf5b39aa1801c3993f2721fc1e6df4c89199cc022c7",
      "networkId": 0,
      "chainId": 0
    }
  ]
}