{
  "hash": "0x2a9e4065c9c2418253ea191cf6fcb5cea77e2a33cf7bbcd7ae1cb46114b2dfc5",
  "parentHash": "0x03e97e95ec3ddaaaaff0f09f602f025e8134ea962f0c8cc47f8f97831b1f66df",
  "number": 58061,
  "timestamp": 1439114543,
  "nonce": "0x40e205b666295643",
  "difficulty": 1705813952280,
  "gasLimit": {
    "_hex": "0x2fefd8"
  },
  "gasUsed": {
    "_hex": "0x5208"
  },
  "miner": "0x5F8F73E26CdF436f19Cb24C82F90A15AFe55b592",
  "extraData": "0x476574682f76312e302e312f77696e646f77732f676f312e342e32",
  "transactions": [
    {
      "hash": "0x21ac1e7d777722d75b381a53db2d6138131e63242e397a077e1dd3f8a753a117",
      "blockHash": "0x2a9e4065c9c2418253ea191cf6fcb5cea77e2a33cf7bbcd7ae1cb46114b2dfc5",
      "blockNumber": 58061,
      "transactionIndex": 0,
      "confirmations": null,
      "from": "0x1463cEF3d9007Db05b7C3B8981D38602EE0D855a",
      "gasPrice": {
        "_hex": "0xdf14661d9"
      },
      "gasLimit": {
        "_hex": "0x5208"
      },
      "to": "0x32Be343B94f860124dC4fEe278FDCBD38C102D88",
      "value": {
        "_hex": "0x455f19cac0023c00"
      },
      "nonce": 1,
      "data": "0x",
      "r": "0xaa364f09e23087780f2ff9f02dfdf180536ad294a6bcafe4550a8bb309b506c3",
      "s": "0x48213792ba55262db28d8a6be314de7ac9faec0ca010e7538188d97b53b12cbb",
      "v": 28,
      "creates": null,
      "raw": "0xf86c01850df14661d98252089432be343b94f860124dc4fee278fdcbd38c102d8888455f19cac0023c00801ca0aa364f09e23087780f2ff9f02dfdf180536ad294a6bcafe4550a8bb309b506c3a048213792ba55262db28d8a6be314de7ac9faec0ca010e7538188d97b53b12cbb",
      "networkId": 0,
      "chainId": 0
    }
  ]
}