{
  "hash": "0x03cc3427f39574842af290dbed6851abb54abd0b456c49211beaec135f60e6d6",
  "parentHash": "0x82bd5356091272deee5ed8b4af47e5463166d2f726a5c566962b8b12cd2a6303",
  "number": 65502,
  "timestamp": 1439238126,
  "nonce": "0x9dd7d2edcc0b32b1",
  "difficulty": 1951131125323,
  "gasLimit": {
    "_hex": "0x2fefd8"
  },
  "gasUsed": {
    "_hex": "0x7a120"
  },
  "miner": "0x39A1BB80a741bF5EC39FB9BE59408Fa0F418fFBf",
  "extraData": "0x476574682f76312e302e312f77696e646f77732f676f312e342e32",
  "transactions": [
    {
      "hash": "0xdc51299b9170c4367bb41faeeb4265d4127ee2346ecb5cfc5741eae825fdc234",
      "blockHash": "0x03cc3427f39574842af290dbed6851abb54abd0b456c49211beaec135f60e6d6",
      "blockNumber": 65502,
      "transactionIndex": 0,
      "confirmations": null,
      "from": "0xd2731F6A25bC94eD032b33085b23fC37f6A554a6",
      "gasPrice": {
        "_hex": "0xd7d40ace3"
      },
      "gasLimit": {
        "_hex": "0x7a120"
      },
      "to": "0x109C4f2CCc82C4d77Bde15F306707320294Aea3F",
      "value": {
        "_hex": "0xde0b6b3a7640000"
      },
      "nonce": 0,
      "data": "0x",
      "r": "0x503c21747b50b4caee807e2933d8426d2012d861e5544ccb8ba867c4965ab1b5",
      "s": "0x678494421aaf1b7ea81d6bbcc45a2af18e813ac62001864c97408f3eacb91ebc",
      "v": 28,
      "creates": null,
      "raw": "0xf86d80850d7d40ace38307a12094109c4f2ccc82c4d77bde15f306707320294aea3f880de0b6b3a7640000801ca0503c21747b50b4caee807e2933d8426d2012d861e5544ccb8ba867c4965ab1b5a0678494421aaf1b7ea81d6bbcc45a2af18e813ac62001864c97408f3eacb91ebc",
      "networkId": 0,
      "chainId": 0
    }
  ]
}