{
  "hash": "0x1d7e74281fb17a766445c35cbc0cd00f92a69b02d38e9b5de35d216006d98f98",
  "parentHash": "0xdbad92a72e459805d3bf3c645963a692ddea77b2e9792c036783981f1b40a210",
  "number": 83334,
  "timestamp": 1439533770,
  "nonce": "0xa2c1d0b18df572d9",
  "difficulty": 2420700553192,
  "gasLimit": {
    "_hex": "0x2fefd8"
  },
  "gasUsed": {
    "_hex": "0xa410"
  },
  "miner": "0xbb7B8287f3F0a933474a79eAe42CBCa977791171",
  "extraData": "0x476574682f4c5649562f76312e302e312f6c696e75782f676f312e342e32",
  "transactions": [
    {
      "hash": "0xd422d1c55077b894109448b6ab6a153cf4c5a8cc382bf179dadcab0024d8f5c6",
      "blockHash": "0x1d7e74281fb17a766445c35cbc0cd00f92a69b02d38e9b5de35d216006d98f98",
      "blockNumber": 83334,
      "transactionIndex": 0,
      "confirmations": null,
      "from": "0xa70a9a7040d542C632D8e0bE7c5513A8a5Bbc752",
      "gasPrice": {
        "_hex": "0xdf289158d"
      },
      "gasLimit": {
        "_hex": "0x5208"
      },
      "to": "0x32Be343B94f860124dC4fEe278FDCBD38C102D88",
      "value": {
        "_hex": "0x455f1961f9eb2800"
      },
      "nonce": 71,
      "data": "0x",
      "r": "0x580c7ebfbc1bd0a6a87687470c238cdf1e66a3bf9494497c69fab734d10d3861",
      "s": "0x674094812667c4fc488e815264b72111806e61860dd78b4cbc6e332115c1d760",
      "v": 27,
      "creates": null,
      "raw": "0xf86c47850df289158d8252089432be343b94f860124dc4fee278fdcbd38c102d8888455f1961f9eb2800801ba0580c7ebfbc1bd0a6a87687470c238cdf1e66a3bf9494497c69fab734d10d3861a0674094812667c4fc488e815264b72111806e61860dd78b4cbc6e332115c1d760",
      "networkId": 0,
      "chainId": 0
    },
    {
      "hash": "0xf3c7ae4c03ea916dca2189ee9c5a590a6d42f6d5a517d80638fe9e0fe34d47ce",
      "blockHash": "0x1d7e74281fb17a766445c35cbc0cd00f92a69b02d38e9b5de35d216006d98f98",
      "blockNumber": 83334,
      "transactionIndex": 1,
      "confirmations": null,
      "from": "0x931Ac2444b057f80A06A4FB627f26FFA5CE41184",
      "gasPrice": {
        "_hex": "0xdf289158d"
      },
      "gasLimit": {
        "_hex": "0x5208"
      },
      "to": "0x32Be343B94f860124dC4fEe278FDCBD38C102D88",
      "value": {
        "_hex": "0x16b6c68fed01af0000"
      },
      "nonce": 7,
      "data": "0x",
      "r": "0x143411250900993338c87346f011a41fd3d47a354257801444ce239825ce7ac6",
      "s": "0x3d3a88f519ee8a3dad83260619d86ae8197c37eb77cea3d15fdcb172c1a1a305",
      "v": 28,
      "creates": null,
      "raw": "0xf86d07850df289158d8252089432be343b94f860124dc4fee278fdcbd38c102d888916b6c68fed01af0000801ca0143411250900993338c87346f011a41fd3d47a354257801444ce239825ce7ac6a03d3a88f519ee8a3dad83260619d86ae8197c37eb77cea3d15fdcb172c1a1a305",
      "networkId": 0,
      "chainId": 0
    }
  ]
}