{
  "hash": "0xaf0615219cf8b66cabdd0ca559cc27dfc070740489f5f83fd7afcdf717d00ee4",
  "parentHash": "0xb76c54058fb9eb9590cf1140f8f4df429d2632fb2196b7b551bc1cbad84bcbb8",
  "number": 60003,
  "timestamp": 1439147361,
  "nonce": "0x374c2fdac152fcdb",
  "difficulty": 1730584689760,
  "gasLimit": {
    "_hex": "0x2fefd8"
  },
  "gasUsed": {
    "_hex": "0x1d415"
  },
  "miner": "0x6541237dAaFf6688A79f9F2F370Ca0E7Ee20BD33",
  "extraData": "0x476574682f76312e302e312f77696e646f77732f676f312e342e32",
  "transactions": [
    {
      "hash": "0xcecf1e0adb943fcd8fbd5f6ecd27d16c028d5b26f6ac7cbe4e8962698cca87d6",
      "blockHash": "0xaf0615219cf8b66cabdd0ca559cc27dfc070740489f5f83fd7afcdf717d00ee4",
      "blockNumber": 60003,
      "transactionIndex": 0,
      "confirmations": null,
      "from": "0xc56e71225f1372c990E6829D53A1Ab76d27301cf",
      "gasPrice": {
        "_hex": "0xe12a9b6c2"
      },
      "gasLimit": {
        "_hex": "0x15f90"
      },
      "to": "0xA5fb3E4399E8F18643f969D0Ce65CC352fc252C6",
      "value": {
        "_hex": "0xc16bf267ed01c0000"
      },
      "nonce": 4,
      "data": "0x",
      "r": "0x25a10dc7406feeb62b6f59460108a6f4500b69230e37d5eb5bda9d767ec54005",
      "s": "0x316d88f4806c716a3a4be5dddd9da0e3f180226d1a58cd39004e2afff35690b7",
      "v": 27,
      "creates": null,
      "raw": "0xf86e04850e12a9b6c283015f9094a5fb3e4399e8f18643f969d0ce65cc352fc252c6890c16bf267ed01c0000801ba025a10dc7406feeb62b6f59460108a6f4500b69230e37d5eb5bda9d767ec54005a0316d88f4806c716a3a4be5dddd9da0e3f180226d1a58cd39004e2afff35690b7",
      "networkId": 0,
      "chainId": 0
    },
    {
      "hash": "0xf417de45ccef630ffad3ddc88dbf40aacfe9f29391df01dd77721964c4574e1c",
      "blockHash": "0xaf0615219cf8b66cabdd0ca559cc27dfc070740489f5f83fd7afcdf717d00ee4",
      "blockNumber": 60003,
      "transactionIndex": 1,
      "confirmations": null,
      "from": "0x86889b1CeA13d370E827e099e3778b17d488B3Dd",
      "gasPrice": {
        "_hex": "0xdca9f6c2b"
      },
      "gasLimit": {
        "_hex": "0x7a120"
      },
      "to": "0x109C4f2CCc82C4d77Bde15F306707320294Aea3F",
      "value": {
        "_hex": "0xde0b6b3a7640000"
      },
      "nonce": 1,
      "data": "0x",
      "r": "0x8497a84410ae061c6a83f73f0a317cf95a6b0f2821187a477a02e1dd9497c251",
      "s": "0x486ac75b7c7ed15c6f4fd4c670de32f1d6a03e03f8bd3ce44b228d43b2b00b95",
      "v": 27,
      "creates": null,
      "raw": "0xf86d01850dca9f6c2b8307a12094109c4f2ccc82c4d77bde15f306707320294aea3f880de0b6b3a7640000801ba08497a84410ae061c6a83f73f0a317cf95a6b0f2821187a477a02e1dd9497c251a0486ac75b7c7ed15c6f4fd4c670de32f1d6a03e03f8bd3ce44b228d43b2b00b95",
      "networkId": 0,
      "chainId": 0
    },
    {
      "hash": "0x09ac27043afe74a1dc237da78ff5d130a937fc328596785b2cfee4c3a4fdf3d7",
      "blockHash": "0xaf0615219cf8b66cabdd0ca559cc27dfc070740489f5f83fd7afcdf717d00ee4",
      "blockNumber": 60003,
      "transactionIndex": 2,
      "confirmations": null,
      "from": "0x3D0768da09CE77d25e2d998E6a7b6eD4b9116c2D",
      "gasPrice": {
        "_hex": "0xdc1ef0564"
      },
      "gasLimit": {
        "_hex": "0x5208"
      },
      "to": "0x37fdD436C4F06bbD63a93dA53EC3Ea91645F8866",
      "value": {
        "_hex": "0xddd2935029d8000"
      },
      "nonce": 37,
      "data": "0x",
      "r": "0x34fad980dcefeec6d9eeadf04eb7e764c97051f1178ef3fa27cbb954bdf5da54",
      "s": "0x20235cbe464ff13c0840d3ae3f058da3579b8b5f981be956e582e7a063758940",
      "v": 28,
      "creates": null,
      "raw": "0xf86c25850dc1ef05648252089437fdd436c4f06bbd63a93da53ec3ea91645f8866880ddd2935029d8000801ca034fad980dcefeec6d9eeadf04eb7e764c97051f1178ef3fa27cbb954bdf5da54a020235cbe464ff13c0840d3ae3f058da3579b8b5f981be956e582e7a063758940",
      "networkId": 0,
      "chainId": 0
    },
    {
      "hash": "0xb24d20c2641703c30c3de0f09f2220f8b7e4458885b4fc19b72e5ea8daf15bf2",
      "blockHash": "0xaf0615219cf8b66cabdd0ca559cc27dfc070740489f5f83fd7afcdf717d00ee4",
      "blockNumber": 60003,
      "transactionIndex": 3,
      "confirmations": null,
      "from": "0x667f01423a28c172E9593779554952B0c2c6524D",
      "gasPrice": {
        "_hex": "0xd73414a5b"
      },
      "gasLimit": {
        "_hex": "0x5208"
      },
      "to": "0x32Be343B94f860124dC4fEe278FDCBD38C102D88",
      "value": {
        "_hex": "0x1bab4fcee119d400"
      },
      "nonce": 0,
      "data": "0x",
      "r": "0x206dfd83afcfaa5447bab18a8a1739e95dda46897aaf46d03a9122a6f048664c",
      "s": "0x402da3658893e12fa78e3c46824105459e4402e1f5e02955ff67bd170ac3a0c1",
      "v": 28,
      "creates": null,
      "raw": "0xf86c80850d73414a5b8252089432be343b94f860124dc4fee278fdcbd38c102d88881bab4fcee119d400801ca0206dfd83afcfaa5447bab18a8a1739e95dda46897aaf46d03a9122a6f048664ca0402da3658893e12fa78e3c46824105459e4402e1f5e02955ff67bd170ac3a0c1",
      "networkId": 0,
      "chainId": 0
    }
  ]
}