{
  "hash": "0x16990e41ac2d7fdbb0200aa50b12ce4f30b412ad90caa69e0faf17ddc94fa8b3",
  "parentHash": "0x5978cf75ad136e6a22e25a25d11009ee35ce313565a1ea2e43354d8e5274d1a1",
  "number": 112492,
  "timestamp": 1440008332,
  "nonce": "0xe7af5a9bb6726916",
  "difficulty": 4410979399975,
  "gasLimit": {
    "_hex": "0x2fefd8"
  },
  "gasUsed": {
    "_hex": "0xa410"
  },
  "miner": "0xe6A7a1d47ff21B6321162AEA7C6CB457D5476Bca",
  "extraData": "0x476574682f76312e302e312d38326566323666362f6c696e75782f676f312e34",
  "transactions": [
    {
      "hash": "0xce312fad14947509adb4e635fed14e8ccd76cdd1f67d46d174f44670ca6dc988",
      "blockHash": "0x16990e41ac2d7fdbb0200aa50b12ce4f30b412ad90caa69e0faf17ddc94fa8b3",
      "blockNumber": 112492,
      "transactionIndex": 0,
      "confirmations": null,
      "from": "0x32Be343B94f860124dC4fEe278FDCBD38C102D88",
      "gasPrice": {
        "_hex": "0xcfa3d707b"
      },
      "gasLimit": {
        "_hex": "0x5208"
      },
      "to": "0x49f0609Ed78ee50FAa268a9Bdeb2949fa50d83eD",
      "value": {
        "_hex": "0x8aa39c121a270000"
      },
      "nonce": 1342,
      "data": "0x",
      "r": "0xc5f983d54ca4b85a6d114c4f9231b466952e4d429de7b989eb85592760dfc90f",
      "s": "0x4c532cf76c1a86c26fd7220f87f89bf884f2aaedc25b146b4b614ffbe8e5ffd9",
      "v": 27,
      "creates": null,
      "raw": "0xf86e82053e850cfa3d707b8252089449f0609ed78ee50faa268a9bdeb2949fa50d83ed888aa39c121a270000801ba0c5f983d54ca4b85a6d114c4f9231b466952e4d429de7b989eb85592760dfc90fa04c532cf76c1a86c26fd7220f87f89bf884f2aaedc25b146b4b614ffbe8e5ffd9",
      "networkId": 0,
      "chainId": 0
    },
    {
      "hash": "0x60c0feb41bcd1f3966158f2c8df0e84bec3e7b53e4ff04e2353cb5eb2606dfbd",
      "blockHash": "0x16990e41ac2d7fdbb0200aa50b12ce4f30b412ad90caa69e0faf17ddc94fa8b3",
      "blockNumber": 112492,
      "transactionIndex": 1,
      "confirmations": null,
      "from": "0x123843545FB525C8E134c9A5F15ADA6865cc3848",
      "gasPrice": {
        "_hex": "0xba43b7400"
      },
      "gasLimit": {
        "_hex": "0x7530"
      },
      "to": "0xa9f5E7bf6Cbf6fEc55B30850Eb492b47A376d050",
      "value": {
        "_hex": "0x8d614546394ac0000"
      },
      "nonce": 15,
      "data": "0x",
      "r": "0x3d256caa7d0ef37db37f0172c11ab3e689f9b0f27998692f89515a7f848bde50",
      "s": "0x58b52ef8140c3cc4056af43d152d0724161172b0eee0d5e7d1012747308372ab",
      "v": 27,
      "creates": null,
      "raw": "0xf86d0f850ba43b740082753094a9f5e7bf6cbf6fec55b30850eb492b47a376d0508908d614546394ac0000801ba03d256caa7d0ef37db37f0172c11ab3e689f9b0f27998692f89515a7f848bde50a058b52ef8140c3cc4056af43d152d0724161172b0eee0d5e7d1012747308372ab",
      "networkId": 0,
      "chainId": 0
    }
  ]
}