{
  "hash": "0x15539661e9b133fb5f3878b997bee70710b44d0bb9fc6f0449037c374964d2d3",
  "parentHash": "0x841fde7eec46937d7bd0b09789483215b6c86401f929f5d5db9aaef46f2284fe",
  "number": 77535,
  "timestamp": 1439438891,
  "nonce": "0xa1329c29e8adb2b5",
  "difficulty": 2248000693825,
  "gasLimit": {
    "_hex": "0x2fefd8"
  },
  "gasUsed": {
    "_hex": "0x5208"
  },
  "miner": "0x6DE55b563cE6E319cCB403032Da3BE5Ad4ec4FcF",
  "extraData": "0x",
  "transactions": [
    {
      "hash": "0x081cf1106f557fe5c9db1c92691b137d9998c6c3332b58f4c41df8a3b0f58ec0",
      "blockHash": "0x15539661e9b133fb5f3878b997bee70710b44d0bb9fc6f0449037c374964d2d3",
      "blockNumber": 77535,
      "transactionIndex": 0,
      "confirmations": null,
      "from": "0x9F3a74Fd5e7edCC1162993171381cbB632b7cFF0",
      "gasPrice": {
        "_hex": "0xdad4b627b"
      },
      "gasLimit": {
        "_hex": "0x5208"
      },
      "to": "0x222095B35B78b137424d0aec5ab394e7c4256e41",
      "value": {
        "_hex": "0x1b1ae4d6e2ef500000"
      },
      "nonce": 19,
      "data": "0x",
      "r": "0x7b3ec5a6c02efeba4611b47658319759b6a7eb72731e47965dd1215bc1b473c4",
      "s": "0x5d25be8236f1dd0cf01b02b85ff6a29c4c40597dffb10d6e0b72cdd7d03adfb5",
      "v": 27,
      "creates": null,
      "raw": "0xf86d13850dad4b627b82520894222095b35b78b137424d0aec5ab394e7c4256e41891b1ae4d6e2ef500000801ba07b3ec5a6c02efeba4611b47658319759b6a7eb72731e47965dd1215bc1b473c4a05d25be8236f1dd0cf01b02b85ff6a29c4c40597dffb10d6e0b72cdd7d03adfb5",
      "networkId": 0,
      "chainId": 0
    }
  ]
}