{
  "hash": "0x3f7072b4d70a465c090f9a43dc1e4775497909638bf118488baf42651e5988fe",
  "parentHash": "0x5051e3d69a3a9f4aaf3efdcdf68b602f303e35f630a3ad154bfc974ef8eb3605",
  "number": 49652,
  "timestamp": 1438976912,
  "nonce": "0x2d645b3fce05a976",
  "difficulty": 1484247766543,
  "gasLimit": {
    "_hex": "0x3939b"
  },
  "gasUsed": {
    "_hex": "0xf618"
  },
  "miner": "0x33b01a7fe4A1a5F774Bb73f89A4eF15a6Ffe1141",
  "extraData": "0x476574682f76312e302e312f6c696e75782f676f312e342e32",
  "transactions": [
    {
      "hash": "0xf4e4dc02c813e43b6a79547a087cfc961c3ed675b8c96bc019f22b9663795f40",
      "blockHash": "0x3f7072b4d70a465c090f9a43dc1e4775497909638bf118488baf42651e5988fe",
      "blockNumber": 49652,
      "transactionIndex": 0,
      "confirmations": null,
      "from": "0xBb990e55844f15Ac000cEB515D5a2A315Db9CB0B",
      "gasPrice": {
        "_hex": "0xd97e03cde"
      },
      "gasLimit": {
        "_hex": "0x5208"
      },
      "to": "0x32Be343B94f860124dC4fEe278FDCBD38C102D88",
      "value": {
        "_hex": "0x6c6b8f00780e900000"
      },
      "nonce": 1,
      "data": "0x",
      "r": "0xb27817e5b2642a4829564d8502a6907582f63dc0cbcf79e23ab08ac7031a5a85",
      "s": "0x38ba97a7fc35e3fa9e8c259151e821d1d51c93c3940e59a20dd788f7f52360ab",
      "v": 27,
      "creates": null,
      "raw": "0xf86d01850d97e03cde8252089432be343b94f860124dc4fee278fdcbd38c102d88896c6b8f00780e900000801ba0b27817e5b2642a4829564d8502a6907582f63dc0cbcf79e23ab08ac7031a5a85a038ba97a7fc35e3fa9e8c259151e821d1d51c93c3940e59a20dd788f7f52360ab",
      "networkId": 0,
      "chainId": 0
    },
    {
      "hash": "0x429e236219a320672d1315a4e703fade43f8955f8dee0149c06ff4bd97e06803",
      "blockHash": "0x3f7072b4d70a465c090f9a43dc1e4775497909638bf118488baf42651e5988fe",
      "blockNumber": 49652,
      "transactionIndex": 1,
      "confirmations": null,
      "from": "0xbb30e448B72d6Fdd44973A4C7a312F92f22C8F07",
      "gasPrice": {
        "_hex": "0xd97e03cde"
      },
      "gasLimit": {
        "_hex": "0x5208"
      },
      "to": "0x32Be343B94f860124dC4fEe278FDCBD38C102D88",
      "value": {
        "_hex": "0xddc5b9ff8b5d000"
      },
      "nonce": 0,
      "data": "0x",
      "r": "0xf2c8f2958377d6742831d4c315db54748fca6878813b8a17cab667a042d23c37",
      "s": "0x2513da8112a09b1466c8457aba756897f0eff5f6e6abf044e9cde74eb32ed31f",
      "v": 28,
      "creates": null,
      "raw": "0xf86c80850d97e03cde8252089432be343b94f860124dc4fee278fdcbd38c102d88880ddc5b9ff8b5d000801ca0f2c8f2958377d6742831d4c315db54748fca6878813b8a17cab667a042d23c37a02513da8112a09b1466c8457aba756897f0eff5f6e6abf044e9cde74eb32ed31f",
      "networkId": 0,
      "chainId": 0
    },
    {
      "hash": "0x805d2610d753b99015466281b8c24173b1a5bc694414c029d8f018008d1c49bb",
      "blockHash": "0x3f7072b4d70a465c090f9a43dc1e4775497909638bf118488baf42651e5988fe",
      "blockNumber": 49652,
      "transactionIndex": 2,
      "confirmations": null,
      "from": "0xA5fb3E4399E8F18643f969D0Ce65CC352fc252C6",
      "gasPrice": {
        "_hex": "0xd97e03cde"
      },
      "gasLimit": {
        "_hex": "0x5208"
      },
      "to": "0x32Be343B94f860124dC4fEe278FDCBD38C102D88",
      "value": {
        "_hex": "0xddfe91e9d7c5000"
      },
      "nonce": 0,
      "data": "0x",
      "r": "0x2b64fad9ce084a0c09d30b26ad87747752d9bdee2257341e8550e9a6e5ba17b9",
      "s": "0x20cbc7d5bbc899f365e934c8e9de37ed223a1efc0121d2f2dba2b79ecab4f989",
      "v": 28,
      "creates": null,
      "raw": "0xf86c80850d97e03cde8252089432be343b94f860124dc4fee278fdcbd38c102d88880ddfe91e9d7c5000801ca02b64fad9ce084a0c09d30b26ad87747752d9bdee2257341e8550e9a6e5ba17b9a020cbc7d5bbc899f365e934c8e9de37ed223a1efc0121d2f2dba2b79ecab4f989",
      "networkId": 0,
      "chainId": 0
    }
  ]
}