{
  "hash": "0x4cfe0a66f6a056759dd85bc4af892e61dbea4d4fd710811efe4a53cc47552723",
  "parentHash": "0xbe993de81da4b57133df95aacb972d38c148e799dc6f746eb724b451068e4c37",
  "number": 60720,
  "timestamp": 1439160440,
  "nonce": "0xa8347f0435d140b9",
  "difficulty": 1732973454859,
  "gasLimit": {
    "_hex": "0x2fefd5"
  },
  "gasUsed": {
    "_hex": "0x5208"
  },
  "miner": "0x5F8F73E26CdF436f19Cb24C82F90A15AFe55b592",
  "extraData": "0x476574682f76312e302e312f77696e646f77732f676f312e342e32",
  "transactions": [
    {
      "hash": "0xd55e71092a0f1f15803a946d41993d93d966691019895afe3ab9b1d0c0729f82",
      "blockHash": "0x4cfe0a66f6a056759dd85bc4af892e61dbea4d4fd710811efe4a53cc47552723",
      "blockNumber": 60720,
      "transactionIndex": 0,
      "confirmations": null,
      "from": "0x3Ad06149b21C55Ff867cc3fb9740D2BCc7101231",
      "gasPrice": {
        "_hex": "0xd7f8a6df7"
      },
      "gasLimit": {
        "_hex": "0x15f90"
      },
      "to": "0x314c7Daa4825ffC0293819119c5FDCC0CcF19827",
      "value": {
        "_hex": "0x43c33c1937564800000"
      },
      "nonce": 16,
      "data": "0x",
      "r": "0x2f61a63602e826a76f85b2d53f9671ad29c18af6fa23965a177e049881d0d5e0",
      "s": "0x6920ca8edb7c230f1fbd485324d0fe22d8cb9c9b9a0396c79d51a9121e3c7041",
      "v": 27,
      "creates": null,
      "raw": "0xf86f10850d7f8a6df783015f9094314c7daa4825ffc0293819119c5fdcc0ccf198278a043c33c1937564800000801ba02f61a63602e826a76f85b2d53f9671ad29c18af6fa23965a177e049881d0d5e0a06920ca8edb7c230f1fbd485324d0fe22d8cb9c9b9a0396c79d51a9121e3c7041",
      "networkId": 0,
      "chainId": 0
    }
  ]
}