{
  "hash": "0x31e6199b76d437639431ffbb5fc864372a00a847d2e0501999c992343d61eb5c",
  "parentHash": "0x1cde32f9120b545bc1f287abb1ec66c9e069e3b89e185cb18f16da6bc1687b50",
  "number": 105451,
  "timestamp": 1439887889,
  "nonce": "0x456a7bd88a25f554",
  "difficulty": 4386749179239,
  "gasLimit": {
    "_hex": "0x2fefd8"
  },
  "gasUsed": {
    "_hex": "0xa410"
  },
  "miner": "0x9D49F602b0fdb924Bd63DDE2Bd0907E4A07c63a7",
  "extraData": "0x476574682f76312e302e312f6c696e75782f676f312e342e32",
  "transactions": [
    {
      "hash": "0x4ba1cde15200d4ff2aadd8a28010d8487248a72ba6def6e23ac398a0413fb597",
      "blockHash": "0x31e6199b76d437639431ffbb5fc864372a00a847d2e0501999c992343d61eb5c",
      "blockNumber": 105451,
      "transactionIndex": 0,
      "confirmations": null,
      "from": "0xF2B3F8Eb4e663dA275b8C57fe45A0E8D489Eac2E",
      "gasPrice": {
        "_hex": "0xccf27baf3"
      },
      "gasLimit": {
        "_hex": "0x5208"
      },
      "to": "0x32Be343B94f860124dC4fEe278FDCBD38C102D88",
      "value": {
        "_hex": "0x4c0aefc1441b5c00"
      },
      "nonce": 2,
      "data": "0x",
      "r": "0xc592e7a08f5cb00962d58a1a4c2980202928a57ae3f55bf44c9704bae3e607a6",
      "s": "0x05701bfc40334fe2391b1dfafc327e8cc4165a19703078c617e661f0e78106fe",
      "v": 28,
      "creates": null,
      "raw": "0xf86c02850ccf27baf38252089432be343b94f860124dc4fee278fdcbd38c102d88884c0aefc1441b5c00801ca0c592e7a08f5cb00962d58a1a4c2980202928a57ae3f55bf44c9704bae3e607a6a005701bfc40334fe2391b1dfafc327e8cc4165a19703078c617e661f0e78106fe",
      "networkId": 0,
      "chainId": 0
    },
    {
      "hash": "0x00f0f9e1ba835302c7c919821f0d0b132a8cdb58b6d619d0b04621d152b05631",
      "blockHash": "0x31e6199b76d437639431ffbb5fc864372a00a847d2e0501999c992343d61eb5c",
      "blockNumber": 105451,
      "transactionIndex": 1,
      "confirmations": null,
      "from": "0x4a900C6a7785648E677cd96E39603466c0C7744A",
      "gasPrice": {
        "_hex": "0xccf27baf3"
      },
      "gasLimit": {
        "_hex": "0x5208"
      },
      "to": "0x32Be343B94f860124dC4fEe278FDCBD38C102D88",
      "value": {
        "_hex": "0x5d1629883536b000"
      },
      "nonce": 4,
      "data": "0x",
      "r": "0x8e5e2520f444094f623ed1a33d4cd38101979a55128d3ca1415bb13fb3259e71",
      "s": "0x772c2576986186e26e0bd97a9412a9ebdf1cce051aafdcd4b9a45a6c82160aca",
      "v": 28,
      "creates": null,
      "raw": "0xf86c04850ccf27baf38252089432be343b94f860124dc4fee278fdcbd38c102d88885d1629883536b000801ca08e5e2520f444094f623ed1a33d4cd38101979a55128d3ca1415bb13fb3259e71a0772c2576986186e26e0bd97a9412a9ebdf1cce051aafdcd4b9a45a6c82160aca",
      "networkId": 0,
      "chainId": 0
    }
  ]
}