{
  "hash": "0x22161380f6f9db3a150d291022d10df6b84865b5203a4abc01a019c87be59ba4",
  "parentHash": "0x87c48728a567213ad1493bd2af4d11695e8997c4874ac83aa7af3e766966d72f",
  "number": 97104,
  "timestamp": 1439750824,
  "nonce": "0xe64e1e333eb31a3c",
  "difficulty": 3754087300798,
  "gasLimit": {
    "_hex": "0x2fefd8"
  },
  "gasUsed": {
    "_hex": "0x5208"
  },
  "miner": "0xe6A7a1d47ff21B6321162AEA7C6CB457D5476Bca",
  "extraData": "0x476574682f76312e302e312d38326566323666362f6c696e75782f676f312e34",
  "transactions": [
    {
      "hash": "0xb55a8f5e606ee7cb22ba87786c99c7f649c860702178aae38f9e1905201cb7e1",
      "blockHash": "0x22161380f6f9db3a150d291022d10df6b84865b5203a4abc01a019c87be59ba4",
      "blockNumber": 97104,
      "transactionIndex": 0,
      "confirmations": null,
      "from": "0x40B9b889A21Ff1534d018D71Dc406122EBcf3F5A",
      "gasPrice": {
        "_hex": "0x10a3af047e0"
      },
      "gasLimit": {
        "_hex": "0x15f90"
      },
      "to": "0x645B979F8ce622236DB26feB803455d40C328615",
      "value": {
        "_hex": "0x3635c9adc5dea00000"
      },
      "nonce": 40,
      "data": "0x",
      "r": "0x5c12944f9d561f8e9b6047036a5f658a692daf758627119cc4e62d21254f36a5",
      "s": "0x1a13ed9e6fc3bd90168680b16345e2368084cf5eae5d3bbf1d35006dc3194ddb",
      "v": 27,
      "creates": null,
      "raw": "0xf86f2886010a3af047e083015f9094645b979f8ce622236db26feb803455d40c328615893635c9adc5dea00000801ba05c12944f9d561f8e9b6047036a5f658a692daf758627119cc4e62d21254f36a5a01a13ed9e6fc3bd90168680b16345e2368084cf5eae5d3bbf1d35006dc3194ddb",
      "networkId": 0,
      "chainId": 0
    }
  ]
}