{
  "hash": "0xf9d381911e840f65449ddb170429ff3ca5618faca6afd7bf25a793ffe5e92b62",
  "parentHash": "0x7bdd1fdae53a873deaad2e24c6bda447b583a6c9c9ea22c335ae272defa1d840",
  "number": 76371,
  "timestamp": 1439419345,
  "nonce": "0x7d1e491f2a496bac",
  "difficulty": 2230816138014,
  "gasLimit": {
    "_hex": "0x2fefd8"
  },
  "gasUsed": {
    "_hex": "0x16c0a"
  },
  "miner": "0xbb7B8287f3F0a933474a79eAe42CBCa977791171",
  "extraData": "0x476574682f4c5649562f76312e302e312f6c696e75782f676f312e342e32",
  "transactions": [
    {
      "hash": "0x659ce24a4f6224e017a151f374a02c6f60fa7c23eea8cde7d611afd5c918e551",
      "blockHash": "0xf9d381911e840f65449ddb170429ff3ca5618faca6afd7bf25a793ffe5e92b62",
      "blockNumber": 76371,
      "transactionIndex": 0,
      "confirmations": null,
      "from": "0x84505745115a8C041C0c4A7F9d3Ca52a5bf375f4",
      "gasPrice": {
        "_hex": "0xfe9d60933b"
      },
      "gasLimit": {
        "_hex": "0x493e0"
      },
      "to": "0x35E57F2b08596f1946ECD9D31975eC3c2D7e1C1D",
      "value": {
        "_hex": "0x16345785d8a0000"
      },
      "nonce": 3,
      "data": "0xe2543d1c000000000000000000000000000000000000000000000000000000000000001e",
      "r": "0xb4675f91dfb768656c7d0ec421ad36b6f3c22a0dd95620d7ff45ce17aeac52bb",
      "s": "0x4d9a10332d42a9d8af636722f506cfe82307c4e1731da0d1dccdd2cdb1e8b5c0",
      "v": 28,
      "creates": null,
      "raw": "0xf8910385fe9d60933b830493e09435e57f2b08596f1946ecd9d31975ec3c2d7e1c1d88016345785d8a0000a4e2543d1c000000000000000000000000000000000000000000000000000000000000001e1ca0b4675f91dfb768656c7d0ec421ad36b6f3c22a0dd95620d7ff45ce17aeac52bba04d9a10332d42a9d8af636722f506cfe82307c4e1731da0d1dccdd2cdb1e8b5c0",
      "networkId": 0,
      "chainId": 0
    }
  ]
}