{
  "hash": "0x308be7c08bdda16234776ce17255f1e9504b5d0bc7fdd542865cd09c237395e4",
  "parentHash": "0x4a0755b98585d37b299ef0907fbc290bb83d399062af89894d2ca3fbebe4e2af",
  "number": 74281,
  "timestamp": 1439383599,
  "nonce": "0x97a8ac2dc2204689",
  "difficulty": 2207530475408,
  "gasLimit": {
    "_hex": "0x2fefd8"
  },
  "gasUsed": {
    "_hex": "0xa410"
  },
  "miner": "0xC603Ab5ef41fC61AA8b76bEddb09e3Cfcbb174BD",
  "extraData": "0x476574682f76312e302e312f77696e646f77732f676f312e342e32",
  "transactions": [
    {
      "hash": "0xcd07718dd9c7d35be0cdf8086164739bdb0e3dc081927b5b74422ae3a2b5e566",
      "blockHash": "0x308be7c08bdda16234776ce17255f1e9504b5d0bc7fdd542865cd09c237395e4",
      "blockNumber": 74281,
      "transactionIndex": 0,
      "confirmations": null,
      "from": "0xcD690730A45cdebeF24F2a3db2de181bFBA5CBea",
      "gasPrice": {
        "_hex": "0xd86a5b364"
      },
      "gasLimit": {
        "_hex": "0x5208"
      },
      "to": "0x32Be343B94f860124dC4fEe278FDCBD38C102D88",
      "value": {
        "_hex": "0x88ccad975bdc4000"
      },
      "nonce": 0,
      "data": "0x",
      "r": "0xe4999e6a63135c95ba1ad4aea4fec3f96d010fc462cfe401cb332888243b40bc",
      "s": "0x227867e47f03aa98823e842e1d60f96f7d75eb5600d4b4f00cae032eb6d1b4c7",
      "v": 27,
      "creates": null,
      "raw": "0xf86c80850d86a5b3648252089432be343b94f860124dc4fee278fdcbd38c102d888888ccad975bdc4000801ba0e4999e6a63135c95ba1ad4aea4fec3f96d010fc462cfe401cb332888243b40bca0227867e47f03aa98823e842e1d60f96f7d75eb5600d4b4f00cae032eb6d1b4c7",
      "networkId": 0,
      "chainId": 0
    },
    {
      "hash": "0x2c60a314c3b4b8d7018a8ecf7ed42aceac5c2bc71f90d340dcd8ef51ad7b6c10",
      "blockHash": "0x308be7c08bdda16234776ce17255f1e9504b5d0bc7fdd542865cd09c237395e4",
      "blockNumber": 74281,
      "transactionIndex": 1,
      "confirmations": null,
      "from": "0x211D45933Ef88c3D7aD0120942CF50ab506e618F",
      "gasPrice": {
        "_hex": "0xd86a5b364"
      },
      "gasLimit": {
        "_hex": "0x5208"
      },
      "to": "0x32Be343B94f860124dC4fEe278FDCBD38C102D88",
      "value": {
        "_hex": "0x6e8eee6309e28800"
      },
      "nonce": 0,
      "data": "0x",
      "r": "0x88344cd90e88cc5a4a1cc3a0f8684da0e15150d2c2121eaea02a148f5b42b392",
      "s": "0x0d7a8dca29152f6f5ff8ec7a1fb9f129b9c31b33734294485b95bc0387289210",
      "v": 27,
      "creates": null,
      "raw": "0xf86c80850d86a5b3648252089432be343b94f860124dc4fee278fdcbd38c102d88886e8eee6309e28800801ba088344cd90e88cc5a4a1cc3a0f8684da0e15150d2c2121eaea02a148f5b42b392a00d7a8dca29152f6f5ff8ec7a1fb9f129b9c31b33734294485b95bc0387289210",
      "networkId": 0,
      "chainId": 0
    }
  ]
}