{
  "hash": "0xdf0b5e2ea548cf933e83b0c87ccb93d6d79831b1a4d6367d6ddf34baee3310bd",
  "parentHash": "0x308a502a7716993eed0433f7245a9889745a539db2375af5269268f1319619a3",
  "number": 93392,
  "timestamp": 1439689566,
  "nonce": "0x295f6d90f1f7201b",
  "difficulty": 3511013985114,
  "gasLimit": {
    "_hex": "0x2fefd8"
  },
  "gasUsed": {
    "_hex": "0xa410"
  },
  "miner": "0xEF247E639d49461D25F57e9362CadE3120910Ce0",
  "extraData": "0x476574682f76312e302e312f6c696e75782f676f312e342e32",
  "transactions": [
    {
      "hash": "0x356f54ec86c019ca59a9250d342cdb66be960b216434a106c1ddfd9f5275c48a",
      "blockHash": "0xdf0b5e2ea548cf933e83b0c87ccb93d6d79831b1a4d6367d6ddf34baee3310bd",
      "blockNumber": 93392,
      "transactionIndex": 0,
      "confirmations": null,
      "from": "0xd23D7AfFacdC3E9F3dAE7Afcb4006f58f8a44600",
      "gasPrice": {
        "_hex": "0xdff050e20"
      },
      "gasLimit": {
        "_hex": "0x15f90"
      },
      "to": "0x27bEB0DB6C8A5896E0440C6501f81658c57319Fe",
      "value": {
        "_hex": "0x3635c9adc5dea00000"
      },
      "nonce": 1,
      "data": "0x",
      "r": "0x59585c0daac959036710b5ee52ff9f525180c0688a12aa9d2c8124ea5542ffef",
      "s": "0x23d2292c9a4e5ce770ff7a48691c9942d2cf03b4eb6f3c5f0af84ed7666a4554",
      "v": 27,
      "creates": null,
      "raw": "0xf86e01850dff050e2083015f909427beb0db6c8a5896e0440c6501f81658c57319fe893635c9adc5dea00000801ba059585c0daac959036710b5ee52ff9f525180c0688a12aa9d2c8124ea5542ffefa023d2292c9a4e5ce770ff7a48691c9942d2cf03b4eb6f3c5f0af84ed7666a4554",
      "networkId": 0,
      "chainId": 0
    },
    {
      "hash": "0xb3b1f8b12d65225e98c333d8fc0f3e09ccf7c9e0810e890fb8dd7da34c9eb262",
      "blockHash": "0xdf0b5e2ea548cf933e83b0c87ccb93d6d79831b1a4d6367d6ddf34baee3310bd",
      "blockNumber": 93392,
      "transactionIndex": 1,
      "confirmations": null,
      "from": "0x1679B710f84542EAEbDB32980E55cbDB324EaAdd",
      "gasPrice": {
        "_hex": "0xcf59f2834"
      },
      "gasLimit": {
        "_hex": "0x30d40"
      },
      "to": "0x120A270bbC009644e35F0bB6ab13f95b8199c4ad",
      "value": {
        "_hex": "0x2c12b724c5d89dc700"
      },
      "nonce": 0,
      "data": "0x",
      "r": "0x3abc466be9c16c1271f8c6e29e725eea758d59c05b5976ce43c266d7a6bc8245",
      "s": "0x7ac6a40ea2b8c3308c1bc078ce78eb40ea277305e927c22910995e946f0fd690",
      "v": 27,
      "creates": null,
      "raw": "0xf86e80850cf59f283483030d4094120a270bbc009644e35f0bb6ab13f95b8199c4ad892c12b724c5d89dc700801ba03abc466be9c16c1271f8c6e29e725eea758d59c05b5976ce43c266d7a6bc8245a07ac6a40ea2b8c3308c1bc078ce78eb40ea277305e927c22910995e946f0fd690",
      "networkId": 0,
      "chainId": 0
    }
  ]
}