{
  "hash": "0xe1419195cb10836402d6ad749484e47b0d46216f371c222af4f6c267811ed2de",
  "parentHash": "0xa30b8a90487b3163a77f8bd262dcaba970270c9bc81c08099b82232f681cb12c",
  "number": 95845,
  "timestamp": 1439730656,
  "nonce": "0x437045a58e984d2c",
  "difficulty": 3633805446301,
  "gasLimit": {
    "_hex": "0x2fefd8"
  },
  "gasUsed": {
    "_hex": "0x5208"
  },
  "miner": "0xe6A7a1d47ff21B6321162AEA7C6CB457D5476Bca",
  "extraData": "0x476574682f76312e302e312d38326566323666362f6c696e75782f676f312e34",
  "transactions": [
    {
      "hash": "0x6c9a991d93b1ea980274872d40b77b10722c164993ce6beb6dd01b7e044a9d36",
      "blockHash": "0xe1419195cb10836402d6ad749484e47b0d46216f371c222af4f6c267811ed2de",
      "blockNumber": 95845,
      "transactionIndex": 0,
      "confirmations": null,
      "from": "0xC759dc67E0c3816fdC56A2f5bb29920fc07e767D",
      "gasPrice": {
        "_hex": "0xd65ea9ea6"
      },
      "gasLimit": {
        "_hex": "0x5208"
      },
      "to": "0x910a4aADabb3A7B3F7879118332E13Da66b68D77",
      "value": {
        "_hex": "0x1a055690d9db80000"
      },
      "nonce": 21,
      "data": "0x",
      "r": "0x11374a613533f1a33397f6fd820fd2a763103395328dec78d231ec388a6b3350",
      "s": "0x274a69f2ce2f562b69d2f9d9ed7a4f9dc09c9e9d9cfe938133e15ab199bfbf3b",
      "v": 28,
      "creates": null,
      "raw": "0xf86d15850d65ea9ea682520894910a4aadabb3a7b3f7879118332e13da66b68d778901a055690d9db80000801ca011374a613533f1a33397f6fd820fd2a763103395328dec78d231ec388a6b3350a0274a69f2ce2f562b69d2f9d9ed7a4f9dc09c9e9d9cfe938133e15ab199bfbf3b",
      "networkId": 0,
      "chainId": 0
    }
  ]
}