{
  "hash": "0xfa6d876a2dab50453ec23b13b138ac0c84db05f40cbb0462128ce93fcfe1a30a",
  "parentHash": "0xef7dcf140fd2643f5edb79e5781f30dfd4ae8bcd1f1c6aa21b9eb451af26ff64",
  "number": 81069,
  "timestamp": 1439495718,
  "nonce": "0x9b6fdeabad7b6f76",
  "difficulty": 2429644526250,
  "gasLimit": {
    "_hex": "0x2fefd8"
  },
  "gasUsed": {
    "_hex": "0xa410"
  },
  "miner": "0xe6A7a1d47ff21B6321162AEA7C6CB457D5476Bca",
  "extraData": "0x476574682f76312e302e312d38326566323666362f6c696e75782f676f312e34",
  "transactions": [
    {
      "hash": "0x5127a6c563cd85e80f432e1f48041c7290979e38a9109f0c6c15174ddefa96ed",
      "blockHash": "0xfa6d876a2dab50453ec23b13b138ac0c84db05f40cbb0462128ce93fcfe1a30a",
      "blockNumber": 81069,
      "transactionIndex": 0,
      "confirmations": null,
      "from": "0x16919885ae5b483cFFd18E00783c6352297bAFbA",
      "gasPrice": {
        "_hex": "0x746a528800"
      },
      "gasLimit": {
        "_hex": "0x5b04"
      },
      "to": "0xA12E42660746c6a0484965f36D7b4d6a727BDa72",
      "value": {
        "_hex": "0xdcef33a6f8380000"
      },
      "nonce": 5,
      "data": "0x",
      "r": "0x8a300d5f7755ab695d2311bb624d0a445b2c8a8f2ffeb298a733901e5ad57113",
      "s": "0xd182b6c09fd9b490fe1c65ed1dc62e94d807e4b966a02571e6f77f36ed748e04",
      "v": 28,
      "creates": null,
      "raw": "0xf86c0585746a528800825b0494a12e42660746c6a0484965f36d7b4d6a727bda7288dcef33a6f8380000801ca08a300d5f7755ab695d2311bb624d0a445b2c8a8f2ffeb298a733901e5ad57113a0d182b6c09fd9b490fe1c65ed1dc62e94d807e4b966a02571e6f77f36ed748e04",
      "networkId": 0,
      "chainId": 0
    },
    {
      "hash": "0x93d1dab584abbd0313bff4fbe202a7972a64e0ace7e7993fd2ef23a9baff60b0",
      "blockHash": "0xfa6d876a2dab50453ec23b13b138ac0c84db05f40cbb0462128ce93fcfe1a30a",
      "blockNumber": 81069,
      "transactionIndex": 1,
      "confirmations": null,
      "from": "0x214Bff3588C0607Ac539d1407fb382C787B487eD",
      "gasPrice": {
        "_hex": "0xba43b7400"
      },
      "gasLimit": {
        "_hex": "0x5208"
      },
      "to": "0xC47Aaa860008be6f65B58c6C6E02a84e666EfE31",
      "value": {
        "_hex": "0x6ede73b29e4c1dc0"
      },
      "nonce": 1,
      "data": "0x",
      "r": "0xcf06b15de024209cbdac98fb02a2a8032c7153b54a17cf78cfd59e354f13ef01",
      "s": "0x1fa45a991b38278fc2c97d85e25b706abb8f6a6dc283d829a6b097e75d5c3a23",
      "v": 27,
      "creates": null,
      "raw": "0xf86c01850ba43b740082520894c47aaa860008be6f65b58c6c6e02a84e666efe31886ede73b29e4c1dc0801ba0cf06b15de024209cbdac98fb02a2a8032c7153b54a17cf78cfd59e354f13ef01a01fa45a991b38278fc2c97d85e25b706abb8f6a6dc283d829a6b097e75d5c3a23",
      "networkId": 0,
      "chainId": 0
    }
  ]
}