{
  "hash": "0x2107838fc43a7676f40fb240550e844ef08a557f975df6dd88ad21f2d0469fea",
  "parentHash": "0xdd9ed867f38380f558e3f91d077e30d412c4de878fcf4e2d28be9922b5352e91",
  "number": 75374,
  "timestamp": 1439402238,
  "nonce": "0x4a4f0f71b657c29e",
  "difficulty": 2197564345613,
  "gasLimit": {
    "_hex": "0x2fefd8"
  },
  "gasUsed": {
    "_hex": "0x5208"
  },
  "miner": "0x02dE7d35a60bf6A216411476040ec648668769D7",
  "extraData": "0x476574682f76312e302e312f77696e646f77732f676f312e342e32",
  "transactions": [
    {
      "hash": "0x5186316e68d63ba7ec5cbb4620bb87ff7cd081b5c53843097162bf85f60b30fb",
      "blockHash": "0x2107838fc43a7676f40fb240550e844ef08a557f975df6dd88ad21f2d0469fea",
      "blockNumber": 75374,
      "transactionIndex": 0,
      "confirmations": null,
      "from": "0x326Be8F71bFb0379f989aAB1CC1fE37f0a771f60",
      "gasPrice": {
        "_hex": "0x10153fc6ac8"
      },
      "gasLimit": {
        "_hex": "0x15f90"
      },
      "to": "0x9724Ac4dc56e03379eBA5d157D1513EcC32cBD8f",
      "value": {
        "_hex": "0x29a2241af62c0000"
      },
      "nonce": 95,
      "data": "0x",
      "r": "0xd2cc675ecdb0d5d161130bafc12dc71060536b96c2e28240335b194c7509623b",
      "s": "0x242109b439e83d54c4b2c58aed23ebb395a533cb9061c6363888823de7cb2772",
      "v": 28,
      "creates": null,
      "raw": "0xf86e5f86010153fc6ac883015f90949724ac4dc56e03379eba5d157d1513ecc32cbd8f8829a2241af62c0000801ca0d2cc675ecdb0d5d161130bafc12dc71060536b96c2e28240335b194c7509623ba0242109b439e83d54c4b2c58aed23ebb395a533cb9061c6363888823de7cb2772",
      "networkId": 0,
      "chainId": 0
    }
  ]
}