{
  "hash": "0x5e5801d3ee3d14fbfd64f1e3623adf4edb0d879fb26083dbb5bff763c93787d0",
  "parentHash": "0xc328ef04b08d927f7c8fb27e8ef90601aea8d5b65253054b14a950e054a0e091",
  "number": 107299,
  "timestamp": 1439920048,
  "nonce": "0xed3cba89cbaf4899",
  "difficulty": 4407250215205,
  "gasLimit": {
    "_hex": "0x2fefd8"
  },
  "gasUsed": {
    "_hex": "0x1bdbe"
  },
  "miner": "0xfFcD9CAE6d9f54fd8ae05296F839892677ff6EaA",
  "extraData": "0x476574682f76312e302e312f77696e646f77732f676f312e342e32",
  "transactions": [
    {
      "hash": "0xa94e098e6de018e4426c3e13e58d71aaf9db5c7a4df36834750bd61206d5f07b",
      "blockHash": "0x5e5801d3ee3d14fbfd64f1e3623adf4edb0d879fb26083dbb5bff763c93787d0",
      "blockNumber": 107299,
      "transactionIndex": 0,
      "confirmations": null,
      "from": "0xeC5Feafe210C12BFC9A5d05925A123F1E73fbeF8",
      "gasPrice": {
        "_hex": "0xd641f460d"
      },
      "gasLimit": {
        "_hex": "0x249f0"
      },
      "to": "0xE28e72FCf78647ADCe1F1252F240bbfaebD63BcC",
      "value": {
        "_hex": "0xde0b6b3a7640000"
      },
      "nonce": 0,
      "data": "0x45466f3a",
      "r": "0x57c31ca6c71eab94c9ffeb5103a1cd439a6ec9fba25cc27ff92978c53abb6c97",
      "s": "0x09d2e74255710e7ada47e41769dd18039f10baea9de43989445e8428f7385d93",
      "v": 27,
      "creates": null,
      "raw": "0xf87180850d641f460d830249f094e28e72fcf78647adce1f1252f240bbfaebd63bcc880de0b6b3a76400008445466f3a1ba057c31ca6c71eab94c9ffeb5103a1cd439a6ec9fba25cc27ff92978c53abb6c97a009d2e74255710e7ada47e41769dd18039f10baea9de43989445e8428f7385d93",
      "networkId": 0,
      "chainId": 0
    }
  ]
}