{
  "hash": "0xaf998542d6f014d236b8488233e636195d067b34b8efd92914b81c8823d04b2e",
  "parentHash": "0xe2c6598efbb9171127ce21514f745bf6d35d03b3faf1ca53cef77a1bb30f47f4",
  "number": 101859,
  "timestamp": 1439829245,
  "nonce": "0xa384807b2ad729db",
  "difficulty": 3884313739396,
  "gasLimit": {
    "_hex": "0x2fefd8"
  },
  "gasUsed": {
    "_hex": "0x5208"
  },
  "miner": "0x9D49F602b0fdb924Bd63DDE2Bd0907E4A07c63a7",
  "extraData": "0x476574682f76312e302e312f6c696e75782f676f312e342e32",
  "transactions": [
    {
      "hash": "0x691fe7f797bbae672aa5ecd4e983be1b59d0444805d857717333e96755f30e0c",
      "blockHash": "0xaf998542d6f014d236b8488233e636195d067b34b8efd92914b81c8823d04b2e",
      "blockNumber": 101859,
      "transactionIndex": 0,
      "confirmations": null,
      "from": "0xcf00A85f3826941e7A25BFcF9Aac575d40410852",
      "gasPrice": {
        "_hex": "0xcb5bea614"
      },
      "gasLimit": {
        "_hex": "0x15f90"
      },
      "to": "0xD9666150A9dA92d9108198a4072970805a8B3428",
      "value": {
        "_hex": "0x4563918244f40000"
      },
      "nonce": 39,
      "data": "0x",
      "r": "0xb48dae93f72566c23b194dfe45af5f6467741f5daf2809d7306309eb4f73b91a",
      "s": "0x2787d634c66f4c8562d682031f15b86e6613183af853ec01fec6019db12cfd56",
      "v": 27,
      "creates": null,
      "raw": "0xf86d27850cb5bea61483015f9094d9666150a9da92d9108198a4072970805a8b3428884563918244f40000801ba0b48dae93f72566c23b194dfe45af5f6467741f5daf2809d7306309eb4f73b91aa02787d634c66f4c8562d682031f15b86e6613183af853ec01fec6019db12cfd56",
      "networkId": 0,
      "chainId": 0
    }
  ]
}