{
  "hash": "0x207fe8e4c450125b141ca96737d7b22256a04e9f8a98aa6344257a111b34ae52",
  "parentHash": "0xcd8fa39cbefc6efe23eeb10f7525dac7827ff958f2983c00ae9d085b26fcc39d",
  "number": 114006,
  "timestamp": 1440033308,
  "nonce": "0x440f3fdd8da3133b",
  "difficulty": 4431770124864,
  "gasLimit": {
    "_hex": "0x2fefd8"
  },
  "gasUsed": {
    "_hex": "0x5208"
  },
  "miner": "0x580992B51e3925e23280EfB93d3047C82f17E038",
  "extraData": "0x476574682f76312e302e312f6c696e75782f676f312e342e32",
  "transactions": [
    {
      "hash": "0xa88341f0852717b166636ba9235579faa6674c03652a1be0dd1aa02d60bd0799",
      "blockHash": "0x207fe8e4c450125b141ca96737d7b22256a04e9f8a98aa6344257a111b34ae52",
      "blockNumber": 114006,
      "transactionIndex": 0,
      "confirmations": null,
      "from": "0x3120869dfC5b2e9D636fd0BFA6717C51146d5F7a",
      "gasPrice": {
        "_hex": "0xba43b7400"
      },
      "gasLimit": {
        "_hex": "0x5208"
      },
      "to": "0xC47Aaa860008be6f65B58c6C6E02a84e666EfE31",
      "value": {
        "_hex": "0x14dc706f8a5e000"
      },
      "nonce": 3,
      "data": "0x",
      "r": "0x16a543c6f35493249463b7b2b76c76ce6252f43af7d822411884e2aba8f90289",
      "s": "0x62b5a9535b4fec3022e7af5b87be0fa6b3c6bf18aef258b78318dc789a3e7756",
      "v": 27,
      "creates": null,
      "raw": "0xf86c03850ba43b740082520894c47aaa860008be6f65b58c6c6e02a84e666efe3188014dc706f8a5e000801ba016a543c6f35493249463b7b2b76c76ce6252f43af7d822411884e2aba8f90289a062b5a9535b4fec3022e7af5b87be0fa6b3c6bf18aef258b78318dc789a3e7756",
      "networkId": 0,
      "chainId": 0
    }
  ]
}