{
  "hash": "0x32e99615fe7796b92da146a43c960f4e187c75e852be43dc38cb13db81a18ec4",
  "parentHash": "0xc337660c7a2ec66bd8b69cddb7e695a76a7e8ee0eadd0f6d0c064921c60bb917",
  "number": 110587,
  "timestamp": 1439976223,
  "nonce": "0xe151abbbde92b207",
  "difficulty": 4371239031696,
  "gasLimit": {
    "_hex": "0x2fefd8"
  },
  "gasUsed": {
    "_hex": "0x5208"
  },
  "miner": "0xe6A7a1d47ff21B6321162AEA7C6CB457D5476Bca",
  "extraData": "0x476574682f76312e302e312d38326566323666362f6c696e75782f676f312e34",
  "transactions": [
    {
      "hash": "0x0cf6c97554b725ff56352a834225236bda31f1cb041aaa0e5245dc7cf9b6ff77",
      "blockHash": "0x32e99615fe7796b92da146a43c960f4e187c75e852be43dc38cb13db81a18ec4",
      "blockNumber": 110587,
      "transactionIndex": 0,
      "confirmations": null,
      "from": "0xE6D67E3661E28eE2DfC1c68D5DeeA3C3bB880059",
      "gasPrice": {
        "_hex": "0xdf49e01f2"
      },
      "gasLimit": {
        "_hex": "0x5208"
      },
      "to": "0x32Be343B94f860124dC4fEe278FDCBD38C102D88",
      "value": {
        "_hex": "0xdfedc1527ef7c00"
      },
      "nonce": 9,
      "data": "0x",
      "r": "0xb9c04ce5de0b88070fe120fb64bb76e4b3629467cbe01302d7e7fc4936a5c9ba",
      "s": "0x406210b6625e2195307d2fff6bab90ada33abbc15418db9abcdff1146bdf5f59",
      "v": 27,
      "creates": null,
      "raw": "0xf86c09850df49e01f28252089432be343b94f860124dc4fee278fdcbd38c102d88880dfedc1527ef7c00801ba0b9c04ce5de0b88070fe120fb64bb76e4b3629467cbe01302d7e7fc4936a5c9baa0406210b6625e2195307d2fff6bab90ada33abbc15418db9abcdff1146bdf5f59",
      "networkId": 0,
      "chainId": 0
    }
  ]
}