{
  "hash": "0x3ff94e9dd61df31368e62ade91f8115c288d5f8a829e5fe69e03a264f13a252d",
  "parentHash": "0x33f5528a1d0b397366d9b8ec0e80d6995ecfb9ac6c7e847b3d9b9d0e15290cc5",
  "number": 65322,
  "timestamp": 1439234832,
  "nonce": "0xe8665ac0cca86bf1",
  "difficulty": 1949268480078,
  "gasLimit": {
    "_hex": "0x2fefd8"
  },
  "gasUsed": {
    "_hex": "0xbe6c"
  },
  "miner": "0xe6A7a1d47ff21B6321162AEA7C6CB457D5476Bca",
  "extraData": "0x476574682f76312e302e312f6c696e75782f676f312e342e32",
  "transactions": [
    {
      "hash": "0xe536e518bd3ded081293c75a35b0138ab1e752a6594db0d181af60377276fe12",
      "blockHash": "0x3ff94e9dd61df31368e62ade91f8115c288d5f8a829e5fe69e03a264f13a252d",
      "blockNumber": 65322,
      "transactionIndex": 0,
      "confirmations": null,
      "from": "0x8F5eDb9c7fDB230c0294D4a418e3e4AaD848110e",
      "gasPrice": {
        "_hex": "0xba43b7400"
      },
      "gasLimit": {
        "_hex": "0x15f90"
      },
      "to": "0x793AE8C1b1a160BFc07BFB0d04F85eab1A71F4f2",
      "value": {
        "_hex": "0x0"
      },
      "nonce": 0,
      "data": "0x3ba15036",
      "r": "0x862f1e8b5702c8e6ab42037c42c2c4aa7bcc8d12741f379b6cf03a48e61fb21e",
      "s": "0x539f2745b065d61eb65a78d4aa03348e7da2360565dda22a392a8370b80c982d",
      "v": 28,
      "creates": null,
      "raw": "0xf86980850ba43b740083015f9094793ae8c1b1a160bfc07bfb0d04f85eab1a71f4f280843ba150361ca0862f1e8b5702c8e6ab42037c42c2c4aa7bcc8d12741f379b6cf03a48e61fb21ea0539f2745b065d61eb65a78d4aa03348e7da2360565dda22a392a8370b80c982d",
      "networkId": 0,
      "chainId": 0
    }
  ]
}