{
  "hash": "0x8091daf2cbb833833c10ea6ed88489beb47776b1e927ad9bf05c859202da1214",
  "parentHash": "0xacc31b1cf2b3f3df3055541da790f446c761274c60dff72e3b9ab4b7644a522e",
  "number": 115481,
  "timestamp": 1440057943,
  "nonce": "0x6e77cc4a6b7342e2",
  "difficulty": 4573878495166,
  "gasLimit": {
    "_hex": "0x2fefd8"
  },
  "gasUsed": {
    "_hex": "0xa410"
  },
  "miner": "0xe6A7a1d47ff21B6321162AEA7C6CB457D5476Bca",
  "extraData": "0x476574682f76312e302e312d38326566323666362f6c696e75782f676f312e34",
  "transactions": [
    {
      "hash": "0x948ffc405120a90cafd95185fc1987f327c44b4ae33ded390ce34a19e4bd2b04",
      "blockHash": "0x8091daf2cbb833833c10ea6ed88489beb47776b1e927ad9bf05c859202da1214",
      "blockNumber": 115481,
      "transactionIndex": 0,
      "confirmations": null,
      "from": "0x32Be343B94f860124dC4fEe278FDCBD38C102D88",
      "gasPrice": {
        "_hex": "0xd7521f879"
      },
      "gasLimit": {
        "_hex": "0x5208"
      },
      "to": "0x66B0eAa8B15d3DF8e5f4eCe26e2A96F9e10953D6",
      "value": {
        "_hex": "0x571bc9c1edfecc0000"
      },
      "nonce": 1431,
      "data": "0x",
      "r": "0x31709c18e55f251a38b17d3efa852f43ab946eea59a58f14c839a4fc1c03b08d",
      "s": "0x5d1427dd350e35ea5157c61f984486945cec957f8dbc2734d8606496ebe4aeb9",
      "v": 28,
      "creates": null,
      "raw": "0xf86f820597850d7521f8798252089466b0eaa8b15d3df8e5f4ece26e2a96f9e10953d689571bc9c1edfecc0000801ca031709c18e55f251a38b17d3efa852f43ab946eea59a58f14c839a4fc1c03b08da05d1427dd350e35ea5157c61f984486945cec957f8dbc2734d8606496ebe4aeb9",
      "networkId": 0,
      "chainId": 0
    },
    {
      "hash": "0xd09895f5cb20d1bd4c9dad2d827a8bad7a7c8ffa58740b9d95957dd9a2c75c35",
      "blockHash": "0x8091daf2cbb833833c10ea6ed88489beb47776b1e927ad9bf05c859202da1214",
      "blockNumber": 115481,
      "transactionIndex": 1,
      "confirmations": null,
      "from": "0x32Be343B94f860124dC4fEe278FDCBD38C102D88",
      "gasPrice": {
        "_hex": "0xd7521f879"
      },
      "gasLimit": {
        "_hex": "0x5208"
      },
      "to": "0xf01e25B76A4274d2e5af5810302E4230c8A515D3",
      "value": {
        "_hex": "0x18956b1f97cb4f000"
      },
      "nonce": 1432,
      "data": "0x",
      "r": "0xd0f76aed40b54640130f3e6e1853ba74db8937c43a71cdaa257a11d8768fe6a4",
      "s": "0x135b07d25a0c65f1e462895fb3f01858e606504219aacd3713203a4f4157633b",
      "v": 27,
      "creates": null,
      "raw": "0xf86f820598850d7521f87982520894f01e25b76a4274d2e5af5810302e4230c8a515d389018956b1f97cb4f000801ba0d0f76aed40b54640130f3e6e1853ba74db8937c43a71cdaa257a11d8768fe6a4a0135b07d25a0c65f1e462895fb3f01858e606504219aacd3713203a4f4157633b",
      "networkId": 0,
      "chainId": 0
    }
  ]
}