{
  "hash": "0xbc4ad8de4874f3edebd9dcb15a8488a4c06a8d6add439481f7cd7d1dbe0787a0",
  "parentHash": "0xd49c232971e7a6b7906a8bfc3820ce0bd159dd82fbbd1574700a2a324703c00c",
  "number": 62732,
  "timestamp": 1439193464,
  "nonce": "0xbde60e7bb65f6098",
  "difficulty": 1765005017234,
  "gasLimit": {
    "_hex": "0x2fefd8"
  },
  "gasUsed": {
    "_hex": "0x5208"
  },
  "miner": "0xbb7B8287f3F0a933474a79eAe42CBCa977791171",
  "extraData": "0x476574682f4c5649562f76312e302e312f6c696e75782f676f312e342e32",
  "transactions": [
    {
      "hash": "0x0dfb701830442b8a1680ded21e4e042f467847d309dd5fe70f2b62cb22dd88c4",
      "blockHash": "0xbc4ad8de4874f3edebd9dcb15a8488a4c06a8d6add439481f7cd7d1dbe0787a0",
      "blockNumber": 62732,
      "transactionIndex": 0,
      "confirmations": null,
      "from": "0x33F36DffD23cf019833E1d59cBc7138824b12289",
      "gasPrice": {
        "_hex": "0x746a528800"
      },
      "gasLimit": {
        "_hex": "0x5267"
      },
      "to": "0x117D2945355d346cE6637d6D5CC9A9E46CB43B73",
      "value": {
        "_hex": "0xc565cca35528000"
      },
      "nonce": 1,
      "data": "0x",
      "r": "0x28327cf9f1487a11398188724f5a6fdb213a24dea59396a9bff91bbdb73035e7",
      "s": "0x325a6922bf37c9a4017239ed4e815e09a4df3a7fd498876ca4384267805e67de",
      "v": 28,
      "creates": null,
      "raw": "0xf86c0185746a52880082526794117d2945355d346ce6637d6d5cc9a9e46cb43b73880c565cca35528000801ca028327cf9f1487a11398188724f5a6fdb213a24dea59396a9bff91bbdb73035e7a0325a6922bf37c9a4017239ed4e815e09a4df3a7fd498876ca4384267805e67de",
      "networkId": 0,
      "chainId": 0
    }
  ]
}