{
  "hash": "0xd881e958dea19a622b338532d64136dfbce77f4d534610bdf81c91e959df9965",
  "parentHash": "0x314101d59be83c0923b73da4a4ed5b685e8c7a6e82520e9501d13810b2fd8074",
  "number": 86874,
  "timestamp": 1439583970,
  "nonce": "0x0dc33e11a073fd3b",
  "difficulty": 2970449010443,
  "gasLimit": {
    "_hex": "0x2fefd5"
  },
  "gasUsed": {
    "_hex": "0x5208"
  },
  "miner": "0xe6A7a1d47ff21B6321162AEA7C6CB457D5476Bca",
  "extraData": "0x476574682f76312e302e312d38326566323666362f6c696e75782f676f312e34",
  "transactions": [
    {
      "hash": "0x02f331c529a47b2d06fa6d4830007f88e5e6a14a8191416b804ce7edce88f972",
      "blockHash": "0xd881e958dea19a622b338532d64136dfbce77f4d534610bdf81c91e959df9965",
      "blockNumber": 86874,
      "transactionIndex": 0,
      "confirmations": null,
      "from": "0x2910543Af39abA0Cd09dBb2D50200b3E800A63D2",
      "gasPrice": {
        "_hex": "0xcfa631257"
      },
      "gasLimit": {
        "_hex": "0x5208"
      },
      "to": "0x79B8C67B1298733172AB8A72633499AD67F4A8c9",
      "value": {
        "_hex": "0x1079bcbdc348b8000"
      },
      "nonce": 684,
      "data": "0x",
      "r": "0x77fbe8305e1af40f1e630bc8c63e34e99637f387dae655ed9127a765900a3bd0",
      "s": "0x56726d240692a49d5a668f773c224f8fc1ffb54628f4995f37314ec54542227f",
      "v": 27,
      "creates": null,
      "raw": "0xf86f8202ac850cfa6312578252089479b8c67b1298733172ab8a72633499ad67f4a8c98901079bcbdc348b8000801ba077fbe8305e1af40f1e630bc8c63e34e99637f387dae655ed9127a765900a3bd0a056726d240692a49d5a668f773c224f8fc1ffb54628f4995f37314ec54542227f",
      "networkId": 0,
      "chainId": 0
    }
  ]
}