{
  "hash": "0x1db5d658182a15da033b050414a2f51ecd91a4bcd14d323c0eb0c939300164bd",
  "parentHash": "0x7f04fd202c22a57624846cd8a3c441b41d30acff9d7d2c1a318db37853567915",
  "number": 68953,
  "timestamp": 1439296113,
  "nonce": "0x1ad3ecf2f29dc127",
  "difficulty": 2036952690845,
  "gasLimit": {
    "_hex": "0x2fefd8"
  },
  "gasUsed": {
    "_hex": "0x4ce78"
  },
  "miner": "0xEF247E639d49461D25F57e9362CadE3120910Ce0",
  "extraData": "0x476574682f76312e302e312f6c696e75782f676f312e342e32",
  "transactions": [
    {
      "hash": "0x9295b31c634054541583cc1562a121a65e0ad52edca25fc891ba9d4569ee69b7",
      "blockHash": "0x1db5d658182a15da033b050414a2f51ecd91a4bcd14d323c0eb0c939300164bd",
      "blockNumber": 68953,
      "transactionIndex": 0,
      "confirmations": null,
      "from": "0xFAC95789653eF4428E44c3522aDE8C7768176bcC",
      "gasPrice": {
        "_hex": "0xba43b7400"
      },
      "gasLimit": {
        "_hex": "0x5208"
      },
      "to": "0xdFFf1AeCa8A3E9AAe18E8215963ab49f6677fD6b",
      "value": {
        "_hex": "0xc1c23435b07000"
      },
      "nonce": 1,
      "data": "0x",
      "r": "0x6eb49fd0955e66645892bd839dd27f17986e8a0cf4e81b6bf143cc5597b57f18",
      "s": "0x33cc6d977198f15f36f94ed885c7945365ebd832a659150d4cd952ea862143d4",
      "v": 27,
      "creates": null,
      "raw": "0xf86b01850ba43b740082520894dfff1aeca8a3e9aae18e8215963ab49f6677fd6b87c1c23435b07000801ba06eb49fd0955e66645892bd839dd27f17986e8a0cf4e81b6bf143cc5597b57f18a033cc6d977198f15f36f94ed885c7945365ebd832a659150d4cd952ea862143d4",
      "networkId": 0,
      "chainId": 0
    },
    {
      "hash": "0x217d9dc3cb6b2c49b97c542a490a5ed480f764a8697d39c908100606b89d4bff",
      "blockHash": "0x1db5d658182a15da033b050414a2f51ecd91a4bcd14d323c0eb0c939300164bd",
      "blockNumber": 68953,
      "transactionIndex": 1,
      "confirmations": null,
      "from": "0x4a1b224A2AF5F0eE69a738D71fbc718154689d62",
      "gasPrice": {
        "_hex": "0xba43b7400"
      },
      "gasLimit": {
        "_hex": "0x5208"
      },
      "to": "0xaA41a0eA0f4dE9F6Ed7efEF34976b3d81D14f58c",
      "value": {
        "_hex": "0xc1c23435b07000"
      },
      "nonce": 1,
      "data": "0x",
      "r": "0xa8338e360cb95bb23a2a3ee9eb94d96e353c0c78053961699aa1c6a43f316005",
      "s": "0x7423aca9a3271452f90f5fada13609ef86765b6d01619e9b15cbef71f1b171b9",
      "v": 28,
      "creates": null,
      "raw": "0xf86b01850ba43b740082520894aa41a0ea0f4de9f6ed7efef34976b3d81d14f58c87c1c23435b07000801ca0a8338e360cb95bb23a2a3ee9eb94d96e353c0c78053961699aa1c6a43f316005a07423aca9a3271452f90f5fada13609ef86765b6d01619e9b15cbef71f1b171b9",
      "networkId": 0,
      "chainId": 0
    },
    {
      "hash": "0x77c3c734d10294f2cdb294da7a59ad189342c8c1432e472827aec5bee921bf7b",
      "blockHash": "0x1db5d658182a15da033b050414a2f51ecd91a4bcd14d323c0eb0c939300164bd",
      "blockNumber": 68953,
      "transactionIndex": 2,
      "confirmations": null,
      "from": "0xdcF5c560049f0571C5B5B6e0489BEeF617b74391",
      "gasPrice": {
        "_hex": "0xba43b7400"
      },
      "gasLimit": {
        "_hex": "0x5208"
      },
      "to": "0x080eF641cD664397638168B52221a424495E66d0",
      "value": {
        "_hex": "0xc1c23435b07000"
      },
      "nonce": 1,
      "data": "0x",
      "r": "0x5d56aae879c3d11d999e413fa03efdcb38603bc691357de7ed1283ab7aa51e3d",
      "s": "0x3106a8533ac3dea2ab820601d6c56cfba94402fe26ee78ff7c3f6ef7a6f30660",
      "v": 27,
      "creates": null,
      "raw": "0xf86b01850ba43b740082520894080ef641cd664397638168b52221a424495e66d087c1c23435b07000801ba05d56aae879c3d11d999e413fa03efdcb38603bc691357de7ed1283ab7aa51e3da03106a8533ac3dea2ab820601d6c56cfba94402fe26ee78ff7c3f6ef7a6f30660",
      "networkId": 0,
      "chainId": 0
    },
    {
      "hash": "0x010783189b13b575a140d5ecd816468885c1191b785210d8cfaa273acf93656b",
      "blockHash": "0x1db5d658182a15da033b050414a2f51ecd91a4bcd14d323c0eb0c939300164bd",
      "blockNumber": 68953,
      "transactionIndex": 3,
      "confirmations": null,
      "from": "0xBf3403210f9802205f426759947a80a9Fda71B1E",
      "gasPrice": {
        "_hex": "0xba43b7400"
      },
      "gasLimit": {
        "_hex": "0x5208"
      },
      "to": "0x0164c367a14339b744473FBE04e472ac2e513b0f",
      "value": {
        "_hex": "0xc1c23435b07000"
      },
      "nonce": 1,
      "data": "0x",
      "r": "0x2bf8b0cb2d3f9ebf7ea4dc607666358d15fb518fec1d18493c9589a028ffed8e",
      "s": "0x42a0f2ef65606812a580e236d790df635780bf52d408a24bc172080e5d7856eb",
      "v": 27,
      "creates": null,
      "raw": "0xf86b01850ba43b7400825208940164c367a14339b744473fbe04e472ac2e513b0f87c1c23435b07000801ba02bf8b0cb2d3f9ebf7ea4dc607666358d15fb518fec1d18493c9589a028ffed8ea042a0f2ef65606812a580e236d790df635780bf52d408a24bc172080e5d7856eb",
      "networkId": 0,
      "chainId": 0
    },
    {
      "hash": "0x81733b74b7ca94ec8d9d81b1ba177a73e4fceaab81f4108f8658bc84f77acacd",
      "blockHash": "0x1db5d658182a15da033b050414a2f51ecd91a4bcd14d323c0eb0c939300164bd",
      "blockNumber": 68953,
      "transactionIndex": 4,
      "confirmations": null,
      "from": "0x1A3Ce525F241FA23dDe7E8e1EdF13565bFf21FAe",
      "gasPrice": {
        "_hex": "0xba43b7400"
      },
      "gasLimit": {
        "_hex": "0x5208"
      },
      "to": "0x9C2c088296DED064F932899350696786F54B5bfe",
      "value": {
        "_hex": "0xc1c23435b07000"
      },
      "nonce": 1,
      "data": "0x",
      "r": "0xeb822f414b8830bed550083311d562c9a6346dfa53b6950d894dba8426e57cc7",
      "s": "0x45d4604452c971878503829a96d2e7e365336475e1d9e704b4098283c5088416",
      "v": 28,
      "creates": null,
      "raw": "0xf86b01850ba43b7400825208949c2c088296ded064f932899350696786f54b5bfe87c1c23435b07000801ca0eb822f414b8830bed550083311d562c9a6346dfa53b6950d894dba8426e57cc7a045d4604452c971878503829a96d2e7e365336475e1d9e704b4098283c5088416",
      "networkId": 0,
      "chainId": 0
    },
    {
      "hash": "0x940bbb70703358f50d38f8f624cfbbaf6924ed7eed856edd479fd47a6307f21a",
      "blockHash": "0x1db5d658182a15da033b050414a2f51ecd91a4bcd14d323c0eb0c939300164bd",
      "blockNumber": 68953,
      "transactionIndex": 5,
      "confirmations": null,
      "from": "0xd352EBaF7D800953741B07638a90d0d01E7f2Fe7",
      "gasPrice": {
        "_hex": "0xba43b7400"
      },
      "gasLimit": {
        "_hex": "0x5208"
      },
      "to": "0x7A87a6b1Fa2c1B162932dd92ED3243baE9A73f00",
      "value": {
        "_hex": "0xc1c23435b07000"
      },
      "nonce": 1,
      "data": "0x",
      "r": "0x3f234de902524bd15703be90a106cc9aff4a7d0c7de9b6fc8b9f9df1eed08fd1",
      "s": "0x6f88dfcfaf22e1a6dd27fb5a7313d86e7162f0d76d4e57c970963c0f924014ea",
      "v": 27,
      "creates": null,
      "raw": "0xf86b01850ba43b7400825208947a87a6b1fa2c1b162932dd92ed3243bae9a73f0087c1c23435b07000801ba03f234de902524bd15703be90a106cc9aff4a7d0c7de9b6fc8b9f9df1eed08fd1a06f88dfcfaf22e1a6dd27fb5a7313d86e7162f0d76d4e57c970963c0f924014ea",
      "networkId": 0,
      "chainId": 0
    },
    {
      "hash": "0x5f327bc4cb6ebfae2944788e11528f604053fbecc0e9cd48e78988a9b06cd25a",
      "blockHash": "0x1db5d658182a15da033b050414a2f51ecd91a4bcd14d323c0eb0c939300164bd",
      "blockNumber": 68953,
      "transactionIndex": 6,
      "confirmations": null,
      "from": "0x2BFdD4929e414Ae645784d184592AE44CCC0e0a4",
      "gasPrice": {
        "_hex": "0xba43b7400"
      },
      "gasLimit": {
        "_hex": "0x5208"
      },
      "to": "0xBD3008Baa807332C7d32b24E42CF47194C2Ae85C",
      "value": {
        "_hex": "0xc1c23435b07000"
      },
      "nonce": 1,
      "data": "0x",
      "r": "0x09a8c755701859a2d5a7c4a7c5bcdddf97349d0b673ec04b29cd9099f76f140f",
      "s": "0x1b6cb1b25ced2e48c44413d4bf201a0b5829871afabad7464905b2c55b81b99c",
      "v": 28,
      "creates": null,
      "raw": "0xf86b01850ba43b740082520894bd3008baa807332c7d32b24e42cf47194c2ae85c87c1c23435b07000801ca009a8c755701859a2d5a7c4a7c5bcdddf97349d0b673ec04b29cd9099f76f140fa01b6cb1b25ced2e48c44413d4bf201a0b5829871afabad7464905b2c55b81b99c",
      "networkId": 0,
      "chainId": 0
    },
    {
      "hash": "0x50d188aacb4ba4cb67e61b3ab0edfffaa81002b653e932e34ba7d5272724f583",
      "blockHash": "0x1db5d658182a15da033b050414a2f51ecd91a4bcd14d323c0eb0c939300164bd",
      "blockNumber": 68953,
      "transactionIndex": 7,
      "confirmations": null,
      "from": "0x053fe0596ECBd7283D1589BeC2b497BFCfBaa202",
      "gasPrice": {
        "_hex": "0xba43b7400"
      },
      "gasLimit": {
        "_hex": "0x5208"
      },
      "to": "0xa0f64F13E87Aa2B6f9Db9D093d9180b2C0F2dB74",
      "value": {
        "_hex": "0xc1c23435b07000"
      },
      "nonce": 1,
      "data": "0x",
      "r": "0xcdf0ff4c60d278cd1c3c2a7234dc258a35fdea2cb7b71545293432f29f53cb42",
      "s": "0x72f147c51fc234841c539c03a74eefa4b42eb8b03374859ea9c176ce9e1dde5c",
      "v": 28,
      "creates": null,
      "raw": "0xf86b01850ba43b740082520894a0f64f13e87aa2b6f9db9d093d9180b2c0f2db7487c1c23435b07000801ca0cdf0ff4c60d278cd1c3c2a7234dc258a35fdea2cb7b71545293432f29f53cb42a072f147c51fc234841c539c03a74eefa4b42eb8b03374859ea9c176ce9e1dde5c",
      "networkId": 0,
      "chainId": 0
    },
    {
      "hash": "0xd6d99967192a9541cabdff31b5f04968eb14ef22cbbcfbdb1e990cfa309cc149",
      "blockHash": "0x1db5d658182a15da033b050414a2f51ecd91a4bcd14d323c0eb0c939300164bd",
      "blockNumber": 68953,
      "transactionIndex": 8,
      "confirmations": null,
      "from": "0x7328289F8ed1FeacE8E6a9a2876b22D948C41EDf",
      "gasPrice": {
        "_hex": "0xba43b7400"
      },
      "gasLimit": {
        "_hex": "0x5208"
      },
      "to": "0x8D074e18ed7Ca963B51B515544bd4913CC070cAc",
      "value": {
        "_hex": "0xc1c23435b07000"
      },
      "nonce": 1,
      "data": "0x",
      "r": "0x62d6572ec06f0f9ab841e35c48a94f4587a6ff8cc36ac72237388ce049f519f3",
      "s": "0x712e9725ad098945f6ab8dba7ef792cff421e9a815de069e5070bb6798b36eaa",
      "v": 27,
      "creates": null,
      "raw": "0xf86b01850ba43b7400825208948d074e18ed7ca963b51b515544bd4913cc070cac87c1c23435b07000801ba062d6572ec06f0f9ab841e35c48a94f4587a6ff8cc36ac72237388ce049f519f3a0712e9725ad098945f6ab8dba7ef792cff421e9a815de069e5070bb6798b36eaa",
      "networkId": 0,
      "chainId": 0
    },
    {
      "hash": "0x1e75351915515aacc3ea92890fa06b087e1a42c37e5a46f46e7276a66b6fdfc2",
      "blockHash": "0x1db5d658182a15da033b050414a2f51ecd91a4bcd14d323c0eb0c939300164bd",
      "blockNumber": 68953,
      "transactionIndex": 9,
      "confirmations": null,
      "from": "0xd1F105e1859Ea55476CB304f015F997Ed9Ca6bd0",
      "gasPrice": {
        "_hex": "0xba43b7400"
      },
      "gasLimit": {
        "_hex": "0x5208"
      },
      "to": "0xCcdcd6657b47a2b355365973f2cB697BD1B3eAcD",
      "value": {
        "_hex": "0xc1c23435b07000"
      },
      "nonce": 1,
      "data": "0x",
      "r": "0x9235f078b71642b6269e677842e317265af2276c872e7ac9afd79aa9035a2656",
      "s": "0x4b6e6207eb1c447f622a335991adfb5e41c329459c4b0ba3de3230f19b47c1cf",
      "v": 28,
      "creates": null,
      "raw": "0xf86b01850ba43b740082520894ccdcd6657b47a2b355365973f2cb697bd1b3eacd87c1c23435b07000801ca09235f078b71642b6269e677842e317265af2276c872e7ac9afd79aa9035a2656a04b6e6207eb1c447f622a335991adfb5e41c329459c4b0ba3de3230f19b47c1cf",
      "networkId": 0,
      "chainId": 0
    },
    {
      "hash": "0x5e0ecbfc3b1d72288921e8824052c6987bb0f976e29eb461aec28db034cbed85",
      "blockHash": "0x1db5d658182a15da033b050414a2f51ecd91a4bcd14d323c0eb0c939300164bd",
      "blockNumber": 68953,
      "transactionIndex": 10,
      "confirmations": null,
      "from": "0x6ac7a0d5305606f01601B140cFFb80c88A52f18e",
      "gasPrice": {
        "_hex": "0xba43b7400"
      },
      "gasLimit": {
        "_hex": "0x5208"
      },
      "to": "0xBbf4254A391fD2997A18A2A1e26d1f981D20C8cC",
      "value": {
        "_hex": "0xc1c23435b07000"
      },
      "nonce": 1,
      "data": "0x",
      "r": "0x4784c7b8c9b234f234aa50f7f9fdf2462bea2441596a4e626c184a8488324f84",
      "s": "0x53e1c20029ab85e85d810fc0db02873daaeb49f912d32de985dece757cb41d89",
      "v": 27,
      "creates": null,
      "raw": "0xf86b01850ba43b740082520894bbf4254a391fd2997a18a2a1e26d1f981d20c8cc87c1c23435b07000801ba04784c7b8c9b234f234aa50f7f9fdf2462bea2441596a4e626c184a8488324f84a053e1c20029ab85e85d810fc0db02873daaeb49f912d32de985dece757cb41d89",
      "networkId": 0,
      "chainId": 0
    },
    {
      "hash": "0x0faf7a1a4ad6b5ffb017d379519a0a1929f4c1ad0d0e3da4ee7834ba56b247aa",
      "blockHash": "0x1db5d658182a15da033b050414a2f51ecd91a4bcd14d323c0eb0c939300164bd",
      "blockNumber": 68953,
      "transactionIndex": 11,
      "confirmations": null,
      "from": "0x442EbF322d14521EadBdd1dEe407365230219734",
      "gasPrice": {
        "_hex": "0xba43b7400"
      },
      "gasLimit": {
        "_hex": "0x5208"
      },
      "to": "0x315b1835127E93AEcb3600C46440ae447db80256",
      "value": {
        "_hex": "0xc1c23435b07000"
      },
      "nonce": 1,
      "data": "0x",
      "r": "0xeb55d4255bf7a874e96cebfc17f34e1daec070d8a0ead6a19caa4bc92357ed1c",
      "s": "0x56f40c887de31f867b318b866304a02ce5c2c32e4e0927027fa33a7732410151",
      "v": 28,
      "creates": null,
      "raw": "0xf86b01850ba43b740082520894315b1835127e93aecb3600c46440ae447db8025687c1c23435b07000801ca0eb55d4255bf7a874e96cebfc17f34e1daec070d8a0ead6a19caa4bc92357ed1ca056f40c887de31f867b318b866304a02ce5c2c32e4e0927027fa33a7732410151",
      "networkId": 0,
      "chainId": 0
    },
    {
      "hash": "0xcdaac80540366263275239b5a4448add32c1450cdf282046443ab2295c943f00",
      "blockHash": "0x1db5d658182a15da033b050414a2f51ecd91a4bcd14d323c0eb0c939300164bd",
      "blockNumber": 68953,
      "transactionIndex": 12,
      "confirmations": null,
      "from": "0x5b915a920711fd4f281E098BF4010e3AE55135B8",
      "gasPrice": {
        "_hex": "0xba43b7400"
      },
      "gasLimit": {
        "_hex": "0x5208"
      },
      "to": "0x02443368CbBDc2F5638B34694aE1D1859B1Fb5aC",
      "value": {
        "_hex": "0xc1c23435b07000"
      },
      "nonce": 1,
      "data": "0x",
      "r": "0x6dfe14ea43fa5a2171263cf351a14d7cff2afc011770a7117429418f84ad452f",
      "s": "0x233a10d74ef803ac3b2baccb82828410a6efb9c9066543b7ed0bce1c70c178f9",
      "v": 28,
      "creates": null,
      "raw": "0xf86b01850ba43b74008252089402443368cbbdc2f5638b34694ae1d1859b1fb5ac87c1c23435b07000801ca06dfe14ea43fa5a2171263cf351a14d7cff2afc011770a7117429418f84ad452fa0233a10d74ef803ac3b2baccb82828410a6efb9c9066543b7ed0bce1c70c178f9",
      "networkId": 0,
      "chainId": 0
    },
    {
      "hash": "0xaf6c924e4a0b41604536d4e6402b5b839e45b63cba2e93978279969aedd9244f",
      "blockHash": "0x1db5d658182a15da033b050414a2f51ecd91a4bcd14d323c0eb0c939300164bd",
      "blockNumber": 68953,
      "transactionIndex": 13,
      "confirmations": null,
      "from": "0x622d134779f3B47E31A87BC4903e0c93b31077be",
      "gasPrice": {
        "_hex": "0xba43b7400"
      },
      "gasLimit": {
        "_hex": "0x5208"
      },
      "to": "0x0053a170B33712997013623b9E5A27198E9Bc9F9",
      "value": {
        "_hex": "0xc1c23435b07000"
      },
      "nonce": 1,
      "data": "0x",
      "r": "0x988f59bf4c58651ebfef17dbf1a9f77671d328a0c08361f8a75217ca7e5f05a8",
      "s": "0x3b7fefe710ca3e6b83b38458e8ad4ca92c4576ae55f6be4f8f8a49d0db2da300",
      "v": 28,
      "creates": null,
      "raw": "0xf86b01850ba43b7400825208940053a170b33712997013623b9e5a27198e9bc9f987c1c23435b07000801ca0988f59bf4c58651ebfef17dbf1a9f77671d328a0c08361f8a75217ca7e5f05a8a03b7fefe710ca3e6b83b38458e8ad4ca92c4576ae55f6be4f8f8a49d0db2da300",
      "networkId": 0,
      "chainId": 0
    },
    {
      "hash": "0xf5c0c2d7659e25834799a1686da203fc1e4fa4da118e8b5ab9b5ea189995ce97",
      "blockHash": "0x1db5d658182a15da033b050414a2f51ecd91a4bcd14d323c0eb0c939300164bd",
      "blockNumber": 68953,
      "transactionIndex": 14,
      "confirmations": null,
      "from": "0x9c615806a972e71cb467B03FA71C396fd8B1158C",
      "gasPrice": {
        "_hex": "0xba43b7400"
      },
      "gasLimit": {
        "_hex": "0x5208"
      },
      "to": "0xF87FB29181b1F596DbE248e3E4a130eB2a577C33",
      "value": {
        "_hex": "0xc1c23435b07000"
      },
      "nonce": 1,
      "data": "0x",
      "r": "0x07ee7a7ac583974b254f7e7236df7127962aacd6ad49436a3d2a3ed4cd413a15",
      "s": "0x018eacbb3dfb98c0d0556b4bf6cf90a0f7fc3e0f9b8fa297d876b2d8fa5c9cb8",
      "v": 27,
      "creates": null,
      "raw": "0xf86b01850ba43b740082520894f87fb29181b1f596dbe248e3e4a130eb2a577c3387c1c23435b07000801ba007ee7a7ac583974b254f7e7236df7127962aacd6ad49436a3d2a3ed4cd413a15a0018eacbb3dfb98c0d0556b4bf6cf90a0f7fc3e0f9b8fa297d876b2d8fa5c9cb8",
      "networkId": 0,
      "chainId": 0
    }
  ]
}