{
  "hash": "0x7285037c8e37e22d00b31a1216faace8d2bee73f4d611c40d14103c3ca01f2b5",
  "parentHash": "0x65e806044ae9b4341fe09e76a8acc8f69c086ab8a4ea2f6c26096f4e7b2ac789",
  "number": 114207,
  "timestamp": 1440036644,
  "nonce": "0xea7ed7d20c0ed84a",
  "difficulty": 4446837142230,
  "gasLimit": {
    "_hex": "0x2fefd8"
  },
  "gasUsed": {
    "_hex": "0x5208"
  },
  "miner": "0x790b8a3cE86E707ED0eD32bF89B3269692a23CC1",
  "extraData": "0xd783010001844765746887676f312e342e32856c696e7578",
  "transactions": [
    {
      "hash": "0xf6bd64c6c14e3ae00ba1baf07c6ccd9edc44b6520f7a7fc2a492cd428c0c74ce",
      "blockHash": "0x7285037c8e37e22d00b31a1216faace8d2bee73f4d611c40d14103c3ca01f2b5",
      "blockNumber": 114207,
      "transactionIndex": 0,
      "confirmations": null,
      "from": "0x32Be343B94f860124dC4fEe278FDCBD38C102D88",
      "gasPrice": {
        "_hex": "0xde7e5af21"
      },
      "gasLimit": {
        "_hex": "0x5208"
      },
      "to": "0xDa1d8D4c5fcF90F031f912409052224a15B83101",
      "value": {
        "_hex": "0x1a031e21b2df70000"
      },
      "nonce": 1388,
      "data": "0x",
      "r": "0x99975a5278538f031d9f0e54a82b210fb498acc590dc8b9f4ad63ce6cff1e27b",
      "s": "0x69b67068b4d11f4b22bba7a3cf6543fd2a966637cec09a338186f4c72800a969",
      "v": 27,
      "creates": null,
      "raw": "0xf86f82056c850de7e5af2182520894da1d8d4c5fcf90f031f912409052224a15b831018901a031e21b2df70000801ba099975a5278538f031d9f0e54a82b210fb498acc590dc8b9f4ad63ce6cff1e27ba069b67068b4d11f4b22bba7a3cf6543fd2a966637cec09a338186f4c72800a969",
      "networkId": 0,
      "chainId": 0
    }
  ]
}