{
  "hash": "0x21ac308b4df3d0c076ae8bca07481c1a46c356a5822e2882df177ca742b42292",
  "parentHash": "0xb3f404d541e7f8b97f44f82ec608063c0b7a5f560a3c862c1842b7f9bb26efd3",
  "number": 102732,
  "timestamp": 1439842362,
  "nonce": "0x2ab7d96c11b6956d",
  "difficulty": 4036655395289,
  "gasLimit": {
    "_hex": "0x2fefd8"
  },
  "gasUsed": {
    "_hex": "0xa410"
  },
  "miner": "0x3FF679B0823a026F2378E5f5F22A6F127cC85828",
  "extraData": "0x",
  "transactions": [
    {
      "hash": "0x73d143147920dc250134d492d5297e7ef0c964ac47e9f1f2a41c3c4e3665951f",
      "blockHash": "0x21ac308b4df3d0c076ae8bca07481c1a46c356a5822e2882df177ca742b42292",
      "blockNumber": 102732,
      "transactionIndex": 0,
      "confirmations": null,
      "from": "0x007f7f58D3eb5b7510A301eCC749FC1fCDDBE14D",
      "gasPrice": {
        "_hex": "0xe0cfe7246"
      },
      "gasLimit": {
        "_hex": "0x15f90"
      },
      "to": "0xb1abce2918E21ddb93AA452731a12672A3d9F75a",
      "value": {
        "_hex": "0x4563918244f40000"
      },
      "nonce": 214,
      "data": "0x",
      "r": "0x04da5bcc5efce9f230b90d7e412eb06a4ca4fc00a0c092f03abd47105f19af17",
      "s": "0x68358100f22efc9cac6b701efc2620f6df9d71e0cf8c406868dedbd4a4a163a2",
      "v": 27,
      "creates": null,
      "raw": "0xf86e81d6850e0cfe724683015f9094b1abce2918e21ddb93aa452731a12672a3d9f75a884563918244f40000801ba004da5bcc5efce9f230b90d7e412eb06a4ca4fc00a0c092f03abd47105f19af17a068358100f22efc9cac6b701efc2620f6df9d71e0cf8c406868dedbd4a4a163a2",
      "networkId": 0,
      "chainId": 0
    },
    {
      "hash": "0x1d39f6c23ba041d0b80c8dd76131ce858535161464308d3ec95115346673af3e",
      "blockHash": "0x21ac308b4df3d0c076ae8bca07481c1a46c356a5822e2882df177ca742b42292",
      "blockNumber": 102732,
      "transactionIndex": 1,
      "confirmations": null,
      "from": "0x2910543Af39abA0Cd09dBb2D50200b3E800A63D2",
      "gasPrice": {
        "_hex": "0xd5a132df8"
      },
      "gasLimit": {
        "_hex": "0x5208"
      },
      "to": "0xd9c4a7022Acb3543826B6C1667FAd470f65f262E",
      "value": {
        "_hex": "0x5ec7ec98946cf8000"
      },
      "nonce": 1001,
      "data": "0x",
      "r": "0xe15049fc1443059e284f001ec826e3499624af1eade2c8b93f8ee70d9548f72e",
      "s": "0x391965166ae2cb77552987f62ad6217d0716283da40ca9b32141683f53a481c6",
      "v": 27,
      "creates": null,
      "raw": "0xf86f8203e9850d5a132df882520894d9c4a7022acb3543826b6c1667fad470f65f262e8905ec7ec98946cf8000801ba0e15049fc1443059e284f001ec826e3499624af1eade2c8b93f8ee70d9548f72ea0391965166ae2cb77552987f62ad6217d0716283da40ca9b32141683f53a481c6",
      "networkId": 0,
      "chainId": 0
    }
  ]
}