{
  "hash": "0xe4f1ed3ab86305f8018197f9f2851a60053e04443a7d629d696af03deef1e281",
  "parentHash": "0x2f5eea3982fffa0d43e69863135ade595209e4522b478efcdc51d5b193749e69",
  "number": 88528,
  "timestamp": 1439609422,
  "nonce": "0xc770b50a275fb514",
  "difficulty": 3233214667490,
  "gasLimit": {
    "_hex": "0x2fefd8"
  },
  "gasUsed": {
    "_hex": "0xa410"
  },
  "miner": "0xC603Ab5ef41fC61AA8b76bEddb09e3Cfcbb174BD",
  "extraData": "0x476574682f76312e302e312f77696e646f77732f676f312e342e32",
  "transactions": [
    {
      "hash": "0xcd22edc5432f6b9133b059e535480d76ea061f5d7f79ab4098c0c81bee31a56d",
      "blockHash": "0xe4f1ed3ab86305f8018197f9f2851a60053e04443a7d629d696af03deef1e281",
      "blockNumber": 88528,
      "transactionIndex": 0,
      "confirmations": null,
      "from": "0x324b3914fC1e53995C94480633a2016Bf16Da7b9",
      "gasPrice": {
        "_hex": "0xd4cdebdcd"
      },
      "gasLimit": {
        "_hex": "0x5208"
      },
      "to": "0x32Be343B94f860124dC4fEe278FDCBD38C102D88",
      "value": {
        "_hex": "0x148b987575a1400000"
      },
      "nonce": 1,
      "data": "0x",
      "r": "0x3327de1703c0b2f1f02def5e5c6b7d5207a0b8e5e596685e65317eac6f970bd8",
      "s": "0x245aafa33f95bc2cf08c81de48b4dee8c7b018a3f58fcc68e5b6dab32485731a",
      "v": 28,
      "creates": null,
      "raw": "0xf86d01850d4cdebdcd8252089432be343b94f860124dc4fee278fdcbd38c102d8889148b987575a1400000801ca03327de1703c0b2f1f02def5e5c6b7d5207a0b8e5e596685e65317eac6f970bd8a0245aafa33f95bc2cf08c81de48b4dee8c7b018a3f58fcc68e5b6dab32485731a",
      "networkId": 0,
      "chainId": 0
    },
    {
      "hash": "0x55ee43438eb129b96ec7f4bba1768b030f2fa02f047fa2e3c6c229b86d061de1",
      "blockHash": "0xe4f1ed3ab86305f8018197f9f2851a60053e04443a7d629d696af03deef1e281",
      "blockNumber": 88528,
      "transactionIndex": 1,
      "confirmations": null,
      "from": "0x64aF60Be7c74AE1D077e7F350114a5098D179b4a",
      "gasPrice": {
        "_hex": "0xd4cdebdcd"
      },
      "gasLimit": {
        "_hex": "0x5208"
      },
      "to": "0x32Be343B94f860124dC4fEe278FDCBD38C102D88",
      "value": {
        "_hex": "0xad5fb236d9bc00"
      },
      "nonce": 0,
      "data": "0x",
      "r": "0x15d38b25b81bba61f96273bdfdeaae88a2d27a5ff749ace1ffc542d065eb65a9",
      "s": "0x2c96ba01339b9bbc4655fd2f807241211d379c0737a9c58310ec8961dc4729f3",
      "v": 27,
      "creates": null,
      "raw": "0xf86b80850d4cdebdcd8252089432be343b94f860124dc4fee278fdcbd38c102d8887ad5fb236d9bc00801ba015d38b25b81bba61f96273bdfdeaae88a2d27a5ff749ace1ffc542d065eb65a9a02c96ba01339b9bbc4655fd2f807241211d379c0737a9c58310ec8961dc4729f3",
      "networkId": 0,
      "chainId": 0
    }
  ]
}