{
  "hash": "0xcb9afe0a69e8a6a3c594c20ba6122e2a6ff9f3dd9ac46220ba62ab2f95d85569",
  "parentHash": "0x033ae7017bb2325428b640f05aff8a27844603faa093085b916d07eed66806ec",
  "number": 82834,
  "timestamp": 1439525951,
  "nonce": "0x9700a4b33b946655",
  "difficulty": 2380986800730,
  "gasLimit": {
    "_hex": "0x2fefd8"
  },
  "gasUsed": {
    "_hex": "0x5208"
  },
  "miner": "0x5F8F73E26CdF436f19Cb24C82F90A15AFe55b592",
  "extraData": "0x476574682f76312e302e312f77696e646f77732f676f312e342e32",
  "transactions": [
    {
      "hash": "0x4e9ed8ebd2347f813b98b9a80836d2a55453661c208fb8cb4c6c808e16fbbe42",
      "blockHash": "0xcb9afe0a69e8a6a3c594c20ba6122e2a6ff9f3dd9ac46220ba62ab2f95d85569",
      "blockNumber": 82834,
      "transactionIndex": 0,
      "confirmations": null,
      "from": "0x36d85Dc3683156e63Bf880A9fAb7788CF8143a27",
      "gasPrice": {
        "_hex": "0xdabfc53cc"
      },
      "gasLimit": {
        "_hex": "0x15f90"
      },
      "to": "0xd180DdA62Bf752c3BCc493B4Eb8f525B343c6515",
      "value": {
        "_hex": "0x2b5e3af16b18800000"
      },
      "nonce": 19,
      "data": "0x",
      "r": "0xcacb2f1f3aaa72ccd896dff76f9f37aa7991dceda70e4a323a3d7af35b2777c4",
      "s": "0x3435071f3fd3847b4f7760491d47ffed12b15b100ba3897acd7de43f2912e31e",
      "v": 27,
      "creates": null,
      "raw": "0xf86e13850dabfc53cc83015f9094d180dda62bf752c3bcc493b4eb8f525b343c6515892b5e3af16b18800000801ba0cacb2f1f3aaa72ccd896dff76f9f37aa7991dceda70e4a323a3d7af35b2777c4a03435071f3fd3847b4f7760491d47ffed12b15b100ba3897acd7de43f2912e31e",
      "networkId": 0,
      "chainId": 0
    }
  ]
}