{
  "hash": "0xe581d95807f76d458301fce32da403ac6941d8387b68aeb3fb2f9cea5ddfccee",
  "parentHash": "0x8cfd979f39ba0d9835656cc32b11bb00c53c8d65203e24727a88220e4cd57b5e",
  "number": 101309,
  "timestamp": 1439820934,
  "nonce": "0x1e8cabe5f6d8a2dd",
  "difficulty": 3813156030515,
  "gasLimit": {
    "_hex": "0x2fefd8"
  },
  "gasUsed": {
    "_hex": "0x5208"
  },
  "miner": "0x35e8e5dC5FBd97c5b421A80B596C030a2Be2A04D",
  "extraData": "0x476574682f76312e302e312f6c696e75782f676f312e342e32",
  "transactions": [
    {
      "hash": "0x5174e9ac36b1d4534f5eb59ab3e2b15a46a67a017a9db62a4d87f14699bf1366",
      "blockHash": "0xe581d95807f76d458301fce32da403ac6941d8387b68aeb3fb2f9cea5ddfccee",
      "blockNumber": 101309,
      "transactionIndex": 0,
      "confirmations": null,
      "from": "0x2910543Af39abA0Cd09dBb2D50200b3E800A63D2",
      "gasPrice": {
        "_hex": "0xd4704560f"
      },
      "gasLimit": {
        "_hex": "0x5208"
      },
      "to": "0xFD7c9117BbEB649d9b37B3D3C9917f7c12f526B3",
      "value": {
        "_hex": "0x1a5c21c1f2b3166700"
      },
      "nonce": 964,
      "data": "0x",
      "r": "0x7eb3fd134e1f699c0f27da94ac2d7358f1239118fb6842d8b6aa2cf21b6f0544",
      "s": "0x374a020daacc4b7b8c3fb8bf7537b1b775c2bec7d6b3bc539ae85bf698cb9901",
      "v": 27,
      "creates": null,
      "raw": "0xf86f8203c4850d4704560f82520894fd7c9117bbeb649d9b37b3d3c9917f7c12f526b3891a5c21c1f2b3166700801ba07eb3fd134e1f699c0f27da94ac2d7358f1239118fb6842d8b6aa2cf21b6f0544a0374a020daacc4b7b8c3fb8bf7537b1b775c2bec7d6b3bc539ae85bf698cb9901",
      "networkId": 0,
      "chainId": 0
    }
  ]
}