{
  "hash": "0x8197c7fe93c332c6a812fbfc21f8f971efaeadeb1af8e9cdad907676e977f7d4",
  "parentHash": "0xae2b0cf5ad1c2edc65f05f0980de98233a644f32fb8e75b877298afb4302985d",
  "number": 70592,
  "timestamp": 1439322285,
  "nonce": "0x846fccee57babdee",
  "difficulty": 2147881888644,
  "gasLimit": {
    "_hex": "0x2fefd5"
  },
  "gasUsed": {
    "_hex": "0x5208"
  },
  "miner": "0x88D74a59454F6cF3B51ef6b9136AFb6b9D405A88",
  "extraData": "0x476574682f76312e302e312d37666266393930632f6c696e75782f676f312e34",
  "transactions": [
    {
      "hash": "0xfbd04344b3f05387760cfeed70034312a2134d0fa4fb92a55b062d7e1126774c",
      "blockHash": "0x8197c7fe93c332c6a812fbfc21f8f971efaeadeb1af8e9cdad907676e977f7d4",
      "blockNumber": 70592,
      "transactionIndex": 0,
      "confirmations": null,
      "from": "0x2910543Af39abA0Cd09dBb2D50200b3E800A63D2",
      "gasPrice": {
        "_hex": "0xdd6d667b6"
      },
      "gasLimit": {
        "_hex": "0x5208"
      },
      "to": "0x459942B7A17f06526a05E6A82F17A024546A1F91",
      "value": {
        "_hex": "0xdcef33a6f838000"
      },
      "nonce": 245,
      "data": "0x",
      "r": "0xa698da6050e3dfe33c93ab47690f035cfa40d7f30c34bebc00331464d3820de3",
      "s": "0x0462882b24bf2abbe4e3efbab5b643eb091ceea5d82b1e6336b8791e4b8dcdb5",
      "v": 28,
      "creates": null,
      "raw": "0xf86d81f5850dd6d667b682520894459942b7a17f06526a05e6a82f17a024546a1f91880dcef33a6f838000801ca0a698da6050e3dfe33c93ab47690f035cfa40d7f30c34bebc00331464d3820de3a00462882b24bf2abbe4e3efbab5b643eb091ceea5d82b1e6336b8791e4b8dcdb5",
      "networkId": 0,
      "chainId": 0
    }
  ]
}