{
  "hash": "0xde04e5966993c4d69cdb0f761770cdff7f0a63786a90b4801127c47dea665f71",
  "parentHash": "0x5649dc2c5f6d8bad72152109b9cb4753be1f19e71bcf4bfbe8014be5479bd766",
  "number": 52625,
  "timestamp": 1439024668,
  "nonce": "0x4a4940e0a8e1e2b0",
  "difficulty": 1567887960699,
  "gasLimit": {
    "_hex": "0x16853f"
  },
  "gasUsed": {
    "_hex": "0x1059fc"
  },
  "miner": "0x9746c7e1ef2bd21FF3997fa467593a89cb852BD0",
  "extraData": "0x476574682f76312e302e312f77696e646f77732f676f312e342e32",
  "transactions": [
    {
      "hash": "0x89a718547d33f70413a1ee6f315d75dc2975fccd55d48e39d2e43663f214e62b",
      "blockHash": "0xde04e5966993c4d69cdb0f761770cdff7f0a63786a90b4801127c47dea665f71",
      "blockNumber": 52625,
      "transactionIndex": 0,
      "confirmations": null,
      "from": "0xc12b7F40Df9A2F7bf983661422AB84c9c1f50858",
      "gasPrice": {
        "_hex": "0x110c8f7d8de"
      },
      "gasLimit": {
        "_hex": "0xc350"
      },
      "to": "0x2910543Af39abA0Cd09dBb2D50200b3E800A63D2",
      "value": {
        "_hex": "0x5142cdcdf5268c0000"
      },
      "nonce": 1,
      "data": "0x454e42484e39425830",
      "r": "0x0d851f21db3e9a2ca3efb35c9cfd0b6e2dc7216da9f9cc3d5a972fff8b470639",
      "s": "0x45ce54654f4f2312769287577eba24ac202ef07e4b62a23276ec0b6a501d5d26",
      "v": 27,
      "creates": null,
      "raw": "0xf87701860110c8f7d8de82c350942910543af39aba0cd09dbb2d50200b3e800a63d2895142cdcdf5268c000089454e42484e394258301ba00d851f21db3e9a2ca3efb35c9cfd0b6e2dc7216da9f9cc3d5a972fff8b470639a045ce54654f4f2312769287577eba24ac202ef07e4b62a23276ec0b6a501d5d26",
      "networkId": 0,
      "chainId": 0
    },
    {
      "hash": "0xedaf224d22c2de8bb5a18040ac23e1ca6fd3c0257d59f87712b0f431642e8285",
      "blockHash": "0xde04e5966993c4d69cdb0f761770cdff7f0a63786a90b4801127c47dea665f71",
      "blockNumber": 52625,
      "transactionIndex": 1,
      "confirmations": null,
      "from": "0x54dAeb3E8a6BBC797E4aD2b0339f134b186e4637",
      "gasPrice": {
        "_hex": "0xe7d27df17"
      },
      "gasLimit": {
        "_hex": "0x7a120"
      },
      "to": "0xBAA54d6E90c3F4d7Ebec11bD180134C7eD8eBb52",
      "value": {
        "_hex": "0x16345785d8a0000"
      },
      "nonce": 812,
      "data": "0x",
      "r": "0x739e2ebeaaff6d098f181694690a3e69aba4ca56b9123c682e19ffc1b3484147",
      "s": "0x5704e6a4ec48a0c854867b4f9eb4b800b8e73db4aa32a93540f372fc60b1d43d",
      "v": 28,
      "creates": null,
      "raw": "0xf86f82032c850e7d27df178307a12094baa54d6e90c3f4d7ebec11bd180134c7ed8ebb5288016345785d8a0000801ca0739e2ebeaaff6d098f181694690a3e69aba4ca56b9123c682e19ffc1b3484147a05704e6a4ec48a0c854867b4f9eb4b800b8e73db4aa32a93540f372fc60b1d43d",
      "networkId": 0,
      "chainId": 0
    },
    {
      "hash": "0xc574d5bb7615dcf42f16f5230ff8cd8cf66188a6e685e6a9ac15fea52c31a091",
      "blockHash": "0xde04e5966993c4d69cdb0f761770cdff7f0a63786a90b4801127c47dea665f71",
      "blockNumber": 52625,
      "transactionIndex": 2,
      "confirmations": null,
      "from": "0x54dAeb3E8a6BBC797E4aD2b0339f134b186e4637",
      "gasPrice": {
        "_hex": "0xe7d27df17"
      },
      "gasLimit": {
        "_hex": "0x7a120"
      },
      "to": "0xBAA54d6E90c3F4d7Ebec11bD180134C7eD8eBb52",
      "value": {
        "_hex": "0x16345785d8a0000"
      },
      "nonce": 813,
      "data": "0x",
      "r": "0xee03272c49fb023b46a753e45f17f976119b0b414736936433dad96085d42b63",
      "s": "0x55a29d9f4ddff1dffd1a7828a9b0fb89ff04acdf338eaf8bb0d12dbd89354047",
      "v": 28,
      "creates": null,
      "raw": "0xf86f82032d850e7d27df178307a12094baa54d6e90c3f4d7ebec11bd180134c7ed8ebb5288016345785d8a0000801ca0ee03272c49fb023b46a753e45f17f976119b0b414736936433dad96085d42b63a055a29d9f4ddff1dffd1a7828a9b0fb89ff04acdf338eaf8bb0d12dbd89354047",
      "networkId": 0,
      "chainId": 0
    },
    {
      "hash": "0x5fbb7eee14ec752d25b78bfde9d01f1cfd9a8fc8044a01141d847e0f9c173db5",
      "blockHash": "0xde04e5966993c4d69cdb0f761770cdff7f0a63786a90b4801127c47dea665f71",
      "blockNumber": 52625,
      "transactionIndex": 3,
      "confirmations": null,
      "from": "0xdFEa98c36ccCe9785DAFd1932E128d53621DA69b",
      "gasPrice": {
        "_hex": "0xdf540e06e"
      },
      "gasLimit": {
        "_hex": "0xc350"
      },
      "to": "0x109C4f2CCc82C4d77Bde15F306707320294Aea3F",
      "value": {
        "_hex": "0xde0b6b3a7640000"
      },
      "nonce": 1,
      "data": "0x",
      "r": "0x0ab9dad8c53931767688b67d3ab5c5d3a3d3dab29f524e862b02d0d366a42ecb",
      "s": "0x57c3b8b8163012cd872552eeda8c3db663bd6637ccfdf0dd59b900e01347a2f9",
      "v": 27,
      "creates": null,
      "raw": "0xf86c01850df540e06e82c35094109c4f2ccc82c4d77bde15f306707320294aea3f880de0b6b3a7640000801ba00ab9dad8c53931767688b67d3ab5c5d3a3d3dab29f524e862b02d0d366a42ecba057c3b8b8163012cd872552eeda8c3db663bd6637ccfdf0dd59b900e01347a2f9",
      "networkId": 0,
      "chainId": 0
    }
  ]
}