{
  "hash": "0xc4a72db8ad769f631a61a2e0677c1d809032c56caede7cb557e294b70eef7ef6",
  "parentHash": "0x295ce745ebeb3ea003bba1b7b251d02b5b9595c0e0f2d8d76e04d904cfe1e7c9",
  "number": 48194,
  "timestamp": 1438953146,
  "nonce": "0x8216da89f45f6878",
  "difficulty": 1460064091077,
  "gasLimit": {
    "_hex": "0x13897"
  },
  "gasUsed": {
    "_hex": "0x5208"
  },
  "miner": "0xf8E0CA3Ed80bd541b94BEdCf259e8CF2141A9523",
  "extraData": "0x476574682f76312e302e312f77696e646f77732f676f312e342e32",
  "transactions": [
    {
      "hash": "0x0079ab4e8c38aac3c21c9b36f36c598a1de28cb390942480f208ec85a8b041f4",
      "blockHash": "0xc4a72db8ad769f631a61a2e0677c1d809032c56caede7cb557e294b70eef7ef6",
      "blockNumber": 48194,
      "transactionIndex": 0,
      "confirmations": null,
      "from": "0x2289113B753ef6965CD5E2A355efc0aEc982171c",
      "gasPrice": {
        "_hex": "0xd21e973d8"
      },
      "gasLimit": {
        "_hex": "0x55f0"
      },
      "to": "0xCF336585500343e6Bd562504cC90D9E319037f31",
      "value": {
        "_hex": "0xde0b6b3a7640000"
      },
      "nonce": 0,
      "data": "0x",
      "r": "0xe9cdccdf1c6d5b6d297a75ede2b0d86affa3da22147ec09edac8210df265fd2e",
      "s": "0x0fc65a45306c9a9b19f327a9aefee8bbab4f51705a53adf18f3994b2e4e76db1",
      "v": 27,
      "creates": null,
      "raw": "0xf86c80850d21e973d88255f094cf336585500343e6bd562504cc90d9e319037f31880de0b6b3a7640000801ba0e9cdccdf1c6d5b6d297a75ede2b0d86affa3da22147ec09edac8210df265fd2ea00fc65a45306c9a9b19f327a9aefee8bbab4f51705a53adf18f3994b2e4e76db1",
      "networkId": 0,
      "chainId": 0
    }
  ]
}