{
  "hash": "0x9bef2d611affe6e3a19e8945a76b80a9d1b176750b3a3459a58f6623e3ddb2e2",
  "parentHash": "0x5b33a7bd5bf639a410d9e8be50e945826ecb7405ff24790e13148b618f1b2639",
  "number": 95612,
  "timestamp": 1439726671,
  "nonce": "0xa196ff95c26e37d1",
  "difficulty": 3617972100518,
  "gasLimit": {
    "_hex": "0x2fefd8"
  },
  "gasUsed": {
    "_hex": "0xa410"
  },
  "miner": "0xbb7B8287f3F0a933474a79eAe42CBCa977791171",
  "extraData": "0x476574682f4c5649562f76312e302e312f6c696e75782f676f312e342e32",
  "transactions": [
    {
      "hash": "0xeafc5dc771ade77a62b26574afb375e05ae5e320aab46c68f806533d426e6363",
      "blockHash": "0x9bef2d611affe6e3a19e8945a76b80a9d1b176750b3a3459a58f6623e3ddb2e2",
      "blockNumber": 95612,
      "transactionIndex": 0,
      "confirmations": null,
      "from": "0x32Be343B94f860124dC4fEe278FDCBD38C102D88",
      "gasPrice": {
        "_hex": "0xcce96935c"
      },
      "gasLimit": {
        "_hex": "0x5208"
      },
      "to": "0x326Be8F71bFb0379f989aAB1CC1fE37f0a771f60",
      "value": {
        "_hex": "0x10f0cccddeae9600000"
      },
      "nonce": 984,
      "data": "0x",
      "r": "0x5f76110b883d3dee7d2e4c90ac10d73240ad7940be149673fc2497e761962b32",
      "s": "0x2d17285fe238968f07ade73838b8b0c5b6609345a78e912c928ac561529c422d",
      "v": 27,
      "creates": null,
      "raw": "0xf8708203d8850cce96935c82520894326be8f71bfb0379f989aab1cc1fe37f0a771f608a010f0cccddeae9600000801ba05f76110b883d3dee7d2e4c90ac10d73240ad7940be149673fc2497e761962b32a02d17285fe238968f07ade73838b8b0c5b6609345a78e912c928ac561529c422d",
      "networkId": 0,
      "chainId": 0
    },
    {
      "hash": "0x1ec2a8f3410350a7cfe18a0059f5420b512d900c50ee64c380f32a9ff29184e2",
      "blockHash": "0x9bef2d611affe6e3a19e8945a76b80a9d1b176750b3a3459a58f6623e3ddb2e2",
      "blockNumber": 95612,
      "transactionIndex": 1,
      "confirmations": null,
      "from": "0x6De181Fc4C140FA31F196e5393516c49EEeBdAd3",
      "gasPrice": {
        "_hex": "0xcce96935c"
      },
      "gasLimit": {
        "_hex": "0x5208"
      },
      "to": "0x32Be343B94f860124dC4fEe278FDCBD38C102D88",
      "value": {
        "_hex": "0x2acfd4510ea1c00000"
      },
      "nonce": 17,
      "data": "0x",
      "r": "0x3a95ee33c1f121dd121ac53e74ca352e863816f2b2012710002c19e311153165",
      "s": "0x1c0dd61a487245a2c6ac9a6292eec36cd83f1c93ef9f5f62fc5daf3d6714ce8a",
      "v": 28,
      "creates": null,
      "raw": "0xf86d11850cce96935c8252089432be343b94f860124dc4fee278fdcbd38c102d88892acfd4510ea1c00000801ca03a95ee33c1f121dd121ac53e74ca352e863816f2b2012710002c19e311153165a01c0dd61a487245a2c6ac9a6292eec36cd83f1c93ef9f5f62fc5daf3d6714ce8a",
      "networkId": 0,
      "chainId": 0
    }
  ]
}