{
  "hash": "0x35ea85629585d9997b22fa762993764a695b1e90e61d5a5e41fa2daf9eecf7a2",
  "parentHash": "0x01333d7d12e7f6301b156b1c0d6445b24dfb22a7ee94d2c78087ae59dc2053b6",
  "number": 49681,
  "timestamp": 1438977331,
  "nonce": "0x890d416a0d2e833f",
  "difficulty": 1490779539357,
  "gasLimit": {
    "_hex": "0x3a6ce"
  },
  "gasUsed": {
    "_hex": "0xfd44"
  },
  "miner": "0xf927a40C8B7F6E07c5af7FA2155B4864a4112B13",
  "extraData": "0x476574682f76312e302e312f6c696e75782f676f312e342e32",
  "transactions": [
    {
      "hash": "0x2440c84f4489e6bfded7119c93b94cbe28653d539cb59c6d415c3ece9331872d",
      "blockHash": "0x35ea85629585d9997b22fa762993764a695b1e90e61d5a5e41fa2daf9eecf7a2",
      "blockNumber": 49681,
      "transactionIndex": 0,
      "confirmations": null,
      "from": "0x1B8aa0160cD79f005F88510A714913D70Ad3bE33",
      "gasPrice": {
        "_hex": "0x1155436fdf1"
      },
      "gasLimit": {
        "_hex": "0x15f90"
      },
      "to": "0x2910543Af39abA0Cd09dBb2D50200b3E800A63D2",
      "value": {
        "_hex": "0x4563918244f40000"
      },
      "nonce": 0,
      "data": "0x454e435741454e3052",
      "r": "0x6ae87f96298352f23a6b276d2b68875097a75cf9d39333fcd8c49d2a20cf3cd4",
      "s": "0x7870ce0cf962d47a92b524ae665c781f8144ada2d913ca289272a9322c27c21e",
      "v": 28,
      "creates": null,
      "raw": "0xf877808601155436fdf183015f90942910543af39aba0cd09dbb2d50200b3e800a63d2884563918244f4000089454e435741454e30521ca06ae87f96298352f23a6b276d2b68875097a75cf9d39333fcd8c49d2a20cf3cd4a07870ce0cf962d47a92b524ae665c781f8144ada2d913ca289272a9322c27c21e",
      "networkId": 0,
      "chainId": 0
    },
    {
      "hash": "0x0c339468764ec95b62aeb05e67f29604cae44731fdab7a9e5701a1d2a6144dff",
      "blockHash": "0x35ea85629585d9997b22fa762993764a695b1e90e61d5a5e41fa2daf9eecf7a2",
      "blockNumber": 49681,
      "transactionIndex": 1,
      "confirmations": null,
      "from": "0x1B8aa0160cD79f005F88510A714913D70Ad3bE33",
      "gasPrice": {
        "_hex": "0x109e7a04c73"
      },
      "gasLimit": {
        "_hex": "0x15f90"
      },
      "to": "0x2910543Af39abA0Cd09dBb2D50200b3E800A63D2",
      "value": {
        "_hex": "0x4563918244f40000"
      },
      "nonce": 1,
      "data": "0x454e435741454e3052",
      "r": "0x596b67a94bb1a39c8f8f38336cbcc7e906002d7ce533319ca7e77de57b4489bb",
      "s": "0x70d14c4596d424c7df8c931aa7e34c7aab32791d18040366232636dfb12cba0a",
      "v": 27,
      "creates": null,
      "raw": "0xf87701860109e7a04c7383015f90942910543af39aba0cd09dbb2d50200b3e800a63d2884563918244f4000089454e435741454e30521ba0596b67a94bb1a39c8f8f38336cbcc7e906002d7ce533319ca7e77de57b4489bba070d14c4596d424c7df8c931aa7e34c7aab32791d18040366232636dfb12cba0a",
      "networkId": 0,
      "chainId": 0
    },
    {
      "hash": "0xa7466c18830f8c7329c866b153683beb2a3c538db23fa77db3a187a5c73a9cef",
      "blockHash": "0x35ea85629585d9997b22fa762993764a695b1e90e61d5a5e41fa2daf9eecf7a2",
      "blockNumber": 49681,
      "transactionIndex": 2,
      "confirmations": null,
      "from": "0x2CD19694d1926a0fa9189EDEBAfc671CF1B2CAA5",
      "gasPrice": {
        "_hex": "0x109ca72ea23"
      },
      "gasLimit": {
        "_hex": "0x15f90"
      },
      "to": "0x2910543Af39abA0Cd09dBb2D50200b3E800A63D2",
      "value": {
        "_hex": "0x363442e15b11550000"
      },
      "nonce": 0,
      "data": "0x454e42304a42363352",
      "r": "0x61a82385e8adebf11588723b0c28a12681e95713891e6fcfa20173dada70a27b",
      "s": "0x38645ba88629548ef3a1fa9f40f73cf7adf7fc9c1c6e555f4a3bcde3654b6619",
      "v": 28,
      "creates": null,
      "raw": "0xf87880860109ca72ea2383015f90942910543af39aba0cd09dbb2d50200b3e800a63d289363442e15b1155000089454e42304a423633521ca061a82385e8adebf11588723b0c28a12681e95713891e6fcfa20173dada70a27ba038645ba88629548ef3a1fa9f40f73cf7adf7fc9c1c6e555f4a3bcde3654b6619",
      "networkId": 0,
      "chainId": 0
    }
  ]
}