{
  "hash": "0x1bd4aa8c87fafa29d19f7145393a438af9db30e39406c1cca33ca54a295fb30c",
  "parentHash": "0xe1ebe1bf89e09257c58106335fc84a20b0144a8fe1b3b349f45c1415f2bd80c3",
  "number": 97946,
  "timestamp": 1439764520,
  "nonce": "0x3a5f8400a50925fb",
  "difficulty": 3842727192582,
  "gasLimit": {
    "_hex": "0x2fefd8"
  },
  "gasUsed": {
    "_hex": "0x5208"
  },
  "miner": "0x0D4EcC7d750180EBf4A9Df728B6669B5Bceb5E40",
  "extraData": "0x",
  "transactions": [
    {
      "hash": "0xc0a89b0caac25bf91d61b01f91c6b31473eb18860e1147c84ad01fcda435f7f8",
      "blockHash": "0x1bd4aa8c87fafa29d19f7145393a438af9db30e39406c1cca33ca54a295fb30c",
      "blockNumber": 97946,
      "transactionIndex": 0,
      "confirmations": null,
      "from": "0x08AC238802993c65eF73c3f2505d00F8C2342350",
      "gasPrice": {
        "_hex": "0xba43b7400"
      },
      "gasLimit": {
        "_hex": "0x5208"
      },
      "to": "0xC47Aaa860008be6f65B58c6C6E02a84e666EfE31",
      "value": {
        "_hex": "0x4522ab83b58a6000"
      },
      "nonce": 1,
      "data": "0x",
      "r": "0x3564e103ed1fff0ab032d80ba508a5a2eb2e1daf59690523e7bda87591474903",
      "s": "0x13a0e6682af776d7d88d1fadcad6f07e31e43d8bed86251ff45036c6b98c0cff",
      "v": 27,
      "creates": null,
      "raw": "0xf86c01850ba43b740082520894c47aaa860008be6f65b58c6c6e02a84e666efe31884522ab83b58a6000801ba03564e103ed1fff0ab032d80ba508a5a2eb2e1daf59690523e7bda87591474903a013a0e6682af776d7d88d1fadcad6f07e31e43d8bed86251ff45036c6b98c0cff",
      "networkId": 0,
      "chainId": 0
    }
  ]
}