{
  "hash": "0x9a86cf36e87ce7170f6815396b5ab6451d01416110ba3ea1b824123a081d8dab",
  "parentHash": "0x2e35169999bf6b23c662b92a4ca2652477d7b54e309cc6e191797ab91ae5b536",
  "number": 91712,
  "timestamp": 1439660302,
  "nonce": "0xaa06154a7b2edfd8",
  "difficulty": 3480987746944,
  "gasLimit": {
    "_hex": "0x2fefd5"
  },
  "gasUsed": {
    "_hex": "0x14820"
  },
  "miner": "0xe6A7a1d47ff21B6321162AEA7C6CB457D5476Bca",
  "extraData": "0x476574682f76312e302e312d38326566323666362f6c696e75782f676f312e34",
  "transactions": [
    {
      "hash": "0x150a38a9dbfce4db3ff56884a03d830150d766c52a59621ed30f97e95d8e2878",
      "blockHash": "0x9a86cf36e87ce7170f6815396b5ab6451d01416110ba3ea1b824123a081d8dab",
      "blockNumber": 91712,
      "transactionIndex": 0,
      "confirmations": null,
      "from": "0xc597A5d92F5dC1137D847db733cfe02c6d209f13",
      "gasPrice": {
        "_hex": "0xde6735310"
      },
      "gasLimit": {
        "_hex": "0x15f90"
      },
      "to": "0xA6CF15Cc4e4C6d1cE63B43E5963CBD0450fd9566",
      "value": {
        "_hex": "0x98a7d9b8314c0000"
      },
      "nonce": 31,
      "data": "0x",
      "r": "0xf2d47eb209c63b3afc51a1d613e4f8394e2ed61740488ecf30030ea6a114e2bf",
      "s": "0x14bbeed3e4f62d3c3a24fc7acb37f9a38eb9d828bdd51957295eff71b0dc4f43",
      "v": 27,
      "creates": null,
      "raw": "0xf86d1f850de673531083015f9094a6cf15cc4e4c6d1ce63b43e5963cbd0450fd95668898a7d9b8314c0000801ba0f2d47eb209c63b3afc51a1d613e4f8394e2ed61740488ecf30030ea6a114e2bfa014bbeed3e4f62d3c3a24fc7acb37f9a38eb9d828bdd51957295eff71b0dc4f43",
      "networkId": 0,
      "chainId": 0
    },
    {
      "hash": "0x8361813600015e73cd41b768097324da907844adb06a98b7be221026fccb9ca6",
      "blockHash": "0x9a86cf36e87ce7170f6815396b5ab6451d01416110ba3ea1b824123a081d8dab",
      "blockNumber": 91712,
      "transactionIndex": 1,
      "confirmations": null,
      "from": "0xD5bf64B3B17Fb895536953EfE17578a8b7b16880",
      "gasPrice": {
        "_hex": "0xdd8aff61b"
      },
      "gasLimit": {
        "_hex": "0x5208"
      },
      "to": "0x32Be343B94f860124dC4fEe278FDCBD38C102D88",
      "value": {
        "_hex": "0x2b5df3f3f7ccf8000"
      },
      "nonce": 0,
      "data": "0x",
      "r": "0x665b4047a61ca10dd12608dfed506295133fb0709f9d74c0451463e35ec4f1dc",
      "s": "0x5dd4aff334148f91e71949b1c54ca9f4b3f3bcdd393f28cf17d7b84460c1c74a",
      "v": 27,
      "creates": null,
      "raw": "0xf86d80850dd8aff61b8252089432be343b94f860124dc4fee278fdcbd38c102d888902b5df3f3f7ccf8000801ba0665b4047a61ca10dd12608dfed506295133fb0709f9d74c0451463e35ec4f1dca05dd4aff334148f91e71949b1c54ca9f4b3f3bcdd393f28cf17d7b84460c1c74a",
      "networkId": 0,
      "chainId": 0
    },
    {
      "hash": "0x2381beffbe956e1547a5deb9813c9f3b1fa94dca1948f5eadb9156c887789e39",
      "blockHash": "0x9a86cf36e87ce7170f6815396b5ab6451d01416110ba3ea1b824123a081d8dab",
      "blockNumber": 91712,
      "transactionIndex": 2,
      "confirmations": null,
      "from": "0xD5eC7fec1F39ba7E58cDe6Abed1Dd4E530DAEF6e",
      "gasPrice": {
        "_hex": "0xdb28be849"
      },
      "gasLimit": {
        "_hex": "0x5208"
      },
      "to": "0x32Be343B94f860124dC4fEe278FDCBD38C102D88",
      "value": {
        "_hex": "0x14d0cb1007ca78000"
      },
      "nonce": 0,
      "data": "0x",
      "r": "0x0c523847ff06d2cf73c67d414029ec11d4a806f22b0e0ba2522436cd458ac2b2",
      "s": "0x3cc096b86f34a91e16fdcaa12a5e8ca64fd2a9b4cd377380b5720d4b530dda0c",
      "v": 28,
      "creates": null,
      "raw": "0xf86d80850db28be8498252089432be343b94f860124dc4fee278fdcbd38c102d8889014d0cb1007ca78000801ca00c523847ff06d2cf73c67d414029ec11d4a806f22b0e0ba2522436cd458ac2b2a03cc096b86f34a91e16fdcaa12a5e8ca64fd2a9b4cd377380b5720d4b530dda0c",
      "networkId": 0,
      "chainId": 0
    },
    {
      "hash": "0x3e5780dee41fa42b575c52de86c7afa78374d79f11d481b5c10c282f1241fa27",
      "blockHash": "0x9a86cf36e87ce7170f6815396b5ab6451d01416110ba3ea1b824123a081d8dab",
      "blockNumber": 91712,
      "transactionIndex": 3,
      "confirmations": null,
      "from": "0x32Be343B94f860124dC4fEe278FDCBD38C102D88",
      "gasPrice": {
        "_hex": "0xdb28be849"
      },
      "gasLimit": {
        "_hex": "0x5208"
      },
      "to": "0xF85670D57a7162B9598D92283A96B0893361d019",
      "value": {
        "_hex": "0x16e34c47b2ddc2000"
      },
      "nonce": 883,
      "data": "0x",
      "r": "0x3ede32adb0c710f3ab7c209efbb6d9af988b69158578f3135226f9e2809940f6",
      "s": "0x662b5f7b6102b34fbe102a4e8bc269464e1f467f0c938952886336a401197ebf",
      "v": 27,
      "creates": null,
      "raw": "0xf86f820373850db28be84982520894f85670d57a7162b9598d92283a96b0893361d01989016e34c47b2ddc2000801ba03ede32adb0c710f3ab7c209efbb6d9af988b69158578f3135226f9e2809940f6a0662b5f7b6102b34fbe102a4e8bc269464e1f467f0c938952886336a401197ebf",
      "networkId": 0,
      "chainId": 0
    }
  ]
}