{
  "hash": "0x301dd39e9076e1eff358e85810763827a45282bc9ec0031c477f42ba82959adb",
  "parentHash": "0xf6c235ae273759a4af1feef6f5c8443487382ef8b62441fba6230fd1d1e468cb",
  "number": 84593,
  "timestamp": 1439551809,
  "nonce": "0x9c6b78faea51f163",
  "difficulty": 2587782768384,
  "gasLimit": {
    "_hex": "0x2fefd8"
  },
  "gasUsed": {
    "_hex": "0x5208"
  },
  "miner": "0xe6A7a1d47ff21B6321162AEA7C6CB457D5476Bca",
  "extraData": "0x476574682f76312e302e312d38326566323666362f6c696e75782f676f312e34",
  "transactions": [
    {
      "hash": "0xe0e9505f343e959782b251fc35c2b4777bb83470c04c96a9ec2eb561f62b17c4",
      "blockHash": "0x301dd39e9076e1eff358e85810763827a45282bc9ec0031c477f42ba82959adb",
      "blockNumber": 84593,
      "transactionIndex": 0,
      "confirmations": null,
      "from": "0xF3556D9e6c10bEB96402c9Eb90bbf221895bA06c",
      "gasPrice": {
        "_hex": "0xd7d40ace3"
      },
      "gasLimit": {
        "_hex": "0x15f90"
      },
      "to": "0x463eADDDA71F29F36365F889EA7E6fcDBe1cF0c8",
      "value": {
        "_hex": "0x44004c09e76a0000"
      },
      "nonce": 0,
      "data": "0x",
      "r": "0x9adf5d093dc277f3678387e7d1d6d77690cd2aef029de86eb9b4a7ab5cbc461a",
      "s": "0x17508eb39d5e5243163ba8ecd13eae3fbc970ee49c891fa1fac4bbb2f39353e9",
      "v": 28,
      "creates": null,
      "raw": "0xf86d80850d7d40ace383015f9094463eaddda71f29f36365f889ea7e6fcdbe1cf0c88844004c09e76a0000801ca09adf5d093dc277f3678387e7d1d6d77690cd2aef029de86eb9b4a7ab5cbc461aa017508eb39d5e5243163ba8ecd13eae3fbc970ee49c891fa1fac4bbb2f39353e9",
      "networkId": 0,
      "chainId": 0
    }
  ]
}