{
  "hash": "0x4762e71014e3d6f3142fbe24bac9a86b1315284bba060779a502dc0f898d14d5",
  "parentHash": "0x14f0a72ca77d364b0469eb40aa648a805b7f5755558378d44f68b60a99fb52b9",
  "number": 80681,
  "timestamp": 1439489083,
  "nonce": "0x674359ed450d3f22",
  "difficulty": 2439266708120,
  "gasLimit": {
    "_hex": "0x2fefd8"
  },
  "gasUsed": {
    "_hex": "0x5208"
  },
  "miner": "0x8eB3747b8397C48BC29fd5Df6765AbCEfbDffFCA",
  "extraData": "0x476574682f76312e302e312d38326566323666362f6c696e75782f676f312e34",
  "transactions": [
    {
      "hash": "0x25f5d428c6543da437f571bdba4bb2fe3dcf7643670c31144576ae9a0a263386",
      "blockHash": "0x4762e71014e3d6f3142fbe24bac9a86b1315284bba060779a502dc0f898d14d5",
      "blockNumber": 80681,
      "transactionIndex": 0,
      "confirmations": null,
      "from": "0x8F68fbE2DCFf038C24F650C9e05Ee478038171cd",
      "gasPrice": {
        "_hex": "0xd1f217cbf"
      },
      "gasLimit": {
        "_hex": "0x55f0"
      },
      "to": "0x2f86ba8019945f39edE131D38d4d8780884DA553",
      "value": {
        "_hex": "0x6c6b935b8bbd400000"
      },
      "nonce": 14,
      "data": "0x",
      "r": "0x0e475001d96532af2f3845db6242af685566f1bcd7f80e27da41d32b6a5f003b",
      "s": "0x60c4b57a6adddd5647d072e241f821e457771a725b0b36011a7d870a7de98c49",
      "v": 28,
      "creates": null,
      "raw": "0xf86d0e850d1f217cbf8255f0942f86ba8019945f39ede131d38d4d8780884da553896c6b935b8bbd400000801ca00e475001d96532af2f3845db6242af685566f1bcd7f80e27da41d32b6a5f003ba060c4b57a6adddd5647d072e241f821e457771a725b0b36011a7d870a7de98c49",
      "networkId": 0,
      "chainId": 0
    }
  ]
}