{
  "hash": "0x8e6fc46f6fd44594261737e3e7a187cfce360312183e8fb5a8b4253bfd94b625",
  "parentHash": "0x14295f3348142c739dc95af3e751b44c00b31f8473c9d411ad4a0717771184ff",
  "number": 105044,
  "timestamp": 1439880650,
  "nonce": "0x5d0d162dbd280727",
  "difficulty": 4300010361119,
  "gasLimit": {
    "_hex": "0x2fefd8"
  },
  "gasUsed": {
    "_hex": "0xa674"
  },
  "miner": "0xe6A7a1d47ff21B6321162AEA7C6CB457D5476Bca",
  "extraData": "0x476574682f76312e302e312d38326566323666362f6c696e75782f676f312e34",
  "transactions": [
    {
      "hash": "0x84a2b7394a8e028b7d10cf556961b844105567fdad3948d04cc59e210b22cc63",
      "blockHash": "0x8e6fc46f6fd44594261737e3e7a187cfce360312183e8fb5a8b4253bfd94b625",
      "blockNumber": 105044,
      "transactionIndex": 0,
      "confirmations": null,
      "from": "0x5103bc09933E9921fd53Dc536F11f05D0D47107d",
      "gasPrice": {
        "_hex": "0x110c8f7d8de"
      },
      "gasLimit": {
        "_hex": "0xc350"
      },
      "to": "0x2910543Af39abA0Cd09dBb2D50200b3E800A63D2",
      "value": {
        "_hex": "0x2386f26fc10000"
      },
      "nonce": 0,
      "data": "0x454e48413848584730",
      "r": "0xcfc2d29b65c3d2fb1f22ce834fe9c58dd8860a4d8076e2b5ff00668c231b6818",
      "s": "0x72ff5dd6480ee2c7908eac3cfcf0128a4f52d35e09ea74a79b5c47d177d1a6ed",
      "v": 28,
      "creates": null,
      "raw": "0xf87580860110c8f7d8de82c350942910543af39aba0cd09dbb2d50200b3e800a63d2872386f26fc1000089454e484138485847301ca0cfc2d29b65c3d2fb1f22ce834fe9c58dd8860a4d8076e2b5ff00668c231b6818a072ff5dd6480ee2c7908eac3cfcf0128a4f52d35e09ea74a79b5c47d177d1a6ed",
      "networkId": 0,
      "chainId": 0
    },
    {
      "hash": "0x19b70096cd62034dc663c1c9bad6613033e3fb308403928e75ae46a5bb588e46",
      "blockHash": "0x8e6fc46f6fd44594261737e3e7a187cfce360312183e8fb5a8b4253bfd94b625",
      "blockNumber": 105044,
      "transactionIndex": 1,
      "confirmations": null,
      "from": "0x31353beec2eD3DFfC213c27A9F28ad8dfee828e9",
      "gasPrice": {
        "_hex": "0xd1f217cbf"
      },
      "gasLimit": {
        "_hex": "0x15f90"
      },
      "to": "0xfDC46f32a632B2B3D5d18776B2FD8Cce5E6C37dd",
      "value": {
        "_hex": "0xde0b6b3a7640000"
      },
      "nonce": 5,
      "data": "0x",
      "r": "0x160761ba9d8007a5c0468591170cdf1eedf729ab266364b3c497abbcfc7171b1",
      "s": "0x5c213a957e3958cb66a0bf54fdc03612e55b3356cfe9e2ec3acdef4ed4a556ac",
      "v": 28,
      "creates": null,
      "raw": "0xf86d05850d1f217cbf83015f9094fdc46f32a632b2b3d5d18776b2fd8cce5e6c37dd880de0b6b3a7640000801ca0160761ba9d8007a5c0468591170cdf1eedf729ab266364b3c497abbcfc7171b1a05c213a957e3958cb66a0bf54fdc03612e55b3356cfe9e2ec3acdef4ed4a556ac",
      "networkId": 0,
      "chainId": 0
    }
  ]
}