{
  "hash": "0x4307602ce0287dc36093a506f85964a05e5f7818de27773fbf4f6b8d1c6e63e8",
  "parentHash": "0x35975ecb7cba550ffff1c3138a2b76b1d3e8ab148ac8d14d0fdf8d4028ad1364",
  "number": 53017,
  "timestamp": 1439031093,
  "nonce": "0x9623bcebd4d7018e",
  "difficulty": 1572414637320,
  "gasLimit": {
    "_hex": "0x1dd4b9"
  },
  "gasUsed": {
    "_hex": "0x546c"
  },
  "miner": "0x88D74a59454F6cF3B51ef6b9136AFb6b9D405A88",
  "extraData": "0x476574682f76312e302e302d66633739643332642f6c696e75782f676f312e34",
  "transactions": [
    {
      "hash": "0xba75981296c815a5f6ce33eac09629f0ac720e073db5342f01dde6b1cd9aec9a",
      "blockHash": "0x4307602ce0287dc36093a506f85964a05e5f7818de27773fbf4f6b8d1c6e63e8",
      "blockNumber": 53017,
      "transactionIndex": 0,
      "confirmations": null,
      "from": "0x5D6ae8cbD6B3393C22D16254100d0238e808147C",
      "gasPrice": {
        "_hex": "0x110c8f7d8de"
      },
      "gasLimit": {
        "_hex": "0xc350"
      },
      "to": "0x2910543Af39abA0Cd09dBb2D50200b3E800A63D2",
      "value": {
        "_hex": "0x0"
      },
      "nonce": 0,
      "data": "0x454e35575632475438",
      "r": "0x3f815b2d17ea897348bba8e9ffed7ccb87da10534b3d77705c238119d1801fa6",
      "s": "0xc26dedb279dbce424f29a86834c18f4a811edec117eb40ea91aa5e3dc1785281",
      "v": 27,
      "creates": null,
      "raw": "0xf86e80860110c8f7d8de82c350942910543af39aba0cd09dbb2d50200b3e800a63d28089454e355756324754381ba03f815b2d17ea897348bba8e9ffed7ccb87da10534b3d77705c238119d1801fa6a0c26dedb279dbce424f29a86834c18f4a811edec117eb40ea91aa5e3dc1785281",
      "networkId": 0,
      "chainId": 0
    }
  ]
}