{
  "hash": "0x39453a7cc45fc3fd9afc2f2a631c9503cf36f68c6b6e0f811ac739299e48cfe5",
  "parentHash": "0x5d07abc344dcff4ac992f8b5d7dbbfa52b12ee8f52e6e6a68efe2669532d68a2",
  "number": 96910,
  "timestamp": 1439747903,
  "nonce": "0x01aabe18f4c4787c",
  "difficulty": 3732241324361,
  "gasLimit": {
    "_hex": "0x2fefd8"
  },
  "gasUsed": {
    "_hex": "0x5208"
  },
  "miner": "0x223eA75ACE9d7F53BC6c131191Aff34B44bd57aC",
  "extraData": "0x",
  "transactions": [
    {
      "hash": "0x5dd656ddd26bfd1bcc75dbd5ba2034662f62959ff2adae553d28f1dafe38ac55",
      "blockHash": "0x39453a7cc45fc3fd9afc2f2a631c9503cf36f68c6b6e0f811ac739299e48cfe5",
      "blockNumber": 96910,
      "transactionIndex": 0,
      "confirmations": null,
      "from": "0x2910543Af39abA0Cd09dBb2D50200b3E800A63D2",
      "gasPrice": {
        "_hex": "0xcb328be79"
      },
      "gasLimit": {
        "_hex": "0x5208"
      },
      "to": "0xef15013444529615642Be484eAe67F5dcD7F72e8",
      "value": {
        "_hex": "0x1bc16d674ec80000"
      },
      "nonce": 916,
      "data": "0x",
      "r": "0xfc04aba915fcac52fe90772f54d00278b11c314833b49dc3f105ead61d21acbc",
      "s": "0x298f10a39fc7d076d0b12732dcdd5181cb9b8439a53ded4843b15b1322c3d098",
      "v": 27,
      "creates": null,
      "raw": "0xf86e820394850cb328be7982520894ef15013444529615642be484eae67f5dcd7f72e8881bc16d674ec80000801ba0fc04aba915fcac52fe90772f54d00278b11c314833b49dc3f105ead61d21acbca0298f10a39fc7d076d0b12732dcdd5181cb9b8439a53ded4843b15b1322c3d098",
      "networkId": 0,
      "chainId": 0
    }
  ]
}