{
  "hash": "0x4e67dc978b0d49eb85b81182b39cad2e35cb49915389eaa4912b96609febb2f0",
  "parentHash": "0xd93c36dc02c5c77b0c84feb0d73d6ce1c986771a098ac245e0e9428da9d671db",
  "number": 47677,
  "timestamp": 1438944594,
  "nonce": "0x1cd2c0ee61e71291",
  "difficulty": 1449498659586,
  "gasLimit": {
    "_hex": "0xe243"
  },
  "gasUsed": {
    "_hex": "0xa410"
  },
  "miner": "0xeB1325C8D9d3ea8D74aC11F4B00F1B2367686319",
  "extraData": "0x476574682f76312e302e312f77696e646f77732f676f312e342e32",
  "transactions": [
    {
      "hash": "0xe8eb51a47e96743d1a6eb2404f13b1e845b51d90563c8c6908ae4d36b2804014",
      "blockHash": "0x4e67dc978b0d49eb85b81182b39cad2e35cb49915389eaa4912b96609febb2f0",
      "blockNumber": 47677,
      "transactionIndex": 0,
      "confirmations": null,
      "from": "0x5c59E28366c83f1d262567c1c529185146e68b16",
      "gasPrice": {
        "_hex": "0xd4631a778"
      },
      "gasLimit": {
        "_hex": "0x5208"
      },
      "to": "0x32Be343B94f860124dC4fEe278FDCBD38C102D88",
      "value": {
        "_hex": "0x5e8a9899774930000"
      },
      "nonce": 0,
      "data": "0x",
      "r": "0x6c250693ba4bffe786d86f17df9ad53f870f3f9f9445cfa1048bc34009bb81b8",
      "s": "0x3485a79e4c3f5fe3b90ed9fd6aa050759ad13f42a62f6566adcad51830c81255",
      "v": 28,
      "creates": null,
      "raw": "0xf86d80850d4631a7788252089432be343b94f860124dc4fee278fdcbd38c102d888905e8a9899774930000801ca06c250693ba4bffe786d86f17df9ad53f870f3f9f9445cfa1048bc34009bb81b8a03485a79e4c3f5fe3b90ed9fd6aa050759ad13f42a62f6566adcad51830c81255",
      "networkId": 0,
      "chainId": 0
    },
    {
      "hash": "0x7ec513c8d8f39a59f8e024737a12a96a0cb2998458f0a1e51cc000d2574cf06e",
      "blockHash": "0x4e67dc978b0d49eb85b81182b39cad2e35cb49915389eaa4912b96609febb2f0",
      "blockNumber": 47677,
      "transactionIndex": 1,
      "confirmations": null,
      "from": "0xe6A7a1d47ff21B6321162AEA7C6CB457D5476Bca",
      "gasPrice": {
        "_hex": "0xcb7e63080"
      },
      "gasLimit": {
        "_hex": "0x55f0"
      },
      "to": "0x24D0A28C70BAC94698980F2c297Ee1Cf505F06cB",
      "value": {
        "_hex": "0x497acda0f6436a10"
      },
      "nonce": 194,
      "data": "0x",
      "r": "0xd9f736bc5ef340b409355c9ca53b9bc87bd6ca5dffa9e24c70347d6c0f8688c5",
      "s": "0x1745b6cd076f5ec76b4a6e5930f6b92f5fe8f2c855960306711e797aa6d5f0ba",
      "v": 28,
      "creates": null,
      "raw": "0xf86d81c2850cb7e630808255f09424d0a28c70bac94698980f2c297ee1cf505f06cb88497acda0f6436a10801ca0d9f736bc5ef340b409355c9ca53b9bc87bd6ca5dffa9e24c70347d6c0f8688c5a01745b6cd076f5ec76b4a6e5930f6b92f5fe8f2c855960306711e797aa6d5f0ba",
      "networkId": 0,
      "chainId": 0
    }
  ]
}