{
  "hash": "0x07cf71173697bf28841789fdeff7999ccbd818ba68a6566b210e56eb70c65ea1",
  "parentHash": "0x5cd586a27d653b67ac11a15221f9bcd6c21b6dcf8d4921c8ae24ee07621595e8",
  "number": 89398,
  "timestamp": 1439622867,
  "nonce": "0x03461aab5e340d50",
  "difficulty": 3306314492167,
  "gasLimit": {
    "_hex": "0x2fefd8"
  },
  "gasUsed": {
    "_hex": "0x546c"
  },
  "miner": "0xe6A7a1d47ff21B6321162AEA7C6CB457D5476Bca",
  "extraData": "0x476574682f76312e302e312d38326566323666362f6c696e75782f676f312e34",
  "transactions": [
    {
      "hash": "0x93cbd90b903dfd5c107e24151dc3f0c4332b5613a74d1258434498f9690450e1",
      "blockHash": "0x07cf71173697bf28841789fdeff7999ccbd818ba68a6566b210e56eb70c65ea1",
      "blockNumber": 89398,
      "transactionIndex": 0,
      "confirmations": null,
      "from": "0xCF157612764E0FD696C8cb5FbA85Df4C0DDC3cb0",
      "gasPrice": {
        "_hex": "0xd4dfa5aef"
      },
      "gasLimit": {
        "_hex": "0x55f0"
      },
      "to": "0x2910543Af39abA0Cd09dBb2D50200b3E800A63D2",
      "value": {
        "_hex": "0xa2937c529df47c0000"
      },
      "nonce": 2,
      "data": "0x454e433242555a3730",
      "r": "0x41c8661be41c6fc9ed33168a76069b7bc40ec4cbb1713ab7368d2fd409179fc9",
      "s": "0x2836d0a0e5290d120c79c5c93815aec624c1355cca6a6ab8c0b50a3f46e7cbda",
      "v": 28,
      "creates": null,
      "raw": "0xf87602850d4dfa5aef8255f0942910543af39aba0cd09dbb2d50200b3e800a63d289a2937c529df47c000089454e433242555a37301ca041c8661be41c6fc9ed33168a76069b7bc40ec4cbb1713ab7368d2fd409179fc9a02836d0a0e5290d120c79c5c93815aec624c1355cca6a6ab8c0b50a3f46e7cbda",
      "networkId": 0,
      "chainId": 0
    }
  ]
}