{
  "hash": "0xf45e272cc7bf06767b44bfbb9621d7d82ea80c4c83c2db763868a569a0bc1c4d",
  "parentHash": "0xdda94f33a138fe2f4b300db7cdf86b2b3f945a999d541bb15c096a88414df8de",
  "number": 106650,
  "timestamp": 1439908065,
  "nonce": "0x551800338116fae1",
  "difficulty": 4466083824147,
  "gasLimit": {
    "_hex": "0x2fefd8"
  },
  "gasUsed": {
    "_hex": "0x5208"
  },
  "miner": "0xa50ec0D39fa913E62f1Bae7074E6F36caA71855b",
  "extraData": "0xd783010001844765746887676f312e342e32856c696e7578",
  "transactions": [
    {
      "hash": "0xec9725a3fa45716c8e8d53499edf82f4b22437ddd4c41df4821ade9bb7aa4d77",
      "blockHash": "0xf45e272cc7bf06767b44bfbb9621d7d82ea80c4c83c2db763868a569a0bc1c4d",
      "blockNumber": 106650,
      "transactionIndex": 0,
      "confirmations": null,
      "from": "0x645B979F8ce622236DB26feB803455d40C328615",
      "gasPrice": {
        "_hex": "0xd4c72790e"
      },
      "gasLimit": {
        "_hex": "0x5208"
      },
      "to": "0x32Be343B94f860124dC4fEe278FDCBD38C102D88",
      "value": {
        "_hex": "0x6c6b7d49724a480000"
      },
      "nonce": 10,
      "data": "0x",
      "r": "0x376b656ee8269e8f1c8a4944f6a1dba58b85ff85cce0ed4ca7094d3d0dee5d8a",
      "s": "0x7dc00b916ce8490e021d7919fe17afc7bf330bc342566ee199a4e97320f7c47b",
      "v": 27,
      "creates": null,
      "raw": "0xf86d0a850d4c72790e8252089432be343b94f860124dc4fee278fdcbd38c102d88896c6b7d49724a480000801ba0376b656ee8269e8f1c8a4944f6a1dba58b85ff85cce0ed4ca7094d3d0dee5d8aa07dc00b916ce8490e021d7919fe17afc7bf330bc342566ee199a4e97320f7c47b",
      "networkId": 0,
      "chainId": 0
    }
  ]
}