{
  "hash": "0x3779034490899d0ebee7b93cacacf2f4eefc9ada2c19c7b67fdd117f9c377d10",
  "parentHash": "0x6b1f00b00b1d1e5882d63e98539b92c0589784a2e98c4c9734e1f94f808364ef",
  "number": 116438,
  "timestamp": 1440074320,
  "nonce": "0xd56109bbced4e74a",
  "difficulty": 4566662372500,
  "gasLimit": {
    "_hex": "0x2fefd8"
  },
  "gasUsed": {
    "_hex": "0xa410"
  },
  "miner": "0x790b8a3cE86E707ED0eD32bF89B3269692a23CC1",
  "extraData": "0xd783010001844765746887676f312e342e32856c696e7578",
  "transactions": [
    {
      "hash": "0x66ae41dc220c75f7601c7971c7c60617dbbf5e0f5d6c12e1a65ce26497265c4c",
      "blockHash": "0x3779034490899d0ebee7b93cacacf2f4eefc9ada2c19c7b67fdd117f9c377d10",
      "blockNumber": 116438,
      "transactionIndex": 0,
      "confirmations": null,
      "from": "0xa9E194661AAc704Ee9DEa043974e9692dED84a5D",
      "gasPrice": {
        "_hex": "0xd854044bd"
      },
      "gasLimit": {
        "_hex": "0x5208"
      },
      "to": "0xf0638f1dc2844DC6b45B3c37697A62851026eA31",
      "value": {
        "_hex": "0x1a26a0bf07e0695018"
      },
      "nonce": 0,
      "data": "0x",
      "r": "0xc3d7609516d9f9648be5e71f150149d0e36b43ae71d6479345968228c664733e",
      "s": "0x3b1bb7869f6acb85f82fb339c67ed7ae5b035361c89120e30193f8ea8bb04e72",
      "v": 28,
      "creates": null,
      "raw": "0xf86d80850d854044bd82520894f0638f1dc2844dc6b45b3c37697a62851026ea31891a26a0bf07e0695018801ca0c3d7609516d9f9648be5e71f150149d0e36b43ae71d6479345968228c664733ea03b1bb7869f6acb85f82fb339c67ed7ae5b035361c89120e30193f8ea8bb04e72",
      "networkId": 0,
      "chainId": 0
    },
    {
      "hash": "0x63860c607050450f946fab39d820e228347f9f411467f6fbc05537509ebb4448",
      "blockHash": "0x3779034490899d0ebee7b93cacacf2f4eefc9ada2c19c7b67fdd117f9c377d10",
      "blockNumber": 116438,
      "transactionIndex": 1,
      "confirmations": null,
      "from": "0x7871C9936A21B89507B5B65C7B13d8216D832D76",
      "gasPrice": {
        "_hex": "0xd5cb37cd5"
      },
      "gasLimit": {
        "_hex": "0x15f90"
      },
      "to": "0x108feDb097c1DCfED441480170144D8e19BB217f",
      "value": {
        "_hex": "0x44e73931bdd08000"
      },
      "nonce": 9,
      "data": "0x",
      "r": "0x44e477a57142df42f378441b04754e56bc7862744125a1f6cef60ac1a809cc2b",
      "s": "0x6aa4c979640548186465bb0151430a28c7b1e2e402f30b51a01730d75515351b",
      "v": 28,
      "creates": null,
      "raw": "0xf86d09850d5cb37cd583015f9094108fedb097c1dcfed441480170144d8e19bb217f8844e73931bdd08000801ca044e477a57142df42f378441b04754e56bc7862744125a1f6cef60ac1a809cc2ba06aa4c979640548186465bb0151430a28c7b1e2e402f30b51a01730d75515351b",
      "networkId": 0,
      "chainId": 0
    }
  ]
}