{
  "hash": "0x4196cf5c75b27b8e9657f97d8fe478b0ac02466a7bd86056d0305d0b454c0add",
  "parentHash": "0xcc938772ccc11e61cd212d00a02fd73a902e90231680b7c8d0d78016c2b832c4",
  "number": 57043,
  "timestamp": 1439096509,
  "nonce": "0x9afb06fc95304639",
  "difficulty": 1714371525704,
  "gasLimit": {
    "_hex": "0x2fefd8"
  },
  "gasUsed": {
    "_hex": "0x5208"
  },
  "miner": "0x6cc7E5cA124De46300E5D1a006D3f741B737f218",
  "extraData": "0x",
  "transactions": [
    {
      "hash": "0x0259acdd4c5ab77a216a4a0dfb1d0a9792ee020f97c661b109bd6a93a29b6634",
      "blockHash": "0x4196cf5c75b27b8e9657f97d8fe478b0ac02466a7bd86056d0305d0b454c0add",
      "blockNumber": 57043,
      "transactionIndex": 0,
      "confirmations": null,
      "from": "0x8cEe38D6595788a56E3FB94634b3ffE1fBdB26d6",
      "gasPrice": {
        "_hex": "0xe19f91b9d"
      },
      "gasLimit": {
        "_hex": "0x15f90"
      },
      "to": "0x7b0813f6450be6d2d27984878f03ee858471fF1c",
      "value": {
        "_hex": "0x56bc75e2d63100000"
      },
      "nonce": 1,
      "data": "0x",
      "r": "0x74007083704d7cf719e48180c87a848a0b4a2545927e8ee4a665dd6c318264e7",
      "s": "0x0e9964b8599a732663d0413b0bd683d6cda411305223d518bf47fea2065e2616",
      "v": 28,
      "creates": null,
      "raw": "0xf86e01850e19f91b9d83015f90947b0813f6450be6d2d27984878f03ee858471ff1c89056bc75e2d63100000801ca074007083704d7cf719e48180c87a848a0b4a2545927e8ee4a665dd6c318264e7a00e9964b8599a732663d0413b0bd683d6cda411305223d518bf47fea2065e2616",
      "networkId": 0,
      "chainId": 0
    }
  ]
}