{
  "hash": "0x2319bf47e1f8d6537c2dc2fa31b932c40e60e43b2f056479665faf4e1f2476ec",
  "parentHash": "0xa2233c8214d4d41a367a0d38a3ef84da0e9d062869cfe93c40507c9af405fb30",
  "number": 72298,
  "timestamp": 1439350592,
  "nonce": "0x0fc81edeaf4a6a7c",
  "difficulty": 2166402332902,
  "gasLimit": {
    "_hex": "0x2fefd8"
  },
  "gasUsed": {
    "_hex": "0x5208"
  },
  "miner": "0xe6A7a1d47ff21B6321162AEA7C6CB457D5476Bca",
  "extraData": "0x476574682f76312e302e312d38326566323666362f6c696e75782f676f312e34",
  "transactions": [
    {
      "hash": "0x0289366837b68d4179aa70796f86770335dee8c2bfa3cd852a87c69fba8bad73",
      "blockHash": "0x2319bf47e1f8d6537c2dc2fa31b932c40e60e43b2f056479665faf4e1f2476ec",
      "blockNumber": 72298,
      "transactionIndex": 0,
      "confirmations": null,
      "from": "0xc8068593B3FA9FA18275c9Cb7a64951BcbFD19eA",
      "gasPrice": {
        "_hex": "0xda1a7c760"
      },
      "gasLimit": {
        "_hex": "0x55f0"
      },
      "to": "0x6c0E7ecD7bB748115A529c0d5ee2d26b4791578a",
      "value": {
        "_hex": "0x13f306a2409fc0000"
      },
      "nonce": 0,
      "data": "0x",
      "r": "0x13ca75f7a90b0ae7aca137f3bbf12aa3463d9ca6c9d619414ef1ed415a3516a7",
      "s": "0x3ea8bde40cab88e1ac0f0f152145bc3923052c988bbb1aaca8f7a68a50b1ec05",
      "v": 28,
      "creates": null,
      "raw": "0xf86d80850da1a7c7608255f0946c0e7ecd7bb748115a529c0d5ee2d26b4791578a89013f306a2409fc0000801ca013ca75f7a90b0ae7aca137f3bbf12aa3463d9ca6c9d619414ef1ed415a3516a7a03ea8bde40cab88e1ac0f0f152145bc3923052c988bbb1aaca8f7a68a50b1ec05",
      "networkId": 0,
      "chainId": 0
    }
  ]
}