{
  "hash": "0x838c09e3a5a0a4b8dc9ab3952a0edc9b024f8677189f03944a490663f85dd198",
  "parentHash": "0x35f8928ecf3240facb2f896f0ad8393dbb8ea8a68bfb123c13fcd2c596759a0c",
  "number": 105360,
  "timestamp": 1439886292,
  "nonce": "0x38d1e8c6594f59d0",
  "difficulty": 4350533638298,
  "gasLimit": {
    "_hex": "0x2fefd8"
  },
  "gasUsed": {
    "_hex": "0xa410"
  },
  "miner": "0x580992B51e3925e23280EfB93d3047C82f17E038",
  "extraData": "0x476574682f76312e302e312f6c696e75782f676f312e342e32",
  "transactions": [
    {
      "hash": "0x6f56fed7e079734ed49371e93b63dd202cd3b991cbdcfd9c837d4f2223fe3cc8",
      "blockHash": "0x838c09e3a5a0a4b8dc9ab3952a0edc9b024f8677189f03944a490663f85dd198",
      "blockNumber": 105360,
      "transactionIndex": 0,
      "confirmations": null,
      "from": "0x61E20833179bA2eCCc2065e5F733CC8CdA7394c0",
      "gasPrice": {
        "_hex": "0xdde4c51d6"
      },
      "gasLimit": {
        "_hex": "0x5208"
      },
      "to": "0x32Be343B94f860124dC4fEe278FDCBD38C102D88",
      "value": {
        "_hex": "0x111cbe386a16d3000"
      },
      "nonce": 5,
      "data": "0x",
      "r": "0xde413e73652600e3cb6fff12fc09d3e054bdc972c65534b1c9fc059773edbfb3",
      "s": "0x1000c8d438da1385339f3151b680197a12148cc5e94210983d465a412885bcdd",
      "v": 27,
      "creates": null,
      "raw": "0xf86d05850dde4c51d68252089432be343b94f860124dc4fee278fdcbd38c102d88890111cbe386a16d3000801ba0de413e73652600e3cb6fff12fc09d3e054bdc972c65534b1c9fc059773edbfb3a01000c8d438da1385339f3151b680197a12148cc5e94210983d465a412885bcdd",
      "networkId": 0,
      "chainId": 0
    },
    {
      "hash": "0x260c7d3bd104ed61888344f8d556f5f55e65ab2a5b94949d84ffd2f6f7d9997d",
      "blockHash": "0x838c09e3a5a0a4b8dc9ab3952a0edc9b024f8677189f03944a490663f85dd198",
      "blockNumber": 105360,
      "transactionIndex": 1,
      "confirmations": null,
      "from": "0x267069452478cA39b3f5F1A4fFdD4131f50Bc977",
      "gasPrice": {
        "_hex": "0xdde4c51d6"
      },
      "gasLimit": {
        "_hex": "0x5208"
      },
      "to": "0x32Be343B94f860124dC4fEe278FDCBD38C102D88",
      "value": {
        "_hex": "0x23d1d3906ef054000"
      },
      "nonce": 9,
      "data": "0x",
      "r": "0xc2fe343ca4cd3c45b570d16b2f35887e4438dc98926cedbb0b65bbf1ddc8d352",
      "s": "0x52509170edc3dbe6388e562c82e002bd07a1c6fb9c1f567f2872d7a44145d731",
      "v": 28,
      "creates": null,
      "raw": "0xf86d09850dde4c51d68252089432be343b94f860124dc4fee278fdcbd38c102d8889023d1d3906ef054000801ca0c2fe343ca4cd3c45b570d16b2f35887e4438dc98926cedbb0b65bbf1ddc8d352a052509170edc3dbe6388e562c82e002bd07a1c6fb9c1f567f2872d7a44145d731",
      "networkId": 0,
      "chainId": 0
    }
  ]
}