{
  "hash": "0x1016bedd9b5924af09669f6c15c013ce509fa324279f5093af7ce37bad3290d7",
  "parentHash": "0xf0a3a4ef3f3e191092edc1ed39601115c0d75d25e7efb74c15c005ee7368578e",
  "number": 102845,
  "timestamp": 1439844018,
  "nonce": "0xb35a72be6a966ced",
  "difficulty": 4074224209276,
  "gasLimit": {
    "_hex": "0x2fefd8"
  },
  "gasUsed": {
    "_hex": "0x18326"
  },
  "miner": "0xe6A7a1d47ff21B6321162AEA7C6CB457D5476Bca",
  "extraData": "0x476574682f76312e302e312d38326566323666362f6c696e75782f676f312e34",
  "transactions": [
    {
      "hash": "0xfbb2e41e2ac022b635acd17ea658b0d98fb75eaf2c9c5d49778b2b2c9b730a64",
      "blockHash": "0x1016bedd9b5924af09669f6c15c013ce509fa324279f5093af7ce37bad3290d7",
      "blockNumber": 102845,
      "transactionIndex": 0,
      "confirmations": null,
      "from": "0x46Aa501870677e7f0A504876b4E8801A0ad01C46",
      "gasPrice": {
        "_hex": "0xd7f0ed462"
      },
      "gasLimit": {
        "_hex": "0x249f0"
      },
      "to": "0xE28e72FCf78647ADCe1F1252F240bbfaebD63BcC",
      "value": {
        "_hex": "0x50aa25f43cf540000"
      },
      "nonce": 4,
      "data": "0x45466f3a",
      "r": "0x34df09aa92d1a1b3fde493fcf52cc19fb68d960105d9dc50109f21dc58281f12",
      "s": "0x4f3c6bc110c10fb8d1ecb4bc320d8cfa3b4471a88f18e6f4e55b9c0723065c99",
      "v": 27,
      "creates": null,
      "raw": "0xf87204850d7f0ed462830249f094e28e72fcf78647adce1f1252f240bbfaebd63bcc89050aa25f43cf5400008445466f3a1ba034df09aa92d1a1b3fde493fcf52cc19fb68d960105d9dc50109f21dc58281f12a04f3c6bc110c10fb8d1ecb4bc320d8cfa3b4471a88f18e6f4e55b9c0723065c99",
      "networkId": 0,
      "chainId": 0
    }
  ]
}