{
  "hash": "0x5971452250801c1677a531513a9314c188385500390c17dbe5a47a77fefcb99d",
  "parentHash": "0x36b2cd62f8ff2a8c59af2425a5d40b97902454d21e7664d273019ff7cdbb3c25",
  "number": 85110,
  "timestamp": 1439558594,
  "nonce": "0x377ff6206f498c2a",
  "difficulty": 2729074291521,
  "gasLimit": {
    "_hex": "0x2fefd8"
  },
  "gasUsed": {
    "_hex": "0x5208"
  },
  "miner": "0x77EC9ad4A7E9418774C29415CAaF4Ee0da96eF64",
  "extraData": "0x",
  "transactions": [
    {
      "hash": "0x7fc703ae551e585352f604f501eafde66726972dbda73406d7e7a4cb2c484323",
      "blockHash": "0x5971452250801c1677a531513a9314c188385500390c17dbe5a47a77fefcb99d",
      "blockNumber": 85110,
      "transactionIndex": 0,
      "confirmations": null,
      "from": "0x120A270bbC009644e35F0bB6ab13f95b8199c4ad",
      "gasPrice": {
        "_hex": "0xe027f8cea"
      },
      "gasLimit": {
        "_hex": "0x3d090"
      },
      "to": "0x97a0BD8D5FA29F234F5804b23f1AD0f416302742",
      "value": {
        "_hex": "0x7d79c214728da000"
      },
      "nonce": 443,
      "data": "0x",
      "r": "0xbb45644e06d3da16f57472a9adad57d4d107806c4d0104743d9bc473e48f362d",
      "s": "0x7b74251b3cae36a897158e881e1ef2951520a4477d20ba10bfac9f2f3423923c",
      "v": 27,
      "creates": null,
      "raw": "0xf86f8201bb850e027f8cea8303d0909497a0bd8d5fa29f234f5804b23f1ad0f416302742887d79c214728da000801ba0bb45644e06d3da16f57472a9adad57d4d107806c4d0104743d9bc473e48f362da07b74251b3cae36a897158e881e1ef2951520a4477d20ba10bfac9f2f3423923c",
      "networkId": 0,
      "chainId": 0
    }
  ]
}