{
  "hash": "0x5eb7bf5e8f3b5ba79500832d14b698c1d782f41cfd5df14c4c3d73507a7b965f",
  "parentHash": "0x53f96b3ce2231f056025e32e41b36a50b18e98c11bfe7cc42f776b0d0f5b9886",
  "number": 83982,
  "timestamp": 1439543511,
  "nonce": "0x6c95c052bd7cd48f",
  "difficulty": 2475495739401,
  "gasLimit": {
    "_hex": "0x2fefd8"
  },
  "gasUsed": {
    "_hex": "0x5208"
  },
  "miner": "0x9746c7e1ef2bd21FF3997fa467593a89cb852BD0",
  "extraData": "0x476574682f76312e302e312f77696e646f77732f676f312e342e32",
  "transactions": [
    {
      "hash": "0xabf63c522f3b5aca80b7fc92fd5c80e7c073c1bf7b6063962f2f634f4bf96c0b",
      "blockHash": "0x5eb7bf5e8f3b5ba79500832d14b698c1d782f41cfd5df14c4c3d73507a7b965f",
      "blockNumber": 83982,
      "transactionIndex": 0,
      "confirmations": null,
      "from": "0xa70a9a7040d542C632D8e0bE7c5513A8a5Bbc752",
      "gasPrice": {
        "_hex": "0xd40b1b884"
      },
      "gasLimit": {
        "_hex": "0x5208"
      },
      "to": "0x32Be343B94f860124dC4fEe278FDCBD38C102D88",
      "value": {
        "_hex": "0x455f525f24f5d000"
      },
      "nonce": 76,
      "data": "0x",
      "r": "0x64126da7929cd2fe75e27cab4ed7fc534ad12f796cc2254379ad3f086d780b02",
      "s": "0x06d0a7d86b97209265b4f1b7a33542133d86cb192faa1c97989d31804f8c223e",
      "v": 27,
      "creates": null,
      "raw": "0xf86c4c850d40b1b8848252089432be343b94f860124dc4fee278fdcbd38c102d8888455f525f24f5d000801ba064126da7929cd2fe75e27cab4ed7fc534ad12f796cc2254379ad3f086d780b02a006d0a7d86b97209265b4f1b7a33542133d86cb192faa1c97989d31804f8c223e",
      "networkId": 0,
      "chainId": 0
    }
  ]
}