{
  "hash": "0x3ec36a996d61606739b01b3a9873abc63597ec100b31edd7fbf4590bd6700e72",
  "parentHash": "0xedff721fd5d0876115343e2010bd83948aea4a582382acbfb2769dd47c3550f9",
  "number": 81218,
  "timestamp": 1439497996,
  "nonce": "0xa54a0a488014559f",
  "difficulty": 2454642442489,
  "gasLimit": {
    "_hex": "0x2fe3db"
  },
  "gasUsed": {
    "_hex": "0x19c8c"
  },
  "miner": "0xEF247E639d49461D25F57e9362CadE3120910Ce0",
  "extraData": "0x476574682f76312e302e312f6c696e75782f676f312e342e32",
  "transactions": [
    {
      "hash": "0x7a714fdb5b6bbfb12fd00c71a7d948aaddeac7fda853397822706c1934112203",
      "blockHash": "0x3ec36a996d61606739b01b3a9873abc63597ec100b31edd7fbf4590bd6700e72",
      "blockNumber": 81218,
      "transactionIndex": 0,
      "confirmations": null,
      "from": "0x4278273854a158e72fcf5E752fD5fDA7238eBea8",
      "gasPrice": {
        "_hex": "0x1144bf20f92"
      },
      "gasLimit": {
        "_hex": "0x15f90"
      },
      "to": "0x9aD28d4b9331aAC808DED237E46c6f5d69FCEDF6",
      "value": {
        "_hex": "0x1236efcbcbb340000"
      },
      "nonce": 2,
      "data": "0x",
      "r": "0xb11f40ff7acc619f59fe54471f97cd9b852cf03fd1259e2a809fa03b6bee409b",
      "s": "0x4577787450b43ac4f61f78c88249f0ae7a81b441c6aab9c60df4a87055f281e3",
      "v": 28,
      "creates": null,
      "raw": "0xf86f028601144bf20f9283015f90949ad28d4b9331aac808ded237e46c6f5d69fcedf68901236efcbcbb340000801ca0b11f40ff7acc619f59fe54471f97cd9b852cf03fd1259e2a809fa03b6bee409ba04577787450b43ac4f61f78c88249f0ae7a81b441c6aab9c60df4a87055f281e3",
      "networkId": 0,
      "chainId": 0
    },
    {
      "hash": "0xab5d8fe4889330597552273615fddde7ba474789ae94aee8c8293a45c24ce957",
      "blockHash": "0x3ec36a996d61606739b01b3a9873abc63597ec100b31edd7fbf4590bd6700e72",
      "blockNumber": 81218,
      "transactionIndex": 1,
      "confirmations": null,
      "from": "0x9f8aF3029af4Ba51bbAa32cF064816e07A35BBbD",
      "gasPrice": {
        "_hex": "0xcd022cde9"
      },
      "gasLimit": {
        "_hex": "0x55f0"
      },
      "to": "0x2910543Af39abA0Cd09dBb2D50200b3E800A63D2",
      "value": {
        "_hex": "0x196caeb721aa340000"
      },
      "nonce": 4,
      "data": "0x454e304236584b4738",
      "r": "0x1473ce7fc7d74e1933b113d0d6bb2a71763b559b81fa802060cd0d3983297001",
      "s": "0x7ed79b6e190d1ca5392da8bd0b143e6f8500534d9971ae2d4618d2878e0b6868",
      "v": 27,
      "creates": null,
      "raw": "0xf87604850cd022cde98255f0942910543af39aba0cd09dbb2d50200b3e800a63d289196caeb721aa34000089454e304236584b47381ba01473ce7fc7d74e1933b113d0d6bb2a71763b559b81fa802060cd0d3983297001a07ed79b6e190d1ca5392da8bd0b143e6f8500534d9971ae2d4618d2878e0b6868",
      "networkId": 0,
      "chainId": 0
    },
    {
      "hash": "0x85614be402d221baaf9dcf2aff38a32b9a5758ba484255d46900474dd7a95d42",
      "blockHash": "0x3ec36a996d61606739b01b3a9873abc63597ec100b31edd7fbf4590bd6700e72",
      "blockNumber": 81218,
      "transactionIndex": 2,
      "confirmations": null,
      "from": "0x5ec36DCeA7A8bAAC535C0e739d9F6300c428ca9f",
      "gasPrice": {
        "_hex": "0xcca5742fe"
      },
      "gasLimit": {
        "_hex": "0x5208"
      },
      "to": "0x32Be343B94f860124dC4fEe278FDCBD38C102D88",
      "value": {
        "_hex": "0x14d733e9cc57000"
      },
      "nonce": 2,
      "data": "0x",
      "r": "0x4713c5c6e28229bbf7cdb78dc83a4c2e24a9dc3ff529497aa7f2ddb20096eda8",
      "s": "0x5830076da91ac4cb8c11e24fd5bb4aa5595f9f53a27a991df0d79f7ff41f8f96",
      "v": 27,
      "creates": null,
      "raw": "0xf86c02850cca5742fe8252089432be343b94f860124dc4fee278fdcbd38c102d8888014d733e9cc57000801ba04713c5c6e28229bbf7cdb78dc83a4c2e24a9dc3ff529497aa7f2ddb20096eda8a05830076da91ac4cb8c11e24fd5bb4aa5595f9f53a27a991df0d79f7ff41f8f96",
      "networkId": 0,
      "chainId": 0
    },
    {
      "hash": "0xbc62d0e9d875d28e56237fafd5c98e8aec492dbfc3fb52ebee0dcf108e0a6fa7",
      "blockHash": "0x3ec36a996d61606739b01b3a9873abc63597ec100b31edd7fbf4590bd6700e72",
      "blockNumber": 81218,
      "transactionIndex": 3,
      "confirmations": null,
      "from": "0xD9B8E8ad1083a6F83438039BFF0d74Dc06006722",
      "gasPrice": {
        "_hex": "0xcca5742fe"
      },
      "gasLimit": {
        "_hex": "0x5208"
      },
      "to": "0x32Be343B94f860124dC4fEe278FDCBD38C102D88",
      "value": {
        "_hex": "0x3e008bab9317a2000"
      },
      "nonce": 0,
      "data": "0x",
      "r": "0x762b72c474e78d4b3b96c302f4abd4c31af84fdf10e52553e30550ecf23c89d0",
      "s": "0x336b4990fa062d5b7e30e5260696dfd594da3e843d63b2273cb5659710a9e8c6",
      "v": 28,
      "creates": null,
      "raw": "0xf86d80850cca5742fe8252089432be343b94f860124dc4fee278fdcbd38c102d888903e008bab9317a2000801ca0762b72c474e78d4b3b96c302f4abd4c31af84fdf10e52553e30550ecf23c89d0a0336b4990fa062d5b7e30e5260696dfd594da3e843d63b2273cb5659710a9e8c6",
      "networkId": 0,
      "chainId": 0
    },
    {
      "hash": "0xb7a951f124462a1ba5fcd2f50cb780cb2039f462054059c02df9212326b84d22",
      "blockHash": "0x3ec36a996d61606739b01b3a9873abc63597ec100b31edd7fbf4590bd6700e72",
      "blockNumber": 81218,
      "transactionIndex": 4,
      "confirmations": null,
      "from": "0xd1De291432A673D54388E10782F8bb5faD986F5F",
      "gasPrice": {
        "_hex": "0xcca5742fe"
      },
      "gasLimit": {
        "_hex": "0x5208"
      },
      "to": "0x32Be343B94f860124dC4fEe278FDCBD38C102D88",
      "value": {
        "_hex": "0x9b203a2aa7186000"
      },
      "nonce": 0,
      "data": "0x",
      "r": "0x0dd080bddfa08c47a7f983c163422e9b1a9c8566cf99ea1dc43680ed6e22ec14",
      "s": "0x33b095f3684f4db0ea2fdf9875dc5b5576fbab642757613502499944163c73a1",
      "v": 27,
      "creates": null,
      "raw": "0xf86c80850cca5742fe8252089432be343b94f860124dc4fee278fdcbd38c102d88889b203a2aa7186000801ba00dd080bddfa08c47a7f983c163422e9b1a9c8566cf99ea1dc43680ed6e22ec14a033b095f3684f4db0ea2fdf9875dc5b5576fbab642757613502499944163c73a1",
      "networkId": 0,
      "chainId": 0
    }
  ]
}