{
  "hash": "0xa8a13ae672809df62b197b1923139fbf97b9a5a5b6cb6498c4bd247c4a7d3ddb",
  "parentHash": "0x765a1f1ca01ed7306f02faf1086a5bbd0fd8d617a7b3fcf0e3c18f5a86d97f60",
  "number": 71729,
  "timestamp": 1439340982,
  "nonce": "0xf8391609d44dda52",
  "difficulty": 2171845174624,
  "gasLimit": {
    "_hex": "0x2fefd8"
  },
  "gasUsed": {
    "_hex": "0x5208"
  },
  "miner": "0xe6A7a1d47ff21B6321162AEA7C6CB457D5476Bca",
  "extraData": "0x476574682f76312e302e312d38326566323666362f6c696e75782f676f312e34",
  "transactions": [
    {
      "hash": "0x9bcd5d357175c3de05283cf82b7f4156e7c6fa201afb71276653dc6ff8706394",
      "blockHash": "0xa8a13ae672809df62b197b1923139fbf97b9a5a5b6cb6498c4bd247c4a7d3ddb",
      "blockNumber": 71729,
      "transactionIndex": 0,
      "confirmations": null,
      "from": "0x3A43Ef37317BfA278FdC2240895a93D5bBA4C4CA",
      "gasPrice": {
        "_hex": "0xd3d37f23a"
      },
      "gasLimit": {
        "_hex": "0x15f90"
      },
      "to": "0xC25f24A505b8fEF751D8f4FCc397651001F7a160",
      "value": {
        "_hex": "0xd0072d945f1b0000"
      },
      "nonce": 0,
      "data": "0x",
      "r": "0x3cb1c9ec094309d4f5a87bdc21372dcb9964535af7ec0de7df8fdce38cd53911",
      "s": "0x4c22f6cc99ecfefc631e934812d41fb2e9686948445701a0c5ff075c5533078b",
      "v": 27,
      "creates": null,
      "raw": "0xf86d80850d3d37f23a83015f9094c25f24a505b8fef751d8f4fcc397651001f7a16088d0072d945f1b0000801ba03cb1c9ec094309d4f5a87bdc21372dcb9964535af7ec0de7df8fdce38cd53911a04c22f6cc99ecfefc631e934812d41fb2e9686948445701a0c5ff075c5533078b",
      "networkId": 0,
      "chainId": 0
    }
  ]
}