{
  "hash": "0x9285ff2090dd0f3469cd7fcb8572a14b0fdf60ada8cbbd4c33ab5a1df98f03d0",
  "parentHash": "0x9bca016c097dc69bba4c0a3a11310f373af1cbdfa09720f1ae15a037d29af967",
  "number": 78864,
  "timestamp": 1439460645,
  "nonce": "0xc732152faffef4d9",
  "difficulty": 2286386575242,
  "gasLimit": {
    "_hex": "0x2fefd8"
  },
  "gasUsed": {
    "_hex": "0x546c"
  },
  "miner": "0x55bAf64fc9eAccFFd7Cc643BB61142E1C6ac093e",
  "extraData": "0x",
  "transactions": [
    {
      "hash": "0xf892c5c7532a2dd69ccef3da0cc189b4d7a1b08befa7b15a187a9af383bce49c",
      "blockHash": "0x9285ff2090dd0f3469cd7fcb8572a14b0fdf60ada8cbbd4c33ab5a1df98f03d0",
      "blockNumber": 78864,
      "transactionIndex": 0,
      "confirmations": null,
      "from": "0x00bD7514616c0E4Dd28F5B351090ABAD03F104C8",
      "gasPrice": {
        "_hex": "0xd3281afed"
      },
      "gasLimit": {
        "_hex": "0x55f0"
      },
      "to": "0x2910543Af39abA0Cd09dBb2D50200b3E800A63D2",
      "value": {
        "_hex": "0x7ce66c50e2840000"
      },
      "nonce": 6,
      "data": "0x454e503330514a3547",
      "r": "0x274b6c576c4798e7e02029bcdec5c4c235a6b322f4b2e2b240c9a1675d30623b",
      "s": "0x01e1018e93a4f0695c2dfda761a24f1c2d5d9d366c257d52923ad9be5cf329e3",
      "v": 28,
      "creates": null,
      "raw": "0xf87506850d3281afed8255f0942910543af39aba0cd09dbb2d50200b3e800a63d2887ce66c50e284000089454e503330514a35471ca0274b6c576c4798e7e02029bcdec5c4c235a6b322f4b2e2b240c9a1675d30623ba001e1018e93a4f0695c2dfda761a24f1c2d5d9d366c257d52923ad9be5cf329e3",
      "networkId": 0,
      "chainId": 0
    }
  ]
}