{
  "hash": "0xe356e369a794ea6b39eb26f9afc3215d26edf8fe599c892313afceda78714d69",
  "parentHash": "0x1e74e91abcf7345ab8c3aaf6f7e87c0095769ef3d9303b50229dce35c466bc26",
  "number": 67851,
  "timestamp": 1439278334,
  "nonce": "0xdef357b7fbda0a51",
  "difficulty": 1955352829239,
  "gasLimit": {
    "_hex": "0x2fefd5"
  },
  "gasUsed": {
    "_hex": "0x5208"
  },
  "miner": "0xf927a40C8B7F6E07c5af7FA2155B4864a4112B13",
  "extraData": "0x",
  "transactions": [
    {
      "hash": "0xf9950dd6d217c4c4861c8eea1d7c5509e1768bc55d3c5931aa4aa3507a1fe6f2",
      "blockHash": "0xe356e369a794ea6b39eb26f9afc3215d26edf8fe599c892313afceda78714d69",
      "blockNumber": 67851,
      "transactionIndex": 0,
      "confirmations": null,
      "from": "0x9Eb13f2Df9A75B34f1e48D8eC2aF7DfbDabA1764",
      "gasPrice": {
        "_hex": "0xd57049073"
      },
      "gasLimit": {
        "_hex": "0x15f90"
      },
      "to": "0x608F680cB915b87F83f3d369bBbb796D778c6162",
      "value": {
        "_hex": "0x0"
      },
      "nonce": 2,
      "data": "0x",
      "r": "0x99ce03234e0ff98786d7495a085e1f1d210c002391c860b2653b4b90ccc66987",
      "s": "0x6588f34b8633d7f492e74987168c6f5fe2c9fec7b2244915eb955478c34a40a6",
      "v": 27,
      "creates": null,
      "raw": "0xf86502850d5704907383015f9094608f680cb915b87f83f3d369bbbb796d778c616280801ba099ce03234e0ff98786d7495a085e1f1d210c002391c860b2653b4b90ccc66987a06588f34b8633d7f492e74987168c6f5fe2c9fec7b2244915eb955478c34a40a6",
      "networkId": 0,
      "chainId": 0
    }
  ]
}