{
  "hash": "0x1d78af79da9f5805ab718cda597eb9ba4e0fcca9dcbaffc7998f8ec66afba481",
  "parentHash": "0xe36b6f1e45d4a801c5f7b282384000339eaade32fb5c582884a27c7b3bb6c687",
  "number": 47545,
  "timestamp": 1438942557,
  "nonce": "0x682016732da555c6",
  "difficulty": 1446693134641,
  "gasLimit": {
    "_hex": "0xcdbd"
  },
  "gasUsed": {
    "_hex": "0xa410"
  },
  "miner": "0x9746c7e1ef2bd21FF3997fa467593a89cb852BD0",
  "extraData": "0x476574682f76312e302e312f77696e646f77732f676f312e342e32",
  "transactions": [
    {
      "hash": "0xc1cc816537499402304e98da2274c38494487dffd7f5dc7b62af7940514db50a",
      "blockHash": "0x1d78af79da9f5805ab718cda597eb9ba4e0fcca9dcbaffc7998f8ec66afba481",
      "blockNumber": 47545,
      "transactionIndex": 0,
      "confirmations": null,
      "from": "0xe6A7a1d47ff21B6321162AEA7C6CB457D5476Bca",
      "gasPrice": {
        "_hex": "0x1c3ea3d808"
      },
      "gasLimit": {
        "_hex": "0x55f0"
      },
      "to": "0xc8ebccC5F5689Fa8659d83713341e5aD19349448",
      "value": {
        "_hex": "0x475a90d75f2ccf950"
      },
      "nonce": 173,
      "data": "0x",
      "r": "0x63345e8512779e398fe047bb19b725137e9de11a94832e5ba30a6469832c9192",
      "s": "0x137cb345325129e75285b84058e15b54d9371b6a8e8f24208025b384202cd315",
      "v": 28,
      "creates": null,
      "raw": "0xf86e81ad851c3ea3d8088255f094c8ebccc5f5689fa8659d83713341e5ad19349448890475a90d75f2ccf950801ca063345e8512779e398fe047bb19b725137e9de11a94832e5ba30a6469832c9192a0137cb345325129e75285b84058e15b54d9371b6a8e8f24208025b384202cd315",
      "networkId": 0,
      "chainId": 0
    },
    {
      "hash": "0x2abd90fa0156f5e450171d975ce6aab5b3cefdc40cd1992c327b303e80d404e6",
      "blockHash": "0x1d78af79da9f5805ab718cda597eb9ba4e0fcca9dcbaffc7998f8ec66afba481",
      "blockNumber": 47545,
      "transactionIndex": 1,
      "confirmations": null,
      "from": "0xe6A7a1d47ff21B6321162AEA7C6CB457D5476Bca",
      "gasPrice": {
        "_hex": "0x1c3ea3d808"
      },
      "gasLimit": {
        "_hex": "0x55f0"
      },
      "to": "0x68FFA706761dA2294d90488B32526FFE7fb2ff8d",
      "value": {
        "_hex": "0x590478c0473294600"
      },
      "nonce": 174,
      "data": "0x",
      "r": "0xe3852a115233c14ea72ee9efd968731ceac03438fdb8aa7812cec14deca037fb",
      "s": "0x3829de339335c65f9792943067780a8467c61fe064d67d7193fc3842ca967cbe",
      "v": 28,
      "creates": null,
      "raw": "0xf86e81ae851c3ea3d8088255f09468ffa706761da2294d90488b32526ffe7fb2ff8d890590478c0473294600801ca0e3852a115233c14ea72ee9efd968731ceac03438fdb8aa7812cec14deca037fba03829de339335c65f9792943067780a8467c61fe064d67d7193fc3842ca967cbe",
      "networkId": 0,
      "chainId": 0
    }
  ]
}