{
  "hash": "0xb06010328f221a1b76386dd3baf7effbc1bd09e08f01ba8a70b5223ed5bdb063",
  "parentHash": "0x83d7dd5dfc84b50bc7c6a5ee483a17f2b1fca4bafedcc97e16a1d8d4f5fcf9ec",
  "number": 56331,
  "timestamp": 1439085465,
  "nonce": "0x8646c8f192a1029f",
  "difficulty": 1655288279025,
  "gasLimit": {
    "_hex": "0x2fefd8"
  },
  "gasUsed": {
    "_hex": "0x5208"
  },
  "miner": "0x09f64A8B755cBA5D1a17aeF1af8ab7662E224A95",
  "extraData": "0x476574682f76312e302e312f77696e646f77732f676f312e342e32",
  "transactions": [
    {
      "hash": "0xc913279aca33de9fb1e146e5c45d7865a99f7dd8d58dcae6f2121e627a240aa9",
      "blockHash": "0xb06010328f221a1b76386dd3baf7effbc1bd09e08f01ba8a70b5223ed5bdb063",
      "blockNumber": 56331,
      "transactionIndex": 0,
      "confirmations": null,
      "from": "0x32Be343B94f860124dC4fEe278FDCBD38C102D88",
      "gasPrice": {
        "_hex": "0xd45c01be3"
      },
      "gasLimit": {
        "_hex": "0x5208"
      },
      "to": "0xb996Aa4730618799F3FcC30a682d21E1BF70Ef90",
      "value": {
        "_hex": "0xe6ed27d66680000"
      },
      "nonce": 83,
      "data": "0x",
      "r": "0xaf7194128d8e62bb1b5229d5a1d25d644dc1f893e59d36f39e8dff50f46c3b54",
      "s": "0x6a399fc17a8a575794170195947e78cd346374d5f4f85a9a55c7a2e59bcca74c",
      "v": 28,
      "creates": null,
      "raw": "0xf86c53850d45c01be382520894b996aa4730618799f3fcc30a682d21e1bf70ef90880e6ed27d66680000801ca0af7194128d8e62bb1b5229d5a1d25d644dc1f893e59d36f39e8dff50f46c3b54a06a399fc17a8a575794170195947e78cd346374d5f4f85a9a55c7a2e59bcca74c",
      "networkId": 0,
      "chainId": 0
    }
  ]
}