{
  "hash": "0x8cfb8c3502070c46d5652f7c6cb2e0490b9fe353375cd92a678327cc5f717655",
  "parentHash": "0x647ca37aecdb7e7713ec6769eec8ffeff65756cf1929635bd9d0b205165cf7c2",
  "number": 107013,
  "timestamp": 1439914579,
  "nonce": "0x4d9e9d1ef63c9c2f",
  "difficulty": 4446308129710,
  "gasLimit": {
    "_hex": "0x2fefd8"
  },
  "gasUsed": {
    "_hex": "0xa410"
  },
  "miner": "0xe6A7a1d47ff21B6321162AEA7C6CB457D5476Bca",
  "extraData": "0x476574682f76312e302e312d38326566323666362f6c696e75782f676f312e34",
  "transactions": [
    {
      "hash": "0xc1eca44484dc3a56ec8d0bc4076508a9739ee3e6a43c0b4918a65ce1f2758bb4",
      "blockHash": "0x8cfb8c3502070c46d5652f7c6cb2e0490b9fe353375cd92a678327cc5f717655",
      "blockNumber": 107013,
      "transactionIndex": 0,
      "confirmations": null,
      "from": "0x120A270bbC009644e35F0bB6ab13f95b8199c4ad",
      "gasPrice": {
        "_hex": "0xd7ff31949"
      },
      "gasLimit": {
        "_hex": "0x3d090"
      },
      "to": "0xdDbddD1BBd38fFADE0305d30f02028D92e9f3Aa8",
      "value": {
        "_hex": "0x25f273933db5700000"
      },
      "nonce": 797,
      "data": "0x",
      "r": "0xb5b8ee7c858074230c537df7c2937b0c9987ff6aea598d282974ee1e3d3cbf05",
      "s": "0x36fe4e66ccd267d9fbd51bf2164a382d3a19332b7657fdbe2896439053a1329d",
      "v": 27,
      "creates": null,
      "raw": "0xf87082031d850d7ff319498303d09094ddbddd1bbd38ffade0305d30f02028d92e9f3aa88925f273933db5700000801ba0b5b8ee7c858074230c537df7c2937b0c9987ff6aea598d282974ee1e3d3cbf05a036fe4e66ccd267d9fbd51bf2164a382d3a19332b7657fdbe2896439053a1329d",
      "networkId": 0,
      "chainId": 0
    },
    {
      "hash": "0xd357c4103205de5e592e5b712913eaf07289f935543cd596df5a80eae90ec095",
      "blockHash": "0x8cfb8c3502070c46d5652f7c6cb2e0490b9fe353375cd92a678327cc5f717655",
      "blockNumber": 107013,
      "transactionIndex": 1,
      "confirmations": null,
      "from": "0x8F79f76381Aad7B98C19aF55eE75fdfEeb012211",
      "gasPrice": {
        "_hex": "0xcc7a414f4"
      },
      "gasLimit": {
        "_hex": "0x5208"
      },
      "to": "0x32Be343B94f860124dC4fEe278FDCBD38C102D88",
      "value": {
        "_hex": "0x2a7feebe894dca000"
      },
      "nonce": 46,
      "data": "0x",
      "r": "0x41837dd7990bf1dc2f08669fa5e431e696195571319166a1115288dcb8f075bd",
      "s": "0x6a4ca56781334fb926fd29b06b913d7b2b21c082f1ee8ca509a10c9743242db4",
      "v": 28,
      "creates": null,
      "raw": "0xf86d2e850cc7a414f48252089432be343b94f860124dc4fee278fdcbd38c102d888902a7feebe894dca000801ca041837dd7990bf1dc2f08669fa5e431e696195571319166a1115288dcb8f075bda06a4ca56781334fb926fd29b06b913d7b2b21c082f1ee8ca509a10c9743242db4",
      "networkId": 0,
      "chainId": 0
    }
  ]
}