{
  "hash": "0x2dfc6452b39ea612240c9d53662190281c43262d55b4a36bb88c60bd80359025",
  "parentHash": "0x4547f8ca0bfedda278997bd425d4a5bcaa5d2f7bafff6166d0c737f5e2a6b87d",
  "number": 118808,
  "timestamp": 1440131811,
  "nonce": "0xf4a765fec3c6a4ef",
  "difficulty": 4390475671757,
  "gasLimit": {
    "_hex": "0x2fefd8"
  },
  "gasUsed": {
    "_hex": "0x5208"
  },
  "miner": "0x52bc44d5378309EE2abF1539BF71dE1b7d7bE3b5",
  "extraData": "0xd783010002844765746887676f312e342e32856c696e7578",
  "transactions": [
    {
      "hash": "0x8b83e1829394a8f96f199e5031ab9074520d85f2d4fd17d1989c2308d291dfc7",
      "blockHash": "0x2dfc6452b39ea612240c9d53662190281c43262d55b4a36bb88c60bd80359025",
      "blockNumber": 118808,
      "transactionIndex": 0,
      "confirmations": null,
      "from": "0x1308A2e95c0160B90803ddCA9B9a5bb55E416d79",
      "gasPrice": {
        "_hex": "0xd27c8ef0c"
      },
      "gasLimit": {
        "_hex": "0x15f90"
      },
      "to": "0xAB271f23c1fC6CCf23FdEC571d5B21eFccCfa449",
      "value": {
        "_hex": "0x1ba5b16d244ead000"
      },
      "nonce": 175,
      "data": "0x",
      "r": "0x672eef441bae939fe98e0b5d0e39243c0ecc4789a1a044c8459171428543d0af",
      "s": "0x212a0422ad1b35e2f729b4e1ba21a0b23d6d89f928f87697b1ddf51c1f561028",
      "v": 28,
      "creates": null,
      "raw": "0xf86f81af850d27c8ef0c83015f9094ab271f23c1fc6ccf23fdec571d5b21efcccfa4498901ba5b16d244ead000801ca0672eef441bae939fe98e0b5d0e39243c0ecc4789a1a044c8459171428543d0afa0212a0422ad1b35e2f729b4e1ba21a0b23d6d89f928f87697b1ddf51c1f561028",
      "networkId": 0,
      "chainId": 0
    }
  ]
}