{
  "hash": "0xeddc704da069ab35de34f935a885cd05d9e7e739d85a268f46febcf0b831f72b",
  "parentHash": "0x0fbf32ae186fd0ddc4e2927b4d1be8d100bc7f73ffbe8bdabd04c839f52a56a3",
  "number": 98500,
  "timestamp": 1439773895,
  "nonce": "0xa3fb6d8438ef378f",
  "difficulty": 3861281378986,
  "gasLimit": {
    "_hex": "0x2fefd8"
  },
  "gasUsed": {
    "_hex": "0x5208"
  },
  "miner": "0xe6A7a1d47ff21B6321162AEA7C6CB457D5476Bca",
  "extraData": "0x476574682f76312e302e312d38326566323666362f6c696e75782f676f312e34",
  "transactions": [
    {
      "hash": "0x9f863debed6bc5481c7d336a5db7592ddf8002e1da219a269d834bcdb5a5a71a",
      "blockHash": "0xeddc704da069ab35de34f935a885cd05d9e7e739d85a268f46febcf0b831f72b",
      "blockNumber": 98500,
      "transactionIndex": 0,
      "confirmations": null,
      "from": "0xB17d2bFef3ED5F2EaA806Fe930878F6eBfD31CCf",
      "gasPrice": {
        "_hex": "0xda1b98d1e"
      },
      "gasLimit": {
        "_hex": "0x15f90"
      },
      "to": "0x5BB33B0e16f8a05C5124c33418922C5b1Be8F810",
      "value": {
        "_hex": "0x16345785d8a00000"
      },
      "nonce": 1,
      "data": "0x",
      "r": "0xb275426c4126fd403997717bde3fd9e32ac15eee5f83fb3c2aceddcc0a53fba1",
      "s": "0x03cd1b2380edd3d81db6f4e486b9b0934ba8a1389722fa4b89a5e53a9a08259e",
      "v": 27,
      "creates": null,
      "raw": "0xf86d01850da1b98d1e83015f90945bb33b0e16f8a05c5124c33418922c5b1be8f8108816345785d8a00000801ba0b275426c4126fd403997717bde3fd9e32ac15eee5f83fb3c2aceddcc0a53fba1a003cd1b2380edd3d81db6f4e486b9b0934ba8a1389722fa4b89a5e53a9a08259e",
      "networkId": 0,
      "chainId": 0
    }
  ]
}