{
  "hash": "0xa5de830733da7e85eb6cd0e64a622912d4442fc550e2589a95980ee21260ddee",
  "parentHash": "0x2a3b88a7f4dce885a30bb8933c8e656870282d3a9846476f288078311e801875",
  "number": 99974,
  "timestamp": 1439798670,
  "nonce": "0x2b1b33fa29291d1c",
  "difficulty": 3845551889703,
  "gasLimit": {
    "_hex": "0x2fefd8"
  },
  "gasUsed": {
    "_hex": "0xa410"
  },
  "miner": "0xe6A7a1d47ff21B6321162AEA7C6CB457D5476Bca",
  "extraData": "0x476574682f76312e302e312d38326566323666362f6c696e75782f676f312e34",
  "transactions": [
    {
      "hash": "0xb178d1b44df32029a6ea0066b0d126d255ed9ec9f2164939555ddc3a46f180bc",
      "blockHash": "0xa5de830733da7e85eb6cd0e64a622912d4442fc550e2589a95980ee21260ddee",
      "blockNumber": 99974,
      "transactionIndex": 0,
      "confirmations": null,
      "from": "0xe6A7a1d47ff21B6321162AEA7C6CB457D5476Bca",
      "gasPrice": {
        "_hex": "0xd4b0750fb"
      },
      "gasLimit": {
        "_hex": "0x55f0"
      },
      "to": "0x8C37447a7930187595EC51FEA6f749C4F8a96cD4",
      "value": {
        "_hex": "0x1df2d5eea5a930e70"
      },
      "nonce": 3448,
      "data": "0x",
      "r": "0x12a3ae99712ee07ab3138404729a695432de139c9abfb160b5ef8848855b725b",
      "s": "0x0c5e5412ee462def684ba8f01084ece8c2b4c486ca2ba024d8671505404a6d0b",
      "v": 27,
      "creates": null,
      "raw": "0xf86f820d78850d4b0750fb8255f0948c37447a7930187595ec51fea6f749c4f8a96cd48901df2d5eea5a930e70801ba012a3ae99712ee07ab3138404729a695432de139c9abfb160b5ef8848855b725ba00c5e5412ee462def684ba8f01084ece8c2b4c486ca2ba024d8671505404a6d0b",
      "networkId": 0,
      "chainId": 0
    },
    {
      "hash": "0xbce29e2cfc6551cf32887200e9023c98d74be92145f5b4b63581c1f5a8315a2f",
      "blockHash": "0xa5de830733da7e85eb6cd0e64a622912d4442fc550e2589a95980ee21260ddee",
      "blockNumber": 99974,
      "transactionIndex": 1,
      "confirmations": null,
      "from": "0xe6A7a1d47ff21B6321162AEA7C6CB457D5476Bca",
      "gasPrice": {
        "_hex": "0xd2c5e06d7"
      },
      "gasLimit": {
        "_hex": "0x55f0"
      },
      "to": "0x7001C4730b81A539eF8b760A3eEb14C64515137B",
      "value": {
        "_hex": "0x1e67f18857a89ee58"
      },
      "nonce": 3449,
      "data": "0x",
      "r": "0xb33181778c2becf329143a040512c68e84e94339ff61d527f039d5e2376d0c7a",
      "s": "0x1222f9062f148d9c88fe1ae2b4a2aeef42ac03a551b2f2b76ef5ee219ec19fbd",
      "v": 28,
      "creates": null,
      "raw": "0xf86f820d79850d2c5e06d78255f0947001c4730b81a539ef8b760a3eeb14c64515137b8901e67f18857a89ee58801ca0b33181778c2becf329143a040512c68e84e94339ff61d527f039d5e2376d0c7aa01222f9062f148d9c88fe1ae2b4a2aeef42ac03a551b2f2b76ef5ee219ec19fbd",
      "networkId": 0,
      "chainId": 0
    }
  ]
}