{
  "hash": "0xcd29c4b9036dcedfb5a822a3f5f6ca64e83d9a8a8b0932ac5bf8312b78da5b1b",
  "parentHash": "0xe9d3d4843b358c0d2e0ee6ce8396c290e46821c42fc678dc7b276dacf5d1a661",
  "number": 95731,
  "timestamp": 1439728708,
  "nonce": "0x6194a92e50df9de6",
  "difficulty": 3623224349232,
  "gasLimit": {
    "_hex": "0x2fefd8"
  },
  "gasUsed": {
    "_hex": "0xa410"
  },
  "miner": "0xe6A7a1d47ff21B6321162AEA7C6CB457D5476Bca",
  "extraData": "0x476574682f76312e302e312d38326566323666362f6c696e75782f676f312e34",
  "transactions": [
    {
      "hash": "0x0b3fc7ca9a3a1621e4881aa691b38a826b390abd45d2a2ef5535c988c6bfc481",
      "blockHash": "0xcd29c4b9036dcedfb5a822a3f5f6ca64e83d9a8a8b0932ac5bf8312b78da5b1b",
      "blockNumber": 95731,
      "transactionIndex": 0,
      "confirmations": null,
      "from": "0xfe8635C30D5b0a49D09Fc9480d59e05d7450fd41",
      "gasPrice": {
        "_hex": "0xe048176d6"
      },
      "gasLimit": {
        "_hex": "0x5208"
      },
      "to": "0x32Be343B94f860124dC4fEe278FDCBD38C102D88",
      "value": {
        "_hex": "0x360036a4c625a2000"
      },
      "nonce": 4,
      "data": "0x",
      "r": "0x6402ea33fa523ade8b88cf30a66b9506d431348c7cd74de0d8e9c7135a555b82",
      "s": "0x06b5589569b3984fc8815c9e02115116ad128a37a11a3e5ee4b6b7d7ae1343ab",
      "v": 27,
      "creates": null,
      "raw": "0xf86d04850e048176d68252089432be343b94f860124dc4fee278fdcbd38c102d88890360036a4c625a2000801ba06402ea33fa523ade8b88cf30a66b9506d431348c7cd74de0d8e9c7135a555b82a006b5589569b3984fc8815c9e02115116ad128a37a11a3e5ee4b6b7d7ae1343ab",
      "networkId": 0,
      "chainId": 0
    },
    {
      "hash": "0xd02453626e596dad13f03782fdba15d7075bf39e976c9e08ff14aee347172553",
      "blockHash": "0xcd29c4b9036dcedfb5a822a3f5f6ca64e83d9a8a8b0932ac5bf8312b78da5b1b",
      "blockNumber": 95731,
      "transactionIndex": 1,
      "confirmations": null,
      "from": "0xa5D364A2d05C34Dd34e3163E76554626debAe686",
      "gasPrice": {
        "_hex": "0xe048176d6"
      },
      "gasLimit": {
        "_hex": "0x5208"
      },
      "to": "0x32Be343B94f860124dC4fEe278FDCBD38C102D88",
      "value": {
        "_hex": "0x1708b0f78fae400"
      },
      "nonce": 0,
      "data": "0x",
      "r": "0x46a1b51f4a3af9040657a08a2ad4f1eb73b00ef76daa5688a3fada5e9e5e9c1c",
      "s": "0x7e73d929e53b49c19ac877781a9d2f989613aafc7d7ac37b55811c14a911b2b8",
      "v": 28,
      "creates": null,
      "raw": "0xf86c80850e048176d68252089432be343b94f860124dc4fee278fdcbd38c102d888801708b0f78fae400801ca046a1b51f4a3af9040657a08a2ad4f1eb73b00ef76daa5688a3fada5e9e5e9c1ca07e73d929e53b49c19ac877781a9d2f989613aafc7d7ac37b55811c14a911b2b8",
      "networkId": 0,
      "chainId": 0
    }
  ]
}