{
  "hash": "0xa36101529f00c19e9bb2605e5e5248e3c59d86d203b12d33cc5c35c5d175cca3",
  "parentHash": "0xaa61ed500f99868309ba14b11e3af9c20bc33c99bcbc5323cf5d941be802d1d7",
  "number": 71016,
  "timestamp": 1439329112,
  "nonce": "0x7a3d548309cc655f",
  "difficulty": 2156179475043,
  "gasLimit": {
    "_hex": "0x2fefd8"
  },
  "gasUsed": {
    "_hex": "0x5208"
  },
  "miner": "0xe6A7a1d47ff21B6321162AEA7C6CB457D5476Bca",
  "extraData": "0x476574682f76312e302e312d38326566323666362f6c696e75782f676f312e34",
  "transactions": [
    {
      "hash": "0xff1d5bad45db97c49aad532af9c917fc0170d14431e25bf3e1639dafa2dbb7c3",
      "blockHash": "0xa36101529f00c19e9bb2605e5e5248e3c59d86d203b12d33cc5c35c5d175cca3",
      "blockNumber": 71016,
      "transactionIndex": 0,
      "confirmations": null,
      "from": "0x9e23C5e4B782B00a5FaDF1aEAd87dacf5b0367a1",
      "gasPrice": {
        "_hex": "0xd0dea6ed2"
      },
      "gasLimit": {
        "_hex": "0x15f90"
      },
      "to": "0x597f19B04CEf3204943aB6D8CFd4f4457451222D",
      "value": {
        "_hex": "0x107ad8f556c6c0000"
      },
      "nonce": 0,
      "data": "0x",
      "r": "0xf2bbdb3d7acec49de215194a334c6a7f7eee33db1f89f5ee251423dc2237bd1e",
      "s": "0x053df1873d5f8ed9133df6f7c21a6d1bc688b645232e3514ed58a565cdaf2709",
      "v": 28,
      "creates": null,
      "raw": "0xf86e80850d0dea6ed283015f9094597f19b04cef3204943ab6d8cfd4f4457451222d890107ad8f556c6c0000801ca0f2bbdb3d7acec49de215194a334c6a7f7eee33db1f89f5ee251423dc2237bd1ea0053df1873d5f8ed9133df6f7c21a6d1bc688b645232e3514ed58a565cdaf2709",
      "networkId": 0,
      "chainId": 0
    }
  ]
}