{
  "hash": "0xe9a3327693605ce199a9222bf0e033c3576b01bba17a2fa7cd2123116d9372d2",
  "parentHash": "0xa300cdfbca89b02cf7de6c20ac7d06bc41826380249fbdbcb383a9d2e5800891",
  "number": 100663,
  "timestamp": 1439810097,
  "nonce": "0x1513bed73f93cda3",
  "difficulty": 3835859713775,
  "gasLimit": {
    "_hex": "0x2fefd8"
  },
  "gasUsed": {
    "_hex": "0x5208"
  },
  "miner": "0x88D74a59454F6cF3B51ef6b9136AFb6b9D405A88",
  "extraData": "0x476574682f76312e302e312d38326566323666362f6c696e75782f676f312e34",
  "transactions": [
    {
      "hash": "0x5df32d96f949a2cd544a16ae74e093e60a2c79cdcffc85280e71fe0242e870d9",
      "blockHash": "0xe9a3327693605ce199a9222bf0e033c3576b01bba17a2fa7cd2123116d9372d2",
      "blockNumber": 100663,
      "transactionIndex": 0,
      "confirmations": null,
      "from": "0xEF247E639d49461D25F57e9362CadE3120910Ce0",
      "gasPrice": {
        "_hex": "0xcbbe234e9"
      },
      "gasLimit": {
        "_hex": "0x15f90"
      },
      "to": "0xF87481A262E993a75F791E7859E71BaC36A606Eb",
      "value": {
        "_hex": "0x3bd913e6c1df40000"
      },
      "nonce": 36,
      "data": "0x",
      "r": "0x827feeabd05c873b87fd17c3ff5cc5940dba8fe45614bec7ac7a1c369985416d",
      "s": "0x69d15c2d25dafc40e97df4d9803f54cc8a09c2cd24d93f10c803d22c2224514c",
      "v": 27,
      "creates": null,
      "raw": "0xf86e24850cbbe234e983015f9094f87481a262e993a75f791e7859e71bac36a606eb8903bd913e6c1df40000801ba0827feeabd05c873b87fd17c3ff5cc5940dba8fe45614bec7ac7a1c369985416da069d15c2d25dafc40e97df4d9803f54cc8a09c2cd24d93f10c803d22c2224514c",
      "networkId": 0,
      "chainId": 0
    }
  ]
}