{
  "hash": "0xa4161990152f804367afec73caf4bfecd164ea79c7aa500a7fea6951536b92b8",
  "parentHash": "0x9e733ed01c19d12dbec4095636139e90cbda877fe7f72ad812e6ff7c2d880d29",
  "number": 81953,
  "timestamp": 1439510653,
  "nonce": "0xb23a4d1c7952dbe3",
  "difficulty": 2415195423826,
  "gasLimit": {
    "_hex": "0x2fefd8"
  },
  "gasUsed": {
    "_hex": "0x5208"
  },
  "miner": "0x6BB048244aC4f934163a15b7a472Ce7B48fC9F32",
  "extraData": "0x476574682f76312e302e312d37666266393930632f6c696e75782f676f312e34",
  "transactions": [
    {
      "hash": "0xe8c50dc096bd516876f55ee6d35e2789fcf3b98607bd23845dc7e177834ea00e",
      "blockHash": "0xa4161990152f804367afec73caf4bfecd164ea79c7aa500a7fea6951536b92b8",
      "blockNumber": 81953,
      "transactionIndex": 0,
      "confirmations": null,
      "from": "0x1fb7bd310D95f2A6d9BaAf8a8A430A9A04453A8B",
      "gasPrice": {
        "_hex": "0xd69b48315"
      },
      "gasLimit": {
        "_hex": "0x15f90"
      },
      "to": "0xb5AEf1DE312925438C00d12FCa19C8d8A99e3D1e",
      "value": {
        "_hex": "0xad78ebc5ac6200000"
      },
      "nonce": 3,
      "data": "0x",
      "r": "0xc08317f924ce2e0441d871f807907e8847bce68d73b700f400ec74ac686b3640",
      "s": "0x045df19605f2876d46a5fd2617649b22756f08d2e5630570fb9fcd9d7becc0d0",
      "v": 27,
      "creates": null,
      "raw": "0xf86e03850d69b4831583015f9094b5aef1de312925438c00d12fca19c8d8a99e3d1e890ad78ebc5ac6200000801ba0c08317f924ce2e0441d871f807907e8847bce68d73b700f400ec74ac686b3640a0045df19605f2876d46a5fd2617649b22756f08d2e5630570fb9fcd9d7becc0d0",
      "networkId": 0,
      "chainId": 0
    }
  ]
}