{
  "hash": "0x31b2d9420c16d99ee630c44306e41f000ab73f1d7aa46c48e9df02c87e7b411f",
  "parentHash": "0xab841d2e3fbc3ac363d3a15ed141a98a292b4fa93729ac49ac30d5ebbc1aceb2",
  "number": 83559,
  "timestamp": 1439537324,
  "nonce": "0xa10844e31de553d8",
  "difficulty": 2433672066345,
  "gasLimit": {
    "_hex": "0x2fefd8"
  },
  "gasUsed": {
    "_hex": "0xf87c"
  },
  "miner": "0x2C674A948592B20a4B775E1a3991Db043E6CF0FE",
  "extraData": "0x476574682f76312e302e312d38326566323666362f6c696e75782f676f312e34",
  "transactions": [
    {
      "hash": "0x4c2aea1f6ccda3b339524de4708d4c0e8226848606fb046ea5118a98ef77954c",
      "blockHash": "0x31b2d9420c16d99ee630c44306e41f000ab73f1d7aa46c48e9df02c87e7b411f",
      "blockNumber": 83559,
      "transactionIndex": 0,
      "confirmations": null,
      "from": "0xa6BDc31c431B8F97848c9D60cbbe9660dc450eB7",
      "gasPrice": {
        "_hex": "0xd26ccdfd1"
      },
      "gasLimit": {
        "_hex": "0x5208"
      },
      "to": "0x32Be343B94f860124dC4fEe278FDCBD38C102D88",
      "value": {
        "_hex": "0x455f5aaa8f521000"
      },
      "nonce": 58,
      "data": "0x",
      "r": "0xad543c9841160286e4e60b2e7ab3849e923e44b3a74c647cde17e2909c4b6e16",
      "s": "0x5cca012b2dfe06e36b091fd9a559c0ea18483fe6bf9fab332c8de569310dcdca",
      "v": 27,
      "creates": null,
      "raw": "0xf86c3a850d26ccdfd18252089432be343b94f860124dc4fee278fdcbd38c102d8888455f5aaa8f521000801ba0ad543c9841160286e4e60b2e7ab3849e923e44b3a74c647cde17e2909c4b6e16a05cca012b2dfe06e36b091fd9a559c0ea18483fe6bf9fab332c8de569310dcdca",
      "networkId": 0,
      "chainId": 0
    },
    {
      "hash": "0xe61779340277ec600a6af2082447bea7203748b0a8d27b6bb9e8a21278d9be83",
      "blockHash": "0x31b2d9420c16d99ee630c44306e41f000ab73f1d7aa46c48e9df02c87e7b411f",
      "blockNumber": 83559,
      "transactionIndex": 1,
      "confirmations": null,
      "from": "0x32Be343B94f860124dC4fEe278FDCBD38C102D88",
      "gasPrice": {
        "_hex": "0xd26ccdfd1"
      },
      "gasLimit": {
        "_hex": "0x5208"
      },
      "to": "0x28eE6F795bd9cc6BdACfd43Cad0b53B8566113F5",
      "value": {
        "_hex": "0xb9666a2f34eb58000"
      },
      "nonce": 655,
      "data": "0x",
      "r": "0x77ab52f91bf028a11f8cc9f4463621be56a118a4e91aeb5790154ede379fd75a",
      "s": "0x7ca458000c348fe3e124929874b1ea5d64378f6dbaa1a0522bebada434f5c776",
      "v": 28,
      "creates": null,
      "raw": "0xf86f82028f850d26ccdfd18252089428ee6f795bd9cc6bdacfd43cad0b53b8566113f5890b9666a2f34eb58000801ca077ab52f91bf028a11f8cc9f4463621be56a118a4e91aeb5790154ede379fd75aa07ca458000c348fe3e124929874b1ea5d64378f6dbaa1a0522bebada434f5c776",
      "networkId": 0,
      "chainId": 0
    },
    {
      "hash": "0xb7604101ff6205d2c694e6feabac1d501df3b1eb9500d9ff301a1ae85675930e",
      "blockHash": "0x31b2d9420c16d99ee630c44306e41f000ab73f1d7aa46c48e9df02c87e7b411f",
      "blockNumber": 83559,
      "transactionIndex": 2,
      "confirmations": null,
      "from": "0x157c6f2431eB1a95797EE86F7d17b3c0FD47A247",
      "gasPrice": {
        "_hex": "0xcac673902"
      },
      "gasLimit": {
        "_hex": "0x15f90"
      },
      "to": "0xc0b9d23f8d37650D0141B559dbD33d94Ea004e07",
      "value": {
        "_hex": "0x68155a43676e00000"
      },
      "nonce": 9,
      "data": "0x454e433933464b3330",
      "r": "0x57ba43c26557b9adb4c660b2a5923d8b6b7e574f6400211aad3399578c98ca24",
      "s": "0x6e4530f32962ecdf0360917893ce6e61bbd537839db27584a83167e9e6a0b2e8",
      "v": 27,
      "creates": null,
      "raw": "0xf87709850cac67390283015f9094c0b9d23f8d37650d0141b559dbd33d94ea004e0789068155a43676e0000089454e433933464b33301ba057ba43c26557b9adb4c660b2a5923d8b6b7e574f6400211aad3399578c98ca24a06e4530f32962ecdf0360917893ce6e61bbd537839db27584a83167e9e6a0b2e8",
      "networkId": 0,
      "chainId": 0
    }
  ]
}