{
  "hash": "0xca9144495e1e4d07564e678c1d5575e9de09cd0a1a01d3e8b24e65b8e06a7c7d",
  "parentHash": "0xbde6a6d455ca438152a306c31663a113041181adf8fe02740cc58ff5e775df44",
  "number": 71033,
  "timestamp": 1439329404,
  "nonce": "0x6e94d4ef07b9991c",
  "difficulty": 2155122542458,
  "gasLimit": {
    "_hex": "0x2fefd8"
  },
  "gasUsed": {
    "_hex": "0x100c9"
  },
  "miner": "0xe6A7a1d47ff21B6321162AEA7C6CB457D5476Bca",
  "extraData": "0x476574682f76312e302e312d38326566323666362f6c696e75782f676f312e34",
  "transactions": [
    {
      "hash": "0x63f2e59c115f0b348255f28bc402bf2a694cc373c4bb69adfc1579dd677a7b87",
      "blockHash": "0xca9144495e1e4d07564e678c1d5575e9de09cd0a1a01d3e8b24e65b8e06a7c7d",
      "blockNumber": 71033,
      "transactionIndex": 0,
      "confirmations": null,
      "from": "0xc2E9e042B88164B5408bd895Df7DdaD491c6321E",
      "gasPrice": {
        "_hex": "0xe07173156"
      },
      "gasLimit": {
        "_hex": "0x15f90"
      },
      "to": "0xa114c802ef29776f05f9c6925cE915232e8ae102",
      "value": {
        "_hex": "0x6f05b59d3b200000"
      },
      "nonce": 2,
      "data": "0x",
      "r": "0x6ed5876fd59bae9f00d4debcfb371aeb9073e362c183a235eb70cfeced79bf7b",
      "s": "0x6e133f2f9a3eb932e7d635b1a5505ed2a92a4a0617659bb5d8011c6bb2af6b6d",
      "v": 27,
      "creates": null,
      "raw": "0xf86d02850e0717315683015f9094a114c802ef29776f05f9c6925ce915232e8ae102886f05b59d3b200000801ba06ed5876fd59bae9f00d4debcfb371aeb9073e362c183a235eb70cfeced79bf7ba06e133f2f9a3eb932e7d635b1a5505ed2a92a4a0617659bb5d8011c6bb2af6b6d",
      "networkId": 0,
      "chainId": 0
    },
    {
      "hash": "0xed6c7912f5843b604f053e5c09923eb1dd531661c7ca0b01298a7dd093e46628",
      "blockHash": "0xca9144495e1e4d07564e678c1d5575e9de09cd0a1a01d3e8b24e65b8e06a7c7d",
      "blockNumber": 71033,
      "transactionIndex": 1,
      "confirmations": null,
      "from": "0x17580B766f7453525ca4C6A88b01b50570EA088C",
      "gasPrice": {
        "_hex": "0xd9fb9c60c"
      },
      "gasLimit": {
        "_hex": "0x61a80"
      },
      "to": "0x5Fe5B7546D1628f7348B023A0393de1FC825A4fD",
      "value": {
        "_hex": "0x8ac7230489e80000"
      },
      "nonce": 84,
      "data": "0xb595b8b50000000000000000000000000000000000000000000000000000000000000001",
      "r": "0x07430e0822884c6c0e8ac2fe16c8234df983d180f357d2b838c4cc5798ef3e82",
      "s": "0x36a0a4eef023193dcd82aecc9dac5b9876aa6691d4ad371120047e9aaf16b1d3",
      "v": 28,
      "creates": null,
      "raw": "0xf89154850d9fb9c60c83061a80945fe5b7546d1628f7348b023a0393de1fc825a4fd888ac7230489e80000a4b595b8b500000000000000000000000000000000000000000000000000000000000000011ca007430e0822884c6c0e8ac2fe16c8234df983d180f357d2b838c4cc5798ef3e82a036a0a4eef023193dcd82aecc9dac5b9876aa6691d4ad371120047e9aaf16b1d3",
      "networkId": 0,
      "chainId": 0
    }
  ]
}