{
  "hash": "0xa18f25f20ca8754466196cfd53691d01ef8fb1d370959dafa2541e5442b6a586",
  "parentHash": "0xc01cff0c78f082c5a937bd1c8692d37e58844f424fa8b0054e4bd757221a20ab",
  "number": 73645,
  "timestamp": 1439372449,
  "nonce": "0xc50eab0eaf4474a1",
  "difficulty": 2225013040562,
  "gasLimit": {
    "_hex": "0x2fefd8"
  },
  "gasUsed": {
    "_hex": "0x546c"
  },
  "miner": "0x5B3e850E39e6f2C7dD38707b649e2B3536F14C0b",
  "extraData": "0x476574682f76312e302e312f64617277696e2f676f312e342e32",
  "transactions": [
    {
      "hash": "0x890b389c22b3573aba2c26014988adedf0142509b7a6aa4ff5a940c78d410672",
      "blockHash": "0xa18f25f20ca8754466196cfd53691d01ef8fb1d370959dafa2541e5442b6a586",
      "blockNumber": 73645,
      "transactionIndex": 0,
      "confirmations": null,
      "from": "0xC7E56a369F1e778501Fd748Df1cA2F3f86965ABB",
      "gasPrice": {
        "_hex": "0x106ce997e44"
      },
      "gasLimit": {
        "_hex": "0x55f0"
      },
      "to": "0x2910543Af39abA0Cd09dBb2D50200b3E800A63D2",
      "value": {
        "_hex": "0xde0b6b3a7640000"
      },
      "nonce": 0,
      "data": "0x454e4d554b554a3547",
      "r": "0x316b996ddedecad3776a5f2c568fd8a1cf6029b244285320dce33a543c6dea33",
      "s": "0x390ea06227ecf3887f375c1b2e899b662d0c48320f6a608a63bd2bb98addc7e1",
      "v": 27,
      "creates": null,
      "raw": "0xf87680860106ce997e448255f0942910543af39aba0cd09dbb2d50200b3e800a63d2880de0b6b3a764000089454e4d554b554a35471ba0316b996ddedecad3776a5f2c568fd8a1cf6029b244285320dce33a543c6dea33a0390ea06227ecf3887f375c1b2e899b662d0c48320f6a608a63bd2bb98addc7e1",
      "networkId": 0,
      "chainId": 0
    }
  ]
}