{
  "hash": "0xbbc1e6772b7ea28cdf0177d9ca458a960d0eb56f593c4defdf8ed372df1eebd4",
  "parentHash": "0xa62a64f0c19a795dd621ecec4870476046a0e666747ed7a4f3adce6d27414909",
  "number": 96196,
  "timestamp": 1439736495,
  "nonce": "0xf365db9b33e6d403",
  "difficulty": 3660364777164,
  "gasLimit": {
    "_hex": "0x2fefd8"
  },
  "gasUsed": {
    "_hex": "0x5208"
  },
  "miner": "0x790b8a3cE86E707ED0eD32bF89B3269692a23CC1",
  "extraData": "0xd783010001844765746887676f312e342e32856c696e7578",
  "transactions": [
    {
      "hash": "0x81559cc2fe8966d8ec2c6fac7fc037b7f61f467e9d4f133ae97f460c457d8f0c",
      "blockHash": "0xbbc1e6772b7ea28cdf0177d9ca458a960d0eb56f593c4defdf8ed372df1eebd4",
      "blockNumber": 96196,
      "transactionIndex": 0,
      "confirmations": null,
      "from": "0x99f77F998B20e0BCDcd9fc838641526Cf25918eF",
      "gasPrice": {
        "_hex": "0xd3e0dd636"
      },
      "gasLimit": {
        "_hex": "0x5208"
      },
      "to": "0xa5D364A2d05C34Dd34e3163E76554626debAe686",
      "value": {
        "_hex": "0x16345785d8a0000"
      },
      "nonce": 0,
      "data": "0x",
      "r": "0xf43afbdcdbf272100acaa36c75bfad06a550f9774081c501d6156941f98cb459",
      "s": "0x28d8de7f3f030d3d966900193461f180e80f71c5413a8fd817bb9b86221ad9b6",
      "v": 27,
      "creates": null,
      "raw": "0xf86c80850d3e0dd63682520894a5d364a2d05c34dd34e3163e76554626debae68688016345785d8a0000801ba0f43afbdcdbf272100acaa36c75bfad06a550f9774081c501d6156941f98cb459a028d8de7f3f030d3d966900193461f180e80f71c5413a8fd817bb9b86221ad9b6",
      "networkId": 0,
      "chainId": 0
    }
  ]
}