{
  "hash": "0xb13e5f7be201aad6d9ef10273707458bfbfda6bc21234d66c5ca19682b247ebb",
  "parentHash": "0x90a4e7b8712be6f46c885250adb5ed2f073eae49a207909ae9b86a4b184fd450",
  "number": 49073,
  "timestamp": 1438967490,
  "nonce": "0x1f8836f63c19b2fc",
  "difficulty": 1482177466543,
  "gasLimit": {
    "_hex": "0x253b3"
  },
  "gasUsed": {
    "_hex": "0x5208"
  },
  "miner": "0xe9A411144a689aa2137b0EfE7B6273491E636D8C",
  "extraData": "0x476574682f76312e302e312f6c696e75782f676f312e342e32",
  "transactions": [
    {
      "hash": "0x898c750fc70c33bb35f74a46aabadd6e6cc0a37ee8d5a696ec044bc50e326150",
      "blockHash": "0xb13e5f7be201aad6d9ef10273707458bfbfda6bc21234d66c5ca19682b247ebb",
      "blockNumber": 49073,
      "transactionIndex": 0,
      "confirmations": null,
      "from": "0xcEB089ec8A78337E8eF88dE11b49e3DD910f748F",
      "gasPrice": {
        "_hex": "0xd13c6fb4f"
      },
      "gasLimit": {
        "_hex": "0x15f90"
      },
      "to": "0xD397044FD43217C1E37c5c0Fb909608f5466b36c",
      "value": {
        "_hex": "0x1b0cffc3fac3628460"
      },
      "nonce": 1,
      "data": "0x",
      "r": "0x1a911a3579f1a155f70402c2de41a4893ad6a39e4957090ba0ded5cc2d16f72d",
      "s": "0x26c776e02a49357de9dccb2a9a3df5c636bf85da121983eb5387ba7903cdbc79",
      "v": 28,
      "creates": null,
      "raw": "0xf86e01850d13c6fb4f83015f9094d397044fd43217c1e37c5c0fb909608f5466b36c891b0cffc3fac3628460801ca01a911a3579f1a155f70402c2de41a4893ad6a39e4957090ba0ded5cc2d16f72da026c776e02a49357de9dccb2a9a3df5c636bf85da121983eb5387ba7903cdbc79",
      "networkId": 0,
      "chainId": 0
    }
  ]
}