{
  "hash": "0x18b987637db15a26514d43f93d9e99dd66d68115c26af716827065f17bd607c3",
  "parentHash": "0x1622fb186d47100210ff004d7e9e41a2244bc7a5a4a857cc835e435dc358ef08",
  "number": 85247,
  "timestamp": 1439560573,
  "nonce": "0x8ba38750a10ee09e",
  "difficulty": 2754465676991,
  "gasLimit": {
    "_hex": "0x2fefd8"
  },
  "gasUsed": {
    "_hex": "0x5208"
  },
  "miner": "0xe6A7a1d47ff21B6321162AEA7C6CB457D5476Bca",
  "extraData": "0x476574682f76312e302e312d38326566323666362f6c696e75782f676f312e34",
  "transactions": [
    {
      "hash": "0x1ff6efb010cd41b10b87a17385a02396f7ba9c8f22544b47d7433c32c3c30537",
      "blockHash": "0x18b987637db15a26514d43f93d9e99dd66d68115c26af716827065f17bd607c3",
      "blockNumber": 85247,
      "transactionIndex": 0,
      "confirmations": null,
      "from": "0x32Be343B94f860124dC4fEe278FDCBD38C102D88",
      "gasPrice": {
        "_hex": "0xdbafff32f"
      },
      "gasLimit": {
        "_hex": "0x5208"
      },
      "to": "0xee04bfEDEa5A989165311fe3d04136ce8841208f",
      "value": {
        "_hex": "0x6277ac8aa25d64000"
      },
      "nonce": 728,
      "data": "0x",
      "r": "0xf3a50c9ebcf99972bec58e77abc4fc032fed77043c130400597d4d3ccdd8ec9a",
      "s": "0x06620cc279db85e844e2383a75a204315f8f0375522a1561a50a6d6cc132a820",
      "v": 28,
      "creates": null,
      "raw": "0xf86f8202d8850dbafff32f82520894ee04bfedea5a989165311fe3d04136ce8841208f8906277ac8aa25d64000801ca0f3a50c9ebcf99972bec58e77abc4fc032fed77043c130400597d4d3ccdd8ec9aa006620cc279db85e844e2383a75a204315f8f0375522a1561a50a6d6cc132a820",
      "networkId": 0,
      "chainId": 0
    }
  ]
}