{
  "hash": "0x65c6c76526bb420bcffb77630174d416dd66b9da6e627fc09b67a1ae9125d709",
  "parentHash": "0x5621fc99fa81e83321a5b34bd675ff1a8f8c36271cd5c8ec3a97714ed3d3f6da",
  "number": 60322,
  "timestamp": 1439153451,
  "nonce": "0xdc9b68e3b1a4440b",
  "difficulty": 1748354747893,
  "gasLimit": {
    "_hex": "0x2fefd8"
  },
  "gasUsed": {
    "_hex": "0x5208"
  },
  "miner": "0xBb12b5a9B85D4AB8CDE6056E9c1b2a4a337D2261",
  "extraData": "0x476574682f76312e302e312d36393865393864392f6c696e75782f676f312e34",
  "transactions": [
    {
      "hash": "0x8470cbfd2ecd7a16148adb8901257a2b76d4d8d5e85824e0c36332b5a5ec3187",
      "blockHash": "0x65c6c76526bb420bcffb77630174d416dd66b9da6e627fc09b67a1ae9125d709",
      "blockNumber": 60322,
      "transactionIndex": 0,
      "confirmations": null,
      "from": "0x2910543Af39abA0Cd09dBb2D50200b3E800A63D2",
      "gasPrice": {
        "_hex": "0xd868cd1c6"
      },
      "gasLimit": {
        "_hex": "0x5208"
      },
      "to": "0xfCf927eb31d037c2d6eC70e2D4b5211A64aD4a72",
      "value": {
        "_hex": "0xdcef33a6f838000"
      },
      "nonce": 29,
      "data": "0x",
      "r": "0xef3b6efa32cdc3beaf31bdf448f6f34a9a743d7753ca57d5c7d77c22e4d64f4e",
      "s": "0x191a95e99b78d554b3a0a1d94f6c926fad2d4b304363f31dd345093ffa4ebb34",
      "v": 28,
      "creates": null,
      "raw": "0xf86c1d850d868cd1c682520894fcf927eb31d037c2d6ec70e2d4b5211a64ad4a72880dcef33a6f838000801ca0ef3b6efa32cdc3beaf31bdf448f6f34a9a743d7753ca57d5c7d77c22e4d64f4ea0191a95e99b78d554b3a0a1d94f6c926fad2d4b304363f31dd345093ffa4ebb34",
      "networkId": 0,
      "chainId": 0
    }
  ]
}