{
  "hash": "0x75a7a422ee7c5acfb31066ba07d9a7c0e04b5afce3b5fc19cf58c9b2f7bffa87",
  "parentHash": "0x1d7b64b19b56caadb4ca995ed91fbf2096b7196510835464467b92ac539a58a8",
  "number": 103426,
  "timestamp": 1439853204,
  "nonce": "0x8b37e22279cf5505",
  "difficulty": 4172589694956,
  "gasLimit": {
    "_hex": "0x2fefd8"
  },
  "gasUsed": {
    "_hex": "0xa410"
  },
  "miner": "0xe6A7a1d47ff21B6321162AEA7C6CB457D5476Bca",
  "extraData": "0x476574682f76312e302e312d38326566323666362f6c696e75782f676f312e34",
  "transactions": [
    {
      "hash": "0x4fbb663c9bdec35677a95758b824f5cb13d5dbf142a35659981a76ea38c3e1a3",
      "blockHash": "0x75a7a422ee7c5acfb31066ba07d9a7c0e04b5afce3b5fc19cf58c9b2f7bffa87",
      "blockNumber": 103426,
      "transactionIndex": 0,
      "confirmations": null,
      "from": "0xa70a9a7040d542C632D8e0bE7c5513A8a5Bbc752",
      "gasPrice": {
        "_hex": "0xd181964eb"
      },
      "gasLimit": {
        "_hex": "0x5208"
      },
      "to": "0x32Be343B94f860124dC4fEe278FDCBD38C102D88",
      "value": {
        "_hex": "0x8ac2f0e2e4556800"
      },
      "nonce": 228,
      "data": "0x",
      "r": "0xf7847430334a8d3a18208c5c9587a187ac798b62cd563960235bd93c5bad745c",
      "s": "0x07c82e03ceb335f1d47178508f0c14600327534e3165c59e4aaff2874cc806fd",
      "v": 28,
      "creates": null,
      "raw": "0xf86d81e4850d181964eb8252089432be343b94f860124dc4fee278fdcbd38c102d88888ac2f0e2e4556800801ca0f7847430334a8d3a18208c5c9587a187ac798b62cd563960235bd93c5bad745ca007c82e03ceb335f1d47178508f0c14600327534e3165c59e4aaff2874cc806fd",
      "networkId": 0,
      "chainId": 0
    },
    {
      "hash": "0xcca71d42b62f9507edeafc53ac3db3ddad81c9cae85550e91707fc36a5fd02a2",
      "blockHash": "0x75a7a422ee7c5acfb31066ba07d9a7c0e04b5afce3b5fc19cf58c9b2f7bffa87",
      "blockNumber": 103426,
      "transactionIndex": 1,
      "confirmations": null,
      "from": "0xe8979Ed3e00D68d395fA3E3cfe40FF67402C402a",
      "gasPrice": {
        "_hex": "0xd181964eb"
      },
      "gasLimit": {
        "_hex": "0x5208"
      },
      "to": "0x32Be343B94f860124dC4fEe278FDCBD38C102D88",
      "value": {
        "_hex": "0x28c3d58da15c96000"
      },
      "nonce": 0,
      "data": "0x",
      "r": "0x9c5cbc353c60e88b15c2a38f23ef139f68074f4afa9c991b496d02c03d1decc8",
      "s": "0x32a9453b40ab8ff8d4adad8692b6b225e29a494913695a26a6bc408d3ec7d55c",
      "v": 28,
      "creates": null,
      "raw": "0xf86d80850d181964eb8252089432be343b94f860124dc4fee278fdcbd38c102d8889028c3d58da15c96000801ca09c5cbc353c60e88b15c2a38f23ef139f68074f4afa9c991b496d02c03d1decc8a032a9453b40ab8ff8d4adad8692b6b225e29a494913695a26a6bc408d3ec7d55c",
      "networkId": 0,
      "chainId": 0
    }
  ]
}