{
  "hash": "0x11677191824289319438fded7c9dc195cd46a0675534b33e3fdaa51726431a75",
  "parentHash": "0x5b8ee501faa07c4ef3ae8246fef087370f9e647e6dd35a818a477659ca90414b",
  "number": 79285,
  "timestamp": 1439467199,
  "nonce": "0xaad0b7ad6b748b53",
  "difficulty": 2330226422140,
  "gasLimit": {
    "_hex": "0x2fefd8"
  },
  "gasUsed": {
    "_hex": "0x8768"
  },
  "miner": "0xe6A7a1d47ff21B6321162AEA7C6CB457D5476Bca",
  "extraData": "0x476574682f76312e302e312d38326566323666362f6c696e75782f676f312e34",
  "transactions": [
    {
      "hash": "0x585f0a68c5a2a975ca9c3efc87800fa9eb60e90220b91355642c0bb972779df1",
      "blockHash": "0x11677191824289319438fded7c9dc195cd46a0675534b33e3fdaa51726431a75",
      "blockNumber": 79285,
      "transactionIndex": 0,
      "confirmations": null,
      "from": "0x008FC7CBAdFFbD0D7fe44F8DFD60a79d721a1c9C",
      "gasPrice": {
        "_hex": "0xe23401a63"
      },
      "gasLimit": {
        "_hex": "0x15f90"
      },
      "to": "0xbedd8FF329DCdde43744C467724a4b4778c2C4A3",
      "value": {
        "_hex": "0x0"
      },
      "nonce": 35,
      "data": "0x32983c9e",
      "r": "0xf8271b7cb664224ac6c0b216de809a69e01670cd94275215f5f04559736ebec2",
      "s": "0x4893cfdd88e7bb20c6632b05f76c0bb64abbce113619cd0a594c6ef0218f6812",
      "v": 28,
      "creates": null,
      "raw": "0xf86923850e23401a6383015f9094bedd8ff329dcdde43744c467724a4b4778c2c4a3808432983c9e1ca0f8271b7cb664224ac6c0b216de809a69e01670cd94275215f5f04559736ebec2a04893cfdd88e7bb20c6632b05f76c0bb64abbce113619cd0a594c6ef0218f6812",
      "networkId": 0,
      "chainId": 0
    }
  ]
}