{
  "hash": "0xb3a9bdfa336d0894480e2b2436f499530d6fd809f6271d71e2f8d437435070ee",
  "parentHash": "0x8555759d6736817ae8bbe42729977edef9910ee42d9a9228d3fad8163d0f7f45",
  "number": 93782,
  "timestamp": 1439697601,
  "nonce": "0xf7607a6a299ca5f6",
  "difficulty": 3436226810814,
  "gasLimit": {
    "_hex": "0x2fefd8"
  },
  "gasUsed": {
    "_hex": "0x5208"
  },
  "miner": "0x790b8a3cE86E707ED0eD32bF89B3269692a23CC1",
  "extraData": "0xd783010001844765746887676f312e342e32856c696e7578",
  "transactions": [
    {
      "hash": "0x7ef60404c58f4e9c982f2eeea8c184c5fc534fe8305548b9dbfada7dd6826fef",
      "blockHash": "0xb3a9bdfa336d0894480e2b2436f499530d6fd809f6271d71e2f8d437435070ee",
      "blockNumber": 93782,
      "transactionIndex": 0,
      "confirmations": null,
      "from": "0x6d921977dEFE5f4e0682CA512De1D07b1f4802E1",
      "gasPrice": {
        "_hex": "0xdd31e05ec"
      },
      "gasLimit": {
        "_hex": "0x5208"
      },
      "to": "0x32Be343B94f860124dC4fEe278FDCBD38C102D88",
      "value": {
        "_hex": "0x11589cd0dec697000"
      },
      "nonce": 18,
      "data": "0x",
      "r": "0x22dfc6db520c88684eec3f8df124eaa1146dc36a2f6bd18ad8a5162abbc6e128",
      "s": "0x1a72a22816ee0ced031f9935b68f6da68f728f0c68515d786ffd5a8364e36d95",
      "v": 28,
      "creates": null,
      "raw": "0xf86d12850dd31e05ec8252089432be343b94f860124dc4fee278fdcbd38c102d8889011589cd0dec697000801ca022dfc6db520c88684eec3f8df124eaa1146dc36a2f6bd18ad8a5162abbc6e128a01a72a22816ee0ced031f9935b68f6da68f728f0c68515d786ffd5a8364e36d95",
      "networkId": 0,
      "chainId": 0
    }
  ]
}