{
  "hash": "0xf9304a2f756a477a0da2d62b58c09334193136533150ff73ce8aa8f8f5c04d9b",
  "parentHash": "0x40b5e3c88f49a17defaa0a232035629487a0fd65e258c95a97a40474d08aee30",
  "number": 101367,
  "timestamp": 1439821978,
  "nonce": "0x732b01112176a45a",
  "difficulty": 3813129665914,
  "gasLimit": {
    "_hex": "0x2fefd8"
  },
  "gasUsed": {
    "_hex": "0x5ed2"
  },
  "miner": "0xe6A7a1d47ff21B6321162AEA7C6CB457D5476Bca",
  "extraData": "0x476574682f76312e302e312d38326566323666362f6c696e75782f676f312e34",
  "transactions": [
    {
      "hash": "0xceedb95984205aa6ccf9d9bd5f591f4b872913fcb280de054f035deaaf736e39",
      "blockHash": "0xf9304a2f756a477a0da2d62b58c09334193136533150ff73ce8aa8f8f5c04d9b",
      "blockNumber": 101367,
      "transactionIndex": 0,
      "confirmations": null,
      "from": "0x775e18be7A50a0Abb8A4e82B1bD697D79F31fE04",
      "gasPrice": {
        "_hex": "0xdebc26caf"
      },
      "gasLimit": {
        "_hex": "0xf4240"
      },
      "to": "0xde0B295669a9FD93d5F28D9Ec85E40f4cb697BAe",
      "value": {
        "_hex": "0x0"
      },
      "nonce": 10,
      "data": "0x797af6272153b9b2b56bb29c21cf47fe64fd2abdd7171b14cca48560f6f6cf294a1a5c52",
      "r": "0xbd21f83897a7f7a603112fd8b4ddfe8b5bf1f386d43118a86d18521607f1ba19",
      "s": "0x6959a7632f9e918e182d7dc707a19bf5ced9d098f4ac52d037f880bd2aac0788",
      "v": 28,
      "creates": null,
      "raw": "0xf8890a850debc26caf830f424094de0b295669a9fd93d5f28d9ec85e40f4cb697bae80a4797af6272153b9b2b56bb29c21cf47fe64fd2abdd7171b14cca48560f6f6cf294a1a5c521ca0bd21f83897a7f7a603112fd8b4ddfe8b5bf1f386d43118a86d18521607f1ba19a06959a7632f9e918e182d7dc707a19bf5ced9d098f4ac52d037f880bd2aac0788",
      "networkId": 0,
      "chainId": 0
    }
  ]
}