{
  "hash": "0x74040e6b57d9b06817ac59e9f0f9882c90efe25ef1b976f7a739a9a83e027a58",
  "parentHash": "0xfad995edd5212d92328dfa429088cb2b96c2f4ca16a57ab4d2921cfb5a4d0fa0",
  "number": 73690,
  "timestamp": 1439373166,
  "nonce": "0x162a4da3be24399e",
  "difficulty": 2230439873147,
  "gasLimit": {
    "_hex": "0x2fefd8"
  },
  "gasUsed": {
    "_hex": "0x5208"
  },
  "miner": "0x0eDEd3DA479d0beF8eeC92A76644D3f4E3C177f7",
  "extraData": "0x476574682f76312e302e312f6c696e75782f676f312e342e32",
  "transactions": [
    {
      "hash": "0xbcba19bb784b07b07e3d4cc63e81592903a7f300ed552f15f31f9e07ce2f11f1",
      "blockHash": "0x74040e6b57d9b06817ac59e9f0f9882c90efe25ef1b976f7a739a9a83e027a58",
      "blockNumber": 73690,
      "transactionIndex": 0,
      "confirmations": null,
      "from": "0xf06D9Ad3b665226845A219eDaD87696fcE2Fb88E",
      "gasPrice": {
        "_hex": "0x45d964b800"
      },
      "gasLimit": {
        "_hex": "0x5208"
      },
      "to": "0xD1F647c106B7C9ed6Fdb157979744C4Acf521A40",
      "value": {
        "_hex": "0x5a34a38fc00a0000"
      },
      "nonce": 5,
      "data": "0x",
      "r": "0x03eeabfbc5ebfa4565fa8dfdbaf933244d4b937ee4f5b3bf2bd4a8669a0be0f4",
      "s": "0x3cad3817c7e266d73ab2a02cc9da46913720e838b3b496363b71d47e7b2bdc56",
      "v": 28,
      "creates": null,
      "raw": "0xf86c058545d964b80082520894d1f647c106b7c9ed6fdb157979744c4acf521a40885a34a38fc00a0000801ca003eeabfbc5ebfa4565fa8dfdbaf933244d4b937ee4f5b3bf2bd4a8669a0be0f4a03cad3817c7e266d73ab2a02cc9da46913720e838b3b496363b71d47e7b2bdc56",
      "networkId": 0,
      "chainId": 0
    }
  ]
}