{
  "hash": "0xcc256ff4d13a36992b7af0888c4d20ecedf18c07e90b287560465dd51ab632d1",
  "parentHash": "0x1cdd03b2e7472693665984d8144ec85a69846c06d47636f4b476f5206ed0516b",
  "number": 83732,
  "timestamp": 1439540021,
  "nonce": "0xc51e5e3d57d58c5d",
  "difficulty": 2434810458922,
  "gasLimit": {
    "_hex": "0x2fefd8"
  },
  "gasUsed": {
    "_hex": "0xa674"
  },
  "miner": "0x6BB048244aC4f934163a15b7a472Ce7B48fC9F32",
  "extraData": "0x476574682f76312e302e312d37666266393930632f6c696e75782f676f312e34",
  "transactions": [
    {
      "hash": "0x5daeb1e7782e556ee8026f118e3fbde1141c258306ab5088b07a9e0216ca57eb",
      "blockHash": "0xcc256ff4d13a36992b7af0888c4d20ecedf18c07e90b287560465dd51ab632d1",
      "blockNumber": 83732,
      "transactionIndex": 0,
      "confirmations": null,
      "from": "0x9c80bc18E9f8d4968B185Da8c79fA6e11ffc3e23",
      "gasPrice": {
        "_hex": "0x110c8f7d8de"
      },
      "gasLimit": {
        "_hex": "0xc350"
      },
      "to": "0x2910543Af39abA0Cd09dBb2D50200b3E800A63D2",
      "value": {
        "_hex": "0xcfbbaed131a0e0000"
      },
      "nonce": 0,
      "data": "0x454e4e56514d373947",
      "r": "0xc2d93336fd99008aa833c67d419939254ff13d11028d69beee1f45afbc096c0d",
      "s": "0x782f81865d43cec22cd984eed6eae4a0cd85a48def8a69fa5edc538365fb6883",
      "v": 27,
      "creates": null,
      "raw": "0xf87780860110c8f7d8de82c350942910543af39aba0cd09dbb2d50200b3e800a63d2890cfbbaed131a0e000089454e4e56514d3739471ba0c2d93336fd99008aa833c67d419939254ff13d11028d69beee1f45afbc096c0da0782f81865d43cec22cd984eed6eae4a0cd85a48def8a69fa5edc538365fb6883",
      "networkId": 0,
      "chainId": 0
    },
    {
      "hash": "0x59ef8a12527810656c1e66a835aea1c5fcd2110bacb3dbaa37ad167d963de74a",
      "blockHash": "0xcc256ff4d13a36992b7af0888c4d20ecedf18c07e90b287560465dd51ab632d1",
      "blockNumber": 83732,
      "transactionIndex": 1,
      "confirmations": null,
      "from": "0x120A270bbC009644e35F0bB6ab13f95b8199c4ad",
      "gasPrice": {
        "_hex": "0xde8efc978"
      },
      "gasLimit": {
        "_hex": "0x3d090"
      },
      "to": "0x42cD38c5A02759A2881756e81A3f91122b51e1B7",
      "value": {
        "_hex": "0x1e3681d942464000"
      },
      "nonce": 415,
      "data": "0x",
      "r": "0xf688d760aecf91181bc1eb37d4d32e39d919dbc5cbe370096b0a5a28584931ce",
      "s": "0x54fe065917e5167658f1beacc786555716ceb6ecd557b63995409f6659d460ee",
      "v": 28,
      "creates": null,
      "raw": "0xf86f82019f850de8efc9788303d0909442cd38c5a02759a2881756e81a3f91122b51e1b7881e3681d942464000801ca0f688d760aecf91181bc1eb37d4d32e39d919dbc5cbe370096b0a5a28584931cea054fe065917e5167658f1beacc786555716ceb6ecd557b63995409f6659d460ee",
      "networkId": 0,
      "chainId": 0
    }
  ]
}