{
  "hash": "0x27ed89dd9819637e1d6b7cd2546c899902507746429803af8008e18e40522d6e",
  "parentHash": "0x5c3cd5f49d91b403211cf3ebbe383d0b55141beaca134eb3bd74cb583edeeb39",
  "number": 100084,
  "timestamp": 1439800305,
  "nonce": "0x7b17328d5c3c858a",
  "difficulty": 3849258670318,
  "gasLimit": {
    "_hex": "0x2fefd8"
  },
  "gasUsed": {
    "_hex": "0x19a28"
  },
  "miner": "0xe6A7a1d47ff21B6321162AEA7C6CB457D5476Bca",
  "extraData": "0x476574682f76312e302e312d38326566323666362f6c696e75782f676f312e34",
  "transactions": [
    {
      "hash": "0x1015580183242b318a5586155efa5890b4fdfffa4b622957a9ccdd03a108b80c",
      "blockHash": "0x27ed89dd9819637e1d6b7cd2546c899902507746429803af8008e18e40522d6e",
      "blockNumber": 100084,
      "transactionIndex": 0,
      "confirmations": null,
      "from": "0xe6A7a1d47ff21B6321162AEA7C6CB457D5476Bca",
      "gasPrice": {
        "_hex": "0xe33e07c37"
      },
      "gasLimit": {
        "_hex": "0x55f0"
      },
      "to": "0xA1A13F48D504123E1d50e360267F894e8e43838c",
      "value": {
        "_hex": "0x22dc9e6e62d3421c"
      },
      "nonce": 3548,
      "data": "0x",
      "r": "0x3ca044657e7eab988ccf36a3dd7206e3c4dcf709761548eac06cd99a337afa95",
      "s": "0x46970c5dd7aeb1202593d488e89a4963b709b64e13a0a5dbf30f79473d692d30",
      "v": 28,
      "creates": null,
      "raw": "0xf86e820ddc850e33e07c378255f094a1a13f48d504123e1d50e360267f894e8e43838c8822dc9e6e62d3421c801ca03ca044657e7eab988ccf36a3dd7206e3c4dcf709761548eac06cd99a337afa95a046970c5dd7aeb1202593d488e89a4963b709b64e13a0a5dbf30f79473d692d30",
      "networkId": 0,
      "chainId": 0
    },
    {
      "hash": "0x200ab4332489cf769e0bf9e5aae09ded75d0baa5278e7ce57b7b5d0a073e8248",
      "blockHash": "0x27ed89dd9819637e1d6b7cd2546c899902507746429803af8008e18e40522d6e",
      "blockNumber": 100084,
      "transactionIndex": 1,
      "confirmations": null,
      "from": "0xe6A7a1d47ff21B6321162AEA7C6CB457D5476Bca",
      "gasPrice": {
        "_hex": "0xe33e07c37"
      },
      "gasLimit": {
        "_hex": "0x55f0"
      },
      "to": "0x99DD8707E14E7A8D702b2700f6e8072DF8ee91D7",
      "value": {
        "_hex": "0x4dcef364e33eff50"
      },
      "nonce": 3549,
      "data": "0x",
      "r": "0xd4dddf3f5eba5dd55c7a672e9d8b566636a576ed79b629336207b18845201243",
      "s": "0x15caf9d3f6496aed531e6d314127dd83a603a83d0bf3ed567fc2c07823159d58",
      "v": 28,
      "creates": null,
      "raw": "0xf86e820ddd850e33e07c378255f09499dd8707e14e7a8d702b2700f6e8072df8ee91d7884dcef364e33eff50801ca0d4dddf3f5eba5dd55c7a672e9d8b566636a576ed79b629336207b18845201243a015caf9d3f6496aed531e6d314127dd83a603a83d0bf3ed567fc2c07823159d58",
      "networkId": 0,
      "chainId": 0
    },
    {
      "hash": "0xa07e6c84e3ceea55027cef92b0b6ab3437ac5715acc96cb3a3a5fe9a37c48405",
      "blockHash": "0x27ed89dd9819637e1d6b7cd2546c899902507746429803af8008e18e40522d6e",
      "blockNumber": 100084,
      "transactionIndex": 2,
      "confirmations": null,
      "from": "0xe6A7a1d47ff21B6321162AEA7C6CB457D5476Bca",
      "gasPrice": {
        "_hex": "0xe33e07c37"
      },
      "gasLimit": {
        "_hex": "0x55f0"
      },
      "to": "0x211D45933Ef88c3D7aD0120942CF50ab506e618F",
      "value": {
        "_hex": "0x91cb5bd325f0efe0"
      },
      "nonce": 3550,
      "data": "0x",
      "r": "0xaaaa6484fe8b18438206c664e70c76d264b09f710e832dce09c46a8a0b57ab28",
      "s": "0x1fabc7da1cc255f3198365fef1d33c511526af7239cca67352890aab68916519",
      "v": 27,
      "creates": null,
      "raw": "0xf86e820dde850e33e07c378255f094211d45933ef88c3d7ad0120942cf50ab506e618f8891cb5bd325f0efe0801ba0aaaa6484fe8b18438206c664e70c76d264b09f710e832dce09c46a8a0b57ab28a01fabc7da1cc255f3198365fef1d33c511526af7239cca67352890aab68916519",
      "networkId": 0,
      "chainId": 0
    },
    {
      "hash": "0xd09b15c53bf46db7c20bbcff2523a4356db0e31603fc5bf61f9fd7d5a3127723",
      "blockHash": "0x27ed89dd9819637e1d6b7cd2546c899902507746429803af8008e18e40522d6e",
      "blockNumber": 100084,
      "transactionIndex": 3,
      "confirmations": null,
      "from": "0xe6A7a1d47ff21B6321162AEA7C6CB457D5476Bca",
      "gasPrice": {
        "_hex": "0xe33e07c37"
      },
      "gasLimit": {
        "_hex": "0x55f0"
      },
      "to": "0x9Fa88512e871481291d0416CEFf5B3764f840aED",
      "value": {
        "_hex": "0xe07bbe81782b7950"
      },
      "nonce": 3551,
      "data": "0x",
      "r": "0xb4b103f5208ee44c8a7f794d47fc641fdad55ec10d7e50aead8a944d2d587698",
      "s": "0x38f36025201d101dc3411f7b5e6a162bd1b99fb98c5d2f16aedb17dcad2f50ab",
      "v": 27,
      "creates": null,
      "raw": "0xf86e820ddf850e33e07c378255f0949fa88512e871481291d0416ceff5b3764f840aed88e07bbe81782b7950801ba0b4b103f5208ee44c8a7f794d47fc641fdad55ec10d7e50aead8a944d2d587698a038f36025201d101dc3411f7b5e6a162bd1b99fb98c5d2f16aedb17dcad2f50ab",
      "networkId": 0,
      "chainId": 0
    },
    {
      "hash": "0x036b4fa52471759b1d04961a87ae619401dfeb8ef63d349ddf0552943af3f597",
      "blockHash": "0x27ed89dd9819637e1d6b7cd2546c899902507746429803af8008e18e40522d6e",
      "blockNumber": 100084,
      "transactionIndex": 4,
      "confirmations": null,
      "from": "0xbAeF66124E137Eb5eE0DE1BbAB5a30002508a1bf",
      "gasPrice": {
        "_hex": "0xd4e53779b"
      },
      "gasLimit": {
        "_hex": "0x15f90"
      },
      "to": "0xAF17A4ab5d6B10055Fc1eB1BFaCcbDe69B83aF76",
      "value": {
        "_hex": "0x3d952abd36cbc0000"
      },
      "nonce": 3,
      "data": "0x",
      "r": "0xb414e7a6f96ea733c88eafe6166dc9ff3a88d1ab3d7da328b0e7a1b6b379cd52",
      "s": "0x690c9e6eb36c9182693b0b070d59d8f60b55877d4d2d7569729f8b4b39a16caa",
      "v": 28,
      "creates": null,
      "raw": "0xf86e03850d4e53779b83015f9094af17a4ab5d6b10055fc1eb1bfaccbde69b83af768903d952abd36cbc0000801ca0b414e7a6f96ea733c88eafe6166dc9ff3a88d1ab3d7da328b0e7a1b6b379cd52a0690c9e6eb36c9182693b0b070d59d8f60b55877d4d2d7569729f8b4b39a16caa",
      "networkId": 0,
      "chainId": 0
    }
  ]
}