{
  "hash": "0xa3a5975fbafe57a0d981023a30a20ba9ccc1f732ae9e4177f7f5141b48961a60",
  "parentHash": "0xe50828aab80864cfe193e2d7c4d71a49bdba58a979b7d134e82764caf6f6ca7d",
  "number": 75251,
  "timestamp": 1439400126,
  "nonce": "0xc58ba58601b576a3",
  "difficulty": 2196523784825,
  "gasLimit": {
    "_hex": "0x2fefd8"
  },
  "gasUsed": {
    "_hex": "0xad77"
  },
  "miner": "0xe6A7a1d47ff21B6321162AEA7C6CB457D5476Bca",
  "extraData": "0x476574682f76312e302e312d38326566323666362f6c696e75782f676f312e34",
  "transactions": [
    {
      "hash": "0x2bc0aeb6dba95e133819fae0761c953428d2c75760dbe1df2167e92e65b95252",
      "blockHash": "0xa3a5975fbafe57a0d981023a30a20ba9ccc1f732ae9e4177f7f5141b48961a60",
      "blockNumber": 75251,
      "transactionIndex": 0,
      "confirmations": null,
      "from": "0x87C5B5874A18B4306DF8a752a6C8cc3E82daFc19",
      "gasPrice": {
        "_hex": "0xfe0b97a8d5"
      },
      "gasLimit": {
        "_hex": "0x493e0"
      },
      "to": "0xD79B4C6791784184e2755B2fC1659eaaB0f80456",
      "value": {
        "_hex": "0x0"
      },
      "nonce": 38,
      "data": "0x03750d94000000000000000000000000326be8f71bfb0379f989aab1cc1fe37f0a771f606335616361363732336238636534353200000000000000000000000000000000",
      "r": "0x4dc99dcbf1c152e53762025825661a2a920410eaa92057f8750c339146c9faf2",
      "s": "0x5c86c102b90fa639612bd41a14f3b9233d0c0dff0873d8c7c361e8e688278495",
      "v": 27,
      "creates": null,
      "raw": "0xf8aa2685fe0b97a8d5830493e094d79b4c6791784184e2755b2fc1659eaab0f8045680b84403750d94000000000000000000000000326be8f71bfb0379f989aab1cc1fe37f0a771f6063356163613637323362386365343532000000000000000000000000000000001ba04dc99dcbf1c152e53762025825661a2a920410eaa92057f8750c339146c9faf2a05c86c102b90fa639612bd41a14f3b9233d0c0dff0873d8c7c361e8e688278495",
      "networkId": 0,
      "chainId": 0
    }
  ]
}