{
  "hash": "0x8ab5e81b3792c18615b82800c01c3eb5dade866d00bfad13d1afac13aa4ae22e",
  "parentHash": "0x1a3fdd07190cb24da0183965e028c2f8b77e3bab2c73bab0036143fca4c7bbc1",
  "number": 61135,
  "timestamp": 1439167286,
  "nonce": "0x4da85f7498241f46",
  "difficulty": 1728662200518,
  "gasLimit": {
    "_hex": "0x2fefd8"
  },
  "gasUsed": {
    "_hex": "0x546c"
  },
  "miner": "0xf927a40C8B7F6E07c5af7FA2155B4864a4112B13",
  "extraData": "0x476574682f76312e302e312f6c696e75782f676f312e342e32",
  "transactions": [
    {
      "hash": "0x7d59157ca1c79900ba4795c5251a7c586af786c7309071c2bb772d8146e03697",
      "blockHash": "0x8ab5e81b3792c18615b82800c01c3eb5dade866d00bfad13d1afac13aa4ae22e",
      "blockNumber": 61135,
      "transactionIndex": 0,
      "confirmations": null,
      "from": "0x9C78963fbc263c09bD72E4F8DEF74A9475F7055C",
      "gasPrice": {
        "_hex": "0x110c8f7d8de"
      },
      "gasLimit": {
        "_hex": "0xc350"
      },
      "to": "0x2910543Af39abA0Cd09dBb2D50200b3E800A63D2",
      "value": {
        "_hex": "0x0"
      },
      "nonce": 2,
      "data": "0x454e5a4e5732473630",
      "r": "0xbeb757224849a241e6901a834ebf77c2d2be24bc9ee3e984a29ba85151cab35e",
      "s": "0x42f721e7bb31fb8e28c09c6d36054cf46ebb71220bc087e780ffd7cf806d51b3",
      "v": 28,
      "creates": null,
      "raw": "0xf86e02860110c8f7d8de82c350942910543af39aba0cd09dbb2d50200b3e800a63d28089454e5a4e57324736301ca0beb757224849a241e6901a834ebf77c2d2be24bc9ee3e984a29ba85151cab35ea042f721e7bb31fb8e28c09c6d36054cf46ebb71220bc087e780ffd7cf806d51b3",
      "networkId": 0,
      "chainId": 0
    }
  ]
}