{
  "hash": "0xef0fbdbb7e21510cf93e0e7277f99a7c5c7b429a71106fbd34d641ac23d6c2e8",
  "parentHash": "0x1990584f57c627917d9fa1189fad5a0559d44409f92a4c762cf257dac2364022",
  "number": 47492,
  "timestamp": 1438941486,
  "nonce": "0x619078bef821e4fd",
  "difficulty": 1444584633444,
  "gasLimit": {
    "_hex": "0xc5ed"
  },
  "gasUsed": {
    "_hex": "0x546c"
  },
  "miner": "0x0A63E1A8C33e351679e3581AC84ce341C32f813a",
  "extraData": "0x476574682f76312e302e312d38326566323666362f6c696e75782f676f312e34",
  "transactions": [
    {
      "hash": "0x87df29bdb7d349c216fa34751bf9864395c167423812402150ace0214604bdc4",
      "blockHash": "0xef0fbdbb7e21510cf93e0e7277f99a7c5c7b429a71106fbd34d641ac23d6c2e8",
      "blockNumber": 47492,
      "transactionIndex": 0,
      "confirmations": null,
      "from": "0xb6E6C3222B6b6f9bE2875D2a89f127fb64100Fe2",
      "gasPrice": {
        "_hex": "0x19ae903b78"
      },
      "gasLimit": {
        "_hex": "0x9c40"
      },
      "to": "0x2910543Af39abA0Cd09dBb2D50200b3E800A63D2",
      "value": {
        "_hex": "0x4563918244f40000"
      },
      "nonce": 0,
      "data": "0x454e324a3854314430",
      "r": "0x396d1e761b0aea39a2094d08471716fc6e3c05141706e82e71df95892a343544",
      "s": "0x7256c050ea5a87ac476ce036220a8c82b89adbb22f0cd41978019d1ba7219403",
      "v": 27,
      "creates": null,
      "raw": "0xf875808519ae903b78829c40942910543af39aba0cd09dbb2d50200b3e800a63d2884563918244f4000089454e324a38543144301ba0396d1e761b0aea39a2094d08471716fc6e3c05141706e82e71df95892a343544a07256c050ea5a87ac476ce036220a8c82b89adbb22f0cd41978019d1ba7219403",
      "networkId": 0,
      "chainId": 0
    }
  ]
}