{
  "hash": "0x4287b7d62a06191a6a15eb3ba4131cd5505f5a9022374a9b4be0c39a8a7b1661",
  "parentHash": "0x3dcfdce3f3e7937dcb1904487e12f234899e5b232936ccd8f3bcded1820ec3d3",
  "number": 121533,
  "timestamp": 1440178373,
  "nonce": "0x3abfaa85f1d1e784",
  "difficulty": 4477801826022,
  "gasLimit": {
    "_hex": "0x2fefd8"
  },
  "gasUsed": {
    "_hex": "0x5208"
  },
  "miner": "0x900deD2eC098c430caD5347E6F3322932D7BB3a9",
  "extraData": "0x",
  "transactions": [
    {
      "hash": "0x3efe39cb9dfec32a8e2a923495084bdd24f46149c0b4e7a2cbaf8fb304c21392",
      "blockHash": "0x4287b7d62a06191a6a15eb3ba4131cd5505f5a9022374a9b4be0c39a8a7b1661",
      "blockNumber": 121533,
      "transactionIndex": 0,
      "confirmations": null,
      "from": "0x95B8Be50517B180F2F101f1cFe0E4C66Ad6fa7dd",
      "gasPrice": {
        "_hex": "0xd60340b78"
      },
      "gasLimit": {
        "_hex": "0x7530"
      },
      "to": "0xbCab99c9250A69cCD7395f2543ed52FF1e220398",
      "value": {
        "_hex": "0x83d6c7aab6360000"
      },
      "nonce": 15,
      "data": "0x",
      "r": "0xf345a22b2bb1a388813a3aaa905dc5e5544cc5c58d08adf2c494cd0b94934f3b",
      "s": "0x652c28d6a5332cda2ae009f32ae688f46b89d46d2fc4c56c5c540394e5c23fcb",
      "v": 27,
      "creates": null,
      "raw": "0xf86c0f850d60340b7882753094bcab99c9250a69ccd7395f2543ed52ff1e2203988883d6c7aab6360000801ba0f345a22b2bb1a388813a3aaa905dc5e5544cc5c58d08adf2c494cd0b94934f3ba0652c28d6a5332cda2ae009f32ae688f46b89d46d2fc4c56c5c540394e5c23fcb",
      "networkId": 0,
      "chainId": 0
    }
  ]
}