{
  "hash": "0x35235bb69e4875e88bc1f433a7c124b421380fa21d0deec55c9ae7d6a4c98b83",
  "parentHash": "0x78fda36c893b118e8dd856a12a3c64e2727c2e023e3c5abd60b1174c1df264a0",
  "number": 81420,
  "timestamp": 1439501381,
  "nonce": "0x08f9ba4e3fe58997",
  "difficulty": 2449793904970,
  "gasLimit": {
    "_hex": "0x2fefd8"
  },
  "gasUsed": {
    "_hex": "0x5208"
  },
  "miner": "0xf8E0CA3Ed80bd541b94BEdCf259e8CF2141A9523",
  "extraData": "0x476574682f76312e302e312f77696e646f77732f676f312e342e32",
  "transactions": [
    {
      "hash": "0x3aab3281bfac3a8bdd10726a05d20fa9959294b1aa6cc1ed7ffe7c91bdd07b6b",
      "blockHash": "0x35235bb69e4875e88bc1f433a7c124b421380fa21d0deec55c9ae7d6a4c98b83",
      "blockNumber": 81420,
      "transactionIndex": 0,
      "confirmations": null,
      "from": "0x2910543Af39abA0Cd09dBb2D50200b3E800A63D2",
      "gasPrice": {
        "_hex": "0xdb03e6fb5"
      },
      "gasLimit": {
        "_hex": "0x5208"
      },
      "to": "0x3faFe90631678f97C1D101ea02D4cd743cBD24ed",
      "value": {
        "_hex": "0x8ab55f8b52078000"
      },
      "nonce": 481,
      "data": "0x",
      "r": "0x09f844bc8493f256994d89dc8f82a1c33a95de7ca9474de7d44688084c956a1d",
      "s": "0x5e06d0cb8c28180bd8d2b399557a2e77e352f81684647895457722ba2c18a1d4",
      "v": 28,
      "creates": null,
      "raw": "0xf86e8201e1850db03e6fb5825208943fafe90631678f97c1d101ea02d4cd743cbd24ed888ab55f8b52078000801ca009f844bc8493f256994d89dc8f82a1c33a95de7ca9474de7d44688084c956a1da05e06d0cb8c28180bd8d2b399557a2e77e352f81684647895457722ba2c18a1d4",
      "networkId": 0,
      "chainId": 0
    }
  ]
}