{
  "hash": "0xd96bef5d59851e1da4aea190fd5d5f16dd03fbde16deb48505a8afd83a5cf19b",
  "parentHash": "0xfc3ef14ebd3f39b020867641da6368dc1f4b9cc16a5c873fd0f796c714ba632a",
  "number": 50772,
  "timestamp": 1438994258,
  "nonce": "0x0383d715e3a9f06d",
  "difficulty": 1547695059527,
  "gasLimit": {
    "_hex": "0x76e80"
  },
  "gasUsed": {
    "_hex": "0x5208"
  },
  "miner": "0x0eDEd3DA479d0beF8eeC92A76644D3f4E3C177f7",
  "extraData": "0x476574682f76312e302e312f6c696e75782f676f312e342e32",
  "transactions": [
    {
      "hash": "0x9db2cfef5f8ed9741f7f447f2af77a1f6ff1ed7cc7bd8106bb9438a5236f5836",
      "blockHash": "0xd96bef5d59851e1da4aea190fd5d5f16dd03fbde16deb48505a8afd83a5cf19b",
      "blockNumber": 50772,
      "transactionIndex": 0,
      "confirmations": null,
      "from": "0x2ddF40905769BcC426CB2c2938ffE077e1E89D98",
      "gasPrice": {
        "_hex": "0xdf8475800"
      },
      "gasLimit": {
        "_hex": "0x5208"
      },
      "to": "0xE52F3039aE6D54885703588D0F8726596022ff9D",
      "value": {
        "_hex": "0xa2859b9bea4d180000"
      },
      "nonce": 2,
      "data": "0x",
      "r": "0x32b20dd5b3629711131ea75fe4697d267c840ab7cb187f4580bb8e77a96e6d49",
      "s": "0x5a21727eadefe59529c662b5da105c649f241504b72b800cac88c48240400a52",
      "v": 27,
      "creates": null,
      "raw": "0xf86d02850df847580082520894e52f3039ae6d54885703588d0f8726596022ff9d89a2859b9bea4d180000801ba032b20dd5b3629711131ea75fe4697d267c840ab7cb187f4580bb8e77a96e6d49a05a21727eadefe59529c662b5da105c649f241504b72b800cac88c48240400a52",
      "networkId": 0,
      "chainId": 0
    }
  ]
}