{
  "hash": "0x5add686990ef9916847e3f194da9abf4782a3ec6e82f703212730749666f6b57",
  "parentHash": "0xc5790f06104fd783d63d6e8729af4035f4611b31c06c5ccae4aad0268568a176",
  "number": 56720,
  "timestamp": 1439091453,
  "nonce": "0x46c77ce1217a4c7d",
  "difficulty": 1691983426541,
  "gasLimit": {
    "_hex": "0x2fefd8"
  },
  "gasUsed": {
    "_hex": "0xa410"
  },
  "miner": "0x9746c7e1ef2bd21FF3997fa467593a89cb852BD0",
  "extraData": "0x476574682f76312e302e312f77696e646f77732f676f312e342e32",
  "transactions": [
    {
      "hash": "0x5fe9993bf021c9aea739090e9c020514f5e6e7b3721f68e95f02da138d4c9899",
      "blockHash": "0x5add686990ef9916847e3f194da9abf4782a3ec6e82f703212730749666f6b57",
      "blockNumber": 56720,
      "transactionIndex": 0,
      "confirmations": null,
      "from": "0x1308A2e95c0160B90803ddCA9B9a5bb55E416d79",
      "gasPrice": {
        "_hex": "0xe8d4a51000"
      },
      "gasLimit": {
        "_hex": "0x15f90"
      },
      "to": "0x7266c8FD66eD582bEA23bd8BC48E58D7f17321F3",
      "value": {
        "_hex": "0x56bc75e2d63100000"
      },
      "nonce": 74,
      "data": "0x",
      "r": "0xe610e7c05679e5d09bd83cf70adae9dedd0cb0a78f41c2363a0a985444bafddf",
      "s": "0x4c7018c0c25c62f5bf062409adc8dc1550e0d7ba7206ff5ded05824b8526edf3",
      "v": 28,
      "creates": null,
      "raw": "0xf86e4a85e8d4a5100083015f90947266c8fd66ed582bea23bd8bc48e58d7f17321f389056bc75e2d63100000801ca0e610e7c05679e5d09bd83cf70adae9dedd0cb0a78f41c2363a0a985444bafddfa04c7018c0c25c62f5bf062409adc8dc1550e0d7ba7206ff5ded05824b8526edf3",
      "networkId": 0,
      "chainId": 0
    },
    {
      "hash": "0x262a8ed0008e08f9e8bdcb84376ccb8f348c8d1c1dec8a7dac6155eb260e747b",
      "blockHash": "0x5add686990ef9916847e3f194da9abf4782a3ec6e82f703212730749666f6b57",
      "blockNumber": 56720,
      "transactionIndex": 1,
      "confirmations": null,
      "from": "0x1308A2e95c0160B90803ddCA9B9a5bb55E416d79",
      "gasPrice": {
        "_hex": "0xe8d4a51000"
      },
      "gasLimit": {
        "_hex": "0x15f90"
      },
      "to": "0x7266c8FD66eD582bEA23bd8BC48E58D7f17321F3",
      "value": {
        "_hex": "0x56bc75e2d63100000"
      },
      "nonce": 75,
      "data": "0x",
      "r": "0x0c36654732c72a6742a6bdcb08ff9f007f9d31049364a29683157343d0bf4a8a",
      "s": "0x61f1201e72f6d8f6efb42a4a6df20d7edccc1fcb294b73c82404ab1e0645899f",
      "v": 28,
      "creates": null,
      "raw": "0xf86e4b85e8d4a5100083015f90947266c8fd66ed582bea23bd8bc48e58d7f17321f389056bc75e2d63100000801ca00c36654732c72a6742a6bdcb08ff9f007f9d31049364a29683157343d0bf4a8aa061f1201e72f6d8f6efb42a4a6df20d7edccc1fcb294b73c82404ab1e0645899f",
      "networkId": 0,
      "chainId": 0
    }
  ]
}