{
  "hash": "0x2573f4021d55e1957ceb4649f5eb473d45c6445c854862bcb282ce35dd840798",
  "parentHash": "0x034e5ef2753ad946bfff7a0a366e4d40813c924cdcf66c3e16a7a3e9440cf1a1",
  "number": 52529,
  "timestamp": 1439023134,
  "nonce": "0x74bcffb95606cd0c",
  "difficulty": 1563319151325,
  "gasLimit": {
    "_hex": "0x14f765"
  },
  "gasUsed": {
    "_hex": "0xf4240"
  },
  "miner": "0x2C674A948592B20a4B775E1a3991Db043E6CF0FE",
  "extraData": "0x476574682f76312e302e312d38326566323666362f6c696e75782f676f312e34",
  "transactions": [
    {
      "hash": "0xb91f7ebb13f29cc449cf546a16349550afc3971bfa2592484ca15b935d9b2180",
      "blockHash": "0x2573f4021d55e1957ceb4649f5eb473d45c6445c854862bcb282ce35dd840798",
      "blockNumber": 52529,
      "transactionIndex": 0,
      "confirmations": null,
      "from": "0x54dAeb3E8a6BBC797E4aD2b0339f134b186e4637",
      "gasPrice": {
        "_hex": "0xe7d27df17"
      },
      "gasLimit": {
        "_hex": "0x7a120"
      },
      "to": "0xBAA54d6E90c3F4d7Ebec11bD180134C7eD8eBb52",
      "value": {
        "_hex": "0x16345785d8a0000"
      },
      "nonce": 671,
      "data": "0x",
      "r": "0x611e5bf17728e4732d038fa675bcfbe5af9a0448069c64eb23279fc0e89666f9",
      "s": "0x177774a19163b031fec8facc4abd8283dfc0f17f3248cc756d77481977fca2e4",
      "v": 28,
      "creates": null,
      "raw": "0xf86f82029f850e7d27df178307a12094baa54d6e90c3f4d7ebec11bd180134c7ed8ebb5288016345785d8a0000801ca0611e5bf17728e4732d038fa675bcfbe5af9a0448069c64eb23279fc0e89666f9a0177774a19163b031fec8facc4abd8283dfc0f17f3248cc756d77481977fca2e4",
      "networkId": 0,
      "chainId": 0
    },
    {
      "hash": "0x13142bb38275ff39e9a1d3827d86d1e936d9b6cfc742575ca7c2e13673055848",
      "blockHash": "0x2573f4021d55e1957ceb4649f5eb473d45c6445c854862bcb282ce35dd840798",
      "blockNumber": 52529,
      "transactionIndex": 1,
      "confirmations": null,
      "from": "0x54dAeb3E8a6BBC797E4aD2b0339f134b186e4637",
      "gasPrice": {
        "_hex": "0xe7d27df17"
      },
      "gasLimit": {
        "_hex": "0x7a120"
      },
      "to": "0xBAA54d6E90c3F4d7Ebec11bD180134C7eD8eBb52",
      "value": {
        "_hex": "0x16345785d8a0000"
      },
      "nonce": 672,
      "data": "0x",
      "r": "0xda4447eedb82e7a10f9d7f5994f640519f27b966195aa94fd6dc52efef46b7c0",
      "s": "0x404a6d3566b2ffd12e5d9236a795b185cef416e7478f04545e518165ac4aa460",
      "v": 27,
      "creates": null,
      "raw": "0xf86f8202a0850e7d27df178307a12094baa54d6e90c3f4d7ebec11bd180134c7ed8ebb5288016345785d8a0000801ba0da4447eedb82e7a10f9d7f5994f640519f27b966195aa94fd6dc52efef46b7c0a0404a6d3566b2ffd12e5d9236a795b185cef416e7478f04545e518165ac4aa460",
      "networkId": 0,
      "chainId": 0
    }
  ]
}