{
  "hash": "0xc059df0f2c437bad9e339021298d4c30f0fc875eae68cc739dab79c53afb558c",
  "parentHash": "0xa88e2fab7a7253db95b78de761096b52e66be609a02a7cd430aae0c74d7692cd",
  "number": 68636,
  "timestamp": 1439291153,
  "nonce": "0xeae265839a37f6d1",
  "difficulty": 2022164519608,
  "gasLimit": {
    "_hex": "0x2fefd8"
  },
  "gasUsed": {
    "_hex": "0x19a28"
  },
  "miner": "0x9746c7e1ef2bd21FF3997fa467593a89cb852BD0",
  "extraData": "0x476574682f76312e302e312f77696e646f77732f676f312e342e32",
  "transactions": [
    {
      "hash": "0x68469b776ae5560a19861b8f424259a525779d56c7e353d0683da8259b64bec6",
      "blockHash": "0xc059df0f2c437bad9e339021298d4c30f0fc875eae68cc739dab79c53afb558c",
      "blockNumber": 68636,
      "transactionIndex": 0,
      "confirmations": null,
      "from": "0xc5FF7128adfd7baBdBf1F6Edf8395a1acFF9c1c4",
      "gasPrice": {
        "_hex": "0xba43b7400"
      },
      "gasLimit": {
        "_hex": "0x5208"
      },
      "to": "0x8674E5048Ec4a8858e7C435C1f690a72C938496F",
      "value": {
        "_hex": "0x17adb9b0233f000"
      },
      "nonce": 1,
      "data": "0x",
      "r": "0x216ef9fe27b8fa885b251506edac129c22a06ea4a08f2dc33d8db37c43d72836",
      "s": "0x077d59d6595de9e593e58f444245552474fa4c08201cd76eb4c99e8dbc04e5a7",
      "v": 27,
      "creates": null,
      "raw": "0xf86c01850ba43b7400825208948674e5048ec4a8858e7c435c1f690a72c938496f88017adb9b0233f000801ba0216ef9fe27b8fa885b251506edac129c22a06ea4a08f2dc33d8db37c43d72836a0077d59d6595de9e593e58f444245552474fa4c08201cd76eb4c99e8dbc04e5a7",
      "networkId": 0,
      "chainId": 0
    },
    {
      "hash": "0x087b59ac83439984642b0b35aadc8a7a1a52d010a902a7a11c43f066ef5be6f0",
      "blockHash": "0xc059df0f2c437bad9e339021298d4c30f0fc875eae68cc739dab79c53afb558c",
      "blockNumber": 68636,
      "transactionIndex": 1,
      "confirmations": null,
      "from": "0x89a2FD010E3cdBE4E84D0b97472a4F1f016CAFC6",
      "gasPrice": {
        "_hex": "0xba43b7400"
      },
      "gasLimit": {
        "_hex": "0x5208"
      },
      "to": "0xe355EAD0CFDf8EAE271eBeA2EE991B1848620F01",
      "value": {
        "_hex": "0x17adb9b0233f000"
      },
      "nonce": 1,
      "data": "0x",
      "r": "0x2335fe073613e5876bccfc862ba3980319b34770acdace45a721c60b6a4bb612",
      "s": "0x2cad2a22d18a0d43b25535a7f2a75bbc49a1ad5c75f7d081b004889dd5de154b",
      "v": 27,
      "creates": null,
      "raw": "0xf86c01850ba43b740082520894e355ead0cfdf8eae271ebea2ee991b1848620f0188017adb9b0233f000801ba02335fe073613e5876bccfc862ba3980319b34770acdace45a721c60b6a4bb612a02cad2a22d18a0d43b25535a7f2a75bbc49a1ad5c75f7d081b004889dd5de154b",
      "networkId": 0,
      "chainId": 0
    },
    {
      "hash": "0x560e3aa70add9d66a668186d2837ccb8dd4d94cd23c646c391a618d121d3f845",
      "blockHash": "0xc059df0f2c437bad9e339021298d4c30f0fc875eae68cc739dab79c53afb558c",
      "blockNumber": 68636,
      "transactionIndex": 2,
      "confirmations": null,
      "from": "0x4A40a08196C3d9d2BEbbb24C5f627F6055D40D42",
      "gasPrice": {
        "_hex": "0xba43b7400"
      },
      "gasLimit": {
        "_hex": "0x5208"
      },
      "to": "0xe5281853Af6D6A551c28B8a3B5024ED7F408c671",
      "value": {
        "_hex": "0x17adb9b0233f000"
      },
      "nonce": 1,
      "data": "0x",
      "r": "0x370f79110b857c1853b4d901352db09bafc246dca9380eda0169f2318cb6ff1a",
      "s": "0x366186c92094a44ac35568825605c62599f841a3f338d232db6a93242c7ec614",
      "v": 27,
      "creates": null,
      "raw": "0xf86c01850ba43b740082520894e5281853af6d6a551c28b8a3b5024ed7f408c67188017adb9b0233f000801ba0370f79110b857c1853b4d901352db09bafc246dca9380eda0169f2318cb6ff1aa0366186c92094a44ac35568825605c62599f841a3f338d232db6a93242c7ec614",
      "networkId": 0,
      "chainId": 0
    },
    {
      "hash": "0x6fcddfbca02246a97b657c4c4097c8b4a618fb9606df51e0482b6f2d913ee2f1",
      "blockHash": "0xc059df0f2c437bad9e339021298d4c30f0fc875eae68cc739dab79c53afb558c",
      "blockNumber": 68636,
      "transactionIndex": 3,
      "confirmations": null,
      "from": "0xC7cEE62Be98B0934388d47F7Dbc114e9f071DeF3",
      "gasPrice": {
        "_hex": "0xba43b7400"
      },
      "gasLimit": {
        "_hex": "0x5208"
      },
      "to": "0xacABE5F00470d1178953c8feb7cAc5C036cfe5d7",
      "value": {
        "_hex": "0x17adb9b0233f000"
      },
      "nonce": 1,
      "data": "0x",
      "r": "0xe828bd07d3e48f677b80b32aedc40603ccf42c751a802eb962a228a53d1a032b",
      "s": "0x41607c7310c87e19f1e006aabfce489f9009cde27a92af1b1beb53b421e7bc46",
      "v": 28,
      "creates": null,
      "raw": "0xf86c01850ba43b740082520894acabe5f00470d1178953c8feb7cac5c036cfe5d788017adb9b0233f000801ca0e828bd07d3e48f677b80b32aedc40603ccf42c751a802eb962a228a53d1a032ba041607c7310c87e19f1e006aabfce489f9009cde27a92af1b1beb53b421e7bc46",
      "networkId": 0,
      "chainId": 0
    },
    {
      "hash": "0x56ed02d75d1c0fbcd9f50c4856399730ef9dbb023d013d42558082a83216878d",
      "blockHash": "0xc059df0f2c437bad9e339021298d4c30f0fc875eae68cc739dab79c53afb558c",
      "blockNumber": 68636,
      "transactionIndex": 4,
      "confirmations": null,
      "from": "0x92E3B0A3FF7e7537d9c4aC548D7ecE1DC1217037",
      "gasPrice": {
        "_hex": "0xba43b7400"
      },
      "gasLimit": {
        "_hex": "0x5208"
      },
      "to": "0x443c060B26fba9E4766C9520FfE9B6679AB800b2",
      "value": {
        "_hex": "0x17adb9b0233f000"
      },
      "nonce": 1,
      "data": "0x",
      "r": "0xde614410363c341ab21bc885b4e8729b56960e950a2146c128fd329f6b35d3e9",
      "s": "0x2acab39e33505e6aeffe44ee68c5d676ff6ba82b2687154b9803217a45ecb133",
      "v": 27,
      "creates": null,
      "raw": "0xf86c01850ba43b740082520894443c060b26fba9e4766c9520ffe9b6679ab800b288017adb9b0233f000801ba0de614410363c341ab21bc885b4e8729b56960e950a2146c128fd329f6b35d3e9a02acab39e33505e6aeffe44ee68c5d676ff6ba82b2687154b9803217a45ecb133",
      "networkId": 0,
      "chainId": 0
    }
  ]
}