{
  "hash": "0xd225468662974438c08b4ab34eec96a0b211504ca2d0c3bcdea5c7a1377079ba",
  "parentHash": "0x08efe3db728f6a402b3e6a9ae4144b84a189171ec67160ef6d0ab3dc0605be98",
  "number": 59683,
  "timestamp": 1439142020,
  "nonce": "0xa50dfaa7dc489845",
  "difficulty": 1710488014542,
  "gasLimit": {
    "_hex": "0x2fefd8"
  },
  "gasUsed": {
    "_hex": "0x5208"
  },
  "miner": "0x0eDEd3DA479d0beF8eeC92A76644D3f4E3C177f7",
  "extraData": "0x476574682f76312e302e312f6c696e75782f676f312e342e32",
  "transactions": [
    {
      "hash": "0x27273356e9587a3ef6bb8f1aa74f1c2cb70a15600c05611972bb4c29b404b108",
      "blockHash": "0xd225468662974438c08b4ab34eec96a0b211504ca2d0c3bcdea5c7a1377079ba",
      "blockNumber": 59683,
      "transactionIndex": 0,
      "confirmations": null,
      "from": "0x0F03C4045F3ca4163A53836b213d3A23fCacb592",
      "gasPrice": {
        "_hex": "0xd37120932"
      },
      "gasLimit": {
        "_hex": "0x5208"
      },
      "to": "0x32Be343B94f860124dC4fEe278FDCBD38C102D88",
      "value": {
        "_hex": "0xe23888ab2a6bc00"
      },
      "nonce": 0,
      "data": "0x",
      "r": "0xa50793e13a3754a6514885d456dd044d27cbbf3f9bd788ae2fa07910335c1e86",
      "s": "0x5391b7ae0930538ca032709c29e15f7329af34cd41df3aad1a5718c26a877f6c",
      "v": 28,
      "creates": null,
      "raw": "0xf86c80850d371209328252089432be343b94f860124dc4fee278fdcbd38c102d88880e23888ab2a6bc00801ca0a50793e13a3754a6514885d456dd044d27cbbf3f9bd788ae2fa07910335c1e86a05391b7ae0930538ca032709c29e15f7329af34cd41df3aad1a5718c26a877f6c",
      "networkId": 0,
      "chainId": 0
    }
  ]
}