{
  "hash": "0x8e60ff666b280d52579b5b045936a1af9fa01d4e1418fa96ae89a620825a4a9c",
  "parentHash": "0x4662e60e1484785e58b4057eaed9756373344d1f6218c34bd6f39b8b6910d2cd",
  "number": 71556,
  "timestamp": 1439338032,
  "nonce": "0x4dafeae9dface909",
  "difficulty": 2179326119153,
  "gasLimit": {
    "_hex": "0x2fefd8"
  },
  "gasUsed": {
    "_hex": "0x93b2"
  },
  "miner": "0xe6A7a1d47ff21B6321162AEA7C6CB457D5476Bca",
  "extraData": "0x476574682f76312e302e312d38326566323666362f6c696e75782f676f312e34",
  "transactions": [
    {
      "hash": "0xd26f2137535d16cdfa09c3ee6b05f9afb3e44ef23b01668dc8326f4294c660a1",
      "blockHash": "0x8e60ff666b280d52579b5b045936a1af9fa01d4e1418fa96ae89a620825a4a9c",
      "blockNumber": 71556,
      "transactionIndex": 0,
      "confirmations": null,
      "from": "0x17580B766f7453525ca4C6A88b01b50570EA088C",
      "gasPrice": {
        "_hex": "0xdc1a3c2e6"
      },
      "gasLimit": {
        "_hex": "0x61a80"
      },
      "to": "0x5Fe5B7546D1628f7348B023A0393de1FC825A4fD",
      "value": {
        "_hex": "0x29a2241af62c0000"
      },
      "nonce": 215,
      "data": "0xb595b8b50000000000000000000000000000000000000000000000000000000000000000",
      "r": "0xeb1d8cb7785973f79bec434cbef3a7df91c281729a1249ad7db430d97b1c806c",
      "s": "0x5d3e0883a5a60e0841c280b3c7b457e871015ca5ca3366cb4df84009d270c748",
      "v": 28,
      "creates": null,
      "raw": "0xf89281d7850dc1a3c2e683061a80945fe5b7546d1628f7348b023a0393de1fc825a4fd8829a2241af62c0000a4b595b8b500000000000000000000000000000000000000000000000000000000000000001ca0eb1d8cb7785973f79bec434cbef3a7df91c281729a1249ad7db430d97b1c806ca05d3e0883a5a60e0841c280b3c7b457e871015ca5ca3366cb4df84009d270c748",
      "networkId": 0,
      "chainId": 0
    }
  ]
}