{
  "hash": "0x694de1e3b0c1d6095a78911418f3a1f256b3578bbac27bbaf95d54ad79ac651a",
  "parentHash": "0x4100e6124174635ffc956c33f8837ab936c2aa67893a45f9e067941e60ac396c",
  "number": 108341,
  "timestamp": 1439938567,
  "nonce": "0x0d1bc2e8fcfb24b4",
  "difficulty": 4359618513224,
  "gasLimit": {
    "_hex": "0x2fefd8"
  },
  "gasUsed": {
    "_hex": "0x5208"
  },
  "miner": "0x88D74a59454F6cF3B51ef6b9136AFb6b9D405A88",
  "extraData": "0x",
  "transactions": [
    {
      "hash": "0x34f713eba884f34c66680ab83b91fa0ce7ed41bce1d543d6750142f32f1657d2",
      "blockHash": "0x694de1e3b0c1d6095a78911418f3a1f256b3578bbac27bbaf95d54ad79ac651a",
      "blockNumber": 108341,
      "transactionIndex": 0,
      "confirmations": null,
      "from": "0xc597A5d92F5dC1137D847db733cfe02c6d209f13",
      "gasPrice": {
        "_hex": "0xba43b7400"
      },
      "gasLimit": {
        "_hex": "0x15f90"
      },
      "to": "0x5F965F10e1BD020753Ca496fee6b3E4D809aff67",
      "value": {
        "_hex": "0x2933511e4ffae6000"
      },
      "nonce": 44,
      "data": "0x",
      "r": "0xf06100e0d0dc3257dfefe6ddd478550063159f1429df671a0949becabad7841a",
      "s": "0x296318aa570faae6ab890c8002d9342c3175bf08921011b59ec0c96e087f40fb",
      "v": 27,
      "creates": null,
      "raw": "0xf86e2c850ba43b740083015f90945f965f10e1bd020753ca496fee6b3e4d809aff678902933511e4ffae6000801ba0f06100e0d0dc3257dfefe6ddd478550063159f1429df671a0949becabad7841aa0296318aa570faae6ab890c8002d9342c3175bf08921011b59ec0c96e087f40fb",
      "networkId": 0,
      "chainId": 0
    }
  ]
}