{
  "hash": "0x5bc2974b0e4ada6b23df8754bb1e52736999430c6307884c30800fa69e90eae5",
  "parentHash": "0x2f88782eab30b3b4cdb617ec0cc09be7c1f01f84b7a8f1b27358cedde01abe59",
  "number": 49012,
  "timestamp": 1438966382,
  "nonce": "0xa45768ae4e49a098",
  "difficulty": 1487262985849,
  "gasLimit": {
    "_hex": "0x235f9"
  },
  "gasUsed": {
    "_hex": "0x546c"
  },
  "miner": "0x01d9DA08cc6Fb97c0DE1B6F4C28910A0859Ed1A1",
  "extraData": "0x476574682f76312e302e312f6c696e75782f676f312e342e32",
  "transactions": [
    {
      "hash": "0xd94e4888d90fb28376bbc825fd0804be4d32f4f35a86b6df6be26bb376fde9d1",
      "blockHash": "0x5bc2974b0e4ada6b23df8754bb1e52736999430c6307884c30800fa69e90eae5",
      "blockNumber": 49012,
      "transactionIndex": 0,
      "confirmations": null,
      "from": "0x2001BEF77b66F51e1599B02Fb110194A0099b78d",
      "gasPrice": {
        "_hex": "0xdf66702d0"
      },
      "gasLimit": {
        "_hex": "0x15f90"
      },
      "to": "0x2910543Af39abA0Cd09dBb2D50200b3E800A63D2",
      "value": {
        "_hex": "0x1b1ae4d6e2ef500000"
      },
      "nonce": 1,
      "data": "0x454e4b3441344a3852",
      "r": "0x706f4ca1912e618cf0068c80f01f2960d00848e9be418687887b39b9769bb682",
      "s": "0x00ed3b0103b2f7b8387086dc16ce05cc015b7d1444e71c89810d3e3c39fdfd90",
      "v": 27,
      "creates": null,
      "raw": "0xf87601850df66702d083015f90942910543af39aba0cd09dbb2d50200b3e800a63d2891b1ae4d6e2ef50000089454e4b3441344a38521ba0706f4ca1912e618cf0068c80f01f2960d00848e9be418687887b39b9769bb6829fed3b0103b2f7b8387086dc16ce05cc015b7d1444e71c89810d3e3c39fdfd90",
      "networkId": 0,
      "chainId": 0
    }
  ]
}