{
  "hash": "0x7d57f8f828776547d27ff2b76de2cce763f2344a890079dd99b44d8ac3f3cb36",
  "parentHash": "0x39a72c0f7a8e0e04a83c3973d108396a1bf87ee3d1b2ef6a17c9e9eb2274e3db",
  "number": 55417,
  "timestamp": 1439070401,
  "nonce": "0x583a405a8df7ed79",
  "difficulty": 1623448980024,
  "gasLimit": {
    "_hex": "0x2fefd8"
  },
  "gasUsed": {
    "_hex": "0x5208"
  },
  "miner": "0x9746c7e1ef2bd21FF3997fa467593a89cb852BD0",
  "extraData": "0x476574682f76312e302e312f77696e646f77732f676f312e342e32",
  "transactions": [
    {
      "hash": "0x4689cb513e54c0efa5dd48e0935680a1ed0e2514c0ca1cd29531f0b0dd9ace7e",
      "blockHash": "0x7d57f8f828776547d27ff2b76de2cce763f2344a890079dd99b44d8ac3f3cb36",
      "blockNumber": 55417,
      "transactionIndex": 0,
      "confirmations": null,
      "from": "0x120A270bbC009644e35F0bB6ab13f95b8199c4ad",
      "gasPrice": {
        "_hex": "0xda8886824"
      },
      "gasLimit": {
        "_hex": "0x15f90"
      },
      "to": "0x0028795F5139935918A4176C80b01d32549E2819",
      "value": {
        "_hex": "0xabe6a1365d9cf000"
      },
      "nonce": 15,
      "data": "0x",
      "r": "0x5e0952d316136e9501ece8a2979e3d668485270b3e550ea4df5074f1b6a159eb",
      "s": "0x1642b726f641b6d5eb77caa10e6b79ed895aa8df11b42500c7dfde4474eb35fe",
      "v": 27,
      "creates": null,
      "raw": "0xf86d0f850da888682483015f90940028795f5139935918a4176c80b01d32549e281988abe6a1365d9cf000801ba05e0952d316136e9501ece8a2979e3d668485270b3e550ea4df5074f1b6a159eba01642b726f641b6d5eb77caa10e6b79ed895aa8df11b42500c7dfde4474eb35fe",
      "networkId": 0,
      "chainId": 0
    }
  ]
}