{
  "hash": "0xb1e64716af0689790813c49e60079aed71aef0dd2d8b0c9d6b36cc52ea3f2a8f",
  "parentHash": "0xa5b07bbe870f8e569a3dc23639aba5bbb1d67d4cca746b1fb1744cb5db6413c2",
  "number": 69087,
  "timestamp": 1439298135,
  "nonce": "0x582255e9aea6723d",
  "difficulty": 2052895916756,
  "gasLimit": {
    "_hex": "0x2fefd8"
  },
  "gasUsed": {
    "_hex": "0x17cd8"
  },
  "miner": "0x39A1BB80a741bF5EC39FB9BE59408Fa0F418fFBf",
  "extraData": "0x476574682f76312e302e312f77696e646f77732f676f312e342e32",
  "transactions": [
    {
      "hash": "0x21404ba92242ad0d6ed5558ebefc031cc1625661de2f01ca8185ac31d40ac6ad",
      "blockHash": "0xb1e64716af0689790813c49e60079aed71aef0dd2d8b0c9d6b36cc52ea3f2a8f",
      "blockNumber": 69087,
      "transactionIndex": 0,
      "confirmations": null,
      "from": "0xe56Ddaf998A184c40b5761D66c3D23f3e7dBf9bA",
      "gasPrice": {
        "_hex": "0xba43b7400"
      },
      "gasLimit": {
        "_hex": "0x15f90"
      },
      "to": "0x793AE8C1b1a160BFc07BFB0d04F85eab1A71F4f2",
      "value": {
        "_hex": "0x0"
      },
      "nonce": 0,
      "data": "0x3ba15036",
      "r": "0x7e7eea9858f94d55411c83f9d38ffdfcb9cff87ce0b0bdf0247f9d55db684cd1",
      "s": "0x76ce61dcccdcad51ddeffd2da888c82b19a46f5343d8334353a8119809fe4895",
      "v": 27,
      "creates": null,
      "raw": "0xf86980850ba43b740083015f9094793ae8c1b1a160bfc07bfb0d04f85eab1a71f4f280843ba150361ba07e7eea9858f94d55411c83f9d38ffdfcb9cff87ce0b0bdf0247f9d55db684cd1a076ce61dcccdcad51ddeffd2da888c82b19a46f5343d8334353a8119809fe4895",
      "networkId": 0,
      "chainId": 0
    },
    {
      "hash": "0xce3a42a2b9446351e3c8c65876985c767bdddb5570a09e39bddd4ff068e94da7",
      "blockHash": "0xb1e64716af0689790813c49e60079aed71aef0dd2d8b0c9d6b36cc52ea3f2a8f",
      "blockNumber": 69087,
      "transactionIndex": 1,
      "confirmations": null,
      "from": "0x1E8eb0f1e9848AEcCe1755df800C38d75c7161Dd",
      "gasPrice": {
        "_hex": "0xba43b7400"
      },
      "gasLimit": {
        "_hex": "0x15f90"
      },
      "to": "0x793AE8C1b1a160BFc07BFB0d04F85eab1A71F4f2",
      "value": {
        "_hex": "0x0"
      },
      "nonce": 0,
      "data": "0x3ba15036",
      "r": "0x7b9ff7dd936fce5503fabe3ccd82cea0265e603cbae716c0cd87568b8e43f56c",
      "s": "0x627810243590debf22d6a021018b9d5cbe01893e2446407362df4a382f832a9c",
      "v": 28,
      "creates": null,
      "raw": "0xf86980850ba43b740083015f9094793ae8c1b1a160bfc07bfb0d04f85eab1a71f4f280843ba150361ca07b9ff7dd936fce5503fabe3ccd82cea0265e603cbae716c0cd87568b8e43f56ca0627810243590debf22d6a021018b9d5cbe01893e2446407362df4a382f832a9c",
      "networkId": 0,
      "chainId": 0
    }
  ]
}