{
  "hash": "0xba2cd959763e94e5187ff2688f2e9117a3dea0084bc5807a7585a44aef13e5d5",
  "parentHash": "0x221c3942f6d488c78bb1388dab9361300e3025656b18a1b298203eaccbc1b368",
  "number": 120623,
  "timestamp": 1440163187,
  "nonce": "0x33451fc5afca4462",
  "difficulty": 4421793703938,
  "gasLimit": {
    "_hex": "0x2fefd8"
  },
  "gasUsed": {
    "_hex": "0x1bdbe"
  },
  "miner": "0xe6A7a1d47ff21B6321162AEA7C6CB457D5476Bca",
  "extraData": "0xd783010002844765746887676f312e342e32856c696e7578",
  "transactions": [
    {
      "hash": "0x0c084f7816106821f4d6c0934c3f01f3e5d8162c1e6b861df694f68535deb22e",
      "blockHash": "0xba2cd959763e94e5187ff2688f2e9117a3dea0084bc5807a7585a44aef13e5d5",
      "blockNumber": 120623,
      "transactionIndex": 0,
      "confirmations": null,
      "from": "0x602b95F91754f9Fc07750f7cE2dD2b5587F29E9B",
      "gasPrice": {
        "_hex": "0xba43b7400"
      },
      "gasLimit": {
        "_hex": "0x249f0"
      },
      "to": "0xE28e72FCf78647ADCe1F1252F240bbfaebD63BcC",
      "value": {
        "_hex": "0x6c6b935b8bbd400000"
      },
      "nonce": 1,
      "data": "0x45466f3a",
      "r": "0xd85d80c62d74e46b3b768f57ce6f2411e1c8cbd7d1a70646abe36e25f0bd6ff1",
      "s": "0x24269d6f8889692c5f06c39bcb49f4bf7a0ee8b3a081062930622741238d8bbc",
      "v": 27,
      "creates": null,
      "raw": "0xf87201850ba43b7400830249f094e28e72fcf78647adce1f1252f240bbfaebd63bcc896c6b935b8bbd4000008445466f3a1ba0d85d80c62d74e46b3b768f57ce6f2411e1c8cbd7d1a70646abe36e25f0bd6ff1a024269d6f8889692c5f06c39bcb49f4bf7a0ee8b3a081062930622741238d8bbc",
      "networkId": 0,
      "chainId": 0
    }
  ]
}