{
  "hash": "0x9a7c54353098068e4e16170592d75eace59755ca6794e1fca68b0bce64bed82e",
  "parentHash": "0x6d5dd8c4f0e8616a15e54f106959f3a2bd067a142a4635426403e0224d9e7f1c",
  "number": 79566,
  "timestamp": 1439471735,
  "nonce": "0x7298ff0eccb92e74",
  "difficulty": 2340410809369,
  "gasLimit": {
    "_hex": "0x2fefd8"
  },
  "gasUsed": {
    "_hex": "0x1afe6"
  },
  "miner": "0xf8E0CA3Ed80bd541b94BEdCf259e8CF2141A9523",
  "extraData": "0x476574682f76312e302e312f77696e646f77732f676f312e342e32",
  "transactions": [
    {
      "hash": "0x22c7d49e1fa3c36c0fd4782521833f3294c9b20ca50404ab1215095a23848237",
      "blockHash": "0x9a7c54353098068e4e16170592d75eace59755ca6794e1fca68b0bce64bed82e",
      "blockNumber": 79566,
      "transactionIndex": 0,
      "confirmations": null,
      "from": "0x34d34F0a638F6991e4E2536F41295DF6E934A646",
      "gasPrice": {
        "_hex": "0xd4596c657"
      },
      "gasLimit": {
        "_hex": "0x5208"
      },
      "to": "0x32Be343B94f860124dC4fEe278FDCBD38C102D88",
      "value": {
        "_hex": "0x70cf4f394ff1a000"
      },
      "nonce": 4,
      "data": "0x",
      "r": "0x27449941ed77e5939123155716cf9ace9123901c5878056f30fe14a402bd4ca8",
      "s": "0x0304754d4fd87acff1748a0e1f052355c7a620c48912174a3f8bb09fc58ca064",
      "v": 28,
      "creates": null,
      "raw": "0xf86c04850d4596c6578252089432be343b94f860124dc4fee278fdcbd38c102d888870cf4f394ff1a000801ca027449941ed77e5939123155716cf9ace9123901c5878056f30fe14a402bd4ca8a00304754d4fd87acff1748a0e1f052355c7a620c48912174a3f8bb09fc58ca064",
      "networkId": 0,
      "chainId": 0
    },
    {
      "hash": "0x5e1037e15b0f65ddd58009111a122a637908aff705b0b42b58b9751614460c91",
      "blockHash": "0x9a7c54353098068e4e16170592d75eace59755ca6794e1fca68b0bce64bed82e",
      "blockNumber": 79566,
      "transactionIndex": 1,
      "confirmations": null,
      "from": "0xF87481A262E993a75F791E7859E71BaC36A606Eb",
      "gasPrice": {
        "_hex": "0xd4596c657"
      },
      "gasLimit": {
        "_hex": "0x5208"
      },
      "to": "0x32Be343B94f860124dC4fEe278FDCBD38C102D88",
      "value": {
        "_hex": "0x8ac2e250f1eca000"
      },
      "nonce": 19,
      "data": "0x",
      "r": "0x5d4caa267a13905f0ff5a8b2ed5267e8d0499daba3b9f33caaad23f5612048d2",
      "s": "0x772e57a03eb5364d7d5f31bdb439b824b20f401ba3f3dad59ff563a857b90f5c",
      "v": 27,
      "creates": null,
      "raw": "0xf86c13850d4596c6578252089432be343b94f860124dc4fee278fdcbd38c102d88888ac2e250f1eca000801ba05d4caa267a13905f0ff5a8b2ed5267e8d0499daba3b9f33caaad23f5612048d2a0772e57a03eb5364d7d5f31bdb439b824b20f401ba3f3dad59ff563a857b90f5c",
      "networkId": 0,
      "chainId": 0
    },
    {
      "hash": "0xadb6145d443397137a7dc89cce0e39f7c675e69e08b3d5a890c2185f646535f9",
      "blockHash": "0x9a7c54353098068e4e16170592d75eace59755ca6794e1fca68b0bce64bed82e",
      "blockNumber": 79566,
      "transactionIndex": 2,
      "confirmations": null,
      "from": "0xa70a9a7040d542C632D8e0bE7c5513A8a5Bbc752",
      "gasPrice": {
        "_hex": "0xd4596c657"
      },
      "gasLimit": {
        "_hex": "0x5208"
      },
      "to": "0x32Be343B94f860124dC4fEe278FDCBD38C102D88",
      "value": {
        "_hex": "0x455f50ceacf8a000"
      },
      "nonce": 58,
      "data": "0x",
      "r": "0xe8dad9c687ba314a5de8ec61459b526229f72c35cb2185e0434084944b40114b",
      "s": "0x657c81773d1e4f22d009759b37de5b61cd3c9f2cee2123a070553302f5a6a9a6",
      "v": 28,
      "creates": null,
      "raw": "0xf86c3a850d4596c6578252089432be343b94f860124dc4fee278fdcbd38c102d8888455f50ceacf8a000801ca0e8dad9c687ba314a5de8ec61459b526229f72c35cb2185e0434084944b40114ba0657c81773d1e4f22d009759b37de5b61cd3c9f2cee2123a070553302f5a6a9a6",
      "networkId": 0,
      "chainId": 0
    },
    {
      "hash": "0xef8c93b82c7a0ef423b17f4a408d87132387b5601883237425e45b5313142a77",
      "blockHash": "0x9a7c54353098068e4e16170592d75eace59755ca6794e1fca68b0bce64bed82e",
      "blockNumber": 79566,
      "transactionIndex": 3,
      "confirmations": null,
      "from": "0xa6BDc31c431B8F97848c9D60cbbe9660dc450eB7",
      "gasPrice": {
        "_hex": "0xd4596c657"
      },
      "gasLimit": {
        "_hex": "0x5208"
      },
      "to": "0x32Be343B94f860124dC4fEe278FDCBD38C102D88",
      "value": {
        "_hex": "0x34066c6e1bbba000"
      },
      "nonce": 35,
      "data": "0x",
      "r": "0x4e71c6c805103ad1d9faabb7f360a2dd5c370d3718cd4a8ee37daf8d2caadb1b",
      "s": "0x712eda641d56aa2d048658d1615c6192d4a76c8ccfa62b1ee3441017a3ce1f0d",
      "v": 28,
      "creates": null,
      "raw": "0xf86c23850d4596c6578252089432be343b94f860124dc4fee278fdcbd38c102d888834066c6e1bbba000801ca04e71c6c805103ad1d9faabb7f360a2dd5c370d3718cd4a8ee37daf8d2caadb1ba0712eda641d56aa2d048658d1615c6192d4a76c8ccfa62b1ee3441017a3ce1f0d",
      "networkId": 0,
      "chainId": 0
    },
    {
      "hash": "0xe87781fca3c3489f1623159d4079c27b9727c149a90d58ec508db8c8db6d5a97",
      "blockHash": "0x9a7c54353098068e4e16170592d75eace59755ca6794e1fca68b0bce64bed82e",
      "blockNumber": 79566,
      "transactionIndex": 4,
      "confirmations": null,
      "from": "0xD1826373C4E0938f0b4302B40324f7f9c546492C",
      "gasPrice": {
        "_hex": "0xd0d4961e9"
      },
      "gasLimit": {
        "_hex": "0x30d40"
      },
      "to": "0x67DE0f2F71e29b8003D957fbcDE9C9AE393CbE94",
      "value": {
        "_hex": "0x16345785d8a0000"
      },
      "nonce": 26,
      "data": "0x",
      "r": "0x9ac16e3c8c9c20de16cd9fa34ce43e7d34e798564e5fbf5192010a0af73fbe7c",
      "s": "0x0458b6710bb9ebbc74fb782a4f6953cfe8687f578d98fa2d550f6226393143f4",
      "v": 27,
      "creates": null,
      "raw": "0xf86d1a850d0d4961e983030d409467de0f2f71e29b8003d957fbcde9c9ae393cbe9488016345785d8a0000801ba09ac16e3c8c9c20de16cd9fa34ce43e7d34e798564e5fbf5192010a0af73fbe7ca00458b6710bb9ebbc74fb782a4f6953cfe8687f578d98fa2d550f6226393143f4",
      "networkId": 0,
      "chainId": 0
    }
  ]
}