{
  "hash": "0x668b37f88d01b7774be1862f07a3eefb237699139583f84a64701f9e3c26431c",
  "parentHash": "0x5d5eb4b879e322f9d860dae9856d760c3dfae4ae1bc8bc4376dc5e9d7eab18ef",
  "number": 48011,
  "timestamp": 1438949803,
  "nonce": "0x48877b7929706179",
  "difficulty": 1463664985777,
  "gasLimit": {
    "_hex": "0x117fd"
  },
  "gasUsed": {
    "_hex": "0x5208"
  },
  "miner": "0x9746c7e1ef2bd21FF3997fa467593a89cb852BD0",
  "extraData": "0x476574682f76312e302e312f77696e646f77732f676f312e342e32",
  "transactions": [
    {
      "hash": "0x305bce1d54f535cc573331925989334e4f901314888b6467baf1ce3ace15aed1",
      "blockHash": "0x668b37f88d01b7774be1862f07a3eefb237699139583f84a64701f9e3c26431c",
      "blockNumber": 48011,
      "transactionIndex": 0,
      "confirmations": null,
      "from": "0x8bae48F227d978d084B009b775222BAaF61ed9fe",
      "gasPrice": {
        "_hex": "0xba43b7400"
      },
      "gasLimit": {
        "_hex": "0x5b04"
      },
      "to": "0xC94fddA93A6eFdE464f1ab126Ca7C38C7ba04a05",
      "value": {
        "_hex": "0x96ebc2e1bc5f80000"
      },
      "nonce": 3,
      "data": "0x",
      "r": "0x7459215771200a6cb3c7a5f23d6bb5ba4dda005bdd8eb8d61670aa597eb61ff9",
      "s": "0x6e1002dcbf0c23a10bc5145e8dec3e681b1cd7da1da4d338104d7a02178ba5a0",
      "v": 27,
      "creates": null,
      "raw": "0xf86d03850ba43b7400825b0494c94fdda93a6efde464f1ab126ca7c38c7ba04a0589096ebc2e1bc5f80000801ba07459215771200a6cb3c7a5f23d6bb5ba4dda005bdd8eb8d61670aa597eb61ff9a06e1002dcbf0c23a10bc5145e8dec3e681b1cd7da1da4d338104d7a02178ba5a0",
      "networkId": 0,
      "chainId": 0
    }
  ]
}