{
  "hash": "0xd06284e38e46ac854026a9fc2420aa5553b9dfc2be276b05469537b26902b3dd",
  "parentHash": "0xa13176a7ac646db7599e4672469a77880504eaacb74cd7c0ca53b3f0a1d65468",
  "number": 120975,
  "timestamp": 1440169318,
  "nonce": "0xd4dc7e1f919fc4f5",
  "difficulty": 4412980635895,
  "gasLimit": {
    "_hex": "0x2fefd8"
  },
  "gasUsed": {
    "_hex": "0x5208"
  },
  "miner": "0x52bc44d5378309EE2abF1539BF71dE1b7d7bE3b5",
  "extraData": "0xd783010002844765746887676f312e342e32856c696e7578",
  "transactions": [
    {
      "hash": "0x7ef5c4af82ad4688556f7bb0d9b34f3961a03496b2c92aa1a48539c12863f538",
      "blockHash": "0xd06284e38e46ac854026a9fc2420aa5553b9dfc2be276b05469537b26902b3dd",
      "blockNumber": 120975,
      "transactionIndex": 0,
      "confirmations": null,
      "from": "0xC603Ab5ef41fC61AA8b76bEddb09e3Cfcbb174BD",
      "gasPrice": {
        "_hex": "0xba43b7400"
      },
      "gasLimit": {
        "_hex": "0x15f90"
      },
      "to": "0x8F79f76381Aad7B98C19aF55eE75fdfEeb012211",
      "value": {
        "_hex": "0x8ac7230489e80000"
      },
      "nonce": 44,
      "data": "0x",
      "r": "0x9072f2b6947dc25e6c9613a33e34c7f53a8c2e85496df9f5db87fab8b972438f",
      "s": "0x68b047a48719ede7dd7792a73bfacf304d9d3ce0a08f6dc25c2e975311353c61",
      "v": 28,
      "creates": null,
      "raw": "0xf86d2c850ba43b740083015f90948f79f76381aad7b98c19af55ee75fdfeeb012211888ac7230489e80000801ca09072f2b6947dc25e6c9613a33e34c7f53a8c2e85496df9f5db87fab8b972438fa068b047a48719ede7dd7792a73bfacf304d9d3ce0a08f6dc25c2e975311353c61",
      "networkId": 0,
      "chainId": 0
    }
  ]
}