{
  "hash": "0x746bc7858fc18cbaa8fec36b2fe1d209ace8ec31e099ca65dbc3ecddb84c5312",
  "parentHash": "0xa47612bec994ab103734e6b5611b2d98570603abc1f23006864ff0a0557d28de",
  "number": 76720,
  "timestamp": 1439425105,
  "nonce": "0x91e49906a2668161",
  "difficulty": 2244928231190,
  "gasLimit": {
    "_hex": "0x2fefd8"
  },
  "gasUsed": {
    "_hex": "0x5208"
  },
  "miner": "0x5F8F73E26CdF436f19Cb24C82F90A15AFe55b592",
  "extraData": "0x476574682f76312e302e312f77696e646f77732f676f312e342e32",
  "transactions": [
    {
      "hash": "0x93a44314d664a3f47a5ac4a1f63e1d82a88a9bfc82a7a6c41bbd9cbbbbce46be",
      "blockHash": "0x746bc7858fc18cbaa8fec36b2fe1d209ace8ec31e099ca65dbc3ecddb84c5312",
      "blockNumber": 76720,
      "transactionIndex": 0,
      "confirmations": null,
      "from": "0xF2d2AfF1320476cb8C6b607199D23175cc595693",
      "gasPrice": {
        "_hex": "0xcdc58c7c3"
      },
      "gasLimit": {
        "_hex": "0x15f90"
      },
      "to": "0xF5EeDc192aB70b08D8354384aD94efD095849E00",
      "value": {
        "_hex": "0x9c2007651b2500000"
      },
      "nonce": 25,
      "data": "0x",
      "r": "0x93284d8cd63e470f978edf2d39c822e339e3edc32dd1e748de380e82122fbd94",
      "s": "0x6fb38520a709a2b57d03fec907123742b5888292ac9af08d3d81bec6268a8e8b",
      "v": 28,
      "creates": null,
      "raw": "0xf86e19850cdc58c7c383015f9094f5eedc192ab70b08d8354384ad94efd095849e008909c2007651b2500000801ca093284d8cd63e470f978edf2d39c822e339e3edc32dd1e748de380e82122fbd94a06fb38520a709a2b57d03fec907123742b5888292ac9af08d3d81bec6268a8e8b",
      "networkId": 0,
      "chainId": 0
    }
  ]
}