{
  "hash": "0x05ed0fde714a5c3fc48c49417cbf06ffaa872c3a73b3d3ba47cb9c158df68661",
  "parentHash": "0x167fa542c6909382fa4bad3db9b6d4a81ea237b331336b2bfd517c4d5ec7b89d",
  "number": 52206,
  "timestamp": 1439018061,
  "nonce": "0xf5256eb5966e55aa",
  "difficulty": 1553486981883,
  "gasLimit": {
    "_hex": "0x113e8d"
  },
  "gasUsed": {
    "_hex": "0x5208"
  },
  "miner": "0x9746c7e1ef2bd21FF3997fa467593a89cb852BD0",
  "extraData": "0x476574682f76312e302e312f77696e646f77732f676f312e342e32",
  "transactions": [
    {
      "hash": "0xc9b100d05608b921e70980788ec44dbd758cde7427eeda84469bad463451805c",
      "blockHash": "0x05ed0fde714a5c3fc48c49417cbf06ffaa872c3a73b3d3ba47cb9c158df68661",
      "blockNumber": 52206,
      "transactionIndex": 0,
      "confirmations": null,
      "from": "0x9aB9F7a4B85412bfbe2f4F63b1C98808851C4F32",
      "gasPrice": {
        "_hex": "0xd29f8fa38"
      },
      "gasLimit": {
        "_hex": "0x15f90"
      },
      "to": "0xfBC1aB9a735012CF8Aa4f8738c5811CDbF39a0C5",
      "value": {
        "_hex": "0x2710"
      },
      "nonce": 1,
      "data": "0x",
      "r": "0xb54da299449b67d64685300c4d62e5587c7da4811695d53a5eb617fc2dd91c6a",
      "s": "0x50896bd050b2f396376e5b86424fa80833c5356caa13f055b740387c38b74b5f",
      "v": 28,
      "creates": null,
      "raw": "0xf86701850d29f8fa3883015f9094fbc1ab9a735012cf8aa4f8738c5811cdbf39a0c5822710801ca0b54da299449b67d64685300c4d62e5587c7da4811695d53a5eb617fc2dd91c6aa050896bd050b2f396376e5b86424fa80833c5356caa13f055b740387c38b74b5f",
      "networkId": 0,
      "chainId": 0
    }
  ]
}