{
  "hash": "0x3509c4a03e1e5b9cf7fe02b208ce375155f0ca3abd9ee131366755d5df9fc274",
  "parentHash": "0x2ac99060d92ba67ef0a001ff4426cbf304bada52c50b854ad6cc9cf88feb9100",
  "number": 75094,
  "timestamp": 1439397476,
  "nonce": "0x02b1e464be4fbf55",
  "difficulty": 2193349625943,
  "gasLimit": {
    "_hex": "0x2fefd8"
  },
  "gasUsed": {
    "_hex": "0x5208"
  },
  "miner": "0xF2d2AfF1320476cb8C6b607199D23175cc595693",
  "extraData": "0x476574682f76312e302e312f77696e646f77732f676f312e342e32",
  "transactions": [
    {
      "hash": "0xb1b0d9b8f1a674bab19eac771fcfed100b8a75f7b64fd49d4c3492ae67846564",
      "blockHash": "0x3509c4a03e1e5b9cf7fe02b208ce375155f0ca3abd9ee131366755d5df9fc274",
      "blockNumber": 75094,
      "transactionIndex": 0,
      "confirmations": null,
      "from": "0x1d5886c94A247eCaf060Ce8bBDD258B8521E7359",
      "gasPrice": {
        "_hex": "0xd138ee0ab"
      },
      "gasLimit": {
        "_hex": "0x5208"
      },
      "to": "0x32Be343B94f860124dC4fEe278FDCBD38C102D88",
      "value": {
        "_hex": "0xa2a158efe5f8800000"
      },
      "nonce": 1,
      "data": "0x",
      "r": "0x8b8c6aca3a172747561378d6ff7541bcb9965ba0e3b6b4c6adb9cde9caeea761",
      "s": "0x7be38019f30a2f4458ca6878ce05d72ee14b041d0768754a0909230335245ddd",
      "v": 27,
      "creates": null,
      "raw": "0xf86d01850d138ee0ab8252089432be343b94f860124dc4fee278fdcbd38c102d8889a2a158efe5f8800000801ba08b8c6aca3a172747561378d6ff7541bcb9965ba0e3b6b4c6adb9cde9caeea761a07be38019f30a2f4458ca6878ce05d72ee14b041d0768754a0909230335245ddd",
      "networkId": 0,
      "chainId": 0
    }
  ]
}