{
  "hash": "0x2e10571f1aa9799d5ebf7bd982a7c2f95bc4f87afbb2a86ebda26aa40d2269f2",
  "parentHash": "0xa3e234cf4cef24e284627b7dc8984c258275922226dfdd3be0f385543a8831c5",
  "number": 82991,
  "timestamp": 1439528127,
  "nonce": "0x08b367bcefdf6f52",
  "difficulty": 2407832048427,
  "gasLimit": {
    "_hex": "0x2fefd8"
  },
  "gasUsed": {
    "_hex": "0x5208"
  },
  "miner": "0x88D74a59454F6cF3B51ef6b9136AFb6b9D405A88",
  "extraData": "0x476574682f76312e302e312d37666266393930632f6c696e75782f676f312e34",
  "transactions": [
    {
      "hash": "0x431291b45bd6908ed87d11a8ecff8bddae0c9dc01cd0c9308acd971a48a7338d",
      "blockHash": "0x2e10571f1aa9799d5ebf7bd982a7c2f95bc4f87afbb2a86ebda26aa40d2269f2",
      "blockNumber": 82991,
      "transactionIndex": 0,
      "confirmations": null,
      "from": "0x97de56aE219114BEE14B61009E4F82a8F20a9c70",
      "gasPrice": {
        "_hex": "0xba43b7400"
      },
      "gasLimit": {
        "_hex": "0x5208"
      },
      "to": "0xC47Aaa860008be6f65B58c6C6E02a84e666EfE31",
      "value": {
        "_hex": "0x455fd68a17e11dc0"
      },
      "nonce": 0,
      "data": "0x",
      "r": "0x29e157e80e0bfa77c333b2abf1e93abe15a2da734e32abba2c69bf30c6fd2843",
      "s": "0x4d216e8904d3a06c323d44ebd4fbc17403df7740846123c7ab391334bc729e4c",
      "v": 27,
      "creates": null,
      "raw": "0xf86c80850ba43b740082520894c47aaa860008be6f65b58c6c6e02a84e666efe3188455fd68a17e11dc0801ba029e157e80e0bfa77c333b2abf1e93abe15a2da734e32abba2c69bf30c6fd2843a04d216e8904d3a06c323d44ebd4fbc17403df7740846123c7ab391334bc729e4c",
      "networkId": 0,
      "chainId": 0
    }
  ]
}