{
  "hash": "0xf8c63b6f7652cba223846365c16d118ab07e56dbf2fba31684a6d3325b62b8c8",
  "parentHash": "0xe9bc4c3e29d41f88069954996de8bfc4da0d3f00e1591bbb48801f7a8211cb42",
  "number": 62094,
  "timestamp": 1439183286,
  "nonce": "0x0fe59f90373db2ea",
  "difficulty": 1754826888604,
  "gasLimit": {
    "_hex": "0x2fefd8"
  },
  "gasUsed": {
    "_hex": "0x5208"
  },
  "miner": "0x55bAf64fc9eAccFFd7Cc643BB61142E1C6ac093e",
  "extraData": "0x",
  "transactions": [
    {
      "hash": "0x0d7ef49a7108348f1074797c2516017b1f8dd806ae4327cd17c92231fae383b9",
      "blockHash": "0xf8c63b6f7652cba223846365c16d118ab07e56dbf2fba31684a6d3325b62b8c8",
      "blockNumber": 62094,
      "transactionIndex": 0,
      "confirmations": null,
      "from": "0x9746c7e1ef2bd21FF3997fa467593a89cb852BD0",
      "gasPrice": {
        "_hex": "0xda74a7697"
      },
      "gasLimit": {
        "_hex": "0x5208"
      },
      "to": "0xB0bF4A71F730782368Ef660FE6D298F432F95450",
      "value": {
        "_hex": "0x1b1ae4d6e2ef500000"
      },
      "nonce": 13,
      "data": "0x",
      "r": "0xd9fcaa59fff1c61171111f703a3c6575d92fea5b2029adefb8baa0ee1cc64c6c",
      "s": "0x0a69903d000cbfe4573fa25bae4ad0a2892172e071d4f6c6b5501bc3e5ef1639",
      "v": 28,
      "creates": null,
      "raw": "0xf86d0d850da74a769782520894b0bf4a71f730782368ef660fe6d298f432f95450891b1ae4d6e2ef500000801ca0d9fcaa59fff1c61171111f703a3c6575d92fea5b2029adefb8baa0ee1cc64c6ca00a69903d000cbfe4573fa25bae4ad0a2892172e071d4f6c6b5501bc3e5ef1639",
      "networkId": 0,
      "chainId": 0
    }
  ]
}