{
  "hash": "0xaab8eecbc1f1aabbb6f006f1f0cd8a470ec043fd82e40a9d2fd5d75e67e47bcd",
  "parentHash": "0x6dcb26c10040b90f16f192b20e10066f696fde424455736d5b7da3b4a4a63a23",
  "number": 90905,
  "timestamp": 1439647277,
  "nonce": "0x57b54a7654236ccb",
  "difficulty": 3405662994742,
  "gasLimit": {
    "_hex": "0x2fefd8"
  },
  "gasUsed": {
    "_hex": "0x5208"
  },
  "miner": "0xB7268c7705A1866b2A78e882fdfDc8E2a4e1428E",
  "extraData": "0x476574682f76312e302e312f77696e646f77732f676f312e342e32",
  "transactions": [
    {
      "hash": "0xe4d78619925d19cbb5262b44efded663e799b1fdcd65715ffea7baa32b9f59c5",
      "blockHash": "0xaab8eecbc1f1aabbb6f006f1f0cd8a470ec043fd82e40a9d2fd5d75e67e47bcd",
      "blockNumber": 90905,
      "transactionIndex": 0,
      "confirmations": null,
      "from": "0x9dc5018E753A410593259039296bBfd28E29f894",
      "gasPrice": {
        "_hex": "0xdfb8caba2"
      },
      "gasLimit": {
        "_hex": "0x61a8"
      },
      "to": "0x50056353D06a71b1f427499419D04F81f5dE4F20",
      "value": {
        "_hex": "0x165a7913c492f7568"
      },
      "nonce": 1,
      "data": "0x",
      "r": "0x6e7f432a1de13ab4fa029a17b33e2482bbf3e4bfd5296f9fa325ae01dc16d3ae",
      "s": "0x53a8ef773608ca7d7dea28635007712c824ab84732f23dea21d1f687432d334c",
      "v": 28,
      "creates": null,
      "raw": "0xf86d01850dfb8caba28261a89450056353d06a71b1f427499419d04f81f5de4f20890165a7913c492f7568801ca06e7f432a1de13ab4fa029a17b33e2482bbf3e4bfd5296f9fa325ae01dc16d3aea053a8ef773608ca7d7dea28635007712c824ab84732f23dea21d1f687432d334c",
      "networkId": 0,
      "chainId": 0
    }
  ]
}