{
  "hash": "0xb77abefce1d39c428d322017ac84c3746f8146c451fe60f279d6e05359120c0b",
  "parentHash": "0x461cf9e357966da94ed68f2b5def6ff4d2f4a7f8d9e6db7e8030e7e9a8d38934",
  "number": 60866,
  "timestamp": 1439162898,
  "nonce": "0x5dee6420d3add610",
  "difficulty": 1734636447656,
  "gasLimit": {
    "_hex": "0x2fefd8"
  },
  "gasUsed": {
    "_hex": "0xa674"
  },
  "miner": "0xC49418429e58989172a4ACE0bab0cB8D3F00F97f",
  "extraData": "0x476574682f76312e302e312f6c696e75782f676f312e342e32",
  "transactions": [
    {
      "hash": "0xb32db30dec4e125f6822c8ac93ed33f864b97d2b59cc685d6cb40d11a7d6d36f",
      "blockHash": "0xb77abefce1d39c428d322017ac84c3746f8146c451fe60f279d6e05359120c0b",
      "blockNumber": 60866,
      "transactionIndex": 0,
      "confirmations": null,
      "from": "0xf622e584A6623eaaF99F2Be49e5380c5cbcF5cD8",
      "gasPrice": {
        "_hex": "0x11513c7165c"
      },
      "gasLimit": {
        "_hex": "0x7530"
      },
      "to": "0x5270Ce29F8Ce2baB6BF583521D83B42285Fcef37",
      "value": {
        "_hex": "0x56bc75e2d63100000"
      },
      "nonce": 0,
      "data": "0x",
      "r": "0x087838bd7cb3b39d2e876d4d0ed15926ff02335c8240d28b4b1dcbe1bd239bc6",
      "s": "0x67ec1a5a239848d79555fdaf5fc95158ca4d9664b37fe865c0bc025c3b902bf6",
      "v": 27,
      "creates": null,
      "raw": "0xf86e8086011513c7165c827530945270ce29f8ce2bab6bf583521d83b42285fcef3789056bc75e2d63100000801ba0087838bd7cb3b39d2e876d4d0ed15926ff02335c8240d28b4b1dcbe1bd239bc6a067ec1a5a239848d79555fdaf5fc95158ca4d9664b37fe865c0bc025c3b902bf6",
      "networkId": 0,
      "chainId": 0
    },
    {
      "hash": "0xae90fd6b6a31e6711bfad19f4238c8ad1b325c649edafe742cca8848721d9fcb",
      "blockHash": "0xb77abefce1d39c428d322017ac84c3746f8146c451fe60f279d6e05359120c0b",
      "blockNumber": 60866,
      "transactionIndex": 1,
      "confirmations": null,
      "from": "0x1284f0cee9D2fF2989b65574D06FFD9aB0F7B805",
      "gasPrice": {
        "_hex": "0x110c8f7d8de"
      },
      "gasLimit": {
        "_hex": "0xc350"
      },
      "to": "0x2910543Af39abA0Cd09dBb2D50200b3E800A63D2",
      "value": {
        "_hex": "0x15af1d78b58c40000"
      },
      "nonce": 0,
      "data": "0x454e34583231484752",
      "r": "0xa37a0f4dfd27ecfe6c86213a56e02bcac9badba427b25b27e048e570b9431655",
      "s": "0x42b38d133ed286715f0d60f8ef654f495c959ed0cae9ff990c8d84adbb66e96e",
      "v": 27,
      "creates": null,
      "raw": "0xf87780860110c8f7d8de82c350942910543af39aba0cd09dbb2d50200b3e800a63d289015af1d78b58c4000089454e345832314847521ba0a37a0f4dfd27ecfe6c86213a56e02bcac9badba427b25b27e048e570b9431655a042b38d133ed286715f0d60f8ef654f495c959ed0cae9ff990c8d84adbb66e96e",
      "networkId": 0,
      "chainId": 0
    }
  ]
}