{
  "hash": "0x6db3264dcf4a678123e4517da6c1df4c9e3478f2755762c4cee5f9e58361ec7f",
  "parentHash": "0x96f75103658106ce452820dc70dbaf57d970c2209f4b9f3cad10e3e7284140c0",
  "number": 52773,
  "timestamp": 1439027062,
  "nonce": "0x9bcd2290eeefe2b7",
  "difficulty": 1570925518527,
  "gasLimit": {
    "_hex": "0x197d56"
  },
  "gasUsed": {
    "_hex": "0x546c"
  },
  "miner": "0xbb7B8287f3F0a933474a79eAe42CBCa977791171",
  "extraData": "0x476574682f4c5649562f76312e302e312f6c696e75782f676f312e342e32",
  "transactions": [
    {
      "hash": "0x40ac05bb123b8e3353bc5e869e9db7cc13b1e9456ae1f3b5fcbcd11f57b42b43",
      "blockHash": "0x6db3264dcf4a678123e4517da6c1df4c9e3478f2755762c4cee5f9e58361ec7f",
      "blockNumber": 52773,
      "transactionIndex": 0,
      "confirmations": null,
      "from": "0x4d9279962029a8bd45639737E98b511eFF074C21",
      "gasPrice": {
        "_hex": "0xcbd0f802e"
      },
      "gasLimit": {
        "_hex": "0x7918"
      },
      "to": "0x2910543Af39abA0Cd09dBb2D50200b3E800A63D2",
      "value": {
        "_hex": "0xad78ebc5ac6200000"
      },
      "nonce": 5,
      "data": "0x454e47484e32375a52",
      "r": "0x2a947e6babf7794746fae3bcffa4467ec39d007e9901cd4b89c506c886c5a2af",
      "s": "0x2e9e100c203d6ec9e419aa726b302a057db6355428417ba57867f47904713c0e",
      "v": 27,
      "creates": null,
      "raw": "0xf87605850cbd0f802e827918942910543af39aba0cd09dbb2d50200b3e800a63d2890ad78ebc5ac620000089454e47484e32375a521ba02a947e6babf7794746fae3bcffa4467ec39d007e9901cd4b89c506c886c5a2afa02e9e100c203d6ec9e419aa726b302a057db6355428417ba57867f47904713c0e",
      "networkId": 0,
      "chainId": 0
    }
  ]
}