{
  "hash": "0xb082928c8dd462ceb22a31bb9d6d0012e5889678c0a12c21b8eb64ea7d2020d6",
  "parentHash": "0x6f8a5be36e17ef7ebe9e958f7ddecf99345d9dc3bffa025ae5767d6b1de28abc",
  "number": 71463,
  "timestamp": 1439336500,
  "nonce": "0xa72c5c262f316dee",
  "difficulty": 2178286404104,
  "gasLimit": {
    "_hex": "0x2fefd8"
  },
  "gasUsed": {
    "_hex": "0xaec1"
  },
  "miner": "0xbb7B8287f3F0a933474a79eAe42CBCa977791171",
  "extraData": "0x476574682f4c5649562f76312e302e312f6c696e75782f676f312e342e32",
  "transactions": [
    {
      "hash": "0xda1464906474a975b85e7570df048ce1dd77454c367cb59405c1bab79e469ca5",
      "blockHash": "0xb082928c8dd462ceb22a31bb9d6d0012e5889678c0a12c21b8eb64ea7d2020d6",
      "blockNumber": 71463,
      "transactionIndex": 0,
      "confirmations": null,
      "from": "0x17580B766f7453525ca4C6A88b01b50570EA088C",
      "gasPrice": {
        "_hex": "0xd6f9e455a"
      },
      "gasLimit": {
        "_hex": "0x61a80"
      },
      "to": "0x5Fe5B7546D1628f7348B023A0393de1FC825A4fD",
      "value": {
        "_hex": "0x4563918244f40000"
      },
      "nonce": 198,
      "data": "0xb595b8b50000000000000000000000000000000000000000000000000000000000000001",
      "r": "0xdf1bfdb084dd27c43918e5f1e98a5582c7b62d036796f0c9d671fef2c41551c3",
      "s": "0x095180883723dcf6b75200458ece5ff6578c887c9cfb04964473b6e89148d567",
      "v": 27,
      "creates": null,
      "raw": "0xf89281c6850d6f9e455a83061a80945fe5b7546d1628f7348b023a0393de1fc825a4fd884563918244f40000a4b595b8b500000000000000000000000000000000000000000000000000000000000000011ba0df1bfdb084dd27c43918e5f1e98a5582c7b62d036796f0c9d671fef2c41551c3a0095180883723dcf6b75200458ece5ff6578c887c9cfb04964473b6e89148d567",
      "networkId": 0,
      "chainId": 0
    }
  ]
}