{
  "hash": "0xa2db6e8612a84a75d534e8a2b7b3238d69f8e6b1705dd56c32193a80a91bea68",
  "parentHash": "0x7f366beed321cd48bf3c1649a939cd18a6c9e3e6f516825f833c136667224c0a",
  "number": 100753,
  "timestamp": 1439811800,
  "nonce": "0x8f8482cfe4ca45d4",
  "difficulty": 3843317714406,
  "gasLimit": {
    "_hex": "0x2fefd8"
  },
  "gasUsed": {
    "_hex": "0x5208"
  },
  "miner": "0xe6A7a1d47ff21B6321162AEA7C6CB457D5476Bca",
  "extraData": "0x476574682f76312e302e312d38326566323666362f6c696e75782f676f312e34",
  "transactions": [
    {
      "hash": "0xfb5da51e40c7017f1ec7144e6d3e8bce0435a4ddae75213e5ca0647ee68f92e6",
      "blockHash": "0xa2db6e8612a84a75d534e8a2b7b3238d69f8e6b1705dd56c32193a80a91bea68",
      "blockNumber": 100753,
      "transactionIndex": 0,
      "confirmations": null,
      "from": "0x007f7f58D3eb5b7510A301eCC749FC1fCDDBE14D",
      "gasPrice": {
        "_hex": "0xe0cfe7246"
      },
      "gasLimit": {
        "_hex": "0x15f90"
      },
      "to": "0xb1abce2918E21ddb93AA452731a12672A3d9F75a",
      "value": {
        "_hex": "0x4563918244f40000"
      },
      "nonce": 168,
      "data": "0x",
      "r": "0x178aeeb93c1028b8070c33ae995ffbdcf962cef5d0df009103e210464e0b914c",
      "s": "0x392a005f17e6ff168cb77786f29dc92b60d45857c0bf4142295feb202c5630f8",
      "v": 28,
      "creates": null,
      "raw": "0xf86e81a8850e0cfe724683015f9094b1abce2918e21ddb93aa452731a12672a3d9f75a884563918244f40000801ca0178aeeb93c1028b8070c33ae995ffbdcf962cef5d0df009103e210464e0b914ca0392a005f17e6ff168cb77786f29dc92b60d45857c0bf4142295feb202c5630f8",
      "networkId": 0,
      "chainId": 0
    }
  ]
}