{
  "hash": "0x4a079160e18b1c098c37590641671157ff4571968ff9d1248b407aa5d36e5955",
  "parentHash": "0xdefe0fbedc0cd4382c104c4249cb0017e67a32bf2c1f7bc2c0a96cba3fd9de7c",
  "number": 56521,
  "timestamp": 1439088459,
  "nonce": "0xa9b172dc16253709",
  "difficulty": 1663352831719,
  "gasLimit": {
    "_hex": "0x2fefd8"
  },
  "gasUsed": {
    "_hex": "0x5208"
  },
  "miner": "0x9D49F602b0fdb924Bd63DDE2Bd0907E4A07c63a7",
  "extraData": "0x476574682f76312e302e312f6c696e75782f676f312e342e32",
  "transactions": [
    {
      "hash": "0x6b331705ee02bb4a884c38959c9dbb9ef556f9b78a74f391a7635437f0da00a0",
      "blockHash": "0x4a079160e18b1c098c37590641671157ff4571968ff9d1248b407aa5d36e5955",
      "blockNumber": 56521,
      "transactionIndex": 0,
      "confirmations": null,
      "from": "0x120A270bbC009644e35F0bB6ab13f95b8199c4ad",
      "gasPrice": {
        "_hex": "0xda5f1f782"
      },
      "gasLimit": {
        "_hex": "0x15f90"
      },
      "to": "0xDD45B37884fc824a2b31C98BFAAeBAA24B59ED58",
      "value": {
        "_hex": "0x528eab41a60b82800"
      },
      "nonce": 29,
      "data": "0x",
      "r": "0x941f30ee4f65d1f0b7f913fb4b5a8b477b7991f8c85e733bf13798bf40e6611c",
      "s": "0x020102877ea8fe2360f4e6cc9d9e7169be621a4c66b4ce8c6a7fe579375b2a64",
      "v": 27,
      "creates": null,
      "raw": "0xf86e1d850da5f1f78283015f9094dd45b37884fc824a2b31c98bfaaebaa24b59ed58890528eab41a60b82800801ba0941f30ee4f65d1f0b7f913fb4b5a8b477b7991f8c85e733bf13798bf40e6611ca0020102877ea8fe2360f4e6cc9d9e7169be621a4c66b4ce8c6a7fe579375b2a64",
      "networkId": 0,
      "chainId": 0
    }
  ]
}