{
  "hash": "0x889d5ae45e883f31011aa75d1a6881efac233f75c44b2fdbdc177956a6dc4ed4",
  "parentHash": "0x4c1f662fb8e09bf094b0ed1d1cf497163e72f5530094c8afc6478c65c2537d78",
  "number": 80870,
  "timestamp": 1439492415,
  "nonce": "0xecff9e009e87854b",
  "difficulty": 2442787433337,
  "gasLimit": {
    "_hex": "0x2fefd8"
  },
  "gasUsed": {
    "_hex": "0xf87c"
  },
  "miner": "0x9746c7e1ef2bd21FF3997fa467593a89cb852BD0",
  "extraData": "0x476574682f76312e302e312f77696e646f77732f676f312e342e32",
  "transactions": [
    {
      "hash": "0xdc533da40f20339a5c4eb298425cab8502d77c93609932fe1544d8a4cbefc61f",
      "blockHash": "0x889d5ae45e883f31011aa75d1a6881efac233f75c44b2fdbdc177956a6dc4ed4",
      "blockNumber": 80870,
      "transactionIndex": 0,
      "confirmations": null,
      "from": "0x860F5ffc10dE767DeD807f71e861D647dFD219b1",
      "gasPrice": {
        "_hex": "0x110c8f7d8de"
      },
      "gasLimit": {
        "_hex": "0xc350"
      },
      "to": "0x2910543Af39abA0Cd09dBb2D50200b3E800A63D2",
      "value": {
        "_hex": "0x3635c9adc5dea00000"
      },
      "nonce": 1,
      "data": "0x454e54423131415430",
      "r": "0x9785c42b90c0ca21e5000dae9e3c76acdf8533220a355bda48d3c0f616fd776c",
      "s": "0x96d683eced0e5d20ed722d30da335a99babfbe28f626912bf4bf39a1e890aba0",
      "v": 28,
      "creates": null,
      "raw": "0xf87701860110c8f7d8de82c350942910543af39aba0cd09dbb2d50200b3e800a63d2893635c9adc5dea0000089454e544231314154301ca09785c42b90c0ca21e5000dae9e3c76acdf8533220a355bda48d3c0f616fd776ca096d683eced0e5d20ed722d30da335a99babfbe28f626912bf4bf39a1e890aba0",
      "networkId": 0,
      "chainId": 0
    },
    {
      "hash": "0x8fd84572f0edc445e5cc05560b840e703523530b001925ca71c4552f4cdecd80",
      "blockHash": "0x889d5ae45e883f31011aa75d1a6881efac233f75c44b2fdbdc177956a6dc4ed4",
      "blockNumber": 80870,
      "transactionIndex": 1,
      "confirmations": null,
      "from": "0xf747F959535B01d4BfDAB64A40DB48D0D6c68edb",
      "gasPrice": {
        "_hex": "0xba43b7400"
      },
      "gasLimit": {
        "_hex": "0x5208"
      },
      "to": "0xC47Aaa860008be6f65B58c6C6E02a84e666EfE31",
      "value": {
        "_hex": "0x60cc0011f40d1dc0"
      },
      "nonce": 2,
      "data": "0x",
      "r": "0x3b40639c2065a0e42fc7bfb1348f6f0fc9f2af4b854138bdbcfca13a605b0fdc",
      "s": "0x25eeaba4c442901a6c573cd8574f0430e7f78e11df8d05261ee9da49c58c1da4",
      "v": 27,
      "creates": null,
      "raw": "0xf86c02850ba43b740082520894c47aaa860008be6f65b58c6c6e02a84e666efe318860cc0011f40d1dc0801ba03b40639c2065a0e42fc7bfb1348f6f0fc9f2af4b854138bdbcfca13a605b0fdca025eeaba4c442901a6c573cd8574f0430e7f78e11df8d05261ee9da49c58c1da4",
      "networkId": 0,
      "chainId": 0
    },
    {
      "hash": "0xddb2ea4e6d81ad4438123635379f90272a91016668fb123957ffcc8c1baae294",
      "blockHash": "0x889d5ae45e883f31011aa75d1a6881efac233f75c44b2fdbdc177956a6dc4ed4",
      "blockNumber": 80870,
      "transactionIndex": 2,
      "confirmations": null,
      "from": "0xD378eb142Ad654E0bd8296DafCc5c4874EC40445",
      "gasPrice": {
        "_hex": "0xba43b7400"
      },
      "gasLimit": {
        "_hex": "0x5208"
      },
      "to": "0xC47Aaa860008be6f65B58c6C6E02a84e666EfE31",
      "value": {
        "_hex": "0x15ad0457016bcadc0"
      },
      "nonce": 3,
      "data": "0x",
      "r": "0x9c98b4200ad74dcb300e2677a799d0f704b56d7d9ce6bf499f9f58cdaee846d8",
      "s": "0x45dea06acc50166cc8a2467da0b0e54faf8aaf96085ec10ea87ea5fc6959b43b",
      "v": 28,
      "creates": null,
      "raw": "0xf86d03850ba43b740082520894c47aaa860008be6f65b58c6c6e02a84e666efe3189015ad0457016bcadc0801ca09c98b4200ad74dcb300e2677a799d0f704b56d7d9ce6bf499f9f58cdaee846d8a045dea06acc50166cc8a2467da0b0e54faf8aaf96085ec10ea87ea5fc6959b43b",
      "networkId": 0,
      "chainId": 0
    }
  ]
}