{
  "hash": "0x0cc7750505799945e5faafe64cea73d69aac5f7eb44e034205240e75fa82c4da",
  "parentHash": "0x6abfc8c3e633b4323a65d7cbecee0cf7de305a6bee82101b4f560ee1f28583fe",
  "number": 85541,
  "timestamp": 1439565263,
  "nonce": "0xa1dded243a95c8fd",
  "difficulty": 2757060269089,
  "gasLimit": {
    "_hex": "0x2fefd8"
  },
  "gasUsed": {
    "_hex": "0x5208"
  },
  "miner": "0x31995C46B15C84523cDEE26f49A681b8237e43F5",
  "extraData": "0x476574682f76312e302e312f77696e646f77732f676f312e342e32",
  "transactions": [
    {
      "hash": "0x7640ae27ba71b5dacac42aea92ca55769c1d40772771184ecda82dc0b7aa2e60",
      "blockHash": "0x0cc7750505799945e5faafe64cea73d69aac5f7eb44e034205240e75fa82c4da",
      "blockNumber": 85541,
      "transactionIndex": 0,
      "confirmations": null,
      "from": "0x5b7784caeA01799cA30227827667CE207C5CBc76",
      "gasPrice": {
        "_hex": "0xdfb78db1a"
      },
      "gasLimit": {
        "_hex": "0x5208"
      },
      "to": "0x0B5D1D51C62F23d80e14EC7B5922c37cC75f25EB",
      "value": {
        "_hex": "0x6c6b82d3e977ba6550"
      },
      "nonce": 2,
      "data": "0x",
      "r": "0xae44987c0effab46f3bb9228c0cf6fd949f21c801670b390371df69e4a07d62f",
      "s": "0x2ac1088e6ce1a657a16f94aff2f9dd76dc1818c461bed91416981dfe9dd884af",
      "v": 27,
      "creates": null,
      "raw": "0xf86d02850dfb78db1a825208940b5d1d51c62f23d80e14ec7b5922c37cc75f25eb896c6b82d3e977ba6550801ba0ae44987c0effab46f3bb9228c0cf6fd949f21c801670b390371df69e4a07d62fa02ac1088e6ce1a657a16f94aff2f9dd76dc1818c461bed91416981dfe9dd884af",
      "networkId": 0,
      "chainId": 0
    }
  ]
}