{
  "hash": "0xb8d13e8b9c39eda92d295a541eae0a48ae8feaac54565a0eb831b111ab170e17",
  "parentHash": "0x2b2f9ed0e0dd28c64e034c8f09ac803acb43aa5b2709efbb1a0b30cf1086d32c",
  "number": 76511,
  "timestamp": 1439421800,
  "nonce": "0xb36317efe14674f9",
  "difficulty": 2226426169265,
  "gasLimit": {
    "_hex": "0x2fefd8"
  },
  "gasUsed": {
    "_hex": "0x5208"
  },
  "miner": "0xF0a3af9e925b07D1FAA4ddF8beBfAA86B7B95e33",
  "extraData": "0x476574682f76312e302e312d37666266393930632f6c696e75782f676f312e34",
  "transactions": [
    {
      "hash": "0xad1ffd0b178dfa584f52f9e8e776170df3148f7d9a27b7fa33a6a44718b2edb7",
      "blockHash": "0xb8d13e8b9c39eda92d295a541eae0a48ae8feaac54565a0eb831b111ab170e17",
      "blockNumber": 76511,
      "transactionIndex": 0,
      "confirmations": null,
      "from": "0x1D610182baEfdE3f816B9E2538399e98AF619Ff0",
      "gasPrice": {
        "_hex": "0xd60340b78"
      },
      "gasLimit": {
        "_hex": "0x15f90"
      },
      "to": "0xC25f24A505b8fEF751D8f4FCc397651001F7a160",
      "value": {
        "_hex": "0xd0072d945f1b0000"
      },
      "nonce": 0,
      "data": "0x",
      "r": "0x95e0698c379e37e5e8aded60336e1278dadc44800ff0f92e1af923d8625216fc",
      "s": "0x40c25ef02903eebb1f3638b35dd713624d6e7a49ee93dad8ab893c4f6da387f6",
      "v": 28,
      "creates": null,
      "raw": "0xf86d80850d60340b7883015f9094c25f24a505b8fef751d8f4fcc397651001f7a16088d0072d945f1b0000801ca095e0698c379e37e5e8aded60336e1278dadc44800ff0f92e1af923d8625216fca040c25ef02903eebb1f3638b35dd713624d6e7a49ee93dad8ab893c4f6da387f6",
      "networkId": 0,
      "chainId": 0
    }
  ]
}