{
  "hash": "0x0302e898c887086c373bdaeee8429b915ae8d54079c7dbed09c7455e2366a658",
  "parentHash": "0x0f35d1d8a254aeff2a5e4eda4b2958ce619efbc09230ac413a6a6b5a143cd70f",
  "number": 63931,
  "timestamp": 1439212611,
  "nonce": "0x101871c71119da2c",
  "difficulty": 1846737854820,
  "gasLimit": {
    "_hex": "0x2fefd8"
  },
  "gasUsed": {
    "_hex": "0x5208"
  },
  "miner": "0xbb7B8287f3F0a933474a79eAe42CBCa977791171",
  "extraData": "0x476574682f4c5649562f76312e302e312f6c696e75782f676f312e342e32",
  "transactions": [
    {
      "hash": "0x8d397fbc91f84bf454ef58ee362f948ba052abee5f2f1c7be5da1b180bc427d0",
      "blockHash": "0x0302e898c887086c373bdaeee8429b915ae8d54079c7dbed09c7455e2366a658",
      "blockNumber": 63931,
      "transactionIndex": 0,
      "confirmations": null,
      "from": "0xA10C59651885FeAaac91F871082a23BBbaBeDfCf",
      "gasPrice": {
        "_hex": "0x1177ba69836"
      },
      "gasLimit": {
        "_hex": "0x5208"
      },
      "to": "0x4c74B6F32c9680aCB5Fe0e72B7Aa95C612540A04",
      "value": {
        "_hex": "0x56bc75e2d63100000"
      },
      "nonce": 10,
      "data": "0x",
      "r": "0x4ac886b87dbe4dc5aa698f6516bcb5e64fbbfba694b16e10ba3879245cc7a7cb",
      "s": "0x0892593c3424045b0af197df0091cc850b235726a65a31e6b38eba4a88989b36",
      "v": 28,
      "creates": null,
      "raw": "0xf86e0a8601177ba69836825208944c74b6f32c9680acb5fe0e72b7aa95c612540a0489056bc75e2d63100000801ca04ac886b87dbe4dc5aa698f6516bcb5e64fbbfba694b16e10ba3879245cc7a7cba00892593c3424045b0af197df0091cc850b235726a65a31e6b38eba4a88989b36",
      "networkId": 0,
      "chainId": 0
    }
  ]
}