{
  "hash": "0x4cd691ba1fc22855ef79855b32b93411439ac7ead6f50f484cd61862707ba156",
  "parentHash": "0x67655f25be39c9c3507b0d8fdfb35bfc3e02a26d45af40549661237ea7ebd860",
  "number": 119495,
  "timestamp": 1440143915,
  "nonce": "0xd6028ec07e8e9ea5",
  "difficulty": 4392260255595,
  "gasLimit": {
    "_hex": "0x2fefd8"
  },
  "gasUsed": {
    "_hex": "0xa410"
  },
  "miner": "0x790b8a3cE86E707ED0eD32bF89B3269692a23CC1",
  "extraData": "0xd783010002844765746887676f312e342e32856c696e7578",
  "transactions": [
    {
      "hash": "0x9bcdd8ce13ab41d8d5fecdbffc709d0b6d23c600ec1fd23c1716bb9c453d7eae",
      "blockHash": "0x4cd691ba1fc22855ef79855b32b93411439ac7ead6f50f484cd61862707ba156",
      "blockNumber": 119495,
      "transactionIndex": 0,
      "confirmations": null,
      "from": "0x770E2DE60A56861F14ff290b17748CE8f576aa8f",
      "gasPrice": {
        "_hex": "0xba43b7400"
      },
      "gasLimit": {
        "_hex": "0x5208"
      },
      "to": "0x32Be343B94f860124dC4fEe278FDCBD38C102D88",
      "value": {
        "_hex": "0xeda6c1dd73f11000"
      },
      "nonce": 4,
      "data": "0x",
      "r": "0x6551e25a0e52197d0647328e70f56f3250a653d8665ca30cdaf09d735fc3027f",
      "s": "0x374341063bad56378db2004acbb07351e88e4ae2997aa2ffd9e7242c0ed232ec",
      "v": 27,
      "creates": null,
      "raw": "0xf86c04850ba43b74008252089432be343b94f860124dc4fee278fdcbd38c102d8888eda6c1dd73f11000801ba06551e25a0e52197d0647328e70f56f3250a653d8665ca30cdaf09d735fc3027fa0374341063bad56378db2004acbb07351e88e4ae2997aa2ffd9e7242c0ed232ec",
      "networkId": 0,
      "chainId": 0
    },
    {
      "hash": "0xf53f2694e9242e2aa3b8e0c98be251ae8189f3f10bf4b7d94221cfd41da0915d",
      "blockHash": "0x4cd691ba1fc22855ef79855b32b93411439ac7ead6f50f484cd61862707ba156",
      "blockNumber": 119495,
      "transactionIndex": 1,
      "confirmations": null,
      "from": "0xA338ba84d5d4734988a5Ed5CabC55ed61371e198",
      "gasPrice": {
        "_hex": "0xba43b7400"
      },
      "gasLimit": {
        "_hex": "0x5208"
      },
      "to": "0x32Be343B94f860124dC4fEe278FDCBD38C102D88",
      "value": {
        "_hex": "0xdc261c7f2cf7a000"
      },
      "nonce": 4,
      "data": "0x",
      "r": "0x0e58ddeb6b075b9360e5d94ef4b3d3a863b31b7b384debd289b41bb5dc4efb78",
      "s": "0x08ce12e375cc161d26346a86e169c639a98ca18318b884ab2721147a5cbe3114",
      "v": 28,
      "creates": null,
      "raw": "0xf86c04850ba43b74008252089432be343b94f860124dc4fee278fdcbd38c102d8888dc261c7f2cf7a000801ca00e58ddeb6b075b9360e5d94ef4b3d3a863b31b7b384debd289b41bb5dc4efb78a008ce12e375cc161d26346a86e169c639a98ca18318b884ab2721147a5cbe3114",
      "networkId": 0,
      "chainId": 0
    }
  ]
}