{
  "hash": "0xab9265c32d64b680303a05c39a9f32eed0654acdbc261183d0041bd42ad36a68",
  "parentHash": "0xefc51e3582fa50f9eb9ad5874f7b6c8c4b62412f6d7d0d622e98ac4ad2d49f86",
  "number": 107141,
  "timestamp": 1439916840,
  "nonce": "0x685cb9998daeb4d8",
  "difficulty": 4463642378777,
  "gasLimit": {
    "_hex": "0x2fefd8"
  },
  "gasUsed": {
    "_hex": "0x5208"
  },
  "miner": "0xe6A7a1d47ff21B6321162AEA7C6CB457D5476Bca",
  "extraData": "0x476574682f76312e302e312d38326566323666362f6c696e75782f676f312e34",
  "transactions": [
    {
      "hash": "0xddd3c76bfc66a8b251fb82b137d0bb3e20f3fe0807e622bef2e208ebcc115226",
      "blockHash": "0xab9265c32d64b680303a05c39a9f32eed0654acdbc261183d0041bd42ad36a68",
      "blockNumber": 107141,
      "transactionIndex": 0,
      "confirmations": null,
      "from": "0xc597A5d92F5dC1137D847db733cfe02c6d209f13",
      "gasPrice": {
        "_hex": "0xba43b7400"
      },
      "gasLimit": {
        "_hex": "0x15f90"
      },
      "to": "0x5F965F10e1BD020753Ca496fee6b3E4D809aff67",
      "value": {
        "_hex": "0x15ac56edc4d12b000"
      },
      "nonce": 41,
      "data": "0x",
      "r": "0x4acfc537ae1e7fd4cecd541fa784133a70e9fefee6772c328f4870c962d1aff0",
      "s": "0x1f474704ff015638757c3ed1ec733f1b32a96c65ab7b3c7cb0e987d697c60405",
      "v": 28,
      "creates": null,
      "raw": "0xf86e29850ba43b740083015f90945f965f10e1bd020753ca496fee6b3e4d809aff6789015ac56edc4d12b000801ca04acfc537ae1e7fd4cecd541fa784133a70e9fefee6772c328f4870c962d1aff0a01f474704ff015638757c3ed1ec733f1b32a96c65ab7b3c7cb0e987d697c60405",
      "networkId": 0,
      "chainId": 0
    }
  ]
}