{
  "hash": "0xe9e2f1e3cf97cb2796d0ff2439c53f121c3780198d21b601e2800b4e67e9534c",
  "parentHash": "0xa396a91843fd59f2dc4325d2fb799139d05b299695a046d7bcec9694b0030a63",
  "number": 114139,
  "timestamp": 1440035521,
  "nonce": "0x52bf4a87d0396e01",
  "difficulty": 4451217960540,
  "gasLimit": {
    "_hex": "0x2fefd8"
  },
  "gasUsed": {
    "_hex": "0x5208"
  },
  "miner": "0x790b8a3cE86E707ED0eD32bF89B3269692a23CC1",
  "extraData": "0xd783010001844765746887676f312e342e32856c696e7578",
  "transactions": [
    {
      "hash": "0xc3314741b4a792912cb9236c69f347948748b44ca0951b52277bb0193534a188",
      "blockHash": "0xe9e2f1e3cf97cb2796d0ff2439c53f121c3780198d21b601e2800b4e67e9534c",
      "blockNumber": 114139,
      "transactionIndex": 0,
      "confirmations": null,
      "from": "0x900a0A6428078594b201108ebF8f8A8446E86fbA",
      "gasPrice": {
        "_hex": "0xd5a7d5a88"
      },
      "gasLimit": {
        "_hex": "0x15f90"
      },
      "to": "0x839004d04F48410856d9D43fdd18Ee8453bBd8f5",
      "value": {
        "_hex": "0x1bc16d674ec80000"
      },
      "nonce": 1,
      "data": "0x",
      "r": "0x8cf3df969ca9d2ea3b9c0fa60d3cc003af36edd827fbfebfb03406ea200da27e",
      "s": "0x75f3e3f5013b4c52704542b5d054bdafc7d418af11316e5ccd5af16a4da7674c",
      "v": 28,
      "creates": null,
      "raw": "0xf86d01850d5a7d5a8883015f9094839004d04f48410856d9d43fdd18ee8453bbd8f5881bc16d674ec80000801ca08cf3df969ca9d2ea3b9c0fa60d3cc003af36edd827fbfebfb03406ea200da27ea075f3e3f5013b4c52704542b5d054bdafc7d418af11316e5ccd5af16a4da7674c",
      "networkId": 0,
      "chainId": 0
    }
  ]
}