{
  "hash": "0x8ef0bdb014d2eea085dc2edbade0d4084e5225ded2d1dfc2cc1766de5861bd9f",
  "parentHash": "0xc38681705151e838f08005572bf50a579527ed24fccd66bbca10d6d52d3dedd9",
  "number": 53989,
  "timestamp": 1439046927,
  "nonce": "0x7e5b161ba1872721",
  "difficulty": 1607945844274,
  "gasLimit": {
    "_hex": "0x2fefd8"
  },
  "gasUsed": {
    "_hex": "0xa6d0"
  },
  "miner": "0x8B454d830feF179e66206840F8F3D1d83bC32b17",
  "extraData": "0x476574682f76312e302e312f77696e646f77732f676f312e342e32",
  "transactions": [
    {
      "hash": "0x675d4c95445b6d1587aaffc207742053bf0facb84331477641eea5477a17a39a",
      "blockHash": "0x8ef0bdb014d2eea085dc2edbade0d4084e5225ded2d1dfc2cc1766de5861bd9f",
      "blockNumber": 53989,
      "transactionIndex": 0,
      "confirmations": null,
      "from": "0x4BD5f0Ee173C81d42765154865EE69361b6aD189",
      "gasPrice": {
        "_hex": "0x746a528800"
      },
      "gasLimit": {
        "_hex": "0x5dc4"
      },
      "to": "0x2910543Af39abA0Cd09dBb2D50200b3E800A63D2",
      "value": {
        "_hex": "0xde0b6b3a7640000"
      },
      "nonce": 6,
      "data": "0x0000000000000000000000000000000000000000000000454e465631595a3552",
      "r": "0x600338c00e64815e88876e8d5691046f244e724b9c22c3d901da4b6a4a5b1634",
      "s": "0x13497c499fa7728280185d3f2c21b2278ab3bd0ac651b20c15387a281ce72527",
      "v": 28,
      "creates": null,
      "raw": "0xf88c0685746a528800825dc4942910543af39aba0cd09dbb2d50200b3e800a63d2880de0b6b3a7640000a00000000000000000000000000000000000000000000000454e465631595a35521ca0600338c00e64815e88876e8d5691046f244e724b9c22c3d901da4b6a4a5b1634a013497c499fa7728280185d3f2c21b2278ab3bd0ac651b20c15387a281ce72527",
      "networkId": 0,
      "chainId": 0
    },
    {
      "hash": "0x423a89ae3fa471502c03e1d79e5fad8fa3637aea0e9687396315fe1a60687143",
      "blockHash": "0x8ef0bdb014d2eea085dc2edbade0d4084e5225ded2d1dfc2cc1766de5861bd9f",
      "blockNumber": 53989,
      "transactionIndex": 1,
      "confirmations": null,
      "from": "0x4F68024B7CEB5ca92e7308BD08e523c632C0c739",
      "gasPrice": {
        "_hex": "0xd479fde78"
      },
      "gasLimit": {
        "_hex": "0x15f90"
      },
      "to": null,
      "value": {
        "_hex": "0xb1a2bc2ec50000"
      },
      "nonce": 0,
      "data": "0x",
      "r": "0xdd543430e6aa9b7337b3708c7477236af91a4bb876836ef0f7cad68ad4bc4eab",
      "s": "0x4c489d74ee7ae3e6b82f6ff5a0cbbaa35b36b1200abbd43e601f7e7f0c224564",
      "v": 28,
      "creates": "0x9B4364943c18C594d11E7a4484c40F41FcE7c9Be",
      "raw": "0xf85880850d479fde7883015f908087b1a2bc2ec50000801ca0dd543430e6aa9b7337b3708c7477236af91a4bb876836ef0f7cad68ad4bc4eaba04c489d74ee7ae3e6b82f6ff5a0cbbaa35b36b1200abbd43e601f7e7f0c224564",
      "networkId": 0,
      "chainId": 0
    }
  ]
}