{
  "hash": "0xd0e580c95f47d1e1cdf1452fa1efa38a68bf5fab7348b5730b28460cd53ee1be",
  "parentHash": "0x9b5defe801d6780fa2235f2a02062d6f1519e9cd67fdbf60e3d3d50d3e7bcc88",
  "number": 52637,
  "timestamp": 1439024921,
  "nonce": "0x6ed16a8f0717dbee",
  "difficulty": 1566355326685,
  "gasLimit": {
    "_hex": "0x16bddc"
  },
  "gasUsed": {
    "_hex": "0xf4240"
  },
  "miner": "0xf927a40C8B7F6E07c5af7FA2155B4864a4112B13",
  "extraData": "0x476574682f76312e302e312f6c696e75782f676f312e342e32",
  "transactions": [
    {
      "hash": "0x71d48940dacf9d313c4e83135cb5cc3b9c98eca4653fdf6d52175078daa400cd",
      "blockHash": "0xd0e580c95f47d1e1cdf1452fa1efa38a68bf5fab7348b5730b28460cd53ee1be",
      "blockNumber": 52637,
      "transactionIndex": 0,
      "confirmations": null,
      "from": "0x54dAeb3E8a6BBC797E4aD2b0339f134b186e4637",
      "gasPrice": {
        "_hex": "0xe1780dfbb"
      },
      "gasLimit": {
        "_hex": "0x7a120"
      },
      "to": "0xBAA54d6E90c3F4d7Ebec11bD180134C7eD8eBb52",
      "value": {
        "_hex": "0x16345785d8a0000"
      },
      "nonce": 831,
      "data": "0x",
      "r": "0xcd8c2e5be798ee50dd7c5572d426c0d25c374ca3ca6a0bb8a5f6576578de71b4",
      "s": "0x2aec046737b33a6bfe0cbe7641bf77316ac435bad44da49b30fbd0c4a77ee551",
      "v": 28,
      "creates": null,
      "raw": "0xf86f82033f850e1780dfbb8307a12094baa54d6e90c3f4d7ebec11bd180134c7ed8ebb5288016345785d8a0000801ca0cd8c2e5be798ee50dd7c5572d426c0d25c374ca3ca6a0bb8a5f6576578de71b4a02aec046737b33a6bfe0cbe7641bf77316ac435bad44da49b30fbd0c4a77ee551",
      "networkId": 0,
      "chainId": 0
    },
    {
      "hash": "0x7905dbb2a984b976aec0d178d73899041b1e68dd2f3b09cf8000d3c1627ff18c",
      "blockHash": "0xd0e580c95f47d1e1cdf1452fa1efa38a68bf5fab7348b5730b28460cd53ee1be",
      "blockNumber": 52637,
      "transactionIndex": 1,
      "confirmations": null,
      "from": "0x54dAeb3E8a6BBC797E4aD2b0339f134b186e4637",
      "gasPrice": {
        "_hex": "0xdada9c769"
      },
      "gasLimit": {
        "_hex": "0x7a120"
      },
      "to": "0xBAA54d6E90c3F4d7Ebec11bD180134C7eD8eBb52",
      "value": {
        "_hex": "0x16345785d8a0000"
      },
      "nonce": 832,
      "data": "0x",
      "r": "0xda3ebce0e369cf93dbf6fee12941043e60af87f72a4345947d8a66457517a783",
      "s": "0x09419a29255bd1531c6f510194a1796d3478b29764fc777780aabbb33ff36b5c",
      "v": 27,
      "creates": null,
      "raw": "0xf86f820340850dada9c7698307a12094baa54d6e90c3f4d7ebec11bd180134c7ed8ebb5288016345785d8a0000801ba0da3ebce0e369cf93dbf6fee12941043e60af87f72a4345947d8a66457517a783a009419a29255bd1531c6f510194a1796d3478b29764fc777780aabbb33ff36b5c",
      "networkId": 0,
      "chainId": 0
    }
  ]
}