{
  "hash": "0x6c6f534c1f8736bf65a04d7cae35bb77a46ecb3b81bb946e3158f3676d60efcd",
  "parentHash": "0x2161ce8ccffb340ea7d06145997adff181e321a168f296f50eb38c3e1965c0fd",
  "number": 81868,
  "timestamp": 1439509252,
  "nonce": "0x86721f230f3e2de2",
  "difficulty": 2414040877810,
  "gasLimit": {
    "_hex": "0x2fefd8"
  },
  "gasUsed": {
    "_hex": "0x5208"
  },
  "miner": "0x365E6b1145B179761f29a21aa93A6d4E015Ab597",
  "extraData": "0x",
  "transactions": [
    {
      "hash": "0x1e5682e4bfb08fcc86319e6b98c3e67e9c58b0c54f5a68b70f1d2a7249b6a9b1",
      "blockHash": "0x6c6f534c1f8736bf65a04d7cae35bb77a46ecb3b81bb946e3158f3676d60efcd",
      "blockNumber": 81868,
      "transactionIndex": 0,
      "confirmations": null,
      "from": "0xFD7c9117BbEB649d9b37B3D3C9917f7c12f526B3",
      "gasPrice": {
        "_hex": "0xd0ed04881"
      },
      "gasLimit": {
        "_hex": "0x5208"
      },
      "to": "0x32Be343B94f860124dC4fEe278FDCBD38C102D88",
      "value": {
        "_hex": "0x1043401d36e45a0000"
      },
      "nonce": 15,
      "data": "0x",
      "r": "0xd8ec6d0ed3dc5d3ca1eb4258e214a806b0ce95b027caef4ca25aab98aadac2c2",
      "s": "0x475423f80ad5301e0f95552a1bd895bb543b0a6098ed520d7f7e85f88a0c2786",
      "v": 28,
      "creates": null,
      "raw": "0xf86d0f850d0ed048818252089432be343b94f860124dc4fee278fdcbd38c102d88891043401d36e45a0000801ca0d8ec6d0ed3dc5d3ca1eb4258e214a806b0ce95b027caef4ca25aab98aadac2c2a0475423f80ad5301e0f95552a1bd895bb543b0a6098ed520d7f7e85f88a0c2786",
      "networkId": 0,
      "chainId": 0
    }
  ]
}