{
  "hash": "0x2d0072443a73aef72389b396957fc6bdd33bbfefb1454c178f4d4a3e27d3ef48",
  "parentHash": "0x4b6e31c944750b02b35992430181ce9b3c673def0cbfec25ce582e24c0d1b86d",
  "number": 101397,
  "timestamp": 1439822376,
  "nonce": "0x97a7ff8b69f446b1",
  "difficulty": 3831780291176,
  "gasLimit": {
    "_hex": "0x2fefd8"
  },
  "gasUsed": {
    "_hex": "0xa410"
  },
  "miner": "0xe6A7a1d47ff21B6321162AEA7C6CB457D5476Bca",
  "extraData": "0x476574682f76312e302e312d38326566323666362f6c696e75782f676f312e34",
  "transactions": [
    {
      "hash": "0x357dc4a2fccb3d6b0a31732de8eb9543fbff708023d44f37a02aa58716005d2a",
      "blockHash": "0x2d0072443a73aef72389b396957fc6bdd33bbfefb1454c178f4d4a3e27d3ef48",
      "blockNumber": 101397,
      "transactionIndex": 0,
      "confirmations": null,
      "from": "0xa6BDc31c431B8F97848c9D60cbbe9660dc450eB7",
      "gasPrice": {
        "_hex": "0xd98e49f89"
      },
      "gasLimit": {
        "_hex": "0x5208"
      },
      "to": "0x32Be343B94f860124dC4fEe278FDCBD38C102D88",
      "value": {
        "_hex": "0x8acb696bfb02d000"
      },
      "nonce": 153,
      "data": "0x",
      "r": "0x028e83564c58a4d1437ff1bf8ddf30956541eeb487c879ba1a04de9ca8478481",
      "s": "0x7af8dc8e9a25768572d68cdfffad1a16800ab797e484487f344e15638f50ef7e",
      "v": 27,
      "creates": null,
      "raw": "0xf86d8199850d98e49f898252089432be343b94f860124dc4fee278fdcbd38c102d88888acb696bfb02d000801ba0028e83564c58a4d1437ff1bf8ddf30956541eeb487c879ba1a04de9ca8478481a07af8dc8e9a25768572d68cdfffad1a16800ab797e484487f344e15638f50ef7e",
      "networkId": 0,
      "chainId": 0
    },
    {
      "hash": "0xff4b4d6caa9e3d192cb5d18b704ebee53e830d6747a6ab21787027ceabd6cf9b",
      "blockHash": "0x2d0072443a73aef72389b396957fc6bdd33bbfefb1454c178f4d4a3e27d3ef48",
      "blockNumber": 101397,
      "transactionIndex": 1,
      "confirmations": null,
      "from": "0x120A270bbC009644e35F0bB6ab13f95b8199c4ad",
      "gasPrice": {
        "_hex": "0xcdbd7f77c"
      },
      "gasLimit": {
        "_hex": "0x3d090"
      },
      "to": "0xdDbddD1BBd38fFADE0305d30f02028D92e9f3Aa8",
      "value": {
        "_hex": "0x105bf7f120fac1000"
      },
      "nonce": 676,
      "data": "0x",
      "r": "0xa3c3ee611cd5238aaad9d9a982a9579a829fa1b13faa167711a22a258a6b680f",
      "s": "0x6c1afad20f1ea79e0823fa412b17b73ce53ac0e8ebd65a5e3bfa0274331bc810",
      "v": 28,
      "creates": null,
      "raw": "0xf8708202a4850cdbd7f77c8303d09094ddbddd1bbd38ffade0305d30f02028d92e9f3aa8890105bf7f120fac1000801ca0a3c3ee611cd5238aaad9d9a982a9579a829fa1b13faa167711a22a258a6b680fa06c1afad20f1ea79e0823fa412b17b73ce53ac0e8ebd65a5e3bfa0274331bc810",
      "networkId": 0,
      "chainId": 0
    }
  ]
}