{
  "hash": "0xa07ed6798bb69b07daf32d3bbf191ae472a4899b19fbcd78f53e9faaf812405d",
  "parentHash": "0xb507bcc7f6d9eac78589c2edd0cbe1cb37d8a320029f93000784f2b489579c4c",
  "number": 112365,
  "timestamp": 1440006288,
  "nonce": "0x30477a8010dbcd68",
  "difficulty": 4404589417155,
  "gasLimit": {
    "_hex": "0x2fefd8"
  },
  "gasUsed": {
    "_hex": "0xa410"
  },
  "miner": "0xc15fa6D616245a5c7B7D75A6dFDcA10C0250BD2B",
  "extraData": "0x476574682f76312e302e312f77696e646f77732f676f312e342e32",
  "transactions": [
    {
      "hash": "0x22883f51b109afe9563d0aa496aead28c2e3b81c9522ca4bfc4a3508c754b5ef",
      "blockHash": "0xa07ed6798bb69b07daf32d3bbf191ae472a4899b19fbcd78f53e9faaf812405d",
      "blockNumber": 112365,
      "transactionIndex": 0,
      "confirmations": null,
      "from": "0xFD7c9117BbEB649d9b37B3D3C9917f7c12f526B3",
      "gasPrice": {
        "_hex": "0xd258e043e"
      },
      "gasLimit": {
        "_hex": "0x5208"
      },
      "to": "0x32Be343B94f860124dC4fEe278FDCBD38C102D88",
      "value": {
        "_hex": "0x1fef097cd9dc7a0000"
      },
      "nonce": 33,
      "data": "0x",
      "r": "0x87dc6b03fb218e7b0a38ad32686993745b05a2a6129a69450e9904b62d73e407",
      "s": "0x1d77a6d353d209a27d5dc10fac090c059065014b68cc0dea929aca764e484f3b",
      "v": 27,
      "creates": null,
      "raw": "0xf86d21850d258e043e8252089432be343b94f860124dc4fee278fdcbd38c102d88891fef097cd9dc7a0000801ba087dc6b03fb218e7b0a38ad32686993745b05a2a6129a69450e9904b62d73e407a01d77a6d353d209a27d5dc10fac090c059065014b68cc0dea929aca764e484f3b",
      "networkId": 0,
      "chainId": 0
    },
    {
      "hash": "0x6b28a13fdde2e2dd00ba10e05eb240b7da1b47831f99f3c534ebf6d509e8fa39",
      "blockHash": "0xa07ed6798bb69b07daf32d3bbf191ae472a4899b19fbcd78f53e9faaf812405d",
      "blockNumber": 112365,
      "transactionIndex": 1,
      "confirmations": null,
      "from": "0x2910543Af39abA0Cd09dBb2D50200b3E800A63D2",
      "gasPrice": {
        "_hex": "0xcfb605d45"
      },
      "gasLimit": {
        "_hex": "0x5208"
      },
      "to": "0x6De181Fc4C140FA31F196e5393516c49EEeBdAd3",
      "value": {
        "_hex": "0x36f768ff78e7158000"
      },
      "nonce": 1104,
      "data": "0x",
      "r": "0xaa9f7952e93c29f4d1da7493db92cf46c12623853672001a3d91d13e289a27f7",
      "s": "0x08eb8e06349824ab0e2b549f7f70fc8a52d9458ed081135a05560f75519f4d96",
      "v": 28,
      "creates": null,
      "raw": "0xf86f820450850cfb605d45825208946de181fc4c140fa31f196e5393516c49eeebdad38936f768ff78e7158000801ca0aa9f7952e93c29f4d1da7493db92cf46c12623853672001a3d91d13e289a27f7a008eb8e06349824ab0e2b549f7f70fc8a52d9458ed081135a05560f75519f4d96",
      "networkId": 0,
      "chainId": 0
    }
  ]
}