{
  "hash": "0x7b9fcd9dbcfb89cc1fec7bac513903d0a33d1ab7608fbcbaca250c59582f0670",
  "parentHash": "0x24002e4bb719d6e04c0b71265c36753b111e5a6627d29ead944a387d1e91ac89",
  "number": 56114,
  "timestamp": 1439082178,
  "nonce": "0x5251f1e6d3739356",
  "difficulty": 1636844951972,
  "gasLimit": {
    "_hex": "0x2fefd8"
  },
  "gasUsed": {
    "_hex": "0xa674"
  },
  "miner": "0xf927a40C8B7F6E07c5af7FA2155B4864a4112B13",
  "extraData": "0x476574682f76312e302e312f6c696e75782f676f312e342e32",
  "transactions": [
    {
      "hash": "0xfc7b209f46719c7da49834137640edf07fabe236ea594ca6d4ea830129b51ce5",
      "blockHash": "0x7b9fcd9dbcfb89cc1fec7bac513903d0a33d1ab7608fbcbaca250c59582f0670",
      "blockNumber": 56114,
      "transactionIndex": 0,
      "confirmations": null,
      "from": "0x32Be343B94f860124dC4fEe278FDCBD38C102D88",
      "gasPrice": {
        "_hex": "0xddd38f058"
      },
      "gasLimit": {
        "_hex": "0x5208"
      },
      "to": "0xAd7F5C601260b460ADAC6A54411Ca6Cf07dC83c3",
      "value": {
        "_hex": "0x58e7926ee858a00000"
      },
      "nonce": 80,
      "data": "0x",
      "r": "0x12d959849aa9ab20284612f8129018e8abe2ac4592aab9db16372863f97ff6c7",
      "s": "0x2f4255c01e9777b1d4793c5f7891bf0a499ed7919096d6a825148b120594f958",
      "v": 27,
      "creates": null,
      "raw": "0xf86d50850ddd38f05882520894ad7f5c601260b460adac6a54411ca6cf07dc83c38958e7926ee858a00000801ba012d959849aa9ab20284612f8129018e8abe2ac4592aab9db16372863f97ff6c7a02f4255c01e9777b1d4793c5f7891bf0a499ed7919096d6a825148b120594f958",
      "networkId": 0,
      "chainId": 0
    },
    {
      "hash": "0xd43a6f73fc6ad10712a261f6e7872252f39c44bb4d6dc1d5ee6effb2446eb372",
      "blockHash": "0x7b9fcd9dbcfb89cc1fec7bac513903d0a33d1ab7608fbcbaca250c59582f0670",
      "blockNumber": 56114,
      "transactionIndex": 1,
      "confirmations": null,
      "from": "0x77e41B4125b7c14757e0f07fE36b2E95db757a10",
      "gasPrice": {
        "_hex": "0xcd01555c5"
      },
      "gasLimit": {
        "_hex": "0x55f0"
      },
      "to": "0x2910543Af39abA0Cd09dBb2D50200b3E800A63D2",
      "value": {
        "_hex": "0x1e71c400840360000"
      },
      "nonce": 3,
      "data": "0x454e47583939505930",
      "r": "0x58c88d35fc70e6980f99467c66b10512760008c0429da22d2753a04d17b6ce62",
      "s": "0x0ffeade5663440a75504775768572f3ee22cbb6203d7d70fd8ce51d6eeb7240a",
      "v": 28,
      "creates": null,
      "raw": "0xf87603850cd01555c58255f0942910543af39aba0cd09dbb2d50200b3e800a63d28901e71c40084036000089454e475839395059301ca058c88d35fc70e6980f99467c66b10512760008c0429da22d2753a04d17b6ce62a00ffeade5663440a75504775768572f3ee22cbb6203d7d70fd8ce51d6eeb7240a",
      "networkId": 0,
      "chainId": 0
    }
  ]
}