{
  "hash": "0xb94f98adeeca1985c3bbe1be09483cc7c237905796145dd84517be5726b4e5e3",
  "parentHash": "0x88d88f55a637b4a9cf95843b7d65aa9b4557e82731f090f7d7d9e0fe7c6dd1f3",
  "number": 80385,
  "timestamp": 1439484893,
  "nonce": "0xc966fc1adbcb5bf7",
  "difficulty": 2380519369132,
  "gasLimit": {
    "_hex": "0x2fefd8"
  },
  "gasUsed": {
    "_hex": "0x107d6"
  },
  "miner": "0x580992B51e3925e23280EfB93d3047C82f17E038",
  "extraData": "0x476574682f76312e302e312f6c696e75782f676f312e342e32",
  "transactions": [
    {
      "hash": "0xd86d9e8fde7b47acacbc66f8fde6bc7ef6eaaa6962351bed93804731d1c79715",
      "blockHash": "0xb94f98adeeca1985c3bbe1be09483cc7c237905796145dd84517be5726b4e5e3",
      "blockNumber": 80385,
      "transactionIndex": 0,
      "confirmations": null,
      "from": "0x87C5B5874A18B4306DF8a752a6C8cc3E82daFc19",
      "gasPrice": {
        "_hex": "0x118f5667429"
      },
      "gasLimit": {
        "_hex": "0x493e0"
      },
      "to": "0xC4c51de1AbF5D60DBd329eC0F999Fd8f021ae9fC",
      "value": {
        "_hex": "0x0"
      },
      "nonce": 193,
      "data": "0x03750d9400000000000000000000000087c5b5874a18b4306df8a752a6c8cc3e82dafc196b6b6b0000000000000000000000000000000000000000000000000000000000",
      "r": "0x80646d6f2f271e03634907e386a2baa76b40f5b9a4b56cdca584262e7498e1fa",
      "s": "0x6ac4fc374606886fff017c37f45888966ad3a18bb8e51e9fd190854d4894fc7f",
      "v": 27,
      "creates": null,
      "raw": "0xf8ac81c1860118f5667429830493e094c4c51de1abf5d60dbd329ec0f999fd8f021ae9fc80b84403750d9400000000000000000000000087c5b5874a18b4306df8a752a6c8cc3e82dafc196b6b6b00000000000000000000000000000000000000000000000000000000001ba080646d6f2f271e03634907e386a2baa76b40f5b9a4b56cdca584262e7498e1faa06ac4fc374606886fff017c37f45888966ad3a18bb8e51e9fd190854d4894fc7f",
      "networkId": 0,
      "chainId": 0
    },
    {
      "hash": "0xd1cb7079cadc7b424aea88056b24b44a5e47b790cb62a40e55d0cbc5d25d12c7",
      "blockHash": "0xb94f98adeeca1985c3bbe1be09483cc7c237905796145dd84517be5726b4e5e3",
      "blockNumber": 80385,
      "transactionIndex": 1,
      "confirmations": null,
      "from": "0x4B11852B35058CBFB5a50c5a007b0c134927Fd8b",
      "gasPrice": {
        "_hex": "0xd1217f556"
      },
      "gasLimit": {
        "_hex": "0x15f90"
      },
      "to": "0x1C523996Cb7Cb5b0a4A48d8097E45093626b23F0",
      "value": {
        "_hex": "0x16345785d8a0000"
      },
      "nonce": 2,
      "data": "0xb214faa544464a5254555951450000000000000000000000000000000000000000000000",
      "r": "0xedf956f6ec3083dfa23ca801bd35a5127708d509832cd7d7e1b493c0e96a7930",
      "s": "0x5ead399ba3e48c4157a0a5609e43160d02f9b653998c4de3ccbe69ee6e1add26",
      "v": 28,
      "creates": null,
      "raw": "0xf89102850d1217f55683015f90941c523996cb7cb5b0a4a48d8097e45093626b23f088016345785d8a0000a4b214faa544464a52545559514500000000000000000000000000000000000000000000001ca0edf956f6ec3083dfa23ca801bd35a5127708d509832cd7d7e1b493c0e96a7930a05ead399ba3e48c4157a0a5609e43160d02f9b653998c4de3ccbe69ee6e1add26",
      "networkId": 0,
      "chainId": 0
    }
  ]
}