{
  "hash": "0x11ffb84c3b5bd2a5f00b7d2595423dddfb81ecd90feff3896497926ae601ae08",
  "parentHash": "0xfb0a4aa81678f61b2c33d8e80cbd40199b6f10cbd1f0d86546abdcecf508bfa4",
  "number": 103681,
  "timestamp": 1439857339,
  "nonce": "0x20ba5ef8b14be986",
  "difficulty": 4203135077980,
  "gasLimit": {
    "_hex": "0x2fefd8"
  },
  "gasUsed": {
    "_hex": "0x546c"
  },
  "miner": "0x13db2d4DF4EE21C407B0B3F867d2892037f05DB3",
  "extraData": "0x476574682f76312e302e312f6c696e75782f676f312e342e32",
  "transactions": [
    {
      "hash": "0xc6cafb32c056159315bf42a3baea9e269615fa1b4cd7568b087defdec5b6ad26",
      "blockHash": "0x11ffb84c3b5bd2a5f00b7d2595423dddfb81ecd90feff3896497926ae601ae08",
      "blockNumber": 103681,
      "transactionIndex": 0,
      "confirmations": null,
      "from": "0xd0DF24FD0DfcDc3850D1590dAA1D03ca7706b11B",
      "gasPrice": {
        "_hex": "0x10da873ff13"
      },
      "gasLimit": {
        "_hex": "0x55f0"
      },
      "to": "0x2910543Af39abA0Cd09dBb2D50200b3E800A63D2",
      "value": {
        "_hex": "0x4eee0f1dc808c0000"
      },
      "nonce": 9,
      "data": "0x454e364832354d3230",
      "r": "0xf97e797dc74efcfb56ed3b9720961c822f91177f49165d686e2d14dcefe4c5bf",
      "s": "0x403a55d7738f8bac2c8b9be3696dc6e5136a23bb6361ebf04fae1ab0f876efd1",
      "v": 27,
      "creates": null,
      "raw": "0xf8770986010da873ff138255f0942910543af39aba0cd09dbb2d50200b3e800a63d28904eee0f1dc808c000089454e364832354d32301ba0f97e797dc74efcfb56ed3b9720961c822f91177f49165d686e2d14dcefe4c5bfa0403a55d7738f8bac2c8b9be3696dc6e5136a23bb6361ebf04fae1ab0f876efd1",
      "networkId": 0,
      "chainId": 0
    }
  ]
}