{
  "hash": "0xfdc3f3ed32df59a62edf6334b8931a1289c94823f67298653170b3f722beb65a",
  "parentHash": "0xa03856d91539e59239c49375d8d097e5d39a194b3a9a8188bfdb35d32b0f65d1",
  "number": 46466,
  "timestamp": 1438923647,
  "nonce": "0x2476b090d3094b49",
  "difficulty": 1467513011799,
  "gasLimit": {
    "_hex": "0x62cc"
  },
  "gasUsed": {
    "_hex": "0x5208"
  },
  "miner": "0x3F98e477a361F777DA14611a7e419A75Fd238b6b",
  "extraData": "0x476574682f76312e302e312f6c696e75782f676f312e342e32",
  "transactions": [
    {
      "hash": "0x09abf3b250969ab5a4bc80533f407dfaca950bbfd83395b78ec93562dd55e564",
      "blockHash": "0xfdc3f3ed32df59a62edf6334b8931a1289c94823f67298653170b3f722beb65a",
      "blockNumber": 46466,
      "transactionIndex": 0,
      "confirmations": null,
      "from": "0xa89AC93b23370472DaAc337E9afdF642543F3E57",
      "gasPrice": {
        "_hex": "0x746a528800"
      },
      "gasLimit": {
        "_hex": "0x5208"
      },
      "to": "0x0000000000000000000000000000000000000000",
      "value": {
        "_hex": "0x56bc75e2d63100000"
      },
      "nonce": 5,
      "data": "0x",
      "r": "0xaa8bedf2265e26d84f9da94e5f1c67d0779b0b90d940017da733f75aa4d0bdab",
      "s": "0x7e36daca99f385cc456962c59be3accc1cff2a0bd2fdbd4171389ec6f5cbe45a",
      "v": 27,
      "creates": null,
      "raw": "0xf86d0585746a52880082520894000000000000000000000000000000000000000089056bc75e2d63100000801ba0aa8bedf2265e26d84f9da94e5f1c67d0779b0b90d940017da733f75aa4d0bdaba07e36daca99f385cc456962c59be3accc1cff2a0bd2fdbd4171389ec6f5cbe45a",
      "networkId": 0,
      "chainId": 0
    }
  ]
}