{
  "hash": "0x8711ebfa8b60130740722c478aafaff9778f08c8be19b8587dc29059cb340c72",
  "parentHash": "0xd41c948ea2f73933eb67112ab4e02ab126e364c1a94a71a05138ad2c03a328df",
  "number": 80285,
  "timestamp": 1439483076,
  "nonce": "0xf2e8d2003365adae",
  "difficulty": 2382873636650,
  "gasLimit": {
    "_hex": "0x2fefd8"
  },
  "gasUsed": {
    "_hex": "0xaa37"
  },
  "miner": "0x0D4EcC7d750180EBf4A9Df728B6669B5Bceb5E40",
  "extraData": "0x",
  "transactions": [
    {
      "hash": "0x81f9876f2bd9b4269fce3585cdcbaa2ae4e7f00b51ea2b2a902df2dbe47f6339",
      "blockHash": "0x8711ebfa8b60130740722c478aafaff9778f08c8be19b8587dc29059cb340c72",
      "blockNumber": 80285,
      "transactionIndex": 0,
      "confirmations": null,
      "from": "0x87C5B5874A18B4306DF8a752a6C8cc3E82daFc19",
      "gasPrice": {
        "_hex": "0x113efc0df55"
      },
      "gasLimit": {
        "_hex": "0x493e0"
      },
      "to": "0xC4c51de1AbF5D60DBd329eC0F999Fd8f021ae9fC",
      "value": {
        "_hex": "0x0"
      },
      "nonce": 163,
      "data": "0x03750d9400000000000000000000000087c5b5874a18b4306df8a752a6c8cc3e82dafc196b6b6b0000000000000000000000000000000000000000000000000000000000",
      "r": "0x6d646eab8c31887658a610c5ef6a3f515319673e358013fec2b69aff01e779ed",
      "s": "0x188f7291ec02990c89e9bab7cf1965e8a76e6e6243d8ec04d6082af8cd52d114",
      "v": 27,
      "creates": null,
      "raw": "0xf8ac81a3860113efc0df55830493e094c4c51de1abf5d60dbd329ec0f999fd8f021ae9fc80b84403750d9400000000000000000000000087c5b5874a18b4306df8a752a6c8cc3e82dafc196b6b6b00000000000000000000000000000000000000000000000000000000001ba06d646eab8c31887658a610c5ef6a3f515319673e358013fec2b69aff01e779eda0188f7291ec02990c89e9bab7cf1965e8a76e6e6243d8ec04d6082af8cd52d114",
      "networkId": 0,
      "chainId": 0
    }
  ]
}