{
  "hash": "0x7bf425b8428c7d57df767fb49974532f1c5592e4bcba14f32ce265795083f258",
  "parentHash": "0xd651b5eed3a3c668e0a84d53d9bf87b81d733b7e2d0112bca7f718da5d6b7c32",
  "number": 99763,
  "timestamp": 1439795221,
  "nonce": "0x6e85315db67c71a1",
  "difficulty": 3825048649518,
  "gasLimit": {
    "_hex": "0x2fefd8"
  },
  "gasUsed": {
    "_hex": "0x5208"
  },
  "miner": "0xe6A7a1d47ff21B6321162AEA7C6CB457D5476Bca",
  "extraData": "0x476574682f76312e302e312d38326566323666362f6c696e75782f676f312e34",
  "transactions": [
    {
      "hash": "0x825e8543f57529621302985402834e45f9e68360176d942c317b3e83c5ba4dd6",
      "blockHash": "0x7bf425b8428c7d57df767fb49974532f1c5592e4bcba14f32ce265795083f258",
      "blockNumber": 99763,
      "transactionIndex": 0,
      "confirmations": null,
      "from": "0xFBb1b73C4f0BDa4f67dcA266ce6Ef42f520fBB98",
      "gasPrice": {
        "_hex": "0xcf8f6c373"
      },
      "gasLimit": {
        "_hex": "0x15f90"
      },
      "to": "0x7246bC1603B6d03A536a04d0580414dB1FCcfFE8",
      "value": {
        "_hex": "0xde0b6b3a7640000"
      },
      "nonce": 87,
      "data": "0x",
      "r": "0xf1929bda170f6ee4af11f81b3f97e9db56550fac3caeb35783968ec0b2eb4186",
      "s": "0x67d64e592ea41357e0c9f723a1a92554d65921a3009869a81c70f80d88706a01",
      "v": 28,
      "creates": null,
      "raw": "0xf86d57850cf8f6c37383015f90947246bc1603b6d03a536a04d0580414db1fccffe8880de0b6b3a7640000801ca0f1929bda170f6ee4af11f81b3f97e9db56550fac3caeb35783968ec0b2eb4186a067d64e592ea41357e0c9f723a1a92554d65921a3009869a81c70f80d88706a01",
      "networkId": 0,
      "chainId": 0
    }
  ]
}