{
  "hash": "0x539635d8b57aea31825f55b9c969b9360ebf4ce23802e145f0057591eaeaac89",
  "parentHash": "0x47d59d895621ef59c20fd9dcd836ee31f5b7112588db0b7be873f330428b4fc7",
  "number": 107541,
  "timestamp": 1439924222,
  "nonce": "0xc0291330a0a3c7ce",
  "difficulty": 4424372067195,
  "gasLimit": {
    "_hex": "0x2fefd8"
  },
  "gasUsed": {
    "_hex": "0x5208"
  },
  "miner": "0xe6A7a1d47ff21B6321162AEA7C6CB457D5476Bca",
  "extraData": "0x476574682f76312e302e312d38326566323666362f6c696e75782f676f312e34",
  "transactions": [
    {
      "hash": "0x4c8575cbe5a592280cb4aa98809ce9eaae26f71025d0430e88c12d9759f14284",
      "blockHash": "0x539635d8b57aea31825f55b9c969b9360ebf4ce23802e145f0057591eaeaac89",
      "blockNumber": 107541,
      "transactionIndex": 0,
      "confirmations": null,
      "from": "0xe3002160DEbB2936e6ca494ed36F28056ed7aEfd",
      "gasPrice": {
        "_hex": "0xd0d18f053"
      },
      "gasLimit": {
        "_hex": "0x55f0"
      },
      "to": "0xF161498A7f225A91C338015ca11833B3399393A8",
      "value": {
        "_hex": "0x16345785d8a0000"
      },
      "nonce": 4,
      "data": "0x",
      "r": "0xd9f135a1153c0b7e8039d778355f14fb234dc9c8884cf5527694081567e68740",
      "s": "0x13f34bd935e00867b691233a542eff20d715a15f4c9901ebd309cd341b6e9de5",
      "v": 27,
      "creates": null,
      "raw": "0xf86c04850d0d18f0538255f094f161498a7f225a91c338015ca11833b3399393a888016345785d8a0000801ba0d9f135a1153c0b7e8039d778355f14fb234dc9c8884cf5527694081567e68740a013f34bd935e00867b691233a542eff20d715a15f4c9901ebd309cd341b6e9de5",
      "networkId": 0,
      "chainId": 0
    }
  ]
}