{
  "hash": "0x02da07bd75c75fe0c47eab747ef5bc6cdf3b5e01afa997102fd733a1be3acd93",
  "parentHash": "0xc58969647a40bb71947ac3d882d42b75e094ca446f6c6d7d414fa43a1f51e320",
  "number": 51756,
  "timestamp": 1439010312,
  "nonce": "0x9e17c77c438257ec",
  "difficulty": 1555088219338,
  "gasLimit": {
    "_hex": "0xd8ead"
  },
  "gasUsed": {
    "_hex": "0xa410"
  },
  "miner": "0xf927a40C8B7F6E07c5af7FA2155B4864a4112B13",
  "extraData": "0x476574682f76312e302e312f6c696e75782f676f312e342e32",
  "transactions": [
    {
      "hash": "0x6256e5e9cb605ba2f1a8de34353cc58644a589243048d7c5991559ff8ed24628",
      "blockHash": "0x02da07bd75c75fe0c47eab747ef5bc6cdf3b5e01afa997102fd733a1be3acd93",
      "blockNumber": 51756,
      "transactionIndex": 0,
      "confirmations": null,
      "from": "0xB9eA264a65432066F43ad876f2316e5eb97c58bc",
      "gasPrice": {
        "_hex": "0xd4a4ddb88"
      },
      "gasLimit": {
        "_hex": "0x15f90"
      },
      "to": "0xdFE54dA6a71D719BEA537bDf7d453dB98eD4A35c",
      "value": {
        "_hex": "0x33f722e929734000"
      },
      "nonce": 0,
      "data": "0x",
      "r": "0x1cdef4ded0a7c1741aeadb212ef63baa83cfede05c419f20ff75da3b4df921b0",
      "s": "0x43dda84f0c3138314c6dea09a2bc42df429fbbe458ab5d5c77f736168f55bf74",
      "v": 28,
      "creates": null,
      "raw": "0xf86d80850d4a4ddb8883015f9094dfe54da6a71d719bea537bdf7d453db98ed4a35c8833f722e929734000801ca01cdef4ded0a7c1741aeadb212ef63baa83cfede05c419f20ff75da3b4df921b0a043dda84f0c3138314c6dea09a2bc42df429fbbe458ab5d5c77f736168f55bf74",
      "networkId": 0,
      "chainId": 0
    },
    {
      "hash": "0x98004290303e6d4e59791931933577326bbbad8b09f40bb9ae1007d48b0861f6",
      "blockHash": "0x02da07bd75c75fe0c47eab747ef5bc6cdf3b5e01afa997102fd733a1be3acd93",
      "blockNumber": 51756,
      "transactionIndex": 1,
      "confirmations": null,
      "from": "0xD2581A55ce23aB10D8AD8c44378F59079BD6F658",
      "gasPrice": {
        "_hex": "0xcef8d4359"
      },
      "gasLimit": {
        "_hex": "0x15f90"
      },
      "to": "0x0cC205067597e1a5E7adB4B3dC3ad76ee23F0562",
      "value": {
        "_hex": "0xde0b6b3a7640000"
      },
      "nonce": 0,
      "data": "0x",
      "r": "0x3c33d05f25af185776f933ec6d6f0359df03cc030dee30ecb6de24d6e65f882c",
      "s": "0x1966ce5f0e945b2524c365bfea79a5b3faf43abad438f0b10c820e4d2a0dacad",
      "v": 28,
      "creates": null,
      "raw": "0xf86d80850cef8d435983015f90940cc205067597e1a5e7adb4b3dc3ad76ee23f0562880de0b6b3a7640000801ca03c33d05f25af185776f933ec6d6f0359df03cc030dee30ecb6de24d6e65f882ca01966ce5f0e945b2524c365bfea79a5b3faf43abad438f0b10c820e4d2a0dacad",
      "networkId": 0,
      "chainId": 0
    }
  ]
}