{
  "hash": "0x4ac20dc88513b470800aa605708627783e52176d0eb52f356ab0684bcb609de0",
  "parentHash": "0x91b5d40fdbc9d5c0a87364ecf236a568cee5d636864f33b72381e991d39c59b5",
  "number": 81437,
  "timestamp": 1439501640,
  "nonce": "0x0ca1e3d9e17526e2",
  "difficulty": 2450985418511,
  "gasLimit": {
    "_hex": "0x2fefd8"
  },
  "gasUsed": {
    "_hex": "0x5208"
  },
  "miner": "0xeB1325C8D9d3ea8D74aC11F4B00F1B2367686319",
  "extraData": "0x476574682f76312e302e312f77696e646f77732f676f312e342e32",
  "transactions": [
    {
      "hash": "0x02c3b5d06e12d4e9c600d55bafb83ef8d869dcdded9e3978221a708772009d5c",
      "blockHash": "0x4ac20dc88513b470800aa605708627783e52176d0eb52f356ab0684bcb609de0",
      "blockNumber": 81437,
      "transactionIndex": 0,
      "confirmations": null,
      "from": "0x120A270bbC009644e35F0bB6ab13f95b8199c4ad",
      "gasPrice": {
        "_hex": "0xdfd8a4ed8"
      },
      "gasLimit": {
        "_hex": "0x3d090"
      },
      "to": "0x00B88D679472169CBd35a3d02192Fd24734684b4",
      "value": {
        "_hex": "0xba7b970e194fc0000"
      },
      "nonce": 374,
      "data": "0x",
      "r": "0xcf43d1f19f66cee743f4e71b012c92095e89f9ea39af3fa833fd0d83ecb570b1",
      "s": "0x527be7245b55b8c75fe93d99c557ad815869e48a288186420c91f8bbaaaba7de",
      "v": 28,
      "creates": null,
      "raw": "0xf870820176850dfd8a4ed88303d0909400b88d679472169cbd35a3d02192fd24734684b4890ba7b970e194fc0000801ca0cf43d1f19f66cee743f4e71b012c92095e89f9ea39af3fa833fd0d83ecb570b1a0527be7245b55b8c75fe93d99c557ad815869e48a288186420c91f8bbaaaba7de",
      "networkId": 0,
      "chainId": 0
    }
  ]
}