{
  "hash": "0x04854a8a98c53b811111275846fa02a4a46bfb085dbdca9d0bb9ef6287f3a322",
  "parentHash": "0xfdf304b07a5b97cb640338a2bd711a11257065b1afa006bec3c04716d6abfc11",
  "number": 79450,
  "timestamp": 1439469905,
  "nonce": "0x22cece6de7cff787",
  "difficulty": 2333596440088,
  "gasLimit": {
    "_hex": "0x2fefd8"
  },
  "gasUsed": {
    "_hex": "0x5208"
  },
  "miner": "0x55bAf64fc9eAccFFd7Cc643BB61142E1C6ac093e",
  "extraData": "0x",
  "transactions": [
    {
      "hash": "0xac0d1d43c25cea914e6392ea020b5298ff5ca42eb57a1a313107e30d73737321",
      "blockHash": "0x04854a8a98c53b811111275846fa02a4a46bfb085dbdca9d0bb9ef6287f3a322",
      "blockNumber": 79450,
      "transactionIndex": 0,
      "confirmations": null,
      "from": "0x2910543Af39abA0Cd09dBb2D50200b3E800A63D2",
      "gasPrice": {
        "_hex": "0xdd213dfc0"
      },
      "gasLimit": {
        "_hex": "0x5208"
      },
      "to": "0x5520a56e563e93652B6867Cf334eE14fCa33480f",
      "value": {
        "_hex": "0xdcef33a6f838000"
      },
      "nonce": 356,
      "data": "0x",
      "r": "0x434a8cae9e46c23c3bae4cccfe04684aa936f9d67133e09417d3a181124525c2",
      "s": "0x6aaf2088d3e347766617dc4c4630029419b50cfeca6c8214b6d28e12f7070563",
      "v": 27,
      "creates": null,
      "raw": "0xf86e820164850dd213dfc0825208945520a56e563e93652b6867cf334ee14fca33480f880dcef33a6f838000801ba0434a8cae9e46c23c3bae4cccfe04684aa936f9d67133e09417d3a181124525c2a06aaf2088d3e347766617dc4c4630029419b50cfeca6c8214b6d28e12f7070563",
      "networkId": 0,
      "chainId": 0
    }
  ]
}