{
  "hash": "0x02a1e665df6dbd512b194110af04327620adb14693effcd7295057a1736a1462",
  "parentHash": "0xbe97692ead0b07b5f23c28b10dff818a903fba750e9dab9371f547bfeb920a7a",
  "number": 93954,
  "timestamp": 1439700291,
  "nonce": "0x433cda795d193aed",
  "difficulty": 3480057517196,
  "gasLimit": {
    "_hex": "0x2fefd8"
  },
  "gasUsed": {
    "_hex": "0xa410"
  },
  "miner": "0xe6A7a1d47ff21B6321162AEA7C6CB457D5476Bca",
  "extraData": "0x476574682f76312e302e312d38326566323666362f6c696e75782f676f312e34",
  "transactions": [
    {
      "hash": "0xac530f594a5ec2e6a2d9dadba86fb220721d0895bff6859b65fe94f105d95657",
      "blockHash": "0x02a1e665df6dbd512b194110af04327620adb14693effcd7295057a1736a1462",
      "blockNumber": 93954,
      "transactionIndex": 0,
      "confirmations": null,
      "from": "0x120A270bbC009644e35F0bB6ab13f95b8199c4ad",
      "gasPrice": {
        "_hex": "0xcb506837e"
      },
      "gasLimit": {
        "_hex": "0x3d090"
      },
      "to": "0x6121aF398A5B2Da69F65c6381AeC88cE9cc6441F",
      "value": {
        "_hex": "0xf7a623cdba1e8800"
      },
      "nonce": 569,
      "data": "0x",
      "r": "0xde2d9efae2b6933ca48e2df0be669f2fc0d57e5dabe14fa3557f9f63a2cfbe9a",
      "s": "0x4ddd805267afbf3ceb30d4ab69ac3311a7c8038eb8fa1b7e38dec5b9fb188f1f",
      "v": 28,
      "creates": null,
      "raw": "0xf86f820239850cb506837e8303d090946121af398a5b2da69f65c6381aec88ce9cc6441f88f7a623cdba1e8800801ca0de2d9efae2b6933ca48e2df0be669f2fc0d57e5dabe14fa3557f9f63a2cfbe9aa04ddd805267afbf3ceb30d4ab69ac3311a7c8038eb8fa1b7e38dec5b9fb188f1f",
      "networkId": 0,
      "chainId": 0
    },
    {
      "hash": "0xe50e19db0396a2074c82e14e943287f151c487f21a0328a2721556c27acc38e1",
      "blockHash": "0x02a1e665df6dbd512b194110af04327620adb14693effcd7295057a1736a1462",
      "blockNumber": 93954,
      "transactionIndex": 1,
      "confirmations": null,
      "from": "0x120A270bbC009644e35F0bB6ab13f95b8199c4ad",
      "gasPrice": {
        "_hex": "0xcb506837e"
      },
      "gasLimit": {
        "_hex": "0x3d090"
      },
      "to": "0xD499a11665A42cAA8a3DE6A02bAa4E95DFE935C0",
      "value": {
        "_hex": "0x15af1d78b58c400000"
      },
      "nonce": 570,
      "data": "0x",
      "r": "0xb2e6738b42c54fcab52b8836980afb590ffd8e0d2fddf6356a3f8e558f51e60d",
      "s": "0x6ad32ba3a8b5ee5ff863a2269196e655bf7b4dff1910baba258138d0d90ecd97",
      "v": 27,
      "creates": null,
      "raw": "0xf87082023a850cb506837e8303d09094d499a11665a42caa8a3de6a02baa4e95dfe935c08915af1d78b58c400000801ba0b2e6738b42c54fcab52b8836980afb590ffd8e0d2fddf6356a3f8e558f51e60da06ad32ba3a8b5ee5ff863a2269196e655bf7b4dff1910baba258138d0d90ecd97",
      "networkId": 0,
      "chainId": 0
    }
  ]
}