{
  "hash": "0x583e046876cab0c4cf5b73e6fa332d673af497fa6e1083785f1624ad758a2e2a",
  "parentHash": "0xef8eb9154b11e189ff45cd8342a3b97d0e71d91d3ffbde3e5b9e5e731973852f",
  "number": 80864,
  "timestamp": 1439492316,
  "nonce": "0x8e6feeb98d86f38b",
  "difficulty": 2440404808492,
  "gasLimit": {
    "_hex": "0x2fefd8"
  },
  "gasUsed": {
    "_hex": "0xa410"
  },
  "miner": "0xf927a40C8B7F6E07c5af7FA2155B4864a4112B13",
  "extraData": "0x",
  "transactions": [
    {
      "hash": "0xa22bae239a3acf179d57a096bb9aa5c62a3f3d0890982e1638b1dae720ea03f0",
      "blockHash": "0x583e046876cab0c4cf5b73e6fa332d673af497fa6e1083785f1624ad758a2e2a",
      "blockNumber": 80864,
      "transactionIndex": 0,
      "confirmations": null,
      "from": "0x2910543Af39abA0Cd09dBb2D50200b3E800A63D2",
      "gasPrice": {
        "_hex": "0xdee16ba09"
      },
      "gasLimit": {
        "_hex": "0x5208"
      },
      "to": "0xdEC7d1B05f89c0Ce0870Ea4AeA18138264675478",
      "value": {
        "_hex": "0x15bcec6beffbc38000"
      },
      "nonce": 407,
      "data": "0x",
      "r": "0xb52bc0c141b32a29e1e6b8e43bf4bcacfdfe7134a5d76326a379d15e78524750",
      "s": "0x4646dd602a631da610b8572bec40018f0e7f4c544e7a864b299e2c2e4c54286d",
      "v": 27,
      "creates": null,
      "raw": "0xf86f820197850dee16ba0982520894dec7d1b05f89c0ce0870ea4aea181382646754788915bcec6beffbc38000801ba0b52bc0c141b32a29e1e6b8e43bf4bcacfdfe7134a5d76326a379d15e78524750a04646dd602a631da610b8572bec40018f0e7f4c544e7a864b299e2c2e4c54286d",
      "networkId": 0,
      "chainId": 0
    },
    {
      "hash": "0x3f880da89c2905da9a136170989b9d92c8f682044ba5dae0766009a074915a16",
      "blockHash": "0x583e046876cab0c4cf5b73e6fa332d673af497fa6e1083785f1624ad758a2e2a",
      "blockNumber": 80864,
      "transactionIndex": 1,
      "confirmations": null,
      "from": "0x120A270bbC009644e35F0bB6ab13f95b8199c4ad",
      "gasPrice": {
        "_hex": "0xdce01f903"
      },
      "gasLimit": {
        "_hex": "0x3d090"
      },
      "to": "0x0D82Cd113DC35DdDA93f38166cD5CDe8b88e36A1",
      "value": {
        "_hex": "0x280a4dc2b8952400"
      },
      "nonce": 352,
      "data": "0x",
      "r": "0x5c5ebd21276f09a7ae4082126c5b64d46881a15a1ce18de0837474a39c3b813f",
      "s": "0x33816383765ec84dc43afb739ac972066ff4789854a657defc8d7741ff552ef4",
      "v": 28,
      "creates": null,
      "raw": "0xf86f820160850dce01f9038303d090940d82cd113dc35ddda93f38166cd5cde8b88e36a188280a4dc2b8952400801ca05c5ebd21276f09a7ae4082126c5b64d46881a15a1ce18de0837474a39c3b813fa033816383765ec84dc43afb739ac972066ff4789854a657defc8d7741ff552ef4",
      "networkId": 0,
      "chainId": 0
    }
  ]
}