{
  "hash": "0x85d6c2b643e8c724a8cbc4a4892d2e4bcd0d0ffec38df36e37f5b9526d813831",
  "parentHash": "0x37476533330feee3bf7b3b84f12ab01782a4df507b6b3d09dee9d60f7bc974f6",
  "number": 74304,
  "timestamp": 1439383984,
  "nonce": "0xf2d0e396602d71e4",
  "difficulty": 2208602578852,
  "gasLimit": {
    "_hex": "0x2fefd8"
  },
  "gasUsed": {
    "_hex": "0xf618"
  },
  "miner": "0xe6A7a1d47ff21B6321162AEA7C6CB457D5476Bca",
  "extraData": "0x476574682f76312e302e312d38326566323666362f6c696e75782f676f312e34",
  "transactions": [
    {
      "hash": "0x6cfc2c4ea20aea2d5ad173615bffaca4be672b0fa5d1a99fdfd116d66d5f118a",
      "blockHash": "0x85d6c2b643e8c724a8cbc4a4892d2e4bcd0d0ffec38df36e37f5b9526d813831",
      "blockNumber": 74304,
      "transactionIndex": 0,
      "confirmations": null,
      "from": "0x4Dbfc5Cd4D88480476F951dbCD591396773aE56c",
      "gasPrice": {
        "_hex": "0xd04cd453f"
      },
      "gasLimit": {
        "_hex": "0x5208"
      },
      "to": "0x32Be343B94f860124dC4fEe278FDCBD38C102D88",
      "value": {
        "_hex": "0x214002ef5786e0000"
      },
      "nonce": 0,
      "data": "0x",
      "r": "0x505760a30b55fff3e0f3d551f6cdbdbc7d6c3569a87ff2dca0e4b666bee5f904",
      "s": "0x2de7197fdf0eb5f7958681cd8fa0f9fa87807f3e067b58a87a3406fa87d5e3c2",
      "v": 28,
      "creates": null,
      "raw": "0xf86d80850d04cd453f8252089432be343b94f860124dc4fee278fdcbd38c102d88890214002ef5786e0000801ca0505760a30b55fff3e0f3d551f6cdbdbc7d6c3569a87ff2dca0e4b666bee5f904a02de7197fdf0eb5f7958681cd8fa0f9fa87807f3e067b58a87a3406fa87d5e3c2",
      "networkId": 0,
      "chainId": 0
    },
    {
      "hash": "0xd6686a6b95444d632a519cf4282dfb14d4ed9c330e386ae49fb1a188c2757b81",
      "blockHash": "0x85d6c2b643e8c724a8cbc4a4892d2e4bcd0d0ffec38df36e37f5b9526d813831",
      "blockNumber": 74304,
      "transactionIndex": 1,
      "confirmations": null,
      "from": "0xf79785E5a846aCea08F94379fCCe79B1054bDB99",
      "gasPrice": {
        "_hex": "0xd04cd453f"
      },
      "gasLimit": {
        "_hex": "0x5208"
      },
      "to": "0x32Be343B94f860124dC4fEe278FDCBD38C102D88",
      "value": {
        "_hex": "0x1dc8e2d23ad3a6000"
      },
      "nonce": 7,
      "data": "0x",
      "r": "0x773c4b2917a00675587534956624f80b23b52591ba7a9d706b9c4a09e8497384",
      "s": "0x1f4d9e9cabf2ab3441270dfa16db3a59f7c84f0bd117dfd50cc882616de2cf55",
      "v": 28,
      "creates": null,
      "raw": "0xf86d07850d04cd453f8252089432be343b94f860124dc4fee278fdcbd38c102d888901dc8e2d23ad3a6000801ca0773c4b2917a00675587534956624f80b23b52591ba7a9d706b9c4a09e8497384a01f4d9e9cabf2ab3441270dfa16db3a59f7c84f0bd117dfd50cc882616de2cf55",
      "networkId": 0,
      "chainId": 0
    },
    {
      "hash": "0xf9ea221c56ba436df8b1fd2794e8f87def20c935f4dc3859a538b313f4a724be",
      "blockHash": "0x85d6c2b643e8c724a8cbc4a4892d2e4bcd0d0ffec38df36e37f5b9526d813831",
      "blockNumber": 74304,
      "transactionIndex": 2,
      "confirmations": null,
      "from": "0xd6986162E8B905e6a771C3BCD1b2baa2B0bb386F",
      "gasPrice": {
        "_hex": "0xd04cd453f"
      },
      "gasLimit": {
        "_hex": "0x5208"
      },
      "to": "0x32Be343B94f860124dC4fEe278FDCBD38C102D88",
      "value": {
        "_hex": "0xad76c9c8c80800"
      },
      "nonce": 0,
      "data": "0x",
      "r": "0x214a9b5200a1cff0220bd5eb6c6de663985e88cfc1b8c16963773fa39db9d341",
      "s": "0x2be198c6d379d8184b25428e035dfb59b83a5d3fddba80384f1cd7bf7c6d2f8e",
      "v": 27,
      "creates": null,
      "raw": "0xf86b80850d04cd453f8252089432be343b94f860124dc4fee278fdcbd38c102d8887ad76c9c8c80800801ba0214a9b5200a1cff0220bd5eb6c6de663985e88cfc1b8c16963773fa39db9d341a02be198c6d379d8184b25428e035dfb59b83a5d3fddba80384f1cd7bf7c6d2f8e",
      "networkId": 0,
      "chainId": 0
    }
  ]
}