{
  "hash": "0x6d653a3e6f0946a630de52ce08f56f5f00b95f8018d453f6759ba5613480c016",
  "parentHash": "0xba535fbd6e97b62cb5bce5fca1d7731ecf4e613246b37b5a357419806ff7ac76",
  "number": 115374,
  "timestamp": 1440056085,
  "nonce": "0xbd4313c6af8b0598",
  "difficulty": 4558329949877,
  "gasLimit": {
    "_hex": "0x2fefd8"
  },
  "gasUsed": {
    "_hex": "0xa410"
  },
  "miner": "0xe6A7a1d47ff21B6321162AEA7C6CB457D5476Bca",
  "extraData": "0x476574682f76312e302e312d38326566323666362f6c696e75782f676f312e34",
  "transactions": [
    {
      "hash": "0x0dba37f8fa305dbf83220558b47d91a4223263cb44425493adb6eca446c475f4",
      "blockHash": "0x6d653a3e6f0946a630de52ce08f56f5f00b95f8018d453f6759ba5613480c016",
      "blockNumber": 115374,
      "transactionIndex": 0,
      "confirmations": null,
      "from": "0xD72ab61a64fEAeE7b5EB3D42B5445858B95d38fd",
      "gasPrice": {
        "_hex": "0xe081994d6"
      },
      "gasLimit": {
        "_hex": "0x5208"
      },
      "to": "0x32Be343B94f860124dC4fEe278FDCBD38C102D88",
      "value": {
        "_hex": "0x7eb6dd87d4c0fc00"
      },
      "nonce": 8,
      "data": "0x",
      "r": "0x7daafd9d99acc5b638709cb06997faea42bb7a2785210cb046b7fceeba893f1b",
      "s": "0x63f010c63841a19734c1c4d3309ff444d7670811434c29188d0fe355c535ec69",
      "v": 28,
      "creates": null,
      "raw": "0xf86c08850e081994d68252089432be343b94f860124dc4fee278fdcbd38c102d88887eb6dd87d4c0fc00801ca07daafd9d99acc5b638709cb06997faea42bb7a2785210cb046b7fceeba893f1ba063f010c63841a19734c1c4d3309ff444d7670811434c29188d0fe355c535ec69",
      "networkId": 0,
      "chainId": 0
    },
    {
      "hash": "0x157bcf2dc84f43fc5458e4963de1f0d4490047fb45da0b94bc77b2c4d37fec81",
      "blockHash": "0x6d653a3e6f0946a630de52ce08f56f5f00b95f8018d453f6759ba5613480c016",
      "blockNumber": 115374,
      "transactionIndex": 1,
      "confirmations": null,
      "from": "0xf97e4688e66CD658F9666d93FD97f779b80218a0",
      "gasPrice": {
        "_hex": "0xcc8af9030"
      },
      "gasLimit": {
        "_hex": "0x5208"
      },
      "to": "0x32Be343B94f860124dC4fEe278FDCBD38C102D88",
      "value": {
        "_hex": "0x1cd505dd091a9400"
      },
      "nonce": 7,
      "data": "0x",
      "r": "0x4c2df31edd841a64096dc4907ef00c4e47aaa361ae411ff47f4eb8606a506971",
      "s": "0x06af4d065dbcfebc7f48e5c3772e672e0de2dfa14f39d542f7a1f1e462049c5f",
      "v": 27,
      "creates": null,
      "raw": "0xf86c07850cc8af90308252089432be343b94f860124dc4fee278fdcbd38c102d88881cd505dd091a9400801ba04c2df31edd841a64096dc4907ef00c4e47aaa361ae411ff47f4eb8606a506971a006af4d065dbcfebc7f48e5c3772e672e0de2dfa14f39d542f7a1f1e462049c5f",
      "networkId": 0,
      "chainId": 0
    }
  ]
}