{
  "hash": "0x601b565f9fffdd971919d23bf3ca40151947393c94b77915530aa85c4a65bf32",
  "parentHash": "0x64903fb294c0ccfc843abe8028d358e537908aa6c084c171709fd7b172a4b482",
  "number": 99046,
  "timestamp": 1439783356,
  "nonce": "0xe15510f39fd6f25b",
  "difficulty": 3827243917558,
  "gasLimit": {
    "_hex": "0x2fefd8"
  },
  "gasUsed": {
    "_hex": "0x5208"
  },
  "miner": "0xce5d31e615aBFd0FDd25bFc608ee1FA0dD2465dC",
  "extraData": "0x476574682f76312e302e312f77696e646f77732f676f312e342e32",
  "transactions": [
    {
      "hash": "0x7723776239cbdbb97d8e8d2d8293087eb5548f7056fa1a11b242ad3c6808cd2e",
      "blockHash": "0x601b565f9fffdd971919d23bf3ca40151947393c94b77915530aa85c4a65bf32",
      "blockNumber": 99046,
      "transactionIndex": 0,
      "confirmations": null,
      "from": "0x007f7f58D3eb5b7510A301eCC749FC1fCDDBE14D",
      "gasPrice": {
        "_hex": "0xe0cfe7246"
      },
      "gasLimit": {
        "_hex": "0x15f90"
      },
      "to": "0xb1abce2918E21ddb93AA452731a12672A3d9F75a",
      "value": {
        "_hex": "0x4563918244f40000"
      },
      "nonce": 144,
      "data": "0x",
      "r": "0x04b3c83f8846168e9d10af99262f866c3addbc3650b7667b8a220de3d375f2c8",
      "s": "0x011a3a79072a8b0f7b8be552bc4d2503b64823d9dcf87c8382bdc9bb124a7373",
      "v": 28,
      "creates": null,
      "raw": "0xf86e8190850e0cfe724683015f9094b1abce2918e21ddb93aa452731a12672a3d9f75a884563918244f40000801ca004b3c83f8846168e9d10af99262f866c3addbc3650b7667b8a220de3d375f2c8a0011a3a79072a8b0f7b8be552bc4d2503b64823d9dcf87c8382bdc9bb124a7373",
      "networkId": 0,
      "chainId": 0
    }
  ]
}