{
  "hash": "0x84cb266dc597107a4372673a134c36f4d8c251eb8f554dfcccc6c4cb249297f9",
  "parentHash": "0xd42b23820ebdce9eed8c576ad4192eb6d1014e42219ba55e777445703f53f1aa",
  "number": 103375,
  "timestamp": 1439852318,
  "nonce": "0xef1ace1cfe1d6eb7",
  "difficulty": 4166507307986,
  "gasLimit": {
    "_hex": "0x2fefd8"
  },
  "gasUsed": {
    "_hex": "0x5208"
  },
  "miner": "0xC978e305Aaa59952FAb39Ba288d6E9CB09B952E1",
  "extraData": "0x476574682f76312e302e312f77696e646f77732f676f312e342e32",
  "transactions": [
    {
      "hash": "0xa2856b28731a2541d7878ad38fcf15c81ac1475097799b744bcc211cd2ce42f2",
      "blockHash": "0x84cb266dc597107a4372673a134c36f4d8c251eb8f554dfcccc6c4cb249297f9",
      "blockNumber": 103375,
      "transactionIndex": 0,
      "confirmations": null,
      "from": "0xCbbdAd70d0ff27254925AD37B5C135EEe1116615",
      "gasPrice": {
        "_hex": "0x1131bcf2d90"
      },
      "gasLimit": {
        "_hex": "0x15f90"
      },
      "to": "0x886e83d9133F65B9c27A946f699E88e71A888E4C",
      "value": {
        "_hex": "0x16345785d8a0000"
      },
      "nonce": 12,
      "data": "0x",
      "r": "0xb4bc57998e6a78698fa6f0b96e763f17b21cd3fbacaac22b79b7ab2e2c525503",
      "s": "0x4fdff4537585dd9a3a2219778d1527b4f6c1d35a8aa15c44df27ebad95a4087d",
      "v": 28,
      "creates": null,
      "raw": "0xf86e0c8601131bcf2d9083015f9094886e83d9133f65b9c27a946f699e88e71a888e4c88016345785d8a0000801ca0b4bc57998e6a78698fa6f0b96e763f17b21cd3fbacaac22b79b7ab2e2c525503a04fdff4537585dd9a3a2219778d1527b4f6c1d35a8aa15c44df27ebad95a4087d",
      "networkId": 0,
      "chainId": 0
    }
  ]
}