{
  "hash": "0x832849f2db8c94c9ed92b2be9ed753b93dde004f827694e3284ea04e6052362b",
  "parentHash": "0x0186508d9007194f162610147bdde7e4ef615fdc50012faca382fdaf3946aac5",
  "number": 84410,
  "timestamp": 1439549239,
  "nonce": "0xaad9ab4d396f6357",
  "difficulty": 2561439341664,
  "gasLimit": {
    "_hex": "0x2fefd8"
  },
  "gasUsed": {
    "_hex": "0x5208"
  },
  "miner": "0xf927a40C8B7F6E07c5af7FA2155B4864a4112B13",
  "extraData": "0x",
  "transactions": [
    {
      "hash": "0x059427c70deb7dbbfbe11d44deeb5480adc94bc388e06561a9ef335907593261",
      "blockHash": "0x832849f2db8c94c9ed92b2be9ed753b93dde004f827694e3284ea04e6052362b",
      "blockNumber": 84410,
      "transactionIndex": 0,
      "confirmations": null,
      "from": "0xd83630DD777Ce7c8Df15D55A8Bb72EB7C7b4568D",
      "gasPrice": {
        "_hex": "0xe2080a914"
      },
      "gasLimit": {
        "_hex": "0x15f90"
      },
      "to": "0x43D575Cc486538f9B89F6e46188822F6fBC68D94",
      "value": {
        "_hex": "0x6124fee993bc0000"
      },
      "nonce": 6,
      "data": "0x",
      "r": "0xbd05f5bb26256bc42d253f6250d83089935f2cd67285b439b717611c63755fbc",
      "s": "0x7410e1d32be67da285d8a85ca4f4239c815b7300ee9529351b4c92b2df1ff6d7",
      "v": 28,
      "creates": null,
      "raw": "0xf86d06850e2080a91483015f909443d575cc486538f9b89f6e46188822f6fbc68d94886124fee993bc0000801ca0bd05f5bb26256bc42d253f6250d83089935f2cd67285b439b717611c63755fbca07410e1d32be67da285d8a85ca4f4239c815b7300ee9529351b4c92b2df1ff6d7",
      "networkId": 0,
      "chainId": 0
    }
  ]
}