{
  "hash": "0x85cfe8ff6f3df7698c16d4657f3d924ed61dc1fd5e4d493b856e5d435c0e8a67",
  "parentHash": "0xd4cf27db243c09f6de50fd5730bd50b81b65113fcd0b6e7ce9affbfc1ad1caf6",
  "number": 63217,
  "timestamp": 1439201030,
  "nonce": "0x7fe61ad9ccbebaa8",
  "difficulty": 1805874454978,
  "gasLimit": {
    "_hex": "0x2fefd8"
  },
  "gasUsed": {
    "_hex": "0x5208"
  },
  "miner": "0x55bAf64fc9eAccFFd7Cc643BB61142E1C6ac093e",
  "extraData": "0x",
  "transactions": [
    {
      "hash": "0x9e6b34b8b93313572f4962c691f9014b9716d0802d2325af9dc4a7d739df827b",
      "blockHash": "0x85cfe8ff6f3df7698c16d4657f3d924ed61dc1fd5e4d493b856e5d435c0e8a67",
      "blockNumber": 63217,
      "transactionIndex": 0,
      "confirmations": null,
      "from": "0x2910543Af39abA0Cd09dBb2D50200b3E800A63D2",
      "gasPrice": {
        "_hex": "0xdc996058e"
      },
      "gasLimit": {
        "_hex": "0x5208"
      },
      "to": "0xc569e2900721fb260f3E562Feda37f60A88dFE28",
      "value": {
        "_hex": "0x11c37937e08000"
      },
      "nonce": 124,
      "data": "0x",
      "r": "0x22fa341ff693397d67693723cbabe0d1092bc2df80ecbe12c2972ec5c153387d",
      "s": "0x10f5d322492c7d6d45428f7d67fb235e78222adb832e5e7fb109b111ddb88663",
      "v": 28,
      "creates": null,
      "raw": "0xf86b7c850dc996058e82520894c569e2900721fb260f3e562feda37f60a88dfe288711c37937e08000801ca022fa341ff693397d67693723cbabe0d1092bc2df80ecbe12c2972ec5c153387da010f5d322492c7d6d45428f7d67fb235e78222adb832e5e7fb109b111ddb88663",
      "networkId": 0,
      "chainId": 0
    }
  ]
}