{
  "hash": "0xf2e442e7ccd88420d459cb3be4968d532fbeb9c22a23853117d7747bf750f0f8",
  "parentHash": "0x013100b1b8a65d666089625ab1730da4090386de1db4a704d2d109dd993d65a6",
  "number": 105540,
  "timestamp": 1439889277,
  "nonce": "0xcdc2ac91bd2c746a",
  "difficulty": 4406022560980,
  "gasLimit": {
    "_hex": "0x2fefd8"
  },
  "gasUsed": {
    "_hex": "0x5208"
  },
  "miner": "0x580992B51e3925e23280EfB93d3047C82f17E038",
  "extraData": "0x476574682f76312e302e312f6c696e75782f676f312e342e32",
  "transactions": [
    {
      "hash": "0x1b6456bea5b5eec25f99b15a24034d8996b9372d4d3881bc207a16c009f0c759",
      "blockHash": "0xf2e442e7ccd88420d459cb3be4968d532fbeb9c22a23853117d7747bf750f0f8",
      "blockNumber": 105540,
      "transactionIndex": 0,
      "confirmations": null,
      "from": "0x896311963253FE9908c5D0F27A0EEBB4D56fae11",
      "gasPrice": {
        "_hex": "0xd320b3950"
      },
      "gasLimit": {
        "_hex": "0x5208"
      },
      "to": "0x32Be343B94f860124dC4fEe278FDCBD38C102D88",
      "value": {
        "_hex": "0xca4fdef908f3c000"
      },
      "nonce": 0,
      "data": "0x",
      "r": "0x760bef2ff742dbca2c6691b1ea7ed62caabbdc436f476f81406e8d3fed38c9bb",
      "s": "0x0f29d8ed226cc37fb49b7d5e8292bb6a6c6afba0d0c8f687f11f2435da48610f",
      "v": 28,
      "creates": null,
      "raw": "0xf86c80850d320b39508252089432be343b94f860124dc4fee278fdcbd38c102d8888ca4fdef908f3c000801ca0760bef2ff742dbca2c6691b1ea7ed62caabbdc436f476f81406e8d3fed38c9bba00f29d8ed226cc37fb49b7d5e8292bb6a6c6afba0d0c8f687f11f2435da48610f",
      "networkId": 0,
      "chainId": 0
    }
  ]
}