{
  "hash": "0x60f27b87a4531ce3b7bf94bc46fb33de5a5a1bee07c029d785503fc7c9dee249",
  "parentHash": "0x07ec97985723cfbaa84b3a06e4bda506969e7f44be49e5aa7bbc682a8cb768e8",
  "number": 68983,
  "timestamp": 1439296670,
  "nonce": "0x59d040197304c683",
  "difficulty": 2032970879475,
  "gasLimit": {
    "_hex": "0x2fefd8"
  },
  "gasUsed": {
    "_hex": "0x5208"
  },
  "miner": "0xe6A7a1d47ff21B6321162AEA7C6CB457D5476Bca",
  "extraData": "0x476574682f76312e302e312d38326566323666362f6c696e75782f676f312e34",
  "transactions": [
    {
      "hash": "0xb9da51fc7cdf127e89cf0da2addb5834c2ac91b64c4e2238f1307eb9abd24866",
      "blockHash": "0x60f27b87a4531ce3b7bf94bc46fb33de5a5a1bee07c029d785503fc7c9dee249",
      "blockNumber": 68983,
      "transactionIndex": 0,
      "confirmations": null,
      "from": "0x6838c651d12C4f480EE8265D301c5a0e28Dc094E",
      "gasPrice": {
        "_hex": "0xba43b7400"
      },
      "gasLimit": {
        "_hex": "0x5208"
      },
      "to": "0x17047BCC434eC02A022B437c1Edaad760106ec96",
      "value": {
        "_hex": "0x13572147582a000"
      },
      "nonce": 1,
      "data": "0x",
      "r": "0x83af6a81f75f67abeebdc93d3e169360278d847fa56caf3d7c2136ed284cb143",
      "s": "0x73767570bd58eef1248a7d1ee3c1d0365dbba5eceb0bb4dd9c503acb23a8be1c",
      "v": 27,
      "creates": null,
      "raw": "0xf86c01850ba43b74008252089417047bcc434ec02a022b437c1edaad760106ec9688013572147582a000801ba083af6a81f75f67abeebdc93d3e169360278d847fa56caf3d7c2136ed284cb143a073767570bd58eef1248a7d1ee3c1d0365dbba5eceb0bb4dd9c503acb23a8be1c",
      "networkId": 0,
      "chainId": 0
    }
  ]
}