{
  "hash": "0x21af1fe81f88c30bd80966594d55170d5c61f7244bef3ad30cf017c057184f34",
  "parentHash": "0x359e913803987ea427d47e29f12be5cd85dcc917e2cbaab572773c508198df76",
  "number": 99838,
  "timestamp": 1439796415,
  "nonce": "0x0658a1ad4470a613",
  "difficulty": 3834364274713,
  "gasLimit": {
    "_hex": "0x2fefd8"
  },
  "gasUsed": {
    "_hex": "0xa410"
  },
  "miner": "0x35e8e5dC5FBd97c5b421A80B596C030a2Be2A04D",
  "extraData": "0x476574682f76312e302e312f6c696e75782f676f312e342e32",
  "transactions": [
    {
      "hash": "0xa8bf1069b88df742f925d3e4365aa8625316c03a5e9e1e44faa42d3eeed6bf67",
      "blockHash": "0x21af1fe81f88c30bd80966594d55170d5c61f7244bef3ad30cf017c057184f34",
      "blockNumber": 99838,
      "transactionIndex": 0,
      "confirmations": null,
      "from": "0xA10C59651885FeAaac91F871082a23BBbaBeDfCf",
      "gasPrice": {
        "_hex": "0x109d58d1e20"
      },
      "gasLimit": {
        "_hex": "0x5208"
      },
      "to": "0x4c74B6F32c9680aCB5Fe0e72B7Aa95C612540A04",
      "value": {
        "_hex": "0x107ad8f556c6c0000"
      },
      "nonce": 37,
      "data": "0x",
      "r": "0x5ece15f3bb80bda569c9cd3c5150ec1fc243d71358337edacf9f501aa52a1a82",
      "s": "0x10652b9603a9de47977bbde132610450388919fd5af7f763c52f72e67562dcb0",
      "v": 27,
      "creates": null,
      "raw": "0xf86e25860109d58d1e20825208944c74b6f32c9680acb5fe0e72b7aa95c612540a04890107ad8f556c6c0000801ba05ece15f3bb80bda569c9cd3c5150ec1fc243d71358337edacf9f501aa52a1a82a010652b9603a9de47977bbde132610450388919fd5af7f763c52f72e67562dcb0",
      "networkId": 0,
      "chainId": 0
    },
    {
      "hash": "0x77e2b9f2fb35fde4318b67cd45d12f8b5c28ac8bdd83b04c20c77237c980be62",
      "blockHash": "0x21af1fe81f88c30bd80966594d55170d5c61f7244bef3ad30cf017c057184f34",
      "blockNumber": 99838,
      "transactionIndex": 1,
      "confirmations": null,
      "from": "0x007f7f58D3eb5b7510A301eCC749FC1fCDDBE14D",
      "gasPrice": {
        "_hex": "0xe0cfe7246"
      },
      "gasLimit": {
        "_hex": "0x15f90"
      },
      "to": "0xb1abce2918E21ddb93AA452731a12672A3d9F75a",
      "value": {
        "_hex": "0x4563918244f40000"
      },
      "nonce": 150,
      "data": "0x",
      "r": "0x442a74e43dfed375ed7d5aa56d2db397f1598480dda3c77371e6fdae8c5ea5dd",
      "s": "0x6d7f8034271bfef0be88a3b4bc584348d9c6e52cb8df87908aeb7a14fe987e86",
      "v": 27,
      "creates": null,
      "raw": "0xf86e8196850e0cfe724683015f9094b1abce2918e21ddb93aa452731a12672a3d9f75a884563918244f40000801ba0442a74e43dfed375ed7d5aa56d2db397f1598480dda3c77371e6fdae8c5ea5dda06d7f8034271bfef0be88a3b4bc584348d9c6e52cb8df87908aeb7a14fe987e86",
      "networkId": 0,
      "chainId": 0
    }
  ]
}