{
  "hash": "0x65cdf8ac0f19252ff0ae8ad6049d3fc68dec4e5fb54eb648602cf3d185e3ef64",
  "parentHash": "0x88c1e7f201d2577c608aea54e0baa504427a55a6af99827401aafa2bda71aaa4",
  "number": 52297,
  "timestamp": 1439019480,
  "nonce": "0x6e393fcf2510cfd4",
  "difficulty": 1557267415135,
  "gasLimit": {
    "_hex": "0x123e7c"
  },
  "gasUsed": {
    "_hex": "0x5208"
  },
  "miner": "0xbb7B8287f3F0a933474a79eAe42CBCa977791171",
  "extraData": "0x476574682f4c5649562f76312e302e312f6c696e75782f676f312e342e32",
  "transactions": [
    {
      "hash": "0x41c89919bde507c45674ee9198da9e9214079eb3589f0124cc33dfe9f4ed2379",
      "blockHash": "0x65cdf8ac0f19252ff0ae8ad6049d3fc68dec4e5fb54eb648602cf3d185e3ef64",
      "blockNumber": 52297,
      "transactionIndex": 0,
      "confirmations": null,
      "from": "0x2001BEF77b66F51e1599B02Fb110194A0099b78d",
      "gasPrice": {
        "_hex": "0xd8d7bafb4"
      },
      "gasLimit": {
        "_hex": "0x15f90"
      },
      "to": "0x94F429fDA438c622D39c8f98d586679951F63581",
      "value": {
        "_hex": "0x1b0d04202f47ec0000"
      },
      "nonce": 3,
      "data": "0x",
      "r": "0xae5d23fd63578159e9311b787106b9106177b4b2da7fa07897a0782c0b1bd2ea",
      "s": "0x497d5c9314492bc0150b38041b2d45b60b65f082ca6f2cf3b8ae56a39176eb84",
      "v": 28,
      "creates": null,
      "raw": "0xf86e03850d8d7bafb483015f909494f429fda438c622d39c8f98d586679951f63581891b0d04202f47ec0000801ca0ae5d23fd63578159e9311b787106b9106177b4b2da7fa07897a0782c0b1bd2eaa0497d5c9314492bc0150b38041b2d45b60b65f082ca6f2cf3b8ae56a39176eb84",
      "networkId": 0,
      "chainId": 0
    }
  ]
}