{
  "hash": "0xef70e28514e02cfe25debdfe85464da36da0b197ada4cdabb6796cef88840237",
  "parentHash": "0x7f0f32f4fff88f381555d0538bac4dea28a6c8f812591e7207153f9b216360ce",
  "number": 95576,
  "timestamp": 1439726002,
  "nonce": "0x9f31b77255ef4e0c",
  "difficulty": 3639249003501,
  "gasLimit": {
    "_hex": "0x2fefd8"
  },
  "gasUsed": {
    "_hex": "0x5208"
  },
  "miner": "0xbb7B8287f3F0a933474a79eAe42CBCa977791171",
  "extraData": "0x476574682f4c5649562f76312e302e312f6c696e75782f676f312e342e32",
  "transactions": [
    {
      "hash": "0x9e20ec98e5a4dc0d6e08d4ab61f1f6979375acb5afda6c3332c2bb0bd0e45f58",
      "blockHash": "0xef70e28514e02cfe25debdfe85464da36da0b197ada4cdabb6796cef88840237",
      "blockNumber": 95576,
      "transactionIndex": 0,
      "confirmations": null,
      "from": "0xEF247E639d49461D25F57e9362CadE3120910Ce0",
      "gasPrice": {
        "_hex": "0xe09c43bb1"
      },
      "gasLimit": {
        "_hex": "0x15f90"
      },
      "to": "0xF87481A262E993a75F791E7859E71BaC36A606Eb",
      "value": {
        "_hex": "0x7dc477bc1cfa40000"
      },
      "nonce": 31,
      "data": "0x",
      "r": "0x9f6a9fbdcbcdcec5d83961177b32aff71ec0865d5dbf3bfed177d2932d3191e2",
      "s": "0x5418d7cdd1839f33874b1dbc67878998a95a6a33cd5ba9cd71384336065c0f33",
      "v": 27,
      "creates": null,
      "raw": "0xf86e1f850e09c43bb183015f9094f87481a262e993a75f791e7859e71bac36a606eb8907dc477bc1cfa40000801ba09f6a9fbdcbcdcec5d83961177b32aff71ec0865d5dbf3bfed177d2932d3191e2a05418d7cdd1839f33874b1dbc67878998a95a6a33cd5ba9cd71384336065c0f33",
      "networkId": 0,
      "chainId": 0
    }
  ]
}