{
  "hash": "0xd61dccedbe7ddf2711efdef5da377b85371040573095708e0678beeec50b398f",
  "parentHash": "0x6a5099680a7420f962a5b9ad687fa82810b57d0f6b06eb847dbe102b07d0ae97",
  "number": 95060,
  "timestamp": 1439718340,
  "nonce": "0x84e6447ab50c6c82",
  "difficulty": 3496630494651,
  "gasLimit": {
    "_hex": "0x2fefd8"
  },
  "gasUsed": {
    "_hex": "0xa410"
  },
  "miner": "0x007f7f58D3eb5b7510A301eCC749FC1fCDDBE14D",
  "extraData": "0x476574682f76312e302e312f77696e646f77732f676f312e342e32",
  "transactions": [
    {
      "hash": "0x443f9f15d96822d4bc28ad7a11dd89782758ee2d0ab013563ab0562a3ab6ed6d",
      "blockHash": "0xd61dccedbe7ddf2711efdef5da377b85371040573095708e0678beeec50b398f",
      "blockNumber": 95060,
      "transactionIndex": 0,
      "confirmations": null,
      "from": "0xA1A13F48D504123E1d50e360267F894e8e43838c",
      "gasPrice": {
        "_hex": "0xba43b7400"
      },
      "gasLimit": {
        "_hex": "0x5208"
      },
      "to": "0xC47Aaa860008be6f65B58c6C6E02a84e666EfE31",
      "value": {
        "_hex": "0x365888df95a417d0"
      },
      "nonce": 2,
      "data": "0x",
      "r": "0xa66a59a62e384bf56cc139404c2b0cf9c48615d890eae9c6bf74f1207cc1c16a",
      "s": "0x5c2ef86c3b1a1f16580806ba01edd8bba003d007db0d173e305f70b0cc53c47c",
      "v": 27,
      "creates": null,
      "raw": "0xf86c02850ba43b740082520894c47aaa860008be6f65b58c6c6e02a84e666efe3188365888df95a417d0801ba0a66a59a62e384bf56cc139404c2b0cf9c48615d890eae9c6bf74f1207cc1c16aa05c2ef86c3b1a1f16580806ba01edd8bba003d007db0d173e305f70b0cc53c47c",
      "networkId": 0,
      "chainId": 0
    },
    {
      "hash": "0xd7cbfd12395c34e1be4449b4c98ba2bc27d5fd15998bebc577ac66ee615e2ef6",
      "blockHash": "0xd61dccedbe7ddf2711efdef5da377b85371040573095708e0678beeec50b398f",
      "blockNumber": 95060,
      "transactionIndex": 1,
      "confirmations": null,
      "from": "0x6Ca7109e3020A822bc419d4F8d35F6b929398407",
      "gasPrice": {
        "_hex": "0xba43b7400"
      },
      "gasLimit": {
        "_hex": "0x5208"
      },
      "to": "0xC47Aaa860008be6f65B58c6C6E02a84e666EfE31",
      "value": {
        "_hex": "0x3b68e7ff95c3a480"
      },
      "nonce": 2,
      "data": "0x",
      "r": "0x12aa7cb1c8cc535fef37d3f2dabcaf9386659feb70cb3162f9a7de6230f756bd",
      "s": "0x1b99305ea502ea57583491fe7392df71ba3e77bac6bf9d814b0ecf9a1e8f1903",
      "v": 28,
      "creates": null,
      "raw": "0xf86c02850ba43b740082520894c47aaa860008be6f65b58c6c6e02a84e666efe31883b68e7ff95c3a480801ca012aa7cb1c8cc535fef37d3f2dabcaf9386659feb70cb3162f9a7de6230f756bda01b99305ea502ea57583491fe7392df71ba3e77bac6bf9d814b0ecf9a1e8f1903",
      "networkId": 0,
      "chainId": 0
    }
  ]
}