{
  "hash": "0xcedc4a650e858d9569fea2e4872f90805934a53a140bf33a914cf1d91e0b78e7",
  "parentHash": "0xd19ba9e738b81f11bab77a153888944aee5c24765d59103b43a28a87575a729b",
  "number": 59986,
  "timestamp": 1439147039,
  "nonce": "0xc72ac3ab60ac4150",
  "difficulty": 1731433417065,
  "gasLimit": {
    "_hex": "0x2fefd8"
  },
  "gasUsed": {
    "_hex": "0xfae0"
  },
  "miner": "0x123843545FB525C8E134c9A5F15ADA6865cc3848",
  "extraData": "0x476574682f76312e302e312f77696e646f77732f676f312e342e32",
  "transactions": [
    {
      "hash": "0xfa3eea689f66417c8ad2d986767dc5f8b2b579e794fba91cde8410a9b1d219ef",
      "blockHash": "0xcedc4a650e858d9569fea2e4872f90805934a53a140bf33a914cf1d91e0b78e7",
      "blockNumber": 59986,
      "transactionIndex": 0,
      "confirmations": null,
      "from": "0x69bd25ADe1A3346c59c4e930db2A9d715EF0A27a",
      "gasPrice": {
        "_hex": "0x110c8f7d8de"
      },
      "gasLimit": {
        "_hex": "0xc350"
      },
      "to": "0x2910543Af39abA0Cd09dBb2D50200b3E800A63D2",
      "value": {
        "_hex": "0x6c5d481000c6990000"
      },
      "nonce": 2,
      "data": "0x454e5a5232354e3330",
      "r": "0x5aabe4b55243ee073337945894f2bc82ed395377c47b603e5240b3c01031340f",
      "s": "0x921b7e5c1913e37e33d8f34b589d82873b77a9f5973c5978fbe61006cecddcc2",
      "v": 28,
      "creates": null,
      "raw": "0xf87702860110c8f7d8de82c350942910543af39aba0cd09dbb2d50200b3e800a63d2896c5d481000c699000089454e5a5232354e33301ca05aabe4b55243ee073337945894f2bc82ed395377c47b603e5240b3c01031340fa0921b7e5c1913e37e33d8f34b589d82873b77a9f5973c5978fbe61006cecddcc2",
      "networkId": 0,
      "chainId": 0
    },
    {
      "hash": "0xca0a31d04efe697c3ea16ea96b96bf6cb5e4949d907f328c39039b2979d6eb1a",
      "blockHash": "0xcedc4a650e858d9569fea2e4872f90805934a53a140bf33a914cf1d91e0b78e7",
      "blockNumber": 59986,
      "transactionIndex": 1,
      "confirmations": null,
      "from": "0x9C78963fbc263c09bD72E4F8DEF74A9475F7055C",
      "gasPrice": {
        "_hex": "0xd9238ae77"
      },
      "gasLimit": {
        "_hex": "0x55f0"
      },
      "to": "0x2910543Af39abA0Cd09dBb2D50200b3E800A63D2",
      "value": {
        "_hex": "0x3635c9adc5dea00000"
      },
      "nonce": 0,
      "data": "0x454e5a4e5732473630",
      "r": "0x5c00003851cad086336687bb9bb698a26faa81ad1c35cec0f9dc1702819fd85d",
      "s": "0x5f0bcfd085d034a1ead66033095678631165f97b56263ca5c7e0f1f76f580e8f",
      "v": 27,
      "creates": null,
      "raw": "0xf87680850d9238ae778255f0942910543af39aba0cd09dbb2d50200b3e800a63d2893635c9adc5dea0000089454e5a4e57324736301ba05c00003851cad086336687bb9bb698a26faa81ad1c35cec0f9dc1702819fd85da05f0bcfd085d034a1ead66033095678631165f97b56263ca5c7e0f1f76f580e8f",
      "networkId": 0,
      "chainId": 0
    },
    {
      "hash": "0xc08e4acc051bebe1feee30209e382ad8d6021e487739ce4b2112ab59850fe77f",
      "blockHash": "0xcedc4a650e858d9569fea2e4872f90805934a53a140bf33a914cf1d91e0b78e7",
      "blockNumber": 59986,
      "transactionIndex": 2,
      "confirmations": null,
      "from": "0xc97b6E47df229442524F8f210926557900f81574",
      "gasPrice": {
        "_hex": "0xd1d24f9a4"
      },
      "gasLimit": {
        "_hex": "0x5208"
      },
      "to": "0x32Be343B94f860124dC4fEe278FDCBD38C102D88",
      "value": {
        "_hex": "0x6f017605b0cf4800"
      },
      "nonce": 5,
      "data": "0x",
      "r": "0xfa0a8e94af48531c15bc625bf963423c5100cb78795bcda37609f106300f6ea5",
      "s": "0x2829b056515e8a6b44622050a42cb9324bfe2975473f8e0750898220158a6d7c",
      "v": 28,
      "creates": null,
      "raw": "0xf86c05850d1d24f9a48252089432be343b94f860124dc4fee278fdcbd38c102d88886f017605b0cf4800801ca0fa0a8e94af48531c15bc625bf963423c5100cb78795bcda37609f106300f6ea5a02829b056515e8a6b44622050a42cb9324bfe2975473f8e0750898220158a6d7c",
      "networkId": 0,
      "chainId": 0
    }
  ]
}