{
  "hash": "0xa41ecc83238e0009a7d7828cf61e75927ad96ab44c49870bf802accff8607f52",
  "parentHash": "0x434dc412a639ceed8b43338cdee7cc70061d60eec2ac7d4018988c8140a1da6b",
  "number": 101782,
  "timestamp": 1439827956,
  "nonce": "0x7e8958b668c5e440",
  "difficulty": 3886246512386,
  "gasLimit": {
    "_hex": "0x2fefd8"
  },
  "gasUsed": {
    "_hex": "0xa410"
  },
  "miner": "0x790b8a3cE86E707ED0eD32bF89B3269692a23CC1",
  "extraData": "0xd783010001844765746887676f312e342e32856c696e7578",
  "transactions": [
    {
      "hash": "0xe0d4e2887ed670ea894310c51e66c0d7b500f91d21882d5a58b868bfb34dad50",
      "blockHash": "0xa41ecc83238e0009a7d7828cf61e75927ad96ab44c49870bf802accff8607f52",
      "blockNumber": 101782,
      "transactionIndex": 0,
      "confirmations": null,
      "from": "0x0142b986f0761E770A94198e8FBA8E5D1D84483F",
      "gasPrice": {
        "_hex": "0x114f7ff2ead"
      },
      "gasLimit": {
        "_hex": "0x15f90"
      },
      "to": "0x0000000000000000000000000000000000000000",
      "value": {
        "_hex": "0xde0b6b3a7640000"
      },
      "nonce": 0,
      "data": "0x",
      "r": "0x7314076359151e2ce3e4b8c1a691353709a3d4de3761e9963a7aedcf0e10c8ef",
      "s": "0x0df49ce1ad1fc4682fbf75019ab312dc214bbfb7e1cd819a875959a27edf3139",
      "v": 28,
      "creates": null,
      "raw": "0xf86e80860114f7ff2ead83015f90940000000000000000000000000000000000000000880de0b6b3a7640000801ca07314076359151e2ce3e4b8c1a691353709a3d4de3761e9963a7aedcf0e10c8efa00df49ce1ad1fc4682fbf75019ab312dc214bbfb7e1cd819a875959a27edf3139",
      "networkId": 0,
      "chainId": 0
    },
    {
      "hash": "0xf5391ccdd819ca7de987e8f03fe998cc234051dcb899602346bd6b23c6e340d8",
      "blockHash": "0xa41ecc83238e0009a7d7828cf61e75927ad96ab44c49870bf802accff8607f52",
      "blockNumber": 101782,
      "transactionIndex": 1,
      "confirmations": null,
      "from": "0xcf00A85f3826941e7A25BFcF9Aac575d40410852",
      "gasPrice": {
        "_hex": "0xcb5bea614"
      },
      "gasLimit": {
        "_hex": "0x15f90"
      },
      "to": "0xD9666150A9dA92d9108198a4072970805a8B3428",
      "value": {
        "_hex": "0x4563918244f40000"
      },
      "nonce": 38,
      "data": "0x",
      "r": "0xe1b9697dd5879fe78d2dde69b6e6eea1490663c15741b148737f630f23bf9e5a",
      "s": "0x41ff4a5b187d9b50394f1ac478bc116fb921b0f9f7ae0dadd85e4270663b7f7a",
      "v": 28,
      "creates": null,
      "raw": "0xf86d26850cb5bea61483015f9094d9666150a9da92d9108198a4072970805a8b3428884563918244f40000801ca0e1b9697dd5879fe78d2dde69b6e6eea1490663c15741b148737f630f23bf9e5aa041ff4a5b187d9b50394f1ac478bc116fb921b0f9f7ae0dadd85e4270663b7f7a",
      "networkId": 0,
      "chainId": 0
    }
  ]
}