{
  "hash": "0x166d2b6245e44ee65fab4388439e98dac61cc850dff332b2b1e1202e021c38c9",
  "parentHash": "0x05ca38709c2583493c4b746fc558a057bfae43931741a0041c8306611ea8a624",
  "number": 96961,
  "timestamp": 1439748678,
  "nonce": "0xda874d4d130f13db",
  "difficulty": 3741341628176,
  "gasLimit": {
    "_hex": "0x2fefd8"
  },
  "gasUsed": {
    "_hex": "0xa410"
  },
  "miner": "0xe6A7a1d47ff21B6321162AEA7C6CB457D5476Bca",
  "extraData": "0x476574682f76312e302e312d38326566323666362f6c696e75782f676f312e34",
  "transactions": [
    {
      "hash": "0xbca59c264dc943b7a5c8f623c92cbe9d1f9ae7665e0ed0186b7218e3cd56b888",
      "blockHash": "0x166d2b6245e44ee65fab4388439e98dac61cc850dff332b2b1e1202e021c38c9",
      "blockNumber": 96961,
      "transactionIndex": 0,
      "confirmations": null,
      "from": "0xccf4256f292172692ffa9Fa1d808abF6D62024a8",
      "gasPrice": {
        "_hex": "0xdb1ab6750"
      },
      "gasLimit": {
        "_hex": "0x15f90"
      },
      "to": "0xB139D418EFafa49c3364bbf260697491cFb204b1",
      "value": {
        "_hex": "0xf8b0a10e470000"
      },
      "nonce": 0,
      "data": "0x",
      "r": "0xf2b556b1aa0bb87c397de49eb702ad58604f22339d8891d0b28af5407a80c204",
      "s": "0x7f61a46e8760660e0dc359f80b0701210a95e177f7399996bad6a5d69b376da3",
      "v": 27,
      "creates": null,
      "raw": "0xf86c80850db1ab675083015f9094b139d418efafa49c3364bbf260697491cfb204b187f8b0a10e470000801ba0f2b556b1aa0bb87c397de49eb702ad58604f22339d8891d0b28af5407a80c204a07f61a46e8760660e0dc359f80b0701210a95e177f7399996bad6a5d69b376da3",
      "networkId": 0,
      "chainId": 0
    },
    {
      "hash": "0xc3ef7dcf2b8bedc494a8708f33c052895358e36233a23ec9d17f44d040e36174",
      "blockHash": "0x166d2b6245e44ee65fab4388439e98dac61cc850dff332b2b1e1202e021c38c9",
      "blockNumber": 96961,
      "transactionIndex": 1,
      "confirmations": null,
      "from": "0x7884D470204862a0d1A21122F41ee77430396Ee5",
      "gasPrice": {
        "_hex": "0xd5a8763a9"
      },
      "gasLimit": {
        "_hex": "0x15f90"
      },
      "to": "0x8fC0eD8883D1F471De4001960cEf965241a123de",
      "value": {
        "_hex": "0x13fbe85edc90000"
      },
      "nonce": 27,
      "data": "0x",
      "r": "0x9f4d2cdd4546c24213f62e0b504acd3ea9602dfdc83ece9683cfef021c5288ac",
      "s": "0x1543c924160d827ec0c96a750eea0712cc0100833497cecff61ac865252a958c",
      "v": 28,
      "creates": null,
      "raw": "0xf86d1b850d5a8763a983015f90948fc0ed8883d1f471de4001960cef965241a123de88013fbe85edc90000801ca09f4d2cdd4546c24213f62e0b504acd3ea9602dfdc83ece9683cfef021c5288aca01543c924160d827ec0c96a750eea0712cc0100833497cecff61ac865252a958c",
      "networkId": 0,
      "chainId": 0
    }
  ]
}