{
  "hash": "0x9c5945345dc1bc7a8cf5d63947e98c1e96ab516bc2a2be59c93202b8294fd320",
  "parentHash": "0xd7477c12f739f993a43ba087e35d8da285d641762b0a79f8874a9f08f83279bb",
  "number": 103242,
  "timestamp": 1439849945,
  "nonce": "0xc4eca1ae8397a660",
  "difficulty": 4193105464614,
  "gasLimit": {
    "_hex": "0x2fefd5"
  },
  "gasUsed": {
    "_hex": "0x5208"
  },
  "miner": "0xe6A7a1d47ff21B6321162AEA7C6CB457D5476Bca",
  "extraData": "0x476574682f76312e302e312d38326566323666362f6c696e75782f676f312e34",
  "transactions": [
    {
      "hash": "0x532f1624e703cbe9eb0f8e1be49329d3c5490bea4a12a2baac3e051d4ad31559",
      "blockHash": "0x9c5945345dc1bc7a8cf5d63947e98c1e96ab516bc2a2be59c93202b8294fd320",
      "blockNumber": 103242,
      "transactionIndex": 0,
      "confirmations": null,
      "from": "0x120A270bbC009644e35F0bB6ab13f95b8199c4ad",
      "gasPrice": {
        "_hex": "0xe00456f69"
      },
      "gasLimit": {
        "_hex": "0x3d090"
      },
      "to": "0x722547A62d1E072bC23f4dE7b8D43108EFAe41fA",
      "value": {
        "_hex": "0xd93d95239cfe0800"
      },
      "nonce": 713,
      "data": "0x",
      "r": "0x121753bd58207bf962d9dcb73cae50131b4ac42c1310c5d6bb3d519b6fc5fedc",
      "s": "0x635528ab37225c73147c2186f701c277d8e1c03906bdb37c0a39bb264c00add5",
      "v": 27,
      "creates": null,
      "raw": "0xf86f8202c9850e00456f698303d09094722547a62d1e072bc23f4de7b8d43108efae41fa88d93d95239cfe0800801ba0121753bd58207bf962d9dcb73cae50131b4ac42c1310c5d6bb3d519b6fc5fedca0635528ab37225c73147c2186f701c277d8e1c03906bdb37c0a39bb264c00add5",
      "networkId": 0,
      "chainId": 0
    }
  ]
}