{
  "hash": "0x97af9494cd80a9f108baab23d0639564c7b3b85b2aab23dba018a0655108a49d",
  "parentHash": "0x3e3fed514f1befe08953f4a90f1ef6fce0e7473d126cfe47798471f5d8a2bcab",
  "number": 110882,
  "timestamp": 1439981221,
  "nonce": "0x77220b74a3e6ffb1",
  "difficulty": 4398919709495,
  "gasLimit": {
    "_hex": "0x2fefd8"
  },
  "gasUsed": {
    "_hex": "0x5208"
  },
  "miner": "0x0D2C9857E819cf1275eb59B49033343ccC35fe42",
  "extraData": "0x",
  "transactions": [
    {
      "hash": "0x56a814570b2959403507a1ad8f3289b8fe4de124800a35cca21905b1dd0e613c",
      "blockHash": "0x97af9494cd80a9f108baab23d0639564c7b3b85b2aab23dba018a0655108a49d",
      "blockNumber": 110882,
      "transactionIndex": 0,
      "confirmations": null,
      "from": "0x3ec1e84c020b83fF4A0Fedf5622D2d58530Fad83",
      "gasPrice": {
        "_hex": "0xcbe679d55"
      },
      "gasLimit": {
        "_hex": "0x5208"
      },
      "to": "0x32Be343B94f860124dC4fEe278FDCBD38C102D88",
      "value": {
        "_hex": "0x25f26f7dd982a40000"
      },
      "nonce": 0,
      "data": "0x",
      "r": "0x81b97b2eba7a8ee2bc6f9a79a00fc61b81c724e0875186261cc421feb1d12796",
      "s": "0x050317e62d48faa309b16ff78e03e174d749dfd1c0c06191fa5fe299d905d573",
      "v": 27,
      "creates": null,
      "raw": "0xf86d80850cbe679d558252089432be343b94f860124dc4fee278fdcbd38c102d888925f26f7dd982a40000801ba081b97b2eba7a8ee2bc6f9a79a00fc61b81c724e0875186261cc421feb1d12796a0050317e62d48faa309b16ff78e03e174d749dfd1c0c06191fa5fe299d905d573",
      "networkId": 0,
      "chainId": 0
    }
  ]
}