{
  "hash": "0xe71319a645f4dfdfc6371c2fdc142d3dcfb1a846cb76ee2d9668935dc2bffccc",
  "parentHash": "0xdf764fd87e96ddb4c8b1663e9d051a4fbe1d07ee40adf8aa722b39159ce4eeed",
  "number": 90999,
  "timestamp": 1439648881,
  "nonce": "0xa9d98850c1229527",
  "difficulty": 3422294525405,
  "gasLimit": {
    "_hex": "0x2fefd8"
  },
  "gasUsed": {
    "_hex": "0x5208"
  },
  "miner": "0x8eB3747b8397C48BC29fd5Df6765AbCEfbDffFCA",
  "extraData": "0x476574682f76312e302e312f6c696e75782f676f312e342e32",
  "transactions": [
    {
      "hash": "0x44966f81579b2f4348dbdad4077313d49cad72b719e1ed4b70f21e82469cd2cf",
      "blockHash": "0xe71319a645f4dfdfc6371c2fdc142d3dcfb1a846cb76ee2d9668935dc2bffccc",
      "blockNumber": 90999,
      "transactionIndex": 0,
      "confirmations": null,
      "from": "0x051219f568c86EA6DD6Dd2cC8052c31504F33d44",
      "gasPrice": {
        "_hex": "0xd8364fc25"
      },
      "gasLimit": {
        "_hex": "0x15f90"
      },
      "to": "0x1463cEF3d9007Db05b7C3B8981D38602EE0D855a",
      "value": {
        "_hex": "0x2b5e3af16b1880000"
      },
      "nonce": 4,
      "data": "0x",
      "r": "0xf2b49a5d9bc14a624ebe15ef3a45df08ce6c988d67143b53d61ae1c60b7bf0be",
      "s": "0x3731a10de9bb9bae7af5ae1a6357bf3fb2256818755b017f6e63c9abe06edc69",
      "v": 28,
      "creates": null,
      "raw": "0xf86e04850d8364fc2583015f90941463cef3d9007db05b7c3b8981d38602ee0d855a8902b5e3af16b1880000801ca0f2b49a5d9bc14a624ebe15ef3a45df08ce6c988d67143b53d61ae1c60b7bf0bea03731a10de9bb9bae7af5ae1a6357bf3fb2256818755b017f6e63c9abe06edc69",
      "networkId": 0,
      "chainId": 0
    }
  ]
}