{
  "hash": "0xe640ace1467dc4ef68e98462b5fd86d4943e4607e94fd779e259dbecb35f97e3",
  "parentHash": "0x2cccd70e3913eaf0af9dc035377f034fed13724d3b3ccf3077f2e3d1d9bc4248",
  "number": 54690,
  "timestamp": 1439058355,
  "nonce": "0x8989e8307f6811c6",
  "difficulty": 1622797107633,
  "gasLimit": {
    "_hex": "0x2fefd5"
  },
  "gasUsed": {
    "_hex": "0x5208"
  },
  "miner": "0x559EbD64C915Ca65b2F829D9DA8773d585d70a55",
  "extraData": "0x",
  "transactions": [
    {
      "hash": "0x91114f53773854a0260e7dd343b81522f5048d48ab6bbafb94f7b18e58ec19d1",
      "blockHash": "0xe640ace1467dc4ef68e98462b5fd86d4943e4607e94fd779e259dbecb35f97e3",
      "blockNumber": 54690,
      "transactionIndex": 0,
      "confirmations": null,
      "from": "0xeD17Ea8E9fd42159037deE95ea173a56c54f55ce",
      "gasPrice": {
        "_hex": "0xe13a509ec"
      },
      "gasLimit": {
        "_hex": "0x5208"
      },
      "to": "0x32Be343B94f860124dC4fEe278FDCBD38C102D88",
      "value": {
        "_hex": "0x365fb1c1f900bc000"
      },
      "nonce": 9,
      "data": "0x",
      "r": "0x63000cda3bd8c23fad368fc01a4ac27e1c6e5c68a27f95b3f5c34cc2746d2bdd",
      "s": "0x3574de0fa8dda4cbe1f99199733487d990d160180a433e25f937ae1b13bc45f3",
      "v": 28,
      "creates": null,
      "raw": "0xf86d09850e13a509ec8252089432be343b94f860124dc4fee278fdcbd38c102d88890365fb1c1f900bc000801ca063000cda3bd8c23fad368fc01a4ac27e1c6e5c68a27f95b3f5c34cc2746d2bdda03574de0fa8dda4cbe1f99199733487d990d160180a433e25f937ae1b13bc45f3",
      "networkId": 0,
      "chainId": 0
    }
  ]
}