{
  "hash": "0x83cd548836ddd5e4b666b7890c42fe31346a13a1890c7cf1a9daf558535e4f56",
  "parentHash": "0xadaff1b23afb8e13d7f9750d9ab140f096c226d88a90fcad9a34cf59bb32a5fa",
  "number": 91490,
  "timestamp": 1439656438,
  "nonce": "0x19df489799f554d1",
  "difficulty": 3487885499263,
  "gasLimit": {
    "_hex": "0x2fefd8"
  },
  "gasUsed": {
    "_hex": "0x546c"
  },
  "miner": "0xe6A7a1d47ff21B6321162AEA7C6CB457D5476Bca",
  "extraData": "0x476574682f76312e302e312d38326566323666362f6c696e75782f676f312e34",
  "transactions": [
    {
      "hash": "0xbd9df17aa122246676eda71fdda3271e3e2054fefecc10c4e8fec157b65e3c8c",
      "blockHash": "0x83cd548836ddd5e4b666b7890c42fe31346a13a1890c7cf1a9daf558535e4f56",
      "blockNumber": 91490,
      "transactionIndex": 0,
      "confirmations": null,
      "from": "0x8197948121732e63D9C148194EcAD46E30B749c8",
      "gasPrice": {
        "_hex": "0x110c8f7d8de"
      },
      "gasLimit": {
        "_hex": "0xc350"
      },
      "to": "0x2910543Af39abA0Cd09dBb2D50200b3E800A63D2",
      "value": {
        "_hex": "0xa2a15d09519be00000"
      },
      "nonce": 1,
      "data": "0x454e31323355355638",
      "r": "0x546ad9822dd2323b6cfeca1d446e684daf495f56b5b00d647d5e53ad5c05dde9",
      "s": "0xa02efec71203744f175922047d1b32115825cc119b26963b7126a679384b1fe9",
      "v": 27,
      "creates": null,
      "raw": "0xf87701860110c8f7d8de82c350942910543af39aba0cd09dbb2d50200b3e800a63d289a2a15d09519be0000089454e313233553556381ba0546ad9822dd2323b6cfeca1d446e684daf495f56b5b00d647d5e53ad5c05dde9a0a02efec71203744f175922047d1b32115825cc119b26963b7126a679384b1fe9",
      "networkId": 0,
      "chainId": 0
    }
  ]
}