{
  "hash": "0xa6236335a3dba7c0ae7d045a8396193b63064930fc3752c8ae2d32b26abd97bd",
  "parentHash": "0x1c74dd206195bce2f1ccaca7494c0c3b34ce1f98434b30fadfc6898f10801d08",
  "number": 61729,
  "timestamp": 1439177230,
  "nonce": "0x16e70cfe8515c77b",
  "difficulty": 1733611304885,
  "gasLimit": {
    "_hex": "0x2fefd5"
  },
  "gasUsed": {
    "_hex": "0x5208"
  },
  "miner": "0x72e3Ea8234b449531A581F05f1c1E07cceb559d2",
  "extraData": "0x476574682f76312e302e312f6c696e75782f676f312e342e32",
  "transactions": [
    {
      "hash": "0x3b028f4882a2a7f95b42b6bcce641a908ea41faf01be7e76cf8367e270219e24",
      "blockHash": "0xa6236335a3dba7c0ae7d045a8396193b63064930fc3752c8ae2d32b26abd97bd",
      "blockNumber": 61729,
      "transactionIndex": 0,
      "confirmations": null,
      "from": "0x120A270bbC009644e35F0bB6ab13f95b8199c4ad",
      "gasPrice": {
        "_hex": "0xdf4cbcd14"
      },
      "gasLimit": {
        "_hex": "0x15f90"
      },
      "to": "0xcD063B3081Ea55535E5b60a21eff7f14E785A877",
      "value": {
        "_hex": "0x15af1d78b58c40000"
      },
      "nonce": 83,
      "data": "0x",
      "r": "0x44725bc9c6d5e070914fa33f0784b0c55a4bac19273dda7287e93042dbb0185c",
      "s": "0x0480982ec3e5c2a2b37512706b3cacb02d80b2c1ce5fb89177167f33eee60249",
      "v": 27,
      "creates": null,
      "raw": "0xf86e53850df4cbcd1483015f9094cd063b3081ea55535e5b60a21eff7f14e785a87789015af1d78b58c40000801ba044725bc9c6d5e070914fa33f0784b0c55a4bac19273dda7287e93042dbb0185ca00480982ec3e5c2a2b37512706b3cacb02d80b2c1ce5fb89177167f33eee60249",
      "networkId": 0,
      "chainId": 0
    }
  ]
}