{
  "hash": "0x4a2099a2c8c7d26817cd7f197347d5d2759f1ee0d1dcc753a2880cdf38d3b12f",
  "parentHash": "0x64e9c90993d67b7d83de5a22c21772ca075d2dac4988024109eb24368e271de6",
  "number": 67089,
  "timestamp": 1439265789,
  "nonce": "0x71b694824f3e3ba4",
  "difficulty": 1923333591618,
  "gasLimit": {
    "_hex": "0x2fe3fa"
  },
  "gasUsed": {
    "_hex": "0x5208"
  },
  "miner": "0x5F8F73E26CdF436f19Cb24C82F90A15AFe55b592",
  "extraData": "0x476574682f76312e302e312f77696e646f77732f676f312e342e32",
  "transactions": [
    {
      "hash": "0xa8e015654b174cec87030847e76fbfaa7057e88ed1676d79259ad245759966ef",
      "blockHash": "0x4a2099a2c8c7d26817cd7f197347d5d2759f1ee0d1dcc753a2880cdf38d3b12f",
      "blockNumber": 67089,
      "transactionIndex": 0,
      "confirmations": null,
      "from": "0x120A270bbC009644e35F0bB6ab13f95b8199c4ad",
      "gasPrice": {
        "_hex": "0xd0a1a453b"
      },
      "gasLimit": {
        "_hex": "0x15f90"
      },
      "to": "0x7244C460dEA1e5835772469AbBF5426D4ad14d59",
      "value": {
        "_hex": "0x46be8359d04cc40000"
      },
      "nonce": 155,
      "data": "0x",
      "r": "0xe9261ab154bb570c9a41eac0859f6c7cfc754490b064b2d238e538cc66cfaf9a",
      "s": "0x6a06e560abe82b1ee3b79f44d41a5eb1bd3e217ff2eaf1a89dab3225b6be9588",
      "v": 27,
      "creates": null,
      "raw": "0xf86f819b850d0a1a453b83015f90947244c460dea1e5835772469abbf5426d4ad14d598946be8359d04cc40000801ba0e9261ab154bb570c9a41eac0859f6c7cfc754490b064b2d238e538cc66cfaf9aa06a06e560abe82b1ee3b79f44d41a5eb1bd3e217ff2eaf1a89dab3225b6be9588",
      "networkId": 0,
      "chainId": 0
    }
  ]
}