{
  "hash": "0x6d7a30000767d222f20854c54512e3f78914c960465b7eae55af9a5c5b6428c1",
  "parentHash": "0x4185e82dbd2b49aa8aa197921faa809791d65a2152dab825601de173c4857a17",
  "number": 66780,
  "timestamp": 1439260106,
  "nonce": "0x650f2a2512ad2689",
  "difficulty": 1950833894146,
  "gasLimit": {
    "_hex": "0x2fefd8"
  },
  "gasUsed": {
    "_hex": "0x5208"
  },
  "miner": "0x580992B51e3925e23280EfB93d3047C82f17E038",
  "extraData": "0x476574682f76312e302e312f6c696e75782f676f312e342e32",
  "transactions": [
    {
      "hash": "0xb0aa226060fd73d5ec7e6027dafcf78d7b61c47dda802b10b3a78ba39f2781a2",
      "blockHash": "0x6d7a30000767d222f20854c54512e3f78914c960465b7eae55af9a5c5b6428c1",
      "blockNumber": 66780,
      "transactionIndex": 0,
      "confirmations": null,
      "from": "0xE9b9F4aC8114911e13f659915F9A10661F6B5CB1",
      "gasPrice": {
        "_hex": "0xdb0b5697b"
      },
      "gasLimit": {
        "_hex": "0x15f90"
      },
      "to": "0xD441bA6FFe06b0BD76330aC8F9c2946dA2dF88A2",
      "value": {
        "_hex": "0x16345785d8a0000"
      },
      "nonce": 11,
      "data": "0x",
      "r": "0x25173cd74e4028a3dbe70faefa764adc3e1672e8d1162f2cd28bc638d9c9dcfd",
      "s": "0x08abf53cf2992e1f326a9f3f4ac74851a49570f6433c2e28d2d6c59642876425",
      "v": 28,
      "creates": null,
      "raw": "0xf86d0b850db0b5697b83015f9094d441ba6ffe06b0bd76330ac8f9c2946da2df88a288016345785d8a0000801ca025173cd74e4028a3dbe70faefa764adc3e1672e8d1162f2cd28bc638d9c9dcfda008abf53cf2992e1f326a9f3f4ac74851a49570f6433c2e28d2d6c59642876425",
      "networkId": 0,
      "chainId": 0
    }
  ]
}