{
  "hash": "0xd2a2ac1ad81c6ca02f8cfaab403b4ee09489723a5a43eef046a916375a3f5253",
  "parentHash": "0x34e28614d27b6b0293b3c341ebbe3b6c5736e3dfda01aea47f8232d75b48e52c",
  "number": 48964,
  "timestamp": 1438965692,
  "nonce": "0xb48a69908b0c63dd",
  "difficulty": 1484369503595,
  "gasLimit": {
    "_hex": "0x2206a"
  },
  "gasUsed": {
    "_hex": "0x5208"
  },
  "miner": "0xeB1325C8D9d3ea8D74aC11F4B00F1B2367686319",
  "extraData": "0x476574682f76312e302e312f77696e646f77732f676f312e342e32",
  "transactions": [
    {
      "hash": "0xc4cd3e896a68a66b3dcdcbd9ff9688df7464ccbaa8c033d6d17f834eee5343b1",
      "blockHash": "0xd2a2ac1ad81c6ca02f8cfaab403b4ee09489723a5a43eef046a916375a3f5253",
      "blockNumber": 48964,
      "transactionIndex": 0,
      "confirmations": null,
      "from": "0xE6d49F86C228f47367a35E886CAACB271e539429",
      "gasPrice": {
        "_hex": "0x45d964b800"
      },
      "gasLimit": {
        "_hex": "0x5208"
      },
      "to": "0xA5e713a9a07aD5E86699c3B13fe99f06E52193ee",
      "value": {
        "_hex": "0x4563918244f40000"
      },
      "nonce": 1,
      "data": "0x",
      "r": "0x51004803e4d5aac07a53171e9f953211f20bfe9fdd758899a61193f1bb9327e3",
      "s": "0x7196fdfb9067375e9eb1c391e5713a78675f5edb745cb3671b93246efbc1e3db",
      "v": 28,
      "creates": null,
      "raw": "0xf86c018545d964b80082520894a5e713a9a07ad5e86699c3b13fe99f06e52193ee884563918244f40000801ca051004803e4d5aac07a53171e9f953211f20bfe9fdd758899a61193f1bb9327e3a07196fdfb9067375e9eb1c391e5713a78675f5edb745cb3671b93246efbc1e3db",
      "networkId": 0,
      "chainId": 0
    }
  ]
}