{
  "hash": "0x5f8a51a2a3cc857fdf2ddd4a89ab19059f79e52f38bb909820d11c220642b624",
  "parentHash": "0x30e406651db4c6c74b8054d8e0c54c9e50c6ff657a5f1a92103a80159cd85e5b",
  "number": 70812,
  "timestamp": 1439325909,
  "nonce": "0x26671d906476c626",
  "difficulty": 2143634680794,
  "gasLimit": {
    "_hex": "0x2fefd8"
  },
  "gasUsed": {
    "_hex": "0x5208"
  },
  "miner": "0xe6A7a1d47ff21B6321162AEA7C6CB457D5476Bca",
  "extraData": "0x476574682f76312e302e312d38326566323666362f6c696e75782f676f312e34",
  "transactions": [
    {
      "hash": "0x8589e6f2f1a0c04eda64af2f371bdbe77f3c39493c18c4272815de84f71d8a69",
      "blockHash": "0x5f8a51a2a3cc857fdf2ddd4a89ab19059f79e52f38bb909820d11c220642b624",
      "blockNumber": 70812,
      "transactionIndex": 0,
      "confirmations": null,
      "from": "0x723E05fF30e4ba7A87b4D7D459eE5B488A9c36d1",
      "gasPrice": {
        "_hex": "0xcfd867d3a"
      },
      "gasLimit": {
        "_hex": "0x15f90"
      },
      "to": "0xabceA603089850F8f6bB612A9031554D90A247CF",
      "value": {
        "_hex": "0xde0b6b3a7640000"
      },
      "nonce": 0,
      "data": "0x",
      "r": "0x061441c5f66ad57a0bb5c502128b2a1a19488bc4664b99decc6efbe51b70a9fb",
      "s": "0x1b82f88f3520f541be3fa8c4f16375d92851b28a60767a161b944afb4244cf4d",
      "v": 27,
      "creates": null,
      "raw": "0xf86d80850cfd867d3a83015f9094abcea603089850f8f6bb612a9031554d90a247cf880de0b6b3a7640000801ba0061441c5f66ad57a0bb5c502128b2a1a19488bc4664b99decc6efbe51b70a9fba01b82f88f3520f541be3fa8c4f16375d92851b28a60767a161b944afb4244cf4d",
      "networkId": 0,
      "chainId": 0
    }
  ]
}