{
  "hash": "0xfcb9dab016cb967e40983eb929c9c569f1ce9748ff3941e98c2971cd8bd2554d",
  "parentHash": "0x044ed8abcc1882cf5dd59c4eb01fbfc653d83da528bb52005af5e9bc0adc73d6",
  "number": 93661,
  "timestamp": 1439695318,
  "nonce": "0x9f158448cc985bd6",
  "difficulty": 3441313673331,
  "gasLimit": {
    "_hex": "0x2fefd8"
  },
  "gasUsed": {
    "_hex": "0x5208"
  },
  "miner": "0xEF247E639d49461D25F57e9362CadE3120910Ce0",
  "extraData": "0x476574682f76312e302e312f6c696e75782f676f312e342e32",
  "transactions": [
    {
      "hash": "0xe468d3ff2c95255453bbda57cd75c6ae44673cdee6e1c85d5e9291459bca304a",
      "blockHash": "0xfcb9dab016cb967e40983eb929c9c569f1ce9748ff3941e98c2971cd8bd2554d",
      "blockNumber": 93661,
      "transactionIndex": 0,
      "confirmations": null,
      "from": "0x2910543Af39abA0Cd09dBb2D50200b3E800A63D2",
      "gasPrice": {
        "_hex": "0xd58650533"
      },
      "gasLimit": {
        "_hex": "0x5208"
      },
      "to": "0xb2169f1326FE9745321aD99563654089bAdf09eb",
      "value": {
        "_hex": "0x56bb59ab42b2f8000"
      },
      "nonce": 857,
      "data": "0x",
      "r": "0xd58f55a2cf3dcc30d5594a6e23e783bfec28497b25361d8037bae050f8286dd7",
      "s": "0x74cc28fdf90ba0fd97db7eef691d7ffa93e6f248a6dc925d16fd1180a3969531",
      "v": 28,
      "creates": null,
      "raw": "0xf86f820359850d5865053382520894b2169f1326fe9745321ad99563654089badf09eb89056bb59ab42b2f8000801ca0d58f55a2cf3dcc30d5594a6e23e783bfec28497b25361d8037bae050f8286dd7a074cc28fdf90ba0fd97db7eef691d7ffa93e6f248a6dc925d16fd1180a3969531",
      "networkId": 0,
      "chainId": 0
    }
  ]
}