{
  "hash": "0x8a35dbe9e115b013722dca9a47d2f351000d5b0766980854abbd2c5262d1c96e",
  "parentHash": "0xd8183267274da179bcd30f1f6f5b3163d76b4f3fb9dc0e2bc923b1c86cb41e55",
  "number": 68999,
  "timestamp": 1439296908,
  "nonce": "0x0489dbbb35a6a88a",
  "difficulty": 2036941520987,
  "gasLimit": {
    "_hex": "0x2fd8f7"
  },
  "gasUsed": {
    "_hex": "0x12988c"
  },
  "miner": "0x88D74a59454F6cF3B51ef6b9136AFb6b9D405A88",
  "extraData": "0x476574682f76312e302e312d37666266393930632f6c696e75782f676f312e34",
  "transactions": [
    {
      "hash": "0x1c5f40feb7edbbd85e186441d156959e428f1d6051a5b7044831c1459ab12231",
      "blockHash": "0x8a35dbe9e115b013722dca9a47d2f351000d5b0766980854abbd2c5262d1c96e",
      "blockNumber": 68999,
      "transactionIndex": 0,
      "confirmations": null,
      "from": "0xE385cfe9d0ef6e4c27b3E527c3E132ABB85171cc",
      "gasPrice": {
        "_hex": "0xba43b7400"
      },
      "gasLimit": {
        "_hex": "0x15f90"
      },
      "to": "0x793AE8C1b1a160BFc07BFB0d04F85eab1A71F4f2",
      "value": {
        "_hex": "0x0"
      },
      "nonce": 0,
      "data": "0x3ba15036",
      "r": "0x69a04eb576d43367f7b06949b9d4cfbbe13fa50b94b981b59e2faa888cf3328f",
      "s": "0x1712ea211219277f8c265c8f696ca3432063351b9a29e5c0f671b730c9f123c1",
      "v": 27,
      "creates": null,
      "raw": "0xf86980850ba43b740083015f9094793ae8c1b1a160bfc07bfb0d04f85eab1a71f4f280843ba150361ba069a04eb576d43367f7b06949b9d4cfbbe13fa50b94b981b59e2faa888cf3328fa01712ea211219277f8c265c8f696ca3432063351b9a29e5c0f671b730c9f123c1",
      "networkId": 0,
      "chainId": 0
    },
    {
      "hash": "0xac9c324af9300b27af8f8a5e6b68b124b4bae41a4c448eea4d6b0e3cb23b67b6",
      "blockHash": "0x8a35dbe9e115b013722dca9a47d2f351000d5b0766980854abbd2c5262d1c96e",
      "blockNumber": 68999,
      "transactionIndex": 1,
      "confirmations": null,
      "from": "0x1F149a609cAaE4C9d311B223331C13389D29Fa81",
      "gasPrice": {
        "_hex": "0xba43b7400"
      },
      "gasLimit": {
        "_hex": "0x15f90"
      },
      "to": "0x793AE8C1b1a160BFc07BFB0d04F85eab1A71F4f2",
      "value": {
        "_hex": "0x0"
      },
      "nonce": 0,
      "data": "0x3ba15036",
      "r": "0x6553021d40d3771ac1e004357d260c05926ef6305c6c052593a5113219b06466",
      "s": "0x2be235411f7d1aa90902059a084e26a03d268e5cbb3909dd3f174afcddce5595",
      "v": 27,
      "creates": null,
      "raw": "0xf86980850ba43b740083015f9094793ae8c1b1a160bfc07bfb0d04f85eab1a71f4f280843ba150361ba06553021d40d3771ac1e004357d260c05926ef6305c6c052593a5113219b06466a02be235411f7d1aa90902059a084e26a03d268e5cbb3909dd3f174afcddce5595",
      "networkId": 0,
      "chainId": 0
    },
    {
      "hash": "0xe1bd5470a3a9776ed178282aa27fb8101b08f7e427602de63c176002c428ac58",
      "blockHash": "0x8a35dbe9e115b013722dca9a47d2f351000d5b0766980854abbd2c5262d1c96e",
      "blockNumber": 68999,
      "transactionIndex": 2,
      "confirmations": null,
      "from": "0x66769D04E8c073Ce9AF1Da7c2c12A328C0dEC898",
      "gasPrice": {
        "_hex": "0xba43b7400"
      },
      "gasLimit": {
        "_hex": "0x15f90"
      },
      "to": "0x793AE8C1b1a160BFc07BFB0d04F85eab1A71F4f2",
      "value": {
        "_hex": "0x0"
      },
      "nonce": 0,
      "data": "0x3ba15036",
      "r": "0xa54ee6181152480038e4aa885b6929c890a7088c90b495aa4d8e77fbcfcf4dac",
      "s": "0x69a0a318f132254c042ff8d9af3880c52288c9b5673823b885867b1ba2123566",
      "v": 28,
      "creates": null,
      "raw": "0xf86980850ba43b740083015f9094793ae8c1b1a160bfc07bfb0d04f85eab1a71f4f280843ba150361ca0a54ee6181152480038e4aa885b6929c890a7088c90b495aa4d8e77fbcfcf4daca069a0a318f132254c042ff8d9af3880c52288c9b5673823b885867b1ba2123566",
      "networkId": 0,
      "chainId": 0
    },
    {
      "hash": "0xe723ca8ac8880590cfa4ddcd2c287e1bc02c4373dab9a26b6981065005929d81",
      "blockHash": "0x8a35dbe9e115b013722dca9a47d2f351000d5b0766980854abbd2c5262d1c96e",
      "blockNumber": 68999,
      "transactionIndex": 3,
      "confirmations": null,
      "from": "0xd3dA5aBa44a85575c1d2585Ff7394BFFd03e1543",
      "gasPrice": {
        "_hex": "0xba43b7400"
      },
      "gasLimit": {
        "_hex": "0x15f90"
      },
      "to": "0x793AE8C1b1a160BFc07BFB0d04F85eab1A71F4f2",
      "value": {
        "_hex": "0x0"
      },
      "nonce": 0,
      "data": "0x3ba15036",
      "r": "0x2ead2bb0ef52aeb8298e52794db2162cde27b5e4e8e61175238c5d710efc4b78",
      "s": "0x0df7739e0dac28b559bceb18b1d44ad22c60ed1ba77bb71e42fb0cc4eadb490d",
      "v": 27,
      "creates": null,
      "raw": "0xf86980850ba43b740083015f9094793ae8c1b1a160bfc07bfb0d04f85eab1a71f4f280843ba150361ba02ead2bb0ef52aeb8298e52794db2162cde27b5e4e8e61175238c5d710efc4b78a00df7739e0dac28b559bceb18b1d44ad22c60ed1ba77bb71e42fb0cc4eadb490d",
      "networkId": 0,
      "chainId": 0
    },
    {
      "hash": "0xe987ee88af42c7e6690087daa2664e75b84caceb720f9f2801d4921257d7722e",
      "blockHash": "0x8a35dbe9e115b013722dca9a47d2f351000d5b0766980854abbd2c5262d1c96e",
      "blockNumber": 68999,
      "transactionIndex": 4,
      "confirmations": null,
      "from": "0x33206327136ef16D5D5D7c6E7773A7BA3932Fcf9",
      "gasPrice": {
        "_hex": "0xba43b7400"
      },
      "gasLimit": {
        "_hex": "0x15f90"
      },
      "to": "0x793AE8C1b1a160BFc07BFB0d04F85eab1A71F4f2",
      "value": {
        "_hex": "0x0"
      },
      "nonce": 0,
      "data": "0x3ba15036",
      "r": "0xc98ea195f03bccf32f1ccad4de86d8f87957c410d7fa9d3a32337ff1f7840f7c",
      "s": "0x3d3178003d81be63fa30ccff15e4896754a81ef28785992ec0e0725a209c1c36",
      "v": 28,
      "creates": null,
      "raw": "0xf86980850ba43b740083015f9094793ae8c1b1a160bfc07bfb0d04f85eab1a71f4f280843ba150361ca0c98ea195f03bccf32f1ccad4de86d8f87957c410d7fa9d3a32337ff1f7840f7ca03d3178003d81be63fa30ccff15e4896754a81ef28785992ec0e0725a209c1c36",
      "networkId": 0,
      "chainId": 0
    },
    {
      "hash": "0x40c19c2c284036ab49905b272f02d5ef196c4d53f414b9e5d7f6919c3017ec3f",
      "blockHash": "0x8a35dbe9e115b013722dca9a47d2f351000d5b0766980854abbd2c5262d1c96e",
      "blockNumber": 68999,
      "transactionIndex": 5,
      "confirmations": null,
      "from": "0xd0ea8dADaB8E64017584671562E0c8E1a0d79bCe",
      "gasPrice": {
        "_hex": "0xba43b7400"
      },
      "gasLimit": {
        "_hex": "0x15f90"
      },
      "to": "0x793AE8C1b1a160BFc07BFB0d04F85eab1A71F4f2",
      "value": {
        "_hex": "0x0"
      },
      "nonce": 0,
      "data": "0x3ba15036",
      "r": "0xee4195fd93fd3b67134eee0ad0ed9042c449ebd38ecd5d70c02b699de8847ced",
      "s": "0x2b3936c071c13fb6942e1a8e9949a68fe187703320ccd971bce4114808664377",
      "v": 28,
      "creates": null,
      "raw": "0xf86980850ba43b740083015f9094793ae8c1b1a160bfc07bfb0d04f85eab1a71f4f280843ba150361ca0ee4195fd93fd3b67134eee0ad0ed9042c449ebd38ecd5d70c02b699de8847ceda02b3936c071c13fb6942e1a8e9949a68fe187703320ccd971bce4114808664377",
      "networkId": 0,
      "chainId": 0
    },
    {
      "hash": "0x27088480357c2f81a8edcc49e319695bf0189935cc5985f79a834f3a36812d10",
      "blockHash": "0x8a35dbe9e115b013722dca9a47d2f351000d5b0766980854abbd2c5262d1c96e",
      "blockNumber": 68999,
      "transactionIndex": 6,
      "confirmations": null,
      "from": "0x9068276C49ad810c9a62076cA7C9C2f471202E71",
      "gasPrice": {
        "_hex": "0xba43b7400"
      },
      "gasLimit": {
        "_hex": "0x15f90"
      },
      "to": "0x793AE8C1b1a160BFc07BFB0d04F85eab1A71F4f2",
      "value": {
        "_hex": "0x0"
      },
      "nonce": 0,
      "data": "0x3ba15036",
      "r": "0x2347c30a6e6cecb59fd1876ee8dcc296fd083785f7ccaaea287795315d55ede2",
      "s": "0x2492c9ad738e4baa9e7fbf3a4df09137f3499d31937af5c0b487e7fe96a2d3ea",
      "v": 27,
      "creates": null,
      "raw": "0xf86980850ba43b740083015f9094793ae8c1b1a160bfc07bfb0d04f85eab1a71f4f280843ba150361ba02347c30a6e6cecb59fd1876ee8dcc296fd083785f7ccaaea287795315d55ede2a02492c9ad738e4baa9e7fbf3a4df09137f3499d31937af5c0b487e7fe96a2d3ea",
      "networkId": 0,
      "chainId": 0
    },
    {
      "hash": "0xcf03d164ee588efaa3000474d6a7274372c08fe9c6950b6b14ab74c487b3b06e",
      "blockHash": "0x8a35dbe9e115b013722dca9a47d2f351000d5b0766980854abbd2c5262d1c96e",
      "blockNumber": 68999,
      "transactionIndex": 7,
      "confirmations": null,
      "from": "0x631f3CcA5a96854229Fa3435495fA603b75f08a5",
      "gasPrice": {
        "_hex": "0xba43b7400"
      },
      "gasLimit": {
        "_hex": "0x15f90"
      },
      "to": "0x793AE8C1b1a160BFc07BFB0d04F85eab1A71F4f2",
      "value": {
        "_hex": "0x0"
      },
      "nonce": 0,
      "data": "0x3ba15036",
      "r": "0xd190dfccebd5ea1a650c9043bbd0c1940eba0e6138e9d23b453e93634dcdfc56",
      "s": "0x57a203d2c0555f6e7e2501ad3231144232fedb6e5dc55aa079f7061807e1be97",
      "v": 28,
      "creates": null,
      "raw": "0xf86980850ba43b740083015f9094793ae8c1b1a160bfc07bfb0d04f85eab1a71f4f280843ba150361ca0d190dfccebd5ea1a650c9043bbd0c1940eba0e6138e9d23b453e93634dcdfc56a057a203d2c0555f6e7e2501ad3231144232fedb6e5dc55aa079f7061807e1be97",
      "networkId": 0,
      "chainId": 0
    },
    {
      "hash": "0x1d86cbbdd9df25631af5448259412f69df103225aa9a5c39893eeb3ac695b2c7",
      "blockHash": "0x8a35dbe9e115b013722dca9a47d2f351000d5b0766980854abbd2c5262d1c96e",
      "blockNumber": 68999,
      "transactionIndex": 8,
      "confirmations": null,
      "from": "0x38ea2CAf2a4d3560eb559eFb7125Cf90a17Ca97d",
      "gasPrice": {
        "_hex": "0xba43b7400"
      },
      "gasLimit": {
        "_hex": "0x15f90"
      },
      "to": "0x793AE8C1b1a160BFc07BFB0d04F85eab1A71F4f2",
      "value": {
        "_hex": "0x0"
      },
      "nonce": 0,
      "data": "0x3ba15036",
      "r": "0x44b5cbbb7bb57b9f6ac8ac86e508050446cd8be87b415d7aeb765965e006b932",
      "s": "0x4699efe5a280a5fedcc7fa41a04ac4e8ca2c3cb13000841a796932d4955ff6cb",
      "v": 27,
      "creates": null,
      "raw": "0xf86980850ba43b740083015f9094793ae8c1b1a160bfc07bfb0d04f85eab1a71f4f280843ba150361ba044b5cbbb7bb57b9f6ac8ac86e508050446cd8be87b415d7aeb765965e006b932a04699efe5a280a5fedcc7fa41a04ac4e8ca2c3cb13000841a796932d4955ff6cb",
      "networkId": 0,
      "chainId": 0
    },
    {
      "hash": "0x07e58bd5c85e2adc8cfd342329936a470346fbe3c357aafc6795dea7cd2c373d",
      "blockHash": "0x8a35dbe9e115b013722dca9a47d2f351000d5b0766980854abbd2c5262d1c96e",
      "blockNumber": 68999,
      "transactionIndex": 9,
      "confirmations": null,
      "from": "0x5a961D10b45F3dB145F7d02A58B27E4C43979f39",
      "gasPrice": {
        "_hex": "0xba43b7400"
      },
      "gasLimit": {
        "_hex": "0x15f90"
      },
      "to": "0x793AE8C1b1a160BFc07BFB0d04F85eab1A71F4f2",
      "value": {
        "_hex": "0x0"
      },
      "nonce": 0,
      "data": "0x3ba15036",
      "r": "0xaed432a4f24e91d87a772124899613f544726e4ba107f172d50e0d3d2986a567",
      "s": "0x4384811a01fd3c6699768d8a2d594d4b24972409013f0b6a9f848ee9a2bee39c",
      "v": 27,
      "creates": null,
      "raw": "0xf86980850ba43b740083015f9094793ae8c1b1a160bfc07bfb0d04f85eab1a71f4f280843ba150361ba0aed432a4f24e91d87a772124899613f544726e4ba107f172d50e0d3d2986a567a04384811a01fd3c6699768d8a2d594d4b24972409013f0b6a9f848ee9a2bee39c",
      "networkId": 0,
      "chainId": 0
    },
    {
      "hash": "0xc4513d2c9ad6121a87c6f48822898d7c085f89772b1658c69cda00d85fdf7aae",
      "blockHash": "0x8a35dbe9e115b013722dca9a47d2f351000d5b0766980854abbd2c5262d1c96e",
      "blockNumber": 68999,
      "transactionIndex": 10,
      "confirmations": null,
      "from": "0xd0cc662bFDea2689583ec968fc4ab526B1f946a8",
      "gasPrice": {
        "_hex": "0xba43b7400"
      },
      "gasLimit": {
        "_hex": "0x15f90"
      },
      "to": "0x793AE8C1b1a160BFc07BFB0d04F85eab1A71F4f2",
      "value": {
        "_hex": "0x0"
      },
      "nonce": 0,
      "data": "0x3ba15036",
      "r": "0x2a394a9d12b548d99b888797438f13c4d8d83591f3497fc21b4f7507c8c67f28",
      "s": "0x2adee940739f16da98ae562c8b6ad11574a3e4f708c17861a9cecabf40b9f32b",
      "v": 28,
      "creates": null,
      "raw": "0xf86980850ba43b740083015f9094793ae8c1b1a160bfc07bfb0d04f85eab1a71f4f280843ba150361ca02a394a9d12b548d99b888797438f13c4d8d83591f3497fc21b4f7507c8c67f28a02adee940739f16da98ae562c8b6ad11574a3e4f708c17861a9cecabf40b9f32b",
      "networkId": 0,
      "chainId": 0
    },
    {
      "hash": "0xd06ef2a833c5ec75b88781afd50ec0267d1cfca6ed01cbb2271cc90c1bb0c3d8",
      "blockHash": "0x8a35dbe9e115b013722dca9a47d2f351000d5b0766980854abbd2c5262d1c96e",
      "blockNumber": 68999,
      "transactionIndex": 11,
      "confirmations": null,
      "from": "0x5D5fe3Ed924f010c7e90E9FcBdb2808A1d35Ef6c",
      "gasPrice": {
        "_hex": "0xba43b7400"
      },
      "gasLimit": {
        "_hex": "0x15f90"
      },
      "to": "0x793AE8C1b1a160BFc07BFB0d04F85eab1A71F4f2",
      "value": {
        "_hex": "0x0"
      },
      "nonce": 0,
      "data": "0x3ba15036",
      "r": "0x993644131a2cebea82bbf3fac9cb57acdf9df2ff6275264c6d5aaf66edc93de2",
      "s": "0x278f70d51c6eedba632690a14da4fa5782e3736972ba412be93d276226b361ae",
      "v": 27,
      "creates": null,
      "raw": "0xf86980850ba43b740083015f9094793ae8c1b1a160bfc07bfb0d04f85eab1a71f4f280843ba150361ba0993644131a2cebea82bbf3fac9cb57acdf9df2ff6275264c6d5aaf66edc93de2a0278f70d51c6eedba632690a14da4fa5782e3736972ba412be93d276226b361ae",
      "networkId": 0,
      "chainId": 0
    },
    {
      "hash": "0xae9a3c30d76aa2b82c83cb6ad24d49cadd0bac68fc24b25ae683d68bfb2af352",
      "blockHash": "0x8a35dbe9e115b013722dca9a47d2f351000d5b0766980854abbd2c5262d1c96e",
      "blockNumber": 68999,
      "transactionIndex": 12,
      "confirmations": null,
      "from": "0x39c0FE6212c3E246aed422e3924f9fE3AC414d15",
      "gasPrice": {
        "_hex": "0xba43b7400"
      },
      "gasLimit": {
        "_hex": "0x15f90"
      },
      "to": "0x793AE8C1b1a160BFc07BFB0d04F85eab1A71F4f2",
      "value": {
        "_hex": "0x0"
      },
      "nonce": 0,
      "data": "0x3ba15036",
      "r": "0x34510d65973ce2d8f34559f3f93c1e13c67828dcf4053c774764c45f0e509543",
      "s": "0x47e1114c1682e6722f1533b9c1ae16dd3fafe9ade9df646add4cc8e3f38b7a45",
      "v": 27,
      "creates": null,
      "raw": "0xf86980850ba43b740083015f9094793ae8c1b1a160bfc07bfb0d04f85eab1a71f4f280843ba150361ba034510d65973ce2d8f34559f3f93c1e13c67828dcf4053c774764c45f0e509543a047e1114c1682e6722f1533b9c1ae16dd3fafe9ade9df646add4cc8e3f38b7a45",
      "networkId": 0,
      "chainId": 0
    },
    {
      "hash": "0x473d569ff0a57344ac3decaca9ea36cbdabbe490a39442e2740fbe2cca0a8221",
      "blockHash": "0x8a35dbe9e115b013722dca9a47d2f351000d5b0766980854abbd2c5262d1c96e",
      "blockNumber": 68999,
      "transactionIndex": 13,
      "confirmations": null,
      "from": "0x3CD661F1A161a033EcfDC4D1a6e4e0e39F524Ad3",
      "gasPrice": {
        "_hex": "0xba43b7400"
      },
      "gasLimit": {
        "_hex": "0x15f90"
      },
      "to": "0x793AE8C1b1a160BFc07BFB0d04F85eab1A71F4f2",
      "value": {
        "_hex": "0x0"
      },
      "nonce": 0,
      "data": "0x3ba15036",
      "r": "0x5987361e769e65c17e3392719f2a25050573077e79ff0ef0b4f7aaede7102ec0",
      "s": "0x1cbe53e417326603542937106e068ef646331a1ffe13957eebc9411091c637d8",
      "v": 28,
      "creates": null,
      "raw": "0xf86980850ba43b740083015f9094793ae8c1b1a160bfc07bfb0d04f85eab1a71f4f280843ba150361ca05987361e769e65c17e3392719f2a25050573077e79ff0ef0b4f7aaede7102ec0a01cbe53e417326603542937106e068ef646331a1ffe13957eebc9411091c637d8",
      "networkId": 0,
      "chainId": 0
    },
    {
      "hash": "0xdc13cbd8ebdcf54e4e1b4e494a56e76693a0385a26a183b58880955cf97f227a",
      "blockHash": "0x8a35dbe9e115b013722dca9a47d2f351000d5b0766980854abbd2c5262d1c96e",
      "blockNumber": 68999,
      "transactionIndex": 14,
      "confirmations": null,
      "from": "0xF1CDf512d207d61f8aA6D29234c5eB17fe0FfB4F",
      "gasPrice": {
        "_hex": "0xba43b7400"
      },
      "gasLimit": {
        "_hex": "0x15f90"
      },
      "to": "0x793AE8C1b1a160BFc07BFB0d04F85eab1A71F4f2",
      "value": {
        "_hex": "0x0"
      },
      "nonce": 0,
      "data": "0x3ba15036",
      "r": "0xa51e36b27dc68fcb9886ada50484ab9af64cb6c0721ca106ff0511d6cf555925",
      "s": "0x55eb7a22cd259edbf7eed185e3ab9209e20a25a588c304b29d8bb71189e483eb",
      "v": 27,
      "creates": null,
      "raw": "0xf86980850ba43b740083015f9094793ae8c1b1a160bfc07bfb0d04f85eab1a71f4f280843ba150361ba0a51e36b27dc68fcb9886ada50484ab9af64cb6c0721ca106ff0511d6cf555925a055eb7a22cd259edbf7eed185e3ab9209e20a25a588c304b29d8bb71189e483eb",
      "networkId": 0,
      "chainId": 0
    },
    {
      "hash": "0x077c8d9fd452b2840c8c18c1357e9e27b68571f7275547319953209f73a0d8f3",
      "blockHash": "0x8a35dbe9e115b013722dca9a47d2f351000d5b0766980854abbd2c5262d1c96e",
      "blockNumber": 68999,
      "transactionIndex": 15,
      "confirmations": null,
      "from": "0x6d979CeE527E0157056E2824e86A7b9c030d8779",
      "gasPrice": {
        "_hex": "0xba43b7400"
      },
      "gasLimit": {
        "_hex": "0x15f90"
      },
      "to": "0x793AE8C1b1a160BFc07BFB0d04F85eab1A71F4f2",
      "value": {
        "_hex": "0x0"
      },
      "nonce": 0,
      "data": "0x3ba15036",
      "r": "0x3525105de18e20bc2c905fd6055a6986d2380aaeb68cf11e65feb6a3b153547c",
      "s": "0x59c9bf783dac26b6c10fa9256a4122a7329e5d261753658fadd776191176f298",
      "v": 28,
      "creates": null,
      "raw": "0xf86980850ba43b740083015f9094793ae8c1b1a160bfc07bfb0d04f85eab1a71f4f280843ba150361ca03525105de18e20bc2c905fd6055a6986d2380aaeb68cf11e65feb6a3b153547ca059c9bf783dac26b6c10fa9256a4122a7329e5d261753658fadd776191176f298",
      "networkId": 0,
      "chainId": 0
    },
    {
      "hash": "0x0896ed94ed2702b9b33107cf8dd3d7445391b5e8321cf9b8420112baf6189616",
      "blockHash": "0x8a35dbe9e115b013722dca9a47d2f351000d5b0766980854abbd2c5262d1c96e",
      "blockNumber": 68999,
      "transactionIndex": 16,
      "confirmations": null,
      "from": "0x2D694F71fb46d4CceE8F463f9220B3527Ca961ce",
      "gasPrice": {
        "_hex": "0xba43b7400"
      },
      "gasLimit": {
        "_hex": "0x15f90"
      },
      "to": "0x793AE8C1b1a160BFc07BFB0d04F85eab1A71F4f2",
      "value": {
        "_hex": "0x0"
      },
      "nonce": 0,
      "data": "0x3ba15036",
      "r": "0xf00eb755648c9b38d910f60cb016289fe36c322011da7be0af6002784f7f5508",
      "s": "0x6cfc2c58ec425136930d7e7dcd74eef59c00fb02522e8f997172207e17ccf7ff",
      "v": 28,
      "creates": null,
      "raw": "0xf86980850ba43b740083015f9094793ae8c1b1a160bfc07bfb0d04f85eab1a71f4f280843ba150361ca0f00eb755648c9b38d910f60cb016289fe36c322011da7be0af6002784f7f5508a06cfc2c58ec425136930d7e7dcd74eef59c00fb02522e8f997172207e17ccf7ff",
      "networkId": 0,
      "chainId": 0
    },
    {
      "hash": "0xe1fa1920fe8f8fe20411e1941158dd6aeb51fbbdc40d899baf9f0c9b45db469b",
      "blockHash": "0x8a35dbe9e115b013722dca9a47d2f351000d5b0766980854abbd2c5262d1c96e",
      "blockNumber": 68999,
      "transactionIndex": 17,
      "confirmations": null,
      "from": "0xf6f0F42e6B7797c28823C8237c7eAf45f9822a28",
      "gasPrice": {
        "_hex": "0xba43b7400"
      },
      "gasLimit": {
        "_hex": "0x15f90"
      },
      "to": "0x793AE8C1b1a160BFc07BFB0d04F85eab1A71F4f2",
      "value": {
        "_hex": "0x0"
      },
      "nonce": 0,
      "data": "0x3ba15036",
      "r": "0xf78127ebff31e7d69f326bb32bc47396b3caddfa6a93629407d289656909268e",
      "s": "0x72c296dc23ec20ac7fa21162ef7de43e06d1e47bc5a9db86bbde0b5aa77fb392",
      "v": 27,
      "creates": null,
      "raw": "0xf86980850ba43b740083015f9094793ae8c1b1a160bfc07bfb0d04f85eab1a71f4f280843ba150361ba0f78127ebff31e7d69f326bb32bc47396b3caddfa6a93629407d289656909268ea072c296dc23ec20ac7fa21162ef7de43e06d1e47bc5a9db86bbde0b5aa77fb392",
      "networkId": 0,
      "chainId": 0
    },
    {
      "hash": "0x65050367f561e43fc93ea793127f15cd29fe0c05a284f90bf875b4662ae53111",
      "blockHash": "0x8a35dbe9e115b013722dca9a47d2f351000d5b0766980854abbd2c5262d1c96e",
      "blockNumber": 68999,
      "transactionIndex": 18,
      "confirmations": null,
      "from": "0xc1fb4AB7aCC695753388d2195F1aD6a99397e8b0",
      "gasPrice": {
        "_hex": "0xba43b7400"
      },
      "gasLimit": {
        "_hex": "0x15f90"
      },
      "to": "0x793AE8C1b1a160BFc07BFB0d04F85eab1A71F4f2",
      "value": {
        "_hex": "0x0"
      },
      "nonce": 0,
      "data": "0x3ba15036",
      "r": "0xf0d48a7b168f0505d91f6425817c7eb5ace94b9478a54d095a0da6944634bdbf",
      "s": "0x3e42368d2d22ae99c261df57cecbdaf1a8e2906af0dc9a250471157da52c834a",
      "v": 28,
      "creates": null,
      "raw": "0xf86980850ba43b740083015f9094793ae8c1b1a160bfc07bfb0d04f85eab1a71f4f280843ba150361ca0f0d48a7b168f0505d91f6425817c7eb5ace94b9478a54d095a0da6944634bdbfa03e42368d2d22ae99c261df57cecbdaf1a8e2906af0dc9a250471157da52c834a",
      "networkId": 0,
      "chainId": 0
    },
    {
      "hash": "0xc68d6005de1fbc947496a2736a59a9774cf17f0bdb79f1983478dc01ba4811af",
      "blockHash": "0x8a35dbe9e115b013722dca9a47d2f351000d5b0766980854abbd2c5262d1c96e",
      "blockNumber": 68999,
      "transactionIndex": 19,
      "confirmations": null,
      "from": "0xFE09Cf880F86A909399C79b33d889b582757A33c",
      "gasPrice": {
        "_hex": "0xba43b7400"
      },
      "gasLimit": {
        "_hex": "0x15f90"
      },
      "to": "0x793AE8C1b1a160BFc07BFB0d04F85eab1A71F4f2",
      "value": {
        "_hex": "0x0"
      },
      "nonce": 0,
      "data": "0x3ba15036",
      "r": "0x874433534604519945f683b814be338aaa0eddab4e9eefb28051745867b36c31",
      "s": "0x456d85899bc611fda73ba38bd2937d706b79cd53cbfd705c176383547f388fb1",
      "v": 28,
      "creates": null,
      "raw": "0xf86980850ba43b740083015f9094793ae8c1b1a160bfc07bfb0d04f85eab1a71f4f280843ba150361ca0874433534604519945f683b814be338aaa0eddab4e9eefb28051745867b36c31a0456d85899bc611fda73ba38bd2937d706b79cd53cbfd705c176383547f388fb1",
      "networkId": 0,
      "chainId": 0
    },
    {
      "hash": "0xce19565068a4351c73b8232f6c2fd5d2ad14289d16b424dc2a0d330a126de0d0",
      "blockHash": "0x8a35dbe9e115b013722dca9a47d2f351000d5b0766980854abbd2c5262d1c96e",
      "blockNumber": 68999,
      "transactionIndex": 20,
      "confirmations": null,
      "from": "0x9e6a61d5693cF2ac2ee961D1ddAda50D92AC9e06",
      "gasPrice": {
        "_hex": "0xba43b7400"
      },
      "gasLimit": {
        "_hex": "0x15f90"
      },
      "to": "0x793AE8C1b1a160BFc07BFB0d04F85eab1A71F4f2",
      "value": {
        "_hex": "0x0"
      },
      "nonce": 0,
      "data": "0x3ba15036",
      "r": "0x6d1730746d17f600c86f7a914229237e71f692f3ac171a832bf40012404bd5fe",
      "s": "0x2c81609d72aded19601e3ac63c6c3d6995df38d8b35fb30863e1425cf2a8015c",
      "v": 28,
      "creates": null,
      "raw": "0xf86980850ba43b740083015f9094793ae8c1b1a160bfc07bfb0d04f85eab1a71f4f280843ba150361ca06d1730746d17f600c86f7a914229237e71f692f3ac171a832bf40012404bd5fea02c81609d72aded19601e3ac63c6c3d6995df38d8b35fb30863e1425cf2a8015c",
      "networkId": 0,
      "chainId": 0
    },
    {
      "hash": "0xe4108c29ed1c4a76578a5002b1c93e50210593a5e831974e2af92ce308fb9ff6",
      "blockHash": "0x8a35dbe9e115b013722dca9a47d2f351000d5b0766980854abbd2c5262d1c96e",
      "blockNumber": 68999,
      "transactionIndex": 21,
      "confirmations": null,
      "from": "0x6e1af1C9Df9Cd64167834DAa921784305CbE8404",
      "gasPrice": {
        "_hex": "0xba43b7400"
      },
      "gasLimit": {
        "_hex": "0x15f90"
      },
      "to": "0x793AE8C1b1a160BFc07BFB0d04F85eab1A71F4f2",
      "value": {
        "_hex": "0x0"
      },
      "nonce": 0,
      "data": "0x3ba15036",
      "r": "0x81ec863d4b8bc35f2726c7d3e23f06d629ae5b7b6c59a51e90c40fe63cbe9f9c",
      "s": "0x15f6b5a31a4980fa8c03b3300f156ff072cdfc943b4b50ba4bb3dcbe172b637b",
      "v": 27,
      "creates": null,
      "raw": "0xf86980850ba43b740083015f9094793ae8c1b1a160bfc07bfb0d04f85eab1a71f4f280843ba150361ba081ec863d4b8bc35f2726c7d3e23f06d629ae5b7b6c59a51e90c40fe63cbe9f9ca015f6b5a31a4980fa8c03b3300f156ff072cdfc943b4b50ba4bb3dcbe172b637b",
      "networkId": 0,
      "chainId": 0
    },
    {
      "hash": "0x76ec36702c5541445d35ffafd8ad6bcfe0e03c214c1afaef11589868c1db88d6",
      "blockHash": "0x8a35dbe9e115b013722dca9a47d2f351000d5b0766980854abbd2c5262d1c96e",
      "blockNumber": 68999,
      "transactionIndex": 22,
      "confirmations": null,
      "from": "0x934d3bB3Ca92c33CDEC0d490136D38FF8dDF31e2",
      "gasPrice": {
        "_hex": "0xba43b7400"
      },
      "gasLimit": {
        "_hex": "0x15f90"
      },
      "to": "0x793AE8C1b1a160BFc07BFB0d04F85eab1A71F4f2",
      "value": {
        "_hex": "0x0"
      },
      "nonce": 0,
      "data": "0x3ba15036",
      "r": "0xa1e630a4dc72e389de4c210696897b3d11ea06e74d4be6eb101b33136ec0d68c",
      "s": "0x0bf0ef2107ab80baa8178d69dd9e9cdb7285f957277499d1e61f14be42758310",
      "v": 27,
      "creates": null,
      "raw": "0xf86980850ba43b740083015f9094793ae8c1b1a160bfc07bfb0d04f85eab1a71f4f280843ba150361ba0a1e630a4dc72e389de4c210696897b3d11ea06e74d4be6eb101b33136ec0d68ca00bf0ef2107ab80baa8178d69dd9e9cdb7285f957277499d1e61f14be42758310",
      "networkId": 0,
      "chainId": 0
    },
    {
      "hash": "0x4d7378a95c5a623a2f28df9abd677badbfa3cfee2be59fffb2488eb4efed187b",
      "blockHash": "0x8a35dbe9e115b013722dca9a47d2f351000d5b0766980854abbd2c5262d1c96e",
      "blockNumber": 68999,
      "transactionIndex": 23,
      "confirmations": null,
      "from": "0xF57eD42D1684BD96f3C6d6fdEEa1D4285409dF55",
      "gasPrice": {
        "_hex": "0xba43b7400"
      },
      "gasLimit": {
        "_hex": "0x15f90"
      },
      "to": "0x793AE8C1b1a160BFc07BFB0d04F85eab1A71F4f2",
      "value": {
        "_hex": "0x0"
      },
      "nonce": 0,
      "data": "0x3ba15036",
      "r": "0x4ff7fe4a4998527c70d4acf3f03a46a284676efaa2944fa791c4d84ba0ec14ff",
      "s": "0x55256d2ea1730bfb96ab2486647e722d60f45fbb77bbe271c0d88a833f3f248b",
      "v": 27,
      "creates": null,
      "raw": "0xf86980850ba43b740083015f9094793ae8c1b1a160bfc07bfb0d04f85eab1a71f4f280843ba150361ba04ff7fe4a4998527c70d4acf3f03a46a284676efaa2944fa791c4d84ba0ec14ffa055256d2ea1730bfb96ab2486647e722d60f45fbb77bbe271c0d88a833f3f248b",
      "networkId": 0,
      "chainId": 0
    },
    {
      "hash": "0x5e91c1948aaf381f97d4ecee9b1435b1ffbd1da8a3df796826483fd53e56eae5",
      "blockHash": "0x8a35dbe9e115b013722dca9a47d2f351000d5b0766980854abbd2c5262d1c96e",
      "blockNumber": 68999,
      "transactionIndex": 24,
      "confirmations": null,
      "from": "0xBA7ea202b0C53774bB72A4f196bB07234D194504",
      "gasPrice": {
        "_hex": "0xba43b7400"
      },
      "gasLimit": {
        "_hex": "0x15f90"
      },
      "to": "0x793AE8C1b1a160BFc07BFB0d04F85eab1A71F4f2",
      "value": {
        "_hex": "0x0"
      },
      "nonce": 0,
      "data": "0x3ba15036",
      "r": "0x95ffa59288413a313ecbf96efdab5639924e381a13874bde26c440aed6552c8d",
      "s": "0x5e7a9b84773670feba5ffd0bebfcc30774e1ddcac7fab13686e08098d589461b",
      "v": 27,
      "creates": null,
      "raw": "0xf86980850ba43b740083015f9094793ae8c1b1a160bfc07bfb0d04f85eab1a71f4f280843ba150361ba095ffa59288413a313ecbf96efdab5639924e381a13874bde26c440aed6552c8da05e7a9b84773670feba5ffd0bebfcc30774e1ddcac7fab13686e08098d589461b",
      "networkId": 0,
      "chainId": 0
    }
  ]
}