{
  "hash": "0xb1e9850f72cb48e4fbb8573ca11a2de50c81392fd63a30d3a239fb9dc67360f4",
  "parentHash": "0xf7c110e12c2e70ca4de9edd7fc619e5085b9a79761ab60775a0fae447333a14f",
  "number": 102143,
  "timestamp": 1439833528,
  "nonce": "0x22e9884b149e5e01",
  "difficulty": 3903194350065,
  "gasLimit": {
    "_hex": "0x2fefd8"
  },
  "gasUsed": {
    "_hex": "0x1bdbe"
  },
  "miner": "0xe6A7a1d47ff21B6321162AEA7C6CB457D5476Bca",
  "extraData": "0x476574682f76312e302e312d38326566323666362f6c696e75782f676f312e34",
  "transactions": [
    {
      "hash": "0x1f02105cdf6bd54b4bd83a12559e59423bcb1820e35e0542fab0798f7498bcaf",
      "blockHash": "0xb1e9850f72cb48e4fbb8573ca11a2de50c81392fd63a30d3a239fb9dc67360f4",
      "blockNumber": 102143,
      "transactionIndex": 0,
      "confirmations": null,
      "from": "0xaf4BEE1910f14Fd7B7D119D741E5CddDFb3375CC",
      "gasPrice": {
        "_hex": "0xd3d37f23a"
      },
      "gasLimit": {
        "_hex": "0x249f0"
      },
      "to": "0xE28e72FCf78647ADCe1F1252F240bbfaebD63BcC",
      "value": {
        "_hex": "0xa2a15d09519be00000"
      },
      "nonce": 0,
      "data": "0x45466f3a",
      "r": "0x19843f3c0394d2b96f96ae7b0a1e7f909cb95dab7ed387eda61bee9a93606f01",
      "s": "0x7d5abb22a629b84b0e7e2c3c3e563c64edaf317d652e3f45b4d1d73eebe04571",
      "v": 27,
      "creates": null,
      "raw": "0xf87280850d3d37f23a830249f094e28e72fcf78647adce1f1252f240bbfaebd63bcc89a2a15d09519be000008445466f3a1ba019843f3c0394d2b96f96ae7b0a1e7f909cb95dab7ed387eda61bee9a93606f01a07d5abb22a629b84b0e7e2c3c3e563c64edaf317d652e3f45b4d1d73eebe04571",
      "networkId": 0,
      "chainId": 0
    }
  ]
}