{
  "hash": "0x13d07f4b6857252c08e524e51efc35a4198632be6923326fd5824dd47970570d",
  "parentHash": "0x0fbe59c9e770c3904bab5663a014b1827b3a1676067d8a52908249d880720eaf",
  "number": 46487,
  "timestamp": 1438924018,
  "nonce": "0x97e90b71b090120f",
  "difficulty": 1465361239683,
  "gasLimit": {
    "_hex": "0x6454"
  },
  "gasUsed": {
    "_hex": "0x5208"
  },
  "miner": "0xa974933277df5E41E91030f7611E70EF2c1f6370",
  "extraData": "0xdd809b302e392e33392b2b613832352d524c696e75782f672b2b2f4a4954",
  "transactions": [
    {
      "hash": "0x03b59e5cbee8a3b3b9c80e24e6edfa968a3f486fdbb529af15b4d3931579f330",
      "blockHash": "0x13d07f4b6857252c08e524e51efc35a4198632be6923326fd5824dd47970570d",
      "blockNumber": 46487,
      "transactionIndex": 0,
      "confirmations": null,
      "from": "0x47ff6576639c2e94762eA5443978D7681C0E78DC",
      "gasPrice": {
        "_hex": "0x746a528800"
      },
      "gasLimit": {
        "_hex": "0x5208"
      },
      "to": "0xeD17Ea8E9fd42159037deE95ea173a56c54f55ce",
      "value": {
        "_hex": "0x6c6b935b8bbd40000"
      },
      "nonce": 0,
      "data": "0x",
      "r": "0xc59c22c6f62c0ac675707958c82f106c157a7a5fe688234ea1421c57bafb7431",
      "s": "0x3d2616c931552be6c1b5393c78ea878d7e5d5e159f8e4a2c342ffedcc2a91a7e",
      "v": 27,
      "creates": null,
      "raw": "0xf86d8085746a52880082520894ed17ea8e9fd42159037dee95ea173a56c54f55ce8906c6b935b8bbd40000801ba0c59c22c6f62c0ac675707958c82f106c157a7a5fe688234ea1421c57bafb7431a03d2616c931552be6c1b5393c78ea878d7e5d5e159f8e4a2c342ffedcc2a91a7e",
      "networkId": 0,
      "chainId": 0
    }
  ]
}