{
  "hash": "0x7d9e3c44b658b6c50c74b32695caf94c062d709c1fd38862bdcbc2c1ebbc9d6f",
  "parentHash": "0x65c6c76526bb420bcffb77630174d416dd66b9da6e627fc09b67a1ae9125d709",
  "number": 60323,
  "timestamp": 1439153466,
  "nonce": "0x555554abfa5ff964",
  "difficulty": 1747501059052,
  "gasLimit": {
    "_hex": "0x2fefd8"
  },
  "gasUsed": {
    "_hex": "0x14820"
  },
  "miner": "0x7CdE613438e85F25D299265Ab4bB2b4015fe2BD1",
  "extraData": "0xda8098302e392e34302b2b302d524c696e75782f672b2b2f696e74",
  "transactions": [
    {
      "hash": "0x7143a4839019e799c55ff14d4d09dae643a76a478bc3a32167fff961a600a2bb",
      "blockHash": "0x7d9e3c44b658b6c50c74b32695caf94c062d709c1fd38862bdcbc2c1ebbc9d6f",
      "blockNumber": 60323,
      "transactionIndex": 0,
      "confirmations": null,
      "from": "0x2910543Af39abA0Cd09dBb2D50200b3E800A63D2",
      "gasPrice": {
        "_hex": "0xd3ede88c0"
      },
      "gasLimit": {
        "_hex": "0x5208"
      },
      "to": "0x2d3Cf607ADCE246F0750b08eBDC87789edb2a407",
      "value": {
        "_hex": "0x11c37937e08000"
      },
      "nonce": 30,
      "data": "0x",
      "r": "0xcb2cb5f65fce95421dde187a3400cf7ac3cb17dfc9e52dd8c7471e26b3a40703",
      "s": "0x59011229a7b81f466a1382311a7df413c2473ac50d94f4c59d279065280cc3bc",
      "v": 28,
      "creates": null,
      "raw": "0xf86b1e850d3ede88c0825208942d3cf607adce246f0750b08ebdc87789edb2a4078711c37937e08000801ca0cb2cb5f65fce95421dde187a3400cf7ac3cb17dfc9e52dd8c7471e26b3a40703a059011229a7b81f466a1382311a7df413c2473ac50d94f4c59d279065280cc3bc",
      "networkId": 0,
      "chainId": 0
    },
    {
      "hash": "0xfd96442f8614c562a2a47a14b4be8b6fc4d78db98d8edd4662f56fe2fca98b13",
      "blockHash": "0x7d9e3c44b658b6c50c74b32695caf94c062d709c1fd38862bdcbc2c1ebbc9d6f",
      "blockNumber": 60323,
      "transactionIndex": 1,
      "confirmations": null,
      "from": "0x2910543Af39abA0Cd09dBb2D50200b3E800A63D2",
      "gasPrice": {
        "_hex": "0xd1f2a2643"
      },
      "gasLimit": {
        "_hex": "0x5208"
      },
      "to": "0xDf5a6962905AE4E93677Aa75F1Cb40f895f390Db",
      "value": {
        "_hex": "0x1"
      },
      "nonce": 31,
      "data": "0x",
      "r": "0x8751fb59028523936fb80c9faa4aa7a344d7df9fd79a1be7af6c54250340ce01",
      "s": "0x004d873e3bb40678f447984b536101dffaba0906c5e691bb667fe6218112fb06",
      "v": 28,
      "creates": null,
      "raw": "0xf8631f850d1f2a264382520894df5a6962905ae4e93677aa75f1cb40f895f390db01801ca08751fb59028523936fb80c9faa4aa7a344d7df9fd79a1be7af6c54250340ce019f4d873e3bb40678f447984b536101dffaba0906c5e691bb667fe6218112fb06",
      "networkId": 0,
      "chainId": 0
    },
    {
      "hash": "0x6a8a68ea5ae60fd3a85326c2123c960d9f12d98ada19ad64c243f8779d3a92db",
      "blockHash": "0x7d9e3c44b658b6c50c74b32695caf94c062d709c1fd38862bdcbc2c1ebbc9d6f",
      "blockNumber": 60323,
      "transactionIndex": 2,
      "confirmations": null,
      "from": "0x2910543Af39abA0Cd09dBb2D50200b3E800A63D2",
      "gasPrice": {
        "_hex": "0xd1f2a2643"
      },
      "gasLimit": {
        "_hex": "0x5208"
      },
      "to": "0x765EeAAd1F3F92C0d5aC5361913D96e37ceaeE1A",
      "value": {
        "_hex": "0x1"
      },
      "nonce": 32,
      "data": "0x",
      "r": "0xe60f1652bf908f2f75bb3c256c2d92eba5922040129ffcfc18c13509c6e972ad",
      "s": "0x68caaceba3e30fd822dfeb6ea503833599ff46f7d38f6789d0c34e4a2f803d39",
      "v": 27,
      "creates": null,
      "raw": "0xf86420850d1f2a264382520894765eeaad1f3f92c0d5ac5361913d96e37ceaee1a01801ba0e60f1652bf908f2f75bb3c256c2d92eba5922040129ffcfc18c13509c6e972ada068caaceba3e30fd822dfeb6ea503833599ff46f7d38f6789d0c34e4a2f803d39",
      "networkId": 0,
      "chainId": 0
    },
    {
      "hash": "0x7a01080fdea91038c02dfa139a51b0e7bf7fdb402f8918312d1630425910bcba",
      "blockHash": "0x7d9e3c44b658b6c50c74b32695caf94c062d709c1fd38862bdcbc2c1ebbc9d6f",
      "blockNumber": 60323,
      "transactionIndex": 3,
      "confirmations": null,
      "from": "0x2910543Af39abA0Cd09dBb2D50200b3E800A63D2",
      "gasPrice": {
        "_hex": "0xd1f2a2643"
      },
      "gasLimit": {
        "_hex": "0x5208"
      },
      "to": "0xC713D2B774095B6E4c738c3FB95e6648Dee3e75D",
      "value": {
        "_hex": "0x56bb59ab42b2f8000"
      },
      "nonce": 33,
      "data": "0x",
      "r": "0xef26939380c9bb967f102bde2d47a8ef76664ab51e0bd5b150d297d0e0947bd6",
      "s": "0x3c6527efc83ba5fc760c74a921733a3012114cf495f465c8f4935ebf2ed13450",
      "v": 27,
      "creates": null,
      "raw": "0xf86d21850d1f2a264382520894c713d2b774095b6e4c738c3fb95e6648dee3e75d89056bb59ab42b2f8000801ba0ef26939380c9bb967f102bde2d47a8ef76664ab51e0bd5b150d297d0e0947bd6a03c6527efc83ba5fc760c74a921733a3012114cf495f465c8f4935ebf2ed13450",
      "networkId": 0,
      "chainId": 0
    }
  ]
}