{
  "hash": "0x137460e6a2a78fca43c4d9a6914561068d79c9acfa32b733be427a4e5a6e8dea",
  "parentHash": "0x92f374e06ca7e918eae99c6a48ea074406ab1c80970a96047d87909e9cb29d28",
  "number": 90201,
  "timestamp": 1439636356,
  "nonce": "0xaa0fb3857e290d61",
  "difficulty": 3294717500558,
  "gasLimit": {
    "_hex": "0x2fefd8"
  },
  "gasUsed": {
    "_hex": "0x806e"
  },
  "miner": "0xe6A7a1d47ff21B6321162AEA7C6CB457D5476Bca",
  "extraData": "0x476574682f76312e302e312d38326566323666362f6c696e75782f676f312e34",
  "transactions": [
    {
      "hash": "0x32675906ce7430271d2c86fde5fa8647f83ed4ebee05a2cb0b6382ceeee1477f",
      "blockHash": "0x137460e6a2a78fca43c4d9a6914561068d79c9acfa32b733be427a4e5a6e8dea",
      "blockNumber": 90201,
      "transactionIndex": 0,
      "confirmations": null,
      "from": "0xFBb1b73C4f0BDa4f67dcA266ce6Ef42f520fBB98",
      "gasPrice": {
        "_hex": "0xd66fc6149"
      },
      "gasLimit": {
        "_hex": "0x15f90"
      },
      "to": "0xCAc7000C7dBaa2E33Af15325AF5D435E011C7BdD",
      "value": {
        "_hex": "0x0"
      },
      "nonce": 43,
      "data": "0x3feb1bd842495454524558303000000000000000000000000000000000000000000000000000000000000000000000005a0f0935e8e5591b2f9f2d55f29c626b50292088000000000000000000000000000000000000000000000004d2fbfd82c2030000",
      "r": "0x22573a41cefe9fd7c1537be678f92dca4fab9758a199507a768873fa8645d622",
      "s": "0x7d46d9c4ac0373c0d07039f0bbad25e51f91da92a37471f44b82c55346dc6278",
      "v": 27,
      "creates": null,
      "raw": "0xf8ca2b850d66fc614983015f9094cac7000c7dbaa2e33af15325af5d435e011c7bdd80b8643feb1bd842495454524558303000000000000000000000000000000000000000000000000000000000000000000000005a0f0935e8e5591b2f9f2d55f29c626b50292088000000000000000000000000000000000000000000000004d2fbfd82c20300001ba022573a41cefe9fd7c1537be678f92dca4fab9758a199507a768873fa8645d622a07d46d9c4ac0373c0d07039f0bbad25e51f91da92a37471f44b82c55346dc6278",
      "networkId": 0,
      "chainId": 0
    }
  ]
}