{
  "hash": "0xed7d45882a75f4c93da3d5e04a50749be999e38c709b98781a388b381672673f",
  "parentHash": "0xc1095ee9213bd0c627cb319b7c5344f7326e82353474d09ffa2c3781bd62148a",
  "number": 54500,
  "timestamp": 1439055142,
  "nonce": "0x0e5eb2b51b8200df",
  "difficulty": 1618086425216,
  "gasLimit": {
    "_hex": "0x2fefd5"
  },
  "gasUsed": {
    "_hex": "0xf838"
  },
  "miner": "0xf927a40C8B7F6E07c5af7FA2155B4864a4112B13",
  "extraData": "0x476574682f76312e302e312f6c696e75782f676f312e342e32",
  "transactions": [
    {
      "hash": "0x8b1bc9eb2ff5595e7f6a94bba3838442bd7716077d2d3e0dde6c8627cd59d8d2",
      "blockHash": "0xed7d45882a75f4c93da3d5e04a50749be999e38c709b98781a388b381672673f",
      "blockNumber": 54500,
      "transactionIndex": 0,
      "confirmations": null,
      "from": "0x1C257ad4A55105ea3B58Ed374b198dA266c85f63",
      "gasPrice": {
        "_hex": "0x10222a71099"
      },
      "gasLimit": {
        "_hex": "0x5208"
      },
      "to": "0x439632734cdF5a84774156c1938CbeDe2eF398F0",
      "value": {
        "_hex": "0xad78ebc5ac6200000"
      },
      "nonce": 8,
      "data": "0x",
      "r": "0x7dccdb94df06669971c875f356c812cd3351efe2502362f12f43f9d69e2df26b",
      "s": "0x67b1412380d1c20ef66416e8dcdfbca4f56a469563600b6f6b3bc99a99a11626",
      "v": 27,
      "creates": null,
      "raw": "0xf86e0886010222a7109982520894439632734cdf5a84774156c1938cbede2ef398f0890ad78ebc5ac6200000801ba07dccdb94df06669971c875f356c812cd3351efe2502362f12f43f9d69e2df26ba067b1412380d1c20ef66416e8dcdfbca4f56a469563600b6f6b3bc99a99a11626",
      "networkId": 0,
      "chainId": 0
    },
    {
      "hash": "0x63b5c33fafc11518d8cb5e5f76b54a90ded0e1abed96cfc12eb1d7504fdcc707",
      "blockHash": "0xed7d45882a75f4c93da3d5e04a50749be999e38c709b98781a388b381672673f",
      "blockNumber": 54500,
      "transactionIndex": 1,
      "confirmations": null,
      "from": "0x858079E02403b10748B71A02195b6608Abaf6b8f",
      "gasPrice": {
        "_hex": "0xd912888ef"
      },
      "gasLimit": {
        "_hex": "0x59d8"
      },
      "to": "0xcb2Ff4305625D98A9E13C9cA10ca47cf2345e1F8",
      "value": {
        "_hex": "0x1043561a8829300000"
      },
      "nonce": 3,
      "data": "0x4d696e7573313030",
      "r": "0xdee4f992e8ad238e72d0ad895684a39f095f02ab60fee15a750fd10df56714db",
      "s": "0x347bf2a50c24f47780c5f16366071ef76be48263675e8354a34bae5587d5ee87",
      "v": 28,
      "creates": null,
      "raw": "0xf87503850d912888ef8259d894cb2ff4305625d98a9e13c9ca10ca47cf2345e1f8891043561a8829300000884d696e75733130301ca0dee4f992e8ad238e72d0ad895684a39f095f02ab60fee15a750fd10df56714dba0347bf2a50c24f47780c5f16366071ef76be48263675e8354a34bae5587d5ee87",
      "networkId": 0,
      "chainId": 0
    },
    {
      "hash": "0x7e25c90a2b31cc3d8f4437bb070103dbc11de95d5d45242828f3f7d71f71ac86",
      "blockHash": "0xed7d45882a75f4c93da3d5e04a50749be999e38c709b98781a388b381672673f",
      "blockNumber": 54500,
      "transactionIndex": 2,
      "confirmations": null,
      "from": "0x60780933D9a5A8e8E3ab20CB6382cd314f04065F",
      "gasPrice": {
        "_hex": "0xcded4df16"
      },
      "gasLimit": {
        "_hex": "0x5208"
      },
      "to": "0x32Be343B94f860124dC4fEe278FDCBD38C102D88",
      "value": {
        "_hex": "0x1ac34a12f95f3f00000"
      },
      "nonce": 1,
      "data": "0x",
      "r": "0x750eaa231ed93edbe55ab52b89479f34fc6192f98fb7c8ec09339535713739d5",
      "s": "0x62812ccd0a15044c84441bef04fd0505427dfdef7a1216230b81409c8ef05e86",
      "v": 28,
      "creates": null,
      "raw": "0xf86e01850cded4df168252089432be343b94f860124dc4fee278fdcbd38c102d888a01ac34a12f95f3f00000801ca0750eaa231ed93edbe55ab52b89479f34fc6192f98fb7c8ec09339535713739d5a062812ccd0a15044c84441bef04fd0505427dfdef7a1216230b81409c8ef05e86",
      "networkId": 0,
      "chainId": 0
    }
  ]
}