{
  "hash": "0xe0841e0db75f43d3b21d1305a15f87b65b0fe725a791f0f4f10d5650a9857d84",
  "parentHash": "0xe8e6aa84f9d073959eb9e7ccd49944d9a88a85cb19910ca4a3104d3cd7d27525",
  "number": 51538,
  "timestamp": 1439006614,
  "nonce": "0x32f4348b25072d17",
  "difficulty": 1562740603833,
  "gasLimit": {
    "_hex": "0xbcbd8"
  },
  "gasUsed": {
    "_hex": "0x7a120"
  },
  "miner": "0xf927a40C8B7F6E07c5af7FA2155B4864a4112B13",
  "extraData": "0x476574682f76312e302e312f6c696e75782f676f312e342e32",
  "transactions": [
    {
      "hash": "0xe96616ad6dbb2923e009122c3a74db22373c489021d4375929051e80a5fb664e",
      "blockHash": "0xe0841e0db75f43d3b21d1305a15f87b65b0fe725a791f0f4f10d5650a9857d84",
      "blockNumber": 51538,
      "transactionIndex": 0,
      "confirmations": null,
      "from": "0x91404fD245647b7a1A62120407201eaCe266dC64",
      "gasPrice": {
        "_hex": "0xd0377ecbe"
      },
      "gasLimit": {
        "_hex": "0x7a120"
      },
      "to": "0xBAA54d6E90c3F4d7Ebec11bD180134C7eD8eBb52",
      "value": {
        "_hex": "0x16345785d8a0000"
      },
      "nonce": 1,
      "data": "0x",
      "r": "0xd3049926d615c76a6b664f5e52cb6f644086f838b415a0771c61e96188bcff8c",
      "s": "0x1a95ab9d23e0381f04e1d183a7dd1ecf9a4bc239ea205393adc3dbb291b06f64",
      "v": 27,
      "creates": null,
      "raw": "0xf86d01850d0377ecbe8307a12094baa54d6e90c3f4d7ebec11bd180134c7ed8ebb5288016345785d8a0000801ba0d3049926d615c76a6b664f5e52cb6f644086f838b415a0771c61e96188bcff8ca01a95ab9d23e0381f04e1d183a7dd1ecf9a4bc239ea205393adc3dbb291b06f64",
      "networkId": 0,
      "chainId": 0
    }
  ]
}