{
  "hash": "0x597bf0db78480e3564d82ec1211884bd0661bed91a64f2870788eab47929ccc1",
  "parentHash": "0x52106266cab39ed3c0a028867e443f0f7e2d92c71f0f4c571ca1827de6d0fc63",
  "number": 115813,
  "timestamp": 1440063878,
  "nonce": "0x4ea25ac75d0a4c04",
  "difficulty": 4551419401237,
  "gasLimit": {
    "_hex": "0x2fefd8"
  },
  "gasUsed": {
    "_hex": "0x5208"
  },
  "miner": "0xe6A7a1d47ff21B6321162AEA7C6CB457D5476Bca",
  "extraData": "0x476574682f76312e302e312d38326566323666362f6c696e75782f676f312e34",
  "transactions": [
    {
      "hash": "0x73f51cc13ecd0835ebfce6050bd155117bb5e982e65a45448e8780368d66dd6a",
      "blockHash": "0x597bf0db78480e3564d82ec1211884bd0661bed91a64f2870788eab47929ccc1",
      "blockNumber": 115813,
      "transactionIndex": 0,
      "confirmations": null,
      "from": "0x64916978a6c23c21Ce9526E4eE9a2A6077dD0e01",
      "gasPrice": {
        "_hex": "0xd5b22b2a1"
      },
      "gasLimit": {
        "_hex": "0x5208"
      },
      "to": "0xFBb1b73C4f0BDa4f67dcA266ce6Ef42f520fBB98",
      "value": {
        "_hex": "0xddc6f17b116d8f8"
      },
      "nonce": 1,
      "data": "0x",
      "r": "0x82643ed034812ebfe987d4fd045a93a0de21a0289560d7191d828fd5af5cf7c3",
      "s": "0x6ac1029f821f07ba212210e643a3f4d21929ee30627590be2cb37280ac22eafb",
      "v": 27,
      "creates": null,
      "raw": "0xf86c01850d5b22b2a182520894fbb1b73c4f0bda4f67dca266ce6ef42f520fbb98880ddc6f17b116d8f8801ba082643ed034812ebfe987d4fd045a93a0de21a0289560d7191d828fd5af5cf7c3a06ac1029f821f07ba212210e643a3f4d21929ee30627590be2cb37280ac22eafb",
      "networkId": 0,
      "chainId": 0
    }
  ]
}