{
  "hash": "0x2b63ebc47d6382bbee085916ff30d9071f4636ab8e6e64b2fad997354639f305",
  "parentHash": "0x648a1b1cf57d75830b9e02aadd04fc629c6859d656f003f671e08ecda91b872e",
  "number": 108683,
  "timestamp": 1439944545,
  "nonce": "0x9ce7c18c532211c2",
  "difficulty": 4338206327528,
  "gasLimit": {
    "_hex": "0x2fefd8"
  },
  "gasUsed": {
    "_hex": "0x5208"
  },
  "miner": "0xeB1325C8D9d3ea8D74aC11F4B00F1B2367686319",
  "extraData": "0x",
  "transactions": [
    {
      "hash": "0x13c32a38763962c0425832494caf26b49d7989a2113f179643857f8ee24d686b",
      "blockHash": "0x2b63ebc47d6382bbee085916ff30d9071f4636ab8e6e64b2fad997354639f305",
      "blockNumber": 108683,
      "transactionIndex": 0,
      "confirmations": null,
      "from": "0x886e83d9133F65B9c27A946f699E88e71A888E4C",
      "gasPrice": {
        "_hex": "0xdb2be27ca"
      },
      "gasLimit": {
        "_hex": "0x15f90"
      },
      "to": "0xCbbdAd70d0ff27254925AD37B5C135EEe1116615",
      "value": {
        "_hex": "0x186cc6acd4b0000"
      },
      "nonce": 14,
      "data": "0x",
      "r": "0x69e9c6385f51dc65c38859cb28df62877dc03ea5e79d7637bd19486ef0db4846",
      "s": "0x5abfe5d60260354cd6ebf7df655c5444821d2bc521ecbe72ee6e7c62ed0b1eba",
      "v": 28,
      "creates": null,
      "raw": "0xf86d0e850db2be27ca83015f9094cbbdad70d0ff27254925ad37b5c135eee1116615880186cc6acd4b0000801ca069e9c6385f51dc65c38859cb28df62877dc03ea5e79d7637bd19486ef0db4846a05abfe5d60260354cd6ebf7df655c5444821d2bc521ecbe72ee6e7c62ed0b1eba",
      "networkId": 0,
      "chainId": 0
    }
  ]
}