{
  "hash": "0xf03c941be4a71c6bfc0f0397231e86f191050a347ecc42f5a28d6ee47ad72411",
  "parentHash": "0x5b3406942af67549a4e276e59720aef3d75a1b53555266c843b64a0e3b7a078f",
  "number": 89145,
  "timestamp": 1439618858,
  "nonce": "0x215093e726abd217",
  "difficulty": 3269489357366,
  "gasLimit": {
    "_hex": "0x2fefd8"
  },
  "gasUsed": {
    "_hex": "0x5208"
  },
  "miner": "0x6541237dAaFf6688A79f9F2F370Ca0E7Ee20BD33",
  "extraData": "0x476574682f76312e302e312f77696e646f77732f676f312e342e32",
  "transactions": [
    {
      "hash": "0x7d8ece929a9495cf29a8b7d381593b07bb36aab9f6ce2bf3c4edc91f41bb8752",
      "blockHash": "0xf03c941be4a71c6bfc0f0397231e86f191050a347ecc42f5a28d6ee47ad72411",
      "blockNumber": 89145,
      "transactionIndex": 0,
      "confirmations": null,
      "from": "0xE300c4587D260cE22a677755Db6429B491A4309E",
      "gasPrice": {
        "_hex": "0xcd2e89a98"
      },
      "gasLimit": {
        "_hex": "0x15f90"
      },
      "to": "0x06EC48800B2DB3eEfa052e98A9b5Fc2Bf783Ee74",
      "value": {
        "_hex": "0x45400a8fd5330000"
      },
      "nonce": 6,
      "data": "0x",
      "r": "0x1e1d6775e1618ebf40aa4f8a0f78b3205d0adee7cc6ae455fd0576a4c7372512",
      "s": "0x65ac681d9eb091ebeca0781f2e69b9db4353cf009f38999301904dc1d64a02a8",
      "v": 27,
      "creates": null,
      "raw": "0xf86d06850cd2e89a9883015f909406ec48800b2db3eefa052e98a9b5fc2bf783ee748845400a8fd5330000801ba01e1d6775e1618ebf40aa4f8a0f78b3205d0adee7cc6ae455fd0576a4c7372512a065ac681d9eb091ebeca0781f2e69b9db4353cf009f38999301904dc1d64a02a8",
      "networkId": 0,
      "chainId": 0
    }
  ]
}