{
  "hash": "0x02dc43d126fbf966b29468a3a9ceb95ce29075e0b61cd0014a8ada31cb3873d3",
  "parentHash": "0x9020eb5bd771882e5b1fa23937cdc5fcaba824134786b1ba2664b5c3dec38518",
  "number": 76760,
  "timestamp": 1439425677,
  "nonce": "0x51cb64ed8bf55deb",
  "difficulty": 2242726294230,
  "gasLimit": {
    "_hex": "0x2fefd8"
  },
  "gasUsed": {
    "_hex": "0xad77"
  },
  "miner": "0xbb7B8287f3F0a933474a79eAe42CBCa977791171",
  "extraData": "0x476574682f4c5649562f76312e302e312f6c696e75782f676f312e342e32",
  "transactions": [
    {
      "hash": "0x8c84785f4d7caca9297894a39ba2a015491a94fe838135a68b6e78a05bde23f3",
      "blockHash": "0x02dc43d126fbf966b29468a3a9ceb95ce29075e0b61cd0014a8ada31cb3873d3",
      "blockNumber": 76760,
      "transactionIndex": 0,
      "confirmations": null,
      "from": "0x87C5B5874A18B4306DF8a752a6C8cc3E82daFc19",
      "gasPrice": {
        "_hex": "0x10d1419f2d0"
      },
      "gasLimit": {
        "_hex": "0x493e0"
      },
      "to": "0xD79B4C6791784184e2755B2fC1659eaaB0f80456",
      "value": {
        "_hex": "0x0"
      },
      "nonce": 82,
      "data": "0x03750d940000000000000000000000008be84a3adfbc51c59023b2413766e229108c35de3131653266643863393537666237363100000000000000000000000000000000",
      "r": "0xa54e72bad30618ad64f359f24ec7ef718d54cad0f25dec7f3ac392a581206319",
      "s": "0x755f67d5806f5469703f6ba5c8af258b88bd759861c987291a3295e96b77ca1f",
      "v": 27,
      "creates": null,
      "raw": "0xf8ab5286010d1419f2d0830493e094d79b4c6791784184e2755b2fc1659eaab0f8045680b84403750d940000000000000000000000008be84a3adfbc51c59023b2413766e229108c35de31316532666438633935376662373631000000000000000000000000000000001ba0a54e72bad30618ad64f359f24ec7ef718d54cad0f25dec7f3ac392a581206319a0755f67d5806f5469703f6ba5c8af258b88bd759861c987291a3295e96b77ca1f",
      "networkId": 0,
      "chainId": 0
    }
  ]
}