{
  "hash": "0xd9bac597e4561ec92188f110abd7c5c704b61e8c56b551b2011652b017ad772b",
  "parentHash": "0x47142ffb4a7cf1373ad457b9ce42821113d71650cc11f836140fd4010e81ac3c",
  "number": 47026,
  "timestamp": 1438933337,
  "nonce": "0xdc89522e441e2cd3",
  "difficulty": 1450319143507,
  "gasLimit": {
    "_hex": "0x90cb"
  },
  "gasUsed": {
    "_hex": "0x5208"
  },
  "miner": "0x9746c7e1ef2bd21FF3997fa467593a89cb852BD0",
  "extraData": "0x476574682f76312e302e312f77696e646f77732f676f312e342e32",
  "transactions": [
    {
      "hash": "0xb41ed14cc4382c04adb626172b60acf917bc5d39b8d61e5ff44dd1986cd69628",
      "blockHash": "0xd9bac597e4561ec92188f110abd7c5c704b61e8c56b551b2011652b017ad772b",
      "blockNumber": 47026,
      "transactionIndex": 0,
      "confirmations": null,
      "from": "0x097738363B1662599ad0777E19461601F5EC8dF9",
      "gasPrice": {
        "_hex": "0xddc2a9637"
      },
      "gasLimit": {
        "_hex": "0x5208"
      },
      "to": "0x32Be343B94f860124dC4fEe278FDCBD38C102D88",
      "value": {
        "_hex": "0x6c6b4b8694e518000"
      },
      "nonce": 1,
      "data": "0x",
      "r": "0xf3d5ad9572aae716cd01dd390e42ceb44bba0c19a916573da81c523859892512",
      "s": "0x085a6613cc42b4b984602ade957bedc50a82a2f2042b9f45cac12d1f22e5cd11",
      "v": 27,
      "creates": null,
      "raw": "0xf86d01850ddc2a96378252089432be343b94f860124dc4fee278fdcbd38c102d888906c6b4b8694e518000801ba0f3d5ad9572aae716cd01dd390e42ceb44bba0c19a916573da81c523859892512a0085a6613cc42b4b984602ade957bedc50a82a2f2042b9f45cac12d1f22e5cd11",
      "networkId": 0,
      "chainId": 0
    }
  ]
}