{
  "hash": "0xab9fa7f8c779b73d433dc4b0f789a322dd313179b9a4de471ee10360259731d5",
  "parentHash": "0xe1fa971554b32ad001dc779550ad9f7457e686460c2c2c502206a65b0c82ddae",
  "number": 108085,
  "timestamp": 1439933847,
  "nonce": "0xc4e52f4b4b4e1882",
  "difficulty": 4376815146774,
  "gasLimit": {
    "_hex": "0x2fefd8"
  },
  "gasUsed": {
    "_hex": "0x5208"
  },
  "miner": "0x9746c7e1ef2bd21FF3997fa467593a89cb852BD0",
  "extraData": "0x476574682f76312e302e312f77696e646f77732f676f312e342e32",
  "transactions": [
    {
      "hash": "0xd583db557bf953ee65c80c89294992310af787327fd7a39cfd4ce8921a9db2db",
      "blockHash": "0xab9fa7f8c779b73d433dc4b0f789a322dd313179b9a4de471ee10360259731d5",
      "blockNumber": 108085,
      "transactionIndex": 0,
      "confirmations": null,
      "from": "0xFBb1b73C4f0BDa4f67dcA266ce6Ef42f520fBB98",
      "gasPrice": {
        "_hex": "0xcd6718e34"
      },
      "gasLimit": {
        "_hex": "0x5208"
      },
      "to": "0x8710908977F5FaA8Ff9BC8cf3c0A928bF83AA873",
      "value": {
        "_hex": "0x2539c0a7cc91800"
      },
      "nonce": 134,
      "data": "0x",
      "r": "0x6e5a22a2f5402ac8f2c033f650f7b8f2440b80f19e00d7c6bb3818951862ecc6",
      "s": "0x6341a06be455767233bc04ae106fd813ba89a1a6a1b960a10a0ab0831b6d8f38",
      "v": 28,
      "creates": null,
      "raw": "0xf86d8186850cd6718e34825208948710908977f5faa8ff9bc8cf3c0a928bf83aa8738802539c0a7cc91800801ca06e5a22a2f5402ac8f2c033f650f7b8f2440b80f19e00d7c6bb3818951862ecc6a06341a06be455767233bc04ae106fd813ba89a1a6a1b960a10a0ab0831b6d8f38",
      "networkId": 0,
      "chainId": 0
    }
  ]
}