{
  "hash": "0x55a2148c2fd072c6e4e825911ce6dedec45fdd47b0e6e63adda6914e45885e31",
  "parentHash": "0x9526860ccacb19a6da8c4c65de4ad8b5b6fceccf89e15259ed3050f7629a9ca0",
  "number": 48260,
  "timestamp": 1438954316,
  "nonce": "0xea0de66709adae20",
  "difficulty": 1455781365161,
  "gasLimit": {
    "_hex": "0x14889"
  },
  "gasUsed": {
    "_hex": "0x5208"
  },
  "miner": "0xeB1325C8D9d3ea8D74aC11F4B00F1B2367686319",
  "extraData": "0x476574682f76312e302e312f77696e646f77732f676f312e342e32",
  "transactions": [
    {
      "hash": "0x919c05a28c5a361c0af3a6634d8aa181cd5002e13d2b318396ea0076c847a7b1",
      "blockHash": "0x55a2148c2fd072c6e4e825911ce6dedec45fdd47b0e6e63adda6914e45885e31",
      "blockNumber": 48260,
      "transactionIndex": 0,
      "confirmations": null,
      "from": "0xb6047CDF932DB3E4045F4976122341537eD5961E",
      "gasPrice": {
        "_hex": "0xe0f5d7601"
      },
      "gasLimit": {
        "_hex": "0x61a8"
      },
      "to": "0xAb5199486803893a6dc1AD1D31612895300BCcA9",
      "value": {
        "_hex": "0x114dca34ce50b0000"
      },
      "nonce": 3,
      "data": "0x",
      "r": "0x534adbf695e0ee244f37de69bd23e024af43f00729774d57590b02ca72681703",
      "s": "0x5a3a9c33350d8975107c14d72abc0d368dbdbc481fc7db9bd64d662370e05a20",
      "v": 28,
      "creates": null,
      "raw": "0xf86d03850e0f5d76018261a894ab5199486803893a6dc1ad1d31612895300bcca9890114dca34ce50b0000801ca0534adbf695e0ee244f37de69bd23e024af43f00729774d57590b02ca72681703a05a3a9c33350d8975107c14d72abc0d368dbdbc481fc7db9bd64d662370e05a20",
      "networkId": 0,
      "chainId": 0
    }
  ]
}