{
  "hash": "0xf5bb7e71c48fec547e5a0593e880c77fc7ec4fd4d7e781265cc95511416d9d8e",
  "parentHash": "0x917b431af46e9873dbeb1bcb5d1682cb271e392c60530b37d61a8729c17f7b57",
  "number": 69825,
  "timestamp": 1439310270,
  "nonce": "0xc87b7a66bffc8ca5",
  "difficulty": 2099342921914,
  "gasLimit": {
    "_hex": "0x2fefd8"
  },
  "gasUsed": {
    "_hex": "0x5208"
  },
  "miner": "0xA1623430350C5df1b52B0b57483A5bb45d1796Da",
  "extraData": "0x476574682f76312e302e312d38326566323666362f6c696e75782f676f312e34",
  "transactions": [
    {
      "hash": "0xa89f6a80e33924b50f8d282043358729e8259a09b1a1e1d60f25cd1aa6789e0f",
      "blockHash": "0xf5bb7e71c48fec547e5a0593e880c77fc7ec4fd4d7e781265cc95511416d9d8e",
      "blockNumber": 69825,
      "transactionIndex": 0,
      "confirmations": null,
      "from": "0x821018E956D3a23ef54A866A5Dc580004C42B34b",
      "gasPrice": {
        "_hex": "0xd7d40ace3"
      },
      "gasLimit": {
        "_hex": "0x15f90"
      },
      "to": "0x6d921977dEFE5f4e0682CA512De1D07b1f4802E1",
      "value": {
        "_hex": "0x16345785d8a00000"
      },
      "nonce": 0,
      "data": "0x",
      "r": "0xd8f24b3a5101e8a7fa6a6f428dc47eb08133e51ecdaa0d2143910685541f3972",
      "s": "0x0f994a21377508aef16c10e2d700a59be48a879b03d40a5ad69c45d1354b4fb3",
      "v": 28,
      "creates": null,
      "raw": "0xf86d80850d7d40ace383015f90946d921977defe5f4e0682ca512de1d07b1f4802e18816345785d8a00000801ca0d8f24b3a5101e8a7fa6a6f428dc47eb08133e51ecdaa0d2143910685541f3972a00f994a21377508aef16c10e2d700a59be48a879b03d40a5ad69c45d1354b4fb3",
      "networkId": 0,
      "chainId": 0
    }
  ]
}