{
  "hash": "0x7bb8d23346da7610625ad07ddfcec8f8de7649da5059a65591b8170857bed1d4",
  "parentHash": "0x444ebe77b84201246743678b7147c999f12ae340d81af6b19a0ac25ac057fa5f",
  "number": 71934,
  "timestamp": 1439344203,
  "nonce": "0x1d5f2f6c5798eed1",
  "difficulty": 2177100804859,
  "gasLimit": {
    "_hex": "0x2fefd8"
  },
  "gasUsed": {
    "_hex": "0xa674"
  },
  "miner": "0x47ff6576639c2e94762eA5443978D7681C0E78DC",
  "extraData": "0x476574682f76312e302e312f6c696e75782f676f312e342e32",
  "transactions": [
    {
      "hash": "0x92c237332ad25f0de475381bb3b04e34b4f1f6c12d162c3df4562abc7817e404",
      "blockHash": "0x7bb8d23346da7610625ad07ddfcec8f8de7649da5059a65591b8170857bed1d4",
      "blockNumber": 71934,
      "transactionIndex": 0,
      "confirmations": null,
      "from": "0x24e0fEAc2aabaE5625b91D8e9310bEd1E19eAc2a",
      "gasPrice": {
        "_hex": "0xd4ca759fc"
      },
      "gasLimit": {
        "_hex": "0x5208"
      },
      "to": "0x32Be343B94f860124dC4fEe278FDCBD38C102D88",
      "value": {
        "_hex": "0x3635c56ace87140000"
      },
      "nonce": 3,
      "data": "0x",
      "r": "0x3e824e7fbd7bc80cf50d007da72368cdf8878a8e5207411738f5198e73851821",
      "s": "0x4308419c3635891c677a98c06d52236320669ec5950b446cb40fb1cc87770063",
      "v": 27,
      "creates": null,
      "raw": "0xf86d03850d4ca759fc8252089432be343b94f860124dc4fee278fdcbd38c102d88893635c56ace87140000801ba03e824e7fbd7bc80cf50d007da72368cdf8878a8e5207411738f5198e73851821a04308419c3635891c677a98c06d52236320669ec5950b446cb40fb1cc87770063",
      "networkId": 0,
      "chainId": 0
    },
    {
      "hash": "0x55787b71503b1d7ac7f6c06c95c1db9b150c8b1cdf316bcbd158dc160f2e3a0f",
      "blockHash": "0x7bb8d23346da7610625ad07ddfcec8f8de7649da5059a65591b8170857bed1d4",
      "blockNumber": 71934,
      "transactionIndex": 1,
      "confirmations": null,
      "from": "0xc025C61bcD76756e641473ae92c630F9b2585EeA",
      "gasPrice": {
        "_hex": "0xcb8f48409"
      },
      "gasLimit": {
        "_hex": "0x61a8"
      },
      "to": "0x2910543Af39abA0Cd09dBb2D50200b3E800A63D2",
      "value": {
        "_hex": "0x128ff5708a88a7f10"
      },
      "nonce": 0,
      "data": "0x454e484d3633324a47",
      "r": "0xd353d2a3ce471f20bdf9b3057e64e34096c20468b973d56c8c756daafbe9b44a",
      "s": "0x74667035415f5d178ad8e8946546563b22e1c7ada5a37271ddfa88017c59bc91",
      "v": 28,
      "creates": null,
      "raw": "0xf87680850cb8f484098261a8942910543af39aba0cd09dbb2d50200b3e800a63d2890128ff5708a88a7f1089454e484d3633324a471ca0d353d2a3ce471f20bdf9b3057e64e34096c20468b973d56c8c756daafbe9b44aa074667035415f5d178ad8e8946546563b22e1c7ada5a37271ddfa88017c59bc91",
      "networkId": 0,
      "chainId": 0
    }
  ]
}