{
  "hash": "0x1d566036066e8ea10569a5f5e3544e043618a8abf27d8453e1bb63c04a18a55c",
  "parentHash": "0xf0a7009ae3a6a9c7ac02f9686a66342da20b2fdefcbf47eac87d325d224bab58",
  "number": 48720,
  "timestamp": 1438961826,
  "nonce": "0xd68ff44695ed2fad",
  "difficulty": 1477182237645,
  "gasLimit": {
    "_hex": "0x1cbdd"
  },
  "gasUsed": {
    "_hex": "0x546c"
  },
  "miner": "0x64c0f4A860176e4f956550703F0eF522A9eD06F9",
  "extraData": "0x476574682f76312e302e312d38326566323666362f6c696e75782f676f312e34",
  "transactions": [
    {
      "hash": "0xc2ac9b70f6b5b118c6e0384bfbda4bffb642672adb43c4301ea25cbcfca1d9ae",
      "blockHash": "0x1d566036066e8ea10569a5f5e3544e043618a8abf27d8453e1bb63c04a18a55c",
      "blockNumber": 48720,
      "transactionIndex": 0,
      "confirmations": null,
      "from": "0x0B12c5618eB8bfc23b8893780f1100D1B668639A",
      "gasPrice": {
        "_hex": "0xba43b7400"
      },
      "gasLimit": {
        "_hex": "0x55f0"
      },
      "to": "0x2910543Af39abA0Cd09dBb2D50200b3E800A63D2",
      "value": {
        "_hex": "0x10f0cf064dd59200000"
      },
      "nonce": 3,
      "data": "0x454e42374356415252",
      "r": "0xdb413ea61c5fed1b1b9604fc9bfcc7c747afe67ae3b9f50446755d71b466c8af",
      "s": "0x67f39afbbbd1e5f04c89433505c76308e964dda1a42190d2cd65fa62d2c03a18",
      "v": 28,
      "creates": null,
      "raw": "0xf87703850ba43b74008255f0942910543af39aba0cd09dbb2d50200b3e800a63d28a010f0cf064dd5920000089454e423743564152521ca0db413ea61c5fed1b1b9604fc9bfcc7c747afe67ae3b9f50446755d71b466c8afa067f39afbbbd1e5f04c89433505c76308e964dda1a42190d2cd65fa62d2c03a18",
      "networkId": 0,
      "chainId": 0
    }
  ]
}