{
  "hash": "0x83d7dd5dfc84b50bc7c6a5ee483a17f2b1fca4bafedcc97e16a1d8d4f5fcf9ec",
  "parentHash": "0x562828eeb110bb660ad97dfaf3645f1113c8619caf86a2615f7b75558fd0f334",
  "number": 56330,
  "timestamp": 1439085391,
  "nonce": "0x7eb12f6c9372680b",
  "difficulty": 1656096920099,
  "gasLimit": {
    "_hex": "0x2fefd8"
  },
  "gasUsed": {
    "_hex": "0x4f02"
  },
  "miner": "0x9746c7e1ef2bd21FF3997fa467593a89cb852BD0",
  "extraData": "0x476574682f76312e302e312f77696e646f77732f676f312e342e32",
  "transactions": [
    {
      "hash": "0xa2d93b23e5df554e6c634dcebc8d06bd519fcda8c796243cf733870505646aff",
      "blockHash": "0x83d7dd5dfc84b50bc7c6a5ee483a17f2b1fca4bafedcc97e16a1d8d4f5fcf9ec",
      "blockNumber": 56330,
      "transactionIndex": 0,
      "confirmations": null,
      "from": "0xA1eEc0a9b7C50B8e79A0D9B8760bC5681fb199EC",
      "gasPrice": {
        "_hex": "0xcef76d9f8"
      },
      "gasLimit": {
        "_hex": "0x15f90"
      },
      "to": "0xB49180D443dC4Ca6028de0031Ac09337891fd8cE",
      "value": {
        "_hex": "0x0"
      },
      "nonce": 9,
      "data": "0x90b98a1100000000000000000000000001957911244e546ce519fbac6f798958fafadb410000000000000000000000000000000000000000000000000000000000000002",
      "r": "0x9280364b4764ef57f0c0667edd026232556722434e903a2d906338019b2686d0",
      "s": "0x766ea07b7d3d890f7666d4baa8cdc1ead9cd56c2e38e20394104c01043ad17b3",
      "v": 27,
      "creates": null,
      "raw": "0xf8aa09850cef76d9f883015f9094b49180d443dc4ca6028de0031ac09337891fd8ce80b84490b98a1100000000000000000000000001957911244e546ce519fbac6f798958fafadb4100000000000000000000000000000000000000000000000000000000000000021ba09280364b4764ef57f0c0667edd026232556722434e903a2d906338019b2686d0a0766ea07b7d3d890f7666d4baa8cdc1ead9cd56c2e38e20394104c01043ad17b3",
      "networkId": 0,
      "chainId": 0
    }
  ]
}