{
  "hash": "0xe2f46b2b09b8de880288c3b95275525251f9c1dc7f302e0273fdb4ba0be430d7",
  "parentHash": "0xfacd0d38e4792123cf34a8e49492d1cc0420c7e387a2692a2172da23679093da",
  "number": 64748,
  "timestamp": 1439225735,
  "nonce": "0xe49c96446a70b6ce",
  "difficulty": 1885738388602,
  "gasLimit": {
    "_hex": "0x2fefd8"
  },
  "gasUsed": {
    "_hex": "0xbe6c"
  },
  "miner": "0x458F183347F45a4001807728A89F31E9Da9D4A58",
  "extraData": "0x",
  "transactions": [
    {
      "hash": "0x875421ff0bc4bf5a8986b082daf88ae47713f1ba9dd312aabb7444c48909668b",
      "blockHash": "0xe2f46b2b09b8de880288c3b95275525251f9c1dc7f302e0273fdb4ba0be430d7",
      "blockNumber": 64748,
      "transactionIndex": 0,
      "confirmations": null,
      "from": "0x56Cc15ee5BE3267E41bB2e46251BDfC52D279F68",
      "gasPrice": {
        "_hex": "0xba43b7400"
      },
      "gasLimit": {
        "_hex": "0x15f90"
      },
      "to": "0x793AE8C1b1a160BFc07BFB0d04F85eab1A71F4f2",
      "value": {
        "_hex": "0x0"
      },
      "nonce": 0,
      "data": "0x3ba15036",
      "r": "0x86b3db34d0e927ffa3e035249601df318f58f6334408d8c6aa6e62b1cc8e8fc9",
      "s": "0x6f18dc448915ecc519101e1e15cda9fbfc308402cf24480c8504b0b1cea83ac7",
      "v": 27,
      "creates": null,
      "raw": "0xf86980850ba43b740083015f9094793ae8c1b1a160bfc07bfb0d04f85eab1a71f4f280843ba150361ba086b3db34d0e927ffa3e035249601df318f58f6334408d8c6aa6e62b1cc8e8fc9a06f18dc448915ecc519101e1e15cda9fbfc308402cf24480c8504b0b1cea83ac7",
      "networkId": 0,
      "chainId": 0
    }
  ]
}