{
  "hash": "0x7d139f9bdbf9ae93b938bfe5251b484eadc65a97729df62a22a512d2bae1c274",
  "parentHash": "0x9763933937cebb577abdb940386bce106332da4452a3f56aeea26c37a154593f",
  "number": 59110,
  "timestamp": 1439132117,
  "nonce": "0x9abb9f77f2e7e16b",
  "difficulty": 1716461654613,
  "gasLimit": {
    "_hex": "0x2fefd8"
  },
  "gasUsed": {
    "_hex": "0x5208"
  },
  "miner": "0xf32866D5cE9a9b5673e076be48AbCd6ED48ADe78",
  "extraData": "0x476574682f76312e302e312d37666266393930632f6c696e75782f676f312e34",
  "transactions": [
    {
      "hash": "0x6794b1a00a34e344387fb958c6a44bc32b400c7a36eee70cb5b15b1eb6a8f08a",
      "blockHash": "0x7d139f9bdbf9ae93b938bfe5251b484eadc65a97729df62a22a512d2bae1c274",
      "blockNumber": 59110,
      "transactionIndex": 0,
      "confirmations": null,
      "from": "0x320e69e693Df6C1476c13836CDBE2F6E5dEf83A1",
      "gasPrice": {
        "_hex": "0xce82202c8"
      },
      "gasLimit": {
        "_hex": "0x15f90"
      },
      "to": "0x80F60E0837d10aE93ae63C7Dd87A13fc3984126d",
      "value": {
        "_hex": "0x340aad21b3b700000"
      },
      "nonce": 7,
      "data": "0x",
      "r": "0x873dd059f6d80463dcfea3a11608e855f7b5987e879e257851e2a86228de6875",
      "s": "0x6f918344bdf160841ea81544776c58406348b26b597635934744de0b75d5a313",
      "v": 28,
      "creates": null,
      "raw": "0xf86e07850ce82202c883015f909480f60e0837d10ae93ae63c7dd87a13fc3984126d890340aad21b3b700000801ca0873dd059f6d80463dcfea3a11608e855f7b5987e879e257851e2a86228de6875a06f918344bdf160841ea81544776c58406348b26b597635934744de0b75d5a313",
      "networkId": 0,
      "chainId": 0
    }
  ]
}