{
  "hash": "0x2b02db93d08d7c424978b24dfc0103ff2751044d2b2a9c391fd3cc0875a2887b",
  "parentHash": "0xb274b1e388c57213db6ac6f845174812610ba945d00947c182867cdde838bec5",
  "number": 51618,
  "timestamp": 1439007985,
  "nonce": "0xbcc2cce0c5f915bc",
  "difficulty": 1558154102085,
  "gasLimit": {
    "_hex": "0xc5f66"
  },
  "gasUsed": {
    "_hex": "0x7a120"
  },
  "miner": "0xbb7B8287f3F0a933474a79eAe42CBCa977791171",
  "extraData": "0x476574682f4c5649562f76312e302e312f6c696e75782f676f312e342e32",
  "transactions": [
    {
      "hash": "0x027eb04941038d4edfb52ae411c9f6865b4111b39aa5dda876d03f14a125ce92",
      "blockHash": "0x2b02db93d08d7c424978b24dfc0103ff2751044d2b2a9c391fd3cc0875a2887b",
      "blockNumber": 51618,
      "transactionIndex": 0,
      "confirmations": null,
      "from": "0xFCf9f6A78f06227522c6f948ec0119dA31680Ef7",
      "gasPrice": {
        "_hex": "0xda9711205"
      },
      "gasLimit": {
        "_hex": "0x7a120"
      },
      "to": "0xBAA54d6E90c3F4d7Ebec11bD180134C7eD8eBb52",
      "value": {
        "_hex": "0x16345785d8a0000"
      },
      "nonce": 29,
      "data": "0x",
      "r": "0xe7059e769d333baf517fa944662683ee6c1e878746c710179fc6df55acd530d6",
      "s": "0x6a6e7b56de6bcd9f961c25912e1a64d2beab93b1c97e37ceab0e7baa642c24ca",
      "v": 28,
      "creates": null,
      "raw": "0xf86d1d850da97112058307a12094baa54d6e90c3f4d7ebec11bd180134c7ed8ebb5288016345785d8a0000801ca0e7059e769d333baf517fa944662683ee6c1e878746c710179fc6df55acd530d6a06a6e7b56de6bcd9f961c25912e1a64d2beab93b1c97e37ceab0e7baa642c24ca",
      "networkId": 0,
      "chainId": 0
    }
  ]
}