{
  "hash": "0xf1e996e18db7ebc9cbcf60105cae910b2501ebd882bd408225f5291dabe969d9",
  "parentHash": "0xca6cd3997470db70bb81d79b1233c0baa75094007ca00e8404ee9e491de6464f",
  "number": 58839,
  "timestamp": 1439127541,
  "nonce": "0xc61b85ef654c2dbe",
  "difficulty": 1707322247342,
  "gasLimit": {
    "_hex": "0x2fefd8"
  },
  "gasUsed": {
    "_hex": "0x5208"
  },
  "miner": "0x1B8F8F8b66B72Dae86da6656622a11Ee08f09285",
  "extraData": "0x476574682f76312e302e312d38326566323666362f6c696e75782f676f312e34",
  "transactions": [
    {
      "hash": "0xa3f561616b1d04dc306ea2fa9843243ea373148cbcdfcfd5119b2c07cb6f9154",
      "blockHash": "0xf1e996e18db7ebc9cbcf60105cae910b2501ebd882bd408225f5291dabe969d9",
      "blockNumber": 58839,
      "transactionIndex": 0,
      "confirmations": null,
      "from": "0xF2d2AfF1320476cb8C6b607199D23175cc595693",
      "gasPrice": {
        "_hex": "0xd3d9beca5"
      },
      "gasLimit": {
        "_hex": "0x15f90"
      },
      "to": "0xF5EeDc192aB70b08D8354384aD94efD095849E00",
      "value": {
        "_hex": "0x55005f0c614480000"
      },
      "nonce": 14,
      "data": "0x",
      "r": "0x64c12a1c51bfeaa6118be66393021f05a9066c54aac65d80f0cc0d2bebba8bc9",
      "s": "0x679e5c53cf324121325a6c89f6bf04fab42fd7155a14fd646cf9ac9cb74a2f05",
      "v": 27,
      "creates": null,
      "raw": "0xf86e0e850d3d9beca583015f9094f5eedc192ab70b08d8354384ad94efd095849e0089055005f0c614480000801ba064c12a1c51bfeaa6118be66393021f05a9066c54aac65d80f0cc0d2bebba8bc9a0679e5c53cf324121325a6c89f6bf04fab42fd7155a14fd646cf9ac9cb74a2f05",
      "networkId": 0,
      "chainId": 0
    }
  ]
}