{
  "hash": "0x8ac45196210661402a001858ebdb3c4c476d5a41c13bc2e89ebadf911e4931c9",
  "parentHash": "0xe2b316e0050dbe59d9961db8bd922086ee5e6f2aa8f5a57c1aba46fb37d756c5",
  "number": 84771,
  "timestamp": 1439554407,
  "nonce": "0x19b6482fde72f635",
  "difficulty": 2623349908006,
  "gasLimit": {
    "_hex": "0x2fefd8"
  },
  "gasUsed": {
    "_hex": "0x546c"
  },
  "miner": "0xbb7B8287f3F0a933474a79eAe42CBCa977791171",
  "extraData": "0x476574682f4c5649562f76312e302e312f6c696e75782f676f312e342e32",
  "transactions": [
    {
      "hash": "0xf23b83949371844d54a8083173d81190a05717b83e906949e182e7d10ad40e56",
      "blockHash": "0x8ac45196210661402a001858ebdb3c4c476d5a41c13bc2e89ebadf911e4931c9",
      "blockNumber": 84771,
      "transactionIndex": 0,
      "confirmations": null,
      "from": "0x91139B30e3d090a8c542CFB2AA1Cc6e3bfFB491C",
      "gasPrice": {
        "_hex": "0xd3d37f23a"
      },
      "gasLimit": {
        "_hex": "0x55f0"
      },
      "to": "0x2910543Af39abA0Cd09dBb2D50200b3E800A63D2",
      "value": {
        "_hex": "0x107ad8f556c6c0000"
      },
      "nonce": 1,
      "data": "0x454e42363131514538",
      "r": "0xe56539b179c5b6987cfdf03544894c0c1827143bc37750bd1fa173cbc9f43463",
      "s": "0x4b97ad19bce4b15b0aa988fc02cb681a0bd5288a76ced40c82eb77e959858bbb",
      "v": 27,
      "creates": null,
      "raw": "0xf87601850d3d37f23a8255f0942910543af39aba0cd09dbb2d50200b3e800a63d2890107ad8f556c6c000089454e423631315145381ba0e56539b179c5b6987cfdf03544894c0c1827143bc37750bd1fa173cbc9f43463a04b97ad19bce4b15b0aa988fc02cb681a0bd5288a76ced40c82eb77e959858bbb",
      "networkId": 0,
      "chainId": 0
    }
  ]
}