{
  "hash": "0x46b95bd471f0f96f28537aa57a4c42a6303231c8e514c34ab545d561409f1640",
  "parentHash": "0xa67f140e278791bdf72796acf3a851c5805a837b0725f0a64ac0e375beb40336",
  "number": 100223,
  "timestamp": 1439803035,
  "nonce": "0x5c4c331d7ada0e44",
  "difficulty": 3821105532537,
  "gasLimit": {
    "_hex": "0x2fefd8"
  },
  "gasUsed": {
    "_hex": "0x5208"
  },
  "miner": "0xC603Ab5ef41fC61AA8b76bEddb09e3Cfcbb174BD",
  "extraData": "0x476574682f76312e302e312f77696e646f77732f676f312e342e32",
  "transactions": [
    {
      "hash": "0x1207eea53b451f222b8de2bd49c1640aa7cc81d2d98a6821499df4b859cc10b4",
      "blockHash": "0x46b95bd471f0f96f28537aa57a4c42a6303231c8e514c34ab545d561409f1640",
      "blockNumber": 100223,
      "transactionIndex": 0,
      "confirmations": null,
      "from": "0x5F8F73E26CdF436f19Cb24C82F90A15AFe55b592",
      "gasPrice": {
        "_hex": "0xd829211eb"
      },
      "gasLimit": {
        "_hex": "0x15f90"
      },
      "to": "0x7229C03FFcDA05dB1dBD01A08cec6d0D0FBF065a",
      "value": {
        "_hex": "0x6c6b935b8bbd400000"
      },
      "nonce": 1,
      "data": "0x",
      "r": "0x4c6e455131ab379a7be06f48df34324e88300fc8a8313c73ee862ebec40a3517",
      "s": "0x4a5fdffb87db537e80c449a5f0338b9629ef37264c5772cbc1ce72281b7c3d32",
      "v": 28,
      "creates": null,
      "raw": "0xf86e01850d829211eb83015f90947229c03ffcda05db1dbd01a08cec6d0d0fbf065a896c6b935b8bbd400000801ca04c6e455131ab379a7be06f48df34324e88300fc8a8313c73ee862ebec40a3517a04a5fdffb87db537e80c449a5f0338b9629ef37264c5772cbc1ce72281b7c3d32",
      "networkId": 0,
      "chainId": 0
    }
  ]
}