{
  "hash": "0xff46ca15fa7dba7bda75407783b62b0fd98ae3ac84bf4b75902df9cbf81422b5",
  "parentHash": "0x4d20979a7556d27620617a08de5ffcc44f4dd253c6fa96ea059dd9f27d7b9243",
  "number": 68602,
  "timestamp": 1439290524,
  "nonce": "0x9a578c40feafe83f",
  "difficulty": 2026126131592,
  "gasLimit": {
    "_hex": "0x2fefd8"
  },
  "gasUsed": {
    "_hex": "0x189ca"
  },
  "miner": "0x88D74a59454F6cF3B51ef6b9136AFb6b9D405A88",
  "extraData": "0x476574682f76312e302e312d37666266393930632f6c696e75782f676f312e34",
  "transactions": [
    {
      "hash": "0x54f51e1f044ee63352a18a54ff28622ef8a6b69feac92044330ccd453bb1e443",
      "blockHash": "0xff46ca15fa7dba7bda75407783b62b0fd98ae3ac84bf4b75902df9cbf81422b5",
      "blockNumber": 68602,
      "transactionIndex": 0,
      "confirmations": null,
      "from": "0x17580B766f7453525ca4C6A88b01b50570EA088C",
      "gasPrice": {
        "_hex": "0xce3eb2342"
      },
      "gasLimit": {
        "_hex": "0x61a80"
      },
      "to": "0x5Fe5B7546D1628f7348B023A0393de1FC825A4fD",
      "value": {
        "_hex": "0xde0b6b3a7640000"
      },
      "nonce": 45,
      "data": "0xb595b8b50000000000000000000000000000000000000000000000000000000000000000",
      "r": "0xcef90b5ee7a22b878c348193f024958c3e2ccb428b55d893ace115afa6919dc7",
      "s": "0x1c798830a48198dc1680431117028178b941180b2452431c09df29cbb952ae65",
      "v": 28,
      "creates": null,
      "raw": "0xf8912d850ce3eb234283061a80945fe5b7546d1628f7348b023a0393de1fc825a4fd880de0b6b3a7640000a4b595b8b500000000000000000000000000000000000000000000000000000000000000001ca0cef90b5ee7a22b878c348193f024958c3e2ccb428b55d893ace115afa6919dc7a01c798830a48198dc1680431117028178b941180b2452431c09df29cbb952ae65",
      "networkId": 0,
      "chainId": 0
    },
    {
      "hash": "0x851e6e36b60d117aef82ccaa8fb636c8b8c6bc3f13c9c099b0db89820020dc58",
      "blockHash": "0xff46ca15fa7dba7bda75407783b62b0fd98ae3ac84bf4b75902df9cbf81422b5",
      "blockNumber": 68602,
      "transactionIndex": 1,
      "confirmations": null,
      "from": "0x3bcF61AF0931325Fe14cA92BDEc41C04FA6184C1",
      "gasPrice": {
        "_hex": "0xba43b7400"
      },
      "gasLimit": {
        "_hex": "0x5208"
      },
      "to": "0xBD390cd25963B722Fe009209114385736E474B93",
      "value": {
        "_hex": "0x1072bbac261c000"
      },
      "nonce": 1,
      "data": "0x",
      "r": "0x26cde8622e5f8a5eaadaff013ad67a38dd514a28ec7935d64625820b29fe7eed",
      "s": "0x3619880e9e8c0b8dd6774df07dc77af1c47899007a25676a0a3f2057caa4c18d",
      "v": 27,
      "creates": null,
      "raw": "0xf86c01850ba43b740082520894bd390cd25963b722fe009209114385736e474b938801072bbac261c000801ba026cde8622e5f8a5eaadaff013ad67a38dd514a28ec7935d64625820b29fe7eeda03619880e9e8c0b8dd6774df07dc77af1c47899007a25676a0a3f2057caa4c18d",
      "networkId": 0,
      "chainId": 0
    },
    {
      "hash": "0xfb00077a8cac0d181bcc4c9e0ecb053b6a56f0f085fff67bb2db9947b4122464",
      "blockHash": "0xff46ca15fa7dba7bda75407783b62b0fd98ae3ac84bf4b75902df9cbf81422b5",
      "blockNumber": 68602,
      "transactionIndex": 2,
      "confirmations": null,
      "from": "0xfafD3aB2Faf6Db1d5E1cF9d9Bd7245f3E7a3988c",
      "gasPrice": {
        "_hex": "0xba43b7400"
      },
      "gasLimit": {
        "_hex": "0x5208"
      },
      "to": "0x68e9fbd0039Ac917291ae4652275537Ed852C944",
      "value": {
        "_hex": "0x1072bbac261c000"
      },
      "nonce": 1,
      "data": "0x",
      "r": "0xe33239fb1a9e8a7751a1a5fc0fc7ffdab99d3f0c6e6297473b42aba9df684d1e",
      "s": "0x359b626b30c52a7599e532981c0a2a6a20ed1315baa8a0ae48ad166287ac89b2",
      "v": 27,
      "creates": null,
      "raw": "0xf86c01850ba43b74008252089468e9fbd0039ac917291ae4652275537ed852c9448801072bbac261c000801ba0e33239fb1a9e8a7751a1a5fc0fc7ffdab99d3f0c6e6297473b42aba9df684d1ea0359b626b30c52a7599e532981c0a2a6a20ed1315baa8a0ae48ad166287ac89b2",
      "networkId": 0,
      "chainId": 0
    },
    {
      "hash": "0xd3413fd3ecf0c0979a1db81cced44180e359e434bfc77e0458b0fd73811b938b",
      "blockHash": "0xff46ca15fa7dba7bda75407783b62b0fd98ae3ac84bf4b75902df9cbf81422b5",
      "blockNumber": 68602,
      "transactionIndex": 3,
      "confirmations": null,
      "from": "0x848f287C18BfE35Fb4B93f636f2c9E14849647f0",
      "gasPrice": {
        "_hex": "0xba43b7400"
      },
      "gasLimit": {
        "_hex": "0x5208"
      },
      "to": "0x96671742b8524F6680E6a64bB0500b9b0D0373A6",
      "value": {
        "_hex": "0x1072bbac261c000"
      },
      "nonce": 1,
      "data": "0x",
      "r": "0x9ea9ca9caf93cc4e14c9982a3fdf147c69f32c0018f11095cfc438552e1b817c",
      "s": "0x52d7bd71ff6e2deccd3f0d51d18be53b3157e021578e82e3a02d0424eb943fb5",
      "v": 28,
      "creates": null,
      "raw": "0xf86c01850ba43b74008252089496671742b8524f6680e6a64bb0500b9b0d0373a68801072bbac261c000801ca09ea9ca9caf93cc4e14c9982a3fdf147c69f32c0018f11095cfc438552e1b817ca052d7bd71ff6e2deccd3f0d51d18be53b3157e021578e82e3a02d0424eb943fb5",
      "networkId": 0,
      "chainId": 0
    }
  ]
}