{
  "hash": "0x2ba3f0dc3afd9580c1b14229fde586d857026a0f7bdcaeec0e3122148bf1b6a3",
  "parentHash": "0x9247c4fb46058f571a0f9024928d2dfa7787d1aa97cea5d570a11f80637084ce",
  "number": 111818,
  "timestamp": 1439996707,
  "nonce": "0xe3a00ac2c6c41c2e",
  "difficulty": 4428599297268,
  "gasLimit": {
    "_hex": "0x2fefd8"
  },
  "gasUsed": {
    "_hex": "0x5208"
  },
  "miner": "0xe6A7a1d47ff21B6321162AEA7C6CB457D5476Bca",
  "extraData": "0x476574682f76312e302e312d38326566323666362f6c696e75782f676f312e34",
  "transactions": [
    {
      "hash": "0xe657ff15252a5ca94a5b7f10efe229f7089308737296a727ff38374a6cf09ebf",
      "blockHash": "0x2ba3f0dc3afd9580c1b14229fde586d857026a0f7bdcaeec0e3122148bf1b6a3",
      "blockNumber": 111818,
      "transactionIndex": 0,
      "confirmations": null,
      "from": "0xc93a69dFC0fb3E867D9207599f7fe87d51619635",
      "gasPrice": {
        "_hex": "0xba43b7400"
      },
      "gasLimit": {
        "_hex": "0x5208"
      },
      "to": "0xC47Aaa860008be6f65B58c6C6E02a84e666EfE31",
      "value": {
        "_hex": "0x821a7524be7946000"
      },
      "nonce": 15,
      "data": "0x",
      "r": "0xfdb9a26e733aa4948438f03e209baa7b1fcb89ff65b2f92a69d714fd50fc0962",
      "s": "0x47987aad74fa042d5cff272a53661d71f00df81674a3c34d9e18413db6d849e2",
      "v": 27,
      "creates": null,
      "raw": "0xf86d0f850ba43b740082520894c47aaa860008be6f65b58c6c6e02a84e666efe31890821a7524be7946000801ba0fdb9a26e733aa4948438f03e209baa7b1fcb89ff65b2f92a69d714fd50fc0962a047987aad74fa042d5cff272a53661d71f00df81674a3c34d9e18413db6d849e2",
      "networkId": 0,
      "chainId": 0
    }
  ]
}