{
  "hash": "0x95a70c89eaeffa4e4b7500d0754f848097662529f09d255ad891fc25a236048c",
  "parentHash": "0xe5b31ce2cb070d9bc8c6166ef700e05ae912fc0207a2e655a9c99d963d4927a1",
  "number": 103341,
  "timestamp": 1439851563,
  "nonce": "0x1af72f393b27aa40",
  "difficulty": 4178748708439,
  "gasLimit": {
    "_hex": "0x2fefd8"
  },
  "gasUsed": {
    "_hex": "0x5208"
  },
  "miner": "0x7E6930B63D03e88F5928C5cd6ee3FCee4D714F7F",
  "extraData": "0x",
  "transactions": [
    {
      "hash": "0x9f5c1a26a158b4e84a0cdcaca54f97c2cbe80fe58be172d365c5beee54b60444",
      "blockHash": "0x95a70c89eaeffa4e4b7500d0754f848097662529f09d255ad891fc25a236048c",
      "blockNumber": 103341,
      "transactionIndex": 0,
      "confirmations": null,
      "from": "0xe63a1879EC438Fd87bc623f66301B703087d3C4c",
      "gasPrice": {
        "_hex": "0xcdbb06020"
      },
      "gasLimit": {
        "_hex": "0x5208"
      },
      "to": "0xc840fcBd983C99FfF9ff65838c592C0050fb6787",
      "value": {
        "_hex": "0x38d7ea4c68000"
      },
      "nonce": 0,
      "data": "0x",
      "r": "0x8ec047c30408a46134a78cf6da64c606f03ac37f687e72eefa452342f0795380",
      "s": "0x3dc00be2f941bff116a3bd9934a0751e59f2dafedaff8a0ab6f6dda6062bfa4f",
      "v": 28,
      "creates": null,
      "raw": "0xf86b80850cdbb0602082520894c840fcbd983c99fff9ff65838c592c0050fb678787038d7ea4c68000801ca08ec047c30408a46134a78cf6da64c606f03ac37f687e72eefa452342f0795380a03dc00be2f941bff116a3bd9934a0751e59f2dafedaff8a0ab6f6dda6062bfa4f",
      "networkId": 0,
      "chainId": 0
    }
  ]
}