{
  "hash": "0x16b7b0192e11b901de8fd51b6cdbd9f1a62097ee9af5289a04b322a234ecab5c",
  "parentHash": "0x6980d630863e61f97a5ad66f6a6d1ee487d47f0bbb55a06558215a4842ef7ab4",
  "number": 107658,
  "timestamp": 1439926352,
  "nonce": "0xaf38add411b928e2",
  "difficulty": 4396315300729,
  "gasLimit": {
    "_hex": "0x2fefd8"
  },
  "gasUsed": {
    "_hex": "0x5208"
  },
  "miner": "0xe6A7a1d47ff21B6321162AEA7C6CB457D5476Bca",
  "extraData": "0x476574682f76312e302e312d38326566323666362f6c696e75782f676f312e34",
  "transactions": [
    {
      "hash": "0xcbf12281c5495551edd1db5f2c5cc4890ae07ff3855245745e5ed0048af19273",
      "blockHash": "0x16b7b0192e11b901de8fd51b6cdbd9f1a62097ee9af5289a04b322a234ecab5c",
      "blockNumber": 107658,
      "transactionIndex": 0,
      "confirmations": null,
      "from": "0x4D67f4F0Db45b3B5a3424B39ed8d972F710381D5",
      "gasPrice": {
        "_hex": "0xddd2ff09c"
      },
      "gasLimit": {
        "_hex": "0x5208"
      },
      "to": "0x32Be343B94f860124dC4fEe278FDCBD38C102D88",
      "value": {
        "_hex": "0x33f4327a0ac7f4000"
      },
      "nonce": 31,
      "data": "0x",
      "r": "0xd98b8c66409250b9eac5b82b6a943829170fe0f68da805d12fbbc13a2cb207fc",
      "s": "0x5db906da4b3ebb2ffd468f5b059ca1afaa9bb7f42b92b5e0da0d010e7efe6eae",
      "v": 28,
      "creates": null,
      "raw": "0xf86d1f850ddd2ff09c8252089432be343b94f860124dc4fee278fdcbd38c102d8889033f4327a0ac7f4000801ca0d98b8c66409250b9eac5b82b6a943829170fe0f68da805d12fbbc13a2cb207fca05db906da4b3ebb2ffd468f5b059ca1afaa9bb7f42b92b5e0da0d010e7efe6eae",
      "networkId": 0,
      "chainId": 0
    }
  ]
}