{
  "hash": "0x759349e8778a03d5e27502a0e517b36a64814fe22cdf6fdacf2d78229c80571f",
  "parentHash": "0x78833e6a284b6b63b6fd111151893a2ccff551ee897c50f5a3129df121424f6e",
  "number": 86704,
  "timestamp": 1439581709,
  "nonce": "0xe586c05b4bd9ed80",
  "difficulty": 2941641512617,
  "gasLimit": {
    "_hex": "0x2fefd8"
  },
  "gasUsed": {
    "_hex": "0x5208"
  },
  "miner": "0x42d194b1759A7A154A05cF23bA0e9c912aBb8550",
  "extraData": "0x476574682f76312e302e312d38326566323666362f6c696e75782f676f312e34",
  "transactions": [
    {
      "hash": "0x78cfd397f39fe05ff5e484eea1317138ad965d5b29bb4031cc448e994c64789f",
      "blockHash": "0x759349e8778a03d5e27502a0e517b36a64814fe22cdf6fdacf2d78229c80571f",
      "blockNumber": 86704,
      "transactionIndex": 0,
      "confirmations": null,
      "from": "0xc15fa6D616245a5c7B7D75A6dFDcA10C0250BD2B",
      "gasPrice": {
        "_hex": "0xd7eaa6e30"
      },
      "gasLimit": {
        "_hex": "0x15f90"
      },
      "to": "0xdeE4977F74E6Aef6D627191c9A45D2627e331150",
      "value": {
        "_hex": "0x8ac7230489e80000"
      },
      "nonce": 3,
      "data": "0x",
      "r": "0x23d0d8511abd885fb12ba88861f1965bf63e5cc8b79b7856ee29bc75ba5e25c3",
      "s": "0x25e7dc9d556dd5633de7402d3e2cc069dbf24c0cebc8fa7a79cbc0a259eca6f6",
      "v": 27,
      "creates": null,
      "raw": "0xf86d03850d7eaa6e3083015f9094dee4977f74e6aef6d627191c9a45d2627e331150888ac7230489e80000801ba023d0d8511abd885fb12ba88861f1965bf63e5cc8b79b7856ee29bc75ba5e25c3a025e7dc9d556dd5633de7402d3e2cc069dbf24c0cebc8fa7a79cbc0a259eca6f6",
      "networkId": 0,
      "chainId": 0
    }
  ]
}