{
  "hash": "0x3d23165f55ece0c9d94e53381714876ce55db090a90aa728062877f0e2f6f4f9",
  "parentHash": "0x4b1030f09012b3844d522e1417e3b3f35f8fc634aa67bd59668c9a9177ef3952",
  "number": 99317,
  "timestamp": 1439787997,
  "nonce": "0x64cc3f12ac62d6c6",
  "difficulty": 3791778954776,
  "gasLimit": {
    "_hex": "0x2fefd8"
  },
  "gasUsed": {
    "_hex": "0xa410"
  },
  "miner": "0x790b8a3cE86E707ED0eD32bF89B3269692a23CC1",
  "extraData": "0xd783010001844765746887676f312e342e32856c696e7578",
  "transactions": [
    {
      "hash": "0xf22fcf800df577e8c5d4612ed3a49d51f21f22cc3daf76052b01a9fba93ce047",
      "blockHash": "0x3d23165f55ece0c9d94e53381714876ce55db090a90aa728062877f0e2f6f4f9",
      "blockNumber": 99317,
      "transactionIndex": 0,
      "confirmations": null,
      "from": "0x76CB306530455abB4341FC10608d5FD869389acf",
      "gasPrice": {
        "_hex": "0xd9b5cfcae"
      },
      "gasLimit": {
        "_hex": "0x15f90"
      },
      "to": "0xC9e7F2eBaBDF92695E7aDcda4B3DF6081D167099",
      "value": {
        "_hex": "0xde0b6b3a7640000"
      },
      "nonce": 0,
      "data": "0x",
      "r": "0x985e5a98a0034b79788839c79d47fc1858defa3cbda7d26471f5e78967f00af2",
      "s": "0x2142c4529de0a50ff9b6b2e6ba1aa7f0dcf58fc2fd0852f7ba11585e84f49e41",
      "v": 27,
      "creates": null,
      "raw": "0xf86d80850d9b5cfcae83015f9094c9e7f2ebabdf92695e7adcda4b3df6081d167099880de0b6b3a7640000801ba0985e5a98a0034b79788839c79d47fc1858defa3cbda7d26471f5e78967f00af2a02142c4529de0a50ff9b6b2e6ba1aa7f0dcf58fc2fd0852f7ba11585e84f49e41",
      "networkId": 0,
      "chainId": 0
    },
    {
      "hash": "0xd665e4709d1e8a160ae7f1710e757170155c1ccbb533d51427f253ab02bd3adf",
      "blockHash": "0x3d23165f55ece0c9d94e53381714876ce55db090a90aa728062877f0e2f6f4f9",
      "blockNumber": 99317,
      "transactionIndex": 1,
      "confirmations": null,
      "from": "0x7884D470204862a0d1A21122F41ee77430396Ee5",
      "gasPrice": {
        "_hex": "0xd53691689"
      },
      "gasLimit": {
        "_hex": "0x15f90"
      },
      "to": "0x6921C601Fd7972990a496e8a985B21A61387a77F",
      "value": {
        "_hex": "0x1f161421c8e0000"
      },
      "nonce": 32,
      "data": "0x",
      "r": "0x2043319c8e7a04d3bb79d04a63f6895ff7cc85fa3117ceb3621c0c51eeda9b03",
      "s": "0x4964e2d0a99847c7bc6190879f070e0b428ea892a189d48953da87e238691a3d",
      "v": 28,
      "creates": null,
      "raw": "0xf86d20850d5369168983015f90946921c601fd7972990a496e8a985b21a61387a77f8801f161421c8e0000801ca02043319c8e7a04d3bb79d04a63f6895ff7cc85fa3117ceb3621c0c51eeda9b03a04964e2d0a99847c7bc6190879f070e0b428ea892a189d48953da87e238691a3d",
      "networkId": 0,
      "chainId": 0
    }
  ]
}