{
  "hash": "0x90e46e8e42bc91f199b158b82ed2556e98af483ef09e83e0a025bf45105e77b5",
  "parentHash": "0x1db95d3e74a225270d15ee44a55ce9958f7c2952a43fb26a6ceb80557d4e68ca",
  "number": 67014,
  "timestamp": 1439264302,
  "nonce": "0x2b141c602e75c889",
  "difficulty": 1943174107412,
  "gasLimit": {
    "_hex": "0x2fefd8"
  },
  "gasUsed": {
    "_hex": "0x5208"
  },
  "miner": "0xE81c9A6Ebe623E5d483110e0eaF2b10c769b1212",
  "extraData": "0x476574682f76312e302e312f6c696e75782f676f312e342e32",
  "transactions": [
    {
      "hash": "0x0a2223f5f2607d26f43cc97f2174d8e43092ae252589066e79610ade9d1b9914",
      "blockHash": "0x90e46e8e42bc91f199b158b82ed2556e98af483ef09e83e0a025bf45105e77b5",
      "blockNumber": 67014,
      "transactionIndex": 0,
      "confirmations": null,
      "from": "0x79d5794171E11dd5C2f0e26E1C187319db2FE6f7",
      "gasPrice": {
        "_hex": "0xcf927669a"
      },
      "gasLimit": {
        "_hex": "0x5208"
      },
      "to": "0x32Be343B94f860124dC4fEe278FDCBD38C102D88",
      "value": {
        "_hex": "0x455f694cce0e1400"
      },
      "nonce": 7,
      "data": "0x",
      "r": "0xe79f874fe081b48933faa4fa6a1e46b73de4d985a636cc5747debb35de601c2f",
      "s": "0x5f82bd3bd8713d103fdd87f00a6c2eb9182e6c37c53989a0e67b106ccb09a548",
      "v": 27,
      "creates": null,
      "raw": "0xf86c07850cf927669a8252089432be343b94f860124dc4fee278fdcbd38c102d8888455f694cce0e1400801ba0e79f874fe081b48933faa4fa6a1e46b73de4d985a636cc5747debb35de601c2fa05f82bd3bd8713d103fdd87f00a6c2eb9182e6c37c53989a0e67b106ccb09a548",
      "networkId": 0,
      "chainId": 0
    }
  ]
}