{
  "hash": "0x4a81ce1f128dfb1177d73ac8c860ec375358aeae3b4c00366ba00a19569bed10",
  "parentHash": "0x285790e1596d86841e8d63a3b9ba1711d583f6d755114eee12deb772cbe91262",
  "number": 53918,
  "timestamp": 1439045733,
  "nonce": "0xc4e07197b1d75d7c",
  "difficulty": 1600908728800,
  "gasLimit": {
    "_hex": "0x2fefd8"
  },
  "gasUsed": {
    "_hex": "0x33450"
  },
  "miner": "0xDCaA6b5a9771756c30bf9e4629591344E36DBd54",
  "extraData": "0x",
  "transactions": [
    {
      "hash": "0x1cc8b86859f7812392c7761c1cbb47b166dcae61ca0d7a4cedfa191a95496d25",
      "blockHash": "0x4a81ce1f128dfb1177d73ac8c860ec375358aeae3b4c00366ba00a19569bed10",
      "blockNumber": 53918,
      "transactionIndex": 0,
      "confirmations": null,
      "from": "0x3f0073d6bBE51612013aA09BC970e08E84D7BA23",
      "gasPrice": {
        "_hex": "0xda1ae0661"
      },
      "gasLimit": {
        "_hex": "0x5208"
      },
      "to": "0x32Be343B94f860124dC4fEe278FDCBD38C102D88",
      "value": {
        "_hex": "0x31d1ab80b6f5480000"
      },
      "nonce": 2,
      "data": "0x",
      "r": "0x50714f82ed5f099b339065cb7177570eb98de8c7f8a97337179195f74b2a7d9d",
      "s": "0x658f1c8a6a609424a439876f428f0d549bf3c0698474a29786b476169016941c",
      "v": 28,
      "creates": null,
      "raw": "0xf86d02850da1ae06618252089432be343b94f860124dc4fee278fdcbd38c102d888931d1ab80b6f5480000801ca050714f82ed5f099b339065cb7177570eb98de8c7f8a97337179195f74b2a7d9da0658f1c8a6a609424a439876f428f0d549bf3c0698474a29786b476169016941c",
      "networkId": 0,
      "chainId": 0
    },
    {
      "hash": "0x9d5eaaa73d3a7747283f88d638ff63fb1ad8743d0bf5f40fc9b58b40f32e05c8",
      "blockHash": "0x4a81ce1f128dfb1177d73ac8c860ec375358aeae3b4c00366ba00a19569bed10",
      "blockNumber": 53918,
      "transactionIndex": 1,
      "confirmations": null,
      "from": "0xDC6A542F97876923583019b526335fD1fB0DfC6A",
      "gasPrice": {
        "_hex": "0xd7b77c12a"
      },
      "gasLimit": {
        "_hex": "0x5208"
      },
      "to": "0x32Be343B94f860124dC4fEe278FDCBD38C102D88",
      "value": {
        "_hex": "0x1af13e60ceecf40000"
      },
      "nonce": 2,
      "data": "0x",
      "r": "0xc0a67cf59066bd7d6b457dc99932bfc05b571c3d18a0a46962fdd51bb1532127",
      "s": "0x013f023640d700d0c0dd8e576abc009b7a59e15c07368c7b3d157c92c5d66700",
      "v": 27,
      "creates": null,
      "raw": "0xf86d02850d7b77c12a8252089432be343b94f860124dc4fee278fdcbd38c102d88891af13e60ceecf40000801ba0c0a67cf59066bd7d6b457dc99932bfc05b571c3d18a0a46962fdd51bb1532127a0013f023640d700d0c0dd8e576abc009b7a59e15c07368c7b3d157c92c5d66700",
      "networkId": 0,
      "chainId": 0
    },
    {
      "hash": "0x13b1906954297e32e8a80cbc96c6ced0dd43b66bd225c6f0ae1f1e0e12b2fbbd",
      "blockHash": "0x4a81ce1f128dfb1177d73ac8c860ec375358aeae3b4c00366ba00a19569bed10",
      "blockNumber": 53918,
      "transactionIndex": 2,
      "confirmations": null,
      "from": "0x640534BBfb5dFDA363A3Daf5ceb9B9E00cbB740E",
      "gasPrice": {
        "_hex": "0xd7b77c12a"
      },
      "gasLimit": {
        "_hex": "0x5208"
      },
      "to": "0x32Be343B94f860124dC4fEe278FDCBD38C102D88",
      "value": {
        "_hex": "0x878673d437b9d80000"
      },
      "nonce": 0,
      "data": "0x",
      "r": "0xb30045d948aeda3ba5581154e3e49dc00cff47bbd5bfcd350245af2eec980290",
      "s": "0x3906991a6f79bf4280b6664d870b2ea56782d9655907b98d1665e544c62c2a60",
      "v": 28,
      "creates": null,
      "raw": "0xf86d80850d7b77c12a8252089432be343b94f860124dc4fee278fdcbd38c102d8889878673d437b9d80000801ca0b30045d948aeda3ba5581154e3e49dc00cff47bbd5bfcd350245af2eec980290a03906991a6f79bf4280b6664d870b2ea56782d9655907b98d1665e544c62c2a60",
      "networkId": 0,
      "chainId": 0
    },
    {
      "hash": "0x5354169c71e76dd045746a84e9ff0fb43c5a6295b76812098c74a99a72490f00",
      "blockHash": "0x4a81ce1f128dfb1177d73ac8c860ec375358aeae3b4c00366ba00a19569bed10",
      "blockNumber": 53918,
      "transactionIndex": 3,
      "confirmations": null,
      "from": "0x0fFecdF99016b9C74f1088c858B0A6b71992A471",
      "gasPrice": {
        "_hex": "0xd7b77c12a"
      },
      "gasLimit": {
        "_hex": "0x5208"
      },
      "to": "0x32Be343B94f860124dC4fEe278FDCBD38C102D88",
      "value": {
        "_hex": "0x36388be6bd8d840000"
      },
      "nonce": 2,
      "data": "0x",
      "r": "0x985dc63803d5164341becb6729fd1bedb9e3c5c086e1587ed472af83d11c8625",
      "s": "0x12d9a355159857b03a17f05a910ca509e2a31ff0f7b264928593a626f2b27cfc",
      "v": 28,
      "creates": null,
      "raw": "0xf86d02850d7b77c12a8252089432be343b94f860124dc4fee278fdcbd38c102d888936388be6bd8d840000801ca0985dc63803d5164341becb6729fd1bedb9e3c5c086e1587ed472af83d11c8625a012d9a355159857b03a17f05a910ca509e2a31ff0f7b264928593a626f2b27cfc",
      "networkId": 0,
      "chainId": 0
    },
    {
      "hash": "0x9b795bc00fd7e7299b870e0c1309fe73e5ccd1a145c83014f37336b4003aa8fd",
      "blockHash": "0x4a81ce1f128dfb1177d73ac8c860ec375358aeae3b4c00366ba00a19569bed10",
      "blockNumber": 53918,
      "transactionIndex": 4,
      "confirmations": null,
      "from": "0xF109ca710C0Df51c1a86dBA1B0BA0Ed038114463",
      "gasPrice": {
        "_hex": "0xd7b77c12a"
      },
      "gasLimit": {
        "_hex": "0x5208"
      },
      "to": "0x32Be343B94f860124dC4fEe278FDCBD38C102D88",
      "value": {
        "_hex": "0x9e54c82a4a7a000"
      },
      "nonce": 2,
      "data": "0x",
      "r": "0x02e456be5bcb42bc9a72647a7e5b64dfe3dcd801b5209fd6ea7c0b267505a4ef",
      "s": "0x65eda813d4d83a57a76ee8d0021a26c3522a579300fe5052ab6f740ed08460bc",
      "v": 28,
      "creates": null,
      "raw": "0xf86c02850d7b77c12a8252089432be343b94f860124dc4fee278fdcbd38c102d888809e54c82a4a7a000801ca002e456be5bcb42bc9a72647a7e5b64dfe3dcd801b5209fd6ea7c0b267505a4efa065eda813d4d83a57a76ee8d0021a26c3522a579300fe5052ab6f740ed08460bc",
      "networkId": 0,
      "chainId": 0
    },
    {
      "hash": "0xa6efad80bc3095c0147fec97828d88908cac8e39c831b5622db0a9088c9a7875",
      "blockHash": "0x4a81ce1f128dfb1177d73ac8c860ec375358aeae3b4c00366ba00a19569bed10",
      "blockNumber": 53918,
      "transactionIndex": 5,
      "confirmations": null,
      "from": "0x1543667B9bad3e41865C3233E1764d8dda8E1F3D",
      "gasPrice": {
        "_hex": "0xd7b77c12a"
      },
      "gasLimit": {
        "_hex": "0x5208"
      },
      "to": "0x32Be343B94f860124dC4fEe278FDCBD38C102D88",
      "value": {
        "_hex": "0x340a680222f406000"
      },
      "nonce": 2,
      "data": "0x",
      "r": "0x5128361d7aae38abd39c8b52596f499b596d82a5094a7743529fb4e07a18fbb4",
      "s": "0x150bb34649086bb3d5497ea68e0baab14e1a8327e0befc3ec60aa41c3ce251ef",
      "v": 27,
      "creates": null,
      "raw": "0xf86d02850d7b77c12a8252089432be343b94f860124dc4fee278fdcbd38c102d88890340a680222f406000801ba05128361d7aae38abd39c8b52596f499b596d82a5094a7743529fb4e07a18fbb4a0150bb34649086bb3d5497ea68e0baab14e1a8327e0befc3ec60aa41c3ce251ef",
      "networkId": 0,
      "chainId": 0
    },
    {
      "hash": "0x4bef764ba9d5e183829a10477f69e16dcd5a2b0399632489a8678897404f6b42",
      "blockHash": "0x4a81ce1f128dfb1177d73ac8c860ec375358aeae3b4c00366ba00a19569bed10",
      "blockNumber": 53918,
      "transactionIndex": 6,
      "confirmations": null,
      "from": "0xC6c676946C54B5e7c31A07a079166C488Bf06dd7",
      "gasPrice": {
        "_hex": "0xd7b77c12a"
      },
      "gasLimit": {
        "_hex": "0x5208"
      },
      "to": "0x32Be343B94f860124dC4fEe278FDCBD38C102D88",
      "value": {
        "_hex": "0xddc64ba9b345400"
      },
      "nonce": 0,
      "data": "0x",
      "r": "0x043f9c8c24bafe5376c07db9cdbcfbfe821a86f0c783c8a6386a2774a49bfac1",
      "s": "0x566ab943eba6173e43658bd7de7a1cb004e0e25d6b7c49fe9e6ce5e7e95825ee",
      "v": 28,
      "creates": null,
      "raw": "0xf86c80850d7b77c12a8252089432be343b94f860124dc4fee278fdcbd38c102d88880ddc64ba9b345400801ca0043f9c8c24bafe5376c07db9cdbcfbfe821a86f0c783c8a6386a2774a49bfac1a0566ab943eba6173e43658bd7de7a1cb004e0e25d6b7c49fe9e6ce5e7e95825ee",
      "networkId": 0,
      "chainId": 0
    },
    {
      "hash": "0xe0ba4f9abf5ad56dae7dd42caa50623faa9b709a97b7f7ff1087ff93c3b7f98e",
      "blockHash": "0x4a81ce1f128dfb1177d73ac8c860ec375358aeae3b4c00366ba00a19569bed10",
      "blockNumber": 53918,
      "transactionIndex": 7,
      "confirmations": null,
      "from": "0x33A3f479f6c3e7F91128348490D1f7E8D2A0FAb5",
      "gasPrice": {
        "_hex": "0xd7b77c12a"
      },
      "gasLimit": {
        "_hex": "0x5208"
      },
      "to": "0x32Be343B94f860124dC4fEe278FDCBD38C102D88",
      "value": {
        "_hex": "0x455f3f8938c45400"
      },
      "nonce": 7,
      "data": "0x",
      "r": "0x1867cd290d9df9d9c682680ed986844bd78a2325531a29ddc0f356486cbc02ea",
      "s": "0x5eee57d0149c5fa8cae179dd5dc4321f6316766cb17516ec934bf13b608a2053",
      "v": 28,
      "creates": null,
      "raw": "0xf86c07850d7b77c12a8252089432be343b94f860124dc4fee278fdcbd38c102d8888455f3f8938c45400801ca01867cd290d9df9d9c682680ed986844bd78a2325531a29ddc0f356486cbc02eaa05eee57d0149c5fa8cae179dd5dc4321f6316766cb17516ec934bf13b608a2053",
      "networkId": 0,
      "chainId": 0
    },
    {
      "hash": "0x61a4f1ab8ba0556f214c22b874b7b8ed0cf2247dba83494ef0bfb69134fb3831",
      "blockHash": "0x4a81ce1f128dfb1177d73ac8c860ec375358aeae3b4c00366ba00a19569bed10",
      "blockNumber": 53918,
      "transactionIndex": 8,
      "confirmations": null,
      "from": "0x86d3856ad0105B9d4199936c1fd203664BA325dC",
      "gasPrice": {
        "_hex": "0xd7b77c12a"
      },
      "gasLimit": {
        "_hex": "0x5208"
      },
      "to": "0x32Be343B94f860124dC4fEe278FDCBD38C102D88",
      "value": {
        "_hex": "0x299dd221e9fc5400"
      },
      "nonce": 0,
      "data": "0x",
      "r": "0x28984f9b6d506a2285d9b00d338cd1b3f8bf16a635a2916ceebfb3d544b4917f",
      "s": "0x2de0c20d1d280a9d61efce412a02ec5097a9f1bd1b53d17782b9f099ec6e7968",
      "v": 28,
      "creates": null,
      "raw": "0xf86c80850d7b77c12a8252089432be343b94f860124dc4fee278fdcbd38c102d8888299dd221e9fc5400801ca028984f9b6d506a2285d9b00d338cd1b3f8bf16a635a2916ceebfb3d544b4917fa02de0c20d1d280a9d61efce412a02ec5097a9f1bd1b53d17782b9f099ec6e7968",
      "networkId": 0,
      "chainId": 0
    },
    {
      "hash": "0xf6fe68d845065ef5de56eb02bd9e3f52ed799a80672f6d119f08f5d61d682484",
      "blockHash": "0x4a81ce1f128dfb1177d73ac8c860ec375358aeae3b4c00366ba00a19569bed10",
      "blockNumber": 53918,
      "transactionIndex": 9,
      "confirmations": null,
      "from": "0xA6745A30DeC47EAec79E7a33ff221fc9CbF6615E",
      "gasPrice": {
        "_hex": "0xba43b7400"
      },
      "gasLimit": {
        "_hex": "0x5b04"
      },
      "to": "0x50851F0A477440DdfD402D389A84CA4a91A52AD6",
      "value": {
        "_hex": "0x8ac7230489e80000"
      },
      "nonce": 0,
      "data": "0x",
      "r": "0xf1403209eb2308f7b712d7e4d81fabb027e294c6a34e23cb7d587f899401c7e3",
      "s": "0x7c5ae36086afa5bb4c5b2d126d119a2a5a2297092525a2737b00f6d6e31a0d66",
      "v": 28,
      "creates": null,
      "raw": "0xf86c80850ba43b7400825b049450851f0a477440ddfd402d389a84ca4a91a52ad6888ac7230489e80000801ca0f1403209eb2308f7b712d7e4d81fabb027e294c6a34e23cb7d587f899401c7e3a07c5ae36086afa5bb4c5b2d126d119a2a5a2297092525a2737b00f6d6e31a0d66",
      "networkId": 0,
      "chainId": 0
    }
  ]
}