{
  "hash": "0xe897cf589414009a1c66f11059ebf1ac5e5008b6d516c1aa6624dbb5e5fecd65",
  "parentHash": "0xfd4bf902496e3c098d9e75694fc7ced6ea314f5b28519fa436eb7eff6fe1c5fe",
  "number": 113109,
  "timestamp": 1440018010,
  "nonce": "0x0d01324b2d4e8edb",
  "difficulty": 4477925668488,
  "gasLimit": {
    "_hex": "0x2fefd8"
  },
  "gasUsed": {
    "_hex": "0xa410"
  },
  "miner": "0xe6A7a1d47ff21B6321162AEA7C6CB457D5476Bca",
  "extraData": "0x476574682f76312e302e312d38326566323666362f6c696e75782f676f312e34",
  "transactions": [
    {
      "hash": "0x75dc8f58a3025fc96bea08fc0442ddf4e1ea7485f7fe126639b2c80d47053e82",
      "blockHash": "0xe897cf589414009a1c66f11059ebf1ac5e5008b6d516c1aa6624dbb5e5fecd65",
      "blockNumber": 113109,
      "transactionIndex": 0,
      "confirmations": null,
      "from": "0x1332996a46dcBBE02f9cF164Dfc153aB976a9766",
      "gasPrice": {
        "_hex": "0xba43b7400"
      },
      "gasLimit": {
        "_hex": "0x5208"
      },
      "to": "0xC47Aaa860008be6f65B58c6C6E02a84e666EfE31",
      "value": {
        "_hex": "0xf61ec5ba36423710"
      },
      "nonce": 13,
      "data": "0x",
      "r": "0x179a711ce3c48cfa921f187d4c13026ffe7a84b470c3fff597f2647317d71d09",
      "s": "0x101816983c8ed385229a4f9294e2bf7812622ba48533ed3d6156ed63abc83b1c",
      "v": 28,
      "creates": null,
      "raw": "0xf86c0d850ba43b740082520894c47aaa860008be6f65b58c6c6e02a84e666efe3188f61ec5ba36423710801ca0179a711ce3c48cfa921f187d4c13026ffe7a84b470c3fff597f2647317d71d09a0101816983c8ed385229a4f9294e2bf7812622ba48533ed3d6156ed63abc83b1c",
      "networkId": 0,
      "chainId": 0
    },
    {
      "hash": "0x936d153537b43682273cb0a58c79f1654b2361b29d73de2d4a97fd3b754da9f5",
      "blockHash": "0xe897cf589414009a1c66f11059ebf1ac5e5008b6d516c1aa6624dbb5e5fecd65",
      "blockNumber": 113109,
      "transactionIndex": 1,
      "confirmations": null,
      "from": "0xC96Bd2Aa7AcB234ecA4E38E33bF2C080e7680FA5",
      "gasPrice": {
        "_hex": "0xba43b7400"
      },
      "gasLimit": {
        "_hex": "0x5208"
      },
      "to": "0xC47Aaa860008be6f65B58c6C6E02a84e666EfE31",
      "value": {
        "_hex": "0x8e0e315e61676910"
      },
      "nonce": 6,
      "data": "0x",
      "r": "0xecdfa685dfbac9c321ee54749b3948a2b4ee3e080414c35f2d1ae57a761a0bbd",
      "s": "0x5db48bf9fcaeafbce1f232edd6c9ea6f91063c9d2735c4267ce80dfc27bc38e2",
      "v": 28,
      "creates": null,
      "raw": "0xf86c06850ba43b740082520894c47aaa860008be6f65b58c6c6e02a84e666efe31888e0e315e61676910801ca0ecdfa685dfbac9c321ee54749b3948a2b4ee3e080414c35f2d1ae57a761a0bbda05db48bf9fcaeafbce1f232edd6c9ea6f91063c9d2735c4267ce80dfc27bc38e2",
      "networkId": 0,
      "chainId": 0
    }
  ]
}