{
  "hash": "0xcb471b19251c948dfc6fcea4748deed7b5816d14268b688a22b728ffaefaf832",
  "parentHash": "0x1ac477805d9a162eafd72ffd154b3953371a7997975c703206354710521ebfa8",
  "number": 120279,
  "timestamp": 1440157297,
  "nonce": "0x1dba97404df23bd2",
  "difficulty": 4404735388327,
  "gasLimit": {
    "_hex": "0x2fefd8"
  },
  "gasUsed": {
    "_hex": "0x5208"
  },
  "miner": "0xaB638742EBe3A78F2a85028350e1AADB86C0a6ed",
  "extraData": "0xd983010002844765746887676f312e342e328777696e646f7773",
  "transactions": [
    {
      "hash": "0x8081550779dce42419d34df9f342b28b9dfe08c557ccf8d8d00f94cf2c6fcbbe",
      "blockHash": "0xcb471b19251c948dfc6fcea4748deed7b5816d14268b688a22b728ffaefaf832",
      "blockNumber": 120279,
      "transactionIndex": 0,
      "confirmations": null,
      "from": "0x8BeF58cf6D5f4fdE02e940a20D56b052F89Cf42f",
      "gasPrice": {
        "_hex": "0x9184e72a000"
      },
      "gasLimit": {
        "_hex": "0x9965e"
      },
      "to": "0xFAe95941f26f565646Cc5bF443AfFDe60868f17e",
      "value": {
        "_hex": "0x1b1ae4d6e2ef500000"
      },
      "nonce": 4,
      "data": "0x",
      "r": "0x49fdb1ab818fe95752fc329618a00fdba0e99bcb6e9a303420b267c69342a7e8",
      "s": "0x1f93be5ce40e1ef6b75de197b189baa227bc09c2f00022a63357a2772816b471",
      "v": 27,
      "creates": null,
      "raw": "0xf86f048609184e72a0008309965e94fae95941f26f565646cc5bf443affde60868f17e891b1ae4d6e2ef500000801ba049fdb1ab818fe95752fc329618a00fdba0e99bcb6e9a303420b267c69342a7e8a01f93be5ce40e1ef6b75de197b189baa227bc09c2f00022a63357a2772816b471",
      "networkId": 0,
      "chainId": 0
    }
  ]
}