{
  "hash": "0x937c1acf2c069b511478afb6c4845f901b2e6ca17a699a00f9c2cb19f5afda00",
  "parentHash": "0x2259510374ce45a07af0f7502170888eafb5a87869e3daa686e886561d540a8e",
  "number": 47625,
  "timestamp": 1438943927,
  "nonce": "0x1555e39dde900cca",
  "difficulty": 1443856549685,
  "gasLimit": {
    "_hex": "0xd897"
  },
  "gasUsed": {
    "_hex": "0x5208"
  },
  "miner": "0x035052044374B3607Fc995a2460f096a5c5c0184",
  "extraData": "0x476574682f76312e302e312f6c696e75782f676f312e342e32",
  "transactions": [
    {
      "hash": "0xab14cb25433501ce6cae9bdb6196c11d8a4a814c7e95b703b9029f9b644789b9",
      "blockHash": "0x937c1acf2c069b511478afb6c4845f901b2e6ca17a699a00f9c2cb19f5afda00",
      "blockNumber": 47625,
      "transactionIndex": 0,
      "confirmations": null,
      "from": "0x9dF32A501C0b781c0281022f42A1293FfD7B892a",
      "gasPrice": {
        "_hex": "0xba43b7400"
      },
      "gasLimit": {
        "_hex": "0x5208"
      },
      "to": "0x256A6D2Ae68632a3c99b66d792C13330842476d7",
      "value": {
        "_hex": "0x3619e4b96c20170000"
      },
      "nonce": 5,
      "data": "0x",
      "r": "0x8f927aa143e27fb595b1b8667ed32701342033766f702c1e8fb5563443b6b908",
      "s": "0x54698cf9d8e53798a4bf7710495a306f9f9196612ef9da5a4b5991f3a092cf65",
      "v": 28,
      "creates": null,
      "raw": "0xf86d05850ba43b740082520894256a6d2ae68632a3c99b66d792c13330842476d7893619e4b96c20170000801ca08f927aa143e27fb595b1b8667ed32701342033766f702c1e8fb5563443b6b908a054698cf9d8e53798a4bf7710495a306f9f9196612ef9da5a4b5991f3a092cf65",
      "networkId": 0,
      "chainId": 0
    }
  ]
}