{
  "hash": "0xbe56375a7444c31ceedb783119b5ed9d82e2982035780ebaabb5a4d556d4e7f6",
  "parentHash": "0xd29dc3f4824ab3f5a4153c00f10eb09f1bf981ec869a7f0632a7c5e6a2bdb774",
  "number": 78454,
  "timestamp": 1439454042,
  "nonce": "0x8db46c30cc770694",
  "difficulty": 2290968508370,
  "gasLimit": {
    "_hex": "0x2fefd8"
  },
  "gasUsed": {
    "_hex": "0x5208"
  },
  "miner": "0x8C7bAEA34346a2E47026485BCD8f323012dEA6aA",
  "extraData": "0x476574682f76312e302e312f77696e646f77732f676f312e342e32",
  "transactions": [
    {
      "hash": "0xdc9cd014f91a2c42d23072c881ff8196c44df5e0afb46d4fa9cc3a4af02f4977",
      "blockHash": "0xbe56375a7444c31ceedb783119b5ed9d82e2982035780ebaabb5a4d556d4e7f6",
      "blockNumber": 78454,
      "transactionIndex": 0,
      "confirmations": null,
      "from": "0xf4B1114a02EFe852013277F28ed88734Fa81E54f",
      "gasPrice": {
        "_hex": "0xd0ca890cf"
      },
      "gasLimit": {
        "_hex": "0x15f90"
      },
      "to": "0x4B11852B35058CBFB5a50c5a007b0c134927Fd8b",
      "value": {
        "_hex": "0x16345785d8a0000"
      },
      "nonce": 13,
      "data": "0x",
      "r": "0xf51fd6868ccebd69577da44c0a1d903c9d31a88c1be62016d334ecdd6290f284",
      "s": "0x6fc084187114d4b49e01807d0d38d294732fce62a2f8cc55b07ccb790661d0f8",
      "v": 27,
      "creates": null,
      "raw": "0xf86d0d850d0ca890cf83015f90944b11852b35058cbfb5a50c5a007b0c134927fd8b88016345785d8a0000801ba0f51fd6868ccebd69577da44c0a1d903c9d31a88c1be62016d334ecdd6290f284a06fc084187114d4b49e01807d0d38d294732fce62a2f8cc55b07ccb790661d0f8",
      "networkId": 0,
      "chainId": 0
    }
  ]
}