{
  "hash": "0xc1e60353ebab6623b7c524b3556b7f2c8c7453e5002e21baa4be3bf882d66fc0",
  "parentHash": "0x96fcefc86301750f8678953e2d4564eea51a20e51ec02e007a44f5f2d3b98218",
  "number": 107944,
  "timestamp": 1439931382,
  "nonce": "0xa63d58321a5cac5e",
  "difficulty": 4374752083960,
  "gasLimit": {
    "_hex": "0x2fefd8"
  },
  "gasUsed": {
    "_hex": "0x5208"
  },
  "miner": "0xb6E2d440C46510EC44266A3f58165E3956173df0",
  "extraData": "0x476574682f76312e302e312f77696e646f77732f676f312e342e32",
  "transactions": [
    {
      "hash": "0xff2537ba64a54ae1fa4026120e091bfbef5361faaf04cb44dffcb4fbfdd6ad81",
      "blockHash": "0xc1e60353ebab6623b7c524b3556b7f2c8c7453e5002e21baa4be3bf882d66fc0",
      "blockNumber": 107944,
      "transactionIndex": 0,
      "confirmations": null,
      "from": "0x431FDD9f2Fdc4A532867E0e0a85463436807d17C",
      "gasPrice": {
        "_hex": "0xdb265e2f4"
      },
      "gasLimit": {
        "_hex": "0x5208"
      },
      "to": "0x32Be343B94f860124dC4fEe278FDCBD38C102D88",
      "value": {
        "_hex": "0x3635c54a338c900000"
      },
      "nonce": 5,
      "data": "0x",
      "r": "0xc9f4fc742e4e5687c3e9667a63818a474411960e1a08b4e08fe67405c8312422",
      "s": "0x4d9a370b016fdacab22dd96213350bc5ad835ecf088285ff6cdb44095439c728",
      "v": 27,
      "creates": null,
      "raw": "0xf86d05850db265e2f48252089432be343b94f860124dc4fee278fdcbd38c102d88893635c54a338c900000801ba0c9f4fc742e4e5687c3e9667a63818a474411960e1a08b4e08fe67405c8312422a04d9a370b016fdacab22dd96213350bc5ad835ecf088285ff6cdb44095439c728",
      "networkId": 0,
      "chainId": 0
    }
  ]
}