{
  "hash": "0x4202a74fce907f97d2071404e670579fd55da1f9443a656155e61e6c9e2fad59",
  "parentHash": "0xc297f3a20ead57d465aa4e2cf16ce4db82ccf677b3aba9e6474c62ef4343394a",
  "number": 69030,
  "timestamp": 1439297404,
  "nonce": "0xeb461d13af615aae",
  "difficulty": 2037928833124,
  "gasLimit": {
    "_hex": "0x2fefd8"
  },
  "gasUsed": {
    "_hex": "0x133c9c"
  },
  "miner": "0xbb7B8287f3F0a933474a79eAe42CBCa977791171",
  "extraData": "0x476574682f4c5649562f76312e302e312f6c696e75782f676f312e342e32",
  "transactions": [
    {
      "hash": "0xa63289d44046be60e163daf3abc787330acf97c5bd3fce84cb1ed845ee5c87ec",
      "blockHash": "0x4202a74fce907f97d2071404e670579fd55da1f9443a656155e61e6c9e2fad59",
      "blockNumber": 69030,
      "transactionIndex": 0,
      "confirmations": null,
      "from": "0xA5fb3E4399E8F18643f969D0Ce65CC352fc252C6",
      "gasPrice": {
        "_hex": "0xda4277c71"
      },
      "gasLimit": {
        "_hex": "0x5208"
      },
      "to": "0x32Be343B94f860124dC4fEe278FDCBD38C102D88",
      "value": {
        "_hex": "0x1dd0c41b12b1580000"
      },
      "nonce": 4,
      "data": "0x",
      "r": "0x7df32e1e4a1078b8696cc0ae79a1f144fdbc3369cda2cf7cbd8d940c144ee2cf",
      "s": "0x277cafcebfb5d197c03a627901813b9b75ccb1dc4c0efdf7e173c561ccadcb18",
      "v": 27,
      "creates": null,
      "raw": "0xf86d04850da4277c718252089432be343b94f860124dc4fee278fdcbd38c102d88891dd0c41b12b1580000801ba07df32e1e4a1078b8696cc0ae79a1f144fdbc3369cda2cf7cbd8d940c144ee2cfa0277cafcebfb5d197c03a627901813b9b75ccb1dc4c0efdf7e173c561ccadcb18",
      "networkId": 0,
      "chainId": 0
    },
    {
      "hash": "0xf2242eaf6dce579e9a91f643b13e8c886f4ff01bdbb723fbf9a68501d522383f",
      "blockHash": "0x4202a74fce907f97d2071404e670579fd55da1f9443a656155e61e6c9e2fad59",
      "blockNumber": 69030,
      "transactionIndex": 1,
      "confirmations": null,
      "from": "0x01Ad0ACFf478127D9d702B1A13599D706cB759b1",
      "gasPrice": {
        "_hex": "0xda4277c71"
      },
      "gasLimit": {
        "_hex": "0x5208"
      },
      "to": "0x32Be343B94f860124dC4fEe278FDCBD38C102D88",
      "value": {
        "_hex": "0x8ac2c40307291000"
      },
      "nonce": 9,
      "data": "0x",
      "r": "0xbfe0c647559bd6da259f6ab4641e1d3eb1d12d6dd47e577a3d80544b78a5daca",
      "s": "0x24659bfaf8279382af823c5339dd2b9e62486677ed7ddc6f3d806e3bc77f3660",
      "v": 27,
      "creates": null,
      "raw": "0xf86c09850da4277c718252089432be343b94f860124dc4fee278fdcbd38c102d88888ac2c40307291000801ba0bfe0c647559bd6da259f6ab4641e1d3eb1d12d6dd47e577a3d80544b78a5dacaa024659bfaf8279382af823c5339dd2b9e62486677ed7ddc6f3d806e3bc77f3660",
      "networkId": 0,
      "chainId": 0
    },
    {
      "hash": "0xc7b146112ce2a0a6cb7f096308020750b612ed1008145b41713341293a5c3c32",
      "blockHash": "0x4202a74fce907f97d2071404e670579fd55da1f9443a656155e61e6c9e2fad59",
      "blockNumber": 69030,
      "transactionIndex": 2,
      "confirmations": null,
      "from": "0x48690f3dE4695069F943a3bbB9292697e48879D2",
      "gasPrice": {
        "_hex": "0xba43b7400"
      },
      "gasLimit": {
        "_hex": "0x15f90"
      },
      "to": "0x793AE8C1b1a160BFc07BFB0d04F85eab1A71F4f2",
      "value": {
        "_hex": "0x0"
      },
      "nonce": 0,
      "data": "0x3ba15036",
      "r": "0xd385422a30435ad8a933be18d6c59db1b43711739813186384b195fc83b9b572",
      "s": "0x26b87ee257a679224f512a51545714c8067fe908f1af1c92984eb88c4c9f1e77",
      "v": 27,
      "creates": null,
      "raw": "0xf86980850ba43b740083015f9094793ae8c1b1a160bfc07bfb0d04f85eab1a71f4f280843ba150361ba0d385422a30435ad8a933be18d6c59db1b43711739813186384b195fc83b9b572a026b87ee257a679224f512a51545714c8067fe908f1af1c92984eb88c4c9f1e77",
      "networkId": 0,
      "chainId": 0
    },
    {
      "hash": "0xe38413128c0b26400624b08a7c635f8a12784bc65cf26aa63aa5fede45e84bd0",
      "blockHash": "0x4202a74fce907f97d2071404e670579fd55da1f9443a656155e61e6c9e2fad59",
      "blockNumber": 69030,
      "transactionIndex": 3,
      "confirmations": null,
      "from": "0x0d5e336E24dB7A6c0da9B5980d66486A53fDCe6D",
      "gasPrice": {
        "_hex": "0xba43b7400"
      },
      "gasLimit": {
        "_hex": "0x15f90"
      },
      "to": "0x793AE8C1b1a160BFc07BFB0d04F85eab1A71F4f2",
      "value": {
        "_hex": "0x0"
      },
      "nonce": 0,
      "data": "0x3ba15036",
      "r": "0x5a3013d41c05213d9619535953a6a8f08afe0aa6ed0dda312b9a44aacc50ad30",
      "s": "0x2121dee2091a8c7e9c31ce9799b218b5884b988697bae5f7e89d0fdbdac93aee",
      "v": 27,
      "creates": null,
      "raw": "0xf86980850ba43b740083015f9094793ae8c1b1a160bfc07bfb0d04f85eab1a71f4f280843ba150361ba05a3013d41c05213d9619535953a6a8f08afe0aa6ed0dda312b9a44aacc50ad30a02121dee2091a8c7e9c31ce9799b218b5884b988697bae5f7e89d0fdbdac93aee",
      "networkId": 0,
      "chainId": 0
    },
    {
      "hash": "0x1470b62bb37561828aa33fea64d51a97158a7bd0217611d08254a0bf3c978639",
      "blockHash": "0x4202a74fce907f97d2071404e670579fd55da1f9443a656155e61e6c9e2fad59",
      "blockNumber": 69030,
      "transactionIndex": 4,
      "confirmations": null,
      "from": "0xD4FD73Bc0985f4315760809bfb0657Eb9e3aC50C",
      "gasPrice": {
        "_hex": "0xba43b7400"
      },
      "gasLimit": {
        "_hex": "0x15f90"
      },
      "to": "0x793AE8C1b1a160BFc07BFB0d04F85eab1A71F4f2",
      "value": {
        "_hex": "0x0"
      },
      "nonce": 0,
      "data": "0x3ba15036",
      "r": "0x82957ed00a552f67350e3812c3741f82d8564fff443ec25a0062cebe1957d4d8",
      "s": "0x59921489dee5ab5c7aad3ab996de2a66c40324b123634195e31af399d59b5091",
      "v": 28,
      "creates": null,
      "raw": "0xf86980850ba43b740083015f9094793ae8c1b1a160bfc07bfb0d04f85eab1a71f4f280843ba150361ca082957ed00a552f67350e3812c3741f82d8564fff443ec25a0062cebe1957d4d8a059921489dee5ab5c7aad3ab996de2a66c40324b123634195e31af399d59b5091",
      "networkId": 0,
      "chainId": 0
    },
    {
      "hash": "0x32474d2c871cf38546a3c0ff12560c4bf27eaec55e76f7e9104e6151275b2ae7",
      "blockHash": "0x4202a74fce907f97d2071404e670579fd55da1f9443a656155e61e6c9e2fad59",
      "blockNumber": 69030,
      "transactionIndex": 5,
      "confirmations": null,
      "from": "0x0FFE0F7de6BDc33EBba305D138970843acfba7C5",
      "gasPrice": {
        "_hex": "0xba43b7400"
      },
      "gasLimit": {
        "_hex": "0x15f90"
      },
      "to": "0x793AE8C1b1a160BFc07BFB0d04F85eab1A71F4f2",
      "value": {
        "_hex": "0x0"
      },
      "nonce": 0,
      "data": "0x3ba15036",
      "r": "0x90d6a458f845bc21e46bd4b1afe0372068e17c4ce6cfb8526ec49f6239379e60",
      "s": "0x4ae7cc556aa6f376b990064bc6bf2506af0708d845b0e37a48a0a8c134fadfdb",
      "v": 28,
      "creates": null,
      "raw": "0xf86980850ba43b740083015f9094793ae8c1b1a160bfc07bfb0d04f85eab1a71f4f280843ba150361ca090d6a458f845bc21e46bd4b1afe0372068e17c4ce6cfb8526ec49f6239379e60a04ae7cc556aa6f376b990064bc6bf2506af0708d845b0e37a48a0a8c134fadfdb",
      "networkId": 0,
      "chainId": 0
    },
    {
      "hash": "0xeb955b84f061cd7e332f6a712270c55f5e158cb94e2cb160636535627d8253a0",
      "blockHash": "0x4202a74fce907f97d2071404e670579fd55da1f9443a656155e61e6c9e2fad59",
      "blockNumber": 69030,
      "transactionIndex": 6,
      "confirmations": null,
      "from": "0x3Cb7897f04Cf291a4069e38E2809c260A3fCe3D3",
      "gasPrice": {
        "_hex": "0xba43b7400"
      },
      "gasLimit": {
        "_hex": "0x15f90"
      },
      "to": "0x793AE8C1b1a160BFc07BFB0d04F85eab1A71F4f2",
      "value": {
        "_hex": "0x0"
      },
      "nonce": 0,
      "data": "0x3ba15036",
      "r": "0x664aa14c4d5f94ca47e2c2ceb93cd5781c31274b4850a2188e84bc0d467bbf6b",
      "s": "0x4b0a9ddf0635981bad731c4ab9ebff4b3af86914a2214c194a759a6d0b6a8b61",
      "v": 27,
      "creates": null,
      "raw": "0xf86980850ba43b740083015f9094793ae8c1b1a160bfc07bfb0d04f85eab1a71f4f280843ba150361ba0664aa14c4d5f94ca47e2c2ceb93cd5781c31274b4850a2188e84bc0d467bbf6ba04b0a9ddf0635981bad731c4ab9ebff4b3af86914a2214c194a759a6d0b6a8b61",
      "networkId": 0,
      "chainId": 0
    },
    {
      "hash": "0x5748ec2b5192bb9388b7e06b7e9dc8873179741359966ebdf5f481fe75e8e932",
      "blockHash": "0x4202a74fce907f97d2071404e670579fd55da1f9443a656155e61e6c9e2fad59",
      "blockNumber": 69030,
      "transactionIndex": 7,
      "confirmations": null,
      "from": "0x3CE41D6Adb1d07f8A4CcF96ce4C0F1e5C3D03956",
      "gasPrice": {
        "_hex": "0xba43b7400"
      },
      "gasLimit": {
        "_hex": "0x15f90"
      },
      "to": "0x793AE8C1b1a160BFc07BFB0d04F85eab1A71F4f2",
      "value": {
        "_hex": "0x0"
      },
      "nonce": 0,
      "data": "0x3ba15036",
      "r": "0x2b948bc54ec8975c90c65ed62d66dcddf0ce1c01e84eb10343b5653bcdcae2fd",
      "s": "0x4b5e7117e72c1aeb4527baf96f14a3a41cf7dee89164a1b15a103c880cd70e41",
      "v": 28,
      "creates": null,
      "raw": "0xf86980850ba43b740083015f9094793ae8c1b1a160bfc07bfb0d04f85eab1a71f4f280843ba150361ca02b948bc54ec8975c90c65ed62d66dcddf0ce1c01e84eb10343b5653bcdcae2fda04b5e7117e72c1aeb4527baf96f14a3a41cf7dee89164a1b15a103c880cd70e41",
      "networkId": 0,
      "chainId": 0
    },
    {
      "hash": "0xefc25f5355b59dca31a13d3d7b1273b4f063ae65b6640d92deb265ed5eda6f9d",
      "blockHash": "0x4202a74fce907f97d2071404e670579fd55da1f9443a656155e61e6c9e2fad59",
      "blockNumber": 69030,
      "transactionIndex": 8,
      "confirmations": null,
      "from": "0xE4588a12A7B3bcc8d6De5fbdBc3a82bC042A1415",
      "gasPrice": {
        "_hex": "0xba43b7400"
      },
      "gasLimit": {
        "_hex": "0x15f90"
      },
      "to": "0x793AE8C1b1a160BFc07BFB0d04F85eab1A71F4f2",
      "value": {
        "_hex": "0x0"
      },
      "nonce": 0,
      "data": "0x3ba15036",
      "r": "0x441c84c4c7ee11f1090b1142ca5351d672f2bce33857aacfe0272eaa9844b00a",
      "s": "0x20386177f0a22e69b93b2649c6b8811100d0339bf3f06586b637b3a1afc7c4c0",
      "v": 28,
      "creates": null,
      "raw": "0xf86980850ba43b740083015f9094793ae8c1b1a160bfc07bfb0d04f85eab1a71f4f280843ba150361ca0441c84c4c7ee11f1090b1142ca5351d672f2bce33857aacfe0272eaa9844b00aa020386177f0a22e69b93b2649c6b8811100d0339bf3f06586b637b3a1afc7c4c0",
      "networkId": 0,
      "chainId": 0
    },
    {
      "hash": "0x1f2f383bcfc36c956cd211f0355d7ca628b7caa55e7cf102f5f32d6964d06a03",
      "blockHash": "0x4202a74fce907f97d2071404e670579fd55da1f9443a656155e61e6c9e2fad59",
      "blockNumber": 69030,
      "transactionIndex": 9,
      "confirmations": null,
      "from": "0x6031F8c12A0bC32DbE89FdaC9c707F033FD37286",
      "gasPrice": {
        "_hex": "0xba43b7400"
      },
      "gasLimit": {
        "_hex": "0x15f90"
      },
      "to": "0x793AE8C1b1a160BFc07BFB0d04F85eab1A71F4f2",
      "value": {
        "_hex": "0x0"
      },
      "nonce": 0,
      "data": "0x3ba15036",
      "r": "0x6192f636814fab5e192c4b561d38bcbb7197d247c4b0040547a404cb839f3c21",
      "s": "0x6b93b01f95bc731605fb4e74111c160a0e91c271ee368550ec5574275b2bfc92",
      "v": 27,
      "creates": null,
      "raw": "0xf86980850ba43b740083015f9094793ae8c1b1a160bfc07bfb0d04f85eab1a71f4f280843ba150361ba06192f636814fab5e192c4b561d38bcbb7197d247c4b0040547a404cb839f3c21a06b93b01f95bc731605fb4e74111c160a0e91c271ee368550ec5574275b2bfc92",
      "networkId": 0,
      "chainId": 0
    },
    {
      "hash": "0x5634a45e9454333602e1d22d6c448ae10337a9f3480da4831889bdeb5d9551a4",
      "blockHash": "0x4202a74fce907f97d2071404e670579fd55da1f9443a656155e61e6c9e2fad59",
      "blockNumber": 69030,
      "transactionIndex": 10,
      "confirmations": null,
      "from": "0x2bF8B33e2A8B6cCC48b6b4C77134b0914b49B09f",
      "gasPrice": {
        "_hex": "0xba43b7400"
      },
      "gasLimit": {
        "_hex": "0x15f90"
      },
      "to": "0x793AE8C1b1a160BFc07BFB0d04F85eab1A71F4f2",
      "value": {
        "_hex": "0x0"
      },
      "nonce": 0,
      "data": "0x3ba15036",
      "r": "0x3ecb4690e75090d9f36754123a97f5991556e2a9bec71f2d185e225dd6493530",
      "s": "0x49dcb638ecadd82ced75e639b12f374d42d66ba64d076f311fa5392334920b0a",
      "v": 28,
      "creates": null,
      "raw": "0xf86980850ba43b740083015f9094793ae8c1b1a160bfc07bfb0d04f85eab1a71f4f280843ba150361ca03ecb4690e75090d9f36754123a97f5991556e2a9bec71f2d185e225dd6493530a049dcb638ecadd82ced75e639b12f374d42d66ba64d076f311fa5392334920b0a",
      "networkId": 0,
      "chainId": 0
    },
    {
      "hash": "0x18efe12a42a47efd9ba21fc35f8daccdece05ed817677a9f581b0980fd636e12",
      "blockHash": "0x4202a74fce907f97d2071404e670579fd55da1f9443a656155e61e6c9e2fad59",
      "blockNumber": 69030,
      "transactionIndex": 11,
      "confirmations": null,
      "from": "0xa02FcCFF30307FFa3F84ff17673A1a7fDADD9b88",
      "gasPrice": {
        "_hex": "0xba43b7400"
      },
      "gasLimit": {
        "_hex": "0x15f90"
      },
      "to": "0x793AE8C1b1a160BFc07BFB0d04F85eab1A71F4f2",
      "value": {
        "_hex": "0x0"
      },
      "nonce": 0,
      "data": "0x3ba15036",
      "r": "0xbcc120915f9556e61afc412de4b1c5feb4f28f354119b339c084f57391a1495b",
      "s": "0x3630f73df823997cd87b63ff11e1b07c17ef48dd69d61b89aa535734cfcd107a",
      "v": 28,
      "creates": null,
      "raw": "0xf86980850ba43b740083015f9094793ae8c1b1a160bfc07bfb0d04f85eab1a71f4f280843ba150361ca0bcc120915f9556e61afc412de4b1c5feb4f28f354119b339c084f57391a1495ba03630f73df823997cd87b63ff11e1b07c17ef48dd69d61b89aa535734cfcd107a",
      "networkId": 0,
      "chainId": 0
    },
    {
      "hash": "0x63ee2c5f60f8ebe1fd13e2521d1408b4a4980a500e21ee390e186b1b237a61e5",
      "blockHash": "0x4202a74fce907f97d2071404e670579fd55da1f9443a656155e61e6c9e2fad59",
      "blockNumber": 69030,
      "transactionIndex": 12,
      "confirmations": null,
      "from": "0x1a81859042CA7F7ff6C66d78Cb6E11680D09875D",
      "gasPrice": {
        "_hex": "0xba43b7400"
      },
      "gasLimit": {
        "_hex": "0x15f90"
      },
      "to": "0x793AE8C1b1a160BFc07BFB0d04F85eab1A71F4f2",
      "value": {
        "_hex": "0x0"
      },
      "nonce": 0,
      "data": "0x3ba15036",
      "r": "0x7a05ca335800c6023a5f2dca12717cb6d67bb569a2fba5e3dc0c790f678dc4e9",
      "s": "0x547f28c995163e9c4e4604b05f13ed012a76c569194129fb8ad2384c298b79c0",
      "v": 27,
      "creates": null,
      "raw": "0xf86980850ba43b740083015f9094793ae8c1b1a160bfc07bfb0d04f85eab1a71f4f280843ba150361ba07a05ca335800c6023a5f2dca12717cb6d67bb569a2fba5e3dc0c790f678dc4e9a0547f28c995163e9c4e4604b05f13ed012a76c569194129fb8ad2384c298b79c0",
      "networkId": 0,
      "chainId": 0
    },
    {
      "hash": "0xfdd6f24d3d18d93f267f2c6c137e3b189cd7b4fea822e02c3a5f2c8adbf623f3",
      "blockHash": "0x4202a74fce907f97d2071404e670579fd55da1f9443a656155e61e6c9e2fad59",
      "blockNumber": 69030,
      "transactionIndex": 13,
      "confirmations": null,
      "from": "0x9d8266bDb1B9D926FB0AF6Da6D97d73C557B4878",
      "gasPrice": {
        "_hex": "0xba43b7400"
      },
      "gasLimit": {
        "_hex": "0x15f90"
      },
      "to": "0x793AE8C1b1a160BFc07BFB0d04F85eab1A71F4f2",
      "value": {
        "_hex": "0x0"
      },
      "nonce": 0,
      "data": "0x3ba15036",
      "r": "0xc69e9e9fd8f5780eb9e99c8bebf7d91159c7d4e0477257aec04386d6be2843fc",
      "s": "0x6b68c3d05bf1e32b31130510a74d450a7c6d8c8f9277451225dae15d7511b997",
      "v": 28,
      "creates": null,
      "raw": "0xf86980850ba43b740083015f9094793ae8c1b1a160bfc07bfb0d04f85eab1a71f4f280843ba150361ca0c69e9e9fd8f5780eb9e99c8bebf7d91159c7d4e0477257aec04386d6be2843fca06b68c3d05bf1e32b31130510a74d450a7c6d8c8f9277451225dae15d7511b997",
      "networkId": 0,
      "chainId": 0
    },
    {
      "hash": "0xb4236d01a75a8b6cb024d34b9a6c0031af817bc1cde7b8fcb779e5a882ab841a",
      "blockHash": "0x4202a74fce907f97d2071404e670579fd55da1f9443a656155e61e6c9e2fad59",
      "blockNumber": 69030,
      "transactionIndex": 14,
      "confirmations": null,
      "from": "0x4B3d47490a0652225aBA8597c8F5918533f838aA",
      "gasPrice": {
        "_hex": "0xba43b7400"
      },
      "gasLimit": {
        "_hex": "0x15f90"
      },
      "to": "0x793AE8C1b1a160BFc07BFB0d04F85eab1A71F4f2",
      "value": {
        "_hex": "0x0"
      },
      "nonce": 0,
      "data": "0x3ba15036",
      "r": "0x61561b3ea6b1d59d6fb1f7afc75621d696ddcc6fccd26379f46cad6874c380f3",
      "s": "0x57393dba45082cc0e7a620f22e5ec3d4cadbd39572df162c81f5043e96e1d257",
      "v": 28,
      "creates": null,
      "raw": "0xf86980850ba43b740083015f9094793ae8c1b1a160bfc07bfb0d04f85eab1a71f4f280843ba150361ca061561b3ea6b1d59d6fb1f7afc75621d696ddcc6fccd26379f46cad6874c380f3a057393dba45082cc0e7a620f22e5ec3d4cadbd39572df162c81f5043e96e1d257",
      "networkId": 0,
      "chainId": 0
    },
    {
      "hash": "0x77264ce424042cc5b89843fd277d3e02fa7abfafbb8123c1a1d253f24c816874",
      "blockHash": "0x4202a74fce907f97d2071404e670579fd55da1f9443a656155e61e6c9e2fad59",
      "blockNumber": 69030,
      "transactionIndex": 15,
      "confirmations": null,
      "from": "0x6959113357DbDfcD8F7a2B4B32025d9F4922352a",
      "gasPrice": {
        "_hex": "0xba43b7400"
      },
      "gasLimit": {
        "_hex": "0x15f90"
      },
      "to": "0x793AE8C1b1a160BFc07BFB0d04F85eab1A71F4f2",
      "value": {
        "_hex": "0x0"
      },
      "nonce": 0,
      "data": "0x3ba15036",
      "r": "0xbece4371e67620a66a88a927db95a865f503c57e69c16f4467fec4793b7c0302",
      "s": "0x61dec985d583148070ddab9fb8816ada9fa6dd0b5d52fd1d4f3eb7853856459a",
      "v": 27,
      "creates": null,
      "raw": "0xf86980850ba43b740083015f9094793ae8c1b1a160bfc07bfb0d04f85eab1a71f4f280843ba150361ba0bece4371e67620a66a88a927db95a865f503c57e69c16f4467fec4793b7c0302a061dec985d583148070ddab9fb8816ada9fa6dd0b5d52fd1d4f3eb7853856459a",
      "networkId": 0,
      "chainId": 0
    },
    {
      "hash": "0x0576976c0e62ec81fabecab1c07fa2b432965be69ba1279f3aa54163bb735879",
      "blockHash": "0x4202a74fce907f97d2071404e670579fd55da1f9443a656155e61e6c9e2fad59",
      "blockNumber": 69030,
      "transactionIndex": 16,
      "confirmations": null,
      "from": "0x0493806581BeC844614686B5033B6fa994ef5e2A",
      "gasPrice": {
        "_hex": "0xba43b7400"
      },
      "gasLimit": {
        "_hex": "0x15f90"
      },
      "to": "0x793AE8C1b1a160BFc07BFB0d04F85eab1A71F4f2",
      "value": {
        "_hex": "0x0"
      },
      "nonce": 0,
      "data": "0x3ba15036",
      "r": "0x1419bb30d1ee56a7ce82fdc4b44c5778084c17df5ed0995ab5b499f4e2b9bde6",
      "s": "0x5b53c60ed8c56fb8b642e84c66ffc9897f1bbfa4dc80b98e246e34b61cc93403",
      "v": 27,
      "creates": null,
      "raw": "0xf86980850ba43b740083015f9094793ae8c1b1a160bfc07bfb0d04f85eab1a71f4f280843ba150361ba01419bb30d1ee56a7ce82fdc4b44c5778084c17df5ed0995ab5b499f4e2b9bde6a05b53c60ed8c56fb8b642e84c66ffc9897f1bbfa4dc80b98e246e34b61cc93403",
      "networkId": 0,
      "chainId": 0
    },
    {
      "hash": "0xa5bb6cf0f740bf3f6444cb0cbc0cca6e5402d29c5e2d5129f319903415b0ea81",
      "blockHash": "0x4202a74fce907f97d2071404e670579fd55da1f9443a656155e61e6c9e2fad59",
      "blockNumber": 69030,
      "transactionIndex": 17,
      "confirmations": null,
      "from": "0xb2f3d39d99a4Fd78c0E5B08DDc533fE5Dd927ae4",
      "gasPrice": {
        "_hex": "0xba43b7400"
      },
      "gasLimit": {
        "_hex": "0x15f90"
      },
      "to": "0x793AE8C1b1a160BFc07BFB0d04F85eab1A71F4f2",
      "value": {
        "_hex": "0x0"
      },
      "nonce": 0,
      "data": "0x3ba15036",
      "r": "0x8e87d4b3b4e1c844bedd40879afe87f741e8ddf61af8a83bbc7ccfe630183050",
      "s": "0x38c17864ba3d401b66f3e6b1c858fa9b9d13586bdf2898a454a9b8ada6fe0d5e",
      "v": 28,
      "creates": null,
      "raw": "0xf86980850ba43b740083015f9094793ae8c1b1a160bfc07bfb0d04f85eab1a71f4f280843ba150361ca08e87d4b3b4e1c844bedd40879afe87f741e8ddf61af8a83bbc7ccfe630183050a038c17864ba3d401b66f3e6b1c858fa9b9d13586bdf2898a454a9b8ada6fe0d5e",
      "networkId": 0,
      "chainId": 0
    },
    {
      "hash": "0xac18a5a243c42d32ea7e442bf9070537c29a0665db23c751becb189bd78ba04f",
      "blockHash": "0x4202a74fce907f97d2071404e670579fd55da1f9443a656155e61e6c9e2fad59",
      "blockNumber": 69030,
      "transactionIndex": 18,
      "confirmations": null,
      "from": "0x9ea9889F198FB8bAd2076Edbdc62a4cc1b3d3840",
      "gasPrice": {
        "_hex": "0xba43b7400"
      },
      "gasLimit": {
        "_hex": "0x15f90"
      },
      "to": "0x793AE8C1b1a160BFc07BFB0d04F85eab1A71F4f2",
      "value": {
        "_hex": "0x0"
      },
      "nonce": 0,
      "data": "0x3ba15036",
      "r": "0x8706cbc2f95df089d160fd0c12d8c6e30fd0281eed6486c482f19d5dd7d49169",
      "s": "0x515cc2b3ff7846c24b34be7ed3a05e67df40fe89adb01df393a04e3f7281088f",
      "v": 27,
      "creates": null,
      "raw": "0xf86980850ba43b740083015f9094793ae8c1b1a160bfc07bfb0d04f85eab1a71f4f280843ba150361ba08706cbc2f95df089d160fd0c12d8c6e30fd0281eed6486c482f19d5dd7d49169a0515cc2b3ff7846c24b34be7ed3a05e67df40fe89adb01df393a04e3f7281088f",
      "networkId": 0,
      "chainId": 0
    },
    {
      "hash": "0x6bcfa72f999736892ca63d0cc76a086fb617f53a272da7c38dbb7c10dd324d18",
      "blockHash": "0x4202a74fce907f97d2071404e670579fd55da1f9443a656155e61e6c9e2fad59",
      "blockNumber": 69030,
      "transactionIndex": 19,
      "confirmations": null,
      "from": "0xF43d6DAA616C9336ef60f9175bc4fC7Db3bF088d",
      "gasPrice": {
        "_hex": "0xba43b7400"
      },
      "gasLimit": {
        "_hex": "0x15f90"
      },
      "to": "0x793AE8C1b1a160BFc07BFB0d04F85eab1A71F4f2",
      "value": {
        "_hex": "0x0"
      },
      "nonce": 0,
      "data": "0x3ba15036",
      "r": "0x01d465625191fd1d0e4b49369238e1f113fcf5da5bcfc0b48b2a1794ec6d8cea",
      "s": "0x78ae3fe63fbec3e76ab05d983db0712462717ae18074ec10d2f452211a5a5fea",
      "v": 28,
      "creates": null,
      "raw": "0xf86980850ba43b740083015f9094793ae8c1b1a160bfc07bfb0d04f85eab1a71f4f280843ba150361ca001d465625191fd1d0e4b49369238e1f113fcf5da5bcfc0b48b2a1794ec6d8ceaa078ae3fe63fbec3e76ab05d983db0712462717ae18074ec10d2f452211a5a5fea",
      "networkId": 0,
      "chainId": 0
    },
    {
      "hash": "0xb24781532ea04ff52ef06125168079a98da9e8798bbd2e0e62c6350f7ea2f2cf",
      "blockHash": "0x4202a74fce907f97d2071404e670579fd55da1f9443a656155e61e6c9e2fad59",
      "blockNumber": 69030,
      "transactionIndex": 20,
      "confirmations": null,
      "from": "0xD50c87deD40c8783B9f3F04E5aB8AF7F56350D28",
      "gasPrice": {
        "_hex": "0xba43b7400"
      },
      "gasLimit": {
        "_hex": "0x15f90"
      },
      "to": "0x793AE8C1b1a160BFc07BFB0d04F85eab1A71F4f2",
      "value": {
        "_hex": "0x0"
      },
      "nonce": 0,
      "data": "0x3ba15036",
      "r": "0x8c075026582dace5e7f624cab15e5c8a32f57ca3202cc9548d7cb033b577a350",
      "s": "0x241be52a1dd37867bfd57a37d430b221e5b4c448fb6d92c72bf6d3026434272a",
      "v": 28,
      "creates": null,
      "raw": "0xf86980850ba43b740083015f9094793ae8c1b1a160bfc07bfb0d04f85eab1a71f4f280843ba150361ca08c075026582dace5e7f624cab15e5c8a32f57ca3202cc9548d7cb033b577a350a0241be52a1dd37867bfd57a37d430b221e5b4c448fb6d92c72bf6d3026434272a",
      "networkId": 0,
      "chainId": 0
    },
    {
      "hash": "0x45aafe7da2226291bb09e0bb6617626de29445cfa85f382afeba3ffbdd584942",
      "blockHash": "0x4202a74fce907f97d2071404e670579fd55da1f9443a656155e61e6c9e2fad59",
      "blockNumber": 69030,
      "transactionIndex": 21,
      "confirmations": null,
      "from": "0xFc06CB6964D5a2c4d4025Ea7D7947f5Bd2B5c31d",
      "gasPrice": {
        "_hex": "0xba43b7400"
      },
      "gasLimit": {
        "_hex": "0x15f90"
      },
      "to": "0x793AE8C1b1a160BFc07BFB0d04F85eab1A71F4f2",
      "value": {
        "_hex": "0x0"
      },
      "nonce": 0,
      "data": "0x3ba15036",
      "r": "0x0d0423599d56cb73444191d2ecfede8b0044f9471af7ecb66462781169f66bd8",
      "s": "0x268732ea83c3a386c1774a12f3da419930dffd73c9cfb448eb69b1d9c41f8ec1",
      "v": 27,
      "creates": null,
      "raw": "0xf86980850ba43b740083015f9094793ae8c1b1a160bfc07bfb0d04f85eab1a71f4f280843ba150361ba00d0423599d56cb73444191d2ecfede8b0044f9471af7ecb66462781169f66bd8a0268732ea83c3a386c1774a12f3da419930dffd73c9cfb448eb69b1d9c41f8ec1",
      "networkId": 0,
      "chainId": 0
    },
    {
      "hash": "0xaf99b42d0193763a55e2de2b217752192bedb65dad1a2d4fbfd778d957f17734",
      "blockHash": "0x4202a74fce907f97d2071404e670579fd55da1f9443a656155e61e6c9e2fad59",
      "blockNumber": 69030,
      "transactionIndex": 22,
      "confirmations": null,
      "from": "0x4F220172A819c7f0Ea131d9DD7CD16ad3886FE24",
      "gasPrice": {
        "_hex": "0xba43b7400"
      },
      "gasLimit": {
        "_hex": "0x15f90"
      },
      "to": "0x793AE8C1b1a160BFc07BFB0d04F85eab1A71F4f2",
      "value": {
        "_hex": "0x0"
      },
      "nonce": 0,
      "data": "0x3ba15036",
      "r": "0xe4c1242bff1e45ac83ddc1a04598131824cfb172e762c2bf158b1fd972c5194e",
      "s": "0x6f9fd9a29d9a80e51f6a9a13d98a6fbf80313fd1e2f0b41531eb41aa95e853cf",
      "v": 27,
      "creates": null,
      "raw": "0xf86980850ba43b740083015f9094793ae8c1b1a160bfc07bfb0d04f85eab1a71f4f280843ba150361ba0e4c1242bff1e45ac83ddc1a04598131824cfb172e762c2bf158b1fd972c5194ea06f9fd9a29d9a80e51f6a9a13d98a6fbf80313fd1e2f0b41531eb41aa95e853cf",
      "networkId": 0,
      "chainId": 0
    },
    {
      "hash": "0xf890f882a260d43a17e5bd7cc1c45583a60bee44a6dc3dbb64025b7407d0d589",
      "blockHash": "0x4202a74fce907f97d2071404e670579fd55da1f9443a656155e61e6c9e2fad59",
      "blockNumber": 69030,
      "transactionIndex": 23,
      "confirmations": null,
      "from": "0x1Bfec905351fE8a518Fc1A6f3ccBF830Ed1D3128",
      "gasPrice": {
        "_hex": "0xba43b7400"
      },
      "gasLimit": {
        "_hex": "0x15f90"
      },
      "to": "0x793AE8C1b1a160BFc07BFB0d04F85eab1A71F4f2",
      "value": {
        "_hex": "0x0"
      },
      "nonce": 0,
      "data": "0x3ba15036",
      "r": "0x91afc3d55d18f99c0f2d8509721b6a7e0654e4c7b5f3e37350fe69f983f34aa5",
      "s": "0x096287471cef41294733f3f37f28663a814027398a8488b154f7ff56fcfbfab9",
      "v": 28,
      "creates": null,
      "raw": "0xf86980850ba43b740083015f9094793ae8c1b1a160bfc07bfb0d04f85eab1a71f4f280843ba150361ca091afc3d55d18f99c0f2d8509721b6a7e0654e4c7b5f3e37350fe69f983f34aa5a0096287471cef41294733f3f37f28663a814027398a8488b154f7ff56fcfbfab9",
      "networkId": 0,
      "chainId": 0
    },
    {
      "hash": "0x3cb86515591c3cf2db28ada85b7975f314a5836cbb565e4a8caf8cb9cd4bbbfd",
      "blockHash": "0x4202a74fce907f97d2071404e670579fd55da1f9443a656155e61e6c9e2fad59",
      "blockNumber": 69030,
      "transactionIndex": 24,
      "confirmations": null,
      "from": "0x9Efe7eD2d1C4B7Db092D0FACAA71dF86E1876203",
      "gasPrice": {
        "_hex": "0xba43b7400"
      },
      "gasLimit": {
        "_hex": "0x15f90"
      },
      "to": "0x793AE8C1b1a160BFc07BFB0d04F85eab1A71F4f2",
      "value": {
        "_hex": "0x0"
      },
      "nonce": 0,
      "data": "0x3ba15036",
      "r": "0x9fd40b3527b0ac9e353262ecdf41ab5fcef76b733a951de1f384b70d8084ea99",
      "s": "0x3aec2dcd15418f43682de8e9b78cd861a998d785ddabdce41a47b11cf41253b0",
      "v": 28,
      "creates": null,
      "raw": "0xf86980850ba43b740083015f9094793ae8c1b1a160bfc07bfb0d04f85eab1a71f4f280843ba150361ca09fd40b3527b0ac9e353262ecdf41ab5fcef76b733a951de1f384b70d8084ea99a03aec2dcd15418f43682de8e9b78cd861a998d785ddabdce41a47b11cf41253b0",
      "networkId": 0,
      "chainId": 0
    },
    {
      "hash": "0xbfccab672424de967b49c3df421234e539f5b3f185e93dd208569488ddd45d7f",
      "blockHash": "0x4202a74fce907f97d2071404e670579fd55da1f9443a656155e61e6c9e2fad59",
      "blockNumber": 69030,
      "transactionIndex": 25,
      "confirmations": null,
      "from": "0x53620B11F966B9c1eC93a27DF446D8cC706b50b2",
      "gasPrice": {
        "_hex": "0xba43b7400"
      },
      "gasLimit": {
        "_hex": "0x15f90"
      },
      "to": "0x793AE8C1b1a160BFc07BFB0d04F85eab1A71F4f2",
      "value": {
        "_hex": "0x0"
      },
      "nonce": 0,
      "data": "0x3ba15036",
      "r": "0x5d2c0f54ab28d8b8d8ec73adeb1e568492886aba93ba652b6a50ba9117df0b42",
      "s": "0x0690d6db17f5d0d17a080bfd5dc234780d338c5a6ec72c4eab987c27ef3d3e09",
      "v": 27,
      "creates": null,
      "raw": "0xf86980850ba43b740083015f9094793ae8c1b1a160bfc07bfb0d04f85eab1a71f4f280843ba150361ba05d2c0f54ab28d8b8d8ec73adeb1e568492886aba93ba652b6a50ba9117df0b42a00690d6db17f5d0d17a080bfd5dc234780d338c5a6ec72c4eab987c27ef3d3e09",
      "networkId": 0,
      "chainId": 0
    },
    {
      "hash": "0x8a3452be606cb5d2641eda95173a5938fc01b9f53f6ecd294dc5e85bc224eff0",
      "blockHash": "0x4202a74fce907f97d2071404e670579fd55da1f9443a656155e61e6c9e2fad59",
      "blockNumber": 69030,
      "transactionIndex": 26,
      "confirmations": null,
      "from": "0x82fa714Fe9be2BD095953d4812458a20C71810d0",
      "gasPrice": {
        "_hex": "0xba43b7400"
      },
      "gasLimit": {
        "_hex": "0x15f90"
      },
      "to": "0x793AE8C1b1a160BFc07BFB0d04F85eab1A71F4f2",
      "value": {
        "_hex": "0x0"
      },
      "nonce": 0,
      "data": "0x3ba15036",
      "r": "0x87e4f173414047e5fa3b2bc96100ac74c390b68f6de1540a96fad404494f902c",
      "s": "0x4f21135abe228c5169dc9f74a24a62da95d345cb26a1c59a2bbc97e24e1c0eb3",
      "v": 27,
      "creates": null,
      "raw": "0xf86980850ba43b740083015f9094793ae8c1b1a160bfc07bfb0d04f85eab1a71f4f280843ba150361ba087e4f173414047e5fa3b2bc96100ac74c390b68f6de1540a96fad404494f902ca04f21135abe228c5169dc9f74a24a62da95d345cb26a1c59a2bbc97e24e1c0eb3",
      "networkId": 0,
      "chainId": 0
    }
  ]
}