{
  "hash": "0xc9d1a178a4a8f207aee53896011b8d5fe649a7171ea085888d1eff83eb0a2e3c",
  "parentHash": "0x7be04b93238aa6cea812da4a73312f6d42b379b4a6885bfebac4661bb110e1cd",
  "number": 89183,
  "timestamp": 1439619432,
  "nonce": "0x7117f9e9e2aee909",
  "difficulty": 3282270909346,
  "gasLimit": {
    "_hex": "0x2fefd8"
  },
  "gasUsed": {
    "_hex": "0x5208"
  },
  "miner": "0x0193d941b50d91BE6567c7eE1C0Fe7AF498b4137",
  "extraData": "0x4a5ace9e4e",
  "transactions": [
    {
      "hash": "0xa8d41664737730c5e9cc65fd336d07f4cd03c7dee805103b82d9fb7a3855cd30",
      "blockHash": "0xc9d1a178a4a8f207aee53896011b8d5fe649a7171ea085888d1eff83eb0a2e3c",
      "blockNumber": 89183,
      "transactionIndex": 0,
      "confirmations": null,
      "from": "0x04a2a3ee9C9ea82e1F918ecE209f8A7E6d7521E7",
      "gasPrice": {
        "_hex": "0xcde214b3a"
      },
      "gasLimit": {
        "_hex": "0x5208"
      },
      "to": "0x32Be343B94f860124dC4fEe278FDCBD38C102D88",
      "value": {
        "_hex": "0xd189da7241b7f000"
      },
      "nonce": 7,
      "data": "0x",
      "r": "0xe317829c64d7a99816ffcd7533954a5d187c11e09c48f39912be3f1b3ba8c1c8",
      "s": "0x445240e8af883ff9037256187d89c69645046312531186f5b3c4ec46365d3c4e",
      "v": 27,
      "creates": null,
      "raw": "0xf86c07850cde214b3a8252089432be343b94f860124dc4fee278fdcbd38c102d8888d189da7241b7f000801ba0e317829c64d7a99816ffcd7533954a5d187c11e09c48f39912be3f1b3ba8c1c8a0445240e8af883ff9037256187d89c69645046312531186f5b3c4ec46365d3c4e",
      "networkId": 0,
      "chainId": 0
    }
  ]
}