{
  "hash": "0xc081913a80fdcac95a727c6d73389d8ad17bb254074a6c123b17afdb0100d643",
  "parentHash": "0xcc63edaa390d1717fc29d2777945e246e6eb2303e5bb416fb895c9eab35bac87",
  "number": 89578,
  "timestamp": 1439625610,
  "nonce": "0x00cc89cdcc26e878",
  "difficulty": 3332174738703,
  "gasLimit": {
    "_hex": "0x2fefd8"
  },
  "gasUsed": {
    "_hex": "0x5208"
  },
  "miner": "0xe6A7a1d47ff21B6321162AEA7C6CB457D5476Bca",
  "extraData": "0x476574682f76312e302e312d38326566323666362f6c696e75782f676f312e34",
  "transactions": [
    {
      "hash": "0x613aeac24846f4c33d9992cdacaf90ba7b1b7452185ee2f992feaaf4945f29ad",
      "blockHash": "0xc081913a80fdcac95a727c6d73389d8ad17bb254074a6c123b17afdb0100d643",
      "blockNumber": 89578,
      "transactionIndex": 0,
      "confirmations": null,
      "from": "0x85582FD46E835e2694DE150F6ff48933C2B8a8b8",
      "gasPrice": {
        "_hex": "0xba43b7400"
      },
      "gasLimit": {
        "_hex": "0x5208"
      },
      "to": "0xC47Aaa860008be6f65B58c6C6E02a84e666EfE31",
      "value": {
        "_hex": "0x1b1acf58718a6b91e0"
      },
      "nonce": 0,
      "data": "0x",
      "r": "0x1639325a32d05f24abbea08b5b0920f6414786b07b9c80d98e50512ef280f0e1",
      "s": "0x0167007829ad77ef6badf0c546c761d8fda4c94b8fa6d436cc69b8d2a45ec7f0",
      "v": 28,
      "creates": null,
      "raw": "0xf86d80850ba43b740082520894c47aaa860008be6f65b58c6c6e02a84e666efe31891b1acf58718a6b91e0801ca01639325a32d05f24abbea08b5b0920f6414786b07b9c80d98e50512ef280f0e1a00167007829ad77ef6badf0c546c761d8fda4c94b8fa6d436cc69b8d2a45ec7f0",
      "networkId": 0,
      "chainId": 0
    }
  ]
}