{
  "hash": "0x0107bb32dc3f3ef775f85caaa5c4a62f3792d010388bbdd2db748ce2bf56648f",
  "parentHash": "0x91f8896bbb5934c0c7a2cdc885a5fe66044949dd77fe1252315cba05efa1e0c6",
  "number": 48125,
  "timestamp": 1438951765,
  "nonce": "0xca58a80ff67e111a",
  "difficulty": 1469373640292,
  "gasLimit": {
    "_hex": "0x12c5e"
  },
  "gasUsed": {
    "_hex": "0x546c"
  },
  "miner": "0x70C6b45fe0A5116E97B112B806A76E2F51E24413",
  "extraData": "0x476574682f76312e302e302f77696e646f77732f676f312e342e32",
  "transactions": [
    {
      "hash": "0x67759a5a52715ea79506dc2f687fcf1970efccf8c6bbc9bfbe498e399220e063",
      "blockHash": "0x0107bb32dc3f3ef775f85caaa5c4a62f3792d010388bbdd2db748ce2bf56648f",
      "blockNumber": 48125,
      "transactionIndex": 0,
      "confirmations": null,
      "from": "0x5aC99Ad7816AE9020fF8Adf79fA9869B7Cea6601",
      "gasPrice": {
        "_hex": "0x110c8f7d8de"
      },
      "gasLimit": {
        "_hex": "0xc350"
      },
      "to": "0x2910543Af39abA0Cd09dBb2D50200b3E800A63D2",
      "value": {
        "_hex": "0xa2a15d09519be00000"
      },
      "nonce": 3,
      "data": "0x454e4b594346424447",
      "r": "0xb8793f4dbf190175955be34f40e255ad47ad89893759a2ad4ef9d300a555168b",
      "s": "0xee1cafd91f8582d4d4a5561e6d078f687787e2912ab6e84e73a11838920e586e",
      "v": 28,
      "creates": null,
      "raw": "0xf87703860110c8f7d8de82c350942910543af39aba0cd09dbb2d50200b3e800a63d289a2a15d09519be0000089454e4b5943464244471ca0b8793f4dbf190175955be34f40e255ad47ad89893759a2ad4ef9d300a555168ba0ee1cafd91f8582d4d4a5561e6d078f687787e2912ab6e84e73a11838920e586e",
      "networkId": 0,
      "chainId": 0
    }
  ]
}