{
  "hash": "0xb66b15467c37cf07091f981519fe304281fadd826c14692fb22053cd9883212e",
  "parentHash": "0x5ff7e274ac59480d31f6a46cc3a2f0b16bc6db308c21fb19d4cbd8d8a77d55a4",
  "number": 108799,
  "timestamp": 1439946396,
  "nonce": "0x1b5d40b8515fe641",
  "difficulty": 4359380493876,
  "gasLimit": {
    "_hex": "0x2fefd8"
  },
  "gasUsed": {
    "_hex": "0x5208"
  },
  "miner": "0x900deD2eC098c430caD5347E6F3322932D7BB3a9",
  "extraData": "0x476574682f76312e302e312f77696e646f77732f676f312e342e32",
  "transactions": [
    {
      "hash": "0xf00541c27194a025ab849afa491310080d74e97c4c24ae2631409db9849fcadf",
      "blockHash": "0xb66b15467c37cf07091f981519fe304281fadd826c14692fb22053cd9883212e",
      "blockNumber": 108799,
      "transactionIndex": 0,
      "confirmations": null,
      "from": "0xc07082b0caEF1afaAA062CDae1c592c110B82aa5",
      "gasPrice": {
        "_hex": "0xd079e5c9b"
      },
      "gasLimit": {
        "_hex": "0x5208"
      },
      "to": "0x32Be343B94f860124dC4fEe278FDCBD38C102D88",
      "value": {
        "_hex": "0x120665f60d273400"
      },
      "nonce": 5,
      "data": "0x",
      "r": "0xd9d66593326b8a701c2c942697c486fccd7451c7df50d5d66484f4d748097f96",
      "s": "0x5466182e3050202dd7f9d149f17c6bcb84fee7e6c14b2894dd71a279c8398397",
      "v": 27,
      "creates": null,
      "raw": "0xf86c05850d079e5c9b8252089432be343b94f860124dc4fee278fdcbd38c102d8888120665f60d273400801ba0d9d66593326b8a701c2c942697c486fccd7451c7df50d5d66484f4d748097f96a05466182e3050202dd7f9d149f17c6bcb84fee7e6c14b2894dd71a279c8398397",
      "networkId": 0,
      "chainId": 0
    }
  ]
}