{
  "hash": "0x5964b12add754dc71559ce067a75b6adea65ca7b4ba8b00386d3ad87a17ccca4",
  "parentHash": "0x1744532642e249825768fd53af871c919fd5dac9ffdb4a13592447a8e8d8c9b4",
  "number": 121640,
  "timestamp": 1440180176,
  "nonce": "0x71c76a9d630704ab",
  "difficulty": 4471190315131,
  "gasLimit": {
    "_hex": "0x2fefd8"
  },
  "gasUsed": {
    "_hex": "0x5208"
  },
  "miner": "0x52bc44d5378309EE2abF1539BF71dE1b7d7bE3b5",
  "extraData": "0xd783010002844765746887676f312e342e32856c696e7578",
  "transactions": [
    {
      "hash": "0xf79870362bcc033299807120bdf9c8b4e9c85863530a0eb597931399d91689e4",
      "blockHash": "0x5964b12add754dc71559ce067a75b6adea65ca7b4ba8b00386d3ad87a17ccca4",
      "blockNumber": 121640,
      "transactionIndex": 0,
      "confirmations": null,
      "from": "0x608f4b86321a68453f9adf6F06F7Fc3E621739ad",
      "gasPrice": {
        "_hex": "0xba43b7400"
      },
      "gasLimit": {
        "_hex": "0x5208"
      },
      "to": "0x32Be343B94f860124dC4fEe278FDCBD38C102D88",
      "value": {
        "_hex": "0x455fd68a17f06000"
      },
      "nonce": 108,
      "data": "0x",
      "r": "0xa698badad4ff6b0b77cc2eca12845101354bd223dde903a92b4d5e2415f0c24f",
      "s": "0x1e781c32cf626bfedb1d085a5dc18113326247347848f95313a6c76849ce2a37",
      "v": 28,
      "creates": null,
      "raw": "0xf86c6c850ba43b74008252089432be343b94f860124dc4fee278fdcbd38c102d8888455fd68a17f06000801ca0a698badad4ff6b0b77cc2eca12845101354bd223dde903a92b4d5e2415f0c24fa01e781c32cf626bfedb1d085a5dc18113326247347848f95313a6c76849ce2a37",
      "networkId": 0,
      "chainId": 0
    }
  ]
}