{
  "hash": "0x4cdf376b2ebbbd24fe4f8c269d9e820abcfa22ece25bc091b82c8513232da06a",
  "parentHash": "0xf14879eb9a3fa83b870404f222c0d1c3de2f889865ffb21768e139801419dfda",
  "number": 119286,
  "timestamp": 1440140064,
  "nonce": "0xf9a89af1c77e6a76",
  "difficulty": 4424658468692,
  "gasLimit": {
    "_hex": "0x2fefd8"
  },
  "gasUsed": {
    "_hex": "0x5208"
  },
  "miner": "0x608f4b86321a68453f9adf6F06F7Fc3E621739ad",
  "extraData": "0xd783010002844765746887676f312e342e32856c696e7578",
  "transactions": [
    {
      "hash": "0xc3c20d05a25f1e5dfcca139afde6e10534d0e5f4dd040fa6b681a0baa50ae7f6",
      "blockHash": "0x4cdf376b2ebbbd24fe4f8c269d9e820abcfa22ece25bc091b82c8513232da06a",
      "blockNumber": 119286,
      "transactionIndex": 0,
      "confirmations": null,
      "from": "0x007f7f58D3eb5b7510A301eCC749FC1fCDDBE14D",
      "gasPrice": {
        "_hex": "0xba43b7400"
      },
      "gasLimit": {
        "_hex": "0x15f90"
      },
      "to": "0xb1abce2918E21ddb93AA452731a12672A3d9F75a",
      "value": {
        "_hex": "0x4563918244f40000"
      },
      "nonce": 357,
      "data": "0x",
      "r": "0xdf19e4f6c29721d51cb6d975c36b2b127fb7233a061318a563bd3d8a44198627",
      "s": "0x2b5a313d80f8352c7b34d16a6a78a24f2fa4ea51efc50ff7471056011697e3fb",
      "v": 28,
      "creates": null,
      "raw": "0xf86f820165850ba43b740083015f9094b1abce2918e21ddb93aa452731a12672a3d9f75a884563918244f40000801ca0df19e4f6c29721d51cb6d975c36b2b127fb7233a061318a563bd3d8a44198627a02b5a313d80f8352c7b34d16a6a78a24f2fa4ea51efc50ff7471056011697e3fb",
      "networkId": 0,
      "chainId": 0
    }
  ]
}