{
  "hash": "0x00b4b4b551260a20e4bbad56ff42f2f20f9efcc5251d58f874178d8037b4189e",
  "parentHash": "0x40e175775136d0dab502b08ed13cba0c75485bf8caff64be7ac4ab00ac4b9936",
  "number": 54073,
  "timestamp": 1439048246,
  "nonce": "0xe1aa5d38bddfc057",
  "difficulty": 1601661018577,
  "gasLimit": {
    "_hex": "0x2fefd8"
  },
  "gasUsed": {
    "_hex": "0x546c"
  },
  "miner": "0xEF247E639d49461D25F57e9362CadE3120910Ce0",
  "extraData": "0x476574682f76312e302e312f6c696e75782f676f312e342e32",
  "transactions": [
    {
      "hash": "0x8c8a13e0da75c7eeee49f391d6eb7318cb6bca34fd9b888d01c3298f1f1bc7bf",
      "blockHash": "0x00b4b4b551260a20e4bbad56ff42f2f20f9efcc5251d58f874178d8037b4189e",
      "blockNumber": 54073,
      "transactionIndex": 0,
      "confirmations": null,
      "from": "0x20b2a17fFa355d7Bcb269812A39e8F57D750A5b3",
      "gasPrice": {
        "_hex": "0xa7a358200"
      },
      "gasLimit": {
        "_hex": "0xf618"
      },
      "to": "0x2910543Af39abA0Cd09dBb2D50200b3E800A63D2",
      "value": {
        "_hex": "0x2b5e3af16b18800000"
      },
      "nonce": 3,
      "data": "0x454e56554d55584738",
      "r": "0x21acd8b92c21828b046402c83fb454fe303f4c4ee621b7cccad84a6afd8a8a42",
      "s": "0x43fd2f13f111134cfa15aac8ccab4996ee74d38fe1ddc277f4cbd5e513117ffd",
      "v": 28,
      "creates": null,
      "raw": "0xf87603850a7a35820082f618942910543af39aba0cd09dbb2d50200b3e800a63d2892b5e3af16b1880000089454e56554d555847381ca021acd8b92c21828b046402c83fb454fe303f4c4ee621b7cccad84a6afd8a8a42a043fd2f13f111134cfa15aac8ccab4996ee74d38fe1ddc277f4cbd5e513117ffd",
      "networkId": 0,
      "chainId": 0
    }
  ]
}