{
  "hash": "0xb3ebe2aeeab2e9e23a1c407361d95011cac66e5cddb49913cb82da869fdd0707",
  "parentHash": "0xc7c711fc35b22879bff0108d464e65dc943adfa1fc62f4e5198137bb3845b631",
  "number": 67377,
  "timestamp": 1439271019,
  "nonce": "0x5e223dccea50cec0",
  "difficulty": 1921390285997,
  "gasLimit": {
    "_hex": "0x2fefd8"
  },
  "gasUsed": {
    "_hex": "0x5208"
  },
  "miner": "0xbb7B8287f3F0a933474a79eAe42CBCa977791171",
  "extraData": "0x476574682f4c5649562f76312e302e312f6c696e75782f676f312e342e32",
  "transactions": [
    {
      "hash": "0xea86e604784eeca2bcd27bb0d47fe308d82f3c4a2cbf3f8226f5c942d9f30aeb",
      "blockHash": "0xb3ebe2aeeab2e9e23a1c407361d95011cac66e5cddb49913cb82da869fdd0707",
      "blockNumber": 67377,
      "transactionIndex": 0,
      "confirmations": null,
      "from": "0xC5D780c85389F9f57157E12f924C649A33aF46dd",
      "gasPrice": {
        "_hex": "0x10c70c9edca"
      },
      "gasLimit": {
        "_hex": "0x55f0"
      },
      "to": "0xAD063CE182014Fa78C3932981fE402a6Af48235B",
      "value": {
        "_hex": "0x4255f8acaa5e0000"
      },
      "nonce": 0,
      "data": "0x",
      "r": "0x3cf945b1519ae3571b94d5253c3aa8f6b9397abc71b4146199bd5c31a92807db",
      "s": "0x137f21a1a3283825b5b5f617f91f9bcc438a23fc1dd2522540fb4837dc3c1318",
      "v": 28,
      "creates": null,
      "raw": "0xf86d8086010c70c9edca8255f094ad063ce182014fa78c3932981fe402a6af48235b884255f8acaa5e0000801ca03cf945b1519ae3571b94d5253c3aa8f6b9397abc71b4146199bd5c31a92807dba0137f21a1a3283825b5b5f617f91f9bcc438a23fc1dd2522540fb4837dc3c1318",
      "networkId": 0,
      "chainId": 0
    }
  ]
}