{
  "hash": "0xb558291f9dee544b434bdc2e2a36ef8ff214805db9e8172dece2714a89ab4c4b",
  "parentHash": "0x36e3c8419a100a27fae1793694f820250223759a7b428c1fcee4834a6e4f2255",
  "number": 57171,
  "timestamp": 1439098687,
  "nonce": "0x3ff327c896b8e173",
  "difficulty": 1729479265403,
  "gasLimit": {
    "_hex": "0x2fefd8"
  },
  "gasUsed": {
    "_hex": "0xa410"
  },
  "miner": "0x1D889aFF5D57138c9819412d63b5d877567B5936",
  "extraData": "0x476574682f76312e302e312f77696e646f77732f676f312e342e32",
  "transactions": [
    {
      "hash": "0xf6b36bc2e64272a9ad9da66e5c341d5ad80fef435afc5b661eb60501970eea92",
      "blockHash": "0xb558291f9dee544b434bdc2e2a36ef8ff214805db9e8172dece2714a89ab4c4b",
      "blockNumber": 57171,
      "transactionIndex": 0,
      "confirmations": null,
      "from": "0xBFdD9820a04283b289957956353b5F3C1F665EcF",
      "gasPrice": {
        "_hex": "0xcb87b821a"
      },
      "gasLimit": {
        "_hex": "0x5208"
      },
      "to": "0x32Be343B94f860124dC4fEe278FDCBD38C102D88",
      "value": {
        "_hex": "0x2707c0a16d77ce000"
      },
      "nonce": 5,
      "data": "0x",
      "r": "0xf2c55ef7c0cfcb1b3c8418ff12aa690a33e1c30c346399fcfe24baf8eafc2d15",
      "s": "0x4e1cd93371921dd07883fdf109fcd7f9e2b5ac3032299820a50289a64e06d63d",
      "v": 27,
      "creates": null,
      "raw": "0xf86d05850cb87b821a8252089432be343b94f860124dc4fee278fdcbd38c102d888902707c0a16d77ce000801ba0f2c55ef7c0cfcb1b3c8418ff12aa690a33e1c30c346399fcfe24baf8eafc2d15a04e1cd93371921dd07883fdf109fcd7f9e2b5ac3032299820a50289a64e06d63d",
      "networkId": 0,
      "chainId": 0
    },
    {
      "hash": "0xd4fd81aabec8cac6a17821c47e6b51a4f85ad125ca78f0ff507f5c07d0a43d71",
      "blockHash": "0xb558291f9dee544b434bdc2e2a36ef8ff214805db9e8172dece2714a89ab4c4b",
      "blockNumber": 57171,
      "transactionIndex": 1,
      "confirmations": null,
      "from": "0x30beD8049947963394D93412326225E4e3123601",
      "gasPrice": {
        "_hex": "0xcb87b821a"
      },
      "gasLimit": {
        "_hex": "0x5208"
      },
      "to": "0x32Be343B94f860124dC4fEe278FDCBD38C102D88",
      "value": {
        "_hex": "0x330de9031058ec00"
      },
      "nonce": 1,
      "data": "0x",
      "r": "0xb655276fa2dce6e8cbc20358cfa5e5e5732b0bcc956dc5ef1ba3872d99911745",
      "s": "0x2d6d6f15b31926dff5bc089e7b27eb692a5262be28363f384b2e04ee51051f5b",
      "v": 28,
      "creates": null,
      "raw": "0xf86c01850cb87b821a8252089432be343b94f860124dc4fee278fdcbd38c102d8888330de9031058ec00801ca0b655276fa2dce6e8cbc20358cfa5e5e5732b0bcc956dc5ef1ba3872d99911745a02d6d6f15b31926dff5bc089e7b27eb692a5262be28363f384b2e04ee51051f5b",
      "networkId": 0,
      "chainId": 0
    }
  ]
}