{
  "hash": "0x268d14775e32ef7f74f3683684e5ac21e8dd2026739b1d3ea3b4c838e9879dc8",
  "parentHash": "0x1cf4791d4c07a329b9489210dd3e7b825a920a80c76574b0133990a04e5cfec5",
  "number": 51450,
  "timestamp": 1439005087,
  "nonce": "0x756705987611737b",
  "difficulty": 1565812240392,
  "gasLimit": {
    "_hex": "0xb2814"
  },
  "gasUsed": {
    "_hex": "0x5208"
  },
  "miner": "0x4278273854a158e72fcf5E752fD5fDA7238eBea8",
  "extraData": "0x476574682f76312e302e302f6c696e75782f676f312e342e32",
  "transactions": [
    {
      "hash": "0x368297418ac57bcea688314fd9da9c3b46ce9d605562dbc450c8a1d763d5fbda",
      "blockHash": "0x268d14775e32ef7f74f3683684e5ac21e8dd2026739b1d3ea3b4c838e9879dc8",
      "blockNumber": 51450,
      "transactionIndex": 0,
      "confirmations": null,
      "from": "0xD2f56EeB7111655F1709413CE0f7D2c60F7b1846",
      "gasPrice": {
        "_hex": "0xde86a6371"
      },
      "gasLimit": {
        "_hex": "0x15f90"
      },
      "to": "0xdFE54dA6a71D719BEA537bDf7d453dB98eD4A35c",
      "value": {
        "_hex": "0x8ac7230489e80000"
      },
      "nonce": 3,
      "data": "0x",
      "r": "0xadc51f73256108602c7af0a1efa53f9cfda356d4d5c4cfb059a3130dc53139ac",
      "s": "0x75876ee93deab991de932865c009493eec28e2e0919f304242ee49d92608d256",
      "v": 28,
      "creates": null,
      "raw": "0xf86d03850de86a637183015f9094dfe54da6a71d719bea537bdf7d453db98ed4a35c888ac7230489e80000801ca0adc51f73256108602c7af0a1efa53f9cfda356d4d5c4cfb059a3130dc53139aca075876ee93deab991de932865c009493eec28e2e0919f304242ee49d92608d256",
      "networkId": 0,
      "chainId": 0
    }
  ]
}