{
  "hash": "0x82a00a1b80dd07f363f0271c5e5cbf08a14958d09e40aff6d8b741d53bbbe3f2",
  "parentHash": "0xff8b4669de58ae1861a0b936903682861587c0170ba1ba6d28f161608dab2b5f",
  "number": 110375,
  "timestamp": 1439972711,
  "nonce": "0x42ed1f797734d093",
  "difficulty": 4362820044262,
  "gasLimit": {
    "_hex": "0x2fefd8"
  },
  "gasUsed": {
    "_hex": "0x5208"
  },
  "miner": "0x5F8F73E26CdF436f19Cb24C82F90A15AFe55b592",
  "extraData": "0x476574682f76312e302e312f77696e646f77732f676f312e342e32",
  "transactions": [
    {
      "hash": "0x7f90499d2cc32181f6d5898ef946129ec060662138b5991bc8bd6922fed7303d",
      "blockHash": "0x82a00a1b80dd07f363f0271c5e5cbf08a14958d09e40aff6d8b741d53bbbe3f2",
      "blockNumber": 110375,
      "transactionIndex": 0,
      "confirmations": null,
      "from": "0x6De181Fc4C140FA31F196e5393516c49EEeBdAd3",
      "gasPrice": {
        "_hex": "0xd7c0e6f8d"
      },
      "gasLimit": {
        "_hex": "0x5208"
      },
      "to": "0x32Be343B94f860124dC4fEe278FDCBD38C102D88",
      "value": {
        "_hex": "0x2cab06efc8f808000"
      },
      "nonce": 23,
      "data": "0x",
      "r": "0xf75d530e6f93936a5233bcb3509420b4bc68c5e313de8396ee7da2fded470620",
      "s": "0x5f14ffce09b819756955dd60b907e5bbdbf1e16a1eab24aea28b82c33ae79124",
      "v": 27,
      "creates": null,
      "raw": "0xf86d17850d7c0e6f8d8252089432be343b94f860124dc4fee278fdcbd38c102d888902cab06efc8f808000801ba0f75d530e6f93936a5233bcb3509420b4bc68c5e313de8396ee7da2fded470620a05f14ffce09b819756955dd60b907e5bbdbf1e16a1eab24aea28b82c33ae79124",
      "networkId": 0,
      "chainId": 0
    }
  ]
}