{
  "hash": "0xe6ce336d37e2f71bf73e800142f499b529f2380af67b704e086b2f2b48d7a933",
  "parentHash": "0x65a74cbbfd1072f96f11079b754a11b85353ba6fdf7cff9bcf129527668bed9a",
  "number": 63854,
  "timestamp": 1439211355,
  "nonce": "0xd7767219db96006e",
  "difficulty": 1851268993643,
  "gasLimit": {
    "_hex": "0x2fefd8"
  },
  "gasUsed": {
    "_hex": "0x546c"
  },
  "miner": "0xbb7B8287f3F0a933474a79eAe42CBCa977791171",
  "extraData": "0x476574682f4c5649562f76312e302e312f6c696e75782f676f312e342e32",
  "transactions": [
    {
      "hash": "0xfbe8fe4d050e80b3c72b2e110584d188d724ac11d7bd4378c2b0d4daa911e527",
      "blockHash": "0xe6ce336d37e2f71bf73e800142f499b529f2380af67b704e086b2f2b48d7a933",
      "blockNumber": 63854,
      "transactionIndex": 0,
      "confirmations": null,
      "from": "0x1a2434cc774422d48D53D59C5d562cce8407c94b",
      "gasPrice": {
        "_hex": "0x110c8f7d8de"
      },
      "gasLimit": {
        "_hex": "0xc350"
      },
      "to": "0x2910543Af39abA0Cd09dBb2D50200b3E800A63D2",
      "value": {
        "_hex": "0x199650db3ca060000"
      },
      "nonce": 0,
      "data": "0x454e31423443414152",
      "r": "0x2072dd7e74bef821c83dfa4b07938ccb5cf18cadc2e32c3e56cbb37a9c49742d",
      "s": "0x5392b521c9bf429ecf7b2e99fe5ead08c489f3de7266048d809f0d4259f3887f",
      "v": 28,
      "creates": null,
      "raw": "0xf87780860110c8f7d8de82c350942910543af39aba0cd09dbb2d50200b3e800a63d2890199650db3ca06000089454e314234434141521ca02072dd7e74bef821c83dfa4b07938ccb5cf18cadc2e32c3e56cbb37a9c49742da05392b521c9bf429ecf7b2e99fe5ead08c489f3de7266048d809f0d4259f3887f",
      "networkId": 0,
      "chainId": 0
    }
  ]
}