{
  "hash": "0x55111e8fef38c5d877c72bad5a29549347c52344a7d40bbe68c6dc6af5023a69",
  "parentHash": "0xecafbf687adbe5759d92269dbf23370bc79706d236a9e7d2e0e397951b661a80",
  "number": 47221,
  "timestamp": 1438936343,
  "nonce": "0xbf4c17acfbafae17",
  "difficulty": 1460946633460,
  "gasLimit": {
    "_hex": "0xa4dd"
  },
  "gasUsed": {
    "_hex": "0x5208"
  },
  "miner": "0x72e3Ea8234b449531A581F05f1c1E07cceb559d2",
  "extraData": "0x476574682f76312e302e312f6c696e75782f676f312e342e32",
  "transactions": [
    {
      "hash": "0x0448ca2b015e9f4a16527404b5c54993a68fdbad336a53874ec61dc2c3ef07fe",
      "blockHash": "0x55111e8fef38c5d877c72bad5a29549347c52344a7d40bbe68c6dc6af5023a69",
      "blockNumber": 47221,
      "transactionIndex": 0,
      "confirmations": null,
      "from": "0xdCd8Aa0E6fD68B057C5AC5e362619808A175CE87",
      "gasPrice": {
        "_hex": "0xdf8475800"
      },
      "gasLimit": {
        "_hex": "0x5208"
      },
      "to": "0x1A6e2D880420fd418522F080D5E31feE4A74a55E",
      "value": {
        "_hex": "0xde0b6b3a7640000"
      },
      "nonce": 1,
      "data": "0x",
      "r": "0x007ba6cb4461e82a7ba0aa7f40bb7b951c54276eeb2e9acec7d5c914c5f22e80",
      "s": "0x21d619974003b5f467480b9ab88544a8c83cc521c46af3665eea11ecda62d19f",
      "v": 27,
      "creates": null,
      "raw": "0xf86b01850df8475800825208941a6e2d880420fd418522f080d5e31fee4a74a55e880de0b6b3a7640000801b9f7ba6cb4461e82a7ba0aa7f40bb7b951c54276eeb2e9acec7d5c914c5f22e80a021d619974003b5f467480b9ab88544a8c83cc521c46af3665eea11ecda62d19f",
      "networkId": 0,
      "chainId": 0
    }
  ]
}