{
  "hash": "0x013946b66570145b4b1394a130231d70c9eaf411aae0947fad155f78a7a173f7",
  "parentHash": "0x76aa37aa683c54cbbc8f29ecb5fb12be09c781592c760ed500f934185936bf69",
  "number": 119441,
  "timestamp": 1440143105,
  "nonce": "0x1ea44b2e0d0b4ddc",
  "difficulty": 4379439327433,
  "gasLimit": {
    "_hex": "0x2fefd8"
  },
  "gasUsed": {
    "_hex": "0xa410"
  },
  "miner": "0x52bc44d5378309EE2abF1539BF71dE1b7d7bE3b5",
  "extraData": "0xd783010002844765746887676f312e342e32856c696e7578",
  "transactions": [
    {
      "hash": "0xff582f47f26be8d2469a34c1410c24b776b0f01bac78aae0f239071916027c1f",
      "blockHash": "0x013946b66570145b4b1394a130231d70c9eaf411aae0947fad155f78a7a173f7",
      "blockNumber": 119441,
      "transactionIndex": 0,
      "confirmations": null,
      "from": "0x351Fb77bc847F9b5bb8A8F242AB723C5B7d775b8",
      "gasPrice": {
        "_hex": "0xba43b7400"
      },
      "gasLimit": {
        "_hex": "0x5208"
      },
      "to": "0x32Be343B94f860124dC4fEe278FDCBD38C102D88",
      "value": {
        "_hex": "0x2618aad3e8a0f000"
      },
      "nonce": 2,
      "data": "0x",
      "r": "0x9b0c3295218ba7886d481119e88ec93ccdf2db230f09235d0eb3a95b3f694a07",
      "s": "0x04926be3ddd02fd665d6d6dcfa0adb99f16645d0cb048d3a1f4d3a6b9f847458",
      "v": 28,
      "creates": null,
      "raw": "0xf86c02850ba43b74008252089432be343b94f860124dc4fee278fdcbd38c102d88882618aad3e8a0f000801ca09b0c3295218ba7886d481119e88ec93ccdf2db230f09235d0eb3a95b3f694a07a004926be3ddd02fd665d6d6dcfa0adb99f16645d0cb048d3a1f4d3a6b9f847458",
      "networkId": 0,
      "chainId": 0
    },
    {
      "hash": "0x9bcc3c868aac271eb47a53eaaf8cea692e74fc054cda3dfb722e21f97bd89906",
      "blockHash": "0x013946b66570145b4b1394a130231d70c9eaf411aae0947fad155f78a7a173f7",
      "blockNumber": 119441,
      "transactionIndex": 1,
      "confirmations": null,
      "from": "0x78FF59159FAfb4a337fd158FcF8D9603a7c6f03a",
      "gasPrice": {
        "_hex": "0xba43b7400"
      },
      "gasLimit": {
        "_hex": "0x5208"
      },
      "to": "0x32Be343B94f860124dC4fEe278FDCBD38C102D88",
      "value": {
        "_hex": "0x813c931a25537000"
      },
      "nonce": 6,
      "data": "0x",
      "r": "0xc64e4b9df433cc4b142a3c10e8d068929636fe210ddae0ca42c10b6b17d67ae6",
      "s": "0x7543d6a7d7752b0a7cf2c32472a5c11f64d1a3f0c798cc4f0b71756704fc515c",
      "v": 27,
      "creates": null,
      "raw": "0xf86c06850ba43b74008252089432be343b94f860124dc4fee278fdcbd38c102d8888813c931a25537000801ba0c64e4b9df433cc4b142a3c10e8d068929636fe210ddae0ca42c10b6b17d67ae6a07543d6a7d7752b0a7cf2c32472a5c11f64d1a3f0c798cc4f0b71756704fc515c",
      "networkId": 0,
      "chainId": 0
    }
  ]
}