{
  "hash": "0x82b3cca7ee632b46229422d71128e7b888ff5475dacae1c9da4700a91b8ce0ec",
  "parentHash": "0xd86502cc00fb15e35f6082fa798a63a97b4340fd9f1efe2c57d361ea373fe010",
  "number": 90981,
  "timestamp": 1439648384,
  "nonce": "0xbe94342839f0aabb",
  "difficulty": 3425645593206,
  "gasLimit": {
    "_hex": "0x2fefd8"
  },
  "gasUsed": {
    "_hex": "0x5208"
  },
  "miner": "0x33F36DffD23cf019833E1d59cBc7138824b12289",
  "extraData": "0xda8098302e392e34312b2b302d524c696e75782f672b2b2f696e74",
  "transactions": [
    {
      "hash": "0x9036ee129783793632e9c593441d9e965e33e18f628e0dcc09b92df0e94237ff",
      "blockHash": "0x82b3cca7ee632b46229422d71128e7b888ff5475dacae1c9da4700a91b8ce0ec",
      "blockNumber": 90981,
      "transactionIndex": 0,
      "confirmations": null,
      "from": "0x5e0320BB4D82AB8Bb5d7291f2C67D1c99aBb3C05",
      "gasPrice": {
        "_hex": "0xd2c5a8782"
      },
      "gasLimit": {
        "_hex": "0x15f90"
      },
      "to": "0xBc08f8b7ae18B0c885e04A1a5F3255488DD992d5",
      "value": {
        "_hex": "0x2386f26fc10000"
      },
      "nonce": 12,
      "data": "0x",
      "r": "0x874b48b6fc09d8fc96213304850d0e28ec47b80428cc9c4f9fb06c741e206f1b",
      "s": "0x66fa648fb43150d81a52015424177218006280ec743d7751e6c9ff2b378c82de",
      "v": 28,
      "creates": null,
      "raw": "0xf86c0c850d2c5a878283015f9094bc08f8b7ae18b0c885e04a1a5f3255488dd992d5872386f26fc10000801ca0874b48b6fc09d8fc96213304850d0e28ec47b80428cc9c4f9fb06c741e206f1ba066fa648fb43150d81a52015424177218006280ec743d7751e6c9ff2b378c82de",
      "networkId": 0,
      "chainId": 0
    }
  ]
}