{
  "hash": "0x1e3bdb938b15019f203b2b17f00d2c19e0a8596ccb377825201827bdedd94b8c",
  "parentHash": "0x4f8e5dd22c859c5541a954d55375cd0283141df8b07aea542eb95845088d2e26",
  "number": 101765,
  "timestamp": 1439827711,
  "nonce": "0xdc05077a8b9589ea",
  "difficulty": 3888152436751,
  "gasLimit": {
    "_hex": "0x2fefd8"
  },
  "gasUsed": {
    "_hex": "0x1bdbe"
  },
  "miner": "0x790b8a3cE86E707ED0eD32bF89B3269692a23CC1",
  "extraData": "0xd783010001844765746887676f312e342e32856c696e7578",
  "transactions": [
    {
      "hash": "0x1677a84ee6516c23fa27836c64b86de62df8a82cf0f010f16095e3f09a03aa54",
      "blockHash": "0x1e3bdb938b15019f203b2b17f00d2c19e0a8596ccb377825201827bdedd94b8c",
      "blockNumber": 101765,
      "transactionIndex": 0,
      "confirmations": null,
      "from": "0x7BBab06B74112eA1c7550FA97c6efAdA136eC531",
      "gasPrice": {
        "_hex": "0x1066e9dc2f2"
      },
      "gasLimit": {
        "_hex": "0x249f0"
      },
      "to": "0xE28e72FCf78647ADCe1F1252F240bbfaebD63BcC",
      "value": {
        "_hex": "0x70c1cc73b00c80000"
      },
      "nonce": 0,
      "data": "0x45466f3a",
      "r": "0x8f0297d489d568248ba26c261e60164030b65a2a84e578ae83059a2cf6c4ae00",
      "s": "0x6fcdd4704fd4bf4f64628726205f2d54278dd7479d9cc30877780c5ce444a726",
      "v": 28,
      "creates": null,
      "raw": "0xf873808601066e9dc2f2830249f094e28e72fcf78647adce1f1252f240bbfaebd63bcc89070c1cc73b00c800008445466f3a1ca08f0297d489d568248ba26c261e60164030b65a2a84e578ae83059a2cf6c4ae00a06fcdd4704fd4bf4f64628726205f2d54278dd7479d9cc30877780c5ce444a726",
      "networkId": 0,
      "chainId": 0
    }
  ]
}