{
  "hash": "0x639ef1c9f847eea2531ccea7df5c87b47f449d2bfcfd7b3cc539f4da9f1fe9f6",
  "parentHash": "0xde219c9a70937fac779345db519ec8a87dbbffb9f659688a271a5dd3f2544519",
  "number": 74754,
  "timestamp": 1439391676,
  "nonce": "0x1549a3cdfba7a63a",
  "difficulty": 2199874039111,
  "gasLimit": {
    "_hex": "0x2fefd8"
  },
  "gasUsed": {
    "_hex": "0x5208"
  },
  "miner": "0x47ff6576639c2e94762eA5443978D7681C0E78DC",
  "extraData": "0x476574682f76312e302e312f6c696e75782f676f312e342e32",
  "transactions": [
    {
      "hash": "0x6322c128960923a45ca27be00ef621bbb50a84e6a7f257661cb3145b1ac12885",
      "blockHash": "0x639ef1c9f847eea2531ccea7df5c87b47f449d2bfcfd7b3cc539f4da9f1fe9f6",
      "blockNumber": 74754,
      "transactionIndex": 0,
      "confirmations": null,
      "from": "0x3810f2978dbC4f892c9a600624B0467Bb3058b25",
      "gasPrice": {
        "_hex": "0xd7b0e219f"
      },
      "gasLimit": {
        "_hex": "0x15f90"
      },
      "to": "0x3fe698DDd00ce16bFb0F2B875D29Cf6B91eB677d",
      "value": {
        "_hex": "0xdbd2fc137a30000"
      },
      "nonce": 1,
      "data": "0x",
      "r": "0x9ee85c99be9b390602b34b1738bc3a4a9e2a55ebb0c619edf068726830381b15",
      "s": "0x527508cc40f9f5ab69fc30dd659ee73287f0b7afebc1db625aa9ca33805dac64",
      "v": 27,
      "creates": null,
      "raw": "0xf86d01850d7b0e219f83015f90943fe698ddd00ce16bfb0f2b875d29cf6b91eb677d880dbd2fc137a30000801ba09ee85c99be9b390602b34b1738bc3a4a9e2a55ebb0c619edf068726830381b15a0527508cc40f9f5ab69fc30dd659ee73287f0b7afebc1db625aa9ca33805dac64",
      "networkId": 0,
      "chainId": 0
    }
  ]
}