{
  "hash": "0x5246ee4b549ec1aec0c4807830761a4e3c8528a284dad3504586af503fb6b05f",
  "parentHash": "0xcc954d215d11f88fd17e216d3749d79ca75c6f72fe4c1781a2735b136e28d498",
  "number": 81273,
  "timestamp": 1439498989,
  "nonce": "0x85d87c0962c0af36",
  "difficulty": 2448640917476,
  "gasLimit": {
    "_hex": "0x2fefd8"
  },
  "gasUsed": {
    "_hex": "0x546c"
  },
  "miner": "0x5F8F73E26CdF436f19Cb24C82F90A15AFe55b592",
  "extraData": "0x476574682f76312e302e312f77696e646f77732f676f312e342e32",
  "transactions": [
    {
      "hash": "0xf835e02d336ad5a9684e522ff392bec9d42a1d6e3d346e68a5915c7651565379",
      "blockHash": "0x5246ee4b549ec1aec0c4807830761a4e3c8528a284dad3504586af503fb6b05f",
      "blockNumber": 81273,
      "transactionIndex": 0,
      "confirmations": null,
      "from": "0x34ff26eb60A8D1a95a489FaE136eE91D4e58084c",
      "gasPrice": {
        "_hex": "0x110c8f7d8de"
      },
      "gasLimit": {
        "_hex": "0xc350"
      },
      "to": "0x2910543Af39abA0Cd09dBb2D50200b3E800A63D2",
      "value": {
        "_hex": "0x1f6fbaa98ee1060000"
      },
      "nonce": 1,
      "data": "0x454e5143464e5a3130",
      "r": "0x8f500f78935bb791639d8bba791dfc71afe9444d1bb47e6683ff5686f74018f2",
      "s": "0x399be533239882354c023e5d076d39857b1d27320e4e022c4e8a915fbda6553c",
      "v": 27,
      "creates": null,
      "raw": "0xf87701860110c8f7d8de82c350942910543af39aba0cd09dbb2d50200b3e800a63d2891f6fbaa98ee106000089454e5143464e5a31301ba08f500f78935bb791639d8bba791dfc71afe9444d1bb47e6683ff5686f74018f2a0399be533239882354c023e5d076d39857b1d27320e4e022c4e8a915fbda6553c",
      "networkId": 0,
      "chainId": 0
    }
  ]
}