{
  "hash": "0x7d31e4697ae66db5b0889de8dfd8515016703bbc1d140f7e8e7c951b2cd7f0fc",
  "parentHash": "0x863c4859dd75c43e9e131d85e7062ebc761065adb7601f5c62efe5640ff353c3",
  "number": 90953,
  "timestamp": 1439647936,
  "nonce": "0xc3380933570b9727",
  "difficulty": 3422313292042,
  "gasLimit": {
    "_hex": "0x2fefd8"
  },
  "gasUsed": {
    "_hex": "0x5208"
  },
  "miner": "0xeB1325C8D9d3ea8D74aC11F4B00F1B2367686319",
  "extraData": "0x476574682f76312e302e312f77696e646f77732f676f312e342e32",
  "transactions": [
    {
      "hash": "0xa8aaea47d233f56b48f6cb209d6566e869d81d535a494e58f218d35b75ea854a",
      "blockHash": "0x7d31e4697ae66db5b0889de8dfd8515016703bbc1d140f7e8e7c951b2cd7f0fc",
      "blockNumber": 90953,
      "transactionIndex": 0,
      "confirmations": null,
      "from": "0x007f7f58D3eb5b7510A301eCC749FC1fCDDBE14D",
      "gasPrice": {
        "_hex": "0xd809a5b95"
      },
      "gasLimit": {
        "_hex": "0x15f90"
      },
      "to": "0xb1abce2918E21ddb93AA452731a12672A3d9F75a",
      "value": {
        "_hex": "0x8ffb6787e8ad80000"
      },
      "nonce": 7,
      "data": "0x",
      "r": "0x137913901599860b12013a928a0144dfb9cea39cd01b80e77f54458c3a184fe6",
      "s": "0x3d08d9b1df8e929fab8fa2a2d1dcdc23364478a550042b7822c65088d66e6a2a",
      "v": 28,
      "creates": null,
      "raw": "0xf86e07850d809a5b9583015f9094b1abce2918e21ddb93aa452731a12672a3d9f75a8908ffb6787e8ad80000801ca0137913901599860b12013a928a0144dfb9cea39cd01b80e77f54458c3a184fe6a03d08d9b1df8e929fab8fa2a2d1dcdc23364478a550042b7822c65088d66e6a2a",
      "networkId": 0,
      "chainId": 0
    }
  ]
}