{
  "hash": "0x973fe60e3ad70e9dbf0821f13fc1433b421ccce3a3f249c89e9a3092e3906d62",
  "parentHash": "0x747fbe6e94cac46b559b3236fa02c9b44dfe5975a634f72f523fdcfdeca2c088",
  "number": 78928,
  "timestamp": 1439461738,
  "nonce": "0x7acfae6694416c0d",
  "difficulty": 2290839060365,
  "gasLimit": {
    "_hex": "0x2fefd8"
  },
  "gasUsed": {
    "_hex": "0x5208"
  },
  "miner": "0x9746c7e1ef2bd21FF3997fa467593a89cb852BD0",
  "extraData": "0x476574682f76312e302e312f77696e646f77732f676f312e342e32",
  "transactions": [
    {
      "hash": "0x7aef4dc4c9d8b38f024e56591f24a0cac7d4790015f0c3752eea74b2f5e9b2f1",
      "blockHash": "0x973fe60e3ad70e9dbf0821f13fc1433b421ccce3a3f249c89e9a3092e3906d62",
      "blockNumber": 78928,
      "transactionIndex": 0,
      "confirmations": null,
      "from": "0x32Be343B94f860124dC4fEe278FDCBD38C102D88",
      "gasPrice": {
        "_hex": "0xcc8fa2b0c"
      },
      "gasLimit": {
        "_hex": "0x5208"
      },
      "to": "0x6c5564dAB8cE79Be134362BC4d7257945A1faA66",
      "value": {
        "_hex": "0xad78ebc5ac6200000"
      },
      "nonce": 404,
      "data": "0x",
      "r": "0xfbaaf5906c18cfc91c040174d4a9e3b5ac9a5388ba9d28a8eaf07f936faf55d3",
      "s": "0x5d97a460e205aa621e1813b32a78d2ef88972b91e5a72adec72bce1bc3feea31",
      "v": 27,
      "creates": null,
      "raw": "0xf86f820194850cc8fa2b0c825208946c5564dab8ce79be134362bc4d7257945a1faa66890ad78ebc5ac6200000801ba0fbaaf5906c18cfc91c040174d4a9e3b5ac9a5388ba9d28a8eaf07f936faf55d3a05d97a460e205aa621e1813b32a78d2ef88972b91e5a72adec72bce1bc3feea31",
      "networkId": 0,
      "chainId": 0
    }
  ]
}