{
  "hash": "0x37d403a338b206ed65ed5af99c5bd6eca3da5f8a37d0028ce597b73a8ff407a9",
  "parentHash": "0x5fdc5618bbd69e87df77d4dc114073c822b3e73b33b8fda9c2e3ce512ec9f08f",
  "number": 76177,
  "timestamp": 1439416066,
  "nonce": "0xe5a5840d932fc987",
  "difficulty": 2239599099931,
  "gasLimit": {
    "_hex": "0x2fefd8"
  },
  "gasUsed": {
    "_hex": "0x5d9f"
  },
  "miner": "0xF2d2AfF1320476cb8C6b607199D23175cc595693",
  "extraData": "0x476574682f76312e302e312f77696e646f77732f676f312e342e32",
  "transactions": [
    {
      "hash": "0xf5f40d3de469d857b2f073c19a3a0c74be5f84ea63e3a49db358008993b97031",
      "blockHash": "0x37d403a338b206ed65ed5af99c5bd6eca3da5f8a37d0028ce597b73a8ff407a9",
      "blockNumber": 76177,
      "transactionIndex": 0,
      "confirmations": null,
      "from": "0x770d98d31b4353FceEE8560c4CCf803e88C0c4e0",
      "gasPrice": {
        "_hex": "0xdc903bed3"
      },
      "gasLimit": {
        "_hex": "0x15f90"
      },
      "to": "0xCAc7000C7dBaa2E33Af15325AF5D435E011C7BdD",
      "value": {
        "_hex": "0x0"
      },
      "nonce": 3,
      "data": "0xb214faa54131313131313131410000000000000000000000000000000000000000000000",
      "r": "0xf5007a3141b06da4711b4657171c09d3462d01b425b1cff1880f2bd2b03f659d",
      "s": "0x3233f03cc0fc381b587485940ee4ee5212c026f6ce35e48aeb86a7726b8a2fac",
      "v": 28,
      "creates": null,
      "raw": "0xf88903850dc903bed383015f9094cac7000c7dbaa2e33af15325af5d435e011c7bdd80a4b214faa541313131313131314100000000000000000000000000000000000000000000001ca0f5007a3141b06da4711b4657171c09d3462d01b425b1cff1880f2bd2b03f659da03233f03cc0fc381b587485940ee4ee5212c026f6ce35e48aeb86a7726b8a2fac",
      "networkId": 0,
      "chainId": 0
    }
  ]
}