{
  "hash": "0xf8b3d5c6547bccfb3c30e1f8c6fdab9e3741d7c2e735f33936d6a72808128da8",
  "parentHash": "0xa5994d4560f5912867bc158abad168aed3ae5d40fc41a4017b2153b14e5e6a75",
  "number": 80663,
  "timestamp": 1439488864,
  "nonce": "0x76b9e9b2c10fa3f9",
  "difficulty": 2429762121408,
  "gasLimit": {
    "_hex": "0x2fefd8"
  },
  "gasUsed": {
    "_hex": "0xa674"
  },
  "miner": "0x7Eb9F59f9547E376188eD83EFCD1F6dbF3712eA6",
  "extraData": "0x476574682f76312e302e312f77696e646f77732f676f312e342e32",
  "transactions": [
    {
      "hash": "0xeec9a42aad6cda8cae82aa606cb384fb711a9476d5f853668e20e26e75091e2f",
      "blockHash": "0xf8b3d5c6547bccfb3c30e1f8c6fdab9e3741d7c2e735f33936d6a72808128da8",
      "blockNumber": 80663,
      "transactionIndex": 0,
      "confirmations": null,
      "from": "0x730d8763c6a4fD824ab8B859161EF7E3a96A1200",
      "gasPrice": {
        "_hex": "0x110c8f7d8de"
      },
      "gasLimit": {
        "_hex": "0xc350"
      },
      "to": "0x2910543Af39abA0Cd09dBb2D50200b3E800A63D2",
      "value": {
        "_hex": "0x55de6a779bbac0000"
      },
      "nonce": 1,
      "data": "0x454e4a51545a344a47",
      "r": "0x68f79a87a936add28cb621a76c7d674ff5f015a9d57535150a9ac374041cfb3e",
      "s": "0x4fab96ba925f5243203131b3da551475e627c17746acb8bce2781a705fdfd5eb",
      "v": 28,
      "creates": null,
      "raw": "0xf87701860110c8f7d8de82c350942910543af39aba0cd09dbb2d50200b3e800a63d289055de6a779bbac000089454e4a51545a344a471ca068f79a87a936add28cb621a76c7d674ff5f015a9d57535150a9ac374041cfb3ea04fab96ba925f5243203131b3da551475e627c17746acb8bce2781a705fdfd5eb",
      "networkId": 0,
      "chainId": 0
    },
    {
      "hash": "0x6c339232113177118bbe0504c751a85f82761848a10e4d09f3849f51955d9c49",
      "blockHash": "0xf8b3d5c6547bccfb3c30e1f8c6fdab9e3741d7c2e735f33936d6a72808128da8",
      "blockNumber": 80663,
      "transactionIndex": 1,
      "confirmations": null,
      "from": "0xF5437e158090B2a2d68f82b54a5864B95dD6DBea",
      "gasPrice": {
        "_hex": "0xd65b52c4c"
      },
      "gasLimit": {
        "_hex": "0x15f90"
      },
      "to": "0x0000000000000000000000000000000000000000",
      "value": {
        "_hex": "0xde0b6b3a7640000"
      },
      "nonce": 2,
      "data": "0x",
      "r": "0xf331cdc8b027625e998014acb874394805d3af50614f1941a108a3c4250a3d7e",
      "s": "0x2535e04c1e413015f048781173dbe638e46a0c78292f41ceadbca3de638a376a",
      "v": 28,
      "creates": null,
      "raw": "0xf86d02850d65b52c4c83015f90940000000000000000000000000000000000000000880de0b6b3a7640000801ca0f331cdc8b027625e998014acb874394805d3af50614f1941a108a3c4250a3d7ea02535e04c1e413015f048781173dbe638e46a0c78292f41ceadbca3de638a376a",
      "networkId": 0,
      "chainId": 0
    }
  ]
}