{
  "hash": "0x5733f4be43c38f960e127e0b92e369daf9855013efe37f7ae443bcb40016b83c",
  "parentHash": "0xd4e6e7e73d120f562367a191dd1bfd35be8a7d2f04d0525c7c4a772ee80b3ab5",
  "number": 66825,
  "timestamp": 1439260805,
  "nonce": "0xa13758b2310025ee",
  "difficulty": 1953683174850,
  "gasLimit": {
    "_hex": "0x2fefd8"
  },
  "gasUsed": {
    "_hex": "0x5208"
  },
  "miner": "0x035052044374B3607Fc995a2460f096a5c5c0184",
  "extraData": "0x",
  "transactions": [
    {
      "hash": "0xe944b207f1f9a570399327fe0689d6d6585c0bb88123f3c0dee10139b3c30390",
      "blockHash": "0x5733f4be43c38f960e127e0b92e369daf9855013efe37f7ae443bcb40016b83c",
      "blockNumber": 66825,
      "transactionIndex": 0,
      "confirmations": null,
      "from": "0x74E0e6B292960B6aF6a5eB6596a26Daa9833fe03",
      "gasPrice": {
        "_hex": "0xdd412efbc"
      },
      "gasLimit": {
        "_hex": "0x15f90"
      },
      "to": "0x42979fca296FEA2C163EA66E1900acDe7886F86F",
      "value": {
        "_hex": "0x37b17becd03d50000"
      },
      "nonce": 0,
      "data": "0x",
      "r": "0x2b6f860c36a794b390794b4b57f790af427eb15a179a2ea44148955596e2574f",
      "s": "0x3ff3f033e09d74fa050668ade660b04ce2b7bbef5975c6c79bec96eae2e45ed6",
      "v": 27,
      "creates": null,
      "raw": "0xf86e80850dd412efbc83015f909442979fca296fea2c163ea66e1900acde7886f86f89037b17becd03d50000801ba02b6f860c36a794b390794b4b57f790af427eb15a179a2ea44148955596e2574fa03ff3f033e09d74fa050668ade660b04ce2b7bbef5975c6c79bec96eae2e45ed6",
      "networkId": 0,
      "chainId": 0
    }
  ]
}