{
  "hash": "0x220caff4c42c60338eb6779c2e157ce114b30ab03cd979a6492aabe88647701b",
  "parentHash": "0x917313489b0c42336367fd147cd19b9591d9462692b16b7db038a9f7f29fc9f5",
  "number": 46831,
  "timestamp": 1438929958,
  "nonce": "0xec1a522d5b1c39da",
  "difficulty": 1456740504286,
  "gasLimit": {
    "_hex": "0x7cf0"
  },
  "gasUsed": {
    "_hex": "0x5208"
  },
  "miner": "0x520A6622a4E770f751F4529e245231D259C12826",
  "extraData": "0xdd809b302e392e33392b2b376333332d5257696e646f2f6d73762f4a4954",
  "transactions": [
    {
      "hash": "0x9dc94112912650e4670ff46cbeb2296ccae83b19802f4f5ec69d9fd652fc259c",
      "blockHash": "0x220caff4c42c60338eb6779c2e157ce114b30ab03cd979a6492aabe88647701b",
      "blockNumber": 46831,
      "transactionIndex": 0,
      "confirmations": null,
      "from": "0x7836f7eF6Bc7Bd0fF3acAf449C84dD6b1E2c939F",
      "gasPrice": {
        "_hex": "0xe8d4a51000"
      },
      "gasLimit": {
        "_hex": "0x55f0"
      },
      "to": "0xe14413eB7d350336fC972B500c0fbB3fD3d953Ce",
      "value": {
        "_hex": "0x3635c9adc5dea00000"
      },
      "nonce": 0,
      "data": "0x",
      "r": "0x0d12e0731bfcbaa9913c851228e2cff3e685e90830184902d6092a1372c0abe1",
      "s": "0x544f74f7a3b35dfd3815c711c5c2826c908f58af571309aa1f2e58886f4b116f",
      "v": 28,
      "creates": null,
      "raw": "0xf86d8085e8d4a510008255f094e14413eb7d350336fc972b500c0fbb3fd3d953ce893635c9adc5dea00000801ca00d12e0731bfcbaa9913c851228e2cff3e685e90830184902d6092a1372c0abe1a0544f74f7a3b35dfd3815c711c5c2826c908f58af571309aa1f2e58886f4b116f",
      "networkId": 0,
      "chainId": 0
    }
  ]
}