{
  "hash": "0xa78b9d6307787e2be29ec9e1e086cbe14c08ed2445060cc4d270ebd71395d4cf",
  "parentHash": "0xc95d6e0985202156d8e6571a6349131623eba6b4bdaeeb0e7dbe448dd7b61758",
  "number": 79474,
  "timestamp": 1439470277,
  "nonce": "0x6219367c7bfc4856",
  "difficulty": 2335869773164,
  "gasLimit": {
    "_hex": "0x2fefd8"
  },
  "gasUsed": {
    "_hex": "0x1cfca"
  },
  "miner": "0xe6A7a1d47ff21B6321162AEA7C6CB457D5476Bca",
  "extraData": "0x476574682f76312e302e312d38326566323666362f6c696e75782f676f312e34",
  "transactions": [
    {
      "hash": "0xd54d41a9a893e3578fd9ab603a7fbfdf066782ea03aadd3954d367b77c223bba",
      "blockHash": "0xa78b9d6307787e2be29ec9e1e086cbe14c08ed2445060cc4d270ebd71395d4cf",
      "blockNumber": 79474,
      "transactionIndex": 0,
      "confirmations": null,
      "from": "0x008FC7CBAdFFbD0D7fe44F8DFD60a79d721a1c9C",
      "gasPrice": {
        "_hex": "0xcd99475f6"
      },
      "gasLimit": {
        "_hex": "0x15f90"
      },
      "to": "0xc634A6B0375D5554116900D0B40a06C2C022f17e",
      "value": {
        "_hex": "0x0"
      },
      "nonce": 38,
      "data": "0x32983c9e",
      "r": "0xad1061cd4114e7e44d94d28f4379a3acb43e73ed842da3b64406411daaa43da6",
      "s": "0x16eae64f237ec1a0144b9e3869c73762a519db0ec962cbca7ac47d34525c4f60",
      "v": 27,
      "creates": null,
      "raw": "0xf86926850cd99475f683015f9094c634a6b0375d5554116900d0b40a06c2c022f17e808432983c9e1ba0ad1061cd4114e7e44d94d28f4379a3acb43e73ed842da3b64406411daaa43da6a016eae64f237ec1a0144b9e3869c73762a519db0ec962cbca7ac47d34525c4f60",
      "networkId": 0,
      "chainId": 0
    },
    {
      "hash": "0xf8fa7c9d2b8abed4bcb41695570330fbb4ba5c5b01c76b375a2c12c2620eac67",
      "blockHash": "0xa78b9d6307787e2be29ec9e1e086cbe14c08ed2445060cc4d270ebd71395d4cf",
      "blockNumber": 79474,
      "transactionIndex": 1,
      "confirmations": null,
      "from": "0x32Be343B94f860124dC4fEe278FDCBD38C102D88",
      "gasPrice": {
        "_hex": "0xcb817bd45"
      },
      "gasLimit": {
        "_hex": "0x5208"
      },
      "to": "0xc7178C8B9a4d03e33d8d695169Ce476014c71Ada",
      "value": {
        "_hex": "0x4a3aaeab6d2a14000"
      },
      "nonce": 427,
      "data": "0x",
      "r": "0x575944634b3f54cafa9adeadb3ad1e6fecddbff56748422ebf9018c7e14b4065",
      "s": "0x220e812bb335fabf2300ffe78a40ea4a7a1de2401935b3582c090d7a5129c154",
      "v": 27,
      "creates": null,
      "raw": "0xf86f8201ab850cb817bd4582520894c7178c8b9a4d03e33d8d695169ce476014c71ada8904a3aaeab6d2a14000801ba0575944634b3f54cafa9adeadb3ad1e6fecddbff56748422ebf9018c7e14b4065a0220e812bb335fabf2300ffe78a40ea4a7a1de2401935b3582c090d7a5129c154",
      "networkId": 0,
      "chainId": 0
    },
    {
      "hash": "0x2e1da4e31178aa37fc5e80bb3c647d4be3b8a086193e14cdeab2f08311e1ffeb",
      "blockHash": "0xa78b9d6307787e2be29ec9e1e086cbe14c08ed2445060cc4d270ebd71395d4cf",
      "blockNumber": 79474,
      "transactionIndex": 2,
      "confirmations": null,
      "from": "0x32Be343B94f860124dC4fEe278FDCBD38C102D88",
      "gasPrice": {
        "_hex": "0xcb817bd45"
      },
      "gasLimit": {
        "_hex": "0x5208"
      },
      "to": "0x8eC407EDf8FAbf4dCDD81b9bf6AC7f07591D1488",
      "value": {
        "_hex": "0x385eadcab10a30000"
      },
      "nonce": 428,
      "data": "0x",
      "r": "0xabd8eae036093be22a3d68f99b574a6cf961ab252d18caa980f13aedc3278a3d",
      "s": "0x40fc13642ba56ec23f48ecf9d9cd1ed8fb18be53670400acddbac66611d886ad",
      "v": 27,
      "creates": null,
      "raw": "0xf86f8201ac850cb817bd45825208948ec407edf8fabf4dcdd81b9bf6ac7f07591d1488890385eadcab10a30000801ba0abd8eae036093be22a3d68f99b574a6cf961ab252d18caa980f13aedc3278a3da040fc13642ba56ec23f48ecf9d9cd1ed8fb18be53670400acddbac66611d886ad",
      "networkId": 0,
      "chainId": 0
    },
    {
      "hash": "0xbd69d8bbdf1e965790342be0ad9ca6dd3512c83c489a9335e046be1e75546d9d",
      "blockHash": "0xa78b9d6307787e2be29ec9e1e086cbe14c08ed2445060cc4d270ebd71395d4cf",
      "blockNumber": 79474,
      "transactionIndex": 3,
      "confirmations": null,
      "from": "0x32Be343B94f860124dC4fEe278FDCBD38C102D88",
      "gasPrice": {
        "_hex": "0xcb817bd45"
      },
      "gasLimit": {
        "_hex": "0x5208"
      },
      "to": "0xD7Add146Fd01cC02354e9dE91df7d38D918E9C5D",
      "value": {
        "_hex": "0x271fcec0b0a70c000"
      },
      "nonce": 429,
      "data": "0x",
      "r": "0x7b0feadd1b6cd9e0bd8263e117cbd044b773cb6cf6ba58149294641cffc2ec2a",
      "s": "0x526e4ca85fba4960a9bd8b921237f120caa6065c3f649063f5e994347bc9339d",
      "v": 28,
      "creates": null,
      "raw": "0xf86f8201ad850cb817bd4582520894d7add146fd01cc02354e9de91df7d38d918e9c5d890271fcec0b0a70c000801ca07b0feadd1b6cd9e0bd8263e117cbd044b773cb6cf6ba58149294641cffc2ec2aa0526e4ca85fba4960a9bd8b921237f120caa6065c3f649063f5e994347bc9339d",
      "networkId": 0,
      "chainId": 0
    },
    {
      "hash": "0xab356700bebfebe509d12509bd7f2acf2600fff0a29d3954ee78712e5948d151",
      "blockHash": "0xa78b9d6307787e2be29ec9e1e086cbe14c08ed2445060cc4d270ebd71395d4cf",
      "blockNumber": 79474,
      "transactionIndex": 4,
      "confirmations": null,
      "from": "0x32Be343B94f860124dC4fEe278FDCBD38C102D88",
      "gasPrice": {
        "_hex": "0xcb817bd45"
      },
      "gasLimit": {
        "_hex": "0x5208"
      },
      "to": "0x5520a56e563e93652B6867Cf334eE14fCa33480f",
      "value": {
        "_hex": "0xc59ea48da190000"
      },
      "nonce": 430,
      "data": "0x",
      "r": "0x3d44b752fafe8c22b29181143535651ca3c0ddcbcd483e4e223a26b7b8bfbe0d",
      "s": "0x6de7aeef4d5394e6e256c6c8f2fcd9f079dca8d98a4feadf9c7c85fd7febce66",
      "v": 27,
      "creates": null,
      "raw": "0xf86e8201ae850cb817bd45825208945520a56e563e93652b6867cf334ee14fca33480f880c59ea48da190000801ba03d44b752fafe8c22b29181143535651ca3c0ddcbcd483e4e223a26b7b8bfbe0da06de7aeef4d5394e6e256c6c8f2fcd9f079dca8d98a4feadf9c7c85fd7febce66",
      "networkId": 0,
      "chainId": 0
    }
  ]
}