{
  "hash": "0x90b74576232d75ac3e132a5bbe749c14cc64181bef8634b8074e63f78017a9b9",
  "parentHash": "0xa8e08e22f8a4b3cbca5b1250ce6bf51695868be59c80af70ff35fb21c43b3b2f",
  "number": 66305,
  "timestamp": 1439252156,
  "nonce": "0xcf0acc12d60a50aa",
  "difficulty": 1936707418585,
  "gasLimit": {
    "_hex": "0x2fefd8"
  },
  "gasUsed": {
    "_hex": "0x5208"
  },
  "miner": "0x02020D22dCF88f5eDd66B382D7da019F161fB7e3",
  "extraData": "0x",
  "transactions": [
    {
      "hash": "0xd45655f358dd8d380318b9ce435e90ae3789811a0ee43fce8ef1699ef3d86f7e",
      "blockHash": "0x90b74576232d75ac3e132a5bbe749c14cc64181bef8634b8074e63f78017a9b9",
      "blockNumber": 66305,
      "transactionIndex": 0,
      "confirmations": null,
      "from": "0x727A42a8D67fcaa0Ab81D46f1EE66bfc9b8789AC",
      "gasPrice": {
        "_hex": "0xcdc009545"
      },
      "gasLimit": {
        "_hex": "0x15f90"
      },
      "to": "0x285B048CC4cB946abCF3eF11aDe982C36946AF18",
      "value": {
        "_hex": "0x8ac7230489e80000"
      },
      "nonce": 3,
      "data": "0x",
      "r": "0x46d9961a6e35848bed62f469ef83453302adea6645de98547cd9e90ec19d148a",
      "s": "0x018ea668b7fed5441d22e3f14006bd85500fa19d9898609faaa2551f150493f6",
      "v": 28,
      "creates": null,
      "raw": "0xf86d03850cdc00954583015f9094285b048cc4cb946abcf3ef11ade982c36946af18888ac7230489e80000801ca046d9961a6e35848bed62f469ef83453302adea6645de98547cd9e90ec19d148aa0018ea668b7fed5441d22e3f14006bd85500fa19d9898609faaa2551f150493f6",
      "networkId": 0,
      "chainId": 0
    }
  ]
}