{
  "hash": "0x3a68eb568be1cafaf904b70bbb08c921e3f198225a3e0e3903cb956787fefc57",
  "parentHash": "0x3a2772385da99549a5f0a3ed61a3a680bd0419636775bf82db72ed60a58bac84",
  "number": 105297,
  "timestamp": 1439885013,
  "nonce": "0xd6149aa326e38985",
  "difficulty": 4378270047247,
  "gasLimit": {
    "_hex": "0x2fefd8"
  },
  "gasUsed": {
    "_hex": "0x5208"
  },
  "miner": "0xA21Ba94e45f0E168dA824fC67aC9cb5Cb577a8aF",
  "extraData": "0x",
  "transactions": [
    {
      "hash": "0x15c72c67c62308f379019aa27c3e078cd2af2eac4d1b171e6118a8fad0e891a4",
      "blockHash": "0x3a68eb568be1cafaf904b70bbb08c921e3f198225a3e0e3903cb956787fefc57",
      "blockNumber": 105297,
      "transactionIndex": 0,
      "confirmations": null,
      "from": "0xb1abce2918E21ddb93AA452731a12672A3d9F75a",
      "gasPrice": {
        "_hex": "0xcb401d2b0"
      },
      "gasLimit": {
        "_hex": "0x5208"
      },
      "to": "0x32Be343B94f860124dC4fEe278FDCBD38C102D88",
      "value": {
        "_hex": "0xd026a279191ba000"
      },
      "nonce": 135,
      "data": "0x",
      "r": "0xa30e3902727057331cec8b8a98523bbb30193b98f8cdec8b937cd00d0af3fed3",
      "s": "0x36353cbfdafbf71f7acb19153a0486b812566c08f8ee7f5d28baaf491b206c57",
      "v": 28,
      "creates": null,
      "raw": "0xf86d8187850cb401d2b08252089432be343b94f860124dc4fee278fdcbd38c102d8888d026a279191ba000801ca0a30e3902727057331cec8b8a98523bbb30193b98f8cdec8b937cd00d0af3fed3a036353cbfdafbf71f7acb19153a0486b812566c08f8ee7f5d28baaf491b206c57",
      "networkId": 0,
      "chainId": 0
    }
  ]
}