{
  "hash": "0xca3d53541190a3bc6e7613605b23995ab8c9202ab8348db895bbb7ca0ddd1f1e",
  "parentHash": "0xce0f7425ad7586fb354c0fc599e440a0768821bb75fbb09fc3f0b77ca46612d8",
  "number": 84429,
  "timestamp": 1439549454,
  "nonce": "0x5c677ba6297f9eef",
  "difficulty": 2572714610051,
  "gasLimit": {
    "_hex": "0x2fefd8"
  },
  "gasUsed": {
    "_hex": "0x5208"
  },
  "miner": "0xe6A7a1d47ff21B6321162AEA7C6CB457D5476Bca",
  "extraData": "0x476574682f76312e302e312d38326566323666362f6c696e75782f676f312e34",
  "transactions": [
    {
      "hash": "0x367fb8ebe1229006d4fe1f81371d6f5e732040b35a11ffafdf7ee6f5f2867577",
      "blockHash": "0xca3d53541190a3bc6e7613605b23995ab8c9202ab8348db895bbb7ca0ddd1f1e",
      "blockNumber": 84429,
      "transactionIndex": 0,
      "confirmations": null,
      "from": "0x5175f107219871c88e0C4202F14A5f34088b54c8",
      "gasPrice": {
        "_hex": "0x746a528800"
      },
      "gasLimit": {
        "_hex": "0x5b04"
      },
      "to": "0x60781265e9850f54AE0Bc9545948d05DeE6FC3e3",
      "value": {
        "_hex": "0x3bacab37b62e0000"
      },
      "nonce": 4,
      "data": "0x",
      "r": "0x3410bcaa97de01b6e55e61bea9f0ba8511ebcd37234768e1ee18eff37f62164e",
      "s": "0xb9fb49945c13bda131981a972e211168b580cda0bcbc9413d42bcb4004daf20e",
      "v": 28,
      "creates": null,
      "raw": "0xf86c0485746a528800825b049460781265e9850f54ae0bc9545948d05dee6fc3e3883bacab37b62e0000801ca03410bcaa97de01b6e55e61bea9f0ba8511ebcd37234768e1ee18eff37f62164ea0b9fb49945c13bda131981a972e211168b580cda0bcbc9413d42bcb4004daf20e",
      "networkId": 0,
      "chainId": 0
    }
  ]
}