{
  "hash": "0x35e343e1f117bc7c973a23d2a37f57d7b0ca3cff3bc4df50a60bc89b1f929280",
  "parentHash": "0x141ac671b525dc4a8016e5af944eddc7c35a9942cb1801c601dc1f2de60cc36b",
  "number": 100031,
  "timestamp": 1439799579,
  "nonce": "0x448ef2eac8c543da",
  "difficulty": 3862462230670,
  "gasLimit": {
    "_hex": "0x2fefd8"
  },
  "gasUsed": {
    "_hex": "0x5208"
  },
  "miner": "0x64DcD9c2733262031AbFE744614d9Ed5AEDb0EFB",
  "extraData": "0x476574682f76312e302e312f6c696e75782f676f312e342e32",
  "transactions": [
    {
      "hash": "0x92fd0b59813c1ed4ee485414a9545edfb701fc1e81ed252e00484895637c4a3f",
      "blockHash": "0x35e343e1f117bc7c973a23d2a37f57d7b0ca3cff3bc4df50a60bc89b1f929280",
      "blockNumber": 100031,
      "transactionIndex": 0,
      "confirmations": null,
      "from": "0x1c69e6202df7794272b70FaEa8f7408c856B1f08",
      "gasPrice": {
        "_hex": "0xcbe4ba6a6"
      },
      "gasLimit": {
        "_hex": "0x5208"
      },
      "to": "0x32Be343B94f860124dC4fEe278FDCBD38C102D88",
      "value": {
        "_hex": "0x539c49ad41fab400"
      },
      "nonce": 7,
      "data": "0x",
      "r": "0xc55eb2fe7c6a6360ae9f4758e3534ac1598106ee2a0550d79ddfc8d88adbeb59",
      "s": "0x5b37df6790b8d8c4f7f3d82e7bca90a067e3480d4d3d8a050e3a506bcb92db82",
      "v": 27,
      "creates": null,
      "raw": "0xf86c07850cbe4ba6a68252089432be343b94f860124dc4fee278fdcbd38c102d8888539c49ad41fab400801ba0c55eb2fe7c6a6360ae9f4758e3534ac1598106ee2a0550d79ddfc8d88adbeb59a05b37df6790b8d8c4f7f3d82e7bca90a067e3480d4d3d8a050e3a506bcb92db82",
      "networkId": 0,
      "chainId": 0
    }
  ]
}