{
  "hash": "0x86426ddd8ed1ba25e6a60ee5f72e82c677c83d8ba073fa0caf46d0df3adb1923",
  "parentHash": "0x73482e7ba2b592456e31d02f16f149ae1fe6dcf334f2f5c3ee44158933e25841",
  "number": 70275,
  "timestamp": 1439317440,
  "nonce": "0xfc86032ebc95bb91",
  "difficulty": 2128127815471,
  "gasLimit": {
    "_hex": "0x2fefd8"
  },
  "gasUsed": {
    "_hex": "0xf618"
  },
  "miner": "0x5214803C763281b785cDC039b80605fd088D42Ca",
  "extraData": "0x",
  "transactions": [
    {
      "hash": "0xb18faeeaf0d299464ebe0b1684d0dad3760f26fb7b45a425a866a25e6b417f73",
      "blockHash": "0x86426ddd8ed1ba25e6a60ee5f72e82c677c83d8ba073fa0caf46d0df3adb1923",
      "blockNumber": 70275,
      "transactionIndex": 0,
      "confirmations": null,
      "from": "0xBaf4E201A3015b60bD8dd1190E20411EaF12C5eE",
      "gasPrice": {
        "_hex": "0xd6ad739ca"
      },
      "gasLimit": {
        "_hex": "0x5208"
      },
      "to": "0x32Be343B94f860124dC4fEe278FDCBD38C102D88",
      "value": {
        "_hex": "0xddc6a0efe6c3c00"
      },
      "nonce": 2,
      "data": "0x",
      "r": "0xe824938125c8adcd2e15e697f1e4c297040852cb99406afe8f3f8dae9ff96b5e",
      "s": "0x20abe3601e3e8dcccf25a77c67a1b15b8b8fc194377c32758ea378249cfc473f",
      "v": 28,
      "creates": null,
      "raw": "0xf86c02850d6ad739ca8252089432be343b94f860124dc4fee278fdcbd38c102d88880ddc6a0efe6c3c00801ca0e824938125c8adcd2e15e697f1e4c297040852cb99406afe8f3f8dae9ff96b5ea020abe3601e3e8dcccf25a77c67a1b15b8b8fc194377c32758ea378249cfc473f",
      "networkId": 0,
      "chainId": 0
    },
    {
      "hash": "0xffa4f9e02b3a56bd7b962e9c575822df35c5dc7aa13e74ef7ec3342c8e45e5b8",
      "blockHash": "0x86426ddd8ed1ba25e6a60ee5f72e82c677c83d8ba073fa0caf46d0df3adb1923",
      "blockNumber": 70275,
      "transactionIndex": 1,
      "confirmations": null,
      "from": "0x6b9dA62D6f23b9768C91f5f5b2F75AA6AcBbD0A0",
      "gasPrice": {
        "_hex": "0xd6ad739ca"
      },
      "gasLimit": {
        "_hex": "0x5208"
      },
      "to": "0x32Be343B94f860124dC4fEe278FDCBD38C102D88",
      "value": {
        "_hex": "0x1157835eb32f7c000"
      },
      "nonce": 0,
      "data": "0x",
      "r": "0x9976d540ea4e1917b6f2ebeda0a0bd5c4381211f6b8a0fb48f8deffc16553587",
      "s": "0x0a87c9e07b59f18616d8b36a1d5b1f9098ea1e2875a3c4a47ef59e1e17718ab9",
      "v": 27,
      "creates": null,
      "raw": "0xf86d80850d6ad739ca8252089432be343b94f860124dc4fee278fdcbd38c102d888901157835eb32f7c000801ba09976d540ea4e1917b6f2ebeda0a0bd5c4381211f6b8a0fb48f8deffc16553587a00a87c9e07b59f18616d8b36a1d5b1f9098ea1e2875a3c4a47ef59e1e17718ab9",
      "networkId": 0,
      "chainId": 0
    },
    {
      "hash": "0xa0ae9005f35e705109216d1aa0bfaf919e97027f1db9983ee3ff1d65fc15ee51",
      "blockHash": "0x86426ddd8ed1ba25e6a60ee5f72e82c677c83d8ba073fa0caf46d0df3adb1923",
      "blockNumber": 70275,
      "transactionIndex": 2,
      "confirmations": null,
      "from": "0x96811Ad897894eC178872117C8BF2f03971A393B",
      "gasPrice": {
        "_hex": "0xd6ad739ca"
      },
      "gasLimit": {
        "_hex": "0x5208"
      },
      "to": "0x32Be343B94f860124dC4fEe278FDCBD38C102D88",
      "value": {
        "_hex": "0x9ffe7d44ab494000"
      },
      "nonce": 13,
      "data": "0x",
      "r": "0x408d88b76102672d1f5ea5494b1634466d87acdb89ace55bedcca98a02497f5c",
      "s": "0x6dccc9b77696e9c8421d750a8ec91131d2c9199bc1a2101a8b92bfc5b9271704",
      "v": 27,
      "creates": null,
      "raw": "0xf86c0d850d6ad739ca8252089432be343b94f860124dc4fee278fdcbd38c102d88889ffe7d44ab494000801ba0408d88b76102672d1f5ea5494b1634466d87acdb89ace55bedcca98a02497f5ca06dccc9b77696e9c8421d750a8ec91131d2c9199bc1a2101a8b92bfc5b9271704",
      "networkId": 0,
      "chainId": 0
    }
  ]
}