{
  "hash": "0xae9a2f05084b175686880ac7885d0dca4fad5559ba74df54cc7e3caa09e7fc9e",
  "parentHash": "0x854e3334915dfdc23d62615362fd251aa9e962ceb88411942e954918d55f0795",
  "number": 118469,
  "timestamp": 1440126724,
  "nonce": "0x62f3778707fa1613",
  "difficulty": 4278485442293,
  "gasLimit": {
    "_hex": "0x2fefd8"
  },
  "gasUsed": {
    "_hex": "0x18326"
  },
  "miner": "0xe6A7a1d47ff21B6321162AEA7C6CB457D5476Bca",
  "extraData": "0xd783010002844765746887676f312e342e32856c696e7578",
  "transactions": [
    {
      "hash": "0x04918826e66a39deefcd44f7f2055f7d4635d3dd695b287505d4c144bebbf866",
      "blockHash": "0xae9a2f05084b175686880ac7885d0dca4fad5559ba74df54cc7e3caa09e7fc9e",
      "blockNumber": 118469,
      "transactionIndex": 0,
      "confirmations": null,
      "from": "0x001aA0CB9c5fA098a119070024460feBb868742D",
      "gasPrice": {
        "_hex": "0xba43b7400"
      },
      "gasLimit": {
        "_hex": "0x24dd8"
      },
      "to": "0xE28e72FCf78647ADCe1F1252F240bbfaebD63BcC",
      "value": {
        "_hex": "0x5543df729c0000"
      },
      "nonce": 4,
      "data": "0x45466f3a",
      "r": "0xd823fcd636db4f01dc7a8fbd4eb507fafeafd88f024f8bb9a240dce22ef7c247",
      "s": "0x6865e314956d7391f7b393f66af032bf840c58ee0e3e51a3e18f5ba77e4a8877",
      "v": 28,
      "creates": null,
      "raw": "0xf87004850ba43b740083024dd894e28e72fcf78647adce1f1252f240bbfaebd63bcc875543df729c00008445466f3a1ca0d823fcd636db4f01dc7a8fbd4eb507fafeafd88f024f8bb9a240dce22ef7c247a06865e314956d7391f7b393f66af032bf840c58ee0e3e51a3e18f5ba77e4a8877",
      "networkId": 0,
      "chainId": 0
    }
  ]
}