{
  "hash": "0xc5974cff8cb2dc490bc1ff47b427929878ccd520e560c99f19392fb20b33a62b",
  "parentHash": "0x4484917caa4ce36b98e3df051b6b72469b7e3a4600337e3ae93bef5864832b40",
  "number": 121950,
  "timestamp": 1440185318,
  "nonce": "0x3a9b1fe193e9b9e3",
  "difficulty": 4488524184674,
  "gasLimit": {
    "_hex": "0x2fefd8"
  },
  "gasUsed": {
    "_hex": "0x5208"
  },
  "miner": "0xbb7B8287f3F0a933474a79eAe42CBCa977791171",
  "extraData": "0xd783010003844765746887676f312e342e32856c696e7578",
  "transactions": [
    {
      "hash": "0x531ee8a79cdc2d9f5f04750b532674980ab33a274ff19f539ecd6391b5c493eb",
      "blockHash": "0xc5974cff8cb2dc490bc1ff47b427929878ccd520e560c99f19392fb20b33a62b",
      "blockNumber": 121950,
      "transactionIndex": 0,
      "confirmations": null,
      "from": "0x6DDE07583870063b9391a6f354F88fbD2deef5e9",
      "gasPrice": {
        "_hex": "0xba43b7400"
      },
      "gasLimit": {
        "_hex": "0x15f90"
      },
      "to": "0x8B9a9b77Edb4d38018522c1C24008B0499fee12E",
      "value": {
        "_hex": "0x3a4965bf58a40000"
      },
      "nonce": 2,
      "data": "0x",
      "r": "0x0e3625ee105bfcfa8f47150045ad777cb4ee618e468c94eccda7ddde42c2f17e",
      "s": "0x04649c0edce3495ae3ba77a79bde71ce039d91aacb031a9f60ed0c9a47c3b239",
      "v": 28,
      "creates": null,
      "raw": "0xf86d02850ba43b740083015f90948b9a9b77edb4d38018522c1c24008b0499fee12e883a4965bf58a40000801ca00e3625ee105bfcfa8f47150045ad777cb4ee618e468c94eccda7ddde42c2f17ea004649c0edce3495ae3ba77a79bde71ce039d91aacb031a9f60ed0c9a47c3b239",
      "networkId": 0,
      "chainId": 0
    }
  ]
}