{
  "hash": "0x2dede17f6c56ed36eb180b18f5d52077b0b70a9260a99c1a708768df7b4b21c0",
  "parentHash": "0x03d0987a9d91c0d1fe96d9cd5bc2cd369f1b58f9edec57590e255bd74414a800",
  "number": 70884,
  "timestamp": 1439326913,
  "nonce": "0x681815884fcb2fd8",
  "difficulty": 2149905616629,
  "gasLimit": {
    "_hex": "0x2fefd8"
  },
  "gasUsed": {
    "_hex": "0x5208"
  },
  "miner": "0xe6A7a1d47ff21B6321162AEA7C6CB457D5476Bca",
  "extraData": "0x476574682f76312e302e312d38326566323666362f6c696e75782f676f312e34",
  "transactions": [
    {
      "hash": "0xca8399c1827b94e63f30a80fc862074360f46fa9ca4883e38cf4d9bbd72f6d6a",
      "blockHash": "0x2dede17f6c56ed36eb180b18f5d52077b0b70a9260a99c1a708768df7b4b21c0",
      "blockNumber": 70884,
      "transactionIndex": 0,
      "confirmations": null,
      "from": "0x1463cEF3d9007Db05b7C3B8981D38602EE0D855a",
      "gasPrice": {
        "_hex": "0xd1794b8a2"
      },
      "gasLimit": {
        "_hex": "0x5208"
      },
      "to": "0x32Be343B94f860124dC4fEe278FDCBD38C102D88",
      "value": {
        "_hex": "0x2b5df72d7f84f0000"
      },
      "nonce": 2,
      "data": "0x",
      "r": "0xd8b1237adc204b26c48e540600439e76c3db70d8d52220900d0835bfbb24a262",
      "s": "0x14ce1da83eb312f92d87c66307ebd82c9547775b0e1c76b3a8bd06b5e6a7db6e",
      "v": 27,
      "creates": null,
      "raw": "0xf86d02850d1794b8a28252089432be343b94f860124dc4fee278fdcbd38c102d888902b5df72d7f84f0000801ba0d8b1237adc204b26c48e540600439e76c3db70d8d52220900d0835bfbb24a262a014ce1da83eb312f92d87c66307ebd82c9547775b0e1c76b3a8bd06b5e6a7db6e",
      "networkId": 0,
      "chainId": 0
    }
  ]
}