{
  "hash": "0x5b29322eb7734238f2ebfe512250b75d85962eee551e4c3ad30efb29c2dc99d9",
  "parentHash": "0x0f1aebeb3adc6bf5859a947b6bd1cbd7253692835da300ad631a60b421a689a4",
  "number": 71217,
  "timestamp": 1439332613,
  "nonce": "0xb49b0c9c0658f056",
  "difficulty": 2144578090850,
  "gasLimit": {
    "_hex": "0x2fefd8"
  },
  "gasUsed": {
    "_hex": "0x5208"
  },
  "miner": "0xf8E0CA3Ed80bd541b94BEdCf259e8CF2141A9523",
  "extraData": "0x476574682f76312e302e312f77696e646f77732f676f312e342e32",
  "transactions": [
    {
      "hash": "0x5b1168e8340303ef8dbb19d449b84d968e5992ae87c43172404e1d34de4e6284",
      "blockHash": "0x5b29322eb7734238f2ebfe512250b75d85962eee551e4c3ad30efb29c2dc99d9",
      "blockNumber": 71217,
      "transactionIndex": 0,
      "confirmations": null,
      "from": "0xDe32AA8b1fc4E7565006809b8929E4e2ceAE817a",
      "gasPrice": {
        "_hex": "0xdce6114ab"
      },
      "gasLimit": {
        "_hex": "0x15f90"
      },
      "to": "0x740Fc79C926C4Bd3BD78DEFBE690814FF803C40c",
      "value": {
        "_hex": "0x186cc6acd4b0000"
      },
      "nonce": 1,
      "data": "0x",
      "r": "0x39763ba74ceb32a41b0a399a831c86a394121621f7a9e19af7d0f5ed090e268b",
      "s": "0x606aef0a13929caca46c94d47466010488a30a5f78ad0a1428bdfc152c4a03c5",
      "v": 27,
      "creates": null,
      "raw": "0xf86d01850dce6114ab83015f9094740fc79c926c4bd3bd78defbe690814ff803c40c880186cc6acd4b0000801ba039763ba74ceb32a41b0a399a831c86a394121621f7a9e19af7d0f5ed090e268ba0606aef0a13929caca46c94d47466010488a30a5f78ad0a1428bdfc152c4a03c5",
      "networkId": 0,
      "chainId": 0
    }
  ]
}