{
  "hash": "0xb6a02f90a9f9b6b969d53c05dcb9eba85ebb00f9cb56f30ac46c39d555033764",
  "parentHash": "0xaa08aecb8d2df674b993cf39bfcf3a6b6b4dd3659d5e6100c028762847dbe61b",
  "number": 72302,
  "timestamp": 1439350691,
  "nonce": "0xb2c7c5019aeb5eaa",
  "difficulty": 2166401299881,
  "gasLimit": {
    "_hex": "0x2fefd8"
  },
  "gasUsed": {
    "_hex": "0xa410"
  },
  "miner": "0xf927a40C8B7F6E07c5af7FA2155B4864a4112B13",
  "extraData": "0x",
  "transactions": [
    {
      "hash": "0x9ece842bf2572dbb65199293bd1fb8930d92e7e9317191371225501f1eb96fd4",
      "blockHash": "0xb6a02f90a9f9b6b969d53c05dcb9eba85ebb00f9cb56f30ac46c39d555033764",
      "blockNumber": 72302,
      "transactionIndex": 0,
      "confirmations": null,
      "from": "0x6c0E7ecD7bB748115A529c0d5ee2d26b4791578a",
      "gasPrice": {
        "_hex": "0xcbfb27a2b"
      },
      "gasLimit": {
        "_hex": "0x5208"
      },
      "to": "0x32Be343B94f860124dC4fEe278FDCBD38C102D88",
      "value": {
        "_hex": "0x13f2c54571118b000"
      },
      "nonce": 2,
      "data": "0x",
      "r": "0x977d65f2728ad4727e91f3692770ad009201a32a40eed23454d976125149d789",
      "s": "0x40f408a5bc1fd464982c8f48ef228fe01e954acae20f669e81ed1908f658d1c1",
      "v": 28,
      "creates": null,
      "raw": "0xf86d02850cbfb27a2b8252089432be343b94f860124dc4fee278fdcbd38c102d8889013f2c54571118b000801ca0977d65f2728ad4727e91f3692770ad009201a32a40eed23454d976125149d789a040f408a5bc1fd464982c8f48ef228fe01e954acae20f669e81ed1908f658d1c1",
      "networkId": 0,
      "chainId": 0
    },
    {
      "hash": "0xcece53c8b0f11b025be16feb448f6f17446fd9e1303f8ec0542ab18a2069fdf8",
      "blockHash": "0xb6a02f90a9f9b6b969d53c05dcb9eba85ebb00f9cb56f30ac46c39d555033764",
      "blockNumber": 72302,
      "transactionIndex": 1,
      "confirmations": null,
      "from": "0x6d921977dEFE5f4e0682CA512De1D07b1f4802E1",
      "gasPrice": {
        "_hex": "0xcbfb27a2b"
      },
      "gasLimit": {
        "_hex": "0x5208"
      },
      "to": "0x32Be343B94f860124dC4fEe278FDCBD38C102D88",
      "value": {
        "_hex": "0xddca0e6ae80b400"
      },
      "nonce": 6,
      "data": "0x",
      "r": "0x61d4e3b459277045d1bf28efac06357fdc83d98701e1e48093de689c857b3624",
      "s": "0x5ed557c91971e6df385dcc03103a06884dea6c4e83490f621f8add30ab94267f",
      "v": 27,
      "creates": null,
      "raw": "0xf86c06850cbfb27a2b8252089432be343b94f860124dc4fee278fdcbd38c102d88880ddca0e6ae80b400801ba061d4e3b459277045d1bf28efac06357fdc83d98701e1e48093de689c857b3624a05ed557c91971e6df385dcc03103a06884dea6c4e83490f621f8add30ab94267f",
      "networkId": 0,
      "chainId": 0
    }
  ]
}