{
  "hash": "0x191923e61501773da4f6c16aacbe7e9a8ebe070c12daf7a2af170cbef50c6c8c",
  "parentHash": "0x9db30b29b11bd35fb7a6432860c39baad6a19e1559d31927def737a4582d0766",
  "number": 75682,
  "timestamp": 1439407310,
  "nonce": "0x14cfaee9a00b8f8c",
  "difficulty": 2236452804666,
  "gasLimit": {
    "_hex": "0x2fe3f7"
  },
  "gasUsed": {
    "_hex": "0x5afe"
  },
  "miner": "0x7Eb9F59f9547E376188eD83EFCD1F6dbF3712eA6",
  "extraData": "0x476574682f76312e302e312f77696e646f77732f676f312e342e32",
  "transactions": [
    {
      "hash": "0x6c3bf00619bcc3370965977cdb2093960951bfc0b4bb84342eca56609e67bbb7",
      "blockHash": "0x191923e61501773da4f6c16aacbe7e9a8ebe070c12daf7a2af170cbef50c6c8c",
      "blockNumber": 75682,
      "transactionIndex": 0,
      "confirmations": null,
      "from": "0xc8ebccC5F5689Fa8659d83713341e5aD19349448",
      "gasPrice": {
        "_hex": "0xdea250155"
      },
      "gasLimit": {
        "_hex": "0x493e0"
      },
      "to": "0xD79B4C6791784184e2755B2fC1659eaaB0f80456",
      "value": {
        "_hex": "0x0"
      },
      "nonce": 52,
      "data": "0xbd66528a73302e3636343536303035333231383439303400000000000000000000000000",
      "r": "0xe9db85d49d8f68c22fec98f844e2c03a5f8bfe09c1fda12b60f040cb1da6ad8b",
      "s": "0x3412a1cbe3a02e6e8311a87106da341749458c7de3d3455d178a5b6c00d1e325",
      "v": 27,
      "creates": null,
      "raw": "0xf88934850dea250155830493e094d79b4c6791784184e2755b2fc1659eaab0f8045680a4bd66528a73302e36363435363030353332313834393034000000000000000000000000001ba0e9db85d49d8f68c22fec98f844e2c03a5f8bfe09c1fda12b60f040cb1da6ad8ba03412a1cbe3a02e6e8311a87106da341749458c7de3d3455d178a5b6c00d1e325",
      "networkId": 0,
      "chainId": 0
    }
  ]
}