{
  "hash": "0x47503258efd215f2f2227b6aa39164444162b4d3a73f9d91a6541fad62b9e0c1",
  "parentHash": "0x4252e2fe56d9f2de208128fd4f856cc971128641a2737bdd6f6ae84f5bafb136",
  "number": 104055,
  "timestamp": 1439863571,
  "nonce": "0x358eed12a9472e26",
  "difficulty": 4252490709715,
  "gasLimit": {
    "_hex": "0x2fefd8"
  },
  "gasUsed": {
    "_hex": "0x5208"
  },
  "miner": "0xe6A7a1d47ff21B6321162AEA7C6CB457D5476Bca",
  "extraData": "0x476574682f76312e302e312d38326566323666362f6c696e75782f676f312e34",
  "transactions": [
    {
      "hash": "0xab1a2dd77015dc738037271f649480739a1e07d14feafbf4514b61a57b55f15c",
      "blockHash": "0x47503258efd215f2f2227b6aa39164444162b4d3a73f9d91a6541fad62b9e0c1",
      "blockNumber": 104055,
      "transactionIndex": 0,
      "confirmations": null,
      "from": "0x3D5292e9d2a2D31014717ff936A0F9375A5Cc8b7",
      "gasPrice": {
        "_hex": "0xce1992f6a"
      },
      "gasLimit": {
        "_hex": "0x15f90"
      },
      "to": "0x9f78552704fe7e52cC7C3853534aA2C3cf580D54",
      "value": {
        "_hex": "0x42c96f40959140000"
      },
      "nonce": 17,
      "data": "0x",
      "r": "0x4c30edfed8abfa278f862a67e31310d92d079688eb3caba699501408a2fb2216",
      "s": "0x316ebaa59474dfe466bc35da9d9eaa1c9450ba1a126dc93850250536f406b44c",
      "v": 28,
      "creates": null,
      "raw": "0xf86e11850ce1992f6a83015f90949f78552704fe7e52cc7c3853534aa2c3cf580d5489042c96f40959140000801ca04c30edfed8abfa278f862a67e31310d92d079688eb3caba699501408a2fb2216a0316ebaa59474dfe466bc35da9d9eaa1c9450ba1a126dc93850250536f406b44c",
      "networkId": 0,
      "chainId": 0
    }
  ]
}