{
  "hash": "0xa6305bec707590a2e4c77b25443053401aacdc1803b086b88ec0715097019c15",
  "parentHash": "0xd4fbe3837459d1e41046b80757c19d5559fd28112f1abf9d36338856eb9b8dc2",
  "number": 98454,
  "timestamp": 1439773062,
  "nonce": "0xd5b5776d4787ecac",
  "difficulty": 3868851529672,
  "gasLimit": {
    "_hex": "0x2fefd8"
  },
  "gasUsed": {
    "_hex": "0x1d352"
  },
  "miner": "0x55bAf64fc9eAccFFd7Cc643BB61142E1C6ac093e",
  "extraData": "0x",
  "transactions": [
    {
      "hash": "0x4087175badf62590edaed692aceee3162f53c1684d3ea977c630026481c9ca62",
      "blockHash": "0xa6305bec707590a2e4c77b25443053401aacdc1803b086b88ec0715097019c15",
      "blockNumber": 98454,
      "transactionIndex": 0,
      "confirmations": null,
      "from": "0xC4c6bAF00209a0f33331e4B7cb1c7B680A3d2F79",
      "gasPrice": {
        "_hex": "0xdd7494126"
      },
      "gasLimit": {
        "_hex": "0x15f90"
      },
      "to": "0xAd8d3a5d2d92EB14bB56CA9f380be35b8EFE0c04",
      "value": {
        "_hex": "0x0"
      },
      "nonce": 15,
      "data": "0x3feb1bd85858585858585858580000000000000000000000000000000000000000000000000000000000000000000000f64998300727c2484e0e15602f9f49f2654f604e0000000000000000000000000000000000000000000000365167943abda70000",
      "r": "0x3ac12b5df3e7caf88b0696f0c383e357bf3ec9d7476ed6920baaf8ad19eab826",
      "s": "0x5d36bb732ae6b6957bf1bc865f63b96070e0ff286be39970a3580c9c451f6ec0",
      "v": 27,
      "creates": null,
      "raw": "0xf8ca0f850dd749412683015f9094ad8d3a5d2d92eb14bb56ca9f380be35b8efe0c0480b8643feb1bd85858585858585858580000000000000000000000000000000000000000000000000000000000000000000000f64998300727c2484e0e15602f9f49f2654f604e0000000000000000000000000000000000000000000000365167943abda700001ba03ac12b5df3e7caf88b0696f0c383e357bf3ec9d7476ed6920baaf8ad19eab826a05d36bb732ae6b6957bf1bc865f63b96070e0ff286be39970a3580c9c451f6ec0",
      "networkId": 0,
      "chainId": 0
    },
    {
      "hash": "0xe0c44a0ffce0b722222b89f9b5db3ee5600feb3d7e30225e27ce39adfac94e15",
      "blockHash": "0xa6305bec707590a2e4c77b25443053401aacdc1803b086b88ec0715097019c15",
      "blockNumber": 98454,
      "transactionIndex": 1,
      "confirmations": null,
      "from": "0xC4c6bAF00209a0f33331e4B7cb1c7B680A3d2F79",
      "gasPrice": {
        "_hex": "0xdd7494126"
      },
      "gasLimit": {
        "_hex": "0x15f90"
      },
      "to": "0xAd8d3a5d2d92EB14bB56CA9f380be35b8EFE0c04",
      "value": {
        "_hex": "0x0"
      },
      "nonce": 16,
      "data": "0x3feb1bd85858585858585858580000000000000000000000000000000000000000000000000000000000000000000000f64998300727c2484e0e15602f9f49f2654f604e00000000000000000000000000000000000000000000003635a626d36edf0000",
      "r": "0x6e87db24028569a4c25781e14847c6ba92f6f4a7343fadceb0b94dc2c22bcfa0",
      "s": "0x2c3c9c769289878382e3a3cb8d4395da8dd6995b194e8c5431309a4c64a569ab",
      "v": 27,
      "creates": null,
      "raw": "0xf8ca10850dd749412683015f9094ad8d3a5d2d92eb14bb56ca9f380be35b8efe0c0480b8643feb1bd85858585858585858580000000000000000000000000000000000000000000000000000000000000000000000f64998300727c2484e0e15602f9f49f2654f604e00000000000000000000000000000000000000000000003635a626d36edf00001ba06e87db24028569a4c25781e14847c6ba92f6f4a7343fadceb0b94dc2c22bcfa0a02c3c9c769289878382e3a3cb8d4395da8dd6995b194e8c5431309a4c64a569ab",
      "networkId": 0,
      "chainId": 0
    },
    {
      "hash": "0xadfb52da95ef13084da2b24c25d84f12b16e8c36b9953a68693c50eaf8cbd02c",
      "blockHash": "0xa6305bec707590a2e4c77b25443053401aacdc1803b086b88ec0715097019c15",
      "blockNumber": 98454,
      "transactionIndex": 2,
      "confirmations": null,
      "from": "0xC4c6bAF00209a0f33331e4B7cb1c7B680A3d2F79",
      "gasPrice": {
        "_hex": "0xdd7494126"
      },
      "gasLimit": {
        "_hex": "0x15f90"
      },
      "to": "0xAd8d3a5d2d92EB14bB56CA9f380be35b8EFE0c04",
      "value": {
        "_hex": "0x0"
      },
      "nonce": 17,
      "data": "0x3feb1bd85858585858585858580000000000000000000000000000000000000000000000000000000000000000000000af4bee1910f14fd7b7d119d741e5cdddfb3375cc0000000000000000000000000000000000000000000000a2ade8b08778d40000",
      "r": "0xd45a65c35c5c567821c6bbe44f04dddbcd9fb10ff38034cc71814a20916e905b",
      "s": "0x2ab287f763101bc708543f662d14d1b138262184e64e589d2e51627be56c0d29",
      "v": 28,
      "creates": null,
      "raw": "0xf8ca11850dd749412683015f9094ad8d3a5d2d92eb14bb56ca9f380be35b8efe0c0480b8643feb1bd85858585858585858580000000000000000000000000000000000000000000000000000000000000000000000af4bee1910f14fd7b7d119d741e5cdddfb3375cc0000000000000000000000000000000000000000000000a2ade8b08778d400001ca0d45a65c35c5c567821c6bbe44f04dddbcd9fb10ff38034cc71814a20916e905ba02ab287f763101bc708543f662d14d1b138262184e64e589d2e51627be56c0d29",
      "networkId": 0,
      "chainId": 0
    },
    {
      "hash": "0xaa2fac8fd726d199f41aa0448ffea5eabe7969a4165bf77d65781bbf619f3bbc",
      "blockHash": "0xa6305bec707590a2e4c77b25443053401aacdc1803b086b88ec0715097019c15",
      "blockNumber": 98454,
      "transactionIndex": 3,
      "confirmations": null,
      "from": "0x8F79f76381Aad7B98C19aF55eE75fdfEeb012211",
      "gasPrice": {
        "_hex": "0xcf3b6437f"
      },
      "gasLimit": {
        "_hex": "0x5208"
      },
      "to": "0x32Be343B94f860124dC4fEe278FDCBD38C102D88",
      "value": {
        "_hex": "0x882cbe5b4e64d0000"
      },
      "nonce": 36,
      "data": "0x",
      "r": "0x459d3257aca4dae9f80b54345c925a55c4fcbfa26fa4ba2f8504207aa4b668d9",
      "s": "0x456a3cf1562ce086464b2494677caae5e3804d93de004a4d141efdf1a3ccc4b4",
      "v": 28,
      "creates": null,
      "raw": "0xf86d24850cf3b6437f8252089432be343b94f860124dc4fee278fdcbd38c102d88890882cbe5b4e64d0000801ca0459d3257aca4dae9f80b54345c925a55c4fcbfa26fa4ba2f8504207aa4b668d9a0456a3cf1562ce086464b2494677caae5e3804d93de004a4d141efdf1a3ccc4b4",
      "networkId": 0,
      "chainId": 0
    }
  ]
}