{
  "hash": "0x4a2da714c8c6678697cc60be6d736e5d9ad4064a984ab82bc7417b92693de0c8",
  "parentHash": "0xbc89bde348310674a9e44b87b3a6ebf9b0d8c939a60089b95d06759d8454e695",
  "number": 70332,
  "timestamp": 1439318325,
  "nonce": "0xb5354496e013fb0e",
  "difficulty": 2131232993168,
  "gasLimit": {
    "_hex": "0x2fe3fc"
  },
  "gasUsed": {
    "_hex": "0x5208"
  },
  "miner": "0x08A2e2E8Aa27cF67a48dDb5DD92F170Eb4a90BFE",
  "extraData": "0x476574682f76312e302e302d66633739643332642f6c696e75782f676f312e34",
  "transactions": [
    {
      "hash": "0x37ee79771031978c1820764cc8dced24545d59eedd407df47a9daa86fa3a7355",
      "blockHash": "0x4a2da714c8c6678697cc60be6d736e5d9ad4064a984ab82bc7417b92693de0c8",
      "blockNumber": 70332,
      "transactionIndex": 0,
      "confirmations": null,
      "from": "0x232832cD5977e00a4c30D0163F2E24F088A6Cb09",
      "gasPrice": {
        "_hex": "0x102d3c3156b"
      },
      "gasLimit": {
        "_hex": "0x15f90"
      },
      "to": "0x919a0748E207c101103e6b771b7c3b7bd9c66015",
      "value": {
        "_hex": "0x905438e60010000"
      },
      "nonce": 3,
      "data": "0x",
      "r": "0x4193d21d53ac28002d5e043975426a43af07f5eafe23d47cc0dfca21c0d55d13",
      "s": "0x4d1cf00419afe681305c416e0cc1f615ac2edb394fc648f1f4123879bd4327e5",
      "v": 27,
      "creates": null,
      "raw": "0xf86e03860102d3c3156b83015f9094919a0748e207c101103e6b771b7c3b7bd9c66015880905438e60010000801ba04193d21d53ac28002d5e043975426a43af07f5eafe23d47cc0dfca21c0d55d13a04d1cf00419afe681305c416e0cc1f615ac2edb394fc648f1f4123879bd4327e5",
      "networkId": 0,
      "chainId": 0
    }
  ]
}