{
  "hash": "0xe6691e3cc18e4ed4bba0e3309e20c68ab49328787ffbae835b853062466f7d0b",
  "parentHash": "0x875c2d52ded5bfa40eb127013121692e321cafa45911582ec77c2d2b7d4acf9b",
  "number": 119725,
  "timestamp": 1440147838,
  "nonce": "0x1ce1fa536628f067",
  "difficulty": 4383569802754,
  "gasLimit": {
    "_hex": "0x2fefd8"
  },
  "gasUsed": {
    "_hex": "0x5208"
  },
  "miner": "0x790b8a3cE86E707ED0eD32bF89B3269692a23CC1",
  "extraData": "0xd783010002844765746887676f312e342e32856c696e7578",
  "transactions": [
    {
      "hash": "0xfc13ad2ec8d271324ceb2cdd15f6ff2d10a6795b853824a26875ad1e5847ca1b",
      "blockHash": "0xe6691e3cc18e4ed4bba0e3309e20c68ab49328787ffbae835b853062466f7d0b",
      "blockNumber": 119725,
      "transactionIndex": 0,
      "confirmations": null,
      "from": "0xb1abce2918E21ddb93AA452731a12672A3d9F75a",
      "gasPrice": {
        "_hex": "0xba43b7400"
      },
      "gasLimit": {
        "_hex": "0x5208"
      },
      "to": "0x32Be343B94f860124dC4fEe278FDCBD38C102D88",
      "value": {
        "_hex": "0x455fd68a17f06000"
      },
      "nonce": 199,
      "data": "0x",
      "r": "0x8e8722b923bae16692ed5f67ec4b9d23ac9df45485538afb48dfad87cc04668a",
      "s": "0x33c943537e833ead39877fc4d75f6537f430e223dad8c5aa91ea7c1704b84f3b",
      "v": 28,
      "creates": null,
      "raw": "0xf86d81c7850ba43b74008252089432be343b94f860124dc4fee278fdcbd38c102d8888455fd68a17f06000801ca08e8722b923bae16692ed5f67ec4b9d23ac9df45485538afb48dfad87cc04668aa033c943537e833ead39877fc4d75f6537f430e223dad8c5aa91ea7c1704b84f3b",
      "networkId": 0,
      "chainId": 0
    }
  ]
}