{
  "hash": "0x0ddd1c2322c50d1d52233aeb2fcb48d7f60f225244de8600fd5199cff9fc8e8c",
  "parentHash": "0x9c6a9cfd77c73290d4d44b53e5a7e0914adcfd969d9def2263b21ab0e2ca35f8",
  "number": 56485,
  "timestamp": 1439088005,
  "nonce": "0x2646c54c10e042ec",
  "difficulty": 1656875143595,
  "gasLimit": {
    "_hex": "0x2fefd8"
  },
  "gasUsed": {
    "_hex": "0x5208"
  },
  "miner": "0xDB470f0725C7F05F89FA2014c385d81bA9a8679E",
  "extraData": "0x",
  "transactions": [
    {
      "hash": "0xbea671251a9598581cb33405d92199e466f6b97d9761016a6d2f69448b7391b3",
      "blockHash": "0x0ddd1c2322c50d1d52233aeb2fcb48d7f60f225244de8600fd5199cff9fc8e8c",
      "blockNumber": 56485,
      "transactionIndex": 0,
      "confirmations": null,
      "from": "0x1308A2e95c0160B90803ddCA9B9a5bb55E416d79",
      "gasPrice": {
        "_hex": "0xe8d4a51000"
      },
      "gasLimit": {
        "_hex": "0x15f90"
      },
      "to": "0x7266c8FD66eD582bEA23bd8BC48E58D7f17321F3",
      "value": {
        "_hex": "0x56bc75e2d63100000"
      },
      "nonce": 62,
      "data": "0x",
      "r": "0x74d5d2545020091370bd74416e6f041fd588092d2154df04ed86f7ad06b5534a",
      "s": "0x5d4c54a990f31612cc95b64f9ff6593528d99c2f680d3bd0f1a7a59cf1430bdc",
      "v": 27,
      "creates": null,
      "raw": "0xf86e3e85e8d4a5100083015f90947266c8fd66ed582bea23bd8bc48e58d7f17321f389056bc75e2d63100000801ba074d5d2545020091370bd74416e6f041fd588092d2154df04ed86f7ad06b5534aa05d4c54a990f31612cc95b64f9ff6593528d99c2f680d3bd0f1a7a59cf1430bdc",
      "networkId": 0,
      "chainId": 0
    }
  ]
}