{
  "hash": "0x8e0ef6b2be449643e13f6b68cdbf17be1155db50e8a53cea062c33884d297eee",
  "parentHash": "0x390ac0b2d25960635ef956ae31a026753c3d77ac1e878ecc820b53ef8759ce72",
  "number": 52633,
  "timestamp": 1439024841,
  "nonce": "0x2b379da9ba117fd9",
  "difficulty": 1567886465446,
  "gasLimit": {
    "_hex": "0x16accf"
  },
  "gasUsed": {
    "_hex": "0xf4240"
  },
  "miner": "0xf8E0CA3Ed80bd541b94BEdCf259e8CF2141A9523",
  "extraData": "0x476574682f76312e302e312f77696e646f77732f676f312e342e32",
  "transactions": [
    {
      "hash": "0xf7ef2c1d87d17835bb4397ba1833263a0cf9d84405b49c15ee4f468e1f0df607",
      "blockHash": "0x8e0ef6b2be449643e13f6b68cdbf17be1155db50e8a53cea062c33884d297eee",
      "blockNumber": 52633,
      "transactionIndex": 0,
      "confirmations": null,
      "from": "0x54dAeb3E8a6BBC797E4aD2b0339f134b186e4637",
      "gasPrice": {
        "_hex": "0xe1780dfbb"
      },
      "gasLimit": {
        "_hex": "0x7a120"
      },
      "to": "0xBAA54d6E90c3F4d7Ebec11bD180134C7eD8eBb52",
      "value": {
        "_hex": "0x16345785d8a0000"
      },
      "nonce": 825,
      "data": "0x",
      "r": "0xdb122bebd5884495cd0a777feb8ee35d13dca74a5de33c9f2984679dfd49b6f8",
      "s": "0x52f2e92ac9858d4d37423a6d6a91905349b27dae5438be53676e577cd2ad7181",
      "v": 27,
      "creates": null,
      "raw": "0xf86f820339850e1780dfbb8307a12094baa54d6e90c3f4d7ebec11bd180134c7ed8ebb5288016345785d8a0000801ba0db122bebd5884495cd0a777feb8ee35d13dca74a5de33c9f2984679dfd49b6f8a052f2e92ac9858d4d37423a6d6a91905349b27dae5438be53676e577cd2ad7181",
      "networkId": 0,
      "chainId": 0
    },
    {
      "hash": "0x5760b93515e8a14733b2075e5e09012dc587f549c5f265ecb2f5819de7f8bad2",
      "blockHash": "0x8e0ef6b2be449643e13f6b68cdbf17be1155db50e8a53cea062c33884d297eee",
      "blockNumber": 52633,
      "transactionIndex": 1,
      "confirmations": null,
      "from": "0x54dAeb3E8a6BBC797E4aD2b0339f134b186e4637",
      "gasPrice": {
        "_hex": "0xd8bd64e50"
      },
      "gasLimit": {
        "_hex": "0x7a120"
      },
      "to": "0xBAA54d6E90c3F4d7Ebec11bD180134C7eD8eBb52",
      "value": {
        "_hex": "0x16345785d8a0000"
      },
      "nonce": 826,
      "data": "0x",
      "r": "0x5c7dcb236a6c5d5851c016a9cc748f21e37d9787e2fd0e9c8e227270038240f8",
      "s": "0x7d593f46316cb9b10c36d5b0974424a0ae46900a2a97c163ac3e3aa46a4c89cc",
      "v": 28,
      "creates": null,
      "raw": "0xf86f82033a850d8bd64e508307a12094baa54d6e90c3f4d7ebec11bd180134c7ed8ebb5288016345785d8a0000801ca05c7dcb236a6c5d5851c016a9cc748f21e37d9787e2fd0e9c8e227270038240f8a07d593f46316cb9b10c36d5b0974424a0ae46900a2a97c163ac3e3aa46a4c89cc",
      "networkId": 0,
      "chainId": 0
    }
  ]
}