{
  "hash": "0x6a57c58889172c6a6c305ae2d2533cf05798d85875e03a751fe9a19e6190538b",
  "parentHash": "0x088002895537f55d28810a87cbdd4e0299e57afee303cbeeebd75bdbbee5340b",
  "number": 94743,
  "timestamp": 1439713510,
  "nonce": "0x4b648ee31d8304ae",
  "difficulty": 3481429713851,
  "gasLimit": {
    "_hex": "0x2fefd8"
  },
  "gasUsed": {
    "_hex": "0x5208"
  },
  "miner": "0xC603Ab5ef41fC61AA8b76bEddb09e3Cfcbb174BD",
  "extraData": "0x476574682f76312e302e312f77696e646f77732f676f312e342e32",
  "transactions": [
    {
      "hash": "0x7fd5dad75b2f8b9af2e8c16a9bba7f0b0559bfe9b6ccb111f96e41e6cfddb2b7",
      "blockHash": "0x6a57c58889172c6a6c305ae2d2533cf05798d85875e03a751fe9a19e6190538b",
      "blockNumber": 94743,
      "transactionIndex": 0,
      "confirmations": null,
      "from": "0xFAF4d1326d886D8dFe403B3F8A00DC7a7EA05629",
      "gasPrice": {
        "_hex": "0xcb811228d"
      },
      "gasLimit": {
        "_hex": "0x5208"
      },
      "to": "0x32Be343B94f860124dC4fEe278FDCBD38C102D88",
      "value": {
        "_hex": "0x3f99bb75b21cf400"
      },
      "nonce": 3,
      "data": "0x",
      "r": "0x944f4d2b92f973c3f02bca66f75a1d0e10b87aefe103fce831a733703b326bca",
      "s": "0x7bf0209cdb627697a587e760db8878732ba1fb99278035777be7f7422cd97906",
      "v": 28,
      "creates": null,
      "raw": "0xf86c03850cb811228d8252089432be343b94f860124dc4fee278fdcbd38c102d88883f99bb75b21cf400801ca0944f4d2b92f973c3f02bca66f75a1d0e10b87aefe103fce831a733703b326bcaa07bf0209cdb627697a587e760db8878732ba1fb99278035777be7f7422cd97906",
      "networkId": 0,
      "chainId": 0
    }
  ]
}