{
  "hash": "0x9e4ce80354c9f16cd06f6f1b5458cdf81a45c95ec9718367f021de4224653338",
  "parentHash": "0x31228ac9d236b74a01685b845e3cee979ccafe0d984bdae90e518d4191a73c55",
  "number": 95981,
  "timestamp": 1439733125,
  "nonce": "0x53e4ff04ee8f491c",
  "difficulty": 3612517304299,
  "gasLimit": {
    "_hex": "0x2fefd8"
  },
  "gasUsed": {
    "_hex": "0x5208"
  },
  "miner": "0x0D4EcC7d750180EBf4A9Df728B6669B5Bceb5E40",
  "extraData": "0x",
  "transactions": [
    {
      "hash": "0x2a673e136500a96fd9175bc6168e2aaa901e6431c7b1ab384aaa79cce83f3965",
      "blockHash": "0x9e4ce80354c9f16cd06f6f1b5458cdf81a45c95ec9718367f021de4224653338",
      "blockNumber": 95981,
      "transactionIndex": 0,
      "confirmations": null,
      "from": "0x87898CE53471043FcCa0a2aF4E1dC6d8B3fCf607",
      "gasPrice": {
        "_hex": "0xd689930a8"
      },
      "gasLimit": {
        "_hex": "0x5208"
      },
      "to": "0xBFdD9820a04283b289957956353b5F3C1F665EcF",
      "value": {
        "_hex": "0x1158e460913d00000"
      },
      "nonce": 41,
      "data": "0x",
      "r": "0x2db6045110dcdcfdc351e82f79c6563a848593acbcab41ee7e9a50f1304aedde",
      "s": "0x23c4b55f9350561823b91c561b223b354a2d95071c0fa86f7554f2f1410d2b6d",
      "v": 28,
      "creates": null,
      "raw": "0xf86d29850d689930a882520894bfdd9820a04283b289957956353b5f3c1f665ecf8901158e460913d00000801ca02db6045110dcdcfdc351e82f79c6563a848593acbcab41ee7e9a50f1304aeddea023c4b55f9350561823b91c561b223b354a2d95071c0fa86f7554f2f1410d2b6d",
      "networkId": 0,
      "chainId": 0
    }
  ]
}