{
  "hash": "0xf115e4f41b730a3589df70cceef05509d9b349b1268e3b830e95534482aa8934",
  "parentHash": "0xc26674d473202aedc97587e7923a941da23286ccfa31d74d9e4abf82d20a3eef",
  "number": 46323,
  "timestamp": 1438921248,
  "nonce": "0x5370b6ac761724b5",
  "difficulty": 1462530591591,
  "gasLimit": {
    "_hex": "0x5a5f"
  },
  "gasUsed": {
    "_hex": "0x5208"
  },
  "miner": "0x1217627fe41A00f0b828317F43E6d58F47dBfc43",
  "extraData": "0x476574682f76312e302e302d66313265303136312f6c696e75782f676f312e34",
  "transactions": [
    {
      "hash": "0x6a5f6d09e9a78b143e1c44dbdef83dfc2e90ced7c9e4817890f69f575771bb37",
      "blockHash": "0xf115e4f41b730a3589df70cceef05509d9b349b1268e3b830e95534482aa8934",
      "blockNumber": 46323,
      "transactionIndex": 0,
      "confirmations": null,
      "from": "0x4F4a9Be10CD5D3FB5De48C17bE296f895690645b",
      "gasPrice": {
        "_hex": "0x1bf08eb000"
      },
      "gasLimit": {
        "_hex": "0x5208"
      },
      "to": "0x365B685282c9b242Ec345fB64731ecfC4fcb834C",
      "value": {
        "_hex": "0x56bc75e2d63100000"
      },
      "nonce": 0,
      "data": "0x",
      "r": "0x9c1c78994296d4ff80aac92bb58c130967488c18fc5ad464866743df1abefa8d",
      "s": "0x3717170eabfece015c003840dd71332838d7e470678585f93ea5d1f9b2f9e9ba",
      "v": 28,
      "creates": null,
      "raw": "0xf86d80851bf08eb00082520894365b685282c9b242ec345fb64731ecfc4fcb834c89056bc75e2d63100000801ca09c1c78994296d4ff80aac92bb58c130967488c18fc5ad464866743df1abefa8da03717170eabfece015c003840dd71332838d7e470678585f93ea5d1f9b2f9e9ba",
      "networkId": 0,
      "chainId": 0
    }
  ]
}