{
  "hash": "0x0b4158a4c8c7127d5a0e003e5d6edd38d032fce79249207add988ac3aeb80fc6",
  "parentHash": "0x7fcfa7af4beba51db5640f118a5b7210da855112e88529483f3d6143293325fc",
  "number": 108101,
  "timestamp": 1439934058,
  "nonce": "0xf561b2a51d235a4f",
  "difficulty": 4385363603662,
  "gasLimit": {
    "_hex": "0x2fefd8"
  },
  "gasUsed": {
    "_hex": "0x5208"
  },
  "miner": "0xa50ec0D39fa913E62f1Bae7074E6F36caA71855b",
  "extraData": "0xd783010001844765746887676f312e342e32856c696e7578",
  "transactions": [
    {
      "hash": "0x0f5897593940057fc78cd3e09c06453c01e3694c6b4c7e7700b1caf54bb1d793",
      "blockHash": "0x0b4158a4c8c7127d5a0e003e5d6edd38d032fce79249207add988ac3aeb80fc6",
      "blockNumber": 108101,
      "transactionIndex": 0,
      "confirmations": null,
      "from": "0x2547379D8E07e629D3726c8BeE29854981C8903C",
      "gasPrice": {
        "_hex": "0xd9354b45b"
      },
      "gasLimit": {
        "_hex": "0x5208"
      },
      "to": "0xFBb1b73C4f0BDa4f67dcA266ce6Ef42f520fBB98",
      "value": {
        "_hex": "0xddc5d15eaf93728"
      },
      "nonce": 0,
      "data": "0x",
      "r": "0x57f48e13dc93d58e7f2c166a6474f8f929419cd72c6b3f961bd43a4988724f3e",
      "s": "0x35657961dbd784aa023cca64c58242e820729f701613f81fcea6cfd25d875487",
      "v": 27,
      "creates": null,
      "raw": "0xf86c80850d9354b45b82520894fbb1b73c4f0bda4f67dca266ce6ef42f520fbb98880ddc5d15eaf93728801ba057f48e13dc93d58e7f2c166a6474f8f929419cd72c6b3f961bd43a4988724f3ea035657961dbd784aa023cca64c58242e820729f701613f81fcea6cfd25d875487",
      "networkId": 0,
      "chainId": 0
    }
  ]
}