{
  "hash": "0xd1393e7d115d23cdad7b276101a3ffc2c578dfe374a602564b54c07324387c6d",
  "parentHash": "0x624f518dab6b51a9e89a19827d503ff6356fb7674ff55f38ebe86b4239aa8333",
  "number": 51520,
  "timestamp": 1439006242,
  "nonce": "0x58a48db269f2f80d",
  "difficulty": 1567329022039,
  "gasLimit": {
    "_hex": "0xbab2c"
  },
  "gasUsed": {
    "_hex": "0xddfd"
  },
  "miner": "0xe6A7a1d47ff21B6321162AEA7C6CB457D5476Bca",
  "extraData": "0x657468706f6f6c2e6f7267",
  "transactions": [
    {
      "hash": "0x755da70669951b81c92da59926d685a790e9eb34b4754adee66d3e9016a2e9f3",
      "blockHash": "0xd1393e7d115d23cdad7b276101a3ffc2c578dfe374a602564b54c07324387c6d",
      "blockNumber": 51520,
      "transactionIndex": 0,
      "confirmations": null,
      "from": "0x7C4401aE98F12eF6de39aE24cf9fc51f80EBa16B",
      "gasPrice": {
        "_hex": "0xcc8bba6a3"
      },
      "gasLimit": {
        "_hex": "0x7a120"
      },
      "to": "0xA327075af2a223A1C83a36aDa1126afE7430f955",
      "value": {
        "_hex": "0x8ac7230489e80000"
      },
      "nonce": 4,
      "data": "0x",
      "r": "0xf65c51d25a57047ef8becad58680c34778d11a9168a80161140e985fbf05d70c",
      "s": "0x3d2d45ca8e9ba1ef5f38dad696a9c55863fc4497e2feb625ce166994b5fe1ca6",
      "v": 28,
      "creates": null,
      "raw": "0xf86d04850cc8bba6a38307a12094a327075af2a223a1c83a36ada1126afe7430f955888ac7230489e80000801ca0f65c51d25a57047ef8becad58680c34778d11a9168a80161140e985fbf05d70ca03d2d45ca8e9ba1ef5f38dad696a9c55863fc4497e2feb625ce166994b5fe1ca6",
      "networkId": 0,
      "chainId": 0
    }
  ]
}