{
  "hash": "0xda3590486d0fbc98df081c0f2ab48810887d0319012e7af7040885cb61f6082f",
  "parentHash": "0xa92dbd934340f786a9ed70c94b1013ea429ebb9e0eab5df46696ead318b37f2d",
  "number": 65117,
  "timestamp": 1439231663,
  "nonce": "0xcf098ed016bb0079",
  "difficulty": 1925665398297,
  "gasLimit": {
    "_hex": "0x2fefd8"
  },
  "gasUsed": {
    "_hex": "0x13269"
  },
  "miner": "0x5F8F73E26CdF436f19Cb24C82F90A15AFe55b592",
  "extraData": "0x476574682f76312e302e312f77696e646f77732f676f312e342e32",
  "transactions": [
    {
      "hash": "0x1b1e3aee84f84d5c58e7f96e438fd78211012f4f40da6e3f5e6d5243b65159dc",
      "blockHash": "0xda3590486d0fbc98df081c0f2ab48810887d0319012e7af7040885cb61f6082f",
      "blockNumber": 65117,
      "transactionIndex": 0,
      "confirmations": null,
      "from": "0x4197aa0c90c2D4AD72A06a26a014C315a589579D",
      "gasPrice": {
        "_hex": "0x9184e72a000"
      },
      "gasLimit": {
        "_hex": "0x7a120"
      },
      "to": "0xBAA54d6E90c3F4d7Ebec11bD180134C7eD8eBb52",
      "value": {
        "_hex": "0x16345785d8a0000"
      },
      "nonce": 1,
      "data": "0x",
      "r": "0x958ec97c0d2ee76bd913386042d869e86003b6fad16bfcc65f1a4297e4b9a253",
      "s": "0x86f748a8c4962ec8cc1c757aa4bba80f7d283e981c730b1e720e7dcb3cf24b42",
      "v": 28,
      "creates": null,
      "raw": "0xf86e018609184e72a0008307a12094baa54d6e90c3f4d7ebec11bd180134c7ed8ebb5288016345785d8a0000801ca0958ec97c0d2ee76bd913386042d869e86003b6fad16bfcc65f1a4297e4b9a253a086f748a8c4962ec8cc1c757aa4bba80f7d283e981c730b1e720e7dcb3cf24b42",
      "networkId": 0,
      "chainId": 0
    },
    {
      "hash": "0x0e0a280a19c5253c9cb3c836309adbcdecf167c4ff7fa512d6074fe48a971d01",
      "blockHash": "0xda3590486d0fbc98df081c0f2ab48810887d0319012e7af7040885cb61f6082f",
      "blockNumber": 65117,
      "transactionIndex": 1,
      "confirmations": null,
      "from": "0x827531A6c5817Ae35F82b00B9754FCf74c55E232",
      "gasPrice": {
        "_hex": "0xdc8bbecd7"
      },
      "gasLimit": {
        "_hex": "0x927c0"
      },
      "to": "0x2910543Af39abA0Cd09dBb2D50200b3E800A63D2",
      "value": {
        "_hex": "0x3635c9adc5dea00000"
      },
      "nonce": 5,
      "data": "0x454e38413346393352",
      "r": "0x0346baafbcfdb0fd339cf16521c2d85966e6066c8a2b49d55a8b4ed040da5d57",
      "s": "0x1d75ea8952b79ff5892adc8167c0233e2023ed9ea4ffc1405c43dfa44bb62799",
      "v": 28,
      "creates": null,
      "raw": "0xf87705850dc8bbecd7830927c0942910543af39aba0cd09dbb2d50200b3e800a63d2893635c9adc5dea0000089454e384133463933521ca00346baafbcfdb0fd339cf16521c2d85966e6066c8a2b49d55a8b4ed040da5d57a01d75ea8952b79ff5892adc8167c0233e2023ed9ea4ffc1405c43dfa44bb62799",
      "networkId": 0,
      "chainId": 0
    }
  ]
}