{
  "hash": "0x2616c5ed550987ff2793f24cceef0e5edaa14fb1c07249f4c459a2b3239c5e37",
  "parentHash": "0x345524b1114041ea27bc5f645c6b5ee22df434b3d2b7c45bdc2d4f91f14bdc08",
  "number": 106831,
  "timestamp": 1439911419,
  "nonce": "0xe4728c6d825a4a04",
  "difficulty": 4424746555711,
  "gasLimit": {
    "_hex": "0x2fefd8"
  },
  "gasUsed": {
    "_hex": "0x19a28"
  },
  "miner": "0xe6A7a1d47ff21B6321162AEA7C6CB457D5476Bca",
  "extraData": "0x476574682f76312e302e312d38326566323666362f6c696e75782f676f312e34",
  "transactions": [
    {
      "hash": "0x2ec83c62dc3a548043e3952de34203e40824c5682e0f66ee37d058ce6dde43b7",
      "blockHash": "0x2616c5ed550987ff2793f24cceef0e5edaa14fb1c07249f4c459a2b3239c5e37",
      "blockNumber": 106831,
      "transactionIndex": 0,
      "confirmations": null,
      "from": "0x4Eaf4CaDd87499C20bA3412B1D222f9a72DA7AFF",
      "gasPrice": {
        "_hex": "0xd3f4cc6e1"
      },
      "gasLimit": {
        "_hex": "0x5208"
      },
      "to": "0x32Be343B94f860124dC4fEe278FDCBD38C102D88",
      "value": {
        "_hex": "0x8703eeae1466580000"
      },
      "nonce": 6,
      "data": "0x",
      "r": "0xafbca7cdfa8735137c31d502003ac44d212ca477d3e6a6f263f89e80bc986e52",
      "s": "0x487557fee1d320206f6c63dd50c628df2824e7b017da56042eaa94143cd7c1d5",
      "v": 27,
      "creates": null,
      "raw": "0xf86d06850d3f4cc6e18252089432be343b94f860124dc4fee278fdcbd38c102d88898703eeae1466580000801ba0afbca7cdfa8735137c31d502003ac44d212ca477d3e6a6f263f89e80bc986e52a0487557fee1d320206f6c63dd50c628df2824e7b017da56042eaa94143cd7c1d5",
      "networkId": 0,
      "chainId": 0
    },
    {
      "hash": "0x589b66ac7ec71cd9f36d751998ba55ff099dc7f61abce3bb034441d272aa9033",
      "blockHash": "0x2616c5ed550987ff2793f24cceef0e5edaa14fb1c07249f4c459a2b3239c5e37",
      "blockNumber": 106831,
      "transactionIndex": 1,
      "confirmations": null,
      "from": "0xC6c676946C54B5e7c31A07a079166C488Bf06dd7",
      "gasPrice": {
        "_hex": "0xd3f4cc6e1"
      },
      "gasLimit": {
        "_hex": "0x5208"
      },
      "to": "0x32Be343B94f860124dC4fEe278FDCBD38C102D88",
      "value": {
        "_hex": "0xe33f6bd2c46a08000"
      },
      "nonce": 5,
      "data": "0x",
      "r": "0x257b040469556cd11fabb8b60083e4119587862820c6b1dcff5606f05a4467c7",
      "s": "0x54ee1672451d6f20b2e027a89516af397ddeae7e9730d93eba042d6edb1672ba",
      "v": 28,
      "creates": null,
      "raw": "0xf86d05850d3f4cc6e18252089432be343b94f860124dc4fee278fdcbd38c102d88890e33f6bd2c46a08000801ca0257b040469556cd11fabb8b60083e4119587862820c6b1dcff5606f05a4467c7a054ee1672451d6f20b2e027a89516af397ddeae7e9730d93eba042d6edb1672ba",
      "networkId": 0,
      "chainId": 0
    },
    {
      "hash": "0x2854f86901742b31f089e91659c475d04137d2e332f639e4cdcbfde76ecf6efc",
      "blockHash": "0x2616c5ed550987ff2793f24cceef0e5edaa14fb1c07249f4c459a2b3239c5e37",
      "blockNumber": 106831,
      "transactionIndex": 2,
      "confirmations": null,
      "from": "0xcabcF33e299eEFB1bBde6Ef75a21853831e8b339",
      "gasPrice": {
        "_hex": "0xcf23689f1"
      },
      "gasLimit": {
        "_hex": "0x15f90"
      },
      "to": "0xf00955cEDD33a99B4a993aABeb4239e268aaD294",
      "value": {
        "_hex": "0x3d0ff0b013b80000"
      },
      "nonce": 1,
      "data": "0x",
      "r": "0xecee9c92280afb650e1a4e67b5e5d3990ee7d5d71fe6adb9641ac60d855213fc",
      "s": "0x3fc9471dccaaae4fbae3b88b7b786c14720a16118347e5833c1fe4d3cec4cc37",
      "v": 28,
      "creates": null,
      "raw": "0xf86d01850cf23689f183015f9094f00955cedd33a99b4a993aabeb4239e268aad294883d0ff0b013b80000801ca0ecee9c92280afb650e1a4e67b5e5d3990ee7d5d71fe6adb9641ac60d855213fca03fc9471dccaaae4fbae3b88b7b786c14720a16118347e5833c1fe4d3cec4cc37",
      "networkId": 0,
      "chainId": 0
    },
    {
      "hash": "0x89cd6289d6ec04a1959e29e6d79e36b3775eee53fdaf9ba708886ab68907dcf6",
      "blockHash": "0x2616c5ed550987ff2793f24cceef0e5edaa14fb1c07249f4c459a2b3239c5e37",
      "blockNumber": 106831,
      "transactionIndex": 3,
      "confirmations": null,
      "from": "0x120A270bbC009644e35F0bB6ab13f95b8199c4ad",
      "gasPrice": {
        "_hex": "0xcbec0cd4e"
      },
      "gasLimit": {
        "_hex": "0x3d090"
      },
      "to": "0x60d85a32126130b225913C23dF4e5EF8b759fA09",
      "value": {
        "_hex": "0x25f273933db5700000"
      },
      "nonce": 789,
      "data": "0x",
      "r": "0x887fcf3e31d4ffa583940c5970cf82b4e274a3f3df48ebadda1a100655d1c288",
      "s": "0x16385cca4605f0fed4ebb4b9c3c984fc71c93be6386e7deedd75259ec97ea6ac",
      "v": 28,
      "creates": null,
      "raw": "0xf870820315850cbec0cd4e8303d0909460d85a32126130b225913c23df4e5ef8b759fa098925f273933db5700000801ca0887fcf3e31d4ffa583940c5970cf82b4e274a3f3df48ebadda1a100655d1c288a016385cca4605f0fed4ebb4b9c3c984fc71c93be6386e7deedd75259ec97ea6ac",
      "networkId": 0,
      "chainId": 0
    },
    {
      "hash": "0x4c480fd58444c35fbc7307e4cee1aadc230de5dd256695ccf885c2e19b715510",
      "blockHash": "0x2616c5ed550987ff2793f24cceef0e5edaa14fb1c07249f4c459a2b3239c5e37",
      "blockNumber": 106831,
      "transactionIndex": 4,
      "confirmations": null,
      "from": "0x76d4a9bc9612bE738A81d0fE632b00B971E2bB9a",
      "gasPrice": {
        "_hex": "0xba43b7400"
      },
      "gasLimit": {
        "_hex": "0x55f0"
      },
      "to": "0xb50405193Dc0c7077dD65252C15C39242F0aCB76",
      "value": {
        "_hex": "0x1158e460913d00000"
      },
      "nonce": 10,
      "data": "0x",
      "r": "0x7b5b2c4443fa4746f842f917d991ec09d4f3bee32d0b0fe1b309fc334cc9da81",
      "s": "0x5d259d58977fe949e14d9eb21be76f9ffafc29e396e55d69a3a6ca809c0f431d",
      "v": 27,
      "creates": null,
      "raw": "0xf86d0a850ba43b74008255f094b50405193dc0c7077dd65252c15c39242f0acb768901158e460913d00000801ba07b5b2c4443fa4746f842f917d991ec09d4f3bee32d0b0fe1b309fc334cc9da81a05d259d58977fe949e14d9eb21be76f9ffafc29e396e55d69a3a6ca809c0f431d",
      "networkId": 0,
      "chainId": 0
    }
  ]
}