{
  "hash": "0x91050166ec15ce8df61e96b54e9463d40ebfdfa45b7ffc3f1ef5d4bed78d3181",
  "parentHash": "0x0e31e6a1e03120e7ec52ded9e9c3e423f289ab328ecd44dd61821ac57a65f96d",
  "number": 53416,
  "timestamp": 1439037263,
  "nonce": "0xcd9d6c1780126a7f",
  "difficulty": 1591651077745,
  "gasLimit": {
    "_hex": "0x277c20"
  },
  "gasUsed": {
    "_hex": "0x546c"
  },
  "miner": "0x0037ce3d4B7f8729C8607D8D0248252Be68202c0",
  "extraData": "0x476574682f76312e302e312f77696e646f77732f676f312e342e32",
  "transactions": [
    {
      "hash": "0x6a279af6cca55e8476231d5d90ffbf147e6828ff70f975acbb38bc7fbeb0425f",
      "blockHash": "0x91050166ec15ce8df61e96b54e9463d40ebfdfa45b7ffc3f1ef5d4bed78d3181",
      "blockNumber": 53416,
      "transactionIndex": 0,
      "confirmations": null,
      "from": "0xf1C63182E2074b561fC3999a9ABEf18aD2B18052",
      "gasPrice": {
        "_hex": "0xdc504e776"
      },
      "gasLimit": {
        "_hex": "0x15f90"
      },
      "to": "0x2910543Af39abA0Cd09dBb2D50200b3E800A63D2",
      "value": {
        "_hex": "0x9f98351204fe00000"
      },
      "nonce": 0,
      "data": "0x454e475942484b5a52",
      "r": "0xeafd2ee5e33106b5d22837be22c6cb5459bd81cf7caafdde0c6e410cf2e2cc28",
      "s": "0x0869220debf6476e92706391a5b0b2989e69cca04ab0aa11231ac1352b5ee246",
      "v": 28,
      "creates": null,
      "raw": "0xf87780850dc504e77683015f90942910543af39aba0cd09dbb2d50200b3e800a63d28909f98351204fe0000089454e475942484b5a521ca0eafd2ee5e33106b5d22837be22c6cb5459bd81cf7caafdde0c6e410cf2e2cc28a00869220debf6476e92706391a5b0b2989e69cca04ab0aa11231ac1352b5ee246",
      "networkId": 0,
      "chainId": 0
    }
  ]
}