{
  "hash": "0x2edc8b3e775102664af08f9b85dfda72cf9dca32d08febff33b1b624cce2f156",
  "parentHash": "0xf8fd020f59e61180a95a2dd2042c99824d70247ac1edf74ef68c3764320121a1",
  "number": 70046,
  "timestamp": 1439313942,
  "nonce": "0x3241964fcd871bf3",
  "difficulty": 2106475191409,
  "gasLimit": {
    "_hex": "0x2fefd8"
  },
  "gasUsed": {
    "_hex": "0x5208"
  },
  "miner": "0xbb7B8287f3F0a933474a79eAe42CBCa977791171",
  "extraData": "0x476574682f4c5649562f76312e302e312f6c696e75782f676f312e342e32",
  "transactions": [
    {
      "hash": "0x8b5b2924c420b2eeb57a490e37ecf751093da87db3e4164e0402a075ae2c315e",
      "blockHash": "0x2edc8b3e775102664af08f9b85dfda72cf9dca32d08febff33b1b624cce2f156",
      "blockNumber": 70046,
      "transactionIndex": 0,
      "confirmations": null,
      "from": "0xDA4E0Ba268486216E0B3Ad5ccEAa1E7EdB1C2751",
      "gasPrice": {
        "_hex": "0xd9501b2b0"
      },
      "gasLimit": {
        "_hex": "0x5208"
      },
      "to": "0x32Be343B94f860124dC4fEe278FDCBD38C102D88",
      "value": {
        "_hex": "0x8eec8e9559f54800"
      },
      "nonce": 2,
      "data": "0x",
      "r": "0x07c79df81aecb8c01cd8f59406a10ec0b5f9212ae6ae523f1c0585382eeeacee",
      "s": "0x53ce07aa33e5ed4bc564414fca57e59abbeebf389f9b0250b52d4bfb246aa271",
      "v": 28,
      "creates": null,
      "raw": "0xf86c02850d9501b2b08252089432be343b94f860124dc4fee278fdcbd38c102d88888eec8e9559f54800801ca007c79df81aecb8c01cd8f59406a10ec0b5f9212ae6ae523f1c0585382eeeaceea053ce07aa33e5ed4bc564414fca57e59abbeebf389f9b0250b52d4bfb246aa271",
      "networkId": 0,
      "chainId": 0
    }
  ]
}