{
  "hash": "0x2670f15bb452ca9963ce808cde70ff21592f85736b5278fc7f1421071b0a76c8",
  "parentHash": "0x3cc8772af110fbfbaf3237edffe91c9e15a3cb4abb5b538ec2a0af2ccabcb3a0",
  "number": 105668,
  "timestamp": 1439891549,
  "nonce": "0x5b6c9f89f9f3a239",
  "difficulty": 4393066147500,
  "gasLimit": {
    "_hex": "0x2fefd8"
  },
  "gasUsed": {
    "_hex": "0x5208"
  },
  "miner": "0x9746c7e1ef2bd21FF3997fa467593a89cb852BD0",
  "extraData": "0x476574682f76312e302e312f77696e646f77732f676f312e342e32",
  "transactions": [
    {
      "hash": "0x64ba46a315be759ff5fc841483520b44fb87db894cb001abbd339ad184a69279",
      "blockHash": "0x2670f15bb452ca9963ce808cde70ff21592f85736b5278fc7f1421071b0a76c8",
      "blockNumber": 105668,
      "transactionIndex": 0,
      "confirmations": null,
      "from": "0x557C2806B6ceA65a66F415bb2Ed1ce897B340745",
      "gasPrice": {
        "_hex": "0xcc722c57b"
      },
      "gasLimit": {
        "_hex": "0x5208"
      },
      "to": "0x32Be343B94f860124dC4fEe278FDCBD38C102D88",
      "value": {
        "_hex": "0xddc93607d6f5800"
      },
      "nonce": 8,
      "data": "0x",
      "r": "0x3fed5e7bc3a753341de030a27d1fe2fd2d6eaf408e67c8105742f5f37ce76322",
      "s": "0x136c6709eda8896163e1bb215c531818805bc830916d8c288f7e6c6d71c59a49",
      "v": 28,
      "creates": null,
      "raw": "0xf86c08850cc722c57b8252089432be343b94f860124dc4fee278fdcbd38c102d88880ddc93607d6f5800801ca03fed5e7bc3a753341de030a27d1fe2fd2d6eaf408e67c8105742f5f37ce76322a0136c6709eda8896163e1bb215c531818805bc830916d8c288f7e6c6d71c59a49",
      "networkId": 0,
      "chainId": 0
    }
  ]
}