{
  "hash": "0x2b4bae95a1a0a0b490db4e743d3d3277316f5bfed73fcb972a407d39ca5ccc8c",
  "parentHash": "0x65692b637ea584d7924f2d74a69959e2e3295d7a8cd48b0beb04be5cddc29233",
  "number": 50365,
  "timestamp": 1438988049,
  "nonce": "0x89ee4fe01aa1d899",
  "difficulty": 1508229393447,
  "gasLimit": {
    "_hex": "0x5ea73"
  },
  "gasUsed": {
    "_hex": "0x546c"
  },
  "miner": "0x8B454d830feF179e66206840F8F3D1d83bC32b17",
  "extraData": "0x476574682f76312e302e312f77696e646f77732f676f312e342e32",
  "transactions": [
    {
      "hash": "0xd01c5fdec15c21865df4af364093196c5a46a1b16956633349c0853c4d2ef8b6",
      "blockHash": "0x2b4bae95a1a0a0b490db4e743d3d3277316f5bfed73fcb972a407d39ca5ccc8c",
      "blockNumber": 50365,
      "transactionIndex": 0,
      "confirmations": null,
      "from": "0x7c8Bb65a6fBB49bD413396a9D7e31053bBB37aA9",
      "gasPrice": {
        "_hex": "0x110c8f7d8de"
      },
      "gasLimit": {
        "_hex": "0xc350"
      },
      "to": "0x2910543Af39abA0Cd09dBb2D50200b3E800A63D2",
      "value": {
        "_hex": "0x6c6a3016135fb60000"
      },
      "nonce": 2,
      "data": "0x454e484e5150543852",
      "r": "0xfd37b12cb137df4cb2d64c13302b402f36e21eb71a296c35001141a72257a86f",
      "s": "0x75280dd735ca9f1e9b7927ac4a902f88fefe2084b706b7faf0a9398d7fc72897",
      "v": 28,
      "creates": null,
      "raw": "0xf87702860110c8f7d8de82c350942910543af39aba0cd09dbb2d50200b3e800a63d2896c6a3016135fb6000089454e484e51505438521ca0fd37b12cb137df4cb2d64c13302b402f36e21eb71a296c35001141a72257a86fa075280dd735ca9f1e9b7927ac4a902f88fefe2084b706b7faf0a9398d7fc72897",
      "networkId": 0,
      "chainId": 0
    }
  ]
}