{
  "hash": "0x1e285e221649209bba55016563f0add0e3674f121f48acdb52a67346cda3d42b",
  "parentHash": "0x4983c972780fa8ab0058d047485478fcb4b6fe55e30016f94f27099c0df6e24e",
  "number": 65873,
  "timestamp": 1439244476,
  "nonce": "0xcdaac472a2086e4a",
  "difficulty": 1944387608012,
  "gasLimit": {
    "_hex": "0x2fefd8"
  },
  "gasUsed": {
    "_hex": "0x5208"
  },
  "miner": "0x47ff6576639c2e94762eA5443978D7681C0E78DC",
  "extraData": "0x476574682f76312e302e312f6c696e75782f676f312e342e32",
  "transactions": [
    {
      "hash": "0xadae22b2cbc387656d21ecc85e9d40860ebc4b7d241e0829d90d2889f1a2aafe",
      "blockHash": "0x1e285e221649209bba55016563f0add0e3674f121f48acdb52a67346cda3d42b",
      "blockNumber": 65873,
      "transactionIndex": 0,
      "confirmations": null,
      "from": "0x159ffc07b24c1130dA9014e9Bc38C6Aa3596a61f",
      "gasPrice": {
        "_hex": "0xd641f460d"
      },
      "gasLimit": {
        "_hex": "0x15f90"
      },
      "to": "0xC25f24A505b8fEF751D8f4FCc397651001F7a160",
      "value": {
        "_hex": "0x45400a8fd5330000"
      },
      "nonce": 0,
      "data": "0x",
      "r": "0x15d235a19f955433c36b2e77ecdacc23e73d8c4effd6f7bdf306124023129c39",
      "s": "0x0cef715a5fbc17cd80c479670800ca20dbe35e4b60ae7ffa0887c53dd054662b",
      "v": 27,
      "creates": null,
      "raw": "0xf86d80850d641f460d83015f9094c25f24a505b8fef751d8f4fcc397651001f7a1608845400a8fd5330000801ba015d235a19f955433c36b2e77ecdacc23e73d8c4effd6f7bdf306124023129c39a00cef715a5fbc17cd80c479670800ca20dbe35e4b60ae7ffa0887c53dd054662b",
      "networkId": 0,
      "chainId": 0
    }
  ]
}