{
  "hash": "0x3fbb198e7e8f5e29f1c6a4bd77d74230d786781fa7a2601b19374eef4bfb8dd9",
  "parentHash": "0xb0c781f2b05f77a20c5ed986031b54f9f8e2c9890d5e3074abbd26eaeb3261c7",
  "number": 55456,
  "timestamp": 1439071017,
  "nonce": "0x6130390f6a21bb7e",
  "difficulty": 1625821263202,
  "gasLimit": {
    "_hex": "0x2fefd8"
  },
  "gasUsed": {
    "_hex": "0x5208"
  },
  "miner": "0xf927a40C8B7F6E07c5af7FA2155B4864a4112B13",
  "extraData": "0x476574682f76312e302e312f6c696e75782f676f312e342e32",
  "transactions": [
    {
      "hash": "0xf1498dd010a9372ca58dd7ceb6b9116278818a5f6030437179a5104e97dd4965",
      "blockHash": "0x3fbb198e7e8f5e29f1c6a4bd77d74230d786781fa7a2601b19374eef4bfb8dd9",
      "blockNumber": 55456,
      "transactionIndex": 0,
      "confirmations": null,
      "from": "0x120A270bbC009644e35F0bB6ab13f95b8199c4ad",
      "gasPrice": {
        "_hex": "0xce641e9b5"
      },
      "gasLimit": {
        "_hex": "0x15f90"
      },
      "to": "0xb7b6e8868e3DfCD6C7EC726C4fda236266841c8C",
      "value": {
        "_hex": "0x18be76117ed9800"
      },
      "nonce": 18,
      "data": "0x",
      "r": "0x01a188dd4c730b8ba527636e7a597ba8b71aec6a290ce750f00167a2358d2e61",
      "s": "0x3721e2f804bd11ad1334381a73de3adc4cfb781cc41b34b1329fbbcaf55433c9",
      "v": 28,
      "creates": null,
      "raw": "0xf86d12850ce641e9b583015f9094b7b6e8868e3dfcd6c7ec726c4fda236266841c8c88018be76117ed9800801ca001a188dd4c730b8ba527636e7a597ba8b71aec6a290ce750f00167a2358d2e61a03721e2f804bd11ad1334381a73de3adc4cfb781cc41b34b1329fbbcaf55433c9",
      "networkId": 0,
      "chainId": 0
    }
  ]
}