{
  "hash": "0x9015805c2bb21577a2e8baa03e3076e67985a9008b4e94a52b36436b999edac4",
  "parentHash": "0x8995aaad7a1510fb51fb4b03fa90dd4e3ef8b3f7cae45d1dda8b9e08fedde819",
  "number": 107031,
  "timestamp": 1439914840,
  "nonce": "0xddd187fa637eb3b7",
  "difficulty": 4446298588979,
  "gasLimit": {
    "_hex": "0x2fefd8"
  },
  "gasUsed": {
    "_hex": "0xa410"
  },
  "miner": "0xe6A7a1d47ff21B6321162AEA7C6CB457D5476Bca",
  "extraData": "0x476574682f76312e302e312d38326566323666362f6c696e75782f676f312e34",
  "transactions": [
    {
      "hash": "0x3ad1fa9dfa666910cfe12e50deeef986a3ec599cae2534801afa7cf087e73c27",
      "blockHash": "0x9015805c2bb21577a2e8baa03e3076e67985a9008b4e94a52b36436b999edac4",
      "blockNumber": 107031,
      "transactionIndex": 0,
      "confirmations": null,
      "from": "0xe29AFa2051650D8C9549dF817E80ad5C7c398124",
      "gasPrice": {
        "_hex": "0xd32b8ebe2"
      },
      "gasLimit": {
        "_hex": "0x5208"
      },
      "to": "0x32Be343B94f860124dC4fEe278FDCBD38C102D88",
      "value": {
        "_hex": "0xddc7c0a0e400000"
      },
      "nonce": 0,
      "data": "0x",
      "r": "0x37f9b2f14e5bdc895f2bc9b483d98db26450255a9066440c21f8ae0c7f282f21",
      "s": "0x5bc251c595bf2f43b3bb26ade501665832ce137259ba9492c8bb9de58a37a60b",
      "v": 28,
      "creates": null,
      "raw": "0xf86c80850d32b8ebe28252089432be343b94f860124dc4fee278fdcbd38c102d88880ddc7c0a0e400000801ca037f9b2f14e5bdc895f2bc9b483d98db26450255a9066440c21f8ae0c7f282f21a05bc251c595bf2f43b3bb26ade501665832ce137259ba9492c8bb9de58a37a60b",
      "networkId": 0,
      "chainId": 0
    },
    {
      "hash": "0x9c187ec416bb014a3d6fc9a1f0fc3eb4ced116e720bc2856249766559bb50368",
      "blockHash": "0x9015805c2bb21577a2e8baa03e3076e67985a9008b4e94a52b36436b999edac4",
      "blockNumber": 107031,
      "transactionIndex": 1,
      "confirmations": null,
      "from": "0x60f7C29656Fc491e766750556fE4F0E407f81eB5",
      "gasPrice": {
        "_hex": "0xd0a2672ea"
      },
      "gasLimit": {
        "_hex": "0x15f90"
      },
      "to": "0x5773DFFDd4AD3114CAB6eFE3b9Ca703Fa450Fe40",
      "value": {
        "_hex": "0x3e8"
      },
      "nonce": 8,
      "data": "0x",
      "r": "0xaeb7919579024fae5b5590dfb1195fca3b74c1b5d6b4e0b6eaf24899c5425f4d",
      "s": "0x21aa1ca35ec706281f3543b58cf15ac9cdb913826ff0b28dc3306693207741f6",
      "v": 27,
      "creates": null,
      "raw": "0xf86708850d0a2672ea83015f90945773dffdd4ad3114cab6efe3b9ca703fa450fe408203e8801ba0aeb7919579024fae5b5590dfb1195fca3b74c1b5d6b4e0b6eaf24899c5425f4da021aa1ca35ec706281f3543b58cf15ac9cdb913826ff0b28dc3306693207741f6",
      "networkId": 0,
      "chainId": 0
    }
  ]
}