{
  "hash": "0x783b82fdfbde8a47d2ffc3c547c8135b0e2c7e637ff775ce7accf40d3de9617c",
  "parentHash": "0x256233a2705a228439001c2156043b8666e8bf5948fd3639614b966f6293647d",
  "number": 70706,
  "timestamp": 1439324236,
  "nonce": "0xad95b852cc4cb301",
  "difficulty": 2143661768332,
  "gasLimit": {
    "_hex": "0x2fefd8"
  },
  "gasUsed": {
    "_hex": "0x5208"
  },
  "miner": "0xf8E0CA3Ed80bd541b94BEdCf259e8CF2141A9523",
  "extraData": "0x476574682f76312e302e312f77696e646f77732f676f312e342e32",
  "transactions": [
    {
      "hash": "0x4d13261732af7221cbd88018405c53bb620ab4878ccbf1520129a659caf88075",
      "blockHash": "0x783b82fdfbde8a47d2ffc3c547c8135b0e2c7e637ff775ce7accf40d3de9617c",
      "blockNumber": 70706,
      "transactionIndex": 0,
      "confirmations": null,
      "from": "0x32Be343B94f860124dC4fEe278FDCBD38C102D88",
      "gasPrice": {
        "_hex": "0xd67b6691b"
      },
      "gasLimit": {
        "_hex": "0x5208"
      },
      "to": "0xdCd8Aa0E6fD68B057C5AC5e362619808A175CE87",
      "value": {
        "_hex": "0x1b1ae29e73c85400000"
      },
      "nonce": 254,
      "data": "0x",
      "r": "0xe7f3b62fb9ad7a9ab45cb999ef660c380beca2d3a9f4d03093bfe16bd0ea58af",
      "s": "0x075e618b7b8c26cecddb9063daf73f32e2cfa20f1c91141941e7af3c13a203a6",
      "v": 28,
      "creates": null,
      "raw": "0xf86f81fe850d67b6691b82520894dcd8aa0e6fd68b057c5ac5e362619808a175ce878a01b1ae29e73c85400000801ca0e7f3b62fb9ad7a9ab45cb999ef660c380beca2d3a9f4d03093bfe16bd0ea58afa0075e618b7b8c26cecddb9063daf73f32e2cfa20f1c91141941e7af3c13a203a6",
      "networkId": 0,
      "chainId": 0
    }
  ]
}