{
  "hash": "0x88d55332c95a330e827fc190c0be8cd212b9e2043b5fc2ddadf3b18acd42a9a9",
  "parentHash": "0x0d045d024cf671e7714e03c662f96ed94b866129c56185ebed2354629a9242c1",
  "number": 53705,
  "timestamp": 1439042247,
  "nonce": "0xc7adc9133b437b14",
  "difficulty": 1593929392361,
  "gasLimit": {
    "_hex": "0x2fdebb"
  },
  "gasUsed": {
    "_hex": "0x5208"
  },
  "miner": "0xf927a40C8B7F6E07c5af7FA2155B4864a4112B13",
  "extraData": "0x476574682f76312e302e312f6c696e75782f676f312e342e32",
  "transactions": [
    {
      "hash": "0x611e9c1a9e6e9872544a41ef7398c3d8bf94698733f7b5b1e8e427add2015094",
      "blockHash": "0x88d55332c95a330e827fc190c0be8cd212b9e2043b5fc2ddadf3b18acd42a9a9",
      "blockNumber": 53705,
      "transactionIndex": 0,
      "confirmations": null,
      "from": "0x0eDEd3DA479d0beF8eeC92A76644D3f4E3C177f7",
      "gasPrice": {
        "_hex": "0xe1c473b1e"
      },
      "gasLimit": {
        "_hex": "0x15f90"
      },
      "to": "0x3f0073d6bBE51612013aA09BC970e08E84D7BA23",
      "value": {
        "_hex": "0x53444835ec580000"
      },
      "nonce": 3,
      "data": "0x",
      "r": "0xc140bfc2862e88b95daa59ebca32aa5aaeb2f1596571fda8f95d36f23b1b65f3",
      "s": "0x3948ca4c87ce9b0fe4d46210112f8f4acd1085b5032221a773836c9e0cdfa528",
      "v": 27,
      "creates": null,
      "raw": "0xf86d03850e1c473b1e83015f90943f0073d6bbe51612013aa09bc970e08e84d7ba238853444835ec580000801ba0c140bfc2862e88b95daa59ebca32aa5aaeb2f1596571fda8f95d36f23b1b65f3a03948ca4c87ce9b0fe4d46210112f8f4acd1085b5032221a773836c9e0cdfa528",
      "networkId": 0,
      "chainId": 0
    }
  ]
}