{
  "hash": "0x2f0d8faad85573e6634f59dd6beb2629f1e9b5125a555fae711955b6deb33c1a",
  "parentHash": "0x962bbe7ef3bb1502dbcaad4ff390a296124ed747e3639f02237f38a5a7a2bed6",
  "number": 100911,
  "timestamp": 1439814364,
  "nonce": "0x64ebdf7b5afab015",
  "difficulty": 3869607515336,
  "gasLimit": {
    "_hex": "0x2fefd8"
  },
  "gasUsed": {
    "_hex": "0x5208"
  },
  "miner": "0xa70a9a7040d542C632D8e0bE7c5513A8a5Bbc752",
  "extraData": "0x",
  "transactions": [
    {
      "hash": "0xdb39b885315ad8e8fb826653f88f64444199275e598e266da595c7a021932851",
      "blockHash": "0x2f0d8faad85573e6634f59dd6beb2629f1e9b5125a555fae711955b6deb33c1a",
      "blockNumber": 100911,
      "transactionIndex": 0,
      "confirmations": null,
      "from": "0xb1abce2918E21ddb93AA452731a12672A3d9F75a",
      "gasPrice": {
        "_hex": "0xd816c89ec"
      },
      "gasLimit": {
        "_hex": "0x5208"
      },
      "to": "0x32Be343B94f860124dC4fEe278FDCBD38C102D88",
      "value": {
        "_hex": "0x8ac2cf228bf75000"
      },
      "nonce": 79,
      "data": "0x",
      "r": "0xb75216b2dac7f00efc922ba90bd8c31db8992a468faa6e5a56527afef4a011ad",
      "s": "0x2169d5c124e170192721decfb88d55e55ae8b1969a431d3fc16d0d4bc34c1a1d",
      "v": 28,
      "creates": null,
      "raw": "0xf86c4f850d816c89ec8252089432be343b94f860124dc4fee278fdcbd38c102d88888ac2cf228bf75000801ca0b75216b2dac7f00efc922ba90bd8c31db8992a468faa6e5a56527afef4a011ada02169d5c124e170192721decfb88d55e55ae8b1969a431d3fc16d0d4bc34c1a1d",
      "networkId": 0,
      "chainId": 0
    }
  ]
}