{
  "hash": "0x3693457d1e182cc824f8178b290afb5bf52c25e82f643c9e6299c75050db5ecd",
  "parentHash": "0x62b7ccbb79471cfd215a8152c922b3342bf9d1866866d0e707672b7c235f7540",
  "number": 101049,
  "timestamp": 1439816632,
  "nonce": "0xe0bc61b3f8336113",
  "difficulty": 3858223892306,
  "gasLimit": {
    "_hex": "0x2fefd8"
  },
  "gasUsed": {
    "_hex": "0xf618"
  },
  "miner": "0x893FF53FE9b3DA680472E1948F2294F970D44678",
  "extraData": "0x476574682f76312e302e312f6c696e75782f676f312e342e32",
  "transactions": [
    {
      "hash": "0xfb553282e240842bca754ccd4e12ad782127b12368a4b5a8aaf01f6a127bb7ed",
      "blockHash": "0x3693457d1e182cc824f8178b290afb5bf52c25e82f643c9e6299c75050db5ecd",
      "blockNumber": 101049,
      "transactionIndex": 0,
      "confirmations": null,
      "from": "0xFCb0b0382b155BE6Dd68dcdB7f29d2366D1C7502",
      "gasPrice": {
        "_hex": "0xcedf34d3c"
      },
      "gasLimit": {
        "_hex": "0x5208"
      },
      "to": "0x32Be343B94f860124dC4fEe278FDCBD38C102D88",
      "value": {
        "_hex": "0x60532cd1bab0c400"
      },
      "nonce": 3,
      "data": "0x",
      "r": "0xfa5e757c776f2520deba88606d722a9028c62e6cb9acbfd1b5b314a578e02e2d",
      "s": "0x15ee40d00880c1a21c37f62e9311b810e4e9487030c88aee2fdef3ba4551313b",
      "v": 27,
      "creates": null,
      "raw": "0xf86c03850cedf34d3c8252089432be343b94f860124dc4fee278fdcbd38c102d888860532cd1bab0c400801ba0fa5e757c776f2520deba88606d722a9028c62e6cb9acbfd1b5b314a578e02e2da015ee40d00880c1a21c37f62e9311b810e4e9487030c88aee2fdef3ba4551313b",
      "networkId": 0,
      "chainId": 0
    },
    {
      "hash": "0x7a50067e96f8b1ff59142e06aa19d8f2bd03d7a47345fa9fce0a5bbbe60a8656",
      "blockHash": "0x3693457d1e182cc824f8178b290afb5bf52c25e82f643c9e6299c75050db5ecd",
      "blockNumber": 101049,
      "transactionIndex": 1,
      "confirmations": null,
      "from": "0x249502491a53b217181420Cc4A6dE23a720636CA",
      "gasPrice": {
        "_hex": "0xcedf34d3c"
      },
      "gasLimit": {
        "_hex": "0x5208"
      },
      "to": "0x32Be343B94f860124dC4fEe278FDCBD38C102D88",
      "value": {
        "_hex": "0x1e7e412f754b7000000"
      },
      "nonce": 9,
      "data": "0x",
      "r": "0x445c383cba750188ed2ccd9b60a4431253053b393c43c817b7f2ec194f495022",
      "s": "0x0420f46d36d9883403fe4eefc447790b73ac7f5ba0dba31cbe05c7eb49bba246",
      "v": 28,
      "creates": null,
      "raw": "0xf86e09850cedf34d3c8252089432be343b94f860124dc4fee278fdcbd38c102d888a01e7e412f754b7000000801ca0445c383cba750188ed2ccd9b60a4431253053b393c43c817b7f2ec194f495022a00420f46d36d9883403fe4eefc447790b73ac7f5ba0dba31cbe05c7eb49bba246",
      "networkId": 0,
      "chainId": 0
    },
    {
      "hash": "0xa0e22d24f5697fe1cbe799842e3509fd9058a06152c7d9945eb42aabec074aa3",
      "blockHash": "0x3693457d1e182cc824f8178b290afb5bf52c25e82f643c9e6299c75050db5ecd",
      "blockNumber": 101049,
      "transactionIndex": 2,
      "confirmations": null,
      "from": "0x6896e22C387dc77Eef9566aaecbf584a65130067",
      "gasPrice": {
        "_hex": "0xcedf34d3c"
      },
      "gasLimit": {
        "_hex": "0x5208"
      },
      "to": "0x32Be343B94f860124dC4fEe278FDCBD38C102D88",
      "value": {
        "_hex": "0x2b5df8a7694ef0000"
      },
      "nonce": 2,
      "data": "0x",
      "r": "0xe16fb5411f7dbc42dd637578ba49d380542a8a0e058f16169117dde97a15ae14",
      "s": "0x5c37780517b21f26e2152631da6ca994e74752264d485105ec3365bdfb97d7df",
      "v": 27,
      "creates": null,
      "raw": "0xf86d02850cedf34d3c8252089432be343b94f860124dc4fee278fdcbd38c102d888902b5df8a7694ef0000801ba0e16fb5411f7dbc42dd637578ba49d380542a8a0e058f16169117dde97a15ae14a05c37780517b21f26e2152631da6ca994e74752264d485105ec3365bdfb97d7df",
      "networkId": 0,
      "chainId": 0
    }
  ]
}