{
  "hash": "0xf35c0f3c80bc63714f2c2bd4ed020144ffa80b2a91d53a8c19ce068503f22529",
  "parentHash": "0xfcc334c42df321bf6c56af955a18119f35c174b9ba61c09429e6812ae68aab85",
  "number": 100350,
  "timestamp": 1439804959,
  "nonce": "0x68ed8cb2e39ec978",
  "difficulty": 3815454542313,
  "gasLimit": {
    "_hex": "0x2fefd8"
  },
  "gasUsed": {
    "_hex": "0x5208"
  },
  "miner": "0xe6A7a1d47ff21B6321162AEA7C6CB457D5476Bca",
  "extraData": "0x476574682f76312e302e312d38326566323666362f6c696e75782f676f312e34",
  "transactions": [
    {
      "hash": "0xac7148895d84ed84a1075fadd466f9ac2903a23475f15665911ee00130eb69ae",
      "blockHash": "0xf35c0f3c80bc63714f2c2bd4ed020144ffa80b2a91d53a8c19ce068503f22529",
      "blockNumber": 100350,
      "transactionIndex": 0,
      "confirmations": null,
      "from": "0x007f7f58D3eb5b7510A301eCC749FC1fCDDBE14D",
      "gasPrice": {
        "_hex": "0xe0cfe7246"
      },
      "gasLimit": {
        "_hex": "0x15f90"
      },
      "to": "0xb1abce2918E21ddb93AA452731a12672A3d9F75a",
      "value": {
        "_hex": "0x4563918244f40000"
      },
      "nonce": 163,
      "data": "0x",
      "r": "0x0a20b1f754135ee7729546c6853537ba28d9f6b6ee247377f7ce2b4ce448f900",
      "s": "0x6c90efff42d85fa2708c7a6cd96f1bda3913544a15226efccd8070b285159650",
      "v": 27,
      "creates": null,
      "raw": "0xf86e81a3850e0cfe724683015f9094b1abce2918e21ddb93aa452731a12672a3d9f75a884563918244f40000801ba00a20b1f754135ee7729546c6853537ba28d9f6b6ee247377f7ce2b4ce448f900a06c90efff42d85fa2708c7a6cd96f1bda3913544a15226efccd8070b285159650",
      "networkId": 0,
      "chainId": 0
    }
  ]
}