{
  "hash": "0x7a360060d581a6f31b4496de725553b1020ba19f7c48313622bc08e3c1fc4eb3",
  "parentHash": "0xd1eddead91d16ef292565aa7d74260c4df7f4c68fde95175462eb81e926f1532",
  "number": 84867,
  "timestamp": 1439555506,
  "nonce": "0xbf9deae6baa82950",
  "difficulty": 2662030257813,
  "gasLimit": {
    "_hex": "0x2fefd8"
  },
  "gasUsed": {
    "_hex": "0xaee3"
  },
  "miner": "0xe6A7a1d47ff21B6321162AEA7C6CB457D5476Bca",
  "extraData": "0x476574682f76312e302e312d38326566323666362f6c696e75782f676f312e34",
  "transactions": [
    {
      "hash": "0x33654c14f13525783b0b79f02465924e4c87d19570f6273878bd64294dd8e628",
      "blockHash": "0x7a360060d581a6f31b4496de725553b1020ba19f7c48313622bc08e3c1fc4eb3",
      "blockNumber": 84867,
      "transactionIndex": 0,
      "confirmations": null,
      "from": "0xC4c6bAF00209a0f33331e4B7cb1c7B680A3d2F79",
      "gasPrice": {
        "_hex": "0xd40ddec0d"
      },
      "gasLimit": {
        "_hex": "0x15f90"
      },
      "to": "0xa1A111bc074c9cfa781F0C38e63bD51c91b8af00",
      "value": {
        "_hex": "0x0"
      },
      "nonce": 12,
      "data": "0xd5fa2b0059554e4200000000000000000000000000000000000000000000000000000000000000000000000000000000ad8d3a5d2d92eb14bb56ca9f380be35b8efe0c04",
      "r": "0x3df4cd5bd1983f41a2c8792ee55d8bda56ae40fdcf89728a3787b04ed5b509bc",
      "s": "0x2bf4c314c762581b622c5d22e551fdbea4bb9370677e85f86998c074025ecd42",
      "v": 28,
      "creates": null,
      "raw": "0xf8aa0c850d40ddec0d83015f9094a1a111bc074c9cfa781f0c38e63bd51c91b8af0080b844d5fa2b0059554e4200000000000000000000000000000000000000000000000000000000000000000000000000000000ad8d3a5d2d92eb14bb56ca9f380be35b8efe0c041ca03df4cd5bd1983f41a2c8792ee55d8bda56ae40fdcf89728a3787b04ed5b509bca02bf4c314c762581b622c5d22e551fdbea4bb9370677e85f86998c074025ecd42",
      "networkId": 0,
      "chainId": 0
    }
  ]
}