{
  "hash": "0x2b4da89d9891979b16e93b2b2f7c530da0130b440ea9bf64c88a2e5d3e241a05",
  "parentHash": "0xc59215d4d13893d632a66751ec67da738503275920a31f97f5f531755db5a33d",
  "number": 90395,
  "timestamp": 1439639228,
  "nonce": "0x3e1d4188170a874d",
  "difficulty": 3333477498053,
  "gasLimit": {
    "_hex": "0x2fefd8"
  },
  "gasUsed": {
    "_hex": "0x5208"
  },
  "miner": "0x007f7f58D3eb5b7510A301eCC749FC1fCDDBE14D",
  "extraData": "0x476574682f76312e302e312f77696e646f77732f676f312e342e32",
  "transactions": [
    {
      "hash": "0xb1d139dcb3f886513569dd5e01787cb370a0876961c790488dab4d246ff39387",
      "blockHash": "0x2b4da89d9891979b16e93b2b2f7c530da0130b440ea9bf64c88a2e5d3e241a05",
      "blockNumber": 90395,
      "transactionIndex": 0,
      "confirmations": null,
      "from": "0xf2cC0eEAAAeD313542CB262B0B8c3972425143f0",
      "gasPrice": {
        "_hex": "0xde63302ce"
      },
      "gasLimit": {
        "_hex": "0x5208"
      },
      "to": "0x32Be343B94f860124dC4fEe278FDCBD38C102D88",
      "value": {
        "_hex": "0x453b96645a5e9400"
      },
      "nonce": 5,
      "data": "0x",
      "r": "0x41ff920faf778d6120b727aa86d5d61d5d29bc898aa1645029d82860ab0dca0f",
      "s": "0x34271b35bd229dce64717a7f990562abd1796045e05a425c5c6d3b4b2b6f82f1",
      "v": 27,
      "creates": null,
      "raw": "0xf86c05850de63302ce8252089432be343b94f860124dc4fee278fdcbd38c102d8888453b96645a5e9400801ba041ff920faf778d6120b727aa86d5d61d5d29bc898aa1645029d82860ab0dca0fa034271b35bd229dce64717a7f990562abd1796045e05a425c5c6d3b4b2b6f82f1",
      "networkId": 0,
      "chainId": 0
    }
  ]
}