{
  "hash": "0x2b25ff27a851a09aa4ad4a18eb13556ebcd92a7c9cc88135a5358f206c9acc59",
  "parentHash": "0x3e1294245192fee002547eb998b614ae3032282c39b458cca2bfae1497f4c1e3",
  "number": 94676,
  "timestamp": 1439712192,
  "nonce": "0xad0be1276ab2024e",
  "difficulty": 3493377393444,
  "gasLimit": {
    "_hex": "0x2fefd8"
  },
  "gasUsed": {
    "_hex": "0xa410"
  },
  "miner": "0x7E6930B63D03e88F5928C5cd6ee3FCee4D714F7F",
  "extraData": "0x",
  "transactions": [
    {
      "hash": "0xea5506e9a0a1164d137c1e7898cc914c82a00d1a900d8ddcc488b4ac8ac13abb",
      "blockHash": "0x2b25ff27a851a09aa4ad4a18eb13556ebcd92a7c9cc88135a5358f206c9acc59",
      "blockNumber": 94676,
      "transactionIndex": 0,
      "confirmations": null,
      "from": "0x1c69e6202df7794272b70FaEa8f7408c856B1f08",
      "gasPrice": {
        "_hex": "0xda1407fcf"
      },
      "gasLimit": {
        "_hex": "0x5208"
      },
      "to": "0x32Be343B94f860124dC4fEe278FDCBD38C102D88",
      "value": {
        "_hex": "0x3d5f22ea93e3fc00"
      },
      "nonce": 6,
      "data": "0x",
      "r": "0x54d1b72fd29f67c8e7c2452d5f58a760a0925d22d3b1434035dfe3b4b3d489fc",
      "s": "0x75ca8173e3f7ed209d702751964273d846b696ff5abf4e8be5105b08dca2feee",
      "v": 27,
      "creates": null,
      "raw": "0xf86c06850da1407fcf8252089432be343b94f860124dc4fee278fdcbd38c102d88883d5f22ea93e3fc00801ba054d1b72fd29f67c8e7c2452d5f58a760a0925d22d3b1434035dfe3b4b3d489fca075ca8173e3f7ed209d702751964273d846b696ff5abf4e8be5105b08dca2feee",
      "networkId": 0,
      "chainId": 0
    },
    {
      "hash": "0x2cd8d32d2705b0bf0d8e3f715d680c2146b23fda7e621759b95f552bf80b9285",
      "blockHash": "0x2b25ff27a851a09aa4ad4a18eb13556ebcd92a7c9cc88135a5358f206c9acc59",
      "blockNumber": 94676,
      "transactionIndex": 1,
      "confirmations": null,
      "from": "0x3fc4eAB8A8df5a124043b29146709935c65F1f7d",
      "gasPrice": {
        "_hex": "0xd411efc2c"
      },
      "gasLimit": {
        "_hex": "0x15f90"
      },
      "to": "0x051B69BB7073F7385370C5751F988b31A7567a63",
      "value": {
        "_hex": "0x34bc4fdde27c0000"
      },
      "nonce": 3,
      "data": "0x",
      "r": "0x71435f984749aa4082cac26baf462c6972ea9de2dde2936c810921747bcd4802",
      "s": "0x3d155eec3d747659fa274dc1c116952ed1b49be28278d4d061b2eadd3a09204f",
      "v": 28,
      "creates": null,
      "raw": "0xf86d03850d411efc2c83015f9094051b69bb7073f7385370c5751f988b31a7567a638834bc4fdde27c0000801ca071435f984749aa4082cac26baf462c6972ea9de2dde2936c810921747bcd4802a03d155eec3d747659fa274dc1c116952ed1b49be28278d4d061b2eadd3a09204f",
      "networkId": 0,
      "chainId": 0
    }
  ]
}