{
  "hash": "0xa63f758f772bca011cf7786a43006430224bdde62982bb09518d6de7caeb74b0",
  "parentHash": "0xaa37226b468bb7418323b49d7bc0e3ee1dba0349a99862f050956e908da10077",
  "number": 66099,
  "timestamp": 1439248593,
  "nonce": "0x71a4429c58fbac8f",
  "difficulty": 1948136465364,
  "gasLimit": {
    "_hex": "0x2fefd8"
  },
  "gasUsed": {
    "_hex": "0xc9c3"
  },
  "miner": "0xf927a40C8B7F6E07c5af7FA2155B4864a4112B13",
  "extraData": "0x",
  "transactions": [
    {
      "hash": "0x1a69358518211eaea73f88ebe4dd400c75e7e25a8dea4818622a4be0063361af",
      "blockHash": "0xa63f758f772bca011cf7786a43006430224bdde62982bb09518d6de7caeb74b0",
      "blockNumber": 66099,
      "transactionIndex": 0,
      "confirmations": null,
      "from": "0xcB495D8e4F272a89123F91beaB031ba380E2Cc34",
      "gasPrice": {
        "_hex": "0xd72f208e3"
      },
      "gasLimit": {
        "_hex": "0x7a120"
      },
      "to": "0xfBc128067A2FE13C11BBC6cc55f29AA1F27630DA",
      "value": {
        "_hex": "0xde0b6b3a7640000"
      },
      "nonce": 0,
      "data": "0x",
      "r": "0x636ca5c47deb75930670b7d48c44fefa578fcd5dc588a60269f6729c60382bd0",
      "s": "0x30467493838cee1eb7964f0131fc626b1bc583713b98b2a5eeb50a14df42cada",
      "v": 27,
      "creates": null,
      "raw": "0xf86d80850d72f208e38307a12094fbc128067a2fe13c11bbc6cc55f29aa1f27630da880de0b6b3a7640000801ba0636ca5c47deb75930670b7d48c44fefa578fcd5dc588a60269f6729c60382bd0a030467493838cee1eb7964f0131fc626b1bc583713b98b2a5eeb50a14df42cada",
      "networkId": 0,
      "chainId": 0
    }
  ]
}