{
  "hash": "0xebc9e2c69668c0c03c1fd9e11025cc728d54262e14f981712c3ea7b1a94649b8",
  "parentHash": "0xeddd709ef11af72e1ce01132296a9d9183c77168bbec54bfabb752e49350cc68",
  "number": 121264,
  "timestamp": 1440174236,
  "nonce": "0x6d5d108d5d96f8d5",
  "difficulty": 4406369231984,
  "gasLimit": {
    "_hex": "0x2fefd8"
  },
  "gasUsed": {
    "_hex": "0x5208"
  },
  "miner": "0x52bc44d5378309EE2abF1539BF71dE1b7d7bE3b5",
  "extraData": "0xd783010002844765746887676f312e342e32856c696e7578",
  "transactions": [
    {
      "hash": "0x2200806809537ecdac6e349aac58a020b2e28fe52f48fec84af90c282dec927d",
      "blockHash": "0xebc9e2c69668c0c03c1fd9e11025cc728d54262e14f981712c3ea7b1a94649b8",
      "blockNumber": 121264,
      "transactionIndex": 0,
      "confirmations": null,
      "from": "0x65553f5e8FA2eDfCe37Aec51A90ed28777dDe402",
      "gasPrice": {
        "_hex": "0xba43b7400"
      },
      "gasLimit": {
        "_hex": "0x5208"
      },
      "to": "0xFBb1b73C4f0BDa4f67dcA266ce6Ef42f520fBB98",
      "value": {
        "_hex": "0x2bdfcb885e9214000"
      },
      "nonce": 9,
      "data": "0x",
      "r": "0x4ba190ee1fecda5383c82f4d7e89b7a5553c363a41d32b9c9bec67232658685b",
      "s": "0x11b9f3261b0cb8655779cdd3d6a4d596f201bc404eba331eaf8ec06764cc87d9",
      "v": 28,
      "creates": null,
      "raw": "0xf86d09850ba43b740082520894fbb1b73c4f0bda4f67dca266ce6ef42f520fbb988902bdfcb885e9214000801ca04ba190ee1fecda5383c82f4d7e89b7a5553c363a41d32b9c9bec67232658685ba011b9f3261b0cb8655779cdd3d6a4d596f201bc404eba331eaf8ec06764cc87d9",
      "networkId": 0,
      "chainId": 0
    }
  ]
}