{
  "hash": "0x54852f7818e735f559f8f19d2b6e4b9f37cb279a74a63b9bd51ea3a79cebb187",
  "parentHash": "0xe5a357f97b0d0401a2b84d8799c80bb0ce774e6ceef911b15e8eb9963eda39c3",
  "number": 72689,
  "timestamp": 1439356690,
  "nonce": "0xbfd7e8e8dbabdd08",
  "difficulty": 2190767062587,
  "gasLimit": {
    "_hex": "0x2fefd8"
  },
  "gasUsed": {
    "_hex": "0x5208"
  },
  "miner": "0xe6A7a1d47ff21B6321162AEA7C6CB457D5476Bca",
  "extraData": "0x476574682f76312e302e312d38326566323666362f6c696e75782f676f312e34",
  "transactions": [
    {
      "hash": "0x4c233406107dbf74fa482c24e47bd1b14bf6b5689e37ef56e40f2f9de580c645",
      "blockHash": "0x54852f7818e735f559f8f19d2b6e4b9f37cb279a74a63b9bd51ea3a79cebb187",
      "blockNumber": 72689,
      "transactionIndex": 0,
      "confirmations": null,
      "from": "0x120A270bbC009644e35F0bB6ab13f95b8199c4ad",
      "gasPrice": {
        "_hex": "0xd06246c86"
      },
      "gasLimit": {
        "_hex": "0x15f90"
      },
      "to": "0x15ff2F8b8bD3de8a55915515A7047eDD9b39c1FF",
      "value": {
        "_hex": "0xaa66b3594139bc00"
      },
      "nonce": 247,
      "data": "0x",
      "r": "0x90fa421374d633a3e09ca0a33a5ede10a22ed1951d4951270a5dbf8cca42be58",
      "s": "0x12842cd6b96103044eaecb1d4b0d2454288be3bd34f09eacdfbe786dbb25c8d4",
      "v": 28,
      "creates": null,
      "raw": "0xf86e81f7850d06246c8683015f909415ff2f8b8bd3de8a55915515a7047edd9b39c1ff88aa66b3594139bc00801ca090fa421374d633a3e09ca0a33a5ede10a22ed1951d4951270a5dbf8cca42be58a012842cd6b96103044eaecb1d4b0d2454288be3bd34f09eacdfbe786dbb25c8d4",
      "networkId": 0,
      "chainId": 0
    }
  ]
}