{
  "hash": "0xee00e3d6f6fc020d5a1cd1aa450d2df4f80724f8bfcd2541e0f6203b4a822cfe",
  "parentHash": "0x6e71f6442cfa30cb62ee6d50c156379e988d4e0ef39561661fa235bfc26dda1d",
  "number": 70938,
  "timestamp": 1439327737,
  "nonce": "0xf90b31c11209fab4",
  "difficulty": 2160414966828,
  "gasLimit": {
    "_hex": "0x2fefd8"
  },
  "gasUsed": {
    "_hex": "0x5208"
  },
  "miner": "0xa50ec0D39fa913E62f1Bae7074E6F36caA71855b",
  "extraData": "0x",
  "transactions": [
    {
      "hash": "0xb72fbbe35a0306a15c4a0f9d7d3540174de8af3ab0b5e8bfd1ab3682178b8b94",
      "blockHash": "0xee00e3d6f6fc020d5a1cd1aa450d2df4f80724f8bfcd2541e0f6203b4a822cfe",
      "blockNumber": 70938,
      "transactionIndex": 0,
      "confirmations": null,
      "from": "0xC99478b218E58F45783fA70f0507cf614938E67d",
      "gasPrice": {
        "_hex": "0xd1806ec11"
      },
      "gasLimit": {
        "_hex": "0x15f90"
      },
      "to": "0xC3fe64D1af00F0d9c324E4387EF7533f7D788e95",
      "value": {
        "_hex": "0xa688906bd8b00000"
      },
      "nonce": 9,
      "data": "0x",
      "r": "0xeee5defe70d52a8d692d4fe2ef3a869c2fa9e65ba6f36e0a3aa10df31592a36a",
      "s": "0x09f6ea8a81fa4a22969ac0bc5f006a941b661ab1bf83c033187eef578730ec6f",
      "v": 28,
      "creates": null,
      "raw": "0xf86d09850d1806ec1183015f9094c3fe64d1af00f0d9c324e4387ef7533f7d788e9588a688906bd8b00000801ca0eee5defe70d52a8d692d4fe2ef3a869c2fa9e65ba6f36e0a3aa10df31592a36aa009f6ea8a81fa4a22969ac0bc5f006a941b661ab1bf83c033187eef578730ec6f",
      "networkId": 0,
      "chainId": 0
    }
  ]
}