{
  "hash": "0x84f511d9c2a33c3e1a3b234e46581fb774bf76169a604d6a4233c4a4c08a9daa",
  "parentHash": "0x965ccf8700ed21e5c51ce46a018722da2001de671ba0ee3b3d0d4825bde6ae30",
  "number": 110250,
  "timestamp": 1439970531,
  "nonce": "0x7aaef83768a55354",
  "difficulty": 4377822775595,
  "gasLimit": {
    "_hex": "0x2fefd8"
  },
  "gasUsed": {
    "_hex": "0x5208"
  },
  "miner": "0xe6A7a1d47ff21B6321162AEA7C6CB457D5476Bca",
  "extraData": "0x476574682f76312e302e312d38326566323666362f6c696e75782f676f312e34",
  "transactions": [
    {
      "hash": "0xfa1b8a3dd4d29dcd5f1173e6feb1bad6575b634dd55450910eff2871926210c7",
      "blockHash": "0x84f511d9c2a33c3e1a3b234e46581fb774bf76169a604d6a4233c4a4c08a9daa",
      "blockNumber": 110250,
      "transactionIndex": 0,
      "confirmations": null,
      "from": "0xeeb66aFe554366d685C7832C6c93727Ba577378D",
      "gasPrice": {
        "_hex": "0xd47eff0f4"
      },
      "gasLimit": {
        "_hex": "0x5208"
      },
      "to": "0xFBb1b73C4f0BDa4f67dcA266ce6Ef42f520fBB98",
      "value": {
        "_hex": "0x4fab8a29c765060"
      },
      "nonce": 3,
      "data": "0x",
      "r": "0x79767ed435a258cb329b45000bbb91ec845b59a4ffb2ef27f81bc50f57fe5e8d",
      "s": "0x6f386c3ab33e4602d6c3799e2742b6785d6695edb498bab135d96d2dc44ea5c6",
      "v": 27,
      "creates": null,
      "raw": "0xf86c03850d47eff0f482520894fbb1b73c4f0bda4f67dca266ce6ef42f520fbb988804fab8a29c765060801ba079767ed435a258cb329b45000bbb91ec845b59a4ffb2ef27f81bc50f57fe5e8da06f386c3ab33e4602d6c3799e2742b6785d6695edb498bab135d96d2dc44ea5c6",
      "networkId": 0,
      "chainId": 0
    }
  ]
}