{
  "hash": "0xdae510abf37de56a8702734ed48b14d61a74ec0af67d3fe9cea6ec718e053f80",
  "parentHash": "0xfc9ae2aac3157a9e7c497c00654311c30e045c55a0e744da95775e7a3d466fa8",
  "number": 94767,
  "timestamp": 1439713891,
  "nonce": "0xa94dda657a711089",
  "difficulty": 3481419753412,
  "gasLimit": {
    "_hex": "0x2fefd8"
  },
  "gasUsed": {
    "_hex": "0x5208"
  },
  "miner": "0x9746c7e1ef2bd21FF3997fa467593a89cb852BD0",
  "extraData": "0x476574682f76312e302e312f77696e646f77732f676f312e342e32",
  "transactions": [
    {
      "hash": "0x7dda761ecea5754901e3d0affc78f067187860a9c486f5269897f1299d08b9cb",
      "blockHash": "0xdae510abf37de56a8702734ed48b14d61a74ec0af67d3fe9cea6ec718e053f80",
      "blockNumber": 94767,
      "transactionIndex": 0,
      "confirmations": null,
      "from": "0x014e478251F22a79fA7014f285647d91462A9669",
      "gasPrice": {
        "_hex": "0xdf5137f0c"
      },
      "gasLimit": {
        "_hex": "0x5208"
      },
      "to": "0x32Be343B94f860124dC4fEe278FDCBD38C102D88",
      "value": {
        "_hex": "0xddc3dc42438e400"
      },
      "nonce": 3,
      "data": "0x",
      "r": "0x3b2518be8df555881c0d9cf1c88bc83f45efa0a9a091b7f64175afdf174e1d3f",
      "s": "0x5d64b97c6db7fc34e72e5fcb2b8ba1b5aac1e93715a7b19da094c5ffaa0ab001",
      "v": 28,
      "creates": null,
      "raw": "0xf86c03850df5137f0c8252089432be343b94f860124dc4fee278fdcbd38c102d88880ddc3dc42438e400801ca03b2518be8df555881c0d9cf1c88bc83f45efa0a9a091b7f64175afdf174e1d3fa05d64b97c6db7fc34e72e5fcb2b8ba1b5aac1e93715a7b19da094c5ffaa0ab001",
      "networkId": 0,
      "chainId": 0
    }
  ]
}