{
  "hash": "0xf0e781c6d7941966b48599adf136e4d47e7577123ca1af06bedb6602424bdc6e",
  "parentHash": "0xfde3256113cf4bac494c93adba07c4a1a9a810acea2f17725f98fb13bc428692",
  "number": 51169,
  "timestamp": 1439000469,
  "nonce": "0x3137b302a11ef601",
  "difficulty": 1563572624448,
  "gasLimit": {
    "_hex": "0x96cd2"
  },
  "gasUsed": {
    "_hex": "0xddfd"
  },
  "miner": "0x123843545FB525C8E134c9A5F15ADA6865cc3848",
  "extraData": "0x476574682f76312e302e312f77696e646f77732f676f312e342e32",
  "transactions": [
    {
      "hash": "0x2b3bf80083704146fa8bba1c1afbb0d6d59beffc42ac78e8eac88f7ef21ad700",
      "blockHash": "0xf0e781c6d7941966b48599adf136e4d47e7577123ca1af06bedb6602424bdc6e",
      "blockNumber": 51169,
      "transactionIndex": 0,
      "confirmations": null,
      "from": "0xf88a65846C19D8fc76fFf545fEAa7bbc7114F667",
      "gasPrice": {
        "_hex": "0xcf7682fd8"
      },
      "gasLimit": {
        "_hex": "0x7a120"
      },
      "to": "0x109C4f2CCc82C4d77Bde15F306707320294Aea3F",
      "value": {
        "_hex": "0xde0b6b3a7640000"
      },
      "nonce": 4,
      "data": "0x",
      "r": "0x6bb161cd494a0cff8e63f205ce6f55c43105bb8f0e130c48c780e4d2932c980b",
      "s": "0x394ef233d65c7e4f71f7f184a4fe81f6a8fcc6e11f50b3257564f9882d867bd4",
      "v": 27,
      "creates": null,
      "raw": "0xf86d04850cf7682fd88307a12094109c4f2ccc82c4d77bde15f306707320294aea3f880de0b6b3a7640000801ba06bb161cd494a0cff8e63f205ce6f55c43105bb8f0e130c48c780e4d2932c980ba0394ef233d65c7e4f71f7f184a4fe81f6a8fcc6e11f50b3257564f9882d867bd4",
      "networkId": 0,
      "chainId": 0
    }
  ]
}