{
  "hash": "0xabc72ee134e33c8de6fe60cb09336632f717f6588cb53339f27cb97e7e140837",
  "parentHash": "0x88fcdae36225294f76b5a8d15cd7ab974930b07242274b8098cb7c4434523e6c",
  "number": 48840,
  "timestamp": 1438963846,
  "nonce": "0xfbde717d03b72b8b",
  "difficulty": 1481495072778,
  "gasLimit": {
    "_hex": "0x1f305"
  },
  "gasUsed": {
    "_hex": "0x5208"
  },
  "miner": "0x157c6f2431eB1a95797EE86F7d17b3c0FD47A247",
  "extraData": "0x476574682f76312e302e312f77696e646f77732f676f312e342e32",
  "transactions": [
    {
      "hash": "0x193829751a4153da0c257d00d969c2a336f0dc3e4b9f555e04f7a20cbaafd115",
      "blockHash": "0xabc72ee134e33c8de6fe60cb09336632f717f6588cb53339f27cb97e7e140837",
      "blockNumber": 48840,
      "transactionIndex": 0,
      "confirmations": null,
      "from": "0x852b794C7f024F062F5F22436739478B8EC2e14B",
      "gasPrice": {
        "_hex": "0xd40cc69f0"
      },
      "gasLimit": {
        "_hex": "0x15f90"
      },
      "to": "0xFE1A20c9ed138A351a60F825901828FF1de534DB",
      "value": {
        "_hex": "0xde0b6b3a7640000"
      },
      "nonce": 0,
      "data": "0x",
      "r": "0xea574224817decaaa4f9dd8f6304af714fe8a876fd2bfdfd6e64789263f50ec8",
      "s": "0x59e6de11bcc0796e4a0d4d1ad27de60e4686142d177fb7d19fdb951076684b4a",
      "v": 28,
      "creates": null,
      "raw": "0xf86d80850d40cc69f083015f9094fe1a20c9ed138a351a60f825901828ff1de534db880de0b6b3a7640000801ca0ea574224817decaaa4f9dd8f6304af714fe8a876fd2bfdfd6e64789263f50ec8a059e6de11bcc0796e4a0d4d1ad27de60e4686142d177fb7d19fdb951076684b4a",
      "networkId": 0,
      "chainId": 0
    }
  ]
}