{
  "hash": "0xb3a7acbf6338babef6d7fe141b0e6229d9ee143e67e67f958e5b9fb3d6c06f0c",
  "parentHash": "0x9dbd5490990aae441410d7601cce2e08e166fc3be022780333f58da0dca6f674",
  "number": 90786,
  "timestamp": 1439645462,
  "nonce": "0xc25cab211ede601f",
  "difficulty": 3394090562749,
  "gasLimit": {
    "_hex": "0x2fefd8"
  },
  "gasUsed": {
    "_hex": "0x546c"
  },
  "miner": "0xe6A7a1d47ff21B6321162AEA7C6CB457D5476Bca",
  "extraData": "0x476574682f76312e302e312d38326566323666362f6c696e75782f676f312e34",
  "transactions": [
    {
      "hash": "0xeeb92cbf4cd7ad7d6758addd4532422f27ba36dce8417721595d0cdfc12acd36",
      "blockHash": "0xb3a7acbf6338babef6d7fe141b0e6229d9ee143e67e67f958e5b9fb3d6c06f0c",
      "blockNumber": 90786,
      "transactionIndex": 0,
      "confirmations": null,
      "from": "0x25A0be9f6fCbDE4F61024B86a33dd80F7cbB3cEc",
      "gasPrice": {
        "_hex": "0xd5e26fcfc"
      },
      "gasLimit": {
        "_hex": "0x55f0"
      },
      "to": "0x2910543Af39abA0Cd09dBb2D50200b3E800A63D2",
      "value": {
        "_hex": "0x5c782ce27f0650000"
      },
      "nonce": 2,
      "data": "0x454e51343033375047",
      "r": "0x47cc8c9d7ede593b95bfd7aac858697332ba3591122bcdef118918b5129e7fa7",
      "s": "0x6d5a908ba783f65570f41a91c8b2fd04bc0e61a007b73d3026b510045a7d29c4",
      "v": 27,
      "creates": null,
      "raw": "0xf87602850d5e26fcfc8255f0942910543af39aba0cd09dbb2d50200b3e800a63d28905c782ce27f065000089454e513430333750471ba047cc8c9d7ede593b95bfd7aac858697332ba3591122bcdef118918b5129e7fa7a06d5a908ba783f65570f41a91c8b2fd04bc0e61a007b73d3026b510045a7d29c4",
      "networkId": 0,
      "chainId": 0
    }
  ]
}