{
  "hash": "0xdb9374b8f9a35bfe03595a7df18b3bb4e66674b8c558691195353d8312891c37",
  "parentHash": "0xe855e5b3cd77cc71fd6c2de4bbdd18223d5e3dfe8edaddbdb9a530965713f229",
  "number": 53909,
  "timestamp": 1439045604,
  "nonce": "0x419a6b6996d055a6",
  "difficulty": 1598567079297,
  "gasLimit": {
    "_hex": "0x2fefd8"
  },
  "gasUsed": {
    "_hex": "0x546c"
  },
  "miner": "0x157c6f2431eB1a95797EE86F7d17b3c0FD47A247",
  "extraData": "0x476574682f76312e302e312f77696e646f77732f676f312e342e32",
  "transactions": [
    {
      "hash": "0x580d5466038add85f23401d55b6b48d2a17fafde560718bd8c80ed57f971744c",
      "blockHash": "0xdb9374b8f9a35bfe03595a7df18b3bb4e66674b8c558691195353d8312891c37",
      "blockNumber": 53909,
      "transactionIndex": 0,
      "confirmations": null,
      "from": "0x4eE94Cc27619017833bb36E26A9580EdC162c792",
      "gasPrice": {
        "_hex": "0xda138f718"
      },
      "gasLimit": {
        "_hex": "0x15f90"
      },
      "to": "0x2910543Af39abA0Cd09dBb2D50200b3E800A63D2",
      "value": {
        "_hex": "0x38d7ea4c68000"
      },
      "nonce": 0,
      "data": "0x454e5743414d595647",
      "r": "0xfd072bcd824bfe00ff9490756a8abf67505219a6e0345d5d4efa570589fb61db",
      "s": "0x5bf9f1c4794e85c43c66efa8950538c2db2d115f7bf13a1a30c1066ef8aa07d7",
      "v": 28,
      "creates": null,
      "raw": "0xf87580850da138f71883015f90942910543af39aba0cd09dbb2d50200b3e800a63d287038d7ea4c6800089454e5743414d5956471ca0fd072bcd824bfe00ff9490756a8abf67505219a6e0345d5d4efa570589fb61dba05bf9f1c4794e85c43c66efa8950538c2db2d115f7bf13a1a30c1066ef8aa07d7",
      "networkId": 0,
      "chainId": 0
    }
  ]
}