{
  "hash": "0xc95e99708e7f9d5d278fad15cc2ab07e46b7585a3c85ede058e2af1059439ae2",
  "parentHash": "0xfe74af352ee556dc61b25a6789176c70c467cd9052df0232932a3f0f137e511d",
  "number": 107387,
  "timestamp": 1439921596,
  "nonce": "0x5f9fe618952706e8",
  "difficulty": 4402902171900,
  "gasLimit": {
    "_hex": "0x2fefd8"
  },
  "gasUsed": {
    "_hex": "0x5208"
  },
  "miner": "0xe6A7a1d47ff21B6321162AEA7C6CB457D5476Bca",
  "extraData": "0x476574682f76312e302e312d38326566323666362f6c696e75782f676f312e34",
  "transactions": [
    {
      "hash": "0x322b4b0cb28fc67a400e028f42aeb9ee6ab723f3e396f42725b561c44c0b41ce",
      "blockHash": "0xc95e99708e7f9d5d278fad15cc2ab07e46b7585a3c85ede058e2af1059439ae2",
      "blockNumber": 107387,
      "transactionIndex": 0,
      "confirmations": null,
      "from": "0x9cF18B3eb373C383a42d06136ba331D766ed9Fbb",
      "gasPrice": {
        "_hex": "0xdd000e1db"
      },
      "gasLimit": {
        "_hex": "0x5208"
      },
      "to": "0x32Be343B94f860124dC4fEe278FDCBD38C102D88",
      "value": {
        "_hex": "0x3d94e3ec4ae3a0000"
      },
      "nonce": 8,
      "data": "0x",
      "r": "0xc0bb2c29d12458743eed888c24834641647686e02d33caf8b1ef0e473ea702f0",
      "s": "0x0480ee75007924726e6c8a4ba268a71d0569b9c9ed477f264750a877cbfacbb0",
      "v": 28,
      "creates": null,
      "raw": "0xf86d08850dd000e1db8252089432be343b94f860124dc4fee278fdcbd38c102d888903d94e3ec4ae3a0000801ca0c0bb2c29d12458743eed888c24834641647686e02d33caf8b1ef0e473ea702f0a00480ee75007924726e6c8a4ba268a71d0569b9c9ed477f264750a877cbfacbb0",
      "networkId": 0,
      "chainId": 0
    }
  ]
}