{
  "hash": "0x17e1cf57a21b564200046b62e7cbff0f6b0e944669a0b4ca57c369a8223fc32e",
  "parentHash": "0x7b71de5f184589b909c0a6c21af6b3bae2ce70e2f447327583d00d4afe31e666",
  "number": 68736,
  "timestamp": 1439292885,
  "nonce": "0xba7445a8c98d0a8b",
  "difficulty": 2022140413672,
  "gasLimit": {
    "_hex": "0x2fefd8"
  },
  "gasUsed": {
    "_hex": "0xaec1"
  },
  "miner": "0x88D74a59454F6cF3B51ef6b9136AFb6b9D405A88",
  "extraData": "0x476574682f76312e302e312d37666266393930632f6c696e75782f676f312e34",
  "transactions": [
    {
      "hash": "0x4cd63b4f73b89a317693d04ce2b8b8db414b913f79fd21d05b22dccb10979b0f",
      "blockHash": "0x17e1cf57a21b564200046b62e7cbff0f6b0e944669a0b4ca57c369a8223fc32e",
      "blockNumber": 68736,
      "transactionIndex": 0,
      "confirmations": null,
      "from": "0xc8ebccC5F5689Fa8659d83713341e5aD19349448",
      "gasPrice": {
        "_hex": "0xd9fe3f1e5"
      },
      "gasLimit": {
        "_hex": "0x61a80"
      },
      "to": "0x5Fe5B7546D1628f7348B023A0393de1FC825A4fD",
      "value": {
        "_hex": "0x1bc16d674ec80000"
      },
      "nonce": 36,
      "data": "0xb595b8b50000000000000000000000000000000000000000000000000000000000000001",
      "r": "0x4bb49f53fb8d08b7f1342109a3ff4139d20da5c0b591428bbc4dc68c871de149",
      "s": "0x106d8e84570ac63b2e8726ea65227c084110d512142532c5c46fa0127a3985a6",
      "v": 28,
      "creates": null,
      "raw": "0xf89124850d9fe3f1e583061a80945fe5b7546d1628f7348b023a0393de1fc825a4fd881bc16d674ec80000a4b595b8b500000000000000000000000000000000000000000000000000000000000000011ca04bb49f53fb8d08b7f1342109a3ff4139d20da5c0b591428bbc4dc68c871de149a0106d8e84570ac63b2e8726ea65227c084110d512142532c5c46fa0127a3985a6",
      "networkId": 0,
      "chainId": 0
    }
  ]
}