{
  "hash": "0x6131c2cff18cca7224be0ff8c94104bad2a4c278d1d46b11e36b5465367e1e9d",
  "parentHash": "0xd775dcee2c4887c06112786ee75071b2a6fcc556631aad68663b2f010b0efeac",
  "number": 110068,
  "timestamp": 1439967556,
  "nonce": "0xbf90140382c8e214",
  "difficulty": 4382195157162,
  "gasLimit": {
    "_hex": "0x2fefd8"
  },
  "gasUsed": {
    "_hex": "0x520c"
  },
  "miner": "0xf927a40C8B7F6E07c5af7FA2155B4864a4112B13",
  "extraData": "0x",
  "transactions": [
    {
      "hash": "0x20c4eea787b9fa2b91761a8021b536541df72d69bfefa756162b1cbc22a2ae0a",
      "blockHash": "0x6131c2cff18cca7224be0ff8c94104bad2a4c278d1d46b11e36b5465367e1e9d",
      "blockNumber": 110068,
      "transactionIndex": 0,
      "confirmations": null,
      "from": "0xb9836ec1f42Bd48331bceaedb74a6Bcdc22832bD",
      "gasPrice": {
        "_hex": "0xd7432d271"
      },
      "gasLimit": {
        "_hex": "0x7530"
      },
      "to": "0x7cB57B5A97eAbe94205C07890BE4c1aD31E486A8",
      "value": {
        "_hex": "0x38d7ea4c68000"
      },
      "nonce": 7,
      "data": "0x00",
      "r": "0xc072f254307fd5ca893fa97b794eae8086aa4ebdbd65bdd451346651eb263133",
      "s": "0x186accd7f21165afd505f53986537fda7cc114ecc68f62d78419a090478aa218",
      "v": 28,
      "creates": null,
      "raw": "0xf86b07850d7432d271827530947cb57b5a97eabe94205c07890be4c1ad31e486a887038d7ea4c68000001ca0c072f254307fd5ca893fa97b794eae8086aa4ebdbd65bdd451346651eb263133a0186accd7f21165afd505f53986537fda7cc114ecc68f62d78419a090478aa218",
      "networkId": 0,
      "chainId": 0
    }
  ]
}