{
  "hash": "0x50e8640f100b91546366b5e1dc8370265b8b0c2d25e55f812d93193c8e7dc97c",
  "parentHash": "0xc8ced9eb6029823f83863dc24cafe65b84fd967c3e0babe7ed8c0a1690b4571a",
  "number": 49786,
  "timestamp": 1438979175,
  "nonce": "0xa4e604af09f95f64",
  "difficulty": 1490033146461,
  "gasLimit": {
    "_hex": "0x3f0b0"
  },
  "gasUsed": {
    "_hex": "0x546c"
  },
  "miner": "0xc3a9226aE275dF2CAB312B911040634A9C9C9eF6",
  "extraData": "0x476574682f76312e302e312f77696e646f77732f676f312e342e32",
  "transactions": [
    {
      "hash": "0x40bf1e4e4d2c981c05e2b8c061afca9bc8c98d54a4e89dd2086a77a86fd5823c",
      "blockHash": "0x50e8640f100b91546366b5e1dc8370265b8b0c2d25e55f812d93193c8e7dc97c",
      "blockNumber": 49786,
      "transactionIndex": 0,
      "confirmations": null,
      "from": "0x1B8aa0160cD79f005F88510A714913D70Ad3bE33",
      "gasPrice": {
        "_hex": "0x105779f1ffe"
      },
      "gasLimit": {
        "_hex": "0x15f90"
      },
      "to": "0x2910543Af39abA0Cd09dBb2D50200b3E800A63D2",
      "value": {
        "_hex": "0x39c7e2881199ee04"
      },
      "nonce": 5,
      "data": "0x454e42384b33564652",
      "r": "0x346347b758eec0c360c705b6e8216ef3987b0f50ace0d104c7e903e0379029d5",
      "s": "0x019af7659aedea28108aeb6e97f8d9ce25b608bcebaaac9bb6e2269f7fed58fc",
      "v": 27,
      "creates": null,
      "raw": "0xf87705860105779f1ffe83015f90942910543af39aba0cd09dbb2d50200b3e800a63d28839c7e2881199ee0489454e42384b335646521ba0346347b758eec0c360c705b6e8216ef3987b0f50ace0d104c7e903e0379029d5a0019af7659aedea28108aeb6e97f8d9ce25b608bcebaaac9bb6e2269f7fed58fc",
      "networkId": 0,
      "chainId": 0
    }
  ]
}