{
  "hash": "0x4d8d1543822857f019404c1012fd342d05d7187838224eace1f74f17fbeccd9d",
  "parentHash": "0x958834ab5f6d217d26ba4b9b9cdaae558c17394c5945a8dc7e3f932406aef41d",
  "number": 60041,
  "timestamp": 1439148150,
  "nonce": "0x98023375271d1f71",
  "difficulty": 1725514220129,
  "gasLimit": {
    "_hex": "0x2fe3db"
  },
  "gasUsed": {
    "_hex": "0x5208"
  },
  "miner": "0x70C6b45fe0A5116E97B112B806A76E2F51E24413",
  "extraData": "0x476574682f76312e302e302f77696e646f77732f676f312e342e32",
  "transactions": [
    {
      "hash": "0x69cb1d443b9e854b45327e2f56f503d951c99381e6dbaaf05c186e4dff1da5c9",
      "blockHash": "0x4d8d1543822857f019404c1012fd342d05d7187838224eace1f74f17fbeccd9d",
      "blockNumber": 60041,
      "transactionIndex": 0,
      "confirmations": null,
      "from": "0x03317826d1F70aa4BddfA09BE0C4105552D2358b",
      "gasPrice": {
        "_hex": "0x746a528800"
      },
      "gasLimit": {
        "_hex": "0x5208"
      },
      "to": "0xcd3078E3E503acB396F88661da737735cc02222A",
      "value": {
        "_hex": "0x21a4ffcbc0303c000"
      },
      "nonce": 0,
      "data": "0x",
      "r": "0xadc2197edb8fe40ec6d81b2d1c823666a6fa343cd6c29f5f9660bc7b61a5d26b",
      "s": "0x87daf2c5a77ed497c36f0440c159641c8ec0144faa1b0ed23589cd906aebb36e",
      "v": 27,
      "creates": null,
      "raw": "0xf86d8085746a52880082520894cd3078e3e503acb396f88661da737735cc02222a89021a4ffcbc0303c000801ba0adc2197edb8fe40ec6d81b2d1c823666a6fa343cd6c29f5f9660bc7b61a5d26ba087daf2c5a77ed497c36f0440c159641c8ec0144faa1b0ed23589cd906aebb36e",
      "networkId": 0,
      "chainId": 0
    }
  ]
}