{
  "hash": "0x41b7382bc5528d7265cb9bcaad9ffa61cae1482fae6a8d057e0b33d394a30d7f",
  "parentHash": "0xcb6431d2a52a19d4061d1fbe1e37c3c0cfe1cd55192c6d3fd9c62380c4098b03",
  "number": 92924,
  "timestamp": 1439679372,
  "nonce": "0x24aa930b939e2d19",
  "difficulty": 3661792791343,
  "gasLimit": {
    "_hex": "0x2fefd8"
  },
  "gasUsed": {
    "_hex": "0x5208"
  },
  "miner": "0x9746c7e1ef2bd21FF3997fa467593a89cb852BD0",
  "extraData": "0x476574682f76312e302e312f77696e646f77732f676f312e342e32",
  "transactions": [
    {
      "hash": "0xcd7ab281f735a91eea8f09e859f13fe33bcd9242754d89183ccf10cd9effd849",
      "blockHash": "0x41b7382bc5528d7265cb9bcaad9ffa61cae1482fae6a8d057e0b33d394a30d7f",
      "blockNumber": 92924,
      "transactionIndex": 0,
      "confirmations": null,
      "from": "0xd23D7AfFacdC3E9F3dAE7Afcb4006f58f8a44600",
      "gasPrice": {
        "_hex": "0xd1f217cbf"
      },
      "gasLimit": {
        "_hex": "0x15f90"
      },
      "to": "0x27bEB0DB6C8A5896E0440C6501f81658c57319Fe",
      "value": {
        "_hex": "0x4563918244f40000"
      },
      "nonce": 0,
      "data": "0x",
      "r": "0xf90a1e69b67a8f7023480668db10c0e2f2db9bddf6504f6717b43ff304bc7e44",
      "s": "0x2914c21b8c316e844a39ad1f91c06883b13a3cfce75069e99d650b182857b680",
      "v": 27,
      "creates": null,
      "raw": "0xf86d80850d1f217cbf83015f909427beb0db6c8a5896e0440c6501f81658c57319fe884563918244f40000801ba0f90a1e69b67a8f7023480668db10c0e2f2db9bddf6504f6717b43ff304bc7e44a02914c21b8c316e844a39ad1f91c06883b13a3cfce75069e99d650b182857b680",
      "networkId": 0,
      "chainId": 0
    }
  ]
}