{
  "hash": "0x60cc3083502ac2cfd305f456583557641640e37db17388703318bb73f7ec15c1",
  "parentHash": "0x5c5f8bf2feb2771f4a5130a376ab900ffff572042196b5c8b659ceadbcaa0e99",
  "number": 106266,
  "timestamp": 1439901371,
  "nonce": "0x2bec6010621fe0b6",
  "difficulty": 4479392285852,
  "gasLimit": {
    "_hex": "0x2fefd8"
  },
  "gasUsed": {
    "_hex": "0x5208"
  },
  "miner": "0xe6A7a1d47ff21B6321162AEA7C6CB457D5476Bca",
  "extraData": "0x476574682f76312e302e312d38326566323666362f6c696e75782f676f312e34",
  "transactions": [
    {
      "hash": "0xe2e52e81dddf55b4b936624cd85b8df3aeea3b3a821e48987dc4461a5fc281d2",
      "blockHash": "0x60cc3083502ac2cfd305f456583557641640e37db17388703318bb73f7ec15c1",
      "blockNumber": 106266,
      "transactionIndex": 0,
      "confirmations": null,
      "from": "0x9fad8F0929b67D17E6033DEdf9899Db1D57d61Ee",
      "gasPrice": {
        "_hex": "0xcecc3a553"
      },
      "gasLimit": {
        "_hex": "0x15f90"
      },
      "to": "0x8df03bD37602d97980327B58D940258dC57007B3",
      "value": {
        "_hex": "0x8ce07c17642f2000"
      },
      "nonce": 0,
      "data": "0x",
      "r": "0x67d6b37bef47a4d8529f42bdd82f13ed731759d4d84454ed89748f59b105b37d",
      "s": "0x3c57d268e0d186f0ef24bf0a8ff6cd8144d0fe4205a5563b172d445230053c88",
      "v": 27,
      "creates": null,
      "raw": "0xf86d80850cecc3a55383015f90948df03bd37602d97980327b58d940258dc57007b3888ce07c17642f2000801ba067d6b37bef47a4d8529f42bdd82f13ed731759d4d84454ed89748f59b105b37da03c57d268e0d186f0ef24bf0a8ff6cd8144d0fe4205a5563b172d445230053c88",
      "networkId": 0,
      "chainId": 0
    }
  ]
}