{
  "hash": "0x7ca075a8d0ccafbff7080f48540e7dafa4198fd1ceebee57a2668692132e8563",
  "parentHash": "0xa1b3d71e8eadc244e02bf25de8523467e27929087ad6efe4fb9007f4a43c87ba",
  "number": 105756,
  "timestamp": 1439892959,
  "nonce": "0xf2f90b22f8bec3da",
  "difficulty": 4414522811847,
  "gasLimit": {
    "_hex": "0x2fefd8"
  },
  "gasUsed": {
    "_hex": "0x546c"
  },
  "miner": "0x05f74a38293C914C6B14a39f5d8dEa98f22E4FBA",
  "extraData": "0x",
  "transactions": [
    {
      "hash": "0x8a52167de32c8bb7afcc6cc133b738b2105a979895c2d0b3c726ebfbb5c71223",
      "blockHash": "0x7ca075a8d0ccafbff7080f48540e7dafa4198fd1ceebee57a2668692132e8563",
      "blockNumber": 105756,
      "transactionIndex": 0,
      "confirmations": null,
      "from": "0xdA855d53477f505eC4c8D5E8bB9180d38681119C",
      "gasPrice": {
        "_hex": "0x110c8f7d8de"
      },
      "gasLimit": {
        "_hex": "0xc350"
      },
      "to": "0x2910543Af39abA0Cd09dBb2D50200b3E800A63D2",
      "value": {
        "_hex": "0x124ae2d26df3dfc0000"
      },
      "nonce": 1,
      "data": "0x454e3438454d473738",
      "r": "0x0f014c3500d1d6cedf980b2971952054a4baf1dadcb80b77eaf677c72e0eabf5",
      "s": "0x8f74c6065d0b89471b8f59bf7c94ad6233541402d49a821f730d11c05ad6e918",
      "v": 27,
      "creates": null,
      "raw": "0xf87801860110c8f7d8de82c350942910543af39aba0cd09dbb2d50200b3e800a63d28a0124ae2d26df3dfc000089454e3438454d4737381ba00f014c3500d1d6cedf980b2971952054a4baf1dadcb80b77eaf677c72e0eabf5a08f74c6065d0b89471b8f59bf7c94ad6233541402d49a821f730d11c05ad6e918",
      "networkId": 0,
      "chainId": 0
    }
  ]
}