{
  "hash": "0x4a8b8d614245727025458bc865b7bb4406bcfd91edf7e6ed85d0cf639df79661",
  "parentHash": "0x39ddcb02b4c8674ab273abd05f6cf25803deaf5a3915470d34df6e1d078dada9",
  "number": 64970,
  "timestamp": 1439229255,
  "nonce": "0xe530d2bfc6f8a715",
  "difficulty": 1911646426033,
  "gasLimit": {
    "_hex": "0x2fefd8"
  },
  "gasUsed": {
    "_hex": "0x1627c"
  },
  "miner": "0x0Cb6EEF179Ba9E7036f95bEEB01e250ab85A8c88",
  "extraData": "0x476574682f76312e302e312f77696e646f77732f676f312e342e32",
  "transactions": [
    {
      "hash": "0x6b43bae5c9a8fed928953ccd3917cd70f6d841444fb75981cd2b33b7af76a240",
      "blockHash": "0x4a8b8d614245727025458bc865b7bb4406bcfd91edf7e6ed85d0cf639df79661",
      "blockNumber": 64970,
      "transactionIndex": 0,
      "confirmations": null,
      "from": "0x4d8b9b150E3c85c4BFcF23Dba3D06d471D13560E",
      "gasPrice": {
        "_hex": "0xd062f6914"
      },
      "gasLimit": {
        "_hex": "0x15f90"
      },
      "to": "0x793AE8C1b1a160BFc07BFB0d04F85eab1A71F4f2",
      "value": {
        "_hex": "0x0"
      },
      "nonce": 0,
      "data": "0x3ba15036",
      "r": "0xb9d4c7eca3288542c17f785ae037b372f522dbbfe4db1fbbd12cb30c10258ad6",
      "s": "0x495a1d3c5b679dded0ad6299dcb1cc54b08662edb79cf6947652b8a412b13219",
      "v": 27,
      "creates": null,
      "raw": "0xf86980850d062f691483015f9094793ae8c1b1a160bfc07bfb0d04f85eab1a71f4f280843ba150361ba0b9d4c7eca3288542c17f785ae037b372f522dbbfe4db1fbbd12cb30c10258ad6a0495a1d3c5b679dded0ad6299dcb1cc54b08662edb79cf6947652b8a412b13219",
      "networkId": 0,
      "chainId": 0
    },
    {
      "hash": "0xcc2a0b984df017e0bd31f4839ca966825a828482907dc9da11e8218df9879355",
      "blockHash": "0x4a8b8d614245727025458bc865b7bb4406bcfd91edf7e6ed85d0cf639df79661",
      "blockNumber": 64970,
      "transactionIndex": 1,
      "confirmations": null,
      "from": "0x24FBE9f1630afc82e8C3e3052903C37f60604a98",
      "gasPrice": {
        "_hex": "0xba43b7400"
      },
      "gasLimit": {
        "_hex": "0x5208"
      },
      "to": "0x5C4090d5A4DAc1355DD9d16Ccb5914028e5C2Be3",
      "value": {
        "_hex": "0x205aea81b969000"
      },
      "nonce": 1,
      "data": "0x",
      "r": "0x6833fc15f681192fa2658074c0b083c7a102179d99c6bd05c7bc27faf54be297",
      "s": "0x08d0983143fd29d6ca77f1ec8dcd9d02e06c85b4ed7ab97777f612ab1bb8e067",
      "v": 28,
      "creates": null,
      "raw": "0xf86c01850ba43b7400825208945c4090d5a4dac1355dd9d16ccb5914028e5c2be3880205aea81b969000801ca06833fc15f681192fa2658074c0b083c7a102179d99c6bd05c7bc27faf54be297a008d0983143fd29d6ca77f1ec8dcd9d02e06c85b4ed7ab97777f612ab1bb8e067",
      "networkId": 0,
      "chainId": 0
    },
    {
      "hash": "0xc4d724815d3f00301950fccf4580a003daf9248846ca6c0fe1f7fffac1e2e3e8",
      "blockHash": "0x4a8b8d614245727025458bc865b7bb4406bcfd91edf7e6ed85d0cf639df79661",
      "blockNumber": 64970,
      "transactionIndex": 2,
      "confirmations": null,
      "from": "0x75535412f664052AA2be77Fc8E59c8e1DC2e7070",
      "gasPrice": {
        "_hex": "0xba43b7400"
      },
      "gasLimit": {
        "_hex": "0x5208"
      },
      "to": "0x592D1A1eF22cA97f1F9139e053AD875700738829",
      "value": {
        "_hex": "0x1a921f4b554d000"
      },
      "nonce": 1,
      "data": "0x",
      "r": "0x61506d5155491ef2575e31b85d8efbc64129c47fe1de021bfbd492074973f6f3",
      "s": "0x6f04437bd760b875d30e77a244cbed80c71bf488086cc05dcd9b17b31ea1a291",
      "v": 28,
      "creates": null,
      "raw": "0xf86c01850ba43b740082520894592d1a1ef22ca97f1f9139e053ad8757007388298801a921f4b554d000801ca061506d5155491ef2575e31b85d8efbc64129c47fe1de021bfbd492074973f6f3a06f04437bd760b875d30e77a244cbed80c71bf488086cc05dcd9b17b31ea1a291",
      "networkId": 0,
      "chainId": 0
    }
  ]
}