{
  "hash": "0x66f8c82a7cc4697cf3f31ae3ea37166b791652193c309c979fff1f90999645a0",
  "parentHash": "0xcd69e7d6c894122c13fa5c6141293499bebc92b2b187db98cf6e6cea1834fb16",
  "number": 115112,
  "timestamp": 1440051611,
  "nonce": "0xbe85f5a2283119a1",
  "difficulty": 4536268407178,
  "gasLimit": {
    "_hex": "0x2fefd8"
  },
  "gasUsed": {
    "_hex": "0x5208"
  },
  "miner": "0xD0ee3F53eE0fCf3F9fbCcdd17BD1b6441DdC2074",
  "extraData": "0x476574682f76312e302e312d38326566323666362f6c696e75782f676f312e34",
  "transactions": [
    {
      "hash": "0x34f970480d55976e032bd19b9827606c6ee44a5cacb6239946933d8c1b0b95eb",
      "blockHash": "0x66f8c82a7cc4697cf3f31ae3ea37166b791652193c309c979fff1f90999645a0",
      "blockNumber": 115112,
      "transactionIndex": 0,
      "confirmations": null,
      "from": "0x4FCD326ae0739D0DA0fC71020adb6aBf9abf3BdA",
      "gasPrice": {
        "_hex": "0xba43b7400"
      },
      "gasLimit": {
        "_hex": "0x5208"
      },
      "to": "0xC47Aaa860008be6f65B58c6C6E02a84e666EfE31",
      "value": {
        "_hex": "0xddcfbbb7a606000"
      },
      "nonce": 9,
      "data": "0x",
      "r": "0x1cb6d494ccb98f6b6336503ef388880fd4d0112b12eaaf50bb0fbb371c35e7eb",
      "s": "0x3d4ed2ce2d7d4753b0aa1fe55477f655a8aa45f085b31851c5e73cc0355951b1",
      "v": 28,
      "creates": null,
      "raw": "0xf86c09850ba43b740082520894c47aaa860008be6f65b58c6c6e02a84e666efe31880ddcfbbb7a606000801ca01cb6d494ccb98f6b6336503ef388880fd4d0112b12eaaf50bb0fbb371c35e7eba03d4ed2ce2d7d4753b0aa1fe55477f655a8aa45f085b31851c5e73cc0355951b1",
      "networkId": 0,
      "chainId": 0
    }
  ]
}