{
  "hash": "0xfed7eb858c49818b9d5b527f5b4fb459103552317b8b248282defb6201ad40b1",
  "parentHash": "0xfbade21e682fa1ce01e1225a29f0a3ff2f381633b5b678bb092820df5ea671d1",
  "number": 100938,
  "timestamp": 1439814892,
  "nonce": "0x865c967a97fbcdd5",
  "difficulty": 3856391481966,
  "gasLimit": {
    "_hex": "0x2fefd8"
  },
  "gasUsed": {
    "_hex": "0xa410"
  },
  "miner": "0xE300c4587D260cE22a677755Db6429B491A4309E",
  "extraData": "0x",
  "transactions": [
    {
      "hash": "0x2cccdeca6f3794328f267fadd7205d58d4f7f868c420f43e5f32b2ecd5afeee4",
      "blockHash": "0xfed7eb858c49818b9d5b527f5b4fb459103552317b8b248282defb6201ad40b1",
      "blockNumber": 100938,
      "transactionIndex": 0,
      "confirmations": null,
      "from": "0x0f36D8B9254f1B059d0B4c4FeEceB82EE24a6180",
      "gasPrice": {
        "_hex": "0xdf6aa3dfd"
      },
      "gasLimit": {
        "_hex": "0x5208"
      },
      "to": "0x32Be343B94f860124dC4fEe278FDCBD38C102D88",
      "value": {
        "_hex": "0x11baf63de4802c00"
      },
      "nonce": 1,
      "data": "0x",
      "r": "0x16cb45f992c2d9fd111b6e63eb4f98446e62686c454bf58715774c596763e39c",
      "s": "0x6353064312d414e2424efc043aaf9dbe959ebdfaad1035a96dfba3a5f3273442",
      "v": 28,
      "creates": null,
      "raw": "0xf86c01850df6aa3dfd8252089432be343b94f860124dc4fee278fdcbd38c102d888811baf63de4802c00801ca016cb45f992c2d9fd111b6e63eb4f98446e62686c454bf58715774c596763e39ca06353064312d414e2424efc043aaf9dbe959ebdfaad1035a96dfba3a5f3273442",
      "networkId": 0,
      "chainId": 0
    },
    {
      "hash": "0xe63d9144866f0bde694f855d6952a8185e818b74896e9b69c7740f07e9b62a2f",
      "blockHash": "0xfed7eb858c49818b9d5b527f5b4fb459103552317b8b248282defb6201ad40b1",
      "blockNumber": 100938,
      "transactionIndex": 1,
      "confirmations": null,
      "from": "0xe535C1c29F0091324F184de7a5be5520D1b0b008",
      "gasPrice": {
        "_hex": "0xdf6aa3dfd"
      },
      "gasLimit": {
        "_hex": "0x5208"
      },
      "to": "0x32Be343B94f860124dC4fEe278FDCBD38C102D88",
      "value": {
        "_hex": "0x8b87a34507643000"
      },
      "nonce": 4,
      "data": "0x",
      "r": "0x165bb8a2db94fa5aa97c65f964bdf8991ec8b6bd8d41a4c018670cef9022eab7",
      "s": "0x05e860a09adb43e5d6577f582cdc5fe68b392d0ba287d97b8e44cd9fee39a094",
      "v": 27,
      "creates": null,
      "raw": "0xf86c04850df6aa3dfd8252089432be343b94f860124dc4fee278fdcbd38c102d88888b87a34507643000801ba0165bb8a2db94fa5aa97c65f964bdf8991ec8b6bd8d41a4c018670cef9022eab7a005e860a09adb43e5d6577f582cdc5fe68b392d0ba287d97b8e44cd9fee39a094",
      "networkId": 0,
      "chainId": 0
    }
  ]
}