{
  "hash": "0x18c5d0750df0387d522e3fe6511fe77bf5a0f6edfedd00c73f1bdafed7021d59",
  "parentHash": "0x598b2fb8835c4573e2c122da80efa1c33b35ad9cbb32cdeeeff4af2adc7f19a5",
  "number": 59001,
  "timestamp": 1439130438,
  "nonce": "0x8df6d9c72894cfae",
  "difficulty": 1707289276012,
  "gasLimit": {
    "_hex": "0x2fefd8"
  },
  "gasUsed": {
    "_hex": "0x546c"
  },
  "miner": "0xa50ec0D39fa913E62f1Bae7074E6F36caA71855b",
  "extraData": "0x",
  "transactions": [
    {
      "hash": "0x87a09a2e9259cc34c5312a3963ea0b8d4fcf5fda0575a0c08d3448c1c1f12bba",
      "blockHash": "0x18c5d0750df0387d522e3fe6511fe77bf5a0f6edfedd00c73f1bdafed7021d59",
      "blockNumber": 59001,
      "transactionIndex": 0,
      "confirmations": null,
      "from": "0x3eee6F1E96360b7689b3069AdAF9AF8EB60ce481",
      "gasPrice": {
        "_hex": "0x110c8f7d8de"
      },
      "gasLimit": {
        "_hex": "0xc350"
      },
      "to": "0x2910543Af39abA0Cd09dBb2D50200b3E800A63D2",
      "value": {
        "_hex": "0x1b1ae4d6e2ef500000"
      },
      "nonce": 0,
      "data": "0x454e595543434b3147",
      "r": "0x081115e9cf318f1f36b077b75fc9d0fdce6506249cfee420fc1805131cb5a439",
      "s": "0xfbf75072ac9ef3fae1f9604b12f3ad4f23ff668f7a1bd59d3ff289ae91351314",
      "v": 27,
      "creates": null,
      "raw": "0xf87780860110c8f7d8de82c350942910543af39aba0cd09dbb2d50200b3e800a63d2891b1ae4d6e2ef50000089454e595543434b31471ba0081115e9cf318f1f36b077b75fc9d0fdce6506249cfee420fc1805131cb5a439a0fbf75072ac9ef3fae1f9604b12f3ad4f23ff668f7a1bd59d3ff289ae91351314",
      "networkId": 0,
      "chainId": 0
    }
  ]
}