{
  "hash": "0x3fdce3ae7abdc15c7946240d48ac2afbc070e7355df092e3bea95d9100eea2be",
  "parentHash": "0x8fa49a6c6400c2a77886f20da9243a9f4b14ab14d13c2df1ad5db7883ba239ac",
  "number": 115303,
  "timestamp": 1440054927,
  "nonce": "0x3a23bfef812605fe",
  "difficulty": 4551696121142,
  "gasLimit": {
    "_hex": "0x2fefd8"
  },
  "gasUsed": {
    "_hex": "0x3d860"
  },
  "miner": "0x52bc44d5378309EE2abF1539BF71dE1b7d7bE3b5",
  "extraData": "0x476574682f76312e302e312d61383839306436312f6c696e75782f676f312e34",
  "transactions": [
    {
      "hash": "0x0254e5d62186f54e3c4ea3f741349bcc0e51fcc0ce1cbf71bcadff8748df701d",
      "blockHash": "0x3fdce3ae7abdc15c7946240d48ac2afbc070e7355df092e3bea95d9100eea2be",
      "blockNumber": 115303,
      "transactionIndex": 0,
      "confirmations": null,
      "from": "0xbb30e448B72d6Fdd44973A4C7a312F92f22C8F07",
      "gasPrice": {
        "_hex": "0xdc70faed7"
      },
      "gasLimit": {
        "_hex": "0x5208"
      },
      "to": "0x32Be343B94f860124dC4fEe278FDCBD38C102D88",
      "value": {
        "_hex": "0x2bd5e5f8b3b67400"
      },
      "nonce": 15,
      "data": "0x",
      "r": "0x56671e36aa5fa42e3b39eefade0a58f9cc198e8903ba7dcae9be452a19deaf35",
      "s": "0x7aba4b1e89909562964a446ddd0883201f60ccf3421bf3d083de2425543b5dd3",
      "v": 27,
      "creates": null,
      "raw": "0xf86c0f850dc70faed78252089432be343b94f860124dc4fee278fdcbd38c102d88882bd5e5f8b3b67400801ba056671e36aa5fa42e3b39eefade0a58f9cc198e8903ba7dcae9be452a19deaf35a07aba4b1e89909562964a446ddd0883201f60ccf3421bf3d083de2425543b5dd3",
      "networkId": 0,
      "chainId": 0
    },
    {
      "hash": "0x606b78d503f17a3da9c6b2c3ad7739f8a00f7b33f3e5b8f9119e8cfaf223fdfb",
      "blockHash": "0x3fdce3ae7abdc15c7946240d48ac2afbc070e7355df092e3bea95d9100eea2be",
      "blockNumber": 115303,
      "transactionIndex": 1,
      "confirmations": null,
      "from": "0xe6A7a1d47ff21B6321162AEA7C6CB457D5476Bca",
      "gasPrice": {
        "_hex": "0xdacd80f0b"
      },
      "gasLimit": {
        "_hex": "0x55f0"
      },
      "to": "0x3629B45bBf972aDc23C064D31B7d7c6ce17415D5",
      "value": {
        "_hex": "0x1ea76aab391dd10b0"
      },
      "nonce": 5461,
      "data": "0x",
      "r": "0x679f5e09fcc120df8fcc8048a9e3bb584ac812ab549fa803ed40132c787a50ef",
      "s": "0x2c78342639e30ecb8f74e4805a8aa17b273b63a7005fc777c2325fff6e98c836",
      "v": 27,
      "creates": null,
      "raw": "0xf86f821555850dacd80f0b8255f0943629b45bbf972adc23c064d31b7d7c6ce17415d58901ea76aab391dd10b0801ba0679f5e09fcc120df8fcc8048a9e3bb584ac812ab549fa803ed40132c787a50efa02c78342639e30ecb8f74e4805a8aa17b273b63a7005fc777c2325fff6e98c836",
      "networkId": 0,
      "chainId": 0
    },
    {
      "hash": "0xd482d69c4bcaa8be2739355ddb0c14950ad1886158bbc73880cf681029a21cee",
      "blockHash": "0x3fdce3ae7abdc15c7946240d48ac2afbc070e7355df092e3bea95d9100eea2be",
      "blockNumber": 115303,
      "transactionIndex": 2,
      "confirmations": null,
      "from": "0xe6A7a1d47ff21B6321162AEA7C6CB457D5476Bca",
      "gasPrice": {
        "_hex": "0xdacd80f0b"
      },
      "gasLimit": {
        "_hex": "0x55f0"
      },
      "to": "0x46b92ea5c3E696bf123354DfCc564cbac1C90671",
      "value": {
        "_hex": "0x1f7a49dfed57b21d0"
      },
      "nonce": 5462,
      "data": "0x",
      "r": "0x2de3770703c71530eaa2cc9aab48a129b05c7fed8d831bdf286287a0a1d0fc3f",
      "s": "0x3cd5f2d590e024070fa9b2ac9e6af50afaea83dc2c1124d8c08f54fdbbac7a83",
      "v": 28,
      "creates": null,
      "raw": "0xf86f821556850dacd80f0b8255f09446b92ea5c3e696bf123354dfcc564cbac1c906718901f7a49dfed57b21d0801ca02de3770703c71530eaa2cc9aab48a129b05c7fed8d831bdf286287a0a1d0fc3fa03cd5f2d590e024070fa9b2ac9e6af50afaea83dc2c1124d8c08f54fdbbac7a83",
      "networkId": 0,
      "chainId": 0
    },
    {
      "hash": "0x03a23126df0f4767d9751590ff456cf9b791e82de4889c2dbe1cc8e444a4e1ac",
      "blockHash": "0x3fdce3ae7abdc15c7946240d48ac2afbc070e7355df092e3bea95d9100eea2be",
      "blockNumber": 115303,
      "transactionIndex": 3,
      "confirmations": null,
      "from": "0xe6A7a1d47ff21B6321162AEA7C6CB457D5476Bca",
      "gasPrice": {
        "_hex": "0xdacd80f0b"
      },
      "gasLimit": {
        "_hex": "0x55f0"
      },
      "to": "0x182c02d431a667bF08d1BB680306aB6feC4971e5",
      "value": {
        "_hex": "0x1fad36f4be7bd0980"
      },
      "nonce": 5463,
      "data": "0x",
      "r": "0x14a1c257f17e1ac572e2e2d2f23c4e1bf16559d0cde2d9ef6cd5ae7eff1dda0d",
      "s": "0x42ea9b4c46ca5ef413348861f0b9d404182ebb0ce4d8014ead3c416a4a6c54bc",
      "v": 27,
      "creates": null,
      "raw": "0xf86f821557850dacd80f0b8255f094182c02d431a667bf08d1bb680306ab6fec4971e58901fad36f4be7bd0980801ba014a1c257f17e1ac572e2e2d2f23c4e1bf16559d0cde2d9ef6cd5ae7eff1dda0da042ea9b4c46ca5ef413348861f0b9d404182ebb0ce4d8014ead3c416a4a6c54bc",
      "networkId": 0,
      "chainId": 0
    },
    {
      "hash": "0x8885ae0be166ec001101de758466775f523f17e7061bae058ea61dbef77d034b",
      "blockHash": "0x3fdce3ae7abdc15c7946240d48ac2afbc070e7355df092e3bea95d9100eea2be",
      "blockNumber": 115303,
      "transactionIndex": 4,
      "confirmations": null,
      "from": "0xe6A7a1d47ff21B6321162AEA7C6CB457D5476Bca",
      "gasPrice": {
        "_hex": "0xdacd80f0b"
      },
      "gasLimit": {
        "_hex": "0x55f0"
      },
      "to": "0x3222BA3F3e79eA0e31467EEE7639B57923558cCD",
      "value": {
        "_hex": "0x202e59539a5a1faf0"
      },
      "nonce": 5464,
      "data": "0x",
      "r": "0x157c7c256b3f98631d42929ced434e3b1c81c48bc0f59c9efc39d296fea35c97",
      "s": "0x1d7d00a62000065671610bf2135a17c3bbf636e3d2de0e8a8c00f664316619d9",
      "v": 28,
      "creates": null,
      "raw": "0xf86f821558850dacd80f0b8255f0943222ba3f3e79ea0e31467eee7639b57923558ccd890202e59539a5a1faf0801ca0157c7c256b3f98631d42929ced434e3b1c81c48bc0f59c9efc39d296fea35c97a01d7d00a62000065671610bf2135a17c3bbf636e3d2de0e8a8c00f664316619d9",
      "networkId": 0,
      "chainId": 0
    },
    {
      "hash": "0xe9a81ab66b7e728ba77685227edc6551abced5a6f082eefb0843dfcf46a876fc",
      "blockHash": "0x3fdce3ae7abdc15c7946240d48ac2afbc070e7355df092e3bea95d9100eea2be",
      "blockNumber": 115303,
      "transactionIndex": 5,
      "confirmations": null,
      "from": "0xe6A7a1d47ff21B6321162AEA7C6CB457D5476Bca",
      "gasPrice": {
        "_hex": "0xdacd80f0b"
      },
      "gasLimit": {
        "_hex": "0x55f0"
      },
      "to": "0x63738Ec4C9adec404749B5747F3bbE2147de632F",
      "value": {
        "_hex": "0x21009bcf9e5a10600"
      },
      "nonce": 5465,
      "data": "0x",
      "r": "0x9eafa20d7c608ea9cf01609712e3919a37ced66d871d54a408faaaee043d5eb7",
      "s": "0x4d336d77d49b0b793a74acb11808a2f404e5ab22e509d07e66d1c34b77999db5",
      "v": 27,
      "creates": null,
      "raw": "0xf86f821559850dacd80f0b8255f09463738ec4c9adec404749b5747f3bbe2147de632f89021009bcf9e5a10600801ba09eafa20d7c608ea9cf01609712e3919a37ced66d871d54a408faaaee043d5eb7a04d336d77d49b0b793a74acb11808a2f404e5ab22e509d07e66d1c34b77999db5",
      "networkId": 0,
      "chainId": 0
    },
    {
      "hash": "0x3f1bd0f26e8b4ce00f76069f83da271d9ed8cea506602b7483e8cbfad74813e2",
      "blockHash": "0x3fdce3ae7abdc15c7946240d48ac2afbc070e7355df092e3bea95d9100eea2be",
      "blockNumber": 115303,
      "transactionIndex": 6,
      "confirmations": null,
      "from": "0xe6A7a1d47ff21B6321162AEA7C6CB457D5476Bca",
      "gasPrice": {
        "_hex": "0xdacd80f0b"
      },
      "gasLimit": {
        "_hex": "0x55f0"
      },
      "to": "0xf5695Ae85aB4f83A5f859c4c691ce7CEf32b708B",
      "value": {
        "_hex": "0x21b88cb85bb684b30"
      },
      "nonce": 5466,
      "data": "0x",
      "r": "0xc5e9ac291bfbf5d7be42fed0b27ecc1d6f17574a0742cacbc540e18c71b544d3",
      "s": "0x47feaaa42bd9815caf16a8b9c8e510d3488664e15b561a7688abbb88a510d7b1",
      "v": 27,
      "creates": null,
      "raw": "0xf86f82155a850dacd80f0b8255f094f5695ae85ab4f83a5f859c4c691ce7cef32b708b89021b88cb85bb684b30801ba0c5e9ac291bfbf5d7be42fed0b27ecc1d6f17574a0742cacbc540e18c71b544d3a047feaaa42bd9815caf16a8b9c8e510d3488664e15b561a7688abbb88a510d7b1",
      "networkId": 0,
      "chainId": 0
    },
    {
      "hash": "0xf36a5aa23dea0c2b46db92df832473f0ab3dd2161463d62309edd342dd146f67",
      "blockHash": "0x3fdce3ae7abdc15c7946240d48ac2afbc070e7355df092e3bea95d9100eea2be",
      "blockNumber": 115303,
      "transactionIndex": 7,
      "confirmations": null,
      "from": "0xe6A7a1d47ff21B6321162AEA7C6CB457D5476Bca",
      "gasPrice": {
        "_hex": "0xdacd80f0b"
      },
      "gasLimit": {
        "_hex": "0x55f0"
      },
      "to": "0xdc41BFACFAaF8B0F0949aB5A3f18f47063Ae62fB",
      "value": {
        "_hex": "0x2229805f47c4860b0"
      },
      "nonce": 5467,
      "data": "0x",
      "r": "0x3b2fe6d005d5b1ebd0f851497ea704e6f734b717775d9c6124e4abf48ed48dc9",
      "s": "0x78561b6d73bbfec49ef8e0dfab8b8d7ca918f9740c20c200a91bbe89058ac0a7",
      "v": 27,
      "creates": null,
      "raw": "0xf86f82155b850dacd80f0b8255f094dc41bfacfaaf8b0f0949ab5a3f18f47063ae62fb8902229805f47c4860b0801ba03b2fe6d005d5b1ebd0f851497ea704e6f734b717775d9c6124e4abf48ed48dc9a078561b6d73bbfec49ef8e0dfab8b8d7ca918f9740c20c200a91bbe89058ac0a7",
      "networkId": 0,
      "chainId": 0
    },
    {
      "hash": "0x269ce36f4c69b4330f43792f4a17ce0c2847d3ab4eabb2f4a6ee92c7b03f572f",
      "blockHash": "0x3fdce3ae7abdc15c7946240d48ac2afbc070e7355df092e3bea95d9100eea2be",
      "blockNumber": 115303,
      "transactionIndex": 8,
      "confirmations": null,
      "from": "0xe6A7a1d47ff21B6321162AEA7C6CB457D5476Bca",
      "gasPrice": {
        "_hex": "0xdacd80f0b"
      },
      "gasLimit": {
        "_hex": "0x55f0"
      },
      "to": "0x853Bff007d269E0526E871360d79d69D602770dc",
      "value": {
        "_hex": "0x22a868aacec3c0970"
      },
      "nonce": 5468,
      "data": "0x",
      "r": "0x85b227cb688bcaa402f4e560fa85e8db83380074109d008446e85dd6537718bf",
      "s": "0x472458f2fa94efa2f35989715abf04f09c7e88230d21cb85fe486495d777bc40",
      "v": 28,
      "creates": null,
      "raw": "0xf86f82155c850dacd80f0b8255f094853bff007d269e0526e871360d79d69d602770dc89022a868aacec3c0970801ca085b227cb688bcaa402f4e560fa85e8db83380074109d008446e85dd6537718bfa0472458f2fa94efa2f35989715abf04f09c7e88230d21cb85fe486495d777bc40",
      "networkId": 0,
      "chainId": 0
    },
    {
      "hash": "0x3b03d610e00bc259239af88edd9cde4be55c28d6176ec08cfe13b166b2c56ce0",
      "blockHash": "0x3fdce3ae7abdc15c7946240d48ac2afbc070e7355df092e3bea95d9100eea2be",
      "blockNumber": 115303,
      "transactionIndex": 9,
      "confirmations": null,
      "from": "0xe6A7a1d47ff21B6321162AEA7C6CB457D5476Bca",
      "gasPrice": {
        "_hex": "0xdacd80f0b"
      },
      "gasLimit": {
        "_hex": "0x55f0"
      },
      "to": "0xB28fE7b9815982FF203F751ce550111D752d8795",
      "value": {
        "_hex": "0x277984243564f7fc0"
      },
      "nonce": 5469,
      "data": "0x",
      "r": "0x19cbb43cd8b526a7589ff9a29cee13d9b82262ec9e6317c89db313230ab0ab19",
      "s": "0x417b3b24dffc629be8d6e8141d32f39d1b1f1acb9109be33201358cd6121e5d9",
      "v": 27,
      "creates": null,
      "raw": "0xf86f82155d850dacd80f0b8255f094b28fe7b9815982ff203f751ce550111d752d8795890277984243564f7fc0801ba019cbb43cd8b526a7589ff9a29cee13d9b82262ec9e6317c89db313230ab0ab19a0417b3b24dffc629be8d6e8141d32f39d1b1f1acb9109be33201358cd6121e5d9",
      "networkId": 0,
      "chainId": 0
    },
    {
      "hash": "0xfc0b0eb027fc3b2751d9cdbad7e75e51adcb27f76a0072f140effa65de1c68d9",
      "blockHash": "0x3fdce3ae7abdc15c7946240d48ac2afbc070e7355df092e3bea95d9100eea2be",
      "blockNumber": 115303,
      "transactionIndex": 10,
      "confirmations": null,
      "from": "0xe6A7a1d47ff21B6321162AEA7C6CB457D5476Bca",
      "gasPrice": {
        "_hex": "0xdacd80f0b"
      },
      "gasLimit": {
        "_hex": "0x55f0"
      },
      "to": "0x40dDAE161B79aaebeb68187233fe59bd3B1c2db2",
      "value": {
        "_hex": "0x2a6bddbf0b2247fa8"
      },
      "nonce": 5470,
      "data": "0x",
      "r": "0xdae0dc6d5d87b4db26c5c0bfcb36f467e1c6c9e5472f1d013cea539bbb46f474",
      "s": "0x5222d9bded77bd25e3f5486c340c3b173fb842ed2c70f34af546c18f1482eee7",
      "v": 27,
      "creates": null,
      "raw": "0xf86f82155e850dacd80f0b8255f09440ddae161b79aaebeb68187233fe59bd3b1c2db28902a6bddbf0b2247fa8801ba0dae0dc6d5d87b4db26c5c0bfcb36f467e1c6c9e5472f1d013cea539bbb46f474a05222d9bded77bd25e3f5486c340c3b173fb842ed2c70f34af546c18f1482eee7",
      "networkId": 0,
      "chainId": 0
    },
    {
      "hash": "0xe6d1dbd9fcf11db11b740bc182cfb60e2f6251311b7c0251d9fdeee584aba535",
      "blockHash": "0x3fdce3ae7abdc15c7946240d48ac2afbc070e7355df092e3bea95d9100eea2be",
      "blockNumber": 115303,
      "transactionIndex": 11,
      "confirmations": null,
      "from": "0x60a175bB691fEE8557a7b6D8eFC9E49889486f41",
      "gasPrice": {
        "_hex": "0xd5065b938"
      },
      "gasLimit": {
        "_hex": "0x15f90"
      },
      "to": "0xBb7f43EDfd8bf08B022fEd5BD91e3f9dE7e74D09",
      "value": {
        "_hex": "0x8ac7230489e80000"
      },
      "nonce": 13,
      "data": "0x",
      "r": "0x0bfc3d2e875f7d02d8f74b837335c830f090ac76f7022fad560f11c740a74c87",
      "s": "0x52d935229f2f8d13166e1f7d1dc4a66a50066d398ed28258737ecd0a4d0eec15",
      "v": 28,
      "creates": null,
      "raw": "0xf86d0d850d5065b93883015f9094bb7f43edfd8bf08b022fed5bd91e3f9de7e74d09888ac7230489e80000801ca00bfc3d2e875f7d02d8f74b837335c830f090ac76f7022fad560f11c740a74c87a052d935229f2f8d13166e1f7d1dc4a66a50066d398ed28258737ecd0a4d0eec15",
      "networkId": 0,
      "chainId": 0
    }
  ]
}