{
  "hash": "0x8881963bbf4d4bf933b559140dc9872621bbb7df07edd2d00a282a8b9ed0cd64",
  "parentHash": "0x55bc2e7bdae0162c9dd52f16f67e1a35245e49998bcc7b40b16bf62dccc687ea",
  "number": 47233,
  "timestamp": 1438936566,
  "nonce": "0x25285c8e54cb9dfa",
  "difficulty": 1460944543561,
  "gasLimit": {
    "_hex": "0xa68b"
  },
  "gasUsed": {
    "_hex": "0x5208"
  },
  "miner": "0xe6A7a1d47ff21B6321162AEA7C6CB457D5476Bca",
  "extraData": "0x657468706f6f6c2e6f7267",
  "transactions": [
    {
      "hash": "0xe8fb173843d9ee12f4511c49d4ecfe9de9d40b7b6fe8317b78f90b6b1609aad2",
      "blockHash": "0x8881963bbf4d4bf933b559140dc9872621bbb7df07edd2d00a282a8b9ed0cd64",
      "blockNumber": 47233,
      "transactionIndex": 0,
      "confirmations": null,
      "from": "0x1A6e2D880420fd418522F080D5E31feE4A74a55E",
      "gasPrice": {
        "_hex": "0xf50c1ac98"
      },
      "gasLimit": {
        "_hex": "0x5208"
      },
      "to": "0x32Be343B94f860124dC4fEe278FDCBD38C102D88",
      "value": {
        "_hex": "0xddbc290e70a7c00"
      },
      "nonce": 0,
      "data": "0x",
      "r": "0x1ec7c46fb7a4c8d1968b7987ba731ce64a764107d42f742f132b74ea2d55e04d",
      "s": "0x0214618b11d0fbdcac71ad73b8ad2fdaf1c0dbc2e70da409c411b65cc04cb3dc",
      "v": 28,
      "creates": null,
      "raw": "0xf86c80850f50c1ac988252089432be343b94f860124dc4fee278fdcbd38c102d88880ddbc290e70a7c00801ca01ec7c46fb7a4c8d1968b7987ba731ce64a764107d42f742f132b74ea2d55e04da00214618b11d0fbdcac71ad73b8ad2fdaf1c0dbc2e70da409c411b65cc04cb3dc",
      "networkId": 0,
      "chainId": 0
    }
  ]
}