{
  "hash": "0xd17c9176b69841ff7fc5a9db2088d6e3c354a741f34da249e86b923de958d0b6",
  "parentHash": "0x58e99e2cac8a530b09a54f809c8fac2919cc568455b4e0721f4ee5307d0f9a2f",
  "number": 90532,
  "timestamp": 1439641468,
  "nonce": "0xf9e26e10a3fc01ee",
  "difficulty": 3354649781311,
  "gasLimit": {
    "_hex": "0x2fefd8"
  },
  "gasUsed": {
    "_hex": "0xa410"
  },
  "miner": "0x2f6BCe4fc330B69C9B4c2694d57C63Ec7B18feC7",
  "extraData": "0x476574682f76312e302e312f77696e646f77732f676f312e342e32",
  "transactions": [
    {
      "hash": "0xb92809b48bc200120de7269789dd1d318e0e2a80d7200fd83675c61c06c640cb",
      "blockHash": "0xd17c9176b69841ff7fc5a9db2088d6e3c354a741f34da249e86b923de958d0b6",
      "blockNumber": 90532,
      "transactionIndex": 0,
      "confirmations": null,
      "from": "0x5c59E28366c83f1d262567c1c529185146e68b16",
      "gasPrice": {
        "_hex": "0xe08d1aed2"
      },
      "gasLimit": {
        "_hex": "0x5208"
      },
      "to": "0x32Be343B94f860124dC4fEe278FDCBD38C102D88",
      "value": {
        "_hex": "0x2b5e24b9bf69a80000"
      },
      "nonce": 6,
      "data": "0x",
      "r": "0xce14ca1d488f79dcd18fcb5762ccca9a9389dcd5438bad80c719c04a834e1130",
      "s": "0x2eaaa7d1caa85e15626b8f2ebb2f385fc392070ec6c2a538b9d4718d485d7caa",
      "v": 27,
      "creates": null,
      "raw": "0xf86d06850e08d1aed28252089432be343b94f860124dc4fee278fdcbd38c102d88892b5e24b9bf69a80000801ba0ce14ca1d488f79dcd18fcb5762ccca9a9389dcd5438bad80c719c04a834e1130a02eaaa7d1caa85e15626b8f2ebb2f385fc392070ec6c2a538b9d4718d485d7caa",
      "networkId": 0,
      "chainId": 0
    },
    {
      "hash": "0x17e70b1d769043b936675546599aa7c21d5abb605d4796a372ebf1064c04756c",
      "blockHash": "0xd17c9176b69841ff7fc5a9db2088d6e3c354a741f34da249e86b923de958d0b6",
      "blockNumber": 90532,
      "transactionIndex": 1,
      "confirmations": null,
      "from": "0x859217617481BD9b6E3e38f6aE9BB677F0D26154",
      "gasPrice": {
        "_hex": "0xe08d1aed2"
      },
      "gasLimit": {
        "_hex": "0x5208"
      },
      "to": "0x32Be343B94f860124dC4fEe278FDCBD38C102D88",
      "value": {
        "_hex": "0x878673b32aa9100000"
      },
      "nonce": 6,
      "data": "0x",
      "r": "0x0ea5fd3fae67c0c831b35b4c7b3197f7bdd50721b0eff7a7e27a3c99890e29ed",
      "s": "0x3bb7800682ffdfb50231a3c63281454959983a87ccaa070d47a6c5856d6f3e33",
      "v": 28,
      "creates": null,
      "raw": "0xf86d06850e08d1aed28252089432be343b94f860124dc4fee278fdcbd38c102d8889878673b32aa9100000801ca00ea5fd3fae67c0c831b35b4c7b3197f7bdd50721b0eff7a7e27a3c99890e29eda03bb7800682ffdfb50231a3c63281454959983a87ccaa070d47a6c5856d6f3e33",
      "networkId": 0,
      "chainId": 0
    }
  ]
}