{
  "hash": "0xf6cd078213250369add7820f30f6fd718021138eb5a7b4353bfb73f6176f912c",
  "parentHash": "0x2f11ddbce0c9155867bfc02ce6ba60e8e23dfcc94f7c7e26d1b34ea95eaa69ba",
  "number": 81080,
  "timestamp": 1439495880,
  "nonce": "0xff8ef16c4cb5f870",
  "difficulty": 2433202993463,
  "gasLimit": {
    "_hex": "0x2fefd8"
  },
  "gasUsed": {
    "_hex": "0xa410"
  },
  "miner": "0x02dE7d35a60bf6A216411476040ec648668769D7",
  "extraData": "0x476574682f76312e302e312f77696e646f77732f676f312e342e32",
  "transactions": [
    {
      "hash": "0xf15b2ef498a6e9556a8c9e8a22dadad86e4fe4f0528a53d20828726720eed13c",
      "blockHash": "0xf6cd078213250369add7820f30f6fd718021138eb5a7b4353bfb73f6176f912c",
      "blockNumber": 81080,
      "transactionIndex": 0,
      "confirmations": null,
      "from": "0x31995C46B15C84523cDEE26f49A681b8237e43F5",
      "gasPrice": {
        "_hex": "0xdcb23cd6d"
      },
      "gasLimit": {
        "_hex": "0x7530"
      },
      "to": "0xa9f5E7bf6Cbf6fEc55B30850Eb492b47A376d050",
      "value": {
        "_hex": "0x10357563d481cc0000"
      },
      "nonce": 3,
      "data": "0x",
      "r": "0x6467f1b4e654efbc4b6ecb4a8acc6a31655f5197fa111322d326c7d4d160b9e9",
      "s": "0x1c26b44faf7f74be92fca2868018b038e98ce69eb9bf55241ef807b87f126a9d",
      "v": 28,
      "creates": null,
      "raw": "0xf86d03850dcb23cd6d82753094a9f5e7bf6cbf6fec55b30850eb492b47a376d0508910357563d481cc0000801ca06467f1b4e654efbc4b6ecb4a8acc6a31655f5197fa111322d326c7d4d160b9e9a01c26b44faf7f74be92fca2868018b038e98ce69eb9bf55241ef807b87f126a9d",
      "networkId": 0,
      "chainId": 0
    },
    {
      "hash": "0xdc9e8375657bb479310490f7460b5ca1395d04b5de69c5cb0a89cbbe7413bc11",
      "blockHash": "0xf6cd078213250369add7820f30f6fd718021138eb5a7b4353bfb73f6176f912c",
      "blockNumber": 81080,
      "transactionIndex": 1,
      "confirmations": null,
      "from": "0x7998276dDecB82491dEe4Cd6cC504C55e87b5570",
      "gasPrice": {
        "_hex": "0xd3ee0dea9"
      },
      "gasLimit": {
        "_hex": "0x15f90"
      },
      "to": "0x3a3e78131Aa0d6192896c7d0D13924B144e79E4d",
      "value": {
        "_hex": "0x46a3500832bd0000"
      },
      "nonce": 2,
      "data": "0x",
      "r": "0x5edf5f5930985fe4412c5e5c94af0b57c0d737bf2a1a9ef9897453bdbc436a64",
      "s": "0x66a4766514494e9b0ea3b534e178558db7cd74ba688b1b86195c41b0d227f3f3",
      "v": 27,
      "creates": null,
      "raw": "0xf86d02850d3ee0dea983015f90943a3e78131aa0d6192896c7d0d13924b144e79e4d8846a3500832bd0000801ba05edf5f5930985fe4412c5e5c94af0b57c0d737bf2a1a9ef9897453bdbc436a64a066a4766514494e9b0ea3b534e178558db7cd74ba688b1b86195c41b0d227f3f3",
      "networkId": 0,
      "chainId": 0
    }
  ]
}