{
  "hash": "0xd7eccbfe53c006bad688a2ed277798ba7a6415bead7b51b8d503f2016993cbf8",
  "parentHash": "0xd38ebb673f784567a6bb879ccf7062a0f0db5007e44e33c932ae8db327716d8e",
  "number": 93236,
  "timestamp": 1439685836,
  "nonce": "0xd53c9b0197c782e8",
  "difficulty": 3580329118056,
  "gasLimit": {
    "_hex": "0x2fefd8"
  },
  "gasUsed": {
    "_hex": "0x5208"
  },
  "miner": "0xEF247E639d49461D25F57e9362CadE3120910Ce0",
  "extraData": "0x476574682f76312e302e312f6c696e75782f676f312e342e32",
  "transactions": [
    {
      "hash": "0x0a4f23b1cac34f60b10ecefe698d459f24c34d46bd1ac98efe8e813490de2c4d",
      "blockHash": "0xd7eccbfe53c006bad688a2ed277798ba7a6415bead7b51b8d503f2016993cbf8",
      "blockNumber": 93236,
      "transactionIndex": 0,
      "confirmations": null,
      "from": "0x32Be343B94f860124dC4fEe278FDCBD38C102D88",
      "gasPrice": {
        "_hex": "0xcb75d7006"
      },
      "gasLimit": {
        "_hex": "0x5208"
      },
      "to": "0xd6Bb39DA0858E6AEddcaa12a509327b2D05f5B51",
      "value": {
        "_hex": "0xa2a139825f2c200000"
      },
      "nonce": 915,
      "data": "0x",
      "r": "0x92f0afddf30cdb0828af412431af6b6508bba51b5d225aff77013219880964be",
      "s": "0x6c7f2b535b07228da581bcd21804ff22bff4284882ed534c5160a8c85a029834",
      "v": 27,
      "creates": null,
      "raw": "0xf86f820393850cb75d700682520894d6bb39da0858e6aeddcaa12a509327b2d05f5b5189a2a139825f2c200000801ba092f0afddf30cdb0828af412431af6b6508bba51b5d225aff77013219880964bea06c7f2b535b07228da581bcd21804ff22bff4284882ed534c5160a8c85a029834",
      "networkId": 0,
      "chainId": 0
    }
  ]
}