{
  "hash": "0x351ab97154af53745374602445478bdfae4e3ee983aa98f2638281d075245fb7",
  "parentHash": "0x25b2e550cb5b67c8790d6673dff0fd1fc1781239be6e5e3a6fae9b7cb43a41ca",
  "number": 107315,
  "timestamp": 1439920302,
  "nonce": "0x83e1a99ce4e7f157",
  "difficulty": 4402939962481,
  "gasLimit": {
    "_hex": "0x2fefd8"
  },
  "gasUsed": {
    "_hex": "0x5208"
  },
  "miner": "0xC603Ab5ef41fC61AA8b76bEddb09e3Cfcbb174BD",
  "extraData": "0x476574682f76312e302e312f77696e646f77732f676f312e342e32",
  "transactions": [
    {
      "hash": "0xc2d08b77046c33d9c0f4f7686de06484a8e12770881f1ee179771b7b97c814e1",
      "blockHash": "0x351ab97154af53745374602445478bdfae4e3ee983aa98f2638281d075245fb7",
      "blockNumber": 107315,
      "transactionIndex": 0,
      "confirmations": null,
      "from": "0x8d3178fc8300Aae417a2Ce0127C4b5922B456F98",
      "gasPrice": {
        "_hex": "0xd11dee6ad"
      },
      "gasLimit": {
        "_hex": "0x15f90"
      },
      "to": "0xFc2192cE1d9B23c42c3DCCBEC8aD4E58264e58ff",
      "value": {
        "_hex": "0x15af1d78b58c400000"
      },
      "nonce": 2,
      "data": "0x",
      "r": "0x515be037b490c549f0231358bee552cbd6dd4f4ded609d61fa18e55169d001a5",
      "s": "0x7c817ecb84e0999a1e4defdc8afc78b339d9b5514f89c8c551b0cc1ae64ea5ba",
      "v": 28,
      "creates": null,
      "raw": "0xf86e02850d11dee6ad83015f9094fc2192ce1d9b23c42c3dccbec8ad4e58264e58ff8915af1d78b58c400000801ca0515be037b490c549f0231358bee552cbd6dd4f4ded609d61fa18e55169d001a5a07c817ecb84e0999a1e4defdc8afc78b339d9b5514f89c8c551b0cc1ae64ea5ba",
      "networkId": 0,
      "chainId": 0
    }
  ]
}