{
  "hash": "0x44b24367f084285ab2a22f38c9999a9d9a59f012720d66c49b89ab0dedc59aa3",
  "parentHash": "0x52d4ca84d70e14f35586542cd0bc213b3f07fd1d607869486863984ad3e9cac1",
  "number": 62716,
  "timestamp": 1439193260,
  "nonce": "0xf63120cdab249145",
  "difficulty": 1765008383718,
  "gasLimit": {
    "_hex": "0x2fefd8"
  },
  "gasUsed": {
    "_hex": "0x546c"
  },
  "miner": "0x4947190fcC30D3fb3a16233b259bFe6b3492339a",
  "extraData": "0x476574682f76312e302e312d38326566323666362f6c696e75782f676f312e34",
  "transactions": [
    {
      "hash": "0xf9e38067c285e82f4737caece9a622e6b22ae48c536b45de65c0f00bcd20e2b6",
      "blockHash": "0x44b24367f084285ab2a22f38c9999a9d9a59f012720d66c49b89ab0dedc59aa3",
      "blockNumber": 62716,
      "transactionIndex": 0,
      "confirmations": null,
      "from": "0xAc52B77e15664814F39e4F271Be641308D91D6CC",
      "gasPrice": {
        "_hex": "0x110c8f7d8de"
      },
      "gasLimit": {
        "_hex": "0xc350"
      },
      "to": "0x2910543Af39abA0Cd09dBb2D50200b3E800A63D2",
      "value": {
        "_hex": "0xbdf3c4bb0328c0000"
      },
      "nonce": 0,
      "data": "0x454e36475541515038",
      "r": "0x69e6e08646cc9f41377be9085a126e33eef71470315c329c74f464553a7bff5c",
      "s": "0xf4d6737ab79fe805fee836327f6dea62daedd6b357debf49541aa40c0f714c15",
      "v": 27,
      "creates": null,
      "raw": "0xf87780860110c8f7d8de82c350942910543af39aba0cd09dbb2d50200b3e800a63d2890bdf3c4bb0328c000089454e364755415150381ba069e6e08646cc9f41377be9085a126e33eef71470315c329c74f464553a7bff5ca0f4d6737ab79fe805fee836327f6dea62daedd6b357debf49541aa40c0f714c15",
      "networkId": 0,
      "chainId": 0
    }
  ]
}