{
  "hash": "0xa31b702fb67f7a791070757b70c1c69c6ebaf742c0365e83127f19f33609054c",
  "parentHash": "0x995db95d88ce9ebd7c5c5004bc8adcea3fdf132887a470c8b3e0f3eae816c170",
  "number": 56296,
  "timestamp": 1439084964,
  "nonce": "0x8bd865f296b3c744",
  "difficulty": 1648036898513,
  "gasLimit": {
    "_hex": "0x2fefd8"
  },
  "gasUsed": {
    "_hex": "0x4f02"
  },
  "miner": "0xbb7B8287f3F0a933474a79eAe42CBCa977791171",
  "extraData": "0x476574682f4c5649562f76312e302e312f6c696e75782f676f312e342e32",
  "transactions": [
    {
      "hash": "0x7e9391861427d2bc733adbe343e5a38b197f84364b18b7b728c91252a3802100",
      "blockHash": "0xa31b702fb67f7a791070757b70c1c69c6ebaf742c0365e83127f19f33609054c",
      "blockNumber": 56296,
      "transactionIndex": 0,
      "confirmations": null,
      "from": "0xA1eEc0a9b7C50B8e79A0D9B8760bC5681fb199EC",
      "gasPrice": {
        "_hex": "0xd67f824c4"
      },
      "gasLimit": {
        "_hex": "0x15f90"
      },
      "to": "0xB49180D443dC4Ca6028de0031Ac09337891fd8cE",
      "value": {
        "_hex": "0x0"
      },
      "nonce": 5,
      "data": "0x90b98a1100000000000000000000000001957911244e546ce519fbac6f798958fafadb410000000000000000000000000000000000000000000000000000000000000032",
      "r": "0x99da1a3540e7887d1ed7dada9008ab9ba3540c267a3f6ff32e277aaa8d0caec6",
      "s": "0x47e29ef99e27238d6fb220ad1ffd81c64b3c01756a924a84bce2619fc4bf38fe",
      "v": 27,
      "creates": null,
      "raw": "0xf8aa05850d67f824c483015f9094b49180d443dc4ca6028de0031ac09337891fd8ce80b84490b98a1100000000000000000000000001957911244e546ce519fbac6f798958fafadb4100000000000000000000000000000000000000000000000000000000000000321ba099da1a3540e7887d1ed7dada9008ab9ba3540c267a3f6ff32e277aaa8d0caec6a047e29ef99e27238d6fb220ad1ffd81c64b3c01756a924a84bce2619fc4bf38fe",
      "networkId": 0,
      "chainId": 0
    }
  ]
}