{
  "hash": "0x3208d69d6c8b245ed553ab0c00def53d57258e2d71b2a93c9e3af274ed4b8012",
  "parentHash": "0x664b328a80fa3d27b380e8b56a62bd5bd49925513157c8ba588048b049966f9e",
  "number": 71431,
  "timestamp": 1439335919,
  "nonce": "0x918ccf76f99a46f2",
  "difficulty": 2176168510878,
  "gasLimit": {
    "_hex": "0x2fefd8"
  },
  "gasUsed": {
    "_hex": "0x93b2"
  },
  "miner": "0xa50ec0D39fa913E62f1Bae7074E6F36caA71855b",
  "extraData": "0x",
  "transactions": [
    {
      "hash": "0xe4364b320d8c33f82f6069bdd785e91c7ca064eda363e3eff4755a0903d62690",
      "blockHash": "0x3208d69d6c8b245ed553ab0c00def53d57258e2d71b2a93c9e3af274ed4b8012",
      "blockNumber": 71431,
      "transactionIndex": 0,
      "confirmations": null,
      "from": "0x17580B766f7453525ca4C6A88b01b50570EA088C",
      "gasPrice": {
        "_hex": "0xdac90a98a"
      },
      "gasLimit": {
        "_hex": "0x61a80"
      },
      "to": "0x5Fe5B7546D1628f7348B023A0393de1FC825A4fD",
      "value": {
        "_hex": "0x1bc16d674ec80000"
      },
      "nonce": 185,
      "data": "0xb595b8b50000000000000000000000000000000000000000000000000000000000000000",
      "r": "0xa0eaab658e6fd233e7c4d2352c2df314695d092e384a8b6c03411f5d0b27c017",
      "s": "0x6417d0831eaf4c53d2435a59bc645d29fddf09945179017165f1ff79bb661620",
      "v": 28,
      "creates": null,
      "raw": "0xf89281b9850dac90a98a83061a80945fe5b7546d1628f7348b023a0393de1fc825a4fd881bc16d674ec80000a4b595b8b500000000000000000000000000000000000000000000000000000000000000001ca0a0eaab658e6fd233e7c4d2352c2df314695d092e384a8b6c03411f5d0b27c017a06417d0831eaf4c53d2435a59bc645d29fddf09945179017165f1ff79bb661620",
      "networkId": 0,
      "chainId": 0
    }
  ]
}