{
  "hash": "0x20f7bc69ca19c023766e570d9c14ab9ce68bccb8c4c068da8670d7534d8a7d15",
  "parentHash": "0x6879bd397344c2d5175e3d03b22355054d07f21a4f4f2b4fa98e50348a0317ab",
  "number": 116285,
  "timestamp": 1440071439,
  "nonce": "0xf35a9cb1bdcf8d1a",
  "difficulty": 4595825997021,
  "gasLimit": {
    "_hex": "0x2fefd8"
  },
  "gasUsed": {
    "_hex": "0x5208"
  },
  "miner": "0xD0ee3F53eE0fCf3F9fbCcdd17BD1b6441DdC2074",
  "extraData": "0x476574682f76312e302e312d38326566323666362f6c696e75782f676f312e34",
  "transactions": [
    {
      "hash": "0x54a4be567bed07c0041bb86fca055eab302e663c45bed9309d7aecec5cb1adfb",
      "blockHash": "0x20f7bc69ca19c023766e570d9c14ab9ce68bccb8c4c068da8670d7534d8a7d15",
      "blockNumber": 116285,
      "transactionIndex": 0,
      "confirmations": null,
      "from": "0xa70a9a7040d542C632D8e0bE7c5513A8a5Bbc752",
      "gasPrice": {
        "_hex": "0xcef896f5f"
      },
      "gasLimit": {
        "_hex": "0x5208"
      },
      "to": "0x32Be343B94f860124dC4fEe278FDCBD38C102D88",
      "value": {
        "_hex": "0x455f6c5fc5c11c00"
      },
      "nonce": 312,
      "data": "0x",
      "r": "0x31ea695b6204591ccc54568b907c6a6729312b3c673c32157632f5588a5b7109",
      "s": "0x761b8ae35beba67c6141c7235343ee35bbfe1a70e2dfb3f6ca70f1fa199b196f",
      "v": 27,
      "creates": null,
      "raw": "0xf86e820138850cef896f5f8252089432be343b94f860124dc4fee278fdcbd38c102d8888455f6c5fc5c11c00801ba031ea695b6204591ccc54568b907c6a6729312b3c673c32157632f5588a5b7109a0761b8ae35beba67c6141c7235343ee35bbfe1a70e2dfb3f6ca70f1fa199b196f",
      "networkId": 0,
      "chainId": 0
    }
  ]
}