{
  "hash": "0x6fe9c67954ebab9004467128742c43aa0eb4b9046a8e12691c41864d4fe6e75a",
  "parentHash": "0x970a06b16f67fcb1aeb5789ae213c92df2e7ccab5c2470a4bc2c1d074759dc61",
  "number": 96872,
  "timestamp": 1439747207,
  "nonce": "0x55f014e77eda39a7",
  "difficulty": 3735904795256,
  "gasLimit": {
    "_hex": "0x2fefd8"
  },
  "gasUsed": {
    "_hex": "0x5208"
  },
  "miner": "0xf927a40C8B7F6E07c5af7FA2155B4864a4112B13",
  "extraData": "0x",
  "transactions": [
    {
      "hash": "0xa0802b8851cfeaed7b97640fce6bfd2f8c5eef28b3c5fb45d68a0bad0101bfe3",
      "blockHash": "0x6fe9c67954ebab9004467128742c43aa0eb4b9046a8e12691c41864d4fe6e75a",
      "blockNumber": 96872,
      "transactionIndex": 0,
      "confirmations": null,
      "from": "0x32Be343B94f860124dC4fEe278FDCBD38C102D88",
      "gasPrice": {
        "_hex": "0xd9e5133b0"
      },
      "gasLimit": {
        "_hex": "0x5208"
      },
      "to": "0xc963C32F15E59ABfcB814Dd1d96A900CF588B783",
      "value": {
        "_hex": "0xdbd2fc137a30000"
      },
      "nonce": 1014,
      "data": "0x",
      "r": "0xb096e24b103c91edf36f0ab9c4eff86c5aa38023eb7d05c34f7b9909f2472e0c",
      "s": "0x4ec562672225ca7ed4a358022d43d06ca9b36c2d781d5ebe9f2c5f1583ef5a50",
      "v": 27,
      "creates": null,
      "raw": "0xf86e8203f6850d9e5133b082520894c963c32f15e59abfcb814dd1d96a900cf588b783880dbd2fc137a30000801ba0b096e24b103c91edf36f0ab9c4eff86c5aa38023eb7d05c34f7b9909f2472e0ca04ec562672225ca7ed4a358022d43d06ca9b36c2d781d5ebe9f2c5f1583ef5a50",
      "networkId": 0,
      "chainId": 0
    }
  ]
}