{
  "hash": "0xfb5913a9c1d27b15439ea308d732a66871028b9f99e3b3e8e2ccd5c49818d061",
  "parentHash": "0x7a8e7d89be4ecdc3189f2a236b7b28515ab2efd0448d80dba965859f0abf920c",
  "number": 55284,
  "timestamp": 1439068111,
  "nonce": "0xae33255abd667104",
  "difficulty": 1641809866738,
  "gasLimit": {
    "_hex": "0x2fefd8"
  },
  "gasUsed": {
    "_hex": "0x139a07"
  },
  "miner": "0x9746c7e1ef2bd21FF3997fa467593a89cb852BD0",
  "extraData": "0x476574682f76312e302e312f77696e646f77732f676f312e342e32",
  "transactions": [
    {
      "hash": "0x92f0d3857bc476117da1ab3c60a4a78e11e8defeab6507cef49e49ea40e4b6de",
      "blockHash": "0xfb5913a9c1d27b15439ea308d732a66871028b9f99e3b3e8e2ccd5c49818d061",
      "blockNumber": 55284,
      "transactionIndex": 0,
      "confirmations": null,
      "from": "0x0ae3F81a67725a8A7758FeB8684c6c17dA20755D",
      "gasPrice": {
        "_hex": "0xd428a19bd"
      },
      "gasLimit": {
        "_hex": "0x1e8480"
      },
      "to": "0xBAA54d6E90c3F4d7Ebec11bD180134C7eD8eBb52",
      "value": {
        "_hex": "0x16345785d8a0000"
      },
      "nonce": 122,
      "data": "0x",
      "r": "0x8e920df3895f344f5a336f1a4bdbcf7e3b5e17201275d87929ecead20fa36d02",
      "s": "0x5c4f4c67129d05fd87f2e3de95d7de0a52bdb8bef16f07d7605b7a8a43a0d1f1",
      "v": 27,
      "creates": null,
      "raw": "0xf86d7a850d428a19bd831e848094baa54d6e90c3f4d7ebec11bd180134c7ed8ebb5288016345785d8a0000801ba08e920df3895f344f5a336f1a4bdbcf7e3b5e17201275d87929ecead20fa36d02a05c4f4c67129d05fd87f2e3de95d7de0a52bdb8bef16f07d7605b7a8a43a0d1f1",
      "networkId": 0,
      "chainId": 0
    },
    {
      "hash": "0x93ecabe60cb57a83273c20441d51bc86199a5b5e14668d4d2e5d2efc4a9f30f8",
      "blockHash": "0xfb5913a9c1d27b15439ea308d732a66871028b9f99e3b3e8e2ccd5c49818d061",
      "blockNumber": 55284,
      "transactionIndex": 1,
      "confirmations": null,
      "from": "0x0ae3F81a67725a8A7758FeB8684c6c17dA20755D",
      "gasPrice": {
        "_hex": "0xd1fe196ce"
      },
      "gasLimit": {
        "_hex": "0x1e8480"
      },
      "to": "0xBAA54d6E90c3F4d7Ebec11bD180134C7eD8eBb52",
      "value": {
        "_hex": "0x16345785d8a0000"
      },
      "nonce": 123,
      "data": "0x",
      "r": "0x9be369d95634ef6ba3f210ee593abdaaf3266533946148254fb2fc25ae5103fb",
      "s": "0x65ed247183d5e0b9063d7e4ad9a6480c93ea999eec67351dc4a81607828e2583",
      "v": 27,
      "creates": null,
      "raw": "0xf86d7b850d1fe196ce831e848094baa54d6e90c3f4d7ebec11bd180134c7ed8ebb5288016345785d8a0000801ba09be369d95634ef6ba3f210ee593abdaaf3266533946148254fb2fc25ae5103fba065ed247183d5e0b9063d7e4ad9a6480c93ea999eec67351dc4a81607828e2583",
      "networkId": 0,
      "chainId": 0
    },
    {
      "hash": "0xdb28175747b3e10ca741a889e71298c598e6f2826e58b5d2b3afbd92fa286512",
      "blockHash": "0xfb5913a9c1d27b15439ea308d732a66871028b9f99e3b3e8e2ccd5c49818d061",
      "blockNumber": 55284,
      "transactionIndex": 2,
      "confirmations": null,
      "from": "0x0ae3F81a67725a8A7758FeB8684c6c17dA20755D",
      "gasPrice": {
        "_hex": "0xd1fe196ce"
      },
      "gasLimit": {
        "_hex": "0x1e8480"
      },
      "to": "0xBAA54d6E90c3F4d7Ebec11bD180134C7eD8eBb52",
      "value": {
        "_hex": "0x16345785d8a0000"
      },
      "nonce": 124,
      "data": "0x",
      "r": "0xb6f495a92c35df4ebdaa1fe5cc6aba4e5b418373881ddf1fc0b4db3a56397241",
      "s": "0x2dc1a2e8e5c59526f6e5ead6315753c208b6f9d25739db8ed923d62080748135",
      "v": 27,
      "creates": null,
      "raw": "0xf86d7c850d1fe196ce831e848094baa54d6e90c3f4d7ebec11bd180134c7ed8ebb5288016345785d8a0000801ba0b6f495a92c35df4ebdaa1fe5cc6aba4e5b418373881ddf1fc0b4db3a56397241a02dc1a2e8e5c59526f6e5ead6315753c208b6f9d25739db8ed923d62080748135",
      "networkId": 0,
      "chainId": 0
    },
    {
      "hash": "0xc91ad4cabbd1229adcf13cf294c2eba9a413bf8b2f3553250f1a464ebb59f05f",
      "blockHash": "0xfb5913a9c1d27b15439ea308d732a66871028b9f99e3b3e8e2ccd5c49818d061",
      "blockNumber": 55284,
      "transactionIndex": 3,
      "confirmations": null,
      "from": "0x0ae3F81a67725a8A7758FeB8684c6c17dA20755D",
      "gasPrice": {
        "_hex": "0xd1fe196ce"
      },
      "gasLimit": {
        "_hex": "0x1e8480"
      },
      "to": "0xBAA54d6E90c3F4d7Ebec11bD180134C7eD8eBb52",
      "value": {
        "_hex": "0x16345785d8a0000"
      },
      "nonce": 125,
      "data": "0x",
      "r": "0x302908ab45c0abc41327b04fcf51d13634e5db32fc7d13e5dba57d22deb924b8",
      "s": "0x47105e679f2fd1864a0c4f0f73caa9349753e3534fe884ab74d66ca39461c189",
      "v": 27,
      "creates": null,
      "raw": "0xf86d7d850d1fe196ce831e848094baa54d6e90c3f4d7ebec11bd180134c7ed8ebb5288016345785d8a0000801ba0302908ab45c0abc41327b04fcf51d13634e5db32fc7d13e5dba57d22deb924b8a047105e679f2fd1864a0c4f0f73caa9349753e3534fe884ab74d66ca39461c189",
      "networkId": 0,
      "chainId": 0
    },
    {
      "hash": "0x50240c219a16baf861f2a770f51f1037c55d36a18f8342489e00c4e26c7aef50",
      "blockHash": "0xfb5913a9c1d27b15439ea308d732a66871028b9f99e3b3e8e2ccd5c49818d061",
      "blockNumber": 55284,
      "transactionIndex": 4,
      "confirmations": null,
      "from": "0x0ae3F81a67725a8A7758FeB8684c6c17dA20755D",
      "gasPrice": {
        "_hex": "0xd1fe196ce"
      },
      "gasLimit": {
        "_hex": "0x1e8480"
      },
      "to": "0xBAA54d6E90c3F4d7Ebec11bD180134C7eD8eBb52",
      "value": {
        "_hex": "0x16345785d8a0000"
      },
      "nonce": 126,
      "data": "0x",
      "r": "0x9c569672d7687b735f6e0a15ca00dce0c9e8153a1dbcf0021044ca929f6e53d0",
      "s": "0x01bc5d8ee130c44508ca481852d08476d4cfb95ac742258bc2cff4e02383010c",
      "v": 28,
      "creates": null,
      "raw": "0xf86d7e850d1fe196ce831e848094baa54d6e90c3f4d7ebec11bd180134c7ed8ebb5288016345785d8a0000801ca09c569672d7687b735f6e0a15ca00dce0c9e8153a1dbcf0021044ca929f6e53d0a001bc5d8ee130c44508ca481852d08476d4cfb95ac742258bc2cff4e02383010c",
      "networkId": 0,
      "chainId": 0
    },
    {
      "hash": "0x59b3e8548e7b80d79ffb9a0f63703698c1f33bf65a00839d354be30b5b03542b",
      "blockHash": "0xfb5913a9c1d27b15439ea308d732a66871028b9f99e3b3e8e2ccd5c49818d061",
      "blockNumber": 55284,
      "transactionIndex": 5,
      "confirmations": null,
      "from": "0x0ae3F81a67725a8A7758FeB8684c6c17dA20755D",
      "gasPrice": {
        "_hex": "0xd1fe196ce"
      },
      "gasLimit": {
        "_hex": "0x1e8480"
      },
      "to": "0xBAA54d6E90c3F4d7Ebec11bD180134C7eD8eBb52",
      "value": {
        "_hex": "0x16345785d8a0000"
      },
      "nonce": 127,
      "data": "0x",
      "r": "0x50a04f0efbcb937d56c3a47e9457d3a8e91c998e1b30de5e0eb859e4e84bd43c",
      "s": "0x791d829d8900c4f12aae92570ae68733f3570ce80b7921d8f1f8a7526d92b84b",
      "v": 27,
      "creates": null,
      "raw": "0xf86d7f850d1fe196ce831e848094baa54d6e90c3f4d7ebec11bd180134c7ed8ebb5288016345785d8a0000801ba050a04f0efbcb937d56c3a47e9457d3a8e91c998e1b30de5e0eb859e4e84bd43ca0791d829d8900c4f12aae92570ae68733f3570ce80b7921d8f1f8a7526d92b84b",
      "networkId": 0,
      "chainId": 0
    },
    {
      "hash": "0xbbe5a2b309a1f40bc277e6ada793a720b1d2335a69937a2dd11fd13063f5fb3a",
      "blockHash": "0xfb5913a9c1d27b15439ea308d732a66871028b9f99e3b3e8e2ccd5c49818d061",
      "blockNumber": 55284,
      "transactionIndex": 6,
      "confirmations": null,
      "from": "0x0ae3F81a67725a8A7758FeB8684c6c17dA20755D",
      "gasPrice": {
        "_hex": "0xd1fe196ce"
      },
      "gasLimit": {
        "_hex": "0x1e8480"
      },
      "to": "0xBAA54d6E90c3F4d7Ebec11bD180134C7eD8eBb52",
      "value": {
        "_hex": "0x16345785d8a0000"
      },
      "nonce": 128,
      "data": "0x",
      "r": "0xec7a4037a5b58719fc68a945fc804023938a8aea750139b530d6e990bbb92a02",
      "s": "0x7309c93c1f14c43e789b4a05e496218ec818d77565e8f5707031169d9e75c72f",
      "v": 28,
      "creates": null,
      "raw": "0xf86e8180850d1fe196ce831e848094baa54d6e90c3f4d7ebec11bd180134c7ed8ebb5288016345785d8a0000801ca0ec7a4037a5b58719fc68a945fc804023938a8aea750139b530d6e990bbb92a02a07309c93c1f14c43e789b4a05e496218ec818d77565e8f5707031169d9e75c72f",
      "networkId": 0,
      "chainId": 0
    },
    {
      "hash": "0xb74b6b24aeb43f30815913b4ed6aaea1fcbf7f3bacdb3a48aae40bdc883e6508",
      "blockHash": "0xfb5913a9c1d27b15439ea308d732a66871028b9f99e3b3e8e2ccd5c49818d061",
      "blockNumber": 55284,
      "transactionIndex": 7,
      "confirmations": null,
      "from": "0x0ae3F81a67725a8A7758FeB8684c6c17dA20755D",
      "gasPrice": {
        "_hex": "0xd1fe196ce"
      },
      "gasLimit": {
        "_hex": "0x1e8480"
      },
      "to": "0xBAA54d6E90c3F4d7Ebec11bD180134C7eD8eBb52",
      "value": {
        "_hex": "0x16345785d8a0000"
      },
      "nonce": 129,
      "data": "0x",
      "r": "0x5a85a9b6851e11f3fae5d613cdd552a5ab6441eb23334df8aae68041e67596de",
      "s": "0x753c4e49056add28dc8a129253e3180bfce2cd76d8dd888c51e9256d5a5b2014",
      "v": 28,
      "creates": null,
      "raw": "0xf86e8181850d1fe196ce831e848094baa54d6e90c3f4d7ebec11bd180134c7ed8ebb5288016345785d8a0000801ca05a85a9b6851e11f3fae5d613cdd552a5ab6441eb23334df8aae68041e67596dea0753c4e49056add28dc8a129253e3180bfce2cd76d8dd888c51e9256d5a5b2014",
      "networkId": 0,
      "chainId": 0
    },
    {
      "hash": "0xe2576b542e6c6dd306fc615d464480dc5f505670d6fe78b85611c00037ecf3cd",
      "blockHash": "0xfb5913a9c1d27b15439ea308d732a66871028b9f99e3b3e8e2ccd5c49818d061",
      "blockNumber": 55284,
      "transactionIndex": 8,
      "confirmations": null,
      "from": "0x0ae3F81a67725a8A7758FeB8684c6c17dA20755D",
      "gasPrice": {
        "_hex": "0xd1fe196ce"
      },
      "gasLimit": {
        "_hex": "0x1e8480"
      },
      "to": "0xBAA54d6E90c3F4d7Ebec11bD180134C7eD8eBb52",
      "value": {
        "_hex": "0x16345785d8a0000"
      },
      "nonce": 130,
      "data": "0x",
      "r": "0xfeb9f49d27919cfaad1688de1c1a65189d8a286bf2f66a59c270a84c1d58a1dc",
      "s": "0x53942c50dc5b4d0ef2f6080de6f4af2a22d00e253f0cf937bffe7ab1bcb3652c",
      "v": 27,
      "creates": null,
      "raw": "0xf86e8182850d1fe196ce831e848094baa54d6e90c3f4d7ebec11bd180134c7ed8ebb5288016345785d8a0000801ba0feb9f49d27919cfaad1688de1c1a65189d8a286bf2f66a59c270a84c1d58a1dca053942c50dc5b4d0ef2f6080de6f4af2a22d00e253f0cf937bffe7ab1bcb3652c",
      "networkId": 0,
      "chainId": 0
    }
  ]
}