{
  "hash": "0xb3b433c1daeeaf6ddef59bd2e829f46d4bce85dc51d28c4b2a57fcc41e72418f",
  "parentHash": "0x2122b297a36cb426a26d1db73048a0d36c670b9844699c75ab3d3479184fd25c",
  "number": 100023,
  "timestamp": 1439799497,
  "nonce": "0x841ea0dd83dc12bc",
  "difficulty": 3854929397144,
  "gasLimit": {
    "_hex": "0x2fefd8"
  },
  "gasUsed": {
    "_hex": "0x5208"
  },
  "miner": "0xe6A7a1d47ff21B6321162AEA7C6CB457D5476Bca",
  "extraData": "0x476574682f76312e302e312d38326566323666362f6c696e75782f676f312e34",
  "transactions": [
    {
      "hash": "0xce8a2163e2563c7fc783371985fff9fd8194d7e27c4be1adb06520ca2e816e9a",
      "blockHash": "0xb3b433c1daeeaf6ddef59bd2e829f46d4bce85dc51d28c4b2a57fcc41e72418f",
      "blockNumber": 100023,
      "transactionIndex": 0,
      "confirmations": null,
      "from": "0xAF654b2845616930f74573a909B477E23752DcA4",
      "gasPrice": {
        "_hex": "0xba43b7400"
      },
      "gasLimit": {
        "_hex": "0x5267"
      },
      "to": "0x014e478251F22a79fA7014f285647d91462A9669",
      "value": {
        "_hex": "0x4563918244f40000"
      },
      "nonce": 8,
      "data": "0x",
      "r": "0xd92c486eeb68f00bd9a0a1a6c9c4e7fa61d0a46b907d1ff0d31521d0b054cef7",
      "s": "0x98fc21f65be10785e5df6eb75fefca62cfed7fbf1a7113f929c5231a03348b8c",
      "v": 27,
      "creates": null,
      "raw": "0xf86c08850ba43b740082526794014e478251f22a79fa7014f285647d91462a9669884563918244f40000801ba0d92c486eeb68f00bd9a0a1a6c9c4e7fa61d0a46b907d1ff0d31521d0b054cef7a098fc21f65be10785e5df6eb75fefca62cfed7fbf1a7113f929c5231a03348b8c",
      "networkId": 0,
      "chainId": 0
    }
  ]
}