{
  "hash": "0x7fd8d2a2022844cfd49bc541d5aca693c154c96134ccdd4c03f6528a9e6ed1fe",
  "parentHash": "0x0c8ce0a049d1be728d03351ca09cba3431ee721c4f60510ba5e115513f189dad",
  "number": 114703,
  "timestamp": 1440044833,
  "nonce": "0x2522df587d4ae2cf",
  "difficulty": 4481449134838,
  "gasLimit": {
    "_hex": "0x2fefd8"
  },
  "gasUsed": {
    "_hex": "0x5208"
  },
  "miner": "0x1A22137e525478043F6E1394849e6C23932786C9",
  "extraData": "0x476574682f76312e302e312f6c696e75782f676f312e342e32",
  "transactions": [
    {
      "hash": "0xd363e53ad14b97f8617021af5d148e1f15f3d178b9d16284b547723bccd35168",
      "blockHash": "0x7fd8d2a2022844cfd49bc541d5aca693c154c96134ccdd4c03f6528a9e6ed1fe",
      "blockNumber": 114703,
      "transactionIndex": 0,
      "confirmations": null,
      "from": "0x0e308556B1C6EEB7457a08f91D5E132b4a54C9F1",
      "gasPrice": {
        "_hex": "0xd6e4a8fc9"
      },
      "gasLimit": {
        "_hex": "0x15f90"
      },
      "to": "0x0a856CdC3EaFBAD120c51220d0F71d4Aa2Dee7AE",
      "value": {
        "_hex": "0x2c66769c8a43f0000"
      },
      "nonce": 0,
      "data": "0x",
      "r": "0xf61e9e2270b1404e49b2ddb13a2f10546d4dabab5b533d006b473369ac52cedb",
      "s": "0x6a51918ee10445bfd289421f472163b55e32983387112993d7e6d84e7c5d9565",
      "v": 28,
      "creates": null,
      "raw": "0xf86e80850d6e4a8fc983015f90940a856cdc3eafbad120c51220d0f71d4aa2dee7ae8902c66769c8a43f0000801ca0f61e9e2270b1404e49b2ddb13a2f10546d4dabab5b533d006b473369ac52cedba06a51918ee10445bfd289421f472163b55e32983387112993d7e6d84e7c5d9565",
      "networkId": 0,
      "chainId": 0
    }
  ]
}