{
  "hash": "0x7028d835f3e229a70574411dc37960d76cf54b7928f8a3fe55f82695ffbc7dae",
  "parentHash": "0x253e90b8945a2c68bf7a9ae30574a2a13c79904404b4832f47117f7bffdcd7dd",
  "number": 73269,
  "timestamp": 1439366290,
  "nonce": "0x841f147dcecf19bf",
  "difficulty": 2203488912363,
  "gasLimit": {
    "_hex": "0x2fefd8"
  },
  "gasUsed": {
    "_hex": "0x1b3e7"
  },
  "miner": "0x47ff6576639c2e94762eA5443978D7681C0E78DC",
  "extraData": "0x476574682f76312e302e312f6c696e75782f676f312e342e32",
  "transactions": [
    {
      "hash": "0x86723bbb67cfe6ce20f61f30684f985d3d7dbd4775a5172b43043f1b210acfa2",
      "blockHash": "0x7028d835f3e229a70574411dc37960d76cf54b7928f8a3fe55f82695ffbc7dae",
      "blockNumber": 73269,
      "transactionIndex": 0,
      "confirmations": null,
      "from": "0x326Be8F71bFb0379f989aAB1CC1fE37f0a771f60",
      "gasPrice": {
        "_hex": "0x102349c35f3"
      },
      "gasLimit": {
        "_hex": "0x493e0"
      },
      "to": "0xB86A36e3E0d2E8132F5798119148eDEF957E1912",
      "value": {
        "_hex": "0x8ac7230489e80000"
      },
      "nonce": 35,
      "data": "0x8d21618600000000000000000000000000000000000000000000000000000000000000808d5adaad541502933bfca57b79fdcf7b21a9ea7dbcf2e9321d253f5db02ac8f3",
      "r": "0x2d69a187045d9903ec6d598bcde8f430bff465a99ed7b8d07fc5061cb2bc3f55",
      "s": "0x4aa1e776ec58581697ceb8227dfc4f77ed428b9b2beb576bc0af37693cd64502",
      "v": 28,
      "creates": null,
      "raw": "0xf8b323860102349c35f3830493e094b86a36e3e0d2e8132f5798119148edef957e1912888ac7230489e80000b8448d21618600000000000000000000000000000000000000000000000000000000000000808d5adaad541502933bfca57b79fdcf7b21a9ea7dbcf2e9321d253f5db02ac8f31ca02d69a187045d9903ec6d598bcde8f430bff465a99ed7b8d07fc5061cb2bc3f55a04aa1e776ec58581697ceb8227dfc4f77ed428b9b2beb576bc0af37693cd64502",
      "networkId": 0,
      "chainId": 0
    }
  ]
}