{
  "hash": "0x40bd17fd1b9ac79fd641bb7f6653999a6b919caee434bc9cd1d212a7ae1e076d",
  "parentHash": "0x4239eda84d4f4558015128a33e102a9a67638ca2ec1541f2f286b3ab388847d7",
  "number": 71900,
  "timestamp": 1439343673,
  "nonce": "0x99b967d5cf6948a8",
  "difficulty": 2172861611146,
  "gasLimit": {
    "_hex": "0x2fefd8"
  },
  "gasUsed": {
    "_hex": "0x93b2"
  },
  "miner": "0xDaD56904f2996453f00a79C2C7ee2E8c47dFbba3",
  "extraData": "0x476574682f76312e302e312f6c696e75782f676f312e342e32",
  "transactions": [
    {
      "hash": "0xf8f56a2939bcf36b61d75aebd6447a211783a1d1b48bf51155f993fccd45dac0",
      "blockHash": "0x40bd17fd1b9ac79fd641bb7f6653999a6b919caee434bc9cd1d212a7ae1e076d",
      "blockNumber": 71900,
      "transactionIndex": 0,
      "confirmations": null,
      "from": "0x17580B766f7453525ca4C6A88b01b50570EA088C",
      "gasPrice": {
        "_hex": "0xcf870a69a"
      },
      "gasLimit": {
        "_hex": "0x61a80"
      },
      "to": "0x5Fe5B7546D1628f7348B023A0393de1FC825A4fD",
      "value": {
        "_hex": "0x8ac7230489e80000"
      },
      "nonce": 289,
      "data": "0xb595b8b50000000000000000000000000000000000000000000000000000000000000000",
      "r": "0x21c7633aa80e7d1b2fd4d9476df6b51dc68aad05231a2fa57ffa96600aa6a69c",
      "s": "0x36cebc81ff4f70cff48f055010b750ca4bedbb6fdb30c2c51e502a28b30995f6",
      "v": 27,
      "creates": null,
      "raw": "0xf893820121850cf870a69a83061a80945fe5b7546d1628f7348b023a0393de1fc825a4fd888ac7230489e80000a4b595b8b500000000000000000000000000000000000000000000000000000000000000001ba021c7633aa80e7d1b2fd4d9476df6b51dc68aad05231a2fa57ffa96600aa6a69ca036cebc81ff4f70cff48f055010b750ca4bedbb6fdb30c2c51e502a28b30995f6",
      "networkId": 0,
      "chainId": 0
    }
  ]
}