{
  "hash": "0x610e9d1e1175e81648a02d91c266d2bc7958069449c2bca0d58b20d53a719e53",
  "parentHash": "0x9b68c091bcf7c78e9e6c49ce223c26a3132773614693643ec4649149c9534f4a",
  "number": 103899,
  "timestamp": 1439860704,
  "nonce": "0xb37ac7a26ec3ff8d",
  "difficulty": 4252569792540,
  "gasLimit": {
    "_hex": "0x2fefd8"
  },
  "gasUsed": {
    "_hex": "0x5208"
  },
  "miner": "0xe6A7a1d47ff21B6321162AEA7C6CB457D5476Bca",
  "extraData": "0x476574682f76312e302e312d38326566323666362f6c696e75782f676f312e34",
  "transactions": [
    {
      "hash": "0x4820442fe7057e861288be2512e372d79e8d66c925be7b17f737ea31a43fc938",
      "blockHash": "0x610e9d1e1175e81648a02d91c266d2bc7958069449c2bca0d58b20d53a719e53",
      "blockNumber": 103899,
      "transactionIndex": 0,
      "confirmations": null,
      "from": "0xa80b38CE85260252BDb8BE027868c1A32a2201a6",
      "gasPrice": {
        "_hex": "0xe4244aa4a"
      },
      "gasLimit": {
        "_hex": "0x5208"
      },
      "to": "0x32Be343B94f860124dC4fEe278FDCBD38C102D88",
      "value": {
        "_hex": "0x3635c51c195d1e0000"
      },
      "nonce": 4,
      "data": "0x",
      "r": "0x71e2c5d5d24c8e24b46450302080a550e510964bcafee0d8ecefb70e76892a64",
      "s": "0x7871b607d1c00069884e987d29b2cd57e201d7331fccdb4c353d235021453805",
      "v": 27,
      "creates": null,
      "raw": "0xf86d04850e4244aa4a8252089432be343b94f860124dc4fee278fdcbd38c102d88893635c51c195d1e0000801ba071e2c5d5d24c8e24b46450302080a550e510964bcafee0d8ecefb70e76892a64a07871b607d1c00069884e987d29b2cd57e201d7331fccdb4c353d235021453805",
      "networkId": 0,
      "chainId": 0
    }
  ]
}