{
  "hash": "0xc32f0c4a305fe97bf692644042245f484120f24f5c544eb7e96f35e008a41764",
  "parentHash": "0x61c7da6b8da5d9dd847e24c31e86aba9e0554d391fbefad24b4172b7f788d294",
  "number": 80706,
  "timestamp": 1439489483,
  "nonce": "0x0aab712e9790b1e9",
  "difficulty": 2440450774120,
  "gasLimit": {
    "_hex": "0x2fefd8"
  },
  "gasUsed": {
    "_hex": "0x5208"
  },
  "miner": "0x0037ce3d4B7f8729C8607D8D0248252Be68202c0",
  "extraData": "0x476574682f76312e302e312f77696e646f77732f676f312e342e32",
  "transactions": [
    {
      "hash": "0x3117d25b84f952f35c345ebc62ab66a4ea6668607e2086068d73622af38d677c",
      "blockHash": "0xc32f0c4a305fe97bf692644042245f484120f24f5c544eb7e96f35e008a41764",
      "blockNumber": 80706,
      "transactionIndex": 0,
      "confirmations": null,
      "from": "0x2910543Af39abA0Cd09dBb2D50200b3E800A63D2",
      "gasPrice": {
        "_hex": "0xdf7b25dcb"
      },
      "gasLimit": {
        "_hex": "0x5208"
      },
      "to": "0xe93C41Eb698768D7d6a9e589434e5bc8B2eec540",
      "value": {
        "_hex": "0x56bb59ab42b2f8000"
      },
      "nonce": 399,
      "data": "0x",
      "r": "0xe653a6c8b52b93b01cf967be591ce2df9a9105a94caecd030796ed15f6d4c78a",
      "s": "0x32a06a70fcad2380f53d486452cceb0d45b72de085ad88297284b28b099c230c",
      "v": 28,
      "creates": null,
      "raw": "0xf86f82018f850df7b25dcb82520894e93c41eb698768d7d6a9e589434e5bc8b2eec54089056bb59ab42b2f8000801ca0e653a6c8b52b93b01cf967be591ce2df9a9105a94caecd030796ed15f6d4c78aa032a06a70fcad2380f53d486452cceb0d45b72de085ad88297284b28b099c230c",
      "networkId": 0,
      "chainId": 0
    }
  ]
}