{
  "hash": "0x168628ebbe310ca7d6987deda0460f1576ee3d64bf27a8bb2834d059ea23e5fd",
  "parentHash": "0xf0b2ca59f1d761bb0b50571e9f419e8aba24f49bda1f5265a324aa3c0ed4400c",
  "number": 105305,
  "timestamp": 1439885218,
  "nonce": "0x849404179f0e4a6c",
  "difficulty": 4369722916042,
  "gasLimit": {
    "_hex": "0x2fefd8"
  },
  "gasUsed": {
    "_hex": "0x5208"
  },
  "miner": "0x007f7f58D3eb5b7510A301eCC749FC1fCDDBE14D",
  "extraData": "0x476574682f76312e302e312f77696e646f77732f676f312e342e32",
  "transactions": [
    {
      "hash": "0xf54fb4550a8f3af9096885dfefb0d83a20d62aa98452a7a22a5ed2bffd0a795a",
      "blockHash": "0x168628ebbe310ca7d6987deda0460f1576ee3d64bf27a8bb2834d059ea23e5fd",
      "blockNumber": 105305,
      "transactionIndex": 0,
      "confirmations": null,
      "from": "0x007f7f58D3eb5b7510A301eCC749FC1fCDDBE14D",
      "gasPrice": {
        "_hex": "0xde90f59a8"
      },
      "gasLimit": {
        "_hex": "0x15f90"
      },
      "to": "0xb1abce2918E21ddb93AA452731a12672A3d9F75a",
      "value": {
        "_hex": "0x4563918244f40000"
      },
      "nonce": 250,
      "data": "0x",
      "r": "0x68ee14b1ce9aa8b7148b54e803fdf6167672166bbbca3cc33eb7d0369ec0ec34",
      "s": "0x1cc6b69e813b5b58cd88ba89568360dc6394884dc20555195ea623964fb695ab",
      "v": 27,
      "creates": null,
      "raw": "0xf86e81fa850de90f59a883015f9094b1abce2918e21ddb93aa452731a12672a3d9f75a884563918244f40000801ba068ee14b1ce9aa8b7148b54e803fdf6167672166bbbca3cc33eb7d0369ec0ec34a01cc6b69e813b5b58cd88ba89568360dc6394884dc20555195ea623964fb695ab",
      "networkId": 0,
      "chainId": 0
    }
  ]
}