{
  "hash": "0x865e275ca599e3d62897805bd1be1a9764866f8f76cb428770f8c38281506b94",
  "parentHash": "0x31387a39226a8a173d2532cf911da00ebc3064120cdeb321b98041046cbecc2b",
  "number": 107369,
  "timestamp": 1439921273,
  "nonce": "0xcb9ed4847d78137b",
  "difficulty": 4394320574501,
  "gasLimit": {
    "_hex": "0x2fefd8"
  },
  "gasUsed": {
    "_hex": "0x5208"
  },
  "miner": "0x0037ce3d4B7f8729C8607D8D0248252Be68202c0",
  "extraData": "0x476574682f76312e302e312f77696e646f77732f676f312e342e32",
  "transactions": [
    {
      "hash": "0x3cc3f1a68d6b849b74edf67c4cebda04bd4576dcfacb11384989b5b4d288f7a7",
      "blockHash": "0x865e275ca599e3d62897805bd1be1a9764866f8f76cb428770f8c38281506b94",
      "blockNumber": 107369,
      "transactionIndex": 0,
      "confirmations": null,
      "from": "0x35e8e5dC5FBd97c5b421A80B596C030a2Be2A04D",
      "gasPrice": {
        "_hex": "0xcfee78675"
      },
      "gasLimit": {
        "_hex": "0x55f0"
      },
      "to": "0x8751DfA908C45A8aEf041FbeE9C17f9fE57Cc449",
      "value": {
        "_hex": "0xad78ebc5ac6200000"
      },
      "nonce": 3,
      "data": "0x",
      "r": "0x0a9c11068bffebc20ac370e4464a46e6717733c7adfed5732f608bc3081b9a35",
      "s": "0x4689feb54327fd476086a3eee4473d07ca74f4f20aa470daf605f867629d907a",
      "v": 27,
      "creates": null,
      "raw": "0xf86d03850cfee786758255f0948751dfa908c45a8aef041fbee9c17f9fe57cc449890ad78ebc5ac6200000801ba00a9c11068bffebc20ac370e4464a46e6717733c7adfed5732f608bc3081b9a35a04689feb54327fd476086a3eee4473d07ca74f4f20aa470daf605f867629d907a",
      "networkId": 0,
      "chainId": 0
    }
  ]
}