{
  "hash": "0x8a6e4f7707fb9e398a203e9d6593b1e4198770156542781776e894aa1a5db9e2",
  "parentHash": "0x85abb9ea5db982276a726f7cd8f1ff6eb880d6a3fdaf40600c42956857a06ebd",
  "number": 111106,
  "timestamp": 1439984752,
  "nonce": "0xf2cb7e6c6d179d22",
  "difficulty": 4407402054052,
  "gasLimit": {
    "_hex": "0x2fefd8"
  },
  "gasUsed": {
    "_hex": "0x5208"
  },
  "miner": "0xe6A7a1d47ff21B6321162AEA7C6CB457D5476Bca",
  "extraData": "0x476574682f76312e302e312d38326566323666362f6c696e75782f676f312e34",
  "transactions": [
    {
      "hash": "0xaf9ecf6080c889dc91bccc482166b484535e9ed0d6f32299d71a80f579d62357",
      "blockHash": "0x8a6e4f7707fb9e398a203e9d6593b1e4198770156542781776e894aa1a5db9e2",
      "blockNumber": 111106,
      "transactionIndex": 0,
      "confirmations": null,
      "from": "0x32Be343B94f860124dC4fEe278FDCBD38C102D88",
      "gasPrice": {
        "_hex": "0xd68dc6e0e"
      },
      "gasLimit": {
        "_hex": "0x5208"
      },
      "to": "0xeD3Fd00D62A795a3A07c71B4f4D94003F92f8A86",
      "value": {
        "_hex": "0x578b9e48679280000"
      },
      "nonce": 1299,
      "data": "0x",
      "r": "0xc677664717ddd167c2c6813b9f89154222320eaf620d16e4a6a957acf2983f31",
      "s": "0x3ac9ce0c98595903a9173f28a0b51aa7cad3bc8c2dc1a458d916b8516653a971",
      "v": 28,
      "creates": null,
      "raw": "0xf86f820513850d68dc6e0e82520894ed3fd00d62a795a3a07c71b4f4d94003f92f8a86890578b9e48679280000801ca0c677664717ddd167c2c6813b9f89154222320eaf620d16e4a6a957acf2983f31a03ac9ce0c98595903a9173f28a0b51aa7cad3bc8c2dc1a458d916b8516653a971",
      "networkId": 0,
      "chainId": 0
    }
  ]
}