{
  "hash": "0x9f959d86c23725fb1e3ced6e7afb9779496f30039dafa746bf64b0e83eef3778",
  "parentHash": "0x4716be575c2279e8717e6d234c5b0aa86814431354b6cd5a45cb3a102eb250b9",
  "number": 120175,
  "timestamp": 1440155361,
  "nonce": "0x52e729c12f388b2c",
  "difficulty": 4404789997550,
  "gasLimit": {
    "_hex": "0x2fefd8"
  },
  "gasUsed": {
    "_hex": "0xa410"
  },
  "miner": "0x87cD3b7f4DBBFE553DB92Ac1C97c6C24231c5D26",
  "extraData": "0x476574682f76312e302e322f6c696e75782f676f312e342e32",
  "transactions": [
    {
      "hash": "0x0653654aa87d2234141a82159d89623eb93dd7e221bb373cb74284aae72d4b31",
      "blockHash": "0x9f959d86c23725fb1e3ced6e7afb9779496f30039dafa746bf64b0e83eef3778",
      "blockNumber": 120175,
      "transactionIndex": 0,
      "confirmations": null,
      "from": "0x4c74B6F32c9680aCB5Fe0e72B7Aa95C612540A04",
      "gasPrice": {
        "_hex": "0xba43b7400"
      },
      "gasLimit": {
        "_hex": "0x5208"
      },
      "to": "0x32Be343B94f860124dC4fEe278FDCBD38C102D88",
      "value": {
        "_hex": "0x107a9d45d3f686000"
      },
      "nonce": 45,
      "data": "0x",
      "r": "0x566d51038df30898a8cbaa8813e86e79b16b12d6f95d5ad11c98d9f81b1e3a84",
      "s": "0x10e9e93c832bc2f46727c3e44350ae9586838abd8f3f04e7603a39a280dce734",
      "v": 28,
      "creates": null,
      "raw": "0xf86d2d850ba43b74008252089432be343b94f860124dc4fee278fdcbd38c102d88890107a9d45d3f686000801ca0566d51038df30898a8cbaa8813e86e79b16b12d6f95d5ad11c98d9f81b1e3a84a010e9e93c832bc2f46727c3e44350ae9586838abd8f3f04e7603a39a280dce734",
      "networkId": 0,
      "chainId": 0
    },
    {
      "hash": "0x287e5d8f7abc6e3a84009068d344347bd82302755c2445cef56a3612b3578b5d",
      "blockHash": "0x9f959d86c23725fb1e3ced6e7afb9779496f30039dafa746bf64b0e83eef3778",
      "blockNumber": 120175,
      "transactionIndex": 1,
      "confirmations": null,
      "from": "0x8F6864Db2057a8A1C2b2c16D39f64CE4F929F3D9",
      "gasPrice": {
        "_hex": "0xba43b7400"
      },
      "gasLimit": {
        "_hex": "0x5208"
      },
      "to": "0x32Be343B94f860124dC4fEe278FDCBD38C102D88",
      "value": {
        "_hex": "0x93723d4dbc3840000"
      },
      "nonce": 5,
      "data": "0x",
      "r": "0x31abcee54ccac09292fe24820498d33f811f8af18e50e274f50e8ec50ed0e17c",
      "s": "0x11ca74a00b0c69a775010d3c6b3cb195215df495b87daca37cf516ab94c3313b",
      "v": 28,
      "creates": null,
      "raw": "0xf86d05850ba43b74008252089432be343b94f860124dc4fee278fdcbd38c102d8889093723d4dbc3840000801ca031abcee54ccac09292fe24820498d33f811f8af18e50e274f50e8ec50ed0e17ca011ca74a00b0c69a775010d3c6b3cb195215df495b87daca37cf516ab94c3313b",
      "networkId": 0,
      "chainId": 0
    }
  ]
}