{
  "hash": "0x4deac07c70b9764396df99f8728dad176349ce146ab82def31523a457d33c4bb",
  "parentHash": "0xf4c85e746892e149999c6c20bc6f6a94598cc4b3f55e314ab8cb4e2f99432576",
  "number": 114084,
  "timestamp": 1440034618,
  "nonce": "0x1dada9209ced37b5",
  "difficulty": 4449074214947,
  "gasLimit": {
    "_hex": "0x2fefd8"
  },
  "gasUsed": {
    "_hex": "0x5208"
  },
  "miner": "0x9746c7e1ef2bd21FF3997fa467593a89cb852BD0",
  "extraData": "0x476574682f76312e302e312f77696e646f77732f676f312e342e32",
  "transactions": [
    {
      "hash": "0x805b3406f83b3616b61ad9267b8610f30ed1aceb1f5a2e313e297ff3837c63a9",
      "blockHash": "0x4deac07c70b9764396df99f8728dad176349ce146ab82def31523a457d33c4bb",
      "blockNumber": 114084,
      "transactionIndex": 0,
      "confirmations": null,
      "from": "0x32Be343B94f860124dC4fEe278FDCBD38C102D88",
      "gasPrice": {
        "_hex": "0xcc56ba3d5"
      },
      "gasLimit": {
        "_hex": "0x5208"
      },
      "to": "0xca6b1247E05188167CefaCf2Bf8425B68D52Bf64",
      "value": {
        "_hex": "0x11d57ccaffbda000"
      },
      "nonce": 1380,
      "data": "0x",
      "r": "0x880d693ff357349c00327d9d358a934b4fc9157738e1cb75393784f9cebfc426",
      "s": "0x367e034ab45199402c448467fecbefcb12aebf52fbc52f337f70398300489f44",
      "v": 28,
      "creates": null,
      "raw": "0xf86e820564850cc56ba3d582520894ca6b1247e05188167cefacf2bf8425b68d52bf648811d57ccaffbda000801ca0880d693ff357349c00327d9d358a934b4fc9157738e1cb75393784f9cebfc426a0367e034ab45199402c448467fecbefcb12aebf52fbc52f337f70398300489f44",
      "networkId": 0,
      "chainId": 0
    }
  ]
}