{
  "hash": "0x135055af7b6397e53c21efa7bb62604df61bf559d98318ab3f5692ea8dbd7e75",
  "parentHash": "0xaa79c57aa62487a11a11d26f69c543fd325d6c73aacd448a6241244d7ea0ebc9",
  "number": 76328,
  "timestamp": 1439418580,
  "nonce": "0xc79a05e1ed7e26fd",
  "difficulty": 2218877708876,
  "gasLimit": {
    "_hex": "0x2fefd8"
  },
  "gasUsed": {
    "_hex": "0x23ea3"
  },
  "miner": "0x9746c7e1ef2bd21FF3997fa467593a89cb852BD0",
  "extraData": "0x476574682f76312e302e312f77696e646f77732f676f312e342e32",
  "transactions": [
    {
      "hash": "0xfc97771c7e093b51bbe3931c0142786f6ad9ec5b04adb29b296472920ef66331",
      "blockHash": "0x135055af7b6397e53c21efa7bb62604df61bf559d98318ab3f5692ea8dbd7e75",
      "blockNumber": 76328,
      "transactionIndex": 0,
      "confirmations": null,
      "from": "0x0e320219838E859b2F9f18B72e3d4073cA50B37D",
      "gasPrice": {
        "_hex": "0xd060eb0b2"
      },
      "gasLimit": {
        "_hex": "0x2dc6c0"
      },
      "to": "0x35E57F2b08596f1946ECD9D31975eC3c2D7e1C1D",
      "value": {
        "_hex": "0x0"
      },
      "nonce": 10,
      "data": "0x0bf945120000000000000000000000000000000000000000000000000000000000000001",
      "r": "0xc7044dbf7b56781e037077a94205f7a565c881cc33115c3f5fdb9fb6bd8f694e",
      "s": "0x5918c978214cdd275ba553247d2e148a22592bbee77aae06a1607bca47a070c5",
      "v": 28,
      "creates": null,
      "raw": "0xf8890a850d060eb0b2832dc6c09435e57f2b08596f1946ecd9d31975ec3c2d7e1c1d80a40bf9451200000000000000000000000000000000000000000000000000000000000000011ca0c7044dbf7b56781e037077a94205f7a565c881cc33115c3f5fdb9fb6bd8f694ea05918c978214cdd275ba553247d2e148a22592bbee77aae06a1607bca47a070c5",
      "networkId": 0,
      "chainId": 0
    },
    {
      "hash": "0xa803b35f0b3cb4c95037dd4ca0fd664f1ad1ca700a1b186331f355526c7c4ec7",
      "blockHash": "0x135055af7b6397e53c21efa7bb62604df61bf559d98318ab3f5692ea8dbd7e75",
      "blockNumber": 76328,
      "transactionIndex": 1,
      "confirmations": null,
      "from": "0x18E113D8177c691A61Be785852Fa5Bb47aEeBdAf",
      "gasPrice": {
        "_hex": "0xcfd6b44e2"
      },
      "gasLimit": {
        "_hex": "0x7a120"
      },
      "to": "0xc2ac6849Aec3938FB8c9B36F1c07be76f766637E",
      "value": {
        "_hex": "0x53444835ec580000"
      },
      "nonce": 4,
      "data": "0x",
      "r": "0xf3ad9ebdf1144db36b7fa434579859d12490abec43f25b6708e0d35d7bf470a5",
      "s": "0x3d70854fb3b74ffe7a26c95f68d7e3515bda11daad0824813724aedb842cd966",
      "v": 27,
      "creates": null,
      "raw": "0xf86d04850cfd6b44e28307a12094c2ac6849aec3938fb8c9b36f1c07be76f766637e8853444835ec580000801ba0f3ad9ebdf1144db36b7fa434579859d12490abec43f25b6708e0d35d7bf470a5a03d70854fb3b74ffe7a26c95f68d7e3515bda11daad0824813724aedb842cd966",
      "networkId": 0,
      "chainId": 0
    }
  ]
}