{
  "hash": "0x4cb0899af4e5e060ead6f2378a37ea0f0ae67cfee06c394940c86e4e693dd7bc",
  "parentHash": "0x797f11331ff6fe12f4d05fd5f06482897a5085c977a5d50b9da64f5932f8f09e",
  "number": 89261,
  "timestamp": 1439620574,
  "nonce": "0xed79bc28d4d36b49",
  "difficulty": 3311215352945,
  "gasLimit": {
    "_hex": "0x2fefd8"
  },
  "gasUsed": {
    "_hex": "0x4871"
  },
  "miner": "0x580992B51e3925e23280EfB93d3047C82f17E038",
  "extraData": "0x476574682f76312e302e312f6c696e75782f676f312e342e32",
  "transactions": [
    {
      "hash": "0xf03e258e290dfe6d2b9038fcdd84948239f68b063d5e10406b1d177bbba75ced",
      "blockHash": "0x4cb0899af4e5e060ead6f2378a37ea0f0ae67cfee06c394940c86e4e693dd7bc",
      "blockNumber": 89261,
      "transactionIndex": 0,
      "confirmations": null,
      "from": "0x85A12ea0FD4A0818d18A21653927028f92e24538",
      "gasPrice": {
        "_hex": "0xd247c5787"
      },
      "gasLimit": {
        "_hex": "0x15f90"
      },
      "to": "0x5fC8AeFc86884f0792995c015ff12647fafA0d83",
      "value": {
        "_hex": "0x0"
      },
      "nonce": 2,
      "data": "0x2b8f2042",
      "r": "0x5b77b039221d01542d260af234aaf4af1e9c72410947ed63ce4a6bfa28c67d9e",
      "s": "0x60c25486ccf73c5219dca8d8e6f5838b66300b66c4b1cd6103f4b26972d6cfea",
      "v": 27,
      "creates": null,
      "raw": "0xf86902850d247c578783015f90945fc8aefc86884f0792995c015ff12647fafa0d8380842b8f20421ba05b77b039221d01542d260af234aaf4af1e9c72410947ed63ce4a6bfa28c67d9ea060c25486ccf73c5219dca8d8e6f5838b66300b66c4b1cd6103f4b26972d6cfea",
      "networkId": 0,
      "chainId": 0
    }
  ]
}