{
  "hash": "0x7c2fae7a458464b2c00e448b571d622eb33f4eae540977bb410ebc85cac3f8fd",
  "parentHash": "0x7d058522d155d088791615ce2954c639dd6d8d18799e558da2071805102f28e7",
  "number": 87587,
  "timestamp": 1439594475,
  "nonce": "0x5e8ce2e4a218981b",
  "difficulty": 3154048058131,
  "gasLimit": {
    "_hex": "0x2fefd8"
  },
  "gasUsed": {
    "_hex": "0x5208"
  },
  "miner": "0x909755D480A27911cB7EeeB5edB918fae50883c0",
  "extraData": "0x476574682f76312e302e312d39383130306634372f6c696e75782f676f312e34",
  "transactions": [
    {
      "hash": "0x58e06822497d06b661fca957042ff27be578bc3a1c40748491d6369cc6e2721b",
      "blockHash": "0x7c2fae7a458464b2c00e448b571d622eb33f4eae540977bb410ebc85cac3f8fd",
      "blockNumber": 87587,
      "transactionIndex": 0,
      "confirmations": null,
      "from": "0x3125489a20C268f9Bc735f8e0909d21aa7c098fD",
      "gasPrice": {
        "_hex": "0xba43b7400"
      },
      "gasLimit": {
        "_hex": "0x5267"
      },
      "to": "0x0000000000000000000000000000000000000000",
      "value": {
        "_hex": "0x141f6f514c510000"
      },
      "nonce": 0,
      "data": "0x",
      "r": "0x6659e95ede34a41e069efa0e9eaafc1af298321b39d46a04134bdc9ca08eb637",
      "s": "0xe1bde5177c8992544435b36776037c624dbf3abf2c3f447611c96cdeceb7e5d8",
      "v": 28,
      "creates": null,
      "raw": "0xf86c80850ba43b740082526794000000000000000000000000000000000000000088141f6f514c510000801ca06659e95ede34a41e069efa0e9eaafc1af298321b39d46a04134bdc9ca08eb637a0e1bde5177c8992544435b36776037c624dbf3abf2c3f447611c96cdeceb7e5d8",
      "networkId": 0,
      "chainId": 0
    }
  ]
}