{
  "hash": "0xea2f82ebf55dab39fcc2a70049aada78560abb7e9bb2d9274d559c17ce3fbca8",
  "parentHash": "0x3baa0a83643900b620d77ec442df2059a7fabc4aa9a7a3c91ff1ff361bbd9773",
  "number": 116866,
  "timestamp": 1440098908,
  "nonce": "0x820500c72708e1f0",
  "difficulty": 4327632563859,
  "gasLimit": {
    "_hex": "0x2fefd8"
  },
  "gasUsed": {
    "_hex": "0xeb8a"
  },
  "miner": "0xe6A7a1d47ff21B6321162AEA7C6CB457D5476Bca",
  "extraData": "0xd783010002844765746887676f312e342e32856c696e7578",
  "transactions": [
    {
      "hash": "0xfe9eb723b9fb6e395ab78e56dd92eea60ddf8bb65ad6e89c56f80a135a53a729",
      "blockHash": "0xea2f82ebf55dab39fcc2a70049aada78560abb7e9bb2d9274d559c17ce3fbca8",
      "blockNumber": 116866,
      "transactionIndex": 0,
      "confirmations": null,
      "from": "0x9b22a80D5c7B3374a05b446081f97d0A34079e7F",
      "gasPrice": {
        "_hex": "0xba43b7400"
      },
      "gasLimit": {
        "_hex": "0x22022"
      },
      "to": "0x816c42608bC6Ad894A7d788129c408A18241FF55",
      "value": {
        "_hex": "0x0"
      },
      "nonce": 13,
      "data": "0xb61d27f6000000000000000000000000b1a2b43a7433dd150bb82227ed519cd6b142d382000000000000000000000000000000000000000000000000016345785d8a0000000000000000000000000000000000000000000000000000000000000000006000000000000000000000000000000000000000000000000000000000000000000000000000000000000000000000000000000000000000000000000000000000",
      "r": "0xb34ca56047d705a63a3b740c0b1fa60dab50a91ec8fcd31c8ce93e547206341b",
      "s": "0x2698a8f084f83f5cf4984b28d43d828069f7754a7d3cf50c7f16e66a0a44b5aa",
      "v": 27,
      "creates": null,
      "raw": "0xf9010a0d850ba43b74008302202294816c42608bc6ad894a7d788129c408a18241ff5580b8a4b61d27f6000000000000000000000000b1a2b43a7433dd150bb82227ed519cd6b142d382000000000000000000000000000000000000000000000000016345785d8a00000000000000000000000000000000000000000000000000000000000000000060000000000000000000000000000000000000000000000000000000000000000000000000000000000000000000000000000000000000000000000000000000001ba0b34ca56047d705a63a3b740c0b1fa60dab50a91ec8fcd31c8ce93e547206341ba02698a8f084f83f5cf4984b28d43d828069f7754a7d3cf50c7f16e66a0a44b5aa",
      "networkId": 0,
      "chainId": 0
    },
    {
      "hash": "0x24a670b344df4f1d30d8fedbdcfbf841d9f7a3f20e66198571fc0021c09dc80f",
      "blockHash": "0xea2f82ebf55dab39fcc2a70049aada78560abb7e9bb2d9274d559c17ce3fbca8",
      "blockNumber": 116866,
      "transactionIndex": 1,
      "confirmations": null,
      "from": "0x0F87Fb507513e749081E34373c84E95e85b5c057",
      "gasPrice": {
        "_hex": "0xba43b7400"
      },
      "gasLimit": {
        "_hex": "0x15f90"
      },
      "to": "0xc8ebccC5F5689Fa8659d83713341e5aD19349448",
      "value": {
        "_hex": "0xde0b6b3a7640000"
      },
      "nonce": 11,
      "data": "0x",
      "r": "0xc54188f1e4564ea8160624d034735290011a4a73cadcb088ee0f9dce1b62cb26",
      "s": "0x7019027905bc15e09b87d55bd404ec3e92f0aa82319337a464efe296386e52a4",
      "v": 28,
      "creates": null,
      "raw": "0xf86d0b850ba43b740083015f9094c8ebccc5f5689fa8659d83713341e5ad19349448880de0b6b3a7640000801ca0c54188f1e4564ea8160624d034735290011a4a73cadcb088ee0f9dce1b62cb26a07019027905bc15e09b87d55bd404ec3e92f0aa82319337a464efe296386e52a4",
      "networkId": 0,
      "chainId": 0
    }
  ]
}