{
  "hash": "0xa0e0d81e4a7ca5368696494df20ae5e92948f4aa8aec5824e9ccd2a60a8cecdc",
  "parentHash": "0x304db08f6429514a10f52398838370bd382016e869440951d582b5a82d59bc35",
  "number": 97085,
  "timestamp": 1439750509,
  "nonce": "0xa8026546e657c857",
  "difficulty": 3755929306060,
  "gasLimit": {
    "_hex": "0x2fefd8"
  },
  "gasUsed": {
    "_hex": "0x5208"
  },
  "miner": "0xe6A7a1d47ff21B6321162AEA7C6CB457D5476Bca",
  "extraData": "0x476574682f76312e302e312d38326566323666362f6c696e75782f676f312e34",
  "transactions": [
    {
      "hash": "0x38feff3327c562d4b1f5c1c002b4b94a5fb8c53c9d9158ff5b27cb348cbf68ff",
      "blockHash": "0xa0e0d81e4a7ca5368696494df20ae5e92948f4aa8aec5824e9ccd2a60a8cecdc",
      "blockNumber": 97085,
      "transactionIndex": 0,
      "confirmations": null,
      "from": "0x57c80409e577598799b53e380C9b188a8ff70917",
      "gasPrice": {
        "_hex": "0xd4dfa5aef"
      },
      "gasLimit": {
        "_hex": "0x15f90"
      },
      "to": "0xaCb9c496aBFE89226f616a2e125576a36BB4c13a",
      "value": {
        "_hex": "0xc7d713b49da0000"
      },
      "nonce": 0,
      "data": "0x",
      "r": "0x924df9e1e140086a305186d9f736f29e50fb3274040877cf8110ee92225e4171",
      "s": "0x4e7b2705a821a1155644dc65709bed4d1b922918e0a3f6b36eebe09eb3507695",
      "v": 28,
      "creates": null,
      "raw": "0xf86d80850d4dfa5aef83015f9094acb9c496abfe89226f616a2e125576a36bb4c13a880c7d713b49da0000801ca0924df9e1e140086a305186d9f736f29e50fb3274040877cf8110ee92225e4171a04e7b2705a821a1155644dc65709bed4d1b922918e0a3f6b36eebe09eb3507695",
      "networkId": 0,
      "chainId": 0
    }
  ]
}