{
  "hash": "0x1752497310e1921ba6259e815d7c3f5fc5770e700831d48b48ea166cb51a9930",
  "parentHash": "0xd97ea5a31c7ce12a632158919cbb8ff4408592960708b60418c62c75ac5af51d",
  "number": 108616,
  "timestamp": 1439943403,
  "nonce": "0x520272549344b21a",
  "difficulty": 4340359776158,
  "gasLimit": {
    "_hex": "0x2fefd8"
  },
  "gasUsed": {
    "_hex": "0x5208"
  },
  "miner": "0x88D74a59454F6cF3B51ef6b9136AFb6b9D405A88",
  "extraData": "0x",
  "transactions": [
    {
      "hash": "0x68f596b789d7b5ef5b1da19d2d37d87f32344bdb975cd65c8422d3892c850b12",
      "blockHash": "0x1752497310e1921ba6259e815d7c3f5fc5770e700831d48b48ea166cb51a9930",
      "blockNumber": 108616,
      "transactionIndex": 0,
      "confirmations": null,
      "from": "0x0D4EcC7d750180EBf4A9Df728B6669B5Bceb5E40",
      "gasPrice": {
        "_hex": "0xd3a9631d0"
      },
      "gasLimit": {
        "_hex": "0x5208"
      },
      "to": "0x32Be343B94f860124dC4fEe278FDCBD38C102D88",
      "value": {
        "_hex": "0x45636b899708a400"
      },
      "nonce": 93,
      "data": "0x",
      "r": "0xe1621fefffb2076f0e60f89fec9ed93689a3b88f2560d478a08a68f468aa670f",
      "s": "0x2661d74c7939574f9d62417828ed5f655414edd1372da0fa421db3b45eed2b4d",
      "v": 27,
      "creates": null,
      "raw": "0xf86c5d850d3a9631d08252089432be343b94f860124dc4fee278fdcbd38c102d888845636b899708a400801ba0e1621fefffb2076f0e60f89fec9ed93689a3b88f2560d478a08a68f468aa670fa02661d74c7939574f9d62417828ed5f655414edd1372da0fa421db3b45eed2b4d",
      "networkId": 0,
      "chainId": 0
    }
  ]
}