{
  "hash": "0xc2dc07edc57de88fe3e093987134868eeb9307b927489ff7fc3744741f03f5fe",
  "parentHash": "0xce874ccf09f7628d427925e1b6529b1da5de1a7b98bf87ea370afad3731e87f4",
  "number": 87969,
  "timestamp": 1439600444,
  "nonce": "0xde6321c30be41ea8",
  "difficulty": 3187966893088,
  "gasLimit": {
    "_hex": "0x2fefd8"
  },
  "gasUsed": {
    "_hex": "0x5208"
  },
  "miner": "0x17C2884F2De34EC20CF7255bEf5d3ca9bA9764e6",
  "extraData": "0x",
  "transactions": [
    {
      "hash": "0x4c9397900dba320bc63863ce41755dc9131679219986d9af5bb053720df82f85",
      "blockHash": "0xc2dc07edc57de88fe3e093987134868eeb9307b927489ff7fc3744741f03f5fe",
      "blockNumber": 87969,
      "transactionIndex": 0,
      "confirmations": null,
      "from": "0x4Fb808254480c89d6eD63716Ca6d160Fe02bE66c",
      "gasPrice": {
        "_hex": "0xd29acb191"
      },
      "gasLimit": {
        "_hex": "0x55f0"
      },
      "to": "0xC0EdE9a639d107851462c15f2fb729c7c61bBf62",
      "value": {
        "_hex": "0x75f610f70ed200000"
      },
      "nonce": 0,
      "data": "0x",
      "r": "0x1cf586bcfec688e21fc0ce92ab7737f3acce43a61ed8e9c25759f71764f26452",
      "s": "0x0053ab8e77f49e76f8df7a7cde6cdff6c0b7402bbf86fa307b96f33f20302fd4",
      "v": 27,
      "creates": null,
      "raw": "0xf86c80850d29acb1918255f094c0ede9a639d107851462c15f2fb729c7c61bbf6289075f610f70ed200000801ba01cf586bcfec688e21fc0ce92ab7737f3acce43a61ed8e9c25759f71764f264529f53ab8e77f49e76f8df7a7cde6cdff6c0b7402bbf86fa307b96f33f20302fd4",
      "networkId": 0,
      "chainId": 0
    }
  ]
}