{
  "hash": "0x71adc3af6fc99768023f697c0070153738d430607bc7adac7131617b851d8d67",
  "parentHash": "0x0b4d035b05f8b2faedbecd37530a9871bf8190c92e1295b215406b3f9773f595",
  "number": 47971,
  "timestamp": 1438949171,
  "nonce": "0x6bcf83c2f415a318",
  "difficulty": 1462243295533,
  "gasLimit": {
    "_hex": "0x110ed"
  },
  "gasUsed": {
    "_hex": "0xa674"
  },
  "miner": "0xe6A7a1d47ff21B6321162AEA7C6CB457D5476Bca",
  "extraData": "0x657468706f6f6c2e6f7267",
  "transactions": [
    {
      "hash": "0xc17f5b509b47a02dca4a706927f19aacce626bcff65a550ccf34a756dad7d800",
      "blockHash": "0x71adc3af6fc99768023f697c0070153738d430607bc7adac7131617b851d8d67",
      "blockNumber": 47971,
      "transactionIndex": 0,
      "confirmations": null,
      "from": "0xe1237d552429cc333FfD3038Fc3ba3441d0B7ddE",
      "gasPrice": {
        "_hex": "0x11c1b7aaa19"
      },
      "gasLimit": {
        "_hex": "0x61a8"
      },
      "to": "0x2910543Af39abA0Cd09dBb2D50200b3E800A63D2",
      "value": {
        "_hex": "0x4563918244f40000"
      },
      "nonce": 0,
      "data": "0x454e364d4d42384e47",
      "r": "0xb7d4c14394564d4e0fc5fa8c5c4cb70c4c189638458c1d78fe212268667e84c2",
      "s": "0x7f3c75151eab12211feb38a975d57e9b9898bfb62700ffc6d9ad58029f53d37f",
      "v": 27,
      "creates": null,
      "raw": "0xf8768086011c1b7aaa198261a8942910543af39aba0cd09dbb2d50200b3e800a63d2884563918244f4000089454e364d4d42384e471ba0b7d4c14394564d4e0fc5fa8c5c4cb70c4c189638458c1d78fe212268667e84c2a07f3c75151eab12211feb38a975d57e9b9898bfb62700ffc6d9ad58029f53d37f",
      "networkId": 0,
      "chainId": 0
    },
    {
      "hash": "0xdbd12a7a484988980eb853c625546dad8c769337a74240b317d4ece8042c76da",
      "blockHash": "0x71adc3af6fc99768023f697c0070153738d430607bc7adac7131617b851d8d67",
      "blockNumber": 47971,
      "transactionIndex": 1,
      "confirmations": null,
      "from": "0x74016F15e9262E1fAb078146a4002ACc513AfEf0",
      "gasPrice": {
        "_hex": "0xcf1685499"
      },
      "gasLimit": {
        "_hex": "0x55f0"
      },
      "to": "0x7C1D0c9ad434e14754deeA395231be017047e40C",
      "value": {
        "_hex": "0x56bc75e2d63100000"
      },
      "nonce": 3,
      "data": "0x",
      "r": "0xf9c7a051ed0ec9bce546c06cb90838c2aac52b1edb5d8ed5dfd9829c01300deb",
      "s": "0x6ad54feac77fc5b97ab6608c05341ac64e8336ad33e3a74bbbbb646072270037",
      "v": 27,
      "creates": null,
      "raw": "0xf86d03850cf16854998255f0947c1d0c9ad434e14754deea395231be017047e40c89056bc75e2d63100000801ba0f9c7a051ed0ec9bce546c06cb90838c2aac52b1edb5d8ed5dfd9829c01300deba06ad54feac77fc5b97ab6608c05341ac64e8336ad33e3a74bbbbb646072270037",
      "networkId": 0,
      "chainId": 0
    }
  ]
}