{
  "hash": "0x927c803f7036fd85aa4f77c3e738a7f60888ee8ae04440a10bfdf6d53e1bb490",
  "parentHash": "0x0f4a541d3a86e799371a13214b1cc7a38157d35aa6322dee4deaa4c3484f9731",
  "number": 91224,
  "timestamp": 1439652242,
  "nonce": "0x5cfe34c77eecee07",
  "difficulty": 3443994792908,
  "gasLimit": {
    "_hex": "0x2fefd8"
  },
  "gasUsed": {
    "_hex": "0x5208"
  },
  "miner": "0x8f6E4E97770BD1F1C5CDBd294213B28657C28690",
  "extraData": "0x476574682f76312e302e312d38326566323666362f6c696e75782f676f312e34",
  "transactions": [
    {
      "hash": "0x69dc507af4b9a52227c26e00efd7ab56344ab7a51bbe64fdeb272b5e4744a6f0",
      "blockHash": "0x927c803f7036fd85aa4f77c3e738a7f60888ee8ae04440a10bfdf6d53e1bb490",
      "blockNumber": 91224,
      "transactionIndex": 0,
      "confirmations": null,
      "from": "0xfEE4dEb01301A2633e0046305A31fcA8d04F416c",
      "gasPrice": {
        "_hex": "0xd4ed7dde9"
      },
      "gasLimit": {
        "_hex": "0x15f90"
      },
      "to": "0x8132d5ae06e2b76cbF52673A79AA2766b0Ad8437",
      "value": {
        "_hex": "0x3d0ff0b013b80000"
      },
      "nonce": 0,
      "data": "0x",
      "r": "0xf26344a8527845c64ae7b3f627a47b9e143944461eecaf0d826ec4ebef8fff7b",
      "s": "0x073bb971c4833ed22dd51899ce2cf53496cc30471cf6031ee1818e108cd09057",
      "v": 28,
      "creates": null,
      "raw": "0xf86d80850d4ed7dde983015f90948132d5ae06e2b76cbf52673a79aa2766b0ad8437883d0ff0b013b80000801ca0f26344a8527845c64ae7b3f627a47b9e143944461eecaf0d826ec4ebef8fff7ba0073bb971c4833ed22dd51899ce2cf53496cc30471cf6031ee1818e108cd09057",
      "networkId": 0,
      "chainId": 0
    }
  ]
}