{
  "hash": "0x5209e141e3c4b6d77f777bf5d87783f70d8a0162a7dd683a9f49e9ca62dad217",
  "parentHash": "0x9fadb929918c3fdcda5f1a302eae49ff66451d2fb66d86fd2624fb91602ceb34",
  "number": 116266,
  "timestamp": 1440071132,
  "nonce": "0xb48e1b4d6c5efe06",
  "difficulty": 4589109152093,
  "gasLimit": {
    "_hex": "0x2fefd8"
  },
  "gasUsed": {
    "_hex": "0x5208"
  },
  "miner": "0x790b8a3cE86E707ED0eD32bF89B3269692a23CC1",
  "extraData": "0xd783010001844765746887676f312e342e32856c696e7578",
  "transactions": [
    {
      "hash": "0x49c55831cd565ce68d095e686a15a8f35ef4d4e2bcb94bc9b5a738c64d4166c6",
      "blockHash": "0x5209e141e3c4b6d77f777bf5d87783f70d8a0162a7dd683a9f49e9ca62dad217",
      "blockNumber": 116266,
      "transactionIndex": 0,
      "confirmations": null,
      "from": "0x4A2D52D0898f560E53cdf4585A034517c06d0544",
      "gasPrice": {
        "_hex": "0xba43b7400"
      },
      "gasLimit": {
        "_hex": "0x5208"
      },
      "to": "0xC47Aaa860008be6f65B58c6C6E02a84e666EfE31",
      "value": {
        "_hex": "0x26b3adb100664cf0"
      },
      "nonce": 6,
      "data": "0x",
      "r": "0x203a24d3b37d51afb8797feb717f8c7cd641fe303c73353f0527fc52228631f2",
      "s": "0x6511fa7cee21bc2a68c8d1fbc7852076f93fd2efa2f11dd37d00df7fbeeba0d8",
      "v": 27,
      "creates": null,
      "raw": "0xf86c06850ba43b740082520894c47aaa860008be6f65b58c6c6e02a84e666efe318826b3adb100664cf0801ba0203a24d3b37d51afb8797feb717f8c7cd641fe303c73353f0527fc52228631f2a06511fa7cee21bc2a68c8d1fbc7852076f93fd2efa2f11dd37d00df7fbeeba0d8",
      "networkId": 0,
      "chainId": 0
    }
  ]
}