{
  "hash": "0xacd90a7df615727d97fbdf2018c454c2a27ab14fa568e4c3c6cc52bde8ba9745",
  "parentHash": "0x4928a745ef3647e7f56c35dae90de509e50722a662f3b79c5ce29a538ce47d05",
  "number": 93768,
  "timestamp": 1439697406,
  "nonce": "0x38a6ad8e51174fde",
  "difficulty": 3422835943474,
  "gasLimit": {
    "_hex": "0x2fefd8"
  },
  "gasUsed": {
    "_hex": "0x5208"
  },
  "miner": "0xf8E0CA3Ed80bd541b94BEdCf259e8CF2141A9523",
  "extraData": "0x476574682f76312e302e312f77696e646f77732f676f312e342e32",
  "transactions": [
    {
      "hash": "0x1147a7d5fae0e73a43d4d71918023b12c35db4e64ec10883e504f261e14785a4",
      "blockHash": "0xacd90a7df615727d97fbdf2018c454c2a27ab14fa568e4c3c6cc52bde8ba9745",
      "blockNumber": 93768,
      "transactionIndex": 0,
      "confirmations": null,
      "from": "0x7D45E10A0d63eCCA0694a7cbfF030f4dD87DA0dC",
      "gasPrice": {
        "_hex": "0xde6494e37"
      },
      "gasLimit": {
        "_hex": "0x15f90"
      },
      "to": "0x6d921977dEFE5f4e0682CA512De1D07b1f4802E1",
      "value": {
        "_hex": "0x8ac7230489e80000"
      },
      "nonce": 18,
      "data": "0x",
      "r": "0xbb49fc9e7c846484f88041235b7718e77d336f6cd12db0f9b7ea3ebdd012b82d",
      "s": "0x02005f48f7545b79811a91e838d77a8248c27d3374d5de7c9b216e0a2ee9c8a1",
      "v": 27,
      "creates": null,
      "raw": "0xf86d12850de6494e3783015f90946d921977defe5f4e0682ca512de1d07b1f4802e1888ac7230489e80000801ba0bb49fc9e7c846484f88041235b7718e77d336f6cd12db0f9b7ea3ebdd012b82da002005f48f7545b79811a91e838d77a8248c27d3374d5de7c9b216e0a2ee9c8a1",
      "networkId": 0,
      "chainId": 0
    }
  ]
}