{
  "hash": "0xe0ede2da052db7fe24496a4a11fcfa0fee9465166511ee729c33c5eff6a1d8ac",
  "parentHash": "0x86279023be771225281515d34f7d20b3a94f980b8e4928c5cbb7cfdd63daaeea",
  "number": 94196,
  "timestamp": 1439704114,
  "nonce": "0xfa44bc0f3d8ad865",
  "difficulty": 3483357179491,
  "gasLimit": {
    "_hex": "0x2fefd8"
  },
  "gasUsed": {
    "_hex": "0x5208"
  },
  "miner": "0xaC49eeb6a55aF554D86d37b4A4eA7940010866E1",
  "extraData": "0x476574682f76312e302e312f77696e646f77732f676f312e342e32",
  "transactions": [
    {
      "hash": "0x99e8de1835d1f133828a984bd21dd6d3b580bd268ad8e1c815a31d9f56cae42e",
      "blockHash": "0xe0ede2da052db7fe24496a4a11fcfa0fee9465166511ee729c33c5eff6a1d8ac",
      "blockNumber": 94196,
      "transactionIndex": 0,
      "confirmations": null,
      "from": "0xa70a9a7040d542C632D8e0bE7c5513A8a5Bbc752",
      "gasPrice": {
        "_hex": "0xd187870da"
      },
      "gasLimit": {
        "_hex": "0x5208"
      },
      "to": "0x32Be343B94f860124dC4fEe278FDCBD38C102D88",
      "value": {
        "_hex": "0x34066fe78579d800"
      },
      "nonce": 145,
      "data": "0x",
      "r": "0x93171e9a82cca7cb5f12d940a86e0288ee3bb8333bd5840a9a25f7f504ff7d18",
      "s": "0x2a9f6db314cbcbbc953a1011dd2a8d6773d65f9796327099dbdd803e1288da34",
      "v": 28,
      "creates": null,
      "raw": "0xf86d8191850d187870da8252089432be343b94f860124dc4fee278fdcbd38c102d888834066fe78579d800801ca093171e9a82cca7cb5f12d940a86e0288ee3bb8333bd5840a9a25f7f504ff7d18a02a9f6db314cbcbbc953a1011dd2a8d6773d65f9796327099dbdd803e1288da34",
      "networkId": 0,
      "chainId": 0
    }
  ]
}