{
  "hash": "0xede2cb2ef3089822f65baff96e7f942017b9588127c204d158c8e14a4679bc00",
  "parentHash": "0x317d6b1d5c040de84066ef1050930ec321de4181d73ef9913acf7afc86c2f26d",
  "number": 49065,
  "timestamp": 1438967320,
  "nonce": "0xfa1c25f1a4d6f6d0",
  "difficulty": 1483627027474,
  "gasLimit": {
    "_hex": "0x24f1d"
  },
  "gasUsed": {
    "_hex": "0x546c"
  },
  "miner": "0xf927a40C8B7F6E07c5af7FA2155B4864a4112B13",
  "extraData": "0x476574682f76312e302e312f6c696e75782f676f312e342e32",
  "transactions": [
    {
      "hash": "0xa006c2de34b5a66a77ea1758d1012626b95239008791420ec0b2cb95e4908183",
      "blockHash": "0xede2cb2ef3089822f65baff96e7f942017b9588127c204d158c8e14a4679bc00",
      "blockNumber": 49065,
      "transactionIndex": 0,
      "confirmations": null,
      "from": "0x275875ff4FBB0cF3a430213127487F7608d04CBa",
      "gasPrice": {
        "_hex": "0x110c8f7d8de"
      },
      "gasLimit": {
        "_hex": "0xc350"
      },
      "to": "0x2910543Af39abA0Cd09dBb2D50200b3E800A63D2",
      "value": {
        "_hex": "0x9b6e64a8ec60000"
      },
      "nonce": 2,
      "data": "0x454e4e5a4b544d5047",
      "r": "0xa58b17afe8c708c88042bb8f00279e8547d2fbc44b536f6c2abdb9eafe81d7a9",
      "s": "0x7536d0de33e00f6c48beda4ce0a84e4436dab64e1ae07b3b4851e9b2f1ab02d7",
      "v": 28,
      "creates": null,
      "raw": "0xf87602860110c8f7d8de82c350942910543af39aba0cd09dbb2d50200b3e800a63d28809b6e64a8ec6000089454e4e5a4b544d50471ca0a58b17afe8c708c88042bb8f00279e8547d2fbc44b536f6c2abdb9eafe81d7a9a07536d0de33e00f6c48beda4ce0a84e4436dab64e1ae07b3b4851e9b2f1ab02d7",
      "networkId": 0,
      "chainId": 0
    }
  ]
}