{
  "hash": "0x48552c51939ecfd60ce75fa9e65eb69173ec3f7a7676030d999b82a6eaf5109a",
  "parentHash": "0xa1d8bf1566805df5ebbcdd3b4da338bfe060552ffc78c4da9362161ef6e34314",
  "number": 103575,
  "timestamp": 1439855511,
  "nonce": "0x9c946ded597a7323",
  "difficulty": 4207294871094,
  "gasLimit": {
    "_hex": "0x2fefd8"
  },
  "gasUsed": {
    "_hex": "0x5208"
  },
  "miner": "0x580992B51e3925e23280EfB93d3047C82f17E038",
  "extraData": "0x476574682f76312e302e312f6c696e75782f676f312e342e32",
  "transactions": [
    {
      "hash": "0xa64dd25fd210e53bf36aee04b827d9971a7d49ece1848ff746581226fab3a643",
      "blockHash": "0x48552c51939ecfd60ce75fa9e65eb69173ec3f7a7676030d999b82a6eaf5109a",
      "blockNumber": 103575,
      "transactionIndex": 0,
      "confirmations": null,
      "from": "0xFBb1b73C4f0BDa4f67dcA266ce6Ef42f520fBB98",
      "gasPrice": {
        "_hex": "0xd230a6582"
      },
      "gasLimit": {
        "_hex": "0x5208"
      },
      "to": "0x4A4851b1998065377D35EB64B3df1a527aef37aE",
      "value": {
        "_hex": "0xdbd2fc137a30000"
      },
      "nonce": 102,
      "data": "0x",
      "r": "0x4100c0132e26d710bcc4354ce6cd7ff319abb92bf1d0877e71d99436b6f53166",
      "s": "0x505a98a87ef44b7686dc7b807dedba0fab0ebf3f1eca279b7ffefc12b7f56a6c",
      "v": 27,
      "creates": null,
      "raw": "0xf86c66850d230a6582825208944a4851b1998065377d35eb64b3df1a527aef37ae880dbd2fc137a30000801ba04100c0132e26d710bcc4354ce6cd7ff319abb92bf1d0877e71d99436b6f53166a0505a98a87ef44b7686dc7b807dedba0fab0ebf3f1eca279b7ffefc12b7f56a6c",
      "networkId": 0,
      "chainId": 0
    }
  ]
}