{
  "hash": "0xea992e214d999ae8997aff0b1d70e20cd819b640a683af197dba65df2a682b2b",
  "parentHash": "0x82493510c836173c7ae383e4e4cce4ff7ad38583558589906eb1f0279a9c4a7b",
  "number": 67151,
  "timestamp": 1439266806,
  "nonce": "0x23cb20d46b6d8a2d",
  "difficulty": 1927079530644,
  "gasLimit": {
    "_hex": "0x2fefd8"
  },
  "gasUsed": {
    "_hex": "0xf618"
  },
  "miner": "0x88D74a59454F6cF3B51ef6b9136AFb6b9D405A88",
  "extraData": "0x476574682f76312e302e312d37666266393930632f6c696e75782f676f312e34",
  "transactions": [
    {
      "hash": "0x10243a6245f16d88afd935af2248d9ae6c3e99c7a17dbe74c2eb8d9c91ee40a7",
      "blockHash": "0xea992e214d999ae8997aff0b1d70e20cd819b640a683af197dba65df2a682b2b",
      "blockNumber": 67151,
      "transactionIndex": 0,
      "confirmations": null,
      "from": "0xF7e66D2622220807d8696064E94ca24b1dC6e7Da",
      "gasPrice": {
        "_hex": "0xd64e2425c"
      },
      "gasLimit": {
        "_hex": "0x5208"
      },
      "to": "0x32Be343B94f860124dC4fEe278FDCBD38C102D88",
      "value": {
        "_hex": "0x458494784fe18400"
      },
      "nonce": 7,
      "data": "0x",
      "r": "0x9f87b646b0cab45f813081d8651cf29e708ba52d1b368833c967c022dcd0c28b",
      "s": "0x3db1b63af844d845f29a1696a0f5f88919b5974c534efc76abdd433a7145f799",
      "v": 27,
      "creates": null,
      "raw": "0xf86c07850d64e2425c8252089432be343b94f860124dc4fee278fdcbd38c102d8888458494784fe18400801ba09f87b646b0cab45f813081d8651cf29e708ba52d1b368833c967c022dcd0c28ba03db1b63af844d845f29a1696a0f5f88919b5974c534efc76abdd433a7145f799",
      "networkId": 0,
      "chainId": 0
    },
    {
      "hash": "0x61660f4ca32dee806cbcb3084d4c74db269fe15543e34abc9f459e7967ff9931",
      "blockHash": "0xea992e214d999ae8997aff0b1d70e20cd819b640a683af197dba65df2a682b2b",
      "blockNumber": 67151,
      "transactionIndex": 1,
      "confirmations": null,
      "from": "0x5a0f0935E8E5591B2f9f2d55f29C626B50292088",
      "gasPrice": {
        "_hex": "0xd64e2425c"
      },
      "gasLimit": {
        "_hex": "0x5208"
      },
      "to": "0x32Be343B94f860124dC4fEe278FDCBD38C102D88",
      "value": {
        "_hex": "0xaade84d8418bd8000"
      },
      "nonce": 1,
      "data": "0x",
      "r": "0xa7d99d2fdff74084f36e857dacef1b3b48b8924996986e47f20a2ce8013c73d7",
      "s": "0x756e984d8f20b422b77a66c91c9a6c8c3747183e03a459ddaab7545f74aa32db",
      "v": 28,
      "creates": null,
      "raw": "0xf86d01850d64e2425c8252089432be343b94f860124dc4fee278fdcbd38c102d88890aade84d8418bd8000801ca0a7d99d2fdff74084f36e857dacef1b3b48b8924996986e47f20a2ce8013c73d7a0756e984d8f20b422b77a66c91c9a6c8c3747183e03a459ddaab7545f74aa32db",
      "networkId": 0,
      "chainId": 0
    },
    {
      "hash": "0x825b0436ccda905aee6a5609aaff674dffc3a1a4040b39b94af5f38ef88d4647",
      "blockHash": "0xea992e214d999ae8997aff0b1d70e20cd819b640a683af197dba65df2a682b2b",
      "blockNumber": 67151,
      "transactionIndex": 2,
      "confirmations": null,
      "from": "0x2910543Af39abA0Cd09dBb2D50200b3E800A63D2",
      "gasPrice": {
        "_hex": "0xd090f6641"
      },
      "gasLimit": {
        "_hex": "0x5208"
      },
      "to": "0x563b73aFFFD7381A4e96eC15E09af844df196545",
      "value": {
        "_hex": "0x1b28b3ca1d5ed38000"
      },
      "nonce": 208,
      "data": "0x",
      "r": "0xc398ccccf7eaf089be09ebd0b0558be98e5ebdb1e53a07acb5d935f0438c8e16",
      "s": "0x3a04b615219e488f6b4838c42ceaa15c1ff057471acdda510057fd4522b9aa9b",
      "v": 27,
      "creates": null,
      "raw": "0xf86e81d0850d090f664182520894563b73afffd7381a4e96ec15e09af844df196545891b28b3ca1d5ed38000801ba0c398ccccf7eaf089be09ebd0b0558be98e5ebdb1e53a07acb5d935f0438c8e16a03a04b615219e488f6b4838c42ceaa15c1ff057471acdda510057fd4522b9aa9b",
      "networkId": 0,
      "chainId": 0
    }
  ]
}