{
  "hash": "0xc5a470810f0879b6d896ffa4bf19c725d890ef3f77ac236f6e6baa8a0f3e70cc",
  "parentHash": "0xcb40362c950ecc2d6fb967fb39f4c6648514239d61fce69825a0fe53a2645931",
  "number": 65750,
  "timestamp": 1439242273,
  "nonce": "0xba46b86bda72001b",
  "difficulty": 1947266471454,
  "gasLimit": {
    "_hex": "0x2fefd8"
  },
  "gasUsed": {
    "_hex": "0x5208"
  },
  "miner": "0x5146556427FF689250ED1801a783D12138C3Dd5E",
  "extraData": "0x476574682f76312e302e312f6c696e75782f676f312e342e32",
  "transactions": [
    {
      "hash": "0xc84be57af4cf988fd5d6ff6c1c8a421720c399e381961c415b0f07109ef4d12e",
      "blockHash": "0xc5a470810f0879b6d896ffa4bf19c725d890ef3f77ac236f6e6baa8a0f3e70cc",
      "blockNumber": 65750,
      "transactionIndex": 0,
      "confirmations": null,
      "from": "0x32Be343B94f860124dC4fEe278FDCBD38C102D88",
      "gasPrice": {
        "_hex": "0xdf93c2d2a"
      },
      "gasLimit": {
        "_hex": "0x5208"
      },
      "to": "0xAd7F5C601260b460ADAC6A54411Ca6Cf07dC83c3",
      "value": {
        "_hex": "0x642e0359edea200000"
      },
      "nonce": 191,
      "data": "0x",
      "r": "0x478acef10883897cc03bb9d6bee5fed49dd790f6a3865936377c0649970cf092",
      "s": "0x0f4c9be0c1ed33fc23c644e68b88cdd87d17e7e9fd6529eccf52968d3502447d",
      "v": 27,
      "creates": null,
      "raw": "0xf86e81bf850df93c2d2a82520894ad7f5c601260b460adac6a54411ca6cf07dc83c389642e0359edea200000801ba0478acef10883897cc03bb9d6bee5fed49dd790f6a3865936377c0649970cf092a00f4c9be0c1ed33fc23c644e68b88cdd87d17e7e9fd6529eccf52968d3502447d",
      "networkId": 0,
      "chainId": 0
    }
  ]
}