{
  "hash": "0x30be9d6927c213617c9570a28741f341fb2f8eecd73e270252b16088a42657f5",
  "parentHash": "0x163f1777f2aaa4da5346a1fff94d7a8e5f7a87bccb44e4f13bd5da096167eeea",
  "number": 48422,
  "timestamp": 1438956855,
  "nonce": "0xcfa5f1921947d6cb",
  "difficulty": 1461450909102,
  "gasLimit": {
    "_hex": "0x17125"
  },
  "gasUsed": {
    "_hex": "0x546c"
  },
  "miner": "0xDe7Fea21Fe516d824641ae65F97b60552568E30A",
  "extraData": "0x476574682f76312e302e312f6c696e75782f676f312e342e32",
  "transactions": [
    {
      "hash": "0xf73b3c8e1dd15e8b69fce6651de2a8522501ae6c2386082adfe5006e7a28f0a2",
      "blockHash": "0x30be9d6927c213617c9570a28741f341fb2f8eecd73e270252b16088a42657f5",
      "blockNumber": 48422,
      "transactionIndex": 0,
      "confirmations": null,
      "from": "0xE09C68e61998D9c81b14E4ee802BA7ADf6d74CdB",
      "gasPrice": {
        "_hex": "0x110c8f7d8de"
      },
      "gasLimit": {
        "_hex": "0xc350"
      },
      "to": "0x2910543Af39abA0Cd09dBb2D50200b3E800A63D2",
      "value": {
        "_hex": "0x2386f26fc10000"
      },
      "nonce": 7,
      "data": "0x454e32413658483230",
      "r": "0x9e9a1d87671cb815ad33b935ae6b6dc3bae62b1347b357e588e346ffa7f9500d",
      "s": "0x4105e6c5a035eaebe132f014fea34683a7efc4e0ce1f25376b702fe06318f4f2",
      "v": 27,
      "creates": null,
      "raw": "0xf87507860110c8f7d8de82c350942910543af39aba0cd09dbb2d50200b3e800a63d2872386f26fc1000089454e324136584832301ba09e9a1d87671cb815ad33b935ae6b6dc3bae62b1347b357e588e346ffa7f9500da04105e6c5a035eaebe132f014fea34683a7efc4e0ce1f25376b702fe06318f4f2",
      "networkId": 0,
      "chainId": 0
    }
  ]
}