{
  "hash": "0x45a27eff2adcefe866161fa10833308f06f534c3108077f5996fea3c78f4b18a",
  "parentHash": "0x2de5294489f13b894eb3a590684c65d0a554c9962cd22c38bc467cbe671829a5",
  "number": 69621,
  "timestamp": 1439307035,
  "nonce": "0x812b0d52b110c11e",
  "difficulty": 2072909978161,
  "gasLimit": {
    "_hex": "0x2fefd8"
  },
  "gasUsed": {
    "_hex": "0x5208"
  },
  "miner": "0x29aeA5f51879982Fdb53Fb4F0720823Ed77E49Dc",
  "extraData": "0x476574682f76312e302e312f6c696e75782f676f312e342e32",
  "transactions": [
    {
      "hash": "0x5386cc10321139572dcabbd0867ae11c429cb45a51bd64715faf82ed9e0425c4",
      "blockHash": "0x45a27eff2adcefe866161fa10833308f06f534c3108077f5996fea3c78f4b18a",
      "blockNumber": 69621,
      "transactionIndex": 0,
      "confirmations": null,
      "from": "0x2910543Af39abA0Cd09dBb2D50200b3E800A63D2",
      "gasPrice": {
        "_hex": "0xdf5c95555"
      },
      "gasLimit": {
        "_hex": "0x5208"
      },
      "to": "0xDDbbB9D6C0f9cea8A7f29Fe427b1FD90Fa787E96",
      "value": {
        "_hex": "0x3bd7f7af2e6138000"
      },
      "nonce": 225,
      "data": "0x",
      "r": "0x0c249f6b95e6b56935a200ffe67f97a7a4f5ebe153e1ec9936c6277308a97239",
      "s": "0x0ab8ee1bd3a9f55bd026caef6a8affe81c07d34418118870c4d7e82e60b7b849",
      "v": 27,
      "creates": null,
      "raw": "0xf86e81e1850df5c9555582520894ddbbb9d6c0f9cea8a7f29fe427b1fd90fa787e968903bd7f7af2e6138000801ba00c249f6b95e6b56935a200ffe67f97a7a4f5ebe153e1ec9936c6277308a97239a00ab8ee1bd3a9f55bd026caef6a8affe81c07d34418118870c4d7e82e60b7b849",
      "networkId": 0,
      "chainId": 0
    }
  ]
}