{
  "hash": "0x3a8797cf80abc527d3e8369e6576de993a4c6689a2aad61d45d8ae64d6ce4394",
  "parentHash": "0x85d3d0aabf9280308346bd95f5c88ad75acce374ab99d8e00f1fc4c8de323f3e",
  "number": 86934,
  "timestamp": 1439584796,
  "nonce": "0xe04776c4cec0c477",
  "difficulty": 2984967275141,
  "gasLimit": {
    "_hex": "0x2fefd8"
  },
  "gasUsed": {
    "_hex": "0x2ac15"
  },
  "miner": "0x6541237dAaFf6688A79f9F2F370Ca0E7Ee20BD33",
  "extraData": "0x476574682f76312e302e312f77696e646f77732f676f312e342e32",
  "transactions": [
    {
      "hash": "0x3986a91455330981349789254aa8a512cf4a36a61b12ad335cd4478058569cd4",
      "blockHash": "0x3a8797cf80abc527d3e8369e6576de993a4c6689a2aad61d45d8ae64d6ce4394",
      "blockNumber": 86934,
      "transactionIndex": 0,
      "confirmations": null,
      "from": "0xd3CdA913deB6f67967B99D67aCDFa1712C293601",
      "gasPrice": {
        "_hex": "0xd338e73c8"
      },
      "gasLimit": {
        "_hex": "0xf4240"
      },
      "to": null,
      "value": {
        "_hex": "0x0"
      },
      "nonce": 8,
      "data": "0x606060405261020a806100136000396000f30060606040526000357c0100000000000000000000000000000000000000000000000000000000900480636215656a14610044578063e37678761461007757610042565b005b6100616004803590602001803590602001803590602001506100b3565b6040518082815260200191505060405180910390f35b61008e600480359060200180359060200150610090565b005b8060006000506000848152602001908152602001600020600050819055505b5050565b6000600060008484604051808381526020018281526020019250505060405180910390209150610104867f6164640000000000000000000000000000000000000000000000000000000000846101a6565b90508573ffffffffffffffffffffffffffffffffffffffff1681868660405180807f616464000000000000000000000000000000000000000000000000000000000081526020015060200184815260200183815260200182815260200193505050506000604051808303816000866161da5a03f1915050506000600050600082815260200190815260200160002060005054925061019d565b50509392505050565b60004340848484604051808581526020018473ffffffffffffffffffffffffffffffffffffffff166c0100000000000000000000000002815260140183815260200182815260200194505050505060405180910390209050610203565b939250505056",
      "r": "0x17f4e6372a61e0206b48304c13722f11657b20f99ba8d423d9e3575da6b4c273",
      "s": "0x41d3c5d585f1f0e3def554daa7bd259d09845e4649d47cc41e950dca24d3797e",
      "v": 28,
      "creates": "0xF95011f89fBC78988720A4F21B8C510600A9E996",
      "raw": "0xf9027008850d338e73c8830f42408080b9021d606060405261020a806100136000396000f30060606040526000357c0100000000000000000000000000000000000000000000000000000000900480636215656a14610044578063e37678761461007757610042565b005b6100616004803590602001803590602001803590602001506100b3565b6040518082815260200191505060405180910390f35b61008e600480359060200180359060200150610090565b005b8060006000506000848152602001908152602001600020600050819055505b5050565b6000600060008484604051808381526020018281526020019250505060405180910390209150610104867f6164640000000000000000000000000000000000000000000000000000000000846101a6565b90508573ffffffffffffffffffffffffffffffffffffffff1681868660405180807f616464000000000000000000000000000000000000000000000000000000000081526020015060200184815260200183815260200182815260200193505050506000604051808303816000866161da5a03f1915050506000600050600082815260200190815260200160002060005054925061019d565b50509392505050565b60004340848484604051808581526020018473ffffffffffffffffffffffffffffffffffffffff166c0100000000000000000000000002815260140183815260200182815260200194505050505060405180910390209050610203565b9392505050561ca017f4e6372a61e0206b48304c13722f11657b20f99ba8d423d9e3575da6b4c273a041d3c5d585f1f0e3def554daa7bd259d09845e4649d47cc41e950dca24d3797e",
      "networkId": 0,
      "chainId": 0
    },
    {
      "hash": "0x67e199ecefafbceb12dab348daf4d29d954d3209a12d47f347368f6bae574024",
      "blockHash": "0x3a8797cf80abc527d3e8369e6576de993a4c6689a2aad61d45d8ae64d6ce4394",
      "blockNumber": 86934,
      "transactionIndex": 1,
      "confirmations": null,
      "from": "0x6bA20db629F46Fa525F5080d151B714a758dDff2",
      "gasPrice": {
        "_hex": "0xd19901385"
      },
      "gasLimit": {
        "_hex": "0x15f90"
      },
      "to": "0x23f2D0fd3B4C98Fb1698564deB4898275E2e831f",
      "value": {
        "_hex": "0x4563918244f40000"
      },
      "nonce": 2,
      "data": "0x",
      "r": "0xbaaa96efbdd4fcae69af147fa47b25af00bb263df0f64253e5a47d4bf3d7b78c",
      "s": "0x43202c377ea37bacd6d5e08bc144418d041c0bb1f53599adea24b043230a7d92",
      "v": 27,
      "creates": null,
      "raw": "0xf86d02850d1990138583015f909423f2d0fd3b4c98fb1698564deb4898275e2e831f884563918244f40000801ba0baaa96efbdd4fcae69af147fa47b25af00bb263df0f64253e5a47d4bf3d7b78ca043202c377ea37bacd6d5e08bc144418d041c0bb1f53599adea24b043230a7d92",
      "networkId": 0,
      "chainId": 0
    }
  ]
}