{
  "hash": "0xa9db9a6b120caa0621179326669a871ee9da2b17fa646de7cf406310464e56e6",
  "parentHash": "0x5246198f7555b287e2aadd481bcb38f72c14bc8979e836cf7b35f1156ef7dba5",
  "number": 120162,
  "timestamp": 1440155004,
  "nonce": "0xf45b1a927b46958a",
  "difficulty": 4415563861107,
  "gasLimit": {
    "_hex": "0x2fefd8"
  },
  "gasUsed": {
    "_hex": "0x5208"
  },
  "miner": "0x790b8a3cE86E707ED0eD32bF89B3269692a23CC1",
  "extraData": "0xd783010002844765746887676f312e342e32856c696e7578",
  "transactions": [
    {
      "hash": "0x22b5ddc93af5893f626d6609f23d53b32cb96c84bf4a38dd9a498361254f0cb8",
      "blockHash": "0xa9db9a6b120caa0621179326669a871ee9da2b17fa646de7cf406310464e56e6",
      "blockNumber": 120162,
      "transactionIndex": 0,
      "confirmations": null,
      "from": "0xA10C59651885FeAaac91F871082a23BBbaBeDfCf",
      "gasPrice": {
        "_hex": "0xba43b7400"
      },
      "gasLimit": {
        "_hex": "0x5208"
      },
      "to": "0x4c74B6F32c9680aCB5Fe0e72B7Aa95C612540A04",
      "value": {
        "_hex": "0x107ad8f556c6c0000"
      },
      "nonce": 46,
      "data": "0x",
      "r": "0xc94016bd2be1bf3d104dc8b4e9d479a32f041e4a5ff525b09e941f4b7d403a85",
      "s": "0x7d69eaf1152811dbe8082dd0f75f260a81e0a40c090acf161c93d2aa171bdc6f",
      "v": 27,
      "creates": null,
      "raw": "0xf86d2e850ba43b7400825208944c74b6f32c9680acb5fe0e72b7aa95c612540a04890107ad8f556c6c0000801ba0c94016bd2be1bf3d104dc8b4e9d479a32f041e4a5ff525b09e941f4b7d403a85a07d69eaf1152811dbe8082dd0f75f260a81e0a40c090acf161c93d2aa171bdc6f",
      "networkId": 0,
      "chainId": 0
    }
  ]
}