{
  "hash": "0x8b7b2e2ba8d9ea4e4c89bd3f1b668d7bd646c596bab4e6e494c588c9f07ecbee",
  "parentHash": "0xa4c031f26b05f97e3c7177b037526781180badb40ddd2632edb4dfc55dfad9da",
  "number": 87364,
  "timestamp": 1439591098,
  "nonce": "0x86e8328ec5cfb5e0",
  "difficulty": 3112822013238,
  "gasLimit": {
    "_hex": "0x2fefd8"
  },
  "gasUsed": {
    "_hex": "0x5208"
  },
  "miner": "0x77EC9ad4A7E9418774C29415CAaF4Ee0da96eF64",
  "extraData": "0x",
  "transactions": [
    {
      "hash": "0x1a123c332fd6b52536275c7df059752a3dc2839201546b0e68988bd793f5f4c5",
      "blockHash": "0x8b7b2e2ba8d9ea4e4c89bd3f1b668d7bd646c596bab4e6e494c588c9f07ecbee",
      "blockNumber": 87364,
      "transactionIndex": 0,
      "confirmations": null,
      "from": "0x7871C9936A21B89507B5B65C7B13d8216D832D76",
      "gasPrice": {
        "_hex": "0xde14b6928"
      },
      "gasLimit": {
        "_hex": "0x15f90"
      },
      "to": "0x108feDb097c1DCfED441480170144D8e19BB217f",
      "value": {
        "_hex": "0x26575c481fb42b610"
      },
      "nonce": 2,
      "data": "0x",
      "r": "0x854ffaba883b66ad0af65c30344ee8656a0c502fdebae704b40e6e08bb2b6509",
      "s": "0x33714f5fa822f759080e1c0be7b9815cdbaa39306648248ef2e6806e9e401f3b",
      "v": 27,
      "creates": null,
      "raw": "0xf86e02850de14b692883015f9094108fedb097c1dcfed441480170144d8e19bb217f89026575c481fb42b610801ba0854ffaba883b66ad0af65c30344ee8656a0c502fdebae704b40e6e08bb2b6509a033714f5fa822f759080e1c0be7b9815cdbaa39306648248ef2e6806e9e401f3b",
      "networkId": 0,
      "chainId": 0
    }
  ]
}