{
  "hash": "0xf6c235ae273759a4af1feef6f5c8443487382ef8b62441fba6230fd1d1e468cb",
  "parentHash": "0x195d6f60a0bce817938d00f1949ebb4ec70504926be7b7823740a4aba2329329",
  "number": 84592,
  "timestamp": 1439551801,
  "nonce": "0x94b5f38eb0079b60",
  "difficulty": 2586519819254,
  "gasLimit": {
    "_hex": "0x2fefd8"
  },
  "gasUsed": {
    "_hex": "0xa410"
  },
  "miner": "0x0109Fb2bDd57D96397433af9B54eBD486ccd1B41",
  "extraData": "0x476574682f76312e302e312f77696e646f77732f676f312e342e32",
  "transactions": [
    {
      "hash": "0xef15c117b3559971d8b86414c7d440b418671b67b4703c0d138f1b6dda9c0233",
      "blockHash": "0xf6c235ae273759a4af1feef6f5c8443487382ef8b62441fba6230fd1d1e468cb",
      "blockNumber": 84592,
      "transactionIndex": 0,
      "confirmations": null,
      "from": "0xcEC7cbc5E0CFF86b17C8ea0382EeE6D0b39665c6",
      "gasPrice": {
        "_hex": "0xdc5859b66"
      },
      "gasLimit": {
        "_hex": "0x5208"
      },
      "to": "0x32Be343B94f860124dC4fEe278FDCBD38C102D88",
      "value": {
        "_hex": "0xa2bdba5e8d1fc00"
      },
      "nonce": 0,
      "data": "0x",
      "r": "0x7283543249c0646895046953bd8bd4f0c3067f95c4ede5b9a1b9cee6acdde0e7",
      "s": "0x2d34467682c40196f775efeea83066283e4ca2930465a2e3c1b22e36b6720dec",
      "v": 28,
      "creates": null,
      "raw": "0xf86c80850dc5859b668252089432be343b94f860124dc4fee278fdcbd38c102d88880a2bdba5e8d1fc00801ca07283543249c0646895046953bd8bd4f0c3067f95c4ede5b9a1b9cee6acdde0e7a02d34467682c40196f775efeea83066283e4ca2930465a2e3c1b22e36b6720dec",
      "networkId": 0,
      "chainId": 0
    },
    {
      "hash": "0xbd7ac6c864577c6a456362e9fdfc5d36461f9dc6075aba980c41054a32386b90",
      "blockHash": "0xf6c235ae273759a4af1feef6f5c8443487382ef8b62441fba6230fd1d1e468cb",
      "blockNumber": 84592,
      "transactionIndex": 1,
      "confirmations": null,
      "from": "0xE9820EfC74A9fe5fb68bf1e0FBf9945c1302bC0B",
      "gasPrice": {
        "_hex": "0xda5436cad"
      },
      "gasLimit": {
        "_hex": "0x5208"
      },
      "to": "0x32Be343B94f860124dC4fEe278FDCBD38C102D88",
      "value": {
        "_hex": "0x15edbc4c42bb000"
      },
      "nonce": 0,
      "data": "0x",
      "r": "0x4da5d58febeccb1e97b310e57b55d0ed61bd8679f1d6cb9a644e5626c85b9f4a",
      "s": "0x5f42fa2931779d407249003ab341286a983294f4128dd16628951fb77eed5430",
      "v": 27,
      "creates": null,
      "raw": "0xf86c80850da5436cad8252089432be343b94f860124dc4fee278fdcbd38c102d8888015edbc4c42bb000801ba04da5d58febeccb1e97b310e57b55d0ed61bd8679f1d6cb9a644e5626c85b9f4aa05f42fa2931779d407249003ab341286a983294f4128dd16628951fb77eed5430",
      "networkId": 0,
      "chainId": 0
    }
  ]
}