{
  "hash": "0xc3862ab7a8b95533000808cbdae42fcf86493c50a7dd557edecc9856cdbb8bfe",
  "parentHash": "0x877a02f609a963e2c0b676ecf8f9c914c3f73b5c80324b1a700026b57a6dcf56",
  "number": 85940,
  "timestamp": 1439571088,
  "nonce": "0x44e349abc804df9d",
  "difficulty": 2788065252287,
  "gasLimit": {
    "_hex": "0x2fefd8"
  },
  "gasUsed": {
    "_hex": "0xf87c"
  },
  "miner": "0x5F8F73E26CdF436f19Cb24C82F90A15AFe55b592",
  "extraData": "0x476574682f76312e302e312f77696e646f77732f676f312e342e32",
  "transactions": [
    {
      "hash": "0x51dbc1556c0236150f458c5674acc93e4611b9a8f211606344bfdabb9e6e33b7",
      "blockHash": "0xc3862ab7a8b95533000808cbdae42fcf86493c50a7dd557edecc9856cdbb8bfe",
      "blockNumber": 85940,
      "transactionIndex": 0,
      "confirmations": null,
      "from": "0x1784948BF99848C89E445638504dD698271B5924",
      "gasPrice": {
        "_hex": "0x110c8f7d8de"
      },
      "gasLimit": {
        "_hex": "0xc350"
      },
      "to": "0x2910543Af39abA0Cd09dBb2D50200b3E800A63D2",
      "value": {
        "_hex": "0x6c6b935b8bbd400000"
      },
      "nonce": 0,
      "data": "0x454e48544839523538",
      "r": "0xf36aa69032a7838bd7e7c2b8727a38b8ed62e65b86c1ba459873ba608c5b4274",
      "s": "0xf5c4f3f56d3db62bfa58b60a5f48c1577211fe65152db1cec08473f79d438a61",
      "v": 28,
      "creates": null,
      "raw": "0xf87780860110c8f7d8de82c350942910543af39aba0cd09dbb2d50200b3e800a63d2896c6b935b8bbd40000089454e485448395235381ca0f36aa69032a7838bd7e7c2b8727a38b8ed62e65b86c1ba459873ba608c5b4274a0f5c4f3f56d3db62bfa58b60a5f48c1577211fe65152db1cec08473f79d438a61",
      "networkId": 0,
      "chainId": 0
    },
    {
      "hash": "0x535757dbb2dd1f5ce837643a8f90cde331b6b1574c2e8e5dc89dfc037858093b",
      "blockHash": "0xc3862ab7a8b95533000808cbdae42fcf86493c50a7dd557edecc9856cdbb8bfe",
      "blockNumber": 85940,
      "transactionIndex": 1,
      "confirmations": null,
      "from": "0x051219f568c86EA6DD6Dd2cC8052c31504F33d44",
      "gasPrice": {
        "_hex": "0xd60340b78"
      },
      "gasLimit": {
        "_hex": "0x15f90"
      },
      "to": "0x1463cEF3d9007Db05b7C3B8981D38602EE0D855a",
      "value": {
        "_hex": "0x2b5e3af16b1880000"
      },
      "nonce": 3,
      "data": "0x",
      "r": "0x1bac7579a94e0380ed34f90c93eaacea03a15a6a007bd3106b430f702935f5ba",
      "s": "0x7d0f86cd5be270c7721432babc100d63bfdf5ae17349b19413cfbcb9d40085af",
      "v": 28,
      "creates": null,
      "raw": "0xf86e03850d60340b7883015f90941463cef3d9007db05b7c3b8981d38602ee0d855a8902b5e3af16b1880000801ca01bac7579a94e0380ed34f90c93eaacea03a15a6a007bd3106b430f702935f5baa07d0f86cd5be270c7721432babc100d63bfdf5ae17349b19413cfbcb9d40085af",
      "networkId": 0,
      "chainId": 0
    },
    {
      "hash": "0x969cde8b8e8fd64035a63399e94badbf6f27585cf85e17d2706578d4fcd1d8ec",
      "blockHash": "0xc3862ab7a8b95533000808cbdae42fcf86493c50a7dd557edecc9856cdbb8bfe",
      "blockNumber": 85940,
      "transactionIndex": 2,
      "confirmations": null,
      "from": "0x4Eaf4CaDd87499C20bA3412B1D222f9a72DA7AFF",
      "gasPrice": {
        "_hex": "0xd16393896"
      },
      "gasLimit": {
        "_hex": "0x5208"
      },
      "to": "0x32Be343B94f860124dC4fEe278FDCBD38C102D88",
      "value": {
        "_hex": "0x4be4e2f4f370600000"
      },
      "nonce": 2,
      "data": "0x",
      "r": "0x38440cfc9b101a8aa1fda442dc5c396b53046cdd5786efa78a841c9f70a5c639",
      "s": "0x0d1440d6609ee0123fa5fb3bf699082232399aa9d8f7cd4bd7134169cbcbfc2f",
      "v": 28,
      "creates": null,
      "raw": "0xf86d02850d163938968252089432be343b94f860124dc4fee278fdcbd38c102d88894be4e2f4f370600000801ca038440cfc9b101a8aa1fda442dc5c396b53046cdd5786efa78a841c9f70a5c639a00d1440d6609ee0123fa5fb3bf699082232399aa9d8f7cd4bd7134169cbcbfc2f",
      "networkId": 0,
      "chainId": 0
    }
  ]
}