{
  "hash": "0xd739738f3f8e85bff33d5f67f644a3209a900a660807399f6f7da958b561781d",
  "parentHash": "0x4c4ddfe20738dd47278e04341531162354ab13a649a6f54d0192afd5f9f93b01",
  "number": 111376,
  "timestamp": 1439989080,
  "nonce": "0x1eac4832ffada6ec",
  "difficulty": 4446166610838,
  "gasLimit": {
    "_hex": "0x2fefd8"
  },
  "gasUsed": {
    "_hex": "0x5208"
  },
  "miner": "0x580992B51e3925e23280EfB93d3047C82f17E038",
  "extraData": "0x476574682f76312e302e312f6c696e75782f676f312e342e32",
  "transactions": [
    {
      "hash": "0xc7f60a2fce90654e74786eb3dc8bdac084ec7745c7c5b499918f638842114072",
      "blockHash": "0xd739738f3f8e85bff33d5f67f644a3209a900a660807399f6f7da958b561781d",
      "blockNumber": 111376,
      "transactionIndex": 0,
      "confirmations": null,
      "from": "0x4245271A2F40593fb9F66A98202b3Dc1a8593cD2",
      "gasPrice": {
        "_hex": "0xd6b187d36"
      },
      "gasLimit": {
        "_hex": "0x15f90"
      },
      "to": "0x976349705b839e2F5719387Fb27D2519d519da03",
      "value": {
        "_hex": "0x470de4df820000"
      },
      "nonce": 2,
      "data": "0x",
      "r": "0x00bc0b820ccd6fe63f6eacfd5ecb981922c71f856dc76c8c7c2e3901d4b0452d",
      "s": "0x2510567c90263cf213232d211aa4fe0f1279688e1f0303c98163101d13bbf9d6",
      "v": 27,
      "creates": null,
      "raw": "0xf86b02850d6b187d3683015f9094976349705b839e2f5719387fb27d2519d519da0387470de4df820000801b9fbc0b820ccd6fe63f6eacfd5ecb981922c71f856dc76c8c7c2e3901d4b0452da02510567c90263cf213232d211aa4fe0f1279688e1f0303c98163101d13bbf9d6",
      "networkId": 0,
      "chainId": 0
    }
  ]
}