{
  "hash": "0x53d4f4a44f04310ea703ded2fe108ecda7f89a706d789cee67390d18c124f1c5",
  "parentHash": "0x85186f85be138a561af355356bbf795ff00901c26d30ff77714d3367b6c3115a",
  "number": 79483,
  "timestamp": 1439470480,
  "nonce": "0xd57b764b9fe7cb5e",
  "difficulty": 2332448091102,
  "gasLimit": {
    "_hex": "0x2fefd8"
  },
  "gasUsed": {
    "_hex": "0xf618"
  },
  "miner": "0x88D74a59454F6cF3B51ef6b9136AFb6b9D405A88",
  "extraData": "0x476574682f76312e302e312d38326566323666362f6c696e75782f676f312e34",
  "transactions": [
    {
      "hash": "0x317bf9e379737b3e24daf5dcda96a36db308817863146c5596841d9e708a7f2e",
      "blockHash": "0x53d4f4a44f04310ea703ded2fe108ecda7f89a706d789cee67390d18c124f1c5",
      "blockNumber": 79483,
      "transactionIndex": 0,
      "confirmations": null,
      "from": "0x96811Ad897894eC178872117C8BF2f03971A393B",
      "gasPrice": {
        "_hex": "0xcf13f1525"
      },
      "gasLimit": {
        "_hex": "0x5208"
      },
      "to": "0x32Be343B94f860124dC4fEe278FDCBD38C102D88",
      "value": {
        "_hex": "0x8ac2fd5657ebb000"
      },
      "nonce": 24,
      "data": "0x",
      "r": "0x27b2cfdae588e877165a724e74dbd4708649e925f4172180f51721d02889eaf4",
      "s": "0x0325694376f479f32678317df22bd2a3586e8aef8b197e332f6cbbcbf8f21a54",
      "v": 28,
      "creates": null,
      "raw": "0xf86c18850cf13f15258252089432be343b94f860124dc4fee278fdcbd38c102d88888ac2fd5657ebb000801ca027b2cfdae588e877165a724e74dbd4708649e925f4172180f51721d02889eaf4a00325694376f479f32678317df22bd2a3586e8aef8b197e332f6cbbcbf8f21a54",
      "networkId": 0,
      "chainId": 0
    },
    {
      "hash": "0x165d6df3a6d40a3f78882fd2b2b3fff2956e0183fe98ad93ee192069e0c1cb71",
      "blockHash": "0x53d4f4a44f04310ea703ded2fe108ecda7f89a706d789cee67390d18c124f1c5",
      "blockNumber": 79483,
      "transactionIndex": 1,
      "confirmations": null,
      "from": "0xa6BDc31c431B8F97848c9D60cbbe9660dc450eB7",
      "gasPrice": {
        "_hex": "0xcf13f1525"
      },
      "gasLimit": {
        "_hex": "0x5208"
      },
      "to": "0x32Be343B94f860124dC4fEe278FDCBD38C102D88",
      "value": {
        "_hex": "0x456386e2ceb3c000"
      },
      "nonce": 33,
      "data": "0x",
      "r": "0x2a8013923892717e81d2432b33b1e46d451a9d2b2418f470c0c5e6661e0bf683",
      "s": "0x771da1fdf12d2e3db9c164427b6ac3a58deebbc6461d56c7b3b6a45a1e4f80f2",
      "v": 28,
      "creates": null,
      "raw": "0xf86c21850cf13f15258252089432be343b94f860124dc4fee278fdcbd38c102d8888456386e2ceb3c000801ca02a8013923892717e81d2432b33b1e46d451a9d2b2418f470c0c5e6661e0bf683a0771da1fdf12d2e3db9c164427b6ac3a58deebbc6461d56c7b3b6a45a1e4f80f2",
      "networkId": 0,
      "chainId": 0
    },
    {
      "hash": "0x412a94e375622228869b4bf959d987edab356daf3965f3bcd56d19f8c7af787e",
      "blockHash": "0x53d4f4a44f04310ea703ded2fe108ecda7f89a706d789cee67390d18c124f1c5",
      "blockNumber": 79483,
      "transactionIndex": 2,
      "confirmations": null,
      "from": "0x8F586E3212291c58DCc78980a9c3432a3aFd3b6E",
      "gasPrice": {
        "_hex": "0xcf13f1525"
      },
      "gasLimit": {
        "_hex": "0x5208"
      },
      "to": "0x32Be343B94f860124dC4fEe278FDCBD38C102D88",
      "value": {
        "_hex": "0x25f25daa164b940000"
      },
      "nonce": 7,
      "data": "0x",
      "r": "0xedb7dec36ee184ab6f2ff0a41629648fc89e3c82ab1ee8b3da4167550351392e",
      "s": "0x03cca97a125c7d686973b2e1f76665f4ca6c4878c121cbc59e1ecc75a799c009",
      "v": 28,
      "creates": null,
      "raw": "0xf86d07850cf13f15258252089432be343b94f860124dc4fee278fdcbd38c102d888925f25daa164b940000801ca0edb7dec36ee184ab6f2ff0a41629648fc89e3c82ab1ee8b3da4167550351392ea003cca97a125c7d686973b2e1f76665f4ca6c4878c121cbc59e1ecc75a799c009",
      "networkId": 0,
      "chainId": 0
    }
  ]
}