{
  "hash": "0x5b24db80796f455ebeb7dd09efa7c9a01d1844f18fed273028a6c9718a12b2f1",
  "parentHash": "0x52ff1bad3833b42fe54ce554751f5868e1fc432ac5d037146158ebf097b3c42f",
  "number": 87714,
  "timestamp": 1439596334,
  "nonce": "0x2e03022ab819903e",
  "difficulty": 3158623811056,
  "gasLimit": {
    "_hex": "0x2fefd8"
  },
  "gasUsed": {
    "_hex": "0xa630"
  },
  "miner": "0x55bAf64fc9eAccFFd7Cc643BB61142E1C6ac093e",
  "extraData": "0x",
  "transactions": [
    {
      "hash": "0x81a11ccce543935ad4f5bc8ae41638e8f9b16cfd5765db1978a636d3738aaf65",
      "blockHash": "0x5b24db80796f455ebeb7dd09efa7c9a01d1844f18fed273028a6c9718a12b2f1",
      "blockNumber": 87714,
      "transactionIndex": 0,
      "confirmations": null,
      "from": "0x89972aA7C0b19D1aE9cd89386160c3f28f7bB590",
      "gasPrice": {
        "_hex": "0xd1a8c431f"
      },
      "gasLimit": {
        "_hex": "0x59d8"
      },
      "to": "0x6343AC3F15c925ACD28Bbf799A138781E4Cb692f",
      "value": {
        "_hex": "0x2b5e3af16b1880000"
      },
      "nonce": 0,
      "data": "0x454e374242585858",
      "r": "0x94cee0539e0f8f562c7c2689fc75faf766dd68b853b2ed520237e74ee13bdca1",
      "s": "0x3f092f18622e8c874fcbeca4c14193e283940992dbf972976d5461b091064685",
      "v": 27,
      "creates": null,
      "raw": "0xf87580850d1a8c431f8259d8946343ac3f15c925acd28bbf799a138781e4cb692f8902b5e3af16b188000088454e3742425858581ba094cee0539e0f8f562c7c2689fc75faf766dd68b853b2ed520237e74ee13bdca1a03f092f18622e8c874fcbeca4c14193e283940992dbf972976d5461b091064685",
      "networkId": 0,
      "chainId": 0
    },
    {
      "hash": "0xd216d9251b0ca902b510e636c0b7a86ae966771869b712a9dad76ee2db38603b",
      "blockHash": "0x5b24db80796f455ebeb7dd09efa7c9a01d1844f18fed273028a6c9718a12b2f1",
      "blockNumber": 87714,
      "transactionIndex": 1,
      "confirmations": null,
      "from": "0x120A270bbC009644e35F0bB6ab13f95b8199c4ad",
      "gasPrice": {
        "_hex": "0xd16a73a65"
      },
      "gasLimit": {
        "_hex": "0x3d090"
      },
      "to": "0xc5623FA5c297c05c2d965A336b2068CfA0e567FA",
      "value": {
        "_hex": "0x1bbab00ba293739c00"
      },
      "nonce": 506,
      "data": "0x",
      "r": "0xcbf9a0ddfd434be9e34b0915d2af5fcf78df00cbd80a662193d879f9393add2b",
      "s": "0x74af2ebd6c839f96529d3c41346347c71b5d5d37e03636f1a107bcea4633596c",
      "v": 27,
      "creates": null,
      "raw": "0xf8708201fa850d16a73a658303d09094c5623fa5c297c05c2d965a336b2068cfa0e567fa891bbab00ba293739c00801ba0cbf9a0ddfd434be9e34b0915d2af5fcf78df00cbd80a662193d879f9393add2ba074af2ebd6c839f96529d3c41346347c71b5d5d37e03636f1a107bcea4633596c",
      "networkId": 0,
      "chainId": 0
    }
  ]
}