{
  "hash": "0x6b03f045a4fb27813764001ca1517fccb0ad370023631a3501d52c5884d5adfa",
  "parentHash": "0xdfc5c28af9dfe13b4211a6e93f39397868d3bdc728fb5626f004b5092f48733a",
  "number": 84394,
  "timestamp": 1439549041,
  "nonce": "0xe327fe3a42ce41d2",
  "difficulty": 2558944037646,
  "gasLimit": {
    "_hex": "0x2fefd8"
  },
  "gasUsed": {
    "_hex": "0xf618"
  },
  "miner": "0x47ff6576639c2e94762eA5443978D7681C0E78DC",
  "extraData": "0x476574682f76312e302e312f6c696e75782f676f312e342e32",
  "transactions": [
    {
      "hash": "0xe476a76414bf4de4c3180887d23bd9f42a9fd3d14b82b6b424fef2bc0266f727",
      "blockHash": "0x6b03f045a4fb27813764001ca1517fccb0ad370023631a3501d52c5884d5adfa",
      "blockNumber": 84394,
      "transactionIndex": 0,
      "confirmations": null,
      "from": "0x43D575Cc486538f9B89F6e46188822F6fBC68D94",
      "gasPrice": {
        "_hex": "0xd93f1221e"
      },
      "gasLimit": {
        "_hex": "0x5208"
      },
      "to": "0x32Be343B94f860124dC4fEe278FDCBD38C102D88",
      "value": {
        "_hex": "0xdf36a0ba047d800"
      },
      "nonce": 2,
      "data": "0x",
      "r": "0xf282c177b9631bc06a0b91a5df6b938f111f6849599b9046429a3a823d35d42f",
      "s": "0x7e461dc0ea70e44c229a5a5771459065f873231fa63ed50284eb2a0068b0ff01",
      "v": 27,
      "creates": null,
      "raw": "0xf86c02850d93f1221e8252089432be343b94f860124dc4fee278fdcbd38c102d88880df36a0ba047d800801ba0f282c177b9631bc06a0b91a5df6b938f111f6849599b9046429a3a823d35d42fa07e461dc0ea70e44c229a5a5771459065f873231fa63ed50284eb2a0068b0ff01",
      "networkId": 0,
      "chainId": 0
    },
    {
      "hash": "0xf9167a6a06fe4daaa479c98f5adae772af6802960accd1c346630aaee657bfb6",
      "blockHash": "0x6b03f045a4fb27813764001ca1517fccb0ad370023631a3501d52c5884d5adfa",
      "blockNumber": 84394,
      "transactionIndex": 1,
      "confirmations": null,
      "from": "0xB89C0F465b0472fa5A58eCDd01eD937205ae4d06",
      "gasPrice": {
        "_hex": "0xd93f1221e"
      },
      "gasLimit": {
        "_hex": "0x5208"
      },
      "to": "0x32Be343B94f860124dC4fEe278FDCBD38C102D88",
      "value": {
        "_hex": "0x4d226f501ccee000"
      },
      "nonce": 3,
      "data": "0x",
      "r": "0xda03d560ae593ce4aef19fb33f3412f2eb2708a4f81162eaa5ea179dcdacd008",
      "s": "0x33f04c6245646cc7ac93f603a69194b07419727a7e558d6445fa2ab03d331b47",
      "v": 28,
      "creates": null,
      "raw": "0xf86c03850d93f1221e8252089432be343b94f860124dc4fee278fdcbd38c102d88884d226f501ccee000801ca0da03d560ae593ce4aef19fb33f3412f2eb2708a4f81162eaa5ea179dcdacd008a033f04c6245646cc7ac93f603a69194b07419727a7e558d6445fa2ab03d331b47",
      "networkId": 0,
      "chainId": 0
    },
    {
      "hash": "0xd80923faa98d5e64b66090041f2df3ad892d45eab71705062bd9e473ca72c145",
      "blockHash": "0x6b03f045a4fb27813764001ca1517fccb0ad370023631a3501d52c5884d5adfa",
      "blockNumber": 84394,
      "transactionIndex": 2,
      "confirmations": null,
      "from": "0xd223eD5b348a82910987CbBc7875a7AE62E1Ba53",
      "gasPrice": {
        "_hex": "0xd93f1221e"
      },
      "gasLimit": {
        "_hex": "0x5208"
      },
      "to": "0x32Be343B94f860124dC4fEe278FDCBD38C102D88",
      "value": {
        "_hex": "0x3a79130c50ec2c00"
      },
      "nonce": 4,
      "data": "0x",
      "r": "0x0f98203f9a9d4f65ab22aafb79f5cf71af2d4c30efd55bb7dbeb660829e2d30a",
      "s": "0x72d23026d9e04090336de35bf840b2d5d3be2249a393cd9374a8eb77060a38dc",
      "v": 28,
      "creates": null,
      "raw": "0xf86c04850d93f1221e8252089432be343b94f860124dc4fee278fdcbd38c102d88883a79130c50ec2c00801ca00f98203f9a9d4f65ab22aafb79f5cf71af2d4c30efd55bb7dbeb660829e2d30aa072d23026d9e04090336de35bf840b2d5d3be2249a393cd9374a8eb77060a38dc",
      "networkId": 0,
      "chainId": 0
    }
  ]
}