{
  "hash": "0x1ff532aef92bf7121d94a9dd5a3f543df5d4598d4e7b3bc7ad123a30ca63c9ab",
  "parentHash": "0x487d24ed22285573eac9f5026a163415d847d316a37b3e2949e02e6dfe9b23e2",
  "number": 59308,
  "timestamp": 1439135929,
  "nonce": "0xd13dda013849a574",
  "difficulty": 1704727805112,
  "gasLimit": {
    "_hex": "0x2fefd8"
  },
  "gasUsed": {
    "_hex": "0x5208"
  },
  "miner": "0x0193d941b50d91BE6567c7eE1C0Fe7AF498b4137",
  "extraData": "0x4a5ace9e4e",
  "transactions": [
    {
      "hash": "0x65ee18ab204e46583cae447d990818cff552752fcc5962044bac8e4bb09ddacf",
      "blockHash": "0x1ff532aef92bf7121d94a9dd5a3f543df5d4598d4e7b3bc7ad123a30ca63c9ab",
      "blockNumber": 59308,
      "transactionIndex": 0,
      "confirmations": null,
      "from": "0x00ec3B9E2e7Ba7FFBd1D77d100a29f8055C258Bb",
      "gasPrice": {
        "_hex": "0x2000000000"
      },
      "gasLimit": {
        "_hex": "0x5208"
      },
      "to": "0x008B1D771AF0dCFd83C30D9D93f3B83CdF18BebA",
      "value": {
        "_hex": "0x38d7ea4c68000"
      },
      "nonce": 6,
      "data": "0x",
      "r": "0x256df1bdc5610e1b0c9458e27cf10406a5bc37137766abceed2acf413b989c53",
      "s": "0x0cbdf95d659df0570b73a2e3f272d65bc1fe6d05a9f9dc8cbc1c24eba6b89bb9",
      "v": 27,
      "creates": null,
      "raw": "0xf86b0685200000000082520894008b1d771af0dcfd83c30d9d93f3b83cdf18beba87038d7ea4c68000801ba0256df1bdc5610e1b0c9458e27cf10406a5bc37137766abceed2acf413b989c53a00cbdf95d659df0570b73a2e3f272d65bc1fe6d05a9f9dc8cbc1c24eba6b89bb9",
      "networkId": 0,
      "chainId": 0
    }
  ]
}