{
  "hash": "0x039002975365fa7e758a33b19eacb5f7d09dee3342f88811246ae67d357972fe",
  "parentHash": "0xd52205cc8d8db2d0b5d8dcef804854724db3598e57fc62e2b05d52bd62bc0523",
  "number": 46347,
  "timestamp": 1438921633,
  "nonce": "0xdbb595353f5ec77a",
  "difficulty": 1462526407265,
  "gasLimit": {
    "_hex": "0x5c22"
  },
  "gasUsed": {
    "_hex": "0x5208"
  },
  "miner": "0x8322c3b542754aCEc5a25CA1e4C688c72aa5198E",
  "extraData": "0x476574682f76312e302e312d38326566323666362f6c696e75782f676f312e34",
  "transactions": [
    {
      "hash": "0x2b4691e9a4eb3ccc81419e1e93a2e5b904c9b5d95b2ce70198c3fb0580df63f4",
      "blockHash": "0x039002975365fa7e758a33b19eacb5f7d09dee3342f88811246ae67d357972fe",
      "blockNumber": 46347,
      "transactionIndex": 0,
      "confirmations": null,
      "from": "0xBD744E3F13D79B33F6c8E1d5E32F8E9BA2866c46",
      "gasPrice": {
        "_hex": "0x6308544094"
      },
      "gasLimit": {
        "_hex": "0x5208"
      },
      "to": "0xD2e57181beE0BF25a2E7D377EaCCec854Bd65334",
      "value": {
        "_hex": "0x54915956c4096000"
      },
      "nonce": 4,
      "data": "0x",
      "r": "0x3e581f6675a3d2f72d7a3077ea833c63f924a7723c4fab8fe5304e6c79432b38",
      "s": "0x6b45c20befde525b6b037e32a26b2e5e71b203ad559788a2e2780d07da30e4a3",
      "v": 28,
      "creates": null,
      "raw": "0xf86c0485630854409482520894d2e57181bee0bf25a2e7d377eaccec854bd653348854915956c4096000801ca03e581f6675a3d2f72d7a3077ea833c63f924a7723c4fab8fe5304e6c79432b38a06b45c20befde525b6b037e32a26b2e5e71b203ad559788a2e2780d07da30e4a3",
      "networkId": 0,
      "chainId": 0
    }
  ]
}