{
  "hash": "0x2dfa464dc35702cb956748a5db05f486d695a0b2293c3278417bc3ff8c331c5e",
  "parentHash": "0xf30534720416b332edfcc6996613b2838826524cda93372c7a551d84f61f9cdc",
  "number": 111863,
  "timestamp": 1439997444,
  "nonce": "0x650ea8b8c52d0754",
  "difficulty": 4435067465852,
  "gasLimit": {
    "_hex": "0x2fefd8"
  },
  "gasUsed": {
    "_hex": "0x5208"
  },
  "miner": "0xe6A7a1d47ff21B6321162AEA7C6CB457D5476Bca",
  "extraData": "0x476574682f76312e302e312d38326566323666362f6c696e75782f676f312e34",
  "transactions": [
    {
      "hash": "0x63dca0a23508f2a171eb24501427a7aa756727ca8f5438bc72976e9855b6d94e",
      "blockHash": "0x2dfa464dc35702cb956748a5db05f486d695a0b2293c3278417bc3ff8c331c5e",
      "blockNumber": 111863,
      "transactionIndex": 0,
      "confirmations": null,
      "from": "0x120A270bbC009644e35F0bB6ab13f95b8199c4ad",
      "gasPrice": {
        "_hex": "0xde3a9f04b"
      },
      "gasLimit": {
        "_hex": "0x3d090"
      },
      "to": "0xD3c6b518F1631509963232bA8e1882D3474a5838",
      "value": {
        "_hex": "0x23e4c599de14862400"
      },
      "nonce": 886,
      "data": "0x",
      "r": "0x3ed79b1766886f478614bf88909611b184aa57a82bed54b3ec15f6c960b85384",
      "s": "0x09caff782dfc668207507eca3710ff113f4a969c398a96c7526dd615671bb98d",
      "v": 28,
      "creates": null,
      "raw": "0xf870820376850de3a9f04b8303d09094d3c6b518f1631509963232ba8e1882d3474a58388923e4c599de14862400801ca03ed79b1766886f478614bf88909611b184aa57a82bed54b3ec15f6c960b85384a009caff782dfc668207507eca3710ff113f4a969c398a96c7526dd615671bb98d",
      "networkId": 0,
      "chainId": 0
    }
  ]
}