{
  "hash": "0x174f81fae43fddbef8fdb2af07d1f78d204846e0bf9cafe4cb22a7a02966c31e",
  "parentHash": "0x3c933204a2a42148f342392090b4393f11fb569498849821735ec10bcef851d1",
  "number": 63328,
  "timestamp": 1439202658,
  "nonce": "0xc6981d9f4284c08d",
  "difficulty": 1824462844425,
  "gasLimit": {
    "_hex": "0x2fefd8"
  },
  "gasUsed": {
    "_hex": "0x19c8c"
  },
  "miner": "0xbb7B8287f3F0a933474a79eAe42CBCa977791171",
  "extraData": "0x476574682f4c5649562f76312e302e312f6c696e75782f676f312e342e32",
  "transactions": [
    {
      "hash": "0x7a55a748ac6e4de9dffd47bc535f886bc0f6cbea3b84e7060b31c211f23b86f4",
      "blockHash": "0x174f81fae43fddbef8fdb2af07d1f78d204846e0bf9cafe4cb22a7a02966c31e",
      "blockNumber": 63328,
      "transactionIndex": 0,
      "confirmations": null,
      "from": "0x5Cc7D3066d45d27621F78bB4b339473e442a860F",
      "gasPrice": {
        "_hex": "0x110c8f7d8de"
      },
      "gasLimit": {
        "_hex": "0xc350"
      },
      "to": "0x2910543Af39abA0Cd09dBb2D50200b3E800A63D2",
      "value": {
        "_hex": "0x10f0cf064dd59200000"
      },
      "nonce": 3,
      "data": "0x454e46474433454d47",
      "r": "0x8fb5817cf12018d7b8e4a46dd6c39d2e1cca72472627e41f8bb46a9e2bb56332",
      "s": "0x2bcafcc8dd000f52708fc4eda7ac0774dce12052db8c8af4ed7cadcff8864d74",
      "v": 28,
      "creates": null,
      "raw": "0xf87803860110c8f7d8de82c350942910543af39aba0cd09dbb2d50200b3e800a63d28a010f0cf064dd5920000089454e46474433454d471ca08fb5817cf12018d7b8e4a46dd6c39d2e1cca72472627e41f8bb46a9e2bb56332a02bcafcc8dd000f52708fc4eda7ac0774dce12052db8c8af4ed7cadcff8864d74",
      "networkId": 0,
      "chainId": 0
    },
    {
      "hash": "0x792cca3ee05c17cd9fcac70d10ce459fccc18fd0537a8871d638ed3eb2759e47",
      "blockHash": "0x174f81fae43fddbef8fdb2af07d1f78d204846e0bf9cafe4cb22a7a02966c31e",
      "blockNumber": 63328,
      "transactionIndex": 1,
      "confirmations": null,
      "from": "0x120A270bbC009644e35F0bB6ab13f95b8199c4ad",
      "gasPrice": {
        "_hex": "0xd60e1c78f"
      },
      "gasLimit": {
        "_hex": "0x15f90"
      },
      "to": "0xb7b6e8868e3DfCD6C7EC726C4fda236266841c8C",
      "value": {
        "_hex": "0x336c123b7555c00"
      },
      "nonce": 96,
      "data": "0x",
      "r": "0x9d0484f0819eb2822dd694c2c243dc61683e47edbe96af084f9d5a76839fc85f",
      "s": "0x1d14c637e0cae0a28823fa4da2560a63cc9813a01f5b4585d1dbb87126af8a4a",
      "v": 28,
      "creates": null,
      "raw": "0xf86d60850d60e1c78f83015f9094b7b6e8868e3dfcd6c7ec726c4fda236266841c8c880336c123b7555c00801ca09d0484f0819eb2822dd694c2c243dc61683e47edbe96af084f9d5a76839fc85fa01d14c637e0cae0a28823fa4da2560a63cc9813a01f5b4585d1dbb87126af8a4a",
      "networkId": 0,
      "chainId": 0
    },
    {
      "hash": "0x3aaceee358d5e5beda6ca3c4a9d7d530655dec11a25f596820c23bd86562742e",
      "blockHash": "0x174f81fae43fddbef8fdb2af07d1f78d204846e0bf9cafe4cb22a7a02966c31e",
      "blockNumber": 63328,
      "transactionIndex": 2,
      "confirmations": null,
      "from": "0x120A270bbC009644e35F0bB6ab13f95b8199c4ad",
      "gasPrice": {
        "_hex": "0xd60e1c78f"
      },
      "gasLimit": {
        "_hex": "0x15f90"
      },
      "to": "0xb7D2dA6be86fA2bA1aF36d09448F029e438Fc419",
      "value": {
        "_hex": "0x3ba1910bf341b00000"
      },
      "nonce": 97,
      "data": "0x",
      "r": "0x4bb1f562a652c508486c19bebfed38d06b1d7f4fe50fa13b0a8654828a225eb7",
      "s": "0x0715b72a549e60feca5020253a9acbc65588e4df05b43a72b88f2dca233ba9aa",
      "v": 28,
      "creates": null,
      "raw": "0xf86e61850d60e1c78f83015f9094b7d2da6be86fa2ba1af36d09448f029e438fc419893ba1910bf341b00000801ca04bb1f562a652c508486c19bebfed38d06b1d7f4fe50fa13b0a8654828a225eb7a00715b72a549e60feca5020253a9acbc65588e4df05b43a72b88f2dca233ba9aa",
      "networkId": 0,
      "chainId": 0
    },
    {
      "hash": "0x23ff65432f2b6b0738d27b2dfa654f226cc798b77f09d507def8bad46be6ce50",
      "blockHash": "0x174f81fae43fddbef8fdb2af07d1f78d204846e0bf9cafe4cb22a7a02966c31e",
      "blockNumber": 63328,
      "transactionIndex": 3,
      "confirmations": null,
      "from": "0x120A270bbC009644e35F0bB6ab13f95b8199c4ad",
      "gasPrice": {
        "_hex": "0xd60e1c78f"
      },
      "gasLimit": {
        "_hex": "0x15f90"
      },
      "to": "0x8f717ec1552f4C440084fBa1154A81DC003EbdC0",
      "value": {
        "_hex": "0x1b1ae4d6e2ef500000"
      },
      "nonce": 98,
      "data": "0x",
      "r": "0x0cc0d59c26504be37e71e8cdf96ea2dcc688fa3c39986a5a754a30a2e39d8f09",
      "s": "0x7518f08cef3ee59f4c3c4775d098cf88dff9ae676cbf47e45be63db26e3462b6",
      "v": 28,
      "creates": null,
      "raw": "0xf86e62850d60e1c78f83015f90948f717ec1552f4c440084fba1154a81dc003ebdc0891b1ae4d6e2ef500000801ca00cc0d59c26504be37e71e8cdf96ea2dcc688fa3c39986a5a754a30a2e39d8f09a07518f08cef3ee59f4c3c4775d098cf88dff9ae676cbf47e45be63db26e3462b6",
      "networkId": 0,
      "chainId": 0
    },
    {
      "hash": "0xf9043e14193b82b02db08aaede55fbdb926440d73dbbc38834ff4678749ac4ec",
      "blockHash": "0x174f81fae43fddbef8fdb2af07d1f78d204846e0bf9cafe4cb22a7a02966c31e",
      "blockNumber": 63328,
      "transactionIndex": 4,
      "confirmations": null,
      "from": "0x91a8BAAeD012eA2e63803b593D0D0C2AAb4C5B0A",
      "gasPrice": {
        "_hex": "0xd10bb07f3"
      },
      "gasLimit": {
        "_hex": "0x15f90"
      },
      "to": "0x1FC0a68ee75c96453Dc8A877F49CfD6ab21d00ec",
      "value": {
        "_hex": "0xde0b6b3a7640000"
      },
      "nonce": 0,
      "data": "0x",
      "r": "0x0f33bd5d6eda2ed618d54c3f73ff69861607ea0edbf5d702d9b0d06ec8b3b22a",
      "s": "0x7e55543534bafe7de4253c914fc55524715b0306592dc08ffa481bb82e36f035",
      "v": 28,
      "creates": null,
      "raw": "0xf86d80850d10bb07f383015f90941fc0a68ee75c96453dc8a877f49cfd6ab21d00ec880de0b6b3a7640000801ca00f33bd5d6eda2ed618d54c3f73ff69861607ea0edbf5d702d9b0d06ec8b3b22aa07e55543534bafe7de4253c914fc55524715b0306592dc08ffa481bb82e36f035",
      "networkId": 0,
      "chainId": 0
    }
  ]
}