{
  "hash": "0x3eec999f7bd33db86ee3348f08eaf1d6b5381fddabee9b9c6febbb134eddf9bf",
  "parentHash": "0x24fb33b453932b7240a366e50474d8ec4c06a18e3742d85872053f25e1b0740c",
  "number": 116864,
  "timestamp": 1440098850,
  "nonce": "0x94fe6ed0ef8da8ba",
  "difficulty": 4331861864914,
  "gasLimit": {
    "_hex": "0x2fefd8"
  },
  "gasUsed": {
    "_hex": "0x3d860"
  },
  "miner": "0x608f4b86321a68453f9adf6F06F7Fc3E621739ad",
  "extraData": "0xd783010002844765746887676f312e342e32856c696e7578",
  "transactions": [
    {
      "hash": "0x0c60618f7e3f103a36733eaef652e2830c04e20c2ef343233a8624d0e8f5a0b0",
      "blockHash": "0x3eec999f7bd33db86ee3348f08eaf1d6b5381fddabee9b9c6febbb134eddf9bf",
      "blockNumber": 116864,
      "transactionIndex": 0,
      "confirmations": null,
      "from": "0xe6A7a1d47ff21B6321162AEA7C6CB457D5476Bca",
      "gasPrice": {
        "_hex": "0xba43b7400"
      },
      "gasLimit": {
        "_hex": "0x55f0"
      },
      "to": "0x3730a07b6d2d7413d0d76B91935F60bB0b1d8E2F",
      "value": {
        "_hex": "0x131217e96dfd7300"
      },
      "nonce": 5878,
      "data": "0x",
      "r": "0xd8fe4f19a92bc34154955b2a2555507ca552e9ada613e72e768c3960b27579c3",
      "s": "0x0102fce35b85e630c6ba0f5a37b7c8c7ecd02f808079938333926d85fbbb55a9",
      "v": 28,
      "creates": null,
      "raw": "0xf86e8216f6850ba43b74008255f0943730a07b6d2d7413d0d76b91935f60bb0b1d8e2f88131217e96dfd7300801ca0d8fe4f19a92bc34154955b2a2555507ca552e9ada613e72e768c3960b27579c3a00102fce35b85e630c6ba0f5a37b7c8c7ecd02f808079938333926d85fbbb55a9",
      "networkId": 0,
      "chainId": 0
    },
    {
      "hash": "0x5d5039a8cfea814302e4e1bcc1be49ab52cb6f357a23c55cbdb1c6c79f264732",
      "blockHash": "0x3eec999f7bd33db86ee3348f08eaf1d6b5381fddabee9b9c6febbb134eddf9bf",
      "blockNumber": 116864,
      "transactionIndex": 1,
      "confirmations": null,
      "from": "0xe6A7a1d47ff21B6321162AEA7C6CB457D5476Bca",
      "gasPrice": {
        "_hex": "0xba43b7400"
      },
      "gasLimit": {
        "_hex": "0x55f0"
      },
      "to": "0x9B80BD38c4afE0942F8029298A11fACe85ce4cAF",
      "value": {
        "_hex": "0x14aea447d56a19e8"
      },
      "nonce": 5879,
      "data": "0x",
      "r": "0xfb1c6ee497336a4ef9b654cad8541e06fba9c1461e88e5aeda8e8849ed8d8a4e",
      "s": "0x76eb06be7a90b96e1e7fb9ec9db5fb86f4dfbf8a6cefa5b1858b3ee6223fa7bb",
      "v": 28,
      "creates": null,
      "raw": "0xf86e8216f7850ba43b74008255f0949b80bd38c4afe0942f8029298a11face85ce4caf8814aea447d56a19e8801ca0fb1c6ee497336a4ef9b654cad8541e06fba9c1461e88e5aeda8e8849ed8d8a4ea076eb06be7a90b96e1e7fb9ec9db5fb86f4dfbf8a6cefa5b1858b3ee6223fa7bb",
      "networkId": 0,
      "chainId": 0
    },
    {
      "hash": "0x7fc21bd60446146b242924628965adcf356a8f37868cc278011c301a6a756240",
      "blockHash": "0x3eec999f7bd33db86ee3348f08eaf1d6b5381fddabee9b9c6febbb134eddf9bf",
      "blockNumber": 116864,
      "transactionIndex": 2,
      "confirmations": null,
      "from": "0xe6A7a1d47ff21B6321162AEA7C6CB457D5476Bca",
      "gasPrice": {
        "_hex": "0xba43b7400"
      },
      "gasLimit": {
        "_hex": "0x55f0"
      },
      "to": "0xacc8dECDFDCbed202B8632947c60487494F5D2c7",
      "value": {
        "_hex": "0x15c974c3abd03f00"
      },
      "nonce": 5880,
      "data": "0x",
      "r": "0x3df3d0903155eb187ec117ab9bc62b60bfe7d9422eab193c4c93d9d3d5a3c374",
      "s": "0x1e348ba99cdc0dd8a826a02687f97120195f8e0931179482c6a3940a4168ac70",
      "v": 28,
      "creates": null,
      "raw": "0xf86e8216f8850ba43b74008255f094acc8decdfdcbed202b8632947c60487494f5d2c78815c974c3abd03f00801ca03df3d0903155eb187ec117ab9bc62b60bfe7d9422eab193c4c93d9d3d5a3c374a01e348ba99cdc0dd8a826a02687f97120195f8e0931179482c6a3940a4168ac70",
      "networkId": 0,
      "chainId": 0
    },
    {
      "hash": "0xe9fbc667899b05c9f2356d1185ff0daa5ed50715553bed32fe56c0ed32391992",
      "blockHash": "0x3eec999f7bd33db86ee3348f08eaf1d6b5381fddabee9b9c6febbb134eddf9bf",
      "blockNumber": 116864,
      "transactionIndex": 3,
      "confirmations": null,
      "from": "0xe6A7a1d47ff21B6321162AEA7C6CB457D5476Bca",
      "gasPrice": {
        "_hex": "0xba43b7400"
      },
      "gasLimit": {
        "_hex": "0x55f0"
      },
      "to": "0x4b0a38C16B842d68A8721B4CAd662e07cc430652",
      "value": {
        "_hex": "0x1bb8a5f15a09a7e8"
      },
      "nonce": 5881,
      "data": "0x",
      "r": "0x6594705473e0e566057ab3dda093088975eea296c0faf81563dff94f81f99740",
      "s": "0x3db6699a07c4f972a6758f23cd42f1cb394036accae5eed9edaf065db9e1c24b",
      "v": 28,
      "creates": null,
      "raw": "0xf86e8216f9850ba43b74008255f0944b0a38c16b842d68a8721b4cad662e07cc430652881bb8a5f15a09a7e8801ca06594705473e0e566057ab3dda093088975eea296c0faf81563dff94f81f99740a03db6699a07c4f972a6758f23cd42f1cb394036accae5eed9edaf065db9e1c24b",
      "networkId": 0,
      "chainId": 0
    },
    {
      "hash": "0x743a0daa386ecf9dc25d20b8b31a6235b6ed12c61ab2796b4109f5aad315371a",
      "blockHash": "0x3eec999f7bd33db86ee3348f08eaf1d6b5381fddabee9b9c6febbb134eddf9bf",
      "blockNumber": 116864,
      "transactionIndex": 4,
      "confirmations": null,
      "from": "0xe6A7a1d47ff21B6321162AEA7C6CB457D5476Bca",
      "gasPrice": {
        "_hex": "0xba43b7400"
      },
      "gasLimit": {
        "_hex": "0x55f0"
      },
      "to": "0xD51361E8863b74B1d3BF75246d30f33f9f103e1d",
      "value": {
        "_hex": "0x24b4c15d823741e4"
      },
      "nonce": 5882,
      "data": "0x",
      "r": "0x310f2c5f83c0b2f402320ab0e586fdfcb52d3122cc2d9b75d48ffcf7d84fb7a3",
      "s": "0x7a2ce785f132e7915dc5f708a71946f484040c9ef2d0a804ba247f8fd3a7b6e6",
      "v": 28,
      "creates": null,
      "raw": "0xf86e8216fa850ba43b74008255f094d51361e8863b74b1d3bf75246d30f33f9f103e1d8824b4c15d823741e4801ca0310f2c5f83c0b2f402320ab0e586fdfcb52d3122cc2d9b75d48ffcf7d84fb7a3a07a2ce785f132e7915dc5f708a71946f484040c9ef2d0a804ba247f8fd3a7b6e6",
      "networkId": 0,
      "chainId": 0
    },
    {
      "hash": "0xc75884057375d0570e1a7d4179ce28d06cfc55e16a29b22a6fb740e104f5eb18",
      "blockHash": "0x3eec999f7bd33db86ee3348f08eaf1d6b5381fddabee9b9c6febbb134eddf9bf",
      "blockNumber": 116864,
      "transactionIndex": 5,
      "confirmations": null,
      "from": "0xe6A7a1d47ff21B6321162AEA7C6CB457D5476Bca",
      "gasPrice": {
        "_hex": "0xba43b7400"
      },
      "gasLimit": {
        "_hex": "0x55f0"
      },
      "to": "0xec4B2cCFC84A4C62d73D56c44917986aAAaEe10f",
      "value": {
        "_hex": "0x257ac5e68cb11c68"
      },
      "nonce": 5883,
      "data": "0x",
      "r": "0x7c2cb6cc4c56430b0d73f3c738b217b4ce8c53268cdfa888afe3ebd33310abc1",
      "s": "0x2466173b424ce125186bcfcd6c6196171905a9fbf825108d6f5c5878dac848e1",
      "v": 27,
      "creates": null,
      "raw": "0xf86e8216fb850ba43b74008255f094ec4b2ccfc84a4c62d73d56c44917986aaaaee10f88257ac5e68cb11c68801ba07c2cb6cc4c56430b0d73f3c738b217b4ce8c53268cdfa888afe3ebd33310abc1a02466173b424ce125186bcfcd6c6196171905a9fbf825108d6f5c5878dac848e1",
      "networkId": 0,
      "chainId": 0
    },
    {
      "hash": "0x4e8d42399a3646cd1fb76e9fd0707ad1d669f86b159920e5d8156cbccddaeec1",
      "blockHash": "0x3eec999f7bd33db86ee3348f08eaf1d6b5381fddabee9b9c6febbb134eddf9bf",
      "blockNumber": 116864,
      "transactionIndex": 6,
      "confirmations": null,
      "from": "0xe6A7a1d47ff21B6321162AEA7C6CB457D5476Bca",
      "gasPrice": {
        "_hex": "0xba43b7400"
      },
      "gasLimit": {
        "_hex": "0x55f0"
      },
      "to": "0x77e41B4125b7c14757e0f07fE36b2E95db757a10",
      "value": {
        "_hex": "0x272a61909fdc1e68"
      },
      "nonce": 5884,
      "data": "0x",
      "r": "0xaa092689f9964c3a0d2645c755d1835a74514125bfafc987d8b861047b8f8946",
      "s": "0x4f522a8dc6e6d2fce633c2a44678f56b5d255b00c415116ed082e212e1ab36d0",
      "v": 28,
      "creates": null,
      "raw": "0xf86e8216fc850ba43b74008255f09477e41b4125b7c14757e0f07fe36b2e95db757a1088272a61909fdc1e68801ca0aa092689f9964c3a0d2645c755d1835a74514125bfafc987d8b861047b8f8946a04f522a8dc6e6d2fce633c2a44678f56b5d255b00c415116ed082e212e1ab36d0",
      "networkId": 0,
      "chainId": 0
    },
    {
      "hash": "0xff3a34f0434f72ebb36b31b1a805111bf8af786f152f64e239642ccdca36bca7",
      "blockHash": "0x3eec999f7bd33db86ee3348f08eaf1d6b5381fddabee9b9c6febbb134eddf9bf",
      "blockNumber": 116864,
      "transactionIndex": 7,
      "confirmations": null,
      "from": "0xe6A7a1d47ff21B6321162AEA7C6CB457D5476Bca",
      "gasPrice": {
        "_hex": "0xba43b7400"
      },
      "gasLimit": {
        "_hex": "0x55f0"
      },
      "to": "0xadBC4B2dc881a1C624ee11c526e818f91378D410",
      "value": {
        "_hex": "0x28793fbec1a02010"
      },
      "nonce": 5885,
      "data": "0x",
      "r": "0x8c7ae1105e4f3a42cc95d6484a042b51dfb2b144ef5ec95c9527f7372e1e7976",
      "s": "0x659d18b32d235489fb3b89a32c1d75fdb7086b5cfee7211a3cda3bcc6a4091e3",
      "v": 27,
      "creates": null,
      "raw": "0xf86e8216fd850ba43b74008255f094adbc4b2dc881a1c624ee11c526e818f91378d4108828793fbec1a02010801ba08c7ae1105e4f3a42cc95d6484a042b51dfb2b144ef5ec95c9527f7372e1e7976a0659d18b32d235489fb3b89a32c1d75fdb7086b5cfee7211a3cda3bcc6a4091e3",
      "networkId": 0,
      "chainId": 0
    },
    {
      "hash": "0xac016098ae8d8315ecfb25c21e3ca53e25ddae8a9fcc0c1b07974d81475db4c4",
      "blockHash": "0x3eec999f7bd33db86ee3348f08eaf1d6b5381fddabee9b9c6febbb134eddf9bf",
      "blockNumber": 116864,
      "transactionIndex": 8,
      "confirmations": null,
      "from": "0xe6A7a1d47ff21B6321162AEA7C6CB457D5476Bca",
      "gasPrice": {
        "_hex": "0xba43b7400"
      },
      "gasLimit": {
        "_hex": "0x55f0"
      },
      "to": "0x305E8d20Ca61Ba9DD2DD18E1134e7CDB9a13F68D",
      "value": {
        "_hex": "0x2d61d52820202dec"
      },
      "nonce": 5886,
      "data": "0x",
      "r": "0x11cbde9bdb9e2a80ab20c437764880788f268726c2884800f25c94a16047f494",
      "s": "0x48be7afb1956d23ac4c8604d31f3e87114a01698625e0262d778b8ae3fd07b6c",
      "v": 27,
      "creates": null,
      "raw": "0xf86e8216fe850ba43b74008255f094305e8d20ca61ba9dd2dd18e1134e7cdb9a13f68d882d61d52820202dec801ba011cbde9bdb9e2a80ab20c437764880788f268726c2884800f25c94a16047f494a048be7afb1956d23ac4c8604d31f3e87114a01698625e0262d778b8ae3fd07b6c",
      "networkId": 0,
      "chainId": 0
    },
    {
      "hash": "0x45cfbebf1df703e8cbd47b035407eaf1914e3c20a9c31982a0be801e3cadbd36",
      "blockHash": "0x3eec999f7bd33db86ee3348f08eaf1d6b5381fddabee9b9c6febbb134eddf9bf",
      "blockNumber": 116864,
      "transactionIndex": 9,
      "confirmations": null,
      "from": "0xe6A7a1d47ff21B6321162AEA7C6CB457D5476Bca",
      "gasPrice": {
        "_hex": "0xba43b7400"
      },
      "gasLimit": {
        "_hex": "0x55f0"
      },
      "to": "0x76d4a9bc9612bE738A81d0fE632b00B971E2bB9a",
      "value": {
        "_hex": "0x45d7255e0374cb30"
      },
      "nonce": 5887,
      "data": "0x",
      "r": "0x0ff2ddeeb157a9a22a98307c9c38c74e300bca3a7a72368e743b0a7bd926045a",
      "s": "0x019fc37b7e1321fbbffdade156ce6485e412df2b2e38506156baccea09738c32",
      "v": 27,
      "creates": null,
      "raw": "0xf86e8216ff850ba43b74008255f09476d4a9bc9612be738a81d0fe632b00b971e2bb9a8845d7255e0374cb30801ba00ff2ddeeb157a9a22a98307c9c38c74e300bca3a7a72368e743b0a7bd926045aa0019fc37b7e1321fbbffdade156ce6485e412df2b2e38506156baccea09738c32",
      "networkId": 0,
      "chainId": 0
    },
    {
      "hash": "0xd678cbfe8c4476bbd3ede7af1007fcd0f8e50d2c202ac84a234c87fc7c332757",
      "blockHash": "0x3eec999f7bd33db86ee3348f08eaf1d6b5381fddabee9b9c6febbb134eddf9bf",
      "blockNumber": 116864,
      "transactionIndex": 10,
      "confirmations": null,
      "from": "0xe6A7a1d47ff21B6321162AEA7C6CB457D5476Bca",
      "gasPrice": {
        "_hex": "0xba43b7400"
      },
      "gasLimit": {
        "_hex": "0x55f0"
      },
      "to": "0xA270859a7dD7bEF18258BDE4b85Dd3691FdE277D",
      "value": {
        "_hex": "0x4795f4a4df4f0960"
      },
      "nonce": 5888,
      "data": "0x",
      "r": "0x29b2ed184885dfba45f438a19b63499f04d050eb15505d014878ed60217a7289",
      "s": "0x78338de9504f6209f105e0355a0b25438a481fdfdfd602b3cf7aabfa90ed5eab",
      "v": 27,
      "creates": null,
      "raw": "0xf86e821700850ba43b74008255f094a270859a7dd7bef18258bde4b85dd3691fde277d884795f4a4df4f0960801ba029b2ed184885dfba45f438a19b63499f04d050eb15505d014878ed60217a7289a078338de9504f6209f105e0355a0b25438a481fdfdfd602b3cf7aabfa90ed5eab",
      "networkId": 0,
      "chainId": 0
    },
    {
      "hash": "0xe861f88d4bc1bbdacf46155e1d980fa08c54c19c53bd014be5fc151bf587cbdf",
      "blockHash": "0x3eec999f7bd33db86ee3348f08eaf1d6b5381fddabee9b9c6febbb134eddf9bf",
      "blockNumber": 116864,
      "transactionIndex": 11,
      "confirmations": null,
      "from": "0xe6A7a1d47ff21B6321162AEA7C6CB457D5476Bca",
      "gasPrice": {
        "_hex": "0xba43b7400"
      },
      "gasLimit": {
        "_hex": "0x55f0"
      },
      "to": "0xC13Dad778D7BcE116BD97f744625D57f7124c38A",
      "value": {
        "_hex": "0x491507d19e16e538"
      },
      "nonce": 5889,
      "data": "0x",
      "r": "0x7413f689690565d754cbdd77758713e2fe92d999d0536a811aaaedb9dec041b2",
      "s": "0x00aaf0c5dff4d30db23d7c082d1b00ab0645b3130e5871b2fa5de6ec49d31922",
      "v": 28,
      "creates": null,
      "raw": "0xf86d821701850ba43b74008255f094c13dad778d7bce116bd97f744625d57f7124c38a88491507d19e16e538801ca07413f689690565d754cbdd77758713e2fe92d999d0536a811aaaedb9dec041b29faaf0c5dff4d30db23d7c082d1b00ab0645b3130e5871b2fa5de6ec49d31922",
      "networkId": 0,
      "chainId": 0
    }
  ]
}