{
  "hash": "0x84b3ed3b3027630d6606c6d68b90749c75f32363e6d69fbe0f915ca4ccf1f153",
  "parentHash": "0x065fc719493a109826b3bc27dac02c0d9fa7b1b57d3f86f21474e228c1b5ce0b",
  "number": 96550,
  "timestamp": 1439742181,
  "nonce": "0x9967092c39464ed0",
  "difficulty": 3692521918805,
  "gasLimit": {
    "_hex": "0x2fefd8"
  },
  "gasUsed": {
    "_hex": "0x5208"
  },
  "miner": "0xf927a40C8B7F6E07c5af7FA2155B4864a4112B13",
  "extraData": "0x",
  "transactions": [
    {
      "hash": "0x7c5f21e66269ad6cb8987114ddf78228bfb41ae735dfe7f3d1c40e13196ddb28",
      "blockHash": "0x84b3ed3b3027630d6606c6d68b90749c75f32363e6d69fbe0f915ca4ccf1f153",
      "blockNumber": 96550,
      "transactionIndex": 0,
      "confirmations": null,
      "from": "0x40B9b889A21Ff1534d018D71Dc406122EBcf3F5A",
      "gasPrice": {
        "_hex": "0x10fd028daff"
      },
      "gasLimit": {
        "_hex": "0x15f90"
      },
      "to": "0x645B979F8ce622236DB26feB803455d40C328615",
      "value": {
        "_hex": "0x3ba1910bf341b00000"
      },
      "nonce": 33,
      "data": "0x",
      "r": "0x9765897db5e275fad6f6e43f36e6f4f5ba556264434cb17b2550093ab923262d",
      "s": "0x672f297f07904617759dea5d1a4ab18ae0ae7e43c07d5d74d144347e80e3cd3a",
      "v": 27,
      "creates": null,
      "raw": "0xf86f2186010fd028daff83015f9094645b979f8ce622236db26feb803455d40c328615893ba1910bf341b00000801ba09765897db5e275fad6f6e43f36e6f4f5ba556264434cb17b2550093ab923262da0672f297f07904617759dea5d1a4ab18ae0ae7e43c07d5d74d144347e80e3cd3a",
      "networkId": 0,
      "chainId": 0
    }
  ]
}