{
  "hash": "0x59eb658de7b8102ce88a597a7f95710a1bbfa3a5300fb6987aa8fc3d9b2604c2",
  "parentHash": "0x0d254c91cbff9cc004146f40f8ce55247db55625371717649336cfe58d1740ba",
  "number": 121960,
  "timestamp": 1440185442,
  "nonce": "0x5426d024bc482f0b",
  "difficulty": 4488518833938,
  "gasLimit": {
    "_hex": "0x2fefd8"
  },
  "gasUsed": {
    "_hex": "0xa410"
  },
  "miner": "0xd10E6C4B44Ee5557dF0f11239Ca4BE5025791E8E",
  "extraData": "0xd783010002844765746887676f312e342e32856c696e7578",
  "transactions": [
    {
      "hash": "0x9ba5b996e760def4d408fa963a45155348dec2796ae0233f75c48cc22fa7677a",
      "blockHash": "0x59eb658de7b8102ce88a597a7f95710a1bbfa3a5300fb6987aa8fc3d9b2604c2",
      "blockNumber": 121960,
      "transactionIndex": 0,
      "confirmations": null,
      "from": "0x32Be343B94f860124dC4fEe278FDCBD38C102D88",
      "gasPrice": {
        "_hex": "0xdad53af3a"
      },
      "gasLimit": {
        "_hex": "0x5208"
      },
      "to": "0xBeEC2A78aD28d873e968C60963cD2Fdf396FB594",
      "value": {
        "_hex": "0xa8700b37a48878000"
      },
      "nonce": 1583,
      "data": "0x",
      "r": "0xfb59627fd1c337411dfafa6f74e43b46012e6f196de39a2fff6ea1f37ddc92a3",
      "s": "0x19604740e9c143c393a1598c8c465feb21754e4359733fe9b63074af72a72ca2",
      "v": 28,
      "creates": null,
      "raw": "0xf86f82062f850dad53af3a82520894beec2a78ad28d873e968c60963cd2fdf396fb594890a8700b37a48878000801ca0fb59627fd1c337411dfafa6f74e43b46012e6f196de39a2fff6ea1f37ddc92a3a019604740e9c143c393a1598c8c465feb21754e4359733fe9b63074af72a72ca2",
      "networkId": 0,
      "chainId": 0
    },
    {
      "hash": "0xcd38b082c0b02a418b0563b2c82f21d648220155298ee3c8d0a24dc3bdac6b38",
      "blockHash": "0x59eb658de7b8102ce88a597a7f95710a1bbfa3a5300fb6987aa8fc3d9b2604c2",
      "blockNumber": 121960,
      "transactionIndex": 1,
      "confirmations": null,
      "from": "0x32Be343B94f860124dC4fEe278FDCBD38C102D88",
      "gasPrice": {
        "_hex": "0xdad53af3a"
      },
      "gasLimit": {
        "_hex": "0x5208"
      },
      "to": "0xAaA4BEfA989B980188a418Cc5C4C02E7d9103818",
      "value": {
        "_hex": "0x1441faae13974d0000"
      },
      "nonce": 1584,
      "data": "0x",
      "r": "0x1c1474b00a361045536c75e28b271f8d461c38185cded770f2cb193da5d3b1d2",
      "s": "0x568344f78de23a0e29007aad1392ce9567f2abb1460e49b06b9050bf169dcebd",
      "v": 27,
      "creates": null,
      "raw": "0xf86f820630850dad53af3a82520894aaa4befa989b980188a418cc5c4c02e7d9103818891441faae13974d0000801ba01c1474b00a361045536c75e28b271f8d461c38185cded770f2cb193da5d3b1d2a0568344f78de23a0e29007aad1392ce9567f2abb1460e49b06b9050bf169dcebd",
      "networkId": 0,
      "chainId": 0
    }
  ]
}