{
  "hash": "0xa8c2186d8e62ebdc52874fd04323f5e9b389e9b7cba355a2a43d3c4c72dc38de",
  "parentHash": "0x1ca354b1c8eb9d7312b64918a614acd8b2bb336784484248844c517c4c5de639",
  "number": 53557,
  "timestamp": 1439039591,
  "nonce": "0x07d14ef315f57ad7",
  "difficulty": 1595514873836,
  "gasLimit": {
    "_hex": "0x2bedd9"
  },
  "gasUsed": {
    "_hex": "0xf618"
  },
  "miner": "0x2C674A948592B20a4B775E1a3991Db043E6CF0FE",
  "extraData": "0x476574682f76312e302e312d38326566323666362f6c696e75782f676f312e34",
  "transactions": [
    {
      "hash": "0x8cd6a95a7ad51948109017077fff61d60cd1cb9e16ca736e6491256b7b933e15",
      "blockHash": "0xa8c2186d8e62ebdc52874fd04323f5e9b389e9b7cba355a2a43d3c4c72dc38de",
      "blockNumber": 53557,
      "transactionIndex": 0,
      "confirmations": null,
      "from": "0xA15b1919f7e2cDf9366a648929E40b94D17A8613",
      "gasPrice": {
        "_hex": "0xd406db182"
      },
      "gasLimit": {
        "_hex": "0x5208"
      },
      "to": "0x32Be343B94f860124dC4fEe278FDCBD38C102D88",
      "value": {
        "_hex": "0xddc77a57bd0d400"
      },
      "nonce": 0,
      "data": "0x",
      "r": "0x51d2d095f090ea3ec98d2747aca2437a96f5725331222b88e595a767b40fe4d0",
      "s": "0x2b1b66bc75b9fea80efbabd40e287adc9524937ca5d3dea44fd7b95614993ab6",
      "v": 27,
      "creates": null,
      "raw": "0xf86c80850d406db1828252089432be343b94f860124dc4fee278fdcbd38c102d88880ddc77a57bd0d400801ba051d2d095f090ea3ec98d2747aca2437a96f5725331222b88e595a767b40fe4d0a02b1b66bc75b9fea80efbabd40e287adc9524937ca5d3dea44fd7b95614993ab6",
      "networkId": 0,
      "chainId": 0
    },
    {
      "hash": "0x2f7b89f44bd7e2d66b0705d1d412aac36d3aad3bacaf3ed54c069dabc80ed746",
      "blockHash": "0xa8c2186d8e62ebdc52874fd04323f5e9b389e9b7cba355a2a43d3c4c72dc38de",
      "blockNumber": 53557,
      "transactionIndex": 1,
      "confirmations": null,
      "from": "0x543807d0aF2c58b49d7F25659D0472d4d8B8e8DA",
      "gasPrice": {
        "_hex": "0xd406db182"
      },
      "gasLimit": {
        "_hex": "0x5208"
      },
      "to": "0x32Be343B94f860124dC4fEe278FDCBD38C102D88",
      "value": {
        "_hex": "0x1158a06fae83cd000"
      },
      "nonce": 1,
      "data": "0x",
      "r": "0x7cd3d4d8e3ffb66e567e9963703e61ee96286d2b7f16bc33db5a81381ab94517",
      "s": "0x053e4dc6993eb202b3bc618ea19d66b84080ec9d047046aff33ac54a1558baca",
      "v": 27,
      "creates": null,
      "raw": "0xf86d01850d406db1828252089432be343b94f860124dc4fee278fdcbd38c102d888901158a06fae83cd000801ba07cd3d4d8e3ffb66e567e9963703e61ee96286d2b7f16bc33db5a81381ab94517a0053e4dc6993eb202b3bc618ea19d66b84080ec9d047046aff33ac54a1558baca",
      "networkId": 0,
      "chainId": 0
    },
    {
      "hash": "0xc8db0d34b9acf6a626d679e57a1fd1389468b09de4d269b2a09a3a65ebd169f4",
      "blockHash": "0xa8c2186d8e62ebdc52874fd04323f5e9b389e9b7cba355a2a43d3c4c72dc38de",
      "blockNumber": 53557,
      "transactionIndex": 2,
      "confirmations": null,
      "from": "0xeD17Ea8E9fd42159037deE95ea173a56c54f55ce",
      "gasPrice": {
        "_hex": "0xd406db182"
      },
      "gasLimit": {
        "_hex": "0x5208"
      },
      "to": "0x32Be343B94f860124dC4fEe278FDCBD38C102D88",
      "value": {
        "_hex": "0x564d2c3c563cac000"
      },
      "nonce": 7,
      "data": "0x",
      "r": "0x7a88cd88f78dfe4f405ccfd94bbcc70d44d8982b75829db35488e23f2583ab04",
      "s": "0x1bf500123b4791532137c240661899b4a308d4d05a6a20f20172db02484fef34",
      "v": 27,
      "creates": null,
      "raw": "0xf86d07850d406db1828252089432be343b94f860124dc4fee278fdcbd38c102d88890564d2c3c563cac000801ba07a88cd88f78dfe4f405ccfd94bbcc70d44d8982b75829db35488e23f2583ab04a01bf500123b4791532137c240661899b4a308d4d05a6a20f20172db02484fef34",
      "networkId": 0,
      "chainId": 0
    }
  ]
}