{
  "hash": "0x1be83639d1a32ee7041abd04fafea10b39f9e9a2bcd521f2a3ec0a5f7dcd54fb",
  "parentHash": "0x6467c4a91de9d952a4203e8febfc6ace5eb908b078b40498a77d8e8e39e73d0a",
  "number": 69795,
  "timestamp": 1439309672,
  "nonce": "0x94a61fa7a8f38ab1",
  "difficulty": 2103454730695,
  "gasLimit": {
    "_hex": "0x2fefd8"
  },
  "gasUsed": {
    "_hex": "0x546c"
  },
  "miner": "0x88D74a59454F6cF3B51ef6b9136AFb6b9D405A88",
  "extraData": "0x476574682f76312e302e312d38326566323666362f6c696e75782f676f312e34",
  "transactions": [
    {
      "hash": "0xf956aff1cf8c2be016b0217beaf6e3715cb47ff48ce228b8a441c63cec82419b",
      "blockHash": "0x1be83639d1a32ee7041abd04fafea10b39f9e9a2bcd521f2a3ec0a5f7dcd54fb",
      "blockNumber": 69795,
      "transactionIndex": 0,
      "confirmations": null,
      "from": "0x157c6f2431eB1a95797EE86F7d17b3c0FD47A247",
      "gasPrice": {
        "_hex": "0xdc77c96f2"
      },
      "gasLimit": {
        "_hex": "0x15f90"
      },
      "to": "0xc0b9d23f8d37650D0141B559dbD33d94Ea004e07",
      "value": {
        "_hex": "0x133e9d5b211fac0000"
      },
      "nonce": 5,
      "data": "0x454e433933464b3330",
      "r": "0xb285beb1586844a4196a2db42a45de7a7038e4a40f808a9adb42fee5bb6837b9",
      "s": "0x4865a767c944f08cbe5cb672def04c202049e71a749735a24fd0d32e0dc1da29",
      "v": 27,
      "creates": null,
      "raw": "0xf87705850dc77c96f283015f9094c0b9d23f8d37650d0141b559dbd33d94ea004e0789133e9d5b211fac000089454e433933464b33301ba0b285beb1586844a4196a2db42a45de7a7038e4a40f808a9adb42fee5bb6837b9a04865a767c944f08cbe5cb672def04c202049e71a749735a24fd0d32e0dc1da29",
      "networkId": 0,
      "chainId": 0
    }
  ]
}