{
  "hash": "0x00f363d8aeb01f25883f3ce3e1aac5245173c4b9605d21b1d0ccb9542e6d11b4",
  "parentHash": "0x90b2244579d49e59e33e8313cae2eb53658323d091b474651d5d2376fee3c171",
  "number": 96597,
  "timestamp": 1439742790,
  "nonce": "0x7eaea5f02c50b36e",
  "difficulty": 3716014508791,
  "gasLimit": {
    "_hex": "0x2fefd5"
  },
  "gasUsed": {
    "_hex": "0x5208"
  },
  "miner": "0x76d4a9bc9612bE738A81d0fE632b00B971E2bB9a",
  "extraData": "0x",
  "transactions": [
    {
      "hash": "0x88800b7767579e343513211fc61ac525bb75b1edff911e8ca05a58066203d2e8",
      "blockHash": "0x00f363d8aeb01f25883f3ce3e1aac5245173c4b9605d21b1d0ccb9542e6d11b4",
      "blockNumber": 96597,
      "transactionIndex": 0,
      "confirmations": null,
      "from": "0x40B9b889A21Ff1534d018D71Dc406122EBcf3F5A",
      "gasPrice": {
        "_hex": "0x10151b606c4"
      },
      "gasLimit": {
        "_hex": "0x15f90"
      },
      "to": "0x645B979F8ce622236DB26feB803455d40C328615",
      "value": {
        "_hex": "0x4b5a200376e0f80000"
      },
      "nonce": 34,
      "data": "0x",
      "r": "0x655928161aa3bd66fc8dacaecacd260d8baaa92846db432525f0525dd8202f5d",
      "s": "0x409ad750e19a57628017f28d1e540ccdec4174bbadce318990a495518602842a",
      "v": 27,
      "creates": null,
      "raw": "0xf86f2286010151b606c483015f9094645b979f8ce622236db26feb803455d40c328615894b5a200376e0f80000801ba0655928161aa3bd66fc8dacaecacd260d8baaa92846db432525f0525dd8202f5da0409ad750e19a57628017f28d1e540ccdec4174bbadce318990a495518602842a",
      "networkId": 0,
      "chainId": 0
    }
  ]
}