{
  "hash": "0xecca2393ffd776189f7573b7821b02426dfc457c05c4cf9410ae37ab8c4924bd",
  "parentHash": "0xb776ab4071f2b0efabf5142646fbcd60f0f5b5c372eb710b44d15360064e81d9",
  "number": 111930,
  "timestamp": 1439998877,
  "nonce": "0xa3381b23e32c1fed",
  "difficulty": 4402667562546,
  "gasLimit": {
    "_hex": "0x2fefd8"
  },
  "gasUsed": {
    "_hex": "0x5208"
  },
  "miner": "0x580992B51e3925e23280EfB93d3047C82f17E038",
  "extraData": "0x476574682f76312e302e312f6c696e75782f676f312e342e32",
  "transactions": [
    {
      "hash": "0x78696a99ec173280e08486e369e6682d71357e21f331bf3efef9e0f8f3be333d",
      "blockHash": "0xecca2393ffd776189f7573b7821b02426dfc457c05c4cf9410ae37ab8c4924bd",
      "blockNumber": 111930,
      "transactionIndex": 0,
      "confirmations": null,
      "from": "0xc15fa6D616245a5c7B7D75A6dFDcA10C0250BD2B",
      "gasPrice": {
        "_hex": "0xe0b793277"
      },
      "gasLimit": {
        "_hex": "0x15f90"
      },
      "to": "0xdeE4977F74E6Aef6D627191c9A45D2627e331150",
      "value": {
        "_hex": "0xd02ab486cedc0000"
      },
      "nonce": 17,
      "data": "0x",
      "r": "0x3dc49464f3bb57ecba6f186b3b93051ba2f63ba23bfb0f963f07318cd7529268",
      "s": "0x5ed42a545926c2fbfada975cb8cb436100241177d24ffd8e5ec2dfc049e98474",
      "v": 28,
      "creates": null,
      "raw": "0xf86d11850e0b79327783015f9094dee4977f74e6aef6d627191c9a45d2627e33115088d02ab486cedc0000801ca03dc49464f3bb57ecba6f186b3b93051ba2f63ba23bfb0f963f07318cd7529268a05ed42a545926c2fbfada975cb8cb436100241177d24ffd8e5ec2dfc049e98474",
      "networkId": 0,
      "chainId": 0
    }
  ]
}