{
  "hash": "0xf985b011075ac38cc970da1dfc0f405c3dea16e0fddd7f794a7ef54f774201dc",
  "parentHash": "0xa33715b752c8276067150a0c3314d0a32319e681ff12d28a61c33690b3c33dd5",
  "number": 54715,
  "timestamp": 1439058733,
  "nonce": "0xee0f30c777faf59a",
  "difficulty": 1620416874242,
  "gasLimit": {
    "_hex": "0x2fefd8"
  },
  "gasUsed": {
    "_hex": "0xa410"
  },
  "miner": "0x0A63E1A8C33e351679e3581AC84ce341C32f813a",
  "extraData": "0x476574682f76312e302e312d38326566323666362f6c696e75782f676f312e34",
  "transactions": [
    {
      "hash": "0x121c9d529cdfbf822a0b97cd8661ee75ac88562f83454869873d1294e2abe71e",
      "blockHash": "0xf985b011075ac38cc970da1dfc0f405c3dea16e0fddd7f794a7ef54f774201dc",
      "blockNumber": 54715,
      "transactionIndex": 0,
      "confirmations": null,
      "from": "0x3Ad06149b21C55Ff867cc3fb9740D2BCc7101231",
      "gasPrice": {
        "_hex": "0xde6d8a3e7"
      },
      "gasLimit": {
        "_hex": "0x15f90"
      },
      "to": "0x314c7Daa4825ffC0293819119c5FDCC0CcF19827",
      "value": {
        "_hex": "0xde0b6b3a7640000"
      },
      "nonce": 13,
      "data": "0x",
      "r": "0x62558e9e0cbe5a5d230876027443e7dd23737c1a0bb8819ef0fc2d90dbc6aaa3",
      "s": "0x3d607a81e1fb5a54e9b81b35e2a59eb3922eec2d9d0c5407d82008bd24c0475c",
      "v": 27,
      "creates": null,
      "raw": "0xf86d0d850de6d8a3e783015f9094314c7daa4825ffc0293819119c5fdcc0ccf19827880de0b6b3a7640000801ba062558e9e0cbe5a5d230876027443e7dd23737c1a0bb8819ef0fc2d90dbc6aaa3a03d607a81e1fb5a54e9b81b35e2a59eb3922eec2d9d0c5407d82008bd24c0475c",
      "networkId": 0,
      "chainId": 0
    },
    {
      "hash": "0x55098cfd2eda202ff4c9745075e17a7b7b7540650fd012e2e9d4002f2832eaba",
      "blockHash": "0xf985b011075ac38cc970da1dfc0f405c3dea16e0fddd7f794a7ef54f774201dc",
      "blockNumber": 54715,
      "transactionIndex": 1,
      "confirmations": null,
      "from": "0xD913f0771949753c4726ACAA2bD3619C5C20FF77",
      "gasPrice": {
        "_hex": "0xd58cae158"
      },
      "gasLimit": {
        "_hex": "0x15f90"
      },
      "to": "0x8F8741b77dd1833BC0Ee23D94Ef14920Cb9882B3",
      "value": {
        "_hex": "0x1dd0c885f9a0d80000"
      },
      "nonce": 3,
      "data": "0x",
      "r": "0x5e6cb5121e1458bdbd570664f1d80d53f944e0f3644c3c250ae1ecb9aad8370d",
      "s": "0x67cd8948e0ab47bb257489f10517fd9b6b5b4abbd5e4fdf78e9279cfe13b6986",
      "v": 28,
      "creates": null,
      "raw": "0xf86e03850d58cae15883015f90948f8741b77dd1833bc0ee23d94ef14920cb9882b3891dd0c885f9a0d80000801ca05e6cb5121e1458bdbd570664f1d80d53f944e0f3644c3c250ae1ecb9aad8370da067cd8948e0ab47bb257489f10517fd9b6b5b4abbd5e4fdf78e9279cfe13b6986",
      "networkId": 0,
      "chainId": 0
    }
  ]
}