{
  "hash": "0x6a9ce05cc036de00c83f3bbc48af4dce0886a04b5f8353b2975de6343e0b0a49",
  "parentHash": "0xda09caf613fac95204701fd95edca017b8370525ed0b31bfc2df2f6bf5cb64d5",
  "number": 121912,
  "timestamp": 1440184803,
  "nonce": "0x531f33a2d04d71f8",
  "difficulty": 4479786383966,
  "gasLimit": {
    "_hex": "0x2fefd8"
  },
  "gasUsed": {
    "_hex": "0x23e38"
  },
  "miner": "0x52bc44d5378309EE2abF1539BF71dE1b7d7bE3b5",
  "extraData": "0xd783010002844765746887676f312e342e32856c696e7578",
  "transactions": [
    {
      "hash": "0x996edc5247747aa2e71aee8270ab1a57430ecb6ddecc816a6796de727370e38d",
      "blockHash": "0x6a9ce05cc036de00c83f3bbc48af4dce0886a04b5f8353b2975de6343e0b0a49",
      "blockNumber": 121912,
      "transactionIndex": 0,
      "confirmations": null,
      "from": "0xDdaCBcba2a4fe9313F7CCA044872A9c51bD1E4c8",
      "gasPrice": {
        "_hex": "0xd0c16d1f2"
      },
      "gasLimit": {
        "_hex": "0x5208"
      },
      "to": "0x32Be343B94f860124dC4fEe278FDCBD38C102D88",
      "value": {
        "_hex": "0x287eac0ce721d800"
      },
      "nonce": 9,
      "data": "0x",
      "r": "0xee614b43e49b82191279cfdaadc9298046fbf2586a7b6f7ceda7193347c1d701",
      "s": "0x01e30eb564e1aaa68fb41266c227fa9ff02c249da112c6ec80627f4e04893ad9",
      "v": 27,
      "creates": null,
      "raw": "0xf86c09850d0c16d1f28252089432be343b94f860124dc4fee278fdcbd38c102d8888287eac0ce721d800801ba0ee614b43e49b82191279cfdaadc9298046fbf2586a7b6f7ceda7193347c1d701a001e30eb564e1aaa68fb41266c227fa9ff02c249da112c6ec80627f4e04893ad9",
      "networkId": 0,
      "chainId": 0
    },
    {
      "hash": "0xf401a31c0a19a8d538d2f3b3b2d1bbd231aee4e8da6fb4224bd7310eb2add517",
      "blockHash": "0x6a9ce05cc036de00c83f3bbc48af4dce0886a04b5f8353b2975de6343e0b0a49",
      "blockNumber": 121912,
      "transactionIndex": 1,
      "confirmations": null,
      "from": "0xc08E05f51581aDA37f9DD2edbF7a68fE7E199D55",
      "gasPrice": {
        "_hex": "0xd0c16d1f2"
      },
      "gasLimit": {
        "_hex": "0x5208"
      },
      "to": "0x32Be343B94f860124dC4fEe278FDCBD38C102D88",
      "value": {
        "_hex": "0x68b301f213b42800"
      },
      "nonce": 9,
      "data": "0x",
      "r": "0xe48851f9cd2ea9c1fa5a781b34a8b5d117996f681bf2d5525c6522ef4a8d21a8",
      "s": "0x562d5c47c583fff1c0db0575358517a754bb90f3ae3efcf3272322d934534232",
      "v": 28,
      "creates": null,
      "raw": "0xf86c09850d0c16d1f28252089432be343b94f860124dc4fee278fdcbd38c102d888868b301f213b42800801ca0e48851f9cd2ea9c1fa5a781b34a8b5d117996f681bf2d5525c6522ef4a8d21a8a0562d5c47c583fff1c0db0575358517a754bb90f3ae3efcf3272322d934534232",
      "networkId": 0,
      "chainId": 0
    },
    {
      "hash": "0x09dc3d8ea050736c86e4838517321268a6209b045ed4df961e7b44587187b012",
      "blockHash": "0x6a9ce05cc036de00c83f3bbc48af4dce0886a04b5f8353b2975de6343e0b0a49",
      "blockNumber": 121912,
      "transactionIndex": 2,
      "confirmations": null,
      "from": "0x4D67f4F0Db45b3B5a3424B39ed8d972F710381D5",
      "gasPrice": {
        "_hex": "0xd0c16d1f2"
      },
      "gasLimit": {
        "_hex": "0x5208"
      },
      "to": "0x32Be343B94f860124dC4fEe278FDCBD38C102D88",
      "value": {
        "_hex": "0x2d03da8bcdcd92000"
      },
      "nonce": 65,
      "data": "0x",
      "r": "0xfcb9f9694718b39c4a1514f4afaf955abe9d5df508005641b809d899d872f182",
      "s": "0x3f5a1b318ab3f95836e276963d3c49c42a09eb90a5b17ff133c386d1399630cb",
      "v": 28,
      "creates": null,
      "raw": "0xf86d41850d0c16d1f28252089432be343b94f860124dc4fee278fdcbd38c102d888902d03da8bcdcd92000801ca0fcb9f9694718b39c4a1514f4afaf955abe9d5df508005641b809d899d872f182a03f5a1b318ab3f95836e276963d3c49c42a09eb90a5b17ff133c386d1399630cb",
      "networkId": 0,
      "chainId": 0
    },
    {
      "hash": "0xc98b057684c3bf63642471a52cb30d2a4ba855d865aa6e7148d232d7ac298a57",
      "blockHash": "0x6a9ce05cc036de00c83f3bbc48af4dce0886a04b5f8353b2975de6343e0b0a49",
      "blockNumber": 121912,
      "transactionIndex": 3,
      "confirmations": null,
      "from": "0xb2e4017063376d7eb1a72d91EC8Ff38712ffebdF",
      "gasPrice": {
        "_hex": "0xd0c16d1f2"
      },
      "gasLimit": {
        "_hex": "0x5208"
      },
      "to": "0x32Be343B94f860124dC4fEe278FDCBD38C102D88",
      "value": {
        "_hex": "0x68edf378e5aee400"
      },
      "nonce": 6,
      "data": "0x",
      "r": "0x2c43d2f2cf2256e1fafe7f5d56d0c17ab2d80496c356969912b35d6380509efa",
      "s": "0x7ca7e48ce69a63d123b40fd4cc7c1cea64790a642703d8ce3abea1e666a8b6ae",
      "v": 27,
      "creates": null,
      "raw": "0xf86c06850d0c16d1f28252089432be343b94f860124dc4fee278fdcbd38c102d888868edf378e5aee400801ba02c43d2f2cf2256e1fafe7f5d56d0c17ab2d80496c356969912b35d6380509efaa07ca7e48ce69a63d123b40fd4cc7c1cea64790a642703d8ce3abea1e666a8b6ae",
      "networkId": 0,
      "chainId": 0
    },
    {
      "hash": "0xa145c95416a608c238eeef0f8b54458d4c540160974e22c866c09ad1d774e767",
      "blockHash": "0x6a9ce05cc036de00c83f3bbc48af4dce0886a04b5f8353b2975de6343e0b0a49",
      "blockNumber": 121912,
      "transactionIndex": 4,
      "confirmations": null,
      "from": "0xA270859a7dD7bEF18258BDE4b85Dd3691FdE277D",
      "gasPrice": {
        "_hex": "0xd0c16d1f2"
      },
      "gasLimit": {
        "_hex": "0x5208"
      },
      "to": "0x32Be343B94f860124dC4fEe278FDCBD38C102D88",
      "value": {
        "_hex": "0x5f503f3553197400"
      },
      "nonce": 9,
      "data": "0x",
      "r": "0xcebb7859c1c8134da7573c92c9eb12ae33fad6f7dd1ae736792c53ca1c570190",
      "s": "0x02e19cc68d7cdef05320eb8f295d9481fa3b88c35ca8bf6b46c58cee98c448be",
      "v": 27,
      "creates": null,
      "raw": "0xf86c09850d0c16d1f28252089432be343b94f860124dc4fee278fdcbd38c102d88885f503f3553197400801ba0cebb7859c1c8134da7573c92c9eb12ae33fad6f7dd1ae736792c53ca1c570190a002e19cc68d7cdef05320eb8f295d9481fa3b88c35ca8bf6b46c58cee98c448be",
      "networkId": 0,
      "chainId": 0
    },
    {
      "hash": "0x6de540088090a01ca481308bcfe0fdbf83bde46ae66f9a385e5ff9097fd7fd42",
      "blockHash": "0x6a9ce05cc036de00c83f3bbc48af4dce0886a04b5f8353b2975de6343e0b0a49",
      "blockNumber": 121912,
      "transactionIndex": 5,
      "confirmations": null,
      "from": "0xdCe26B66eabfB4dE900E4944DcC2FA2d455021fc",
      "gasPrice": {
        "_hex": "0xd0c16d1f2"
      },
      "gasLimit": {
        "_hex": "0x5208"
      },
      "to": "0x32Be343B94f860124dC4fEe278FDCBD38C102D88",
      "value": {
        "_hex": "0x17f0282a6f10a800"
      },
      "nonce": 7,
      "data": "0x",
      "r": "0x6f46c2a9bf368648f9848519615be0cbe4116c2037bf044ac2110288b8d75e05",
      "s": "0x5f1f55f29d187377a6b873c704f1573d043b39890ba4c43b3ac28ab7da91d5ce",
      "v": 27,
      "creates": null,
      "raw": "0xf86c07850d0c16d1f28252089432be343b94f860124dc4fee278fdcbd38c102d888817f0282a6f10a800801ba06f46c2a9bf368648f9848519615be0cbe4116c2037bf044ac2110288b8d75e05a05f1f55f29d187377a6b873c704f1573d043b39890ba4c43b3ac28ab7da91d5ce",
      "networkId": 0,
      "chainId": 0
    },
    {
      "hash": "0x0f8952c6d343fd19863448f63473230fdf47ca4c2db377d67901c3e3c3a20f41",
      "blockHash": "0x6a9ce05cc036de00c83f3bbc48af4dce0886a04b5f8353b2975de6343e0b0a49",
      "blockNumber": 121912,
      "transactionIndex": 6,
      "confirmations": null,
      "from": "0x7C197542A77e913547d2E58e8d3c6F224f6f0f98",
      "gasPrice": {
        "_hex": "0xd0c16d1f2"
      },
      "gasLimit": {
        "_hex": "0x5208"
      },
      "to": "0x32Be343B94f860124dC4fEe278FDCBD38C102D88",
      "value": {
        "_hex": "0x52d05b01e7535400"
      },
      "nonce": 9,
      "data": "0x",
      "r": "0x94437333e1930e6ff43c8231b41a74c26616a0514de26d625f9d36f7c918de88",
      "s": "0x5b8f1bd9bbd38aaa8ea305e4e10a4a1aa6fbc738f011027b828e3f4b191b4a79",
      "v": 28,
      "creates": null,
      "raw": "0xf86c09850d0c16d1f28252089432be343b94f860124dc4fee278fdcbd38c102d888852d05b01e7535400801ca094437333e1930e6ff43c8231b41a74c26616a0514de26d625f9d36f7c918de88a05b8f1bd9bbd38aaa8ea305e4e10a4a1aa6fbc738f011027b828e3f4b191b4a79",
      "networkId": 0,
      "chainId": 0
    }
  ]
}