{
  "hash": "0x5834d3711f0d8ba48b8c4dc345928b2c00b1907974c28613813c99ea7dc76c8c",
  "parentHash": "0xc9f7acb19f23416ae6bf103b5425680a680c1559fe9eda5be1614bc26ba4c044",
  "number": 86036,
  "timestamp": 1439572546,
  "nonce": "0x53741e7d7515ff7a",
  "difficulty": 2790757364494,
  "gasLimit": {
    "_hex": "0x2fefd8"
  },
  "gasUsed": {
    "_hex": "0xce30"
  },
  "miner": "0xe6A7a1d47ff21B6321162AEA7C6CB457D5476Bca",
  "extraData": "0x476574682f76312e302e312d38326566323666362f6c696e75782f676f312e34",
  "transactions": [
    {
      "hash": "0xe589035973d6fa8fceb858c01c34486b1893772331a98e8d744ab541c205f74b",
      "blockHash": "0x5834d3711f0d8ba48b8c4dc345928b2c00b1907974c28613813c99ea7dc76c8c",
      "blockNumber": 86036,
      "transactionIndex": 0,
      "confirmations": null,
      "from": "0x2910543Af39abA0Cd09dBb2D50200b3E800A63D2",
      "gasPrice": {
        "_hex": "0xdf171a06f"
      },
      "gasLimit": {
        "_hex": "0x5208"
      },
      "to": "0xE7131478905e2D44b9D10DED756F43eBD4460Fcc",
      "value": {
        "_hex": "0x1b1ad31369b76f8000"
      },
      "nonce": 637,
      "data": "0x",
      "r": "0xe867d581cfe66bf7bcf60bc3ad1e960cf40093c4747bf267775449973a8bdc3d",
      "s": "0x59e55cc0cf8d25589f93b9636f15e1dc1e823e600401e865cb481f27d900eaae",
      "v": 28,
      "creates": null,
      "raw": "0xf86f82027d850df171a06f82520894e7131478905e2d44b9d10ded756f43ebd4460fcc891b1ad31369b76f8000801ca0e867d581cfe66bf7bcf60bc3ad1e960cf40093c4747bf267775449973a8bdc3da059e55cc0cf8d25589f93b9636f15e1dc1e823e600401e865cb481f27d900eaae",
      "networkId": 0,
      "chainId": 0
    },
    {
      "hash": "0xa980076329fb18caff4c16e1a16c1db285d31cd164abba1129ea27e092f5b7c5",
      "blockHash": "0x5834d3711f0d8ba48b8c4dc345928b2c00b1907974c28613813c99ea7dc76c8c",
      "blockNumber": 86036,
      "transactionIndex": 1,
      "confirmations": null,
      "from": "0xF3556D9e6c10bEB96402c9Eb90bbf221895bA06c",
      "gasPrice": {
        "_hex": "0xdb68a04e9"
      },
      "gasLimit": {
        "_hex": "0x15f90"
      },
      "to": "0x463eADDDA71F29F36365F889EA7E6fcDBe1cF0c8",
      "value": {
        "_hex": "0x4563918244f40000"
      },
      "nonce": 1,
      "data": "0x",
      "r": "0x4413399be5329c3e44258ef100b40d2432e578c596bd7a6200aeaaef8238cf75",
      "s": "0x18e59fa1fd7f3b5d07d196fffc70a1fb29542eb2b2ba916ce536cfc867fb6bf6",
      "v": 28,
      "creates": null,
      "raw": "0xf86d01850db68a04e983015f9094463eaddda71f29f36365f889ea7e6fcdbe1cf0c8884563918244f40000801ca04413399be5329c3e44258ef100b40d2432e578c596bd7a6200aeaaef8238cf75a018e59fa1fd7f3b5d07d196fffc70a1fb29542eb2b2ba916ce536cfc867fb6bf6",
      "networkId": 0,
      "chainId": 0
    },
    {
      "hash": "0x444b359dd29ca4b41a2ede018f259463eee280dab3d1f2bfac5cacd18134d7fd",
      "blockHash": "0x5834d3711f0d8ba48b8c4dc345928b2c00b1907974c28613813c99ea7dc76c8c",
      "blockNumber": 86036,
      "transactionIndex": 2,
      "confirmations": null,
      "from": "0x76Df61770A702069FE1381EAE55AD11A03dEcA93",
      "gasPrice": {
        "_hex": "0xd54deaaff"
      },
      "gasLimit": {
        "_hex": "0x15f90"
      },
      "to": "0xE40337cf3eeDe621947697795AeAB9AaCC1A23f8",
      "value": {
        "_hex": "0x0"
      },
      "nonce": 5,
      "data": "0x41c0e1b5",
      "r": "0x858db5d7be06473a97eb46977d3a3305fbf30458026d9bb6b1e04e346b04f45b",
      "s": "0x2440ee7637500106def8f250eb764d0bbf94d761585fc69298e054a80ae95bb3",
      "v": 27,
      "creates": null,
      "raw": "0xf86905850d54deaaff83015f9094e40337cf3eede621947697795aeab9aacc1a23f8808441c0e1b51ba0858db5d7be06473a97eb46977d3a3305fbf30458026d9bb6b1e04e346b04f45ba02440ee7637500106def8f250eb764d0bbf94d761585fc69298e054a80ae95bb3",
      "networkId": 0,
      "chainId": 0
    }
  ]
}