{
  "hash": "0x6c480938ae6c7e60ae8d784951f6af84bdf1721e0ee1ad06a597daacee4469fa",
  "parentHash": "0x5e0839c640961afe7c6bda989f4a5712aa546b0b5caf52cc6d0ac6b10344359e",
  "number": 58519,
  "timestamp": 1439122094,
  "nonce": "0x008262cd55ee6c2f",
  "difficulty": 1709055562794,
  "gasLimit": {
    "_hex": "0x2fefd8"
  },
  "gasUsed": {
    "_hex": "0x5208"
  },
  "miner": "0xbb7B8287f3F0a933474a79eAe42CBCa977791171",
  "extraData": "0x476574682f4c5649562f76312e302e312f6c696e75782f676f312e342e32",
  "transactions": [
    {
      "hash": "0x41600ce9338cc6d2bd74e8665e91fe12b363d51d3c432050c51d48c9fd61df4e",
      "blockHash": "0x6c480938ae6c7e60ae8d784951f6af84bdf1721e0ee1ad06a597daacee4469fa",
      "blockNumber": 58519,
      "transactionIndex": 0,
      "confirmations": null,
      "from": "0xE8FBEb49c2590120e3a5A34048a725742Bd1a37c",
      "gasPrice": {
        "_hex": "0xd8afc1d97"
      },
      "gasLimit": {
        "_hex": "0x15f90"
      },
      "to": "0xc92E31060EB45EFFdb9a3e383ea00f7Ebd0B8FBc",
      "value": {
        "_hex": "0x8ac7230489e80000"
      },
      "nonce": 3,
      "data": "0x",
      "r": "0x0b03e6b475b7090b9716afa2060d9df3b5f2a09fe5fa66ad8bd17297b3a5886e",
      "s": "0x4dd00c32ccc075b095b8e6fcb0b6b1f922c7d403f69b0ed81800c5840376e042",
      "v": 28,
      "creates": null,
      "raw": "0xf86d03850d8afc1d9783015f9094c92e31060eb45effdb9a3e383ea00f7ebd0b8fbc888ac7230489e80000801ca00b03e6b475b7090b9716afa2060d9df3b5f2a09fe5fa66ad8bd17297b3a5886ea04dd00c32ccc075b095b8e6fcb0b6b1f922c7d403f69b0ed81800c5840376e042",
      "networkId": 0,
      "chainId": 0
    }
  ]
}