{
  "hash": "0x91f7a3b3e08af670fcec1e6ce92565468d2e15941dc470fc3473897c45c6d377",
  "parentHash": "0x48a8e998a57706677a39710d3e5b4efe009e8d4f395d6fa9a276346c2fecdf3d",
  "number": 82604,
  "timestamp": 1439522108,
  "nonce": "0x20f045567829c569",
  "difficulty": 2367141399457,
  "gasLimit": {
    "_hex": "0x2fefd8"
  },
  "gasUsed": {
    "_hex": "0xa410"
  },
  "miner": "0xe6A7a1d47ff21B6321162AEA7C6CB457D5476Bca",
  "extraData": "0x476574682f76312e302e312d38326566323666362f6c696e75782f676f312e34",
  "transactions": [
    {
      "hash": "0x4c4b4f793c20c0a1e5ff704de99c7fb6ac99707aea4c1fdff8efff4ceb057fe9",
      "blockHash": "0x91f7a3b3e08af670fcec1e6ce92565468d2e15941dc470fc3473897c45c6d377",
      "blockNumber": 82604,
      "transactionIndex": 0,
      "confirmations": null,
      "from": "0x61264E7C3EFE9bF95076404CD19b26D309111c77",
      "gasPrice": {
        "_hex": "0x11411c1a95d"
      },
      "gasLimit": {
        "_hex": "0x15f90"
      },
      "to": "0xB2Ee3409b1f48d7d8D75B40568D7b5E68A4fb284",
      "value": {
        "_hex": "0x4e1003b28d9280000"
      },
      "nonce": 1,
      "data": "0x",
      "r": "0x0f30f149cd1dac56197a3860c0c64fb4a350d889181daab033cda3942021963c",
      "s": "0x59897c2ee83a37b83570b3777c008c4ff535e9b189b6aa231321130614befa1d",
      "v": 28,
      "creates": null,
      "raw": "0xf86f0186011411c1a95d83015f9094b2ee3409b1f48d7d8d75b40568d7b5e68a4fb2848904e1003b28d9280000801ca00f30f149cd1dac56197a3860c0c64fb4a350d889181daab033cda3942021963ca059897c2ee83a37b83570b3777c008c4ff535e9b189b6aa231321130614befa1d",
      "networkId": 0,
      "chainId": 0
    },
    {
      "hash": "0x11621e6c5373498554b94c45fc354612a1812e29b37142bf100f308429b00606",
      "blockHash": "0x91f7a3b3e08af670fcec1e6ce92565468d2e15941dc470fc3473897c45c6d377",
      "blockNumber": 82604,
      "transactionIndex": 1,
      "confirmations": null,
      "from": "0x59b7ee394b4F4EED8494C7920103D7e7e7E2BFF4",
      "gasPrice": {
        "_hex": "0xba43b7400"
      },
      "gasLimit": {
        "_hex": "0x5b04"
      },
      "to": "0xd72156c6AE3550E4BdCeF828812B7C95aF027f5B",
      "value": {
        "_hex": "0xde0b6b3a7640000"
      },
      "nonce": 0,
      "data": "0x",
      "r": "0x50dcb85c90b72d1d9eddf2bf433212b6330ffca9ecc162f5e27faf3c99bd5b78",
      "s": "0xdc7d3ac87d20aa81663a0d061ccf21cbfb7d939052bc8a58ff0cfdbf4a77f215",
      "v": 28,
      "creates": null,
      "raw": "0xf86c80850ba43b7400825b0494d72156c6ae3550e4bdcef828812b7c95af027f5b880de0b6b3a7640000801ca050dcb85c90b72d1d9eddf2bf433212b6330ffca9ecc162f5e27faf3c99bd5b78a0dc7d3ac87d20aa81663a0d061ccf21cbfb7d939052bc8a58ff0cfdbf4a77f215",
      "networkId": 0,
      "chainId": 0
    }
  ]
}