{
  "hash": "0x5b5836261ddd3142f3330387da1ee7fe89b42d7e6666c504a53e0ccc99371250",
  "parentHash": "0xf26a02333b1d8669338061129e936770b6ab29db3ae8f8166b1725aaf6c84a2c",
  "number": 80104,
  "timestamp": 1439480322,
  "nonce": "0x03151db84fba159c",
  "difficulty": 2342547240182,
  "gasLimit": {
    "_hex": "0x2fefd8"
  },
  "gasUsed": {
    "_hex": "0x546c"
  },
  "miner": "0x458F183347F45a4001807728A89F31E9Da9D4A58",
  "extraData": "0x476574682f76312e302e312d38326566323666362f6c696e75782f676f312e34",
  "transactions": [
    {
      "hash": "0xadd95803b91f40c06de8b2edc5624ff8c076241173a7bd8803c3d891a63d5dcc",
      "blockHash": "0x5b5836261ddd3142f3330387da1ee7fe89b42d7e6666c504a53e0ccc99371250",
      "blockNumber": 80104,
      "transactionIndex": 0,
      "confirmations": null,
      "from": "0xf20C9a99b74759d782F25c1cEcA802a27E0b436c",
      "gasPrice": {
        "_hex": "0x110c8f7d8de"
      },
      "gasLimit": {
        "_hex": "0xc350"
      },
      "to": "0x2910543Af39abA0Cd09dBb2D50200b3E800A63D2",
      "value": {
        "_hex": "0xbcbce7f1b150000"
      },
      "nonce": 2,
      "data": "0x454e415a5a56355747",
      "r": "0xff62de467d57f3450b2fa2e98a706caa8f12c61bd03870513c91b2a75d4e6ea7",
      "s": "0x9a3cbeb72d2c7f0d902ceb30260b7b8b472b68d5a0bdfed5b0f77edcec4960eb",
      "v": 27,
      "creates": null,
      "raw": "0xf87602860110c8f7d8de82c350942910543af39aba0cd09dbb2d50200b3e800a63d2880bcbce7f1b15000089454e415a5a563557471ba0ff62de467d57f3450b2fa2e98a706caa8f12c61bd03870513c91b2a75d4e6ea7a09a3cbeb72d2c7f0d902ceb30260b7b8b472b68d5a0bdfed5b0f77edcec4960eb",
      "networkId": 0,
      "chainId": 0
    }
  ]
}