{
  "hash": "0x5be622dcd0462c17392a7776df71017ff67b8bdc0f1919c476e1f08b139f1d35",
  "parentHash": "0xcebe4e62b1b08c69d991ec2512636182c1ccc191aa878229bbe5f721aac2ff82",
  "number": 121938,
  "timestamp": 1440185183,
  "nonce": "0xa49d29e0d7932c1d",
  "difficulty": 4479772499151,
  "gasLimit": {
    "_hex": "0x2fefd8"
  },
  "gasUsed": {
    "_hex": "0xf618"
  },
  "miner": "0xe6A7a1d47ff21B6321162AEA7C6CB457D5476Bca",
  "extraData": "0xd783010002844765746887676f312e342e32856c696e7578",
  "transactions": [
    {
      "hash": "0x3ab62f0fd8bf1b3dffe6fb3d67f6e612a018d3011fc3f15827d56a55387fdcdd",
      "blockHash": "0x5be622dcd0462c17392a7776df71017ff67b8bdc0f1919c476e1f08b139f1d35",
      "blockNumber": 121938,
      "transactionIndex": 0,
      "confirmations": null,
      "from": "0xFa9F15F96E3244897308A95163a62861685e8917",
      "gasPrice": {
        "_hex": "0xdcfddf4d3"
      },
      "gasLimit": {
        "_hex": "0x5208"
      },
      "to": "0x32Be343B94f860124dC4fEe278FDCBD38C102D88",
      "value": {
        "_hex": "0x45287c6b0b1934000"
      },
      "nonce": 8,
      "data": "0x",
      "r": "0x19202d28ca1c37f054a275f5b469ccf0f4ab2a3c5b173b70675e68fb74e3bcd4",
      "s": "0x508e0bd4ba3761903a0df7138e6f498576f537ef0d73c7f903b93307bef39322",
      "v": 28,
      "creates": null,
      "raw": "0xf86d08850dcfddf4d38252089432be343b94f860124dc4fee278fdcbd38c102d8889045287c6b0b1934000801ca019202d28ca1c37f054a275f5b469ccf0f4ab2a3c5b173b70675e68fb74e3bcd4a0508e0bd4ba3761903a0df7138e6f498576f537ef0d73c7f903b93307bef39322",
      "networkId": 0,
      "chainId": 0
    },
    {
      "hash": "0x4fc2d8e80871643087e287cbbd49efcbda1f71043015074ec44e5e90a1c71620",
      "blockHash": "0x5be622dcd0462c17392a7776df71017ff67b8bdc0f1919c476e1f08b139f1d35",
      "blockNumber": 121938,
      "transactionIndex": 1,
      "confirmations": null,
      "from": "0xBa9CF76D809cF9f2e3f180AFb33f0adb0826D7DF",
      "gasPrice": {
        "_hex": "0xdcfddf4d3"
      },
      "gasLimit": {
        "_hex": "0x5208"
      },
      "to": "0x32Be343B94f860124dC4fEe278FDCBD38C102D88",
      "value": {
        "_hex": "0x10dedf07271400000"
      },
      "nonce": 10,
      "data": "0x",
      "r": "0x84aec4993f9679901c26b0b6924ba27a4c69c070a4dd8e0babbf524dd764d3ca",
      "s": "0x0a616c3bc5ce0bde28283b45a915338fea986e62206c15437be6bacacf7b1635",
      "v": 27,
      "creates": null,
      "raw": "0xf86d0a850dcfddf4d38252089432be343b94f860124dc4fee278fdcbd38c102d8889010dedf07271400000801ba084aec4993f9679901c26b0b6924ba27a4c69c070a4dd8e0babbf524dd764d3caa00a616c3bc5ce0bde28283b45a915338fea986e62206c15437be6bacacf7b1635",
      "networkId": 0,
      "chainId": 0
    },
    {
      "hash": "0x7158471c42cbf6530c850254935bdae12b8540c3508db98f9c75ae384f3b60cb",
      "blockHash": "0x5be622dcd0462c17392a7776df71017ff67b8bdc0f1919c476e1f08b139f1d35",
      "blockNumber": 121938,
      "transactionIndex": 2,
      "confirmations": null,
      "from": "0x2533B90f7afF15196EaA7e4719E057c85dEF3A47",
      "gasPrice": {
        "_hex": "0xdcfddf4d3"
      },
      "gasLimit": {
        "_hex": "0x5208"
      },
      "to": "0x32Be343B94f860124dC4fEe278FDCBD38C102D88",
      "value": {
        "_hex": "0x11c56ad6d5d7a8000"
      },
      "nonce": 9,
      "data": "0x",
      "r": "0xd9ee8e2a97f7af8ae1f443f8f1c7df89e6161007d50c010507e743e14aecbcbc",
      "s": "0x7a35f773fcc6d75fc9edf57e29e45f68879db050c8a7962401d0022c380bc9d9",
      "v": 28,
      "creates": null,
      "raw": "0xf86d09850dcfddf4d38252089432be343b94f860124dc4fee278fdcbd38c102d8889011c56ad6d5d7a8000801ca0d9ee8e2a97f7af8ae1f443f8f1c7df89e6161007d50c010507e743e14aecbcbca07a35f773fcc6d75fc9edf57e29e45f68879db050c8a7962401d0022c380bc9d9",
      "networkId": 0,
      "chainId": 0
    }
  ]
}