{
  "hash": "0x0a5bd35594e93db90773db65c4a3306c54fb4923a6c4a3c33baea8aa2eb49280",
  "parentHash": "0x9ec45da09b78d82af51aaca688ef3977360ac9b33097980814f941faf315849d",
  "number": 48863,
  "timestamp": 1438964255,
  "nonce": "0xb250ef8cd8b79159",
  "difficulty": 1473555114366,
  "gasLimit": {
    "_hex": "0x1fd59"
  },
  "gasUsed": {
    "_hex": "0xa410"
  },
  "miner": "0xf927a40C8B7F6E07c5af7FA2155B4864a4112B13",
  "extraData": "0x476574682f76312e302e312f6c696e75782f676f312e342e32",
  "transactions": [
    {
      "hash": "0x7daf2a2e862975dac0510a1eac1d79314d8d719f16bf4d24516bb90c3aac1b3e",
      "blockHash": "0x0a5bd35594e93db90773db65c4a3306c54fb4923a6c4a3c33baea8aa2eb49280",
      "blockNumber": 48863,
      "transactionIndex": 0,
      "confirmations": null,
      "from": "0xd54F0a1c743C432d7af0Db15C2D87F483b52439B",
      "gasPrice": {
        "_hex": "0xce467044b"
      },
      "gasLimit": {
        "_hex": "0x15f90"
      },
      "to": "0xb0F5B511c4a660A26Df485CD5110c7dcdb20918c",
      "value": {
        "_hex": "0x4563918244f40000"
      },
      "nonce": 3,
      "data": "0x",
      "r": "0xc250938bb6e461e9993dc9f98cc9022bca16585e1e202892c1810f4511524103",
      "s": "0x4184b1245a86663e6c39363cb3fe32bd5ac29a1920b20aa5f030ec12469197f2",
      "v": 27,
      "creates": null,
      "raw": "0xf86d03850ce467044b83015f9094b0f5b511c4a660a26df485cd5110c7dcdb20918c884563918244f40000801ba0c250938bb6e461e9993dc9f98cc9022bca16585e1e202892c1810f4511524103a04184b1245a86663e6c39363cb3fe32bd5ac29a1920b20aa5f030ec12469197f2",
      "networkId": 0,
      "chainId": 0
    },
    {
      "hash": "0x91ab6c2975e0232f4202f8985a82cfa9ba413f2a9aeb79ef7f9d19df64935bf7",
      "blockHash": "0x0a5bd35594e93db90773db65c4a3306c54fb4923a6c4a3c33baea8aa2eb49280",
      "blockNumber": 48863,
      "transactionIndex": 1,
      "confirmations": null,
      "from": "0xd54F0a1c743C432d7af0Db15C2D87F483b52439B",
      "gasPrice": {
        "_hex": "0xce467044b"
      },
      "gasLimit": {
        "_hex": "0x15f90"
      },
      "to": "0xb0F5B511c4a660A26Df485CD5110c7dcdb20918c",
      "value": {
        "_hex": "0x4563918244f40000"
      },
      "nonce": 4,
      "data": "0x",
      "r": "0xdef4108105e07ef9e9b80f0338925814d12419f269e0663180934fdb4f37fea9",
      "s": "0x34bfea53e43e6da69f355a7626fff5e43c504b6b0f984367d7580ffe82971992",
      "v": 27,
      "creates": null,
      "raw": "0xf86d04850ce467044b83015f9094b0f5b511c4a660a26df485cd5110c7dcdb20918c884563918244f40000801ba0def4108105e07ef9e9b80f0338925814d12419f269e0663180934fdb4f37fea9a034bfea53e43e6da69f355a7626fff5e43c504b6b0f984367d7580ffe82971992",
      "networkId": 0,
      "chainId": 0
    }
  ]
}