{
  "hash": "0xf42813ede34da330cc392bbf3c4f1f91cb38dad85c09f3286d57c5af768619bc",
  "parentHash": "0x00f5d046b62296f1780e732302eb2eb3d16b5f68b7b7f2f08fc090bca0c690f6",
  "number": 67313,
  "timestamp": 1439269869,
  "nonce": "0x8df872edb2b9b095",
  "difficulty": 1925161356603,
  "gasLimit": {
    "_hex": "0x2fefd8"
  },
  "gasUsed": {
    "_hex": "0x5208"
  },
  "miner": "0xf927a40C8B7F6E07c5af7FA2155B4864a4112B13",
  "extraData": "0x",
  "transactions": [
    {
      "hash": "0x1c6391349cd5a71692c72685b801a5049d3c706d53c539cf9098f5ed28979fe5",
      "blockHash": "0xf42813ede34da330cc392bbf3c4f1f91cb38dad85c09f3286d57c5af768619bc",
      "blockNumber": 67313,
      "transactionIndex": 0,
      "confirmations": null,
      "from": "0x4b0424c09BaC4Ee3f4376f1D3fA354E8Cb2D3171",
      "gasPrice": {
        "_hex": "0xce962d5be"
      },
      "gasLimit": {
        "_hex": "0x15f90"
      },
      "to": "0x34d34F0a638F6991e4E2536F41295DF6E934A646",
      "value": {
        "_hex": "0xde04944ce9d1c5f"
      },
      "nonce": 1,
      "data": "0x",
      "r": "0x8ba510306dde83dad829ba06029d3c7ec0b327a1f645fca6ef81d6a28204367a",
      "s": "0x00fe4c1f4a71244f0dab559ef48174e6e5b441bab1a28974bf72ffd5ece09c14",
      "v": 28,
      "creates": null,
      "raw": "0xf86c01850ce962d5be83015f909434d34f0a638f6991e4e2536f41295df6e934a646880de04944ce9d1c5f801ca08ba510306dde83dad829ba06029d3c7ec0b327a1f645fca6ef81d6a28204367a9ffe4c1f4a71244f0dab559ef48174e6e5b441bab1a28974bf72ffd5ece09c14",
      "networkId": 0,
      "chainId": 0
    }
  ]
}