{
  "hash": "0x947adb0d65503c89cc82d9162e3dee375c2c591ded7d1adccc1d89f78cef5307",
  "parentHash": "0x0fbc7784b37c4f557d9a65c8b698c00b03545d5493b6e2c604df8eb9240fc888",
  "number": 106262,
  "timestamp": 1439901320,
  "nonce": "0x58600f352d70ec29",
  "difficulty": 4475022148078,
  "gasLimit": {
    "_hex": "0x2fefd8"
  },
  "gasUsed": {
    "_hex": "0x5208"
  },
  "miner": "0x35e8e5dC5FBd97c5b421A80B596C030a2Be2A04D",
  "extraData": "0x476574682f76312e302e312f6c696e75782f676f312e342e32",
  "transactions": [
    {
      "hash": "0x2f5ad549b5e86702fef3875a5add682f923bb614e95e7dbce9f6095b095b1b67",
      "blockHash": "0x947adb0d65503c89cc82d9162e3dee375c2c591ded7d1adccc1d89f78cef5307",
      "blockNumber": 106262,
      "transactionIndex": 0,
      "confirmations": null,
      "from": "0xC3fe64D1af00F0d9c324E4387EF7533f7D788e95",
      "gasPrice": {
        "_hex": "0xcd4e97665"
      },
      "gasLimit": {
        "_hex": "0x5208"
      },
      "to": "0x32Be343B94f860124dC4fEe278FDCBD38C102D88",
      "value": {
        "_hex": "0x1a317cd779e7de000"
      },
      "nonce": 15,
      "data": "0x",
      "r": "0xfada34cadc088d59b386806bed25e9729e0aa9614cc7490a861d4568ec3c554e",
      "s": "0x10570c4c7081187f5f4dd53dbf4a00b31ea10de68e04faa17ff07b51ab298a8d",
      "v": 27,
      "creates": null,
      "raw": "0xf86d0f850cd4e976658252089432be343b94f860124dc4fee278fdcbd38c102d888901a317cd779e7de000801ba0fada34cadc088d59b386806bed25e9729e0aa9614cc7490a861d4568ec3c554ea010570c4c7081187f5f4dd53dbf4a00b31ea10de68e04faa17ff07b51ab298a8d",
      "networkId": 0,
      "chainId": 0
    }
  ]
}