{
  "hash": "0xa0278a0278f0f93a7c154c4f2edac1bf8a3f329b7173a0d4af078f4afaddb03f",
  "parentHash": "0xdb0e8b4a95cc94c90cedef0cbe27cf02b8ebd0256606c931152372297595a187",
  "number": 79422,
  "timestamp": 1439469334,
  "nonce": "0x02d0bfef52221ea5",
  "difficulty": 2347317830019,
  "gasLimit": {
    "_hex": "0x2fefd8"
  },
  "gasUsed": {
    "_hex": "0xf327"
  },
  "miner": "0xe090Ffdced499691fA9379752a59F8A058c1eE4A",
  "extraData": "0x476574682f76312e302e312f6c696e75782f676f312e342e32",
  "transactions": [
    {
      "hash": "0x916bcfc0cbdf2f2de456a3156e915c0f3d9cbc78ccc453d50ed105150cacec07",
      "blockHash": "0xa0278a0278f0f93a7c154c4f2edac1bf8a3f329b7173a0d4af078f4afaddb03f",
      "blockNumber": 79422,
      "transactionIndex": 0,
      "confirmations": null,
      "from": "0xD1826373C4E0938f0b4302B40324f7f9c546492C",
      "gasPrice": {
        "_hex": "0xcb280cc7f"
      },
      "gasLimit": {
        "_hex": "0x30d40"
      },
      "to": "0xc634A6B0375D5554116900D0B40a06C2C022f17e",
      "value": {
        "_hex": "0x16345785d8a0000"
      },
      "nonce": 22,
      "data": "0x",
      "r": "0x1abed412d4184218dd507e2fafbdc1e5bdcb09f011d14f5f61198997785851b8",
      "s": "0x6f0d1b2d0ad441f791a5c8ff9a3362fd2a3cc67b9dfa7a763514f3e44504adff",
      "v": 27,
      "creates": null,
      "raw": "0xf86d16850cb280cc7f83030d4094c634a6b0375d5554116900d0b40a06c2c022f17e88016345785d8a0000801ba01abed412d4184218dd507e2fafbdc1e5bdcb09f011d14f5f61198997785851b8a06f0d1b2d0ad441f791a5c8ff9a3362fd2a3cc67b9dfa7a763514f3e44504adff",
      "networkId": 0,
      "chainId": 0
    }
  ]
}