{
  "hash": "0x9131598fc20f22b100dad0d5cae503e9bbf3fc1c4d0df652f2b5a123e3231137",
  "parentHash": "0xefd80d14da882ef6bf6a50eb4729b69e86c0767c1b91cb31acad35bc7d4252bb",
  "number": 112289,
  "timestamp": 1440005068,
  "nonce": "0x58a740818d7fd7a3",
  "difficulty": 4387457298797,
  "gasLimit": {
    "_hex": "0x2fefd8"
  },
  "gasUsed": {
    "_hex": "0x14820"
  },
  "miner": "0xE300c4587D260cE22a677755Db6429B491A4309E",
  "extraData": "0x",
  "transactions": [
    {
      "hash": "0x70ddeabc7a4e3ef62fed38acabe1d458c0737155bc7b644353b933bf3c8ca277",
      "blockHash": "0x9131598fc20f22b100dad0d5cae503e9bbf3fc1c4d0df652f2b5a123e3231137",
      "blockNumber": 112289,
      "transactionIndex": 0,
      "confirmations": null,
      "from": "0x4D67f4F0Db45b3B5a3424B39ed8d972F710381D5",
      "gasPrice": {
        "_hex": "0xd8c0b203b"
      },
      "gasLimit": {
        "_hex": "0x5208"
      },
      "to": "0x32Be343B94f860124dC4fEe278FDCBD38C102D88",
      "value": {
        "_hex": "0x2f9dfa3d7d1a24000"
      },
      "nonce": 38,
      "data": "0x",
      "r": "0xaa8e0f3537e9698540df2e82bda09fd4030714bae2e5a2da48a8c0701ed71128",
      "s": "0x4de4387965af6397ac7c5f9275aca1a3e4411baf1dc5871993a8c60164e749e7",
      "v": 28,
      "creates": null,
      "raw": "0xf86d26850d8c0b203b8252089432be343b94f860124dc4fee278fdcbd38c102d888902f9dfa3d7d1a24000801ca0aa8e0f3537e9698540df2e82bda09fd4030714bae2e5a2da48a8c0701ed71128a04de4387965af6397ac7c5f9275aca1a3e4411baf1dc5871993a8c60164e749e7",
      "networkId": 0,
      "chainId": 0
    },
    {
      "hash": "0x0a25b3228e10c4ef64a650ca5245aea691a56c6a900fffbe712cf96c78c8bccf",
      "blockHash": "0x9131598fc20f22b100dad0d5cae503e9bbf3fc1c4d0df652f2b5a123e3231137",
      "blockNumber": 112289,
      "transactionIndex": 1,
      "confirmations": null,
      "from": "0xA61A4A69dcB2D8C74BdeCd17AD5821Adc21E95ec",
      "gasPrice": {
        "_hex": "0xd8c0b203b"
      },
      "gasLimit": {
        "_hex": "0x5208"
      },
      "to": "0x32Be343B94f860124dC4fEe278FDCBD38C102D88",
      "value": {
        "_hex": "0xd002d64b97cb3000"
      },
      "nonce": 4,
      "data": "0x",
      "r": "0x1b7f1a57c569f742b0d41065997b8acc0bc5c15941f2f1006336cc7be014a878",
      "s": "0x23669ea81638aa53aa7c0328fb6e33e007a1cdc372cd8c799d426e9f40b01b9c",
      "v": 27,
      "creates": null,
      "raw": "0xf86c04850d8c0b203b8252089432be343b94f860124dc4fee278fdcbd38c102d8888d002d64b97cb3000801ba01b7f1a57c569f742b0d41065997b8acc0bc5c15941f2f1006336cc7be014a878a023669ea81638aa53aa7c0328fb6e33e007a1cdc372cd8c799d426e9f40b01b9c",
      "networkId": 0,
      "chainId": 0
    },
    {
      "hash": "0x4e02803e84c9de30a3fa2a86fa90d908a15e9531af17f48605aa342be8a15b49",
      "blockHash": "0x9131598fc20f22b100dad0d5cae503e9bbf3fc1c4d0df652f2b5a123e3231137",
      "blockNumber": 112289,
      "transactionIndex": 2,
      "confirmations": null,
      "from": "0x82f600f520d879ecc6101C4e8cdD6522Fdd24778",
      "gasPrice": {
        "_hex": "0xd8c0b203b"
      },
      "gasLimit": {
        "_hex": "0x5208"
      },
      "to": "0x32Be343B94f860124dC4fEe278FDCBD38C102D88",
      "value": {
        "_hex": "0x8ac2cbbbc2983000"
      },
      "nonce": 3,
      "data": "0x",
      "r": "0xc190d0e738640611be1df712327f5ce4a1d577af9ebc4ee514379b3e8c61fca4",
      "s": "0x49de5795703aa397df3a4611ec09116aa3fd408d9ce3104acc576f3e6caeb915",
      "v": 28,
      "creates": null,
      "raw": "0xf86c03850d8c0b203b8252089432be343b94f860124dc4fee278fdcbd38c102d88888ac2cbbbc2983000801ca0c190d0e738640611be1df712327f5ce4a1d577af9ebc4ee514379b3e8c61fca4a049de5795703aa397df3a4611ec09116aa3fd408d9ce3104acc576f3e6caeb915",
      "networkId": 0,
      "chainId": 0
    },
    {
      "hash": "0x511bde0bf2baa131cce25ebc1cfc256f525a56413467691b0b1d9ae9efbdabfe",
      "blockHash": "0x9131598fc20f22b100dad0d5cae503e9bbf3fc1c4d0df652f2b5a123e3231137",
      "blockNumber": 112289,
      "transactionIndex": 3,
      "confirmations": null,
      "from": "0xa6BDc31c431B8F97848c9D60cbbe9660dc450eB7",
      "gasPrice": {
        "_hex": "0xd8c0b203b"
      },
      "gasLimit": {
        "_hex": "0x5208"
      },
      "to": "0x32Be343B94f860124dC4fEe278FDCBD38C102D88",
      "value": {
        "_hex": "0x455f3a3bd1b01800"
      },
      "nonce": 199,
      "data": "0x",
      "r": "0x3754c364192f8cac86568c9bcc3ee4201d606511e48f6482522b276792b7723a",
      "s": "0x070b74021d9606b581deea04ea83090909eae650b4171c09990ca0ed6b5af32d",
      "v": 27,
      "creates": null,
      "raw": "0xf86d81c7850d8c0b203b8252089432be343b94f860124dc4fee278fdcbd38c102d8888455f3a3bd1b01800801ba03754c364192f8cac86568c9bcc3ee4201d606511e48f6482522b276792b7723aa0070b74021d9606b581deea04ea83090909eae650b4171c09990ca0ed6b5af32d",
      "networkId": 0,
      "chainId": 0
    }
  ]
}