{
  "hash": "0x369d9d99d1ba8523b2fcae15312809afd2d693cfd6b02d367679d2628fbfde13",
  "parentHash": "0xb284ab7f6eafb37384435d545627f30805777fe996500d2eb4f0f7297754e536",
  "number": 52234,
  "timestamp": 1439018609,
  "nonce": "0xacd2b7e855562724",
  "difficulty": 1550450613302,
  "gasLimit": {
    "_hex": "0x118fd7"
  },
  "gasUsed": {
    "_hex": "0xf4240"
  },
  "miner": "0xbb7B8287f3F0a933474a79eAe42CBCa977791171",
  "extraData": "0x476574682f4c5649562f76312e302e312f6c696e75782f676f312e342e32",
  "transactions": [
    {
      "hash": "0xa4c73833d3d34c72097d0d06d386cf4d5d370dba441a539b9ef8b77534dba529",
      "blockHash": "0x369d9d99d1ba8523b2fcae15312809afd2d693cfd6b02d367679d2628fbfde13",
      "blockNumber": 52234,
      "transactionIndex": 0,
      "confirmations": null,
      "from": "0xAd7F5C601260b460ADAC6A54411Ca6Cf07dC83c3",
      "gasPrice": {
        "_hex": "0x10052b6a9c"
      },
      "gasLimit": {
        "_hex": "0x7a120"
      },
      "to": "0x109C4f2CCc82C4d77Bde15F306707320294Aea3F",
      "value": {
        "_hex": "0xde0b6b3a7640000"
      },
      "nonce": 16,
      "data": "0x",
      "r": "0xdaaa1df424879d1bc73fcc9de5dec3f7de47a0a5b65fc20659ff074940ec8136",
      "s": "0x49421136bccd49c831d7c8b19d601f1f5a63cb1f461892c5a734ae0c9cb5e0b9",
      "v": 27,
      "creates": null,
      "raw": "0xf86d108510052b6a9c8307a12094109c4f2ccc82c4d77bde15f306707320294aea3f880de0b6b3a7640000801ba0daaa1df424879d1bc73fcc9de5dec3f7de47a0a5b65fc20659ff074940ec8136a049421136bccd49c831d7c8b19d601f1f5a63cb1f461892c5a734ae0c9cb5e0b9",
      "networkId": 0,
      "chainId": 0
    },
    {
      "hash": "0x0100647be49e2fc18484507486ba3e3ea073d28e1d15c06826e30be527f241cd",
      "blockHash": "0x369d9d99d1ba8523b2fcae15312809afd2d693cfd6b02d367679d2628fbfde13",
      "blockNumber": 52234,
      "transactionIndex": 1,
      "confirmations": null,
      "from": "0xAd7F5C601260b460ADAC6A54411Ca6Cf07dC83c3",
      "gasPrice": {
        "_hex": "0x10052b6a9c"
      },
      "gasLimit": {
        "_hex": "0x7a120"
      },
      "to": "0x109C4f2CCc82C4d77Bde15F306707320294Aea3F",
      "value": {
        "_hex": "0xde0b6b3a7640000"
      },
      "nonce": 17,
      "data": "0x",
      "r": "0x52ee177ad9171990fa5f526e61d3ccb21609825e48494816cc4a613409225512",
      "s": "0x0856e85b140eca088fbaa5e4ed23dc66e5880dd80262f886429bcf043f9ff20b",
      "v": 27,
      "creates": null,
      "raw": "0xf86d118510052b6a9c8307a12094109c4f2ccc82c4d77bde15f306707320294aea3f880de0b6b3a7640000801ba052ee177ad9171990fa5f526e61d3ccb21609825e48494816cc4a613409225512a00856e85b140eca088fbaa5e4ed23dc66e5880dd80262f886429bcf043f9ff20b",
      "networkId": 0,
      "chainId": 0
    }
  ]
}