{
  "hash": "0x8f67d43d5e79ea10381c841a9bc3dad52ed29a8b75b01d86a9bf794f6d707f5b",
  "parentHash": "0xab5b2d466baba68797d82b080a1a407fb2bc433b5c1a16eaac38d7be7f4b1cb9",
  "number": 86779,
  "timestamp": 1439582728,
  "nonce": "0x1c5697e6e387a2d9",
  "difficulty": 2954570679163,
  "gasLimit": {
    "_hex": "0x2fefd8"
  },
  "gasUsed": {
    "_hex": "0x5208"
  },
  "miner": "0x790b8a3cE86E707ED0eD32bF89B3269692a23CC1",
  "extraData": "0xd783010001844765746887676f312e342e32856c696e7578",
  "transactions": [
    {
      "hash": "0xc6072244787df33637b729e0f6393f3781fd6ce206dfd4dce9837ad9b0e6a0a4",
      "blockHash": "0x8f67d43d5e79ea10381c841a9bc3dad52ed29a8b75b01d86a9bf794f6d707f5b",
      "blockNumber": 86779,
      "transactionIndex": 0,
      "confirmations": null,
      "from": "0x2910543Af39abA0Cd09dBb2D50200b3E800A63D2",
      "gasPrice": {
        "_hex": "0xcf393d407"
      },
      "gasLimit": {
        "_hex": "0x5208"
      },
      "to": "0x8F586E3212291c58DCc78980a9c3432a3aFd3b6E",
      "value": {
        "_hex": "0x1b1ad31369b76f8000"
      },
      "nonce": 680,
      "data": "0x",
      "r": "0x470dfc03e6d5f32c518938ae5c52a5d5fd4646780ec11d8b0f1fa75d47af7fd6",
      "s": "0x371281487c34f983ac0a01045c52eef7e367c7b511df4274fab028c8257b0ea5",
      "v": 27,
      "creates": null,
      "raw": "0xf86f8202a8850cf393d407825208948f586e3212291c58dcc78980a9c3432a3afd3b6e891b1ad31369b76f8000801ba0470dfc03e6d5f32c518938ae5c52a5d5fd4646780ec11d8b0f1fa75d47af7fd6a0371281487c34f983ac0a01045c52eef7e367c7b511df4274fab028c8257b0ea5",
      "networkId": 0,
      "chainId": 0
    }
  ]
}