{
  "hash": "0x94c6b71c2eba3140676dfcda3b8cb2ad3e4e213d775e6db48a3603eaafbb509d",
  "parentHash": "0x82ea26b95939b512ac846006920445de3aea647eb3cee5ab6db12fa30f6fb99d",
  "number": 109140,
  "timestamp": 1439951507,
  "nonce": "0x1f94c5a3545eb9a6",
  "difficulty": 4447351903434,
  "gasLimit": {
    "_hex": "0x2fefd8"
  },
  "gasUsed": {
    "_hex": "0x5208"
  },
  "miner": "0xe6A7a1d47ff21B6321162AEA7C6CB457D5476Bca",
  "extraData": "0x476574682f76312e302e312d38326566323666362f6c696e75782f676f312e34",
  "transactions": [
    {
      "hash": "0xab991eb22ff1028e308abd17837279fbb0bdd74e21f7b60a1d81a4c0ece9f8d0",
      "blockHash": "0x94c6b71c2eba3140676dfcda3b8cb2ad3e4e213d775e6db48a3603eaafbb509d",
      "blockNumber": 109140,
      "transactionIndex": 0,
      "confirmations": null,
      "from": "0x007f7f58D3eb5b7510A301eCC749FC1fCDDBE14D",
      "gasPrice": {
        "_hex": "0xd382b0b9c"
      },
      "gasLimit": {
        "_hex": "0x15f90"
      },
      "to": "0xb1abce2918E21ddb93AA452731a12672A3d9F75a",
      "value": {
        "_hex": "0x4563918244f40000"
      },
      "nonce": 259,
      "data": "0x",
      "r": "0x9660a7cddacb5742b6f36a13a5b4f7bbb35b972d3e3291f831fdeb70cbe011b5",
      "s": "0x072acac976f6571fa7b56d5d09e8c1317fcda671f54c0296da8376aa84b59a9a",
      "v": 28,
      "creates": null,
      "raw": "0xf86f820103850d382b0b9c83015f9094b1abce2918e21ddb93aa452731a12672a3d9f75a884563918244f40000801ca09660a7cddacb5742b6f36a13a5b4f7bbb35b972d3e3291f831fdeb70cbe011b5a0072acac976f6571fa7b56d5d09e8c1317fcda671f54c0296da8376aa84b59a9a",
      "networkId": 0,
      "chainId": 0
    }
  ]
}