{
  "hash": "0x0f274cd869c9a18ba799a7fd475f35c15110e4ee102be2a8d786c74d594811dc",
  "parentHash": "0x205a74e2d2fa8eb5f7b8c243844da83f39fc494e8339b0abfb6ec384b176f46a",
  "number": 97554,
  "timestamp": 1439757911,
  "nonce": "0x5005a31b7e7bbe9b",
  "difficulty": 3831664726663,
  "gasLimit": {
    "_hex": "0x2fefd8"
  },
  "gasUsed": {
    "_hex": "0x5208"
  },
  "miner": "0x74016F15e9262E1fAb078146a4002ACc513AfEf0",
  "extraData": "0x476574682f76312e302e312f6c696e75782f676f312e342e32",
  "transactions": [
    {
      "hash": "0x8ff6b6cc1f89e47b14720d9b3a8a8440da1b5ec1bfc585ca47d1bcd54dba7fef",
      "blockHash": "0x0f274cd869c9a18ba799a7fd475f35c15110e4ee102be2a8d786c74d594811dc",
      "blockNumber": 97554,
      "transactionIndex": 0,
      "confirmations": null,
      "from": "0xEdD03B3afA58aaE8C5732fF58e26099bc5C10659",
      "gasPrice": {
        "_hex": "0xba43b7400"
      },
      "gasLimit": {
        "_hex": "0x5208"
      },
      "to": "0xC47Aaa860008be6f65B58c6C6E02a84e666EfE31",
      "value": {
        "_hex": "0x9d35802cb2d3f35a10"
      },
      "nonce": 5,
      "data": "0x",
      "r": "0x0a10ae5e5a495c17a451fe63b537b01a26b84ff6ce5bf908fc88a8e7c21ec05e",
      "s": "0x4f922104c0d4b8ec94ac55c31fbcb951a1c998d53d096eea438e1b8bc6fa9bce",
      "v": 27,
      "creates": null,
      "raw": "0xf86d05850ba43b740082520894c47aaa860008be6f65b58c6c6e02a84e666efe31899d35802cb2d3f35a10801ba00a10ae5e5a495c17a451fe63b537b01a26b84ff6ce5bf908fc88a8e7c21ec05ea04f922104c0d4b8ec94ac55c31fbcb951a1c998d53d096eea438e1b8bc6fa9bce",
      "networkId": 0,
      "chainId": 0
    }
  ]
}