{
  "hash": "0xdad41a5e1224fdaf89130d6fd69c779e9b508ccaba36c1ed9c73ca7330314afb",
  "parentHash": "0xd833424cef41b8a41f88ab5a9e23e6cad90c68f988a2c973a9e364a73aa97447",
  "number": 74935,
  "timestamp": 1439394928,
  "nonce": "0xbb4b4bd316ee56b5",
  "difficulty": 2190180576159,
  "gasLimit": {
    "_hex": "0x2fefd8"
  },
  "gasUsed": {
    "_hex": "0x5208"
  },
  "miner": "0xE81c9A6Ebe623E5d483110e0eaF2b10c769b1212",
  "extraData": "0x476574682f76312e302e312f6c696e75782f676f312e342e32",
  "transactions": [
    {
      "hash": "0x6a2cdeb0a82b51dd1ab95500ecde6929c88686a409d4442f6efa653f37780263",
      "blockHash": "0xdad41a5e1224fdaf89130d6fd69c779e9b508ccaba36c1ed9c73ca7330314afb",
      "blockNumber": 74935,
      "transactionIndex": 0,
      "confirmations": null,
      "from": "0x95dF4e3445D7662624c48eba74cF9e0a53E9f732",
      "gasPrice": {
        "_hex": "0xd9c1084e1"
      },
      "gasLimit": {
        "_hex": "0x5208"
      },
      "to": "0x43279854AaF8825a6d1fcCf056caF190Ab8a7b76",
      "value": {
        "_hex": "0xd8d726b7177a800000"
      },
      "nonce": 11,
      "data": "0x",
      "r": "0x474246b9b6da78ac4c7c6af8de1a7b66a61b928b560a5eb6bc9f7354340b3e7e",
      "s": "0x54150ff77ebe3175e69662210bf6924ecc91d97a4737885b3bfb68c179c100d8",
      "v": 27,
      "creates": null,
      "raw": "0xf86d0b850d9c1084e18252089443279854aaf8825a6d1fccf056caf190ab8a7b7689d8d726b7177a800000801ba0474246b9b6da78ac4c7c6af8de1a7b66a61b928b560a5eb6bc9f7354340b3e7ea054150ff77ebe3175e69662210bf6924ecc91d97a4737885b3bfb68c179c100d8",
      "networkId": 0,
      "chainId": 0
    }
  ]
}