{
  "hash": "0x80ebf9f54dc527d629936f15da8fb102ae65f3c671fcdbfa7e3c8f7806ef5074",
  "parentHash": "0xad19da46cbae717090776200efe58bbad71bf8b8b61da06772449b4e9d4335ab",
  "number": 59546,
  "timestamp": 1439140054,
  "nonce": "0xe0e6acccb9c1c78b",
  "difficulty": 1698033523741,
  "gasLimit": {
    "_hex": "0x2fefd8"
  },
  "gasUsed": {
    "_hex": "0x5208"
  },
  "miner": "0x88D74a59454F6cF3B51ef6b9136AFb6b9D405A88",
  "extraData": "0x476574682f76312e302e312d37666266393930632f6c696e75782f676f312e34",
  "transactions": [
    {
      "hash": "0x7b7824c1af43dd474a33afc4ba8b1b8a813001ca256b5b1cf2cab6d8846ca109",
      "blockHash": "0x80ebf9f54dc527d629936f15da8fb102ae65f3c671fcdbfa7e3c8f7806ef5074",
      "blockNumber": 59546,
      "transactionIndex": 0,
      "confirmations": null,
      "from": "0xBFdD9820a04283b289957956353b5F3C1F665EcF",
      "gasPrice": {
        "_hex": "0xd2a40de38"
      },
      "gasLimit": {
        "_hex": "0x5208"
      },
      "to": "0x32Be343B94f860124dC4fEe278FDCBD38C102D88",
      "value": {
        "_hex": "0x455f4e943d976c00"
      },
      "nonce": 9,
      "data": "0x",
      "r": "0xd31186cba1fa5b7bd44e4bc53f2558cd0a7bad22d88a32769690ad2cdd8ca634",
      "s": "0x488887ffd116cf3545c480966d79fd91265a995a0e29ee0d4110de867aed625a",
      "v": 28,
      "creates": null,
      "raw": "0xf86c09850d2a40de388252089432be343b94f860124dc4fee278fdcbd38c102d8888455f4e943d976c00801ca0d31186cba1fa5b7bd44e4bc53f2558cd0a7bad22d88a32769690ad2cdd8ca634a0488887ffd116cf3545c480966d79fd91265a995a0e29ee0d4110de867aed625a",
      "networkId": 0,
      "chainId": 0
    }
  ]
}