{
  "hash": "0x0f801f46c376301fd6e5ac55aa9a407c022058e90a39ab5141e06be5fb05faf6",
  "parentHash": "0x6eb83d0220fc57c118638cd045535d167f23da15d5c2219b36abe13579bc68a8",
  "number": 83296,
  "timestamp": 1439533273,
  "nonce": "0xb5ed7dd9ffef57cb",
  "difficulty": 2415988180456,
  "gasLimit": {
    "_hex": "0x2fefd8"
  },
  "gasUsed": {
    "_hex": "0xf618"
  },
  "miner": "0x2f6BCe4fc330B69C9B4c2694d57C63Ec7B18feC7",
  "extraData": "0x476574682f76312e302e312f77696e646f77732f676f312e342e32",
  "transactions": [
    {
      "hash": "0x2da64e939bc6fec8e21d773f6a5502e8ed099ac8d927122e5a2d3675ee630070",
      "blockHash": "0x0f801f46c376301fd6e5ac55aa9a407c022058e90a39ab5141e06be5fb05faf6",
      "blockNumber": 83296,
      "transactionIndex": 0,
      "confirmations": null,
      "from": "0xa6BDc31c431B8F97848c9D60cbbe9660dc450eB7",
      "gasPrice": {
        "_hex": "0xd67a795ba"
      },
      "gasLimit": {
        "_hex": "0x5208"
      },
      "to": "0x32Be343B94f860124dC4fEe278FDCBD38C102D88",
      "value": {
        "_hex": "0x455f45e2612ffc00"
      },
      "nonce": 56,
      "data": "0x",
      "r": "0x572fadad29dd7476c8a4db8569a8d6e8100a80444c4e611c2091fa6e4d082c36",
      "s": "0x220826d8c55a5638bd9203a0a29538147821970d42a95b2c4cc7a78c16f107c1",
      "v": 27,
      "creates": null,
      "raw": "0xf86c38850d67a795ba8252089432be343b94f860124dc4fee278fdcbd38c102d8888455f45e2612ffc00801ba0572fadad29dd7476c8a4db8569a8d6e8100a80444c4e611c2091fa6e4d082c36a0220826d8c55a5638bd9203a0a29538147821970d42a95b2c4cc7a78c16f107c1",
      "networkId": 0,
      "chainId": 0
    },
    {
      "hash": "0x1147137c472fcdeca2cc2d3ec8ae245f0e50cbcdfb37ecb8c30be97c55f8841c",
      "blockHash": "0x0f801f46c376301fd6e5ac55aa9a407c022058e90a39ab5141e06be5fb05faf6",
      "blockNumber": 83296,
      "transactionIndex": 1,
      "confirmations": null,
      "from": "0xabceA603089850F8f6bB612A9031554D90A247CF",
      "gasPrice": {
        "_hex": "0xd67a795ba"
      },
      "gasLimit": {
        "_hex": "0x5208"
      },
      "to": "0x32Be343B94f860124dC4fEe278FDCBD38C102D88",
      "value": {
        "_hex": "0x455f45e2612ffc00"
      },
      "nonce": 24,
      "data": "0x",
      "r": "0xfa57f1fa36745d3a3f4f624c4c8f71c56de52c75591408444276068daad2feb6",
      "s": "0x38ce5b12ecf461efc0fd771f33b76aa2bb456ff67616ded86e02f589bce25841",
      "v": 27,
      "creates": null,
      "raw": "0xf86c18850d67a795ba8252089432be343b94f860124dc4fee278fdcbd38c102d8888455f45e2612ffc00801ba0fa57f1fa36745d3a3f4f624c4c8f71c56de52c75591408444276068daad2feb6a038ce5b12ecf461efc0fd771f33b76aa2bb456ff67616ded86e02f589bce25841",
      "networkId": 0,
      "chainId": 0
    },
    {
      "hash": "0x92915180aa2ab5b0a391b2c41e0fb48efc1d274c514b7257467d39e2d3684776",
      "blockHash": "0x0f801f46c376301fd6e5ac55aa9a407c022058e90a39ab5141e06be5fb05faf6",
      "blockNumber": 83296,
      "transactionIndex": 2,
      "confirmations": null,
      "from": "0xa9f5E7bf6Cbf6fEc55B30850Eb492b47A376d050",
      "gasPrice": {
        "_hex": "0xd67a795ba"
      },
      "gasLimit": {
        "_hex": "0x5208"
      },
      "to": "0x32Be343B94f860124dC4fEe278FDCBD38C102D88",
      "value": {
        "_hex": "0x2a7fea287ce1f0000"
      },
      "nonce": 17,
      "data": "0x",
      "r": "0x2380aab23b2c3107c1f143830bc472bdd4d48174aa72155f9b1c09c24590a10b",
      "s": "0x10149dffb605f1193c6c2ef969b9d2d824946abd4fc405c30ae3a480c9df35ee",
      "v": 27,
      "creates": null,
      "raw": "0xf86d11850d67a795ba8252089432be343b94f860124dc4fee278fdcbd38c102d888902a7fea287ce1f0000801ba02380aab23b2c3107c1f143830bc472bdd4d48174aa72155f9b1c09c24590a10ba010149dffb605f1193c6c2ef969b9d2d824946abd4fc405c30ae3a480c9df35ee",
      "networkId": 0,
      "chainId": 0
    }
  ]
}