{
  "hash": "0x1f909e065aafda834df5df4537af822d4abd10ead7bd595927ce44f62fc97747",
  "parentHash": "0x872baa5ba42f03bdec8f605e5084c7233ff5a32b2e4dfebebb1cf1e40fcd968c",
  "number": 100874,
  "timestamp": 1439813726,
  "nonce": "0x37bed296ff4aa5f7",
  "difficulty": 3863960337021,
  "gasLimit": {
    "_hex": "0x2fefd8"
  },
  "gasUsed": {
    "_hex": "0x5208"
  },
  "miner": "0x65Fe776c996eB7c15f86F236B945353b9a18f335",
  "extraData": "0x476574682f76312e302e312f77696e646f77732f676f312e342e32",
  "transactions": [
    {
      "hash": "0x28995f65e218b1b6e8b4aa6052621591163f3989223c80d1bbc9c113e06974b1",
      "blockHash": "0x1f909e065aafda834df5df4537af822d4abd10ead7bd595927ce44f62fc97747",
      "blockNumber": 100874,
      "transactionIndex": 0,
      "confirmations": null,
      "from": "0x007f7f58D3eb5b7510A301eCC749FC1fCDDBE14D",
      "gasPrice": {
        "_hex": "0xe0cfe7246"
      },
      "gasLimit": {
        "_hex": "0x15f90"
      },
      "to": "0xb1abce2918E21ddb93AA452731a12672A3d9F75a",
      "value": {
        "_hex": "0x4563918244f40000"
      },
      "nonce": 172,
      "data": "0x",
      "r": "0x5d28be1a206535894401e0c4c2cea0de5483f34e15a0dae09bec58874bf919b9",
      "s": "0x16fc154fadbcb0b53c08f96a842a913680e4bfdb419bf42784458d29e0406c71",
      "v": 27,
      "creates": null,
      "raw": "0xf86e81ac850e0cfe724683015f9094b1abce2918e21ddb93aa452731a12672a3d9f75a884563918244f40000801ba05d28be1a206535894401e0c4c2cea0de5483f34e15a0dae09bec58874bf919b9a016fc154fadbcb0b53c08f96a842a913680e4bfdb419bf42784458d29e0406c71",
      "networkId": 0,
      "chainId": 0
    }
  ]
}