{
  "hash": "0x468d2cf26a21918d1d7ae13e6ff6754f2a03ad7368c0c1ae360d075783fb5ece",
  "parentHash": "0x7eb02fcfd1530766c8af9a0bfec6f7ea9eaaf97653bb767b36a942927a5bbe94",
  "number": 75614,
  "timestamp": 1439406400,
  "nonce": "0x61261012b5714be1",
  "difficulty": 2221234693542,
  "gasLimit": {
    "_hex": "0x2fefd8"
  },
  "gasUsed": {
    "_hex": "0xa410"
  },
  "miner": "0xEc98b7A32A91F21203E7DB60feABDA1eDD7ef5bb",
  "extraData": "0x476574682f76312e302e312f6c696e75782f676f312e342e32",
  "transactions": [
    {
      "hash": "0x7ce46a160ba2756eea27322b3b54902fa40a00a71e35e9250f18b52652da1371",
      "blockHash": "0x468d2cf26a21918d1d7ae13e6ff6754f2a03ad7368c0c1ae360d075783fb5ece",
      "blockNumber": 75614,
      "transactionIndex": 0,
      "confirmations": null,
      "from": "0x5eF8c96186b37984cBfE04C598406e3b0ac3171F",
      "gasPrice": {
        "_hex": "0xd57c5a50f"
      },
      "gasLimit": {
        "_hex": "0x15f90"
      },
      "to": "0x783692588d0273d066CBc0e78f1abEce463F3d74",
      "value": {
        "_hex": "0xebec21ee1da40000"
      },
      "nonce": 2,
      "data": "0x",
      "r": "0xb249df546b7b5d056d81ef21eae405f88d2f4b07e731ce7c86aaf467e079be00",
      "s": "0x7347c30920141100fc343f8146dc8c5815bec078fd0e18d920b3f8f92bd08473",
      "v": 28,
      "creates": null,
      "raw": "0xf86d02850d57c5a50f83015f9094783692588d0273d066cbc0e78f1abece463f3d7488ebec21ee1da40000801ca0b249df546b7b5d056d81ef21eae405f88d2f4b07e731ce7c86aaf467e079be00a07347c30920141100fc343f8146dc8c5815bec078fd0e18d920b3f8f92bd08473",
      "networkId": 0,
      "chainId": 0
    },
    {
      "hash": "0x8aef64f1d4bc1736bb0b4a882d40d499ff6f293193cebce5441ead03ff6d2fc5",
      "blockHash": "0x468d2cf26a21918d1d7ae13e6ff6754f2a03ad7368c0c1ae360d075783fb5ece",
      "blockNumber": 75614,
      "transactionIndex": 1,
      "confirmations": null,
      "from": "0xF2d2AfF1320476cb8C6b607199D23175cc595693",
      "gasPrice": {
        "_hex": "0xd2673974b"
      },
      "gasLimit": {
        "_hex": "0x15f90"
      },
      "to": "0xF5EeDc192aB70b08D8354384aD94efD095849E00",
      "value": {
        "_hex": "0x7b2a557a6d9780000"
      },
      "nonce": 24,
      "data": "0x",
      "r": "0x19ca63aecf7203227ed31b077fa4c53a43d2f415a9b27390e72628017d8e6b28",
      "s": "0x410d1adeea21037c63f0d8d7c82a601ce750fb14c323a71811e0ced59fbeb6b3",
      "v": 27,
      "creates": null,
      "raw": "0xf86e18850d2673974b83015f9094f5eedc192ab70b08d8354384ad94efd095849e008907b2a557a6d9780000801ba019ca63aecf7203227ed31b077fa4c53a43d2f415a9b27390e72628017d8e6b28a0410d1adeea21037c63f0d8d7c82a601ce750fb14c323a71811e0ced59fbeb6b3",
      "networkId": 0,
      "chainId": 0
    }
  ]
}