{
  "hash": "0xec9badcc4dc43d08d374f96a9f4c4936f2c301d93b1801b6048875c0c34d12f6",
  "parentHash": "0x49c0becc6bddaf7caf6b0c53ed4eae2a661f6c2e90fe6cede38b6253b914f69c",
  "number": 108720,
  "timestamp": 1439945166,
  "nonce": "0x3f83e186fa5345d0",
  "difficulty": 4336069454287,
  "gasLimit": {
    "_hex": "0x2fefd8"
  },
  "gasUsed": {
    "_hex": "0xf618"
  },
  "miner": "0xf927a40C8B7F6E07c5af7FA2155B4864a4112B13",
  "extraData": "0x",
  "transactions": [
    {
      "hash": "0x35e1101f2d802cd66d70d52065947dc5ba8001e554f67e04e8c95382b50307b0",
      "blockHash": "0xec9badcc4dc43d08d374f96a9f4c4936f2c301d93b1801b6048875c0c34d12f6",
      "blockNumber": 108720,
      "transactionIndex": 0,
      "confirmations": null,
      "from": "0xa70a9a7040d542C632D8e0bE7c5513A8a5Bbc752",
      "gasPrice": {
        "_hex": "0xd83cee98d"
      },
      "gasLimit": {
        "_hex": "0x5208"
      },
      "to": "0x32Be343B94f860124dC4fEe278FDCBD38C102D88",
      "value": {
        "_hex": "0x455f3cdcb31c7c00"
      },
      "nonce": 267,
      "data": "0x",
      "r": "0xa80e10d3db8f2a89ed21198f6f53770c904873eaaf237beee597c89831eafc9b",
      "s": "0x2f37bf0aa1dcc9442a7e2c19a08970ab332e37c3228542a568d446c3a9d5b369",
      "v": 27,
      "creates": null,
      "raw": "0xf86e82010b850d83cee98d8252089432be343b94f860124dc4fee278fdcbd38c102d8888455f3cdcb31c7c00801ba0a80e10d3db8f2a89ed21198f6f53770c904873eaaf237beee597c89831eafc9ba02f37bf0aa1dcc9442a7e2c19a08970ab332e37c3228542a568d446c3a9d5b369",
      "networkId": 0,
      "chainId": 0
    },
    {
      "hash": "0x590dd8086600e2747c6320d98d7e6982f0aaf84f38531d819f9daafe5a7c8484",
      "blockHash": "0xec9badcc4dc43d08d374f96a9f4c4936f2c301d93b1801b6048875c0c34d12f6",
      "blockNumber": 108720,
      "transactionIndex": 1,
      "confirmations": null,
      "from": "0x0D4EcC7d750180EBf4A9Df728B6669B5Bceb5E40",
      "gasPrice": {
        "_hex": "0xd83cee98d"
      },
      "gasLimit": {
        "_hex": "0x5208"
      },
      "to": "0x32Be343B94f860124dC4fEe278FDCBD38C102D88",
      "value": {
        "_hex": "0x3406587c21df7c00"
      },
      "nonce": 94,
      "data": "0x",
      "r": "0x5671bd17825ac16324954d5c27afbb20c6d600cd788ae7a8cf09fd5215555503",
      "s": "0x1daa973c28421ea678d24c7bbc9193fb3bc928b66887b350f6fa551560e457c7",
      "v": 27,
      "creates": null,
      "raw": "0xf86c5e850d83cee98d8252089432be343b94f860124dc4fee278fdcbd38c102d88883406587c21df7c00801ba05671bd17825ac16324954d5c27afbb20c6d600cd788ae7a8cf09fd5215555503a01daa973c28421ea678d24c7bbc9193fb3bc928b66887b350f6fa551560e457c7",
      "networkId": 0,
      "chainId": 0
    },
    {
      "hash": "0x6e3581375b822c7f4be1e323dd57619b0fd561618e36d40bef7ac47227d883e0",
      "blockHash": "0xec9badcc4dc43d08d374f96a9f4c4936f2c301d93b1801b6048875c0c34d12f6",
      "blockNumber": 108720,
      "transactionIndex": 2,
      "confirmations": null,
      "from": "0x4D67f4F0Db45b3B5a3424B39ed8d972F710381D5",
      "gasPrice": {
        "_hex": "0xd61efcd6e"
      },
      "gasLimit": {
        "_hex": "0x5208"
      },
      "to": "0x32Be343B94f860124dC4fEe278FDCBD38C102D88",
      "value": {
        "_hex": "0x2de1e43efb7c7e000"
      },
      "nonce": 33,
      "data": "0x",
      "r": "0xe5f73ccc5e12500ac9bba02037de75347f605019cac1bfa4b89be1ddddd289f3",
      "s": "0x36bc5cde6191d06859fcecc9e8ad9fa9fe2b8e560f9de78697ed2319f54479aa",
      "v": 27,
      "creates": null,
      "raw": "0xf86d21850d61efcd6e8252089432be343b94f860124dc4fee278fdcbd38c102d888902de1e43efb7c7e000801ba0e5f73ccc5e12500ac9bba02037de75347f605019cac1bfa4b89be1ddddd289f3a036bc5cde6191d06859fcecc9e8ad9fa9fe2b8e560f9de78697ed2319f54479aa",
      "networkId": 0,
      "chainId": 0
    }
  ]
}