{
  "hash": "0x05005fdf9b2aaa3162ef58b2e1f766fe3233867d936140a3d48444d93e804933",
  "parentHash": "0x483bcd6327f46405b8bec55c49a1655a93eda3e655454aa870b325e743d31c8a",
  "number": 115335,
  "timestamp": 1440055473,
  "nonce": "0x5eeefb8f90763349",
  "difficulty": 4551678757829,
  "gasLimit": {
    "_hex": "0x2fefd8"
  },
  "gasUsed": {
    "_hex": "0x9eef8"
  },
  "miner": "0xe6A7a1d47ff21B6321162AEA7C6CB457D5476Bca",
  "extraData": "0x476574682f76312e302e312d38326566323666362f6c696e75782f676f312e34",
  "transactions": [
    {
      "hash": "0xc8e3bfe80abf42677e38efc0cc852dc3c2277531b3b85119c4ac2c200eefdca3",
      "blockHash": "0x05005fdf9b2aaa3162ef58b2e1f766fe3233867d936140a3d48444d93e804933",
      "blockNumber": 115335,
      "transactionIndex": 0,
      "confirmations": null,
      "from": "0x526384ca4cF099ECa3f719e8ac32dEf6eaDB1E80",
      "gasPrice": {
        "_hex": "0x746a528800"
      },
      "gasLimit": {
        "_hex": "0x5208"
      },
      "to": "0x40B9b889A21Ff1534d018D71Dc406122EBcf3F5A",
      "value": {
        "_hex": "0xde0b6b3a7640000"
      },
      "nonce": 3,
      "data": "0x",
      "r": "0xd673e8c54efb627e209c72f78914b86651b429b48a0a8bd9a67807b7ac8c1ec2",
      "s": "0x78c4b9d26a9227d5e12dbd3db03ddaa426fa23f436b893af39124413aee984cf",
      "v": 27,
      "creates": null,
      "raw": "0xf86c0385746a5288008252089440b9b889a21ff1534d018d71dc406122ebcf3f5a880de0b6b3a7640000801ba0d673e8c54efb627e209c72f78914b86651b429b48a0a8bd9a67807b7ac8c1ec2a078c4b9d26a9227d5e12dbd3db03ddaa426fa23f436b893af39124413aee984cf",
      "networkId": 0,
      "chainId": 0
    },
    {
      "hash": "0xbdd1ecb3443d85023e4b30943e263711e93389aeaf6d5f640202fd7e0488a702",
      "blockHash": "0x05005fdf9b2aaa3162ef58b2e1f766fe3233867d936140a3d48444d93e804933",
      "blockNumber": 115335,
      "transactionIndex": 1,
      "confirmations": null,
      "from": "0xe6A7a1d47ff21B6321162AEA7C6CB457D5476Bca",
      "gasPrice": {
        "_hex": "0xdb1b2d137"
      },
      "gasLimit": {
        "_hex": "0x55f0"
      },
      "to": "0x3831A4852c55a662aFcFB2a03e8DE8D5899AC4f2",
      "value": {
        "_hex": "0xe0a5af8b1f67850"
      },
      "nonce": 5488,
      "data": "0x",
      "r": "0x8ea7222902af05ffeb1a6a26385cc1d9ec6c4e422aa3fd4bf07fdf9caf4bd1b7",
      "s": "0x2d05f2e25454ca731ad4329536945caa3e7f0e5f04d228ebd678c0f6b526fd6a",
      "v": 27,
      "creates": null,
      "raw": "0xf86e821570850db1b2d1378255f0943831a4852c55a662afcfb2a03e8de8d5899ac4f2880e0a5af8b1f67850801ba08ea7222902af05ffeb1a6a26385cc1d9ec6c4e422aa3fd4bf07fdf9caf4bd1b7a02d05f2e25454ca731ad4329536945caa3e7f0e5f04d228ebd678c0f6b526fd6a",
      "networkId": 0,
      "chainId": 0
    },
    {
      "hash": "0x30b44b2adba8fd6ce25187b13a8c865e0fd3caf6c41eeca9df442785f90f6180",
      "blockHash": "0x05005fdf9b2aaa3162ef58b2e1f766fe3233867d936140a3d48444d93e804933",
      "blockNumber": 115335,
      "transactionIndex": 2,
      "confirmations": null,
      "from": "0xe6A7a1d47ff21B6321162AEA7C6CB457D5476Bca",
      "gasPrice": {
        "_hex": "0xdb1b2d137"
      },
      "gasLimit": {
        "_hex": "0x55f0"
      },
      "to": "0xE25E3A1947405a1F82dD8e3048a9cA471dc782E1",
      "value": {
        "_hex": "0xee4ae32fc7d8130"
      },
      "nonce": 5489,
      "data": "0x",
      "r": "0x3c052343c29b5b49c2120b382f382b4d5b5ee1eb3633ce0f2bf88fba694ef72e",
      "s": "0x400853994bf6367c6ad1f624b0cdaf77a7bd776e874aafb55220151bf3b89435",
      "v": 28,
      "creates": null,
      "raw": "0xf86e821571850db1b2d1378255f094e25e3a1947405a1f82dd8e3048a9ca471dc782e1880ee4ae32fc7d8130801ca03c052343c29b5b49c2120b382f382b4d5b5ee1eb3633ce0f2bf88fba694ef72ea0400853994bf6367c6ad1f624b0cdaf77a7bd776e874aafb55220151bf3b89435",
      "networkId": 0,
      "chainId": 0
    },
    {
      "hash": "0x2abaad450df39d07f9bb893e9cc70e3f5ec172ac2cceec9076d79f8fc6620439",
      "blockHash": "0x05005fdf9b2aaa3162ef58b2e1f766fe3233867d936140a3d48444d93e804933",
      "blockNumber": 115335,
      "transactionIndex": 3,
      "confirmations": null,
      "from": "0xe6A7a1d47ff21B6321162AEA7C6CB457D5476Bca",
      "gasPrice": {
        "_hex": "0xdb1b2d137"
      },
      "gasLimit": {
        "_hex": "0x55f0"
      },
      "to": "0x740Ab9f08593f931fC5d0589a528663565e707ee",
      "value": {
        "_hex": "0xf10f9e6ab492194"
      },
      "nonce": 5490,
      "data": "0x",
      "r": "0x6ea40514f957227c5ee8ca69e431527ed609c62f84422cef73542c6f533a49b8",
      "s": "0x7a913d6f8d075ed72c4706acb1dbaa9585ad2e0fb7c05bf6471c617e3ae4df46",
      "v": 28,
      "creates": null,
      "raw": "0xf86e821572850db1b2d1378255f094740ab9f08593f931fc5d0589a528663565e707ee880f10f9e6ab492194801ca06ea40514f957227c5ee8ca69e431527ed609c62f84422cef73542c6f533a49b8a07a913d6f8d075ed72c4706acb1dbaa9585ad2e0fb7c05bf6471c617e3ae4df46",
      "networkId": 0,
      "chainId": 0
    },
    {
      "hash": "0x2f8991359527ca26d0c22d65aff93df278c6616956d557e67c712057b9a23193",
      "blockHash": "0x05005fdf9b2aaa3162ef58b2e1f766fe3233867d936140a3d48444d93e804933",
      "blockNumber": 115335,
      "transactionIndex": 4,
      "confirmations": null,
      "from": "0xe6A7a1d47ff21B6321162AEA7C6CB457D5476Bca",
      "gasPrice": {
        "_hex": "0xdb1b2d137"
      },
      "gasLimit": {
        "_hex": "0x55f0"
      },
      "to": "0xda5E395F4f06f7A77C591d97d6502Ddf471E12c1",
      "value": {
        "_hex": "0x104153a9a0b6a62c"
      },
      "nonce": 5491,
      "data": "0x",
      "r": "0xb7ba4bbb0f7fbf738318a2ffeb90357d54396ce83a0e3855c1c942983f19b35a",
      "s": "0x2f75d2026ad1025df4ca1726042480ab63be93cfdf264dfebdc9740c9cdac537",
      "v": 28,
      "creates": null,
      "raw": "0xf86e821573850db1b2d1378255f094da5e395f4f06f7a77c591d97d6502ddf471e12c188104153a9a0b6a62c801ca0b7ba4bbb0f7fbf738318a2ffeb90357d54396ce83a0e3855c1c942983f19b35aa02f75d2026ad1025df4ca1726042480ab63be93cfdf264dfebdc9740c9cdac537",
      "networkId": 0,
      "chainId": 0
    },
    {
      "hash": "0x6af83097e0fe23a5f857e63d9ee87975e206005c156b7a554befb1ac90d5cc70",
      "blockHash": "0x05005fdf9b2aaa3162ef58b2e1f766fe3233867d936140a3d48444d93e804933",
      "blockNumber": 115335,
      "transactionIndex": 5,
      "confirmations": null,
      "from": "0xe6A7a1d47ff21B6321162AEA7C6CB457D5476Bca",
      "gasPrice": {
        "_hex": "0xdb1b2d137"
      },
      "gasLimit": {
        "_hex": "0x55f0"
      },
      "to": "0xe2F27cFd700a6d294Ac1BaFFa42c24bA0968631D",
      "value": {
        "_hex": "0x1510872110d23330"
      },
      "nonce": 5492,
      "data": "0x",
      "r": "0x15a727bd5f8fe835d12009593e8537ea0c7c761da011553e8174d911846ea9ae",
      "s": "0x719f7193b8cb46facef4723cf12b8bc316db1e8aa321deed68a4610207920ea2",
      "v": 28,
      "creates": null,
      "raw": "0xf86e821574850db1b2d1378255f094e2f27cfd700a6d294ac1baffa42c24ba0968631d881510872110d23330801ca015a727bd5f8fe835d12009593e8537ea0c7c761da011553e8174d911846ea9aea0719f7193b8cb46facef4723cf12b8bc316db1e8aa321deed68a4610207920ea2",
      "networkId": 0,
      "chainId": 0
    },
    {
      "hash": "0xef631df857d6c3d396b6bb273f0b9d61b28766ba21439180080f9a4e6c6e0434",
      "blockHash": "0x05005fdf9b2aaa3162ef58b2e1f766fe3233867d936140a3d48444d93e804933",
      "blockNumber": 115335,
      "transactionIndex": 6,
      "confirmations": null,
      "from": "0xe6A7a1d47ff21B6321162AEA7C6CB457D5476Bca",
      "gasPrice": {
        "_hex": "0xdb1b2d137"
      },
      "gasLimit": {
        "_hex": "0x55f0"
      },
      "to": "0xfaA12B5C220f5CB5594D244e125f6AEd574b5697",
      "value": {
        "_hex": "0x1744d6a168d3ff04"
      },
      "nonce": 5493,
      "data": "0x",
      "r": "0x317287a4a7f851b08135b4d171fe15811f74e6167dcba7874e4e5148cdff2972",
      "s": "0x10b726a60b4c8ee7757bb6f8ed8a9647ca50eb1e65f197c002018195aa66a36b",
      "v": 27,
      "creates": null,
      "raw": "0xf86e821575850db1b2d1378255f094faa12b5c220f5cb5594d244e125f6aed574b5697881744d6a168d3ff04801ba0317287a4a7f851b08135b4d171fe15811f74e6167dcba7874e4e5148cdff2972a010b726a60b4c8ee7757bb6f8ed8a9647ca50eb1e65f197c002018195aa66a36b",
      "networkId": 0,
      "chainId": 0
    },
    {
      "hash": "0xab474376ef42ef15798de9de445925b5bd57a2b7dfa7779a9a37ca0377db1cc3",
      "blockHash": "0x05005fdf9b2aaa3162ef58b2e1f766fe3233867d936140a3d48444d93e804933",
      "blockNumber": 115335,
      "transactionIndex": 7,
      "confirmations": null,
      "from": "0xe6A7a1d47ff21B6321162AEA7C6CB457D5476Bca",
      "gasPrice": {
        "_hex": "0xdb1b2d137"
      },
      "gasLimit": {
        "_hex": "0x55f0"
      },
      "to": "0x006c2D0A03D20a1e9B838594F03FC81603e9d350",
      "value": {
        "_hex": "0x1b098ae7efa6ae10"
      },
      "nonce": 5494,
      "data": "0x",
      "r": "0x7570b937be411d59f47e3a6e9155e38bd825e5e13ad23104bf4937d9f338b0b5",
      "s": "0x66e313c98ad47305d6124deb85a3efdc1d92f8508455c9c6244ae0298b258840",
      "v": 28,
      "creates": null,
      "raw": "0xf86e821576850db1b2d1378255f094006c2d0a03d20a1e9b838594f03fc81603e9d350881b098ae7efa6ae10801ca07570b937be411d59f47e3a6e9155e38bd825e5e13ad23104bf4937d9f338b0b5a066e313c98ad47305d6124deb85a3efdc1d92f8508455c9c6244ae0298b258840",
      "networkId": 0,
      "chainId": 0
    },
    {
      "hash": "0x1b7d3bc123706beb5ca905bf8fff50db9bcc855c6316a2eafdeee7b84cda8b76",
      "blockHash": "0x05005fdf9b2aaa3162ef58b2e1f766fe3233867d936140a3d48444d93e804933",
      "blockNumber": 115335,
      "transactionIndex": 8,
      "confirmations": null,
      "from": "0xe6A7a1d47ff21B6321162AEA7C6CB457D5476Bca",
      "gasPrice": {
        "_hex": "0xdb1b2d137"
      },
      "gasLimit": {
        "_hex": "0x55f0"
      },
      "to": "0x3fc4eAB8A8df5a124043b29146709935c65F1f7d",
      "value": {
        "_hex": "0x1fdd65c2d63763a0"
      },
      "nonce": 5495,
      "data": "0x",
      "r": "0xb278bfbf165d53993fd73441044d373561fa07a8ef67575ee87368c625cadfe3",
      "s": "0x50aeac1f07f53cb3d11ce5dbe4e59d5aa4030118a71b5e5c645bdf927d74da37",
      "v": 28,
      "creates": null,
      "raw": "0xf86e821577850db1b2d1378255f0943fc4eab8a8df5a124043b29146709935c65f1f7d881fdd65c2d63763a0801ca0b278bfbf165d53993fd73441044d373561fa07a8ef67575ee87368c625cadfe3a050aeac1f07f53cb3d11ce5dbe4e59d5aa4030118a71b5e5c645bdf927d74da37",
      "networkId": 0,
      "chainId": 0
    },
    {
      "hash": "0x39e318940adba9d05312e3ead55200eb8c0e785009bc53c94c6a5e1a2796353d",
      "blockHash": "0x05005fdf9b2aaa3162ef58b2e1f766fe3233867d936140a3d48444d93e804933",
      "blockNumber": 115335,
      "transactionIndex": 9,
      "confirmations": null,
      "from": "0xe6A7a1d47ff21B6321162AEA7C6CB457D5476Bca",
      "gasPrice": {
        "_hex": "0xdb1b2d137"
      },
      "gasLimit": {
        "_hex": "0x55f0"
      },
      "to": "0xCadcea36EC3feB740167E4370777fab1549F8759",
      "value": {
        "_hex": "0x23705aa01107eaf0"
      },
      "nonce": 5496,
      "data": "0x",
      "r": "0x567a7fd6dd27ef5c95029474b26bb6345b7bbad8bcd2dbb66601b89e90442ffa",
      "s": "0x706cb0d430903378aa8d30c718b99c1252d7f7e31a44d5ebce9a7523237a7ac7",
      "v": 27,
      "creates": null,
      "raw": "0xf86e821578850db1b2d1378255f094cadcea36ec3feb740167e4370777fab1549f87598823705aa01107eaf0801ba0567a7fd6dd27ef5c95029474b26bb6345b7bbad8bcd2dbb66601b89e90442ffaa0706cb0d430903378aa8d30c718b99c1252d7f7e31a44d5ebce9a7523237a7ac7",
      "networkId": 0,
      "chainId": 0
    },
    {
      "hash": "0x3acf916244048eced9eeb42e450dd74c432393cdb024801d8a2ef79048d98c5f",
      "blockHash": "0x05005fdf9b2aaa3162ef58b2e1f766fe3233867d936140a3d48444d93e804933",
      "blockNumber": 115335,
      "transactionIndex": 10,
      "confirmations": null,
      "from": "0xe6A7a1d47ff21B6321162AEA7C6CB457D5476Bca",
      "gasPrice": {
        "_hex": "0xdb1b2d137"
      },
      "gasLimit": {
        "_hex": "0x55f0"
      },
      "to": "0x8421b6810A1aee71B0baa38D7E1b5de6f71245d2",
      "value": {
        "_hex": "0x26e69fa52839e318"
      },
      "nonce": 5497,
      "data": "0x",
      "r": "0x635e49a63dd84cd4f66fdd3619efd4fe29561d0b14c7fc689f1dcbc3bf56cb80",
      "s": "0x3d71f425babefc4039c1509760daf2954f74cb8f10997d4d3c52efab40b14e8d",
      "v": 28,
      "creates": null,
      "raw": "0xf86e821579850db1b2d1378255f0948421b6810a1aee71b0baa38d7e1b5de6f71245d28826e69fa52839e318801ca0635e49a63dd84cd4f66fdd3619efd4fe29561d0b14c7fc689f1dcbc3bf56cb80a03d71f425babefc4039c1509760daf2954f74cb8f10997d4d3c52efab40b14e8d",
      "networkId": 0,
      "chainId": 0
    },
    {
      "hash": "0xea5cf6cd6195ebc577853d392369ce27e9f85142cfd554894fa8d3dae4947c0d",
      "blockHash": "0x05005fdf9b2aaa3162ef58b2e1f766fe3233867d936140a3d48444d93e804933",
      "blockNumber": 115335,
      "transactionIndex": 11,
      "confirmations": null,
      "from": "0xe6A7a1d47ff21B6321162AEA7C6CB457D5476Bca",
      "gasPrice": {
        "_hex": "0xdb1b2d137"
      },
      "gasLimit": {
        "_hex": "0x55f0"
      },
      "to": "0x605C4282130e22ae43d0e95728788988fA800894",
      "value": {
        "_hex": "0x2a18ae321d8b8630"
      },
      "nonce": 5498,
      "data": "0x",
      "r": "0x932340cfdc9670ef6f3798b38561d508e10d906045429707da81ac4ef0cee0bc",
      "s": "0x1b88c66bbde99e04bd712dfaddcd804655eedb72490394c5a64c6ca7a2e06bbd",
      "v": 27,
      "creates": null,
      "raw": "0xf86e82157a850db1b2d1378255f094605c4282130e22ae43d0e95728788988fa800894882a18ae321d8b8630801ba0932340cfdc9670ef6f3798b38561d508e10d906045429707da81ac4ef0cee0bca01b88c66bbde99e04bd712dfaddcd804655eedb72490394c5a64c6ca7a2e06bbd",
      "networkId": 0,
      "chainId": 0
    },
    {
      "hash": "0x48dbb8f6c520fc2481b7815ce57836a2324076719b2ea62232c8d9043350690f",
      "blockHash": "0x05005fdf9b2aaa3162ef58b2e1f766fe3233867d936140a3d48444d93e804933",
      "blockNumber": 115335,
      "transactionIndex": 12,
      "confirmations": null,
      "from": "0xe6A7a1d47ff21B6321162AEA7C6CB457D5476Bca",
      "gasPrice": {
        "_hex": "0xdb1b2d137"
      },
      "gasLimit": {
        "_hex": "0x55f0"
      },
      "to": "0xc1BED23F5A2bA19A363215fC2c288FD8ee533E15",
      "value": {
        "_hex": "0x320b51f65b2fb008"
      },
      "nonce": 5499,
      "data": "0x",
      "r": "0x70596976fc750a7e9a50567bdbe0570eb89f9f16fc8331404aad4ab6cc38b503",
      "s": "0x01b9fa29ebf820593714fa6d57ebe15acd55ff74718c4a6490ef230b73a00048",
      "v": 28,
      "creates": null,
      "raw": "0xf86e82157b850db1b2d1378255f094c1bed23f5a2ba19a363215fc2c288fd8ee533e1588320b51f65b2fb008801ca070596976fc750a7e9a50567bdbe0570eb89f9f16fc8331404aad4ab6cc38b503a001b9fa29ebf820593714fa6d57ebe15acd55ff74718c4a6490ef230b73a00048",
      "networkId": 0,
      "chainId": 0
    },
    {
      "hash": "0xa90df86c398866c99ce3501ddaa1328fc4da0d06d8fc8df77eac33ed06e81c12",
      "blockHash": "0x05005fdf9b2aaa3162ef58b2e1f766fe3233867d936140a3d48444d93e804933",
      "blockNumber": 115335,
      "transactionIndex": 13,
      "confirmations": null,
      "from": "0xe6A7a1d47ff21B6321162AEA7C6CB457D5476Bca",
      "gasPrice": {
        "_hex": "0xdb1b2d137"
      },
      "gasLimit": {
        "_hex": "0x55f0"
      },
      "to": "0x1463cEF3d9007Db05b7C3B8981D38602EE0D855a",
      "value": {
        "_hex": "0x371ea0668ba335e4"
      },
      "nonce": 5500,
      "data": "0x",
      "r": "0xa0254328a8da69293c45bac19f43da14fbd04322336fccd226b32a7ca47755a7",
      "s": "0x0415211b344d773093abe3e2d72d1d8f17efcb8d669ae268f6ea2b190d8f4142",
      "v": 27,
      "creates": null,
      "raw": "0xf86e82157c850db1b2d1378255f0941463cef3d9007db05b7c3b8981d38602ee0d855a88371ea0668ba335e4801ba0a0254328a8da69293c45bac19f43da14fbd04322336fccd226b32a7ca47755a7a00415211b344d773093abe3e2d72d1d8f17efcb8d669ae268f6ea2b190d8f4142",
      "networkId": 0,
      "chainId": 0
    },
    {
      "hash": "0x231698a34f6d7402b538cc2cc4ead14180cd162fcbf87bc4482e8b566c36a40e",
      "blockHash": "0x05005fdf9b2aaa3162ef58b2e1f766fe3233867d936140a3d48444d93e804933",
      "blockNumber": 115335,
      "transactionIndex": 14,
      "confirmations": null,
      "from": "0xe6A7a1d47ff21B6321162AEA7C6CB457D5476Bca",
      "gasPrice": {
        "_hex": "0xdb1b2d137"
      },
      "gasLimit": {
        "_hex": "0x55f0"
      },
      "to": "0x6599C9c86f1635FAAEFE7A5540914811DAD8d167",
      "value": {
        "_hex": "0x3ae0d664001049f0"
      },
      "nonce": 5501,
      "data": "0x",
      "r": "0xabebc7fc9a8813a2f9397706268cf706d9f8efbfc90c92e3b226cdc6a9334bc0",
      "s": "0x006a18ddd03099084cb430a365a6b41bd96a226c964c25f4dae73bac6070a4e7",
      "v": 27,
      "creates": null,
      "raw": "0xf86d82157d850db1b2d1378255f0946599c9c86f1635faaefe7a5540914811dad8d167883ae0d664001049f0801ba0abebc7fc9a8813a2f9397706268cf706d9f8efbfc90c92e3b226cdc6a9334bc09f6a18ddd03099084cb430a365a6b41bd96a226c964c25f4dae73bac6070a4e7",
      "networkId": 0,
      "chainId": 0
    },
    {
      "hash": "0xbf513190b891b33fbcefe1636e62a1d15754bd055abc4c7a5edd4f153646d531",
      "blockHash": "0x05005fdf9b2aaa3162ef58b2e1f766fe3233867d936140a3d48444d93e804933",
      "blockNumber": 115335,
      "transactionIndex": 15,
      "confirmations": null,
      "from": "0xe6A7a1d47ff21B6321162AEA7C6CB457D5476Bca",
      "gasPrice": {
        "_hex": "0xdb1b2d137"
      },
      "gasLimit": {
        "_hex": "0x55f0"
      },
      "to": "0xe72717ae0d6792286968449ABA7d469BCAE1d957",
      "value": {
        "_hex": "0x3c6dd6bb6622d010"
      },
      "nonce": 5502,
      "data": "0x",
      "r": "0xe5f02609dd82e61c84863330b9c9911fbc116b3f7c603db8c1336b36a785b913",
      "s": "0x050a257933f2f4170ccecbd91325911867a00dd97b7c33abd424975f1bee7286",
      "v": 27,
      "creates": null,
      "raw": "0xf86e82157e850db1b2d1378255f094e72717ae0d6792286968449aba7d469bcae1d957883c6dd6bb6622d010801ba0e5f02609dd82e61c84863330b9c9911fbc116b3f7c603db8c1336b36a785b913a0050a257933f2f4170ccecbd91325911867a00dd97b7c33abd424975f1bee7286",
      "networkId": 0,
      "chainId": 0
    },
    {
      "hash": "0x5801a1f4fdc2ae3b2a41e8d427ad3e18f4afb123cf29e876de1d7bccf9c5e4d5",
      "blockHash": "0x05005fdf9b2aaa3162ef58b2e1f766fe3233867d936140a3d48444d93e804933",
      "blockNumber": 115335,
      "transactionIndex": 16,
      "confirmations": null,
      "from": "0xe6A7a1d47ff21B6321162AEA7C6CB457D5476Bca",
      "gasPrice": {
        "_hex": "0xdb1b2d137"
      },
      "gasLimit": {
        "_hex": "0x55f0"
      },
      "to": "0xbc681E36E2BC0d9Cb397811ce7a5821da2D66059",
      "value": {
        "_hex": "0x3f2c58837ca9f510"
      },
      "nonce": 5503,
      "data": "0x",
      "r": "0x56d17999828a83de1ac9fddcb5ee9e002d74db933279c184d08be4704de55bc4",
      "s": "0x2bcb8f735390810042e2249dd9925b3def4f4f34dd0936e0141fea3813c9caab",
      "v": 27,
      "creates": null,
      "raw": "0xf86e82157f850db1b2d1378255f094bc681e36e2bc0d9cb397811ce7a5821da2d66059883f2c58837ca9f510801ba056d17999828a83de1ac9fddcb5ee9e002d74db933279c184d08be4704de55bc4a02bcb8f735390810042e2249dd9925b3def4f4f34dd0936e0141fea3813c9caab",
      "networkId": 0,
      "chainId": 0
    },
    {
      "hash": "0x2be3ea89c365e32f4414e068ac292c5cc403ff7ae9af8acac868e6601ed02472",
      "blockHash": "0x05005fdf9b2aaa3162ef58b2e1f766fe3233867d936140a3d48444d93e804933",
      "blockNumber": 115335,
      "transactionIndex": 17,
      "confirmations": null,
      "from": "0xe6A7a1d47ff21B6321162AEA7C6CB457D5476Bca",
      "gasPrice": {
        "_hex": "0xdb1b2d137"
      },
      "gasLimit": {
        "_hex": "0x55f0"
      },
      "to": "0x31353beec2eD3DFfC213c27A9F28ad8dfee828e9",
      "value": {
        "_hex": "0x4415c339c31d6860"
      },
      "nonce": 5504,
      "data": "0x",
      "r": "0x5dcbcad9b00864b42aff3cb44abf56bdc56bd7d23ea05670b9329f8983b78414",
      "s": "0x09511aa55246593782ab4fac4d23d3e59245ecff73260be5cd39820cd2148e69",
      "v": 28,
      "creates": null,
      "raw": "0xf86e821580850db1b2d1378255f09431353beec2ed3dffc213c27a9f28ad8dfee828e9884415c339c31d6860801ca05dcbcad9b00864b42aff3cb44abf56bdc56bd7d23ea05670b9329f8983b78414a009511aa55246593782ab4fac4d23d3e59245ecff73260be5cd39820cd2148e69",
      "networkId": 0,
      "chainId": 0
    },
    {
      "hash": "0xbba47c0c7bf6d22c650d505887662da7d2b1090bbab678e72d68d81eb2b32f44",
      "blockHash": "0x05005fdf9b2aaa3162ef58b2e1f766fe3233867d936140a3d48444d93e804933",
      "blockNumber": 115335,
      "transactionIndex": 18,
      "confirmations": null,
      "from": "0xe6A7a1d47ff21B6321162AEA7C6CB457D5476Bca",
      "gasPrice": {
        "_hex": "0xdb1b2d137"
      },
      "gasLimit": {
        "_hex": "0x55f0"
      },
      "to": "0x248aCc54C440214585155Ba4fe5c9706Fb234061",
      "value": {
        "_hex": "0x46abe1cfb3f4bf58"
      },
      "nonce": 5505,
      "data": "0x",
      "r": "0x68a036c5dc887ce7c619e23f40d1dbbdc345d2769622efcf450a740cd6cda7d4",
      "s": "0x2fee3b115d0bfdf8e62251076c6f17c3e74b63fec93c8abbc0b9aa5984370082",
      "v": 27,
      "creates": null,
      "raw": "0xf86e821581850db1b2d1378255f094248acc54c440214585155ba4fe5c9706fb2340618846abe1cfb3f4bf58801ba068a036c5dc887ce7c619e23f40d1dbbdc345d2769622efcf450a740cd6cda7d4a02fee3b115d0bfdf8e62251076c6f17c3e74b63fec93c8abbc0b9aa5984370082",
      "networkId": 0,
      "chainId": 0
    },
    {
      "hash": "0x394cb40323cf53212a53e17f2535e60bb10c3c813e72f6aac7ff16c70024accd",
      "blockHash": "0x05005fdf9b2aaa3162ef58b2e1f766fe3233867d936140a3d48444d93e804933",
      "blockNumber": 115335,
      "transactionIndex": 19,
      "confirmations": null,
      "from": "0xe6A7a1d47ff21B6321162AEA7C6CB457D5476Bca",
      "gasPrice": {
        "_hex": "0xdb1b2d137"
      },
      "gasLimit": {
        "_hex": "0x55f0"
      },
      "to": "0x5adA3743144f1235d8cef97daAD6c123F20E7330",
      "value": {
        "_hex": "0x51f6b0c1c4c16ea0"
      },
      "nonce": 5506,
      "data": "0x",
      "r": "0xf48001130fc5140aaea47481294f7c94035225009f846cc49d7703bae8029acb",
      "s": "0x7311b6310f39a17b936cb00c18253b50b0934305806c8135232d16dc2bc894bf",
      "v": 27,
      "creates": null,
      "raw": "0xf86e821582850db1b2d1378255f0945ada3743144f1235d8cef97daad6c123f20e73308851f6b0c1c4c16ea0801ba0f48001130fc5140aaea47481294f7c94035225009f846cc49d7703bae8029acba07311b6310f39a17b936cb00c18253b50b0934305806c8135232d16dc2bc894bf",
      "networkId": 0,
      "chainId": 0
    },
    {
      "hash": "0x6a8088fd674b8d712ddcf82446875cc0bc97265b6004cf6de29bb715e2c50758",
      "blockHash": "0x05005fdf9b2aaa3162ef58b2e1f766fe3233867d936140a3d48444d93e804933",
      "blockNumber": 115335,
      "transactionIndex": 20,
      "confirmations": null,
      "from": "0xe6A7a1d47ff21B6321162AEA7C6CB457D5476Bca",
      "gasPrice": {
        "_hex": "0xdb1b2d137"
      },
      "gasLimit": {
        "_hex": "0x55f0"
      },
      "to": "0xB1A4B41b8e75a153841c99c62d18588d45e7b406",
      "value": {
        "_hex": "0x5b48b0b7a056b858"
      },
      "nonce": 5507,
      "data": "0x",
      "r": "0x0032370ce91e6d64f8256df4fdaea9116845ecf6d4ee5867d839f0f9c14b9b76",
      "s": "0x3af77f042a32cbd86c294dbaecc988330441d4915d97b21b926386169437b5c0",
      "v": 27,
      "creates": null,
      "raw": "0xf86d821583850db1b2d1378255f094b1a4b41b8e75a153841c99c62d18588d45e7b406885b48b0b7a056b858801b9f32370ce91e6d64f8256df4fdaea9116845ecf6d4ee5867d839f0f9c14b9b76a03af77f042a32cbd86c294dbaecc988330441d4915d97b21b926386169437b5c0",
      "networkId": 0,
      "chainId": 0
    },
    {
      "hash": "0x42c1ed4ce0a8eb76780339081871da2ee5cddf32e43a9579354ef0255c3f29ca",
      "blockHash": "0x05005fdf9b2aaa3162ef58b2e1f766fe3233867d936140a3d48444d93e804933",
      "blockNumber": 115335,
      "transactionIndex": 21,
      "confirmations": null,
      "from": "0xe6A7a1d47ff21B6321162AEA7C6CB457D5476Bca",
      "gasPrice": {
        "_hex": "0xdb1b2d137"
      },
      "gasLimit": {
        "_hex": "0x55f0"
      },
      "to": "0x9dc5018E753A410593259039296bBfd28E29f894",
      "value": {
        "_hex": "0x69bd0d5f8cdff528"
      },
      "nonce": 5508,
      "data": "0x",
      "r": "0x5ce1bc62a8fe9de87ac6ecbf9ae8a2910aed9849ff3429873bfe35cd95eeff04",
      "s": "0x7b86bc00527968246a7856baf6a7249f6135fe50b01ff79e4145e0f52f6e8065",
      "v": 27,
      "creates": null,
      "raw": "0xf86e821584850db1b2d1378255f0949dc5018e753a410593259039296bbfd28e29f8948869bd0d5f8cdff528801ba05ce1bc62a8fe9de87ac6ecbf9ae8a2910aed9849ff3429873bfe35cd95eeff04a07b86bc00527968246a7856baf6a7249f6135fe50b01ff79e4145e0f52f6e8065",
      "networkId": 0,
      "chainId": 0
    },
    {
      "hash": "0x606525a75dc95091d442138980677a1a1bb8c86dd7babca6b8509f63ea9c9a30",
      "blockHash": "0x05005fdf9b2aaa3162ef58b2e1f766fe3233867d936140a3d48444d93e804933",
      "blockNumber": 115335,
      "transactionIndex": 22,
      "confirmations": null,
      "from": "0xe6A7a1d47ff21B6321162AEA7C6CB457D5476Bca",
      "gasPrice": {
        "_hex": "0xdb1b2d137"
      },
      "gasLimit": {
        "_hex": "0x55f0"
      },
      "to": "0xCCe96724c29e042F35bCe1c2405feB0e8E30082b",
      "value": {
        "_hex": "0xafb2f61f7b47c630"
      },
      "nonce": 5509,
      "data": "0x",
      "r": "0x6ba299ad97772f76fcd73f0ac77f2e347e8b6fff5bdb678e1b47abda1d11e971",
      "s": "0x455e4a5b9e7651ad41e7ac591c336d2b86f8b49ccd405e19f023dc5c5f9ed224",
      "v": 27,
      "creates": null,
      "raw": "0xf86e821585850db1b2d1378255f094cce96724c29e042f35bce1c2405feb0e8e30082b88afb2f61f7b47c630801ba06ba299ad97772f76fcd73f0ac77f2e347e8b6fff5bdb678e1b47abda1d11e971a0455e4a5b9e7651ad41e7ac591c336d2b86f8b49ccd405e19f023dc5c5f9ed224",
      "networkId": 0,
      "chainId": 0
    },
    {
      "hash": "0x511b154b9ae42286131fb41eb1b9ffde194c6628d1927c5164f98f98fdcc1c08",
      "blockHash": "0x05005fdf9b2aaa3162ef58b2e1f766fe3233867d936140a3d48444d93e804933",
      "blockNumber": 115335,
      "transactionIndex": 23,
      "confirmations": null,
      "from": "0xe6A7a1d47ff21B6321162AEA7C6CB457D5476Bca",
      "gasPrice": {
        "_hex": "0xdb1b2d137"
      },
      "gasLimit": {
        "_hex": "0x55f0"
      },
      "to": "0x226E8B888E9F360E1Aea28229C40E2adC5D698b5",
      "value": {
        "_hex": "0xedb0559c8e428eb0"
      },
      "nonce": 5510,
      "data": "0x",
      "r": "0xeb6d5a8cdde0acfb54e2eacc7803ed3b78a20264890c9ecc6ff4e9990d9f5b3b",
      "s": "0x4e96d1639b9add9e98001733328e669070e77e0a25214354258c64538ff98e6b",
      "v": 27,
      "creates": null,
      "raw": "0xf86e821586850db1b2d1378255f094226e8b888e9f360e1aea28229c40e2adc5d698b588edb0559c8e428eb0801ba0eb6d5a8cdde0acfb54e2eacc7803ed3b78a20264890c9ecc6ff4e9990d9f5b3ba04e96d1639b9add9e98001733328e669070e77e0a25214354258c64538ff98e6b",
      "networkId": 0,
      "chainId": 0
    },
    {
      "hash": "0x1b768f248b9f6bf1df1721fcd2d43f25ce3a90d9c4ce2ecbd455ee4f20951681",
      "blockHash": "0x05005fdf9b2aaa3162ef58b2e1f766fe3233867d936140a3d48444d93e804933",
      "blockNumber": 115335,
      "transactionIndex": 24,
      "confirmations": null,
      "from": "0xe6A7a1d47ff21B6321162AEA7C6CB457D5476Bca",
      "gasPrice": {
        "_hex": "0xdb1b2d137"
      },
      "gasLimit": {
        "_hex": "0x55f0"
      },
      "to": "0x463eADDDA71F29F36365F889EA7E6fcDBe1cF0c8",
      "value": {
        "_hex": "0x1ccab25cf87ab2110"
      },
      "nonce": 5511,
      "data": "0x",
      "r": "0x4d496413a9feb38349d5e075b838cf843a50411fadc58247831a0a6899d8e5c3",
      "s": "0x60851885c0fd173c0c83ab7174ba7ed4bb136f1c8ee48cd6c7c7c61ac84fa04e",
      "v": 27,
      "creates": null,
      "raw": "0xf86f821587850db1b2d1378255f094463eaddda71f29f36365f889ea7e6fcdbe1cf0c88901ccab25cf87ab2110801ba04d496413a9feb38349d5e075b838cf843a50411fadc58247831a0a6899d8e5c3a060851885c0fd173c0c83ab7174ba7ed4bb136f1c8ee48cd6c7c7c61ac84fa04e",
      "networkId": 0,
      "chainId": 0
    },
    {
      "hash": "0xf8e2ff004e2aa8d48f3cdd7706019db2367817ca8c0d7d68d3c5a684ad86f322",
      "blockHash": "0x05005fdf9b2aaa3162ef58b2e1f766fe3233867d936140a3d48444d93e804933",
      "blockNumber": 115335,
      "transactionIndex": 25,
      "confirmations": null,
      "from": "0xe6A7a1d47ff21B6321162AEA7C6CB457D5476Bca",
      "gasPrice": {
        "_hex": "0xdb1b2d137"
      },
      "gasLimit": {
        "_hex": "0x55f0"
      },
      "to": "0x379965B927911bcF18D2d4F062Edf10c45847069",
      "value": {
        "_hex": "0x2c0890e6466100070"
      },
      "nonce": 5512,
      "data": "0x",
      "r": "0x4e17a0d48f0624e64e719f1f457e04dd4f4ee54f4ae274c29d2e33bcc31a7a5c",
      "s": "0x21e90e08862bf271d6bd388174b09770c55808a886eebbf9f26839ed8aff028d",
      "v": 28,
      "creates": null,
      "raw": "0xf86f821588850db1b2d1378255f094379965b927911bcf18d2d4f062edf10c458470698902c0890e6466100070801ca04e17a0d48f0624e64e719f1f457e04dd4f4ee54f4ae274c29d2e33bcc31a7a5ca021e90e08862bf271d6bd388174b09770c55808a886eebbf9f26839ed8aff028d",
      "networkId": 0,
      "chainId": 0
    },
    {
      "hash": "0xd470d00e4bc986f6620c4bfa1732a74f81e52a7632ec0673e13ed63e5ce74442",
      "blockHash": "0x05005fdf9b2aaa3162ef58b2e1f766fe3233867d936140a3d48444d93e804933",
      "blockNumber": 115335,
      "transactionIndex": 26,
      "confirmations": null,
      "from": "0xe6A7a1d47ff21B6321162AEA7C6CB457D5476Bca",
      "gasPrice": {
        "_hex": "0xdb1b2d137"
      },
      "gasLimit": {
        "_hex": "0x55f0"
      },
      "to": "0x097738363B1662599ad0777E19461601F5EC8dF9",
      "value": {
        "_hex": "0x3c7fe7ea75008c150"
      },
      "nonce": 5513,
      "data": "0x",
      "r": "0x3e0d65a75d4d467d1efeb927f71f55f02d8bbdd5aaebfa94eabacf45bcee2d3b",
      "s": "0x75bafb8ce122e041f73387a87813ff5c51ff4b94b76769c50e6261b0ea011e41",
      "v": 28,
      "creates": null,
      "raw": "0xf86f821589850db1b2d1378255f094097738363b1662599ad0777e19461601f5ec8df98903c7fe7ea75008c150801ca03e0d65a75d4d467d1efeb927f71f55f02d8bbdd5aaebfa94eabacf45bcee2d3ba075bafb8ce122e041f73387a87813ff5c51ff4b94b76769c50e6261b0ea011e41",
      "networkId": 0,
      "chainId": 0
    },
    {
      "hash": "0x6315b83346c98d9034a5ba2a7c14f605d942d6956e06cc8ef00d26210587b08b",
      "blockHash": "0x05005fdf9b2aaa3162ef58b2e1f766fe3233867d936140a3d48444d93e804933",
      "blockNumber": 115335,
      "transactionIndex": 27,
      "confirmations": null,
      "from": "0xe6A7a1d47ff21B6321162AEA7C6CB457D5476Bca",
      "gasPrice": {
        "_hex": "0xdb1b2d137"
      },
      "gasLimit": {
        "_hex": "0x55f0"
      },
      "to": "0x795dAa7Cd2C81b20de241CE0751981faC4930070",
      "value": {
        "_hex": "0x716d14ed9ea63c5c0"
      },
      "nonce": 5514,
      "data": "0x",
      "r": "0x169abcde4bb62af857025039adb66c6746dcf6bf490bf46a6d1e3eedf2a79bbe",
      "s": "0x48c43b322c11930fff6e62faa28a958ee921e51b95773fff71837a10a429fb8c",
      "v": 27,
      "creates": null,
      "raw": "0xf86f82158a850db1b2d1378255f094795daa7cd2c81b20de241ce0751981fac4930070890716d14ed9ea63c5c0801ba0169abcde4bb62af857025039adb66c6746dcf6bf490bf46a6d1e3eedf2a79bbea048c43b322c11930fff6e62faa28a958ee921e51b95773fff71837a10a429fb8c",
      "networkId": 0,
      "chainId": 0
    },
    {
      "hash": "0xc18fbb8494f5220b81f646889ce8d53aa920472217ab4ef2c6cb6d9892c0153a",
      "blockHash": "0x05005fdf9b2aaa3162ef58b2e1f766fe3233867d936140a3d48444d93e804933",
      "blockNumber": 115335,
      "transactionIndex": 28,
      "confirmations": null,
      "from": "0xe6A7a1d47ff21B6321162AEA7C6CB457D5476Bca",
      "gasPrice": {
        "_hex": "0xdb1b2d137"
      },
      "gasLimit": {
        "_hex": "0x55f0"
      },
      "to": "0xDE209fd98dEc789370402D891e7401d3947379e4",
      "value": {
        "_hex": "0xaf948b74f55b600f0"
      },
      "nonce": 5515,
      "data": "0x",
      "r": "0xcf05742acbde80e8b83761e76051afefb3810d92195a6ab032161645fa2eff4c",
      "s": "0x3abf727d7438215cc65ca16f73cd4b594466d4bd19348198abfe4c3839e9d971",
      "v": 27,
      "creates": null,
      "raw": "0xf86f82158b850db1b2d1378255f094de209fd98dec789370402d891e7401d3947379e4890af948b74f55b600f0801ba0cf05742acbde80e8b83761e76051afefb3810d92195a6ab032161645fa2eff4ca03abf727d7438215cc65ca16f73cd4b594466d4bd19348198abfe4c3839e9d971",
      "networkId": 0,
      "chainId": 0
    },
    {
      "hash": "0x8efcdd6af7e269179c1f679ea5085c214239cf28d0f4c060be2958766d5cfd7a",
      "blockHash": "0x05005fdf9b2aaa3162ef58b2e1f766fe3233867d936140a3d48444d93e804933",
      "blockNumber": 115335,
      "transactionIndex": 29,
      "confirmations": null,
      "from": "0x701aE497d3522329870Ada714AA902424EA8Da01",
      "gasPrice": {
        "_hex": "0xd96cac475"
      },
      "gasLimit": {
        "_hex": "0x5208"
      },
      "to": "0x32Be343B94f860124dC4fEe278FDCBD38C102D88",
      "value": {
        "_hex": "0xf75cf4d4cae79800"
      },
      "nonce": 10,
      "data": "0x",
      "r": "0xe59bdb24bfb092ba1ebfe417dbfe07ecf146f815642b7d808be62e88219710ff",
      "s": "0x468139c043678c5f0138d42215d357690a9104c9e3b85cff0471c444c2ecb5e9",
      "v": 27,
      "creates": null,
      "raw": "0xf86c0a850d96cac4758252089432be343b94f860124dc4fee278fdcbd38c102d8888f75cf4d4cae79800801ba0e59bdb24bfb092ba1ebfe417dbfe07ecf146f815642b7d808be62e88219710ffa0468139c043678c5f0138d42215d357690a9104c9e3b85cff0471c444c2ecb5e9",
      "networkId": 0,
      "chainId": 0
    },
    {
      "hash": "0x531b177f51d5ce9c70eb8b3dd21b794196c7a42c7a1b349d09ea54ca95887b5e",
      "blockHash": "0x05005fdf9b2aaa3162ef58b2e1f766fe3233867d936140a3d48444d93e804933",
      "blockNumber": 115335,
      "transactionIndex": 30,
      "confirmations": null,
      "from": "0x226E8B888E9F360E1Aea28229C40E2adC5D698b5",
      "gasPrice": {
        "_hex": "0xd75626d88"
      },
      "gasLimit": {
        "_hex": "0x15f90"
      },
      "to": "0xbA8c9CDA6af013Cc68A076E17c84d4cDbc5960c5",
      "value": {
        "_hex": "0xcb72c853f73a0000"
      },
      "nonce": 7,
      "data": "0x",
      "r": "0x4b0f5368ba805d2134d9e48bd6777e4db54de264ec4e78b62130efc2ff4fae1f",
      "s": "0x77b3cb8ae2f59edd55b37f5bdd604adba44546af327e486e2278506aef98f896",
      "v": 28,
      "creates": null,
      "raw": "0xf86d07850d75626d8883015f9094ba8c9cda6af013cc68a076e17c84d4cdbc5960c588cb72c853f73a0000801ca04b0f5368ba805d2134d9e48bd6777e4db54de264ec4e78b62130efc2ff4fae1fa077b3cb8ae2f59edd55b37f5bdd604adba44546af327e486e2278506aef98f896",
      "networkId": 0,
      "chainId": 0
    }
  ]
}