{
  "hash": "0x646965bffc94f8b3d39dccaf716b9770c84e3924b1ff7e2bcdb302e23e26e241",
  "parentHash": "0xd87585e018cd05034469486c5a0438b06218bef0cdd0a73a2b59ffb720345805",
  "number": 62948,
  "timestamp": 1439196564,
  "nonce": "0x56ec7d9f160097ce",
  "difficulty": 1792753641532,
  "gasLimit": {
    "_hex": "0x2fefd8"
  },
  "gasUsed": {
    "_hex": "0x546c"
  },
  "miner": "0x1B7047b4338ACf65bE94C1A3e8c5c9338ad7d67C",
  "extraData": "0x476574682f76312e302e312d38326566323666362f6c696e75782f676f312e34",
  "transactions": [
    {
      "hash": "0xa49a9c9fad7dbbc44567fa50e966fec82bc54235386f42f342f41e11fbb30b18",
      "blockHash": "0x646965bffc94f8b3d39dccaf716b9770c84e3924b1ff7e2bcdb302e23e26e241",
      "blockNumber": 62948,
      "transactionIndex": 0,
      "confirmations": null,
      "from": "0x9EEF442d291A447d74c5d253c49Ef324eAc1d8f0",
      "gasPrice": {
        "_hex": "0x110c8f7d8de"
      },
      "gasLimit": {
        "_hex": "0xc350"
      },
      "to": "0x2910543Af39abA0Cd09dBb2D50200b3E800A63D2",
      "value": {
        "_hex": "0x1eaed3f13417180000"
      },
      "nonce": 2,
      "data": "0x454e42523246563652",
      "r": "0xfd031cee95baa9c467b1b2d6aab1a26522f7a9a02d9d1ebd1a536e611f729263",
      "s": "0xae10ee7f51038dcc916c259b6833710e567d6476d301055b408cd743c9d92e28",
      "v": 28,
      "creates": null,
      "raw": "0xf87702860110c8f7d8de82c350942910543af39aba0cd09dbb2d50200b3e800a63d2891eaed3f1341718000089454e425232465636521ca0fd031cee95baa9c467b1b2d6aab1a26522f7a9a02d9d1ebd1a536e611f729263a0ae10ee7f51038dcc916c259b6833710e567d6476d301055b408cd743c9d92e28",
      "networkId": 0,
      "chainId": 0
    }
  ]
}