{
  "hash": "0xbc75c7e05a3c9a45ce0803566ad3923a7d6587f4c89ae4803f783a7b9a19b68c",
  "parentHash": "0x8091cfc79219e3a7343caec2460821479b1ad1c39b77a0db366f5dabd610d1d1",
  "number": 89856,
  "timestamp": 1439630199,
  "nonce": "0xdf40288fd3829037",
  "difficulty": 3341840533227,
  "gasLimit": {
    "_hex": "0x2fefd8"
  },
  "gasUsed": {
    "_hex": "0x5208"
  },
  "miner": "0xbb7B8287f3F0a933474a79eAe42CBCa977791171",
  "extraData": "0x476574682f4c5649562f76312e302e312f6c696e75782f676f312e342e32",
  "transactions": [
    {
      "hash": "0xabb52a5b88c366ab48127c80a0defe7325fc70d7131f83eec408d86d665aaf99",
      "blockHash": "0xbc75c7e05a3c9a45ce0803566ad3923a7d6587f4c89ae4803f783a7b9a19b68c",
      "blockNumber": 89856,
      "transactionIndex": 0,
      "confirmations": null,
      "from": "0xBF7B0E43c329d2cD6864dD8F81c0d79cd2134297",
      "gasPrice": {
        "_hex": "0xd886e06f9"
      },
      "gasLimit": {
        "_hex": "0x5208"
      },
      "to": "0x32Be343B94f860124dC4fEe278FDCBD38C102D88",
      "value": {
        "_hex": "0x2065dc6a12b58400"
      },
      "nonce": 0,
      "data": "0x",
      "r": "0xb14513653707bfdc73a8b9a1d94bcaff8176677d288af8b1534db049da5211d7",
      "s": "0x3da26a2ed0c13751d05b011d43faa5a27ae0448e2ae77f6a663375153ff2cf7d",
      "v": 27,
      "creates": null,
      "raw": "0xf86c80850d886e06f98252089432be343b94f860124dc4fee278fdcbd38c102d88882065dc6a12b58400801ba0b14513653707bfdc73a8b9a1d94bcaff8176677d288af8b1534db049da5211d7a03da26a2ed0c13751d05b011d43faa5a27ae0448e2ae77f6a663375153ff2cf7d",
      "networkId": 0,
      "chainId": 0
    }
  ]
}