{
  "hash": "0x0fde4d5a5b79224e885654e20883c1d58995a099662bd71bbff8c45f1dc901bc",
  "parentHash": "0x75a304d874051c70429cfcd384e79746d118c15a84cd034c9497e8e669b73840",
  "number": 81698,
  "timestamp": 1439506175,
  "nonce": "0xed09671d9783c61a",
  "difficulty": 2433023742721,
  "gasLimit": {
    "_hex": "0x2fefd8"
  },
  "gasUsed": {
    "_hex": "0x5208"
  },
  "miner": "0x19dafe19F11E960E4cCfC6A5AA8890ebD748cA1E",
  "extraData": "0xd783010001844765746887676f312e342e32856c696e7578",
  "transactions": [
    {
      "hash": "0xcc0d58f752c295ca466762734b3b399d68f4c403b7adda255c9a2661f18ecba0",
      "blockHash": "0x0fde4d5a5b79224e885654e20883c1d58995a099662bd71bbff8c45f1dc901bc",
      "blockNumber": 81698,
      "transactionIndex": 0,
      "confirmations": null,
      "from": "0x8Ab53580aD08Bf9cDaa65748fb4d3Fbbf4Ae1FC5",
      "gasPrice": {
        "_hex": "0x11330a09d74"
      },
      "gasLimit": {
        "_hex": "0x15f90"
      },
      "to": "0x8b6222058558418cA83DC19C5539a476Ef0Ec772",
      "value": {
        "_hex": "0x53444835ec580000"
      },
      "nonce": 0,
      "data": "0x",
      "r": "0x77422df375c1a3da34f45d77fc90ae01a3da88da74131bdd7cad39cb5b3fdd3f",
      "s": "0x4467e1801f17b7266b7dd4a1bb0ccc83bebe95336e3836267a47187f897ca7db",
      "v": 27,
      "creates": null,
      "raw": "0xf86e8086011330a09d7483015f90948b6222058558418ca83dc19c5539a476ef0ec7728853444835ec580000801ba077422df375c1a3da34f45d77fc90ae01a3da88da74131bdd7cad39cb5b3fdd3fa04467e1801f17b7266b7dd4a1bb0ccc83bebe95336e3836267a47187f897ca7db",
      "networkId": 0,
      "chainId": 0
    }
  ]
}