{
  "hash": "0x47025848f7269be2b196e33f84a00f155e59c35a14d41ca99350fd3c0bc7a66a",
  "parentHash": "0xe9fafe3c740dc4891b27dbdedd9b46be8a23d7855570eb78246d05bd7bed6269",
  "number": 62233,
  "timestamp": 1439185285,
  "nonce": "0x1284b1e8090fa35b",
  "difficulty": 1774616090735,
  "gasLimit": {
    "_hex": "0x2fefd8"
  },
  "gasUsed": {
    "_hex": "0x9ca0"
  },
  "miner": "0x76f84927A612Dc4D9E690AFc6275f2Ef1D78a4B0",
  "extraData": "0x476574682f76312e302e312f6c696e75782f676f312e342e32",
  "transactions": [
    {
      "hash": "0xf212d20e70d4e2c6e135f5bf392a4c346a7e3b52b4ceb3161b9564c8947b9f39",
      "blockHash": "0x47025848f7269be2b196e33f84a00f155e59c35a14d41ca99350fd3c0bc7a66a",
      "blockNumber": 62233,
      "transactionIndex": 0,
      "confirmations": null,
      "from": "0xE2beA3e7d349ab64EBD9873418e78912e13CD35f",
      "gasPrice": {
        "_hex": "0xdce6ecaf6"
      },
      "gasLimit": {
        "_hex": "0x15f90"
      },
      "to": "0x0B7591abDF17A364F167A99aF38e58694ACB2Aa6",
      "value": {
        "_hex": "0xde0b6b3a7640000"
      },
      "nonce": 11,
      "data": "0x",
      "r": "0x98756d9ae0e49dc217ff201a3335adf69dfd4fbd1cf2b8317da26045bb7332d1",
      "s": "0x66fa45926cccadbf049c7793f4b1965f97563b5255414780af44e4b63bf57151",
      "v": 27,
      "creates": null,
      "raw": "0xf86d0b850dce6ecaf683015f90940b7591abdf17a364f167a99af38e58694acb2aa6880de0b6b3a7640000801ba098756d9ae0e49dc217ff201a3335adf69dfd4fbd1cf2b8317da26045bb7332d1a066fa45926cccadbf049c7793f4b1965f97563b5255414780af44e4b63bf57151",
      "networkId": 0,
      "chainId": 0
    }
  ]
}