{
  "hash": "0x8b08654bd3d3d823ac7318f4df12697b6cc71a92704c1fc2ce091f43d3dab0b0",
  "parentHash": "0x0918b7557931974f674514eeec649044e7d078a33fbd24dc927e916742eac4f6",
  "number": 94723,
  "timestamp": 1439713096,
  "nonce": "0xa014d6678d47003d",
  "difficulty": 3481438014235,
  "gasLimit": {
    "_hex": "0x2fefd8"
  },
  "gasUsed": {
    "_hex": "0xf618"
  },
  "miner": "0x6F2a83BC1c1846bf84ffC43B8776f1AA4a9F890F",
  "extraData": "0x",
  "transactions": [
    {
      "hash": "0xd8241a73d78aeb3d333ee5cbe2f31e2915376666d20cd874ea8dd024d30d7e4d",
      "blockHash": "0x8b08654bd3d3d823ac7318f4df12697b6cc71a92704c1fc2ce091f43d3dab0b0",
      "blockNumber": 94723,
      "transactionIndex": 0,
      "confirmations": null,
      "from": "0x1308A2e95c0160B90803ddCA9B9a5bb55E416d79",
      "gasPrice": {
        "_hex": "0xd249a5fe3"
      },
      "gasLimit": {
        "_hex": "0x15f90"
      },
      "to": "0xE3535c3A7F74fDd1447140e98FA5fE310028f40f",
      "value": {
        "_hex": "0x28e1bf4af8d1d0000"
      },
      "nonce": 153,
      "data": "0x",
      "r": "0xcddeae41050ab93e970da1d74d9eea845befa795bef98206b7cf6a7c49528bbe",
      "s": "0x1af0eb42919d291dae8cedda93e7c4f0e32a1a4b3e138c8b2f240f20d1081d42",
      "v": 28,
      "creates": null,
      "raw": "0xf86f8199850d249a5fe383015f9094e3535c3a7f74fdd1447140e98fa5fe310028f40f89028e1bf4af8d1d0000801ca0cddeae41050ab93e970da1d74d9eea845befa795bef98206b7cf6a7c49528bbea01af0eb42919d291dae8cedda93e7c4f0e32a1a4b3e138c8b2f240f20d1081d42",
      "networkId": 0,
      "chainId": 0
    },
    {
      "hash": "0x9defb7b751feae600adf8a60b4b14b9afba7e2fb5c46a29b84526a3d9f8efec3",
      "blockHash": "0x8b08654bd3d3d823ac7318f4df12697b6cc71a92704c1fc2ce091f43d3dab0b0",
      "blockNumber": 94723,
      "transactionIndex": 1,
      "confirmations": null,
      "from": "0xD99b25c518320820D3C5ae9f47378DA32dED5f00",
      "gasPrice": {
        "_hex": "0xce55a843b"
      },
      "gasLimit": {
        "_hex": "0x5208"
      },
      "to": "0x32Be343B94f860124dC4fEe278FDCBD38C102D88",
      "value": {
        "_hex": "0xfa24f93d39b43000"
      },
      "nonce": 4,
      "data": "0x",
      "r": "0xafe4df5b825debe3be6878c4ec52b20839079a9d43cd3e1b9277c2caab9bac3f",
      "s": "0x3bbfffb44aae13f55248535c0398d61dbcb29002a06cd6ff25bc25def73c253a",
      "v": 27,
      "creates": null,
      "raw": "0xf86c04850ce55a843b8252089432be343b94f860124dc4fee278fdcbd38c102d8888fa24f93d39b43000801ba0afe4df5b825debe3be6878c4ec52b20839079a9d43cd3e1b9277c2caab9bac3fa03bbfffb44aae13f55248535c0398d61dbcb29002a06cd6ff25bc25def73c253a",
      "networkId": 0,
      "chainId": 0
    },
    {
      "hash": "0x48f515bf7363103716ada1f773950df3d4a01e731b675082ed31b93a08c00d3d",
      "blockHash": "0x8b08654bd3d3d823ac7318f4df12697b6cc71a92704c1fc2ce091f43d3dab0b0",
      "blockNumber": 94723,
      "transactionIndex": 2,
      "confirmations": null,
      "from": "0xB0b3385a645Eb80B431224920043447Ab1303eA8",
      "gasPrice": {
        "_hex": "0xce55a843b"
      },
      "gasLimit": {
        "_hex": "0x5208"
      },
      "to": "0x32Be343B94f860124dC4fEe278FDCBD38C102D88",
      "value": {
        "_hex": "0x655a0ccceb95b800"
      },
      "nonce": 2,
      "data": "0x",
      "r": "0x1fc2232bc9316472094ceb3d0c3dafb7e08b60847feadc1ae08cbb3b619af4b8",
      "s": "0x7359f753ba810118cef3602cad98b5f8879f2718279c883eb61f3f070abdddbd",
      "v": 28,
      "creates": null,
      "raw": "0xf86c02850ce55a843b8252089432be343b94f860124dc4fee278fdcbd38c102d8888655a0ccceb95b800801ca01fc2232bc9316472094ceb3d0c3dafb7e08b60847feadc1ae08cbb3b619af4b8a07359f753ba810118cef3602cad98b5f8879f2718279c883eb61f3f070abdddbd",
      "networkId": 0,
      "chainId": 0
    }
  ]
}