{
  "hash": "0x3b2bdb063bbbb317d73a3186db1ae8c4edcf7f1139eea8aaa5f77d815fb1b686",
  "parentHash": "0x3ac46aa4ca8a7516cff3c1bf721e60fa6d40320a3b4d9b1fff8a0f44cb94785e",
  "number": 95418,
  "timestamp": 1439723918,
  "nonce": "0xcfb737746e95075e",
  "difficulty": 3572413753457,
  "gasLimit": {
    "_hex": "0x2fefd5"
  },
  "gasUsed": {
    "_hex": "0x1a940"
  },
  "miner": "0xe6A7a1d47ff21B6321162AEA7C6CB457D5476Bca",
  "extraData": "0x476574682f76312e302e312d38326566323666362f6c696e75782f676f312e34",
  "transactions": [
    {
      "hash": "0xe892368ac7d866ff83899aabd56005ba5b3349868470169b003d1ff1a327419d",
      "blockHash": "0x3b2bdb063bbbb317d73a3186db1ae8c4edcf7f1139eea8aaa5f77d815fb1b686",
      "blockNumber": 95418,
      "transactionIndex": 0,
      "confirmations": null,
      "from": "0xc469E0161968f12A38E4c1A1c153a18207e040c8",
      "gasPrice": {
        "_hex": "0xdfb6c5507"
      },
      "gasLimit": {
        "_hex": "0x3d090"
      },
      "to": "0x4d6387f3B967dA39B11DE111158D49754C31985d",
      "value": {
        "_hex": "0x0"
      },
      "nonce": 4,
      "data": "0xf010264a000000000000000000000000000000000000000000000000000000000000000200000000000000000000000000000000000000000000000000000000000000a0000000000000000000000000000000000000000000000000016345785d8a0000000000000000000000000000c469e0161968f12a38e4c1a1c153a18207e040c8000000000000000000000000009a9c07b91d40cce1240d517f9722b4f079a86b0000000000000000000000000000000000000000000000000000000000000022314858416b567468516268586d3861365a755a41374c4759685a6a66734243347954000000000000000000000000000000000000000000000000000000000000",
      "r": "0x73a614787ed19bb6b0eef7de4d5bc9b0cfde9c4ea663f09206e290566a481bfc",
      "s": "0x4ce5e2771a8b2a75cbf9c0c65a3bd416a5bf9a4655a6eb7a4a2796dd94fcb618",
      "v": 28,
      "creates": null,
      "raw": "0xf9016b04850dfb6c55078303d090944d6387f3b967da39b11de111158d49754c31985d80b90104f010264a000000000000000000000000000000000000000000000000000000000000000200000000000000000000000000000000000000000000000000000000000000a0000000000000000000000000000000000000000000000000016345785d8a0000000000000000000000000000c469e0161968f12a38e4c1a1c153a18207e040c8000000000000000000000000009a9c07b91d40cce1240d517f9722b4f079a86b0000000000000000000000000000000000000000000000000000000000000022314858416b567468516268586d3861365a755a41374c4759685a6a667342433479540000000000000000000000000000000000000000000000000000000000001ca073a614787ed19bb6b0eef7de4d5bc9b0cfde9c4ea663f09206e290566a481bfca04ce5e2771a8b2a75cbf9c0c65a3bd416a5bf9a4655a6eb7a4a2796dd94fcb618",
      "networkId": 0,
      "chainId": 0
    },
    {
      "hash": "0x572890982f53b22be76ec2f627c18d3f8c1f3766bce534b64d70ddb2e68802a2",
      "blockHash": "0x3b2bdb063bbbb317d73a3186db1ae8c4edcf7f1139eea8aaa5f77d815fb1b686",
      "blockNumber": 95418,
      "transactionIndex": 1,
      "confirmations": null,
      "from": "0xc469E0161968f12A38E4c1A1c153a18207e040c8",
      "gasPrice": {
        "_hex": "0xdfb6c5507"
      },
      "gasLimit": {
        "_hex": "0x3d090"
      },
      "to": "0x4d6387f3B967dA39B11DE111158D49754C31985d",
      "value": {
        "_hex": "0x0"
      },
      "nonce": 5,
      "data": "0xf010264a000000000000000000000000000000000000000000000000000000000000000200000000000000000000000000000000000000000000000000000000000000a0000000000000000000000000000000000000000000000000016345785d8a0000000000000000000000000000c469e0161968f12a38e4c1a1c153a18207e040c80000000000000000000000000d82cd113dc35ddda93f38166cd5cde8b88e36a10000000000000000000000000000000000000000000000000000000000000022314858416b567468516268586d3861365a755a41374c4759685a6a66734243347954000000000000000000000000000000000000000000000000000000000000",
      "r": "0x58091422937132271ce59b238b73caed5f94fa2a9a1c54eb4e5d498044e003e9",
      "s": "0x3218dfdc991286c63b8930f5eac2a2be1a38b639cb0d0d45dc81c3514558614b",
      "v": 28,
      "creates": null,
      "raw": "0xf9016b05850dfb6c55078303d090944d6387f3b967da39b11de111158d49754c31985d80b90104f010264a000000000000000000000000000000000000000000000000000000000000000200000000000000000000000000000000000000000000000000000000000000a0000000000000000000000000000000000000000000000000016345785d8a0000000000000000000000000000c469e0161968f12a38e4c1a1c153a18207e040c80000000000000000000000000d82cd113dc35ddda93f38166cd5cde8b88e36a10000000000000000000000000000000000000000000000000000000000000022314858416b567468516268586d3861365a755a41374c4759685a6a667342433479540000000000000000000000000000000000000000000000000000000000001ca058091422937132271ce59b238b73caed5f94fa2a9a1c54eb4e5d498044e003e9a03218dfdc991286c63b8930f5eac2a2be1a38b639cb0d0d45dc81c3514558614b",
      "networkId": 0,
      "chainId": 0
    },
    {
      "hash": "0x9298743110a1484ae2238b16edc33bedd66df342b5ccfcf45a549b2b5819a45d",
      "blockHash": "0x3b2bdb063bbbb317d73a3186db1ae8c4edcf7f1139eea8aaa5f77d815fb1b686",
      "blockNumber": 95418,
      "transactionIndex": 2,
      "confirmations": null,
      "from": "0xdeE4977F74E6Aef6D627191c9A45D2627e331150",
      "gasPrice": {
        "_hex": "0xd63bcc789"
      },
      "gasLimit": {
        "_hex": "0x5208"
      },
      "to": "0x32Be343B94f860124dC4fEe278FDCBD38C102D88",
      "value": {
        "_hex": "0x1a0511eaf085ce000"
      },
      "nonce": 11,
      "data": "0x",
      "r": "0x9258f9b1aaf41cc4f8a3a3c4439e4741c7dceed875bd5a045ef5e41364038da8",
      "s": "0x465afaaef8aa87aecd5d8196882428c1416ba665da0c2c4dca991ee8db483165",
      "v": 27,
      "creates": null,
      "raw": "0xf86d0b850d63bcc7898252089432be343b94f860124dc4fee278fdcbd38c102d888901a0511eaf085ce000801ba09258f9b1aaf41cc4f8a3a3c4439e4741c7dceed875bd5a045ef5e41364038da8a0465afaaef8aa87aecd5d8196882428c1416ba665da0c2c4dca991ee8db483165",
      "networkId": 0,
      "chainId": 0
    }
  ]
}