{
  "hash": "0xa7f1e81d7de7512ec6cb81ff3207436b9d17e0830d6bfefdfdbecef71e5aafa4",
  "parentHash": "0x3e6f9832fd7c153f2aceba17364c9a3ce2d862e8bf0e37d85cd10d8f7fdb5c17",
  "number": 113427,
  "timestamp": 1440023380,
  "nonce": "0x7ae85795e954d332",
  "difficulty": 4464656691105,
  "gasLimit": {
    "_hex": "0x2fefd8"
  },
  "gasUsed": {
    "_hex": "0xf618"
  },
  "miner": "0xe6A7a1d47ff21B6321162AEA7C6CB457D5476Bca",
  "extraData": "0x476574682f76312e302e312d38326566323666362f6c696e75782f676f312e34",
  "transactions": [
    {
      "hash": "0x6d242cb1b387d95de8e257b9ba5f2c2737cecb917fd416b23c86ee76cd525ad6",
      "blockHash": "0xa7f1e81d7de7512ec6cb81ff3207436b9d17e0830d6bfefdfdbecef71e5aafa4",
      "blockNumber": 113427,
      "transactionIndex": 0,
      "confirmations": null,
      "from": "0xB3A0F076C5C07f41dcb2025B92c34F68165FA57d",
      "gasPrice": {
        "_hex": "0xdb1a6ff8f"
      },
      "gasLimit": {
        "_hex": "0x5208"
      },
      "to": "0x32Be343B94f860124dC4fEe278FDCBD38C102D88",
      "value": {
        "_hex": "0x1eae9bb79cf34000"
      },
      "nonce": 0,
      "data": "0x",
      "r": "0xd35d4868ede1f0ec41d9702e7649cb017f2953ed0bbd8b8a482cad4e0b256c35",
      "s": "0x3f10fcf2ab5b890d3e5cb0d42eb9ff70606529f8cb7a4b482de2489cbc2ad266",
      "v": 27,
      "creates": null,
      "raw": "0xf86c80850db1a6ff8f8252089432be343b94f860124dc4fee278fdcbd38c102d88881eae9bb79cf34000801ba0d35d4868ede1f0ec41d9702e7649cb017f2953ed0bbd8b8a482cad4e0b256c35a03f10fcf2ab5b890d3e5cb0d42eb9ff70606529f8cb7a4b482de2489cbc2ad266",
      "networkId": 0,
      "chainId": 0
    },
    {
      "hash": "0x3278f2ef82353f779af340c5e33c488766f07741b2b6a3d0fd7a80336bb6e158",
      "blockHash": "0xa7f1e81d7de7512ec6cb81ff3207436b9d17e0830d6bfefdfdbecef71e5aafa4",
      "blockNumber": 113427,
      "transactionIndex": 1,
      "confirmations": null,
      "from": "0x66C8c4127D9Ab859531c8ee3F8f2025AFba1BAa8",
      "gasPrice": {
        "_hex": "0xdb1a6ff8f"
      },
      "gasLimit": {
        "_hex": "0x5208"
      },
      "to": "0x32Be343B94f860124dC4fEe278FDCBD38C102D88",
      "value": {
        "_hex": "0x102f006c9cd636000"
      },
      "nonce": 0,
      "data": "0x",
      "r": "0x591f2061ef48b3fca752455f55430610c6ad590ac2ac168861ddf106cd4a858a",
      "s": "0x7cd653e20646fe986b6e0ff5f2dc94e3a6ab20d3da81144cc22e6dea5921606e",
      "v": 28,
      "creates": null,
      "raw": "0xf86d80850db1a6ff8f8252089432be343b94f860124dc4fee278fdcbd38c102d88890102f006c9cd636000801ca0591f2061ef48b3fca752455f55430610c6ad590ac2ac168861ddf106cd4a858aa07cd653e20646fe986b6e0ff5f2dc94e3a6ab20d3da81144cc22e6dea5921606e",
      "networkId": 0,
      "chainId": 0
    },
    {
      "hash": "0x8d9dc2a0bd6cb633d915791e45101979cf5b7986cb0c3a97bc8047ff9e62dfd2",
      "blockHash": "0xa7f1e81d7de7512ec6cb81ff3207436b9d17e0830d6bfefdfdbecef71e5aafa4",
      "blockNumber": 113427,
      "transactionIndex": 2,
      "confirmations": null,
      "from": "0xee5379D0c1ca47327368027455074C26D9952628",
      "gasPrice": {
        "_hex": "0xd61268c52"
      },
      "gasLimit": {
        "_hex": "0x15f90"
      },
      "to": "0xB8796061FcCcC0c40BD2060d95d6cff928bD1C1B",
      "value": {
        "_hex": "0x1280361fd23150000"
      },
      "nonce": 25,
      "data": "0x",
      "r": "0x4fe9ae9616160ae8db0ba89f0a1884767e07245f89494a24d521fdb2f8a0cbb5",
      "s": "0x278d1b0a5794d15762676deb0e717faff531fce7baa6bd8da778140e40838370",
      "v": 28,
      "creates": null,
      "raw": "0xf86e19850d61268c5283015f9094b8796061fcccc0c40bd2060d95d6cff928bd1c1b8901280361fd23150000801ca04fe9ae9616160ae8db0ba89f0a1884767e07245f89494a24d521fdb2f8a0cbb5a0278d1b0a5794d15762676deb0e717faff531fce7baa6bd8da778140e40838370",
      "networkId": 0,
      "chainId": 0
    }
  ]
}