{
  "hash": "0xca4e71077935a6e3c5899b69e3647be420f6d44a2ef32ab85d57e73812ed7794",
  "parentHash": "0xe9481c7e73d8f081d021d19b7e55410f38e6c8fa22b76bb191917bceff82e7c9",
  "number": 87684,
  "timestamp": 1439595887,
  "nonce": "0x1602a47bed5aa927",
  "difficulty": 3149394834841,
  "gasLimit": {
    "_hex": "0x2fefd8"
  },
  "gasUsed": {
    "_hex": "0x5208"
  },
  "miner": "0xa6BDc31c431B8F97848c9D60cbbe9660dc450eB7",
  "extraData": "0x",
  "transactions": [
    {
      "hash": "0x4abb8708d8c9b6fa2d08a41270c0d46bdb9f742290fb8d300d714d7359ea118c",
      "blockHash": "0xca4e71077935a6e3c5899b69e3647be420f6d44a2ef32ab85d57e73812ed7794",
      "blockNumber": 87684,
      "transactionIndex": 0,
      "confirmations": null,
      "from": "0x32Be343B94f860124dC4fEe278FDCBD38C102D88",
      "gasPrice": {
        "_hex": "0xcb4fad342"
      },
      "gasLimit": {
        "_hex": "0x5208"
      },
      "to": "0x72bb27Cb99f3E2C2CF90A98F707d30E4A201A071",
      "value": {
        "_hex": "0x6200d1e5a73630000"
      },
      "nonce": 794,
      "data": "0x",
      "r": "0x20c10a5ce8b0f13f1523ec6b3990caff122a83608456686980888b2865a780fa",
      "s": "0x130a8a307d89502b23c3d9f7250dde1c2993c6de7069abfb946404bd46f038cc",
      "v": 27,
      "creates": null,
      "raw": "0xf86f82031a850cb4fad3428252089472bb27cb99f3e2c2cf90a98f707d30e4a201a0718906200d1e5a73630000801ba020c10a5ce8b0f13f1523ec6b3990caff122a83608456686980888b2865a780faa0130a8a307d89502b23c3d9f7250dde1c2993c6de7069abfb946404bd46f038cc",
      "networkId": 0,
      "chainId": 0
    }
  ]
}