{
  "hash": "0x6c72d172288da7c33672260ad83ef70cdf25741dd33d078ba7f35786baf60e94",
  "parentHash": "0x0477f9fb6a5478d7958a86a2cddf7faf0be6b72371729ae6c42713cc610efacd",
  "number": 83620,
  "timestamp": 1439538071,
  "nonce": "0x6081fddeff068b68",
  "difficulty": 2449151505118,
  "gasLimit": {
    "_hex": "0x2fefd8"
  },
  "gasUsed": {
    "_hex": "0x5208"
  },
  "miner": "0xe6A7a1d47ff21B6321162AEA7C6CB457D5476Bca",
  "extraData": "0x476574682f76312e302e312d38326566323666362f6c696e75782f676f312e34",
  "transactions": [
    {
      "hash": "0xe2b6358c070903d54da34ce39861cd1cc41cbf8046cdc4ac6fc71614010782ce",
      "blockHash": "0x6c72d172288da7c33672260ad83ef70cdf25741dd33d078ba7f35786baf60e94",
      "blockNumber": 83620,
      "transactionIndex": 0,
      "confirmations": null,
      "from": "0x4Fd8D6FA1CF91D458FC6F798c9c18735bA0B9D61",
      "gasPrice": {
        "_hex": "0x1023bb8b67f"
      },
      "gasLimit": {
        "_hex": "0x15f90"
      },
      "to": "0xA86d21e804Fd088C09B7Eba8BB78d726b1F75231",
      "value": {
        "_hex": "0xde0b6b3a7640000"
      },
      "nonce": 0,
      "data": "0x",
      "r": "0x9de29fa618042ddce846e7a45d35506e9952e0b24e4a6dcca536f51c572b06e1",
      "s": "0x59290e384e11f2063bcf4d491c48f89dd840e88743f83c8694c3a97b42a9da9e",
      "v": 27,
      "creates": null,
      "raw": "0xf86e808601023bb8b67f83015f9094a86d21e804fd088c09b7eba8bb78d726b1f75231880de0b6b3a7640000801ba09de29fa618042ddce846e7a45d35506e9952e0b24e4a6dcca536f51c572b06e1a059290e384e11f2063bcf4d491c48f89dd840e88743f83c8694c3a97b42a9da9e",
      "networkId": 0,
      "chainId": 0
    }
  ]
}