{
  "hash": "0x067cb6c96e71a5246bf774551973a3139ed5461b2b202431520dc934f238fedc",
  "parentHash": "0x64370d2b5af54b3b31d9593b8a76bcbe469115d70f87e1439756464112964bc1",
  "number": 121666,
  "timestamp": 1440180611,
  "nonce": "0x0a82130d50650950",
  "difficulty": 4479917757815,
  "gasLimit": {
    "_hex": "0x2fefd8"
  },
  "gasUsed": {
    "_hex": "0xa410"
  },
  "miner": "0x608f4b86321a68453f9adf6F06F7Fc3E621739ad",
  "extraData": "0xd783010002844765746887676f312e342e32856c696e7578",
  "transactions": [
    {
      "hash": "0x04f6b47126d32e64265c92a6f888c4d87ccfc03dfcb99e4276a742ab7a8cd0d9",
      "blockHash": "0x067cb6c96e71a5246bf774551973a3139ed5461b2b202431520dc934f238fedc",
      "blockNumber": 121666,
      "transactionIndex": 0,
      "confirmations": null,
      "from": "0x32Be343B94f860124dC4fEe278FDCBD38C102D88",
      "gasPrice": {
        "_hex": "0xdc8c8b763"
      },
      "gasLimit": {
        "_hex": "0x5208"
      },
      "to": "0xBdF25376dA0767EfBF7eE3dCAe463ECe5572bFF3",
      "value": {
        "_hex": "0x9a3c7074d2e0b0000"
      },
      "nonce": 1568,
      "data": "0x",
      "r": "0x0835a214023191ad9c5c35df72f95d76760117cc4ef8362d63c9ba6b1cbda05f",
      "s": "0x081a6a06953f411ac45e1a0adc4daa3f2f7c348687c5f0fc401b1268c6813cf9",
      "v": 28,
      "creates": null,
      "raw": "0xf86f820620850dc8c8b76382520894bdf25376da0767efbf7ee3dcae463ece5572bff38909a3c7074d2e0b0000801ca00835a214023191ad9c5c35df72f95d76760117cc4ef8362d63c9ba6b1cbda05fa0081a6a06953f411ac45e1a0adc4daa3f2f7c348687c5f0fc401b1268c6813cf9",
      "networkId": 0,
      "chainId": 0
    },
    {
      "hash": "0x6789d6a6ece264359d2b33cefee5c16c286918d11df4dc3402a4372f821e7a4d",
      "blockHash": "0x067cb6c96e71a5246bf774551973a3139ed5461b2b202431520dc934f238fedc",
      "blockNumber": 121666,
      "transactionIndex": 1,
      "confirmations": null,
      "from": "0x32Be343B94f860124dC4fEe278FDCBD38C102D88",
      "gasPrice": {
        "_hex": "0xdc8c8b763"
      },
      "gasLimit": {
        "_hex": "0x5208"
      },
      "to": "0xE72e1B27Cf4CeD887E7858eCBA8B27A8763332B9",
      "value": {
        "_hex": "0xdbdd4ba5e270c00"
      },
      "nonce": 1569,
      "data": "0x",
      "r": "0xe3d7e9a8cbcf134678afb99690797e60ab5e2096ebdc11b4e1d857892476f92f",
      "s": "0x0244f7bc4b5f83ce630ca7cdbc3f3a1981dee565aea71201d583e323b72f85cb",
      "v": 28,
      "creates": null,
      "raw": "0xf86e820621850dc8c8b76382520894e72e1b27cf4ced887e7858ecba8b27a8763332b9880dbdd4ba5e270c00801ca0e3d7e9a8cbcf134678afb99690797e60ab5e2096ebdc11b4e1d857892476f92fa00244f7bc4b5f83ce630ca7cdbc3f3a1981dee565aea71201d583e323b72f85cb",
      "networkId": 0,
      "chainId": 0
    }
  ]
}