{
  "hash": "0xcec906db85f4e438bbcd0d0ca4b3c17ca2859b23c180f96d16471ff41db6e326",
  "parentHash": "0x72e2fe6a42b2a0231f3fd9d767e583fa7e4107648b11813f7587f9c66c993ddb",
  "number": 72180,
  "timestamp": 1439348602,
  "nonce": "0x7fb3f0394eb8f88a",
  "difficulty": 2179164012503,
  "gasLimit": {
    "_hex": "0x2fefd8"
  },
  "gasUsed": {
    "_hex": "0xaec1"
  },
  "miner": "0x9746c7e1ef2bd21FF3997fa467593a89cb852BD0",
  "extraData": "0x476574682f76312e302e312f77696e646f77732f676f312e342e32",
  "transactions": [
    {
      "hash": "0xaacfe684a1e2cc3c8ed696cc377f43fa422a36cfa68387030edd51676fa8da01",
      "blockHash": "0xcec906db85f4e438bbcd0d0ca4b3c17ca2859b23c180f96d16471ff41db6e326",
      "blockNumber": 72180,
      "transactionIndex": 0,
      "confirmations": null,
      "from": "0x17580B766f7453525ca4C6A88b01b50570EA088C",
      "gasPrice": {
        "_hex": "0xdba44afab"
      },
      "gasLimit": {
        "_hex": "0x61a80"
      },
      "to": "0x5Fe5B7546D1628f7348B023A0393de1FC825A4fD",
      "value": {
        "_hex": "0x3782dace9d900000"
      },
      "nonce": 345,
      "data": "0xb595b8b50000000000000000000000000000000000000000000000000000000000000001",
      "r": "0xb1b8941306d5aa9d6850148e93d925695b2e06c946061016522986b9a2a0497d",
      "s": "0x5a1cba578944adbdb41532ab7e05581d0db716838ecdbef9bb54de5ee8b4beb3",
      "v": 28,
      "creates": null,
      "raw": "0xf893820159850dba44afab83061a80945fe5b7546d1628f7348b023a0393de1fc825a4fd883782dace9d900000a4b595b8b500000000000000000000000000000000000000000000000000000000000000011ca0b1b8941306d5aa9d6850148e93d925695b2e06c946061016522986b9a2a0497da05a1cba578944adbdb41532ab7e05581d0db716838ecdbef9bb54de5ee8b4beb3",
      "networkId": 0,
      "chainId": 0
    }
  ]
}