{
  "hash": "0x1f46b86505efcad67a9764a61af5b5f2777cb79312d929d6fc7549a377baaedd",
  "parentHash": "0xa409e0c27bb9b5881b5cd2e149df8121522e41a5058e3357bda0cc5f5add90ba",
  "number": 73872,
  "timestamp": 1439376459,
  "nonce": "0xa502e67614addf1a",
  "difficulty": 2226039499504,
  "gasLimit": {
    "_hex": "0x2fefd8"
  },
  "gasUsed": {
    "_hex": "0xa410"
  },
  "miner": "0xeB1325C8D9d3ea8D74aC11F4B00F1B2367686319",
  "extraData": "0x476574682f76312e302e312f77696e646f77732f676f312e342e32",
  "transactions": [
    {
      "hash": "0x6093188febf09b8c00563efb0e979db967883d8e7b59f026c571a9e5e1df66e4",
      "blockHash": "0x1f46b86505efcad67a9764a61af5b5f2777cb79312d929d6fc7549a377baaedd",
      "blockNumber": 73872,
      "transactionIndex": 0,
      "confirmations": null,
      "from": "0x2b7F73efA4A4CB9Dc35d2a340A277023e184D505",
      "gasPrice": {
        "_hex": "0xd6dc5cd96"
      },
      "gasLimit": {
        "_hex": "0x5208"
      },
      "to": "0x32Be343B94f860124dC4fEe278FDCBD38C102D88",
      "value": {
        "_hex": "0x2086a7e77bd8a00000"
      },
      "nonce": 1,
      "data": "0x",
      "r": "0x7e94660e03317f6ed130791e5b9ad17ddb975247378e6bb1dcf477e422179ac6",
      "s": "0x494d06ee6fbc56889c59f5846e78634b44f66b3f8ef4c02cc6195bb1c4373ed0",
      "v": 27,
      "creates": null,
      "raw": "0xf86d01850d6dc5cd968252089432be343b94f860124dc4fee278fdcbd38c102d88892086a7e77bd8a00000801ba07e94660e03317f6ed130791e5b9ad17ddb975247378e6bb1dcf477e422179ac6a0494d06ee6fbc56889c59f5846e78634b44f66b3f8ef4c02cc6195bb1c4373ed0",
      "networkId": 0,
      "chainId": 0
    },
    {
      "hash": "0x2c9eebca54a74ee774d5e716b91935811a2eda463a41a3507a87e9a0e3928d0d",
      "blockHash": "0x1f46b86505efcad67a9764a61af5b5f2777cb79312d929d6fc7549a377baaedd",
      "blockNumber": 73872,
      "transactionIndex": 1,
      "confirmations": null,
      "from": "0xF5EeDc192aB70b08D8354384aD94efD095849E00",
      "gasPrice": {
        "_hex": "0xd6dc5cd96"
      },
      "gasLimit": {
        "_hex": "0x5208"
      },
      "to": "0x32Be343B94f860124dC4fEe278FDCBD38C102D88",
      "value": {
        "_hex": "0xbdf37fe1bb8cb8000"
      },
      "nonce": 21,
      "data": "0x",
      "r": "0xf701baeaf06e11d64d7e6a5b21a83bed7cde9b5c5cf74a79f9d6a8c5ed68aa2b",
      "s": "0x2cc0d88ce0bb06aff2e5b0d61547130352b792f6004011ee97eabafd96cc82c7",
      "v": 27,
      "creates": null,
      "raw": "0xf86d15850d6dc5cd968252089432be343b94f860124dc4fee278fdcbd38c102d88890bdf37fe1bb8cb8000801ba0f701baeaf06e11d64d7e6a5b21a83bed7cde9b5c5cf74a79f9d6a8c5ed68aa2ba02cc0d88ce0bb06aff2e5b0d61547130352b792f6004011ee97eabafd96cc82c7",
      "networkId": 0,
      "chainId": 0
    }
  ]
}