{
  "hash": "0xf99910eacb3692ab7e476369a7056ee223261bbfc935135853ce1dffa23a4d99",
  "parentHash": "0x62487c596af9eaf3c1fb982e2c9f61f29e6139b610fd69959e74d84944b2a5ef",
  "number": 84359,
  "timestamp": 1439548628,
  "nonce": "0x5cff446a6f8dd6ee",
  "difficulty": 2540280838098,
  "gasLimit": {
    "_hex": "0x2fefd8"
  },
  "gasUsed": {
    "_hex": "0x5208"
  },
  "miner": "0x580992B51e3925e23280EfB93d3047C82f17E038",
  "extraData": "0x476574682f76312e302e312f6c696e75782f676f312e342e32",
  "transactions": [
    {
      "hash": "0xc646a919de98138848a472fcb7ff9fb5454d8b7e71b526e0516eb79ac1f1ea7f",
      "blockHash": "0xf99910eacb3692ab7e476369a7056ee223261bbfc935135853ce1dffa23a4d99",
      "blockNumber": 84359,
      "transactionIndex": 0,
      "confirmations": null,
      "from": "0xaA35779Ef4dfBEd0B3D6F46F5f11cb86261B17A5",
      "gasPrice": {
        "_hex": "0xd7d40ace3"
      },
      "gasLimit": {
        "_hex": "0x61a8"
      },
      "to": "0x30beD8049947963394D93412326225E4e3123601",
      "value": {
        "_hex": "0x71cc408df6340000"
      },
      "nonce": 5,
      "data": "0x",
      "r": "0x20c98970371566ba6a8fcad92753de5471ac7f862e09c1acf9a1926a99ce0c86",
      "s": "0x53a7c6bbab11000c25c01614b0d15abe9163fd399c0ae5f0aae3dc3e97b96938",
      "v": 27,
      "creates": null,
      "raw": "0xf86c05850d7d40ace38261a89430bed8049947963394d93412326225e4e31236018871cc408df6340000801ba020c98970371566ba6a8fcad92753de5471ac7f862e09c1acf9a1926a99ce0c86a053a7c6bbab11000c25c01614b0d15abe9163fd399c0ae5f0aae3dc3e97b96938",
      "networkId": 0,
      "chainId": 0
    }
  ]
}