{
  "hash": "0x37001d21326268c0adb6a5fab9441bda84accd0d0031e3270250dcc3067181e0",
  "parentHash": "0x8162af9f9106fecea0f910712f19ca4626fdbfb6b78a9dbca9f627e52c540b84",
  "number": 75833,
  "timestamp": 1439410089,
  "nonce": "0x100495c2949e165e",
  "difficulty": 2230959215128,
  "gasLimit": {
    "_hex": "0x2fefd8"
  },
  "gasUsed": {
    "_hex": "0x5208"
  },
  "miner": "0x753562eEA69CD2D342A9c07EDD49b9753dc0F01e",
  "extraData": "0x476574682f76312e302e312f6c696e75782f676f312e342e32",
  "transactions": [
    {
      "hash": "0xea7ac1bd902293871e83511d0a02f4bbb90c05b51c443d8330bf7b1644a784fb",
      "blockHash": "0x37001d21326268c0adb6a5fab9441bda84accd0d0031e3270250dcc3067181e0",
      "blockNumber": 75833,
      "transactionIndex": 0,
      "confirmations": null,
      "from": "0x48659D8f8C9A2FD44F68daA55d23A608FBE500DC",
      "gasPrice": {
        "_hex": "0xce3cab952"
      },
      "gasLimit": {
        "_hex": "0x61a8"
      },
      "to": "0xBB33a4b72d92FA335a3b591Ce7eE217f7a7338C1",
      "value": {
        "_hex": "0x556f64c1fe7fa0000"
      },
      "nonce": 3,
      "data": "0x",
      "r": "0x800f43c0bcac910869207a7e8ca59ed54b222e5bec8f314bf61c9449d18eeb9c",
      "s": "0x1f9e7143032e02a3a99ee79ce6c7dfbc5bab75446aedcc9f1792917999759f42",
      "v": 27,
      "creates": null,
      "raw": "0xf86d03850ce3cab9528261a894bb33a4b72d92fa335a3b591ce7ee217f7a7338c1890556f64c1fe7fa0000801ba0800f43c0bcac910869207a7e8ca59ed54b222e5bec8f314bf61c9449d18eeb9ca01f9e7143032e02a3a99ee79ce6c7dfbc5bab75446aedcc9f1792917999759f42",
      "networkId": 0,
      "chainId": 0
    }
  ]
}