{
  "hash": "0x3b0f880df91a7f10db6bb9bd1e945b454c5faa54d5e9ae676f665c89025c84dc",
  "parentHash": "0x40790684c0df92b81746456cb4bf2f1d744eed25048bf6266063a77bc603d107",
  "number": 79728,
  "timestamp": 1439474226,
  "nonce": "0x7dfedfd4a1faf552",
  "difficulty": 2344941105758,
  "gasLimit": {
    "_hex": "0x2fefd8"
  },
  "gasUsed": {
    "_hex": "0x8efd"
  },
  "miner": "0x2134e2a2b718DCa96580ECAC31E653Ea1fdd58DA",
  "extraData": "0x476574682f76312e302e312f77696e646f77732f676f312e342e32",
  "transactions": [
    {
      "hash": "0x38cb353b6aa2914a796e4df981c624af9cd1db5e2df276a84e2b2c51b649776b",
      "blockHash": "0x3b0f880df91a7f10db6bb9bd1e945b454c5faa54d5e9ae676f665c89025c84dc",
      "blockNumber": 79728,
      "transactionIndex": 0,
      "confirmations": null,
      "from": "0x775e18be7A50a0Abb8A4e82B1bD697D79F31fE04",
      "gasPrice": {
        "_hex": "0xcc46c6849"
      },
      "gasLimit": {
        "_hex": "0xf4240"
      },
      "to": "0xde0B295669a9FD93d5F28D9Ec85E40f4cb697BAe",
      "value": {
        "_hex": "0x0"
      },
      "nonce": 3,
      "data": "0xf00d4b5d0000000000000000000000003fb1cd2cd96c6d5c0b5eb3322d807b34482481d4000000000000000000000000c2c2c26961e5560081003bb157549916b21744db",
      "r": "0x23f5d8b5c7d9e19cfa3623b8d5cf572789fcc1faec31b644c67eb52ff597f035",
      "s": "0x4dadb4c2a0178b6babe17e92abcfaf953bce3a0ef19de4840917242ef31d6243",
      "v": 27,
      "creates": null,
      "raw": "0xf8aa03850cc46c6849830f424094de0b295669a9fd93d5f28d9ec85e40f4cb697bae80b844f00d4b5d0000000000000000000000003fb1cd2cd96c6d5c0b5eb3322d807b34482481d4000000000000000000000000c2c2c26961e5560081003bb157549916b21744db1ba023f5d8b5c7d9e19cfa3623b8d5cf572789fcc1faec31b644c67eb52ff597f035a04dadb4c2a0178b6babe17e92abcfaf953bce3a0ef19de4840917242ef31d6243",
      "networkId": 0,
      "chainId": 0
    }
  ]
}