{
  "hash": "0xb9ca4aeb78076540edb9f99739d03133413548ec1d653eccab53dc7f15802e0f",
  "parentHash": "0x6498a09a4783cedc8331f043e3aa19efe08f3aabf758405f48b5527c239c67e3",
  "number": 65258,
  "timestamp": 1439233941,
  "nonce": "0x5f690c35812b2606",
  "difficulty": 1937895165243,
  "gasLimit": {
    "_hex": "0x2fefd8"
  },
  "gasUsed": {
    "_hex": "0xa410"
  },
  "miner": "0x93641e54c9aA6F9038FE7Adb03629a1747326Cd6",
  "extraData": "0x476574682f76312e302e312f77696e646f77732f676f312e342e32",
  "transactions": [
    {
      "hash": "0x9b8bd5a9a70dc9616fbf6664081fde6a66fb6af2d44b597fc3203d71cb5c2c95",
      "blockHash": "0xb9ca4aeb78076540edb9f99739d03133413548ec1d653eccab53dc7f15802e0f",
      "blockNumber": 65258,
      "transactionIndex": 0,
      "confirmations": null,
      "from": "0x2910543Af39abA0Cd09dBb2D50200b3E800A63D2",
      "gasPrice": {
        "_hex": "0xe02194e19"
      },
      "gasLimit": {
        "_hex": "0x5208"
      },
      "to": "0x3c3Ca5A5a214208bFCA6b54F57A41b10f5fbe873",
      "value": {
        "_hex": "0x20869a71971a7f8000"
      },
      "nonce": 170,
      "data": "0x",
      "r": "0x678de6ac4c96a2e21839de4d88add41e5973bd04c6f619049a78bfe3613b890f",
      "s": "0x786a3df37a436632cc388522c9dfae1316d4b59b373ca644260982c75cbb3105",
      "v": 28,
      "creates": null,
      "raw": "0xf86e81aa850e02194e19825208943c3ca5a5a214208bfca6b54f57a41b10f5fbe8738920869a71971a7f8000801ca0678de6ac4c96a2e21839de4d88add41e5973bd04c6f619049a78bfe3613b890fa0786a3df37a436632cc388522c9dfae1316d4b59b373ca644260982c75cbb3105",
      "networkId": 0,
      "chainId": 0
    },
    {
      "hash": "0xe8442df656a6a9119864e4380d1cba06211068471f1ccd7e48a82d74b0a3b99f",
      "blockHash": "0xb9ca4aeb78076540edb9f99739d03133413548ec1d653eccab53dc7f15802e0f",
      "blockNumber": 65258,
      "transactionIndex": 1,
      "confirmations": null,
      "from": "0xf64EE50154E0D74461966B4bB90139C010BCA68B",
      "gasPrice": {
        "_hex": "0xd69b48315"
      },
      "gasLimit": {
        "_hex": "0x15f90"
      },
      "to": "0xc97b6E47df229442524F8f210926557900f81574",
      "value": {
        "_hex": "0x8c2a687ce7720000"
      },
      "nonce": 5,
      "data": "0x",
      "r": "0xf26279176aea20e6cee9236571b7a450c01e6be964cdd01a13983d7eeab694e4",
      "s": "0x3c882bb0a6b2254de8847cd91da8f7d46ede7b44059776d58b3d3c1373b0547b",
      "v": 28,
      "creates": null,
      "raw": "0xf86d05850d69b4831583015f9094c97b6e47df229442524f8f210926557900f81574888c2a687ce7720000801ca0f26279176aea20e6cee9236571b7a450c01e6be964cdd01a13983d7eeab694e4a03c882bb0a6b2254de8847cd91da8f7d46ede7b44059776d58b3d3c1373b0547b",
      "networkId": 0,
      "chainId": 0
    }
  ]
}