{
  "hash": "0xa2ef2ddc2b94d9a7b74a77c0a0bb796521e570e463ea87bc94896a7732af607a",
  "parentHash": "0x3cdc3b1e662e95554674f26da04ac908e3b2a34a06bfbfeadf980f07a30f92eb",
  "number": 80270,
  "timestamp": 1439482893,
  "nonce": "0xe1e2942c9a082a59",
  "difficulty": 2384041696362,
  "gasLimit": {
    "_hex": "0x2fefd8"
  },
  "gasUsed": {
    "_hex": "0x6ed7"
  },
  "miner": "0x6DE55b563cE6E319cCB403032Da3BE5Ad4ec4FcF",
  "extraData": "0x",
  "transactions": [
    {
      "hash": "0xd5373518e94bffaaa8d33cee31536302fe26519e3e9c344ce469299995d0d23e",
      "blockHash": "0xa2ef2ddc2b94d9a7b74a77c0a0bb796521e570e463ea87bc94896a7732af607a",
      "blockNumber": 80270,
      "transactionIndex": 0,
      "confirmations": null,
      "from": "0x87C5B5874A18B4306DF8a752a6C8cc3E82daFc19",
      "gasPrice": {
        "_hex": "0x104d322968a"
      },
      "gasLimit": {
        "_hex": "0x493e0"
      },
      "to": "0xC4c51de1AbF5D60DBd329eC0F999Fd8f021ae9fC",
      "value": {
        "_hex": "0x0"
      },
      "nonce": 158,
      "data": "0xbd66528a6b6b6b0000000000000000000000000000000000000000000000000000000000",
      "r": "0xde08ddf07af8c6085efcb00758597bacba990138c6f3283b94227194c77bac84",
      "s": "0x46bd6e9d36b09100798175d61ace48c6d4b12e511032d245db7b48a3d9d9caf2",
      "v": 28,
      "creates": null,
      "raw": "0xf88b819e860104d322968a830493e094c4c51de1abf5d60dbd329ec0f999fd8f021ae9fc80a4bd66528a6b6b6b00000000000000000000000000000000000000000000000000000000001ca0de08ddf07af8c6085efcb00758597bacba990138c6f3283b94227194c77bac84a046bd6e9d36b09100798175d61ace48c6d4b12e511032d245db7b48a3d9d9caf2",
      "networkId": 0,
      "chainId": 0
    }
  ]
}