{
  "hash": "0x40f662cf37dda8663bd051980e3d45dd74ad97ca635e5c34faf791818db6ff28",
  "parentHash": "0x9dfa928feba08d51cd05ccb6833a864b469f671fc32985ba6b7656d8622fab1e",
  "number": 50642,
  "timestamp": 1438992446,
  "nonce": "0x0577e235be401c3a",
  "difficulty": 1526702814691,
  "gasLimit": {
    "_hex": "0x6e347"
  },
  "gasUsed": {
    "_hex": "0x546c"
  },
  "miner": "0x0Cb6EEF179Ba9E7036f95bEEB01e250ab85A8c88",
  "extraData": "0x476574682f76312e302e302f77696e646f77732f676f312e342e32",
  "transactions": [
    {
      "hash": "0x335fd0ec24a3ea7f0464ee91820f732ea83c4c2c2e70d9dbe195f6d369504a5c",
      "blockHash": "0x40f662cf37dda8663bd051980e3d45dd74ad97ca635e5c34faf791818db6ff28",
      "blockNumber": 50642,
      "transactionIndex": 0,
      "confirmations": null,
      "from": "0x051d424276b21239665186133d653Bb8b1862F89",
      "gasPrice": {
        "_hex": "0x110c8f7d8de"
      },
      "gasLimit": {
        "_hex": "0xc350"
      },
      "to": "0x2910543Af39abA0Cd09dBb2D50200b3E800A63D2",
      "value": {
        "_hex": "0x35ab028ac154b80000"
      },
      "nonce": 0,
      "data": "0x454e304652434b4630",
      "r": "0x1b33b40920bab6837fcadbffa949cc698b9d81bced73fe85a912a8b9c0e2fe40",
      "s": "0x17e34cf13d8ab491d092e347c8e145bb54c20cbe94e4b0a034e5b33b6917be75",
      "v": 27,
      "creates": null,
      "raw": "0xf87780860110c8f7d8de82c350942910543af39aba0cd09dbb2d50200b3e800a63d28935ab028ac154b8000089454e304652434b46301ba01b33b40920bab6837fcadbffa949cc698b9d81bced73fe85a912a8b9c0e2fe40a017e34cf13d8ab491d092e347c8e145bb54c20cbe94e4b0a034e5b33b6917be75",
      "networkId": 0,
      "chainId": 0
    }
  ]
}