{
  "hash": "0xc4ad913d6c205fd289bbc6e9c0202d0b9886016f348df331c807080b8145d0bf",
  "parentHash": "0xf2f086230a0222c1b4f4dd402825815fdbd800958c5f878a3908917ce20971cf",
  "number": 74288,
  "timestamp": 1439383776,
  "nonce": "0x9307c56b87f3ac1d",
  "difficulty": 2204297315792,
  "gasLimit": {
    "_hex": "0x2fefd8"
  },
  "gasUsed": {
    "_hex": "0x3f7c2"
  },
  "miner": "0x3738B70e6241841FFb3e1f733d77C15EBc227278",
  "extraData": "0x476574682f76312e302e302f77696e646f77732f676f312e342e32",
  "transactions": [
    {
      "hash": "0xaaefb87c39382856cfc064e97a0df8b0b430ab0a862ca50c242efb98accfcf28",
      "blockHash": "0xc4ad913d6c205fd289bbc6e9c0202d0b9886016f348df331c807080b8145d0bf",
      "blockNumber": 74288,
      "transactionIndex": 0,
      "confirmations": null,
      "from": "0x87C5B5874A18B4306DF8a752a6C8cc3E82daFc19",
      "gasPrice": {
        "_hex": "0x10d21c45f15"
      },
      "gasLimit": {
        "_hex": "0x493e0"
      },
      "to": "0x88A91FD7Fb8AAEa8cDAD2C990f1DBDcd28022a02",
      "value": {
        "_hex": "0x0"
      },
      "nonce": 11,
      "data": "0x2e1a7d4d0000000000000000000000000000000000000000000000004563918244f40000",
      "r": "0x4a8b98e21a9c9be392ee6f70278fabcf51b083a63dbcf3604045805ca0d1f318",
      "s": "0x0687240e1b8d4c48dda3dd35b7287ca7d836f68c9f70a833f90c55d9395dd3b8",
      "v": 27,
      "creates": null,
      "raw": "0xf88a0b86010d21c45f15830493e09488a91fd7fb8aaea8cdad2c990f1dbdcd28022a0280a42e1a7d4d0000000000000000000000000000000000000000000000004563918244f400001ba04a8b98e21a9c9be392ee6f70278fabcf51b083a63dbcf3604045805ca0d1f318a00687240e1b8d4c48dda3dd35b7287ca7d836f68c9f70a833f90c55d9395dd3b8",
      "networkId": 0,
      "chainId": 0
    },
    {
      "hash": "0x65cfd1c328dc05d5c97573f6a9b7499ef42313520ec7b98e98911781780d2705",
      "blockHash": "0xc4ad913d6c205fd289bbc6e9c0202d0b9886016f348df331c807080b8145d0bf",
      "blockNumber": 74288,
      "transactionIndex": 1,
      "confirmations": null,
      "from": "0x01Ad0ACFf478127D9d702B1A13599D706cB759b1",
      "gasPrice": {
        "_hex": "0xdf45cd5b4"
      },
      "gasLimit": {
        "_hex": "0x5208"
      },
      "to": "0x32Be343B94f860124dC4fEe278FDCBD38C102D88",
      "value": {
        "_hex": "0x232ec6c5839b06000"
      },
      "nonce": 13,
      "data": "0x",
      "r": "0x7c338cb646c6680dcf96bf42167ced11c66f564585c79a28d269e9f851047489",
      "s": "0x42ec5ce44ab36fc9ca1d63c2999ef5c52993aa90d62a946d3ef505bf2092a709",
      "v": 28,
      "creates": null,
      "raw": "0xf86d0d850df45cd5b48252089432be343b94f860124dc4fee278fdcbd38c102d88890232ec6c5839b06000801ca07c338cb646c6680dcf96bf42167ced11c66f564585c79a28d269e9f851047489a042ec5ce44ab36fc9ca1d63c2999ef5c52993aa90d62a946d3ef505bf2092a709",
      "networkId": 0,
      "chainId": 0
    },
    {
      "hash": "0x847d2204d3ac5611eea89a952cb3ccab98fc662842caf9d90cdbad954eef5652",
      "blockHash": "0xc4ad913d6c205fd289bbc6e9c0202d0b9886016f348df331c807080b8145d0bf",
      "blockNumber": 74288,
      "transactionIndex": 2,
      "confirmations": null,
      "from": "0x771b12Bc207A1c4823e77075B17F8D329ACD77A3",
      "gasPrice": {
        "_hex": "0xdf45cd5b4"
      },
      "gasLimit": {
        "_hex": "0x5208"
      },
      "to": "0x32Be343B94f860124dC4fEe278FDCBD38C102D88",
      "value": {
        "_hex": "0x295c3665636b50000"
      },
      "nonce": 2,
      "data": "0x",
      "r": "0xc5c7eafc5f46c5b70e92fca2738700042eecca055b92f0d493ca8111dd5ed958",
      "s": "0x211eadbcdf39a93fcd3c903f238dc1b218ebd769ca80b3f34d192249ec6b58fb",
      "v": 28,
      "creates": null,
      "raw": "0xf86d02850df45cd5b48252089432be343b94f860124dc4fee278fdcbd38c102d88890295c3665636b50000801ca0c5c7eafc5f46c5b70e92fca2738700042eecca055b92f0d493ca8111dd5ed958a0211eadbcdf39a93fcd3c903f238dc1b218ebd769ca80b3f34d192249ec6b58fb",
      "networkId": 0,
      "chainId": 0
    },
    {
      "hash": "0xdccae1d984397cc269b7029af94678648ffcebdb4c19d067e15b21847a586022",
      "blockHash": "0xc4ad913d6c205fd289bbc6e9c0202d0b9886016f348df331c807080b8145d0bf",
      "blockNumber": 74288,
      "transactionIndex": 3,
      "confirmations": null,
      "from": "0xdCB14605B0EE4F372D223e5DF87aa9e760886D01",
      "gasPrice": {
        "_hex": "0xdf45cd5b4"
      },
      "gasLimit": {
        "_hex": "0x5208"
      },
      "to": "0x32Be343B94f860124dC4fEe278FDCBD38C102D88",
      "value": {
        "_hex": "0x494a9022df9994000"
      },
      "nonce": 2,
      "data": "0x",
      "r": "0x6ad0c4f37a6b7a95484646c6dbab49c88757d2e42224e44b5cd6e7594bf0ac71",
      "s": "0x1a2868130db5f8a06345c1d971ffe639671d81c9cbf504ab8c3f47f6d50f78a8",
      "v": 28,
      "creates": null,
      "raw": "0xf86d02850df45cd5b48252089432be343b94f860124dc4fee278fdcbd38c102d88890494a9022df9994000801ca06ad0c4f37a6b7a95484646c6dbab49c88757d2e42224e44b5cd6e7594bf0ac71a01a2868130db5f8a06345c1d971ffe639671d81c9cbf504ab8c3f47f6d50f78a8",
      "networkId": 0,
      "chainId": 0
    },
    {
      "hash": "0x2b11fe2fac725160eedd32e6fc7b5e5b85318a4cd10967e108c5bb02f52c6e27",
      "blockHash": "0xc4ad913d6c205fd289bbc6e9c0202d0b9886016f348df331c807080b8145d0bf",
      "blockNumber": 74288,
      "transactionIndex": 4,
      "confirmations": null,
      "from": "0xBA7933704d52A3e7fdBb5B5deD29e45213EA1111",
      "gasPrice": {
        "_hex": "0xdf45cd5b4"
      },
      "gasLimit": {
        "_hex": "0x5208"
      },
      "to": "0x32Be343B94f860124dC4fEe278FDCBD38C102D88",
      "value": {
        "_hex": "0x2642b8fe9e86c0000"
      },
      "nonce": 1,
      "data": "0x",
      "r": "0xf731fd6a40aec8ad92182deecff2d9f46941e0b9e78e779483ef067311651478",
      "s": "0x3b924983b4c3572b03885c95040742f262ee55103720203ebd0f4d4aa5857da3",
      "v": 27,
      "creates": null,
      "raw": "0xf86d01850df45cd5b48252089432be343b94f860124dc4fee278fdcbd38c102d888902642b8fe9e86c0000801ba0f731fd6a40aec8ad92182deecff2d9f46941e0b9e78e779483ef067311651478a03b924983b4c3572b03885c95040742f262ee55103720203ebd0f4d4aa5857da3",
      "networkId": 0,
      "chainId": 0
    },
    {
      "hash": "0x003c09603c8123d61e00f48bd167764f38b4c5b1c4f43d7fae2254bab8bdca5f",
      "blockHash": "0xc4ad913d6c205fd289bbc6e9c0202d0b9886016f348df331c807080b8145d0bf",
      "blockNumber": 74288,
      "transactionIndex": 5,
      "confirmations": null,
      "from": "0x27e806e70622d2864e1B1f4426D72FFb0457C83a",
      "gasPrice": {
        "_hex": "0xdf45cd5b4"
      },
      "gasLimit": {
        "_hex": "0x5208"
      },
      "to": "0x32Be343B94f860124dC4fEe278FDCBD38C102D88",
      "value": {
        "_hex": "0x193269896d5d54000"
      },
      "nonce": 10,
      "data": "0x",
      "r": "0xd1d2bcd5528873cb4450023bc3ffde2d02ae51065e4a77ee447ff9c966551cd3",
      "s": "0x126665c4e0786c1cababdf66807089a57fd741cb377d31e2d674022eae2534a7",
      "v": 28,
      "creates": null,
      "raw": "0xf86d0a850df45cd5b48252089432be343b94f860124dc4fee278fdcbd38c102d88890193269896d5d54000801ca0d1d2bcd5528873cb4450023bc3ffde2d02ae51065e4a77ee447ff9c966551cd3a0126665c4e0786c1cababdf66807089a57fd741cb377d31e2d674022eae2534a7",
      "networkId": 0,
      "chainId": 0
    },
    {
      "hash": "0x1f07798410c0b8a1b0817d0c2a0787948e12f3ccf0a2e28ae97b2dbe74a1e55c",
      "blockHash": "0xc4ad913d6c205fd289bbc6e9c0202d0b9886016f348df331c807080b8145d0bf",
      "blockNumber": 74288,
      "transactionIndex": 6,
      "confirmations": null,
      "from": "0x556ca325C21e450b2aFf86D9c8eF0Fa371971c97",
      "gasPrice": {
        "_hex": "0xdf45cd5b4"
      },
      "gasLimit": {
        "_hex": "0x5208"
      },
      "to": "0x32Be343B94f860124dC4fEe278FDCBD38C102D88",
      "value": {
        "_hex": "0x27ab0570185dfc000"
      },
      "nonce": 8,
      "data": "0x",
      "r": "0xe6bdd7943d9417b780594ca04d63f803c261f7f1a03aec8b284e3d13a4ea68af",
      "s": "0x0d60596427ab5138728ccd098e113ef663e60a0e6d34ac846edab86ef1008b8a",
      "v": 27,
      "creates": null,
      "raw": "0xf86d08850df45cd5b48252089432be343b94f860124dc4fee278fdcbd38c102d8889027ab0570185dfc000801ba0e6bdd7943d9417b780594ca04d63f803c261f7f1a03aec8b284e3d13a4ea68afa00d60596427ab5138728ccd098e113ef663e60a0e6d34ac846edab86ef1008b8a",
      "networkId": 0,
      "chainId": 0
    },
    {
      "hash": "0xdb8e9d91cedf7529002b590ae176affcc8c7434af948f5828dc81a2fe9670c09",
      "blockHash": "0xc4ad913d6c205fd289bbc6e9c0202d0b9886016f348df331c807080b8145d0bf",
      "blockNumber": 74288,
      "transactionIndex": 7,
      "confirmations": null,
      "from": "0x853Bff007d269E0526E871360d79d69D602770dc",
      "gasPrice": {
        "_hex": "0xdf45cd5b4"
      },
      "gasLimit": {
        "_hex": "0x5208"
      },
      "to": "0x32Be343B94f860124dC4fEe278FDCBD38C102D88",
      "value": {
        "_hex": "0x6dd53c4b779548000"
      },
      "nonce": 2,
      "data": "0x",
      "r": "0xe89378168ba1bbd58b268f6979696baa57e7a893b6e8605c0c0374fdd7d6170a",
      "s": "0x4fc3151bbb78e57cb5ce3813b7af829b71120360be6407b0a85e997277e89d39",
      "v": 28,
      "creates": null,
      "raw": "0xf86d02850df45cd5b48252089432be343b94f860124dc4fee278fdcbd38c102d888906dd53c4b779548000801ca0e89378168ba1bbd58b268f6979696baa57e7a893b6e8605c0c0374fdd7d6170aa04fc3151bbb78e57cb5ce3813b7af829b71120360be6407b0a85e997277e89d39",
      "networkId": 0,
      "chainId": 0
    },
    {
      "hash": "0xc81edea3925b123398680eb342414c7660b2c5aca32301061cb92d5d11ae21ff",
      "blockHash": "0xc4ad913d6c205fd289bbc6e9c0202d0b9886016f348df331c807080b8145d0bf",
      "blockNumber": 74288,
      "transactionIndex": 8,
      "confirmations": null,
      "from": "0xe72717ae0d6792286968449ABA7d469BCAE1d957",
      "gasPrice": {
        "_hex": "0xdf45cd5b4"
      },
      "gasLimit": {
        "_hex": "0x5208"
      },
      "to": "0x32Be343B94f860124dC4fEe278FDCBD38C102D88",
      "value": {
        "_hex": "0x68a8f24d55ee9c00"
      },
      "nonce": 3,
      "data": "0x",
      "r": "0xb69e4ddeb31866676bad0ed30553777ccd7ee4864874b5e1be9d43c494c7df5d",
      "s": "0x3237c405ac86f328fe9e9a4ed6407d77f806624dd51fc22b849a11cee194e00c",
      "v": 27,
      "creates": null,
      "raw": "0xf86c03850df45cd5b48252089432be343b94f860124dc4fee278fdcbd38c102d888868a8f24d55ee9c00801ba0b69e4ddeb31866676bad0ed30553777ccd7ee4864874b5e1be9d43c494c7df5da03237c405ac86f328fe9e9a4ed6407d77f806624dd51fc22b849a11cee194e00c",
      "networkId": 0,
      "chainId": 0
    },
    {
      "hash": "0x28af199cf1bfcf3ff42db672156b0724bd72874989cf3f761a2736c6f353dd4c",
      "blockHash": "0xc4ad913d6c205fd289bbc6e9c0202d0b9886016f348df331c807080b8145d0bf",
      "blockNumber": 74288,
      "transactionIndex": 9,
      "confirmations": null,
      "from": "0x097738363B1662599ad0777E19461601F5EC8dF9",
      "gasPrice": {
        "_hex": "0xdf45cd5b4"
      },
      "gasLimit": {
        "_hex": "0x5208"
      },
      "to": "0x32Be343B94f860124dC4fEe278FDCBD38C102D88",
      "value": {
        "_hex": "0x5846790d2fbf34000"
      },
      "nonce": 17,
      "data": "0x",
      "r": "0xff78ac35dcdf3945e23446c041779347befa5d53361b2443a69a9ab548db6150",
      "s": "0x537355ccd56a491c70d8ada54f82fe000e0bfea691cb0aa735ddb9ddace71f5c",
      "v": 28,
      "creates": null,
      "raw": "0xf86d11850df45cd5b48252089432be343b94f860124dc4fee278fdcbd38c102d888905846790d2fbf34000801ca0ff78ac35dcdf3945e23446c041779347befa5d53361b2443a69a9ab548db6150a0537355ccd56a491c70d8ada54f82fe000e0bfea691cb0aa735ddb9ddace71f5c",
      "networkId": 0,
      "chainId": 0
    },
    {
      "hash": "0xdeff0695cef73ddc165c2bca397d4526ce00e344019ee2117cfc7841afab8319",
      "blockHash": "0xc4ad913d6c205fd289bbc6e9c0202d0b9886016f348df331c807080b8145d0bf",
      "blockNumber": 74288,
      "transactionIndex": 10,
      "confirmations": null,
      "from": "0xe7523F78ae9eDb81dC7B2A9ca718Ba3776C14f2e",
      "gasPrice": {
        "_hex": "0xdf45cd5b4"
      },
      "gasLimit": {
        "_hex": "0x5208"
      },
      "to": "0x32Be343B94f860124dC4fEe278FDCBD38C102D88",
      "value": {
        "_hex": "0x214c153807cf26000"
      },
      "nonce": 1,
      "data": "0x",
      "r": "0x9c041f0e08e20ba612733ccfd4fca729e2d3d8b26f5ccffef7ec47de6dfae4be",
      "s": "0x404e968fb6731857bb030772a56967bf157118d9f6a3b0a80b58060f57e9c6ae",
      "v": 27,
      "creates": null,
      "raw": "0xf86d01850df45cd5b48252089432be343b94f860124dc4fee278fdcbd38c102d88890214c153807cf26000801ba09c041f0e08e20ba612733ccfd4fca729e2d3d8b26f5ccffef7ec47de6dfae4bea0404e968fb6731857bb030772a56967bf157118d9f6a3b0a80b58060f57e9c6ae",
      "networkId": 0,
      "chainId": 0
    },
    {
      "hash": "0xe9b16f000cced84ab03e93746a459cef6c1dc86fc5d4495ce5b4d6f93eb9c21e",
      "blockHash": "0xc4ad913d6c205fd289bbc6e9c0202d0b9886016f348df331c807080b8145d0bf",
      "blockNumber": 74288,
      "transactionIndex": 11,
      "confirmations": null,
      "from": "0xc0920452d99591a4e8b190632c52754c72F73328",
      "gasPrice": {
        "_hex": "0xdf45cd5b4"
      },
      "gasLimit": {
        "_hex": "0x5208"
      },
      "to": "0x32Be343B94f860124dC4fEe278FDCBD38C102D88",
      "value": {
        "_hex": "0x32f2661c0a1a78000"
      },
      "nonce": 2,
      "data": "0x",
      "r": "0x7e68c623f37e7d54eb91dea623cc3633f935f45d95c5cf98262f6e8de96674be",
      "s": "0x0cdeba65985a8a5cbe2510c5972cf84ddae786caf3d2834a421535f33cf991d2",
      "v": 27,
      "creates": null,
      "raw": "0xf86d02850df45cd5b48252089432be343b94f860124dc4fee278fdcbd38c102d8889032f2661c0a1a78000801ba07e68c623f37e7d54eb91dea623cc3633f935f45d95c5cf98262f6e8de96674bea00cdeba65985a8a5cbe2510c5972cf84ddae786caf3d2834a421535f33cf991d2",
      "networkId": 0,
      "chainId": 0
    }
  ]
}