{
  "hash": "0x014da66810b612a269d38b0a0b6690ead4403c6abf331bbd30956287267188f5",
  "parentHash": "0x601c8a7aba4f6dbe2e54500f1173886105ccbc4a31182a66fabb112a7812ebe2",
  "number": 111892,
  "timestamp": 1439997927,
  "nonce": "0x8bb0df89d4929065",
  "difficulty": 4445893126648,
  "gasLimit": {
    "_hex": "0x2fefd8"
  },
  "gasUsed": {
    "_hex": "0x5208"
  },
  "miner": "0xe6A7a1d47ff21B6321162AEA7C6CB457D5476Bca",
  "extraData": "0x476574682f76312e302e312d38326566323666362f6c696e75782f676f312e34",
  "transactions": [
    {
      "hash": "0x014a51c929147f0d897325c5d52557a6b677e1037d5b40350b376df7c89f7519",
      "blockHash": "0x014da66810b612a269d38b0a0b6690ead4403c6abf331bbd30956287267188f5",
      "blockNumber": 111892,
      "transactionIndex": 0,
      "confirmations": null,
      "from": "0x120A270bbC009644e35F0bB6ab13f95b8199c4ad",
      "gasPrice": {
        "_hex": "0xdddc94a69"
      },
      "gasLimit": {
        "_hex": "0x3d090"
      },
      "to": "0xb7b6e8868e3DfCD6C7EC726C4fda236266841c8C",
      "value": {
        "_hex": "0x27d7e43d7049c00"
      },
      "nonce": 887,
      "data": "0x",
      "r": "0xe7928ce9dce6a847aaca637a8d2356ebedd303130f3fc398fc49d6f94ec4a8aa",
      "s": "0x3547e5bd6cbacd789a82dc20044ac23d9152e45df0b5488367ddb1664c7cab58",
      "v": 27,
      "creates": null,
      "raw": "0xf86f820377850dddc94a698303d09094b7b6e8868e3dfcd6c7ec726c4fda236266841c8c88027d7e43d7049c00801ba0e7928ce9dce6a847aaca637a8d2356ebedd303130f3fc398fc49d6f94ec4a8aaa03547e5bd6cbacd789a82dc20044ac23d9152e45df0b5488367ddb1664c7cab58",
      "networkId": 0,
      "chainId": 0
    }
  ]
}