{
  "hash": "0x3b16af50f2fe491f3024391a46ebe04497eea7823c1de4a15135a56cb1120f2a",
  "parentHash": "0xb830359823068b51302f78552e419f222c44d538417dff6d54d6706686c5bf4b",
  "number": 65954,
  "timestamp": 1439245904,
  "nonce": "0x8cecb283a58358dd",
  "difficulty": 1951025996130,
  "gasLimit": {
    "_hex": "0x2fefd8"
  },
  "gasUsed": {
    "_hex": "0x5208"
  },
  "miner": "0x01d9DA08cc6Fb97c0DE1B6F4C28910A0859Ed1A1",
  "extraData": "0x476574682f76312e302e312f6c696e75782f676f312e342e32",
  "transactions": [
    {
      "hash": "0x56c51d2229a08b1a2de11d33d8a287179f526ec15750c7c250dc667b59d09e19",
      "blockHash": "0x3b16af50f2fe491f3024391a46ebe04497eea7823c1de4a15135a56cb1120f2a",
      "blockNumber": 65954,
      "transactionIndex": 0,
      "confirmations": null,
      "from": "0x05cdAf55d528Bb607D53056B6B6174b96b909268",
      "gasPrice": {
        "_hex": "0xba43b7400"
      },
      "gasLimit": {
        "_hex": "0x5b04"
      },
      "to": "0xc197252bAf4a4D2974eAB91039594F789A8C207c",
      "value": {
        "_hex": "0xe00b027725e8000"
      },
      "nonce": 2,
      "data": "0x",
      "r": "0x3099a999a07f74844c20aa8226dd83c42e3166a1a6c7df8851cfab4394eaf469",
      "s": "0x96b059248bd9d35aad356652f8c9754bf3b7db2a81bd3016db03e8f5acc39104",
      "v": 27,
      "creates": null,
      "raw": "0xf86c02850ba43b7400825b0494c197252baf4a4d2974eab91039594f789a8c207c880e00b027725e8000801ba03099a999a07f74844c20aa8226dd83c42e3166a1a6c7df8851cfab4394eaf469a096b059248bd9d35aad356652f8c9754bf3b7db2a81bd3016db03e8f5acc39104",
      "networkId": 0,
      "chainId": 0
    }
  ]
}