{
  "hash": "0x3fe98a521f67bc014df601c0205db296ea45bd272328bae3018c21b73830be86",
  "parentHash": "0xeda0ecaef0ef056d34c186cd00d6f48939a9e7723d1253edb6eaabb1c5c26563",
  "number": 104373,
  "timestamp": 1439868722,
  "nonce": "0xb2bb421b1c5d76c8",
  "difficulty": 4310866069577,
  "gasLimit": {
    "_hex": "0x2fefd8"
  },
  "gasUsed": {
    "_hex": "0x5208"
  },
  "miner": "0xe6A7a1d47ff21B6321162AEA7C6CB457D5476Bca",
  "extraData": "0x476574682f76312e302e312d38326566323666362f6c696e75782f676f312e34",
  "transactions": [
    {
      "hash": "0xdd867b693f5376275000f8d4c4522dd951dd62e796d7441d2ba1098331c2bdb6",
      "blockHash": "0x3fe98a521f67bc014df601c0205db296ea45bd272328bae3018c21b73830be86",
      "blockNumber": 104373,
      "transactionIndex": 0,
      "confirmations": null,
      "from": "0x86d3856ad0105B9d4199936c1fd203664BA325dC",
      "gasPrice": {
        "_hex": "0xdd6474e55"
      },
      "gasLimit": {
        "_hex": "0x5208"
      },
      "to": "0x32Be343B94f860124dC4fEe278FDCBD38C102D88",
      "value": {
        "_hex": "0x15ed66710c43800"
      },
      "nonce": 23,
      "data": "0x",
      "r": "0xbbc0fff8b4688987635e5cc103ea780f708e0973a99815533dd8be0b610fe65c",
      "s": "0x302803af16124194e5345817c004d02b79e089d0ab7405d985c7bab02f642aec",
      "v": 27,
      "creates": null,
      "raw": "0xf86c17850dd6474e558252089432be343b94f860124dc4fee278fdcbd38c102d8888015ed66710c43800801ba0bbc0fff8b4688987635e5cc103ea780f708e0973a99815533dd8be0b610fe65ca0302803af16124194e5345817c004d02b79e089d0ab7405d985c7bab02f642aec",
      "networkId": 0,
      "chainId": 0
    }
  ]
}