{
  "hash": "0x0ddf2ae78a7c1880bac05e3d8ed8b8d589e14d988a9a9b0b579b354067dcbcef",
  "parentHash": "0x97eec3b7c95998389c937260c58580667517651e8ead759977b89180fe99c5fd",
  "number": 47060,
  "timestamp": 1438933752,
  "nonce": "0x434b9d6cfbb81e33",
  "difficulty": 1454568460340,
  "gasLimit": {
    "_hex": "0x93c3"
  },
  "gasUsed": {
    "_hex": "0x5208"
  },
  "miner": "0x9746c7e1ef2bd21FF3997fa467593a89cb852BD0",
  "extraData": "0x476574682f76312e302e312f77696e646f77732f676f312e342e32",
  "transactions": [
    {
      "hash": "0xe28b7927dd7c35ff557454368557e95240f3b16cc132099a71a5b9134c5f77a4",
      "blockHash": "0x0ddf2ae78a7c1880bac05e3d8ed8b8d589e14d988a9a9b0b579b354067dcbcef",
      "blockNumber": 47060,
      "transactionIndex": 0,
      "confirmations": null,
      "from": "0xe6A7a1d47ff21B6321162AEA7C6CB457D5476Bca",
      "gasPrice": {
        "_hex": "0xd0768481b"
      },
      "gasLimit": {
        "_hex": "0x5208"
      },
      "to": "0x7903428Eb39b4da60a93f8FCB5228b3b431b7B52",
      "value": {
        "_hex": "0x20f11a6728518d88"
      },
      "nonce": 37,
      "data": "0x",
      "r": "0x7bb6397f39dfb144407441214b654ff425561e3e758802af8590288d2df692ce",
      "s": "0x4b8b1872e563c89288dcc54ec14d5ab0975c51ab1327ff28e67fefff89069f85",
      "v": 27,
      "creates": null,
      "raw": "0xf86c25850d0768481b825208947903428eb39b4da60a93f8fcb5228b3b431b7b528820f11a6728518d88801ba07bb6397f39dfb144407441214b654ff425561e3e758802af8590288d2df692cea04b8b1872e563c89288dcc54ec14d5ab0975c51ab1327ff28e67fefff89069f85",
      "networkId": 0,
      "chainId": 0
    }
  ]
}