{
  "hash": "0xb170402608fea32950fbab4da99ac6af6d4d2a21fc10e7441f561c211e572339",
  "parentHash": "0xbacd39e1e33674154f6529f133110b09acbd3acdb208b21ef1d1af8030e55e12",
  "number": 110592,
  "timestamp": 1439976331,
  "nonce": "0x499363bcdd9e6f2f",
  "difficulty": 4369102554287,
  "gasLimit": {
    "_hex": "0x2fefd8"
  },
  "gasUsed": {
    "_hex": "0x5208"
  },
  "miner": "0x35e8e5dC5FBd97c5b421A80B596C030a2Be2A04D",
  "extraData": "0x476574682f76312e302e312f6c696e75782f676f312e342e32",
  "transactions": [
    {
      "hash": "0xed21ead8cafacc0c67f127e68091344ea3d3e9cb623ba1744e8672fe7c59cf98",
      "blockHash": "0xb170402608fea32950fbab4da99ac6af6d4d2a21fc10e7441f561c211e572339",
      "blockNumber": 110592,
      "transactionIndex": 0,
      "confirmations": null,
      "from": "0x770E2DE60A56861F14ff290b17748CE8f576aa8f",
      "gasPrice": {
        "_hex": "0xd6ed059f3"
      },
      "gasLimit": {
        "_hex": "0x5208"
      },
      "to": "0x32Be343B94f860124dC4fEe278FDCBD38C102D88",
      "value": {
        "_hex": "0x4bcf57a7836fd400"
      },
      "nonce": 1,
      "data": "0x",
      "r": "0x0762265f9dabf6b2da6f8f79eafe5f8096451ab1bdfd09da07757e14bb6ccec3",
      "s": "0x4fce3f532a3a5aea5afe2b061bc08861a40a6f590c2dd21d058cd17e603fa969",
      "v": 27,
      "creates": null,
      "raw": "0xf86c01850d6ed059f38252089432be343b94f860124dc4fee278fdcbd38c102d88884bcf57a7836fd400801ba00762265f9dabf6b2da6f8f79eafe5f8096451ab1bdfd09da07757e14bb6ccec3a04fce3f532a3a5aea5afe2b061bc08861a40a6f590c2dd21d058cd17e603fa969",
      "networkId": 0,
      "chainId": 0
    }
  ]
}