{
  "hash": "0x1badb568815077359898de9abd98376888b7990010064c27d7f0b35fb199a028",
  "parentHash": "0xb9c5244c05a2836c6502d251fe0f9b1e494097e589ec405b1bae916617362f77",
  "number": 70291,
  "timestamp": 1439317653,
  "nonce": "0xa7c72ecdaaf907a1",
  "difficulty": 2130203017511,
  "gasLimit": {
    "_hex": "0x2fefd8"
  },
  "gasUsed": {
    "_hex": "0x5208"
  },
  "miner": "0x9746c7e1ef2bd21FF3997fa467593a89cb852BD0",
  "extraData": "0x476574682f76312e302e312f77696e646f77732f676f312e342e32",
  "transactions": [
    {
      "hash": "0x1c32819cf13c095901e794efbac749343337fc1391460653deba0891d7083ef4",
      "blockHash": "0x1badb568815077359898de9abd98376888b7990010064c27d7f0b35fb199a028",
      "blockNumber": 70291,
      "transactionIndex": 0,
      "confirmations": null,
      "from": "0xD31D16701B62A3065BA1Edb26fC367A77B18Ab72",
      "gasPrice": {
        "_hex": "0xcd9f59a3a"
      },
      "gasLimit": {
        "_hex": "0x5208"
      },
      "to": "0x32Be343B94f860124dC4fEe278FDCBD38C102D88",
      "value": {
        "_hex": "0x2aedd7d12e666c000"
      },
      "nonce": 1,
      "data": "0x",
      "r": "0xae6ebc867154a4553a7696d3c1dcd8080ccc72df534b54e5fe2abcec4177f6ef",
      "s": "0x481a38a1907aadd9d32fd8d6cc03073cb3650a96f19185e165bff4eaee07fdb2",
      "v": 27,
      "creates": null,
      "raw": "0xf86d01850cd9f59a3a8252089432be343b94f860124dc4fee278fdcbd38c102d888902aedd7d12e666c000801ba0ae6ebc867154a4553a7696d3c1dcd8080ccc72df534b54e5fe2abcec4177f6efa0481a38a1907aadd9d32fd8d6cc03073cb3650a96f19185e165bff4eaee07fdb2",
      "networkId": 0,
      "chainId": 0
    }
  ]
}