{
  "hash": "0xae78bee9777a59afaa0b55cd8e10b8e8ddfcb7b59e2651a30cb083b67f975c0d",
  "parentHash": "0x28c24861e90a02b69d978e517561d2e90c64f57ec0cc434e1922cb114abdca0b",
  "number": 50925,
  "timestamp": 1438996723,
  "nonce": "0xab65e278f261997d",
  "difficulty": 1548422712618,
  "gasLimit": {
    "_hex": "0x83bc8"
  },
  "gasUsed": {
    "_hex": "0xa410"
  },
  "miner": "0xbb7B8287f3F0a933474a79eAe42CBCa977791171",
  "extraData": "0x476574682f4c5649562f76312e302e312f6c696e75782f676f312e342e32",
  "transactions": [
    {
      "hash": "0x2b7000e747072065dd7b42fcbb103cce51586f2421756d85af737d691bf6740f",
      "blockHash": "0xae78bee9777a59afaa0b55cd8e10b8e8ddfcb7b59e2651a30cb083b67f975c0d",
      "blockNumber": 50925,
      "transactionIndex": 0,
      "confirmations": null,
      "from": "0x3F3F51FA40eC00Cd81D0898bF65F7F07b4cd146A",
      "gasPrice": {
        "_hex": "0xddae4fd14"
      },
      "gasLimit": {
        "_hex": "0x5208"
      },
      "to": "0x32Be343B94f860124dC4fEe278FDCBD38C102D88",
      "value": {
        "_hex": "0xad322f5e6d0c00"
      },
      "nonce": 0,
      "data": "0x",
      "r": "0x57e0121ad5298e448f26cba06e09a0a81ec5cc697a3a8963a7eed0518a7b99df",
      "s": "0x4510eadb1bf6a9145b6e0f3cc67daff2489fcc0c7e67ac446e89f916b1c48211",
      "v": 27,
      "creates": null,
      "raw": "0xf86b80850ddae4fd148252089432be343b94f860124dc4fee278fdcbd38c102d8887ad322f5e6d0c00801ba057e0121ad5298e448f26cba06e09a0a81ec5cc697a3a8963a7eed0518a7b99dfa04510eadb1bf6a9145b6e0f3cc67daff2489fcc0c7e67ac446e89f916b1c48211",
      "networkId": 0,
      "chainId": 0
    },
    {
      "hash": "0x5dfb190cff89dfba741307e9b95e4e3159f664dc809d99ed1e3b66c75792f589",
      "blockHash": "0xae78bee9777a59afaa0b55cd8e10b8e8ddfcb7b59e2651a30cb083b67f975c0d",
      "blockNumber": 50925,
      "transactionIndex": 1,
      "confirmations": null,
      "from": "0x1c7214DE5162a5606CF124ed3A8c3556b1899804",
      "gasPrice": {
        "_hex": "0xddae4fd14"
      },
      "gasLimit": {
        "_hex": "0x5208"
      },
      "to": "0x32Be343B94f860124dC4fEe278FDCBD38C102D88",
      "value": {
        "_hex": "0xad78a3f53860e0000"
      },
      "nonce": 1,
      "data": "0x",
      "r": "0xe6028a5d6c28a66f7d34e36dc464e0981ef81551bba16bd38dcbeb357c637958",
      "s": "0x0d7b83cf55f5ce51de19cf29a09c5aa354b8d8992fd0cfa2203a628f113fc060",
      "v": 28,
      "creates": null,
      "raw": "0xf86d01850ddae4fd148252089432be343b94f860124dc4fee278fdcbd38c102d88890ad78a3f53860e0000801ca0e6028a5d6c28a66f7d34e36dc464e0981ef81551bba16bd38dcbeb357c637958a00d7b83cf55f5ce51de19cf29a09c5aa354b8d8992fd0cfa2203a628f113fc060",
      "networkId": 0,
      "chainId": 0
    }
  ]
}