{
  "hash": "0xd8c8fa15767a8bff92bc1aab363fb3201661ec90eec1fa4eac1fbc6b3ac79251",
  "parentHash": "0x912924e28a1bd8c486a60d82584027711a8c39612f7c63114f6fe14f63e92726",
  "number": 107992,
  "timestamp": 1439932167,
  "nonce": "0x42567c2502656795",
  "difficulty": 4361929223297,
  "gasLimit": {
    "_hex": "0x2fefd8"
  },
  "gasUsed": {
    "_hex": "0x18326"
  },
  "miner": "0xbb7B8287f3F0a933474a79eAe42CBCa977791171",
  "extraData": "0x476574682f4c5649562f76312e302e312f6c696e75782f676f312e342e32",
  "transactions": [
    {
      "hash": "0x5ca97415ce3ef80833f90f17c15f467107a1e07d1cf75e7728cb994f89779e81",
      "blockHash": "0xd8c8fa15767a8bff92bc1aab363fb3201661ec90eec1fa4eac1fbc6b3ac79251",
      "blockNumber": 107992,
      "transactionIndex": 0,
      "confirmations": null,
      "from": "0x841145B44840C946E21dbC190264b8E0D5029369",
      "gasPrice": {
        "_hex": "0xd97a1b590"
      },
      "gasLimit": {
        "_hex": "0x249f0"
      },
      "to": "0xE28e72FCf78647ADCe1F1252F240bbfaebD63BcC",
      "value": {
        "_hex": "0xba58e545582d4600000"
      },
      "nonce": 2,
      "data": "0x45466f3a",
      "r": "0x2310e12738d45abd82f732a32629e0b1ef07e43be6bb8adf072e757e969efc7f",
      "s": "0x713a6b9642afb5e665dab54705d427e17c6b1eefdc373d2901b91f500a082253",
      "v": 28,
      "creates": null,
      "raw": "0xf87302850d97a1b590830249f094e28e72fcf78647adce1f1252f240bbfaebd63bcc8a0ba58e545582d46000008445466f3a1ca02310e12738d45abd82f732a32629e0b1ef07e43be6bb8adf072e757e969efc7fa0713a6b9642afb5e665dab54705d427e17c6b1eefdc373d2901b91f500a082253",
      "networkId": 0,
      "chainId": 0
    }
  ]
}