{
  "hash": "0xdc20885f912dea8341bedfe8fa772fd8d068009baeef200b5f32acb6923f590d",
  "parentHash": "0xabe740da209508f2091b12ede0041f9a8a8b423aa01e6b23d493f3eef43a4b4b",
  "number": 46892,
  "timestamp": 1438931083,
  "nonce": "0x1c61800e4a135edc",
  "difficulty": 1457441378888,
  "gasLimit": {
    "_hex": "0x82de"
  },
  "gasUsed": {
    "_hex": "0x5208"
  },
  "miner": "0x2134e2a2b718DCa96580ECAC31E653Ea1fdd58DA",
  "extraData": "0x476574682f76312e302e312f77696e646f77732f676f312e342e32",
  "transactions": [
    {
      "hash": "0x8f90a32dfdc2b9443a521ed85d4c769407e7648fd9792e435e1672cb8abc914b",
      "blockHash": "0xdc20885f912dea8341bedfe8fa772fd8d068009baeef200b5f32acb6923f590d",
      "blockNumber": 46892,
      "transactionIndex": 0,
      "confirmations": null,
      "from": "0xC1CdC601f89c0428b31302D187e0dc08ad7D1C57",
      "gasPrice": {
        "_hex": "0xd29b6a449"
      },
      "gasLimit": {
        "_hex": "0x5209"
      },
      "to": "0xfF68C2F39C4e7FE2f92c2DC2f8615b1BF070e0FA",
      "value": {
        "_hex": "0x45"
      },
      "nonce": 4,
      "data": "0x",
      "r": "0x47dce2fb024861fe429b68b7c1e7aeafea6d42942da38aa278e479dd6f2495fc",
      "s": "0x2d02550986f86b3916ecb4a7e6d75cb755772a3f25d50db4be52554733a18d59",
      "v": 27,
      "creates": null,
      "raw": "0xf86404850d29b6a44982520994ff68c2f39c4e7fe2f92c2dc2f8615b1bf070e0fa45801ba047dce2fb024861fe429b68b7c1e7aeafea6d42942da38aa278e479dd6f2495fca02d02550986f86b3916ecb4a7e6d75cb755772a3f25d50db4be52554733a18d59",
      "networkId": 0,
      "chainId": 0
    }
  ]
}