{
  "hash": "0x176b907a0e9a771b3821471a944fa9e37324e0457c6a0211e511926fa53e5508",
  "parentHash": "0xad3eb798071d18ef88a28b371c4dfd2b47d96031caae62e9ea402e1e1b69a618",
  "number": 63689,
  "timestamp": 1439208544,
  "nonce": "0x8731af1aab3abfaf",
  "difficulty": 1843187637459,
  "gasLimit": {
    "_hex": "0x2fefd8"
  },
  "gasUsed": {
    "_hex": "0xa674"
  },
  "miner": "0x322df8Fd261820C36234f806b15F51A2203a8F88",
  "extraData": "0x47686574746f20496e632e",
  "transactions": [
    {
      "hash": "0x849942fb47bd5fec2d88d156cc7d131ba9ac3235134c1b7d511ad8046b888bf2",
      "blockHash": "0x176b907a0e9a771b3821471a944fa9e37324e0457c6a0211e511926fa53e5508",
      "blockNumber": 63689,
      "transactionIndex": 0,
      "confirmations": null,
      "from": "0x8c8eef67181456cBBB05CDFB634709119C2F644F",
      "gasPrice": {
        "_hex": "0xda3b7a3b0"
      },
      "gasLimit": {
        "_hex": "0x55f0"
      },
      "to": "0x2910543Af39abA0Cd09dBb2D50200b3E800A63D2",
      "value": {
        "_hex": "0x8aa39c121a270000"
      },
      "nonce": 0,
      "data": "0x454e423451384a3252",
      "r": "0xeb8ba5432db35707e77b9258b9f54c64f39260f3acdd15b261cfa1f51d35dc2b",
      "s": "0x0e93af2162d6923122961690b81c69a7656db665122e1602099847e135d0cccb",
      "v": 28,
      "creates": null,
      "raw": "0xf87580850da3b7a3b08255f0942910543af39aba0cd09dbb2d50200b3e800a63d2888aa39c121a27000089454e423451384a32521ca0eb8ba5432db35707e77b9258b9f54c64f39260f3acdd15b261cfa1f51d35dc2ba00e93af2162d6923122961690b81c69a7656db665122e1602099847e135d0cccb",
      "networkId": 0,
      "chainId": 0
    },
    {
      "hash": "0x91c6f16488d8a4fa8ee01af4b68c85bcd446dafb588ffae4ce1e3446a755e95f",
      "blockHash": "0x176b907a0e9a771b3821471a944fa9e37324e0457c6a0211e511926fa53e5508",
      "blockNumber": 63689,
      "transactionIndex": 1,
      "confirmations": null,
      "from": "0x2910543Af39abA0Cd09dBb2D50200b3E800A63D2",
      "gasPrice": {
        "_hex": "0xd3e391869"
      },
      "gasLimit": {
        "_hex": "0x5208"
      },
      "to": "0xFfeef280ABabd07bD185B0ff831Ac17b8020d365",
      "value": {
        "_hex": "0x6aaf7c8516d0c0000"
      },
      "nonce": 132,
      "data": "0x",
      "r": "0xde8dec45a0f5bba21a7b15e202fe4acee577a84198acb285ebbbe9b25574facc",
      "s": "0x657fbf16be74f69a3b7f4143a22a7af9e2815f4107bd4b3939e70f4c46027a2d",
      "v": 27,
      "creates": null,
      "raw": "0xf86e8184850d3e39186982520894ffeef280ababd07bd185b0ff831ac17b8020d3658906aaf7c8516d0c0000801ba0de8dec45a0f5bba21a7b15e202fe4acee577a84198acb285ebbbe9b25574facca0657fbf16be74f69a3b7f4143a22a7af9e2815f4107bd4b3939e70f4c46027a2d",
      "networkId": 0,
      "chainId": 0
    }
  ]
}