{
  "hash": "0xa08c12988ce05262088c29d74077624b408901d5817fe403352de1f7d22dd467",
  "parentHash": "0xf74af226c1bfbaa01e35364177d999b824a69ba16e39a4ae9c6a437748a18097",
  "number": 54967,
  "timestamp": 1439063277,
  "nonce": "0x6db43e8fdb5f464e",
  "difficulty": 1617206503161,
  "gasLimit": {
    "_hex": "0x2fefd8"
  },
  "gasUsed": {
    "_hex": "0x5208"
  },
  "miner": "0xBf034FB91a14C1FdC209f70e194C5704a6D844eB",
  "extraData": "0x",
  "transactions": [
    {
      "hash": "0xa8e334f19869aac668bb14f348b57592f3e5f3fc3ef4229b1d8589c1d6853ecb",
      "blockHash": "0xa08c12988ce05262088c29d74077624b408901d5817fe403352de1f7d22dd467",
      "blockNumber": 54967,
      "transactionIndex": 0,
      "confirmations": null,
      "from": "0x0617194e49BaAD419B57FB8EBba265E417362835",
      "gasPrice": {
        "_hex": "0xd3ecbdba6"
      },
      "gasLimit": {
        "_hex": "0x15f90"
      },
      "to": "0xc8ebccC5F5689Fa8659d83713341e5aD19349448",
      "value": {
        "_hex": "0x8ac39585e5218000"
      },
      "nonce": 1,
      "data": "0x",
      "r": "0x40ba439fa8e2db3b753f58c0c616044d9bd855148443d0d563341002c58ca080",
      "s": "0x338ff4089a6b85d432c8681359272cd27a73b166ee69af50e7a8f56128923379",
      "v": 28,
      "creates": null,
      "raw": "0xf86d01850d3ecbdba683015f9094c8ebccc5f5689fa8659d83713341e5ad19349448888ac39585e5218000801ca040ba439fa8e2db3b753f58c0c616044d9bd855148443d0d563341002c58ca080a0338ff4089a6b85d432c8681359272cd27a73b166ee69af50e7a8f56128923379",
      "networkId": 0,
      "chainId": 0
    }
  ]
}