{
  "hash": "0xfe5dcd7c1e27ef73a4e3ab4d120b9da59602c80eea944ecc63f0e968c7b27064",
  "parentHash": "0x02ef5d935b4817cf36eae20f4bfcdce85cba4fb2ce845306e7c01d16bfca804a",
  "number": 107594,
  "timestamp": 1439925310,
  "nonce": "0x6857c3de5acf46d3",
  "difficulty": 4383487761491,
  "gasLimit": {
    "_hex": "0x2fefd8"
  },
  "gasUsed": {
    "_hex": "0xa674"
  },
  "miner": "0xe6A7a1d47ff21B6321162AEA7C6CB457D5476Bca",
  "extraData": "0x476574682f76312e302e312d38326566323666362f6c696e75782f676f312e34",
  "transactions": [
    {
      "hash": "0x1118c96a0d309a1c0a548aa07f60c8cc12c1ac7d5be8de0b725b47bf1766b4d4",
      "blockHash": "0xfe5dcd7c1e27ef73a4e3ab4d120b9da59602c80eea944ecc63f0e968c7b27064",
      "blockNumber": 107594,
      "transactionIndex": 0,
      "confirmations": null,
      "from": "0x2910543Af39abA0Cd09dBb2D50200b3E800A63D2",
      "gasPrice": {
        "_hex": "0xd496b44c6"
      },
      "gasLimit": {
        "_hex": "0x5208"
      },
      "to": "0x08297795AAA6897C98570B378c079Cf71E560559",
      "value": {
        "_hex": "0x6c739003efc662000"
      },
      "nonce": 1050,
      "data": "0x",
      "r": "0x85f9bbe8cac95fbef71bea8dbfffebfdc25319a40c07a781374897887d45f5d0",
      "s": "0x3fb52d94f87ac17e4d60cf48c927eee806c11b5389347c46f84292f99a2bddb4",
      "v": 27,
      "creates": null,
      "raw": "0xf86f82041a850d496b44c68252089408297795aaa6897c98570b378c079cf71e5605598906c739003efc662000801ba085f9bbe8cac95fbef71bea8dbfffebfdc25319a40c07a781374897887d45f5d0a03fb52d94f87ac17e4d60cf48c927eee806c11b5389347c46f84292f99a2bddb4",
      "networkId": 0,
      "chainId": 0
    },
    {
      "hash": "0x039d388f67fea0e59600187a6750b0b12afa39c10fa608ea30fed20161dcc13e",
      "blockHash": "0xfe5dcd7c1e27ef73a4e3ab4d120b9da59602c80eea944ecc63f0e968c7b27064",
      "blockNumber": 107594,
      "transactionIndex": 1,
      "confirmations": null,
      "from": "0xC21fa6643A1F14C02996aD7144b75926E87ECb4B",
      "gasPrice": {
        "_hex": "0xd34cab8e4"
      },
      "gasLimit": {
        "_hex": "0x55f0"
      },
      "to": "0x2910543Af39abA0Cd09dBb2D50200b3E800A63D2",
      "value": {
        "_hex": "0x3b483a73cebc1c40000"
      },
      "nonce": 8,
      "data": "0x454e43415255575738",
      "r": "0xdee5a4e4a21a8c5d2229d03a4dc630f7c00490ef48e71ef5ff03c256478d952a",
      "s": "0x135982454cbd6b18b1dfa12ac5155b7b6b0b079eaa7f7b4a8cc2f458ae4c6cf0",
      "v": 27,
      "creates": null,
      "raw": "0xf87708850d34cab8e48255f0942910543af39aba0cd09dbb2d50200b3e800a63d28a03b483a73cebc1c4000089454e434152555757381ba0dee5a4e4a21a8c5d2229d03a4dc630f7c00490ef48e71ef5ff03c256478d952aa0135982454cbd6b18b1dfa12ac5155b7b6b0b079eaa7f7b4a8cc2f458ae4c6cf0",
      "networkId": 0,
      "chainId": 0
    }
  ]
}