{
  "hash": "0xe550cb7c0f6d7e134d0062b2be97900aa7867958cb3126af39c078b6f3f84b32",
  "parentHash": "0x5d3c4fb39a815627c4b0865e4f99517ffbc32d17f4469b76fbc561e93f976f29",
  "number": 58528,
  "timestamp": 1439122234,
  "nonce": "0x7f210629c9b69a8d",
  "difficulty": 1709888431903,
  "gasLimit": {
    "_hex": "0x2fefd8"
  },
  "gasUsed": {
    "_hex": "0x5208"
  },
  "miner": "0x9D49F602b0fdb924Bd63DDE2Bd0907E4A07c63a7",
  "extraData": "0x476574682f76312e302e312f6c696e75782f676f312e342e32",
  "transactions": [
    {
      "hash": "0x387644857bb400e6c48e317962127d58d599de3087db37b9d7c0cf132753f137",
      "blockHash": "0xe550cb7c0f6d7e134d0062b2be97900aa7867958cb3126af39c078b6f3f84b32",
      "blockNumber": 58528,
      "transactionIndex": 0,
      "confirmations": null,
      "from": "0xC6Bf5B6558f2eE21F2E43d9fF9B5408A0Cb89413",
      "gasPrice": {
        "_hex": "0xd7f6ad754"
      },
      "gasLimit": {
        "_hex": "0x15f90"
      },
      "to": "0x33A3f479f6c3e7F91128348490D1f7E8D2A0FAb5",
      "value": {
        "_hex": "0x8ac7230489e80000"
      },
      "nonce": 11,
      "data": "0x",
      "r": "0x2b3e68c46ee2ede8e7254d7ebbb52a629cfece7d0cee7b8a89b1f0383874bcee",
      "s": "0x44dac52f01bf901736aa4fc91ed37b10fa4f77a70981ec9fb244333fcd8ea86f",
      "v": 27,
      "creates": null,
      "raw": "0xf86d0b850d7f6ad75483015f909433a3f479f6c3e7f91128348490d1f7e8d2a0fab5888ac7230489e80000801ba02b3e68c46ee2ede8e7254d7ebbb52a629cfece7d0cee7b8a89b1f0383874bceea044dac52f01bf901736aa4fc91ed37b10fa4f77a70981ec9fb244333fcd8ea86f",
      "networkId": 0,
      "chainId": 0
    }
  ]
}