{
  "hash": "0x1714073a1addb1411e5e43fa9f00be78ebd91597de1a99ef3cc76e2dbb503995",
  "parentHash": "0xe35e7d76f67e322664441b1077411816b27452839d41e786b268196bdd4bfee4",
  "number": 91006,
  "timestamp": 1439649021,
  "nonce": "0x6b01ba70e5cb31c2",
  "difficulty": 3423963118644,
  "gasLimit": {
    "_hex": "0x2fefd8"
  },
  "gasUsed": {
    "_hex": "0xf618"
  },
  "miner": "0xe6A7a1d47ff21B6321162AEA7C6CB457D5476Bca",
  "extraData": "0x476574682f76312e302e312d38326566323666362f6c696e75782f676f312e34",
  "transactions": [
    {
      "hash": "0x0c441dfa73660c3c34ea4f69e7f526e9274ddaabc588e6066c63f70d5c26e3fc",
      "blockHash": "0x1714073a1addb1411e5e43fa9f00be78ebd91597de1a99ef3cc76e2dbb503995",
      "blockNumber": 91006,
      "transactionIndex": 0,
      "confirmations": null,
      "from": "0x59C62d3D43f9EA1c4118d98c188AA5d028b8bB8E",
      "gasPrice": {
        "_hex": "0xd05403b79"
      },
      "gasLimit": {
        "_hex": "0x5208"
      },
      "to": "0x32Be343B94f860124dC4fEe278FDCBD38C102D88",
      "value": {
        "_hex": "0x2707bf17cc5d8c000"
      },
      "nonce": 11,
      "data": "0x",
      "r": "0x926c1e577c50f87a06f13cd973d9c27f2875ecd36732e8c909ea030240b2ea40",
      "s": "0x4ec08559879c0f480eee745b905fe50010945e5107e70fda6eaa1f24f04e3ca2",
      "v": 27,
      "creates": null,
      "raw": "0xf86d0b850d05403b798252089432be343b94f860124dc4fee278fdcbd38c102d888902707bf17cc5d8c000801ba0926c1e577c50f87a06f13cd973d9c27f2875ecd36732e8c909ea030240b2ea40a04ec08559879c0f480eee745b905fe50010945e5107e70fda6eaa1f24f04e3ca2",
      "networkId": 0,
      "chainId": 0
    },
    {
      "hash": "0xc04e76142acfadb8b2413892d6ff97d3a23a65dd2abe140635d65685e59dc768",
      "blockHash": "0x1714073a1addb1411e5e43fa9f00be78ebd91597de1a99ef3cc76e2dbb503995",
      "blockNumber": 91006,
      "transactionIndex": 1,
      "confirmations": null,
      "from": "0x1463cEF3d9007Db05b7C3B8981D38602EE0D855a",
      "gasPrice": {
        "_hex": "0xd05403b79"
      },
      "gasLimit": {
        "_hex": "0x5208"
      },
      "to": "0x32Be343B94f860124dC4fEe278FDCBD38C102D88",
      "value": {
        "_hex": "0x2b5df6e6a15b04000"
      },
      "nonce": 6,
      "data": "0x",
      "r": "0x344c2b9007d530b8091fce65e31f8906b66756a3bd0ed197516b439d4cc05de6",
      "s": "0x0f5df7f8416101b141c60e11e740ce140d822d10124e54bf26681fd4e42ed7ee",
      "v": 27,
      "creates": null,
      "raw": "0xf86d06850d05403b798252089432be343b94f860124dc4fee278fdcbd38c102d888902b5df6e6a15b04000801ba0344c2b9007d530b8091fce65e31f8906b66756a3bd0ed197516b439d4cc05de6a00f5df7f8416101b141c60e11e740ce140d822d10124e54bf26681fd4e42ed7ee",
      "networkId": 0,
      "chainId": 0
    },
    {
      "hash": "0x925fd43ad42aaf9dbcbde2282231b6fd6d595a0566187db306934d2a7a8b0e66",
      "blockHash": "0x1714073a1addb1411e5e43fa9f00be78ebd91597de1a99ef3cc76e2dbb503995",
      "blockNumber": 91006,
      "transactionIndex": 2,
      "confirmations": null,
      "from": "0x04a2a3ee9C9ea82e1F918ecE209f8A7E6d7521E7",
      "gasPrice": {
        "_hex": "0xd05403b79"
      },
      "gasLimit": {
        "_hex": "0x5208"
      },
      "to": "0x32Be343B94f860124dC4fEe278FDCBD38C102D88",
      "value": {
        "_hex": "0x46c2aae2fbc2c800"
      },
      "nonce": 11,
      "data": "0x",
      "r": "0x9a5acff4af2def73024d2b05d0fd019b3d2182e5abc1434cd48d4b77bac811b5",
      "s": "0x1e56daf2266daad8ca327d49c4caa3667d6c5d70707b990ca05720aa66dbdbc8",
      "v": 27,
      "creates": null,
      "raw": "0xf86c0b850d05403b798252089432be343b94f860124dc4fee278fdcbd38c102d888846c2aae2fbc2c800801ba09a5acff4af2def73024d2b05d0fd019b3d2182e5abc1434cd48d4b77bac811b5a01e56daf2266daad8ca327d49c4caa3667d6c5d70707b990ca05720aa66dbdbc8",
      "networkId": 0,
      "chainId": 0
    }
  ]
}