{
  "hash": "0xb43018910f427726c19160140d48da6d3f7266cdb36f9dcb291b16bc5c654bd9",
  "parentHash": "0xdfbd3eef88f18864b0ee20b3021ec8b0e090eedfd6c6bd17d447bda652424bf4",
  "number": 61352,
  "timestamp": 1439171028,
  "nonce": "0x81c3b5103d963cfe",
  "difficulty": 1731151493567,
  "gasLimit": {
    "_hex": "0x2fefd8"
  },
  "gasUsed": {
    "_hex": "0x2a20"
  },
  "miner": "0xf32866D5cE9a9b5673e076be48AbCd6ED48ADe78",
  "extraData": "0x476574682f76312e302e312d37666266393930632f6c696e75782f676f312e34",
  "transactions": [
    {
      "hash": "0x6dd549beb6fee7541399fe18ecc6786fc15b026b7f6daa271d227606ec2ff876",
      "blockHash": "0xb43018910f427726c19160140d48da6d3f7266cdb36f9dcb291b16bc5c654bd9",
      "blockNumber": 61352,
      "transactionIndex": 0,
      "confirmations": null,
      "from": "0xE2beA3e7d349ab64EBD9873418e78912e13CD35f",
      "gasPrice": {
        "_hex": "0xd10aa940c"
      },
      "gasLimit": {
        "_hex": "0x15f90"
      },
      "to": "0x1702C089c3D4B2b8e09232F36114E41c214D6939",
      "value": {
        "_hex": "0x0"
      },
      "nonce": 4,
      "data": "0x41c0e1b5",
      "r": "0xe15e55c49a64906e2a822b6c5afb08b87c928dcc99425eb2ee6c550367bfadc0",
      "s": "0x2089a0b44124d868b1b6d798d4625836a8af7f7b753e328dfe44a20a1604902a",
      "v": 27,
      "creates": null,
      "raw": "0xf86904850d10aa940c83015f90941702c089c3d4b2b8e09232f36114e41c214d6939808441c0e1b51ba0e15e55c49a64906e2a822b6c5afb08b87c928dcc99425eb2ee6c550367bfadc0a02089a0b44124d868b1b6d798d4625836a8af7f7b753e328dfe44a20a1604902a",
      "networkId": 0,
      "chainId": 0
    }
  ]
}