{
  "hash": "0x9badf421698afb360a2efa19fc1ca6e1c7595736cdf36a9e172bf6cb55712e8b",
  "parentHash": "0x3825e1c55c715edd5a31c8ba04bff630b98d40d4521434e1a7f9c1668c49481d",
  "number": 68330,
  "timestamp": 1439286180,
  "nonce": "0x30a3d24586fc29d1",
  "difficulty": 2008461532112,
  "gasLimit": {
    "_hex": "0x2fefd8"
  },
  "gasUsed": {
    "_hex": "0x23b44"
  },
  "miner": "0x2134e2a2b718DCa96580ECAC31E653Ea1fdd58DA",
  "extraData": "0x476574682f76312e302e312f77696e646f77732f676f312e342e32",
  "transactions": [
    {
      "hash": "0xb9e63cbbd7209b0dc13383b73563639a6f1e0d2b8b7723a2cbe51933a87b90db",
      "blockHash": "0x9badf421698afb360a2efa19fc1ca6e1c7595736cdf36a9e172bf6cb55712e8b",
      "blockNumber": 68330,
      "transactionIndex": 0,
      "confirmations": null,
      "from": "0x3Debc1Fc28BD28bC8f4F8Aa1b7a460EE0425f08e",
      "gasPrice": {
        "_hex": "0xba43b7400"
      },
      "gasLimit": {
        "_hex": "0x15f90"
      },
      "to": "0x793AE8C1b1a160BFc07BFB0d04F85eab1A71F4f2",
      "value": {
        "_hex": "0x0"
      },
      "nonce": 0,
      "data": "0x3ba15036",
      "r": "0xb52ff6aed8eec0ba9aa9fc425efbc1f5db9a79e666f1af8c3e4a7145e4acbd5d",
      "s": "0x69693729ce555c00c0cd81175a4e4fd57d498d1783a4cc0e66c8af7ec1a3826d",
      "v": 28,
      "creates": null,
      "raw": "0xf86980850ba43b740083015f9094793ae8c1b1a160bfc07bfb0d04f85eab1a71f4f280843ba150361ca0b52ff6aed8eec0ba9aa9fc425efbc1f5db9a79e666f1af8c3e4a7145e4acbd5da069693729ce555c00c0cd81175a4e4fd57d498d1783a4cc0e66c8af7ec1a3826d",
      "networkId": 0,
      "chainId": 0
    },
    {
      "hash": "0xd3afd31007b1dcdf109367c0f8a1b0bce7bb4aa8bed80eef72ead969eb74d7dc",
      "blockHash": "0x9badf421698afb360a2efa19fc1ca6e1c7595736cdf36a9e172bf6cb55712e8b",
      "blockNumber": 68330,
      "transactionIndex": 1,
      "confirmations": null,
      "from": "0xe2Fd68d37894d925DCE46510A4FEA8d2a00f50e2",
      "gasPrice": {
        "_hex": "0xba43b7400"
      },
      "gasLimit": {
        "_hex": "0x15f90"
      },
      "to": "0x793AE8C1b1a160BFc07BFB0d04F85eab1A71F4f2",
      "value": {
        "_hex": "0x0"
      },
      "nonce": 0,
      "data": "0x3ba15036",
      "r": "0x0405ddd0d16021fb35108399d7ccad9830f6000175621e8497afcb73eec0d0e2",
      "s": "0x61a7b5cc774b96cb7bf4bb148db79257dbe7d060162aacecb87fc08beff01143",
      "v": 28,
      "creates": null,
      "raw": "0xf86980850ba43b740083015f9094793ae8c1b1a160bfc07bfb0d04f85eab1a71f4f280843ba150361ca00405ddd0d16021fb35108399d7ccad9830f6000175621e8497afcb73eec0d0e2a061a7b5cc774b96cb7bf4bb148db79257dbe7d060162aacecb87fc08beff01143",
      "networkId": 0,
      "chainId": 0
    },
    {
      "hash": "0xea5154f842ffae618b93944ece69247f9a899433be1c88321f08b9a9efac5cc6",
      "blockHash": "0x9badf421698afb360a2efa19fc1ca6e1c7595736cdf36a9e172bf6cb55712e8b",
      "blockNumber": 68330,
      "transactionIndex": 2,
      "confirmations": null,
      "from": "0x9bf80f28BC38d7EBc1bdc890043B4A5e6Ba0604A",
      "gasPrice": {
        "_hex": "0xba43b7400"
      },
      "gasLimit": {
        "_hex": "0x15f90"
      },
      "to": "0x793AE8C1b1a160BFc07BFB0d04F85eab1A71F4f2",
      "value": {
        "_hex": "0x0"
      },
      "nonce": 0,
      "data": "0x3ba15036",
      "r": "0xfb42a96108b060e5ca5d8743f50fefa4f876358be70630b1468c8f96c8cf5afb",
      "s": "0x55141f2cd342a9aa4ceba5e713888f806e1f0983b9e7f5ae21ff4e06813f839a",
      "v": 28,
      "creates": null,
      "raw": "0xf86980850ba43b740083015f9094793ae8c1b1a160bfc07bfb0d04f85eab1a71f4f280843ba150361ca0fb42a96108b060e5ca5d8743f50fefa4f876358be70630b1468c8f96c8cf5afba055141f2cd342a9aa4ceba5e713888f806e1f0983b9e7f5ae21ff4e06813f839a",
      "networkId": 0,
      "chainId": 0
    }
  ]
}