{
  "hash": "0xdaf5c17950fe2441c10773175c8468e48d66ad0c40f7b2ff90b0341ea6ccefd8",
  "parentHash": "0xf9278ecac50808ee9f3e7db8607d456e044dacafb01e624ced08f1a9a11b70f8",
  "number": 106559,
  "timestamp": 1439906444,
  "nonce": "0xae365d972699da25",
  "difficulty": 4481423492015,
  "gasLimit": {
    "_hex": "0x2fefd8"
  },
  "gasUsed": {
    "_hex": "0xe835"
  },
  "miner": "0xe6A7a1d47ff21B6321162AEA7C6CB457D5476Bca",
  "extraData": "0x476574682f76312e302e312d38326566323666362f6c696e75782f676f312e34",
  "transactions": [
    {
      "hash": "0x0aecedcd05810b24690912722dd1139d2653ee680e0047da7e6ee704991324bc",
      "blockHash": "0xdaf5c17950fe2441c10773175c8468e48d66ad0c40f7b2ff90b0341ea6ccefd8",
      "blockNumber": 106559,
      "transactionIndex": 0,
      "confirmations": null,
      "from": "0xc469E0161968f12A38E4c1A1c153a18207e040c8",
      "gasPrice": {
        "_hex": "0xd566f087d"
      },
      "gasLimit": {
        "_hex": "0x3d090"
      },
      "to": "0x4d6387f3B967dA39B11DE111158D49754C31985d",
      "value": {
        "_hex": "0x0"
      },
      "nonce": 10,
      "data": "0xf010264a000000000000000000000000000000000000000000000000000000000000000400000000000000000000000000000000000000000000000000000000000000a0000000000000000000000000000000000000000000000000016345785d8a0000000000000000000000000000c469e0161968f12a38e4c1a1c153a18207e040c8000000000000000000000000c19e6ed60d732a740c1c0844374c4885ca4117430000000000000000000000000000000000000000000000000000000000000022314858416b567468516268586d3861365a755a41374c4759685a6a66734243347954000000000000000000000000000000000000000000000000000000000000",
      "r": "0x7cebdc3fa36ee0a84b3b1a4b94c055dc9058f4d031a8b4dcbc6984cbcf3b7900",
      "s": "0x50ec06548d533ff4cfc86464373c77fe1191750e567ee7bee9a146d7b9064d3f",
      "v": 27,
      "creates": null,
      "raw": "0xf9016b0a850d566f087d8303d090944d6387f3b967da39b11de111158d49754c31985d80b90104f010264a000000000000000000000000000000000000000000000000000000000000000400000000000000000000000000000000000000000000000000000000000000a0000000000000000000000000000000000000000000000000016345785d8a0000000000000000000000000000c469e0161968f12a38e4c1a1c153a18207e040c8000000000000000000000000c19e6ed60d732a740c1c0844374c4885ca4117430000000000000000000000000000000000000000000000000000000000000022314858416b567468516268586d3861365a755a41374c4759685a6a667342433479540000000000000000000000000000000000000000000000000000000000001ba07cebdc3fa36ee0a84b3b1a4b94c055dc9058f4d031a8b4dcbc6984cbcf3b7900a050ec06548d533ff4cfc86464373c77fe1191750e567ee7bee9a146d7b9064d3f",
      "networkId": 0,
      "chainId": 0
    }
  ]
}