{
  "hash": "0x624930b7b0e313e7a67f5815ba9c7698943ec69ae105049d66799cddd4e21568",
  "parentHash": "0x653d961123feb52ab670d7f33242256e4931173eea2c0f8919ad067511fb304e",
  "number": 113419,
  "timestamp": 1440023259,
  "nonce": "0x9eb9dd2dbf611509",
  "difficulty": 4460303056358,
  "gasLimit": {
    "_hex": "0x2fefd8"
  },
  "gasUsed": {
    "_hex": "0x5208"
  },
  "miner": "0x35e8e5dC5FBd97c5b421A80B596C030a2Be2A04D",
  "extraData": "0x476574682f76312e302e312f6c696e75782f676f312e342e32",
  "transactions": [
    {
      "hash": "0x5f8ab11e106e5d35caba3d57867b21faaeb1d230a6d181c29087d73535b615d1",
      "blockHash": "0x624930b7b0e313e7a67f5815ba9c7698943ec69ae105049d66799cddd4e21568",
      "blockNumber": 113419,
      "transactionIndex": 0,
      "confirmations": null,
      "from": "0x770E2DE60A56861F14ff290b17748CE8f576aa8f",
      "gasPrice": {
        "_hex": "0xd5137a494"
      },
      "gasLimit": {
        "_hex": "0x5208"
      },
      "to": "0x32Be343B94f860124dC4fEe278FDCBD38C102D88",
      "value": {
        "_hex": "0x6a77c7ecc62d5c00"
      },
      "nonce": 3,
      "data": "0x",
      "r": "0x99cf678ba29a7803d323fc376a066c465875f753608273268e3d112b76ee31cf",
      "s": "0x5f7017ca2c17300a043b8054fe2dc9579ea1519daaa43a56e28084264b659a4e",
      "v": 28,
      "creates": null,
      "raw": "0xf86c03850d5137a4948252089432be343b94f860124dc4fee278fdcbd38c102d88886a77c7ecc62d5c00801ca099cf678ba29a7803d323fc376a066c465875f753608273268e3d112b76ee31cfa05f7017ca2c17300a043b8054fe2dc9579ea1519daaa43a56e28084264b659a4e",
      "networkId": 0,
      "chainId": 0
    }
  ]
}