{
  "hash": "0x0359393989ac9fa94d82df111029b93341a222cc8933c75bd6c843499b44dd82",
  "parentHash": "0x01fa4d951905e036d72b053dd983356c9fd47875b5fc597bc1970f65c9e51031",
  "number": 105466,
  "timestamp": 1439888084,
  "nonce": "0x5b6768e51da4de25",
  "difficulty": 4397464237843,
  "gasLimit": {
    "_hex": "0x2fefd8"
  },
  "gasUsed": {
    "_hex": "0x14820"
  },
  "miner": "0xe6A7a1d47ff21B6321162AEA7C6CB457D5476Bca",
  "extraData": "0x476574682f76312e302e312d38326566323666362f6c696e75782f676f312e34",
  "transactions": [
    {
      "hash": "0x90ea38dde7f648770a8f4bd4e78e909be76ec940bc9c888c7d4d2c7067c8f4dd",
      "blockHash": "0x0359393989ac9fa94d82df111029b93341a222cc8933c75bd6c843499b44dd82",
      "blockNumber": 105466,
      "transactionIndex": 0,
      "confirmations": null,
      "from": "0xA4b566f129e5810957eF8cC2F750383E488D35Dd",
      "gasPrice": {
        "_hex": "0xd6676ac5b"
      },
      "gasLimit": {
        "_hex": "0x5208"
      },
      "to": "0x32Be343B94f860124dC4fEe278FDCBD38C102D88",
      "value": {
        "_hex": "0x3bd18a618fd77c00"
      },
      "nonce": 4,
      "data": "0x",
      "r": "0xe39505ff610c8b81bf964e845cfbd03ba6fb0f4c8c5cb0362d95bdfd6fe8b164",
      "s": "0x49c14f8b1a8a499c39bb40bc1730db314b11e066583db0a3aa6794a8f49de57d",
      "v": 28,
      "creates": null,
      "raw": "0xf86c04850d6676ac5b8252089432be343b94f860124dc4fee278fdcbd38c102d88883bd18a618fd77c00801ca0e39505ff610c8b81bf964e845cfbd03ba6fb0f4c8c5cb0362d95bdfd6fe8b164a049c14f8b1a8a499c39bb40bc1730db314b11e066583db0a3aa6794a8f49de57d",
      "networkId": 0,
      "chainId": 0
    },
    {
      "hash": "0x6689605d6b43e84a4bac6de6f141c5668d0adbd38972ca2c1b7b4026fa8fc2b8",
      "blockHash": "0x0359393989ac9fa94d82df111029b93341a222cc8933c75bd6c843499b44dd82",
      "blockNumber": 105466,
      "transactionIndex": 1,
      "confirmations": null,
      "from": "0xf0c896DB24137eDA6Ec88cF1a95217F8604aE55e",
      "gasPrice": {
        "_hex": "0xd6676ac5b"
      },
      "gasLimit": {
        "_hex": "0x5208"
      },
      "to": "0x32Be343B94f860124dC4fEe278FDCBD38C102D88",
      "value": {
        "_hex": "0x2283391ed096ee000"
      },
      "nonce": 4,
      "data": "0x",
      "r": "0x6cc9b2ec9fef2ee445e50f6bbcc85bd368edfeaf2f78fb2749512f11379b6bcf",
      "s": "0x7af95c495cab346703f683175c866823983f130b0a69464918d3d83ec53d4fe9",
      "v": 28,
      "creates": null,
      "raw": "0xf86d04850d6676ac5b8252089432be343b94f860124dc4fee278fdcbd38c102d888902283391ed096ee000801ca06cc9b2ec9fef2ee445e50f6bbcc85bd368edfeaf2f78fb2749512f11379b6bcfa07af95c495cab346703f683175c866823983f130b0a69464918d3d83ec53d4fe9",
      "networkId": 0,
      "chainId": 0
    },
    {
      "hash": "0xf586cafd2ed9ede1009fc7453e9bfe8713bf6516b5031d9dc4a6d4eb4dcadc52",
      "blockHash": "0x0359393989ac9fa94d82df111029b93341a222cc8933c75bd6c843499b44dd82",
      "blockNumber": 105466,
      "transactionIndex": 2,
      "confirmations": null,
      "from": "0x3F6DDbC103F2999640fe4AFc6884708fa691C2b8",
      "gasPrice": {
        "_hex": "0xd6676ac5b"
      },
      "gasLimit": {
        "_hex": "0x5208"
      },
      "to": "0x32Be343B94f860124dC4fEe278FDCBD38C102D88",
      "value": {
        "_hex": "0x4494bafdb77a1400"
      },
      "nonce": 4,
      "data": "0x",
      "r": "0x0847eca2fed2fd699a32afab51f445b8d5172010de5cb450a9b65ba7faabb83b",
      "s": "0x5abc41919b9baee46620c88747bcfba7169facba0b77f4a038b1db5cd4b36056",
      "v": 28,
      "creates": null,
      "raw": "0xf86c04850d6676ac5b8252089432be343b94f860124dc4fee278fdcbd38c102d88884494bafdb77a1400801ca00847eca2fed2fd699a32afab51f445b8d5172010de5cb450a9b65ba7faabb83ba05abc41919b9baee46620c88747bcfba7169facba0b77f4a038b1db5cd4b36056",
      "networkId": 0,
      "chainId": 0
    },
    {
      "hash": "0xde7d2dd6ae24959b2bcb9afa576d6badf96cdee27cc1eca77dc884ab27a22ccd",
      "blockHash": "0x0359393989ac9fa94d82df111029b93341a222cc8933c75bd6c843499b44dd82",
      "blockNumber": 105466,
      "transactionIndex": 3,
      "confirmations": null,
      "from": "0x9Df360518f39eFB9729De3B6f9f1225f542c63E6",
      "gasPrice": {
        "_hex": "0xd6676ac5b"
      },
      "gasLimit": {
        "_hex": "0x5208"
      },
      "to": "0x32Be343B94f860124dC4fEe278FDCBD38C102D88",
      "value": {
        "_hex": "0xbdbc2bdc4698980000"
      },
      "nonce": 1,
      "data": "0x",
      "r": "0xf699458385f8993a843f777289a08097e1cf9d4fc781f37d6ac0c5573b1c8765",
      "s": "0x319ce068298b7dd0d476d043162689c8a7091f649574a6e5aa3771c7ad4b7087",
      "v": 28,
      "creates": null,
      "raw": "0xf86d01850d6676ac5b8252089432be343b94f860124dc4fee278fdcbd38c102d8889bdbc2bdc4698980000801ca0f699458385f8993a843f777289a08097e1cf9d4fc781f37d6ac0c5573b1c8765a0319ce068298b7dd0d476d043162689c8a7091f649574a6e5aa3771c7ad4b7087",
      "networkId": 0,
      "chainId": 0
    }
  ]
}