{
  "hash": "0x826b080981b2b2b2335b17293225afb8a491e10950fff901978b27ece6157814",
  "parentHash": "0x8db653858da06465fbf67882a5eca36d9dd32fbaf00835f247dbdaa18149b57f",
  "number": 117277,
  "timestamp": 1440106506,
  "nonce": "0xfd2fbcd6644ea888",
  "difficulty": 4325308053904,
  "gasLimit": {
    "_hex": "0x2fefd8"
  },
  "gasUsed": {
    "_hex": "0x5208"
  },
  "miner": "0x52bc44d5378309EE2abF1539BF71dE1b7d7bE3b5",
  "extraData": "0xd783010002844765746887676f312e342e32856c696e7578",
  "transactions": [
    {
      "hash": "0xb3dae5d8685deb54fd23524c05397ca936160fe683ea732f38bb1c50db09fabf",
      "blockHash": "0x826b080981b2b2b2335b17293225afb8a491e10950fff901978b27ece6157814",
      "blockNumber": 117277,
      "transactionIndex": 0,
      "confirmations": null,
      "from": "0x7eD2359220bC2A40b70C40350EcAb732B39c0eF4",
      "gasPrice": {
        "_hex": "0xd7d40ace3"
      },
      "gasLimit": {
        "_hex": "0x15f90"
      },
      "to": "0xe9E98b6688051a3369B1DE38166a799581E7C040",
      "value": {
        "_hex": "0x16345785d8a0000"
      },
      "nonce": 2,
      "data": "0x",
      "r": "0x35d64eb974694b3a3ee2dcefb08cbacaece2472327cfab772c8995c847a69730",
      "s": "0x4aea0b9fbcc275c975f8bb935ddd39c244f9ae4ce378d95a6fa44906019fa808",
      "v": 27,
      "creates": null,
      "raw": "0xf86d02850d7d40ace383015f9094e9e98b6688051a3369b1de38166a799581e7c04088016345785d8a0000801ba035d64eb974694b3a3ee2dcefb08cbacaece2472327cfab772c8995c847a69730a04aea0b9fbcc275c975f8bb935ddd39c244f9ae4ce378d95a6fa44906019fa808",
      "networkId": 0,
      "chainId": 0
    }
  ]
}