{
  "hash": "0x1ce5f312e96b080b055a006047cdedeec5150cb85fc1be3c98f687afa81b7a2b",
  "parentHash": "0x11327acfe97a2d04c432fd4d9cff17dae7c8f8bfea85cf3f15c69049437906ac",
  "number": 53597,
  "timestamp": 1439040240,
  "nonce": "0xad7b8b3e78df20c8",
  "difficulty": 1595507265843,
  "gasLimit": {
    "_hex": "0x2ccb71"
  },
  "gasUsed": {
    "_hex": "0x546c"
  },
  "miner": "0xf8E0CA3Ed80bd541b94BEdCf259e8CF2141A9523",
  "extraData": "0x476574682f76312e302e312f77696e646f77732f676f312e342e32",
  "transactions": [
    {
      "hash": "0xd5b31926430d2aec6e9efe306f3827ee3886b8f44391341b77359b7efb23626b",
      "blockHash": "0x1ce5f312e96b080b055a006047cdedeec5150cb85fc1be3c98f687afa81b7a2b",
      "blockNumber": 53597,
      "transactionIndex": 0,
      "confirmations": null,
      "from": "0xC83BA6dd9549Be1d3287A5a654D106c34c6B5da2",
      "gasPrice": {
        "_hex": "0x108ae0b0dd5"
      },
      "gasLimit": {
        "_hex": "0x15f90"
      },
      "to": "0x2910543Af39abA0Cd09dBb2D50200b3E800A63D2",
      "value": {
        "_hex": "0x17b6aa309b56efc0000"
      },
      "nonce": 0,
      "data": "0x454e46335933574530",
      "r": "0x1fad838cac843ad8922e58fbd293c0b45621ececcdaf2b71481866c8d7c69314",
      "s": "0x7f1d7c4d3c42e49e8ce92111d2286a7b09bc64fa52ff5a7b27b19068655ca92d",
      "v": 27,
      "creates": null,
      "raw": "0xf87980860108ae0b0dd583015f90942910543af39aba0cd09dbb2d50200b3e800a63d28a017b6aa309b56efc000089454e463359335745301ba01fad838cac843ad8922e58fbd293c0b45621ececcdaf2b71481866c8d7c69314a07f1d7c4d3c42e49e8ce92111d2286a7b09bc64fa52ff5a7b27b19068655ca92d",
      "networkId": 0,
      "chainId": 0
    }
  ]
}