{
  "hash": "0x0179800b0f8aa170bf004afaeff6269167e7956dd6e4d76510044acfbc333d08",
  "parentHash": "0x950ad070cef6dd217829dbf2f4b493e7366c8d15e368ecb1b7778a0323d1ff01",
  "number": 60788,
  "timestamp": 1439161553,
  "nonce": "0x2942385c315a7188",
  "difficulty": 1729578023627,
  "gasLimit": {
    "_hex": "0x2fefd8"
  },
  "gasUsed": {
    "_hex": "0xddfd"
  },
  "miner": "0xf927a40C8B7F6E07c5af7FA2155B4864a4112B13",
  "extraData": "0x476574682f76312e302e312f6c696e75782f676f312e342e32",
  "transactions": [
    {
      "hash": "0xea585ae3a9ff2a0e5b671659cea52ddb5cd4318dd17273cf40371a7715902c86",
      "blockHash": "0x0179800b0f8aa170bf004afaeff6269167e7956dd6e4d76510044acfbc333d08",
      "blockNumber": 60788,
      "transactionIndex": 0,
      "confirmations": null,
      "from": "0xBeb3B1d443791e4B2207a9866800E02DAcF19c02",
      "gasPrice": {
        "_hex": "0xdecc24d92"
      },
      "gasLimit": {
        "_hex": "0x61a80"
      },
      "to": "0x020522bF9B8eD6FF41E2fa6765a17E20E2767D64",
      "value": {
        "_hex": "0x56bc75e2d63100000"
      },
      "nonce": 13,
      "data": "0x",
      "r": "0x8412261380a334ce9d2f50a61b9f950e369319f5a7452c0fb4935674e0acac32",
      "s": "0x7b2ec7b3ad9b1b63fcf0a00e6f193c11db42bbe7fc3dedeb59b2c669832d7886",
      "v": 27,
      "creates": null,
      "raw": "0xf86e0d850decc24d9283061a8094020522bf9b8ed6ff41e2fa6765a17e20e2767d6489056bc75e2d63100000801ba08412261380a334ce9d2f50a61b9f950e369319f5a7452c0fb4935674e0acac32a07b2ec7b3ad9b1b63fcf0a00e6f193c11db42bbe7fc3dedeb59b2c669832d7886",
      "networkId": 0,
      "chainId": 0
    }
  ]
}