{
  "hash": "0x107e5dd13ebd372cc7dea3b71c58eff134a9f22885a5330a5304f74b86fa20dc",
  "parentHash": "0x0b726b4209dd9da0d0023b7214a6533a37f3abb9816b83de40ae0cffa79c8fea",
  "number": 60427,
  "timestamp": 1439155462,
  "nonce": "0x2276b4bc562a5d87",
  "difficulty": 1737270195163,
  "gasLimit": {
    "_hex": "0x2fefd8"
  },
  "gasUsed": {
    "_hex": "0x546c"
  },
  "miner": "0xEF247E639d49461D25F57e9362CadE3120910Ce0",
  "extraData": "0x476574682f76312e302e312f6c696e75782f676f312e342e32",
  "transactions": [
    {
      "hash": "0xe02afab9dffad2f2536d0e9cb9632dc8a73c850e45098860a5a8c001b6dde7b2",
      "blockHash": "0x107e5dd13ebd372cc7dea3b71c58eff134a9f22885a5330a5304f74b86fa20dc",
      "blockNumber": 60427,
      "transactionIndex": 0,
      "confirmations": null,
      "from": "0x3E8745BA322f5fd6cB50124Ec46688c7a69a7FaE",
      "gasPrice": {
        "_hex": "0x1066e9dc2f2"
      },
      "gasLimit": {
        "_hex": "0x15f90"
      },
      "to": "0x2910543Af39abA0Cd09dBb2D50200b3E800A63D2",
      "value": {
        "_hex": "0x76d41c624948400000"
      },
      "nonce": 7,
      "data": "0x454e435250324d4a52",
      "r": "0x3b6c43f3fa0bd4974aaa4e01deb37c3b2cc9621484d6c13cc3b3a2580e29377d",
      "s": "0x10d597ce2656a8bc483e2a5b51225ad1f35bcabc5bf1966dcecd36a5bc3881c4",
      "v": 27,
      "creates": null,
      "raw": "0xf878078601066e9dc2f283015f90942910543af39aba0cd09dbb2d50200b3e800a63d28976d41c62494840000089454e435250324d4a521ba03b6c43f3fa0bd4974aaa4e01deb37c3b2cc9621484d6c13cc3b3a2580e29377da010d597ce2656a8bc483e2a5b51225ad1f35bcabc5bf1966dcecd36a5bc3881c4",
      "networkId": 0,
      "chainId": 0
    }
  ]
}