{
  "hash": "0x8fd582bba722200cb28b104688c4e530974f254d5b8e92b6478aad38b8678e81",
  "parentHash": "0xa82d0c43dd5c47777ebf44208b8f1e5ead85961cc2ea7d6e5536c41ee3165553",
  "number": 84319,
  "timestamp": 1439547971,
  "nonce": "0xf2cf259aac708103",
  "difficulty": 2540292951132,
  "gasLimit": {
    "_hex": "0x2fefd8"
  },
  "gasUsed": {
    "_hex": "0x5208"
  },
  "miner": "0xe6A7a1d47ff21B6321162AEA7C6CB457D5476Bca",
  "extraData": "0x476574682f76312e302e312d38326566323666362f6c696e75782f676f312e34",
  "transactions": [
    {
      "hash": "0xac8f4d5c23511bbf854410dc84d4e4602f1f63eeceac9e0ff76e13d30842242e",
      "blockHash": "0x8fd582bba722200cb28b104688c4e530974f254d5b8e92b6478aad38b8678e81",
      "blockNumber": 84319,
      "transactionIndex": 0,
      "confirmations": null,
      "from": "0xD51361E8863b74B1d3BF75246d30f33f9f103e1d",
      "gasPrice": {
        "_hex": "0xd97e8db04"
      },
      "gasLimit": {
        "_hex": "0x5208"
      },
      "to": "0x32Be343B94f860124dC4fEe278FDCBD38C102D88",
      "value": {
        "_hex": "0xbbdfce60c9fd4000"
      },
      "nonce": 1,
      "data": "0x",
      "r": "0x8ecce97e8ee494a4e4452d415869a218e48061c99a824476d00759924174f966",
      "s": "0x07faee40268a0730a7006ad30c397e1f1680b9d2374b9d7aaf84befdb79bd8d1",
      "v": 28,
      "creates": null,
      "raw": "0xf86c01850d97e8db048252089432be343b94f860124dc4fee278fdcbd38c102d8888bbdfce60c9fd4000801ca08ecce97e8ee494a4e4452d415869a218e48061c99a824476d00759924174f966a007faee40268a0730a7006ad30c397e1f1680b9d2374b9d7aaf84befdb79bd8d1",
      "networkId": 0,
      "chainId": 0
    }
  ]
}