{
  "hash": "0x1afcea5769987806c550fec1a4d83e78eff1b090be174f0e43fbc9b9d7635c84",
  "parentHash": "0x5d3e3c4c9afbd9df91beafd95bb5161729d6f4863d3e9901f826415292dcdcfd",
  "number": 89626,
  "timestamp": 1439626502,
  "nonce": "0x7772c7e99ce38853",
  "difficulty": 3315925037068,
  "gasLimit": {
    "_hex": "0x2fefd8"
  },
  "gasUsed": {
    "_hex": "0xa410"
  },
  "miner": "0x7366ADF97960d404c38D975e1A8786bEb14B6507",
  "extraData": "0x476574682f76312e302e312f77696e646f77732f676f312e342e32",
  "transactions": [
    {
      "hash": "0x3e70f62acc80563654c70b2f6f5e49e4e1cf8283007bce780ff1547d1205a86b",
      "blockHash": "0x1afcea5769987806c550fec1a4d83e78eff1b090be174f0e43fbc9b9d7635c84",
      "blockNumber": 89626,
      "transactionIndex": 0,
      "confirmations": null,
      "from": "0x79d5794171E11dd5C2f0e26E1C187319db2FE6f7",
      "gasPrice": {
        "_hex": "0xdaebdd62e"
      },
      "gasLimit": {
        "_hex": "0x5208"
      },
      "to": "0x32Be343B94f860124dC4fEe278FDCBD38C102D88",
      "value": {
        "_hex": "0x478a3f8d65371000"
      },
      "nonce": 28,
      "data": "0x",
      "r": "0x11d5017fccbd941b7d53ae014888da057a2f1b881f17593016db24704467ad2a",
      "s": "0x45f9e9e5dfa5851c36d0a3e8733237ee8e4354c602df7f9fd1284ec326ab923e",
      "v": 27,
      "creates": null,
      "raw": "0xf86c1c850daebdd62e8252089432be343b94f860124dc4fee278fdcbd38c102d8888478a3f8d65371000801ba011d5017fccbd941b7d53ae014888da057a2f1b881f17593016db24704467ad2aa045f9e9e5dfa5851c36d0a3e8733237ee8e4354c602df7f9fd1284ec326ab923e",
      "networkId": 0,
      "chainId": 0
    },
    {
      "hash": "0xf0c8fceb50dd538a28c434991388c2b2190891b010aef796f6985498b141d322",
      "blockHash": "0x1afcea5769987806c550fec1a4d83e78eff1b090be174f0e43fbc9b9d7635c84",
      "blockNumber": 89626,
      "transactionIndex": 1,
      "confirmations": null,
      "from": "0x04a2a3ee9C9ea82e1F918ecE209f8A7E6d7521E7",
      "gasPrice": {
        "_hex": "0xdaebdd62e"
      },
      "gasLimit": {
        "_hex": "0x5208"
      },
      "to": "0x32Be343B94f860124dC4fEe278FDCBD38C102D88",
      "value": {
        "_hex": "0x46c27494aa6bdc00"
      },
      "nonce": 9,
      "data": "0x",
      "r": "0x42d6709c1c898d7bf0cb12861acf63168ad2896c80cfa7584bec51e2c1bac69c",
      "s": "0x774a47e843333368efacef00b2cf36b0ae34ce65c2faad864611e9df6563529f",
      "v": 28,
      "creates": null,
      "raw": "0xf86c09850daebdd62e8252089432be343b94f860124dc4fee278fdcbd38c102d888846c27494aa6bdc00801ca042d6709c1c898d7bf0cb12861acf63168ad2896c80cfa7584bec51e2c1bac69ca0774a47e843333368efacef00b2cf36b0ae34ce65c2faad864611e9df6563529f",
      "networkId": 0,
      "chainId": 0
    }
  ]
}