{
  "hash": "0x4cb27279b642c8970ef9cd2553e2d789f293bea9f0c083f1f99803423f2e9045",
  "parentHash": "0x8bf903a5795a8163d5652679f08200647e5d23da0c7720a33d6bff96c6e7e189",
  "number": 107223,
  "timestamp": 1439918333,
  "nonce": "0xd3ddb6018a246ff3",
  "difficulty": 4441856952436,
  "gasLimit": {
    "_hex": "0x2fefd8"
  },
  "gasUsed": {
    "_hex": "0x5208"
  },
  "miner": "0xf8E0CA3Ed80bd541b94BEdCf259e8CF2141A9523",
  "extraData": "0x476574682f76312e302e312f77696e646f77732f676f312e342e32",
  "transactions": [
    {
      "hash": "0xf8325332e2147d10281d922cf777c437267db1df933ad993a61a347e14738404",
      "blockHash": "0x4cb27279b642c8970ef9cd2553e2d789f293bea9f0c083f1f99803423f2e9045",
      "blockNumber": 107223,
      "transactionIndex": 0,
      "confirmations": null,
      "from": "0xf2cC0eEAAAeD313542CB262B0B8c3972425143f0",
      "gasPrice": {
        "_hex": "0xd07884009"
      },
      "gasLimit": {
        "_hex": "0x5208"
      },
      "to": "0x32Be343B94f860124dC4fEe278FDCBD38C102D88",
      "value": {
        "_hex": "0x8a9f6f402fb48800"
      },
      "nonce": 18,
      "data": "0x",
      "r": "0xac48f5b04f8c9cdfb7eeff21bb180dc8e3106259cea17fa37f634a14e08b6d56",
      "s": "0x7f931d8d851a4645ac1c2d9832b54605efef814a73cc2c2b6588c92cd24a36ab",
      "v": 27,
      "creates": null,
      "raw": "0xf86c12850d078840098252089432be343b94f860124dc4fee278fdcbd38c102d88888a9f6f402fb48800801ba0ac48f5b04f8c9cdfb7eeff21bb180dc8e3106259cea17fa37f634a14e08b6d56a07f931d8d851a4645ac1c2d9832b54605efef814a73cc2c2b6588c92cd24a36ab",
      "networkId": 0,
      "chainId": 0
    }
  ]
}