{
  "hash": "0x1327ab2b9c12167de682e43b2f1a3c40af5f085f2382900eb00735f2de1a4438",
  "parentHash": "0x9e200a638ae8cc6bf2a62ddf2405402db90af18818f91cc0808f768e7ecf4494",
  "number": 105402,
  "timestamp": 1439887026,
  "nonce": "0x334bfcf7d9c03a25",
  "difficulty": 4363276185975,
  "gasLimit": {
    "_hex": "0x2fefd8"
  },
  "gasUsed": {
    "_hex": "0xf618"
  },
  "miner": "0x790b8a3cE86E707ED0eD32bF89B3269692a23CC1",
  "extraData": "0xd783010001844765746887676f312e342e32856c696e7578",
  "transactions": [
    {
      "hash": "0x5085122ea70979d8fa47512dc0f0fc03dfa0c89e40a659c002afac8fc6539377",
      "blockHash": "0x1327ab2b9c12167de682e43b2f1a3c40af5f085f2382900eb00735f2de1a4438",
      "blockNumber": 105402,
      "transactionIndex": 0,
      "confirmations": null,
      "from": "0xB0bF4A71F730782368Ef660FE6D298F432F95450",
      "gasPrice": {
        "_hex": "0xdc21c8d5a"
      },
      "gasLimit": {
        "_hex": "0x5208"
      },
      "to": "0x32Be343B94f860124dC4fEe278FDCBD38C102D88",
      "value": {
        "_hex": "0x6c6b8ef2ef89740000"
      },
      "nonce": 32,
      "data": "0x",
      "r": "0x650014ef058cee117eb95d9b3987ce6e8351a661e7d365a63855bdd5bee99a83",
      "s": "0x5066e09b4ae5d4c9916f661c6f0068a71f5bae50e8e6d3b565995db1d0581c22",
      "v": 28,
      "creates": null,
      "raw": "0xf86d20850dc21c8d5a8252089432be343b94f860124dc4fee278fdcbd38c102d88896c6b8ef2ef89740000801ca0650014ef058cee117eb95d9b3987ce6e8351a661e7d365a63855bdd5bee99a83a05066e09b4ae5d4c9916f661c6f0068a71f5bae50e8e6d3b565995db1d0581c22",
      "networkId": 0,
      "chainId": 0
    },
    {
      "hash": "0x40ddaa1c48babe689cb3d99bbf8e09e754852027018a86ec0de8863f15ddd314",
      "blockHash": "0x1327ab2b9c12167de682e43b2f1a3c40af5f085f2382900eb00735f2de1a4438",
      "blockNumber": 105402,
      "transactionIndex": 1,
      "confirmations": null,
      "from": "0xD9a9A8ec148D2B0F7Cd8B2700013A9AA5cf89910",
      "gasPrice": {
        "_hex": "0xdc21c8d5a"
      },
      "gasLimit": {
        "_hex": "0x5208"
      },
      "to": "0x32Be343B94f860124dC4fEe278FDCBD38C102D88",
      "value": {
        "_hex": "0x1f23a5970ac583000"
      },
      "nonce": 7,
      "data": "0x",
      "r": "0xffce769061813d37ea8737333b7e702e2d051b162eb125f087f27eb08957c53e",
      "s": "0x657373f43a388efdb6e040e5c39bd2583335df2875b0999b4d9fb18d45ff0bcb",
      "v": 27,
      "creates": null,
      "raw": "0xf86d07850dc21c8d5a8252089432be343b94f860124dc4fee278fdcbd38c102d888901f23a5970ac583000801ba0ffce769061813d37ea8737333b7e702e2d051b162eb125f087f27eb08957c53ea0657373f43a388efdb6e040e5c39bd2583335df2875b0999b4d9fb18d45ff0bcb",
      "networkId": 0,
      "chainId": 0
    },
    {
      "hash": "0x8d2a33997471b4bbc06c7e10c632e4bfe33dac4194fd863902f95f092780a608",
      "blockHash": "0x1327ab2b9c12167de682e43b2f1a3c40af5f085f2382900eb00735f2de1a4438",
      "blockNumber": 105402,
      "transactionIndex": 2,
      "confirmations": null,
      "from": "0x727A42a8D67fcaa0Ab81D46f1EE66bfc9b8789AC",
      "gasPrice": {
        "_hex": "0xd450d252b"
      },
      "gasLimit": {
        "_hex": "0x15f90"
      },
      "to": "0x285B048CC4cB946abCF3eF11aDe982C36946AF18",
      "value": {
        "_hex": "0x176b344f2a78c0000"
      },
      "nonce": 16,
      "data": "0x",
      "r": "0x8fc93c4a83e56657eb4acbe7b161118e937ecad390cb140d30695e325e33f697",
      "s": "0x2e0159bb3d86f83c3df7fb62adf5f85fe35eee2bada347875456bb4cbcc48ff2",
      "v": 27,
      "creates": null,
      "raw": "0xf86e10850d450d252b83015f9094285b048cc4cb946abcf3ef11ade982c36946af18890176b344f2a78c0000801ba08fc93c4a83e56657eb4acbe7b161118e937ecad390cb140d30695e325e33f697a02e0159bb3d86f83c3df7fb62adf5f85fe35eee2bada347875456bb4cbcc48ff2",
      "networkId": 0,
      "chainId": 0
    }
  ]
}