{
  "hash": "0x037edfbebc6301b26d299976e09f683985bedd6f0a19418b18c565d470903698",
  "parentHash": "0x10c8e5c5f15e78409fe4de19a7c0ddb73eda686c106bb589445c182305c007f3",
  "number": 74088,
  "timestamp": 1439380161,
  "nonce": "0x600f6ac8ae1c3e45",
  "difficulty": 2239063333122,
  "gasLimit": {
    "_hex": "0x2fefd8"
  },
  "gasUsed": {
    "_hex": "0x5208"
  },
  "miner": "0x1d6C4F7d4438bd7E81D4FE153Dd956bCaBcfF265",
  "extraData": "0x476574682f76312e302e312f77696e646f77732f676f312e342e32",
  "transactions": [
    {
      "hash": "0x739600befd5e6c7ba6d1712d1105a6668959890e3c0a77564ab46aef841e326a",
      "blockHash": "0x037edfbebc6301b26d299976e09f683985bedd6f0a19418b18c565d470903698",
      "blockNumber": 74088,
      "transactionIndex": 0,
      "confirmations": null,
      "from": "0x9271AB1be3177bF3E3B684a8783698F1B9D600a2",
      "gasPrice": {
        "_hex": "0xd43a07f7c"
      },
      "gasLimit": {
        "_hex": "0x15f90"
      },
      "to": "0xa391109Aa419A9241C6d91d824581D672e96E93B",
      "value": {
        "_hex": "0x34a3e31735a750000"
      },
      "nonce": 1,
      "data": "0x",
      "r": "0x276e75e37e12d7d2e6bfeb6b3237d29b998076116f210a497602c433d246792c",
      "s": "0x4584a8d03fb79a9370d82c5a62368daed932f9a2319edaf439718c96ebd9740c",
      "v": 28,
      "creates": null,
      "raw": "0xf86e01850d43a07f7c83015f9094a391109aa419a9241c6d91d824581d672e96e93b89034a3e31735a750000801ca0276e75e37e12d7d2e6bfeb6b3237d29b998076116f210a497602c433d246792ca04584a8d03fb79a9370d82c5a62368daed932f9a2319edaf439718c96ebd9740c",
      "networkId": 0,
      "chainId": 0
    }
  ]
}