{
  "hash": "0xd9aec76725a22ad0ce2b0e33c1bd3fb00d4bb417790beb1135b92dc9fe9e0512",
  "parentHash": "0xddb5dda23c87e281d46c613f01ae901a58119cfe675e8ae6a397a3afcd47e19f",
  "number": 110776,
  "timestamp": 1439979267,
  "nonce": "0xfd0881058b215f90",
  "difficulty": 4394681517672,
  "gasLimit": {
    "_hex": "0x2fefd8"
  },
  "gasUsed": {
    "_hex": "0x5208"
  },
  "miner": "0xe6A7a1d47ff21B6321162AEA7C6CB457D5476Bca",
  "extraData": "0x476574682f76312e302e312d38326566323666362f6c696e75782f676f312e34",
  "transactions": [
    {
      "hash": "0x6e1b1c4e098bdea54cc041988db8f6e171368e723c4de38071c3feda71d934e9",
      "blockHash": "0xd9aec76725a22ad0ce2b0e33c1bd3fb00d4bb417790beb1135b92dc9fe9e0512",
      "blockNumber": 110776,
      "transactionIndex": 0,
      "confirmations": null,
      "from": "0x32Be343B94f860124dC4fEe278FDCBD38C102D88",
      "gasPrice": {
        "_hex": "0xe2d149545"
      },
      "gasLimit": {
        "_hex": "0x5208"
      },
      "to": "0x25c6e74Ff1d928df98137AF4dF8430df24F07Cd7",
      "value": {
        "_hex": "0xd847c6a03202c8000"
      },
      "nonce": 1293,
      "data": "0x",
      "r": "0x7a961e589a1e44197538d24240128da75bdce4edc0f61436d84ed8d0da00d9c1",
      "s": "0x1a8e732d9b4312d8e7faf7ccae6dfa6aba44047d2067479cccb9f97f703d43f0",
      "v": 28,
      "creates": null,
      "raw": "0xf86f82050d850e2d1495458252089425c6e74ff1d928df98137af4df8430df24f07cd7890d847c6a03202c8000801ca07a961e589a1e44197538d24240128da75bdce4edc0f61436d84ed8d0da00d9c1a01a8e732d9b4312d8e7faf7ccae6dfa6aba44047d2067479cccb9f97f703d43f0",
      "networkId": 0,
      "chainId": 0
    }
  ]
}