{
  "hash": "0xf94cc9509739d621ab83ac019c80af19640bb0318cc5c596373915097d719dc2",
  "parentHash": "0x33609d478403233d65e8624daf381acd8957990b3d8e15359a6e5a5f3662daab",
  "number": 101888,
  "timestamp": 1439829614,
  "nonce": "0xaba0ec1eff28de32",
  "difficulty": 3889994373998,
  "gasLimit": {
    "_hex": "0x2fefd8"
  },
  "gasUsed": {
    "_hex": "0x5208"
  },
  "miner": "0x9D49F602b0fdb924Bd63DDE2Bd0907E4A07c63a7",
  "extraData": "0x476574682f76312e302e312f6c696e75782f676f312e342e32",
  "transactions": [
    {
      "hash": "0xf103dfb279db86bfc7ca0a5a6b723bb9bacf72acda1a78f6d666de40c3ec4b60",
      "blockHash": "0xf94cc9509739d621ab83ac019c80af19640bb0318cc5c596373915097d719dc2",
      "blockNumber": 101888,
      "transactionIndex": 0,
      "confirmations": null,
      "from": "0xD79835E404FB86BF845fbA090d6bA25e0C8866a6",
      "gasPrice": {
        "_hex": "0xd3e0dd636"
      },
      "gasLimit": {
        "_hex": "0x15f90"
      },
      "to": "0x624b39c4028fE564288ef5cC1aA7261C6cd3a751",
      "value": {
        "_hex": "0x2386f26fc10000"
      },
      "nonce": 1,
      "data": "0x",
      "r": "0x890291c504bac1fb871a0c530b9c107b363f7a491bb47621521f4061b58d4d1b",
      "s": "0x745c4ad5daffc4ea27130b9cb78912ab8b9b58ad2f9b8eee8e1f3dc26e1609e4",
      "v": 28,
      "creates": null,
      "raw": "0xf86c01850d3e0dd63683015f9094624b39c4028fe564288ef5cc1aa7261c6cd3a751872386f26fc10000801ca0890291c504bac1fb871a0c530b9c107b363f7a491bb47621521f4061b58d4d1ba0745c4ad5daffc4ea27130b9cb78912ab8b9b58ad2f9b8eee8e1f3dc26e1609e4",
      "networkId": 0,
      "chainId": 0
    }
  ]
}