{
  "hash": "0xf78693e8e567dd39e4f7cc58f2f0cd04d1c910d0e789d3e04f254c9d8e57c82c",
  "parentHash": "0xb01f5a884553afa766db0bc44a55bfecbe05a2fb545228ada4d2fd2953762daf",
  "number": 85389,
  "timestamp": 1439562874,
  "nonce": "0x0ff58934f6399972",
  "difficulty": 2738327065691,
  "gasLimit": {
    "_hex": "0x2fefd8"
  },
  "gasUsed": {
    "_hex": "0x5208"
  },
  "miner": "0xe6A7a1d47ff21B6321162AEA7C6CB457D5476Bca",
  "extraData": "0x476574682f76312e302e312d38326566323666362f6c696e75782f676f312e34",
  "transactions": [
    {
      "hash": "0x32b84e0df855a770b8c27939b1918a6c6b28be829a3dd0562f8b79d75863e07c",
      "blockHash": "0xf78693e8e567dd39e4f7cc58f2f0cd04d1c910d0e789d3e04f254c9d8e57c82c",
      "blockNumber": 85389,
      "transactionIndex": 0,
      "confirmations": null,
      "from": "0x2910543Af39abA0Cd09dBb2D50200b3E800A63D2",
      "gasPrice": {
        "_hex": "0xcd2e2bc72"
      },
      "gasLimit": {
        "_hex": "0x5208"
      },
      "to": "0xA43B1A989f607Edc8041319870e1A0ae96D84aA0",
      "value": {
        "_hex": "0x56bc641f5cf91f8000"
      },
      "nonce": 611,
      "data": "0x",
      "r": "0xf2a1ebcce8b5b0daeeada11c999fcf15aa5e1df5614a3b3e607eb4f3dc4c3095",
      "s": "0x2d9896fff3f8407a2519b0a73b2cd7e6b317aecf7ca3b0680df8e6819c16aba6",
      "v": 27,
      "creates": null,
      "raw": "0xf86f820263850cd2e2bc7282520894a43b1a989f607edc8041319870e1a0ae96d84aa08956bc641f5cf91f8000801ba0f2a1ebcce8b5b0daeeada11c999fcf15aa5e1df5614a3b3e607eb4f3dc4c3095a02d9896fff3f8407a2519b0a73b2cd7e6b317aecf7ca3b0680df8e6819c16aba6",
      "networkId": 0,
      "chainId": 0
    }
  ]
}