{
  "hash": "0xc7790946aa9b375f86073aa6905ebc2a4a52a34cb50e66f6f1e7d6dddaa1c274",
  "parentHash": "0x4bb1949e43ff590ed506f2e3d3e8b1a28ecdd12492f49aea3cb4bd26d2c43101",
  "number": 122291,
  "timestamp": 1440191677,
  "nonce": "0x99a3c1f89ca7007f",
  "difficulty": 4455588222307,
  "gasLimit": {
    "_hex": "0x2fefd8"
  },
  "gasUsed": {
    "_hex": "0x29040"
  },
  "miner": "0x8B454d830feF179e66206840F8F3D1d83bC32b17",
  "extraData": "0x",
  "transactions": [
    {
      "hash": "0x9b36735c5fbf39d0bc122bb1a19de2b918448dbeb97b9ae0f0085684b87255e3",
      "blockHash": "0xc7790946aa9b375f86073aa6905ebc2a4a52a34cb50e66f6f1e7d6dddaa1c274",
      "blockNumber": 122291,
      "transactionIndex": 0,
      "confirmations": null,
      "from": "0x4D67f4F0Db45b3B5a3424B39ed8d972F710381D5",
      "gasPrice": {
        "_hex": "0xd37a12969"
      },
      "gasLimit": {
        "_hex": "0x5208"
      },
      "to": "0x32Be343B94f860124dC4fEe278FDCBD38C102D88",
      "value": {
        "_hex": "0x2b47c2d61eed0e000"
      },
      "nonce": 67,
      "data": "0x",
      "r": "0x89e787048922fb06393f3d308920d93cb4d6d36a2e3642ed1980af742b28a0a1",
      "s": "0x6edf6bd1801fb6ed15e032d49fc968a0efaf27e30ac35bd68ebd5ea8359b7777",
      "v": 27,
      "creates": null,
      "raw": "0xf86d43850d37a129698252089432be343b94f860124dc4fee278fdcbd38c102d888902b47c2d61eed0e000801ba089e787048922fb06393f3d308920d93cb4d6d36a2e3642ed1980af742b28a0a1a06edf6bd1801fb6ed15e032d49fc968a0efaf27e30ac35bd68ebd5ea8359b7777",
      "networkId": 0,
      "chainId": 0
    },
    {
      "hash": "0x83ad8eccae61246c75eb7b89f48281c5f003bb72470ab8a70e2e4e8bde831968",
      "blockHash": "0xc7790946aa9b375f86073aa6905ebc2a4a52a34cb50e66f6f1e7d6dddaa1c274",
      "blockNumber": 122291,
      "transactionIndex": 1,
      "confirmations": null,
      "from": "0xb1abce2918E21ddb93AA452731a12672A3d9F75a",
      "gasPrice": {
        "_hex": "0xd37a12969"
      },
      "gasLimit": {
        "_hex": "0x5208"
      },
      "to": "0x32Be343B94f860124dC4fEe278FDCBD38C102D88",
      "value": {
        "_hex": "0x8ac2f3473c8ca000"
      },
      "nonce": 226,
      "data": "0x",
      "r": "0x1f23c29e765f9cb2f45df5d57dd394b086e071ae5283ff39d10ec0f6f3305f59",
      "s": "0x2d6eeed60a604f69b715c73dab571f3803dfb5483f43998c27c8520edf2ec213",
      "v": 28,
      "creates": null,
      "raw": "0xf86d81e2850d37a129698252089432be343b94f860124dc4fee278fdcbd38c102d88888ac2f3473c8ca000801ca01f23c29e765f9cb2f45df5d57dd394b086e071ae5283ff39d10ec0f6f3305f59a02d6eeed60a604f69b715c73dab571f3803dfb5483f43998c27c8520edf2ec213",
      "networkId": 0,
      "chainId": 0
    },
    {
      "hash": "0xe60390f67d5a2a87906fe8033d908b1883c5774770019b7f3ab18d94d6c3ea19",
      "blockHash": "0xc7790946aa9b375f86073aa6905ebc2a4a52a34cb50e66f6f1e7d6dddaa1c274",
      "blockNumber": 122291,
      "transactionIndex": 2,
      "confirmations": null,
      "from": "0x608f4b86321a68453f9adf6F06F7Fc3E621739ad",
      "gasPrice": {
        "_hex": "0xd37a12969"
      },
      "gasLimit": {
        "_hex": "0x5208"
      },
      "to": "0x32Be343B94f860124dC4fEe278FDCBD38C102D88",
      "value": {
        "_hex": "0x4566cb3639ce2c00"
      },
      "nonce": 127,
      "data": "0x",
      "r": "0xcd293ade8d8b5ad3b0f4a320c0f19a0a11eec9e56bb10ca78af1906862b0b159",
      "s": "0x459adb15c7200768968d74cd4fdeb3ec5be00fc23b1a8d95d321871e57e729d8",
      "v": 27,
      "creates": null,
      "raw": "0xf86c7f850d37a129698252089432be343b94f860124dc4fee278fdcbd38c102d88884566cb3639ce2c00801ba0cd293ade8d8b5ad3b0f4a320c0f19a0a11eec9e56bb10ca78af1906862b0b159a0459adb15c7200768968d74cd4fdeb3ec5be00fc23b1a8d95d321871e57e729d8",
      "networkId": 0,
      "chainId": 0
    },
    {
      "hash": "0x5a4163c25e47cbe39bae7937b43f6bb75b75333e0c61d8f6562aad1e66d6ab29",
      "blockHash": "0xc7790946aa9b375f86073aa6905ebc2a4a52a34cb50e66f6f1e7d6dddaa1c274",
      "blockNumber": 122291,
      "transactionIndex": 3,
      "confirmations": null,
      "from": "0x899708488bD7a83aebA4a22BEAB20BaCC1B01Cf3",
      "gasPrice": {
        "_hex": "0xd37a12969"
      },
      "gasLimit": {
        "_hex": "0x5208"
      },
      "to": "0x32Be343B94f860124dC4fEe278FDCBD38C102D88",
      "value": {
        "_hex": "0x3643a6283d20d60000"
      },
      "nonce": 1,
      "data": "0x",
      "r": "0xcf42835ec2ce2968f6114b35226996db2cefbaae915688f665b554d359f529a3",
      "s": "0x4480e8a329e45b764660d5472fcc9fec32136b0f7b4f58deaaa2c04defb48c4d",
      "v": 27,
      "creates": null,
      "raw": "0xf86d01850d37a129698252089432be343b94f860124dc4fee278fdcbd38c102d88893643a6283d20d60000801ba0cf42835ec2ce2968f6114b35226996db2cefbaae915688f665b554d359f529a3a04480e8a329e45b764660d5472fcc9fec32136b0f7b4f58deaaa2c04defb48c4d",
      "networkId": 0,
      "chainId": 0
    },
    {
      "hash": "0x128216921f20950878ad48c849ee4dbd1e5cdf8cb46752263beb144269e85131",
      "blockHash": "0xc7790946aa9b375f86073aa6905ebc2a4a52a34cb50e66f6f1e7d6dddaa1c274",
      "blockNumber": 122291,
      "transactionIndex": 4,
      "confirmations": null,
      "from": "0x92857A8BC0A6F66180324f49541C695A3a0Ff944",
      "gasPrice": {
        "_hex": "0xd37a12969"
      },
      "gasLimit": {
        "_hex": "0x5208"
      },
      "to": "0x32Be343B94f860124dC4fEe278FDCBD38C102D88",
      "value": {
        "_hex": "0x13f2c2de7a4cef000"
      },
      "nonce": 11,
      "data": "0x",
      "r": "0x9aca389ac1514aa40c02ab18b38879f005827ce9148078b7fef9f0e4937c06a2",
      "s": "0x2391b6cf3cb5a5434987d03f0983c9a36ac7d0e064d8be14a8e2eae589fcb6b3",
      "v": 27,
      "creates": null,
      "raw": "0xf86d0b850d37a129698252089432be343b94f860124dc4fee278fdcbd38c102d8889013f2c2de7a4cef000801ba09aca389ac1514aa40c02ab18b38879f005827ce9148078b7fef9f0e4937c06a2a02391b6cf3cb5a5434987d03f0983c9a36ac7d0e064d8be14a8e2eae589fcb6b3",
      "networkId": 0,
      "chainId": 0
    },
    {
      "hash": "0xb8bd92f4a735dfd7348ffe264243f4eea1375a3347ee6a21010e7b5d5dc78b5c",
      "blockHash": "0xc7790946aa9b375f86073aa6905ebc2a4a52a34cb50e66f6f1e7d6dddaa1c274",
      "blockNumber": 122291,
      "transactionIndex": 5,
      "confirmations": null,
      "from": "0x0cA19A53a3256482A89770FC1daFC7630717F201",
      "gasPrice": {
        "_hex": "0xd37a12969"
      },
      "gasLimit": {
        "_hex": "0x5208"
      },
      "to": "0x32Be343B94f860124dC4fEe278FDCBD38C102D88",
      "value": {
        "_hex": "0xcbd31b7350bbe8000"
      },
      "nonce": 22,
      "data": "0x",
      "r": "0x5f7408e6b6bf395d01a92f8577971a32a1e498f58d0b0508e1fb620c5e42620e",
      "s": "0x6f3b70a19643d2be0a57c67b6a725e731b8b1311384e5c97fd7a40effab456a8",
      "v": 27,
      "creates": null,
      "raw": "0xf86d16850d37a129698252089432be343b94f860124dc4fee278fdcbd38c102d88890cbd31b7350bbe8000801ba05f7408e6b6bf395d01a92f8577971a32a1e498f58d0b0508e1fb620c5e42620ea06f3b70a19643d2be0a57c67b6a725e731b8b1311384e5c97fd7a40effab456a8",
      "networkId": 0,
      "chainId": 0
    },
    {
      "hash": "0xefa35778169aad4e8a85a77350882b8cf1bc872e5acab616c00c4c2135f39ae2",
      "blockHash": "0xc7790946aa9b375f86073aa6905ebc2a4a52a34cb50e66f6f1e7d6dddaa1c274",
      "blockNumber": 122291,
      "transactionIndex": 6,
      "confirmations": null,
      "from": "0xBb7f43EDfd8bf08B022fEd5BD91e3f9dE7e74D09",
      "gasPrice": {
        "_hex": "0xd37a12969"
      },
      "gasLimit": {
        "_hex": "0x5208"
      },
      "to": "0x32Be343B94f860124dC4fEe278FDCBD38C102D88",
      "value": {
        "_hex": "0x1a0512cd1388af000"
      },
      "nonce": 13,
      "data": "0x",
      "r": "0xbe74d8c7c26d8824a8a6920298fbb92281d26ade43f3460b2cb337eff6a2507a",
      "s": "0x2b71fbc9d3f6258f7b0e88b6107f8a304f82ace7166471e938b94c9bca5e27dd",
      "v": 28,
      "creates": null,
      "raw": "0xf86d0d850d37a129698252089432be343b94f860124dc4fee278fdcbd38c102d888901a0512cd1388af000801ca0be74d8c7c26d8824a8a6920298fbb92281d26ade43f3460b2cb337eff6a2507aa02b71fbc9d3f6258f7b0e88b6107f8a304f82ace7166471e938b94c9bca5e27dd",
      "networkId": 0,
      "chainId": 0
    },
    {
      "hash": "0x2a9a4aec7b511f5d5e9f39397735f19c970fa37940358b286c869cec68066888",
      "blockHash": "0xc7790946aa9b375f86073aa6905ebc2a4a52a34cb50e66f6f1e7d6dddaa1c274",
      "blockNumber": 122291,
      "transactionIndex": 7,
      "confirmations": null,
      "from": "0x6E4F1DD8EDB448D8F0F2829eb817B81ACEE45152",
      "gasPrice": {
        "_hex": "0xba43b7400"
      },
      "gasLimit": {
        "_hex": "0x15f90"
      },
      "to": "0x7631A0C89D0Bc405dF95Bd653c8CC902994B347e",
      "value": {
        "_hex": "0x2386f26fc10000"
      },
      "nonce": 7,
      "data": "0x",
      "r": "0x21118a1884364b5de620ecc165e1e2447e9b54efb9b79e8b598bf70d09fed747",
      "s": "0x713e6976134fe353eef4fb91a6a22eae9c543c8b4d4b5618f1b4bda772a8a233",
      "v": 28,
      "creates": null,
      "raw": "0xf86c07850ba43b740083015f90947631a0c89d0bc405df95bd653c8cc902994b347e872386f26fc10000801ca021118a1884364b5de620ecc165e1e2447e9b54efb9b79e8b598bf70d09fed747a0713e6976134fe353eef4fb91a6a22eae9c543c8b4d4b5618f1b4bda772a8a233",
      "networkId": 0,
      "chainId": 0
    }
  ]
}