{
  "hash": "0x3529eedaf4314a5d9236ca59fe9e2fe5b71e9956ac7294009abd77e21653a398",
  "parentHash": "0x3cd877e9da600aa4d2268ae31dce6b022c9da6845f9c689bee7b7486a454447d",
  "number": 79644,
  "timestamp": 1439473084,
  "nonce": "0x7d7c9bcb4d966fe8",
  "difficulty": 2335822435885,
  "gasLimit": {
    "_hex": "0x2fefd8"
  },
  "gasUsed": {
    "_hex": "0x14a72"
  },
  "miner": "0x7812D42e3DDAaC2BFB738279ED0F7026Ef0Eef4D",
  "extraData": "0x476574682f76312e302e312f6c696e75782f676f312e342e32",
  "transactions": [
    {
      "hash": "0x5e681627c14647d8a74d991fa0ae27efe1eaa2904c2e56cee744a1b1ecb79ccb",
      "blockHash": "0x3529eedaf4314a5d9236ca59fe9e2fe5b71e9956ac7294009abd77e21653a398",
      "blockNumber": 79644,
      "transactionIndex": 0,
      "confirmations": null,
      "from": "0x87C5B5874A18B4306DF8a752a6C8cc3E82daFc19",
      "gasPrice": {
        "_hex": "0x108562cb71d"
      },
      "gasLimit": {
        "_hex": "0x493e0"
      },
      "to": "0xC4c51de1AbF5D60DBd329eC0F999Fd8f021ae9fC",
      "value": {
        "_hex": "0x0"
      },
      "nonce": 94,
      "data": "0x2e1a7d4d000000000000000000000000000000000000000000000037d61f16d37c580000",
      "r": "0xa24fe7454b21b63bef7d885ca7d9f397dc04d8a8501a6e19eecc9f0ac0ec8741",
      "s": "0x79d0319637324cd5dd735f7eec3c94e6750418d2f96cd634c8c41b16cccf9148",
      "v": 27,
      "creates": null,
      "raw": "0xf88a5e860108562cb71d830493e094c4c51de1abf5d60dbd329ec0f999fd8f021ae9fc80a42e1a7d4d000000000000000000000000000000000000000000000037d61f16d37c5800001ba0a24fe7454b21b63bef7d885ca7d9f397dc04d8a8501a6e19eecc9f0ac0ec8741a079d0319637324cd5dd735f7eec3c94e6750418d2f96cd634c8c41b16cccf9148",
      "networkId": 0,
      "chainId": 0
    },
    {
      "hash": "0x639e5dfd3b6e8c476af91c2c54583fa7a2157b20457a592717aca4d48084c707",
      "blockHash": "0x3529eedaf4314a5d9236ca59fe9e2fe5b71e9956ac7294009abd77e21653a398",
      "blockNumber": 79644,
      "transactionIndex": 1,
      "confirmations": null,
      "from": "0xD1826373C4E0938f0b4302B40324f7f9c546492C",
      "gasPrice": {
        "_hex": "0xcd34133f7"
      },
      "gasLimit": {
        "_hex": "0x30d40"
      },
      "to": "0x21748fB7CF936666F1b826F67fA61F265d29D42c",
      "value": {
        "_hex": "0x16345785d8a0000"
      },
      "nonce": 27,
      "data": "0x",
      "r": "0xe9eaf5ef9ff7e0db1c022c41381b52a838d96bb5edb6c1f945549b68aad63f4c",
      "s": "0x10461f1f4febee8c3084f88ec6c10f6f93705b1c3217eb78e3a84093ba4758ee",
      "v": 28,
      "creates": null,
      "raw": "0xf86d1b850cd34133f783030d409421748fb7cf936666f1b826f67fa61f265d29d42c88016345785d8a0000801ca0e9eaf5ef9ff7e0db1c022c41381b52a838d96bb5edb6c1f945549b68aad63f4ca010461f1f4febee8c3084f88ec6c10f6f93705b1c3217eb78e3a84093ba4758ee",
      "networkId": 0,
      "chainId": 0
    }
  ]
}