{
  "hash": "0x434dc412a639ceed8b43338cdee7cc70061d60eec2ac7d4018988c8140a1da6b",
  "parentHash": "0x00c82886aa4b3bb36826e241de8120bf39495404faad644c83afcdb5f6e65469",
  "number": 101781,
  "timestamp": 1439827945,
  "nonce": "0x8526c263e42cb0d8",
  "difficulty": 3884349857183,
  "gasLimit": {
    "_hex": "0x2fefd8"
  },
  "gasUsed": {
    "_hex": "0x1bdbe"
  },
  "miner": "0xcf00A85f3826941e7A25BFcF9Aac575d40410852",
  "extraData": "0x476574682f76312e302e312f77696e646f77732f676f312e342e32",
  "transactions": [
    {
      "hash": "0xd7ea92c3423608f3ee3a306826d91c091fe027a999cfaf8c5a54d3132478a9eb",
      "blockHash": "0x434dc412a639ceed8b43338cdee7cc70061d60eec2ac7d4018988c8140a1da6b",
      "blockNumber": 101781,
      "transactionIndex": 0,
      "confirmations": null,
      "from": "0x2e3A5f60a5590959B068587c47e643E18E7F5Cdf",
      "gasPrice": {
        "_hex": "0xd4c397e04"
      },
      "gasLimit": {
        "_hex": "0x249f0"
      },
      "to": "0xE28e72FCf78647ADCe1F1252F240bbfaebD63BcC",
      "value": {
        "_hex": "0x29a2241af62c0000"
      },
      "nonce": 1,
      "data": "0x45466f3a",
      "r": "0x08646327d9f18b7813304368a517be0a5ce3bda7323f62fb609f3951d76f1b21",
      "s": "0x08fc8b25204c3220bcb16191ee76abf71094ea2af1bce9a96062cff786f2debe",
      "v": 28,
      "creates": null,
      "raw": "0xf87101850d4c397e04830249f094e28e72fcf78647adce1f1252f240bbfaebd63bcc8829a2241af62c00008445466f3a1ca008646327d9f18b7813304368a517be0a5ce3bda7323f62fb609f3951d76f1b21a008fc8b25204c3220bcb16191ee76abf71094ea2af1bce9a96062cff786f2debe",
      "networkId": 0,
      "chainId": 0
    }
  ]
}