{
  "hash": "0x19957c4c4c5a35cbbfdbbd790c0b3d483ea820ba46cbea411ce1488d797a568b",
  "parentHash": "0x66041c3e017fa25a4ca5cf1df5017762efa8a411b098c0ce9d92776d7edfd26c",
  "number": 79841,
  "timestamp": 1439476010,
  "nonce": "0xa27089f3dc388352",
  "difficulty": 2352938059012,
  "gasLimit": {
    "_hex": "0x2fefd8"
  },
  "gasUsed": {
    "_hex": "0xfc3f"
  },
  "miner": "0xe090Ffdced499691fA9379752a59F8A058c1eE4A",
  "extraData": "0x476574682f76312e302e312f6c696e75782f676f312e342e32",
  "transactions": [
    {
      "hash": "0xb3e7922330067cec96f4d528aa738e3a2ffa892bccc15fe79531a9d3ac4f68b1",
      "blockHash": "0x19957c4c4c5a35cbbfdbbd790c0b3d483ea820ba46cbea411ce1488d797a568b",
      "blockNumber": 79841,
      "transactionIndex": 0,
      "confirmations": null,
      "from": "0x87C5B5874A18B4306DF8a752a6C8cc3E82daFc19",
      "gasPrice": {
        "_hex": "0x10e2edcf9fd"
      },
      "gasLimit": {
        "_hex": "0x493e0"
      },
      "to": "0xC4c51de1AbF5D60DBd329eC0F999Fd8f021ae9fC",
      "value": {
        "_hex": "0x0"
      },
      "nonce": 111,
      "data": "0x03750d9400000000000000000000000087c5b5874a18b4306df8a752a6c8cc3e82dafc196361740000000000000000000000000000000000000000000000000000000000",
      "r": "0x9a635210e69069d3153f83659dc9bf74292483670788a0d87697d0a7b9e6f6b5",
      "s": "0x31535668cd50d667f34db22f8cb97b053ed7f886e6aaa9ca353bd100aca42134",
      "v": 28,
      "creates": null,
      "raw": "0xf8ab6f86010e2edcf9fd830493e094c4c51de1abf5d60dbd329ec0f999fd8f021ae9fc80b84403750d9400000000000000000000000087c5b5874a18b4306df8a752a6c8cc3e82dafc1963617400000000000000000000000000000000000000000000000000000000001ca09a635210e69069d3153f83659dc9bf74292483670788a0d87697d0a7b9e6f6b5a031535668cd50d667f34db22f8cb97b053ed7f886e6aaa9ca353bd100aca42134",
      "networkId": 0,
      "chainId": 0
    },
    {
      "hash": "0xb5103b478951b055c242968256a763e37f0e4e57e62113f78a6568e6956d8b60",
      "blockHash": "0x19957c4c4c5a35cbbfdbbd790c0b3d483ea820ba46cbea411ce1488d797a568b",
      "blockNumber": 79841,
      "transactionIndex": 1,
      "confirmations": null,
      "from": "0x2C076d91b9ca5475Cd168B018707EeA87204BAaC",
      "gasPrice": {
        "_hex": "0xd1f217cbf"
      },
      "gasLimit": {
        "_hex": "0x7a120"
      },
      "to": "0xDcFD5B3602576a06Db7143d8aFcC2a6a32662D22",
      "value": {
        "_hex": "0x16345785d8a0000"
      },
      "nonce": 1,
      "data": "0x",
      "r": "0x1953d84e9c1991e40678bcb9233887fb29cd4c5f43175be9a0ef9d3afd459de1",
      "s": "0x706efa8c704cd4cec18e69eea48489bbb7820a857c3e570b955d4896a665aa67",
      "v": 28,
      "creates": null,
      "raw": "0xf86d01850d1f217cbf8307a12094dcfd5b3602576a06db7143d8afcc2a6a32662d2288016345785d8a0000801ca01953d84e9c1991e40678bcb9233887fb29cd4c5f43175be9a0ef9d3afd459de1a0706efa8c704cd4cec18e69eea48489bbb7820a857c3e570b955d4896a665aa67",
      "networkId": 0,
      "chainId": 0
    }
  ]
}