{
  "hash": "0xafc73b563f51033e032f2b3a0bae728b93f9862a9bf811fb46785b5269eb69de",
  "parentHash": "0xf75dd64dda4195df36ff89f4cadc5af75fbea3a8c59805081d349021c138527a",
  "number": 85526,
  "timestamp": 1439565017,
  "nonce": "0x4fcc562f39f19161",
  "difficulty": 2755719304369,
  "gasLimit": {
    "_hex": "0x2fefd8"
  },
  "gasUsed": {
    "_hex": "0x19c8c"
  },
  "miner": "0x2134e2a2b718DCa96580ECAC31E653Ea1fdd58DA",
  "extraData": "0x476574682f76312e302e312f77696e646f77732f676f312e342e32",
  "transactions": [
    {
      "hash": "0x4844bc6dee01d6b97c20afa1909073d72e033430cd38d6b0823bd606a06294d8",
      "blockHash": "0xafc73b563f51033e032f2b3a0bae728b93f9862a9bf811fb46785b5269eb69de",
      "blockNumber": 85526,
      "transactionIndex": 0,
      "confirmations": null,
      "from": "0x77BFe93ccda750847E41A1AfFEE6B2Da96e7214E",
      "gasPrice": {
        "_hex": "0x110c8f7d8de"
      },
      "gasLimit": {
        "_hex": "0xc350"
      },
      "to": "0x2910543Af39abA0Cd09dBb2D50200b3E800A63D2",
      "value": {
        "_hex": "0xffdf28905e43c0000"
      },
      "nonce": 0,
      "data": "0x454e554437555a4330",
      "r": "0x432c53b85746a949f9514e34c818ff7437ee3947200643fe6914681282cb6f34",
      "s": "0x9668d4ad852468ab4d29256e3118f79d27ed9985b1b11d7362d4c1126c0c76c2",
      "v": 27,
      "creates": null,
      "raw": "0xf87780860110c8f7d8de82c350942910543af39aba0cd09dbb2d50200b3e800a63d2890ffdf28905e43c000089454e554437555a43301ba0432c53b85746a949f9514e34c818ff7437ee3947200643fe6914681282cb6f34a09668d4ad852468ab4d29256e3118f79d27ed9985b1b11d7362d4c1126c0c76c2",
      "networkId": 0,
      "chainId": 0
    },
    {
      "hash": "0xd0097cdb635827b3b00872b01200c11e4ed9d2d77182805e54dd9c37b43e12aa",
      "blockHash": "0xafc73b563f51033e032f2b3a0bae728b93f9862a9bf811fb46785b5269eb69de",
      "blockNumber": 85526,
      "transactionIndex": 1,
      "confirmations": null,
      "from": "0xfa72d6482366B60E46D16e94e72775ED53B4836F",
      "gasPrice": {
        "_hex": "0xba43b7400"
      },
      "gasLimit": {
        "_hex": "0x5208"
      },
      "to": "0xC47Aaa860008be6f65B58c6C6E02a84e666EfE31",
      "value": {
        "_hex": "0x2d17dda93638b6000"
      },
      "nonce": 1,
      "data": "0x",
      "r": "0xf9b0da86b8b6cbf6a7438bd376acbbfc86f0ee1f61b937e1e1520194a0c91033",
      "s": "0x65026bccc39ebf2cb126a0feaf593a013ff192fa8a930da28073d78f8bc6aebb",
      "v": 28,
      "creates": null,
      "raw": "0xf86d01850ba43b740082520894c47aaa860008be6f65b58c6c6e02a84e666efe318902d17dda93638b6000801ca0f9b0da86b8b6cbf6a7438bd376acbbfc86f0ee1f61b937e1e1520194a0c91033a065026bccc39ebf2cb126a0feaf593a013ff192fa8a930da28073d78f8bc6aebb",
      "networkId": 0,
      "chainId": 0
    },
    {
      "hash": "0x719b195f376014b697564b85dd39a866417e439f87c008340ceda2e14aeecf7d",
      "blockHash": "0xafc73b563f51033e032f2b3a0bae728b93f9862a9bf811fb46785b5269eb69de",
      "blockNumber": 85526,
      "transactionIndex": 2,
      "confirmations": null,
      "from": "0x2C37DA54930d0e95A8b449Ab048c530ba6E16086",
      "gasPrice": {
        "_hex": "0xba43b7400"
      },
      "gasLimit": {
        "_hex": "0x5208"
      },
      "to": "0xC47Aaa860008be6f65B58c6C6E02a84e666EfE31",
      "value": {
        "_hex": "0x29720712bf47800"
      },
      "nonce": 0,
      "data": "0x",
      "r": "0x8b48f1db7e769bc6bc8520c863e9d2637080fc508e72b0f5ab2fedafa6750af2",
      "s": "0x761c3ed1e52df2a36b9765db1715830a7477a596a77a2671bcc6348c9585149a",
      "v": 27,
      "creates": null,
      "raw": "0xf86c80850ba43b740082520894c47aaa860008be6f65b58c6c6e02a84e666efe3188029720712bf47800801ba08b48f1db7e769bc6bc8520c863e9d2637080fc508e72b0f5ab2fedafa6750af2a0761c3ed1e52df2a36b9765db1715830a7477a596a77a2671bcc6348c9585149a",
      "networkId": 0,
      "chainId": 0
    },
    {
      "hash": "0xc866db1b7b41f3b8315ba7b890df435835e899047849d3f48a4f09718879bee1",
      "blockHash": "0xafc73b563f51033e032f2b3a0bae728b93f9862a9bf811fb46785b5269eb69de",
      "blockNumber": 85526,
      "transactionIndex": 3,
      "confirmations": null,
      "from": "0xc7178C8B9a4d03e33d8d695169Ce476014c71Ada",
      "gasPrice": {
        "_hex": "0xba43b7400"
      },
      "gasLimit": {
        "_hex": "0x5208"
      },
      "to": "0xC47Aaa860008be6f65B58c6C6E02a84e666EfE31",
      "value": {
        "_hex": "0x6d865ed020361d1e0"
      },
      "nonce": 2,
      "data": "0x",
      "r": "0x2d6b0e4e185cc24eb6bab60ea028bda953e87d34a6ca093b9f0e32b91275e5cc",
      "s": "0x21dda99f3640f277a258d5a26502e9d69a9740f7906e2389747d73d8ba1c3edc",
      "v": 27,
      "creates": null,
      "raw": "0xf86d02850ba43b740082520894c47aaa860008be6f65b58c6c6e02a84e666efe318906d865ed020361d1e0801ba02d6b0e4e185cc24eb6bab60ea028bda953e87d34a6ca093b9f0e32b91275e5cca021dda99f3640f277a258d5a26502e9d69a9740f7906e2389747d73d8ba1c3edc",
      "networkId": 0,
      "chainId": 0
    },
    {
      "hash": "0xe8f78e726df049efd4cfbc60e8d22fbcfc1e910769db35bd8c1c11d0fff232b2",
      "blockHash": "0xafc73b563f51033e032f2b3a0bae728b93f9862a9bf811fb46785b5269eb69de",
      "blockNumber": 85526,
      "transactionIndex": 4,
      "confirmations": null,
      "from": "0x5F28bcc5faFC8982536A9e4be559657998CdE1E3",
      "gasPrice": {
        "_hex": "0xba43b7400"
      },
      "gasLimit": {
        "_hex": "0x5208"
      },
      "to": "0xC47Aaa860008be6f65B58c6C6E02a84e666EfE31",
      "value": {
        "_hex": "0x2b48ae492c1cce0f0"
      },
      "nonce": 9,
      "data": "0x",
      "r": "0x3b0f984624cb81ee19aff1c14fdd47fc957d23763c97b1f833c9b9bad6b1826c",
      "s": "0x166c411577001c77783f4a4e1159869f27f4235d175c238de3e53cafd30f72d3",
      "v": 27,
      "creates": null,
      "raw": "0xf86d09850ba43b740082520894c47aaa860008be6f65b58c6c6e02a84e666efe318902b48ae492c1cce0f0801ba03b0f984624cb81ee19aff1c14fdd47fc957d23763c97b1f833c9b9bad6b1826ca0166c411577001c77783f4a4e1159869f27f4235d175c238de3e53cafd30f72d3",
      "networkId": 0,
      "chainId": 0
    }
  ]
}