{
  "hash": "0x3ea10b26dcb2fc81b2791188238eb5299e08aa781ecbe5d7b05eb6e206c84288",
  "parentHash": "0x3d15634514d27b76ff318d964729e2f71fcd24f1adbd2310fddf630a6659b641",
  "number": 48978,
  "timestamp": 1438965912,
  "nonce": "0x29df552f17d3f9ed",
  "difficulty": 1484367026287,
  "gasLimit": {
    "_hex": "0x227d3"
  },
  "gasUsed": {
    "_hex": "0x5208"
  },
  "miner": "0x0193d941b50d91BE6567c7eE1C0Fe7AF498b4137",
  "extraData": "0x4a5ace9e4e",
  "transactions": [
    {
      "hash": "0x5fb6391a7f6ee47ed6a7cfa78667aaec4680a8aa3913889b3e1cdc1f11156cf0",
      "blockHash": "0x3ea10b26dcb2fc81b2791188238eb5299e08aa781ecbe5d7b05eb6e206c84288",
      "blockNumber": 48978,
      "transactionIndex": 0,
      "confirmations": null,
      "from": "0x881067183D45A90A21F5AD90f313Acf29704C7a9",
      "gasPrice": {
        "_hex": "0xdcc6308b9"
      },
      "gasLimit": {
        "_hex": "0x5208"
      },
      "to": "0x32Be343B94f860124dC4fEe278FDCBD38C102D88",
      "value": {
        "_hex": "0x6c6b8ee45d970c0000"
      },
      "nonce": 0,
      "data": "0x",
      "r": "0xd640083b41773bcdec23bad2f504e8c8a22a5d8509c16c96a35e8e3ac4cfc1f7",
      "s": "0x08edd6258dc28d833edab439f91a97f2afe585663ce84b06190784a9b2b0895e",
      "v": 27,
      "creates": null,
      "raw": "0xf86d80850dcc6308b98252089432be343b94f860124dc4fee278fdcbd38c102d88896c6b8ee45d970c0000801ba0d640083b41773bcdec23bad2f504e8c8a22a5d8509c16c96a35e8e3ac4cfc1f7a008edd6258dc28d833edab439f91a97f2afe585663ce84b06190784a9b2b0895e",
      "networkId": 0,
      "chainId": 0
    }
  ]
}