{
  "hash": "0xcb5d4e68ca3f4fd0d50ab7bdb48ce4ce556d834f9a312aef602dd5864aca0b32",
  "parentHash": "0x82d40071b373f73f368e46950c32c02d376da5028096cf6f93ac5beaa93225b7",
  "number": 107909,
  "timestamp": 1439930710,
  "nonce": "0xc2820746da242a7d",
  "difficulty": 4394037707898,
  "gasLimit": {
    "_hex": "0x2fefd8"
  },
  "gasUsed": {
    "_hex": "0x5208"
  },
  "miner": "0x0037ce3d4B7f8729C8607D8D0248252Be68202c0",
  "extraData": "0x476574682f76312e302e312f77696e646f77732f676f312e342e32",
  "transactions": [
    {
      "hash": "0x9389e10d11707cfc042fedec930a926426c0535f1f725e18f3e5168af26a03ff",
      "blockHash": "0xcb5d4e68ca3f4fd0d50ab7bdb48ce4ce556d834f9a312aef602dd5864aca0b32",
      "blockNumber": 107909,
      "transactionIndex": 0,
      "confirmations": null,
      "from": "0x120A270bbC009644e35F0bB6ab13f95b8199c4ad",
      "gasPrice": {
        "_hex": "0xcbe8f7917"
      },
      "gasLimit": {
        "_hex": "0x3d090"
      },
      "to": "0x562236C0D4FD95E26c53aC56b7d118E420ca1716",
      "value": {
        "_hex": "0x18650127cc3dc80000"
      },
      "nonce": 820,
      "data": "0x",
      "r": "0x8df4930a547af45bbad9afeed24601d2f14fa3bc2baa8dbca2e484f7f0b58861",
      "s": "0x1ba2c5af3577a510ccfc1498501159309b43e82316abee7143374954e5e59140",
      "v": 27,
      "creates": null,
      "raw": "0xf870820334850cbe8f79178303d09094562236c0d4fd95e26c53ac56b7d118e420ca17168918650127cc3dc80000801ba08df4930a547af45bbad9afeed24601d2f14fa3bc2baa8dbca2e484f7f0b58861a01ba2c5af3577a510ccfc1498501159309b43e82316abee7143374954e5e59140",
      "networkId": 0,
      "chainId": 0
    }
  ]
}