{
  "hash": "0x14b7aef27a95fb280c7166de92e693716d7c929c4e2e902885000b398d7ab31b",
  "parentHash": "0xab832de6875c3eb1f98acd6b4e6da300f0149e61bcaac6a3cd1c2405a4a023da",
  "number": 47279,
  "timestamp": 1438937263,
  "nonce": "0x452621f3ad9fe09d",
  "difficulty": 1463792712528,
  "gasLimit": {
    "_hex": "0xac05"
  },
  "gasUsed": {
    "_hex": "0x5208"
  },
  "miner": "0x9298A283561414096A90B8e52c2202D03F3406A9",
  "extraData": "0x476574682f76312e302e312f6c696e75782f676f312e342e32",
  "transactions": [
    {
      "hash": "0x04d582bdddd00551d920a590bc61e4b612ae3da97dbf9f55ac4952ef4b6b2293",
      "blockHash": "0x14b7aef27a95fb280c7166de92e693716d7c929c4e2e902885000b398d7ab31b",
      "blockNumber": 47279,
      "transactionIndex": 0,
      "confirmations": null,
      "from": "0xe6A7a1d47ff21B6321162AEA7C6CB457D5476Bca",
      "gasPrice": {
        "_hex": "0xd9cf8b806"
      },
      "gasLimit": {
        "_hex": "0x5208"
      },
      "to": "0xabF56d5ca441eCAD5979023Ec368b74a8d662d95",
      "value": {
        "_hex": "0x9da76a86472fea90"
      },
      "nonce": 98,
      "data": "0x",
      "r": "0xfe43cc3d7fb80a86dacbe9d071b229150f8148b379b6d85493bdc438262b4005",
      "s": "0x71b4efc8f6c570037ce4114a2bdc604ca837d0ac74ef8b920b528789b7d936d2",
      "v": 27,
      "creates": null,
      "raw": "0xf86c62850d9cf8b80682520894abf56d5ca441ecad5979023ec368b74a8d662d95889da76a86472fea90801ba0fe43cc3d7fb80a86dacbe9d071b229150f8148b379b6d85493bdc438262b4005a071b4efc8f6c570037ce4114a2bdc604ca837d0ac74ef8b920b528789b7d936d2",
      "networkId": 0,
      "chainId": 0
    }
  ]
}