{
  "hash": "0x350ee7b93085da1e4584e9bf10aef33ae53605e5fd64a051ff112bf3d35b233f",
  "parentHash": "0xc4fb4884a07c181a22897ec7564a614777dbb14a8e9fe764ac586757e80e84c8",
  "number": 51612,
  "timestamp": 1439007911,
  "nonce": "0x5319dcc5c82c5c2b",
  "difficulty": 1558155216564,
  "gasLimit": {
    "_hex": "0xc4cef"
  },
  "gasUsed": {
    "_hex": "0x7a120"
  },
  "miner": "0xe6A7a1d47ff21B6321162AEA7C6CB457D5476Bca",
  "extraData": "0x657468706f6f6c2e6f7267",
  "transactions": [
    {
      "hash": "0x28993fa36ae1be74017934e56ac12bcbc88ce1074c7e842d0312409f50778cde",
      "blockHash": "0x350ee7b93085da1e4584e9bf10aef33ae53605e5fd64a051ff112bf3d35b233f",
      "blockNumber": 51612,
      "transactionIndex": 0,
      "confirmations": null,
      "from": "0xFCf9f6A78f06227522c6f948ec0119dA31680Ef7",
      "gasPrice": {
        "_hex": "0xdcda0424b"
      },
      "gasLimit": {
        "_hex": "0x7a120"
      },
      "to": "0xBAA54d6E90c3F4d7Ebec11bD180134C7eD8eBb52",
      "value": {
        "_hex": "0x16345785d8a0000"
      },
      "nonce": 23,
      "data": "0x",
      "r": "0x1bbf9e2eaeb192a21be176578f8bb2fff37913c0fc2df500f971596e9b1d0e52",
      "s": "0x431479b13fa08a8f34c5accf7309e4475bad7bc42ddef6397087f3dbb7f85228",
      "v": 28,
      "creates": null,
      "raw": "0xf86d17850dcda0424b8307a12094baa54d6e90c3f4d7ebec11bd180134c7ed8ebb5288016345785d8a0000801ca01bbf9e2eaeb192a21be176578f8bb2fff37913c0fc2df500f971596e9b1d0e52a0431479b13fa08a8f34c5accf7309e4475bad7bc42ddef6397087f3dbb7f85228",
      "networkId": 0,
      "chainId": 0
    }
  ]
}