{
  "hash": "0x4b6f9d1242731eaf18c4ce2c49abbdc1beade59ddcc2710a1dc71fd350105473",
  "parentHash": "0xa1febc48d3d4133e0eec881ea4c5c3ad8f1de75087a5a0a568586b0a1baecf9e",
  "number": 116299,
  "timestamp": 1440071710,
  "nonce": "0xae8a7a275f0ef408",
  "difficulty": 4595818326914,
  "gasLimit": {
    "_hex": "0x2fefd8"
  },
  "gasUsed": {
    "_hex": "0x5208"
  },
  "miner": "0xe6A7a1d47ff21B6321162AEA7C6CB457D5476Bca",
  "extraData": "0x476574682f76312e302e312d38326566323666362f6c696e75782f676f312e34",
  "transactions": [
    {
      "hash": "0x8b804cffc24726ab4df81d1b8942862df4d4e8c89c0c9e9daa3190d2ab045071",
      "blockHash": "0x4b6f9d1242731eaf18c4ce2c49abbdc1beade59ddcc2710a1dc71fd350105473",
      "blockNumber": 116299,
      "transactionIndex": 0,
      "confirmations": null,
      "from": "0x32Be343B94f860124dC4fEe278FDCBD38C102D88",
      "gasPrice": {
        "_hex": "0xdbbdcee68"
      },
      "gasLimit": {
        "_hex": "0x5208"
      },
      "to": "0xE3291e02d1d7b6A7F4aAA164c56Cf21FD30D0eb5",
      "value": {
        "_hex": "0x3635a626d36ee00000"
      },
      "nonce": 1461,
      "data": "0x",
      "r": "0xcb9204d9c43ea95f538a8d5c75b8516f5ba572d67f5e4f7e3140d98667fd3302",
      "s": "0x1355eef19d0c74a87e5a0a9c35854245724b7b671c866ad31db0dc5e02c5a30b",
      "v": 28,
      "creates": null,
      "raw": "0xf86f8205b5850dbbdcee6882520894e3291e02d1d7b6a7f4aaa164c56cf21fd30d0eb5893635a626d36ee00000801ca0cb9204d9c43ea95f538a8d5c75b8516f5ba572d67f5e4f7e3140d98667fd3302a01355eef19d0c74a87e5a0a9c35854245724b7b671c866ad31db0dc5e02c5a30b",
      "networkId": 0,
      "chainId": 0
    }
  ]
}