{
  "hash": "0x47eb5866cf9235cb891aa2ae02f95051e7a4b33c3545637298abfbffc2491178",
  "parentHash": "0x076af64ee237bf44c8c0c27f1809087221fa52b6028669b9a00ac799a9f2e29c",
  "number": 50987,
  "timestamp": 1438997752,
  "nonce": "0xcc4e95fbb920f23a",
  "difficulty": 1545389978741,
  "gasLimit": {
    "_hex": "0x88baa"
  },
  "gasUsed": {
    "_hex": "0x5208"
  },
  "miner": "0xf927a40C8B7F6E07c5af7FA2155B4864a4112B13",
  "extraData": "0x476574682f76312e302e312f6c696e75782f676f312e342e32",
  "transactions": [
    {
      "hash": "0xba11e736f10f06a6f2da4358a160ed46555499ef65eebca100b84ea736689c21",
      "blockHash": "0x47eb5866cf9235cb891aa2ae02f95051e7a4b33c3545637298abfbffc2491178",
      "blockNumber": 50987,
      "transactionIndex": 0,
      "confirmations": null,
      "from": "0x3Ad06149b21C55Ff867cc3fb9740D2BCc7101231",
      "gasPrice": {
        "_hex": "0xccc3834d6"
      },
      "gasLimit": {
        "_hex": "0x15f90"
      },
      "to": "0x1308A2e95c0160B90803ddCA9B9a5bb55E416d79",
      "value": {
        "_hex": "0x21e19e0c9bab2400000"
      },
      "nonce": 11,
      "data": "0x",
      "r": "0x61ae4a1f53f9ed5fb0541fd042bb23b6bbbc294433704d1b5037c90e5bec201c",
      "s": "0x092a36faaacdffcf10e76c8d7d64148090ae5a9eb0efc36b75a0e5b8aac91b57",
      "v": 27,
      "creates": null,
      "raw": "0xf86f0b850ccc3834d683015f90941308a2e95c0160b90803ddca9b9a5bb55e416d798a021e19e0c9bab2400000801ba061ae4a1f53f9ed5fb0541fd042bb23b6bbbc294433704d1b5037c90e5bec201ca0092a36faaacdffcf10e76c8d7d64148090ae5a9eb0efc36b75a0e5b8aac91b57",
      "networkId": 0,
      "chainId": 0
    }
  ]
}