{
  "hash": "0xfa623d53df331079c9d47b30bcf326d3d07909100ed9d8f3b58f55823b7b046b",
  "parentHash": "0x436367e77ace5dcb72a831dc36624ef84c3075975e8b6fe785ef233292b94daf",
  "number": 85621,
  "timestamp": 1439566272,
  "nonce": "0x79d09db1c10dfc4c",
  "difficulty": 2789533022492,
  "gasLimit": {
    "_hex": "0x2fefd8"
  },
  "gasUsed": {
    "_hex": "0x546c"
  },
  "miner": "0x790b8a3cE86E707ED0eD32bF89B3269692a23CC1",
  "extraData": "0xd783010001844765746887676f312e342e32856c696e7578",
  "transactions": [
    {
      "hash": "0xea41fc24141f7cb0484aa0918c95ade21d151b603da83ea87a78ace619a26b26",
      "blockHash": "0xfa623d53df331079c9d47b30bcf326d3d07909100ed9d8f3b58f55823b7b046b",
      "blockNumber": 85621,
      "transactionIndex": 0,
      "confirmations": null,
      "from": "0x814e505e371c7748C7b4675B94ABccfD1df6DD8A",
      "gasPrice": {
        "_hex": "0x746a528800"
      },
      "gasLimit": {
        "_hex": "0x55f0"
      },
      "to": "0x2910543Af39abA0Cd09dBb2D50200b3E800A63D2",
      "value": {
        "_hex": "0x56bc75e2d63100000"
      },
      "nonce": 1,
      "data": "0x454e4e4b3732444a47",
      "r": "0x4d395c896bbbaa0100901dd861c682f199b0de67690a629aa101409b87d279d9",
      "s": "0x780e5bf98c64038f8a08c237c87947c69617755e97859d086ec876e11edd875b",
      "v": 28,
      "creates": null,
      "raw": "0xf8760185746a5288008255f0942910543af39aba0cd09dbb2d50200b3e800a63d289056bc75e2d6310000089454e4e4b3732444a471ca04d395c896bbbaa0100901dd861c682f199b0de67690a629aa101409b87d279d9a0780e5bf98c64038f8a08c237c87947c69617755e97859d086ec876e11edd875b",
      "networkId": 0,
      "chainId": 0
    }
  ]
}