{
  "hash": "0xf49b74306a8171f4ac2a3b3d44760ee7ed52917f2ade98bdc47ea3a38964f488",
  "parentHash": "0x739d8ae72a4a82867659b74213539a5f09cae3ea1ad32ae74788572f82faa523",
  "number": 92668,
  "timestamp": 1439675358,
  "nonce": "0x29974190898f05b6",
  "difficulty": 3577076608115,
  "gasLimit": {
    "_hex": "0x2fefd8"
  },
  "gasUsed": {
    "_hex": "0x8f7d"
  },
  "miner": "0x9Fa9952255B2b06639A04D63804d4BdFFf6E2d7e",
  "extraData": "0x476574682f76312e302e312f77696e646f77732f676f312e342e32",
  "transactions": [
    {
      "hash": "0x8d37923555e94bdbd408450ffa8f26900ceb8acfd100c195e6dc50706f0a15bf",
      "blockHash": "0xf49b74306a8171f4ac2a3b3d44760ee7ed52917f2ade98bdc47ea3a38964f488",
      "blockNumber": 92668,
      "transactionIndex": 0,
      "confirmations": null,
      "from": "0x063dD253C8da4EA9b12105781C9611b8297F5d14",
      "gasPrice": {
        "_hex": "0xd7d40ace3"
      },
      "gasLimit": {
        "_hex": "0x249f0"
      },
      "to": "0xde0B295669a9FD93d5F28D9Ec85E40f4cb697BAe",
      "value": {
        "_hex": "0x0"
      },
      "nonce": 7,
      "data": "0xf00d4b5d000000000000000000000000cda0ad7542e30bf520652a05056ebe0105c7e49a00000000000000000000000002e816afc1b5c0f39852131959d946eb3b07b5ad",
      "r": "0xee211bc5199a4de78b8956eeeb06d7fa23267a235c7d7375e34a600021acf2a3",
      "s": "0x1d5445e9fb328fdac7b08f6a7e6251b1e41a94264415e2c1b7ebfc1493dae790",
      "v": 27,
      "creates": null,
      "raw": "0xf8aa07850d7d40ace3830249f094de0b295669a9fd93d5f28d9ec85e40f4cb697bae80b844f00d4b5d000000000000000000000000cda0ad7542e30bf520652a05056ebe0105c7e49a00000000000000000000000002e816afc1b5c0f39852131959d946eb3b07b5ad1ba0ee211bc5199a4de78b8956eeeb06d7fa23267a235c7d7375e34a600021acf2a3a01d5445e9fb328fdac7b08f6a7e6251b1e41a94264415e2c1b7ebfc1493dae790",
      "networkId": 0,
      "chainId": 0
    }
  ]
}