{
  "hash": "0x239ec5412fe5f78a9c5fc94214d3256f5a8f5f8cd63b131f252299095191cd3b",
  "parentHash": "0x992d5cccc55ff069c3011b53fa80dff70cf090b3703d461f35ec2ab523c3ebd0",
  "number": 77309,
  "timestamp": 1439435134,
  "nonce": "0xe20e9d514d3284ba",
  "difficulty": 2230566705827,
  "gasLimit": {
    "_hex": "0x2fefd8"
  },
  "gasUsed": {
    "_hex": "0xa7e0"
  },
  "miner": "0xB7268c7705A1866b2A78e882fdfDc8E2a4e1428E",
  "extraData": "0x476574682f76312e302e312f77696e646f77732f676f312e342e32",
  "transactions": [
    {
      "hash": "0x7f386d35db7e84c4c8505c53735989db50255d4cb2607f9b8b3d43fe330516d2",
      "blockHash": "0x239ec5412fe5f78a9c5fc94214d3256f5a8f5f8cd63b131f252299095191cd3b",
      "blockNumber": 77309,
      "transactionIndex": 0,
      "confirmations": null,
      "from": "0x770d98d31b4353FceEE8560c4CCf803e88C0c4e0",
      "gasPrice": {
        "_hex": "0xdfddcc6dd"
      },
      "gasLimit": {
        "_hex": "0x15f90"
      },
      "to": "0x0000000000000000000000000000000000000000",
      "value": {
        "_hex": "0x71afd498d0000"
      },
      "nonce": 9,
      "data": "0xb214faa54131313131313131410000000000000000000000000000000000000000000000",
      "r": "0x2f693fd2b522fb800cebfca3da4401bcbe3a0a5b005ec3ee0a8f7708515ea5ac",
      "s": "0x5956f3a83734b8f03b3ea51c016f48686e8140268d9bcba290d5c48da5ddd169",
      "v": 27,
      "creates": null,
      "raw": "0xf89009850dfddcc6dd83015f9094000000000000000000000000000000000000000087071afd498d0000a4b214faa541313131313131314100000000000000000000000000000000000000000000001ba02f693fd2b522fb800cebfca3da4401bcbe3a0a5b005ec3ee0a8f7708515ea5aca05956f3a83734b8f03b3ea51c016f48686e8140268d9bcba290d5c48da5ddd169",
      "networkId": 0,
      "chainId": 0
    },
    {
      "hash": "0xc27d177454aae832a3fc240637b836264d790d71fd4968ef7d4c72cea4628cb4",
      "blockHash": "0x239ec5412fe5f78a9c5fc94214d3256f5a8f5f8cd63b131f252299095191cd3b",
      "blockNumber": 77309,
      "transactionIndex": 1,
      "confirmations": null,
      "from": "0xE0336f8aCEa5Cf5d01f2aC2f6704Bf53A853908a",
      "gasPrice": {
        "_hex": "0xd95b240d2"
      },
      "gasLimit": {
        "_hex": "0x15f90"
      },
      "to": "0x84542513E426C184fAD116922bb5695D25EEfC7b",
      "value": {
        "_hex": "0x33590a6584f20000"
      },
      "nonce": 2,
      "data": "0x",
      "r": "0x01711a41221805b8fbfc0dfda0c156308b8eb151a9060b76c58a6926c4504676",
      "s": "0x13f52fc608d290a00ab6c9e9e60b8265537ec6ca323dd76ab7567369b3003403",
      "v": 27,
      "creates": null,
      "raw": "0xf86d02850d95b240d283015f909484542513e426c184fad116922bb5695d25eefc7b8833590a6584f20000801ba001711a41221805b8fbfc0dfda0c156308b8eb151a9060b76c58a6926c4504676a013f52fc608d290a00ab6c9e9e60b8265537ec6ca323dd76ab7567369b3003403",
      "networkId": 0,
      "chainId": 0
    }
  ]
}