{
  "hash": "0x9029ceb4dcf91fbe52e9ddea2d3dd575d7103235baeeaffff5ece269fb534378",
  "parentHash": "0x8aadc934978cf171a01a8361d50a86a00196b2aa95f333f7a0f6b6bc568b43ec",
  "number": 102242,
  "timestamp": 1439834983,
  "nonce": "0x98134f001c79cda8",
  "difficulty": 3931840746724,
  "gasLimit": {
    "_hex": "0x2fefd8"
  },
  "gasUsed": {
    "_hex": "0xa410"
  },
  "miner": "0xaEAf103356C2Ee943F748E8655659D29881323E1",
  "extraData": "0x476574682f76312e302e312f77696e646f77732f676f312e342e32",
  "transactions": [
    {
      "hash": "0xd04a93ccf43d983579b0ed46dfa04bdaed3e6693aa62c20fc102ee39a54c4ec8",
      "blockHash": "0x9029ceb4dcf91fbe52e9ddea2d3dd575d7103235baeeaffff5ece269fb534378",
      "blockNumber": 102242,
      "transactionIndex": 0,
      "confirmations": null,
      "from": "0x40B9b889A21Ff1534d018D71Dc406122EBcf3F5A",
      "gasPrice": {
        "_hex": "0x10d050af89c"
      },
      "gasLimit": {
        "_hex": "0x15f90"
      },
      "to": "0x2f86ba8019945f39edE131D38d4d8780884DA553",
      "value": {
        "_hex": "0x5150ae84a8cdf00000"
      },
      "nonce": 53,
      "data": "0x",
      "r": "0x2d111b67c39fb043d1bb8e5309d16f85fc22608b25a5aeeed510084a3be78409",
      "s": "0x6e62049a83c971713d1d37c4962a4c4f662de60ae4055bd5f5a635c40e4b86c3",
      "v": 27,
      "creates": null,
      "raw": "0xf86f3586010d050af89c83015f90942f86ba8019945f39ede131d38d4d8780884da553895150ae84a8cdf00000801ba02d111b67c39fb043d1bb8e5309d16f85fc22608b25a5aeeed510084a3be78409a06e62049a83c971713d1d37c4962a4c4f662de60ae4055bd5f5a635c40e4b86c3",
      "networkId": 0,
      "chainId": 0
    },
    {
      "hash": "0x0e519cec5ce3c3cb603be1ec1dbce02577db906d6637166fee4fb31e322bd8a6",
      "blockHash": "0x9029ceb4dcf91fbe52e9ddea2d3dd575d7103235baeeaffff5ece269fb534378",
      "blockNumber": 102242,
      "transactionIndex": 1,
      "confirmations": null,
      "from": "0x6C4163642Fce79F094c50853FEaF94397bDDcd09",
      "gasPrice": {
        "_hex": "0xcd472ea04"
      },
      "gasLimit": {
        "_hex": "0x15f90"
      },
      "to": "0xf2cC0eEAAAeD313542CB262B0B8c3972425143f0",
      "value": {
        "_hex": "0x45400a8fd5330000"
      },
      "nonce": 2,
      "data": "0x",
      "r": "0x4f051325f2279610bbb3a8ad87fd83d10b6819b488964c174a5c00ac7d74a62f",
      "s": "0x7c5d16c4aed26f2ddae1bebe784bf7278280461d92ffd5d0e833392cf7afdb13",
      "v": 28,
      "creates": null,
      "raw": "0xf86d02850cd472ea0483015f9094f2cc0eeaaaed313542cb262b0b8c3972425143f08845400a8fd5330000801ca04f051325f2279610bbb3a8ad87fd83d10b6819b488964c174a5c00ac7d74a62fa07c5d16c4aed26f2ddae1bebe784bf7278280461d92ffd5d0e833392cf7afdb13",
      "networkId": 0,
      "chainId": 0
    }
  ]
}