{
  "hash": "0xe51453b66daf532b24bc0938be40e4c36d8a6f0b89853891bb079b6c6dd278a7",
  "parentHash": "0x85269f46d6d0be8c838a232f932a428d6009e0b35954fb6e2debb0027dc9f962",
  "number": 114955,
  "timestamp": 1440049336,
  "nonce": "0x9f2b61405e68ce10",
  "difficulty": 4476940362909,
  "gasLimit": {
    "_hex": "0x2fefd8"
  },
  "gasUsed": {
    "_hex": "0x5208"
  },
  "miner": "0xbb7B8287f3F0a933474a79eAe42CBCa977791171",
  "extraData": "0x476574682f4c5649562f76312e302e312f6c696e75782f676f312e342e32",
  "transactions": [
    {
      "hash": "0x36fbcb2f8473ec8afedbae0225c25e0ae52e7e4ce77601157fce71b653b6ba9b",
      "blockHash": "0xe51453b66daf532b24bc0938be40e4c36d8a6f0b89853891bb079b6c6dd278a7",
      "blockNumber": 114955,
      "transactionIndex": 0,
      "confirmations": null,
      "from": "0xb6E2d440C46510EC44266A3f58165E3956173df0",
      "gasPrice": {
        "_hex": "0xd2b902ed3"
      },
      "gasLimit": {
        "_hex": "0x15f90"
      },
      "to": "0xf139E449202bD167D3B34a53Efe805b9479fEAdC",
      "value": {
        "_hex": "0xde0b6b3a7640000"
      },
      "nonce": 5,
      "data": "0x",
      "r": "0xbed43b3285559d599c4330eaf443b0ad2cd1ddaad29fa3415000dde03ca5b747",
      "s": "0x3f4473d74009fb1c5f2a6f928c766feaf8be3c34d3e8c2960b51d5ef10e5e71e",
      "v": 28,
      "creates": null,
      "raw": "0xf86d05850d2b902ed383015f9094f139e449202bd167d3b34a53efe805b9479feadc880de0b6b3a7640000801ca0bed43b3285559d599c4330eaf443b0ad2cd1ddaad29fa3415000dde03ca5b747a03f4473d74009fb1c5f2a6f928c766feaf8be3c34d3e8c2960b51d5ef10e5e71e",
      "networkId": 0,
      "chainId": 0
    }
  ]
}