{
  "hash": "0xeb11faa785191c4b56dab8a399e4556fbe6fe89c9d23bbcf00a108e44eb2097c",
  "parentHash": "0xd7240a2e3dc1f5fe9e224c11c377b481e427c0b1d476de95fda906b2d6adfb8a",
  "number": 108779,
  "timestamp": 1439945910,
  "nonce": "0x7f5aa920616949e7",
  "difficulty": 4367913643760,
  "gasLimit": {
    "_hex": "0x2fefd8"
  },
  "gasUsed": {
    "_hex": "0x5208"
  },
  "miner": "0xa6BDc31c431B8F97848c9D60cbbe9660dc450eB7",
  "extraData": "0x",
  "transactions": [
    {
      "hash": "0xca152bd8d9ead15497ca2c8ad4388a686536d8b33f389fc1ae9d2d529606a514",
      "blockHash": "0xeb11faa785191c4b56dab8a399e4556fbe6fe89c9d23bbcf00a108e44eb2097c",
      "blockNumber": 108779,
      "transactionIndex": 0,
      "confirmations": null,
      "from": "0x731f48FB82E3aa0085A39775Fe6987f943B05362",
      "gasPrice": {
        "_hex": "0xd0968144b"
      },
      "gasLimit": {
        "_hex": "0x15f90"
      },
      "to": "0x2910543Af39abA0Cd09dBb2D50200b3E800A63D2",
      "value": {
        "_hex": "0x71afd498d0000"
      },
      "nonce": 5,
      "data": "0x",
      "r": "0x459aa0550c142616c419bb365cd94e0fd00a1f23ec071aca36bad18ed69aa88d",
      "s": "0x2fad292225674a4a2fc06bddb38444d61ff1b0bbb9ddc1c8275e7d9b5dbf2f84",
      "v": 28,
      "creates": null,
      "raw": "0xf86c05850d0968144b83015f90942910543af39aba0cd09dbb2d50200b3e800a63d287071afd498d0000801ca0459aa0550c142616c419bb365cd94e0fd00a1f23ec071aca36bad18ed69aa88da02fad292225674a4a2fc06bddb38444d61ff1b0bbb9ddc1c8275e7d9b5dbf2f84",
      "networkId": 0,
      "chainId": 0
    }
  ]
}