{
  "hash": "0xdd973b8899a2df59b0a6c46a6e0df385bd220689b824fb148831d905d1bdc1a3",
  "parentHash": "0x32ecad9c47cb25506cc5a7fa769463eb4a2067de3b9a2c2a469f7cce0b4b872c",
  "number": 112712,
  "timestamp": 1440011876,
  "nonce": "0xda1b3e58ded143d3",
  "difficulty": 4428127352789,
  "gasLimit": {
    "_hex": "0x2fefd8"
  },
  "gasUsed": {
    "_hex": "0x5208"
  },
  "miner": "0xe6A7a1d47ff21B6321162AEA7C6CB457D5476Bca",
  "extraData": "0x476574682f76312e302e312d38326566323666362f6c696e75782f676f312e34",
  "transactions": [
    {
      "hash": "0x41c700698d2cf0d269eb8f18f1b8a8893b22f67a775ceafe38efa2467635d612",
      "blockHash": "0xdd973b8899a2df59b0a6c46a6e0df385bd220689b824fb148831d905d1bdc1a3",
      "blockNumber": 112712,
      "transactionIndex": 0,
      "confirmations": null,
      "from": "0xe7523F78ae9eDb81dC7B2A9ca718Ba3776C14f2e",
      "gasPrice": {
        "_hex": "0xd4454f1dc"
      },
      "gasLimit": {
        "_hex": "0x5208"
      },
      "to": "0x32Be343B94f860124dC4fEe278FDCBD38C102D88",
      "value": {
        "_hex": "0x83f47515da1c2000"
      },
      "nonce": 9,
      "data": "0x",
      "r": "0x30db14b93defc22990e09d5fb48086ce6a5f6ce4ec67d6c736086f77baed9195",
      "s": "0x3bf87d7f546818de7b2865fa9c8a3daf5fbfbcbec146fb479b93592988fc0fff",
      "v": 27,
      "creates": null,
      "raw": "0xf86c09850d4454f1dc8252089432be343b94f860124dc4fee278fdcbd38c102d888883f47515da1c2000801ba030db14b93defc22990e09d5fb48086ce6a5f6ce4ec67d6c736086f77baed9195a03bf87d7f546818de7b2865fa9c8a3daf5fbfbcbec146fb479b93592988fc0fff",
      "networkId": 0,
      "chainId": 0
    }
  ]
}