{
  "hash": "0x2c2952ae2d87cc310b1fb92f9ee03645815dc5303d4704087434ee3a3088de61",
  "parentHash": "0x928203e42b8e7e9ea39cd3c73b4525ab739ad63df8e021c644cf947f80a9e250",
  "number": 50316,
  "timestamp": 1438987192,
  "nonce": "0xdd64dead0287bfbf",
  "difficulty": 1511924924453,
  "gasLimit": {
    "_hex": "0x5c2fe"
  },
  "gasUsed": {
    "_hex": "0xa630"
  },
  "miner": "0xF2d2AfF1320476cb8C6b607199D23175cc595693",
  "extraData": "0x476574682f76312e302e312f77696e646f77732f676f312e342e32",
  "transactions": [
    {
      "hash": "0x0d851aab364ac1d28ad1c23c7651c9affebb09ba88b8a094122eff1e7b5595b0",
      "blockHash": "0x2c2952ae2d87cc310b1fb92f9ee03645815dc5303d4704087434ee3a3088de61",
      "blockNumber": 50316,
      "transactionIndex": 0,
      "confirmations": null,
      "from": "0x88a0A05437262a1b65f41A978Cb16CB1f0BFCfE0",
      "gasPrice": {
        "_hex": "0xdf7a2dcda"
      },
      "gasLimit": {
        "_hex": "0x15f90"
      },
      "to": "0x644d27243cD3E3F0c41676abFCB1fa6fBA1A400c",
      "value": {
        "_hex": "0x16345785d8a0000"
      },
      "nonce": 0,
      "data": "0x0123456789abcdef",
      "r": "0x4c3186bbfccf4d8ddaab7c6f89935492da3a7d1d4b0695ba7fca8c98d71a9c4a",
      "s": "0x0e43b8a84899531e18396c112845c45d087f9b94f0aba52e45fc61676282eb9a",
      "v": 27,
      "creates": null,
      "raw": "0xf87580850df7a2dcda83015f9094644d27243cd3e3f0c41676abfcb1fa6fba1a400c88016345785d8a0000880123456789abcdef1ba04c3186bbfccf4d8ddaab7c6f89935492da3a7d1d4b0695ba7fca8c98d71a9c4aa00e43b8a84899531e18396c112845c45d087f9b94f0aba52e45fc61676282eb9a",
      "networkId": 0,
      "chainId": 0
    },
    {
      "hash": "0x407605dc23e482a74e4846bf6c242690f7618183fb2c6517b1218b8b35aa3943",
      "blockHash": "0x2c2952ae2d87cc310b1fb92f9ee03645815dc5303d4704087434ee3a3088de61",
      "blockNumber": 50316,
      "transactionIndex": 1,
      "confirmations": null,
      "from": "0x5CB4A151541Fcd1f86244DDE8d78Ede47535BeC3",
      "gasPrice": {
        "_hex": "0xde3bf2b9f"
      },
      "gasLimit": {
        "_hex": "0x5208"
      },
      "to": "0x6cEbFB928F09aFEa77a627Fbc716F446b0d2f667",
      "value": {
        "_hex": "0x16345785d8a0000"
      },
      "nonce": 0,
      "data": "0x",
      "r": "0x3cf10254ea2f87458e6bd322ebc002fb4e86b2bb8f5452ed6739f1d6618cc651",
      "s": "0x15077612854ee17d961859b88446107fb331df1c99ce65164b12f8870dbcb358",
      "v": 27,
      "creates": null,
      "raw": "0xf86c80850de3bf2b9f825208946cebfb928f09afea77a627fbc716f446b0d2f66788016345785d8a0000801ba03cf10254ea2f87458e6bd322ebc002fb4e86b2bb8f5452ed6739f1d6618cc651a015077612854ee17d961859b88446107fb331df1c99ce65164b12f8870dbcb358",
      "networkId": 0,
      "chainId": 0
    }
  ]
}