{
  "hash": "0xb2082bf4ed22721ca3c98de38a23dd0d33f15b0cbf9690c3a28b255b9822e103",
  "parentHash": "0x2e3a037417ecd1f1be79669a33c3ab2a5bd344f7fb6d0fba2b70ef33e6637a84",
  "number": 50436,
  "timestamp": 1438989237,
  "nonce": "0x6adfbfdb8a0b7548",
  "difficulty": 1507480373866,
  "gasLimit": {
    "_hex": "0x6289b"
  },
  "gasUsed": {
    "_hex": "0x546c"
  },
  "miner": "0xf927a40C8B7F6E07c5af7FA2155B4864a4112B13",
  "extraData": "0x",
  "transactions": [
    {
      "hash": "0x5344ab30111dbf894719203d02bb92f562ed48a01bf5963ad304c3a2e6b395ea",
      "blockHash": "0xb2082bf4ed22721ca3c98de38a23dd0d33f15b0cbf9690c3a28b255b9822e103",
      "blockNumber": 50436,
      "transactionIndex": 0,
      "confirmations": null,
      "from": "0x8f067c7c1bBd57780b7b9eeB9eC0032f90d0DCF9",
      "gasPrice": {
        "_hex": "0xcdffb8859"
      },
      "gasLimit": {
        "_hex": "0x15f90"
      },
      "to": "0x2910543Af39abA0Cd09dBb2D50200b3E800A63D2",
      "value": {
        "_hex": "0x43c325e4dfd06f60000"
      },
      "nonce": 0,
      "data": "0x454e39335647355438",
      "r": "0xd2da40239697bd038cb3b6baf34c28a6aad980693b16c1929def7405ca44adb6",
      "s": "0x3c04b6c09c442afbed795a2f13492b2c9c2bf23edc9a52dc3c38c0aebaab83bb",
      "v": 28,
      "creates": null,
      "raw": "0xf87880850cdffb885983015f90942910543af39aba0cd09dbb2d50200b3e800a63d28a043c325e4dfd06f6000089454e393356473554381ca0d2da40239697bd038cb3b6baf34c28a6aad980693b16c1929def7405ca44adb6a03c04b6c09c442afbed795a2f13492b2c9c2bf23edc9a52dc3c38c0aebaab83bb",
      "networkId": 0,
      "chainId": 0
    }
  ]
}