{
  "hash": "0xdbacfe0c04146f08998d7b941d0d62f74bce1a51d2734c0e651e4f41259bba5c",
  "parentHash": "0x8c68f70566af8169214b0cee7193ab90bc13423e9c1c07766634f3366d548cc3",
  "number": 112761,
  "timestamp": 1440012772,
  "nonce": "0x6d623d718499c2e8",
  "difficulty": 4443262495917,
  "gasLimit": {
    "_hex": "0x2fefd8"
  },
  "gasUsed": {
    "_hex": "0x14820"
  },
  "miner": "0xe6A7a1d47ff21B6321162AEA7C6CB457D5476Bca",
  "extraData": "0x476574682f76312e302e312d38326566323666362f6c696e75782f676f312e34",
  "transactions": [
    {
      "hash": "0x6e8d47f6cba302740cff6b403187cae615682706926118d2ac2d77d23abd0fac",
      "blockHash": "0xdbacfe0c04146f08998d7b941d0d62f74bce1a51d2734c0e651e4f41259bba5c",
      "blockNumber": 112761,
      "transactionIndex": 0,
      "confirmations": null,
      "from": "0xe512429AB3036301dC4c56F9a4c9991dCbb6b496",
      "gasPrice": {
        "_hex": "0xdae1c3225"
      },
      "gasLimit": {
        "_hex": "0x5208"
      },
      "to": "0x32Be343B94f860124dC4fEe278FDCBD38C102D88",
      "value": {
        "_hex": "0x16f26a08fae53000"
      },
      "nonce": 8,
      "data": "0x",
      "r": "0xa7f4127c3fd7a818b166c2ca99223f841fbdfb452d6b80517a977f98cf7968be",
      "s": "0x18564980d20ebfdcdc1577fe19deabdda99143243ab89671fc5da6b9b220e604",
      "v": 27,
      "creates": null,
      "raw": "0xf86c08850dae1c32258252089432be343b94f860124dc4fee278fdcbd38c102d888816f26a08fae53000801ba0a7f4127c3fd7a818b166c2ca99223f841fbdfb452d6b80517a977f98cf7968bea018564980d20ebfdcdc1577fe19deabdda99143243ab89671fc5da6b9b220e604",
      "networkId": 0,
      "chainId": 0
    },
    {
      "hash": "0xf3e3ebaada37be7b95381f47e35190786b7cccb8235c5442c04e13a12b78bcfa",
      "blockHash": "0xdbacfe0c04146f08998d7b941d0d62f74bce1a51d2734c0e651e4f41259bba5c",
      "blockNumber": 112761,
      "transactionIndex": 1,
      "confirmations": null,
      "from": "0xB0b3385a645Eb80B431224920043447Ab1303eA8",
      "gasPrice": {
        "_hex": "0xdae1c3225"
      },
      "gasLimit": {
        "_hex": "0x5208"
      },
      "to": "0x32Be343B94f860124dC4fEe278FDCBD38C102D88",
      "value": {
        "_hex": "0x3b60c5b7fc076000"
      },
      "nonce": 6,
      "data": "0x",
      "r": "0xca2d0d12b07aaa7b2d4796cb3e09e0b185fc7565d198b40a59ae3d804a191c68",
      "s": "0x45fe5e65186ee4c55865dd6674a3936890511621bd1a46e7959aed77254bf1b1",
      "v": 28,
      "creates": null,
      "raw": "0xf86c06850dae1c32258252089432be343b94f860124dc4fee278fdcbd38c102d88883b60c5b7fc076000801ca0ca2d0d12b07aaa7b2d4796cb3e09e0b185fc7565d198b40a59ae3d804a191c68a045fe5e65186ee4c55865dd6674a3936890511621bd1a46e7959aed77254bf1b1",
      "networkId": 0,
      "chainId": 0
    },
    {
      "hash": "0xcc491e2d5fa9794958450a046b6071fa81f77b00619c6c43a230b74b7f6a96b0",
      "blockHash": "0xdbacfe0c04146f08998d7b941d0d62f74bce1a51d2734c0e651e4f41259bba5c",
      "blockNumber": 112761,
      "transactionIndex": 2,
      "confirmations": null,
      "from": "0xdc41BFACFAaF8B0F0949aB5A3f18f47063Ae62fB",
      "gasPrice": {
        "_hex": "0xdae1c3225"
      },
      "gasLimit": {
        "_hex": "0x5208"
      },
      "to": "0x32Be343B94f860124dC4fEe278FDCBD38C102D88",
      "value": {
        "_hex": "0x1fcade13e50e8f000"
      },
      "nonce": 8,
      "data": "0x",
      "r": "0xeee79d754bab8b1f943f96c3f8246453afa6e3708d012603a3f4e06696bbcb21",
      "s": "0x34731a4e3a24765c5ef10dee5ab446188f3de312a7c90b0cde75e5a2414ed2f8",
      "v": 27,
      "creates": null,
      "raw": "0xf86d08850dae1c32258252089432be343b94f860124dc4fee278fdcbd38c102d888901fcade13e50e8f000801ba0eee79d754bab8b1f943f96c3f8246453afa6e3708d012603a3f4e06696bbcb21a034731a4e3a24765c5ef10dee5ab446188f3de312a7c90b0cde75e5a2414ed2f8",
      "networkId": 0,
      "chainId": 0
    },
    {
      "hash": "0xc0753e0622ac850762b9ab43700d5d6cd574a79617b2aefed2156ed12c7a56fe",
      "blockHash": "0xdbacfe0c04146f08998d7b941d0d62f74bce1a51d2734c0e651e4f41259bba5c",
      "blockNumber": 112761,
      "transactionIndex": 3,
      "confirmations": null,
      "from": "0xD99b25c518320820D3C5ae9f47378DA32dED5f00",
      "gasPrice": {
        "_hex": "0xdae1c3225"
      },
      "gasLimit": {
        "_hex": "0x5208"
      },
      "to": "0x32Be343B94f860124dC4fEe278FDCBD38C102D88",
      "value": {
        "_hex": "0x7b84393b32424400"
      },
      "nonce": 8,
      "data": "0x",
      "r": "0x30f3e30dc97e7dfa462fcfdc000f8f1ebc6e84c2874ca5a713d9486ca94d866e",
      "s": "0x5849a43eeff3b597c0637cf055e7afec4c7c267f6285b82b0f840bac4c6eb981",
      "v": 28,
      "creates": null,
      "raw": "0xf86c08850dae1c32258252089432be343b94f860124dc4fee278fdcbd38c102d88887b84393b32424400801ca030f3e30dc97e7dfa462fcfdc000f8f1ebc6e84c2874ca5a713d9486ca94d866ea05849a43eeff3b597c0637cf055e7afec4c7c267f6285b82b0f840bac4c6eb981",
      "networkId": 0,
      "chainId": 0
    }
  ]
}