{
  "hash": "0x6e443c0b1c2004b3626ca931e7f67cd57a2d24f3c79332c0b8fcefc1170a451d",
  "parentHash": "0x64bd034de0c5acf2f0d90a8320ca5fdbc55ab34a91570e555a2be27c5bc2ce58",
  "number": 90697,
  "timestamp": 1439644192,
  "nonce": "0x7925aa13a5d28935",
  "difficulty": 3359501339886,
  "gasLimit": {
    "_hex": "0x2fefd8"
  },
  "gasUsed": {
    "_hex": "0x5208"
  },
  "miner": "0xe6A7a1d47ff21B6321162AEA7C6CB457D5476Bca",
  "extraData": "0x476574682f76312e302e312d38326566323666362f6c696e75782f676f312e34",
  "transactions": [
    {
      "hash": "0xb32ed5c3b6843fdb3ed141a0cc2eec0e0c7cfcc08c80b2ff89e20c609f5ff684",
      "blockHash": "0x6e443c0b1c2004b3626ca931e7f67cd57a2d24f3c79332c0b8fcefc1170a451d",
      "blockNumber": 90697,
      "transactionIndex": 0,
      "confirmations": null,
      "from": "0xc597A5d92F5dC1137D847db733cfe02c6d209f13",
      "gasPrice": {
        "_hex": "0xcc8d14f44"
      },
      "gasLimit": {
        "_hex": "0x15f90"
      },
      "to": "0x723E32E60829d5d032A8aD7af228b3582CD5163c",
      "value": {
        "_hex": "0xc542ac73d93430000"
      },
      "nonce": 30,
      "data": "0x",
      "r": "0xee1656473f0990c790d7d80c0bcfe8052394223fcb957d87a1f292554ce7b8f2",
      "s": "0x2706a61a76e758a11c91f0467e2752136b2de369296b05e272d254495ceb421c",
      "v": 27,
      "creates": null,
      "raw": "0xf86e1e850cc8d14f4483015f9094723e32e60829d5d032a8ad7af228b3582cd5163c890c542ac73d93430000801ba0ee1656473f0990c790d7d80c0bcfe8052394223fcb957d87a1f292554ce7b8f2a02706a61a76e758a11c91f0467e2752136b2de369296b05e272d254495ceb421c",
      "networkId": 0,
      "chainId": 0
    }
  ]
}