{
  "hash": "0xb2aecff78fd48e0c9714e6bd1378e09b6ab78502bb585095a4d5bedde73f1622",
  "parentHash": "0x34e3313f47c0ba10621e7baca37d16ef9238596ae8a89059fdf4031b56d1de7a",
  "number": 63147,
  "timestamp": 1439199949,
  "nonce": "0xa12d8c8684e738e2",
  "difficulty": 1802365838395,
  "gasLimit": {
    "_hex": "0x2fefd8"
  },
  "gasUsed": {
    "_hex": "0x5208"
  },
  "miner": "0xbb7B8287f3F0a933474a79eAe42CBCa977791171",
  "extraData": "0x476574682f4c5649562f76312e302e312f6c696e75782f676f312e342e32",
  "transactions": [
    {
      "hash": "0x407161c0c1eed734afadba370d4db9926c06b4a7b5c1e390ff56ff70084f27fe",
      "blockHash": "0xb2aecff78fd48e0c9714e6bd1378e09b6ab78502bb585095a4d5bedde73f1622",
      "blockNumber": 63147,
      "transactionIndex": 0,
      "confirmations": null,
      "from": "0x2910543Af39abA0Cd09dBb2D50200b3E800A63D2",
      "gasPrice": {
        "_hex": "0xd0e0edf26"
      },
      "gasLimit": {
        "_hex": "0x5208"
      },
      "to": "0xCF336585500343e6Bd562504cC90D9E319037f31",
      "value": {
        "_hex": "0x27f304e3425f2d6000"
      },
      "nonce": 123,
      "data": "0x",
      "r": "0x5da65e3a74b63acdf666aee467be66f946c99f7bdfa32184f101a4184b9bae13",
      "s": "0x42140e27c76ac0099eb3e151fa1195d61df543417e03900f342127981de37ea5",
      "v": 27,
      "creates": null,
      "raw": "0xf86d7b850d0e0edf2682520894cf336585500343e6bd562504cc90d9e319037f318927f304e3425f2d6000801ba05da65e3a74b63acdf666aee467be66f946c99f7bdfa32184f101a4184b9bae13a042140e27c76ac0099eb3e151fa1195d61df543417e03900f342127981de37ea5",
      "networkId": 0,
      "chainId": 0
    }
  ]
}