{
  "hash": "0xf8d04fbe1ee3619806734c2dd872f0af65bb0c4625130d51de62f56fbfd467a0",
  "parentHash": "0x087ca9e64bbf195cc3b46fc9a9d7059026edca7201c689fb6bbb7255a8def20a",
  "number": 97205,
  "timestamp": 1439752596,
  "nonce": "0x9e4e6ad65cba0963",
  "difficulty": 3763218440940,
  "gasLimit": {
    "_hex": "0x2fefd8"
  },
  "gasUsed": {
    "_hex": "0x546c"
  },
  "miner": "0x893Fb367C7E84864E2A1C45D75d7F49cbe4b2073",
  "extraData": "0xd983010001844765746887676f312e342e328777696e646f7773",
  "transactions": [
    {
      "hash": "0x94497dbc3aae4c0edeac730a915c52e345fc5709270a7689d623242d216b0660",
      "blockHash": "0xf8d04fbe1ee3619806734c2dd872f0af65bb0c4625130d51de62f56fbfd467a0",
      "blockNumber": 97205,
      "transactionIndex": 0,
      "confirmations": null,
      "from": "0x999C49C174cA13BC836c1e0A92bff48b271543cA",
      "gasPrice": {
        "_hex": "0x110c8f7d8de"
      },
      "gasLimit": {
        "_hex": "0xc350"
      },
      "to": "0x2910543Af39abA0Cd09dBb2D50200b3E800A63D2",
      "value": {
        "_hex": "0x4563918244f4000000"
      },
      "nonce": 0,
      "data": "0x454e4a455946513238",
      "r": "0xd46e09475557e97a4aec27129ea33581a7e10d53a59ab4b05074bf06cf1fab0d",
      "s": "0xcd601e3c884d8309d6a62bad825dd999fff9e082ba8c7e73b3cb98f9643a2a33",
      "v": 28,
      "creates": null,
      "raw": "0xf87780860110c8f7d8de82c350942910543af39aba0cd09dbb2d50200b3e800a63d2894563918244f400000089454e4a4559465132381ca0d46e09475557e97a4aec27129ea33581a7e10d53a59ab4b05074bf06cf1fab0da0cd601e3c884d8309d6a62bad825dd999fff9e082ba8c7e73b3cb98f9643a2a33",
      "networkId": 0,
      "chainId": 0
    }
  ]
}