{
  "hash": "0xd9a083e3801e37c7f9bcc19b7cceee60a5cd6f7c4a68c9911fbea73f4c877403",
  "parentHash": "0x4ba9d924f4ba2a8487f5caf369895997674e83e91186648014092214a7462233",
  "number": 110441,
  "timestamp": 1439973880,
  "nonce": "0xcd367df0476288b6",
  "difficulty": 4371315111846,
  "gasLimit": {
    "_hex": "0x2fefd8"
  },
  "gasUsed": {
    "_hex": "0x5208"
  },
  "miner": "0xa70a9a7040d542C632D8e0bE7c5513A8a5Bbc752",
  "extraData": "0x",
  "transactions": [
    {
      "hash": "0xb5cd492a6c5ecd673030bd0bc0d968ccf13aeaa453430dd9746765fc564484a1",
      "blockHash": "0xd9a083e3801e37c7f9bcc19b7cceee60a5cd6f7c4a68c9911fbea73f4c877403",
      "blockNumber": 110441,
      "transactionIndex": 0,
      "confirmations": null,
      "from": "0x8b687892C6Cf88925ddD772718782A864e5353Df",
      "gasPrice": {
        "_hex": "0xd48fbf893"
      },
      "gasLimit": {
        "_hex": "0x5208"
      },
      "to": "0x32Be343B94f860124dC4fEe278FDCBD38C102D88",
      "value": {
        "_hex": "0x32c163bb80f30e000"
      },
      "nonce": 6,
      "data": "0x",
      "r": "0x35e32da2d76ba86960aed5ba62f756751846085c389129b09be937fa6d8ab53d",
      "s": "0x71003606091a49df6fc466b419b3fe626bc6ff2a1790d8f191a94cebf355ca68",
      "v": 28,
      "creates": null,
      "raw": "0xf86d06850d48fbf8938252089432be343b94f860124dc4fee278fdcbd38c102d8889032c163bb80f30e000801ca035e32da2d76ba86960aed5ba62f756751846085c389129b09be937fa6d8ab53da071003606091a49df6fc466b419b3fe626bc6ff2a1790d8f191a94cebf355ca68",
      "networkId": 0,
      "chainId": 0
    }
  ]
}