{
  "hash": "0x4926b2cd6256d5fd8a92a7ac0ccdaa5cf3af1c49706d30fc975d4bb9dea4e4de",
  "parentHash": "0x87b673001716bd2aa9f78870d0622f4397aeb43a26ce963912bb34d53617171c",
  "number": 51838,
  "timestamp": 1439011928,
  "nonce": "0xed842ae54fbd6dfb",
  "difficulty": 1553555133335,
  "gasLimit": {
    "_hex": "0xe4a9f"
  },
  "gasUsed": {
    "_hex": "0x7a120"
  },
  "miner": "0xB5f313DEDBfa1F8fd40A0a920255Bb06B0b09912",
  "extraData": "0x476574682f76312e302e302d30333937633636632f6c696e75782f676f312e34",
  "transactions": [
    {
      "hash": "0xcf1a6ff407cd6f8b55e6065b1b7954bdc1922cb4051fc96fae22c63822e012e3",
      "blockHash": "0x4926b2cd6256d5fd8a92a7ac0ccdaa5cf3af1c49706d30fc975d4bb9dea4e4de",
      "blockNumber": 51838,
      "transactionIndex": 0,
      "confirmations": null,
      "from": "0xD9E6086071980fE3484b6BaABA07A10b47B046A6",
      "gasPrice": {
        "_hex": "0x10698fe38e4"
      },
      "gasLimit": {
        "_hex": "0x7a120"
      },
      "to": "0xBAA54d6E90c3F4d7Ebec11bD180134C7eD8eBb52",
      "value": {
        "_hex": "0x16345785d8a0000"
      },
      "nonce": 3,
      "data": "0x",
      "r": "0x398a69fa66a3a7e71fd4e398524c10a5ab04cdaa8513aebab586b10b63248035",
      "s": "0x17db83403a4f563ab6a8d7f201216f2d5afa6bc6ee4a7cca502eae1e1cabff13",
      "v": 27,
      "creates": null,
      "raw": "0xf86e0386010698fe38e48307a12094baa54d6e90c3f4d7ebec11bd180134c7ed8ebb5288016345785d8a0000801ba0398a69fa66a3a7e71fd4e398524c10a5ab04cdaa8513aebab586b10b63248035a017db83403a4f563ab6a8d7f201216f2d5afa6bc6ee4a7cca502eae1e1cabff13",
      "networkId": 0,
      "chainId": 0
    }
  ]
}