{
  "hash": "0x811200169ff64d2ca6b23ffaf553386e028ccb11aef171187af0b25dc2b2e504",
  "parentHash": "0x2925b13e2f3e9f91723cb2225b11c460bf672a2b731689910aa0661031c847d1",
  "number": 47605,
  "timestamp": 1438943522,
  "nonce": "0xf12dde5df7340f81",
  "difficulty": 1448096253449,
  "gasLimit": {
    "_hex": "0xd5e7"
  },
  "gasUsed": {
    "_hex": "0xa674"
  },
  "miner": "0xf927a40C8B7F6E07c5af7FA2155B4864a4112B13",
  "extraData": "0x476574682f76312e302e312f6c696e75782f676f312e342e32",
  "transactions": [
    {
      "hash": "0x9e002a66d986fd6a943771c3db6eeab0e02058d9c325d759c151be75b4e41509",
      "blockHash": "0x811200169ff64d2ca6b23ffaf553386e028ccb11aef171187af0b25dc2b2e504",
      "blockNumber": 47605,
      "transactionIndex": 0,
      "confirmations": null,
      "from": "0x8566610901AACe38b83244F3A9c831306a67b9dc",
      "gasPrice": {
        "_hex": "0x1034b1650a"
      },
      "gasLimit": {
        "_hex": "0x5208"
      },
      "to": "0x900C0aFc99968F30e64a7DEe5828042b6422a098",
      "value": {
        "_hex": "0x306616c5be2cc0000"
      },
      "nonce": 3,
      "data": "0x",
      "r": "0xcc0463368dd37dcab0b5c8d79532129af253784e00b66fd601eca04438b79599",
      "s": "0x2a294af2d53a3d4839e6db55567d047e95f3c92f3a9ecf0d1d6105a2d641fe29",
      "v": 28,
      "creates": null,
      "raw": "0xf86d03851034b1650a82520894900c0afc99968f30e64a7dee5828042b6422a098890306616c5be2cc0000801ca0cc0463368dd37dcab0b5c8d79532129af253784e00b66fd601eca04438b79599a02a294af2d53a3d4839e6db55567d047e95f3c92f3a9ecf0d1d6105a2d641fe29",
      "networkId": 0,
      "chainId": 0
    },
    {
      "hash": "0x7ca98e57420eb2fde22d3a5e0a1031876efb3180c37af0d02dde62bc8249127e",
      "blockHash": "0x811200169ff64d2ca6b23ffaf553386e028ccb11aef171187af0b25dc2b2e504",
      "blockNumber": 47605,
      "transactionIndex": 1,
      "confirmations": null,
      "from": "0xb6E6C3222B6b6f9bE2875D2a89f127fb64100Fe2",
      "gasPrice": {
        "_hex": "0x1020c75023"
      },
      "gasLimit": {
        "_hex": "0x55f0"
      },
      "to": "0x2910543Af39abA0Cd09dBb2D50200b3E800A63D2",
      "value": {
        "_hex": "0xa2a15d09519be00000"
      },
      "nonce": 1,
      "data": "0x454e324a3854314430",
      "r": "0x677776a68b20ff44276fd922f50d155bc7f7d4476bba4c58f262cc752939d970",
      "s": "0x14529c390320e812deb310be38efd39c05116baade887cc2173a67d1d204fb14",
      "v": 28,
      "creates": null,
      "raw": "0xf87601851020c750238255f0942910543af39aba0cd09dbb2d50200b3e800a63d289a2a15d09519be0000089454e324a38543144301ca0677776a68b20ff44276fd922f50d155bc7f7d4476bba4c58f262cc752939d970a014529c390320e812deb310be38efd39c05116baade887cc2173a67d1d204fb14",
      "networkId": 0,
      "chainId": 0
    }
  ]
}