{
  "hash": "0xa78c1754192968201bf3192784d682ddcc937990aefb3ad83d1c5c7291192244",
  "parentHash": "0x9131598fc20f22b100dad0d5cae503e9bbf3fc1c4d0df652f2b5a123e3231137",
  "number": 112290,
  "timestamp": 1440005168,
  "nonce": "0x576ba0fc1c6d695a",
  "difficulty": 4385314985663,
  "gasLimit": {
    "_hex": "0x2fefd8"
  },
  "gasUsed": {
    "_hex": "0x14820"
  },
  "miner": "0x7eD2359220bC2A40b70C40350EcAb732B39c0eF4",
  "extraData": "0x",
  "transactions": [
    {
      "hash": "0x40d1a5b74e278767283f3d0755ccebf409eca2ae03d6882d454fb9c411f070c3",
      "blockHash": "0xa78c1754192968201bf3192784d682ddcc937990aefb3ad83d1c5c7291192244",
      "blockNumber": 112290,
      "transactionIndex": 0,
      "confirmations": null,
      "from": "0x32Be343B94f860124dC4fEe278FDCBD38C102D88",
      "gasPrice": {
        "_hex": "0xd66c311fe"
      },
      "gasLimit": {
        "_hex": "0x5208"
      },
      "to": "0x8c0A6b62918D317e3B431EfB67E3fB5eff333b1c",
      "value": {
        "_hex": "0x579848dee9ab30000"
      },
      "nonce": 1338,
      "data": "0x",
      "r": "0xf12f6270e1a57f36ead8e9efd5e0c7d0b8b945982c8abcfe541b85393ea87b89",
      "s": "0x1bcfe0d871fd676b84e35bc5650c4c41a204bb19f2d00733d436d5cab9f8d930",
      "v": 27,
      "creates": null,
      "raw": "0xf86f82053a850d66c311fe825208948c0a6b62918d317e3b431efb67e3fb5eff333b1c890579848dee9ab30000801ba0f12f6270e1a57f36ead8e9efd5e0c7d0b8b945982c8abcfe541b85393ea87b89a01bcfe0d871fd676b84e35bc5650c4c41a204bb19f2d00733d436d5cab9f8d930",
      "networkId": 0,
      "chainId": 0
    },
    {
      "hash": "0x292f3bad7df2be678087bdb4439feef446f8938b861ac12fefa0b5ccbf671842",
      "blockHash": "0xa78c1754192968201bf3192784d682ddcc937990aefb3ad83d1c5c7291192244",
      "blockNumber": 112290,
      "transactionIndex": 1,
      "confirmations": null,
      "from": "0x32Be343B94f860124dC4fEe278FDCBD38C102D88",
      "gasPrice": {
        "_hex": "0xd66c311fe"
      },
      "gasLimit": {
        "_hex": "0x5208"
      },
      "to": "0x470685247760f5aBCDc0dfBed21790a08151296A",
      "value": {
        "_hex": "0xd8d726b7177a80000"
      },
      "nonce": 1339,
      "data": "0x",
      "r": "0xe083d5ef728414512ab658f3defb0744857f4454447cd3a766e63be0e11d3e7a",
      "s": "0x4609c48d86a6a6c886191c83a5c2d6c9b31777f5fe261d7631e5a41fac6052cf",
      "v": 28,
      "creates": null,
      "raw": "0xf86f82053b850d66c311fe82520894470685247760f5abcdc0dfbed21790a08151296a890d8d726b7177a80000801ca0e083d5ef728414512ab658f3defb0744857f4454447cd3a766e63be0e11d3e7aa04609c48d86a6a6c886191c83a5c2d6c9b31777f5fe261d7631e5a41fac6052cf",
      "networkId": 0,
      "chainId": 0
    },
    {
      "hash": "0x62ae3ea5270179cd9ec0d90fa0c1d0b4254637089b941afaca38ecc824c22973",
      "blockHash": "0xa78c1754192968201bf3192784d682ddcc937990aefb3ad83d1c5c7291192244",
      "blockNumber": 112290,
      "transactionIndex": 2,
      "confirmations": null,
      "from": "0xFBb1b73C4f0BDa4f67dcA266ce6Ef42f520fBB98",
      "gasPrice": {
        "_hex": "0xd64158a11"
      },
      "gasLimit": {
        "_hex": "0x5208"
      },
      "to": "0x2678D3A52f796B7Fc9BA469579de3891af5f8A95",
      "value": {
        "_hex": "0x2b5e3af16b1880000"
      },
      "nonce": 221,
      "data": "0x",
      "r": "0x7ec34c8d6eac3b781a5117889903a6a38c95e51411c215d0e8bc8cde558c0d0e",
      "s": "0x64e49800f74ae87e1c8a1fa7a8e8f22c9ba94590bd772851c02986ac992263ea",
      "v": 28,
      "creates": null,
      "raw": "0xf86e81dd850d64158a11825208942678d3a52f796b7fc9ba469579de3891af5f8a958902b5e3af16b1880000801ca07ec34c8d6eac3b781a5117889903a6a38c95e51411c215d0e8bc8cde558c0d0ea064e49800f74ae87e1c8a1fa7a8e8f22c9ba94590bd772851c02986ac992263ea",
      "networkId": 0,
      "chainId": 0
    },
    {
      "hash": "0xe9a59c37db5d4a9b73170841843e8654fe1d7e1fc666fc2088b9caff4e09f622",
      "blockHash": "0xa78c1754192968201bf3192784d682ddcc937990aefb3ad83d1c5c7291192244",
      "blockNumber": 112290,
      "transactionIndex": 3,
      "confirmations": null,
      "from": "0x064907236cc3205e5f60Bb0C5168f1F110835afa",
      "gasPrice": {
        "_hex": "0xba43b7400"
      },
      "gasLimit": {
        "_hex": "0x5208"
      },
      "to": "0xC47Aaa860008be6f65B58c6C6E02a84e666EfE31",
      "value": {
        "_hex": "0xdeebf34b240b8f0"
      },
      "nonce": 0,
      "data": "0x",
      "r": "0xe387df5223e32fba1d373939805332bed3d2adc906fe761135785424183dabc7",
      "s": "0x1dc7ed45210f71f1c91610dd927df28ce5788f38e73fea3daba721fd58c2ae32",
      "v": 27,
      "creates": null,
      "raw": "0xf86c80850ba43b740082520894c47aaa860008be6f65b58c6c6e02a84e666efe31880deebf34b240b8f0801ba0e387df5223e32fba1d373939805332bed3d2adc906fe761135785424183dabc7a01dc7ed45210f71f1c91610dd927df28ce5788f38e73fea3daba721fd58c2ae32",
      "networkId": 0,
      "chainId": 0
    }
  ]
}