{
  "hash": "0xa048d85a4cc9118ac05ae1cc0e4a8ff3c230d00a554d11c9383cd5f041c021ba",
  "parentHash": "0x01b7ed6b3a9e222dc480a84127241650628258c8967974eaa0cf4096cb8e7798",
  "number": 90646,
  "timestamp": 1439643306,
  "nonce": "0xe646fa6706ebb970",
  "difficulty": 3341525829037,
  "gasLimit": {
    "_hex": "0x2fefd8"
  },
  "gasUsed": {
    "_hex": "0x5208"
  },
  "miner": "0xe6A7a1d47ff21B6321162AEA7C6CB457D5476Bca",
  "extraData": "0x476574682f76312e302e312d38326566323666362f6c696e75782f676f312e34",
  "transactions": [
    {
      "hash": "0xb4004954a1f30f7f285308326e6b8b097ff5946dea7264aa06185e004519c23c",
      "blockHash": "0xa048d85a4cc9118ac05ae1cc0e4a8ff3c230d00a554d11c9383cd5f041c021ba",
      "blockNumber": 90646,
      "transactionIndex": 0,
      "confirmations": null,
      "from": "0xF9df7dCaA26C039BD675B008D4991b34717E0703",
      "gasPrice": {
        "_hex": "0xcc96ad1d3"
      },
      "gasLimit": {
        "_hex": "0x15f90"
      },
      "to": "0x047fF53dFE1F7BD2c3Ed2D1f777F35D1f64e9ffE",
      "value": {
        "_hex": "0xde0b6b3a7640000"
      },
      "nonce": 0,
      "data": "0x",
      "r": "0xe7fb0e257048eefff64afcf05733c9eaf2c3134ab6ad3485c390f413fa410cb7",
      "s": "0x4f0af2322326f4a3e55c8438109f1c00706015bf1d0abe078a613628939ed014",
      "v": 28,
      "creates": null,
      "raw": "0xf86d80850cc96ad1d383015f9094047ff53dfe1f7bd2c3ed2d1f777f35d1f64e9ffe880de0b6b3a7640000801ca0e7fb0e257048eefff64afcf05733c9eaf2c3134ab6ad3485c390f413fa410cb7a04f0af2322326f4a3e55c8438109f1c00706015bf1d0abe078a613628939ed014",
      "networkId": 0,
      "chainId": 0
    }
  ]
}