{
  "hash": "0xf5c8c5991f6f5d49804ee20a44d53a7e1c336d1350c47d6cabd8688ea15ca541",
  "parentHash": "0x4dc3aae0a65523ebf5dd2e8c77b04b096ace3c91089a9adaa7edbeca038b7202",
  "number": 49272,
  "timestamp": 1438970877,
  "nonce": "0xc74fd41b6ec66278",
  "difficulty": 1479972788113,
  "gasLimit": {
    "_hex": "0x2b2dc"
  },
  "gasUsed": {
    "_hex": "0xa8d8"
  },
  "miner": "0x157c6f2431eB1a95797EE86F7d17b3c0FD47A247",
  "extraData": "0x476574682f76312e302e312f77696e646f77732f676f312e342e32",
  "transactions": [
    {
      "hash": "0x079a27a6c6eb04495d79a138d998c67cd08ba6135adfd457122dff70b5d99da0",
      "blockHash": "0xf5c8c5991f6f5d49804ee20a44d53a7e1c336d1350c47d6cabd8688ea15ca541",
      "blockNumber": 49272,
      "transactionIndex": 0,
      "confirmations": null,
      "from": "0xE528A0e5a267D667e9393a6584E19b34Dc9BE973",
      "gasPrice": {
        "_hex": "0x110c8f7d8de"
      },
      "gasLimit": {
        "_hex": "0xc350"
      },
      "to": "0x2910543Af39abA0Cd09dBb2D50200b3E800A63D2",
      "value": {
        "_hex": "0x6194049f30f7200000"
      },
      "nonce": 1,
      "data": "0x454e52344851514d52",
      "r": "0xb40fa9ae0c25b18503d6031389162fd744c99d9d342e4e921728d536616d93f2",
      "s": "0x661bb1b965ff970e26b6d8f00579b69c64a8560b18e39327ed7a383d1cb42bf9",
      "v": 28,
      "creates": null,
      "raw": "0xf87701860110c8f7d8de82c350942910543af39aba0cd09dbb2d50200b3e800a63d2896194049f30f720000089454e52344851514d521ca0b40fa9ae0c25b18503d6031389162fd744c99d9d342e4e921728d536616d93f2a0661bb1b965ff970e26b6d8f00579b69c64a8560b18e39327ed7a383d1cb42bf9",
      "networkId": 0,
      "chainId": 0
    },
    {
      "hash": "0xd4f372b805e62ca4c9e93517df77f4c2cd58ef2e81f320a795f9b864e76fee40",
      "blockHash": "0xf5c8c5991f6f5d49804ee20a44d53a7e1c336d1350c47d6cabd8688ea15ca541",
      "blockNumber": 49272,
      "transactionIndex": 1,
      "confirmations": null,
      "from": "0x8A7a06Be199A3a58019D846AC9cbD4D95DD757de",
      "gasPrice": {
        "_hex": "0x10c281a9786"
      },
      "gasLimit": {
        "_hex": "0x61a8"
      },
      "to": "0x2910543Af39abA0Cd09dBb2D50200b3E800A63D2",
      "value": {
        "_hex": "0x4563918244f40000"
      },
      "nonce": 1,
      "data": "0x454e51594e32314b52",
      "r": "0x81ee7075c3bf40032139d5555a77ae39ba08660e2371c4f5fd044fe10471f8b3",
      "s": "0x6d7b703b3a5f40ed1de4c1dd5d6e38f663b4343c0df1b204a182dc97ad13bf32",
      "v": 28,
      "creates": null,
      "raw": "0xf8760186010c281a97868261a8942910543af39aba0cd09dbb2d50200b3e800a63d2884563918244f4000089454e51594e32314b521ca081ee7075c3bf40032139d5555a77ae39ba08660e2371c4f5fd044fe10471f8b3a06d7b703b3a5f40ed1de4c1dd5d6e38f663b4343c0df1b204a182dc97ad13bf32",
      "networkId": 0,
      "chainId": 0
    }
  ]
}