{
  "hash": "0xa2ea49f10a476d246978af1664214a693b9a3167eaaac4cbcbada648cdd85ecc",
  "parentHash": "0x04708185c6eb49879c34ce8a028e8ddb88775ac9050fb3f9d87dbc365f907990",
  "number": 75561,
  "timestamp": 1439405532,
  "nonce": "0x319715ddabaf5031",
  "difficulty": 2211508796731,
  "gasLimit": {
    "_hex": "0x2fefd8"
  },
  "gasUsed": {
    "_hex": "0x70d3"
  },
  "miner": "0x1C9E954d10cfcE921f4692F922A50D4da0812E69",
  "extraData": "0x476574682f76312e302e312f6c696e75782f676f312e342e32",
  "transactions": [
    {
      "hash": "0xe6a287f81d9734b636454b7f3affa32006243dd5fef9bc48d6522f80ce8ef373",
      "blockHash": "0xa2ea49f10a476d246978af1664214a693b9a3167eaaac4cbcbada648cdd85ecc",
      "blockNumber": 75561,
      "transactionIndex": 0,
      "confirmations": null,
      "from": "0x9724Ac4dc56e03379eBA5d157D1513EcC32cBD8f",
      "gasPrice": {
        "_hex": "0xd6dbc0838"
      },
      "gasLimit": {
        "_hex": "0x493e0"
      },
      "to": "0xD79B4C6791784184e2755B2fC1659eaaB0f80456",
      "value": {
        "_hex": "0x0"
      },
      "nonce": 11,
      "data": "0xbd66528a73302e3230353436323635363135343237323700000000000000000000000000",
      "r": "0x0f9966cf0aff775b206181741fb3b97026e01de8b2c91a099efaa32ef25feb3b",
      "s": "0x12d0d1f23718a800866cae2530b6e568529ca051bdb093614263b7a91265103c",
      "v": 27,
      "creates": null,
      "raw": "0xf8890b850d6dbc0838830493e094d79b4c6791784184e2755b2fc1659eaab0f8045680a4bd66528a73302e32303534363236353631353432373237000000000000000000000000001ba00f9966cf0aff775b206181741fb3b97026e01de8b2c91a099efaa32ef25feb3ba012d0d1f23718a800866cae2530b6e568529ca051bdb093614263b7a91265103c",
      "networkId": 0,
      "chainId": 0
    }
  ]
}