{
  "hash": "0xb00e1b2af1ca21a6d1fae5059694250d6edc7247d20ff3bfc7570d3905b64629",
  "parentHash": "0xb282123359ec93dc78c5fe3cd9216dcfaf5476fd6dc88f283c21360e1b0eea8b",
  "number": 52533,
  "timestamp": 1439023174,
  "nonce": "0x013e3779f50c9a67",
  "difficulty": 1563318405877,
  "gasLimit": {
    "_hex": "0x150c5e"
  },
  "gasUsed": {
    "_hex": "0xf4240"
  },
  "miner": "0x400fb5A6482E54E44b2250E75251707514c605C1",
  "extraData": "0x476574682f76312e302e312f77696e646f77732f676f312e342e32",
  "transactions": [
    {
      "hash": "0xe719f8a3f3bce9c75ff66bb356f96e30d9728ffe26c2691a8291114ec19cc489",
      "blockHash": "0xb00e1b2af1ca21a6d1fae5059694250d6edc7247d20ff3bfc7570d3905b64629",
      "blockNumber": 52533,
      "transactionIndex": 0,
      "confirmations": null,
      "from": "0x54dAeb3E8a6BBC797E4aD2b0339f134b186e4637",
      "gasPrice": {
        "_hex": "0xe7d27df17"
      },
      "gasLimit": {
        "_hex": "0x7a120"
      },
      "to": "0xBAA54d6E90c3F4d7Ebec11bD180134C7eD8eBb52",
      "value": {
        "_hex": "0x16345785d8a0000"
      },
      "nonce": 679,
      "data": "0x",
      "r": "0x2041162006e7c2e236380fb721fc524e0a2d53a3d3a48910a25ab28bbfb853d4",
      "s": "0x0cd358460a543274128053e9ef8fb205cc48e1bb9657db5f89e3255fe9e0c73f",
      "v": 27,
      "creates": null,
      "raw": "0xf86f8202a7850e7d27df178307a12094baa54d6e90c3f4d7ebec11bd180134c7ed8ebb5288016345785d8a0000801ba02041162006e7c2e236380fb721fc524e0a2d53a3d3a48910a25ab28bbfb853d4a00cd358460a543274128053e9ef8fb205cc48e1bb9657db5f89e3255fe9e0c73f",
      "networkId": 0,
      "chainId": 0
    },
    {
      "hash": "0x30ee7a20f69e77ade8275af3d29c47b32d3a4dca66b2828950b03208f18cbf56",
      "blockHash": "0xb00e1b2af1ca21a6d1fae5059694250d6edc7247d20ff3bfc7570d3905b64629",
      "blockNumber": 52533,
      "transactionIndex": 1,
      "confirmations": null,
      "from": "0x54dAeb3E8a6BBC797E4aD2b0339f134b186e4637",
      "gasPrice": {
        "_hex": "0xe7d27df17"
      },
      "gasLimit": {
        "_hex": "0x7a120"
      },
      "to": "0xBAA54d6E90c3F4d7Ebec11bD180134C7eD8eBb52",
      "value": {
        "_hex": "0x16345785d8a0000"
      },
      "nonce": 680,
      "data": "0x",
      "r": "0x94e1e3ef03f017dc12fc0cadb9d0ff334c80ef96e184d8dc59abca8c5e7f1b35",
      "s": "0x5bf24a90354464f43cfdda08e797a7e1cd586b08cd5ac1d323aecec4f3f7fff1",
      "v": 28,
      "creates": null,
      "raw": "0xf86f8202a8850e7d27df178307a12094baa54d6e90c3f4d7ebec11bd180134c7ed8ebb5288016345785d8a0000801ca094e1e3ef03f017dc12fc0cadb9d0ff334c80ef96e184d8dc59abca8c5e7f1b35a05bf24a90354464f43cfdda08e797a7e1cd586b08cd5ac1d323aecec4f3f7fff1",
      "networkId": 0,
      "chainId": 0
    }
  ]
}