{
  "hash": "0x6358edaaf13a046d1e214949985d928a8f88f94ff6d82cf619e225f706a4a5f6",
  "parentHash": "0x14e5f3130d9b06585bbce146bc4c71ef412a0e4e65244033833ffba2b27bc2a1",
  "number": 90688,
  "timestamp": 1439644023,
  "nonce": "0x31f567b29dc44443",
  "difficulty": 3357864961260,
  "gasLimit": {
    "_hex": "0x2fefd8"
  },
  "gasUsed": {
    "_hex": "0x5208"
  },
  "miner": "0x790b8a3cE86E707ED0eD32bF89B3269692a23CC1",
  "extraData": "0xd783010001844765746887676f312e342e32856c696e7578",
  "transactions": [
    {
      "hash": "0xd1d1f35c9f42509edcb87f8a9213cd7f1ed03ad3953903595c6501f51eaac014",
      "blockHash": "0x6358edaaf13a046d1e214949985d928a8f88f94ff6d82cf619e225f706a4a5f6",
      "blockNumber": 90688,
      "transactionIndex": 0,
      "confirmations": null,
      "from": "0x32Be343B94f860124dC4fEe278FDCBD38C102D88",
      "gasPrice": {
        "_hex": "0xcdc1d134a"
      },
      "gasLimit": {
        "_hex": "0x5208"
      },
      "to": "0x5F28bcc5faFC8982536A9e4be559657998CdE1E3",
      "value": {
        "_hex": "0xc52c01dcb436e0000"
      },
      "nonce": 860,
      "data": "0x",
      "r": "0xede7ff80563542b2174878098b36a99a5070f5d7719224e0684cfc7af10cde40",
      "s": "0x1b8e815b5cc27056f7afa66c64d36ea0b1ad25f1743a8e68dd78169154159338",
      "v": 27,
      "creates": null,
      "raw": "0xf86f82035c850cdc1d134a825208945f28bcc5fafc8982536a9e4be559657998cde1e3890c52c01dcb436e0000801ba0ede7ff80563542b2174878098b36a99a5070f5d7719224e0684cfc7af10cde40a01b8e815b5cc27056f7afa66c64d36ea0b1ad25f1743a8e68dd78169154159338",
      "networkId": 0,
      "chainId": 0
    }
  ]
}