{
  "hash": "0x46bc7d8e12f59db49e16dcd43b69670e9cd2f1de2841a40977fc530c9c1319c8",
  "parentHash": "0xc2699ba72cfc2a642e57d0ecdb5eaba6501bab4db9a699536ab3e1befa19fa11",
  "number": 112718,
  "timestamp": 1440011960,
  "nonce": "0x6e961e296ac4b47c",
  "difficulty": 4432450638098,
  "gasLimit": {
    "_hex": "0x2fefd8"
  },
  "gasUsed": {
    "_hex": "0x14820"
  },
  "miner": "0xe6A7a1d47ff21B6321162AEA7C6CB457D5476Bca",
  "extraData": "0x476574682f76312e302e312d38326566323666362f6c696e75782f676f312e34",
  "transactions": [
    {
      "hash": "0xc32c5ed5e74cbd791de9469fc6f92d2b08073685ac76aae104d7804659130f3f",
      "blockHash": "0x46bc7d8e12f59db49e16dcd43b69670e9cd2f1de2841a40977fc530c9c1319c8",
      "blockNumber": 112718,
      "transactionIndex": 0,
      "confirmations": null,
      "from": "0xf79785E5a846aCea08F94379fCCe79B1054bDB99",
      "gasPrice": {
        "_hex": "0xdca7aaa4b"
      },
      "gasLimit": {
        "_hex": "0x5208"
      },
      "to": "0x32Be343B94f860124dC4fEe278FDCBD38C102D88",
      "value": {
        "_hex": "0x84fef32c9b439000"
      },
      "nonce": 15,
      "data": "0x",
      "r": "0xc8e7d9ec01c3726ae6889ece1ccc8f9450be6fc36034dfccf89a0406e1eca0a3",
      "s": "0x5be4ee6e81299d4d0c8fff6015b67ad43df97c71489951ddc3e7fd20b39b366d",
      "v": 28,
      "creates": null,
      "raw": "0xf86c0f850dca7aaa4b8252089432be343b94f860124dc4fee278fdcbd38c102d888884fef32c9b439000801ca0c8e7d9ec01c3726ae6889ece1ccc8f9450be6fc36034dfccf89a0406e1eca0a3a05be4ee6e81299d4d0c8fff6015b67ad43df97c71489951ddc3e7fd20b39b366d",
      "networkId": 0,
      "chainId": 0
    },
    {
      "hash": "0x2405dfd5614922951c067253725c9d793513cc9c1ecf9b84d7b717fc7b97269d",
      "blockHash": "0x46bc7d8e12f59db49e16dcd43b69670e9cd2f1de2841a40977fc530c9c1319c8",
      "blockNumber": 112718,
      "transactionIndex": 1,
      "confirmations": null,
      "from": "0xc544B25bb91b87e380dda392687c6216b0260671",
      "gasPrice": {
        "_hex": "0xdca7aaa4b"
      },
      "gasLimit": {
        "_hex": "0x5208"
      },
      "to": "0x32Be343B94f860124dC4fEe278FDCBD38C102D88",
      "value": {
        "_hex": "0xefa60f5e8f0bc00"
      },
      "nonce": 11,
      "data": "0x",
      "r": "0x2c633677956d22af405a3f3edf521a83530e32dab513a6a88d9c84d561940187",
      "s": "0x4e220f446fcf37017c4c17b07918451b63cf0600846d6b5c7a809606ff6488ca",
      "v": 27,
      "creates": null,
      "raw": "0xf86c0b850dca7aaa4b8252089432be343b94f860124dc4fee278fdcbd38c102d88880efa60f5e8f0bc00801ba02c633677956d22af405a3f3edf521a83530e32dab513a6a88d9c84d561940187a04e220f446fcf37017c4c17b07918451b63cf0600846d6b5c7a809606ff6488ca",
      "networkId": 0,
      "chainId": 0
    },
    {
      "hash": "0x7e3037db90e0b2ab7e65b08a6880d7e60c1c6480323f14d7ae1d8dc72f89c046",
      "blockHash": "0x46bc7d8e12f59db49e16dcd43b69670e9cd2f1de2841a40977fc530c9c1319c8",
      "blockNumber": 112718,
      "transactionIndex": 2,
      "confirmations": null,
      "from": "0x7CabE4dE323c392C7135680c61a04d5Eb7519897",
      "gasPrice": {
        "_hex": "0xdca7aaa4b"
      },
      "gasLimit": {
        "_hex": "0x5208"
      },
      "to": "0x32Be343B94f860124dC4fEe278FDCBD38C102D88",
      "value": {
        "_hex": "0x549638f72fa58800"
      },
      "nonce": 8,
      "data": "0x",
      "r": "0x5922f526c4889fbe3ef29da3cdd3d472bf7ca3ca5a55259e6a544d61c923bb9c",
      "s": "0x781f3411b3de1babc01da96150e5d8bc7e46b9917ce706985f369ffcb96cf6da",
      "v": 28,
      "creates": null,
      "raw": "0xf86c08850dca7aaa4b8252089432be343b94f860124dc4fee278fdcbd38c102d8888549638f72fa58800801ca05922f526c4889fbe3ef29da3cdd3d472bf7ca3ca5a55259e6a544d61c923bb9ca0781f3411b3de1babc01da96150e5d8bc7e46b9917ce706985f369ffcb96cf6da",
      "networkId": 0,
      "chainId": 0
    },
    {
      "hash": "0x2e612734bd1c700a80773200c109f6f06918ce9b46921b329c0142fda413c1df",
      "blockHash": "0x46bc7d8e12f59db49e16dcd43b69670e9cd2f1de2841a40977fc530c9c1319c8",
      "blockNumber": 112718,
      "transactionIndex": 3,
      "confirmations": null,
      "from": "0xBA7933704d52A3e7fdBb5B5deD29e45213EA1111",
      "gasPrice": {
        "_hex": "0xdca7aaa4b"
      },
      "gasLimit": {
        "_hex": "0x5208"
      },
      "to": "0x32Be343B94f860124dC4fEe278FDCBD38C102D88",
      "value": {
        "_hex": "0x15321104947116000"
      },
      "nonce": 9,
      "data": "0x",
      "r": "0x978278301a13fb47c080e2c4bc38410445fe63b039fb754bf8b76a372e0043e4",
      "s": "0x627d4c53dc265b272ea333827220274230d622488eed7c1be7ca3108ddcec09c",
      "v": 28,
      "creates": null,
      "raw": "0xf86d09850dca7aaa4b8252089432be343b94f860124dc4fee278fdcbd38c102d8889015321104947116000801ca0978278301a13fb47c080e2c4bc38410445fe63b039fb754bf8b76a372e0043e4a0627d4c53dc265b272ea333827220274230d622488eed7c1be7ca3108ddcec09c",
      "networkId": 0,
      "chainId": 0
    }
  ]
}