{
  "hash": "0xc4453fd223d01abe9878e58bf35833fd43b8749d6a031059623ac28b7ff5b464",
  "parentHash": "0x9d5931369e4a1ec00cc6bb4f2a6bcf9dba43e038815bdb65579273100dd372bd",
  "number": 118282,
  "timestamp": 1440123455,
  "nonce": "0x03db9c698011434f",
  "difficulty": 4314244198399,
  "gasLimit": {
    "_hex": "0x2fefd8"
  },
  "gasUsed": {
    "_hex": "0x5208"
  },
  "miner": "0x88D74a59454F6cF3B51ef6b9136AFb6b9D405A88",
  "extraData": "0x",
  "transactions": [
    {
      "hash": "0x5a18169dd04e757fc077847240c347d577b9c2f02f100881c0d29ccc3f0f6458",
      "blockHash": "0xc4453fd223d01abe9878e58bf35833fd43b8749d6a031059623ac28b7ff5b464",
      "blockNumber": 118282,
      "transactionIndex": 0,
      "confirmations": null,
      "from": "0x007f7f58D3eb5b7510A301eCC749FC1fCDDBE14D",
      "gasPrice": {
        "_hex": "0xba43b7400"
      },
      "gasLimit": {
        "_hex": "0x15f90"
      },
      "to": "0xb1abce2918E21ddb93AA452731a12672A3d9F75a",
      "value": {
        "_hex": "0x4563918244f40000"
      },
      "nonce": 338,
      "data": "0x",
      "r": "0xa4b3ced4633081ca0e38c7ed078d1ee5cb099d5611daf67e84da6471f96f055e",
      "s": "0x2f0c651bab10565b0a0025900160f807ca9ae4a58cb03176ccfb5cd79c914c44",
      "v": 28,
      "creates": null,
      "raw": "0xf86f820152850ba43b740083015f9094b1abce2918e21ddb93aa452731a12672a3d9f75a884563918244f40000801ca0a4b3ced4633081ca0e38c7ed078d1ee5cb099d5611daf67e84da6471f96f055ea02f0c651bab10565b0a0025900160f807ca9ae4a58cb03176ccfb5cd79c914c44",
      "networkId": 0,
      "chainId": 0
    }
  ]
}