{
  "hash": "0x4a79f4f3f1f95db41d09d3d9cb1b30cfa966acefd9e29e315e1a89d9d953a5bf",
  "parentHash": "0x402ddaca407764fbff84628fb4684b7c5247798a5c015942674c74ba606e7dfd",
  "number": 48666,
  "timestamp": 1438960660,
  "nonce": "0x89427149c65b7ae3",
  "difficulty": 1475749880718,
  "gasLimit": {
    "_hex": "0x1b9c8"
  },
  "gasUsed": {
    "_hex": "0x5d30"
  },
  "miner": "0xbb7B8287f3F0a933474a79eAe42CBCa977791171",
  "extraData": "0x476574682f4c5649562f76312e302e312f6c696e75782f676f312e342e32",
  "transactions": [
    {
      "hash": "0x2f59f5283d57ed180d46396dd989e7d169cd544520a49116c233d13f466f8165",
      "blockHash": "0x4a79f4f3f1f95db41d09d3d9cb1b30cfa966acefd9e29e315e1a89d9d953a5bf",
      "blockNumber": 48666,
      "transactionIndex": 0,
      "confirmations": null,
      "from": "0xf06A854a3c5Dc36d1C49F4c87D6Db333b57E4ADD",
      "gasPrice": {
        "_hex": "0xdc61eec89"
      },
      "gasLimit": {
        "_hex": "0x15f90"
      },
      "to": "0x2910543Af39abA0Cd09dBb2D50200b3E800A63D2",
      "value": {
        "_hex": "0x4563918244f40000"
      },
      "nonce": 0,
      "data": "0x307866303661383534613363356463333664316334396634633837643664623333336235376534616464",
      "r": "0xae1f1088b9399786afd8c4b4d861a5310b84d570ab01f5b08377f7784cee99ad",
      "s": "0x18e619bb3431615c4a7eea96627f8b1611f5e2420025c14a545a0d6a503cfc0d",
      "v": 28,
      "creates": null,
      "raw": "0xf89780850dc61eec8983015f90942910543af39aba0cd09dbb2d50200b3e800a63d2884563918244f40000aa3078663036613835346133633564633336643163343966346338376436646233333362353765346164641ca0ae1f1088b9399786afd8c4b4d861a5310b84d570ab01f5b08377f7784cee99ada018e619bb3431615c4a7eea96627f8b1611f5e2420025c14a545a0d6a503cfc0d",
      "networkId": 0,
      "chainId": 0
    }
  ]
}