{
  "hash": "0x5a2704f4d0e1992c3d52a5cfdfb2e1f11730ec2dfcadcbd89413de465a10d34b",
  "parentHash": "0x5de3df7294759e97cbc1bd17cff201bd3213e2462bd33dd60fb8cbb140b3f9fd",
  "number": 99019,
  "timestamp": 1439782891,
  "nonce": "0xd23709f08451d054",
  "difficulty": 3832866677169,
  "gasLimit": {
    "_hex": "0x2fefd8"
  },
  "gasUsed": {
    "_hex": "0x5208"
  },
  "miner": "0x5F8F73E26CdF436f19Cb24C82F90A15AFe55b592",
  "extraData": "0x476574682f76312e302e312f77696e646f77732f676f312e342e32",
  "transactions": [
    {
      "hash": "0x3c3e79fcdb532cad0160fdff7e95d6571f6f01b3d43499e9df96feb2049eed1e",
      "blockHash": "0x5a2704f4d0e1992c3d52a5cfdfb2e1f11730ec2dfcadcbd89413de465a10d34b",
      "blockNumber": 99019,
      "transactionIndex": 0,
      "confirmations": null,
      "from": "0x9Fa9952255B2b06639A04D63804d4BdFFf6E2d7e",
      "gasPrice": {
        "_hex": "0xda53818fe"
      },
      "gasLimit": {
        "_hex": "0x15f90"
      },
      "to": "0xE12517204a15E890f12755207271102F4800A0c4",
      "value": {
        "_hex": "0x56bc75e2d63100000"
      },
      "nonce": 13,
      "data": "0x",
      "r": "0xec8da53400fb211d783e63a1af0eaa94a0f7ac76d0b3162fd38551b429496953",
      "s": "0x491384bc27a7ce059295c2dc8c8bdf025a5b1a9983726a783b060f3ee82c7055",
      "v": 28,
      "creates": null,
      "raw": "0xf86e0d850da53818fe83015f9094e12517204a15e890f12755207271102f4800a0c489056bc75e2d63100000801ca0ec8da53400fb211d783e63a1af0eaa94a0f7ac76d0b3162fd38551b429496953a0491384bc27a7ce059295c2dc8c8bdf025a5b1a9983726a783b060f3ee82c7055",
      "networkId": 0,
      "chainId": 0
    }
  ]
}