{
  "hash": "0x593c6f1e5582de1dd83889466738ebc5125a10cccb755d992d5f10093c9d2dd6",
  "parentHash": "0x3108dad4ac3cb5dfed4772008ec7728f82d75bbcc7ebb75927578d6d9f9ecbe9",
  "number": 71083,
  "timestamp": 1439330388,
  "nonce": "0xa64ecfbab9bfeeaf",
  "difficulty": 2150904605876,
  "gasLimit": {
    "_hex": "0x2fefd8"
  },
  "gasUsed": {
    "_hex": "0x5208"
  },
  "miner": "0x47ff6576639c2e94762eA5443978D7681C0E78DC",
  "extraData": "0x476574682f76312e302e312f6c696e75782f676f312e342e32",
  "transactions": [
    {
      "hash": "0x1de6fe56181be386ae6c60ae3a89b96bf8296718d9e7725e678f167721a698e9",
      "blockHash": "0x593c6f1e5582de1dd83889466738ebc5125a10cccb755d992d5f10093c9d2dd6",
      "blockNumber": 71083,
      "transactionIndex": 0,
      "confirmations": null,
      "from": "0xb0DBD02650b659f9B8b02E77cf0481aA6b3Ff9f8",
      "gasPrice": {
        "_hex": "0xcc3ebe0ea"
      },
      "gasLimit": {
        "_hex": "0x15f90"
      },
      "to": "0x315d39Cc5aE29d5d2344E05133c9a2D567a9a5f4",
      "value": {
        "_hex": "0x3636be1b024dbc6fc0"
      },
      "nonce": 0,
      "data": "0x",
      "r": "0x497af66a3df60421952364e5d9513fbac779c4f4bed22e55989fd6a1ccec4d44",
      "s": "0x08425ffd55517dcc8f37f1b61ad3d02d5a0959d77853cb7fd51cdecd282c9ab2",
      "v": 28,
      "creates": null,
      "raw": "0xf86e80850cc3ebe0ea83015f9094315d39cc5ae29d5d2344e05133c9a2d567a9a5f4893636be1b024dbc6fc0801ca0497af66a3df60421952364e5d9513fbac779c4f4bed22e55989fd6a1ccec4d44a008425ffd55517dcc8f37f1b61ad3d02d5a0959d77853cb7fd51cdecd282c9ab2",
      "networkId": 0,
      "chainId": 0
    }
  ]
}