{
  "hash": "0x8a5af1aa0d48d1bce2cf93b999f0219b42bbec051a212d6de2bac4034658e4a6",
  "parentHash": "0xa409b2e0cf6c7214f186855389a0f2a0d9a724af189e973772a337a483351007",
  "number": 60430,
  "timestamp": 1439155543,
  "nonce": "0x487916139044f7db",
  "difficulty": 1738118057225,
  "gasLimit": {
    "_hex": "0x2fefd8"
  },
  "gasUsed": {
    "_hex": "0x5208"
  },
  "miner": "0xEF247E639d49461D25F57e9362CadE3120910Ce0",
  "extraData": "0x476574682f76312e302e312f6c696e75782f676f312e342e32",
  "transactions": [
    {
      "hash": "0x00fcfa0fcae6367c79f221a4c9801e472bd9f6e4bbacb9dda45a19474c3f4a54",
      "blockHash": "0x8a5af1aa0d48d1bce2cf93b999f0219b42bbec051a212d6de2bac4034658e4a6",
      "blockNumber": 60430,
      "transactionIndex": 0,
      "confirmations": null,
      "from": "0xBeb3B1d443791e4B2207a9866800E02DAcF19c02",
      "gasPrice": {
        "_hex": "0xd686f21bd"
      },
      "gasLimit": {
        "_hex": "0x15f90"
      },
      "to": "0x5804baCD8DEC367de4137ffaD580997311841369",
      "value": {
        "_hex": "0x2386f26fc10000"
      },
      "nonce": 6,
      "data": "0x",
      "r": "0x5eec5143738aff1f2887557a82e51f013f848fbf2a151491eab460d5d640530d",
      "s": "0x22fca97761ed9ee860026f55b0779353f6fc395fe0139c35be0e58b624942e5b",
      "v": 27,
      "creates": null,
      "raw": "0xf86c06850d686f21bd83015f90945804bacd8dec367de4137ffad580997311841369872386f26fc10000801ba05eec5143738aff1f2887557a82e51f013f848fbf2a151491eab460d5d640530da022fca97761ed9ee860026f55b0779353f6fc395fe0139c35be0e58b624942e5b",
      "networkId": 0,
      "chainId": 0
    }
  ]
}