{
  "hash": "0x5fade3a07b019df43aff6af07dacf90368f72050540c50a8ceb742da033f08c2",
  "parentHash": "0x573a3098d59c5c30722623b34f6b33d00c332462c7bb276bee357e25281d3fe3",
  "number": 82210,
  "timestamp": 1439515387,
  "nonce": "0xbe8188bef5283b92",
  "difficulty": 2385819176651,
  "gasLimit": {
    "_hex": "0x2fefd8"
  },
  "gasUsed": {
    "_hex": "0x5208"
  },
  "miner": "0x31995C46B15C84523cDEE26f49A681b8237e43F5",
  "extraData": "0x476574682f76312e302e312f77696e646f77732f676f312e342e32",
  "transactions": [
    {
      "hash": "0x215f7b2ca7fde75d9f0dd00f68de17143dba4e9268828701c206d3b00f12627b",
      "blockHash": "0x5fade3a07b019df43aff6af07dacf90368f72050540c50a8ceb742da033f08c2",
      "blockNumber": 82210,
      "transactionIndex": 0,
      "confirmations": null,
      "from": "0x2910543Af39abA0Cd09dBb2D50200b3E800A63D2",
      "gasPrice": {
        "_hex": "0xd2a82e74c"
      },
      "gasLimit": {
        "_hex": "0x5208"
      },
      "to": "0x5140c73CF82b871927b782e5f55e7957ddD6D3f2",
      "value": {
        "_hex": "0x56bb59ab42b2f8000"
      },
      "nonce": 512,
      "data": "0x",
      "r": "0x32f9806c1bced8f7475e5c80fab1e6dcea546a0dbd8527dcbd13974f07b46167",
      "s": "0x2db6eae930baef3f62a9014ddff00be3eb19488fe83c2d7df6c100440ee91ba1",
      "v": 27,
      "creates": null,
      "raw": "0xf86f820200850d2a82e74c825208945140c73cf82b871927b782e5f55e7957ddd6d3f289056bb59ab42b2f8000801ba032f9806c1bced8f7475e5c80fab1e6dcea546a0dbd8527dcbd13974f07b46167a02db6eae930baef3f62a9014ddff00be3eb19488fe83c2d7df6c100440ee91ba1",
      "networkId": 0,
      "chainId": 0
    }
  ]
}