{
  "hash": "0x2cb675acb7be7383345c84bfb8710fbf4701dd690969efa1646c81d8d7bf4d23",
  "parentHash": "0x6b6b2ae70314271bbe6e8948b37ae79b04f70d6ae9bca2b271a508e08d1077a1",
  "number": 114228,
  "timestamp": 1440037040,
  "nonce": "0xbd7b72ec86a949c0",
  "difficulty": 4444655238134,
  "gasLimit": {
    "_hex": "0x2fefd8"
  },
  "gasUsed": {
    "_hex": "0x5208"
  },
  "miner": "0xe6A7a1d47ff21B6321162AEA7C6CB457D5476Bca",
  "extraData": "0x476574682f76312e302e312d38326566323666362f6c696e75782f676f312e34",
  "transactions": [
    {
      "hash": "0xbc5e8618b5fd6e05a6c39750adb6da59682ac1446a037ade217a5dcd42f4a816",
      "blockHash": "0x2cb675acb7be7383345c84bfb8710fbf4701dd690969efa1646c81d8d7bf4d23",
      "blockNumber": 114228,
      "transactionIndex": 0,
      "confirmations": null,
      "from": "0x120A270bbC009644e35F0bB6ab13f95b8199c4ad",
      "gasPrice": {
        "_hex": "0xdc0a67979"
      },
      "gasLimit": {
        "_hex": "0x3d090"
      },
      "to": "0x8ccA54aC74e92Dd6eC2dCA0A0e20CE931B8338a1",
      "value": {
        "_hex": "0x4563918244f40000"
      },
      "nonce": 925,
      "data": "0x",
      "r": "0xbaee78226561c8cad6dda90bb61dd2835b2dbfce1ddd5b5c13ba6516973e054b",
      "s": "0x75807ef3e8d021d02adc56de4356a42b13b8803990a458b5cdceeadcecba2412",
      "v": 27,
      "creates": null,
      "raw": "0xf86f82039d850dc0a679798303d090948cca54ac74e92dd6ec2dca0a0e20ce931b8338a1884563918244f40000801ba0baee78226561c8cad6dda90bb61dd2835b2dbfce1ddd5b5c13ba6516973e054ba075807ef3e8d021d02adc56de4356a42b13b8803990a458b5cdceeadcecba2412",
      "networkId": 0,
      "chainId": 0
    }
  ]
}