{
  "hash": "0x77d51802ff8fa9d8d21bc10c118aca2e85f5dee9919acf737ef9887de8c0a020",
  "parentHash": "0x37d4079fd09042aa4b684cbaa5b09478857027ab8aa19cb9494f651bacc23f23",
  "number": 48634,
  "timestamp": 1438960164,
  "nonce": "0xe29c0199b51322be",
  "difficulty": 1471438334532,
  "gasLimit": {
    "_hex": "0x1b047"
  },
  "gasUsed": {
    "_hex": "0xa674"
  },
  "miner": "0x580992B51e3925e23280EfB93d3047C82f17E038",
  "extraData": "0x476574682f76312e302e312f6c696e75782f676f312e342e32",
  "transactions": [
    {
      "hash": "0xf4437794dc71633ae406bc3b3f4a574b88b82492f6dc3f371a5b175ef20c4678",
      "blockHash": "0x77d51802ff8fa9d8d21bc10c118aca2e85f5dee9919acf737ef9887de8c0a020",
      "blockNumber": 48634,
      "transactionIndex": 0,
      "confirmations": null,
      "from": "0x9C9F89a3910F6A2AE8a91047A17Ab788bDdEC170",
      "gasPrice": {
        "_hex": "0x110c8f7d8de"
      },
      "gasLimit": {
        "_hex": "0xc350"
      },
      "to": "0x2910543Af39abA0Cd09dBb2D50200b3E800A63D2",
      "value": {
        "_hex": "0x6c6b935b8bbd400000"
      },
      "nonce": 2,
      "data": "0x454e355255385a4730",
      "r": "0x7d985f1b5b6da8d961f84fd9694b94148d14b02bf91bc2f810f79609a12a86f6",
      "s": "0x6d38d8bb8643973c895a9bebaeaae3d8f59b69ea7b3df76e42f6dca76882a31a",
      "v": 28,
      "creates": null,
      "raw": "0xf87702860110c8f7d8de82c350942910543af39aba0cd09dbb2d50200b3e800a63d2896c6b935b8bbd40000089454e355255385a47301ca07d985f1b5b6da8d961f84fd9694b94148d14b02bf91bc2f810f79609a12a86f6a06d38d8bb8643973c895a9bebaeaae3d8f59b69ea7b3df76e42f6dca76882a31a",
      "networkId": 0,
      "chainId": 0
    },
    {
      "hash": "0xc782ead419d2698db84b6f5c96a69c23a73676086f5f39180c976f280d831972",
      "blockHash": "0x77d51802ff8fa9d8d21bc10c118aca2e85f5dee9919acf737ef9887de8c0a020",
      "blockNumber": 48634,
      "transactionIndex": 1,
      "confirmations": null,
      "from": "0xe6A7a1d47ff21B6321162AEA7C6CB457D5476Bca",
      "gasPrice": {
        "_hex": "0xe5782285e"
      },
      "gasLimit": {
        "_hex": "0x55f0"
      },
      "to": "0xC36668c8176255Da85D6949D7c719760D09E35Ee",
      "value": {
        "_hex": "0x5e1c90d0abb321080"
      },
      "nonce": 245,
      "data": "0x",
      "r": "0x60d2d3f2cfc0df7f9cac4c450994fcab2e14b17a293fc055047901b35eaaf6f0",
      "s": "0x439896b6a864eb484d8ae6e095ddbc6c02439768e30c5580bb432c019636a39f",
      "v": 27,
      "creates": null,
      "raw": "0xf86e81f5850e5782285e8255f094c36668c8176255da85d6949d7c719760d09e35ee8905e1c90d0abb321080801ba060d2d3f2cfc0df7f9cac4c450994fcab2e14b17a293fc055047901b35eaaf6f0a0439896b6a864eb484d8ae6e095ddbc6c02439768e30c5580bb432c019636a39f",
      "networkId": 0,
      "chainId": 0
    }
  ]
}