{
  "hash": "0xa7c7b0718e2a8e9d3be4f8208f24f7017a7dd2575551cfd4c9286d9de830e160",
  "parentHash": "0xf1627df97de2868352e0d350dc0518c97567e68dd359e837a719f769fbd84b59",
  "number": 95192,
  "timestamp": 1439720364,
  "nonce": "0x7a407b77323fcaeb",
  "difficulty": 3530888994773,
  "gasLimit": {
    "_hex": "0x2fefd8"
  },
  "gasUsed": {
    "_hex": "0x5208"
  },
  "miner": "0xe6A7a1d47ff21B6321162AEA7C6CB457D5476Bca",
  "extraData": "0x476574682f76312e302e312d38326566323666362f6c696e75782f676f312e34",
  "transactions": [
    {
      "hash": "0xc0e93acec432d7056c6a0635f4f6fd51b6961374caac05ada52e8cf89954371c",
      "blockHash": "0xa7c7b0718e2a8e9d3be4f8208f24f7017a7dd2575551cfd4c9286d9de830e160",
      "blockNumber": 95192,
      "transactionIndex": 0,
      "confirmations": null,
      "from": "0x48659D8f8C9A2FD44F68daA55d23A608FBE500DC",
      "gasPrice": {
        "_hex": "0xd289a4c1b"
      },
      "gasLimit": {
        "_hex": "0x15f90"
      },
      "to": "0xBB33a4b72d92FA335a3b591Ce7eE217f7a7338C1",
      "value": {
        "_hex": "0x134163e611dac0000"
      },
      "nonce": 7,
      "data": "0x",
      "r": "0x7abde76636b4054e7b27ba9cf380f3ac573e43572799a03fab3d41d83d2feb3f",
      "s": "0x5b9f5f9b8fa66c5b082265b436cc820a981b9cd77ba1f9560e4c6aedd341e187",
      "v": 28,
      "creates": null,
      "raw": "0xf86e07850d289a4c1b83015f9094bb33a4b72d92fa335a3b591ce7ee217f7a7338c1890134163e611dac0000801ca07abde76636b4054e7b27ba9cf380f3ac573e43572799a03fab3d41d83d2feb3fa05b9f5f9b8fa66c5b082265b436cc820a981b9cd77ba1f9560e4c6aedd341e187",
      "networkId": 0,
      "chainId": 0
    }
  ]
}