{
  "hash": "0x35684cd24f274b29fe1ca113b79c3fe96d5adfc05b71447299ee90d1e4cc22c2",
  "parentHash": "0x390c8d362193fe20c8f8d292b89fce9cb2119b23a993fc8b3c48e3d64d10fecb",
  "number": 62695,
  "timestamp": 1439192886,
  "nonce": "0x457da1a70636793e",
  "difficulty": 1767600164995,
  "gasLimit": {
    "_hex": "0x2fefd5"
  },
  "gasUsed": {
    "_hex": "0x5208"
  },
  "miner": "0xf927a40C8B7F6E07c5af7FA2155B4864a4112B13",
  "extraData": "0x476574682f76312e302e312f6c696e75782f676f312e342e32",
  "transactions": [
    {
      "hash": "0x2ff6d5bfe9d059e2e54b9e5732396b5ae654b5f3516a49c1c38e61857f8de759",
      "blockHash": "0x35684cd24f274b29fe1ca113b79c3fe96d5adfc05b71447299ee90d1e4cc22c2",
      "blockNumber": 62695,
      "transactionIndex": 0,
      "confirmations": null,
      "from": "0x458F183347F45a4001807728A89F31E9Da9D4A58",
      "gasPrice": {
        "_hex": "0xd30df79e3"
      },
      "gasLimit": {
        "_hex": "0x15f90"
      },
      "to": "0x7fa165177F28D171bA7C17f765c1904344Ec64CB",
      "value": {
        "_hex": "0x68155a43676e00000"
      },
      "nonce": 5,
      "data": "0x",
      "r": "0xf041735ba7f9770d7aab30674cc0f70eda3c37caa20be8d99d3465247a56d9a3",
      "s": "0x4c5fb4a46309f6b7e5941b8e319af06b3fbab27517f4e6796e7cbbbe9603d040",
      "v": 27,
      "creates": null,
      "raw": "0xf86e05850d30df79e383015f90947fa165177f28d171ba7c17f765c1904344ec64cb89068155a43676e00000801ba0f041735ba7f9770d7aab30674cc0f70eda3c37caa20be8d99d3465247a56d9a3a04c5fb4a46309f6b7e5941b8e319af06b3fbab27517f4e6796e7cbbbe9603d040",
      "networkId": 0,
      "chainId": 0
    }
  ]
}