{
  "hash": "0xc65f9b4f56cf22533a1da484bab5c780cc8ccc6ce6fdd60fb5a83386fb8c045b",
  "parentHash": "0x4a7348b1589404997169e40b3a5f857f7277fe7c4ad2dcb6e587e3c35a273476",
  "number": 122365,
  "timestamp": 1440193145,
  "nonce": "0x61d472badd463905",
  "difficulty": 4481732285749,
  "gasLimit": {
    "_hex": "0x2fefd8"
  },
  "gasUsed": {
    "_hex": "0x48c87"
  },
  "miner": "0x52bc44d5378309EE2abF1539BF71dE1b7d7bE3b5",
  "extraData": "0xd783010002844765746887676f312e342e32856c696e7578",
  "transactions": [
    {
      "hash": "0xc1ba2ccd66757c00291670a2897c36911a4d906f63ff5d31656a086962983c7c",
      "blockHash": "0xc65f9b4f56cf22533a1da484bab5c780cc8ccc6ce6fdd60fb5a83386fb8c045b",
      "blockNumber": 122365,
      "transactionIndex": 0,
      "confirmations": null,
      "from": "0x92F401191F869a2b5A76B2b0FB1E0d9D948a3f1d",
      "gasPrice": {
        "_hex": "0xba43b7400"
      },
      "gasLimit": {
        "_hex": "0x15f90"
      },
      "to": "0x267069452478cA39b3f5F1A4fFdD4131f50Bc977",
      "value": {
        "_hex": "0x62030a54ce3240000"
      },
      "nonce": 4,
      "data": "0x",
      "r": "0x303b09727ba12a4fb79a1efe888ab62ff3394c495478b99d993c9351bc3e424b",
      "s": "0x07deddb018d53328408613df2b3f3a2d12db8691ad02bb651afac14e31b94e16",
      "v": 28,
      "creates": null,
      "raw": "0xf86e04850ba43b740083015f9094267069452478ca39b3f5f1a4ffdd4131f50bc97789062030a54ce3240000801ca0303b09727ba12a4fb79a1efe888ab62ff3394c495478b99d993c9351bc3e424ba007deddb018d53328408613df2b3f3a2d12db8691ad02bb651afac14e31b94e16",
      "networkId": 0,
      "chainId": 0
    },
    {
      "hash": "0xd238d56eb5f08ca976ae9625720f070ce5a4f83aace61e866f9b804707f8f34a",
      "blockHash": "0xc65f9b4f56cf22533a1da484bab5c780cc8ccc6ce6fdd60fb5a83386fb8c045b",
      "blockNumber": 122365,
      "transactionIndex": 1,
      "confirmations": null,
      "from": "0x96AA9d72B4606B440Ef85352439AEC5Db106ddAD",
      "gasPrice": {
        "_hex": "0xba43b7400"
      },
      "gasLimit": {
        "_hex": "0x61a80"
      },
      "to": "0xDf415bb7AE2363ecbb6A595F07cBc2Fc0fD417D3",
      "value": {
        "_hex": "0x10a741a462780000"
      },
      "nonce": 4,
      "data": "0x",
      "r": "0x10d94f55062ac36ead9662acdc290bca33c99e7af29a5a27150adfe6aec232d8",
      "s": "0x4babf91cbb835a45cbe961cdf1fffc2d8ef3173380efebb1c13ab9b7fd037fe3",
      "v": 27,
      "creates": null,
      "raw": "0xf86d04850ba43b740083061a8094df415bb7ae2363ecbb6a595f07cbc2fc0fd417d38810a741a462780000801ba010d94f55062ac36ead9662acdc290bca33c99e7af29a5a27150adfe6aec232d8a04babf91cbb835a45cbe961cdf1fffc2d8ef3173380efebb1c13ab9b7fd037fe3",
      "networkId": 0,
      "chainId": 0
    }
  ]
}