{
  "hash": "0x82f6b759f38f694e62a49862714810ff672e67cbd70e2d0e399ba5618c1ddc1e",
  "parentHash": "0xca531d0ac26d58808b2407f5829d9bda673ba1cc264f8bf6c110b75b9b0d2945",
  "number": 119405,
  "timestamp": 1440142262,
  "nonce": "0x4d86528ac4cfdee6",
  "difficulty": 4409498386078,
  "gasLimit": {
    "_hex": "0x2fefd8"
  },
  "gasUsed": {
    "_hex": "0x13f389"
  },
  "miner": "0x52bc44d5378309EE2abF1539BF71dE1b7d7bE3b5",
  "extraData": "0xd783010002844765746887676f312e342e32856c696e7578",
  "transactions": [
    {
      "hash": "0x212170cbaf3f8cbca1017f88457be29796d6eaf822a01c317968fabd44f932e7",
      "blockHash": "0x82f6b759f38f694e62a49862714810ff672e67cbd70e2d0e399ba5618c1ddc1e",
      "blockNumber": 119405,
      "transactionIndex": 0,
      "confirmations": null,
      "from": "0x34C57A97dF78772fAc54FF75CeF9590457feE4D9",
      "gasPrice": {
        "_hex": "0xd683a8ae6"
      },
      "gasLimit": {
        "_hex": "0xf4240"
      },
      "to": null,
      "value": {
        "_hex": "0x0"
      },
      "nonce": 3,
      "data": "0x60606040526000600181905560025560008054600160a060020a031916331790556106788061002f6000396000f300606060405236156100565760e060020a600035046310e6e06c811461005857806318d9adab1461008f5780632afb2b9b146100b057806341c0e1b5146101735780638ebb4c151461019a578063c1e6adfd146101e4575b005b6102bb6004356024356001546000908210156105ce5782156105b257600180548252600360205260408220805490910190556105ce565b6102cd60043560046020526000908152604090206002810154600182019083565b60408051602060248035600481810135601f81018590048502860185019096528585526102bb959035946044949093929092019181908401838280828437505060408051602097356004810135601f81018a90048a0283018a01909352828252969760649791965060249190910194509092508291508401838280828437509495359450505050506000600085118015610166575060015485101580610166575060015481526003602052604081206004015481145b1561048857506000610480565b610056600054600160a060020a033381169116141561045157600054600160a060020a0316ff5b60036020819052600480356000908152604090206001810154815492820154600583015460068401546007850154610379979495600281019501939291600160a060020a03169088565b6040805160206004803590810135601f81018390048302840183019094528383526102bb93602493929184019181908401838280828437505060408051602088356004810135601f81018390048302840183019094528383529798604498929750919091019450909250829150840183828082843750949550505050505060025460009081526004602090815260408220845181548183558285528385209293601f9190910181900483019290870182156105d8579182015b828111156105d857825182600050559160200191906001019061029d565b60408051918252519081900360200190f35b604051808060200180602001848152602001838103835286818154815260200191508054801561032257820191906000526020600020905b81548152906001019060200180831161030557829003601f168201915b5050838103825285818154815260200191508054801561036757820191906000526020600020905b81548152906001019060200180831161034a57829003601f168201915b50509550505050505060405180910390f35b60405180898152602001888152602001806020018060200187815260200186815260200185600160a060020a0316815260200184815260200183810383528981815481526020019150805480156103f557820191906000526020600020905b8154815290600101906020018083116103d857829003601f168201915b5050838103825288818154815260200191508054801561043a57820191906000526020600020905b81548152906001019060200180831161041d57829003601f168201915b50509a505050505050505050505060405180910390f35b565b505084600014156104765760015460009081526003602052604090206007018290555b5060018054810181555b949350505050565b6001546000908152600360209081526040822086516002919091018054828255818552938390209093601f01839004810192880182156104e4579182015b828111156104e45782518260005055916020019190600101906104c6565b506105009291505b808211156105a257600081556001016104ec565b50506001805460009081526003602081815260408084206005018a905584548452808420426004919091015584548452808420600601805473ffffffffffffffffffffffffffffffffffffffff19163317905593548352928220865191018054828255818452928490209093601f93909301839004810192870182156105a6579182015b828111156105a6578251826000505591602001919060010190610584565b5090565b506104539291506104ec565b6001805460009081526003602052604090208101805490910190555b5060015b92915050565b506105e49291506104ec565b50506002546000908152600460209081526040822084516001919091018054828255818552938390209093601f0183900481019286018215610642579182015b82811115610642578251826000505591602001919060010190610624565b5061064e9291506104ec565b505060028054600090815260046020526040902042908201558054600190810190915590506105d256",
      "r": "0x27b607289587b8932112f6c241f85f5814893a94433b718611be5204031c6db8",
      "s": "0x0e949afe6df8913cb8a716e6322d84bd862c27c311559c362acf56afafba03b4",
      "v": 28,
      "creates": "0x108645f0CF8df0369bb718bC341E1Fe9Aa08EA0d",
      "raw": "0xf906fa03850d683a8ae6830f42408080b906a760606040526000600181905560025560008054600160a060020a031916331790556106788061002f6000396000f300606060405236156100565760e060020a600035046310e6e06c811461005857806318d9adab1461008f5780632afb2b9b146100b057806341c0e1b5146101735780638ebb4c151461019a578063c1e6adfd146101e4575b005b6102bb6004356024356001546000908210156105ce5782156105b257600180548252600360205260408220805490910190556105ce565b6102cd60043560046020526000908152604090206002810154600182019083565b60408051602060248035600481810135601f81018590048502860185019096528585526102bb959035946044949093929092019181908401838280828437505060408051602097356004810135601f81018a90048a0283018a01909352828252969760649791965060249190910194509092508291508401838280828437509495359450505050506000600085118015610166575060015485101580610166575060015481526003602052604081206004015481145b1561048857506000610480565b610056600054600160a060020a033381169116141561045157600054600160a060020a0316ff5b60036020819052600480356000908152604090206001810154815492820154600583015460068401546007850154610379979495600281019501939291600160a060020a03169088565b6040805160206004803590810135601f81018390048302840183019094528383526102bb93602493929184019181908401838280828437505060408051602088356004810135601f81018390048302840183019094528383529798604498929750919091019450909250829150840183828082843750949550505050505060025460009081526004602090815260408220845181548183558285528385209293601f9190910181900483019290870182156105d8579182015b828111156105d857825182600050559160200191906001019061029d565b60408051918252519081900360200190f35b604051808060200180602001848152602001838103835286818154815260200191508054801561032257820191906000526020600020905b81548152906001019060200180831161030557829003601f168201915b5050838103825285818154815260200191508054801561036757820191906000526020600020905b81548152906001019060200180831161034a57829003601f168201915b50509550505050505060405180910390f35b60405180898152602001888152602001806020018060200187815260200186815260200185600160a060020a0316815260200184815260200183810383528981815481526020019150805480156103f557820191906000526020600020905b8154815290600101906020018083116103d857829003601f168201915b5050838103825288818154815260200191508054801561043a57820191906000526020600020905b81548152906001019060200180831161041d57829003601f168201915b50509a505050505050505050505060405180910390f35b565b505084600014156104765760015460009081526003602052604090206007018290555b5060018054810181555b949350505050565b6001546000908152600360209081526040822086516002919091018054828255818552938390209093601f01839004810192880182156104e4579182015b828111156104e45782518260005055916020019190600101906104c6565b506105009291505b808211156105a257600081556001016104ec565b50506001805460009081526003602081815260408084206005018a905584548452808420426004919091015584548452808420600601805473ffffffffffffffffffffffffffffffffffffffff19163317905593548352928220865191018054828255818452928490209093601f93909301839004810192870182156105a6579182015b828111156105a6578251826000505591602001919060010190610584565b5090565b506104539291506104ec565b6001805460009081526003602052604090208101805490910190555b5060015b92915050565b506105e49291506104ec565b50506002546000908152600460209081526040822084516001919091018054828255818552938390209093601f0183900481019286018215610642579182015b82811115610642578251826000505591602001919060010190610624565b5061064e9291506104ec565b505060028054600090815260046020526040902042908201558054600190810190915590506105d2561ca027b607289587b8932112f6c241f85f5814893a94433b718611be5204031c6db8a00e949afe6df8913cb8a716e6322d84bd862c27c311559c362acf56afafba03b4",
      "networkId": 0,
      "chainId": 0
    },
    {
      "hash": "0x2fbd99b7f6abdbd784a24aaf87502afa21ffeab4ad6af5def3ff8046928d4712",
      "blockHash": "0x82f6b759f38f694e62a49862714810ff672e67cbd70e2d0e399ba5618c1ddc1e",
      "blockNumber": 119405,
      "transactionIndex": 1,
      "confirmations": null,
      "from": "0x34C57A97dF78772fAc54FF75CeF9590457feE4D9",
      "gasPrice": {
        "_hex": "0xd55ba1bf9"
      },
      "gasLimit": {
        "_hex": "0xf4240"
      },
      "to": null,
      "value": {
        "_hex": "0x0"
      },
      "nonce": 4,
      "data": "0x6060604052600060016000505560006002600050555b33600060006101000a81548173ffffffffffffffffffffffffffffffffffffffff021916908302179055505b6109a6806100506000396000f30060606040523615610074576000357c01000000000000000000000000000000000000000000000000000000009004806310e6e06c1461007657806318d9adab146100a35780632afb2b9b1461016057806341c0e1b5146102175780638ebb4c1514610224578063c1e6adfd1461031a57610074565b005b61008d600480359060200180359060200150610863565b6040518082815260200191505060405180910390f35b6100b46004803590602001506108f4565b604051808060200180602001848152602001838103835286818154815260200191508054801561010957820191906000526020600020905b8154815290600101906020018083116100ec57829003601f168201915b5050838103825285818154815260200191508054801561014e57820191906000526020600020905b81548152906001019060200180831161013157829003601f168201915b50509550505050505060405180910390f35b6102016004803590602001803590602001906004018035906020019191908080601f01602080910402602001604051908101604052809392919081815260200183838082843782019150505050505090803590602001906004018035906020019191908080601f01602080910402602001604051908101604052809392919081815260200183838082843782019150505050505090803590602001506105e1565b6040518082815260200191505060405180910390f35b6102226004506103c5565b005b610235600480359060200150610928565b6040518089815260200188815260200180602001806020018781526020018681526020018573ffffffffffffffffffffffffffffffffffffffff16815260200184815260200183810383528981815481526020019150805480156102be57820191906000526020600020905b8154815290600101906020018083116102a157829003601f168201915b5050838103825288818154815260200191508054801561030357820191906000526020600020905b8154815290600101906020018083116102e657829003601f168201915b50509a505050505050505050505060405180910390f35b6103af6004803590602001906004018035906020019191908080601f01602080910402602001604051908101604052809392919081815260200183838082843782019150505050505090803590602001906004018035906020019191908080601f0160208091040260200160405190810160405280939291908181526020018383808284378201915050505050509050610459565b6040518082815260200191505060405180910390f35b600060009054906101000a900473ffffffffffffffffffffffffffffffffffffffff1673ffffffffffffffffffffffffffffffffffffffff163373ffffffffffffffffffffffffffffffffffffffff16141561045657600060009054906101000a900473ffffffffffffffffffffffffffffffffffffffff1673ffffffffffffffffffffffffffffffffffffffff16ff5b5b565b600082600460005060006002600050548152602001908152602001600020600050600001600050908051906020019082805482825590600052602060002090601f016020900481019282156104cb579182015b828111156104ca5782518260005055916020019190600101906104ac565b5b5090506104f691906104d8565b808211156104f257600081815060009055506001016104d8565b5090565b505081600460005060006002600050548152602001908152602001600020600050600101600050908051906020019082805482825590600052602060002090601f01602090048101928215610568579182015b82811115610567578251826000505591602001919060010190610549565b5b5090506105939190610575565b8082111561058f5760008181506000905550600101610575565b5090565b505042600460005060006002600050548152602001908152602001600020600050600201600050819055506002600081815054809291906001019190505550600190506105db565b92915050565b60006000851180156106275750600160005054851015806106265750600060036000506000600160005054815260200190815260200160002060005060040160005054145b5b15610635576000905061085b565b83600360005060006001600050548152602001908152602001600020600050600201600050908051906020019082805482825590600052602060002090601f016020900481019282156106a5579182015b828111156106a4578251826000505591602001919060010190610686565b5b5090506106d091906106b2565b808211156106cc57600081815060009055506001016106b2565b5090565b5050846003600050600060016000505481526020019081526020016000206000506005016000508190555042600360005060006001600050548152602001908152602001600020600050600401600050819055503360036000506000600160005054815260200190815260200160002060005060060160006101000a81548173ffffffffffffffffffffffffffffffffffffffff0219169083021790555082600360005060006001600050548152602001908152602001600020600050600301600050908051906020019082805482825590600052602060002090601f016020900481019282156107de579182015b828111156107dd5782518260005055916020019190600101906107bf565b5b50905061080991906107eb565b8082111561080557600081815060009055506001016107eb565b5090565b5050600085141561083e5781600360005060006001600050548152602001908152602001600020600050600701600050819055505b60016000818150548092919060010191905055506001905061085b565b949350505050565b60006001600050548210156108e55782156108b0576003600050600060016000505481526020019081526020016000206000506000016000818150548092919060010191905055506108e4565b6003600050600060016000505481526020019081526020016000206000506001016000818150548092919060010191905055505b5b600190506108ee565b92915050565b6004600050602052806000526040600020600091509050806000016000509080600101600050908060020160005054905083565b6003600050602052806000526040600020600091509050806000016000505490806001016000505490806002016000509080600301600050908060040160005054908060050160005054908060060160009054906101000a900473ffffffffffffffffffffffffffffffffffffffff1690806007016000505490508856",
      "r": "0x4a1ed2fb7e502000fc512c784e8a27c8af62b36e2cf1afd5cfdbb1b71a0ba947",
      "s": "0x476c9bde236367d3205942860cea97331e2985f39da09b4f0edc162a563fa8a3",
      "v": 27,
      "creates": "0xFeca44bdcEF59D54e2545BDeb8029eAf26038153",
      "raw": "0xf90a4904850d55ba1bf9830f42408080b909f66060604052600060016000505560006002600050555b33600060006101000a81548173ffffffffffffffffffffffffffffffffffffffff021916908302179055505b6109a6806100506000396000f30060606040523615610074576000357c01000000000000000000000000000000000000000000000000000000009004806310e6e06c1461007657806318d9adab146100a35780632afb2b9b1461016057806341c0e1b5146102175780638ebb4c1514610224578063c1e6adfd1461031a57610074565b005b61008d600480359060200180359060200150610863565b6040518082815260200191505060405180910390f35b6100b46004803590602001506108f4565b604051808060200180602001848152602001838103835286818154815260200191508054801561010957820191906000526020600020905b8154815290600101906020018083116100ec57829003601f168201915b5050838103825285818154815260200191508054801561014e57820191906000526020600020905b81548152906001019060200180831161013157829003601f168201915b50509550505050505060405180910390f35b6102016004803590602001803590602001906004018035906020019191908080601f01602080910402602001604051908101604052809392919081815260200183838082843782019150505050505090803590602001906004018035906020019191908080601f01602080910402602001604051908101604052809392919081815260200183838082843782019150505050505090803590602001506105e1565b6040518082815260200191505060405180910390f35b6102226004506103c5565b005b610235600480359060200150610928565b6040518089815260200188815260200180602001806020018781526020018681526020018573ffffffffffffffffffffffffffffffffffffffff16815260200184815260200183810383528981815481526020019150805480156102be57820191906000526020600020905b8154815290600101906020018083116102a157829003601f168201915b5050838103825288818154815260200191508054801561030357820191906000526020600020905b8154815290600101906020018083116102e657829003601f168201915b50509a505050505050505050505060405180910390f35b6103af6004803590602001906004018035906020019191908080601f01602080910402602001604051908101604052809392919081815260200183838082843782019150505050505090803590602001906004018035906020019191908080601f0160208091040260200160405190810160405280939291908181526020018383808284378201915050505050509050610459565b6040518082815260200191505060405180910390f35b600060009054906101000a900473ffffffffffffffffffffffffffffffffffffffff1673ffffffffffffffffffffffffffffffffffffffff163373ffffffffffffffffffffffffffffffffffffffff16141561045657600060009054906101000a900473ffffffffffffffffffffffffffffffffffffffff1673ffffffffffffffffffffffffffffffffffffffff16ff5b5b565b600082600460005060006002600050548152602001908152602001600020600050600001600050908051906020019082805482825590600052602060002090601f016020900481019282156104cb579182015b828111156104ca5782518260005055916020019190600101906104ac565b5b5090506104f691906104d8565b808211156104f257600081815060009055506001016104d8565b5090565b505081600460005060006002600050548152602001908152602001600020600050600101600050908051906020019082805482825590600052602060002090601f01602090048101928215610568579182015b82811115610567578251826000505591602001919060010190610549565b5b5090506105939190610575565b8082111561058f5760008181506000905550600101610575565b5090565b505042600460005060006002600050548152602001908152602001600020600050600201600050819055506002600081815054809291906001019190505550600190506105db565b92915050565b60006000851180156106275750600160005054851015806106265750600060036000506000600160005054815260200190815260200160002060005060040160005054145b5b15610635576000905061085b565b83600360005060006001600050548152602001908152602001600020600050600201600050908051906020019082805482825590600052602060002090601f016020900481019282156106a5579182015b828111156106a4578251826000505591602001919060010190610686565b5b5090506106d091906106b2565b808211156106cc57600081815060009055506001016106b2565b5090565b5050846003600050600060016000505481526020019081526020016000206000506005016000508190555042600360005060006001600050548152602001908152602001600020600050600401600050819055503360036000506000600160005054815260200190815260200160002060005060060160006101000a81548173ffffffffffffffffffffffffffffffffffffffff0219169083021790555082600360005060006001600050548152602001908152602001600020600050600301600050908051906020019082805482825590600052602060002090601f016020900481019282156107de579182015b828111156107dd5782518260005055916020019190600101906107bf565b5b50905061080991906107eb565b8082111561080557600081815060009055506001016107eb565b5090565b5050600085141561083e5781600360005060006001600050548152602001908152602001600020600050600701600050819055505b60016000818150548092919060010191905055506001905061085b565b949350505050565b60006001600050548210156108e55782156108b0576003600050600060016000505481526020019081526020016000206000506000016000818150548092919060010191905055506108e4565b6003600050600060016000505481526020019081526020016000206000506001016000818150548092919060010191905055505b5b600190506108ee565b92915050565b6004600050602052806000526040600020600091509050806000016000509080600101600050908060020160005054905083565b6003600050602052806000526040600020600091509050806000016000505490806001016000505490806002016000509080600301600050908060040160005054908060050160005054908060060160009054906101000a900473ffffffffffffffffffffffffffffffffffffffff16908060070160005054905088561ba04a1ed2fb7e502000fc512c784e8a27c8af62b36e2cf1afd5cfdbb1b71a0ba947a0476c9bde236367d3205942860cea97331e2985f39da09b4f0edc162a563fa8a3",
      "networkId": 0,
      "chainId": 0
    },
    {
      "hash": "0xfac2359a1cbf1813215fd44b338cfe22e03fcd3d38c945d1ce3e6b34b967d7bd",
      "blockHash": "0x82f6b759f38f694e62a49862714810ff672e67cbd70e2d0e399ba5618c1ddc1e",
      "blockNumber": 119405,
      "transactionIndex": 2,
      "confirmations": null,
      "from": "0xE7dAdedf7cEBAaBa85903823D254601B1D459C9B",
      "gasPrice": {
        "_hex": "0xba43b7400"
      },
      "gasLimit": {
        "_hex": "0x5208"
      },
      "to": "0x32Be343B94f860124dC4fEe278FDCBD38C102D88",
      "value": {
        "_hex": "0x38442f0fedbeac00"
      },
      "nonce": 9,
      "data": "0x",
      "r": "0xb0b790a935f4e956ab747cc3f6c84cf83130f9b6bbfbc818b9ef3f3621927da8",
      "s": "0x5a59f03424193c09747f1c3f6a5d5f37b5f8cce7debafda389ff41addaec68bb",
      "v": 27,
      "creates": null,
      "raw": "0xf86c09850ba43b74008252089432be343b94f860124dc4fee278fdcbd38c102d888838442f0fedbeac00801ba0b0b790a935f4e956ab747cc3f6c84cf83130f9b6bbfbc818b9ef3f3621927da8a05a59f03424193c09747f1c3f6a5d5f37b5f8cce7debafda389ff41addaec68bb",
      "networkId": 0,
      "chainId": 0
    },
    {
      "hash": "0xdf2fc6fad9c9197fdd439c3779174e3fe74b6de27e5735c2fd3f8c1fb0fc47f9",
      "blockHash": "0x82f6b759f38f694e62a49862714810ff672e67cbd70e2d0e399ba5618c1ddc1e",
      "blockNumber": 119405,
      "transactionIndex": 3,
      "confirmations": null,
      "from": "0x3b09EfC81d5e3F72737B4063883CEDdfBc79ae88",
      "gasPrice": {
        "_hex": "0xba43b7400"
      },
      "gasLimit": {
        "_hex": "0x5208"
      },
      "to": "0x32Be343B94f860124dC4fEe278FDCBD38C102D88",
      "value": {
        "_hex": "0x2ee0ae93b819dc00"
      },
      "nonce": 11,
      "data": "0x",
      "r": "0xdea615a075174b82dcd6fa37d5edf72d1db63182b1729eaee2330d5ff47a85e2",
      "s": "0x2b8092819ef40e25c00cefc2df8b8fd24dbf833aa962efa60ab3a2ab7e211e97",
      "v": 28,
      "creates": null,
      "raw": "0xf86c0b850ba43b74008252089432be343b94f860124dc4fee278fdcbd38c102d88882ee0ae93b819dc00801ca0dea615a075174b82dcd6fa37d5edf72d1db63182b1729eaee2330d5ff47a85e2a02b8092819ef40e25c00cefc2df8b8fd24dbf833aa962efa60ab3a2ab7e211e97",
      "networkId": 0,
      "chainId": 0
    },
    {
      "hash": "0xea2eb843cb8ddd38f1755a6a049939b83f2f80588772e86af81b211e32d69b98",
      "blockHash": "0x82f6b759f38f694e62a49862714810ff672e67cbd70e2d0e399ba5618c1ddc1e",
      "blockNumber": 119405,
      "transactionIndex": 4,
      "confirmations": null,
      "from": "0x03bbfbb9d362b4B1C6a113BE654A0190Fc6aEa80",
      "gasPrice": {
        "_hex": "0xba43b7400"
      },
      "gasLimit": {
        "_hex": "0x5208"
      },
      "to": "0x32Be343B94f860124dC4fEe278FDCBD38C102D88",
      "value": {
        "_hex": "0x56423c7c3bb47800"
      },
      "nonce": 11,
      "data": "0x",
      "r": "0x6644d3bc885a2ca8702127ded56c1ffdd47928153d6f02d23f3a657eb06a408d",
      "s": "0x63650bcb50b9a1ea0b43a55c42cf1db434c17473fab67a43edd0e3540497f0a2",
      "v": 27,
      "creates": null,
      "raw": "0xf86c0b850ba43b74008252089432be343b94f860124dc4fee278fdcbd38c102d888856423c7c3bb47800801ba06644d3bc885a2ca8702127ded56c1ffdd47928153d6f02d23f3a657eb06a408da063650bcb50b9a1ea0b43a55c42cf1db434c17473fab67a43edd0e3540497f0a2",
      "networkId": 0,
      "chainId": 0
    },
    {
      "hash": "0x48c40222795a60749f8844add97fb6745bcd4cd12f747c48b54a9435917a684f",
      "blockHash": "0x82f6b759f38f694e62a49862714810ff672e67cbd70e2d0e399ba5618c1ddc1e",
      "blockNumber": 119405,
      "transactionIndex": 5,
      "confirmations": null,
      "from": "0x187b1f47Cd55b27878699DfCDCee2234cD49E97e",
      "gasPrice": {
        "_hex": "0xba43b7400"
      },
      "gasLimit": {
        "_hex": "0x5208"
      },
      "to": "0x32Be343B94f860124dC4fEe278FDCBD38C102D88",
      "value": {
        "_hex": "0x18a3c5f1fdcd7c000"
      },
      "nonce": 13,
      "data": "0x",
      "r": "0x51eb32b108b55038b4a916a0ab57a44fb3625a35fcbca05a4063209796ff1a6f",
      "s": "0x18607a6a47b15c58f548ab975b89989d99ad1cb0dc15577ad9c5f31a91af729b",
      "v": 27,
      "creates": null,
      "raw": "0xf86d0d850ba43b74008252089432be343b94f860124dc4fee278fdcbd38c102d8889018a3c5f1fdcd7c000801ba051eb32b108b55038b4a916a0ab57a44fb3625a35fcbca05a4063209796ff1a6fa018607a6a47b15c58f548ab975b89989d99ad1cb0dc15577ad9c5f31a91af729b",
      "networkId": 0,
      "chainId": 0
    },
    {
      "hash": "0x6b0c1d94e341264404351eae69f225c6515bc2ff56780c075f87e6951f5b6fb9",
      "blockHash": "0x82f6b759f38f694e62a49862714810ff672e67cbd70e2d0e399ba5618c1ddc1e",
      "blockNumber": 119405,
      "transactionIndex": 6,
      "confirmations": null,
      "from": "0xe6A7a1d47ff21B6321162AEA7C6CB457D5476Bca",
      "gasPrice": {
        "_hex": "0xba43b7400"
      },
      "gasLimit": {
        "_hex": "0x55f0"
      },
      "to": "0x3B399fF2b96F27056Ab8a7f6e028b0dBaF386279",
      "value": {
        "_hex": "0x9890f16724502b60"
      },
      "nonce": 6363,
      "data": "0x",
      "r": "0xf6ca0440672ee6b972ea5c40aab59623fc22de101b9bb109b6f25f2798a3d577",
      "s": "0x706913a7cafd30805835e90af55ac36edd490558fcea94c8eac6af2aaa7b636e",
      "v": 28,
      "creates": null,
      "raw": "0xf86e8218db850ba43b74008255f0943b399ff2b96f27056ab8a7f6e028b0dbaf386279889890f16724502b60801ca0f6ca0440672ee6b972ea5c40aab59623fc22de101b9bb109b6f25f2798a3d577a0706913a7cafd30805835e90af55ac36edd490558fcea94c8eac6af2aaa7b636e",
      "networkId": 0,
      "chainId": 0
    }
  ]
}