{
  "hash": "0x887e12bd0c13ec298b4fda3792f6c7871ac93850f38648a4e6cd769540ba67bc",
  "parentHash": "0x35a100c97f00a17e4c288527e3b990ab03fca310b262a5be412f14f3b9bb88ce",
  "number": 48503,
  "timestamp": 1438958262,
  "nonce": "0xb4b1966ce008d80f",
  "difficulty": 1462150563957,
  "gasLimit": {
    "_hex": "0x18549"
  },
  "gasUsed": {
    "_hex": "0x546c"
  },
  "miner": "0xf927a40C8B7F6E07c5af7FA2155B4864a4112B13",
  "extraData": "0x476574682f76312e302e312f6c696e75782f676f312e342e32",
  "transactions": [
    {
      "hash": "0x99d9711519477aa43ade199efaee8842b3f8725ba0d9a68f77657f6a71ace9e1",
      "blockHash": "0x887e12bd0c13ec298b4fda3792f6c7871ac93850f38648a4e6cd769540ba67bc",
      "blockNumber": 48503,
      "transactionIndex": 0,
      "confirmations": null,
      "from": "0xAae61E43CB0d0C96b30699F77E00D711d0a3979b",
      "gasPrice": {
        "_hex": "0xd85daf443"
      },
      "gasLimit": {
        "_hex": "0x15f90"
      },
      "to": "0x2910543Af39abA0Cd09dBb2D50200b3E800A63D2",
      "value": {
        "_hex": "0x4563918244f40000"
      },
      "nonce": 0,
      "data": "0x454e31584745364452",
      "r": "0x562ac6c0be1356de788f6ab1cec4d1eb3d56884a72d9936003d40c9186a8d5c3",
      "s": "0x1b9485677b1e827779c448922d52cae0e2306458fb53fd14beb1540557968a38",
      "v": 27,
      "creates": null,
      "raw": "0xf87680850d85daf44383015f90942910543af39aba0cd09dbb2d50200b3e800a63d2884563918244f4000089454e315847453644521ba0562ac6c0be1356de788f6ab1cec4d1eb3d56884a72d9936003d40c9186a8d5c3a01b9485677b1e827779c448922d52cae0e2306458fb53fd14beb1540557968a38",
      "networkId": 0,
      "chainId": 0
    }
  ]
}