{
  "hash": "0x550dd1f185a2ed9d4d37fd59a59b6806343519b40c3a351cbbcc483a19fd9127",
  "parentHash": "0xd47a253478d99a686cd9c857b874e64a7a5a513f67b8035c52ed11b4cc59d375",
  "number": 75014,
  "timestamp": 1439396168,
  "nonce": "0x318e0b2f18947778",
  "difficulty": 2191229625406,
  "gasLimit": {
    "_hex": "0x2fefd8"
  },
  "gasUsed": {
    "_hex": "0x5208"
  },
  "miner": "0xA1623430350C5df1b52B0b57483A5bb45d1796Da",
  "extraData": "0x476574682f76312e302e312d38326566323666362f6c696e75782f676f312e34",
  "transactions": [
    {
      "hash": "0xa7ea00f8645c1756490b3c828599bdc6aba2945fa45042ff07f29754ec33e7cc",
      "blockHash": "0x550dd1f185a2ed9d4d37fd59a59b6806343519b40c3a351cbbcc483a19fd9127",
      "blockNumber": 75014,
      "transactionIndex": 0,
      "confirmations": null,
      "from": "0x2910543Af39abA0Cd09dBb2D50200b3E800A63D2",
      "gasPrice": {
        "_hex": "0xd0d0ec11e"
      },
      "gasLimit": {
        "_hex": "0x5208"
      },
      "to": "0x326Be8F71bFb0379f989aAB1CC1fE37f0a771f60",
      "value": {
        "_hex": "0xe86fe8da1101a90000"
      },
      "nonce": 306,
      "data": "0x",
      "r": "0x922e5b8b2d8d4915ae23b3b19bd075fdc7e966ce0f6774ae46b2f045a63f915f",
      "s": "0x581c29dba0e8c28067117b5e14402e6630edd6e90f88501702924922b1cd3b6b",
      "v": 27,
      "creates": null,
      "raw": "0xf86f820132850d0d0ec11e82520894326be8f71bfb0379f989aab1cc1fe37f0a771f6089e86fe8da1101a90000801ba0922e5b8b2d8d4915ae23b3b19bd075fdc7e966ce0f6774ae46b2f045a63f915fa0581c29dba0e8c28067117b5e14402e6630edd6e90f88501702924922b1cd3b6b",
      "networkId": 0,
      "chainId": 0
    }
  ]
}