{
  "hash": "0x33265eb27e9434dedc5e542e05882264a18dee12e79c5d8619d72e9c36650d4e",
  "parentHash": "0x7999fa489f3c537a7aab233b240c4d1cbb898243c8a859e2f0e2ed68cfe6a314",
  "number": 105329,
  "timestamp": 1439885650,
  "nonce": "0x76f8e101251d8e4e",
  "difficulty": 4365445201480,
  "gasLimit": {
    "_hex": "0x2fefd8"
  },
  "gasUsed": {
    "_hex": "0xa410"
  },
  "miner": "0x31995C46B15C84523cDEE26f49A681b8237e43F5",
  "extraData": "0x476574682f76312e302e312f77696e646f77732f676f312e342e32",
  "transactions": [
    {
      "hash": "0x80cc269deaef6feb585f3baec88f352a34c2cbb86aa5c0b7432a335db34ea6b1",
      "blockHash": "0x33265eb27e9434dedc5e542e05882264a18dee12e79c5d8619d72e9c36650d4e",
      "blockNumber": 105329,
      "transactionIndex": 0,
      "confirmations": null,
      "from": "0xe6A7a1d47ff21B6321162AEA7C6CB457D5476Bca",
      "gasPrice": {
        "_hex": "0xd5e233934"
      },
      "gasLimit": {
        "_hex": "0x55f0"
      },
      "to": "0xeD3Fe86896534C24D9F91232faE34b78DFf3c1f4",
      "value": {
        "_hex": "0x83a5d440c644d8b0"
      },
      "nonce": 3849,
      "data": "0x",
      "r": "0xc489e35aea26b0efdfd97807d1ce7bbd84d574f47d5e9afedca46eca0a93068b",
      "s": "0x701eef9ab6533b026022a7f1929c4ddfa3ffad30d9c002146033ccbee21bbcb4",
      "v": 27,
      "creates": null,
      "raw": "0xf86e820f09850d5e2339348255f094ed3fe86896534c24d9f91232fae34b78dff3c1f48883a5d440c644d8b0801ba0c489e35aea26b0efdfd97807d1ce7bbd84d574f47d5e9afedca46eca0a93068ba0701eef9ab6533b026022a7f1929c4ddfa3ffad30d9c002146033ccbee21bbcb4",
      "networkId": 0,
      "chainId": 0
    },
    {
      "hash": "0x8f0d5d7b8ab96f3cbd545fcd114de3d73d5dce8448dea18cb8d0c56ec6e5f0bf",
      "blockHash": "0x33265eb27e9434dedc5e542e05882264a18dee12e79c5d8619d72e9c36650d4e",
      "blockNumber": 105329,
      "transactionIndex": 1,
      "confirmations": null,
      "from": "0xe6A7a1d47ff21B6321162AEA7C6CB457D5476Bca",
      "gasPrice": {
        "_hex": "0xd5e233934"
      },
      "gasLimit": {
        "_hex": "0x55f0"
      },
      "to": "0x6599C9c86f1635FAAEFE7A5540914811DAD8d167",
      "value": {
        "_hex": "0x83d79ec3b868e0b8"
      },
      "nonce": 3850,
      "data": "0x",
      "r": "0x64a06f6015129a4adb81acdf32f00c0d3101c609fbbb0e752378982f798f50e8",
      "s": "0x52944834439fdaae7eb17c45011acfe6fdcc3a8d9f7dbb5ff12934b8965b560f",
      "v": 28,
      "creates": null,
      "raw": "0xf86e820f0a850d5e2339348255f0946599c9c86f1635faaefe7a5540914811dad8d1678883d79ec3b868e0b8801ca064a06f6015129a4adb81acdf32f00c0d3101c609fbbb0e752378982f798f50e8a052944834439fdaae7eb17c45011acfe6fdcc3a8d9f7dbb5ff12934b8965b560f",
      "networkId": 0,
      "chainId": 0
    }
  ]
}