{
  "hash": "0x97b174427a63433cbccc501e49f2ec038cf09e1895e177d22414d7f956e919c1",
  "parentHash": "0x9bf3cc7f76957e4911c1b74162f9ba296c2f04b149e85defae61b65ce4b00527",
  "number": 71670,
  "timestamp": 1439339875,
  "nonce": "0x8026d8d6588b6af5",
  "difficulty": 2181425761534,
  "gasLimit": {
    "_hex": "0x2fefd8"
  },
  "gasUsed": {
    "_hex": "0x93b2"
  },
  "miner": "0x9dD134D14D1e65F84B706d6F205cd5B1CD03a46b",
  "extraData": "0x",
  "transactions": [
    {
      "hash": "0x09b83b580c6e7353be8f30b74f52bb9e8fee821775ce1f82611e6303e81b39f0",
      "blockHash": "0x97b174427a63433cbccc501e49f2ec038cf09e1895e177d22414d7f956e919c1",
      "blockNumber": 71670,
      "transactionIndex": 0,
      "confirmations": null,
      "from": "0x17580B766f7453525ca4C6A88b01b50570EA088C",
      "gasPrice": {
        "_hex": "0xd85066c59"
      },
      "gasLimit": {
        "_hex": "0x61a80"
      },
      "to": "0x5Fe5B7546D1628f7348B023A0393de1FC825A4fD",
      "value": {
        "_hex": "0x8ac7230489e80000"
      },
      "nonce": 251,
      "data": "0xb595b8b50000000000000000000000000000000000000000000000000000000000000000",
      "r": "0x8ca5242768ac940b81409eb912e2b3438696df69d04235546da9c6b98a712e9d",
      "s": "0x0d5497aebf1e89837d4a42b139a163b32ff71a923ee0953cb6dee092713c9202",
      "v": 27,
      "creates": null,
      "raw": "0xf89281fb850d85066c5983061a80945fe5b7546d1628f7348b023a0393de1fc825a4fd888ac7230489e80000a4b595b8b500000000000000000000000000000000000000000000000000000000000000001ba08ca5242768ac940b81409eb912e2b3438696df69d04235546da9c6b98a712e9da00d5497aebf1e89837d4a42b139a163b32ff71a923ee0953cb6dee092713c9202",
      "networkId": 0,
      "chainId": 0
    }
  ]
}