{
  "hash": "0xcca70162cb635252abb3048e62cb88eb426118320c958a93866a56799bfa66d7",
  "parentHash": "0xc7eec27daf5370c77c61247ff4b789f0715c335f067b8397477b1729564894cb",
  "number": 114380,
  "timestamp": 1440039385,
  "nonce": "0x10d6d91e95182306",
  "difficulty": 4510159970576,
  "gasLimit": {
    "_hex": "0x2fefd8"
  },
  "gasUsed": {
    "_hex": "0x5208"
  },
  "miner": "0x52bc44d5378309EE2abF1539BF71dE1b7d7bE3b5",
  "extraData": "0x476574682f76312e302e312d65626434373230372f6c696e75782f676f312e34",
  "transactions": [
    {
      "hash": "0x81e57c1c2338db37924a942d88134fe8e096705332258288e62823bb7610174b",
      "blockHash": "0xcca70162cb635252abb3048e62cb88eb426118320c958a93866a56799bfa66d7",
      "blockNumber": 114380,
      "transactionIndex": 0,
      "confirmations": null,
      "from": "0x156b8406C35B2817293e2C99e788c2457C227C54",
      "gasPrice": {
        "_hex": "0xd7ce484a4"
      },
      "gasLimit": {
        "_hex": "0x5208"
      },
      "to": "0x32Be343B94f860124dC4fEe278FDCBD38C102D88",
      "value": {
        "_hex": "0x4750a056eaffcc00"
      },
      "nonce": 0,
      "data": "0x",
      "r": "0x94e67070be2a906f1d0e78b7a3bed2788f8228dcfbc8d715152d841a4a6cb9c5",
      "s": "0x6b1b71669f61e86785b7265339efbc96da5c81bcac08effded23caf9817fd206",
      "v": 28,
      "creates": null,
      "raw": "0xf86c80850d7ce484a48252089432be343b94f860124dc4fee278fdcbd38c102d88884750a056eaffcc00801ca094e67070be2a906f1d0e78b7a3bed2788f8228dcfbc8d715152d841a4a6cb9c5a06b1b71669f61e86785b7265339efbc96da5c81bcac08effded23caf9817fd206",
      "networkId": 0,
      "chainId": 0
    }
  ]
}