{
  "hash": "0x6bd184a77bd46c77164764c492bf34453fbc9a5d522f5f9db8b1489ee371dd6f",
  "parentHash": "0x553e3c82e275d3e949f0b85e35d8a42519c563ef2d8637e3bdc444cc90a97deb",
  "number": 65660,
  "timestamp": 1439240790,
  "nonce": "0x616f2a943dce26a0",
  "difficulty": 1935910837891,
  "gasLimit": {
    "_hex": "0x2fefd8"
  },
  "gasUsed": {
    "_hex": "0xba21"
  },
  "miner": "0x1B7047b4338ACf65bE94C1A3e8c5c9338ad7d67C",
  "extraData": "0x476574682f76312e302e312d38326566323666362f6c696e75782f676f312e34",
  "transactions": [
    {
      "hash": "0x2b1bfca84db1723cc2552ce15d328cc81afea48ab31323de615587182fddd8bd",
      "blockHash": "0x6bd184a77bd46c77164764c492bf34453fbc9a5d522f5f9db8b1489ee371dd6f",
      "blockNumber": 65660,
      "transactionIndex": 0,
      "confirmations": null,
      "from": "0xee5379D0c1ca47327368027455074C26D9952628",
      "gasPrice": {
        "_hex": "0xcf666920d"
      },
      "gasLimit": {
        "_hex": "0x15f90"
      },
      "to": "0xB8796061FcCcC0c40BD2060d95d6cff928bD1C1B",
      "value": {
        "_hex": "0x46419ced7f6a40000"
      },
      "nonce": 1,
      "data": "0x",
      "r": "0x3bdff9221bfb05072316b1e46a1d6e2b35f14a319e0ce76186df9d2f599e5486",
      "s": "0x6ad46bb45f434fccf2ce22fcd9c703d291e7d6330cd9770e6af576ecff2ad91b",
      "v": 28,
      "creates": null,
      "raw": "0xf86e01850cf666920d83015f9094b8796061fcccc0c40bd2060d95d6cff928bd1c1b89046419ced7f6a40000801ca03bdff9221bfb05072316b1e46a1d6e2b35f14a319e0ce76186df9d2f599e5486a06ad46bb45f434fccf2ce22fcd9c703d291e7d6330cd9770e6af576ecff2ad91b",
      "networkId": 0,
      "chainId": 0
    },
    {
      "hash": "0x50b8846e766e3aa91ffa20b2a5651560e782f8cc2bb0cf980989068fe50f1e9a",
      "blockHash": "0x6bd184a77bd46c77164764c492bf34453fbc9a5d522f5f9db8b1489ee371dd6f",
      "blockNumber": 65660,
      "transactionIndex": 1,
      "confirmations": null,
      "from": "0xFBb1b73C4f0BDa4f67dcA266ce6Ef42f520fBB98",
      "gasPrice": {
        "_hex": "0xcbe21874c"
      },
      "gasLimit": {
        "_hex": "0x15f90"
      },
      "to": "0xa1A111bc074c9cfa781F0C38e63bD51c91b8af00",
      "value": {
        "_hex": "0x0"
      },
      "nonce": 3,
      "data": "0x201745d54254525800000000000000000000000000000000000000000000000000000000000000000000000000000000fbb1b73c4f0bda4f67dca266ce6ef42f520fbb98",
      "r": "0x1d0fe52dbcdedcc25448ef32241c4ba51fe1fffbbe2c258ecc9b9485ed2823fb",
      "s": "0x3f00488fa8dc8a1e7d60ecca4dd7b92256f1900abaa4591e67983b3acfc7c870",
      "v": 27,
      "creates": null,
      "raw": "0xf8aa03850cbe21874c83015f9094a1a111bc074c9cfa781f0c38e63bd51c91b8af0080b844201745d54254525800000000000000000000000000000000000000000000000000000000000000000000000000000000fbb1b73c4f0bda4f67dca266ce6ef42f520fbb981ba01d0fe52dbcdedcc25448ef32241c4ba51fe1fffbbe2c258ecc9b9485ed2823fba03f00488fa8dc8a1e7d60ecca4dd7b92256f1900abaa4591e67983b3acfc7c870",
      "networkId": 0,
      "chainId": 0
    }
  ]
}