{
  "hash": "0x239dfcbc8c94bc2c43ad8a65d91d34b5196fdfc8374b1bd73452ce8fe8fe7062",
  "parentHash": "0x7b017210d8c66bf072009e042254d703c578fa419912926acc1ebea14770c690",
  "number": 112982,
  "timestamp": 1440016105,
  "nonce": "0xdd3dfb30be57874a",
  "difficulty": 4475807476234,
  "gasLimit": {
    "_hex": "0x2fefd8"
  },
  "gasUsed": {
    "_hex": "0x546c"
  },
  "miner": "0x9746c7e1ef2bd21FF3997fa467593a89cb852BD0",
  "extraData": "0x476574682f76312e302e312f77696e646f77732f676f312e342e32",
  "transactions": [
    {
      "hash": "0xaf3b2be8f7af005f51db96e4eefa13894b5d23f448a2bccafbdc8d4ba3532d0b",
      "blockHash": "0x239dfcbc8c94bc2c43ad8a65d91d34b5196fdfc8374b1bd73452ce8fe8fe7062",
      "blockNumber": 112982,
      "transactionIndex": 0,
      "confirmations": null,
      "from": "0x77e41B4125b7c14757e0f07fE36b2E95db757a10",
      "gasPrice": {
        "_hex": "0xe0117ab60"
      },
      "gasLimit": {
        "_hex": "0x55f0"
      },
      "to": "0x2910543Af39abA0Cd09dBb2D50200b3E800A63D2",
      "value": {
        "_hex": "0x37c9e8b37d120000"
      },
      "nonce": 15,
      "data": "0x454e47583939505930",
      "r": "0x80dcc3c69b58538ab977e697328e848666820ea32ca4ba128d66d2f5bb7b2d07",
      "s": "0x1460c70e6e8440262e46daa4d477a9ff7c023b56b27eb78a410adbf5be7b18f3",
      "v": 27,
      "creates": null,
      "raw": "0xf8750f850e0117ab608255f0942910543af39aba0cd09dbb2d50200b3e800a63d28837c9e8b37d12000089454e475839395059301ba080dcc3c69b58538ab977e697328e848666820ea32ca4ba128d66d2f5bb7b2d07a01460c70e6e8440262e46daa4d477a9ff7c023b56b27eb78a410adbf5be7b18f3",
      "networkId": 0,
      "chainId": 0
    }
  ]
}