{
  "hash": "0x3921d0a0ced5b1cd009e0866c494e89ec8a5c6924b42208d16914697559eab01",
  "parentHash": "0xfa1944b0c4213b8348335145c51842680e29b9b9788fe41e2b3baa84b1505aa1",
  "number": 117934,
  "timestamp": 1440117806,
  "nonce": "0xe2017c8bfb5c4644",
  "difficulty": 4344017344057,
  "gasLimit": {
    "_hex": "0x2fefd8"
  },
  "gasUsed": {
    "_hex": "0xa410"
  },
  "miner": "0x52bc44d5378309EE2abF1539BF71dE1b7d7bE3b5",
  "extraData": "0xd783010002844765746887676f312e342e32856c696e7578",
  "transactions": [
    {
      "hash": "0x8cfb2d94d15144e195e225da4d7db5f894a36fac3e6f282696352d8f6a66e54c",
      "blockHash": "0x3921d0a0ced5b1cd009e0866c494e89ec8a5c6924b42208d16914697559eab01",
      "blockNumber": 117934,
      "transactionIndex": 0,
      "confirmations": null,
      "from": "0x7B1A43f1eb4970A4b5D36F604FeF8083Fa18189f",
      "gasPrice": {
        "_hex": "0xba43b7400"
      },
      "gasLimit": {
        "_hex": "0x5208"
      },
      "to": "0x32Be343B94f860124dC4fEe278FDCBD38C102D88",
      "value": {
        "_hex": "0x30e355e3b404a400"
      },
      "nonce": 2,
      "data": "0x",
      "r": "0x1918163c79db8bcd7405a08404976ce89228e45a871776c0b156963d9bbf1f55",
      "s": "0x2fa75f0ea2553a0ba88b029514a219de6c2f00a12813b21f5c9a2c0dc6ee7f7f",
      "v": 28,
      "creates": null,
      "raw": "0xf86c02850ba43b74008252089432be343b94f860124dc4fee278fdcbd38c102d888830e355e3b404a400801ca01918163c79db8bcd7405a08404976ce89228e45a871776c0b156963d9bbf1f55a02fa75f0ea2553a0ba88b029514a219de6c2f00a12813b21f5c9a2c0dc6ee7f7f",
      "networkId": 0,
      "chainId": 0
    },
    {
      "hash": "0xaac93fd25107c89ec6593ba5270410dbb88e8ecb94b53d2b77f2825e57cb61c3",
      "blockHash": "0x3921d0a0ced5b1cd009e0866c494e89ec8a5c6924b42208d16914697559eab01",
      "blockNumber": 117934,
      "transactionIndex": 1,
      "confirmations": null,
      "from": "0x51033F1a1a59cb6a1bF6ca2087a53bD202Ac1C83",
      "gasPrice": {
        "_hex": "0xba43b7400"
      },
      "gasLimit": {
        "_hex": "0x5208"
      },
      "to": "0x32Be343B94f860124dC4fEe278FDCBD38C102D88",
      "value": {
        "_hex": "0x39a560a1f2e1400"
      },
      "nonce": 0,
      "data": "0x",
      "r": "0x41a5963e418f944a66b87d89874200b41963bad40a46f7cea31a897f3f7ec6c4",
      "s": "0x12f5c6fc6e0488cf5321d5384dbe3af2b9945f4bfdee0368e4b6ba13bf7b3ea5",
      "v": 28,
      "creates": null,
      "raw": "0xf86c80850ba43b74008252089432be343b94f860124dc4fee278fdcbd38c102d8888039a560a1f2e1400801ca041a5963e418f944a66b87d89874200b41963bad40a46f7cea31a897f3f7ec6c4a012f5c6fc6e0488cf5321d5384dbe3af2b9945f4bfdee0368e4b6ba13bf7b3ea5",
      "networkId": 0,
      "chainId": 0
    }
  ]
}