{
  "hash": "0x47f358a86c63cc62d4e21b8cfc2de6a2b066e0b219afb6886938632eabc9898b",
  "parentHash": "0xb8172425425f3495e67d31b57c16d62b1c789591883ada560eb05e5d6baba83a",
  "number": 92436,
  "timestamp": 1439671880,
  "nonce": "0xa5d3ae8763f7f254",
  "difficulty": 3525157424887,
  "gasLimit": {
    "_hex": "0x2fefd5"
  },
  "gasUsed": {
    "_hex": "0x5208"
  },
  "miner": "0x8eB3747b8397C48BC29fd5Df6765AbCEfbDffFCA",
  "extraData": "0x476574682f76312e302e312f6c696e75782f676f312e342e32",
  "transactions": [
    {
      "hash": "0x8464d969867dc4dd3ea92618804267baf1d4f2ad570e53271f9440a1eb6b16b8",
      "blockHash": "0x47f358a86c63cc62d4e21b8cfc2de6a2b066e0b219afb6886938632eabc9898b",
      "blockNumber": 92436,
      "transactionIndex": 0,
      "confirmations": null,
      "from": "0xd30eCf8897AF28bCCF7e05250Ea9e1e275Ee41D4",
      "gasPrice": {
        "_hex": "0xd50bf2b5d"
      },
      "gasLimit": {
        "_hex": "0x15f90"
      },
      "to": "0xCc4323048c709069fefe6cCE8823828DE7Cccc6a",
      "value": {
        "_hex": "0x10f0cf064dd59200000"
      },
      "nonce": 1,
      "data": "0x",
      "r": "0x28872cc8275115d8bf6c8277208a162d80d8a3288461dd78edbc7ffb7fda8ca0",
      "s": "0x2f28cbb8831fd9e697be8a4d77588080a748a3fb515c473020430ffae2e3b263",
      "v": 28,
      "creates": null,
      "raw": "0xf86f01850d50bf2b5d83015f9094cc4323048c709069fefe6cce8823828de7cccc6a8a010f0cf064dd59200000801ca028872cc8275115d8bf6c8277208a162d80d8a3288461dd78edbc7ffb7fda8ca0a02f28cbb8831fd9e697be8a4d77588080a748a3fb515c473020430ffae2e3b263",
      "networkId": 0,
      "chainId": 0
    }
  ]
}