{
  "hash": "0x027d4f862b155b287b810c51bfa5f83fe0ac1006f69720bbb8cb724a3ed1eed3",
  "parentHash": "0xcd574457aba2648618a3ea1f3451be5ea468066a1be663fff1573e943c51f507",
  "number": 66566,
  "timestamp": 1439256781,
  "nonce": "0xb930f3f11e92bf7b",
  "difficulty": 1937593021009,
  "gasLimit": {
    "_hex": "0x2fefd8"
  },
  "gasUsed": {
    "_hex": "0x5208"
  },
  "miner": "0x47ff6576639c2e94762eA5443978D7681C0E78DC",
  "extraData": "0x476574682f76312e302e312f6c696e75782f676f312e342e32",
  "transactions": [
    {
      "hash": "0xd6f8096aacee1cdc1411fd9cbf04c5220c5d8ccaa7c5155719bdb842ff691139",
      "blockHash": "0x027d4f862b155b287b810c51bfa5f83fe0ac1006f69720bbb8cb724a3ed1eed3",
      "blockNumber": 66566,
      "transactionIndex": 0,
      "confirmations": null,
      "from": "0x15e1C47974Cff16E4F82aE97a444EA7BA3cF1a1E",
      "gasPrice": {
        "_hex": "0xba43b7400"
      },
      "gasLimit": {
        "_hex": "0x5208"
      },
      "to": "0x00818287ff6BA78A461D21bD5832891592dc6C6B",
      "value": {
        "_hex": "0x15f8a8030866000"
      },
      "nonce": 2,
      "data": "0x",
      "r": "0x4d86606a249cfebabe6ed10489c6b01f1efd3b320e938c5f68d8715c83027b1b",
      "s": "0x5ab4ffec4d273cdc9a514c5557c2f9ef3cb9f5fe33f0a580565cf1855314014c",
      "v": 28,
      "creates": null,
      "raw": "0xf86c02850ba43b74008252089400818287ff6ba78a461d21bd5832891592dc6c6b88015f8a8030866000801ca04d86606a249cfebabe6ed10489c6b01f1efd3b320e938c5f68d8715c83027b1ba05ab4ffec4d273cdc9a514c5557c2f9ef3cb9f5fe33f0a580565cf1855314014c",
      "networkId": 0,
      "chainId": 0
    }
  ]
}