{
  "hash": "0x4ce7e36a8bbcedc58eeb3ba8a2883cafa426a0a33124bafae72f82dc69f471ba",
  "parentHash": "0xb869f323cc7815fccd4e21b7e8b1c43e9c1821a2f1d35c08185dba3710a26c87",
  "number": 91769,
  "timestamp": 1439661247,
  "nonce": "0x2a81dcdb793c9414",
  "difficulty": 3479264819220,
  "gasLimit": {
    "_hex": "0x2fefd8"
  },
  "gasUsed": {
    "_hex": "0x10203d"
  },
  "miner": "0xe6A7a1d47ff21B6321162AEA7C6CB457D5476Bca",
  "extraData": "0x476574682f76312e302e312d38326566323666362f6c696e75782f676f312e34",
  "transactions": [
    {
      "hash": "0x098746004a3625b78ddcf1d4454a86aff18153fcf7b735f793a4fa7384bdf041",
      "blockHash": "0x4ce7e36a8bbcedc58eeb3ba8a2883cafa426a0a33124bafae72f82dc69f471ba",
      "blockNumber": 91769,
      "transactionIndex": 0,
      "confirmations": null,
      "from": "0x94B4EA2caa897785bb092aB92caa27081Ef32c82",
      "gasPrice": {
        "_hex": "0xd7826cfac"
      },
      "gasLimit": {
        "_hex": "0x7a120"
      },
      "to": "0x109C4f2CCc82C4d77Bde15F306707320294Aea3F",
      "value": {
        "_hex": "0xde0b6b3a7640000"
      },
      "nonce": 8,
      "data": "0x",
      "r": "0x4d63e7f301d99947801784c3bf46337ea8a1af894eb534551734318214887251",
      "s": "0x44e42ea577a2de5d02a04d8ebd5dbf57c5ae7c2a93286fbf9ed0d854ca82b9ad",
      "v": 27,
      "creates": null,
      "raw": "0xf86d08850d7826cfac8307a12094109c4f2ccc82c4d77bde15f306707320294aea3f880de0b6b3a7640000801ba04d63e7f301d99947801784c3bf46337ea8a1af894eb534551734318214887251a044e42ea577a2de5d02a04d8ebd5dbf57c5ae7c2a93286fbf9ed0d854ca82b9ad",
      "networkId": 0,
      "chainId": 0
    },
    {
      "hash": "0x41982f2c13692738d446f05f6e86af6c990743e144e72afdd371ce3f11360e2b",
      "blockHash": "0x4ce7e36a8bbcedc58eeb3ba8a2883cafa426a0a33124bafae72f82dc69f471ba",
      "blockNumber": 91769,
      "transactionIndex": 1,
      "confirmations": null,
      "from": "0x94B4EA2caa897785bb092aB92caa27081Ef32c82",
      "gasPrice": {
        "_hex": "0xd7826cfac"
      },
      "gasLimit": {
        "_hex": "0x7a120"
      },
      "to": "0xA327075af2a223A1C83a36aDa1126afE7430f955",
      "value": {
        "_hex": "0x8ac7230489e80000"
      },
      "nonce": 9,
      "data": "0x",
      "r": "0x3585718c954c2ec3506cfc19750462c0ceaeaedd5f61747818a72c12b1901a21",
      "s": "0x4be9c8738c882a49e273c4928d6434e7eab1e8b0cfc31624fd4bdcdd2db2ac18",
      "v": 27,
      "creates": null,
      "raw": "0xf86d09850d7826cfac8307a12094a327075af2a223a1c83a36ada1126afe7430f955888ac7230489e80000801ba03585718c954c2ec3506cfc19750462c0ceaeaedd5f61747818a72c12b1901a21a04be9c8738c882a49e273c4928d6434e7eab1e8b0cfc31624fd4bdcdd2db2ac18",
      "networkId": 0,
      "chainId": 0
    },
    {
      "hash": "0xc9230e0d6010182acdf0153ef920fb6d4b3f05d6740df4c1b2035ee1f87e47fb",
      "blockHash": "0x4ce7e36a8bbcedc58eeb3ba8a2883cafa426a0a33124bafae72f82dc69f471ba",
      "blockNumber": 91769,
      "transactionIndex": 2,
      "confirmations": null,
      "from": "0x94B4EA2caa897785bb092aB92caa27081Ef32c82",
      "gasPrice": {
        "_hex": "0xd7826cfac"
      },
      "gasLimit": {
        "_hex": "0x7a120"
      },
      "to": "0xBAA54d6E90c3F4d7Ebec11bD180134C7eD8eBb52",
      "value": {
        "_hex": "0x16345785d8a0000"
      },
      "nonce": 10,
      "data": "0x",
      "r": "0xc36ab09fc4b5769c6fa07ba61ed58a167de11cf85522f84143081edcf1a7c97e",
      "s": "0x45004b50b309e497f45d06e64486834ca70506221ae7e83404e01ad0f196dd49",
      "v": 28,
      "creates": null,
      "raw": "0xf86d0a850d7826cfac8307a12094baa54d6e90c3f4d7ebec11bd180134c7ed8ebb5288016345785d8a0000801ca0c36ab09fc4b5769c6fa07ba61ed58a167de11cf85522f84143081edcf1a7c97ea045004b50b309e497f45d06e64486834ca70506221ae7e83404e01ad0f196dd49",
      "networkId": 0,
      "chainId": 0
    }
  ]
}