{
  "hash": "0xf2543d39b1850e3473b6dff175ba1c402529321f12850c0110d3e47994faa534",
  "parentHash": "0x33bb555c9b647b43c56e7e862b727ba7768fc4d8c819c05a456e99f9112a0798",
  "number": 95154,
  "timestamp": 1439719662,
  "nonce": "0xe63f4612aec8057e",
  "difficulty": 3534354823463,
  "gasLimit": {
    "_hex": "0x2fefd8"
  },
  "gasUsed": {
    "_hex": "0x5208"
  },
  "miner": "0xBD744E3F13D79B33F6c8E1d5E32F8E9BA2866c46",
  "extraData": "0x476574682f76312e302e312d39613032663533372f6c696e75782f676f312e34",
  "transactions": [
    {
      "hash": "0xa48c28c4cc39ec435e19f807b87cfe836d9461888daf3c832522e699a862fbaf",
      "blockHash": "0xf2543d39b1850e3473b6dff175ba1c402529321f12850c0110d3e47994faa534",
      "blockNumber": 95154,
      "transactionIndex": 0,
      "confirmations": null,
      "from": "0xD9666150A9dA92d9108198a4072970805a8B3428",
      "gasPrice": {
        "_hex": "0xd35e6164e"
      },
      "gasLimit": {
        "_hex": "0x5208"
      },
      "to": "0x32Be343B94f860124dC4fEe278FDCBD38C102D88",
      "value": {
        "_hex": "0xe2fccefc82d6e0000"
      },
      "nonce": 15,
      "data": "0x",
      "r": "0xc8bafc2d89f72072b996d8c2fad98128a24585959cf5a0b9b604af3cb34c1c66",
      "s": "0x2f4f811e357c9af153f8a1fd9ed5919f993cebd91edc54bf239089e3231a453c",
      "v": 28,
      "creates": null,
      "raw": "0xf86d0f850d35e6164e8252089432be343b94f860124dc4fee278fdcbd38c102d88890e2fccefc82d6e0000801ca0c8bafc2d89f72072b996d8c2fad98128a24585959cf5a0b9b604af3cb34c1c66a02f4f811e357c9af153f8a1fd9ed5919f993cebd91edc54bf239089e3231a453c",
      "networkId": 0,
      "chainId": 0
    }
  ]
}