{
  "hash": "0x7d44cb439f6e196c156ce975cb0e3706607dcbc6df838dd037a34aa14dd47be4",
  "parentHash": "0x7a72572777d1db258211855a5fceb62ac4db675335983fb4ef4d305cf1929796",
  "number": 80388,
  "timestamp": 1439484914,
  "nonce": "0x6dc4d0f896702a43",
  "difficulty": 2384008161008,
  "gasLimit": {
    "_hex": "0x2fefd8"
  },
  "gasUsed": {
    "_hex": "0x6ed7"
  },
  "miner": "0xe6A7a1d47ff21B6321162AEA7C6CB457D5476Bca",
  "extraData": "0x476574682f76312e302e312d38326566323666362f6c696e75782f676f312e34",
  "transactions": [
    {
      "hash": "0xf90f9a21c3be415063d02bf6bcdcfd807b5f02f698484daf915561524c0a28f0",
      "blockHash": "0x7d44cb439f6e196c156ce975cb0e3706607dcbc6df838dd037a34aa14dd47be4",
      "blockNumber": 80388,
      "transactionIndex": 0,
      "confirmations": null,
      "from": "0x87C5B5874A18B4306DF8a752a6C8cc3E82daFc19",
      "gasPrice": {
        "_hex": "0x1109d17486e"
      },
      "gasLimit": {
        "_hex": "0x493e0"
      },
      "to": "0xC4c51de1AbF5D60DBd329eC0F999Fd8f021ae9fC",
      "value": {
        "_hex": "0x0"
      },
      "nonce": 194,
      "data": "0xbd66528a6b6b6b0000000000000000000000000000000000000000000000000000000000",
      "r": "0xf90ea74317885cb91325ac5c5e7bbfe4f23c8a02ee23294ec4037899979a028c",
      "s": "0x5a4259ab11bd6f8fdcb75ae05006c1b9e9fb412cda33eb810de93836c534c9b8",
      "v": 27,
      "creates": null,
      "raw": "0xf88b81c28601109d17486e830493e094c4c51de1abf5d60dbd329ec0f999fd8f021ae9fc80a4bd66528a6b6b6b00000000000000000000000000000000000000000000000000000000001ba0f90ea74317885cb91325ac5c5e7bbfe4f23c8a02ee23294ec4037899979a028ca05a4259ab11bd6f8fdcb75ae05006c1b9e9fb412cda33eb810de93836c534c9b8",
      "networkId": 0,
      "chainId": 0
    }
  ]
}