{
  "hash": "0xceb9bc7673d08ef2aababe0648c79266be5c8cc4f657236cbcfc97737cdbc675",
  "parentHash": "0xcb460a722d9c0169cb2daa0ba5107bdfd8b873e0e38785727f4eb59b375a7137",
  "number": 108399,
  "timestamp": 1439939688,
  "nonce": "0xa6e6cbe4c85df0c7",
  "difficulty": 4325661781781,
  "gasLimit": {
    "_hex": "0x2fefd8"
  },
  "gasUsed": {
    "_hex": "0x19a28"
  },
  "miner": "0xe6A7a1d47ff21B6321162AEA7C6CB457D5476Bca",
  "extraData": "0x476574682f76312e302e312d38326566323666362f6c696e75782f676f312e34",
  "transactions": [
    {
      "hash": "0xcae5a70ec3e286aa957a74981b35249c7869173920760d6f51a119c8ae084f9e",
      "blockHash": "0xceb9bc7673d08ef2aababe0648c79266be5c8cc4f657236cbcfc97737cdbc675",
      "blockNumber": 108399,
      "transactionIndex": 0,
      "confirmations": null,
      "from": "0xFBb1b73C4f0BDa4f67dcA266ce6Ef42f520fBB98",
      "gasPrice": {
        "_hex": "0xd02950134"
      },
      "gasLimit": {
        "_hex": "0x5208"
      },
      "to": "0x28f626E1d12b99701Bf1ED7E853856EdE028B486",
      "value": {
        "_hex": "0x21fb2a660121800"
      },
      "nonce": 204,
      "data": "0x",
      "r": "0xd89d3576f378c50b9a67eb038894732e0c128710e69aca61492ef0eb634cb019",
      "s": "0x33fce1f5b87e6be3951f8075060f06a45f4ad23bae20e7da48dbef9507b6c5cc",
      "v": 27,
      "creates": null,
      "raw": "0xf86d81cc850d029501348252089428f626e1d12b99701bf1ed7e853856ede028b48688021fb2a660121800801ba0d89d3576f378c50b9a67eb038894732e0c128710e69aca61492ef0eb634cb019a033fce1f5b87e6be3951f8075060f06a45f4ad23bae20e7da48dbef9507b6c5cc",
      "networkId": 0,
      "chainId": 0
    },
    {
      "hash": "0x6c84596d36f457fca753889448ec3550fc11733b9b126faca54197d598d739d6",
      "blockHash": "0xceb9bc7673d08ef2aababe0648c79266be5c8cc4f657236cbcfc97737cdbc675",
      "blockNumber": 108399,
      "transactionIndex": 1,
      "confirmations": null,
      "from": "0xFBb1b73C4f0BDa4f67dcA266ce6Ef42f520fBB98",
      "gasPrice": {
        "_hex": "0xd02950134"
      },
      "gasLimit": {
        "_hex": "0x5208"
      },
      "to": "0x6666fde341E0765aBBfA85e7C154F26c29E180a1",
      "value": {
        "_hex": "0x323cd7c4a02e800"
      },
      "nonce": 205,
      "data": "0x",
      "r": "0xed0165b6372c2f909d7f17a5398a8a6245dfcdbc6ebbb634747118f2450a43e7",
      "s": "0x1b1bce7feae4c150757c0b56325961486521d5ba3532e407c2118731bab9651d",
      "v": 28,
      "creates": null,
      "raw": "0xf86d81cd850d02950134825208946666fde341e0765abbfa85e7c154f26c29e180a1880323cd7c4a02e800801ca0ed0165b6372c2f909d7f17a5398a8a6245dfcdbc6ebbb634747118f2450a43e7a01b1bce7feae4c150757c0b56325961486521d5ba3532e407c2118731bab9651d",
      "networkId": 0,
      "chainId": 0
    },
    {
      "hash": "0x0a5374e6d7ff21f9247a172292533df186487459044d4efed164dd2328c56743",
      "blockHash": "0xceb9bc7673d08ef2aababe0648c79266be5c8cc4f657236cbcfc97737cdbc675",
      "blockNumber": 108399,
      "transactionIndex": 2,
      "confirmations": null,
      "from": "0xFBb1b73C4f0BDa4f67dcA266ce6Ef42f520fBB98",
      "gasPrice": {
        "_hex": "0xd02950134"
      },
      "gasLimit": {
        "_hex": "0x5208"
      },
      "to": "0xdB5dC2cfcEBAfAA7D98292c1Bf11C2937608729B",
      "value": {
        "_hex": "0x52878b320a1800"
      },
      "nonce": 206,
      "data": "0x",
      "r": "0x499958348a02b4b450a66dd178b1a866d1ef3e15ea3adc9f563d83743d91144b",
      "s": "0x27a6a7252308406f8390413364bd27c01f93e8610624256e3f5106aeb91c2b96",
      "v": 27,
      "creates": null,
      "raw": "0xf86c81ce850d0295013482520894db5dc2cfcebafaa7d98292c1bf11c2937608729b8752878b320a1800801ba0499958348a02b4b450a66dd178b1a866d1ef3e15ea3adc9f563d83743d91144ba027a6a7252308406f8390413364bd27c01f93e8610624256e3f5106aeb91c2b96",
      "networkId": 0,
      "chainId": 0
    },
    {
      "hash": "0xcdfd6ee51a4fb56e0c9451a356a1a8ffd7d16b8ee2380402f69a182ec22892cb",
      "blockHash": "0xceb9bc7673d08ef2aababe0648c79266be5c8cc4f657236cbcfc97737cdbc675",
      "blockNumber": 108399,
      "transactionIndex": 3,
      "confirmations": null,
      "from": "0xFBb1b73C4f0BDa4f67dcA266ce6Ef42f520fBB98",
      "gasPrice": {
        "_hex": "0xd02950134"
      },
      "gasLimit": {
        "_hex": "0x5208"
      },
      "to": "0x292797acfA0288A93401c7b7cdE1d501c70a1bE1",
      "value": {
        "_hex": "0x542b363d473400"
      },
      "nonce": 207,
      "data": "0x",
      "r": "0xbb0c92d6b5d73c74f7090c4c259c42faaa4904ce01bc136fed139b1488323f7c",
      "s": "0x7c3bdb5266035149d706d1e27dfade32702c53aea74969f8613616084573f7b0",
      "v": 28,
      "creates": null,
      "raw": "0xf86c81cf850d0295013482520894292797acfa0288a93401c7b7cde1d501c70a1be187542b363d473400801ca0bb0c92d6b5d73c74f7090c4c259c42faaa4904ce01bc136fed139b1488323f7ca07c3bdb5266035149d706d1e27dfade32702c53aea74969f8613616084573f7b0",
      "networkId": 0,
      "chainId": 0
    },
    {
      "hash": "0x78cfd62e135fec9ab66efb41fe8638afaa483de9af0ed6d81d708daa00bf42c0",
      "blockHash": "0xceb9bc7673d08ef2aababe0648c79266be5c8cc4f657236cbcfc97737cdbc675",
      "blockNumber": 108399,
      "transactionIndex": 4,
      "confirmations": null,
      "from": "0xFBb1b73C4f0BDa4f67dcA266ce6Ef42f520fBB98",
      "gasPrice": {
        "_hex": "0xd02950134"
      },
      "gasLimit": {
        "_hex": "0x5208"
      },
      "to": "0xE7c375369e337cDc54D8E3EDb2d030B5ed7f63e5",
      "value": {
        "_hex": "0x51fba783a06400"
      },
      "nonce": 208,
      "data": "0x",
      "r": "0xe54f225cfe623cbbb4bad45d3202d7d5233c53ff1aa5b3a6e4ab65e07dde75c9",
      "s": "0x3408cc7aa83d666b4b534cfab6afed080a21d7f929bc24b425027e96200bab88",
      "v": 27,
      "creates": null,
      "raw": "0xf86c81d0850d0295013482520894e7c375369e337cdc54d8e3edb2d030b5ed7f63e58751fba783a06400801ba0e54f225cfe623cbbb4bad45d3202d7d5233c53ff1aa5b3a6e4ab65e07dde75c9a03408cc7aa83d666b4b534cfab6afed080a21d7f929bc24b425027e96200bab88",
      "networkId": 0,
      "chainId": 0
    }
  ]
}