{
  "hash": "0x5963a07c41b3b44468462716ff78dda8a36b51718babdc24e1e81756612a0f3a",
  "parentHash": "0xe1a5b254423ab687975c9c77bd66759ff409013ab88a23969ebf1df215c2d986",
  "number": 96607,
  "timestamp": 1439742961,
  "nonce": "0xa8a5c8d529cb4c84",
  "difficulty": 3712382933935,
  "gasLimit": {
    "_hex": "0x2fefd8"
  },
  "gasUsed": {
    "_hex": "0x5208"
  },
  "miner": "0xC603Ab5ef41fC61AA8b76bEddb09e3Cfcbb174BD",
  "extraData": "0x476574682f76312e302e312f77696e646f77732f676f312e342e32",
  "transactions": [
    {
      "hash": "0x5201b0464a3b8bb2a0b1ce46cf157d61fc48191da7709e1523d9afde4bea5e69",
      "blockHash": "0x5963a07c41b3b44468462716ff78dda8a36b51718babdc24e1e81756612a0f3a",
      "blockNumber": 96607,
      "transactionIndex": 0,
      "confirmations": null,
      "from": "0x645B979F8ce622236DB26feB803455d40C328615",
      "gasPrice": {
        "_hex": "0xd43bcc8c8"
      },
      "gasLimit": {
        "_hex": "0x5208"
      },
      "to": "0x32Be343B94f860124dC4fEe278FDCBD38C102D88",
      "value": {
        "_hex": "0x86fbaccf4de1b00000"
      },
      "nonce": 3,
      "data": "0x",
      "r": "0x5efa80e891cc549d57cd789c2e9d665cfe069b9bf8ded644ec484b2b919dccc2",
      "s": "0x37da4725726a82aa6e42b93b5786a8d3ecbcbc1f85d4e38e732524801cd70487",
      "v": 28,
      "creates": null,
      "raw": "0xf86d03850d43bcc8c88252089432be343b94f860124dc4fee278fdcbd38c102d888986fbaccf4de1b00000801ca05efa80e891cc549d57cd789c2e9d665cfe069b9bf8ded644ec484b2b919dccc2a037da4725726a82aa6e42b93b5786a8d3ecbcbc1f85d4e38e732524801cd70487",
      "networkId": 0,
      "chainId": 0
    }
  ]
}