{
  "hash": "0x748d568e11bcdbeddbb1592324025e2d294c497108d1e86f8c14da78bf1fbcce",
  "parentHash": "0xf255041677b93d61329cf7e76545a9b8b6eacb05685d66bf48d9efc43020d996",
  "number": 49194,
  "timestamp": 1438969566,
  "nonce": "0x8a7d94a559b3803e",
  "difficulty": 1478541955453,
  "gasLimit": {
    "_hex": "0x28957"
  },
  "gasUsed": {
    "_hex": "0x5208"
  },
  "miner": "0x9746c7e1ef2bd21FF3997fa467593a89cb852BD0",
  "extraData": "0x476574682f76312e302e312f77696e646f77732f676f312e342e32",
  "transactions": [
    {
      "hash": "0x73071788cfc467807803067352c163fefffbcb4f17c2463fae0ebed6bce742a7",
      "blockHash": "0x748d568e11bcdbeddbb1592324025e2d294c497108d1e86f8c14da78bf1fbcce",
      "blockNumber": 49194,
      "transactionIndex": 0,
      "confirmations": null,
      "from": "0xb884add88d83dC564Ab8E0E02cbDB63919Aea844",
      "gasPrice": {
        "_hex": "0xd4d960e89"
      },
      "gasLimit": {
        "_hex": "0x15f90"
      },
      "to": "0x4A3Df2B6934c045ae451fc908412c1CAa5654E96",
      "value": {
        "_hex": "0x30ca024f987b900000"
      },
      "nonce": 1,
      "data": "0x",
      "r": "0x084ccc4a8d6d47d112c1d1696ff86bf76e3c853e1d4ae84a65d90e047341ef2e",
      "s": "0x76f762330e91f6e16b03c1476637b41e2f06f22a5df6e18866f3c97d6894c6b9",
      "v": 27,
      "creates": null,
      "raw": "0xf86e01850d4d960e8983015f90944a3df2b6934c045ae451fc908412c1caa5654e968930ca024f987b900000801ba0084ccc4a8d6d47d112c1d1696ff86bf76e3c853e1d4ae84a65d90e047341ef2ea076f762330e91f6e16b03c1476637b41e2f06f22a5df6e18866f3c97d6894c6b9",
      "networkId": 0,
      "chainId": 0
    }
  ]
}