{
  "hash": "0x62a076b4d928deb91e70e03469f218101564fe9077ca2ac913891ca241970e61",
  "parentHash": "0xb2bd6755cb77c0db35ab4cd66e06717f32cd1c70f21ef826362ba107f63d819a",
  "number": 107138,
  "timestamp": 1439916748,
  "nonce": "0x6a198ed97830cc28",
  "difficulty": 4470187307908,
  "gasLimit": {
    "_hex": "0x2fefd8"
  },
  "gasUsed": {
    "_hex": "0x5208"
  },
  "miner": "0x790b8a3cE86E707ED0eD32bF89B3269692a23CC1",
  "extraData": "0xd783010001844765746887676f312e342e32856c696e7578",
  "transactions": [
    {
      "hash": "0x2ac88ececfd36e3b2c258e30bd0a0150ce6f29334f904300675fdf555a83324b",
      "blockHash": "0x62a076b4d928deb91e70e03469f218101564fe9077ca2ac913891ca241970e61",
      "blockNumber": 107138,
      "transactionIndex": 0,
      "confirmations": null,
      "from": "0x1Dd20cba1Ac0a6ADaFc39b52A8e3E9429A444Ada",
      "gasPrice": {
        "_hex": "0xcdb261a5c"
      },
      "gasLimit": {
        "_hex": "0x5208"
      },
      "to": "0xFBb1b73C4f0BDa4f67dcA266ce6Ef42f520fBB98",
      "value": {
        "_hex": "0xde074ca1689db520"
      },
      "nonce": 2,
      "data": "0x",
      "r": "0x7f23cc202d84b52edb1ac98ebdd44c80c50a0409eceded39cd139ea83b7ff187",
      "s": "0x3e7ff15c827cda980582e4a1161d203b8b301a398d0755375a5bc94752f9a3ea",
      "v": 28,
      "creates": null,
      "raw": "0xf86c02850cdb261a5c82520894fbb1b73c4f0bda4f67dca266ce6ef42f520fbb9888de074ca1689db520801ca07f23cc202d84b52edb1ac98ebdd44c80c50a0409eceded39cd139ea83b7ff187a03e7ff15c827cda980582e4a1161d203b8b301a398d0755375a5bc94752f9a3ea",
      "networkId": 0,
      "chainId": 0
    }
  ]
}