{
  "hash": "0x0cffb9106b8d9b1cbef13f7934c19846a11ce9e857e158b8f45ee59a74b0f3b1",
  "parentHash": "0xe4e57d4d813915ad86505c2eefaa242c0c09543ecc795e2f158ebd824c67fea1",
  "number": 63005,
  "timestamp": 1439197462,
  "nonce": "0xd6cc6c9687ed159c",
  "difficulty": 1798879478511,
  "gasLimit": {
    "_hex": "0x2fefd8"
  },
  "gasUsed": {
    "_hex": "0x546c"
  },
  "miner": "0x88D74a59454F6cF3B51ef6b9136AFb6b9D405A88",
  "extraData": "0x476574682f76312e302e312d37666266393930632f6c696e75782f676f312e34",
  "transactions": [
    {
      "hash": "0x4f1d71e097c01991f3134fea11e283bc9d4343f7a253b638269515e34e079c80",
      "blockHash": "0x0cffb9106b8d9b1cbef13f7934c19846a11ce9e857e158b8f45ee59a74b0f3b1",
      "blockNumber": 63005,
      "transactionIndex": 0,
      "confirmations": null,
      "from": "0x7a94B19992CeB8cE63BC92Ee4b5adeD10c4D9725",
      "gasPrice": {
        "_hex": "0x110c8f7d8de"
      },
      "gasLimit": {
        "_hex": "0xc350"
      },
      "to": "0x2910543Af39abA0Cd09dBb2D50200b3E800A63D2",
      "value": {
        "_hex": "0x56bc75e2d63100000"
      },
      "nonce": 0,
      "data": "0x454e584e5a33424447",
      "r": "0x6c985d10a92ca4445e2b513d9735598945cd80601648016011dd8fc8e5538f3c",
      "s": "0xff90574ee7c2f7db3d9da066ceb499cbaee27781f404ee7e69edd1e76522ad11",
      "v": 27,
      "creates": null,
      "raw": "0xf87780860110c8f7d8de82c350942910543af39aba0cd09dbb2d50200b3e800a63d289056bc75e2d6310000089454e584e5a334244471ba06c985d10a92ca4445e2b513d9735598945cd80601648016011dd8fc8e5538f3ca0ff90574ee7c2f7db3d9da066ceb499cbaee27781f404ee7e69edd1e76522ad11",
      "networkId": 0,
      "chainId": 0
    }
  ]
}