{
  "hash": "0xf62b9b1a8ba762478f17c0682d02346dd82a27d75192c6c118a294f46254bcc1",
  "parentHash": "0x1c8aa195b933ae74189330cd0b5ee0948126ceb4de5768091a643bc41c5c194e",
  "number": 68364,
  "timestamp": 1439286633,
  "nonce": "0xed8925cd79ae20ca",
  "difficulty": 2018284275351,
  "gasLimit": {
    "_hex": "0x2fefd8"
  },
  "gasUsed": {
    "_hex": "0x5208"
  },
  "miner": "0x88D74a59454F6cF3B51ef6b9136AFb6b9D405A88",
  "extraData": "0x476574682f76312e302e312d37666266393930632f6c696e75782f676f312e34",
  "transactions": [
    {
      "hash": "0x8092e194edbfbbff7735967b362630ec36485a9e9eea9a43cdd8c52f8a0c7af6",
      "blockHash": "0xf62b9b1a8ba762478f17c0682d02346dd82a27d75192c6c118a294f46254bcc1",
      "blockNumber": 68364,
      "transactionIndex": 0,
      "confirmations": null,
      "from": "0x6747f922385c9a6F9cfDf095F34345257DD597bE",
      "gasPrice": {
        "_hex": "0xba43b7400"
      },
      "gasLimit": {
        "_hex": "0x5208"
      },
      "to": "0x7deB6B0CA66094cFEDD3ad019AE6A2611e83AfF5",
      "value": {
        "_hex": "0x1fcbfa42bd6000"
      },
      "nonce": 62,
      "data": "0x",
      "r": "0x554e4dc77d58e32b284573b9e0ca3481fc48933d3f97066928682d23b1389245",
      "s": "0x7f5a89a52acd78544fdac9ba3e33d399d5be583c458742c5fa534a445865b9d8",
      "v": 27,
      "creates": null,
      "raw": "0xf86b3e850ba43b7400825208947deb6b0ca66094cfedd3ad019ae6a2611e83aff5871fcbfa42bd6000801ba0554e4dc77d58e32b284573b9e0ca3481fc48933d3f97066928682d23b1389245a07f5a89a52acd78544fdac9ba3e33d399d5be583c458742c5fa534a445865b9d8",
      "networkId": 0,
      "chainId": 0
    }
  ]
}