{
  "hash": "0x30c17a17348866d05a6d7806e683a8405afcc151070df73da27a4ca6fda00fb8",
  "parentHash": "0xb175d3223451640771cef8101c1e3f07f7d33cd9c18fb7657b0cb371beaaf16a",
  "number": 74867,
  "timestamp": 1439393835,
  "nonce": "0x77503ba24035b73e",
  "difficulty": 2190198330345,
  "gasLimit": {
    "_hex": "0x2fefd8"
  },
  "gasUsed": {
    "_hex": "0xa410"
  },
  "miner": "0x31995C46B15C84523cDEE26f49A681b8237e43F5",
  "extraData": "0x476574682f76312e302e312f77696e646f77732f676f312e342e32",
  "transactions": [
    {
      "hash": "0x8afe5be368771a157bf3b112d4538e68a88d171eb0fc88feb28f87b181aea610",
      "blockHash": "0x30c17a17348866d05a6d7806e683a8405afcc151070df73da27a4ca6fda00fb8",
      "blockNumber": 74867,
      "transactionIndex": 0,
      "confirmations": null,
      "from": "0x9746c7e1ef2bd21FF3997fa467593a89cb852BD0",
      "gasPrice": {
        "_hex": "0xd0a0db248"
      },
      "gasLimit": {
        "_hex": "0x5208"
      },
      "to": "0xB0bF4A71F730782368Ef660FE6D298F432F95450",
      "value": {
        "_hex": "0xad78ebc5ac6200000"
      },
      "nonce": 19,
      "data": "0x",
      "r": "0xfc02e8ea7647e945d5ed32184f03508741b0a0418ed73f852850cf848144010a",
      "s": "0x213c30da2388bd65cfa93ea0355e8e819d77e9b850aeeca5cdb78b4872530679",
      "v": 27,
      "creates": null,
      "raw": "0xf86d13850d0a0db24882520894b0bf4a71f730782368ef660fe6d298f432f95450890ad78ebc5ac6200000801ba0fc02e8ea7647e945d5ed32184f03508741b0a0418ed73f852850cf848144010aa0213c30da2388bd65cfa93ea0355e8e819d77e9b850aeeca5cdb78b4872530679",
      "networkId": 0,
      "chainId": 0
    },
    {
      "hash": "0x622f4f1089428b9d223359096e826201ec9877d5bed5509fe451e6152e751d81",
      "blockHash": "0x30c17a17348866d05a6d7806e683a8405afcc151070df73da27a4ca6fda00fb8",
      "blockNumber": 74867,
      "transactionIndex": 1,
      "confirmations": null,
      "from": "0x120A270bbC009644e35F0bB6ab13f95b8199c4ad",
      "gasPrice": {
        "_hex": "0xccaac7287"
      },
      "gasLimit": {
        "_hex": "0x15f90"
      },
      "to": "0xEB3090f39ca19EB8F97B5969e1F9b7Cd524fFdb7",
      "value": {
        "_hex": "0x241c44ea9e26de4c00"
      },
      "nonce": 285,
      "data": "0x",
      "r": "0x10f9a0af8f6c19dc13fbe56c857d8a966de0312c53a6316232fab652f2314660",
      "s": "0x76bdac1c9b033ccf54ff133e8a671c4ccbe1762b062089b914a742dfeabd8ccc",
      "v": 27,
      "creates": null,
      "raw": "0xf87082011d850ccaac728783015f9094eb3090f39ca19eb8f97b5969e1f9b7cd524ffdb789241c44ea9e26de4c00801ba010f9a0af8f6c19dc13fbe56c857d8a966de0312c53a6316232fab652f2314660a076bdac1c9b033ccf54ff133e8a671c4ccbe1762b062089b914a742dfeabd8ccc",
      "networkId": 0,
      "chainId": 0
    }
  ]
}