{
  "hash": "0x098194b2530cf2b715caeeb7a9a8d59a99c7b4a2b0ea65d66403a7ac43db9168",
  "parentHash": "0xd0d648a9fadbf32d1f34af5a2668113d686ad664fa9f8f3c398cbbb3ad225c3c",
  "number": 107851,
  "timestamp": 1439929745,
  "nonce": "0x7a85f4ce13a47f81",
  "difficulty": 4398361267391,
  "gasLimit": {
    "_hex": "0x2fefd8"
  },
  "gasUsed": {
    "_hex": "0x5208"
  },
  "miner": "0xe6A7a1d47ff21B6321162AEA7C6CB457D5476Bca",
  "extraData": "0x476574682f76312e302e312d38326566323666362f6c696e75782f676f312e34",
  "transactions": [
    {
      "hash": "0xffcdd4996b87a4beba51be0c9e962b8c1f9f6d42be0f28917435bbd006311bbd",
      "blockHash": "0x098194b2530cf2b715caeeb7a9a8d59a99c7b4a2b0ea65d66403a7ac43db9168",
      "blockNumber": 107851,
      "transactionIndex": 0,
      "confirmations": null,
      "from": "0x00f222E7C680F9932feCAC767cC279C84C0A3285",
      "gasPrice": {
        "_hex": "0xba43b7400"
      },
      "gasLimit": {
        "_hex": "0x9965e"
      },
      "to": "0x2FdA34cB6C13420bA8b8Af3cB1BA4F7CBb167821",
      "value": {
        "_hex": "0x2386f26fc10000"
      },
      "nonce": 6,
      "data": "0x",
      "r": "0x14286152866cecead5c3912b04e873b13d3734b7cb1560f1ae856e06713edccf",
      "s": "0x72b11c134dc2f6c756ae605907170061044ec78e0e169dcfc5bbc2f1446836dc",
      "v": 28,
      "creates": null,
      "raw": "0xf86c06850ba43b74008309965e942fda34cb6c13420ba8b8af3cb1ba4f7cbb167821872386f26fc10000801ca014286152866cecead5c3912b04e873b13d3734b7cb1560f1ae856e06713edccfa072b11c134dc2f6c756ae605907170061044ec78e0e169dcfc5bbc2f1446836dc",
      "networkId": 0,
      "chainId": 0
    }
  ]
}