{
  "hash": "0x4997bd7d96fe878cf1d54ec1e46f46a592fac46ec94debe39e17a09334820895",
  "parentHash": "0xb701533583a9eca7e597c09d31932baaa1c1be10ad3783628ba3177aca0e3c4c",
  "number": 96603,
  "timestamp": 1439742900,
  "nonce": "0x98ae87105ad12936",
  "difficulty": 3716011850891,
  "gasLimit": {
    "_hex": "0x2fefd8"
  },
  "gasUsed": {
    "_hex": "0x546c"
  },
  "miner": "0xe6A7a1d47ff21B6321162AEA7C6CB457D5476Bca",
  "extraData": "0x476574682f76312e302e312d38326566323666362f6c696e75782f676f312e34",
  "transactions": [
    {
      "hash": "0x19b51fdf43e06303615fbbf5504c8c35d83c31a4958651496028f0aaa40dc9ba",
      "blockHash": "0x4997bd7d96fe878cf1d54ec1e46f46a592fac46ec94debe39e17a09334820895",
      "blockNumber": 96603,
      "transactionIndex": 0,
      "confirmations": null,
      "from": "0x8F0aB894Bd3F4E697DBCfb859D497a9ba195994A",
      "gasPrice": {
        "_hex": "0x110c8f7d8de"
      },
      "gasLimit": {
        "_hex": "0xc350"
      },
      "to": "0x2910543Af39abA0Cd09dBb2D50200b3E800A63D2",
      "value": {
        "_hex": "0x1b1ae4d6e2ef500000"
      },
      "nonce": 0,
      "data": "0x454e51393041375947",
      "r": "0x4bf0bdd0fcf3d3ea25fceae97dcd343a327bd5b11a89ba971d8a519f51cf3a3e",
      "s": "0xb6d5c22e47aa4e1c4b5d2b093dfff3fb4490fc6109c88567144f45c877a6e69b",
      "v": 28,
      "creates": null,
      "raw": "0xf87780860110c8f7d8de82c350942910543af39aba0cd09dbb2d50200b3e800a63d2891b1ae4d6e2ef50000089454e513930413759471ca04bf0bdd0fcf3d3ea25fceae97dcd343a327bd5b11a89ba971d8a519f51cf3a3ea0b6d5c22e47aa4e1c4b5d2b093dfff3fb4490fc6109c88567144f45c877a6e69b",
      "networkId": 0,
      "chainId": 0
    }
  ]
}