{
  "hash": "0x3022de50a70f16ad79fb6db6190791762eb3e6d4751feae37ba7eda4e7399d52",
  "parentHash": "0x06d40f251749a3176db0031105c6d3f66be48241aa9d6d2fa3e27821d7092b36",
  "number": 64129,
  "timestamp": 1439215747,
  "nonce": "0x3859b81ca2a4e880",
  "difficulty": 1862996514369,
  "gasLimit": {
    "_hex": "0x2fefd8"
  },
  "gasUsed": {
    "_hex": "0x5cec"
  },
  "miner": "0x31995C46B15C84523cDEE26f49A681b8237e43F5",
  "extraData": "0x476574682f76312e302e312f77696e646f77732f676f312e342e32",
  "transactions": [
    {
      "hash": "0xa742faf3deb52ae516e3b9abafc858e221325a1bbf4f85707565c99509f6b7df",
      "blockHash": "0x3022de50a70f16ad79fb6db6190791762eb3e6d4751feae37ba7eda4e7399d52",
      "blockNumber": 64129,
      "transactionIndex": 0,
      "confirmations": null,
      "from": "0xF070bCfeD253b1DDd1989C2Db18B5cD92Df0bDc6",
      "gasPrice": {
        "_hex": "0xcfbe898d2"
      },
      "gasLimit": {
        "_hex": "0x15f90"
      },
      "to": "0x21641Fa7Efc05E776dA24d7e1046e68B2dd09Adf",
      "value": {
        "_hex": "0xde0b6b3a7640000"
      },
      "nonce": 4,
      "data": "0x20416c65632077617320686572652120687474703a2f2f616c65637261736d757373656e2e636f6d20",
      "r": "0x8e581520b12acd07eddcbd2db3cde6a4de6dc874392f2d9434b4a3921f1ef3fd",
      "s": "0x67b661a2e831e5d9ca7b86ef4bf46e4b0d178903d9375c61e46c312678f89df0",
      "v": 27,
      "creates": null,
      "raw": "0xf89604850cfbe898d283015f909421641fa7efc05e776da24d7e1046e68b2dd09adf880de0b6b3a7640000a920416c65632077617320686572652120687474703a2f2f616c65637261736d757373656e2e636f6d201ba08e581520b12acd07eddcbd2db3cde6a4de6dc874392f2d9434b4a3921f1ef3fda067b661a2e831e5d9ca7b86ef4bf46e4b0d178903d9375c61e46c312678f89df0",
      "networkId": 0,
      "chainId": 0
    }
  ]
}