{
  "hash": "0xe6d5e2f06161e75088517bef3fcc2d650b74ac4f3145435967ba61d33ea573da",
  "parentHash": "0x13cb5412702ba211c76bda8bcdcaaa844164f48122d284ccd947bee524655320",
  "number": 114017,
  "timestamp": 1440033441,
  "nonce": "0xedb013d6085bdc37",
  "difficulty": 4438260913338,
  "gasLimit": {
    "_hex": "0x2fefd8"
  },
  "gasUsed": {
    "_hex": "0x5208"
  },
  "miner": "0x52bc44d5378309EE2abF1539BF71dE1b7d7bE3b5",
  "extraData": "0x476574682f76312e302e312d39353236303766382f6c696e75782f676f312e34",
  "transactions": [
    {
      "hash": "0x71577dd9644a9d2aca7c792633ce8bc0f97992e5c30ecf4cde55dac78b5fa606",
      "blockHash": "0xe6d5e2f06161e75088517bef3fcc2d650b74ac4f3145435967ba61d33ea573da",
      "blockNumber": 114017,
      "transactionIndex": 0,
      "confirmations": null,
      "from": "0x1A22137e525478043F6E1394849e6C23932786C9",
      "gasPrice": {
        "_hex": "0xe0f66271c"
      },
      "gasLimit": {
        "_hex": "0x5208"
      },
      "to": "0x0a41Be86378F36BA0823db204723693c0836a3E9",
      "value": {
        "_hex": "0x8ac2a1a5562fcf20"
      },
      "nonce": 7,
      "data": "0x",
      "r": "0x7da1ae9705be5d20ad53f7cacdce1aff90f15b66dec90d619ad5797596bf982a",
      "s": "0x6025436df9df1bda70a446075c9d7d0a6cb7f65d1c92905da0b7bb76a1075a80",
      "v": 27,
      "creates": null,
      "raw": "0xf86c07850e0f66271c825208940a41be86378f36ba0823db204723693c0836a3e9888ac2a1a5562fcf20801ba07da1ae9705be5d20ad53f7cacdce1aff90f15b66dec90d619ad5797596bf982aa06025436df9df1bda70a446075c9d7d0a6cb7f65d1c92905da0b7bb76a1075a80",
      "networkId": 0,
      "chainId": 0
    }
  ]
}