{
  "hash": "0x7546973e096c25b7940673864693e2aef8e6343d76127705255d59dcf09b3685",
  "parentHash": "0x356b986bada277a31cc27f81e319644d60168e6741e242bb44d13d847851f8a7",
  "number": 97324,
  "timestamp": 1439754398,
  "nonce": "0x141c7215fa325b9d",
  "difficulty": 3783431749000,
  "gasLimit": {
    "_hex": "0x2fefd8"
  },
  "gasUsed": {
    "_hex": "0x15738"
  },
  "miner": "0x9746c7e1ef2bd21FF3997fa467593a89cb852BD0",
  "extraData": "0x476574682f76312e302e312f77696e646f77732f676f312e342e32",
  "transactions": [
    {
      "hash": "0xb9fa3f2728b22e8ce736d4ebdc41f2b196e23fca2b82b4bcf88eef5af0a6e4e6",
      "blockHash": "0x7546973e096c25b7940673864693e2aef8e6343d76127705255d59dcf09b3685",
      "blockNumber": 97324,
      "transactionIndex": 0,
      "confirmations": null,
      "from": "0xc469E0161968f12A38E4c1A1c153a18207e040c8",
      "gasPrice": {
        "_hex": "0xcf7d74c5a"
      },
      "gasLimit": {
        "_hex": "0x3d090"
      },
      "to": "0x4d6387f3B967dA39B11DE111158D49754C31985d",
      "value": {
        "_hex": "0x0"
      },
      "nonce": 7,
      "data": "0xf010264a000000000000000000000000000000000000000000000000000000000000000300000000000000000000000000000000000000000000000000000000000000a0000000000000000000000000000000000000000000000000016345785d8a0000000000000000000000000000c469e0161968f12a38e4c1a1c153a18207e040c8000000000000000000000000947c69b054bd430474c0bdfb47f3476276004ea20000000000000000000000000000000000000000000000000000000000000022314858416b567468516268586d3861365a755a41374c4759685a6a66734243347954000000000000000000000000000000000000000000000000000000000000",
      "r": "0x012027175122eb92c040bd3cf99e6c8e08f6cbe3793d6aa754a7d3694647efa7",
      "s": "0x7bf1987af786271c0e15d06ce7d167e018901cca0c87057c1e3fb6457ab5a518",
      "v": 28,
      "creates": null,
      "raw": "0xf9016b07850cf7d74c5a8303d090944d6387f3b967da39b11de111158d49754c31985d80b90104f010264a000000000000000000000000000000000000000000000000000000000000000300000000000000000000000000000000000000000000000000000000000000a0000000000000000000000000000000000000000000000000016345785d8a0000000000000000000000000000c469e0161968f12a38e4c1a1c153a18207e040c8000000000000000000000000947c69b054bd430474c0bdfb47f3476276004ea20000000000000000000000000000000000000000000000000000000000000022314858416b567468516268586d3861365a755a41374c4759685a6a667342433479540000000000000000000000000000000000000000000000000000000000001ca0012027175122eb92c040bd3cf99e6c8e08f6cbe3793d6aa754a7d3694647efa7a07bf1987af786271c0e15d06ce7d167e018901cca0c87057c1e3fb6457ab5a518",
      "networkId": 0,
      "chainId": 0
    },
    {
      "hash": "0xb210fcc71c904713cc858de65e07a3c6894f91e2a7faf685ebff185b9e8121e8",
      "blockHash": "0x7546973e096c25b7940673864693e2aef8e6343d76127705255d59dcf09b3685",
      "blockNumber": 97324,
      "transactionIndex": 1,
      "confirmations": null,
      "from": "0xc469E0161968f12A38E4c1A1c153a18207e040c8",
      "gasPrice": {
        "_hex": "0xcf7d74c5a"
      },
      "gasLimit": {
        "_hex": "0x3d090"
      },
      "to": "0x4d6387f3B967dA39B11DE111158D49754C31985d",
      "value": {
        "_hex": "0x0"
      },
      "nonce": 8,
      "data": "0xf010264a000000000000000000000000000000000000000000000000000000000000000300000000000000000000000000000000000000000000000000000000000000a0000000000000000000000000000000000000000000000000016345785d8a0000000000000000000000000000c469e0161968f12a38e4c1a1c153a18207e040c800000000000000000000000067fae9d4a238f21e2ff99c39767f2264c576b4fc0000000000000000000000000000000000000000000000000000000000000022314858416b567468516268586d3861365a755a41374c4759685a6a66734243347954000000000000000000000000000000000000000000000000000000000000",
      "r": "0x8af59fbfbff2ab04feb779251862b3dd4804ab07e15835625f9f708f41ee2c7a",
      "s": "0x78f32f63f9057ea1589e52eb0d0aceec379abcd0c556f0a92bf5f6d3e5da4b90",
      "v": 27,
      "creates": null,
      "raw": "0xf9016b08850cf7d74c5a8303d090944d6387f3b967da39b11de111158d49754c31985d80b90104f010264a000000000000000000000000000000000000000000000000000000000000000300000000000000000000000000000000000000000000000000000000000000a0000000000000000000000000000000000000000000000000016345785d8a0000000000000000000000000000c469e0161968f12a38e4c1a1c153a18207e040c800000000000000000000000067fae9d4a238f21e2ff99c39767f2264c576b4fc0000000000000000000000000000000000000000000000000000000000000022314858416b567468516268586d3861365a755a41374c4759685a6a667342433479540000000000000000000000000000000000000000000000000000000000001ba08af59fbfbff2ab04feb779251862b3dd4804ab07e15835625f9f708f41ee2c7aa078f32f63f9057ea1589e52eb0d0aceec379abcd0c556f0a92bf5f6d3e5da4b90",
      "networkId": 0,
      "chainId": 0
    }
  ]
}