{
  "hash": "0x7a94ce754c54fdce2f62ff653148a80d8892b23da212e93dd0a2b7f43c40e154",
  "parentHash": "0xcab8ca25882281f4c2c12ba155e28be363754c08c52297024c0bb9a94abfbfbb",
  "number": 98193,
  "timestamp": 1439768507,
  "nonce": "0xa3a71442f3393677",
  "difficulty": 3874643498295,
  "gasLimit": {
    "_hex": "0x2fefd8"
  },
  "gasUsed": {
    "_hex": "0x5208"
  },
  "miner": "0x47ff6576639c2e94762eA5443978D7681C0E78DC",
  "extraData": "0x476574682f76312e302e312f6c696e75782f676f312e342e32",
  "transactions": [
    {
      "hash": "0x4b6bd5b552059ef39c6b48e88887b2f803ac0f0236c1bdd1a941d0815119757c",
      "blockHash": "0x7a94ce754c54fdce2f62ff653148a80d8892b23da212e93dd0a2b7f43c40e154",
      "blockNumber": 98193,
      "transactionIndex": 0,
      "confirmations": null,
      "from": "0x32Be343B94f860124dC4fEe278FDCBD38C102D88",
      "gasPrice": {
        "_hex": "0xcd8562800"
      },
      "gasLimit": {
        "_hex": "0x5208"
      },
      "to": "0x29062F7438d8fa6ac773F453E356A34542b6f2AF",
      "value": {
        "_hex": "0xbdbc41e0348b300000"
      },
      "nonce": 1032,
      "data": "0x",
      "r": "0x691f85798a599e0b618911b4e5c3aec5b1edf5a8c73df59c6ec73ef2f66d6218",
      "s": "0x716e18bc07fbbd19550c13e6105cd836143f4e57ff760e131978b46a1a4f1534",
      "v": 27,
      "creates": null,
      "raw": "0xf86f820408850cd85628008252089429062f7438d8fa6ac773f453e356a34542b6f2af89bdbc41e0348b300000801ba0691f85798a599e0b618911b4e5c3aec5b1edf5a8c73df59c6ec73ef2f66d6218a0716e18bc07fbbd19550c13e6105cd836143f4e57ff760e131978b46a1a4f1534",
      "networkId": 0,
      "chainId": 0
    }
  ]
}