{
  "hash": "0xc6c3a66c9d1e9fca7c7233ec88eb2f21bd42ed4b186824bb47b1c52302ac0e05",
  "parentHash": "0x1ce9c6e625d84c953b17e49b600a947f662bd8e54ed163e0b1c2863249b6dab9",
  "number": 87357,
  "timestamp": 1439591008,
  "nonce": "0x7915d624844a076d",
  "difficulty": 3108268146812,
  "gasLimit": {
    "_hex": "0x2fefd8"
  },
  "gasUsed": {
    "_hex": "0x5208"
  },
  "miner": "0xe6A7a1d47ff21B6321162AEA7C6CB457D5476Bca",
  "extraData": "0x476574682f76312e302e312d38326566323666362f6c696e75782f676f312e34",
  "transactions": [
    {
      "hash": "0xdf5338834296db0da8fc3e8fa9b803d93b752358770f292ddc8e1f1ec0ab7fa7",
      "blockHash": "0xc6c3a66c9d1e9fca7c7233ec88eb2f21bd42ed4b186824bb47b1c52302ac0e05",
      "blockNumber": 87357,
      "transactionIndex": 0,
      "confirmations": null,
      "from": "0x120A270bbC009644e35F0bB6ab13f95b8199c4ad",
      "gasPrice": {
        "_hex": "0xdc5462f4d"
      },
      "gasLimit": {
        "_hex": "0x15f90"
      },
      "to": "0xc5623FA5c297c05c2d965A336b2068CfA0e567FA",
      "value": {
        "_hex": "0x1944f57545f8d67c00"
      },
      "nonce": 498,
      "data": "0x",
      "r": "0xad7109748cc5059274750380e3cd40dd05d19bec9cdaf3d42ab62809c9a056b4",
      "s": "0x5a946c5f890b4b073464f11d8494090f8e545af7203882fc360cc15c1dc22af2",
      "v": 27,
      "creates": null,
      "raw": "0xf8708201f2850dc5462f4d83015f9094c5623fa5c297c05c2d965a336b2068cfa0e567fa891944f57545f8d67c00801ba0ad7109748cc5059274750380e3cd40dd05d19bec9cdaf3d42ab62809c9a056b4a05a946c5f890b4b073464f11d8494090f8e545af7203882fc360cc15c1dc22af2",
      "networkId": 0,
      "chainId": 0
    }
  ]
}