{
  "hash": "0x648e4daf41fa9491f611dad9eb8a4157108535a3f955b9e41a5e1af6e963a177",
  "parentHash": "0x502c143840b060b68b9a28bba33746c1ae6941a579f7bef6ad98d6fb14ea20a3",
  "number": 103202,
  "timestamp": 1439849444,
  "nonce": "0xcd75d6e5d0c08322",
  "difficulty": 4189032608330,
  "gasLimit": {
    "_hex": "0x2fefd8"
  },
  "gasUsed": {
    "_hex": "0x5208"
  },
  "miner": "0x790b8a3cE86E707ED0eD32bF89B3269692a23CC1",
  "extraData": "0xd783010001844765746887676f312e342e32856c696e7578",
  "transactions": [
    {
      "hash": "0xb4cb45ae61d3db99725c179719f99ebf0bd91b9920221513d7905e5095151f39",
      "blockHash": "0x648e4daf41fa9491f611dad9eb8a4157108535a3f955b9e41a5e1af6e963a177",
      "blockNumber": 103202,
      "transactionIndex": 0,
      "confirmations": null,
      "from": "0x007f7f58D3eb5b7510A301eCC749FC1fCDDBE14D",
      "gasPrice": {
        "_hex": "0xe0cfe7246"
      },
      "gasLimit": {
        "_hex": "0x15f90"
      },
      "to": "0xb1abce2918E21ddb93AA452731a12672A3d9F75a",
      "value": {
        "_hex": "0x4563918244f40000"
      },
      "nonce": 222,
      "data": "0x",
      "r": "0x318d86cac5635901a72fa3905823060f97bd242de23117102edb5e6569e0ae07",
      "s": "0x249103a2da22c48f2157e6c4d8d08b046f9687007d934e886d69d25cdbeb971f",
      "v": 27,
      "creates": null,
      "raw": "0xf86e81de850e0cfe724683015f9094b1abce2918e21ddb93aa452731a12672a3d9f75a884563918244f40000801ba0318d86cac5635901a72fa3905823060f97bd242de23117102edb5e6569e0ae07a0249103a2da22c48f2157e6c4d8d08b046f9687007d934e886d69d25cdbeb971f",
      "networkId": 0,
      "chainId": 0
    }
  ]
}