{
  "hash": "0x2e0023f0dab5cdef471fbd7caad8171fd9a45f2e874f96419407615f0317fdb2",
  "parentHash": "0xed3cc5fb0c609870f37b62feafb52c561b424633edebd06c797ea0b424622726",
  "number": 121596,
  "timestamp": 1440179651,
  "nonce": "0x660e05d91abe3433",
  "difficulty": 4449434881704,
  "gasLimit": {
    "_hex": "0x2fefd8"
  },
  "gasUsed": {
    "_hex": "0x5208"
  },
  "miner": "0xEF247E639d49461D25F57e9362CadE3120910Ce0",
  "extraData": "0x476574682f76312e302e322f6c696e75782f676f312e342e32",
  "transactions": [
    {
      "hash": "0xc0883da744350f57003595c3f336b41a2cb1eab449f810bd88d961907d12ede5",
      "blockHash": "0x2e0023f0dab5cdef471fbd7caad8171fd9a45f2e874f96419407615f0317fdb2",
      "blockNumber": 121596,
      "transactionIndex": 0,
      "confirmations": null,
      "from": "0x608f4b86321a68453f9adf6F06F7Fc3E621739ad",
      "gasPrice": {
        "_hex": "0xba43b7400"
      },
      "gasLimit": {
        "_hex": "0x5208"
      },
      "to": "0x32Be343B94f860124dC4fEe278FDCBD38C102D88",
      "value": {
        "_hex": "0x455fd68a17f06000"
      },
      "nonce": 107,
      "data": "0x",
      "r": "0x48ab8dc1fc24c96081f8205baaa2b0e33bf792a80a9f5067d569afcfff4cc7d3",
      "s": "0x54411c5569958a05bc3a7039c07af6662427667e444ec15f17f9b6f59b99a48c",
      "v": 27,
      "creates": null,
      "raw": "0xf86c6b850ba43b74008252089432be343b94f860124dc4fee278fdcbd38c102d8888455fd68a17f06000801ba048ab8dc1fc24c96081f8205baaa2b0e33bf792a80a9f5067d569afcfff4cc7d3a054411c5569958a05bc3a7039c07af6662427667e444ec15f17f9b6f59b99a48c",
      "networkId": 0,
      "chainId": 0
    }
  ]
}