{
  "hash": "0x209d80658c13bdb007b1c45ce993a21b59d7e890613fcac302bfd5a455b707a8",
  "parentHash": "0xc156599b1b919b20071c5c77eeb0ef3e4ef9e511ff556b53cedc773197b63ba8",
  "number": 117302,
  "timestamp": 1440107138,
  "nonce": "0x882a8338e9ea9b85",
  "difficulty": 4318963919686,
  "gasLimit": {
    "_hex": "0x2fefd8"
  },
  "gasUsed": {
    "_hex": "0x5208"
  },
  "miner": "0xe6A7a1d47ff21B6321162AEA7C6CB457D5476Bca",
  "extraData": "0xd783010002844765746887676f312e342e32856c696e7578",
  "transactions": [
    {
      "hash": "0x7517992c10a220f109166bdfd0ddb0d090df8e65abf3afb68cdc81219a2f9fc7",
      "blockHash": "0x209d80658c13bdb007b1c45ce993a21b59d7e890613fcac302bfd5a455b707a8",
      "blockNumber": 117302,
      "transactionIndex": 0,
      "confirmations": null,
      "from": "0x7eD2359220bC2A40b70C40350EcAb732B39c0eF4",
      "gasPrice": {
        "_hex": "0xcef95c73b"
      },
      "gasLimit": {
        "_hex": "0x15f90"
      },
      "to": "0x04455296AB1f01C09050A906d4476480Cc7583d4",
      "value": {
        "_hex": "0x15af1d78b58c40000"
      },
      "nonce": 3,
      "data": "0x",
      "r": "0xfa892e646ca57b65574c4f08acda3b59e4884d1718ae5fcd94de1b14f2708eea",
      "s": "0x681f577030068c764de1ceea7811e58ff1047a4daadd2ba6c20a30fb4701f32f",
      "v": 27,
      "creates": null,
      "raw": "0xf86e03850cef95c73b83015f909404455296ab1f01c09050a906d4476480cc7583d489015af1d78b58c40000801ba0fa892e646ca57b65574c4f08acda3b59e4884d1718ae5fcd94de1b14f2708eeaa0681f577030068c764de1ceea7811e58ff1047a4daadd2ba6c20a30fb4701f32f",
      "networkId": 0,
      "chainId": 0
    }
  ]
}