{
  "hash": "0x4542b83238ada11cf5fe4e86c096cc7eac22299b8f5dde712ff265681dd654f9",
  "parentHash": "0xdd9f7dddafdab2a5e7e69e73ba8fba853cf9ed002182cbdcaaf1ed8ca7f9ff19",
  "number": 120687,
  "timestamp": 1440164240,
  "nonce": "0xebdd6f96caf97a6e",
  "difficulty": 4421759968451,
  "gasLimit": {
    "_hex": "0x2fefd8"
  },
  "gasUsed": {
    "_hex": "0x5208"
  },
  "miner": "0x53824166ea5271d3425e3194c848A90CA4e97eB2",
  "extraData": "0x",
  "transactions": [
    {
      "hash": "0x479d459a4c8432eb8a34c880d4313b93b4292bfaf3bf862a694169ee1e80ffe7",
      "blockHash": "0x4542b83238ada11cf5fe4e86c096cc7eac22299b8f5dde712ff265681dd654f9",
      "blockNumber": 120687,
      "transactionIndex": 0,
      "confirmations": null,
      "from": "0x32Be343B94f860124dC4fEe278FDCBD38C102D88",
      "gasPrice": {
        "_hex": "0xba43b7400"
      },
      "gasLimit": {
        "_hex": "0x5208"
      },
      "to": "0xC1a85A12432EC645dD75b7BE7C26554e9C57a4CE",
      "value": {
        "_hex": "0x16a23f08ab0ac00000"
      },
      "nonce": 1535,
      "data": "0x",
      "r": "0x907ae54e5a88fd3892b26a651111d1592c9efdf07f28114bb0db72f3db22ae36",
      "s": "0x75d1af17f2dddec88ebd6d40cb58dbd9ffe9eaed31da49ab5c0c682d3fd999aa",
      "v": 28,
      "creates": null,
      "raw": "0xf86f8205ff850ba43b740082520894c1a85a12432ec645dd75b7be7c26554e9c57a4ce8916a23f08ab0ac00000801ca0907ae54e5a88fd3892b26a651111d1592c9efdf07f28114bb0db72f3db22ae36a075d1af17f2dddec88ebd6d40cb58dbd9ffe9eaed31da49ab5c0c682d3fd999aa",
      "networkId": 0,
      "chainId": 0
    }
  ]
}