{
  "hash": "0x43f96c7a6db7b0f9edf5a195d706fbf9708962a99576b243de986fad1b1aaadc",
  "parentHash": "0x750b038927737889546091ee2668439dcb70eebedea0ee662c23f98df73eb6d0",
  "number": 55239,
  "timestamp": 1439067458,
  "nonce": "0x3364f4503b35bd7c",
  "difficulty": 1641017200464,
  "gasLimit": {
    "_hex": "0x2fefd8"
  },
  "gasUsed": {
    "_hex": "0x70e0"
  },
  "miner": "0xeB1325C8D9d3ea8D74aC11F4B00F1B2367686319",
  "extraData": "0x476574682f76312e302e312f77696e646f77732f676f312e342e32",
  "transactions": [
    {
      "hash": "0x63e2fb3dc2e2380af459d3fd2ff006d462320108fb2aa742e810017f77f6b92b",
      "blockHash": "0x43f96c7a6db7b0f9edf5a195d706fbf9708962a99576b243de986fad1b1aaadc",
      "blockNumber": 55239,
      "transactionIndex": 0,
      "confirmations": null,
      "from": "0xc70bA22fe446A85A247bf85BaD1AdDf3ddaF62E9",
      "gasPrice": {
        "_hex": "0xd44f7e050"
      },
      "gasLimit": {
        "_hex": "0x15f90"
      },
      "to": "0x7320f8461BbC8104c677FeC0429cC0d963a5Ac40",
      "value": {
        "_hex": "0x0"
      },
      "nonce": 5,
      "data": "0x4e71d92d",
      "r": "0x098bfb41c204f01ae69c3c09f330a79f60ac28331272357f5674363a795ea171",
      "s": "0x7289abc4ed220013e9828a6df7a48babab98d31d3cbfabcc0db7dd2ae78a2e8d",
      "v": 28,
      "creates": null,
      "raw": "0xf86905850d44f7e05083015f90947320f8461bbc8104c677fec0429cc0d963a5ac4080844e71d92d1ca0098bfb41c204f01ae69c3c09f330a79f60ac28331272357f5674363a795ea171a07289abc4ed220013e9828a6df7a48babab98d31d3cbfabcc0db7dd2ae78a2e8d",
      "networkId": 0,
      "chainId": 0
    }
  ]
}