{
  "hash": "0x2ac964d5d3f56b5b20bcbd504f9f680b10aa2601ec799f42c82eb4dfce8babf7",
  "parentHash": "0xb5cf29e80f9a4a56958698ded17eb8a56646c422b12b6e9f2fc340fce0d61c6e",
  "number": 102013,
  "timestamp": 1439831391,
  "nonce": "0x1ab41692f1dbefe7",
  "difficulty": 3922360308440,
  "gasLimit": {
    "_hex": "0x2fefd8"
  },
  "gasUsed": {
    "_hex": "0x5208"
  },
  "miner": "0xe6A7a1d47ff21B6321162AEA7C6CB457D5476Bca",
  "extraData": "0x476574682f76312e302e312d38326566323666362f6c696e75782f676f312e34",
  "transactions": [
    {
      "hash": "0x9f428b54f4366d8a5c6831b60a5cea618e8f7979ce367da8a44c50ddc9710321",
      "blockHash": "0x2ac964d5d3f56b5b20bcbd504f9f680b10aa2601ec799f42c82eb4dfce8babf7",
      "blockNumber": 102013,
      "transactionIndex": 0,
      "confirmations": null,
      "from": "0x6De181Fc4C140FA31F196e5393516c49EEeBdAd3",
      "gasPrice": {
        "_hex": "0xdf20e1ff9"
      },
      "gasLimit": {
        "_hex": "0x5208"
      },
      "to": "0x32Be343B94f860124dC4fEe278FDCBD38C102D88",
      "value": {
        "_hex": "0x11589ce12b19d3000"
      },
      "nonce": 20,
      "data": "0x",
      "r": "0x7b27524bc111f44e2934445bba4b9a1709ca5ab18924f38a45e2ded6226ce256",
      "s": "0x545b49cc04af34dcbb6bb536cbcd389837172cc10f8661dd1c2903b64196f74a",
      "v": 28,
      "creates": null,
      "raw": "0xf86d14850df20e1ff98252089432be343b94f860124dc4fee278fdcbd38c102d8889011589ce12b19d3000801ca07b27524bc111f44e2934445bba4b9a1709ca5ab18924f38a45e2ded6226ce256a0545b49cc04af34dcbb6bb536cbcd389837172cc10f8661dd1c2903b64196f74a",
      "networkId": 0,
      "chainId": 0
    }
  ]
}