{
  "hash": "0x88e8521b1145fcbebca69dc066b335a088500a7709b18ccb2094132542dbde70",
  "parentHash": "0x00db0370ff2ef9e948d96417df53b98e6ee449597bcd47969a0bf45943ecda46",
  "number": 62227,
  "timestamp": 1439185162,
  "nonce": "0x41e93726a749db88",
  "difficulty": 1778086796864,
  "gasLimit": {
    "_hex": "0x2fefd8"
  },
  "gasUsed": {
    "_hex": "0xddfd"
  },
  "miner": "0xF2d2AfF1320476cb8C6b607199D23175cc595693",
  "extraData": "0x476574682f76312e302e312f77696e646f77732f676f312e342e32",
  "transactions": [
    {
      "hash": "0xe1756dac5ef8296efdb4a754304f97fc6d8cb4096ec675cd303e0398ddb06f8c",
      "blockHash": "0x88e8521b1145fcbebca69dc066b335a088500a7709b18ccb2094132542dbde70",
      "blockNumber": 62227,
      "transactionIndex": 0,
      "confirmations": null,
      "from": "0x008FC7CBAdFFbD0D7fe44F8DFD60a79d721a1c9C",
      "gasPrice": {
        "_hex": "0xcd68a3a9c"
      },
      "gasLimit": {
        "_hex": "0x61a80"
      },
      "to": "0x020522bF9B8eD6FF41E2fa6765a17E20E2767D64",
      "value": {
        "_hex": "0x56bc75e2d63100000"
      },
      "nonce": 2,
      "data": "0x",
      "r": "0x38878a7f9d637583a6c2f7310c48b326b6363a35b1f0a877760347c75ac6407d",
      "s": "0x06ca505206273a7cbdaa0fb7d274b4955540805e419c2dd625047226e01a23fe",
      "v": 27,
      "creates": null,
      "raw": "0xf86e02850cd68a3a9c83061a8094020522bf9b8ed6ff41e2fa6765a17e20e2767d6489056bc75e2d63100000801ba038878a7f9d637583a6c2f7310c48b326b6363a35b1f0a877760347c75ac6407da006ca505206273a7cbdaa0fb7d274b4955540805e419c2dd625047226e01a23fe",
      "networkId": 0,
      "chainId": 0
    }
  ]
}