{
  "hash": "0xbed4360346800759a698e144f828bd510c180620ea6a5afd7a571ebd48d526b2",
  "parentHash": "0x64a5ded14edf9d5fd947bc65199bd85d5af87205c2c73ef5557b35a34b7ff86d",
  "number": 46460,
  "timestamp": 1438923526,
  "nonce": "0x139465f66978bd7d",
  "difficulty": 1467514061446,
  "gasLimit": {
    "_hex": "0x6242"
  },
  "gasUsed": {
    "_hex": "0x5208"
  },
  "miner": "0x47ff6576639c2e94762eA5443978D7681C0E78DC",
  "extraData": "0x476574682f76312e302e312f6c696e75782f676f312e342e32",
  "transactions": [
    {
      "hash": "0xeebcf654a2466b472122aca941543bc53d50c29cb4095559ab12cd5c1df75e94",
      "blockHash": "0xbed4360346800759a698e144f828bd510c180620ea6a5afd7a571ebd48d526b2",
      "blockNumber": 46460,
      "transactionIndex": 0,
      "confirmations": null,
      "from": "0x9746c7e1ef2bd21FF3997fa467593a89cb852BD0",
      "gasPrice": {
        "_hex": "0xf478e08400"
      },
      "gasLimit": {
        "_hex": "0x5208"
      },
      "to": "0xB0bF4A71F730782368Ef660FE6D298F432F95450",
      "value": {
        "_hex": "0x1b1ae4d6e2ef500000"
      },
      "nonce": 1,
      "data": "0x",
      "r": "0x8eaa31b5d3614a6ff2df81a2bf35eaa8bb0b108e62c352c967633197cc3a6ec6",
      "s": "0x7222b7331a1ab2d44972bf63fe3b18495673664685e67fafad7f028e8789b048",
      "v": 27,
      "creates": null,
      "raw": "0xf86d0185f478e0840082520894b0bf4a71f730782368ef660fe6d298f432f95450891b1ae4d6e2ef500000801ba08eaa31b5d3614a6ff2df81a2bf35eaa8bb0b108e62c352c967633197cc3a6ec6a07222b7331a1ab2d44972bf63fe3b18495673664685e67fafad7f028e8789b048",
      "networkId": 0,
      "chainId": 0
    }
  ]
}