{
  "hash": "0x32b45c28f172481e1836ac16eb6900cf25443b5c44a61d91fc69e4280a971045",
  "parentHash": "0x7d1dd1c9a10e080787367903bc5b8dcc2b3fda0f52d82f25b367c0d40aeeb056",
  "number": 73695,
  "timestamp": 1439373225,
  "nonce": "0xe4be6a6801fffa05",
  "difficulty": 2229349728142,
  "gasLimit": {
    "_hex": "0x2fefd8"
  },
  "gasUsed": {
    "_hex": "0x5208"
  },
  "miner": "0x0eDEd3DA479d0beF8eeC92A76644D3f4E3C177f7",
  "extraData": "0x476574682f76312e302e312f6c696e75782f676f312e342e32",
  "transactions": [
    {
      "hash": "0x49a26b5aea0180442921105c03c360bd08785060e7f6c7c3acf4683e22ec66fe",
      "blockHash": "0x32b45c28f172481e1836ac16eb6900cf25443b5c44a61d91fc69e4280a971045",
      "blockNumber": 73695,
      "transactionIndex": 0,
      "confirmations": null,
      "from": "0x19ae27E1b61445EB9f27821A5eB4b3e957319e7e",
      "gasPrice": {
        "_hex": "0xd7bb4f2a3"
      },
      "gasLimit": {
        "_hex": "0x5208"
      },
      "to": "0x32Be343B94f860124dC4fEe278FDCBD38C102D88",
      "value": {
        "_hex": "0x610edef3c9fa4400"
      },
      "nonce": 0,
      "data": "0x",
      "r": "0xf1047774eecf56dded89318155817527605bc780c2beae515d60b06658f6d626",
      "s": "0x6445f8b30c7a215f4d04b1216f849d971ed3a3da28b5952901f5d63cfd43460e",
      "v": 27,
      "creates": null,
      "raw": "0xf86c80850d7bb4f2a38252089432be343b94f860124dc4fee278fdcbd38c102d8888610edef3c9fa4400801ba0f1047774eecf56dded89318155817527605bc780c2beae515d60b06658f6d626a06445f8b30c7a215f4d04b1216f849d971ed3a3da28b5952901f5d63cfd43460e",
      "networkId": 0,
      "chainId": 0
    }
  ]
}