{
  "hash": "0x4f4638da9888769777953602c67cb1a8c030000d99d9693730226385a10678f9",
  "parentHash": "0xa71642b79b42d0a4b821fc6dc9906dc1ab907cda1141f5f853e0986c4c9019b8",
  "number": 85108,
  "timestamp": 1439558581,
  "nonce": "0xd9aa7363b9403dc3",
  "difficulty": 2726411130626,
  "gasLimit": {
    "_hex": "0x2fefd8"
  },
  "gasUsed": {
    "_hex": "0x5208"
  },
  "miner": "0xe6A7a1d47ff21B6321162AEA7C6CB457D5476Bca",
  "extraData": "0x476574682f76312e302e312d38326566323666362f6c696e75782f676f312e34",
  "transactions": [
    {
      "hash": "0xcf1b8bae90f1062c86b3cd8e3e93301d280d8944cc771138ee0fd658d5e6a20e",
      "blockHash": "0x4f4638da9888769777953602c67cb1a8c030000d99d9693730226385a10678f9",
      "blockNumber": 85108,
      "transactionIndex": 0,
      "confirmations": null,
      "from": "0x32Be343B94f860124dC4fEe278FDCBD38C102D88",
      "gasPrice": {
        "_hex": "0xd11066351"
      },
      "gasLimit": {
        "_hex": "0x5208"
      },
      "to": "0x566B3E44014f2a2587e054AdFA915861AE82Fe39",
      "value": {
        "_hex": "0x31ea6dd849a9f2000"
      },
      "nonce": 723,
      "data": "0x",
      "r": "0x922c4ed8c26dfe11c2d8b23f350ec12e8beaf5d812dd30d5bbf10ed09667b563",
      "s": "0x1cc17a7c13ef3aaaae996595a185456b7e63166a5bfb5e35353eb09bb3aa270e",
      "v": 27,
      "creates": null,
      "raw": "0xf86f8202d3850d1106635182520894566b3e44014f2a2587e054adfa915861ae82fe3989031ea6dd849a9f2000801ba0922c4ed8c26dfe11c2d8b23f350ec12e8beaf5d812dd30d5bbf10ed09667b563a01cc17a7c13ef3aaaae996595a185456b7e63166a5bfb5e35353eb09bb3aa270e",
      "networkId": 0,
      "chainId": 0
    }
  ]
}