{
  "hash": "0x6b2dbf9f33cd6b01abf81911c5c62df8d4c68214ffd46e7fedaa3987b3ff0345",
  "parentHash": "0x27fd6882dc7402e02a0d00855d3218c7f75865a7971515cc34f6f179bff36cc6",
  "number": 119639,
  "timestamp": 1440146344,
  "nonce": "0x7f9a41245016c853",
  "difficulty": 4383614743338,
  "gasLimit": {
    "_hex": "0x2fefd8"
  },
  "gasUsed": {
    "_hex": "0xa410"
  },
  "miner": "0x52bc44d5378309EE2abF1539BF71dE1b7d7bE3b5",
  "extraData": "0xd783010002844765746887676f312e342e32856c696e7578",
  "transactions": [
    {
      "hash": "0x78e1fc12f2ea6ddcae86940b108434def1c424ae444b1941f9a6aac77801d1a8",
      "blockHash": "0x6b2dbf9f33cd6b01abf81911c5c62df8d4c68214ffd46e7fedaa3987b3ff0345",
      "blockNumber": 119639,
      "transactionIndex": 0,
      "confirmations": null,
      "from": "0xB9eE81c1A5CdE84454DC603a8000836118627cfd",
      "gasPrice": {
        "_hex": "0xba43b7400"
      },
      "gasLimit": {
        "_hex": "0x5208"
      },
      "to": "0x32Be343B94f860124dC4fEe278FDCBD38C102D88",
      "value": {
        "_hex": "0x2b5dff41e84846000"
      },
      "nonce": 9,
      "data": "0x",
      "r": "0x4aa80df468164b1d94ccc47cbb03fd43c519a0ce495f42e15c34c7d0a634c099",
      "s": "0x59fb86c516befd02b67d298f069dd19e8bb1414bff2759f8bdbbaafd3c9b5aa8",
      "v": 28,
      "creates": null,
      "raw": "0xf86d09850ba43b74008252089432be343b94f860124dc4fee278fdcbd38c102d888902b5dff41e84846000801ca04aa80df468164b1d94ccc47cbb03fd43c519a0ce495f42e15c34c7d0a634c099a059fb86c516befd02b67d298f069dd19e8bb1414bff2759f8bdbbaafd3c9b5aa8",
      "networkId": 0,
      "chainId": 0
    },
    {
      "hash": "0x75df7aefda8ce37867773c14e2b54f230c2c403dc375729bc8fc23ae96e232f2",
      "blockHash": "0x6b2dbf9f33cd6b01abf81911c5c62df8d4c68214ffd46e7fedaa3987b3ff0345",
      "blockNumber": 119639,
      "transactionIndex": 1,
      "confirmations": null,
      "from": "0x931Ac2444b057f80A06A4FB627f26FFA5CE41184",
      "gasPrice": {
        "_hex": "0xba43b7400"
      },
      "gasLimit": {
        "_hex": "0x5208"
      },
      "to": "0x32Be343B94f860124dC4fEe278FDCBD38C102D88",
      "value": {
        "_hex": "0xe80d5854e42a60000"
      },
      "nonce": 13,
      "data": "0x",
      "r": "0x186a5a9ef18f99f1b40ecf6013a66a03be3d6f0488cb287b0ae2302752e108cb",
      "s": "0x6eb51e61c3c1a0ca44e086332700b21b5b4b3cc999c6e4c01707d2c94c664d85",
      "v": 27,
      "creates": null,
      "raw": "0xf86d0d850ba43b74008252089432be343b94f860124dc4fee278fdcbd38c102d88890e80d5854e42a60000801ba0186a5a9ef18f99f1b40ecf6013a66a03be3d6f0488cb287b0ae2302752e108cba06eb51e61c3c1a0ca44e086332700b21b5b4b3cc999c6e4c01707d2c94c664d85",
      "networkId": 0,
      "chainId": 0
    }
  ]
}