{
  "hash": "0x00401483f7c4466f257ca39708cabf277daf2588d69c2db1df6d717bf8d221d9",
  "parentHash": "0xbca932481d64963309dd559bb30faa4d0f05dcfe34b4598dd9d143ef6be60008",
  "number": 90986,
  "timestamp": 1439648483,
  "nonce": "0x6c5492167269fa11",
  "difficulty": 3427316637445,
  "gasLimit": {
    "_hex": "0x2fefd8"
  },
  "gasUsed": {
    "_hex": "0x5208"
  },
  "miner": "0xD0317e8d007a61B8d740516E8a268D4faDADccbF",
  "extraData": "0x",
  "transactions": [
    {
      "hash": "0x27b7537527eff5414f17c5d691da22a4b9d2bfe6ca9b6e345891a42b57b850d2",
      "blockHash": "0x00401483f7c4466f257ca39708cabf277daf2588d69c2db1df6d717bf8d221d9",
      "blockNumber": 90986,
      "transactionIndex": 0,
      "confirmations": null,
      "from": "0x5a0f0935E8E5591B2f9f2d55f29C626B50292088",
      "gasPrice": {
        "_hex": "0xcc16bf939"
      },
      "gasLimit": {
        "_hex": "0x5208"
      },
      "to": "0x32Be343B94f860124dC4fEe278FDCBD38C102D88",
      "value": {
        "_hex": "0x56bb184592b770000"
      },
      "nonce": 18,
      "data": "0x",
      "r": "0xf63890fdfec8840e58c03a78d20bced23c06da168b3fe036be0bc5b40248e308",
      "s": "0x42dd054c8533267cb4ac6dfa5898af98727ac334475aa324823d1b5fb44d8114",
      "v": 28,
      "creates": null,
      "raw": "0xf86d12850cc16bf9398252089432be343b94f860124dc4fee278fdcbd38c102d8889056bb184592b770000801ca0f63890fdfec8840e58c03a78d20bced23c06da168b3fe036be0bc5b40248e308a042dd054c8533267cb4ac6dfa5898af98727ac334475aa324823d1b5fb44d8114",
      "networkId": 0,
      "chainId": 0
    }
  ]
}