{
  "hash": "0x9d12f9c724792d4c49209c46ca1913a1f13c68dc22d0c74448c024c6c6fb2482",
  "parentHash": "0x61f7f21e1678f9662e4826899f6f7214fa33e79b55f14baa5435226b705086ba",
  "number": 121131,
  "timestamp": 1440172038,
  "nonce": "0x1b09f3be5c9bd610",
  "difficulty": 4399989074821,
  "gasLimit": {
    "_hex": "0x2fefd8"
  },
  "gasUsed": {
    "_hex": "0x5208"
  },
  "miner": "0xe6A7a1d47ff21B6321162AEA7C6CB457D5476Bca",
  "extraData": "0xd783010002844765746887676f312e342e32856c696e7578",
  "transactions": [
    {
      "hash": "0x828ed995cc47946611104af02f834085abab35da02727fcc8801a55f3db7cec0",
      "blockHash": "0x9d12f9c724792d4c49209c46ca1913a1f13c68dc22d0c74448c024c6c6fb2482",
      "blockNumber": 121131,
      "transactionIndex": 0,
      "confirmations": null,
      "from": "0x790b8a3cE86E707ED0eD32bF89B3269692a23CC1",
      "gasPrice": {
        "_hex": "0xba43b7400"
      },
      "gasLimit": {
        "_hex": "0x15f90"
      },
      "to": "0x4D67f4F0Db45b3B5a3424B39ed8d972F710381D5",
      "value": {
        "_hex": "0x2c2612051fb620000"
      },
      "nonce": 74,
      "data": "0x",
      "r": "0x16095c83f6178d83cce87954c48a4c88de202768c8bbbe5affad87c83945aa90",
      "s": "0x1002ea1fb1364f2f81fb8841cb109d25d52704ada4fc1b0c11680b5461943d2a",
      "v": 27,
      "creates": null,
      "raw": "0xf86e4a850ba43b740083015f90944d67f4f0db45b3b5a3424b39ed8d972f710381d58902c2612051fb620000801ba016095c83f6178d83cce87954c48a4c88de202768c8bbbe5affad87c83945aa90a01002ea1fb1364f2f81fb8841cb109d25d52704ada4fc1b0c11680b5461943d2a",
      "networkId": 0,
      "chainId": 0
    }
  ]
}