{
  "hash": "0x7a1a41d8f75f733c9da52d7c7bf503a632ebefe395f1c675d493af88277c2d9e",
  "parentHash": "0x6bc3c9238e0b8d8f78538fcc41be2485191e63080a8f28bc8bb2da091136cf93",
  "number": 101067,
  "timestamp": 1439816939,
  "nonce": "0xef44c9c3fa4d6536",
  "difficulty": 3861985242787,
  "gasLimit": {
    "_hex": "0x2fefd8"
  },
  "gasUsed": {
    "_hex": "0x5208"
  },
  "miner": "0xe6A7a1d47ff21B6321162AEA7C6CB457D5476Bca",
  "extraData": "0x476574682f76312e302e312d38326566323666362f6c696e75782f676f312e34",
  "transactions": [
    {
      "hash": "0x6b60514b9d6dfad0a550b09dd836de31fdb257eae268eacfe6e0ad57fc95eb16",
      "blockHash": "0x7a1a41d8f75f733c9da52d7c7bf503a632ebefe395f1c675d493af88277c2d9e",
      "blockNumber": 101067,
      "transactionIndex": 0,
      "confirmations": null,
      "from": "0x007f7f58D3eb5b7510A301eCC749FC1fCDDBE14D",
      "gasPrice": {
        "_hex": "0xe0cfe7246"
      },
      "gasLimit": {
        "_hex": "0x15f90"
      },
      "to": "0xb1abce2918E21ddb93AA452731a12672A3d9F75a",
      "value": {
        "_hex": "0x4563918244f40000"
      },
      "nonce": 177,
      "data": "0x",
      "r": "0x3e23619a84a8e3e8ee1dca4eebe0084f82ce1040675474e4c4c68df6cb7e4ed7",
      "s": "0x34bb3e847b425d9d4772912618bdc424fcc3be233256824c16a36398e9d31fe3",
      "v": 28,
      "creates": null,
      "raw": "0xf86e81b1850e0cfe724683015f9094b1abce2918e21ddb93aa452731a12672a3d9f75a884563918244f40000801ca03e23619a84a8e3e8ee1dca4eebe0084f82ce1040675474e4c4c68df6cb7e4ed7a034bb3e847b425d9d4772912618bdc424fcc3be233256824c16a36398e9d31fe3",
      "networkId": 0,
      "chainId": 0
    }
  ]
}