{
  "hash": "0xf0b866da9056fee85403ebd250c6fc0c5ba3d9775f4305c17588475a1658dc2a",
  "parentHash": "0x1081298f4a22f61cf7d450c25ebcca1993754932c9b9d94dc2577066fe9c2647",
  "number": 115844,
  "timestamp": 1440064408,
  "nonce": "0x0eb0875ee7618fa8",
  "difficulty": 4544740368138,
  "gasLimit": {
    "_hex": "0x2fefd5"
  },
  "gasUsed": {
    "_hex": "0x18326"
  },
  "miner": "0x7E6930B63D03e88F5928C5cd6ee3FCee4D714F7F",
  "extraData": "0x",
  "transactions": [
    {
      "hash": "0xbe218c88cb81638373fbf5aaf19e04f4d0c3b514be33b77a322704e9770381c8",
      "blockHash": "0xf0b866da9056fee85403ebd250c6fc0c5ba3d9775f4305c17588475a1658dc2a",
      "blockNumber": 115844,
      "transactionIndex": 0,
      "confirmations": null,
      "from": "0xddD31eb39D56D51B50172884Bd2b88e1f6264F95",
      "gasPrice": {
        "_hex": "0xcf2b7aec2"
      },
      "gasLimit": {
        "_hex": "0x249f0"
      },
      "to": "0xE28e72FCf78647ADCe1F1252F240bbfaebD63BcC",
      "value": {
        "_hex": "0x3627e8f712373c0000"
      },
      "nonce": 1,
      "data": "0x45466f3a",
      "r": "0x3c9d017cf965a4070350875bbb60f92721b726d354ef72b3b7638774a03b8665",
      "s": "0x47617a9fcda388724ed839545621b84ba4814fefa01a556d00a0006af7b76ab1",
      "v": 28,
      "creates": null,
      "raw": "0xf87201850cf2b7aec2830249f094e28e72fcf78647adce1f1252f240bbfaebd63bcc893627e8f712373c00008445466f3a1ca03c9d017cf965a4070350875bbb60f92721b726d354ef72b3b7638774a03b8665a047617a9fcda388724ed839545621b84ba4814fefa01a556d00a0006af7b76ab1",
      "networkId": 0,
      "chainId": 0
    }
  ]
}