{
  "hash": "0xc91dd02f16d72f02741c9b56cd0704b47517f80dad960e8e0d44eaaa4a8bc732",
  "parentHash": "0x5fe31a99b979d8746b3413955b3b90e654451778843116ac698c48ff99d6a019",
  "number": 61947,
  "timestamp": 1439180839,
  "nonce": "0xc9917ff2d8c07573",
  "difficulty": 1750578544931,
  "gasLimit": {
    "_hex": "0x2fefd8"
  },
  "gasUsed": {
    "_hex": "0xa410"
  },
  "miner": "0xbb7B8287f3F0a933474a79eAe42CBCa977791171",
  "extraData": "0x476574682f4c5649562f76312e302e312f6c696e75782f676f312e342e32",
  "transactions": [
    {
      "hash": "0xe223f37381275e676cdb314172d919b3c93eebb99521f4814b62311b5561d14a",
      "blockHash": "0xc91dd02f16d72f02741c9b56cd0704b47517f80dad960e8e0d44eaaa4a8bc732",
      "blockNumber": 61947,
      "transactionIndex": 0,
      "confirmations": null,
      "from": "0x87898CE53471043FcCa0a2aF4E1dC6d8B3fCf607",
      "gasPrice": {
        "_hex": "0xdaad7dc6a"
      },
      "gasLimit": {
        "_hex": "0x5208"
      },
      "to": "0xBFdD9820a04283b289957956353b5F3C1F665EcF",
      "value": {
        "_hex": "0x4563918244f40000"
      },
      "nonce": 9,
      "data": "0x",
      "r": "0xad0db3e00cbda73460ca57f3620228ae24fc270fe57948ffd42fc8d5ad33f99c",
      "s": "0x3a81eff4d29f0b40fcdd9b5a0ac2bcf19989bf4731641e90a5e0be592efd0324",
      "v": 28,
      "creates": null,
      "raw": "0xf86c09850daad7dc6a82520894bfdd9820a04283b289957956353b5f3c1f665ecf884563918244f40000801ca0ad0db3e00cbda73460ca57f3620228ae24fc270fe57948ffd42fc8d5ad33f99ca03a81eff4d29f0b40fcdd9b5a0ac2bcf19989bf4731641e90a5e0be592efd0324",
      "networkId": 0,
      "chainId": 0
    },
    {
      "hash": "0x7bed7ffc82b47f5f76d59a9bc26c169244f3b4b8b78954afc4a38ba20f037416",
      "blockHash": "0xc91dd02f16d72f02741c9b56cd0704b47517f80dad960e8e0d44eaaa4a8bc732",
      "blockNumber": 61947,
      "transactionIndex": 1,
      "confirmations": null,
      "from": "0x2f66bFbF2262efcC8d2Bd0444FC5b0696298fF1E",
      "gasPrice": {
        "_hex": "0xd35b182fc"
      },
      "gasLimit": {
        "_hex": "0x15f90"
      },
      "to": "0x32b7C0BDFD488A3c81cCAD7ff2a2fB7A12a5575b",
      "value": {
        "_hex": "0x30ca024f987b900000"
      },
      "nonce": 4,
      "data": "0x",
      "r": "0x95698624bbe5d32d19d27bbee85ab849ae949e7c8876d61269159219b61f41de",
      "s": "0x195c713417423a721de1444c2c99142f621d186d856e3ab403f0f30f26cd0d44",
      "v": 28,
      "creates": null,
      "raw": "0xf86e04850d35b182fc83015f909432b7c0bdfd488a3c81ccad7ff2a2fb7a12a5575b8930ca024f987b900000801ca095698624bbe5d32d19d27bbee85ab849ae949e7c8876d61269159219b61f41dea0195c713417423a721de1444c2c99142f621d186d856e3ab403f0f30f26cd0d44",
      "networkId": 0,
      "chainId": 0
    }
  ]
}