{
  "hash": "0x0f8a8ae417607b2fc5258b25c99d81c299cf5150cb6915a2d6c42f138f694409",
  "parentHash": "0x8eb4f444c581c231eae62b081ea66a3dc68467ab0e4ea0f859f1a7cae2c8127b",
  "number": 47475,
  "timestamp": 1438941070,
  "nonce": "0x3325d341c43e22d1",
  "difficulty": 1449533564337,
  "gasLimit": {
    "_hex": "0xc347"
  },
  "gasUsed": {
    "_hex": "0x5208"
  },
  "miner": "0xe6A7a1d47ff21B6321162AEA7C6CB457D5476Bca",
  "extraData": "0x657468706f6f6c2e6f7267",
  "transactions": [
    {
      "hash": "0x4cbb9012d6974125a278318b438cdced8bc9548670c8d601d0628182cee05c6e",
      "blockHash": "0x0f8a8ae417607b2fc5258b25c99d81c299cf5150cb6915a2d6c42f138f694409",
      "blockNumber": 47475,
      "transactionIndex": 0,
      "confirmations": null,
      "from": "0x724CE858857EC5481C86bD906e83a04882e5821d",
      "gasPrice": {
        "_hex": "0x746a528800"
      },
      "gasLimit": {
        "_hex": "0x5208"
      },
      "to": "0xe60702795C1A41f619360dBf36fe1470a2eC4B94",
      "value": {
        "_hex": "0xa2a137bb9fd9bbc000"
      },
      "nonce": 0,
      "data": "0x",
      "r": "0xdeb69bdba05312ae201a77276f9c07fcfea1bc5fde6c40c8cde322ad51f6a219",
      "s": "0x3bb3f429c500ae7905928a72703020a21981a94d914f309cfa27a95330d17ee8",
      "v": 27,
      "creates": null,
      "raw": "0xf86d8085746a52880082520894e60702795c1a41f619360dbf36fe1470a2ec4b9489a2a137bb9fd9bbc000801ba0deb69bdba05312ae201a77276f9c07fcfea1bc5fde6c40c8cde322ad51f6a219a03bb3f429c500ae7905928a72703020a21981a94d914f309cfa27a95330d17ee8",
      "networkId": 0,
      "chainId": 0
    }
  ]
}