{
  "hash": "0x63a2108fc1a3c7c259d839678adef1e97c56489af3a21d5fbf26896412e43804",
  "parentHash": "0xa1dac13b9a9000e2e5e92a61f7771f2177885ec0b7ed6212a1ead702d39b85ab",
  "number": 61997,
  "timestamp": 1439181615,
  "nonce": "0x1be47e137b574ec6",
  "difficulty": 1747152368861,
  "gasLimit": {
    "_hex": "0x2fefd8"
  },
  "gasUsed": {
    "_hex": "0xa410"
  },
  "miner": "0xBb12b5a9B85D4AB8CDE6056E9c1b2a4a337D2261",
  "extraData": "0x476574682f76312e302e312d36393865393864392f6c696e75782f676f312e34",
  "transactions": [
    {
      "hash": "0x6acc8909110c0d01e54ec6b747e283a000a670268d6b3eb8393b1c5586113f79",
      "blockHash": "0x63a2108fc1a3c7c259d839678adef1e97c56489af3a21d5fbf26896412e43804",
      "blockNumber": 61997,
      "transactionIndex": 0,
      "confirmations": null,
      "from": "0x4E892e8081BF36E488FddB3b2630f3f1E8da30d2",
      "gasPrice": {
        "_hex": "0x9184e72a000"
      },
      "gasLimit": {
        "_hex": "0x15f90"
      },
      "to": "0x025c3B43d57E72D2150E14B2B0c6D923FbFC0474",
      "value": {
        "_hex": "0x3635c9adc5dea00000"
      },
      "nonce": 7,
      "data": "0x",
      "r": "0x303c68af142d5b82db425c5182eb2e7252bbcee8218aa8fcf8668e0e62f17044",
      "s": "0x0b42143c6f9972623a0276af210da6729b864ec6118d21a0ba58dccb3424fb22",
      "v": 28,
      "creates": null,
      "raw": "0xf86f078609184e72a00083015f9094025c3b43d57e72d2150e14b2b0c6d923fbfc0474893635c9adc5dea00000801ca0303c68af142d5b82db425c5182eb2e7252bbcee8218aa8fcf8668e0e62f17044a00b42143c6f9972623a0276af210da6729b864ec6118d21a0ba58dccb3424fb22",
      "networkId": 0,
      "chainId": 0
    },
    {
      "hash": "0xef944b0f251187167d2340da16796e795648c4c176ea10fe7e551fae56130c95",
      "blockHash": "0x63a2108fc1a3c7c259d839678adef1e97c56489af3a21d5fbf26896412e43804",
      "blockNumber": 61997,
      "transactionIndex": 1,
      "confirmations": null,
      "from": "0x32Be343B94f860124dC4fEe278FDCBD38C102D88",
      "gasPrice": {
        "_hex": "0xd617d9d92"
      },
      "gasLimit": {
        "_hex": "0x5208"
      },
      "to": "0x8E1372aB42e7495276e7b0b5e785e8ed59111C0a",
      "value": {
        "_hex": "0x410d34e32e35000000"
      },
      "nonce": 145,
      "data": "0x",
      "r": "0xf848076a0ca3dab07997384ce087bedd59cf5b37d25bb899a38f801611a72eef",
      "s": "0x13357ee3e93e4b782656be2b07cab7909df213e9b2552fd83f45b1416385fa9d",
      "v": 27,
      "creates": null,
      "raw": "0xf86e8191850d617d9d92825208948e1372ab42e7495276e7b0b5e785e8ed59111c0a89410d34e32e35000000801ba0f848076a0ca3dab07997384ce087bedd59cf5b37d25bb899a38f801611a72eefa013357ee3e93e4b782656be2b07cab7909df213e9b2552fd83f45b1416385fa9d",
      "networkId": 0,
      "chainId": 0
    }
  ]
}