{
  "hash": "0x2cf5ab2a6fc697bc92ee0710fec672551b75b42efcc3d919d753fa32214119a9",
  "parentHash": "0xabc31b492bf234ed349ea450c1a75a8cd0daf9b48be8bdf69ec2a12440fdfa90",
  "number": 95796,
  "timestamp": 1439729692,
  "nonce": "0x269ff606b382be5e",
  "difficulty": 3639153561644,
  "gasLimit": {
    "_hex": "0x2fefd8"
  },
  "gasUsed": {
    "_hex": "0x5d9f"
  },
  "miner": "0xc15fa6D616245a5c7B7D75A6dFDcA10C0250BD2B",
  "extraData": "0x476574682f76312e302e312f77696e646f77732f676f312e342e32",
  "transactions": [
    {
      "hash": "0x2b7b42450f1f9e97912c162559eaf54d7be1e2e16b3504ca3fe9b21db4ed8f0a",
      "blockHash": "0x2cf5ab2a6fc697bc92ee0710fec672551b75b42efcc3d919d753fa32214119a9",
      "blockNumber": 95796,
      "transactionIndex": 0,
      "confirmations": null,
      "from": "0xCD1e66ED539dd92Fc40bBAa1FA16de8c02C14D45",
      "gasPrice": {
        "_hex": "0xdd5d8e0b4"
      },
      "gasLimit": {
        "_hex": "0x15f90"
      },
      "to": "0xCAc7000C7dBaa2E33Af15325AF5D435E011C7BdD",
      "value": {
        "_hex": "0x28c3cca5997f21b20"
      },
      "nonce": 9,
      "data": "0xb214faa5464d425756524833430000000000000000000000000000000000000000000000",
      "r": "0xc1f1e6f4055e04a7a7ed589f66940af060338acaad424083e443a760b00b5c9c",
      "s": "0x33082a5355f3a3041b005c84ae2cd963764021affb2834f255338f03759ffe7f",
      "v": 28,
      "creates": null,
      "raw": "0xf89209850dd5d8e0b483015f9094cac7000c7dbaa2e33af15325af5d435e011c7bdd89028c3cca5997f21b20a4b214faa5464d4257565248334300000000000000000000000000000000000000000000001ca0c1f1e6f4055e04a7a7ed589f66940af060338acaad424083e443a760b00b5c9ca033082a5355f3a3041b005c84ae2cd963764021affb2834f255338f03759ffe7f",
      "networkId": 0,
      "chainId": 0
    }
  ]
}