{
  "hash": "0xf037c4f4cc8c0ed7450ad0a40e0851317a43660d7526d7b3f98772aeaba3f687",
  "parentHash": "0x5ceb96ba4f80019ea1dabb4ed1c5cfa8f9b2fad657531418d79d2db8611cbc72",
  "number": 110748,
  "timestamp": 1439978777,
  "nonce": "0xe8dd0ccea0f2b4f9",
  "difficulty": 4394696186530,
  "gasLimit": {
    "_hex": "0x2ffa55"
  },
  "gasUsed": {
    "_hex": "0x2dc6c0"
  },
  "miner": "0xee5379D0c1ca47327368027455074C26D9952628",
  "extraData": "0x476574682f76312e302e312d38326566323666362f6c696e75782f676f312e34",
  "transactions": [
    {
      "hash": "0xe775ec0bed58151aa3d6f6c8fde1f78d3758d45d5c367b01380e2342d81b484d",
      "blockHash": "0xf037c4f4cc8c0ed7450ad0a40e0851317a43660d7526d7b3f98772aeaba3f687",
      "blockNumber": 110748,
      "transactionIndex": 0,
      "confirmations": null,
      "from": "0x54dAeb3E8a6BBC797E4aD2b0339f134b186e4637",
      "gasPrice": {
        "_hex": "0xe7d27df17"
      },
      "gasLimit": {
        "_hex": "0x7a120"
      },
      "to": "0xBAA54d6E90c3F4d7Ebec11bD180134C7eD8eBb52",
      "value": {
        "_hex": "0x16345785d8a0000"
      },
      "nonce": 988,
      "data": "0x",
      "r": "0xb2e1e30468f1c5c5c4a795ac093889871897d4f5d7a5be68ca86b901dd437a3d",
      "s": "0x102223e50280994aa45221524996c35ea4c70aa282fc73137a7b6bc99d168938",
      "v": 28,
      "creates": null,
      "raw": "0xf86f8203dc850e7d27df178307a12094baa54d6e90c3f4d7ebec11bd180134c7ed8ebb5288016345785d8a0000801ca0b2e1e30468f1c5c5c4a795ac093889871897d4f5d7a5be68ca86b901dd437a3da0102223e50280994aa45221524996c35ea4c70aa282fc73137a7b6bc99d168938",
      "networkId": 0,
      "chainId": 0
    },
    {
      "hash": "0x0235b6f0e28c1f5295ee6f8dede8a19c57bd222b8ed09e8ad2d06ab8c527ae41",
      "blockHash": "0xf037c4f4cc8c0ed7450ad0a40e0851317a43660d7526d7b3f98772aeaba3f687",
      "blockNumber": 110748,
      "transactionIndex": 1,
      "confirmations": null,
      "from": "0x54dAeb3E8a6BBC797E4aD2b0339f134b186e4637",
      "gasPrice": {
        "_hex": "0xe1780dfbb"
      },
      "gasLimit": {
        "_hex": "0x7a120"
      },
      "to": "0xBAA54d6E90c3F4d7Ebec11bD180134C7eD8eBb52",
      "value": {
        "_hex": "0x16345785d8a0000"
      },
      "nonce": 989,
      "data": "0x",
      "r": "0x974113ba89fa77697bd74411b734705396711aea2496f5a7f2c44070f3c3ed47",
      "s": "0x73208ec08244e050f93b5e686fc66c6abaae84359f86ad204eb74166bd37975a",
      "v": 27,
      "creates": null,
      "raw": "0xf86f8203dd850e1780dfbb8307a12094baa54d6e90c3f4d7ebec11bd180134c7ed8ebb5288016345785d8a0000801ba0974113ba89fa77697bd74411b734705396711aea2496f5a7f2c44070f3c3ed47a073208ec08244e050f93b5e686fc66c6abaae84359f86ad204eb74166bd37975a",
      "networkId": 0,
      "chainId": 0
    },
    {
      "hash": "0xb0bb906cc728382bd552b09ebccfbeea08622e3746917241345e761fd1fb1f43",
      "blockHash": "0xf037c4f4cc8c0ed7450ad0a40e0851317a43660d7526d7b3f98772aeaba3f687",
      "blockNumber": 110748,
      "transactionIndex": 2,
      "confirmations": null,
      "from": "0x54dAeb3E8a6BBC797E4aD2b0339f134b186e4637",
      "gasPrice": {
        "_hex": "0xe7d27df17"
      },
      "gasLimit": {
        "_hex": "0x7a120"
      },
      "to": "0xBAA54d6E90c3F4d7Ebec11bD180134C7eD8eBb52",
      "value": {
        "_hex": "0x16345785d8a0000"
      },
      "nonce": 990,
      "data": "0x",
      "r": "0xfbb1f12a9b75c00fcad1fdf38096a4f3eb76a496009e8f4e7d281c7ae15e7090",
      "s": "0x1bdb179e277a758103694c67783035424e0784a82337fac3f113d18ec0a55376",
      "v": 27,
      "creates": null,
      "raw": "0xf86f8203de850e7d27df178307a12094baa54d6e90c3f4d7ebec11bd180134c7ed8ebb5288016345785d8a0000801ba0fbb1f12a9b75c00fcad1fdf38096a4f3eb76a496009e8f4e7d281c7ae15e7090a01bdb179e277a758103694c67783035424e0784a82337fac3f113d18ec0a55376",
      "networkId": 0,
      "chainId": 0
    },
    {
      "hash": "0x7e656147f2e47a6d5cfd5f99381d1cd781484890034e9565546e610413413584",
      "blockHash": "0xf037c4f4cc8c0ed7450ad0a40e0851317a43660d7526d7b3f98772aeaba3f687",
      "blockNumber": 110748,
      "transactionIndex": 3,
      "confirmations": null,
      "from": "0x54dAeb3E8a6BBC797E4aD2b0339f134b186e4637",
      "gasPrice": {
        "_hex": "0xe7d27df17"
      },
      "gasLimit": {
        "_hex": "0x7a120"
      },
      "to": "0xBAA54d6E90c3F4d7Ebec11bD180134C7eD8eBb52",
      "value": {
        "_hex": "0x16345785d8a0000"
      },
      "nonce": 991,
      "data": "0x",
      "r": "0x24a71fde0f467c36daa8665e6503b22983a62646c0eaa3e0dc020e279ca28f59",
      "s": "0x558bb1e4e75a5246a2ad457218559428c399fed774e46b7a9afa63b9a56a91b9",
      "v": 27,
      "creates": null,
      "raw": "0xf86f8203df850e7d27df178307a12094baa54d6e90c3f4d7ebec11bd180134c7ed8ebb5288016345785d8a0000801ba024a71fde0f467c36daa8665e6503b22983a62646c0eaa3e0dc020e279ca28f59a0558bb1e4e75a5246a2ad457218559428c399fed774e46b7a9afa63b9a56a91b9",
      "networkId": 0,
      "chainId": 0
    },
    {
      "hash": "0x4fab1350b4ddf6363fbab825ddd060205203c830679a02c0c0c369ae9b0cfd34",
      "blockHash": "0xf037c4f4cc8c0ed7450ad0a40e0851317a43660d7526d7b3f98772aeaba3f687",
      "blockNumber": 110748,
      "transactionIndex": 4,
      "confirmations": null,
      "from": "0x54dAeb3E8a6BBC797E4aD2b0339f134b186e4637",
      "gasPrice": {
        "_hex": "0xe1780dfbb"
      },
      "gasLimit": {
        "_hex": "0x7a120"
      },
      "to": "0xBAA54d6E90c3F4d7Ebec11bD180134C7eD8eBb52",
      "value": {
        "_hex": "0x16345785d8a0000"
      },
      "nonce": 992,
      "data": "0x",
      "r": "0x689ec96248b3edd8a09f16ed8a6dc192cb2d69e7c853848b30ead5d141312abb",
      "s": "0x05640e8cbea3938bbfbf150dbb75baf0bdd4bf872d5e7a3fdcb342c6af6c1522",
      "v": 27,
      "creates": null,
      "raw": "0xf86f8203e0850e1780dfbb8307a12094baa54d6e90c3f4d7ebec11bd180134c7ed8ebb5288016345785d8a0000801ba0689ec96248b3edd8a09f16ed8a6dc192cb2d69e7c853848b30ead5d141312abba005640e8cbea3938bbfbf150dbb75baf0bdd4bf872d5e7a3fdcb342c6af6c1522",
      "networkId": 0,
      "chainId": 0
    },
    {
      "hash": "0xe326bb447f0dd770bccf9a685e33d8fc8d0d0656dfc7ee2927b6a76705280412",
      "blockHash": "0xf037c4f4cc8c0ed7450ad0a40e0851317a43660d7526d7b3f98772aeaba3f687",
      "blockNumber": 110748,
      "transactionIndex": 5,
      "confirmations": null,
      "from": "0x54dAeb3E8a6BBC797E4aD2b0339f134b186e4637",
      "gasPrice": {
        "_hex": "0xdf4ba21f9"
      },
      "gasLimit": {
        "_hex": "0x7a120"
      },
      "to": "0xBAA54d6E90c3F4d7Ebec11bD180134C7eD8eBb52",
      "value": {
        "_hex": "0x16345785d8a0000"
      },
      "nonce": 993,
      "data": "0x",
      "r": "0x07554a925427d68e532e7a76a3fe6c21a1cb4fc312077cef122e336613eea2b6",
      "s": "0x5df4cc16fac70decd54ca713e92433280b2ea16a015c688ddde177c3de3ccd7e",
      "v": 27,
      "creates": null,
      "raw": "0xf86f8203e1850df4ba21f98307a12094baa54d6e90c3f4d7ebec11bd180134c7ed8ebb5288016345785d8a0000801ba007554a925427d68e532e7a76a3fe6c21a1cb4fc312077cef122e336613eea2b6a05df4cc16fac70decd54ca713e92433280b2ea16a015c688ddde177c3de3ccd7e",
      "networkId": 0,
      "chainId": 0
    }
  ]
}