{
  "hash": "0x215a6351dd2851badde8b910d7e283e6ed23d24aa9ca9aeb1d3aaf2599669258",
  "parentHash": "0x6e2f9dcc293a384efa91a9b4ae8a2a29377820e62a8c6ed799598da43de2d72f",
  "number": 64788,
  "timestamp": 1439226270,
  "nonce": "0xd10502d107bd39f2",
  "difficulty": 1894959576800,
  "gasLimit": {
    "_hex": "0x2fefd8"
  },
  "gasUsed": {
    "_hex": "0x17cd8"
  },
  "miner": "0x88D74a59454F6cF3B51ef6b9136AFb6b9D405A88",
  "extraData": "0x476574682f76312e302e312d37666266393930632f6c696e75782f676f312e34",
  "transactions": [
    {
      "hash": "0xe5062ccdc3806f5b65a41aedbdcfdcd6e1baeeb3b8901b1a7d4b26f791860c0a",
      "blockHash": "0x215a6351dd2851badde8b910d7e283e6ed23d24aa9ca9aeb1d3aaf2599669258",
      "blockNumber": 64788,
      "transactionIndex": 0,
      "confirmations": null,
      "from": "0xffAdF482D806BBb6adA61Eea870862a234F0E7E2",
      "gasPrice": {
        "_hex": "0xba43b7400"
      },
      "gasLimit": {
        "_hex": "0x15f90"
      },
      "to": "0x793AE8C1b1a160BFc07BFB0d04F85eab1A71F4f2",
      "value": {
        "_hex": "0x0"
      },
      "nonce": 0,
      "data": "0x3ba15036",
      "r": "0x25efafe16e8a79362961af19ae7ba95dc05e4cd58159122770abe7ebc5ea31a7",
      "s": "0x6fed3125de34d7d568605a32823cc4fb5f6269a54893e64cd3e882743158c747",
      "v": 27,
      "creates": null,
      "raw": "0xf86980850ba43b740083015f9094793ae8c1b1a160bfc07bfb0d04f85eab1a71f4f280843ba150361ba025efafe16e8a79362961af19ae7ba95dc05e4cd58159122770abe7ebc5ea31a7a06fed3125de34d7d568605a32823cc4fb5f6269a54893e64cd3e882743158c747",
      "networkId": 0,
      "chainId": 0
    },
    {
      "hash": "0x1aadacb89664e58e425a4b10be3ae8fef7e730d91e3326bb5d0515f11d1ef74a",
      "blockHash": "0x215a6351dd2851badde8b910d7e283e6ed23d24aa9ca9aeb1d3aaf2599669258",
      "blockNumber": 64788,
      "transactionIndex": 1,
      "confirmations": null,
      "from": "0x89472C5d1e5CA8356a96f6C9EBaB8a7C539cc1a8",
      "gasPrice": {
        "_hex": "0xba43b7400"
      },
      "gasLimit": {
        "_hex": "0x15f90"
      },
      "to": "0x793AE8C1b1a160BFc07BFB0d04F85eab1A71F4f2",
      "value": {
        "_hex": "0x0"
      },
      "nonce": 0,
      "data": "0x3ba15036",
      "r": "0xfad80d5a2bd1496a915d91edf639d0584e55a711bc7dad0ad4ea805eed2dbbc1",
      "s": "0x24871db13bb28fb9c0c33c87956d5cf55426bdd64570bac3708f12646bd22673",
      "v": 28,
      "creates": null,
      "raw": "0xf86980850ba43b740083015f9094793ae8c1b1a160bfc07bfb0d04f85eab1a71f4f280843ba150361ca0fad80d5a2bd1496a915d91edf639d0584e55a711bc7dad0ad4ea805eed2dbbc1a024871db13bb28fb9c0c33c87956d5cf55426bdd64570bac3708f12646bd22673",
      "networkId": 0,
      "chainId": 0
    }
  ]
}