{
  "hash": "0x3a338a70164013332427feeeb7a381a76a1135194aaa7f44e027dee70ad62cf2",
  "parentHash": "0xcc3db1731c4b2fdf3fae1ce5ef9945a574c1a56dca6b1242d34fab14ce8b6f76",
  "number": 86848,
  "timestamp": 1439583630,
  "nonce": "0x8f8dd03f13b6f92b",
  "difficulty": 2964662202542,
  "gasLimit": {
    "_hex": "0x2fefd8"
  },
  "gasUsed": {
    "_hex": "0x19a28"
  },
  "miner": "0x88D74a59454F6cF3B51ef6b9136AFb6b9D405A88",
  "extraData": "0x476574682f76312e302e312d37666266393930632f6c696e75782f676f312e34",
  "transactions": [
    {
      "hash": "0x1fbc6a0c8da489521741ffa80ebde56365ca83d8b08d15af6d79dd190ce6d8cc",
      "blockHash": "0x3a338a70164013332427feeeb7a381a76a1135194aaa7f44e027dee70ad62cf2",
      "blockNumber": 86848,
      "transactionIndex": 0,
      "confirmations": null,
      "from": "0x345e37Ef306072c3E6968376963262E3264f25f3",
      "gasPrice": {
        "_hex": "0xdb09397e3"
      },
      "gasLimit": {
        "_hex": "0x5208"
      },
      "to": "0x32Be343B94f860124dC4fEe278FDCBD38C102D88",
      "value": {
        "_hex": "0x115781f928cd88000"
      },
      "nonce": 0,
      "data": "0x",
      "r": "0xf6438d8d533fcc1969357321b97bcea1f01173122d63c3dec6b08506569dfa5a",
      "s": "0x7b435f1542e2f8cbded2a2e329a8c972ed50b6e0e7b67abdfbe9fd4bf7950603",
      "v": 27,
      "creates": null,
      "raw": "0xf86d80850db09397e38252089432be343b94f860124dc4fee278fdcbd38c102d88890115781f928cd88000801ba0f6438d8d533fcc1969357321b97bcea1f01173122d63c3dec6b08506569dfa5aa07b435f1542e2f8cbded2a2e329a8c972ed50b6e0e7b67abdfbe9fd4bf7950603",
      "networkId": 0,
      "chainId": 0
    },
    {
      "hash": "0x29ba02ed1947f78d2a2674c0305160e1461ec5700227e7cd554d288724e9b53f",
      "blockHash": "0x3a338a70164013332427feeeb7a381a76a1135194aaa7f44e027dee70ad62cf2",
      "blockNumber": 86848,
      "transactionIndex": 1,
      "confirmations": null,
      "from": "0x32Be343B94f860124dC4fEe278FDCBD38C102D88",
      "gasPrice": {
        "_hex": "0xdb09397e3"
      },
      "gasLimit": {
        "_hex": "0x5208"
      },
      "to": "0xf669D33ffC879Ed84BECd4EF67CB17c76f4607D5",
      "value": {
        "_hex": "0x22b1c8c1227a00000"
      },
      "nonce": 771,
      "data": "0x",
      "r": "0x1ac0418e2948cb0cc9606efa5348f42170a4611e68a571b7cf0253b4c8669d78",
      "s": "0x606de6afe96afaf51ab462308267f262e7b1ada5d9df48459795a452b03765b7",
      "v": 28,
      "creates": null,
      "raw": "0xf86f820303850db09397e382520894f669d33ffc879ed84becd4ef67cb17c76f4607d589022b1c8c1227a00000801ca01ac0418e2948cb0cc9606efa5348f42170a4611e68a571b7cf0253b4c8669d78a0606de6afe96afaf51ab462308267f262e7b1ada5d9df48459795a452b03765b7",
      "networkId": 0,
      "chainId": 0
    },
    {
      "hash": "0x8417f73719370f373530a4f267895d6ca2e1cb5353857bae78828596946509e9",
      "blockHash": "0x3a338a70164013332427feeeb7a381a76a1135194aaa7f44e027dee70ad62cf2",
      "blockNumber": 86848,
      "transactionIndex": 2,
      "confirmations": null,
      "from": "0xa70a9a7040d542C632D8e0bE7c5513A8a5Bbc752",
      "gasPrice": {
        "_hex": "0xdb09397e3"
      },
      "gasLimit": {
        "_hex": "0x5208"
      },
      "to": "0x32Be343B94f860124dC4fEe278FDCBD38C102D88",
      "value": {
        "_hex": "0x455f221f7a8e0c00"
      },
      "nonce": 95,
      "data": "0x",
      "r": "0xc04842cfe28ae3856df879a47646afa8f950cb50f3a5e89fea03190b0a8a25fb",
      "s": "0x0baca63bcd06bdcc0275641f2fb8d3047bce793f21c8ae10c26b645d52188749",
      "v": 27,
      "creates": null,
      "raw": "0xf86c5f850db09397e38252089432be343b94f860124dc4fee278fdcbd38c102d8888455f221f7a8e0c00801ba0c04842cfe28ae3856df879a47646afa8f950cb50f3a5e89fea03190b0a8a25fba00baca63bcd06bdcc0275641f2fb8d3047bce793f21c8ae10c26b645d52188749",
      "networkId": 0,
      "chainId": 0
    },
    {
      "hash": "0x22b9e34b452472f34d68d741f9519669e9f18670b6deed4520dfd474a4b84205",
      "blockHash": "0x3a338a70164013332427feeeb7a381a76a1135194aaa7f44e027dee70ad62cf2",
      "blockNumber": 86848,
      "transactionIndex": 3,
      "confirmations": null,
      "from": "0x625FEA4782d83F8ae1194074C04Bf3d0b67dBAd9",
      "gasPrice": {
        "_hex": "0xdb09397e3"
      },
      "gasLimit": {
        "_hex": "0x5208"
      },
      "to": "0x32Be343B94f860124dC4fEe278FDCBD38C102D88",
      "value": {
        "_hex": "0x5dfe9c18ee96cc0000"
      },
      "nonce": 0,
      "data": "0x",
      "r": "0x179fcaf65092fe3c9da4c967ad8301a621411df3991010129b9ee73b40e46887",
      "s": "0x28664563a9418a62463d97010285f0c3159969eee5acf606f4fad44ee9fb2ea6",
      "v": 27,
      "creates": null,
      "raw": "0xf86d80850db09397e38252089432be343b94f860124dc4fee278fdcbd38c102d88895dfe9c18ee96cc0000801ba0179fcaf65092fe3c9da4c967ad8301a621411df3991010129b9ee73b40e46887a028664563a9418a62463d97010285f0c3159969eee5acf606f4fad44ee9fb2ea6",
      "networkId": 0,
      "chainId": 0
    },
    {
      "hash": "0x1a4a6a3c4ea1a688a1a628c8456ac9196196c37edc2b05e41c44ba432b590de7",
      "blockHash": "0x3a338a70164013332427feeeb7a381a76a1135194aaa7f44e027dee70ad62cf2",
      "blockNumber": 86848,
      "transactionIndex": 4,
      "confirmations": null,
      "from": "0xCe0df7AD79C6DBaB57E0b7ddc7612Bb087AaffF4",
      "gasPrice": {
        "_hex": "0xdb09397e3"
      },
      "gasLimit": {
        "_hex": "0x5208"
      },
      "to": "0x32Be343B94f860124dC4fEe278FDCBD38C102D88",
      "value": {
        "_hex": "0x2fb45ded4198aa0000"
      },
      "nonce": 1,
      "data": "0x",
      "r": "0x32dc10619298c83258449414ac461fe2675324cfb02c51f9783ef961ff0a22f6",
      "s": "0x3395a70010f437cc69bdd530da69a5e7185c2e110d4bdfeb4f8910e3e128a4c9",
      "v": 27,
      "creates": null,
      "raw": "0xf86d01850db09397e38252089432be343b94f860124dc4fee278fdcbd38c102d88892fb45ded4198aa0000801ba032dc10619298c83258449414ac461fe2675324cfb02c51f9783ef961ff0a22f6a03395a70010f437cc69bdd530da69a5e7185c2e110d4bdfeb4f8910e3e128a4c9",
      "networkId": 0,
      "chainId": 0
    }
  ]
}