{
  "hash": "0x5e5167f941325c76141b00f97129a7fc81dabf588ba61ec763585fbff4e62891",
  "parentHash": "0xc12830934fc169871406f9b28516159460804fca739e181115be3856c5a128e1",
  "number": 78458,
  "timestamp": 1439454122,
  "nonce": "0x0a2e32652af5a1db",
  "difficulty": 2288731234970,
  "gasLimit": {
    "_hex": "0x2fefd8"
  },
  "gasUsed": {
    "_hex": "0xc54e"
  },
  "miner": "0x7Eb9F59f9547E376188eD83EFCD1F6dbF3712eA6",
  "extraData": "0x476574682f76312e302e312f77696e646f77732f676f312e342e32",
  "transactions": [
    {
      "hash": "0x0d2721462c811b1cca23f7f1870aa318d6f6cce1453396c4abc922c2e9ad6c2f",
      "blockHash": "0x5e5167f941325c76141b00f97129a7fc81dabf588ba61ec763585fbff4e62891",
      "blockNumber": 78458,
      "transactionIndex": 0,
      "confirmations": null,
      "from": "0x18E113D8177c691A61Be785852Fa5Bb47aEeBdAf",
      "gasPrice": {
        "_hex": "0xdb1af8afd"
      },
      "gasLimit": {
        "_hex": "0x30d40"
      },
      "to": "0x6fFb4469DE9D4a4118710Ff6651933Ee92f6b205",
      "value": {
        "_hex": "0x98a7d9b8314c0000"
      },
      "nonce": 6,
      "data": "0x",
      "r": "0x905948b83349d10a0a39e862377a29c8a39fe00e5651e2798bebd10060d9b567",
      "s": "0x55b040f554aac1ce8ad979e3e9637a6a23dfee56c767c738c33abde97cff5b5c",
      "v": 28,
      "creates": null,
      "raw": "0xf86d06850db1af8afd83030d40946ffb4469de9d4a4118710ff6651933ee92f6b2058898a7d9b8314c0000801ca0905948b83349d10a0a39e862377a29c8a39fe00e5651e2798bebd10060d9b567a055b040f554aac1ce8ad979e3e9637a6a23dfee56c767c738c33abde97cff5b5c",
      "networkId": 0,
      "chainId": 0
    }
  ]
}