{
  "hash": "0x208b5a094fe01b6b12970b1971811091f616541335f8c90b87359f950701ca05",
  "parentHash": "0xb3525a223090d2b3f33c473462caae9a163bd474a26f5715b086e021e31ba535",
  "number": 84800,
  "timestamp": 1439554747,
  "nonce": "0x992785b3f86b61f0",
  "difficulty": 2627186439568,
  "gasLimit": {
    "_hex": "0x2fefd8"
  },
  "gasUsed": {
    "_hex": "0x546c"
  },
  "miner": "0x01d9DA08cc6Fb97c0DE1B6F4C28910A0859Ed1A1",
  "extraData": "0x476574682f76312e302e312f6c696e75782f676f312e342e32",
  "transactions": [
    {
      "hash": "0xa6edadc78d18bf95be5960575e42657a2edf973249a9b7ce221ebfd22e615185",
      "blockHash": "0x208b5a094fe01b6b12970b1971811091f616541335f8c90b87359f950701ca05",
      "blockNumber": 84800,
      "transactionIndex": 0,
      "confirmations": null,
      "from": "0x6CE13F1816a2cFab76C59714291Cb8403CbBB3D8",
      "gasPrice": {
        "_hex": "0xd7d40ace3"
      },
      "gasLimit": {
        "_hex": "0x55f0"
      },
      "to": "0x2910543Af39abA0Cd09dBb2D50200b3E800A63D2",
      "value": {
        "_hex": "0x2f2f39fc6c540000"
      },
      "nonce": 3,
      "data": "0x454e37513531443138",
      "r": "0x8057fdfaac168c4dbb2302901e98256ebaac14999422739e23dc361e12be2e5a",
      "s": "0x5e126716625e4f01ba9c81a483133d0aea0974495738d8d6d1f4c787163486c2",
      "v": 27,
      "creates": null,
      "raw": "0xf87503850d7d40ace38255f0942910543af39aba0cd09dbb2d50200b3e800a63d2882f2f39fc6c54000089454e375135314431381ba08057fdfaac168c4dbb2302901e98256ebaac14999422739e23dc361e12be2e5aa05e126716625e4f01ba9c81a483133d0aea0974495738d8d6d1f4c787163486c2",
      "networkId": 0,
      "chainId": 0
    }
  ]
}