{
  "hash": "0x97c6cdd4d8d2ab586b03da2f4855c1ce74722afc59bd330eace1fe480cd7b3c5",
  "parentHash": "0x8f2f95c4c9dd4483a103f4aa10ed7c3156b3e395dc5e7ce7af468df9a2208a87",
  "number": 122347,
  "timestamp": 1440192643,
  "nonce": "0xa1eb5f58dc9e7b54",
  "difficulty": 4477367337456,
  "gasLimit": {
    "_hex": "0x2fefd8"
  },
  "gasUsed": {
    "_hex": "0xee48"
  },
  "miner": "0xe6A7a1d47ff21B6321162AEA7C6CB457D5476Bca",
  "extraData": "0xd783010002844765746887676f312e342e32856c696e7578",
  "transactions": [
    {
      "hash": "0xfb1ffb8d4ebc0ac314bef20e2ce52591386ef323b19d7b72c9bef0dcb5bace2c",
      "blockHash": "0x97c6cdd4d8d2ab586b03da2f4855c1ce74722afc59bd330eace1fe480cd7b3c5",
      "blockNumber": 122347,
      "transactionIndex": 0,
      "confirmations": null,
      "from": "0x007f7f58D3eb5b7510A301eCC749FC1fCDDBE14D",
      "gasPrice": {
        "_hex": "0xba43b7400"
      },
      "gasLimit": {
        "_hex": "0x15f90"
      },
      "to": "0xb1abce2918E21ddb93AA452731a12672A3d9F75a",
      "value": {
        "_hex": "0x4563918244f40000"
      },
      "nonce": 393,
      "data": "0x",
      "r": "0x5a5560d4e98f1f070b33474ffebf88794429c87fd410c4c68092e68ef32beba4",
      "s": "0x079b9c06c36672f81c693d7460bb400e027833acc583576bad28d92a0897e88b",
      "v": 27,
      "creates": null,
      "raw": "0xf86f820189850ba43b740083015f9094b1abce2918e21ddb93aa452731a12672a3d9f75a884563918244f40000801ba05a5560d4e98f1f070b33474ffebf88794429c87fd410c4c68092e68ef32beba4a0079b9c06c36672f81c693d7460bb400e027833acc583576bad28d92a0897e88b",
      "networkId": 0,
      "chainId": 0
    },
    {
      "hash": "0xb662927d58544cb372939d1504840ebdf61dd93f05c7fcfea75b26e4c2ecd766",
      "blockHash": "0x97c6cdd4d8d2ab586b03da2f4855c1ce74722afc59bd330eace1fe480cd7b3c5",
      "blockNumber": 122347,
      "transactionIndex": 1,
      "confirmations": null,
      "from": "0x96AA9d72B4606B440Ef85352439AEC5Db106ddAD",
      "gasPrice": {
        "_hex": "0xba43b7400"
      },
      "gasLimit": {
        "_hex": "0x9c40"
      },
      "to": "0xDf415bb7AE2363ecbb6A595F07cBc2Fc0fD417D3",
      "value": {
        "_hex": "0x4563918244f40000"
      },
      "nonce": 3,
      "data": "0x",
      "r": "0x8b3d66b9920e862fc0bbfe834979b6fb0ec9e69d936cafe5f4782b4cf9f8eb19",
      "s": "0x3747a344e57d5f44784731bf52cef2a00e8196f2285e8c155963466375e3a562",
      "v": 27,
      "creates": null,
      "raw": "0xf86c03850ba43b7400829c4094df415bb7ae2363ecbb6a595f07cbc2fc0fd417d3884563918244f40000801ba08b3d66b9920e862fc0bbfe834979b6fb0ec9e69d936cafe5f4782b4cf9f8eb19a03747a344e57d5f44784731bf52cef2a00e8196f2285e8c155963466375e3a562",
      "networkId": 0,
      "chainId": 0
    }
  ]
}