{
  "hash": "0x99efca1a0553673c039a4bdb09f529c0e4feadddf1bdd08753e42a8229774875",
  "parentHash": "0x43757f89bca38edd4b4948abc13caa3eaf87cc4f0c691eb0a4bb40ef527ec6b7",
  "number": 90913,
  "timestamp": 1439647372,
  "nonce": "0x36aeafcf5c793ab0",
  "difficulty": 3412317926581,
  "gasLimit": {
    "_hex": "0x2fefd8"
  },
  "gasUsed": {
    "_hex": "0x3034b"
  },
  "miner": "0xe6A7a1d47ff21B6321162AEA7C6CB457D5476Bca",
  "extraData": "0x476574682f76312e302e312d38326566323666362f6c696e75782f676f312e34",
  "transactions": [
    {
      "hash": "0xab8cf82a9a0d762c2c42a37b6025a3555e6ab630073637d5b9a2382821a98016",
      "blockHash": "0x99efca1a0553673c039a4bdb09f529c0e4feadddf1bdd08753e42a8229774875",
      "blockNumber": 90913,
      "transactionIndex": 0,
      "confirmations": null,
      "from": "0xcd3078E3E503acB396F88661da737735cc02222A",
      "gasPrice": {
        "_hex": "0x746a528800"
      },
      "gasLimit": {
        "_hex": "0x5b04"
      },
      "to": "0x40B9b889A21Ff1534d018D71Dc406122EBcf3F5A",
      "value": {
        "_hex": "0x20f5b1eaad8d80000"
      },
      "nonce": 1,
      "data": "0x",
      "r": "0xbe74b8716fb6b957f3a65fa9022e1f78ca22991cfae4ff303742524ba34f8011",
      "s": "0x29d95d11679dc731ab2c16ae4f8a3be3f74c4df43e80878325ea2a6e09d7c17d",
      "v": 27,
      "creates": null,
      "raw": "0xf86d0185746a528800825b049440b9b889a21ff1534d018d71dc406122ebcf3f5a89020f5b1eaad8d80000801ba0be74b8716fb6b957f3a65fa9022e1f78ca22991cfae4ff303742524ba34f8011a029d95d11679dc731ab2c16ae4f8a3be3f74c4df43e80878325ea2a6e09d7c17d",
      "networkId": 0,
      "chainId": 0
    },
    {
      "hash": "0xf04c0c82bd8e4733e4bcc0ac8e8becf60fad0d99e83883c34887937956a40c3b",
      "blockHash": "0x99efca1a0553673c039a4bdb09f529c0e4feadddf1bdd08753e42a8229774875",
      "blockNumber": 90913,
      "transactionIndex": 1,
      "confirmations": null,
      "from": "0x5e0320BB4D82AB8Bb5d7291f2C67D1c99aBb3C05",
      "gasPrice": {
        "_hex": "0xcb6d00839"
      },
      "gasLimit": {
        "_hex": "0xf4240"
      },
      "to": null,
      "value": {
        "_hex": "0x0"
      },
      "nonce": 6,
      "data": "0x60606040526040516020806102518339016040526060805190602001505b80600060005060003373ffffffffffffffffffffffffffffffffffffffff168152602001908152602001600020600050819055505b506101ef806100626000396000f30060606040526000357c01000000000000000000000000000000000000000000000000000000009004806390b98a1114610044578063bbd39ac01461007157610042565b005b61005b6004803590602001803590602001506100b3565b6040518082815260200191505060405180910390f35b610082600480359060200150610098565b6040518082815260200191505060405180910390f35b60006000506020528060005260406000206000915090505481565b600081600060005060003373ffffffffffffffffffffffffffffffffffffffff1681526020019081526020016000206000505410156100f557600090506101e9565b81600060005060003373ffffffffffffffffffffffffffffffffffffffff16815260200190815260200160002060008282825054039250508190555081600060005060008573ffffffffffffffffffffffffffffffffffffffff1681526020019081526020016000206000828282505401925050819055507f16cdf1707799c6655baac6e210f52b94b7cec08adcaf9ede7dfe8649da926146338484604051808473ffffffffffffffffffffffffffffffffffffffff1681526020018373ffffffffffffffffffffffffffffffffffffffff168152602001828152602001935050505060405180910390a1600190506101e9565b92915050560000000000000000000000000000000000000000000000000000000000002710",
      "r": "0x524cd0612444308f830c542bdbbc523c5855449103951819028427b9167fd534",
      "s": "0x25aa71510d0ca63a1e01d6dad21cfda9755e3792adc3c7554a98c3d5d42fb1c1",
      "v": 28,
      "creates": "0xc4A23A06e6642Fa00989b89575f0b9f783259159",
      "raw": "0xf902c406850cb6d00839830f42408080b9027160606040526040516020806102518339016040526060805190602001505b80600060005060003373ffffffffffffffffffffffffffffffffffffffff168152602001908152602001600020600050819055505b506101ef806100626000396000f30060606040526000357c01000000000000000000000000000000000000000000000000000000009004806390b98a1114610044578063bbd39ac01461007157610042565b005b61005b6004803590602001803590602001506100b3565b6040518082815260200191505060405180910390f35b610082600480359060200150610098565b6040518082815260200191505060405180910390f35b60006000506020528060005260406000206000915090505481565b600081600060005060003373ffffffffffffffffffffffffffffffffffffffff1681526020019081526020016000206000505410156100f557600090506101e9565b81600060005060003373ffffffffffffffffffffffffffffffffffffffff16815260200190815260200160002060008282825054039250508190555081600060005060008573ffffffffffffffffffffffffffffffffffffffff1681526020019081526020016000206000828282505401925050819055507f16cdf1707799c6655baac6e210f52b94b7cec08adcaf9ede7dfe8649da926146338484604051808473ffffffffffffffffffffffffffffffffffffffff1681526020018373ffffffffffffffffffffffffffffffffffffffff168152602001828152602001935050505060405180910390a1600190506101e9565b929150505600000000000000000000000000000000000000000000000000000000000027101ca0524cd0612444308f830c542bdbbc523c5855449103951819028427b9167fd534a025aa71510d0ca63a1e01d6dad21cfda9755e3792adc3c7554a98c3d5d42fb1c1",
      "networkId": 0,
      "chainId": 0
    }
  ]
}