{
  "hash": "0xf8b9309bb0c3c48a19d325110690a76aca69046e9bc613ae90014f787d349c07",
  "parentHash": "0x19b8b356c9b7b7e563d8c43ccfd271aec979af37fcc05d4de3065f54aeb79b6e",
  "number": 64855,
  "timestamp": 1439227237,
  "nonce": "0x1d7271bf2d9c0c0a",
  "difficulty": 1907011155816,
  "gasLimit": {
    "_hex": "0x2fefd8"
  },
  "gasUsed": {
    "_hex": "0x19a28"
  },
  "miner": "0x841B562a690B0808405F6E3713E1efdbebA96021",
  "extraData": "0x476574682f76312e302e312f77696e646f77732f676f312e342e32",
  "transactions": [
    {
      "hash": "0xf5c508d436973259e29cb17241f91c9f820350eb59525ea689eb45d82b32c2f9",
      "blockHash": "0xf8b9309bb0c3c48a19d325110690a76aca69046e9bc613ae90014f787d349c07",
      "blockNumber": 64855,
      "transactionIndex": 0,
      "confirmations": null,
      "from": "0xbD68839672376D0ad526706b1714d1Fc1CEb5AC8",
      "gasPrice": {
        "_hex": "0xdc879176d"
      },
      "gasLimit": {
        "_hex": "0x5208"
      },
      "to": "0x32Be343B94f860124dC4fEe278FDCBD38C102D88",
      "value": {
        "_hex": "0x14d0bbe7c322000"
      },
      "nonce": 0,
      "data": "0x",
      "r": "0xaee38b3118b076fd2b1fd8e147503a71b793e3d881afe2d42e46f42c7f4cdda6",
      "s": "0x48d8f02193404c6f0368b9996695fcdf0f1befacac223d1930286ace2ab77b22",
      "v": 28,
      "creates": null,
      "raw": "0xf86c80850dc879176d8252089432be343b94f860124dc4fee278fdcbd38c102d8888014d0bbe7c322000801ca0aee38b3118b076fd2b1fd8e147503a71b793e3d881afe2d42e46f42c7f4cdda6a048d8f02193404c6f0368b9996695fcdf0f1befacac223d1930286ace2ab77b22",
      "networkId": 0,
      "chainId": 0
    },
    {
      "hash": "0x2a701f067074868c42d6bc195cee5aa62089f8d6449f9285dd90a6f3d3241207",
      "blockHash": "0xf8b9309bb0c3c48a19d325110690a76aca69046e9bc613ae90014f787d349c07",
      "blockNumber": 64855,
      "transactionIndex": 1,
      "confirmations": null,
      "from": "0x740aF1eeFD3365d78BA7b12Cb1A673e06A077246",
      "gasPrice": {
        "_hex": "0xd7d40ace3"
      },
      "gasLimit": {
        "_hex": "0x7530"
      },
      "to": "0x74658017042847C42A8Df154603BD29F563d4753",
      "value": {
        "_hex": "0x16345785d8a0000"
      },
      "nonce": 0,
      "data": "0x",
      "r": "0x38b1e71b523ab24d5989afcc4ff4d798cd265267bdf8969402f039b92df296db",
      "s": "0x08bd0787e8526c3936ffbae5bb5416686f3d63db8aff64adf4cf73161cf3399a",
      "v": 27,
      "creates": null,
      "raw": "0xf86c80850d7d40ace38275309474658017042847c42a8df154603bd29f563d475388016345785d8a0000801ba038b1e71b523ab24d5989afcc4ff4d798cd265267bdf8969402f039b92df296dba008bd0787e8526c3936ffbae5bb5416686f3d63db8aff64adf4cf73161cf3399a",
      "networkId": 0,
      "chainId": 0
    },
    {
      "hash": "0x90af56593201f0c91eb706bb94e783be5a4acc117e662e062b6a61ac2c707c1c",
      "blockHash": "0xf8b9309bb0c3c48a19d325110690a76aca69046e9bc613ae90014f787d349c07",
      "blockNumber": 64855,
      "transactionIndex": 2,
      "confirmations": null,
      "from": "0x5a0e17A557760E0e54f0cE1224bfDB13a2ac39ac",
      "gasPrice": {
        "_hex": "0xd2f411618"
      },
      "gasLimit": {
        "_hex": "0x15f90"
      },
      "to": "0xBaf4E201A3015b60bD8dd1190E20411EaF12C5eE",
      "value": {
        "_hex": "0x1"
      },
      "nonce": 0,
      "data": "0x",
      "r": "0xf25e1fe5736326f762314bc1c588bcfacbc2e41e30171c081850f6e56076d1d1",
      "s": "0x2159b798016f8d9e3fc0d3631c9d7dc1f4ada869ce96b6947c7301b7d6853ae7",
      "v": 28,
      "creates": null,
      "raw": "0xf86580850d2f41161883015f9094baf4e201a3015b60bd8dd1190e20411eaf12c5ee01801ca0f25e1fe5736326f762314bc1c588bcfacbc2e41e30171c081850f6e56076d1d1a02159b798016f8d9e3fc0d3631c9d7dc1f4ada869ce96b6947c7301b7d6853ae7",
      "networkId": 0,
      "chainId": 0
    },
    {
      "hash": "0x0ec85b3d1173a2367deb38a5bd97a3639888b7ac2f7c535e808977135716e76b",
      "blockHash": "0xf8b9309bb0c3c48a19d325110690a76aca69046e9bc613ae90014f787d349c07",
      "blockNumber": 64855,
      "transactionIndex": 3,
      "confirmations": null,
      "from": "0x5a0e17A557760E0e54f0cE1224bfDB13a2ac39ac",
      "gasPrice": {
        "_hex": "0xd2f411618"
      },
      "gasLimit": {
        "_hex": "0x15f90"
      },
      "to": "0xBaf4E201A3015b60bD8dd1190E20411EaF12C5eE",
      "value": {
        "_hex": "0x1"
      },
      "nonce": 1,
      "data": "0x",
      "r": "0xd0893f4167ee8d082405cae66ed39eb7f7c6dc9fb4f42bf34179ae0403d367b3",
      "s": "0x496096d9b9b36a6b267c512732c87201ce42b8df33c9ec0fcf3f8de891633ec7",
      "v": 28,
      "creates": null,
      "raw": "0xf86501850d2f41161883015f9094baf4e201a3015b60bd8dd1190e20411eaf12c5ee01801ca0d0893f4167ee8d082405cae66ed39eb7f7c6dc9fb4f42bf34179ae0403d367b3a0496096d9b9b36a6b267c512732c87201ce42b8df33c9ec0fcf3f8de891633ec7",
      "networkId": 0,
      "chainId": 0
    },
    {
      "hash": "0x45263a55b7cc30b001dfd6fa85c080d471d6f1eefe89ca40b5822fa0ac7e6b8f",
      "blockHash": "0xf8b9309bb0c3c48a19d325110690a76aca69046e9bc613ae90014f787d349c07",
      "blockNumber": 64855,
      "transactionIndex": 4,
      "confirmations": null,
      "from": "0x20e782ba08Fa10b77f27E05BD29f79DbD9C2B8c6",
      "gasPrice": {
        "_hex": "0xba43b7400"
      },
      "gasLimit": {
        "_hex": "0x5208"
      },
      "to": "0x6932058445E8A734c070B77E6E312416D2e1B02D",
      "value": {
        "_hex": "0x2795e885b68c000"
      },
      "nonce": 1,
      "data": "0x",
      "r": "0x2493cf3577c3c91d926ce42072da97c2509973031d92d5358c2e453eab0d8284",
      "s": "0x154d189914b1a3797fbfd84023942256ee14856702dc585cd8fb3a6b806f8d1b",
      "v": 28,
      "creates": null,
      "raw": "0xf86c01850ba43b7400825208946932058445e8a734c070b77e6e312416d2e1b02d8802795e885b68c000801ca02493cf3577c3c91d926ce42072da97c2509973031d92d5358c2e453eab0d8284a0154d189914b1a3797fbfd84023942256ee14856702dc585cd8fb3a6b806f8d1b",
      "networkId": 0,
      "chainId": 0
    }
  ]
}