{
  "hash": "0x4b9f4a8d814b704a023c85146e85f3d9f5c7c4a5192aef51862fa1f14373b043",
  "parentHash": "0x58ec34faf8f9494e086d50d7964253fc9c6efe308c750051f9e0a2562fd5ee23",
  "number": 65687,
  "timestamp": 1439241292,
  "nonce": "0xfd0608f85496910b",
  "difficulty": 1931184041656,
  "gasLimit": {
    "_hex": "0x2fefd8"
  },
  "gasUsed": {
    "_hex": "0x5208"
  },
  "miner": "0x88D74a59454F6cF3B51ef6b9136AFb6b9D405A88",
  "extraData": "0x476574682f76312e302e312d38326566323666362f6c696e75782f676f312e34",
  "transactions": [
    {
      "hash": "0xf13d1ee2d3572d07a2f74199bea7bcb10a319b2bfc482570c18e1c66f7b16e0e",
      "blockHash": "0x4b9f4a8d814b704a023c85146e85f3d9f5c7c4a5192aef51862fa1f14373b043",
      "blockNumber": 65687,
      "transactionIndex": 0,
      "confirmations": null,
      "from": "0x2910543Af39abA0Cd09dBb2D50200b3E800A63D2",
      "gasPrice": {
        "_hex": "0xcb570aedd"
      },
      "gasLimit": {
        "_hex": "0x5208"
      },
      "to": "0x2f86ba8019945f39edE131D38d4d8780884DA553",
      "value": {
        "_hex": "0x3635b7ea4ca6bf8000"
      },
      "nonce": 185,
      "data": "0x",
      "r": "0x641822a5d48cda435a0cf2c89e172902ff3dc92a94fa0b414e505646df7b9e59",
      "s": "0x25639d0fa69859b0ec6a8d64051684c05236194f2291aa242e97d1ff0bca331a",
      "v": 28,
      "creates": null,
      "raw": "0xf86e81b9850cb570aedd825208942f86ba8019945f39ede131d38d4d8780884da553893635b7ea4ca6bf8000801ca0641822a5d48cda435a0cf2c89e172902ff3dc92a94fa0b414e505646df7b9e59a025639d0fa69859b0ec6a8d64051684c05236194f2291aa242e97d1ff0bca331a",
      "networkId": 0,
      "chainId": 0
    }
  ]
}