{
  "hash": "0x8d95d87ae3e69cf98213c175988442d6c3d3c793fa5bf2d429d093967f922c7d",
  "parentHash": "0x5278c65636e6170a62670e1c657a26da111930fd67624f1e989d101e208d0740",
  "number": 71369,
  "timestamp": 1439334826,
  "nonce": "0x0b148694dfa36734",
  "difficulty": 2176184594948,
  "gasLimit": {
    "_hex": "0x2fefd8"
  },
  "gasUsed": {
    "_hex": "0xae73"
  },
  "miner": "0x88D74a59454F6cF3B51ef6b9136AFb6b9D405A88",
  "extraData": "0x476574682f76312e302e312d37666266393930632f6c696e75782f676f312e34",
  "transactions": [
    {
      "hash": "0x5f82f7459db81fde97cffa0f33214c8a8b0e3e9f945f93087a6aac5401dd50fe",
      "blockHash": "0x8d95d87ae3e69cf98213c175988442d6c3d3c793fa5bf2d429d093967f922c7d",
      "blockNumber": 71369,
      "transactionIndex": 0,
      "confirmations": null,
      "from": "0x17580B766f7453525ca4C6A88b01b50570EA088C",
      "gasPrice": {
        "_hex": "0xd953f8ba0"
      },
      "gasLimit": {
        "_hex": "0x61a80"
      },
      "to": "0x5Fe5B7546D1628f7348B023A0393de1FC825A4fD",
      "value": {
        "_hex": "0x1bc16d674ec80000"
      },
      "nonce": 165,
      "data": "0xb595b8b50000000000000000000000000000000000000000000000000000000000000000",
      "r": "0x5c4a6075c75b057c720ce368208152f7d82d87713ae4321131e8c3ff0534977b",
      "s": "0x6b0ad867920aa15531926d2b3c822f7f877354852b6be707eafdda9f31483eda",
      "v": 27,
      "creates": null,
      "raw": "0xf89281a5850d953f8ba083061a80945fe5b7546d1628f7348b023a0393de1fc825a4fd881bc16d674ec80000a4b595b8b500000000000000000000000000000000000000000000000000000000000000001ba05c4a6075c75b057c720ce368208152f7d82d87713ae4321131e8c3ff0534977ba06b0ad867920aa15531926d2b3c822f7f877354852b6be707eafdda9f31483eda",
      "networkId": 0,
      "chainId": 0
    }
  ]
}