{
  "hash": "0xf6ec9533b7b1d74606876e7b6a989fdff6a13d1b55b11d86a518f346da3704ed",
  "parentHash": "0x21696d9a898131e1da55433ee9ba9ed26c0db568c23333a5be2f7a32dc2e92de",
  "number": 87080,
  "timestamp": 1439586890,
  "nonce": "0x4e6837548169af7a",
  "difficulty": 3037848411660,
  "gasLimit": {
    "_hex": "0x2fefd8"
  },
  "gasUsed": {
    "_hex": "0xa674"
  },
  "miner": "0xe6A7a1d47ff21B6321162AEA7C6CB457D5476Bca",
  "extraData": "0x476574682f76312e302e312d38326566323666362f6c696e75782f676f312e34",
  "transactions": [
    {
      "hash": "0x050e5a613f2c4a91bbf50fdc43f2388d689ce12c919b6d5cb486538b7fbff204",
      "blockHash": "0xf6ec9533b7b1d74606876e7b6a989fdff6a13d1b55b11d86a518f346da3704ed",
      "blockNumber": 87080,
      "transactionIndex": 0,
      "confirmations": null,
      "from": "0x5A2b1C853AeB28c45539AF76a00AC2d8A8242896",
      "gasPrice": {
        "_hex": "0x110c8f7d8de"
      },
      "gasLimit": {
        "_hex": "0xc350"
      },
      "to": "0x2910543Af39abA0Cd09dBb2D50200b3E800A63D2",
      "value": {
        "_hex": "0x1158e460913d00000"
      },
      "nonce": 0,
      "data": "0x454e52363747395630",
      "r": "0x9d529d150d84097cd96009e1d71c9f1b98652d4ecb06921d5644f16fabb3c688",
      "s": "0x0c7187064cecb501f291b19e8e0b220b77ef905042ab928ba8a67f4b01dd476c",
      "v": 27,
      "creates": null,
      "raw": "0xf87780860110c8f7d8de82c350942910543af39aba0cd09dbb2d50200b3e800a63d28901158e460913d0000089454e523637473956301ba09d529d150d84097cd96009e1d71c9f1b98652d4ecb06921d5644f16fabb3c688a00c7187064cecb501f291b19e8e0b220b77ef905042ab928ba8a67f4b01dd476c",
      "networkId": 0,
      "chainId": 0
    },
    {
      "hash": "0x45d6df51434582cab97901a48c7cf4082b3d454166d5037a3a0983295383013b",
      "blockHash": "0xf6ec9533b7b1d74606876e7b6a989fdff6a13d1b55b11d86a518f346da3704ed",
      "blockNumber": 87080,
      "transactionIndex": 1,
      "confirmations": null,
      "from": "0x98781996FF0F2C5dE96Bb45755683BB5a09A5727",
      "gasPrice": {
        "_hex": "0xd88b99acc"
      },
      "gasLimit": {
        "_hex": "0x5208"
      },
      "to": "0x32Be343B94f860124dC4fEe278FDCBD38C102D88",
      "value": {
        "_hex": "0x45622fe72b97f0000"
      },
      "nonce": 3,
      "data": "0x",
      "r": "0x2c6e55ffe9584ce6041e4e5765082b7e5757d5baee7074db08ff36474e90961b",
      "s": "0x3c7728a1633481c02bf846cda0778db7b0a55aae582231e50a1caa5563134f8f",
      "v": 28,
      "creates": null,
      "raw": "0xf86d03850d88b99acc8252089432be343b94f860124dc4fee278fdcbd38c102d8889045622fe72b97f0000801ca02c6e55ffe9584ce6041e4e5765082b7e5757d5baee7074db08ff36474e90961ba03c7728a1633481c02bf846cda0778db7b0a55aae582231e50a1caa5563134f8f",
      "networkId": 0,
      "chainId": 0
    }
  ]
}