{
  "hash": "0xf0bf5e17e3e9d0d3674615860f4cceafdad95ac7e33803367e82d9f402097336",
  "parentHash": "0x50fe13e96508b67f754c6d71df1995feaa673ee67e04294a8d93f8a26554bcc0",
  "number": 109679,
  "timestamp": 1439960716,
  "nonce": "0x567adc89c249f861",
  "difficulty": 4449238102700,
  "gasLimit": {
    "_hex": "0x2fefd8"
  },
  "gasUsed": {
    "_hex": "0x5208"
  },
  "miner": "0xe6A7a1d47ff21B6321162AEA7C6CB457D5476Bca",
  "extraData": "0x476574682f76312e302e312d38326566323666362f6c696e75782f676f312e34",
  "transactions": [
    {
      "hash": "0x7e599fe9d626b83c855edf5797998457b2ca9913d1a220bafdbb094ba958780c",
      "blockHash": "0xf0bf5e17e3e9d0d3674615860f4cceafdad95ac7e33803367e82d9f402097336",
      "blockNumber": 109679,
      "transactionIndex": 0,
      "confirmations": null,
      "from": "0x32Be343B94f860124dC4fEe278FDCBD38C102D88",
      "gasPrice": {
        "_hex": "0xd15d594ba"
      },
      "gasLimit": {
        "_hex": "0x5208"
      },
      "to": "0x9010245ce84719A3F83c85072ea496e51c00066E",
      "value": {
        "_hex": "0x128dfa6a90b28000"
      },
      "nonce": 1278,
      "data": "0x",
      "r": "0xaa42406afe79b0b2e3e210a3707a14ccb3894b2eee527538b0c59dc1ad253c6e",
      "s": "0x1959693542bedef644ed89e32b0c0f635386e599e359066114c360f182f20651",
      "v": 27,
      "creates": null,
      "raw": "0xf86e8204fe850d15d594ba825208949010245ce84719a3f83c85072ea496e51c00066e88128dfa6a90b28000801ba0aa42406afe79b0b2e3e210a3707a14ccb3894b2eee527538b0c59dc1ad253c6ea01959693542bedef644ed89e32b0c0f635386e599e359066114c360f182f20651",
      "networkId": 0,
      "chainId": 0
    }
  ]
}