{
  "hash": "0x2f627dd8044d53b0fc8dd18fc402920efb1de745d431bc4ec0cc6ab6b477fe17",
  "parentHash": "0xe34512acc71e3d75f325bc39ffd9aa40f21c13d4dd05a672570cf8c8d22c2900",
  "number": 55915,
  "timestamp": 1439079148,
  "nonce": "0xdb16dd9bc5f5ce34",
  "difficulty": 1610719573639,
  "gasLimit": {
    "_hex": "0x2fefd8"
  },
  "gasUsed": {
    "_hex": "0xa410"
  },
  "miner": "0x9746c7e1ef2bd21FF3997fa467593a89cb852BD0",
  "extraData": "0x476574682f76312e302e312f77696e646f77732f676f312e342e32",
  "transactions": [
    {
      "hash": "0x3375675664ac9dc77f61cfcf0285ffa623dcb68c15e4dc405d8ac9d37cee01f8",
      "blockHash": "0x2f627dd8044d53b0fc8dd18fc402920efb1de745d431bc4ec0cc6ab6b477fe17",
      "blockNumber": 55915,
      "transactionIndex": 0,
      "confirmations": null,
      "from": "0xBFdD9820a04283b289957956353b5F3C1F665EcF",
      "gasPrice": {
        "_hex": "0xd0dd4ad83"
      },
      "gasLimit": {
        "_hex": "0x5208"
      },
      "to": "0x32Be343B94f860124dC4fEe278FDCBD38C102D88",
      "value": {
        "_hex": "0x22c937d6523314000"
      },
      "nonce": 4,
      "data": "0x",
      "r": "0x17ab2b50aa3bffe46ba2d788d4a6fde82e1af911cb4c6ffa077fc020fa3a1e45",
      "s": "0x0c802e6b709c0f1c053bba5b994a19f05ee129155c00a2b666567c6610c2e584",
      "v": 27,
      "creates": null,
      "raw": "0xf86d04850d0dd4ad838252089432be343b94f860124dc4fee278fdcbd38c102d8889022c937d6523314000801ba017ab2b50aa3bffe46ba2d788d4a6fde82e1af911cb4c6ffa077fc020fa3a1e45a00c802e6b709c0f1c053bba5b994a19f05ee129155c00a2b666567c6610c2e584",
      "networkId": 0,
      "chainId": 0
    },
    {
      "hash": "0x0765872efc731dde11b8f870d2bac5c52f2cf07b7db3b52decfa6fc0b11671ac",
      "blockHash": "0x2f627dd8044d53b0fc8dd18fc402920efb1de745d431bc4ec0cc6ab6b477fe17",
      "blockNumber": 55915,
      "transactionIndex": 1,
      "confirmations": null,
      "from": "0xF0224ea727d4924A8dd69a8d2d473Cc4c3590423",
      "gasPrice": {
        "_hex": "0xcebd8278e"
      },
      "gasLimit": {
        "_hex": "0x5208"
      },
      "to": "0x32Be343B94f860124dC4fEe278FDCBD38C102D88",
      "value": {
        "_hex": "0xaa0195691623a800"
      },
      "nonce": 0,
      "data": "0x",
      "r": "0xe16a906627c0a3d5a7a9d589c1d2157216fb7375bf7fd6f931c1aa6875080db4",
      "s": "0x0b9d55c500425ad691092758b945612af6fbd8bb5071e39ed4ca01312520e9f8",
      "v": 28,
      "creates": null,
      "raw": "0xf86c80850cebd8278e8252089432be343b94f860124dc4fee278fdcbd38c102d8888aa0195691623a800801ca0e16a906627c0a3d5a7a9d589c1d2157216fb7375bf7fd6f931c1aa6875080db4a00b9d55c500425ad691092758b945612af6fbd8bb5071e39ed4ca01312520e9f8",
      "networkId": 0,
      "chainId": 0
    }
  ]
}