{
  "hash": "0x0959df5cf43ae848d1dd10ca60bf2f031f7d3738568255a60dd7916e8a5c3211",
  "parentHash": "0xb971cb0731583b7e228ab066b6e5fc35ad2fed762d83367573e3fbb76ccb266b",
  "number": 56181,
  "timestamp": 1439083201,
  "nonce": "0x732643e12ccfaf31",
  "difficulty": 1639231338631,
  "gasLimit": {
    "_hex": "0x2fefd8"
  },
  "gasUsed": {
    "_hex": "0x49f26"
  },
  "miner": "0xe8a09f2DdC6D33E1dCE008B1810B5D317Cd7891e",
  "extraData": "0x476574682f76312e302e312f77696e646f77732f676f312e342e32",
  "transactions": [
    {
      "hash": "0x82f776bc3f152570cc57dc15e8795540d2a5884f9f63fed63aac82ef4b94ce67",
      "blockHash": "0x0959df5cf43ae848d1dd10ca60bf2f031f7d3738568255a60dd7916e8a5c3211",
      "blockNumber": 56181,
      "transactionIndex": 0,
      "confirmations": null,
      "from": "0x946B4421c64331bdAe148e6F27d66B92612E0BF6",
      "gasPrice": {
        "_hex": "0xdab3ce24d"
      },
      "gasLimit": {
        "_hex": "0x5208"
      },
      "to": "0x32Be343B94f860124dC4fEe278FDCBD38C102D88",
      "value": {
        "_hex": "0x1a12c458be8d1000"
      },
      "nonce": 4,
      "data": "0x",
      "r": "0x04edba34bd0a29ab1d7fe1083e5d91fab73c47ef5d10432fd3cafcc186de74fd",
      "s": "0x1bbb6e19d89207d530dd5cc27c3af06980f7ca8935e0e90adc11bf5298238d4a",
      "v": 28,
      "creates": null,
      "raw": "0xf86c04850dab3ce24d8252089432be343b94f860124dc4fee278fdcbd38c102d88881a12c458be8d1000801ca004edba34bd0a29ab1d7fe1083e5d91fab73c47ef5d10432fd3cafcc186de74fda01bbb6e19d89207d530dd5cc27c3af06980f7ca8935e0e90adc11bf5298238d4a",
      "networkId": 0,
      "chainId": 0
    },
    {
      "hash": "0x3cb0dbe82ebdfad113b55920bfd5b03670b1dd7e0e14c48fa23299dcee768b76",
      "blockHash": "0x0959df5cf43ae848d1dd10ca60bf2f031f7d3738568255a60dd7916e8a5c3211",
      "blockNumber": 56181,
      "transactionIndex": 1,
      "confirmations": null,
      "from": "0xc2935c7B62d9127B3E3a96eB685F937AE94CdA94",
      "gasPrice": {
        "_hex": "0xdab3ce24d"
      },
      "gasLimit": {
        "_hex": "0x5208"
      },
      "to": "0x32Be343B94f860124dC4fEe278FDCBD38C102D88",
      "value": {
        "_hex": "0x361a03d431a9d80000"
      },
      "nonce": 1,
      "data": "0x",
      "r": "0x5ca78ee03f29e3b3fca28562ce1e4b835bb10fed531f3bfd1d65b3feaad4e90a",
      "s": "0x6b5714dc96f2b9a6c5a50487d5dbc08612301fbdc2ec1a590364e36b12c6ff11",
      "v": 28,
      "creates": null,
      "raw": "0xf86d01850dab3ce24d8252089432be343b94f860124dc4fee278fdcbd38c102d8889361a03d431a9d80000801ca05ca78ee03f29e3b3fca28562ce1e4b835bb10fed531f3bfd1d65b3feaad4e90aa06b5714dc96f2b9a6c5a50487d5dbc08612301fbdc2ec1a590364e36b12c6ff11",
      "networkId": 0,
      "chainId": 0
    },
    {
      "hash": "0x1aa555d624397a94aca3001360c4b82a7d473fbed1699daedfd4d3c2e4d79347",
      "blockHash": "0x0959df5cf43ae848d1dd10ca60bf2f031f7d3738568255a60dd7916e8a5c3211",
      "blockNumber": 56181,
      "transactionIndex": 2,
      "confirmations": null,
      "from": "0x288E4356F12D0D3D0F8DF3506E457E7cFd5f4Ab0",
      "gasPrice": {
        "_hex": "0xda59e2f40"
      },
      "gasLimit": {
        "_hex": "0xf4240"
      },
      "to": null,
      "value": {
        "_hex": "0x0"
      },
      "nonce": 32,
      "data": "0x606060405261038a806100136000396000f30060606040526000357c0100000000000000000000000000000000000000000000000000000000900480635e28ed7f1461004f5780635f5961f5146100b55780637888a781146101345761004d565b005b61009f6004803590602001906004018035906020019191908080601f0160208091040260200160405190810160405280939291908181526020018383808284378201915050505050509050610228565b6040518082815260200191505060405180910390f35b6100c66004803590602001506101b3565b60405180806020018281038252838181518152602001915080519060200190808383829060006004602084601f0104600302600f01f150905090810190601f1680156101265780820380516001836020036101000a031916815260200191505b509250505060405180910390f35b6101456004803590602001506102e0565b60405180806020018281038252838181518152602001915080519060200190808383829060006004602084601f0104600302600f01f150905090810190601f1680156101a55780820380516001836020036101000a031916815260200191505b509250505060405180910390f35b6000600050602052806000526040600020600091509050805480601f0160208091040260200160405190810160405280929190818152602001828054801561022057820191906000526020600020905b81548152906001019060200180831161020357829003601f168201915b505050505081565b600081600060005060003373ffffffffffffffffffffffffffffffffffffffff168152602001908152602001600020600050908051906020019082805482825590600052602060002090601f016020900481019282156102a5579182015b828111156102a4578251826000505591602001919060010190610286565b5b5090506102d091906102b2565b808211156102cc57600081815060009055506001016102b2565b5090565b5050600190506102db565b919050565b6020604051908101604052806000815260200150600060005060008373ffffffffffffffffffffffffffffffffffffffff168152602001908152602001600020600050805480601f0160208091040260200160405190810160405280929190818152602001828054801561037957820191906000526020600020905b81548152906001019060200180831161035c57829003601f168201915b50505050509050610385565b91905056",
      "r": "0x33772e65a348d7a4034cf61a9c0e35a26671261107f384edbe5f9b508fa800ac",
      "s": "0x4b1d8aab154f4e5396dbd427409377c2cf81c68c7e8871c34a2fed59563aec00",
      "v": 28,
      "creates": "0x40F457d7D8430bC6D03609b81Cc2E95b7bEFb01a",
      "raw": "0xf903f020850da59e2f40830f42408080b9039d606060405261038a806100136000396000f30060606040526000357c0100000000000000000000000000000000000000000000000000000000900480635e28ed7f1461004f5780635f5961f5146100b55780637888a781146101345761004d565b005b61009f6004803590602001906004018035906020019191908080601f0160208091040260200160405190810160405280939291908181526020018383808284378201915050505050509050610228565b6040518082815260200191505060405180910390f35b6100c66004803590602001506101b3565b60405180806020018281038252838181518152602001915080519060200190808383829060006004602084601f0104600302600f01f150905090810190601f1680156101265780820380516001836020036101000a031916815260200191505b509250505060405180910390f35b6101456004803590602001506102e0565b60405180806020018281038252838181518152602001915080519060200190808383829060006004602084601f0104600302600f01f150905090810190601f1680156101a55780820380516001836020036101000a031916815260200191505b509250505060405180910390f35b6000600050602052806000526040600020600091509050805480601f0160208091040260200160405190810160405280929190818152602001828054801561022057820191906000526020600020905b81548152906001019060200180831161020357829003601f168201915b505050505081565b600081600060005060003373ffffffffffffffffffffffffffffffffffffffff168152602001908152602001600020600050908051906020019082805482825590600052602060002090601f016020900481019282156102a5579182015b828111156102a4578251826000505591602001919060010190610286565b5b5090506102d091906102b2565b808211156102cc57600081815060009055506001016102b2565b5090565b5050600190506102db565b919050565b6020604051908101604052806000815260200150600060005060008373ffffffffffffffffffffffffffffffffffffffff168152602001908152602001600020600050805480601f0160208091040260200160405190810160405280929190818152602001828054801561037957820191906000526020600020905b81548152906001019060200180831161035c57829003601f168201915b50505050509050610385565b919050561ca033772e65a348d7a4034cf61a9c0e35a26671261107f384edbe5f9b508fa800aca04b1d8aab154f4e5396dbd427409377c2cf81c68c7e8871c34a2fed59563aec00",
      "networkId": 0,
      "chainId": 0
    }
  ]
}