{
  "hash": "0x6ea3193cc0cee5850b41eca6125a84c6fcd937c5f0bca3cd63931563ce41854e",
  "parentHash": "0x33e9d9343b66d2c196c4846136b1b6aa57f041b9d9fe397a503ee0319bb38887",
  "number": 90590,
  "timestamp": 1439642514,
  "nonce": "0x5eb55e13ce0afc2c",
  "difficulty": 3325271751518,
  "gasLimit": {
    "_hex": "0x2fefd8"
  },
  "gasUsed": {
    "_hex": "0x5208"
  },
  "miner": "0x790b8a3cE86E707ED0eD32bF89B3269692a23CC1",
  "extraData": "0xd783010001844765746887676f312e342e32856c696e7578",
  "transactions": [
    {
      "hash": "0x6bf87a0a2274c1aac4b2e86fbb4199f802acfaf461298d327e52deff90ca2104",
      "blockHash": "0x6ea3193cc0cee5850b41eca6125a84c6fcd937c5f0bca3cd63931563ce41854e",
      "blockNumber": 90590,
      "transactionIndex": 0,
      "confirmations": null,
      "from": "0x32Be343B94f860124dC4fEe278FDCBD38C102D88",
      "gasPrice": {
        "_hex": "0xd73917c65"
      },
      "gasLimit": {
        "_hex": "0x5208"
      },
      "to": "0xCD1e66ED539dd92Fc40bBAa1FA16de8c02C14D45",
      "value": {
        "_hex": "0x57570fe44d7488000"
      },
      "nonce": 859,
      "data": "0x",
      "r": "0x5311ca01019a0bbde2f0c68729ea1592cef5c1813a3ffac1f9f475fb5f0d2618",
      "s": "0x4c270a7d37faf2c20f2cc6a2bddb90019a9dbe7735f5122deb9869d6fa07bb87",
      "v": 27,
      "creates": null,
      "raw": "0xf86f82035b850d73917c6582520894cd1e66ed539dd92fc40bbaa1fa16de8c02c14d4589057570fe44d7488000801ba05311ca01019a0bbde2f0c68729ea1592cef5c1813a3ffac1f9f475fb5f0d2618a04c270a7d37faf2c20f2cc6a2bddb90019a9dbe7735f5122deb9869d6fa07bb87",
      "networkId": 0,
      "chainId": 0
    }
  ]
}