{
  "hash": "0xb67d435e3cbebde8e6f9222ff52acc5a90c45d4c5cb3479d991a289fc321786c",
  "parentHash": "0x4629572749149146b7e31e8183e187c34eebb9ce1e7da2645d13b3549329e2a0",
  "number": 88309,
  "timestamp": 1439606147,
  "nonce": "0x5813bd4642e69b6f",
  "difficulty": 3197190746742,
  "gasLimit": {
    "_hex": "0x2fefd8"
  },
  "gasUsed": {
    "_hex": "0x5208"
  },
  "miner": "0x580992B51e3925e23280EfB93d3047C82f17E038",
  "extraData": "0x476574682f76312e302e312f6c696e75782f676f312e342e32",
  "transactions": [
    {
      "hash": "0x9e71bdd3bd8cc2bcd68ee60528b2fbba21f355f28710a6ec83978b8863b14114",
      "blockHash": "0xb67d435e3cbebde8e6f9222ff52acc5a90c45d4c5cb3479d991a289fc321786c",
      "blockNumber": 88309,
      "transactionIndex": 0,
      "confirmations": null,
      "from": "0xb1abce2918E21ddb93AA452731a12672A3d9F75a",
      "gasPrice": {
        "_hex": "0xd5d4371a6"
      },
      "gasLimit": {
        "_hex": "0x5208"
      },
      "to": "0x32Be343B94f860124dC4fEe278FDCBD38C102D88",
      "value": {
        "_hex": "0xbfaf970ce1a9c0000"
      },
      "nonce": 3,
      "data": "0x",
      "r": "0xf8893064b948b3fa611676834b370a4b1736a16fe174b2546100f37c2a45e695",
      "s": "0x29bb6ce2125223ee0ce95e28ea980d6edd1a252c8951f64130318145447f3453",
      "v": 28,
      "creates": null,
      "raw": "0xf86d03850d5d4371a68252089432be343b94f860124dc4fee278fdcbd38c102d88890bfaf970ce1a9c0000801ca0f8893064b948b3fa611676834b370a4b1736a16fe174b2546100f37c2a45e695a029bb6ce2125223ee0ce95e28ea980d6edd1a252c8951f64130318145447f3453",
      "networkId": 0,
      "chainId": 0
    }
  ]
}