{
  "hash": "0x4e881b8baa348868ccc9b59db8042e895f620bb531251e64b12bd40059ebf4e1",
  "parentHash": "0xb5bbe00ebb89c01f403a44de488416bab631ff7ff9d3e7ac506d49e369aadf01",
  "number": 101902,
  "timestamp": 1439829768,
  "nonce": "0x27d969756bdbe100",
  "difficulty": 3893788553962,
  "gasLimit": {
    "_hex": "0x2fefd8"
  },
  "gasUsed": {
    "_hex": "0x5208"
  },
  "miner": "0xf927a40C8B7F6E07c5af7FA2155B4864a4112B13",
  "extraData": "0x",
  "transactions": [
    {
      "hash": "0xc7ae55b3659035c02ccb40b61703f3ec719db7a94fb58d29ac36760cd6fad281",
      "blockHash": "0x4e881b8baa348868ccc9b59db8042e895f620bb531251e64b12bd40059ebf4e1",
      "blockNumber": 101902,
      "transactionIndex": 0,
      "confirmations": null,
      "from": "0x4D67f4F0Db45b3B5a3424B39ed8d972F710381D5",
      "gasPrice": {
        "_hex": "0xd55bd79ec"
      },
      "gasLimit": {
        "_hex": "0x5208"
      },
      "to": "0x32Be343B94f860124dC4fEe278FDCBD38C102D88",
      "value": {
        "_hex": "0x16836da1402a500000"
      },
      "nonce": 22,
      "data": "0x",
      "r": "0xca70934f4ecc53166072b314c8645412969a2c97ac344a5b3ba74e7b777eb377",
      "s": "0x3f8d982000c8ac76978d81c3857d7de8585916d2a4a6f8f5b2e1bdfd904ae091",
      "v": 28,
      "creates": null,
      "raw": "0xf86d16850d55bd79ec8252089432be343b94f860124dc4fee278fdcbd38c102d888916836da1402a500000801ca0ca70934f4ecc53166072b314c8645412969a2c97ac344a5b3ba74e7b777eb377a03f8d982000c8ac76978d81c3857d7de8585916d2a4a6f8f5b2e1bdfd904ae091",
      "networkId": 0,
      "chainId": 0
    }
  ]
}