{
  "hash": "0x8c8f78817368ed156549c362366d80ab17226bc86071f2a1f69851137b9c9a7d",
  "parentHash": "0x3ced490c595a78ff8798c07d5845fb08870c4641fdbaac29c4d5356705f5bd81",
  "number": 71307,
  "timestamp": 1439334042,
  "nonce": "0x95955f23256fe9fd",
  "difficulty": 2157157721308,
  "gasLimit": {
    "_hex": "0x2fefd8"
  },
  "gasUsed": {
    "_hex": "0xae73"
  },
  "miner": "0xe6A7a1d47ff21B6321162AEA7C6CB457D5476Bca",
  "extraData": "0x476574682f76312e302e312d38326566323666362f6c696e75782f676f312e34",
  "transactions": [
    {
      "hash": "0xa45da1b6fa945af1ccecde88841545f67440e85a58558d23ebbeb8e4abe3b05e",
      "blockHash": "0x8c8f78817368ed156549c362366d80ab17226bc86071f2a1f69851137b9c9a7d",
      "blockNumber": 71307,
      "transactionIndex": 0,
      "confirmations": null,
      "from": "0x17580B766f7453525ca4C6A88b01b50570EA088C",
      "gasPrice": {
        "_hex": "0xd7f71de34"
      },
      "gasLimit": {
        "_hex": "0x61a80"
      },
      "to": "0x5Fe5B7546D1628f7348B023A0393de1FC825A4fD",
      "value": {
        "_hex": "0x1bc16d674ec80000"
      },
      "nonce": 149,
      "data": "0xb595b8b50000000000000000000000000000000000000000000000000000000000000000",
      "r": "0x853b97c2e6c16bad214c0e7f1ca67afb3fb9ff89ac1d301e07ab0b626b0fc9c6",
      "s": "0x2550aef79f7c2cf37b83f66e6b5ede44a7a2daa8e15a9e1ed4b074c8fbc628dd",
      "v": 28,
      "creates": null,
      "raw": "0xf8928195850d7f71de3483061a80945fe5b7546d1628f7348b023a0393de1fc825a4fd881bc16d674ec80000a4b595b8b500000000000000000000000000000000000000000000000000000000000000001ca0853b97c2e6c16bad214c0e7f1ca67afb3fb9ff89ac1d301e07ab0b626b0fc9c6a02550aef79f7c2cf37b83f66e6b5ede44a7a2daa8e15a9e1ed4b074c8fbc628dd",
      "networkId": 0,
      "chainId": 0
    }
  ]
}