{
  "hash": "0xa20b5549e79acc82149acae5ac9b4a66a1945936c1a42b8b5366894abc550f39",
  "parentHash": "0x1fff21191c90fe5f38914c290ffb8ca37d24e446861165fb473d7d415e4fa87d",
  "number": 99253,
  "timestamp": 1439787004,
  "nonce": "0xd8958aa0e4f135f8",
  "difficulty": 3788106753676,
  "gasLimit": {
    "_hex": "0x2fefd8"
  },
  "gasUsed": {
    "_hex": "0x5208"
  },
  "miner": "0xd03F6B5b7FBCf7Dd4DEE4919543236c733546a2A",
  "extraData": "0xda8098302e392e34312b2b302d524c696e75782f672b2b2f696e74",
  "transactions": [
    {
      "hash": "0x15c8c1b51a5a59dab4070406a9c70c10caf3d46dfec62817b19989fbb0e94b5f",
      "blockHash": "0xa20b5549e79acc82149acae5ac9b4a66a1945936c1a42b8b5366894abc550f39",
      "blockNumber": 99253,
      "transactionIndex": 0,
      "confirmations": null,
      "from": "0x120A270bbC009644e35F0bB6ab13f95b8199c4ad",
      "gasPrice": {
        "_hex": "0xe03de444c"
      },
      "gasLimit": {
        "_hex": "0x3d090"
      },
      "to": "0xf4d9a6bdB61cA0316FEf11F642bFc8ed00301125",
      "value": {
        "_hex": "0xa688906bd8b00000"
      },
      "nonce": 665,
      "data": "0x",
      "r": "0xdfca30c0f5ed4d1fa1e583a223a5c7515b38970558003d9bc80d0a6d92fbec5a",
      "s": "0x3be229d3b4604078fd80127f1a827b7b48954d62e857a97bf965fd3d7772c32e",
      "v": 27,
      "creates": null,
      "raw": "0xf86f820299850e03de444c8303d09094f4d9a6bdb61ca0316fef11f642bfc8ed0030112588a688906bd8b00000801ba0dfca30c0f5ed4d1fa1e583a223a5c7515b38970558003d9bc80d0a6d92fbec5aa03be229d3b4604078fd80127f1a827b7b48954d62e857a97bf965fd3d7772c32e",
      "networkId": 0,
      "chainId": 0
    }
  ]
}