{
  "hash": "0x7d520413de84120cf3694853077e8dd7e03d122f116ccaa036f769d6e82678b7",
  "parentHash": "0x8135ae169832f462383d477820624d910de665358a0b833d76e5766fc45c0a57",
  "number": 60411,
  "timestamp": 1439155110,
  "nonce": "0x8475c2272289a6c5",
  "difficulty": 1738970893708,
  "gasLimit": {
    "_hex": "0x2fefd5"
  },
  "gasUsed": {
    "_hex": "0xa8d8"
  },
  "miner": "0xeB1325C8D9d3ea8D74aC11F4B00F1B2367686319",
  "extraData": "0x476574682f76312e302e312f77696e646f77732f676f312e342e32",
  "transactions": [
    {
      "hash": "0x06045a88bf218798f62b3e554ff11f54c06fe65244122a3f608be0df4eabdcdd",
      "blockHash": "0x7d520413de84120cf3694853077e8dd7e03d122f116ccaa036f769d6e82678b7",
      "blockNumber": 60411,
      "transactionIndex": 0,
      "confirmations": null,
      "from": "0xA34f9D568bF7aFd94c2A5B8a5Ff55C66C4087999",
      "gasPrice": {
        "_hex": "0x11bbc48d59e"
      },
      "gasLimit": {
        "_hex": "0x15f90"
      },
      "to": "0x2910543Af39abA0Cd09dBb2D50200b3E800A63D2",
      "value": {
        "_hex": "0x16345785d8a0000"
      },
      "nonce": 3,
      "data": "0x454e435250324d4a52",
      "r": "0x28568070d183818415d128c980aa2461afd76337f8457115935ada9e9096a3f7",
      "s": "0x13b08124114f4ab5b3023ab267ddeada9447063f37324d881a3edfd64d42acc0",
      "v": 28,
      "creates": null,
      "raw": "0xf8770386011bbc48d59e83015f90942910543af39aba0cd09dbb2d50200b3e800a63d288016345785d8a000089454e435250324d4a521ca028568070d183818415d128c980aa2461afd76337f8457115935ada9e9096a3f7a013b08124114f4ab5b3023ab267ddeada9447063f37324d881a3edfd64d42acc0",
      "networkId": 0,
      "chainId": 0
    },
    {
      "hash": "0x1bb5c283e75d2ccef9d8b79bdd7dce55185a6228579522eb1ad8129ad11d0726",
      "blockHash": "0x7d520413de84120cf3694853077e8dd7e03d122f116ccaa036f769d6e82678b7",
      "blockNumber": 60411,
      "transactionIndex": 1,
      "confirmations": null,
      "from": "0xe6282e5294D064DD01851808dE43b9be32066E72",
      "gasPrice": {
        "_hex": "0x117fe8c9a86"
      },
      "gasLimit": {
        "_hex": "0x15f90"
      },
      "to": "0x2910543Af39abA0Cd09dBb2D50200b3E800A63D2",
      "value": {
        "_hex": "0xc18d87f91aa6320000"
      },
      "nonce": 6,
      "data": "0x454e4347454e4d3652",
      "r": "0xcb9850074b757ab1879736941e2fcff4fef0236f6b6aef35b75d9417500c445a",
      "s": "0x2358d121a867002774a94f5adc8ae15c045c56e5abf445dae7ebd669cac5dec1",
      "v": 27,
      "creates": null,
      "raw": "0xf87806860117fe8c9a8683015f90942910543af39aba0cd09dbb2d50200b3e800a63d289c18d87f91aa632000089454e4347454e4d36521ba0cb9850074b757ab1879736941e2fcff4fef0236f6b6aef35b75d9417500c445aa02358d121a867002774a94f5adc8ae15c045c56e5abf445dae7ebd669cac5dec1",
      "networkId": 0,
      "chainId": 0
    }
  ]
}