{
  "hash": "0x060323e62afd040143d8cdef52f018e7a95f03bf35cc2da049a2fde2ff4c43dd",
  "parentHash": "0x5121658ba0153ea2301898d19c30306f5575e8665fa9c56bb8bd31dae7c2b16b",
  "number": 85649,
  "timestamp": 1439566686,
  "nonce": "0x06a7a6b6a1fa5a64",
  "difficulty": 2789523711437,
  "gasLimit": {
    "_hex": "0x2fefd8"
  },
  "gasUsed": {
    "_hex": "0x2a00"
  },
  "miner": "0xa70a9a7040d542C632D8e0bE7c5513A8a5Bbc752",
  "extraData": "0x",
  "transactions": [
    {
      "hash": "0xd91c00b7204ee28196c3a78059931da1f15a3d5ea808a420c93e4cd92918e2a3",
      "blockHash": "0x060323e62afd040143d8cdef52f018e7a95f03bf35cc2da049a2fde2ff4c43dd",
      "blockNumber": 85649,
      "transactionIndex": 0,
      "confirmations": null,
      "from": "0x2C3B2AF7a5f5d5066a0aDb4aE3142D2c24CAD77A",
      "gasPrice": {
        "_hex": "0xd17d99d36"
      },
      "gasLimit": {
        "_hex": "0x15f90"
      },
      "to": "0x70791019Dcb20F5507c64a94d21DD573105c5D32",
      "value": {
        "_hex": "0x0"
      },
      "nonce": 2,
      "data": "0x41c0e1b5",
      "r": "0xe450fe8929478ec6902d412d1ebd5ea6841589c59e0383b2bc8f64dab45f7e4d",
      "s": "0x3e7d9fb2b1b15baf289ca420d95d81c2a5017f9f29c19185a2a3fef3651b6512",
      "v": 28,
      "creates": null,
      "raw": "0xf86902850d17d99d3683015f909470791019dcb20f5507c64a94d21dd573105c5d32808441c0e1b51ca0e450fe8929478ec6902d412d1ebd5ea6841589c59e0383b2bc8f64dab45f7e4da03e7d9fb2b1b15baf289ca420d95d81c2a5017f9f29c19185a2a3fef3651b6512",
      "networkId": 0,
      "chainId": 0
    }
  ]
}