{
  "hash": "0x08a80ea45c9f7123314a2501f99688e22100984573260022584783bd8ae619f7",
  "parentHash": "0x6108e89d050025f9af50744f516a587e3f64434e2e1851a28698118b92b59789",
  "number": 85653,
  "timestamp": 1439566757,
  "nonce": "0x8a6396dd74b8d8ec",
  "difficulty": 2789522381288,
  "gasLimit": {
    "_hex": "0x2fefd8"
  },
  "gasUsed": {
    "_hex": "0x5318"
  },
  "miner": "0x77EC9ad4A7E9418774C29415CAaF4Ee0da96eF64",
  "extraData": "0x",
  "transactions": [
    {
      "hash": "0xdca2fb701c710f63ec7c2dc3ce4339dfaed466113969aa9ea59398392ecba8ea",
      "blockHash": "0x08a80ea45c9f7123314a2501f99688e22100984573260022584783bd8ae619f7",
      "blockNumber": 85653,
      "transactionIndex": 0,
      "confirmations": null,
      "from": "0x2C3B2AF7a5f5d5066a0aDb4aE3142D2c24CAD77A",
      "gasPrice": {
        "_hex": "0xdb7a82f9a"
      },
      "gasLimit": {
        "_hex": "0x15f90"
      },
      "to": "0x70791019Dcb20F5507c64a94d21DD573105c5D32",
      "value": {
        "_hex": "0x0"
      },
      "nonce": 3,
      "data": "0x41c0e1b5",
      "r": "0x469cea2ff61bacf448f22999f2268f5f5f77e1096baa9c93e9397e5cc724bfb5",
      "s": "0x469525bf33991bd83b4bc6cdbe9cc4f88804e41fede54417ac938a9ac5433de0",
      "v": 28,
      "creates": null,
      "raw": "0xf86903850db7a82f9a83015f909470791019dcb20f5507c64a94d21dd573105c5d32808441c0e1b51ca0469cea2ff61bacf448f22999f2268f5f5f77e1096baa9c93e9397e5cc724bfb5a0469525bf33991bd83b4bc6cdbe9cc4f88804e41fede54417ac938a9ac5433de0",
      "networkId": 0,
      "chainId": 0
    }
  ]
}