{
  "hash": "0x3bda5692ebc13c1cf5d8b69b8110579be49bba7c42bbed2d44b97a115936271f",
  "parentHash": "0x3133113f82e5a03369e17cb687667fd013cf9b8205971213e346e4108c828e24",
  "number": 46835,
  "timestamp": 1438930025,
  "nonce": "0xf9b5ab86062f96b5",
  "difficulty": 1458163102094,
  "gasLimit": {
    "_hex": "0x7d68"
  },
  "gasUsed": {
    "_hex": "0x5208"
  },
  "miner": "0x9746c7e1ef2bd21FF3997fa467593a89cb852BD0",
  "extraData": "0x476574682f76312e302e312f77696e646f77732f676f312e342e32",
  "transactions": [
    {
      "hash": "0xb8227c962ca455bfced27129540b5b2f58b21461a159c8cb4972907b9be4fd1a",
      "blockHash": "0x3bda5692ebc13c1cf5d8b69b8110579be49bba7c42bbed2d44b97a115936271f",
      "blockNumber": 46835,
      "transactionIndex": 0,
      "confirmations": null,
      "from": "0x6268eFD741C08f1EC4299A8FbE1D726a081DA611",
      "gasPrice": {
        "_hex": "0x746a528800"
      },
      "gasLimit": {
        "_hex": "0x5b04"
      },
      "to": "0x1Fd82e72C890d679A44a8E61d728a81222922C31",
      "value": {
        "_hex": "0x11e3ab8395c6e80000"
      },
      "nonce": 0,
      "data": "0x",
      "r": "0x6368b7c65ec91bbd5a63ea718f27d7af85daa4c034932961f569fa40270f010a",
      "s": "0x033316003f8324776b86ef79de6daeb5079e684f8bdba92e15f430bebe825f8f",
      "v": 27,
      "creates": null,
      "raw": "0xf86d8085746a528800825b04941fd82e72c890d679a44a8e61d728a81222922c318911e3ab8395c6e80000801ba06368b7c65ec91bbd5a63ea718f27d7af85daa4c034932961f569fa40270f010aa0033316003f8324776b86ef79de6daeb5079e684f8bdba92e15f430bebe825f8f",
      "networkId": 0,
      "chainId": 0
    }
  ]
}