{
  "hash": "0xc644b7e5befa806da69dfb4bf67b007fbe5983349e4c2987dfc5ded50fb8bcf0",
  "parentHash": "0xbfff0e7953a8f6f16c480dd46481da60a503ff0b406ebc82237a5edc7dac81b5",
  "number": 55925,
  "timestamp": 1439079272,
  "nonce": "0x4e7d20c95870f291",
  "difficulty": 1613866660880,
  "gasLimit": {
    "_hex": "0x2fefd8"
  },
  "gasUsed": {
    "_hex": "0x5208"
  },
  "miner": "0xf8E0CA3Ed80bd541b94BEdCf259e8CF2141A9523",
  "extraData": "0x476574682f76312e302e312f77696e646f77732f676f312e342e32",
  "transactions": [
    {
      "hash": "0x94cbd818fa779424c5767bd8dc2f1a3e18f610ef5cd782d17f85d5c9f52cf65e",
      "blockHash": "0xc644b7e5befa806da69dfb4bf67b007fbe5983349e4c2987dfc5ded50fb8bcf0",
      "blockNumber": 55925,
      "transactionIndex": 0,
      "confirmations": null,
      "from": "0x9746c7e1ef2bd21FF3997fa467593a89cb852BD0",
      "gasPrice": {
        "_hex": "0xcd5eac2be"
      },
      "gasLimit": {
        "_hex": "0x5208"
      },
      "to": "0xB0bF4A71F730782368Ef660FE6D298F432F95450",
      "value": {
        "_hex": "0x1b28c58d9696b40000"
      },
      "nonce": 10,
      "data": "0x",
      "r": "0x04ae61ade1447da6517d99b8dfad281eabf01281f85367d13a510d8113d6eb06",
      "s": "0x5fe4f5922d7c9dc412f54a4785ad423307c008c4cb5dfac562035e9fe8684583",
      "v": 27,
      "creates": null,
      "raw": "0xf86d0a850cd5eac2be82520894b0bf4a71f730782368ef660fe6d298f432f95450891b28c58d9696b40000801ba004ae61ade1447da6517d99b8dfad281eabf01281f85367d13a510d8113d6eb06a05fe4f5922d7c9dc412f54a4785ad423307c008c4cb5dfac562035e9fe8684583",
      "networkId": 0,
      "chainId": 0
    }
  ]
}