{
  "hash": "0xd26e268c0bc20f3c23b086679b90590dc14d1a5859b05d12b0d761202802193d",
  "parentHash": "0xa15bade6b9108a8d6a6a0a8cc3cbd2912b674553c5fcabcd44df9600445bdee7",
  "number": 95261,
  "timestamp": 1439721436,
  "nonce": "0x703dcddec5260884",
  "difficulty": 3553343923555,
  "gasLimit": {
    "_hex": "0x2fefd8"
  },
  "gasUsed": {
    "_hex": "0x14820"
  },
  "miner": "0xe6A7a1d47ff21B6321162AEA7C6CB457D5476Bca",
  "extraData": "0x476574682f76312e302e312d38326566323666362f6c696e75782f676f312e34",
  "transactions": [
    {
      "hash": "0x0bd15e6b2ceaf7a323e0d370772457495c908ca69feefa2330d318d47e6f1337",
      "blockHash": "0xd26e268c0bc20f3c23b086679b90590dc14d1a5859b05d12b0d761202802193d",
      "blockNumber": 95261,
      "transactionIndex": 0,
      "confirmations": null,
      "from": "0xca3Ce19d512bEdA23b61bDD59C27Eb1Ec2393c1f",
      "gasPrice": {
        "_hex": "0xd52eac7fd"
      },
      "gasLimit": {
        "_hex": "0x15f90"
      },
      "to": "0x1332996a46dcBBE02f9cF164Dfc153aB976a9766",
      "value": {
        "_hex": "0x6f05b59d3b200000"
      },
      "nonce": 2,
      "data": "0x",
      "r": "0x9d089ca33f48ab1116e053403c11982244f1950fac0da2b7af6b50f8a83f0113",
      "s": "0x55e42c3134bad7dabb0a305b315ffc9ec453a5205fa4f2064deb7f06c19ee72f",
      "v": 27,
      "creates": null,
      "raw": "0xf86d02850d52eac7fd83015f90941332996a46dcbbe02f9cf164dfc153ab976a9766886f05b59d3b200000801ba09d089ca33f48ab1116e053403c11982244f1950fac0da2b7af6b50f8a83f0113a055e42c3134bad7dabb0a305b315ffc9ec453a5205fa4f2064deb7f06c19ee72f",
      "networkId": 0,
      "chainId": 0
    },
    {
      "hash": "0x8ec3ba48a483fd111732e71c1d92846bcfc01e6532247aeed662602128e3622e",
      "blockHash": "0xd26e268c0bc20f3c23b086679b90590dc14d1a5859b05d12b0d761202802193d",
      "blockNumber": 95261,
      "transactionIndex": 1,
      "confirmations": null,
      "from": "0xf2881e3e520bF84469Fa00a56449D357FB1af54A",
      "gasPrice": {
        "_hex": "0xcf7143c71"
      },
      "gasLimit": {
        "_hex": "0x5208"
      },
      "to": "0x32Be343B94f860124dC4fEe278FDCBD38C102D88",
      "value": {
        "_hex": "0x41234a48ee8540000"
      },
      "nonce": 8,
      "data": "0x",
      "r": "0x500091729faa026be4cf5bf0c7f74b457667e2f0cb96f6a69d9da09d6640b593",
      "s": "0x44f6b9d12e076670432825d7bdb1df2d1ea0e19ef66ef914b7f9875693370b3a",
      "v": 28,
      "creates": null,
      "raw": "0xf86d08850cf7143c718252089432be343b94f860124dc4fee278fdcbd38c102d8889041234a48ee8540000801ca0500091729faa026be4cf5bf0c7f74b457667e2f0cb96f6a69d9da09d6640b593a044f6b9d12e076670432825d7bdb1df2d1ea0e19ef66ef914b7f9875693370b3a",
      "networkId": 0,
      "chainId": 0
    },
    {
      "hash": "0x72a1e30b33a7cdfc4f7ccdcb0cdd15204e8d99d35355694cdd48ecb826f08728",
      "blockHash": "0xd26e268c0bc20f3c23b086679b90590dc14d1a5859b05d12b0d761202802193d",
      "blockNumber": 95261,
      "transactionIndex": 2,
      "confirmations": null,
      "from": "0x853Bff007d269E0526E871360d79d69D602770dc",
      "gasPrice": {
        "_hex": "0xcf7143c71"
      },
      "gasLimit": {
        "_hex": "0x5208"
      },
      "to": "0x32Be343B94f860124dC4fEe278FDCBD38C102D88",
      "value": {
        "_hex": "0xa94af3d114421800"
      },
      "nonce": 7,
      "data": "0x",
      "r": "0x41df918ff893acad350e1586df089365eb124d621dce3745190f600074f4245d",
      "s": "0x46a3a42bc4d249ec87266131a3417419f27b91d9158f3baab8f3ae6fc91f0ef5",
      "v": 27,
      "creates": null,
      "raw": "0xf86c07850cf7143c718252089432be343b94f860124dc4fee278fdcbd38c102d8888a94af3d114421800801ba041df918ff893acad350e1586df089365eb124d621dce3745190f600074f4245da046a3a42bc4d249ec87266131a3417419f27b91d9158f3baab8f3ae6fc91f0ef5",
      "networkId": 0,
      "chainId": 0
    },
    {
      "hash": "0x30a9adc136ecf8320860c9e8807f5acc5c77086f0078265403fe7fdcbd72a1c4",
      "blockHash": "0xd26e268c0bc20f3c23b086679b90590dc14d1a5859b05d12b0d761202802193d",
      "blockNumber": 95261,
      "transactionIndex": 3,
      "confirmations": null,
      "from": "0xd70c667add50d3d9989Ef58A81a698c09f415Bff",
      "gasPrice": {
        "_hex": "0xce2e8dd68"
      },
      "gasLimit": {
        "_hex": "0x15f90"
      },
      "to": "0x86d3856ad0105B9d4199936c1fd203664BA325dC",
      "value": {
        "_hex": "0x117c6b5300fe0000"
      },
      "nonce": 3,
      "data": "0x",
      "r": "0x119fc173bd9737b81c687af385d5c246c9f2dbbfeecccec4b2a7871cfaed2b3e",
      "s": "0x0462be3b239c6a6c8d10c2036b068a0b7858536165c4a1b9096393d6a789d72a",
      "v": 27,
      "creates": null,
      "raw": "0xf86d03850ce2e8dd6883015f909486d3856ad0105b9d4199936c1fd203664ba325dc88117c6b5300fe0000801ba0119fc173bd9737b81c687af385d5c246c9f2dbbfeecccec4b2a7871cfaed2b3ea00462be3b239c6a6c8d10c2036b068a0b7858536165c4a1b9096393d6a789d72a",
      "networkId": 0,
      "chainId": 0
    }
  ]
}