{
  "hash": "0x5be6c8bb403e1e0f3816b1ecaeb67b71aa7f27234372967d2ff865da0f3aeada",
  "parentHash": "0x20c4f05a1bbb2dd246f66f5d945de951666461b07297c5d5bed6f9f4d7c9fc8b",
  "number": 112266,
  "timestamp": 1440004683,
  "nonce": "0x3cc69ab7b9341c82",
  "difficulty": 4385327532170,
  "gasLimit": {
    "_hex": "0x2fefd5"
  },
  "gasUsed": {
    "_hex": "0x5208"
  },
  "miner": "0xe6A7a1d47ff21B6321162AEA7C6CB457D5476Bca",
  "extraData": "0x476574682f76312e302e312d38326566323666362f6c696e75782f676f312e34",
  "transactions": [
    {
      "hash": "0x36132a6db47bfda17f6559aa643b129b53d6392a3b50bd0dfc979da0fd456735",
      "blockHash": "0x5be6c8bb403e1e0f3816b1ecaeb67b71aa7f27234372967d2ff865da0f3aeada",
      "blockNumber": 112266,
      "transactionIndex": 0,
      "confirmations": null,
      "from": "0xe0F2071907ecf7F55DF7a681Cd68fa5b7575eA7b",
      "gasPrice": {
        "_hex": "0xba43b7400"
      },
      "gasLimit": {
        "_hex": "0x5b04"
      },
      "to": "0xf2711F78854D3b5CE29fA3c550a9328D7df40706",
      "value": {
        "_hex": "0x1ea4644d30100000"
      },
      "nonce": 3,
      "data": "0x",
      "r": "0x94dc5cdb0ba57b66e25c556b430e216c8d4497a720a9dbf9879c06490e298721",
      "s": "0x13486bbbc10e57e8302b6c8ec21774dc5a830c7846851d19c63327e51338c057",
      "v": 28,
      "creates": null,
      "raw": "0xf86c03850ba43b7400825b0494f2711f78854d3b5ce29fa3c550a9328d7df40706881ea4644d30100000801ca094dc5cdb0ba57b66e25c556b430e216c8d4497a720a9dbf9879c06490e298721a013486bbbc10e57e8302b6c8ec21774dc5a830c7846851d19c63327e51338c057",
      "networkId": 0,
      "chainId": 0
    }
  ]
}