{
  "hash": "0x833f7a2f8b9f629dcdc8d10cc804ded593fc4654dddd691d340f2a1ac9b1633c",
  "parentHash": "0x5d7f8999114500efabf186a7f0b6364136e9c60ee007e71b803957fed5c112b5",
  "number": 87341,
  "timestamp": 1439590693,
  "nonce": "0x4d98b822c0440dd0",
  "difficulty": 3114350856077,
  "gasLimit": {
    "_hex": "0x2fefd8"
  },
  "gasUsed": {
    "_hex": "0x5208"
  },
  "miner": "0xe6A7a1d47ff21B6321162AEA7C6CB457D5476Bca",
  "extraData": "0x476574682f76312e302e312d38326566323666362f6c696e75782f676f312e34",
  "transactions": [
    {
      "hash": "0xea894db7ef75c5bcf0721cfb53322c707a54ffc4e4efd4346d2a497015417b51",
      "blockHash": "0x833f7a2f8b9f629dcdc8d10cc804ded593fc4654dddd691d340f2a1ac9b1633c",
      "blockNumber": 87341,
      "transactionIndex": 0,
      "confirmations": null,
      "from": "0x120A270bbC009644e35F0bB6ab13f95b8199c4ad",
      "gasPrice": {
        "_hex": "0xde02d9ad2"
      },
      "gasLimit": {
        "_hex": "0x3d090"
      },
      "to": "0xd8bd2C0f1FF677215F8b235db85bd5e7f3fBD59D",
      "value": {
        "_hex": "0x548d64faf9efe800"
      },
      "nonce": 496,
      "data": "0x",
      "r": "0x5542808ad10f71665d1d8a74c57519b5494403fcb5d0d7bed7428d7fa60cb6d9",
      "s": "0x5400cb2c6cb1712dc0862cbcb7483450b1ca786bb51811616e1192d50cecc3f4",
      "v": 27,
      "creates": null,
      "raw": "0xf86f8201f0850de02d9ad28303d09094d8bd2c0f1ff677215f8b235db85bd5e7f3fbd59d88548d64faf9efe800801ba05542808ad10f71665d1d8a74c57519b5494403fcb5d0d7bed7428d7fa60cb6d9a05400cb2c6cb1712dc0862cbcb7483450b1ca786bb51811616e1192d50cecc3f4",
      "networkId": 0,
      "chainId": 0
    }
  ]
}