{
  "hash": "0x92a390a7e468f70a31af36fb08606830a611e1a335f68ebe4d47b69f41d41f32",
  "parentHash": "0x08c78a805e8b4dad807522f687cc9a28c5c4d163cb9d7a61a2350801c412b975",
  "number": 71263,
  "timestamp": 1439333426,
  "nonce": "0xd413cc065c6115d7",
  "difficulty": 2148759030355,
  "gasLimit": {
    "_hex": "0x2fefd8"
  },
  "gasUsed": {
    "_hex": "0xa410"
  },
  "miner": "0x580992B51e3925e23280EfB93d3047C82f17E038",
  "extraData": "0x476574682f76312e302e312f6c696e75782f676f312e342e32",
  "transactions": [
    {
      "hash": "0xd28db7beeb862915aecae0f5e7091c4577c91142dd6644107c9620b2ac2d9a5f",
      "blockHash": "0x92a390a7e468f70a31af36fb08606830a611e1a335f68ebe4d47b69f41d41f32",
      "blockNumber": 71263,
      "transactionIndex": 0,
      "confirmations": null,
      "from": "0x120A270bbC009644e35F0bB6ab13f95b8199c4ad",
      "gasPrice": {
        "_hex": "0xd4a07ce29"
      },
      "gasLimit": {
        "_hex": "0x15f90"
      },
      "to": "0x1fc000454B2169C9EFfB548829DBf7154Ddb6878",
      "value": {
        "_hex": "0xd2e23b4d8799d0c00"
      },
      "nonce": 223,
      "data": "0x",
      "r": "0xedea0875c2755fdb45e07003bbd5902f85c551071d5f65f19d8eab6e890c1064",
      "s": "0x447e1094a43ae3f4cd8c78c3f03fbce32bbb16a760af7f307b2f81d01b70c67c",
      "v": 27,
      "creates": null,
      "raw": "0xf86f81df850d4a07ce2983015f90941fc000454b2169c9effb548829dbf7154ddb6878890d2e23b4d8799d0c00801ba0edea0875c2755fdb45e07003bbd5902f85c551071d5f65f19d8eab6e890c1064a0447e1094a43ae3f4cd8c78c3f03fbce32bbb16a760af7f307b2f81d01b70c67c",
      "networkId": 0,
      "chainId": 0
    },
    {
      "hash": "0x7bc21da84bf529de19c868c676bbba936716f1073c1f55a81a238d022805292a",
      "blockHash": "0x92a390a7e468f70a31af36fb08606830a611e1a335f68ebe4d47b69f41d41f32",
      "blockNumber": 71263,
      "transactionIndex": 1,
      "confirmations": null,
      "from": "0x120A270bbC009644e35F0bB6ab13f95b8199c4ad",
      "gasPrice": {
        "_hex": "0xd4a07ce29"
      },
      "gasLimit": {
        "_hex": "0x15f90"
      },
      "to": "0x0258Afde42492E62Ba883e6169d5c502275A7a24",
      "value": {
        "_hex": "0x283368ef6c39d40400"
      },
      "nonce": 224,
      "data": "0x",
      "r": "0xa3348d00d5d5396cd2720b7b39dad6e28a43d64cc472e7f0ebff3df36a824cfa",
      "s": "0x48685b7857898a8588c5fcb2563dec1788db51a73a9bb09ec64fabfe88d681f9",
      "v": 28,
      "creates": null,
      "raw": "0xf86f81e0850d4a07ce2983015f90940258afde42492e62ba883e6169d5c502275a7a2489283368ef6c39d40400801ca0a3348d00d5d5396cd2720b7b39dad6e28a43d64cc472e7f0ebff3df36a824cfaa048685b7857898a8588c5fcb2563dec1788db51a73a9bb09ec64fabfe88d681f9",
      "networkId": 0,
      "chainId": 0
    }
  ]
}