{
  "hash": "0x9c7d2a8f63ec8677d1a4bcd581cb7f6e54bde032ea26201fd591b7c8c31aa3dc",
  "parentHash": "0x1d4386624e92b59ec65efa9f425e97bc2cf6f979b144532b433effc9dfcaac3e",
  "number": 85599,
  "timestamp": 1439565945,
  "nonce": "0x83ecbefd080289ab",
  "difficulty": 2784097334103,
  "gasLimit": {
    "_hex": "0x2fefd8"
  },
  "gasUsed": {
    "_hex": "0x5208"
  },
  "miner": "0xe6A7a1d47ff21B6321162AEA7C6CB457D5476Bca",
  "extraData": "0x476574682f76312e302e312d38326566323666362f6c696e75782f676f312e34",
  "transactions": [
    {
      "hash": "0x4652c280286a4235a0abd6a1db4b9bd5775e2d2bcb73fa0afcc87e4424fec106",
      "blockHash": "0x9c7d2a8f63ec8677d1a4bcd581cb7f6e54bde032ea26201fd591b7c8c31aa3dc",
      "blockNumber": 85599,
      "transactionIndex": 0,
      "confirmations": null,
      "from": "0x120A270bbC009644e35F0bB6ab13f95b8199c4ad",
      "gasPrice": {
        "_hex": "0xd44012176"
      },
      "gasLimit": {
        "_hex": "0x3d090"
      },
      "to": "0xc5623FA5c297c05c2d965A336b2068CfA0e567FA",
      "value": {
        "_hex": "0x16d8a2da087bb8d400"
      },
      "nonce": 462,
      "data": "0x",
      "r": "0x837e55c56ef47c6372762d947d562722aef9283f1f19fd9546f43f17a895d748",
      "s": "0x47f1f51c10edb2353ae1d6cefa7ffbbe32e8580a93862946023fd32d3d66650c",
      "v": 27,
      "creates": null,
      "raw": "0xf8708201ce850d440121768303d09094c5623fa5c297c05c2d965a336b2068cfa0e567fa8916d8a2da087bb8d400801ba0837e55c56ef47c6372762d947d562722aef9283f1f19fd9546f43f17a895d748a047f1f51c10edb2353ae1d6cefa7ffbbe32e8580a93862946023fd32d3d66650c",
      "networkId": 0,
      "chainId": 0
    }
  ]
}