{
  "hash": "0x4235b38610be99a2b1deeb4c4b7685e4570cb0b952f74219ed5dec96753d7037",
  "parentHash": "0xd1e515f248129350f646c4a73258d4e8e1c83d81898e443b809cf407fa9d763a",
  "number": 79432,
  "timestamp": 1439469517,
  "nonce": "0xdacb55afe927ad5a",
  "difficulty": 2345023850705,
  "gasLimit": {
    "_hex": "0x2fefd8"
  },
  "gasUsed": {
    "_hex": "0xa410"
  },
  "miner": "0x9746c7e1ef2bd21FF3997fa467593a89cb852BD0",
  "extraData": "0x476574682f76312e302e312f77696e646f77732f676f312e342e32",
  "transactions": [
    {
      "hash": "0xe626b283aac9d68563dc0ea917adf6fc0599421d06787e44ff5ffa9ab19bb976",
      "blockHash": "0x4235b38610be99a2b1deeb4c4b7685e4570cb0b952f74219ed5dec96753d7037",
      "blockNumber": 79432,
      "transactionIndex": 0,
      "confirmations": null,
      "from": "0x32Be343B94f860124dC4fEe278FDCBD38C102D88",
      "gasPrice": {
        "_hex": "0xcd367692b"
      },
      "gasLimit": {
        "_hex": "0x5208"
      },
      "to": "0xD7Add146Fd01cC02354e9dE91df7d38D918E9C5D",
      "value": {
        "_hex": "0x45400a8fd5330000"
      },
      "nonce": 422,
      "data": "0x",
      "r": "0x2d964f75c336e42bdd4e99d006eacc27e333573a8a73493f443016716bf8a3a3",
      "s": "0x79305ebf218facc8198ffbd6b19f6876ea665d1c5104a97f12e89db7fe92800c",
      "v": 27,
      "creates": null,
      "raw": "0xf86e8201a6850cd367692b82520894d7add146fd01cc02354e9de91df7d38d918e9c5d8845400a8fd5330000801ba02d964f75c336e42bdd4e99d006eacc27e333573a8a73493f443016716bf8a3a3a079305ebf218facc8198ffbd6b19f6876ea665d1c5104a97f12e89db7fe92800c",
      "networkId": 0,
      "chainId": 0
    },
    {
      "hash": "0x3a06b1032ece5a949784ab58bd4088a408d90a5f1b040cf8a28ddcc0f96c85fc",
      "blockHash": "0x4235b38610be99a2b1deeb4c4b7685e4570cb0b952f74219ed5dec96753d7037",
      "blockNumber": 79432,
      "transactionIndex": 1,
      "confirmations": null,
      "from": "0x32Be343B94f860124dC4fEe278FDCBD38C102D88",
      "gasPrice": {
        "_hex": "0xcd367692b"
      },
      "gasLimit": {
        "_hex": "0x5208"
      },
      "to": "0xd63d66704099F24ED9DD6a45BD57b13B872ad515",
      "value": {
        "_hex": "0x1156abf16a40f0000"
      },
      "nonce": 423,
      "data": "0x",
      "r": "0x02f62a5561fdedbf3ea6444bf65d69103cab699bb172bd7bb2dd40736ad33610",
      "s": "0x48a76a55b5973b3bf993e1a27f5364bd34bf90eaf4ebbb80eb5b8a694888c7b3",
      "v": 28,
      "creates": null,
      "raw": "0xf86f8201a7850cd367692b82520894d63d66704099f24ed9dd6a45bd57b13b872ad5158901156abf16a40f0000801ca002f62a5561fdedbf3ea6444bf65d69103cab699bb172bd7bb2dd40736ad33610a048a76a55b5973b3bf993e1a27f5364bd34bf90eaf4ebbb80eb5b8a694888c7b3",
      "networkId": 0,
      "chainId": 0
    }
  ]
}