{
  "hash": "0x3eca4f753b2561c2cdf4b1f8fd61f36fe7e68568af18d1f67eba9883a48fa3e1",
  "parentHash": "0xbfffaef88ca484dd0edf830ce54a8ef493ed0060b89681688ee60e1f7b902ce8",
  "number": 98862,
  "timestamp": 1439780171,
  "nonce": "0xfb3a255e2dee3e54",
  "difficulty": 3857345974092,
  "gasLimit": {
    "_hex": "0x2fefd8"
  },
  "gasUsed": {
    "_hex": "0x5208"
  },
  "miner": "0xBD744E3F13D79B33F6c8E1d5E32F8E9BA2866c46",
  "extraData": "0x476574682f76312e302e312d39613032663533372f6c696e75782f676f312e34",
  "transactions": [
    {
      "hash": "0x3e417e80d0b58f53719ef4fd3576b678536b937b1ecb8a82d36ec82e68531f66",
      "blockHash": "0x3eca4f753b2561c2cdf4b1f8fd61f36fe7e68568af18d1f67eba9883a48fa3e1",
      "blockNumber": 98862,
      "transactionIndex": 0,
      "confirmations": null,
      "from": "0x007f7f58D3eb5b7510A301eCC749FC1fCDDBE14D",
      "gasPrice": {
        "_hex": "0xe0cfe7246"
      },
      "gasLimit": {
        "_hex": "0x15f90"
      },
      "to": "0xb1abce2918E21ddb93AA452731a12672A3d9F75a",
      "value": {
        "_hex": "0x4563918244f40000"
      },
      "nonce": 137,
      "data": "0x",
      "r": "0xe5882243970252d3bdc00bbc5c7c8562c354c37cd8b99d5062ee4046f31a3f20",
      "s": "0x2eba09bebc1a4302b647d37af52a83113d3ba1e80b7fa8ea15e91b4fb542009c",
      "v": 28,
      "creates": null,
      "raw": "0xf86e8189850e0cfe724683015f9094b1abce2918e21ddb93aa452731a12672a3d9f75a884563918244f40000801ca0e5882243970252d3bdc00bbc5c7c8562c354c37cd8b99d5062ee4046f31a3f20a02eba09bebc1a4302b647d37af52a83113d3ba1e80b7fa8ea15e91b4fb542009c",
      "networkId": 0,
      "chainId": 0
    }
  ]
}