{
  "hash": "0xa20c2727e08207c9da3ce0d6538e77903643f9089e23efe18e5f7b260f585684",
  "parentHash": "0x092734c451b2b0eca76f79a6f9af9e351aaa743a1f740baaab477eab6645943f",
  "number": 71194,
  "timestamp": 1439332141,
  "nonce": "0x87bd765e121954df",
  "difficulty": 2149826168579,
  "gasLimit": {
    "_hex": "0x2fefd8"
  },
  "gasUsed": {
    "_hex": "0x5208"
  },
  "miner": "0x785ffdDd5cE55c6DF963f345e68d3F2024E5Acb1",
  "extraData": "0x476574682f4d69676e6f7474652f76312e302e312f6c696e75782f676f312e34",
  "transactions": [
    {
      "hash": "0xacf45ec920bb47c805b3220af70a42ee3f2f975ab1e75748d70871c377f0f8b6",
      "blockHash": "0xa20c2727e08207c9da3ce0d6538e77903643f9089e23efe18e5f7b260f585684",
      "blockNumber": 71194,
      "transactionIndex": 0,
      "confirmations": null,
      "from": "0x723E05fF30e4ba7A87b4D7D459eE5B488A9c36d1",
      "gasPrice": {
        "_hex": "0xe23040122"
      },
      "gasLimit": {
        "_hex": "0x15f90"
      },
      "to": "0xabceA603089850F8f6bB612A9031554D90A247CF",
      "value": {
        "_hex": "0x4563918244f40000"
      },
      "nonce": 2,
      "data": "0x",
      "r": "0xe7c6b8a7d81d334978db5c8b45590c20c7d8a71862ad2e95a9fdff4594d74ab3",
      "s": "0x66d7d108d140feca3bf4813e5dff3c3c13c2fe5310d9763d35972370dfa244c9",
      "v": 28,
      "creates": null,
      "raw": "0xf86d02850e2304012283015f9094abcea603089850f8f6bb612a9031554d90a247cf884563918244f40000801ca0e7c6b8a7d81d334978db5c8b45590c20c7d8a71862ad2e95a9fdff4594d74ab3a066d7d108d140feca3bf4813e5dff3c3c13c2fe5310d9763d35972370dfa244c9",
      "networkId": 0,
      "chainId": 0
    }
  ]
}