{
  "hash": "0x82b6edaf89c8f8343e7d5654a889cc63852266d473bbc4918dac4a659b140f5a",
  "parentHash": "0x7f3f4333b372132558d840fd8b21740396b11cdc482b930667ea8f80b020a8c4",
  "number": 115309,
  "timestamp": 1440054996,
  "nonce": "0x5e1b780dfef4eef3",
  "difficulty": 4556140049556,
  "gasLimit": {
    "_hex": "0x2fefd8"
  },
  "gasUsed": {
    "_hex": "0xa410"
  },
  "miner": "0xe6A7a1d47ff21B6321162AEA7C6CB457D5476Bca",
  "extraData": "0x476574682f76312e302e312d38326566323666362f6c696e75782f676f312e34",
  "transactions": [
    {
      "hash": "0x34ea282a99e5e4bac6a791944d945adac6facee15b998d281a740549ea559675",
      "blockHash": "0x82b6edaf89c8f8343e7d5654a889cc63852266d473bbc4918dac4a659b140f5a",
      "blockNumber": 115309,
      "transactionIndex": 0,
      "confirmations": null,
      "from": "0x4b0a38C16B842d68A8721B4CAd662e07cc430652",
      "gasPrice": {
        "_hex": "0xd12c03694"
      },
      "gasLimit": {
        "_hex": "0x5208"
      },
      "to": "0x32Be343B94f860124dC4fEe278FDCBD38C102D88",
      "value": {
        "_hex": "0x29000c84c8da2000"
      },
      "nonce": 10,
      "data": "0x",
      "r": "0x730489b133d47cc1c543d25a95ca67a20dafd922e54ade49b17d41913abe90b0",
      "s": "0x3cdff5ba0ad2fb221d09cd6a7ee76a6befdb44409838746c4bd5baf86ae22c0e",
      "v": 27,
      "creates": null,
      "raw": "0xf86c0a850d12c036948252089432be343b94f860124dc4fee278fdcbd38c102d888829000c84c8da2000801ba0730489b133d47cc1c543d25a95ca67a20dafd922e54ade49b17d41913abe90b0a03cdff5ba0ad2fb221d09cd6a7ee76a6befdb44409838746c4bd5baf86ae22c0e",
      "networkId": 0,
      "chainId": 0
    },
    {
      "hash": "0xdd1615ea1e221add4008468d10151251427c741892e08aaaea2dc809da46cf0f",
      "blockHash": "0x82b6edaf89c8f8343e7d5654a889cc63852266d473bbc4918dac4a659b140f5a",
      "blockNumber": 115309,
      "transactionIndex": 1,
      "confirmations": null,
      "from": "0xb7B3690EFa6b3f08D4EC289fF655C4b7bb15EE39",
      "gasPrice": {
        "_hex": "0xcf0b6e166"
      },
      "gasLimit": {
        "_hex": "0x5208"
      },
      "to": "0x32Be343B94f860124dC4fEe278FDCBD38C102D88",
      "value": {
        "_hex": "0x2d0427fd300d8000"
      },
      "nonce": 9,
      "data": "0x",
      "r": "0x411c1c51c157da970c6bc0b5d39dda3b013e09bd564d19a728b91137010590f1",
      "s": "0x16e805ca2f697f81867a3ad2836c17aa1ecb5170aa5328814919a58cc1823372",
      "v": 27,
      "creates": null,
      "raw": "0xf86c09850cf0b6e1668252089432be343b94f860124dc4fee278fdcbd38c102d88882d0427fd300d8000801ba0411c1c51c157da970c6bc0b5d39dda3b013e09bd564d19a728b91137010590f1a016e805ca2f697f81867a3ad2836c17aa1ecb5170aa5328814919a58cc1823372",
      "networkId": 0,
      "chainId": 0
    }
  ]
}