{
  "hash": "0x172b8083253696d90e1279623b699d9cc74fed6d34dd8ba5283530c0d2258c94",
  "parentHash": "0x4f940e20308d413b26cc0c740d5c936db234944e4ac815a72d36ad681c7b9bb5",
  "number": 106110,
  "timestamp": 1439898715,
  "nonce": "0xd0cd62e19b36a6ca",
  "difficulty": 4470735150232,
  "gasLimit": {
    "_hex": "0x2fefd8"
  },
  "gasUsed": {
    "_hex": "0x1bdbe"
  },
  "miner": "0xe6A7a1d47ff21B6321162AEA7C6CB457D5476Bca",
  "extraData": "0x476574682f76312e302e312d38326566323666362f6c696e75782f676f312e34",
  "transactions": [
    {
      "hash": "0x37708c21e169b42409d2ff6cf74df5d3541c14da94c5ca7342f31a89c90c83e5",
      "blockHash": "0x172b8083253696d90e1279623b699d9cc74fed6d34dd8ba5283530c0d2258c94",
      "blockNumber": 106110,
      "transactionIndex": 0,
      "confirmations": null,
      "from": "0x6c101205B323D77544d6DC52AF37aCa3CeC6F7F1",
      "gasPrice": {
        "_hex": "0xba43b7400"
      },
      "gasLimit": {
        "_hex": "0x249f0"
      },
      "to": "0xE28e72FCf78647ADCe1F1252F240bbfaebD63BcC",
      "value": {
        "_hex": "0xd7f91b4bdd0440000"
      },
      "nonce": 1,
      "data": "0x45466f3a",
      "r": "0xa079bce14009a8df2538f5b8874dd75cd4ca8f5f64affb2d19b5e10350bc76ef",
      "s": "0x14bd6c7a783f662282800c44d4fc0e8544528a7ddc894fa648e2110f9bcc6b94",
      "v": 27,
      "creates": null,
      "raw": "0xf87201850ba43b7400830249f094e28e72fcf78647adce1f1252f240bbfaebd63bcc890d7f91b4bdd04400008445466f3a1ba0a079bce14009a8df2538f5b8874dd75cd4ca8f5f64affb2d19b5e10350bc76efa014bd6c7a783f662282800c44d4fc0e8544528a7ddc894fa648e2110f9bcc6b94",
      "networkId": 0,
      "chainId": 0
    }
  ]
}