{
  "hash": "0xe6ddc47a16f8874f26e3793835c4c2bbe65c21586cebd1fb3aa44c61929cb54c",
  "parentHash": "0x4e727c6d0c5a4b22564f275313e2ce530e7fb62d5c575b9b536a670a64674765",
  "number": 88269,
  "timestamp": 1439605458,
  "nonce": "0xc135b68bc57bf96d",
  "difficulty": 3206586541675,
  "gasLimit": {
    "_hex": "0x2fefd8"
  },
  "gasUsed": {
    "_hex": "0x5208"
  },
  "miner": "0xa6BDc31c431B8F97848c9D60cbbe9660dc450eB7",
  "extraData": "0x",
  "transactions": [
    {
      "hash": "0xe1960bc9fdc77de988117b7d775abb47f0c95c889f7bad31cdc5222852a1c5ae",
      "blockHash": "0xe6ddc47a16f8874f26e3793835c4c2bbe65c21586cebd1fb3aa44c61929cb54c",
      "blockNumber": 88269,
      "transactionIndex": 0,
      "confirmations": null,
      "from": "0x2910543Af39abA0Cd09dBb2D50200b3E800A63D2",
      "gasPrice": {
        "_hex": "0xd7d89cab7"
      },
      "gasLimit": {
        "_hex": "0x5208"
      },
      "to": "0x19ae27E1b61445EB9f27821A5eB4b3e957319e7e",
      "value": {
        "_hex": "0x1303be1412ff91c8000"
      },
      "nonce": 726,
      "data": "0x",
      "r": "0x2138154395058c9e613bd930de23a5f51ab1a93c18110626b2d4fbd08e2c7d98",
      "s": "0x7ee1644da0d48af850f9a4ea66c8218a17b898704d024c7cb1c75f9013e50110",
      "v": 27,
      "creates": null,
      "raw": "0xf8708202d6850d7d89cab78252089419ae27e1b61445eb9f27821a5eb4b3e957319e7e8a01303be1412ff91c8000801ba02138154395058c9e613bd930de23a5f51ab1a93c18110626b2d4fbd08e2c7d98a07ee1644da0d48af850f9a4ea66c8218a17b898704d024c7cb1c75f9013e50110",
      "networkId": 0,
      "chainId": 0
    }
  ]
}