{
  "hash": "0x37b9d357b2b01cd48b49760398d001c2c30985667b9a29f28bc8545a1c915bfa",
  "parentHash": "0x85a16634500aaada8fedd428d3221afbef48305be0dfda83030080c7de534cd7",
  "number": 97876,
  "timestamp": 1439763356,
  "nonce": "0x2d2ae2e4a035684c",
  "difficulty": 3839008395824,
  "gasLimit": {
    "_hex": "0x2fefd8"
  },
  "gasUsed": {
    "_hex": "0x5208"
  },
  "miner": "0xfC25864D8326b4CB335C6942218e5F4Ee8D1E1EF",
  "extraData": "0x476574682f76312e302e312f77696e646f77732f676f312e342e32",
  "transactions": [
    {
      "hash": "0x1a620f4b0883604bc04ea3879f018c351a92ed5d19f9908fc28d9952d6190ed0",
      "blockHash": "0x37b9d357b2b01cd48b49760398d001c2c30985667b9a29f28bc8545a1c915bfa",
      "blockNumber": 97876,
      "transactionIndex": 0,
      "confirmations": null,
      "from": "0xee5379D0c1ca47327368027455074C26D9952628",
      "gasPrice": {
        "_hex": "0xceaaf2884"
      },
      "gasLimit": {
        "_hex": "0x15f90"
      },
      "to": "0x029b539130345336FA435C807F08B86a344A1BFe",
      "value": {
        "_hex": "0x905438e600100000"
      },
      "nonce": 13,
      "data": "0x",
      "r": "0x5d9ebcf063119ce002943dcf16f5571f490d1ff303a3bcc7158eefc972364520",
      "s": "0x2b6ca15c559cd94552baa382372ea94fb60556edfd0bb803b79c9c1271e1d9d1",
      "v": 28,
      "creates": null,
      "raw": "0xf86d0d850ceaaf288483015f9094029b539130345336fa435c807f08b86a344a1bfe88905438e600100000801ca05d9ebcf063119ce002943dcf16f5571f490d1ff303a3bcc7158eefc972364520a02b6ca15c559cd94552baa382372ea94fb60556edfd0bb803b79c9c1271e1d9d1",
      "networkId": 0,
      "chainId": 0
    }
  ]
}