{
  "hash": "0x99470ee08b6a3b510c7290c7fbd2ab70e7714141265f4b5f55ebbabd6b05acc7",
  "parentHash": "0x6598eac6b252184dce1a533ed753d36b6460079315e5c5f2406dd5f364ecdc00",
  "number": 46332,
  "timestamp": 1438921439,
  "nonce": "0x95cce0f1f2bfaec8",
  "difficulty": 1458962749821,
  "gasLimit": {
    "_hex": "0x5b1c"
  },
  "gasUsed": {
    "_hex": "0x5208"
  },
  "miner": "0x756C55cbfa47fd23c0260F958e65866E64c096CB",
  "extraData": "0x476574682f76312e302e302f77696e646f77732f676f312e342e32",
  "transactions": [
    {
      "hash": "0x122763b6288c220f94c228b5afc0eb19ab611e26cd98a01fcb83fc65647661bd",
      "blockHash": "0x99470ee08b6a3b510c7290c7fbd2ab70e7714141265f4b5f55ebbabd6b05acc7",
      "blockNumber": 46332,
      "transactionIndex": 0,
      "confirmations": null,
      "from": "0x4d9279962029a8bd45639737E98b511eFF074C21",
      "gasPrice": {
        "_hex": "0x5b64ad3ab1"
      },
      "gasLimit": {
        "_hex": "0x5208"
      },
      "to": "0x99C236141DaeC837Ece04fdAEE1D90cF8BbDC104",
      "value": {
        "_hex": "0xde0b6b3a7640000"
      },
      "nonce": 3,
      "data": "0x",
      "r": "0x406e25fef3c75b8e1305e0fc9970e4c923dc4f803e6e64539474af4f9d5a46fb",
      "s": "0x40c0541ca1d9142c846ef2bc9b5faeac781cdf8b69e271d5d05cca80c119537f",
      "v": 27,
      "creates": null,
      "raw": "0xf86c03855b64ad3ab18252089499c236141daec837ece04fdaee1d90cf8bbdc104880de0b6b3a7640000801ba0406e25fef3c75b8e1305e0fc9970e4c923dc4f803e6e64539474af4f9d5a46fba040c0541ca1d9142c846ef2bc9b5faeac781cdf8b69e271d5d05cca80c119537f",
      "networkId": 0,
      "chainId": 0
    }
  ]
}