{
  "hash": "0xc9a7b7b534c99cd8e26801f50eb78ccecfcc2be1f520fad33f441cf4b859b8d0",
  "parentHash": "0x6ae5b1d96adae7028e654ea5fec9a4aa49568c2175d008d19930226a41483be9",
  "number": 109434,
  "timestamp": 1439956466,
  "nonce": "0x34e2c26f88d9a381",
  "difficulty": 4460244037068,
  "gasLimit": {
    "_hex": "0x2fefd8"
  },
  "gasUsed": {
    "_hex": "0x5208"
  },
  "miner": "0xe6A7a1d47ff21B6321162AEA7C6CB457D5476Bca",
  "extraData": "0x476574682f76312e302e312d38326566323666362f6c696e75782f676f312e34",
  "transactions": [
    {
      "hash": "0x392e9129749c79da08aa010feb9a906498f9f5870148e0761905592162731d25",
      "blockHash": "0xc9a7b7b534c99cd8e26801f50eb78ccecfcc2be1f520fad33f441cf4b859b8d0",
      "blockNumber": 109434,
      "transactionIndex": 0,
      "confirmations": null,
      "from": "0x007f7f58D3eb5b7510A301eCC749FC1fCDDBE14D",
      "gasPrice": {
        "_hex": "0xd382b0b9c"
      },
      "gasLimit": {
        "_hex": "0x15f90"
      },
      "to": "0xb1abce2918E21ddb93AA452731a12672A3d9F75a",
      "value": {
        "_hex": "0x4563918244f40000"
      },
      "nonce": 267,
      "data": "0x",
      "r": "0xdb9a2c72f855332aaf250b1a3d8d5e170ea4ecaa999cb5f953223594e00a6006",
      "s": "0x7645c87bdde0e7906cd11bea300ed5f3ff6c85068cda8cd4f350e9587e667a37",
      "v": 28,
      "creates": null,
      "raw": "0xf86f82010b850d382b0b9c83015f9094b1abce2918e21ddb93aa452731a12672a3d9f75a884563918244f40000801ca0db9a2c72f855332aaf250b1a3d8d5e170ea4ecaa999cb5f953223594e00a6006a07645c87bdde0e7906cd11bea300ed5f3ff6c85068cda8cd4f350e9587e667a37",
      "networkId": 0,
      "chainId": 0
    }
  ]
}