{
  "hash": "0x9a4f5c8413d27d3f2cfb75bd7196376690cf1df8d8a7ebe4228878fe1e582968",
  "parentHash": "0x579977d815026bb6b88df200fd38ef7495b079976cc1c2daeabdcef0ce5dda25",
  "number": 87005,
  "timestamp": 1439585878,
  "nonce": "0x1f7050928a6c5394",
  "difficulty": 3003949661412,
  "gasLimit": {
    "_hex": "0x2fefd8"
  },
  "gasUsed": {
    "_hex": "0xa410"
  },
  "miner": "0xA21Ba94e45f0E168dA824fC67aC9cb5Cb577a8aF",
  "extraData": "0x",
  "transactions": [
    {
      "hash": "0x9561e724e7eb1796b45a629c5494c9b7c66d444fa17544bc95898c419c7bd51b",
      "blockHash": "0x9a4f5c8413d27d3f2cfb75bd7196376690cf1df8d8a7ebe4228878fe1e582968",
      "blockNumber": 87005,
      "transactionIndex": 0,
      "confirmations": null,
      "from": "0x519DC97eF09491aE962A8F13fe144c71feca4662",
      "gasPrice": {
        "_hex": "0xdd6b984bc"
      },
      "gasLimit": {
        "_hex": "0x5208"
      },
      "to": "0x32Be343B94f860124dC4fEe278FDCBD38C102D88",
      "value": {
        "_hex": "0x455f16848f499c00"
      },
      "nonce": 6,
      "data": "0x",
      "r": "0x113c77e0edfb6f1033b45b44dfc6d6dc121175328a50537ac14f82834cb6460f",
      "s": "0x6cf3c6a39bc1ba6638aa50054e05f49f843cc98ea0346895ce47d22182d9cea9",
      "v": 28,
      "creates": null,
      "raw": "0xf86c06850dd6b984bc8252089432be343b94f860124dc4fee278fdcbd38c102d8888455f16848f499c00801ca0113c77e0edfb6f1033b45b44dfc6d6dc121175328a50537ac14f82834cb6460fa06cf3c6a39bc1ba6638aa50054e05f49f843cc98ea0346895ce47d22182d9cea9",
      "networkId": 0,
      "chainId": 0
    },
    {
      "hash": "0x21c4e2af37dce6f58c355fda8f018f33f692e732715199e4d46e1435d8c88c0d",
      "blockHash": "0x9a4f5c8413d27d3f2cfb75bd7196376690cf1df8d8a7ebe4228878fe1e582968",
      "blockNumber": 87005,
      "transactionIndex": 1,
      "confirmations": null,
      "from": "0x32Be343B94f860124dC4fEe278FDCBD38C102D88",
      "gasPrice": {
        "_hex": "0xdd6b984bc"
      },
      "gasLimit": {
        "_hex": "0x5208"
      },
      "to": "0xA55d7191414077D72850992A603Fa1db834bfB74",
      "value": {
        "_hex": "0x1be4f459be890000"
      },
      "nonce": 775,
      "data": "0x",
      "r": "0xdc31e92f900b3f82a57a845bd5498e74e0516f5a1ba3f5edc4db2334eebb7a57",
      "s": "0x5f047f87af24d511da3a8f868f115ad055bcd65145f9f4c316da24bed29228a4",
      "v": 28,
      "creates": null,
      "raw": "0xf86e820307850dd6b984bc82520894a55d7191414077d72850992a603fa1db834bfb74881be4f459be890000801ca0dc31e92f900b3f82a57a845bd5498e74e0516f5a1ba3f5edc4db2334eebb7a57a05f047f87af24d511da3a8f868f115ad055bcd65145f9f4c316da24bed29228a4",
      "networkId": 0,
      "chainId": 0
    }
  ]
}