{
  "hash": "0x8d50ad7f6878846e540ae37a1a948dcf51384b9f4678f066099d2045e74de984",
  "parentHash": "0xb8c3b5382164a440f90a260cc59e32db8857c33b492073780f96e35549dff355",
  "number": 51301,
  "timestamp": 1439002610,
  "nonce": "0xf22eaae27185268a",
  "difficulty": 1568135444873,
  "gasLimit": {
    "_hex": "0xa2956"
  },
  "gasUsed": {
    "_hex": "0x255b3"
  },
  "miner": "0x123843545FB525C8E134c9A5F15ADA6865cc3848",
  "extraData": "0x476574682f76312e302e312f77696e646f77732f676f312e342e32",
  "transactions": [
    {
      "hash": "0xd0a0cccf67ed76e7eac7c2618ce83ece973687b05dd1916284bcbb86c19a0207",
      "blockHash": "0x8d50ad7f6878846e540ae37a1a948dcf51384b9f4678f066099d2045e74de984",
      "blockNumber": 51301,
      "transactionIndex": 0,
      "confirmations": null,
      "from": "0x288E4356F12D0D3D0F8DF3506E457E7cFd5f4Ab0",
      "gasPrice": {
        "_hex": "0xe14a136b5"
      },
      "gasLimit": {
        "_hex": "0x493e0"
      },
      "to": "0x6e38A457C722C6011B2dfa06d49240e797844d66",
      "value": {
        "_hex": "0x0"
      },
      "nonce": 7,
      "data": "0xf3fe12c90000000000000000000000000000000000000000000000000000000000000020000000000000000000000000000000000000000000000000000000000000003744617669642044776f726b656e3a2030453543364534383032383833303633343636463942324241424345384137443032303431394346000000000000000000",
      "r": "0x991c23a101141f35c10e328808af1cf981edee880c3c74185e708b21ad1e9fda",
      "s": "0x0e00d26f71dcec4e2d26e2a35ad9f08e510c294436ed815066c2abb0a5e00d18",
      "v": 27,
      "creates": null,
      "raw": "0xf8ea07850e14a136b5830493e0946e38a457c722c6011b2dfa06d49240e797844d6680b884f3fe12c90000000000000000000000000000000000000000000000000000000000000020000000000000000000000000000000000000000000000000000000000000003744617669642044776f726b656e3a20304535433645343830323838333036333436364639423242414243453841374430323034313943460000000000000000001ba0991c23a101141f35c10e328808af1cf981edee880c3c74185e708b21ad1e9fdaa00e00d26f71dcec4e2d26e2a35ad9f08e510c294436ed815066c2abb0a5e00d18",
      "networkId": 0,
      "chainId": 0
    },
    {
      "hash": "0xe45cabfa89f79f687e01e98277dc13f1ee7142cc5a5160a549381768c19037dd",
      "blockHash": "0x8d50ad7f6878846e540ae37a1a948dcf51384b9f4678f066099d2045e74de984",
      "blockNumber": 51301,
      "transactionIndex": 1,
      "confirmations": null,
      "from": "0x4cfeF0a00715760Ed2b03C3782D07a4EA9A8dfDc",
      "gasPrice": {
        "_hex": "0xd855519b1"
      },
      "gasLimit": {
        "_hex": "0x61a8"
      },
      "to": "0x8dd1564B9F5de977842650A81926AF713963C070",
      "value": {
        "_hex": "0x8ac7230489e80000"
      },
      "nonce": 4,
      "data": "0x",
      "r": "0x0b88ed74eaaaed1a5d1990f4078674691aaf973cdc29c2db81d949e131d02f04",
      "s": "0x04a2407db8d4784dba3820f079295c7ab85aec14ac2863d1ef30da736796e027",
      "v": 27,
      "creates": null,
      "raw": "0xf86c04850d855519b18261a8948dd1564b9f5de977842650a81926af713963c070888ac7230489e80000801ba00b88ed74eaaaed1a5d1990f4078674691aaf973cdc29c2db81d949e131d02f04a004a2407db8d4784dba3820f079295c7ab85aec14ac2863d1ef30da736796e027",
      "networkId": 0,
      "chainId": 0
    }
  ]
}