{
  "hash": "0x46a9d325fe3870a5a27bfc083282fb519648dc2c51c8e54e40df4262a51417d8",
  "parentHash": "0x0c4202a130bff8082a33baeed2aadb256dee751dca01c82f0cd661ce654f94d0",
  "number": 121621,
  "timestamp": 1440179899,
  "nonce": "0xcbaf97a17977312f",
  "difficulty": 4464655626482,
  "gasLimit": {
    "_hex": "0x2fefd8"
  },
  "gasUsed": {
    "_hex": "0x5208"
  },
  "miner": "0x52bc44d5378309EE2abF1539BF71dE1b7d7bE3b5",
  "extraData": "0xd783010002844765746887676f312e342e32856c696e7578",
  "transactions": [
    {
      "hash": "0xfb526f6e4206aab9ebf58399accb68dff32da28bd90dd281f69f014b0b27607d",
      "blockHash": "0x46a9d325fe3870a5a27bfc083282fb519648dc2c51c8e54e40df4262a51417d8",
      "blockNumber": 121621,
      "transactionIndex": 0,
      "confirmations": null,
      "from": "0x557C2806B6ceA65a66F415bb2Ed1ce897B340745",
      "gasPrice": {
        "_hex": "0xba43b7400"
      },
      "gasLimit": {
        "_hex": "0x5208"
      },
      "to": "0x32Be343B94f860124dC4fEe278FDCBD38C102D88",
      "value": {
        "_hex": "0xddcfbbb7a606000"
      },
      "nonce": 14,
      "data": "0x",
      "r": "0x83cb388174439c712666b719c8d0340c73a5284915e76cb082746fefb4877015",
      "s": "0x249c6a0b405074a547dd2778fe26ca8f01411247da2988a29c92afc05286fa45",
      "v": 27,
      "creates": null,
      "raw": "0xf86c0e850ba43b74008252089432be343b94f860124dc4fee278fdcbd38c102d88880ddcfbbb7a606000801ba083cb388174439c712666b719c8d0340c73a5284915e76cb082746fefb4877015a0249c6a0b405074a547dd2778fe26ca8f01411247da2988a29c92afc05286fa45",
      "networkId": 0,
      "chainId": 0
    }
  ]
}