{
  "hash": "0xcd6f4ac2e2d758bbbb8c9e9c47865f7dcfe88e529846c1be0c21462d0b25aa6d",
  "parentHash": "0x6f6684cccb787da4c61d43e69b59a7dad9834e3b13c812a2c8a36775f2fe003b",
  "number": 84549,
  "timestamp": 1439551214,
  "nonce": "0x23c5ed693e7157f0",
  "difficulty": 2572677807332,
  "gasLimit": {
    "_hex": "0x2fefd8"
  },
  "gasUsed": {
    "_hex": "0x5208"
  },
  "miner": "0xe090Ffdced499691fA9379752a59F8A058c1eE4A",
  "extraData": "0x476574682f76312e302e312f6c696e75782f676f312e342e32",
  "transactions": [
    {
      "hash": "0xe6c6f8e2ab62b93d3b3b03702997e2119a8f45f5737bbb86c5c10d7cf227c5be",
      "blockHash": "0xcd6f4ac2e2d758bbbb8c9e9c47865f7dcfe88e529846c1be0c21462d0b25aa6d",
      "blockNumber": 84549,
      "transactionIndex": 0,
      "confirmations": null,
      "from": "0x87898CE53471043FcCa0a2aF4E1dC6d8B3fCf607",
      "gasPrice": {
        "_hex": "0xccda7bc70"
      },
      "gasLimit": {
        "_hex": "0x5208"
      },
      "to": "0xBFdD9820a04283b289957956353b5F3C1F665EcF",
      "value": {
        "_hex": "0x8ac7230489e80000"
      },
      "nonce": 34,
      "data": "0x",
      "r": "0x37e775df0113144ae987803a0edc159a4b5939c86e42e9352074c2b356ff7064",
      "s": "0x3d057171010155017b56389e206de3f5614a1521a0fa26205785588ab2661ace",
      "v": 27,
      "creates": null,
      "raw": "0xf86c22850ccda7bc7082520894bfdd9820a04283b289957956353b5f3c1f665ecf888ac7230489e80000801ba037e775df0113144ae987803a0edc159a4b5939c86e42e9352074c2b356ff7064a03d057171010155017b56389e206de3f5614a1521a0fa26205785588ab2661ace",
      "networkId": 0,
      "chainId": 0
    }
  ]
}