{
  "hash": "0x3ad2700b54be646dab546d9c23d9952100a34d8dfeeef52bd775c5ef9b9113b0",
  "parentHash": "0xf01623973c56a283a4450f4caecc1fbf7beeb765b4a0b1005f478529e32bc6c4",
  "number": 109416,
  "timestamp": 1439956161,
  "nonce": "0x2d62f3d932e88279",
  "difficulty": 4477710548151,
  "gasLimit": {
    "_hex": "0x2fefd8"
  },
  "gasUsed": {
    "_hex": "0x5208"
  },
  "miner": "0xe6A7a1d47ff21B6321162AEA7C6CB457D5476Bca",
  "extraData": "0x476574682f76312e302e312d38326566323666362f6c696e75782f676f312e34",
  "transactions": [
    {
      "hash": "0xa6865fc7fca665082e85eb064b7fe105f932ccf44c966be6c3af44f66b8948b8",
      "blockHash": "0x3ad2700b54be646dab546d9c23d9952100a34d8dfeeef52bd775c5ef9b9113b0",
      "blockNumber": 109416,
      "transactionIndex": 0,
      "confirmations": null,
      "from": "0x1527fcd698B3A8707bb745F80ab114FfF3Db35E2",
      "gasPrice": {
        "_hex": "0xcf9d28067"
      },
      "gasLimit": {
        "_hex": "0x5208"
      },
      "to": "0x32Be343B94f860124dC4fEe278FDCBD38C102D88",
      "value": {
        "_hex": "0x30923c48100e96000"
      },
      "nonce": 8,
      "data": "0x",
      "r": "0x1e5e72ad819da1fb115b49d60353a646e54ea1c3711f8f16e8857fe73af1ece5",
      "s": "0x0aeb0694a0d38a4bf2b8cbce38d505ca745abb8c8d4eb88acff597ded850d032",
      "v": 27,
      "creates": null,
      "raw": "0xf86d08850cf9d280678252089432be343b94f860124dc4fee278fdcbd38c102d8889030923c48100e96000801ba01e5e72ad819da1fb115b49d60353a646e54ea1c3711f8f16e8857fe73af1ece5a00aeb0694a0d38a4bf2b8cbce38d505ca745abb8c8d4eb88acff597ded850d032",
      "networkId": 0,
      "chainId": 0
    }
  ]
}