{
  "hash": "0x8629c58ac53679603f8a0b266f7fd97e42afc5d0e21e53024d5603abaa86a29d",
  "parentHash": "0xaa2554f4569b58c7408195820c42c0b59a733eb9f2b0b8ceaf528a51e4b3731d",
  "number": 101798,
  "timestamp": 1439828202,
  "nonce": "0x00fa2809fce16471",
  "difficulty": 3882445796794,
  "gasLimit": {
    "_hex": "0x2fefd8"
  },
  "gasUsed": {
    "_hex": "0x5208"
  },
  "miner": "0xC603Ab5ef41fC61AA8b76bEddb09e3Cfcbb174BD",
  "extraData": "0x476574682f76312e302e312f77696e646f77732f676f312e342e32",
  "transactions": [
    {
      "hash": "0x2872598cca1f0811b0652b641f7e9d96f6ce4ef40f77654b9c1aa73141dd3e9b",
      "blockHash": "0x8629c58ac53679603f8a0b266f7fd97e42afc5d0e21e53024d5603abaa86a29d",
      "blockNumber": 101798,
      "transactionIndex": 0,
      "confirmations": null,
      "from": "0x21D46e5e1C37D3fa2157A393Fa444EafE63646Fa",
      "gasPrice": {
        "_hex": "0xd3d37f23a"
      },
      "gasLimit": {
        "_hex": "0x15f90"
      },
      "to": "0x2D1d94521E896625F8Ec3f65171Fa82262Da6BCF",
      "value": {
        "_hex": "0x3860e639d80640000"
      },
      "nonce": 4,
      "data": "0x",
      "r": "0xd845dcf5ce5b82ec38de5e3548ef5d90401456e5f8e694a7b859c620f5f2036d",
      "s": "0x6d2ae0d265cb646a23de8c8d25e576d23de56ef1888aa23e25393493445f161c",
      "v": 27,
      "creates": null,
      "raw": "0xf86e04850d3d37f23a83015f90942d1d94521e896625f8ec3f65171fa82262da6bcf8903860e639d80640000801ba0d845dcf5ce5b82ec38de5e3548ef5d90401456e5f8e694a7b859c620f5f2036da06d2ae0d265cb646a23de8c8d25e576d23de56ef1888aa23e25393493445f161c",
      "networkId": 0,
      "chainId": 0
    }
  ]
}