{
  "hash": "0xc706bf40fac551802afff002c8b78dad271f07b478de8b3d1420271376cc28ad",
  "parentHash": "0xd2187e5e4e69a6685827e6d7c3ee883713d1155b1d7c56aa134915d726ee7114",
  "number": 49369,
  "timestamp": 1438972505,
  "nonce": "0x7b2ad11383f068a2",
  "difficulty": 1476346908549,
  "gasLimit": {
    "_hex": "0x2eb76"
  },
  "gasUsed": {
    "_hex": "0x5208"
  },
  "miner": "0x1B7047b4338ACf65bE94C1A3e8c5c9338ad7d67C",
  "extraData": "0x476574682f76312e302e312d38326566323666362f6c696e75782f676f312e34",
  "transactions": [
    {
      "hash": "0xd4c6a845fe7e94e43e63ae669ce0d993ab9c56f5ee69265ab506029f8930e2da",
      "blockHash": "0xc706bf40fac551802afff002c8b78dad271f07b478de8b3d1420271376cc28ad",
      "blockNumber": 49369,
      "transactionIndex": 0,
      "confirmations": null,
      "from": "0x4F177f9D56953DED71a5611F393322C30279895c",
      "gasPrice": {
        "_hex": "0x45d964b800"
      },
      "gasLimit": {
        "_hex": "0x5208"
      },
      "to": "0x1Bb2E0301Ccc81367BC1C2c97B9d60548ECe3B69",
      "value": {
        "_hex": "0x813d2f126b1c7e400"
      },
      "nonce": 1,
      "data": "0x",
      "r": "0xe6982aeb97b8c700f5df9ab1d718b9c6854c26250763fbc2c91a000e0d6ae516",
      "s": "0x6083e61bb52ef46a6ec6916d56542ccadab3f5e42185c6e068715c5db0a55f12",
      "v": 28,
      "creates": null,
      "raw": "0xf86d018545d964b800825208941bb2e0301ccc81367bc1c2c97b9d60548ece3b69890813d2f126b1c7e400801ca0e6982aeb97b8c700f5df9ab1d718b9c6854c26250763fbc2c91a000e0d6ae516a06083e61bb52ef46a6ec6916d56542ccadab3f5e42185c6e068715c5db0a55f12",
      "networkId": 0,
      "chainId": 0
    }
  ]
}