{
  "hash": "0xd430db4f95486b6061771979f9fb138247056ab570c86114799429ce0835837e",
  "parentHash": "0xda0fefe64c0f593ea4f65a693cafe6706a101910d7ef3929dad37a811a38d1c1",
  "number": 48585,
  "timestamp": 1438959420,
  "nonce": "0xce20ec194f58de3f",
  "difficulty": 1467858911284,
  "gasLimit": {
    "_hex": "0x19fc5"
  },
  "gasUsed": {
    "_hex": "0x546c"
  },
  "miner": "0x8be48706740cfb8bC229aAE498cfDbcdE1b93deb",
  "extraData": "0x476574682f76312e302e302f77696e646f77732f676f312e342e32",
  "transactions": [
    {
      "hash": "0x2554a723a7e7678db9bb5efe9581beaa821399f205f2b9bdc2c68bedcbd70000",
      "blockHash": "0xd430db4f95486b6061771979f9fb138247056ab570c86114799429ce0835837e",
      "blockNumber": 48585,
      "transactionIndex": 0,
      "confirmations": null,
      "from": "0x52fB46ac5d00c3518B2c3a1c177D442f8165555f",
      "gasPrice": {
        "_hex": "0xd0c9d9634"
      },
      "gasLimit": {
        "_hex": "0x15f90"
      },
      "to": "0x2910543Af39abA0Cd09dBb2D50200b3E800A63D2",
      "value": {
        "_hex": "0x51509822d7bfda4000"
      },
      "nonce": 0,
      "data": "0x454e35364234543252",
      "r": "0xeca4678cfe8e875008172323c064f2a9ffa8c9eefc9b7ebaad9c4d7900db1e97",
      "s": "0x5755ee18a4521e14ed67934111362d415dfc82b237d38e1d1825d681ab1f0d56",
      "v": 28,
      "creates": null,
      "raw": "0xf87780850d0c9d963483015f90942910543af39aba0cd09dbb2d50200b3e800a63d28951509822d7bfda400089454e353642345432521ca0eca4678cfe8e875008172323c064f2a9ffa8c9eefc9b7ebaad9c4d7900db1e97a05755ee18a4521e14ed67934111362d415dfc82b237d38e1d1825d681ab1f0d56",
      "networkId": 0,
      "chainId": 0
    }
  ]
}