{
  "hash": "0xded99fcefc8a53cbc3e34dd20717ab6e31c155dbac2cabb841d6d2891dfd9e72",
  "parentHash": "0x1165ec6d5bf780c6740e204ade64027bc23aead3715a235c6e516dd74ed21f02",
  "number": 101546,
  "timestamp": 1439824472,
  "nonce": "0xb203859bc29edd8d",
  "difficulty": 3878772715680,
  "gasLimit": {
    "_hex": "0x2fefd8"
  },
  "gasUsed": {
    "_hex": "0x5208"
  },
  "miner": "0xe6A7a1d47ff21B6321162AEA7C6CB457D5476Bca",
  "extraData": "0x476574682f76312e302e312d38326566323666362f6c696e75782f676f312e34",
  "transactions": [
    {
      "hash": "0x7a9724748bb872915cf03ba9f7105ecd72a0f995fb2b787127bebdfcb3e2387f",
      "blockHash": "0xded99fcefc8a53cbc3e34dd20717ab6e31c155dbac2cabb841d6d2891dfd9e72",
      "blockNumber": 101546,
      "transactionIndex": 0,
      "confirmations": null,
      "from": "0xF11940EA05aA9CC3F13aCF5C5cA6EDCF312E3Aec",
      "gasPrice": {
        "_hex": "0xe16cd1963"
      },
      "gasLimit": {
        "_hex": "0x15f90"
      },
      "to": "0x59C62d3D43f9EA1c4118d98c188AA5d028b8bB8E",
      "value": {
        "_hex": "0x270801d946c940000"
      },
      "nonce": 12,
      "data": "0x",
      "r": "0xbb879ae9b15e034f1b9729c8e43a22b8b7580753c8ae3e15e90ee2303ed621a7",
      "s": "0x7026550349a7ce890e840a2c56d7eb2faac31655159545f6e0b6b0e55a338ad6",
      "v": 27,
      "creates": null,
      "raw": "0xf86e0c850e16cd196383015f909459c62d3d43f9ea1c4118d98c188aa5d028b8bb8e890270801d946c940000801ba0bb879ae9b15e034f1b9729c8e43a22b8b7580753c8ae3e15e90ee2303ed621a7a07026550349a7ce890e840a2c56d7eb2faac31655159545f6e0b6b0e55a338ad6",
      "networkId": 0,
      "chainId": 0
    }
  ]
}