{
  "hash": "0x5a256a913dfc0a19e628db9283fcee1890c84262aa990cca4c486538dd740429",
  "parentHash": "0x61217014f0041b6a1c652a81390984aac600e4d335f3d7efcf8674f4f96e0043",
  "number": 79235,
  "timestamp": 1439466484,
  "nonce": "0x2f220a0d39c50c1e",
  "difficulty": 2323423425514,
  "gasLimit": {
    "_hex": "0x2fefd8"
  },
  "gasUsed": {
    "_hex": "0x546c"
  },
  "miner": "0x1B7047b4338ACf65bE94C1A3e8c5c9338ad7d67C",
  "extraData": "0x476574682f76312e302e312d38326566323666362f6c696e75782f676f312e34",
  "transactions": [
    {
      "hash": "0x9897148f168ca612d9dae04c6f24930ddcc03f4477063ee6c188fefe9a5b5406",
      "blockHash": "0x5a256a913dfc0a19e628db9283fcee1890c84262aa990cca4c486538dd740429",
      "blockNumber": 79235,
      "transactionIndex": 0,
      "confirmations": null,
      "from": "0x90891a4dAE53428129E5E2044f4677213EcCBB59",
      "gasPrice": {
        "_hex": "0xcf731ad7d"
      },
      "gasLimit": {
        "_hex": "0x55f0"
      },
      "to": "0x2910543Af39abA0Cd09dBb2D50200b3E800A63D2",
      "value": {
        "_hex": "0x890b0c2e14fb80000"
      },
      "nonce": 2,
      "data": "0x454e4444435a464e52",
      "r": "0x96837f3cd990610c82f9d62704dae298930fb2af82ea05486b1110a753ea86f5",
      "s": "0x77dc61412c1bbae353805f81de4f563741c9d61edcfb7364a8cdd6a232614b7a",
      "v": 28,
      "creates": null,
      "raw": "0xf87602850cf731ad7d8255f0942910543af39aba0cd09dbb2d50200b3e800a63d2890890b0c2e14fb8000089454e4444435a464e521ca096837f3cd990610c82f9d62704dae298930fb2af82ea05486b1110a753ea86f5a077dc61412c1bbae353805f81de4f563741c9d61edcfb7364a8cdd6a232614b7a",
      "networkId": 0,
      "chainId": 0
    }
  ]
}