{
  "hash": "0x1afedc64968e2d3b39d78122d565e7a47d2429e86c56123794698fe2ef3630ec",
  "parentHash": "0x343c0724033cefa76dbc0af1f57caef1b60f0f37a5fc1abfc7aa4cb563faaa66",
  "number": 78807,
  "timestamp": 1439459755,
  "nonce": "0x892c81c0f585de35",
  "difficulty": 2285285976281,
  "gasLimit": {
    "_hex": "0x2fefd8"
  },
  "gasUsed": {
    "_hex": "0x5208"
  },
  "miner": "0x72e3Ea8234b449531A581F05f1c1E07cceb559d2",
  "extraData": "0x476574682f76312e302e312f6c696e75782f676f312e342e32",
  "transactions": [
    {
      "hash": "0x974842b48bf2ff755628b3b489de57e4d9416111b423a9ddebd7913009d3c993",
      "blockHash": "0x1afedc64968e2d3b39d78122d565e7a47d2429e86c56123794698fe2ef3630ec",
      "blockNumber": 78807,
      "transactionIndex": 0,
      "confirmations": null,
      "from": "0x845eDA2dC559f882D393FFe560a5a6989F7a46e5",
      "gasPrice": {
        "_hex": "0xcb992cb92"
      },
      "gasLimit": {
        "_hex": "0x55f0"
      },
      "to": "0x3312E14473d0B1CDd335DEDA6C0f6B4d9596c0D2",
      "value": {
        "_hex": "0x29a2241af62c0000"
      },
      "nonce": 1,
      "data": "0x",
      "r": "0x04338b6a979ca299725de859a821a912bc997f623785756ab8dace3dea8669c5",
      "s": "0x23c1db6f15943a907e4b0bec320473b387b589f276e1f4f04dd4631530dfe90c",
      "v": 28,
      "creates": null,
      "raw": "0xf86c01850cb992cb928255f0943312e14473d0b1cdd335deda6c0f6b4d9596c0d28829a2241af62c0000801ca004338b6a979ca299725de859a821a912bc997f623785756ab8dace3dea8669c5a023c1db6f15943a907e4b0bec320473b387b589f276e1f4f04dd4631530dfe90c",
      "networkId": 0,
      "chainId": 0
    }
  ]
}