{
  "hash": "0x3827618deb4e423bb6e05b3fe8e99e4c4e606679461be9b9891bb72f02e98a70",
  "parentHash": "0x7a7b0000bfa7dc2003aed5216d587230cabd1bf5f56f1722eade451be8a94c61",
  "number": 65242,
  "timestamp": 1439233672,
  "nonce": "0xbef8a6f3cf33fe27",
  "difficulty": 1939792265360,
  "gasLimit": {
    "_hex": "0x2fefd5"
  },
  "gasUsed": {
    "_hex": "0xa410"
  },
  "miner": "0x7D45E10A0d63eCCA0694a7cbfF030f4dD87DA0dC",
  "extraData": "0x476574682f76312e302e302f77696e646f77732f676f312e342e32",
  "transactions": [
    {
      "hash": "0x80466e357d1b07e6458231790c38b2090895464de8cb12a8072927d35a55adca",
      "blockHash": "0x3827618deb4e423bb6e05b3fe8e99e4c4e606679461be9b9891bb72f02e98a70",
      "blockNumber": 65242,
      "transactionIndex": 0,
      "confirmations": null,
      "from": "0x7e6166F37EE71F67e4D2710613687024eDb25F86",
      "gasPrice": {
        "_hex": "0xba43b7400"
      },
      "gasLimit": {
        "_hex": "0x5208"
      },
      "to": "0xbBFaA2313d733f726f45c1b23210bA36a5feB58B",
      "value": {
        "_hex": "0x6e71a1e000e3000"
      },
      "nonce": 1,
      "data": "0x",
      "r": "0x706ec188ea385ea59ec667d3f558d950b31f9083f276b4be6123cb194a0400e3",
      "s": "0x0d38edd4c8fc5a47f7036781e0ceffdafa955a9af253a92597349b51e386bbfa",
      "v": 27,
      "creates": null,
      "raw": "0xf86c01850ba43b740082520894bbfaa2313d733f726f45c1b23210ba36a5feb58b8806e71a1e000e3000801ba0706ec188ea385ea59ec667d3f558d950b31f9083f276b4be6123cb194a0400e3a00d38edd4c8fc5a47f7036781e0ceffdafa955a9af253a92597349b51e386bbfa",
      "networkId": 0,
      "chainId": 0
    },
    {
      "hash": "0x9e50c1d0e5ed4738b3f4564c62bf9620c1963d0f0918c482f14693d93cb16fd2",
      "blockHash": "0x3827618deb4e423bb6e05b3fe8e99e4c4e606679461be9b9891bb72f02e98a70",
      "blockNumber": 65242,
      "transactionIndex": 1,
      "confirmations": null,
      "from": "0x43A20dC7603DF41e31E4d931D69eCD1434260e81",
      "gasPrice": {
        "_hex": "0xba43b7400"
      },
      "gasLimit": {
        "_hex": "0x5208"
      },
      "to": "0x698593552FE74Bab60DC875248051874dbe36221",
      "value": {
        "_hex": "0x75ac9fe3fe06000"
      },
      "nonce": 1,
      "data": "0x",
      "r": "0xc7d0659216ae9915bb6c6a668e5f2fa9e95c087ece9dfbd60632bf17fd34e118",
      "s": "0x454abac7cea7a458e8773440ab5cbfe0a10aed6af720c79dacbfa64681cc4b8a",
      "v": 27,
      "creates": null,
      "raw": "0xf86c01850ba43b740082520894698593552fe74bab60dc875248051874dbe3622188075ac9fe3fe06000801ba0c7d0659216ae9915bb6c6a668e5f2fa9e95c087ece9dfbd60632bf17fd34e118a0454abac7cea7a458e8773440ab5cbfe0a10aed6af720c79dacbfa64681cc4b8a",
      "networkId": 0,
      "chainId": 0
    }
  ]
}