{
  "hash": "0x5cf5ba54a2a0d8220c75b78bcc92ef34620ea220c3d3592be01318d3b1748481",
  "parentHash": "0x8fb6b82a220136cef9ac282d56e0247e31aaac47b731a349f555887ab883641a",
  "number": 73394,
  "timestamp": 1439368711,
  "nonce": "0x01c6e612385965aa",
  "difficulty": 2193794166038,
  "gasLimit": {
    "_hex": "0x2fefd8"
  },
  "gasUsed": {
    "_hex": "0xc987"
  },
  "miner": "0x39A1BB80a741bF5EC39FB9BE59408Fa0F418fFBf",
  "extraData": "0x476574682f76312e302e312f77696e646f77732f676f312e342e32",
  "transactions": [
    {
      "hash": "0xf61e231eeee5b899bec4f27bc0831235ab735afe33b54f792e6e23cc37b95219",
      "blockHash": "0x5cf5ba54a2a0d8220c75b78bcc92ef34620ea220c3d3592be01318d3b1748481",
      "blockNumber": 73394,
      "transactionIndex": 0,
      "confirmations": null,
      "from": "0x326Be8F71bFb0379f989aAB1CC1fE37f0a771f60",
      "gasPrice": {
        "_hex": "0x10abebbd3c1"
      },
      "gasLimit": {
        "_hex": "0x493e0"
      },
      "to": "0xDf595d10E76EffaBB38FB3ddFAF89a4Bd50Acf0f",
      "value": {
        "_hex": "0x8ac7230489e80000"
      },
      "nonce": 45,
      "data": "0x8d21618600000000000000000000000000000000000000000000000000000000000000808d5adaad541502933bfca57b79fdcf7b21a9ea7dbcf2e9321d253f5db02ac8f3",
      "r": "0x595339c50e34e932b121ec47b0addabbf5f156d8fdddd407ecaf1eb085cb42df",
      "s": "0x62c0012165e36cbd9cc29506ab2666d7ae7408e6eab9b9c61ad3c09d4dd602cd",
      "v": 28,
      "creates": null,
      "raw": "0xf8b32d86010abebbd3c1830493e094df595d10e76effabb38fb3ddfaf89a4bd50acf0f888ac7230489e80000b8448d21618600000000000000000000000000000000000000000000000000000000000000808d5adaad541502933bfca57b79fdcf7b21a9ea7dbcf2e9321d253f5db02ac8f31ca0595339c50e34e932b121ec47b0addabbf5f156d8fdddd407ecaf1eb085cb42dfa062c0012165e36cbd9cc29506ab2666d7ae7408e6eab9b9c61ad3c09d4dd602cd",
      "networkId": 0,
      "chainId": 0
    }
  ]
}