{
  "hash": "0x4ac37fececdeb81d14458622f17e082674b8f7589a6487fd373238216d489e68",
  "parentHash": "0x4f83a2b28df0b95fbe2dec1e66752b6a24ec753498bf221f4fb7ee6bd8b0b388",
  "number": 117916,
  "timestamp": 1440117470,
  "nonce": "0xbfcd7140a27b5c07",
  "difficulty": 4348270951263,
  "gasLimit": {
    "_hex": "0x2fefd8"
  },
  "gasUsed": {
    "_hex": "0x5208"
  },
  "miner": "0xC5624D986419AeBa6B6A7Ce5BAFd9883f75d8bc8",
  "extraData": "0x",
  "transactions": [
    {
      "hash": "0xe5d7fada2750d386b1726a22e5f619aa852cd7a9fce2d575bfbb457fe25b952d",
      "blockHash": "0x4ac37fececdeb81d14458622f17e082674b8f7589a6487fd373238216d489e68",
      "blockNumber": 117916,
      "transactionIndex": 0,
      "confirmations": null,
      "from": "0x378fCAEF49580b550cB7164f14811a5E613BD683",
      "gasPrice": {
        "_hex": "0xba43b7400"
      },
      "gasLimit": {
        "_hex": "0x5208"
      },
      "to": "0x32Be343B94f860124dC4fEe278FDCBD38C102D88",
      "value": {
        "_hex": "0x25707529fd609000"
      },
      "nonce": 7,
      "data": "0x",
      "r": "0xaa45c692afbd8d2ccb82ff426962e7d2469e4f94bc1185dc2b1b150d9ef5c8e3",
      "s": "0x641dd1275cc31207da1bfa4129888a91b2c53ae5918c852f9c42f8c26b908470",
      "v": 27,
      "creates": null,
      "raw": "0xf86c07850ba43b74008252089432be343b94f860124dc4fee278fdcbd38c102d888825707529fd609000801ba0aa45c692afbd8d2ccb82ff426962e7d2469e4f94bc1185dc2b1b150d9ef5c8e3a0641dd1275cc31207da1bfa4129888a91b2c53ae5918c852f9c42f8c26b908470",
      "networkId": 0,
      "chainId": 0
    }
  ]
}