{
  "hash": "0xd0b648bc12d6024d68b6bf126e76322761ecbc9b2c4ddfd786e89d8c5f1a6cd0",
  "parentHash": "0xb3db9fcab391932de75b429f24e989b5460bf797eb8a8ddb9f9e9e060d915a04",
  "number": 92336,
  "timestamp": 1439670449,
  "nonce": "0x1407eb8b0e2bae53",
  "difficulty": 3504604377198,
  "gasLimit": {
    "_hex": "0x2fefd8"
  },
  "gasUsed": {
    "_hex": "0x11129"
  },
  "miner": "0x007f7f58D3eb5b7510A301eCC749FC1fCDDBE14D",
  "extraData": "0x476574682f76312e302e312f77696e646f77732f676f312e342e32",
  "transactions": [
    {
      "hash": "0x38742c20e47f61caf59a8605f1f18a1813174ea30a4e8ae0cb7a5611ef0a4de0",
      "blockHash": "0xd0b648bc12d6024d68b6bf126e76322761ecbc9b2c4ddfd786e89d8c5f1a6cd0",
      "blockNumber": 92336,
      "transactionIndex": 0,
      "confirmations": null,
      "from": "0xCdA0AD7542e30BF520652A05056eBe0105c7e49A",
      "gasPrice": {
        "_hex": "0xd1217f556"
      },
      "gasLimit": {
        "_hex": "0x249f0"
      },
      "to": "0xde0B295669a9FD93d5F28D9Ec85E40f4cb697BAe",
      "value": {
        "_hex": "0x0"
      },
      "nonce": 1,
      "data": "0x797af627506218608039ab67bf6ba0fa6fdea7b596d02d1189b72b3d6e2899158bcfff98",
      "r": "0x1ab5f8d1b49c9eec2331d6259a5fea4d1b1a7ce8fcd1b2aa6222bfb768a50df4",
      "s": "0x6832519316b39aed623d965ddcbde4ea51509467b2b316260e948680b05fa4e7",
      "v": 28,
      "creates": null,
      "raw": "0xf88901850d1217f556830249f094de0b295669a9fd93d5f28d9ec85e40f4cb697bae80a4797af627506218608039ab67bf6ba0fa6fdea7b596d02d1189b72b3d6e2899158bcfff981ca01ab5f8d1b49c9eec2331d6259a5fea4d1b1a7ce8fcd1b2aa6222bfb768a50df4a06832519316b39aed623d965ddcbde4ea51509467b2b316260e948680b05fa4e7",
      "networkId": 0,
      "chainId": 0
    },
    {
      "hash": "0x3b9bfed2ea1c80a62785bbb8ef9c1e0fa71d0d810d8c3f379d7d78f811f4f498",
      "blockHash": "0xd0b648bc12d6024d68b6bf126e76322761ecbc9b2c4ddfd786e89d8c5f1a6cd0",
      "blockNumber": 92336,
      "transactionIndex": 1,
      "confirmations": null,
      "from": "0x2f6BCe4fc330B69C9B4c2694d57C63Ec7B18feC7",
      "gasPrice": {
        "_hex": "0xcb01cd61e"
      },
      "gasLimit": {
        "_hex": "0x7530"
      },
      "to": "0x2910543Af39abA0Cd09dBb2D50200b3E800A63D2",
      "value": {
        "_hex": "0x7ea28327577080000"
      },
      "nonce": 5,
      "data": "0x454e3651304d384252",
      "r": "0x2cc27acd0d755f1e1b081a5b5726dd31f751fcd7521d2127a7d2e3a3d3389d34",
      "s": "0x5117183ffd251e2a2994aa174b9a1c0b2d42d96effc495556bf70a4a9153f612",
      "v": 28,
      "creates": null,
      "raw": "0xf87605850cb01cd61e827530942910543af39aba0cd09dbb2d50200b3e800a63d28907ea2832757708000089454e3651304d3842521ca02cc27acd0d755f1e1b081a5b5726dd31f751fcd7521d2127a7d2e3a3d3389d34a05117183ffd251e2a2994aa174b9a1c0b2d42d96effc495556bf70a4a9153f612",
      "networkId": 0,
      "chainId": 0
    }
  ]
}