{
  "hash": "0x1c1afa95cfdb23ea619548eaf0eeebf79851ffa69346e9fbcb82331c1c810769",
  "parentHash": "0x355d7c2c07f5864c3f68cae09ff16fad01962a112302aece3f945d70402310e9",
  "number": 65284,
  "timestamp": 1439234330,
  "nonce": "0xc18025848ab079f3",
  "difficulty": 1943574893598,
  "gasLimit": {
    "_hex": "0x2fefd8"
  },
  "gasUsed": {
    "_hex": "0x17cd8"
  },
  "miner": "0xde8B4cca204F866220e8e25817668Cd44a5fee88",
  "extraData": "0x",
  "transactions": [
    {
      "hash": "0xe5b085bf49b157751fb62ada395b19a5ac0534290287f92fcf6c6b19f6dd4c21",
      "blockHash": "0x1c1afa95cfdb23ea619548eaf0eeebf79851ffa69346e9fbcb82331c1c810769",
      "blockNumber": 65284,
      "transactionIndex": 0,
      "confirmations": null,
      "from": "0x3C278C6f9bf2785AFAe39E94AfCc49fc03A1E7ae",
      "gasPrice": {
        "_hex": "0xba43b7400"
      },
      "gasLimit": {
        "_hex": "0x15f90"
      },
      "to": "0x793AE8C1b1a160BFc07BFB0d04F85eab1A71F4f2",
      "value": {
        "_hex": "0x0"
      },
      "nonce": 0,
      "data": "0x3ba15036",
      "r": "0xf0d910bd92d1324f1f30ad1ba98fd7acbd20125aa74bbc4b664636a3f7e0846f",
      "s": "0x4813dbec1fd2a01bcc3dc4de89710c33d8019c4f94047cfaee350ab486321f4e",
      "v": 28,
      "creates": null,
      "raw": "0xf86980850ba43b740083015f9094793ae8c1b1a160bfc07bfb0d04f85eab1a71f4f280843ba150361ca0f0d910bd92d1324f1f30ad1ba98fd7acbd20125aa74bbc4b664636a3f7e0846fa04813dbec1fd2a01bcc3dc4de89710c33d8019c4f94047cfaee350ab486321f4e",
      "networkId": 0,
      "chainId": 0
    },
    {
      "hash": "0xf994d74ead49a0951b20ea38da0971299d92fedf70489f87326a04350c6df244",
      "blockHash": "0x1c1afa95cfdb23ea619548eaf0eeebf79851ffa69346e9fbcb82331c1c810769",
      "blockNumber": 65284,
      "transactionIndex": 1,
      "confirmations": null,
      "from": "0x373a3Bc8f009Ada79bb6fE2E10d57127083112CA",
      "gasPrice": {
        "_hex": "0xba43b7400"
      },
      "gasLimit": {
        "_hex": "0x15f90"
      },
      "to": "0x793AE8C1b1a160BFc07BFB0d04F85eab1A71F4f2",
      "value": {
        "_hex": "0x0"
      },
      "nonce": 0,
      "data": "0x3ba15036",
      "r": "0x0bf64108acecd03c67a3f130413d00c10ab4207a349e7d0c500f839a0ad522b0",
      "s": "0x0e9a6580635e7264f0ae6065beb453f7c4a885ba9d0fa49fc586ae66601d7e6b",
      "v": 27,
      "creates": null,
      "raw": "0xf86980850ba43b740083015f9094793ae8c1b1a160bfc07bfb0d04f85eab1a71f4f280843ba150361ba00bf64108acecd03c67a3f130413d00c10ab4207a349e7d0c500f839a0ad522b0a00e9a6580635e7264f0ae6065beb453f7c4a885ba9d0fa49fc586ae66601d7e6b",
      "networkId": 0,
      "chainId": 0
    }
  ]
}