{
  "hash": "0x138f9f6773e63f20a6c92c370d255d3c2b029e58154d26636f5cca6ad3008c6b",
  "parentHash": "0xbcdda9cbf5336d6cc668a4d023cad905ea3e1853ec319d9a2165c5e07bf3b8f9",
  "number": 55132,
  "timestamp": 1439065792,
  "nonce": "0x1a4fe10f1fc16c6b",
  "difficulty": 1641839616293,
  "gasLimit": {
    "_hex": "0x2fefd8"
  },
  "gasUsed": {
    "_hex": "0x1e8480"
  },
  "miner": "0xC49418429e58989172a4ACE0bab0cB8D3F00F97f",
  "extraData": "0x476574682f76312e302e312f6c696e75782f676f312e342e32",
  "transactions": [
    {
      "hash": "0x77d8ca2136e5a025177deea2d1d62349992aefb32564dd49564065775b3cef62",
      "blockHash": "0x138f9f6773e63f20a6c92c370d255d3c2b029e58154d26636f5cca6ad3008c6b",
      "blockNumber": 55132,
      "transactionIndex": 0,
      "confirmations": null,
      "from": "0x0ae3F81a67725a8A7758FeB8684c6c17dA20755D",
      "gasPrice": {
        "_hex": "0xcbd37f502"
      },
      "gasLimit": {
        "_hex": "0x7a120"
      },
      "to": "0xA327075af2a223A1C83a36aDa1126afE7430f955",
      "value": {
        "_hex": "0x8ac7230489e80000"
      },
      "nonce": 3,
      "data": "0x",
      "r": "0xd5a30a9624e8fc005e7676c923a888ac684d76624ac8e810bb0e67ccd34f4add",
      "s": "0x359989cc5729b53406901337d80c645c201dc71c2f0a2227d58a525886228279",
      "v": 27,
      "creates": null,
      "raw": "0xf86d03850cbd37f5028307a12094a327075af2a223a1c83a36ada1126afe7430f955888ac7230489e80000801ba0d5a30a9624e8fc005e7676c923a888ac684d76624ac8e810bb0e67ccd34f4adda0359989cc5729b53406901337d80c645c201dc71c2f0a2227d58a525886228279",
      "networkId": 0,
      "chainId": 0
    },
    {
      "hash": "0x23c420c822a3e4f5ca9663b0494d9dc6f5c3f7c0266fb4b8cf48dbfc595dead3",
      "blockHash": "0x138f9f6773e63f20a6c92c370d255d3c2b029e58154d26636f5cca6ad3008c6b",
      "blockNumber": 55132,
      "transactionIndex": 1,
      "confirmations": null,
      "from": "0x0ae3F81a67725a8A7758FeB8684c6c17dA20755D",
      "gasPrice": {
        "_hex": "0xcbd37f502"
      },
      "gasLimit": {
        "_hex": "0x7a120"
      },
      "to": "0xA327075af2a223A1C83a36aDa1126afE7430f955",
      "value": {
        "_hex": "0x8ac7230489e80000"
      },
      "nonce": 4,
      "data": "0x",
      "r": "0xee156821576f8a50371d8a8b7417281a11551f760c57b76ce45f41dae24680d2",
      "s": "0x64f38b0a82e6f8a1624d8e53a8db5e4886f1506aae2eedd754b33cf3d62a9132",
      "v": 27,
      "creates": null,
      "raw": "0xf86d04850cbd37f5028307a12094a327075af2a223a1c83a36ada1126afe7430f955888ac7230489e80000801ba0ee156821576f8a50371d8a8b7417281a11551f760c57b76ce45f41dae24680d2a064f38b0a82e6f8a1624d8e53a8db5e4886f1506aae2eedd754b33cf3d62a9132",
      "networkId": 0,
      "chainId": 0
    },
    {
      "hash": "0x39d3fb304182c360d129a62de7cd747285337ad4290a95250204927da98d2b31",
      "blockHash": "0x138f9f6773e63f20a6c92c370d255d3c2b029e58154d26636f5cca6ad3008c6b",
      "blockNumber": 55132,
      "transactionIndex": 2,
      "confirmations": null,
      "from": "0x0ae3F81a67725a8A7758FeB8684c6c17dA20755D",
      "gasPrice": {
        "_hex": "0xcbd37f502"
      },
      "gasLimit": {
        "_hex": "0x7a120"
      },
      "to": "0xA327075af2a223A1C83a36aDa1126afE7430f955",
      "value": {
        "_hex": "0x8ac7230489e80000"
      },
      "nonce": 5,
      "data": "0x",
      "r": "0x6e77bae2e6056b2589fcd99480c7e037ccb8fe60a2a0670c9da6b8d982d3cafa",
      "s": "0x62335730ba41a31f39be26d7614aa1577ecd53ec630b3b9ae716c89b0b6280d8",
      "v": 28,
      "creates": null,
      "raw": "0xf86d05850cbd37f5028307a12094a327075af2a223a1c83a36ada1126afe7430f955888ac7230489e80000801ca06e77bae2e6056b2589fcd99480c7e037ccb8fe60a2a0670c9da6b8d982d3cafaa062335730ba41a31f39be26d7614aa1577ecd53ec630b3b9ae716c89b0b6280d8",
      "networkId": 0,
      "chainId": 0
    },
    {
      "hash": "0x975ec72ced20d72e18d477b5a8e630b6a8725edebe838a76675565bc80cf2591",
      "blockHash": "0x138f9f6773e63f20a6c92c370d255d3c2b029e58154d26636f5cca6ad3008c6b",
      "blockNumber": 55132,
      "transactionIndex": 3,
      "confirmations": null,
      "from": "0x0ae3F81a67725a8A7758FeB8684c6c17dA20755D",
      "gasPrice": {
        "_hex": "0xcbd37f502"
      },
      "gasLimit": {
        "_hex": "0x7a120"
      },
      "to": "0xA327075af2a223A1C83a36aDa1126afE7430f955",
      "value": {
        "_hex": "0x8ac7230489e80000"
      },
      "nonce": 6,
      "data": "0x",
      "r": "0x42a0c8340d9e4c4571d6180ca3a4b4f812dbacc3c972f15278e15ba8e5b1761a",
      "s": "0x40ca6b655dd37ed30f86cc2823b7a81b917cd4b40e04ffeb51769b0dc90efd50",
      "v": 27,
      "creates": null,
      "raw": "0xf86d06850cbd37f5028307a12094a327075af2a223a1c83a36ada1126afe7430f955888ac7230489e80000801ba042a0c8340d9e4c4571d6180ca3a4b4f812dbacc3c972f15278e15ba8e5b1761aa040ca6b655dd37ed30f86cc2823b7a81b917cd4b40e04ffeb51769b0dc90efd50",
      "networkId": 0,
      "chainId": 0
    }
  ]
}