{
  "hash": "0x2a986af4dd4b1bfa8c80cd150b45c9f711f8c1e6fe691f76d8aa9c2a77ecdbef",
  "parentHash": "0xc716ebcf75d06f8d868ce2665af77f078dce9714b2fa58d91f1ea385581f5c76",
  "number": 82943,
  "timestamp": 1439527400,
  "nonce": "0x950e585ec9a34ee6",
  "difficulty": 2410198386844,
  "gasLimit": {
    "_hex": "0x2fefd8"
  },
  "gasUsed": {
    "_hex": "0x5208"
  },
  "miner": "0x0eDEd3DA479d0beF8eeC92A76644D3f4E3C177f7",
  "extraData": "0x476574682f76312e302e312f6c696e75782f676f312e342e32",
  "transactions": [
    {
      "hash": "0x6b00225b35657829016cbd78e7ef877d055d8a741d24150ebe83ba22420231da",
      "blockHash": "0x2a986af4dd4b1bfa8c80cd150b45c9f711f8c1e6fe691f76d8aa9c2a77ecdbef",
      "blockNumber": 82943,
      "transactionIndex": 0,
      "confirmations": null,
      "from": "0x0C81b19Df1E50dA2c912C0a25173B5614E7D4917",
      "gasPrice": {
        "_hex": "0x9184e72a000"
      },
      "gasLimit": {
        "_hex": "0x61a8"
      },
      "to": "0xDcAb82942d809Dd3a9811177f1aac0c49F89f742",
      "value": {
        "_hex": "0x5f5e100"
      },
      "nonce": 1,
      "data": "0x",
      "r": "0xcbe98cf246aaca3c04fa4d12c88d2aa20e7734112f2c73ea72c6f21f7ef3e0e5",
      "s": "0xbfb60a20e16e6275fdbd961aed68b3b0da46e1608ccfc2896da9bf2286ba4221",
      "v": 27,
      "creates": null,
      "raw": "0xf869018609184e72a0008261a894dcab82942d809dd3a9811177f1aac0c49f89f7428405f5e100801ba0cbe98cf246aaca3c04fa4d12c88d2aa20e7734112f2c73ea72c6f21f7ef3e0e5a0bfb60a20e16e6275fdbd961aed68b3b0da46e1608ccfc2896da9bf2286ba4221",
      "networkId": 0,
      "chainId": 0
    }
  ]
}