{
  "hash": "0x56e56531b1f8ae1b2357a2f9faa602fe7935f2378994c2078f18b27280e4c6b8",
  "parentHash": "0x5e4b3c15347b9c3b52cda3c3263e3d050d7e64d84a2dcf8f6295347055cf1d1a",
  "number": 74491,
  "timestamp": 1439386891,
  "nonce": "0x14c6f75d6eb616b7",
  "difficulty": 2213951908650,
  "gasLimit": {
    "_hex": "0x2fefd8"
  },
  "gasUsed": {
    "_hex": "0xf618"
  },
  "miner": "0xe6A7a1d47ff21B6321162AEA7C6CB457D5476Bca",
  "extraData": "0x476574682f76312e302e312d38326566323666362f6c696e75782f676f312e34",
  "transactions": [
    {
      "hash": "0xab9ee44e4b50f7d0d7144403be73792c1081630e8b7a1ec00b4a473fc6942032",
      "blockHash": "0x56e56531b1f8ae1b2357a2f9faa602fe7935f2378994c2078f18b27280e4c6b8",
      "blockNumber": 74491,
      "transactionIndex": 0,
      "confirmations": null,
      "from": "0x2910543Af39abA0Cd09dBb2D50200b3E800A63D2",
      "gasPrice": {
        "_hex": "0xdf3b3e62e"
      },
      "gasLimit": {
        "_hex": "0x5208"
      },
      "to": "0x98781996FF0F2C5dE96Bb45755683BB5a09A5727",
      "value": {
        "_hex": "0x55dd4e40083cb8000"
      },
      "nonce": 302,
      "data": "0x",
      "r": "0xbc16831cde22da2a9a3c96b87b94c79458c68cbbdbe939bfc96c233b1056bdc3",
      "s": "0x3329b4030c0060e84b0a500a88b3ec26b802c199fd5ec449935292377037d8b9",
      "v": 28,
      "creates": null,
      "raw": "0xf86f82012e850df3b3e62e8252089498781996ff0f2c5de96bb45755683bb5a09a572789055dd4e40083cb8000801ca0bc16831cde22da2a9a3c96b87b94c79458c68cbbdbe939bfc96c233b1056bdc3a03329b4030c0060e84b0a500a88b3ec26b802c199fd5ec449935292377037d8b9",
      "networkId": 0,
      "chainId": 0
    },
    {
      "hash": "0x30256c7af1183cb273475ba7bb16eec64a18ea98bda22a185385d724516d02d6",
      "blockHash": "0x56e56531b1f8ae1b2357a2f9faa602fe7935f2378994c2078f18b27280e4c6b8",
      "blockNumber": 74491,
      "transactionIndex": 1,
      "confirmations": null,
      "from": "0x120A270bbC009644e35F0bB6ab13f95b8199c4ad",
      "gasPrice": {
        "_hex": "0xcd7c53611"
      },
      "gasLimit": {
        "_hex": "0x15f90"
      },
      "to": "0x6baeC65168a4fBB94b9557C65Dfc7cef5c6fBb8a",
      "value": {
        "_hex": "0x27819e93fdc369cc00"
      },
      "nonce": 281,
      "data": "0x",
      "r": "0x4d1cebb19ed42d19962974db1576df9f97121fc2f4813ff8a7a04e17313f1504",
      "s": "0x1373c36bdd7756e092f714ebe799a2c49fdab5ee44e04c2625bba1e0bb4e26ac",
      "v": 28,
      "creates": null,
      "raw": "0xf870820119850cd7c5361183015f90946baec65168a4fbb94b9557c65dfc7cef5c6fbb8a8927819e93fdc369cc00801ca04d1cebb19ed42d19962974db1576df9f97121fc2f4813ff8a7a04e17313f1504a01373c36bdd7756e092f714ebe799a2c49fdab5ee44e04c2625bba1e0bb4e26ac",
      "networkId": 0,
      "chainId": 0
    },
    {
      "hash": "0x66039d0f2c3958983ddc99d7216b438afbcbb0bc7aa42a31f5e2c42c789094cc",
      "blockHash": "0x56e56531b1f8ae1b2357a2f9faa602fe7935f2378994c2078f18b27280e4c6b8",
      "blockNumber": 74491,
      "transactionIndex": 2,
      "confirmations": null,
      "from": "0x4b0424c09BaC4Ee3f4376f1D3fA354E8Cb2D3171",
      "gasPrice": {
        "_hex": "0xcac3b6641"
      },
      "gasLimit": {
        "_hex": "0x15f90"
      },
      "to": "0x34d34F0a638F6991e4E2536F41295DF6E934A646",
      "value": {
        "_hex": "0xf1e3cca6e30f0000"
      },
      "nonce": 4,
      "data": "0x",
      "r": "0x6ff3784f6b703f9d0b322c6cf0380a5c1dfcc0a4b3c2afcab0acc2d321248071",
      "s": "0x0b604e96814ec38f7545a35b024f4c3f9abf1b75d83b0eadb4a4892f1b2dc667",
      "v": 27,
      "creates": null,
      "raw": "0xf86d04850cac3b664183015f909434d34f0a638f6991e4e2536f41295df6e934a64688f1e3cca6e30f0000801ba06ff3784f6b703f9d0b322c6cf0380a5c1dfcc0a4b3c2afcab0acc2d321248071a00b604e96814ec38f7545a35b024f4c3f9abf1b75d83b0eadb4a4892f1b2dc667",
      "networkId": 0,
      "chainId": 0
    }
  ]
}