{
  "hash": "0x05a00ddbb2c4b2a510d6bdbb4f248a2866c13c34beaaa223d772f0d0b797fe3c",
  "parentHash": "0x01dc3dbdc71bf473b04f2ee81aade631a175e939ba638422c60590286827ca43",
  "number": 94568,
  "timestamp": 1439710371,
  "nonce": "0xcc4d51337118d35b",
  "difficulty": 3500252128209,
  "gasLimit": {
    "_hex": "0x2fefd8"
  },
  "gasUsed": {
    "_hex": "0x5208"
  },
  "miner": "0x3D92adD52e14562fb2621F47a37dBd6172483A7f",
  "extraData": "0xd983010001844765746887676f312e342e328777696e646f7773",
  "transactions": [
    {
      "hash": "0x3d002eb759934cff489cb75faf88c32b406a2c7ce0adbc0cfb3472388c54fb07",
      "blockHash": "0x05a00ddbb2c4b2a510d6bdbb4f248a2866c13c34beaaa223d772f0d0b797fe3c",
      "blockNumber": 94568,
      "transactionIndex": 0,
      "confirmations": null,
      "from": "0x2aBD9e50d51e97aFc9a984f64657eD9539c59c91",
      "gasPrice": {
        "_hex": "0xe0ed02b46"
      },
      "gasLimit": {
        "_hex": "0x5208"
      },
      "to": "0x32Be343B94f860124dC4fEe278FDCBD38C102D88",
      "value": {
        "_hex": "0x1b1ae04b32745e0000"
      },
      "nonce": 8,
      "data": "0x",
      "r": "0x225517517234d90ca699ee157489b8f183f4d7b27116dc9cb5fd32e3717afba8",
      "s": "0x112cb8e5095404b9aacb71878dcc7a672c61d8d395609f37360bb536850eee0d",
      "v": 28,
      "creates": null,
      "raw": "0xf86d08850e0ed02b468252089432be343b94f860124dc4fee278fdcbd38c102d88891b1ae04b32745e0000801ca0225517517234d90ca699ee157489b8f183f4d7b27116dc9cb5fd32e3717afba8a0112cb8e5095404b9aacb71878dcc7a672c61d8d395609f37360bb536850eee0d",
      "networkId": 0,
      "chainId": 0
    }
  ]
}