{
  "hash": "0x74446dc35785d1f740c1dec079f97d42d83fc1c86bc29a2d893f4e33840123a2",
  "parentHash": "0xa7bb270965d998fd6ed17dd731d3d30f3c1d92c8f248c9e75c0a981e2de461e1",
  "number": 74647,
  "timestamp": 1439389801,
  "nonce": "0x4c0fc5007df3d4d8",
  "difficulty": 2203126974042,
  "gasLimit": {
    "_hex": "0x2fefd8"
  },
  "gasUsed": {
    "_hex": "0x5208"
  },
  "miner": "0xf927a40C8B7F6E07c5af7FA2155B4864a4112B13",
  "extraData": "0x",
  "transactions": [
    {
      "hash": "0xb17f5cbd0a49ac3727c7a4c7d278ebf72b4b5380c10893eff424a10cf4823e92",
      "blockHash": "0x74446dc35785d1f740c1dec079f97d42d83fc1c86bc29a2d893f4e33840123a2",
      "blockNumber": 74647,
      "transactionIndex": 0,
      "confirmations": null,
      "from": "0x32Be343B94f860124dC4fEe278FDCBD38C102D88",
      "gasPrice": {
        "_hex": "0xcbf27169d"
      },
      "gasLimit": {
        "_hex": "0x5208"
      },
      "to": "0xC557b4a4380B69196d6CF08Bf42B8fC2d0AEf083",
      "value": {
        "_hex": "0x13e69766ffe900000"
      },
      "nonce": 323,
      "data": "0x",
      "r": "0x1daf807ea574c02cea757d79fc48866a5700224dbf203d2d44511a9bd346e726",
      "s": "0x4515b6c2ac4dbfb1f9c80366c3c9fc879bec6178f5d7ddd41b3890e96845905d",
      "v": 27,
      "creates": null,
      "raw": "0xf86f820143850cbf27169d82520894c557b4a4380b69196d6cf08bf42b8fc2d0aef08389013e69766ffe900000801ba01daf807ea574c02cea757d79fc48866a5700224dbf203d2d44511a9bd346e726a04515b6c2ac4dbfb1f9c80366c3c9fc879bec6178f5d7ddd41b3890e96845905d",
      "networkId": 0,
      "chainId": 0
    }
  ]
}