{
  "hash": "0xcdd575d45fa95eafdf7a2b0b675d004b40b888e81d0520ebdd6cce43bea80042",
  "parentHash": "0x319b0210b56871e0f1800fc54fafbac62ca57c1c52eee2bae1ab4abb090f9242",
  "number": 47070,
  "timestamp": 1438933888,
  "nonce": "0x85449e6d6eee2fc1",
  "difficulty": 1454566726359,
  "gasLimit": {
    "_hex": "0x9427"
  },
  "gasUsed": {
    "_hex": "0x5208"
  },
  "miner": "0x0193d941b50d91BE6567c7eE1C0Fe7AF498b4137",
  "extraData": "0x4a5ace9e4e",
  "transactions": [
    {
      "hash": "0x8c6456d88dc978dba5abaa42082d8773a723bccfc817795ceb889d4b450e49b1",
      "blockHash": "0xcdd575d45fa95eafdf7a2b0b675d004b40b888e81d0520ebdd6cce43bea80042",
      "blockNumber": 47070,
      "transactionIndex": 0,
      "confirmations": null,
      "from": "0xdEbbdd831e0F20AE6e378252DecDf92f7CF0c658",
      "gasPrice": {
        "_hex": "0xd7e744730"
      },
      "gasLimit": {
        "_hex": "0x5208"
      },
      "to": "0x4912D994E8eA111bEfbC47d04ef89A132D785D95",
      "value": {
        "_hex": "0x1a823cfd2abe040000"
      },
      "nonce": 2,
      "data": "0x",
      "r": "0xcc9e4308f707d7207b826e247705c64ba56207afc6db231e11cc622b430b6352",
      "s": "0x721d58dce4636b04f66000556c21683c328735108230dd35cca8f3eb4f231495",
      "v": 28,
      "creates": null,
      "raw": "0xf86d02850d7e744730825208944912d994e8ea111befbc47d04ef89a132d785d95891a823cfd2abe040000801ca0cc9e4308f707d7207b826e247705c64ba56207afc6db231e11cc622b430b6352a0721d58dce4636b04f66000556c21683c328735108230dd35cca8f3eb4f231495",
      "networkId": 0,
      "chainId": 0
    }
  ]
}