{
  "hash": "0x764698e33892a34e3d91ddb25ea44f0cf854b5abeb44e16eb3f039c1732b13cb",
  "parentHash": "0x66c96e1c501972e4c78733e232f1d4b4d697bcbb462291cdb18ca40069d67226",
  "number": 80411,
  "timestamp": 1439485166,
  "nonce": "0xe035b2d25e7676fe",
  "difficulty": 2396840771013,
  "gasLimit": {
    "_hex": "0x2fefd8"
  },
  "gasUsed": {
    "_hex": "0x1154b"
  },
  "miner": "0xF2d2AfF1320476cb8C6b607199D23175cc595693",
  "extraData": "0x476574682f76312e302e312f77696e646f77732f676f312e342e32",
  "transactions": [
    {
      "hash": "0x3d7a55a5927ba92c7d640c34435bad8ed01effbc587e5447677337040cf8576b",
      "blockHash": "0x764698e33892a34e3d91ddb25ea44f0cf854b5abeb44e16eb3f039c1732b13cb",
      "blockNumber": 80411,
      "transactionIndex": 0,
      "confirmations": null,
      "from": "0x671c5D0ffeB3993FD3Ce1D4a70A04eD949B3a250",
      "gasPrice": {
        "_hex": "0x1140d289b7f"
      },
      "gasLimit": {
        "_hex": "0x55f0"
      },
      "to": "0x2910543Af39abA0Cd09dBb2D50200b3E800A63D2",
      "value": {
        "_hex": "0x11c37937e080000"
      },
      "nonce": 4,
      "data": "0x454e42363131514538",
      "r": "0xcebb946b48f976fb26b144bb6830eb2e42795156b5af7c10d5645aebc82c881d",
      "s": "0x379eedd53301cd17b4e7314c89fc62576db1026a059c9bf12e5ad0ca9cdfdabf",
      "v": 27,
      "creates": null,
      "raw": "0xf876048601140d289b7f8255f0942910543af39aba0cd09dbb2d50200b3e800a63d288011c37937e08000089454e423631315145381ba0cebb946b48f976fb26b144bb6830eb2e42795156b5af7c10d5645aebc82c881da0379eedd53301cd17b4e7314c89fc62576db1026a059c9bf12e5ad0ca9cdfdabf",
      "networkId": 0,
      "chainId": 0
    },
    {
      "hash": "0x55d0ff35f9527250195f38118f95f90584bc4597d15996496ac3f6f870d17fb7",
      "blockHash": "0x764698e33892a34e3d91ddb25ea44f0cf854b5abeb44e16eb3f039c1732b13cb",
      "blockNumber": 80411,
      "transactionIndex": 1,
      "confirmations": null,
      "from": "0x87C5B5874A18B4306DF8a752a6C8cc3E82daFc19",
      "gasPrice": {
        "_hex": "0x10a1e213e9d"
      },
      "gasLimit": {
        "_hex": "0x493e0"
      },
      "to": "0xC4c51de1AbF5D60DBd329eC0F999Fd8f021ae9fC",
      "value": {
        "_hex": "0x0"
      },
      "nonce": 200,
      "data": "0xbd66528a6b6b6b0000000000000000000000000000000000000000000000000000000000",
      "r": "0x9e51f30b7edbeafa5675cd5b0033122630fdc73724d2abd9429d84c349f31ecb",
      "s": "0x00e5e3b98d45d31ec7e9556e2e2642eabf81289cc0a7c7c604e90057fad5c17d",
      "v": 27,
      "creates": null,
      "raw": "0xf88a81c886010a1e213e9d830493e094c4c51de1abf5d60dbd329ec0f999fd8f021ae9fc80a4bd66528a6b6b6b00000000000000000000000000000000000000000000000000000000001ba09e51f30b7edbeafa5675cd5b0033122630fdc73724d2abd9429d84c349f31ecb9fe5e3b98d45d31ec7e9556e2e2642eabf81289cc0a7c7c604e90057fad5c17d",
      "networkId": 0,
      "chainId": 0
    },
    {
      "hash": "0x79b9b2d29930b586cc6af970bf9b131b9a820d61cf76e4df90234659d73a8a2f",
      "blockHash": "0x764698e33892a34e3d91ddb25ea44f0cf854b5abeb44e16eb3f039c1732b13cb",
      "blockNumber": 80411,
      "transactionIndex": 2,
      "confirmations": null,
      "from": "0x2910543Af39abA0Cd09dBb2D50200b3E800A63D2",
      "gasPrice": {
        "_hex": "0xdcebcd584"
      },
      "gasLimit": {
        "_hex": "0x5208"
      },
      "to": "0x0D70592F27eC3d8996b4317150B3eD8C0CD57e38",
      "value": {
        "_hex": "0x2645a617fa69e78000"
      },
      "nonce": 391,
      "data": "0x",
      "r": "0x75e179e96ac96f87d76bca19b99d506e5adc3edd02f89c03f09cd77b22db1c5c",
      "s": "0x6eed6a51af4f7476640ad97d30fc7308dc6ca874b3ef93e30d92d95feae7ca24",
      "v": 27,
      "creates": null,
      "raw": "0xf86f820187850dcebcd584825208940d70592f27ec3d8996b4317150b3ed8c0cd57e38892645a617fa69e78000801ba075e179e96ac96f87d76bca19b99d506e5adc3edd02f89c03f09cd77b22db1c5ca06eed6a51af4f7476640ad97d30fc7308dc6ca874b3ef93e30d92d95feae7ca24",
      "networkId": 0,
      "chainId": 0
    }
  ]
}