{
  "hash": "0xeaa8502ac501fd194a409442993bb91799d7acfcce1fd5bc2cf8f60f783053db",
  "parentHash": "0x172b8083253696d90e1279623b699d9cc74fed6d34dd8ba5283530c0d2258c94",
  "number": 106111,
  "timestamp": 1439898801,
  "nonce": "0x3f9ba514e7378ee4",
  "difficulty": 4468552174085,
  "gasLimit": {
    "_hex": "0x2fefd8"
  },
  "gasUsed": {
    "_hex": "0xa410"
  },
  "miner": "0xe6A7a1d47ff21B6321162AEA7C6CB457D5476Bca",
  "extraData": "0x476574682f76312e302e312d38326566323666362f6c696e75782f676f312e34",
  "transactions": [
    {
      "hash": "0x664285b3ee2558fbcd725739cf2fa749cb8437513c4aa55b57d03a7f22763975",
      "blockHash": "0xeaa8502ac501fd194a409442993bb91799d7acfcce1fd5bc2cf8f60f783053db",
      "blockNumber": 106111,
      "transactionIndex": 0,
      "confirmations": null,
      "from": "0x556ca325C21e450b2aFf86D9c8eF0Fa371971c97",
      "gasPrice": {
        "_hex": "0xcfb2bf172"
      },
      "gasLimit": {
        "_hex": "0x5208"
      },
      "to": "0x32Be343B94f860124dC4fEe278FDCBD38C102D88",
      "value": {
        "_hex": "0x8ac2fa276fa9f000"
      },
      "nonce": 17,
      "data": "0x",
      "r": "0x74662cb919e35c975b46ffb69122705d9d1732651de771a175a9bff9e13dac29",
      "s": "0x47469680a8fc212f72ff3968efbc24990a3c8d0d368635f8e7ff399aeced35bb",
      "v": 28,
      "creates": null,
      "raw": "0xf86c11850cfb2bf1728252089432be343b94f860124dc4fee278fdcbd38c102d88888ac2fa276fa9f000801ca074662cb919e35c975b46ffb69122705d9d1732651de771a175a9bff9e13dac29a047469680a8fc212f72ff3968efbc24990a3c8d0d368635f8e7ff399aeced35bb",
      "networkId": 0,
      "chainId": 0
    },
    {
      "hash": "0x43bb951fc1d91905055622d6b8035b8fcd09a27dc6b7083eedd6b56ddb749432",
      "blockHash": "0xeaa8502ac501fd194a409442993bb91799d7acfcce1fd5bc2cf8f60f783053db",
      "blockNumber": 106111,
      "transactionIndex": 1,
      "confirmations": null,
      "from": "0xAF654b2845616930f74573a909B477E23752DcA4",
      "gasPrice": {
        "_hex": "0xba43b7400"
      },
      "gasLimit": {
        "_hex": "0x5263"
      },
      "to": "0x0000000000000000000000000000000000000000",
      "value": {
        "_hex": "0xde0b6b3a7640000"
      },
      "nonce": 11,
      "data": "0x",
      "r": "0x08d209a33d77d855e3088e0aa7b72fc0a988b35eb95e71c28caafcbff4b21afb",
      "s": "0x8ab27ad47e9c410e43dd849292b0f41ce74920de537128331e625b162f0ad5e8",
      "v": 27,
      "creates": null,
      "raw": "0xf86c0b850ba43b7400825263940000000000000000000000000000000000000000880de0b6b3a7640000801ba008d209a33d77d855e3088e0aa7b72fc0a988b35eb95e71c28caafcbff4b21afba08ab27ad47e9c410e43dd849292b0f41ce74920de537128331e625b162f0ad5e8",
      "networkId": 0,
      "chainId": 0
    }
  ]
}