{
  "hash": "0xf95de0ea99e2ba12bb1948e722269b0137ae8a3a79f2ed46d021549cd262c84c",
  "parentHash": "0x9cb23c2a59170531e54abc405e9e541100c43e1ff7576cccf61310d801dce579",
  "number": 84312,
  "timestamp": 1439547888,
  "nonce": "0x0ff388e2db5c128c",
  "difficulty": 2539054995145,
  "gasLimit": {
    "_hex": "0x2fefd8"
  },
  "gasUsed": {
    "_hex": "0x14820"
  },
  "miner": "0x306e6267d94f23a9b37Cb110f20852208Fbbf1aA",
  "extraData": "0x",
  "transactions": [
    {
      "hash": "0x2377d0006552b76da1f02f9e8ed75222befbdbf4c26df08d9c7392c6b9e54cd2",
      "blockHash": "0xf95de0ea99e2ba12bb1948e722269b0137ae8a3a79f2ed46d021549cd262c84c",
      "blockNumber": 84312,
      "transactionIndex": 0,
      "confirmations": null,
      "from": "0xeCdf9d571849dE520c84eBEd7Ac4551e483eA5b3",
      "gasPrice": {
        "_hex": "0xd2f78cca3"
      },
      "gasLimit": {
        "_hex": "0x5208"
      },
      "to": "0x32Be343B94f860124dC4fEe278FDCBD38C102D88",
      "value": {
        "_hex": "0x8290a5ef9571e000"
      },
      "nonce": 3,
      "data": "0x",
      "r": "0x76d9d40bdb0758d1e9ff739d9defd83900111d50f1f723f728bd3bd45121c0aa",
      "s": "0x4479f62206c684defdff9a9a975f687d38d66fea6b7cd7973a1cbfc88f3e9232",
      "v": 27,
      "creates": null,
      "raw": "0xf86c03850d2f78cca38252089432be343b94f860124dc4fee278fdcbd38c102d88888290a5ef9571e000801ba076d9d40bdb0758d1e9ff739d9defd83900111d50f1f723f728bd3bd45121c0aaa04479f62206c684defdff9a9a975f687d38d66fea6b7cd7973a1cbfc88f3e9232",
      "networkId": 0,
      "chainId": 0
    },
    {
      "hash": "0x5de7b5563800f38877cb07fd30e0a8626bfae21d8c9af66f4bad60144f00ef09",
      "blockHash": "0xf95de0ea99e2ba12bb1948e722269b0137ae8a3a79f2ed46d021549cd262c84c",
      "blockNumber": 84312,
      "transactionIndex": 1,
      "confirmations": null,
      "from": "0xa70a9a7040d542C632D8e0bE7c5513A8a5Bbc752",
      "gasPrice": {
        "_hex": "0xd2f78cca3"
      },
      "gasLimit": {
        "_hex": "0x5208"
      },
      "to": "0x32Be343B94f860124dC4fEe278FDCBD38C102D88",
      "value": {
        "_hex": "0x979a77bf61926000"
      },
      "nonce": 78,
      "data": "0x",
      "r": "0xf004024b3ca6ce90b73e881d9c5ef861264ec0b3200b5be6d4933c2548c7b029",
      "s": "0x0a93d078370a401b9d3524db41936e54330613a4d466f959b2cca8070241a839",
      "v": 28,
      "creates": null,
      "raw": "0xf86c4e850d2f78cca38252089432be343b94f860124dc4fee278fdcbd38c102d8888979a77bf61926000801ca0f004024b3ca6ce90b73e881d9c5ef861264ec0b3200b5be6d4933c2548c7b029a00a93d078370a401b9d3524db41936e54330613a4d466f959b2cca8070241a839",
      "networkId": 0,
      "chainId": 0
    },
    {
      "hash": "0xd72e3a7fb43353f049551dd716351fd507645c5bb7b6bd7252b6dc6f620dcb35",
      "blockHash": "0xf95de0ea99e2ba12bb1948e722269b0137ae8a3a79f2ed46d021549cd262c84c",
      "blockNumber": 84312,
      "transactionIndex": 2,
      "confirmations": null,
      "from": "0x18883522e2679aA9b41E0fA688F20c3802897525",
      "gasPrice": {
        "_hex": "0xd2f78cca3"
      },
      "gasLimit": {
        "_hex": "0x5208"
      },
      "to": "0x32Be343B94f860124dC4fEe278FDCBD38C102D88",
      "value": {
        "_hex": "0xa9eb834afb137000"
      },
      "nonce": 3,
      "data": "0x",
      "r": "0x3dd9f88d1eefc58439e581f88f9394f743e2897bc01e58609bc272c890e83602",
      "s": "0x5c0d5403b32ae6bc674c25d8acbfb35863b38ec284277a84c77eb428a4d71984",
      "v": 27,
      "creates": null,
      "raw": "0xf86c03850d2f78cca38252089432be343b94f860124dc4fee278fdcbd38c102d8888a9eb834afb137000801ba03dd9f88d1eefc58439e581f88f9394f743e2897bc01e58609bc272c890e83602a05c0d5403b32ae6bc674c25d8acbfb35863b38ec284277a84c77eb428a4d71984",
      "networkId": 0,
      "chainId": 0
    },
    {
      "hash": "0xde254d4856736d6233b0a79ca97fed7aea3faff52c7dd648dd72ac1f42e953c6",
      "blockHash": "0xf95de0ea99e2ba12bb1948e722269b0137ae8a3a79f2ed46d021549cd262c84c",
      "blockNumber": 84312,
      "transactionIndex": 3,
      "confirmations": null,
      "from": "0xB415e74b9b5B2058EF3541265aaF7ce09C4953bc",
      "gasPrice": {
        "_hex": "0xd2f78cca3"
      },
      "gasLimit": {
        "_hex": "0x5208"
      },
      "to": "0x32Be343B94f860124dC4fEe278FDCBD38C102D88",
      "value": {
        "_hex": "0xdd3a342aecf46000"
      },
      "nonce": 3,
      "data": "0x",
      "r": "0x8c23d1d2348e81cd95bb8e8afb61346821268ff05001e97e65064fbb15412564",
      "s": "0x7a4ea9d1695d7ed0ff8fbf514fc0345c23cb6945ad227c9939e8bb3a62f31e78",
      "v": 27,
      "creates": null,
      "raw": "0xf86c03850d2f78cca38252089432be343b94f860124dc4fee278fdcbd38c102d8888dd3a342aecf46000801ba08c23d1d2348e81cd95bb8e8afb61346821268ff05001e97e65064fbb15412564a07a4ea9d1695d7ed0ff8fbf514fc0345c23cb6945ad227c9939e8bb3a62f31e78",
      "networkId": 0,
      "chainId": 0
    }
  ]
}