{
  "hash": "0x60c6d5d1250dfed38f6318ed3c525fb3ea31f5e4857340429242d2a5828addf8",
  "parentHash": "0x5c1936aea92db37e9586e0b476c8d0bbe32fa94ed3559fef2e7c354efa2e60bf",
  "number": 68387,
  "timestamp": 1439286974,
  "nonce": "0x35e8650b1d90480b",
  "difficulty": 2019264469980,
  "gasLimit": {
    "_hex": "0x2fefd8"
  },
  "gasUsed": {
    "_hex": "0x5208"
  },
  "miner": "0x38E8Ac573F0718497B99B698bB6A6D4A25404300",
  "extraData": "0x476574682f76312e302e312f77696e646f77732f676f312e342e32",
  "transactions": [
    {
      "hash": "0xe0e599206c603579b891c3ee8363e289cec03a3aca3142453744aedf72c7d2d0",
      "blockHash": "0x60c6d5d1250dfed38f6318ed3c525fb3ea31f5e4857340429242d2a5828addf8",
      "blockNumber": 68387,
      "transactionIndex": 0,
      "confirmations": null,
      "from": "0x6747f922385c9a6F9cfDf095F34345257DD597bE",
      "gasPrice": {
        "_hex": "0xba43b7400"
      },
      "gasLimit": {
        "_hex": "0x5208"
      },
      "to": "0xB053b1d48cc216942E431cA955A29476D954Efdd",
      "value": {
        "_hex": "0x1fcbfa42bd6000"
      },
      "nonce": 73,
      "data": "0x",
      "r": "0xb6433e0bcb960cf4bef7785601ae748a2c240e21aae6ab03d5aab4d9b259cd21",
      "s": "0x3fa334688d8736ee0f1f39dac80666246ce130162bf07db5068277efd993b3b9",
      "v": 27,
      "creates": null,
      "raw": "0xf86b49850ba43b740082520894b053b1d48cc216942e431ca955a29476d954efdd871fcbfa42bd6000801ba0b6433e0bcb960cf4bef7785601ae748a2c240e21aae6ab03d5aab4d9b259cd21a03fa334688d8736ee0f1f39dac80666246ce130162bf07db5068277efd993b3b9",
      "networkId": 0,
      "chainId": 0
    }
  ]
}