{
  "hash": "0x186193910c86813f9680bc4caab63bc341d443fd8567324e9286d0eb34cd4caf",
  "parentHash": "0xf216040a1ced90a3ff9e5b0d375dd7ad580a9823e0cfd8bd804d80eff3a09669",
  "number": 68470,
  "timestamp": 1439288425,
  "nonce": "0xdd7904d0c80d53d6",
  "difficulty": 2008428012571,
  "gasLimit": {
    "_hex": "0x2fefd8"
  },
  "gasUsed": {
    "_hex": "0x19a28"
  },
  "miner": "0x70C6b45fe0A5116E97B112B806A76E2F51E24413",
  "extraData": "0x476574682f76312e302e312f77696e646f77732f676f312e342e32",
  "transactions": [
    {
      "hash": "0x455546379624726b463b541d98360865cb44705f254fdd6d5c8ab23464ec41ca",
      "blockHash": "0x186193910c86813f9680bc4caab63bc341d443fd8567324e9286d0eb34cd4caf",
      "blockNumber": 68470,
      "transactionIndex": 0,
      "confirmations": null,
      "from": "0xbF2aA1D21c90323bEe086cFDF0634EaA8CE0C625",
      "gasPrice": {
        "_hex": "0xba43b7400"
      },
      "gasLimit": {
        "_hex": "0x5208"
      },
      "to": "0xF22608D8562B655923B955F7CB7a5384e9c532A3",
      "value": {
        "_hex": "0x36ef271c4dd000"
      },
      "nonce": 1,
      "data": "0x",
      "r": "0x35ef1d828ee17609640f5b3007b62a2e8f06cffadcbe71b6afcf7b52b496310a",
      "s": "0x5a34185325e43316001cc25a8c3fdd8ece4a747d50bba8a3c83eb1837f0191fa",
      "v": 28,
      "creates": null,
      "raw": "0xf86b01850ba43b740082520894f22608d8562b655923b955f7cb7a5384e9c532a38736ef271c4dd000801ca035ef1d828ee17609640f5b3007b62a2e8f06cffadcbe71b6afcf7b52b496310aa05a34185325e43316001cc25a8c3fdd8ece4a747d50bba8a3c83eb1837f0191fa",
      "networkId": 0,
      "chainId": 0
    },
    {
      "hash": "0x35beb0de05b97ba5e01d72e731d4a73e9cd80d2e68d9e541e47dbafb7c1937a7",
      "blockHash": "0x186193910c86813f9680bc4caab63bc341d443fd8567324e9286d0eb34cd4caf",
      "blockNumber": 68470,
      "transactionIndex": 1,
      "confirmations": null,
      "from": "0xC90A7389B3909a04F9EDDF85A5B51F5f5470b8d9",
      "gasPrice": {
        "_hex": "0xba43b7400"
      },
      "gasLimit": {
        "_hex": "0x5208"
      },
      "to": "0x9C8eBc96677F153c763ef6eE63ce83b0f3B5edAa",
      "value": {
        "_hex": "0x36ef271c4dd000"
      },
      "nonce": 1,
      "data": "0x",
      "r": "0x098edf72ede74ed52cd013d595a0f6bc8f00ca95a7b7608241738b56137b9f1c",
      "s": "0x0a185115971903cd57e203fe415d748c31608fe3f66e09e1cf6ac51c6926d588",
      "v": 28,
      "creates": null,
      "raw": "0xf86b01850ba43b7400825208949c8ebc96677f153c763ef6ee63ce83b0f3b5edaa8736ef271c4dd000801ca0098edf72ede74ed52cd013d595a0f6bc8f00ca95a7b7608241738b56137b9f1ca00a185115971903cd57e203fe415d748c31608fe3f66e09e1cf6ac51c6926d588",
      "networkId": 0,
      "chainId": 0
    },
    {
      "hash": "0x8ca61195f42f095f6c88a00a76a295927375fd67500dbce1728c93a1af424572",
      "blockHash": "0x186193910c86813f9680bc4caab63bc341d443fd8567324e9286d0eb34cd4caf",
      "blockNumber": 68470,
      "transactionIndex": 2,
      "confirmations": null,
      "from": "0xD2DbFA10cd27d737aB7397d2EB17bb70244Edc92",
      "gasPrice": {
        "_hex": "0xba43b7400"
      },
      "gasLimit": {
        "_hex": "0x5208"
      },
      "to": "0xA1b4352d32a96fBdC7a5E3761d9b66C377A060A7",
      "value": {
        "_hex": "0x36ef271c4dd000"
      },
      "nonce": 1,
      "data": "0x",
      "r": "0x5d5edf4453d1936d3c6872243aba97dd0d9c84d78eda415d6b08a1e005f0c34f",
      "s": "0x42ebb99cbb6d41255fa38ed87789ad0a81c78dd1894eda5c23a03e2ec34ce982",
      "v": 28,
      "creates": null,
      "raw": "0xf86b01850ba43b740082520894a1b4352d32a96fbdc7a5e3761d9b66c377a060a78736ef271c4dd000801ca05d5edf4453d1936d3c6872243aba97dd0d9c84d78eda415d6b08a1e005f0c34fa042ebb99cbb6d41255fa38ed87789ad0a81c78dd1894eda5c23a03e2ec34ce982",
      "networkId": 0,
      "chainId": 0
    },
    {
      "hash": "0x76afe1d75d7ed27546a56aef06f6270f411f6f1b4a619be65804dfaf3d6f7ee4",
      "blockHash": "0x186193910c86813f9680bc4caab63bc341d443fd8567324e9286d0eb34cd4caf",
      "blockNumber": 68470,
      "transactionIndex": 3,
      "confirmations": null,
      "from": "0x4CB43059b066Ba321Da0855D40b6a90cd8aE1A05",
      "gasPrice": {
        "_hex": "0xba43b7400"
      },
      "gasLimit": {
        "_hex": "0x5208"
      },
      "to": "0xd8C4DF4A9Da75264eBD975AD47a4dde67C0a5058",
      "value": {
        "_hex": "0x36ef271c4dd000"
      },
      "nonce": 1,
      "data": "0x",
      "r": "0x412f6f60f8b901e76b5c855e99de5d6b2bdd95b13a835454974f125227dc9ef8",
      "s": "0x2c1f6dd11f5345bed7f0d1fbe5c738aaffe78c7bcb6012c8a436b211c3dec73e",
      "v": 28,
      "creates": null,
      "raw": "0xf86b01850ba43b740082520894d8c4df4a9da75264ebd975ad47a4dde67c0a50588736ef271c4dd000801ca0412f6f60f8b901e76b5c855e99de5d6b2bdd95b13a835454974f125227dc9ef8a02c1f6dd11f5345bed7f0d1fbe5c738aaffe78c7bcb6012c8a436b211c3dec73e",
      "networkId": 0,
      "chainId": 0
    },
    {
      "hash": "0x2e5c536a22f50a2a1d598f3dda923ab69920f5df5fc5f8f403ccd17877ac6361",
      "blockHash": "0x186193910c86813f9680bc4caab63bc341d443fd8567324e9286d0eb34cd4caf",
      "blockNumber": 68470,
      "transactionIndex": 4,
      "confirmations": null,
      "from": "0x381CEd7BF0bB7D42762A2CF7BA7A3953a1f6BF64",
      "gasPrice": {
        "_hex": "0xba43b7400"
      },
      "gasLimit": {
        "_hex": "0x5208"
      },
      "to": "0x4e4177555e9924D5A07C5c086EB0b307189A6B62",
      "value": {
        "_hex": "0x36ef271c4dd000"
      },
      "nonce": 1,
      "data": "0x",
      "r": "0xbd2d3a53d017393912e191b99b2a24d8e1ea0221f9a1fbff080da66e82db6d9f",
      "s": "0x1fbb6a60b19ed664d81a0a17d9f132cbe07c976abf58f4c5be3da64d649139e2",
      "v": 27,
      "creates": null,
      "raw": "0xf86b01850ba43b7400825208944e4177555e9924d5a07c5c086eb0b307189a6b628736ef271c4dd000801ba0bd2d3a53d017393912e191b99b2a24d8e1ea0221f9a1fbff080da66e82db6d9fa01fbb6a60b19ed664d81a0a17d9f132cbe07c976abf58f4c5be3da64d649139e2",
      "networkId": 0,
      "chainId": 0
    }
  ]
}