{
  "hash": "0x75a60c00cb19969aef5f741dcaf5acd33050a24d63689be25c28f297b93fa57f",
  "parentHash": "0x1fe87b3773c3a6264f83f718452eff88517e1049e7310d085e11eef8e35c78af",
  "number": 91136,
  "timestamp": 1439650980,
  "nonce": "0x74409debaf3f5e0d",
  "difficulty": 3437310863310,
  "gasLimit": {
    "_hex": "0x2fefd8"
  },
  "gasUsed": {
    "_hex": "0xa674"
  },
  "miner": "0xe6A7a1d47ff21B6321162AEA7C6CB457D5476Bca",
  "extraData": "0x476574682f76312e302e312d38326566323666362f6c696e75782f676f312e34",
  "transactions": [
    {
      "hash": "0x11473c838a3999126de2fac77e8fa704b594971ad3996eb7935a23d5827d3cc3",
      "blockHash": "0x75a60c00cb19969aef5f741dcaf5acd33050a24d63689be25c28f297b93fa57f",
      "blockNumber": 91136,
      "transactionIndex": 0,
      "confirmations": null,
      "from": "0xaC8DfD54CaaD229b84d8c62889c43DE3fA4374dF",
      "gasPrice": {
        "_hex": "0xe283842a5"
      },
      "gasLimit": {
        "_hex": "0x30d40"
      },
      "to": "0x120A270bbC009644e35F0bB6ab13f95b8199c4ad",
      "value": {
        "_hex": "0xb78c7b16a39d55c"
      },
      "nonce": 0,
      "data": "0x",
      "r": "0xc29037a25f54fe3fb970be6a1aeef3db2af0428a58d9ad5ae361a185c7e0c500",
      "s": "0x0457102404b2250dd66bbf15555c6ce30f9933427211951d24067dab5443e6e3",
      "v": 28,
      "creates": null,
      "raw": "0xf86d80850e283842a583030d4094120a270bbc009644e35f0bb6ab13f95b8199c4ad880b78c7b16a39d55c801ca0c29037a25f54fe3fb970be6a1aeef3db2af0428a58d9ad5ae361a185c7e0c500a00457102404b2250dd66bbf15555c6ce30f9933427211951d24067dab5443e6e3",
      "networkId": 0,
      "chainId": 0
    },
    {
      "hash": "0xc36415c29d4c08298cd56de1595b8616a7739c5ec39367c60b98dc05433a6cb3",
      "blockHash": "0x75a60c00cb19969aef5f741dcaf5acd33050a24d63689be25c28f297b93fa57f",
      "blockNumber": 91136,
      "transactionIndex": 1,
      "confirmations": null,
      "from": "0xA2fe5fAEA931A4Fd9CAc31304072f3673770eD40",
      "gasPrice": {
        "_hex": "0xdb1c29017"
      },
      "gasLimit": {
        "_hex": "0x55f0"
      },
      "to": "0x2910543Af39abA0Cd09dBb2D50200b3E800A63D2",
      "value": {
        "_hex": "0x7ce66c50e2840000"
      },
      "nonce": 1,
      "data": "0x454e48313542575a30",
      "r": "0x99933fdcf0a3f2d71bbec94ad2d8e0b3fb7ffc1b88d641ca1818c6edb212496f",
      "s": "0x7d08639ec432a12197ef8b807df2a9df6823e356941fa85f139b9eb4b242b748",
      "v": 27,
      "creates": null,
      "raw": "0xf87501850db1c290178255f0942910543af39aba0cd09dbb2d50200b3e800a63d2887ce66c50e284000089454e48313542575a301ba099933fdcf0a3f2d71bbec94ad2d8e0b3fb7ffc1b88d641ca1818c6edb212496fa07d08639ec432a12197ef8b807df2a9df6823e356941fa85f139b9eb4b242b748",
      "networkId": 0,
      "chainId": 0
    }
  ]
}