{
  "hash": "0x13a2511766fac4027d0742f46e69cff40461cc607c1069059fe6b1b4abcc34d6",
  "parentHash": "0x9369e16e65f4622aaed010aecf182f5d8efa2efdd50fe77b52d92f537b2656f9",
  "number": 72142,
  "timestamp": 1439347955,
  "nonce": "0x1ad19d7d5b2e4f66",
  "difficulty": 2174921838448,
  "gasLimit": {
    "_hex": "0x2fefd8"
  },
  "gasUsed": {
    "_hex": "0x52ca7"
  },
  "miner": "0xf927a40C8B7F6E07c5af7FA2155B4864a4112B13",
  "extraData": "0x",
  "transactions": [
    {
      "hash": "0x078d93de319e5021b628e3926b91bfc4c1df3f829aa5cb537824ab76c3c2e71f",
      "blockHash": "0x13a2511766fac4027d0742f46e69cff40461cc607c1069059fe6b1b4abcc34d6",
      "blockNumber": 72142,
      "transactionIndex": 0,
      "confirmations": null,
      "from": "0x17580B766f7453525ca4C6A88b01b50570EA088C",
      "gasPrice": {
        "_hex": "0xd3a6846bb"
      },
      "gasLimit": {
        "_hex": "0x61a80"
      },
      "to": "0x5Fe5B7546D1628f7348B023A0393de1FC825A4fD",
      "value": {
        "_hex": "0x3782dace9d900000"
      },
      "nonce": 326,
      "data": "0xb595b8b50000000000000000000000000000000000000000000000000000000000000001",
      "r": "0xe7e8293d723dff7bc72155a549807cb8eb2379d5097713dc3821854a028686aa",
      "s": "0x2efc252ccd063d8c1898e1d93e905572239b8f915cfb70f8c3084e467ab56316",
      "v": 28,
      "creates": null,
      "raw": "0xf893820146850d3a6846bb83061a80945fe5b7546d1628f7348b023a0393de1fc825a4fd883782dace9d900000a4b595b8b500000000000000000000000000000000000000000000000000000000000000011ca0e7e8293d723dff7bc72155a549807cb8eb2379d5097713dc3821854a028686aaa02efc252ccd063d8c1898e1d93e905572239b8f915cfb70f8c3084e467ab56316",
      "networkId": 0,
      "chainId": 0
    },
    {
      "hash": "0x13cba3a6c151c19cce0778688fa644edec2f01dede3939512eb5dba185e37ccd",
      "blockHash": "0x13a2511766fac4027d0742f46e69cff40461cc607c1069059fe6b1b4abcc34d6",
      "blockNumber": 72142,
      "transactionIndex": 1,
      "confirmations": null,
      "from": "0x5eD8Cee6b63b1c6AFce3AD7c92f4fD7E1B8fAd9F",
      "gasPrice": {
        "_hex": "0xba43b7400"
      },
      "gasLimit": {
        "_hex": "0xf4240"
      },
      "to": null,
      "value": {
        "_hex": "0x0"
      },
      "nonce": 2,
      "data": "0x7323a1bada327be1da636cf6c31f71349e3ea0ba0060005573288bbeb76a509947f3ea8c56e9b86d81f3b41897600155735ed8cee6b63b1c6afce3ad7c92f4fd7e1b8fad9f6002556003610100556102e28061005c60003961033e5660006102ff537c01000000000000000000000000000000000000000000000000000000006000350463403147b68114156100ae573659905901600090523660048237600435606052602435608052506101015460a0526060516060606059905901600090526002815260a05181602001526000816040015280905020556080516060606059905901600090526002815260a0518160200152600381604001528090502055600160a05101610101555b63a42c4de78114156102e057600435610100526024356101205261010051543314156102df576101005160020a6060606059905901600090526002815261012051816020015260018160400152809050205416610140526101405115156102de576101005160020a6060606059905901600090526002815261012051816020015260018160400152809050205417606060605990590160009052600281526101205181602001526001816040015280905020556001606060605990590160009052600281526101205181602001526002816040015280905020540160606060599059016000905260028152610120518160200152600281604001528090502055600261010054056060606059905901600090526002815261012051816020015260028160400152809050205413156102dd5760606060599059016000905260028152610120518160200152600081604001528090502054610220526000610220511415610240576060606059905901600090526002815261012051816020015260038160400152809050205460006000a15b6000606060605990590160009052600281526101205181602001526000816040015280905020556000606060605990590160009052600281526101205181602001526001816040015280905020556000606060605990590160009052600281526101205181602001526002816040015280905020556000606060605990590160009052600281526101205181602001526003816040015280905020555b5b5b5b505b6000f3",
      "r": "0x2a20ccbedbaa4da742ee2ff3cfadb3c48b1fd41c4fd677c89399033f01b8bdd6",
      "s": "0x78f7a4dff1a21c1ad15bc9bc07d1a740ff8665ee98b067df98655bca2e8ef63e",
      "v": 27,
      "creates": "0x209711382EAEb6C1e021e0fc81ACC5AfA9B23D25",
      "raw": "0xf9039502850ba43b7400830f42408080b903427323a1bada327be1da636cf6c31f71349e3ea0ba0060005573288bbeb76a509947f3ea8c56e9b86d81f3b41897600155735ed8cee6b63b1c6afce3ad7c92f4fd7e1b8fad9f6002556003610100556102e28061005c60003961033e5660006102ff537c01000000000000000000000000000000000000000000000000000000006000350463403147b68114156100ae573659905901600090523660048237600435606052602435608052506101015460a0526060516060606059905901600090526002815260a05181602001526000816040015280905020556080516060606059905901600090526002815260a0518160200152600381604001528090502055600160a05101610101555b63a42c4de78114156102e057600435610100526024356101205261010051543314156102df576101005160020a6060606059905901600090526002815261012051816020015260018160400152809050205416610140526101405115156102de576101005160020a6060606059905901600090526002815261012051816020015260018160400152809050205417606060605990590160009052600281526101205181602001526001816040015280905020556001606060605990590160009052600281526101205181602001526002816040015280905020540160606060599059016000905260028152610120518160200152600281604001528090502055600261010054056060606059905901600090526002815261012051816020015260028160400152809050205413156102dd5760606060599059016000905260028152610120518160200152600081604001528090502054610220526000610220511415610240576060606059905901600090526002815261012051816020015260038160400152809050205460006000a15b6000606060605990590160009052600281526101205181602001526000816040015280905020556000606060605990590160009052600281526101205181602001526001816040015280905020556000606060605990590160009052600281526101205181602001526002816040015280905020556000606060605990590160009052600281526101205181602001526003816040015280905020555b5b5b5b505b6000f31ba02a20ccbedbaa4da742ee2ff3cfadb3c48b1fd41c4fd677c89399033f01b8bdd6a078f7a4dff1a21c1ad15bc9bc07d1a740ff8665ee98b067df98655bca2e8ef63e",
      "networkId": 0,
      "chainId": 0
    }
  ]
}