{
  "hash": "0xef930a369b5acf89168dee80f10e06aecbfc14b36f0230e5d2be3fa5bd90ea1c",
  "parentHash": "0xa38006b0d761e2e62f1c71c1b8707c0dae42bf0af99634be88ea58b01b47ec70",
  "number": 71012,
  "timestamp": 1439329024,
  "nonce": "0x1da1509d785f8dc5",
  "difficulty": 2158287176861,
  "gasLimit": {
    "_hex": "0x2fefd8"
  },
  "gasUsed": {
    "_hex": "0x9400"
  },
  "miner": "0x88D74a59454F6cF3B51ef6b9136AFb6b9D405A88",
  "extraData": "0x476574682f76312e302e312d37666266393930632f6c696e75782f676f312e34",
  "transactions": [
    {
      "hash": "0x1ca5ae2fd6cba5e17b4bd6d5de601564c054d01244b30206ff504b7afe936c90",
      "blockHash": "0xef930a369b5acf89168dee80f10e06aecbfc14b36f0230e5d2be3fa5bd90ea1c",
      "blockNumber": 71012,
      "transactionIndex": 0,
      "confirmations": null,
      "from": "0x17580B766f7453525ca4C6A88b01b50570EA088C",
      "gasPrice": {
        "_hex": "0xdc6492af5"
      },
      "gasLimit": {
        "_hex": "0x61a80"
      },
      "to": "0x5Fe5B7546D1628f7348B023A0393de1FC825A4fD",
      "value": {
        "_hex": "0x3782dace9d900000"
      },
      "nonce": 78,
      "data": "0xb595b8b50000000000000000000000000000000000000000000000000000000000000001",
      "r": "0x9ab914fbbc4618a9862a80cff950ed63da562901360d8275f4895ae64de0b340",
      "s": "0x654be6d09c41c8d7b1a945c7b1d0efe2a7e7cd76c69361a916c05a5303b3850e",
      "v": 27,
      "creates": null,
      "raw": "0xf8914e850dc6492af583061a80945fe5b7546d1628f7348b023a0393de1fc825a4fd883782dace9d900000a4b595b8b500000000000000000000000000000000000000000000000000000000000000011ba09ab914fbbc4618a9862a80cff950ed63da562901360d8275f4895ae64de0b340a0654be6d09c41c8d7b1a945c7b1d0efe2a7e7cd76c69361a916c05a5303b3850e",
      "networkId": 0,
      "chainId": 0
    }
  ]
}