{
  "hash": "0xe64484d2c95ade3fb533db84f0c58f49bf0eab8c61f4399015053b19a2a65a32",
  "parentHash": "0x0edc3dd1659a688fe94f8dc669b9f1a7ea8264f1bf16c79c6039499a2295a044",
  "number": 47189,
  "timestamp": 1438935790,
  "nonce": "0xcef2b66b929998db",
  "difficulty": 1460952206542,
  "gasLimit": {
    "_hex": "0xa0f4"
  },
  "gasUsed": {
    "_hex": "0x5208"
  },
  "miner": "0xeB1325C8D9d3ea8D74aC11F4B00F1B2367686319",
  "extraData": "0x476574682f76312e302e312f77696e646f77732f676f312e342e32",
  "transactions": [
    {
      "hash": "0xcd1f11559ef7613cc1431b50bfc49f499787c597286f42373793ac14c30ca50d",
      "blockHash": "0xe64484d2c95ade3fb533db84f0c58f49bf0eab8c61f4399015053b19a2a65a32",
      "blockNumber": 47189,
      "transactionIndex": 0,
      "confirmations": null,
      "from": "0xe6A7a1d47ff21B6321162AEA7C6CB457D5476Bca",
      "gasPrice": {
        "_hex": "0xcf42b0e41"
      },
      "gasLimit": {
        "_hex": "0x5208"
      },
      "to": "0x3456Bd3314021ed46E104c9011eE5187C9eA46e0",
      "value": {
        "_hex": "0x50144d91c0aa2dd8"
      },
      "nonce": 70,
      "data": "0x",
      "r": "0x6e8b4ae03bb32e629673aa21bde651e7e07a8bff06b90fa5e13fc257075cf36c",
      "s": "0x6f44e87fd2e295a2db4321833b0c2f373d29595136a1bfff26caa7fbdbfe04d5",
      "v": 28,
      "creates": null,
      "raw": "0xf86c46850cf42b0e41825208943456bd3314021ed46e104c9011ee5187c9ea46e08850144d91c0aa2dd8801ca06e8b4ae03bb32e629673aa21bde651e7e07a8bff06b90fa5e13fc257075cf36ca06f44e87fd2e295a2db4321833b0c2f373d29595136a1bfff26caa7fbdbfe04d5",
      "networkId": 0,
      "chainId": 0
    }
  ]
}