{
  "hash": "0xb774d2450c852dfa41f738272d44ec37d7042e4d657aabdc22db871ba46e2fa9",
  "parentHash": "0x602c15be2875bdf477fd5059340df59e60453cda4f2a72c3bfb807332fd87b4e",
  "number": 94553,
  "timestamp": 1439710142,
  "nonce": "0x2c4686856c5fc5a2",
  "difficulty": 3505389476387,
  "gasLimit": {
    "_hex": "0x2fefd8"
  },
  "gasUsed": {
    "_hex": "0xa410"
  },
  "miner": "0xf927a40C8B7F6E07c5af7FA2155B4864a4112B13",
  "extraData": "0x",
  "transactions": [
    {
      "hash": "0x2676263bc885874f9cf32ce1d93f0491992996b77fb8af8fdfeded8c19841107",
      "blockHash": "0xb774d2450c852dfa41f738272d44ec37d7042e4d657aabdc22db871ba46e2fa9",
      "blockNumber": 94553,
      "transactionIndex": 0,
      "confirmations": null,
      "from": "0xa6BDc31c431B8F97848c9D60cbbe9660dc450eB7",
      "gasPrice": {
        "_hex": "0xd2324c07d"
      },
      "gasLimit": {
        "_hex": "0x5208"
      },
      "to": "0x32Be343B94f860124dC4fEe278FDCBD38C102D88",
      "value": {
        "_hex": "0x8ac2ed592e43f000"
      },
      "nonce": 109,
      "data": "0x",
      "r": "0x1ab7ac142894f772fad69583384d5a10c0521f2e6636cc140e7773f5287c44f9",
      "s": "0x0336a86c6c62b3766edefa02f44c05057e366737477c93b2a68cc085ce71b636",
      "v": 27,
      "creates": null,
      "raw": "0xf86c6d850d2324c07d8252089432be343b94f860124dc4fee278fdcbd38c102d88888ac2ed592e43f000801ba01ab7ac142894f772fad69583384d5a10c0521f2e6636cc140e7773f5287c44f9a00336a86c6c62b3766edefa02f44c05057e366737477c93b2a68cc085ce71b636",
      "networkId": 0,
      "chainId": 0
    },
    {
      "hash": "0xc25a572b24bdb6a849bd01d7475915c8f890f2b071b73687161c2184436919f1",
      "blockHash": "0xb774d2450c852dfa41f738272d44ec37d7042e4d657aabdc22db871ba46e2fa9",
      "blockNumber": 94553,
      "transactionIndex": 1,
      "confirmations": null,
      "from": "0x193bB9b5E9b6099FB6c33DBb5CcDA4AC18ed14D7",
      "gasPrice": {
        "_hex": "0xd2324c07d"
      },
      "gasLimit": {
        "_hex": "0x5208"
      },
      "to": "0x32Be343B94f860124dC4fEe278FDCBD38C102D88",
      "value": {
        "_hex": "0xad766ffbcfabb0000"
      },
      "nonce": 3,
      "data": "0x",
      "r": "0x3e7db2595a7144adbf932a1222585f1f103d1ea2cb59a46f72f5801ac513f489",
      "s": "0x24087220cb4bda1fe887bb7d03919411f6038458a0c825bcd479ff8ab30cf2d7",
      "v": 28,
      "creates": null,
      "raw": "0xf86d03850d2324c07d8252089432be343b94f860124dc4fee278fdcbd38c102d88890ad766ffbcfabb0000801ca03e7db2595a7144adbf932a1222585f1f103d1ea2cb59a46f72f5801ac513f489a024087220cb4bda1fe887bb7d03919411f6038458a0c825bcd479ff8ab30cf2d7",
      "networkId": 0,
      "chainId": 0
    }
  ]
}