{
  "hash": "0x6db504a526e6d78739502e7795bf9c41a2ebde095e68c11812868c8b08978d3a",
  "parentHash": "0xb65bc1d2800e110be323f6c4914c4119a28e777b818209a901243281235b3535",
  "number": 68494,
  "timestamp": 1439288777,
  "nonce": "0x78035c9a7f32668a",
  "difficulty": 2010384574445,
  "gasLimit": {
    "_hex": "0x2fefd8"
  },
  "gasUsed": {
    "_hex": "0x19a28"
  },
  "miner": "0x88D74a59454F6cF3B51ef6b9136AFb6b9D405A88",
  "extraData": "0x476574682f76312e302e312d37666266393930632f6c696e75782f676f312e34",
  "transactions": [
    {
      "hash": "0xa7b66d12cfc6aad5d9a4257d2a129d0cffa9d34957365bcac60c183db1ee8097",
      "blockHash": "0x6db504a526e6d78739502e7795bf9c41a2ebde095e68c11812868c8b08978d3a",
      "blockNumber": 68494,
      "transactionIndex": 0,
      "confirmations": null,
      "from": "0xD999fF61642c021C0b36c3fCE17F636B8390e464",
      "gasPrice": {
        "_hex": "0xba43b7400"
      },
      "gasLimit": {
        "_hex": "0x5208"
      },
      "to": "0xC3d8FD925aBd21f3EDDeE6fC1afaA4513275E8C2",
      "value": {
        "_hex": "0x7c58ada8ff2000"
      },
      "nonce": 1,
      "data": "0x",
      "r": "0x7563553321cb480f7c27485ab7064f4e00a0cead0b653c19bdeab092de86bddf",
      "s": "0x613f400bba47a1ddf58e552c4eca6ba29162931f12a6832c54286a099b2b84d7",
      "v": 28,
      "creates": null,
      "raw": "0xf86b01850ba43b740082520894c3d8fd925abd21f3eddee6fc1afaa4513275e8c2877c58ada8ff2000801ca07563553321cb480f7c27485ab7064f4e00a0cead0b653c19bdeab092de86bddfa0613f400bba47a1ddf58e552c4eca6ba29162931f12a6832c54286a099b2b84d7",
      "networkId": 0,
      "chainId": 0
    },
    {
      "hash": "0x9eb18d8cd040634b717d5c7d76db70fd521ad59fa70d9eaaa8a2ec3e44b71cff",
      "blockHash": "0x6db504a526e6d78739502e7795bf9c41a2ebde095e68c11812868c8b08978d3a",
      "blockNumber": 68494,
      "transactionIndex": 1,
      "confirmations": null,
      "from": "0x6747f922385c9a6F9cfDf095F34345257DD597bE",
      "gasPrice": {
        "_hex": "0xba43b7400"
      },
      "gasLimit": {
        "_hex": "0x5208"
      },
      "to": "0x2bF85cD052884B7879aB1C3672BB8F226599A15a",
      "value": {
        "_hex": "0x1fcbfa42bd6000"
      },
      "nonce": 110,
      "data": "0x",
      "r": "0x574321f49bf566f9a4f2d4e0d4c9fda8224617a8a7edd8a1220c91865261e0ae",
      "s": "0x4fdec4bd8a4fa012fc9bb8c40170350cac27f3cf1605b98aa4eeb4885d11fd26",
      "v": 27,
      "creates": null,
      "raw": "0xf86b6e850ba43b7400825208942bf85cd052884b7879ab1c3672bb8f226599a15a871fcbfa42bd6000801ba0574321f49bf566f9a4f2d4e0d4c9fda8224617a8a7edd8a1220c91865261e0aea04fdec4bd8a4fa012fc9bb8c40170350cac27f3cf1605b98aa4eeb4885d11fd26",
      "networkId": 0,
      "chainId": 0
    },
    {
      "hash": "0x30ce5db0f6e0a52263e808d2a7ad28f8e816dc7a108bf85c86966edb6b32f835",
      "blockHash": "0x6db504a526e6d78739502e7795bf9c41a2ebde095e68c11812868c8b08978d3a",
      "blockNumber": 68494,
      "transactionIndex": 2,
      "confirmations": null,
      "from": "0xe2717a9c20e462eA9bE2108B3C96618CA442CAe3",
      "gasPrice": {
        "_hex": "0xba43b7400"
      },
      "gasLimit": {
        "_hex": "0x5208"
      },
      "to": "0x8c0A7EcC685daE69b125a6Afdd33726299728fAD",
      "value": {
        "_hex": "0x7c58ada8ff2000"
      },
      "nonce": 1,
      "data": "0x",
      "r": "0xe0b6bbbd6f980bb670cd66846d67b67ca7262a9e391a4a963c7d33403afc3449",
      "s": "0x30ad8342c4658072081e1949af2fbd3c7e3e59b5841a85f7133fdad998db2bfa",
      "v": 28,
      "creates": null,
      "raw": "0xf86b01850ba43b7400825208948c0a7ecc685dae69b125a6afdd33726299728fad877c58ada8ff2000801ca0e0b6bbbd6f980bb670cd66846d67b67ca7262a9e391a4a963c7d33403afc3449a030ad8342c4658072081e1949af2fbd3c7e3e59b5841a85f7133fdad998db2bfa",
      "networkId": 0,
      "chainId": 0
    },
    {
      "hash": "0xe1d7fa1db65d47a5be50c82645d78f5baaa4287b2c236c25807bd6a1eef6255d",
      "blockHash": "0x6db504a526e6d78739502e7795bf9c41a2ebde095e68c11812868c8b08978d3a",
      "blockNumber": 68494,
      "transactionIndex": 3,
      "confirmations": null,
      "from": "0x0DFD188B256f89c93d3c511e537c510e70eBEc75",
      "gasPrice": {
        "_hex": "0xba43b7400"
      },
      "gasLimit": {
        "_hex": "0x5208"
      },
      "to": "0xE70bb002A9A312478bB1C044ca5C3f36CBAa1D89",
      "value": {
        "_hex": "0x7c58ada8ff2000"
      },
      "nonce": 1,
      "data": "0x",
      "r": "0xbb4cfebd954f76687f111d0299f264ac9624adfac77b4c880f459b6a701b95a1",
      "s": "0x0289874088d48bfcd12ebc763fcc39c3d8a890fe91bace3f92d73c7607918936",
      "v": 27,
      "creates": null,
      "raw": "0xf86b01850ba43b740082520894e70bb002a9a312478bb1c044ca5c3f36cbaa1d89877c58ada8ff2000801ba0bb4cfebd954f76687f111d0299f264ac9624adfac77b4c880f459b6a701b95a1a00289874088d48bfcd12ebc763fcc39c3d8a890fe91bace3f92d73c7607918936",
      "networkId": 0,
      "chainId": 0
    },
    {
      "hash": "0x8cb1b65b151be1a4c44dfbdf5bd4b9f26372462b92b9998220b8d10feee0d838",
      "blockHash": "0x6db504a526e6d78739502e7795bf9c41a2ebde095e68c11812868c8b08978d3a",
      "blockNumber": 68494,
      "transactionIndex": 4,
      "confirmations": null,
      "from": "0x535ef2C10CF40511670CcD5728680C36317d4dc2",
      "gasPrice": {
        "_hex": "0xba43b7400"
      },
      "gasLimit": {
        "_hex": "0x5208"
      },
      "to": "0x6F46E2353028A6EE46c11437324E394F60c53bE8",
      "value": {
        "_hex": "0x7c58ada8ff2000"
      },
      "nonce": 1,
      "data": "0x",
      "r": "0x028ea9dd248a099852f4ce978dbde26c8b33b5f569ad6b7ead4289feeb35cb85",
      "s": "0x38ebd24f0a1513b8b59dd475f86fcbedfd97e2a688bd5429d99591cfa3584a94",
      "v": 27,
      "creates": null,
      "raw": "0xf86b01850ba43b7400825208946f46e2353028a6ee46c11437324e394f60c53be8877c58ada8ff2000801ba0028ea9dd248a099852f4ce978dbde26c8b33b5f569ad6b7ead4289feeb35cb85a038ebd24f0a1513b8b59dd475f86fcbedfd97e2a688bd5429d99591cfa3584a94",
      "networkId": 0,
      "chainId": 0
    }
  ]
}