{
  "hash": "0xa1ff9e0b10b77b62d7da114984f15caea37c4d2738f074a7d67635b53a744769",
  "parentHash": "0xb7762d64ee9269e7ac89b4753f4a4040bbb911954de379c1f25242884385e22a",
  "number": 64643,
  "timestamp": 1439224066,
  "nonce": "0x4fc83a99887c4b5d",
  "difficulty": 1886682999632,
  "gasLimit": {
    "_hex": "0x2fefd8"
  },
  "gasUsed": {
    "_hex": "0x4e5e0"
  },
  "miner": "0xbb7B8287f3F0a933474a79eAe42CBCa977791171",
  "extraData": "0x476574682f4c5649562f76312e302e312f6c696e75782f676f312e342e32",
  "transactions": [
    {
      "hash": "0x328ebbed78a5755c13cd1f0ebe17467f6f60a661e8c5a584157b092a944c5342",
      "blockHash": "0xa1ff9e0b10b77b62d7da114984f15caea37c4d2738f074a7d67635b53a744769",
      "blockNumber": 64643,
      "transactionIndex": 0,
      "confirmations": null,
      "from": "0x7C642150b0E8052316A3869337c65Cc361135b74",
      "gasPrice": {
        "_hex": "0xba43b7400"
      },
      "gasLimit": {
        "_hex": "0x15f90"
      },
      "to": "0x793AE8C1b1a160BFc07BFB0d04F85eab1A71F4f2",
      "value": {
        "_hex": "0x0"
      },
      "nonce": 0,
      "data": "0x3ba15036",
      "r": "0xb70eb7acad2e922c581938f138076c043f5bebd1783eaed37b8d12d050ce61e1",
      "s": "0x41c14d629b598e591c4e682c3534abd35d21891761234b9e44e10698f1ab5acc",
      "v": 27,
      "creates": null,
      "raw": "0xf86980850ba43b740083015f9094793ae8c1b1a160bfc07bfb0d04f85eab1a71f4f280843ba150361ba0b70eb7acad2e922c581938f138076c043f5bebd1783eaed37b8d12d050ce61e1a041c14d629b598e591c4e682c3534abd35d21891761234b9e44e10698f1ab5acc",
      "networkId": 0,
      "chainId": 0
    },
    {
      "hash": "0xa987bb5ce7bfa9c8aa094523802380a35bb1f92349f5f941059dc2ee656170e8",
      "blockHash": "0xa1ff9e0b10b77b62d7da114984f15caea37c4d2738f074a7d67635b53a744769",
      "blockNumber": 64643,
      "transactionIndex": 1,
      "confirmations": null,
      "from": "0xe438FC467FBa78a8A2e7b856da6114fE045aA62B",
      "gasPrice": {
        "_hex": "0xba43b7400"
      },
      "gasLimit": {
        "_hex": "0x5208"
      },
      "to": "0x8C20d15E45dD95A2478C5aB0a53Fb69fddA98c3C",
      "value": {
        "_hex": "0xd8e5610f40e000"
      },
      "nonce": 1,
      "data": "0x",
      "r": "0x8a5224b02f6e8d025f8c94c3fc3f96b75acb2b73934ba202b69463feb63f5d0c",
      "s": "0x59729d146d83141318b4c641445c9d25feee9e27b8081b4042f01a5b0169179f",
      "v": 27,
      "creates": null,
      "raw": "0xf86b01850ba43b7400825208948c20d15e45dd95a2478c5ab0a53fb69fdda98c3c87d8e5610f40e000801ba08a5224b02f6e8d025f8c94c3fc3f96b75acb2b73934ba202b69463feb63f5d0ca059729d146d83141318b4c641445c9d25feee9e27b8081b4042f01a5b0169179f",
      "networkId": 0,
      "chainId": 0
    },
    {
      "hash": "0x08fab841608d3f7102bd925dc84d4219147a2e5c0ce1e3498861e11c1a1978af",
      "blockHash": "0xa1ff9e0b10b77b62d7da114984f15caea37c4d2738f074a7d67635b53a744769",
      "blockNumber": 64643,
      "transactionIndex": 2,
      "confirmations": null,
      "from": "0x646d2cE09D7a666d4FF2f9BB52b6100B796588AD",
      "gasPrice": {
        "_hex": "0xba43b7400"
      },
      "gasLimit": {
        "_hex": "0x5208"
      },
      "to": "0x7b8364a1B071d6742273aaff604ed5B56703e4d0",
      "value": {
        "_hex": "0xaa9f075c200000"
      },
      "nonce": 1,
      "data": "0x",
      "r": "0x25c5a46f5d6e8d8541d1b6f8bffdb815a5971a2cf003365237c060f1e5f59940",
      "s": "0x023630e5d8518794ff45b7f8aec8983120852a4b04de6f71efa4079539d310c4",
      "v": 28,
      "creates": null,
      "raw": "0xf86b01850ba43b7400825208947b8364a1b071d6742273aaff604ed5b56703e4d087aa9f075c200000801ca025c5a46f5d6e8d8541d1b6f8bffdb815a5971a2cf003365237c060f1e5f59940a0023630e5d8518794ff45b7f8aec8983120852a4b04de6f71efa4079539d310c4",
      "networkId": 0,
      "chainId": 0
    },
    {
      "hash": "0x1170e6257b906e8ce8f599a948fdf7e19cfda5ec38f75958044970cc883710da",
      "blockHash": "0xa1ff9e0b10b77b62d7da114984f15caea37c4d2738f074a7d67635b53a744769",
      "blockNumber": 64643,
      "transactionIndex": 3,
      "confirmations": null,
      "from": "0x26E365bA787fFd7096B2BA99a007b600A2Aa7311",
      "gasPrice": {
        "_hex": "0xba43b7400"
      },
      "gasLimit": {
        "_hex": "0x15f90"
      },
      "to": "0x793AE8C1b1a160BFc07BFB0d04F85eab1A71F4f2",
      "value": {
        "_hex": "0x0"
      },
      "nonce": 0,
      "data": "0x3ba15036",
      "r": "0x621af1937a6f0372c96378ab00d5f9f9ae0fa2fb66b8e4b1429bf5e4ca48b82b",
      "s": "0x730f07b0c738a8e6725df3aca35d6b03427de285fff331c45d3664bd4fc16769",
      "v": 28,
      "creates": null,
      "raw": "0xf86980850ba43b740083015f9094793ae8c1b1a160bfc07bfb0d04f85eab1a71f4f280843ba150361ca0621af1937a6f0372c96378ab00d5f9f9ae0fa2fb66b8e4b1429bf5e4ca48b82ba0730f07b0c738a8e6725df3aca35d6b03427de285fff331c45d3664bd4fc16769",
      "networkId": 0,
      "chainId": 0
    },
    {
      "hash": "0x6c640842cc524529ee9e58241ecb59d63ef5833227d35f316bdabd7ddc9b67b0",
      "blockHash": "0xa1ff9e0b10b77b62d7da114984f15caea37c4d2738f074a7d67635b53a744769",
      "blockNumber": 64643,
      "transactionIndex": 4,
      "confirmations": null,
      "from": "0x1c914c3D59635fae955e2eB1Ba114346635AE4F3",
      "gasPrice": {
        "_hex": "0xba43b7400"
      },
      "gasLimit": {
        "_hex": "0x5208"
      },
      "to": "0xe9F45014eA31803Fd2D4Ca28B4cE05631C7F443E",
      "value": {
        "_hex": "0xf0088de8d15000"
      },
      "nonce": 1,
      "data": "0x",
      "r": "0x56e6ed8cc19119ab9007651ad111b4625233b229573796db250e451f0b1cfc42",
      "s": "0x00b8562d201e4cc990b318dfa461ae04a9c9e50472a23153193f9e8395e88c21",
      "v": 27,
      "creates": null,
      "raw": "0xf86a01850ba43b740082520894e9f45014ea31803fd2d4ca28b4ce05631c7f443e87f0088de8d15000801ba056e6ed8cc19119ab9007651ad111b4625233b229573796db250e451f0b1cfc429fb8562d201e4cc990b318dfa461ae04a9c9e50472a23153193f9e8395e88c21",
      "networkId": 0,
      "chainId": 0
    },
    {
      "hash": "0xbd88ed961f358b1ffc72377f1ef8e9718189f725c86c5b007dfd3df4dcfdadec",
      "blockHash": "0xa1ff9e0b10b77b62d7da114984f15caea37c4d2738f074a7d67635b53a744769",
      "blockNumber": 64643,
      "transactionIndex": 5,
      "confirmations": null,
      "from": "0x2A7B74289D69f49B0405e8Af3EFa592BAA0fd8EB",
      "gasPrice": {
        "_hex": "0xba43b7400"
      },
      "gasLimit": {
        "_hex": "0x5208"
      },
      "to": "0x016bF4b9c1eAAC343841aD78aF9a553BE14EDa3A",
      "value": {
        "_hex": "0x7c58ada8ff2000"
      },
      "nonce": 1,
      "data": "0x",
      "r": "0x333b22a73d9d19224828dbd90278cac94434dbdc292c88cc1212055efafe6575",
      "s": "0x5b588bec5ab42acb667a05553b04356a96b147a899db4fed50479c48922d5b8c",
      "v": 27,
      "creates": null,
      "raw": "0xf86b01850ba43b740082520894016bf4b9c1eaac343841ad78af9a553be14eda3a877c58ada8ff2000801ba0333b22a73d9d19224828dbd90278cac94434dbdc292c88cc1212055efafe6575a05b588bec5ab42acb667a05553b04356a96b147a899db4fed50479c48922d5b8c",
      "networkId": 0,
      "chainId": 0
    },
    {
      "hash": "0xa716f44b163a135936e76d044b81fb9018f0732a4d2783f6a93986bd9009dc7e",
      "blockHash": "0xa1ff9e0b10b77b62d7da114984f15caea37c4d2738f074a7d67635b53a744769",
      "blockNumber": 64643,
      "transactionIndex": 6,
      "confirmations": null,
      "from": "0x7A8EdD2c042b921315AeA0Db2f3Fee621e13C0DE",
      "gasPrice": {
        "_hex": "0xba43b7400"
      },
      "gasLimit": {
        "_hex": "0x15f90"
      },
      "to": "0x793AE8C1b1a160BFc07BFB0d04F85eab1A71F4f2",
      "value": {
        "_hex": "0x0"
      },
      "nonce": 0,
      "data": "0x3ba15036",
      "r": "0xd8186496ebe2199386deee0a913386aec9e97b718a6eb985417b6c69f67b0b2a",
      "s": "0x05260a306051df16487c1a1f6e4a8bc05dc3f9c7c23757a75af1892f3bc75086",
      "v": 27,
      "creates": null,
      "raw": "0xf86980850ba43b740083015f9094793ae8c1b1a160bfc07bfb0d04f85eab1a71f4f280843ba150361ba0d8186496ebe2199386deee0a913386aec9e97b718a6eb985417b6c69f67b0b2aa005260a306051df16487c1a1f6e4a8bc05dc3f9c7c23757a75af1892f3bc75086",
      "networkId": 0,
      "chainId": 0
    },
    {
      "hash": "0xb0773229141983101721a85ad391dc5ab6e2292dbacfe831a647225a034d9348",
      "blockHash": "0xa1ff9e0b10b77b62d7da114984f15caea37c4d2738f074a7d67635b53a744769",
      "blockNumber": 64643,
      "transactionIndex": 7,
      "confirmations": null,
      "from": "0x468A38bCA5f3c6C36d959caFa2C4908A30989352",
      "gasPrice": {
        "_hex": "0xba43b7400"
      },
      "gasLimit": {
        "_hex": "0x5208"
      },
      "to": "0xC0Af7a3B03D577f1006FAc9391223f2FAE5262bf",
      "value": {
        "_hex": "0x653580cf6eb000"
      },
      "nonce": 1,
      "data": "0x",
      "r": "0x8ebac0f3142c100fb0dde3f6ed8a2a5899c9c2021d1b5eee008e2d38115566e0",
      "s": "0x7b92b5e2c3f5242df8c716ca5e43f26bf31e190e9d9715d9ad95b304e66ed93d",
      "v": 28,
      "creates": null,
      "raw": "0xf86b01850ba43b740082520894c0af7a3b03d577f1006fac9391223f2fae5262bf87653580cf6eb000801ca08ebac0f3142c100fb0dde3f6ed8a2a5899c9c2021d1b5eee008e2d38115566e0a07b92b5e2c3f5242df8c716ca5e43f26bf31e190e9d9715d9ad95b304e66ed93d",
      "networkId": 0,
      "chainId": 0
    },
    {
      "hash": "0xbcf31cf20483340c3d5933f22406393a63273bcaf13ed8f5933c9232b28ce18f",
      "blockHash": "0xa1ff9e0b10b77b62d7da114984f15caea37c4d2738f074a7d67635b53a744769",
      "blockNumber": 64643,
      "transactionIndex": 8,
      "confirmations": null,
      "from": "0x6bBf1f700fAAd9da910C0e8234CD2F1a3BeA6105",
      "gasPrice": {
        "_hex": "0xba43b7400"
      },
      "gasLimit": {
        "_hex": "0x15f90"
      },
      "to": "0x793AE8C1b1a160BFc07BFB0d04F85eab1A71F4f2",
      "value": {
        "_hex": "0x0"
      },
      "nonce": 0,
      "data": "0x3ba15036",
      "r": "0x8308c757d1344dab2516fc5d9c22cc6c6e6bb4c3a7651f2cc8a03ed33997afe2",
      "s": "0x0373a157003f86540a51ebbf685f913009524f94ea2a174f1c28daaf13ff7ed8",
      "v": 27,
      "creates": null,
      "raw": "0xf86980850ba43b740083015f9094793ae8c1b1a160bfc07bfb0d04f85eab1a71f4f280843ba150361ba08308c757d1344dab2516fc5d9c22cc6c6e6bb4c3a7651f2cc8a03ed33997afe2a00373a157003f86540a51ebbf685f913009524f94ea2a174f1c28daaf13ff7ed8",
      "networkId": 0,
      "chainId": 0
    },
    {
      "hash": "0x956deba39c133fef1f434e8982eb1a638f43e08410463ce59284ef87409082e0",
      "blockHash": "0xa1ff9e0b10b77b62d7da114984f15caea37c4d2738f074a7d67635b53a744769",
      "blockNumber": 64643,
      "transactionIndex": 9,
      "confirmations": null,
      "from": "0x23aFc83CF20C1B7714Db5223f8b0edE6E6FF0AEc",
      "gasPrice": {
        "_hex": "0xba43b7400"
      },
      "gasLimit": {
        "_hex": "0x5208"
      },
      "to": "0x87f859afE55E55Fc86e647c75aC99662a455A949",
      "value": {
        "_hex": "0xd8e5610f40e000"
      },
      "nonce": 1,
      "data": "0x",
      "r": "0xf78ca25e49d62a6d75cc69f4b545c3f3f5588ac53c62b0217a2216ae2bc3838e",
      "s": "0x1e0a98b17000d31769b8469fa6874d45386d5b75f5c340d32478c0abc148f03b",
      "v": 27,
      "creates": null,
      "raw": "0xf86b01850ba43b74008252089487f859afe55e55fc86e647c75ac99662a455a94987d8e5610f40e000801ba0f78ca25e49d62a6d75cc69f4b545c3f3f5588ac53c62b0217a2216ae2bc3838ea01e0a98b17000d31769b8469fa6874d45386d5b75f5c340d32478c0abc148f03b",
      "networkId": 0,
      "chainId": 0
    }
  ]
}