{
  "hash": "0x987f5beab6c03165c6fdd815fb5e8b5fef863ac3cb22eec51a2f6c30f4d9cf7e",
  "parentHash": "0x5ae0e3bd09116761efb2513b57a33bed1aa76558d456311c1f830bc4788de89d",
  "number": 109824,
  "timestamp": 1439963094,
  "nonce": "0x6a33abe8936a69d7",
  "difficulty": 4429652115304,
  "gasLimit": {
    "_hex": "0x2fefd8"
  },
  "gasUsed": {
    "_hex": "0x5208"
  },
  "miner": "0xaB638742EBe3A78F2a85028350e1AADB86C0a6ed",
  "extraData": "0x",
  "transactions": [
    {
      "hash": "0x4de1d543e502ecd29d42b99234b6c7c7de52945b3ce7e3936ce27c9cf3118fe5",
      "blockHash": "0x987f5beab6c03165c6fdd815fb5e8b5fef863ac3cb22eec51a2f6c30f4d9cf7e",
      "blockNumber": 109824,
      "transactionIndex": 0,
      "confirmations": null,
      "from": "0x60a175bB691fEE8557a7b6D8eFC9E49889486f41",
      "gasPrice": {
        "_hex": "0xd9c7ed616"
      },
      "gasLimit": {
        "_hex": "0x15f90"
      },
      "to": "0xBb7f43EDfd8bf08B022fEd5BD91e3f9dE7e74D09",
      "value": {
        "_hex": "0x8ac7230489e80000"
      },
      "nonce": 11,
      "data": "0x",
      "r": "0x4c0c282000023f7c127e32d6edb079bee2a1ddc46e27bf19d9775481f8529c21",
      "s": "0x313d89863f086acde0c8fd0cdcfd3b2beb2e2e098b4941b440aab8a65101fa7b",
      "v": 27,
      "creates": null,
      "raw": "0xf86d0b850d9c7ed61683015f9094bb7f43edfd8bf08b022fed5bd91e3f9de7e74d09888ac7230489e80000801ba04c0c282000023f7c127e32d6edb079bee2a1ddc46e27bf19d9775481f8529c21a0313d89863f086acde0c8fd0cdcfd3b2beb2e2e098b4941b440aab8a65101fa7b",
      "networkId": 0,
      "chainId": 0
    }
  ]
}