{
  "hash": "0x99cac7ba223b8c21e1aaf247692242b23de12f9b08e6f12cad0cbd2d00caa20b",
  "parentHash": "0xf47757d33496cb8342a39deec74a7839380e8849d21c12d62f11ef785281a6f3",
  "number": 49534,
  "timestamp": 1438974999,
  "nonce": "0xb873a69e8ff5ecc0",
  "difficulty": 1477038904193,
  "gasLimit": {
    "_hex": "0x34c03"
  },
  "gasUsed": {
    "_hex": "0x546c"
  },
  "miner": "0xC13Dad778D7BcE116BD97f744625D57f7124c38A",
  "extraData": "0x476574682f76312e302e312f6c696e75782f676f312e342e32",
  "transactions": [
    {
      "hash": "0x70ae3e0121091736ce628692388e7dad9346e306479449dc8f9ffa7bff527323",
      "blockHash": "0x99cac7ba223b8c21e1aaf247692242b23de12f9b08e6f12cad0cbd2d00caa20b",
      "blockNumber": 49534,
      "transactionIndex": 0,
      "confirmations": null,
      "from": "0xcABDaF354f4720A466A764A528D60e3a482A393c",
      "gasPrice": {
        "_hex": "0x10b6d60f5c6"
      },
      "gasLimit": {
        "_hex": "0x15f90"
      },
      "to": "0x2910543Af39abA0Cd09dBb2D50200b3E800A63D2",
      "value": {
        "_hex": "0x363442e15b11550000"
      },
      "nonce": 0,
      "data": "0x454e42304a42363352",
      "r": "0x9b5f57db4a1b71af23885e6ed1f271b346a15ca63778ffc7a6d98870fd0c07ef",
      "s": "0x41639fefa249c00cd0e30b125ee4f9928df24dec25355511f8453f2df10d6044",
      "v": 28,
      "creates": null,
      "raw": "0xf8788086010b6d60f5c683015f90942910543af39aba0cd09dbb2d50200b3e800a63d289363442e15b1155000089454e42304a423633521ca09b5f57db4a1b71af23885e6ed1f271b346a15ca63778ffc7a6d98870fd0c07efa041639fefa249c00cd0e30b125ee4f9928df24dec25355511f8453f2df10d6044",
      "networkId": 0,
      "chainId": 0
    }
  ]
}