{
  "hash": "0xff7f7d8ddec6eb1ff2406059ce5adc0a69373e91404cfd162220f317b9a7a2bb",
  "parentHash": "0x22a6abfd7544e3180dbcabff2427e61b4b166f778eb174be00bf2390f90755e2",
  "number": 47589,
  "timestamp": 1438943238,
  "nonce": "0x6001099775cbd4c2",
  "difficulty": 1448099015476,
  "gasLimit": {
    "_hex": "0xd3a2"
  },
  "gasUsed": {
    "_hex": "0xa674"
  },
  "miner": "0x9746c7e1ef2bd21FF3997fa467593a89cb852BD0",
  "extraData": "0x476574682f76312e302e312f77696e646f77732f676f312e342e32",
  "transactions": [
    {
      "hash": "0x6a831d2ac6a027b755eb376de242a316d22ff18daa4aee059a40badffccef4b9",
      "blockHash": "0xff7f7d8ddec6eb1ff2406059ce5adc0a69373e91404cfd162220f317b9a7a2bb",
      "blockNumber": 47589,
      "transactionIndex": 0,
      "confirmations": null,
      "from": "0xa13CfE826d6D1841DcaE443BE8c387518136b5e8",
      "gasPrice": {
        "_hex": "0x110c8f7d8de"
      },
      "gasLimit": {
        "_hex": "0xc350"
      },
      "to": "0x2910543Af39abA0Cd09dBb2D50200b3E800A63D2",
      "value": {
        "_hex": "0x361a08405e8fd80000"
      },
      "nonce": 4,
      "data": "0x454e30573343543030",
      "r": "0xa7e4ae6a821c290613cc148b330b1cc9eb20007278194e4c6e6202245dcbcea8",
      "s": "0x388943bac8ea11c4a786925c41c010cf370aecd3412fca6725e66917a6283999",
      "v": 28,
      "creates": null,
      "raw": "0xf87704860110c8f7d8de82c350942910543af39aba0cd09dbb2d50200b3e800a63d289361a08405e8fd8000089454e305733435430301ca0a7e4ae6a821c290613cc148b330b1cc9eb20007278194e4c6e6202245dcbcea8a0388943bac8ea11c4a786925c41c010cf370aecd3412fca6725e66917a6283999",
      "networkId": 0,
      "chainId": 0
    },
    {
      "hash": "0xd7b573d01998ed63338b2ca034f60f9895c9a52abc0efd25109886176c743e1e",
      "blockHash": "0xff7f7d8ddec6eb1ff2406059ce5adc0a69373e91404cfd162220f317b9a7a2bb",
      "blockNumber": 47589,
      "transactionIndex": 1,
      "confirmations": null,
      "from": "0x1B7047b4338ACf65bE94C1A3e8c5c9338ad7d67C",
      "gasPrice": {
        "_hex": "0xdf8475800"
      },
      "gasLimit": {
        "_hex": "0x5208"
      },
      "to": "0x2Fe86C0450Bf1bE6001d119aA87f6f33117bD699",
      "value": {
        "_hex": "0xa2a2e3d5bc692b0000"
      },
      "nonce": 4,
      "data": "0x",
      "r": "0xa1498a4ca29be76b5b0d30a4c133dd5d2560b88e9455f8d70b72a42b41a5eca4",
      "s": "0x5b413d08514ecd97454eb796130579349ae59a37d30c12dce0b281de2b60e967",
      "v": 27,
      "creates": null,
      "raw": "0xf86d04850df8475800825208942fe86c0450bf1be6001d119aa87f6f33117bd69989a2a2e3d5bc692b0000801ba0a1498a4ca29be76b5b0d30a4c133dd5d2560b88e9455f8d70b72a42b41a5eca4a05b413d08514ecd97454eb796130579349ae59a37d30c12dce0b281de2b60e967",
      "networkId": 0,
      "chainId": 0
    }
  ]
}