{
  "hash": "0x63a9597d4ee2858bcaf14fdd21445df6800cb04b6154b4b7c3c8371a2aa952cb",
  "parentHash": "0xfb02a67eb91d464137b343aea6f5ada89dc1f00e9f44d2d00be17e2c4aad4a83",
  "number": 119485,
  "timestamp": 1440143795,
  "nonce": "0x2263db3e24c04070",
  "difficulty": 4387978263185,
  "gasLimit": {
    "_hex": "0x2fefd8"
  },
  "gasUsed": {
    "_hex": "0x14820"
  },
  "miner": "0xe6A7a1d47ff21B6321162AEA7C6CB457D5476Bca",
  "extraData": "0xd783010002844765746887676f312e342e32856c696e7578",
  "transactions": [
    {
      "hash": "0xce70c388c9d19a42992fd969fb200b8004484742611a63b312244097fed41454",
      "blockHash": "0x63a9597d4ee2858bcaf14fdd21445df6800cb04b6154b4b7c3c8371a2aa952cb",
      "blockNumber": 119485,
      "transactionIndex": 0,
      "confirmations": null,
      "from": "0xd9c13364c95E5f8e35d4bD4830e974a0652f83D8",
      "gasPrice": {
        "_hex": "0xba43b7400"
      },
      "gasLimit": {
        "_hex": "0x5208"
      },
      "to": "0x32Be343B94f860124dC4fEe278FDCBD38C102D88",
      "value": {
        "_hex": "0x17f7d815bd32a400"
      },
      "nonce": 3,
      "data": "0x",
      "r": "0xe0aff0e26d5bf25b90e278308cd79cbe8f6f8982341c7cfc37d345b7b20dd1d9",
      "s": "0x696af459e7f45ed98998e9ce5e9473de4ff1d9f9f38c90238f1cc897218cc658",
      "v": 27,
      "creates": null,
      "raw": "0xf86c03850ba43b74008252089432be343b94f860124dc4fee278fdcbd38c102d888817f7d815bd32a400801ba0e0aff0e26d5bf25b90e278308cd79cbe8f6f8982341c7cfc37d345b7b20dd1d9a0696af459e7f45ed98998e9ce5e9473de4ff1d9f9f38c90238f1cc897218cc658",
      "networkId": 0,
      "chainId": 0
    },
    {
      "hash": "0xd88595373f34fcb80f873b02a3579db77468c41c960247a5144dc47b26e354fb",
      "blockHash": "0x63a9597d4ee2858bcaf14fdd21445df6800cb04b6154b4b7c3c8371a2aa952cb",
      "blockNumber": 119485,
      "transactionIndex": 1,
      "confirmations": null,
      "from": "0xE6ea7feBb65f6Fb46dc42DEA2f873C67AADB1f72",
      "gasPrice": {
        "_hex": "0xba43b7400"
      },
      "gasLimit": {
        "_hex": "0x5208"
      },
      "to": "0x32Be343B94f860124dC4fEe278FDCBD38C102D88",
      "value": {
        "_hex": "0x4be82702b3b7000"
      },
      "nonce": 1,
      "data": "0x",
      "r": "0x72e35ee866fa0555b465a28071de2a166368561e5e8f287d0b79523f1c73b88e",
      "s": "0x372a24d4548b28f55dd83f5d2ba4f227abf8eada16609d775af03fbefa7ab454",
      "v": 28,
      "creates": null,
      "raw": "0xf86c01850ba43b74008252089432be343b94f860124dc4fee278fdcbd38c102d888804be82702b3b7000801ca072e35ee866fa0555b465a28071de2a166368561e5e8f287d0b79523f1c73b88ea0372a24d4548b28f55dd83f5d2ba4f227abf8eada16609d775af03fbefa7ab454",
      "networkId": 0,
      "chainId": 0
    },
    {
      "hash": "0x77b8cfcfaec7d0ea3d199689410362be4d29ae1d03e3eeba908318fb64ab9d8c",
      "blockHash": "0x63a9597d4ee2858bcaf14fdd21445df6800cb04b6154b4b7c3c8371a2aa952cb",
      "blockNumber": 119485,
      "transactionIndex": 2,
      "confirmations": null,
      "from": "0x795dAa7Cd2C81b20de241CE0751981faC4930070",
      "gasPrice": {
        "_hex": "0xba43b7400"
      },
      "gasLimit": {
        "_hex": "0x5208"
      },
      "to": "0x32Be343B94f860124dC4fEe278FDCBD38C102D88",
      "value": {
        "_hex": "0x65f6d6c035ba28000"
      },
      "nonce": 6,
      "data": "0x",
      "r": "0x7caed737d074cffde3d452c981d629323dd6584937d4d28c2808f166eff5f0e6",
      "s": "0x0ffa82e5dc48e3c339712deac95a922bc2101550853e501144d7365f5756db2f",
      "v": 28,
      "creates": null,
      "raw": "0xf86d06850ba43b74008252089432be343b94f860124dc4fee278fdcbd38c102d8889065f6d6c035ba28000801ca07caed737d074cffde3d452c981d629323dd6584937d4d28c2808f166eff5f0e6a00ffa82e5dc48e3c339712deac95a922bc2101550853e501144d7365f5756db2f",
      "networkId": 0,
      "chainId": 0
    },
    {
      "hash": "0x8ee9d328fedacaedbb358ddf86b287106ad9437b7e0a86c60c61464da59a2f65",
      "blockHash": "0x63a9597d4ee2858bcaf14fdd21445df6800cb04b6154b4b7c3c8371a2aa952cb",
      "blockNumber": 119485,
      "transactionIndex": 3,
      "confirmations": null,
      "from": "0x10d50b62A87413dFD8b111398613F2eB8d819f6C",
      "gasPrice": {
        "_hex": "0xba43b7400"
      },
      "gasLimit": {
        "_hex": "0x5208"
      },
      "to": "0x32Be343B94f860124dC4fEe278FDCBD38C102D88",
      "value": {
        "_hex": "0xaf08fad2dc77f800"
      },
      "nonce": 5,
      "data": "0x",
      "r": "0x82e830f26781a245d9c2d255e9076561bc94fe4c2025c60ef4cebdfa5e8546ac",
      "s": "0x5ccfc6d976fc10733cc3e94bc65bd77a7ea33d6f5526ac881a85e55ab5e3626f",
      "v": 27,
      "creates": null,
      "raw": "0xf86c05850ba43b74008252089432be343b94f860124dc4fee278fdcbd38c102d8888af08fad2dc77f800801ba082e830f26781a245d9c2d255e9076561bc94fe4c2025c60ef4cebdfa5e8546aca05ccfc6d976fc10733cc3e94bc65bd77a7ea33d6f5526ac881a85e55ab5e3626f",
      "networkId": 0,
      "chainId": 0
    }
  ]
}