{
  "hash": "0x590e04dfa3b3c99e3e767a6cbb4ef7d30352df724a324eb7c7d4413dfc10ce75",
  "parentHash": "0x30401da7356a4c95194bec5773de5bfcc0199c4ebbf45c8130f21ceebfa09c35",
  "number": 106635,
  "timestamp": 1439907837,
  "nonce": "0x00c6669f6cbfc582",
  "difficulty": 4468273051686,
  "gasLimit": {
    "_hex": "0x2fefd8"
  },
  "gasUsed": {
    "_hex": "0x5208"
  },
  "miner": "0xe6A7a1d47ff21B6321162AEA7C6CB457D5476Bca",
  "extraData": "0x476574682f76312e302e312d38326566323666362f6c696e75782f676f312e34",
  "transactions": [
    {
      "hash": "0x568f58d68a4fb1d2f94b30540f154503e3d83844d6d64fc890733613e83ea399",
      "blockHash": "0x590e04dfa3b3c99e3e767a6cbb4ef7d30352df724a324eb7c7d4413dfc10ce75",
      "blockNumber": 106635,
      "transactionIndex": 0,
      "confirmations": null,
      "from": "0xBb7f43EDfd8bf08B022fEd5BD91e3f9dE7e74D09",
      "gasPrice": {
        "_hex": "0xddc5ada73"
      },
      "gasLimit": {
        "_hex": "0x5208"
      },
      "to": "0x32Be343B94f860124dC4fEe278FDCBD38C102D88",
      "value": {
        "_hex": "0x8ac2a7a9b2620000"
      },
      "nonce": 5,
      "data": "0x",
      "r": "0xb2b77b5536199e48bccd0f5be00b9fcb3c567e50e113f96427676a70ac4c5397",
      "s": "0x0b88179888e5071ec3c2bbeaa2d834c30e184158784db86bd5186e85adeba7c1",
      "v": 28,
      "creates": null,
      "raw": "0xf86c05850ddc5ada738252089432be343b94f860124dc4fee278fdcbd38c102d88888ac2a7a9b2620000801ca0b2b77b5536199e48bccd0f5be00b9fcb3c567e50e113f96427676a70ac4c5397a00b88179888e5071ec3c2bbeaa2d834c30e184158784db86bd5186e85adeba7c1",
      "networkId": 0,
      "chainId": 0
    }
  ]
}