{
  "hash": "0x9f6fa08a8928a8e3f3be99da6b2b1aed8bb04345d2446365af80da3e9d4a699d",
  "parentHash": "0xa1eaf90fb6b1990c5897f0dc2af9e5f2a9e670704738548891e7c91a9aad8299",
  "number": 110834,
  "timestamp": 1439980312,
  "nonce": "0x64c510862abd48cb",
  "difficulty": 4398944880387,
  "gasLimit": {
    "_hex": "0x2fefd8"
  },
  "gasUsed": {
    "_hex": "0x5208"
  },
  "miner": "0x7e8504a5e26df87f6D26fA1ba148BE146F42775A",
  "extraData": "0x476574682f76312e302e312f77696e646f77732f676f312e342e32",
  "transactions": [
    {
      "hash": "0x7d478ceaaa0e5cd18cd197972579b903866eace68fc5b2c1ce3b0db3e3230e77",
      "blockHash": "0x9f6fa08a8928a8e3f3be99da6b2b1aed8bb04345d2446365af80da3e9d4a699d",
      "blockNumber": 110834,
      "transactionIndex": 0,
      "confirmations": null,
      "from": "0x32Be343B94f860124dC4fEe278FDCBD38C102D88",
      "gasPrice": {
        "_hex": "0xd4a640cc6"
      },
      "gasLimit": {
        "_hex": "0x5208"
      },
      "to": "0xFc8B1B712E10a89E87176215AED8352b323B7265",
      "value": {
        "_hex": "0x54ee9b9329640000"
      },
      "nonce": 1294,
      "data": "0x",
      "r": "0xa4ad8354af5e149f65b64e928ebf30110696048c8a58240252bc96991c2aaa4a",
      "s": "0x013bc0f5dff0ee5ed72d13cd6e67db922bf7e6c8c588a49b056636c93ffec898",
      "v": 27,
      "creates": null,
      "raw": "0xf86e82050e850d4a640cc682520894fc8b1b712e10a89e87176215aed8352b323b72658854ee9b9329640000801ba0a4ad8354af5e149f65b64e928ebf30110696048c8a58240252bc96991c2aaa4aa0013bc0f5dff0ee5ed72d13cd6e67db922bf7e6c8c588a49b056636c93ffec898",
      "networkId": 0,
      "chainId": 0
    }
  ]
}