{
  "hash": "0xe17c2f0bf4fd1ebc014d87ff2d1effe406a7ee0d71e11e432de3b3eb1456c8a7",
  "parentHash": "0xafd8b54ad527dc6111d73139ea8dbb0b0a9d7f33b64db4102d0406c09aaf4bf2",
  "number": 117858,
  "timestamp": 1440116494,
  "nonce": "0xbfbd2a55585bc037",
  "difficulty": 4335580494455,
  "gasLimit": {
    "_hex": "0x2fefd8"
  },
  "gasUsed": {
    "_hex": "0x1ec30"
  },
  "miner": "0x1a8E703197aCd1C0d3aB7ecD62dC01389F076E4b",
  "extraData": "0xd783010002844765746887676f312e342e32856c696e7578",
  "transactions": [
    {
      "hash": "0x2accc156222e0cbfc2f5db6eccd437ce31f1d7688b80c69540ddf6816d7645ef",
      "blockHash": "0xe17c2f0bf4fd1ebc014d87ff2d1effe406a7ee0d71e11e432de3b3eb1456c8a7",
      "blockNumber": 117858,
      "transactionIndex": 0,
      "confirmations": null,
      "from": "0x285B048CC4cB946abCF3eF11aDe982C36946AF18",
      "gasPrice": {
        "_hex": "0xba43b7400"
      },
      "gasLimit": {
        "_hex": "0x5208"
      },
      "to": "0x32Be343B94f860124dC4fEe278FDCBD38C102D88",
      "value": {
        "_hex": "0x7b7f6be057f66000"
      },
      "nonce": 19,
      "data": "0x",
      "r": "0x254d3cc4dde70547516656b00a594d4173eddc543e5e5af00abc520f75601005",
      "s": "0x64b992cd9ba642019e281b6b4c72746920843d1a1021666260a67031c26da442",
      "v": 28,
      "creates": null,
      "raw": "0xf86c13850ba43b74008252089432be343b94f860124dc4fee278fdcbd38c102d88887b7f6be057f66000801ca0254d3cc4dde70547516656b00a594d4173eddc543e5e5af00abc520f75601005a064b992cd9ba642019e281b6b4c72746920843d1a1021666260a67031c26da442",
      "networkId": 0,
      "chainId": 0
    },
    {
      "hash": "0x07cd7247b952a46f337f49971128b41dfb12dc76caf48c819c3b932306ed3f1b",
      "blockHash": "0xe17c2f0bf4fd1ebc014d87ff2d1effe406a7ee0d71e11e432de3b3eb1456c8a7",
      "blockNumber": 117858,
      "transactionIndex": 1,
      "confirmations": null,
      "from": "0x702bD0d370bBf0B97B66FE95578c62697c583393",
      "gasPrice": {
        "_hex": "0xba43b7400"
      },
      "gasLimit": {
        "_hex": "0x5208"
      },
      "to": "0x32Be343B94f860124dC4fEe278FDCBD38C102D88",
      "value": {
        "_hex": "0x34e4b86ea4053400"
      },
      "nonce": 11,
      "data": "0x",
      "r": "0x1c192b62c9214e75ae2d4bce5ec205abb0497e243e9e31f056c1cf4ec647c882",
      "s": "0x6b0e38488181568b3c0c8e7867e2d305feec08ea5dfc6352ab5861364228440f",
      "v": 27,
      "creates": null,
      "raw": "0xf86c0b850ba43b74008252089432be343b94f860124dc4fee278fdcbd38c102d888834e4b86ea4053400801ba01c192b62c9214e75ae2d4bce5ec205abb0497e243e9e31f056c1cf4ec647c882a06b0e38488181568b3c0c8e7867e2d305feec08ea5dfc6352ab5861364228440f",
      "networkId": 0,
      "chainId": 0
    },
    {
      "hash": "0x5003f508de44f057ae17905ee4c6e59704087bdef15e3aab5667718bf271210c",
      "blockHash": "0xe17c2f0bf4fd1ebc014d87ff2d1effe406a7ee0d71e11e432de3b3eb1456c8a7",
      "blockNumber": 117858,
      "transactionIndex": 2,
      "confirmations": null,
      "from": "0x519DC97eF09491aE962A8F13fe144c71feca4662",
      "gasPrice": {
        "_hex": "0xba43b7400"
      },
      "gasLimit": {
        "_hex": "0x5208"
      },
      "to": "0x32Be343B94f860124dC4fEe278FDCBD38C102D88",
      "value": {
        "_hex": "0x102b7c877f164400"
      },
      "nonce": 14,
      "data": "0x",
      "r": "0xb9d4bc2ee2c4f8e8dbbdb3d7d1d095285117be343d53cac6506108f10eaf6e03",
      "s": "0x392da592edd8e6288568f965312afbe4ab2c50612185560c862027008698dc64",
      "v": 28,
      "creates": null,
      "raw": "0xf86c0e850ba43b74008252089432be343b94f860124dc4fee278fdcbd38c102d8888102b7c877f164400801ca0b9d4bc2ee2c4f8e8dbbdb3d7d1d095285117be343d53cac6506108f10eaf6e03a0392da592edd8e6288568f965312afbe4ab2c50612185560c862027008698dc64",
      "networkId": 0,
      "chainId": 0
    },
    {
      "hash": "0x802b5552db1fdc2fb8bfb32921a39b529ee4066092baa79ddae532920c6c230b",
      "blockHash": "0xe17c2f0bf4fd1ebc014d87ff2d1effe406a7ee0d71e11e432de3b3eb1456c8a7",
      "blockNumber": 117858,
      "transactionIndex": 3,
      "confirmations": null,
      "from": "0xa6BDc31c431B8F97848c9D60cbbe9660dc450eB7",
      "gasPrice": {
        "_hex": "0xba43b7400"
      },
      "gasLimit": {
        "_hex": "0x5208"
      },
      "to": "0x32Be343B94f860124dC4fEe278FDCBD38C102D88",
      "value": {
        "_hex": "0x1c54b337e4ddee000"
      },
      "nonce": 203,
      "data": "0x",
      "r": "0x89ff7a4a0a573b44907afd19ad5fed147527a9e0fe6eaa517656dbaa80303a4e",
      "s": "0x655a68f7fb54418328e000aa009fd8d953ba7a5a9964f7873963c5146b035ff3",
      "v": 28,
      "creates": null,
      "raw": "0xf86e81cb850ba43b74008252089432be343b94f860124dc4fee278fdcbd38c102d888901c54b337e4ddee000801ca089ff7a4a0a573b44907afd19ad5fed147527a9e0fe6eaa517656dbaa80303a4ea0655a68f7fb54418328e000aa009fd8d953ba7a5a9964f7873963c5146b035ff3",
      "networkId": 0,
      "chainId": 0
    },
    {
      "hash": "0xaad4a4f597dee3160244eb9a4ba9c30635f0ad7e3c2a36792be5afc08a404334",
      "blockHash": "0xe17c2f0bf4fd1ebc014d87ff2d1effe406a7ee0d71e11e432de3b3eb1456c8a7",
      "blockNumber": 117858,
      "transactionIndex": 4,
      "confirmations": null,
      "from": "0xeD3Fe86896534C24D9F91232faE34b78DFf3c1f4",
      "gasPrice": {
        "_hex": "0xba43b7400"
      },
      "gasLimit": {
        "_hex": "0x5208"
      },
      "to": "0x32Be343B94f860124dC4fEe278FDCBD38C102D88",
      "value": {
        "_hex": "0x27469d0285401400"
      },
      "nonce": 10,
      "data": "0x",
      "r": "0x408d293e85151658d85472899c0c04fc510b30a3f3bfc3bef03198708883216b",
      "s": "0x7be163eb20b56fc20b81fcc6ab49dad14b8b0e68fe382bb4b391978e8fd3daec",
      "v": 28,
      "creates": null,
      "raw": "0xf86c0a850ba43b74008252089432be343b94f860124dc4fee278fdcbd38c102d888827469d0285401400801ca0408d293e85151658d85472899c0c04fc510b30a3f3bfc3bef03198708883216ba07be163eb20b56fc20b81fcc6ab49dad14b8b0e68fe382bb4b391978e8fd3daec",
      "networkId": 0,
      "chainId": 0
    },
    {
      "hash": "0x5df38c5a6ff56c1b9609010d53c31961904bb9af6b0b845892f387689d9151e8",
      "blockHash": "0xe17c2f0bf4fd1ebc014d87ff2d1effe406a7ee0d71e11e432de3b3eb1456c8a7",
      "blockNumber": 117858,
      "transactionIndex": 5,
      "confirmations": null,
      "from": "0x46e97208BC7F618816Cb502A2b516fb4BC41f1D3",
      "gasPrice": {
        "_hex": "0xba43b7400"
      },
      "gasLimit": {
        "_hex": "0x5208"
      },
      "to": "0x32Be343B94f860124dC4fEe278FDCBD38C102D88",
      "value": {
        "_hex": "0x15c625042a00f800"
      },
      "nonce": 11,
      "data": "0x",
      "r": "0x517b29b56fa7d88d99eac1f759cbbdfa2913f759853b977eaacac0437968a88e",
      "s": "0x41f972e799c7986179c8850707e9354cc63127b184d2cbedaabe29f51cfc3abc",
      "v": 28,
      "creates": null,
      "raw": "0xf86c0b850ba43b74008252089432be343b94f860124dc4fee278fdcbd38c102d888815c625042a00f800801ca0517b29b56fa7d88d99eac1f759cbbdfa2913f759853b977eaacac0437968a88ea041f972e799c7986179c8850707e9354cc63127b184d2cbedaabe29f51cfc3abc",
      "networkId": 0,
      "chainId": 0
    }
  ]
}