{
  "hash": "0x361d391fbfc81234cb1f05705783257bd0c056451bcff631c265a3b95e7d38e8",
  "parentHash": "0x657904e3d5dc7f553368ad2677abb57d0eb85fd465524d6ecb0c7d418d6717df",
  "number": 100226,
  "timestamp": 1439803056,
  "nonce": "0x55e496fe21d1bad1",
  "difficulty": 3826705588605,
  "gasLimit": {
    "_hex": "0x2fefd8"
  },
  "gasUsed": {
    "_hex": "0x5208"
  },
  "miner": "0x6541237dAaFf6688A79f9F2F370Ca0E7Ee20BD33",
  "extraData": "0x476574682f76312e302e312f77696e646f77732f676f312e342e32",
  "transactions": [
    {
      "hash": "0xe1dd2903f346112622bad13d63acef739149e4fe9b290af9a0aed38fdc47b4c2",
      "blockHash": "0x361d391fbfc81234cb1f05705783257bd0c056451bcff631c265a3b95e7d38e8",
      "blockNumber": 100226,
      "transactionIndex": 0,
      "confirmations": null,
      "from": "0xd70c667add50d3d9989Ef58A81a698c09f415Bff",
      "gasPrice": {
        "_hex": "0xce67a261c"
      },
      "gasLimit": {
        "_hex": "0x15f90"
      },
      "to": "0x86d3856ad0105B9d4199936c1fd203664BA325dC",
      "value": {
        "_hex": "0x5e176613f9260000"
      },
      "nonce": 14,
      "data": "0x",
      "r": "0xd4ea5735417d82cd6c48166fda7159b4f78f365775ea93cb0c83f8e9bb2e544c",
      "s": "0x32b80bad6de43225f2bd197416caec11523365f04b51919efc51a276cf65bb40",
      "v": 27,
      "creates": null,
      "raw": "0xf86d0e850ce67a261c83015f909486d3856ad0105b9d4199936c1fd203664ba325dc885e176613f9260000801ba0d4ea5735417d82cd6c48166fda7159b4f78f365775ea93cb0c83f8e9bb2e544ca032b80bad6de43225f2bd197416caec11523365f04b51919efc51a276cf65bb40",
      "networkId": 0,
      "chainId": 0
    }
  ]
}