{
  "hash": "0x13c25081a2a38737aee50e6f039a6b585df219f4d58da4ba4984b3d22910919f",
  "parentHash": "0xafa7b913a3c8e6c1ef60a36a12ec5e09de74b18643358dbdb4254104ac22e4a3",
  "number": 122257,
  "timestamp": 1440190996,
  "nonce": "0x55d4145ad85afcf1",
  "difficulty": 4464317141999,
  "gasLimit": {
    "_hex": "0x2fefd8"
  },
  "gasUsed": {
    "_hex": "0x1bdbe"
  },
  "miner": "0x52bc44d5378309EE2abF1539BF71dE1b7d7bE3b5",
  "extraData": "0xd783010002844765746887676f312e342e32856c696e7578",
  "transactions": [
    {
      "hash": "0xde09ad0ab3a3ee0e0a7caf7d98818ac3780c7117f7fec9697e9ea1ea3e6f5e7b",
      "blockHash": "0x13c25081a2a38737aee50e6f039a6b585df219f4d58da4ba4984b3d22910919f",
      "blockNumber": 122257,
      "transactionIndex": 0,
      "confirmations": null,
      "from": "0x657a04FeFfb4412AA72aEe9c4d23918A998B3DF3",
      "gasPrice": {
        "_hex": "0xba43b7400"
      },
      "gasLimit": {
        "_hex": "0x249f0"
      },
      "to": "0xE28e72FCf78647ADCe1F1252F240bbfaebD63BcC",
      "value": {
        "_hex": "0xb6255df5f50080000"
      },
      "nonce": 2,
      "data": "0x45466f3a",
      "r": "0x14c33fc951267ffb97d5542839b2b915886abb2ea47f512361b8d21977efc0cd",
      "s": "0x46d9d71e211ff4f672fa45d3b01b1a090f693cf3f9080f1c1b6689406595ece2",
      "v": 27,
      "creates": null,
      "raw": "0xf87202850ba43b7400830249f094e28e72fcf78647adce1f1252f240bbfaebd63bcc890b6255df5f500800008445466f3a1ba014c33fc951267ffb97d5542839b2b915886abb2ea47f512361b8d21977efc0cda046d9d71e211ff4f672fa45d3b01b1a090f693cf3f9080f1c1b6689406595ece2",
      "networkId": 0,
      "chainId": 0
    }
  ]
}