{
  "hash": "0x851e29ffd9166ba668f8229da0010c320c46dba4d2b47317320748eef23c4224",
  "parentHash": "0x21ce8d969edb0d0f01c44dca0074efdf97e4bd95591e9cd670968dc764b301cd",
  "number": 66852,
  "timestamp": 1439261421,
  "nonce": "0xf89bfbaff5d5ec79",
  "difficulty": 1950817150077,
  "gasLimit": {
    "_hex": "0x2fefd8"
  },
  "gasUsed": {
    "_hex": "0x5208"
  },
  "miner": "0x39A1BB80a741bF5EC39FB9BE59408Fa0F418fFBf",
  "extraData": "0x476574682f76312e302e312f77696e646f77732f676f312e342e32",
  "transactions": [
    {
      "hash": "0x7b712ca96dda91a2fcdcb0ca0831237e34fe5f6b3a63f9a2ce8588d3b05dd13d",
      "blockHash": "0x851e29ffd9166ba668f8229da0010c320c46dba4d2b47317320748eef23c4224",
      "blockNumber": 66852,
      "transactionIndex": 0,
      "confirmations": null,
      "from": "0x474158a1A9dc693c133f65E47b5c3Ae2f773a86F",
      "gasPrice": {
        "_hex": "0x746a528800"
      },
      "gasLimit": {
        "_hex": "0x5208"
      },
      "to": "0xD3221E91D252E8f4ec403E46ae6478b7EBaC265c",
      "value": {
        "_hex": "0xada2ff999bf0fc000"
      },
      "nonce": 0,
      "data": "0x",
      "r": "0x94ed5d9d4b348fd2e098ed7aed3f8744d1001f5efe71c30c3eec16a058f855be",
      "s": "0x3c7495ee46e5e01684f2046c40698bf2aa0cca1ee972cc51c16bbe96d4f60466",
      "v": 27,
      "creates": null,
      "raw": "0xf86d8085746a52880082520894d3221e91d252e8f4ec403e46ae6478b7ebac265c890ada2ff999bf0fc000801ba094ed5d9d4b348fd2e098ed7aed3f8744d1001f5efe71c30c3eec16a058f855bea03c7495ee46e5e01684f2046c40698bf2aa0cca1ee972cc51c16bbe96d4f60466",
      "networkId": 0,
      "chainId": 0
    }
  ]
}