{
  "hash": "0x43388ffcf1408b80adee10fb0c0ee45b70e06cd5e1cc45888992e6203e232564",
  "parentHash": "0xb68a911395c7d5280e7786f09d7038a537e1bc01ccdd3f970f13137dbefa3e06",
  "number": 78142,
  "timestamp": 1439449102,
  "nonce": "0x361655291448149c",
  "difficulty": 2275445626123,
  "gasLimit": {
    "_hex": "0x2fefd8"
  },
  "gasUsed": {
    "_hex": "0xa410"
  },
  "miner": "0xbb7B8287f3F0a933474a79eAe42CBCa977791171",
  "extraData": "0x476574682f4c5649562f76312e302e312f6c696e75782f676f312e342e32",
  "transactions": [
    {
      "hash": "0xbcaeb28a5857d28cded72cd65b81462c8f7759194b57c60bfb847dbc2e0708aa",
      "blockHash": "0x43388ffcf1408b80adee10fb0c0ee45b70e06cd5e1cc45888992e6203e232564",
      "blockNumber": 78142,
      "transactionIndex": 0,
      "confirmations": null,
      "from": "0x1308A2e95c0160B90803ddCA9B9a5bb55E416d79",
      "gasPrice": {
        "_hex": "0x9184e72a000"
      },
      "gasLimit": {
        "_hex": "0x15f90"
      },
      "to": "0x890b11A8f159bbD101e7C1775DD2F86d5F817c90",
      "value": {
        "_hex": "0x599d5efb80363e0000"
      },
      "nonce": 121,
      "data": "0x",
      "r": "0x5c55e7a4f300e5054697ff19c08a790483c97d3f41369b146fa79c19d303c523",
      "s": "0x26343b5036d49122de519fabfa5edd9033a56dbdf6e5c55ccd1b7cdc185c795a",
      "v": 28,
      "creates": null,
      "raw": "0xf86f798609184e72a00083015f9094890b11a8f159bbd101e7c1775dd2f86d5f817c9089599d5efb80363e0000801ca05c55e7a4f300e5054697ff19c08a790483c97d3f41369b146fa79c19d303c523a026343b5036d49122de519fabfa5edd9033a56dbdf6e5c55ccd1b7cdc185c795a",
      "networkId": 0,
      "chainId": 0
    },
    {
      "hash": "0x0f801f0a1ce43f3648acb04a79588f62b4ada789149bbe224b378afdd73df926",
      "blockHash": "0x43388ffcf1408b80adee10fb0c0ee45b70e06cd5e1cc45888992e6203e232564",
      "blockNumber": 78142,
      "transactionIndex": 1,
      "confirmations": null,
      "from": "0x1308A2e95c0160B90803ddCA9B9a5bb55E416d79",
      "gasPrice": {
        "_hex": "0x9184e72a000"
      },
      "gasLimit": {
        "_hex": "0x15f90"
      },
      "to": "0x890b11A8f159bbD101e7C1775DD2F86d5F817c90",
      "value": {
        "_hex": "0x599d5efb80363e0000"
      },
      "nonce": 122,
      "data": "0x",
      "r": "0x8933eba3c0426930f5b862c1adf17a8e74f78d33470c2a13d48a1ddec6389498",
      "s": "0x08422d1f528150af0d717aa2bae244cee526c24783ce1ee92c1f1370c00ff436",
      "v": 28,
      "creates": null,
      "raw": "0xf86f7a8609184e72a00083015f9094890b11a8f159bbd101e7c1775dd2f86d5f817c9089599d5efb80363e0000801ca08933eba3c0426930f5b862c1adf17a8e74f78d33470c2a13d48a1ddec6389498a008422d1f528150af0d717aa2bae244cee526c24783ce1ee92c1f1370c00ff436",
      "networkId": 0,
      "chainId": 0
    }
  ]
}