{
  "hash": "0x22440952933ab09f75ce11e430e35319b0d67be5bf37591426c51d5baffecf6b",
  "parentHash": "0x71693ffbc84f22596752f71aba50fbf54d038b23684405df55108e020b300d3c",
  "number": 97494,
  "timestamp": 1439757005,
  "nonce": "0x689230a046704097",
  "difficulty": 3824215662294,
  "gasLimit": {
    "_hex": "0x2fefd8"
  },
  "gasUsed": {
    "_hex": "0xa410"
  },
  "miner": "0xe6A7a1d47ff21B6321162AEA7C6CB457D5476Bca",
  "extraData": "0x476574682f76312e302e312d38326566323666362f6c696e75782f676f312e34",
  "transactions": [
    {
      "hash": "0x9d2adb1673e68503aa340811bf90c7d3a3ff8284def01dd929fb3d0fb0e4a3de",
      "blockHash": "0x22440952933ab09f75ce11e430e35319b0d67be5bf37591426c51d5baffecf6b",
      "blockNumber": 97494,
      "transactionIndex": 0,
      "confirmations": null,
      "from": "0xaCb9c496aBFE89226f616a2e125576a36BB4c13a",
      "gasPrice": {
        "_hex": "0xba43b7400"
      },
      "gasLimit": {
        "_hex": "0x5208"
      },
      "to": "0xC47Aaa860008be6f65B58c6C6E02a84e666EfE31",
      "value": {
        "_hex": "0xc79b6431cd66000"
      },
      "nonce": 0,
      "data": "0x",
      "r": "0x76051508a1bd78ac296b86c2deab8e1daa231e26a49b2fb581862c772a4c2752",
      "s": "0x19f77ad987167b970e3806b975bdbe90c11c8379c92e0b080fa69d9eaebfc5a2",
      "v": 27,
      "creates": null,
      "raw": "0xf86c80850ba43b740082520894c47aaa860008be6f65b58c6c6e02a84e666efe31880c79b6431cd66000801ba076051508a1bd78ac296b86c2deab8e1daa231e26a49b2fb581862c772a4c2752a019f77ad987167b970e3806b975bdbe90c11c8379c92e0b080fa69d9eaebfc5a2",
      "networkId": 0,
      "chainId": 0
    },
    {
      "hash": "0x80c5385b95c7bc29c0d95c8d955ed1f8ef7506574dee71648e524fa8320aa4f8",
      "blockHash": "0x22440952933ab09f75ce11e430e35319b0d67be5bf37591426c51d5baffecf6b",
      "blockNumber": 97494,
      "transactionIndex": 1,
      "confirmations": null,
      "from": "0x08AC238802993c65eF73c3f2505d00F8C2342350",
      "gasPrice": {
        "_hex": "0xba43b7400"
      },
      "gasLimit": {
        "_hex": "0x5208"
      },
      "to": "0xC47Aaa860008be6f65B58c6C6E02a84e666EfE31",
      "value": {
        "_hex": "0xdb974c90a9f38f0"
      },
      "nonce": 0,
      "data": "0x",
      "r": "0x18a3b1bd0af20b3febae87ec01c1ccc7fee6e0d3a5032a6bd15e3dd0d55c200d",
      "s": "0x5d35d9b29e0ca3985bcb64c6aa1713350d41974d40a736a776a2f1aac18c2d83",
      "v": 28,
      "creates": null,
      "raw": "0xf86c80850ba43b740082520894c47aaa860008be6f65b58c6c6e02a84e666efe31880db974c90a9f38f0801ca018a3b1bd0af20b3febae87ec01c1ccc7fee6e0d3a5032a6bd15e3dd0d55c200da05d35d9b29e0ca3985bcb64c6aa1713350d41974d40a736a776a2f1aac18c2d83",
      "networkId": 0,
      "chainId": 0
    }
  ]
}