{
  "hash": "0x14c9e25e80aa0add03a80f954f4655f1f834e5edddd9fcff781a6e3b3ceaedaf",
  "parentHash": "0x674aac9f0c89e950ab268e2b6b37b22fafc91557f7016bbe79bca42d55a53836",
  "number": 71716,
  "timestamp": 1439340738,
  "nonce": "0xece3d34e757171ff",
  "difficulty": 2175032290672,
  "gasLimit": {
    "_hex": "0x2fefd8"
  },
  "gasUsed": {
    "_hex": "0xa410"
  },
  "miner": "0xe3002160DEbB2936e6ca494ed36F28056ed7aEfd",
  "extraData": "0x",
  "transactions": [
    {
      "hash": "0xd822cb6c02acdd8479315c733548501fa51b9526c3d6ef8ba9a68b35857740d7",
      "blockHash": "0x14c9e25e80aa0add03a80f954f4655f1f834e5edddd9fcff781a6e3b3ceaedaf",
      "blockNumber": 71716,
      "transactionIndex": 0,
      "confirmations": null,
      "from": "0x2910543Af39abA0Cd09dBb2D50200b3E800A63D2",
      "gasPrice": {
        "_hex": "0xd465b3b06"
      },
      "gasLimit": {
        "_hex": "0x5208"
      },
      "to": "0x18c5507F9bBD77EDdAcF8d8eE08D137842dc89b5",
      "value": {
        "_hex": "0xad77cf8e18e3f8000"
      },
      "nonce": 275,
      "data": "0x",
      "r": "0x064b08440909aad86d6ef782d38c3fa07fd24b3cdf8379874988d444d6534460",
      "s": "0x49e23a4db3f4a5be365c1b4b78e9418bf5a6fe9986bba6087998c4cf3a946073",
      "v": 28,
      "creates": null,
      "raw": "0xf86f820113850d465b3b068252089418c5507f9bbd77eddacf8d8ee08d137842dc89b5890ad77cf8e18e3f8000801ca0064b08440909aad86d6ef782d38c3fa07fd24b3cdf8379874988d444d6534460a049e23a4db3f4a5be365c1b4b78e9418bf5a6fe9986bba6087998c4cf3a946073",
      "networkId": 0,
      "chainId": 0
    },
    {
      "hash": "0x1a09a97c56557c001ca0592cfcbc51ac7a0987919f707f2bd604dd9e6dfc0411",
      "blockHash": "0x14c9e25e80aa0add03a80f954f4655f1f834e5edddd9fcff781a6e3b3ceaedaf",
      "blockNumber": 71716,
      "transactionIndex": 1,
      "confirmations": null,
      "from": "0x9aD28d4b9331aAC808DED237E46c6f5d69FCEDF6",
      "gasPrice": {
        "_hex": "0xd042e829b"
      },
      "gasLimit": {
        "_hex": "0x5208"
      },
      "to": "0x32Be343B94f860124dC4fEe278FDCBD38C102D88",
      "value": {
        "_hex": "0x15af1394ad0932000"
      },
      "nonce": 3,
      "data": "0x",
      "r": "0xbd628b908a89403777947f7accb9ba51f7e989d72fa5f0182f26fa8fc2d900d6",
      "s": "0x3a5f1ddca0794af288571a9c50e7cdf6e72274fdab74f2283d7b4b73cffc9988",
      "v": 28,
      "creates": null,
      "raw": "0xf86d03850d042e829b8252089432be343b94f860124dc4fee278fdcbd38c102d8889015af1394ad0932000801ca0bd628b908a89403777947f7accb9ba51f7e989d72fa5f0182f26fa8fc2d900d6a03a5f1ddca0794af288571a9c50e7cdf6e72274fdab74f2283d7b4b73cffc9988",
      "networkId": 0,
      "chainId": 0
    }
  ]
}