{
  "hash": "0x58cafec80e29e8593c59318ca6a72b9ed24a07949aafd0a1ee7e6c7e56ee05a5",
  "parentHash": "0xd56be20d609d86688000c1e1ce9a82e2938e6a1aeb157aadafefe27ae6ec73aa",
  "number": 104026,
  "timestamp": 1439863046,
  "nonce": "0xe8ef331dfb8fec5e",
  "difficulty": 4258739232038,
  "gasLimit": {
    "_hex": "0x2fefd8"
  },
  "gasUsed": {
    "_hex": "0x1d52e"
  },
  "miner": "0xe6A7a1d47ff21B6321162AEA7C6CB457D5476Bca",
  "extraData": "0x476574682f76312e302e312d38326566323666362f6c696e75782f676f312e34",
  "transactions": [
    {
      "hash": "0xf5263290d7aac3d8e5fbf78643209b9bfc42a785680324c2650137e11ef17ce5",
      "blockHash": "0x58cafec80e29e8593c59318ca6a72b9ed24a07949aafd0a1ee7e6c7e56ee05a5",
      "blockNumber": 104026,
      "transactionIndex": 0,
      "confirmations": null,
      "from": "0x32Be343B94f860124dC4fEe278FDCBD38C102D88",
      "gasPrice": {
        "_hex": "0xdd88e4bdc"
      },
      "gasLimit": {
        "_hex": "0x5208"
      },
      "to": "0xc44B2097aEDEF0a5B7E9eD78fb6368Bde3333eB5",
      "value": {
        "_hex": "0x39bb49f599a0000"
      },
      "nonce": 1145,
      "data": "0x",
      "r": "0x2a1f852320e2cfed0600ae65758bbd3c6e48ccce9cf0d9f24c56a1c875f003da",
      "s": "0x6f806bbb38413993e01f468d5288d79823c61cab6b43583aa1ddfbb07f2152dc",
      "v": 27,
      "creates": null,
      "raw": "0xf86e820479850dd88e4bdc82520894c44b2097aedef0a5b7e9ed78fb6368bde3333eb588039bb49f599a0000801ba02a1f852320e2cfed0600ae65758bbd3c6e48ccce9cf0d9f24c56a1c875f003daa06f806bbb38413993e01f468d5288d79823c61cab6b43583aa1ddfbb07f2152dc",
      "networkId": 0,
      "chainId": 0
    },
    {
      "hash": "0x41025353dd0b701d1ffba30c2af71dd3e05780aae46642b7661e6dd0ac97c928",
      "blockHash": "0x58cafec80e29e8593c59318ca6a72b9ed24a07949aafd0a1ee7e6c7e56ee05a5",
      "blockNumber": 104026,
      "transactionIndex": 1,
      "confirmations": null,
      "from": "0xdE79c5895EB57d39465fD6dFF8D7746D487019cd",
      "gasPrice": {
        "_hex": "0xd8364fc25"
      },
      "gasLimit": {
        "_hex": "0x249f0"
      },
      "to": "0xE28e72FCf78647ADCe1F1252F240bbfaebD63BcC",
      "value": {
        "_hex": "0x2feb028cf5ac3d800"
      },
      "nonce": 1,
      "data": "0x45466f3a",
      "r": "0x1a8a42402d9cfda419b0969ec214eae4ece76885c112e65f4dc26404796b508d",
      "s": "0x56436c74b969f55cdbbf44507292eca0afd69f274988d64b269b8893c4dd8cc7",
      "v": 28,
      "creates": null,
      "raw": "0xf87201850d8364fc25830249f094e28e72fcf78647adce1f1252f240bbfaebd63bcc8902feb028cf5ac3d8008445466f3a1ca01a8a42402d9cfda419b0969ec214eae4ece76885c112e65f4dc26404796b508da056436c74b969f55cdbbf44507292eca0afd69f274988d64b269b8893c4dd8cc7",
      "networkId": 0,
      "chainId": 0
    }
  ]
}