{
  "hash": "0xacd31533ee9bc3f8ee105121f868d1b38bc71847dae61db6477796ac91e2df10",
  "parentHash": "0xfb63b4f8ac84d723c6f0adb694a0eab06f03e8c1c7815dc700e9d5838feed0dc",
  "number": 103853,
  "timestamp": 1439859866,
  "nonce": "0xe4d2fd891d78ff87",
  "difficulty": 4252593112117,
  "gasLimit": {
    "_hex": "0x2fefd8"
  },
  "gasUsed": {
    "_hex": "0x5208"
  },
  "miner": "0xe6A7a1d47ff21B6321162AEA7C6CB457D5476Bca",
  "extraData": "0x476574682f76312e302e312d38326566323666362f6c696e75782f676f312e34",
  "transactions": [
    {
      "hash": "0x70c7afdefebaa2a4a065ddb643eaf050b3b99a60de4cbb41d3f05a76ee08abf9",
      "blockHash": "0xacd31533ee9bc3f8ee105121f868d1b38bc71847dae61db6477796ac91e2df10",
      "blockNumber": 103853,
      "transactionIndex": 0,
      "confirmations": null,
      "from": "0x095E0174829f34C3781Be1a5e38d1541EA439b7f",
      "gasPrice": {
        "_hex": "0xdb2816147"
      },
      "gasLimit": {
        "_hex": "0x15f90"
      },
      "to": "0x64f1bF4c23E8a6f89b8A3D0Fd4cC300dF71Cc065",
      "value": {
        "_hex": "0x950cfa428650860000"
      },
      "nonce": 2,
      "data": "0x",
      "r": "0x591721cc5a2767d7ec34d7baa860016da4b6b1647b9afba826fb4d5c0c64a281",
      "s": "0x1e3b0630ba6ecde8acececd9e546bd3d414ef2c8cda08b41726eca0360626a88",
      "v": 27,
      "creates": null,
      "raw": "0xf86e02850db281614783015f909464f1bf4c23e8a6f89b8a3d0fd4cc300df71cc06589950cfa428650860000801ba0591721cc5a2767d7ec34d7baa860016da4b6b1647b9afba826fb4d5c0c64a281a01e3b0630ba6ecde8acececd9e546bd3d414ef2c8cda08b41726eca0360626a88",
      "networkId": 0,
      "chainId": 0
    }
  ]
}