{
  "hash": "0x7f008c7cb06c67c43564c766f93fe373e6a6a48587414d903b1c262d0d0dcc60",
  "parentHash": "0x39fede28e81d541f95c5f0ab611d480759c075de8b6ef36acc9f95f16d3de93b",
  "number": 46384,
  "timestamp": 1438922203,
  "nonce": "0xa84a0a38183fe4ed",
  "difficulty": 1466094924294,
  "gasLimit": {
    "_hex": "0x5e58"
  },
  "gasUsed": {
    "_hex": "0x5208"
  },
  "miner": "0xd5A85B42F59351D806582F791600EA3e99811121",
  "extraData": "0x476574682f76312e302e302f6c696e75782f676f312e342e32",
  "transactions": [
    {
      "hash": "0x181ea250b8fdb3d705d5cabcbdcff25b525b66d38c22e51f69d2301e920d6919",
      "blockHash": "0x7f008c7cb06c67c43564c766f93fe373e6a6a48587414d903b1c262d0d0dcc60",
      "blockNumber": 46384,
      "transactionIndex": 0,
      "confirmations": null,
      "from": "0x805D846fB0bc02a7337226d685be9ee773b9198a",
      "gasPrice": {
        "_hex": "0x68c6171400"
      },
      "gasLimit": {
        "_hex": "0x5208"
      },
      "to": "0x3Ce9c2078713Ec3530f7EdFe8C0d9Dbf6f0FA5c1",
      "value": {
        "_hex": "0xa29e967e60e0cc0000"
      },
      "nonce": 0,
      "data": "0x",
      "r": "0x3ddff6a1f11a5409b8bc392fe7fef6979f86a193e4fc5529e0593dfd865a9465",
      "s": "0x126080669434fc964756bfe38d67b93ba34dcefb42ac66f178080aa2d9c21360",
      "v": 28,
      "creates": null,
      "raw": "0xf86d808568c6171400825208943ce9c2078713ec3530f7edfe8c0d9dbf6f0fa5c189a29e967e60e0cc0000801ca03ddff6a1f11a5409b8bc392fe7fef6979f86a193e4fc5529e0593dfd865a9465a0126080669434fc964756bfe38d67b93ba34dcefb42ac66f178080aa2d9c21360",
      "networkId": 0,
      "chainId": 0
    }
  ]
}