{
  "hash": "0xcf5fdb9d2563e6902ed7e4191711de8d3496e3f5e7d7048c3cf914b704adb581",
  "parentHash": "0x8fe1495876043ac4b4b0b474c52ae2bec77d793a9bbe36e9e8e85e6a4ad33c3b",
  "number": 88057,
  "timestamp": 1439601964,
  "nonce": "0xd713949dcfd91a93",
  "difficulty": 3197286794174,
  "gasLimit": {
    "_hex": "0x2fefd8"
  },
  "gasUsed": {
    "_hex": "0xf618"
  },
  "miner": "0xe6A7a1d47ff21B6321162AEA7C6CB457D5476Bca",
  "extraData": "0x476574682f76312e302e312d38326566323666362f6c696e75782f676f312e34",
  "transactions": [
    {
      "hash": "0x99befc3acb1ca58959d2d0605cb1e6c5f25389e5a4be37fff7dc140ee5063f96",
      "blockHash": "0xcf5fdb9d2563e6902ed7e4191711de8d3496e3f5e7d7048c3cf914b704adb581",
      "blockNumber": 88057,
      "transactionIndex": 0,
      "confirmations": null,
      "from": "0x2910543Af39abA0Cd09dBb2D50200b3E800A63D2",
      "gasPrice": {
        "_hex": "0xdaa920b3f"
      },
      "gasLimit": {
        "_hex": "0x5208"
      },
      "to": "0xAD4288f5D37e94bAc47b5482c81f364b0743Dd54",
      "value": {
        "_hex": "0x1438587049acd38000"
      },
      "nonce": 718,
      "data": "0x",
      "r": "0xceadb8efcec121b3055f56e05719aecadaad2a1e34fa15ad1b774ab8e6b081c9",
      "s": "0x3f220c1a159609c5a7007cecbdc8e2576c43f43f71250e9a364e46367d9c1d41",
      "v": 28,
      "creates": null,
      "raw": "0xf86f8202ce850daa920b3f82520894ad4288f5d37e94bac47b5482c81f364b0743dd54891438587049acd38000801ca0ceadb8efcec121b3055f56e05719aecadaad2a1e34fa15ad1b774ab8e6b081c9a03f220c1a159609c5a7007cecbdc8e2576c43f43f71250e9a364e46367d9c1d41",
      "networkId": 0,
      "chainId": 0
    },
    {
      "hash": "0x5665945de728d54469984acb943988cd0889538611f46ba491c44fa89e71f8b8",
      "blockHash": "0xcf5fdb9d2563e6902ed7e4191711de8d3496e3f5e7d7048c3cf914b704adb581",
      "blockNumber": 88057,
      "transactionIndex": 1,
      "confirmations": null,
      "from": "0x2910543Af39abA0Cd09dBb2D50200b3E800A63D2",
      "gasPrice": {
        "_hex": "0xdaa920b3f"
      },
      "gasLimit": {
        "_hex": "0x5208"
      },
      "to": "0x19ae27E1b61445EB9f27821A5eB4b3e957319e7e",
      "value": {
        "_hex": "0x1b1ad31369b76f8000"
      },
      "nonce": 719,
      "data": "0x",
      "r": "0xfaa00f5fbd8cd8ee8eda7727aabdb1dc71107937b4e6d01c03e1b113232c1753",
      "s": "0x28404809bace93936dadfcdda00cecc4ff5ffb558141736749b134d6e7f420ac",
      "v": 27,
      "creates": null,
      "raw": "0xf86f8202cf850daa920b3f8252089419ae27e1b61445eb9f27821a5eb4b3e957319e7e891b1ad31369b76f8000801ba0faa00f5fbd8cd8ee8eda7727aabdb1dc71107937b4e6d01c03e1b113232c1753a028404809bace93936dadfcdda00cecc4ff5ffb558141736749b134d6e7f420ac",
      "networkId": 0,
      "chainId": 0
    },
    {
      "hash": "0x11de4280c2027106f4e8b82cb4e49045b955442a48bbe8bb90f415bd339270b2",
      "blockHash": "0xcf5fdb9d2563e6902ed7e4191711de8d3496e3f5e7d7048c3cf914b704adb581",
      "blockNumber": 88057,
      "transactionIndex": 2,
      "confirmations": null,
      "from": "0x4b0424c09BaC4Ee3f4376f1D3fA354E8Cb2D3171",
      "gasPrice": {
        "_hex": "0xcbb6e5fce"
      },
      "gasLimit": {
        "_hex": "0x15f90"
      },
      "to": "0x34d34F0a638F6991e4E2536F41295DF6E934A646",
      "value": {
        "_hex": "0x4563918244f40000"
      },
      "nonce": 12,
      "data": "0x",
      "r": "0x18d925c9e86e0769637bf61633b9c4b61c2993035caf1586bc4862a6a4086259",
      "s": "0x569cff1364daf0a53c87f3afe2ae486e558420824426b4ec40c1ca41573120ea",
      "v": 28,
      "creates": null,
      "raw": "0xf86d0c850cbb6e5fce83015f909434d34f0a638f6991e4e2536f41295df6e934a646884563918244f40000801ca018d925c9e86e0769637bf61633b9c4b61c2993035caf1586bc4862a6a4086259a0569cff1364daf0a53c87f3afe2ae486e558420824426b4ec40c1ca41573120ea",
      "networkId": 0,
      "chainId": 0
    }
  ]
}