{
  "hash": "0xa5853fe7e1fae1a59f7fab7f2cb660dc186834badd931539ccc1b6b5bf05d9d8",
  "parentHash": "0x6cdc3d68e578e61f58c9bec61c4c7c39ed3820cb33ce564b11582d638c810902",
  "number": 60183,
  "timestamp": 1439150826,
  "nonce": "0x31650144cb3454bb",
  "difficulty": 1739018159098,
  "gasLimit": {
    "_hex": "0x2fefd5"
  },
  "gasUsed": {
    "_hex": "0xf618"
  },
  "miner": "0xC49418429e58989172a4ACE0bab0cB8D3F00F97f",
  "extraData": "0x476574682f76312e302e312f6c696e75782f676f312e342e32",
  "transactions": [
    {
      "hash": "0x2856a9b8fb882e34f0863fa8dacc8fa4ad206eaf1026860a762cc3dabddfd0e8",
      "blockHash": "0xa5853fe7e1fae1a59f7fab7f2cb660dc186834badd931539ccc1b6b5bf05d9d8",
      "blockNumber": 60183,
      "transactionIndex": 0,
      "confirmations": null,
      "from": "0x96811Ad897894eC178872117C8BF2f03971A393B",
      "gasPrice": {
        "_hex": "0xd5d5ab938"
      },
      "gasLimit": {
        "_hex": "0x5208"
      },
      "to": "0x32Be343B94f860124dC4fEe278FDCBD38C102D88",
      "value": {
        "_hex": "0x455f492f8e0c4800"
      },
      "nonce": 8,
      "data": "0x",
      "r": "0x057ef3d857a322fc688141447571fe68d89b1b2c1172739e0e5461a4752dd117",
      "s": "0x35933f4ca1c2cf08bd9659e6c68e1d6c55ffb09f4916d52d9faca89469c2f4e9",
      "v": 27,
      "creates": null,
      "raw": "0xf86c08850d5d5ab9388252089432be343b94f860124dc4fee278fdcbd38c102d8888455f492f8e0c4800801ba0057ef3d857a322fc688141447571fe68d89b1b2c1172739e0e5461a4752dd117a035933f4ca1c2cf08bd9659e6c68e1d6c55ffb09f4916d52d9faca89469c2f4e9",
      "networkId": 0,
      "chainId": 0
    },
    {
      "hash": "0xa6be3b1c1cd021ed8f4489b9d6b49ebaf8a51012e59d0711feed58bdf8e05704",
      "blockHash": "0xa5853fe7e1fae1a59f7fab7f2cb660dc186834badd931539ccc1b6b5bf05d9d8",
      "blockNumber": 60183,
      "transactionIndex": 1,
      "confirmations": null,
      "from": "0x32Be343B94f860124dC4fEe278FDCBD38C102D88",
      "gasPrice": {
        "_hex": "0xd5d5ab938"
      },
      "gasLimit": {
        "_hex": "0x5208"
      },
      "to": "0x5a0e17A557760E0e54f0cE1224bfDB13a2ac39ac",
      "value": {
        "_hex": "0x4563918244f40000"
      },
      "nonce": 115,
      "data": "0x",
      "r": "0x41a22057f4c223873519a8effb7118ec2cdb27249eeed73102873498ac70274a",
      "s": "0x5919f3c227254cbb3178b241886add4ffd3575a1a7d56df433bccc943d5fadc6",
      "v": 27,
      "creates": null,
      "raw": "0xf86c73850d5d5ab938825208945a0e17a557760e0e54f0ce1224bfdb13a2ac39ac884563918244f40000801ba041a22057f4c223873519a8effb7118ec2cdb27249eeed73102873498ac70274aa05919f3c227254cbb3178b241886add4ffd3575a1a7d56df433bccc943d5fadc6",
      "networkId": 0,
      "chainId": 0
    },
    {
      "hash": "0x413422d3ce32d4273c23dc0a34a50113828260003cdd34f8d9df8e7c3b6cfdcc",
      "blockHash": "0xa5853fe7e1fae1a59f7fab7f2cb660dc186834badd931539ccc1b6b5bf05d9d8",
      "blockNumber": 60183,
      "transactionIndex": 2,
      "confirmations": null,
      "from": "0x6FAE4D4322EE4c30Cde8F8EDD64E7B9f8B7Bd4B4",
      "gasPrice": {
        "_hex": "0xd5d5ab938"
      },
      "gasLimit": {
        "_hex": "0x5208"
      },
      "to": "0x32Be343B94f860124dC4fEe278FDCBD38C102D88",
      "value": {
        "_hex": "0xdcaaae7b89bc800"
      },
      "nonce": 0,
      "data": "0x",
      "r": "0x5f81687cc9667e5a0a5452bb6f12e45ee81a4ab9c570fa89f51e0f615fadce1b",
      "s": "0x32a20512fdf8a9e39bd7c5b7bfe23578f1dea7c719bbc4d08e158797336c8c5d",
      "v": 28,
      "creates": null,
      "raw": "0xf86c80850d5d5ab9388252089432be343b94f860124dc4fee278fdcbd38c102d88880dcaaae7b89bc800801ca05f81687cc9667e5a0a5452bb6f12e45ee81a4ab9c570fa89f51e0f615fadce1ba032a20512fdf8a9e39bd7c5b7bfe23578f1dea7c719bbc4d08e158797336c8c5d",
      "networkId": 0,
      "chainId": 0
    }
  ]
}