{
  "hash": "0x4ba9ef3197d1d47c401f99050940555d0d86baefa8cbf22a8dcb12c1ddc2f08a",
  "parentHash": "0x3e5c2f13bc01a0a32c7eda3560ec3ede19c9d2f6c0fda8436999eee2914e862d",
  "number": 101011,
  "timestamp": 1439816012,
  "nonce": "0x6789dc409d64fa4b",
  "difficulty": 3869561386289,
  "gasLimit": {
    "_hex": "0x2fefd8"
  },
  "gasUsed": {
    "_hex": "0x546c"
  },
  "miner": "0x019D3FA6E3cdA649b26F74395A846575c7bEA14C",
  "extraData": "0x",
  "transactions": [
    {
      "hash": "0x050084c613ac2b67e7224ee912217f9cdd615ee89b142b9c666e51ad016bb2c6",
      "blockHash": "0x4ba9ef3197d1d47c401f99050940555d0d86baefa8cbf22a8dcb12c1ddc2f08a",
      "blockNumber": 101011,
      "transactionIndex": 0,
      "confirmations": null,
      "from": "0x555dF19390c16d01298772BaE8BC3a1152199cBD",
      "gasPrice": {
        "_hex": "0x110c8f7d8de"
      },
      "gasLimit": {
        "_hex": "0xc350"
      },
      "to": "0x2910543Af39abA0Cd09dBb2D50200b3E800A63D2",
      "value": {
        "_hex": "0xa844a7424d9c80000"
      },
      "nonce": 1,
      "data": "0x454e44375541393938",
      "r": "0x81344779fe0118d5290a93386ee1bd59c35b219667e8e99b61fa47d54232b38d",
      "s": "0xb2cbd000169faa32078ebb1da413004578bd4abe1438a52b293ca074927ba3a3",
      "v": 27,
      "creates": null,
      "raw": "0xf87701860110c8f7d8de82c350942910543af39aba0cd09dbb2d50200b3e800a63d2890a844a7424d9c8000089454e443755413939381ba081344779fe0118d5290a93386ee1bd59c35b219667e8e99b61fa47d54232b38da0b2cbd000169faa32078ebb1da413004578bd4abe1438a52b293ca074927ba3a3",
      "networkId": 0,
      "chainId": 0
    }
  ]
}