{
  "hash": "0x5f2af6be978cd8052619a20cbbe9c7d6507ffea9f83f8342f3466b5862271f9b",
  "parentHash": "0xd0af776c1cc6c35ef3c57163941e9ccc3ee17aaef5840ef63701cee57a8a14bf",
  "number": 79381,
  "timestamp": 1439468542,
  "nonce": "0x041c04e67ba486af",
  "difficulty": 2350770293327,
  "gasLimit": {
    "_hex": "0x2fefd8"
  },
  "gasUsed": {
    "_hex": "0x5208"
  },
  "miner": "0x88D74a59454F6cF3B51ef6b9136AFb6b9D405A88",
  "extraData": "0x476574682f76312e302e312d37666266393930632f6c696e75782f676f312e34",
  "transactions": [
    {
      "hash": "0x1ad00da191442a4d1548d463ee79f35fea3f920aa927e4ee259b0b2f652643a2",
      "blockHash": "0x5f2af6be978cd8052619a20cbbe9c7d6507ffea9f83f8342f3466b5862271f9b",
      "blockNumber": 79381,
      "transactionIndex": 0,
      "confirmations": null,
      "from": "0x2910543Af39abA0Cd09dBb2D50200b3E800A63D2",
      "gasPrice": {
        "_hex": "0xd1e2c8a64"
      },
      "gasLimit": {
        "_hex": "0x5208"
      },
      "to": "0x4717DdA36062a4D937DF7601Bd07354806A957EA",
      "value": {
        "_hex": "0xdcef33a6f838000"
      },
      "nonce": 354,
      "data": "0x",
      "r": "0xb079e806abbdefee875a82f7b1eaa14cb83c9e2916da39d680d98307ef87390b",
      "s": "0x396b0f5cf5e99c8d1bf2ccbba0098dbbd427e506694434b983609c54d922174f",
      "v": 28,
      "creates": null,
      "raw": "0xf86e820162850d1e2c8a64825208944717dda36062a4d937df7601bd07354806a957ea880dcef33a6f838000801ca0b079e806abbdefee875a82f7b1eaa14cb83c9e2916da39d680d98307ef87390ba0396b0f5cf5e99c8d1bf2ccbba0098dbbd427e506694434b983609c54d922174f",
      "networkId": 0,
      "chainId": 0
    }
  ]
}