{
  "hash": "0xcea74938e514997a221e5698bbc477b568a73f588c6f0ce409d7393c301207cf",
  "parentHash": "0x63a61227e10b68a7bfd7a22e661568589a3ca41c6acca4a8629f67c5c820a00c",
  "number": 79147,
  "timestamp": 1439465361,
  "nonce": "0xadaead5970d5f7a4",
  "difficulty": 2309873653153,
  "gasLimit": {
    "_hex": "0x2fefd8"
  },
  "gasUsed": {
    "_hex": "0x29040"
  },
  "miner": "0xe6A7a1d47ff21B6321162AEA7C6CB457D5476Bca",
  "extraData": "0x476574682f76312e302e312d38326566323666362f6c696e75782f676f312e34",
  "transactions": [
    {
      "hash": "0x1b6d3bd09b6ff80ea8bda0ee071a0d0cd9a91f953c4764e4389047e3fb104a25",
      "blockHash": "0xcea74938e514997a221e5698bbc477b568a73f588c6f0ce409d7393c301207cf",
      "blockNumber": 79147,
      "transactionIndex": 0,
      "confirmations": null,
      "from": "0xe6A7a1d47ff21B6321162AEA7C6CB457D5476Bca",
      "gasPrice": {
        "_hex": "0xcd462d54f"
      },
      "gasLimit": {
        "_hex": "0x55f0"
      },
      "to": "0x3D1d22d2A05a3E9b3792561f2FF5f8D879352d6c",
      "value": {
        "_hex": "0x1f9109f7a99161d4"
      },
      "nonce": 1373,
      "data": "0x",
      "r": "0x593e1f8c4be5875f4bb17f587baa5da74261d27a04e68f967e928d582d04c31c",
      "s": "0x688766458193cb866de0acf3ecf31de95b65b65846178376366c19ad5e8f9363",
      "v": 28,
      "creates": null,
      "raw": "0xf86e82055d850cd462d54f8255f0943d1d22d2a05a3e9b3792561f2ff5f8d879352d6c881f9109f7a99161d4801ca0593e1f8c4be5875f4bb17f587baa5da74261d27a04e68f967e928d582d04c31ca0688766458193cb866de0acf3ecf31de95b65b65846178376366c19ad5e8f9363",
      "networkId": 0,
      "chainId": 0
    },
    {
      "hash": "0x5e6965505d046ea5a53670e8909e0e67fc66326f75be2940613b2c7947503834",
      "blockHash": "0xcea74938e514997a221e5698bbc477b568a73f588c6f0ce409d7393c301207cf",
      "blockNumber": 79147,
      "transactionIndex": 1,
      "confirmations": null,
      "from": "0xe6A7a1d47ff21B6321162AEA7C6CB457D5476Bca",
      "gasPrice": {
        "_hex": "0xcd462d54f"
      },
      "gasLimit": {
        "_hex": "0x55f0"
      },
      "to": "0xA4fbA5C740C8141d6c4469eD292bfCC8cCAc774F",
      "value": {
        "_hex": "0x201e018ace553578"
      },
      "nonce": 1374,
      "data": "0x",
      "r": "0xb13b3a7436c1bdaa52448573de0e75adad879229270ed845ddeae9ba7c38c753",
      "s": "0x7b32577bceb72c9b2644c2c73c6964aa860db1d2840c8b6a253f8bd2a7d870b6",
      "v": 28,
      "creates": null,
      "raw": "0xf86e82055e850cd462d54f8255f094a4fba5c740c8141d6c4469ed292bfcc8ccac774f88201e018ace553578801ca0b13b3a7436c1bdaa52448573de0e75adad879229270ed845ddeae9ba7c38c753a07b32577bceb72c9b2644c2c73c6964aa860db1d2840c8b6a253f8bd2a7d870b6",
      "networkId": 0,
      "chainId": 0
    },
    {
      "hash": "0x6d4d12a9bcc6256c1ccb606262da391b6f0aeadd7ddb133a66db718207c96b73",
      "blockHash": "0xcea74938e514997a221e5698bbc477b568a73f588c6f0ce409d7393c301207cf",
      "blockNumber": 79147,
      "transactionIndex": 2,
      "confirmations": null,
      "from": "0xe6A7a1d47ff21B6321162AEA7C6CB457D5476Bca",
      "gasPrice": {
        "_hex": "0xcd462d54f"
      },
      "gasLimit": {
        "_hex": "0x55f0"
      },
      "to": "0x5C2422A39Bcb8E469423cA039cf2b89BbE55E93E",
      "value": {
        "_hex": "0x206222e9c21ec4f8"
      },
      "nonce": 1375,
      "data": "0x",
      "r": "0x8f91bd4ce0e3655094bf5baac18ffa650c5f82d4dfc4cfe219d9676d42796453",
      "s": "0x4a8b83f0f1c4633b1df9ad44404497ba1ca5bc610b84a9b3656d6120514b4a4b",
      "v": 28,
      "creates": null,
      "raw": "0xf86e82055f850cd462d54f8255f0945c2422a39bcb8e469423ca039cf2b89bbe55e93e88206222e9c21ec4f8801ca08f91bd4ce0e3655094bf5baac18ffa650c5f82d4dfc4cfe219d9676d42796453a04a8b83f0f1c4633b1df9ad44404497ba1ca5bc610b84a9b3656d6120514b4a4b",
      "networkId": 0,
      "chainId": 0
    },
    {
      "hash": "0x725ba28c2d0a1bf26ca37814e02334bab9a932200a54cff75d28db95b92f27ea",
      "blockHash": "0xcea74938e514997a221e5698bbc477b568a73f588c6f0ce409d7393c301207cf",
      "blockNumber": 79147,
      "transactionIndex": 3,
      "confirmations": null,
      "from": "0xe6A7a1d47ff21B6321162AEA7C6CB457D5476Bca",
      "gasPrice": {
        "_hex": "0xcd462d54f"
      },
      "gasLimit": {
        "_hex": "0x55f0"
      },
      "to": "0xb71F25995CC5De7A465fB37688126E07654Fa662",
      "value": {
        "_hex": "0x2337a1452b41ba38"
      },
      "nonce": 1376,
      "data": "0x",
      "r": "0x4b3bd68fd281a66d36043e7ea0d111f9573592f6d9c107b3fd8e6fc2a514dc19",
      "s": "0x1fdcd0c7708cfc0e05f7d968590dd2e558307cc23f9a59ca4fb219d5235fc332",
      "v": 28,
      "creates": null,
      "raw": "0xf86e820560850cd462d54f8255f094b71f25995cc5de7a465fb37688126e07654fa662882337a1452b41ba38801ca04b3bd68fd281a66d36043e7ea0d111f9573592f6d9c107b3fd8e6fc2a514dc19a01fdcd0c7708cfc0e05f7d968590dd2e558307cc23f9a59ca4fb219d5235fc332",
      "networkId": 0,
      "chainId": 0
    },
    {
      "hash": "0x173379926eee7e28a83b09d9a1559e3bff11db44dd0f4f63fd8d78e1914d58bd",
      "blockHash": "0xcea74938e514997a221e5698bbc477b568a73f588c6f0ce409d7393c301207cf",
      "blockNumber": 79147,
      "transactionIndex": 4,
      "confirmations": null,
      "from": "0xe6A7a1d47ff21B6321162AEA7C6CB457D5476Bca",
      "gasPrice": {
        "_hex": "0xcd462d54f"
      },
      "gasLimit": {
        "_hex": "0x55f0"
      },
      "to": "0xD9a9A8ec148D2B0F7Cd8B2700013A9AA5cf89910",
      "value": {
        "_hex": "0x2a4bb8b92b092e38"
      },
      "nonce": 1377,
      "data": "0x",
      "r": "0x81595fdabba7dfdff5947a4311ea55f23a130db1c9e80a22f3a7a90706123680",
      "s": "0x2ccc604a87bb73f1ff5459d1cb4e03f305b6249bd4df5427a680583ab2a5e5e7",
      "v": 28,
      "creates": null,
      "raw": "0xf86e820561850cd462d54f8255f094d9a9a8ec148d2b0f7cd8b2700013a9aa5cf89910882a4bb8b92b092e38801ca081595fdabba7dfdff5947a4311ea55f23a130db1c9e80a22f3a7a90706123680a02ccc604a87bb73f1ff5459d1cb4e03f305b6249bd4df5427a680583ab2a5e5e7",
      "networkId": 0,
      "chainId": 0
    },
    {
      "hash": "0x0e0bfbbdeab25d487d3d3967e5c247bbfb81ce77bfe11542b0d546d75199ea64",
      "blockHash": "0xcea74938e514997a221e5698bbc477b568a73f588c6f0ce409d7393c301207cf",
      "blockNumber": 79147,
      "transactionIndex": 5,
      "confirmations": null,
      "from": "0xe6A7a1d47ff21B6321162AEA7C6CB457D5476Bca",
      "gasPrice": {
        "_hex": "0xcd462d54f"
      },
      "gasLimit": {
        "_hex": "0x55f0"
      },
      "to": "0x68d3578bFBeEFB9C1e31cE355A29ad3a107F88C5",
      "value": {
        "_hex": "0x2ab8f1734048bbf0"
      },
      "nonce": 1378,
      "data": "0x",
      "r": "0x501d6cd7d07782a23ccee1b283311294d9c1aa74a3bf40c9e6915c6daf47985c",
      "s": "0x261e6f7ec3e9187b99f611a9b28653d7f0c0a75dea906ad3b0a02af8851223c9",
      "v": 27,
      "creates": null,
      "raw": "0xf86e820562850cd462d54f8255f09468d3578bfbeefb9c1e31ce355a29ad3a107f88c5882ab8f1734048bbf0801ba0501d6cd7d07782a23ccee1b283311294d9c1aa74a3bf40c9e6915c6daf47985ca0261e6f7ec3e9187b99f611a9b28653d7f0c0a75dea906ad3b0a02af8851223c9",
      "networkId": 0,
      "chainId": 0
    },
    {
      "hash": "0xfb87e5b437c65d2e95957e0d282840272f87cdfc0be437ffd211367aaf545e0d",
      "blockHash": "0xcea74938e514997a221e5698bbc477b568a73f588c6f0ce409d7393c301207cf",
      "blockNumber": 79147,
      "transactionIndex": 6,
      "confirmations": null,
      "from": "0xe6A7a1d47ff21B6321162AEA7C6CB457D5476Bca",
      "gasPrice": {
        "_hex": "0xcd462d54f"
      },
      "gasLimit": {
        "_hex": "0x55f0"
      },
      "to": "0x1CC77ed71531833bAC1eA0E757Cd150dCD297920",
      "value": {
        "_hex": "0x3021e05f880b4338"
      },
      "nonce": 1379,
      "data": "0x",
      "r": "0x5dda33e119337582efe4cd233e1665a17a6aeb19b7fe7b1da5185f9a2605fd11",
      "s": "0x30169b5666a18c5602b9a8698895057bc80a1d4c63f5120516f4da96c9622770",
      "v": 27,
      "creates": null,
      "raw": "0xf86e820563850cd462d54f8255f0941cc77ed71531833bac1ea0e757cd150dcd297920883021e05f880b4338801ba05dda33e119337582efe4cd233e1665a17a6aeb19b7fe7b1da5185f9a2605fd11a030169b5666a18c5602b9a8698895057bc80a1d4c63f5120516f4da96c9622770",
      "networkId": 0,
      "chainId": 0
    },
    {
      "hash": "0xe75a2a442102cde4426e59a01c05157898f4e517d3d25d56f1d251b206560d10",
      "blockHash": "0xcea74938e514997a221e5698bbc477b568a73f588c6f0ce409d7393c301207cf",
      "blockNumber": 79147,
      "transactionIndex": 7,
      "confirmations": null,
      "from": "0xe6A7a1d47ff21B6321162AEA7C6CB457D5476Bca",
      "gasPrice": {
        "_hex": "0xcd462d54f"
      },
      "gasLimit": {
        "_hex": "0x55f0"
      },
      "to": "0x1333a55102f1f4B3df95298b6CE863eF8d5BAf45",
      "value": {
        "_hex": "0x495c10c852c53840"
      },
      "nonce": 1380,
      "data": "0x",
      "r": "0x069ac45308bf7b3c1332dfe1defc4d9dbd71ad03c77e06132462e0e354e9b75b",
      "s": "0x4b0149f29c1a0ee242cd542b4ff1445b48fc7b4d7ac9183c024a59e18da2f832",
      "v": 27,
      "creates": null,
      "raw": "0xf86e820564850cd462d54f8255f0941333a55102f1f4b3df95298b6ce863ef8d5baf4588495c10c852c53840801ba0069ac45308bf7b3c1332dfe1defc4d9dbd71ad03c77e06132462e0e354e9b75ba04b0149f29c1a0ee242cd542b4ff1445b48fc7b4d7ac9183c024a59e18da2f832",
      "networkId": 0,
      "chainId": 0
    }
  ]
}