{
  "hash": "0x530a86895fff83f0669dbc48845830d6afba8535f85d0438405ca8a588874819",
  "parentHash": "0xb62c32374ba792d2bf5272dfbf68e0e75387c0e2dd3031cd99fccd2754c9e20b",
  "number": 62863,
  "timestamp": 1439195336,
  "nonce": "0xf3035b551c07d873",
  "difficulty": 1786654628840,
  "gasLimit": {
    "_hex": "0x2fefd8"
  },
  "gasUsed": {
    "_hex": "0x546c"
  },
  "miner": "0xF2d2AfF1320476cb8C6b607199D23175cc595693",
  "extraData": "0x476574682f76312e302e312f77696e646f77732f676f312e342e32",
  "transactions": [
    {
      "hash": "0x58e11e7ba3c396a7039f7d047e60db64f478b9c70478291a112790b866f04c8e",
      "blockHash": "0x530a86895fff83f0669dbc48845830d6afba8535f85d0438405ca8a588874819",
      "blockNumber": 62863,
      "transactionIndex": 0,
      "confirmations": null,
      "from": "0xAFe1985fd7FFF4cD6c2370b2BdA170DE647c125d",
      "gasPrice": {
        "_hex": "0xd651435ca"
      },
      "gasLimit": {
        "_hex": "0x55f0"
      },
      "to": "0x2910543Af39abA0Cd09dBb2D50200b3E800A63D2",
      "value": {
        "_hex": "0x8a80151faa660000"
      },
      "nonce": 0,
      "data": "0x454e5946594a515a30",
      "r": "0xd9b4c6a84fa18adda4131d9cc6ecfda953e161ad3fbb8c314ac599e61f9c51e0",
      "s": "0x3fac08a46025cca270d947cb573d6b5353385eed703c89920e33563ef71c9654",
      "v": 28,
      "creates": null,
      "raw": "0xf87580850d651435ca8255f0942910543af39aba0cd09dbb2d50200b3e800a63d2888a80151faa66000089454e5946594a515a301ca0d9b4c6a84fa18adda4131d9cc6ecfda953e161ad3fbb8c314ac599e61f9c51e0a03fac08a46025cca270d947cb573d6b5353385eed703c89920e33563ef71c9654",
      "networkId": 0,
      "chainId": 0
    }
  ]
}