{
  "hash": "0x24ea16d28ba0f56b87ee331565a2036d286bff435492aee1b7be263f6a8930d6",
  "parentHash": "0xcf19bb052c9ddcbbc9cff4153dd947ad238d20e9dc250665d854d9be9e9e205c",
  "number": 66152,
  "timestamp": 1439249653,
  "nonce": "0x216dce534391bcab",
  "difficulty": 1939581847201,
  "gasLimit": {
    "_hex": "0x2fefd8"
  },
  "gasUsed": {
    "_hex": "0xa2c7"
  },
  "miner": "0x937a4C6CFA806b2FA9796F482CDA67dB579dE173",
  "extraData": "0x476574682f76312e302e312d37666266393930632f6c696e75782f676f312e34",
  "transactions": [
    {
      "hash": "0x6434744545b5c1189566a50203b322118710bef43a224b51d61d5f35c22e058a",
      "blockHash": "0x24ea16d28ba0f56b87ee331565a2036d286bff435492aee1b7be263f6a8930d6",
      "blockNumber": 66152,
      "transactionIndex": 0,
      "confirmations": null,
      "from": "0xa14Cf6cEC1c6aAe4b608458F6e14692863A937Aa",
      "gasPrice": {
        "_hex": "0xcac23b783"
      },
      "gasLimit": {
        "_hex": "0x61a80"
      },
      "to": "0x5Fe5B7546D1628f7348B023A0393de1FC825A4fD",
      "value": {
        "_hex": "0x1b1ae4d6e2ef500000"
      },
      "nonce": 10,
      "data": "0x7a0d819e",
      "r": "0x7e4fa9a84eeac5672e8efa5991ea336aa76e6a9f5bf0cbba6837c720360aa79a",
      "s": "0x4479b9f6e0676ee3d558d76d1c3151c8c97a1083742080f3867dcd39f1c88645",
      "v": 27,
      "creates": null,
      "raw": "0xf8720a850cac23b78383061a80945fe5b7546d1628f7348b023a0393de1fc825a4fd891b1ae4d6e2ef500000847a0d819e1ba07e4fa9a84eeac5672e8efa5991ea336aa76e6a9f5bf0cbba6837c720360aa79aa04479b9f6e0676ee3d558d76d1c3151c8c97a1083742080f3867dcd39f1c88645",
      "networkId": 0,
      "chainId": 0
    }
  ]
}