{
  "hash": "0x8ea4d2e5e326b0583a3dcb7d64197928bb8720cc64fe422d4660d39b2d81fd9c",
  "parentHash": "0xf5c8c5991f6f5d49804ee20a44d53a7e1c336d1350c47d6cabd8688ea15ca541",
  "number": 49273,
  "timestamp": 1438970911,
  "nonce": "0x337386302e740eed",
  "difficulty": 1479250145151,
  "gasLimit": {
    "_hex": "0x2b387"
  },
  "gasUsed": {
    "_hex": "0x19ef0"
  },
  "miner": "0xab84940B570d6358ed6A9Dbf7e0bc8Ec8F5A6E89",
  "extraData": "0x322831652933",
  "transactions": [
    {
      "hash": "0xdec40874b8af2909a94e4d363cbdcd1ff8772d70250ccba32a0f49ccab38b6c3",
      "blockHash": "0x8ea4d2e5e326b0583a3dcb7d64197928bb8720cc64fe422d4660d39b2d81fd9c",
      "blockNumber": 49273,
      "transactionIndex": 0,
      "confirmations": null,
      "from": "0x38d2e9154964b41C8d50A7487D391E7eE2c3D3c2",
      "gasPrice": {
        "_hex": "0xd8c89f8c9"
      },
      "gasLimit": {
        "_hex": "0x15f90"
      },
      "to": "0x2910543Af39abA0Cd09dBb2D50200b3E800A63D2",
      "value": {
        "_hex": "0x22b1c8c1227a0000"
      },
      "nonce": 2,
      "data": "0x454e305133425a4847",
      "r": "0x54a296d744f2651108b5c3e58aaf14d7130eeaa478ccde95dd710e0f7d989b5d",
      "s": "0x0c2683b60d056120aeed0f6ff0b803c427dba045bd84f88488b8dd3c8437bef0",
      "v": 27,
      "creates": null,
      "raw": "0xf87602850d8c89f8c983015f90942910543af39aba0cd09dbb2d50200b3e800a63d28822b1c8c1227a000089454e305133425a48471ba054a296d744f2651108b5c3e58aaf14d7130eeaa478ccde95dd710e0f7d989b5da00c2683b60d056120aeed0f6ff0b803c427dba045bd84f88488b8dd3c8437bef0",
      "networkId": 0,
      "chainId": 0
    },
    {
      "hash": "0x803d37e1735c839d5a4319a2c1fa572bfc6d1ee0e2ccd9e47e238b57913c16e1",
      "blockHash": "0x8ea4d2e5e326b0583a3dcb7d64197928bb8720cc64fe422d4660d39b2d81fd9c",
      "blockNumber": 49273,
      "transactionIndex": 1,
      "confirmations": null,
      "from": "0xFb26AE2d3621829472555fBD11Bb2A324B7A5C57",
      "gasPrice": {
        "_hex": "0xd8c2213ff"
      },
      "gasLimit": {
        "_hex": "0x5208"
      },
      "to": "0x32Be343B94f860124dC4fEe278FDCBD38C102D88",
      "value": {
        "_hex": "0x1e7590493bba6c00000"
      },
      "nonce": 1,
      "data": "0x",
      "r": "0xba7f2b3137a2a920514366f791817481e99a0adda579b419c2275e08a6611d32",
      "s": "0x5b54e107f8f8322b94e526778d464771a57e087817c7fe84113e6cd4422256c9",
      "v": 28,
      "creates": null,
      "raw": "0xf86e01850d8c2213ff8252089432be343b94f860124dc4fee278fdcbd38c102d888a01e7590493bba6c00000801ca0ba7f2b3137a2a920514366f791817481e99a0adda579b419c2275e08a6611d32a05b54e107f8f8322b94e526778d464771a57e087817c7fe84113e6cd4422256c9",
      "networkId": 0,
      "chainId": 0
    },
    {
      "hash": "0x2c72740373e443f2a82004f36f767b72d6673386f25fdc4e5dbecad01ea20dfc",
      "blockHash": "0x8ea4d2e5e326b0583a3dcb7d64197928bb8720cc64fe422d4660d39b2d81fd9c",
      "blockNumber": 49273,
      "transactionIndex": 2,
      "confirmations": null,
      "from": "0xD61f065D146DDE62e673fA519D464F8793F62e54",
      "gasPrice": {
        "_hex": "0xd8c2213ff"
      },
      "gasLimit": {
        "_hex": "0x5208"
      },
      "to": "0x32Be343B94f860124dC4fEe278FDCBD38C102D88",
      "value": {
        "_hex": "0x15af3ca858388e0000"
      },
      "nonce": 0,
      "data": "0x",
      "r": "0xbb03fc30ee11cdf6b95e6751106beb0e46a73a0fb56d9275eb12ddbad9761082",
      "s": "0x54add674a5202b654cdc14596c9c26891daf7c9e9eb9ffd9ce043fb60c2d1b41",
      "v": 27,
      "creates": null,
      "raw": "0xf86d80850d8c2213ff8252089432be343b94f860124dc4fee278fdcbd38c102d888915af3ca858388e0000801ba0bb03fc30ee11cdf6b95e6751106beb0e46a73a0fb56d9275eb12ddbad9761082a054add674a5202b654cdc14596c9c26891daf7c9e9eb9ffd9ce043fb60c2d1b41",
      "networkId": 0,
      "chainId": 0
    },
    {
      "hash": "0x9baff4b1997235cef205b04741a113321ac6c6131a7bb36e40ed5a6b761a427f",
      "blockHash": "0x8ea4d2e5e326b0583a3dcb7d64197928bb8720cc64fe422d4660d39b2d81fd9c",
      "blockNumber": 49273,
      "transactionIndex": 3,
      "confirmations": null,
      "from": "0x845264090f92208be6d81cbCdE052691F39e4716",
      "gasPrice": {
        "_hex": "0xd8c2213ff"
      },
      "gasLimit": {
        "_hex": "0x5208"
      },
      "to": "0x32Be343B94f860124dC4fEe278FDCBD38C102D88",
      "value": {
        "_hex": "0x15eee289a168800"
      },
      "nonce": 0,
      "data": "0x",
      "r": "0x89bfc728feb29a3fe3b4cedc24dc6ae8c34c30a4e502648450460b3e396b05d1",
      "s": "0x5b210f194fa1baf515b2830804b7fbfde0098e7d59ecd32c82821dac15c8ed7e",
      "v": 28,
      "creates": null,
      "raw": "0xf86c80850d8c2213ff8252089432be343b94f860124dc4fee278fdcbd38c102d8888015eee289a168800801ca089bfc728feb29a3fe3b4cedc24dc6ae8c34c30a4e502648450460b3e396b05d1a05b210f194fa1baf515b2830804b7fbfde0098e7d59ecd32c82821dac15c8ed7e",
      "networkId": 0,
      "chainId": 0
    },
    {
      "hash": "0x918f8c8a57751a7f11693a2ea6e216fc6af7de8381ddf7c0341a1d8ba43f0ad5",
      "blockHash": "0x8ea4d2e5e326b0583a3dcb7d64197928bb8720cc64fe422d4660d39b2d81fd9c",
      "blockNumber": 49273,
      "transactionIndex": 4,
      "confirmations": null,
      "from": "0x4c5a01D2D3B8dD733d7c0216aeBfA391E38F2201",
      "gasPrice": {
        "_hex": "0xd89df69fd"
      },
      "gasLimit": {
        "_hex": "0x15f90"
      },
      "to": "0x2910543Af39abA0Cd09dBb2D50200b3E800A63D2",
      "value": {
        "_hex": "0x4563918244f40000"
      },
      "nonce": 0,
      "data": "0x454e384137384d3930",
      "r": "0x526917e6dde73978f3f55f18a1958de5a162bb58d83738ef412a220a10f1c607",
      "s": "0x054470fa4f1b7c394fa87bbe9931998b61e39b881c90fb88073663be88f106d3",
      "v": 27,
      "creates": null,
      "raw": "0xf87680850d89df69fd83015f90942910543af39aba0cd09dbb2d50200b3e800a63d2884563918244f4000089454e384137384d39301ba0526917e6dde73978f3f55f18a1958de5a162bb58d83738ef412a220a10f1c607a0054470fa4f1b7c394fa87bbe9931998b61e39b881c90fb88073663be88f106d3",
      "networkId": 0,
      "chainId": 0
    }
  ]
}