{
  "hash": "0x996a5b69ef7607934c4c4f33611ef0d50b0e3716871e62227f1cae0c27261b9f",
  "parentHash": "0xd6fb404737c8426106ddaa2539a0fba069fcfe696f14dd3124dde43f0296f468",
  "number": 77705,
  "timestamp": 1439441516,
  "nonce": "0x8471d86178eb8c07",
  "difficulty": 2270015366519,
  "gasLimit": {
    "_hex": "0x2fefd8"
  },
  "gasUsed": {
    "_hex": "0x5208"
  },
  "miner": "0xC603Ab5ef41fC61AA8b76bEddb09e3Cfcbb174BD",
  "extraData": "0x476574682f76312e302e312f77696e646f77732f676f312e342e32",
  "transactions": [
    {
      "hash": "0x5df7f8d03799cbf7c3f42901270f24452949f1802ada1952ae59d8cdaeda1128",
      "blockHash": "0x996a5b69ef7607934c4c4f33611ef0d50b0e3716871e62227f1cae0c27261b9f",
      "blockNumber": 77705,
      "transactionIndex": 0,
      "confirmations": null,
      "from": "0x120A270bbC009644e35F0bB6ab13f95b8199c4ad",
      "gasPrice": {
        "_hex": "0xdfdcf05d3"
      },
      "gasLimit": {
        "_hex": "0x3d090"
      },
      "to": "0xcD063B3081Ea55535E5b60a21eff7f14E785A877",
      "value": {
        "_hex": "0x15af1d78b58c400000"
      },
      "nonce": 323,
      "data": "0x",
      "r": "0x0e39b8483c02bca2c2098f89ed1e4ab2baeb6a26fce77cdf800dd3b6d76099ed",
      "s": "0x44a974a4957c9fbd00554a01f091aa9c5ea29ec205e2f753a43ae7991a74c7af",
      "v": 28,
      "creates": null,
      "raw": "0xf870820143850dfdcf05d38303d09094cd063b3081ea55535e5b60a21eff7f14e785a8778915af1d78b58c400000801ca00e39b8483c02bca2c2098f89ed1e4ab2baeb6a26fce77cdf800dd3b6d76099eda044a974a4957c9fbd00554a01f091aa9c5ea29ec205e2f753a43ae7991a74c7af",
      "networkId": 0,
      "chainId": 0
    }
  ]
}