{
  "hash": "0x061b452ad153a1710486bf5a2374660dcde67935669929c7fba86e3bba33ba06",
  "parentHash": "0xf8196d8bd7238f0b3222055afd83fa51b96878b273e92d97c03e08a54d12a8da",
  "number": 92532,
  "timestamp": 1439673499,
  "nonce": "0xa0821807a7b5d830",
  "difficulty": 3528561261763,
  "gasLimit": {
    "_hex": "0x2fefd8"
  },
  "gasUsed": {
    "_hex": "0x5208"
  },
  "miner": "0xe6A7a1d47ff21B6321162AEA7C6CB457D5476Bca",
  "extraData": "0x476574682f76312e302e312d38326566323666362f6c696e75782f676f312e34",
  "transactions": [
    {
      "hash": "0x24f43a401fe810d85bbca35a197a82f8ed729474347dc37807670bbb21305575",
      "blockHash": "0x061b452ad153a1710486bf5a2374660dcde67935669929c7fba86e3bba33ba06",
      "blockNumber": 92532,
      "transactionIndex": 0,
      "confirmations": null,
      "from": "0x2910543Af39abA0Cd09dBb2D50200b3E800A63D2",
      "gasPrice": {
        "_hex": "0xda894b720"
      },
      "gasLimit": {
        "_hex": "0x5208"
      },
      "to": "0xb4Ad43131139584E8f6F31D578E0dC4d11Df6D7b",
      "value": {
        "_hex": "0x2b5e3af16b1880000"
      },
      "nonce": 831,
      "data": "0x",
      "r": "0xe150d3cdc3d1055d76fa33e61809463ae14852d052777a8c5508cee61a9829a3",
      "s": "0x74a8c3eaddf5d6ae4f0f69e31ac174302e8a0131034b0cd26024be161cb818c9",
      "v": 27,
      "creates": null,
      "raw": "0xf86f82033f850da894b72082520894b4ad43131139584e8f6f31d578e0dc4d11df6d7b8902b5e3af16b1880000801ba0e150d3cdc3d1055d76fa33e61809463ae14852d052777a8c5508cee61a9829a3a074a8c3eaddf5d6ae4f0f69e31ac174302e8a0131034b0cd26024be161cb818c9",
      "networkId": 0,
      "chainId": 0
    }
  ]
}