{
  "hash": "0x6eaf656c2ce0db1741476c131ce18fe11e2ae6ee441def70e7a2e5a7125e1a5e",
  "parentHash": "0xf637cdd6d335ef9e175733d972d742fac36e66e64e17200cb171d1c4576c11d3",
  "number": 119589,
  "timestamp": 1440145592,
  "nonce": "0x6ea8f73efd9ccbd0",
  "difficulty": 4383640871800,
  "gasLimit": {
    "_hex": "0x2fefd8"
  },
  "gasUsed": {
    "_hex": "0xa410"
  },
  "miner": "0x52bc44d5378309EE2abF1539BF71dE1b7d7bE3b5",
  "extraData": "0xd783010002844765746887676f312e342e32856c696e7578",
  "transactions": [
    {
      "hash": "0x66c3d057d2b3b783b71c6a18ca4cd45457f2ecdedfc7d12ac3a92af26db322a4",
      "blockHash": "0x6eaf656c2ce0db1741476c131ce18fe11e2ae6ee441def70e7a2e5a7125e1a5e",
      "blockNumber": 119589,
      "transactionIndex": 0,
      "confirmations": null,
      "from": "0xAF17A4ab5d6B10055Fc1eB1BFaCcbDe69B83aF76",
      "gasPrice": {
        "_hex": "0xba43b7400"
      },
      "gasLimit": {
        "_hex": "0x5208"
      },
      "to": "0x32Be343B94f860124dC4fEe278FDCBD38C102D88",
      "value": {
        "_hex": "0x20f5763b2abd46000"
      },
      "nonce": 9,
      "data": "0x",
      "r": "0xf56e408ff42fcb98a9f32bed0cfdbcff2e36859dedfa7f958d779ff9fd75283c",
      "s": "0x1ec9689e08c636ffff1199b71784f2d7c27bad04a66df1b50b1ac61484b7b67d",
      "v": 27,
      "creates": null,
      "raw": "0xf86d09850ba43b74008252089432be343b94f860124dc4fee278fdcbd38c102d8889020f5763b2abd46000801ba0f56e408ff42fcb98a9f32bed0cfdbcff2e36859dedfa7f958d779ff9fd75283ca01ec9689e08c636ffff1199b71784f2d7c27bad04a66df1b50b1ac61484b7b67d",
      "networkId": 0,
      "chainId": 0
    },
    {
      "hash": "0x33f7dae04ee7d26c0d0d1b4c48d450e317a2c76f9ed846110d4588aa48817793",
      "blockHash": "0x6eaf656c2ce0db1741476c131ce18fe11e2ae6ee441def70e7a2e5a7125e1a5e",
      "blockNumber": 119589,
      "transactionIndex": 1,
      "confirmations": null,
      "from": "0x608f4b86321a68453f9adf6F06F7Fc3E621739ad",
      "gasPrice": {
        "_hex": "0xba43b7400"
      },
      "gasLimit": {
        "_hex": "0x5208"
      },
      "to": "0x32Be343B94f860124dC4fEe278FDCBD38C102D88",
      "value": {
        "_hex": "0x456f5bf544206800"
      },
      "nonce": 39,
      "data": "0x",
      "r": "0x2c327b073f6a2a3d6e279374bb366e0816116be290cb3a7a9cf768d139660991",
      "s": "0x41ff3bbd289845d6f4c16f35c2cd5f527d62608dc0f5ad1f74777e16f253dabc",
      "v": 27,
      "creates": null,
      "raw": "0xf86c27850ba43b74008252089432be343b94f860124dc4fee278fdcbd38c102d8888456f5bf544206800801ba02c327b073f6a2a3d6e279374bb366e0816116be290cb3a7a9cf768d139660991a041ff3bbd289845d6f4c16f35c2cd5f527d62608dc0f5ad1f74777e16f253dabc",
      "networkId": 0,
      "chainId": 0
    }
  ]
}