{
  "hash": "0xe31760c5bacb511c5b0376d7695e91981100f39afdf3ba1510a9ac077d83096a",
  "parentHash": "0x7e91b43ee46abebf0c80ca8c865463672161cdd58d2a5353ec933b65389e167a",
  "number": 68024,
  "timestamp": 1439281432,
  "nonce": "0x1e6f926c02a286ff",
  "difficulty": 1950544614010,
  "gasLimit": {
    "_hex": "0x2fefd8"
  },
  "gasUsed": {
    "_hex": "0x5208"
  },
  "miner": "0x019D3FA6E3cdA649b26F74395A846575c7bEA14C",
  "extraData": "0x",
  "transactions": [
    {
      "hash": "0x10a517b2e695d541178c2c480966b09349a84e5646b9baa0939517c96eebf7b0",
      "blockHash": "0xe31760c5bacb511c5b0376d7695e91981100f39afdf3ba1510a9ac077d83096a",
      "blockNumber": 68024,
      "transactionIndex": 0,
      "confirmations": null,
      "from": "0x3738B70e6241841FFb3e1f733d77C15EBc227278",
      "gasPrice": {
        "_hex": "0xd4522dbbf"
      },
      "gasLimit": {
        "_hex": "0x15f90"
      },
      "to": "0xdD81AaddCc8448A5fC0ac28DB93ec6801C21E8Ef",
      "value": {
        "_hex": "0x13f306a2409fc0000"
      },
      "nonce": 1,
      "data": "0x",
      "r": "0x59bd81f3a801433b3f19428d0e562315f6df1193e014fa533d0e5431c67eeac3",
      "s": "0x424609a636124cd1495859f5109e8844bf14a06b184bbd853a5b5a406cc7612a",
      "v": 28,
      "creates": null,
      "raw": "0xf86e01850d4522dbbf83015f9094dd81aaddcc8448a5fc0ac28db93ec6801c21e8ef89013f306a2409fc0000801ca059bd81f3a801433b3f19428d0e562315f6df1193e014fa533d0e5431c67eeac3a0424609a636124cd1495859f5109e8844bf14a06b184bbd853a5b5a406cc7612a",
      "networkId": 0,
      "chainId": 0
    }
  ]
}