{
  "hash": "0xee265a0ca9258ac63b2ab42079c838d60e8eb6928632ae344f8be695c2a33081",
  "parentHash": "0x21b8dffe06753145f373e9d1ddcf6d9dc218043eb8450ab4734bf9547dca24eb",
  "number": 80203,
  "timestamp": 1439481735,
  "nonce": "0xd2c878a425aed598",
  "difficulty": 2373606894293,
  "gasLimit": {
    "_hex": "0x2fefd8"
  },
  "gasUsed": {
    "_hex": "0x112e7"
  },
  "miner": "0xe090Ffdced499691fA9379752a59F8A058c1eE4A",
  "extraData": "0x476574682f76312e302e312f6c696e75782f676f312e342e32",
  "transactions": [
    {
      "hash": "0xa15c0f38baf536e2b1f16b39861a1364c155f53663f407996065fcf1671c2358",
      "blockHash": "0xee265a0ca9258ac63b2ab42079c838d60e8eb6928632ae344f8be695c2a33081",
      "blockNumber": 80203,
      "transactionIndex": 0,
      "confirmations": null,
      "from": "0x87C5B5874A18B4306DF8a752a6C8cc3E82daFc19",
      "gasPrice": {
        "_hex": "0x11993d3fbaf"
      },
      "gasLimit": {
        "_hex": "0x493e0"
      },
      "to": "0xC4c51de1AbF5D60DBd329eC0F999Fd8f021ae9fC",
      "value": {
        "_hex": "0x0"
      },
      "nonce": 140,
      "data": "0xbd66528a6b6b6b0000000000000000000000000000000000000000000000000000000000",
      "r": "0x9511f52b598afab60903b18bee744bc11349626abc6c2cf59ca04810a51e625f",
      "s": "0x342b6d1bd38d33074e62117ba76926f14ab77dbbf3075bb0a1160d357f166e98",
      "v": 27,
      "creates": null,
      "raw": "0xf88b818c86011993d3fbaf830493e094c4c51de1abf5d60dbd329ec0f999fd8f021ae9fc80a4bd66528a6b6b6b00000000000000000000000000000000000000000000000000000000001ba09511f52b598afab60903b18bee744bc11349626abc6c2cf59ca04810a51e625fa0342b6d1bd38d33074e62117ba76926f14ab77dbbf3075bb0a1160d357f166e98",
      "networkId": 0,
      "chainId": 0
    },
    {
      "hash": "0xa9b5354bafeeea0ff7ff80eefc3fa12dd0ebf68eadebf85d744daf9d55e37760",
      "blockHash": "0xee265a0ca9258ac63b2ab42079c838d60e8eb6928632ae344f8be695c2a33081",
      "blockNumber": 80203,
      "transactionIndex": 1,
      "confirmations": null,
      "from": "0x9D07C02db02Cab411277aE82bF03C4C63c481379",
      "gasPrice": {
        "_hex": "0xd96a7bb3a"
      },
      "gasLimit": {
        "_hex": "0x5208"
      },
      "to": "0x32Be343B94f860124dC4fEe278FDCBD38C102D88",
      "value": {
        "_hex": "0x71f1234ad3ca740000"
      },
      "nonce": 0,
      "data": "0x",
      "r": "0x3fdb98ca8a3a008304127b5a2fa3636ac62bf56c3ea9a64fec47294da167358b",
      "s": "0x1e6f9c0ade84c838da622f81eb867a6447884c17abfe1c0a3e7d16daf2504518",
      "v": 27,
      "creates": null,
      "raw": "0xf86d80850d96a7bb3a8252089432be343b94f860124dc4fee278fdcbd38c102d888971f1234ad3ca740000801ba03fdb98ca8a3a008304127b5a2fa3636ac62bf56c3ea9a64fec47294da167358ba01e6f9c0ade84c838da622f81eb867a6447884c17abfe1c0a3e7d16daf2504518",
      "networkId": 0,
      "chainId": 0
    },
    {
      "hash": "0x17237776e5fac0b76d85888149f66237ee9a9b730c93230af7d088fdc5184dab",
      "blockHash": "0xee265a0ca9258ac63b2ab42079c838d60e8eb6928632ae344f8be695c2a33081",
      "blockNumber": 80203,
      "transactionIndex": 2,
      "confirmations": null,
      "from": "0x06EC48800B2DB3eEfa052e98A9b5Fc2Bf783Ee74",
      "gasPrice": {
        "_hex": "0xd96a7bb3a"
      },
      "gasLimit": {
        "_hex": "0x5208"
      },
      "to": "0x32Be343B94f860124dC4fEe278FDCBD38C102D88",
      "value": {
        "_hex": "0x11589eb5983212000"
      },
      "nonce": 2,
      "data": "0x",
      "r": "0xe54810d557bac3a0ba55f7ccd845ceb8adc451c07a297a5a9f9b7885c4cabdd9",
      "s": "0x1b76e3101be20022e6ffa4c07a3f4089e7486729b507f725b5d17dfed5f97795",
      "v": 28,
      "creates": null,
      "raw": "0xf86d02850d96a7bb3a8252089432be343b94f860124dc4fee278fdcbd38c102d8889011589eb5983212000801ca0e54810d557bac3a0ba55f7ccd845ceb8adc451c07a297a5a9f9b7885c4cabdd9a01b76e3101be20022e6ffa4c07a3f4089e7486729b507f725b5d17dfed5f97795",
      "networkId": 0,
      "chainId": 0
    }
  ]
}