{
  "hash": "0xb1bbedf022180ca3bed4835510b93ebf4847ee33a64c883e9f2dc182c205f8f3",
  "parentHash": "0xc1f699a58e4fa2d7b6219dd4b279fec9d1a0822415037d02044bea371f54b61a",
  "number": 84806,
  "timestamp": 1439554834,
  "nonce": "0x4b71427306ad339b",
  "difficulty": 2629751423730,
  "gasLimit": {
    "_hex": "0x2fefd8"
  },
  "gasUsed": {
    "_hex": "0xf87c"
  },
  "miner": "0x790b8a3cE86E707ED0eD32bF89B3269692a23CC1",
  "extraData": "0xd783010001844765746887676f312e342e32856c696e7578",
  "transactions": [
    {
      "hash": "0xbfd512bdd09b2849abda46454a879288c16e6ed434a7f82a489f5674ced768b6",
      "blockHash": "0xb1bbedf022180ca3bed4835510b93ebf4847ee33a64c883e9f2dc182c205f8f3",
      "blockNumber": 84806,
      "transactionIndex": 0,
      "confirmations": null,
      "from": "0x4697bAAf9CcB603fd30430689d435445E9c98BF5",
      "gasPrice": {
        "_hex": "0x110c8f7d8de"
      },
      "gasLimit": {
        "_hex": "0xc350"
      },
      "to": "0x2910543Af39abA0Cd09dBb2D50200b3E800A63D2",
      "value": {
        "_hex": "0x1314fb37062980000"
      },
      "nonce": 0,
      "data": "0x454e36444852485630",
      "r": "0xa1a3f659d5e7737ea620d2f48a17d5dcc690d4133343df1247d15a48670bc4c0",
      "s": "0xa583ce9be542553e26e6f7dcdbccb8f555e1da84565606b4314737b558e1bc49",
      "v": 28,
      "creates": null,
      "raw": "0xf87780860110c8f7d8de82c350942910543af39aba0cd09dbb2d50200b3e800a63d28901314fb3706298000089454e364448524856301ca0a1a3f659d5e7737ea620d2f48a17d5dcc690d4133343df1247d15a48670bc4c0a0a583ce9be542553e26e6f7dcdbccb8f555e1da84565606b4314737b558e1bc49",
      "networkId": 0,
      "chainId": 0
    },
    {
      "hash": "0xf4c1a82973bc208d23c411d83ab98284218c37da2f9d3eb93ff0adb2eb2ef29a",
      "blockHash": "0xb1bbedf022180ca3bed4835510b93ebf4847ee33a64c883e9f2dc182c205f8f3",
      "blockNumber": 84806,
      "transactionIndex": 1,
      "confirmations": null,
      "from": "0x2910543Af39abA0Cd09dBb2D50200b3E800A63D2",
      "gasPrice": {
        "_hex": "0xd7cc201c2"
      },
      "gasLimit": {
        "_hex": "0x5208"
      },
      "to": "0x4835b2f84407499A34fE1240dd3148257bFa9E87",
      "value": {
        "_hex": "0x56bb59ab42b2f8000"
      },
      "nonce": 576,
      "data": "0x",
      "r": "0xf29a5078bf3028daf2e7400a5fbf472d2d4ff1029d004468c08989f7082a78e1",
      "s": "0x0f37a12368a3cbb7eb00e5f01eaeca58e73eb10dc6249a378b012e7b457d8fce",
      "v": 27,
      "creates": null,
      "raw": "0xf86f820240850d7cc201c2825208944835b2f84407499a34fe1240dd3148257bfa9e8789056bb59ab42b2f8000801ba0f29a5078bf3028daf2e7400a5fbf472d2d4ff1029d004468c08989f7082a78e1a00f37a12368a3cbb7eb00e5f01eaeca58e73eb10dc6249a378b012e7b457d8fce",
      "networkId": 0,
      "chainId": 0
    },
    {
      "hash": "0x3d2e0262f35510a38b5574a4168a3b3acc0cb0a072f5dcfc16787e37158cb05d",
      "blockHash": "0xb1bbedf022180ca3bed4835510b93ebf4847ee33a64c883e9f2dc182c205f8f3",
      "blockNumber": 84806,
      "transactionIndex": 2,
      "confirmations": null,
      "from": "0x32Be343B94f860124dC4fEe278FDCBD38C102D88",
      "gasPrice": {
        "_hex": "0xd27b9c1a8"
      },
      "gasLimit": {
        "_hex": "0x5208"
      },
      "to": "0x292D4fe90093af505D6073477Ed402B022f9b8f9",
      "value": {
        "_hex": "0x2357b105722fe8000"
      },
      "nonce": 706,
      "data": "0x",
      "r": "0xec48e7c85332005e223ba60574ecd99d3ae6bf81524a3ad1c8edcb6103e59de6",
      "s": "0x31f9eb015d9a51564de1a5e01e9f98cf24b1136a2a447ddc11c2164099753d15",
      "v": 28,
      "creates": null,
      "raw": "0xf86f8202c2850d27b9c1a882520894292d4fe90093af505d6073477ed402b022f9b8f98902357b105722fe8000801ca0ec48e7c85332005e223ba60574ecd99d3ae6bf81524a3ad1c8edcb6103e59de6a031f9eb015d9a51564de1a5e01e9f98cf24b1136a2a447ddc11c2164099753d15",
      "networkId": 0,
      "chainId": 0
    }
  ]
}