{
  "hash": "0x8dce0e0b73d446c7cf539ee8ddbec90332bdd7c85a79bf40c6584f758289fe42",
  "parentHash": "0x8c0c3c22fd06b75ceb4f1702b42520c66c561dd3c330f87264b05841646d49ea",
  "number": 103504,
  "timestamp": 1439854441,
  "nonce": "0xd54e258b81feb857",
  "difficulty": 4184793092360,
  "gasLimit": {
    "_hex": "0x2fefd8"
  },
  "gasUsed": {
    "_hex": "0x5208"
  },
  "miner": "0xe6A7a1d47ff21B6321162AEA7C6CB457D5476Bca",
  "extraData": "0x476574682f76312e302e312d38326566323666362f6c696e75782f676f312e34",
  "transactions": [
    {
      "hash": "0x8c9a6dd3af7b3608141ba233949e9103e91d6adae564aca72fbc42ad765a4621",
      "blockHash": "0x8dce0e0b73d446c7cf539ee8ddbec90332bdd7c85a79bf40c6584f758289fe42",
      "blockNumber": 103504,
      "transactionIndex": 0,
      "confirmations": null,
      "from": "0xCbbdAd70d0ff27254925AD37B5C135EEe1116615",
      "gasPrice": {
        "_hex": "0x108bb44c9cd"
      },
      "gasLimit": {
        "_hex": "0x15f90"
      },
      "to": "0x886e83d9133F65B9c27A946f699E88e71A888E4C",
      "value": {
        "_hex": "0x1d24b2dfac520000"
      },
      "nonce": 13,
      "data": "0x",
      "r": "0xcd678d70bad3e32af771c292337f6ebbc5285b55777d769ce659399da4d42c94",
      "s": "0x40541a7de09048952b2c13141c5d5499a938186ccb37806f3776440390b4d2ed",
      "v": 27,
      "creates": null,
      "raw": "0xf86e0d860108bb44c9cd83015f9094886e83d9133f65b9c27a946f699e88e71a888e4c881d24b2dfac520000801ba0cd678d70bad3e32af771c292337f6ebbc5285b55777d769ce659399da4d42c94a040541a7de09048952b2c13141c5d5499a938186ccb37806f3776440390b4d2ed",
      "networkId": 0,
      "chainId": 0
    }
  ]
}