{
  "hash": "0x7a1f6a8b4e5266c209561d43a909a26432867d854e87a959a8ae1ee910d490b1",
  "parentHash": "0x3826920db096a4cd911662340af3fdd1a026cdb150d04627015ef07352bc8865",
  "number": 87047,
  "timestamp": 1439586441,
  "nonce": "0x186ddcf54e4ece88",
  "difficulty": 3030452756604,
  "gasLimit": {
    "_hex": "0x2fefd8"
  },
  "gasUsed": {
    "_hex": "0xa8a4"
  },
  "miner": "0xe6A7a1d47ff21B6321162AEA7C6CB457D5476Bca",
  "extraData": "0x476574682f76312e302e312d38326566323666362f6c696e75782f676f312e34",
  "transactions": [
    {
      "hash": "0x22a7eb6fd3b4cffc4f5dab9765933709e1198d7697bc32a87dd84828f05b1a78",
      "blockHash": "0x7a1f6a8b4e5266c209561d43a909a26432867d854e87a959a8ae1ee910d490b1",
      "blockNumber": 87047,
      "transactionIndex": 0,
      "confirmations": null,
      "from": "0xd20Dcb0B78682B94bC3000281448D557a20bfC83",
      "gasPrice": {
        "_hex": "0x110c8f7d8de"
      },
      "gasLimit": {
        "_hex": "0xc350"
      },
      "to": "0x2910543Af39abA0Cd09dBb2D50200b3E800A63D2",
      "value": {
        "_hex": "0x3076be07628f380000"
      },
      "nonce": 0,
      "data": "0x454e524a4544383047",
      "r": "0xde237bae213fa26650986a89cd1725955f04b614d89ab3c07465a8d8863c604e",
      "s": "0x7fe1c0cd84b8aff07542ba7f08e1977fa9959b230a9cc54eab11e6a5280541a6",
      "v": 27,
      "creates": null,
      "raw": "0xf87780860110c8f7d8de82c350942910543af39aba0cd09dbb2d50200b3e800a63d2893076be07628f38000089454e524a45443830471ba0de237bae213fa26650986a89cd1725955f04b614d89ab3c07465a8d8863c604ea07fe1c0cd84b8aff07542ba7f08e1977fa9959b230a9cc54eab11e6a5280541a6",
      "networkId": 0,
      "chainId": 0
    },
    {
      "hash": "0xfb751b04242fb79d86af6f768721d4480fd4ff985df2d7027486b7baac85f0be",
      "blockHash": "0x7a1f6a8b4e5266c209561d43a909a26432867d854e87a959a8ae1ee910d490b1",
      "blockNumber": 87047,
      "transactionIndex": 1,
      "confirmations": null,
      "from": "0xf669D33ffC879Ed84BECd4EF67CB17c76f4607D5",
      "gasPrice": {
        "_hex": "0xdf30edbc6"
      },
      "gasLimit": {
        "_hex": "0x15f90"
      },
      "to": "0x056507108FE6d30189EcCD6cd7F4Fad56eEef622",
      "value": {
        "_hex": "0x8ac7230489e800000"
      },
      "nonce": 3,
      "data": "0x000002ff0002ff00f277f21a",
      "r": "0x01d4bf824905fa172e701a19e1dc2d02b5399045ee8ed52a2305cb28f5faee14",
      "s": "0x484a65827402939b26c3f563d2b05ffa8678a46751ee544412e73586c0643f73",
      "v": 27,
      "creates": null,
      "raw": "0xf87a03850df30edbc683015f9094056507108fe6d30189eccd6cd7f4fad56eeef6228908ac7230489e8000008c000002ff0002ff00f277f21a1ba001d4bf824905fa172e701a19e1dc2d02b5399045ee8ed52a2305cb28f5faee14a0484a65827402939b26c3f563d2b05ffa8678a46751ee544412e73586c0643f73",
      "networkId": 0,
      "chainId": 0
    }
  ]
}