{
  "hash": "0xf73efaf4632f4e8408f98e7ccb7f73e4f8dce0d0dbe91b8da24835e42da0fd8e",
  "parentHash": "0x6dac1ac6f8c5ab9490fbe1b189c334de36ac78660cbf70644f8e5ef640949e40",
  "number": 69926,
  "timestamp": 1439312039,
  "nonce": "0x374b005d9880df72",
  "difficulty": 2106505324994,
  "gasLimit": {
    "_hex": "0x2fefd5"
  },
  "gasUsed": {
    "_hex": "0x7c62"
  },
  "miner": "0x2561d06bcc264cb07D32663B326f510d61E48f4c",
  "extraData": "0x",
  "transactions": [
    {
      "hash": "0xb34aafaecf25bf5306a7f0253d67f9ebaf11fa4c6b03ad298b141fc349ea06d5",
      "blockHash": "0xf73efaf4632f4e8408f98e7ccb7f73e4f8dce0d0dbe91b8da24835e42da0fd8e",
      "blockNumber": 69926,
      "transactionIndex": 0,
      "confirmations": null,
      "from": "0x000Df160997ba9420e4622996b05447871848834",
      "gasPrice": {
        "_hex": "0xba43b7400"
      },
      "gasLimit": {
        "_hex": "0x9965e"
      },
      "to": "0xad5e5A5Bc4654dbeF0d5CABD7ABeB426769C073a",
      "value": {
        "_hex": "0x0"
      },
      "nonce": 7,
      "data": "0x43d726d6",
      "r": "0xc8293ea86cd81bdd57de9a758a5b2d21916df18ca923dcdde4ba25a9214d0417",
      "s": "0x7736152ebc4260a0a0e91e482084b8fbc7f7e23e753fe9ef8c30d52b85f8a930",
      "v": 28,
      "creates": null,
      "raw": "0xf86907850ba43b74008309965e94ad5e5a5bc4654dbef0d5cabd7abeb426769c073a808443d726d61ca0c8293ea86cd81bdd57de9a758a5b2d21916df18ca923dcdde4ba25a9214d0417a07736152ebc4260a0a0e91e482084b8fbc7f7e23e753fe9ef8c30d52b85f8a930",
      "networkId": 0,
      "chainId": 0
    }
  ]
}