{
  "hash": "0xdda94f33a138fe2f4b300db7cdf86b2b3f945a999d541bb15c096a88414df8de",
  "parentHash": "0x3ed4f107d20f1fc2273f553f6b80c444d90981386e4d6fbf920bd3f097add006",
  "number": 106649,
  "timestamp": 1439908062,
  "nonce": "0x13b6c197d19fb8f9",
  "difficulty": 4463904183433,
  "gasLimit": {
    "_hex": "0x2fefd8"
  },
  "gasUsed": {
    "_hex": "0x5208"
  },
  "miner": "0xe6A7a1d47ff21B6321162AEA7C6CB457D5476Bca",
  "extraData": "0x476574682f76312e302e312d38326566323666362f6c696e75782f676f312e34",
  "transactions": [
    {
      "hash": "0xf585fdc5a9fd49801a3d2a9fb21ab8af0a625c2c0dc622c10cf1696e8f018c64",
      "blockHash": "0xdda94f33a138fe2f4b300db7cdf86b2b3f945a999d541bb15c096a88414df8de",
      "blockNumber": 106649,
      "transactionIndex": 0,
      "confirmations": null,
      "from": "0x2910543Af39abA0Cd09dBb2D50200b3E800A63D2",
      "gasPrice": {
        "_hex": "0xcfd7758c1"
      },
      "gasLimit": {
        "_hex": "0x5208"
      },
      "to": "0xb68c4428193f7F71bA7351366022f0c3E81ca552",
      "value": {
        "_hex": "0x4adf78d887d07c000"
      },
      "nonce": 1038,
      "data": "0x",
      "r": "0xdc2333c8962de24c0cd00af840c066a421f4048575ab92b77d27243c97ddcf3c",
      "s": "0x7889d3ce9fb22a2caf8cf5fe00fca90b078470722180b50450aed7c8d16a8549",
      "v": 28,
      "creates": null,
      "raw": "0xf86f82040e850cfd7758c182520894b68c4428193f7f71ba7351366022f0c3e81ca5528904adf78d887d07c000801ca0dc2333c8962de24c0cd00af840c066a421f4048575ab92b77d27243c97ddcf3ca07889d3ce9fb22a2caf8cf5fe00fca90b078470722180b50450aed7c8d16a8549",
      "networkId": 0,
      "chainId": 0
    }
  ]
}