{
  "hash": "0x39667d99c6cd012551509d7b6c473ebfe5cd884c624e0000a7e082ec79e12894",
  "parentHash": "0x123ddb315ab6a23e391c057180646926d6c85434921aac6811e106bc9e7be5b7",
  "number": 62988,
  "timestamp": 1439197209,
  "nonce": "0x9cb9459cd391556e",
  "difficulty": 1796249970190,
  "gasLimit": {
    "_hex": "0x2fefd8"
  },
  "gasUsed": {
    "_hex": "0x5208"
  },
  "miner": "0x31995C46B15C84523cDEE26f49A681b8237e43F5",
  "extraData": "0x476574682f76312e302e312f77696e646f77732f676f312e342e32",
  "transactions": [
    {
      "hash": "0x63706cca4c43b396788690849efc5c2403062820981dd504627d22e4f9f106cc",
      "blockHash": "0x39667d99c6cd012551509d7b6c473ebfe5cd884c624e0000a7e082ec79e12894",
      "blockNumber": 62988,
      "transactionIndex": 0,
      "confirmations": null,
      "from": "0x120A270bbC009644e35F0bB6ab13f95b8199c4ad",
      "gasPrice": {
        "_hex": "0xdb97ec13d"
      },
      "gasLimit": {
        "_hex": "0x15f90"
      },
      "to": "0x707e0B3205D90E717a6b1171816F3C36d18c2D63",
      "value": {
        "_hex": "0x1bc16d674ec80000"
      },
      "nonce": 93,
      "data": "0x",
      "r": "0xdc4cf9e18a8600b433b184ae9c9da6ca96790ed49a348dcc2156b665480abb9a",
      "s": "0x732cfa430330345414b38f32f99d10804f591482e4d70b61202be185801c1d2d",
      "v": 28,
      "creates": null,
      "raw": "0xf86d5d850db97ec13d83015f9094707e0b3205d90e717a6b1171816f3c36d18c2d63881bc16d674ec80000801ca0dc4cf9e18a8600b433b184ae9c9da6ca96790ed49a348dcc2156b665480abb9aa0732cfa430330345414b38f32f99d10804f591482e4d70b61202be185801c1d2d",
      "networkId": 0,
      "chainId": 0
    }
  ]
}