{
  "hash": "0x35fbb3e69720c3578b2f669b7b402f60e3ad76aa46b44fc9719068a0cfd42063",
  "parentHash": "0x6d44bbb405a4a2577823b2d18886696beadb364bed02207572874af673688f2e",
  "number": 103255,
  "timestamp": 1439850088,
  "nonce": "0xa4bdcfe3da142b74",
  "difficulty": 4203348531896,
  "gasLimit": {
    "_hex": "0x2fefd8"
  },
  "gasUsed": {
    "_hex": "0x5208"
  },
  "miner": "0xe6A7a1d47ff21B6321162AEA7C6CB457D5476Bca",
  "extraData": "0x476574682f76312e302e312d38326566323666362f6c696e75782f676f312e34",
  "transactions": [
    {
      "hash": "0xebec604ff9480fd1df8bf3437714cf7faf2ac01ee8e6e27696c77c433becdbd2",
      "blockHash": "0x35fbb3e69720c3578b2f669b7b402f60e3ad76aa46b44fc9719068a0cfd42063",
      "blockNumber": 103255,
      "transactionIndex": 0,
      "confirmations": null,
      "from": "0xee5379D0c1ca47327368027455074C26D9952628",
      "gasPrice": {
        "_hex": "0xdb2288e7a"
      },
      "gasLimit": {
        "_hex": "0x15f90"
      },
      "to": "0xB8796061FcCcC0c40BD2060d95d6cff928bD1C1B",
      "value": {
        "_hex": "0x260e3500a50438000"
      },
      "nonce": 16,
      "data": "0x",
      "r": "0x3d74a0c3a4f358b2c1291740e2a10c6807696c35948ec5d9ccb1a185369bfd26",
      "s": "0x19b3696faffe57deca66f3b18360bb9982eb53e041e7bafb451612c949b9dd93",
      "v": 28,
      "creates": null,
      "raw": "0xf86e10850db2288e7a83015f9094b8796061fcccc0c40bd2060d95d6cff928bd1c1b890260e3500a50438000801ca03d74a0c3a4f358b2c1291740e2a10c6807696c35948ec5d9ccb1a185369bfd26a019b3696faffe57deca66f3b18360bb9982eb53e041e7bafb451612c949b9dd93",
      "networkId": 0,
      "chainId": 0
    }
  ]
}