{
  "hash": "0x1a5f07e0a3a16fb0f159e5a6459e27480820ad1d823ee39ddefac2970572cc37",
  "parentHash": "0x0e3aeac4079a578b65a850cabfdf705650fe60d7289b07138f61f52235ef9bbd",
  "number": 46481,
  "timestamp": 1438923850,
  "nonce": "0xfb37f3ae7bd321aa",
  "difficulty": 1468227120514,
  "gasLimit": {
    "_hex": "0x63c7"
  },
  "gasUsed": {
    "_hex": "0x5208"
  },
  "miner": "0xf8E0CA3Ed80bd541b94BEdCf259e8CF2141A9523",
  "extraData": "0x476574682f76312e302e312f77696e646f77732f676f312e342e32",
  "transactions": [
    {
      "hash": "0x6e9d8b2d16bfbf8e75696b363b895beb2d1a627b6e0ea89fda8456cea9065ab9",
      "blockHash": "0x1a5f07e0a3a16fb0f159e5a6459e27480820ad1d823ee39ddefac2970572cc37",
      "blockNumber": 46481,
      "transactionIndex": 0,
      "confirmations": null,
      "from": "0xd65F9b9AA7BeCfd1481Bdd7E22527ca0900B7bc8",
      "gasPrice": {
        "_hex": "0x746a528800"
      },
      "gasLimit": {
        "_hex": "0x5208"
      },
      "to": "0x32Be343B94f860124dC4fEe278FDCBD38C102D88",
      "value": {
        "_hex": "0x56ba2107ba0ebc000"
      },
      "nonce": 0,
      "data": "0x",
      "r": "0xaca6b9c2ed427e24225473d922c025d8d58a805fdb016cacf37c9c6bb0feb838",
      "s": "0x2ad467898e9c556f5d2364ebefe291287a7f4291fed61a4a9517e2251133b976",
      "v": 28,
      "creates": null,
      "raw": "0xf86d8085746a5288008252089432be343b94f860124dc4fee278fdcbd38c102d8889056ba2107ba0ebc000801ca0aca6b9c2ed427e24225473d922c025d8d58a805fdb016cacf37c9c6bb0feb838a02ad467898e9c556f5d2364ebefe291287a7f4291fed61a4a9517e2251133b976",
      "networkId": 0,
      "chainId": 0
    }
  ]
}