{
  "hash": "0x0f21e4936313e815d0e228f45da501e2a1f6382f756a90e346b1ca262464272f",
  "parentHash": "0x706bf95a87b668fec657239acf8d751867b01135cc47cc2d7100eebe7e14a994",
  "number": 122118,
  "timestamp": 1440188454,
  "nonce": "0x857a3f40c4a4d444",
  "difficulty": 4475303825756,
  "gasLimit": {
    "_hex": "0x2fefd8"
  },
  "gasUsed": {
    "_hex": "0x5208"
  },
  "miner": "0xe6A7a1d47ff21B6321162AEA7C6CB457D5476Bca",
  "extraData": "0xd783010002844765746887676f312e342e32856c696e7578",
  "transactions": [
    {
      "hash": "0xd552b0aea6c6d928767fbd6e20acdb501a21ec5e312daa58a4a01f306e826a26",
      "blockHash": "0x0f21e4936313e815d0e228f45da501e2a1f6382f756a90e346b1ca262464272f",
      "blockNumber": 122118,
      "transactionIndex": 0,
      "confirmations": null,
      "from": "0x2910543Af39abA0Cd09dBb2D50200b3E800A63D2",
      "gasPrice": {
        "_hex": "0xd6a443cf7"
      },
      "gasLimit": {
        "_hex": "0x5208"
      },
      "to": "0x59b7ee394b4F4EED8494C7920103D7e7e7E2BFF4",
      "value": {
        "_hex": "0xdcef33a6f838000"
      },
      "nonce": 1216,
      "data": "0x",
      "r": "0xdee11804a008fdf09a0716d09b2ced2f998f28387d8b1e31bea68f83210cea40",
      "s": "0x0f35a82e9e6d9b5855cd7fcfae5ad48907cce43fa259c90ad08e8b5d970666e4",
      "v": 27,
      "creates": null,
      "raw": "0xf86e8204c0850d6a443cf78252089459b7ee394b4f4eed8494c7920103d7e7e7e2bff4880dcef33a6f838000801ba0dee11804a008fdf09a0716d09b2ced2f998f28387d8b1e31bea68f83210cea40a00f35a82e9e6d9b5855cd7fcfae5ad48907cce43fa259c90ad08e8b5d970666e4",
      "networkId": 0,
      "chainId": 0
    }
  ]
}