{
  "hash": "0x6a8908555cf48bb036c13f2f9e31ee299cc9d7636478ec3f220590de4850f082",
  "parentHash": "0xbfff762ef98ad8bca2d5ed6d2e25b205fb35256703cdbdc1d5250be3109b3d48",
  "number": 94587,
  "timestamp": 1439710671,
  "nonce": "0x668c3e7d52d98315",
  "difficulty": 3501953721304,
  "gasLimit": {
    "_hex": "0x2fefd5"
  },
  "gasUsed": {
    "_hex": "0x5208"
  },
  "miner": "0xe6A7a1d47ff21B6321162AEA7C6CB457D5476Bca",
  "extraData": "0x476574682f76312e302e312d38326566323666362f6c696e75782f676f312e34",
  "transactions": [
    {
      "hash": "0xac534f9a5110ffbc73ee798e66905da59defd17b8df7ce321b3f0b9d19152e4e",
      "blockHash": "0x6a8908555cf48bb036c13f2f9e31ee299cc9d7636478ec3f220590de4850f082",
      "blockNumber": 94587,
      "transactionIndex": 0,
      "confirmations": null,
      "from": "0x32Be343B94f860124dC4fEe278FDCBD38C102D88",
      "gasPrice": {
        "_hex": "0xd29ebf1c3"
      },
      "gasLimit": {
        "_hex": "0x5208"
      },
      "to": "0xdD39E4C4B7b8ecCb8618438312b65d87c32F03e0",
      "value": {
        "_hex": "0x2386f26fc10000"
      },
      "nonce": 960,
      "data": "0x",
      "r": "0xa504669d36557e4da769184f0869c0e2db22c8b076b9bace1232bce5dbe43467",
      "s": "0x4eff67f7dfc107562f3c3ac32b12a9dfb26b6d7c2c171ef0afbb56b065205dab",
      "v": 27,
      "creates": null,
      "raw": "0xf86d8203c0850d29ebf1c382520894dd39e4c4b7b8eccb8618438312b65d87c32f03e0872386f26fc10000801ba0a504669d36557e4da769184f0869c0e2db22c8b076b9bace1232bce5dbe43467a04eff67f7dfc107562f3c3ac32b12a9dfb26b6d7c2c171ef0afbb56b065205dab",
      "networkId": 0,
      "chainId": 0
    }
  ]
}