{
  "hash": "0x2cd012c2efb3c4ce2237a14bd805bf6e6ab44bc282ea7fc62a88b08b4443670c",
  "parentHash": "0x597c36b008f9ddc222fa0e7efcafb116b6bb230fcbc5874766069140bd2e1b5d",
  "number": 85625,
  "timestamp": 1439566325,
  "nonce": "0x2a87563e9e3dbdf8",
  "difficulty": 2792257175183,
  "gasLimit": {
    "_hex": "0x2fefd8"
  },
  "gasUsed": {
    "_hex": "0x5208"
  },
  "miner": "0x52Dc504a422f0E2A9e7632A34a50f1a82F8224c7",
  "extraData": "0x476574682f76312e302e312f6c696e75782f676f312e342e32",
  "transactions": [
    {
      "hash": "0xaa4a9d9cb32a7de8ffa89b2efa4cba11c4ef1b88916304055a90561702fa0109",
      "blockHash": "0x2cd012c2efb3c4ce2237a14bd805bf6e6ab44bc282ea7fc62a88b08b4443670c",
      "blockNumber": 85625,
      "transactionIndex": 0,
      "confirmations": null,
      "from": "0xFD7c9117BbEB649d9b37B3D3C9917f7c12f526B3",
      "gasPrice": {
        "_hex": "0xdf1c5a42e"
      },
      "gasLimit": {
        "_hex": "0x5208"
      },
      "to": "0x32Be343B94f860124dC4fEe278FDCBD38C102D88",
      "value": {
        "_hex": "0x1ad5b03cc9d5bc0000"
      },
      "nonce": 19,
      "data": "0x",
      "r": "0x01f00cdc8dc3e9aac2e45fc8babe27cd8ef7d64912d3827ef35c3a7484e7660d",
      "s": "0x56ccaf13310b6de3a67208efc9d1ad3933e3bbefa2c6d108413720fe0702d2ac",
      "v": 27,
      "creates": null,
      "raw": "0xf86d13850df1c5a42e8252089432be343b94f860124dc4fee278fdcbd38c102d88891ad5b03cc9d5bc0000801ba001f00cdc8dc3e9aac2e45fc8babe27cd8ef7d64912d3827ef35c3a7484e7660da056ccaf13310b6de3a67208efc9d1ad3933e3bbefa2c6d108413720fe0702d2ac",
      "networkId": 0,
      "chainId": 0
    }
  ]
}