{
  "hash": "0xa480588f58ef46cd4c92ccc659fc88e8da676d02acbaf27682d35e2ea7839d3e",
  "parentHash": "0x0ad9c4b0825fd278b1ccdbcf974a468c6fc2711b4562becf7677051d95d1d84c",
  "number": 76797,
  "timestamp": 1439426332,
  "nonce": "0x69f66ca9edd7b6a8",
  "difficulty": 2241621593013,
  "gasLimit": {
    "_hex": "0x2fefd8"
  },
  "gasUsed": {
    "_hex": "0x5208"
  },
  "miner": "0x858079E02403b10748B71A02195b6608Abaf6b8f",
  "extraData": "0x476574682f76312e302e312f77696e646f77732f676f312e342e32",
  "transactions": [
    {
      "hash": "0xbe952b876cbf4f843e23f4c443fc2b5e737d3647c74534d04d7f1916e8246922",
      "blockHash": "0xa480588f58ef46cd4c92ccc659fc88e8da676d02acbaf27682d35e2ea7839d3e",
      "blockNumber": 76797,
      "transactionIndex": 0,
      "confirmations": null,
      "from": "0x2910543Af39abA0Cd09dBb2D50200b3E800A63D2",
      "gasPrice": {
        "_hex": "0xce326d4a9"
      },
      "gasLimit": {
        "_hex": "0x5208"
      },
      "to": "0xF96ffEd8e5116236F560026Ae3658EE0f4eBd622",
      "value": {
        "_hex": "0xbca6b39a2b77600000"
      },
      "nonce": 331,
      "data": "0x",
      "r": "0xde26a9ad7ffb18b62c08b44db610c1b313c57cb260302b3fda757cfbd92461a1",
      "s": "0x73e9e7491aab6ae2eedb7e9adb7ccf4b44c2f2ad658801dca474bc4f99bb6a15",
      "v": 28,
      "creates": null,
      "raw": "0xf86f82014b850ce326d4a982520894f96ffed8e5116236f560026ae3658ee0f4ebd62289bca6b39a2b77600000801ca0de26a9ad7ffb18b62c08b44db610c1b313c57cb260302b3fda757cfbd92461a1a073e9e7491aab6ae2eedb7e9adb7ccf4b44c2f2ad658801dca474bc4f99bb6a15",
      "networkId": 0,
      "chainId": 0
    }
  ]
}