{
  "hash": "0x242fc7065f583c3a06561f5c11d40694cda88d0ea6f25021b12c3123067cf318",
  "parentHash": "0xb249855211b3f4983a77258721736f97004ef35b93fd08ba25ffba1655496a58",
  "number": 84302,
  "timestamp": 1439547785,
  "nonce": "0x6078e4a65f7159f9",
  "difficulty": 2536579683214,
  "gasLimit": {
    "_hex": "0x2fefd8"
  },
  "gasUsed": {
    "_hex": "0x14820"
  },
  "miner": "0x785ffdDd5cE55c6DF963f345e68d3F2024E5Acb1",
  "extraData": "0x",
  "transactions": [
    {
      "hash": "0x08d44b139bcef7e076b8d2e646794624e166f957e8c6bd7734f03ea67282fcc4",
      "blockHash": "0x242fc7065f583c3a06561f5c11d40694cda88d0ea6f25021b12c3123067cf318",
      "blockNumber": 84302,
      "transactionIndex": 0,
      "confirmations": null,
      "from": "0x771b12Bc207A1c4823e77075B17F8D329ACD77A3",
      "gasPrice": {
        "_hex": "0xd06697e53"
      },
      "gasLimit": {
        "_hex": "0x5208"
      },
      "to": "0x32Be343B94f860124dC4fEe278FDCBD38C102D88",
      "value": {
        "_hex": "0x1de1147a9f3dca000"
      },
      "nonce": 4,
      "data": "0x",
      "r": "0x82678b47d9b391a55947bdeb0cd9d20d98b499269f63b6038dca9cefc7fb07f9",
      "s": "0x79587b96b49bf53a206d04d68e04dca4b42e964e354f775f8babd244d1efcd45",
      "v": 28,
      "creates": null,
      "raw": "0xf86d04850d06697e538252089432be343b94f860124dc4fee278fdcbd38c102d888901de1147a9f3dca000801ca082678b47d9b391a55947bdeb0cd9d20d98b499269f63b6038dca9cefc7fb07f9a079587b96b49bf53a206d04d68e04dca4b42e964e354f775f8babd244d1efcd45",
      "networkId": 0,
      "chainId": 0
    },
    {
      "hash": "0xbb49b051811a263bec455e0d09eec7de8cac67d39aa18d19259fb234457bfece",
      "blockHash": "0x242fc7065f583c3a06561f5c11d40694cda88d0ea6f25021b12c3123067cf318",
      "blockNumber": 84302,
      "transactionIndex": 1,
      "confirmations": null,
      "from": "0x27e806e70622d2864e1B1f4426D72FFb0457C83a",
      "gasPrice": {
        "_hex": "0xd06697e53"
      },
      "gasLimit": {
        "_hex": "0x5208"
      },
      "to": "0x32Be343B94f860124dC4fEe278FDCBD38C102D88",
      "value": {
        "_hex": "0xe359288bb2aae800"
      },
      "nonce": 12,
      "data": "0x",
      "r": "0xf6577bfb31a5e69ebc0e9e78bd7c113b04b48bf4a6f4a7bcd41f579d7e662788",
      "s": "0x7ff6a3d9a0b7fd742b48ce5e4c031be80df55d3df0f454ddf12eb87f4787a330",
      "v": 28,
      "creates": null,
      "raw": "0xf86c0c850d06697e538252089432be343b94f860124dc4fee278fdcbd38c102d8888e359288bb2aae800801ca0f6577bfb31a5e69ebc0e9e78bd7c113b04b48bf4a6f4a7bcd41f579d7e662788a07ff6a3d9a0b7fd742b48ce5e4c031be80df55d3df0f454ddf12eb87f4787a330",
      "networkId": 0,
      "chainId": 0
    },
    {
      "hash": "0xec24cee9af9730d13b7bf03a3bc8e454d51ebfa4d618266b0c4b012ace6a8bdf",
      "blockHash": "0x242fc7065f583c3a06561f5c11d40694cda88d0ea6f25021b12c3123067cf318",
      "blockNumber": 84302,
      "transactionIndex": 2,
      "confirmations": null,
      "from": "0xF0224ea727d4924A8dd69a8d2d473Cc4c3590423",
      "gasPrice": {
        "_hex": "0xd06697e53"
      },
      "gasLimit": {
        "_hex": "0x5208"
      },
      "to": "0x32Be343B94f860124dC4fEe278FDCBD38C102D88",
      "value": {
        "_hex": "0x7eea09bcd74f1800"
      },
      "nonce": 7,
      "data": "0x",
      "r": "0xd07214247ccd5bf0516c5083b4dcc723cabea2693afb69cae7def1683a10029f",
      "s": "0x57e328a5f085f13cf466f838eb0d4ee104c923a8f663eb48917ae485ddcb5a75",
      "v": 27,
      "creates": null,
      "raw": "0xf86c07850d06697e538252089432be343b94f860124dc4fee278fdcbd38c102d88887eea09bcd74f1800801ba0d07214247ccd5bf0516c5083b4dcc723cabea2693afb69cae7def1683a10029fa057e328a5f085f13cf466f838eb0d4ee104c923a8f663eb48917ae485ddcb5a75",
      "networkId": 0,
      "chainId": 0
    },
    {
      "hash": "0x13632f4c7aadb7d8fb8037f9ef52aeca8fdff2454cccebba112279e5506f34f1",
      "blockHash": "0x242fc7065f583c3a06561f5c11d40694cda88d0ea6f25021b12c3123067cf318",
      "blockNumber": 84302,
      "transactionIndex": 3,
      "confirmations": null,
      "from": "0x9cF18B3eb373C383a42d06136ba331D766ed9Fbb",
      "gasPrice": {
        "_hex": "0xd06697e53"
      },
      "gasLimit": {
        "_hex": "0x5208"
      },
      "to": "0x32Be343B94f860124dC4fEe278FDCBD38C102D88",
      "value": {
        "_hex": "0x114fd88318e6a2000"
      },
      "nonce": 2,
      "data": "0x",
      "r": "0x035fd2092c939b7b280486249af97ae47146650d3074eef625c4cced98a02217",
      "s": "0x0b2471572207eecadf846a06d629a7bf04a5d3494f5bd48334e278fe36d68ff0",
      "v": 28,
      "creates": null,
      "raw": "0xf86d02850d06697e538252089432be343b94f860124dc4fee278fdcbd38c102d88890114fd88318e6a2000801ca0035fd2092c939b7b280486249af97ae47146650d3074eef625c4cced98a02217a00b2471572207eecadf846a06d629a7bf04a5d3494f5bd48334e278fe36d68ff0",
      "networkId": 0,
      "chainId": 0
    }
  ]
}