{
  "hash": "0x82b30893f3d15142f94af70e7de48d60fab51d13febc19ef61167fd193ece9bc",
  "parentHash": "0x78c025878c6b5a34f9371d4112121f6005fd45301db03e25ba9c8eb5378a31ad",
  "number": 79933,
  "timestamp": 1439477483,
  "nonce": "0xac2b3a1e2e6c9112",
  "difficulty": 2352912253884,
  "gasLimit": {
    "_hex": "0x2fefd8"
  },
  "gasUsed": {
    "_hex": "0x5208"
  },
  "miner": "0xf927a40C8B7F6E07c5af7FA2155B4864a4112B13",
  "extraData": "0x",
  "transactions": [
    {
      "hash": "0x2f3e974e3268c3d6eee7e535188cc460ca534caa4323131451d5900b46482cb1",
      "blockHash": "0x82b30893f3d15142f94af70e7de48d60fab51d13febc19ef61167fd193ece9bc",
      "blockNumber": 79933,
      "transactionIndex": 0,
      "confirmations": null,
      "from": "0x32Be343B94f860124dC4fEe278FDCBD38C102D88",
      "gasPrice": {
        "_hex": "0xd536f0055"
      },
      "gasLimit": {
        "_hex": "0x5208"
      },
      "to": "0x94eB205EE2F7789d4C920a155769108B65B51b46",
      "value": {
        "_hex": "0x1ebebf968a59c00"
      },
      "nonce": 487,
      "data": "0x",
      "r": "0xc8dcbedaed4a80f8da664031277dc57686a4e346665330fc654d6eb085eb8111",
      "s": "0x43292654020e0a894d6335f0d054e8709ed56a3722e5ac3d14e505ff41a4de49",
      "v": 28,
      "creates": null,
      "raw": "0xf86e8201e7850d536f00558252089494eb205ee2f7789d4c920a155769108b65b51b468801ebebf968a59c00801ca0c8dcbedaed4a80f8da664031277dc57686a4e346665330fc654d6eb085eb8111a043292654020e0a894d6335f0d054e8709ed56a3722e5ac3d14e505ff41a4de49",
      "networkId": 0,
      "chainId": 0
    }
  ]
}