{
  "hash": "0x1fe8ae8d5216b297105ed760efd383e666f82b36cf6c1e55f50e2127a7d81fe5",
  "parentHash": "0xfa7e1f419194614c0ba2a347034c49706455d0f23401e58990012869ac819386",
  "number": 47253,
  "timestamp": 1438936936,
  "nonce": "0xc1087a394b609629",
  "difficulty": 1460941060402,
  "gasLimit": {
    "_hex": "0xa930"
  },
  "gasUsed": {
    "_hex": "0x5208"
  },
  "miner": "0xe6A7a1d47ff21B6321162AEA7C6CB457D5476Bca",
  "extraData": "0x657468706f6f6c2e6f7267",
  "transactions": [
    {
      "hash": "0xc5178dcc0250af99f1442d1701760d8a76789cc7419c9652db9bd6e4e8070ef0",
      "blockHash": "0x1fe8ae8d5216b297105ed760efd383e666f82b36cf6c1e55f50e2127a7d81fe5",
      "blockNumber": 47253,
      "transactionIndex": 0,
      "confirmations": null,
      "from": "0x7d7e7c61779adB7706C94D32409A2bb4E994bf60",
      "gasPrice": {
        "_hex": "0x2ba7def3000"
      },
      "gasLimit": {
        "_hex": "0x5208"
      },
      "to": "0x734B61f8167583Fcd27c677b8dB9369C6A3d0689",
      "value": {
        "_hex": "0x5af3107a4000"
      },
      "nonce": 3,
      "data": "0x",
      "r": "0x489e8a6d54287a8af62f6ec98a3a624a574839ea104431e0bd1afa0cf8b4e232",
      "s": "0x41e5f9bf62481f10bda764c8f8501a592f46f7a2b682ee55e0b938c48ec65314",
      "v": 27,
      "creates": null,
      "raw": "0xf86b038602ba7def300082520894734b61f8167583fcd27c677b8db9369c6a3d0689865af3107a4000801ba0489e8a6d54287a8af62f6ec98a3a624a574839ea104431e0bd1afa0cf8b4e232a041e5f9bf62481f10bda764c8f8501a592f46f7a2b682ee55e0b938c48ec65314",
      "networkId": 0,
      "chainId": 0
    }
  ]
}