{
  "hash": "0x567cb0048491a120e73becea9a086da308764209c4b8279bfceb43fee7b46b55",
  "parentHash": "0x853012a8a945227a0ae635d80276f6ac0c3687a078f9b00a06e061a9c8789878",
  "number": 115380,
  "timestamp": 1440056232,
  "nonce": "0xc56faad6858b4093",
  "difficulty": 4558326689506,
  "gasLimit": {
    "_hex": "0x2fefd8"
  },
  "gasUsed": {
    "_hex": "0x23e38"
  },
  "miner": "0xF11940EA05aA9CC3F13aCF5C5cA6EDCF312E3Aec",
  "extraData": "0x476574682f76312e302e312f77696e646f77732f676f312e342e32",
  "transactions": [
    {
      "hash": "0xf0173cffe4ff040c55cb74364dd4ac5957badbf0549680711e1e24774b28b589",
      "blockHash": "0x567cb0048491a120e73becea9a086da308764209c4b8279bfceb43fee7b46b55",
      "blockNumber": 115380,
      "transactionIndex": 0,
      "confirmations": null,
      "from": "0x7001C4730b81A539eF8b760A3eEb14C64515137B",
      "gasPrice": {
        "_hex": "0xd31ee079b"
      },
      "gasLimit": {
        "_hex": "0x5208"
      },
      "to": "0x32Be343B94f860124dC4fEe278FDCBD38C102D88",
      "value": {
        "_hex": "0x194fab65deb831000"
      },
      "nonce": 8,
      "data": "0x",
      "r": "0x04ab127d9818aaadf5f6bd7e89f3d1fb2afc614d916a77a6ac935e3207d72d3d",
      "s": "0x4e553ae45aee044d6eff01f16af991c270f81fab3b49613b14bd88165847f99d",
      "v": 27,
      "creates": null,
      "raw": "0xf86d08850d31ee079b8252089432be343b94f860124dc4fee278fdcbd38c102d88890194fab65deb831000801ba004ab127d9818aaadf5f6bd7e89f3d1fb2afc614d916a77a6ac935e3207d72d3da04e553ae45aee044d6eff01f16af991c270f81fab3b49613b14bd88165847f99d",
      "networkId": 0,
      "chainId": 0
    },
    {
      "hash": "0x3e6b95e9379c9e3e81a9ada260bdbddafa7a4effb32af4613b618a7093b4640a",
      "blockHash": "0x567cb0048491a120e73becea9a086da308764209c4b8279bfceb43fee7b46b55",
      "blockNumber": 115380,
      "transactionIndex": 1,
      "confirmations": null,
      "from": "0xBa9CF76D809cF9f2e3f180AFb33f0adb0826D7DF",
      "gasPrice": {
        "_hex": "0xd31ee079b"
      },
      "gasLimit": {
        "_hex": "0x5208"
      },
      "to": "0x32Be343B94f860124dC4fEe278FDCBD38C102D88",
      "value": {
        "_hex": "0x11a7d330349c3e000"
      },
      "nonce": 7,
      "data": "0x",
      "r": "0x0aa3c6fe8aceaba17a142e8195ad1329ef251d0bee0767c1f05ba8062db79730",
      "s": "0x39be925556bab3db1b6f4db5962c5666aff9ee0cb5f552489fbc6315bb5c3f40",
      "v": 27,
      "creates": null,
      "raw": "0xf86d07850d31ee079b8252089432be343b94f860124dc4fee278fdcbd38c102d8889011a7d330349c3e000801ba00aa3c6fe8aceaba17a142e8195ad1329ef251d0bee0767c1f05ba8062db79730a039be925556bab3db1b6f4db5962c5666aff9ee0cb5f552489fbc6315bb5c3f40",
      "networkId": 0,
      "chainId": 0
    },
    {
      "hash": "0x036a6397ab4a62fe8ab248698d91ce63c0b6913c1998e704f34228599066657d",
      "blockHash": "0x567cb0048491a120e73becea9a086da308764209c4b8279bfceb43fee7b46b55",
      "blockNumber": 115380,
      "transactionIndex": 2,
      "confirmations": null,
      "from": "0x357A01795bfA480a007fB4B1B6eDf2e8C23f1840",
      "gasPrice": {
        "_hex": "0xd31ee079b"
      },
      "gasLimit": {
        "_hex": "0x5208"
      },
      "to": "0x32Be343B94f860124dC4fEe278FDCBD38C102D88",
      "value": {
        "_hex": "0x228003b746309000"
      },
      "nonce": 9,
      "data": "0x",
      "r": "0x3d5ce3456ffd4164bfba2bf50ed6dbf3739a239116f22fe4f23ddefd40a7d104",
      "s": "0x2a8eb6f136ce93b2b7cf006678f76f65558a085643d5d38d59784b20b2e6e730",
      "v": 27,
      "creates": null,
      "raw": "0xf86c09850d31ee079b8252089432be343b94f860124dc4fee278fdcbd38c102d8888228003b746309000801ba03d5ce3456ffd4164bfba2bf50ed6dbf3739a239116f22fe4f23ddefd40a7d104a02a8eb6f136ce93b2b7cf006678f76f65558a085643d5d38d59784b20b2e6e730",
      "networkId": 0,
      "chainId": 0
    },
    {
      "hash": "0xc85b0f9cd0c50ae5ac949e905a06f47e934e9ee88e06b49669a077cd694f1681",
      "blockHash": "0x567cb0048491a120e73becea9a086da308764209c4b8279bfceb43fee7b46b55",
      "blockNumber": 115380,
      "transactionIndex": 3,
      "confirmations": null,
      "from": "0x5D9067970755043fF5cE7FA2cd21C12F3646Bc55",
      "gasPrice": {
        "_hex": "0xd31ee079b"
      },
      "gasLimit": {
        "_hex": "0x5208"
      },
      "to": "0x32Be343B94f860124dC4fEe278FDCBD38C102D88",
      "value": {
        "_hex": "0x86bf68cf05dd8000"
      },
      "nonce": 6,
      "data": "0x",
      "r": "0x4cb0cba12efe6049133c43724a95e91ab70e1ee627911ac7f58e75ce8ed406bd",
      "s": "0x4cb96658f54eef2b22b6c24067b1f4d221d44e00af3b099407cd3e221ffa9e31",
      "v": 27,
      "creates": null,
      "raw": "0xf86c06850d31ee079b8252089432be343b94f860124dc4fee278fdcbd38c102d888886bf68cf05dd8000801ba04cb0cba12efe6049133c43724a95e91ab70e1ee627911ac7f58e75ce8ed406bda04cb96658f54eef2b22b6c24067b1f4d221d44e00af3b099407cd3e221ffa9e31",
      "networkId": 0,
      "chainId": 0
    },
    {
      "hash": "0xacc930c9bdf7e1c71080cec1860c306c2547cfe361c10a8c07dfdf96b9302a55",
      "blockHash": "0x567cb0048491a120e73becea9a086da308764209c4b8279bfceb43fee7b46b55",
      "blockNumber": 115380,
      "transactionIndex": 4,
      "confirmations": null,
      "from": "0x9A6eb0bBBE50281644D7a7839147F59819506Ac0",
      "gasPrice": {
        "_hex": "0xd31ee079b"
      },
      "gasLimit": {
        "_hex": "0x5208"
      },
      "to": "0x32Be343B94f860124dC4fEe278FDCBD38C102D88",
      "value": {
        "_hex": "0x9a6d46df7d86c800"
      },
      "nonce": 7,
      "data": "0x",
      "r": "0x4281b4e0e190ef605cd69dfc6d8cbcde12b10b280d344eee3e18daecbe34f88a",
      "s": "0x1cf64f10cc411d2732473c4e0ba6ca10962f350796630bdcbe73053af5070d13",
      "v": 27,
      "creates": null,
      "raw": "0xf86c07850d31ee079b8252089432be343b94f860124dc4fee278fdcbd38c102d88889a6d46df7d86c800801ba04281b4e0e190ef605cd69dfc6d8cbcde12b10b280d344eee3e18daecbe34f88aa01cf64f10cc411d2732473c4e0ba6ca10962f350796630bdcbe73053af5070d13",
      "networkId": 0,
      "chainId": 0
    },
    {
      "hash": "0xb1a257d2bef6da6adc08ae524265c9f997df9bfd1347c9c9ebb2b8b1bc9e87c7",
      "blockHash": "0x567cb0048491a120e73becea9a086da308764209c4b8279bfceb43fee7b46b55",
      "blockNumber": 115380,
      "transactionIndex": 5,
      "confirmations": null,
      "from": "0x250978C66B17d66f4167197A38b631d8900968C0",
      "gasPrice": {
        "_hex": "0xd31ee079b"
      },
      "gasLimit": {
        "_hex": "0x5208"
      },
      "to": "0x32Be343B94f860124dC4fEe278FDCBD38C102D88",
      "value": {
        "_hex": "0x4bd6430deff320000"
      },
      "nonce": 7,
      "data": "0x",
      "r": "0xeee462bee75acc70dd88fb2f38f1ebce62fa80448bc4d46a143b9c7535cb1f61",
      "s": "0x41c06b36d78162b0ba6ac5e08128d0849c7cb35c4d3c5a09315d3c1300d27565",
      "v": 27,
      "creates": null,
      "raw": "0xf86d07850d31ee079b8252089432be343b94f860124dc4fee278fdcbd38c102d888904bd6430deff320000801ba0eee462bee75acc70dd88fb2f38f1ebce62fa80448bc4d46a143b9c7535cb1f61a041c06b36d78162b0ba6ac5e08128d0849c7cb35c4d3c5a09315d3c1300d27565",
      "networkId": 0,
      "chainId": 0
    },
    {
      "hash": "0x1254464710a2dce23e77a75eb9dbdf6e2cf31965d49b2a2229d91d56a51e8372",
      "blockHash": "0x567cb0048491a120e73becea9a086da308764209c4b8279bfceb43fee7b46b55",
      "blockNumber": 115380,
      "transactionIndex": 6,
      "confirmations": null,
      "from": "0x0EB0AcFB7C81a83296b8C023673f362e8FCd88bD",
      "gasPrice": {
        "_hex": "0xd31ee079b"
      },
      "gasLimit": {
        "_hex": "0x5208"
      },
      "to": "0x32Be343B94f860124dC4fEe278FDCBD38C102D88",
      "value": {
        "_hex": "0x1c0b83499d420400"
      },
      "nonce": 9,
      "data": "0x",
      "r": "0x6f4a9841b43f46a78511f9534591bbc5003c09c9a8dd78c560f65d6f5e597c1d",
      "s": "0x557dbc28dc29e1043ea356f016adc4d48af78ada36685a460a9a5d68b2d589c3",
      "v": 27,
      "creates": null,
      "raw": "0xf86c09850d31ee079b8252089432be343b94f860124dc4fee278fdcbd38c102d88881c0b83499d420400801ba06f4a9841b43f46a78511f9534591bbc5003c09c9a8dd78c560f65d6f5e597c1da0557dbc28dc29e1043ea356f016adc4d48af78ada36685a460a9a5d68b2d589c3",
      "networkId": 0,
      "chainId": 0
    }
  ]
}