{
  "hash": "0x9288657bbe587a8f8320d915befa9e4e0daa30ad8e46bb214340173dbcf63728",
  "parentHash": "0x3c944673b98e6d93952690a7a4b20b804d047c7ae6faf3dfaa61cbf82b4c8f25",
  "number": 80051,
  "timestamp": 1439479388,
  "nonce": "0x24970823b3969e62",
  "difficulty": 2348288173786,
  "gasLimit": {
    "_hex": "0x2fefd8"
  },
  "gasUsed": {
    "_hex": "0x6ed7"
  },
  "miner": "0xf927a40C8B7F6E07c5af7FA2155B4864a4112B13",
  "extraData": "0x",
  "transactions": [
    {
      "hash": "0x4601bc6ef73d9ab250e89de82297b7a45222d374daca90911b4785640097575b",
      "blockHash": "0x9288657bbe587a8f8320d915befa9e4e0daa30ad8e46bb214340173dbcf63728",
      "blockNumber": 80051,
      "transactionIndex": 0,
      "confirmations": null,
      "from": "0x87C5B5874A18B4306DF8a752a6C8cc3E82daFc19",
      "gasPrice": {
        "_hex": "0x1060cb8eeab"
      },
      "gasLimit": {
        "_hex": "0x493e0"
      },
      "to": "0xC4c51de1AbF5D60DBd329eC0F999Fd8f021ae9fC",
      "value": {
        "_hex": "0x0"
      },
      "nonce": 124,
      "data": "0xbd66528a6361740000000000000000000000000000000000000000000000000000000000",
      "r": "0xf5dd04be9a736223df5d02cb951f28e5cb97866edb1051d2036b4548493ad04e",
      "s": "0x115f0f7bdfd01733875a39441099aadf974020d3abd8b849d02d6243ece31c75",
      "v": 28,
      "creates": null,
      "raw": "0xf88a7c8601060cb8eeab830493e094c4c51de1abf5d60dbd329ec0f999fd8f021ae9fc80a4bd66528a63617400000000000000000000000000000000000000000000000000000000001ca0f5dd04be9a736223df5d02cb951f28e5cb97866edb1051d2036b4548493ad04ea0115f0f7bdfd01733875a39441099aadf974020d3abd8b849d02d6243ece31c75",
      "networkId": 0,
      "chainId": 0
    }
  ]
}