{
  "hash": "0x3764104425823903ddc85c955df109ad63b83f0080497220f8656228e712033a",
  "parentHash": "0xd33db4c579af537f48dda2e5ad7a39d4a5af5ad8f1483112cec500430152187b",
  "number": 65287,
  "timestamp": 1439234377,
  "nonce": "0x079f255156a44f16",
  "difficulty": 1944523441165,
  "gasLimit": {
    "_hex": "0x2fefd8"
  },
  "gasUsed": {
    "_hex": "0x5208"
  },
  "miner": "0x7D45E10A0d63eCCA0694a7cbfF030f4dD87DA0dC",
  "extraData": "0x476574682f76312e302e302f77696e646f77732f676f312e342e32",
  "transactions": [
    {
      "hash": "0xa82f6b1438c6427e5abdd142794bc4f1b0dddccf03d7524384ced315acc81b64",
      "blockHash": "0x3764104425823903ddc85c955df109ad63b83f0080497220f8656228e712033a",
      "blockNumber": 65287,
      "transactionIndex": 0,
      "confirmations": null,
      "from": "0x120A270bbC009644e35F0bB6ab13f95b8199c4ad",
      "gasPrice": {
        "_hex": "0xd899cbb46"
      },
      "gasLimit": {
        "_hex": "0x15f90"
      },
      "to": "0x8AAcA7c86A96D7E1B362E33F6BcBbC5e8B90cC14",
      "value": {
        "_hex": "0x2bb864f3a99ed05000"
      },
      "nonce": 123,
      "data": "0x",
      "r": "0x9fc58107a4a8baa9d59be782dbcdd8e22fe24c379040beb4cabc6aa5ff25f8f0",
      "s": "0x15b11d7bafabe86dbada7b5d1875908892aee9372e5120ccb43ea01850ae88b0",
      "v": 28,
      "creates": null,
      "raw": "0xf86e7b850d899cbb4683015f90948aaca7c86a96d7e1b362e33f6bcbbc5e8b90cc14892bb864f3a99ed05000801ca09fc58107a4a8baa9d59be782dbcdd8e22fe24c379040beb4cabc6aa5ff25f8f0a015b11d7bafabe86dbada7b5d1875908892aee9372e5120ccb43ea01850ae88b0",
      "networkId": 0,
      "chainId": 0
    }
  ]
}