{
  "hash": "0xb2a50396e69e9dd6d38b6ee8742eec25b0ee0172298e58d59b039419cdb78616",
  "parentHash": "0x0a3b45da79a46c11d109756c542e78401b8069fc3f02f1b0d60520d3980b83ba",
  "number": 101938,
  "timestamp": 1439830163,
  "nonce": "0x943dab302b037ff6",
  "difficulty": 3928145284375,
  "gasLimit": {
    "_hex": "0x2fefd8"
  },
  "gasUsed": {
    "_hex": "0x5208"
  },
  "miner": "0x753562eEA69CD2D342A9c07EDD49b9753dc0F01e",
  "extraData": "0x",
  "transactions": [
    {
      "hash": "0xbc7ddbdda53e53d31ed79bfc416123a826e03c8071139f23eb170d7c8df870ef",
      "blockHash": "0xb2a50396e69e9dd6d38b6ee8742eec25b0ee0172298e58d59b039419cdb78616",
      "blockNumber": 101938,
      "transactionIndex": 0,
      "confirmations": null,
      "from": "0x0DBaD90C967BFfeA4d6B589c0d2AF50A0eA16304",
      "gasPrice": {
        "_hex": "0xcb8466f64"
      },
      "gasLimit": {
        "_hex": "0x5208"
      },
      "to": "0x32Be343B94f860124dC4fEe278FDCBD38C102D88",
      "value": {
        "_hex": "0x4b1ccedbf24104000"
      },
      "nonce": 2,
      "data": "0x",
      "r": "0x618b7a4885ed3fa37c22e602aa1d1f9102795be229e15708e9352365c9dfd750",
      "s": "0x30ec6b657aa594f2c3ed02b7d0c93f0a244a98771003f8f94f52170c31288e52",
      "v": 28,
      "creates": null,
      "raw": "0xf86d02850cb8466f648252089432be343b94f860124dc4fee278fdcbd38c102d888904b1ccedbf24104000801ca0618b7a4885ed3fa37c22e602aa1d1f9102795be229e15708e9352365c9dfd750a030ec6b657aa594f2c3ed02b7d0c93f0a244a98771003f8f94f52170c31288e52",
      "networkId": 0,
      "chainId": 0
    }
  ]
}