{
  "hash": "0x7d603a1fb2100d7a2927259fcd22bc818ced315b4ab6cb889512a1f0b414589e",
  "parentHash": "0xab7c3276187b141067de864f248e8e93777baadeb8838c135171683d6726c09a",
  "number": 68298,
  "timestamp": 1439285520,
  "nonce": "0x00084e417b290805",
  "difficulty": 2004550230451,
  "gasLimit": {
    "_hex": "0x2fefd8"
  },
  "gasUsed": {
    "_hex": "0xbe6c"
  },
  "miner": "0x31995C46B15C84523cDEE26f49A681b8237e43F5",
  "extraData": "0x476574682f76312e302e312f77696e646f77732f676f312e342e32",
  "transactions": [
    {
      "hash": "0x1e5dc9d5df939af30f4c9c2b9e4a218447dcefa8ef812b4791d5b97960969252",
      "blockHash": "0x7d603a1fb2100d7a2927259fcd22bc818ced315b4ab6cb889512a1f0b414589e",
      "blockNumber": 68298,
      "transactionIndex": 0,
      "confirmations": null,
      "from": "0x04574C01Ae5F696A9aAc680c6aa9C2F5E992f191",
      "gasPrice": {
        "_hex": "0xba43b7400"
      },
      "gasLimit": {
        "_hex": "0x15f90"
      },
      "to": "0x793AE8C1b1a160BFc07BFB0d04F85eab1A71F4f2",
      "value": {
        "_hex": "0x0"
      },
      "nonce": 0,
      "data": "0x3ba15036",
      "r": "0x82290b4dfc73a1504af23ade5c9acc11f221ccc3d4233352aaf9081213c6a5ef",
      "s": "0x07b3aac9bd7544387288b4074fa8c8b19f396d0252618012d778a28bd84f956f",
      "v": 28,
      "creates": null,
      "raw": "0xf86980850ba43b740083015f9094793ae8c1b1a160bfc07bfb0d04f85eab1a71f4f280843ba150361ca082290b4dfc73a1504af23ade5c9acc11f221ccc3d4233352aaf9081213c6a5efa007b3aac9bd7544387288b4074fa8c8b19f396d0252618012d778a28bd84f956f",
      "networkId": 0,
      "chainId": 0
    }
  ]
}