{
  "hash": "0x7e4c8cc650390ae217e6580ea74fd75c5ec7f85b2d9e658e428235e59af16a79",
  "parentHash": "0x1d5b928061287c700a64e706151c9f248147fe7072172127044ae6f9327229e1",
  "number": 101130,
  "timestamp": 1439817882,
  "nonce": "0xe2b0dc092130bd66",
  "difficulty": 3867617547033,
  "gasLimit": {
    "_hex": "0x2fefd8"
  },
  "gasUsed": {
    "_hex": "0xf618"
  },
  "miner": "0x6541237dAaFf6688A79f9F2F370Ca0E7Ee20BD33",
  "extraData": "0x476574682f76312e302e312f77696e646f77732f676f312e342e32",
  "transactions": [
    {
      "hash": "0xe6e2cae382be47d006b0785cf65bce0f1812ea165af25bdac3bc896d914f1134",
      "blockHash": "0x7e4c8cc650390ae217e6580ea74fd75c5ec7f85b2d9e658e428235e59af16a79",
      "blockNumber": 101130,
      "transactionIndex": 0,
      "confirmations": null,
      "from": "0x3620db64D25D412bAb4C8d93E2e0D7e64e8Cb933",
      "gasPrice": {
        "_hex": "0xdd226d712"
      },
      "gasLimit": {
        "_hex": "0x5208"
      },
      "to": "0x32Be343B94f860124dC4fEe278FDCBD38C102D88",
      "value": {
        "_hex": "0x22db66777dbe220000"
      },
      "nonce": 12,
      "data": "0x",
      "r": "0x3a2c081215da3ebc346adf1ea673132ed2576ac350a4256aefa4a0cb47be8dc8",
      "s": "0x27bd63a47c853e29668f848da761066cfb5287cc2faeab4f4fb31c58be561eab",
      "v": 28,
      "creates": null,
      "raw": "0xf86d0c850dd226d7128252089432be343b94f860124dc4fee278fdcbd38c102d888922db66777dbe220000801ca03a2c081215da3ebc346adf1ea673132ed2576ac350a4256aefa4a0cb47be8dc8a027bd63a47c853e29668f848da761066cfb5287cc2faeab4f4fb31c58be561eab",
      "networkId": 0,
      "chainId": 0
    },
    {
      "hash": "0x76f9feba3da383e43181b1610c9e555d97d8711be79145a76722dec50119e40c",
      "blockHash": "0x7e4c8cc650390ae217e6580ea74fd75c5ec7f85b2d9e658e428235e59af16a79",
      "blockNumber": 101130,
      "transactionIndex": 1,
      "confirmations": null,
      "from": "0xB9A0a0410aA5e26bFa66Cc3ACAF0A6FC61Df5588",
      "gasPrice": {
        "_hex": "0xdd226d712"
      },
      "gasLimit": {
        "_hex": "0x5208"
      },
      "to": "0x32Be343B94f860124dC4fEe278FDCBD38C102D88",
      "value": {
        "_hex": "0x2f1f6816604ef6000"
      },
      "nonce": 7,
      "data": "0x",
      "r": "0xe4c545c3f6f37c8e7ed0ee5f179ae8b8e8b6e03453e4825d9d33c9d6772315ec",
      "s": "0x5008a124efe50a93c77df3cf8d9c04fd9043ac66d1e05af22ef034db00b14893",
      "v": 28,
      "creates": null,
      "raw": "0xf86d07850dd226d7128252089432be343b94f860124dc4fee278fdcbd38c102d888902f1f6816604ef6000801ca0e4c545c3f6f37c8e7ed0ee5f179ae8b8e8b6e03453e4825d9d33c9d6772315eca05008a124efe50a93c77df3cf8d9c04fd9043ac66d1e05af22ef034db00b14893",
      "networkId": 0,
      "chainId": 0
    },
    {
      "hash": "0xf024e05e55f1858347c5dcb4cd8d3b3d06018de7a517f2f2e8c05435f49137dd",
      "blockHash": "0x7e4c8cc650390ae217e6580ea74fd75c5ec7f85b2d9e658e428235e59af16a79",
      "blockNumber": 101130,
      "transactionIndex": 2,
      "confirmations": null,
      "from": "0xb1abce2918E21ddb93AA452731a12672A3d9F75a",
      "gasPrice": {
        "_hex": "0xdd226d712"
      },
      "gasLimit": {
        "_hex": "0x5208"
      },
      "to": "0x32Be343B94f860124dC4fEe278FDCBD38C102D88",
      "value": {
        "_hex": "0x455f23c292ea5c00"
      },
      "nonce": 85,
      "data": "0x",
      "r": "0xf63f1aed9a3e9e69af583815c33b3f6b2b1529bea5285b23d611ea2df3642983",
      "s": "0x26bb9650e5a5ab6d168a89841b16eeb29ca75d52ac9219aeaacc6a1a361d62fc",
      "v": 28,
      "creates": null,
      "raw": "0xf86c55850dd226d7128252089432be343b94f860124dc4fee278fdcbd38c102d8888455f23c292ea5c00801ca0f63f1aed9a3e9e69af583815c33b3f6b2b1529bea5285b23d611ea2df3642983a026bb9650e5a5ab6d168a89841b16eeb29ca75d52ac9219aeaacc6a1a361d62fc",
      "networkId": 0,
      "chainId": 0
    }
  ]
}