{
  "hash": "0xcb0560a261b508bb00e46b6189136205b6f8c01f58851a17551591f024227e81",
  "parentHash": "0xa9b2828d594fdb77f58e02a56dbc1b8f6e5849e92fa4cee82d48a2898522d0cf",
  "number": 119533,
  "timestamp": 1440144537,
  "nonce": "0x309c933731802d23",
  "difficulty": 4387953155043,
  "gasLimit": {
    "_hex": "0x2fefd8"
  },
  "gasUsed": {
    "_hex": "0x5208"
  },
  "miner": "0xe6A7a1d47ff21B6321162AEA7C6CB457D5476Bca",
  "extraData": "0xd783010002844765746887676f312e342e32856c696e7578",
  "transactions": [
    {
      "hash": "0xa53abe05f50a7d0f399799b7ccf88ec3760cb6a78e77e1d490d737b66e99e340",
      "blockHash": "0xcb0560a261b508bb00e46b6189136205b6f8c01f58851a17551591f024227e81",
      "blockNumber": 119533,
      "transactionIndex": 0,
      "confirmations": null,
      "from": "0x007f7f58D3eb5b7510A301eCC749FC1fCDDBE14D",
      "gasPrice": {
        "_hex": "0xba43b7400"
      },
      "gasLimit": {
        "_hex": "0x15f90"
      },
      "to": "0xb1abce2918E21ddb93AA452731a12672A3d9F75a",
      "value": {
        "_hex": "0x4563918244f40000"
      },
      "nonce": 360,
      "data": "0x",
      "r": "0x3061cbb222dd7a82052ec4478213567f27953797936bcdae93122ceedcb39e08",
      "s": "0x3e5b7181cc29c11af256708b53e6e9a225a8f343b12f2f8e7eb4d2afe881fc77",
      "v": 28,
      "creates": null,
      "raw": "0xf86f820168850ba43b740083015f9094b1abce2918e21ddb93aa452731a12672a3d9f75a884563918244f40000801ca03061cbb222dd7a82052ec4478213567f27953797936bcdae93122ceedcb39e08a03e5b7181cc29c11af256708b53e6e9a225a8f343b12f2f8e7eb4d2afe881fc77",
      "networkId": 0,
      "chainId": 0
    }
  ]
}