{
  "hash": "0x53feb7f0f230cfb9e3e84e55c070365cfc8390949f6f7fa305e9dbd87cad23c9",
  "parentHash": "0x8177a1cd8d2adefdfd959c3bb9bda2719318361b475ecf0e1e8ea8d5efd4bda9",
  "number": 120968,
  "timestamp": 1440169195,
  "nonce": "0x013940186a9d06b3",
  "difficulty": 4419453388316,
  "gasLimit": {
    "_hex": "0x2fefd8"
  },
  "gasUsed": {
    "_hex": "0x546c"
  },
  "miner": "0xe6A7a1d47ff21B6321162AEA7C6CB457D5476Bca",
  "extraData": "0xd783010002844765746887676f312e342e32856c696e7578",
  "transactions": [
    {
      "hash": "0xf03f7c42b790a52c45940cb53ef0e98e5db41944fcd9b3172a8a5c40fedb5015",
      "blockHash": "0x53feb7f0f230cfb9e3e84e55c070365cfc8390949f6f7fa305e9dbd87cad23c9",
      "blockNumber": 120968,
      "transactionIndex": 0,
      "confirmations": null,
      "from": "0x7F993ddb7E02c282B898F6155f680Ef5B9AFF907",
      "gasPrice": {
        "_hex": "0x110c8f7d8de"
      },
      "gasLimit": {
        "_hex": "0xc350"
      },
      "to": "0x2910543Af39abA0Cd09dBb2D50200b3E800A63D2",
      "value": {
        "_hex": "0x8ac7230489e80000"
      },
      "nonce": 0,
      "data": "0x454e57343535435638",
      "r": "0x98e843ee3c0153b280d984a32458827891c6ac656e295b2d82f001045e39e209",
      "s": "0xd88679cd023cab2ce3d08adbddc1278361a64548646057eb717167e69b9829bd",
      "v": 27,
      "creates": null,
      "raw": "0xf87680860110c8f7d8de82c350942910543af39aba0cd09dbb2d50200b3e800a63d2888ac7230489e8000089454e573435354356381ba098e843ee3c0153b280d984a32458827891c6ac656e295b2d82f001045e39e209a0d88679cd023cab2ce3d08adbddc1278361a64548646057eb717167e69b9829bd",
      "networkId": 0,
      "chainId": 0
    }
  ]
}