{
  "hash": "0x0ca19288aff622da3731019b001dd2a5ed366f315ab52a345a581bc5330b4e13",
  "parentHash": "0x48ba6710da4898082b41b5c733a952c4389d0ea104ad535a68cf496a9700a93a",
  "number": 82641,
  "timestamp": 1439522798,
  "nonce": "0xa9135c23bdc1f419",
  "difficulty": 2368287066608,
  "gasLimit": {
    "_hex": "0x2fefd8"
  },
  "gasUsed": {
    "_hex": "0x5208"
  },
  "miner": "0x0089508679abF8c71BF6781687120e3E6a84584D",
  "extraData": "0x",
  "transactions": [
    {
      "hash": "0xd8db2cf9869fed7c81aac6ce919b3198c2c6511d8dfcb1a0c1625f3c02a5248a",
      "blockHash": "0x0ca19288aff622da3731019b001dd2a5ed366f315ab52a345a581bc5330b4e13",
      "blockNumber": 82641,
      "transactionIndex": 0,
      "confirmations": null,
      "from": "0x59b7ee394b4F4EED8494C7920103D7e7e7E2BFF4",
      "gasPrice": {
        "_hex": "0xba43b7400"
      },
      "gasLimit": {
        "_hex": "0x5b04"
      },
      "to": "0xd72156c6AE3550E4BdCeF828812B7C95aF027f5B",
      "value": {
        "_hex": "0x2b5e3af16b1880000"
      },
      "nonce": 2,
      "data": "0x",
      "r": "0x70c138c0c9ee4c404a614a8fde3b24b40103364187ade4e2a4b3554216af6796",
      "s": "0x204ac1aaf77f233fc1ee45e52e3fbcc832d53947920a93e3eab6f1afab99240a",
      "v": 27,
      "creates": null,
      "raw": "0xf86d02850ba43b7400825b0494d72156c6ae3550e4bdcef828812b7c95af027f5b8902b5e3af16b1880000801ba070c138c0c9ee4c404a614a8fde3b24b40103364187ade4e2a4b3554216af6796a0204ac1aaf77f233fc1ee45e52e3fbcc832d53947920a93e3eab6f1afab99240a",
      "networkId": 0,
      "chainId": 0
    }
  ]
}