{
  "hash": "0x7219639cde922434f5da5c3cb6a404ffc94bf142f9a101bdb3835402e62c0e9a",
  "parentHash": "0xb6f56056257ed68f19697e3dfa3a1b43abcbf12473f1717602323b21e4653910",
  "number": 58978,
  "timestamp": 1439130012,
  "nonce": "0x5f5df16b0245c1b7",
  "difficulty": 1706460520886,
  "gasLimit": {
    "_hex": "0x2fefd8"
  },
  "gasUsed": {
    "_hex": "0x5208"
  },
  "miner": "0xf927a40C8B7F6E07c5af7FA2155B4864a4112B13",
  "extraData": "0x476574682f76312e302e312f6c696e75782f676f312e342e32",
  "transactions": [
    {
      "hash": "0x01598b8298d0b3761ca355a3b3afef084544953e01bf0babd49a4868122f5f2e",
      "blockHash": "0x7219639cde922434f5da5c3cb6a404ffc94bf142f9a101bdb3835402e62c0e9a",
      "blockNumber": 58978,
      "transactionIndex": 0,
      "confirmations": null,
      "from": "0x0aAA075488f382ADfb50f99Ce0E8e27b47740AEF",
      "gasPrice": {
        "_hex": "0xd1143a2d5"
      },
      "gasLimit": {
        "_hex": "0x5208"
      },
      "to": "0x32Be343B94f860124dC4fEe278FDCBD38C102D88",
      "value": {
        "_hex": "0xd9578de41810c00"
      },
      "nonce": 1,
      "data": "0x",
      "r": "0x4d113e26c0225d1eaf90c334ac1b0e655e54b389051042c3959449ffc381408f",
      "s": "0x2ea92bcc6613ad46beb482589890cab43e7d5f7e77b8fdbdf86e17c05f66eb27",
      "v": 28,
      "creates": null,
      "raw": "0xf86c01850d1143a2d58252089432be343b94f860124dc4fee278fdcbd38c102d88880d9578de41810c00801ca04d113e26c0225d1eaf90c334ac1b0e655e54b389051042c3959449ffc381408fa02ea92bcc6613ad46beb482589890cab43e7d5f7e77b8fdbdf86e17c05f66eb27",
      "networkId": 0,
      "chainId": 0
    }
  ]
}