{
  "hash": "0x259b85b1595c4e1a8f85b88793ed37bfd09053201ae68ddfda6723af1aaea15c",
  "parentHash": "0x11cc2692e2a86c3187d4efba01aa77ceaea02f5d5ab2908996f91154886035a2",
  "number": 107302,
  "timestamp": 1439920098,
  "nonce": "0x264af10e2aaa799a",
  "difficulty": 4400797434072,
  "gasLimit": {
    "_hex": "0x2fefd8"
  },
  "gasUsed": {
    "_hex": "0x5208"
  },
  "miner": "0x623d2411c3bb3340784155F9a688b0085251aB5c",
  "extraData": "0x",
  "transactions": [
    {
      "hash": "0x22e0e5485f49429f75495023025879d963151d022fd88768ceb4d769df0e7e0b",
      "blockHash": "0x259b85b1595c4e1a8f85b88793ed37bfd09053201ae68ddfda6723af1aaea15c",
      "blockNumber": 107302,
      "transactionIndex": 0,
      "confirmations": null,
      "from": "0x7892e574CADDBB5E9491DE9F26C1F2747F442eeE",
      "gasPrice": {
        "_hex": "0xd641f460d"
      },
      "gasLimit": {
        "_hex": "0x15f90"
      },
      "to": "0x97A2b04809Fd7Dfa5C1d7B25e38Aad46964330F5",
      "value": {
        "_hex": "0x38d7ea4c68000"
      },
      "nonce": 6,
      "data": "0x",
      "r": "0x1b8c414c57c22d88dba02c27c6878a4e09eb70acfdeeeed29a6565dce51336cd",
      "s": "0x0f697491f3a2a73286387ffd1f806bf8fa129f7ed19d26aaa64de55eadec94f6",
      "v": 28,
      "creates": null,
      "raw": "0xf86c06850d641f460d83015f909497a2b04809fd7dfa5c1d7b25e38aad46964330f587038d7ea4c68000801ca01b8c414c57c22d88dba02c27c6878a4e09eb70acfdeeeed29a6565dce51336cda00f697491f3a2a73286387ffd1f806bf8fa129f7ed19d26aaa64de55eadec94f6",
      "networkId": 0,
      "chainId": 0
    }
  ]
}