{
  "hash": "0x15cf69b9d1c56d038d9aa71080f3031a9b4183a0d3f0844a2baf53db1c42a6bf",
  "parentHash": "0x1f2f031f55e07606ac33749b708ae840cc38f4b8f15e701150924b03d869f0a7",
  "number": 117808,
  "timestamp": 1440115725,
  "nonce": "0x31f5bc6385dc7b7a",
  "difficulty": 4352575421371,
  "gasLimit": {
    "_hex": "0x2fefd8"
  },
  "gasUsed": {
    "_hex": "0x546c"
  },
  "miner": "0x88D74a59454F6cF3B51ef6b9136AFb6b9D405A88",
  "extraData": "0x",
  "transactions": [
    {
      "hash": "0xcceff23e78175aca6a0c4e50f1f93df282d5d590b1abb4cf503ff93839fda4dd",
      "blockHash": "0x15cf69b9d1c56d038d9aa71080f3031a9b4183a0d3f0844a2baf53db1c42a6bf",
      "blockNumber": 117808,
      "transactionIndex": 0,
      "confirmations": null,
      "from": "0xC58b9Cc61dEDbb98c33F224d271f0e228b583433",
      "gasPrice": {
        "_hex": "0x110c8f7d8de"
      },
      "gasLimit": {
        "_hex": "0xc350"
      },
      "to": "0x2910543Af39abA0Cd09dBb2D50200b3E800A63D2",
      "value": {
        "_hex": "0xccce48474c51c80000"
      },
      "nonce": 1,
      "data": "0x454e4e5a44374e4547",
      "r": "0x3c52522e66b179e17605cfc3074c0ccc69444c4acc10f9208f4d81031e2f03c6",
      "s": "0xc0db7f02366d5c9bdb4652a78439f1666fd57d5f67a1c3d599023777f8be996a",
      "v": 27,
      "creates": null,
      "raw": "0xf87701860110c8f7d8de82c350942910543af39aba0cd09dbb2d50200b3e800a63d289ccce48474c51c8000089454e4e5a44374e45471ba03c52522e66b179e17605cfc3074c0ccc69444c4acc10f9208f4d81031e2f03c6a0c0db7f02366d5c9bdb4652a78439f1666fd57d5f67a1c3d599023777f8be996a",
      "networkId": 0,
      "chainId": 0
    }
  ]
}