{
  "hash": "0x3c94e413ec9a02182f9b37a577ce6e75e01337772b7adee19bf35a12c44f9a46",
  "parentHash": "0xbe17e508012da33493a1f80e2dc80e4a6e4dc9f0369ef5fdf3baef9f736d0702",
  "number": 106088,
  "timestamp": 1439898376,
  "nonce": "0x324566c4e7479969",
  "difficulty": 4457668150587,
  "gasLimit": {
    "_hex": "0x2fefd8"
  },
  "gasUsed": {
    "_hex": "0xa414"
  },
  "miner": "0xcf00A85f3826941e7A25BFcF9Aac575d40410852",
  "extraData": "0x476574682f76312e302e312f77696e646f77732f676f312e342e32",
  "transactions": [
    {
      "hash": "0xc247dc79923ea0e505caa3ce047143ff404fa1f02078f9ee0ed85b785cb499bd",
      "blockHash": "0x3c94e413ec9a02182f9b37a577ce6e75e01337772b7adee19bf35a12c44f9a46",
      "blockNumber": 106088,
      "transactionIndex": 0,
      "confirmations": null,
      "from": "0x1576e79963A5288CD91F8B822247Bd69508729e9",
      "gasPrice": {
        "_hex": "0xde3db410c"
      },
      "gasLimit": {
        "_hex": "0x7530"
      },
      "to": "0x9799B868C884690465A1e50A97D76a8B107F7583",
      "value": {
        "_hex": "0x11de1e6db450c0000"
      },
      "nonce": 1,
      "data": "0x00",
      "r": "0xd0c076ebe2b9247bfe14a25b6444c9f74a0905c50acd412082be0177eb2fe77b",
      "s": "0xd1116d6ddb1169c3cb6838819ee5154070412b9b52ade8193939d36f273acb1d",
      "v": 28,
      "creates": null,
      "raw": "0xf86d01850de3db410c827530949799b868c884690465a1e50a97d76a8b107f758389011de1e6db450c0000001ca0d0c076ebe2b9247bfe14a25b6444c9f74a0905c50acd412082be0177eb2fe77ba0d1116d6ddb1169c3cb6838819ee5154070412b9b52ade8193939d36f273acb1d",
      "networkId": 0,
      "chainId": 0
    },
    {
      "hash": "0xd498cc2e3ea0bc1ad6eb1e323621db43f5dcc7aefd4799896e7e965920d7b1d8",
      "blockHash": "0x3c94e413ec9a02182f9b37a577ce6e75e01337772b7adee19bf35a12c44f9a46",
      "blockNumber": 106088,
      "transactionIndex": 1,
      "confirmations": null,
      "from": "0xFf1Ef60B3bF5d14b5C40388e35A6fbd42700efC6",
      "gasPrice": {
        "_hex": "0xd924861f9"
      },
      "gasLimit": {
        "_hex": "0x15f90"
      },
      "to": "0x556ca325C21e450b2aFf86D9c8eF0Fa371971c97",
      "value": {
        "_hex": "0xde0b6b3a7640000"
      },
      "nonce": 0,
      "data": "0x",
      "r": "0x00a192f60db0d688b8e50705e5e784c18aceb6e5d8b66b8da6d71de3fb6bb07a",
      "s": "0x37c4de4ae5630643d110cb457ca46109ca827572a3fa81aba3dca1822b04cdf3",
      "v": 28,
      "creates": null,
      "raw": "0xf86c80850d924861f983015f9094556ca325c21e450b2aff86d9c8ef0fa371971c97880de0b6b3a7640000801c9fa192f60db0d688b8e50705e5e784c18aceb6e5d8b66b8da6d71de3fb6bb07aa037c4de4ae5630643d110cb457ca46109ca827572a3fa81aba3dca1822b04cdf3",
      "networkId": 0,
      "chainId": 0
    }
  ]
}