{
  "hash": "0xc9b13c9c2959ce5a546fb1831c278487c1e20215dcc47e165312249d8e575992",
  "parentHash": "0x5476c59939ef8e914c12d02b4b49918392e8f104e569c8cd48e64b8ddc6b74a9",
  "number": 114607,
  "timestamp": 1440043253,
  "nonce": "0x8bf5f239612dabc8",
  "difficulty": 4499040519369,
  "gasLimit": {
    "_hex": "0x2fefd8"
  },
  "gasUsed": {
    "_hex": "0x5208"
  },
  "miner": "0x580992B51e3925e23280EfB93d3047C82f17E038",
  "extraData": "0x476574682f76312e302e312f6c696e75782f676f312e342e32",
  "transactions": [
    {
      "hash": "0xf334dc4f133599347cb83a57abeb6aa30335a380244458ba040107506f3ae5bc",
      "blockHash": "0xc9b13c9c2959ce5a546fb1831c278487c1e20215dcc47e165312249d8e575992",
      "blockNumber": 114607,
      "transactionIndex": 0,
      "confirmations": null,
      "from": "0xA09503A48cDB1bb521dD4F5a921F877bC7D8DfA0",
      "gasPrice": {
        "_hex": "0xe1299bb3e"
      },
      "gasLimit": {
        "_hex": "0x15f90"
      },
      "to": "0xb2e9D76bf50Fc36bf7d3944b63e9Ca889b699968",
      "value": {
        "_hex": "0x28ccfa6c57a60000"
      },
      "nonce": 2,
      "data": "0x",
      "r": "0x85f8292cce667d187c23a8ce99078fb03ffbf2f53fffbfebf575bab59b86ffe2",
      "s": "0x4b41ca01304b9d18fecaf511ad21b967c7db45ae7e0500bb1ba9b50b9685dce1",
      "v": 27,
      "creates": null,
      "raw": "0xf86d02850e1299bb3e83015f9094b2e9d76bf50fc36bf7d3944b63e9ca889b6999688828ccfa6c57a60000801ba085f8292cce667d187c23a8ce99078fb03ffbf2f53fffbfebf575bab59b86ffe2a04b41ca01304b9d18fecaf511ad21b967c7db45ae7e0500bb1ba9b50b9685dce1",
      "networkId": 0,
      "chainId": 0
    }
  ]
}