{
  "hash": "0xc924dd749de6915f8a805f4ec91107de0826307a2fe25add4ebc4ba1544b2633",
  "parentHash": "0xeec7668060b5540c2f280874d695a3de14c04713453ccf130b1ecea9be34c79b",
  "number": 110323,
  "timestamp": 1439971745,
  "nonce": "0xdd83321e01d628fa",
  "difficulty": 4367109763207,
  "gasLimit": {
    "_hex": "0x2fefd8"
  },
  "gasUsed": {
    "_hex": "0x19a28"
  },
  "miner": "0xf927a40C8B7F6E07c5af7FA2155B4864a4112B13",
  "extraData": "0x",
  "transactions": [
    {
      "hash": "0x235c5f1e58a24e37030f0d4c018047b47e97f8883f07f8e80d9bcf1386b8375e",
      "blockHash": "0xc924dd749de6915f8a805f4ec91107de0826307a2fe25add4ebc4ba1544b2633",
      "blockNumber": 110323,
      "transactionIndex": 0,
      "confirmations": null,
      "from": "0xe6A7a1d47ff21B6321162AEA7C6CB457D5476Bca",
      "gasPrice": {
        "_hex": "0xdcdee3341"
      },
      "gasLimit": {
        "_hex": "0x55f0"
      },
      "to": "0x39A7Fe8E3263559BE0A179EdbAe7dD2F61E3bC45",
      "value": {
        "_hex": "0xff1816d93916fd0"
      },
      "nonce": 4098,
      "data": "0x",
      "r": "0x26c51835b22028faffde9d28e44d0fcd7111807da6f1fb25c133d0a2dd5316a0",
      "s": "0x686763c523e3264a8a825e65c4c684cf636cbda52e6f5c4bfdff730c101bbebe",
      "v": 27,
      "creates": null,
      "raw": "0xf86e821002850dcdee33418255f09439a7fe8e3263559be0a179edbae7dd2f61e3bc45880ff1816d93916fd0801ba026c51835b22028faffde9d28e44d0fcd7111807da6f1fb25c133d0a2dd5316a0a0686763c523e3264a8a825e65c4c684cf636cbda52e6f5c4bfdff730c101bbebe",
      "networkId": 0,
      "chainId": 0
    },
    {
      "hash": "0xd0b97eca5934a6cd069c398ea0d7242074dfe65109483f90b0add072f139d4ef",
      "blockHash": "0xc924dd749de6915f8a805f4ec91107de0826307a2fe25add4ebc4ba1544b2633",
      "blockNumber": 110323,
      "transactionIndex": 1,
      "confirmations": null,
      "from": "0xe6A7a1d47ff21B6321162AEA7C6CB457D5476Bca",
      "gasPrice": {
        "_hex": "0xdcdee3341"
      },
      "gasLimit": {
        "_hex": "0x55f0"
      },
      "to": "0xC7BF732Bf85d4555A10B86354C10a2e9Ae0C5ebd",
      "value": {
        "_hex": "0xff846ec8d0b6620"
      },
      "nonce": 4099,
      "data": "0x",
      "r": "0x4e1a71aa29ee098775a202ca70e98dfc50ae232917eba011fb97f3b0f7ca7382",
      "s": "0x2d1a54aa7f17b37afad82e563e2de2bf86092ed9740946eedb9743e401f8e50c",
      "v": 27,
      "creates": null,
      "raw": "0xf86e821003850dcdee33418255f094c7bf732bf85d4555a10b86354c10a2e9ae0c5ebd880ff846ec8d0b6620801ba04e1a71aa29ee098775a202ca70e98dfc50ae232917eba011fb97f3b0f7ca7382a02d1a54aa7f17b37afad82e563e2de2bf86092ed9740946eedb9743e401f8e50c",
      "networkId": 0,
      "chainId": 0
    },
    {
      "hash": "0x80ae80344eac0d606385369844b9a333e492ff05c54fd1f777e96d5ea0ebb041",
      "blockHash": "0xc924dd749de6915f8a805f4ec91107de0826307a2fe25add4ebc4ba1544b2633",
      "blockNumber": 110323,
      "transactionIndex": 2,
      "confirmations": null,
      "from": "0xe6A7a1d47ff21B6321162AEA7C6CB457D5476Bca",
      "gasPrice": {
        "_hex": "0xdcdee3341"
      },
      "gasLimit": {
        "_hex": "0x55f0"
      },
      "to": "0xB278779C2283b3286a5Dc459762C110542494364",
      "value": {
        "_hex": "0x105ff35d57f9d900"
      },
      "nonce": 4100,
      "data": "0x",
      "r": "0xcdedf321e0de8fc3cb7f3a87258a29dcdc81d964ce544b45329e2d982edaa924",
      "s": "0x39d65b56d5a3db4174304d6e2bffb27151a964ebb88d5adb09eb3266f9e025ec",
      "v": 28,
      "creates": null,
      "raw": "0xf86e821004850dcdee33418255f094b278779c2283b3286a5dc459762c11054249436488105ff35d57f9d900801ca0cdedf321e0de8fc3cb7f3a87258a29dcdc81d964ce544b45329e2d982edaa924a039d65b56d5a3db4174304d6e2bffb27151a964ebb88d5adb09eb3266f9e025ec",
      "networkId": 0,
      "chainId": 0
    },
    {
      "hash": "0xe001352387c2c9f82ed8884c768df43a42b26e40298b12435723c2d336c98d46",
      "blockHash": "0xc924dd749de6915f8a805f4ec91107de0826307a2fe25add4ebc4ba1544b2633",
      "blockNumber": 110323,
      "transactionIndex": 3,
      "confirmations": null,
      "from": "0xe6A7a1d47ff21B6321162AEA7C6CB457D5476Bca",
      "gasPrice": {
        "_hex": "0xdcdee3341"
      },
      "gasLimit": {
        "_hex": "0x55f0"
      },
      "to": "0x0f3136Da8F55444F1bFc5938a2eFb507b3a24976",
      "value": {
        "_hex": "0x1061541655999108"
      },
      "nonce": 4101,
      "data": "0x",
      "r": "0x466e7f0489d22b868e557415693bc648e91fc1a45e1594f49c15344caec6f70c",
      "s": "0x2cae1aa3d062d99374e4ca112542929ca5b7d2a7852d7dde0d6b9224e53829c5",
      "v": 28,
      "creates": null,
      "raw": "0xf86e821005850dcdee33418255f0940f3136da8f55444f1bfc5938a2efb507b3a24976881061541655999108801ca0466e7f0489d22b868e557415693bc648e91fc1a45e1594f49c15344caec6f70ca02cae1aa3d062d99374e4ca112542929ca5b7d2a7852d7dde0d6b9224e53829c5",
      "networkId": 0,
      "chainId": 0
    },
    {
      "hash": "0xe7b2947c01907c600c31c9c19853d32fc8303d46bc260e4fbccd9e464fd32e93",
      "blockHash": "0xc924dd749de6915f8a805f4ec91107de0826307a2fe25add4ebc4ba1544b2633",
      "blockNumber": 110323,
      "transactionIndex": 4,
      "confirmations": null,
      "from": "0xe6A7a1d47ff21B6321162AEA7C6CB457D5476Bca",
      "gasPrice": {
        "_hex": "0xdcdee3341"
      },
      "gasLimit": {
        "_hex": "0x55f0"
      },
      "to": "0x9E8087B1033C2f34cF0D4aD7b852100f6c4b7225",
      "value": {
        "_hex": "0x107301a13a022168"
      },
      "nonce": 4102,
      "data": "0x",
      "r": "0x0dbf27d813d3538d6c801626eff5c938a08af2027b282b990a23b6c09dfabb86",
      "s": "0x2c8ea6155b378fb57ed7b43b54571682afa91773bb4eea0196f34cd6a96c7cce",
      "v": 27,
      "creates": null,
      "raw": "0xf86e821006850dcdee33418255f0949e8087b1033c2f34cf0d4ad7b852100f6c4b722588107301a13a022168801ba00dbf27d813d3538d6c801626eff5c938a08af2027b282b990a23b6c09dfabb86a02c8ea6155b378fb57ed7b43b54571682afa91773bb4eea0196f34cd6a96c7cce",
      "networkId": 0,
      "chainId": 0
    }
  ]
}