{
  "hash": "0xfa908766412b3542170595916a4e97ade772c835c6e8f6e0422eedc92501daba",
  "parentHash": "0x43fce3ed7a9941b0bf6fb24c7150c71d3d864c1a726cab1bcba3fc5884f4e4ed",
  "number": 75638,
  "timestamp": 1439406684,
  "nonce": "0xc82f28762660787b",
  "difficulty": 2225570914907,
  "gasLimit": {
    "_hex": "0x2fefd5"
  },
  "gasUsed": {
    "_hex": "0xa410"
  },
  "miner": "0x3222BA3F3e79eA0e31467EEE7639B57923558cCD",
  "extraData": "0x",
  "transactions": [
    {
      "hash": "0xa443382a5f8bd806b671e982618a922cbd5ba95820797cfa94bcee950897c26a",
      "blockHash": "0xfa908766412b3542170595916a4e97ade772c835c6e8f6e0422eedc92501daba",
      "blockNumber": 75638,
      "transactionIndex": 0,
      "confirmations": null,
      "from": "0xDE72E29D65eAabbD236b21c1d59a486c19AbDad5",
      "gasPrice": {
        "_hex": "0xdf4c0333c"
      },
      "gasLimit": {
        "_hex": "0x5208"
      },
      "to": "0x32Be343B94f860124dC4fEe278FDCBD38C102D88",
      "value": {
        "_hex": "0xa2a158907bb5380000"
      },
      "nonce": 2,
      "data": "0x",
      "r": "0xfa280d1aed041699aeaef82f3e17b82385fa06a6e8745b49f91fe7a4aaee707d",
      "s": "0x7dd2eabe46253d11eb4395328741dcbfdad8f2d254d3f49c57b256e08f7b03c3",
      "v": 28,
      "creates": null,
      "raw": "0xf86d02850df4c0333c8252089432be343b94f860124dc4fee278fdcbd38c102d8889a2a158907bb5380000801ca0fa280d1aed041699aeaef82f3e17b82385fa06a6e8745b49f91fe7a4aaee707da07dd2eabe46253d11eb4395328741dcbfdad8f2d254d3f49c57b256e08f7b03c3",
      "networkId": 0,
      "chainId": 0
    },
    {
      "hash": "0x4b16f193004ab86451fefb0976588345872c0396978a84dcdd1ed60509703605",
      "blockHash": "0xfa908766412b3542170595916a4e97ade772c835c6e8f6e0422eedc92501daba",
      "blockNumber": 75638,
      "transactionIndex": 1,
      "confirmations": null,
      "from": "0x1467bcfA961fE8067c779935a78B4a73E7393BD8",
      "gasPrice": {
        "_hex": "0xdf4c0333c"
      },
      "gasLimit": {
        "_hex": "0x5208"
      },
      "to": "0x32Be343B94f860124dC4fEe278FDCBD38C102D88",
      "value": {
        "_hex": "0x2573dadbf6e5b000"
      },
      "nonce": 1,
      "data": "0x",
      "r": "0xdbb7c256cee351c0e5986a926a50300465fe2567c5db6b65ddb6e8fb131214a6",
      "s": "0x0d0f1bdfc9ec70a31b93d1b143de77b6a2f30ebd480efac04339a036af351fae",
      "v": 28,
      "creates": null,
      "raw": "0xf86c01850df4c0333c8252089432be343b94f860124dc4fee278fdcbd38c102d88882573dadbf6e5b000801ca0dbb7c256cee351c0e5986a926a50300465fe2567c5db6b65ddb6e8fb131214a6a00d0f1bdfc9ec70a31b93d1b143de77b6a2f30ebd480efac04339a036af351fae",
      "networkId": 0,
      "chainId": 0
    }
  ]
}