{
  "hash": "0x99d9bb666d937fd4552c3d183c90acd544b5d4af21a44aba9896955b5e6b1c5d",
  "parentHash": "0x707b1d611dd2471cbc1fd9e17cbfb059083dd94a250e78fe4ae6382db58b59a2",
  "number": 120638,
  "timestamp": 1440163487,
  "nonce": "0xc020f611f451baa7",
  "difficulty": 4419627248926,
  "gasLimit": {
    "_hex": "0x2fefd8"
  },
  "gasUsed": {
    "_hex": "0x5208"
  },
  "miner": "0x52bc44d5378309EE2abF1539BF71dE1b7d7bE3b5",
  "extraData": "0xd783010002844765746887676f312e342e32856c696e7578",
  "transactions": [
    {
      "hash": "0x6fca56373fed54be7fb787fa0cfffed89ee09d819263abeaf590097f349ecf19",
      "blockHash": "0x99d9bb666d937fd4552c3d183c90acd544b5d4af21a44aba9896955b5e6b1c5d",
      "blockNumber": 120638,
      "transactionIndex": 0,
      "confirmations": null,
      "from": "0x32Be343B94f860124dC4fEe278FDCBD38C102D88",
      "gasPrice": {
        "_hex": "0xba43b7400"
      },
      "gasLimit": {
        "_hex": "0x5208"
      },
      "to": "0xA2E85113F9D7f452d7C638475bDf82c58306c26f",
      "value": {
        "_hex": "0x107701e2c731830000"
      },
      "nonce": 1533,
      "data": "0x",
      "r": "0x93396404ca26fd72a348c8f57d488fecad3408795a14e57c22f6c5eb30824f39",
      "s": "0x7c366b72e1562b53de38403eeae3393d906dba5d13aa5b56dd1e84b42c3527e0",
      "v": 28,
      "creates": null,
      "raw": "0xf86f8205fd850ba43b740082520894a2e85113f9d7f452d7c638475bdf82c58306c26f89107701e2c731830000801ca093396404ca26fd72a348c8f57d488fecad3408795a14e57c22f6c5eb30824f39a07c366b72e1562b53de38403eeae3393d906dba5d13aa5b56dd1e84b42c3527e0",
      "networkId": 0,
      "chainId": 0
    }
  ]
}