{
  "hash": "0xc5b690f7487e843c0ed5efac7a1230cde0c8f2ff0a019687864be7bcf8ff034e",
  "parentHash": "0x3697750aaa22c1535fe197f62e8e2a1f245ce54cf429c27d03b0e527426e1f37",
  "number": 109516,
  "timestamp": 1439957928,
  "nonce": "0xe8705aef1f577fea",
  "difficulty": 4438475196796,
  "gasLimit": {
    "_hex": "0x2fefd8"
  },
  "gasUsed": {
    "_hex": "0xa410"
  },
  "miner": "0xe6A7a1d47ff21B6321162AEA7C6CB457D5476Bca",
  "extraData": "0x476574682f76312e302e312d38326566323666362f6c696e75782f676f312e34",
  "transactions": [
    {
      "hash": "0x3becbd0d3b05f7ede0a62582fc4a0cc508e0bea6a7a81db7ddb2da6b7c1295fa",
      "blockHash": "0xc5b690f7487e843c0ed5efac7a1230cde0c8f2ff0a019687864be7bcf8ff034e",
      "blockNumber": 109516,
      "transactionIndex": 0,
      "confirmations": null,
      "from": "0x535260c47e6B717F5454aB608e5e861A09cee648",
      "gasPrice": {
        "_hex": "0xdd3214daa"
      },
      "gasLimit": {
        "_hex": "0x5208"
      },
      "to": "0x32Be343B94f860124dC4fEe278FDCBD38C102D88",
      "value": {
        "_hex": "0x3520e89c67c9ec0000"
      },
      "nonce": 0,
      "data": "0x",
      "r": "0x29ad6f272833f2ea2c1f15518a4a5a7c024c458d88f720b1dd4df836aed0ee26",
      "s": "0x0d6f3adb981408a42feee2ada81b8cfc7f7b06864910e489e16adf16794313e0",
      "v": 28,
      "creates": null,
      "raw": "0xf86d80850dd3214daa8252089432be343b94f860124dc4fee278fdcbd38c102d88893520e89c67c9ec0000801ca029ad6f272833f2ea2c1f15518a4a5a7c024c458d88f720b1dd4df836aed0ee26a00d6f3adb981408a42feee2ada81b8cfc7f7b06864910e489e16adf16794313e0",
      "networkId": 0,
      "chainId": 0
    },
    {
      "hash": "0xf9706769ef438b19dd9825caff56cd482c3cab800664fa42fe36eb4468c0ad5e",
      "blockHash": "0xc5b690f7487e843c0ed5efac7a1230cde0c8f2ff0a019687864be7bcf8ff034e",
      "blockNumber": 109516,
      "transactionIndex": 1,
      "confirmations": null,
      "from": "0xa70a9a7040d542C632D8e0bE7c5513A8a5Bbc752",
      "gasPrice": {
        "_hex": "0xdd3214daa"
      },
      "gasLimit": {
        "_hex": "0x5208"
      },
      "to": "0x32Be343B94f860124dC4fEe278FDCBD38C102D88",
      "value": {
        "_hex": "0x455f237369561400"
      },
      "nonce": 274,
      "data": "0x",
      "r": "0x5329cfd767a6430d0105ce45517dc8ec879b288ce4fa3b3ff0528b51d742044e",
      "s": "0x1d49ac293cc99815e781473870776e624a6618ab327913223622388e62117c18",
      "v": 28,
      "creates": null,
      "raw": "0xf86e820112850dd3214daa8252089432be343b94f860124dc4fee278fdcbd38c102d8888455f237369561400801ca05329cfd767a6430d0105ce45517dc8ec879b288ce4fa3b3ff0528b51d742044ea01d49ac293cc99815e781473870776e624a6618ab327913223622388e62117c18",
      "networkId": 0,
      "chainId": 0
    }
  ]
}