{
  "hash": "0x63ac42b646f76d8f327fa76bc6e2d3dad313717e15265fcda90d85181b6946ff",
  "parentHash": "0xd7bd6af0e2d36c4aa09749de7c4d72c0329e4cdeb430d16a0d972b25cb604dff",
  "number": 83325,
  "timestamp": 1439533668,
  "nonce": "0x9a9d39de221b2dc0",
  "difficulty": 2419521454794,
  "gasLimit": {
    "_hex": "0x2fefd8"
  },
  "gasUsed": {
    "_hex": "0x5208"
  },
  "miner": "0x007f7f58D3eb5b7510A301eCC749FC1fCDDBE14D",
  "extraData": "0x476574682f76312e302e312f77696e646f77732f676f312e342e32",
  "transactions": [
    {
      "hash": "0x9cb9f73c75242d4c76ffed2e0d7aef15692211ef2f2c26658ef9b21764174300",
      "blockHash": "0x63ac42b646f76d8f327fa76bc6e2d3dad313717e15265fcda90d85181b6946ff",
      "blockNumber": 83325,
      "transactionIndex": 0,
      "confirmations": null,
      "from": "0x25559969C52847e3d892377c0D5EDE529cBe6913",
      "gasPrice": {
        "_hex": "0xba43b7400"
      },
      "gasLimit": {
        "_hex": "0x5208"
      },
      "to": "0xC47Aaa860008be6f65B58c6C6E02a84e666EfE31",
      "value": {
        "_hex": "0xf14e95dfda7e000"
      },
      "nonce": 0,
      "data": "0x",
      "r": "0xdd40f487b57b38eadd6bdda518fa9df472d2b28e39f5ece84e4a4c194bc9d699",
      "s": "0x70a741337bd898b7d25499497efa584b7c46dfbed585d71732f427c9c716d452",
      "v": 28,
      "creates": null,
      "raw": "0xf86c80850ba43b740082520894c47aaa860008be6f65b58c6c6e02a84e666efe31880f14e95dfda7e000801ca0dd40f487b57b38eadd6bdda518fa9df472d2b28e39f5ece84e4a4c194bc9d699a070a741337bd898b7d25499497efa584b7c46dfbed585d71732f427c9c716d452",
      "networkId": 0,
      "chainId": 0
    }
  ]
}