{
  "hash": "0xe0d729b85c92d3b5db453ed8edd7f6309a511903795ce726ec8fbd2b3b891299",
  "parentHash": "0xf39a09635c6fc9da1b6bfb29dc4a2f006b22075a7a0493a4efddf43e6416f252",
  "number": 121799,
  "timestamp": 1440182722,
  "nonce": "0x22814769f7051022",
  "difficulty": 4490797218543,
  "gasLimit": {
    "_hex": "0x2fefd8"
  },
  "gasUsed": {
    "_hex": "0x5208"
  },
  "miner": "0x52bc44d5378309EE2abF1539BF71dE1b7d7bE3b5",
  "extraData": "0xd783010002844765746887676f312e342e32856c696e7578",
  "transactions": [
    {
      "hash": "0x9c60f9b6aa7a480daff9575aad8cc68e2708abce9a7ebb2b42302658ddbf3f0b",
      "blockHash": "0xe0d729b85c92d3b5db453ed8edd7f6309a511903795ce726ec8fbd2b3b891299",
      "blockNumber": 121799,
      "transactionIndex": 0,
      "confirmations": null,
      "from": "0xA38476691D34942eea6B2F76889223047DB4617A",
      "gasPrice": {
        "_hex": "0xba43b7400"
      },
      "gasLimit": {
        "_hex": "0x15f90"
      },
      "to": "0xc00f7F96CeAcEc5a46E95242554D9d966e8ed74f",
      "value": {
        "_hex": "0x8ac7230489e80000"
      },
      "nonce": 0,
      "data": "0x",
      "r": "0xe435bc558369cedc0555b4638a862921fede52a3179d0bc7cc8d3dc61b281f98",
      "s": "0x33ad80228b2bcd5c5bd8deb249992fee68bad7cb2a90f9178c1459530650a92d",
      "v": 28,
      "creates": null,
      "raw": "0xf86d80850ba43b740083015f9094c00f7f96ceacec5a46e95242554d9d966e8ed74f888ac7230489e80000801ca0e435bc558369cedc0555b4638a862921fede52a3179d0bc7cc8d3dc61b281f98a033ad80228b2bcd5c5bd8deb249992fee68bad7cb2a90f9178c1459530650a92d",
      "networkId": 0,
      "chainId": 0
    }
  ]
}