{
  "hash": "0x8ddf6fb2cad7a7125e58e9b8233cd82c2740a1ac6ab5a5fa516d1f0a2d162ec8",
  "parentHash": "0xd88c2c88872b514861708f37a9f248ed118fb8ce5464797e486ef92cbcb8e2c9",
  "number": 96494,
  "timestamp": 1439741274,
  "nonce": "0xb3c2c5fbba5ca436",
  "difficulty": 3670973815518,
  "gasLimit": {
    "_hex": "0x2fefd8"
  },
  "gasUsed": {
    "_hex": "0x5208"
  },
  "miner": "0xbb7B8287f3F0a933474a79eAe42CBCa977791171",
  "extraData": "0x476574682f4c5649562f76312e302e312f6c696e75782f676f312e342e32",
  "transactions": [
    {
      "hash": "0x31898b5a8aff80e19494285e7aa243384ed00cac424836ba148e11474e65c3d2",
      "blockHash": "0x8ddf6fb2cad7a7125e58e9b8233cd82c2740a1ac6ab5a5fa516d1f0a2d162ec8",
      "blockNumber": 96494,
      "transactionIndex": 0,
      "confirmations": null,
      "from": "0x3A9E5441D44b243Be55B75027a1cEB9eAcf50dF2",
      "gasPrice": {
        "_hex": "0xcb9414712"
      },
      "gasLimit": {
        "_hex": "0x15f90"
      },
      "to": "0xEfd125F76b020623F7f1c455AC173Caf8D610c52",
      "value": {
        "_hex": "0xcaa60852bda08"
      },
      "nonce": 8,
      "data": "0x",
      "r": "0xb8cf5ec4cdfc27bc8e86e8d07b6398f1467c8d6518763ed591d9c27531a90143",
      "s": "0x1aa7fdfa193456e8c5c77deda1979cfb4e9fd0f47f481416749fcebed8d89e59",
      "v": 27,
      "creates": null,
      "raw": "0xf86c08850cb941471283015f9094efd125f76b020623f7f1c455ac173caf8d610c52870caa60852bda08801ba0b8cf5ec4cdfc27bc8e86e8d07b6398f1467c8d6518763ed591d9c27531a90143a01aa7fdfa193456e8c5c77deda1979cfb4e9fd0f47f481416749fcebed8d89e59",
      "networkId": 0,
      "chainId": 0
    }
  ]
}