{
  "hash": "0x32e4e15272df856fa32254a55caa550d3c6c89eb8bccb7ef5ff957b134eaef56",
  "parentHash": "0x5c2584943690940d5fc34bcb043a6d1fe4d4aa781619aec046151a5d37707ee6",
  "number": 101252,
  "timestamp": 1439819913,
  "nonce": "0x055d8bf03a0c23af",
  "difficulty": 3811320489836,
  "gasLimit": {
    "_hex": "0x2fefd8"
  },
  "gasUsed": {
    "_hex": "0x5208"
  },
  "miner": "0x5B034036Ae40b7C5d7bbbF041D07b7f76E200039",
  "extraData": "0x476574682f76312e302e312f77696e646f77732f676f312e342e32",
  "transactions": [
    {
      "hash": "0x15dc1e22966fd4d81008f5103976231c73024098f1bb1430eb93db973bb24baf",
      "blockHash": "0x32e4e15272df856fa32254a55caa550d3c6c89eb8bccb7ef5ff957b134eaef56",
      "blockNumber": 101252,
      "transactionIndex": 0,
      "confirmations": null,
      "from": "0xCD1e66ED539dd92Fc40bBAa1FA16de8c02C14D45",
      "gasPrice": {
        "_hex": "0xcf7d5867c"
      },
      "gasLimit": {
        "_hex": "0x5208"
      },
      "to": "0xe0e82eD3e93079cE76aAC1dA7b4bfa990D885A0D",
      "value": {
        "_hex": "0x880a790fea2099420"
      },
      "nonce": 12,
      "data": "0x",
      "r": "0x04558ad6f485bc74e01c8db1305f74d292a25726a1586fdd764bbd1d36d9332e",
      "s": "0x2f46ae344292f8c6fa7631b94571280d0433f423e76f1f3681e9a7c926fca752",
      "v": 28,
      "creates": null,
      "raw": "0xf86d0c850cf7d5867c82520894e0e82ed3e93079ce76aac1da7b4bfa990d885a0d890880a790fea2099420801ca004558ad6f485bc74e01c8db1305f74d292a25726a1586fdd764bbd1d36d9332ea02f46ae344292f8c6fa7631b94571280d0433f423e76f1f3681e9a7c926fca752",
      "networkId": 0,
      "chainId": 0
    }
  ]
}