{
  "hash": "0xc4e28b39d52d34afaaebc0f98eb7082667ac73ae1a9672b86692b80ba8990026",
  "parentHash": "0xbae9b7b10c7ff0e01e1a6b0c3a97cdfdf16595504fd0f94568bd18ab0155824e",
  "number": 108184,
  "timestamp": 1439935743,
  "nonce": "0xd28fb59c3595896f",
  "difficulty": 4366091067698,
  "gasLimit": {
    "_hex": "0x2fefd8"
  },
  "gasUsed": {
    "_hex": "0x5208"
  },
  "miner": "0xe6A7a1d47ff21B6321162AEA7C6CB457D5476Bca",
  "extraData": "0x476574682f76312e302e312d38326566323666362f6c696e75782f676f312e34",
  "transactions": [
    {
      "hash": "0x5b2f3bb9008332a6f6dafb0dec4ce2e12964642c15b15a9e741c01d4fe8ca4d3",
      "blockHash": "0xc4e28b39d52d34afaaebc0f98eb7082667ac73ae1a9672b86692b80ba8990026",
      "blockNumber": 108184,
      "transactionIndex": 0,
      "confirmations": null,
      "from": "0xe0F2071907ecf7F55DF7a681Cd68fa5b7575eA7b",
      "gasPrice": {
        "_hex": "0xba43b7400"
      },
      "gasLimit": {
        "_hex": "0x5b04"
      },
      "to": "0xf2711F78854D3b5CE29fA3c550a9328D7df40706",
      "value": {
        "_hex": "0x5af3107a4000"
      },
      "nonce": 0,
      "data": "0x",
      "r": "0xf3ee3be4c7fa693c9b6a0b457633b7a5857b137166f98cca8f2faaa4520d1bff",
      "s": "0xee9f5fb79b0c079095d456225e096b67ce3080b1d9d3e822d6015b9df29ca686",
      "v": 28,
      "creates": null,
      "raw": "0xf86a80850ba43b7400825b0494f2711f78854d3b5ce29fa3c550a9328d7df40706865af3107a4000801ca0f3ee3be4c7fa693c9b6a0b457633b7a5857b137166f98cca8f2faaa4520d1bffa0ee9f5fb79b0c079095d456225e096b67ce3080b1d9d3e822d6015b9df29ca686",
      "networkId": 0,
      "chainId": 0
    }
  ]
}