{
  "hash": "0xa43a472babf9b055b284750580a5c2efd82506943e57088a5e50c51f85d3dc0a",
  "parentHash": "0x55bea9322fac0f99eb7607ba4fd8106d980da8fce09e9e68b92da3d5015c9d10",
  "number": 56619,
  "timestamp": 1439089925,
  "nonce": "0xb1d592b3fb018d3b",
  "difficulty": 1679656463947,
  "gasLimit": {
    "_hex": "0x2fefd8"
  },
  "gasUsed": {
    "_hex": "0x5208"
  },
  "miner": "0xC6Bf5B6558f2eE21F2E43d9fF9B5408A0Cb89413",
  "extraData": "0x476574682f76312e302e312d38326566323666362f6c696e75782f676f312e34",
  "transactions": [
    {
      "hash": "0x511c2b0d68e902d31d32e625995fb792f67f1e8ecd55f2b7dc69ef407db97201",
      "blockHash": "0xa43a472babf9b055b284750580a5c2efd82506943e57088a5e50c51f85d3dc0a",
      "blockNumber": 56619,
      "transactionIndex": 0,
      "confirmations": null,
      "from": "0xaca1E6BC64cC3180F620E94dC5B1Bcfd8158e45D",
      "gasPrice": {
        "_hex": "0xd5de38e8e"
      },
      "gasLimit": {
        "_hex": "0x15f90"
      },
      "to": "0x40d8646B152DBb1eBFf414Ab9f26b94d1858458c",
      "value": {
        "_hex": "0x2386efc0466fa0"
      },
      "nonce": 2,
      "data": "0x",
      "r": "0x9571b58eb59d83612462928145cacf1efba3d7b9576430c8224576cf93c00ef5",
      "s": "0x139fc33f57ff109ec7d4dae80cd7a27aa20682be4cbea1ba8a4c05eed2a3771e",
      "v": 27,
      "creates": null,
      "raw": "0xf86c02850d5de38e8e83015f909440d8646b152dbb1ebff414ab9f26b94d1858458c872386efc0466fa0801ba09571b58eb59d83612462928145cacf1efba3d7b9576430c8224576cf93c00ef5a0139fc33f57ff109ec7d4dae80cd7a27aa20682be4cbea1ba8a4c05eed2a3771e",
      "networkId": 0,
      "chainId": 0
    }
  ]
}