{
  "hash": "0xeb8bdf3fea5445b1bae7557f995fe9df5b22d31895a049f55d604785ca087ef6",
  "parentHash": "0x6d9092cab247ebd9488a778289e1a0690704d68880a28540fd6620cee53cb9be",
  "number": 100722,
  "timestamp": 1439811343,
  "nonce": "0xe5970f9798659806",
  "difficulty": 3833960226772,
  "gasLimit": {
    "_hex": "0x2fefd8"
  },
  "gasUsed": {
    "_hex": "0x5208"
  },
  "miner": "0x19dafe19F11E960E4cCfC6A5AA8890ebD748cA1E",
  "extraData": "0x476574682f76312e302e312d38326566323666362f6c696e75782f676f312e34",
  "transactions": [
    {
      "hash": "0x81fd4f15495946b4c8488caaaa0c6190f0bf26ab1be09da0689badcdfd7051fe",
      "blockHash": "0xeb8bdf3fea5445b1bae7557f995fe9df5b22d31895a049f55d604785ca087ef6",
      "blockNumber": 100722,
      "transactionIndex": 0,
      "confirmations": null,
      "from": "0xE44722E814a70BF7009543535e6bCf0DF77545c2",
      "gasPrice": {
        "_hex": "0xba43b7400"
      },
      "gasLimit": {
        "_hex": "0x5208"
      },
      "to": "0xC47Aaa860008be6f65B58c6C6E02a84e666EfE31",
      "value": {
        "_hex": "0xc79b6431cd66000"
      },
      "nonce": 4,
      "data": "0x",
      "r": "0x71bf8365f0285f4b43401c1c5436707b38b5ab5801a1c44cf18694e681fd0925",
      "s": "0x74ad28c910a728c05f6945acd5da1dbada5a71bc64188cd22bc4d92ada3ccfc9",
      "v": 27,
      "creates": null,
      "raw": "0xf86c04850ba43b740082520894c47aaa860008be6f65b58c6c6e02a84e666efe31880c79b6431cd66000801ba071bf8365f0285f4b43401c1c5436707b38b5ab5801a1c44cf18694e681fd0925a074ad28c910a728c05f6945acd5da1dbada5a71bc64188cd22bc4d92ada3ccfc9",
      "networkId": 0,
      "chainId": 0
    }
  ]
}