{
  "hash": "0xbba868fcb65615560f3436c305cb44df995d844bd296641303560958514ced66",
  "parentHash": "0xdee16b1d16be2ef1affa40f8fa0e00327213b604a91065ecd58c71ec7c6dc373",
  "number": 65131,
  "timestamp": 1439231862,
  "nonce": "0x26420b864b1c8ca2",
  "difficulty": 1931312045499,
  "gasLimit": {
    "_hex": "0x2fefd8"
  },
  "gasUsed": {
    "_hex": "0xbe6c"
  },
  "miner": "0x55bAf64fc9eAccFFd7Cc643BB61142E1C6ac093e",
  "extraData": "0x",
  "transactions": [
    {
      "hash": "0x6941e4ab3f5217198f2ac5e82f2a02d52b9bf81feb06b4279b2ecbc6e819a1af",
      "blockHash": "0xbba868fcb65615560f3436c305cb44df995d844bd296641303560958514ced66",
      "blockNumber": 65131,
      "transactionIndex": 0,
      "confirmations": null,
      "from": "0x9140266a7c090E147eD91fbeFA4629f7a3829272",
      "gasPrice": {
        "_hex": "0xba43b7400"
      },
      "gasLimit": {
        "_hex": "0x15f90"
      },
      "to": "0x793AE8C1b1a160BFc07BFB0d04F85eab1A71F4f2",
      "value": {
        "_hex": "0x0"
      },
      "nonce": 0,
      "data": "0x3ba15036",
      "r": "0x4eb5ffbb8846df3a06ac8e7921cb0ca6096b7ed20d92ed6ab5b8c14880ad142d",
      "s": "0x01482ed9423c6ed15f0a10f6986e507e39664e97fee2bd26e701340ae170c210",
      "v": 28,
      "creates": null,
      "raw": "0xf86980850ba43b740083015f9094793ae8c1b1a160bfc07bfb0d04f85eab1a71f4f280843ba150361ca04eb5ffbb8846df3a06ac8e7921cb0ca6096b7ed20d92ed6ab5b8c14880ad142da001482ed9423c6ed15f0a10f6986e507e39664e97fee2bd26e701340ae170c210",
      "networkId": 0,
      "chainId": 0
    }
  ]
}