{
  "hash": "0x1280eecc37603c4adb8b36d436f9213a9c81a934f827f670cc7a07ea2bb65143",
  "parentHash": "0xfc34910d65d56fd56219bff7eda956eca44b3be8a5fd47ccded95da0fddda62b",
  "number": 49454,
  "timestamp": 1438973652,
  "nonce": "0x99da17cb07759f51",
  "difficulty": 1484282800314,
  "gasLimit": {
    "_hex": "0x318ed"
  },
  "gasUsed": {
    "_hex": "0x546c"
  },
  "miner": "0x01d9DA08cc6Fb97c0DE1B6F4C28910A0859Ed1A1",
  "extraData": "0x476574682f76312e302e312f6c696e75782f676f312e342e32",
  "transactions": [
    {
      "hash": "0x379d41fef197d772d7e7a366a7ebffa4d1590bd93eb9b35d66860bc8174206de",
      "blockHash": "0x1280eecc37603c4adb8b36d436f9213a9c81a934f827f670cc7a07ea2bb65143",
      "blockNumber": 49454,
      "transactionIndex": 0,
      "confirmations": null,
      "from": "0xc749668042E71123A648975E08Ed6382f83E05e2",
      "gasPrice": {
        "_hex": "0x110c8f7d8de"
      },
      "gasLimit": {
        "_hex": "0xc350"
      },
      "to": "0x2910543Af39abA0Cd09dBb2D50200b3E800A63D2",
      "value": {
        "_hex": "0xa2a15d09519be00000"
      },
      "nonce": 2,
      "data": "0x454e31545835574d30",
      "r": "0x7e2206f6c3ddc012e2f5d68c5d5152c7373cfecf866d0c965eaa90019f09af98",
      "s": "0xef942d895d21150ae1486b70529eb0ae3691d382b18c33ff0b42613223e82089",
      "v": 28,
      "creates": null,
      "raw": "0xf87702860110c8f7d8de82c350942910543af39aba0cd09dbb2d50200b3e800a63d289a2a15d09519be0000089454e31545835574d301ca07e2206f6c3ddc012e2f5d68c5d5152c7373cfecf866d0c965eaa90019f09af98a0ef942d895d21150ae1486b70529eb0ae3691d382b18c33ff0b42613223e82089",
      "networkId": 0,
      "chainId": 0
    }
  ]
}