{
  "hash": "0x86ad68d084299a5f2ea16b8b243d7740d8a2c316c8f7914feb0dd39cc12b8782",
  "parentHash": "0x848badfd3d3c1d4523750638a5764bcc4883867cdb65b4e5f352c60705bf17a0",
  "number": 72884,
  "timestamp": 1439359739,
  "nonce": "0x7f785a87b00f5eb6",
  "difficulty": 2193927545637,
  "gasLimit": {
    "_hex": "0x2fefd8"
  },
  "gasUsed": {
    "_hex": "0x5208"
  },
  "miner": "0xe6A7a1d47ff21B6321162AEA7C6CB457D5476Bca",
  "extraData": "0x476574682f76312e302e312d38326566323666362f6c696e75782f676f312e34",
  "transactions": [
    {
      "hash": "0x4a7d7e2766d9155580e168db363e72aebb2e62894e0eea80f0cf0ab92b1464de",
      "blockHash": "0x86ad68d084299a5f2ea16b8b243d7740d8a2c316c8f7914feb0dd39cc12b8782",
      "blockNumber": 72884,
      "transactionIndex": 0,
      "confirmations": null,
      "from": "0x120A270bbC009644e35F0bB6ab13f95b8199c4ad",
      "gasPrice": {
        "_hex": "0xdbb37925a"
      },
      "gasLimit": {
        "_hex": "0x15f90"
      },
      "to": "0x07f4b3FDd325fbfd3857F5dE14C9DE4d645206E3",
      "value": {
        "_hex": "0xf0cfa10e41101ec00"
      },
      "nonce": 250,
      "data": "0x",
      "r": "0xb48f98c37a6edfe7a7383fbeb4780d1224c28f7f12ad0cf3b48cda5d6f4f90b2",
      "s": "0x607baa61a5d689d93e11793f3b393734d9c5d0028f733e20a0cd68dc05647173",
      "v": 28,
      "creates": null,
      "raw": "0xf86f81fa850dbb37925a83015f909407f4b3fdd325fbfd3857f5de14c9de4d645206e3890f0cfa10e41101ec00801ca0b48f98c37a6edfe7a7383fbeb4780d1224c28f7f12ad0cf3b48cda5d6f4f90b2a0607baa61a5d689d93e11793f3b393734d9c5d0028f733e20a0cd68dc05647173",
      "networkId": 0,
      "chainId": 0
    }
  ]
}