{
  "hash": "0xe0ca64c3959882cdcb323847b95bfcd4e3260e1eed34cc9adf6786cec02ca1af",
  "parentHash": "0xe0107833d94331a3226a291d7db447ae5338d84e077432497e87325efa1f557e",
  "number": 113361,
  "timestamp": 1440022089,
  "nonce": "0x23d9285034b73c2d",
  "difficulty": 4499708833046,
  "gasLimit": {
    "_hex": "0x2fefd8"
  },
  "gasUsed": {
    "_hex": "0xa410"
  },
  "miner": "0xD0ee3F53eE0fCf3F9fbCcdd17BD1b6441DdC2074",
  "extraData": "0x476574682f76312e302e312d38326566323666362f6c696e75782f676f312e34",
  "transactions": [
    {
      "hash": "0x48829881f19f56f982264aa2b889323fbab545686ba2d9221f22f05ab6443df5",
      "blockHash": "0xe0ca64c3959882cdcb323847b95bfcd4e3260e1eed34cc9adf6786cec02ca1af",
      "blockNumber": 113361,
      "transactionIndex": 0,
      "confirmations": null,
      "from": "0x32Be343B94f860124dC4fEe278FDCBD38C102D88",
      "gasPrice": {
        "_hex": "0xcca2eebe4"
      },
      "gasLimit": {
        "_hex": "0x5208"
      },
      "to": "0x8c0A6b62918D317e3B431EfB67E3fB5eff333b1c",
      "value": {
        "_hex": "0x56ba3d73af34f0000"
      },
      "nonce": 1363,
      "data": "0x",
      "r": "0xfe76386ef1cb9c831d470a5dadf6c7f463e95facdc4f7efc27652d43231077bf",
      "s": "0x460fcc29f97b5b31fc5662c3ad930860c491e51f472798959dc3be4eaedb065a",
      "v": 27,
      "creates": null,
      "raw": "0xf86f820553850cca2eebe4825208948c0a6b62918d317e3b431efb67e3fb5eff333b1c89056ba3d73af34f0000801ba0fe76386ef1cb9c831d470a5dadf6c7f463e95facdc4f7efc27652d43231077bfa0460fcc29f97b5b31fc5662c3ad930860c491e51f472798959dc3be4eaedb065a",
      "networkId": 0,
      "chainId": 0
    },
    {
      "hash": "0xf76819a3177b9e812266c00242899d9698fabd1a979c8151d9a3f04352a704b6",
      "blockHash": "0xe0ca64c3959882cdcb323847b95bfcd4e3260e1eed34cc9adf6786cec02ca1af",
      "blockNumber": 113361,
      "transactionIndex": 1,
      "confirmations": null,
      "from": "0x32Be343B94f860124dC4fEe278FDCBD38C102D88",
      "gasPrice": {
        "_hex": "0xcca2eebe4"
      },
      "gasLimit": {
        "_hex": "0x5208"
      },
      "to": "0x1f1f1f6FAA77a31e6c9aeF1eF25A6F6819177EEB",
      "value": {
        "_hex": "0x6df6d0a4a70060000"
      },
      "nonce": 1364,
      "data": "0x",
      "r": "0x8e71d6f394c7d6394e994df6cd23925e9a4e3e40cbe569c5a852a140dad5dae2",
      "s": "0x266083ea78f55e8c76ac746188b7dd0df0772178c32adee1a54d6e2698525403",
      "v": 27,
      "creates": null,
      "raw": "0xf86f820554850cca2eebe4825208941f1f1f6faa77a31e6c9aef1ef25a6f6819177eeb8906df6d0a4a70060000801ba08e71d6f394c7d6394e994df6cd23925e9a4e3e40cbe569c5a852a140dad5dae2a0266083ea78f55e8c76ac746188b7dd0df0772178c32adee1a54d6e2698525403",
      "networkId": 0,
      "chainId": 0
    }
  ]
}