{
  "hash": "0xe82870e0fbbe8e81a3b0e71c973183d5239bc67b2a9061abad7114c2a91189f3",
  "parentHash": "0x6f911758b200975e3a905865e125d7655f3ae059e6a1983ebd050c1712c1cc78",
  "number": 113994,
  "timestamp": 1440033084,
  "nonce": "0x585411a856140c37",
  "difficulty": 4440440737111,
  "gasLimit": {
    "_hex": "0x2fefd8"
  },
  "gasUsed": {
    "_hex": "0x5208"
  },
  "miner": "0x790b8a3cE86E707ED0eD32bF89B3269692a23CC1",
  "extraData": "0xd783010001844765746887676f312e342e32856c696e7578",
  "transactions": [
    {
      "hash": "0x17ea3cc0ac4d0f08767f85f4cc463f5c8bb7d6255c8c1cebafe0639db5fc9b80",
      "blockHash": "0xe82870e0fbbe8e81a3b0e71c973183d5239bc67b2a9061abad7114c2a91189f3",
      "blockNumber": 113994,
      "transactionIndex": 0,
      "confirmations": null,
      "from": "0x7BD85B8e7546f88b3560CC11380C61eb7c9F95db",
      "gasPrice": {
        "_hex": "0xdfeed55df"
      },
      "gasLimit": {
        "_hex": "0x5208"
      },
      "to": "0x32Be343B94f860124dC4fEe278FDCBD38C102D88",
      "value": {
        "_hex": "0x6be0c7bc6fc4100000"
      },
      "nonce": 2,
      "data": "0x",
      "r": "0x2e2bd425d3d67e0268d02736cc89ede4b559d1a8decc1f8d022894022241e799",
      "s": "0x6a1191905d0808cf8eeb574b90567d9942893fb7a85921a59364e88ee9511a1d",
      "v": 27,
      "creates": null,
      "raw": "0xf86d02850dfeed55df8252089432be343b94f860124dc4fee278fdcbd38c102d88896be0c7bc6fc4100000801ba02e2bd425d3d67e0268d02736cc89ede4b559d1a8decc1f8d022894022241e799a06a1191905d0808cf8eeb574b90567d9942893fb7a85921a59364e88ee9511a1d",
      "networkId": 0,
      "chainId": 0
    }
  ]
}