{
  "hash": "0x6c03d6ad6980d00d9ed8b4910c2c493e996647d3f3438067ea98212caa82135b",
  "parentHash": "0xfe941f648a1a5e10747beec9a18c0452074dd4301dcd5a11f48134db72759a89",
  "number": 115299,
  "timestamp": 1440054781,
  "nonce": "0xf30d9c50ae31f8e7",
  "difficulty": 4556145480901,
  "gasLimit": {
    "_hex": "0x2fefd8"
  },
  "gasUsed": {
    "_hex": "0x47c70"
  },
  "miner": "0xe6A7a1d47ff21B6321162AEA7C6CB457D5476Bca",
  "extraData": "0x476574682f76312e302e312d38326566323666362f6c696e75782f676f312e34",
  "transactions": [
    {
      "hash": "0xf5a9cb57ee53adc2c8a77f697b6b1979670cfd73d0e7a379779d3e50d91ab9b9",
      "blockHash": "0x6c03d6ad6980d00d9ed8b4910c2c493e996647d3f3438067ea98212caa82135b",
      "blockNumber": 115299,
      "transactionIndex": 0,
      "confirmations": null,
      "from": "0xe6A7a1d47ff21B6321162AEA7C6CB457D5476Bca",
      "gasPrice": {
        "_hex": "0xcd49da916"
      },
      "gasLimit": {
        "_hex": "0x55f0"
      },
      "to": "0x806C4e20CC913d7b70f5b7e24C6Ba15B16c56a5C",
      "value": {
        "_hex": "0x5c111955532da490"
      },
      "nonce": 5337,
      "data": "0x",
      "r": "0xeb1a4edfcb1a6ca7cb41c53ae1bce1994059b6a82636650113a532b02de46757",
      "s": "0x6ad3068ba436aa0ceb168be73296b98f2770c535bdc98d850c253c8c91044879",
      "v": 28,
      "creates": null,
      "raw": "0xf86e8214d9850cd49da9168255f094806c4e20cc913d7b70f5b7e24c6ba15b16c56a5c885c111955532da490801ca0eb1a4edfcb1a6ca7cb41c53ae1bce1994059b6a82636650113a532b02de46757a06ad3068ba436aa0ceb168be73296b98f2770c535bdc98d850c253c8c91044879",
      "networkId": 0,
      "chainId": 0
    },
    {
      "hash": "0xb4cc1c3b1d9f4d567ee07736d31ee401a6ea5baa2c5932f6c35d1b2d2b61cfc8",
      "blockHash": "0x6c03d6ad6980d00d9ed8b4910c2c493e996647d3f3438067ea98212caa82135b",
      "blockNumber": 115299,
      "transactionIndex": 1,
      "confirmations": null,
      "from": "0xe6A7a1d47ff21B6321162AEA7C6CB457D5476Bca",
      "gasPrice": {
        "_hex": "0xcd49da916"
      },
      "gasLimit": {
        "_hex": "0x55f0"
      },
      "to": "0x7C197542A77e913547d2E58e8d3c6F224f6f0f98",
      "value": {
        "_hex": "0x5d341c9ab5c4ebd8"
      },
      "nonce": 5338,
      "data": "0x",
      "r": "0xc9ba36c05ea8608fc002816fa05c46bc064242e9acb0add79b33bced03c98d5a",
      "s": "0x6367f11397423121b9312aa5fb664b3c089e58faba48e8fff9ec59aa74c02375",
      "v": 27,
      "creates": null,
      "raw": "0xf86e8214da850cd49da9168255f0947c197542a77e913547d2e58e8d3c6f224f6f0f98885d341c9ab5c4ebd8801ba0c9ba36c05ea8608fc002816fa05c46bc064242e9acb0add79b33bced03c98d5aa06367f11397423121b9312aa5fb664b3c089e58faba48e8fff9ec59aa74c02375",
      "networkId": 0,
      "chainId": 0
    },
    {
      "hash": "0x1699a8020a7edb9fb54eba3f7321b5d44580e77a7422c4e7423c1dfdf06adf22",
      "blockHash": "0x6c03d6ad6980d00d9ed8b4910c2c493e996647d3f3438067ea98212caa82135b",
      "blockNumber": 115299,
      "transactionIndex": 2,
      "confirmations": null,
      "from": "0xe6A7a1d47ff21B6321162AEA7C6CB457D5476Bca",
      "gasPrice": {
        "_hex": "0xcd49da916"
      },
      "gasLimit": {
        "_hex": "0x55f0"
      },
      "to": "0xba1c85BF47A2236D2668AF0Fa26C34d3e33e6470",
      "value": {
        "_hex": "0x5d3c76b1e108e578"
      },
      "nonce": 5339,
      "data": "0x",
      "r": "0x95e36e324f0595e0b42a4c208aa3ed5a590a1d6859af9481939d3bec64c70055",
      "s": "0x4a4ad60bb18fe91ee1cebbc92b0db58d069598f5a2c350af7c2b426156c1afe8",
      "v": 28,
      "creates": null,
      "raw": "0xf86e8214db850cd49da9168255f094ba1c85bf47a2236d2668af0fa26c34d3e33e6470885d3c76b1e108e578801ca095e36e324f0595e0b42a4c208aa3ed5a590a1d6859af9481939d3bec64c70055a04a4ad60bb18fe91ee1cebbc92b0db58d069598f5a2c350af7c2b426156c1afe8",
      "networkId": 0,
      "chainId": 0
    },
    {
      "hash": "0xcd08ca5640b6c20831fb53ec8a006e375035e3d2397a71d48b1acdd81f4cbabf",
      "blockHash": "0x6c03d6ad6980d00d9ed8b4910c2c493e996647d3f3438067ea98212caa82135b",
      "blockNumber": 115299,
      "transactionIndex": 3,
      "confirmations": null,
      "from": "0xe6A7a1d47ff21B6321162AEA7C6CB457D5476Bca",
      "gasPrice": {
        "_hex": "0xcd49da916"
      },
      "gasLimit": {
        "_hex": "0x55f0"
      },
      "to": "0x61E20833179bA2eCCc2065e5F733CC8CdA7394c0",
      "value": {
        "_hex": "0x5de65704d856b620"
      },
      "nonce": 5340,
      "data": "0x",
      "r": "0xea4a31437e834454b003172a168886738022f32fa803b11d9326af419555e490",
      "s": "0x6cb61baa3ed47633f7b222950a88d50a24059ec75959f2032ea7a51be3401f28",
      "v": 27,
      "creates": null,
      "raw": "0xf86e8214dc850cd49da9168255f09461e20833179ba2eccc2065e5f733cc8cda7394c0885de65704d856b620801ba0ea4a31437e834454b003172a168886738022f32fa803b11d9326af419555e490a06cb61baa3ed47633f7b222950a88d50a24059ec75959f2032ea7a51be3401f28",
      "networkId": 0,
      "chainId": 0
    },
    {
      "hash": "0x75647f44691f422144c937c042654c4b7863732619094a38c24e00d3c9d88547",
      "blockHash": "0x6c03d6ad6980d00d9ed8b4910c2c493e996647d3f3438067ea98212caa82135b",
      "blockNumber": 115299,
      "transactionIndex": 4,
      "confirmations": null,
      "from": "0xe6A7a1d47ff21B6321162AEA7C6CB457D5476Bca",
      "gasPrice": {
        "_hex": "0xcd49da916"
      },
      "gasLimit": {
        "_hex": "0x55f0"
      },
      "to": "0x9Fa88512e871481291d0416CEFf5B3764f840aED",
      "value": {
        "_hex": "0x6077f9be5755dfb0"
      },
      "nonce": 5341,
      "data": "0x",
      "r": "0xdcdea2f1ea1df9f9286d3b98e3fd61357f8d693cb6db3ac25f74d5af434f8e17",
      "s": "0x5da774ecbf658ac1d5458ace6b1c90f7d30a6bf0b64e38a6ddfd30147b751491",
      "v": 28,
      "creates": null,
      "raw": "0xf86e8214dd850cd49da9168255f0949fa88512e871481291d0416ceff5b3764f840aed886077f9be5755dfb0801ca0dcdea2f1ea1df9f9286d3b98e3fd61357f8d693cb6db3ac25f74d5af434f8e17a05da774ecbf658ac1d5458ace6b1c90f7d30a6bf0b64e38a6ddfd30147b751491",
      "networkId": 0,
      "chainId": 0
    },
    {
      "hash": "0x49e48fbe59591ec7550790ca2ab514c22d8108c196f47f51b072dfecf365393b",
      "blockHash": "0x6c03d6ad6980d00d9ed8b4910c2c493e996647d3f3438067ea98212caa82135b",
      "blockNumber": 115299,
      "transactionIndex": 5,
      "confirmations": null,
      "from": "0xe6A7a1d47ff21B6321162AEA7C6CB457D5476Bca",
      "gasPrice": {
        "_hex": "0xcd49da916"
      },
      "gasLimit": {
        "_hex": "0x55f0"
      },
      "to": "0x0c5aa6cDcC0582B50e5D76B1aA092071b5c3eC74",
      "value": {
        "_hex": "0x60c238c026952148"
      },
      "nonce": 5342,
      "data": "0x",
      "r": "0x2720d12a7648cfbdb146ff3f7b65d0b7c01edf21f5fa344846e4e6d1470accda",
      "s": "0x2703940312b07361ed880442c4c5b2977ffffcf9a01117b98c2f0f9ed8d05045",
      "v": 28,
      "creates": null,
      "raw": "0xf86e8214de850cd49da9168255f0940c5aa6cdcc0582b50e5d76b1aa092071b5c3ec748860c238c026952148801ca02720d12a7648cfbdb146ff3f7b65d0b7c01edf21f5fa344846e4e6d1470accdaa02703940312b07361ed880442c4c5b2977ffffcf9a01117b98c2f0f9ed8d05045",
      "networkId": 0,
      "chainId": 0
    },
    {
      "hash": "0xb22a39172efa2c829ebe94d5306e5f98be86971aad477b0284269cf9f1309bec",
      "blockHash": "0x6c03d6ad6980d00d9ed8b4910c2c493e996647d3f3438067ea98212caa82135b",
      "blockNumber": 115299,
      "transactionIndex": 6,
      "confirmations": null,
      "from": "0xe6A7a1d47ff21B6321162AEA7C6CB457D5476Bca",
      "gasPrice": {
        "_hex": "0xcd49da916"
      },
      "gasLimit": {
        "_hex": "0x55f0"
      },
      "to": "0x629e35e0A481d821293F354E0dD27E43a354D061",
      "value": {
        "_hex": "0x623d5b9cf0cae7d8"
      },
      "nonce": 5343,
      "data": "0x",
      "r": "0xbe1fd1993b9a5edda231d25008d1710746a0b9c21316a0447570a4b9c9779d9e",
      "s": "0x5f6a60d7e5412aea11a4c8b1cd90b59abf7c5aff7f1b5727a1c65dc6038cf44a",
      "v": 28,
      "creates": null,
      "raw": "0xf86e8214df850cd49da9168255f094629e35e0a481d821293f354e0dd27e43a354d06188623d5b9cf0cae7d8801ca0be1fd1993b9a5edda231d25008d1710746a0b9c21316a0447570a4b9c9779d9ea05f6a60d7e5412aea11a4c8b1cd90b59abf7c5aff7f1b5727a1c65dc6038cf44a",
      "networkId": 0,
      "chainId": 0
    },
    {
      "hash": "0x4fc483373ec9c9529615d16ee7e9677072c4e5f54f08cbacdbd10725fba098c8",
      "blockHash": "0x6c03d6ad6980d00d9ed8b4910c2c493e996647d3f3438067ea98212caa82135b",
      "blockNumber": 115299,
      "transactionIndex": 7,
      "confirmations": null,
      "from": "0xe6A7a1d47ff21B6321162AEA7C6CB457D5476Bca",
      "gasPrice": {
        "_hex": "0xcd49da916"
      },
      "gasLimit": {
        "_hex": "0x55f0"
      },
      "to": "0x77b8115f6C7A1a949B92a8C5Ab5e3Bce37693cf8",
      "value": {
        "_hex": "0x626886865b58d148"
      },
      "nonce": 5344,
      "data": "0x",
      "r": "0xd4f0710b772392963441705b17c326f69947013e790a6703a8876abb74903fed",
      "s": "0x2710bfa3b3e7ce759efad468582124d680383b1b882009b4b9c6692d96644cdf",
      "v": 27,
      "creates": null,
      "raw": "0xf86e8214e0850cd49da9168255f09477b8115f6c7a1a949b92a8c5ab5e3bce37693cf888626886865b58d148801ba0d4f0710b772392963441705b17c326f69947013e790a6703a8876abb74903feda02710bfa3b3e7ce759efad468582124d680383b1b882009b4b9c6692d96644cdf",
      "networkId": 0,
      "chainId": 0
    },
    {
      "hash": "0x3305bd71e7759702a578343f90513045c5fd596cde5a7c2b864b9ffe9b8c3b5b",
      "blockHash": "0x6c03d6ad6980d00d9ed8b4910c2c493e996647d3f3438067ea98212caa82135b",
      "blockNumber": 115299,
      "transactionIndex": 8,
      "confirmations": null,
      "from": "0xe6A7a1d47ff21B6321162AEA7C6CB457D5476Bca",
      "gasPrice": {
        "_hex": "0xcd49da916"
      },
      "gasLimit": {
        "_hex": "0x55f0"
      },
      "to": "0xA270859a7dD7bEF18258BDE4b85Dd3691FdE277D",
      "value": {
        "_hex": "0x626b8106025eb918"
      },
      "nonce": 5345,
      "data": "0x",
      "r": "0xa2ad0c2ff1c6ee91fd12628f2563186d421b993e89638f0c28a8f48420fa297d",
      "s": "0x75eced9addfeace6cddb5de530ff78e29f647a8f8ecb9eda6e34d97c774dc61b",
      "v": 27,
      "creates": null,
      "raw": "0xf86e8214e1850cd49da9168255f094a270859a7dd7bef18258bde4b85dd3691fde277d88626b8106025eb918801ba0a2ad0c2ff1c6ee91fd12628f2563186d421b993e89638f0c28a8f48420fa297da075eced9addfeace6cddb5de530ff78e29f647a8f8ecb9eda6e34d97c774dc61b",
      "networkId": 0,
      "chainId": 0
    },
    {
      "hash": "0x117011a78590d62e495ccaf56e5a7cbcc72a29297bb22c27fdcc96d9dcc1d62a",
      "blockHash": "0x6c03d6ad6980d00d9ed8b4910c2c493e996647d3f3438067ea98212caa82135b",
      "blockNumber": 115299,
      "transactionIndex": 9,
      "confirmations": null,
      "from": "0xe6A7a1d47ff21B6321162AEA7C6CB457D5476Bca",
      "gasPrice": {
        "_hex": "0xcd49da916"
      },
      "gasLimit": {
        "_hex": "0x55f0"
      },
      "to": "0xB6AC12CefF0375Da80503AcCa54bf3061Fa917a8",
      "value": {
        "_hex": "0x64b1c36eb8a01af8"
      },
      "nonce": 5346,
      "data": "0x",
      "r": "0xeecdf894a653b06c0a6a3fa81e77617c9877d9da65ba52a2e89a89d86a64cb87",
      "s": "0x1bde4adaa0c131657779842ebf2678a021cf8ad456cbe0609ddfe68fe2ad1f01",
      "v": 28,
      "creates": null,
      "raw": "0xf86e8214e2850cd49da9168255f094b6ac12ceff0375da80503acca54bf3061fa917a88864b1c36eb8a01af8801ca0eecdf894a653b06c0a6a3fa81e77617c9877d9da65ba52a2e89a89d86a64cb87a01bde4adaa0c131657779842ebf2678a021cf8ad456cbe0609ddfe68fe2ad1f01",
      "networkId": 0,
      "chainId": 0
    },
    {
      "hash": "0x9366c05e4d3504aebcf81a8b4370546962627a1f7d598a283489c0f3cb6fb83a",
      "blockHash": "0x6c03d6ad6980d00d9ed8b4910c2c493e996647d3f3438067ea98212caa82135b",
      "blockNumber": 115299,
      "transactionIndex": 10,
      "confirmations": null,
      "from": "0xe6A7a1d47ff21B6321162AEA7C6CB457D5476Bca",
      "gasPrice": {
        "_hex": "0xcd49da916"
      },
      "gasLimit": {
        "_hex": "0x55f0"
      },
      "to": "0x5214803C763281b785cDC039b80605fd088D42Ca",
      "value": {
        "_hex": "0x66d2f03472543c80"
      },
      "nonce": 5347,
      "data": "0x",
      "r": "0x2a69cfc5f512e291e21544308250d8589f728e53b2dc6879325d146c1c760752",
      "s": "0x5048313d0f48110bcbcac9fd6fc350dbde2d97be60c3f8a58dc9f9d5771a57cf",
      "v": 28,
      "creates": null,
      "raw": "0xf86e8214e3850cd49da9168255f0945214803c763281b785cdc039b80605fd088d42ca8866d2f03472543c80801ca02a69cfc5f512e291e21544308250d8589f728e53b2dc6879325d146c1c760752a05048313d0f48110bcbcac9fd6fc350dbde2d97be60c3f8a58dc9f9d5771a57cf",
      "networkId": 0,
      "chainId": 0
    },
    {
      "hash": "0xccf043a920b8c3c28fa0492f86f7f444bfb471b9b478e925798efce6480ae1f5",
      "blockHash": "0x6c03d6ad6980d00d9ed8b4910c2c493e996647d3f3438067ea98212caa82135b",
      "blockNumber": 115299,
      "transactionIndex": 11,
      "confirmations": null,
      "from": "0xe6A7a1d47ff21B6321162AEA7C6CB457D5476Bca",
      "gasPrice": {
        "_hex": "0xcd49da916"
      },
      "gasLimit": {
        "_hex": "0x55f0"
      },
      "to": "0xe6F63A7e7F8dc774F8E3504c9b0c5458D7E28ED8",
      "value": {
        "_hex": "0x6837ae08ef9ff380"
      },
      "nonce": 5348,
      "data": "0x",
      "r": "0x8261e076b998eb34429b5c53b1fbfd2af74d50c8368d5fdc20153b19d77520a1",
      "s": "0x30d953e82d2e8a8fb43ab130dbfb2cbe0c2b9785f029cadb950f833450d0aa6b",
      "v": 27,
      "creates": null,
      "raw": "0xf86e8214e4850cd49da9168255f094e6f63a7e7f8dc774f8e3504c9b0c5458d7e28ed8886837ae08ef9ff380801ba08261e076b998eb34429b5c53b1fbfd2af74d50c8368d5fdc20153b19d77520a1a030d953e82d2e8a8fb43ab130dbfb2cbe0c2b9785f029cadb950f833450d0aa6b",
      "networkId": 0,
      "chainId": 0
    },
    {
      "hash": "0x05eeff03fd421037674b3d2198572ccf71cdccded5fa58865f7367ec8aa8953a",
      "blockHash": "0x6c03d6ad6980d00d9ed8b4910c2c493e996647d3f3438067ea98212caa82135b",
      "blockNumber": 115299,
      "transactionIndex": 12,
      "confirmations": null,
      "from": "0x315260950914163880F3AD5A7FEEC87407fa4868",
      "gasPrice": {
        "_hex": "0xcd4623bef"
      },
      "gasLimit": {
        "_hex": "0x5208"
      },
      "to": "0x32Be343B94f860124dC4fEe278FDCBD38C102D88",
      "value": {
        "_hex": "0x1ae50dd6995c6c00"
      },
      "nonce": 8,
      "data": "0x",
      "r": "0x16d26d57a882eb1c98b484db6485af46c4b1f45612bc550bfa3ef746b4037b2c",
      "s": "0x3a932e72449609cd2a662f7dd098fdb34a0a58971b813ce20ac9b5e508535005",
      "v": 28,
      "creates": null,
      "raw": "0xf86c08850cd4623bef8252089432be343b94f860124dc4fee278fdcbd38c102d88881ae50dd6995c6c00801ca016d26d57a882eb1c98b484db6485af46c4b1f45612bc550bfa3ef746b4037b2ca03a932e72449609cd2a662f7dd098fdb34a0a58971b813ce20ac9b5e508535005",
      "networkId": 0,
      "chainId": 0
    },
    {
      "hash": "0x87973a4989e585c36e1180d41f76cf88001ab16710d9fc3182edb72cebcff3d0",
      "blockHash": "0x6c03d6ad6980d00d9ed8b4910c2c493e996647d3f3438067ea98212caa82135b",
      "blockNumber": 115299,
      "transactionIndex": 13,
      "confirmations": null,
      "from": "0x3D1d22d2A05a3E9b3792561f2FF5f8D879352d6c",
      "gasPrice": {
        "_hex": "0xcd4623bef"
      },
      "gasLimit": {
        "_hex": "0x5208"
      },
      "to": "0x32Be343B94f860124dC4fEe278FDCBD38C102D88",
      "value": {
        "_hex": "0x13f81cbae668dc00"
      },
      "nonce": 7,
      "data": "0x",
      "r": "0x179e06bcf017e371d1ff4b2be8ef6a1c51a97703c1f53994153e181375102837",
      "s": "0x3177fcb6d392591aa5410530d0af7d1115475a2c5897ec392b0fc481d1ce271d",
      "v": 28,
      "creates": null,
      "raw": "0xf86c07850cd4623bef8252089432be343b94f860124dc4fee278fdcbd38c102d888813f81cbae668dc00801ca0179e06bcf017e371d1ff4b2be8ef6a1c51a97703c1f53994153e181375102837a03177fcb6d392591aa5410530d0af7d1115475a2c5897ec392b0fc481d1ce271d",
      "networkId": 0,
      "chainId": 0
    }
  ]
}