{
  "hash": "0xd664f1087bc2dc92fce7034b46352f58bd71d68f0520c33d628ffb358120b4df",
  "parentHash": "0x067dd5ab50115af6780fe07b03950630ec465d78aee9f7c06399c041decb2b75",
  "number": 51719,
  "timestamp": 1439009699,
  "nonce": "0x88d1243410c15403",
  "difficulty": 1554335939973,
  "gasLimit": {
    "_hex": "0xd418c"
  },
  "gasUsed": {
    "_hex": "0x5208"
  },
  "miner": "0x0193d941b50d91BE6567c7eE1C0Fe7AF498b4137",
  "extraData": "0x4a5ace9e4e",
  "transactions": [
    {
      "hash": "0xd18c3553abc7e224a239681d2a18c629bd919ebd07ee2fc71c2ac2c1d8978b5b",
      "blockHash": "0xd664f1087bc2dc92fce7034b46352f58bd71d68f0520c33d628ffb358120b4df",
      "blockNumber": 51719,
      "transactionIndex": 0,
      "confirmations": null,
      "from": "0xCA092A957744f6385B1aee5dC694143E8A06F805",
      "gasPrice": {
        "_hex": "0xd2a7abed1"
      },
      "gasLimit": {
        "_hex": "0x15f90"
      },
      "to": "0x8f355432f4A4eCab3C3F11f85Ae7b54154Cf6e22",
      "value": {
        "_hex": "0x110d9316ec000"
      },
      "nonce": 4,
      "data": "0x",
      "r": "0x1a1046b6160eebd9265f0c37359cdd24f6191b34fe906adf406dda79ba87348c",
      "s": "0x2ef2c7f8a256d5b87475623cc538a2c28d49b8d75432006c22b9a4d778988a9d",
      "v": 27,
      "creates": null,
      "raw": "0xf86c04850d2a7abed183015f90948f355432f4a4ecab3c3f11f85ae7b54154cf6e22870110d9316ec000801ba01a1046b6160eebd9265f0c37359cdd24f6191b34fe906adf406dda79ba87348ca02ef2c7f8a256d5b87475623cc538a2c28d49b8d75432006c22b9a4d778988a9d",
      "networkId": 0,
      "chainId": 0
    }
  ]
}