{
  "hash": "0x076bf7237cedcd141e3c59c96ecf963b6f862ef223792049391df4ca6bd86622",
  "parentHash": "0xcf5b4bdb0116bca713ece7e20beb13b32b524a11fb2d83a628b125c0f7e3b925",
  "number": 99916,
  "timestamp": 1439797567,
  "nonce": "0xd2e12ec809ef3832",
  "difficulty": 3860629648278,
  "gasLimit": {
    "_hex": "0x2fefd8"
  },
  "gasUsed": {
    "_hex": "0x5208"
  },
  "miner": "0xe6A7a1d47ff21B6321162AEA7C6CB457D5476Bca",
  "extraData": "0x476574682f76312e302e312d38326566323666362f6c696e75782f676f312e34",
  "transactions": [
    {
      "hash": "0x911efd8f28514659a082801710a9f05bb615f5962d5ac9538cec88d7dd5a8624",
      "blockHash": "0x076bf7237cedcd141e3c59c96ecf963b6f862ef223792049391df4ca6bd86622",
      "blockNumber": 99916,
      "transactionIndex": 0,
      "confirmations": null,
      "from": "0xa6BDc31c431B8F97848c9D60cbbe9660dc450eB7",
      "gasPrice": {
        "_hex": "0xe09f04ba8"
      },
      "gasLimit": {
        "_hex": "0x5208"
      },
      "to": "0x32Be343B94f860124dC4fEe278FDCBD38C102D88",
      "value": {
        "_hex": "0x455f11e373a54800"
      },
      "nonce": 147,
      "data": "0x",
      "r": "0xa77add8af07158599a8b17229580969b9c36993b3b58ea3cdafb15f62f370141",
      "s": "0x3b53b6d1f7abb6c05bcdc17de04fbcae872e874f793c61101a87f18c864aae3d",
      "v": 28,
      "creates": null,
      "raw": "0xf86d8193850e09f04ba88252089432be343b94f860124dc4fee278fdcbd38c102d8888455f11e373a54800801ca0a77add8af07158599a8b17229580969b9c36993b3b58ea3cdafb15f62f370141a03b53b6d1f7abb6c05bcdc17de04fbcae872e874f793c61101a87f18c864aae3d",
      "networkId": 0,
      "chainId": 0
    }
  ]
}