{
  "hash": "0xfce97bff0180796ca2f99af55e357b32a59739ceb331d2d45c750b826157207f",
  "parentHash": "0xc8665695a31138db83341ced1aeb8078e12e5a6a3a7617c776da286f04ef90af",
  "number": 80558,
  "timestamp": 1439487254,
  "nonce": "0xec9fef26232c58ad",
  "difficulty": 2421501756145,
  "gasLimit": {
    "_hex": "0x2fefd8"
  },
  "gasUsed": {
    "_hex": "0x53d69"
  },
  "miner": "0x858079E02403b10748B71A02195b6608Abaf6b8f",
  "extraData": "0x476574682f76312e302e312f77696e646f77732f676f312e342e32",
  "transactions": [
    {
      "hash": "0x37906870a4fa6f50d816ce643fe98a269329ddee7eb99ff32c403f84598f2aea",
      "blockHash": "0xfce97bff0180796ca2f99af55e357b32a59739ceb331d2d45c750b826157207f",
      "blockNumber": 80558,
      "transactionIndex": 0,
      "confirmations": null,
      "from": "0x87C5B5874A18B4306DF8a752a6C8cc3E82daFc19",
      "gasPrice": {
        "_hex": "0x10a85c28537"
      },
      "gasLimit": {
        "_hex": "0x493e0"
      },
      "to": "0xC4c51de1AbF5D60DBd329eC0F999Fd8f021ae9fC",
      "value": {
        "_hex": "0x351769d77f2cc54"
      },
      "nonce": 244,
      "data": "0x8d2161860000000000000000000000000000000000000000000000000000000000000006d3d96ceed0cfca4794c2a5a3d3aeefe69da0a2a669e66a5651f30b64831c3db0",
      "r": "0xee145a6705d9d09bc6b41f3067dfc22d3c77d3d0134b86574f2daaa582cccea5",
      "s": "0x01d5f93ab775e886a61f86ce0092848fe70d6cb93d4eaeb33d77d4acdc3ceaf1",
      "v": 28,
      "creates": null,
      "raw": "0xf8b481f486010a85c28537830493e094c4c51de1abf5d60dbd329ec0f999fd8f021ae9fc880351769d77f2cc54b8448d2161860000000000000000000000000000000000000000000000000000000000000006d3d96ceed0cfca4794c2a5a3d3aeefe69da0a2a669e66a5651f30b64831c3db01ca0ee145a6705d9d09bc6b41f3067dfc22d3c77d3d0134b86574f2daaa582cccea5a001d5f93ab775e886a61f86ce0092848fe70d6cb93d4eaeb33d77d4acdc3ceaf1",
      "networkId": 0,
      "chainId": 0
    },
    {
      "hash": "0xf84034bf3df0655a00f601d99a396765b6b7fe6bc6a7ddace12fbdb923cb5943",
      "blockHash": "0xfce97bff0180796ca2f99af55e357b32a59739ceb331d2d45c750b826157207f",
      "blockNumber": 80558,
      "transactionIndex": 1,
      "confirmations": null,
      "from": "0x2910543Af39abA0Cd09dBb2D50200b3E800A63D2",
      "gasPrice": {
        "_hex": "0xdefec199c"
      },
      "gasLimit": {
        "_hex": "0x5208"
      },
      "to": "0x93Db80284c8E4d2B0eE8586dE2D072208c075145",
      "value": {
        "_hex": "0x2b5d1eb9d79a78000"
      },
      "nonce": 395,
      "data": "0x",
      "r": "0x4492d9964b0a838c781421041a33d0ef724ebb865283a2395cd0ca365b27f61d",
      "s": "0x5af91e308f730d86a59e725d99686a4f7ffb8ceeeaf23d0e5fc25dcb663c2eed",
      "v": 27,
      "creates": null,
      "raw": "0xf86f82018b850defec199c8252089493db80284c8e4d2b0ee8586de2d072208c0751458902b5d1eb9d79a78000801ba04492d9964b0a838c781421041a33d0ef724ebb865283a2395cd0ca365b27f61da05af91e308f730d86a59e725d99686a4f7ffb8ceeeaf23d0e5fc25dcb663c2eed",
      "networkId": 0,
      "chainId": 0
    },
    {
      "hash": "0xd3f9ab814542deceb698ebf9ab61a411c0402bf54e5530d0b90215fd789a29bb",
      "blockHash": "0xfce97bff0180796ca2f99af55e357b32a59739ceb331d2d45c750b826157207f",
      "blockNumber": 80558,
      "transactionIndex": 2,
      "confirmations": null,
      "from": "0xc0b9d23f8d37650D0141B559dbD33d94Ea004e07",
      "gasPrice": {
        "_hex": "0xd6e55f196"
      },
      "gasLimit": {
        "_hex": "0x5208"
      },
      "to": "0x32Be343B94f860124dC4fEe278FDCBD38C102D88",
      "value": {
        "_hex": "0x70c186e76b5e60000"
      },
      "nonce": 8,
      "data": "0x",
      "r": "0x66d1427f65ef8c717a90631b5c151d36bb90847d8d3336623215a71aa797681a",
      "s": "0x2c75a061d0537f91ef1cbc41061c76cc375c3ea53c00384f662a38591424b20a",
      "v": 28,
      "creates": null,
      "raw": "0xf86d08850d6e55f1968252089432be343b94f860124dc4fee278fdcbd38c102d8889070c186e76b5e60000801ca066d1427f65ef8c717a90631b5c151d36bb90847d8d3336623215a71aa797681aa02c75a061d0537f91ef1cbc41061c76cc375c3ea53c00384f662a38591424b20a",
      "networkId": 0,
      "chainId": 0
    },
    {
      "hash": "0x1fab9d7628c7ed890c040a7ff7a55235b72fc2246f8d7fa745e14692eaa2d1fe",
      "blockHash": "0xfce97bff0180796ca2f99af55e357b32a59739ceb331d2d45c750b826157207f",
      "blockNumber": 80558,
      "transactionIndex": 3,
      "confirmations": null,
      "from": "0xFf9a46E0358502f3Ae5D7faBF50E71A067259A9A",
      "gasPrice": {
        "_hex": "0xd3d37f23a"
      },
      "gasLimit": {
        "_hex": "0x15f90"
      },
      "to": "0xc0b9d23f8d37650D0141B559dbD33d94Ea004e07",
      "value": {
        "_hex": "0x2a802f8630a240000"
      },
      "nonce": 1,
      "data": "0x454e433933464b3330",
      "r": "0xa84a5dda3ef8b559f6a7145e9be26bd7a43dd1c727cb143dde6649ead6bd81aa",
      "s": "0x276c7054f96c44b20fc781f23f05b8c2660f6a672d4dd42799ff41cfcd38bc71",
      "v": 27,
      "creates": null,
      "raw": "0xf87701850d3d37f23a83015f9094c0b9d23f8d37650d0141b559dbd33d94ea004e078902a802f8630a24000089454e433933464b33301ba0a84a5dda3ef8b559f6a7145e9be26bd7a43dd1c727cb143dde6649ead6bd81aaa0276c7054f96c44b20fc781f23f05b8c2660f6a672d4dd42799ff41cfcd38bc71",
      "networkId": 0,
      "chainId": 0
    },
    {
      "hash": "0x1e2833d3bb5ee3ea1e50014d9fbe4dfd62f1456ab61e54bcfb8cc3188c2d464e",
      "blockHash": "0xfce97bff0180796ca2f99af55e357b32a59739ceb331d2d45c750b826157207f",
      "blockNumber": 80558,
      "transactionIndex": 4,
      "confirmations": null,
      "from": "0xD378eb142Ad654E0bd8296DafCc5c4874EC40445",
      "gasPrice": {
        "_hex": "0xba43b7400"
      },
      "gasLimit": {
        "_hex": "0x5208"
      },
      "to": "0xC47Aaa860008be6f65B58c6C6E02a84e666EfE31",
      "value": {
        "_hex": "0x53b814cb78c5fddc0"
      },
      "nonce": 1,
      "data": "0x",
      "r": "0x04a22e23ed2d6fad8d97358d5ddb34ad1e0dd37dc721ab93b14e0dd1c8f3b68e",
      "s": "0x630bb0df4eb9d747b288fe021ddd2fb7666abfbd1f2fa6daa82de7e50fca8a30",
      "v": 27,
      "creates": null,
      "raw": "0xf86d01850ba43b740082520894c47aaa860008be6f65b58c6c6e02a84e666efe3189053b814cb78c5fddc0801ba004a22e23ed2d6fad8d97358d5ddb34ad1e0dd37dc721ab93b14e0dd1c8f3b68ea0630bb0df4eb9d747b288fe021ddd2fb7666abfbd1f2fa6daa82de7e50fca8a30",
      "networkId": 0,
      "chainId": 0
    },
    {
      "hash": "0x08928ddff30731df790a87a842befd602f644b7a511409eb4d1fb52aa3aead4d",
      "blockHash": "0xfce97bff0180796ca2f99af55e357b32a59739ceb331d2d45c750b826157207f",
      "blockNumber": 80558,
      "transactionIndex": 5,
      "confirmations": null,
      "from": "0xB111131B23148a685D28A018B3577910B86280FC",
      "gasPrice": {
        "_hex": "0xba43b7400"
      },
      "gasLimit": {
        "_hex": "0x5208"
      },
      "to": "0xC47Aaa860008be6f65B58c6C6E02a84e666EfE31",
      "value": {
        "_hex": "0x454e1310e0009dc0"
      },
      "nonce": 1,
      "data": "0x",
      "r": "0x9670de42bb0918332517d605b0c5a95a341ff0b1e235346e42c7811db71a8612",
      "s": "0x66cbd4bc9ed709613c27dfb73b083ebe4950ac0542ed96a55317d44205d62a50",
      "v": 28,
      "creates": null,
      "raw": "0xf86c01850ba43b740082520894c47aaa860008be6f65b58c6c6e02a84e666efe3188454e1310e0009dc0801ca09670de42bb0918332517d605b0c5a95a341ff0b1e235346e42c7811db71a8612a066cbd4bc9ed709613c27dfb73b083ebe4950ac0542ed96a55317d44205d62a50",
      "networkId": 0,
      "chainId": 0
    },
    {
      "hash": "0xdf2638fadbcb7323fc6f192bdd534d9be8aec19167d11fa5d408408bfd613028",
      "blockHash": "0xfce97bff0180796ca2f99af55e357b32a59739ceb331d2d45c750b826157207f",
      "blockNumber": 80558,
      "transactionIndex": 6,
      "confirmations": null,
      "from": "0x2C6dA0AeEF23c6a9eA4a8f19c0810e505FDEb231",
      "gasPrice": {
        "_hex": "0xba43b7400"
      },
      "gasLimit": {
        "_hex": "0x5208"
      },
      "to": "0xC47Aaa860008be6f65B58c6C6E02a84e666EfE31",
      "value": {
        "_hex": "0x56bb1dfbbfe2be000"
      },
      "nonce": 2,
      "data": "0x",
      "r": "0xc2c27c16ca960c12bf8313974a007040ab19fef65f0ef1c4cf9491914b244150",
      "s": "0x302f1f8b37da08658058b6e47670c20776a9266422fd63d9c67af766b860b2a7",
      "v": 27,
      "creates": null,
      "raw": "0xf86d02850ba43b740082520894c47aaa860008be6f65b58c6c6e02a84e666efe3189056bb1dfbbfe2be000801ba0c2c27c16ca960c12bf8313974a007040ab19fef65f0ef1c4cf9491914b244150a0302f1f8b37da08658058b6e47670c20776a9266422fd63d9c67af766b860b2a7",
      "networkId": 0,
      "chainId": 0
    },
    {
      "hash": "0x3a2528227cbe92113b313b9e92b044f36f0054145d6874c49bc35439142d916e",
      "blockHash": "0xfce97bff0180796ca2f99af55e357b32a59739ceb331d2d45c750b826157207f",
      "blockNumber": 80558,
      "transactionIndex": 7,
      "confirmations": null,
      "from": "0x1BF5b1581819E4B545F5A57c246E5C96e27C876e",
      "gasPrice": {
        "_hex": "0xba43b7400"
      },
      "gasLimit": {
        "_hex": "0x5208"
      },
      "to": "0xC47Aaa860008be6f65B58c6C6E02a84e666EfE31",
      "value": {
        "_hex": "0xdd5ce8d93deddc0"
      },
      "nonce": 0,
      "data": "0x",
      "r": "0xb1110f57e7424491e7d29d4362f3e58636616cdcdc23c614caf3f42849f2cfc9",
      "s": "0x3b01f1162ba1558c7c966af0d7ffab7c941169998efc2b7a4027922d6e21e8eb",
      "v": 27,
      "creates": null,
      "raw": "0xf86c80850ba43b740082520894c47aaa860008be6f65b58c6c6e02a84e666efe31880dd5ce8d93deddc0801ba0b1110f57e7424491e7d29d4362f3e58636616cdcdc23c614caf3f42849f2cfc9a03b01f1162ba1558c7c966af0d7ffab7c941169998efc2b7a4027922d6e21e8eb",
      "networkId": 0,
      "chainId": 0
    },
    {
      "hash": "0xb1408020818083c47f148c5faf9c4cadf06a29c64d6798520a63ca83e867ff6f",
      "blockHash": "0xfce97bff0180796ca2f99af55e357b32a59739ceb331d2d45c750b826157207f",
      "blockNumber": 80558,
      "transactionIndex": 8,
      "confirmations": null,
      "from": "0x742259a297d480753626dA79958287165fdD3f64",
      "gasPrice": {
        "_hex": "0xba43b7400"
      },
      "gasLimit": {
        "_hex": "0x5208"
      },
      "to": "0xC47Aaa860008be6f65B58c6C6E02a84e666EfE31",
      "value": {
        "_hex": "0xf9a596b728341dc0"
      },
      "nonce": 1,
      "data": "0x",
      "r": "0x3751701aeab652705251cb07629e42ad1c2f487435ff19d81f6177e44c55ffe9",
      "s": "0x2c9f8b474c678ed11fecb05559bc55ad327dfc5cf1a1639c37770803e8731740",
      "v": 28,
      "creates": null,
      "raw": "0xf86c01850ba43b740082520894c47aaa860008be6f65b58c6c6e02a84e666efe3188f9a596b728341dc0801ca03751701aeab652705251cb07629e42ad1c2f487435ff19d81f6177e44c55ffe9a02c9f8b474c678ed11fecb05559bc55ad327dfc5cf1a1639c37770803e8731740",
      "networkId": 0,
      "chainId": 0
    },
    {
      "hash": "0x47dd062fc327baf83e96d82ab627c9840ae53585675a86663980d8f55ee8005b",
      "blockHash": "0xfce97bff0180796ca2f99af55e357b32a59739ceb331d2d45c750b826157207f",
      "blockNumber": 80558,
      "transactionIndex": 9,
      "confirmations": null,
      "from": "0xe2f8F0ab7063c301CBDbA058e37Eb5a9fCbDB002",
      "gasPrice": {
        "_hex": "0xba43b7400"
      },
      "gasLimit": {
        "_hex": "0x5208"
      },
      "to": "0xC47Aaa860008be6f65B58c6C6E02a84e666EfE31",
      "value": {
        "_hex": "0x375cbf031ade4c00"
      },
      "nonce": 0,
      "data": "0x",
      "r": "0x3cc52d5ee1b36a15afc3256f6a72fd1a3b36714007b945e57efd9c82827fdaae",
      "s": "0x5fc5328d7ec427a0e28312f384361fe01eeb972d38fd86bc55f5164b84abb903",
      "v": 27,
      "creates": null,
      "raw": "0xf86c80850ba43b740082520894c47aaa860008be6f65b58c6c6e02a84e666efe3188375cbf031ade4c00801ba03cc52d5ee1b36a15afc3256f6a72fd1a3b36714007b945e57efd9c82827fdaaea05fc5328d7ec427a0e28312f384361fe01eeb972d38fd86bc55f5164b84abb903",
      "networkId": 0,
      "chainId": 0
    },
    {
      "hash": "0xeeeac4aea46e3942c18058722ecb17160a3aa741ae02bfa0a5aed7b9a36b1301",
      "blockHash": "0xfce97bff0180796ca2f99af55e357b32a59739ceb331d2d45c750b826157207f",
      "blockNumber": 80558,
      "transactionIndex": 10,
      "confirmations": null,
      "from": "0x65d6F6040D1B3E8E8bFD5F70B46A2dB2ADBFca9a",
      "gasPrice": {
        "_hex": "0xba43b7400"
      },
      "gasLimit": {
        "_hex": "0x5208"
      },
      "to": "0xC47Aaa860008be6f65B58c6C6E02a84e666EfE31",
      "value": {
        "_hex": "0x283b23aa6b9e6000"
      },
      "nonce": 1,
      "data": "0x",
      "r": "0xd77dbfc2e4535dcb3878450ddf8ac36a7d83f304844c9ed361c5b30018e77320",
      "s": "0x10faf7918818709e7ec6a5fc17548d5296d2b3670d844401dd4f8ffb73cfbaf1",
      "v": 27,
      "creates": null,
      "raw": "0xf86c01850ba43b740082520894c47aaa860008be6f65b58c6c6e02a84e666efe3188283b23aa6b9e6000801ba0d77dbfc2e4535dcb3878450ddf8ac36a7d83f304844c9ed361c5b30018e77320a010faf7918818709e7ec6a5fc17548d5296d2b3670d844401dd4f8ffb73cfbaf1",
      "networkId": 0,
      "chainId": 0
    },
    {
      "hash": "0xe430d9fd41fd32bb87e887d7795bb563070d4c4c50bbd474c968b2e1975754a3",
      "blockHash": "0xfce97bff0180796ca2f99af55e357b32a59739ceb331d2d45c750b826157207f",
      "blockNumber": 80558,
      "transactionIndex": 11,
      "confirmations": null,
      "from": "0x2071130408d9aAf3D5D65953118c3FE37aCB8D04",
      "gasPrice": {
        "_hex": "0xba43b7400"
      },
      "gasLimit": {
        "_hex": "0x5208"
      },
      "to": "0xC47Aaa860008be6f65B58c6C6E02a84e666EfE31",
      "value": {
        "_hex": "0xc24642dafa746000"
      },
      "nonce": 0,
      "data": "0x",
      "r": "0xc8d9f8d4b6ba33b11a625d54c3c8ab551d6defbdeeee47bd29419b3bc1403df9",
      "s": "0x54298c49af921d48ee8c237a1c3d074679296f867abe9a2123a25deebf6f3369",
      "v": 27,
      "creates": null,
      "raw": "0xf86c80850ba43b740082520894c47aaa860008be6f65b58c6c6e02a84e666efe3188c24642dafa746000801ba0c8d9f8d4b6ba33b11a625d54c3c8ab551d6defbdeeee47bd29419b3bc1403df9a054298c49af921d48ee8c237a1c3d074679296f867abe9a2123a25deebf6f3369",
      "networkId": 0,
      "chainId": 0
    }
  ]
}