{
  "hash": "0x8176d5cb03db4b283732388808c119a9a62be8f45543fafec8cf322a91793371",
  "parentHash": "0x05ef3308479f281256005ddac8837fd2bfa3807bcbe9c05814d435a898f55bbf",
  "number": 53003,
  "timestamp": 1439030932,
  "nonce": "0xd6cf7ee22d57ca5f",
  "difficulty": 1566286987147,
  "gasLimit": {
    "_hex": "0x1d7be0"
  },
  "gasUsed": {
    "_hex": "0x5208"
  },
  "miner": "0x9746c7e1ef2bd21FF3997fa467593a89cb852BD0",
  "extraData": "0x476574682f76312e302e312f77696e646f77732f676f312e342e32",
  "transactions": [
    {
      "hash": "0x6aa717483b981b9376fd230b3ba8fbfd3a22aef7bbc7a6396c579aa2d94800cb",
      "blockHash": "0x8176d5cb03db4b283732388808c119a9a62be8f45543fafec8cf322a91793371",
      "blockNumber": 53003,
      "transactionIndex": 0,
      "confirmations": null,
      "from": "0x430F8F6FDc140D44d9c99dA1f0A0e7ea541DB4b0",
      "gasPrice": {
        "_hex": "0xcf3ca87ec"
      },
      "gasLimit": {
        "_hex": "0x15f90"
      },
      "to": "0x6111E933E5e6297DFd0AAd9aAB64017c69062a08",
      "value": {
        "_hex": "0xd02ab486cedc0000"
      },
      "nonce": 3,
      "data": "0x",
      "r": "0xdfba587e7c7d016acdf9a42ffb57281241bca2337ca0084c3f93c91e1db6aa94",
      "s": "0x01896d3a15da807dfc84e267c346293f434a94b017949dd526800abcc1e92aae",
      "v": 28,
      "creates": null,
      "raw": "0xf86d03850cf3ca87ec83015f90946111e933e5e6297dfd0aad9aab64017c69062a0888d02ab486cedc0000801ca0dfba587e7c7d016acdf9a42ffb57281241bca2337ca0084c3f93c91e1db6aa94a001896d3a15da807dfc84e267c346293f434a94b017949dd526800abcc1e92aae",
      "networkId": 0,
      "chainId": 0
    }
  ]
}