{
  "hash": "0xa9ee303eed4e369a5f8467224e73e253b5ebee23900697d2fe824ca8970aec57",
  "parentHash": "0xb6d27fae14c817179d9a5288d8d3aca107754b695c538ae81deb35c8e6f48efb",
  "number": 89216,
  "timestamp": 1439619955,
  "nonce": "0x2ab6ef995ded09f3",
  "difficulty": 3290281112904,
  "gasLimit": {
    "_hex": "0x2fefd8"
  },
  "gasUsed": {
    "_hex": "0x5208"
  },
  "miner": "0x05Bbf17Ab8d987DE9c4062260f2506d446481428",
  "extraData": "0x",
  "transactions": [
    {
      "hash": "0xd52229c8c9cb06a54e064eabee03da9dd59e0357148857052361a89bf0d71718",
      "blockHash": "0xa9ee303eed4e369a5f8467224e73e253b5ebee23900697d2fe824ca8970aec57",
      "blockNumber": 89216,
      "transactionIndex": 0,
      "confirmations": null,
      "from": "0x06EC48800B2DB3eEfa052e98A9b5Fc2Bf783Ee74",
      "gasPrice": {
        "_hex": "0xe17878697"
      },
      "gasLimit": {
        "_hex": "0x5208"
      },
      "to": "0x32Be343B94f860124dC4fEe278FDCBD38C102D88",
      "value": {
        "_hex": "0x455f0d883165ac00"
      },
      "nonce": 10,
      "data": "0x",
      "r": "0xcc946fbdfff76496c3e67114f9e489e9e0e714d16668c3e7ce17bb59992c1051",
      "s": "0x207874107dd4ffc593d8d51773bb1638c5b4c6f93a4bc1ef2f3e46eb5d4de256",
      "v": 27,
      "creates": null,
      "raw": "0xf86c0a850e178786978252089432be343b94f860124dc4fee278fdcbd38c102d8888455f0d883165ac00801ba0cc946fbdfff76496c3e67114f9e489e9e0e714d16668c3e7ce17bb59992c1051a0207874107dd4ffc593d8d51773bb1638c5b4c6f93a4bc1ef2f3e46eb5d4de256",
      "networkId": 0,
      "chainId": 0
    }
  ]
}