{
  "hash": "0x9f48d00abc9946ba49b822da7ec4ea9237a95edcfb22e080200b47ab981729b7",
  "parentHash": "0xafed6b32d929d5d13688c3c82cc0ff20015b2f077af38e78774be09553b83f0a",
  "number": 47174,
  "timestamp": 1438935571,
  "nonce": "0xece970cc13b6d8cc",
  "difficulty": 1457392384869,
  "gasLimit": {
    "_hex": "0x9f8b"
  },
  "gasUsed": {
    "_hex": "0x5208"
  },
  "miner": "0xBD744E3F13D79B33F6c8E1d5E32F8E9BA2866c46",
  "extraData": "0x476574682f76312e302e312d38326566323666362f6c696e75782f676f312e34",
  "transactions": [
    {
      "hash": "0x1a5816918608a74874737788e8d6f5fc6793ff41d42552835706fa6971c66066",
      "blockHash": "0x9f48d00abc9946ba49b822da7ec4ea9237a95edcfb22e080200b47ab981729b7",
      "blockNumber": 47174,
      "transactionIndex": 0,
      "confirmations": null,
      "from": "0xe6A7a1d47ff21B6321162AEA7C6CB457D5476Bca",
      "gasPrice": {
        "_hex": "0xd810e4ab8"
      },
      "gasLimit": {
        "_hex": "0x5208"
      },
      "to": "0x323cD41e4d4e74eB94CA49EdcCAab03f798a930a",
      "value": {
        "_hex": "0x4d121c18d33441c8"
      },
      "nonce": 64,
      "data": "0x",
      "r": "0x573ee1067a1ff704279f74b1a57b5c1a67b929ad4a9c6fbd00456958a77c7d6a",
      "s": "0x590f613ccd3ba1af79beef0c9bcba04790f355a579f98eb2f83601a9d77bebcc",
      "v": 28,
      "creates": null,
      "raw": "0xf86c40850d810e4ab882520894323cd41e4d4e74eb94ca49edccaab03f798a930a884d121c18d33441c8801ca0573ee1067a1ff704279f74b1a57b5c1a67b929ad4a9c6fbd00456958a77c7d6aa0590f613ccd3ba1af79beef0c9bcba04790f355a579f98eb2f83601a9d77bebcc",
      "networkId": 0,
      "chainId": 0
    }
  ]
}