{
  "hash": "0x14523fb371ba721b22d0713367ba45d359f86cb5cb4aaa54fad4dabca6d16052",
  "parentHash": "0x016986c6c77d85b0353881d55a4461c95ba356dea97daab4e36d7d162959f90d",
  "number": 108386,
  "timestamp": 1439939408,
  "nonce": "0x0d6cf202612392e4",
  "difficulty": 4340478782382,
  "gasLimit": {
    "_hex": "0x2fefd8"
  },
  "gasUsed": {
    "_hex": "0xa410"
  },
  "miner": "0xC7711C2ed62c75340909Fdf6bf3BF0CA3e1Be850",
  "extraData": "0xda8098302e392e34302b2b302d524c696e75782f672b2b2f696e74",
  "transactions": [
    {
      "hash": "0xa3d1e55f3342185bb63b71a21d395b5003396ad9123d793ea1a165be987ff3a3",
      "blockHash": "0x14523fb371ba721b22d0713367ba45d359f86cb5cb4aaa54fad4dabca6d16052",
      "blockNumber": 108386,
      "transactionIndex": 0,
      "confirmations": null,
      "from": "0x787F9C02fc5F4970ae51F2B5f7B4ee7c22B875B6",
      "gasPrice": {
        "_hex": "0xdcabd5f3c"
      },
      "gasLimit": {
        "_hex": "0x5208"
      },
      "to": "0x32Be343B94f860124dC4fEe278FDCBD38C102D88",
      "value": {
        "_hex": "0x37388e94ad8f800"
      },
      "nonce": 0,
      "data": "0x",
      "r": "0xe139b15d24d5fa9831d6c3a9b2c534cde6f1a177cf517834b04737e729ad96e9",
      "s": "0x6a28a60bb3fb2d4b4fdcf978e1dd4d6dd68dfed1b36e18650d09749efd79eba3",
      "v": 27,
      "creates": null,
      "raw": "0xf86c80850dcabd5f3c8252089432be343b94f860124dc4fee278fdcbd38c102d8888037388e94ad8f800801ba0e139b15d24d5fa9831d6c3a9b2c534cde6f1a177cf517834b04737e729ad96e9a06a28a60bb3fb2d4b4fdcf978e1dd4d6dd68dfed1b36e18650d09749efd79eba3",
      "networkId": 0,
      "chainId": 0
    },
    {
      "hash": "0x9088477f4dbf7e0a1bbd80b462e54ef10a925a7e7b14a671d0cac0122ef21467",
      "blockHash": "0x14523fb371ba721b22d0713367ba45d359f86cb5cb4aaa54fad4dabca6d16052",
      "blockNumber": 108386,
      "transactionIndex": 1,
      "confirmations": null,
      "from": "0x983C3f45E26ee1a84155C1dDBB1cfDBf85a4d2b3",
      "gasPrice": {
        "_hex": "0xba43b7400"
      },
      "gasLimit": {
        "_hex": "0x5208"
      },
      "to": "0xC47Aaa860008be6f65B58c6C6E02a84e666EfE31",
      "value": {
        "_hex": "0x1625a50faec83e0"
      },
      "nonce": 0,
      "data": "0x",
      "r": "0xf834c20ce7e08388754ea04c65cda1f45a7e4fe0a429fb78323d95ffe4fb4acb",
      "s": "0x4cef4287039ebac7927d4ee395a6dbd32329710bd13b6ede2ab691ddf4c69ef2",
      "v": 28,
      "creates": null,
      "raw": "0xf86c80850ba43b740082520894c47aaa860008be6f65b58c6c6e02a84e666efe318801625a50faec83e0801ca0f834c20ce7e08388754ea04c65cda1f45a7e4fe0a429fb78323d95ffe4fb4acba04cef4287039ebac7927d4ee395a6dbd32329710bd13b6ede2ab691ddf4c69ef2",
      "networkId": 0,
      "chainId": 0
    }
  ]
}