{
  "hash": "0xb3b7617aa23754d7d5d5c82fba28b49f0e110c3f521379b8b862a7ed466119e0",
  "parentHash": "0x180b541d6dfed3338a925602d404c02d3c69760f62f7fe11e37e219410f880c7",
  "number": 80640,
  "timestamp": 1439488462,
  "nonce": "0xd68e71bd94ef1f83",
  "difficulty": 2430955483702,
  "gasLimit": {
    "_hex": "0x2fefd8"
  },
  "gasUsed": {
    "_hex": "0xaa37"
  },
  "miner": "0xf8E0CA3Ed80bd541b94BEdCf259e8CF2141A9523",
  "extraData": "0x476574682f76312e302e312f77696e646f77732f676f312e342e32",
  "transactions": [
    {
      "hash": "0x191c3cde332a0321d29c4235cd3d88140b249baf1ac511dd77bb62cb3046952f",
      "blockHash": "0xb3b7617aa23754d7d5d5c82fba28b49f0e110c3f521379b8b862a7ed466119e0",
      "blockNumber": 80640,
      "transactionIndex": 0,
      "confirmations": null,
      "from": "0x87C5B5874A18B4306DF8a752a6C8cc3E82daFc19",
      "gasPrice": {
        "_hex": "0x11333cafb51"
      },
      "gasLimit": {
        "_hex": "0x493e0"
      },
      "to": "0xC4c51de1AbF5D60DBd329eC0F999Fd8f021ae9fC",
      "value": {
        "_hex": "0x0"
      },
      "nonce": 270,
      "data": "0x03750d9400000000000000000000000087c5b5874a18b4306df8a752a6c8cc3e82dafc196b6b6b0000000000000000000000000000000000000000000000000000000000",
      "r": "0x52be09cb8458e05ea882eb0e901879cb853d7665316498429aa4397f73c16e79",
      "s": "0x741e9ec7e096d5a29600b787bac3600bcbb1faa1db1674b142b9ea6df1520843",
      "v": 28,
      "creates": null,
      "raw": "0xf8ad82010e86011333cafb51830493e094c4c51de1abf5d60dbd329ec0f999fd8f021ae9fc80b84403750d9400000000000000000000000087c5b5874a18b4306df8a752a6c8cc3e82dafc196b6b6b00000000000000000000000000000000000000000000000000000000001ca052be09cb8458e05ea882eb0e901879cb853d7665316498429aa4397f73c16e79a0741e9ec7e096d5a29600b787bac3600bcbb1faa1db1674b142b9ea6df1520843",
      "networkId": 0,
      "chainId": 0
    }
  ]
}