{
  "hash": "0xffb5dc7b8d3a821359f52994f08f37f1e17b8f7785cd4d5a8a09e26f3061c171",
  "parentHash": "0xc980e0e4702e3fabf72594d769e6bc232689d95982dcb977344c56f20ad1f71f",
  "number": 99695,
  "timestamp": 1439794336,
  "nonce": "0x80cabd98b11d5c96",
  "difficulty": 3795312647985,
  "gasLimit": {
    "_hex": "0x2fefd8"
  },
  "gasUsed": {
    "_hex": "0x5208"
  },
  "miner": "0x0eDEd3DA479d0beF8eeC92A76644D3f4E3C177f7",
  "extraData": "0x476574682f76312e302e312f6c696e75782f676f312e342e32",
  "transactions": [
    {
      "hash": "0x9d2aa47ca5dbe8a9b7e06cb64cabbef98e38fa71be9e534f1c8e7a97fc13b53b",
      "blockHash": "0xffb5dc7b8d3a821359f52994f08f37f1e17b8f7785cd4d5a8a09e26f3061c171",
      "blockNumber": 99695,
      "transactionIndex": 0,
      "confirmations": null,
      "from": "0x32Be343B94f860124dC4fEe278FDCBD38C102D88",
      "gasPrice": {
        "_hex": "0xd10935d14"
      },
      "gasLimit": {
        "_hex": "0x5208"
      },
      "to": "0xAaA4BEfA989B980188a418Cc5C4C02E7d9103818",
      "value": {
        "_hex": "0x1a95b5aed9f3770000"
      },
      "nonce": 1066,
      "data": "0x",
      "r": "0x7ab710af3ed331004143bc79fd9dfa6c1564afe2e57d679708ea11b4df07fe52",
      "s": "0x56aa05c2bbddc4d234c85284eeea5adf1e2a491e5cb54d22c47b37d702b96be5",
      "v": 27,
      "creates": null,
      "raw": "0xf86f82042a850d10935d1482520894aaa4befa989b980188a418cc5c4c02e7d9103818891a95b5aed9f3770000801ba07ab710af3ed331004143bc79fd9dfa6c1564afe2e57d679708ea11b4df07fe52a056aa05c2bbddc4d234c85284eeea5adf1e2a491e5cb54d22c47b37d702b96be5",
      "networkId": 0,
      "chainId": 0
    }
  ]
}