{
  "hash": "0x4dece53f7a65e426607e93600c4404401e2256a94a53f94958919ecc69bf6505",
  "parentHash": "0x2fb871d915a9e1c8325fb38cfb01d036f39db9602b3df24342f1dcb67a619acd",
  "number": 53208,
  "timestamp": 1439034044,
  "nonce": "0xc88f26a6104e375d",
  "difficulty": 1582391501447,
  "gasLimit": {
    "_hex": "0x21c758"
  },
  "gasUsed": {
    "_hex": "0x5208"
  },
  "miner": "0xbb7B8287f3F0a933474a79eAe42CBCa977791171",
  "extraData": "0x476574682f4c5649562f76312e302e312f6c696e75782f676f312e342e32",
  "transactions": [
    {
      "hash": "0x10cf4004149d7b9facf93f7b6414a2e082559a37fe0da7392733da90b53d9790",
      "blockHash": "0x4dece53f7a65e426607e93600c4404401e2256a94a53f94958919ecc69bf6505",
      "blockNumber": 53208,
      "transactionIndex": 0,
      "confirmations": null,
      "from": "0xc97b6E47df229442524F8f210926557900f81574",
      "gasPrice": {
        "_hex": "0xd4a035417"
      },
      "gasLimit": {
        "_hex": "0x5208"
      },
      "to": "0x32Be343B94f860124dC4fEe278FDCBD38C102D88",
      "value": {
        "_hex": "0x8ac2e0e5baadb000"
      },
      "nonce": 1,
      "data": "0x",
      "r": "0x1d372ab50f6805df2a1dc6cd705fad888798334d37558d8a43e33a0f7f1a54b2",
      "s": "0x3f373a81a7765898da031de9f2d0d8607bf1f2eaf2c2d2edf0d3e50c243d2791",
      "v": 27,
      "creates": null,
      "raw": "0xf86c01850d4a0354178252089432be343b94f860124dc4fee278fdcbd38c102d88888ac2e0e5baadb000801ba01d372ab50f6805df2a1dc6cd705fad888798334d37558d8a43e33a0f7f1a54b2a03f373a81a7765898da031de9f2d0d8607bf1f2eaf2c2d2edf0d3e50c243d2791",
      "networkId": 0,
      "chainId": 0
    }
  ]
}