{
  "hash": "0x428cf48e4d2eb96340ced783e95421f733faeb902c2b234dd004e1264e28bd6a",
  "parentHash": "0x56a995d023be8b3657e08a4945d97c47a1c082c6b07be107fbbadc31e546eb4d",
  "number": 53977,
  "timestamp": 1439046640,
  "nonce": "0x277a49682339ced0",
  "difficulty": 1609519173424,
  "gasLimit": {
    "_hex": "0x2fefd5"
  },
  "gasUsed": {
    "_hex": "0x5208"
  },
  "miner": "0xf927a40C8B7F6E07c5af7FA2155B4864a4112B13",
  "extraData": "0x476574682f76312e302e312f6c696e75782f676f312e342e32",
  "transactions": [
    {
      "hash": "0x108848e7884cd8a2732b7d4967e30920a4ff9beb4a21eb9261dd92395334a213",
      "blockHash": "0x428cf48e4d2eb96340ced783e95421f733faeb902c2b234dd004e1264e28bd6a",
      "blockNumber": 53977,
      "transactionIndex": 0,
      "confirmations": null,
      "from": "0xA6745A30DeC47EAec79E7a33ff221fc9CbF6615E",
      "gasPrice": {
        "_hex": "0xba43b7400"
      },
      "gasLimit": {
        "_hex": "0x5b04"
      },
      "to": "0x50851F0A477440DdfD402D389A84CA4a91A52AD6",
      "value": {
        "_hex": "0x70370550ab82980000"
      },
      "nonce": 4,
      "data": "0x",
      "r": "0x6b60b46b0514785aade6e3997e2a671d52fb10b008a04a757a2ce32a8c576fa3",
      "s": "0xc65797cbf19cacd5b6f259b51c99977919573ff9847b96b1bfd21f571fcc0b87",
      "v": 28,
      "creates": null,
      "raw": "0xf86d04850ba43b7400825b049450851f0a477440ddfd402d389a84ca4a91a52ad68970370550ab82980000801ca06b60b46b0514785aade6e3997e2a671d52fb10b008a04a757a2ce32a8c576fa3a0c65797cbf19cacd5b6f259b51c99977919573ff9847b96b1bfd21f571fcc0b87",
      "networkId": 0,
      "chainId": 0
    }
  ]
}