{
  "hash": "0xdbe3b6971af3b6b2d4ad2a6eae320f14d6110da4589434371d66fd8675b5211b",
  "parentHash": "0xf96a58009de4cdcbe51987760009742ef3dc05bb3e544f44ed61027a1392494b",
  "number": 46509,
  "timestamp": 1438924293,
  "nonce": "0x0b930c9033e72514",
  "difficulty": 1466789108785,
  "gasLimit": {
    "_hex": "0x65a1"
  },
  "gasUsed": {
    "_hex": "0x5208"
  },
  "miner": "0xbb7B8287f3F0a933474a79eAe42CBCa977791171",
  "extraData": "0x476574682f4c5649562f76312e302e312f6c696e75782f676f312e342e32",
  "transactions": [
    {
      "hash": "0x2bc6b236843d6754b1129aad5eab17e5fc786045a6ba4718d0e5a1665f2ad137",
      "blockHash": "0xdbe3b6971af3b6b2d4ad2a6eae320f14d6110da4589434371d66fd8675b5211b",
      "blockNumber": 46509,
      "transactionIndex": 0,
      "confirmations": null,
      "from": "0x8566610901AACe38b83244F3A9c831306a67b9dc",
      "gasPrice": {
        "_hex": "0x746a528800"
      },
      "gasLimit": {
        "_hex": "0x5208"
      },
      "to": "0x900C0aFc99968F30e64a7DEe5828042b6422a098",
      "value": {
        "_hex": "0xa2a15d09519be00000"
      },
      "nonce": 2,
      "data": "0x",
      "r": "0x7c000c51bc58b1b93e7c9679b9a018e5186c6d2b3af69ef0e8cce15af3e80fce",
      "s": "0x323e9663b648b756b33d77679c4f5efe7de2006c5a4b26198385557eebe2aaba",
      "v": 28,
      "creates": null,
      "raw": "0xf86d0285746a52880082520894900c0afc99968f30e64a7dee5828042b6422a09889a2a15d09519be00000801ca07c000c51bc58b1b93e7c9679b9a018e5186c6d2b3af69ef0e8cce15af3e80fcea0323e9663b648b756b33d77679c4f5efe7de2006c5a4b26198385557eebe2aaba",
      "networkId": 0,
      "chainId": 0
    }
  ]
}