{
  "hash": "0x564000ca61f4d81e3ad8c22245bc896a99690adcbb05f02b3bafa00aea4c4295",
  "parentHash": "0x8253672be4980f9d91f33b52139639cfcc06e14d61148a718e0b3b3cad4df834",
  "number": 119334,
  "timestamp": 1440140981,
  "nonce": "0x9405042cefb4d6e2",
  "difficulty": 4415999722182,
  "gasLimit": {
    "_hex": "0x2fefd8"
  },
  "gasUsed": {
    "_hex": "0x14820"
  },
  "miner": "0xe6A7a1d47ff21B6321162AEA7C6CB457D5476Bca",
  "extraData": "0xd783010002844765746887676f312e342e32856c696e7578",
  "transactions": [
    {
      "hash": "0x0b069a6c77d5d6e2612a990b0cc7bf60ed85570ef7a8c349a01aca5aa13f3a13",
      "blockHash": "0x564000ca61f4d81e3ad8c22245bc896a99690adcbb05f02b3bafa00aea4c4295",
      "blockNumber": 119334,
      "transactionIndex": 0,
      "confirmations": null,
      "from": "0xa16E760E170A19a36e1b42357a1e6A1A206B9F39",
      "gasPrice": {
        "_hex": "0xba43b7400"
      },
      "gasLimit": {
        "_hex": "0x15f90"
      },
      "to": "0x1151790FE5F7C3113dfb07Dc3914B1916EcC8a7A",
      "value": {
        "_hex": "0x14e2d586b2f68000"
      },
      "nonce": 9,
      "data": "0x",
      "r": "0x15f60c1b8809676f990eeab3e658eae9a1ff500ca782c955bbb1740971b22af6",
      "s": "0x1f51e21173442c2d88bbfd5214d0e5cc63f90babe8ef0f8d751452bc081301c1",
      "v": 28,
      "creates": null,
      "raw": "0xf86d09850ba43b740083015f90941151790fe5f7c3113dfb07dc3914b1916ecc8a7a8814e2d586b2f68000801ca015f60c1b8809676f990eeab3e658eae9a1ff500ca782c955bbb1740971b22af6a01f51e21173442c2d88bbfd5214d0e5cc63f90babe8ef0f8d751452bc081301c1",
      "networkId": 0,
      "chainId": 0
    },
    {
      "hash": "0x24b6298ff421781c58bb8c046c1de787e52af27f23511230734f197d02e4e626",
      "blockHash": "0x564000ca61f4d81e3ad8c22245bc896a99690adcbb05f02b3bafa00aea4c4295",
      "blockNumber": 119334,
      "transactionIndex": 1,
      "confirmations": null,
      "from": "0xe6A7a1d47ff21B6321162AEA7C6CB457D5476Bca",
      "gasPrice": {
        "_hex": "0xba43b7400"
      },
      "gasLimit": {
        "_hex": "0x55f0"
      },
      "to": "0xacc8dECDFDCbed202B8632947c60487494F5D2c7",
      "value": {
        "_hex": "0x1f05093dbc4f0200"
      },
      "nonce": 6037,
      "data": "0x",
      "r": "0xeb339ab03f3d92d9c010430b2f484523588dfd9141cdeb5b5c72ee4065ce5ec1",
      "s": "0x0b60f82700b0dab0b3a45af44a6ed8067cf94a03a42c224237cf86293163c5e4",
      "v": 27,
      "creates": null,
      "raw": "0xf86e821795850ba43b74008255f094acc8decdfdcbed202b8632947c60487494f5d2c7881f05093dbc4f0200801ba0eb339ab03f3d92d9c010430b2f484523588dfd9141cdeb5b5c72ee4065ce5ec1a00b60f82700b0dab0b3a45af44a6ed8067cf94a03a42c224237cf86293163c5e4",
      "networkId": 0,
      "chainId": 0
    },
    {
      "hash": "0xa1a678db22d0c1305b1f7cb8354ebb3fc189b569ad01bbe180be5d865c0055c4",
      "blockHash": "0x564000ca61f4d81e3ad8c22245bc896a99690adcbb05f02b3bafa00aea4c4295",
      "blockNumber": 119334,
      "transactionIndex": 2,
      "confirmations": null,
      "from": "0xe6A7a1d47ff21B6321162AEA7C6CB457D5476Bca",
      "gasPrice": {
        "_hex": "0xba43b7400"
      },
      "gasLimit": {
        "_hex": "0x55f0"
      },
      "to": "0xc544B25bb91b87e380dda392687c6216b0260671",
      "value": {
        "_hex": "0x1f446d51dbe480ec"
      },
      "nonce": 6038,
      "data": "0x",
      "r": "0xf8e3b38e40696c970beb294e1c833b275e10b0209a0e7ddcd3236f2856d2ce38",
      "s": "0x2f308da5c6ae416ff76a17a1ecbc80ed2e7e8a9152d3ee084288c8c54c46ce76",
      "v": 28,
      "creates": null,
      "raw": "0xf86e821796850ba43b74008255f094c544b25bb91b87e380dda392687c6216b0260671881f446d51dbe480ec801ca0f8e3b38e40696c970beb294e1c833b275e10b0209a0e7ddcd3236f2856d2ce38a02f308da5c6ae416ff76a17a1ecbc80ed2e7e8a9152d3ee084288c8c54c46ce76",
      "networkId": 0,
      "chainId": 0
    },
    {
      "hash": "0xdf746de12ce2e9b8c4e426f8244ff627a8e1de04028a5dcf3c5ff7ecffd9c233",
      "blockHash": "0x564000ca61f4d81e3ad8c22245bc896a99690adcbb05f02b3bafa00aea4c4295",
      "blockNumber": 119334,
      "transactionIndex": 3,
      "confirmations": null,
      "from": "0xe6A7a1d47ff21B6321162AEA7C6CB457D5476Bca",
      "gasPrice": {
        "_hex": "0xba43b7400"
      },
      "gasLimit": {
        "_hex": "0x55f0"
      },
      "to": "0x985D744C50fdcB355d105EE00565A8b32BF0B08f",
      "value": {
        "_hex": "0x1f932644fcf088f8"
      },
      "nonce": 6039,
      "data": "0x",
      "r": "0xd1e599df705f679f0636bc3248bfc4ac495b45e0c69ad057a188c3bfdaff5fb0",
      "s": "0x44168a60c7f37bf547c6535cd7223dec0f5b36faea1bd9451f7f59a2a7f05447",
      "v": 28,
      "creates": null,
      "raw": "0xf86e821797850ba43b74008255f094985d744c50fdcb355d105ee00565a8b32bf0b08f881f932644fcf088f8801ca0d1e599df705f679f0636bc3248bfc4ac495b45e0c69ad057a188c3bfdaff5fb0a044168a60c7f37bf547c6535cd7223dec0f5b36faea1bd9451f7f59a2a7f05447",
      "networkId": 0,
      "chainId": 0
    }
  ]
}