{
  "hash": "0x38159cb3440b83876470782a99d0ae381e451435a41721eb1e0ca40e926f28cb",
  "parentHash": "0x96dff3f5be705af2cb55b7b22c392c5c57d2f7f07f473fb94e26edb6064a9106",
  "number": 76628,
  "timestamp": 1439423613,
  "nonce": "0x7db2354c38d8d6c3",
  "difficulty": 2242761585216,
  "gasLimit": {
    "_hex": "0x2fefd8"
  },
  "gasUsed": {
    "_hex": "0x5428"
  },
  "miner": "0x580992B51e3925e23280EfB93d3047C82f17E038",
  "extraData": "0x476574682f76312e302e312f6c696e75782f676f312e342e32",
  "transactions": [
    {
      "hash": "0x347af0aca9f0a95aab8739f407b195da169764bde2123356504d6019aa4e014f",
      "blockHash": "0x38159cb3440b83876470782a99d0ae381e451435a41721eb1e0ca40e926f28cb",
      "blockNumber": 76628,
      "transactionIndex": 0,
      "confirmations": null,
      "from": "0x858079E02403b10748B71A02195b6608Abaf6b8f",
      "gasPrice": {
        "_hex": "0xd8364fc25"
      },
      "gasLimit": {
        "_hex": "0x59d8"
      },
      "to": "0xcb2Ff4305625D98A9E13C9cA10ca47cf2345e1F8",
      "value": {
        "_hex": "0x2b746f48f0f120000"
      },
      "nonce": 7,
      "data": "0x4d696e7573313030",
      "r": "0x9bb46104b807bb2beadb3a79ee38410aec9fccbe8e5f45a5f974da17cc9a8467",
      "s": "0x1d75d57b62fc26acbf7e07220bff529bd18bca03b3b293904850af2aedc2ed26",
      "v": 27,
      "creates": null,
      "raw": "0xf87507850d8364fc258259d894cb2ff4305625d98a9e13c9ca10ca47cf2345e1f88902b746f48f0f120000884d696e75733130301ba09bb46104b807bb2beadb3a79ee38410aec9fccbe8e5f45a5f974da17cc9a8467a01d75d57b62fc26acbf7e07220bff529bd18bca03b3b293904850af2aedc2ed26",
      "networkId": 0,
      "chainId": 0
    }
  ]
}