{
  "hash": "0x5d3fbb43b18a57210d07c05a02e702fdfc005e7df01f117cd0f02ac2e4a0ab3c",
  "parentHash": "0x90bd398daf636d8ed6408d78e42ab6ea22ebdb6262d7aa02305d82189d57d85f",
  "number": 70732,
  "timestamp": 1439324708,
  "nonce": "0x21438c9da850e50a",
  "difficulty": 2135297804215,
  "gasLimit": {
    "_hex": "0x2fefd8"
  },
  "gasUsed": {
    "_hex": "0x546c"
  },
  "miner": "0x580992B51e3925e23280EfB93d3047C82f17E038",
  "extraData": "0x476574682f76312e302e312f6c696e75782f676f312e342e32",
  "transactions": [
    {
      "hash": "0x38a22c51dd4c8c325a60de30056e7c97f0d23662a5f7392852498592f1e91f59",
      "blockHash": "0x5d3fbb43b18a57210d07c05a02e702fdfc005e7df01f117cd0f02ac2e4a0ab3c",
      "blockNumber": 70732,
      "transactionIndex": 0,
      "confirmations": null,
      "from": "0x56F493A3d108aAA2d18d98922f8EFe1662CFB73D",
      "gasPrice": {
        "_hex": "0x110c8f7d8de"
      },
      "gasLimit": {
        "_hex": "0xc350"
      },
      "to": "0x2910543Af39abA0Cd09dBb2D50200b3E800A63D2",
      "value": {
        "_hex": "0x6d7340eae129ac0000"
      },
      "nonce": 0,
      "data": "0x454e4d313256515538",
      "r": "0xfe13454327ddfb8b6bdfcd2d7d26ed4d2ca256f4cfe84273736faf80841b2c3d",
      "s": "0xa225fd327f219d69ed1c67a7f6076cca633ed3c3788fc4cb4c005e300f0af103",
      "v": 27,
      "creates": null,
      "raw": "0xf87780860110c8f7d8de82c350942910543af39aba0cd09dbb2d50200b3e800a63d2896d7340eae129ac000089454e4d3132565155381ba0fe13454327ddfb8b6bdfcd2d7d26ed4d2ca256f4cfe84273736faf80841b2c3da0a225fd327f219d69ed1c67a7f6076cca633ed3c3788fc4cb4c005e300f0af103",
      "networkId": 0,
      "chainId": 0
    }
  ]
}