{
  "hash": "0xed23ecdd97ab8050d54e3f35cf84414485de17b2100248f2a35c77a65a1f4d45",
  "parentHash": "0xb09194b7e003131e5fb6571aac4d66cdf5a52cd54a3020179bfd40d8a11c7693",
  "number": 47462,
  "timestamp": 1438940862,
  "nonce": "0xed7109c6691a1b9f",
  "difficulty": 1450243764752,
  "gasLimit": {
    "_hex": "0xc0e4"
  },
  "gasUsed": {
    "_hex": "0x5208"
  },
  "miner": "0xA09503A48cDB1bb521dD4F5a921F877bC7D8DfA0",
  "extraData": "0x476574682f76312e302e312f77696e646f77732f676f312e342e32",
  "transactions": [
    {
      "hash": "0x3433c9e579aae467a46fd21d592e3073c7c9e3dafb9d01c201deec5d36f8e905",
      "blockHash": "0xed23ecdd97ab8050d54e3f35cf84414485de17b2100248f2a35c77a65a1f4d45",
      "blockNumber": 47462,
      "transactionIndex": 0,
      "confirmations": null,
      "from": "0xe6A7a1d47ff21B6321162AEA7C6CB457D5476Bca",
      "gasPrice": {
        "_hex": "0x1d02e4dba9"
      },
      "gasLimit": {
        "_hex": "0x5208"
      },
      "to": "0xa83A3BD5fBcceD1b6e82119B404769f74a89Cab4",
      "value": {
        "_hex": "0x1dd4113bd5d23c0c8"
      },
      "nonce": 154,
      "data": "0x",
      "r": "0x45816c5483907f5fc568fbbfb32c7208b50520f4b529dc9f8395ad1ce837fcc0",
      "s": "0x1d1930025b60cedbf314dc75add1b2210e6ce8a67dd629d01f15856b8688bb81",
      "v": 28,
      "creates": null,
      "raw": "0xf86e819a851d02e4dba982520894a83a3bd5fbcced1b6e82119b404769f74a89cab48901dd4113bd5d23c0c8801ca045816c5483907f5fc568fbbfb32c7208b50520f4b529dc9f8395ad1ce837fcc0a01d1930025b60cedbf314dc75add1b2210e6ce8a67dd629d01f15856b8688bb81",
      "networkId": 0,
      "chainId": 0
    }
  ]
}