{
  "hash": "0xbed2b12577616b9415569be3de30a5868b7e320bea415bbdfae3f469daf8a80a",
  "parentHash": "0x75790d3e5aaa102a1f1bce16e58d2955699608d88326a73182fed4717316a57e",
  "number": 104844,
  "timestamp": 1439876806,
  "nonce": "0xeb79ab902eda1355",
  "difficulty": 4342311890276,
  "gasLimit": {
    "_hex": "0x2fefd8"
  },
  "gasUsed": {
    "_hex": "0x5208"
  },
  "miner": "0x0eDEd3DA479d0beF8eeC92A76644D3f4E3C177f7",
  "extraData": "0x476574682f76312e302e312f6c696e75782f676f312e342e32",
  "transactions": [
    {
      "hash": "0x2cf71bf95e02c7d82782007468bc9801b1afff627cba28624538a2ff3be61262",
      "blockHash": "0xbed2b12577616b9415569be3de30a5868b7e320bea415bbdfae3f469daf8a80a",
      "blockNumber": 104844,
      "transactionIndex": 0,
      "confirmations": null,
      "from": "0xaC02beAb69f61eD095e394A1bEb83F8bF1C18d27",
      "gasPrice": {
        "_hex": "0xd3a552e80"
      },
      "gasLimit": {
        "_hex": "0x5208"
      },
      "to": "0xFBb1b73C4f0BDa4f67dcA266ce6Ef42f520fBB98",
      "value": {
        "_hex": "0x6c3ee6daee5318c00"
      },
      "nonce": 1,
      "data": "0x",
      "r": "0xcbe1cf5ee07aeb71924418d92d21da909db216914ba17af23950780b551328db",
      "s": "0x0e0707bc6b023c4037f8470e4478de8ed9b1720518d9e1a839b3c78ebc111a14",
      "v": 28,
      "creates": null,
      "raw": "0xf86d01850d3a552e8082520894fbb1b73c4f0bda4f67dca266ce6ef42f520fbb988906c3ee6daee5318c00801ca0cbe1cf5ee07aeb71924418d92d21da909db216914ba17af23950780b551328dba00e0707bc6b023c4037f8470e4478de8ed9b1720518d9e1a839b3c78ebc111a14",
      "networkId": 0,
      "chainId": 0
    }
  ]
}