{
  "hash": "0xe1a5b254423ab687975c9c77bd66759ff409013ab88a23969ebf1df215c2d986",
  "parentHash": "0x5b05b9d5da0e0092ef959f00b03ba08498b381bce5f11e4378cb46fc6dda84b9",
  "number": 96606,
  "timestamp": 1439742947,
  "nonce": "0x6492b0a33620e2a3",
  "difficulty": 3714196506447,
  "gasLimit": {
    "_hex": "0x2fefd8"
  },
  "gasUsed": {
    "_hex": "0xa410"
  },
  "miner": "0xa70a9a7040d542C632D8e0bE7c5513A8a5Bbc752",
  "extraData": "0x",
  "transactions": [
    {
      "hash": "0x7ee461e316012ab0671d0d45054f6bd6771bb8b3dfc1b4219ed03affb816edeb",
      "blockHash": "0xe1a5b254423ab687975c9c77bd66759ff409013ab88a23969ebf1df215c2d986",
      "blockNumber": 96606,
      "transactionIndex": 0,
      "confirmations": null,
      "from": "0x4c74B6F32c9680aCB5Fe0e72B7Aa95C612540A04",
      "gasPrice": {
        "_hex": "0xd644e6ce4"
      },
      "gasLimit": {
        "_hex": "0x5208"
      },
      "to": "0x32Be343B94f860124dC4fEe278FDCBD38C102D88",
      "value": {
        "_hex": "0x1a0511e80776f1000"
      },
      "nonce": 33,
      "data": "0x",
      "r": "0x019c9b7712c08c01f1d13e7e0e10a23086ba47b8dd9092ffc75472f5970fb1bd",
      "s": "0x0ac7a1eec0e297f34d21b56c0ab15c96f155649ab187ba9a0405f1c52759df18",
      "v": 27,
      "creates": null,
      "raw": "0xf86d21850d644e6ce48252089432be343b94f860124dc4fee278fdcbd38c102d888901a0511e80776f1000801ba0019c9b7712c08c01f1d13e7e0e10a23086ba47b8dd9092ffc75472f5970fb1bda00ac7a1eec0e297f34d21b56c0ab15c96f155649ab187ba9a0405f1c52759df18",
      "networkId": 0,
      "chainId": 0
    },
    {
      "hash": "0x5b927e1c1e5cc329408f1ce9e477b341612037c8f7a22f3d8099e2425ff804c0",
      "blockHash": "0xe1a5b254423ab687975c9c77bd66759ff409013ab88a23969ebf1df215c2d986",
      "blockNumber": 96606,
      "transactionIndex": 1,
      "confirmations": null,
      "from": "0x4D67f4F0Db45b3B5a3424B39ed8d972F710381D5",
      "gasPrice": {
        "_hex": "0xd644e6ce4"
      },
      "gasLimit": {
        "_hex": "0x5208"
      },
      "to": "0x32Be343B94f860124dC4fEe278FDCBD38C102D88",
      "value": {
        "_hex": "0x33f434215b79d2000"
      },
      "nonce": 11,
      "data": "0x",
      "r": "0x656b80f742e74dafe73a1feda96a149c2bc5972a03c8b0588f91b9f4338292c1",
      "s": "0x58c82fd8085ec3a86c7c592de5f81ed1141c790f9d60376ae5c004710158a287",
      "v": 27,
      "creates": null,
      "raw": "0xf86d0b850d644e6ce48252089432be343b94f860124dc4fee278fdcbd38c102d8889033f434215b79d2000801ba0656b80f742e74dafe73a1feda96a149c2bc5972a03c8b0588f91b9f4338292c1a058c82fd8085ec3a86c7c592de5f81ed1141c790f9d60376ae5c004710158a287",
      "networkId": 0,
      "chainId": 0
    }
  ]
}