{
  "hash": "0x7366c613776b17027c3f09075ac1bc985aae4aa617654dfe4ace5c23b0ecdf72",
  "parentHash": "0x8177f14df7374ca9aaa9c2943c4afa28d68c7c38292dbea902c35111ab670719",
  "number": 63026,
  "timestamp": 1439197874,
  "nonce": "0x8775540ce2a4cfb1",
  "difficulty": 1797996832627,
  "gasLimit": {
    "_hex": "0x2fefd8"
  },
  "gasUsed": {
    "_hex": "0x5208"
  },
  "miner": "0x52Dc504a422f0E2A9e7632A34a50f1a82F8224c7",
  "extraData": "0x476574682f76312e302e312f6c696e75782f676f312e342e32",
  "transactions": [
    {
      "hash": "0x5818e517c39f79f4e496b9b8161e5796333128ec19f4957b43071e7245371b09",
      "blockHash": "0x7366c613776b17027c3f09075ac1bc985aae4aa617654dfe4ace5c23b0ecdf72",
      "blockNumber": 63026,
      "transactionIndex": 0,
      "confirmations": null,
      "from": "0x87898CE53471043FcCa0a2aF4E1dC6d8B3fCf607",
      "gasPrice": {
        "_hex": "0xdf6e0c72e"
      },
      "gasLimit": {
        "_hex": "0x5208"
      },
      "to": "0xBFdD9820a04283b289957956353b5F3C1F665EcF",
      "value": {
        "_hex": "0x1158e460913d00000"
      },
      "nonce": 11,
      "data": "0x",
      "r": "0xa66d8e99c0c4792477c88cd15d533b34fdeaf7e7869b1c9784835ac2d8b49b6c",
      "s": "0x68ad726e539b7f358ae3ecf4284073317f4fc5799b99a847a73b958125e1e596",
      "v": 27,
      "creates": null,
      "raw": "0xf86d0b850df6e0c72e82520894bfdd9820a04283b289957956353b5f3c1f665ecf8901158e460913d00000801ba0a66d8e99c0c4792477c88cd15d533b34fdeaf7e7869b1c9784835ac2d8b49b6ca068ad726e539b7f358ae3ecf4284073317f4fc5799b99a847a73b958125e1e596",
      "networkId": 0,
      "chainId": 0
    }
  ]
}