{
  "hash": "0x33803fbdff84359db940167fefb6cf1d8af996f4feb27c5b9de1dbc0dac56ac7",
  "parentHash": "0xda83785fe9bac2c450fc721fbaf93fe23814292d54bf1c21d238604c9a29087f",
  "number": 107037,
  "timestamp": 1439914882,
  "nonce": "0xf948737207f0ecd6",
  "difficulty": 4450639615292,
  "gasLimit": {
    "_hex": "0x2fefd8"
  },
  "gasUsed": {
    "_hex": "0xa410"
  },
  "miner": "0xe6A7a1d47ff21B6321162AEA7C6CB457D5476Bca",
  "extraData": "0x476574682f76312e302e312d38326566323666362f6c696e75782f676f312e34",
  "transactions": [
    {
      "hash": "0x1e1ada90a4ec5d1826de5547ac665995ccf1d99b01ce5fe40a0e30030bbe1f34",
      "blockHash": "0x33803fbdff84359db940167fefb6cf1d8af996f4feb27c5b9de1dbc0dac56ac7",
      "blockNumber": 107037,
      "transactionIndex": 0,
      "confirmations": null,
      "from": "0x3a35269a1cF41344F2288e9D11bA854991112015",
      "gasPrice": {
        "_hex": "0xda11a0b7c"
      },
      "gasLimit": {
        "_hex": "0x15f90"
      },
      "to": "0xeAf4D4BF5C091A258bf12a1B42fa3b93c5eE8098",
      "value": {
        "_hex": "0x1ba5017228940000"
      },
      "nonce": 10,
      "data": "0x",
      "r": "0x25518c3e9362b67c98cb3a1e9a9a06aeec6ab9ed72fd5aa99d538edf298f4685",
      "s": "0x0b9b9e1953711b6b6cd41d4be8d26e7c9969dad2f9109e13cccf2ee322f0d5fc",
      "v": 27,
      "creates": null,
      "raw": "0xf86d0a850da11a0b7c83015f9094eaf4d4bf5c091a258bf12a1b42fa3b93c5ee8098881ba5017228940000801ba025518c3e9362b67c98cb3a1e9a9a06aeec6ab9ed72fd5aa99d538edf298f4685a00b9b9e1953711b6b6cd41d4be8d26e7c9969dad2f9109e13cccf2ee322f0d5fc",
      "networkId": 0,
      "chainId": 0
    },
    {
      "hash": "0xcd17804fa95594a7be74fee4c87fc8cbee9d46df2d61d8ccbb17d89938b2710e",
      "blockHash": "0x33803fbdff84359db940167fefb6cf1d8af996f4feb27c5b9de1dbc0dac56ac7",
      "blockNumber": 107037,
      "transactionIndex": 1,
      "confirmations": null,
      "from": "0x2910543Af39abA0Cd09dBb2D50200b3E800A63D2",
      "gasPrice": {
        "_hex": "0xce451104a"
      },
      "gasLimit": {
        "_hex": "0x5208"
      },
      "to": "0x4c225a03584D0D8E46DBa7F48ea5dBd7642011DB",
      "value": {
        "_hex": "0x2b5d1eb9d79a78000"
      },
      "nonce": 1041,
      "data": "0x",
      "r": "0x3ae69ed2b833ae525aafb71b19b3038572fbdf1fa6f8a38be554e29b6cb673e5",
      "s": "0x2bc88cc85b58e784690ae8279f562d09e6b31a1dbdc074ce9e1937364c86d851",
      "v": 27,
      "creates": null,
      "raw": "0xf86f820411850ce451104a825208944c225a03584d0d8e46dba7f48ea5dbd7642011db8902b5d1eb9d79a78000801ba03ae69ed2b833ae525aafb71b19b3038572fbdf1fa6f8a38be554e29b6cb673e5a02bc88cc85b58e784690ae8279f562d09e6b31a1dbdc074ce9e1937364c86d851",
      "networkId": 0,
      "chainId": 0
    }
  ]
}