{
  "hash": "0x89f430d74b007a4b533fefe059235a6f2c6fd37a34046bea814a96a9e49e7d94",
  "parentHash": "0x3bc8bb61af3f3013a0c273c5b372c994335958635009c82e8e5f38b267afa452",
  "number": 70873,
  "timestamp": 1439326751,
  "nonce": "0xa9b1f705b432a148",
  "difficulty": 2153060023720,
  "gasLimit": {
    "_hex": "0x2fefd8"
  },
  "gasUsed": {
    "_hex": "0x5208"
  },
  "miner": "0xf8E0CA3Ed80bd541b94BEdCf259e8CF2141A9523",
  "extraData": "0x476574682f76312e302e312f77696e646f77732f676f312e342e32",
  "transactions": [
    {
      "hash": "0x774e625af1f8e13cf18bfb8e2cee414b8e1422494a4c58375b34b5a535805a36",
      "blockHash": "0x89f430d74b007a4b533fefe059235a6f2c6fd37a34046bea814a96a9e49e7d94",
      "blockNumber": 70873,
      "transactionIndex": 0,
      "confirmations": null,
      "from": "0x2910543Af39abA0Cd09dBb2D50200b3E800A63D2",
      "gasPrice": {
        "_hex": "0xdf2210d84"
      },
      "gasLimit": {
        "_hex": "0x5208"
      },
      "to": "0x0cA19A53a3256482A89770FC1daFC7630717F201",
      "value": {
        "_hex": "0xdcef33a6f838000"
      },
      "nonce": 257,
      "data": "0x",
      "r": "0x6eb6f9926ed76413eab0a7d774bb2380a40b8254dbdbfc15e9ac39a1c76869ae",
      "s": "0x073836566eaeeafdbe5aeba4761400c60af634599ff9eac7f10625e5a8f95bba",
      "v": 28,
      "creates": null,
      "raw": "0xf86e820101850df2210d84825208940ca19a53a3256482a89770fc1dafc7630717f201880dcef33a6f838000801ca06eb6f9926ed76413eab0a7d774bb2380a40b8254dbdbfc15e9ac39a1c76869aea0073836566eaeeafdbe5aeba4761400c60af634599ff9eac7f10625e5a8f95bba",
      "networkId": 0,
      "chainId": 0
    }
  ]
}