{
  "hash": "0x39ecaeada746813dfdb41bba8ffa6f393d9a6cd64d0527b8e1888c01e4d46906",
  "parentHash": "0xb08cb64590c301b478ccd5531e2d565165f7754033591f531351adb133ac8bb3",
  "number": 64780,
  "timestamp": 1439226109,
  "nonce": "0xa6c095c37faff612",
  "difficulty": 1894961383976,
  "gasLimit": {
    "_hex": "0x2fefd8"
  },
  "gasUsed": {
    "_hex": "0xbe6c"
  },
  "miner": "0xf927a40C8B7F6E07c5af7FA2155B4864a4112B13",
  "extraData": "0x",
  "transactions": [
    {
      "hash": "0xdbbcc66ecad2d7b7ab6c08eaa36b06ebbf063132d1549edcb8808b2fc0192862",
      "blockHash": "0x39ecaeada746813dfdb41bba8ffa6f393d9a6cd64d0527b8e1888c01e4d46906",
      "blockNumber": 64780,
      "transactionIndex": 0,
      "confirmations": null,
      "from": "0xDE8A1d41eb3a2D7ABbF00df1A06976a4FAb3eB5b",
      "gasPrice": {
        "_hex": "0xba43b7400"
      },
      "gasLimit": {
        "_hex": "0x15f90"
      },
      "to": "0x793AE8C1b1a160BFc07BFB0d04F85eab1A71F4f2",
      "value": {
        "_hex": "0x0"
      },
      "nonce": 0,
      "data": "0x3ba15036",
      "r": "0xce3c79cb36cf2074a6d3d5fbb4af698e1a8f51bad9dbafa34315bc5a20977589",
      "s": "0x2495be5d1086233f96204fe09b4ac8c194908d6a6238d2e160e925b524338313",
      "v": 28,
      "creates": null,
      "raw": "0xf86980850ba43b740083015f9094793ae8c1b1a160bfc07bfb0d04f85eab1a71f4f280843ba150361ca0ce3c79cb36cf2074a6d3d5fbb4af698e1a8f51bad9dbafa34315bc5a20977589a02495be5d1086233f96204fe09b4ac8c194908d6a6238d2e160e925b524338313",
      "networkId": 0,
      "chainId": 0
    }
  ]
}