{
  "hash": "0x6523c46864d29291bde25aafe5ce9b5a3b8cb1503d6c52a14abbd0a6e674c317",
  "parentHash": "0x7ee9ab5b307c44e35f24d5e9864f0f348827fbf5aee2f542dcc430f001b32d5a",
  "number": 64879,
  "timestamp": 1439227611,
  "nonce": "0x1810f578abbaf13b",
  "difficulty": 1910733960317,
  "gasLimit": {
    "_hex": "0x2fefd8"
  },
  "gasUsed": {
    "_hex": "0x5208"
  },
  "miner": "0xe6A7a1d47ff21B6321162AEA7C6CB457D5476Bca",
  "extraData": "0x476574682f76312e302e312f6c696e75782f676f312e342e32",
  "transactions": [
    {
      "hash": "0xc0974875c6170b8c8497c63c8c75812f33faf3e5bcb8d2e23467d75e4fba78ea",
      "blockHash": "0x6523c46864d29291bde25aafe5ce9b5a3b8cb1503d6c52a14abbd0a6e674c317",
      "blockNumber": 64879,
      "transactionIndex": 0,
      "confirmations": null,
      "from": "0x6747f922385c9a6F9cfDf095F34345257DD597bE",
      "gasPrice": {
        "_hex": "0xba43b7400"
      },
      "gasLimit": {
        "_hex": "0x5208"
      },
      "to": "0xDFB105F0bcEc3e24CcDA8cf3895C5bd89eCD2E76",
      "value": {
        "_hex": "0x1fcbfa42bd6000"
      },
      "nonce": 22,
      "data": "0x",
      "r": "0x1af48fa1463d0538a4258b4950f0f1f80957bd20db395e9d349997860f3140d8",
      "s": "0x01828f491f79ee9438ed555b1ff3cfe1885e7f4a872f1391ef6a851650930d5d",
      "v": 28,
      "creates": null,
      "raw": "0xf86b16850ba43b740082520894dfb105f0bcec3e24ccda8cf3895c5bd89ecd2e76871fcbfa42bd6000801ca01af48fa1463d0538a4258b4950f0f1f80957bd20db395e9d349997860f3140d8a001828f491f79ee9438ed555b1ff3cfe1885e7f4a872f1391ef6a851650930d5d",
      "networkId": 0,
      "chainId": 0
    }
  ]
}