{
  "hash": "0xe9dc48d0f7abf951f462fb554860bd4643e2f8580c1b7acb353ed7063fa3536b",
  "parentHash": "0x26ee8e8052fe11f323a760f04fcffa796641d189a0686b91142aa6c684d1727a",
  "number": 71704,
  "timestamp": 1439340454,
  "nonce": "0x94411e4459147121",
  "difficulty": 2175035402084,
  "gasLimit": {
    "_hex": "0x2fefd8"
  },
  "gasUsed": {
    "_hex": "0x5208"
  },
  "miner": "0xe6A7a1d47ff21B6321162AEA7C6CB457D5476Bca",
  "extraData": "0x476574682f76312e302e312d38326566323666362f6c696e75782f676f312e34",
  "transactions": [
    {
      "hash": "0xfb5b0d6da7536ea9e279fb6de0d8ceb0277b4fe0e98b1198f41db4efa6d84920",
      "blockHash": "0xe9dc48d0f7abf951f462fb554860bd4643e2f8580c1b7acb353ed7063fa3536b",
      "blockNumber": 71704,
      "transactionIndex": 0,
      "confirmations": null,
      "from": "0x32Be343B94f860124dC4fEe278FDCBD38C102D88",
      "gasPrice": {
        "_hex": "0xd4afa51c3"
      },
      "gasLimit": {
        "_hex": "0x5208"
      },
      "to": "0x55e8a0a88eF14b59dD914fBeECc9376A6a618624",
      "value": {
        "_hex": "0xad78ebc5ac6200000"
      },
      "nonce": 272,
      "data": "0x",
      "r": "0x75df7a8bebdf918017a15184595b92a0792d4d2397d5afa2359f5393a673e171",
      "s": "0x770b31c63c2fe65ef86ecd52737f906759d476344238c9090f2add88ce4b219f",
      "v": 27,
      "creates": null,
      "raw": "0xf86f820110850d4afa51c38252089455e8a0a88ef14b59dd914fbeecc9376a6a618624890ad78ebc5ac6200000801ba075df7a8bebdf918017a15184595b92a0792d4d2397d5afa2359f5393a673e171a0770b31c63c2fe65ef86ecd52737f906759d476344238c9090f2add88ce4b219f",
      "networkId": 0,
      "chainId": 0
    }
  ]
}