{
  "hash": "0x5841dd28357bb36cec297abf941be7f7ff5888fe37ce93638066d73024ce104e",
  "parentHash": "0x448b969bb47c769844d7005e8b4f36ff8d145a033bd8eacec9554c976488fb76",
  "number": 80549,
  "timestamp": 1439487117,
  "nonce": "0x1863d55c150909c5",
  "difficulty": 2422687018116,
  "gasLimit": {
    "_hex": "0x2fefd8"
  },
  "gasUsed": {
    "_hex": "0x1b4ad"
  },
  "miner": "0xe6A7a1d47ff21B6321162AEA7C6CB457D5476Bca",
  "extraData": "0x476574682f76312e302e312d38326566323666362f6c696e75782f676f312e34",
  "transactions": [
    {
      "hash": "0xffe76af663bd741ebf6d42a9171c34ec5d115aca754b9c0addd0546e628ea63e",
      "blockHash": "0x5841dd28357bb36cec297abf941be7f7ff5888fe37ce93638066d73024ce104e",
      "blockNumber": 80549,
      "transactionIndex": 0,
      "confirmations": null,
      "from": "0x87C5B5874A18B4306DF8a752a6C8cc3E82daFc19",
      "gasPrice": {
        "_hex": "0x1075ade962c"
      },
      "gasLimit": {
        "_hex": "0x493e0"
      },
      "to": "0xC4c51de1AbF5D60DBd329eC0F999Fd8f021ae9fC",
      "value": {
        "_hex": "0x37cd81f9b06f654"
      },
      "nonce": 241,
      "data": "0x8d2161860000000000000000000000000000000000000000000000000000000000000006d3d96ceed0cfca4794c2a5a3d3aeefe69da0a2a669e66a5651f30b64831c3db0",
      "r": "0x578c965be47965cce47a6fbd4a6209d1645bee19c4a5b06337af0562e4b1f606",
      "s": "0x51efeba8c6e79a823d5d69495ec605e91b7cdb961a8b560c10b4680d4fc33013",
      "v": 28,
      "creates": null,
      "raw": "0xf8b481f18601075ade962c830493e094c4c51de1abf5d60dbd329ec0f999fd8f021ae9fc88037cd81f9b06f654b8448d2161860000000000000000000000000000000000000000000000000000000000000006d3d96ceed0cfca4794c2a5a3d3aeefe69da0a2a669e66a5651f30b64831c3db01ca0578c965be47965cce47a6fbd4a6209d1645bee19c4a5b06337af0562e4b1f606a051efeba8c6e79a823d5d69495ec605e91b7cdb961a8b560c10b4680d4fc33013",
      "networkId": 0,
      "chainId": 0
    }
  ]
}