{
  "hash": "0x8ef2debe0abe20a5fb5cb14bbb91a9891cc697083fa70c5c5824bb3c2c6c5261",
  "parentHash": "0x841b6469100996832d83b81cac73a039d76211ed13e75173cb8e3cde19dbfbd7",
  "number": 88255,
  "timestamp": 1439605216,
  "nonce": "0x5ce1ec83b66d1cf3",
  "difficulty": 3212860888608,
  "gasLimit": {
    "_hex": "0x2fefd8"
  },
  "gasUsed": {
    "_hex": "0xf618"
  },
  "miner": "0xbb7B8287f3F0a933474a79eAe42CBCa977791171",
  "extraData": "0x476574682f4c5649562f76312e302e312f6c696e75782f676f312e342e32",
  "transactions": [
    {
      "hash": "0x021f87c7b21dccb79a1d01a01f898eae0b1f35f708a184ed2796a6f4c9fb05b1",
      "blockHash": "0x8ef2debe0abe20a5fb5cb14bbb91a9891cc697083fa70c5c5824bb3c2c6c5261",
      "blockNumber": 88255,
      "transactionIndex": 0,
      "confirmations": null,
      "from": "0x2910543Af39abA0Cd09dBb2D50200b3E800A63D2",
      "gasPrice": {
        "_hex": "0xdfb027654"
      },
      "gasLimit": {
        "_hex": "0x5208"
      },
      "to": "0x3120869dfC5b2e9D636fd0BFA6717C51146d5F7a",
      "value": {
        "_hex": "0xa4cb5d5dd04578000"
      },
      "nonce": 725,
      "data": "0x",
      "r": "0x3f2305b2a27260d30b4eb2653ca91d01f305e2210a8b1f8a4a60ba9cc5e779c1",
      "s": "0x5c642de72d2db63d1c9d830ce099d80c921fdaeed0fbfa5aa1c3a46f6750add7",
      "v": 28,
      "creates": null,
      "raw": "0xf86f8202d5850dfb027654825208943120869dfc5b2e9d636fd0bfa6717c51146d5f7a890a4cb5d5dd04578000801ca03f2305b2a27260d30b4eb2653ca91d01f305e2210a8b1f8a4a60ba9cc5e779c1a05c642de72d2db63d1c9d830ce099d80c921fdaeed0fbfa5aa1c3a46f6750add7",
      "networkId": 0,
      "chainId": 0
    },
    {
      "hash": "0x594a391f1217456285e49905188ee6ff1bf64669cf3806a067d852b226ab5d83",
      "blockHash": "0x8ef2debe0abe20a5fb5cb14bbb91a9891cc697083fa70c5c5824bb3c2c6c5261",
      "blockNumber": 88255,
      "transactionIndex": 1,
      "confirmations": null,
      "from": "0xb04a4F5D56cDA604d99A2b8023f307CCF21999eF",
      "gasPrice": {
        "_hex": "0xd9b692944"
      },
      "gasLimit": {
        "_hex": "0x15f90"
      },
      "to": "0xbfaD6AD0969573860D304312400E078277821a4d",
      "value": {
        "_hex": "0x7ce66c50e2840000"
      },
      "nonce": 1,
      "data": "0x",
      "r": "0x8f57bd251d04b7eb329c01f320e623d6019c082ac3d727156cb5bd654b816d33",
      "s": "0x3d9e5887933b98fb0b1d81fd1e7e6b144e4475c7315f3f4695d2ad6c0d078e9c",
      "v": 28,
      "creates": null,
      "raw": "0xf86d01850d9b69294483015f9094bfad6ad0969573860d304312400e078277821a4d887ce66c50e2840000801ca08f57bd251d04b7eb329c01f320e623d6019c082ac3d727156cb5bd654b816d33a03d9e5887933b98fb0b1d81fd1e7e6b144e4475c7315f3f4695d2ad6c0d078e9c",
      "networkId": 0,
      "chainId": 0
    },
    {
      "hash": "0x266b591d217811d505b40cbda5e8693a653197d89965e362b6edb0d33e456a7d",
      "blockHash": "0x8ef2debe0abe20a5fb5cb14bbb91a9891cc697083fa70c5c5824bb3c2c6c5261",
      "blockNumber": 88255,
      "transactionIndex": 2,
      "confirmations": null,
      "from": "0x8eB3747b8397C48BC29fd5Df6765AbCEfbDffFCA",
      "gasPrice": {
        "_hex": "0xd11fde7f0"
      },
      "gasLimit": {
        "_hex": "0x15f90"
      },
      "to": "0x6Cf387a1C50cF6b09634E0d24fDAa2c06Be0ea95",
      "value": {
        "_hex": "0xe92596fd6290000"
      },
      "nonce": 0,
      "data": "0x",
      "r": "0xe94c844ed5bc616b00975fbc5e5b069482810ac5e0d8e693a6a5698970a85e3d",
      "s": "0x26f37ee0e6b9e3d3c8714f987093c1afb7dd3a5c415e6e0673ae7e2fa1e6c42e",
      "v": 28,
      "creates": null,
      "raw": "0xf86d80850d11fde7f083015f90946cf387a1c50cf6b09634e0d24fdaa2c06be0ea95880e92596fd6290000801ca0e94c844ed5bc616b00975fbc5e5b069482810ac5e0d8e693a6a5698970a85e3da026f37ee0e6b9e3d3c8714f987093c1afb7dd3a5c415e6e0673ae7e2fa1e6c42e",
      "networkId": 0,
      "chainId": 0
    }
  ]
}