{
  "hash": "0x34f701b7eb245ee22718060222213ad30553f7131479ff683fd84e642b6d543c",
  "parentHash": "0x87de59c65e4390c7b5be26dbc5f3a6a6e8f0886052faf79176b533de287091cc",
  "number": 119106,
  "timestamp": 1440136881,
  "nonce": "0xacf8a46dc3731139",
  "difficulty": 4416119749458,
  "gasLimit": {
    "_hex": "0x2fefd8"
  },
  "gasUsed": {
    "_hex": "0x5208"
  },
  "miner": "0x8f6E4E97770BD1F1C5CDBd294213B28657C28690",
  "extraData": "0x476574682f76312e302e322f6c696e75782f676f312e342e32",
  "transactions": [
    {
      "hash": "0x24208914e65ac7003cbbaa030031f9519b156b994ea8bbb285b42ad4dd488ece",
      "blockHash": "0x34f701b7eb245ee22718060222213ad30553f7131479ff683fd84e642b6d543c",
      "blockNumber": 119106,
      "transactionIndex": 0,
      "confirmations": null,
      "from": "0x32Be343B94f860124dC4fEe278FDCBD38C102D88",
      "gasPrice": {
        "_hex": "0xba43b7400"
      },
      "gasLimit": {
        "_hex": "0x5208"
      },
      "to": "0x02020D22dCF88f5eDd66B382D7da019F161fB7e3",
      "value": {
        "_hex": "0x19bf323e533a4f0000"
      },
      "nonce": 1504,
      "data": "0x",
      "r": "0x113a42b91eb364f7f97e9f6ada9bcadafced11bb5aa08ae60943aa05fb73c9e4",
      "s": "0x2016750ca4e5039a5e10025aebe0a3ef725a6aa816605bc9655ccf405f94d115",
      "v": 27,
      "creates": null,
      "raw": "0xf86f8205e0850ba43b74008252089402020d22dcf88f5edd66b382d7da019f161fb7e38919bf323e533a4f0000801ba0113a42b91eb364f7f97e9f6ada9bcadafced11bb5aa08ae60943aa05fb73c9e4a02016750ca4e5039a5e10025aebe0a3ef725a6aa816605bc9655ccf405f94d115",
      "networkId": 0,
      "chainId": 0
    }
  ]
}