{
  "hash": "0xe5b3dde62a1eae3712232f758aaa8ee1af5ff854ff734719ad50e1085621ab5e",
  "parentHash": "0x46d42856270d025f2f550a1095e2cff99d28455862dd35b05754ec830e00b730",
  "number": 46795,
  "timestamp": 1438929280,
  "nonce": "0x3757c2ae397661bf",
  "difficulty": 1461020826842,
  "gasLimit": {
    "_hex": "0x797f"
  },
  "gasUsed": {
    "_hex": "0x5208"
  },
  "miner": "0x785ffdDd5cE55c6DF963f345e68d3F2024E5Acb1",
  "extraData": "0x476574682f4d69676e6f7474652f76312e302e312f6c696e75782f676f312e34",
  "transactions": [
    {
      "hash": "0x106fb0570a8d13079cfe95e95fc8ef623fb2cecf9751f7004181fce8df077020",
      "blockHash": "0xe5b3dde62a1eae3712232f758aaa8ee1af5ff854ff734719ad50e1085621ab5e",
      "blockNumber": 46795,
      "transactionIndex": 0,
      "confirmations": null,
      "from": "0xe64D681b0eBCa2997D5f35e72EbC7777973299D7",
      "gasPrice": {
        "_hex": "0xffb00349e4"
      },
      "gasLimit": {
        "_hex": "0x78b4"
      },
      "to": "0x931Ac2444b057f80A06A4FB627f26FFA5CE41184",
      "value": {
        "_hex": "0xad78ebc5ac6200000"
      },
      "nonce": 1,
      "data": "0x",
      "r": "0x2afaefb4161c48894336f8d92ba6fcdd7de6db7f7f30989b720d75071791c04c",
      "s": "0x748cca04ef276375d7b2de3f903e7875c7167d7b46706b9f8d040a72058c7646",
      "v": 27,
      "creates": null,
      "raw": "0xf86d0185ffb00349e48278b494931ac2444b057f80a06a4fb627f26ffa5ce41184890ad78ebc5ac6200000801ba02afaefb4161c48894336f8d92ba6fcdd7de6db7f7f30989b720d75071791c04ca0748cca04ef276375d7b2de3f903e7875c7167d7b46706b9f8d040a72058c7646",
      "networkId": 0,
      "chainId": 0
    }
  ]
}