{
  "hash": "0xce7eb8640ef82ebbd9bc84bf72ba1540f8a58dffeccd31cc4ca40d38fe6fd10d",
  "parentHash": "0x6a0383ade0ad7c27cb0cedb25cbf4aad27c4edf0a395c5937ffb051264e6c003",
  "number": 52775,
  "timestamp": 1439027130,
  "nonce": "0xc7d6f78dfb701736",
  "difficulty": 1569391786114,
  "gasLimit": {
    "_hex": "0x198a13"
  },
  "gasUsed": {
    "_hex": "0x5208"
  },
  "miner": "0x3222BA3F3e79eA0e31467EEE7639B57923558cCD",
  "extraData": "0x",
  "transactions": [
    {
      "hash": "0x38682fae50a7294f1ea208ae3aff574a5c3f687bc1378ee73a8e968216636a6d",
      "blockHash": "0xce7eb8640ef82ebbd9bc84bf72ba1540f8a58dffeccd31cc4ca40d38fe6fd10d",
      "blockNumber": 52775,
      "transactionIndex": 0,
      "confirmations": null,
      "from": "0xf6a8635757c5e8C134d20D028cf778cf8609E46A",
      "gasPrice": {
        "_hex": "0xcf579b756"
      },
      "gasLimit": {
        "_hex": "0x15f90"
      },
      "to": "0x262A8bFD7D9dC5dD3Ad78161B6Bb560824373655",
      "value": {
        "_hex": "0x59962a0dfc2e1c8"
      },
      "nonce": 2,
      "data": "0x",
      "r": "0x72ccc42392aa64195ef11adba6a477c0450511e4ffb612db91e209caf0cb9f5e",
      "s": "0x7883d8ae42ab74872f548bf859485eab45ebbf960ea45e3dbc261f3f7a79d344",
      "v": 28,
      "creates": null,
      "raw": "0xf86d02850cf579b75683015f9094262a8bfd7d9dc5dd3ad78161b6bb56082437365588059962a0dfc2e1c8801ca072ccc42392aa64195ef11adba6a477c0450511e4ffb612db91e209caf0cb9f5ea07883d8ae42ab74872f548bf859485eab45ebbf960ea45e3dbc261f3f7a79d344",
      "networkId": 0,
      "chainId": 0
    }
  ]
}