{
  "hash": "0xca8ffaf7cfe3a84d65e7061a999feb88f9799add90b35e4959c6c4708e2be9a4",
  "parentHash": "0x8d0b5a0d597203a03e7fa2009b334c04305710c8d4f7e9fc74415f632437c45c",
  "number": 100098,
  "timestamp": 1439800581,
  "nonce": "0x15438a0a36ebff10",
  "difficulty": 3849252246178,
  "gasLimit": {
    "_hex": "0x2fefd8"
  },
  "gasUsed": {
    "_hex": "0xf618"
  },
  "miner": "0x77EC9ad4A7E9418774C29415CAaF4Ee0da96eF64",
  "extraData": "0x",
  "transactions": [
    {
      "hash": "0x1e8285d6a7198cc720b0793798575173ca87fa126e4a2f4b25bce1f3d7d48a55",
      "blockHash": "0xca8ffaf7cfe3a84d65e7061a999feb88f9799add90b35e4959c6c4708e2be9a4",
      "blockNumber": 100098,
      "transactionIndex": 0,
      "confirmations": null,
      "from": "0xFD7c9117BbEB649d9b37B3D3C9917f7c12f526B3",
      "gasPrice": {
        "_hex": "0xd8b3fbee6"
      },
      "gasLimit": {
        "_hex": "0x5208"
      },
      "to": "0x32Be343B94f860124dC4fEe278FDCBD38C102D88",
      "value": {
        "_hex": "0x184bfbbcd1bb040000"
      },
      "nonce": 28,
      "data": "0x",
      "r": "0xbce24a0d782f650a0ea4722cdbfcec1e5ed1173ecf69c1d950e32ce417c05a7c",
      "s": "0x7f783bee94bb64fbaae2b6f86bb2c9c3f956dcc75026d1d1374bcb181baf9ac6",
      "v": 27,
      "creates": null,
      "raw": "0xf86d1c850d8b3fbee68252089432be343b94f860124dc4fee278fdcbd38c102d8889184bfbbcd1bb040000801ba0bce24a0d782f650a0ea4722cdbfcec1e5ed1173ecf69c1d950e32ce417c05a7ca07f783bee94bb64fbaae2b6f86bb2c9c3f956dcc75026d1d1374bcb181baf9ac6",
      "networkId": 0,
      "chainId": 0
    },
    {
      "hash": "0xabe77de7d36a5639bdd295d82dc8ef3a00f2d73e3e19450bda0c70b936adc2d3",
      "blockHash": "0xca8ffaf7cfe3a84d65e7061a999feb88f9799add90b35e4959c6c4708e2be9a4",
      "blockNumber": 100098,
      "transactionIndex": 1,
      "confirmations": null,
      "from": "0xD9a9A8ec148D2B0F7Cd8B2700013A9AA5cf89910",
      "gasPrice": {
        "_hex": "0xd8b3fbee6"
      },
      "gasLimit": {
        "_hex": "0x5208"
      },
      "to": "0x32Be343B94f860124dC4fEe278FDCBD38C102D88",
      "value": {
        "_hex": "0x10529991d8479c000"
      },
      "nonce": 6,
      "data": "0x",
      "r": "0x7e5c8576276af780cd465357fec40e83097ab9830f0537bd9d4d4f73f3a235fb",
      "s": "0x672dd32efa943d7d757b78e6d586dd644c5c8594834e47217ddcaa5e2d4f6910",
      "v": 28,
      "creates": null,
      "raw": "0xf86d06850d8b3fbee68252089432be343b94f860124dc4fee278fdcbd38c102d8889010529991d8479c000801ca07e5c8576276af780cd465357fec40e83097ab9830f0537bd9d4d4f73f3a235fba0672dd32efa943d7d757b78e6d586dd644c5c8594834e47217ddcaa5e2d4f6910",
      "networkId": 0,
      "chainId": 0
    },
    {
      "hash": "0xd46315c80c133e49cb0fe589ef4adc1b6039bf6ed0de89822b2810c3a294bec9",
      "blockHash": "0xca8ffaf7cfe3a84d65e7061a999feb88f9799add90b35e4959c6c4708e2be9a4",
      "blockNumber": 100098,
      "transactionIndex": 2,
      "confirmations": null,
      "from": "0x2910543Af39abA0Cd09dBb2D50200b3E800A63D2",
      "gasPrice": {
        "_hex": "0xd35e1b0eb"
      },
      "gasLimit": {
        "_hex": "0x5208"
      },
      "to": "0x3968A5606ac8747766AE89A61C3265011023673c",
      "value": {
        "_hex": "0x7fc5e0609af3d38000"
      },
      "nonce": 948,
      "data": "0x",
      "r": "0x913489d383394f9dafa7d82473e07fe2157c052bd0633309fed68ba8dcaf7363",
      "s": "0x165972d3259e41d5d26f4d2c6cf0070c7a8f5f1dd31914bba64e477af4ff0f5d",
      "v": 28,
      "creates": null,
      "raw": "0xf86f8203b4850d35e1b0eb825208943968a5606ac8747766ae89a61c3265011023673c897fc5e0609af3d38000801ca0913489d383394f9dafa7d82473e07fe2157c052bd0633309fed68ba8dcaf7363a0165972d3259e41d5d26f4d2c6cf0070c7a8f5f1dd31914bba64e477af4ff0f5d",
      "networkId": 0,
      "chainId": 0
    }
  ]
}