{
  "hash": "0x71fa7fc9ff1730e46a2d9a6638005058a422a76d0627f9530e212b648ca53b67",
  "parentHash": "0x3c1807036108df658a1a5a1c69345f98be1fd097294b995d032cb6f6641d01c1",
  "number": 101700,
  "timestamp": 1439826843,
  "nonce": "0x439eedb480c9fb6c",
  "difficulty": 3871133312664,
  "gasLimit": {
    "_hex": "0x2fefd8"
  },
  "gasUsed": {
    "_hex": "0x5618"
  },
  "miner": "0xe6A7a1d47ff21B6321162AEA7C6CB457D5476Bca",
  "extraData": "0x476574682f76312e302e312d38326566323666362f6c696e75782f676f312e34",
  "transactions": [
    {
      "hash": "0xc7cdb0d8927e974d01808161255e88f42ccd1dbb77a21173dafae1dbdb35b150",
      "blockHash": "0x71fa7fc9ff1730e46a2d9a6638005058a422a76d0627f9530e212b648ca53b67",
      "blockNumber": 101700,
      "transactionIndex": 0,
      "confirmations": null,
      "from": "0x8f7f160D267B54245003AaEeDB71b3cDD3A8BB65",
      "gasPrice": {
        "_hex": "0xd9f358b03"
      },
      "gasLimit": {
        "_hex": "0x15f90"
      },
      "to": "0x0000000000000000000000000000000000000000",
      "value": {
        "_hex": "0x0"
      },
      "nonce": 3,
      "data": "0x432ced0470726f76656e616e636500000000000000000000000000000000000000000000",
      "r": "0x26e0690ed6ea5d8d97409649d139ff15401e0a6d9027c00e741663a1901c206b",
      "s": "0x69a4b292eac54b0685778af7031868bce8d5e8c1bb817d36abe6fbb58c6293f4",
      "v": 28,
      "creates": null,
      "raw": "0xf88903850d9f358b0383015f9094000000000000000000000000000000000000000080a4432ced0470726f76656e616e6365000000000000000000000000000000000000000000001ca026e0690ed6ea5d8d97409649d139ff15401e0a6d9027c00e741663a1901c206ba069a4b292eac54b0685778af7031868bce8d5e8c1bb817d36abe6fbb58c6293f4",
      "networkId": 0,
      "chainId": 0
    }
  ]
}