{
  "hash": "0xc891e11f44132413ec1ebfb579a0a7a51cb73adc66c3abc812d63308f744fccc",
  "parentHash": "0x5621861d6c39049b8f0506ce0df5efe0019e07db3d4b2aa42b44783b6601c150",
  "number": 54906,
  "timestamp": 1439062021,
  "nonce": "0x297059761427e22c",
  "difficulty": 1616428798489,
  "gasLimit": {
    "_hex": "0x2fefd8"
  },
  "gasUsed": {
    "_hex": "0x75049"
  },
  "miner": "0x3F98e477a361F777DA14611a7e419A75Fd238b6b",
  "extraData": "0x476574682f76312e302e312f6c696e75782f676f312e342e32",
  "transactions": [
    {
      "hash": "0xdfe667fbf197b543b4af21eecce2320d7ca872c86024e1b7fdfacdab45d68d81",
      "blockHash": "0xc891e11f44132413ec1ebfb579a0a7a51cb73adc66c3abc812d63308f744fccc",
      "blockNumber": 54906,
      "transactionIndex": 0,
      "confirmations": null,
      "from": "0x1308A2e95c0160B90803ddCA9B9a5bb55E416d79",
      "gasPrice": {
        "_hex": "0xe8d4a51000"
      },
      "gasLimit": {
        "_hex": "0x15f90"
      },
      "to": "0x6bc48997aB00042E0C16e96Cf1fF806034D54874",
      "value": {
        "_hex": "0x88009813ced40000"
      },
      "nonce": 15,
      "data": "0x",
      "r": "0x9fe0e61715386802c6593ee00967eeb833efcb632605126fdbcad84da37ec742",
      "s": "0x3d8a305c4ece33e0e6677b4c97ef1b99600f9a4ff3566a785bf94fb5625371f1",
      "v": 27,
      "creates": null,
      "raw": "0xf86d0f85e8d4a5100083015f90946bc48997ab00042e0c16e96cf1ff806034d548748888009813ced40000801ba09fe0e61715386802c6593ee00967eeb833efcb632605126fdbcad84da37ec742a03d8a305c4ece33e0e6677b4c97ef1b99600f9a4ff3566a785bf94fb5625371f1",
      "networkId": 0,
      "chainId": 0
    },
    {
      "hash": "0x5118b7458a6d96b27a37e91dd5f789444dd545787c30de4f448f861feeea7fe1",
      "blockHash": "0xc891e11f44132413ec1ebfb579a0a7a51cb73adc66c3abc812d63308f744fccc",
      "blockNumber": 54906,
      "transactionIndex": 1,
      "confirmations": null,
      "from": "0x8674c218F0351a62C3BA78C34FD2182A93Da94E2",
      "gasPrice": {
        "_hex": "0xdd2e0103d"
      },
      "gasLimit": {
        "_hex": "0xf4240"
      },
      "to": null,
      "value": {
        "_hex": "0x0"
      },
      "nonce": 37,
      "data": "0x6060604052610618806100136000396000f3006060604052361561006c5760e060020a60003504630a936fe5811461006e57806315853113146100e357806339bfc4a1146101165780636939cd971461014e578063affed0e0146101de578063c36948b5146101e7578063de6f24bb14610219578063fe1e3eca146102eb575b005b6040805160208181018352600080835233600160a060020a0316815260018252839020805484518184028101840190955280855261035694928301828280156100d957602002820191906000526020600020905b8160005054815260200190600101908083116100c2575b5050505050905090565b6103a060043560243560016020526000828152604090208054829081101561000257506000908152602090200154905081565b6103a0600435600160a060020a03331660009081526020818152604080832084845290915290205467ffffffffffffffff165b919050565b6103b260043560408051602081810183526000808352600160a060020a0333168152808252838120858252825283902060010180548451601f820184900484028101840190955280855292939290918301828280156101d257820191906000526020600020905b8154815290600101906020018083116101b557829003601f168201915b50505050509050610149565b6103a060025481565b61042060043560243560006020818152928152604080822090935290815220805467ffffffffffffffff169060010182565b60408051602060248035600481810135601f810185900485028601850190965285855261006c9590359460449490939290920191819084018382808284375094955050505050506002805460018181019092556000805467ffffffffffffffff1916600417815583518354818555848352929391928392916020601f929092018290047fb10e2d527612073b26eecdfd717e6a320cf44b4afac2b0732d9fcbe2b7fa0cf6908101928801821561048b579182015b8281111561048b5782518260005055916020019190600101906102cd565b61006c600435600160a060020a03331660009081526020818152604080832084845282528220805467ffffffffffffffff191681556001810180548482559084528284209192849261058092601f01919091048101905b808211156105335760008155600101610342565b60405180806020018281038252838181518152602001915080519060200190602002808383829060006004602084601f0104600302600f01f1509050019250505060405180910390f35b60408051918252519081900360200190f35b60405180806020018281038252838181518152602001915080519060200190808383829060006004602084601f0104600302600f01f150905090810190601f1680156104125780820380516001836020036101000a031916815260200191505b509250505060405180910390f35b604051808367ffffffffffffffff16815260200180602001828103825283818154815260200191508054801561047b57820191906000526020600020905b81548152906001019060200180831161045e57829003601f168201915b5050935050505060405180910390f35b50610497929150610342565b5050600160a060020a038516600090815260208181526040808320868452825282208454815467ffffffffffffffff191667ffffffffffffffff9190911617815560018581018054918301805483825581875295859020889694959194601f019190910481019291821561053757600052602060002091601f016020900482015b82811115610537578254825591600101919060010190610518565b5090565b50610543929150610342565b50505050600160a060020a038516600090815260016020526040812080549192508491839081101561000257508252506020902091909155505050565b505050600090505b600160a060020a0333166000908152600160205260409020548110156106145760406000208054839190839081101561000257600091825260209091200154141561060c576001600050600033600160a060020a03168152602001908152602001600020600050818154811015610002579060005260206000209001600050600090555b600101610588565b505056",
      "r": "0x1042240492223ef64f4a52404f4e7f8393efb66284a28cd6be23e007700eb9eb",
      "s": "0x7b7ac5e4d268473b0b14a4bdcc39f22e3fcb7f16c85c23cfc7f18596e2d85a37",
      "v": 27,
      "creates": "0xD5e9b97a4Ea7df470b01eff3e35E74b4753b2be9",
      "raw": "0xf9067e25850dd2e0103d830f42408080b9062b6060604052610618806100136000396000f3006060604052361561006c5760e060020a60003504630a936fe5811461006e57806315853113146100e357806339bfc4a1146101165780636939cd971461014e578063affed0e0146101de578063c36948b5146101e7578063de6f24bb14610219578063fe1e3eca146102eb575b005b6040805160208181018352600080835233600160a060020a0316815260018252839020805484518184028101840190955280855261035694928301828280156100d957602002820191906000526020600020905b8160005054815260200190600101908083116100c2575b5050505050905090565b6103a060043560243560016020526000828152604090208054829081101561000257506000908152602090200154905081565b6103a0600435600160a060020a03331660009081526020818152604080832084845290915290205467ffffffffffffffff165b919050565b6103b260043560408051602081810183526000808352600160a060020a0333168152808252838120858252825283902060010180548451601f820184900484028101840190955280855292939290918301828280156101d257820191906000526020600020905b8154815290600101906020018083116101b557829003601f168201915b50505050509050610149565b6103a060025481565b61042060043560243560006020818152928152604080822090935290815220805467ffffffffffffffff169060010182565b60408051602060248035600481810135601f810185900485028601850190965285855261006c9590359460449490939290920191819084018382808284375094955050505050506002805460018181019092556000805467ffffffffffffffff1916600417815583518354818555848352929391928392916020601f929092018290047fb10e2d527612073b26eecdfd717e6a320cf44b4afac2b0732d9fcbe2b7fa0cf6908101928801821561048b579182015b8281111561048b5782518260005055916020019190600101906102cd565b61006c600435600160a060020a03331660009081526020818152604080832084845282528220805467ffffffffffffffff191681556001810180548482559084528284209192849261058092601f01919091048101905b808211156105335760008155600101610342565b60405180806020018281038252838181518152602001915080519060200190602002808383829060006004602084601f0104600302600f01f1509050019250505060405180910390f35b60408051918252519081900360200190f35b60405180806020018281038252838181518152602001915080519060200190808383829060006004602084601f0104600302600f01f150905090810190601f1680156104125780820380516001836020036101000a031916815260200191505b509250505060405180910390f35b604051808367ffffffffffffffff16815260200180602001828103825283818154815260200191508054801561047b57820191906000526020600020905b81548152906001019060200180831161045e57829003601f168201915b5050935050505060405180910390f35b50610497929150610342565b5050600160a060020a038516600090815260208181526040808320868452825282208454815467ffffffffffffffff191667ffffffffffffffff9190911617815560018581018054918301805483825581875295859020889694959194601f019190910481019291821561053757600052602060002091601f016020900482015b82811115610537578254825591600101919060010190610518565b5090565b50610543929150610342565b50505050600160a060020a038516600090815260016020526040812080549192508491839081101561000257508252506020902091909155505050565b505050600090505b600160a060020a0333166000908152600160205260409020548110156106145760406000208054839190839081101561000257600091825260209091200154141561060c576001600050600033600160a060020a03168152602001908152602001600020600050818154811015610002579060005260206000209001600050600090555b600101610588565b5050561ba01042240492223ef64f4a52404f4e7f8393efb66284a28cd6be23e007700eb9eba07b7ac5e4d268473b0b14a4bdcc39f22e3fcb7f16c85c23cfc7f18596e2d85a37",
      "networkId": 0,
      "chainId": 0
    },
    {
      "hash": "0x2f1f0292348afdfbd164cd417d988d756ccb7f2ccef4979f322ad754d318cbe0",
      "blockHash": "0xc891e11f44132413ec1ebfb579a0a7a51cb73adc66c3abc812d63308f744fccc",
      "blockNumber": 54906,
      "transactionIndex": 2,
      "confirmations": null,
      "from": "0x5e0320BB4D82AB8Bb5d7291f2C67D1c99aBb3C05",
      "gasPrice": {
        "_hex": "0xd1f217cbf"
      },
      "gasLimit": {
        "_hex": "0x15f90"
      },
      "to": "0x5c021a7942a469B1C8Db66539eFbCFFA4456FaE9",
      "value": {
        "_hex": "0x5af3107a4000"
      },
      "nonce": 0,
      "data": "0x",
      "r": "0x2aad0d5b1abfa2298316987cb72c713ab6e7a5db7df33380d67d0daa811d2bae",
      "s": "0x18a836b802c33338566530bac87bbe72e6d0767846c559bc3803bc3f43a3df87",
      "v": 28,
      "creates": null,
      "raw": "0xf86b80850d1f217cbf83015f90945c021a7942a469b1c8db66539efbcffa4456fae9865af3107a4000801ca02aad0d5b1abfa2298316987cb72c713ab6e7a5db7df33380d67d0daa811d2baea018a836b802c33338566530bac87bbe72e6d0767846c559bc3803bc3f43a3df87",
      "networkId": 0,
      "chainId": 0
    }
  ]
}