{
  "hash": "0x3aa2894c3824d28ab5d8aa42807c269c2bf8c31b7e4f19ea4628df808fb499e2",
  "parentHash": "0x1a4eb6b0b48829fb358c87c48bd3fc257b56cc789c19e6d290181e3b23b8eb4f",
  "number": 68447,
  "timestamp": 1439288058,
  "nonce": "0x4411d102613dcde9",
  "difficulty": 2009414439285,
  "gasLimit": {
    "_hex": "0x2fefd8"
  },
  "gasUsed": {
    "_hex": "0x15283"
  },
  "miner": "0xEF247E639d49461D25F57e9362CadE3120910Ce0",
  "extraData": "0x476574682f76312e302e312f6c696e75782f676f312e342e32",
  "transactions": [
    {
      "hash": "0xd4900e55236ce0ca38fd743b0e4e4f594980fd07fbd2bd590860d11e9516ca59",
      "blockHash": "0x3aa2894c3824d28ab5d8aa42807c269c2bf8c31b7e4f19ea4628df808fb499e2",
      "blockNumber": 68447,
      "transactionIndex": 0,
      "confirmations": null,
      "from": "0x17580B766f7453525ca4C6A88b01b50570EA088C",
      "gasPrice": {
        "_hex": "0xcf9eb59c6"
      },
      "gasLimit": {
        "_hex": "0x61a80"
      },
      "to": "0x5Fe5B7546D1628f7348B023A0393de1FC825A4fD",
      "value": {
        "_hex": "0x1bc16d674ec80000"
      },
      "nonce": 27,
      "data": "0xb595b8b50000000000000000000000000000000000000000000000000000000000000000",
      "r": "0x1a02b3f21f92327030b4e5792467845dff9761f6aef3312a914b9f43b28e310f",
      "s": "0x0b65c959b37cc6927bff66c2695d2c9b13f2d7078a890b75c3919ae844430d4f",
      "v": 27,
      "creates": null,
      "raw": "0xf8911b850cf9eb59c683061a80945fe5b7546d1628f7348b023a0393de1fc825a4fd881bc16d674ec80000a4b595b8b500000000000000000000000000000000000000000000000000000000000000001ba01a02b3f21f92327030b4e5792467845dff9761f6aef3312a914b9f43b28e310fa00b65c959b37cc6927bff66c2695d2c9b13f2d7078a890b75c3919ae844430d4f",
      "networkId": 0,
      "chainId": 0
    },
    {
      "hash": "0xa75088b1e0f6f88e87465a58863326ce9cc16e54dd815ebac4f63bae0322608c",
      "blockHash": "0x3aa2894c3824d28ab5d8aa42807c269c2bf8c31b7e4f19ea4628df808fb499e2",
      "blockNumber": 68447,
      "transactionIndex": 1,
      "confirmations": null,
      "from": "0x1653900033B1077634E86b1Cc90C4B8Bf941886b",
      "gasPrice": {
        "_hex": "0xba43b7400"
      },
      "gasLimit": {
        "_hex": "0x5208"
      },
      "to": "0xd833d98dE5e282580D784F116535d3738a268073",
      "value": {
        "_hex": "0xc1c23435b07000"
      },
      "nonce": 1,
      "data": "0x",
      "r": "0xa63f57447e4bb86f024ecbebc9818aad082fe96efb5ddcf581a69b4793566452",
      "s": "0x41500d702adab2771442ada026615e69762736b6947b611bafb3f1b49c126a9e",
      "v": 27,
      "creates": null,
      "raw": "0xf86b01850ba43b740082520894d833d98de5e282580d784f116535d3738a26807387c1c23435b07000801ba0a63f57447e4bb86f024ecbebc9818aad082fe96efb5ddcf581a69b4793566452a041500d702adab2771442ada026615e69762736b6947b611bafb3f1b49c126a9e",
      "networkId": 0,
      "chainId": 0
    },
    {
      "hash": "0xcd3edaeb50df5a24157564975e1ad6c3c538f7fd1d476d88e19e4f8a713c219a",
      "blockHash": "0x3aa2894c3824d28ab5d8aa42807c269c2bf8c31b7e4f19ea4628df808fb499e2",
      "blockNumber": 68447,
      "transactionIndex": 2,
      "confirmations": null,
      "from": "0x5aC39bdCdd5ff549636dA4Bcf7D5b6d348f19D52",
      "gasPrice": {
        "_hex": "0xba43b7400"
      },
      "gasLimit": {
        "_hex": "0x5208"
      },
      "to": "0x28d6EE32B34FD4D9061a211032B75Cd5131b0b70",
      "value": {
        "_hex": "0xc1c23435b07000"
      },
      "nonce": 1,
      "data": "0x",
      "r": "0x85d602f7ce64c67eb46a72c1337a6f2dd4009a006749d334f7ba0fbb2a57eba7",
      "s": "0x1dd8a7f1d05a9381c69eee4a30e38cac98f4c089a09181f5e6e619159e3cec28",
      "v": 27,
      "creates": null,
      "raw": "0xf86b01850ba43b74008252089428d6ee32b34fd4d9061a211032b75cd5131b0b7087c1c23435b07000801ba085d602f7ce64c67eb46a72c1337a6f2dd4009a006749d334f7ba0fbb2a57eba7a01dd8a7f1d05a9381c69eee4a30e38cac98f4c089a09181f5e6e619159e3cec28",
      "networkId": 0,
      "chainId": 0
    }
  ]
}