{
  "hash": "0x44468563c0d489245dc729b894da5801278867bd3d9fbadcc8d3df47f1a03bc9",
  "parentHash": "0x06fc7f6b05daf5f8fbcfddafb24bbf5d5d292b43262029e3cbc21ca5b6c037f4",
  "number": 105042,
  "timestamp": 1439880617,
  "nonce": "0xa7aee82dfde5cdf9",
  "difficulty": 4304212667597,
  "gasLimit": {
    "_hex": "0x2fefd8"
  },
  "gasUsed": {
    "_hex": "0x5208"
  },
  "miner": "0x756C55cbfa47fd23c0260F958e65866E64c096CB",
  "extraData": "0x476574682f76312e302e312f6c696e75782f676f312e342e32",
  "transactions": [
    {
      "hash": "0x8615768ab2fc1ff1dfadd87f30e7d951b73c3a9e3f574b93166bce2063b18326",
      "blockHash": "0x44468563c0d489245dc729b894da5801278867bd3d9fbadcc8d3df47f1a03bc9",
      "blockNumber": 105042,
      "transactionIndex": 0,
      "confirmations": null,
      "from": "0x7884D470204862a0d1A21122F41ee77430396Ee5",
      "gasPrice": {
        "_hex": "0xcb2a04acf"
      },
      "gasLimit": {
        "_hex": "0x15f90"
      },
      "to": "0x7884D470204862a0d1A21122F41ee77430396Ee5",
      "value": {
        "_hex": "0x1833eec28848000"
      },
      "nonce": 101,
      "data": "0x",
      "r": "0x19892bf218d0bfc2bedd8e0faa962a79b0dd7e844a855bfee9c471ad60e8c77b",
      "s": "0x7f95f60596442e5b513901663abe7172edef4f7a78eb5f7b3cedfc084c43b932",
      "v": 27,
      "creates": null,
      "raw": "0xf86d65850cb2a04acf83015f90947884d470204862a0d1a21122f41ee77430396ee58801833eec28848000801ba019892bf218d0bfc2bedd8e0faa962a79b0dd7e844a855bfee9c471ad60e8c77ba07f95f60596442e5b513901663abe7172edef4f7a78eb5f7b3cedfc084c43b932",
      "networkId": 0,
      "chainId": 0
    }
  ]
}