{
  "hash": "0x576a4016770f99b2dab1b07ed342062bf1965886974db9b6b37e97afbe76622e",
  "parentHash": "0x18d88a68caec58c2a45122702fc083089bdcf92a0182260fa6370505d56afab8",
  "number": 80507,
  "timestamp": 1439486514,
  "nonce": "0xe8b4922a2bbb86d9",
  "difficulty": 2417971931311,
  "gasLimit": {
    "_hex": "0x2fefd8"
  },
  "gasUsed": {
    "_hex": "0x5208"
  },
  "miner": "0xEF247E639d49461D25F57e9362CadE3120910Ce0",
  "extraData": "0x476574682f76312e302e312f6c696e75782f676f312e342e32",
  "transactions": [
    {
      "hash": "0x779fc34f432d254f2f6a9e97a7d1155a31b6382ff042a4c079ecb72849921a05",
      "blockHash": "0x576a4016770f99b2dab1b07ed342062bf1965886974db9b6b37e97afbe76622e",
      "blockNumber": 80507,
      "transactionIndex": 0,
      "confirmations": null,
      "from": "0x2910543Af39abA0Cd09dBb2D50200b3E800A63D2",
      "gasPrice": {
        "_hex": "0xdd757b617"
      },
      "gasLimit": {
        "_hex": "0x5208"
      },
      "to": "0x43Ff38743ed0CD43308C066509Cc8E7E72c862aA",
      "value": {
        "_hex": "0x11c37937e08000"
      },
      "nonce": 394,
      "data": "0x",
      "r": "0xefe6c94f6eccf643d99b3e8f6cecb837db01abdff6081a145122f23c3bac21c6",
      "s": "0x3d92c8ba93a47d7b32ac36a1cdb90562a3b8cf8b4387b5a1cf5511bea05ba7fb",
      "v": 28,
      "creates": null,
      "raw": "0xf86d82018a850dd757b6178252089443ff38743ed0cd43308c066509cc8e7e72c862aa8711c37937e08000801ca0efe6c94f6eccf643d99b3e8f6cecb837db01abdff6081a145122f23c3bac21c6a03d92c8ba93a47d7b32ac36a1cdb90562a3b8cf8b4387b5a1cf5511bea05ba7fb",
      "networkId": 0,
      "chainId": 0
    }
  ]
}