{
  "hash": "0x627246962a053c465af472d4a2647efba717a05b5763bbd6d2355e226bd02d25",
  "parentHash": "0x8bf91f24c6bb8e7cbaa9dea54d7d7f99ca615cb887e00067ebd9523fd1d587f8",
  "number": 49904,
  "timestamp": 1438980958,
  "nonce": "0x08c4ac44bf58ce23",
  "difficulty": 1497305428742,
  "gasLimit": {
    "_hex": "0x45187"
  },
  "gasUsed": {
    "_hex": "0xa714"
  },
  "miner": "0xab84940B570d6358ed6A9Dbf7e0bc8Ec8F5A6E89",
  "extraData": "0x322831652933",
  "transactions": [
    {
      "hash": "0xba4f5472d9350b2444de46f688d34f009d05967670dcaf790b4606062889a03c",
      "blockHash": "0x627246962a053c465af472d4a2647efba717a05b5763bbd6d2355e226bd02d25",
      "blockNumber": 49904,
      "transactionIndex": 0,
      "confirmations": null,
      "from": "0xbb7B8287f3F0a933474a79eAe42CBCa977791171",
      "gasPrice": {
        "_hex": "0x746a528800"
      },
      "gasLimit": {
        "_hex": "0x61a8"
      },
      "to": "0x43E68aAD0BC1F4D601BB7a0af8e9aF3f8ED44458",
      "value": {
        "_hex": "0xa2a15d09519be00000"
      },
      "nonce": 5,
      "data": "0x",
      "r": "0x03eb218e2004b4e8badcb59b0812167f9747dbf21355d54fcd6c9105d29e5b0f",
      "s": "0x1bb06e06076402e66c7f1bcbc6a0cd3c0fc6e2dfbed9f8b308156462feb022de",
      "v": 28,
      "creates": null,
      "raw": "0xf86d0585746a5288008261a89443e68aad0bc1f4d601bb7a0af8e9af3f8ed4445889a2a15d09519be00000801ca003eb218e2004b4e8badcb59b0812167f9747dbf21355d54fcd6c9105d29e5b0fa01bb06e06076402e66c7f1bcbc6a0cd3c0fc6e2dfbed9f8b308156462feb022de",
      "networkId": 0,
      "chainId": 0
    },
    {
      "hash": "0x24047754ce5de3168077c17cc490fe022cc7f4acd2f5f9889281b07d991390d7",
      "blockHash": "0x627246962a053c465af472d4a2647efba717a05b5763bbd6d2355e226bd02d25",
      "blockNumber": 49904,
      "transactionIndex": 1,
      "confirmations": null,
      "from": "0x3D0768da09CE77d25e2d998E6a7b6eD4b9116c2D",
      "gasPrice": {
        "_hex": "0xe226fdcb2"
      },
      "gasLimit": {
        "_hex": "0x15f90"
      },
      "to": "0xD958b51bC95338D152D55BEEd17a156e8aeC4c9f",
      "value": {
        "_hex": "0x0"
      },
      "nonce": 16,
      "data": "0xe3d670d70000000000000000000000000000000000000000000000000000000000000000",
      "r": "0xbc17bae705bc8fdda56957aad016cbfdf7d7c16212088302a0a153f314c6d020",
      "s": "0x72cc509dafc145bd2d21414e07bd73b019790c9b86c1e4a31ba2d15d96e0358f",
      "v": 27,
      "creates": null,
      "raw": "0xf88910850e226fdcb283015f9094d958b51bc95338d152d55beed17a156e8aec4c9f80a4e3d670d700000000000000000000000000000000000000000000000000000000000000001ba0bc17bae705bc8fdda56957aad016cbfdf7d7c16212088302a0a153f314c6d020a072cc509dafc145bd2d21414e07bd73b019790c9b86c1e4a31ba2d15d96e0358f",
      "networkId": 0,
      "chainId": 0
    }
  ]
}