{
  "hash": "0x7ccc801d767d086c02e4003e8186cbd5e16455b377721c855e7f0e9d99eade18",
  "parentHash": "0x16f09e6dde15f7207b796266e58d37820588d6054f58600d5155bbebbfdc1027",
  "number": 73409,
  "timestamp": 1439368947,
  "nonce": "0x5dfb9d23a7a153be",
  "difficulty": 2197006158242,
  "gasLimit": {
    "_hex": "0x2fefd8"
  },
  "gasUsed": {
    "_hex": "0xad5d"
  },
  "miner": "0x88D74a59454F6cF3B51ef6b9136AFb6b9D405A88",
  "extraData": "0x476574682f76312e302e312d37666266393930632f6c696e75782f676f312e34",
  "transactions": [
    {
      "hash": "0x813109ffc2db038db0cb4bc134dfc59e64e5a40ae66fc022b857bc8b1fd27071",
      "blockHash": "0x7ccc801d767d086c02e4003e8186cbd5e16455b377721c855e7f0e9d99eade18",
      "blockNumber": 73409,
      "transactionIndex": 0,
      "confirmations": null,
      "from": "0x87C5B5874A18B4306DF8a752a6C8cc3E82daFc19",
      "gasPrice": {
        "_hex": "0x10911b95583"
      },
      "gasLimit": {
        "_hex": "0x493e0"
      },
      "to": "0xDf595d10E76EffaBB38FB3ddFAF89a4Bd50Acf0f",
      "value": {
        "_hex": "0x0"
      },
      "nonce": 7,
      "data": "0x03750d94000000000000000000000000326be8f71bfb0379f989aab1cc1fe37f0a771f60586479576952304d516477445249684b00000000000000000000000000000000",
      "r": "0x2e1d4017b6dcf2bae211f5ecf67198cce7b413a629738b827ba5d283ae63865a",
      "s": "0x001c503600eaed534734637d0ddb77a932f411c01ed124667597b983b3eaa14e",
      "v": 27,
      "creates": null,
      "raw": "0xf8aa0786010911b95583830493e094df595d10e76effabb38fb3ddfaf89a4bd50acf0f80b84403750d94000000000000000000000000326be8f71bfb0379f989aab1cc1fe37f0a771f60586479576952304d516477445249684b000000000000000000000000000000001ba02e1d4017b6dcf2bae211f5ecf67198cce7b413a629738b827ba5d283ae63865a9f1c503600eaed534734637d0ddb77a932f411c01ed124667597b983b3eaa14e",
      "networkId": 0,
      "chainId": 0
    }
  ]
}