{
  "hash": "0xe08c99bd078e27b4ee67e61f1501ad0c1eae57295549f87bf912820ed57ff5cc",
  "parentHash": "0x16a9fc5218ddbe20b677334806cf8ad6df5c95bd6b21dc00f5dbbf19ffdd78fd",
  "number": 112750,
  "timestamp": 1440012593,
  "nonce": "0xa2399b1238084b08",
  "difficulty": 4441099287191,
  "gasLimit": {
    "_hex": "0x2fefd8"
  },
  "gasUsed": {
    "_hex": "0x5208"
  },
  "miner": "0x007f7f58D3eb5b7510A301eCC749FC1fCDDBE14D",
  "extraData": "0x476574682f76312e302e312f77696e646f77732f676f312e342e32",
  "transactions": [
    {
      "hash": "0xfa32270caad4ddbfbd5ca0b82b2a0253e7b05e531da3cb58514af26ba1ef2cb6",
      "blockHash": "0xe08c99bd078e27b4ee67e61f1501ad0c1eae57295549f87bf912820ed57ff5cc",
      "blockNumber": 112750,
      "transactionIndex": 0,
      "confirmations": null,
      "from": "0xFc8bc4ed86dF73001ce6082F3dB914d7c7A9a6cC",
      "gasPrice": {
        "_hex": "0xdd093c1df"
      },
      "gasLimit": {
        "_hex": "0x5208"
      },
      "to": "0x32Be343B94f860124dC4fEe278FDCBD38C102D88",
      "value": {
        "_hex": "0x7007e4e9d2cbfc00"
      },
      "nonce": 7,
      "data": "0x",
      "r": "0x1db33dcd27106580bd52aeb470cb6f074297553ec385d8c8741df9386ff23568",
      "s": "0x00a533f801a492bb9fb5c3a030afa77ec24d518b2795e59ab8a5ae64a343bad2",
      "v": 28,
      "creates": null,
      "raw": "0xf86b07850dd093c1df8252089432be343b94f860124dc4fee278fdcbd38c102d88887007e4e9d2cbfc00801ca01db33dcd27106580bd52aeb470cb6f074297553ec385d8c8741df9386ff235689fa533f801a492bb9fb5c3a030afa77ec24d518b2795e59ab8a5ae64a343bad2",
      "networkId": 0,
      "chainId": 0
    }
  ]
}