{
  "hash": "0x21ebb868213a68d5fad8b831953f50c38178e0456dba6a34957280e6b64746d5",
  "parentHash": "0x136f9b75e5eeb4bfc9669684f462231a23e84c3e1a305f25ce4b2a1a8f43cf4f",
  "number": 81473,
  "timestamp": 1439502335,
  "nonce": "0xd2b14d0dfef6c2a5",
  "difficulty": 2443804817132,
  "gasLimit": {
    "_hex": "0x2fefd8"
  },
  "gasUsed": {
    "_hex": "0x5208"
  },
  "miner": "0x157c6f2431eB1a95797EE86F7d17b3c0FD47A247",
  "extraData": "0x476574682f76312e302e312f77696e646f77732f676f312e342e32",
  "transactions": [
    {
      "hash": "0x27e3f5a4a51096dc0f393436089b4c557cf057511b59428564ef575fdf4b6c11",
      "blockHash": "0x21ebb868213a68d5fad8b831953f50c38178e0456dba6a34957280e6b64746d5",
      "blockNumber": 81473,
      "transactionIndex": 0,
      "confirmations": null,
      "from": "0x520A6622a4E770f751F4529e245231D259C12826",
      "gasPrice": {
        "_hex": "0x9184e72a000"
      },
      "gasLimit": {
        "_hex": "0x9965e"
      },
      "to": "0x0000000000000000000000000000000000000000",
      "value": {
        "_hex": "0xb1a2bc2ec50000"
      },
      "nonce": 0,
      "data": "0x",
      "r": "0x317d0667f4a62d5b29794e19806ed70836d9ba863bfebba35e6e10999e24d579",
      "s": "0x5c11bd4688e26d40ccb607863a58e0a57331cb87ceb5f8dedbac0a59c3fe12ac",
      "v": 27,
      "creates": null,
      "raw": "0xf86d808609184e72a0008309965e94000000000000000000000000000000000000000087b1a2bc2ec50000801ba0317d0667f4a62d5b29794e19806ed70836d9ba863bfebba35e6e10999e24d579a05c11bd4688e26d40ccb607863a58e0a57331cb87ceb5f8dedbac0a59c3fe12ac",
      "networkId": 0,
      "chainId": 0
    }
  ]
}