{
  "hash": "0x712b28871c3abe404bbda0a1c59487aa9873e0a92032c735ebc43577e4d420f7",
  "parentHash": "0x066e692d2d3eb29fef3f744bee87af1ae4bf44122429e71663993754e543bbe8",
  "number": 102929,
  "timestamp": 1439845275,
  "nonce": "0xd081e6170c9cd59b",
  "difficulty": 4106137630983,
  "gasLimit": {
    "_hex": "0x2fefd8"
  },
  "gasUsed": {
    "_hex": "0x5208"
  },
  "miner": "0x007f7f58D3eb5b7510A301eCC749FC1fCDDBE14D",
  "extraData": "0x476574682f76312e302e312f77696e646f77732f676f312e342e32",
  "transactions": [
    {
      "hash": "0x1958678211ada0d314e724fd44dba85f334e07291be55202ff30e284194f7ca3",
      "blockHash": "0x712b28871c3abe404bbda0a1c59487aa9873e0a92032c735ebc43577e4d420f7",
      "blockNumber": 102929,
      "transactionIndex": 0,
      "confirmations": null,
      "from": "0xFBb1b73C4f0BDa4f67dcA266ce6Ef42f520fBB98",
      "gasPrice": {
        "_hex": "0xd39a83640"
      },
      "gasLimit": {
        "_hex": "0x5208"
      },
      "to": "0x6d813Ff76e76D9C387B6F3ADeD36009f6E1B9d7a",
      "value": {
        "_hex": "0x5f66afa3f7d370000"
      },
      "nonce": 101,
      "data": "0x",
      "r": "0x5d2b7e613406b26e3ebd875057b664f5860d5693e237ba994c374b18cce15667",
      "s": "0x729989ed636d2700029c09d8bd0cca018622814aea13e4fa609e0f754cc76d76",
      "v": 28,
      "creates": null,
      "raw": "0xf86d65850d39a83640825208946d813ff76e76d9c387b6f3aded36009f6e1b9d7a8905f66afa3f7d370000801ca05d2b7e613406b26e3ebd875057b664f5860d5693e237ba994c374b18cce15667a0729989ed636d2700029c09d8bd0cca018622814aea13e4fa609e0f754cc76d76",
      "networkId": 0,
      "chainId": 0
    }
  ]
}