{
  "hash": "0x24cae1be9a89cf8155bb11fda896b147dd339b028a60776507f4d06ba192b2bf",
  "parentHash": "0x606450f62bee49e571f923449232a2ef7826ba2c12659494e30f90ded6c69eb0",
  "number": 48282,
  "timestamp": 1438954604,
  "nonce": "0xfabdcf2d190c7dc7",
  "difficulty": 1458623641457,
  "gasLimit": {
    "_hex": "0x14f04"
  },
  "gasUsed": {
    "_hex": "0x5208"
  },
  "miner": "0xbb7B8287f3F0a933474a79eAe42CBCa977791171",
  "extraData": "0x476574682f4c5649562f76312e302e312f6c696e75782f676f312e342e32",
  "transactions": [
    {
      "hash": "0x221b1850958af118e94dd966a8b218894dc15196c90124feb0e3d4f4e5710bb7",
      "blockHash": "0x24cae1be9a89cf8155bb11fda896b147dd339b028a60776507f4d06ba192b2bf",
      "blockNumber": 48282,
      "transactionIndex": 0,
      "confirmations": null,
      "from": "0xb9d7E8800321493C3D062CFd8b6Da4B7fDB527AF",
      "gasPrice": {
        "_hex": "0xdbe97a96c"
      },
      "gasLimit": {
        "_hex": "0x5208"
      },
      "to": "0x32Be343B94f860124dC4fEe278FDCBD38C102D88",
      "value": {
        "_hex": "0x10f0cebf2d2b1300000"
      },
      "nonce": 1,
      "data": "0x",
      "r": "0x690e83a1ed608030bbcf48eecb87b3b4ca3603129a9dd61fd8ac5803d9e6d5ce",
      "s": "0x5056729b655f690c8519294ace42077377c830b504400895c346ad61ca1e7435",
      "v": 28,
      "creates": null,
      "raw": "0xf86e01850dbe97a96c8252089432be343b94f860124dc4fee278fdcbd38c102d888a010f0cebf2d2b1300000801ca0690e83a1ed608030bbcf48eecb87b3b4ca3603129a9dd61fd8ac5803d9e6d5cea05056729b655f690c8519294ace42077377c830b504400895c346ad61ca1e7435",
      "networkId": 0,
      "chainId": 0
    }
  ]
}