{
  "hash": "0x83e7607f9802c8a53c54d06b3eb43ed24f639a7e0782d45f66d29c8f8a4f0b76",
  "parentHash": "0xc8c6944c82f6f84c27ab7670961d12f28392c793d5173951f45d35ba5c4f65e2",
  "number": 110710,
  "timestamp": 1439978128,
  "nonce": "0xf5a8d25ab7c465ff",
  "difficulty": 4390426473949,
  "gasLimit": {
    "_hex": "0x2fefd8"
  },
  "gasUsed": {
    "_hex": "0xa410"
  },
  "miner": "0xe6A7a1d47ff21B6321162AEA7C6CB457D5476Bca",
  "extraData": "0x476574682f76312e302e312d38326566323666362f6c696e75782f676f312e34",
  "transactions": [
    {
      "hash": "0x412200a762b4ab299bbe6685bae0869e5b3e29e6e655f7f267414c2d88afc48f",
      "blockHash": "0x83e7607f9802c8a53c54d06b3eb43ed24f639a7e0782d45f66d29c8f8a4f0b76",
      "blockNumber": 110710,
      "transactionIndex": 0,
      "confirmations": null,
      "from": "0x0F87Fb507513e749081E34373c84E95e85b5c057",
      "gasPrice": {
        "_hex": "0xddc809f61"
      },
      "gasLimit": {
        "_hex": "0x15f90"
      },
      "to": "0x00fC572550F3bdfE84F72E3Eaa99D02A43f69733",
      "value": {
        "_hex": "0xde0b6b3a7640000"
      },
      "nonce": 8,
      "data": "0x",
      "r": "0xcf75311fa7fe2e77ce5e8b980bf2ebab8ebcecbf6dd5f3c39b9bd55c9160204d",
      "s": "0x3b2f11d2f7f9c4d992a4cd118eb4fc50ef2eebe39afaa045b3ccf6b1c25d5632",
      "v": 28,
      "creates": null,
      "raw": "0xf86d08850ddc809f6183015f909400fc572550f3bdfe84f72e3eaa99d02a43f69733880de0b6b3a7640000801ca0cf75311fa7fe2e77ce5e8b980bf2ebab8ebcecbf6dd5f3c39b9bd55c9160204da03b2f11d2f7f9c4d992a4cd118eb4fc50ef2eebe39afaa045b3ccf6b1c25d5632",
      "networkId": 0,
      "chainId": 0
    },
    {
      "hash": "0xb71cc152c5179955264bebac0361c1e31c4a8e2f988285b8b689beabcbe77d4e",
      "blockHash": "0x83e7607f9802c8a53c54d06b3eb43ed24f639a7e0782d45f66d29c8f8a4f0b76",
      "blockNumber": 110710,
      "transactionIndex": 1,
      "confirmations": null,
      "from": "0x0F87Fb507513e749081E34373c84E95e85b5c057",
      "gasPrice": {
        "_hex": "0xddc809f61"
      },
      "gasLimit": {
        "_hex": "0x15f90"
      },
      "to": "0x136D4b662BbD1080Cfe4445B0fA213864435B7f1",
      "value": {
        "_hex": "0xde0b6b3a7640000"
      },
      "nonce": 9,
      "data": "0x",
      "r": "0x14c8231a583dddff197bbf58a358d0d2aac3a1769000cff5677b1d990b8ad91e",
      "s": "0x1df00578f449ecb9606f7d09e8828dca0497695855400e58858657f1b1e369c3",
      "v": 28,
      "creates": null,
      "raw": "0xf86d09850ddc809f6183015f9094136d4b662bbd1080cfe4445b0fa213864435b7f1880de0b6b3a7640000801ca014c8231a583dddff197bbf58a358d0d2aac3a1769000cff5677b1d990b8ad91ea01df00578f449ecb9606f7d09e8828dca0497695855400e58858657f1b1e369c3",
      "networkId": 0,
      "chainId": 0
    }
  ]
}