{
  "hash": "0x712b768fa2146a3ed7eaab65ed7dfc768aaff58bc33e219a73110b01afa92566",
  "parentHash": "0xb59660586135161d808c31beecdf4dec6ea2be51f71328c7e4f1227dfa2f09a1",
  "number": 53387,
  "timestamp": 1439036755,
  "nonce": "0xe42297dba33ef88f",
  "difficulty": 1592433946098,
  "gasLimit": {
    "_hex": "0x269ba7"
  },
  "gasUsed": {
    "_hex": "0x546c"
  },
  "miner": "0xEF247E639d49461D25F57e9362CadE3120910Ce0",
  "extraData": "0x476574682f76312e302e312f6c696e75782f676f312e342e32",
  "transactions": [
    {
      "hash": "0x82abf7095c4e7383c14baed609f131bb1f5f750a26e3e36e532358c1f8b6fa15",
      "blockHash": "0x712b768fa2146a3ed7eaab65ed7dfc768aaff58bc33e219a73110b01afa92566",
      "blockNumber": 53387,
      "transactionIndex": 0,
      "confirmations": null,
      "from": "0x262A8bFD7D9dC5dD3Ad78161B6Bb560824373655",
      "gasPrice": {
        "_hex": "0xe0b557037"
      },
      "gasLimit": {
        "_hex": "0x15f90"
      },
      "to": "0x2910543Af39abA0Cd09dBb2D50200b3E800A63D2",
      "value": {
        "_hex": "0xeadf9314db6a3b0"
      },
      "nonce": 1,
      "data": "0x454e52473051335a52",
      "r": "0x2bf7790828a13fd11dfee6888f74f25cea49a6e1149c5aa963c31c4f2598691c",
      "s": "0x53ec06762266dc6d25f090af17d2943b3538ff852e49602c140af68ff2f99c33",
      "v": 27,
      "creates": null,
      "raw": "0xf87601850e0b55703783015f90942910543af39aba0cd09dbb2d50200b3e800a63d2880eadf9314db6a3b089454e52473051335a521ba02bf7790828a13fd11dfee6888f74f25cea49a6e1149c5aa963c31c4f2598691ca053ec06762266dc6d25f090af17d2943b3538ff852e49602c140af68ff2f99c33",
      "networkId": 0,
      "chainId": 0
    }
  ]
}