{
  "hash": "0x0405aadd0b4a7fe47e000e7b414595254e9bba366cfc6ef23a96279e290ac3b3",
  "parentHash": "0x2d83687f3285a7b4ba4c4355af5974dc80b745183d47ed854ff8971cce91021e",
  "number": 76387,
  "timestamp": 1439419639,
  "nonce": "0x78c4eed980696ac2",
  "difficulty": 2226459080438,
  "gasLimit": {
    "_hex": "0x2fefd8"
  },
  "gasUsed": {
    "_hex": "0x5208"
  },
  "miner": "0xe6A7a1d47ff21B6321162AEA7C6CB457D5476Bca",
  "extraData": "0x476574682f76312e302e312d38326566323666362f6c696e75782f676f312e34",
  "transactions": [
    {
      "hash": "0x4c108ba2005aa4ab52696567cb24b670d82e37c0f61f36f6e8b99222383d6ff6",
      "blockHash": "0x0405aadd0b4a7fe47e000e7b414595254e9bba366cfc6ef23a96279e290ac3b3",
      "blockNumber": 76387,
      "transactionIndex": 0,
      "confirmations": null,
      "from": "0x740Fc79C926C4Bd3BD78DEFBE690814FF803C40c",
      "gasPrice": {
        "_hex": "0xd7d40ace3"
      },
      "gasLimit": {
        "_hex": "0x15f90"
      },
      "to": "0x8Be84A3adfBc51c59023B2413766E229108c35DE",
      "value": {
        "_hex": "0x98a7d9b8314c0000"
      },
      "nonce": 0,
      "data": "0x",
      "r": "0x7770890be2fc0505bc88e7802075e7004e0b9df3ebf4716bd7386ed57db5a712",
      "s": "0x4089292c9fe6cfa9e25cdbbfc8dd4b6664f471c7445eee85a0a08d04e3129531",
      "v": 27,
      "creates": null,
      "raw": "0xf86d80850d7d40ace383015f90948be84a3adfbc51c59023b2413766e229108c35de8898a7d9b8314c0000801ba07770890be2fc0505bc88e7802075e7004e0b9df3ebf4716bd7386ed57db5a712a04089292c9fe6cfa9e25cdbbfc8dd4b6664f471c7445eee85a0a08d04e3129531",
      "networkId": 0,
      "chainId": 0
    }
  ]
}