{
  "hash": "0xc3af7d60d2fd8c2a361089755fd180eb168e4bf75bd8763182a56724e5288ea7",
  "parentHash": "0x782df06e6a820bf2a52d72dc7336287eb110e365f44ef6920d8c480c38d36745",
  "number": 95363,
  "timestamp": 1439723058,
  "nonce": "0x9a129f87dd49a881",
  "difficulty": 3563726043004,
  "gasLimit": {
    "_hex": "0x2fefd8"
  },
  "gasUsed": {
    "_hex": "0xf618"
  },
  "miner": "0xe6A7a1d47ff21B6321162AEA7C6CB457D5476Bca",
  "extraData": "0x476574682f76312e302e312d38326566323666362f6c696e75782f676f312e34",
  "transactions": [
    {
      "hash": "0x14719f3e7cab3645027e218f964b54e4b2190514222f9f4476bd064e0e80336c",
      "blockHash": "0xc3af7d60d2fd8c2a361089755fd180eb168e4bf75bd8763182a56724e5288ea7",
      "blockNumber": 95363,
      "transactionIndex": 0,
      "confirmations": null,
      "from": "0x49DC75D11428d1D718FC7b71941B71ae6F8bfA3C",
      "gasPrice": {
        "_hex": "0xd641f460d"
      },
      "gasLimit": {
        "_hex": "0x55f0"
      },
      "to": "0xeF76c144553e10420Aa7FA2c205Db698AF95bed3",
      "value": {
        "_hex": "0x1158e460913d00000"
      },
      "nonce": 5,
      "data": "0x",
      "r": "0x76405f1353e97063d70d708ec724a82d9b22a31b3c12fa2a38583487ab34bb75",
      "s": "0x681313c7a4dd5bf7b46a5a68622d797508def97e5e7d02cf6cfdd5efeaf5af15",
      "v": 28,
      "creates": null,
      "raw": "0xf86d05850d641f460d8255f094ef76c144553e10420aa7fa2c205db698af95bed38901158e460913d00000801ca076405f1353e97063d70d708ec724a82d9b22a31b3c12fa2a38583487ab34bb75a0681313c7a4dd5bf7b46a5a68622d797508def97e5e7d02cf6cfdd5efeaf5af15",
      "networkId": 0,
      "chainId": 0
    },
    {
      "hash": "0x436ab8fea92c570d35f45ff22b61dfad8da8189fb278850cf5b0d6fb81fd6c8a",
      "blockHash": "0xc3af7d60d2fd8c2a361089755fd180eb168e4bf75bd8763182a56724e5288ea7",
      "blockNumber": 95363,
      "transactionIndex": 1,
      "confirmations": null,
      "from": "0x47fe9Ce29dA03E8466a067e4321fD32312e39607",
      "gasPrice": {
        "_hex": "0xd0a0e2766"
      },
      "gasLimit": {
        "_hex": "0x15f90"
      },
      "to": "0x132ACC4ebA2B5039C65849368648bc19f32BEd97",
      "value": {
        "_hex": "0xde0b6b3a7640000"
      },
      "nonce": 3,
      "data": "0x",
      "r": "0xcab5ff9f1db22942bdc94ad7a561be04c2877c70d991cdc3e6a18ef031af6ecc",
      "s": "0x7223d4df0b74138d49d705fd407e6491bdbe2e3a732afac4c322d9fc43738cea",
      "v": 28,
      "creates": null,
      "raw": "0xf86d03850d0a0e276683015f9094132acc4eba2b5039c65849368648bc19f32bed97880de0b6b3a7640000801ca0cab5ff9f1db22942bdc94ad7a561be04c2877c70d991cdc3e6a18ef031af6ecca07223d4df0b74138d49d705fd407e6491bdbe2e3a732afac4c322d9fc43738cea",
      "networkId": 0,
      "chainId": 0
    },
    {
      "hash": "0xf7862cf54de92e9b89333240370bb32761ebdc4d933fe839b235165fdfa937bd",
      "blockHash": "0xc3af7d60d2fd8c2a361089755fd180eb168e4bf75bd8763182a56724e5288ea7",
      "blockNumber": 95363,
      "transactionIndex": 2,
      "confirmations": null,
      "from": "0x772b801c890b2bFbc8184b3c4d6ddce15279cf97",
      "gasPrice": {
        "_hex": "0xcbf68ce1e"
      },
      "gasLimit": {
        "_hex": "0x15f90"
      },
      "to": "0x1332996a46dcBBE02f9cF164Dfc153aB976a9766",
      "value": {
        "_hex": "0x45400a8fd5330000"
      },
      "nonce": 0,
      "data": "0x",
      "r": "0x4dfb6e3e0cbbdf2ccc0e17ba75e46e445b505c1612c01258e79dc5579dbed365",
      "s": "0x218fd9d632bdf0ea39994e7b237a306cc7d2a506b49846ebf42d0f4810bdbb92",
      "v": 28,
      "creates": null,
      "raw": "0xf86d80850cbf68ce1e83015f90941332996a46dcbbe02f9cf164dfc153ab976a97668845400a8fd5330000801ca04dfb6e3e0cbbdf2ccc0e17ba75e46e445b505c1612c01258e79dc5579dbed365a0218fd9d632bdf0ea39994e7b237a306cc7d2a506b49846ebf42d0f4810bdbb92",
      "networkId": 0,
      "chainId": 0
    }
  ]
}