{
  "hash": "0xc227cc69588d8e442705766aa2b3459a01fbe43c603b008c7a0c04baeddd4b65",
  "parentHash": "0x783b19576f47ddb3ae4da5e18aff9c158b749c34a1c255893a69afed871ed428",
  "number": 80962,
  "timestamp": 1439493921,
  "nonce": "0x34b604ba7ff24a95",
  "difficulty": 2442760642808,
  "gasLimit": {
    "_hex": "0x2fefd8"
  },
  "gasUsed": {
    "_hex": "0x23e38"
  },
  "miner": "0xf8E0CA3Ed80bd541b94BEdCf259e8CF2141A9523",
  "extraData": "0x476574682f76312e302e312f77696e646f77732f676f312e342e32",
  "transactions": [
    {
      "hash": "0xfd7b7b1fce69b74a867a05938af65ee8524a4774ddc1812a3b5454d8b1fbfad5",
      "blockHash": "0xc227cc69588d8e442705766aa2b3459a01fbe43c603b008c7a0c04baeddd4b65",
      "blockNumber": 80962,
      "transactionIndex": 0,
      "confirmations": null,
      "from": "0x7a3193C7532579275d8eD0e2e5680959B06c00F5",
      "gasPrice": {
        "_hex": "0xd7d40ace3"
      },
      "gasLimit": {
        "_hex": "0x15f90"
      },
      "to": "0x79241Bc06a270fc4a808AC927119cEdb79a5d42a",
      "value": {
        "_hex": "0x3635c9adc5dea00000"
      },
      "nonce": 4,
      "data": "0x",
      "r": "0xc782b2bf985410205389c77f70f207660e451b8f03d92a99a0982b2592368a42",
      "s": "0x27e510d82213e507e2cbb09a306a7eb9bbc01a7be4ccac5f9faa6473b3eef503",
      "v": 28,
      "creates": null,
      "raw": "0xf86e04850d7d40ace383015f909479241bc06a270fc4a808ac927119cedb79a5d42a893635c9adc5dea00000801ca0c782b2bf985410205389c77f70f207660e451b8f03d92a99a0982b2592368a42a027e510d82213e507e2cbb09a306a7eb9bbc01a7be4ccac5f9faa6473b3eef503",
      "networkId": 0,
      "chainId": 0
    },
    {
      "hash": "0x307c3a4fcba7c9039339c79e9ac9bcf3d9490868b5a4c1454125f072c81779f3",
      "blockHash": "0xc227cc69588d8e442705766aa2b3459a01fbe43c603b008c7a0c04baeddd4b65",
      "blockNumber": 80962,
      "transactionIndex": 1,
      "confirmations": null,
      "from": "0x6C910F77492Fe4E0e3C043456BC2Fa588Dcd7399",
      "gasPrice": {
        "_hex": "0xba43b7400"
      },
      "gasLimit": {
        "_hex": "0x5208"
      },
      "to": "0xC47Aaa860008be6f65B58c6C6E02a84e666EfE31",
      "value": {
        "_hex": "0x298fb5cf7de8d3dc0"
      },
      "nonce": 0,
      "data": "0x",
      "r": "0x498ac8f27ce07370203a12a70f2908275c850291c2721071267818f2001cb007",
      "s": "0x55fb70ab8edc8835fe63a87ae3c2e963f6eb3f5002053016a3ca0692846087e5",
      "v": 28,
      "creates": null,
      "raw": "0xf86d80850ba43b740082520894c47aaa860008be6f65b58c6c6e02a84e666efe31890298fb5cf7de8d3dc0801ca0498ac8f27ce07370203a12a70f2908275c850291c2721071267818f2001cb007a055fb70ab8edc8835fe63a87ae3c2e963f6eb3f5002053016a3ca0692846087e5",
      "networkId": 0,
      "chainId": 0
    },
    {
      "hash": "0x0c6f778f7a6e9e55d35116dffe7824555f2d4fc3e7d46cd96a24f22f8c37480b",
      "blockHash": "0xc227cc69588d8e442705766aa2b3459a01fbe43c603b008c7a0c04baeddd4b65",
      "blockNumber": 80962,
      "transactionIndex": 2,
      "confirmations": null,
      "from": "0xb2169f1326FE9745321aD99563654089bAdf09eb",
      "gasPrice": {
        "_hex": "0xba43b7400"
      },
      "gasLimit": {
        "_hex": "0x5208"
      },
      "to": "0xC47Aaa860008be6f65B58c6C6E02a84e666EfE31",
      "value": {
        "_hex": "0x8a9fe119ed236000"
      },
      "nonce": 4,
      "data": "0x",
      "r": "0x4412c4a2d6ff5b47605e7bf45327f2bfde07e3d41b98174a13c09fd8e0c06b5c",
      "s": "0x0739f0936a78ced059512d56cc297a915fccdede751689d74cfd85e0ecf3194e",
      "v": 27,
      "creates": null,
      "raw": "0xf86c04850ba43b740082520894c47aaa860008be6f65b58c6c6e02a84e666efe31888a9fe119ed236000801ba04412c4a2d6ff5b47605e7bf45327f2bfde07e3d41b98174a13c09fd8e0c06b5ca00739f0936a78ced059512d56cc297a915fccdede751689d74cfd85e0ecf3194e",
      "networkId": 0,
      "chainId": 0
    },
    {
      "hash": "0x197e79ffe5b1afd072cb389212435938b530b561ffbf94d83812cbf5ab11fe56",
      "blockHash": "0xc227cc69588d8e442705766aa2b3459a01fbe43c603b008c7a0c04baeddd4b65",
      "blockNumber": 80962,
      "transactionIndex": 3,
      "confirmations": null,
      "from": "0x8B11e9Ff1CAf97F1818551712783d7EA6E670D39",
      "gasPrice": {
        "_hex": "0xba43b7400"
      },
      "gasLimit": {
        "_hex": "0x5208"
      },
      "to": "0xC47Aaa860008be6f65B58c6C6E02a84e666EfE31",
      "value": {
        "_hex": "0xb194dcff39263c00"
      },
      "nonce": 0,
      "data": "0x",
      "r": "0xea33e256db892989c946703fcfb37a49c7e5b2f41a7994987991028407aedf0f",
      "s": "0x51801a1f9022878ef108ce102ea738f1feab222735de795cbd51c1c57774dffd",
      "v": 27,
      "creates": null,
      "raw": "0xf86c80850ba43b740082520894c47aaa860008be6f65b58c6c6e02a84e666efe3188b194dcff39263c00801ba0ea33e256db892989c946703fcfb37a49c7e5b2f41a7994987991028407aedf0fa051801a1f9022878ef108ce102ea738f1feab222735de795cbd51c1c57774dffd",
      "networkId": 0,
      "chainId": 0
    },
    {
      "hash": "0xd070abd95a1d38d648b3318fc164b5b073bc69e0e281ef9a2e5b6ae5af14acdb",
      "blockHash": "0xc227cc69588d8e442705766aa2b3459a01fbe43c603b008c7a0c04baeddd4b65",
      "blockNumber": 80962,
      "transactionIndex": 4,
      "confirmations": null,
      "from": "0x7e0a14F6ca40dB956B76b480F23108b9D85C38a5",
      "gasPrice": {
        "_hex": "0xba43b7400"
      },
      "gasLimit": {
        "_hex": "0x5208"
      },
      "to": "0xC47Aaa860008be6f65B58c6C6E02a84e666EfE31",
      "value": {
        "_hex": "0x15f8a8030771dc0"
      },
      "nonce": 0,
      "data": "0x",
      "r": "0x60befa0aab9c3041c0b0c8ced1a41bbde64df0ad561e50dc63a71d20d8443a9c",
      "s": "0x02b938d6bf1338a1cb67e766e4648ed4434aa363c0f18f0c37e40dabb22e12da",
      "v": 28,
      "creates": null,
      "raw": "0xf86c80850ba43b740082520894c47aaa860008be6f65b58c6c6e02a84e666efe3188015f8a8030771dc0801ca060befa0aab9c3041c0b0c8ced1a41bbde64df0ad561e50dc63a71d20d8443a9ca002b938d6bf1338a1cb67e766e4648ed4434aa363c0f18f0c37e40dabb22e12da",
      "networkId": 0,
      "chainId": 0
    },
    {
      "hash": "0x873dd10de3d60378f86c2c8ae6375e808622e48634a7951875e4d03ec47cea6e",
      "blockHash": "0xc227cc69588d8e442705766aa2b3459a01fbe43c603b008c7a0c04baeddd4b65",
      "blockNumber": 80962,
      "transactionIndex": 5,
      "confirmations": null,
      "from": "0xB818B6Ac9290F3dC125E077eCCFCf471516D1c62",
      "gasPrice": {
        "_hex": "0xba43b7400"
      },
      "gasLimit": {
        "_hex": "0x5208"
      },
      "to": "0xC47Aaa860008be6f65B58c6C6E02a84e666EfE31",
      "value": {
        "_hex": "0x4456a949550036000"
      },
      "nonce": 0,
      "data": "0x",
      "r": "0xe6eb6302b83a61285a0796d2333f3fbab2e0aaa74a576de4922a7dd9a131fbd2",
      "s": "0x447c27862b7b1bcb79eba31716030280a7eafcf194e511a46b979ad965238357",
      "v": 27,
      "creates": null,
      "raw": "0xf86d80850ba43b740082520894c47aaa860008be6f65b58c6c6e02a84e666efe318904456a949550036000801ba0e6eb6302b83a61285a0796d2333f3fbab2e0aaa74a576de4922a7dd9a131fbd2a0447c27862b7b1bcb79eba31716030280a7eafcf194e511a46b979ad965238357",
      "networkId": 0,
      "chainId": 0
    },
    {
      "hash": "0x913a947a603277d0844fd99a80b0d6255e65f994335b58397e9eb8548107e17c",
      "blockHash": "0xc227cc69588d8e442705766aa2b3459a01fbe43c603b008c7a0c04baeddd4b65",
      "blockNumber": 80962,
      "transactionIndex": 6,
      "confirmations": null,
      "from": "0xb2169f1326FE9745321aD99563654089bAdf09eb",
      "gasPrice": {
        "_hex": "0xba43b7400"
      },
      "gasLimit": {
        "_hex": "0x5208"
      },
      "to": "0xC47Aaa860008be6f65B58c6C6E02a84e666EfE31",
      "value": {
        "_hex": "0x22af54a278adb6000"
      },
      "nonce": 5,
      "data": "0x",
      "r": "0x33210c9bd116373d27c20d394cab1b1cd3e571af3e7820942f88406883e8d29d",
      "s": "0x1ed7df8075c9d916754c65ef485c964dabfd27f00b7eb02cb4451147962bdbfa",
      "v": 27,
      "creates": null,
      "raw": "0xf86d05850ba43b740082520894c47aaa860008be6f65b58c6c6e02a84e666efe3189022af54a278adb6000801ba033210c9bd116373d27c20d394cab1b1cd3e571af3e7820942f88406883e8d29da01ed7df8075c9d916754c65ef485c964dabfd27f00b7eb02cb4451147962bdbfa",
      "networkId": 0,
      "chainId": 0
    }
  ]
}