{
  "hash": "0x00135fab77bf66002d9969b6f1cb37361aca34bbc382e6bed8644d95b2237dd2",
  "parentHash": "0x7f766eeab9a3ce0c2987c549783af06aecf10ac7a74891de980bfc140bb0d795",
  "number": 104549,
  "timestamp": 1439871551,
  "nonce": "0xbc63cf0fefa2dfe8",
  "difficulty": 4378660468686,
  "gasLimit": {
    "_hex": "0x2fefd8"
  },
  "gasUsed": {
    "_hex": "0x5208"
  },
  "miner": "0xe6A7a1d47ff21B6321162AEA7C6CB457D5476Bca",
  "extraData": "0x476574682f76312e302e312d38326566323666362f6c696e75782f676f312e34",
  "transactions": [
    {
      "hash": "0xeca64e4b91a030d52d46262e4cebcccfa98c3d0dc14d105b651c8cdc29e5c2ba",
      "blockHash": "0x00135fab77bf66002d9969b6f1cb37361aca34bbc382e6bed8644d95b2237dd2",
      "blockNumber": 104549,
      "transactionIndex": 0,
      "confirmations": null,
      "from": "0xcf00A85f3826941e7A25BFcF9Aac575d40410852",
      "gasPrice": {
        "_hex": "0xcb5bea614"
      },
      "gasLimit": {
        "_hex": "0x15f90"
      },
      "to": "0xD9666150A9dA92d9108198a4072970805a8B3428",
      "value": {
        "_hex": "0x4563918244f40000"
      },
      "nonce": 58,
      "data": "0x",
      "r": "0x5c20257f2697081700d20a6547f03bce7752001d8d35f927b8e604f180ac3304",
      "s": "0x5b4446d108377f73bb450a417c4295b3a0a3078491ff7239aff121b03bd8ac4f",
      "v": 27,
      "creates": null,
      "raw": "0xf86d3a850cb5bea61483015f9094d9666150a9da92d9108198a4072970805a8b3428884563918244f40000801ba05c20257f2697081700d20a6547f03bce7752001d8d35f927b8e604f180ac3304a05b4446d108377f73bb450a417c4295b3a0a3078491ff7239aff121b03bd8ac4f",
      "networkId": 0,
      "chainId": 0
    }
  ]
}