{
  "hash": "0x9efd4fadbf58bb99f44f4402e07798927787737ca52fa6012a0585059a0fdc93",
  "parentHash": "0xfd8260cb7702ce39371464bb41469b34d6b3f0add25391292c17347f6be607d4",
  "number": 108782,
  "timestamp": 1439946012,
  "nonce": "0xcbb2d50ee1158a3e",
  "difficulty": 4365779832543,
  "gasLimit": {
    "_hex": "0x2fefd8"
  },
  "gasUsed": {
    "_hex": "0x5208"
  },
  "miner": "0x007f7f58D3eb5b7510A301eCC749FC1fCDDBE14D",
  "extraData": "0x476574682f76312e302e312f77696e646f77732f676f312e342e32",
  "transactions": [
    {
      "hash": "0x771ea22c434efe4ec33bc3b16bc2d7747117aaf6c0e879d005474bd516b7aa75",
      "blockHash": "0x9efd4fadbf58bb99f44f4402e07798927787737ca52fa6012a0585059a0fdc93",
      "blockNumber": 108782,
      "transactionIndex": 0,
      "confirmations": null,
      "from": "0xC47Aaa860008be6f65B58c6C6E02a84e666EfE31",
      "gasPrice": {
        "_hex": "0xccf2b6a85"
      },
      "gasLimit": {
        "_hex": "0x15f90"
      },
      "to": "0x5adA3743144f1235d8cef97daAD6c123F20E7330",
      "value": {
        "_hex": "0x11d55eaf0cb13f546e"
      },
      "nonce": 92,
      "data": "0x",
      "r": "0x58fbfeac78c99ae8daf7aabea62942c288c5295d2e5e2b026b20cd3d831bba7d",
      "s": "0x2f802a141fc539ce4aac6d4dd3469e70184b6ee424297f6afd7ed8edb1e4224e",
      "v": 27,
      "creates": null,
      "raw": "0xf86e5c850ccf2b6a8583015f90945ada3743144f1235d8cef97daad6c123f20e73308911d55eaf0cb13f546e801ba058fbfeac78c99ae8daf7aabea62942c288c5295d2e5e2b026b20cd3d831bba7da02f802a141fc539ce4aac6d4dd3469e70184b6ee424297f6afd7ed8edb1e4224e",
      "networkId": 0,
      "chainId": 0
    }
  ]
}