{
  "hash": "0xcec901855f6d2a726516d127e5a6d0f7a4ab9ee5246054e09c8eae7845414922",
  "parentHash": "0x76219b91379b18baddc81b6444f754ff159ca135da6b6f7f064912410fbdfeb6",
  "number": 63388,
  "timestamp": 1439203599,
  "nonce": "0x3d9416d2633fa1af",
  "difficulty": 1833380026443,
  "gasLimit": {
    "_hex": "0x2fefd8"
  },
  "gasUsed": {
    "_hex": "0x14a84"
  },
  "miner": "0xf8E0CA3Ed80bd541b94BEdCf259e8CF2141A9523",
  "extraData": "0x476574682f76312e302e312f77696e646f77732f676f312e342e32",
  "transactions": [
    {
      "hash": "0xb2579e73323c36fbcf4f20a3fd08123b5a1658c5ec9f874a63740bde1d29ff1e",
      "blockHash": "0xcec901855f6d2a726516d127e5a6d0f7a4ab9ee5246054e09c8eae7845414922",
      "blockNumber": 63388,
      "transactionIndex": 0,
      "confirmations": null,
      "from": "0xe997A23B159E2E2a5Ce72333262972374B15425c",
      "gasPrice": {
        "_hex": "0xd958b9536"
      },
      "gasLimit": {
        "_hex": "0x15f90"
      },
      "to": "0x33F36DffD23cf019833E1d59cBc7138824b12289",
      "value": {
        "_hex": "0x3cb71f51fc5580000"
      },
      "nonce": 2,
      "data": "0x",
      "r": "0x659f0f42a3f42a354b5b5d78683887c3cb7370cd617b85e9746afacfc7f31f14",
      "s": "0x00cebccc0c0be5723608c09d044bae0107d219e12510781e36a3d0dba33eccca",
      "v": 27,
      "creates": null,
      "raw": "0xf86d02850d958b953683015f909433f36dffd23cf019833e1d59cbc7138824b122898903cb71f51fc5580000801ba0659f0f42a3f42a354b5b5d78683887c3cb7370cd617b85e9746afacfc7f31f149fcebccc0c0be5723608c09d044bae0107d219e12510781e36a3d0dba33eccca",
      "networkId": 0,
      "chainId": 0
    },
    {
      "hash": "0x7a438fbc4eee96f7c0f62f90e85a6e23e13ad9c40ef5854ea0c854f65affbfb4",
      "blockHash": "0xcec901855f6d2a726516d127e5a6d0f7a4ab9ee5246054e09c8eae7845414922",
      "blockNumber": 63388,
      "transactionIndex": 1,
      "confirmations": null,
      "from": "0x2910543Af39abA0Cd09dBb2D50200b3E800A63D2",
      "gasPrice": {
        "_hex": "0xd6eab0a34"
      },
      "gasLimit": {
        "_hex": "0x5208"
      },
      "to": "0xc2CB9198f652c0d1e5bc0daf1c030D7AFdC1eB6B",
      "value": {
        "_hex": "0x4551ce090d138000"
      },
      "nonce": 127,
      "data": "0x",
      "r": "0x6eb35d4107a64aa938257b3efeaabe25db983fcd5569bcb7ea80298091a7cf6c",
      "s": "0x03dcb4d51d646886690f3e83f35b51d76fbad83449a14806685fb62951d04bb5",
      "v": 28,
      "creates": null,
      "raw": "0xf86c7f850d6eab0a3482520894c2cb9198f652c0d1e5bc0daf1c030d7afdc1eb6b884551ce090d138000801ca06eb35d4107a64aa938257b3efeaabe25db983fcd5569bcb7ea80298091a7cf6ca003dcb4d51d646886690f3e83f35b51d76fbad83449a14806685fb62951d04bb5",
      "networkId": 0,
      "chainId": 0
    },
    {
      "hash": "0x6a26bb45e10209fd5c742790317e7619809e804caaea8b9cc82f09e16422ac50",
      "blockHash": "0xcec901855f6d2a726516d127e5a6d0f7a4ab9ee5246054e09c8eae7845414922",
      "blockNumber": 63388,
      "transactionIndex": 2,
      "confirmations": null,
      "from": "0x333Ad1596401e05Aea2d36Ca47318eF4Cd2cB3DF",
      "gasPrice": {
        "_hex": "0xd606428e3"
      },
      "gasLimit": {
        "_hex": "0x55f0"
      },
      "to": "0x2910543Af39abA0Cd09dBb2D50200b3E800A63D2",
      "value": {
        "_hex": "0x1d6d119d6079bbe000"
      },
      "nonce": 10,
      "data": "0x454e37485242515552",
      "r": "0x18d02561e7d6fc3d1b67a336669cbe917d20a4c4a83d77abfb49e1d007f32ab3",
      "s": "0x03f7fc1097814355913765008df40f59bbe12b9347c13392b971144d7a73cf7a",
      "v": 27,
      "creates": null,
      "raw": "0xf8760a850d606428e38255f0942910543af39aba0cd09dbb2d50200b3e800a63d2891d6d119d6079bbe00089454e374852425155521ba018d02561e7d6fc3d1b67a336669cbe917d20a4c4a83d77abfb49e1d007f32ab3a003f7fc1097814355913765008df40f59bbe12b9347c13392b971144d7a73cf7a",
      "networkId": 0,
      "chainId": 0
    },
    {
      "hash": "0x87e9cb2e7605532072d1306c9b9981e22369ff0d69b534c7bc54341d0eecdd25",
      "blockHash": "0xcec901855f6d2a726516d127e5a6d0f7a4ab9ee5246054e09c8eae7845414922",
      "blockNumber": 63388,
      "transactionIndex": 3,
      "confirmations": null,
      "from": "0x765E9271F0720BB268573c5b9eFA820AC8e0eA41",
      "gasPrice": {
        "_hex": "0xcee94079c"
      },
      "gasLimit": {
        "_hex": "0x15f90"
      },
      "to": "0xaf720cF7813ad4cd45B1A77aF5044c18DEC84167",
      "value": {
        "_hex": "0x2385d8a6beba92"
      },
      "nonce": 1,
      "data": "0x",
      "r": "0x1ea2812a6ecd825197701542270af3cab6f33c165c576359fa2527fbc9155ef5",
      "s": "0x75352a8d743b50eefbd880f378029683dd6ada05fc469b50514fa575c7fd2bb9",
      "v": 28,
      "creates": null,
      "raw": "0xf86c01850cee94079c83015f9094af720cf7813ad4cd45b1a77af5044c18dec84167872385d8a6beba92801ca01ea2812a6ecd825197701542270af3cab6f33c165c576359fa2527fbc9155ef5a075352a8d743b50eefbd880f378029683dd6ada05fc469b50514fa575c7fd2bb9",
      "networkId": 0,
      "chainId": 0
    }
  ]
}