{
  "hash": "0xfa66fa5d24ffb2701cd2d0966b7f7d09fe7a106081aadfafd332cda439b375ca",
  "parentHash": "0xa2ab7e9f206a8abafdbc1728139493f1db2708864325d17e3afef476933f0591",
  "number": 65339,
  "timestamp": 1439235263,
  "nonce": "0x7ed0b20e5882204c",
  "difficulty": 1940717219676,
  "gasLimit": {
    "_hex": "0x2fefd8"
  },
  "gasUsed": {
    "_hex": "0x20b54"
  },
  "miner": "0xC6aAb39538082C5f61BEf748D7442Ce50C0cb71e",
  "extraData": "0x6d61726b786d61796572",
  "transactions": [
    {
      "hash": "0xb2c2f89ee9d7fdcfaa5dfd0c4fe6662b3827b00d25b77d3dfc41dcb31e8e4514",
      "blockHash": "0xfa66fa5d24ffb2701cd2d0966b7f7d09fe7a106081aadfafd332cda439b375ca",
      "blockNumber": 65339,
      "transactionIndex": 0,
      "confirmations": null,
      "from": "0x271e8fC01E1C9E1621fD3d108e348450b2498541",
      "gasPrice": {
        "_hex": "0xd7d40ace3"
      },
      "gasLimit": {
        "_hex": "0x55f0"
      },
      "to": "0x2910543Af39abA0Cd09dBb2D50200b3E800A63D2",
      "value": {
        "_hex": "0xb469471f80140000"
      },
      "nonce": 6,
      "data": "0x454e30334b52455730",
      "r": "0x3922ac4816a813acf01ace655b2c1609527f6376fa36590f9110443978deafec",
      "s": "0x71070f9b9207eef16a0c16dfd1f995058044faec235130f7a4f7128ca196c731",
      "v": 27,
      "creates": null,
      "raw": "0xf87506850d7d40ace38255f0942910543af39aba0cd09dbb2d50200b3e800a63d288b469471f8014000089454e30334b524557301ba03922ac4816a813acf01ace655b2c1609527f6376fa36590f9110443978deafeca071070f9b9207eef16a0c16dfd1f995058044faec235130f7a4f7128ca196c731",
      "networkId": 0,
      "chainId": 0
    },
    {
      "hash": "0x8b86c2b3565fa7ab78c0cb073bfc1243e2b5465d7dae5e1898eff490c4e1a97b",
      "blockHash": "0xfa66fa5d24ffb2701cd2d0966b7f7d09fe7a106081aadfafd332cda439b375ca",
      "blockNumber": 65339,
      "transactionIndex": 1,
      "confirmations": null,
      "from": "0x296dE94E7A50ccfa9c9EFDEd86d690319973683d",
      "gasPrice": {
        "_hex": "0xd3215aca5"
      },
      "gasLimit": {
        "_hex": "0x5208"
      },
      "to": "0x32Be343B94f860124dC4fEe278FDCBD38C102D88",
      "value": {
        "_hex": "0x6c6a337cb77e10000"
      },
      "nonce": 1,
      "data": "0x",
      "r": "0x604aa7f3d5d763b5afd4bc31fbd21701fdab39f5e32dc89bdf1f89917868a568",
      "s": "0x04861b15670555b4c71442f622eede96a0e7ef11c71f420e29e03d1df94cd592",
      "v": 28,
      "creates": null,
      "raw": "0xf86d01850d3215aca58252089432be343b94f860124dc4fee278fdcbd38c102d888906c6a337cb77e10000801ca0604aa7f3d5d763b5afd4bc31fbd21701fdab39f5e32dc89bdf1f89917868a568a004861b15670555b4c71442f622eede96a0e7ef11c71f420e29e03d1df94cd592",
      "networkId": 0,
      "chainId": 0
    },
    {
      "hash": "0xcaa7534f85e58e4a92cacc8b30454a3b908083242f94e01507b3b1eaaf053540",
      "blockHash": "0xfa66fa5d24ffb2701cd2d0966b7f7d09fe7a106081aadfafd332cda439b375ca",
      "blockNumber": 65339,
      "transactionIndex": 2,
      "confirmations": null,
      "from": "0xAA977A3542936031d6D16289441e1C32052Cb913",
      "gasPrice": {
        "_hex": "0xd3215aca5"
      },
      "gasLimit": {
        "_hex": "0x5208"
      },
      "to": "0x32Be343B94f860124dC4fEe278FDCBD38C102D88",
      "value": {
        "_hex": "0x337fd000c1e9240000"
      },
      "nonce": 3,
      "data": "0x",
      "r": "0x60ce2702ffb7e41726a9b8929c21b5e77d7e62151ba3c54bab166a01fe0a8da1",
      "s": "0x3c0511f610b7998b3cfa6de5a70fbf96acbe8b1e6bd7f70a5e48a538ea762195",
      "v": 27,
      "creates": null,
      "raw": "0xf86d03850d3215aca58252089432be343b94f860124dc4fee278fdcbd38c102d8889337fd000c1e9240000801ba060ce2702ffb7e41726a9b8929c21b5e77d7e62151ba3c54bab166a01fe0a8da1a03c0511f610b7998b3cfa6de5a70fbf96acbe8b1e6bd7f70a5e48a538ea762195",
      "networkId": 0,
      "chainId": 0
    },
    {
      "hash": "0xd7890a4079bc23be96a4a625c4d847831e3c8822910a9e109424ee60c8df022f",
      "blockHash": "0xfa66fa5d24ffb2701cd2d0966b7f7d09fe7a106081aadfafd332cda439b375ca",
      "blockNumber": 65339,
      "transactionIndex": 3,
      "confirmations": null,
      "from": "0x6158e107c5EB54CB7604E0CD8dc1E07500D91c3c",
      "gasPrice": {
        "_hex": "0xcfb92ab22"
      },
      "gasLimit": {
        "_hex": "0x55f0"
      },
      "to": "0x2910543Af39abA0Cd09dBb2D50200b3E800A63D2",
      "value": {
        "_hex": "0x270773bd7d0a3c000"
      },
      "nonce": 1,
      "data": "0x454e483441484d3052",
      "r": "0xd4b7f7d1723b5e60ac0fe2d853b5e0f50ea4ad1360c13122b2e4d060c99d2673",
      "s": "0x7f17d526ee76ecc0835109a7807c8b28605fe7c95183243a0fdd24713d3c17ca",
      "v": 28,
      "creates": null,
      "raw": "0xf87601850cfb92ab228255f0942910543af39aba0cd09dbb2d50200b3e800a63d2890270773bd7d0a3c00089454e483441484d30521ca0d4b7f7d1723b5e60ac0fe2d853b5e0f50ea4ad1360c13122b2e4d060c99d2673a07f17d526ee76ecc0835109a7807c8b28605fe7c95183243a0fdd24713d3c17ca",
      "networkId": 0,
      "chainId": 0
    },
    {
      "hash": "0xa079ddfd2babf09c3bdc1901f19a7cc30601982d1412e4c557d87ac978e863d7",
      "blockHash": "0xfa66fa5d24ffb2701cd2d0966b7f7d09fe7a106081aadfafd332cda439b375ca",
      "blockNumber": 65339,
      "transactionIndex": 4,
      "confirmations": null,
      "from": "0xc1284bD10EEdb223aD9fa46e8d2Ad9098B706252",
      "gasPrice": {
        "_hex": "0xba43b7400"
      },
      "gasLimit": {
        "_hex": "0x15f90"
      },
      "to": "0x793AE8C1b1a160BFc07BFB0d04F85eab1A71F4f2",
      "value": {
        "_hex": "0x0"
      },
      "nonce": 0,
      "data": "0x3ba15036",
      "r": "0x5f21991e0589d796fca19f9aec8a874692fc9f246ba5c544857b087ed53c4b89",
      "s": "0x30d0ec324f1e384f4e0161751200f4e75f594b03e58e4ba51dd5ea13a5c2153c",
      "v": 28,
      "creates": null,
      "raw": "0xf86980850ba43b740083015f9094793ae8c1b1a160bfc07bfb0d04f85eab1a71f4f280843ba150361ca05f21991e0589d796fca19f9aec8a874692fc9f246ba5c544857b087ed53c4b89a030d0ec324f1e384f4e0161751200f4e75f594b03e58e4ba51dd5ea13a5c2153c",
      "networkId": 0,
      "chainId": 0
    }
  ]
}