{
  "hash": "0xdeac4950ba8077395a93d35012f58f9cab6a6e98988f01517f035ead8c4d3c63",
  "parentHash": "0x65b6ddc3b04dd18405a9826c014bd302697e2a411056ff16f8a303027a49fdde",
  "number": 64665,
  "timestamp": 1439224441,
  "nonce": "0x6d3bd811ad582d4b",
  "difficulty": 1886678051615,
  "gasLimit": {
    "_hex": "0x2fefd8"
  },
  "gasUsed": {
    "_hex": "0xa410"
  },
  "miner": "0xeB1325C8D9d3ea8D74aC11F4B00F1B2367686319",
  "extraData": "0x476574682f76312e302e312f77696e646f77732f676f312e342e32",
  "transactions": [
    {
      "hash": "0xe7aea0ade3bef7ea87e0922271111b35262682e4709785404b48d81779504813",
      "blockHash": "0xdeac4950ba8077395a93d35012f58f9cab6a6e98988f01517f035ead8c4d3c63",
      "blockNumber": 64665,
      "transactionIndex": 0,
      "confirmations": null,
      "from": "0x2f86ba8019945f39edE131D38d4d8780884DA553",
      "gasPrice": {
        "_hex": "0xce5354a32"
      },
      "gasLimit": {
        "_hex": "0x5208"
      },
      "to": "0x32Be343B94f860124dC4fEe278FDCBD38C102D88",
      "value": {
        "_hex": "0x377eb8fb9f454c00"
      },
      "nonce": 0,
      "data": "0x",
      "r": "0xba5b8da604babe22dd9ab9556e8b607303a3a7132a8f63f5bd1faa5c36368021",
      "s": "0x384bfadd369f7acac22fe84ac490c901a963a5e0a900f9be079f410ff1b7775d",
      "v": 27,
      "creates": null,
      "raw": "0xf86c80850ce5354a328252089432be343b94f860124dc4fee278fdcbd38c102d8888377eb8fb9f454c00801ba0ba5b8da604babe22dd9ab9556e8b607303a3a7132a8f63f5bd1faa5c36368021a0384bfadd369f7acac22fe84ac490c901a963a5e0a900f9be079f410ff1b7775d",
      "networkId": 0,
      "chainId": 0
    },
    {
      "hash": "0x575539cb01c9f287aba1218eb435bb6fc99e4981e6663f082c8f22bac188deb0",
      "blockHash": "0xdeac4950ba8077395a93d35012f58f9cab6a6e98988f01517f035ead8c4d3c63",
      "blockNumber": 64665,
      "transactionIndex": 1,
      "confirmations": null,
      "from": "0x13632f7189AEdaC48DC0280f4F4E800d58A8C954",
      "gasPrice": {
        "_hex": "0xba43b7400"
      },
      "gasLimit": {
        "_hex": "0x5267"
      },
      "to": "0xd41CDe3742bE29F53EDb8A99B255F4c0C210935d",
      "value": {
        "_hex": "0x2231e2f1f690000"
      },
      "nonce": 2,
      "data": "0x",
      "r": "0x1da7c84f1900ac765ca3db548c1cc3e23603d4b3e95ca30aa593ff40b30c3409",
      "s": "0x9620015a312dbb1541e35497fd97bf2ed5627e69e7d015c89c15adb6eb216441",
      "v": 28,
      "creates": null,
      "raw": "0xf86c02850ba43b740082526794d41cde3742be29f53edb8a99b255f4c0c210935d8802231e2f1f690000801ca01da7c84f1900ac765ca3db548c1cc3e23603d4b3e95ca30aa593ff40b30c3409a09620015a312dbb1541e35497fd97bf2ed5627e69e7d015c89c15adb6eb216441",
      "networkId": 0,
      "chainId": 0
    }
  ]
}