{
  "hash": "0x9ae8151519c1bef1b480a162c96904142c1cdc22a81c44f624f2a73691430f8c",
  "parentHash": "0x1a922c4f26e0a3e28af634afe32da61ec8495edfea67d32181951e05081bdddf",
  "number": 46300,
  "timestamp": 1438920830,
  "nonce": "0x5a69a0aa71b6e607",
  "difficulty": 1460393785110,
  "gasLimit": {
    "_hex": "0x58d0"
  },
  "gasUsed": {
    "_hex": "0x5208"
  },
  "miner": "0x47ff6576639c2e94762eA5443978D7681C0E78DC",
  "extraData": "0x476574682f76312e302e312f6c696e75782f676f312e342e32",
  "transactions": [
    {
      "hash": "0xd23ae9b2e5c68caf2c5663af5ba27679dc3b3cb781c4dc698abbd17d63e32e9f",
      "blockHash": "0x9ae8151519c1bef1b480a162c96904142c1cdc22a81c44f624f2a73691430f8c",
      "blockNumber": 46300,
      "transactionIndex": 0,
      "confirmations": null,
      "from": "0xFD2605a2bF58fDbB90db1Da55dF61628B47F9e8c",
      "gasPrice": {
        "_hex": "0x4526f0770f"
      },
      "gasLimit": {
        "_hex": "0x5208"
      },
      "to": "0x88B3672d21FeCAa5313C37c59dE4ED53fD8c76fD",
      "value": {
        "_hex": "0x2386f26fc10000"
      },
      "nonce": 4,
      "data": "0x",
      "r": "0xafbf6a7356af311aab50f2f213e429625cfcf1e9681b89b486764352abcca181",
      "s": "0x09d2b46ff8affccc77309d6ca10723de4b3b54666de88e047c18567f21d4e7d1",
      "v": 28,
      "creates": null,
      "raw": "0xf86b04854526f0770f8252089488b3672d21fecaa5313c37c59de4ed53fd8c76fd872386f26fc10000801ca0afbf6a7356af311aab50f2f213e429625cfcf1e9681b89b486764352abcca181a009d2b46ff8affccc77309d6ca10723de4b3b54666de88e047c18567f21d4e7d1",
      "networkId": 0,
      "chainId": 0
    }
  ]
}