{
  "hash": "0x29231f642776933cfcad04758e0b6b1d79170a998b74c12efc09d42f4d957e9b",
  "parentHash": "0xaddd8b9d3595220278f0e7c9f4ac668c452fe8d99bae073513b513227edddc16",
  "number": 51261,
  "timestamp": 1439001923,
  "nonce": "0xcca6147060899252",
  "difficulty": 1571208694675,
  "gasLimit": {
    "_hex": "0x9f154"
  },
  "gasUsed": {
    "_hex": "0x15f90"
  },
  "miner": "0xf927a40C8B7F6E07c5af7FA2155B4864a4112B13",
  "extraData": "0x476574682f76312e302e312f6c696e75782f676f312e342e32",
  "transactions": [
    {
      "hash": "0x2b48ff77375e007293c096e2fe534960cf6c7ccab5959ea13e1d45c39930a139",
      "blockHash": "0x29231f642776933cfcad04758e0b6b1d79170a998b74c12efc09d42f4d957e9b",
      "blockNumber": 51261,
      "transactionIndex": 0,
      "confirmations": null,
      "from": "0x2905726Ed11131A984ce9C0119cB32DBC99dE90B",
      "gasPrice": {
        "_hex": "0x108fb7d5211"
      },
      "gasLimit": {
        "_hex": "0x15f90"
      },
      "to": "0x8bbF81e9A8E936242354047C9905d621E269c7f7",
      "value": {
        "_hex": "0x38d7ea4c68000"
      },
      "nonce": 7,
      "data": "0xa69beaba6558697374656e5a000000000000000000000000000000000000000000000000",
      "r": "0x725db62e71f91f24891b1358c7ef96ad9f4f75e6b32135a4c63b477c5dac6d82",
      "s": "0x17fdfa0653c6ddcdb78bbde533ac9f001b610fba63c9bcd1ce1054d5f818da4f",
      "v": 27,
      "creates": null,
      "raw": "0xf89107860108fb7d521183015f90948bbf81e9a8e936242354047c9905d621e269c7f787038d7ea4c68000a4a69beaba6558697374656e5a0000000000000000000000000000000000000000000000001ba0725db62e71f91f24891b1358c7ef96ad9f4f75e6b32135a4c63b477c5dac6d82a017fdfa0653c6ddcdb78bbde533ac9f001b610fba63c9bcd1ce1054d5f818da4f",
      "networkId": 0,
      "chainId": 0
    }
  ]
}