{
  "hash": "0xb13e5b5a4160f308d73e2b99274f843779890ed590fc106c55420a27e34d4729",
  "parentHash": "0xd74714d5dde2af1e89862ce1d03c273c3ab211d138452e3bef357ee38ab62ed0",
  "number": 94820,
  "timestamp": 1439714658,
  "nonce": "0x41c208be272d7917",
  "difficulty": 3500146979602,
  "gasLimit": {
    "_hex": "0x2fefd8"
  },
  "gasUsed": {
    "_hex": "0x5208"
  },
  "miner": "0x6F2a83BC1c1846bf84ffC43B8776f1AA4a9F890F",
  "extraData": "0x",
  "transactions": [
    {
      "hash": "0x26d9d0936b7233361fe8b5f5f40dddf3d4a2a9e06c50d1d97e457bf9749e959a",
      "blockHash": "0xb13e5b5a4160f308d73e2b99274f843779890ed590fc106c55420a27e34d4729",
      "blockNumber": 94820,
      "transactionIndex": 0,
      "confirmations": null,
      "from": "0xaee51F5A76D12D801527Ca6FF6aDA1cA0BBeFF0b",
      "gasPrice": {
        "_hex": "0xd9f74f14a"
      },
      "gasLimit": {
        "_hex": "0x5208"
      },
      "to": "0x32Be343B94f860124dC4fEe278FDCBD38C102D88",
      "value": {
        "_hex": "0x3af28efba3cf3400"
      },
      "nonce": 0,
      "data": "0x",
      "r": "0x70c921a375d5be22dad4c2aeca6e744c83af2de9147a6c3a8d25224f8aace4bb",
      "s": "0x0b8f35f2ac5e95fc09c1a4839f5de0af9054f7b32718d321d254253c79e604a3",
      "v": 28,
      "creates": null,
      "raw": "0xf86c80850d9f74f14a8252089432be343b94f860124dc4fee278fdcbd38c102d88883af28efba3cf3400801ca070c921a375d5be22dad4c2aeca6e744c83af2de9147a6c3a8d25224f8aace4bba00b8f35f2ac5e95fc09c1a4839f5de0af9054f7b32718d321d254253c79e604a3",
      "networkId": 0,
      "chainId": 0
    }
  ]
}