{
  "hash": "0xd764f8773ae4178c8e81ab1826c7445dee074bc0d724ad020c30e01914846e55",
  "parentHash": "0xd98c94a5f5be9b026146d06da04aa0f044cfc9b63a5bb12ee0de046cffb72f9b",
  "number": 105543,
  "timestamp": 1439889290,
  "nonce": "0x89c37ab9c5962cb4",
  "difficulty": 4412479847535,
  "gasLimit": {
    "_hex": "0x2fefd8"
  },
  "gasUsed": {
    "_hex": "0x5208"
  },
  "miner": "0xe6A7a1d47ff21B6321162AEA7C6CB457D5476Bca",
  "extraData": "0x476574682f76312e302e312d38326566323666362f6c696e75782f676f312e34",
  "transactions": [
    {
      "hash": "0xc4d42d62f73dacd06d65d5d8fe66ea066474e6d6b8213c41914f9d770ca3110d",
      "blockHash": "0xd764f8773ae4178c8e81ab1826c7445dee074bc0d724ad020c30e01914846e55",
      "blockNumber": 105543,
      "transactionIndex": 0,
      "confirmations": null,
      "from": "0x7e8504a5e26df87f6D26fA1ba148BE146F42775A",
      "gasPrice": {
        "_hex": "0xda609479d"
      },
      "gasLimit": {
        "_hex": "0x15f90"
      },
      "to": "0x9f78552704fe7e52cC7C3853534aA2C3cf580D54",
      "value": {
        "_hex": "0x1158e460913d00000"
      },
      "nonce": 0,
      "data": "0x",
      "r": "0xdf2eab23675122e4f7c8811625f5144f88930a6b0b455da9e808122d712cb96e",
      "s": "0x5edd0274a476b108a77ea143b3d235b15795b7d6d005f4671eb37637ae9cba75",
      "v": 27,
      "creates": null,
      "raw": "0xf86e80850da609479d83015f90949f78552704fe7e52cc7c3853534aa2c3cf580d548901158e460913d00000801ba0df2eab23675122e4f7c8811625f5144f88930a6b0b455da9e808122d712cb96ea05edd0274a476b108a77ea143b3d235b15795b7d6d005f4671eb37637ae9cba75",
      "networkId": 0,
      "chainId": 0
    }
  ]
}