{
  "hash": "0x4206953cbe25ef09ffc9aa838374cee3074acba61e0e38f918375d55c4fb914e",
  "parentHash": "0x2c3f0bfd4d1426e5f2b1638823c3c2f1f01fea4a324c76f67727afe6d0073d87",
  "number": 62174,
  "timestamp": 1439184413,
  "nonce": "0x6fd97cab102ea772",
  "difficulty": 1770301267146,
  "gasLimit": {
    "_hex": "0x2fe3de"
  },
  "gasUsed": {
    "_hex": "0x546c"
  },
  "miner": "0x356CEFb4Eb836DC68403308309E075a31DD991D2",
  "extraData": "0x476574682f76312e302e302f6c696e75782f676f312e342e32",
  "transactions": [
    {
      "hash": "0x885fe038a5670128022f3c2f8ffc32cf66b4bc477be8593d89eeabead6461da6",
      "blockHash": "0x4206953cbe25ef09ffc9aa838374cee3074acba61e0e38f918375d55c4fb914e",
      "blockNumber": 62174,
      "transactionIndex": 0,
      "confirmations": null,
      "from": "0x47219229E8cD56659a65c2a943E2DD9A8f4Bfd89",
      "gasPrice": {
        "_hex": "0x110c8f7d8de"
      },
      "gasLimit": {
        "_hex": "0xc350"
      },
      "to": "0x2910543Af39abA0Cd09dBb2D50200b3E800A63D2",
      "value": {
        "_hex": "0x28a857425466f80000"
      },
      "nonce": 0,
      "data": "0x454e59504257313138",
      "r": "0x8a226d63e57144a02fbe02d2a888886e304e8ba2ca3f2891e70d76f53eeab535",
      "s": "0xde078d68cc3bd67625df1ab6683230647f6df8bf2427fcd0535b3dcbf878227e",
      "v": 27,
      "creates": null,
      "raw": "0xf87780860110c8f7d8de82c350942910543af39aba0cd09dbb2d50200b3e800a63d28928a857425466f8000089454e595042573131381ba08a226d63e57144a02fbe02d2a888886e304e8ba2ca3f2891e70d76f53eeab535a0de078d68cc3bd67625df1ab6683230647f6df8bf2427fcd0535b3dcbf878227e",
      "networkId": 0,
      "chainId": 0
    }
  ]
}