{
  "hash": "0xbb5a388c9ab34deb10efaa4448314f92a8756c763cf648502471e2af95275ce9",
  "parentHash": "0xd1f8e779d80b6f901c5f035a83cdd92ba06a0543163b034adeb55a4775f11734",
  "number": 68608,
  "timestamp": 1439290644,
  "nonce": "0x03d550e59610ec68",
  "difficulty": 2026124682394,
  "gasLimit": {
    "_hex": "0x2fefd8"
  },
  "gasUsed": {
    "_hex": "0x116dbc"
  },
  "miner": "0xe3002160DEbB2936e6ca494ed36F28056ed7aEfd",
  "extraData": "0x",
  "transactions": [
    {
      "hash": "0x75baf8b331bb792eea66fc198871719ea13954c338260827447fe91b515920c5",
      "blockHash": "0xbb5a388c9ab34deb10efaa4448314f92a8756c763cf648502471e2af95275ce9",
      "blockNumber": 68608,
      "transactionIndex": 0,
      "confirmations": null,
      "from": "0xe72717ae0d6792286968449ABA7d469BCAE1d957",
      "gasPrice": {
        "_hex": "0xe1c21c285"
      },
      "gasLimit": {
        "_hex": "0x5208"
      },
      "to": "0x32Be343B94f860124dC4fEe278FDCBD38C102D88",
      "value": {
        "_hex": "0x11589c095d0bb6000"
      },
      "nonce": 1,
      "data": "0x",
      "r": "0x1fecd02e33ff3a7afa70664eb7466192c2db30009f62a2103a5b8dbc82c98f45",
      "s": "0x4722b75d0f0f1654e04f73c08571f1e4b2fdb8784be4a3b9901ec0745e0ae5ee",
      "v": 27,
      "creates": null,
      "raw": "0xf86d01850e1c21c2858252089432be343b94f860124dc4fee278fdcbd38c102d8889011589c095d0bb6000801ba01fecd02e33ff3a7afa70664eb7466192c2db30009f62a2103a5b8dbc82c98f45a04722b75d0f0f1654e04f73c08571f1e4b2fdb8784be4a3b9901ec0745e0ae5ee",
      "networkId": 0,
      "chainId": 0
    },
    {
      "hash": "0x2e7d2a5aea5de18c2cda38cbcba2d96e50c1c25105d5f8cd2039af76be311844",
      "blockHash": "0xbb5a388c9ab34deb10efaa4448314f92a8756c763cf648502471e2af95275ce9",
      "blockNumber": 68608,
      "transactionIndex": 1,
      "confirmations": null,
      "from": "0x96671742b8524F6680E6a64bB0500b9b0D0373A6",
      "gasPrice": {
        "_hex": "0xba43b7400"
      },
      "gasLimit": {
        "_hex": "0x15f90"
      },
      "to": "0x793AE8C1b1a160BFc07BFB0d04F85eab1A71F4f2",
      "value": {
        "_hex": "0x0"
      },
      "nonce": 0,
      "data": "0x3ba15036",
      "r": "0x4dda94692a56059b046bf38bda528d807bf20b780e50e2674541655b07b0dd4d",
      "s": "0x642481df71d518c9c24ccb7d66196d5eb3a6d521aaacd018c58f98083070617a",
      "v": 28,
      "creates": null,
      "raw": "0xf86980850ba43b740083015f9094793ae8c1b1a160bfc07bfb0d04f85eab1a71f4f280843ba150361ca04dda94692a56059b046bf38bda528d807bf20b780e50e2674541655b07b0dd4da0642481df71d518c9c24ccb7d66196d5eb3a6d521aaacd018c58f98083070617a",
      "networkId": 0,
      "chainId": 0
    },
    {
      "hash": "0x676c6faab517c2c1b4fbfe7e57e38f90cf54d274c8a0453725cb26babeaf8661",
      "blockHash": "0xbb5a388c9ab34deb10efaa4448314f92a8756c763cf648502471e2af95275ce9",
      "blockNumber": 68608,
      "transactionIndex": 2,
      "confirmations": null,
      "from": "0x62750dd7e3E377BA03f3550c77b231859bFa88ea",
      "gasPrice": {
        "_hex": "0xba43b7400"
      },
      "gasLimit": {
        "_hex": "0x15f90"
      },
      "to": "0x793AE8C1b1a160BFc07BFB0d04F85eab1A71F4f2",
      "value": {
        "_hex": "0x0"
      },
      "nonce": 0,
      "data": "0x3ba15036",
      "r": "0xf691205b4b1de285eedcc8fc160a671032c5340f11dcc7aac703ce763977c3ca",
      "s": "0x0f8502c7822b4171bee5472dc8982d1c7243824d9077fd037d803e66337e3326",
      "v": 27,
      "creates": null,
      "raw": "0xf86980850ba43b740083015f9094793ae8c1b1a160bfc07bfb0d04f85eab1a71f4f280843ba150361ba0f691205b4b1de285eedcc8fc160a671032c5340f11dcc7aac703ce763977c3caa00f8502c7822b4171bee5472dc8982d1c7243824d9077fd037d803e66337e3326",
      "networkId": 0,
      "chainId": 0
    },
    {
      "hash": "0x54c6cc900864aa5005a1d4d4a68db47fb47fd3b001baa6128f530622d7f7085d",
      "blockHash": "0xbb5a388c9ab34deb10efaa4448314f92a8756c763cf648502471e2af95275ce9",
      "blockNumber": 68608,
      "transactionIndex": 3,
      "confirmations": null,
      "from": "0xfE94F82d40F91E6A01CdBE078be982b8b54389a4",
      "gasPrice": {
        "_hex": "0xba43b7400"
      },
      "gasLimit": {
        "_hex": "0x15f90"
      },
      "to": "0x793AE8C1b1a160BFc07BFB0d04F85eab1A71F4f2",
      "value": {
        "_hex": "0x0"
      },
      "nonce": 0,
      "data": "0x3ba15036",
      "r": "0x7da9e72d608ab3e542f6e64ba12b081282e36b44cc1db58bb2c84d3bc6ce08f5",
      "s": "0x10732f8071fccf9ae26fe1b9d79ebd1ae7b534f229b5e1f6ed91eaf28560aa67",
      "v": 27,
      "creates": null,
      "raw": "0xf86980850ba43b740083015f9094793ae8c1b1a160bfc07bfb0d04f85eab1a71f4f280843ba150361ba07da9e72d608ab3e542f6e64ba12b081282e36b44cc1db58bb2c84d3bc6ce08f5a010732f8071fccf9ae26fe1b9d79ebd1ae7b534f229b5e1f6ed91eaf28560aa67",
      "networkId": 0,
      "chainId": 0
    },
    {
      "hash": "0x253bb976e814510db5ce36d2a49038df450e8290b151fa33a20c19c0198c7a27",
      "blockHash": "0xbb5a388c9ab34deb10efaa4448314f92a8756c763cf648502471e2af95275ce9",
      "blockNumber": 68608,
      "transactionIndex": 4,
      "confirmations": null,
      "from": "0x19Ea3eC632b4dC815da70ea846e2F7b8b18668D2",
      "gasPrice": {
        "_hex": "0xba43b7400"
      },
      "gasLimit": {
        "_hex": "0x15f90"
      },
      "to": "0x793AE8C1b1a160BFc07BFB0d04F85eab1A71F4f2",
      "value": {
        "_hex": "0x0"
      },
      "nonce": 0,
      "data": "0x3ba15036",
      "r": "0x856b9e1312ecf80cfe87c718fb9061b98de6a6ba4fa12ce40ebdff0d8683adca",
      "s": "0x0e5ad39297a45cbdc153b07458a0cec9dbe72a2873911d40f344cf9a49936c67",
      "v": 27,
      "creates": null,
      "raw": "0xf86980850ba43b740083015f9094793ae8c1b1a160bfc07bfb0d04f85eab1a71f4f280843ba150361ba0856b9e1312ecf80cfe87c718fb9061b98de6a6ba4fa12ce40ebdff0d8683adcaa00e5ad39297a45cbdc153b07458a0cec9dbe72a2873911d40f344cf9a49936c67",
      "networkId": 0,
      "chainId": 0
    },
    {
      "hash": "0x6d72338fc976389b6904163b1ee90b82c1a8836ba101f72501823f8809dd5b76",
      "blockHash": "0xbb5a388c9ab34deb10efaa4448314f92a8756c763cf648502471e2af95275ce9",
      "blockNumber": 68608,
      "transactionIndex": 5,
      "confirmations": null,
      "from": "0x438C20e016acd6bdd5f332d8d68ADD063252d2bf",
      "gasPrice": {
        "_hex": "0xba43b7400"
      },
      "gasLimit": {
        "_hex": "0x15f90"
      },
      "to": "0x793AE8C1b1a160BFc07BFB0d04F85eab1A71F4f2",
      "value": {
        "_hex": "0x0"
      },
      "nonce": 0,
      "data": "0x3ba15036",
      "r": "0xd4ce9dc3d7e69e78db99b21847fbf04c66e22f1e425d32f81187cf6b76cdd7d6",
      "s": "0x6072ef2438610c28d7a77430388d7106dbcdb7c1c0ee5eec175968f663ae347a",
      "v": 28,
      "creates": null,
      "raw": "0xf86980850ba43b740083015f9094793ae8c1b1a160bfc07bfb0d04f85eab1a71f4f280843ba150361ca0d4ce9dc3d7e69e78db99b21847fbf04c66e22f1e425d32f81187cf6b76cdd7d6a06072ef2438610c28d7a77430388d7106dbcdb7c1c0ee5eec175968f663ae347a",
      "networkId": 0,
      "chainId": 0
    },
    {
      "hash": "0x9b4df5e5c08995d4c896fcf4b6625d1eccbac721b9f853346cec2616129dddee",
      "blockHash": "0xbb5a388c9ab34deb10efaa4448314f92a8756c763cf648502471e2af95275ce9",
      "blockNumber": 68608,
      "transactionIndex": 6,
      "confirmations": null,
      "from": "0x50a058fBc8901adC1cc80d08D698742c9C562478",
      "gasPrice": {
        "_hex": "0xba43b7400"
      },
      "gasLimit": {
        "_hex": "0x15f90"
      },
      "to": "0x793AE8C1b1a160BFc07BFB0d04F85eab1A71F4f2",
      "value": {
        "_hex": "0x0"
      },
      "nonce": 0,
      "data": "0x3ba15036",
      "r": "0xd1b6f488b47b598083d4bd89b21a72e13b67aa736d4a01224b9b4b9833e31730",
      "s": "0x12c56f5b3a0bbdefdaa8edda68d4508fbf8f0c7848c1ebb56dccb81ad87aae0a",
      "v": 28,
      "creates": null,
      "raw": "0xf86980850ba43b740083015f9094793ae8c1b1a160bfc07bfb0d04f85eab1a71f4f280843ba150361ca0d1b6f488b47b598083d4bd89b21a72e13b67aa736d4a01224b9b4b9833e31730a012c56f5b3a0bbdefdaa8edda68d4508fbf8f0c7848c1ebb56dccb81ad87aae0a",
      "networkId": 0,
      "chainId": 0
    },
    {
      "hash": "0x94b7c288f1664f6ba3bc04da4d895031b059419435ae43348f15ad2dc7bcb453",
      "blockHash": "0xbb5a388c9ab34deb10efaa4448314f92a8756c763cf648502471e2af95275ce9",
      "blockNumber": 68608,
      "transactionIndex": 7,
      "confirmations": null,
      "from": "0x76f609cF358c4ea0e92c606A95717A1BC2690242",
      "gasPrice": {
        "_hex": "0xba43b7400"
      },
      "gasLimit": {
        "_hex": "0x15f90"
      },
      "to": "0x793AE8C1b1a160BFc07BFB0d04F85eab1A71F4f2",
      "value": {
        "_hex": "0x0"
      },
      "nonce": 0,
      "data": "0x3ba15036",
      "r": "0x9d59340e4161d57c631522aa55551fcd5860bbc16b817b9a9a53fdf4f54e60a7",
      "s": "0x413667d46c4c4d27bd22f4d9a5000c4d31693ea17cf9affe8944286f72683990",
      "v": 27,
      "creates": null,
      "raw": "0xf86980850ba43b740083015f9094793ae8c1b1a160bfc07bfb0d04f85eab1a71f4f280843ba150361ba09d59340e4161d57c631522aa55551fcd5860bbc16b817b9a9a53fdf4f54e60a7a0413667d46c4c4d27bd22f4d9a5000c4d31693ea17cf9affe8944286f72683990",
      "networkId": 0,
      "chainId": 0
    },
    {
      "hash": "0x70ca8e21a2ee8850c5563092096e20a82d4b33de606cad7f1343204ec1ba1e86",
      "blockHash": "0xbb5a388c9ab34deb10efaa4448314f92a8756c763cf648502471e2af95275ce9",
      "blockNumber": 68608,
      "transactionIndex": 8,
      "confirmations": null,
      "from": "0x2796c03EcB82cD729ff8AF963c506d7cF52E19A3",
      "gasPrice": {
        "_hex": "0xba43b7400"
      },
      "gasLimit": {
        "_hex": "0x15f90"
      },
      "to": "0x793AE8C1b1a160BFc07BFB0d04F85eab1A71F4f2",
      "value": {
        "_hex": "0x0"
      },
      "nonce": 0,
      "data": "0x3ba15036",
      "r": "0xc73c12186036ce7e93f18b88952eb367c71cec6c48be50e7ae73404a56f36f12",
      "s": "0x621f1d95eed6b4db52c35556412b6f00b6a54481181dfd797ee3573496df239e",
      "v": 27,
      "creates": null,
      "raw": "0xf86980850ba43b740083015f9094793ae8c1b1a160bfc07bfb0d04f85eab1a71f4f280843ba150361ba0c73c12186036ce7e93f18b88952eb367c71cec6c48be50e7ae73404a56f36f12a0621f1d95eed6b4db52c35556412b6f00b6a54481181dfd797ee3573496df239e",
      "networkId": 0,
      "chainId": 0
    },
    {
      "hash": "0x13596c65174b81ff595183ca13da30664ec96ce9a12234d5f25abe6e5a51014e",
      "blockHash": "0xbb5a388c9ab34deb10efaa4448314f92a8756c763cf648502471e2af95275ce9",
      "blockNumber": 68608,
      "transactionIndex": 9,
      "confirmations": null,
      "from": "0x7Aa7c5340322062994f0e140d6877C89Fd6A195E",
      "gasPrice": {
        "_hex": "0xba43b7400"
      },
      "gasLimit": {
        "_hex": "0x15f90"
      },
      "to": "0x793AE8C1b1a160BFc07BFB0d04F85eab1A71F4f2",
      "value": {
        "_hex": "0x0"
      },
      "nonce": 0,
      "data": "0x3ba15036",
      "r": "0x0590424968e4056d32e9942b4dd95976ee447d35f6b68be030411c8d046efa6f",
      "s": "0x4a6b8309468a3c3c2f1f90f16700ff83a01a0cfb854488104e8a06275226b5d9",
      "v": 28,
      "creates": null,
      "raw": "0xf86980850ba43b740083015f9094793ae8c1b1a160bfc07bfb0d04f85eab1a71f4f280843ba150361ca00590424968e4056d32e9942b4dd95976ee447d35f6b68be030411c8d046efa6fa04a6b8309468a3c3c2f1f90f16700ff83a01a0cfb854488104e8a06275226b5d9",
      "networkId": 0,
      "chainId": 0
    },
    {
      "hash": "0x33ca40b153f427d63e2c1e6945f241a4ef62bbe314e63faae88107a21be5dba0",
      "blockHash": "0xbb5a388c9ab34deb10efaa4448314f92a8756c763cf648502471e2af95275ce9",
      "blockNumber": 68608,
      "transactionIndex": 10,
      "confirmations": null,
      "from": "0x384AbF65B9859C51a3DcEEE22eB621BdE2a62B95",
      "gasPrice": {
        "_hex": "0xba43b7400"
      },
      "gasLimit": {
        "_hex": "0x15f90"
      },
      "to": "0x793AE8C1b1a160BFc07BFB0d04F85eab1A71F4f2",
      "value": {
        "_hex": "0x0"
      },
      "nonce": 0,
      "data": "0x3ba15036",
      "r": "0x8e5823544d63b66652176f74dfc02531cdd8ca93b5af27ae9362ed1fb5d51938",
      "s": "0x6e7476064a6d14f3040218a5d76f734f8eb38f2098d477acfca6f758b5f160b5",
      "v": 28,
      "creates": null,
      "raw": "0xf86980850ba43b740083015f9094793ae8c1b1a160bfc07bfb0d04f85eab1a71f4f280843ba150361ca08e5823544d63b66652176f74dfc02531cdd8ca93b5af27ae9362ed1fb5d51938a06e7476064a6d14f3040218a5d76f734f8eb38f2098d477acfca6f758b5f160b5",
      "networkId": 0,
      "chainId": 0
    },
    {
      "hash": "0xe19a8459d634172c88dc66a6488031c848772aa3dd192a2447dd059570359839",
      "blockHash": "0xbb5a388c9ab34deb10efaa4448314f92a8756c763cf648502471e2af95275ce9",
      "blockNumber": 68608,
      "transactionIndex": 11,
      "confirmations": null,
      "from": "0x0C04Db274Ba71332a8e170762509Fc0f55266177",
      "gasPrice": {
        "_hex": "0xba43b7400"
      },
      "gasLimit": {
        "_hex": "0x15f90"
      },
      "to": "0x793AE8C1b1a160BFc07BFB0d04F85eab1A71F4f2",
      "value": {
        "_hex": "0x0"
      },
      "nonce": 0,
      "data": "0x3ba15036",
      "r": "0x718492a3e225a5ab0cc5f4a484d57a9c74668179e3bc82fab2cb13e43789dfaa",
      "s": "0x7873acfdda5c276acf5561b500e65a553c97d4b9ef83c48e996a0cb9c3ed5f30",
      "v": 27,
      "creates": null,
      "raw": "0xf86980850ba43b740083015f9094793ae8c1b1a160bfc07bfb0d04f85eab1a71f4f280843ba150361ba0718492a3e225a5ab0cc5f4a484d57a9c74668179e3bc82fab2cb13e43789dfaaa07873acfdda5c276acf5561b500e65a553c97d4b9ef83c48e996a0cb9c3ed5f30",
      "networkId": 0,
      "chainId": 0
    },
    {
      "hash": "0x42fc2d03c8ab7bf15551053ac9cb31d5e78c20be528920e5cbd3bcdc826d8c3d",
      "blockHash": "0xbb5a388c9ab34deb10efaa4448314f92a8756c763cf648502471e2af95275ce9",
      "blockNumber": 68608,
      "transactionIndex": 12,
      "confirmations": null,
      "from": "0x58A395953681cE59f79E5970ada233e9eF37389F",
      "gasPrice": {
        "_hex": "0xba43b7400"
      },
      "gasLimit": {
        "_hex": "0x15f90"
      },
      "to": "0x793AE8C1b1a160BFc07BFB0d04F85eab1A71F4f2",
      "value": {
        "_hex": "0x0"
      },
      "nonce": 0,
      "data": "0x3ba15036",
      "r": "0x9fc02063f5c7c62c4bfd5a74d1744e492ced3524003b49a46d950f284ce4cb0a",
      "s": "0x2cd7ab0313113d134209d5491d083fc36c86a12f75352175fcc464b648a7482a",
      "v": 28,
      "creates": null,
      "raw": "0xf86980850ba43b740083015f9094793ae8c1b1a160bfc07bfb0d04f85eab1a71f4f280843ba150361ca09fc02063f5c7c62c4bfd5a74d1744e492ced3524003b49a46d950f284ce4cb0aa02cd7ab0313113d134209d5491d083fc36c86a12f75352175fcc464b648a7482a",
      "networkId": 0,
      "chainId": 0
    },
    {
      "hash": "0x87479275df908c065019b73f09269b1020173e598c9692570d278d63d82113c0",
      "blockHash": "0xbb5a388c9ab34deb10efaa4448314f92a8756c763cf648502471e2af95275ce9",
      "blockNumber": 68608,
      "transactionIndex": 13,
      "confirmations": null,
      "from": "0x936b8692AEF98C883C10bb1a76004D1788846F7E",
      "gasPrice": {
        "_hex": "0xba43b7400"
      },
      "gasLimit": {
        "_hex": "0x15f90"
      },
      "to": "0x793AE8C1b1a160BFc07BFB0d04F85eab1A71F4f2",
      "value": {
        "_hex": "0x0"
      },
      "nonce": 0,
      "data": "0x3ba15036",
      "r": "0xdcaa40e6b3304b2f78f6803e44d939d12afc708393b8203f692fc634cde34709",
      "s": "0x5b18003bbd348404889d3303710a898953c4f8c7270925c01b9cc292823dd603",
      "v": 28,
      "creates": null,
      "raw": "0xf86980850ba43b740083015f9094793ae8c1b1a160bfc07bfb0d04f85eab1a71f4f280843ba150361ca0dcaa40e6b3304b2f78f6803e44d939d12afc708393b8203f692fc634cde34709a05b18003bbd348404889d3303710a898953c4f8c7270925c01b9cc292823dd603",
      "networkId": 0,
      "chainId": 0
    },
    {
      "hash": "0x9c193a9df78e2a3cacd8c75e7b1aca7f6ae94322cf0c4dd57dcb677e8cfb941b",
      "blockHash": "0xbb5a388c9ab34deb10efaa4448314f92a8756c763cf648502471e2af95275ce9",
      "blockNumber": 68608,
      "transactionIndex": 14,
      "confirmations": null,
      "from": "0x8Be704f380EB2C5aFCc6F487592EF3D4db5bF2B6",
      "gasPrice": {
        "_hex": "0xba43b7400"
      },
      "gasLimit": {
        "_hex": "0x15f90"
      },
      "to": "0x793AE8C1b1a160BFc07BFB0d04F85eab1A71F4f2",
      "value": {
        "_hex": "0x0"
      },
      "nonce": 0,
      "data": "0x3ba15036",
      "r": "0x3289b38e467d92a4a9f613c158219ea186402770e6e8b1f9e48b1f9d82205beb",
      "s": "0x3843f25e194087be55939a77773f0ae7fc80dc9289161b7e3b3b113ef0b1317c",
      "v": 28,
      "creates": null,
      "raw": "0xf86980850ba43b740083015f9094793ae8c1b1a160bfc07bfb0d04f85eab1a71f4f280843ba150361ca03289b38e467d92a4a9f613c158219ea186402770e6e8b1f9e48b1f9d82205beba03843f25e194087be55939a77773f0ae7fc80dc9289161b7e3b3b113ef0b1317c",
      "networkId": 0,
      "chainId": 0
    },
    {
      "hash": "0x538a48fdca92245a8f29f792e6d224607ecc242e3bace61220612c7fe33d98d6",
      "blockHash": "0xbb5a388c9ab34deb10efaa4448314f92a8756c763cf648502471e2af95275ce9",
      "blockNumber": 68608,
      "transactionIndex": 15,
      "confirmations": null,
      "from": "0x7A084a4041dAEe4fE8cdeAa8eB8a897B1B8E002D",
      "gasPrice": {
        "_hex": "0xba43b7400"
      },
      "gasLimit": {
        "_hex": "0x15f90"
      },
      "to": "0x793AE8C1b1a160BFc07BFB0d04F85eab1A71F4f2",
      "value": {
        "_hex": "0x0"
      },
      "nonce": 0,
      "data": "0x3ba15036",
      "r": "0xe75e9798d3a70dbbcd286413f97b7b9f3cc90d32a2fd2e196b7f92ad937b46c3",
      "s": "0x3abb33ddebe2d4801edb615c72cfc395b8325d8f337e46a2ad849499c31f2787",
      "v": 27,
      "creates": null,
      "raw": "0xf86980850ba43b740083015f9094793ae8c1b1a160bfc07bfb0d04f85eab1a71f4f280843ba150361ba0e75e9798d3a70dbbcd286413f97b7b9f3cc90d32a2fd2e196b7f92ad937b46c3a03abb33ddebe2d4801edb615c72cfc395b8325d8f337e46a2ad849499c31f2787",
      "networkId": 0,
      "chainId": 0
    },
    {
      "hash": "0xf203cc552bd3abcfd39cd4458d548cbde4a169933178fe5b7cfe18f22791fb1d",
      "blockHash": "0xbb5a388c9ab34deb10efaa4448314f92a8756c763cf648502471e2af95275ce9",
      "blockNumber": 68608,
      "transactionIndex": 16,
      "confirmations": null,
      "from": "0x7314750910BA9cA486ae3d6151a6f5ab62ADa78A",
      "gasPrice": {
        "_hex": "0xba43b7400"
      },
      "gasLimit": {
        "_hex": "0x15f90"
      },
      "to": "0x793AE8C1b1a160BFc07BFB0d04F85eab1A71F4f2",
      "value": {
        "_hex": "0x0"
      },
      "nonce": 0,
      "data": "0x3ba15036",
      "r": "0x67fc07cbf0c073f39076ba75ce1625e0e724253d79999a2f6f332999519fdc57",
      "s": "0x7d17462eec4a945c98f9a6b0cee14bc7f3fea4cc7be1adff97b660fbdfc44a4d",
      "v": 28,
      "creates": null,
      "raw": "0xf86980850ba43b740083015f9094793ae8c1b1a160bfc07bfb0d04f85eab1a71f4f280843ba150361ca067fc07cbf0c073f39076ba75ce1625e0e724253d79999a2f6f332999519fdc57a07d17462eec4a945c98f9a6b0cee14bc7f3fea4cc7be1adff97b660fbdfc44a4d",
      "networkId": 0,
      "chainId": 0
    },
    {
      "hash": "0x20b7a279f29660a3a1608596df5f3c5971265545ca621af772e4b1ad461fed77",
      "blockHash": "0xbb5a388c9ab34deb10efaa4448314f92a8756c763cf648502471e2af95275ce9",
      "blockNumber": 68608,
      "transactionIndex": 17,
      "confirmations": null,
      "from": "0xBD390cd25963B722Fe009209114385736E474B93",
      "gasPrice": {
        "_hex": "0xba43b7400"
      },
      "gasLimit": {
        "_hex": "0x15f90"
      },
      "to": "0x793AE8C1b1a160BFc07BFB0d04F85eab1A71F4f2",
      "value": {
        "_hex": "0x0"
      },
      "nonce": 0,
      "data": "0x3ba15036",
      "r": "0x95ea47faccb5ff0566316130a34ef6ac8cc7f6d3019c8ae299cf1eb32f10f096",
      "s": "0x50b0633a22e2c7501906eaaa7f55d97895727e49da8914c8fb96ea4f07b2f38e",
      "v": 28,
      "creates": null,
      "raw": "0xf86980850ba43b740083015f9094793ae8c1b1a160bfc07bfb0d04f85eab1a71f4f280843ba150361ca095ea47faccb5ff0566316130a34ef6ac8cc7f6d3019c8ae299cf1eb32f10f096a050b0633a22e2c7501906eaaa7f55d97895727e49da8914c8fb96ea4f07b2f38e",
      "networkId": 0,
      "chainId": 0
    },
    {
      "hash": "0x5dee121079bc515345ffe3edd8c6a4dbadcc5c0013410a3812b6614c98c59dce",
      "blockHash": "0xbb5a388c9ab34deb10efaa4448314f92a8756c763cf648502471e2af95275ce9",
      "blockNumber": 68608,
      "transactionIndex": 18,
      "confirmations": null,
      "from": "0xD3f0dFc1f9e957527DC7819ab0Eb836461DA7D66",
      "gasPrice": {
        "_hex": "0xba43b7400"
      },
      "gasLimit": {
        "_hex": "0x15f90"
      },
      "to": "0x793AE8C1b1a160BFc07BFB0d04F85eab1A71F4f2",
      "value": {
        "_hex": "0x0"
      },
      "nonce": 0,
      "data": "0x3ba15036",
      "r": "0x0cbeafa8005cc01d701afd6e80275e960f376e3e7dc11e396156512381243c4e",
      "s": "0x1a8b2c46cb613cb7f97408708f3e0e3fc0390b2f605a18f5fdf2a071ea3967da",
      "v": 28,
      "creates": null,
      "raw": "0xf86980850ba43b740083015f9094793ae8c1b1a160bfc07bfb0d04f85eab1a71f4f280843ba150361ca00cbeafa8005cc01d701afd6e80275e960f376e3e7dc11e396156512381243c4ea01a8b2c46cb613cb7f97408708f3e0e3fc0390b2f605a18f5fdf2a071ea3967da",
      "networkId": 0,
      "chainId": 0
    },
    {
      "hash": "0xb0de3219fd93b49982bba080331626fac4135088bfb62741fd12fc5fd9af58cb",
      "blockHash": "0xbb5a388c9ab34deb10efaa4448314f92a8756c763cf648502471e2af95275ce9",
      "blockNumber": 68608,
      "transactionIndex": 19,
      "confirmations": null,
      "from": "0x29dfaDc0038D9BBe0Fe26771d463A92B2dee8238",
      "gasPrice": {
        "_hex": "0xba43b7400"
      },
      "gasLimit": {
        "_hex": "0x15f90"
      },
      "to": "0x793AE8C1b1a160BFc07BFB0d04F85eab1A71F4f2",
      "value": {
        "_hex": "0x0"
      },
      "nonce": 0,
      "data": "0x3ba15036",
      "r": "0xb77662183b18d633ad1c798f467ed1e879ea74e863ac685351124f5036ce18de",
      "s": "0x252b4785d32d1fbc5ecab1b90ca60dd796e470583f769f899cd43b499243067d",
      "v": 27,
      "creates": null,
      "raw": "0xf86980850ba43b740083015f9094793ae8c1b1a160bfc07bfb0d04f85eab1a71f4f280843ba150361ba0b77662183b18d633ad1c798f467ed1e879ea74e863ac685351124f5036ce18dea0252b4785d32d1fbc5ecab1b90ca60dd796e470583f769f899cd43b499243067d",
      "networkId": 0,
      "chainId": 0
    },
    {
      "hash": "0x296df72836a04051e58f7e8eeb048f1e6a9abcf6cd4fffa710f270db65a74065",
      "blockHash": "0xbb5a388c9ab34deb10efaa4448314f92a8756c763cf648502471e2af95275ce9",
      "blockNumber": 68608,
      "transactionIndex": 20,
      "confirmations": null,
      "from": "0x015df075866a4F0a3703dcfAC8FcceC012461Eb5",
      "gasPrice": {
        "_hex": "0xba43b7400"
      },
      "gasLimit": {
        "_hex": "0x15f90"
      },
      "to": "0x793AE8C1b1a160BFc07BFB0d04F85eab1A71F4f2",
      "value": {
        "_hex": "0x0"
      },
      "nonce": 0,
      "data": "0x3ba15036",
      "r": "0x858e8066a0cfcc2c65d540acc9e0292ab448b7e91bf46edce3e902d8e5528008",
      "s": "0x54db127682f756ff0a13c2a001d279ca518d658e1761a5a4182add301f55efcd",
      "v": 28,
      "creates": null,
      "raw": "0xf86980850ba43b740083015f9094793ae8c1b1a160bfc07bfb0d04f85eab1a71f4f280843ba150361ca0858e8066a0cfcc2c65d540acc9e0292ab448b7e91bf46edce3e902d8e5528008a054db127682f756ff0a13c2a001d279ca518d658e1761a5a4182add301f55efcd",
      "networkId": 0,
      "chainId": 0
    },
    {
      "hash": "0xb38dfb4f2b74eeaac2d36c7341bbff3b45ff937703cea9a03e7aca1057249500",
      "blockHash": "0xbb5a388c9ab34deb10efaa4448314f92a8756c763cf648502471e2af95275ce9",
      "blockNumber": 68608,
      "transactionIndex": 21,
      "confirmations": null,
      "from": "0xD2E3933F504d92e408cd5FA50D38c680E42a5D38",
      "gasPrice": {
        "_hex": "0xba43b7400"
      },
      "gasLimit": {
        "_hex": "0x15f90"
      },
      "to": "0x793AE8C1b1a160BFc07BFB0d04F85eab1A71F4f2",
      "value": {
        "_hex": "0x0"
      },
      "nonce": 0,
      "data": "0x3ba15036",
      "r": "0x5f634cbc7af54f0d93562ac579f92e5416e1aa679387b1b93918db84fb7857d8",
      "s": "0x7cb909e7a4594b9f87c7d0ec51be248a52f45698d8881f5313533e347e184dd3",
      "v": 27,
      "creates": null,
      "raw": "0xf86980850ba43b740083015f9094793ae8c1b1a160bfc07bfb0d04f85eab1a71f4f280843ba150361ba05f634cbc7af54f0d93562ac579f92e5416e1aa679387b1b93918db84fb7857d8a07cb909e7a4594b9f87c7d0ec51be248a52f45698d8881f5313533e347e184dd3",
      "networkId": 0,
      "chainId": 0
    },
    {
      "hash": "0x2fe302dc015fa334176e48ba1b7b05174c9886826dff9a50b253e1a59dc4c90b",
      "blockHash": "0xbb5a388c9ab34deb10efaa4448314f92a8756c763cf648502471e2af95275ce9",
      "blockNumber": 68608,
      "transactionIndex": 22,
      "confirmations": null,
      "from": "0x733F17D51c8f5c3c09409B525CF046bE8dDFdCEd",
      "gasPrice": {
        "_hex": "0xba43b7400"
      },
      "gasLimit": {
        "_hex": "0x15f90"
      },
      "to": "0x793AE8C1b1a160BFc07BFB0d04F85eab1A71F4f2",
      "value": {
        "_hex": "0x0"
      },
      "nonce": 0,
      "data": "0x3ba15036",
      "r": "0xde8260b02d0a15ec840fb32505875866061fe89ebdf0f8c46ef6c12c342f3e5f",
      "s": "0x226bb0a2997b0f9e786da004365c8520aecb9de87759252ec7bbadd8cbd82e24",
      "v": 28,
      "creates": null,
      "raw": "0xf86980850ba43b740083015f9094793ae8c1b1a160bfc07bfb0d04f85eab1a71f4f280843ba150361ca0de8260b02d0a15ec840fb32505875866061fe89ebdf0f8c46ef6c12c342f3e5fa0226bb0a2997b0f9e786da004365c8520aecb9de87759252ec7bbadd8cbd82e24",
      "networkId": 0,
      "chainId": 0
    },
    {
      "hash": "0x65402a0f4d5d4e890e8565d017eb99a090dd433175df72e2d2dd3aa4cf676ca7",
      "blockHash": "0xbb5a388c9ab34deb10efaa4448314f92a8756c763cf648502471e2af95275ce9",
      "blockNumber": 68608,
      "transactionIndex": 23,
      "confirmations": null,
      "from": "0x68e9fbd0039Ac917291ae4652275537Ed852C944",
      "gasPrice": {
        "_hex": "0xba43b7400"
      },
      "gasLimit": {
        "_hex": "0x15f90"
      },
      "to": "0x793AE8C1b1a160BFc07BFB0d04F85eab1A71F4f2",
      "value": {
        "_hex": "0x0"
      },
      "nonce": 0,
      "data": "0x3ba15036",
      "r": "0xbab30574ca70ae227385f6db1c434d260ae45f07039468256c2c7185ce429cc2",
      "s": "0x5881f9080971883fb94203415f34706cf2b9347ef547744c5d901f9925fe9e70",
      "v": 28,
      "creates": null,
      "raw": "0xf86980850ba43b740083015f9094793ae8c1b1a160bfc07bfb0d04f85eab1a71f4f280843ba150361ca0bab30574ca70ae227385f6db1c434d260ae45f07039468256c2c7185ce429cc2a05881f9080971883fb94203415f34706cf2b9347ef547744c5d901f9925fe9e70",
      "networkId": 0,
      "chainId": 0
    }
  ]
}