{
  "hash": "0x5b8c988c817231476dcc61ace4e70f321ddc07f816fad64ca373cd399c6ecfc7",
  "parentHash": "0x61378d84d47e72deee6c951f97a123a78391b9e01a1a9d62e4a9494a4f5f0b53",
  "number": 50255,
  "timestamp": 1438986175,
  "nonce": "0x01768f39551649b0",
  "difficulty": 1514152291840,
  "gasLimit": {
    "_hex": "0x59068"
  },
  "gasUsed": {
    "_hex": "0x546c"
  },
  "miner": "0xf927a40C8B7F6E07c5af7FA2155B4864a4112B13",
  "extraData": "0x476574682f76312e302e312f6c696e75782f676f312e342e32",
  "transactions": [
    {
      "hash": "0x531445f7918d07fca241edf7465ba3eeb12147964f632c7c833368fd5fd45a6f",
      "blockHash": "0x5b8c988c817231476dcc61ace4e70f321ddc07f816fad64ca373cd399c6ecfc7",
      "blockNumber": 50255,
      "transactionIndex": 0,
      "confirmations": null,
      "from": "0x3e76a62db187AA74f63817533B306cEAd0e8CebE",
      "gasPrice": {
        "_hex": "0xdf52d0e21"
      },
      "gasLimit": {
        "_hex": "0x15f90"
      },
      "to": "0x2910543Af39abA0Cd09dBb2D50200b3E800A63D2",
      "value": {
        "_hex": "0xe3aeb5737240a00000"
      },
      "nonce": 1,
      "data": "0x454e45554350585a30",
      "r": "0x06388165bbc5e67b609b07ef687bf6b1c4f56420954b72a2b80b0e04bf06709d",
      "s": "0x3a740d8899209cf4f6388b89ae7699c683258f9e26ea8c0ac90338369fd9d9ee",
      "v": 28,
      "creates": null,
      "raw": "0xf87701850df52d0e2183015f90942910543af39aba0cd09dbb2d50200b3e800a63d289e3aeb5737240a0000089454e45554350585a301ca006388165bbc5e67b609b07ef687bf6b1c4f56420954b72a2b80b0e04bf06709da03a740d8899209cf4f6388b89ae7699c683258f9e26ea8c0ac90338369fd9d9ee",
      "networkId": 0,
      "chainId": 0
    }
  ]
}