{
  "hash": "0x0b8ba8d90c4722842ad6625bea91be703fb95ea528a9ce97761717d25bb6ecae",
  "parentHash": "0x73787f0d08e542c99e9e804558fd20036f83a7524df8e43261beaa852d555f12",
  "number": 75656,
  "timestamp": 1439406903,
  "nonce": "0x9167ff3b36fd4cec",
  "difficulty": 2234276759628,
  "gasLimit": {
    "_hex": "0x2fefd5"
  },
  "gasUsed": {
    "_hex": "0x546c"
  },
  "miner": "0xe6A7a1d47ff21B6321162AEA7C6CB457D5476Bca",
  "extraData": "0x476574682f76312e302e312d38326566323666362f6c696e75782f676f312e34",
  "transactions": [
    {
      "hash": "0x9b321e6cebf26f464347ea9648b9519deb2662ba303f5570d7a513d1f2b4d59d",
      "blockHash": "0x0b8ba8d90c4722842ad6625bea91be703fb95ea528a9ce97761717d25bb6ecae",
      "blockNumber": 75656,
      "transactionIndex": 0,
      "confirmations": null,
      "from": "0x868c841729a651dD85DcEE7AE3a0186eD9b99C53",
      "gasPrice": {
        "_hex": "0xd69b48315"
      },
      "gasLimit": {
        "_hex": "0x55f0"
      },
      "to": "0x2910543Af39abA0Cd09dBb2D50200b3E800A63D2",
      "value": {
        "_hex": "0x8ac7230489e80000"
      },
      "nonce": 0,
      "data": "0x454e57553030454630",
      "r": "0x1381f174d566033a2633ecd164fa1caa5a6d06318967af668175e12d7becd7b4",
      "s": "0x499ce471f6e173132e387bf062e87cef39c9594fbd7e0d1c0b4410d4ba249ecb",
      "v": 28,
      "creates": null,
      "raw": "0xf87580850d69b483158255f0942910543af39aba0cd09dbb2d50200b3e800a63d2888ac7230489e8000089454e575530304546301ca01381f174d566033a2633ecd164fa1caa5a6d06318967af668175e12d7becd7b4a0499ce471f6e173132e387bf062e87cef39c9594fbd7e0d1c0b4410d4ba249ecb",
      "networkId": 0,
      "chainId": 0
    }
  ]
}