{
  "hash": "0xb35a39e6ec259c4ef90f1e9a1564a4e2ca70930ef8ebe1057ca403cbcad5e3fc",
  "parentHash": "0xc164704a9f5a0719148c5abb1911724836142b741e931a0074c82b3daa0f777e",
  "number": 89904,
  "timestamp": 1439630947,
  "nonce": "0x20031cb34751cb58",
  "difficulty": 3338559506371,
  "gasLimit": {
    "_hex": "0x2fefd8"
  },
  "gasUsed": {
    "_hex": "0x5208"
  },
  "miner": "0xC603Ab5ef41fC61AA8b76bEddb09e3Cfcbb174BD",
  "extraData": "0x476574682f76312e302e312f77696e646f77732f676f312e342e32",
  "transactions": [
    {
      "hash": "0xc2d71c7bb221cab0ec912368eeffc3ba36f829edffe93006c602136d8745a29e",
      "blockHash": "0xb35a39e6ec259c4ef90f1e9a1564a4e2ca70930ef8ebe1057ca403cbcad5e3fc",
      "blockNumber": 89904,
      "transactionIndex": 0,
      "confirmations": null,
      "from": "0xB0bF4A71F730782368Ef660FE6D298F432F95450",
      "gasPrice": {
        "_hex": "0xde4a77443"
      },
      "gasLimit": {
        "_hex": "0x5208"
      },
      "to": "0x32Be343B94f860124dC4fEe278FDCBD38C102D88",
      "value": {
        "_hex": "0x15af190507cbee0000"
      },
      "nonce": 24,
      "data": "0x",
      "r": "0xbf37b21562a4f1bcd3517c606b6268b227029162a6802ac134d7de8232905d7a",
      "s": "0x3827ee3cdef97b25cf8a63c89671aad96c299618f42057cc29a516ff31528629",
      "v": 27,
      "creates": null,
      "raw": "0xf86d18850de4a774438252089432be343b94f860124dc4fee278fdcbd38c102d888915af190507cbee0000801ba0bf37b21562a4f1bcd3517c606b6268b227029162a6802ac134d7de8232905d7aa03827ee3cdef97b25cf8a63c89671aad96c299618f42057cc29a516ff31528629",
      "networkId": 0,
      "chainId": 0
    }
  ]
}