{
  "hash": "0xa2c6bd1d82a7e62d94c4a36ef9f7beb24cfacc739551932512940bb542140c23",
  "parentHash": "0xa8c0258b1c4298cfb989644aa41bc8ab134086549efb835679ee4838fbdfa4d0",
  "number": 49745,
  "timestamp": 1438978334,
  "nonce": "0x1187c1071fe475b1",
  "difficulty": 1492224705142,
  "gasLimit": {
    "_hex": "0x3d0ab"
  },
  "gasUsed": {
    "_hex": "0xa674"
  },
  "miner": "0xa28fb61A108456d201f8296eC31Fe1C5D73715D6",
  "extraData": "0x476574682f76312e302e302d30333937633636632f6c696e75782f676f312e34",
  "transactions": [
    {
      "hash": "0x1bc451e3a8e2c8436ab681932a3630d2ea660e10c19430b743fbfde8cfa6aafb",
      "blockHash": "0xa2c6bd1d82a7e62d94c4a36ef9f7beb24cfacc739551932512940bb542140c23",
      "blockNumber": 49745,
      "transactionIndex": 0,
      "confirmations": null,
      "from": "0xb782BFD1e2DE70F467646f9Bc09EA5b1Fcf450Af",
      "gasPrice": {
        "_hex": "0x110c8f7d8de"
      },
      "gasLimit": {
        "_hex": "0xc350"
      },
      "to": "0x2910543Af39abA0Cd09dBb2D50200b3E800A63D2",
      "value": {
        "_hex": "0xd8d726b7177a80000"
      },
      "nonce": 1,
      "data": "0x454e3845464b545752",
      "r": "0xf127445f7422219d159df0e3d39605d5624133995f102ed706f5e9daf438fca9",
      "s": "0x6738bb5ac087baada1275eb2f9b5719d967b927a349599b4407138eb04e6f6d6",
      "v": 27,
      "creates": null,
      "raw": "0xf87701860110c8f7d8de82c350942910543af39aba0cd09dbb2d50200b3e800a63d2890d8d726b7177a8000089454e3845464b5457521ba0f127445f7422219d159df0e3d39605d5624133995f102ed706f5e9daf438fca9a06738bb5ac087baada1275eb2f9b5719d967b927a349599b4407138eb04e6f6d6",
      "networkId": 0,
      "chainId": 0
    },
    {
      "hash": "0x0c1c45979b0d1a4f2d417a16afc7b0a8b9f96a5554b643f4d4356928144c2b1b",
      "blockHash": "0xa2c6bd1d82a7e62d94c4a36ef9f7beb24cfacc739551932512940bb542140c23",
      "blockNumber": 49745,
      "transactionIndex": 1,
      "confirmations": null,
      "from": "0x0A63E1A8C33e351679e3581AC84ce341C32f813a",
      "gasPrice": {
        "_hex": "0x10749b44623"
      },
      "gasLimit": {
        "_hex": "0x5208"
      },
      "to": "0x4Eaf4CaDd87499C20bA3412B1D222f9a72DA7AFF",
      "value": {
        "_hex": "0x2b5e3af16b1880000"
      },
      "nonce": 4,
      "data": "0x",
      "r": "0x8d6c2ef5cd36364f7d27fbdc0b1194cba396acaf99375dc4078160336c30c3ef",
      "s": "0x7929c9c479799db36244fdcf02ccfb7767a0eade07ca64ead895219476b285b1",
      "v": 28,
      "creates": null,
      "raw": "0xf86e0486010749b44623825208944eaf4cadd87499c20ba3412b1d222f9a72da7aff8902b5e3af16b1880000801ca08d6c2ef5cd36364f7d27fbdc0b1194cba396acaf99375dc4078160336c30c3efa07929c9c479799db36244fdcf02ccfb7767a0eade07ca64ead895219476b285b1",
      "networkId": 0,
      "chainId": 0
    }
  ]
}