{
  "hash": "0x99f0fd70e067d335fca2b856b24e19c9258d0c73ff7b6b50dbc88bc1b762de2f",
  "parentHash": "0x42b55dbd660ca134b38c64b4cefbf6dd1fbe14c3030c03ac83a551f92d2e47be",
  "number": 63099,
  "timestamp": 1439199117,
  "nonce": "0x1e933392a4c4b2f7",
  "difficulty": 1804137144463,
  "gasLimit": {
    "_hex": "0x2fefd8"
  },
  "gasUsed": {
    "_hex": "0x5208"
  },
  "miner": "0x55bAf64fc9eAccFFd7Cc643BB61142E1C6ac093e",
  "extraData": "0x",
  "transactions": [
    {
      "hash": "0x2e27edfb3d7b5a73dfa3738cce03486c66f57031f43833a858aca831b8f36d39",
      "blockHash": "0x99f0fd70e067d335fca2b856b24e19c9258d0c73ff7b6b50dbc88bc1b762de2f",
      "blockNumber": 63099,
      "transactionIndex": 0,
      "confirmations": null,
      "from": "0xCF336585500343e6Bd562504cC90D9E319037f31",
      "gasPrice": {
        "_hex": "0xd641f460d"
      },
      "gasLimit": {
        "_hex": "0x15f90"
      },
      "to": "0xdB9ACCBF37Be18024d013d5eB1444A48501338Fb",
      "value": {
        "_hex": "0xde0b6b3a7640000"
      },
      "nonce": 0,
      "data": "0x",
      "r": "0x519e95c3e0e60b28ae7f1dde8607004fc6839094cfadd4d3021e62143407097b",
      "s": "0x1640c52fccfab430e5b20187fc3cae45b3594cd1be6c15e4fae0d4b4ba0d4894",
      "v": 28,
      "creates": null,
      "raw": "0xf86d80850d641f460d83015f9094db9accbf37be18024d013d5eb1444a48501338fb880de0b6b3a7640000801ca0519e95c3e0e60b28ae7f1dde8607004fc6839094cfadd4d3021e62143407097ba01640c52fccfab430e5b20187fc3cae45b3594cd1be6c15e4fae0d4b4ba0d4894",
      "networkId": 0,
      "chainId": 0
    }
  ]
}