{
  "hash": "0x7fea741fcc31eb3e6393ba7296d70c772d6d4803410c0bea4e96eddb857d9935",
  "parentHash": "0x0bc8fda69d38331beec5d5789650fb6e6250c17ed0455fd4dd056a4370536eee",
  "number": 107371,
  "timestamp": 1439921347,
  "nonce": "0x657d05eec1e958f5",
  "difficulty": 4394319526814,
  "gasLimit": {
    "_hex": "0x2fefd8"
  },
  "gasUsed": {
    "_hex": "0x1d52e"
  },
  "miner": "0xe6A7a1d47ff21B6321162AEA7C6CB457D5476Bca",
  "extraData": "0x476574682f76312e302e312d38326566323666362f6c696e75782f676f312e34",
  "transactions": [
    {
      "hash": "0xdca948c253ca8e84e9b050a9fbe362cec2a24321a75c0722aaaf13556515e18d",
      "blockHash": "0x7fea741fcc31eb3e6393ba7296d70c772d6d4803410c0bea4e96eddb857d9935",
      "blockNumber": 107371,
      "transactionIndex": 0,
      "confirmations": null,
      "from": "0xf3731A397D198a526EF77bD99906873936f05AB8",
      "gasPrice": {
        "_hex": "0xd829211eb"
      },
      "gasLimit": {
        "_hex": "0x249f0"
      },
      "to": "0xE28e72FCf78647ADCe1F1252F240bbfaebD63BcC",
      "value": {
        "_hex": "0x56bc75e2d63100000"
      },
      "nonce": 2,
      "data": "0x45466f3a",
      "r": "0x9fd3e0734af45340a5596f695923149667fb35ee3e1d1124556ba0e618f5abf2",
      "s": "0x5569525911317da05aa68b933a1b2a581b08d7c85b6baf188e9d2b76e8f13f85",
      "v": 27,
      "creates": null,
      "raw": "0xf87202850d829211eb830249f094e28e72fcf78647adce1f1252f240bbfaebd63bcc89056bc75e2d631000008445466f3a1ba09fd3e0734af45340a5596f695923149667fb35ee3e1d1124556ba0e618f5abf2a05569525911317da05aa68b933a1b2a581b08d7c85b6baf188e9d2b76e8f13f85",
      "networkId": 0,
      "chainId": 0
    },
    {
      "hash": "0x8f14f0fc87f1948e6d419ec25e10086dfb56d2219ce484b8ec7c0aeb58f9573b",
      "blockHash": "0x7fea741fcc31eb3e6393ba7296d70c772d6d4803410c0bea4e96eddb857d9935",
      "blockNumber": 107371,
      "transactionIndex": 1,
      "confirmations": null,
      "from": "0x8751DfA908C45A8aEf041FbeE9C17f9fE57Cc449",
      "gasPrice": {
        "_hex": "0xd0dd4f5cc"
      },
      "gasLimit": {
        "_hex": "0x5208"
      },
      "to": "0x32Be343B94f860124dC4fEe278FDCBD38C102D88",
      "value": {
        "_hex": "0xad78a99b63ba70000"
      },
      "nonce": 6,
      "data": "0x",
      "r": "0xe4b08c879f8b6b4c25eae3e40f7bae3a764702f9e727f4e9f032b6f053f315aa",
      "s": "0x3dfdcb00cf97de16b6a1c74a511bf1f1225be88d360bb1688ab2a785e09f3058",
      "v": 27,
      "creates": null,
      "raw": "0xf86d06850d0dd4f5cc8252089432be343b94f860124dc4fee278fdcbd38c102d88890ad78a99b63ba70000801ba0e4b08c879f8b6b4c25eae3e40f7bae3a764702f9e727f4e9f032b6f053f315aaa03dfdcb00cf97de16b6a1c74a511bf1f1225be88d360bb1688ab2a785e09f3058",
      "networkId": 0,
      "chainId": 0
    }
  ]
}