{
  "hash": "0x029db6a792518d64986e84175b6b4ed28dfd1740c8094f12377fe51228e260a9",
  "parentHash": "0x16fe8e034a883ddeed036102568c98a199026ab13ea87569ecbcf77902cb8df8",
  "number": 92546,
  "timestamp": 1439673764,
  "nonce": "0x5e722f48b941ba7e",
  "difficulty": 3528555372846,
  "gasLimit": {
    "_hex": "0x2fefd8"
  },
  "gasUsed": {
    "_hex": "0x7a120"
  },
  "miner": "0xA21Ba94e45f0E168dA824fC67aC9cb5Cb577a8aF",
  "extraData": "0x",
  "transactions": [
    {
      "hash": "0x5e6e11642a62e3db5f0a8f38321434f938f4f9fce92a7a9f7f80dcb9ef1ddf6b",
      "blockHash": "0x029db6a792518d64986e84175b6b4ed28dfd1740c8094f12377fe51228e260a9",
      "blockNumber": 92546,
      "transactionIndex": 0,
      "confirmations": null,
      "from": "0x9C072558df29d101D320e51e05D3D0e0BDf4036E",
      "gasPrice": {
        "_hex": "0x10c6cb8485e"
      },
      "gasLimit": {
        "_hex": "0x7a120"
      },
      "to": "0xA327075af2a223A1C83a36aDa1126afE7430f955",
      "value": {
        "_hex": "0x8ac7230489e80000"
      },
      "nonce": 0,
      "data": "0x",
      "r": "0x08b66bd8c350889b7be041dd4be2bcd5aaa796d9fbe87f824233aefb1b102723",
      "s": "0x3384ab55ab9c451fa132c2199e31d5d60b27b9aeac7dcfa0e1e1dd89490216a9",
      "v": 28,
      "creates": null,
      "raw": "0xf86e8086010c6cb8485e8307a12094a327075af2a223a1c83a36ada1126afe7430f955888ac7230489e80000801ca008b66bd8c350889b7be041dd4be2bcd5aaa796d9fbe87f824233aefb1b102723a03384ab55ab9c451fa132c2199e31d5d60b27b9aeac7dcfa0e1e1dd89490216a9",
      "networkId": 0,
      "chainId": 0
    }
  ]
}