{
  "hash": "0x5d8756c237f78df2fd24573f9bfe777ce0289743977da0f0327d9324115faf23",
  "parentHash": "0x2a57095f20573128850d20d39c31c39c36b05e169f581f5203a3ea5bc6edda08",
  "number": 72679,
  "timestamp": 1439356473,
  "nonce": "0x7195df1c61b12ed5",
  "difficulty": 2197197356176,
  "gasLimit": {
    "_hex": "0x2fefd8"
  },
  "gasUsed": {
    "_hex": "0x5208"
  },
  "miner": "0x36F60f6fAe70855D6a506c3cbDfa8B1Cc4d77c35",
  "extraData": "0x",
  "transactions": [
    {
      "hash": "0x42cd12ebc19a40a2c98c347983cdcdead8471f9c139677db7587c8d37d0fa8b3",
      "blockHash": "0x5d8756c237f78df2fd24573f9bfe777ce0289743977da0f0327d9324115faf23",
      "blockNumber": 72679,
      "transactionIndex": 0,
      "confirmations": null,
      "from": "0x9CF253B20806e369059D8D8023f376b1aE248aDD",
      "gasPrice": {
        "_hex": "0xcfd5c2aaa"
      },
      "gasLimit": {
        "_hex": "0x15f90"
      },
      "to": "0x6d37bd781411ccDd33792481E2C9CE5b62D3a5B8",
      "value": {
        "_hex": "0xde0b6b3a7640000"
      },
      "nonce": 0,
      "data": "0x",
      "r": "0x70e2c1975d4c811201259a7f720e4057ed5e4a8a8d1231104a9e8926bd44eac5",
      "s": "0x29abccc0053aadee61c06cd86b328ab6bad9900d7e65e0325b8caf10a7dc21f1",
      "v": 28,
      "creates": null,
      "raw": "0xf86d80850cfd5c2aaa83015f90946d37bd781411ccdd33792481e2c9ce5b62d3a5b8880de0b6b3a7640000801ca070e2c1975d4c811201259a7f720e4057ed5e4a8a8d1231104a9e8926bd44eac5a029abccc0053aadee61c06cd86b328ab6bad9900d7e65e0325b8caf10a7dc21f1",
      "networkId": 0,
      "chainId": 0
    }
  ]
}