{
  "hash": "0x01bf942e1065d86fb0242be518eec4ff10eca47fe4d2c29438c061c80e2b4116",
  "parentHash": "0x5da2ee04a47a6f39d581ae175043e00f7aa79abaf91c1cf8b98b68115da52c52",
  "number": 65351,
  "timestamp": 1439235387,
  "nonce": "0x19c8ab8a616f78b0",
  "difficulty": 1944508605685,
  "gasLimit": {
    "_hex": "0x2fefd8"
  },
  "gasUsed": {
    "_hex": "0xbe6c"
  },
  "miner": "0x157c6f2431eB1a95797EE86F7d17b3c0FD47A247",
  "extraData": "0x476574682f76312e302e312f77696e646f77732f676f312e342e32",
  "transactions": [
    {
      "hash": "0x497cd6a245965ffbe4f7194536ea07bfaed79a0146e2d7e1a9ea371261d78db2",
      "blockHash": "0x01bf942e1065d86fb0242be518eec4ff10eca47fe4d2c29438c061c80e2b4116",
      "blockNumber": 65351,
      "transactionIndex": 0,
      "confirmations": null,
      "from": "0x2B0C82BE0F1AF6e7b87D407b93F3Bd391980209B",
      "gasPrice": {
        "_hex": "0xba43b7400"
      },
      "gasLimit": {
        "_hex": "0x15f90"
      },
      "to": "0x793AE8C1b1a160BFc07BFB0d04F85eab1A71F4f2",
      "value": {
        "_hex": "0x0"
      },
      "nonce": 0,
      "data": "0x3ba15036",
      "r": "0xe035eb494fbfd0a8d478b9db9a86c0ffa5d82c80afe32cd4bda6ae2a85feba2d",
      "s": "0x4f504282ee44256480e8484058c13ec0a1913609109e90d5694e015d44bb0b80",
      "v": 27,
      "creates": null,
      "raw": "0xf86980850ba43b740083015f9094793ae8c1b1a160bfc07bfb0d04f85eab1a71f4f280843ba150361ba0e035eb494fbfd0a8d478b9db9a86c0ffa5d82c80afe32cd4bda6ae2a85feba2da04f504282ee44256480e8484058c13ec0a1913609109e90d5694e015d44bb0b80",
      "networkId": 0,
      "chainId": 0
    }
  ]
}