{
  "hash": "0xd4b2761c26bfb631404dafd5cb0f37f11ff0dac8fe07e6ca056b8b489c101488",
  "parentHash": "0x45f759a0ab8c78b2725b70d85160115a17e46ca7de13ebed6fc9119ed61d3156",
  "number": 81319,
  "timestamp": 1439499801,
  "nonce": "0x28af6740bd6e16dc",
  "difficulty": 2443849681479,
  "gasLimit": {
    "_hex": "0x2fefd8"
  },
  "gasUsed": {
    "_hex": "0x5208"
  },
  "miner": "0xf8E0CA3Ed80bd541b94BEdCf259e8CF2141A9523",
  "extraData": "0x476574682f76312e302e312f77696e646f77732f676f312e342e32",
  "transactions": [
    {
      "hash": "0x6d528884fbcde42f66ad27200fdcda1cdd2f0c4e253352909e19e8463ff94efe",
      "blockHash": "0xd4b2761c26bfb631404dafd5cb0f37f11ff0dac8fe07e6ca056b8b489c101488",
      "blockNumber": 81319,
      "transactionIndex": 0,
      "confirmations": null,
      "from": "0xa2BA1357f91629859aD8084f8B284D38c7edd321",
      "gasPrice": {
        "_hex": "0xdc2bf9c4d"
      },
      "gasLimit": {
        "_hex": "0x5208"
      },
      "to": "0x32Be343B94f860124dC4fEe278FDCBD38C102D88",
      "value": {
        "_hex": "0x6c6b4c1c07a054000"
      },
      "nonce": 1,
      "data": "0x",
      "r": "0x95fc9be5f3df77a4fe26b7a94bb4e2846e87f1e709dfad1b804c99dc1a8dc98c",
      "s": "0x41b0de3bb1a6f814b6504ad45db1547f74942113bce2ce0e6524d4580b66ec92",
      "v": 27,
      "creates": null,
      "raw": "0xf86d01850dc2bf9c4d8252089432be343b94f860124dc4fee278fdcbd38c102d888906c6b4c1c07a054000801ba095fc9be5f3df77a4fe26b7a94bb4e2846e87f1e709dfad1b804c99dc1a8dc98ca041b0de3bb1a6f814b6504ad45db1547f74942113bce2ce0e6524d4580b66ec92",
      "networkId": 0,
      "chainId": 0
    }
  ]
}