{
  "hash": "0xd0d5aecd7e7258f2a78c7926bd94925f54236ff83a63b7592f2ac48b174e0998",
  "parentHash": "0x70e1034275d2e52144e74271dc8b06c8d24ddbb7b1708d9b086cfb5d34106eee",
  "number": 65313,
  "timestamp": 1439234758,
  "nonce": "0xb7e83ed05f095403",
  "difficulty": 1946417284697,
  "gasLimit": {
    "_hex": "0x2fe3db"
  },
  "gasUsed": {
    "_hex": "0x272f0"
  },
  "miner": "0x8B454d830feF179e66206840F8F3D1d83bC32b17",
  "extraData": "0x476574682f76312e302e312f77696e646f77732f676f312e342e32",
  "transactions": [
    {
      "hash": "0x84ac2119e62442ab2c3bf735789841ee35d56992925e0b259a0decb4696bddf8",
      "blockHash": "0xd0d5aecd7e7258f2a78c7926bd94925f54236ff83a63b7592f2ac48b174e0998",
      "blockNumber": 65313,
      "transactionIndex": 0,
      "confirmations": null,
      "from": "0x42E6723A0c884E922240e56D7B618BeC96F35800",
      "gasPrice": {
        "_hex": "0x9184e72a000"
      },
      "gasLimit": {
        "_hex": "0x5208"
      },
      "to": "0x50B8F981CE93fD5B81B844409169148428400bF3",
      "value": {
        "_hex": "0xa"
      },
      "nonce": 2,
      "data": "0x",
      "r": "0xbc064cbee4429f526c88307d0e3f53d68219057604c3f650fb75f24f544cb21f",
      "s": "0x4ae44d5f573d6c05f950adb04091bef0c11db65efbafee7e1aaf8ed328b3b7da",
      "v": 28,
      "creates": null,
      "raw": "0xf865028609184e72a0008252089450b8f981ce93fd5b81b844409169148428400bf30a801ca0bc064cbee4429f526c88307d0e3f53d68219057604c3f650fb75f24f544cb21fa04ae44d5f573d6c05f950adb04091bef0c11db65efbafee7e1aaf8ed328b3b7da",
      "networkId": 0,
      "chainId": 0
    },
    {
      "hash": "0xacdaf202bbd669d319e992a31dcfb7ec8f43f9732a8d3fb2f7a137481b2daec3",
      "blockHash": "0xd0d5aecd7e7258f2a78c7926bd94925f54236ff83a63b7592f2ac48b174e0998",
      "blockNumber": 65313,
      "transactionIndex": 1,
      "confirmations": null,
      "from": "0x32Be343B94f860124dC4fEe278FDCBD38C102D88",
      "gasPrice": {
        "_hex": "0xdcbde3d79"
      },
      "gasLimit": {
        "_hex": "0x5208"
      },
      "to": "0x120A270bbC009644e35F0bB6ab13f95b8199c4ad",
      "value": {
        "_hex": "0xa2a15d09519be00000"
      },
      "nonce": 187,
      "data": "0x",
      "r": "0x9da6bfb1fa4fe767700aacafec39ad2067f7bf83730dd601c19550a340c26b56",
      "s": "0x569d413086c20bb73eda3ef8c694e5b73cc68041f12887ada2af1127156f25b7",
      "v": 28,
      "creates": null,
      "raw": "0xf86e81bb850dcbde3d7982520894120a270bbc009644e35f0bb6ab13f95b8199c4ad89a2a15d09519be00000801ca09da6bfb1fa4fe767700aacafec39ad2067f7bf83730dd601c19550a340c26b56a0569d413086c20bb73eda3ef8c694e5b73cc68041f12887ada2af1127156f25b7",
      "networkId": 0,
      "chainId": 0
    },
    {
      "hash": "0x6ef9683202dac5e873fbda4448180a1f1f37bb269cf0e4591d7683bcadc9f672",
      "blockHash": "0xd0d5aecd7e7258f2a78c7926bd94925f54236ff83a63b7592f2ac48b174e0998",
      "blockNumber": 65313,
      "transactionIndex": 2,
      "confirmations": null,
      "from": "0x120A270bbC009644e35F0bB6ab13f95b8199c4ad",
      "gasPrice": {
        "_hex": "0xcc53ef42d"
      },
      "gasLimit": {
        "_hex": "0x15f90"
      },
      "to": "0x3177BD9cEB6f20fbce53157b66F5A967B0ADB875",
      "value": {
        "_hex": "0x45064beaba75bc00"
      },
      "nonce": 124,
      "data": "0x",
      "r": "0x097d3b6fa15ab2fc4c26745c44d06bbbc2afc8aa50bfa7228f1b250149a41709",
      "s": "0x3e1a1f4cc648bbe5a46a8b094a0d86a029cecc32a03418cd5c2a1aef5916f9fa",
      "v": 27,
      "creates": null,
      "raw": "0xf86d7c850cc53ef42d83015f90943177bd9ceb6f20fbce53157b66f5a967b0adb8758845064beaba75bc00801ba0097d3b6fa15ab2fc4c26745c44d06bbbc2afc8aa50bfa7228f1b250149a41709a03e1a1f4cc648bbe5a46a8b094a0d86a029cecc32a03418cd5c2a1aef5916f9fa",
      "networkId": 0,
      "chainId": 0
    },
    {
      "hash": "0x9ded1e845fc00ade7f79ad6d3e4df471efc0a6738c4fcb4c9493f66787679dd3",
      "blockHash": "0xd0d5aecd7e7258f2a78c7926bd94925f54236ff83a63b7592f2ac48b174e0998",
      "blockNumber": 65313,
      "transactionIndex": 3,
      "confirmations": null,
      "from": "0xb1b4cdb0c8489B24e213C0875f2e1C9D3A92bC39",
      "gasPrice": {
        "_hex": "0xba43b7400"
      },
      "gasLimit": {
        "_hex": "0x15f90"
      },
      "to": "0x793AE8C1b1a160BFc07BFB0d04F85eab1A71F4f2",
      "value": {
        "_hex": "0x0"
      },
      "nonce": 0,
      "data": "0x3ba15036",
      "r": "0xce82580bb0e66f0813dfff818b6fb24b838a473585da9749a46879e83b3b686b",
      "s": "0x6749f205c8fc6b7c8bb122bec7e1bebeac711ce6fa62d987f043a51a32d7dbab",
      "v": 27,
      "creates": null,
      "raw": "0xf86980850ba43b740083015f9094793ae8c1b1a160bfc07bfb0d04f85eab1a71f4f280843ba150361ba0ce82580bb0e66f0813dfff818b6fb24b838a473585da9749a46879e83b3b686ba06749f205c8fc6b7c8bb122bec7e1bebeac711ce6fa62d987f043a51a32d7dbab",
      "networkId": 0,
      "chainId": 0
    },
    {
      "hash": "0x19b29b09d5c44461253e7700f51edd8fb4552b50cdb736be6cc9d036966ef55f",
      "blockHash": "0xd0d5aecd7e7258f2a78c7926bd94925f54236ff83a63b7592f2ac48b174e0998",
      "blockNumber": 65313,
      "transactionIndex": 4,
      "confirmations": null,
      "from": "0x8c7E4396970587798C46721AC10F7f613b26DB23",
      "gasPrice": {
        "_hex": "0xba43b7400"
      },
      "gasLimit": {
        "_hex": "0x15f90"
      },
      "to": "0x793AE8C1b1a160BFc07BFB0d04F85eab1A71F4f2",
      "value": {
        "_hex": "0x0"
      },
      "nonce": 0,
      "data": "0x3ba15036",
      "r": "0x739ad02d6b13ccdf360fe4d50e6297c0f2b9641470a7da31273b7d55494cd04e",
      "s": "0x2249e70836a7e30432d95364673b69f0f04f8645adb8b823241b4cd842cf6b89",
      "v": 28,
      "creates": null,
      "raw": "0xf86980850ba43b740083015f9094793ae8c1b1a160bfc07bfb0d04f85eab1a71f4f280843ba150361ca0739ad02d6b13ccdf360fe4d50e6297c0f2b9641470a7da31273b7d55494cd04ea02249e70836a7e30432d95364673b69f0f04f8645adb8b823241b4cd842cf6b89",
      "networkId": 0,
      "chainId": 0
    }
  ]
}