{
  "hash": "0x545bf95676715ac2cb7f7ca3560d176416d954f81657f422fe5d599d53f15097",
  "parentHash": "0x314566b067247827e1b39fde028a447fecae3b1ecf977cce483f05196d4f494d",
  "number": 68661,
  "timestamp": 1439291636,
  "nonce": "0x1f7387c82360317a",
  "difficulty": 2019198515116,
  "gasLimit": {
    "_hex": "0x2fefd8"
  },
  "gasUsed": {
    "_hex": "0x14820"
  },
  "miner": "0x88D74a59454F6cF3B51ef6b9136AFb6b9D405A88",
  "extraData": "0x476574682f76312e302e312d37666266393930632f6c696e75782f676f312e34",
  "transactions": [
    {
      "hash": "0x19b848f01484c935c4f09d0c7cfc7cc9cd9b02d9fbe1a2e0a36054f144bb4d7b",
      "blockHash": "0x545bf95676715ac2cb7f7ca3560d176416d954f81657f422fe5d599d53f15097",
      "blockNumber": 68661,
      "transactionIndex": 0,
      "confirmations": null,
      "from": "0x29Ab575850dCEf127cd8D646fB3c208b3860C2F0",
      "gasPrice": {
        "_hex": "0xcf4fdd749"
      },
      "gasLimit": {
        "_hex": "0x15f90"
      },
      "to": "0xA10CDF70bc138605c39F8651A78485Fe4F1C3811",
      "value": {
        "_hex": "0x4563918244f40000"
      },
      "nonce": 3,
      "data": "0x",
      "r": "0xd700a5917aac0eaac6b07d6e9848bc105881a6ebf93140f35b2515b12f7adb4d",
      "s": "0x7c59311df5a762d73625f4645052878df6c17fdc1aefd7e3b4b296b3a3203f11",
      "v": 28,
      "creates": null,
      "raw": "0xf86d03850cf4fdd74983015f9094a10cdf70bc138605c39f8651a78485fe4f1c3811884563918244f40000801ca0d700a5917aac0eaac6b07d6e9848bc105881a6ebf93140f35b2515b12f7adb4da07c59311df5a762d73625f4645052878df6c17fdc1aefd7e3b4b296b3a3203f11",
      "networkId": 0,
      "chainId": 0
    },
    {
      "hash": "0xa5b9095f77985bdfdbed375bef40f2913cf0f121b14fb83e433a9130cca3b101",
      "blockHash": "0x545bf95676715ac2cb7f7ca3560d176416d954f81657f422fe5d599d53f15097",
      "blockNumber": 68661,
      "transactionIndex": 1,
      "confirmations": null,
      "from": "0x127A702eEf1aD1918eD3f540F0452f588bC93BFE",
      "gasPrice": {
        "_hex": "0xba43b7400"
      },
      "gasLimit": {
        "_hex": "0x5208"
      },
      "to": "0x86D329AC157AdA70189066571A3f3f91148c0A74",
      "value": {
        "_hex": "0x1d7684e6875b000"
      },
      "nonce": 1,
      "data": "0x",
      "r": "0xa07fa4e579318a01b29a24fb3e79c89e3f282f3298c96832c02ef2f911c7ef90",
      "s": "0x1ad7f7cffcdc05e3e353180ba7445421fb0df092708fbe597ca842e86c6c0022",
      "v": 27,
      "creates": null,
      "raw": "0xf86c01850ba43b74008252089486d329ac157ada70189066571a3f3f91148c0a748801d7684e6875b000801ba0a07fa4e579318a01b29a24fb3e79c89e3f282f3298c96832c02ef2f911c7ef90a01ad7f7cffcdc05e3e353180ba7445421fb0df092708fbe597ca842e86c6c0022",
      "networkId": 0,
      "chainId": 0
    },
    {
      "hash": "0xf4437010d50086e3f0736bc4c1d493a70aaaf6c429380d15ce478d8733d15b2e",
      "blockHash": "0x545bf95676715ac2cb7f7ca3560d176416d954f81657f422fe5d599d53f15097",
      "blockNumber": 68661,
      "transactionIndex": 2,
      "confirmations": null,
      "from": "0xf47Fb3f80B2f87Aebe94682A80A80BAA61e4cFC9",
      "gasPrice": {
        "_hex": "0xba43b7400"
      },
      "gasLimit": {
        "_hex": "0x5208"
      },
      "to": "0x940937d0F38187133c30f0c69879a02e939d1a53",
      "value": {
        "_hex": "0x1d7684e6875b000"
      },
      "nonce": 1,
      "data": "0x",
      "r": "0x4ba6095351463743f845f3ed828c202fd5543f6f97256ba38686e8d068e5e457",
      "s": "0x4ed4495b112f75a259865eeb28a0a1cc6ca7dee6fad4fd1f41ba66d91961bca7",
      "v": 27,
      "creates": null,
      "raw": "0xf86c01850ba43b740082520894940937d0f38187133c30f0c69879a02e939d1a538801d7684e6875b000801ba04ba6095351463743f845f3ed828c202fd5543f6f97256ba38686e8d068e5e457a04ed4495b112f75a259865eeb28a0a1cc6ca7dee6fad4fd1f41ba66d91961bca7",
      "networkId": 0,
      "chainId": 0
    },
    {
      "hash": "0x81612f1604b1137ba129b5e4208dbdbb440f789be8234357a7ae31d91ad1cf34",
      "blockHash": "0x545bf95676715ac2cb7f7ca3560d176416d954f81657f422fe5d599d53f15097",
      "blockNumber": 68661,
      "transactionIndex": 3,
      "confirmations": null,
      "from": "0x5d331fDbC48F5e2f69c144B8AA0ff3E902b76da2",
      "gasPrice": {
        "_hex": "0xba43b7400"
      },
      "gasLimit": {
        "_hex": "0x5208"
      },
      "to": "0xA0300a193C9b548706DCacc9F117E887cbF0C70e",
      "value": {
        "_hex": "0x1d7684e6875b000"
      },
      "nonce": 1,
      "data": "0x",
      "r": "0xfbbcc96d2d488fa2c6cc9e417cc91067ba0e66f702854e814a1ed17c5c8465a3",
      "s": "0x253d7d39647e29f2a79b81934c78b8839630473e6711de042a8869b8254d6c10",
      "v": 27,
      "creates": null,
      "raw": "0xf86c01850ba43b740082520894a0300a193c9b548706dcacc9f117e887cbf0c70e8801d7684e6875b000801ba0fbbcc96d2d488fa2c6cc9e417cc91067ba0e66f702854e814a1ed17c5c8465a3a0253d7d39647e29f2a79b81934c78b8839630473e6711de042a8869b8254d6c10",
      "networkId": 0,
      "chainId": 0
    }
  ]
}