{
  "hash": "0x5b2b7a0baf8e587f2bbe3fabc3ed9367fe8e27e68c71e4b8e4dcb5158c1221ff",
  "parentHash": "0x0f72035ba6de6dcd3d924074d447a4f053fec0d9dee5ffefb9e21e7c63691a04",
  "number": 121815,
  "timestamp": 1440183060,
  "nonce": "0xbfbc6ff3bb6325c4",
  "difficulty": 4486405257571,
  "gasLimit": {
    "_hex": "0x2fefd8"
  },
  "gasUsed": {
    "_hex": "0x5208"
  },
  "miner": "0x88D74a59454F6cF3B51ef6b9136AFb6b9D405A88",
  "extraData": "0x",
  "transactions": [
    {
      "hash": "0xe23f0edd8054d233c62a1e0d144b6ab63324233cf317b3cf7c8de5e925466683",
      "blockHash": "0x5b2b7a0baf8e587f2bbe3fabc3ed9367fe8e27e68c71e4b8e4dcb5158c1221ff",
      "blockNumber": 121815,
      "transactionIndex": 0,
      "confirmations": null,
      "from": "0xA38476691D34942eea6B2F76889223047DB4617A",
      "gasPrice": {
        "_hex": "0xba43b7400"
      },
      "gasLimit": {
        "_hex": "0x15f90"
      },
      "to": "0xc00f7F96CeAcEc5a46E95242554D9d966e8ed74f",
      "value": {
        "_hex": "0x35ab028ac154b80000"
      },
      "nonce": 1,
      "data": "0x",
      "r": "0xafdc9ba752a383a83b0b667e78922393e9aeaccd84437c851f49c809c24066f0",
      "s": "0x084ca04f266767717216f8a6d6dd1a16de699b17e7b91344d9d8850ba449781c",
      "v": 28,
      "creates": null,
      "raw": "0xf86e01850ba43b740083015f9094c00f7f96ceacec5a46e95242554d9d966e8ed74f8935ab028ac154b80000801ca0afdc9ba752a383a83b0b667e78922393e9aeaccd84437c851f49c809c24066f0a0084ca04f266767717216f8a6d6dd1a16de699b17e7b91344d9d8850ba449781c",
      "networkId": 0,
      "chainId": 0
    }
  ]
}