{
  "hash": "0x8d9f1be81d8bde71072c4a704e71e130e51776a4e1baa7fe0e6ce5deeeb0f104",
  "parentHash": "0x5afaec3b4562e02ef3d47bed096303737077a2999e5fc19f07326150321bc666",
  "number": 112546,
  "timestamp": 1440009100,
  "nonce": "0xdad8eda699c39b1f",
  "difficulty": 4428214980740,
  "gasLimit": {
    "_hex": "0x2fefd8"
  },
  "gasUsed": {
    "_hex": "0x5208"
  },
  "miner": "0xf927a40C8B7F6E07c5af7FA2155B4864a4112B13",
  "extraData": "0x",
  "transactions": [
    {
      "hash": "0xb83bb6b606dee00c0bb9dc9ea6b6ed809bc6516c403b81a82a9ac13fe0819359",
      "blockHash": "0x8d9f1be81d8bde71072c4a704e71e130e51776a4e1baa7fe0e6ce5deeeb0f104",
      "blockNumber": 112546,
      "transactionIndex": 0,
      "confirmations": null,
      "from": "0x32Be343B94f860124dC4fEe278FDCBD38C102D88",
      "gasPrice": {
        "_hex": "0xcd8af8eb0"
      },
      "gasLimit": {
        "_hex": "0x5208"
      },
      "to": "0x76899c112A85c5a7d27Ff89f1b97112e900aeEBc",
      "value": {
        "_hex": "0xdde7e448067f0000"
      },
      "nonce": 1343,
      "data": "0x",
      "r": "0xd03aa68261dd4094ab2dc098da4d308802cc5b28005f0b8887f8530ade0c2f68",
      "s": "0x250b4c3a196cf970675ca3eb9d1925c8b910fe4421f386bcc73c187d7c5954ac",
      "v": 28,
      "creates": null,
      "raw": "0xf86e82053f850cd8af8eb08252089476899c112a85c5a7d27ff89f1b97112e900aeebc88dde7e448067f0000801ca0d03aa68261dd4094ab2dc098da4d308802cc5b28005f0b8887f8530ade0c2f68a0250b4c3a196cf970675ca3eb9d1925c8b910fe4421f386bcc73c187d7c5954ac",
      "networkId": 0,
      "chainId": 0
    }
  ]
}