{
  "hash": "0x7846d13a232a4f3b624a057bb06c13a81fe601cc0cdadf13d36e5296775dd3c6",
  "parentHash": "0x9fc6f2b43d2baff7b5ba087c5bb049d5e82baceaf0ff8b0a476f403ae1182a01",
  "number": 58837,
  "timestamp": 1439127510,
  "nonce": "0xd3a688fc8c02ba64",
  "difficulty": 1708990776191,
  "gasLimit": {
    "_hex": "0x2fefd8"
  },
  "gasUsed": {
    "_hex": "0xa410"
  },
  "miner": "0xBbeD46565f5aA9aF9539f543067821fA4B565438",
  "extraData": "0x4920456174205a65427261696e7321",
  "transactions": [
    {
      "hash": "0x44c28038386b8cd6d1b5308e7521207315256e4b29bd5d4d7980a545c0e96ca2",
      "blockHash": "0x7846d13a232a4f3b624a057bb06c13a81fe601cc0cdadf13d36e5296775dd3c6",
      "blockNumber": 58837,
      "transactionIndex": 0,
      "confirmations": null,
      "from": "0xf2881e3e520bF84469Fa00a56449D357FB1af54A",
      "gasPrice": {
        "_hex": "0xdb7e67288"
      },
      "gasLimit": {
        "_hex": "0x5208"
      },
      "to": "0x32Be343B94f860124dC4fEe278FDCBD38C102D88",
      "value": {
        "_hex": "0x878697540b19400000"
      },
      "nonce": 1,
      "data": "0x",
      "r": "0xae022f8b2d0273f98b7018a7e51ff6f6e639d40a4a40ad215b9ee756569bf058",
      "s": "0x193e5caad2bada843c6f99de0993dbcf9b112eeee2334bd2382683d033823397",
      "v": 28,
      "creates": null,
      "raw": "0xf86d01850db7e672888252089432be343b94f860124dc4fee278fdcbd38c102d8889878697540b19400000801ca0ae022f8b2d0273f98b7018a7e51ff6f6e639d40a4a40ad215b9ee756569bf058a0193e5caad2bada843c6f99de0993dbcf9b112eeee2334bd2382683d033823397",
      "networkId": 0,
      "chainId": 0
    },
    {
      "hash": "0x30b077d9051ffe10ba460da60fee212368e0c3a5be9597d29315d79e6322a5ed",
      "blockHash": "0x7846d13a232a4f3b624a057bb06c13a81fe601cc0cdadf13d36e5296775dd3c6",
      "blockNumber": 58837,
      "transactionIndex": 1,
      "confirmations": null,
      "from": "0xF87481A262E993a75F791E7859E71BaC36A606Eb",
      "gasPrice": {
        "_hex": "0xdb7e67288"
      },
      "gasLimit": {
        "_hex": "0x5208"
      },
      "to": "0x32Be343B94f860124dC4fEe278FDCBD38C102D88",
      "value": {
        "_hex": "0x6d495871660254000"
      },
      "nonce": 6,
      "data": "0x",
      "r": "0xd38e7c1045d3c62204be4c5cbc0d14249e0024d2837b73ab3f1e832d6b456fc7",
      "s": "0x08d81ebdab94ee2510b5ef7fef362c909cae261cba7ac86878098c3fd8952615",
      "v": 27,
      "creates": null,
      "raw": "0xf86d06850db7e672888252089432be343b94f860124dc4fee278fdcbd38c102d888906d495871660254000801ba0d38e7c1045d3c62204be4c5cbc0d14249e0024d2837b73ab3f1e832d6b456fc7a008d81ebdab94ee2510b5ef7fef362c909cae261cba7ac86878098c3fd8952615",
      "networkId": 0,
      "chainId": 0
    }
  ]
}