{
  "hash": "0x259c9a537809549d86c7046bfae8352c9a6370b2c586c9bc085563287406c08f",
  "parentHash": "0xd3dca4676e8b5d23972df730f3d358e9d9443453d49aefd32f8bafb845c53e93",
  "number": 70792,
  "timestamp": 1439325598,
  "nonce": "0x4568917037628f47",
  "difficulty": 2145734212524,
  "gasLimit": {
    "_hex": "0x2fe3db"
  },
  "gasUsed": {
    "_hex": "0x546c"
  },
  "miner": "0x9271AB1be3177bF3E3B684a8783698F1B9D600a2",
  "extraData": "0x476574682f76312e302e312f77696e646f77732f676f312e342e32",
  "transactions": [
    {
      "hash": "0x1a31aeeb8fcf148b9fb9ca242bf8d8e4c5449292fa5bade7ce9afae057fc9095",
      "blockHash": "0x259c9a537809549d86c7046bfae8352c9a6370b2c586c9bc085563287406c08f",
      "blockNumber": 70792,
      "transactionIndex": 0,
      "confirmations": null,
      "from": "0xc69d663C8d60908391C8D236191533FDf7775613",
      "gasPrice": {
        "_hex": "0x110c8f7d8de"
      },
      "gasLimit": {
        "_hex": "0xc350"
      },
      "to": "0x2910543Af39abA0Cd09dBb2D50200b3E800A63D2",
      "value": {
        "_hex": "0x1a055690d9db800000"
      },
      "nonce": 0,
      "data": "0x454e475a484d364a47",
      "r": "0x62da6caf3e8e7d05b9349a2408e3f34c4e6060b778d8e2f6a928d88f9d0ac7c8",
      "s": "0xae13da29fd6a6cb78f7facb524db259add11f29dc977951e573faf935b030889",
      "v": 27,
      "creates": null,
      "raw": "0xf87780860110c8f7d8de82c350942910543af39aba0cd09dbb2d50200b3e800a63d2891a055690d9db80000089454e475a484d364a471ba062da6caf3e8e7d05b9349a2408e3f34c4e6060b778d8e2f6a928d88f9d0ac7c8a0ae13da29fd6a6cb78f7facb524db259add11f29dc977951e573faf935b030889",
      "networkId": 0,
      "chainId": 0
    }
  ]
}