{
  "hash": "0xc5ca671996703883343b834036f3729426db7b2a60cfce56679c4b19ec1a6fe9",
  "parentHash": "0x462b4b99f802beea63c924ee1f4c53d3dcf495b412a99f4370dfef2715409324",
  "number": 79730,
  "timestamp": 1439474296,
  "nonce": "0x0746c07b50fada9a",
  "difficulty": 2342651683288,
  "gasLimit": {
    "_hex": "0x2fefd8"
  },
  "gasUsed": {
    "_hex": "0x5208"
  },
  "miner": "0x580992B51e3925e23280EfB93d3047C82f17E038",
  "extraData": "0x476574682f76312e302e312f6c696e75782f676f312e342e32",
  "transactions": [
    {
      "hash": "0x7955f56db7f04e633edc3e7eafae4e211b417917e7b2aea56898af8265f81c81",
      "blockHash": "0xc5ca671996703883343b834036f3729426db7b2a60cfce56679c4b19ec1a6fe9",
      "blockNumber": 79730,
      "transactionIndex": 0,
      "confirmations": null,
      "from": "0x8df03bD37602d97980327B58D940258dC57007B3",
      "gasPrice": {
        "_hex": "0xd8364fc25"
      },
      "gasLimit": {
        "_hex": "0x15f90"
      },
      "to": "0x98f2c2754c77b49993EEA4Dcd2D9ABa71B696B60",
      "value": {
        "_hex": "0x8ac7230489e80000"
      },
      "nonce": 5,
      "data": "0x",
      "r": "0xb62acf27ca645bb4aac6a8cb5e14d35f7f4012b4f03368605a1a169ef835089a",
      "s": "0x6b5ce5de84dfc0e1b76505dad5d9579b2f55b034c5813ad652f21b1133d95fdb",
      "v": 28,
      "creates": null,
      "raw": "0xf86d05850d8364fc2583015f909498f2c2754c77b49993eea4dcd2d9aba71b696b60888ac7230489e80000801ca0b62acf27ca645bb4aac6a8cb5e14d35f7f4012b4f03368605a1a169ef835089aa06b5ce5de84dfc0e1b76505dad5d9579b2f55b034c5813ad652f21b1133d95fdb",
      "networkId": 0,
      "chainId": 0
    }
  ]
}