{
  "hash": "0x1071e517342a47da6e050b4e4bc8588c0b9bbe2930b75f12e0aeb0a4498656c1",
  "parentHash": "0x8d40a75360f297ae384e0ef0b2c17fce3744bff307d570f909cb9fdfb964308a",
  "number": 63816,
  "timestamp": 1439210676,
  "nonce": "0xc76bfb74c166de77",
  "difficulty": 1851277379826,
  "gasLimit": {
    "_hex": "0x2fefd8"
  },
  "gasUsed": {
    "_hex": "0x18516"
  },
  "miner": "0xbb7B8287f3F0a933474a79eAe42CBCa977791171",
  "extraData": "0x476574682f4c5649562f76312e302e312f6c696e75782f676f312e342e32",
  "transactions": [
    {
      "hash": "0xcdd742e69efae7013779073e8b88898e61d1469980a86872ff563b03587779e2",
      "blockHash": "0x1071e517342a47da6e050b4e4bc8588c0b9bbe2930b75f12e0aeb0a4498656c1",
      "blockNumber": 63816,
      "transactionIndex": 0,
      "confirmations": null,
      "from": "0x378ea1dc8edc19BAe82638029eA8752ce98BcFCD",
      "gasPrice": {
        "_hex": "0x106ce997e44"
      },
      "gasLimit": {
        "_hex": "0x7a120"
      },
      "to": "0xBAA54d6E90c3F4d7Ebec11bD180134C7eD8eBb52",
      "value": {
        "_hex": "0x16345785d8a0000"
      },
      "nonce": 10,
      "data": "0x",
      "r": "0xa6d39a11707042c6887f77ebfd7503a790e41e683231fe7e9998142874440564",
      "s": "0x3b6017fa30f8620986f12e5f15b945fc1d16706eff59781a9b47a487abbfdbfb",
      "v": 28,
      "creates": null,
      "raw": "0xf86e0a860106ce997e448307a12094baa54d6e90c3f4d7ebec11bd180134c7ed8ebb5288016345785d8a0000801ca0a6d39a11707042c6887f77ebfd7503a790e41e683231fe7e9998142874440564a03b6017fa30f8620986f12e5f15b945fc1d16706eff59781a9b47a487abbfdbfb",
      "networkId": 0,
      "chainId": 0
    },
    {
      "hash": "0xd0f0a44907414a4524c4343ffcc90c51904daa7f257d036c39fb908fabd3e2b8",
      "blockHash": "0x1071e517342a47da6e050b4e4bc8588c0b9bbe2930b75f12e0aeb0a4498656c1",
      "blockNumber": 63816,
      "transactionIndex": 1,
      "confirmations": null,
      "from": "0xc8ebccC5F5689Fa8659d83713341e5aD19349448",
      "gasPrice": {
        "_hex": "0xd70c9d5a1"
      },
      "gasLimit": {
        "_hex": "0x15f90"
      },
      "to": "0x793AE8C1b1a160BFc07BFB0d04F85eab1A71F4f2",
      "value": {
        "_hex": "0x0"
      },
      "nonce": 28,
      "data": "0x3ba15036",
      "r": "0x18315e08fd5af9fff99409c445cedda4d5acb026d7d3d3349b84b5c050143600",
      "s": "0x633b82592d8c9d669d5eb91fa4be9097074b7653b89566451a60d474c8717e48",
      "v": 27,
      "creates": null,
      "raw": "0xf8691c850d70c9d5a183015f9094793ae8c1b1a160bfc07bfb0d04f85eab1a71f4f280843ba150361ba018315e08fd5af9fff99409c445cedda4d5acb026d7d3d3349b84b5c050143600a0633b82592d8c9d669d5eb91fa4be9097074b7653b89566451a60d474c8717e48",
      "networkId": 0,
      "chainId": 0
    },
    {
      "hash": "0x86b9b4303375ed6b030d72fb05323f3b4bde82d69eea738c99755f6df27c4021",
      "blockHash": "0x1071e517342a47da6e050b4e4bc8588c0b9bbe2930b75f12e0aeb0a4498656c1",
      "blockNumber": 63816,
      "transactionIndex": 2,
      "confirmations": null,
      "from": "0x8751DfA908C45A8aEf041FbeE9C17f9fE57Cc449",
      "gasPrice": {
        "_hex": "0xce93dae14"
      },
      "gasLimit": {
        "_hex": "0x5208"
      },
      "to": "0x32Be343B94f860124dC4fEe278FDCBD38C102D88",
      "value": {
        "_hex": "0x2b62699ddf426e000"
      },
      "nonce": 1,
      "data": "0x",
      "r": "0x071977616c0c1aac85760f8d4039e631f3d5a56bc4f64c00b3f203daa79cf19b",
      "s": "0x00235c38fa34f98a33e7ae5d270fa37387215bd5001eaa7d3388651a89f0c3b5",
      "v": 27,
      "creates": null,
      "raw": "0xf86c01850ce93dae148252089432be343b94f860124dc4fee278fdcbd38c102d888902b62699ddf426e000801ba0071977616c0c1aac85760f8d4039e631f3d5a56bc4f64c00b3f203daa79cf19b9f235c38fa34f98a33e7ae5d270fa37387215bd5001eaa7d3388651a89f0c3b5",
      "networkId": 0,
      "chainId": 0
    }
  ]
}