{
  "hash": "0xf4fee830d803f3a3aa4c53c703f008d48f1c34b264fe6e1470e796e639cfc82d",
  "parentHash": "0x0f9af50d2cf2b054f2f484fba3a1d413db80843e46db9e1470ce7c364064273f",
  "number": 112161,
  "timestamp": 1440003003,
  "nonce": "0x99beb265f143b555",
  "difficulty": 4374688981479,
  "gasLimit": {
    "_hex": "0x2fefd8"
  },
  "gasUsed": {
    "_hex": "0x5208"
  },
  "miner": "0x007f7f58D3eb5b7510A301eCC749FC1fCDDBE14D",
  "extraData": "0x476574682f76312e302e312f77696e646f77732f676f312e342e32",
  "transactions": [
    {
      "hash": "0xf84fe913f6705e9b68f402266843bd9cd0bdf969b780a573da840cf5360d5bdd",
      "blockHash": "0xf4fee830d803f3a3aa4c53c703f008d48f1c34b264fe6e1470e796e639cfc82d",
      "blockNumber": 112161,
      "transactionIndex": 0,
      "confirmations": null,
      "from": "0xf70a874745EB6c31643CB138f28A47bdd65D6db3",
      "gasPrice": {
        "_hex": "0xba43b7400"
      },
      "gasLimit": {
        "_hex": "0x5208"
      },
      "to": "0xC47Aaa860008be6f65B58c6C6E02a84e666EfE31",
      "value": {
        "_hex": "0x61314fa3b0a99800"
      },
      "nonce": 0,
      "data": "0x",
      "r": "0xdaa9aec5a07af38b87d8f7c0420253d57d2ff885a794fa51b1de4a36c1083ea9",
      "s": "0x1a3ee15e8d8876a6144978f0822a9175702029aab34ae612d653e168909e222d",
      "v": 28,
      "creates": null,
      "raw": "0xf86c80850ba43b740082520894c47aaa860008be6f65b58c6c6e02a84e666efe318861314fa3b0a99800801ca0daa9aec5a07af38b87d8f7c0420253d57d2ff885a794fa51b1de4a36c1083ea9a01a3ee15e8d8876a6144978f0822a9175702029aab34ae612d653e168909e222d",
      "networkId": 0,
      "chainId": 0
    }
  ]
}