{
  "hash": "0xe449904cee1ff00a1bc130552c3b1e2150b33bb83a6b15cfd9384d41744749cf",
  "parentHash": "0x0be1f564ff43d069471c9a612b9e8e9d2952eb74349124022f253fd09a1f5fa2",
  "number": 117616,
  "timestamp": 1440112663,
  "nonce": "0x18f7b682078054b9",
  "difficulty": 4314586734490,
  "gasLimit": {
    "_hex": "0x2fefd8"
  },
  "gasUsed": {
    "_hex": "0x23e38"
  },
  "miner": "0x790b8a3cE86E707ED0eD32bF89B3269692a23CC1",
  "extraData": "0xd783010002844765746887676f312e342e32856c696e7578",
  "transactions": [
    {
      "hash": "0x6ad79e718ad3803f41b587bce5652669429e4dea705c0ad5b1522e727ca34cec",
      "blockHash": "0xe449904cee1ff00a1bc130552c3b1e2150b33bb83a6b15cfd9384d41744749cf",
      "blockNumber": 117616,
      "transactionIndex": 0,
      "confirmations": null,
      "from": "0x6c98db776a9D494264EE160eF60d52b4474c7845",
      "gasPrice": {
        "_hex": "0xba43b7400"
      },
      "gasLimit": {
        "_hex": "0x5208"
      },
      "to": "0xFBb1b73C4f0BDa4f67dcA266ce6Ef42f520fBB98",
      "value": {
        "_hex": "0x7d9bddfe344c7000"
      },
      "nonce": 2,
      "data": "0x",
      "r": "0xf4013960fdee756cf0c1336e4dcebb4dc8bf2465ae27e1a4fb83dff641c69060",
      "s": "0x4724aef792726ad55c24384b69adaabf7e944a5c3ad310c13f088246e9c62a6d",
      "v": 28,
      "creates": null,
      "raw": "0xf86c02850ba43b740082520894fbb1b73c4f0bda4f67dca266ce6ef42f520fbb98887d9bddfe344c7000801ca0f4013960fdee756cf0c1336e4dcebb4dc8bf2465ae27e1a4fb83dff641c69060a04724aef792726ad55c24384b69adaabf7e944a5c3ad310c13f088246e9c62a6d",
      "networkId": 0,
      "chainId": 0
    },
    {
      "hash": "0x21947a0022f47c580d1f5bf8f5091b4e9ccf3f5f03c89cb4d2c38f89b296241c",
      "blockHash": "0xe449904cee1ff00a1bc130552c3b1e2150b33bb83a6b15cfd9384d41744749cf",
      "blockNumber": 117616,
      "transactionIndex": 1,
      "confirmations": null,
      "from": "0xc1BED23F5A2bA19A363215fC2c288FD8ee533E15",
      "gasPrice": {
        "_hex": "0xba43b7400"
      },
      "gasLimit": {
        "_hex": "0x5208"
      },
      "to": "0xFBb1b73C4f0BDa4f67dcA266ce6Ef42f520fBB98",
      "value": {
        "_hex": "0x1efb0e60fc044400"
      },
      "nonce": 5,
      "data": "0x",
      "r": "0x9cad7bea914652b388ad6cfab1cc273765c352b22b91f388c08fc1801b088c4f",
      "s": "0x2ab11a265482bd38c30c5d2a3468b7783ed2fd6feca2a5de2cc282b35ce1a5a5",
      "v": 27,
      "creates": null,
      "raw": "0xf86c05850ba43b740082520894fbb1b73c4f0bda4f67dca266ce6ef42f520fbb98881efb0e60fc044400801ba09cad7bea914652b388ad6cfab1cc273765c352b22b91f388c08fc1801b088c4fa02ab11a265482bd38c30c5d2a3468b7783ed2fd6feca2a5de2cc282b35ce1a5a5",
      "networkId": 0,
      "chainId": 0
    },
    {
      "hash": "0xa8e0b7ed42fefffa679ac28c36752f634ba046405cb90c3593e8921e3b658ab5",
      "blockHash": "0xe449904cee1ff00a1bc130552c3b1e2150b33bb83a6b15cfd9384d41744749cf",
      "blockNumber": 117616,
      "transactionIndex": 2,
      "confirmations": null,
      "from": "0xeeb66aFe554366d685C7832C6c93727Ba577378D",
      "gasPrice": {
        "_hex": "0xba43b7400"
      },
      "gasLimit": {
        "_hex": "0x5208"
      },
      "to": "0xFBb1b73C4f0BDa4f67dcA266ce6Ef42f520fBB98",
      "value": {
        "_hex": "0x2a1f41be6d0a800"
      },
      "nonce": 8,
      "data": "0x",
      "r": "0xbd916c1d1eca1106b72b2b5b6ac90917fcd470ca9ae19f104b1229571212de41",
      "s": "0x0ac9405e776a1de48a3c786f662a01bc769f1716f774a6fc3498a1f1c94f00e5",
      "v": 28,
      "creates": null,
      "raw": "0xf86c08850ba43b740082520894fbb1b73c4f0bda4f67dca266ce6ef42f520fbb988802a1f41be6d0a800801ca0bd916c1d1eca1106b72b2b5b6ac90917fcd470ca9ae19f104b1229571212de41a00ac9405e776a1de48a3c786f662a01bc769f1716f774a6fc3498a1f1c94f00e5",
      "networkId": 0,
      "chainId": 0
    },
    {
      "hash": "0x2a4d3a6cc2d0992bb06c5cfcc87e05040442a8f7bc89aa5a2f43e509fbcc7c70",
      "blockHash": "0xe449904cee1ff00a1bc130552c3b1e2150b33bb83a6b15cfd9384d41744749cf",
      "blockNumber": 117616,
      "transactionIndex": 3,
      "confirmations": null,
      "from": "0xf2711F78854D3b5CE29fA3c550a9328D7df40706",
      "gasPrice": {
        "_hex": "0xba43b7400"
      },
      "gasLimit": {
        "_hex": "0x5208"
      },
      "to": "0xFBb1b73C4f0BDa4f67dcA266ce6Ef42f520fBB98",
      "value": {
        "_hex": "0x1494f2edb0da4000"
      },
      "nonce": 5,
      "data": "0x",
      "r": "0xe3b5b629d6bc13efcb4e40f223f3cc278d77d14de784664fb079ec82b31f9260",
      "s": "0x1e7bdf0930431e31bb640f393357c215eb83b933ce63815b4b601c24df6d1d93",
      "v": 27,
      "creates": null,
      "raw": "0xf86c05850ba43b740082520894fbb1b73c4f0bda4f67dca266ce6ef42f520fbb98881494f2edb0da4000801ba0e3b5b629d6bc13efcb4e40f223f3cc278d77d14de784664fb079ec82b31f9260a01e7bdf0930431e31bb640f393357c215eb83b933ce63815b4b601c24df6d1d93",
      "networkId": 0,
      "chainId": 0
    },
    {
      "hash": "0xf0b13d7389323acbb7c7b440d81842ecd95d1f0115fd9b69307d9f61c59d42d4",
      "blockHash": "0xe449904cee1ff00a1bc130552c3b1e2150b33bb83a6b15cfd9384d41744749cf",
      "blockNumber": 117616,
      "transactionIndex": 4,
      "confirmations": null,
      "from": "0xe34490Fc3A3A1939465ae913D44BfCAf74b59b5D",
      "gasPrice": {
        "_hex": "0xba43b7400"
      },
      "gasLimit": {
        "_hex": "0x5208"
      },
      "to": "0xFBb1b73C4f0BDa4f67dcA266ce6Ef42f520fBB98",
      "value": {
        "_hex": "0x786e6e9316207c00"
      },
      "nonce": 2,
      "data": "0x",
      "r": "0xd3dfd0ceeb1b13236de9a6af7e945313938a5945a261fd7867d77cd70affcb9f",
      "s": "0x39c9c8513f2c65e56c6e5c3e427210baad3e5f7c31db32e1b56ad04287bef249",
      "v": 28,
      "creates": null,
      "raw": "0xf86c02850ba43b740082520894fbb1b73c4f0bda4f67dca266ce6ef42f520fbb9888786e6e9316207c00801ca0d3dfd0ceeb1b13236de9a6af7e945313938a5945a261fd7867d77cd70affcb9fa039c9c8513f2c65e56c6e5c3e427210baad3e5f7c31db32e1b56ad04287bef249",
      "networkId": 0,
      "chainId": 0
    },
    {
      "hash": "0x471ff589b44396eb7ad462f4cde8d0d8c4504c629c8b61ac88a8767c003f6805",
      "blockHash": "0xe449904cee1ff00a1bc130552c3b1e2150b33bb83a6b15cfd9384d41744749cf",
      "blockNumber": 117616,
      "transactionIndex": 5,
      "confirmations": null,
      "from": "0xc05C47a7E9a179EfAf3847E0dB995f45ec30A506",
      "gasPrice": {
        "_hex": "0xba43b7400"
      },
      "gasLimit": {
        "_hex": "0x5208"
      },
      "to": "0xFBb1b73C4f0BDa4f67dcA266ce6Ef42f520fBB98",
      "value": {
        "_hex": "0x22a842538d765000"
      },
      "nonce": 0,
      "data": "0x",
      "r": "0x93ed1f516d4c55f255c2740a078fa283b530f73777a3ffbbede42c38e60248c3",
      "s": "0x095220122d848794c7a9c17436919e5a2a832bf9594abb3e4fb225f499d3ca08",
      "v": 28,
      "creates": null,
      "raw": "0xf86c80850ba43b740082520894fbb1b73c4f0bda4f67dca266ce6ef42f520fbb988822a842538d765000801ca093ed1f516d4c55f255c2740a078fa283b530f73777a3ffbbede42c38e60248c3a0095220122d848794c7a9c17436919e5a2a832bf9594abb3e4fb225f499d3ca08",
      "networkId": 0,
      "chainId": 0
    },
    {
      "hash": "0x1c753a32aae58b34367626eb9f37898b9290bb4e1e5f7cc7277d281e273221d0",
      "blockHash": "0xe449904cee1ff00a1bc130552c3b1e2150b33bb83a6b15cfd9384d41744749cf",
      "blockNumber": 117616,
      "transactionIndex": 6,
      "confirmations": null,
      "from": "0x2435CaC661de90FF84BF79A55629C5bc30B40a0d",
      "gasPrice": {
        "_hex": "0xba43b7400"
      },
      "gasLimit": {
        "_hex": "0x5208"
      },
      "to": "0xFBb1b73C4f0BDa4f67dcA266ce6Ef42f520fBB98",
      "value": {
        "_hex": "0x346548854e356000"
      },
      "nonce": 5,
      "data": "0x",
      "r": "0xe27059e7fc8b9c7cb0eb148b368df5cfbece49f6a659238e51f855232dcecff0",
      "s": "0x5c72c5ab3edab1dd1e1afa6908dccf0453613d1165018be44cbc19e15238404d",
      "v": 27,
      "creates": null,
      "raw": "0xf86c05850ba43b740082520894fbb1b73c4f0bda4f67dca266ce6ef42f520fbb9888346548854e356000801ba0e27059e7fc8b9c7cb0eb148b368df5cfbece49f6a659238e51f855232dcecff0a05c72c5ab3edab1dd1e1afa6908dccf0453613d1165018be44cbc19e15238404d",
      "networkId": 0,
      "chainId": 0
    }
  ]
}