{
  "hash": "0x585c505f3d2e8cefeddde3080786c734aea0e0449450486df930361dbc2c2e04",
  "parentHash": "0xf710570d4c216821a55f1616d1321e4b0e414986c816d8c9e0bad81858159d8f",
  "number": 122034,
  "timestamp": 1440186995,
  "nonce": "0x762ae6826547c54e",
  "difficulty": 4470980315119,
  "gasLimit": {
    "_hex": "0x2fefd8"
  },
  "gasUsed": {
    "_hex": "0x5208"
  },
  "miner": "0x17B719A685fC6C0002798e7f8151D0E2E83B7497",
  "extraData": "0x",
  "transactions": [
    {
      "hash": "0x2449797742e5a6b4008a908257a2cf1847fa2302812024cb14a9939d9c633623",
      "blockHash": "0x585c505f3d2e8cefeddde3080786c734aea0e0449450486df930361dbc2c2e04",
      "blockNumber": 122034,
      "transactionIndex": 0,
      "confirmations": null,
      "from": "0x790b8a3cE86E707ED0eD32bF89B3269692a23CC1",
      "gasPrice": {
        "_hex": "0xba43b7400"
      },
      "gasLimit": {
        "_hex": "0x15f90"
      },
      "to": "0x4D67f4F0Db45b3B5a3424B39ed8d972F710381D5",
      "value": {
        "_hex": "0x33f478ca2dde60000"
      },
      "nonce": 78,
      "data": "0x",
      "r": "0xf2e5633ff0b0ecc21f066f2b10d235895d47ed18ddb6a6c247b90e8bd9af1310",
      "s": "0x2b79f20721a50737a819fabc1c40e11f1e1bdf9a8b48be21ee879686cb9ce5fe",
      "v": 28,
      "creates": null,
      "raw": "0xf86e4e850ba43b740083015f90944d67f4f0db45b3b5a3424b39ed8d972f710381d589033f478ca2dde60000801ca0f2e5633ff0b0ecc21f066f2b10d235895d47ed18ddb6a6c247b90e8bd9af1310a02b79f20721a50737a819fabc1c40e11f1e1bdf9a8b48be21ee879686cb9ce5fe",
      "networkId": 0,
      "chainId": 0
    }
  ]
}