{
  "hash": "0x56f6510ff35d4c19cef10d9ce1afd17669e93bd44a84e72acc60f46656ff2cfd",
  "parentHash": "0x510de420433621bdc20383665969ee6e67ba86e1f331cc53808aad7245fa0363",
  "number": 65217,
  "timestamp": 1439233189,
  "nonce": "0x7ff38f70c989d7df",
  "difficulty": 1946439559806,
  "gasLimit": {
    "_hex": "0x2fefd8"
  },
  "gasUsed": {
    "_hex": "0x2234c"
  },
  "miner": "0xe6A7a1d47ff21B6321162AEA7C6CB457D5476Bca",
  "extraData": "0x476574682f76312e302e312f6c696e75782f676f312e342e32",
  "transactions": [
    {
      "hash": "0x2b3132a67d00306d29e43f9b49f0da170e93c4d8f7347dc82cca55514bd8e9df",
      "blockHash": "0x56f6510ff35d4c19cef10d9ce1afd17669e93bd44a84e72acc60f46656ff2cfd",
      "blockNumber": 65217,
      "transactionIndex": 0,
      "confirmations": null,
      "from": "0x1d395b30adda1cF21f091a4F4A7B753371189441",
      "gasPrice": {
        "_hex": "0x110c8f7d8de"
      },
      "gasLimit": {
        "_hex": "0xc350"
      },
      "to": "0x2910543Af39abA0Cd09dBb2D50200b3E800A63D2",
      "value": {
        "_hex": "0x21e19e0c9bab2400000"
      },
      "nonce": 2,
      "data": "0x454e5a354a47555447",
      "r": "0x9fc28e8ab170232f6713a66c7587b3a3e68aeba7825e577fcc1c6e68eab6507c",
      "s": "0xe40337243a749c3f90fc33349afd06ef0aeb9aaf164d1d6bb1433d31f11e2f1f",
      "v": 27,
      "creates": null,
      "raw": "0xf87802860110c8f7d8de82c350942910543af39aba0cd09dbb2d50200b3e800a63d28a021e19e0c9bab240000089454e5a354a475554471ba09fc28e8ab170232f6713a66c7587b3a3e68aeba7825e577fcc1c6e68eab6507ca0e40337243a749c3f90fc33349afd06ef0aeb9aaf164d1d6bb1433d31f11e2f1f",
      "networkId": 0,
      "chainId": 0
    },
    {
      "hash": "0xf8f712552eb4830cb0eee68cba5ede5a77cf095905dcb819359fc04bff6ecf05",
      "blockHash": "0x56f6510ff35d4c19cef10d9ce1afd17669e93bd44a84e72acc60f46656ff2cfd",
      "blockNumber": 65217,
      "transactionIndex": 1,
      "confirmations": null,
      "from": "0x84ad64deFF6B187f690634051D2a096C359D1099",
      "gasPrice": {
        "_hex": "0xdec2ad1fc"
      },
      "gasLimit": {
        "_hex": "0x5208"
      },
      "to": "0xd8806Af9F36874CABFdC064548e4B74197E75e11",
      "value": {
        "_hex": "0xfb7a955860506"
      },
      "nonce": 4,
      "data": "0x",
      "r": "0x1851babe91408712357999bad274878522cce685f2672a84869fd2b03d6d3237",
      "s": "0x358f0245a0de33ff1afa315e008a8f70a66d5cb5e8668bfa10b0ecb92631e2da",
      "v": 27,
      "creates": null,
      "raw": "0xf86b04850dec2ad1fc82520894d8806af9f36874cabfdc064548e4b74197e75e11870fb7a955860506801ba01851babe91408712357999bad274878522cce685f2672a84869fd2b03d6d3237a0358f0245a0de33ff1afa315e008a8f70a66d5cb5e8668bfa10b0ecb92631e2da",
      "networkId": 0,
      "chainId": 0
    },
    {
      "hash": "0xad5592f91c113623e2e592c188a7110a5c858f5a74529f309cae262c3d522460",
      "blockHash": "0x56f6510ff35d4c19cef10d9ce1afd17669e93bd44a84e72acc60f46656ff2cfd",
      "blockNumber": 65217,
      "transactionIndex": 2,
      "confirmations": null,
      "from": "0x1A9Ac400722144dc66914C62BB3981370fc72183",
      "gasPrice": {
        "_hex": "0xba43b7400"
      },
      "gasLimit": {
        "_hex": "0x15f90"
      },
      "to": "0x793AE8C1b1a160BFc07BFB0d04F85eab1A71F4f2",
      "value": {
        "_hex": "0x0"
      },
      "nonce": 0,
      "data": "0x3ba15036",
      "r": "0x4d5806db0e330cb450594b54c68753d82930c1f60b8d93309b34e3f71dbcfece",
      "s": "0x3a5eb033241212c7462d52d9512c8889bbae03742106e7ac33254ba19e82ba23",
      "v": 27,
      "creates": null,
      "raw": "0xf86980850ba43b740083015f9094793ae8c1b1a160bfc07bfb0d04f85eab1a71f4f280843ba150361ba04d5806db0e330cb450594b54c68753d82930c1f60b8d93309b34e3f71dbcfecea03a5eb033241212c7462d52d9512c8889bbae03742106e7ac33254ba19e82ba23",
      "networkId": 0,
      "chainId": 0
    },
    {
      "hash": "0x6ee64598319cf382ef01a3f58883a39f341c25263fec069442a32234c3efa617",
      "blockHash": "0x56f6510ff35d4c19cef10d9ce1afd17669e93bd44a84e72acc60f46656ff2cfd",
      "blockNumber": 65217,
      "transactionIndex": 3,
      "confirmations": null,
      "from": "0x8b7ed49ed1A9F810dE7565298721136e1Fb2074C",
      "gasPrice": {
        "_hex": "0xba43b7400"
      },
      "gasLimit": {
        "_hex": "0x15f90"
      },
      "to": "0x793AE8C1b1a160BFc07BFB0d04F85eab1A71F4f2",
      "value": {
        "_hex": "0x0"
      },
      "nonce": 0,
      "data": "0x3ba15036",
      "r": "0x7373beec21bc50404f2a74de1bf4222f895e32e3cfaafc0a63617758cb9e2d03",
      "s": "0x3cc20055d8b7904fea7ca3afec55cb54be9af78f6b6f6a9810a4211c701e2b59",
      "v": 28,
      "creates": null,
      "raw": "0xf86980850ba43b740083015f9094793ae8c1b1a160bfc07bfb0d04f85eab1a71f4f280843ba150361ca07373beec21bc50404f2a74de1bf4222f895e32e3cfaafc0a63617758cb9e2d03a03cc20055d8b7904fea7ca3afec55cb54be9af78f6b6f6a9810a4211c701e2b59",
      "networkId": 0,
      "chainId": 0
    }
  ]
}