{
  "hash": "0xc39b8619c01417a8b189edfae5892a38e866c2c5842b0eb980e45d5e773fe78e",
  "parentHash": "0xb94108969c6b634f770fa6154e28a8622e2710425f5e924927c7e982818ace1d",
  "number": 119403,
  "timestamp": 1440142217,
  "nonce": "0xa3bbb31c51cc236b",
  "difficulty": 4413807692818,
  "gasLimit": {
    "_hex": "0x2fefd8"
  },
  "gasUsed": {
    "_hex": "0x29040"
  },
  "miner": "0xC6A5D22D1DDd24B32a308bA4A49ec3cA38a2D0A6",
  "extraData": "0x",
  "transactions": [
    {
      "hash": "0xe667d0aef00d51565fc50d9cf7e02bd924c606b06146da90d1ef762cbcd1354f",
      "blockHash": "0xc39b8619c01417a8b189edfae5892a38e866c2c5842b0eb980e45d5e773fe78e",
      "blockNumber": 119403,
      "transactionIndex": 0,
      "confirmations": null,
      "from": "0x2910543Af39abA0Cd09dBb2D50200b3E800A63D2",
      "gasPrice": {
        "_hex": "0xce8be8305"
      },
      "gasLimit": {
        "_hex": "0x5208"
      },
      "to": "0x34C57A97dF78772fAc54FF75CeF9590457feE4D9",
      "value": {
        "_hex": "0xdcef33a6f838000"
      },
      "nonce": 1155,
      "data": "0x",
      "r": "0x304bcd6da2f655a247cfc2bfd1b62da9983fd51950297931530b651a6ea213d1",
      "s": "0x10dc31cf89a1409eb3497c12590e59ce637614945ca0574a4b5b0d2c93bcd67d",
      "v": 28,
      "creates": null,
      "raw": "0xf86e820483850ce8be83058252089434c57a97df78772fac54ff75cef9590457fee4d9880dcef33a6f838000801ca0304bcd6da2f655a247cfc2bfd1b62da9983fd51950297931530b651a6ea213d1a010dc31cf89a1409eb3497c12590e59ce637614945ca0574a4b5b0d2c93bcd67d",
      "networkId": 0,
      "chainId": 0
    },
    {
      "hash": "0xb62d80752928461b985d243f2fe81c4202e3c41a7c7a3e46f382cb02815ec855",
      "blockHash": "0xc39b8619c01417a8b189edfae5892a38e866c2c5842b0eb980e45d5e773fe78e",
      "blockNumber": 119403,
      "transactionIndex": 1,
      "confirmations": null,
      "from": "0x6CB5e8313a5B29aDb14AE1884D3EcE4489d02D77",
      "gasPrice": {
        "_hex": "0xba43b7400"
      },
      "gasLimit": {
        "_hex": "0x5208"
      },
      "to": "0x32Be343B94f860124dC4fEe278FDCBD38C102D88",
      "value": {
        "_hex": "0x33b1ffef490d8400"
      },
      "nonce": 12,
      "data": "0x",
      "r": "0x45187a2648805448fda726df561b01b0de37ff8f928deb6984b6f162db5a8a87",
      "s": "0x2f63722be0d8b0261323070b4c4687c3627566e4fd122e7e0f1a24d1b7b28bb0",
      "v": 28,
      "creates": null,
      "raw": "0xf86c0c850ba43b74008252089432be343b94f860124dc4fee278fdcbd38c102d888833b1ffef490d8400801ca045187a2648805448fda726df561b01b0de37ff8f928deb6984b6f162db5a8a87a02f63722be0d8b0261323070b4c4687c3627566e4fd122e7e0f1a24d1b7b28bb0",
      "networkId": 0,
      "chainId": 0
    },
    {
      "hash": "0x9a9e0dd7fa2802bdc004b433251d69a7ef49490916610a68f493afbc226854a3",
      "blockHash": "0xc39b8619c01417a8b189edfae5892a38e866c2c5842b0eb980e45d5e773fe78e",
      "blockNumber": 119403,
      "transactionIndex": 2,
      "confirmations": null,
      "from": "0x164d6C84C4D54AA3E22A5b2B72cFb968eDe862C5",
      "gasPrice": {
        "_hex": "0xba43b7400"
      },
      "gasLimit": {
        "_hex": "0x5208"
      },
      "to": "0x32Be343B94f860124dC4fEe278FDCBD38C102D88",
      "value": {
        "_hex": "0x10590e3eb3b770000"
      },
      "nonce": 9,
      "data": "0x",
      "r": "0x2861463b4cf41517eaa8872d6ed3bd6c72cfd5d2faf4f1fc53e77328a02eb2e6",
      "s": "0x1c8e746ac12a9660882bd7f202fd24dc8d6e9b93ca5be6000c539d5ec15ba7f8",
      "v": 27,
      "creates": null,
      "raw": "0xf86d09850ba43b74008252089432be343b94f860124dc4fee278fdcbd38c102d8889010590e3eb3b770000801ba02861463b4cf41517eaa8872d6ed3bd6c72cfd5d2faf4f1fc53e77328a02eb2e6a01c8e746ac12a9660882bd7f202fd24dc8d6e9b93ca5be6000c539d5ec15ba7f8",
      "networkId": 0,
      "chainId": 0
    },
    {
      "hash": "0xd1d3a6f028bc992bacbf5160e56638c362613bb7c37ec0b3438fc04fa176fae6",
      "blockHash": "0xc39b8619c01417a8b189edfae5892a38e866c2c5842b0eb980e45d5e773fe78e",
      "blockNumber": 119403,
      "transactionIndex": 3,
      "confirmations": null,
      "from": "0xCCe96724c29e042F35bCe1c2405feB0e8E30082b",
      "gasPrice": {
        "_hex": "0xba43b7400"
      },
      "gasLimit": {
        "_hex": "0x5208"
      },
      "to": "0x32Be343B94f860124dC4fEe278FDCBD38C102D88",
      "value": {
        "_hex": "0x9abaad91fae11000"
      },
      "nonce": 11,
      "data": "0x",
      "r": "0x9dca39eaf787247cfab3616c8a2787e7ac0ea270441f04ca0339bc42b66d650f",
      "s": "0x3c5f178aefa804305b695c765a7e01dd38e48914f73101c57c4abe4b1330166a",
      "v": 27,
      "creates": null,
      "raw": "0xf86c0b850ba43b74008252089432be343b94f860124dc4fee278fdcbd38c102d88889abaad91fae11000801ba09dca39eaf787247cfab3616c8a2787e7ac0ea270441f04ca0339bc42b66d650fa03c5f178aefa804305b695c765a7e01dd38e48914f73101c57c4abe4b1330166a",
      "networkId": 0,
      "chainId": 0
    },
    {
      "hash": "0x6f5471a39f770ba1c3866d2097a5fe1f029220a929cd5095dffb13585aa132f1",
      "blockHash": "0xc39b8619c01417a8b189edfae5892a38e866c2c5842b0eb980e45d5e773fe78e",
      "blockNumber": 119403,
      "transactionIndex": 4,
      "confirmations": null,
      "from": "0x46b29910396E1cF71678f81101334A180876E9b1",
      "gasPrice": {
        "_hex": "0xba43b7400"
      },
      "gasLimit": {
        "_hex": "0x5208"
      },
      "to": "0x32Be343B94f860124dC4fEe278FDCBD38C102D88",
      "value": {
        "_hex": "0x3c043a0d12634400"
      },
      "nonce": 11,
      "data": "0x",
      "r": "0xc968635d0ab734e620c7a7a00f46531c05e7543594a4fb7a6aef2c15c5ff021e",
      "s": "0x5bf83e1a2f1b6e6221035452a2bafc0ae3d212203d4e7e50d30623d7872a8041",
      "v": 28,
      "creates": null,
      "raw": "0xf86c0b850ba43b74008252089432be343b94f860124dc4fee278fdcbd38c102d88883c043a0d12634400801ca0c968635d0ab734e620c7a7a00f46531c05e7543594a4fb7a6aef2c15c5ff021ea05bf83e1a2f1b6e6221035452a2bafc0ae3d212203d4e7e50d30623d7872a8041",
      "networkId": 0,
      "chainId": 0
    },
    {
      "hash": "0x9ce400b5a5bc0707ced4220a3dbf3979a75b478c7eca20a9f818b94d3725705a",
      "blockHash": "0xc39b8619c01417a8b189edfae5892a38e866c2c5842b0eb980e45d5e773fe78e",
      "blockNumber": 119403,
      "transactionIndex": 5,
      "confirmations": null,
      "from": "0xe6A7a1d47ff21B6321162AEA7C6CB457D5476Bca",
      "gasPrice": {
        "_hex": "0xba43b7400"
      },
      "gasLimit": {
        "_hex": "0x55f0"
      },
      "to": "0xD51361E8863b74B1d3BF75246d30f33f9f103e1d",
      "value": {
        "_hex": "0x2bf16ca1a7e92be0"
      },
      "nonce": 6361,
      "data": "0x",
      "r": "0xe1f6876dcb1f54480d03146c8a38ebfdd81b0c2d414876d906cb14ede669432e",
      "s": "0x7cf170f5540917fc30b32b1d7fbadd8288758ac11016afaa44fb9f5e359213ce",
      "v": 28,
      "creates": null,
      "raw": "0xf86e8218d9850ba43b74008255f094d51361e8863b74b1d3bf75246d30f33f9f103e1d882bf16ca1a7e92be0801ca0e1f6876dcb1f54480d03146c8a38ebfdd81b0c2d414876d906cb14ede669432ea07cf170f5540917fc30b32b1d7fbadd8288758ac11016afaa44fb9f5e359213ce",
      "networkId": 0,
      "chainId": 0
    },
    {
      "hash": "0x8196c887913f1e7df6bedb70d28985540611ea522168d504690703db61083bf2",
      "blockHash": "0xc39b8619c01417a8b189edfae5892a38e866c2c5842b0eb980e45d5e773fe78e",
      "blockNumber": 119403,
      "transactionIndex": 6,
      "confirmations": null,
      "from": "0x7550E0d09f273C690454B44F794D7D381B2E55EA",
      "gasPrice": {
        "_hex": "0xba43b7400"
      },
      "gasLimit": {
        "_hex": "0x5208"
      },
      "to": "0x32Be343B94f860124dC4fEe278FDCBD38C102D88",
      "value": {
        "_hex": "0x4a3187aab9fc5000"
      },
      "nonce": 11,
      "data": "0x",
      "r": "0x371655d23c96568f6099300bdc7978858b729e7ac968fed81608ec465fcbe216",
      "s": "0x57baafbb879c773ce2a90676280c8e9749cbd3d691504326d5a0120a6005d486",
      "v": 27,
      "creates": null,
      "raw": "0xf86c0b850ba43b74008252089432be343b94f860124dc4fee278fdcbd38c102d88884a3187aab9fc5000801ba0371655d23c96568f6099300bdc7978858b729e7ac968fed81608ec465fcbe216a057baafbb879c773ce2a90676280c8e9749cbd3d691504326d5a0120a6005d486",
      "networkId": 0,
      "chainId": 0
    },
    {
      "hash": "0x6e6bf0dd64bdbae42903448d2b3dc8ef0278ab1f459e389b5231307a9f647263",
      "blockHash": "0xc39b8619c01417a8b189edfae5892a38e866c2c5842b0eb980e45d5e773fe78e",
      "blockNumber": 119403,
      "transactionIndex": 7,
      "confirmations": null,
      "from": "0x4369BF4867c99a39513Bb176d468A7e326F3a542",
      "gasPrice": {
        "_hex": "0xba43b7400"
      },
      "gasLimit": {
        "_hex": "0x5208"
      },
      "to": "0x32Be343B94f860124dC4fEe278FDCBD38C102D88",
      "value": {
        "_hex": "0x2b7e2a825795e400"
      },
      "nonce": 11,
      "data": "0x",
      "r": "0x397564634b7b4397258ecfeef36eb9767a4923fff744f3209f104d9a5f6fdf85",
      "s": "0x29a911aa1168c11373fa1d4bddbcb948752299d2c5f3825d5469b1ec3fe023af",
      "v": 28,
      "creates": null,
      "raw": "0xf86c0b850ba43b74008252089432be343b94f860124dc4fee278fdcbd38c102d88882b7e2a825795e400801ca0397564634b7b4397258ecfeef36eb9767a4923fff744f3209f104d9a5f6fdf85a029a911aa1168c11373fa1d4bddbcb948752299d2c5f3825d5469b1ec3fe023af",
      "networkId": 0,
      "chainId": 0
    }
  ]
}