{
  "hash": "0xbb97956b20e1dc4c034f5e91dcf56aa7efd78115f441ff2a19dd4831980d83bb",
  "parentHash": "0x4824bea293eeae77202abf57f1755b61b74382e440caecf20ba09aec7181064d",
  "number": 64974,
  "timestamp": 1439229356,
  "nonce": "0x656d714e9e2b4d0f",
  "difficulty": 1909779584266,
  "gasLimit": {
    "_hex": "0x2fefd8"
  },
  "gasUsed": {
    "_hex": "0xa410"
  },
  "miner": "0xf8E0CA3Ed80bd541b94BEdCf259e8CF2141A9523",
  "extraData": "0x476574682f76312e302e312f77696e646f77732f676f312e342e32",
  "transactions": [
    {
      "hash": "0x4cb2a48c57c4b2d87dc27013a888aaaba3faaa79a59b12fa2a57c19f80d96ed2",
      "blockHash": "0xbb97956b20e1dc4c034f5e91dcf56aa7efd78115f441ff2a19dd4831980d83bb",
      "blockNumber": 64974,
      "transactionIndex": 0,
      "confirmations": null,
      "from": "0x592D1A1eF22cA97f1F9139e053AD875700738829",
      "gasPrice": {
        "_hex": "0xba43b7400"
      },
      "gasLimit": {
        "_hex": "0x5208"
      },
      "to": "0xF084eAbAFbDEc8489139e086dA1E50930C670873",
      "value": {
        "_hex": "0x1c045218ee54000"
      },
      "nonce": 1,
      "data": "0x",
      "r": "0xad872687b100c71cc6a1f182ea86120dc0ff0d38cef94fb1548b0164e2109959",
      "s": "0x0ef266c3f9eb30bc223ec2d44581ab97dc1ec7cb7f30a39e8fd06e30ac0a37c9",
      "v": 28,
      "creates": null,
      "raw": "0xf86c01850ba43b740082520894f084eabafbdec8489139e086da1e50930c6708738801c045218ee54000801ca0ad872687b100c71cc6a1f182ea86120dc0ff0d38cef94fb1548b0164e2109959a00ef266c3f9eb30bc223ec2d44581ab97dc1ec7cb7f30a39e8fd06e30ac0a37c9",
      "networkId": 0,
      "chainId": 0
    },
    {
      "hash": "0xb9e02ab045b203363287c7655bfde74a9cbfaf662d4f7ce2d593058ca7272d31",
      "blockHash": "0xbb97956b20e1dc4c034f5e91dcf56aa7efd78115f441ff2a19dd4831980d83bb",
      "blockNumber": 64974,
      "transactionIndex": 1,
      "confirmations": null,
      "from": "0x5C4090d5A4DAc1355DD9d16Ccb5914028e5C2Be3",
      "gasPrice": {
        "_hex": "0xba43b7400"
      },
      "gasLimit": {
        "_hex": "0x5208"
      },
      "to": "0x96E80964D3a8579bB8ddadA6293F61eC08470F75",
      "value": {
        "_hex": "0x21cd1d4f5270000"
      },
      "nonce": 1,
      "data": "0x",
      "r": "0x407f0cb594567bc41192e04e2aa0a94eba70553939cec6507ab957e01a4cde9d",
      "s": "0x3a7e8c95bf205a377c6620b752f464700974ba8a5a05c78850bffbfd473bf308",
      "v": 28,
      "creates": null,
      "raw": "0xf86c01850ba43b74008252089496e80964d3a8579bb8ddada6293f61ec08470f7588021cd1d4f5270000801ca0407f0cb594567bc41192e04e2aa0a94eba70553939cec6507ab957e01a4cde9da03a7e8c95bf205a377c6620b752f464700974ba8a5a05c78850bffbfd473bf308",
      "networkId": 0,
      "chainId": 0
    }
  ]
}