{
  "hash": "0x0ed533c39e068ad89272e17e98a8c4e481b174e984c1e5c3f1577c36114f3141",
  "parentHash": "0x16d54bd56213c84207be0fcb13dc62507d591855c52de7724c96325b11d9c9fb",
  "number": 103635,
  "timestamp": 1439856547,
  "nonce": "0x04d6343c9d052f82",
  "difficulty": 4207264778281,
  "gasLimit": {
    "_hex": "0x2fefd8"
  },
  "gasUsed": {
    "_hex": "0x5208"
  },
  "miner": "0xC978e305Aaa59952FAb39Ba288d6E9CB09B952E1",
  "extraData": "0x476574682f76312e302e312f77696e646f77732f676f312e342e32",
  "transactions": [
    {
      "hash": "0x194e31efde9fd3798cbb3fbff6002b9c4a5cc54b0c7a80204691b6c913f4fe21",
      "blockHash": "0x0ed533c39e068ad89272e17e98a8c4e481b174e984c1e5c3f1577c36114f3141",
      "blockNumber": 103635,
      "transactionIndex": 0,
      "confirmations": null,
      "from": "0xe63a1879EC438Fd87bc623f66301B703087d3C4c",
      "gasPrice": {
        "_hex": "0xd10d1f51b"
      },
      "gasLimit": {
        "_hex": "0x5208"
      },
      "to": "0x656Ed7fF71A6cFf2CF368297896634F9E6955e0a",
      "value": {
        "_hex": "0xde0b6b3a7640000"
      },
      "nonce": 1,
      "data": "0x",
      "r": "0x18aab7b7b200c47754492e5a1ac7b442d7e2402db5ff7f018e5e5722222dfe86",
      "s": "0x1f3a4ff944bea1d4d4fd7c65aa261c69d66a53e5a7e2e324f0f9aac89cd7436e",
      "v": 28,
      "creates": null,
      "raw": "0xf86c01850d10d1f51b82520894656ed7ff71a6cff2cf368297896634f9e6955e0a880de0b6b3a7640000801ca018aab7b7b200c47754492e5a1ac7b442d7e2402db5ff7f018e5e5722222dfe86a01f3a4ff944bea1d4d4fd7c65aa261c69d66a53e5a7e2e324f0f9aac89cd7436e",
      "networkId": 0,
      "chainId": 0
    }
  ]
}