{
  "hash": "0x82e9c4c0209a49d0e150038e7864df26496b299b83c440608ae90ff67426697b",
  "parentHash": "0x2749a39f3c3a7f24afcee2736963b9d9b9bf50ef7d92d8284c14f2cfa70db340",
  "number": 93693,
  "timestamp": 1439696158,
  "nonce": "0x25e798c02ca34211",
  "difficulty": 3417856251634,
  "gasLimit": {
    "_hex": "0x2fefd8"
  },
  "gasUsed": {
    "_hex": "0xa674"
  },
  "miner": "0x790b8a3cE86E707ED0eD32bF89B3269692a23CC1",
  "extraData": "0xd783010001844765746887676f312e342e32856c696e7578",
  "transactions": [
    {
      "hash": "0x5ed4579f5898cfede10479886ce2dbe20af6ab03e5480e25f5deb3fcadbfc1a9",
      "blockHash": "0x82e9c4c0209a49d0e150038e7864df26496b299b83c440608ae90ff67426697b",
      "blockNumber": 93693,
      "transactionIndex": 0,
      "confirmations": null,
      "from": "0x77e41B4125b7c14757e0f07fE36b2E95db757a10",
      "gasPrice": {
        "_hex": "0xd8dc76b54"
      },
      "gasLimit": {
        "_hex": "0x55f0"
      },
      "to": "0x2910543Af39abA0Cd09dBb2D50200b3E800A63D2",
      "value": {
        "_hex": "0xa4502144dca00000"
      },
      "nonce": 11,
      "data": "0x454e47583939505930",
      "r": "0x4f865d0a0f72c9232b5ac2d23d8c5b55542f89fc641c5f393def2c4bfc7aefd2",
      "s": "0x5dd7dae33e359acb2ef2a8522f5605bdb1c0734bf4bb3faf9abcd248272d5781",
      "v": 27,
      "creates": null,
      "raw": "0xf8750b850d8dc76b548255f0942910543af39aba0cd09dbb2d50200b3e800a63d288a4502144dca0000089454e475839395059301ba04f865d0a0f72c9232b5ac2d23d8c5b55542f89fc641c5f393def2c4bfc7aefd2a05dd7dae33e359acb2ef2a8522f5605bdb1c0734bf4bb3faf9abcd248272d5781",
      "networkId": 0,
      "chainId": 0
    },
    {
      "hash": "0xd634b9b58918369f5ea4ad3827c4e47c44b865f1d893ae1ae192085030190815",
      "blockHash": "0x82e9c4c0209a49d0e150038e7864df26496b299b83c440608ae90ff67426697b",
      "blockNumber": 93693,
      "transactionIndex": 1,
      "confirmations": null,
      "from": "0x32Be343B94f860124dC4fEe278FDCBD38C102D88",
      "gasPrice": {
        "_hex": "0xd88c0413b"
      },
      "gasLimit": {
        "_hex": "0x5208"
      },
      "to": "0xa4F5576fAE9f2e1321EC6eB1EADFf7f7a4fc42ba",
      "value": {
        "_hex": "0x1ef1ea5b885066000"
      },
      "nonce": 932,
      "data": "0x",
      "r": "0x3e06f479809c6470e0b9fb8fd314bf968d351611ef1fa0129e8a3d7873f93947",
      "s": "0x2bae495b003d66719b43d1ea5e72bb7a4875675cd814dba99a4bf29182f94774",
      "v": 27,
      "creates": null,
      "raw": "0xf86f8203a4850d88c0413b82520894a4f5576fae9f2e1321ec6eb1eadff7f7a4fc42ba8901ef1ea5b885066000801ba03e06f479809c6470e0b9fb8fd314bf968d351611ef1fa0129e8a3d7873f93947a02bae495b003d66719b43d1ea5e72bb7a4875675cd814dba99a4bf29182f94774",
      "networkId": 0,
      "chainId": 0
    }
  ]
}