{
  "hash": "0xa16221f895f0f9adb766e337a2527372a54d00b40ea692d5cb2e6c90d1fb506f",
  "parentHash": "0xc792584bbd348b23bb6387d456ea87e2882fc4347b1a4c15fe8cc6c82e8703c1",
  "number": 113778,
  "timestamp": 1440029447,
  "nonce": "0xc873338d5c678d4a",
  "difficulty": 4444893674444,
  "gasLimit": {
    "_hex": "0x2fefd8"
  },
  "gasUsed": {
    "_hex": "0x5208"
  },
  "miner": "0xA2fe5fAEA931A4Fd9CAc31304072f3673770eD40",
  "extraData": "0x476574682f76312e302e312f6c696e75782f676f312e342e32",
  "transactions": [
    {
      "hash": "0xbcb24e19c0fd65a8dbe364d660558bbf2be8c3de382a24f05330802047126d68",
      "blockHash": "0xa16221f895f0f9adb766e337a2527372a54d00b40ea692d5cb2e6c90d1fb506f",
      "blockNumber": 113778,
      "transactionIndex": 0,
      "confirmations": null,
      "from": "0x8Da49A9554B48f282215711581D6500B3045020F",
      "gasPrice": {
        "_hex": "0xba43b7400"
      },
      "gasLimit": {
        "_hex": "0x5208"
      },
      "to": "0xC47Aaa860008be6f65B58c6C6E02a84e666EfE31",
      "value": {
        "_hex": "0x7991d5b0452ca70"
      },
      "nonce": 0,
      "data": "0x",
      "r": "0x36b61580cdcf7fd6f427710acda2b7c678d04b670c92ebcbb648497b3f823b5e",
      "s": "0x6919de36c57ad57f1e706eb7897b075d8d31b09fbd55181a28cafb0d5185fbce",
      "v": 27,
      "creates": null,
      "raw": "0xf86c80850ba43b740082520894c47aaa860008be6f65b58c6c6e02a84e666efe318807991d5b0452ca70801ba036b61580cdcf7fd6f427710acda2b7c678d04b670c92ebcbb648497b3f823b5ea06919de36c57ad57f1e706eb7897b075d8d31b09fbd55181a28cafb0d5185fbce",
      "networkId": 0,
      "chainId": 0
    }
  ]
}