{
  "hash": "0xbb7c9603f98ba420d7a060ff0c36d20d81c0b5e82fb3d5e2557f61ca0a1a7424",
  "parentHash": "0x42c18764fe588aa5a8b625bb2d6bfb7431942c8bd3fb018083e41688847ccbcc",
  "number": 98807,
  "timestamp": 1439779314,
  "nonce": "0xcdaaf95683841dc5",
  "difficulty": 3859255207029,
  "gasLimit": {
    "_hex": "0x2fefd8"
  },
  "gasUsed": {
    "_hex": "0x5208"
  },
  "miner": "0xe6A7a1d47ff21B6321162AEA7C6CB457D5476Bca",
  "extraData": "0x476574682f76312e302e312d38326566323666362f6c696e75782f676f312e34",
  "transactions": [
    {
      "hash": "0xb7b7de7e8dd27d03d5a0550cc7d51318dba8b1e19dca00b2982565ba1de535d7",
      "blockHash": "0xbb7c9603f98ba420d7a060ff0c36d20d81c0b5e82fb3d5e2557f61ca0a1a7424",
      "blockNumber": 98807,
      "transactionIndex": 0,
      "confirmations": null,
      "from": "0x007f7f58D3eb5b7510A301eCC749FC1fCDDBE14D",
      "gasPrice": {
        "_hex": "0xe0cfe7246"
      },
      "gasLimit": {
        "_hex": "0x15f90"
      },
      "to": "0xb1abce2918E21ddb93AA452731a12672A3d9F75a",
      "value": {
        "_hex": "0x4563918244f40000"
      },
      "nonce": 136,
      "data": "0x",
      "r": "0x4f01eadca1cda91215d393d4ab7f38c538584945bbc8fb89b445dc2cfe9caf63",
      "s": "0x197b3951920697ae89a7593371afec588566795c593f100acd4aa0d9189f8da1",
      "v": 27,
      "creates": null,
      "raw": "0xf86e8188850e0cfe724683015f9094b1abce2918e21ddb93aa452731a12672a3d9f75a884563918244f40000801ba04f01eadca1cda91215d393d4ab7f38c538584945bbc8fb89b445dc2cfe9caf63a0197b3951920697ae89a7593371afec588566795c593f100acd4aa0d9189f8da1",
      "networkId": 0,
      "chainId": 0
    }
  ]
}