{
  "hash": "0xac3e36a5b35dbf473beffd1a606474a30419558262a43297add6760fd2d2e575",
  "parentHash": "0x075e485eb88bb3e9484880d7812ff6cad9e5c6552de192793bd6880b09d30e2a",
  "number": 93442,
  "timestamp": 1439690355,
  "nonce": "0x11041f97b458cbe4",
  "difficulty": 3507566027096,
  "gasLimit": {
    "_hex": "0x2fefd5"
  },
  "gasUsed": {
    "_hex": "0x5208"
  },
  "miner": "0x55bAf64fc9eAccFFd7Cc643BB61142E1C6ac093e",
  "extraData": "0x",
  "transactions": [
    {
      "hash": "0x079be7dea0cc1d0df6837baed0a184f75189c81a334711b631341ff8db18b89f",
      "blockHash": "0xac3e36a5b35dbf473beffd1a606474a30419558262a43297add6760fd2d2e575",
      "blockNumber": 93442,
      "transactionIndex": 0,
      "confirmations": null,
      "from": "0x5a0f0935E8E5591B2f9f2d55f29C626B50292088",
      "gasPrice": {
        "_hex": "0xddd5ac941"
      },
      "gasLimit": {
        "_hex": "0x5208"
      },
      "to": "0x32Be343B94f860124dC4fEe278FDCBD38C102D88",
      "value": {
        "_hex": "0x2b5e12f9239c680000"
      },
      "nonce": 20,
      "data": "0x",
      "r": "0x64e2c5e5e26ea77eac9d6efe75b0302397833184fe338cedc5433122c6baf606",
      "s": "0x11c69862c506eefec68a15aa19eb4ad01edf7952a7fae477adadb4b2e88eac78",
      "v": 27,
      "creates": null,
      "raw": "0xf86d14850ddd5ac9418252089432be343b94f860124dc4fee278fdcbd38c102d88892b5e12f9239c680000801ba064e2c5e5e26ea77eac9d6efe75b0302397833184fe338cedc5433122c6baf606a011c69862c506eefec68a15aa19eb4ad01edf7952a7fae477adadb4b2e88eac78",
      "networkId": 0,
      "chainId": 0
    }
  ]
}