{
  "hash": "0xebaf8a0e18cbc5248280811b75975a66f6708373932f2a32b02995dc76b21d42",
  "parentHash": "0x86a566c81df223782aaf3c50a07e1517943a8b6af9f5274da659a2d05d0387cb",
  "number": 87621,
  "timestamp": 1439595041,
  "nonce": "0x4d2b4e93647c1e45",
  "difficulty": 3157116891701,
  "gasLimit": {
    "_hex": "0x2fefd8"
  },
  "gasUsed": {
    "_hex": "0x54b0"
  },
  "miner": "0xe6A7a1d47ff21B6321162AEA7C6CB457D5476Bca",
  "extraData": "0x476574682f76312e302e312d38326566323666362f6c696e75782f676f312e34",
  "transactions": [
    {
      "hash": "0xfb17aed7a34685ac5e3e9ec5fd8c7fc3c38e7ff098f1ff2325ea5a55c85856e9",
      "blockHash": "0xebaf8a0e18cbc5248280811b75975a66f6708373932f2a32b02995dc76b21d42",
      "blockNumber": 87621,
      "transactionIndex": 0,
      "confirmations": null,
      "from": "0x8F68fbE2DCFf038C24F650C9e05Ee478038171cd",
      "gasPrice": {
        "_hex": "0xdf7afcf44"
      },
      "gasLimit": {
        "_hex": "0x55f0"
      },
      "to": "0x40B9b889A21Ff1534d018D71Dc406122EBcf3F5A",
      "value": {
        "_hex": "0x2086ac351052600000"
      },
      "nonce": 19,
      "data": "0x4a465343433732393935",
      "r": "0x3968b81101064e7246156fc125e9e6aba79ef871031a03fe55542f32f180703f",
      "s": "0x5c42c6700f2b613b62f23f9bd1dd73355612db6812ffdd1a6e9b7dd11f878f3b",
      "v": 27,
      "creates": null,
      "raw": "0xf87713850df7afcf448255f09440b9b889a21ff1534d018d71dc406122ebcf3f5a892086ac3510526000008a4a4653434337323939351ba03968b81101064e7246156fc125e9e6aba79ef871031a03fe55542f32f180703fa05c42c6700f2b613b62f23f9bd1dd73355612db6812ffdd1a6e9b7dd11f878f3b",
      "networkId": 0,
      "chainId": 0
    }
  ]
}