{
  "hash": "0xe31e05d464501a70bef429e5ec31d46192b99f37cc6c031b41f86344cf3bf973",
  "parentHash": "0x4bc7c3f250ef66386dc4e7fb0c88cad45b3c2d84d9a834bbebfe57ec77921f82",
  "number": 103248,
  "timestamp": 1439850010,
  "nonce": "0xefdb7d63ed39cd55",
  "difficulty": 4201300122292,
  "gasLimit": {
    "_hex": "0x2fefd8"
  },
  "gasUsed": {
    "_hex": "0x5208"
  },
  "miner": "0xe6A7a1d47ff21B6321162AEA7C6CB457D5476Bca",
  "extraData": "0x476574682f76312e302e312d38326566323666362f6c696e75782f676f312e34",
  "transactions": [
    {
      "hash": "0x58d584b25433ff51fadd618992a24f27ed59e08bda37de93c26e207b7aac7bad",
      "blockHash": "0xe31e05d464501a70bef429e5ec31d46192b99f37cc6c031b41f86344cf3bf973",
      "blockNumber": 103248,
      "transactionIndex": 0,
      "confirmations": null,
      "from": "0x55bAf64fc9eAccFFd7Cc643BB61142E1C6ac093e",
      "gasPrice": {
        "_hex": "0xba43b7400"
      },
      "gasLimit": {
        "_hex": "0x55f0"
      },
      "to": "0xfE439e496730A23d448f85fA219972ea04793aB7",
      "value": {
        "_hex": "0x14c33156c76e9c0000"
      },
      "nonce": 9,
      "data": "0x",
      "r": "0x43ef012177f8edfbaed6ae21e4feabd8ad1aeff291b8f25f94bdf6016b06bad2",
      "s": "0x5459699d78c4d5c2abf44b979e902485a0070538b407afe607b6871e2496518e",
      "v": 27,
      "creates": null,
      "raw": "0xf86d09850ba43b74008255f094fe439e496730a23d448f85fa219972ea04793ab78914c33156c76e9c0000801ba043ef012177f8edfbaed6ae21e4feabd8ad1aeff291b8f25f94bdf6016b06bad2a05459699d78c4d5c2abf44b979e902485a0070538b407afe607b6871e2496518e",
      "networkId": 0,
      "chainId": 0
    }
  ]
}