{
  "hash": "0x92eee1f982c51c7db33698e1616735537f984a0ed2132b602c349e8b27ed3ed0",
  "parentHash": "0xe7de652a2b6162216628665f5dbc122b4f6e08a28e36688e0d373fbaa673bd11",
  "number": 111626,
  "timestamp": 1439993464,
  "nonce": "0x578c3203ddbaa62e",
  "difficulty": 4428700661031,
  "gasLimit": {
    "_hex": "0x2fefd8"
  },
  "gasUsed": {
    "_hex": "0x5208"
  },
  "miner": "0xC603Ab5ef41fC61AA8b76bEddb09e3Cfcbb174BD",
  "extraData": "0x476574682f76312e302e312f77696e646f77732f676f312e342e32",
  "transactions": [
    {
      "hash": "0x96575bd41e0f5126999d69f7f96282832f18e94f85e8a46c800cbdd409cfc4a1",
      "blockHash": "0x92eee1f982c51c7db33698e1616735537f984a0ed2132b602c349e8b27ed3ed0",
      "blockNumber": 111626,
      "transactionIndex": 0,
      "confirmations": null,
      "from": "0x42E6723A0c884E922240e56D7B618BeC96F35800",
      "gasPrice": {
        "_hex": "0x9184e72a000"
      },
      "gasLimit": {
        "_hex": "0x5208"
      },
      "to": "0x15dE68788d01B2504DF8621cB4721c54eD543305",
      "value": {
        "_hex": "0x1043561a8829300000"
      },
      "nonce": 9,
      "data": "0x",
      "r": "0x6ce8b9bc897944bdce18c544c2efc6851dc5122a129e4dbacff54d7e50443c47",
      "s": "0x3c64fdd0c9143bd161e04ffb370e6ca3279ef6cf6923a115c264330a6d205161",
      "v": 28,
      "creates": null,
      "raw": "0xf86e098609184e72a0008252089415de68788d01b2504df8621cb4721c54ed543305891043561a8829300000801ca06ce8b9bc897944bdce18c544c2efc6851dc5122a129e4dbacff54d7e50443c47a03c64fdd0c9143bd161e04ffb370e6ca3279ef6cf6923a115c264330a6d205161",
      "networkId": 0,
      "chainId": 0
    }
  ]
}