{
  "hash": "0xeda35e8366fc7d7abcb02a5fda3c22d6603a3d0b9a36fc7a0c18caa4056fa7b8",
  "parentHash": "0x289a0134e2404484b85ceed2f7f1dbfbb67a07f949ca245699f72a97bcf5125c",
  "number": 110081,
  "timestamp": 1439967760,
  "nonce": "0x0c2009958839d2fd",
  "difficulty": 4384328629053,
  "gasLimit": {
    "_hex": "0x2fefd8"
  },
  "gasUsed": {
    "_hex": "0x5208"
  },
  "miner": "0xC7711C2ed62c75340909Fdf6bf3BF0CA3e1Be850",
  "extraData": "0xda8098302e392e34302b2b302d524c696e75782f672b2b2f696e74",
  "transactions": [
    {
      "hash": "0xdbb42a80b69d7a2e0304b2217b9d154d2125bf55d83965b9c28c35c79e23b222",
      "blockHash": "0xeda35e8366fc7d7abcb02a5fda3c22d6603a3d0b9a36fc7a0c18caa4056fa7b8",
      "blockNumber": 110081,
      "transactionIndex": 0,
      "confirmations": null,
      "from": "0xc597A5d92F5dC1137D847db733cfe02c6d209f13",
      "gasPrice": {
        "_hex": "0xba43b7400"
      },
      "gasLimit": {
        "_hex": "0x15f90"
      },
      "to": "0x907f5b522A971955E203A6B7048615AD520ba62f",
      "value": {
        "_hex": "0x36f9d616a54d6800"
      },
      "nonce": 47,
      "data": "0x",
      "r": "0x0af04a0e0a6041dc6371bac9e6a8932c6ce4a4b0e1116543df02992fdfe4c972",
      "s": "0x4493a1f1c9476fde27f9e97e95b5e353ce467bad1ace4a116559e0e30a17f84a",
      "v": 28,
      "creates": null,
      "raw": "0xf86d2f850ba43b740083015f9094907f5b522a971955e203a6b7048615ad520ba62f8836f9d616a54d6800801ca00af04a0e0a6041dc6371bac9e6a8932c6ce4a4b0e1116543df02992fdfe4c972a04493a1f1c9476fde27f9e97e95b5e353ce467bad1ace4a116559e0e30a17f84a",
      "networkId": 0,
      "chainId": 0
    }
  ]
}