{
  "hash": "0x4a1bdfc7682fdd366ca067e2decd88ca3c275d095726d63196ed825305c5bdff",
  "parentHash": "0xf0f5746079eb9f5ef7d23a3dcd49e44ecc7ab8df7d008ee9bf8bcb7444e2cc23",
  "number": 47845,
  "timestamp": 1438947311,
  "nonce": "0xbb71ac19be6b7fe5",
  "difficulty": 1459412059313,
  "gasLimit": {
    "_hex": "0xfb1a"
  },
  "gasUsed": {
    "_hex": "0x5208"
  },
  "miner": "0x87cD3b7f4DBBFE553DB92Ac1C97c6C24231c5D26",
  "extraData": "0x476574682f76312e302e302f6c696e75782f676f312e342e32",
  "transactions": [
    {
      "hash": "0xe5e6feb4ad54fd8310c7838ce3839f18ee609cbe821d2094e5f6e62f5353321d",
      "blockHash": "0x4a1bdfc7682fdd366ca067e2decd88ca3c275d095726d63196ed825305c5bdff",
      "blockNumber": 47845,
      "transactionIndex": 0,
      "confirmations": null,
      "from": "0x1908dA5B6FA3132dEc867Ec6A74DdB252292107D",
      "gasPrice": {
        "_hex": "0x746a528800"
      },
      "gasLimit": {
        "_hex": "0x5b04"
      },
      "to": "0x0000000000000000000000000000000000000000",
      "value": {
        "_hex": "0x1bc16d674ec80000"
      },
      "nonce": 0,
      "data": "0x",
      "r": "0x80f3cc7041c3f2da19f3f419016bfd00606a466214418dfd3d27bdf4d78c2093",
      "s": "0x7ced9f574edf01858be9c773b67f96d582bdf9d3de3979cf231f467733927018",
      "v": 27,
      "creates": null,
      "raw": "0xf86c8085746a528800825b04940000000000000000000000000000000000000000881bc16d674ec80000801ba080f3cc7041c3f2da19f3f419016bfd00606a466214418dfd3d27bdf4d78c2093a07ced9f574edf01858be9c773b67f96d582bdf9d3de3979cf231f467733927018",
      "networkId": 0,
      "chainId": 0
    }
  ]
}