{
  "hash": "0x9105d3aee70894ab94fd130a1124c5fa75f021b6d44c467ad3b23ff29d6511b4",
  "parentHash": "0xb78bb375e26fec5f80a7079104ba5f4d2b8735e56facdc5ad580eef1559e8059",
  "number": 47809,
  "timestamp": 1438946724,
  "nonce": "0xf62df425ec627c39",
  "difficulty": 1455148939522,
  "gasLimit": {
    "_hex": "0xf620"
  },
  "gasUsed": {
    "_hex": "0xa674"
  },
  "miner": "0x64c0f4A860176e4f956550703F0eF522A9eD06F9",
  "extraData": "0x476574682f76312e302e312d38326566323666362f6c696e75782f676f312e34",
  "transactions": [
    {
      "hash": "0x95eb0314180f6328ccd7430467b9af2ac6b6a6219ec238ad4e28d71c0146e819",
      "blockHash": "0x9105d3aee70894ab94fd130a1124c5fa75f021b6d44c467ad3b23ff29d6511b4",
      "blockNumber": 47809,
      "transactionIndex": 0,
      "confirmations": null,
      "from": "0x02E816AFC1b5C0f39852131959D946eb3b07b5ad",
      "gasPrice": {
        "_hex": "0xde0a5bf7a"
      },
      "gasLimit": {
        "_hex": "0x61a8"
      },
      "to": "0x2910543Af39abA0Cd09dBb2D50200b3E800A63D2",
      "value": {
        "_hex": "0x1043561a8829300000"
      },
      "nonce": 1,
      "data": "0x454e34413431484347",
      "r": "0x1a5c1a43e31f22c6f95357aece964d1bd2638d1b03d7e36cc684e3204e209982",
      "s": "0x11fff1469c9ae672abe4b5d4930eedf0854d81374aa7cd6ec4f2a6fa0ee62974",
      "v": 28,
      "creates": null,
      "raw": "0xf87601850de0a5bf7a8261a8942910543af39aba0cd09dbb2d50200b3e800a63d2891043561a882930000089454e344134314843471ca01a5c1a43e31f22c6f95357aece964d1bd2638d1b03d7e36cc684e3204e209982a011fff1469c9ae672abe4b5d4930eedf0854d81374aa7cd6ec4f2a6fa0ee62974",
      "networkId": 0,
      "chainId": 0
    },
    {
      "hash": "0x68a52baf5a44a2901c91f89421aaeee5504568a8a4d9e883c9ba88ecc5cc24de",
      "blockHash": "0x9105d3aee70894ab94fd130a1124c5fa75f021b6d44c467ad3b23ff29d6511b4",
      "blockNumber": 47809,
      "transactionIndex": 1,
      "confirmations": null,
      "from": "0x40A331195B977325c2aA28FA2f42cb25Ec3c253c",
      "gasPrice": {
        "_hex": "0xd55074bbb"
      },
      "gasLimit": {
        "_hex": "0x9c40"
      },
      "to": "0x3aA42c21B9b31C3E27CCD17E099aF679CdF56907",
      "value": {
        "_hex": "0x0"
      },
      "nonce": 1,
      "data": "0x",
      "r": "0x0e4ee438d0541764de393941e92cebe37cff3b2505118bcebea10884222a2511",
      "s": "0x374d21b399701b38146755c737e48981019035c6849886ec3bb366c0e669a712",
      "v": 28,
      "creates": null,
      "raw": "0xf86401850d55074bbb829c40943aa42c21b9b31c3e27ccd17e099af679cdf5690780801ca00e4ee438d0541764de393941e92cebe37cff3b2505118bcebea10884222a2511a0374d21b399701b38146755c737e48981019035c6849886ec3bb366c0e669a712",
      "networkId": 0,
      "chainId": 0
    }
  ]
}