{
  "hash": "0xd0aded38b1b603cc21796c7b867cb3e40361eb2a9e6bf002cf5c085dedf2beca",
  "parentHash": "0x416d84b12abd65b1f20b96b212ceab8095411147a5cfe8acd2de3b1aaccfa17e",
  "number": 66652,
  "timestamp": 1439258097,
  "nonce": "0xd78efea5a0ad8483",
  "difficulty": 1941361177816,
  "gasLimit": {
    "_hex": "0x2fefd8"
  },
  "gasUsed": {
    "_hex": "0x546c"
  },
  "miner": "0x0037ce3d4B7f8729C8607D8D0248252Be68202c0",
  "extraData": "0x476574682f76312e302e312f77696e646f77732f676f312e342e32",
  "transactions": [
    {
      "hash": "0x2480712098bfc112edc5fe72247edd57ac029a8ebb99541622302ed08364951c",
      "blockHash": "0xd0aded38b1b603cc21796c7b867cb3e40361eb2a9e6bf002cf5c085dedf2beca",
      "blockNumber": 66652,
      "transactionIndex": 0,
      "confirmations": null,
      "from": "0xF5d14552B1dCe0d6dc1F320da6FFc8A331cd6f0C",
      "gasPrice": {
        "_hex": "0xd1733706f"
      },
      "gasLimit": {
        "_hex": "0x55f0"
      },
      "to": "0x2910543Af39abA0Cd09dBb2D50200b3E800A63D2",
      "value": {
        "_hex": "0xccb286d9e50300000"
      },
      "nonce": 1,
      "data": "0x454e37445433383552",
      "r": "0xd86d3f4e898ed91098a45ebf56c8afa58f6c645c75c7ad01c235b986464656ad",
      "s": "0x01d8c15fa0344d362d000e0676b878305b18175d51f555bb8960496f93ef1e3e",
      "v": 28,
      "creates": null,
      "raw": "0xf87601850d1733706f8255f0942910543af39aba0cd09dbb2d50200b3e800a63d2890ccb286d9e5030000089454e374454333835521ca0d86d3f4e898ed91098a45ebf56c8afa58f6c645c75c7ad01c235b986464656ada001d8c15fa0344d362d000e0676b878305b18175d51f555bb8960496f93ef1e3e",
      "networkId": 0,
      "chainId": 0
    }
  ]
}