{
  "hash": "0x5893bc1e482e5eadface1852584a5427646500110b64e372955ce6b1df411707",
  "parentHash": "0x76ed94a44fa1fc5cd5dd4dfa1541fe528a116cd6ff989e055268b60aa1b6b236",
  "number": 115564,
  "timestamp": 1440059374,
  "nonce": "0x1bc116a0bb60a99a",
  "difficulty": 4607455977407,
  "gasLimit": {
    "_hex": "0x2fefd8"
  },
  "gasUsed": {
    "_hex": "0x1d52e"
  },
  "miner": "0xD0ee3F53eE0fCf3F9fbCcdd17BD1b6441DdC2074",
  "extraData": "0x476574682f76312e302e312d38326566323666362f6c696e75782f676f312e34",
  "transactions": [
    {
      "hash": "0xa48d75be906174655c784991e1643d746657f4b7dbf77046ca2f37eba4533484",
      "blockHash": "0x5893bc1e482e5eadface1852584a5427646500110b64e372955ce6b1df411707",
      "blockNumber": 115564,
      "transactionIndex": 0,
      "confirmations": null,
      "from": "0x55e64970e28367941E1A28e3Adaea732534A3C10",
      "gasPrice": {
        "_hex": "0xdd43ac036"
      },
      "gasLimit": {
        "_hex": "0x15f90"
      },
      "to": "0x31191beEB5a3d7f5eBC5B193e98bd15ce10Eb249",
      "value": {
        "_hex": "0x26db992a3b180000"
      },
      "nonce": 3,
      "data": "0x",
      "r": "0x994cf03b2aebbecae48bce617b153e5e6f8978bc9ce851f9460f5a9c7760c1ae",
      "s": "0x7ff1cd5a80892629dca4b896027b1344c98bcf7c896e3dd3fc263c5402cf8686",
      "v": 28,
      "creates": null,
      "raw": "0xf86d03850dd43ac03683015f909431191beeb5a3d7f5ebc5b193e98bd15ce10eb2498826db992a3b180000801ca0994cf03b2aebbecae48bce617b153e5e6f8978bc9ce851f9460f5a9c7760c1aea07ff1cd5a80892629dca4b896027b1344c98bcf7c896e3dd3fc263c5402cf8686",
      "networkId": 0,
      "chainId": 0
    },
    {
      "hash": "0xb414ddb183c8608175cbf4cab68ab6a059b7ae94572b12c6847410e877a7cc6f",
      "blockHash": "0x5893bc1e482e5eadface1852584a5427646500110b64e372955ce6b1df411707",
      "blockNumber": 115564,
      "transactionIndex": 1,
      "confirmations": null,
      "from": "0xaf4BEE1910f14Fd7B7D119D741E5CddDFb3375CC",
      "gasPrice": {
        "_hex": "0xd18513d15"
      },
      "gasLimit": {
        "_hex": "0x249f0"
      },
      "to": "0xE28e72FCf78647ADCe1F1252F240bbfaebD63BcC",
      "value": {
        "_hex": "0xa2ba57ebc82f940000"
      },
      "nonce": 2,
      "data": "0x45466f3a",
      "r": "0x65e9b775dd2558938c7f05a1beed196f6206e00e2f940e6f416e47f934a64446",
      "s": "0x0a1cf91278916f19b8a7905446a0550ed36b93109b4e0e136a069c21b7644aa0",
      "v": 27,
      "creates": null,
      "raw": "0xf87202850d18513d15830249f094e28e72fcf78647adce1f1252f240bbfaebd63bcc89a2ba57ebc82f9400008445466f3a1ba065e9b775dd2558938c7f05a1beed196f6206e00e2f940e6f416e47f934a64446a00a1cf91278916f19b8a7905446a0550ed36b93109b4e0e136a069c21b7644aa0",
      "networkId": 0,
      "chainId": 0
    }
  ]
}