{
  "hash": "0x636e87dafd7b6264ab381891c4f23b50799185e4d2872700a2328e3a3685bbd8",
  "parentHash": "0x1fe8ae8d5216b297105ed760efd383e666f82b36cf6c1e55f50e2127a7d81fe5",
  "number": 47254,
  "timestamp": 1438936946,
  "nonce": "0x5440f2fdc45f5282",
  "difficulty": 1461654410529,
  "gasLimit": {
    "_hex": "0xa959"
  },
  "gasUsed": {
    "_hex": "0x5208"
  },
  "miner": "0xf927a40C8B7F6E07c5af7FA2155B4864a4112B13",
  "extraData": "0x476574682f76312e302e312f6c696e75782f676f312e342e32",
  "transactions": [
    {
      "hash": "0x8c70103aaafa117b231990cd228ff93bc652fe6ce1ad4eb4f5669c4652167c97",
      "blockHash": "0x636e87dafd7b6264ab381891c4f23b50799185e4d2872700a2328e3a3685bbd8",
      "blockNumber": 47254,
      "transactionIndex": 0,
      "confirmations": null,
      "from": "0xe6A7a1d47ff21B6321162AEA7C6CB457D5476Bca",
      "gasPrice": {
        "_hex": "0xfc014c97b"
      },
      "gasLimit": {
        "_hex": "0x5208"
      },
      "to": "0xFb7Bc66a002762e28545eA0a7fc970d381863C42",
      "value": {
        "_hex": "0x89c603c94e618d78"
      },
      "nonce": 90,
      "data": "0x",
      "r": "0x83444c02a507d9d2bd7da8ffd23f89287d108acbd51da7b09f99b101a8178822",
      "s": "0x6293e91e54ff4c57dbe0326e34027d188de0a6b5fa35274ef63b5a564dca264d",
      "v": 27,
      "creates": null,
      "raw": "0xf86c5a850fc014c97b82520894fb7bc66a002762e28545ea0a7fc970d381863c428889c603c94e618d78801ba083444c02a507d9d2bd7da8ffd23f89287d108acbd51da7b09f99b101a8178822a06293e91e54ff4c57dbe0326e34027d188de0a6b5fa35274ef63b5a564dca264d",
      "networkId": 0,
      "chainId": 0
    }
  ]
}