{
  "hash": "0xfa6a87ab51cb7a7cb6868f2fea7eab0ecfd3a2bbe2c9d44399b8a94833483f37",
  "parentHash": "0xebdf2fd07f937479586ded58fe1d85aea6feb80d1739a70f424f7ab552def9aa",
  "number": 112682,
  "timestamp": 1440011330,
  "nonce": "0x530e750fad829789",
  "difficulty": 4428143189038,
  "gasLimit": {
    "_hex": "0x2fefd8"
  },
  "gasUsed": {
    "_hex": "0x19a28"
  },
  "miner": "0xe6A7a1d47ff21B6321162AEA7C6CB457D5476Bca",
  "extraData": "0x476574682f76312e302e312d38326566323666362f6c696e75782f676f312e34",
  "transactions": [
    {
      "hash": "0x620cade3410459b28c1195fa9dfe8dbd3e224df4c1e64f3e50916ba696da4559",
      "blockHash": "0xfa6a87ab51cb7a7cb6868f2fea7eab0ecfd3a2bbe2c9d44399b8a94833483f37",
      "blockNumber": 112682,
      "transactionIndex": 0,
      "confirmations": null,
      "from": "0xe6A7a1d47ff21B6321162AEA7C6CB457D5476Bca",
      "gasPrice": {
        "_hex": "0xd4ec97720"
      },
      "gasLimit": {
        "_hex": "0x55f0"
      },
      "to": "0x4a900C6a7785648E677cd96E39603466c0C7744A",
      "value": {
        "_hex": "0x1cbcd058de1ede90"
      },
      "nonce": 4724,
      "data": "0x",
      "r": "0xe68808ba71a0cf478fd28032f7db236f987e16b6d56d3fa920e28d6d9b19bfcb",
      "s": "0x694a45024d6a124dafa818dcfff463c95d61d455e6fc420e822435441e12c4a7",
      "v": 27,
      "creates": null,
      "raw": "0xf86e821274850d4ec977208255f0944a900c6a7785648e677cd96e39603466c0c7744a881cbcd058de1ede90801ba0e68808ba71a0cf478fd28032f7db236f987e16b6d56d3fa920e28d6d9b19bfcba0694a45024d6a124dafa818dcfff463c95d61d455e6fc420e822435441e12c4a7",
      "networkId": 0,
      "chainId": 0
    },
    {
      "hash": "0x374c4fbd810102e35af90fa0577096f8602afa35149592dac6cc971829b0d051",
      "blockHash": "0xfa6a87ab51cb7a7cb6868f2fea7eab0ecfd3a2bbe2c9d44399b8a94833483f37",
      "blockNumber": 112682,
      "transactionIndex": 1,
      "confirmations": null,
      "from": "0xe6A7a1d47ff21B6321162AEA7C6CB457D5476Bca",
      "gasPrice": {
        "_hex": "0xd2da3915a"
      },
      "gasLimit": {
        "_hex": "0x55f0"
      },
      "to": "0xC15233674F0Cb7729e4Ab8aB733430C40580914d",
      "value": {
        "_hex": "0x1cde207aa2d9e6e8"
      },
      "nonce": 4725,
      "data": "0x",
      "r": "0xabf86ae884dabc9eb507a5c5b891d23efccbabc15228ac7d0d90b2a0f527a465",
      "s": "0x5531142b3fe8bf0d551d1e01256f91671fa6d4aaaf8172eeae5bc33cfb7db71f",
      "v": 28,
      "creates": null,
      "raw": "0xf86e821275850d2da3915a8255f094c15233674f0cb7729e4ab8ab733430c40580914d881cde207aa2d9e6e8801ca0abf86ae884dabc9eb507a5c5b891d23efccbabc15228ac7d0d90b2a0f527a465a05531142b3fe8bf0d551d1e01256f91671fa6d4aaaf8172eeae5bc33cfb7db71f",
      "networkId": 0,
      "chainId": 0
    },
    {
      "hash": "0x94f66467ba351443a0d5f0e15a29a26d0ea8fc9b0d76b08cde4d9468ce99772d",
      "blockHash": "0xfa6a87ab51cb7a7cb6868f2fea7eab0ecfd3a2bbe2c9d44399b8a94833483f37",
      "blockNumber": 112682,
      "transactionIndex": 2,
      "confirmations": null,
      "from": "0xe6A7a1d47ff21B6321162AEA7C6CB457D5476Bca",
      "gasPrice": {
        "_hex": "0xd2da3915a"
      },
      "gasLimit": {
        "_hex": "0x55f0"
      },
      "to": "0x2bCc16248fEC82100d969224df6b88525e6048B4",
      "value": {
        "_hex": "0x1d1f07622d2f93ec"
      },
      "nonce": 4726,
      "data": "0x",
      "r": "0x23baf565e5433f60b14a33bae1cb41744a049647b591fe6a7ceb66192bd195bc",
      "s": "0x5f5666fc381ba25ddf7356583645e8ec00f64249627c4f89efc0e0bb105782d3",
      "v": 27,
      "creates": null,
      "raw": "0xf86e821276850d2da3915a8255f0942bcc16248fec82100d969224df6b88525e6048b4881d1f07622d2f93ec801ba023baf565e5433f60b14a33bae1cb41744a049647b591fe6a7ceb66192bd195bca05f5666fc381ba25ddf7356583645e8ec00f64249627c4f89efc0e0bb105782d3",
      "networkId": 0,
      "chainId": 0
    },
    {
      "hash": "0x6fe1f43093531258b8bb8bbaa0ba8f837a89e9be3a90715218756cd57fde12c1",
      "blockHash": "0xfa6a87ab51cb7a7cb6868f2fea7eab0ecfd3a2bbe2c9d44399b8a94833483f37",
      "blockNumber": 112682,
      "transactionIndex": 3,
      "confirmations": null,
      "from": "0xe6A7a1d47ff21B6321162AEA7C6CB457D5476Bca",
      "gasPrice": {
        "_hex": "0xd2da3915a"
      },
      "gasLimit": {
        "_hex": "0x55f0"
      },
      "to": "0x7B578F673507975447C714DF2bdCd15801fe30Fe",
      "value": {
        "_hex": "0x1d1f8b208e6baa28"
      },
      "nonce": 4727,
      "data": "0x",
      "r": "0x1c194d42343c842d3beeb61b77ca43500027f0bc382958a58a593d2509c5c077",
      "s": "0x000f07bd08f6f881b3a8189de6497b88d01d3e66ebbc80a969bf91fcb0d9c69a",
      "v": 27,
      "creates": null,
      "raw": "0xf86d821277850d2da3915a8255f0947b578f673507975447c714df2bdcd15801fe30fe881d1f8b208e6baa28801ba01c194d42343c842d3beeb61b77ca43500027f0bc382958a58a593d2509c5c0779f0f07bd08f6f881b3a8189de6497b88d01d3e66ebbc80a969bf91fcb0d9c69a",
      "networkId": 0,
      "chainId": 0
    },
    {
      "hash": "0x876dbabea33befc0d01c61dad7065a75980ae1d8e30db5011b092a029fa8c119",
      "blockHash": "0xfa6a87ab51cb7a7cb6868f2fea7eab0ecfd3a2bbe2c9d44399b8a94833483f37",
      "blockNumber": 112682,
      "transactionIndex": 4,
      "confirmations": null,
      "from": "0xb4eb03c9bDD4944DE22085E8e1dB5Ebd36889Bd8",
      "gasPrice": {
        "_hex": "0xd0b9d47a0"
      },
      "gasLimit": {
        "_hex": "0x5208"
      },
      "to": "0x32Be343B94f860124dC4fEe278FDCBD38C102D88",
      "value": {
        "_hex": "0x138e495ffb470400"
      },
      "nonce": 9,
      "data": "0x",
      "r": "0x1cf961aae47fdee1a114c9bf25abd2f2ee64333942b38cd8f08ce2aa45389a6e",
      "s": "0x19dc29a2409cc949420d0c35f788e3d1996aacf11d827c1a42bca4a8310bd0bd",
      "v": 28,
      "creates": null,
      "raw": "0xf86c09850d0b9d47a08252089432be343b94f860124dc4fee278fdcbd38c102d8888138e495ffb470400801ca01cf961aae47fdee1a114c9bf25abd2f2ee64333942b38cd8f08ce2aa45389a6ea019dc29a2409cc949420d0c35f788e3d1996aacf11d827c1a42bca4a8310bd0bd",
      "networkId": 0,
      "chainId": 0
    }
  ]
}