{
  "hash": "0xab60f9a91298378b49ec4454dced009db9341e8f66feb3f21d2d99708ac03dcd",
  "parentHash": "0xb6db6c923b37b6fd17a9cefec112c288794241a9c8df1a43a5a3a06197259421",
  "number": 101942,
  "timestamp": 1439830214,
  "nonce": "0x3f8237426465238d",
  "difficulty": 3928143411290,
  "gasLimit": {
    "_hex": "0x2fefd8"
  },
  "gasUsed": {
    "_hex": "0xf618"
  },
  "miner": "0x580992B51e3925e23280EfB93d3047C82f17E038",
  "extraData": "0x476574682f76312e302e312f6c696e75782f676f312e342e32",
  "transactions": [
    {
      "hash": "0x169082e135eb5bfbfa2ebcea59ec275180ff715de4ae1d5437470538cfa8e06d",
      "blockHash": "0xab60f9a91298378b49ec4454dced009db9341e8f66feb3f21d2d99708ac03dcd",
      "blockNumber": 101942,
      "transactionIndex": 0,
      "confirmations": null,
      "from": "0x050A4C817B7DD7334cd378B11c0Be4f9D4684816",
      "gasPrice": {
        "_hex": "0xdaeac00b6"
      },
      "gasLimit": {
        "_hex": "0x5208"
      },
      "to": "0x32Be343B94f860124dC4fEe278FDCBD38C102D88",
      "value": {
        "_hex": "0x297a3ac73670a400"
      },
      "nonce": 0,
      "data": "0x",
      "r": "0x55aeb2ad43ed5412e68a1e976b5a3fe410d87be8004f4af68066dd44e0cb2af3",
      "s": "0x49c15ea23b1d56a2a2340cc35901ef862bc0b30f1f4d16d9f87acf6f5e12c1ba",
      "v": 28,
      "creates": null,
      "raw": "0xf86c80850daeac00b68252089432be343b94f860124dc4fee278fdcbd38c102d8888297a3ac73670a400801ca055aeb2ad43ed5412e68a1e976b5a3fe410d87be8004f4af68066dd44e0cb2af3a049c15ea23b1d56a2a2340cc35901ef862bc0b30f1f4d16d9f87acf6f5e12c1ba",
      "networkId": 0,
      "chainId": 0
    },
    {
      "hash": "0x3b9eb95c191f420561a614406520aea32a1d225f610a33e5c15471cc4237c7a4",
      "blockHash": "0xab60f9a91298378b49ec4454dced009db9341e8f66feb3f21d2d99708ac03dcd",
      "blockNumber": 101942,
      "transactionIndex": 1,
      "confirmations": null,
      "from": "0xBBDa93a81B882774e1c9b5e3F933Fa35DaC8bc88",
      "gasPrice": {
        "_hex": "0xdaeac00b6"
      },
      "gasLimit": {
        "_hex": "0x5208"
      },
      "to": "0x32Be343B94f860124dC4fEe278FDCBD38C102D88",
      "value": {
        "_hex": "0xddc54525769a400"
      },
      "nonce": 0,
      "data": "0x",
      "r": "0xa4d7196ee4842f2e7a01e694660c4b29143558a2a21055c820e99be9c9208647",
      "s": "0x4a027336f2f8af37396d96f2f197f488d553fc9bbb6ae0ee7041a729ee094346",
      "v": 28,
      "creates": null,
      "raw": "0xf86c80850daeac00b68252089432be343b94f860124dc4fee278fdcbd38c102d88880ddc54525769a400801ca0a4d7196ee4842f2e7a01e694660c4b29143558a2a21055c820e99be9c9208647a04a027336f2f8af37396d96f2f197f488d553fc9bbb6ae0ee7041a729ee094346",
      "networkId": 0,
      "chainId": 0
    },
    {
      "hash": "0xbdc3851105a80406c4b1db748c5d7e71b818a20e7aa82030cbb44f16e34b8e56",
      "blockHash": "0xab60f9a91298378b49ec4454dced009db9341e8f66feb3f21d2d99708ac03dcd",
      "blockNumber": 101942,
      "transactionIndex": 2,
      "confirmations": null,
      "from": "0x9d0D51Aa42b97151aaCa5876a743172C8c04f09E",
      "gasPrice": {
        "_hex": "0xdaeac00b6"
      },
      "gasLimit": {
        "_hex": "0x5208"
      },
      "to": "0x32Be343B94f860124dC4fEe278FDCBD38C102D88",
      "value": {
        "_hex": "0x455f2f20f4f9a400"
      },
      "nonce": 0,
      "data": "0x",
      "r": "0x6d199f8c135064a9bf7f6f04fd0eb324abda3052f1ff626a3613b243e3baf9f5",
      "s": "0x5d0363fa39db03cd1dbd3f3fb596c467ef77b7551dec2dc40102e242642c7d3e",
      "v": 28,
      "creates": null,
      "raw": "0xf86c80850daeac00b68252089432be343b94f860124dc4fee278fdcbd38c102d8888455f2f20f4f9a400801ca06d199f8c135064a9bf7f6f04fd0eb324abda3052f1ff626a3613b243e3baf9f5a05d0363fa39db03cd1dbd3f3fb596c467ef77b7551dec2dc40102e242642c7d3e",
      "networkId": 0,
      "chainId": 0
    }
  ]
}