{
  "hash": "0x3b9b038500704efc920b04598e2875eb56338111e2de8f08d2394721987d43dd",
  "parentHash": "0x6bcc70d4c8f80dbc663bb1f5edbe5c82d1db07b49ced7d4013256a19bfd39cd7",
  "number": 96133,
  "timestamp": 1439735492,
  "nonce": "0xa3cea08f050502f8",
  "difficulty": 3640784659994,
  "gasLimit": {
    "_hex": "0x2fefd8"
  },
  "gasUsed": {
    "_hex": "0x5208"
  },
  "miner": "0xe6A7a1d47ff21B6321162AEA7C6CB457D5476Bca",
  "extraData": "0x476574682f76312e302e312d38326566323666362f6c696e75782f676f312e34",
  "transactions": [
    {
      "hash": "0x98919a95ecb6e163841532c8bfd65ae4e1c100a1fcf1b86d971d80e20833b320",
      "blockHash": "0x3b9b038500704efc920b04598e2875eb56338111e2de8f08d2394721987d43dd",
      "blockNumber": 96133,
      "transactionIndex": 0,
      "confirmations": null,
      "from": "0xcf00A85f3826941e7A25BFcF9Aac575d40410852",
      "gasPrice": {
        "_hex": "0xd571d34b7"
      },
      "gasLimit": {
        "_hex": "0x15f90"
      },
      "to": "0xD9666150A9dA92d9108198a4072970805a8B3428",
      "value": {
        "_hex": "0x303f3b2c93f1a8000"
      },
      "nonce": 0,
      "data": "0x",
      "r": "0x16d7ebf8819892c64df3fff62a86cac74e20c032811db6b8e6183e64ff210557",
      "s": "0x7379e0c28a85552c020c4645e008c7c30405638dbdaf21eeba8470c3b604cff3",
      "v": 28,
      "creates": null,
      "raw": "0xf86e80850d571d34b783015f9094d9666150a9da92d9108198a4072970805a8b3428890303f3b2c93f1a8000801ca016d7ebf8819892c64df3fff62a86cac74e20c032811db6b8e6183e64ff210557a07379e0c28a85552c020c4645e008c7c30405638dbdaf21eeba8470c3b604cff3",
      "networkId": 0,
      "chainId": 0
    }
  ]
}