{
  "hash": "0x51919f4751d5200f9e2a8d38669522e4410cd6dc68e2d036c86f390c71b98bf9",
  "parentHash": "0x6e9fb74d872522d926ab80ba85b8552aad859dec587f631d9f5cc881fb1d1197",
  "number": 68466,
  "timestamp": 1439288378,
  "nonce": "0x5f33ed4ac588a8ea",
  "difficulty": 2010391284841,
  "gasLimit": {
    "_hex": "0x2fefd8"
  },
  "gasUsed": {
    "_hex": "0x14d9b8"
  },
  "miner": "0xf927a40C8B7F6E07c5af7FA2155B4864a4112B13",
  "extraData": "0x",
  "transactions": [
    {
      "hash": "0x80a3871aa5676fc2597de5d67f8715ecad2d963e43374e672fb10968c5dcd3f1",
      "blockHash": "0x51919f4751d5200f9e2a8d38669522e4410cd6dc68e2d036c86f390c71b98bf9",
      "blockNumber": 68466,
      "transactionIndex": 0,
      "confirmations": null,
      "from": "0x2F5554940C5A32e3D7D6FADd03F5ACb58B69Ed2C",
      "gasPrice": {
        "_hex": "0xba43b7400"
      },
      "gasLimit": {
        "_hex": "0x15f90"
      },
      "to": "0x793AE8C1b1a160BFc07BFB0d04F85eab1A71F4f2",
      "value": {
        "_hex": "0x0"
      },
      "nonce": 0,
      "data": "0x3ba15036",
      "r": "0x03f344b475474f8675fe130ce42fd516a2ae1fbe78edf41473337102908b6225",
      "s": "0x7a9d85035d55f3bf2270c42bbb7896c005db7c264716e8bb21e8e0cca1217eb2",
      "v": 27,
      "creates": null,
      "raw": "0xf86980850ba43b740083015f9094793ae8c1b1a160bfc07bfb0d04f85eab1a71f4f280843ba150361ba003f344b475474f8675fe130ce42fd516a2ae1fbe78edf41473337102908b6225a07a9d85035d55f3bf2270c42bbb7896c005db7c264716e8bb21e8e0cca1217eb2",
      "networkId": 0,
      "chainId": 0
    },
    {
      "hash": "0x097a06ac3ef7a52d3deea984e70d8975004117a3ce765291c9bd3f2d1773056f",
      "blockHash": "0x51919f4751d5200f9e2a8d38669522e4410cd6dc68e2d036c86f390c71b98bf9",
      "blockNumber": 68466,
      "transactionIndex": 1,
      "confirmations": null,
      "from": "0xF04842b2B7e246B4b3A95AE411175183DE614E07",
      "gasPrice": {
        "_hex": "0xba43b7400"
      },
      "gasLimit": {
        "_hex": "0x15f90"
      },
      "to": "0x793AE8C1b1a160BFc07BFB0d04F85eab1A71F4f2",
      "value": {
        "_hex": "0x0"
      },
      "nonce": 0,
      "data": "0x3ba15036",
      "r": "0xe90eb6255f45b89af87c2e4034b0a147051dc4c203cf7127eb96a1ac2f7b89d8",
      "s": "0x10018b6142951b5373276f917811ff4a87e54f8b596ab606674a43ca0c8e75eb",
      "v": 27,
      "creates": null,
      "raw": "0xf86980850ba43b740083015f9094793ae8c1b1a160bfc07bfb0d04f85eab1a71f4f280843ba150361ba0e90eb6255f45b89af87c2e4034b0a147051dc4c203cf7127eb96a1ac2f7b89d8a010018b6142951b5373276f917811ff4a87e54f8b596ab606674a43ca0c8e75eb",
      "networkId": 0,
      "chainId": 0
    },
    {
      "hash": "0x7fd4f1da82d507a88ab75d7cc2bcd81809af5bb0f862ec42de2646ad8cc7637a",
      "blockHash": "0x51919f4751d5200f9e2a8d38669522e4410cd6dc68e2d036c86f390c71b98bf9",
      "blockNumber": 68466,
      "transactionIndex": 2,
      "confirmations": null,
      "from": "0xeaa52F5F994335967cf47c65557c7a4cAeE9eeaD",
      "gasPrice": {
        "_hex": "0xba43b7400"
      },
      "gasLimit": {
        "_hex": "0x15f90"
      },
      "to": "0x793AE8C1b1a160BFc07BFB0d04F85eab1A71F4f2",
      "value": {
        "_hex": "0x0"
      },
      "nonce": 0,
      "data": "0x3ba15036",
      "r": "0x541cc91b2cafcd8c773937a9700187883a8f828d30767ad8c985586571a02641",
      "s": "0x36568e7d858a1bdfae25ecdccb94a6b02b1c23741ebd42972c9a07da190225fb",
      "v": 27,
      "creates": null,
      "raw": "0xf86980850ba43b740083015f9094793ae8c1b1a160bfc07bfb0d04f85eab1a71f4f280843ba150361ba0541cc91b2cafcd8c773937a9700187883a8f828d30767ad8c985586571a02641a036568e7d858a1bdfae25ecdccb94a6b02b1c23741ebd42972c9a07da190225fb",
      "networkId": 0,
      "chainId": 0
    },
    {
      "hash": "0xd42164e6b0280323bae2c35f56bc8acb017e1b9d61fd53431019a143b26e8f64",
      "blockHash": "0x51919f4751d5200f9e2a8d38669522e4410cd6dc68e2d036c86f390c71b98bf9",
      "blockNumber": 68466,
      "transactionIndex": 3,
      "confirmations": null,
      "from": "0x8Ff51eBcD212Bb1fb70235281526B41AB4313fC7",
      "gasPrice": {
        "_hex": "0xba43b7400"
      },
      "gasLimit": {
        "_hex": "0x15f90"
      },
      "to": "0x793AE8C1b1a160BFc07BFB0d04F85eab1A71F4f2",
      "value": {
        "_hex": "0x0"
      },
      "nonce": 0,
      "data": "0x3ba15036",
      "r": "0x0d797d839256eff34446f8afa999ab785f6704e1fb945ce8518a731d54531aa4",
      "s": "0x51e8a3edbb6040ebf836e871070eac679d41feb4fd910f062b124519538f4e20",
      "v": 28,
      "creates": null,
      "raw": "0xf86980850ba43b740083015f9094793ae8c1b1a160bfc07bfb0d04f85eab1a71f4f280843ba150361ca00d797d839256eff34446f8afa999ab785f6704e1fb945ce8518a731d54531aa4a051e8a3edbb6040ebf836e871070eac679d41feb4fd910f062b124519538f4e20",
      "networkId": 0,
      "chainId": 0
    },
    {
      "hash": "0x2172c9cec9e2fbfd2cf70782c961a7688b47fa0dbf4d0ac62e64514f5a41b6d7",
      "blockHash": "0x51919f4751d5200f9e2a8d38669522e4410cd6dc68e2d036c86f390c71b98bf9",
      "blockNumber": 68466,
      "transactionIndex": 4,
      "confirmations": null,
      "from": "0xd411060F5e174F26Cb820Cdbef5278D18bcA80cb",
      "gasPrice": {
        "_hex": "0xba43b7400"
      },
      "gasLimit": {
        "_hex": "0x15f90"
      },
      "to": "0x793AE8C1b1a160BFc07BFB0d04F85eab1A71F4f2",
      "value": {
        "_hex": "0x0"
      },
      "nonce": 0,
      "data": "0x3ba15036",
      "r": "0x36a7f35e03290d5086f3af944706c60a77e87fe59c7f3d6025b41f816501f33e",
      "s": "0x12046617540fcd8216eebd7e42f10a8eeb18343849ac63bba337b3831679b1d6",
      "v": 28,
      "creates": null,
      "raw": "0xf86980850ba43b740083015f9094793ae8c1b1a160bfc07bfb0d04f85eab1a71f4f280843ba150361ca036a7f35e03290d5086f3af944706c60a77e87fe59c7f3d6025b41f816501f33ea012046617540fcd8216eebd7e42f10a8eeb18343849ac63bba337b3831679b1d6",
      "networkId": 0,
      "chainId": 0
    },
    {
      "hash": "0xea4d84d473223b299410048e926fdd9d86ecce3bf4a96321b05fd8cecfdb12a3",
      "blockHash": "0x51919f4751d5200f9e2a8d38669522e4410cd6dc68e2d036c86f390c71b98bf9",
      "blockNumber": 68466,
      "transactionIndex": 5,
      "confirmations": null,
      "from": "0xeaa52F5F994335967cf47c65557c7a4cAeE9eeaD",
      "gasPrice": {
        "_hex": "0xba43b7400"
      },
      "gasLimit": {
        "_hex": "0x5208"
      },
      "to": "0x6747f922385c9a6F9cfDf095F34345257DD597bE",
      "value": {
        "_hex": "0x1072bbac261c000"
      },
      "nonce": 1,
      "data": "0x",
      "r": "0x130175a55f2479deb2e5b9d5999b2aeca58aca79f158f26f3c529905436389df",
      "s": "0x49096279bd1fce0bb6fc29eddce612c73f039b2f90ca0ea45fbb103c58effbaf",
      "v": 28,
      "creates": null,
      "raw": "0xf86c01850ba43b7400825208946747f922385c9a6f9cfdf095f34345257dd597be8801072bbac261c000801ca0130175a55f2479deb2e5b9d5999b2aeca58aca79f158f26f3c529905436389dfa049096279bd1fce0bb6fc29eddce612c73f039b2f90ca0ea45fbb103c58effbaf",
      "networkId": 0,
      "chainId": 0
    },
    {
      "hash": "0x81621922f7fcad538471a5736f64615226a3030c1c8d8e11f40db5946e65f805",
      "blockHash": "0x51919f4751d5200f9e2a8d38669522e4410cd6dc68e2d036c86f390c71b98bf9",
      "blockNumber": 68466,
      "transactionIndex": 6,
      "confirmations": null,
      "from": "0x044587E884b7a69fd290c6D3b2A02300722e5e71",
      "gasPrice": {
        "_hex": "0xba43b7400"
      },
      "gasLimit": {
        "_hex": "0x15f90"
      },
      "to": "0x793AE8C1b1a160BFc07BFB0d04F85eab1A71F4f2",
      "value": {
        "_hex": "0x0"
      },
      "nonce": 0,
      "data": "0x3ba15036",
      "r": "0xbe1f4f89353be1d55294b1a56b489b8e01fbbae8367c62e2a346bcc445866338",
      "s": "0x735da95cb2dfcc49a5fd29aa22747d7c74eee4caf3995c515a710b3b072e4834",
      "v": 28,
      "creates": null,
      "raw": "0xf86980850ba43b740083015f9094793ae8c1b1a160bfc07bfb0d04f85eab1a71f4f280843ba150361ca0be1f4f89353be1d55294b1a56b489b8e01fbbae8367c62e2a346bcc445866338a0735da95cb2dfcc49a5fd29aa22747d7c74eee4caf3995c515a710b3b072e4834",
      "networkId": 0,
      "chainId": 0
    },
    {
      "hash": "0x9d34838fef3c6f2963c7c4f9f06b08573a15185bcd440125f28ab041929a099a",
      "blockHash": "0x51919f4751d5200f9e2a8d38669522e4410cd6dc68e2d036c86f390c71b98bf9",
      "blockNumber": 68466,
      "transactionIndex": 7,
      "confirmations": null,
      "from": "0xE6D3fA2B63535F76A4B7d280B3027099509FCD41",
      "gasPrice": {
        "_hex": "0xba43b7400"
      },
      "gasLimit": {
        "_hex": "0x15f90"
      },
      "to": "0x793AE8C1b1a160BFc07BFB0d04F85eab1A71F4f2",
      "value": {
        "_hex": "0x0"
      },
      "nonce": 0,
      "data": "0x3ba15036",
      "r": "0x77be9b41f77c686a97747485ddffa58f9a39a9b65161ba46e32077e379d09148",
      "s": "0x7723fe87bd1874ca6f292ae445935bdad3f357868a374a29b45b2bd7fcdfb476",
      "v": 27,
      "creates": null,
      "raw": "0xf86980850ba43b740083015f9094793ae8c1b1a160bfc07bfb0d04f85eab1a71f4f280843ba150361ba077be9b41f77c686a97747485ddffa58f9a39a9b65161ba46e32077e379d09148a07723fe87bd1874ca6f292ae445935bdad3f357868a374a29b45b2bd7fcdfb476",
      "networkId": 0,
      "chainId": 0
    },
    {
      "hash": "0x5264f6659405352f536b4976246f5d74aec2e6cf45b0edcbb25076df775f6818",
      "blockHash": "0x51919f4751d5200f9e2a8d38669522e4410cd6dc68e2d036c86f390c71b98bf9",
      "blockNumber": 68466,
      "transactionIndex": 8,
      "confirmations": null,
      "from": "0x40605Ae06CC87caf1B20B3f2853419DF2aB46b01",
      "gasPrice": {
        "_hex": "0xba43b7400"
      },
      "gasLimit": {
        "_hex": "0x15f90"
      },
      "to": "0x793AE8C1b1a160BFc07BFB0d04F85eab1A71F4f2",
      "value": {
        "_hex": "0x0"
      },
      "nonce": 0,
      "data": "0x3ba15036",
      "r": "0xee5e3e3da0f2c4cefdcc135587c600c6421c8cb6f282f51b6e6bec1ff89f834d",
      "s": "0x206fa954b9506681e022ad493a63cf432dcda0ae6ef53887c5af9db6ae39b4e4",
      "v": 28,
      "creates": null,
      "raw": "0xf86980850ba43b740083015f9094793ae8c1b1a160bfc07bfb0d04f85eab1a71f4f280843ba150361ca0ee5e3e3da0f2c4cefdcc135587c600c6421c8cb6f282f51b6e6bec1ff89f834da0206fa954b9506681e022ad493a63cf432dcda0ae6ef53887c5af9db6ae39b4e4",
      "networkId": 0,
      "chainId": 0
    },
    {
      "hash": "0xf705fe4140660ab0d3935de3319f65914755814ef6f843402b71b09c84f88f88",
      "blockHash": "0x51919f4751d5200f9e2a8d38669522e4410cd6dc68e2d036c86f390c71b98bf9",
      "blockNumber": 68466,
      "transactionIndex": 9,
      "confirmations": null,
      "from": "0x40605Ae06CC87caf1B20B3f2853419DF2aB46b01",
      "gasPrice": {
        "_hex": "0xba43b7400"
      },
      "gasLimit": {
        "_hex": "0x5208"
      },
      "to": "0x6747f922385c9a6F9cfDf095F34345257DD597bE",
      "value": {
        "_hex": "0x1072bbac261c000"
      },
      "nonce": 1,
      "data": "0x",
      "r": "0xd40ed553c219ef41a059ff5c3c8b59568b64ab90f6327cc13cd1aad5975573bb",
      "s": "0x7c2c74b9fdd7e33326d36982bacb00b019734d8c3b093b50d702c3c94e5ed4de",
      "v": 27,
      "creates": null,
      "raw": "0xf86c01850ba43b7400825208946747f922385c9a6f9cfdf095f34345257dd597be8801072bbac261c000801ba0d40ed553c219ef41a059ff5c3c8b59568b64ab90f6327cc13cd1aad5975573bba07c2c74b9fdd7e33326d36982bacb00b019734d8c3b093b50d702c3c94e5ed4de",
      "networkId": 0,
      "chainId": 0
    },
    {
      "hash": "0x803032ad4ef1327b23ec74ac2300d648166972bbd5676ac47e5788742c294191",
      "blockHash": "0x51919f4751d5200f9e2a8d38669522e4410cd6dc68e2d036c86f390c71b98bf9",
      "blockNumber": 68466,
      "transactionIndex": 10,
      "confirmations": null,
      "from": "0xF04842b2B7e246B4b3A95AE411175183DE614E07",
      "gasPrice": {
        "_hex": "0xba43b7400"
      },
      "gasLimit": {
        "_hex": "0x5208"
      },
      "to": "0x6747f922385c9a6F9cfDf095F34345257DD597bE",
      "value": {
        "_hex": "0x1072bbac261c000"
      },
      "nonce": 1,
      "data": "0x",
      "r": "0x59a412cdacb303acd2e286dca7b96cfa73393a0ef58bebcf66df5eca2a922e07",
      "s": "0x24fa3714475f272cf28ded85605f296ba5d541d8115cce5adbd9057cb010ddb5",
      "v": 28,
      "creates": null,
      "raw": "0xf86c01850ba43b7400825208946747f922385c9a6f9cfdf095f34345257dd597be8801072bbac261c000801ca059a412cdacb303acd2e286dca7b96cfa73393a0ef58bebcf66df5eca2a922e07a024fa3714475f272cf28ded85605f296ba5d541d8115cce5adbd9057cb010ddb5",
      "networkId": 0,
      "chainId": 0
    },
    {
      "hash": "0xfc8e6aeaa3b76b43e617b993abd982ab83d5e261e5db4cfd17e310ac7f06117b",
      "blockHash": "0x51919f4751d5200f9e2a8d38669522e4410cd6dc68e2d036c86f390c71b98bf9",
      "blockNumber": 68466,
      "transactionIndex": 11,
      "confirmations": null,
      "from": "0xE6D3fA2B63535F76A4B7d280B3027099509FCD41",
      "gasPrice": {
        "_hex": "0xba43b7400"
      },
      "gasLimit": {
        "_hex": "0x5208"
      },
      "to": "0x6747f922385c9a6F9cfDf095F34345257DD597bE",
      "value": {
        "_hex": "0x1072bbac261c000"
      },
      "nonce": 1,
      "data": "0x",
      "r": "0x7ca6cdf0119bcf3050f3b12bd6e97d28ff9792fc3a11fc92c945ac2d43a341b7",
      "s": "0x37e5259b2b1ba4ee692c0fd04e264b16802f6b3f1f8a6a15e20d478b130152c4",
      "v": 27,
      "creates": null,
      "raw": "0xf86c01850ba43b7400825208946747f922385c9a6f9cfdf095f34345257dd597be8801072bbac261c000801ba07ca6cdf0119bcf3050f3b12bd6e97d28ff9792fc3a11fc92c945ac2d43a341b7a037e5259b2b1ba4ee692c0fd04e264b16802f6b3f1f8a6a15e20d478b130152c4",
      "networkId": 0,
      "chainId": 0
    },
    {
      "hash": "0xdc4e677db9784ab4551b7b302cf3e74bfbd1a06031d5372d5a7d55b82f6a7fd2",
      "blockHash": "0x51919f4751d5200f9e2a8d38669522e4410cd6dc68e2d036c86f390c71b98bf9",
      "blockNumber": 68466,
      "transactionIndex": 12,
      "confirmations": null,
      "from": "0x6Cf36bd229547D4B9b6Ef909d3dC89372D627949",
      "gasPrice": {
        "_hex": "0xba43b7400"
      },
      "gasLimit": {
        "_hex": "0x15f90"
      },
      "to": "0x793AE8C1b1a160BFc07BFB0d04F85eab1A71F4f2",
      "value": {
        "_hex": "0x0"
      },
      "nonce": 0,
      "data": "0x3ba15036",
      "r": "0x94a7b772adc8901c0c81e87012004deb02000ec81ccd67fab6adb4caa1625389",
      "s": "0x4af3fa0ec418f79d0a615be677d9200edf9ec3dbd04ac21e9c55d77bd0a5cab4",
      "v": 27,
      "creates": null,
      "raw": "0xf86980850ba43b740083015f9094793ae8c1b1a160bfc07bfb0d04f85eab1a71f4f280843ba150361ba094a7b772adc8901c0c81e87012004deb02000ec81ccd67fab6adb4caa1625389a04af3fa0ec418f79d0a615be677d9200edf9ec3dbd04ac21e9c55d77bd0a5cab4",
      "networkId": 0,
      "chainId": 0
    },
    {
      "hash": "0x06ab5fb428d82ff2ccfbd9d090747f50738e12ad18caa3dc1450708a3eb4d958",
      "blockHash": "0x51919f4751d5200f9e2a8d38669522e4410cd6dc68e2d036c86f390c71b98bf9",
      "blockNumber": 68466,
      "transactionIndex": 13,
      "confirmations": null,
      "from": "0x6DCC57CeaaE257993183A0cDF0a914b44953cD64",
      "gasPrice": {
        "_hex": "0xba43b7400"
      },
      "gasLimit": {
        "_hex": "0x15f90"
      },
      "to": "0x793AE8C1b1a160BFc07BFB0d04F85eab1A71F4f2",
      "value": {
        "_hex": "0x0"
      },
      "nonce": 0,
      "data": "0x3ba15036",
      "r": "0xef1dc16d356ee163393c6f72681e2c9b510adcd13772083684b16a801ede1a47",
      "s": "0x1c7abd5c6fc2feec8064546862dd97196bacfce116e134e2d2e13dca378a190e",
      "v": 27,
      "creates": null,
      "raw": "0xf86980850ba43b740083015f9094793ae8c1b1a160bfc07bfb0d04f85eab1a71f4f280843ba150361ba0ef1dc16d356ee163393c6f72681e2c9b510adcd13772083684b16a801ede1a47a01c7abd5c6fc2feec8064546862dd97196bacfce116e134e2d2e13dca378a190e",
      "networkId": 0,
      "chainId": 0
    },
    {
      "hash": "0x418e71f6255efaecefe882ce65b2450f1fef23d5a55cf0460478ba1924cf2ad4",
      "blockHash": "0x51919f4751d5200f9e2a8d38669522e4410cd6dc68e2d036c86f390c71b98bf9",
      "blockNumber": 68466,
      "transactionIndex": 14,
      "confirmations": null,
      "from": "0x597ACEfcFd3c7312E13c71DecDa89Bb455Ff567F",
      "gasPrice": {
        "_hex": "0xba43b7400"
      },
      "gasLimit": {
        "_hex": "0x15f90"
      },
      "to": "0x793AE8C1b1a160BFc07BFB0d04F85eab1A71F4f2",
      "value": {
        "_hex": "0x0"
      },
      "nonce": 0,
      "data": "0x3ba15036",
      "r": "0x0687d6cf89bb0043986a66cef4c767cd674dea539dcc633649ffbe8e3dd05ad9",
      "s": "0x2567ffe0f351f295bf71db132ecc6cb6187830bdcb50dd9399e76d829d8655e7",
      "v": 27,
      "creates": null,
      "raw": "0xf86980850ba43b740083015f9094793ae8c1b1a160bfc07bfb0d04f85eab1a71f4f280843ba150361ba00687d6cf89bb0043986a66cef4c767cd674dea539dcc633649ffbe8e3dd05ad9a02567ffe0f351f295bf71db132ecc6cb6187830bdcb50dd9399e76d829d8655e7",
      "networkId": 0,
      "chainId": 0
    },
    {
      "hash": "0x92b2b99476a2624b70243b47b7f3ccc285ecd8984299a56a23f6fb759f55f400",
      "blockHash": "0x51919f4751d5200f9e2a8d38669522e4410cd6dc68e2d036c86f390c71b98bf9",
      "blockNumber": 68466,
      "transactionIndex": 15,
      "confirmations": null,
      "from": "0x323a38236e563283D22866AcD4aFE5CFD8bab56E",
      "gasPrice": {
        "_hex": "0xba43b7400"
      },
      "gasLimit": {
        "_hex": "0x15f90"
      },
      "to": "0x793AE8C1b1a160BFc07BFB0d04F85eab1A71F4f2",
      "value": {
        "_hex": "0x0"
      },
      "nonce": 0,
      "data": "0x3ba15036",
      "r": "0xcddbab5c51ba0c9accb307540b96ba449400a5db62dd5f7b9f1ed97fa95739b9",
      "s": "0x409a5db8fda0997c764d006ca7a218f789d5b4a07f0e2aa5837d7a43f2529e37",
      "v": 27,
      "creates": null,
      "raw": "0xf86980850ba43b740083015f9094793ae8c1b1a160bfc07bfb0d04f85eab1a71f4f280843ba150361ba0cddbab5c51ba0c9accb307540b96ba449400a5db62dd5f7b9f1ed97fa95739b9a0409a5db8fda0997c764d006ca7a218f789d5b4a07f0e2aa5837d7a43f2529e37",
      "networkId": 0,
      "chainId": 0
    },
    {
      "hash": "0x661ad7a5a5b2305d2620f3442c061aa21436119b75d5d62209fb881d0091339f",
      "blockHash": "0x51919f4751d5200f9e2a8d38669522e4410cd6dc68e2d036c86f390c71b98bf9",
      "blockNumber": 68466,
      "transactionIndex": 16,
      "confirmations": null,
      "from": "0x6Ce7d33d76744b134F79E9F02DA6D66691900558",
      "gasPrice": {
        "_hex": "0xba43b7400"
      },
      "gasLimit": {
        "_hex": "0x15f90"
      },
      "to": "0x793AE8C1b1a160BFc07BFB0d04F85eab1A71F4f2",
      "value": {
        "_hex": "0x0"
      },
      "nonce": 0,
      "data": "0x3ba15036",
      "r": "0x625733ab30b6b95ea5a0306a678c5817d37fc2f93fde873f7599962ac03be917",
      "s": "0x4f23a4ccb6cf5aee29e0fbb905e07b1d7c31d5f277bd0adf2e3905d97cccbfc7",
      "v": 27,
      "creates": null,
      "raw": "0xf86980850ba43b740083015f9094793ae8c1b1a160bfc07bfb0d04f85eab1a71f4f280843ba150361ba0625733ab30b6b95ea5a0306a678c5817d37fc2f93fde873f7599962ac03be917a04f23a4ccb6cf5aee29e0fbb905e07b1d7c31d5f277bd0adf2e3905d97cccbfc7",
      "networkId": 0,
      "chainId": 0
    },
    {
      "hash": "0x1bab6acb7ec3d63bdd6ffe1f234bb243c4097775316327912cb2ca3f16fbcfb5",
      "blockHash": "0x51919f4751d5200f9e2a8d38669522e4410cd6dc68e2d036c86f390c71b98bf9",
      "blockNumber": 68466,
      "transactionIndex": 17,
      "confirmations": null,
      "from": "0xEc7De4c307B9515D705b01c5E3E7E335731ec352",
      "gasPrice": {
        "_hex": "0xba43b7400"
      },
      "gasLimit": {
        "_hex": "0x15f90"
      },
      "to": "0x793AE8C1b1a160BFc07BFB0d04F85eab1A71F4f2",
      "value": {
        "_hex": "0x0"
      },
      "nonce": 0,
      "data": "0x3ba15036",
      "r": "0xb3278b31d33b6c3324453c2f9bf70e5256240111465672749ec5af4d1fec2961",
      "s": "0x458695e8b3eacad7a6133c7388b4c07d93d2bbdf06d03bc82e0b8970a6d054a5",
      "v": 27,
      "creates": null,
      "raw": "0xf86980850ba43b740083015f9094793ae8c1b1a160bfc07bfb0d04f85eab1a71f4f280843ba150361ba0b3278b31d33b6c3324453c2f9bf70e5256240111465672749ec5af4d1fec2961a0458695e8b3eacad7a6133c7388b4c07d93d2bbdf06d03bc82e0b8970a6d054a5",
      "networkId": 0,
      "chainId": 0
    },
    {
      "hash": "0x03be7e14572ff50f6f8549ed7687c5f2fb4a4974221531c54d9b23b5db63d5f4",
      "blockHash": "0x51919f4751d5200f9e2a8d38669522e4410cd6dc68e2d036c86f390c71b98bf9",
      "blockNumber": 68466,
      "transactionIndex": 18,
      "confirmations": null,
      "from": "0x2F5554940C5A32e3D7D6FADd03F5ACb58B69Ed2C",
      "gasPrice": {
        "_hex": "0xba43b7400"
      },
      "gasLimit": {
        "_hex": "0x5208"
      },
      "to": "0x6747f922385c9a6F9cfDf095F34345257DD597bE",
      "value": {
        "_hex": "0x1072bbac261c000"
      },
      "nonce": 1,
      "data": "0x",
      "r": "0x788f0a6124df50c48d5877c016e08f79355f8e4c30e0263c6ab8dc3b5698d1fd",
      "s": "0x20ad043f392107a6cae39fbeedda4b1557e3112fa5bd006bd8310aae11a7b3de",
      "v": 27,
      "creates": null,
      "raw": "0xf86c01850ba43b7400825208946747f922385c9a6f9cfdf095f34345257dd597be8801072bbac261c000801ba0788f0a6124df50c48d5877c016e08f79355f8e4c30e0263c6ab8dc3b5698d1fda020ad043f392107a6cae39fbeedda4b1557e3112fa5bd006bd8310aae11a7b3de",
      "networkId": 0,
      "chainId": 0
    },
    {
      "hash": "0xdfa1d98ad81c8fee5468fa78b21ea3f0ba98227ff30f52e50412f6d0da353869",
      "blockHash": "0x51919f4751d5200f9e2a8d38669522e4410cd6dc68e2d036c86f390c71b98bf9",
      "blockNumber": 68466,
      "transactionIndex": 19,
      "confirmations": null,
      "from": "0x1CD45B6506902B47216C78485bFfcA0B2e1Aa853",
      "gasPrice": {
        "_hex": "0xba43b7400"
      },
      "gasLimit": {
        "_hex": "0x15f90"
      },
      "to": "0x793AE8C1b1a160BFc07BFB0d04F85eab1A71F4f2",
      "value": {
        "_hex": "0x0"
      },
      "nonce": 0,
      "data": "0x3ba15036",
      "r": "0x8d3bcf5be4df8bf87e6ea03ecbce8332df490a56c8204f7d212051a2a3945ebe",
      "s": "0x5a5d3fa3e281e07a5b1a3cad22a533ced3a1dc4fb1c0920a7995b1a7e3a1060f",
      "v": 27,
      "creates": null,
      "raw": "0xf86980850ba43b740083015f9094793ae8c1b1a160bfc07bfb0d04f85eab1a71f4f280843ba150361ba08d3bcf5be4df8bf87e6ea03ecbce8332df490a56c8204f7d212051a2a3945ebea05a5d3fa3e281e07a5b1a3cad22a533ced3a1dc4fb1c0920a7995b1a7e3a1060f",
      "networkId": 0,
      "chainId": 0
    },
    {
      "hash": "0x7157cdaa6d2e44c7ada5b79b0bef5d4c474e17afb8a008fcd4f880b49fb4a38a",
      "blockHash": "0x51919f4751d5200f9e2a8d38669522e4410cd6dc68e2d036c86f390c71b98bf9",
      "blockNumber": 68466,
      "transactionIndex": 20,
      "confirmations": null,
      "from": "0x044587E884b7a69fd290c6D3b2A02300722e5e71",
      "gasPrice": {
        "_hex": "0xba43b7400"
      },
      "gasLimit": {
        "_hex": "0x5208"
      },
      "to": "0x6747f922385c9a6F9cfDf095F34345257DD597bE",
      "value": {
        "_hex": "0x1072bbac261c000"
      },
      "nonce": 1,
      "data": "0x",
      "r": "0xec160eb904237f3cb50e747dd1e3ce33e8634d1bb360768d3fa5691283b6aae0",
      "s": "0x259127c15ec9c15cb7ca3f60eb09457468d5c7a2f86b58079dc10889f75802c1",
      "v": 28,
      "creates": null,
      "raw": "0xf86c01850ba43b7400825208946747f922385c9a6f9cfdf095f34345257dd597be8801072bbac261c000801ca0ec160eb904237f3cb50e747dd1e3ce33e8634d1bb360768d3fa5691283b6aae0a0259127c15ec9c15cb7ca3f60eb09457468d5c7a2f86b58079dc10889f75802c1",
      "networkId": 0,
      "chainId": 0
    },
    {
      "hash": "0x5c82e249b713df1952e403a94fe1840086d7a164e422893d21df7d530a3b5b7e",
      "blockHash": "0x51919f4751d5200f9e2a8d38669522e4410cd6dc68e2d036c86f390c71b98bf9",
      "blockNumber": 68466,
      "transactionIndex": 21,
      "confirmations": null,
      "from": "0x323a38236e563283D22866AcD4aFE5CFD8bab56E",
      "gasPrice": {
        "_hex": "0xba43b7400"
      },
      "gasLimit": {
        "_hex": "0x5208"
      },
      "to": "0x6747f922385c9a6F9cfDf095F34345257DD597bE",
      "value": {
        "_hex": "0x1072bbac261c000"
      },
      "nonce": 1,
      "data": "0x",
      "r": "0xa06e6101342fb0fe0a77a443f1714e4b4f6f260f0d4b9790da8669633beb78f1",
      "s": "0x247e8f2ae897a678122584cd8a9ab460499fe86fcb0e5d9c6105cb44b6871656",
      "v": 27,
      "creates": null,
      "raw": "0xf86c01850ba43b7400825208946747f922385c9a6f9cfdf095f34345257dd597be8801072bbac261c000801ba0a06e6101342fb0fe0a77a443f1714e4b4f6f260f0d4b9790da8669633beb78f1a0247e8f2ae897a678122584cd8a9ab460499fe86fcb0e5d9c6105cb44b6871656",
      "networkId": 0,
      "chainId": 0
    },
    {
      "hash": "0x25a44e3ee28c0447249a89c60f29acc5adfa8540237bdaf11375cbdccbd251cc",
      "blockHash": "0x51919f4751d5200f9e2a8d38669522e4410cd6dc68e2d036c86f390c71b98bf9",
      "blockNumber": 68466,
      "transactionIndex": 22,
      "confirmations": null,
      "from": "0xd411060F5e174F26Cb820Cdbef5278D18bcA80cb",
      "gasPrice": {
        "_hex": "0xba43b7400"
      },
      "gasLimit": {
        "_hex": "0x5208"
      },
      "to": "0x6747f922385c9a6F9cfDf095F34345257DD597bE",
      "value": {
        "_hex": "0x1072bbac261c000"
      },
      "nonce": 1,
      "data": "0x",
      "r": "0x2d7d3073cb20b62a358ecb0f7466aa28bd2918b5784beb9a66dfc92224b87e19",
      "s": "0x53bb1b857b3b33dfcc1d145279eb847313001b0715467f1ffc1deb26d01a4269",
      "v": 27,
      "creates": null,
      "raw": "0xf86c01850ba43b7400825208946747f922385c9a6f9cfdf095f34345257dd597be8801072bbac261c000801ba02d7d3073cb20b62a358ecb0f7466aa28bd2918b5784beb9a66dfc92224b87e19a053bb1b857b3b33dfcc1d145279eb847313001b0715467f1ffc1deb26d01a4269",
      "networkId": 0,
      "chainId": 0
    },
    {
      "hash": "0x92c720fa6b3c24b1a68835a3b2e23a448d5dbc444a5601b66e2f39c46a96d507",
      "blockHash": "0x51919f4751d5200f9e2a8d38669522e4410cd6dc68e2d036c86f390c71b98bf9",
      "blockNumber": 68466,
      "transactionIndex": 23,
      "confirmations": null,
      "from": "0x597ACEfcFd3c7312E13c71DecDa89Bb455Ff567F",
      "gasPrice": {
        "_hex": "0xba43b7400"
      },
      "gasLimit": {
        "_hex": "0x5208"
      },
      "to": "0x6747f922385c9a6F9cfDf095F34345257DD597bE",
      "value": {
        "_hex": "0x1072bbac261c000"
      },
      "nonce": 1,
      "data": "0x",
      "r": "0x812ba26a42277e87ae6e61e55e2b509802c505c688ecb389f10d6d4399805055",
      "s": "0x50265a6e26cc249dd8b64e44b9b050baf3a96fc7b3ce28ab53d0d44e0f62be20",
      "v": 28,
      "creates": null,
      "raw": "0xf86c01850ba43b7400825208946747f922385c9a6f9cfdf095f34345257dd597be8801072bbac261c000801ca0812ba26a42277e87ae6e61e55e2b509802c505c688ecb389f10d6d4399805055a050265a6e26cc249dd8b64e44b9b050baf3a96fc7b3ce28ab53d0d44e0f62be20",
      "networkId": 0,
      "chainId": 0
    },
    {
      "hash": "0x223a2784ccb6b932d4d9b38bc7ccdeae6cc98d183a8778f50ef42e55ee5463f2",
      "blockHash": "0x51919f4751d5200f9e2a8d38669522e4410cd6dc68e2d036c86f390c71b98bf9",
      "blockNumber": 68466,
      "transactionIndex": 24,
      "confirmations": null,
      "from": "0x4235b34689100F8bc999713b837A3F7C1388D516",
      "gasPrice": {
        "_hex": "0xba43b7400"
      },
      "gasLimit": {
        "_hex": "0x15f90"
      },
      "to": "0x793AE8C1b1a160BFc07BFB0d04F85eab1A71F4f2",
      "value": {
        "_hex": "0x0"
      },
      "nonce": 0,
      "data": "0x3ba15036",
      "r": "0x2b32d8c9d5bb1c0474c338754bd48e3546b176772253d672f8018370b605a943",
      "s": "0x616eb2b960a81e13f4781ef3fe54132b2b39c0d74ce8c2b57dde40a96f41f9fa",
      "v": 27,
      "creates": null,
      "raw": "0xf86980850ba43b740083015f9094793ae8c1b1a160bfc07bfb0d04f85eab1a71f4f280843ba150361ba02b32d8c9d5bb1c0474c338754bd48e3546b176772253d672f8018370b605a943a0616eb2b960a81e13f4781ef3fe54132b2b39c0d74ce8c2b57dde40a96f41f9fa",
      "networkId": 0,
      "chainId": 0
    },
    {
      "hash": "0xc0abf20af94fbd2bf24b2b02c69a17eb81613c1b497352077a85ce48acaf513d",
      "blockHash": "0x51919f4751d5200f9e2a8d38669522e4410cd6dc68e2d036c86f390c71b98bf9",
      "blockNumber": 68466,
      "transactionIndex": 25,
      "confirmations": null,
      "from": "0xb889D0EF34bFBCAA6821CB8Bb4078efeCD82F7fE",
      "gasPrice": {
        "_hex": "0xba43b7400"
      },
      "gasLimit": {
        "_hex": "0x15f90"
      },
      "to": "0x793AE8C1b1a160BFc07BFB0d04F85eab1A71F4f2",
      "value": {
        "_hex": "0x0"
      },
      "nonce": 0,
      "data": "0x3ba15036",
      "r": "0x2e602903854af1acfe39b7379702f8ed145c836cafbfd083e8f89ea018497879",
      "s": "0x14f3ea4dbc7017d5ca9405682b7b1ff559590b44444196f9617270a8d1c08334",
      "v": 27,
      "creates": null,
      "raw": "0xf86980850ba43b740083015f9094793ae8c1b1a160bfc07bfb0d04f85eab1a71f4f280843ba150361ba02e602903854af1acfe39b7379702f8ed145c836cafbfd083e8f89ea018497879a014f3ea4dbc7017d5ca9405682b7b1ff559590b44444196f9617270a8d1c08334",
      "networkId": 0,
      "chainId": 0
    },
    {
      "hash": "0x83489f7f90e7e6e5300c7232e6ceb2b253d8f11a1845d53835c4000db671aff5",
      "blockHash": "0x51919f4751d5200f9e2a8d38669522e4410cd6dc68e2d036c86f390c71b98bf9",
      "blockNumber": 68466,
      "transactionIndex": 26,
      "confirmations": null,
      "from": "0xFe6C45D9BB291F60872C266eE96546a9FfcA2E0d",
      "gasPrice": {
        "_hex": "0xba43b7400"
      },
      "gasLimit": {
        "_hex": "0x15f90"
      },
      "to": "0x793AE8C1b1a160BFc07BFB0d04F85eab1A71F4f2",
      "value": {
        "_hex": "0x0"
      },
      "nonce": 0,
      "data": "0x3ba15036",
      "r": "0x6c90f3c9547d739a201c8365daba5d7781660e89138b986884882bcfa4205ec9",
      "s": "0x654f81f1daaa9465b053930769d909fdc0db72e8e941cfd730a337386afd6a08",
      "v": 27,
      "creates": null,
      "raw": "0xf86980850ba43b740083015f9094793ae8c1b1a160bfc07bfb0d04f85eab1a71f4f280843ba150361ba06c90f3c9547d739a201c8365daba5d7781660e89138b986884882bcfa4205ec9a0654f81f1daaa9465b053930769d909fdc0db72e8e941cfd730a337386afd6a08",
      "networkId": 0,
      "chainId": 0
    },
    {
      "hash": "0x82bb9cbbedfbb1b6c3affa676338ce7b33f450ce7a75f316b859a1fdf3e18834",
      "blockHash": "0x51919f4751d5200f9e2a8d38669522e4410cd6dc68e2d036c86f390c71b98bf9",
      "blockNumber": 68466,
      "transactionIndex": 27,
      "confirmations": null,
      "from": "0x3ec54e6E9E29CaE43563681bd0ed7b0A941fAa5a",
      "gasPrice": {
        "_hex": "0xba43b7400"
      },
      "gasLimit": {
        "_hex": "0x15f90"
      },
      "to": "0x793AE8C1b1a160BFc07BFB0d04F85eab1A71F4f2",
      "value": {
        "_hex": "0x0"
      },
      "nonce": 0,
      "data": "0x3ba15036",
      "r": "0xffa930f1e8505695760b30e530c5bbf800350097c91529722a02c1256dc4386e",
      "s": "0x1f328f50b4e9ad482334d780766862826ecd894912a0911c743129d995878ea4",
      "v": 28,
      "creates": null,
      "raw": "0xf86980850ba43b740083015f9094793ae8c1b1a160bfc07bfb0d04f85eab1a71f4f280843ba150361ca0ffa930f1e8505695760b30e530c5bbf800350097c91529722a02c1256dc4386ea01f328f50b4e9ad482334d780766862826ecd894912a0911c743129d995878ea4",
      "networkId": 0,
      "chainId": 0
    },
    {
      "hash": "0x26d15f8cc1ee2c8d575e1db66c5365601577664c4dd8bedb5ce77507ae771d14",
      "blockHash": "0x51919f4751d5200f9e2a8d38669522e4410cd6dc68e2d036c86f390c71b98bf9",
      "blockNumber": 68466,
      "transactionIndex": 28,
      "confirmations": null,
      "from": "0xFe6C45D9BB291F60872C266eE96546a9FfcA2E0d",
      "gasPrice": {
        "_hex": "0xba43b7400"
      },
      "gasLimit": {
        "_hex": "0x5208"
      },
      "to": "0x6747f922385c9a6F9cfDf095F34345257DD597bE",
      "value": {
        "_hex": "0x1072bbac261c000"
      },
      "nonce": 1,
      "data": "0x",
      "r": "0xf6baedabdaa304ec24b73074c827083ba73746fb25b5f0467c91c9126c8d524b",
      "s": "0x14a2771841282c945f2446dbeb8a47f26c83d1018d117f07d6aeec1c7ef8f228",
      "v": 28,
      "creates": null,
      "raw": "0xf86c01850ba43b7400825208946747f922385c9a6f9cfdf095f34345257dd597be8801072bbac261c000801ca0f6baedabdaa304ec24b73074c827083ba73746fb25b5f0467c91c9126c8d524ba014a2771841282c945f2446dbeb8a47f26c83d1018d117f07d6aeec1c7ef8f228",
      "networkId": 0,
      "chainId": 0
    },
    {
      "hash": "0xa640cea7bb394904c3682751e22d043ce11c150857f1cf327969910605a3abd6",
      "blockHash": "0x51919f4751d5200f9e2a8d38669522e4410cd6dc68e2d036c86f390c71b98bf9",
      "blockNumber": 68466,
      "transactionIndex": 29,
      "confirmations": null,
      "from": "0x5A998c77896F80aE4F5c4De031af0483465A5EA2",
      "gasPrice": {
        "_hex": "0xba43b7400"
      },
      "gasLimit": {
        "_hex": "0x15f90"
      },
      "to": "0x793AE8C1b1a160BFc07BFB0d04F85eab1A71F4f2",
      "value": {
        "_hex": "0x0"
      },
      "nonce": 0,
      "data": "0x3ba15036",
      "r": "0x9cf329371644c51b8a08e7c978839a3a93502f6af87e07e5b80eca0f6de9e2a0",
      "s": "0x1c7eb63dd738885b3fcff5364d1140147352aadf6d186cf398c87e4b505d82df",
      "v": 27,
      "creates": null,
      "raw": "0xf86980850ba43b740083015f9094793ae8c1b1a160bfc07bfb0d04f85eab1a71f4f280843ba150361ba09cf329371644c51b8a08e7c978839a3a93502f6af87e07e5b80eca0f6de9e2a0a01c7eb63dd738885b3fcff5364d1140147352aadf6d186cf398c87e4b505d82df",
      "networkId": 0,
      "chainId": 0
    },
    {
      "hash": "0x93f5914b171e57fe84ddbbdd9155afa543bf33d02892c2f10d1be4d71c92254e",
      "blockHash": "0x51919f4751d5200f9e2a8d38669522e4410cd6dc68e2d036c86f390c71b98bf9",
      "blockNumber": 68466,
      "transactionIndex": 30,
      "confirmations": null,
      "from": "0x1CD45B6506902B47216C78485bFfcA0B2e1Aa853",
      "gasPrice": {
        "_hex": "0xba43b7400"
      },
      "gasLimit": {
        "_hex": "0x5208"
      },
      "to": "0x6747f922385c9a6F9cfDf095F34345257DD597bE",
      "value": {
        "_hex": "0x1072bbac261c000"
      },
      "nonce": 1,
      "data": "0x",
      "r": "0xc872a5e4c74390230787c738bfc02cd559aad38382959250c09f73f7a68585ca",
      "s": "0x2b9b7d8b55e77f790c1b5d9a15f0a9c0fd8f0c98da06b6193932f4be65a00cfc",
      "v": 27,
      "creates": null,
      "raw": "0xf86c01850ba43b7400825208946747f922385c9a6f9cfdf095f34345257dd597be8801072bbac261c000801ba0c872a5e4c74390230787c738bfc02cd559aad38382959250c09f73f7a68585caa02b9b7d8b55e77f790c1b5d9a15f0a9c0fd8f0c98da06b6193932f4be65a00cfc",
      "networkId": 0,
      "chainId": 0
    },
    {
      "hash": "0x5f222904226259d469eea425773791a78f30915c53abfdedb2b2f61825944f45",
      "blockHash": "0x51919f4751d5200f9e2a8d38669522e4410cd6dc68e2d036c86f390c71b98bf9",
      "blockNumber": 68466,
      "transactionIndex": 31,
      "confirmations": null,
      "from": "0x6DCC57CeaaE257993183A0cDF0a914b44953cD64",
      "gasPrice": {
        "_hex": "0xba43b7400"
      },
      "gasLimit": {
        "_hex": "0x5208"
      },
      "to": "0x6747f922385c9a6F9cfDf095F34345257DD597bE",
      "value": {
        "_hex": "0x1072bbac261c000"
      },
      "nonce": 1,
      "data": "0x",
      "r": "0x40ee06bfd81daa20b20a9d8cd5e631b08d6a3b699aebe7552e57e6a3c508270c",
      "s": "0x237033ad092c378ef3ab8a05d16a8bfb721bb723122c73a15b067ea0381742a7",
      "v": 27,
      "creates": null,
      "raw": "0xf86c01850ba43b7400825208946747f922385c9a6f9cfdf095f34345257dd597be8801072bbac261c000801ba040ee06bfd81daa20b20a9d8cd5e631b08d6a3b699aebe7552e57e6a3c508270ca0237033ad092c378ef3ab8a05d16a8bfb721bb723122c73a15b067ea0381742a7",
      "networkId": 0,
      "chainId": 0
    },
    {
      "hash": "0x6907ea84c6c41a94d0b715154132ea68ebb8987d74688f2da47e54259b727b47",
      "blockHash": "0x51919f4751d5200f9e2a8d38669522e4410cd6dc68e2d036c86f390c71b98bf9",
      "blockNumber": 68466,
      "transactionIndex": 32,
      "confirmations": null,
      "from": "0xD1C992E2a46C7Fc1e1AFC1333ab19a319A4B64dB",
      "gasPrice": {
        "_hex": "0xba43b7400"
      },
      "gasLimit": {
        "_hex": "0x15f90"
      },
      "to": "0x793AE8C1b1a160BFc07BFB0d04F85eab1A71F4f2",
      "value": {
        "_hex": "0x0"
      },
      "nonce": 0,
      "data": "0x3ba15036",
      "r": "0xd00e4b8ffbad83a925659e6696ea1e62ae435a870de43803e08f38649cb9343b",
      "s": "0x75b4f60a2cbcfdc76fdfa6c52735294d167285767791012a9cda048795209d6f",
      "v": 27,
      "creates": null,
      "raw": "0xf86980850ba43b740083015f9094793ae8c1b1a160bfc07bfb0d04f85eab1a71f4f280843ba150361ba0d00e4b8ffbad83a925659e6696ea1e62ae435a870de43803e08f38649cb9343ba075b4f60a2cbcfdc76fdfa6c52735294d167285767791012a9cda048795209d6f",
      "networkId": 0,
      "chainId": 0
    },
    {
      "hash": "0x7dd808050487d2faa0ca1cedf43d3d91ad709573badde2f5ea1087952cb05514",
      "blockHash": "0x51919f4751d5200f9e2a8d38669522e4410cd6dc68e2d036c86f390c71b98bf9",
      "blockNumber": 68466,
      "transactionIndex": 33,
      "confirmations": null,
      "from": "0xc015c2717AB8De3200Ab632f15a13e22fa09e435",
      "gasPrice": {
        "_hex": "0xba43b7400"
      },
      "gasLimit": {
        "_hex": "0x15f90"
      },
      "to": "0x793AE8C1b1a160BFc07BFB0d04F85eab1A71F4f2",
      "value": {
        "_hex": "0x0"
      },
      "nonce": 0,
      "data": "0x3ba15036",
      "r": "0xc3194096e8b397565b9182e2882839354b065c0fc91bed6d8a289e1f725ff544",
      "s": "0x2fd5ab59efc43ff85b07264ea92b80d98e5c0b5405da874c9a8138a6db8b8a63",
      "v": 28,
      "creates": null,
      "raw": "0xf86980850ba43b740083015f9094793ae8c1b1a160bfc07bfb0d04f85eab1a71f4f280843ba150361ca0c3194096e8b397565b9182e2882839354b065c0fc91bed6d8a289e1f725ff544a02fd5ab59efc43ff85b07264ea92b80d98e5c0b5405da874c9a8138a6db8b8a63",
      "networkId": 0,
      "chainId": 0
    },
    {
      "hash": "0xb28ba51f2c7a15d77c96acb8387d7868904ebc687a992febed4990d9da5601bf",
      "blockHash": "0x51919f4751d5200f9e2a8d38669522e4410cd6dc68e2d036c86f390c71b98bf9",
      "blockNumber": 68466,
      "transactionIndex": 34,
      "confirmations": null,
      "from": "0x8Ff51eBcD212Bb1fb70235281526B41AB4313fC7",
      "gasPrice": {
        "_hex": "0xba43b7400"
      },
      "gasLimit": {
        "_hex": "0x5208"
      },
      "to": "0x6747f922385c9a6F9cfDf095F34345257DD597bE",
      "value": {
        "_hex": "0x1072bbac261c000"
      },
      "nonce": 1,
      "data": "0x",
      "r": "0xbf6558dcd66f59016e506ab3c139f1f3003c7a9bcc1f3cb177b056118e2269b6",
      "s": "0x1ebde50c0061cc562d6d85d9fe722544001dc47672c09e4ad09e8ec478d56bcd",
      "v": 27,
      "creates": null,
      "raw": "0xf86c01850ba43b7400825208946747f922385c9a6f9cfdf095f34345257dd597be8801072bbac261c000801ba0bf6558dcd66f59016e506ab3c139f1f3003c7a9bcc1f3cb177b056118e2269b6a01ebde50c0061cc562d6d85d9fe722544001dc47672c09e4ad09e8ec478d56bcd",
      "networkId": 0,
      "chainId": 0
    },
    {
      "hash": "0xed1392722deb3ece6a272b9f33317a7e6c22ca93c1f7c05bf51fd9213c5ea4bb",
      "blockHash": "0x51919f4751d5200f9e2a8d38669522e4410cd6dc68e2d036c86f390c71b98bf9",
      "blockNumber": 68466,
      "transactionIndex": 35,
      "confirmations": null,
      "from": "0x6Ce7d33d76744b134F79E9F02DA6D66691900558",
      "gasPrice": {
        "_hex": "0xba43b7400"
      },
      "gasLimit": {
        "_hex": "0x5208"
      },
      "to": "0x6747f922385c9a6F9cfDf095F34345257DD597bE",
      "value": {
        "_hex": "0x1072bbac261c000"
      },
      "nonce": 1,
      "data": "0x",
      "r": "0xac0377529b507c2b0affcd5384def66dcc38a7c9d55f8cf215a9e04657c6df03",
      "s": "0x6eef8198bf62a57386903e3f1b6d8b426caf2778f589e3f39bfaf763baf9f80f",
      "v": 28,
      "creates": null,
      "raw": "0xf86c01850ba43b7400825208946747f922385c9a6f9cfdf095f34345257dd597be8801072bbac261c000801ca0ac0377529b507c2b0affcd5384def66dcc38a7c9d55f8cf215a9e04657c6df03a06eef8198bf62a57386903e3f1b6d8b426caf2778f589e3f39bfaf763baf9f80f",
      "networkId": 0,
      "chainId": 0
    }
  ]
}