{
  "hash": "0xdebce72cc8cdb93c0825f1119cc6d86368118561d525bc083079cb1c000f5460",
  "parentHash": "0x0ddf49923cf96ca60aa93a340136f081b732c106348d9f4f929273dede9afbfe",
  "number": 71088,
  "timestamp": 1439330484,
  "nonce": "0x35267c5edcc619da",
  "difficulty": 2149853334356,
  "gasLimit": {
    "_hex": "0x2fefd8"
  },
  "gasUsed": {
    "_hex": "0x5428"
  },
  "miner": "0xEF247E639d49461D25F57e9362CadE3120910Ce0",
  "extraData": "0x476574682f76312e302e312f6c696e75782f676f312e342e32",
  "transactions": [
    {
      "hash": "0x5fb4bd3368b3ab1711f60aeb23206fa64c055e2514b5e793a05ee2d78ed14c19",
      "blockHash": "0xdebce72cc8cdb93c0825f1119cc6d86368118561d525bc083079cb1c000f5460",
      "blockNumber": 71088,
      "transactionIndex": 0,
      "confirmations": null,
      "from": "0x67B3F11a0e02DBe28208D4F85528D08Cd7C0AA75",
      "gasPrice": {
        "_hex": "0xd8525d8c3"
      },
      "gasLimit": {
        "_hex": "0x59d8"
      },
      "to": "0x6343AC3F15c925ACD28Bbf799A138781E4Cb692f",
      "value": {
        "_hex": "0xde0b6b3a7640000"
      },
      "nonce": 0,
      "data": "0x454e374242585858",
      "r": "0x26adc678f9de294d92bd9647b60e9f6b0491b4e63a29ba47ccdb7c3cdc876a0b",
      "s": "0x1d383c8d5f603a3f8dfb0568152e6b6cb4ce1235cec1fe97b2206be5a61dc546",
      "v": 27,
      "creates": null,
      "raw": "0xf87480850d8525d8c38259d8946343ac3f15c925acd28bbf799a138781e4cb692f880de0b6b3a764000088454e3742425858581ba026adc678f9de294d92bd9647b60e9f6b0491b4e63a29ba47ccdb7c3cdc876a0ba01d383c8d5f603a3f8dfb0568152e6b6cb4ce1235cec1fe97b2206be5a61dc546",
      "networkId": 0,
      "chainId": 0
    }
  ]
}