{
  "hash": "0x467015a55755ac12a398a3c71d10c4f065806f97dba0cb8605200601d602392a",
  "parentHash": "0x6af44c80745cbc3276510957db5a70c1d35807c0dfbe210d056a4a662a4bd84e",
  "number": 68357,
  "timestamp": 1439286564,
  "nonce": "0xbbd184009cc885f9",
  "difficulty": 2013364513264,
  "gasLimit": {
    "_hex": "0x2fefd8"
  },
  "gasUsed": {
    "_hex": "0x5208"
  },
  "miner": "0xf8E0CA3Ed80bd541b94BEdCf259e8CF2141A9523",
  "extraData": "0x476574682f76312e302e312f77696e646f77732f676f312e342e32",
  "transactions": [
    {
      "hash": "0xae2517c69a3d637b5b6bf12c78956ddce2b183dff91c6f5d45bb83b30b8623f0",
      "blockHash": "0x467015a55755ac12a398a3c71d10c4f065806f97dba0cb8605200601d602392a",
      "blockNumber": 68357,
      "transactionIndex": 0,
      "confirmations": null,
      "from": "0x6747f922385c9a6F9cfDf095F34345257DD597bE",
      "gasPrice": {
        "_hex": "0xba43b7400"
      },
      "gasLimit": {
        "_hex": "0x5208"
      },
      "to": "0x984D69f1171cB445d187BFC333bABfaeAaCCf008",
      "value": {
        "_hex": "0x1fcbfa42bd6000"
      },
      "nonce": 59,
      "data": "0x",
      "r": "0x94aa687a89199f92af665c5f9a76ee0fe79094a4eb0ea757be20667a5f24142d",
      "s": "0x5469aac3471ec1910e803c40d83b2e59755510c3b51a1ae53311673da7e295bb",
      "v": 27,
      "creates": null,
      "raw": "0xf86b3b850ba43b740082520894984d69f1171cb445d187bfc333babfaeaaccf008871fcbfa42bd6000801ba094aa687a89199f92af665c5f9a76ee0fe79094a4eb0ea757be20667a5f24142da05469aac3471ec1910e803c40d83b2e59755510c3b51a1ae53311673da7e295bb",
      "networkId": 0,
      "chainId": 0
    }
  ]
}