{
  "hash": "0x4e21db39ef3f26be1e1cda2db3e4a1df684d4e7197a9aac9200172ac08c00418",
  "parentHash": "0x6433bcd3d427c6048b8289edd0c2ba1006a5ece28305088a5f8e59532c6cfb43",
  "number": 69021,
  "timestamp": 1439297245,
  "nonce": "0x5feccc26813f895b",
  "difficulty": 2036936178902,
  "gasLimit": {
    "_hex": "0x2fefd8"
  },
  "gasUsed": {
    "_hex": "0xa410"
  },
  "miner": "0xa50ec0D39fa913E62f1Bae7074E6F36caA71855b",
  "extraData": "0x",
  "transactions": [
    {
      "hash": "0x6755bd663d05b4d363c05b8d19295a8e3104b858736f9761fd18e6894f1fc2ae",
      "blockHash": "0x4e21db39ef3f26be1e1cda2db3e4a1df684d4e7197a9aac9200172ac08c00418",
      "blockNumber": 69021,
      "transactionIndex": 0,
      "confirmations": null,
      "from": "0x0Be5cd966caD10814b049982497cfD933139d086",
      "gasPrice": {
        "_hex": "0xba43b7400"
      },
      "gasLimit": {
        "_hex": "0x5208"
      },
      "to": "0xc776b584fdDfCfc935031E3687D4410d6ec1499F",
      "value": {
        "_hex": "0x1a921f4b554d000"
      },
      "nonce": 1,
      "data": "0x",
      "r": "0x8366b11236ddf91ee224e3ab9ed7d1b24b456a915a9ddfdff4e47338375eff5c",
      "s": "0x4c647f4927b758adbeedeac5fc7c5c7d88edf4958fd189869672aa357bc280c8",
      "v": 28,
      "creates": null,
      "raw": "0xf86c01850ba43b740082520894c776b584fddfcfc935031e3687d4410d6ec1499f8801a921f4b554d000801ca08366b11236ddf91ee224e3ab9ed7d1b24b456a915a9ddfdff4e47338375eff5ca04c647f4927b758adbeedeac5fc7c5c7d88edf4958fd189869672aa357bc280c8",
      "networkId": 0,
      "chainId": 0
    },
    {
      "hash": "0x9acdbfb8386de644e5d23837798de34b9428f0fc2bdfb57115494315681355e6",
      "blockHash": "0x4e21db39ef3f26be1e1cda2db3e4a1df684d4e7197a9aac9200172ac08c00418",
      "blockNumber": 69021,
      "transactionIndex": 1,
      "confirmations": null,
      "from": "0xB3efBA9EA251898D7a26419a5e93BA61413Af928",
      "gasPrice": {
        "_hex": "0xba43b7400"
      },
      "gasLimit": {
        "_hex": "0x5208"
      },
      "to": "0xb5da863Ff37d16C4C65483405Da4b37BAD01f6cf",
      "value": {
        "_hex": "0x1a921f4b554d000"
      },
      "nonce": 1,
      "data": "0x",
      "r": "0x32eb17dc0a015e7f337a170c8ccbd6c5616278bc2631d1c25deb0ac620d244ba",
      "s": "0x5175f3fc64dd02c6a3b430070460435d8e03d34a8130e70670f6d49ae7611408",
      "v": 28,
      "creates": null,
      "raw": "0xf86c01850ba43b740082520894b5da863ff37d16c4c65483405da4b37bad01f6cf8801a921f4b554d000801ca032eb17dc0a015e7f337a170c8ccbd6c5616278bc2631d1c25deb0ac620d244baa05175f3fc64dd02c6a3b430070460435d8e03d34a8130e70670f6d49ae7611408",
      "networkId": 0,
      "chainId": 0
    }
  ]
}