{
  "hash": "0x0e24989041b88d029b05bd7ed943e73d8625b62f777cac8712eb5cc6b28091e4",
  "parentHash": "0xb30ac5642b1521bc47f559ddee252719ea48beb791acc7b5df846482ccbddf5e",
  "number": 101064,
  "timestamp": 1439816908,
  "nonce": "0x53107225ff684932",
  "difficulty": 3860101348445,
  "gasLimit": {
    "_hex": "0x2fefd8"
  },
  "gasUsed": {
    "_hex": "0x5208"
  },
  "miner": "0xE300c4587D260cE22a677755Db6429B491A4309E",
  "extraData": "0x",
  "transactions": [
    {
      "hash": "0x98fe3dec5670af18dfd7e7217f284b7ead535d7757d5e0b3f0675ff05323870f",
      "blockHash": "0x0e24989041b88d029b05bd7ed943e73d8625b62f777cac8712eb5cc6b28091e4",
      "blockNumber": 101064,
      "transactionIndex": 0,
      "confirmations": null,
      "from": "0x7884D470204862a0d1A21122F41ee77430396Ee5",
      "gasPrice": {
        "_hex": "0xda2730553"
      },
      "gasLimit": {
        "_hex": "0x15f90"
      },
      "to": "0x2f95895984F8B9B6Fc13604C54894DFc75B28792",
      "value": {
        "_hex": "0x21875b331158000"
      },
      "nonce": 82,
      "data": "0x",
      "r": "0x0c99bd2ea7cd8e5d66b313bf4d443513ab42ce2e7267dfd58ff34618f37288b6",
      "s": "0x52f53d70f08bb08d26e5705917915897a65268a7c0035cdcbb5a58864ed44380",
      "v": 28,
      "creates": null,
      "raw": "0xf86d52850da273055383015f90942f95895984f8b9b6fc13604c54894dfc75b2879288021875b331158000801ca00c99bd2ea7cd8e5d66b313bf4d443513ab42ce2e7267dfd58ff34618f37288b6a052f53d70f08bb08d26e5705917915897a65268a7c0035cdcbb5a58864ed44380",
      "networkId": 0,
      "chainId": 0
    }
  ]
}