{
  "hash": "0x0ed1959d518eddab5bb666091871aab61f80a1a5ce8cf7d52178f9ff73a4e54c",
  "parentHash": "0x9653b20da8ae4f6d2146223c221b6c2f1244610f59752a32821c89453559708b",
  "number": 115224,
  "timestamp": 1440053688,
  "nonce": "0xfda9642b00814c90",
  "difficulty": 4527356706716,
  "gasLimit": {
    "_hex": "0x2fefd8"
  },
  "gasUsed": {
    "_hex": "0x5208"
  },
  "miner": "0xe6A7a1d47ff21B6321162AEA7C6CB457D5476Bca",
  "extraData": "0x476574682f76312e302e312d38326566323666362f6c696e75782f676f312e34",
  "transactions": [
    {
      "hash": "0x4dab58ad42acd6d179344f9d7b1d3bb7dbd4261e50c8d51cb9a9d1f102cf1850",
      "blockHash": "0x0ed1959d518eddab5bb666091871aab61f80a1a5ce8cf7d52178f9ff73a4e54c",
      "blockNumber": 115224,
      "transactionIndex": 0,
      "confirmations": null,
      "from": "0x32Be343B94f860124dC4fEe278FDCBD38C102D88",
      "gasPrice": {
        "_hex": "0xccc300e46"
      },
      "gasLimit": {
        "_hex": "0x5208"
      },
      "to": "0xf01e25B76A4274d2e5af5810302E4230c8A515D3",
      "value": {
        "_hex": "0xc59ea48da190000"
      },
      "nonce": 1418,
      "data": "0x",
      "r": "0x50229be9f36a6d71625cd5f80dbdf612d9d54839e1691c523f5fc0a1e2135bd5",
      "s": "0x591e0b61782bae7dd3eb546bdcd72c960dd29077755a54f75e4a35dff0c50d57",
      "v": 28,
      "creates": null,
      "raw": "0xf86e82058a850ccc300e4682520894f01e25b76a4274d2e5af5810302e4230c8a515d3880c59ea48da190000801ca050229be9f36a6d71625cd5f80dbdf612d9d54839e1691c523f5fc0a1e2135bd5a0591e0b61782bae7dd3eb546bdcd72c960dd29077755a54f75e4a35dff0c50d57",
      "networkId": 0,
      "chainId": 0
    }
  ]
}