{
  "hash": "0x9f988411cc8e526697670bedd298be8b29fb92eeb04c3d6e18062fa4bafd3040",
  "parentHash": "0x7e7a42d549e9f588024fa2ab7cee14b9e48810361870cffebd4b7d4652cc86ac",
  "number": 112477,
  "timestamp": 1440008098,
  "nonce": "0x959011c58c7ca8b6",
  "difficulty": 4421769456688,
  "gasLimit": {
    "_hex": "0x2fefd8"
  },
  "gasUsed": {
    "_hex": "0x15862"
  },
  "miner": "0x9746c7e1ef2bd21FF3997fa467593a89cb852BD0",
  "extraData": "0x476574682f76312e302e312f77696e646f77732f676f312e342e32",
  "transactions": [
    {
      "hash": "0xcec7678283fb8f00400bd349d132c3a611a6df461edfeac4e92dbfe8b078fea5",
      "blockHash": "0x9f988411cc8e526697670bedd298be8b29fb92eeb04c3d6e18062fa4bafd3040",
      "blockNumber": 112477,
      "transactionIndex": 0,
      "confirmations": null,
      "from": "0x7e7eC15A5944e978257dDae0008C2F2eCe0A6090",
      "gasPrice": {
        "_hex": "0xd8364fc25"
      },
      "gasLimit": {
        "_hex": "0x2dc6c0"
      },
      "to": "0xcf2405263b7E0D11EEC326b2Da9d4b0d5463246b",
      "value": {
        "_hex": "0xf9848af71942c2"
      },
      "nonce": 5,
      "data": "0x3f887fad0000000000000000000000015b2feb2fc83a53b8bcc48289455ff2ac1b92fb720000000000000000000000000000000000000000000000000000000000000002000000000000000000000000000000000000000000000000016345785d8a00000000000000000000000000000000000000000000000000000000000000000000",
      "r": "0x4a3aed15854175ab1814989df91bbba86b8b8bd21aafee0c51718aa0c4ad320d",
      "s": "0x0829b0d2145155a390217e7c6f6d28456eac08c213bdb0df471d5835955e6c10",
      "v": 28,
      "creates": null,
      "raw": "0xf8f105850d8364fc25832dc6c094cf2405263b7e0d11eec326b2da9d4b0d5463246b87f9848af71942c2b8843f887fad0000000000000000000000015b2feb2fc83a53b8bcc48289455ff2ac1b92fb720000000000000000000000000000000000000000000000000000000000000002000000000000000000000000000000000000000000000000016345785d8a000000000000000000000000000000000000000000000000000000000000000000001ca04a3aed15854175ab1814989df91bbba86b8b8bd21aafee0c51718aa0c4ad320da00829b0d2145155a390217e7c6f6d28456eac08c213bdb0df471d5835955e6c10",
      "networkId": 0,
      "chainId": 0
    }
  ]
}