{
  "hash": "0xc9a065d2096894cb6041ad1fae1ec200cb3abdb32e72ff446f7f82ee8a555019",
  "parentHash": "0x23c973eb26922e707b8567628b5af3cec7d319c702dfe1b9414452aad7917ae9",
  "number": 88064,
  "timestamp": 1439602056,
  "nonce": "0x6184ad7cb54d48bf",
  "difficulty": 3198845681372,
  "gasLimit": {
    "_hex": "0x2fefd8"
  },
  "gasUsed": {
    "_hex": "0x5208"
  },
  "miner": "0xa50ec0D39fa913E62f1Bae7074E6F36caA71855b",
  "extraData": "0xd783010001844765746887676f312e342e32856c696e7578",
  "transactions": [
    {
      "hash": "0x9d806fbc603b032d7160f597fafcf23a0909122a4f5942ef994fc93476b39ed8",
      "blockHash": "0xc9a065d2096894cb6041ad1fae1ec200cb3abdb32e72ff446f7f82ee8a555019",
      "blockNumber": 88064,
      "transactionIndex": 0,
      "confirmations": null,
      "from": "0x661eedD93dA06499d3220aA2aDF05d6d2417e60c",
      "gasPrice": {
        "_hex": "0x108423fc741"
      },
      "gasLimit": {
        "_hex": "0x15f90"
      },
      "to": "0x71762C63678C18D1C6378ce068E666381315147e",
      "value": {
        "_hex": "0xde0b6b3a7640000"
      },
      "nonce": 4,
      "data": "0x",
      "r": "0x5527907ce0ee7abecd735ad62d5e4f86d7358961e718919e7019c1f56d5af4ed",
      "s": "0x76e8c57efeab8366dc202cab5a523cc6b7006d47942885a26f69fd5495cff366",
      "v": 28,
      "creates": null,
      "raw": "0xf86e04860108423fc74183015f909471762c63678c18d1c6378ce068e666381315147e880de0b6b3a7640000801ca05527907ce0ee7abecd735ad62d5e4f86d7358961e718919e7019c1f56d5af4eda076e8c57efeab8366dc202cab5a523cc6b7006d47942885a26f69fd5495cff366",
      "networkId": 0,
      "chainId": 0
    }
  ]
}