{
  "hash": "0x4b87bd0a49b655e74433e6a159e8e6de2928c5fa674d25ef40fad4969cf922ff",
  "parentHash": "0x2e1408d0804bb4286cdce21e858e8e7072a868b0ac35644bd5714132b1dae02c",
  "number": 95141,
  "timestamp": 1439719547,
  "nonce": "0x41749c8abed2b53b",
  "difficulty": 3518862520394,
  "gasLimit": {
    "_hex": "0x2fefd8"
  },
  "gasUsed": {
    "_hex": "0x5208"
  },
  "miner": "0xf927a40C8B7F6E07c5af7FA2155B4864a4112B13",
  "extraData": "0x",
  "transactions": [
    {
      "hash": "0x5ba3bd4f197d7e073cc8992d1f24cd991bd184bf81e79faa8a1b831e9691987d",
      "blockHash": "0x4b87bd0a49b655e74433e6a159e8e6de2928c5fa674d25ef40fad4969cf922ff",
      "blockNumber": 95141,
      "transactionIndex": 0,
      "confirmations": null,
      "from": "0x2ae9f4F8c8e7A3574D494fA354d4533692Bc6F75",
      "gasPrice": {
        "_hex": "0xcf119ade1"
      },
      "gasLimit": {
        "_hex": "0x15f90"
      },
      "to": "0xD9666150A9dA92d9108198a4072970805a8B3428",
      "value": {
        "_hex": "0x9b6e64a8ec60000"
      },
      "nonce": 1,
      "data": "0x",
      "r": "0x548c287ffce3444d78a9516282c1c6edc7dcc6acd8e1172515d32dd37e6d2368",
      "s": "0x6c424e4cf36ffbb61208d1be62be60bb1a163722c35d872acf7d362854f1b452",
      "v": 27,
      "creates": null,
      "raw": "0xf86d01850cf119ade183015f9094d9666150a9da92d9108198a4072970805a8b34288809b6e64a8ec60000801ba0548c287ffce3444d78a9516282c1c6edc7dcc6acd8e1172515d32dd37e6d2368a06c424e4cf36ffbb61208d1be62be60bb1a163722c35d872acf7d362854f1b452",
      "networkId": 0,
      "chainId": 0
    }
  ]
}