{
  "hash": "0x7638c2bb2138f1001cc3f69a96591101b10f06696935c6b0a5676cda63501eeb",
  "parentHash": "0xbd6d552a9b2471792085079a9b9c518343c1c09d3b206f87ea42a695299740e2",
  "number": 58815,
  "timestamp": 1439127045,
  "nonce": "0x3d38415e0e443e60",
  "difficulty": 1715684077052,
  "gasLimit": {
    "_hex": "0x2fefd8"
  },
  "gasUsed": {
    "_hex": "0xa410"
  },
  "miner": "0x36a3706566A8f9b27e7d604f4702900Acd31f32E",
  "extraData": "0x476574682f76312e302e312f6c696e75782f676f312e342e32",
  "transactions": [
    {
      "hash": "0x8e251e0c1ab3a3d58fb2238fdfe978d5932fed668df5329acc25c17a7cca72da",
      "blockHash": "0x7638c2bb2138f1001cc3f69a96591101b10f06696935c6b0a5676cda63501eeb",
      "blockNumber": 58815,
      "transactionIndex": 0,
      "confirmations": null,
      "from": "0x3f0073d6bBE51612013aA09BC970e08E84D7BA23",
      "gasPrice": {
        "_hex": "0xdebcbf33e"
      },
      "gasLimit": {
        "_hex": "0x5208"
      },
      "to": "0x32Be343B94f860124dC4fEe278FDCBD38C102D88",
      "value": {
        "_hex": "0x10b2575a2f3c550000"
      },
      "nonce": 4,
      "data": "0x",
      "r": "0xf6ae654b5ae9c8a7987b04cbaea9d7b4da59a011a0f0db35d35d7a7ec000a79a",
      "s": "0x2f98f5880ee15328a63bf2ed1114f94bd5891fe8dadcdeea4b7b76d2f0387b8e",
      "v": 27,
      "creates": null,
      "raw": "0xf86d04850debcbf33e8252089432be343b94f860124dc4fee278fdcbd38c102d888910b2575a2f3c550000801ba0f6ae654b5ae9c8a7987b04cbaea9d7b4da59a011a0f0db35d35d7a7ec000a79aa02f98f5880ee15328a63bf2ed1114f94bd5891fe8dadcdeea4b7b76d2f0387b8e",
      "networkId": 0,
      "chainId": 0
    },
    {
      "hash": "0x6411a0a887fbb31b1358294fbc3c95a638f1eb4ff52212b29f16bda393c1ec48",
      "blockHash": "0x7638c2bb2138f1001cc3f69a96591101b10f06696935c6b0a5676cda63501eeb",
      "blockNumber": 58815,
      "transactionIndex": 1,
      "confirmations": null,
      "from": "0x120A270bbC009644e35F0bB6ab13f95b8199c4ad",
      "gasPrice": {
        "_hex": "0xdc769220a"
      },
      "gasLimit": {
        "_hex": "0x15f90"
      },
      "to": "0xd8bd2C0f1FF677215F8b235db85bd5e7f3fBD59D",
      "value": {
        "_hex": "0xd02ab486cedc0000"
      },
      "nonce": 46,
      "data": "0x",
      "r": "0x19bcf5df3efc96edc4de414f3ba302d71b6a8d91d729d5f76ddfcd93fead5ab0",
      "s": "0x0eeb97b27e6c830e31f6225cd146d035be19d043e512165fd40d3f3f9f1d677b",
      "v": 28,
      "creates": null,
      "raw": "0xf86d2e850dc769220a83015f9094d8bd2c0f1ff677215f8b235db85bd5e7f3fbd59d88d02ab486cedc0000801ca019bcf5df3efc96edc4de414f3ba302d71b6a8d91d729d5f76ddfcd93fead5ab0a00eeb97b27e6c830e31f6225cd146d035be19d043e512165fd40d3f3f9f1d677b",
      "networkId": 0,
      "chainId": 0
    }
  ]
}