{
  "hash": "0x7658f83ba8a4f4038cff6e4adaa7eb79078624aa218ec01cd68efcff92b561dc",
  "parentHash": "0x070f4a19749d3e482736f48010ac3145a5788797dd39c631417c99a6dd839c8d",
  "number": 79789,
  "timestamp": 1439475143,
  "nonce": "0x470d2ad8a9087003",
  "difficulty": 2350655960759,
  "gasLimit": {
    "_hex": "0x2fefd8"
  },
  "gasUsed": {
    "_hex": "0xaa37"
  },
  "miner": "0x88D74a59454F6cF3B51ef6b9136AFb6b9D405A88",
  "extraData": "0x476574682f76312e302e312d37666266393930632f6c696e75782f676f312e34",
  "transactions": [
    {
      "hash": "0xc1498825ac4cee44e2c15046cb703127d93dd0876ccac588609968b0dd0cb7bb",
      "blockHash": "0x7658f83ba8a4f4038cff6e4adaa7eb79078624aa218ec01cd68efcff92b561dc",
      "blockNumber": 79789,
      "transactionIndex": 0,
      "confirmations": null,
      "from": "0x87C5B5874A18B4306DF8a752a6C8cc3E82daFc19",
      "gasPrice": {
        "_hex": "0x10d4f926336"
      },
      "gasLimit": {
        "_hex": "0x493e0"
      },
      "to": "0xC4c51de1AbF5D60DBd329eC0F999Fd8f021ae9fC",
      "value": {
        "_hex": "0x0"
      },
      "nonce": 103,
      "data": "0x03750d9400000000000000000000000087c5b5874a18b4306df8a752a6c8cc3e82dafc196361740000000000000000000000000000000000000000000000000000000000",
      "r": "0x641c22f4f170d8adacb4d6b8c9d36062f8767bdf5bf9de8176aec5cbae0d7b50",
      "s": "0x6064ae59b2e80c404600d3567e1ed10a1e328eaa60990bfa227ec491c4ceef37",
      "v": 27,
      "creates": null,
      "raw": "0xf8ab6786010d4f926336830493e094c4c51de1abf5d60dbd329ec0f999fd8f021ae9fc80b84403750d9400000000000000000000000087c5b5874a18b4306df8a752a6c8cc3e82dafc1963617400000000000000000000000000000000000000000000000000000000001ba0641c22f4f170d8adacb4d6b8c9d36062f8767bdf5bf9de8176aec5cbae0d7b50a06064ae59b2e80c404600d3567e1ed10a1e328eaa60990bfa227ec491c4ceef37",
      "networkId": 0,
      "chainId": 0
    }
  ]
}