{
  "hash": "0x306b5f29cd088f31454f371cd77f08482e2c4c1def48a58e193cab0309c15b32",
  "parentHash": "0xfa698a5f4d98cee8899898ec16655da54d1d75fb95dfb123e30b6639d6de2199",
  "number": 79970,
  "timestamp": 1439478171,
  "nonce": "0x870dea094f4085cd",
  "difficulty": 2342584660443,
  "gasLimit": {
    "_hex": "0x2fefd8"
  },
  "gasUsed": {
    "_hex": "0x5208"
  },
  "miner": "0xe6A7a1d47ff21B6321162AEA7C6CB457D5476Bca",
  "extraData": "0x476574682f76312e302e312d38326566323666362f6c696e75782f676f312e34",
  "transactions": [
    {
      "hash": "0x6a66fb9db30a7470ee6169b7442d4c663d0ebee1ae90f033db0bb464e8e1ab1f",
      "blockHash": "0x306b5f29cd088f31454f371cd77f08482e2c4c1def48a58e193cab0309c15b32",
      "blockNumber": 79970,
      "transactionIndex": 0,
      "confirmations": null,
      "from": "0x120A270bbC009644e35F0bB6ab13f95b8199c4ad",
      "gasPrice": {
        "_hex": "0xd01c8df73"
      },
      "gasLimit": {
        "_hex": "0x3d090"
      },
      "to": "0x9FfbDc745507Be96FEdbA053b7deC24A7C54b1f3",
      "value": {
        "_hex": "0x42b9c8e5036917400"
      },
      "nonce": 337,
      "data": "0x",
      "r": "0x84de9d566f15f2967d6bce653b87a90a704491a63f0fc37c5654202cf26a873b",
      "s": "0x0ee99e6d6bccbf3163f9abc3e7ec29a518dc8e4b88ce417088714341000751e8",
      "v": 27,
      "creates": null,
      "raw": "0xf870820151850d01c8df738303d090949ffbdc745507be96fedba053b7dec24a7c54b1f389042b9c8e5036917400801ba084de9d566f15f2967d6bce653b87a90a704491a63f0fc37c5654202cf26a873ba00ee99e6d6bccbf3163f9abc3e7ec29a518dc8e4b88ce417088714341000751e8",
      "networkId": 0,
      "chainId": 0
    }
  ]
}