{
  "hash": "0x5901b17d4e0d7591092f4c76b7b1859c7c95c09016ea2a41c24cb7a9eb6352e4",
  "parentHash": "0x7ff932ae2750fa564474f558388ce2c5f3ac35b172966e5aaad1b0a97846cb7f",
  "number": 103970,
  "timestamp": 1439861971,
  "nonce": "0x9d6f54cd1fe1e621",
  "difficulty": 4275436008957,
  "gasLimit": {
    "_hex": "0x2fefd8"
  },
  "gasUsed": {
    "_hex": "0x546c"
  },
  "miner": "0xe6A7a1d47ff21B6321162AEA7C6CB457D5476Bca",
  "extraData": "0x476574682f76312e302e312d38326566323666362f6c696e75782f676f312e34",
  "transactions": [
    {
      "hash": "0x0d09cae446d45823c749e9db004472360768a8cabc53a33c4f3b570af245a3a7",
      "blockHash": "0x5901b17d4e0d7591092f4c76b7b1859c7c95c09016ea2a41c24cb7a9eb6352e4",
      "blockNumber": 103970,
      "transactionIndex": 0,
      "confirmations": null,
      "from": "0xE3712701619ca7623c55DB3a0AD30e867Db0168B",
      "gasPrice": {
        "_hex": "0x110c8f7d8de"
      },
      "gasLimit": {
        "_hex": "0xc350"
      },
      "to": "0x2910543Af39abA0Cd09dBb2D50200b3E800A63D2",
      "value": {
        "_hex": "0x16345785d8a0000"
      },
      "nonce": 2,
      "data": "0x454e553836344b5538",
      "r": "0x1c16e38a3393867e42b9dd04fd9331bd37a424559ad7bfe61ed57c1084612bfa",
      "s": "0x7c8f5c1baa16c09010c0afe1b7a30c3bd7e650b1dad0bf70c602c67785516f1a",
      "v": 27,
      "creates": null,
      "raw": "0xf87602860110c8f7d8de82c350942910543af39aba0cd09dbb2d50200b3e800a63d288016345785d8a000089454e553836344b55381ba01c16e38a3393867e42b9dd04fd9331bd37a424559ad7bfe61ed57c1084612bfaa07c8f5c1baa16c09010c0afe1b7a30c3bd7e650b1dad0bf70c602c67785516f1a",
      "networkId": 0,
      "chainId": 0
    }
  ]
}