{
  "hash": "0xe855822c159ed273392a7270da7472f2e30dfc447994c4ebce48fb9d0435f04b",
  "parentHash": "0x1f7aec7273fb3664f36fa3a967005e324d06865d6face986704dd953210f674d",
  "number": 80353,
  "timestamp": 1439484431,
  "nonce": "0xec6738e7f2bae35e",
  "difficulty": 2380528450110,
  "gasLimit": {
    "_hex": "0x2fefd8"
  },
  "gasUsed": {
    "_hex": "0xa674"
  },
  "miner": "0xf8E0CA3Ed80bd541b94BEdCf259e8CF2141A9523",
  "extraData": "0x476574682f76312e302e312f77696e646f77732f676f312e342e32",
  "transactions": [
    {
      "hash": "0x22b69bb32c9f2a4b40995b349d95fefeb3973307a797f4724d4b84adf5ddd22a",
      "blockHash": "0xe855822c159ed273392a7270da7472f2e30dfc447994c4ebce48fb9d0435f04b",
      "blockNumber": 80353,
      "transactionIndex": 0,
      "confirmations": null,
      "from": "0x120A270bbC009644e35F0bB6ab13f95b8199c4ad",
      "gasPrice": {
        "_hex": "0xd98d15a7e"
      },
      "gasLimit": {
        "_hex": "0x3d090"
      },
      "to": "0x9C1D8e44C8B6F72c792f818a9EC5Ae4D396A950c",
      "value": {
        "_hex": "0x1e35f49ace3196400"
      },
      "nonce": 343,
      "data": "0x",
      "r": "0xd04369b6ef3c8052cd3fb42bd16dc3b0d8f33a8a31a7833a688bf0d8e2d5a7d9",
      "s": "0x041edd9feb84a5c91d092bfa42d2fb5f13f00bfd46e8ebf261091b8b7cdf5ce5",
      "v": 27,
      "creates": null,
      "raw": "0xf870820157850d98d15a7e8303d090949c1d8e44c8b6f72c792f818a9ec5ae4d396a950c8901e35f49ace3196400801ba0d04369b6ef3c8052cd3fb42bd16dc3b0d8f33a8a31a7833a688bf0d8e2d5a7d9a0041edd9feb84a5c91d092bfa42d2fb5f13f00bfd46e8ebf261091b8b7cdf5ce5",
      "networkId": 0,
      "chainId": 0
    },
    {
      "hash": "0xac2e03966936c94ab99407315f21e082fc23b40248399f4fd7f4e78aa7ba7131",
      "blockHash": "0xe855822c159ed273392a7270da7472f2e30dfc447994c4ebce48fb9d0435f04b",
      "blockNumber": 80353,
      "transactionIndex": 1,
      "confirmations": null,
      "from": "0xf8E0CA3Ed80bd541b94BEdCf259e8CF2141A9523",
      "gasPrice": {
        "_hex": "0xd0f3e9b75"
      },
      "gasLimit": {
        "_hex": "0x15f90"
      },
      "to": "0x42979fca296FEA2C163EA66E1900acDe7886F86F",
      "value": {
        "_hex": "0x3635c9adc5dea00000"
      },
      "nonce": 8,
      "data": "0x454e433933464b3330",
      "r": "0x251c3ed2ab905b066207054e0c582d64affdeb58b4f54082e69ee94eb1ab7608",
      "s": "0x700b372f5e312e8c425dd3f88ca6295561ab2dc6a7dd81ac53d137a096e537ff",
      "v": 28,
      "creates": null,
      "raw": "0xf87708850d0f3e9b7583015f909442979fca296fea2c163ea66e1900acde7886f86f893635c9adc5dea0000089454e433933464b33301ca0251c3ed2ab905b066207054e0c582d64affdeb58b4f54082e69ee94eb1ab7608a0700b372f5e312e8c425dd3f88ca6295561ab2dc6a7dd81ac53d137a096e537ff",
      "networkId": 0,
      "chainId": 0
    }
  ]
}