{
  "hash": "0x581124d070defb4b8d4108452225746c11ed484386af9d88afd87b1eb776e0a4",
  "parentHash": "0xd21af18f34af615fa92030a7536630b7bc6e0c809eb642b08d06fc7d00d0b06a",
  "number": 85518,
  "timestamp": 1439564869,
  "nonce": "0x3ebaa626e8541867",
  "difficulty": 2761109461802,
  "gasLimit": {
    "_hex": "0x2fefd8"
  },
  "gasUsed": {
    "_hex": "0xa410"
  },
  "miner": "0xe6A7a1d47ff21B6321162AEA7C6CB457D5476Bca",
  "extraData": "0x476574682f76312e302e312d38326566323666362f6c696e75782f676f312e34",
  "transactions": [
    {
      "hash": "0x23a49245fb6049431f571d06b45b8b57412fab68b2aa61432907ffc79aed04cb",
      "blockHash": "0x581124d070defb4b8d4108452225746c11ed484386af9d88afd87b1eb776e0a4",
      "blockNumber": 85518,
      "transactionIndex": 0,
      "confirmations": null,
      "from": "0x2910543Af39abA0Cd09dBb2D50200b3E800A63D2",
      "gasPrice": {
        "_hex": "0xdcbcb8b01"
      },
      "gasLimit": {
        "_hex": "0x5208"
      },
      "to": "0x2f86ba8019945f39edE131D38d4d8780884DA553",
      "value": {
        "_hex": "0x20869a71971a7f8000"
      },
      "nonce": 617,
      "data": "0x",
      "r": "0xb57ec98c9b9f876ddc9c8543b0da2b4e74f3f69e9c035888fb8aad6d6ace64de",
      "s": "0x4fdb941865617cc6c3c626693c33128efd11af01dc227a79216b75bd8b87d482",
      "v": 28,
      "creates": null,
      "raw": "0xf86f820269850dcbcb8b01825208942f86ba8019945f39ede131d38d4d8780884da5538920869a71971a7f8000801ca0b57ec98c9b9f876ddc9c8543b0da2b4e74f3f69e9c035888fb8aad6d6ace64dea04fdb941865617cc6c3c626693c33128efd11af01dc227a79216b75bd8b87d482",
      "networkId": 0,
      "chainId": 0
    },
    {
      "hash": "0xdf68ce73ded3a137fb347affd21f5b95b622c555350dfdb6c46f025b0a7c5f42",
      "blockHash": "0x581124d070defb4b8d4108452225746c11ed484386af9d88afd87b1eb776e0a4",
      "blockNumber": 85518,
      "transactionIndex": 1,
      "confirmations": null,
      "from": "0x2910543Af39abA0Cd09dBb2D50200b3E800A63D2",
      "gasPrice": {
        "_hex": "0xdcbcb8b01"
      },
      "gasLimit": {
        "_hex": "0x5208"
      },
      "to": "0xD05f85Eb920117eeBBf13dd94FeEA60e9eB34537",
      "value": {
        "_hex": "0x5907fc6f7e1d9c000"
      },
      "nonce": 618,
      "data": "0x",
      "r": "0x8c6aac1ecc1d310ed9f8e07fb2022cdfbe82e4e1a9b7bb165aed8d2b22b5204b",
      "s": "0x496617619dc7e4519b60d4a54752b8066b6f9f0c9032235da5508c5c63be0494",
      "v": 27,
      "creates": null,
      "raw": "0xf86f82026a850dcbcb8b0182520894d05f85eb920117eebbf13dd94feea60e9eb345378905907fc6f7e1d9c000801ba08c6aac1ecc1d310ed9f8e07fb2022cdfbe82e4e1a9b7bb165aed8d2b22b5204ba0496617619dc7e4519b60d4a54752b8066b6f9f0c9032235da5508c5c63be0494",
      "networkId": 0,
      "chainId": 0
    }
  ]
}