{
  "hash": "0x3ef1ad190f0e0134d3cd9be256eee27a724345a6378d5f28bf520719c4125d6f",
  "parentHash": "0x540bf3cfe4dcd5f56a3c9ad4b538a4ad1d42ef2d91241c9edf129fccf3fea86e",
  "number": 71004,
  "timestamp": 1439328913,
  "nonce": "0x190b10cd6d6e041b",
  "difficulty": 2160397969151,
  "gasLimit": {
    "_hex": "0x2fefd8"
  },
  "gasUsed": {
    "_hex": "0xf618"
  },
  "miner": "0xbb7B8287f3F0a933474a79eAe42CBCa977791171",
  "extraData": "0x476574682f4c5649562f76312e302e312f6c696e75782f676f312e342e32",
  "transactions": [
    {
      "hash": "0x2e057c45ea6c3088591ae2ebcc4f19d1b38ce9b8d355760bf57d900895da6ac1",
      "blockHash": "0x3ef1ad190f0e0134d3cd9be256eee27a724345a6378d5f28bf520719c4125d6f",
      "blockNumber": 71004,
      "transactionIndex": 0,
      "confirmations": null,
      "from": "0x8693E9B8bE94425EEf7969bc69f9D42F7CAD671e",
      "gasPrice": {
        "_hex": "0xd4e3cd895"
      },
      "gasLimit": {
        "_hex": "0x15f90"
      },
      "to": "0xb0DBD02650b659f9B8b02E77cf0481aA6b3Ff9f8",
      "value": {
        "_hex": "0x3e8"
      },
      "nonce": 2,
      "data": "0x",
      "r": "0xda55692d14ede1e4d752c081bbacd11add3298e51abba0eeeab1b3b2ca2b2aff",
      "s": "0x01a13e879d3df0251862033b4d1299049e618fae5d2c047287671b69c1e16770",
      "v": 28,
      "creates": null,
      "raw": "0xf86702850d4e3cd89583015f9094b0dbd02650b659f9b8b02e77cf0481aa6b3ff9f88203e8801ca0da55692d14ede1e4d752c081bbacd11add3298e51abba0eeeab1b3b2ca2b2affa001a13e879d3df0251862033b4d1299049e618fae5d2c047287671b69c1e16770",
      "networkId": 0,
      "chainId": 0
    },
    {
      "hash": "0x76b83f2ad4921bca62dd76850513e94bdbeb7232168fe2d42609e4ad1a1dc793",
      "blockHash": "0x3ef1ad190f0e0134d3cd9be256eee27a724345a6378d5f28bf520719c4125d6f",
      "blockNumber": 71004,
      "transactionIndex": 1,
      "confirmations": null,
      "from": "0x8693E9B8bE94425EEf7969bc69f9D42F7CAD671e",
      "gasPrice": {
        "_hex": "0xd4e3cd895"
      },
      "gasLimit": {
        "_hex": "0x15f90"
      },
      "to": "0xb0DBD02650b659f9B8b02E77cf0481aA6b3Ff9f8",
      "value": {
        "_hex": "0x989680"
      },
      "nonce": 3,
      "data": "0x",
      "r": "0x8616688208198d33dc11e09e99e82d587568ae9bfceaa5b07ce783be672fcc39",
      "s": "0x0d57fd4f06c9c1c67392235440e3c202bb6f065ef6c5cc09da5cf5597955a127",
      "v": 28,
      "creates": null,
      "raw": "0xf86803850d4e3cd89583015f9094b0dbd02650b659f9b8b02e77cf0481aa6b3ff9f883989680801ca08616688208198d33dc11e09e99e82d587568ae9bfceaa5b07ce783be672fcc39a00d57fd4f06c9c1c67392235440e3c202bb6f065ef6c5cc09da5cf5597955a127",
      "networkId": 0,
      "chainId": 0
    },
    {
      "hash": "0xff496d42c3a430af6e97296365b632519d506c5a475798e2b602ef12de39071f",
      "blockHash": "0x3ef1ad190f0e0134d3cd9be256eee27a724345a6378d5f28bf520719c4125d6f",
      "blockNumber": 71004,
      "transactionIndex": 2,
      "confirmations": null,
      "from": "0x8693E9B8bE94425EEf7969bc69f9D42F7CAD671e",
      "gasPrice": {
        "_hex": "0xd4e3cd895"
      },
      "gasLimit": {
        "_hex": "0x15f90"
      },
      "to": "0xb0DBD02650b659f9B8b02E77cf0481aA6b3Ff9f8",
      "value": {
        "_hex": "0x989680"
      },
      "nonce": 4,
      "data": "0x",
      "r": "0x362cd85de579f2700d8f7e6c6ae5ff230ea058788bbc486668212b565f8c558a",
      "s": "0x28c95cd34c7764636f143aaf55ca5ed60ce50941ea3c2998c18e14a537540c43",
      "v": 28,
      "creates": null,
      "raw": "0xf86804850d4e3cd89583015f9094b0dbd02650b659f9b8b02e77cf0481aa6b3ff9f883989680801ca0362cd85de579f2700d8f7e6c6ae5ff230ea058788bbc486668212b565f8c558aa028c95cd34c7764636f143aaf55ca5ed60ce50941ea3c2998c18e14a537540c43",
      "networkId": 0,
      "chainId": 0
    }
  ]
}