{
  "hash": "0x0d9784a3b3aab43374a0293ff0a87d28eaf1f7c474d378eb189bba58182b4683",
  "parentHash": "0x2c4b9592378385494320dd7d687799752cc727adb494b0f9aace96c01281403e",
  "number": 107637,
  "timestamp": 1439926039,
  "nonce": "0xf3d4afb8258e2a1e",
  "difficulty": 4385606178507,
  "gasLimit": {
    "_hex": "0x2fefd8"
  },
  "gasUsed": {
    "_hex": "0x5208"
  },
  "miner": "0x790b8a3cE86E707ED0eD32bF89B3269692a23CC1",
  "extraData": "0xd783010001844765746887676f312e342e32856c696e7578",
  "transactions": [
    {
      "hash": "0x518c4c68b8de56046c4c20dea279360119de7598a2b18bdd5c56a7fa8e28962e",
      "blockHash": "0x0d9784a3b3aab43374a0293ff0a87d28eaf1f7c474d378eb189bba58182b4683",
      "blockNumber": 107637,
      "transactionIndex": 0,
      "confirmations": null,
      "from": "0xEAb290b146d9fC82589a817012Aa157D5963aa61",
      "gasPrice": {
        "_hex": "0xe1de6ffb5"
      },
      "gasLimit": {
        "_hex": "0x15f90"
      },
      "to": "0x85A12ea0FD4A0818d18A21653927028f92e24538",
      "value": {
        "_hex": "0x6f05b59d3b200000"
      },
      "nonce": 6,
      "data": "0x",
      "r": "0x88c617d34e80ca686dd2aff5ca37952e698cd274921b875bdf7c64b83279590f",
      "s": "0x2fdb8c532df2b43faf5575853dca85262d61a5217e886726a47ddaafa1577edd",
      "v": 27,
      "creates": null,
      "raw": "0xf86d06850e1de6ffb583015f909485a12ea0fd4a0818d18a21653927028f92e24538886f05b59d3b200000801ba088c617d34e80ca686dd2aff5ca37952e698cd274921b875bdf7c64b83279590fa02fdb8c532df2b43faf5575853dca85262d61a5217e886726a47ddaafa1577edd",
      "networkId": 0,
      "chainId": 0
    }
  ]
}