{
  "hash": "0xd6e48cf2220bedba348372984231b3c43bf21616cf7779e08b6998dd35e83dbb",
  "parentHash": "0x274c8f36e08a22899cf38994ae8024753a9239f2fcd854c4cac8190e7d8888de",
  "number": 116431,
  "timestamp": 1440074187,
  "nonce": "0x03b45e5b296e1178",
  "difficulty": 4568896545348,
  "gasLimit": {
    "_hex": "0x2fefd8"
  },
  "gasUsed": {
    "_hex": "0x5208"
  },
  "miner": "0xbb7B8287f3F0a933474a79eAe42CBCa977791171",
  "extraData": "0x476574682f4c5649562f76312e302e312f6c696e75782f676f312e342e32",
  "transactions": [
    {
      "hash": "0x07b042d1681b9fe98c68f5106b22dc12a9d824e51b7906ffb98b5e5104083e9f",
      "blockHash": "0xd6e48cf2220bedba348372984231b3c43bf21616cf7779e08b6998dd35e83dbb",
      "blockNumber": 116431,
      "transactionIndex": 0,
      "confirmations": null,
      "from": "0x61F642543d22bAf5382908a714E675Cc0b51ea45",
      "gasPrice": {
        "_hex": "0xe11ae4556"
      },
      "gasLimit": {
        "_hex": "0x5208"
      },
      "to": "0x32Be343B94f860124dC4fEe278FDCBD38C102D88",
      "value": {
        "_hex": "0x455f19e208792400"
      },
      "nonce": 27,
      "data": "0x",
      "r": "0xa74384e3ff35a57b3c962b1836beaf24e10792cfc97a125a90055b3627bec485",
      "s": "0x765469272467739767edd7e24b3f5d53db54c9a938b921e3865e1bec614874d6",
      "v": 27,
      "creates": null,
      "raw": "0xf86c1b850e11ae45568252089432be343b94f860124dc4fee278fdcbd38c102d8888455f19e208792400801ba0a74384e3ff35a57b3c962b1836beaf24e10792cfc97a125a90055b3627bec485a0765469272467739767edd7e24b3f5d53db54c9a938b921e3865e1bec614874d6",
      "networkId": 0,
      "chainId": 0
    }
  ]
}