{
  "hash": "0x82e203b1793fdd797b00ffbe7f350ecbd1f4c9e105d987bed0234f19efc94e77",
  "parentHash": "0x95578c3184f13c682cf11c232d8a314573aa6eb67f2bc12c042365461468a3b7",
  "number": 52839,
  "timestamp": 1439028035,
  "nonce": "0xabbca9b499f1b381",
  "difficulty": 1570913158826,
  "gasLimit": {
    "_hex": "0x1a8e32"
  },
  "gasUsed": {
    "_hex": "0x5208"
  },
  "miner": "0xeB1325C8D9d3ea8D74aC11F4B00F1B2367686319",
  "extraData": "0x476574682f76312e302e312f77696e646f77732f676f312e342e32",
  "transactions": [
    {
      "hash": "0xdad57e978372e9b5256b1786ba7f30c2b7b4688d6e335b0ee414ca7b57b48760",
      "blockHash": "0x82e203b1793fdd797b00ffbe7f350ecbd1f4c9e105d987bed0234f19efc94e77",
      "blockNumber": 52839,
      "transactionIndex": 0,
      "confirmations": null,
      "from": "0xA5fb3E4399E8F18643f969D0Ce65CC352fc252C6",
      "gasPrice": {
        "_hex": "0xd69ffdb78"
      },
      "gasLimit": {
        "_hex": "0x5208"
      },
      "to": "0x32Be343B94f860124dC4fEe278FDCBD38C102D88",
      "value": {
        "_hex": "0x56bc311ce937d0000"
      },
      "nonce": 2,
      "data": "0x",
      "r": "0x1bdc25056b39a254cf6eecbfb50c07464f82de74d197cf060a01bb525a204720",
      "s": "0x7aba7aa303c51fe4af28b13458192a04b0658b6d0ebb4b915f93e6b102570cde",
      "v": 28,
      "creates": null,
      "raw": "0xf86d02850d69ffdb788252089432be343b94f860124dc4fee278fdcbd38c102d8889056bc311ce937d0000801ca01bdc25056b39a254cf6eecbfb50c07464f82de74d197cf060a01bb525a204720a07aba7aa303c51fe4af28b13458192a04b0658b6d0ebb4b915f93e6b102570cde",
      "networkId": 0,
      "chainId": 0
    }
  ]
}