{
  "hash": "0x5d96628e35314b1bc5e3d0a98d6c4d518bbbb99a537ee8898e19153dbd39bd17",
  "parentHash": "0x0897e36e2aa5ce611c65cf3a00bbccfcae3a0c31f10a44ed7fef3ba387c0b85f",
  "number": 109916,
  "timestamp": 1439964686,
  "nonce": "0xb06eea093f53e1ca",
  "difficulty": 4408027328377,
  "gasLimit": {
    "_hex": "0x2fefd8"
  },
  "gasUsed": {
    "_hex": "0x5208"
  },
  "miner": "0xe6A7a1d47ff21B6321162AEA7C6CB457D5476Bca",
  "extraData": "0x476574682f76312e302e312d38326566323666362f6c696e75782f676f312e34",
  "transactions": [
    {
      "hash": "0x8e91f7fbc199c8b7b77ca04615efe17110683480ccd19adb1c9064106f054641",
      "blockHash": "0x5d96628e35314b1bc5e3d0a98d6c4d518bbbb99a537ee8898e19153dbd39bd17",
      "blockNumber": 109916,
      "transactionIndex": 0,
      "confirmations": null,
      "from": "0xb85150eB365e7Df0941F0CF08235f987bA91506A",
      "gasPrice": {
        "_hex": "0xd72f977f9"
      },
      "gasLimit": {
        "_hex": "0x15f90"
      },
      "to": "0xce7a6e1143620333cbaeDb089A14a5C08a3B7DF2",
      "value": {
        "_hex": "0x45400a8fd5330000"
      },
      "nonce": 5,
      "data": "0x",
      "r": "0x74e3f6a6ea715b6a9b15da425eb334ed95422f0924797314028dff4722b121c7",
      "s": "0x198559c74bb0d1d78c73f0148008c0ce015d3bc99355bb9c9412f85360823120",
      "v": 28,
      "creates": null,
      "raw": "0xf86d05850d72f977f983015f9094ce7a6e1143620333cbaedb089a14a5c08a3b7df28845400a8fd5330000801ca074e3f6a6ea715b6a9b15da425eb334ed95422f0924797314028dff4722b121c7a0198559c74bb0d1d78c73f0148008c0ce015d3bc99355bb9c9412f85360823120",
      "networkId": 0,
      "chainId": 0
    }
  ]
}