{
  "hash": "0x975dca0a62d98a757fa56207fdf9ea044da6f6cd16d6f3752f46ad92afcd347b",
  "parentHash": "0xc467a45d1465b3a9a49fbe0f6146ca97bc646fac550829f4aa0fe328e9033d98",
  "number": 89107,
  "timestamp": 1439618305,
  "nonce": "0x1802980112f8c458",
  "difficulty": 3263124649228,
  "gasLimit": {
    "_hex": "0x2fefd8"
  },
  "gasUsed": {
    "_hex": "0x5208"
  },
  "miner": "0x2095d52287e5272d654D7dD782CCb862AFF4d37c",
  "extraData": "0xd983010001844765746887676f312e342e328777696e646f7773",
  "transactions": [
    {
      "hash": "0x667d104a84b7691a3fc95feff8f6180ee3afb5ca994acd9f6a57dcf287970267",
      "blockHash": "0x975dca0a62d98a757fa56207fdf9ea044da6f6cd16d6f3752f46ad92afcd347b",
      "blockNumber": 89107,
      "transactionIndex": 0,
      "confirmations": null,
      "from": "0x6541237dAaFf6688A79f9F2F370Ca0E7Ee20BD33",
      "gasPrice": {
        "_hex": "0xd2efede0f"
      },
      "gasLimit": {
        "_hex": "0x15f90"
      },
      "to": "0x7937e37508542e51f7087c524108ce7235e7C72e",
      "value": {
        "_hex": "0xad78ebc5ac6200000"
      },
      "nonce": 1,
      "data": "0x",
      "r": "0xb72e8f8e340e0d07886f4b7b61b0158b05b875ef604fce5e67e580827725e5f8",
      "s": "0x2896ca76022b22cc49825b05baac4a7cf544659ac7316e9c27b0c97f88788979",
      "v": 28,
      "creates": null,
      "raw": "0xf86e01850d2efede0f83015f90947937e37508542e51f7087c524108ce7235e7c72e890ad78ebc5ac6200000801ca0b72e8f8e340e0d07886f4b7b61b0158b05b875ef604fce5e67e580827725e5f8a02896ca76022b22cc49825b05baac4a7cf544659ac7316e9c27b0c97f88788979",
      "networkId": 0,
      "chainId": 0
    }
  ]
}