{
  "hash": "0xc84857e54f7386c2cf6b173c15bae2502a040e1e4bff9d63643171be46011918",
  "parentHash": "0x6fa921093c0b47eb6e9a3a3774cb43fcd1905e6e320c71eafc9165174e3f5737",
  "number": 47007,
  "timestamp": 1438933086,
  "nonce": "0x3518b39c47504313",
  "difficulty": 1449614436010,
  "gasLimit": {
    "_hex": "0x8e8d"
  },
  "gasUsed": {
    "_hex": "0x5208"
  },
  "miner": "0xC0EdE9a639d107851462c15f2fb729c7c61bBf62",
  "extraData": "0x476574682f76312e302e312f6c696e75782f676f312e342e32",
  "transactions": [
    {
      "hash": "0x146149066e4235f45c565e0f322670cf8c49c06fafcf06aa8694f67a26318bf3",
      "blockHash": "0xc84857e54f7386c2cf6b173c15bae2502a040e1e4bff9d63643171be46011918",
      "blockNumber": 47007,
      "transactionIndex": 0,
      "confirmations": null,
      "from": "0xD79aFf13Ba2Da75d46240cAC0a2467C656949823",
      "gasPrice": {
        "_hex": "0x10bd2717cdb"
      },
      "gasLimit": {
        "_hex": "0x5208"
      },
      "to": "0x217CC0cD81DADa7C89Ad3EFdADf04e399A3167E2",
      "value": {
        "_hex": "0x2386f26fc10000"
      },
      "nonce": 1,
      "data": "0x",
      "r": "0xc67f3bd73c548da6fb83931c886bcd27ac61a18fd60f145de8e1ba62879184ad",
      "s": "0x7e284445d56924eeda99cb4b326b9e6c3eca9b065f6b168975e9ef5eb27c307b",
      "v": 27,
      "creates": null,
      "raw": "0xf86c0186010bd2717cdb82520894217cc0cd81dada7c89ad3efdadf04e399a3167e2872386f26fc10000801ba0c67f3bd73c548da6fb83931c886bcd27ac61a18fd60f145de8e1ba62879184ada07e284445d56924eeda99cb4b326b9e6c3eca9b065f6b168975e9ef5eb27c307b",
      "networkId": 0,
      "chainId": 0
    }
  ]
}