{
  "hash": "0x583d5fb27a28828b43a6a77ac8374cad108e8a121c7b3c5f761bb0e9f5da0a74",
  "parentHash": "0x99f2f57cd46146c3db2cbac49d2415ba6bcc01fc9a4db860934f49073c92a5b5",
  "number": 60045,
  "timestamp": 1439148265,
  "nonce": "0x02056a51430f9e97",
  "difficulty": 1722146542735,
  "gasLimit": {
    "_hex": "0x2fcc0a"
  },
  "gasUsed": {
    "_hex": "0x53e4"
  },
  "miner": "0xF2d2AfF1320476cb8C6b607199D23175cc595693",
  "extraData": "0x476574682f76312e302e312f77696e646f77732f676f312e342e32",
  "transactions": [
    {
      "hash": "0x1658bbaac19c3a06976ea210bf580eb47db4dc63b6540cf5894e3a86bff2dc52",
      "blockHash": "0x583d5fb27a28828b43a6a77ac8374cad108e8a121c7b3c5f761bb0e9f5da0a74",
      "blockNumber": 60045,
      "transactionIndex": 0,
      "confirmations": null,
      "from": "0x0a3DE155d5Ecd8E81C1Ff9BBF0378301f8d4C623",
      "gasPrice": {
        "_hex": "0xde11e0791"
      },
      "gasLimit": {
        "_hex": "0x55f0"
      },
      "to": "0x908CABeD14f5632705F9D7BdB95d672b164446A8",
      "value": {
        "_hex": "0xde0b6b3a7640000"
      },
      "nonce": 3,
      "data": "0x676f617447656e",
      "r": "0x451f1af44f87917e33d1008d22ff713f2ca15692ec27ac6b00ed5c7a9edd7127",
      "s": "0x75b083855b1d8fd9415cf5772c3d919dc378f59ff776503a5fceb3cc2d2fa988",
      "v": 27,
      "creates": null,
      "raw": "0xf87303850de11e07918255f094908cabed14f5632705f9d7bdb95d672b164446a8880de0b6b3a764000087676f617447656e1ba0451f1af44f87917e33d1008d22ff713f2ca15692ec27ac6b00ed5c7a9edd7127a075b083855b1d8fd9415cf5772c3d919dc378f59ff776503a5fceb3cc2d2fa988",
      "networkId": 0,
      "chainId": 0
    }
  ]
}