{
  "hash": "0xd630e80fc283e78aacb74731d7595871708877668192bdbe97d977865733d05d",
  "parentHash": "0x2b28697d900166d4783e3d3ccfb7883e3da9ab16eb82766ed1b3a5b6aafc5ce6",
  "number": 98949,
  "timestamp": 1439781726,
  "nonce": "0x0407729e937deda7",
  "difficulty": 3847900203630,
  "gasLimit": {
    "_hex": "0x2fefd8"
  },
  "gasUsed": {
    "_hex": "0x802e"
  },
  "miner": "0xe6A7a1d47ff21B6321162AEA7C6CB457D5476Bca",
  "extraData": "0x476574682f76312e302e312d38326566323666362f6c696e75782f676f312e34",
  "transactions": [
    {
      "hash": "0x484fd79229e85ed1bd9dec08fa2483bbce2ca19266d7bbf45c34bd2f2295f642",
      "blockHash": "0xd630e80fc283e78aacb74731d7595871708877668192bdbe97d977865733d05d",
      "blockNumber": 98949,
      "transactionIndex": 0,
      "confirmations": null,
      "from": "0xC4c6bAF00209a0f33331e4B7cb1c7B680A3d2F79",
      "gasPrice": {
        "_hex": "0xd4e139eca"
      },
      "gasLimit": {
        "_hex": "0x15f90"
      },
      "to": "0xAd8d3a5d2d92EB14bB56CA9f380be35b8EFE0c04",
      "value": {
        "_hex": "0x0"
      },
      "nonce": 20,
      "data": "0x3feb1bd841414141414a4946440000000000000000000000000000000000000000000000000000000000000000000000f4b1114a02efe852013277f28ed88734fa81e54f000000000000000000000000000000000000000000000000016345785d8a0000",
      "r": "0x4536c6a72060154be044b7a36e1c025dcef72a6e71a641254480e8037f22d479",
      "s": "0x47a1a0620ff33fe2bf5e5455bb1b9c0875f28cc2459c0ae9e2dc02300dd844cf",
      "v": 27,
      "creates": null,
      "raw": "0xf8ca14850d4e139eca83015f9094ad8d3a5d2d92eb14bb56ca9f380be35b8efe0c0480b8643feb1bd841414141414a4946440000000000000000000000000000000000000000000000000000000000000000000000f4b1114a02efe852013277f28ed88734fa81e54f000000000000000000000000000000000000000000000000016345785d8a00001ba04536c6a72060154be044b7a36e1c025dcef72a6e71a641254480e8037f22d479a047a1a0620ff33fe2bf5e5455bb1b9c0875f28cc2459c0ae9e2dc02300dd844cf",
      "networkId": 0,
      "chainId": 0
    }
  ]
}