{
  "hash": "0xe06351b9c88da93e2ebd3a4ca015bbca8e35c29bf51c68cef3d59d206f1be9f2",
  "parentHash": "0x14b7aef27a95fb280c7166de92e693716d7c929c4e2e902885000b398d7ab31b",
  "number": 47280,
  "timestamp": 1438937319,
  "nonce": "0xf1cf85972d55d9d6",
  "difficulty": 1463077969993,
  "gasLimit": {
    "_hex": "0xac2f"
  },
  "gasUsed": {
    "_hex": "0xa410"
  },
  "miner": "0xDdf735543837695220A5fF5920f5756696840A5D",
  "extraData": "0x476574682f76312e302e312f6c696e75782f676f312e342e32",
  "transactions": [
    {
      "hash": "0x3b859c8ae977168e01ef37320399f0606621d01705342eefe9faa055d8c776a2",
      "blockHash": "0xe06351b9c88da93e2ebd3a4ca015bbca8e35c29bf51c68cef3d59d206f1be9f2",
      "blockNumber": 47280,
      "transactionIndex": 0,
      "confirmations": null,
      "from": "0xe6A7a1d47ff21B6321162AEA7C6CB457D5476Bca",
      "gasPrice": {
        "_hex": "0xd7cdffe08"
      },
      "gasLimit": {
        "_hex": "0x5208"
      },
      "to": "0x6B4971F56172Fe56565FD3d6b56F8CA3C91B2baD",
      "value": {
        "_hex": "0x9dd602839e0dc828"
      },
      "nonce": 99,
      "data": "0x",
      "r": "0x62e195688e6382b7b51c8cc42303392d998c2b4d3e127ffca9a27f98e48f5d5e",
      "s": "0x0b04f26b4bb626dad1ae598e554d586dc57c5103b22653628a9797fc4401ca45",
      "v": 27,
      "creates": null,
      "raw": "0xf86c63850d7cdffe08825208946b4971f56172fe56565fd3d6b56f8ca3c91b2bad889dd602839e0dc828801ba062e195688e6382b7b51c8cc42303392d998c2b4d3e127ffca9a27f98e48f5d5ea00b04f26b4bb626dad1ae598e554d586dc57c5103b22653628a9797fc4401ca45",
      "networkId": 0,
      "chainId": 0
    },
    {
      "hash": "0xb0749cf4daea03c42d02d95f8f7fda9c8b5bf03447982fdd9a262eeb78dc8e97",
      "blockHash": "0xe06351b9c88da93e2ebd3a4ca015bbca8e35c29bf51c68cef3d59d206f1be9f2",
      "blockNumber": 47280,
      "transactionIndex": 1,
      "confirmations": null,
      "from": "0x1A6e2D880420fd418522F080D5E31feE4A74a55E",
      "gasPrice": {
        "_hex": "0xd3d96f1ba"
      },
      "gasLimit": {
        "_hex": "0x5208"
      },
      "to": "0x32Be343B94f860124dC4fEe278FDCBD38C102D88",
      "value": {
        "_hex": "0xf9c8a645ea4c2000"
      },
      "nonce": 1,
      "data": "0x",
      "r": "0x1d7eab3637e78606e4023bdbcfb9979499a14040a608ddb4455c74a8ffc5b5ab",
      "s": "0x487f81f2fef4e9b0051862dda26199bc99d24f7808c51993224b0a8d465b514a",
      "v": 27,
      "creates": null,
      "raw": "0xf86c01850d3d96f1ba8252089432be343b94f860124dc4fee278fdcbd38c102d8888f9c8a645ea4c2000801ba01d7eab3637e78606e4023bdbcfb9979499a14040a608ddb4455c74a8ffc5b5aba0487f81f2fef4e9b0051862dda26199bc99d24f7808c51993224b0a8d465b514a",
      "networkId": 0,
      "chainId": 0
    }
  ]
}