{
  "hash": "0xc86787e994fbc08781682286a13c5e17eeb1605de6953c65139fc55670963d9e",
  "parentHash": "0xe895b95c51487bf5c1473c966019408e86cfec32f8fdee4ff36365ffb16da1f5",
  "number": 68406,
  "timestamp": 1439287275,
  "nonce": "0xf420231782008c81",
  "difficulty": 2020246103976,
  "gasLimit": {
    "_hex": "0x2fefd8"
  },
  "gasUsed": {
    "_hex": "0x2e248"
  },
  "miner": "0x5F8F73E26CdF436f19Cb24C82F90A15AFe55b592",
  "extraData": "0x476574682f76312e302e312f77696e646f77732f676f312e342e32",
  "transactions": [
    {
      "hash": "0x206b22a3af014c2c79549bfb99447f2423246f293346d77ef20ed130cc0c9de9",
      "blockHash": "0xc86787e994fbc08781682286a13c5e17eeb1605de6953c65139fc55670963d9e",
      "blockNumber": 68406,
      "transactionIndex": 0,
      "confirmations": null,
      "from": "0xFCCA4969B9242c9c8a63c1314e6A50CFbc9EB38D",
      "gasPrice": {
        "_hex": "0xba43b7400"
      },
      "gasLimit": {
        "_hex": "0x5208"
      },
      "to": "0x76DdF02a03BF15c2BDC5c52defd562D6A3523832",
      "value": {
        "_hex": "0x4e1253f5de4000"
      },
      "nonce": 1,
      "data": "0x",
      "r": "0x79ff03942a84703569b79e965369d463f11ef4e381ec2ca927b065866568398a",
      "s": "0x74eb2fa3fdceef86f8c2c62a4883f936656cc57242dc08cdfb42db56820806e4",
      "v": 28,
      "creates": null,
      "raw": "0xf86b01850ba43b74008252089476ddf02a03bf15c2bdc5c52defd562d6a3523832874e1253f5de4000801ca079ff03942a84703569b79e965369d463f11ef4e381ec2ca927b065866568398aa074eb2fa3fdceef86f8c2c62a4883f936656cc57242dc08cdfb42db56820806e4",
      "networkId": 0,
      "chainId": 0
    },
    {
      "hash": "0xa5e0a1eacdc7c0011142916bac2d47da54ebca10112af58efed1b324f2bcca85",
      "blockHash": "0xc86787e994fbc08781682286a13c5e17eeb1605de6953c65139fc55670963d9e",
      "blockNumber": 68406,
      "transactionIndex": 1,
      "confirmations": null,
      "from": "0xa059797A13e68B21EF287b020168cb91EE7Ba15d",
      "gasPrice": {
        "_hex": "0xba43b7400"
      },
      "gasLimit": {
        "_hex": "0x5208"
      },
      "to": "0x92F6d00F74F8931b3A3758f4Aa6d04F8A35F48Ba",
      "value": {
        "_hex": "0x4e1253f5de4000"
      },
      "nonce": 1,
      "data": "0x",
      "r": "0x51532d9eb4113d8d9a3aecc4c9b8ae0990907450e0e516ca7f8e7d2c7a4f651f",
      "s": "0x4eff7ff73a217f10974f52f8f2be09dd9c89fd16c47174c71edb4759ad4a8282",
      "v": 27,
      "creates": null,
      "raw": "0xf86b01850ba43b74008252089492f6d00f74f8931b3a3758f4aa6d04f8a35f48ba874e1253f5de4000801ba051532d9eb4113d8d9a3aecc4c9b8ae0990907450e0e516ca7f8e7d2c7a4f651fa04eff7ff73a217f10974f52f8f2be09dd9c89fd16c47174c71edb4759ad4a8282",
      "networkId": 0,
      "chainId": 0
    },
    {
      "hash": "0x77b9d83f2e6cc38f1f11430a5d9121319f6c675aed48e25e7a39a40b3663cd34",
      "blockHash": "0xc86787e994fbc08781682286a13c5e17eeb1605de6953c65139fc55670963d9e",
      "blockNumber": 68406,
      "transactionIndex": 2,
      "confirmations": null,
      "from": "0x6ba3788a162D9A7d4a02417f7538C0b9b8BF057b",
      "gasPrice": {
        "_hex": "0xba43b7400"
      },
      "gasLimit": {
        "_hex": "0x5208"
      },
      "to": "0x6C8B51bA3eF6445Bc26f3641f99a391827b365b6",
      "value": {
        "_hex": "0x4e1253f5de4000"
      },
      "nonce": 1,
      "data": "0x",
      "r": "0x7906e6de2a0c8fcb62d2f2734d5b78d17203d6caae1374f6714f93d9b7631e75",
      "s": "0x60bc5b7b937da6f6feff7e3c626241a8a5ae34b03d9538a58525dc7c4655dfb1",
      "v": 27,
      "creates": null,
      "raw": "0xf86b01850ba43b7400825208946c8b51ba3ef6445bc26f3641f99a391827b365b6874e1253f5de4000801ba07906e6de2a0c8fcb62d2f2734d5b78d17203d6caae1374f6714f93d9b7631e75a060bc5b7b937da6f6feff7e3c626241a8a5ae34b03d9538a58525dc7c4655dfb1",
      "networkId": 0,
      "chainId": 0
    },
    {
      "hash": "0x7cd446bb7cf83791c0b4904f73170ce9296460dd967b473dd1e51da7a2046f56",
      "blockHash": "0xc86787e994fbc08781682286a13c5e17eeb1605de6953c65139fc55670963d9e",
      "blockNumber": 68406,
      "transactionIndex": 3,
      "confirmations": null,
      "from": "0xE311c7f65F3A18Fbb96CA22ec6E3c5Ca2f124762",
      "gasPrice": {
        "_hex": "0xba43b7400"
      },
      "gasLimit": {
        "_hex": "0x5208"
      },
      "to": "0xf637612c4d3862896925EA5939b70d4604421b34",
      "value": {
        "_hex": "0x4e1253f5de4000"
      },
      "nonce": 1,
      "data": "0x",
      "r": "0x495c8b9bb27db44f0dfcedd44c2148d3d669510b0674251feb97d4dfc03395d5",
      "s": "0x1a8e79a731cfa3b1dc610f4ae4e40cf7accb211c60cea374506a5dd12e283c8f",
      "v": 28,
      "creates": null,
      "raw": "0xf86b01850ba43b740082520894f637612c4d3862896925ea5939b70d4604421b34874e1253f5de4000801ca0495c8b9bb27db44f0dfcedd44c2148d3d669510b0674251feb97d4dfc03395d5a01a8e79a731cfa3b1dc610f4ae4e40cf7accb211c60cea374506a5dd12e283c8f",
      "networkId": 0,
      "chainId": 0
    },
    {
      "hash": "0x46f7a9d1a96979f55f4a8171d18cf095dbcf5070170cd33df6940abcb7b1dc20",
      "blockHash": "0xc86787e994fbc08781682286a13c5e17eeb1605de6953c65139fc55670963d9e",
      "blockNumber": 68406,
      "transactionIndex": 4,
      "confirmations": null,
      "from": "0x373D5F7e47a3b8E78223F0A11886dd777885C7ad",
      "gasPrice": {
        "_hex": "0xba43b7400"
      },
      "gasLimit": {
        "_hex": "0x5208"
      },
      "to": "0xF9d53F9B73309839062739bFCcE3879e0dF9224f",
      "value": {
        "_hex": "0x4e1253f5de4000"
      },
      "nonce": 1,
      "data": "0x",
      "r": "0xfdc02f58d0a2a62f5afec5379c5aa85ca2e30b2a39660780fa5f1b2e8efc07fd",
      "s": "0x3e4970461f6df97119b32074a08c028372f1ef49fff429dfdd21423b0ce90f6a",
      "v": 28,
      "creates": null,
      "raw": "0xf86b01850ba43b740082520894f9d53f9b73309839062739bfcce3879e0df9224f874e1253f5de4000801ca0fdc02f58d0a2a62f5afec5379c5aa85ca2e30b2a39660780fa5f1b2e8efc07fda03e4970461f6df97119b32074a08c028372f1ef49fff429dfdd21423b0ce90f6a",
      "networkId": 0,
      "chainId": 0
    },
    {
      "hash": "0xee8f89ac70edc18b7746ffbde4831cc69035eb2b6a336a26ece2ad47045164cc",
      "blockHash": "0xc86787e994fbc08781682286a13c5e17eeb1605de6953c65139fc55670963d9e",
      "blockNumber": 68406,
      "transactionIndex": 5,
      "confirmations": null,
      "from": "0x55D2b208F6bE7BAFfb8cb2a5B5da732575aB6C52",
      "gasPrice": {
        "_hex": "0xba43b7400"
      },
      "gasLimit": {
        "_hex": "0x5208"
      },
      "to": "0xE1cc11868D59150955F9418CDF7cF0e0dDdf08f6",
      "value": {
        "_hex": "0x4e1253f5de4000"
      },
      "nonce": 1,
      "data": "0x",
      "r": "0x3538e6136cfa87ce9ef0972ce4039a4e43cd2f55ef652d580cfc0260a7acb2c0",
      "s": "0x783a0ebf78ae30635b7de560358771e28bb46c3ea6cd3df4c379eeed6b0da238",
      "v": 27,
      "creates": null,
      "raw": "0xf86b01850ba43b740082520894e1cc11868d59150955f9418cdf7cf0e0dddf08f6874e1253f5de4000801ba03538e6136cfa87ce9ef0972ce4039a4e43cd2f55ef652d580cfc0260a7acb2c0a0783a0ebf78ae30635b7de560358771e28bb46c3ea6cd3df4c379eeed6b0da238",
      "networkId": 0,
      "chainId": 0
    },
    {
      "hash": "0x6c0d174d8644fd279bb962ee6ca2a1131393bb3b30def30b851661c59740ed22",
      "blockHash": "0xc86787e994fbc08781682286a13c5e17eeb1605de6953c65139fc55670963d9e",
      "blockNumber": 68406,
      "transactionIndex": 6,
      "confirmations": null,
      "from": "0x6d7EA1b3775ea837d07a0CFcB69F47090bB2D752",
      "gasPrice": {
        "_hex": "0xba43b7400"
      },
      "gasLimit": {
        "_hex": "0x5208"
      },
      "to": "0x13D0f8853Cb144752aBb4433E9a8530a313287ae",
      "value": {
        "_hex": "0x4e1253f5de4000"
      },
      "nonce": 1,
      "data": "0x",
      "r": "0x71b7eeb2b58ed9333b8c25e48834524879bbbeb6eaf190b1c04e23f76bdca68a",
      "s": "0x354f98d45a480c047e569377bd5e003070f7cef026ff554f21d3c58f4253a69b",
      "v": 27,
      "creates": null,
      "raw": "0xf86b01850ba43b74008252089413d0f8853cb144752abb4433e9a8530a313287ae874e1253f5de4000801ba071b7eeb2b58ed9333b8c25e48834524879bbbeb6eaf190b1c04e23f76bdca68aa0354f98d45a480c047e569377bd5e003070f7cef026ff554f21d3c58f4253a69b",
      "networkId": 0,
      "chainId": 0
    },
    {
      "hash": "0xc663d473d98f90fa1f01703f95c5d210d9cf070da2157e70d611face28525496",
      "blockHash": "0xc86787e994fbc08781682286a13c5e17eeb1605de6953c65139fc55670963d9e",
      "blockNumber": 68406,
      "transactionIndex": 7,
      "confirmations": null,
      "from": "0x4491CaA6f6DE23F04BEb1B3924b09f17A488dCD6",
      "gasPrice": {
        "_hex": "0xba43b7400"
      },
      "gasLimit": {
        "_hex": "0x5208"
      },
      "to": "0x63b5CF239a3579a0047fcE4B4b4eb8049D275698",
      "value": {
        "_hex": "0x4e1253f5de4000"
      },
      "nonce": 1,
      "data": "0x",
      "r": "0xdb8bd01ad86bd6c310e4c75c3e0aae0b78b1c70e79eceb0f18b8c58c6fcf0fdc",
      "s": "0x6834104d57ca2154367c93ca2b2d1dca125fa060329a651f217914e84fb600f6",
      "v": 28,
      "creates": null,
      "raw": "0xf86b01850ba43b74008252089463b5cf239a3579a0047fce4b4b4eb8049d275698874e1253f5de4000801ca0db8bd01ad86bd6c310e4c75c3e0aae0b78b1c70e79eceb0f18b8c58c6fcf0fdca06834104d57ca2154367c93ca2b2d1dca125fa060329a651f217914e84fb600f6",
      "networkId": 0,
      "chainId": 0
    },
    {
      "hash": "0x3bf8f0eec044cfb1c13ce0be9b12d27e25e53f78251164960c7d7fdac3596e71",
      "blockHash": "0xc86787e994fbc08781682286a13c5e17eeb1605de6953c65139fc55670963d9e",
      "blockNumber": 68406,
      "transactionIndex": 8,
      "confirmations": null,
      "from": "0x4E4C61481E64ECaa95FB2C99a986C369c51A2518",
      "gasPrice": {
        "_hex": "0xba43b7400"
      },
      "gasLimit": {
        "_hex": "0x5208"
      },
      "to": "0x5ADa9364f934632201003845862615237D0E6A31",
      "value": {
        "_hex": "0x4e1253f5de4000"
      },
      "nonce": 1,
      "data": "0x",
      "r": "0x028dc55fd9887efcfd090f869b01a9417f15349fe77cfcc25ecc0a8d379303c2",
      "s": "0x1390f64816df5274fc0c5426585082851449c8cbc67e30cc0ba78c223330d567",
      "v": 27,
      "creates": null,
      "raw": "0xf86b01850ba43b7400825208945ada9364f934632201003845862615237d0e6a31874e1253f5de4000801ba0028dc55fd9887efcfd090f869b01a9417f15349fe77cfcc25ecc0a8d379303c2a01390f64816df5274fc0c5426585082851449c8cbc67e30cc0ba78c223330d567",
      "networkId": 0,
      "chainId": 0
    }
  ]
}