{
  "hash": "0x14e9ba97153a10c8f81b1b2d2910fd8ad3d937f326e07e9c32bc0d8b35517530",
  "parentHash": "0x0df91c10d8bc4998ba389c2cc645470775ee640d90e9879133f2108692fe7442",
  "number": 76726,
  "timestamp": 1439425175,
  "nonce": "0xf8f0aaba07ca65af",
  "difficulty": 2247120007637,
  "gasLimit": {
    "_hex": "0x2fefd8"
  },
  "gasUsed": {
    "_hex": "0x5208"
  },
  "miner": "0xD65B98DBBE8F63FA14139a10041Bba7E3A0d377D",
  "extraData": "0x476574682f76312e302e312f6c696e75782f676f312e342e32",
  "transactions": [
    {
      "hash": "0x65204cda2dabc4010abdd6155146e41484dee373f985d9fa7fc5a5fc0ed7c5ee",
      "blockHash": "0x14e9ba97153a10c8f81b1b2d2910fd8ad3d937f326e07e9c32bc0d8b35517530",
      "blockNumber": 76726,
      "transactionIndex": 0,
      "confirmations": null,
      "from": "0xF5EeDc192aB70b08D8354384aD94efD095849E00",
      "gasPrice": {
        "_hex": "0xd12523ff3"
      },
      "gasLimit": {
        "_hex": "0x5208"
      },
      "to": "0x32Be343B94f860124dC4fEe278FDCBD38C102D88",
      "value": {
        "_hex": "0x9c1fc51e976d48000"
      },
      "nonce": 25,
      "data": "0x",
      "r": "0x8307adbf3aae64a7581fcf05f2dba2bf3f29d555e631458cb3475fbbccd7f635",
      "s": "0x23d046047182a6409a637b19969e1458d2ee7188639bb69a12150387fa5e1f96",
      "v": 28,
      "creates": null,
      "raw": "0xf86d19850d12523ff38252089432be343b94f860124dc4fee278fdcbd38c102d888909c1fc51e976d48000801ca08307adbf3aae64a7581fcf05f2dba2bf3f29d555e631458cb3475fbbccd7f635a023d046047182a6409a637b19969e1458d2ee7188639bb69a12150387fa5e1f96",
      "networkId": 0,
      "chainId": 0
    }
  ]
}