{
  "hash": "0x9399ff30668dd279897a7a6a62266c93bcbf666b1867680a4499b1376e9944d6",
  "parentHash": "0x42ac72bdc421e171a9d2c8de2ac0cf4518e927c1fcdcd740c98639c79e703938",
  "number": 67795,
  "timestamp": 1439277412,
  "nonce": "0xef2e9fef33b1f8cf",
  "difficulty": 1953457277613,
  "gasLimit": {
    "_hex": "0x2fefd8"
  },
  "gasUsed": {
    "_hex": "0x546c"
  },
  "miner": "0x0037ce3d4B7f8729C8607D8D0248252Be68202c0",
  "extraData": "0x476574682f76312e302e312f77696e646f77732f676f312e342e32",
  "transactions": [
    {
      "hash": "0x3826b15084f3ae5a76cf6e68d2bb09d80dd6f68ad26e4a8180574406519bf5c2",
      "blockHash": "0x9399ff30668dd279897a7a6a62266c93bcbf666b1867680a4499b1376e9944d6",
      "blockNumber": 67795,
      "transactionIndex": 0,
      "confirmations": null,
      "from": "0x179A825e0F1f6E985309668465CfFED436f6Aea9",
      "gasPrice": {
        "_hex": "0x110c8f7d8de"
      },
      "gasLimit": {
        "_hex": "0xc350"
      },
      "to": "0x2910543Af39abA0Cd09dBb2D50200b3E800A63D2",
      "value": {
        "_hex": "0x8ac7230489e80000"
      },
      "nonce": 0,
      "data": "0x454e41514456454152",
      "r": "0xd42b2fd04d5756c3fe05f395ba524ce9861b27c03e9440423d36a6b77cfb54d2",
      "s": "0x3b08fc6667300bd22bc16b60304ad1c27dd06ff0c63580dae0dd6dc72724cdf3",
      "v": 27,
      "creates": null,
      "raw": "0xf87680860110c8f7d8de82c350942910543af39aba0cd09dbb2d50200b3e800a63d2888ac7230489e8000089454e415144564541521ba0d42b2fd04d5756c3fe05f395ba524ce9861b27c03e9440423d36a6b77cfb54d2a03b08fc6667300bd22bc16b60304ad1c27dd06ff0c63580dae0dd6dc72724cdf3",
      "networkId": 0,
      "chainId": 0
    }
  ]
}