{
  "hash": "0x439d046143546b11e245b5d11fe0c1336537ad19387bc569b9e50594c49e3265",
  "parentHash": "0xbf90e5cab121f6a892a8c84392725be5ba60592d172d0e2326b5b2ba40acf20a",
  "number": 48799,
  "timestamp": 1438963235,
  "nonce": "0x7892387de38e8526",
  "difficulty": 1476447228698,
  "gasLimit": {
    "_hex": "0x1e830"
  },
  "gasUsed": {
    "_hex": "0x5208"
  },
  "miner": "0xf8E0CA3Ed80bd541b94BEdCf259e8CF2141A9523",
  "extraData": "0x476574682f76312e302e312f77696e646f77732f676f312e342e32",
  "transactions": [
    {
      "hash": "0xe681f0534ad4fc1c52a6e0fdb9816d4a8289007e7d68a6c628d844dd6888dbc3",
      "blockHash": "0x439d046143546b11e245b5d11fe0c1336537ad19387bc569b9e50594c49e3265",
      "blockNumber": 48799,
      "transactionIndex": 0,
      "confirmations": null,
      "from": "0xeF0a7407D5b9AF9fA9f38f67aBB66d20686afb55",
      "gasPrice": {
        "_hex": "0xd44ad60c8"
      },
      "gasLimit": {
        "_hex": "0x15f90"
      },
      "to": "0xeC210EC3715d5918B37CFa4D344a45d177eD849f",
      "value": {
        "_hex": "0xde0b6b3a7640000"
      },
      "nonce": 0,
      "data": "0x",
      "r": "0x31f3c752217fcd070fba707920ee23e6fec59f7b34b1eaedbead5e335114bc42",
      "s": "0x51aa2f10332bed85f54dd4b7f57ebefc148f909c836001cbd5e17e3b8ed1929c",
      "v": 27,
      "creates": null,
      "raw": "0xf86d80850d44ad60c883015f9094ec210ec3715d5918b37cfa4d344a45d177ed849f880de0b6b3a7640000801ba031f3c752217fcd070fba707920ee23e6fec59f7b34b1eaedbead5e335114bc42a051aa2f10332bed85f54dd4b7f57ebefc148f909c836001cbd5e17e3b8ed1929c",
      "networkId": 0,
      "chainId": 0
    }
  ]
}