{
  "hash": "0xbcf5074c2558cc5e75390b22d6feb1fd773c6d26c30ff8042e05d968e843c9bd",
  "parentHash": "0xc5464ef8e3fd2ffbea3e8f9acf0ef02b817e0dfb0165e807e3d2c96fe30af31c",
  "number": 105341,
  "timestamp": 1439885935,
  "nonce": "0x93dc5766f524642d",
  "difficulty": 4356921029023,
  "gasLimit": {
    "_hex": "0x2fefd8"
  },
  "gasUsed": {
    "_hex": "0xf618"
  },
  "miner": "0x007f7f58D3eb5b7510A301eCC749FC1fCDDBE14D",
  "extraData": "0x476574682f76312e302e312f77696e646f77732f676f312e342e32",
  "transactions": [
    {
      "hash": "0x5a2fe640afcd841fe14ed1f6d849553383803b61ee99d12f040fe5ed51d0d27c",
      "blockHash": "0xbcf5074c2558cc5e75390b22d6feb1fd773c6d26c30ff8042e05d968e843c9bd",
      "blockNumber": 105341,
      "transactionIndex": 0,
      "confirmations": null,
      "from": "0x790b8a3cE86E707ED0eD32bF89B3269692a23CC1",
      "gasPrice": {
        "_hex": "0xe2ced0e1a"
      },
      "gasLimit": {
        "_hex": "0x15f90"
      },
      "to": "0x4D67f4F0Db45b3B5a3424B39ed8d972F710381D5",
      "value": {
        "_hex": "0x2c2612051fb620000"
      },
      "nonce": 33,
      "data": "0x",
      "r": "0x8eb23461300d35b2c3a674e44b2415fdd7be52a95231408c1ab49046eb5bb987",
      "s": "0x2533d9776c82a4638ced9ef944a21d0cd9bf7ccfac3f2c1c734f73df7a556bad",
      "v": 28,
      "creates": null,
      "raw": "0xf86e21850e2ced0e1a83015f90944d67f4f0db45b3b5a3424b39ed8d972f710381d58902c2612051fb620000801ca08eb23461300d35b2c3a674e44b2415fdd7be52a95231408c1ab49046eb5bb987a02533d9776c82a4638ced9ef944a21d0cd9bf7ccfac3f2c1c734f73df7a556bad",
      "networkId": 0,
      "chainId": 0
    },
    {
      "hash": "0x0ab8df8fb6b61e37e04e7d354b5c5f64d82ff729296e9fc049b305ae4ca9bd29",
      "blockHash": "0xbcf5074c2558cc5e75390b22d6feb1fd773c6d26c30ff8042e05d968e843c9bd",
      "blockNumber": 105341,
      "transactionIndex": 1,
      "confirmations": null,
      "from": "0x4b0a38C16B842d68A8721B4CAd662e07cc430652",
      "gasPrice": {
        "_hex": "0xd9784b1a7"
      },
      "gasLimit": {
        "_hex": "0x5208"
      },
      "to": "0x32Be343B94f860124dC4fEe278FDCBD38C102D88",
      "value": {
        "_hex": "0x5a77f012fdc97c00"
      },
      "nonce": 7,
      "data": "0x",
      "r": "0xc4ed5716a518c08ef45e705445e01d03d5789d833fcef9e6c6ff938b12365c17",
      "s": "0x7bfe0b6da98fad49aeaac0cb4c5ec9797bdc8bd495ec6f87344ff4486502ce04",
      "v": 27,
      "creates": null,
      "raw": "0xf86c07850d9784b1a78252089432be343b94f860124dc4fee278fdcbd38c102d88885a77f012fdc97c00801ba0c4ed5716a518c08ef45e705445e01d03d5789d833fcef9e6c6ff938b12365c17a07bfe0b6da98fad49aeaac0cb4c5ec9797bdc8bd495ec6f87344ff4486502ce04",
      "networkId": 0,
      "chainId": 0
    },
    {
      "hash": "0xf64c617056a97cf55de00ed2dd7b27ccfab071285dc41a0a8e1b565b3f151258",
      "blockHash": "0xbcf5074c2558cc5e75390b22d6feb1fd773c6d26c30ff8042e05d968e843c9bd",
      "blockNumber": 105341,
      "transactionIndex": 2,
      "confirmations": null,
      "from": "0x34d34F0a638F6991e4E2536F41295DF6E934A646",
      "gasPrice": {
        "_hex": "0xd9784b1a7"
      },
      "gasLimit": {
        "_hex": "0x5208"
      },
      "to": "0x32Be343B94f860124dC4fEe278FDCBD38C102D88",
      "value": {
        "_hex": "0x929478d91e2a9800"
      },
      "nonce": 20,
      "data": "0x",
      "r": "0x5a5e4930e9095b972fcc5c2023478dc17f234acd89565ec178ef6fa1cae10565",
      "s": "0x68b44d078af9d90a1172cd90bbe0d8135e767a2a51c12d66219c871349346619",
      "v": 27,
      "creates": null,
      "raw": "0xf86c14850d9784b1a78252089432be343b94f860124dc4fee278fdcbd38c102d8888929478d91e2a9800801ba05a5e4930e9095b972fcc5c2023478dc17f234acd89565ec178ef6fa1cae10565a068b44d078af9d90a1172cd90bbe0d8135e767a2a51c12d66219c871349346619",
      "networkId": 0,
      "chainId": 0
    }
  ]
}