{
  "hash": "0x0155f3fc470f69261168f731d47119f959d1bd37d076521516e0d595cc7cadfb",
  "parentHash": "0x6e1ee1a0b24d7df607d33c95f65daceb7579971e690b4a0baf9302cc0e146db3",
  "number": 102788,
  "timestamp": 1439843118,
  "nonce": "0x50cd234de595e016",
  "difficulty": 4056386747980,
  "gasLimit": {
    "_hex": "0x2fefd8"
  },
  "gasUsed": {
    "_hex": "0x1bdbe"
  },
  "miner": "0xf927a40C8B7F6E07c5af7FA2155B4864a4112B13",
  "extraData": "0x",
  "transactions": [
    {
      "hash": "0x566f0eb34ad27fa419681532ddada3d772958fa979b1e677960060d9071dca88",
      "blockHash": "0x0155f3fc470f69261168f731d47119f959d1bd37d076521516e0d595cc7cadfb",
      "blockNumber": 102788,
      "transactionIndex": 0,
      "confirmations": null,
      "from": "0x976349705b839e2F5719387Fb27D2519d519da03",
      "gasPrice": {
        "_hex": "0xcdc9a6887"
      },
      "gasLimit": {
        "_hex": "0x249f0"
      },
      "to": "0xE28e72FCf78647ADCe1F1252F240bbfaebD63BcC",
      "value": {
        "_hex": "0x8ac7230489e80000"
      },
      "nonce": 23,
      "data": "0x45466f3a",
      "r": "0xe030694f9b9c005c4a0eacf3a0856e39d9c24273864fcda8b3a0e6a31ea94942",
      "s": "0x7edc7688a9676923986602db7c089b76c56f5578e4c0f450fe4442f1edf3c845",
      "v": 28,
      "creates": null,
      "raw": "0xf87117850cdc9a6887830249f094e28e72fcf78647adce1f1252f240bbfaebd63bcc888ac7230489e800008445466f3a1ca0e030694f9b9c005c4a0eacf3a0856e39d9c24273864fcda8b3a0e6a31ea94942a07edc7688a9676923986602db7c089b76c56f5578e4c0f450fe4442f1edf3c845",
      "networkId": 0,
      "chainId": 0
    }
  ]
}