{
  "hash": "0x2535e43641eb696e4eb4321b351def769c8fcedeeed3627855c3eb3f20776b0c",
  "parentHash": "0x588f376aa046a35272702e765c9922023043ba43945ce9968dd47488599a263d",
  "number": 110802,
  "timestamp": 1439979740,
  "nonce": "0x139292c0316594d9",
  "difficulty": 4390378323286,
  "gasLimit": {
    "_hex": "0x2fefd8"
  },
  "gasUsed": {
    "_hex": "0x5208"
  },
  "miner": "0x88D74a59454F6cF3B51ef6b9136AFb6b9D405A88",
  "extraData": "0x",
  "transactions": [
    {
      "hash": "0xf2fc2bb15de635cbb468bf6937ea5865cccaf8df0dfe6b4b7502d7c425290e58",
      "blockHash": "0x2535e43641eb696e4eb4321b351def769c8fcedeeed3627855c3eb3f20776b0c",
      "blockNumber": 110802,
      "transactionIndex": 0,
      "confirmations": null,
      "from": "0x3143d603E3bC37f2663B18B0E44d3eE04fBbaf49",
      "gasPrice": {
        "_hex": "0xd656baf0e"
      },
      "gasLimit": {
        "_hex": "0x5208"
      },
      "to": "0x32Be343B94f860124dC4fEe278FDCBD38C102D88",
      "value": {
        "_hex": "0xddc6bcbb34b5800"
      },
      "nonce": 0,
      "data": "0x",
      "r": "0xecea271b4714c39bec5d713b06eb5dc08491cf691a456882e698cf6d4a681af8",
      "s": "0x313182a9f7f7715f464195223caecb5c6c541d5da9021430e48d3e54045d0930",
      "v": 28,
      "creates": null,
      "raw": "0xf86c80850d656baf0e8252089432be343b94f860124dc4fee278fdcbd38c102d88880ddc6bcbb34b5800801ca0ecea271b4714c39bec5d713b06eb5dc08491cf691a456882e698cf6d4a681af8a0313182a9f7f7715f464195223caecb5c6c541d5da9021430e48d3e54045d0930",
      "networkId": 0,
      "chainId": 0
    }
  ]
}