{
  "hash": "0xce05bcffe6a91e1522cbe3efe5da34b2bbda8ef502c817e59cbf249995825ede",
  "parentHash": "0xa630bb4d57228fcdc3ed9438a9b2bb11e5046bc18ff8354e5b6153aa364c8680",
  "number": 54938,
  "timestamp": 1439062821,
  "nonce": "0x88302a2791431d02",
  "difficulty": 1616422632316,
  "gasLimit": {
    "_hex": "0x2fefd8"
  },
  "gasUsed": {
    "_hex": "0x32a06"
  },
  "miner": "0xab84940B570d6358ed6A9Dbf7e0bc8Ec8F5A6E89",
  "extraData": "0x322831652933",
  "transactions": [
    {
      "hash": "0x63c1217eb84011068ecc6df8bd11a91b907643abf41fc44b9186b4db6a9a709e",
      "blockHash": "0xce05bcffe6a91e1522cbe3efe5da34b2bbda8ef502c817e59cbf249995825ede",
      "blockNumber": 54938,
      "transactionIndex": 0,
      "confirmations": null,
      "from": "0x1308A2e95c0160B90803ddCA9B9a5bb55E416d79",
      "gasPrice": {
        "_hex": "0xe8d4a51000"
      },
      "gasLimit": {
        "_hex": "0x15f90"
      },
      "to": "0x5bD41C3B3DA9d686e42f1A27b352179c484D0279",
      "value": {
        "_hex": "0x2c2612051fb620000"
      },
      "nonce": 21,
      "data": "0x",
      "r": "0xfa614920992440cb0b0775965f12701f0ee7392f81a4e8d90de8fc6726f302c0",
      "s": "0x6903a89b5247e07c17fefdacdfdcbd2dec075ca7abb9a2886f50a45f9518e28d",
      "v": 27,
      "creates": null,
      "raw": "0xf86e1585e8d4a5100083015f90945bd41c3b3da9d686e42f1a27b352179c484d02798902c2612051fb620000801ba0fa614920992440cb0b0775965f12701f0ee7392f81a4e8d90de8fc6726f302c0a06903a89b5247e07c17fefdacdfdcbd2dec075ca7abb9a2886f50a45f9518e28d",
      "networkId": 0,
      "chainId": 0
    },
    {
      "hash": "0xce7843e1d573c910a4384ccbce12d09eacd9a72bbda13170d44ddb7e1bc09799",
      "blockHash": "0xce05bcffe6a91e1522cbe3efe5da34b2bbda8ef502c817e59cbf249995825ede",
      "blockNumber": 54938,
      "transactionIndex": 1,
      "confirmations": null,
      "from": "0xf9e7222faaf0f4DA40c1c4A40630373a09BEd7B6",
      "gasPrice": {
        "_hex": "0xdaf987337"
      },
      "gasLimit": {
        "_hex": "0x186a0"
      },
      "to": "0xA9634393AFaCf497F51723fdf76c7e5d8c8ACacd",
      "value": {
        "_hex": "0x9ab734d6dc24d80000"
      },
      "nonce": 1,
      "data": "0x",
      "r": "0x49c6c65aeb0ca24aea835042d89fdf37c7b50614c15b3b0c568dbd2d37d1e84f",
      "s": "0x256373ff413d91a0db3aafcc4be4ec98174f8d4139ecd828f94512010d6a41b8",
      "v": 28,
      "creates": null,
      "raw": "0xf86e01850daf987337830186a094a9634393afacf497f51723fdf76c7e5d8c8acacd899ab734d6dc24d80000801ca049c6c65aeb0ca24aea835042d89fdf37c7b50614c15b3b0c568dbd2d37d1e84fa0256373ff413d91a0db3aafcc4be4ec98174f8d4139ecd828f94512010d6a41b8",
      "networkId": 0,
      "chainId": 0
    },
    {
      "hash": "0x0ff0dca802834cc06c77d049614e09441553e9687242e70fec3ab68fc342b8f7",
      "blockHash": "0xce05bcffe6a91e1522cbe3efe5da34b2bbda8ef502c817e59cbf249995825ede",
      "blockNumber": 54938,
      "transactionIndex": 2,
      "confirmations": null,
      "from": "0x8674c218F0351a62C3BA78C34FD2182A93Da94E2",
      "gasPrice": {
        "_hex": "0xba43b7400"
      },
      "gasLimit": {
        "_hex": "0x2dc6c0"
      },
      "to": "0x1e918DdDfAF23688EfD884e60F0D13Cf04B422c1",
      "value": {
        "_hex": "0x0"
      },
      "nonce": 41,
      "data": "0xde6f24bb0000000000000000000000008674c218f0351a62c3ba78c34fd2182a93da94e20000000000000000000000000000000000000000000000000000000000000040000000000000000000000000000000000000000000000000000000000000000668656c6c6f210000000000000000000000000000000000000000000000000000",
      "r": "0x55788a441055fc7d96f96abec0522ec65a8951a85f3251e5fd75edf6235a368e",
      "s": "0x6b89b4f348cb5cc2a2c19992e9ee47e351e94fef61953e6cd43c9199cb6eca54",
      "v": 28,
      "creates": null,
      "raw": "0xf8ea29850ba43b7400832dc6c0941e918dddfaf23688efd884e60f0d13cf04b422c180b884de6f24bb0000000000000000000000008674c218f0351a62c3ba78c34fd2182a93da94e20000000000000000000000000000000000000000000000000000000000000040000000000000000000000000000000000000000000000000000000000000000668656c6c6f2100000000000000000000000000000000000000000000000000001ca055788a441055fc7d96f96abec0522ec65a8951a85f3251e5fd75edf6235a368ea06b89b4f348cb5cc2a2c19992e9ee47e351e94fef61953e6cd43c9199cb6eca54",
      "networkId": 0,
      "chainId": 0
    }
  ]
}