{
  "hash": "0x304eb8798cd93f2028a4f8505facf9fbb907d3eaf176ffd2135bd19ae24a675e",
  "parentHash": "0xba0f168f0f879c0a5b2cc219a2d3010b4142308f3517efae90cc634cd142d2a5",
  "number": 79503,
  "timestamp": 1439470761,
  "nonce": "0x37e80fbffd5511fa",
  "difficulty": 2337002533975,
  "gasLimit": {
    "_hex": "0x2fefd8"
  },
  "gasUsed": {
    "_hex": "0x5208"
  },
  "miner": "0xf8E0CA3Ed80bd541b94BEdCf259e8CF2141A9523",
  "extraData": "0x476574682f76312e302e312f77696e646f77732f676f312e342e32",
  "transactions": [
    {
      "hash": "0x6127706ec8eac278955d260793ea8e399e99c3f599a4918d42f4232a7ae0d7f4",
      "blockHash": "0x304eb8798cd93f2028a4f8505facf9fbb907d3eaf176ffd2135bd19ae24a675e",
      "blockNumber": 79503,
      "transactionIndex": 0,
      "confirmations": null,
      "from": "0x2910543Af39abA0Cd09dBb2D50200b3E800A63D2",
      "gasPrice": {
        "_hex": "0xda26a3436"
      },
      "gasLimit": {
        "_hex": "0x5208"
      },
      "to": "0x34C57A97dF78772fAc54FF75CeF9590457feE4D9",
      "value": {
        "_hex": "0x15181ff25a98000"
      },
      "nonce": 359,
      "data": "0x",
      "r": "0x32ee8ad8899ef308233703579221888c065195ea8dd6e114d36e91e2b9e478ae",
      "s": "0x6f9e490a744a9096f4c43cbb07d2d1cf773a458079157e151f69e05854a5ce3d",
      "v": 28,
      "creates": null,
      "raw": "0xf86e820167850da26a34368252089434c57a97df78772fac54ff75cef9590457fee4d988015181ff25a98000801ca032ee8ad8899ef308233703579221888c065195ea8dd6e114d36e91e2b9e478aea06f9e490a744a9096f4c43cbb07d2d1cf773a458079157e151f69e05854a5ce3d",
      "networkId": 0,
      "chainId": 0
    }
  ]
}