{
  "hash": "0x580af3d43bf00f3a9d7cf1a5797b069bf83c6c4d6cbce38a53525ca18bc755c7",
  "parentHash": "0x1bbd1ca7ece2f417f6185e5e86889dc2f744de1fb1ef1238d81244ae88e6fdd8",
  "number": 75694,
  "timestamp": 1439407478,
  "nonce": "0x1e72f169ea2d4f3f",
  "difficulty": 2234266638482,
  "gasLimit": {
    "_hex": "0x2fefd8"
  },
  "gasUsed": {
    "_hex": "0x5208"
  },
  "miner": "0x88D74a59454F6cF3B51ef6b9136AFb6b9D405A88",
  "extraData": "0x476574682f76312e302e312d37666266393930632f6c696e75782f676f312e34",
  "transactions": [
    {
      "hash": "0xf8dc6c1b024fd4a36ec12c6fbcd72a4378d9909c0608a84c2e254da389e0fd7f",
      "blockHash": "0x580af3d43bf00f3a9d7cf1a5797b069bf83c6c4d6cbce38a53525ca18bc755c7",
      "blockNumber": 75694,
      "transactionIndex": 0,
      "confirmations": null,
      "from": "0x095b0ea2b218d82e0Aea7c2889238A39C9Bf9077",
      "gasPrice": {
        "_hex": "0xcb6856817"
      },
      "gasLimit": {
        "_hex": "0x15f90"
      },
      "to": "0x2536bd4b759aae0fC4Ca6bb97141922a0D56C37C",
      "value": {
        "_hex": "0xde0b6b3a7640000"
      },
      "nonce": 0,
      "data": "0x",
      "r": "0x902889c7ac282bb82d686d5f93458d027e74878ce4be2d18d8f37b7aecf0532b",
      "s": "0x6974ac224a082174bada6c015ebc3fd335ff529c6bace4043bdaaf6e14d20e54",
      "v": 28,
      "creates": null,
      "raw": "0xf86d80850cb685681783015f90942536bd4b759aae0fc4ca6bb97141922a0d56c37c880de0b6b3a7640000801ca0902889c7ac282bb82d686d5f93458d027e74878ce4be2d18d8f37b7aecf0532ba06974ac224a082174bada6c015ebc3fd335ff529c6bace4043bdaaf6e14d20e54",
      "networkId": 0,
      "chainId": 0
    }
  ]
}