{
  "hash": "0xa34438d3130b9ba357e25411b03af5d9dd6a236b63e4d1ce53a3f22467835e37",
  "parentHash": "0x2fff4b381d174996e7ea3c705c402f70fe3278ab2922b1e159adab8e98880aff",
  "number": 84370,
  "timestamp": 1439548756,
  "nonce": "0x3dd330efa39414fb",
  "difficulty": 2546486933678,
  "gasLimit": {
    "_hex": "0x2fefd8"
  },
  "gasUsed": {
    "_hex": "0x5208"
  },
  "miner": "0x070c8963Cf4abCe1BFaF5973F2E0f7697925B242",
  "extraData": "0x",
  "transactions": [
    {
      "hash": "0x901e058fa3cb24f6764380a35ef0279ca787db67372324d07360816cf8369549",
      "blockHash": "0xa34438d3130b9ba357e25411b03af5d9dd6a236b63e4d1ce53a3f22467835e37",
      "blockNumber": 84370,
      "transactionIndex": 0,
      "confirmations": null,
      "from": "0xa83A3BD5fBcceD1b6e82119B404769f74a89Cab4",
      "gasPrice": {
        "_hex": "0xd5357769c"
      },
      "gasLimit": {
        "_hex": "0x15f90"
      },
      "to": "0xCDA330c8160f0c90B8B528C6Db267acc17381818",
      "value": {
        "_hex": "0xde0b6b3a7640000"
      },
      "nonce": 3,
      "data": "0x",
      "r": "0xe8687af8f348803868ca697e2402ff3d0ebb1cb4d7da490849e91ede35593258",
      "s": "0x68054ce922b11b3ee32db8316c305b514b99d6b969a282255632ea9abdc102f4",
      "v": 27,
      "creates": null,
      "raw": "0xf86d03850d5357769c83015f9094cda330c8160f0c90b8b528c6db267acc17381818880de0b6b3a7640000801ba0e8687af8f348803868ca697e2402ff3d0ebb1cb4d7da490849e91ede35593258a068054ce922b11b3ee32db8316c305b514b99d6b969a282255632ea9abdc102f4",
      "networkId": 0,
      "chainId": 0
    }
  ]
}