{
  "hash": "0xfa9603bce8423199cad510dcce7d443ba16768e4b47084e841eb890f7099c24e",
  "parentHash": "0x1d9020c3d20ca8af8ed5afe7fd50e31af634adc0457658daa38e781029600626",
  "number": 81060,
  "timestamp": 1439495492,
  "nonce": "0x711c05d71e11a40e",
  "difficulty": 2433208794678,
  "gasLimit": {
    "_hex": "0x2fefd8"
  },
  "gasUsed": {
    "_hex": "0x5208"
  },
  "miner": "0xe6A7a1d47ff21B6321162AEA7C6CB457D5476Bca",
  "extraData": "0x476574682f76312e302e312d38326566323666362f6c696e75782f676f312e34",
  "transactions": [
    {
      "hash": "0xeffafb8518f4294481672c836b2bf0c92b177519316bcf3dcda16ad345d4137c",
      "blockHash": "0xfa9603bce8423199cad510dcce7d443ba16768e4b47084e841eb890f7099c24e",
      "blockNumber": 81060,
      "transactionIndex": 0,
      "confirmations": null,
      "from": "0xA1C2126016EC44266679D716Fb6DE01076e11231",
      "gasPrice": {
        "_hex": "0xcd40fc91b"
      },
      "gasLimit": {
        "_hex": "0x5208"
      },
      "to": "0x32Be343B94f860124dC4fEe278FDCBD38C102D88",
      "value": {
        "_hex": "0x82195236012f80000"
      },
      "nonce": 0,
      "data": "0x",
      "r": "0xb17b742615fb527e4d64b126776e614ff3209a01af406ddcbe69dbe5bc6c233f",
      "s": "0x02db74611d171db7f47916eeefefebea27b3292a36c6a73c185b82b0e70ea637",
      "v": 28,
      "creates": null,
      "raw": "0xf86d80850cd40fc91b8252089432be343b94f860124dc4fee278fdcbd38c102d8889082195236012f80000801ca0b17b742615fb527e4d64b126776e614ff3209a01af406ddcbe69dbe5bc6c233fa002db74611d171db7f47916eeefefebea27b3292a36c6a73c185b82b0e70ea637",
      "networkId": 0,
      "chainId": 0
    }
  ]
}