{
  "hash": "0xaf40e0e73b4c0c85ed08aa3018d5620cc82635c20bc9a29a7dff3b4aa9ab94b4",
  "parentHash": "0x70a03b811933bdf621774d0dc1268d9781ee0380c696c478de1563b26c876d00",
  "number": 49803,
  "timestamp": 1438979404,
  "nonce": "0x6d26963234a2085a",
  "difficulty": 1490757858309,
  "gasLimit": {
    "_hex": "0x40177"
  },
  "gasUsed": {
    "_hex": "0x546c"
  },
  "miner": "0x6e9E0a2aAa3c4d41aa69f4E7328095278284f7e2",
  "extraData": "0x476574682f76312e302e312f6c696e75782f676f312e342e32",
  "transactions": [
    {
      "hash": "0x35953921b09b2d296f478a67e4b539d4183f35c2d695aacf8e63949dcfde960c",
      "blockHash": "0xaf40e0e73b4c0c85ed08aa3018d5620cc82635c20bc9a29a7dff3b4aa9ab94b4",
      "blockNumber": 49803,
      "transactionIndex": 0,
      "confirmations": null,
      "from": "0xE09C68e61998D9c81b14E4ee802BA7ADf6d74CdB",
      "gasPrice": {
        "_hex": "0x110c8f7d8de"
      },
      "gasLimit": {
        "_hex": "0xc350"
      },
      "to": "0x2910543Af39abA0Cd09dBb2D50200b3E800A63D2",
      "value": {
        "_hex": "0x1353a6b394000"
      },
      "nonce": 12,
      "data": "0x454e32413658483230",
      "r": "0xff581f5ac0151ab89f16f14d71ed600b0e709ca9be044b9d3fa8d1214b2f38ba",
      "s": "0xb5d63f57b1fbee839f9727b89946e3ee6a6d9d444ce70cc5d3c3dea0a9465701",
      "v": 27,
      "creates": null,
      "raw": "0xf8750c860110c8f7d8de82c350942910543af39aba0cd09dbb2d50200b3e800a63d28701353a6b39400089454e324136584832301ba0ff581f5ac0151ab89f16f14d71ed600b0e709ca9be044b9d3fa8d1214b2f38baa0b5d63f57b1fbee839f9727b89946e3ee6a6d9d444ce70cc5d3c3dea0a9465701",
      "networkId": 0,
      "chainId": 0
    }
  ]
}