{
  "hash": "0xa6ca5c04d92ed338e67a69f5c9a791003963259d224a7ea2d6381df6b67525d3",
  "parentHash": "0x97eaaf06bd7b66a050361c24a2abaf01d75be144eafa1205786147ef1f2941c5",
  "number": 53073,
  "timestamp": 1439032081,
  "nonce": "0x5f0f0d020e203b19",
  "difficulty": 1572404140356,
  "gasLimit": {
    "_hex": "0x1f145c"
  },
  "gasUsed": {
    "_hex": "0x5208"
  },
  "miner": "0xB57a69A9cFD1BC39510a70Ab14De3BDa11d1dF70",
  "extraData": "0x476574682f76312e302e312f6c696e75782f676f312e342e32",
  "transactions": [
    {
      "hash": "0xceb6b51789ce985b317a60c9f3d0ed7e70aa0be02411c11a35ff82d7951e241e",
      "blockHash": "0xa6ca5c04d92ed338e67a69f5c9a791003963259d224a7ea2d6381df6b67525d3",
      "blockNumber": 53073,
      "transactionIndex": 0,
      "confirmations": null,
      "from": "0x32Be343B94f860124dC4fEe278FDCBD38C102D88",
      "gasPrice": {
        "_hex": "0xd04b4c7b5"
      },
      "gasLimit": {
        "_hex": "0x5208"
      },
      "to": "0x0000000000000000000000000000000000000000",
      "value": {
        "_hex": "0x261f15fe60406000"
      },
      "nonce": 30,
      "data": "0x",
      "r": "0x6690d62afc89d93bbece4da849a0daa1998fa0fee3b748bfb930b5fef2996db1",
      "s": "0x0b25e45d28e692332a02ca1e509e2ebb7a4b12410489960e8223371290df094a",
      "v": 28,
      "creates": null,
      "raw": "0xf86c1e850d04b4c7b582520894000000000000000000000000000000000000000088261f15fe60406000801ca06690d62afc89d93bbece4da849a0daa1998fa0fee3b748bfb930b5fef2996db1a00b25e45d28e692332a02ca1e509e2ebb7a4b12410489960e8223371290df094a",
      "networkId": 0,
      "chainId": 0
    }
  ]
}