{
  "hash": "0x065223f35b0567d6ebb1e6e9f91f27630be1fc31f90225241ce5337a438f8a35",
  "parentHash": "0x9ae1329e74a5a56122dbaa89d4044eafe0c5c7afb1d2001d313cf94adf1af985",
  "number": 90720,
  "timestamp": 1439644486,
  "nonce": "0x62a2d36a9ad37ac2",
  "difficulty": 3370994414825,
  "gasLimit": {
    "_hex": "0x2fefd8"
  },
  "gasUsed": {
    "_hex": "0x5208"
  },
  "miner": "0x9746c7e1ef2bd21FF3997fa467593a89cb852BD0",
  "extraData": "0x476574682f76312e302e312f77696e646f77732f676f312e342e32",
  "transactions": [
    {
      "hash": "0x7b3a9d5664872abca45b3660b865cee95f8cc36daf3194499fa27d3aa8af5728",
      "blockHash": "0x065223f35b0567d6ebb1e6e9f91f27630be1fc31f90225241ce5337a438f8a35",
      "blockNumber": 90720,
      "transactionIndex": 0,
      "confirmations": null,
      "from": "0x723E32E60829d5d032A8aD7af228b3582CD5163c",
      "gasPrice": {
        "_hex": "0xcde03a1ee"
      },
      "gasLimit": {
        "_hex": "0x5208"
      },
      "to": "0x32Be343B94f860124dC4fEe278FDCBD38C102D88",
      "value": {
        "_hex": "0xc5426a7b9f8c48000"
      },
      "nonce": 2,
      "data": "0x",
      "r": "0xd3da0aeca2086a6faa2ff4b80573e6931e14edbe88d05636208fc00da2ea6907",
      "s": "0x3a62bb82a6c41c0986e5a9082a87d5623c4eac79b11540f2b67253e71b06e88b",
      "v": 28,
      "creates": null,
      "raw": "0xf86d02850cde03a1ee8252089432be343b94f860124dc4fee278fdcbd38c102d88890c5426a7b9f8c48000801ca0d3da0aeca2086a6faa2ff4b80573e6931e14edbe88d05636208fc00da2ea6907a03a62bb82a6c41c0986e5a9082a87d5623c4eac79b11540f2b67253e71b06e88b",
      "networkId": 0,
      "chainId": 0
    }
  ]
}