{
  "hash": "0xea0cb99f94f45744dcfd3c66e4dc0db481955ae93aaf0f6a37a1d1ec366596a2",
  "parentHash": "0x73a4892f4fbdeae62cf9854167db64469dd5fcb0611867f2a1b5a94b04bf5f22",
  "number": 88012,
  "timestamp": 1439601149,
  "nonce": "0x54a39950dca55fa9",
  "difficulty": 3195743143201,
  "gasLimit": {
    "_hex": "0x2fefd8"
  },
  "gasUsed": {
    "_hex": "0xf618"
  },
  "miner": "0xe6A7a1d47ff21B6321162AEA7C6CB457D5476Bca",
  "extraData": "0x476574682f76312e302e312d38326566323666362f6c696e75782f676f312e34",
  "transactions": [
    {
      "hash": "0x52176ecbbd1a2c837607097016f699de93a7a3d753913d0383981789dadf7709",
      "blockHash": "0xea0cb99f94f45744dcfd3c66e4dc0db481955ae93aaf0f6a37a1d1ec366596a2",
      "blockNumber": 88012,
      "transactionIndex": 0,
      "confirmations": null,
      "from": "0x8F79f76381Aad7B98C19aF55eE75fdfEeb012211",
      "gasPrice": {
        "_hex": "0xd9f856894"
      },
      "gasLimit": {
        "_hex": "0x5208"
      },
      "to": "0x32Be343B94f860124dC4fEe278FDCBD38C102D88",
      "value": {
        "_hex": "0x3092399c69eb34000"
      },
      "nonce": 26,
      "data": "0x",
      "r": "0x9e35396f91db2c27a9f9e39ba61893f6e141e47963cc3bc4a76fac4b9d8f965b",
      "s": "0x76eb046a1f64578c907f9a6489fe6105bc80d31a85b1b8462b277995124d82c6",
      "v": 27,
      "creates": null,
      "raw": "0xf86d1a850d9f8568948252089432be343b94f860124dc4fee278fdcbd38c102d888903092399c69eb34000801ba09e35396f91db2c27a9f9e39ba61893f6e141e47963cc3bc4a76fac4b9d8f965ba076eb046a1f64578c907f9a6489fe6105bc80d31a85b1b8462b277995124d82c6",
      "networkId": 0,
      "chainId": 0
    },
    {
      "hash": "0xedeebf06897086032bc90cd84ca959ba7764b284231b5752e1941fcfdc5d3d24",
      "blockHash": "0xea0cb99f94f45744dcfd3c66e4dc0db481955ae93aaf0f6a37a1d1ec366596a2",
      "blockNumber": 88012,
      "transactionIndex": 1,
      "confirmations": null,
      "from": "0x79d5794171E11dd5C2f0e26E1C187319db2FE6f7",
      "gasPrice": {
        "_hex": "0xd9f856894"
      },
      "gasLimit": {
        "_hex": "0x5208"
      },
      "to": "0x32Be343B94f860124dC4fEe278FDCBD38C102D88",
      "value": {
        "_hex": "0x455f33fc45c73c00"
      },
      "nonce": 27,
      "data": "0x",
      "r": "0xf6fed779d6135eb1e1d98c534fe12620620d419b64eb77cce4c3176e2641b383",
      "s": "0x55c7351eec4eb9fd7810344a8d42b6c907666f3eaaacdfa971e709a0b660fed8",
      "v": 28,
      "creates": null,
      "raw": "0xf86c1b850d9f8568948252089432be343b94f860124dc4fee278fdcbd38c102d8888455f33fc45c73c00801ca0f6fed779d6135eb1e1d98c534fe12620620d419b64eb77cce4c3176e2641b383a055c7351eec4eb9fd7810344a8d42b6c907666f3eaaacdfa971e709a0b660fed8",
      "networkId": 0,
      "chainId": 0
    },
    {
      "hash": "0xd0ec4047f218929b5bfe7e38b7b92fdfa2d0388c40ab90421533566b4c319352",
      "blockHash": "0xea0cb99f94f45744dcfd3c66e4dc0db481955ae93aaf0f6a37a1d1ec366596a2",
      "blockNumber": 88012,
      "transactionIndex": 2,
      "confirmations": null,
      "from": "0x609E9AE0DC7196EC893bFa9C06A37421Be70bF2d",
      "gasPrice": {
        "_hex": "0xd9f856894"
      },
      "gasLimit": {
        "_hex": "0x5208"
      },
      "to": "0x32Be343B94f860124dC4fEe278FDCBD38C102D88",
      "value": {
        "_hex": "0xddc592da8373c00"
      },
      "nonce": 1,
      "data": "0x",
      "r": "0x1ea269a1d118d15cde82e48336ce563a5d779b4b92f47ff6eeb83d795686a3b9",
      "s": "0x13d7036a0991cc3ba50a354d1640b23da01b7a20ddb5d925f4e283de4781e93e",
      "v": 28,
      "creates": null,
      "raw": "0xf86c01850d9f8568948252089432be343b94f860124dc4fee278fdcbd38c102d88880ddc592da8373c00801ca01ea269a1d118d15cde82e48336ce563a5d779b4b92f47ff6eeb83d795686a3b9a013d7036a0991cc3ba50a354d1640b23da01b7a20ddb5d925f4e283de4781e93e",
      "networkId": 0,
      "chainId": 0
    }
  ]
}