{
  "hash": "0x53742e0ad8abf1f156e635d7bcf948f513ba8b11becc09a5ace33095cc90f9c8",
  "parentHash": "0xdfb5e6a65c9a6052f06e86612fb2b267c313d5d0b3d1228cd14a3aece9ce20af",
  "number": 119022,
  "timestamp": 1440135446,
  "nonce": "0x58137051d9b8edbb",
  "difficulty": 4416163970849,
  "gasLimit": {
    "_hex": "0x2fefd8"
  },
  "gasUsed": {
    "_hex": "0xa410"
  },
  "miner": "0xe6A7a1d47ff21B6321162AEA7C6CB457D5476Bca",
  "extraData": "0xd783010002844765746887676f312e342e32856c696e7578",
  "transactions": [
    {
      "hash": "0x07cf2bcfa94e6600177f9358a7af153da5a22fe246d0ca00dfbf0cee2bd0de2f",
      "blockHash": "0x53742e0ad8abf1f156e635d7bcf948f513ba8b11becc09a5ace33095cc90f9c8",
      "blockNumber": 119022,
      "transactionIndex": 0,
      "confirmations": null,
      "from": "0x10c4712a317A10F60fE9347b199400d6BaA89558",
      "gasPrice": {
        "_hex": "0xba43b7400"
      },
      "gasLimit": {
        "_hex": "0x15f90"
      },
      "to": "0x5465B1c380c9D2446965E503EB731F08A30ecD25",
      "value": {
        "_hex": "0x2fb474098f67c0000"
      },
      "nonce": 8,
      "data": "0x",
      "r": "0x19cd600af39933868e833cce469d8bf3b7754ba3ab8fecaa0a83d14cf8cdb6ee",
      "s": "0x799046447f39263cae1ff06c60d1235919d6fb7035708e22a647d6f2f2dd41f8",
      "v": 27,
      "creates": null,
      "raw": "0xf86e08850ba43b740083015f90945465b1c380c9d2446965e503eb731f08a30ecd258902fb474098f67c0000801ba019cd600af39933868e833cce469d8bf3b7754ba3ab8fecaa0a83d14cf8cdb6eea0799046447f39263cae1ff06c60d1235919d6fb7035708e22a647d6f2f2dd41f8",
      "networkId": 0,
      "chainId": 0
    },
    {
      "hash": "0x508679d4d8ffcc7d357433d22786b1b40d2bfad09c6c16e3eaa71256a9cb5bf3",
      "blockHash": "0x53742e0ad8abf1f156e635d7bcf948f513ba8b11becc09a5ace33095cc90f9c8",
      "blockNumber": 119022,
      "transactionIndex": 1,
      "confirmations": null,
      "from": "0xFBb1b73C4f0BDa4f67dcA266ce6Ef42f520fBB98",
      "gasPrice": {
        "_hex": "0xba43b7400"
      },
      "gasLimit": {
        "_hex": "0x5208"
      },
      "to": "0x1Fabd401B08dF84f615091C14C6db1a5E0BeaD0c",
      "value": {
        "_hex": "0x140c83d4b0b45400"
      },
      "nonce": 246,
      "data": "0x",
      "r": "0x26337ceb8eed77542e433b41de6c2ac60721c2cfa85e21b7bc05fe0063637fd1",
      "s": "0x16c1ddb0f152e36d0f414c69857ea2c08d8697ecbe10ffe654105c1e40c5a789",
      "v": 28,
      "creates": null,
      "raw": "0xf86d81f6850ba43b7400825208941fabd401b08df84f615091c14c6db1a5e0bead0c88140c83d4b0b45400801ca026337ceb8eed77542e433b41de6c2ac60721c2cfa85e21b7bc05fe0063637fd1a016c1ddb0f152e36d0f414c69857ea2c08d8697ecbe10ffe654105c1e40c5a789",
      "networkId": 0,
      "chainId": 0
    }
  ]
}