{
  "hash": "0xb343a442d05e5625ac18468ed92c8a6f4f383aa0bbda9ffd1e7a24c690d69df1",
  "parentHash": "0xfe31e56027b20a95dc2fadc980b61233917b3a449f15511f9d4a76bf3b4c1308",
  "number": 92222,
  "timestamp": 1439668803,
  "nonce": "0xdfb2617bd0578716",
  "difficulty": 3473984363992,
  "gasLimit": {
    "_hex": "0x2fefd8"
  },
  "gasUsed": {
    "_hex": "0x5208"
  },
  "miner": "0xbb7B8287f3F0a933474a79eAe42CBCa977791171",
  "extraData": "0x476574682f4c5649562f76312e302e312f6c696e75782f676f312e342e32",
  "transactions": [
    {
      "hash": "0x69f987a4a6ca5d6ec99c48c9308986144bf3234be7cff9272d579def9a29428a",
      "blockHash": "0xb343a442d05e5625ac18468ed92c8a6f4f383aa0bbda9ffd1e7a24c690d69df1",
      "blockNumber": 92222,
      "transactionIndex": 0,
      "confirmations": null,
      "from": "0x641543020fd73468Eb65CFc4b9caA44085Cad8B4",
      "gasPrice": {
        "_hex": "0xcc93e3959"
      },
      "gasLimit": {
        "_hex": "0x5208"
      },
      "to": "0x32Be343B94f860124dC4fEe278FDCBD38C102D88",
      "value": {
        "_hex": "0x181feeb73f07920000"
      },
      "nonce": 0,
      "data": "0x",
      "r": "0x50c4b82459e1d1c6956c96b1a76aa10e662a88f9caf997eb709d737285455288",
      "s": "0x77934bed3c8be66fbcbed5c960e3e4416f296cb9ad512591de98d105fbcd16dc",
      "v": 28,
      "creates": null,
      "raw": "0xf86d80850cc93e39598252089432be343b94f860124dc4fee278fdcbd38c102d8889181feeb73f07920000801ca050c4b82459e1d1c6956c96b1a76aa10e662a88f9caf997eb709d737285455288a077934bed3c8be66fbcbed5c960e3e4416f296cb9ad512591de98d105fbcd16dc",
      "networkId": 0,
      "chainId": 0
    }
  ]
}