{
  "hash": "0x06f16b89bb82b0f356f5385634e7646117e3df3603edd947ed963b8e6ad18ab8",
  "parentHash": "0xdc902bb79b7f3a36c6a9726fa78f1063ac78675a7222cb90e87de01316865f7e",
  "number": 119268,
  "timestamp": 1440139699,
  "nonce": "0xd228fce3461e925f",
  "difficulty": 4424667962991,
  "gasLimit": {
    "_hex": "0x2fefd8"
  },
  "gasUsed": {
    "_hex": "0x5208"
  },
  "miner": "0xe6A7a1d47ff21B6321162AEA7C6CB457D5476Bca",
  "extraData": "0xd783010002844765746887676f312e342e32856c696e7578",
  "transactions": [
    {
      "hash": "0x39e7ef7124d41e817a1c2864ff14fbb9ef392057bb83a189840be5871fd4fa44",
      "blockHash": "0x06f16b89bb82b0f356f5385634e7646117e3df3603edd947ed963b8e6ad18ab8",
      "blockNumber": 119268,
      "transactionIndex": 0,
      "confirmations": null,
      "from": "0x056507108FE6d30189EcCD6cd7F4Fad56eEef622",
      "gasPrice": {
        "_hex": "0xcd6838d3a"
      },
      "gasLimit": {
        "_hex": "0x15f90"
      },
      "to": "0x9799B868C884690465A1e50A97D76a8B107F7583",
      "value": {
        "_hex": "0xc65c2c85b07df75e"
      },
      "nonce": 32,
      "data": "0x",
      "r": "0x2f9edd8d702df550f935b1110386ad0177625767c21ac09d5ddf764f12dbb59f",
      "s": "0x77e14a1580b1b7ce44fe4b98e02ae4c7ead9abec37286908bb637bd84e4dcd51",
      "v": 27,
      "creates": null,
      "raw": "0xf86d20850cd6838d3a83015f90949799b868c884690465a1e50a97d76a8b107f758388c65c2c85b07df75e801ba02f9edd8d702df550f935b1110386ad0177625767c21ac09d5ddf764f12dbb59fa077e14a1580b1b7ce44fe4b98e02ae4c7ead9abec37286908bb637bd84e4dcd51",
      "networkId": 0,
      "chainId": 0
    }
  ]
}