{
  "hash": "0xd42ddf074784e97d8cc090276a4cd150fca80ec4a342047dc76bf59c3bcb02bc",
  "parentHash": "0xa06081d55dade5674d26d185d06494cd231c519cf9683de170d68ba35f872f3e",
  "number": 69942,
  "timestamp": 1439312263,
  "nonce": "0x45fe9196f31dc7a1",
  "difficulty": 2104445180944,
  "gasLimit": {
    "_hex": "0x2fefd8"
  },
  "gasUsed": {
    "_hex": "0x5208"
  },
  "miner": "0x1B7047b4338ACf65bE94C1A3e8c5c9338ad7d67C",
  "extraData": "0x476574682f76312e302e312d38326566323666362f6c696e75782f676f312e34",
  "transactions": [
    {
      "hash": "0x32c12c978fe99e98e00ef28a99ec6f51c1ecd4ec1f8a072fbc5f5651d354c12a",
      "blockHash": "0xd42ddf074784e97d8cc090276a4cd150fca80ec4a342047dc76bf59c3bcb02bc",
      "blockNumber": 69942,
      "transactionIndex": 0,
      "confirmations": null,
      "from": "0x87898CE53471043FcCa0a2aF4E1dC6d8B3fCf607",
      "gasPrice": {
        "_hex": "0xd9925e948"
      },
      "gasLimit": {
        "_hex": "0x15f90"
      },
      "to": "0xBFdD9820a04283b289957956353b5F3C1F665EcF",
      "value": {
        "_hex": "0x222c8eb3ff6640000"
      },
      "nonce": 23,
      "data": "0x",
      "r": "0x11099ee5f8029be803915c2cd20cd12ffe4a2240462ad33c404e627db2e3b4f8",
      "s": "0x02a5d841bd9a25bc49cfc7a41fa0ea5e3287888ecc651ffccc6dda8ae4ab9551",
      "v": 28,
      "creates": null,
      "raw": "0xf86e17850d9925e94883015f9094bfdd9820a04283b289957956353b5f3c1f665ecf890222c8eb3ff6640000801ca011099ee5f8029be803915c2cd20cd12ffe4a2240462ad33c404e627db2e3b4f8a002a5d841bd9a25bc49cfc7a41fa0ea5e3287888ecc651ffccc6dda8ae4ab9551",
      "networkId": 0,
      "chainId": 0
    }
  ]
}