{
  "hash": "0x27dcb2118b57c7b414817cc1f170321350d07fa86c1a2728fe8bfeab71b1bee0",
  "parentHash": "0x55e8af358ab42b75ea2c179ace3b41d0aaa51e608908fbc96eec0f2f900fe484",
  "number": 76420,
  "timestamp": 1439420238,
  "nonce": "0xdfdc82da64f34375",
  "difficulty": 2227537721258,
  "gasLimit": {
    "_hex": "0x2fefd8"
  },
  "gasUsed": {
    "_hex": "0x1b497"
  },
  "miner": "0x8df03bD37602d97980327B58D940258dC57007B3",
  "extraData": "0x",
  "transactions": [
    {
      "hash": "0x11c30e8d6a63875b1b530f1e876278b68afaecc00f6a519674178daa1c9b5693",
      "blockHash": "0x27dcb2118b57c7b414817cc1f170321350d07fa86c1a2728fe8bfeab71b1bee0",
      "blockNumber": 76420,
      "transactionIndex": 0,
      "confirmations": null,
      "from": "0x8Be84A3adfBc51c59023B2413766E229108c35DE",
      "gasPrice": {
        "_hex": "0xd9b8fd0f1"
      },
      "gasLimit": {
        "_hex": "0x493e0"
      },
      "to": "0xD79B4C6791784184e2755B2fC1659eaaB0f80456",
      "value": {
        "_hex": "0x1bc16d674ec80000"
      },
      "nonce": 5,
      "data": "0x8d21618600000000000000000000000000000000000000000000000000000000000000e6bf7f412c5efbf5d60787426fc339fb301040a606b3843045df48d7fffb25ce53",
      "r": "0xa01381cc91c2022979a1d6426e2cd2cab32893b6f8b186bb7f910604152c4635",
      "s": "0x2e9ee0ade5b72361aa7b19b07685ed5b2460a8f136ceae5ab9b359c71beffe9e",
      "v": 27,
      "creates": null,
      "raw": "0xf8b205850d9b8fd0f1830493e094d79b4c6791784184e2755b2fc1659eaab0f80456881bc16d674ec80000b8448d21618600000000000000000000000000000000000000000000000000000000000000e6bf7f412c5efbf5d60787426fc339fb301040a606b3843045df48d7fffb25ce531ba0a01381cc91c2022979a1d6426e2cd2cab32893b6f8b186bb7f910604152c4635a02e9ee0ade5b72361aa7b19b07685ed5b2460a8f136ceae5ab9b359c71beffe9e",
      "networkId": 0,
      "chainId": 0
    }
  ]
}