{
  "hash": "0x49268bc1abb20df51c5617a601085ad1980e182dfe84703ce8783ffed40a8db6",
  "parentHash": "0x8d8dd00c621f268857c843a1969dddac01965026311c98d2c2320576d8d47d18",
  "number": 81871,
  "timestamp": 1439509391,
  "nonce": "0xb27b9a42c0dc36e7",
  "difficulty": 2410506411494,
  "gasLimit": {
    "_hex": "0x2fefd8"
  },
  "gasUsed": {
    "_hex": "0x5208"
  },
  "miner": "0x365E6b1145B179761f29a21aa93A6d4E015Ab597",
  "extraData": "0x",
  "transactions": [
    {
      "hash": "0x33e13c6b535523fbc2dac3804b4af9eb79a79bb86d12089f71a8b27711ad7e7e",
      "blockHash": "0x49268bc1abb20df51c5617a601085ad1980e182dfe84703ce8783ffed40a8db6",
      "blockNumber": 81871,
      "transactionIndex": 0,
      "confirmations": null,
      "from": "0x5adA3743144f1235d8cef97daAD6c123F20E7330",
      "gasPrice": {
        "_hex": "0xdbcca9f7d"
      },
      "gasLimit": {
        "_hex": "0x59d8"
      },
      "to": "0x63d25FB5edc318Aae1DEc4F3aBd7c645f921cff8",
      "value": {
        "_hex": "0x5f68e8131ecf80000"
      },
      "nonce": 1,
      "data": "0x",
      "r": "0x514c37fe1c91892ab075974a93d7d9953b088c4cd59a2de058a7dcbcb7ef0357",
      "s": "0x277a45d13711342443e924267ff0ba32c2ed20243263b1c12d2df0b8f905b5be",
      "v": 27,
      "creates": null,
      "raw": "0xf86d01850dbcca9f7d8259d89463d25fb5edc318aae1dec4f3abd7c645f921cff88905f68e8131ecf80000801ba0514c37fe1c91892ab075974a93d7d9953b088c4cd59a2de058a7dcbcb7ef0357a0277a45d13711342443e924267ff0ba32c2ed20243263b1c12d2df0b8f905b5be",
      "networkId": 0,
      "chainId": 0
    }
  ]
}