{
  "hash": "0x4153dc4a45c535e0c8a80d1358644010c86e1529b3942ddcd724df355066f6f9",
  "parentHash": "0x37ce6cf9fa245cbbeeef157b7e2d61d2efddbed7197fb6d41caa8417bfaa8014",
  "number": 65267,
  "timestamp": 1439234051,
  "nonce": "0x5244d3f976d7b0cb",
  "difficulty": 1942630050848,
  "gasLimit": {
    "_hex": "0x2fefd8"
  },
  "gasUsed": {
    "_hex": "0x17cd8"
  },
  "miner": "0xa50ec0D39fa913E62f1Bae7074E6F36caA71855b",
  "extraData": "0x",
  "transactions": [
    {
      "hash": "0x4123ee96136223761c566f8991102ae858da4531fbd4e635f5c1e166171edfbd",
      "blockHash": "0x4153dc4a45c535e0c8a80d1358644010c86e1529b3942ddcd724df355066f6f9",
      "blockNumber": 65267,
      "transactionIndex": 0,
      "confirmations": null,
      "from": "0x6c370F4A27246f7e7FD89b419CE96bad790B3226",
      "gasPrice": {
        "_hex": "0xba43b7400"
      },
      "gasLimit": {
        "_hex": "0x15f90"
      },
      "to": "0x793AE8C1b1a160BFc07BFB0d04F85eab1A71F4f2",
      "value": {
        "_hex": "0x0"
      },
      "nonce": 0,
      "data": "0x3ba15036",
      "r": "0x6d97729ef19e449913030c125c27c212e1d58ec4dcb0ec9bc1a48ce7fddae506",
      "s": "0x7dcd41530eec01857894b68e80506e12442b278bf43d51755fd93515f9fbb5a7",
      "v": 28,
      "creates": null,
      "raw": "0xf86980850ba43b740083015f9094793ae8c1b1a160bfc07bfb0d04f85eab1a71f4f280843ba150361ca06d97729ef19e449913030c125c27c212e1d58ec4dcb0ec9bc1a48ce7fddae506a07dcd41530eec01857894b68e80506e12442b278bf43d51755fd93515f9fbb5a7",
      "networkId": 0,
      "chainId": 0
    },
    {
      "hash": "0x8618b1ebdacecc0c91292f0b4a9ff0ca92a07f5ba147454f8e5680f4e8bf3533",
      "blockHash": "0x4153dc4a45c535e0c8a80d1358644010c86e1529b3942ddcd724df355066f6f9",
      "blockNumber": 65267,
      "transactionIndex": 1,
      "confirmations": null,
      "from": "0xf9003E8fFe80ea52Fa773A98dfaa5aE0479eAfBF",
      "gasPrice": {
        "_hex": "0xba43b7400"
      },
      "gasLimit": {
        "_hex": "0x15f90"
      },
      "to": "0x793AE8C1b1a160BFc07BFB0d04F85eab1A71F4f2",
      "value": {
        "_hex": "0x0"
      },
      "nonce": 0,
      "data": "0x3ba15036",
      "r": "0x89f1371ea1cbf7bfeeb2fc2b1f0ae3529803065c9f178eea3fd70cc8965f3e3f",
      "s": "0x2dd5d236cbb9a12130064444ea470746b722f2bf016ded7023fabf707cd1fdd7",
      "v": 27,
      "creates": null,
      "raw": "0xf86980850ba43b740083015f9094793ae8c1b1a160bfc07bfb0d04f85eab1a71f4f280843ba150361ba089f1371ea1cbf7bfeeb2fc2b1f0ae3529803065c9f178eea3fd70cc8965f3e3fa02dd5d236cbb9a12130064444ea470746b722f2bf016ded7023fabf707cd1fdd7",
      "networkId": 0,
      "chainId": 0
    }
  ]
}