{
  "hash": "0xb81cdbb63e5422cae33cf1935c9bd66e7470bfd9fb40a11430b8744bf49a51ab",
  "parentHash": "0x593f1f645ff2a9625f8f4aae32126a7ad178eda3aafbdb9e26ca4329dec92055",
  "number": 105357,
  "timestamp": 1439886253,
  "nonce": "0xfa97bd60a3c851bd",
  "difficulty": 4352659997810,
  "gasLimit": {
    "_hex": "0x2fefd8"
  },
  "gasUsed": {
    "_hex": "0x5208"
  },
  "miner": "0xe6A7a1d47ff21B6321162AEA7C6CB457D5476Bca",
  "extraData": "0x476574682f76312e302e312d38326566323666362f6c696e75782f676f312e34",
  "transactions": [
    {
      "hash": "0x50f557db21a356785bda2e87f1a31441678e85537004eadc2f84c5c265d6a06c",
      "blockHash": "0xb81cdbb63e5422cae33cf1935c9bd66e7470bfd9fb40a11430b8744bf49a51ab",
      "blockNumber": 105357,
      "transactionIndex": 0,
      "confirmations": null,
      "from": "0x120A270bbC009644e35F0bB6ab13f95b8199c4ad",
      "gasPrice": {
        "_hex": "0xd1596d7e9"
      },
      "gasLimit": {
        "_hex": "0x3d090"
      },
      "to": "0x80E03eAb4185068f85f9eC2a65c31bdE6Ed0A097",
      "value": {
        "_hex": "0x3cb71f51fc5580000"
      },
      "nonce": 765,
      "data": "0x",
      "r": "0xed2361426a2879ee947acf65e67fd1c3fc81eb55a3bdb7ffed9de775fff80dbb",
      "s": "0x032a92e6989f6f95dfa1443b735e2f1fb121806fd439d4960c187fdefb2e64f8",
      "v": 27,
      "creates": null,
      "raw": "0xf8708202fd850d1596d7e98303d0909480e03eab4185068f85f9ec2a65c31bde6ed0a0978903cb71f51fc5580000801ba0ed2361426a2879ee947acf65e67fd1c3fc81eb55a3bdb7ffed9de775fff80dbba0032a92e6989f6f95dfa1443b735e2f1fb121806fd439d4960c187fdefb2e64f8",
      "networkId": 0,
      "chainId": 0
    }
  ]
}