{
  "hash": "0x0ad20cda322fe8259d7ab3f15e6d5cfb8e570dc4875eab84279a398aee02e22b",
  "parentHash": "0xe8970e6818a6f8c51125257a0a8c7f6de8befe14829bc2dddd544c60e3a5504b",
  "number": 53364,
  "timestamp": 1439036478,
  "nonce": "0x404d2a5853c26025",
  "difficulty": 1588555265084,
  "gasLimit": {
    "_hex": "0x25d341"
  },
  "gasUsed": {
    "_hex": "0x546c"
  },
  "miner": "0x0037ce3d4B7f8729C8607D8D0248252Be68202c0",
  "extraData": "0x476574682f76312e302e312f77696e646f77732f676f312e342e32",
  "transactions": [
    {
      "hash": "0x294ff7ac4483387364bad918792c1393569449311a2c5aedc48720efc00291fc",
      "blockHash": "0x0ad20cda322fe8259d7ab3f15e6d5cfb8e570dc4875eab84279a398aee02e22b",
      "blockNumber": 53364,
      "transactionIndex": 0,
      "confirmations": null,
      "from": "0xc420388fBEE84aD656dD68cdC1fBaa9392780b34",
      "gasPrice": {
        "_hex": "0x110c8f7d8de"
      },
      "gasLimit": {
        "_hex": "0xc350"
      },
      "to": "0x2910543Af39abA0Cd09dBb2D50200b3E800A63D2",
      "value": {
        "_hex": "0x821ab0d4414980000"
      },
      "nonce": 0,
      "data": "0x454e45485031584747",
      "r": "0x33bd0a9e3af12ede1712f6dac69bd58767d4b7a105503de4ead98d726ec3ad06",
      "s": "0x52663961790fb3c43e4e0ec282d3b47e4fbb812c8e35e18f2b6953c9b01d75ac",
      "v": 27,
      "creates": null,
      "raw": "0xf87780860110c8f7d8de82c350942910543af39aba0cd09dbb2d50200b3e800a63d2890821ab0d441498000089454e454850315847471ba033bd0a9e3af12ede1712f6dac69bd58767d4b7a105503de4ead98d726ec3ad06a052663961790fb3c43e4e0ec282d3b47e4fbb812c8e35e18f2b6953c9b01d75ac",
      "networkId": 0,
      "chainId": 0
    }
  ]
}