{
  "hash": "0x5b43e32bbe482520976409455fdc3c38c1849f1566ab35a629004373c4715a01",
  "parentHash": "0xc5b99f771c908670a57039a4155cc0e4882cc5c98bc2f14223c62edbc933f273",
  "number": 108001,
  "timestamp": 1439932402,
  "nonce": "0xff6515f4fe3e2392",
  "difficulty": 4355539682598,
  "gasLimit": {
    "_hex": "0x2fefd8"
  },
  "gasUsed": {
    "_hex": "0xa410"
  },
  "miner": "0xe6A7a1d47ff21B6321162AEA7C6CB457D5476Bca",
  "extraData": "0x476574682f76312e302e312d38326566323666362f6c696e75782f676f312e34",
  "transactions": [
    {
      "hash": "0x3f1a8760bbc1a5f67c16c9f17a639bd1b6cdd00f6b9879ab17d401cfcd61e806",
      "blockHash": "0x5b43e32bbe482520976409455fdc3c38c1849f1566ab35a629004373c4715a01",
      "blockNumber": 108001,
      "transactionIndex": 0,
      "confirmations": null,
      "from": "0x2910543Af39abA0Cd09dBb2D50200b3E800A63D2",
      "gasPrice": {
        "_hex": "0xdc8b584b0"
      },
      "gasLimit": {
        "_hex": "0x5208"
      },
      "to": "0xEdD03B3afA58aaE8C5732fF58e26099bc5C10659",
      "value": {
        "_hex": "0xbdbc301cbb534f8000"
      },
      "nonce": 1061,
      "data": "0x",
      "r": "0x208bf8993ff70d8aacdd4498dd514a90b05ed9bef17996d82176851b05bff2fe",
      "s": "0x53c836315caab7a95e616cfa72d1d88136d5b351081dad91fb6058798f1a9be8",
      "v": 28,
      "creates": null,
      "raw": "0xf86f820425850dc8b584b082520894edd03b3afa58aae8c5732ff58e26099bc5c1065989bdbc301cbb534f8000801ca0208bf8993ff70d8aacdd4498dd514a90b05ed9bef17996d82176851b05bff2fea053c836315caab7a95e616cfa72d1d88136d5b351081dad91fb6058798f1a9be8",
      "networkId": 0,
      "chainId": 0
    },
    {
      "hash": "0x1161b2bba77e130005f6595894135cc5e73014a60e9ad13e43374a1681560362",
      "blockHash": "0x5b43e32bbe482520976409455fdc3c38c1849f1566ab35a629004373c4715a01",
      "blockNumber": 108001,
      "transactionIndex": 1,
      "confirmations": null,
      "from": "0xEFAa23397C85dF68fF1708b489856B006B30EEd2",
      "gasPrice": {
        "_hex": "0xd47b34bc8"
      },
      "gasLimit": {
        "_hex": "0x5208"
      },
      "to": "0x32Be343B94f860124dC4fEe278FDCBD38C102D88",
      "value": {
        "_hex": "0xb925a05571fc800"
      },
      "nonce": 0,
      "data": "0x",
      "r": "0x3cc9830687fc4e1e02bf65f60841d805fb14842cd536fb43a12304b6da322e0d",
      "s": "0x124bf41e1886f222b6316f03b8170257d0c701cb3a51d699801cf77726e73e7f",
      "v": 27,
      "creates": null,
      "raw": "0xf86c80850d47b34bc88252089432be343b94f860124dc4fee278fdcbd38c102d88880b925a05571fc800801ba03cc9830687fc4e1e02bf65f60841d805fb14842cd536fb43a12304b6da322e0da0124bf41e1886f222b6316f03b8170257d0c701cb3a51d699801cf77726e73e7f",
      "networkId": 0,
      "chainId": 0
    }
  ]
}