{
  "hash": "0x8402e6e9c4b0f592707376ba66c08214c996f5bda36345e3c3299a60903397cd",
  "parentHash": "0x804f77fbcec4f58aee587d53b2f5a0e426f030f5d2b665c3da182c0a165a557d",
  "number": 51455,
  "timestamp": 1439005137,
  "nonce": "0x30ff005769eba7b3",
  "difficulty": 1566576050148,
  "gasLimit": {
    "_hex": "0xb3606"
  },
  "gasUsed": {
    "_hex": "0x10ab1"
  },
  "miner": "0xe6A7a1d47ff21B6321162AEA7C6CB457D5476Bca",
  "extraData": "0x657468706f6f6c2e6f7267",
  "transactions": [
    {
      "hash": "0xfe199f528b84ab7bad465503d12ec349f69320b075a073522b9e5c3eb0e7009e",
      "blockHash": "0x8402e6e9c4b0f592707376ba66c08214c996f5bda36345e3c3299a60903397cd",
      "blockNumber": 51455,
      "transactionIndex": 0,
      "confirmations": null,
      "from": "0x2905726Ed11131A984ce9C0119cB32DBC99dE90B",
      "gasPrice": {
        "_hex": "0x1161ca846aa"
      },
      "gasLimit": {
        "_hex": "0x186a0"
      },
      "to": "0xd94BAdbEC21695B7a36ABCb979EFad0108319d18",
      "value": {
        "_hex": "0x2d79883d2000"
      },
      "nonce": 17,
      "data": "0xa69beaba323030313a2041205370616365204f6479737365790000000000000000000000",
      "r": "0xeee26a4236bf55e8e47ebc9e965c3294a0c80c915ccdbecc753d9f9c0aa7e1ed",
      "s": "0x4c191f0c625e20e5933aab3af0230cfae9aafa1d46a6e40b4cf52ddac06be6c1",
      "v": 28,
      "creates": null,
      "raw": "0xf890118601161ca846aa830186a094d94badbec21695b7a36abcb979efad0108319d18862d79883d2000a4a69beaba323030313a2041205370616365204f64797373657900000000000000000000001ca0eee26a4236bf55e8e47ebc9e965c3294a0c80c915ccdbecc753d9f9c0aa7e1eda04c191f0c625e20e5933aab3af0230cfae9aafa1d46a6e40b4cf52ddac06be6c1",
      "networkId": 0,
      "chainId": 0
    }
  ]
}