{
  "hash": "0x5c2584943690940d5fc34bcb043a6d1fe4d4aa781619aec046151a5d37707ee6",
  "parentHash": "0x2398a4fda65ed50fc4df2a231dda4e72d17a7fee7a059bfaacfe27addedae783",
  "number": 101251,
  "timestamp": 1439819896,
  "nonce": "0x4af9737e8f1a0f91",
  "difficulty": 3813182395302,
  "gasLimit": {
    "_hex": "0x2fefd8"
  },
  "gasUsed": {
    "_hex": "0x19a28"
  },
  "miner": "0xe6A7a1d47ff21B6321162AEA7C6CB457D5476Bca",
  "extraData": "0x476574682f76312e302e312d38326566323666362f6c696e75782f676f312e34",
  "transactions": [
    {
      "hash": "0x090b06047d6c24deaae46b0b2acd5670b39fbfe4032e7a9530a0d6f95194a4f9",
      "blockHash": "0x5c2584943690940d5fc34bcb043a6d1fe4d4aa781619aec046151a5d37707ee6",
      "blockNumber": 101251,
      "transactionIndex": 0,
      "confirmations": null,
      "from": "0x5D9067970755043fF5cE7FA2cd21C12F3646Bc55",
      "gasPrice": {
        "_hex": "0xd12b237d7"
      },
      "gasLimit": {
        "_hex": "0x5208"
      },
      "to": "0x32Be343B94f860124dC4fEe278FDCBD38C102D88",
      "value": {
        "_hex": "0x7ae6b140ffe6d400"
      },
      "nonce": 4,
      "data": "0x",
      "r": "0x25662da88e28847b7b3a1482ceab7319ad427e117325e6eb42899adcf42c0cfd",
      "s": "0x102cbdf4d0d7abe2c26598b094d02f55e5533260cd881e325f8c331b8d29804a",
      "v": 28,
      "creates": null,
      "raw": "0xf86c04850d12b237d78252089432be343b94f860124dc4fee278fdcbd38c102d88887ae6b140ffe6d400801ca025662da88e28847b7b3a1482ceab7319ad427e117325e6eb42899adcf42c0cfda0102cbdf4d0d7abe2c26598b094d02f55e5533260cd881e325f8c331b8d29804a",
      "networkId": 0,
      "chainId": 0
    },
    {
      "hash": "0x4dd387c0c62272eb926011f36248f6e6fbba612ce4a2a374ca6ccd8c41c266dd",
      "blockHash": "0x5c2584943690940d5fc34bcb043a6d1fe4d4aa781619aec046151a5d37707ee6",
      "blockNumber": 101251,
      "transactionIndex": 1,
      "confirmations": null,
      "from": "0xf357482c5A92C7B2Cee6a157034362b7d7d88c5A",
      "gasPrice": {
        "_hex": "0xd12b237d7"
      },
      "gasLimit": {
        "_hex": "0x5208"
      },
      "to": "0x32Be343B94f860124dC4fEe278FDCBD38C102D88",
      "value": {
        "_hex": "0x21316a0115945c00"
      },
      "nonce": 4,
      "data": "0x",
      "r": "0xd223825bc42fd556a82468ed030aeb5033d16c89073620601da1e502f7663a70",
      "s": "0x501f19e81f3020039e248002f56303eca98d0d7f4ba279bdc24702e21bc6dec5",
      "v": 27,
      "creates": null,
      "raw": "0xf86c04850d12b237d78252089432be343b94f860124dc4fee278fdcbd38c102d888821316a0115945c00801ba0d223825bc42fd556a82468ed030aeb5033d16c89073620601da1e502f7663a70a0501f19e81f3020039e248002f56303eca98d0d7f4ba279bdc24702e21bc6dec5",
      "networkId": 0,
      "chainId": 0
    },
    {
      "hash": "0x4587622f550da135903a52daa5bf6b97dd45761558186d45c3214eeeb3157b67",
      "blockHash": "0x5c2584943690940d5fc34bcb043a6d1fe4d4aa781619aec046151a5d37707ee6",
      "blockNumber": 101251,
      "transactionIndex": 2,
      "confirmations": null,
      "from": "0x32Be343B94f860124dC4fEe278FDCBD38C102D88",
      "gasPrice": {
        "_hex": "0xd12b237d7"
      },
      "gasLimit": {
        "_hex": "0x5208"
      },
      "to": "0x1261A4Ab33Df25bdf1Dc8922c51266a9b4bE9179",
      "value": {
        "_hex": "0x806b1b69a9f90000"
      },
      "nonce": 1074,
      "data": "0x",
      "r": "0x0fc39633b7edc9a2e127c20ccd8e8883700a72c1d4baefd93531049dcb5cec3d",
      "s": "0x0d503dec83663af4d2845889cc9c55d5c360a2346b6cad50de991db77711fde1",
      "v": 27,
      "creates": null,
      "raw": "0xf86e820432850d12b237d7825208941261a4ab33df25bdf1dc8922c51266a9b4be917988806b1b69a9f90000801ba00fc39633b7edc9a2e127c20ccd8e8883700a72c1d4baefd93531049dcb5cec3da00d503dec83663af4d2845889cc9c55d5c360a2346b6cad50de991db77711fde1",
      "networkId": 0,
      "chainId": 0
    },
    {
      "hash": "0xe1be183ac9537a14448788272f012e05972e91ce20a982cd7882705bc6c6008c",
      "blockHash": "0x5c2584943690940d5fc34bcb043a6d1fe4d4aa781619aec046151a5d37707ee6",
      "blockNumber": 101251,
      "transactionIndex": 3,
      "confirmations": null,
      "from": "0x7884D470204862a0d1A21122F41ee77430396Ee5",
      "gasPrice": {
        "_hex": "0xd04e0eefe"
      },
      "gasLimit": {
        "_hex": "0x15f90"
      },
      "to": "0xD50a65F5B8419aEA9856699A632E4722289f583e",
      "value": {
        "_hex": "0x166d2f702508000"
      },
      "nonce": 85,
      "data": "0x",
      "r": "0x30e7c11515761ba97a544865136e621786932fdebaab94981088abcd0b8b016f",
      "s": "0x034378cbe08aa750e76f53bf8c73361a3b012f12a6134adc87ee3b8c0f07baf5",
      "v": 27,
      "creates": null,
      "raw": "0xf86d55850d04e0eefe83015f9094d50a65f5b8419aea9856699a632e4722289f583e880166d2f702508000801ba030e7c11515761ba97a544865136e621786932fdebaab94981088abcd0b8b016fa0034378cbe08aa750e76f53bf8c73361a3b012f12a6134adc87ee3b8c0f07baf5",
      "networkId": 0,
      "chainId": 0
    },
    {
      "hash": "0xd098ab9de5d90bde41d3a41e81738a4268364d40c2fe560abac446ffb740ec86",
      "blockHash": "0x5c2584943690940d5fc34bcb043a6d1fe4d4aa781619aec046151a5d37707ee6",
      "blockNumber": 101251,
      "transactionIndex": 4,
      "confirmations": null,
      "from": "0x9D49F602b0fdb924Bd63DDE2Bd0907E4A07c63a7",
      "gasPrice": {
        "_hex": "0xcbe7eecf8"
      },
      "gasLimit": {
        "_hex": "0x15f90"
      },
      "to": "0xC6c676946C54B5e7c31A07a079166C488Bf06dd7",
      "value": {
        "_hex": "0x1043561a8829300000"
      },
      "nonce": 4,
      "data": "0x",
      "r": "0x39d4763e53b1433b97d9f5a3d4f7851997d4b6abece08d84aaf1ebdd2e0ca59b",
      "s": "0x7a403177d08b43e78cbdfb025957faa4a10f5e217f60d20dc0204972108c59f4",
      "v": 28,
      "creates": null,
      "raw": "0xf86e04850cbe7eecf883015f9094c6c676946c54b5e7c31a07a079166c488bf06dd7891043561a8829300000801ca039d4763e53b1433b97d9f5a3d4f7851997d4b6abece08d84aaf1ebdd2e0ca59ba07a403177d08b43e78cbdfb025957faa4a10f5e217f60d20dc0204972108c59f4",
      "networkId": 0,
      "chainId": 0
    }
  ]
}