{
  "hash": "0x06bb53b9bbefc44f1b8a8460c27fd863a9049a9dcbbc8b3c6dec4b77ab1490aa",
  "parentHash": "0x48780e3bfe61f0e368a8b9d37d27b84a34c54a6b455b78af3bd9a7d5f16ca63a",
  "number": 96877,
  "timestamp": 1439747281,
  "nonce": "0xf41f1fd0b72170c3",
  "difficulty": 3734078842445,
  "gasLimit": {
    "_hex": "0x2fefd8"
  },
  "gasUsed": {
    "_hex": "0x5208"
  },
  "miner": "0xe6A7a1d47ff21B6321162AEA7C6CB457D5476Bca",
  "extraData": "0x476574682f76312e302e312d38326566323666362f6c696e75782f676f312e34",
  "transactions": [
    {
      "hash": "0x961e9bb99b2405e645a319fda308bf2512c16d87401f740586f328390de1751a",
      "blockHash": "0x06bb53b9bbefc44f1b8a8460c27fd863a9049a9dcbbc8b3c6dec4b77ab1490aa",
      "blockNumber": 96877,
      "transactionIndex": 0,
      "confirmations": null,
      "from": "0x2910543Af39abA0Cd09dBb2D50200b3E800A63D2",
      "gasPrice": {
        "_hex": "0xcd987acc2"
      },
      "gasLimit": {
        "_hex": "0x5208"
      },
      "to": "0x4319859681be12b36f4420F4A26FD67429306cD1",
      "value": {
        "_hex": "0x9f5d08f051f7cb4000"
      },
      "nonce": 915,
      "data": "0x",
      "r": "0xa8013482025ac97a130596821c7d2d78638a6f565406b7d4b19ea961c7816286",
      "s": "0x273bc14d628587baf79502aebdf1eb42f3959349a4f651590edbc26e7d418bae",
      "v": 27,
      "creates": null,
      "raw": "0xf86f820393850cd987acc2825208944319859681be12b36f4420f4a26fd67429306cd1899f5d08f051f7cb4000801ba0a8013482025ac97a130596821c7d2d78638a6f565406b7d4b19ea961c7816286a0273bc14d628587baf79502aebdf1eb42f3959349a4f651590edbc26e7d418bae",
      "networkId": 0,
      "chainId": 0
    }
  ]
}