{
  "hash": "0x761d0ab904faa8eae9ef182778143b07e689ddeb1358e2bdf62489e207d461b9",
  "parentHash": "0xffe6bd73a4acb348d51dd3681ee4ec8f799d91d74fcc529593e8115a98d573c0",
  "number": 96207,
  "timestamp": 1439736663,
  "nonce": "0x831949520a777411",
  "difficulty": 3669307321363,
  "gasLimit": {
    "_hex": "0x2fefd8"
  },
  "gasUsed": {
    "_hex": "0x546c"
  },
  "miner": "0xf927a40C8B7F6E07c5af7FA2155B4864a4112B13",
  "extraData": "0x",
  "transactions": [
    {
      "hash": "0x8e5feb399c1cad89d57d67225a726382245a9de5adc43d96e0536c3bd1f849a2",
      "blockHash": "0x761d0ab904faa8eae9ef182778143b07e689ddeb1358e2bdf62489e207d461b9",
      "blockNumber": 96207,
      "transactionIndex": 0,
      "confirmations": null,
      "from": "0x0AB366E6e7D5AbbcE6B44A438d69a1caBb90d133",
      "gasPrice": {
        "_hex": "0x110c8f7d8de"
      },
      "gasLimit": {
        "_hex": "0xc350"
      },
      "to": "0x2910543Af39abA0Cd09dBb2D50200b3E800A63D2",
      "value": {
        "_hex": "0xc7d713b49da0000"
      },
      "nonce": 1,
      "data": "0x454e483054545a4847",
      "r": "0xbc548a92f1c35a494edba565ad6afc213816fdcee5c68ce54bdf79548bc0a8fe",
      "s": "0x5073a68aade2ffcec53430f0aef3a15e073c8926854f6a488f413c6afcfe3dea",
      "v": 28,
      "creates": null,
      "raw": "0xf87601860110c8f7d8de82c350942910543af39aba0cd09dbb2d50200b3e800a63d2880c7d713b49da000089454e483054545a48471ca0bc548a92f1c35a494edba565ad6afc213816fdcee5c68ce54bdf79548bc0a8fea05073a68aade2ffcec53430f0aef3a15e073c8926854f6a488f413c6afcfe3dea",
      "networkId": 0,
      "chainId": 0
    }
  ]
}