{
  "hash": "0x1a47497a4e9094ff800fd6d540d714cc93cb1e416d0d9d46cb54fcd1e9f80f7f",
  "parentHash": "0x42749567eb3e6a2f0e06d8b6bf3a8205283ad3ea917af31bf1314fd88f9c376b",
  "number": 70412,
  "timestamp": 1439319432,
  "nonce": "0x272a736c31d1cf67",
  "difficulty": 2141644428363,
  "gasLimit": {
    "_hex": "0x2fefd8"
  },
  "gasUsed": {
    "_hex": "0x5208"
  },
  "miner": "0xe6A7a1d47ff21B6321162AEA7C6CB457D5476Bca",
  "extraData": "0x476574682f76312e302e312d38326566323666362f6c696e75782f676f312e34",
  "transactions": [
    {
      "hash": "0x25636c09d471c41d13971b12ee736779b07ead479f70ad1a85b216c2b29e89e5",
      "blockHash": "0x1a47497a4e9094ff800fd6d540d714cc93cb1e416d0d9d46cb54fcd1e9f80f7f",
      "blockNumber": 70412,
      "transactionIndex": 0,
      "confirmations": null,
      "from": "0xc97b6E47df229442524F8f210926557900f81574",
      "gasPrice": {
        "_hex": "0xd73eff19a"
      },
      "gasLimit": {
        "_hex": "0x5208"
      },
      "to": "0x32Be343B94f860124dC4fEe278FDCBD38C102D88",
      "value": {
        "_hex": "0x75f1b6d0dce0a800"
      },
      "nonce": 9,
      "data": "0x",
      "r": "0x8054134ed07f265212f80298afca4a0c8ae1736091e56a0e1cdf0baf60b7c1f6",
      "s": "0x1e184945a21bea7934b1b4e86b7787205d73bf796fef703c59540863aaf68a6c",
      "v": 28,
      "creates": null,
      "raw": "0xf86c09850d73eff19a8252089432be343b94f860124dc4fee278fdcbd38c102d888875f1b6d0dce0a800801ca08054134ed07f265212f80298afca4a0c8ae1736091e56a0e1cdf0baf60b7c1f6a01e184945a21bea7934b1b4e86b7787205d73bf796fef703c59540863aaf68a6c",
      "networkId": 0,
      "chainId": 0
    }
  ]
}