{
  "hash": "0x4920532f36b3a021833e3d6553bee6c906f0c433bc09829f29d8111ae2f63d6e",
  "parentHash": "0x7de3739b99dda51271a7cb7d7d7893d85264de89cb0027393f5438023064aa3c",
  "number": 63696,
  "timestamp": 1439208648,
  "nonce": "0xf97a8aa3bbca5f80",
  "difficulty": 1844086312428,
  "gasLimit": {
    "_hex": "0x2fefd8"
  },
  "gasUsed": {
    "_hex": "0x5208"
  },
  "miner": "0xf927a40C8B7F6E07c5af7FA2155B4864a4112B13",
  "extraData": "0x476574682f76312e302e312f6c696e75782f676f312e342e32",
  "transactions": [
    {
      "hash": "0xee4eafe3cbc5fb2b517241d0704cb3e811b62a05ce215360b47affb5abbe646c",
      "blockHash": "0x4920532f36b3a021833e3d6553bee6c906f0c433bc09829f29d8111ae2f63d6e",
      "blockNumber": 63696,
      "transactionIndex": 0,
      "confirmations": null,
      "from": "0xE4324912D64ea3AEF76B3C2ff9dF82c7E13ae991",
      "gasPrice": {
        "_hex": "0xe130313f4"
      },
      "gasLimit": {
        "_hex": "0x15f90"
      },
      "to": "0x6D3e66F7E6e2d4aBc5c80E95FF9325ff3F89FfEe",
      "value": {
        "_hex": "0x579a814e10a740000"
      },
      "nonce": 5,
      "data": "0x",
      "r": "0x356d8b1728d796db383944250a7321a64c05160b8348ba7bd387c4a4e47736d1",
      "s": "0x61e798118d45a57d1fb727528e7c50893a784b630702ea9979d24cd6932c3437",
      "v": 28,
      "creates": null,
      "raw": "0xf86e05850e130313f483015f90946d3e66f7e6e2d4abc5c80e95ff9325ff3f89ffee890579a814e10a740000801ca0356d8b1728d796db383944250a7321a64c05160b8348ba7bd387c4a4e47736d1a061e798118d45a57d1fb727528e7c50893a784b630702ea9979d24cd6932c3437",
      "networkId": 0,
      "chainId": 0
    }
  ]
}