{
  "hash": "0xb62ac5c53d0b3be5e279dac26407c7589e5c57ec6699a22c2c2077af2ca4ab36",
  "parentHash": "0xec993f97571ddbcf590517de6af0e769c6756e6d064150a672f39b172b75dd5b",
  "number": 96124,
  "timestamp": 1439735345,
  "nonce": "0x4c38da5f24c588bd",
  "difficulty": 3642566729153,
  "gasLimit": {
    "_hex": "0x2fefd8"
  },
  "gasUsed": {
    "_hex": "0xa410"
  },
  "miner": "0xaEAf103356C2Ee943F748E8655659D29881323E1",
  "extraData": "0x476574682f76312e302e312f77696e646f77732f676f312e342e32",
  "transactions": [
    {
      "hash": "0xd924c23d14105aea51f3497de12a73b3300072473c34c58344e31004898bbaa8",
      "blockHash": "0xb62ac5c53d0b3be5e279dac26407c7589e5c57ec6699a22c2c2077af2ca4ab36",
      "blockNumber": 96124,
      "transactionIndex": 0,
      "confirmations": null,
      "from": "0x120A270bbC009644e35F0bB6ab13f95b8199c4ad",
      "gasPrice": {
        "_hex": "0xda0f50cd5"
      },
      "gasLimit": {
        "_hex": "0x3d090"
      },
      "to": "0xA871898ceCFC02633Aa4fb0e0590100789884bB8",
      "value": {
        "_hex": "0x8ac7230489e80000"
      },
      "nonce": 608,
      "data": "0x",
      "r": "0xf5b7e9da692051e597e4287b9a3993ae30c9a7b54b90e3398a2a754a5f715040",
      "s": "0x4d5c8eda1ff9d7a0b34a621b5130eaba9f9afa93b7b13152704b0ef0ca95f1f9",
      "v": 28,
      "creates": null,
      "raw": "0xf86f820260850da0f50cd58303d09094a871898cecfc02633aa4fb0e0590100789884bb8888ac7230489e80000801ca0f5b7e9da692051e597e4287b9a3993ae30c9a7b54b90e3398a2a754a5f715040a04d5c8eda1ff9d7a0b34a621b5130eaba9f9afa93b7b13152704b0ef0ca95f1f9",
      "networkId": 0,
      "chainId": 0
    },
    {
      "hash": "0x494daa14c32f31540428cc75258e6ddf5c0c91b49848582c94071f3f478cd59f",
      "blockHash": "0xb62ac5c53d0b3be5e279dac26407c7589e5c57ec6699a22c2c2077af2ca4ab36",
      "blockNumber": 96124,
      "transactionIndex": 1,
      "confirmations": null,
      "from": "0x007f7f58D3eb5b7510A301eCC749FC1fCDDBE14D",
      "gasPrice": {
        "_hex": "0xcc8ddf695"
      },
      "gasLimit": {
        "_hex": "0x15f90"
      },
      "to": "0xb1abce2918E21ddb93AA452731a12672A3d9F75a",
      "value": {
        "_hex": "0x4563918244f40000"
      },
      "nonce": 71,
      "data": "0x",
      "r": "0x00a55194a5f67e2bad36c2b17e59307dd33bc5f173ccefc0c2aa555d0b2543d5",
      "s": "0x3bd1d81978ed1f09f54e9edac1ac3ef8038858bdfc1a9c206cc21bf800aa8b00",
      "v": 28,
      "creates": null,
      "raw": "0xf86c47850cc8ddf69583015f9094b1abce2918e21ddb93aa452731a12672a3d9f75a884563918244f40000801c9fa55194a5f67e2bad36c2b17e59307dd33bc5f173ccefc0c2aa555d0b2543d5a03bd1d81978ed1f09f54e9edac1ac3ef8038858bdfc1a9c206cc21bf800aa8b00",
      "networkId": 0,
      "chainId": 0
    }
  ]
}