{
  "hash": "0x336ea1cd64335f552df34dd557b663aa3738d97e4c5a62dfef10c61294ddfeee",
  "parentHash": "0x4ef8cb3d536bec5d40909c64841c5975f6af15676246529674c5b9135ed73835",
  "number": 68258,
  "timestamp": 1439285038,
  "nonce": "0xf546d13447129ba0",
  "difficulty": 1987018783674,
  "gasLimit": {
    "_hex": "0x2fefd5"
  },
  "gasUsed": {
    "_hex": "0x5208"
  },
  "miner": "0x36F60f6fAe70855D6a506c3cbDfa8B1Cc4d77c35",
  "extraData": "0x",
  "transactions": [
    {
      "hash": "0xc6c7c771a9a9e1126d8d58f2999eaa9a35f4fae6c3dfc8065013d286ece63bab",
      "blockHash": "0x336ea1cd64335f552df34dd557b663aa3738d97e4c5a62dfef10c61294ddfeee",
      "blockNumber": 68258,
      "transactionIndex": 0,
      "confirmations": null,
      "from": "0x6747f922385c9a6F9cfDf095F34345257DD597bE",
      "gasPrice": {
        "_hex": "0xba43b7400"
      },
      "gasLimit": {
        "_hex": "0x5208"
      },
      "to": "0xE97B540e0CF7783F4d91119b8819202dd51265cb",
      "value": {
        "_hex": "0x1fcbfa42bd6000"
      },
      "nonce": 39,
      "data": "0x",
      "r": "0x0626a801c013854664e58c77e1303342d7d3ee83515a16e43cf4cdc0b88b3a14",
      "s": "0x14b840d363f3ab17d8364bb51dbed48325ace930c891d1a6ba5a351abacd218e",
      "v": 28,
      "creates": null,
      "raw": "0xf86b27850ba43b740082520894e97b540e0cf7783f4d91119b8819202dd51265cb871fcbfa42bd6000801ca00626a801c013854664e58c77e1303342d7d3ee83515a16e43cf4cdc0b88b3a14a014b840d363f3ab17d8364bb51dbed48325ace930c891d1a6ba5a351abacd218e",
      "networkId": 0,
      "chainId": 0
    }
  ]
}