{
  "hash": "0x52df535d6b26250e3476eb58e3d5636b467972d75f2ffdad3cf83f6e60c34b79",
  "parentHash": "0x046dd670a7362a3f39802db27f76a34fd1a62321958d153975cb40f35bab6b9b",
  "number": 105318,
  "timestamp": 1439885522,
  "nonce": "0x9dc95c3967fb6571",
  "difficulty": 4354806085360,
  "gasLimit": {
    "_hex": "0x2fefd8"
  },
  "gasUsed": {
    "_hex": "0x5c490"
  },
  "miner": "0x8B454d830feF179e66206840F8F3D1d83bC32b17",
  "extraData": "0x476574682f76312e302e312f77696e646f77732f676f312e342e32",
  "transactions": [
    {
      "hash": "0xbe20bbfd57f6937757bbda47184efbc4d78598f28dc026fe79f4382f8df4d6f0",
      "blockHash": "0x52df535d6b26250e3476eb58e3d5636b467972d75f2ffdad3cf83f6e60c34b79",
      "blockNumber": 105318,
      "transactionIndex": 0,
      "confirmations": null,
      "from": "0x42e16B3732ae6f3e38AeE7546f36149C9eCB8F26",
      "gasPrice": {
        "_hex": "0xe059410a1"
      },
      "gasLimit": {
        "_hex": "0x5208"
      },
      "to": "0x32Be343B94f860124dC4fEe278FDCBD38C102D88",
      "value": {
        "_hex": "0x17b0381defb15000"
      },
      "nonce": 7,
      "data": "0x",
      "r": "0xe7e7e56f1325a776ad6c02cbaff5063795eb4ddb6bd1945b1e28abdce1f112d8",
      "s": "0x150de34b2264b4c30da6a683767ee0b50d0cbfd73d723d29783bac135aeb3d05",
      "v": 27,
      "creates": null,
      "raw": "0xf86c07850e059410a18252089432be343b94f860124dc4fee278fdcbd38c102d888817b0381defb15000801ba0e7e7e56f1325a776ad6c02cbaff5063795eb4ddb6bd1945b1e28abdce1f112d8a0150de34b2264b4c30da6a683767ee0b50d0cbfd73d723d29783bac135aeb3d05",
      "networkId": 0,
      "chainId": 0
    },
    {
      "hash": "0x07166a15e1939ad896f764e586e10b40fb9d8798fff2cae70536b8d074f54214",
      "blockHash": "0x52df535d6b26250e3476eb58e3d5636b467972d75f2ffdad3cf83f6e60c34b79",
      "blockNumber": 105318,
      "transactionIndex": 1,
      "confirmations": null,
      "from": "0xe6A7a1d47ff21B6321162AEA7C6CB457D5476Bca",
      "gasPrice": {
        "_hex": "0xd97222960"
      },
      "gasLimit": {
        "_hex": "0x55f0"
      },
      "to": "0x34BDAF0a5ed72734a4c4c6CE6Cc8132EC81fb2a8",
      "value": {
        "_hex": "0x3ad15008cbf2ede4"
      },
      "nonce": 3740,
      "data": "0x",
      "r": "0x64411077d46c2a73a06a4e3aa79d6d21545d8d831b1620fa08caa1771895e2ed",
      "s": "0x1a67e7e8a0598d8f3701eddfe1c764e57209f867987d461d81eac55c1fe94d2a",
      "v": 28,
      "creates": null,
      "raw": "0xf86e820e9c850d972229608255f09434bdaf0a5ed72734a4c4c6ce6cc8132ec81fb2a8883ad15008cbf2ede4801ca064411077d46c2a73a06a4e3aa79d6d21545d8d831b1620fa08caa1771895e2eda01a67e7e8a0598d8f3701eddfe1c764e57209f867987d461d81eac55c1fe94d2a",
      "networkId": 0,
      "chainId": 0
    },
    {
      "hash": "0x5e444abfbb4ab52b9848fb9a2cb92369421c13ea7b9e38d76dab755da963f5cf",
      "blockHash": "0x52df535d6b26250e3476eb58e3d5636b467972d75f2ffdad3cf83f6e60c34b79",
      "blockNumber": 105318,
      "transactionIndex": 2,
      "confirmations": null,
      "from": "0xe6A7a1d47ff21B6321162AEA7C6CB457D5476Bca",
      "gasPrice": {
        "_hex": "0xd97222960"
      },
      "gasLimit": {
        "_hex": "0x55f0"
      },
      "to": "0xA49DF9791572337669A961b88015aFdE5Ed1D534",
      "value": {
        "_hex": "0x3b22db36f4c54b30"
      },
      "nonce": 3741,
      "data": "0x",
      "r": "0x645cc0e9aa1d7e2df0a573cbe10c119b859f25ec9595c3e654d0ee507e2a2a09",
      "s": "0x39fa208f757e2fd9a68e82a4b41c4719885eb230a6151211c605429f2dde5a9e",
      "v": 27,
      "creates": null,
      "raw": "0xf86e820e9d850d972229608255f094a49df9791572337669a961b88015afde5ed1d534883b22db36f4c54b30801ba0645cc0e9aa1d7e2df0a573cbe10c119b859f25ec9595c3e654d0ee507e2a2a09a039fa208f757e2fd9a68e82a4b41c4719885eb230a6151211c605429f2dde5a9e",
      "networkId": 0,
      "chainId": 0
    },
    {
      "hash": "0x75a947d82a78fff13a6440de8adfceec947d93c8cbccb588c63d189dd0bf71e3",
      "blockHash": "0x52df535d6b26250e3476eb58e3d5636b467972d75f2ffdad3cf83f6e60c34b79",
      "blockNumber": 105318,
      "transactionIndex": 3,
      "confirmations": null,
      "from": "0xe6A7a1d47ff21B6321162AEA7C6CB457D5476Bca",
      "gasPrice": {
        "_hex": "0xd97222960"
      },
      "gasLimit": {
        "_hex": "0x55f0"
      },
      "to": "0xdF8b20CeD9C6Ed58a7219519c1d936fC3b46223A",
      "value": {
        "_hex": "0x3bcc5bebb81eb380"
      },
      "nonce": 3742,
      "data": "0x",
      "r": "0xc2c14de5bbb10dce3ad508f0895599c908f86a225e7b070d2fe8ec5dc457f9e1",
      "s": "0x306bf9d75becdd705f34ff631f1650efebbcfd1c7ff98eb55f42334cf1023d05",
      "v": 28,
      "creates": null,
      "raw": "0xf86e820e9e850d972229608255f094df8b20ced9c6ed58a7219519c1d936fc3b46223a883bcc5bebb81eb380801ca0c2c14de5bbb10dce3ad508f0895599c908f86a225e7b070d2fe8ec5dc457f9e1a0306bf9d75becdd705f34ff631f1650efebbcfd1c7ff98eb55f42334cf1023d05",
      "networkId": 0,
      "chainId": 0
    },
    {
      "hash": "0x16c800573f0266ae99b6d84ee7e9b2bb2bbff64b25944d2e0af420363ae351aa",
      "blockHash": "0x52df535d6b26250e3476eb58e3d5636b467972d75f2ffdad3cf83f6e60c34b79",
      "blockNumber": 105318,
      "transactionIndex": 4,
      "confirmations": null,
      "from": "0xe6A7a1d47ff21B6321162AEA7C6CB457D5476Bca",
      "gasPrice": {
        "_hex": "0xd97222960"
      },
      "gasLimit": {
        "_hex": "0x55f0"
      },
      "to": "0xA4b566f129e5810957eF8cC2F750383E488D35Dd",
      "value": {
        "_hex": "0x3bd5d59d99cab9d0"
      },
      "nonce": 3743,
      "data": "0x",
      "r": "0x4dd16297cbf5e9c54469a37cca5f2e912b8eed12a0da8b15829a03369a64c475",
      "s": "0x38e1cec8b00b6ab1f4a2a01c9f34c91afb8f5d9fc524a5a6d60744c06b308216",
      "v": 27,
      "creates": null,
      "raw": "0xf86e820e9f850d972229608255f094a4b566f129e5810957ef8cc2f750383e488d35dd883bd5d59d99cab9d0801ba04dd16297cbf5e9c54469a37cca5f2e912b8eed12a0da8b15829a03369a64c475a038e1cec8b00b6ab1f4a2a01c9f34c91afb8f5d9fc524a5a6d60744c06b308216",
      "networkId": 0,
      "chainId": 0
    },
    {
      "hash": "0x1cb488c37396c396b5a1fa13d60c4459dbdca1d649225b310b758df52b156f0a",
      "blockHash": "0x52df535d6b26250e3476eb58e3d5636b467972d75f2ffdad3cf83f6e60c34b79",
      "blockNumber": 105318,
      "transactionIndex": 5,
      "confirmations": null,
      "from": "0xe6A7a1d47ff21B6321162AEA7C6CB457D5476Bca",
      "gasPrice": {
        "_hex": "0xd97222960"
      },
      "gasLimit": {
        "_hex": "0x55f0"
      },
      "to": "0x8c8eef67181456cBBB05CDFB634709119C2F644F",
      "value": {
        "_hex": "0x3c216822cfb04a20"
      },
      "nonce": 3744,
      "data": "0x",
      "r": "0x45ff73abf23757ed7771477d6535ddc3a1df2ab5c72d53274e99f62d39bbb57d",
      "s": "0x0d26c11d964c469a319c14e1f7f294fd8e9b071e432def202073122ae6ee77e5",
      "v": 27,
      "creates": null,
      "raw": "0xf86e820ea0850d972229608255f0948c8eef67181456cbbb05cdfb634709119c2f644f883c216822cfb04a20801ba045ff73abf23757ed7771477d6535ddc3a1df2ab5c72d53274e99f62d39bbb57da00d26c11d964c469a319c14e1f7f294fd8e9b071e432def202073122ae6ee77e5",
      "networkId": 0,
      "chainId": 0
    },
    {
      "hash": "0x83c9f9a25be0acf75aa7b35d9c549060195bb226fdffc16d5b88c88b167220b5",
      "blockHash": "0x52df535d6b26250e3476eb58e3d5636b467972d75f2ffdad3cf83f6e60c34b79",
      "blockNumber": 105318,
      "transactionIndex": 6,
      "confirmations": null,
      "from": "0xe6A7a1d47ff21B6321162AEA7C6CB457D5476Bca",
      "gasPrice": {
        "_hex": "0xd97222960"
      },
      "gasLimit": {
        "_hex": "0x55f0"
      },
      "to": "0xCE09fD3E23b65BaD12809190a19b6BFCFfD48c35",
      "value": {
        "_hex": "0x3c5fb43cbff9a960"
      },
      "nonce": 3745,
      "data": "0x",
      "r": "0xc76b3abde6a87352ec8333ee4869128401366d3f28cbcd5d14b6a580674c5b19",
      "s": "0x135a9abea9d91ce1b98ac0cecf4513fc30e9a3f24cf5afc841e2f46be0449a34",
      "v": 28,
      "creates": null,
      "raw": "0xf86e820ea1850d972229608255f094ce09fd3e23b65bad12809190a19b6bfcffd48c35883c5fb43cbff9a960801ca0c76b3abde6a87352ec8333ee4869128401366d3f28cbcd5d14b6a580674c5b19a0135a9abea9d91ce1b98ac0cecf4513fc30e9a3f24cf5afc841e2f46be0449a34",
      "networkId": 0,
      "chainId": 0
    },
    {
      "hash": "0x688d849f1bf3aed192b5e516bd1bd280cc57a6ef20067204a7eed957ba6b7236",
      "blockHash": "0x52df535d6b26250e3476eb58e3d5636b467972d75f2ffdad3cf83f6e60c34b79",
      "blockNumber": 105318,
      "transactionIndex": 7,
      "confirmations": null,
      "from": "0xe6A7a1d47ff21B6321162AEA7C6CB457D5476Bca",
      "gasPrice": {
        "_hex": "0xd73671a2f"
      },
      "gasLimit": {
        "_hex": "0x55f0"
      },
      "to": "0x8C7bAEA34346a2E47026485BCD8f323012dEA6aA",
      "value": {
        "_hex": "0x3cf8cb67b566c4c0"
      },
      "nonce": 3746,
      "data": "0x",
      "r": "0x8f1cfff352a909282ca143db10900ffab108cfebea22747c1d7990594d9b5c1c",
      "s": "0x21994dd642b98d37e43b0aec1bbfe9e0950603b481206971a1b68cb77ecf090d",
      "v": 27,
      "creates": null,
      "raw": "0xf86e820ea2850d73671a2f8255f0948c7baea34346a2e47026485bcd8f323012dea6aa883cf8cb67b566c4c0801ba08f1cfff352a909282ca143db10900ffab108cfebea22747c1d7990594d9b5c1ca021994dd642b98d37e43b0aec1bbfe9e0950603b481206971a1b68cb77ecf090d",
      "networkId": 0,
      "chainId": 0
    },
    {
      "hash": "0xf095dccda79c67199f35bc29e3a35d2edb73e6325918674815c0ccb6109b3ac2",
      "blockHash": "0x52df535d6b26250e3476eb58e3d5636b467972d75f2ffdad3cf83f6e60c34b79",
      "blockNumber": 105318,
      "transactionIndex": 8,
      "confirmations": null,
      "from": "0xe6A7a1d47ff21B6321162AEA7C6CB457D5476Bca",
      "gasPrice": {
        "_hex": "0xd73671a2f"
      },
      "gasLimit": {
        "_hex": "0x55f0"
      },
      "to": "0xcabcF33e299eEFB1bBde6Ef75a21853831e8b339",
      "value": {
        "_hex": "0x3d0b8aafd5259448"
      },
      "nonce": 3747,
      "data": "0x",
      "r": "0xe35e30d5cec3b6e647e030597302997db37a62a8639bef58124a64a760d03f5c",
      "s": "0x673b83174bb73ab1dfe00bee3b83db081a41c06e537e686b2ea739dbf4bae293",
      "v": 28,
      "creates": null,
      "raw": "0xf86e820ea3850d73671a2f8255f094cabcf33e299eefb1bbde6ef75a21853831e8b339883d0b8aafd5259448801ca0e35e30d5cec3b6e647e030597302997db37a62a8639bef58124a64a760d03f5ca0673b83174bb73ab1dfe00bee3b83db081a41c06e537e686b2ea739dbf4bae293",
      "networkId": 0,
      "chainId": 0
    },
    {
      "hash": "0x8a1f775b2675ec7652fb77d18cdf0d3cdf58fd82d2ffa4f148af040f93cf9f1a",
      "blockHash": "0x52df535d6b26250e3476eb58e3d5636b467972d75f2ffdad3cf83f6e60c34b79",
      "blockNumber": 105318,
      "transactionIndex": 9,
      "confirmations": null,
      "from": "0xe6A7a1d47ff21B6321162AEA7C6CB457D5476Bca",
      "gasPrice": {
        "_hex": "0xd73671a2f"
      },
      "gasLimit": {
        "_hex": "0x55f0"
      },
      "to": "0xCadcea36EC3feB740167E4370777fab1549F8759",
      "value": {
        "_hex": "0x3d94aa4638ae57f4"
      },
      "nonce": 3748,
      "data": "0x",
      "r": "0xa373e802b912aa3f3b99be8d5b27376cb30e0c027a3748615abbfcef66286338",
      "s": "0x5d54ca3e02c247aefb6f51ed3e8dfe899b33584b29a019443c6ed0f527848e38",
      "v": 27,
      "creates": null,
      "raw": "0xf86e820ea4850d73671a2f8255f094cadcea36ec3feb740167e4370777fab1549f8759883d94aa4638ae57f4801ba0a373e802b912aa3f3b99be8d5b27376cb30e0c027a3748615abbfcef66286338a05d54ca3e02c247aefb6f51ed3e8dfe899b33584b29a019443c6ed0f527848e38",
      "networkId": 0,
      "chainId": 0
    },
    {
      "hash": "0x52b31cfb9b9ae6a384796d2ddb15d0e1de7ad8b549c9d3e17e6f6759de62cf8d",
      "blockHash": "0x52df535d6b26250e3476eb58e3d5636b467972d75f2ffdad3cf83f6e60c34b79",
      "blockNumber": 105318,
      "transactionIndex": 10,
      "confirmations": null,
      "from": "0xe6A7a1d47ff21B6321162AEA7C6CB457D5476Bca",
      "gasPrice": {
        "_hex": "0xd73671a2f"
      },
      "gasLimit": {
        "_hex": "0x55f0"
      },
      "to": "0xc672B41FCC9441EeB20f8d1b4342DE7A982eBAb4",
      "value": {
        "_hex": "0x3d9891f329f851e0"
      },
      "nonce": 3749,
      "data": "0x",
      "r": "0xfd0734d24f5f4caf683b1e36325434fa3f88ca021d36b59788046bed5a9fa76c",
      "s": "0x5b9525c0393d93783a54ec522f834ade57d25e3e1105d9dcb7a84cdbb1c36e92",
      "v": 28,
      "creates": null,
      "raw": "0xf86e820ea5850d73671a2f8255f094c672b41fcc9441eeb20f8d1b4342de7a982ebab4883d9891f329f851e0801ca0fd0734d24f5f4caf683b1e36325434fa3f88ca021d36b59788046bed5a9fa76ca05b9525c0393d93783a54ec522f834ade57d25e3e1105d9dcb7a84cdbb1c36e92",
      "networkId": 0,
      "chainId": 0
    },
    {
      "hash": "0xbc026a760ff2335f8a264ce6c89cd6e03115f75f875ee3497fa76f7e39187740",
      "blockHash": "0x52df535d6b26250e3476eb58e3d5636b467972d75f2ffdad3cf83f6e60c34b79",
      "blockNumber": 105318,
      "transactionIndex": 11,
      "confirmations": null,
      "from": "0xe6A7a1d47ff21B6321162AEA7C6CB457D5476Bca",
      "gasPrice": {
        "_hex": "0xd73671a2f"
      },
      "gasLimit": {
        "_hex": "0x55f0"
      },
      "to": "0xA881a976d37b162a8e82169bf5B83a627d8A1480",
      "value": {
        "_hex": "0x3dfef236d39c3400"
      },
      "nonce": 3750,
      "data": "0x",
      "r": "0x0043ceeee52d0c0ea1eeb439d3e4b6ada67478fbb13d309c1b233bb10b7213d6",
      "s": "0x3e4c984bd0f4b03fa6a9522773f5ea27dcb3f4befe5f53ea37c14765d7f6e6d9",
      "v": 27,
      "creates": null,
      "raw": "0xf86d820ea6850d73671a2f8255f094a881a976d37b162a8e82169bf5b83a627d8a1480883dfef236d39c3400801b9f43ceeee52d0c0ea1eeb439d3e4b6ada67478fbb13d309c1b233bb10b7213d6a03e4c984bd0f4b03fa6a9522773f5ea27dcb3f4befe5f53ea37c14765d7f6e6d9",
      "networkId": 0,
      "chainId": 0
    },
    {
      "hash": "0xbbe437f85e3eeec264bdab6e44df83593b6e7239e3157e0d47da8118d9afc46d",
      "blockHash": "0x52df535d6b26250e3476eb58e3d5636b467972d75f2ffdad3cf83f6e60c34b79",
      "blockNumber": 105318,
      "transactionIndex": 12,
      "confirmations": null,
      "from": "0xe6A7a1d47ff21B6321162AEA7C6CB457D5476Bca",
      "gasPrice": {
        "_hex": "0xd73671a2f"
      },
      "gasLimit": {
        "_hex": "0x55f0"
      },
      "to": "0x514Cb503F290d5F2BE2d38163440f926781D47a1",
      "value": {
        "_hex": "0x3e16a5674c18e3d8"
      },
      "nonce": 3751,
      "data": "0x",
      "r": "0x7f53a63ef15c0f912541beb509e448d4d31f168b0c9bdab87d790b7db3660347",
      "s": "0x2bcbf4da94f6f4a1eda73b311630f0f443dc15109ece1ce7fa74f24c9866a79d",
      "v": 27,
      "creates": null,
      "raw": "0xf86e820ea7850d73671a2f8255f094514cb503f290d5f2be2d38163440f926781d47a1883e16a5674c18e3d8801ba07f53a63ef15c0f912541beb509e448d4d31f168b0c9bdab87d790b7db3660347a02bcbf4da94f6f4a1eda73b311630f0f443dc15109ece1ce7fa74f24c9866a79d",
      "networkId": 0,
      "chainId": 0
    },
    {
      "hash": "0x874817a4ce9559655af5f2e45f1b74399e878280303372afe828151f6e5714ee",
      "blockHash": "0x52df535d6b26250e3476eb58e3d5636b467972d75f2ffdad3cf83f6e60c34b79",
      "blockNumber": 105318,
      "transactionIndex": 13,
      "confirmations": null,
      "from": "0xe6A7a1d47ff21B6321162AEA7C6CB457D5476Bca",
      "gasPrice": {
        "_hex": "0xd73671a2f"
      },
      "gasLimit": {
        "_hex": "0x55f0"
      },
      "to": "0x248aCc54C440214585155Ba4fe5c9706Fb234061",
      "value": {
        "_hex": "0x3f88c23724e8e3fc"
      },
      "nonce": 3752,
      "data": "0x",
      "r": "0x7b7cdb9e0e12a07b9182096f708f3d6914a3df80d1cad5e0756cd5aa9ca9a373",
      "s": "0x6a711c51cc81fe5ecbd4e61f7f67fef2ddb6867443cf52a55fe9a0c5857c692b",
      "v": 28,
      "creates": null,
      "raw": "0xf86e820ea8850d73671a2f8255f094248acc54c440214585155ba4fe5c9706fb234061883f88c23724e8e3fc801ca07b7cdb9e0e12a07b9182096f708f3d6914a3df80d1cad5e0756cd5aa9ca9a373a06a711c51cc81fe5ecbd4e61f7f67fef2ddb6867443cf52a55fe9a0c5857c692b",
      "networkId": 0,
      "chainId": 0
    },
    {
      "hash": "0xaabc164a09ebbf69c104457c19df98dc8dcb2af1a10764fb00d694b5bf6459e6",
      "blockHash": "0x52df535d6b26250e3476eb58e3d5636b467972d75f2ffdad3cf83f6e60c34b79",
      "blockNumber": 105318,
      "transactionIndex": 14,
      "confirmations": null,
      "from": "0xe6A7a1d47ff21B6321162AEA7C6CB457D5476Bca",
      "gasPrice": {
        "_hex": "0xd73671a2f"
      },
      "gasLimit": {
        "_hex": "0x55f0"
      },
      "to": "0x1cB4D87C5e67d158aF4c3A754a010Dfa64d78cE8",
      "value": {
        "_hex": "0x3fca6a9ef0eb2db0"
      },
      "nonce": 3753,
      "data": "0x",
      "r": "0x1855ef8684a73c9dd36d9c66d49edc985d0852e10855e40522321d2f70cda5fe",
      "s": "0x019ec4886041ced8437d01379b4720807b37d1573b49af8cd3922956aa50707a",
      "v": 27,
      "creates": null,
      "raw": "0xf86e820ea9850d73671a2f8255f0941cb4d87c5e67d158af4c3a754a010dfa64d78ce8883fca6a9ef0eb2db0801ba01855ef8684a73c9dd36d9c66d49edc985d0852e10855e40522321d2f70cda5fea0019ec4886041ced8437d01379b4720807b37d1573b49af8cd3922956aa50707a",
      "networkId": 0,
      "chainId": 0
    },
    {
      "hash": "0xcd9855212f0ccc2f2d53b5a511b3f5ad876a4c29f1f77032a54f0d4d24e123fc",
      "blockHash": "0x52df535d6b26250e3476eb58e3d5636b467972d75f2ffdad3cf83f6e60c34b79",
      "blockNumber": 105318,
      "transactionIndex": 15,
      "confirmations": null,
      "from": "0xe6A7a1d47ff21B6321162AEA7C6CB457D5476Bca",
      "gasPrice": {
        "_hex": "0xd73671a2f"
      },
      "gasLimit": {
        "_hex": "0x55f0"
      },
      "to": "0x0094B66634dc6758951e5900ec3F4Bcc7597C062",
      "value": {
        "_hex": "0x411ee35b9e505388"
      },
      "nonce": 3754,
      "data": "0x",
      "r": "0xb48bc2ddae7da2c16d569785a4acadb3aa3c264fc571a9d49ab80b2e6ecf98c2",
      "s": "0x5ecebd44ae07b93203959e97296f7816b52d2afe4525e43e4909264a5786f059",
      "v": 27,
      "creates": null,
      "raw": "0xf86e820eaa850d73671a2f8255f0940094b66634dc6758951e5900ec3f4bcc7597c06288411ee35b9e505388801ba0b48bc2ddae7da2c16d569785a4acadb3aa3c264fc571a9d49ab80b2e6ecf98c2a05ecebd44ae07b93203959e97296f7816b52d2afe4525e43e4909264a5786f059",
      "networkId": 0,
      "chainId": 0
    },
    {
      "hash": "0x40b76efa9468e50937825c1cdbaf5fe42abae6350d230254b54b2bf958e19932",
      "blockHash": "0x52df535d6b26250e3476eb58e3d5636b467972d75f2ffdad3cf83f6e60c34b79",
      "blockNumber": 105318,
      "transactionIndex": 16,
      "confirmations": null,
      "from": "0xe6A7a1d47ff21B6321162AEA7C6CB457D5476Bca",
      "gasPrice": {
        "_hex": "0xd73671a2f"
      },
      "gasLimit": {
        "_hex": "0x55f0"
      },
      "to": "0x1333a55102f1f4B3df95298b6CE863eF8d5BAf45",
      "value": {
        "_hex": "0x41aee3c8202f3cc8"
      },
      "nonce": 3755,
      "data": "0x",
      "r": "0xd4e2f1f1828427d16cf81ede49c36d1a54b0efe472e3bb98f28417a8853a31f6",
      "s": "0x5d2eab437a08d1894182e2a680282a40a51124162cd95bb2b8402ff873b01ff9",
      "v": 28,
      "creates": null,
      "raw": "0xf86e820eab850d73671a2f8255f0941333a55102f1f4b3df95298b6ce863ef8d5baf458841aee3c8202f3cc8801ca0d4e2f1f1828427d16cf81ede49c36d1a54b0efe472e3bb98f28417a8853a31f6a05d2eab437a08d1894182e2a680282a40a51124162cd95bb2b8402ff873b01ff9",
      "networkId": 0,
      "chainId": 0
    },
    {
      "hash": "0x6d45345e1bb5fcf091657ff4f5cba0749297ed43b9e70ea231b9b901d6025d5d",
      "blockHash": "0x52df535d6b26250e3476eb58e3d5636b467972d75f2ffdad3cf83f6e60c34b79",
      "blockNumber": 105318,
      "transactionIndex": 17,
      "confirmations": null,
      "from": "0xe6A7a1d47ff21B6321162AEA7C6CB457D5476Bca",
      "gasPrice": {
        "_hex": "0xd73671a2f"
      },
      "gasLimit": {
        "_hex": "0x55f0"
      },
      "to": "0x5A698FA3F55962225Cd42eb7bE1ECA74d666d1b6",
      "value": {
        "_hex": "0x41bd4557c9c39820"
      },
      "nonce": 3756,
      "data": "0x",
      "r": "0x7b9dd39d98f99b2e1900677636a4dcd03e2797eaaa429a50f7e763ebb1cfab6f",
      "s": "0x0898f0faa3a81c6ce0a9a3e267a3750ff56903896ab00027b1b2337418251514",
      "v": 28,
      "creates": null,
      "raw": "0xf86e820eac850d73671a2f8255f0945a698fa3f55962225cd42eb7be1eca74d666d1b68841bd4557c9c39820801ca07b9dd39d98f99b2e1900677636a4dcd03e2797eaaa429a50f7e763ebb1cfab6fa00898f0faa3a81c6ce0a9a3e267a3750ff56903896ab00027b1b2337418251514",
      "networkId": 0,
      "chainId": 0
    }
  ]
}