{
  "hash": "0xfd53c03f534c5f709e11084f3c734dd334b9ea99289ee30aceb28685e0a84a4a",
  "parentHash": "0xbd655361634b387da0af724b880bcd8a7e46e3fe759760c37193b48722557480",
  "number": 104024,
  "timestamp": 1439862962,
  "nonce": "0x24119ae681a35778",
  "difficulty": 4262901205141,
  "gasLimit": {
    "_hex": "0x2fefd8"
  },
  "gasUsed": {
    "_hex": "0x5208"
  },
  "miner": "0xC0EdE9a639d107851462c15f2fb729c7c61bBf62",
  "extraData": "0xdd809b302e392e34312b2b333134372d524c696e75782f672b2b2f4a4954",
  "transactions": [
    {
      "hash": "0x060f98480dc9d9585cdb12acd1855b56ed34d6198207dddd7aab9a77a8196b6c",
      "blockHash": "0xfd53c03f534c5f709e11084f3c734dd334b9ea99289ee30aceb28685e0a84a4a",
      "blockNumber": 104024,
      "transactionIndex": 0,
      "confirmations": null,
      "from": "0xb1abce2918E21ddb93AA452731a12672A3d9F75a",
      "gasPrice": {
        "_hex": "0xdfc36fc1b"
      },
      "gasLimit": {
        "_hex": "0x5208"
      },
      "to": "0x32Be343B94f860124dC4fEe278FDCBD38C102D88",
      "value": {
        "_hex": "0x455f164806147400"
      },
      "nonce": 129,
      "data": "0x",
      "r": "0x08884e0f0f4da605e09fa02df0336f31bccfcda7b46d872560c45214c18b9937",
      "s": "0x3d0b2137ea5c2b94cae78040c96bffb5cbcf8ea05454b5e68cac84ab7e208fbd",
      "v": 28,
      "creates": null,
      "raw": "0xf86d8181850dfc36fc1b8252089432be343b94f860124dc4fee278fdcbd38c102d8888455f164806147400801ca008884e0f0f4da605e09fa02df0336f31bccfcda7b46d872560c45214c18b9937a03d0b2137ea5c2b94cae78040c96bffb5cbcf8ea05454b5e68cac84ab7e208fbd",
      "networkId": 0,
      "chainId": 0
    }
  ]
}