{
  "hash": "0xe9f90b3c2167c449843424b978bc02b2c3600f71076a27302a65671aa8d538f3",
  "parentHash": "0x540cb04bc212cc930b8313d3c2b8e79ac5efed4c37a819c15c581f2d95022f65",
  "number": 110402,
  "timestamp": 1439973189,
  "nonce": "0x789cb8a6fa4f1f09",
  "difficulty": 4382020679553,
  "gasLimit": {
    "_hex": "0x2fefd8"
  },
  "gasUsed": {
    "_hex": "0x5c490"
  },
  "miner": "0x55D1554b08a5311C5c0A0B6464162192f9D2f884",
  "extraData": "0xd783010001844765746887676f312e342e32856c696e7578",
  "transactions": [
    {
      "hash": "0xd407ca11c8b635329926d136939df6b920a20e36723b3f162726b61fe6dc2aa5",
      "blockHash": "0xe9f90b3c2167c449843424b978bc02b2c3600f71076a27302a65671aa8d538f3",
      "blockNumber": 110402,
      "transactionIndex": 0,
      "confirmations": null,
      "from": "0xc3DBDB3Efa722db2a3F6041b0ca0042782296ba9",
      "gasPrice": {
        "_hex": "0xdbaa0bd5e"
      },
      "gasLimit": {
        "_hex": "0x15f90"
      },
      "to": "0x92857A8BC0A6F66180324f49541C695A3a0Ff944",
      "value": {
        "_hex": "0x270801d946c940000"
      },
      "nonce": 8,
      "data": "0x",
      "r": "0x597bdeca454e8ba05c09587126a32206f013d1ad9868a17f879836542109a58a",
      "s": "0x40c035da927e1c5976b4e35e762c5fbddf911f714d03600324da679a4a5e545f",
      "v": 28,
      "creates": null,
      "raw": "0xf86e08850dbaa0bd5e83015f909492857a8bc0a6f66180324f49541c695a3a0ff944890270801d946c940000801ca0597bdeca454e8ba05c09587126a32206f013d1ad9868a17f879836542109a58aa040c035da927e1c5976b4e35e762c5fbddf911f714d03600324da679a4a5e545f",
      "networkId": 0,
      "chainId": 0
    },
    {
      "hash": "0x19a6f1a6a69a185797eddfafb465abbc53db7c25ed3143e17d91f9a5314a4ca3",
      "blockHash": "0xe9f90b3c2167c449843424b978bc02b2c3600f71076a27302a65671aa8d538f3",
      "blockNumber": 110402,
      "transactionIndex": 1,
      "confirmations": null,
      "from": "0x50087E7383C8865C1C136b8777C4350B8ed472CE",
      "gasPrice": {
        "_hex": "0xd69b48315"
      },
      "gasLimit": {
        "_hex": "0x15f90"
      },
      "to": "0x647fe784fb1A8380972fB6eA08D6eEd74D1a5699",
      "value": {
        "_hex": "0x7ce66c50e2840000"
      },
      "nonce": 5,
      "data": "0x",
      "r": "0xe0eab35d1755aaefce5105f79e2bd75226a8f193d90324a3b20b7cba56c136e0",
      "s": "0x5f2474c724a3684579aa5c54a0bebb8fb4000c46ecd4aceada015b5215e00335",
      "v": 28,
      "creates": null,
      "raw": "0xf86d05850d69b4831583015f9094647fe784fb1a8380972fb6ea08d6eed74d1a5699887ce66c50e2840000801ca0e0eab35d1755aaefce5105f79e2bd75226a8f193d90324a3b20b7cba56c136e0a05f2474c724a3684579aa5c54a0bebb8fb4000c46ecd4aceada015b5215e00335",
      "networkId": 0,
      "chainId": 0
    },
    {
      "hash": "0xdea1969ff1ce5f13446e609637dda10d9fa133e7569a3f8e2bd4eb1f07a71947",
      "blockHash": "0xe9f90b3c2167c449843424b978bc02b2c3600f71076a27302a65671aa8d538f3",
      "blockNumber": 110402,
      "transactionIndex": 2,
      "confirmations": null,
      "from": "0x0D81FD2bB264D9Ee0F432599b443ae1B691f6134",
      "gasPrice": {
        "_hex": "0xcbfa95465"
      },
      "gasLimit": {
        "_hex": "0x5208"
      },
      "to": "0x32Be343B94f860124dC4fEe278FDCBD38C102D88",
      "value": {
        "_hex": "0xb48e478e4ba56000"
      },
      "nonce": 8,
      "data": "0x",
      "r": "0x30aa6037394ad362cc2d99d5e736f2ebc9760548e9b83b169973c8c50d47e605",
      "s": "0x366ba17ca241192ad139ac7801645c834e140a885851a332875a8865fe2e0fbf",
      "v": 28,
      "creates": null,
      "raw": "0xf86c08850cbfa954658252089432be343b94f860124dc4fee278fdcbd38c102d8888b48e478e4ba56000801ca030aa6037394ad362cc2d99d5e736f2ebc9760548e9b83b169973c8c50d47e605a0366ba17ca241192ad139ac7801645c834e140a885851a332875a8865fe2e0fbf",
      "networkId": 0,
      "chainId": 0
    },
    {
      "hash": "0x3197c3e1a92fdfe1b29417d75109fb1d2cb502ac048ed24250778d85c895a082",
      "blockHash": "0xe9f90b3c2167c449843424b978bc02b2c3600f71076a27302a65671aa8d538f3",
      "blockNumber": 110402,
      "transactionIndex": 3,
      "confirmations": null,
      "from": "0x972ad000397A3c903299F1353d6d4b85eE4E4e2A",
      "gasPrice": {
        "_hex": "0xcbfa95465"
      },
      "gasLimit": {
        "_hex": "0x5208"
      },
      "to": "0x32Be343B94f860124dC4fEe278FDCBD38C102D88",
      "value": {
        "_hex": "0x18a24260d9c115000"
      },
      "nonce": 19,
      "data": "0x",
      "r": "0x7e61f7976ede09cd2a6a44a80b9bbb922fa599345bb4b56c00049f52ca883836",
      "s": "0x0d07e8e66ba4b43f3758d52448b9d8035aaaab392069880bd9e254859f1d771a",
      "v": 27,
      "creates": null,
      "raw": "0xf86d13850cbfa954658252089432be343b94f860124dc4fee278fdcbd38c102d8889018a24260d9c115000801ba07e61f7976ede09cd2a6a44a80b9bbb922fa599345bb4b56c00049f52ca883836a00d07e8e66ba4b43f3758d52448b9d8035aaaab392069880bd9e254859f1d771a",
      "networkId": 0,
      "chainId": 0
    },
    {
      "hash": "0x86022282c169fe42fd6b3b379e59861cbe304af5c7ea3f9a2334a00de146d7d2",
      "blockHash": "0xe9f90b3c2167c449843424b978bc02b2c3600f71076a27302a65671aa8d538f3",
      "blockNumber": 110402,
      "transactionIndex": 4,
      "confirmations": null,
      "from": "0xe70361D11B44B2fBA997417D7AAa26eb69EBfef0",
      "gasPrice": {
        "_hex": "0xcbfa95465"
      },
      "gasLimit": {
        "_hex": "0x5208"
      },
      "to": "0x32Be343B94f860124dC4fEe278FDCBD38C102D88",
      "value": {
        "_hex": "0x16061b8c993d96000"
      },
      "nonce": 7,
      "data": "0x",
      "r": "0x441b14b0c149d6125a28b6f4f9424436d7520c27501cb49224c2785e4f8aff36",
      "s": "0x406082cc775b66613a88d19d42727bb4561aede475a082ff7d4864f8196bbe37",
      "v": 27,
      "creates": null,
      "raw": "0xf86d07850cbfa954658252089432be343b94f860124dc4fee278fdcbd38c102d8889016061b8c993d96000801ba0441b14b0c149d6125a28b6f4f9424436d7520c27501cb49224c2785e4f8aff36a0406082cc775b66613a88d19d42727bb4561aede475a082ff7d4864f8196bbe37",
      "networkId": 0,
      "chainId": 0
    },
    {
      "hash": "0x6cac961d642a306d9569b54a3bdf66f6a90aa1736e80ec857f77fc15c0d8f7ba",
      "blockHash": "0xe9f90b3c2167c449843424b978bc02b2c3600f71076a27302a65671aa8d538f3",
      "blockNumber": 110402,
      "transactionIndex": 5,
      "confirmations": null,
      "from": "0x2b176421eEBBf303fa94aD4fE78362Fa9e4Ca693",
      "gasPrice": {
        "_hex": "0xcbfa95465"
      },
      "gasLimit": {
        "_hex": "0x5208"
      },
      "to": "0x32Be343B94f860124dC4fEe278FDCBD38C102D88",
      "value": {
        "_hex": "0x1d0a23798fa533000"
      },
      "nonce": 10,
      "data": "0x",
      "r": "0xc8d9de7afb5175d61b2d7e8ed9699643d1020abb65fe88bd8d67fd77eee0e9fe",
      "s": "0x323b2ddf6dc4f7f050f01c1a3ba713091833a90a11984d259b40ddfddc5816c5",
      "v": 28,
      "creates": null,
      "raw": "0xf86d0a850cbfa954658252089432be343b94f860124dc4fee278fdcbd38c102d888901d0a23798fa533000801ca0c8d9de7afb5175d61b2d7e8ed9699643d1020abb65fe88bd8d67fd77eee0e9fea0323b2ddf6dc4f7f050f01c1a3ba713091833a90a11984d259b40ddfddc5816c5",
      "networkId": 0,
      "chainId": 0
    },
    {
      "hash": "0xbbd0aeef727206f612fc2126ab396b0318bf0e6a2df0393826b2dd22b40665ee",
      "blockHash": "0xe9f90b3c2167c449843424b978bc02b2c3600f71076a27302a65671aa8d538f3",
      "blockNumber": 110402,
      "transactionIndex": 6,
      "confirmations": null,
      "from": "0x6599C9c86f1635FAAEFE7A5540914811DAD8d167",
      "gasPrice": {
        "_hex": "0xcbfa95465"
      },
      "gasLimit": {
        "_hex": "0x5208"
      },
      "to": "0x32Be343B94f860124dC4fEe278FDCBD38C102D88",
      "value": {
        "_hex": "0x7581d919f8833000"
      },
      "nonce": 7,
      "data": "0x",
      "r": "0x2bf595385387a18664c509dac260130fb327a2a1bdb3a1c6ef876a4003f15365",
      "s": "0x0172ca25c838d59c767dc4cf05c1e9a22b99b5432cce8214ef87054961101986",
      "v": 27,
      "creates": null,
      "raw": "0xf86c07850cbfa954658252089432be343b94f860124dc4fee278fdcbd38c102d88887581d919f8833000801ba02bf595385387a18664c509dac260130fb327a2a1bdb3a1c6ef876a4003f15365a00172ca25c838d59c767dc4cf05c1e9a22b99b5432cce8214ef87054961101986",
      "networkId": 0,
      "chainId": 0
    },
    {
      "hash": "0x1f4e6ef503bba67b7c9513f1c46ab1c030aea3a7506d450ea8b5aa667c86c0b1",
      "blockHash": "0xe9f90b3c2167c449843424b978bc02b2c3600f71076a27302a65671aa8d538f3",
      "blockNumber": 110402,
      "transactionIndex": 7,
      "confirmations": null,
      "from": "0xaa71fa80d26F718E6A3c87e41D817b8D10944a63",
      "gasPrice": {
        "_hex": "0xcbfa95465"
      },
      "gasLimit": {
        "_hex": "0x5208"
      },
      "to": "0x32Be343B94f860124dC4fEe278FDCBD38C102D88",
      "value": {
        "_hex": "0x824f997f45b29000"
      },
      "nonce": 7,
      "data": "0x",
      "r": "0xc1d7583041cb9459868b760cb3ee1150264227fe090c267b701e37512cf52ca6",
      "s": "0x6233363e5e7f35e4bd067612878c4de1b0a5bd00925f8dfb85249a89f25b534c",
      "v": 27,
      "creates": null,
      "raw": "0xf86c07850cbfa954658252089432be343b94f860124dc4fee278fdcbd38c102d8888824f997f45b29000801ba0c1d7583041cb9459868b760cb3ee1150264227fe090c267b701e37512cf52ca6a06233363e5e7f35e4bd067612878c4de1b0a5bd00925f8dfb85249a89f25b534c",
      "networkId": 0,
      "chainId": 0
    },
    {
      "hash": "0x7016dda4e2859fa60ff4a078d7056aae271b00a93881a5568c2d2f86783a7e13",
      "blockHash": "0xe9f90b3c2167c449843424b978bc02b2c3600f71076a27302a65671aa8d538f3",
      "blockNumber": 110402,
      "transactionIndex": 8,
      "confirmations": null,
      "from": "0xAdCa16b4654a92cb67666C0cF61976cEEE81cEEB",
      "gasPrice": {
        "_hex": "0xcbfa95465"
      },
      "gasLimit": {
        "_hex": "0x5208"
      },
      "to": "0x32Be343B94f860124dC4fEe278FDCBD38C102D88",
      "value": {
        "_hex": "0xdef946b2f20cc000"
      },
      "nonce": 7,
      "data": "0x",
      "r": "0xc1f6a4b31be87381e6a1408bf2bd342667fd6d7fb624029e24dcf90b7ad705f2",
      "s": "0x2a97c160f83ddebb4a0cd33ef11147844c519d249fb1fe9e0194cb2afef72c22",
      "v": 27,
      "creates": null,
      "raw": "0xf86c07850cbfa954658252089432be343b94f860124dc4fee278fdcbd38c102d8888def946b2f20cc000801ba0c1f6a4b31be87381e6a1408bf2bd342667fd6d7fb624029e24dcf90b7ad705f2a02a97c160f83ddebb4a0cd33ef11147844c519d249fb1fe9e0194cb2afef72c22",
      "networkId": 0,
      "chainId": 0
    },
    {
      "hash": "0x945dbc3f9df36cae2de623aa018a1ea1c3d3c0d52d7860ab004ed46c9203b6fa",
      "blockHash": "0xe9f90b3c2167c449843424b978bc02b2c3600f71076a27302a65671aa8d538f3",
      "blockNumber": 110402,
      "transactionIndex": 9,
      "confirmations": null,
      "from": "0x3629B45bBf972aDc23C064D31B7d7c6ce17415D5",
      "gasPrice": {
        "_hex": "0xcbfa95465"
      },
      "gasLimit": {
        "_hex": "0x5208"
      },
      "to": "0x32Be343B94f860124dC4fEe278FDCBD38C102D88",
      "value": {
        "_hex": "0x3fdc4c6a9a03f8000"
      },
      "nonce": 5,
      "data": "0x",
      "r": "0x8e8608c5206b4bbb1d8e6379152f83c5bb73ea3c50644677c5d2fc362ce2a1e3",
      "s": "0x74842b0fee8d5b33f57c2ed197e790e7412b07b58893c7dac456b524ecb33b3a",
      "v": 27,
      "creates": null,
      "raw": "0xf86d05850cbfa954658252089432be343b94f860124dc4fee278fdcbd38c102d888903fdc4c6a9a03f8000801ba08e8608c5206b4bbb1d8e6379152f83c5bb73ea3c50644677c5d2fc362ce2a1e3a074842b0fee8d5b33f57c2ed197e790e7412b07b58893c7dac456b524ecb33b3a",
      "networkId": 0,
      "chainId": 0
    },
    {
      "hash": "0xa135561f74493e882d5c50b13834a05ca96c34a44c7ba6bdaf6d02445cd1a62c",
      "blockHash": "0xe9f90b3c2167c449843424b978bc02b2c3600f71076a27302a65671aa8d538f3",
      "blockNumber": 110402,
      "transactionIndex": 10,
      "confirmations": null,
      "from": "0xeCdf9d571849dE520c84eBEd7Ac4551e483eA5b3",
      "gasPrice": {
        "_hex": "0xcbfa95465"
      },
      "gasLimit": {
        "_hex": "0x5208"
      },
      "to": "0x32Be343B94f860124dC4fEe278FDCBD38C102D88",
      "value": {
        "_hex": "0x5dc2eb44655c0c00"
      },
      "nonce": 7,
      "data": "0x",
      "r": "0x4715a46b1ecfc94b6ebbed2a5793384ec20d5e86ed926b59f36e2006d99f2f22",
      "s": "0x77ca3b71fbe94134d4655c11b3dca7eb8dad305f88eb0697b209467c6e9e0eca",
      "v": 27,
      "creates": null,
      "raw": "0xf86c07850cbfa954658252089432be343b94f860124dc4fee278fdcbd38c102d88885dc2eb44655c0c00801ba04715a46b1ecfc94b6ebbed2a5793384ec20d5e86ed926b59f36e2006d99f2f22a077ca3b71fbe94134d4655c11b3dca7eb8dad305f88eb0697b209467c6e9e0eca",
      "networkId": 0,
      "chainId": 0
    },
    {
      "hash": "0x9944e90001372bfd9a9ad8dff3a8ffba707d57ab4790658ea8db9c2a0da931c1",
      "blockHash": "0xe9f90b3c2167c449843424b978bc02b2c3600f71076a27302a65671aa8d538f3",
      "blockNumber": 110402,
      "transactionIndex": 11,
      "confirmations": null,
      "from": "0x7fDF07A0f977e4032C1f082Df831423abf58D13D",
      "gasPrice": {
        "_hex": "0xcbfa95465"
      },
      "gasLimit": {
        "_hex": "0x5208"
      },
      "to": "0x32Be343B94f860124dC4fEe278FDCBD38C102D88",
      "value": {
        "_hex": "0x351b9ccc613cbc00"
      },
      "nonce": 6,
      "data": "0x",
      "r": "0x2d4a1d11190e2a58b4182765447cae254e7b68ccccfe40ec24e73e2d65025f27",
      "s": "0x7d08152b2a06445994a7756250521729a014b05d27d7a3ca78fc4638d3772808",
      "v": 28,
      "creates": null,
      "raw": "0xf86c06850cbfa954658252089432be343b94f860124dc4fee278fdcbd38c102d8888351b9ccc613cbc00801ca02d4a1d11190e2a58b4182765447cae254e7b68ccccfe40ec24e73e2d65025f27a07d08152b2a06445994a7756250521729a014b05d27d7a3ca78fc4638d3772808",
      "networkId": 0,
      "chainId": 0
    },
    {
      "hash": "0x8bb7a1d1a4417c6168b8f67c2de0080bc9e9b7993f4f4b609ae69a2b6c44baa2",
      "blockHash": "0xe9f90b3c2167c449843424b978bc02b2c3600f71076a27302a65671aa8d538f3",
      "blockNumber": 110402,
      "transactionIndex": 12,
      "confirmations": null,
      "from": "0x60781265e9850f54AE0Bc9545948d05DeE6FC3e3",
      "gasPrice": {
        "_hex": "0xcbfa95465"
      },
      "gasLimit": {
        "_hex": "0x5208"
      },
      "to": "0x32Be343B94f860124dC4fEe278FDCBD38C102D88",
      "value": {
        "_hex": "0x7edd2f502b297000"
      },
      "nonce": 10,
      "data": "0x",
      "r": "0xb59c492dfbdc2732a23656ac7f0ede05989afd8fbad0002c369959aafc3e88bf",
      "s": "0x1478cddbd93ff3729c897291a71abd075d1b5b340d70ec6e55bc29ab5d282632",
      "v": 28,
      "creates": null,
      "raw": "0xf86c0a850cbfa954658252089432be343b94f860124dc4fee278fdcbd38c102d88887edd2f502b297000801ca0b59c492dfbdc2732a23656ac7f0ede05989afd8fbad0002c369959aafc3e88bfa01478cddbd93ff3729c897291a71abd075d1b5b340d70ec6e55bc29ab5d282632",
      "networkId": 0,
      "chainId": 0
    },
    {
      "hash": "0x0a9e0c47f98a55e0f6a5f4b6e807571e270d5e7d4d87f152ccfa18a39c0bcbee",
      "blockHash": "0xe9f90b3c2167c449843424b978bc02b2c3600f71076a27302a65671aa8d538f3",
      "blockNumber": 110402,
      "transactionIndex": 13,
      "confirmations": null,
      "from": "0x1CaC89419da71AC175A5B99CEE0163720430990c",
      "gasPrice": {
        "_hex": "0xcbfa95465"
      },
      "gasLimit": {
        "_hex": "0x5208"
      },
      "to": "0x32Be343B94f860124dC4fEe278FDCBD38C102D88",
      "value": {
        "_hex": "0x1b2f0761c1da82000"
      },
      "nonce": 8,
      "data": "0x",
      "r": "0x126cdeb5f9fc4d7eb1b9a7db3196a933b636209abb6cbd366cdf8a80f750ec3f",
      "s": "0x68813ae4b735ea4fc797f21b21002676d58219a7e94b9f4b1b7e2574170e3b18",
      "v": 27,
      "creates": null,
      "raw": "0xf86d08850cbfa954658252089432be343b94f860124dc4fee278fdcbd38c102d888901b2f0761c1da82000801ba0126cdeb5f9fc4d7eb1b9a7db3196a933b636209abb6cbd366cdf8a80f750ec3fa068813ae4b735ea4fc797f21b21002676d58219a7e94b9f4b1b7e2574170e3b18",
      "networkId": 0,
      "chainId": 0
    },
    {
      "hash": "0x33ee85f507356b6587db83bf37b408eb23ae0e20b52061354b1923f8c1cae9ea",
      "blockHash": "0xe9f90b3c2167c449843424b978bc02b2c3600f71076a27302a65671aa8d538f3",
      "blockNumber": 110402,
      "transactionIndex": 14,
      "confirmations": null,
      "from": "0xAd941B747c499E3ad5728C285446813783A33564",
      "gasPrice": {
        "_hex": "0xcbfa95465"
      },
      "gasLimit": {
        "_hex": "0x5208"
      },
      "to": "0x32Be343B94f860124dC4fEe278FDCBD38C102D88",
      "value": {
        "_hex": "0xac611dd7cf70f800"
      },
      "nonce": 17,
      "data": "0x",
      "r": "0xbb2ffe3166aadda0f26a75a08829ae1cc508a28e04b1433ed6e94562c0a81ab1",
      "s": "0x3baf8c153b0915242d7101f8a732e2dc9310c2ddc052cb3d38dd0d8c1990964b",
      "v": 27,
      "creates": null,
      "raw": "0xf86c11850cbfa954658252089432be343b94f860124dc4fee278fdcbd38c102d8888ac611dd7cf70f800801ba0bb2ffe3166aadda0f26a75a08829ae1cc508a28e04b1433ed6e94562c0a81ab1a03baf8c153b0915242d7101f8a732e2dc9310c2ddc052cb3d38dd0d8c1990964b",
      "networkId": 0,
      "chainId": 0
    },
    {
      "hash": "0x30a3e91b18ae835b43896e7d8242b0a9c4d95eace0406bdec91f0f603dd6b8de",
      "blockHash": "0xe9f90b3c2167c449843424b978bc02b2c3600f71076a27302a65671aa8d538f3",
      "blockNumber": 110402,
      "transactionIndex": 15,
      "confirmations": null,
      "from": "0xFc8bc4ed86dF73001ce6082F3dB914d7c7A9a6cC",
      "gasPrice": {
        "_hex": "0xcbfa95465"
      },
      "gasLimit": {
        "_hex": "0x5208"
      },
      "to": "0x32Be343B94f860124dC4fEe278FDCBD38C102D88",
      "value": {
        "_hex": "0xe3b9fda470338000"
      },
      "nonce": 6,
      "data": "0x",
      "r": "0xfb74512ee259d6f0095c7ab7d5bae40eceb2bb166bb8a14b24a8bfc5e855f683",
      "s": "0x4df85a5ba03dc74dba02d4b24d764d837a01661b4f1aefbf3f0671fda5327a74",
      "v": 27,
      "creates": null,
      "raw": "0xf86c06850cbfa954658252089432be343b94f860124dc4fee278fdcbd38c102d8888e3b9fda470338000801ba0fb74512ee259d6f0095c7ab7d5bae40eceb2bb166bb8a14b24a8bfc5e855f683a04df85a5ba03dc74dba02d4b24d764d837a01661b4f1aefbf3f0671fda5327a74",
      "networkId": 0,
      "chainId": 0
    },
    {
      "hash": "0xb62115737963e9a0f531053d8da87fc8b5271c146bc6cbb6e5b8dc0cea5dc51c",
      "blockHash": "0xe9f90b3c2167c449843424b978bc02b2c3600f71076a27302a65671aa8d538f3",
      "blockNumber": 110402,
      "transactionIndex": 16,
      "confirmations": null,
      "from": "0x0d62E666D681E8Be96903Ac4aBD3537f28c6125A",
      "gasPrice": {
        "_hex": "0xcbfa95465"
      },
      "gasLimit": {
        "_hex": "0x5208"
      },
      "to": "0x32Be343B94f860124dC4fEe278FDCBD38C102D88",
      "value": {
        "_hex": "0x773fa7787e1dec00"
      },
      "nonce": 7,
      "data": "0x",
      "r": "0x6d010caa6fc01b06d71653d57c089ac5fe44443a9313c4515013b197036bb4be",
      "s": "0x3700fb2ad02a1df6748d0335953a119655c400504505d1d77c6c9cb90871d351",
      "v": 28,
      "creates": null,
      "raw": "0xf86c07850cbfa954658252089432be343b94f860124dc4fee278fdcbd38c102d8888773fa7787e1dec00801ca06d010caa6fc01b06d71653d57c089ac5fe44443a9313c4515013b197036bb4bea03700fb2ad02a1df6748d0335953a119655c400504505d1d77c6c9cb90871d351",
      "networkId": 0,
      "chainId": 0
    },
    {
      "hash": "0xcf79fa388e573f2679234d6cffd3776f5937a2a259c550355c5cff5fbbc62815",
      "blockHash": "0xe9f90b3c2167c449843424b978bc02b2c3600f71076a27302a65671aa8d538f3",
      "blockNumber": 110402,
      "transactionIndex": 17,
      "confirmations": null,
      "from": "0x0f7E5465DB8bC57940471E530a83Fb7Ac5b82d7f",
      "gasPrice": {
        "_hex": "0xcbfa95465"
      },
      "gasLimit": {
        "_hex": "0x5208"
      },
      "to": "0x32Be343B94f860124dC4fEe278FDCBD38C102D88",
      "value": {
        "_hex": "0x3ff581e8abe6dc00"
      },
      "nonce": 7,
      "data": "0x",
      "r": "0x769df44993deef8a37e304d8afe76fba63d3a3d36a50cf262f924835d697a370",
      "s": "0x51081313d754bbf3d4e0490581a257e89b4d8b56b071e0216e7e31af0128a17b",
      "v": 27,
      "creates": null,
      "raw": "0xf86c07850cbfa954658252089432be343b94f860124dc4fee278fdcbd38c102d88883ff581e8abe6dc00801ba0769df44993deef8a37e304d8afe76fba63d3a3d36a50cf262f924835d697a370a051081313d754bbf3d4e0490581a257e89b4d8b56b071e0216e7e31af0128a17b",
      "networkId": 0,
      "chainId": 0
    }
  ]
}