{
  "hash": "0x2854b62eb148820917242ffb96cc4a121bb34d1043406b68dd95327b929118ec",
  "parentHash": "0x98c2d74b447c4d892cf8b55865afa51d28b4ed11f44c8e748ad26d3370106716",
  "number": 64861,
  "timestamp": 1439227315,
  "nonce": "0x0cf5b8eef55e6471",
  "difficulty": 1910738060312,
  "gasLimit": {
    "_hex": "0x2fefd8"
  },
  "gasUsed": {
    "_hex": "0x5208"
  },
  "miner": "0x785ffdDd5cE55c6DF963f345e68d3F2024E5Acb1",
  "extraData": "0x457468657265756d20474f212121212121",
  "transactions": [
    {
      "hash": "0x3c752c2735d55308214a1f5e9b8e865194f7ceec05f875cad126e8845d7766fe",
      "blockHash": "0x2854b62eb148820917242ffb96cc4a121bb34d1043406b68dd95327b929118ec",
      "blockNumber": 64861,
      "transactionIndex": 0,
      "confirmations": null,
      "from": "0x2910543Af39abA0Cd09dBb2D50200b3E800A63D2",
      "gasPrice": {
        "_hex": "0xe11a5197d"
      },
      "gasLimit": {
        "_hex": "0x5208"
      },
      "to": "0x29438a5547Cb8f5Dcc4182AbD0bB4cCa5E492ba2",
      "value": {
        "_hex": "0x3635b7ea4ca6bf8000"
      },
      "nonce": 160,
      "data": "0x",
      "r": "0xc4503ad57bed88018605a467d3d3f27b63a5ede87b7dc32f15300ea5265a679d",
      "s": "0x638f8b6a9bff866086fe45cd0af0154555f833dd72a1553049782098147914c7",
      "v": 28,
      "creates": null,
      "raw": "0xf86e81a0850e11a5197d8252089429438a5547cb8f5dcc4182abd0bb4cca5e492ba2893635b7ea4ca6bf8000801ca0c4503ad57bed88018605a467d3d3f27b63a5ede87b7dc32f15300ea5265a679da0638f8b6a9bff866086fe45cd0af0154555f833dd72a1553049782098147914c7",
      "networkId": 0,
      "chainId": 0
    }
  ]
}