{
  "hash": "0x90f319048e7d4b608ba162c3e2d65bb862c290262558195a0e1fcfadadef8275",
  "parentHash": "0xde03c86920ac4bd56221f4fb58e2e8526e4383e475c81539e1eb035024e78ecc",
  "number": 116405,
  "timestamp": 1440073716,
  "nonce": "0x2919e0cee6b2f8f3",
  "difficulty": 4577843081014,
  "gasLimit": {
    "_hex": "0x2fefd8"
  },
  "gasUsed": {
    "_hex": "0x5208"
  },
  "miner": "0x52bc44d5378309EE2abF1539BF71dE1b7d7bE3b5",
  "extraData": "0x476574682f76312e302e312d65626434373230372f6c696e75782f676f312e34",
  "transactions": [
    {
      "hash": "0x281bbaafb488f799278972d4be665dae4bbfa0e34634275258e58a18f79e576f",
      "blockHash": "0x90f319048e7d4b608ba162c3e2d65bb862c290262558195a0e1fcfadadef8275",
      "blockNumber": 116405,
      "transactionIndex": 0,
      "confirmations": null,
      "from": "0x32Be343B94f860124dC4fEe278FDCBD38C102D88",
      "gasPrice": {
        "_hex": "0xd375477fc"
      },
      "gasLimit": {
        "_hex": "0x5208"
      },
      "to": "0x1C89060f987C518fa079EC2c0a5EbFa30f5d20F7",
      "value": {
        "_hex": "0x1172e77eb2efdf00000"
      },
      "nonce": 1465,
      "data": "0x",
      "r": "0x80a8b4181444f8ad1a2b15cc29df5f9ec97d5e01853a3982d30329ee26a5ae6e",
      "s": "0x20761a600efc93a19e5dc28ee222a94cfd0a7d4a705d46205484e9b59d40c683",
      "v": 28,
      "creates": null,
      "raw": "0xf8708205b9850d375477fc825208941c89060f987c518fa079ec2c0a5ebfa30f5d20f78a01172e77eb2efdf00000801ca080a8b4181444f8ad1a2b15cc29df5f9ec97d5e01853a3982d30329ee26a5ae6ea020761a600efc93a19e5dc28ee222a94cfd0a7d4a705d46205484e9b59d40c683",
      "networkId": 0,
      "chainId": 0
    }
  ]
}