{
  "hash": "0xdfd7ca6fc5971cb4fd23d4906f710c9150b8a5bf5646ffed075ddc5c60ff6e97",
  "parentHash": "0xdb86ef103b66583b294c916868605e9c03fa530cfb17e15d41311b5ce5ae4593",
  "number": 111823,
  "timestamp": 1439996814,
  "nonce": "0xcdb3957fbd293278",
  "difficulty": 4426434784578,
  "gasLimit": {
    "_hex": "0x2fefd8"
  },
  "gasUsed": {
    "_hex": "0x4ce78"
  },
  "miner": "0xe6A7a1d47ff21B6321162AEA7C6CB457D5476Bca",
  "extraData": "0x476574682f76312e302e312d38326566323666362f6c696e75782f676f312e34",
  "transactions": [
    {
      "hash": "0x1a7673bf6e14c2548bd3e20b33e598b3ac219aecbe3ff6959fd6af41892c68d6",
      "blockHash": "0xdfd7ca6fc5971cb4fd23d4906f710c9150b8a5bf5646ffed075ddc5c60ff6e97",
      "blockNumber": 111823,
      "transactionIndex": 0,
      "confirmations": null,
      "from": "0x9D551f41feD6FC27B719777c224DfeCcE170004d",
      "gasPrice": {
        "_hex": "0xd8366c8f3"
      },
      "gasLimit": {
        "_hex": "0x15f90"
      },
      "to": "0x27B5b2873c459B6ed3802C07a67449D4c584d29B",
      "value": {
        "_hex": "0xb8c02e37b21cef6"
      },
      "nonce": 8,
      "data": "0x",
      "r": "0xe8f0365c084291c315c3e2e94768820833be8394370be716d3056f542e6d7be3",
      "s": "0x47d414e25038330bede6a1f7ebe924270f32fe6eac5859bdd456185e5d313e38",
      "v": 28,
      "creates": null,
      "raw": "0xf86d08850d8366c8f383015f909427b5b2873c459b6ed3802c07a67449d4c584d29b880b8c02e37b21cef6801ca0e8f0365c084291c315c3e2e94768820833be8394370be716d3056f542e6d7be3a047d414e25038330bede6a1f7ebe924270f32fe6eac5859bdd456185e5d313e38",
      "networkId": 0,
      "chainId": 0
    },
    {
      "hash": "0xbdcea1250bbc94d8b14f3c5254ccda9cdfdd5c9867f68aca1af471d65981b809",
      "blockHash": "0xdfd7ca6fc5971cb4fd23d4906f710c9150b8a5bf5646ffed075ddc5c60ff6e97",
      "blockNumber": 111823,
      "transactionIndex": 1,
      "confirmations": null,
      "from": "0x9D551f41feD6FC27B719777c224DfeCcE170004d",
      "gasPrice": {
        "_hex": "0xd8366c8f3"
      },
      "gasLimit": {
        "_hex": "0x15f90"
      },
      "to": "0xe0F2071907ecf7F55DF7a681Cd68fa5b7575eA7b",
      "value": {
        "_hex": "0x1ea216140ef7e649"
      },
      "nonce": 9,
      "data": "0x",
      "r": "0x9028505ef9da98febec3122a74224e10ac919eb062e13d632cd8b727cc5753d3",
      "s": "0x49a0c2c15696bd9f93e44d5585a525cff64ba4a71922345650e73babdae10a69",
      "v": 27,
      "creates": null,
      "raw": "0xf86d09850d8366c8f383015f9094e0f2071907ecf7f55df7a681cd68fa5b7575ea7b881ea216140ef7e649801ba09028505ef9da98febec3122a74224e10ac919eb062e13d632cd8b727cc5753d3a049a0c2c15696bd9f93e44d5585a525cff64ba4a71922345650e73babdae10a69",
      "networkId": 0,
      "chainId": 0
    },
    {
      "hash": "0x46008cb39f865bcb3de01a2d3a3673b092cf6990da404bdec9c245754000fcdc",
      "blockHash": "0xdfd7ca6fc5971cb4fd23d4906f710c9150b8a5bf5646ffed075ddc5c60ff6e97",
      "blockNumber": 111823,
      "transactionIndex": 2,
      "confirmations": null,
      "from": "0x9D551f41feD6FC27B719777c224DfeCcE170004d",
      "gasPrice": {
        "_hex": "0xd8366c8f3"
      },
      "gasLimit": {
        "_hex": "0x15f90"
      },
      "to": "0x5F8beD872590656DbaD937e60468CF7b0ECf12BF",
      "value": {
        "_hex": "0x2088965dafd147e6"
      },
      "nonce": 10,
      "data": "0x",
      "r": "0x616fdb9e0388fd906281a60d4803a5ecaefbf525582aaa2d174ef22d0813733a",
      "s": "0x18fa2cb313062ddd8cf3bebac079e4239a02ca317fc6c88d7274d8269a33cbf0",
      "v": 27,
      "creates": null,
      "raw": "0xf86d0a850d8366c8f383015f90945f8bed872590656dbad937e60468cf7b0ecf12bf882088965dafd147e6801ba0616fdb9e0388fd906281a60d4803a5ecaefbf525582aaa2d174ef22d0813733aa018fa2cb313062ddd8cf3bebac079e4239a02ca317fc6c88d7274d8269a33cbf0",
      "networkId": 0,
      "chainId": 0
    },
    {
      "hash": "0x61ba30c2611066bcaa03ff10ba48d7f20b929eff4eb03655a9d21a56b11b5a0f",
      "blockHash": "0xdfd7ca6fc5971cb4fd23d4906f710c9150b8a5bf5646ffed075ddc5c60ff6e97",
      "blockNumber": 111823,
      "transactionIndex": 3,
      "confirmations": null,
      "from": "0x9D551f41feD6FC27B719777c224DfeCcE170004d",
      "gasPrice": {
        "_hex": "0xd8366c8f3"
      },
      "gasLimit": {
        "_hex": "0x15f90"
      },
      "to": "0x7C8DB6DAEA570E518f36c83653E7cc0fcF87C232",
      "value": {
        "_hex": "0x1a8b565b62908388"
      },
      "nonce": 11,
      "data": "0x",
      "r": "0x9133571c55f02d82847c7a5f2635e97bd8795d22d05f162b11e761dc5e916e33",
      "s": "0x0067ae3904824103ac8e5f6d5d5a4813cc62b350902b14449351d963850554dd",
      "v": 27,
      "creates": null,
      "raw": "0xf86c0b850d8366c8f383015f90947c8db6daea570e518f36c83653e7cc0fcf87c232881a8b565b62908388801ba09133571c55f02d82847c7a5f2635e97bd8795d22d05f162b11e761dc5e916e339f67ae3904824103ac8e5f6d5d5a4813cc62b350902b14449351d963850554dd",
      "networkId": 0,
      "chainId": 0
    },
    {
      "hash": "0x0095e688142916966805d095291f0c6e852cf31b51acfdd211fece22d670910a",
      "blockHash": "0xdfd7ca6fc5971cb4fd23d4906f710c9150b8a5bf5646ffed075ddc5c60ff6e97",
      "blockNumber": 111823,
      "transactionIndex": 4,
      "confirmations": null,
      "from": "0x9D551f41feD6FC27B719777c224DfeCcE170004d",
      "gasPrice": {
        "_hex": "0xd8366c8f3"
      },
      "gasLimit": {
        "_hex": "0x15f90"
      },
      "to": "0xe3194b17c5549620bEdA50343E34D1c3876391C4",
      "value": {
        "_hex": "0x743bfbefee2cbb9"
      },
      "nonce": 12,
      "data": "0x",
      "r": "0x82eb39c300158c001de56e24a2429d8961d55b98f328647fce0e35727c2e6beb",
      "s": "0x0648f770cce66c801dc09e348a176ddef7277da477faf37f152a267a77743627",
      "v": 27,
      "creates": null,
      "raw": "0xf86d0c850d8366c8f383015f9094e3194b17c5549620beda50343e34d1c3876391c4880743bfbefee2cbb9801ba082eb39c300158c001de56e24a2429d8961d55b98f328647fce0e35727c2e6beba00648f770cce66c801dc09e348a176ddef7277da477faf37f152a267a77743627",
      "networkId": 0,
      "chainId": 0
    },
    {
      "hash": "0x8c9e45483d5b6e15ecfa8cbfcdce807182bea8a49eb554ce3bd514e6d7556ec0",
      "blockHash": "0xdfd7ca6fc5971cb4fd23d4906f710c9150b8a5bf5646ffed075ddc5c60ff6e97",
      "blockNumber": 111823,
      "transactionIndex": 5,
      "confirmations": null,
      "from": "0x9D551f41feD6FC27B719777c224DfeCcE170004d",
      "gasPrice": {
        "_hex": "0xd8366c8f3"
      },
      "gasLimit": {
        "_hex": "0x15f90"
      },
      "to": "0xc42333fFCaB0a62138cf32808723Db35bB9dC45b",
      "value": {
        "_hex": "0xd164f7f0bfa6a0b"
      },
      "nonce": 13,
      "data": "0x",
      "r": "0xea148ef2832d83cbfa52242940b63a653b544f0ba624a7d2203ac81956b65f2c",
      "s": "0x7daff36d1e1cc72d48d7b451ff1cfcaeceb028e4e81573996b8d6f7e1298a664",
      "v": 28,
      "creates": null,
      "raw": "0xf86d0d850d8366c8f383015f9094c42333ffcab0a62138cf32808723db35bb9dc45b880d164f7f0bfa6a0b801ca0ea148ef2832d83cbfa52242940b63a653b544f0ba624a7d2203ac81956b65f2ca07daff36d1e1cc72d48d7b451ff1cfcaeceb028e4e81573996b8d6f7e1298a664",
      "networkId": 0,
      "chainId": 0
    },
    {
      "hash": "0x8ad48f9e2b02fe8737f06e651e1cc9d50ab9a9a3d7388a44f73225e330fbe21a",
      "blockHash": "0xdfd7ca6fc5971cb4fd23d4906f710c9150b8a5bf5646ffed075ddc5c60ff6e97",
      "blockNumber": 111823,
      "transactionIndex": 6,
      "confirmations": null,
      "from": "0x9D551f41feD6FC27B719777c224DfeCcE170004d",
      "gasPrice": {
        "_hex": "0xd8366c8f3"
      },
      "gasLimit": {
        "_hex": "0x15f90"
      },
      "to": "0x580992B51e3925e23280EfB93d3047C82f17E038",
      "value": {
        "_hex": "0x956788a6eec28"
      },
      "nonce": 14,
      "data": "0x",
      "r": "0xeb434a310d6fc32b7c017a189c07e35a869541011300804465ea1381fd071b75",
      "s": "0x561a715a4f8af1d01e27ece76a5338bd350a17ff19f1ccb751cabf29d1cc3536",
      "v": 27,
      "creates": null,
      "raw": "0xf86c0e850d8366c8f383015f9094580992b51e3925e23280efb93d3047c82f17e038870956788a6eec28801ba0eb434a310d6fc32b7c017a189c07e35a869541011300804465ea1381fd071b75a0561a715a4f8af1d01e27ece76a5338bd350a17ff19f1ccb751cabf29d1cc3536",
      "networkId": 0,
      "chainId": 0
    },
    {
      "hash": "0xb7a000a1e3f5963eda42b08b44d02285fc334a61166c126c42f09e26fc13b188",
      "blockHash": "0xdfd7ca6fc5971cb4fd23d4906f710c9150b8a5bf5646ffed075ddc5c60ff6e97",
      "blockNumber": 111823,
      "transactionIndex": 7,
      "confirmations": null,
      "from": "0x9D551f41feD6FC27B719777c224DfeCcE170004d",
      "gasPrice": {
        "_hex": "0xd8366c8f3"
      },
      "gasLimit": {
        "_hex": "0x15f90"
      },
      "to": "0x983C3f45E26ee1a84155C1dDBB1cfDBf85a4d2b3",
      "value": {
        "_hex": "0x55f5a66e502af82"
      },
      "nonce": 15,
      "data": "0x",
      "r": "0xd25c59b160a57955c4833c3816f5285f639190185900ae7e9046f2c62962a682",
      "s": "0x551a4b61b418f3782d8becd6aff226587d25ff50a2a1e714a35efe7b59e74717",
      "v": 27,
      "creates": null,
      "raw": "0xf86d0f850d8366c8f383015f9094983c3f45e26ee1a84155c1ddbb1cfdbf85a4d2b388055f5a66e502af82801ba0d25c59b160a57955c4833c3816f5285f639190185900ae7e9046f2c62962a682a0551a4b61b418f3782d8becd6aff226587d25ff50a2a1e714a35efe7b59e74717",
      "networkId": 0,
      "chainId": 0
    },
    {
      "hash": "0x4941fe69a9576d503a376a74e4f290c9b71360b7fa814e63e817a273992fc91a",
      "blockHash": "0xdfd7ca6fc5971cb4fd23d4906f710c9150b8a5bf5646ffed075ddc5c60ff6e97",
      "blockNumber": 111823,
      "transactionIndex": 8,
      "confirmations": null,
      "from": "0x9D551f41feD6FC27B719777c224DfeCcE170004d",
      "gasPrice": {
        "_hex": "0xd8366c8f3"
      },
      "gasLimit": {
        "_hex": "0x15f90"
      },
      "to": "0x9cA8BD4321bba684062A4a41172Ea3FF56430e0C",
      "value": {
        "_hex": "0x408172b1c5da10"
      },
      "nonce": 16,
      "data": "0x",
      "r": "0xa4866e2345fbdc870d33cec69a739befd4ca8bd82616146600a31606688f1d40",
      "s": "0x77076b79344ee8df7792e5c3d585266413fd5403b81d84120aacda2a0e3e3b9a",
      "v": 28,
      "creates": null,
      "raw": "0xf86c10850d8366c8f383015f90949ca8bd4321bba684062a4a41172ea3ff56430e0c87408172b1c5da10801ca0a4866e2345fbdc870d33cec69a739befd4ca8bd82616146600a31606688f1d40a077076b79344ee8df7792e5c3d585266413fd5403b81d84120aacda2a0e3e3b9a",
      "networkId": 0,
      "chainId": 0
    },
    {
      "hash": "0xd897cbb3de2d2dc7c581365d390b3fbbd9e1234df2a09135fb5079f9460b483e",
      "blockHash": "0xdfd7ca6fc5971cb4fd23d4906f710c9150b8a5bf5646ffed075ddc5c60ff6e97",
      "blockNumber": 111823,
      "transactionIndex": 9,
      "confirmations": null,
      "from": "0x9D551f41feD6FC27B719777c224DfeCcE170004d",
      "gasPrice": {
        "_hex": "0xd8366c8f3"
      },
      "gasLimit": {
        "_hex": "0x15f90"
      },
      "to": "0xdF53003346d65C5e7A646Bc034f2b7D32FcBE56A",
      "value": {
        "_hex": "0x4026653c42259f6"
      },
      "nonce": 17,
      "data": "0x",
      "r": "0x98b78638d922815867249faf358a41adaa6a5350444d25afc143b6f701b77014",
      "s": "0x4447586129a74e9bc852e3fee6f62d70c53b61031ec729d68d3b0e13a5f8095b",
      "v": 27,
      "creates": null,
      "raw": "0xf86d11850d8366c8f383015f9094df53003346d65c5e7a646bc034f2b7d32fcbe56a8804026653c42259f6801ba098b78638d922815867249faf358a41adaa6a5350444d25afc143b6f701b77014a04447586129a74e9bc852e3fee6f62d70c53b61031ec729d68d3b0e13a5f8095b",
      "networkId": 0,
      "chainId": 0
    },
    {
      "hash": "0x89b9783aa0442101dfc235a819ff1328f570bd91d88a0b653de756faf0f03940",
      "blockHash": "0xdfd7ca6fc5971cb4fd23d4906f710c9150b8a5bf5646ffed075ddc5c60ff6e97",
      "blockNumber": 111823,
      "transactionIndex": 10,
      "confirmations": null,
      "from": "0x9D551f41feD6FC27B719777c224DfeCcE170004d",
      "gasPrice": {
        "_hex": "0xd8366c8f3"
      },
      "gasLimit": {
        "_hex": "0x15f90"
      },
      "to": "0x9568F929f633c686A624b790436B486e535fc05f",
      "value": {
        "_hex": "0x56ed84cfd2a3e"
      },
      "nonce": 18,
      "data": "0x",
      "r": "0x49038b35e279dd313abdda1fd114ffb2db0f6e919971fced32a1c764a2116fde",
      "s": "0x4f88514c9f5b30d4db4c838fa96dfa778039586f8ca26e2538336deb250de3d8",
      "v": 27,
      "creates": null,
      "raw": "0xf86c12850d8366c8f383015f90949568f929f633c686a624b790436b486e535fc05f87056ed84cfd2a3e801ba049038b35e279dd313abdda1fd114ffb2db0f6e919971fced32a1c764a2116fdea04f88514c9f5b30d4db4c838fa96dfa778039586f8ca26e2538336deb250de3d8",
      "networkId": 0,
      "chainId": 0
    },
    {
      "hash": "0xbba894d30ece3103d798833cbbcc9877fd7e1cbdd6cac5609426cc14c450e64a",
      "blockHash": "0xdfd7ca6fc5971cb4fd23d4906f710c9150b8a5bf5646ffed075ddc5c60ff6e97",
      "blockNumber": 111823,
      "transactionIndex": 11,
      "confirmations": null,
      "from": "0x9D551f41feD6FC27B719777c224DfeCcE170004d",
      "gasPrice": {
        "_hex": "0xd8366c8f3"
      },
      "gasLimit": {
        "_hex": "0x15f90"
      },
      "to": "0xeeb66aFe554366d685C7832C6c93727Ba577378D",
      "value": {
        "_hex": "0x6ba3e9ae6cb96869"
      },
      "nonce": 19,
      "data": "0x",
      "r": "0xb986618fa55033b61fd1921e79338581a508cd3d9424914a01e752f00e78a48e",
      "s": "0x2e5646c7704867d182627ff94e37637a0ec93abc7f08afa95e891f9a4c0abe52",
      "v": 27,
      "creates": null,
      "raw": "0xf86d13850d8366c8f383015f9094eeb66afe554366d685c7832c6c93727ba577378d886ba3e9ae6cb96869801ba0b986618fa55033b61fd1921e79338581a508cd3d9424914a01e752f00e78a48ea02e5646c7704867d182627ff94e37637a0ec93abc7f08afa95e891f9a4c0abe52",
      "networkId": 0,
      "chainId": 0
    },
    {
      "hash": "0xec2d1b337490713c3feb05ec34d931c520b1fb3abb25a4c9d60a66f8a72a5cdf",
      "blockHash": "0xdfd7ca6fc5971cb4fd23d4906f710c9150b8a5bf5646ffed075ddc5c60ff6e97",
      "blockNumber": 111823,
      "transactionIndex": 12,
      "confirmations": null,
      "from": "0x9D551f41feD6FC27B719777c224DfeCcE170004d",
      "gasPrice": {
        "_hex": "0xd8366c8f3"
      },
      "gasLimit": {
        "_hex": "0x15f90"
      },
      "to": "0xf2711F78854D3b5CE29fA3c550a9328D7df40706",
      "value": {
        "_hex": "0x5625fea7ae5735ba"
      },
      "nonce": 20,
      "data": "0x",
      "r": "0x64a778f4511f7748fdabd22a7e68f62feb8a1a18f914a7bdd433d13c4a7981bd",
      "s": "0x16e2709606175bde85f73be47cd58b9e6c73ebf36595926bcee6f0b547597962",
      "v": 27,
      "creates": null,
      "raw": "0xf86d14850d8366c8f383015f9094f2711f78854d3b5ce29fa3c550a9328d7df40706885625fea7ae5735ba801ba064a778f4511f7748fdabd22a7e68f62feb8a1a18f914a7bdd433d13c4a7981bda016e2709606175bde85f73be47cd58b9e6c73ebf36595926bcee6f0b547597962",
      "networkId": 0,
      "chainId": 0
    },
    {
      "hash": "0x28a884d35a0fc4051287cdc5d76b87594777f3a1a4c8ca52c86518453253cec2",
      "blockHash": "0xdfd7ca6fc5971cb4fd23d4906f710c9150b8a5bf5646ffed075ddc5c60ff6e97",
      "blockNumber": 111823,
      "transactionIndex": 13,
      "confirmations": null,
      "from": "0x9D551f41feD6FC27B719777c224DfeCcE170004d",
      "gasPrice": {
        "_hex": "0xd8366c8f3"
      },
      "gasLimit": {
        "_hex": "0x15f90"
      },
      "to": "0x6c526EC857c116541b66ED11eC3bE06b1C2B7E37",
      "value": {
        "_hex": "0x45050ed124b510"
      },
      "nonce": 21,
      "data": "0x",
      "r": "0x8c58e2b3b4939da46fcbb5809814fbc0b9a6243cbe613f16a202524c24a4afa7",
      "s": "0x11d9bf964b5f0859af9b8a6864ebeb099bc19f602884b4083c931b24a8906392",
      "v": 28,
      "creates": null,
      "raw": "0xf86c15850d8366c8f383015f90946c526ec857c116541b66ed11ec3be06b1c2b7e378745050ed124b510801ca08c58e2b3b4939da46fcbb5809814fbc0b9a6243cbe613f16a202524c24a4afa7a011d9bf964b5f0859af9b8a6864ebeb099bc19f602884b4083c931b24a8906392",
      "networkId": 0,
      "chainId": 0
    },
    {
      "hash": "0x0256de2e97c62fef7bfff27729edcc1cf2d1adbfe39f77eb3c4ccb0eba68f719",
      "blockHash": "0xdfd7ca6fc5971cb4fd23d4906f710c9150b8a5bf5646ffed075ddc5c60ff6e97",
      "blockNumber": 111823,
      "transactionIndex": 14,
      "confirmations": null,
      "from": "0x9D551f41feD6FC27B719777c224DfeCcE170004d",
      "gasPrice": {
        "_hex": "0xd8366c8f3"
      },
      "gasLimit": {
        "_hex": "0x15f90"
      },
      "to": "0x683FEDdafc2A8542744a4587DE0C45626D7B8E68",
      "value": {
        "_hex": "0x347621d9e828"
      },
      "nonce": 22,
      "data": "0x",
      "r": "0x2f9605ecefab7fb25fb0034486943fa1bda14cdb12b49c8467b3288c9ef6a4bb",
      "s": "0x1ba8d3beba46e09e97a281bf19a48b5413b7b41accf3b202ff8981c5b1173cf9",
      "v": 27,
      "creates": null,
      "raw": "0xf86b16850d8366c8f383015f9094683feddafc2a8542744a4587de0c45626d7b8e6886347621d9e828801ba02f9605ecefab7fb25fb0034486943fa1bda14cdb12b49c8467b3288c9ef6a4bba01ba8d3beba46e09e97a281bf19a48b5413b7b41accf3b202ff8981c5b1173cf9",
      "networkId": 0,
      "chainId": 0
    }
  ]
}