{
  "hash": "0xadb6e1e135ec1fc9e274ad85cb6eda981001c63ae246d85077b41ac3f1c529b9",
  "parentHash": "0x9a407dc41bd9f44c5a324310b54713233b85a7aa0e6acf9d8c7fb6c9c4438edb",
  "number": 48448,
  "timestamp": 1438957290,
  "nonce": "0x2c4720760d0282b6",
  "difficulty": 1458594777414,
  "gasLimit": {
    "_hex": "0x17644"
  },
  "gasUsed": {
    "_hex": "0x5208"
  },
  "miner": "0xe6A7a1d47ff21B6321162AEA7C6CB457D5476Bca",
  "extraData": "0x657468706f6f6c2e6f7267",
  "transactions": [
    {
      "hash": "0x139d448603ab25fad15ad1666ac3784809d58e27eb2720920fdd81a4d5e69591",
      "blockHash": "0xadb6e1e135ec1fc9e274ad85cb6eda981001c63ae246d85077b41ac3f1c529b9",
      "blockNumber": 48448,
      "transactionIndex": 0,
      "confirmations": null,
      "from": "0xCDfD8217339725d7ebac11A63655F265eFF1CC3d",
      "gasPrice": {
        "_hex": "0x1084cba56dd"
      },
      "gasLimit": {
        "_hex": "0x5208"
      },
      "to": "0xb6Ad95318E9C1727be55974BBBBAcf7196923E4c",
      "value": {
        "_hex": "0x878678326eac900000"
      },
      "nonce": 1,
      "data": "0x",
      "r": "0x6d746f60f20eb500e29ef648845b7997aacb937bb755ce534b05d8ef649ff390",
      "s": "0x01a1584d205c419d4c7d3b5509050d84d3d3e661d6db873308e36dc7febe2f79",
      "v": 27,
      "creates": null,
      "raw": "0xf86e018601084cba56dd82520894b6ad95318e9c1727be55974bbbbacf7196923e4c89878678326eac900000801ba06d746f60f20eb500e29ef648845b7997aacb937bb755ce534b05d8ef649ff390a001a1584d205c419d4c7d3b5509050d84d3d3e661d6db873308e36dc7febe2f79",
      "networkId": 0,
      "chainId": 0
    }
  ]
}