{
  "hash": "0x16ff273c65f742c8e31eca5e8991a9ddf2f287494819fb7f1208e31c7e73a560",
  "parentHash": "0x691e2563537885b292cce84002faf6857e26dd575e9d16da5e10b28bc3ed94fc",
  "number": 107059,
  "timestamp": 1439915194,
  "nonce": "0xf0b834da33ffd98b",
  "difficulty": 4463686011818,
  "gasLimit": {
    "_hex": "0x2fefd8"
  },
  "gasUsed": {
    "_hex": "0xb761"
  },
  "miner": "0xe6A7a1d47ff21B6321162AEA7C6CB457D5476Bca",
  "extraData": "0x476574682f76312e302e312d38326566323666362f6c696e75782f676f312e34",
  "transactions": [
    {
      "hash": "0xc38aa76983cbef2e30ef0b2b89522a2b5396815553bcb32de1281fc20b34616d",
      "blockHash": "0x16ff273c65f742c8e31eca5e8991a9ddf2f287494819fb7f1208e31c7e73a560",
      "blockNumber": 107059,
      "transactionIndex": 0,
      "confirmations": null,
      "from": "0xc469E0161968f12A38E4c1A1c153a18207e040c8",
      "gasPrice": {
        "_hex": "0xd3ed0048b"
      },
      "gasLimit": {
        "_hex": "0x3d090"
      },
      "to": "0x4d6387f3B967dA39B11DE111158D49754C31985d",
      "value": {
        "_hex": "0x0"
      },
      "nonce": 11,
      "data": "0xf010264a000000000000000000000000000000000000000000000000000000000000000500000000000000000000000000000000000000000000000000000000000000a0000000000000000000000000000000000000000000000000016345785d8a0000000000000000000000000000c469e0161968f12a38e4c1a1c153a18207e040c8000000000000000000000000056507108fe6d30189eccd6cd7f4fad56eeef6220000000000000000000000000000000000000000000000000000000000000022314858416b567468516268586d3861365a755a41374c4759685a6a66734243347954000000000000000000000000000000000000000000000000000000000000",
      "r": "0xced2223452c7a2401af318bf0eac75934e6d563993744cb68f7fddb923cef91e",
      "s": "0x5021461d71f97e4acde6b47c7b8c625a333f88fa0aa72360d6c7a9119c6c9e7c",
      "v": 28,
      "creates": null,
      "raw": "0xf9016b0b850d3ed0048b8303d090944d6387f3b967da39b11de111158d49754c31985d80b90104f010264a000000000000000000000000000000000000000000000000000000000000000500000000000000000000000000000000000000000000000000000000000000a0000000000000000000000000000000000000000000000000016345785d8a0000000000000000000000000000c469e0161968f12a38e4c1a1c153a18207e040c8000000000000000000000000056507108fe6d30189eccd6cd7f4fad56eeef6220000000000000000000000000000000000000000000000000000000000000022314858416b567468516268586d3861365a755a41374c4759685a6a667342433479540000000000000000000000000000000000000000000000000000000000001ca0ced2223452c7a2401af318bf0eac75934e6d563993744cb68f7fddb923cef91ea05021461d71f97e4acde6b47c7b8c625a333f88fa0aa72360d6c7a9119c6c9e7c",
      "networkId": 0,
      "chainId": 0
    }
  ]
}