{
  "hash": "0x6300148c8ac9660d8057455fefff47b776fc5aae5a5138c5e022e240dfdeeefb",
  "parentHash": "0xa7de6bb54953877351fea3292d19f565eac4633442bf7c8c9dad8f31a7c2871b",
  "number": 105193,
  "timestamp": 1439883360,
  "nonce": "0x3b79cb6344728ed7",
  "difficulty": 4327315300862,
  "gasLimit": {
    "_hex": "0x2fefd8"
  },
  "gasUsed": {
    "_hex": "0x546c"
  },
  "miner": "0xf8E0CA3Ed80bd541b94BEdCf259e8CF2141A9523",
  "extraData": "0x476574682f76312e302e312f77696e646f77732f676f312e342e32",
  "transactions": [
    {
      "hash": "0xe968430374e732a6b79d8c7cd930e591135bf66b0113907927a84efdaece5081",
      "blockHash": "0x6300148c8ac9660d8057455fefff47b776fc5aae5a5138c5e022e240dfdeeefb",
      "blockNumber": 105193,
      "transactionIndex": 0,
      "confirmations": null,
      "from": "0xC21fa6643A1F14C02996aD7144b75926E87ECb4B",
      "gasPrice": {
        "_hex": "0xd90ae0b90"
      },
      "gasLimit": {
        "_hex": "0x55f0"
      },
      "to": "0x2910543Af39abA0Cd09dBb2D50200b3E800A63D2",
      "value": {
        "_hex": "0x35e285658ff2480000"
      },
      "nonce": 4,
      "data": "0x454e43415255575738",
      "r": "0x4974ab8b95664e334a304485d5e3d81452411e2d670366e45e9e05fe34af9219",
      "s": "0x4e29bff0d81e9864a6ea4a963450216958ff07a2bf56204b6d747da14c5d0bd8",
      "v": 28,
      "creates": null,
      "raw": "0xf87604850d90ae0b908255f0942910543af39aba0cd09dbb2d50200b3e800a63d28935e285658ff248000089454e434152555757381ca04974ab8b95664e334a304485d5e3d81452411e2d670366e45e9e05fe34af9219a04e29bff0d81e9864a6ea4a963450216958ff07a2bf56204b6d747da14c5d0bd8",
      "networkId": 0,
      "chainId": 0
    }
  ]
}