{
  "hash": "0xa7f557fed23d629c66ad193936d89f0c0abef7c842d896231c9b4d585cad578a",
  "parentHash": "0x89493c924312090e9bf9929bbb180c05579e67655d1c65b5af9a355e72d1b9eb",
  "number": 93996,
  "timestamp": 1439700920,
  "nonce": "0xc6d1a824c18a61fd",
  "difficulty": 3476643275271,
  "gasLimit": {
    "_hex": "0x2fefd8"
  },
  "gasUsed": {
    "_hex": "0xf618"
  },
  "miner": "0xa70a9a7040d542C632D8e0bE7c5513A8a5Bbc752",
  "extraData": "0x",
  "transactions": [
    {
      "hash": "0x1e45cd143a2df209bcaa8d225bf86bb475019e15b0c79b023445eb7c8bf22360",
      "blockHash": "0xa7f557fed23d629c66ad193936d89f0c0abef7c842d896231c9b4d585cad578a",
      "blockNumber": 93996,
      "transactionIndex": 0,
      "confirmations": null,
      "from": "0x886e83d9133F65B9c27A946f699E88e71A888E4C",
      "gasPrice": {
        "_hex": "0xcdf8ed910"
      },
      "gasLimit": {
        "_hex": "0x15f90"
      },
      "to": "0xCbbdAd70d0ff27254925AD37B5C135EEe1116615",
      "value": {
        "_hex": "0xdbd2fc137a30000"
      },
      "nonce": 8,
      "data": "0x",
      "r": "0xb026f066d32b49f4644d7d124cdc7082ac4384661901d183b2a5a4e63bbc43bd",
      "s": "0x183f5116cfd237ec7ef8630ec3c55dd186e05d7f58f5dee797e97a1c6c6a525e",
      "v": 28,
      "creates": null,
      "raw": "0xf86d08850cdf8ed91083015f9094cbbdad70d0ff27254925ad37b5c135eee1116615880dbd2fc137a30000801ca0b026f066d32b49f4644d7d124cdc7082ac4384661901d183b2a5a4e63bbc43bda0183f5116cfd237ec7ef8630ec3c55dd186e05d7f58f5dee797e97a1c6c6a525e",
      "networkId": 0,
      "chainId": 0
    },
    {
      "hash": "0xf1744371a41052938ebecacd3e34c8419465ad75d3a85405e68351f2a29a8bd0",
      "blockHash": "0xa7f557fed23d629c66ad193936d89f0c0abef7c842d896231c9b4d585cad578a",
      "blockNumber": 93996,
      "transactionIndex": 1,
      "confirmations": null,
      "from": "0xCb9245908Fec879CFCDbc5574B473ABa09405901",
      "gasPrice": {
        "_hex": "0xba43b7400"
      },
      "gasLimit": {
        "_hex": "0x5208"
      },
      "to": "0xC47Aaa860008be6f65B58c6C6E02a84e666EfE31",
      "value": {
        "_hex": "0x1523445bc9d12800"
      },
      "nonce": 0,
      "data": "0x",
      "r": "0xf884e222e8834b74f0749233be4b22bf2b18d3c32b24880cec2c62cffe8b153a",
      "s": "0x0b502f70ce2870e2ad5cd77483eed63d94067a9a240644688cfde540795e12b8",
      "v": 28,
      "creates": null,
      "raw": "0xf86c80850ba43b740082520894c47aaa860008be6f65b58c6c6e02a84e666efe31881523445bc9d12800801ca0f884e222e8834b74f0749233be4b22bf2b18d3c32b24880cec2c62cffe8b153aa00b502f70ce2870e2ad5cd77483eed63d94067a9a240644688cfde540795e12b8",
      "networkId": 0,
      "chainId": 0
    },
    {
      "hash": "0x0c8e23e202093c6d7a126cac97eb000503d7ff6ad94b221c469c9b43b408c401",
      "blockHash": "0xa7f557fed23d629c66ad193936d89f0c0abef7c842d896231c9b4d585cad578a",
      "blockNumber": 93996,
      "transactionIndex": 2,
      "confirmations": null,
      "from": "0xc93a69dFC0fb3E867D9207599f7fe87d51619635",
      "gasPrice": {
        "_hex": "0xba43b7400"
      },
      "gasLimit": {
        "_hex": "0x5208"
      },
      "to": "0xC47Aaa860008be6f65B58c6C6E02a84e666EfE31",
      "value": {
        "_hex": "0x56ba01c42c64b6000"
      },
      "nonce": 6,
      "data": "0x",
      "r": "0x3c7eb426294268925eec3cb29a93d92150b334dd51bfda69864085e5c8f93076",
      "s": "0x07a65cb5d729b25ae7ea9375971eb9d0f69b1912e20e8807a6e4cd293bda0c9a",
      "v": 27,
      "creates": null,
      "raw": "0xf86d06850ba43b740082520894c47aaa860008be6f65b58c6c6e02a84e666efe3189056ba01c42c64b6000801ba03c7eb426294268925eec3cb29a93d92150b334dd51bfda69864085e5c8f93076a007a65cb5d729b25ae7ea9375971eb9d0f69b1912e20e8807a6e4cd293bda0c9a",
      "networkId": 0,
      "chainId": 0
    }
  ]
}