{
  "hash": "0x55854ba9ab72463bea98258b0e768d3d4293a93d88432af3f02a170e01544dcc",
  "parentHash": "0x3c020f1f02df45d7b64c6005d872f2673cee8f2a45739cf7e2a2302062163e24",
  "number": 121891,
  "timestamp": 1440184442,
  "nonce": "0x31f2bcb05787f8ba",
  "difficulty": 4477610731260,
  "gasLimit": {
    "_hex": "0x2fefd8"
  },
  "gasUsed": {
    "_hex": "0xa410"
  },
  "miner": "0xe6A7a1d47ff21B6321162AEA7C6CB457D5476Bca",
  "extraData": "0xd783010002844765746887676f312e342e32856c696e7578",
  "transactions": [
    {
      "hash": "0x3298672fe4cb33a22c1bf3313c9b56ddea697237d79788a1c376bf5a3d834356",
      "blockHash": "0x55854ba9ab72463bea98258b0e768d3d4293a93d88432af3f02a170e01544dcc",
      "blockNumber": 121891,
      "transactionIndex": 0,
      "confirmations": null,
      "from": "0x34d34F0a638F6991e4E2536F41295DF6E934A646",
      "gasPrice": {
        "_hex": "0xd13a3bff7"
      },
      "gasLimit": {
        "_hex": "0x5208"
      },
      "to": "0x32Be343B94f860124dC4fEe278FDCBD38C102D88",
      "value": {
        "_hex": "0x3fc1defc47106c00"
      },
      "nonce": 31,
      "data": "0x",
      "r": "0x6cb806a0ee21e5ae8599ae1ccc2cf0767b1f9290e58a9dd1f09bb2b60f8ace2f",
      "s": "0x5d28943b8942f2f18f1a918dfa95b2a44d3b9edd0e8aa38295060403d5489408",
      "v": 28,
      "creates": null,
      "raw": "0xf86c1f850d13a3bff78252089432be343b94f860124dc4fee278fdcbd38c102d88883fc1defc47106c00801ca06cb806a0ee21e5ae8599ae1ccc2cf0767b1f9290e58a9dd1f09bb2b60f8ace2fa05d28943b8942f2f18f1a918dfa95b2a44d3b9edd0e8aa38295060403d5489408",
      "networkId": 0,
      "chainId": 0
    },
    {
      "hash": "0x52622502c6ae040f272bfb3e78c66e2ed665107954cbe2fd738d83335b22cf4d",
      "blockHash": "0x55854ba9ab72463bea98258b0e768d3d4293a93d88432af3f02a170e01544dcc",
      "blockNumber": 121891,
      "transactionIndex": 1,
      "confirmations": null,
      "from": "0xe6A7a1d47ff21B6321162AEA7C6CB457D5476Bca",
      "gasPrice": {
        "_hex": "0xba43b7400"
      },
      "gasLimit": {
        "_hex": "0x55f0"
      },
      "to": "0x0eDEd3DA479d0beF8eeC92A76644D3f4E3C177f7",
      "value": {
        "_hex": "0x1d49352a14ad2e158"
      },
      "nonce": 6738,
      "data": "0x",
      "r": "0x4f494e3efddfcfd8bae35637e80a0624a0808c0dccc28ced6e4485260d278732",
      "s": "0x069c6f3eb9f75a37003cec772a6af41ee0ab1b851c1410a9160c07c9838e7c0a",
      "v": 28,
      "creates": null,
      "raw": "0xf86f821a52850ba43b74008255f0940eded3da479d0bef8eec92a76644d3f4e3c177f78901d49352a14ad2e158801ca04f494e3efddfcfd8bae35637e80a0624a0808c0dccc28ced6e4485260d278732a0069c6f3eb9f75a37003cec772a6af41ee0ab1b851c1410a9160c07c9838e7c0a",
      "networkId": 0,
      "chainId": 0
    }
  ]
}