{
  "hash": "0x3d864ddc72fe0baddda8995466baee66349e1b30acd32826241a88517f61c513",
  "parentHash": "0x48b5d10ebb783b7e44716b3d39db002b258daa39758724a83f7f97e087e6d342",
  "number": 106129,
  "timestamp": 1439899119,
  "nonce": "0xc07c8673f8042175",
  "difficulty": 4468542585622,
  "gasLimit": {
    "_hex": "0x2fefd8"
  },
  "gasUsed": {
    "_hex": "0xa410"
  },
  "miner": "0x9D49F602b0fdb924Bd63DDE2Bd0907E4A07c63a7",
  "extraData": "0x476574682f76312e302e312f6c696e75782f676f312e342e32",
  "transactions": [
    {
      "hash": "0x63eb6bdc33c0fb70333264def5e970a04370db0fac438c1bff9759c306c73943",
      "blockHash": "0x3d864ddc72fe0baddda8995466baee66349e1b30acd32826241a88517f61c513",
      "blockNumber": 106129,
      "transactionIndex": 0,
      "confirmations": null,
      "from": "0x4D67f4F0Db45b3B5a3424B39ed8d972F710381D5",
      "gasPrice": {
        "_hex": "0xd79f8bc97"
      },
      "gasLimit": {
        "_hex": "0x5208"
      },
      "to": "0x32Be343B94f860124dC4fEe278FDCBD38C102D88",
      "value": {
        "_hex": "0x2d03d7a5a7ff70000"
      },
      "nonce": 27,
      "data": "0x",
      "r": "0x1aa81e3f8b0f23fc4db4968b66745e1fb4509585d68a45f86762453c0a67c2ab",
      "s": "0x1e2f443a93213515cb6b00f72c638d45ec8a9c5e8817895223e5991bd0bfaa5e",
      "v": 28,
      "creates": null,
      "raw": "0xf86d1b850d79f8bc978252089432be343b94f860124dc4fee278fdcbd38c102d888902d03d7a5a7ff70000801ca01aa81e3f8b0f23fc4db4968b66745e1fb4509585d68a45f86762453c0a67c2aba01e2f443a93213515cb6b00f72c638d45ec8a9c5e8817895223e5991bd0bfaa5e",
      "networkId": 0,
      "chainId": 0
    },
    {
      "hash": "0xc3cc1d22e19252d30d4445d19fc65fec2080ec18e71773d98386eff59cd03d2b",
      "blockHash": "0x3d864ddc72fe0baddda8995466baee66349e1b30acd32826241a88517f61c513",
      "blockNumber": 106129,
      "transactionIndex": 1,
      "confirmations": null,
      "from": "0xa7ae731fD9EbF24D5a99104a3c2a65a7240B2B04",
      "gasPrice": {
        "_hex": "0xd79f8bc97"
      },
      "gasLimit": {
        "_hex": "0x5208"
      },
      "to": "0x32Be343B94f860124dC4fEe278FDCBD38C102D88",
      "value": {
        "_hex": "0x1b1ae0856549970000"
      },
      "nonce": 5,
      "data": "0x",
      "r": "0xd7a9f900a8a12b3c1e06b6aab1716aa8714de85b24cb6afa5ff1b7d169129911",
      "s": "0x100f1bf36eaaa850ef5c44681e9b55d94075fc40f181469c520234dd64452b7e",
      "v": 28,
      "creates": null,
      "raw": "0xf86d05850d79f8bc978252089432be343b94f860124dc4fee278fdcbd38c102d88891b1ae0856549970000801ca0d7a9f900a8a12b3c1e06b6aab1716aa8714de85b24cb6afa5ff1b7d169129911a0100f1bf36eaaa850ef5c44681e9b55d94075fc40f181469c520234dd64452b7e",
      "networkId": 0,
      "chainId": 0
    }
  ]
}