{
  "hash": "0xfbcffcb525b01bc89dca119ff6a0ad169200462a67b88d3e578725d2f62f10f8",
  "parentHash": "0x5e373ec2c4b6a1bc77978db38289ac59b64630136c1ea91fe250bb212811978f",
  "number": 52722,
  "timestamp": 1439026286,
  "nonce": "0xb7c93fcec52148c4",
  "difficulty": 1568635579279,
  "gasLimit": {
    "_hex": "0x189624"
  },
  "gasUsed": {
    "_hex": "0xa410"
  },
  "miner": "0xf32866D5cE9a9b5673e076be48AbCd6ED48ADe78",
  "extraData": "0x476574682f76312e302e312d38326566323666362f6c696e75782f676f312e34",
  "transactions": [
    {
      "hash": "0xc063bb2e421e27b4a23c5560ca4aa0f17df9f472bf8bb2aa2a3dcc0d7dbc146a",
      "blockHash": "0xfbcffcb525b01bc89dca119ff6a0ad169200462a67b88d3e578725d2f62f10f8",
      "blockNumber": 52722,
      "transactionIndex": 0,
      "confirmations": null,
      "from": "0xF5EeDc192aB70b08D8354384aD94efD095849E00",
      "gasPrice": {
        "_hex": "0xe193286e1"
      },
      "gasLimit": {
        "_hex": "0x5208"
      },
      "to": "0x32Be343B94f860124dC4fEe278FDCBD38C102D88",
      "value": {
        "_hex": "0x550016c42a1fc0000"
      },
      "nonce": 4,
      "data": "0x",
      "r": "0xde5199a072c2a05267f16ac8a33824721d19a7954bfbcac89133c1f078e83a2b",
      "s": "0x44a667041a3224444eee06b7b2a50c369b1eed3a0e348417cd7e61717e1eb4d7",
      "v": 27,
      "creates": null,
      "raw": "0xf86d04850e193286e18252089432be343b94f860124dc4fee278fdcbd38c102d88890550016c42a1fc0000801ba0de5199a072c2a05267f16ac8a33824721d19a7954bfbcac89133c1f078e83a2ba044a667041a3224444eee06b7b2a50c369b1eed3a0e348417cd7e61717e1eb4d7",
      "networkId": 0,
      "chainId": 0
    },
    {
      "hash": "0x0e35b1f282f47bc830614db176f2949fbb34c3a5e28c3ebabdb865ca1139348d",
      "blockHash": "0xfbcffcb525b01bc89dca119ff6a0ad169200462a67b88d3e578725d2f62f10f8",
      "blockNumber": 52722,
      "transactionIndex": 1,
      "confirmations": null,
      "from": "0x99425213944D7885b88Ec9D20D974B7Ac89D62E2",
      "gasPrice": {
        "_hex": "0xe193286e1"
      },
      "gasLimit": {
        "_hex": "0x5208"
      },
      "to": "0x32Be343B94f860124dC4fEe278FDCBD38C102D88",
      "value": {
        "_hex": "0xdffb922a4d92000"
      },
      "nonce": 0,
      "data": "0x",
      "r": "0xb8ce3694f69269e1137013756379c829b065696d49040f7588ad006c77031bae",
      "s": "0x4dc65c8c25cbfba31813ff3bee8533aa86396cef9f2794e42981af82ab1e5a2f",
      "v": 28,
      "creates": null,
      "raw": "0xf86c80850e193286e18252089432be343b94f860124dc4fee278fdcbd38c102d88880dffb922a4d92000801ca0b8ce3694f69269e1137013756379c829b065696d49040f7588ad006c77031baea04dc65c8c25cbfba31813ff3bee8533aa86396cef9f2794e42981af82ab1e5a2f",
      "networkId": 0,
      "chainId": 0
    }
  ]
}