{
  "hash": "0xb248281798ebd055946370f60365339d0402bfb1bd07bd5f6dd5043931f0a839",
  "parentHash": "0x4243ec91d05c12596d94b8ae28522e424da44c9843999a5a3e64a7408fe70f67",
  "number": 117876,
  "timestamp": 1440116807,
  "nonce": "0x0de5fad5ba416dfb",
  "difficulty": 4335571191316,
  "gasLimit": {
    "_hex": "0x2fefd8"
  },
  "gasUsed": {
    "_hex": "0xa410"
  },
  "miner": "0x17B719A685fC6C0002798e7f8151D0E2E83B7497",
  "extraData": "0x",
  "transactions": [
    {
      "hash": "0xcb0fa46f7d2ff05f892420fa40d4bdc1c77a59b066a58ae4541af9b3409d4d0f",
      "blockHash": "0xb248281798ebd055946370f60365339d0402bfb1bd07bd5f6dd5043931f0a839",
      "blockNumber": 117876,
      "transactionIndex": 0,
      "confirmations": null,
      "from": "0x8263B7757b139904C7cD8511B3D0a6D1479848Ba",
      "gasPrice": {
        "_hex": "0xba43b7400"
      },
      "gasLimit": {
        "_hex": "0x5208"
      },
      "to": "0x32Be343B94f860124dC4fEe278FDCBD38C102D88",
      "value": {
        "_hex": "0x3c3d2cf3749ac000"
      },
      "nonce": 10,
      "data": "0x",
      "r": "0xaf96816808987827b3f37d87107a12f63be4e822a52761764c4e1907553c5519",
      "s": "0x73783f36245108c610e58b1d043a23cc974bb7f8490d8264534de9f786cd94c2",
      "v": 27,
      "creates": null,
      "raw": "0xf86c0a850ba43b74008252089432be343b94f860124dc4fee278fdcbd38c102d88883c3d2cf3749ac000801ba0af96816808987827b3f37d87107a12f63be4e822a52761764c4e1907553c5519a073783f36245108c610e58b1d043a23cc974bb7f8490d8264534de9f786cd94c2",
      "networkId": 0,
      "chainId": 0
    },
    {
      "hash": "0xd7521767e6eabadc32f5811271658413c4ce9228ad5d37ac7bdabe47e17d03c0",
      "blockHash": "0xb248281798ebd055946370f60365339d0402bfb1bd07bd5f6dd5043931f0a839",
      "blockNumber": 117876,
      "transactionIndex": 1,
      "confirmations": null,
      "from": "0xa69Dd2F55e5A3d4CB2B4b3eE2f613562b57a1D2F",
      "gasPrice": {
        "_hex": "0xba43b7400"
      },
      "gasLimit": {
        "_hex": "0x5208"
      },
      "to": "0x32Be343B94f860124dC4fEe278FDCBD38C102D88",
      "value": {
        "_hex": "0xf5e2d8a3523dc00"
      },
      "nonce": 7,
      "data": "0x",
      "r": "0xff2f9ad4089b0d58b0307a5f8c1d52a48a8d1196385336ba25c21c8a8b059e1a",
      "s": "0x71c2fcd47a0e2677e823a57ea059979f70d0d7ffa2e8b777253ccc7867ff038b",
      "v": 27,
      "creates": null,
      "raw": "0xf86c07850ba43b74008252089432be343b94f860124dc4fee278fdcbd38c102d88880f5e2d8a3523dc00801ba0ff2f9ad4089b0d58b0307a5f8c1d52a48a8d1196385336ba25c21c8a8b059e1aa071c2fcd47a0e2677e823a57ea059979f70d0d7ffa2e8b777253ccc7867ff038b",
      "networkId": 0,
      "chainId": 0
    }
  ]
}