{
  "hash": "0x9914f2136b9cb164e4333fd5952590950958ff5fa01f00671ff6e3d4b0dec18b",
  "parentHash": "0x98bdff25da9c854dc2edd3f3e206de6f1426db6455ff989331df25a394c862d8",
  "number": 121201,
  "timestamp": 1440173108,
  "nonce": "0xe722b7326ebdbc18",
  "difficulty": 4408554413937,
  "gasLimit": {
    "_hex": "0x2fefd8"
  },
  "gasUsed": {
    "_hex": "0x5208"
  },
  "miner": "0xe6A7a1d47ff21B6321162AEA7C6CB457D5476Bca",
  "extraData": "0xd783010002844765746887676f312e342e32856c696e7578",
  "transactions": [
    {
      "hash": "0x01243ce1f295783d4fb9edd74a7975e1d87d327cc1b72900c02317d12a438f74",
      "blockHash": "0x9914f2136b9cb164e4333fd5952590950958ff5fa01f00671ff6e3d4b0dec18b",
      "blockNumber": 121201,
      "transactionIndex": 0,
      "confirmations": null,
      "from": "0xf8c7f34A38b31801dA43063477B12B27d0F203ff",
      "gasPrice": {
        "_hex": "0xba43b7400"
      },
      "gasLimit": {
        "_hex": "0x15f90"
      },
      "to": "0xf3D7d4E1f943a6b10222B21E31da93203b8868cB",
      "value": {
        "_hex": "0x1"
      },
      "nonce": 0,
      "data": "0x",
      "r": "0x9d2dacf1e02dfcbfcfe707870f2d972da4f5bb3e99ef327d48045ddaf09283a3",
      "s": "0x48f5706501e0be9b8d15ffe43be8eb53dfeecd408a85e9452134ea9e7a9cabe0",
      "v": 27,
      "creates": null,
      "raw": "0xf86580850ba43b740083015f9094f3d7d4e1f943a6b10222b21e31da93203b8868cb01801ba09d2dacf1e02dfcbfcfe707870f2d972da4f5bb3e99ef327d48045ddaf09283a3a048f5706501e0be9b8d15ffe43be8eb53dfeecd408a85e9452134ea9e7a9cabe0",
      "networkId": 0,
      "chainId": 0
    }
  ]
}