{
  "hash": "0x93df5197d92f8c00b0d1fa2f08bd9fcf75a00db54bf48abb6aef7602e0420f19",
  "parentHash": "0x39bcabad733f8017adb5a7034d453c2c4e3f9b24eb08d72b0aab6f367c8484a9",
  "number": 89777,
  "timestamp": 1439628849,
  "nonce": "0x586db9d4a58f8044",
  "difficulty": 3346770913174,
  "gasLimit": {
    "_hex": "0x2fefd8"
  },
  "gasUsed": {
    "_hex": "0x99cf0"
  },
  "miner": "0xe6A7a1d47ff21B6321162AEA7C6CB457D5476Bca",
  "extraData": "0x476574682f76312e302e312d38326566323666362f6c696e75782f676f312e34",
  "transactions": [
    {
      "hash": "0x41046a8725fc4439866825a13ecc3479648b74292b13044d93eb1ea18c412281",
      "blockHash": "0x93df5197d92f8c00b0d1fa2f08bd9fcf75a00db54bf48abb6aef7602e0420f19",
      "blockNumber": 89777,
      "transactionIndex": 0,
      "confirmations": null,
      "from": "0xe6A7a1d47ff21B6321162AEA7C6CB457D5476Bca",
      "gasPrice": {
        "_hex": "0xdf3f091dd"
      },
      "gasLimit": {
        "_hex": "0x55f0"
      },
      "to": "0x4adA827a479Cf31e27be19Fcf33Fb06D881057b7",
      "value": {
        "_hex": "0x21b94881cdfa4e30"
      },
      "nonce": 2044,
      "data": "0x",
      "r": "0xab3c5d42ca62e4f7f5ed898b6fda8faa931f0a2401222a7a419a6cc1bf6de6ad",
      "s": "0x2cf3b535939d53e866d8f1c530ebbe9dce313dc8e19f9df15645cad3158df378",
      "v": 27,
      "creates": null,
      "raw": "0xf86e8207fc850df3f091dd8255f0944ada827a479cf31e27be19fcf33fb06d881057b78821b94881cdfa4e30801ba0ab3c5d42ca62e4f7f5ed898b6fda8faa931f0a2401222a7a419a6cc1bf6de6ada02cf3b535939d53e866d8f1c530ebbe9dce313dc8e19f9df15645cad3158df378",
      "networkId": 0,
      "chainId": 0
    },
    {
      "hash": "0xd855c7d08d6547ec43b2f69a9b614a525cd155b474f15f1bf05cec7af3e7015d",
      "blockHash": "0x93df5197d92f8c00b0d1fa2f08bd9fcf75a00db54bf48abb6aef7602e0420f19",
      "blockNumber": 89777,
      "transactionIndex": 1,
      "confirmations": null,
      "from": "0xe6A7a1d47ff21B6321162AEA7C6CB457D5476Bca",
      "gasPrice": {
        "_hex": "0xdf3f091dd"
      },
      "gasLimit": {
        "_hex": "0x55f0"
      },
      "to": "0x0156B1dF46A295901BdCA64D7809fd623AE50129",
      "value": {
        "_hex": "0x22033e741a17c680"
      },
      "nonce": 2045,
      "data": "0x",
      "r": "0x897298f9cbdc58b6c815931c58b06446d51d3eb1e75de7ab74eb7c4b140f49ad",
      "s": "0x55a1268c04be874185b9bc9fcff474c941e8cccfb59189224978cbc7715d9473",
      "v": 28,
      "creates": null,
      "raw": "0xf86e8207fd850df3f091dd8255f0940156b1df46a295901bdca64d7809fd623ae501298822033e741a17c680801ca0897298f9cbdc58b6c815931c58b06446d51d3eb1e75de7ab74eb7c4b140f49ada055a1268c04be874185b9bc9fcff474c941e8cccfb59189224978cbc7715d9473",
      "networkId": 0,
      "chainId": 0
    },
    {
      "hash": "0xb92e590a31dcca0fa3b8c63bd367b58db0be6f05b3ba7e2d303695447dabf2c0",
      "blockHash": "0x93df5197d92f8c00b0d1fa2f08bd9fcf75a00db54bf48abb6aef7602e0420f19",
      "blockNumber": 89777,
      "transactionIndex": 2,
      "confirmations": null,
      "from": "0xe6A7a1d47ff21B6321162AEA7C6CB457D5476Bca",
      "gasPrice": {
        "_hex": "0xdf3f091dd"
      },
      "gasLimit": {
        "_hex": "0x55f0"
      },
      "to": "0xC8E18619E6F0976FC389a37cba21bc6d080284ee",
      "value": {
        "_hex": "0x22058d9286c93a24"
      },
      "nonce": 2046,
      "data": "0x",
      "r": "0xe7a6d5e6305a3ef68a45e2adadca88c793213ac0635a6ea5e077f068a1f48a28",
      "s": "0x33a6ad190e318432150b083f5748260b938180925dfd1b7e11a28da3f9c0f195",
      "v": 28,
      "creates": null,
      "raw": "0xf86e8207fe850df3f091dd8255f094c8e18619e6f0976fc389a37cba21bc6d080284ee8822058d9286c93a24801ca0e7a6d5e6305a3ef68a45e2adadca88c793213ac0635a6ea5e077f068a1f48a28a033a6ad190e318432150b083f5748260b938180925dfd1b7e11a28da3f9c0f195",
      "networkId": 0,
      "chainId": 0
    },
    {
      "hash": "0x3f1998a779c793399416cffb573a88aa24b0adf6a9d6e7a60752e18a824c9fa6",
      "blockHash": "0x93df5197d92f8c00b0d1fa2f08bd9fcf75a00db54bf48abb6aef7602e0420f19",
      "blockNumber": 89777,
      "transactionIndex": 3,
      "confirmations": null,
      "from": "0xe6A7a1d47ff21B6321162AEA7C6CB457D5476Bca",
      "gasPrice": {
        "_hex": "0xdf3f091dd"
      },
      "gasLimit": {
        "_hex": "0x55f0"
      },
      "to": "0xBdf4Eb4b74b32a4CEad5E49cc4F514F178EBCe6e",
      "value": {
        "_hex": "0x226f6f90b9d5ce24"
      },
      "nonce": 2047,
      "data": "0x",
      "r": "0x929b7a74d28913cc6e721b5b43cefe7ddcc5e626e6aa21396d1ee440ab830ad0",
      "s": "0x1378a417446724f9dfc6ad44f08d0dbd2d557067626ad7b151389f8ff59991c3",
      "v": 28,
      "creates": null,
      "raw": "0xf86e8207ff850df3f091dd8255f094bdf4eb4b74b32a4cead5e49cc4f514f178ebce6e88226f6f90b9d5ce24801ca0929b7a74d28913cc6e721b5b43cefe7ddcc5e626e6aa21396d1ee440ab830ad0a01378a417446724f9dfc6ad44f08d0dbd2d557067626ad7b151389f8ff59991c3",
      "networkId": 0,
      "chainId": 0
    },
    {
      "hash": "0x602dda1105d64b9ea48527a859aaa34985749f1693f7699f472e15129b029303",
      "blockHash": "0x93df5197d92f8c00b0d1fa2f08bd9fcf75a00db54bf48abb6aef7602e0420f19",
      "blockNumber": 89777,
      "transactionIndex": 4,
      "confirmations": null,
      "from": "0xe6A7a1d47ff21B6321162AEA7C6CB457D5476Bca",
      "gasPrice": {
        "_hex": "0xdf3f091dd"
      },
      "gasLimit": {
        "_hex": "0x55f0"
      },
      "to": "0x4fE031a312590cD9cC645aF0AE2AdC977D45cec9",
      "value": {
        "_hex": "0x227cbd7a32898038"
      },
      "nonce": 2048,
      "data": "0x",
      "r": "0x8129233f791fb082f6fd7c96edb6ccce4de736d68ee07666d4cd6d15a56efcab",
      "s": "0x59b4d9c32795a2a98dafb16d3e081bd1557b6b217645e7586d2dccf183e2b9c2",
      "v": 28,
      "creates": null,
      "raw": "0xf86e820800850df3f091dd8255f0944fe031a312590cd9cc645af0ae2adc977d45cec988227cbd7a32898038801ca08129233f791fb082f6fd7c96edb6ccce4de736d68ee07666d4cd6d15a56efcaba059b4d9c32795a2a98dafb16d3e081bd1557b6b217645e7586d2dccf183e2b9c2",
      "networkId": 0,
      "chainId": 0
    },
    {
      "hash": "0x582b7c23cd05aec61ad826f12c891697594fab6806b4f4a2cb9af6b3be48056d",
      "blockHash": "0x93df5197d92f8c00b0d1fa2f08bd9fcf75a00db54bf48abb6aef7602e0420f19",
      "blockNumber": 89777,
      "transactionIndex": 5,
      "confirmations": null,
      "from": "0xe6A7a1d47ff21B6321162AEA7C6CB457D5476Bca",
      "gasPrice": {
        "_hex": "0xdf3f091dd"
      },
      "gasLimit": {
        "_hex": "0x55f0"
      },
      "to": "0x1d06b86EBBfD6bA717B6d14c0136dE1D88aa5989",
      "value": {
        "_hex": "0x22f71fa1d373b230"
      },
      "nonce": 2049,
      "data": "0x",
      "r": "0x5c0dcb5fed07abaff27c279e35cb352ece83746114524e8eb822ad0454ea4b6a",
      "s": "0x79297a1646a7bc7c98e77381f53d4d5d0591e0e3a2e80a39ed553b65415b9380",
      "v": 28,
      "creates": null,
      "raw": "0xf86e820801850df3f091dd8255f0941d06b86ebbfd6ba717b6d14c0136de1d88aa59898822f71fa1d373b230801ca05c0dcb5fed07abaff27c279e35cb352ece83746114524e8eb822ad0454ea4b6aa079297a1646a7bc7c98e77381f53d4d5d0591e0e3a2e80a39ed553b65415b9380",
      "networkId": 0,
      "chainId": 0
    },
    {
      "hash": "0x602f337ff2b826c4309890c1cea14997c888d48f5915ccb7e04893df77594e54",
      "blockHash": "0x93df5197d92f8c00b0d1fa2f08bd9fcf75a00db54bf48abb6aef7602e0420f19",
      "blockNumber": 89777,
      "transactionIndex": 6,
      "confirmations": null,
      "from": "0xe6A7a1d47ff21B6321162AEA7C6CB457D5476Bca",
      "gasPrice": {
        "_hex": "0xdf3f091dd"
      },
      "gasLimit": {
        "_hex": "0x55f0"
      },
      "to": "0x9C79cd9eDDAC7B87063732BC9629e3404341FB6E",
      "value": {
        "_hex": "0x2337cfc9f2ed3988"
      },
      "nonce": 2050,
      "data": "0x",
      "r": "0x9f60450adcfde8f517ded27a4bfba00f278b9f457968e7a2c9e915b5897acd99",
      "s": "0x7a34e0b6a1afbac5658ccfd2e0fc77aa06588bc82535904af1bc50d210acfd49",
      "v": 27,
      "creates": null,
      "raw": "0xf86e820802850df3f091dd8255f0949c79cd9eddac7b87063732bc9629e3404341fb6e882337cfc9f2ed3988801ba09f60450adcfde8f517ded27a4bfba00f278b9f457968e7a2c9e915b5897acd99a07a34e0b6a1afbac5658ccfd2e0fc77aa06588bc82535904af1bc50d210acfd49",
      "networkId": 0,
      "chainId": 0
    },
    {
      "hash": "0x0d965f30101793882b56dc28456197385b2cb90aaafc452f4a662cd078661707",
      "blockHash": "0x93df5197d92f8c00b0d1fa2f08bd9fcf75a00db54bf48abb6aef7602e0420f19",
      "blockNumber": 89777,
      "transactionIndex": 7,
      "confirmations": null,
      "from": "0xe6A7a1d47ff21B6321162AEA7C6CB457D5476Bca",
      "gasPrice": {
        "_hex": "0xdf3f091dd"
      },
      "gasLimit": {
        "_hex": "0x55f0"
      },
      "to": "0x0A38ff322A11A9bA4f9a7C668F79025e8CEadc45",
      "value": {
        "_hex": "0x23b17de44939e7b8"
      },
      "nonce": 2051,
      "data": "0x",
      "r": "0x5b9343a07459c2f024f81453335244836f0935685768c7bb54b82b0521fad5b9",
      "s": "0x4d32faad61d6e95d350a833b13b6c799508aafbc0273d7b0c68b5bab54b11c34",
      "v": 28,
      "creates": null,
      "raw": "0xf86e820803850df3f091dd8255f0940a38ff322a11a9ba4f9a7c668f79025e8ceadc458823b17de44939e7b8801ca05b9343a07459c2f024f81453335244836f0935685768c7bb54b82b0521fad5b9a04d32faad61d6e95d350a833b13b6c799508aafbc0273d7b0c68b5bab54b11c34",
      "networkId": 0,
      "chainId": 0
    },
    {
      "hash": "0xae6473f2885b73f3d559449923275c2f679499393598c07824d84a46490fbde0",
      "blockHash": "0x93df5197d92f8c00b0d1fa2f08bd9fcf75a00db54bf48abb6aef7602e0420f19",
      "blockNumber": 89777,
      "transactionIndex": 8,
      "confirmations": null,
      "from": "0xe6A7a1d47ff21B6321162AEA7C6CB457D5476Bca",
      "gasPrice": {
        "_hex": "0xdf3f091dd"
      },
      "gasLimit": {
        "_hex": "0x55f0"
      },
      "to": "0x423F06030a6c726925816243446a11Ed6d40Ab99",
      "value": {
        "_hex": "0x23d8e8e6eae5f2c0"
      },
      "nonce": 2052,
      "data": "0x",
      "r": "0x9de7aa29304aede5df9189f2a0c122b761818a5936b34aaeaca99befbedbeffc",
      "s": "0x405dc004f110288bf6f62217edc57d19818e5650d47445ba6e0dbcba208e6043",
      "v": 28,
      "creates": null,
      "raw": "0xf86e820804850df3f091dd8255f094423f06030a6c726925816243446a11ed6d40ab998823d8e8e6eae5f2c0801ca09de7aa29304aede5df9189f2a0c122b761818a5936b34aaeaca99befbedbeffca0405dc004f110288bf6f62217edc57d19818e5650d47445ba6e0dbcba208e6043",
      "networkId": 0,
      "chainId": 0
    },
    {
      "hash": "0x0fb9ad1a281861cb729ea232a3710af1fd65988afff2c54c5073c15ae972004e",
      "blockHash": "0x93df5197d92f8c00b0d1fa2f08bd9fcf75a00db54bf48abb6aef7602e0420f19",
      "blockNumber": 89777,
      "transactionIndex": 9,
      "confirmations": null,
      "from": "0xe6A7a1d47ff21B6321162AEA7C6CB457D5476Bca",
      "gasPrice": {
        "_hex": "0xdf3f091dd"
      },
      "gasLimit": {
        "_hex": "0x55f0"
      },
      "to": "0x42e16B3732ae6f3e38AeE7546f36149C9eCB8F26",
      "value": {
        "_hex": "0x23f58421192747f0"
      },
      "nonce": 2053,
      "data": "0x",
      "r": "0x31fa2802bf258d8316c81d537810d65b82810e9feb6c96ec40afa0cb1f66c9ee",
      "s": "0x2e24c3c788aff85ebf8cc697036e5774d5c9abc7865ad1801fed7a968272f029",
      "v": 28,
      "creates": null,
      "raw": "0xf86e820805850df3f091dd8255f09442e16b3732ae6f3e38aee7546f36149c9ecb8f268823f58421192747f0801ca031fa2802bf258d8316c81d537810d65b82810e9feb6c96ec40afa0cb1f66c9eea02e24c3c788aff85ebf8cc697036e5774d5c9abc7865ad1801fed7a968272f029",
      "networkId": 0,
      "chainId": 0
    },
    {
      "hash": "0xf51eae525fce6e6c791e75236ca129cfef5d80b1bd1a0a7af11c4812e1bfcd13",
      "blockHash": "0x93df5197d92f8c00b0d1fa2f08bd9fcf75a00db54bf48abb6aef7602e0420f19",
      "blockNumber": 89777,
      "transactionIndex": 10,
      "confirmations": null,
      "from": "0xe6A7a1d47ff21B6321162AEA7C6CB457D5476Bca",
      "gasPrice": {
        "_hex": "0xdf3f091dd"
      },
      "gasLimit": {
        "_hex": "0x55f0"
      },
      "to": "0x3aAE6435730f753ecF6214996ae2a55A1503F97c",
      "value": {
        "_hex": "0x2416f2a1e50c7b28"
      },
      "nonce": 2054,
      "data": "0x",
      "r": "0x368ad5dd002485086ca6378dd16681ad18f203323ce56f5726cdae5ebaa42da5",
      "s": "0x0dd63767ff1ffbb17e123818ecb7034854f3ce11cd96100ed08d6397667813ab",
      "v": 28,
      "creates": null,
      "raw": "0xf86e820806850df3f091dd8255f0943aae6435730f753ecf6214996ae2a55a1503f97c882416f2a1e50c7b28801ca0368ad5dd002485086ca6378dd16681ad18f203323ce56f5726cdae5ebaa42da5a00dd63767ff1ffbb17e123818ecb7034854f3ce11cd96100ed08d6397667813ab",
      "networkId": 0,
      "chainId": 0
    },
    {
      "hash": "0x83e61ccb2092387517d121770ae63d54662f692fd36b514e235d5d2f3d7aa932",
      "blockHash": "0x93df5197d92f8c00b0d1fa2f08bd9fcf75a00db54bf48abb6aef7602e0420f19",
      "blockNumber": 89777,
      "transactionIndex": 11,
      "confirmations": null,
      "from": "0xe6A7a1d47ff21B6321162AEA7C6CB457D5476Bca",
      "gasPrice": {
        "_hex": "0xdf3f091dd"
      },
      "gasLimit": {
        "_hex": "0x55f0"
      },
      "to": "0x727ceE80072f59D075a9fAC8e1d81EC186d52337",
      "value": {
        "_hex": "0x242fe7126403c7ec"
      },
      "nonce": 2055,
      "data": "0x",
      "r": "0x51b1aaed7509676eb02268486f9073b876588e3d67e1d23b1781c93e8b8e7276",
      "s": "0x4908edb2431dd695da5e442df10459319ca34d4c6741f7c79584772506b8f6fe",
      "v": 28,
      "creates": null,
      "raw": "0xf86e820807850df3f091dd8255f094727cee80072f59d075a9fac8e1d81ec186d5233788242fe7126403c7ec801ca051b1aaed7509676eb02268486f9073b876588e3d67e1d23b1781c93e8b8e7276a04908edb2431dd695da5e442df10459319ca34d4c6741f7c79584772506b8f6fe",
      "networkId": 0,
      "chainId": 0
    },
    {
      "hash": "0x7e042f62820fc2577a4089c7c6bd119718915a4baea4edc009c7a58ec6f378a4",
      "blockHash": "0x93df5197d92f8c00b0d1fa2f08bd9fcf75a00db54bf48abb6aef7602e0420f19",
      "blockNumber": 89777,
      "transactionIndex": 12,
      "confirmations": null,
      "from": "0xe6A7a1d47ff21B6321162AEA7C6CB457D5476Bca",
      "gasPrice": {
        "_hex": "0xdf3f091dd"
      },
      "gasLimit": {
        "_hex": "0x55f0"
      },
      "to": "0x1049cb6C4223942Bb3Ed14e47b27c7478449deB2",
      "value": {
        "_hex": "0x247ab70d1c4f1b70"
      },
      "nonce": 2056,
      "data": "0x",
      "r": "0x2f08a612c03c362ff876fd8d5af10e725c4e395156d0022e9d1653e010f8ed54",
      "s": "0x213d54260559e4e04dcf62c35e4f61a20acdf15c78a61f0d23c818d84938899d",
      "v": 28,
      "creates": null,
      "raw": "0xf86e820808850df3f091dd8255f0941049cb6c4223942bb3ed14e47b27c7478449deb288247ab70d1c4f1b70801ca02f08a612c03c362ff876fd8d5af10e725c4e395156d0022e9d1653e010f8ed54a0213d54260559e4e04dcf62c35e4f61a20acdf15c78a61f0d23c818d84938899d",
      "networkId": 0,
      "chainId": 0
    },
    {
      "hash": "0x2bc595ed62de12d013ef891553e4913f511cc177a94b72ade246b2518e05fb2d",
      "blockHash": "0x93df5197d92f8c00b0d1fa2f08bd9fcf75a00db54bf48abb6aef7602e0420f19",
      "blockNumber": 89777,
      "transactionIndex": 13,
      "confirmations": null,
      "from": "0xe6A7a1d47ff21B6321162AEA7C6CB457D5476Bca",
      "gasPrice": {
        "_hex": "0xdf3f091dd"
      },
      "gasLimit": {
        "_hex": "0x55f0"
      },
      "to": "0x625C91D2eC2873Db4773931f7DFeF46CC594b2c9",
      "value": {
        "_hex": "0x24a7cf4ec9204438"
      },
      "nonce": 2057,
      "data": "0x",
      "r": "0x165bf42a3b49e7ba0b9da96b4a20caf3b47b20df55225a01066ad75cf0424513",
      "s": "0x467f8013738312a0709cc5fa19273705edf9357a73929bf1377e9a91af5c6591",
      "v": 27,
      "creates": null,
      "raw": "0xf86e820809850df3f091dd8255f094625c91d2ec2873db4773931f7dfef46cc594b2c98824a7cf4ec9204438801ba0165bf42a3b49e7ba0b9da96b4a20caf3b47b20df55225a01066ad75cf0424513a0467f8013738312a0709cc5fa19273705edf9357a73929bf1377e9a91af5c6591",
      "networkId": 0,
      "chainId": 0
    },
    {
      "hash": "0x1ec78895f6859138b973f7ee01954227b77e111091ebce85404333f78044ea4d",
      "blockHash": "0x93df5197d92f8c00b0d1fa2f08bd9fcf75a00db54bf48abb6aef7602e0420f19",
      "blockNumber": 89777,
      "transactionIndex": 14,
      "confirmations": null,
      "from": "0xe6A7a1d47ff21B6321162AEA7C6CB457D5476Bca",
      "gasPrice": {
        "_hex": "0xdf3f091dd"
      },
      "gasLimit": {
        "_hex": "0x55f0"
      },
      "to": "0x3Fef71cB8Ac8711ECa473049D813b003A76D1eaA",
      "value": {
        "_hex": "0x24d25cefd3342eb8"
      },
      "nonce": 2058,
      "data": "0x",
      "r": "0x2ebd881081f03af4c4bd2e3ecd97e2aa98359ad3ec1f8e9b9bc19a391c59f753",
      "s": "0x7f6aa0744a1ea51806d85ee8d2754a3ff3f7b39c540be7fb6b97a995e9fc9814",
      "v": 28,
      "creates": null,
      "raw": "0xf86e82080a850df3f091dd8255f0943fef71cb8ac8711eca473049d813b003a76d1eaa8824d25cefd3342eb8801ca02ebd881081f03af4c4bd2e3ecd97e2aa98359ad3ec1f8e9b9bc19a391c59f753a07f6aa0744a1ea51806d85ee8d2754a3ff3f7b39c540be7fb6b97a995e9fc9814",
      "networkId": 0,
      "chainId": 0
    },
    {
      "hash": "0xe5d4c7a1f066f15d637cc76d0e84525c116c175674f66ae73662af809549356d",
      "blockHash": "0x93df5197d92f8c00b0d1fa2f08bd9fcf75a00db54bf48abb6aef7602e0420f19",
      "blockNumber": 89777,
      "transactionIndex": 15,
      "confirmations": null,
      "from": "0xe6A7a1d47ff21B6321162AEA7C6CB457D5476Bca",
      "gasPrice": {
        "_hex": "0xdf3f091dd"
      },
      "gasLimit": {
        "_hex": "0x55f0"
      },
      "to": "0x4C9560759adF54ABEdd7318d1413C4fA49240074",
      "value": {
        "_hex": "0x24d7d2650ba72e2c"
      },
      "nonce": 2059,
      "data": "0x",
      "r": "0xf754156b93615b90d0985a05d3555bb6a3dd8a58bed55797a1c14b60edf83cd3",
      "s": "0x136a8eb689caeebb3747f1bd4e60bd134c07d5e83b1b526c53eac53d933f146d",
      "v": 27,
      "creates": null,
      "raw": "0xf86e82080b850df3f091dd8255f0944c9560759adf54abedd7318d1413c4fa492400748824d7d2650ba72e2c801ba0f754156b93615b90d0985a05d3555bb6a3dd8a58bed55797a1c14b60edf83cd3a0136a8eb689caeebb3747f1bd4e60bd134c07d5e83b1b526c53eac53d933f146d",
      "networkId": 0,
      "chainId": 0
    },
    {
      "hash": "0xbdbf91eac2c6cf517bd6f2ce29ee67cf472205a4ca2560ab084f3b483b5c1422",
      "blockHash": "0x93df5197d92f8c00b0d1fa2f08bd9fcf75a00db54bf48abb6aef7602e0420f19",
      "blockNumber": 89777,
      "transactionIndex": 16,
      "confirmations": null,
      "from": "0xe6A7a1d47ff21B6321162AEA7C6CB457D5476Bca",
      "gasPrice": {
        "_hex": "0xdf3f091dd"
      },
      "gasLimit": {
        "_hex": "0x55f0"
      },
      "to": "0x7608740e31F03A7aCE7b2762464CA5bB4169f6e8",
      "value": {
        "_hex": "0x24e33333750f9608"
      },
      "nonce": 2060,
      "data": "0x",
      "r": "0x8c3f476d8e13c7db2f5151e43eba1d158c9309bfd0200d372362f8ada671ff5a",
      "s": "0x53826c1004cb8d06d3d33830116c9ec31b137744fb4ef5e7f71e9e9e73077929",
      "v": 28,
      "creates": null,
      "raw": "0xf86e82080c850df3f091dd8255f0947608740e31f03a7ace7b2762464ca5bb4169f6e88824e33333750f9608801ca08c3f476d8e13c7db2f5151e43eba1d158c9309bfd0200d372362f8ada671ff5aa053826c1004cb8d06d3d33830116c9ec31b137744fb4ef5e7f71e9e9e73077929",
      "networkId": 0,
      "chainId": 0
    },
    {
      "hash": "0x47fb45241c5df8d08aea9ef5fe4dddb115afd96181eafc8d4b43b252a89f64c1",
      "blockHash": "0x93df5197d92f8c00b0d1fa2f08bd9fcf75a00db54bf48abb6aef7602e0420f19",
      "blockNumber": 89777,
      "transactionIndex": 17,
      "confirmations": null,
      "from": "0xe6A7a1d47ff21B6321162AEA7C6CB457D5476Bca",
      "gasPrice": {
        "_hex": "0xdf3f091dd"
      },
      "gasLimit": {
        "_hex": "0x55f0"
      },
      "to": "0xA10DcDc99cF571e66c6Af1F1175a15686C4C6800",
      "value": {
        "_hex": "0x24e90a8502bbe014"
      },
      "nonce": 2061,
      "data": "0x",
      "r": "0x9ab39ecbd071fe71fbb507769570271058f3eb368e708b9d2cdc92770c838c99",
      "s": "0x426ab945d8f07cfc9a9e25361a3ded5330c90b08501edc5252708b022e36ec6f",
      "v": 27,
      "creates": null,
      "raw": "0xf86e82080d850df3f091dd8255f094a10dcdc99cf571e66c6af1f1175a15686c4c68008824e90a8502bbe014801ba09ab39ecbd071fe71fbb507769570271058f3eb368e708b9d2cdc92770c838c99a0426ab945d8f07cfc9a9e25361a3ded5330c90b08501edc5252708b022e36ec6f",
      "networkId": 0,
      "chainId": 0
    },
    {
      "hash": "0x7cffae91a32e2dc2bc65f21bcbd359748d2ed434823edc638699bce7712d2e4a",
      "blockHash": "0x93df5197d92f8c00b0d1fa2f08bd9fcf75a00db54bf48abb6aef7602e0420f19",
      "blockNumber": 89777,
      "transactionIndex": 18,
      "confirmations": null,
      "from": "0xe6A7a1d47ff21B6321162AEA7C6CB457D5476Bca",
      "gasPrice": {
        "_hex": "0xdf3f091dd"
      },
      "gasLimit": {
        "_hex": "0x55f0"
      },
      "to": "0x82870082223b5f71F0aD44262e08A34B61065C25",
      "value": {
        "_hex": "0x25996b18d30d0014"
      },
      "nonce": 2062,
      "data": "0x",
      "r": "0xa3245327ebc22169b383164ecc613c7b87b51b7bb094eeea33f22ea18bd077ab",
      "s": "0x38426f341809f332deb0ee0ea4d3ccae8562e3e461558b314fb533017eda8001",
      "v": 27,
      "creates": null,
      "raw": "0xf86e82080e850df3f091dd8255f09482870082223b5f71f0ad44262e08a34b61065c258825996b18d30d0014801ba0a3245327ebc22169b383164ecc613c7b87b51b7bb094eeea33f22ea18bd077aba038426f341809f332deb0ee0ea4d3ccae8562e3e461558b314fb533017eda8001",
      "networkId": 0,
      "chainId": 0
    },
    {
      "hash": "0xbdad887907171c26b3504b3608d652f8b5b5402b2c20eaa1d60889b3fea2dedb",
      "blockHash": "0x93df5197d92f8c00b0d1fa2f08bd9fcf75a00db54bf48abb6aef7602e0420f19",
      "blockNumber": 89777,
      "transactionIndex": 19,
      "confirmations": null,
      "from": "0xe6A7a1d47ff21B6321162AEA7C6CB457D5476Bca",
      "gasPrice": {
        "_hex": "0xdf3f091dd"
      },
      "gasLimit": {
        "_hex": "0x55f0"
      },
      "to": "0x0d187496799a43E7c43e4324026E32d1Dc80D8E4",
      "value": {
        "_hex": "0x25bea17703ff4358"
      },
      "nonce": 2063,
      "data": "0x",
      "r": "0xc3de91d3b951038415388e3ef959670e6803efea432a7a484d4ad5779f4626cf",
      "s": "0x50c76b55004eddc7cc56f97f7e7b82ef63444069a4b25505a27f69f120259577",
      "v": 28,
      "creates": null,
      "raw": "0xf86e82080f850df3f091dd8255f0940d187496799a43e7c43e4324026e32d1dc80d8e48825bea17703ff4358801ca0c3de91d3b951038415388e3ef959670e6803efea432a7a484d4ad5779f4626cfa050c76b55004eddc7cc56f97f7e7b82ef63444069a4b25505a27f69f120259577",
      "networkId": 0,
      "chainId": 0
    },
    {
      "hash": "0x9e65c6d73bebf3f0817ba92f6e89c3e6ff2e0b88087ce0b5cb6608b91f6235d0",
      "blockHash": "0x93df5197d92f8c00b0d1fa2f08bd9fcf75a00db54bf48abb6aef7602e0420f19",
      "blockNumber": 89777,
      "transactionIndex": 20,
      "confirmations": null,
      "from": "0xe6A7a1d47ff21B6321162AEA7C6CB457D5476Bca",
      "gasPrice": {
        "_hex": "0xdf3f091dd"
      },
      "gasLimit": {
        "_hex": "0x55f0"
      },
      "to": "0x440875EeE9a37dCF577dab873E86f62298EAD638",
      "value": {
        "_hex": "0x25d5655b92973238"
      },
      "nonce": 2064,
      "data": "0x",
      "r": "0x0801e2ff735e7e17454a2e48aae5d8771d80033fcac028c0fb311b7a01f2b868",
      "s": "0x6469fdd03411b02672e1032935478460311acbebc6ad32fcfba77bdc4758820f",
      "v": 28,
      "creates": null,
      "raw": "0xf86e820810850df3f091dd8255f094440875eee9a37dcf577dab873e86f62298ead6388825d5655b92973238801ca00801e2ff735e7e17454a2e48aae5d8771d80033fcac028c0fb311b7a01f2b868a06469fdd03411b02672e1032935478460311acbebc6ad32fcfba77bdc4758820f",
      "networkId": 0,
      "chainId": 0
    },
    {
      "hash": "0xaca7e2cb594398b2e4ae0f5ccc23d341a593e59c14e54958defd4c5e424caf95",
      "blockHash": "0x93df5197d92f8c00b0d1fa2f08bd9fcf75a00db54bf48abb6aef7602e0420f19",
      "blockNumber": 89777,
      "transactionIndex": 21,
      "confirmations": null,
      "from": "0xe6A7a1d47ff21B6321162AEA7C6CB457D5476Bca",
      "gasPrice": {
        "_hex": "0xdf3f091dd"
      },
      "gasLimit": {
        "_hex": "0x55f0"
      },
      "to": "0x799Ac9F93b43E63D97F25A436C440470FEF05037",
      "value": {
        "_hex": "0x26430697bbf14498"
      },
      "nonce": 2065,
      "data": "0x",
      "r": "0xfab2d66a36d6626b72c5e9f23717e5015d1b356b8f8630c8a7d424b4671ab52b",
      "s": "0x3046acea7db5e21bba413588b6f02b2bc9209001c988152a8b0326019c88f3d4",
      "v": 27,
      "creates": null,
      "raw": "0xf86e820811850df3f091dd8255f094799ac9f93b43e63d97f25a436c440470fef050378826430697bbf14498801ba0fab2d66a36d6626b72c5e9f23717e5015d1b356b8f8630c8a7d424b4671ab52ba03046acea7db5e21bba413588b6f02b2bc9209001c988152a8b0326019c88f3d4",
      "networkId": 0,
      "chainId": 0
    },
    {
      "hash": "0x6a7d3d625f72b7a7d15064fe67336c2036b0f5a6503579654b513e5373851c47",
      "blockHash": "0x93df5197d92f8c00b0d1fa2f08bd9fcf75a00db54bf48abb6aef7602e0420f19",
      "blockNumber": 89777,
      "transactionIndex": 22,
      "confirmations": null,
      "from": "0xe6A7a1d47ff21B6321162AEA7C6CB457D5476Bca",
      "gasPrice": {
        "_hex": "0xdf3f091dd"
      },
      "gasLimit": {
        "_hex": "0x55f0"
      },
      "to": "0xED2aF977080D441C24E9910f1e2078A4446d0bbf",
      "value": {
        "_hex": "0x265ce0e3297caae0"
      },
      "nonce": 2066,
      "data": "0x",
      "r": "0x714627a37e35fa06613daa72e4c036d1c7d76dc44bb3e007b657fc021b677cce",
      "s": "0x1e5b432661b5fe186ae1faffa6765595c25ed115c155f41a687e37174fe7a165",
      "v": 28,
      "creates": null,
      "raw": "0xf86e820812850df3f091dd8255f094ed2af977080d441c24e9910f1e2078a4446d0bbf88265ce0e3297caae0801ca0714627a37e35fa06613daa72e4c036d1c7d76dc44bb3e007b657fc021b677ccea01e5b432661b5fe186ae1faffa6765595c25ed115c155f41a687e37174fe7a165",
      "networkId": 0,
      "chainId": 0
    },
    {
      "hash": "0x4b479127364110575fcd48b90f3309ca6053b8e1b6cc2d76ef472f3cca500004",
      "blockHash": "0x93df5197d92f8c00b0d1fa2f08bd9fcf75a00db54bf48abb6aef7602e0420f19",
      "blockNumber": 89777,
      "transactionIndex": 23,
      "confirmations": null,
      "from": "0xe6A7a1d47ff21B6321162AEA7C6CB457D5476Bca",
      "gasPrice": {
        "_hex": "0xdf3f091dd"
      },
      "gasLimit": {
        "_hex": "0x55f0"
      },
      "to": "0xF178805EA39C903a49e6A465DBD40f22576aE24a",
      "value": {
        "_hex": "0x266e83abe0ddaa28"
      },
      "nonce": 2067,
      "data": "0x",
      "r": "0x9d346792102f82115794d4d1f82ed32c36d317007946c5f2c116eba1cf16e6b4",
      "s": "0x252fa813fb4b9bfd2a4508dfc3e69e3a0c4e2d9336edbf8fdde2569ed045bd59",
      "v": 27,
      "creates": null,
      "raw": "0xf86e820813850df3f091dd8255f094f178805ea39c903a49e6a465dbd40f22576ae24a88266e83abe0ddaa28801ba09d346792102f82115794d4d1f82ed32c36d317007946c5f2c116eba1cf16e6b4a0252fa813fb4b9bfd2a4508dfc3e69e3a0c4e2d9336edbf8fdde2569ed045bd59",
      "networkId": 0,
      "chainId": 0
    },
    {
      "hash": "0x52a851c7f597515af89153bfab4530f582dd108da6f3d904ff70368036e9af3c",
      "blockHash": "0x93df5197d92f8c00b0d1fa2f08bd9fcf75a00db54bf48abb6aef7602e0420f19",
      "blockNumber": 89777,
      "transactionIndex": 24,
      "confirmations": null,
      "from": "0xe6A7a1d47ff21B6321162AEA7C6CB457D5476Bca",
      "gasPrice": {
        "_hex": "0xdcd8a9775"
      },
      "gasLimit": {
        "_hex": "0x55f0"
      },
      "to": "0xE7bD36a7CF4F1F8896378D41177BEf637075a1eD",
      "value": {
        "_hex": "0x26a8485fc23cb200"
      },
      "nonce": 2068,
      "data": "0x",
      "r": "0x5bb091749fec4b173029e53a49596383834f3a4e8c9a68af80ac1e854b165ccc",
      "s": "0x29b2078fe7b84990bc2b5d5969edc9f1703b2eb0e8e809963233056af1ffe5a7",
      "v": 28,
      "creates": null,
      "raw": "0xf86e820814850dcd8a97758255f094e7bd36a7cf4f1f8896378d41177bef637075a1ed8826a8485fc23cb200801ca05bb091749fec4b173029e53a49596383834f3a4e8c9a68af80ac1e854b165ccca029b2078fe7b84990bc2b5d5969edc9f1703b2eb0e8e809963233056af1ffe5a7",
      "networkId": 0,
      "chainId": 0
    },
    {
      "hash": "0x542657c770418c1df6b2718c7d3d7c62c6000a56482869ec8bba2deec632668e",
      "blockHash": "0x93df5197d92f8c00b0d1fa2f08bd9fcf75a00db54bf48abb6aef7602e0420f19",
      "blockNumber": 89777,
      "transactionIndex": 25,
      "confirmations": null,
      "from": "0xe6A7a1d47ff21B6321162AEA7C6CB457D5476Bca",
      "gasPrice": {
        "_hex": "0xdcd8a9775"
      },
      "gasLimit": {
        "_hex": "0x55f0"
      },
      "to": "0xC5d30A49174e1a78D4b8a71824e78563cB041e94",
      "value": {
        "_hex": "0x26d9c0b4d1d961dc"
      },
      "nonce": 2069,
      "data": "0x",
      "r": "0x6fc6d1402df4d1436c0c0f3e5babaad172bd10b995b127e43cec4f3281fe815d",
      "s": "0x198f47897db43719f65069acae17d4ef5c8a1da9e1145596a9a1bf839a474193",
      "v": 28,
      "creates": null,
      "raw": "0xf86e820815850dcd8a97758255f094c5d30a49174e1a78d4b8a71824e78563cb041e948826d9c0b4d1d961dc801ca06fc6d1402df4d1436c0c0f3e5babaad172bd10b995b127e43cec4f3281fe815da0198f47897db43719f65069acae17d4ef5c8a1da9e1145596a9a1bf839a474193",
      "networkId": 0,
      "chainId": 0
    },
    {
      "hash": "0xa1d92c0ef98972134e6b7aba5ea283940d55b2eb29cdf4ea405c2749ef1116e6",
      "blockHash": "0x93df5197d92f8c00b0d1fa2f08bd9fcf75a00db54bf48abb6aef7602e0420f19",
      "blockNumber": 89777,
      "transactionIndex": 26,
      "confirmations": null,
      "from": "0xe6A7a1d47ff21B6321162AEA7C6CB457D5476Bca",
      "gasPrice": {
        "_hex": "0xdcd8a9775"
      },
      "gasLimit": {
        "_hex": "0x55f0"
      },
      "to": "0x7903428Eb39b4da60a93f8FCB5228b3b431b7B52",
      "value": {
        "_hex": "0x271f3766da877878"
      },
      "nonce": 2070,
      "data": "0x",
      "r": "0x351be21c8a8262bf840347f56708440f2283964e985feeb037b246e58a945214",
      "s": "0x15d1dd799b7837227350f6929720146c90a4a785d628140e1dc7213f114c2f2c",
      "v": 28,
      "creates": null,
      "raw": "0xf86e820816850dcd8a97758255f0947903428eb39b4da60a93f8fcb5228b3b431b7b5288271f3766da877878801ca0351be21c8a8262bf840347f56708440f2283964e985feeb037b246e58a945214a015d1dd799b7837227350f6929720146c90a4a785d628140e1dc7213f114c2f2c",
      "networkId": 0,
      "chainId": 0
    },
    {
      "hash": "0x2e79d28f7c361ba7a30d4e98e9ce37491097650b6611a4d2309f89c5ae42a5b9",
      "blockHash": "0x93df5197d92f8c00b0d1fa2f08bd9fcf75a00db54bf48abb6aef7602e0420f19",
      "blockNumber": 89777,
      "transactionIndex": 27,
      "confirmations": null,
      "from": "0xe6A7a1d47ff21B6321162AEA7C6CB457D5476Bca",
      "gasPrice": {
        "_hex": "0xdcd8a9775"
      },
      "gasLimit": {
        "_hex": "0x55f0"
      },
      "to": "0x0617194e49BaAD419B57FB8EBba265E417362835",
      "value": {
        "_hex": "0x27a5a4eace251a2c"
      },
      "nonce": 2071,
      "data": "0x",
      "r": "0x7960d2803a07ef0f15f647ec645ca4d0cd3732cbbce04c6ae86b0673b63e2c48",
      "s": "0x3ec14f53b288fef34517c24e59b28c81eef10342129e1382057520fdd018677c",
      "v": 27,
      "creates": null,
      "raw": "0xf86e820817850dcd8a97758255f0940617194e49baad419b57fb8ebba265e4173628358827a5a4eace251a2c801ba07960d2803a07ef0f15f647ec645ca4d0cd3732cbbce04c6ae86b0673b63e2c48a03ec14f53b288fef34517c24e59b28c81eef10342129e1382057520fdd018677c",
      "networkId": 0,
      "chainId": 0
    },
    {
      "hash": "0xba3e9499e4122af9766e25a608b885bc645cc3a17c5dea5ba6ea0c1f1e09f7a6",
      "blockHash": "0x93df5197d92f8c00b0d1fa2f08bd9fcf75a00db54bf48abb6aef7602e0420f19",
      "blockNumber": 89777,
      "transactionIndex": 28,
      "confirmations": null,
      "from": "0xe6A7a1d47ff21B6321162AEA7C6CB457D5476Bca",
      "gasPrice": {
        "_hex": "0xdcd8a9775"
      },
      "gasLimit": {
        "_hex": "0x55f0"
      },
      "to": "0xFD6B6e67d15931706d607e2358A1b0aA05f8e256",
      "value": {
        "_hex": "0x27d9a7809a0ab1e4"
      },
      "nonce": 2072,
      "data": "0x",
      "r": "0x652df9b7bfff2b1381a6a52a517513e704d713008de21d11727904759e7a0eb0",
      "s": "0x1489e71016f2d354f9fa9e5aa76e76200531b383cd0f969594e8ff94cc88d941",
      "v": 28,
      "creates": null,
      "raw": "0xf86e820818850dcd8a97758255f094fd6b6e67d15931706d607e2358a1b0aa05f8e2568827d9a7809a0ab1e4801ca0652df9b7bfff2b1381a6a52a517513e704d713008de21d11727904759e7a0eb0a01489e71016f2d354f9fa9e5aa76e76200531b383cd0f969594e8ff94cc88d941",
      "networkId": 0,
      "chainId": 0
    },
    {
      "hash": "0xd53ff7e341da2da05079ef24597bb868356f5826fa86afbb7b61e365ef1b9344",
      "blockHash": "0x93df5197d92f8c00b0d1fa2f08bd9fcf75a00db54bf48abb6aef7602e0420f19",
      "blockNumber": 89777,
      "transactionIndex": 29,
      "confirmations": null,
      "from": "0xe6A7a1d47ff21B6321162AEA7C6CB457D5476Bca",
      "gasPrice": {
        "_hex": "0xdcd8a9775"
      },
      "gasLimit": {
        "_hex": "0x55f0"
      },
      "to": "0x7bC11D546783d2e3b7Bb2241D5f43Fb2611C3B98",
      "value": {
        "_hex": "0x28274a8095fa2a1c"
      },
      "nonce": 2073,
      "data": "0x",
      "r": "0x72b5368fac8c753749a4a4ecaeec6a028382bd8e852d92addeec89cb66f81b6a",
      "s": "0x4b7170d0c6b95e3a5f052c6cc1d424d56456a27c78eed508459864c28ef94fc1",
      "v": 27,
      "creates": null,
      "raw": "0xf86e820819850dcd8a97758255f0947bc11d546783d2e3b7bb2241d5f43fb2611c3b988828274a8095fa2a1c801ba072b5368fac8c753749a4a4ecaeec6a028382bd8e852d92addeec89cb66f81b6aa04b7170d0c6b95e3a5f052c6cc1d424d56456a27c78eed508459864c28ef94fc1",
      "networkId": 0,
      "chainId": 0
    }
  ]
}