{
  "hash": "0xee75656a8a2b9509dd6023d047f1a2a233059abdeb00e304c52d033b602dfd64",
  "parentHash": "0x90659eebcecce9df7a80d23f5dd3e7384df8e7ea487b8498085a06204cb7dde7",
  "number": 80914,
  "timestamp": 1439493275,
  "nonce": "0x3b243ffb058a6756",
  "difficulty": 2435628526626,
  "gasLimit": {
    "_hex": "0x2fefd8"
  },
  "gasUsed": {
    "_hex": "0xa410"
  },
  "miner": "0xe090Ffdced499691fA9379752a59F8A058c1eE4A",
  "extraData": "0x476574682f76312e302e312f6c696e75782f676f312e342e32",
  "transactions": [
    {
      "hash": "0x60877199e0f75c3af154e7e28fb38424ec969d62f5aebf4b575c843884525ca5",
      "blockHash": "0xee75656a8a2b9509dd6023d047f1a2a233059abdeb00e304c52d033b602dfd64",
      "blockNumber": 80914,
      "transactionIndex": 0,
      "confirmations": null,
      "from": "0x723E32E60829d5d032A8aD7af228b3582CD5163c",
      "gasPrice": {
        "_hex": "0xe04084914"
      },
      "gasLimit": {
        "_hex": "0x5208"
      },
      "to": "0x32Be343B94f860124dC4fEe278FDCBD38C102D88",
      "value": {
        "_hex": "0x1fc2ebdd358fff0000"
      },
      "nonce": 1,
      "data": "0x",
      "r": "0x34aba550748d78af3282d4847f55c1afda8dcd50a83de3d6cea2b325934e170d",
      "s": "0x769db00ba97c36fccb4dcaccac361cc167e1f6851f10f276a3f8b5dd7fc3b634",
      "v": 27,
      "creates": null,
      "raw": "0xf86d01850e040849148252089432be343b94f860124dc4fee278fdcbd38c102d88891fc2ebdd358fff0000801ba034aba550748d78af3282d4847f55c1afda8dcd50a83de3d6cea2b325934e170da0769db00ba97c36fccb4dcaccac361cc167e1f6851f10f276a3f8b5dd7fc3b634",
      "networkId": 0,
      "chainId": 0
    },
    {
      "hash": "0x6a65966f8abc11a14591145661bd22b944f3695f3e26a1c67767859d64329cd5",
      "blockHash": "0xee75656a8a2b9509dd6023d047f1a2a233059abdeb00e304c52d033b602dfd64",
      "blockNumber": 80914,
      "transactionIndex": 1,
      "confirmations": null,
      "from": "0x6a6D69d85A96de30FAFbc28Fe5560C221F0314E6",
      "gasPrice": {
        "_hex": "0xe04084914"
      },
      "gasLimit": {
        "_hex": "0x5208"
      },
      "to": "0x32Be343B94f860124dC4fEe278FDCBD38C102D88",
      "value": {
        "_hex": "0x15af07433654810000"
      },
      "nonce": 3,
      "data": "0x",
      "r": "0xe3c439bb8a04d2a2cc955454aa0cbe31da1367c20cb9b7f3ddd280f50c336788",
      "s": "0x48bfd45629d1e7da83355bf119fbb4dcabef89d89092bc18ac21a7fe58c7d6f7",
      "v": 28,
      "creates": null,
      "raw": "0xf86d03850e040849148252089432be343b94f860124dc4fee278fdcbd38c102d888915af07433654810000801ca0e3c439bb8a04d2a2cc955454aa0cbe31da1367c20cb9b7f3ddd280f50c336788a048bfd45629d1e7da83355bf119fbb4dcabef89d89092bc18ac21a7fe58c7d6f7",
      "networkId": 0,
      "chainId": 0
    }
  ]
}