{
  "hash": "0x8ec54c519cbec9449e2edd17769f18f6a13042d89e12d4df66c35f502b892a33",
  "parentHash": "0x24f3581fa0c4c5fcd0924fa96a5ee00bdf4cb9befedb4b6aefc22a9b04320dca",
  "number": 85891,
  "timestamp": 1439570423,
  "nonce": "0x6f62fc7f78445762",
  "difficulty": 2775856107916,
  "gasLimit": {
    "_hex": "0x2fefd8"
  },
  "gasUsed": {
    "_hex": "0x5208"
  },
  "miner": "0xe6A7a1d47ff21B6321162AEA7C6CB457D5476Bca",
  "extraData": "0x476574682f76312e302e312d38326566323666362f6c696e75782f676f312e34",
  "transactions": [
    {
      "hash": "0xb85a681947f20b28e596f3e53f16db91f012498e6d9c9c0d3a370c557dcd3074",
      "blockHash": "0x8ec54c519cbec9449e2edd17769f18f6a13042d89e12d4df66c35f502b892a33",
      "blockNumber": 85891,
      "transactionIndex": 0,
      "confirmations": null,
      "from": "0x003a0659d5452a076403d1411E617C9665955d59",
      "gasPrice": {
        "_hex": "0xba43b7400"
      },
      "gasLimit": {
        "_hex": "0x5213"
      },
      "to": "0x00d148560e3BCb5594F145f32E96a336EEC21921",
      "value": {
        "_hex": "0x16345785d8a0000"
      },
      "nonce": 2,
      "data": "0x",
      "r": "0xd062e4776d5c4adbc90b804739f26f1897ba3ef8f653987626b6dec65e4b9074",
      "s": "0x0f11bd66393842a316e9a77a535a8ebaa64bc64463b0f2cd729a3184bcd4d1a2",
      "v": 28,
      "creates": null,
      "raw": "0xf86c02850ba43b74008252139400d148560e3bcb5594f145f32e96a336eec2192188016345785d8a0000801ca0d062e4776d5c4adbc90b804739f26f1897ba3ef8f653987626b6dec65e4b9074a00f11bd66393842a316e9a77a535a8ebaa64bc64463b0f2cd729a3184bcd4d1a2",
      "networkId": 0,
      "chainId": 0
    }
  ]
}