{
  "hash": "0x3c4e59e7260e953574887544a8f31116a8f763b5996bc912d73d38a0d7daef44",
  "parentHash": "0xfa5eff36939a1e5df5bc91f7adc3e0e7fdbb32bc82a7acf9e37043811c29b924",
  "number": 107331,
  "timestamp": 1439920631,
  "nonce": "0x2d7f28256b6d75cf",
  "difficulty": 4398633925147,
  "gasLimit": {
    "_hex": "0x2fefd8"
  },
  "gasUsed": {
    "_hex": "0x1ec30"
  },
  "miner": "0x88D74a59454F6cF3B51ef6b9136AFb6b9D405A88",
  "extraData": "0x476574682f76312e302e312d39393231366634612f6c696e75782f676f312e34",
  "transactions": [
    {
      "hash": "0xc11ad303b093b54438b51acea5b15e2fac36a679b306fc3ce60982da8dfd7efe",
      "blockHash": "0x3c4e59e7260e953574887544a8f31116a8f763b5996bc912d73d38a0d7daef44",
      "blockNumber": 107331,
      "transactionIndex": 0,
      "confirmations": null,
      "from": "0x120A270bbC009644e35F0bB6ab13f95b8199c4ad",
      "gasPrice": {
        "_hex": "0xd8c67bdf5"
      },
      "gasLimit": {
        "_hex": "0x3d090"
      },
      "to": "0xd729FB3C410640105645fea812F5d50F1b808f4C",
      "value": {
        "_hex": "0x3ba1910bf341b00000"
      },
      "nonce": 804,
      "data": "0x",
      "r": "0x8df0714f4ac691fe66d5f0ca290ed8271f7bd6c69cae326d004f6f46fd542c15",
      "s": "0x2653d321e9023378ef35200ade201a6980cefb7341e7782fa524836380d3f0e1",
      "v": 27,
      "creates": null,
      "raw": "0xf870820324850d8c67bdf58303d09094d729fb3c410640105645fea812f5d50f1b808f4c893ba1910bf341b00000801ba08df0714f4ac691fe66d5f0ca290ed8271f7bd6c69cae326d004f6f46fd542c15a02653d321e9023378ef35200ade201a6980cefb7341e7782fa524836380d3f0e1",
      "networkId": 0,
      "chainId": 0
    },
    {
      "hash": "0x82ba826d866cfe9bb4ad814d99401fdbe149a7261b199362fb586fb22f67fb41",
      "blockHash": "0x3c4e59e7260e953574887544a8f31116a8f763b5996bc912d73d38a0d7daef44",
      "blockNumber": 107331,
      "transactionIndex": 1,
      "confirmations": null,
      "from": "0x120A270bbC009644e35F0bB6ab13f95b8199c4ad",
      "gasPrice": {
        "_hex": "0xd8c67bdf5"
      },
      "gasLimit": {
        "_hex": "0x3d090"
      },
      "to": "0x9eE2bcfE9d322cFD264b1aa913ff9e2Ca905C204",
      "value": {
        "_hex": "0x269465f7a9d3dbc000"
      },
      "nonce": 805,
      "data": "0x",
      "r": "0x28a127b9ae60c6963317d4027893e72d652e2b155768750e89da9bae7ae3895b",
      "s": "0x672adbeeb6bd19f139b2cd0b9257c009d012f2f85981aeb61877baa856b4a072",
      "v": 28,
      "creates": null,
      "raw": "0xf870820325850d8c67bdf58303d090949ee2bcfe9d322cfd264b1aa913ff9e2ca905c20489269465f7a9d3dbc000801ca028a127b9ae60c6963317d4027893e72d652e2b155768750e89da9bae7ae3895ba0672adbeeb6bd19f139b2cd0b9257c009d012f2f85981aeb61877baa856b4a072",
      "networkId": 0,
      "chainId": 0
    },
    {
      "hash": "0x5d9b074b9c85b0caf79f3092456330b557a636542689ecaf313bb306290f66eb",
      "blockHash": "0x3c4e59e7260e953574887544a8f31116a8f763b5996bc912d73d38a0d7daef44",
      "blockNumber": 107331,
      "transactionIndex": 2,
      "confirmations": null,
      "from": "0x30853f0562c79055Fbd88CFFC01A109b346752ba",
      "gasPrice": {
        "_hex": "0xd1ef68223"
      },
      "gasLimit": {
        "_hex": "0x7530"
      },
      "to": "0xa9f5E7bf6Cbf6fEc55B30850Eb492b47A376d050",
      "value": {
        "_hex": "0x246ddf97976680000"
      },
      "nonce": 5,
      "data": "0x",
      "r": "0xfdb031de461d97decd5097fa30aaaf6a9687984a31a90f42eb3dfc26405d7973",
      "s": "0x41c4ca9fa530dfa34d3ec120270c8783d15db9adf79c895b42e952da414be3ed",
      "v": 28,
      "creates": null,
      "raw": "0xf86d05850d1ef6822382753094a9f5e7bf6cbf6fec55b30850eb492b47a376d050890246ddf97976680000801ca0fdb031de461d97decd5097fa30aaaf6a9687984a31a90f42eb3dfc26405d7973a041c4ca9fa530dfa34d3ec120270c8783d15db9adf79c895b42e952da414be3ed",
      "networkId": 0,
      "chainId": 0
    },
    {
      "hash": "0x3f401bd8a1de11884c75a491ba4f81562a5b5e7fa439bba80d2c35ad39df4bc7",
      "blockHash": "0x3c4e59e7260e953574887544a8f31116a8f763b5996bc912d73d38a0d7daef44",
      "blockNumber": 107331,
      "transactionIndex": 3,
      "confirmations": null,
      "from": "0x55D1554b08a5311C5c0A0B6464162192f9D2f884",
      "gasPrice": {
        "_hex": "0xd0142d7de"
      },
      "gasLimit": {
        "_hex": "0x5208"
      },
      "to": "0xe74dfa89858fA989c1b3C38b1a1F605da5c61B72",
      "value": {
        "_hex": "0x55de6a779bbac0000"
      },
      "nonce": 6,
      "data": "0x",
      "r": "0xaf624bac81757a4c3d67954a17ef6aa5d6bbef723b558d6880aea25ab76c12e8",
      "s": "0x188fafc6a3e6b417873c607ac1b17fb5f9118763fa11b59b672e0a3aea9118a4",
      "v": 27,
      "creates": null,
      "raw": "0xf86d06850d0142d7de82520894e74dfa89858fa989c1b3c38b1a1f605da5c61b7289055de6a779bbac0000801ba0af624bac81757a4c3d67954a17ef6aa5d6bbef723b558d6880aea25ab76c12e8a0188fafc6a3e6b417873c607ac1b17fb5f9118763fa11b59b672e0a3aea9118a4",
      "networkId": 0,
      "chainId": 0
    },
    {
      "hash": "0xde7fcf5bf22ea1e93e6ded67e0c13b8b42befc29f86522910d6ab945c9572ef9",
      "blockHash": "0x3c4e59e7260e953574887544a8f31116a8f763b5996bc912d73d38a0d7daef44",
      "blockNumber": 107331,
      "transactionIndex": 4,
      "confirmations": null,
      "from": "0x61F642543d22bAf5382908a714E675Cc0b51ea45",
      "gasPrice": {
        "_hex": "0xcd7ba55f6"
      },
      "gasLimit": {
        "_hex": "0x5208"
      },
      "to": "0x32Be343B94f860124dC4fEe278FDCBD38C102D88",
      "value": {
        "_hex": "0x455f740138b95800"
      },
      "nonce": 18,
      "data": "0x",
      "r": "0x8430167d0b695850439e8f19a58fc94ac30fd9a0edc878c32c012708ecfccd61",
      "s": "0x0dad966245b245c882707315fe80ec175632c6dc24e47a062ef40e235c252a2d",
      "v": 28,
      "creates": null,
      "raw": "0xf86c12850cd7ba55f68252089432be343b94f860124dc4fee278fdcbd38c102d8888455f740138b95800801ca08430167d0b695850439e8f19a58fc94ac30fd9a0edc878c32c012708ecfccd61a00dad966245b245c882707315fe80ec175632c6dc24e47a062ef40e235c252a2d",
      "networkId": 0,
      "chainId": 0
    },
    {
      "hash": "0xba9b9f5c7af17ac68c27c8816aacdb7f5a085a3a59ccbce71c6b974ad7014aae",
      "blockHash": "0x3c4e59e7260e953574887544a8f31116a8f763b5996bc912d73d38a0d7daef44",
      "blockNumber": 107331,
      "transactionIndex": 5,
      "confirmations": null,
      "from": "0xFc2192cE1d9B23c42c3DCCBEC8aD4E58264e58ff",
      "gasPrice": {
        "_hex": "0xcd7ba55f6"
      },
      "gasLimit": {
        "_hex": "0x5208"
      },
      "to": "0x32Be343B94f860124dC4fEe278FDCBD38C102D88",
      "value": {
        "_hex": "0x15af195b3480050000"
      },
      "nonce": 0,
      "data": "0x",
      "r": "0x1a58667c2595e37f31c78f1d1963109dd0ed0a45e969a7a7ee67d1b127967041",
      "s": "0x45fd734c176b43ec367a3eb247fd5142200d16bdaf303bbfd9124593f9921516",
      "v": 28,
      "creates": null,
      "raw": "0xf86d80850cd7ba55f68252089432be343b94f860124dc4fee278fdcbd38c102d888915af195b3480050000801ca01a58667c2595e37f31c78f1d1963109dd0ed0a45e969a7a7ee67d1b127967041a045fd734c176b43ec367a3eb247fd5142200d16bdaf303bbfd9124593f9921516",
      "networkId": 0,
      "chainId": 0
    }
  ]
}