{
  "hash": "0xd89128ec321e2d65dba828b12e0bd1e1cf95f4029b569c9041280c4440c4e847",
  "parentHash": "0x7ee2f278a14e9efc2ba2b74199c6b3dc0db94d206f3d1fd6dd0ba49d1ce16d02",
  "number": 47785,
  "timestamp": 1438946233,
  "nonce": "0xf218da46dd9da836",
  "difficulty": 1455153102743,
  "gasLimit": {
    "_hex": "0xf2f9"
  },
  "gasUsed": {
    "_hex": "0x5208"
  },
  "miner": "0x580992B51e3925e23280EfB93d3047C82f17E038",
  "extraData": "0x476574682f76312e302e312f6c696e75782f676f312e342e32",
  "transactions": [
    {
      "hash": "0x8cc53c9b3bfd1e2657797af6fed2f2f958fbb07e3d8ca97c2ae0a6afa8048962",
      "blockHash": "0xd89128ec321e2d65dba828b12e0bd1e1cf95f4029b569c9041280c4440c4e847",
      "blockNumber": 47785,
      "transactionIndex": 0,
      "confirmations": null,
      "from": "0xe6A7a1d47ff21B6321162AEA7C6CB457D5476Bca",
      "gasPrice": {
        "_hex": "0xd934fa76a"
      },
      "gasLimit": {
        "_hex": "0x55f0"
      },
      "to": "0x741Df8a3A584EA9D5fadBB30CA7127293345312A",
      "value": {
        "_hex": "0x22d4dfdcccc725ec0"
      },
      "nonce": 236,
      "data": "0x",
      "r": "0x3c3c27bea24604adc1c8d947a95bd1f97656a8bc83a57f32d70001c01dac9507",
      "s": "0x751d5016d5e70b744273dfb0f06fa733298b84405a6904c7ad41088a0d08c4c0",
      "v": 28,
      "creates": null,
      "raw": "0xf86e81ec850d934fa76a8255f094741df8a3a584ea9d5fadbb30ca7127293345312a89022d4dfdcccc725ec0801ca03c3c27bea24604adc1c8d947a95bd1f97656a8bc83a57f32d70001c01dac9507a0751d5016d5e70b744273dfb0f06fa733298b84405a6904c7ad41088a0d08c4c0",
      "networkId": 0,
      "chainId": 0
    }
  ]
}