{
  "hash": "0xaec0db0923abaca4ebf9439de6c14c815125399a1b1994da9d9b9a7258428c5d",
  "parentHash": "0x40d2ac730857a14a84212f11d7f7f9ee62eea75d69389e4aaa8d92f17e46a878",
  "number": 111355,
  "timestamp": 1439988808,
  "nonce": "0x8a87420ceb2f177a",
  "difficulty": 4431006785283,
  "gasLimit": {
    "_hex": "0x2fefd8"
  },
  "gasUsed": {
    "_hex": "0x5208"
  },
  "miner": "0xe6A7a1d47ff21B6321162AEA7C6CB457D5476Bca",
  "extraData": "0x476574682f76312e302e312d38326566323666362f6c696e75782f676f312e34",
  "transactions": [
    {
      "hash": "0x394bf36a7160c16bdc67e8b867b0fe9f2e689af1fa664184bcf313ff35bcbc53",
      "blockHash": "0xaec0db0923abaca4ebf9439de6c14c815125399a1b1994da9d9b9a7258428c5d",
      "blockNumber": 111355,
      "transactionIndex": 0,
      "confirmations": null,
      "from": "0x2fc82Ef076932341264f617a0c80dd571e6Ae939",
      "gasPrice": {
        "_hex": "0xdbbbbe0b4"
      },
      "gasLimit": {
        "_hex": "0x15f90"
      },
      "to": "0xe6C81DCB15b7ae3103C5AC90421cf7eba0AEfDF1",
      "value": {
        "_hex": "0x1841726fd77455c8000"
      },
      "nonce": 0,
      "data": "0x",
      "r": "0xe51ebf02838899377493e3b78afa0dca8bb8f659f73f6441400b7fb7a305584c",
      "s": "0x12150d4042572aa511191b54443b18d497039338c7b18ad35349ac8bea916483",
      "v": 27,
      "creates": null,
      "raw": "0xf86f80850dbbbbe0b483015f9094e6c81dcb15b7ae3103c5ac90421cf7eba0aefdf18a01841726fd77455c8000801ba0e51ebf02838899377493e3b78afa0dca8bb8f659f73f6441400b7fb7a305584ca012150d4042572aa511191b54443b18d497039338c7b18ad35349ac8bea916483",
      "networkId": 0,
      "chainId": 0
    }
  ]
}