{
  "hash": "0x9349e0e448b147fe1035f073dd654981b9904717e516df70b6750beacd9067e5",
  "parentHash": "0xb4bc06bc9fe8eb5a25f44658903463ab054239dad741c863024507885df323c7",
  "number": 68562,
  "timestamp": 1439290052,
  "nonce": "0x8be04b3c974d0698",
  "difficulty": 2012332487224,
  "gasLimit": {
    "_hex": "0x2fefd8"
  },
  "gasUsed": {
    "_hex": "0x546c"
  },
  "miner": "0xeB1325C8D9d3ea8D74aC11F4B00F1B2367686319",
  "extraData": "0x476574682f76312e302e312f77696e646f77732f676f312e342e32",
  "transactions": [
    {
      "hash": "0xecd4dba6848ab774c95fb44f33c6115d183e76214bb1f5014ad3a7d9bedc13c0",
      "blockHash": "0x9349e0e448b147fe1035f073dd654981b9904717e516df70b6750beacd9067e5",
      "blockNumber": 68562,
      "transactionIndex": 0,
      "confirmations": null,
      "from": "0x8F68fbE2DCFf038C24F650C9e05Ee478038171cd",
      "gasPrice": {
        "_hex": "0xd30d05442"
      },
      "gasLimit": {
        "_hex": "0x55f0"
      },
      "to": "0x2910543Af39abA0Cd09dBb2D50200b3E800A63D2",
      "value": {
        "_hex": "0x97c9ce4cf6d5c00000"
      },
      "nonce": 8,
      "data": "0x454e36383358334d30",
      "r": "0x5b8b03afa8e52c0fe2d832ff8a00228647aaf29e0108868fb236ede260509656",
      "s": "0x01a2c421fd10c0687e8e3024637296ccdd744907fb6cc42fcfc34d39df6b5945",
      "v": 27,
      "creates": null,
      "raw": "0xf87608850d30d054428255f0942910543af39aba0cd09dbb2d50200b3e800a63d28997c9ce4cf6d5c0000089454e36383358334d301ba05b8b03afa8e52c0fe2d832ff8a00228647aaf29e0108868fb236ede260509656a001a2c421fd10c0687e8e3024637296ccdd744907fb6cc42fcfc34d39df6b5945",
      "networkId": 0,
      "chainId": 0
    }
  ]
}