{
  "hash": "0x686046bcff43cb7cd98245e1ed43af927c085684c1d0120202be29a32a097dd1",
  "parentHash": "0x6a982c74b136e5b7acab3c8d63f87302c37cb3487cba9a07d5ea33e72a865fe5",
  "number": 65517,
  "timestamp": 1439238350,
  "nonce": "0xd50d03d631336ed5",
  "difficulty": 1952080568178,
  "gasLimit": {
    "_hex": "0x2fefd8"
  },
  "gasUsed": {
    "_hex": "0xa674"
  },
  "miner": "0xbb7B8287f3F0a933474a79eAe42CBCa977791171",
  "extraData": "0x476574682f4c5649562f76312e302e312f6c696e75782f676f312e342e32",
  "transactions": [
    {
      "hash": "0xea99ec5c9466875a3a385706da0d3cd665e0ab006106faf47d2f588a15ec9e99",
      "blockHash": "0x686046bcff43cb7cd98245e1ed43af927c085684c1d0120202be29a32a097dd1",
      "blockNumber": 65517,
      "transactionIndex": 0,
      "confirmations": null,
      "from": "0x9EEF442d291A447d74c5d253c49Ef324eAc1d8f0",
      "gasPrice": {
        "_hex": "0x110c8f7d8de"
      },
      "gasLimit": {
        "_hex": "0xc350"
      },
      "to": "0x2910543Af39abA0Cd09dBb2D50200b3E800A63D2",
      "value": {
        "_hex": "0x14db7a9681d38b0000"
      },
      "nonce": 5,
      "data": "0x454e4842464d555647",
      "r": "0xccc4ea5aef09caa729ea877ae7d41e40fc33f34e17454a23466645812defbfcb",
      "s": "0x9ad25a0c04558a549e1c10274a68c9beaec88c0cf4d9b3c329e285417fbf3eef",
      "v": 27,
      "creates": null,
      "raw": "0xf87705860110c8f7d8de82c350942910543af39aba0cd09dbb2d50200b3e800a63d28914db7a9681d38b000089454e4842464d5556471ba0ccc4ea5aef09caa729ea877ae7d41e40fc33f34e17454a23466645812defbfcba09ad25a0c04558a549e1c10274a68c9beaec88c0cf4d9b3c329e285417fbf3eef",
      "networkId": 0,
      "chainId": 0
    },
    {
      "hash": "0x1e0e0733d06ff4a6947a3d1dc19aeb1c0ec5bed57fb3f5be8fbd331c8a9f7a63",
      "blockHash": "0x686046bcff43cb7cd98245e1ed43af927c085684c1d0120202be29a32a097dd1",
      "blockNumber": 65517,
      "transactionIndex": 1,
      "confirmations": null,
      "from": "0x2910543Af39abA0Cd09dBb2D50200b3E800A63D2",
      "gasPrice": {
        "_hex": "0xcfc41db3e"
      },
      "gasLimit": {
        "_hex": "0x5208"
      },
      "to": "0x93927961f3fdb5Cf5aA661Bef65EC6FCb23A719f",
      "value": {
        "_hex": "0x5d26f39e63f9ca8000"
      },
      "nonce": 181,
      "data": "0x",
      "r": "0x37528e6b3a074cf28d9e8628f5807f8f6b56596d0e873df13020f13fc29db4b9",
      "s": "0x54e22cd17332967b3f837f14ad47710b8e81288f9aa520514f962102ff2def04",
      "v": 28,
      "creates": null,
      "raw": "0xf86e81b5850cfc41db3e8252089493927961f3fdb5cf5aa661bef65ec6fcb23a719f895d26f39e63f9ca8000801ca037528e6b3a074cf28d9e8628f5807f8f6b56596d0e873df13020f13fc29db4b9a054e22cd17332967b3f837f14ad47710b8e81288f9aa520514f962102ff2def04",
      "networkId": 0,
      "chainId": 0
    }
  ]
}