{
  "hash": "0xed03d1054ed402e149959dd9a888501cb4ef21c0de8d3b2aa195e8a805ecc119",
  "parentHash": "0x4635c375d34e79c75f504da7b7ff2da5e32cb7250580863f51ecb9786af23327",
  "number": 65290,
  "timestamp": 1439234407,
  "nonce": "0xd8ef78fbe07354e6",
  "difficulty": 1945472451665,
  "gasLimit": {
    "_hex": "0x2fefd8"
  },
  "gasUsed": {
    "_hex": "0xf618"
  },
  "miner": "0xbb7B8287f3F0a933474a79eAe42CBCa977791171",
  "extraData": "0x476574682f4c5649562f76312e302e312f6c696e75782f676f312e342e32",
  "transactions": [
    {
      "hash": "0xb8a7ff9ac01cd1dcdef7488d4d9a48a46ed65df6bbc35556b99b64b317457edf",
      "blockHash": "0xed03d1054ed402e149959dd9a888501cb4ef21c0de8d3b2aa195e8a805ecc119",
      "blockNumber": 65290,
      "transactionIndex": 0,
      "confirmations": null,
      "from": "0x2910543Af39abA0Cd09dBb2D50200b3E800A63D2",
      "gasPrice": {
        "_hex": "0xe065ab84e"
      },
      "gasLimit": {
        "_hex": "0x5208"
      },
      "to": "0x8F586E3212291c58DCc78980a9c3432a3aFd3b6E",
      "value": {
        "_hex": "0x104344570ef14f8000"
      },
      "nonce": 172,
      "data": "0x",
      "r": "0x5ffe4724f1e74d5f556b2124913139a3c7c368c02310211e83d15826b2677881",
      "s": "0x4dcf43775774a59296c32fda44a5e724cfd7d47324494992e0fdd74ffc1d315c",
      "v": 27,
      "creates": null,
      "raw": "0xf86e81ac850e065ab84e825208948f586e3212291c58dcc78980a9c3432a3afd3b6e89104344570ef14f8000801ba05ffe4724f1e74d5f556b2124913139a3c7c368c02310211e83d15826b2677881a04dcf43775774a59296c32fda44a5e724cfd7d47324494992e0fdd74ffc1d315c",
      "networkId": 0,
      "chainId": 0
    },
    {
      "hash": "0x4653ff0f5c951a0d6037c94eba7147458b354444a42e1d4b00a76cb0dc3b86bf",
      "blockHash": "0xed03d1054ed402e149959dd9a888501cb4ef21c0de8d3b2aa195e8a805ecc119",
      "blockNumber": 65290,
      "transactionIndex": 1,
      "confirmations": null,
      "from": "0x27bC88BcD00d1359207616684bC49c9f64e49B5D",
      "gasPrice": {
        "_hex": "0xba43b7400"
      },
      "gasLimit": {
        "_hex": "0x5208"
      },
      "to": "0x11511DC0B60AEC4198353b797FE30498F14fb2e9",
      "value": {
        "_hex": "0x8594ceb99153000"
      },
      "nonce": 1,
      "data": "0x",
      "r": "0x6a599797f11340475df907f66086cc1f4638f7571307b14ad5759d3ba7df8d9e",
      "s": "0x5885d09eb33f5193bbe40ecf6fbff37463674a25ddf19f09d5fa6c371fbb9e27",
      "v": 28,
      "creates": null,
      "raw": "0xf86c01850ba43b74008252089411511dc0b60aec4198353b797fe30498f14fb2e98808594ceb99153000801ca06a599797f11340475df907f66086cc1f4638f7571307b14ad5759d3ba7df8d9ea05885d09eb33f5193bbe40ecf6fbff37463674a25ddf19f09d5fa6c371fbb9e27",
      "networkId": 0,
      "chainId": 0
    },
    {
      "hash": "0x77b2f9284fee6a87c013349a5b35c0b1b9ef79ab28e1fc827c6b94d991999fd9",
      "blockHash": "0xed03d1054ed402e149959dd9a888501cb4ef21c0de8d3b2aa195e8a805ecc119",
      "blockNumber": 65290,
      "transactionIndex": 2,
      "confirmations": null,
      "from": "0x4FA5b61bC076cbaD1E02c4C0A1dfa9872Fad9A4D",
      "gasPrice": {
        "_hex": "0xba43b7400"
      },
      "gasLimit": {
        "_hex": "0x5208"
      },
      "to": "0x05ED11E01706D9C8E9067D78C7802f64afc4016f",
      "value": {
        "_hex": "0x7e59d0b59430000"
      },
      "nonce": 1,
      "data": "0x",
      "r": "0xd15dcbd0213ed9e2f0629f110d85c8151379735d3cf056380a50f511e26e38f5",
      "s": "0x7c645ec51431126a5037915d78bb8b2d2228e02dcee0fcbb20613bfe1b33a473",
      "v": 27,
      "creates": null,
      "raw": "0xf86c01850ba43b74008252089405ed11e01706d9c8e9067d78c7802f64afc4016f8807e59d0b59430000801ba0d15dcbd0213ed9e2f0629f110d85c8151379735d3cf056380a50f511e26e38f5a07c645ec51431126a5037915d78bb8b2d2228e02dcee0fcbb20613bfe1b33a473",
      "networkId": 0,
      "chainId": 0
    }
  ]
}