{
  "hash": "0x1ac554e2b793e838ae0310a51b8a7b0faec4cbb8569a106853f011b9ca62fea6",
  "parentHash": "0x73dc73850ae4234a16ce208a92d26ceaf3aa2fc3acd1321f935994f386cddc1c",
  "number": 70120,
  "timestamp": 1439314950,
  "nonce": "0x48afbe4b3d3c748c",
  "difficulty": 2112636918098,
  "gasLimit": {
    "_hex": "0x2fefd8"
  },
  "gasUsed": {
    "_hex": "0xa410"
  },
  "miner": "0xbb7B8287f3F0a933474a79eAe42CBCa977791171",
  "extraData": "0x476574682f4c5649562f76312e302e312f6c696e75782f676f312e342e32",
  "transactions": [
    {
      "hash": "0x8bf2ccaa313c48914912b45d3a5221cc22cd53285307758909e7ab7ea8b02e05",
      "blockHash": "0x1ac554e2b793e838ae0310a51b8a7b0faec4cbb8569a106853f011b9ca62fea6",
      "blockNumber": 70120,
      "transactionIndex": 0,
      "confirmations": null,
      "from": "0x2aBD9e50d51e97aFc9a984f64657eD9539c59c91",
      "gasPrice": {
        "_hex": "0xd1094e5c3"
      },
      "gasLimit": {
        "_hex": "0x5208"
      },
      "to": "0x32Be343B94f860124dC4fEe278FDCBD38C102D88",
      "value": {
        "_hex": "0x6c6b8f364af9740000"
      },
      "nonce": 1,
      "data": "0x",
      "r": "0x8deadc915943f06967425cd0bba8448d78ae146e842570104a9dce2e0f0b2ae5",
      "s": "0x67b672c66519bcc880e2db6b92ba0e90ac8d719ce9ec95d86b3096db4d9c086b",
      "v": 27,
      "creates": null,
      "raw": "0xf86d01850d1094e5c38252089432be343b94f860124dc4fee278fdcbd38c102d88896c6b8f364af9740000801ba08deadc915943f06967425cd0bba8448d78ae146e842570104a9dce2e0f0b2ae5a067b672c66519bcc880e2db6b92ba0e90ac8d719ce9ec95d86b3096db4d9c086b",
      "networkId": 0,
      "chainId": 0
    },
    {
      "hash": "0x797b92b92ee63885ecca885ee80f663906184b60cb35950f678948c200dcbb3e",
      "blockHash": "0x1ac554e2b793e838ae0310a51b8a7b0faec4cbb8569a106853f011b9ca62fea6",
      "blockNumber": 70120,
      "transactionIndex": 1,
      "confirmations": null,
      "from": "0xb50405193Dc0c7077dD65252C15C39242F0aCB76",
      "gasPrice": {
        "_hex": "0xd1094e5c3"
      },
      "gasLimit": {
        "_hex": "0x5208"
      },
      "to": "0x32Be343B94f860124dC4fEe278FDCBD38C102D88",
      "value": {
        "_hex": "0xddc7ba14828ec00"
      },
      "nonce": 1,
      "data": "0x",
      "r": "0x294e74a04ab4d6a3c2ec91b16b08b5d91e17a1ef76fac9e4c699acc4b03cc014",
      "s": "0x3d1cf651474a4f0ce2b98353c90f04b3679b2c9c51392d1bf8dbb2aa761f3125",
      "v": 28,
      "creates": null,
      "raw": "0xf86c01850d1094e5c38252089432be343b94f860124dc4fee278fdcbd38c102d88880ddc7ba14828ec00801ca0294e74a04ab4d6a3c2ec91b16b08b5d91e17a1ef76fac9e4c699acc4b03cc014a03d1cf651474a4f0ce2b98353c90f04b3679b2c9c51392d1bf8dbb2aa761f3125",
      "networkId": 0,
      "chainId": 0
    }
  ]
}