{
  "hash": "0x024c0933f43d6bfd2062a804cfd1eff9c89c096d88deb34c0d2d8f0f1cf60e83",
  "parentHash": "0x5761b8875f7db4aa918ece320595100134c275788641ff51b14fe66c211ec8a4",
  "number": 80436,
  "timestamp": 1439485472,
  "nonce": "0x6445c3d19d2c3d1e",
  "difficulty": 2405039947449,
  "gasLimit": {
    "_hex": "0x2fefd8"
  },
  "gasUsed": {
    "_hex": "0x206b5"
  },
  "miner": "0x2134e2a2b718DCa96580ECAC31E653Ea1fdd58DA",
  "extraData": "0x476574682f76312e302e312f77696e646f77732f676f312e342e32",
  "transactions": [
    {
      "hash": "0xa89f53b3475fbf8b7612c1bdf5ea42d3a46823b20a41fc4354b713ecc727635e",
      "blockHash": "0x024c0933f43d6bfd2062a804cfd1eff9c89c096d88deb34c0d2d8f0f1cf60e83",
      "blockNumber": 80436,
      "transactionIndex": 0,
      "confirmations": null,
      "from": "0x87C5B5874A18B4306DF8a752a6C8cc3E82daFc19",
      "gasPrice": {
        "_hex": "0x11a45551943"
      },
      "gasLimit": {
        "_hex": "0x493e0"
      },
      "to": "0xC4c51de1AbF5D60DBd329eC0F999Fd8f021ae9fC",
      "value": {
        "_hex": "0x5bd37d37cf77078"
      },
      "nonce": 207,
      "data": "0x8d2161860000000000000000000000000000000000000000000000000000000000000006d3d96ceed0cfca4794c2a5a3d3aeefe69da0a2a669e66a5651f30b64831c3db0",
      "r": "0xe0c2bcca90bd074fba1816ff743ffbaeafeac8e7dea7a627ae8120153d0bbb70",
      "s": "0x27d01f6b9040ab9def2e616137dea1c7d963b8f58f818053ec39ad88461b1e06",
      "v": 28,
      "creates": null,
      "raw": "0xf8b481cf86011a45551943830493e094c4c51de1abf5d60dbd329ec0f999fd8f021ae9fc8805bd37d37cf77078b8448d2161860000000000000000000000000000000000000000000000000000000000000006d3d96ceed0cfca4794c2a5a3d3aeefe69da0a2a669e66a5651f30b64831c3db01ca0e0c2bcca90bd074fba1816ff743ffbaeafeac8e7dea7a627ae8120153d0bbb70a027d01f6b9040ab9def2e616137dea1c7d963b8f58f818053ec39ad88461b1e06",
      "networkId": 0,
      "chainId": 0
    },
    {
      "hash": "0xb0da54dfb14dd88029bdc8db72579c0b2bb47abb34e45b8e1a25eb33156ef3db",
      "blockHash": "0x024c0933f43d6bfd2062a804cfd1eff9c89c096d88deb34c0d2d8f0f1cf60e83",
      "blockNumber": 80436,
      "transactionIndex": 1,
      "confirmations": null,
      "from": "0x32Be343B94f860124dC4fEe278FDCBD38C102D88",
      "gasPrice": {
        "_hex": "0xcc3e1e046"
      },
      "gasLimit": {
        "_hex": "0x5208"
      },
      "to": "0xB48CB04D046210A9F58175Ad35FCe298428e0969",
      "value": {
        "_hex": "0x717c402e113f1c00"
      },
      "nonce": 538,
      "data": "0x",
      "r": "0xef9963371ffc0af18d2afd8e4940b21ef757d203953b77c09627674216bf8f8e",
      "s": "0x31dc9fd42639d5957fbf2ada95585faa3bc5673ed1493b9ca1f1aa0c7c166b10",
      "v": 27,
      "creates": null,
      "raw": "0xf86e82021a850cc3e1e04682520894b48cb04d046210a9f58175ad35fce298428e096988717c402e113f1c00801ba0ef9963371ffc0af18d2afd8e4940b21ef757d203953b77c09627674216bf8f8ea031dc9fd42639d5957fbf2ada95585faa3bc5673ed1493b9ca1f1aa0c7c166b10",
      "networkId": 0,
      "chainId": 0
    }
  ]
}