{
  "hash": "0x86c974fcee6fbfc4b7f865aa59955380f2738473688c3d8c5143eff87c6724e8",
  "parentHash": "0xa960f3aa0a64af5c3a12bb82926aa6d4dda30f84bb8b9f0ac5a184344e993de1",
  "number": 117860,
  "timestamp": 1440116531,
  "nonce": "0x3d2274c2f2eed29e",
  "difficulty": 4335579460772,
  "gasLimit": {
    "_hex": "0x2fefd8"
  },
  "gasUsed": {
    "_hex": "0x14820"
  },
  "miner": "0x52bc44d5378309EE2abF1539BF71dE1b7d7bE3b5",
  "extraData": "0xd783010002844765746887676f312e342e32856c696e7578",
  "transactions": [
    {
      "hash": "0xa8a5adc9eb712c2d4983ec6b330f83db106e1528e4f40a0c7bc23679c59786c3",
      "blockHash": "0x86c974fcee6fbfc4b7f865aa59955380f2738473688c3d8c5143eff87c6724e8",
      "blockNumber": 117860,
      "transactionIndex": 0,
      "confirmations": null,
      "from": "0xec4B2cCFC84A4C62d73D56c44917986aAAaEe10f",
      "gasPrice": {
        "_hex": "0xba43b7400"
      },
      "gasLimit": {
        "_hex": "0x5208"
      },
      "to": "0x32Be343B94f860124dC4fEe278FDCBD38C102D88",
      "value": {
        "_hex": "0x25770af0929b9400"
      },
      "nonce": 9,
      "data": "0x",
      "r": "0xfd816bf582bdf755e94832af1448167e9f7e76354873b724bae7ed16f7482471",
      "s": "0x7e68a7d26be0211df94774ac403549acd877a75eab5c5f96664c8c6aa88770a3",
      "v": 28,
      "creates": null,
      "raw": "0xf86c09850ba43b74008252089432be343b94f860124dc4fee278fdcbd38c102d888825770af0929b9400801ca0fd816bf582bdf755e94832af1448167e9f7e76354873b724bae7ed16f7482471a07e68a7d26be0211df94774ac403549acd877a75eab5c5f96664c8c6aa88770a3",
      "networkId": 0,
      "chainId": 0
    },
    {
      "hash": "0xfb8b663c7405cf01973dc36dec471c81915a16ffe86315b228de1fb2ddaf1eb7",
      "blockHash": "0x86c974fcee6fbfc4b7f865aa59955380f2738473688c3d8c5143eff87c6724e8",
      "blockNumber": 117860,
      "transactionIndex": 1,
      "confirmations": null,
      "from": "0xC15233674F0Cb7729e4Ab8aB733430C40580914d",
      "gasPrice": {
        "_hex": "0xba43b7400"
      },
      "gasLimit": {
        "_hex": "0x5208"
      },
      "to": "0x32Be343B94f860124dC4fEe278FDCBD38C102D88",
      "value": {
        "_hex": "0x34c0aed6150b6000"
      },
      "nonce": 11,
      "data": "0x",
      "r": "0xb1f0f2708d6175b27fbc0a08a0bb6be0046faa6a497636fcc8816b107c630a19",
      "s": "0x7546e7aa3bc3eba6c4caba67a369574a08204b8b46b162d56f83f794692e1a04",
      "v": 27,
      "creates": null,
      "raw": "0xf86c0b850ba43b74008252089432be343b94f860124dc4fee278fdcbd38c102d888834c0aed6150b6000801ba0b1f0f2708d6175b27fbc0a08a0bb6be0046faa6a497636fcc8816b107c630a19a07546e7aa3bc3eba6c4caba67a369574a08204b8b46b162d56f83f794692e1a04",
      "networkId": 0,
      "chainId": 0
    },
    {
      "hash": "0xe7d1990503bb15a46edddeeb3b2dd3d2eb3f1a94d80d5cbf1be8e338a7195872",
      "blockHash": "0x86c974fcee6fbfc4b7f865aa59955380f2738473688c3d8c5143eff87c6724e8",
      "blockNumber": 117860,
      "transactionIndex": 2,
      "confirmations": null,
      "from": "0xB415e74b9b5B2058EF3541265aaF7ce09C4953bc",
      "gasPrice": {
        "_hex": "0xba43b7400"
      },
      "gasLimit": {
        "_hex": "0x5208"
      },
      "to": "0x32Be343B94f860124dC4fEe278FDCBD38C102D88",
      "value": {
        "_hex": "0x466bc64888ea5800"
      },
      "nonce": 11,
      "data": "0x",
      "r": "0x59c600ca6cbf4d6e4ef2750b32c1c48f87d70c7d89df402af2b9e324977b571e",
      "s": "0x6aff81281ee7a3da7336b8d16430b0f6aa2335e9547ecdd88231888687be21c5",
      "v": 28,
      "creates": null,
      "raw": "0xf86c0b850ba43b74008252089432be343b94f860124dc4fee278fdcbd38c102d8888466bc64888ea5800801ca059c600ca6cbf4d6e4ef2750b32c1c48f87d70c7d89df402af2b9e324977b571ea06aff81281ee7a3da7336b8d16430b0f6aa2335e9547ecdd88231888687be21c5",
      "networkId": 0,
      "chainId": 0
    },
    {
      "hash": "0xb6ff7fbcec6cecb7b3ee2fab1ac5d027138bf0613b9ab664a116bf35f834d51a",
      "blockHash": "0x86c974fcee6fbfc4b7f865aa59955380f2738473688c3d8c5143eff87c6724e8",
      "blockNumber": 117860,
      "transactionIndex": 3,
      "confirmations": null,
      "from": "0xcA422f88253D0492F13F304eBCF34892B3c07AEc",
      "gasPrice": {
        "_hex": "0xba43b7400"
      },
      "gasLimit": {
        "_hex": "0x5208"
      },
      "to": "0x32Be343B94f860124dC4fEe278FDCBD38C102D88",
      "value": {
        "_hex": "0x88fd0c39a5c7d000"
      },
      "nonce": 9,
      "data": "0x",
      "r": "0x5901976b060c1b524f88980260b01614ea98e21763b674fe157554c6138839c7",
      "s": "0x5ffaa7b6282b4de6322fee2e5068e4be34447151d65a393a26483a3cf6446e74",
      "v": 28,
      "creates": null,
      "raw": "0xf86c09850ba43b74008252089432be343b94f860124dc4fee278fdcbd38c102d888888fd0c39a5c7d000801ca05901976b060c1b524f88980260b01614ea98e21763b674fe157554c6138839c7a05ffaa7b6282b4de6322fee2e5068e4be34447151d65a393a26483a3cf6446e74",
      "networkId": 0,
      "chainId": 0
    }
  ]
}