{
  "hash": "0x4f609c7c6dda43a1de8aa6ee2c411d8c6592ea2fe725c96528545733fe08fe6a",
  "parentHash": "0x4f40f5a9ae380e743bb4768d95e11e626178d639a0c6b1486b489cd0d17c414e",
  "number": 102336,
  "timestamp": 1439836388,
  "nonce": "0x5a4355ca124edb23",
  "difficulty": 3947185306403,
  "gasLimit": {
    "_hex": "0x2fefd8"
  },
  "gasUsed": {
    "_hex": "0x5208"
  },
  "miner": "0x790b8a3cE86E707ED0eD32bF89B3269692a23CC1",
  "extraData": "0xd783010001844765746887676f312e342e32856c696e7578",
  "transactions": [
    {
      "hash": "0xc6a256e9f9fed49289769286c096910f615a9e29cdda4133e093ff81f3ee6edd",
      "blockHash": "0x4f609c7c6dda43a1de8aa6ee2c411d8c6592ea2fe725c96528545733fe08fe6a",
      "blockNumber": 102336,
      "transactionIndex": 0,
      "confirmations": null,
      "from": "0x007f7f58D3eb5b7510A301eCC749FC1fCDDBE14D",
      "gasPrice": {
        "_hex": "0xe0cfe7246"
      },
      "gasLimit": {
        "_hex": "0x15f90"
      },
      "to": "0xb1abce2918E21ddb93AA452731a12672A3d9F75a",
      "value": {
        "_hex": "0x4563918244f40000"
      },
      "nonce": 209,
      "data": "0x",
      "r": "0x48181018620fd99bee11fc598670f50cd264009d5b52eb43a021ed26fc2bdb80",
      "s": "0x372fa0c44dd2929cc193110dd5c1ff5a02d8afdc65f0272b7026988d29227fb6",
      "v": 28,
      "creates": null,
      "raw": "0xf86e81d1850e0cfe724683015f9094b1abce2918e21ddb93aa452731a12672a3d9f75a884563918244f40000801ca048181018620fd99bee11fc598670f50cd264009d5b52eb43a021ed26fc2bdb80a0372fa0c44dd2929cc193110dd5c1ff5a02d8afdc65f0272b7026988d29227fb6",
      "networkId": 0,
      "chainId": 0
    }
  ]
}