{
  "hash": "0x48bf5353c63766507dc8ee77ad64ed2a56ccb5f4321d5ea6886dc5211fc9a8f5",
  "parentHash": "0x024a7f2b0995c80adb3d1ca503b92a0c2714d49986f370f8560e4cb8a629898d",
  "number": 50213,
  "timestamp": 1438985511,
  "nonce": "0x8da70a791d16729f",
  "difficulty": 1514159872904,
  "gasLimit": {
    "_hex": "0x56e98"
  },
  "gasUsed": {
    "_hex": "0x546c"
  },
  "miner": "0x0aA8aE2485e31c024201BdF77BfA25021BC10C5b",
  "extraData": "0x6d75",
  "transactions": [
    {
      "hash": "0x4b7ba97d6dfd71c1956c111f0ec0251843da1e9b80da0e5294f1cc696b157ced",
      "blockHash": "0x48bf5353c63766507dc8ee77ad64ed2a56ccb5f4321d5ea6886dc5211fc9a8f5",
      "blockNumber": 50213,
      "transactionIndex": 0,
      "confirmations": null,
      "from": "0xA514D00EdD7108A6BE839a638DB2415418174196",
      "gasPrice": {
        "_hex": "0x110c8f7d8de"
      },
      "gasLimit": {
        "_hex": "0xc350"
      },
      "to": "0x2910543Af39abA0Cd09dBb2D50200b3E800A63D2",
      "value": {
        "_hex": "0x63f32bd864d27700000"
      },
      "nonce": 0,
      "data": "0x454e55314d354e5747",
      "r": "0x4267b1b7dc01cbab6d1edb7f10796bbceb0d7c5de44f75b46309bb8e58efb2d5",
      "s": "0xe3ea6f80f5480f0fbf56ff7aefd8db416149d65cfb379d66d5fb84e4c82d6219",
      "v": 28,
      "creates": null,
      "raw": "0xf87880860110c8f7d8de82c350942910543af39aba0cd09dbb2d50200b3e800a63d28a063f32bd864d2770000089454e55314d354e57471ca04267b1b7dc01cbab6d1edb7f10796bbceb0d7c5de44f75b46309bb8e58efb2d5a0e3ea6f80f5480f0fbf56ff7aefd8db416149d65cfb379d66d5fb84e4c82d6219",
      "networkId": 0,
      "chainId": 0
    }
  ]
}