{
  "hash": "0x64ff094d4c3ec9d71a7b65b51166dd653aa1aeaf0da513d06c497bf73ea54b23",
  "parentHash": "0x629d5f27ef60765f485504c2ab6d6b23f4a8eb5e1a6b43adc49e651b00ca29b0",
  "number": 62498,
  "timestamp": 1439189799,
  "nonce": "0xd5a9e30e92ad0be7",
  "difficulty": 1761610245228,
  "gasLimit": {
    "_hex": "0x2fefd8"
  },
  "gasUsed": {
    "_hex": "0x546c"
  },
  "miner": "0x580992B51e3925e23280EfB93d3047C82f17E038",
  "extraData": "0x476574682f76312e302e312f6c696e75782f676f312e342e32",
  "transactions": [
    {
      "hash": "0x9eb498829d554ce6f2e1458ab454b2a0f34acf53dfade7e8246f0e84c4f796ec",
      "blockHash": "0x64ff094d4c3ec9d71a7b65b51166dd653aa1aeaf0da513d06c497bf73ea54b23",
      "blockNumber": 62498,
      "transactionIndex": 0,
      "confirmations": null,
      "from": "0xAD44357E017e244f476931C7b8189Efee80a5D0A",
      "gasPrice": {
        "_hex": "0x110c8f7d8de"
      },
      "gasLimit": {
        "_hex": "0xc350"
      },
      "to": "0x2910543Af39abA0Cd09dBb2D50200b3E800A63D2",
      "value": {
        "_hex": "0xc7d713b49da0000"
      },
      "nonce": 1,
      "data": "0x454e31305a51465247",
      "r": "0xf7392b0a2af6dc9c43035d31d5c46a0772a9ccd4c05c5929e7d27c50c286d53f",
      "s": "0x66d8ff1d5c6cb6a79ac01bb5271b5b5610a93d944dd6833a40ebaeab577bcfee",
      "v": 27,
      "creates": null,
      "raw": "0xf87601860110c8f7d8de82c350942910543af39aba0cd09dbb2d50200b3e800a63d2880c7d713b49da000089454e31305a514652471ba0f7392b0a2af6dc9c43035d31d5c46a0772a9ccd4c05c5929e7d27c50c286d53fa066d8ff1d5c6cb6a79ac01bb5271b5b5610a93d944dd6833a40ebaeab577bcfee",
      "networkId": 0,
      "chainId": 0
    }
  ]
}