{
  "hash": "0xf20edfd3dfc63cb341f32be3bb779d2a62ceb776f513fe2c9d419902829b1350",
  "parentHash": "0xd4b6c76928ddeb339998b599c2a165e10fc837383ea734e0d6525ab4e2d0ca59",
  "number": 108190,
  "timestamp": 1439935941,
  "nonce": "0x8c17484e43b0abf8",
  "difficulty": 4361826267967,
  "gasLimit": {
    "_hex": "0x2fefd8"
  },
  "gasUsed": {
    "_hex": "0xa410"
  },
  "miner": "0x580992B51e3925e23280EfB93d3047C82f17E038",
  "extraData": "0x476574682f76312e302e312f6c696e75782f676f312e342e32",
  "transactions": [
    {
      "hash": "0x1af7cc8cd29de1402bed68acb6a0f7c7d11aa9b05c0e410a8d9467a00788d5fe",
      "blockHash": "0xf20edfd3dfc63cb341f32be3bb779d2a62ceb776f513fe2c9d419902829b1350",
      "blockNumber": 108190,
      "transactionIndex": 0,
      "confirmations": null,
      "from": "0xC5421FF9a6C1dfE6fE5BE19FA1322E70b77c8cb1",
      "gasPrice": {
        "_hex": "0xd9f57c5e1"
      },
      "gasLimit": {
        "_hex": "0x5208"
      },
      "to": "0x32Be343B94f860124dC4fEe278FDCBD38C102D88",
      "value": {
        "_hex": "0x15ee80056a49400"
      },
      "nonce": 1,
      "data": "0x",
      "r": "0xf346f396100b64f0fb04b94db8bbe4fb6e9b55e3967cacd5b60338c2f339827d",
      "s": "0x295d73f1b230b0a3f582f1ae83d3ac32516917e42e190dda6a0fdc4bbd761173",
      "v": 28,
      "creates": null,
      "raw": "0xf86c01850d9f57c5e18252089432be343b94f860124dc4fee278fdcbd38c102d8888015ee80056a49400801ca0f346f396100b64f0fb04b94db8bbe4fb6e9b55e3967cacd5b60338c2f339827da0295d73f1b230b0a3f582f1ae83d3ac32516917e42e190dda6a0fdc4bbd761173",
      "networkId": 0,
      "chainId": 0
    },
    {
      "hash": "0xb41a751b6dd8a1f554663a37e8d529277c3b854a00063e4b5b07a4354fc5671b",
      "blockHash": "0xf20edfd3dfc63cb341f32be3bb779d2a62ceb776f513fe2c9d419902829b1350",
      "blockNumber": 108190,
      "transactionIndex": 1,
      "confirmations": null,
      "from": "0xBBDa93a81B882774e1c9b5e3F933Fa35DaC8bc88",
      "gasPrice": {
        "_hex": "0xd9f57c5e1"
      },
      "gasLimit": {
        "_hex": "0x5208"
      },
      "to": "0x32Be343B94f860124dC4fEe278FDCBD38C102D88",
      "value": {
        "_hex": "0xcf74b45299319000"
      },
      "nonce": 11,
      "data": "0x",
      "r": "0x0d1b64755f2ed00c5c12a42ae30687d7b4a6b815609c166b576a2eb596342df6",
      "s": "0x30ee6405446d85a6a26b0a50705b4020ec53741cbe881320ccb87e79cfeb2e1f",
      "v": 27,
      "creates": null,
      "raw": "0xf86c0b850d9f57c5e18252089432be343b94f860124dc4fee278fdcbd38c102d8888cf74b45299319000801ba00d1b64755f2ed00c5c12a42ae30687d7b4a6b815609c166b576a2eb596342df6a030ee6405446d85a6a26b0a50705b4020ec53741cbe881320ccb87e79cfeb2e1f",
      "networkId": 0,
      "chainId": 0
    }
  ]
}