{
  "hash": "0x3552d2e4ea50b075c7b2aeb30051bef8d81fc8e38586f49751cfe3cd10747ea7",
  "parentHash": "0x16651feeb57d1d29a9dcc6df14fab5a0ca86d57f4fb753a272d153254591a003",
  "number": 113101,
  "timestamp": 1440017896,
  "nonce": "0xf22ee76f21828c50",
  "difficulty": 4482305053716,
  "gasLimit": {
    "_hex": "0x2fefd8"
  },
  "gasUsed": {
    "_hex": "0x5208"
  },
  "miner": "0xe6A7a1d47ff21B6321162AEA7C6CB457D5476Bca",
  "extraData": "0x476574682f76312e302e312d38326566323666362f6c696e75782f676f312e34",
  "transactions": [
    {
      "hash": "0x87b0c6ad2dfc08a71990f8f585e0f8304e0aadb7d649ad0ffca826e3952c8da3",
      "blockHash": "0x3552d2e4ea50b075c7b2aeb30051bef8d81fc8e38586f49751cfe3cd10747ea7",
      "blockNumber": 113101,
      "transactionIndex": 0,
      "confirmations": null,
      "from": "0x475526af19ba007Bc39bA43c0946892035AA1B08",
      "gasPrice": {
        "_hex": "0xbdfd63e00"
      },
      "gasLimit": {
        "_hex": "0x5208"
      },
      "to": "0x412bc0Ca868036dB7456168A1fEa69Cbfbb635Ce",
      "value": {
        "_hex": "0x8ac7230489e80000"
      },
      "nonce": 0,
      "data": "0x",
      "r": "0x2c4d294da00d568cb44a341fdd2ee5457e6e8e5dff7fedfffb27378bad9fde92",
      "s": "0x0653053132ea4daa74083d35ed387a1dcf18f9c0a9fbcad1d291e953bf7f12d8",
      "v": 28,
      "creates": null,
      "raw": "0xf86c80850bdfd63e0082520894412bc0ca868036db7456168a1fea69cbfbb635ce888ac7230489e80000801ca02c4d294da00d568cb44a341fdd2ee5457e6e8e5dff7fedfffb27378bad9fde92a00653053132ea4daa74083d35ed387a1dcf18f9c0a9fbcad1d291e953bf7f12d8",
      "networkId": 0,
      "chainId": 0
    }
  ]
}