{
  "hash": "0x84f10ee4801e8948424a81a13c7ef7ceaf5fdfac065dc324fe468334e2344e4d",
  "parentHash": "0xa1bf816db19a13e3b7ddbeeacc50ec8f0f181ba58b70e7b80cc054b237003b9f",
  "number": 103674,
  "timestamp": 1439857230,
  "nonce": "0x845c2452229fac5a",
  "difficulty": 4205191400411,
  "gasLimit": {
    "_hex": "0x2fefd8"
  },
  "gasUsed": {
    "_hex": "0x5208"
  },
  "miner": "0xe6A7a1d47ff21B6321162AEA7C6CB457D5476Bca",
  "extraData": "0x476574682f76312e302e312d38326566323666362f6c696e75782f676f312e34",
  "transactions": [
    {
      "hash": "0x0d4f24102345432e56fed7d8e5e9941bc8d99421ee1c98aee02c4b9580077870",
      "blockHash": "0x84f10ee4801e8948424a81a13c7ef7ceaf5fdfac065dc324fe468334e2344e4d",
      "blockNumber": 103674,
      "transactionIndex": 0,
      "confirmations": null,
      "from": "0x32Be343B94f860124dC4fEe278FDCBD38C102D88",
      "gasPrice": {
        "_hex": "0xd6a271011"
      },
      "gasLimit": {
        "_hex": "0x5208"
      },
      "to": "0xc93a69dFC0fb3E867D9207599f7fe87d51619635",
      "value": {
        "_hex": "0x56bc75e2d63100000"
      },
      "nonce": 1132,
      "data": "0x",
      "r": "0x53512b56e3587ab3076ee8349c6721bccd1ddfee7dea2c7a29c436552fcc4c6f",
      "s": "0x7687f70117e113b3b092f2bbd2c247b666fb49653b5a977f0675ffbe9e391f3c",
      "v": 28,
      "creates": null,
      "raw": "0xf86f82046c850d6a27101182520894c93a69dfc0fb3e867d9207599f7fe87d5161963589056bc75e2d63100000801ca053512b56e3587ab3076ee8349c6721bccd1ddfee7dea2c7a29c436552fcc4c6fa07687f70117e113b3b092f2bbd2c247b666fb49653b5a977f0675ffbe9e391f3c",
      "networkId": 0,
      "chainId": 0
    }
  ]
}