{
  "hash": "0x0e3db57a79d3ff2191f8a1e0f4f0c4ad3d8aac1992f2c334d199814ca5088fd6",
  "parentHash": "0x4b02f931cd91522d47ea913d7638437e6367e0c04192bf0e7266f4b32550925c",
  "number": 89964,
  "timestamp": 1439631831,
  "nonce": "0x8a3e771795b3752d",
  "difficulty": 3351602287249,
  "gasLimit": {
    "_hex": "0x2fefd8"
  },
  "gasUsed": {
    "_hex": "0x5208"
  },
  "miner": "0x19e83223b783b5c6673c06b06E093de7E85F3F87",
  "extraData": "0x",
  "transactions": [
    {
      "hash": "0x1707712e73bd8cb66897ec9eca9d85915bc5a2478e11ff23faaa61d021ac3329",
      "blockHash": "0x0e3db57a79d3ff2191f8a1e0f4f0c4ad3d8aac1992f2c334d199814ca5088fd6",
      "blockNumber": 89964,
      "transactionIndex": 0,
      "confirmations": null,
      "from": "0xFAB194aC2F8437fAdDeC28952ae2B2CB4F588E38",
      "gasPrice": {
        "_hex": "0xd4f07463d"
      },
      "gasLimit": {
        "_hex": "0x15f90"
      },
      "to": "0x23f2D0fd3B4C98Fb1698564deB4898275E2e831f",
      "value": {
        "_hex": "0x4563918244f40000"
      },
      "nonce": 1,
      "data": "0x",
      "r": "0x4abff271d8d3fbca7493942cc2df1016cba2d3848e1f391b0d411ec3df8b1f80",
      "s": "0x0760a65b734dc644110e849bbde701836f99fc3e455109a3483af23e817a5847",
      "v": 28,
      "creates": null,
      "raw": "0xf86d01850d4f07463d83015f909423f2d0fd3b4c98fb1698564deb4898275e2e831f884563918244f40000801ca04abff271d8d3fbca7493942cc2df1016cba2d3848e1f391b0d411ec3df8b1f80a00760a65b734dc644110e849bbde701836f99fc3e455109a3483af23e817a5847",
      "networkId": 0,
      "chainId": 0
    }
  ]
}