{
  "hash": "0x1cd1318fb2c2830b9fe62700115ae946d642a62e5fd4fd5b04550d35b46a36cf",
  "parentHash": "0xbd0dfd55ec44638b8acffb404e0897ebfb7939f2f83d2d402192c65557f774e1",
  "number": 69005,
  "timestamp": 1439296994,
  "nonce": "0x0bdab8a403ddc1e4",
  "difficulty": 2036940064055,
  "gasLimit": {
    "_hex": "0x2fefd8"
  },
  "gasUsed": {
    "_hex": "0xbe6c"
  },
  "miner": "0x47ff6576639c2e94762eA5443978D7681C0E78DC",
  "extraData": "0x476574682f76312e302e312f6c696e75782f676f312e342e32",
  "transactions": [
    {
      "hash": "0x9f4800a41a2986b1bad3fdfdfcecea91083ea3ee0a011639c1397b49f44ca556",
      "blockHash": "0x1cd1318fb2c2830b9fe62700115ae946d642a62e5fd4fd5b04550d35b46a36cf",
      "blockNumber": 69005,
      "transactionIndex": 0,
      "confirmations": null,
      "from": "0xE6565E586a6F801298b90AbC88BC4D06796c6299",
      "gasPrice": {
        "_hex": "0xba43b7400"
      },
      "gasLimit": {
        "_hex": "0x15f90"
      },
      "to": "0x793AE8C1b1a160BFc07BFB0d04F85eab1A71F4f2",
      "value": {
        "_hex": "0x0"
      },
      "nonce": 0,
      "data": "0x3ba15036",
      "r": "0x63e05a3965933edbea6144f238ec1291f0753a21f04de7c85b8ccdfb0d9ffb56",
      "s": "0x3496ad161307598104ae156c0b57f37a8a9d182570757bb9de7c0ec37e4e05b4",
      "v": 27,
      "creates": null,
      "raw": "0xf86980850ba43b740083015f9094793ae8c1b1a160bfc07bfb0d04f85eab1a71f4f280843ba150361ba063e05a3965933edbea6144f238ec1291f0753a21f04de7c85b8ccdfb0d9ffb56a03496ad161307598104ae156c0b57f37a8a9d182570757bb9de7c0ec37e4e05b4",
      "networkId": 0,
      "chainId": 0
    }
  ]
}