{
  "hash": "0xe99ed1c79af2e60189fc018250f97bf53f85fcaaf3074cdf7b47df0cee6c0f0b",
  "parentHash": "0x3d864ddc72fe0baddda8995466baee66349e1b30acd32826241a88517f61c513",
  "number": 106130,
  "timestamp": 1439899125,
  "nonce": "0xca7a78a5595ef89e",
  "difficulty": 4470724491181,
  "gasLimit": {
    "_hex": "0x2fefd8"
  },
  "gasUsed": {
    "_hex": "0x5208"
  },
  "miner": "0xf8E0CA3Ed80bd541b94BEdCf259e8CF2141A9523",
  "extraData": "0x476574682f76312e302e312f77696e646f77732f676f312e342e32",
  "transactions": [
    {
      "hash": "0x4320558cef6f46f2c4c56135f8c5b29d9bcf3671959b76bca4801227a6d61cff",
      "blockHash": "0xe99ed1c79af2e60189fc018250f97bf53f85fcaaf3074cdf7b47df0cee6c0f0b",
      "blockNumber": 106130,
      "transactionIndex": 0,
      "confirmations": null,
      "from": "0x32Be343B94f860124dC4fEe278FDCBD38C102D88",
      "gasPrice": {
        "_hex": "0xd55c80b7c"
      },
      "gasLimit": {
        "_hex": "0x5208"
      },
      "to": "0x847B8DC7fE5FCEbda3c7b5171d9bCaB859784261",
      "value": {
        "_hex": "0xdb614c3ee160000"
      },
      "nonce": 1184,
      "data": "0x",
      "r": "0xa3c9cb19b445b55fea2e8844bfd29ec491117bb5fc2ce02bdc0cdff3c8f4bb95",
      "s": "0x51883f421a0a830af71f19aa0430d89596ed2aa2c88b10660e26d5229a5a776c",
      "v": 27,
      "creates": null,
      "raw": "0xf86e8204a0850d55c80b7c82520894847b8dc7fe5fcebda3c7b5171d9bcab859784261880db614c3ee160000801ba0a3c9cb19b445b55fea2e8844bfd29ec491117bb5fc2ce02bdc0cdff3c8f4bb95a051883f421a0a830af71f19aa0430d89596ed2aa2c88b10660e26d5229a5a776c",
      "networkId": 0,
      "chainId": 0
    }
  ]
}