{
  "hash": "0xf8f8dc648427d348f1733dcc61c47876e780ab73ebd026698e9c385a348479b3",
  "parentHash": "0x0dd1099adc54907576e840cc19cac9c2180143c3c7eeb33fa504d5f2bddef0f3",
  "number": 49753,
  "timestamp": 1438978541,
  "nonce": "0x86b5dde794776755",
  "difficulty": 1492223282046,
  "gasLimit": {
    "_hex": "0x3d496"
  },
  "gasUsed": {
    "_hex": "0x546c"
  },
  "miner": "0x458F183347F45a4001807728A89F31E9Da9D4A58",
  "extraData": "0x476574682f76312e302e302f77696e646f77732f676f312e342e32",
  "transactions": [
    {
      "hash": "0x25996d7292d9ece876768d76a5cf2a0ada6b3468a33ab249bad68017d6a52ddf",
      "blockHash": "0xf8f8dc648427d348f1733dcc61c47876e780ab73ebd026698e9c385a348479b3",
      "blockNumber": 49753,
      "transactionIndex": 0,
      "confirmations": null,
      "from": "0x5D872b122E994EF27C71d7DeB457bf65429eca6C",
      "gasPrice": {
        "_hex": "0x10dc90d85e7"
      },
      "gasLimit": {
        "_hex": "0x15f90"
      },
      "to": "0x2910543Af39abA0Cd09dBb2D50200b3E800A63D2",
      "value": {
        "_hex": "0xa240380a6808240000"
      },
      "nonce": 2,
      "data": "0x454e544b554b4b5a38",
      "r": "0xf714f593bb19fa398e80311fabd659f40500a9691ca38ad67e5ba57555e0f6e9",
      "s": "0x72d2c9d8e3330a205d74aca73c40dd2bd795d3d8d7013b85e33fb6278d0eae6e",
      "v": 28,
      "creates": null,
      "raw": "0xf8780286010dc90d85e783015f90942910543af39aba0cd09dbb2d50200b3e800a63d289a240380a680824000089454e544b554b4b5a381ca0f714f593bb19fa398e80311fabd659f40500a9691ca38ad67e5ba57555e0f6e9a072d2c9d8e3330a205d74aca73c40dd2bd795d3d8d7013b85e33fb6278d0eae6e",
      "networkId": 0,
      "chainId": 0
    }
  ]
}