{
  "hash": "0x97a0c848a0a7a9b00778c40fb95756e15ed786120a394412770a7230dfd620f1",
  "parentHash": "0x25f83a596942a92895973f47d50521fd6871581288d4eac13a9c3e8a312dd5fa",
  "number": 90063,
  "timestamp": 1439633621,
  "nonce": "0x97647e5aa3c079b1",
  "difficulty": 3343390186271,
  "gasLimit": {
    "_hex": "0x2fefd8"
  },
  "gasUsed": {
    "_hex": "0x8c11"
  },
  "miner": "0xe6A7a1d47ff21B6321162AEA7C6CB457D5476Bca",
  "extraData": "0x476574682f76312e302e312d38326566323666362f6c696e75782f676f312e34",
  "transactions": [
    {
      "hash": "0xb39246d172151088acaf4a176ed73bec164520fceeabd908b47afbae9ae7cf5c",
      "blockHash": "0x97a0c848a0a7a9b00778c40fb95756e15ed786120a394412770a7230dfd620f1",
      "blockNumber": 90063,
      "transactionIndex": 0,
      "confirmations": null,
      "from": "0x0037A6B811ffeB6e072DA21179d11B1406371C63",
      "gasPrice": {
        "_hex": "0xba43b7400"
      },
      "gasLimit": {
        "_hex": "0x97a5b"
      },
      "to": "0xde0B295669a9FD93d5F28D9Ec85E40f4cb697BAe",
      "value": {
        "_hex": "0x0"
      },
      "nonce": 1,
      "data": "0x797af627d02e23b68e085092cd0d47d6cfb54be025f37b5989c0264398f534c08af7dea9",
      "r": "0x2076b95348fcdb16d2fc8944056426376793ad054e97acc67c369e30a97d9fbf",
      "s": "0x570d9fba39e78f379a4b3bf34801951ddc8b67354e1d73ec4a73da6ecb9c6f35",
      "v": 28,
      "creates": null,
      "raw": "0xf88901850ba43b740083097a5b94de0b295669a9fd93d5f28d9ec85e40f4cb697bae80a4797af627d02e23b68e085092cd0d47d6cfb54be025f37b5989c0264398f534c08af7dea91ca02076b95348fcdb16d2fc8944056426376793ad054e97acc67c369e30a97d9fbfa0570d9fba39e78f379a4b3bf34801951ddc8b67354e1d73ec4a73da6ecb9c6f35",
      "networkId": 0,
      "chainId": 0
    }
  ]
}