{
  "hash": "0x459c6b76250913129ca4a0586d87b42952246d9127894bf1eaaefdf7fd4a32c6",
  "parentHash": "0x42275b378f1df31654b2d5c1db2fef9aecf20e6124124667314610342d1d3816",
  "number": 106427,
  "timestamp": 1439903999,
  "nonce": "0x446062993d759a6a",
  "difficulty": 4494642639887,
  "gasLimit": {
    "_hex": "0x2fefd8"
  },
  "gasUsed": {
    "_hex": "0x579e"
  },
  "miner": "0x336d20e2139665Aed8C697772bD5B2F9593369b6",
  "extraData": "0x",
  "transactions": [
    {
      "hash": "0x28e22fdeda27348ee84bf466b4b0501601025476463d08bf36121afcc5d6809e",
      "blockHash": "0x459c6b76250913129ca4a0586d87b42952246d9127894bf1eaaefdf7fd4a32c6",
      "blockNumber": 106427,
      "transactionIndex": 0,
      "confirmations": null,
      "from": "0x87C5B5874A18B4306DF8a752a6C8cc3E82daFc19",
      "gasPrice": {
        "_hex": "0x11952a10c99"
      },
      "gasLimit": {
        "_hex": "0x493e0"
      },
      "to": "0xD79B4C6791784184e2755B2fC1659eaaB0f80456",
      "value": {
        "_hex": "0x0"
      },
      "nonce": 357,
      "data": "0xbd66528a6b6b6b0000000000000000000000000000000000000000000000000000000000",
      "r": "0x8f486c91507c6d7e1d15827aa1a3329dbdf38cac1ec35defba7ddc61b94572fe",
      "s": "0x448a1c4e88e49d3c1894b3de775dea6963450c0cd9d0fe767f2c7a3a13b2b910",
      "v": 27,
      "creates": null,
      "raw": "0xf88c82016586011952a10c99830493e094d79b4c6791784184e2755b2fc1659eaab0f8045680a4bd66528a6b6b6b00000000000000000000000000000000000000000000000000000000001ba08f486c91507c6d7e1d15827aa1a3329dbdf38cac1ec35defba7ddc61b94572fea0448a1c4e88e49d3c1894b3de775dea6963450c0cd9d0fe767f2c7a3a13b2b910",
      "networkId": 0,
      "chainId": 0
    }
  ]
}