{
  "hash": "0xb1395949cd1ae4b6cdec61f134f6772c7931a193a1b89fdf22391cbd0ee73bba",
  "parentHash": "0x4e437046a8d227ea74ed45ca9c9ce80527c1bfb00817a2415db666a628e94e5a",
  "number": 81207,
  "timestamp": 1439497750,
  "nonce": "0x24798dea26b3b813",
  "difficulty": 2458243968745,
  "gasLimit": {
    "_hex": "0x2fefd8"
  },
  "gasUsed": {
    "_hex": "0x5208"
  },
  "miner": "0xbb7B8287f3F0a933474a79eAe42CBCa977791171",
  "extraData": "0x476574682f4c5649562f76312e302e312f6c696e75782f676f312e342e32",
  "transactions": [
    {
      "hash": "0x89997946afbe4607e6dcb33bd5f96094a789be33d9678a91aaa14389632e7d99",
      "blockHash": "0xb1395949cd1ae4b6cdec61f134f6772c7931a193a1b89fdf22391cbd0ee73bba",
      "blockNumber": 81207,
      "transactionIndex": 0,
      "confirmations": null,
      "from": "0xa6BDc31c431B8F97848c9D60cbbe9660dc450eB7",
      "gasPrice": {
        "_hex": "0xcc8acb9f5"
      },
      "gasLimit": {
        "_hex": "0x5208"
      },
      "to": "0x32Be343B94f860124dC4fEe278FDCBD38C102D88",
      "value": {
        "_hex": "0x455f78d58d634400"
      },
      "nonce": 47,
      "data": "0x",
      "r": "0x7d0e5c5a84c1f584eaf074c95549e55596f1f876df3cc6550e4d408a9d00da8d",
      "s": "0x5923ffb384847f29a1dfd45e101bef8d6c5634b8d182813ab06c5b6abbbdd1ac",
      "v": 28,
      "creates": null,
      "raw": "0xf86c2f850cc8acb9f58252089432be343b94f860124dc4fee278fdcbd38c102d8888455f78d58d634400801ca07d0e5c5a84c1f584eaf074c95549e55596f1f876df3cc6550e4d408a9d00da8da05923ffb384847f29a1dfd45e101bef8d6c5634b8d182813ab06c5b6abbbdd1ac",
      "networkId": 0,
      "chainId": 0
    }
  ]
}