{
  "hash": "0xd720d7f58c1abace262370fbddc48cd65799010c3db0fe5dd5914c2663a3b1e8",
  "parentHash": "0x93ffd23fd9cae3443d8ff2c9eb2862aa12e5a0c0f9d6cea8484666cbe61cf33b",
  "number": 52600,
  "timestamp": 1439024123,
  "nonce": "0xde00808dbe9621bd",
  "difficulty": 1568658392950,
  "gasLimit": {
    "_hex": "0x161db8"
  },
  "gasUsed": {
    "_hex": "0xf96ac"
  },
  "miner": "0x82efFBAaaf28614E55b2BA440FB198E0e5789B0f",
  "extraData": "0x476574682f44616e6b486173682f76312e302e312f77696e646f77732f676f31",
  "transactions": [
    {
      "hash": "0x15de6811e2ee1ff63a6563723e4a0938e1b4d0cd37a3040255cb49fbb8da7530",
      "blockHash": "0xd720d7f58c1abace262370fbddc48cd65799010c3db0fe5dd5914c2663a3b1e8",
      "blockNumber": 52600,
      "transactionIndex": 0,
      "confirmations": null,
      "from": "0x35ac1d3ed7464FA3dB14E7729213ceAa378c095e",
      "gasPrice": {
        "_hex": "0x112c23cdfa9"
      },
      "gasLimit": {
        "_hex": "0x15f90"
      },
      "to": "0x2910543Af39abA0Cd09dBb2D50200b3E800A63D2",
      "value": {
        "_hex": "0x524a7b5d4a92f80000"
      },
      "nonce": 1,
      "data": "0x454e42555955464b38",
      "r": "0xc9be018bb16451748c633bac3f268fec775924acc4b100b4b51d3b3601b1d993",
      "s": "0x04c62fa656dec3217e642ba616ffa10abebe2b69560ccdac2be6b497c728c267",
      "v": 28,
      "creates": null,
      "raw": "0xf87801860112c23cdfa983015f90942910543af39aba0cd09dbb2d50200b3e800a63d289524a7b5d4a92f8000089454e42555955464b381ca0c9be018bb16451748c633bac3f268fec775924acc4b100b4b51d3b3601b1d993a004c62fa656dec3217e642ba616ffa10abebe2b69560ccdac2be6b497c728c267",
      "networkId": 0,
      "chainId": 0
    },
    {
      "hash": "0x8f9e3a136e6a9bf0ce54ce4663c744e4f110640feab31714d37dd97c10f8f4b8",
      "blockHash": "0xd720d7f58c1abace262370fbddc48cd65799010c3db0fe5dd5914c2663a3b1e8",
      "blockNumber": 52600,
      "transactionIndex": 1,
      "confirmations": null,
      "from": "0x54dAeb3E8a6BBC797E4aD2b0339f134b186e4637",
      "gasPrice": {
        "_hex": "0xdada9c769"
      },
      "gasLimit": {
        "_hex": "0x7a120"
      },
      "to": "0xBAA54d6E90c3F4d7Ebec11bD180134C7eD8eBb52",
      "value": {
        "_hex": "0x16345785d8a0000"
      },
      "nonce": 781,
      "data": "0x",
      "r": "0x16f4504e484fed50f5c09ed723e2155e06711ce202fc9b306eed2f5ccc7a84d6",
      "s": "0x7f0a6e5e115302e8856b6f811bd32d0c0e1871eee9f85057a8a331dc9bcfef0d",
      "v": 28,
      "creates": null,
      "raw": "0xf86f82030d850dada9c7698307a12094baa54d6e90c3f4d7ebec11bd180134c7ed8ebb5288016345785d8a0000801ca016f4504e484fed50f5c09ed723e2155e06711ce202fc9b306eed2f5ccc7a84d6a07f0a6e5e115302e8856b6f811bd32d0c0e1871eee9f85057a8a331dc9bcfef0d",
      "networkId": 0,
      "chainId": 0
    },
    {
      "hash": "0x2725efcba22f3c3590097db24a3423875ee7ce19657fd217c9d594b29e783eb4",
      "blockHash": "0xd720d7f58c1abace262370fbddc48cd65799010c3db0fe5dd5914c2663a3b1e8",
      "blockNumber": 52600,
      "transactionIndex": 2,
      "confirmations": null,
      "from": "0x54dAeb3E8a6BBC797E4aD2b0339f134b186e4637",
      "gasPrice": {
        "_hex": "0xdf4ba21f9"
      },
      "gasLimit": {
        "_hex": "0x7a120"
      },
      "to": "0xBAA54d6E90c3F4d7Ebec11bD180134C7eD8eBb52",
      "value": {
        "_hex": "0x16345785d8a0000"
      },
      "nonce": 782,
      "data": "0x",
      "r": "0x03fcbc29363aa91580e4c1f71660987069f5faa44c37f93e1f77cebb07439ae4",
      "s": "0x28cac727c4136c3e348270d775d622cef76d91bdbd73643bcf3c903ca2f5e7aa",
      "v": 27,
      "creates": null,
      "raw": "0xf86f82030e850df4ba21f98307a12094baa54d6e90c3f4d7ebec11bd180134c7ed8ebb5288016345785d8a0000801ba003fcbc29363aa91580e4c1f71660987069f5faa44c37f93e1f77cebb07439ae4a028cac727c4136c3e348270d775d622cef76d91bdbd73643bcf3c903ca2f5e7aa",
      "networkId": 0,
      "chainId": 0
    }
  ]
}