{
  "hash": "0xe779bbd96bea97ce98af12e7826190a04ca39246c702176adf6f2c8afaa5ef0d",
  "parentHash": "0x91ff2ccd02b445d0536be8f2b86d7da941903dabdc9b0673ec723b47fccbf248",
  "number": 102079,
  "timestamp": 1439832565,
  "nonce": "0x6fde7e7eb3d644aa",
  "difficulty": 3907037733617,
  "gasLimit": {
    "_hex": "0x2fefd8"
  },
  "gasUsed": {
    "_hex": "0x5208"
  },
  "miner": "0xe6A7a1d47ff21B6321162AEA7C6CB457D5476Bca",
  "extraData": "0x476574682f76312e302e312d38326566323666362f6c696e75782f676f312e34",
  "transactions": [
    {
      "hash": "0xdb088711694dd340ec796d81974e738cbcd3a8fcb4f9f80acd372b47ab5f60b4",
      "blockHash": "0xe779bbd96bea97ce98af12e7826190a04ca39246c702176adf6f2c8afaa5ef0d",
      "blockNumber": 102079,
      "transactionIndex": 0,
      "confirmations": null,
      "from": "0xFBb1b73C4f0BDa4f67dcA266ce6Ef42f520fBB98",
      "gasPrice": {
        "_hex": "0xcfdef3f81"
      },
      "gasLimit": {
        "_hex": "0x5208"
      },
      "to": "0x6724EFf089f9dD79c381137DF68678bD574B37e0",
      "value": {
        "_hex": "0x8aa39c121a270000"
      },
      "nonce": 96,
      "data": "0x",
      "r": "0xa60d7916c34412f8cc6aad6ac6c5b315a6edfed4e9f66e59cfc62a6edbfb400d",
      "s": "0x0ec4e58d1932fb2206163f2bdf39626952f6ca6a38e3a2527de371bc59f86a1f",
      "v": 27,
      "creates": null,
      "raw": "0xf86c60850cfdef3f81825208946724eff089f9dd79c381137df68678bd574b37e0888aa39c121a270000801ba0a60d7916c34412f8cc6aad6ac6c5b315a6edfed4e9f66e59cfc62a6edbfb400da00ec4e58d1932fb2206163f2bdf39626952f6ca6a38e3a2527de371bc59f86a1f",
      "networkId": 0,
      "chainId": 0
    }
  ]
}