{
  "hash": "0xdbac5bd7bf8c9b224666d09cc6aa5b0e5dfedc3f975fe4ff267456a020202f34",
  "parentHash": "0xa12a23c1f4e5dc9a71d60e21a0c63f6eaaad8019b51170d9925a796587342994",
  "number": 72234,
  "timestamp": 1439349519,
  "nonce": "0xc6e47a8967296e06",
  "difficulty": 2174897985657,
  "gasLimit": {
    "_hex": "0x2fefd8"
  },
  "gasUsed": {
    "_hex": "0x93b2"
  },
  "miner": "0xe6A7a1d47ff21B6321162AEA7C6CB457D5476Bca",
  "extraData": "0x476574682f76312e302e312d38326566323666362f6c696e75782f676f312e34",
  "transactions": [
    {
      "hash": "0x08f222f5799719a527f78352d4758a96c0e23afc85aa00ba16e525a4ddc97aa9",
      "blockHash": "0xdbac5bd7bf8c9b224666d09cc6aa5b0e5dfedc3f975fe4ff267456a020202f34",
      "blockNumber": 72234,
      "transactionIndex": 0,
      "confirmations": null,
      "from": "0x17580B766f7453525ca4C6A88b01b50570EA088C",
      "gasPrice": {
        "_hex": "0xd56537133"
      },
      "gasLimit": {
        "_hex": "0x61a80"
      },
      "to": "0x5Fe5B7546D1628f7348B023A0393de1FC825A4fD",
      "value": {
        "_hex": "0x8ac7230489e80000"
      },
      "nonce": 403,
      "data": "0xb595b8b50000000000000000000000000000000000000000000000000000000000000000",
      "r": "0xa86723aa15ed425b92dbeb89a6e3bac28848bdeb2f3278f0c453f9040e1cb7f5",
      "s": "0x171c3bee4a3b28bd1c21ee230c1e1e2ce649cf862299ee8b30dd42ff03634f65",
      "v": 27,
      "creates": null,
      "raw": "0xf893820193850d5653713383061a80945fe5b7546d1628f7348b023a0393de1fc825a4fd888ac7230489e80000a4b595b8b500000000000000000000000000000000000000000000000000000000000000001ba0a86723aa15ed425b92dbeb89a6e3bac28848bdeb2f3278f0c453f9040e1cb7f5a0171c3bee4a3b28bd1c21ee230c1e1e2ce649cf862299ee8b30dd42ff03634f65",
      "networkId": 0,
      "chainId": 0
    }
  ]
}