{
  "hash": "0x1c4240429f61e5ee4f37aaac89b486f8ef970d93154db899863ae2c9905db904",
  "parentHash": "0x2b4e27a2d7529ea697450c845939d44d4bc266a8caec47c7c440110cb06e36bd",
  "number": 88443,
  "timestamp": 1439608022,
  "nonce": "0xbb4d05bf4d7f11bb",
  "difficulty": 3228514693687,
  "gasLimit": {
    "_hex": "0x2fefd8"
  },
  "gasUsed": {
    "_hex": "0x5208"
  },
  "miner": "0x9D49F602b0fdb924Bd63DDE2Bd0907E4A07c63a7",
  "extraData": "0x476574682f76312e302e312f6c696e75782f676f312e342e32",
  "transactions": [
    {
      "hash": "0x0012776d8643e269e9dfb9edf3411a250274cd3b9ec9d67c1a5295ec3b50e21a",
      "blockHash": "0x1c4240429f61e5ee4f37aaac89b486f8ef970d93154db899863ae2c9905db904",
      "blockNumber": 88443,
      "transactionIndex": 0,
      "confirmations": null,
      "from": "0xe090Ffdced499691fA9379752a59F8A058c1eE4A",
      "gasPrice": {
        "_hex": "0xd5201d8c1"
      },
      "gasLimit": {
        "_hex": "0x5208"
      },
      "to": "0x3620db64D25D412bAb4C8d93E2e0D7e64e8Cb933",
      "value": {
        "_hex": "0x82f8bc3f7bbfc0000"
      },
      "nonce": 4,
      "data": "0x",
      "r": "0xf341770b2b55eb5994ab7e74ee08ad3bcc64047ccb2acbf9dd4cdaa0380580ee",
      "s": "0x2d19bba790aee63097a58c5242883ea3d5d95e41064981859e9d6dd46c1628d1",
      "v": 27,
      "creates": null,
      "raw": "0xf86d04850d5201d8c1825208943620db64d25d412bab4c8d93e2e0d7e64e8cb93389082f8bc3f7bbfc0000801ba0f341770b2b55eb5994ab7e74ee08ad3bcc64047ccb2acbf9dd4cdaa0380580eea02d19bba790aee63097a58c5242883ea3d5d95e41064981859e9d6dd46c1628d1",
      "networkId": 0,
      "chainId": 0
    }
  ]
}