{
  "hash": "0x36274512241971e2170babf8a8b787a51601f525fd0ad2baa08206d95fa4b598",
  "parentHash": "0x4852ccbc89fb7ebbbf13fb15392ae80686c20efb08f1f87347e13658f8127522",
  "number": 61510,
  "timestamp": 1439173496,
  "nonce": "0xde3b134abd5c23f6",
  "difficulty": 1739592287297,
  "gasLimit": {
    "_hex": "0x2fefd8"
  },
  "gasUsed": {
    "_hex": "0x5208"
  },
  "miner": "0x4F85e43F44D2B0e6f57C9355806cE3e1B3F40Ab8",
  "extraData": "0x476574682f76312e302e312f6c696e75782f676f312e342e32",
  "transactions": [
    {
      "hash": "0x3c5c50bdcd84f4da3b82a8eff8c53aaf0a9b11a9a88987ef5cb64d15af462245",
      "blockHash": "0x36274512241971e2170babf8a8b787a51601f525fd0ad2baa08206d95fa4b598",
      "blockNumber": 61510,
      "transactionIndex": 0,
      "confirmations": null,
      "from": "0x1308A2e95c0160B90803ddCA9B9a5bb55E416d79",
      "gasPrice": {
        "_hex": "0xe8d4a51000"
      },
      "gasLimit": {
        "_hex": "0x15f90"
      },
      "to": "0x025c3B43d57E72D2150E14B2B0c6D923FbFC0474",
      "value": {
        "_hex": "0x3635c9adc5dea00000"
      },
      "nonce": 83,
      "data": "0x",
      "r": "0x6b40b2192162260e4ad8720b25624669f5671e40fadb08ec166d7786732a928e",
      "s": "0x154c0946f8c45894544887c650a101a67ebd0067b1451617be7b980e5e98a62f",
      "v": 27,
      "creates": null,
      "raw": "0xf86e5385e8d4a5100083015f9094025c3b43d57e72d2150e14b2b0c6d923fbfc0474893635c9adc5dea00000801ba06b40b2192162260e4ad8720b25624669f5671e40fadb08ec166d7786732a928ea0154c0946f8c45894544887c650a101a67ebd0067b1451617be7b980e5e98a62f",
      "networkId": 0,
      "chainId": 0
    }
  ]
}