{
  "hash": "0x458b3d77f3818f9dae85453a0b37d5a085578e4faa1081b07d046e596b510f1e",
  "parentHash": "0xa87eb2e04c4eeb4c99a3fd9b155457450fa4495f1bae060122c5e8eddfee66b2",
  "number": 90933,
  "timestamp": 1439647625,
  "nonce": "0x7da460b1fe38e064",
  "difficulty": 3418980971784,
  "gasLimit": {
    "_hex": "0x2fefd8"
  },
  "gasUsed": {
    "_hex": "0x5208"
  },
  "miner": "0xf32866D5cE9a9b5673e076be48AbCd6ED48ADe78",
  "extraData": "0x476574682f76312e302e312d37666266393930632f6c696e75782f676f312e34",
  "transactions": [
    {
      "hash": "0x4453a6ae031f1605544bfbd776608dacf1d96566ab51d1b5336621b1237456db",
      "blockHash": "0x458b3d77f3818f9dae85453a0b37d5a085578e4faa1081b07d046e596b510f1e",
      "blockNumber": 90933,
      "transactionIndex": 0,
      "confirmations": null,
      "from": "0x120A270bbC009644e35F0bB6ab13f95b8199c4ad",
      "gasPrice": {
        "_hex": "0xd328d3033"
      },
      "gasLimit": {
        "_hex": "0x3d090"
      },
      "to": "0x85A8e1561387952E1b662DD3AFcC2A49bb03a8df",
      "value": {
        "_hex": "0x3437e8e5af260cc00"
      },
      "nonce": 526,
      "data": "0x",
      "r": "0x8a2cf4384b10285b741c89e59c523a6ce0833b07f8ed063400f81a732dc0649e",
      "s": "0x079ad65e97ff76fa9b4bbc72874148e1f119cca93c3c373ab598bd75a042c22a",
      "v": 28,
      "creates": null,
      "raw": "0xf87082020e850d328d30338303d0909485a8e1561387952e1b662dd3afcc2a49bb03a8df8903437e8e5af260cc00801ca08a2cf4384b10285b741c89e59c523a6ce0833b07f8ed063400f81a732dc0649ea0079ad65e97ff76fa9b4bbc72874148e1f119cca93c3c373ab598bd75a042c22a",
      "networkId": 0,
      "chainId": 0
    }
  ]
}