{
  "hash": "0x4fc8cd60f0d588abb8556edec2e0645d06f2d42c1d56fc6aeb5dfc2b0fc99371",
  "parentHash": "0x4c55fe9aa1161c0640072aae214a1f52ae1d0c6daf378d81ef96e97d1e6e106c",
  "number": 86013,
  "timestamp": 1439572229,
  "nonce": "0x40f42e4aa03efe69",
  "difficulty": 2789402670531,
  "gasLimit": {
    "_hex": "0x2fefd8"
  },
  "gasUsed": {
    "_hex": "0x546c"
  },
  "miner": "0x5A8d4616D25AD4928b08383073adb961A87De5d8",
  "extraData": "0x",
  "transactions": [
    {
      "hash": "0xb23e87eb1d27581f7f5ea9d44b9830814611e3559a3b53cdfcafbd355d9f96b8",
      "blockHash": "0x4fc8cd60f0d588abb8556edec2e0645d06f2d42c1d56fc6aeb5dfc2b0fc99371",
      "blockNumber": 86013,
      "transactionIndex": 0,
      "confirmations": null,
      "from": "0x26D4a16891F52922789217fcd886F7FCe296D400",
      "gasPrice": {
        "_hex": "0xd4be89f70"
      },
      "gasLimit": {
        "_hex": "0x55f0"
      },
      "to": "0x2910543Af39abA0Cd09dBb2D50200b3E800A63D2",
      "value": {
        "_hex": "0x6bd2eb81d38bf40000"
      },
      "nonce": 2,
      "data": "0x454e5434314b484552",
      "r": "0x780df1121a8282b37d2ff3bad05a0e42d09cc586299e0caa46c871861063bf9c",
      "s": "0x3f68e378040907c9b4f33dd77205133d5e172d1f4f43d1269933584fbba0ddcd",
      "v": 28,
      "creates": null,
      "raw": "0xf87602850d4be89f708255f0942910543af39aba0cd09dbb2d50200b3e800a63d2896bd2eb81d38bf4000089454e5434314b4845521ca0780df1121a8282b37d2ff3bad05a0e42d09cc586299e0caa46c871861063bf9ca03f68e378040907c9b4f33dd77205133d5e172d1f4f43d1269933584fbba0ddcd",
      "networkId": 0,
      "chainId": 0
    }
  ]
}