{
  "hash": "0x5648cfd3c3895e8838d31ca415ae2876c150eb15a39cfb61e932a8f9471d25fc",
  "parentHash": "0x802f7a3c6e3ff542bb4296b54184d14bf221a9dd5c2da94f42d8af549d9c33f4",
  "number": 76523,
  "timestamp": 1439421952,
  "nonce": "0x16644b78ced50ab6",
  "difficulty": 2230775716406,
  "gasLimit": {
    "_hex": "0x2fefd8"
  },
  "gasUsed": {
    "_hex": "0x5208"
  },
  "miner": "0xf927a40C8B7F6E07c5af7FA2155B4864a4112B13",
  "extraData": "0x",
  "transactions": [
    {
      "hash": "0x78c59ea58fea01fda261fefd7abd831670fa78485d93992b0495d327aee37fbf",
      "blockHash": "0x5648cfd3c3895e8838d31ca415ae2876c150eb15a39cfb61e932a8f9471d25fc",
      "blockNumber": 76523,
      "transactionIndex": 0,
      "confirmations": null,
      "from": "0x32Be343B94f860124dC4fEe278FDCBD38C102D88",
      "gasPrice": {
        "_hex": "0xd31faedbe"
      },
      "gasLimit": {
        "_hex": "0x5208"
      },
      "to": "0x910560734C1155e546d762CB1C5e1669E798AEb4",
      "value": {
        "_hex": "0x5b505f5ce23440000"
      },
      "nonce": 352,
      "data": "0x",
      "r": "0xf2921dc350c3eab10821d85581ca324ca48598992370db36065ca131287994b4",
      "s": "0x44d2c5ab43120fce09e84f8ae99f48bae872493f4f46796c6e190108ab3e73ca",
      "v": 28,
      "creates": null,
      "raw": "0xf86f820160850d31faedbe82520894910560734c1155e546d762cb1c5e1669e798aeb48905b505f5ce23440000801ca0f2921dc350c3eab10821d85581ca324ca48598992370db36065ca131287994b4a044d2c5ab43120fce09e84f8ae99f48bae872493f4f46796c6e190108ab3e73ca",
      "networkId": 0,
      "chainId": 0
    }
  ]
}