{
  "hash": "0x1fe06260358cf50d299908b37459f9be632707d4fb28d7a338f2f0c145e39b1f",
  "parentHash": "0xa91390adfd8c07c7eff8350253e1fe2746e23411ab4c64115bf437f506d950f6",
  "number": 102386,
  "timestamp": 1439837171,
  "nonce": "0xca71627ac0f3c6f2",
  "difficulty": 3962610535044,
  "gasLimit": {
    "_hex": "0x2fefd8"
  },
  "gasUsed": {
    "_hex": "0x5208"
  },
  "miner": "0xe6A7a1d47ff21B6321162AEA7C6CB457D5476Bca",
  "extraData": "0x476574682f76312e302e312d38326566323666362f6c696e75782f676f312e34",
  "transactions": [
    {
      "hash": "0xb0fce65c70796c9dc7f8fef49fc4369446b593137d41aaa31d5cade39bda3065",
      "blockHash": "0x1fe06260358cf50d299908b37459f9be632707d4fb28d7a338f2f0c145e39b1f",
      "blockNumber": 102386,
      "transactionIndex": 0,
      "confirmations": null,
      "from": "0xAa37b1200B856ce897a85b9C2b11a8213095Bf2a",
      "gasPrice": {
        "_hex": "0xde80792a4"
      },
      "gasLimit": {
        "_hex": "0x5208"
      },
      "to": "0x32Be343B94f860124dC4fEe278FDCBD38C102D88",
      "value": {
        "_hex": "0x47fb3408a03d1c000"
      },
      "nonce": 1,
      "data": "0x",
      "r": "0x1c4a1d810c5134ae08fa7dcf2935c7737402616423da6c2472b598928f30ffc2",
      "s": "0x1f1ae6830572a370266d76f108b2b441db18fe8307c14544a250dff93b4dbe74",
      "v": 27,
      "creates": null,
      "raw": "0xf86d01850de80792a48252089432be343b94f860124dc4fee278fdcbd38c102d8889047fb3408a03d1c000801ba01c4a1d810c5134ae08fa7dcf2935c7737402616423da6c2472b598928f30ffc2a01f1ae6830572a370266d76f108b2b441db18fe8307c14544a250dff93b4dbe74",
      "networkId": 0,
      "chainId": 0
    }
  ]
}