{
  "hash": "0xe884833c6a5472181fc7be298a1ce033d7c65ddebaa33cabca0ff94f9563bf99",
  "parentHash": "0xca544491fc6bc55fa2bccdbf2eeecaefd3e8521bf3978afad4c3d4161dddfdf0",
  "number": 109314,
  "timestamp": 1439954535,
  "nonce": "0x9eae0b0c31a29cbe",
  "difficulty": 4451604804217,
  "gasLimit": {
    "_hex": "0x2fefd8"
  },
  "gasUsed": {
    "_hex": "0x5208"
  },
  "miner": "0x88D74a59454F6cF3B51ef6b9136AFb6b9D405A88",
  "extraData": "0x",
  "transactions": [
    {
      "hash": "0x0bb09bccdf5c3a32b90426302d27c29b267c2d2f7ae2c5bc2a7101af645a60a3",
      "blockHash": "0xe884833c6a5472181fc7be298a1ce033d7c65ddebaa33cabca0ff94f9563bf99",
      "blockNumber": 109314,
      "transactionIndex": 0,
      "confirmations": null,
      "from": "0x007f7f58D3eb5b7510A301eCC749FC1fCDDBE14D",
      "gasPrice": {
        "_hex": "0xd382b0b9c"
      },
      "gasLimit": {
        "_hex": "0x15f90"
      },
      "to": "0xb1abce2918E21ddb93AA452731a12672A3d9F75a",
      "value": {
        "_hex": "0x4563918244f40000"
      },
      "nonce": 265,
      "data": "0x",
      "r": "0xcf230225a7a7966a2fe8b22d3636bd64c24512d9e8130a56973133e116526872",
      "s": "0x7a008028fa7cb2bed094c9e724c1d7cfdccd9f81a44ad0c859c55a037f82ee43",
      "v": 27,
      "creates": null,
      "raw": "0xf86f820109850d382b0b9c83015f9094b1abce2918e21ddb93aa452731a12672a3d9f75a884563918244f40000801ba0cf230225a7a7966a2fe8b22d3636bd64c24512d9e8130a56973133e116526872a07a008028fa7cb2bed094c9e724c1d7cfdccd9f81a44ad0c859c55a037f82ee43",
      "networkId": 0,
      "chainId": 0
    }
  ]
}