{
  "hash": "0x30903ae3e59ccaf013a8b9c6430086a051b97d7155d5fe63b83430945882e74e",
  "parentHash": "0xaa47db29e0d1d9f2a949797072c807eec66c2be5c9d28423d06311640abd53ca",
  "number": 112391,
  "timestamp": 1440006751,
  "nonce": "0xe63207caaa8f80e4",
  "difficulty": 4408879210217,
  "gasLimit": {
    "_hex": "0x2fefd8"
  },
  "gasUsed": {
    "_hex": "0x5208"
  },
  "miner": "0xf927a40C8B7F6E07c5af7FA2155B4864a4112B13",
  "extraData": "0x",
  "transactions": [
    {
      "hash": "0x57fff671198b3c64063904d600d8c75d019e9573abd2ec8ca9eec0051ccdf581",
      "blockHash": "0x30903ae3e59ccaf013a8b9c6430086a051b97d7155d5fe63b83430945882e74e",
      "blockNumber": 112391,
      "transactionIndex": 0,
      "confirmations": null,
      "from": "0x55D1554b08a5311C5c0A0B6464162192f9D2f884",
      "gasPrice": {
        "_hex": "0xd23ee12e2"
      },
      "gasLimit": {
        "_hex": "0x5208"
      },
      "to": "0x1d29A3d86d1db07F5d729D5B128f3060E1c78580",
      "value": {
        "_hex": "0xde0b6b3a7640000"
      },
      "nonce": 7,
      "data": "0x",
      "r": "0x6b5f6725c1d35228d6757b9b6a8a8a18b1a4120334e7dec565e90fe15a0dc8ea",
      "s": "0x0bb3478efc49d91fbfef3311a4d778010d24788a522049feb0f550fff46cfc36",
      "v": 28,
      "creates": null,
      "raw": "0xf86c07850d23ee12e2825208941d29a3d86d1db07f5d729d5b128f3060e1c78580880de0b6b3a7640000801ca06b5f6725c1d35228d6757b9b6a8a8a18b1a4120334e7dec565e90fe15a0dc8eaa00bb3478efc49d91fbfef3311a4d778010d24788a522049feb0f550fff46cfc36",
      "networkId": 0,
      "chainId": 0
    }
  ]
}