{
  "hash": "0xd3c3520e6f91f1d5679c3ca26b4c833928bc27940b97c29d47874000d87f4807",
  "parentHash": "0xea992e214d999ae8997aff0b1d70e20cd819b640a683af197dba65df2a682b2b",
  "number": 67152,
  "timestamp": 1439266833,
  "nonce": "0x7c3926e201b4ee18",
  "difficulty": 1926138573842,
  "gasLimit": {
    "_hex": "0x2fefd8"
  },
  "gasUsed": {
    "_hex": "0x5208"
  },
  "miner": "0x53824166ea5271d3425e3194c848A90CA4e97eB2",
  "extraData": "0x476574682f76312e302e312f6c696e75782f676f312e342e32",
  "transactions": [
    {
      "hash": "0x33b7dedc47ea491d06e54b5b97665c7ad69bb6bc7f38fc6aeae65ce9eaa45dc2",
      "blockHash": "0xd3c3520e6f91f1d5679c3ca26b4c833928bc27940b97c29d47874000d87f4807",
      "blockNumber": 67152,
      "transactionIndex": 0,
      "confirmations": null,
      "from": "0xa5CEEf50b1DD9bF1b9183e9493Fe6A6aa5Cc1678",
      "gasPrice": {
        "_hex": "0xd6ce4115f"
      },
      "gasLimit": {
        "_hex": "0x15f90"
      },
      "to": "0x1a8F3ae0Bb361C0D410E4C3fdBCc78AC8CeD5295",
      "value": {
        "_hex": "0x35659ef93f0fc40000"
      },
      "nonce": 1,
      "data": "0x",
      "r": "0x1b33362dc706e306f7fb77774ed89da8d497dcf3b4e6f11af1b694db1a77202e",
      "s": "0x55e354123f6ecbf6c0d914f1a1c4bda32c93ff522d2700abeb25e4f3ab291142",
      "v": 27,
      "creates": null,
      "raw": "0xf86e01850d6ce4115f83015f90941a8f3ae0bb361c0d410e4c3fdbcc78ac8ced52958935659ef93f0fc40000801ba01b33362dc706e306f7fb77774ed89da8d497dcf3b4e6f11af1b694db1a77202ea055e354123f6ecbf6c0d914f1a1c4bda32c93ff522d2700abeb25e4f3ab291142",
      "networkId": 0,
      "chainId": 0
    }
  ]
}