{
  "hash": "0x1646fd49c32aa71ecc05e7e3307e517187ec475444d3b1a0e044b60c25e0d872",
  "parentHash": "0xe69b7afe1793065cabd0a9267cffc96b1fd6b86293835b61f94a5a1b500d93a1",
  "number": 77476,
  "timestamp": 1439437915,
  "nonce": "0x83620dc9c2285728",
  "difficulty": 2238159200273,
  "gasLimit": {
    "_hex": "0x2fefd8"
  },
  "gasUsed": {
    "_hex": "0x5208"
  },
  "miner": "0x9746c7e1ef2bd21FF3997fa467593a89cb852BD0",
  "extraData": "0x476574682f76312e302e312f77696e646f77732f676f312e342e32",
  "transactions": [
    {
      "hash": "0xc480179c721a8d84cf81542506f3fb3715560f9340ebe51750d76308d371c145",
      "blockHash": "0x1646fd49c32aa71ecc05e7e3307e517187ec475444d3b1a0e044b60c25e0d872",
      "blockNumber": 77476,
      "transactionIndex": 0,
      "confirmations": null,
      "from": "0x03c4C03f163D51105bBC0E1a63077cB04210aa83",
      "gasPrice": {
        "_hex": "0xd3d37f23a"
      },
      "gasLimit": {
        "_hex": "0x5208"
      },
      "to": "0x03c4C03f163D51105bBC0E1a63077cB04210aa83",
      "value": {
        "_hex": "0x2386f26fc10000"
      },
      "nonce": 1,
      "data": "0x",
      "r": "0xc38bb0bf2d22c23a3d90196629ec5ad85edabf72d65175b78a8b9757a1bcc94a",
      "s": "0x24a03950b1896e7dbc1af22588aec0ae46712563d64812c64c498eee04ce51f2",
      "v": 27,
      "creates": null,
      "raw": "0xf86b01850d3d37f23a8252089403c4c03f163d51105bbc0e1a63077cb04210aa83872386f26fc10000801ba0c38bb0bf2d22c23a3d90196629ec5ad85edabf72d65175b78a8b9757a1bcc94aa024a03950b1896e7dbc1af22588aec0ae46712563d64812c64c498eee04ce51f2",
      "networkId": 0,
      "chainId": 0
    }
  ]
}