{
  "hash": "0xae64fbab474322a9ed967542d395abc8ad1a68929bfa3e34791b270d9e051840",
  "parentHash": "0x2aa3d89ce6ab23aa125e1472c640ef8b2d74c9e8eb38db4971d1bf297d65f161",
  "number": 51443,
  "timestamp": 1439004980,
  "nonce": "0xcd67d6f63506fedf",
  "difficulty": 1565049176182,
  "gasLimit": {
    "_hex": "0xb14ac"
  },
  "gasUsed": {
    "_hex": "0x5208"
  },
  "miner": "0xe6A7a1d47ff21B6321162AEA7C6CB457D5476Bca",
  "extraData": "0x657468706f6f6c2e6f7267",
  "transactions": [
    {
      "hash": "0xe2b5c14ce28c5cca8c8b684c70b32f720d26f53a012f5838d90c9b708eeed46f",
      "blockHash": "0xae64fbab474322a9ed967542d395abc8ad1a68929bfa3e34791b270d9e051840",
      "blockNumber": 51443,
      "transactionIndex": 0,
      "confirmations": null,
      "from": "0xe5113BcffaDB209830e48BF545404dB707EdE837",
      "gasPrice": {
        "_hex": "0xdaaffcc5b"
      },
      "gasLimit": {
        "_hex": "0x5208"
      },
      "to": "0x32Be343B94f860124dC4fEe278FDCBD38C102D88",
      "value": {
        "_hex": "0xb2e4aeb825f1780000"
      },
      "nonce": 1,
      "data": "0x",
      "r": "0xde19a65a964cec4f48c5777a95623337858027c4c973d4d1ee573f2091ba325e",
      "s": "0x273c2215db2ed9e9f9c4925071a4c030b363c1625e323a0a9b9cb376e4b35d01",
      "v": 28,
      "creates": null,
      "raw": "0xf86d01850daaffcc5b8252089432be343b94f860124dc4fee278fdcbd38c102d8889b2e4aeb825f1780000801ca0de19a65a964cec4f48c5777a95623337858027c4c973d4d1ee573f2091ba325ea0273c2215db2ed9e9f9c4925071a4c030b363c1625e323a0a9b9cb376e4b35d01",
      "networkId": 0,
      "chainId": 0
    }
  ]
}