{
  "hash": "0x8e7ef19b832833bae95a83f1d0ca2fdff77739cbfdaa57ebab3091e4561b2401",
  "parentHash": "0x1843ffd45cbe0a71cf94f9ea7c1d2f472fb6d152f826af091c3add4c1bda6c51",
  "number": 57656,
  "timestamp": 1439107209,
  "nonce": "0x231d149aa03ebc30",
  "difficulty": 1735300353894,
  "gasLimit": {
    "_hex": "0x2fefd8"
  },
  "gasUsed": {
    "_hex": "0x5208"
  },
  "miner": "0x0AA59573a4eE1D2E4a06B743fFbAB5d813d741Ed",
  "extraData": "0x476574682f76312e302e312f6c696e75782f676f312e342e32",
  "transactions": [
    {
      "hash": "0xd8dd3658a831d6c33dcfdc311d9bdeed4d729a8f88a0259cdf49635f13f5c573",
      "blockHash": "0x8e7ef19b832833bae95a83f1d0ca2fdff77739cbfdaa57ebab3091e4561b2401",
      "blockNumber": 57656,
      "transactionIndex": 0,
      "confirmations": null,
      "from": "0x6111E933E5e6297DFd0AAd9aAB64017c69062a08",
      "gasPrice": {
        "_hex": "0xce077ce16"
      },
      "gasLimit": {
        "_hex": "0x5208"
      },
      "to": "0x32Be343B94f860124dC4fEe278FDCBD38C102D88",
      "value": {
        "_hex": "0x1ae31ff731a930000"
      },
      "nonce": 5,
      "data": "0x",
      "r": "0xf85250e9acd0a4aa9cd35567f7484b636598d53bb5a866fd4b44d4fc7595ec2b",
      "s": "0x419ea581979a3f4063f4d4e3e017fa978591b507b1292afadfa5edb0b85c4829",
      "v": 28,
      "creates": null,
      "raw": "0xf86d05850ce077ce168252089432be343b94f860124dc4fee278fdcbd38c102d888901ae31ff731a930000801ca0f85250e9acd0a4aa9cd35567f7484b636598d53bb5a866fd4b44d4fc7595ec2ba0419ea581979a3f4063f4d4e3e017fa978591b507b1292afadfa5edb0b85c4829",
      "networkId": 0,
      "chainId": 0
    }
  ]
}