{
  "hash": "0xe458bdbe0ff7b3aa326b916dd8694bc3f53397d5c4f4a9d19f28f767e3868631",
  "parentHash": "0x6d143fd653ca02bb08f14463411706ad06ecb1ae691535cb59a4732cc3020a57",
  "number": 52674,
  "timestamp": 1439025425,
  "nonce": "0xa742a4156943047f",
  "difficulty": 1570177182909,
  "gasLimit": {
    "_hex": "0x177652"
  },
  "gasUsed": {
    "_hex": "0x16e360"
  },
  "miner": "0x62b0559efe3a073EDfe78bBe7CB491A6C65F0806",
  "extraData": "0x687474703a2f2f692e696d6775722e636f6d2f4a7a5964526b652e706e67",
  "transactions": [
    {
      "hash": "0xdaa9ab137ba45e80f86f5451e73b4e87ac76473cc69bd1e06c5ebabd685b26fb",
      "blockHash": "0xe458bdbe0ff7b3aa326b916dd8694bc3f53397d5c4f4a9d19f28f767e3868631",
      "blockNumber": 52674,
      "transactionIndex": 0,
      "confirmations": null,
      "from": "0x54dAeb3E8a6BBC797E4aD2b0339f134b186e4637",
      "gasPrice": {
        "_hex": "0xdada9c769"
      },
      "gasLimit": {
        "_hex": "0x7a120"
      },
      "to": "0xBAA54d6E90c3F4d7Ebec11bD180134C7eD8eBb52",
      "value": {
        "_hex": "0x16345785d8a0000"
      },
      "nonce": 903,
      "data": "0x",
      "r": "0x1e6ed99f47484a6f9a58b97e3922d182b2880ee737b34af5aca90c3e0256b3f1",
      "s": "0x38657d05569ac20df144d8ba7e186bb73e08e877a08339556881cda0c103a80b",
      "v": 28,
      "creates": null,
      "raw": "0xf86f820387850dada9c7698307a12094baa54d6e90c3f4d7ebec11bd180134c7ed8ebb5288016345785d8a0000801ca01e6ed99f47484a6f9a58b97e3922d182b2880ee737b34af5aca90c3e0256b3f1a038657d05569ac20df144d8ba7e186bb73e08e877a08339556881cda0c103a80b",
      "networkId": 0,
      "chainId": 0
    },
    {
      "hash": "0x9012bbf36cbaeff75b0cfbd276f47fb9e9e15510dc3a78c037da1c974ffbb9b9",
      "blockHash": "0xe458bdbe0ff7b3aa326b916dd8694bc3f53397d5c4f4a9d19f28f767e3868631",
      "blockNumber": 52674,
      "transactionIndex": 1,
      "confirmations": null,
      "from": "0x54dAeb3E8a6BBC797E4aD2b0339f134b186e4637",
      "gasPrice": {
        "_hex": "0xdf4ba21f9"
      },
      "gasLimit": {
        "_hex": "0x7a120"
      },
      "to": "0xBAA54d6E90c3F4d7Ebec11bD180134C7eD8eBb52",
      "value": {
        "_hex": "0x16345785d8a0000"
      },
      "nonce": 904,
      "data": "0x",
      "r": "0x397fee82ea3611f12bee9fbbc6fd0c731f413b3c8eae0f05b77c704d44a7882c",
      "s": "0x569504a4fe8510f5e79dcb91ff36968fdb6ed1f750d37c2105d9a6102528cbe4",
      "v": 27,
      "creates": null,
      "raw": "0xf86f820388850df4ba21f98307a12094baa54d6e90c3f4d7ebec11bd180134c7ed8ebb5288016345785d8a0000801ba0397fee82ea3611f12bee9fbbc6fd0c731f413b3c8eae0f05b77c704d44a7882ca0569504a4fe8510f5e79dcb91ff36968fdb6ed1f750d37c2105d9a6102528cbe4",
      "networkId": 0,
      "chainId": 0
    },
    {
      "hash": "0x98070008941176f6c78d7428ccf4e46c426f298973a377c88cb4df0d89d9b81e",
      "blockHash": "0xe458bdbe0ff7b3aa326b916dd8694bc3f53397d5c4f4a9d19f28f767e3868631",
      "blockNumber": 52674,
      "transactionIndex": 2,
      "confirmations": null,
      "from": "0x54dAeb3E8a6BBC797E4aD2b0339f134b186e4637",
      "gasPrice": {
        "_hex": "0xd8bd64e50"
      },
      "gasLimit": {
        "_hex": "0x7a120"
      },
      "to": "0xBAA54d6E90c3F4d7Ebec11bD180134C7eD8eBb52",
      "value": {
        "_hex": "0x16345785d8a0000"
      },
      "nonce": 905,
      "data": "0x",
      "r": "0x0b38c3d932c150e349e256d08a2d241670c3459d3181da2725550c30825cf791",
      "s": "0x6467f361b88e9ac134c7bcba840c996a864da32b5d1a420045d663c6eac832dd",
      "v": 28,
      "creates": null,
      "raw": "0xf86f820389850d8bd64e508307a12094baa54d6e90c3f4d7ebec11bd180134c7ed8ebb5288016345785d8a0000801ca00b38c3d932c150e349e256d08a2d241670c3459d3181da2725550c30825cf791a06467f361b88e9ac134c7bcba840c996a864da32b5d1a420045d663c6eac832dd",
      "networkId": 0,
      "chainId": 0
    }
  ]
}