{
  "hash": "0x4251f2c9aab3cf7f04e84edad3c2a3b2af6d238930ae549d6122113ad0a6b724",
  "parentHash": "0x89a9f5565a7c18d8fd33f25c66d693a82e2f262e937c6bc297660b9d4ede0e91",
  "number": 104658,
  "timestamp": 1439873276,
  "nonce": "0x0cc71f4c5d5a7510",
  "difficulty": 4380742085806,
  "gasLimit": {
    "_hex": "0x2fefd8"
  },
  "gasUsed": {
    "_hex": "0x5208"
  },
  "miner": "0xE84Cb28acE3cEb9bd20690967C67eeD15EaCb502",
  "extraData": "0x",
  "transactions": [
    {
      "hash": "0x55b988b668d20b0cba66f788319874d46072284871d31d1f9d4f89c67cb133bd",
      "blockHash": "0x4251f2c9aab3cf7f04e84edad3c2a3b2af6d238930ae549d6122113ad0a6b724",
      "blockNumber": 104658,
      "transactionIndex": 0,
      "confirmations": null,
      "from": "0x7d9266eD34DAc82CeaD440B77Cfe1cD21dCFC56b",
      "gasPrice": {
        "_hex": "0xde91cebcd"
      },
      "gasLimit": {
        "_hex": "0x5208"
      },
      "to": "0x32Be343B94f860124dC4fEe278FDCBD38C102D88",
      "value": {
        "_hex": "0x4a978eb3eeffac000"
      },
      "nonce": 0,
      "data": "0x",
      "r": "0x9c816d52744d666e8d18a9f4c2a0583cc6da82e4bcd4bbe77da63dff9d2428d9",
      "s": "0x7a4e76c473894ad1adedd050c42839fd3cc82038ac24d2f544bba694a551241f",
      "v": 28,
      "creates": null,
      "raw": "0xf86d80850de91cebcd8252089432be343b94f860124dc4fee278fdcbd38c102d888904a978eb3eeffac000801ca09c816d52744d666e8d18a9f4c2a0583cc6da82e4bcd4bbe77da63dff9d2428d9a07a4e76c473894ad1adedd050c42839fd3cc82038ac24d2f544bba694a551241f",
      "networkId": 0,
      "chainId": 0
    }
  ]
}