{
  "hash": "0xd3c42eb70eb4bf7a07f7dc4d7c51fd7fe06a1285711eaa5d48cff6f987e1ba6d",
  "parentHash": "0x961a3eb164605b1d66522a4034c94b39ca752e6067ff2ce83c0006d9ab34ae87",
  "number": 104701,
  "timestamp": 1439874042,
  "nonce": "0xfdebad809c490e31",
  "difficulty": 4357253448438,
  "gasLimit": {
    "_hex": "0x2fefd8"
  },
  "gasUsed": {
    "_hex": "0x5d9f"
  },
  "miner": "0xe6A7a1d47ff21B6321162AEA7C6CB457D5476Bca",
  "extraData": "0x476574682f76312e302e312d38326566323666362f6c696e75782f676f312e34",
  "transactions": [
    {
      "hash": "0x4c46320434f9716918a3baf468619162e70e65d2f449d5ffdad19af26ce50f1d",
      "blockHash": "0xd3c42eb70eb4bf7a07f7dc4d7c51fd7fe06a1285711eaa5d48cff6f987e1ba6d",
      "blockNumber": 104701,
      "transactionIndex": 0,
      "confirmations": null,
      "from": "0x888285790B0b6Cc7FDE84EDdd77A1b2B29089a99",
      "gasPrice": {
        "_hex": "0xd10bb07f3"
      },
      "gasLimit": {
        "_hex": "0x15f90"
      },
      "to": "0xAd8d3a5d2d92EB14bB56CA9f380be35b8EFE0c04",
      "value": {
        "_hex": "0x34e8b88cee2d40000"
      },
      "nonce": 3,
      "data": "0xb214faa54141414141484a48430000000000000000000000000000000000000000000000",
      "r": "0x021bde7cf380bd3f5e6a87a8e84c871a102ab26fcedd1284ba7b585cfd460bd8",
      "s": "0x2569fb10ee428d9937aac2629ff0b0353381b026be0ead58ce63a7ed4bc1646f",
      "v": 28,
      "creates": null,
      "raw": "0xf89203850d10bb07f383015f9094ad8d3a5d2d92eb14bb56ca9f380be35b8efe0c0489034e8b88cee2d40000a4b214faa54141414141484a484300000000000000000000000000000000000000000000001ca0021bde7cf380bd3f5e6a87a8e84c871a102ab26fcedd1284ba7b585cfd460bd8a02569fb10ee428d9937aac2629ff0b0353381b026be0ead58ce63a7ed4bc1646f",
      "networkId": 0,
      "chainId": 0
    }
  ]
}