{
  "hash": "0x408c175a18d060b184d8e61141f9d3fafabf7075a39ed920c37a3260b0b15047",
  "parentHash": "0x5ccc35b53fa30ca01d00aa3912739ea443bd9bda1fc279852b6d68880f829cbf",
  "number": 64767,
  "timestamp": 1439225940,
  "nonce": "0x0703877dbedfeff2",
  "difficulty": 1892190525863,
  "gasLimit": {
    "_hex": "0x2fefd8"
  },
  "gasUsed": {
    "_hex": "0x11074"
  },
  "miner": "0x39A1BB80a741bF5EC39FB9BE59408Fa0F418fFBf",
  "extraData": "0x476574682f76312e302e312f77696e646f77732f676f312e342e32",
  "transactions": [
    {
      "hash": "0x5f9b0c50f469cbfc8a3f0065525306a9831dada1f50a9aee8279f48babaeef05",
      "blockHash": "0x408c175a18d060b184d8e61141f9d3fafabf7075a39ed920c37a3260b0b15047",
      "blockNumber": 64767,
      "transactionIndex": 0,
      "confirmations": null,
      "from": "0x9912009D593357e7A481926893fc2326A8Eaf87F",
      "gasPrice": {
        "_hex": "0xba43b7400"
      },
      "gasLimit": {
        "_hex": "0x15f90"
      },
      "to": "0x793AE8C1b1a160BFc07BFB0d04F85eab1A71F4f2",
      "value": {
        "_hex": "0x0"
      },
      "nonce": 0,
      "data": "0x3ba15036",
      "r": "0x99fbca38159ea389950eb15caad984ceaa7daa914b56064cde5b9f8c607ef0ad",
      "s": "0x79b103a9507624f0d9958886149f2eeb1261b909f4ae5dd98d81b7088f8f86ad",
      "v": 28,
      "creates": null,
      "raw": "0xf86980850ba43b740083015f9094793ae8c1b1a160bfc07bfb0d04f85eab1a71f4f280843ba150361ca099fbca38159ea389950eb15caad984ceaa7daa914b56064cde5b9f8c607ef0ada079b103a9507624f0d9958886149f2eeb1261b909f4ae5dd98d81b7088f8f86ad",
      "networkId": 0,
      "chainId": 0
    },
    {
      "hash": "0x38052679791a896013607e1c99e98138821eb17a01955d7cf4565a6720b67d9e",
      "blockHash": "0x408c175a18d060b184d8e61141f9d3fafabf7075a39ed920c37a3260b0b15047",
      "blockNumber": 64767,
      "transactionIndex": 1,
      "confirmations": null,
      "from": "0xC27a572921e5813F97A5Ae25AeCC48885Bf41d66",
      "gasPrice": {
        "_hex": "0xba43b7400"
      },
      "gasLimit": {
        "_hex": "0x5208"
      },
      "to": "0x2d8d515f70719CfB0afD3Cb653A5a47e875EeF77",
      "value": {
        "_hex": "0xd8e5610f40e000"
      },
      "nonce": 1,
      "data": "0x",
      "r": "0xce616bc252540155ba62a13c520ccb7466beb0f344bbdb888e605dba4068b005",
      "s": "0x774a27abd6ca53ba8f8183624a8f7a3fbe408c53f613e8ae3be33a36f2f883c6",
      "v": 28,
      "creates": null,
      "raw": "0xf86b01850ba43b7400825208942d8d515f70719cfb0afd3cb653a5a47e875eef7787d8e5610f40e000801ca0ce616bc252540155ba62a13c520ccb7466beb0f344bbdb888e605dba4068b005a0774a27abd6ca53ba8f8183624a8f7a3fbe408c53f613e8ae3be33a36f2f883c6",
      "networkId": 0,
      "chainId": 0
    }
  ]
}