{
  "hash": "0xab87cc90e71d4908618531f6d9d183ed4af120565ebfe33115ffb9b71cada4c7",
  "parentHash": "0x5f4cb240c862d083c0243ae76ef170360e19ee182b5570dfdb448d1d293b5531",
  "number": 85663,
  "timestamp": 1439566863,
  "nonce": "0x960af125371f2ffa",
  "difficulty": 2789519055920,
  "gasLimit": {
    "_hex": "0x2fefd8"
  },
  "gasUsed": {
    "_hex": "0x5208"
  },
  "miner": "0x88D74a59454F6cF3B51ef6b9136AFb6b9D405A88",
  "extraData": "0x476574682f76312e302e312d37666266393930632f6c696e75782f676f312e34",
  "transactions": [
    {
      "hash": "0x43eed27f81248ae44746c577f843f904215523dcd6f378b0aeb25d776b154e87",
      "blockHash": "0xab87cc90e71d4908618531f6d9d183ed4af120565ebfe33115ffb9b71cada4c7",
      "blockNumber": 85663,
      "transactionIndex": 0,
      "confirmations": null,
      "from": "0x120A270bbC009644e35F0bB6ab13f95b8199c4ad",
      "gasPrice": {
        "_hex": "0xd295c80ee"
      },
      "gasLimit": {
        "_hex": "0x3d090"
      },
      "to": "0x58dC5af3473Ec79E738eE67bd7BEB038F1391Be5",
      "value": {
        "_hex": "0xd2dafd4283481e000"
      },
      "nonce": 465,
      "data": "0x",
      "r": "0x5ef88d099456d2681b25271d8136f92a4257c1fc3d245f2dcb5991c91bc7191f",
      "s": "0x3a55d570a18215fb91eada872521eb019ed758f29dd4fc196584ed75d7425bd7",
      "v": 28,
      "creates": null,
      "raw": "0xf8708201d1850d295c80ee8303d0909458dc5af3473ec79e738ee67bd7beb038f1391be5890d2dafd4283481e000801ca05ef88d099456d2681b25271d8136f92a4257c1fc3d245f2dcb5991c91bc7191fa03a55d570a18215fb91eada872521eb019ed758f29dd4fc196584ed75d7425bd7",
      "networkId": 0,
      "chainId": 0
    }
  ]
}