{
  "hash": "0x2749a39f3c3a7f24afcee2736963b9d9b9bf50ef7d92d8284c14f2cfa70db340",
  "parentHash": "0x3bb5a8b85fe42ad26a8645346666c885eb0d2c8a0496442a40c7fc5f6910b94f",
  "number": 93692,
  "timestamp": 1439696116,
  "nonce": "0x19e0c109b69f5ccc",
  "difficulty": 3419525942035,
  "gasLimit": {
    "_hex": "0x2fefd8"
  },
  "gasUsed": {
    "_hex": "0x5208"
  },
  "miner": "0xbb7B8287f3F0a933474a79eAe42CBCa977791171",
  "extraData": "0x476574682f4c5649562f76312e302e312f6c696e75782f676f312e342e32",
  "transactions": [
    {
      "hash": "0xa3938880c8c3c15858bd1ff64b6e2447c1fd5aceae505ad565a45ddab2e606ff",
      "blockHash": "0x2749a39f3c3a7f24afcee2736963b9d9b9bf50ef7d92d8284c14f2cfa70db340",
      "blockNumber": 93692,
      "transactionIndex": 0,
      "confirmations": null,
      "from": "0xD9666150A9dA92d9108198a4072970805a8B3428",
      "gasPrice": {
        "_hex": "0xda9fb58bc"
      },
      "gasLimit": {
        "_hex": "0x5208"
      },
      "to": "0x32Be343B94f860124dC4fEe278FDCBD38C102D88",
      "value": {
        "_hex": "0xddc55d4d71f7c00"
      },
      "nonce": 12,
      "data": "0x",
      "r": "0x5b492ebe9ab1cfcaf5e4fc8cc3089e090acf09cb1d621901a8d1ae8a76f8c195",
      "s": "0x47386c7e63b9b51dcb4254aa0ee215f79efcecb1699cc10ce9952b26bfa31c05",
      "v": 28,
      "creates": null,
      "raw": "0xf86c0c850da9fb58bc8252089432be343b94f860124dc4fee278fdcbd38c102d88880ddc55d4d71f7c00801ca05b492ebe9ab1cfcaf5e4fc8cc3089e090acf09cb1d621901a8d1ae8a76f8c195a047386c7e63b9b51dcb4254aa0ee215f79efcecb1699cc10ce9952b26bfa31c05",
      "networkId": 0,
      "chainId": 0
    }
  ]
}