{
  "hash": "0x0b098601c872c2f968d50ba8612acfd1a83c03b8b1510887a10a51214f0cefff",
  "parentHash": "0xe8f5d73348d687abb6e088270cea35d2916878279cf9f63c6f72ed65b62edeb1",
  "number": 94688,
  "timestamp": 1439712448,
  "nonce": "0x2693af64f9f4efa9",
  "difficulty": 3483152883179,
  "gasLimit": {
    "_hex": "0x2fefd8"
  },
  "gasUsed": {
    "_hex": "0x5208"
  },
  "miner": "0xe6A7a1d47ff21B6321162AEA7C6CB457D5476Bca",
  "extraData": "0x476574682f76312e302e312d38326566323666362f6c696e75782f676f312e34",
  "transactions": [
    {
      "hash": "0x04731f3044f9c7e86d9e980bbe60453cc97cc44e520e7ae552fe52a7adc1a906",
      "blockHash": "0x0b098601c872c2f968d50ba8612acfd1a83c03b8b1510887a10a51214f0cefff",
      "blockNumber": 94688,
      "transactionIndex": 0,
      "confirmations": null,
      "from": "0x3cD73157C6a0aB907B9dFe60F75c74Bb99D98e7b",
      "gasPrice": {
        "_hex": "0xd6597b138"
      },
      "gasLimit": {
        "_hex": "0x5208"
      },
      "to": "0x32Be343B94f860124dC4fEe278FDCBD38C102D88",
      "value": {
        "_hex": "0x278d72842f49b0000"
      },
      "nonce": 2,
      "data": "0x",
      "r": "0x141085c1985ccc1f1c927310f827843662d41f878cf30538d861f6fd52aa3a8d",
      "s": "0x307802ab5f3ecd3c3a02a07ec108b0cbc64715441b882dd77d13892334d41519",
      "v": 28,
      "creates": null,
      "raw": "0xf86d02850d6597b1388252089432be343b94f860124dc4fee278fdcbd38c102d88890278d72842f49b0000801ca0141085c1985ccc1f1c927310f827843662d41f878cf30538d861f6fd52aa3a8da0307802ab5f3ecd3c3a02a07ec108b0cbc64715441b882dd77d13892334d41519",
      "networkId": 0,
      "chainId": 0
    }
  ]
}