{
  "hash": "0x71a746a2621464c3711bfb24e7e43949d5221f7921d886221dd154dc646d4269",
  "parentHash": "0x66ab58abf69b2394e612e81af38f6fe45ff07644facd1d1221237d741c3eac80",
  "number": 107359,
  "timestamp": 1439921113,
  "nonce": "0x6ba0d21c621b49cc",
  "difficulty": 4402916868198,
  "gasLimit": {
    "_hex": "0x2fefd8"
  },
  "gasUsed": {
    "_hex": "0x340e4"
  },
  "miner": "0xe6A7a1d47ff21B6321162AEA7C6CB457D5476Bca",
  "extraData": "0x476574682f76312e302e312d38326566323666362f6c696e75782f676f312e34",
  "transactions": [
    {
      "hash": "0xddef72d5d2a48ae2391837c85b13f55113e00a01daf869cfb30b341ed8b16a54",
      "blockHash": "0x71a746a2621464c3711bfb24e7e43949d5221f7921d886221dd154dc646d4269",
      "blockNumber": 107359,
      "transactionIndex": 0,
      "confirmations": null,
      "from": "0xe74dfa89858fA989c1b3C38b1a1F605da5c61B72",
      "gasPrice": {
        "_hex": "0xd3d37f23a"
      },
      "gasLimit": {
        "_hex": "0x249f0"
      },
      "to": "0xE28e72FCf78647ADCe1F1252F240bbfaebD63BcC",
      "value": {
        "_hex": "0x56ba3d73af34f0000"
      },
      "nonce": 0,
      "data": "0x45466f3a",
      "r": "0x9b038dfd608eced0eec9ff583189399922c5f57a73c68b2aeff26bfa3c5aa7f3",
      "s": "0x2907e7f11f5932bf8d2c3886e25be346c580319a3e2129dc67628e5e67b91398",
      "v": 28,
      "creates": null,
      "raw": "0xf87280850d3d37f23a830249f094e28e72fcf78647adce1f1252f240bbfaebd63bcc89056ba3d73af34f00008445466f3a1ca09b038dfd608eced0eec9ff583189399922c5f57a73c68b2aeff26bfa3c5aa7f3a02907e7f11f5932bf8d2c3886e25be346c580319a3e2129dc67628e5e67b91398",
      "networkId": 0,
      "chainId": 0
    },
    {
      "hash": "0x7027180db42e570706a2dbc168f74fa26e9f533348513e69d145629f83218efb",
      "blockHash": "0x71a746a2621464c3711bfb24e7e43949d5221f7921d886221dd154dc646d4269",
      "blockNumber": 107359,
      "transactionIndex": 1,
      "confirmations": null,
      "from": "0x7AF34bF553440a68cccE97024F568dcd1f9eA025",
      "gasPrice": {
        "_hex": "0xba43b7400"
      },
      "gasLimit": {
        "_hex": "0x249f0"
      },
      "to": "0xE28e72FCf78647ADCe1F1252F240bbfaebD63BcC",
      "value": {
        "_hex": "0xde0b6b3a7640000"
      },
      "nonce": 2,
      "data": "0x45466f3a",
      "r": "0xbb53f861c302bf0cc572f1ba879269f853df1a59142aa7ea495bc789ae1fc6be",
      "s": "0x3796f500665b6049e95ce481539b4c592f6c76175c78db15b1fb172288da3960",
      "v": 27,
      "creates": null,
      "raw": "0xf87102850ba43b7400830249f094e28e72fcf78647adce1f1252f240bbfaebd63bcc880de0b6b3a76400008445466f3a1ba0bb53f861c302bf0cc572f1ba879269f853df1a59142aa7ea495bc789ae1fc6bea03796f500665b6049e95ce481539b4c592f6c76175c78db15b1fb172288da3960",
      "networkId": 0,
      "chainId": 0
    }
  ]
}