{
  "hash": "0x7851fb41442875164f82f5290079cc85d5e56a85d25c6bd0792049fe7737428f",
  "parentHash": "0xfb8ca3138bb0af53379e02e9b9c92af2151a92eab8477ef08ee55e5b0b50ab6f",
  "number": 81045,
  "timestamp": 1439495181,
  "nonce": "0x6ce2d2dfc9ee0ba5",
  "difficulty": 2432025343165,
  "gasLimit": {
    "_hex": "0x2fefd8"
  },
  "gasUsed": {
    "_hex": "0xf618"
  },
  "miner": "0xe6A7a1d47ff21B6321162AEA7C6CB457D5476Bca",
  "extraData": "0x476574682f76312e302e312d38326566323666362f6c696e75782f676f312e34",
  "transactions": [
    {
      "hash": "0x5c00f6b12472db666a616214b62f1f494b08481c27271c3b7b4a65d2621d4dc6",
      "blockHash": "0x7851fb41442875164f82f5290079cc85d5e56a85d25c6bd0792049fe7737428f",
      "blockNumber": 81045,
      "transactionIndex": 0,
      "confirmations": null,
      "from": "0x120A270bbC009644e35F0bB6ab13f95b8199c4ad",
      "gasPrice": {
        "_hex": "0xd356ec9c2"
      },
      "gasLimit": {
        "_hex": "0x3d090"
      },
      "to": "0x4230fd701B0a2AbF8E7b0A6bd430cEF4736d29c2",
      "value": {
        "_hex": "0x29a2241af62c0000"
      },
      "nonce": 365,
      "data": "0x",
      "r": "0xb97bc1ebbbbd10bcce52b4ea6a7d4015146173492a9e31d9a0863a5ac520f471",
      "s": "0x3f4eeee8e1ee54e25eba4f9c9c9bd01fd132b919ce900abe09f8e1c3a09f9e21",
      "v": 27,
      "creates": null,
      "raw": "0xf86f82016d850d356ec9c28303d090944230fd701b0a2abf8e7b0a6bd430cef4736d29c28829a2241af62c0000801ba0b97bc1ebbbbd10bcce52b4ea6a7d4015146173492a9e31d9a0863a5ac520f471a03f4eeee8e1ee54e25eba4f9c9c9bd01fd132b919ce900abe09f8e1c3a09f9e21",
      "networkId": 0,
      "chainId": 0
    },
    {
      "hash": "0xd352cce835778eda997073237b61b5dad6fb4e8d6978420a4bc564a81bf6a8b5",
      "blockHash": "0x7851fb41442875164f82f5290079cc85d5e56a85d25c6bd0792049fe7737428f",
      "blockNumber": 81045,
      "transactionIndex": 1,
      "confirmations": null,
      "from": "0x2910543Af39abA0Cd09dBb2D50200b3E800A63D2",
      "gasPrice": {
        "_hex": "0xcea31b080"
      },
      "gasLimit": {
        "_hex": "0x5208"
      },
      "to": "0xA28712B2076e6E16C41e67C366C2f0BF72d80D48",
      "value": {
        "_hex": "0x8219949cadcb78000"
      },
      "nonce": 432,
      "data": "0x",
      "r": "0x871c5252a4fee82ba8c3759a038891ac32326207afa583e02fd56054b5e90b06",
      "s": "0x6492075a7758be900b21e11412122cd38c48e14cb88285b47ee24fc935429c38",
      "v": 28,
      "creates": null,
      "raw": "0xf86f8201b0850cea31b08082520894a28712b2076e6e16c41e67c366c2f0bf72d80d488908219949cadcb78000801ca0871c5252a4fee82ba8c3759a038891ac32326207afa583e02fd56054b5e90b06a06492075a7758be900b21e11412122cd38c48e14cb88285b47ee24fc935429c38",
      "networkId": 0,
      "chainId": 0
    },
    {
      "hash": "0xcc60ed6940d381cb5dfd002805e211be3500770ac62c9ad7b74f2a97faded365",
      "blockHash": "0x7851fb41442875164f82f5290079cc85d5e56a85d25c6bd0792049fe7737428f",
      "blockNumber": 81045,
      "transactionIndex": 2,
      "confirmations": null,
      "from": "0x2910543Af39abA0Cd09dBb2D50200b3E800A63D2",
      "gasPrice": {
        "_hex": "0xcea31b080"
      },
      "gasLimit": {
        "_hex": "0x5208"
      },
      "to": "0xfD2e2C6803497ECF240350F24Ef3Ee61E3360dc4",
      "value": {
        "_hex": "0x1bafa9ee16e78000"
      },
      "nonce": 433,
      "data": "0x",
      "r": "0x6ebb5d6ba0032e156276d0316e996aaa60aae5b70ae57633b8ec2415828cb210",
      "s": "0x76c329aa662ad5a79240b9d056680ce91c4be5bc0077ba58655897bff89e04f4",
      "v": 27,
      "creates": null,
      "raw": "0xf86e8201b1850cea31b08082520894fd2e2c6803497ecf240350f24ef3ee61e3360dc4881bafa9ee16e78000801ba06ebb5d6ba0032e156276d0316e996aaa60aae5b70ae57633b8ec2415828cb210a076c329aa662ad5a79240b9d056680ce91c4be5bc0077ba58655897bff89e04f4",
      "networkId": 0,
      "chainId": 0
    }
  ]
}