{
  "hash": "0x677a0cb4514fcfd97073fd1f7bff4b3198590d7537bd6551fba85a780df8309b",
  "parentHash": "0xe79814f36758cb57c80449886deab6d5284ea44fec89660c0a4721dab0a25947",
  "number": 93183,
  "timestamp": 1439684590,
  "nonce": "0xabc4b0e4414952ad",
  "difficulty": 3599633882098,
  "gasLimit": {
    "_hex": "0x2fefd8"
  },
  "gasUsed": {
    "_hex": "0xf618"
  },
  "miner": "0xA21Ba94e45f0E168dA824fC67aC9cb5Cb577a8aF",
  "extraData": "0x",
  "transactions": [
    {
      "hash": "0x12a644bca136b4841b3fbfeeccdea968cc83be883d0c98c8cca6954e1e055174",
      "blockHash": "0x677a0cb4514fcfd97073fd1f7bff4b3198590d7537bd6551fba85a780df8309b",
      "blockNumber": 93183,
      "transactionIndex": 0,
      "confirmations": null,
      "from": "0xC8224326e29eD30AEEC1B70ec238A818169ecaBA",
      "gasPrice": {
        "_hex": "0xd8364fc25"
      },
      "gasLimit": {
        "_hex": "0x15f90"
      },
      "to": "0x61F642543d22bAf5382908a714E675Cc0b51ea45",
      "value": {
        "_hex": "0x1220bb7445daa0000"
      },
      "nonce": 8,
      "data": "0x",
      "r": "0x652c653a1ba714431493518a4d754c7ef2b2e4a83d54654d8bc27bdae3633538",
      "s": "0x607e19c93d1782d476d4906dadfe976d551fc9d00c6b62f5dedb06b02f69190b",
      "v": 27,
      "creates": null,
      "raw": "0xf86e08850d8364fc2583015f909461f642543d22baf5382908a714e675cc0b51ea458901220bb7445daa0000801ba0652c653a1ba714431493518a4d754c7ef2b2e4a83d54654d8bc27bdae3633538a0607e19c93d1782d476d4906dadfe976d551fc9d00c6b62f5dedb06b02f69190b",
      "networkId": 0,
      "chainId": 0
    },
    {
      "hash": "0xebaee5a98dca9ab235783ecd2335da80cff41090ef386584151e49f0374723cf",
      "blockHash": "0x677a0cb4514fcfd97073fd1f7bff4b3198590d7537bd6551fba85a780df8309b",
      "blockNumber": 93183,
      "transactionIndex": 1,
      "confirmations": null,
      "from": "0xdeE4977F74E6Aef6D627191c9A45D2627e331150",
      "gasPrice": {
        "_hex": "0xcf3387b74"
      },
      "gasLimit": {
        "_hex": "0x5208"
      },
      "to": "0x32Be343B94f860124dC4fEe278FDCBD38C102D88",
      "value": {
        "_hex": "0xd0268e37f5ab3800"
      },
      "nonce": 10,
      "data": "0x",
      "r": "0x93da89cf7f7c772c47ecff0e46758bf73232a6be087a5c52e2b22231103ca00e",
      "s": "0x06b2d87be39899dfb7b10c87d7932d82ab0648c381fccf8d9bce67cbd3f53972",
      "v": 28,
      "creates": null,
      "raw": "0xf86c0a850cf3387b748252089432be343b94f860124dc4fee278fdcbd38c102d8888d0268e37f5ab3800801ca093da89cf7f7c772c47ecff0e46758bf73232a6be087a5c52e2b22231103ca00ea006b2d87be39899dfb7b10c87d7932d82ab0648c381fccf8d9bce67cbd3f53972",
      "networkId": 0,
      "chainId": 0
    },
    {
      "hash": "0x051622b1ed67311d7800e1896b01bc4016672fa77c9a5410dbb63f2f2b7fe6a8",
      "blockHash": "0x677a0cb4514fcfd97073fd1f7bff4b3198590d7537bd6551fba85a780df8309b",
      "blockNumber": 93183,
      "transactionIndex": 2,
      "confirmations": null,
      "from": "0x61F642543d22bAf5382908a714E675Cc0b51ea45",
      "gasPrice": {
        "_hex": "0xcf3387b74"
      },
      "gasLimit": {
        "_hex": "0x5208"
      },
      "to": "0x32Be343B94f860124dC4fEe278FDCBD38C102D88",
      "value": {
        "_hex": "0xb301db5849593800"
      },
      "nonce": 8,
      "data": "0x",
      "r": "0x4d8c74be588fea3ef62823453f5127ed6fb324df05fdb8f0b7b685c4091e4a40",
      "s": "0x680d4b12770d86ad2b85d0c08f77d8216798ac12cd125c02c148150fb694175c",
      "v": 28,
      "creates": null,
      "raw": "0xf86c08850cf3387b748252089432be343b94f860124dc4fee278fdcbd38c102d8888b301db5849593800801ca04d8c74be588fea3ef62823453f5127ed6fb324df05fdb8f0b7b685c4091e4a40a0680d4b12770d86ad2b85d0c08f77d8216798ac12cd125c02c148150fb694175c",
      "networkId": 0,
      "chainId": 0
    }
  ]
}