{
  "hash": "0xea9dff785d06be7991df9c0f476961ae1b45ed1997d2b9cba277b1a295f848c9",
  "parentHash": "0xa42574a4ca2a79b97c66d81ec0ba05a01695db86071ed9a57da5b2fbe638c117",
  "number": 62105,
  "timestamp": 1439183412,
  "nonce": "0x3e2c915517d344a6",
  "difficulty": 1760832785642,
  "gasLimit": {
    "_hex": "0x2fefd5"
  },
  "gasUsed": {
    "_hex": "0xa410"
  },
  "miner": "0xDaD56904f2996453f00a79C2C7ee2E8c47dFbba3",
  "extraData": "0x476574682f76312e302e312f6c696e75782f676f312e342e32",
  "transactions": [
    {
      "hash": "0xb41c5a29f2b3820ed812bd5861923ad726e26fab877f3422f02ac9f96cb5e865",
      "blockHash": "0xea9dff785d06be7991df9c0f476961ae1b45ed1997d2b9cba277b1a295f848c9",
      "blockNumber": 62105,
      "transactionIndex": 0,
      "confirmations": null,
      "from": "0xF9B617f752edECAE3e909fBB911d2f8192f84209",
      "gasPrice": {
        "_hex": "0x111b57e451e"
      },
      "gasLimit": {
        "_hex": "0x15f90"
      },
      "to": "0x6800E12aFd6CAa35c8482E7757119ccf6b576FD0",
      "value": {
        "_hex": "0x1b1ae4d6e2ef500000"
      },
      "nonce": 6,
      "data": "0x",
      "r": "0xb52a748c01d5ae5c8672f1392ebd3207538a9d550466e37ed163c418f73b6e6a",
      "s": "0x5491fa457fba3ed0a3f88d13d15fbf04853fc1862df1d3aa82bd6cc9d8f703f5",
      "v": 28,
      "creates": null,
      "raw": "0xf86f06860111b57e451e83015f90946800e12afd6caa35c8482e7757119ccf6b576fd0891b1ae4d6e2ef500000801ca0b52a748c01d5ae5c8672f1392ebd3207538a9d550466e37ed163c418f73b6e6aa05491fa457fba3ed0a3f88d13d15fbf04853fc1862df1d3aa82bd6cc9d8f703f5",
      "networkId": 0,
      "chainId": 0
    },
    {
      "hash": "0xbe4fe106ad94da83783839a569e383522948a2bdaa895aa0a9a481d449f62cbc",
      "blockHash": "0xea9dff785d06be7991df9c0f476961ae1b45ed1997d2b9cba277b1a295f848c9",
      "blockNumber": 62105,
      "transactionIndex": 1,
      "confirmations": null,
      "from": "0xB0bF4A71F730782368Ef660FE6D298F432F95450",
      "gasPrice": {
        "_hex": "0xcded44dd7"
      },
      "gasLimit": {
        "_hex": "0x5208"
      },
      "to": "0x32Be343B94f860124dC4fEe278FDCBD38C102D88",
      "value": {
        "_hex": "0x1b1ae0b82790d00000"
      },
      "nonce": 9,
      "data": "0x",
      "r": "0x86ab0018ad6750b67eb6c0abe3715ea68c07a9c6f299aaea33964d8abc5d3099",
      "s": "0x4368a3444b724d05153f8bf062ac304b8006e23af16b7db495176c83819e6537",
      "v": 28,
      "creates": null,
      "raw": "0xf86d09850cded44dd78252089432be343b94f860124dc4fee278fdcbd38c102d88891b1ae0b82790d00000801ca086ab0018ad6750b67eb6c0abe3715ea68c07a9c6f299aaea33964d8abc5d3099a04368a3444b724d05153f8bf062ac304b8006e23af16b7db495176c83819e6537",
      "networkId": 0,
      "chainId": 0
    }
  ]
}