{
  "hash": "0xc3de2b13bebd1186882e8c86cab5510d427d72d653b2af98d4bdea3a41255e97",
  "parentHash": "0x70f3b11ed7b4053b9b914e5973e25e6515acc1161216675cb9e46b3dccc3d433",
  "number": 89867,
  "timestamp": 1439630424,
  "nonce": "0x8595c9d3318e87dd",
  "difficulty": 3336944466531,
  "gasLimit": {
    "_hex": "0x2fefd8"
  },
  "gasUsed": {
    "_hex": "0x5208"
  },
  "miner": "0xbb7B8287f3F0a933474a79eAe42CBCa977791171",
  "extraData": "0x476574682f4c5649562f76312e302e312f6c696e75782f676f312e342e32",
  "transactions": [
    {
      "hash": "0x87c847aed37e6a94b0514403c865b91d793437566ea33e8dd634236b432372fa",
      "blockHash": "0xc3de2b13bebd1186882e8c86cab5510d427d72d653b2af98d4bdea3a41255e97",
      "blockNumber": 89867,
      "transactionIndex": 0,
      "confirmations": null,
      "from": "0xc7Dda420b6e858441b9Ea42B762dF14C59552fbb",
      "gasPrice": {
        "_hex": "0xd58aa4216"
      },
      "gasLimit": {
        "_hex": "0x5208"
      },
      "to": "0x32Be343B94f860124dC4fEe278FDCBD38C102D88",
      "value": {
        "_hex": "0x5de7fba2624dd000"
      },
      "nonce": 0,
      "data": "0x",
      "r": "0x738b32dfb444af2f24b3ba9f1ef2807d9f4010acdfc886dfb5737435e7776218",
      "s": "0x6f09804d28bcf31dc7d1762955f2ebc00912e45965e38c88c13bc045a73ff184",
      "v": 28,
      "creates": null,
      "raw": "0xf86c80850d58aa42168252089432be343b94f860124dc4fee278fdcbd38c102d88885de7fba2624dd000801ca0738b32dfb444af2f24b3ba9f1ef2807d9f4010acdfc886dfb5737435e7776218a06f09804d28bcf31dc7d1762955f2ebc00912e45965e38c88c13bc045a73ff184",
      "networkId": 0,
      "chainId": 0
    }
  ]
}