{
  "hash": "0xa82597005aa5b9f3f1b96505c95b185a3351fe842c60cc9e288b434a41e8cb10",
  "parentHash": "0x793267a31fe2144524a13ac1f263a3925ffe83392b634ecd0ff23e2e25e4460c",
  "number": 84286,
  "timestamp": 1439547579,
  "nonce": "0x1b4f619f58250c34",
  "difficulty": 2529163996026,
  "gasLimit": {
    "_hex": "0x2fefd8"
  },
  "gasUsed": {
    "_hex": "0xa4100"
  },
  "miner": "0xa50ec0D39fa913E62f1Bae7074E6F36caA71855b",
  "extraData": "0xd783010001844765746887676f312e342e32856c696e7578",
  "transactions": [
    {
      "hash": "0xb497782a408853fdade6574de6e42703f08a6cade9205b5d784dd7f67e754217",
      "blockHash": "0xa82597005aa5b9f3f1b96505c95b185a3351fe842c60cc9e288b434a41e8cb10",
      "blockNumber": 84286,
      "transactionIndex": 0,
      "confirmations": null,
      "from": "0xe6A7a1d47ff21B6321162AEA7C6CB457D5476Bca",
      "gasPrice": {
        "_hex": "0xddcbeae84"
      },
      "gasLimit": {
        "_hex": "0x55f0"
      },
      "to": "0x4EF5e475724b7c945A4bdbB1Be68d76103bA9013",
      "value": {
        "_hex": "0xb3246b0f71bb7808"
      },
      "nonce": 1796,
      "data": "0x",
      "r": "0xaad501a24afa4ff811a4d97ba0b753998b928fc06cae285eb525b9fda9eea30f",
      "s": "0x3037dd4f6c2a6bb1c504be591a1ea6c412c999e5a2344949d603896919adbc5c",
      "v": 28,
      "creates": null,
      "raw": "0xf86e820704850ddcbeae848255f0944ef5e475724b7c945a4bdbb1be68d76103ba901388b3246b0f71bb7808801ca0aad501a24afa4ff811a4d97ba0b753998b928fc06cae285eb525b9fda9eea30fa03037dd4f6c2a6bb1c504be591a1ea6c412c999e5a2344949d603896919adbc5c",
      "networkId": 0,
      "chainId": 0
    },
    {
      "hash": "0xc4564fa75b4d94e86da6ffebe7d0a74dc269ab20fd57ba926943720480392a2b",
      "blockHash": "0xa82597005aa5b9f3f1b96505c95b185a3351fe842c60cc9e288b434a41e8cb10",
      "blockNumber": 84286,
      "transactionIndex": 1,
      "confirmations": null,
      "from": "0xe6A7a1d47ff21B6321162AEA7C6CB457D5476Bca",
      "gasPrice": {
        "_hex": "0xddcbeae84"
      },
      "gasLimit": {
        "_hex": "0x55f0"
      },
      "to": "0x63738Ec4C9adec404749B5747F3bbE2147de632F",
      "value": {
        "_hex": "0xb7a71f84095a7880"
      },
      "nonce": 1797,
      "data": "0x",
      "r": "0x4c676d72cd088959e4197f92bfb17c9dfb7e217f287276abfaf13235c0375e63",
      "s": "0x683d4feffe09c79c555f68a93cec7789750fd823ac1ddb479126e51848c31f43",
      "v": 27,
      "creates": null,
      "raw": "0xf86e820705850ddcbeae848255f09463738ec4c9adec404749b5747f3bbe2147de632f88b7a71f84095a7880801ba04c676d72cd088959e4197f92bfb17c9dfb7e217f287276abfaf13235c0375e63a0683d4feffe09c79c555f68a93cec7789750fd823ac1ddb479126e51848c31f43",
      "networkId": 0,
      "chainId": 0
    },
    {
      "hash": "0x50751f0528ba2ac85f4a21430acb2a85b2b55a22c49f2bfe9d0cabe45194518c",
      "blockHash": "0xa82597005aa5b9f3f1b96505c95b185a3351fe842c60cc9e288b434a41e8cb10",
      "blockNumber": 84286,
      "transactionIndex": 2,
      "confirmations": null,
      "from": "0xe6A7a1d47ff21B6321162AEA7C6CB457D5476Bca",
      "gasPrice": {
        "_hex": "0xddcbeae84"
      },
      "gasLimit": {
        "_hex": "0x55f0"
      },
      "to": "0xD51361E8863b74B1d3BF75246d30f33f9f103e1d",
      "value": {
        "_hex": "0xbbe43423bdf279b0"
      },
      "nonce": 1798,
      "data": "0x",
      "r": "0x104b2f1b90490d8d8601370916c85f9db75b8dde1fcab71a22a287b7aab759a4",
      "s": "0x47ec0f4121847320c63b20f94d7c5c66be4977e8d8d817fa583a1b64ec488e2f",
      "v": 27,
      "creates": null,
      "raw": "0xf86e820706850ddcbeae848255f094d51361e8863b74b1d3bf75246d30f33f9f103e1d88bbe43423bdf279b0801ba0104b2f1b90490d8d8601370916c85f9db75b8dde1fcab71a22a287b7aab759a4a047ec0f4121847320c63b20f94d7c5c66be4977e8d8d817fa583a1b64ec488e2f",
      "networkId": 0,
      "chainId": 0
    },
    {
      "hash": "0xc23f1f2521cf1714a9f503e6c8b3d1ae4fffd60b7630f574ca3c3653c91f355b",
      "blockHash": "0xa82597005aa5b9f3f1b96505c95b185a3351fe842c60cc9e288b434a41e8cb10",
      "blockNumber": 84286,
      "transactionIndex": 3,
      "confirmations": null,
      "from": "0xe6A7a1d47ff21B6321162AEA7C6CB457D5476Bca",
      "gasPrice": {
        "_hex": "0xddcbeae84"
      },
      "gasLimit": {
        "_hex": "0x55f0"
      },
      "to": "0x27A2f708f13CFE24f8e5d6E8b7D8E971D2449Ba0",
      "value": {
        "_hex": "0xbd5c7c4e72569350"
      },
      "nonce": 1799,
      "data": "0x",
      "r": "0x87981b6d2bf0329938b5d906f381f229ef7958b2aabbb606257f8b598e4677ec",
      "s": "0x3c93eb114ac27c7d8cb51bfe9037c366a264402b2a635498fba5e66859fc3b66",
      "v": 28,
      "creates": null,
      "raw": "0xf86e820707850ddcbeae848255f09427a2f708f13cfe24f8e5d6e8b7d8e971d2449ba088bd5c7c4e72569350801ca087981b6d2bf0329938b5d906f381f229ef7958b2aabbb606257f8b598e4677eca03c93eb114ac27c7d8cb51bfe9037c366a264402b2a635498fba5e66859fc3b66",
      "networkId": 0,
      "chainId": 0
    },
    {
      "hash": "0xa23663b2c63908be31f401cbff306f106e4861176618899b3b5883d8ef5083a8",
      "blockHash": "0xa82597005aa5b9f3f1b96505c95b185a3351fe842c60cc9e288b434a41e8cb10",
      "blockNumber": 84286,
      "transactionIndex": 4,
      "confirmations": null,
      "from": "0xe6A7a1d47ff21B6321162AEA7C6CB457D5476Bca",
      "gasPrice": {
        "_hex": "0xddcbeae84"
      },
      "gasLimit": {
        "_hex": "0x55f0"
      },
      "to": "0x267069452478cA39b3f5F1A4fFdD4131f50Bc977",
      "value": {
        "_hex": "0xbdec7eaf8fb7d1e0"
      },
      "nonce": 1800,
      "data": "0x",
      "r": "0x1e5297d45b2de53f1d2af5505f8d10c37d858724c42a186ef542b65c863bdb8f",
      "s": "0x1eaec4aeaaf4122400a8f3d37535a082b9feeb6c41adcea2c0ef5c7a36989d42",
      "v": 27,
      "creates": null,
      "raw": "0xf86e820708850ddcbeae848255f094267069452478ca39b3f5f1a4ffdd4131f50bc97788bdec7eaf8fb7d1e0801ba01e5297d45b2de53f1d2af5505f8d10c37d858724c42a186ef542b65c863bdb8fa01eaec4aeaaf4122400a8f3d37535a082b9feeb6c41adcea2c0ef5c7a36989d42",
      "networkId": 0,
      "chainId": 0
    },
    {
      "hash": "0xc5bad7de1ced07ee4cf44400ae2c2522fe05ea31c9e1b07588f93655c6ab5487",
      "blockHash": "0xa82597005aa5b9f3f1b96505c95b185a3351fe842c60cc9e288b434a41e8cb10",
      "blockNumber": 84286,
      "transactionIndex": 5,
      "confirmations": null,
      "from": "0xe6A7a1d47ff21B6321162AEA7C6CB457D5476Bca",
      "gasPrice": {
        "_hex": "0xddcbeae84"
      },
      "gasLimit": {
        "_hex": "0x55f0"
      },
      "to": "0xf07aAde57CeD1af9a2D538eCcbfD96103f6F2410",
      "value": {
        "_hex": "0xbe670232e9170630"
      },
      "nonce": 1801,
      "data": "0x",
      "r": "0x9a956d2535042fe1fda65c384c0d7c50dc8cd7ab3a1902555bc0f7e8c10fe658",
      "s": "0x28ad3cd1381016c4f8cf85cdb79aaab64f902df2a4855556ed4859e7b3d59b74",
      "v": 28,
      "creates": null,
      "raw": "0xf86e820709850ddcbeae848255f094f07aade57ced1af9a2d538eccbfd96103f6f241088be670232e9170630801ca09a956d2535042fe1fda65c384c0d7c50dc8cd7ab3a1902555bc0f7e8c10fe658a028ad3cd1381016c4f8cf85cdb79aaab64f902df2a4855556ed4859e7b3d59b74",
      "networkId": 0,
      "chainId": 0
    },
    {
      "hash": "0xdbcf9fc856751821817e9f7800d9b72df2af06894ea6524d9638e14fc8406137",
      "blockHash": "0xa82597005aa5b9f3f1b96505c95b185a3351fe842c60cc9e288b434a41e8cb10",
      "blockNumber": 84286,
      "transactionIndex": 6,
      "confirmations": null,
      "from": "0xe6A7a1d47ff21B6321162AEA7C6CB457D5476Bca",
      "gasPrice": {
        "_hex": "0xddcbeae84"
      },
      "gasLimit": {
        "_hex": "0x55f0"
      },
      "to": "0x233b4fC39b20bb5eCf29882D7F068544BCc5eB78",
      "value": {
        "_hex": "0xc32296ad7a74b7c0"
      },
      "nonce": 1802,
      "data": "0x",
      "r": "0xb302a0c02ff9595dfee159d4022f519db06a7c6802a64c44686dee05d118edca",
      "s": "0x2bae6a1177ac05d5a606bd2385990bc11c815432a97cd7a24e282edd458fbbea",
      "v": 28,
      "creates": null,
      "raw": "0xf86e82070a850ddcbeae848255f094233b4fc39b20bb5ecf29882d7f068544bcc5eb7888c32296ad7a74b7c0801ca0b302a0c02ff9595dfee159d4022f519db06a7c6802a64c44686dee05d118edcaa02bae6a1177ac05d5a606bd2385990bc11c815432a97cd7a24e282edd458fbbea",
      "networkId": 0,
      "chainId": 0
    },
    {
      "hash": "0x90f9c8d56d2a42acf94f113c3e777fbd48bd14c8a73792cf0a810734e052d900",
      "blockHash": "0xa82597005aa5b9f3f1b96505c95b185a3351fe842c60cc9e288b434a41e8cb10",
      "blockNumber": 84286,
      "transactionIndex": 7,
      "confirmations": null,
      "from": "0xe6A7a1d47ff21B6321162AEA7C6CB457D5476Bca",
      "gasPrice": {
        "_hex": "0xddcbeae84"
      },
      "gasLimit": {
        "_hex": "0x55f0"
      },
      "to": "0x9A6eb0bBBE50281644D7a7839147F59819506Ac0",
      "value": {
        "_hex": "0xc3458ec3dc178e68"
      },
      "nonce": 1803,
      "data": "0x",
      "r": "0x1b9841d508a58b81396a097a45fff607efd8b95c75e01f17db0ef3ec3dde809e",
      "s": "0x286db8cf4d964398924ee5c6bdc3a5cfc772f5313b8c28d083fbde5627eb6e89",
      "v": 28,
      "creates": null,
      "raw": "0xf86e82070b850ddcbeae848255f0949a6eb0bbbe50281644d7a7839147f59819506ac088c3458ec3dc178e68801ca01b9841d508a58b81396a097a45fff607efd8b95c75e01f17db0ef3ec3dde809ea0286db8cf4d964398924ee5c6bdc3a5cfc772f5313b8c28d083fbde5627eb6e89",
      "networkId": 0,
      "chainId": 0
    },
    {
      "hash": "0x6d9a16c5f12686d9a88286b8b2ceea621bc9b99c02bf21e0fb5b64fded54f1f2",
      "blockHash": "0xa82597005aa5b9f3f1b96505c95b185a3351fe842c60cc9e288b434a41e8cb10",
      "blockNumber": 84286,
      "transactionIndex": 8,
      "confirmations": null,
      "from": "0xe6A7a1d47ff21B6321162AEA7C6CB457D5476Bca",
      "gasPrice": {
        "_hex": "0xddcbeae84"
      },
      "gasLimit": {
        "_hex": "0x55f0"
      },
      "to": "0x0D81FD2bB264D9Ee0F432599b443ae1B691f6134",
      "value": {
        "_hex": "0xc3bc0b8c87cc21e0"
      },
      "nonce": 1804,
      "data": "0x",
      "r": "0x81b1e9442b9b2c9bb75c7c70124fd897d5a0b1ca829a9627f6ac648f459bbb32",
      "s": "0x66a4656af8a500fed2649c54d69035243bc781e1dca3c20c88e9d64a0412ee37",
      "v": 27,
      "creates": null,
      "raw": "0xf86e82070c850ddcbeae848255f0940d81fd2bb264d9ee0f432599b443ae1b691f613488c3bc0b8c87cc21e0801ba081b1e9442b9b2c9bb75c7c70124fd897d5a0b1ca829a9627f6ac648f459bbb32a066a4656af8a500fed2649c54d69035243bc781e1dca3c20c88e9d64a0412ee37",
      "networkId": 0,
      "chainId": 0
    },
    {
      "hash": "0x618dc94c5f3608cabe84df1c07a452fbc1279646ed30c441aefb1ed4c74d24cd",
      "blockHash": "0xa82597005aa5b9f3f1b96505c95b185a3351fe842c60cc9e288b434a41e8cb10",
      "blockNumber": 84286,
      "transactionIndex": 9,
      "confirmations": null,
      "from": "0xe6A7a1d47ff21B6321162AEA7C6CB457D5476Bca",
      "gasPrice": {
        "_hex": "0xddcbeae84"
      },
      "gasLimit": {
        "_hex": "0x55f0"
      },
      "to": "0x945133f5F817b984e41D4798b45C9B8ed7CE3EAc",
      "value": {
        "_hex": "0xc45280e470abeea0"
      },
      "nonce": 1805,
      "data": "0x",
      "r": "0xb12fdc2a68178c47cf49cb9a95e93d3130484ae515387bc767c56b623eb27eb5",
      "s": "0x57c8b474b624ea07901cd3f3fad18aa6fffb9fb0a3cca0fd2368703b8c66db34",
      "v": 27,
      "creates": null,
      "raw": "0xf86e82070d850ddcbeae848255f094945133f5f817b984e41d4798b45c9b8ed7ce3eac88c45280e470abeea0801ba0b12fdc2a68178c47cf49cb9a95e93d3130484ae515387bc767c56b623eb27eb5a057c8b474b624ea07901cd3f3fad18aa6fffb9fb0a3cca0fd2368703b8c66db34",
      "networkId": 0,
      "chainId": 0
    },
    {
      "hash": "0x4e0d4b2d097121e937bc4617a84b38dc4bddb0e3f61ac115d5fcbf141a0ae3f1",
      "blockHash": "0xa82597005aa5b9f3f1b96505c95b185a3351fe842c60cc9e288b434a41e8cb10",
      "blockNumber": 84286,
      "transactionIndex": 10,
      "confirmations": null,
      "from": "0xe6A7a1d47ff21B6321162AEA7C6CB457D5476Bca",
      "gasPrice": {
        "_hex": "0xddcbeae84"
      },
      "gasLimit": {
        "_hex": "0x55f0"
      },
      "to": "0x31353beec2eD3DFfC213c27A9F28ad8dfee828e9",
      "value": {
        "_hex": "0xc49c3d5566c07830"
      },
      "nonce": 1806,
      "data": "0x",
      "r": "0x39eef1b5469f8afc460495dc769bcd220b1b5dfa4305e055042f11fcac1a41a1",
      "s": "0x22f097ac337020beedc11f044b2e6433f0460801215e909224376d2d9e81c3c6",
      "v": 27,
      "creates": null,
      "raw": "0xf86e82070e850ddcbeae848255f09431353beec2ed3dffc213c27a9f28ad8dfee828e988c49c3d5566c07830801ba039eef1b5469f8afc460495dc769bcd220b1b5dfa4305e055042f11fcac1a41a1a022f097ac337020beedc11f044b2e6433f0460801215e909224376d2d9e81c3c6",
      "networkId": 0,
      "chainId": 0
    },
    {
      "hash": "0xbf10f0dbbaf8c5e1bb87027a8b44a9afb6a46fc3ee62225eea9a4304d36c4337",
      "blockHash": "0xa82597005aa5b9f3f1b96505c95b185a3351fe842c60cc9e288b434a41e8cb10",
      "blockNumber": 84286,
      "transactionIndex": 11,
      "confirmations": null,
      "from": "0xe6A7a1d47ff21B6321162AEA7C6CB457D5476Bca",
      "gasPrice": {
        "_hex": "0xddcbeae84"
      },
      "gasLimit": {
        "_hex": "0x55f0"
      },
      "to": "0xc15fa6D616245a5c7B7D75A6dFDcA10C0250BD2B",
      "value": {
        "_hex": "0xc7c86642be704188"
      },
      "nonce": 1807,
      "data": "0x",
      "r": "0x81cad70b36fcf8fa91ce18a708e0bd94f79490d50f25df7eba44e1e1f2c1fdc3",
      "s": "0x385f5d163e831ae96e28915e1b81726098f7dd51c84cf624910420d9cd5c8a02",
      "v": 28,
      "creates": null,
      "raw": "0xf86e82070f850ddcbeae848255f094c15fa6d616245a5c7b7d75a6dfdca10c0250bd2b88c7c86642be704188801ca081cad70b36fcf8fa91ce18a708e0bd94f79490d50f25df7eba44e1e1f2c1fdc3a0385f5d163e831ae96e28915e1b81726098f7dd51c84cf624910420d9cd5c8a02",
      "networkId": 0,
      "chainId": 0
    },
    {
      "hash": "0xba1ec745fc3844f54851c6262d44585a5bc92b54c79488ca6218cbe4b1626adc",
      "blockHash": "0xa82597005aa5b9f3f1b96505c95b185a3351fe842c60cc9e288b434a41e8cb10",
      "blockNumber": 84286,
      "transactionIndex": 12,
      "confirmations": null,
      "from": "0xe6A7a1d47ff21B6321162AEA7C6CB457D5476Bca",
      "gasPrice": {
        "_hex": "0xddcbeae84"
      },
      "gasLimit": {
        "_hex": "0x55f0"
      },
      "to": "0x78A5a3e39DB4Cf9824d4DFAbAbcdB36611788C78",
      "value": {
        "_hex": "0xcbe53310888d2908"
      },
      "nonce": 1808,
      "data": "0x",
      "r": "0x99e99501c7243e8dbf97985cf462b9df9f76a3692458bb942945a6fc2c26a40f",
      "s": "0x1d1cd165664cb21188969cdf5363035f157211d1c77da6e81388c1c2d3da9e3b",
      "v": 27,
      "creates": null,
      "raw": "0xf86e820710850ddcbeae848255f09478a5a3e39db4cf9824d4dfababcdb36611788c7888cbe53310888d2908801ba099e99501c7243e8dbf97985cf462b9df9f76a3692458bb942945a6fc2c26a40fa01d1cd165664cb21188969cdf5363035f157211d1c77da6e81388c1c2d3da9e3b",
      "networkId": 0,
      "chainId": 0
    },
    {
      "hash": "0xb0e96cc2ad385487695cf179f041af7f79e7bbea8b77cd7845b4c0a2ffc319ec",
      "blockHash": "0xa82597005aa5b9f3f1b96505c95b185a3351fe842c60cc9e288b434a41e8cb10",
      "blockNumber": 84286,
      "transactionIndex": 13,
      "confirmations": null,
      "from": "0xe6A7a1d47ff21B6321162AEA7C6CB457D5476Bca",
      "gasPrice": {
        "_hex": "0xddcbeae84"
      },
      "gasLimit": {
        "_hex": "0x55f0"
      },
      "to": "0x6111E933E5e6297DFd0AAd9aAB64017c69062a08",
      "value": {
        "_hex": "0xcecf67162729f070"
      },
      "nonce": 1809,
      "data": "0x",
      "r": "0x2a1fdc8b6a55397a6cc3376bb599d42779d39ccce2feecb77f16894c6b00cf83",
      "s": "0x3bed55da867f0b641f48570e33a701a0a9f2672a25a967cddf446f6444cb779b",
      "v": 28,
      "creates": null,
      "raw": "0xf86e820711850ddcbeae848255f0946111e933e5e6297dfd0aad9aab64017c69062a0888cecf67162729f070801ca02a1fdc8b6a55397a6cc3376bb599d42779d39ccce2feecb77f16894c6b00cf83a03bed55da867f0b641f48570e33a701a0a9f2672a25a967cddf446f6444cb779b",
      "networkId": 0,
      "chainId": 0
    },
    {
      "hash": "0xb42b12954cb9b66b68cd5d1e6679ddd216faa98cf77ee9c43476b6fecae29b36",
      "blockHash": "0xa82597005aa5b9f3f1b96505c95b185a3351fe842c60cc9e288b434a41e8cb10",
      "blockNumber": 84286,
      "transactionIndex": 14,
      "confirmations": null,
      "from": "0xe6A7a1d47ff21B6321162AEA7C6CB457D5476Bca",
      "gasPrice": {
        "_hex": "0xddcbeae84"
      },
      "gasLimit": {
        "_hex": "0x55f0"
      },
      "to": "0xD72ab61a64fEAeE7b5EB3D42B5445858B95d38fd",
      "value": {
        "_hex": "0xcf819869886ff8e8"
      },
      "nonce": 1810,
      "data": "0x",
      "r": "0xb8816c477de4840f36d88d32f11c7bf53df6aedc880c92c446104dd08de223cb",
      "s": "0x22cda0d236e3bc6459c1b24444cf733aa6e9d5badc25e8777aa80bd4a765c907",
      "v": 28,
      "creates": null,
      "raw": "0xf86e820712850ddcbeae848255f094d72ab61a64feaee7b5eb3d42b5445858b95d38fd88cf819869886ff8e8801ca0b8816c477de4840f36d88d32f11c7bf53df6aedc880c92c446104dd08de223cba022cda0d236e3bc6459c1b24444cf733aa6e9d5badc25e8777aa80bd4a765c907",
      "networkId": 0,
      "chainId": 0
    },
    {
      "hash": "0x2f69cbe6457811bbb11c24b4ab824f6f01a4cf19f314966cdc7f748bc49947f9",
      "blockHash": "0xa82597005aa5b9f3f1b96505c95b185a3351fe842c60cc9e288b434a41e8cb10",
      "blockNumber": 84286,
      "transactionIndex": 15,
      "confirmations": null,
      "from": "0xe6A7a1d47ff21B6321162AEA7C6CB457D5476Bca",
      "gasPrice": {
        "_hex": "0xddcbeae84"
      },
      "gasLimit": {
        "_hex": "0x55f0"
      },
      "to": "0x9dc5018E753A410593259039296bBfd28E29f894",
      "value": {
        "_hex": "0xd7e30e0af134eea8"
      },
      "nonce": 1811,
      "data": "0x",
      "r": "0x540a6889af1c69b54fb71548cd183e3ee09b72add8052ea1c9fce751c8ef5bc8",
      "s": "0x614d4932692eb23f7f486c6471d4f99a4de66da6ffc1ef3593940b4a1dfc1205",
      "v": 27,
      "creates": null,
      "raw": "0xf86e820713850ddcbeae848255f0949dc5018e753a410593259039296bbfd28e29f89488d7e30e0af134eea8801ba0540a6889af1c69b54fb71548cd183e3ee09b72add8052ea1c9fce751c8ef5bc8a0614d4932692eb23f7f486c6471d4f99a4de66da6ffc1ef3593940b4a1dfc1205",
      "networkId": 0,
      "chainId": 0
    },
    {
      "hash": "0xfa78ed62a674de86fbc2f9ca642e56c62496674283ef0e171b8275a0b6868e1d",
      "blockHash": "0xa82597005aa5b9f3f1b96505c95b185a3351fe842c60cc9e288b434a41e8cb10",
      "blockNumber": 84286,
      "transactionIndex": 16,
      "confirmations": null,
      "from": "0xe6A7a1d47ff21B6321162AEA7C6CB457D5476Bca",
      "gasPrice": {
        "_hex": "0xddcbeae84"
      },
      "gasLimit": {
        "_hex": "0x55f0"
      },
      "to": "0x7CabE4dE323c392C7135680c61a04d5Eb7519897",
      "value": {
        "_hex": "0xd816162c6e857628"
      },
      "nonce": 1812,
      "data": "0x",
      "r": "0x8889a5ef9708d7e2b6053ab641c46e568bcc0c7ede06d1e321c2162ed1c5cf8a",
      "s": "0x119451b1a73904785082be4491769ad62ea5b65e868e7a9d13efbdee60cdb9d3",
      "v": 28,
      "creates": null,
      "raw": "0xf86e820714850ddcbeae848255f0947cabe4de323c392c7135680c61a04d5eb751989788d816162c6e857628801ca08889a5ef9708d7e2b6053ab641c46e568bcc0c7ede06d1e321c2162ed1c5cf8aa0119451b1a73904785082be4491769ad62ea5b65e868e7a9d13efbdee60cdb9d3",
      "networkId": 0,
      "chainId": 0
    },
    {
      "hash": "0xe150e2cbaa79e37f142d357253138d06aac5310bdacd2fc3a5e1812031ee8f2a",
      "blockHash": "0xa82597005aa5b9f3f1b96505c95b185a3351fe842c60cc9e288b434a41e8cb10",
      "blockNumber": 84286,
      "transactionIndex": 17,
      "confirmations": null,
      "from": "0xe6A7a1d47ff21B6321162AEA7C6CB457D5476Bca",
      "gasPrice": {
        "_hex": "0xddcbeae84"
      },
      "gasLimit": {
        "_hex": "0x55f0"
      },
      "to": "0xD0317e8d007a61B8d740516E8a268D4faDADccbF",
      "value": {
        "_hex": "0xd91eafc5dce3bf08"
      },
      "nonce": 1813,
      "data": "0x",
      "r": "0xbb98af540abc4ae9ba20c2cff4a83fd8acceff49fcce12542e44499aaafd0b07",
      "s": "0x7b6d9cb92bb9b20080d414cc1a9ecbd067660bdb3e4404cd1c0eea99536d08e0",
      "v": 28,
      "creates": null,
      "raw": "0xf86e820715850ddcbeae848255f094d0317e8d007a61b8d740516e8a268d4fadadccbf88d91eafc5dce3bf08801ca0bb98af540abc4ae9ba20c2cff4a83fd8acceff49fcce12542e44499aaafd0b07a07b6d9cb92bb9b20080d414cc1a9ecbd067660bdb3e4404cd1c0eea99536d08e0",
      "networkId": 0,
      "chainId": 0
    },
    {
      "hash": "0xc918433bc73fa855bf0f3a1c68dd7114426a3ba45aff0cfa127c612257724d9d",
      "blockHash": "0xa82597005aa5b9f3f1b96505c95b185a3351fe842c60cc9e288b434a41e8cb10",
      "blockNumber": 84286,
      "transactionIndex": 18,
      "confirmations": null,
      "from": "0xe6A7a1d47ff21B6321162AEA7C6CB457D5476Bca",
      "gasPrice": {
        "_hex": "0xddcbeae84"
      },
      "gasLimit": {
        "_hex": "0x55f0"
      },
      "to": "0x03bbfbb9d362b4B1C6a113BE654A0190Fc6aEa80",
      "value": {
        "_hex": "0xd953869f8f3fe188"
      },
      "nonce": 1814,
      "data": "0x",
      "r": "0x0df5185060c977ac901d9bfa53e2c40c42b82ab7dbddac835d94cfc8b81c6389",
      "s": "0x5a36726e2ba45100ea3353bbedc1a2f04397f00f92e455a245cdb4a0ba56fd58",
      "v": 28,
      "creates": null,
      "raw": "0xf86e820716850ddcbeae848255f09403bbfbb9d362b4b1c6a113be654a0190fc6aea8088d953869f8f3fe188801ca00df5185060c977ac901d9bfa53e2c40c42b82ab7dbddac835d94cfc8b81c6389a05a36726e2ba45100ea3353bbedc1a2f04397f00f92e455a245cdb4a0ba56fd58",
      "networkId": 0,
      "chainId": 0
    },
    {
      "hash": "0x47ba4aec4728566ec51a7d94372ef52df8096daadddbaee42238756be28322df",
      "blockHash": "0xa82597005aa5b9f3f1b96505c95b185a3351fe842c60cc9e288b434a41e8cb10",
      "blockNumber": 84286,
      "transactionIndex": 19,
      "confirmations": null,
      "from": "0xe6A7a1d47ff21B6321162AEA7C6CB457D5476Bca",
      "gasPrice": {
        "_hex": "0xddcbeae84"
      },
      "gasLimit": {
        "_hex": "0x55f0"
      },
      "to": "0xB415e74b9b5B2058EF3541265aaF7ce09C4953bc",
      "value": {
        "_hex": "0xdd3e781b625ec678"
      },
      "nonce": 1815,
      "data": "0x",
      "r": "0xe85235a3665631cc118b8e9faab8186b3b51d83eb4b1d6577c84b4b758dc602d",
      "s": "0x669438acde7b2e61617739a09b1224e90f329a36d2e7f9d89201abadf1c606ec",
      "v": 28,
      "creates": null,
      "raw": "0xf86e820717850ddcbeae848255f094b415e74b9b5b2058ef3541265aaf7ce09c4953bc88dd3e781b625ec678801ca0e85235a3665631cc118b8e9faab8186b3b51d83eb4b1d6577c84b4b758dc602da0669438acde7b2e61617739a09b1224e90f329a36d2e7f9d89201abadf1c606ec",
      "networkId": 0,
      "chainId": 0
    },
    {
      "hash": "0xf0203ebed17797d75546ca71432c323e38b28ae64315736e728c7f763d7276b1",
      "blockHash": "0xa82597005aa5b9f3f1b96505c95b185a3351fe842c60cc9e288b434a41e8cb10",
      "blockNumber": 84286,
      "transactionIndex": 20,
      "confirmations": null,
      "from": "0x99181ED48C7c51532622dA23e20E2B38392476A7",
      "gasPrice": {
        "_hex": "0xda2c8cc73"
      },
      "gasLimit": {
        "_hex": "0x5208"
      },
      "to": "0x32Be343B94f860124dC4fEe278FDCBD38C102D88",
      "value": {
        "_hex": "0x331b99b1fab5ec00"
      },
      "nonce": 2,
      "data": "0x",
      "r": "0x6dba2947ad223c68bee51533a84fb0ea42bb02feec2ff8b50bec8d98a6637c21",
      "s": "0x0728bea7e855549a5c976e8f1adab4ac68c7937cd9bb34615169a962e52de754",
      "v": 28,
      "creates": null,
      "raw": "0xf86c02850da2c8cc738252089432be343b94f860124dc4fee278fdcbd38c102d8888331b99b1fab5ec00801ca06dba2947ad223c68bee51533a84fb0ea42bb02feec2ff8b50bec8d98a6637c21a00728bea7e855549a5c976e8f1adab4ac68c7937cd9bb34615169a962e52de754",
      "networkId": 0,
      "chainId": 0
    },
    {
      "hash": "0xc6e3155c6a8fd46253e7a6db548dee0e1fffe77a0f1f2d764d0c98abdc2f8384",
      "blockHash": "0xa82597005aa5b9f3f1b96505c95b185a3351fe842c60cc9e288b434a41e8cb10",
      "blockNumber": 84286,
      "transactionIndex": 21,
      "confirmations": null,
      "from": "0xC15233674F0Cb7729e4Ab8aB733430C40580914d",
      "gasPrice": {
        "_hex": "0xda2c8cc73"
      },
      "gasLimit": {
        "_hex": "0x5208"
      },
      "to": "0x32Be343B94f860124dC4fEe278FDCBD38C102D88",
      "value": {
        "_hex": "0x33669b649d7c1000"
      },
      "nonce": 3,
      "data": "0x",
      "r": "0xd3e37c3897869bef52818c53ea654baf3c7cd343bd57643989bc0430cde2d975",
      "s": "0x1427cb6122794ecac5b27b979855f6bea3dd54cbb94e2e46e6280de2ee623a40",
      "v": 27,
      "creates": null,
      "raw": "0xf86c03850da2c8cc738252089432be343b94f860124dc4fee278fdcbd38c102d888833669b649d7c1000801ba0d3e37c3897869bef52818c53ea654baf3c7cd343bd57643989bc0430cde2d975a01427cb6122794ecac5b27b979855f6bea3dd54cbb94e2e46e6280de2ee623a40",
      "networkId": 0,
      "chainId": 0
    },
    {
      "hash": "0xce18ab16cb39d38123d85df06d1c8e6454b68ce37fb7b8dc9f18a2d6305256c1",
      "blockHash": "0xa82597005aa5b9f3f1b96505c95b185a3351fe842c60cc9e288b434a41e8cb10",
      "blockNumber": 84286,
      "transactionIndex": 22,
      "confirmations": null,
      "from": "0x46e97208BC7F618816Cb502A2b516fb4BC41f1D3",
      "gasPrice": {
        "_hex": "0xda2c8cc73"
      },
      "gasLimit": {
        "_hex": "0x5208"
      },
      "to": "0x32Be343B94f860124dC4fEe278FDCBD38C102D88",
      "value": {
        "_hex": "0x43005b1388df1800"
      },
      "nonce": 3,
      "data": "0x",
      "r": "0x63382de0f2308f559a0d35f373e72ddbe3cda937ffa784a7690e1d14189bf264",
      "s": "0x1b761df5ac911631ba036d916c9c037aae03edd3d1450a86005f1bf87089a2bb",
      "v": 28,
      "creates": null,
      "raw": "0xf86c03850da2c8cc738252089432be343b94f860124dc4fee278fdcbd38c102d888843005b1388df1800801ca063382de0f2308f559a0d35f373e72ddbe3cda937ffa784a7690e1d14189bf264a01b761df5ac911631ba036d916c9c037aae03edd3d1450a86005f1bf87089a2bb",
      "networkId": 0,
      "chainId": 0
    },
    {
      "hash": "0xf1ce0fecb7a749daf912358e6b8d3eb101df91b08e82cd245b49577d94119539",
      "blockHash": "0xa82597005aa5b9f3f1b96505c95b185a3351fe842c60cc9e288b434a41e8cb10",
      "blockNumber": 84286,
      "transactionIndex": 23,
      "confirmations": null,
      "from": "0x6589D22b54648e5D67Dc008eBd0c836D3DF39c87",
      "gasPrice": {
        "_hex": "0xda2c8cc73"
      },
      "gasLimit": {
        "_hex": "0x5208"
      },
      "to": "0x32Be343B94f860124dC4fEe278FDCBD38C102D88",
      "value": {
        "_hex": "0x4ceb9f99f512f400"
      },
      "nonce": 3,
      "data": "0x",
      "r": "0xe0155dbb610f3d211e40bfe1e3c99414828e667765efd87da4dcad29df3aaaf0",
      "s": "0x213f79393faa945de4b483a9d9a752a81cb4dcfc703e783073595f8478453815",
      "v": 27,
      "creates": null,
      "raw": "0xf86c03850da2c8cc738252089432be343b94f860124dc4fee278fdcbd38c102d88884ceb9f99f512f400801ba0e0155dbb610f3d211e40bfe1e3c99414828e667765efd87da4dcad29df3aaaf0a0213f79393faa945de4b483a9d9a752a81cb4dcfc703e783073595f8478453815",
      "networkId": 0,
      "chainId": 0
    },
    {
      "hash": "0xc9c7ac45d648005d2184676648d198a42f93c5a815427a161da3c2d03b87723e",
      "blockHash": "0xa82597005aa5b9f3f1b96505c95b185a3351fe842c60cc9e288b434a41e8cb10",
      "blockNumber": 84286,
      "transactionIndex": 24,
      "confirmations": null,
      "from": "0x842aC76913Df36aFcbdfE5fA4872759ed84210Bf",
      "gasPrice": {
        "_hex": "0xda2c8cc73"
      },
      "gasLimit": {
        "_hex": "0x5208"
      },
      "to": "0x32Be343B94f860124dC4fEe278FDCBD38C102D88",
      "value": {
        "_hex": "0x37258527490ae400"
      },
      "nonce": 3,
      "data": "0x",
      "r": "0x4c52093678f03b7b2192d5d8aedf6488a302b7336b88586d6a47264fc32d08d8",
      "s": "0x4c6daf387293dd43dd0aadd249ad487fc950f25926dc61d1e732ae6924388f9e",
      "v": 27,
      "creates": null,
      "raw": "0xf86c03850da2c8cc738252089432be343b94f860124dc4fee278fdcbd38c102d888837258527490ae400801ba04c52093678f03b7b2192d5d8aedf6488a302b7336b88586d6a47264fc32d08d8a04c6daf387293dd43dd0aadd249ad487fc950f25926dc61d1e732ae6924388f9e",
      "networkId": 0,
      "chainId": 0
    },
    {
      "hash": "0x361d67355366d267099896e99482fb735be56b01310cb4a7f8d5b9637c72bbf3",
      "blockHash": "0xa82597005aa5b9f3f1b96505c95b185a3351fe842c60cc9e288b434a41e8cb10",
      "blockNumber": 84286,
      "transactionIndex": 25,
      "confirmations": null,
      "from": "0xa114c802ef29776f05f9c6925cE915232e8ae102",
      "gasPrice": {
        "_hex": "0xda2c8cc73"
      },
      "gasLimit": {
        "_hex": "0x5208"
      },
      "to": "0x32Be343B94f860124dC4fEe278FDCBD38C102D88",
      "value": {
        "_hex": "0x51454d03fd977400"
      },
      "nonce": 17,
      "data": "0x",
      "r": "0xb49c28767e71a319f17031152963674b6958a07f65822b3126eda4d3d5f8cfff",
      "s": "0x4098d1b065529999817670e4f3b1494bc5548cedb60d1656d33f45bd2a714e73",
      "v": 28,
      "creates": null,
      "raw": "0xf86c11850da2c8cc738252089432be343b94f860124dc4fee278fdcbd38c102d888851454d03fd977400801ca0b49c28767e71a319f17031152963674b6958a07f65822b3126eda4d3d5f8cfffa04098d1b065529999817670e4f3b1494bc5548cedb60d1656d33f45bd2a714e73",
      "networkId": 0,
      "chainId": 0
    },
    {
      "hash": "0x8a0bbc5d44d444f14dcc1704ccd19b87d791b38462c0c0dc541fd21d981c28d0",
      "blockHash": "0xa82597005aa5b9f3f1b96505c95b185a3351fe842c60cc9e288b434a41e8cb10",
      "blockNumber": 84286,
      "transactionIndex": 26,
      "confirmations": null,
      "from": "0x19aF4b2766b8115B49E1fd31Ae71CaA12E706A96",
      "gasPrice": {
        "_hex": "0xda2c8cc73"
      },
      "gasLimit": {
        "_hex": "0x5208"
      },
      "to": "0x32Be343B94f860124dC4fEe278FDCBD38C102D88",
      "value": {
        "_hex": "0x4d20459380e21000"
      },
      "nonce": 3,
      "data": "0x",
      "r": "0xd7908e860a9f4fb660803f25ea4aadbc1f227f6a9471c3d134ccd163d5562aad",
      "s": "0x0d991e67bec89666c99780c100ec60c27e66aa246537650a7d21ad8ac5937b69",
      "v": 28,
      "creates": null,
      "raw": "0xf86c03850da2c8cc738252089432be343b94f860124dc4fee278fdcbd38c102d88884d20459380e21000801ca0d7908e860a9f4fb660803f25ea4aadbc1f227f6a9471c3d134ccd163d5562aada00d991e67bec89666c99780c100ec60c27e66aa246537650a7d21ad8ac5937b69",
      "networkId": 0,
      "chainId": 0
    },
    {
      "hash": "0x93fa4e321607db9029a2b425f134621c375869a207cf45bc00e1caec033c1322",
      "blockHash": "0xa82597005aa5b9f3f1b96505c95b185a3351fe842c60cc9e288b434a41e8cb10",
      "blockNumber": 84286,
      "transactionIndex": 27,
      "confirmations": null,
      "from": "0x0A319A7e0C887F104359e1eEe6717BD8f232d3Da",
      "gasPrice": {
        "_hex": "0xda2c8cc73"
      },
      "gasLimit": {
        "_hex": "0x5208"
      },
      "to": "0x32Be343B94f860124dC4fEe278FDCBD38C102D88",
      "value": {
        "_hex": "0x43dfd5f2ffea6000"
      },
      "nonce": 10,
      "data": "0x",
      "r": "0x2b62f9e74a571fee8e0dae6061ccc0bcf0a9f2e6c9633b140dacfa517f2bb419",
      "s": "0x4d02e669db5b6ba8202a33e0cd0addd204fc017683a0261a76712d17096ece99",
      "v": 27,
      "creates": null,
      "raw": "0xf86c0a850da2c8cc738252089432be343b94f860124dc4fee278fdcbd38c102d888843dfd5f2ffea6000801ba02b62f9e74a571fee8e0dae6061ccc0bcf0a9f2e6c9633b140dacfa517f2bb419a04d02e669db5b6ba8202a33e0cd0addd204fc017683a0261a76712d17096ece99",
      "networkId": 0,
      "chainId": 0
    },
    {
      "hash": "0xa7d2603d6c555b0f6d9676762213e9ef04e5e2f1212710d424114921f477d807",
      "blockHash": "0xa82597005aa5b9f3f1b96505c95b185a3351fe842c60cc9e288b434a41e8cb10",
      "blockNumber": 84286,
      "transactionIndex": 28,
      "confirmations": null,
      "from": "0xad74C8133300eB63De8d69A384B1E8CcFe28DED7",
      "gasPrice": {
        "_hex": "0xda2c8cc73"
      },
      "gasLimit": {
        "_hex": "0x5208"
      },
      "to": "0x32Be343B94f860124dC4fEe278FDCBD38C102D88",
      "value": {
        "_hex": "0x33713ef996c68400"
      },
      "nonce": 3,
      "data": "0x",
      "r": "0xfa1c00332d60f126085290de36d74f47435270846e9cb1f1e6b4279e76d1108a",
      "s": "0x46847f950cbb4fbb427fd3f835a6a70c4cef4068a9dd97ad470db4e63e62ae66",
      "v": 28,
      "creates": null,
      "raw": "0xf86c03850da2c8cc738252089432be343b94f860124dc4fee278fdcbd38c102d888833713ef996c68400801ca0fa1c00332d60f126085290de36d74f47435270846e9cb1f1e6b4279e76d1108aa046847f950cbb4fbb427fd3f835a6a70c4cef4068a9dd97ad470db4e63e62ae66",
      "networkId": 0,
      "chainId": 0
    },
    {
      "hash": "0xc17643f85d2f91f33c1103ca3187ec41b9ec23f11c1dd606d0d3a4c78360fa81",
      "blockHash": "0xa82597005aa5b9f3f1b96505c95b185a3351fe842c60cc9e288b434a41e8cb10",
      "blockNumber": 84286,
      "transactionIndex": 29,
      "confirmations": null,
      "from": "0x2118baa5B9d6423676CF5502Eb6eaeD859228c33",
      "gasPrice": {
        "_hex": "0xda2c8cc73"
      },
      "gasLimit": {
        "_hex": "0x5208"
      },
      "to": "0x32Be343B94f860124dC4fEe278FDCBD38C102D88",
      "value": {
        "_hex": "0x45173dd570225800"
      },
      "nonce": 3,
      "data": "0x",
      "r": "0x1c29329a3063077e89f44308a332116b86b7016e4b95f95985a232c366ddf9f1",
      "s": "0x1482d904871abeed464889bdc5de3be16ada382250ca2a5d76c9c0774ff3c478",
      "v": 27,
      "creates": null,
      "raw": "0xf86c03850da2c8cc738252089432be343b94f860124dc4fee278fdcbd38c102d888845173dd570225800801ba01c29329a3063077e89f44308a332116b86b7016e4b95f95985a232c366ddf9f1a01482d904871abeed464889bdc5de3be16ada382250ca2a5d76c9c0774ff3c478",
      "networkId": 0,
      "chainId": 0
    },
    {
      "hash": "0x7ef2ca4dd533bad0e6d11e811f7f79a11a33fc12a0e0a5d998855f4a6551c4f0",
      "blockHash": "0xa82597005aa5b9f3f1b96505c95b185a3351fe842c60cc9e288b434a41e8cb10",
      "blockNumber": 84286,
      "transactionIndex": 30,
      "confirmations": null,
      "from": "0xC8E18619E6F0976FC389a37cba21bc6d080284ee",
      "gasPrice": {
        "_hex": "0xda2c8cc73"
      },
      "gasLimit": {
        "_hex": "0x5208"
      },
      "to": "0x32Be343B94f860124dC4fEe278FDCBD38C102D88",
      "value": {
        "_hex": "0x245c3cea3f039800"
      },
      "nonce": 2,
      "data": "0x",
      "r": "0x85d6e93466dff064d2493c6c82d3f13d62e18265feede1ac4b33409da1f7c920",
      "s": "0x13b2dce0cb3873e38020fd95370eb8a71022066f2546e6c5abecbe38797c28c2",
      "v": 28,
      "creates": null,
      "raw": "0xf86c02850da2c8cc738252089432be343b94f860124dc4fee278fdcbd38c102d8888245c3cea3f039800801ca085d6e93466dff064d2493c6c82d3f13d62e18265feede1ac4b33409da1f7c920a013b2dce0cb3873e38020fd95370eb8a71022066f2546e6c5abecbe38797c28c2",
      "networkId": 0,
      "chainId": 0
    },
    {
      "hash": "0xef656dc4ea2ef83306c7f36eeede4d35b08097f43624483794121a1eaa0569cc",
      "blockHash": "0xa82597005aa5b9f3f1b96505c95b185a3351fe842c60cc9e288b434a41e8cb10",
      "blockNumber": 84286,
      "transactionIndex": 31,
      "confirmations": null,
      "from": "0x610821723ac6726cBCec2037C83743dfbDADa663",
      "gasPrice": {
        "_hex": "0xd179af580"
      },
      "gasLimit": {
        "_hex": "0x15f90"
      },
      "to": "0xda4018EC8389397D5137De84129c185b705Cfc5C",
      "value": {
        "_hex": "0x29a2241af62c0000"
      },
      "nonce": 0,
      "data": "0x",
      "r": "0x13d26b7bddc50c717309983547d7d69ed401e2c0aa582cfe38fd166bfaf437b4",
      "s": "0x0bac89b1f89a7997313545155af87242a20d44a21286f89be6ff03207c7d09a1",
      "v": 27,
      "creates": null,
      "raw": "0xf86d80850d179af58083015f9094da4018ec8389397d5137de84129c185b705cfc5c8829a2241af62c0000801ba013d26b7bddc50c717309983547d7d69ed401e2c0aa582cfe38fd166bfaf437b4a00bac89b1f89a7997313545155af87242a20d44a21286f89be6ff03207c7d09a1",
      "networkId": 0,
      "chainId": 0
    }
  ]
}