{
  "hash": "0x2f0195662278d0c77a649b9bedcd8d653938c9f4145866f3bff10ddf00d16097",
  "parentHash": "0x51866189f80d6e857715bfa154756deb8a2364ea946bf31cb4e1baa0a1cd7650",
  "number": 112936,
  "timestamp": 1440015554,
  "nonce": "0xebde9db8ba0e0425",
  "difficulty": 4454030639043,
  "gasLimit": {
    "_hex": "0x2fefd8"
  },
  "gasUsed": {
    "_hex": "0xa410"
  },
  "miner": "0xf927a40C8B7F6E07c5af7FA2155B4864a4112B13",
  "extraData": "0x",
  "transactions": [
    {
      "hash": "0x7add6cca2cbe0b673658c73f1353c61a1046c4e9315eb898f72ace173bf29c70",
      "blockHash": "0x2f0195662278d0c77a649b9bedcd8d653938c9f4145866f3bff10ddf00d16097",
      "blockNumber": 112936,
      "transactionIndex": 0,
      "confirmations": null,
      "from": "0xa70a9a7040d542C632D8e0bE7c5513A8a5Bbc752",
      "gasPrice": {
        "_hex": "0xce6a8eacd"
      },
      "gasLimit": {
        "_hex": "0x5208"
      },
      "to": "0x32Be343B94f860124dC4fEe278FDCBD38C102D88",
      "value": {
        "_hex": "0x455f6f38884ae000"
      },
      "nonce": 298,
      "data": "0x",
      "r": "0xff03ee185360114e76d3a2b5222cbeb35bbaf5555f609219b7e36160b023b9e0",
      "s": "0x0fed1b5bb2efae9a04dd5ef548c7c2cb6a042e6881975025cb9a62e6213cd4fa",
      "v": 27,
      "creates": null,
      "raw": "0xf86e82012a850ce6a8eacd8252089432be343b94f860124dc4fee278fdcbd38c102d8888455f6f38884ae000801ba0ff03ee185360114e76d3a2b5222cbeb35bbaf5555f609219b7e36160b023b9e0a00fed1b5bb2efae9a04dd5ef548c7c2cb6a042e6881975025cb9a62e6213cd4fa",
      "networkId": 0,
      "chainId": 0
    },
    {
      "hash": "0x406bfac09e73cd35d0cd3dd1d40bedc196380cf1721b198711020ff49917232c",
      "blockHash": "0x2f0195662278d0c77a649b9bedcd8d653938c9f4145866f3bff10ddf00d16097",
      "blockNumber": 112936,
      "transactionIndex": 1,
      "confirmations": null,
      "from": "0xAF17A4ab5d6B10055Fc1eB1BFaCcbDe69B83aF76",
      "gasPrice": {
        "_hex": "0xce6a8eacd"
      },
      "gasLimit": {
        "_hex": "0x5208"
      },
      "to": "0x32Be343B94f860124dC4fEe278FDCBD38C102D88",
      "value": {
        "_hex": "0x21d37b314c392e000"
      },
      "nonce": 6,
      "data": "0x",
      "r": "0x435bdf0c8ca222d8b599162940fc2e8e57d74419401b8a6ca304542c4f3b0770",
      "s": "0x3ce71cb1dcc432f6a8fe16f2201275ddc368150f6c3cd44d9ca6c92ea3debcdd",
      "v": 27,
      "creates": null,
      "raw": "0xf86d06850ce6a8eacd8252089432be343b94f860124dc4fee278fdcbd38c102d8889021d37b314c392e000801ba0435bdf0c8ca222d8b599162940fc2e8e57d74419401b8a6ca304542c4f3b0770a03ce71cb1dcc432f6a8fe16f2201275ddc368150f6c3cd44d9ca6c92ea3debcdd",
      "networkId": 0,
      "chainId": 0
    }
  ]
}