{
  "hash": "0x1199eec37ab4c5356db2596b56247258258ce538ffb61c9d1651eea79f202c11",
  "parentHash": "0x4bf4a55f171984c6667c658ba14e2aee83179675badf848d7c8057f76320d4c4",
  "number": 70987,
  "timestamp": 1439328692,
  "nonce": "0xc957ca3a8448ac77",
  "difficulty": 2157240011931,
  "gasLimit": {
    "_hex": "0x2fefd8"
  },
  "gasUsed": {
    "_hex": "0x1dbd2"
  },
  "miner": "0x9746c7e1ef2bd21FF3997fa467593a89cb852BD0",
  "extraData": "0x476574682f76312e302e312f77696e646f77732f676f312e342e32",
  "transactions": [
    {
      "hash": "0x8a7cc0fa588789c737e58e54a21e782ad6cd78aab007c4ad80bd3f1db51a67e5",
      "blockHash": "0x1199eec37ab4c5356db2596b56247258258ce538ffb61c9d1651eea79f202c11",
      "blockNumber": 70987,
      "transactionIndex": 0,
      "confirmations": null,
      "from": "0x597f19B04CEf3204943aB6D8CFd4f4457451222D",
      "gasPrice": {
        "_hex": "0xd9f428ea8"
      },
      "gasLimit": {
        "_hex": "0x5208"
      },
      "to": "0x32Be343B94f860124dC4fEe278FDCBD38C102D88",
      "value": {
        "_hex": "0x107a931e461aa4000"
      },
      "nonce": 0,
      "data": "0x",
      "r": "0x880e82ad47a8f1463084c8902ed94fe0c31c1b2147dccb26e0528edf55d7de63",
      "s": "0x561c8c7921b36aab8146bdd90c8cfb62b30e316424392a477c80ff6bd5250a04",
      "v": 27,
      "creates": null,
      "raw": "0xf86d80850d9f428ea88252089432be343b94f860124dc4fee278fdcbd38c102d88890107a931e461aa4000801ba0880e82ad47a8f1463084c8902ed94fe0c31c1b2147dccb26e0528edf55d7de63a0561c8c7921b36aab8146bdd90c8cfb62b30e316424392a477c80ff6bd5250a04",
      "networkId": 0,
      "chainId": 0
    },
    {
      "hash": "0xba04ffdccf9a84e1030c4e1952767960ec8384b5dceeeb9be08f3f82b485ae94",
      "blockHash": "0x1199eec37ab4c5356db2596b56247258258ce538ffb61c9d1651eea79f202c11",
      "blockNumber": 70987,
      "transactionIndex": 1,
      "confirmations": null,
      "from": "0x3FEFA8C1e27b90BD417C1E60C15a4C0cFf6f2562",
      "gasPrice": {
        "_hex": "0xd7afe1385"
      },
      "gasLimit": {
        "_hex": "0x5208"
      },
      "to": "0x32Be343B94f860124dC4fEe278FDCBD38C102D88",
      "value": {
        "_hex": "0xe2367277c244000"
      },
      "nonce": 0,
      "data": "0x",
      "r": "0x7771ac4b092b9ec3f436e574c4b07723d830a88956b2f4f51165225877c1af9f",
      "s": "0x469b84529e8f45f9744dd46b9e6a0fc048564016e477fa75a41ed35b7c365a80",
      "v": 28,
      "creates": null,
      "raw": "0xf86c80850d7afe13858252089432be343b94f860124dc4fee278fdcbd38c102d88880e2367277c244000801ca07771ac4b092b9ec3f436e574c4b07723d830a88956b2f4f51165225877c1af9fa0469b84529e8f45f9744dd46b9e6a0fc048564016e477fa75a41ed35b7c365a80",
      "networkId": 0,
      "chainId": 0
    },
    {
      "hash": "0xb9e73dbdde1d01b7aea029eb4d89ae3abf317c9f0d6a1b97ddbba6ae7b37d004",
      "blockHash": "0x1199eec37ab4c5356db2596b56247258258ce538ffb61c9d1651eea79f202c11",
      "blockNumber": 70987,
      "transactionIndex": 2,
      "confirmations": null,
      "from": "0x42098C814e1a9a72F466bd0CF1bf3B33249d7668",
      "gasPrice": {
        "_hex": "0xd58583283"
      },
      "gasLimit": {
        "_hex": "0x5208"
      },
      "to": "0x32Be343B94f860124dC4fEe278FDCBD38C102D88",
      "value": {
        "_hex": "0x56bc30c5bebaa8000"
      },
      "nonce": 0,
      "data": "0x",
      "r": "0xcee76276dbe9d2c352c0c581b33f92aa7fb3a3038ea79c8a131a8a1cc71c79d7",
      "s": "0x48be7657f949d3eb0f5213f1d20a488b8e020625561921b84936e5067d30c477",
      "v": 28,
      "creates": null,
      "raw": "0xf86d80850d585832838252089432be343b94f860124dc4fee278fdcbd38c102d8889056bc30c5bebaa8000801ca0cee76276dbe9d2c352c0c581b33f92aa7fb3a3038ea79c8a131a8a1cc71c79d7a048be7657f949d3eb0f5213f1d20a488b8e020625561921b84936e5067d30c477",
      "networkId": 0,
      "chainId": 0
    },
    {
      "hash": "0x914520477adc57f5aeea47c224d43ed8d72c9d572ced39443a24b70de5d2ae50",
      "blockHash": "0x1199eec37ab4c5356db2596b56247258258ce538ffb61c9d1651eea79f202c11",
      "blockNumber": 70987,
      "transactionIndex": 3,
      "confirmations": null,
      "from": "0x8693E9B8bE94425EEf7969bc69f9D42F7CAD671e",
      "gasPrice": {
        "_hex": "0xd1f217cbf"
      },
      "gasLimit": {
        "_hex": "0x15f90"
      },
      "to": "0xb0DBD02650b659f9B8b02E77cf0481aA6b3Ff9f8",
      "value": {
        "_hex": "0x3636e1a1f4bbb3ac40"
      },
      "nonce": 1,
      "data": "0x",
      "r": "0x8dc234a40eefe393c08ce40c6f77fc6912345b943b1d1f1f94dd1fdf29348325",
      "s": "0x3e847292b33b25b32767d6d214614b79cb2c3bdb9099b643eacb0e759fdecf75",
      "v": 28,
      "creates": null,
      "raw": "0xf86e01850d1f217cbf83015f9094b0dbd02650b659f9b8b02e77cf0481aa6b3ff9f8893636e1a1f4bbb3ac40801ca08dc234a40eefe393c08ce40c6f77fc6912345b943b1d1f1f94dd1fdf29348325a03e847292b33b25b32767d6d214614b79cb2c3bdb9099b643eacb0e759fdecf75",
      "networkId": 0,
      "chainId": 0
    },
    {
      "hash": "0x280c96da3ffbece2c92a653a3e76262fc70d987e4a0aa610a2d3c6a6a57e94b7",
      "blockHash": "0x1199eec37ab4c5356db2596b56247258258ce538ffb61c9d1651eea79f202c11",
      "blockNumber": 70987,
      "transactionIndex": 4,
      "confirmations": null,
      "from": "0x17580B766f7453525ca4C6A88b01b50570EA088C",
      "gasPrice": {
        "_hex": "0xcc388b3dc"
      },
      "gasLimit": {
        "_hex": "0x61a80"
      },
      "to": "0x5Fe5B7546D1628f7348B023A0393de1FC825A4fD",
      "value": {
        "_hex": "0xde0b6b3a7640000"
      },
      "nonce": 73,
      "data": "0xb595b8b50000000000000000000000000000000000000000000000000000000000000000",
      "r": "0x1f59305a2012a1fd68a9b3b5e87b74ea94466f042a9ba59b11de108255c6e6c0",
      "s": "0x41f5165a8b6f8ac09c0678a8e55a3efdffc7b502cd959238933628e46befbae7",
      "v": 28,
      "creates": null,
      "raw": "0xf89149850cc388b3dc83061a80945fe5b7546d1628f7348b023a0393de1fc825a4fd880de0b6b3a7640000a4b595b8b500000000000000000000000000000000000000000000000000000000000000001ca01f59305a2012a1fd68a9b3b5e87b74ea94466f042a9ba59b11de108255c6e6c0a041f5165a8b6f8ac09c0678a8e55a3efdffc7b502cd959238933628e46befbae7",
      "networkId": 0,
      "chainId": 0
    }
  ]
}