{
  "hash": "0x809df35042b1c78c7f064f62a73d0f3f6b7747f4f650d812c915e9788bb4819b",
  "parentHash": "0x0e30c9d25bffff226a0065cfcb98b71dbc8121dc8319a931e2c011902feaffac",
  "number": 47143,
  "timestamp": 1438934884,
  "nonce": "0xa762e503b2cc790e",
  "difficulty": 1459534195222,
  "gasLimit": {
    "_hex": "0x9b9b"
  },
  "gasUsed": {
    "_hex": "0x5208"
  },
  "miner": "0x288E4356F12D0D3D0F8DF3506E457E7cFd5f4Ab0",
  "extraData": "0x44617669642044776f726b656e",
  "transactions": [
    {
      "hash": "0x299e40be0706b3fdc0d1082d79df63e7af9e9074c7496c9fd2dea16ebf4fd9ea",
      "blockHash": "0x809df35042b1c78c7f064f62a73d0f3f6b7747f4f650d812c915e9788bb4819b",
      "blockNumber": 47143,
      "transactionIndex": 0,
      "confirmations": null,
      "from": "0x5B3e850E39e6f2C7dD38707b649e2B3536F14C0b",
      "gasPrice": {
        "_hex": "0xdf8475800"
      },
      "gasLimit": {
        "_hex": "0x5208"
      },
      "to": "0xdCd8Aa0E6fD68B057C5AC5e362619808A175CE87",
      "value": {
        "_hex": "0xde0b6b3a7640000"
      },
      "nonce": 0,
      "data": "0x",
      "r": "0x1ce30aa0e16778be6548f89f0d7e6c730c1f78a14bda3e9ec3dbbd7bf427c7c7",
      "s": "0x451b490461060ddff0008abb2149bf345b645edd9f8e639e67e6637183b0c1d9",
      "v": 27,
      "creates": null,
      "raw": "0xf86c80850df847580082520894dcd8aa0e6fd68b057c5ac5e362619808a175ce87880de0b6b3a7640000801ba01ce30aa0e16778be6548f89f0d7e6c730c1f78a14bda3e9ec3dbbd7bf427c7c7a0451b490461060ddff0008abb2149bf345b645edd9f8e639e67e6637183b0c1d9",
      "networkId": 0,
      "chainId": 0
    }
  ]
}