{
  "hash": "0x87deb89ecfb4a6b71b643be764e723748d95141a8261878b37ea976c8884a3fd",
  "parentHash": "0x43890fd8600d3849c33a64747e13f322af16ffdcbfdce6ce9dc0b279a08c80e1",
  "number": 107539,
  "timestamp": 1439924135,
  "nonce": "0xee2fbb21c2958c46",
  "difficulty": 4428695909660,
  "gasLimit": {
    "_hex": "0x2fefd8"
  },
  "gasUsed": {
    "_hex": "0x5208"
  },
  "miner": "0xEF247E639d49461D25F57e9362CadE3120910Ce0",
  "extraData": "0x476574682f76312e302e312f6c696e75782f676f312e342e32",
  "transactions": [
    {
      "hash": "0xb8c7ee22377674d0f54542d125d0df19512fdb3d24f7b04e1115d958aa92a9f4",
      "blockHash": "0x87deb89ecfb4a6b71b643be764e723748d95141a8261878b37ea976c8884a3fd",
      "blockNumber": 107539,
      "transactionIndex": 0,
      "confirmations": null,
      "from": "0x32Be343B94f860124dC4fEe278FDCBD38C102D88",
      "gasPrice": {
        "_hex": "0xd0790926e"
      },
      "gasLimit": {
        "_hex": "0x5208"
      },
      "to": "0x8c0A6b62918D317e3B431EfB67E3fB5eff333b1c",
      "value": {
        "_hex": "0x56bc75e2d63100000"
      },
      "nonce": 1223,
      "data": "0x",
      "r": "0x0cc12de13316c29055d1c233bdf0f898a52be23aecef88131e633d5f9f3ce8bf",
      "s": "0x406d1a972a08a24dd2a635615629c02ac66e535702cee25f3debd5af0133971d",
      "v": 27,
      "creates": null,
      "raw": "0xf86f8204c7850d0790926e825208948c0a6b62918d317e3b431efb67e3fb5eff333b1c89056bc75e2d63100000801ba00cc12de13316c29055d1c233bdf0f898a52be23aecef88131e633d5f9f3ce8bfa0406d1a972a08a24dd2a635615629c02ac66e535702cee25f3debd5af0133971d",
      "networkId": 0,
      "chainId": 0
    }
  ]
}