{
  "hash": "0x2a3b88a7f4dce885a30bb8933c8e656870282d3a9846476f288078311e801875",
  "parentHash": "0x34f6fbe1dce3f981fc9611e47525bff32e563cabd011832783b389c2aedfb247",
  "number": 99973,
  "timestamp": 1439798668,
  "nonce": "0x4556321452a27996",
  "difficulty": 3843675095223,
  "gasLimit": {
    "_hex": "0x2fefd8"
  },
  "gasUsed": {
    "_hex": "0x94ae8"
  },
  "miner": "0xf32866D5cE9a9b5673e076be48AbCd6ED48ADe78",
  "extraData": "0x476574682f76312e302e312d37666266393930632f6c696e75782f676f312e34",
  "transactions": [
    {
      "hash": "0x4b2caca780e53af251c8bb9e33fb666b1e114667d44a2ede6a743cbfe36d384e",
      "blockHash": "0x2a3b88a7f4dce885a30bb8933c8e656870282d3a9846476f288078311e801875",
      "blockNumber": 99973,
      "transactionIndex": 0,
      "confirmations": null,
      "from": "0xe6A7a1d47ff21B6321162AEA7C6CB457D5476Bca",
      "gasPrice": {
        "_hex": "0xd6ae78cdd"
      },
      "gasLimit": {
        "_hex": "0x55f0"
      },
      "to": "0xe7523F78ae9eDb81dC7B2A9ca718Ba3776C14f2e",
      "value": {
        "_hex": "0x1426d3393acf1ae90"
      },
      "nonce": 3419,
      "data": "0x",
      "r": "0xb0edd7fe0e6bb0a44da783c4fd136e8bbd904e4f605667631552c1e5bf44124e",
      "s": "0x44b8a4a4ce5d3497d507156f4c7ebb237a404a76df80d0d106edb7a4fe20dbae",
      "v": 28,
      "creates": null,
      "raw": "0xf86f820d5b850d6ae78cdd8255f094e7523f78ae9edb81dc7b2a9ca718ba3776c14f2e8901426d3393acf1ae90801ca0b0edd7fe0e6bb0a44da783c4fd136e8bbd904e4f605667631552c1e5bf44124ea044b8a4a4ce5d3497d507156f4c7ebb237a404a76df80d0d106edb7a4fe20dbae",
      "networkId": 0,
      "chainId": 0
    },
    {
      "hash": "0xf37c8da9d39570f8c1be7c8ba2eb47ce2a9a1f45b8b09fdf962c77bd400156c8",
      "blockHash": "0x2a3b88a7f4dce885a30bb8933c8e656870282d3a9846476f288078311e801875",
      "blockNumber": 99973,
      "transactionIndex": 1,
      "confirmations": null,
      "from": "0xe6A7a1d47ff21B6321162AEA7C6CB457D5476Bca",
      "gasPrice": {
        "_hex": "0xd6ae78cdd"
      },
      "gasLimit": {
        "_hex": "0x55f0"
      },
      "to": "0x1332996a46dcBBE02f9cF164Dfc153aB976a9766",
      "value": {
        "_hex": "0x143278b9767cb6f38"
      },
      "nonce": 3420,
      "data": "0x",
      "r": "0x7a937097b486758706f2128f3fae6e8740c665b44791a2a2d6aadbcae11ae22f",
      "s": "0x144658e8d11c1825734c6e618756b2b629e510713f77e3589dbdd906aeda79f9",
      "v": 27,
      "creates": null,
      "raw": "0xf86f820d5c850d6ae78cdd8255f0941332996a46dcbbe02f9cf164dfc153ab976a9766890143278b9767cb6f38801ba07a937097b486758706f2128f3fae6e8740c665b44791a2a2d6aadbcae11ae22fa0144658e8d11c1825734c6e618756b2b629e510713f77e3589dbdd906aeda79f9",
      "networkId": 0,
      "chainId": 0
    },
    {
      "hash": "0xed4e353571eedab091dade96ebb4ca3fe18576800232b077cd0c1f60b7a30390",
      "blockHash": "0x2a3b88a7f4dce885a30bb8933c8e656870282d3a9846476f288078311e801875",
      "blockNumber": 99973,
      "transactionIndex": 2,
      "confirmations": null,
      "from": "0xe6A7a1d47ff21B6321162AEA7C6CB457D5476Bca",
      "gasPrice": {
        "_hex": "0xd6ae78cdd"
      },
      "gasLimit": {
        "_hex": "0x55f0"
      },
      "to": "0xe2F72eC9A4d57A125f9397267198Fbd81c86aB9A",
      "value": {
        "_hex": "0x143794b5522ae8a00"
      },
      "nonce": 3421,
      "data": "0x",
      "r": "0xc1a44b636f1a4d6f6aa65bd40300b867aa11555f617d0c9ffc111f1dfce63313",
      "s": "0x6f15b71afe82e78402c109bcdec4559f556d81a01da02d8089f8548c172edb94",
      "v": 28,
      "creates": null,
      "raw": "0xf86f820d5d850d6ae78cdd8255f094e2f72ec9a4d57a125f9397267198fbd81c86ab9a890143794b5522ae8a00801ca0c1a44b636f1a4d6f6aa65bd40300b867aa11555f617d0c9ffc111f1dfce63313a06f15b71afe82e78402c109bcdec4559f556d81a01da02d8089f8548c172edb94",
      "networkId": 0,
      "chainId": 0
    },
    {
      "hash": "0x4f06a0b54ebe813b5213bf90f1c169d15a50950afb3abd8a85b3b4e0717b0652",
      "blockHash": "0x2a3b88a7f4dce885a30bb8933c8e656870282d3a9846476f288078311e801875",
      "blockNumber": 99973,
      "transactionIndex": 3,
      "confirmations": null,
      "from": "0xe6A7a1d47ff21B6321162AEA7C6CB457D5476Bca",
      "gasPrice": {
        "_hex": "0xd6ae78cdd"
      },
      "gasLimit": {
        "_hex": "0x55f0"
      },
      "to": "0xF2C14aDd753869D4EEdfefdCdFBA341Abfa1D702",
      "value": {
        "_hex": "0x146cf517c4a5e6df0"
      },
      "nonce": 3422,
      "data": "0x",
      "r": "0x64f5d57f2de4a9756d65ad1b165002625b7c1baa6c4eb0c640410e59fb44bb6d",
      "s": "0x656e09e1d70f45e34f0532e977e232512b43f5166e7547775ddd050247b4ad9e",
      "v": 27,
      "creates": null,
      "raw": "0xf86f820d5e850d6ae78cdd8255f094f2c14add753869d4eedfefdcdfba341abfa1d702890146cf517c4a5e6df0801ba064f5d57f2de4a9756d65ad1b165002625b7c1baa6c4eb0c640410e59fb44bb6da0656e09e1d70f45e34f0532e977e232512b43f5166e7547775ddd050247b4ad9e",
      "networkId": 0,
      "chainId": 0
    },
    {
      "hash": "0xb507dcf90f88922096707cba1573a4c6f8d512431d0ef5b3b33d60d0d0e4070b",
      "blockHash": "0x2a3b88a7f4dce885a30bb8933c8e656870282d3a9846476f288078311e801875",
      "blockNumber": 99973,
      "transactionIndex": 4,
      "confirmations": null,
      "from": "0xe6A7a1d47ff21B6321162AEA7C6CB457D5476Bca",
      "gasPrice": {
        "_hex": "0xd6ae78cdd"
      },
      "gasLimit": {
        "_hex": "0x55f0"
      },
      "to": "0x6dC8a46AB80ED97E4073b96F78554A536E2e7152",
      "value": {
        "_hex": "0x15a364fce0d800fb8"
      },
      "nonce": 3423,
      "data": "0x",
      "r": "0x588b078f9db6123ad64a84a4593679cffd55dc22baff4f9778cdcf4dd3acaf65",
      "s": "0x4e191a5e84189f0ac68b92a2ae8c68f5756a6e16fed2b6885477f8317124f975",
      "v": 27,
      "creates": null,
      "raw": "0xf86f820d5f850d6ae78cdd8255f0946dc8a46ab80ed97e4073b96f78554a536e2e715289015a364fce0d800fb8801ba0588b078f9db6123ad64a84a4593679cffd55dc22baff4f9778cdcf4dd3acaf65a04e191a5e84189f0ac68b92a2ae8c68f5756a6e16fed2b6885477f8317124f975",
      "networkId": 0,
      "chainId": 0
    },
    {
      "hash": "0x113b650b028f37bf9d37474d4f8642a9111852cfa1bc1ca8be5de547576ebcf6",
      "blockHash": "0x2a3b88a7f4dce885a30bb8933c8e656870282d3a9846476f288078311e801875",
      "blockNumber": 99973,
      "transactionIndex": 5,
      "confirmations": null,
      "from": "0xe6A7a1d47ff21B6321162AEA7C6CB457D5476Bca",
      "gasPrice": {
        "_hex": "0xd6ae78cdd"
      },
      "gasLimit": {
        "_hex": "0x55f0"
      },
      "to": "0xf79785E5a846aCea08F94379fCCe79B1054bDB99",
      "value": {
        "_hex": "0x15bc3df74dca810f0"
      },
      "nonce": 3424,
      "data": "0x",
      "r": "0x28585a338bbc2cf54ea75833aad65273a98b8398419959c902fa3d77c7819b90",
      "s": "0x0ef5b148b792e6209889a5fec5517ffbc125dac5eb6fbb93364859b008e67077",
      "v": 28,
      "creates": null,
      "raw": "0xf86f820d60850d6ae78cdd8255f094f79785e5a846acea08f94379fcce79b1054bdb9989015bc3df74dca810f0801ca028585a338bbc2cf54ea75833aad65273a98b8398419959c902fa3d77c7819b90a00ef5b148b792e6209889a5fec5517ffbc125dac5eb6fbb93364859b008e67077",
      "networkId": 0,
      "chainId": 0
    },
    {
      "hash": "0xc96864168937d6f96e1ee10804eb23a39a06fe5ab261f84a14142bf9c3a836d6",
      "blockHash": "0x2a3b88a7f4dce885a30bb8933c8e656870282d3a9846476f288078311e801875",
      "blockNumber": 99973,
      "transactionIndex": 6,
      "confirmations": null,
      "from": "0xe6A7a1d47ff21B6321162AEA7C6CB457D5476Bca",
      "gasPrice": {
        "_hex": "0xd6ae78cdd"
      },
      "gasLimit": {
        "_hex": "0x55f0"
      },
      "to": "0x94b20d3d932AA82aD71b86b904A3D769689351b4",
      "value": {
        "_hex": "0x15e9d234d74d1ff60"
      },
      "nonce": 3425,
      "data": "0x",
      "r": "0x070fe64d69b8b60f489bcc0c44cc32c3185ca28c8588631df78e3dffaf3b3a00",
      "s": "0x28b2a1f9a7a8eec00578d6c761147554d68aa3787e29e5ee189041599984e7b9",
      "v": 28,
      "creates": null,
      "raw": "0xf86f820d61850d6ae78cdd8255f09494b20d3d932aa82ad71b86b904a3d769689351b489015e9d234d74d1ff60801ca0070fe64d69b8b60f489bcc0c44cc32c3185ca28c8588631df78e3dffaf3b3a00a028b2a1f9a7a8eec00578d6c761147554d68aa3787e29e5ee189041599984e7b9",
      "networkId": 0,
      "chainId": 0
    },
    {
      "hash": "0xd49807fb0a03aaa3191b6811ca5f2a503e1897e02fe5cf2d8d716a3322fbb9d3",
      "blockHash": "0x2a3b88a7f4dce885a30bb8933c8e656870282d3a9846476f288078311e801875",
      "blockNumber": 99973,
      "transactionIndex": 7,
      "confirmations": null,
      "from": "0xe6A7a1d47ff21B6321162AEA7C6CB457D5476Bca",
      "gasPrice": {
        "_hex": "0xd6ae78cdd"
      },
      "gasLimit": {
        "_hex": "0x55f0"
      },
      "to": "0x271e8fC01E1C9E1621fD3d108e348450b2498541",
      "value": {
        "_hex": "0x15ed381af4435cef8"
      },
      "nonce": 3426,
      "data": "0x",
      "r": "0x59af4be7eb3f1350086d6fe90ae10518d31acbe1dfc6713df0bfbac105e99011",
      "s": "0x77270e8553dc4920f4281512a1ba270ac69223265157c58e042f6ba70b7c2ba7",
      "v": 28,
      "creates": null,
      "raw": "0xf86f820d62850d6ae78cdd8255f094271e8fc01e1c9e1621fd3d108e348450b249854189015ed381af4435cef8801ca059af4be7eb3f1350086d6fe90ae10518d31acbe1dfc6713df0bfbac105e99011a077270e8553dc4920f4281512a1ba270ac69223265157c58e042f6ba70b7c2ba7",
      "networkId": 0,
      "chainId": 0
    },
    {
      "hash": "0xc4e9926539b859dbd0c2c129a7ae5345ddc785e2357c9155736f5c147aed6a4a",
      "blockHash": "0x2a3b88a7f4dce885a30bb8933c8e656870282d3a9846476f288078311e801875",
      "blockNumber": 99973,
      "transactionIndex": 8,
      "confirmations": null,
      "from": "0xe6A7a1d47ff21B6321162AEA7C6CB457D5476Bca",
      "gasPrice": {
        "_hex": "0xd6ae78cdd"
      },
      "gasLimit": {
        "_hex": "0x55f0"
      },
      "to": "0x233b4fC39b20bb5eCf29882D7F068544BCc5eB78",
      "value": {
        "_hex": "0x161432fe180d001b0"
      },
      "nonce": 3427,
      "data": "0x",
      "r": "0xd3a55f5856ec50d535122a11bfb2d072c00d780d0bee852f91b0bbc1c892af3b",
      "s": "0x1abd334db0419ca6aab742c1e45bc5e24bdf95d9646cfd547df81cc24e9f6ed0",
      "v": 27,
      "creates": null,
      "raw": "0xf86f820d63850d6ae78cdd8255f094233b4fc39b20bb5ecf29882d7f068544bcc5eb78890161432fe180d001b0801ba0d3a55f5856ec50d535122a11bfb2d072c00d780d0bee852f91b0bbc1c892af3ba01abd334db0419ca6aab742c1e45bc5e24bdf95d9646cfd547df81cc24e9f6ed0",
      "networkId": 0,
      "chainId": 0
    },
    {
      "hash": "0x7eabbcf3bc8d0eeeac7d8cdfdbd5e7519b4e5722912263dea1ba207e56f435d8",
      "blockHash": "0x2a3b88a7f4dce885a30bb8933c8e656870282d3a9846476f288078311e801875",
      "blockNumber": 99973,
      "transactionIndex": 9,
      "confirmations": null,
      "from": "0xe6A7a1d47ff21B6321162AEA7C6CB457D5476Bca",
      "gasPrice": {
        "_hex": "0xd4b0750fb"
      },
      "gasLimit": {
        "_hex": "0x55f0"
      },
      "to": "0x1CaC89419da71AC175A5B99CEE0163720430990c",
      "value": {
        "_hex": "0x175fe16874e8181c8"
      },
      "nonce": 3428,
      "data": "0x",
      "r": "0x2df39876c0de28b2fe599ce2e913bf6eab25e830059eda22625035707938706a",
      "s": "0x775bcd5a0b8d5849eeb0caea02e95b9341f050478868b05c447defdca838a8e4",
      "v": 27,
      "creates": null,
      "raw": "0xf86f820d64850d4b0750fb8255f0941cac89419da71ac175a5b99cee0163720430990c890175fe16874e8181c8801ba02df39876c0de28b2fe599ce2e913bf6eab25e830059eda22625035707938706aa0775bcd5a0b8d5849eeb0caea02e95b9341f050478868b05c447defdca838a8e4",
      "networkId": 0,
      "chainId": 0
    },
    {
      "hash": "0x0e3a098f954a9a1379accad6911dec27c0037cb9c3134afc5e1b7a717d9ffbf6",
      "blockHash": "0x2a3b88a7f4dce885a30bb8933c8e656870282d3a9846476f288078311e801875",
      "blockNumber": 99973,
      "transactionIndex": 10,
      "confirmations": null,
      "from": "0xe6A7a1d47ff21B6321162AEA7C6CB457D5476Bca",
      "gasPrice": {
        "_hex": "0xd4b0750fb"
      },
      "gasLimit": {
        "_hex": "0x55f0"
      },
      "to": "0x52Dc504a422f0E2A9e7632A34a50f1a82F8224c7",
      "value": {
        "_hex": "0x1777eb8122e866f38"
      },
      "nonce": 3429,
      "data": "0x",
      "r": "0x902115d9816d818b814ad083b0dd31721bccdfe9070d3d6bdb64a425e53716d4",
      "s": "0x7781471ed2363f8cddfcacf8876e37806313dd15898ef8180a98419b16be3424",
      "v": 28,
      "creates": null,
      "raw": "0xf86f820d65850d4b0750fb8255f09452dc504a422f0e2a9e7632a34a50f1a82f8224c78901777eb8122e866f38801ca0902115d9816d818b814ad083b0dd31721bccdfe9070d3d6bdb64a425e53716d4a07781471ed2363f8cddfcacf8876e37806313dd15898ef8180a98419b16be3424",
      "networkId": 0,
      "chainId": 0
    },
    {
      "hash": "0x0c41c3573e79491cd24d04d6950994a45a8e5c9422f3ca4cf379b759964b3d34",
      "blockHash": "0x2a3b88a7f4dce885a30bb8933c8e656870282d3a9846476f288078311e801875",
      "blockNumber": 99973,
      "transactionIndex": 11,
      "confirmations": null,
      "from": "0xe6A7a1d47ff21B6321162AEA7C6CB457D5476Bca",
      "gasPrice": {
        "_hex": "0xd4b0750fb"
      },
      "gasLimit": {
        "_hex": "0x55f0"
      },
      "to": "0x771b12Bc207A1c4823e77075B17F8D329ACD77A3",
      "value": {
        "_hex": "0x1779b6920a1e541d0"
      },
      "nonce": 3430,
      "data": "0x",
      "r": "0x64148579b509a35b86b76b1032a4ff92efdfed214f481f2529fdc3c64f9686f7",
      "s": "0x5a5e2d865bea2112eb6e3724bc50956e047b2e543e5a2a461115cb93f63d1766",
      "v": 28,
      "creates": null,
      "raw": "0xf86f820d66850d4b0750fb8255f094771b12bc207a1c4823e77075b17f8d329acd77a38901779b6920a1e541d0801ca064148579b509a35b86b76b1032a4ff92efdfed214f481f2529fdc3c64f9686f7a05a5e2d865bea2112eb6e3724bc50956e047b2e543e5a2a461115cb93f63d1766",
      "networkId": 0,
      "chainId": 0
    },
    {
      "hash": "0xeaf99bbcaf7ee9e510eb56b71d470bb048768ea3ec58d2a959f9061d58b9092e",
      "blockHash": "0x2a3b88a7f4dce885a30bb8933c8e656870282d3a9846476f288078311e801875",
      "blockNumber": 99973,
      "transactionIndex": 12,
      "confirmations": null,
      "from": "0xe6A7a1d47ff21B6321162AEA7C6CB457D5476Bca",
      "gasPrice": {
        "_hex": "0xd4b0750fb"
      },
      "gasLimit": {
        "_hex": "0x55f0"
      },
      "to": "0xCCe96724c29e042F35bCe1c2405feB0e8E30082b",
      "value": {
        "_hex": "0x1790bef9a82e14ed8"
      },
      "nonce": 3431,
      "data": "0x",
      "r": "0x944f0361633cd967f4e4ae600dc1bb6aa92ba9342fe836a8d563f72ea46f2992",
      "s": "0x0c2bbf4437df388f83faa2dd2e73ff6c195027daf53ca16d1d8e72e70451444f",
      "v": 28,
      "creates": null,
      "raw": "0xf86f820d67850d4b0750fb8255f094cce96724c29e042f35bce1c2405feb0e8e30082b8901790bef9a82e14ed8801ca0944f0361633cd967f4e4ae600dc1bb6aa92ba9342fe836a8d563f72ea46f2992a00c2bbf4437df388f83faa2dd2e73ff6c195027daf53ca16d1d8e72e70451444f",
      "networkId": 0,
      "chainId": 0
    },
    {
      "hash": "0x53c888a48abb785c1eaf5330e1f0a7c26830fc644ae505dd731657af6472cd67",
      "blockHash": "0x2a3b88a7f4dce885a30bb8933c8e656870282d3a9846476f288078311e801875",
      "blockNumber": 99973,
      "transactionIndex": 13,
      "confirmations": null,
      "from": "0xe6A7a1d47ff21B6321162AEA7C6CB457D5476Bca",
      "gasPrice": {
        "_hex": "0xd4b0750fb"
      },
      "gasLimit": {
        "_hex": "0x55f0"
      },
      "to": "0xBe750c24427887537FBc1E67Ed096a59dF3a4cC4",
      "value": {
        "_hex": "0x185f0526d80177b60"
      },
      "nonce": 3432,
      "data": "0x",
      "r": "0x65032680ad33fbcfd34c7c13f518c75a77b06e971fa99eb1331fb8e37252e233",
      "s": "0x0b21758aaf387192b174e7524ed945839f07de42688655e26539fcdfc63d6211",
      "v": 28,
      "creates": null,
      "raw": "0xf86f820d68850d4b0750fb8255f094be750c24427887537fbc1e67ed096a59df3a4cc4890185f0526d80177b60801ca065032680ad33fbcfd34c7c13f518c75a77b06e971fa99eb1331fb8e37252e233a00b21758aaf387192b174e7524ed945839f07de42688655e26539fcdfc63d6211",
      "networkId": 0,
      "chainId": 0
    },
    {
      "hash": "0x2f608b8da8fbbcf594d72efeb6749ef270d0ca16c566ec87b6a93420c94eacc2",
      "blockHash": "0x2a3b88a7f4dce885a30bb8933c8e656870282d3a9846476f288078311e801875",
      "blockNumber": 99973,
      "transactionIndex": 14,
      "confirmations": null,
      "from": "0xe6A7a1d47ff21B6321162AEA7C6CB457D5476Bca",
      "gasPrice": {
        "_hex": "0xd4b0750fb"
      },
      "gasLimit": {
        "_hex": "0x55f0"
      },
      "to": "0xB70f652788a24CeB11C0b586677b03679ccaCE6a",
      "value": {
        "_hex": "0x1956ca679e62987e0"
      },
      "nonce": 3433,
      "data": "0x",
      "r": "0xc90dfbbcd2b27435447da3275d85ac0ea4b22f6ee1697b049c6c268a017a9599",
      "s": "0x424cecf83e7efd32b7ac6627227853aacdaeb9afc0736fe33bcace8df02e4511",
      "v": 28,
      "creates": null,
      "raw": "0xf86f820d69850d4b0750fb8255f094b70f652788a24ceb11c0b586677b03679ccace6a8901956ca679e62987e0801ca0c90dfbbcd2b27435447da3275d85ac0ea4b22f6ee1697b049c6c268a017a9599a0424cecf83e7efd32b7ac6627227853aacdaeb9afc0736fe33bcace8df02e4511",
      "networkId": 0,
      "chainId": 0
    },
    {
      "hash": "0x3263a32013c14033158367911f03483813729648ff1a62e4db4d3b538a0cc831",
      "blockHash": "0x2a3b88a7f4dce885a30bb8933c8e656870282d3a9846476f288078311e801875",
      "blockNumber": 99973,
      "transactionIndex": 15,
      "confirmations": null,
      "from": "0xe6A7a1d47ff21B6321162AEA7C6CB457D5476Bca",
      "gasPrice": {
        "_hex": "0xd4b0750fb"
      },
      "gasLimit": {
        "_hex": "0x55f0"
      },
      "to": "0x3B399fF2b96F27056Ab8a7f6e028b0dBaF386279",
      "value": {
        "_hex": "0x1965429b99ea1bef0"
      },
      "nonce": 3434,
      "data": "0x",
      "r": "0x8e271cf2a46ad81714cf1b584f82e96157b4954b506fe56762de8dae42bdf4ba",
      "s": "0x687f78a7a0a46b1891a983852c437c44bad4e7e1c870d5e6cf9d18b991f49c65",
      "v": 28,
      "creates": null,
      "raw": "0xf86f820d6a850d4b0750fb8255f0943b399ff2b96f27056ab8a7f6e028b0dbaf3862798901965429b99ea1bef0801ca08e271cf2a46ad81714cf1b584f82e96157b4954b506fe56762de8dae42bdf4baa0687f78a7a0a46b1891a983852c437c44bad4e7e1c870d5e6cf9d18b991f49c65",
      "networkId": 0,
      "chainId": 0
    },
    {
      "hash": "0xaaf6561cf3e911d8aee0b05d579c57969c2ee7433cfc27903a37a6e41f208e7c",
      "blockHash": "0x2a3b88a7f4dce885a30bb8933c8e656870282d3a9846476f288078311e801875",
      "blockNumber": 99973,
      "transactionIndex": 16,
      "confirmations": null,
      "from": "0xe6A7a1d47ff21B6321162AEA7C6CB457D5476Bca",
      "gasPrice": {
        "_hex": "0xd4b0750fb"
      },
      "gasLimit": {
        "_hex": "0x55f0"
      },
      "to": "0x051219f568c86EA6DD6Dd2cC8052c31504F33d44",
      "value": {
        "_hex": "0x1965e7351ab0bb4c0"
      },
      "nonce": 3435,
      "data": "0x",
      "r": "0xd3f56ad22dcb90dd346eb72124901351e0b859fc7dfe7b4c5ffc532442b15ec2",
      "s": "0x4a7b6b7d4bdd386eeb9ade336d3d7edb104820eea498237230ba64169685b622",
      "v": 27,
      "creates": null,
      "raw": "0xf86f820d6b850d4b0750fb8255f094051219f568c86ea6dd6dd2cc8052c31504f33d448901965e7351ab0bb4c0801ba0d3f56ad22dcb90dd346eb72124901351e0b859fc7dfe7b4c5ffc532442b15ec2a04a7b6b7d4bdd386eeb9ade336d3d7edb104820eea498237230ba64169685b622",
      "networkId": 0,
      "chainId": 0
    },
    {
      "hash": "0x67b087f4cdf0d315abcdc22fbe43df6a9244ea28407db76f56fd00addf7495c2",
      "blockHash": "0x2a3b88a7f4dce885a30bb8933c8e656870282d3a9846476f288078311e801875",
      "blockNumber": 99973,
      "transactionIndex": 17,
      "confirmations": null,
      "from": "0xe6A7a1d47ff21B6321162AEA7C6CB457D5476Bca",
      "gasPrice": {
        "_hex": "0xd4b0750fb"
      },
      "gasLimit": {
        "_hex": "0x55f0"
      },
      "to": "0x701aE497d3522329870Ada714AA902424EA8Da01",
      "value": {
        "_hex": "0x1981aa4531ba06fd8"
      },
      "nonce": 3436,
      "data": "0x",
      "r": "0xd5420a19d876eb80a20bfcd54c86a2ee3c3e1550848feeb7fd245c017aa87b16",
      "s": "0x6a150dbc954deb93a2982f9f7f7b480028d909aa82fccb8e15639049417fa5a2",
      "v": 28,
      "creates": null,
      "raw": "0xf86f820d6c850d4b0750fb8255f094701ae497d3522329870ada714aa902424ea8da018901981aa4531ba06fd8801ca0d5420a19d876eb80a20bfcd54c86a2ee3c3e1550848feeb7fd245c017aa87b16a06a150dbc954deb93a2982f9f7f7b480028d909aa82fccb8e15639049417fa5a2",
      "networkId": 0,
      "chainId": 0
    },
    {
      "hash": "0x215a71be3f6a5aed83254a5875b62fd99392650220bd801430d1afcc23078633",
      "blockHash": "0x2a3b88a7f4dce885a30bb8933c8e656870282d3a9846476f288078311e801875",
      "blockNumber": 99973,
      "transactionIndex": 18,
      "confirmations": null,
      "from": "0xe6A7a1d47ff21B6321162AEA7C6CB457D5476Bca",
      "gasPrice": {
        "_hex": "0xd4b0750fb"
      },
      "gasLimit": {
        "_hex": "0x55f0"
      },
      "to": "0x2b176421eEBBf303fa94aD4fE78362Fa9e4Ca693",
      "value": {
        "_hex": "0x19c6f078243c0e390"
      },
      "nonce": 3437,
      "data": "0x",
      "r": "0xa5f7eb7aeac748a2c07f0327d7d461146a6e23354f66265d08744e2bbb1441bd",
      "s": "0x00a2014defa73cc2dd9664b53d62cdc9fd999991113d3614ff2265dbe3064577",
      "v": 27,
      "creates": null,
      "raw": "0xf86e820d6d850d4b0750fb8255f0942b176421eebbf303fa94ad4fe78362fa9e4ca69389019c6f078243c0e390801ba0a5f7eb7aeac748a2c07f0327d7d461146a6e23354f66265d08744e2bbb1441bd9fa2014defa73cc2dd9664b53d62cdc9fd999991113d3614ff2265dbe3064577",
      "networkId": 0,
      "chainId": 0
    },
    {
      "hash": "0x9a2aac71ac95255901145403bf6b8107202ddc10424a913a16837a50018f579c",
      "blockHash": "0x2a3b88a7f4dce885a30bb8933c8e656870282d3a9846476f288078311e801875",
      "blockNumber": 99973,
      "transactionIndex": 19,
      "confirmations": null,
      "from": "0xe6A7a1d47ff21B6321162AEA7C6CB457D5476Bca",
      "gasPrice": {
        "_hex": "0xd4b0750fb"
      },
      "gasLimit": {
        "_hex": "0x55f0"
      },
      "to": "0x2cf4364bc4C7C3333aB9963C4B3473664f42D83A",
      "value": {
        "_hex": "0x1a56ecbd74ae0b200"
      },
      "nonce": 3438,
      "data": "0x",
      "r": "0x47f37ace9f8d55e1de29bb493c2e379c78117e43cce26d79c04818d790f70328",
      "s": "0x2c9bddbf360bc5466bc0d2e688d221c7cc8c004bcc3ad2ae507d35ef51f374c7",
      "v": 27,
      "creates": null,
      "raw": "0xf86f820d6e850d4b0750fb8255f0942cf4364bc4c7c3333ab9963c4b3473664f42d83a8901a56ecbd74ae0b200801ba047f37ace9f8d55e1de29bb493c2e379c78117e43cce26d79c04818d790f70328a02c9bddbf360bc5466bc0d2e688d221c7cc8c004bcc3ad2ae507d35ef51f374c7",
      "networkId": 0,
      "chainId": 0
    },
    {
      "hash": "0x8c3d009447cf6d51527691611e27b6b61f10cf144ec66e2017dcb5ffb5de08d0",
      "blockHash": "0x2a3b88a7f4dce885a30bb8933c8e656870282d3a9846476f288078311e801875",
      "blockNumber": 99973,
      "transactionIndex": 20,
      "confirmations": null,
      "from": "0xe6A7a1d47ff21B6321162AEA7C6CB457D5476Bca",
      "gasPrice": {
        "_hex": "0xd4b0750fb"
      },
      "gasLimit": {
        "_hex": "0x55f0"
      },
      "to": "0xabceA603089850F8f6bB612A9031554D90A247CF",
      "value": {
        "_hex": "0x1a8830c8a0d422e50"
      },
      "nonce": 3439,
      "data": "0x",
      "r": "0x94450bd8d3eb3bab22a9edf45e466ca85768c450eabb59676fdd0c191bb3b128",
      "s": "0x5dfe3ae9816f3ae31ebe52526c1909a539a3528ebe4d932f4ec4b07c74b1774d",
      "v": 28,
      "creates": null,
      "raw": "0xf86f820d6f850d4b0750fb8255f094abcea603089850f8f6bb612a9031554d90a247cf8901a8830c8a0d422e50801ca094450bd8d3eb3bab22a9edf45e466ca85768c450eabb59676fdd0c191bb3b128a05dfe3ae9816f3ae31ebe52526c1909a539a3528ebe4d932f4ec4b07c74b1774d",
      "networkId": 0,
      "chainId": 0
    },
    {
      "hash": "0xf16202f45f5560956b43449bdc9d82447103ff3e13f1b4d42a2536c6131f6f00",
      "blockHash": "0x2a3b88a7f4dce885a30bb8933c8e656870282d3a9846476f288078311e801875",
      "blockNumber": 99973,
      "transactionIndex": 21,
      "confirmations": null,
      "from": "0xe6A7a1d47ff21B6321162AEA7C6CB457D5476Bca",
      "gasPrice": {
        "_hex": "0xd4b0750fb"
      },
      "gasLimit": {
        "_hex": "0x55f0"
      },
      "to": "0xe70361D11B44B2fBA997417D7AAa26eb69EBfef0",
      "value": {
        "_hex": "0x1abc37af31f33f150"
      },
      "nonce": 3440,
      "data": "0x",
      "r": "0x9e61071022134fd6c4999b0412af112d9175150bafdad05d2c26cb6cc2efa3b0",
      "s": "0x0013df0015da8e7fc08b483d981991ec28bde93d96613b0e8fabb6862f90c655",
      "v": 27,
      "creates": null,
      "raw": "0xf86e820d70850d4b0750fb8255f094e70361d11b44b2fba997417d7aaa26eb69ebfef08901abc37af31f33f150801ba09e61071022134fd6c4999b0412af112d9175150bafdad05d2c26cb6cc2efa3b09f13df0015da8e7fc08b483d981991ec28bde93d96613b0e8fabb6862f90c655",
      "networkId": 0,
      "chainId": 0
    },
    {
      "hash": "0xc8a5cb4527319613b0968d972d0077b9c43f9fdc38ae8632f7b9f14f174ab3d4",
      "blockHash": "0x2a3b88a7f4dce885a30bb8933c8e656870282d3a9846476f288078311e801875",
      "blockNumber": 99973,
      "transactionIndex": 22,
      "confirmations": null,
      "from": "0xe6A7a1d47ff21B6321162AEA7C6CB457D5476Bca",
      "gasPrice": {
        "_hex": "0xd4b0750fb"
      },
      "gasLimit": {
        "_hex": "0x55f0"
      },
      "to": "0x51c6a5F0248d9a4f7CA205080e2BA8b0962Fd8ea",
      "value": {
        "_hex": "0x1af660da448386380"
      },
      "nonce": 3441,
      "data": "0x",
      "r": "0xd7d4efbd2cb1fad3717eb6e0625ccdff4514695bd649be1697226cccc7b1ae6c",
      "s": "0x70322e3f32bd9d698748f0dfcd6296023dbc5f23dfd66829b8a4db66a9ba24d5",
      "v": 27,
      "creates": null,
      "raw": "0xf86f820d71850d4b0750fb8255f09451c6a5f0248d9a4f7ca205080e2ba8b0962fd8ea8901af660da448386380801ba0d7d4efbd2cb1fad3717eb6e0625ccdff4514695bd649be1697226cccc7b1ae6ca070322e3f32bd9d698748f0dfcd6296023dbc5f23dfd66829b8a4db66a9ba24d5",
      "networkId": 0,
      "chainId": 0
    },
    {
      "hash": "0x78a812c93944a4c22e644078ce95b49576003240a019ba11e54b31ccf5a589be",
      "blockHash": "0x2a3b88a7f4dce885a30bb8933c8e656870282d3a9846476f288078311e801875",
      "blockNumber": 99973,
      "transactionIndex": 23,
      "confirmations": null,
      "from": "0xe6A7a1d47ff21B6321162AEA7C6CB457D5476Bca",
      "gasPrice": {
        "_hex": "0xd4b0750fb"
      },
      "gasLimit": {
        "_hex": "0x55f0"
      },
      "to": "0x6CB5e8313a5B29aDb14AE1884D3EcE4489d02D77",
      "value": {
        "_hex": "0x1b90e8e0a962de018"
      },
      "nonce": 3442,
      "data": "0x",
      "r": "0x1159d7ad005b66206290e94f51306fb3fc86936d1c56f38be29f169087db8075",
      "s": "0x0a78efb6bc329b733102b51b2b2b50c02ed590fcd98859cc2fbe816008f45784",
      "v": 28,
      "creates": null,
      "raw": "0xf86f820d72850d4b0750fb8255f0946cb5e8313a5b29adb14ae1884d3ece4489d02d778901b90e8e0a962de018801ca01159d7ad005b66206290e94f51306fb3fc86936d1c56f38be29f169087db8075a00a78efb6bc329b733102b51b2b2b50c02ed590fcd98859cc2fbe816008f45784",
      "networkId": 0,
      "chainId": 0
    },
    {
      "hash": "0xf1b7e1da6c42730780a7393c8ab7a57ad0649222f07c7a1abc90d8246053074b",
      "blockHash": "0x2a3b88a7f4dce885a30bb8933c8e656870282d3a9846476f288078311e801875",
      "blockNumber": 99973,
      "transactionIndex": 24,
      "confirmations": null,
      "from": "0xe6A7a1d47ff21B6321162AEA7C6CB457D5476Bca",
      "gasPrice": {
        "_hex": "0xd4b0750fb"
      },
      "gasLimit": {
        "_hex": "0x55f0"
      },
      "to": "0xA971748c4C493bC96C7d490E1789481e1E96bB10",
      "value": {
        "_hex": "0x1bbac49b4114ea098"
      },
      "nonce": 3443,
      "data": "0x",
      "r": "0xfac1d7b2d86614ee140ec2cf3d8251b8ea6bdc77f7c9b4af0bad3e7768173d31",
      "s": "0x328b8fd6bbe61ea368a493cb2dc7452ad7d5e313493ac996e1438f7b55831894",
      "v": 27,
      "creates": null,
      "raw": "0xf86f820d73850d4b0750fb8255f094a971748c4c493bc96c7d490e1789481e1e96bb108901bbac49b4114ea098801ba0fac1d7b2d86614ee140ec2cf3d8251b8ea6bdc77f7c9b4af0bad3e7768173d31a0328b8fd6bbe61ea368a493cb2dc7452ad7d5e313493ac996e1438f7b55831894",
      "networkId": 0,
      "chainId": 0
    },
    {
      "hash": "0xf121cc4ae54cf347cdbe1ff2cd451fc1e1ca3a0b3881da0cfa7238531f509dd2",
      "blockHash": "0x2a3b88a7f4dce885a30bb8933c8e656870282d3a9846476f288078311e801875",
      "blockNumber": 99973,
      "transactionIndex": 25,
      "confirmations": null,
      "from": "0xe6A7a1d47ff21B6321162AEA7C6CB457D5476Bca",
      "gasPrice": {
        "_hex": "0xd4b0750fb"
      },
      "gasLimit": {
        "_hex": "0x55f0"
      },
      "to": "0x65B2003cE03eDcF961C6b724862D6a7f942B8971",
      "value": {
        "_hex": "0x1c194a11cbc6e45c0"
      },
      "nonce": 3444,
      "data": "0x",
      "r": "0xffedb6100f87de033a499544e30fb1c4ad3a8f2bae7cc6000b73df6193262ee6",
      "s": "0x03c415946fd03795dfca12fc0032904774b2284c3fd3bf0fcc29d230ebd4d4b3",
      "v": 28,
      "creates": null,
      "raw": "0xf86f820d74850d4b0750fb8255f09465b2003ce03edcf961c6b724862d6a7f942b89718901c194a11cbc6e45c0801ca0ffedb6100f87de033a499544e30fb1c4ad3a8f2bae7cc6000b73df6193262ee6a003c415946fd03795dfca12fc0032904774b2284c3fd3bf0fcc29d230ebd4d4b3",
      "networkId": 0,
      "chainId": 0
    },
    {
      "hash": "0x9bd1b604ff7be95d515a4d65c93c462a994938c08f66a7b3f6c96fe9d210b3cf",
      "blockHash": "0x2a3b88a7f4dce885a30bb8933c8e656870282d3a9846476f288078311e801875",
      "blockNumber": 99973,
      "transactionIndex": 26,
      "confirmations": null,
      "from": "0xe6A7a1d47ff21B6321162AEA7C6CB457D5476Bca",
      "gasPrice": {
        "_hex": "0xd4b0750fb"
      },
      "gasLimit": {
        "_hex": "0x55f0"
      },
      "to": "0x93b3437645A67059E280a3317a93c57e2f4788EA",
      "value": {
        "_hex": "0x1c41ffeed7de22008"
      },
      "nonce": 3445,
      "data": "0x",
      "r": "0x08828868cfe79db611c732c86657fe4a41f210ead5c7066a6a02c359e37aa483",
      "s": "0x22d99b81604e71c191a3637c7ea74b4e2e628b6a6105b233ba9956026ee8cbaf",
      "v": 27,
      "creates": null,
      "raw": "0xf86f820d75850d4b0750fb8255f09493b3437645a67059e280a3317a93c57e2f4788ea8901c41ffeed7de22008801ba008828868cfe79db611c732c86657fe4a41f210ead5c7066a6a02c359e37aa483a022d99b81604e71c191a3637c7ea74b4e2e628b6a6105b233ba9956026ee8cbaf",
      "networkId": 0,
      "chainId": 0
    },
    {
      "hash": "0xfd186c4a076831dddfb959858db66fc8b23b65fc13b622bf10b0b0a7fbd4a291",
      "blockHash": "0x2a3b88a7f4dce885a30bb8933c8e656870282d3a9846476f288078311e801875",
      "blockNumber": 99973,
      "transactionIndex": 27,
      "confirmations": null,
      "from": "0xe6A7a1d47ff21B6321162AEA7C6CB457D5476Bca",
      "gasPrice": {
        "_hex": "0xd4b0750fb"
      },
      "gasLimit": {
        "_hex": "0x55f0"
      },
      "to": "0xd121f6B6DE47879cc29a8262cA01F7B4ACE9707e",
      "value": {
        "_hex": "0x1c4a3fd5df753ff18"
      },
      "nonce": 3446,
      "data": "0x",
      "r": "0xd9fe0ddf916d84edb2dc98b9ab26a2bf0c9a42085bb5fcfa83682c844bafa863",
      "s": "0x66da8d687975e31c65a5a7e883e0386039a839b2594e8e519e40aaef4fe09498",
      "v": 27,
      "creates": null,
      "raw": "0xf86f820d76850d4b0750fb8255f094d121f6b6de47879cc29a8262ca01f7b4ace9707e8901c4a3fd5df753ff18801ba0d9fe0ddf916d84edb2dc98b9ab26a2bf0c9a42085bb5fcfa83682c844bafa863a066da8d687975e31c65a5a7e883e0386039a839b2594e8e519e40aaef4fe09498",
      "networkId": 0,
      "chainId": 0
    },
    {
      "hash": "0x091e9cc810e1dee4d3711a636520dc017ad8a8633a71b29c0350aa06df85b08a",
      "blockHash": "0x2a3b88a7f4dce885a30bb8933c8e656870282d3a9846476f288078311e801875",
      "blockNumber": 99973,
      "transactionIndex": 28,
      "confirmations": null,
      "from": "0xe6A7a1d47ff21B6321162AEA7C6CB457D5476Bca",
      "gasPrice": {
        "_hex": "0xd4b0750fb"
      },
      "gasLimit": {
        "_hex": "0x55f0"
      },
      "to": "0x04455296AB1f01C09050A906d4476480Cc7583d4",
      "value": {
        "_hex": "0x1d8d7a8f27d90a400"
      },
      "nonce": 3447,
      "data": "0x",
      "r": "0x19873627cbcf6fc628ee9c65b29044c0f5ec6e0c50286eb0d4f3aba671c3c7c8",
      "s": "0x18b66f4e4dc14ed28bb0f93be013dc5cfa76b7c72551770071d980b7119a0183",
      "v": 27,
      "creates": null,
      "raw": "0xf86f820d77850d4b0750fb8255f09404455296ab1f01c09050a906d4476480cc7583d48901d8d7a8f27d90a400801ba019873627cbcf6fc628ee9c65b29044c0f5ec6e0c50286eb0d4f3aba671c3c7c8a018b66f4e4dc14ed28bb0f93be013dc5cfa76b7c72551770071d980b7119a0183",
      "networkId": 0,
      "chainId": 0
    }
  ]
}