{
  "hash": "0x73b8f26b9434e42c25a319172057baf29d4f809fa75aebd214eb6f717275d1bd",
  "parentHash": "0x62d84274166d966f6ed497009d390c4668d10202445a273898c4c41355e339a8",
  "number": 48464,
  "timestamp": 1438957547,
  "nonce": "0x0d829735a9f86ac9",
  "difficulty": 1462871480159,
  "gasLimit": {
    "_hex": "0x17ab9"
  },
  "gasUsed": {
    "_hex": "0x546c"
  },
  "miner": "0xe6A7a1d47ff21B6321162AEA7C6CB457D5476Bca",
  "extraData": "0x657468706f6f6c2e6f7267",
  "transactions": [
    {
      "hash": "0xf6754321cf26a1ccc150745dd769fd940b143a3fd4b7cecee99c972886eb24ed",
      "blockHash": "0x73b8f26b9434e42c25a319172057baf29d4f809fa75aebd214eb6f717275d1bd",
      "blockNumber": 48464,
      "transactionIndex": 0,
      "confirmations": null,
      "from": "0x85A2F6ea94D05E8C1d9Ae2F4910338a358e98DeD",
      "gasPrice": {
        "_hex": "0xcf0faf9d2"
      },
      "gasLimit": {
        "_hex": "0x15f90"
      },
      "to": "0x2910543Af39abA0Cd09dBb2D50200b3E800A63D2",
      "value": {
        "_hex": "0x56bc75e2d63100000"
      },
      "nonce": 1,
      "data": "0x454e373342334b5547",
      "r": "0x697c329a7bfa4e8fa62e71fbd0eb5295d67d50c2ac6c09bc385081b042b57a55",
      "s": "0x16affe7ada6eaabdbae00f7832c93d07cb5bb33cd76b442ed35cdcc93dcf730b",
      "v": 28,
      "creates": null,
      "raw": "0xf87701850cf0faf9d283015f90942910543af39aba0cd09dbb2d50200b3e800a63d289056bc75e2d6310000089454e373342334b55471ca0697c329a7bfa4e8fa62e71fbd0eb5295d67d50c2ac6c09bc385081b042b57a55a016affe7ada6eaabdbae00f7832c93d07cb5bb33cd76b442ed35cdcc93dcf730b",
      "networkId": 0,
      "chainId": 0
    }
  ]
}