{
  "hash": "0xa2d1d375e39b43741ed4376a3234045fd8259d7c91f1ea86d5fe3e2921c9ab32",
  "parentHash": "0xbdae7ae5a59eac1abc0f2f45c7de7a6cea17b3528a2c2d14dc8a3c74d9c9b116",
  "number": 48984,
  "timestamp": 1438965981,
  "nonce": "0x8db0e25832f08d94",
  "difficulty": 1484365964585,
  "gasLimit": {
    "_hex": "0x229f6"
  },
  "gasUsed": {
    "_hex": "0x5208"
  },
  "miner": "0xbb7B8287f3F0a933474a79eAe42CBCa977791171",
  "extraData": "0x476574682f4c5649562f76312e302e312f6c696e75782f676f312e342e32",
  "transactions": [
    {
      "hash": "0x5eca45a93edbba903d2947bf148179d1caa920baaee3e1325712e1051cd27bac",
      "blockHash": "0xa2d1d375e39b43741ed4376a3234045fd8259d7c91f1ea86d5fe3e2921c9ab32",
      "blockNumber": 48984,
      "transactionIndex": 0,
      "confirmations": null,
      "from": "0x4BD5f0Ee173C81d42765154865EE69361b6aD189",
      "gasPrice": {
        "_hex": "0x746a528800"
      },
      "gasLimit": {
        "_hex": "0x5b04"
      },
      "to": "0x2910543Af39abA0Cd09dBb2D50200b3E800A63D2",
      "value": {
        "_hex": "0x4563918244f40000"
      },
      "nonce": 5,
      "data": "0x",
      "r": "0x602b3b04c867a3f2d68ebb63f6a761823b45db7a8343a3c9ce86819b43648d44",
      "s": "0x6cd310ad15882ccde6dba01ae9094da6a448bc0ef3a7cb2d47f30d37e18e585a",
      "v": 27,
      "creates": null,
      "raw": "0xf86c0585746a528800825b04942910543af39aba0cd09dbb2d50200b3e800a63d2884563918244f40000801ba0602b3b04c867a3f2d68ebb63f6a761823b45db7a8343a3c9ce86819b43648d44a06cd310ad15882ccde6dba01ae9094da6a448bc0ef3a7cb2d47f30d37e18e585a",
      "networkId": 0,
      "chainId": 0
    }
  ]
}