{
  "hash": "0x5067d0b4c9d3350e5e18d75b36f873a192bd63df159b651707376f7095b98b61",
  "parentHash": "0x7b842fed036db73bcae4012dff73d8024debd7e240963da886beb22ee8f9fcf5",
  "number": 106524,
  "timestamp": 1439905684,
  "nonce": "0xfdf69caa6c951764",
  "difficulty": 4501179365377,
  "gasLimit": {
    "_hex": "0x2fefd8"
  },
  "gasUsed": {
    "_hex": "0xa410"
  },
  "miner": "0xce5d31e615aBFd0FDd25bFc608ee1FA0dD2465dC",
  "extraData": "0x476574682f76312e302e312f77696e646f77732f676f312e342e32",
  "transactions": [
    {
      "hash": "0x4d3afa515966cd518e5403753d5d69f4bcbe44a96409fb32200d0cc9d9786a9b",
      "blockHash": "0x5067d0b4c9d3350e5e18d75b36f873a192bd63df159b651707376f7095b98b61",
      "blockNumber": 106524,
      "transactionIndex": 0,
      "confirmations": null,
      "from": "0xa16E760E170A19a36e1b42357a1e6A1A206B9F39",
      "gasPrice": {
        "_hex": "0xd720504d2"
      },
      "gasLimit": {
        "_hex": "0x15f90"
      },
      "to": "0x1151790FE5F7C3113dfb07Dc3914B1916EcC8a7A",
      "value": {
        "_hex": "0x30927f74c9de0000"
      },
      "nonce": 4,
      "data": "0x",
      "r": "0xd45666f3ed646823a5a4e2c6fa07f6435a72acb3e2a3556182347f089cd20d87",
      "s": "0x6a92fd76f8187be5934ce1d44d36f19549577190c47e35b20360713d014c2afe",
      "v": 27,
      "creates": null,
      "raw": "0xf86d04850d720504d283015f90941151790fe5f7c3113dfb07dc3914b1916ecc8a7a8830927f74c9de0000801ba0d45666f3ed646823a5a4e2c6fa07f6435a72acb3e2a3556182347f089cd20d87a06a92fd76f8187be5934ce1d44d36f19549577190c47e35b20360713d014c2afe",
      "networkId": 0,
      "chainId": 0
    },
    {
      "hash": "0xebcc76216dcee752d352cfce4947b9b9415fec9c0af74021f960c86fc791f0b5",
      "blockHash": "0x5067d0b4c9d3350e5e18d75b36f873a192bd63df159b651707376f7095b98b61",
      "blockNumber": 106524,
      "transactionIndex": 1,
      "confirmations": null,
      "from": "0x83D8Eec14470cdd640ec06e83212519D19B804bc",
      "gasPrice": {
        "_hex": "0xcea4060ea"
      },
      "gasLimit": {
        "_hex": "0x15f90"
      },
      "to": "0x2fd8Ad8C541bc201DD24a3C7b60FCBBB6429A4E2",
      "value": {
        "_hex": "0xde0b6b3a7640000"
      },
      "nonce": 0,
      "data": "0x",
      "r": "0xf44a9aa83b74549e321683d82e6ca47a24178e189a20e02098e2bba513443b9c",
      "s": "0x781d07d180c6d82283c7551f48136dd75bd44267c09494b5b2c0026ce0b12a13",
      "v": 27,
      "creates": null,
      "raw": "0xf86d80850cea4060ea83015f90942fd8ad8c541bc201dd24a3c7b60fcbbb6429a4e2880de0b6b3a7640000801ba0f44a9aa83b74549e321683d82e6ca47a24178e189a20e02098e2bba513443b9ca0781d07d180c6d82283c7551f48136dd75bd44267c09494b5b2c0026ce0b12a13",
      "networkId": 0,
      "chainId": 0
    }
  ]
}