{
  "hash": "0x26d7deac8558512b2ea12d1865669b45a1dc02f4309ad8c04e008550c5cb9feb",
  "parentHash": "0x847cd092aae0896ee1160cc168344534edd9ddfd60e223a4e2f6e5c7473b7a8e",
  "number": 70609,
  "timestamp": 1439322670,
  "nonce": "0x5e989fa21731b92b",
  "difficulty": 2146829023436,
  "gasLimit": {
    "_hex": "0x2fefd5"
  },
  "gasUsed": {
    "_hex": "0x2169d"
  },
  "miner": "0x0037ce3d4B7f8729C8607D8D0248252Be68202c0",
  "extraData": "0x476574682f76312e302e312f77696e646f77732f676f312e342e32",
  "transactions": [
    {
      "hash": "0xf2e55be5aa3515afab902afc1ca4c1eb07d1335596ed5aa4aca5096833c4f30c",
      "blockHash": "0x26d7deac8558512b2ea12d1865669b45a1dc02f4309ad8c04e008550c5cb9feb",
      "blockNumber": 70609,
      "transactionIndex": 0,
      "confirmations": null,
      "from": "0x17DEb0f18eaf9aca4e5Fb4a80bc1d694B853b2a2",
      "gasPrice": {
        "_hex": "0xdce6df875"
      },
      "gasLimit": {
        "_hex": "0x5208"
      },
      "to": "0x32Be343B94f860124dC4fEe278FDCBD38C102D88",
      "value": {
        "_hex": "0x15af190c26dc4c0000"
      },
      "nonce": 2,
      "data": "0x",
      "r": "0xa3a8af81abebd5c8c6c29b861506d16a3aba1db30924a8db144e090c5c0cd1b6",
      "s": "0x7cd8972b8cc88c1f31f39dc7cf628830b24b7f1858d46fe4170dd2f0b28695a4",
      "v": 27,
      "creates": null,
      "raw": "0xf86d02850dce6df8758252089432be343b94f860124dc4fee278fdcbd38c102d888915af190c26dc4c0000801ba0a3a8af81abebd5c8c6c29b861506d16a3aba1db30924a8db144e090c5c0cd1b6a07cd8972b8cc88c1f31f39dc7cf628830b24b7f1858d46fe4170dd2f0b28695a4",
      "networkId": 0,
      "chainId": 0
    },
    {
      "hash": "0x76fe047554d01f649b9a44003c35480188efe8d0128db2b8c8d081e4de1768dd",
      "blockHash": "0x26d7deac8558512b2ea12d1865669b45a1dc02f4309ad8c04e008550c5cb9feb",
      "blockNumber": 70609,
      "transactionIndex": 1,
      "confirmations": null,
      "from": "0xd6a456c0d46f7a8404f662bBEc6BA7da6252F503",
      "gasPrice": {
        "_hex": "0xdce6df875"
      },
      "gasLimit": {
        "_hex": "0x5208"
      },
      "to": "0x32Be343B94f860124dC4fEe278FDCBD38C102D88",
      "value": {
        "_hex": "0x56bc2f19eb31c0000"
      },
      "nonce": 2,
      "data": "0x",
      "r": "0x96a6fa2a03ae2cb6aff7d394f4b1163a6c8fa6947f279115cd4d39f378d55717",
      "s": "0x2d52d3c703e43af7fecf9e8cdbb4f16715a321aaecd7a179bf9290a7d220f479",
      "v": 28,
      "creates": null,
      "raw": "0xf86d02850dce6df8758252089432be343b94f860124dc4fee278fdcbd38c102d8889056bc2f19eb31c0000801ca096a6fa2a03ae2cb6aff7d394f4b1163a6c8fa6947f279115cd4d39f378d55717a02d52d3c703e43af7fecf9e8cdbb4f16715a321aaecd7a179bf9290a7d220f479",
      "networkId": 0,
      "chainId": 0
    },
    {
      "hash": "0x1ed65ef192a231c26adedb87993ac8baf545fea8d39dcee6e76e2307cd4e6ad2",
      "blockHash": "0x26d7deac8558512b2ea12d1865669b45a1dc02f4309ad8c04e008550c5cb9feb",
      "blockNumber": 70609,
      "transactionIndex": 2,
      "confirmations": null,
      "from": "0x8751DfA908C45A8aEf041FbeE9C17f9fE57Cc449",
      "gasPrice": {
        "_hex": "0xdce6df875"
      },
      "gasLimit": {
        "_hex": "0x5208"
      },
      "to": "0x32Be343B94f860124dC4fEe278FDCBD38C102D88",
      "value": {
        "_hex": "0xb64d0efdc7ba60000"
      },
      "nonce": 2,
      "data": "0x",
      "r": "0xb0c60093d70cfb7e1a514d703b1e77b6523dfcc1f969ab71a5a9378df0e5ec34",
      "s": "0x0c34898203504bbfa2db04372136a54f3ca431ea1065ec33645d0ed8890674a5",
      "v": 27,
      "creates": null,
      "raw": "0xf86d02850dce6df8758252089432be343b94f860124dc4fee278fdcbd38c102d88890b64d0efdc7ba60000801ba0b0c60093d70cfb7e1a514d703b1e77b6523dfcc1f969ab71a5a9378df0e5ec34a00c34898203504bbfa2db04372136a54f3ca431ea1065ec33645d0ed8890674a5",
      "networkId": 0,
      "chainId": 0
    },
    {
      "hash": "0x36facbfb0ff4216b39f64de52f41eaf0e4cf1a498369380a450772fc847604c8",
      "blockHash": "0x26d7deac8558512b2ea12d1865669b45a1dc02f4309ad8c04e008550c5cb9feb",
      "blockNumber": 70609,
      "transactionIndex": 3,
      "confirmations": null,
      "from": "0x2910543Af39abA0Cd09dBb2D50200b3E800A63D2",
      "gasPrice": {
        "_hex": "0xd0d3558d4"
      },
      "gasLimit": {
        "_hex": "0x5208"
      },
      "to": "0xC2475783aaECE3d0BeA2CAd36E2fD7443547b7cc",
      "value": {
        "_hex": "0xe950e374dac338000"
      },
      "nonce": 246,
      "data": "0x",
      "r": "0x2d249f23505362a2b86da5e2e6b13a5252a9feb349b5d17588d5055ea8b72d78",
      "s": "0x506e873fa35081c822834193fc00862e58292c2b71cd8cf97dc7689ff8271ef6",
      "v": 27,
      "creates": null,
      "raw": "0xf86e81f6850d0d3558d482520894c2475783aaece3d0bea2cad36e2fd7443547b7cc890e950e374dac338000801ba02d249f23505362a2b86da5e2e6b13a5252a9feb349b5d17588d5055ea8b72d78a0506e873fa35081c822834193fc00862e58292c2b71cd8cf97dc7689ff8271ef6",
      "networkId": 0,
      "chainId": 0
    },
    {
      "hash": "0x3ce3c56a67e3ded3aa9572900c5614496aa84e1a2d4700978f5ec43f7ca78f1e",
      "blockHash": "0x26d7deac8558512b2ea12d1865669b45a1dc02f4309ad8c04e008550c5cb9feb",
      "blockNumber": 70609,
      "transactionIndex": 4,
      "confirmations": null,
      "from": "0x000Df160997ba9420e4622996b05447871848834",
      "gasPrice": {
        "_hex": "0xba43b7400"
      },
      "gasLimit": {
        "_hex": "0x985f6"
      },
      "to": "0xdf373f3Dab2561668e239cA6e43a8c6aaeB3f825",
      "value": {
        "_hex": "0x64"
      },
      "nonce": 11,
      "data": "0xfcfff16f",
      "r": "0x3e9637d77649f9d33f5f2362f464dab35e4643592f811e165a63cded96990694",
      "s": "0x6fe09450f77f37cf5e4610107918462ee90837b8c6107b0c7ecdaee8a07feadb",
      "v": 28,
      "creates": null,
      "raw": "0xf8690b850ba43b7400830985f694df373f3dab2561668e239ca6e43a8c6aaeb3f8256484fcfff16f1ca03e9637d77649f9d33f5f2362f464dab35e4643592f811e165a63cded96990694a06fe09450f77f37cf5e4610107918462ee90837b8c6107b0c7ecdaee8a07feadb",
      "networkId": 0,
      "chainId": 0
    }
  ]
}