{
  "hash": "0xb20357ed9b2eeaddfb06bd63b973129907d837248908f7954f07859f41c2c115",
  "parentHash": "0xfd9a9826a5402c8abf7dea749c915554604ecec1deac1267753083449a14ca47",
  "number": 51265,
  "timestamp": 1439002041,
  "nonce": "0x00dea9ffe99036ef",
  "difficulty": 1569674311551,
  "gasLimit": {
    "_hex": "0x9f153"
  },
  "gasUsed": {
    "_hex": "0x2626e"
  },
  "miner": "0x4947190fcC30D3fb3a16233b259bFe6b3492339a",
  "extraData": "0x",
  "transactions": [
    {
      "hash": "0x9bde1b2c68f37ffd1f73a4f5b07606fd703b0a968733911f8b7f5720fb809927",
      "blockHash": "0xb20357ed9b2eeaddfb06bd63b973129907d837248908f7954f07859f41c2c115",
      "blockNumber": 51265,
      "transactionIndex": 0,
      "confirmations": null,
      "from": "0xA4489A50EAD5d5445A7bEe4D2d5536C2a76c41f8",
      "gasPrice": {
        "_hex": "0x10cd5a554b7"
      },
      "gasLimit": {
        "_hex": "0x15f90"
      },
      "to": "0x2910543Af39abA0Cd09dBb2D50200b3E800A63D2",
      "value": {
        "_hex": "0x8f1d5c1cae3740000"
      },
      "nonce": 0,
      "data": "0x454e34584a41304d30",
      "r": "0x3973f822b6cbfc34f99c58701ca986f8017ae9d7e9039175ce75d2580e35a7a6",
      "s": "0x2fd2d2101d881d282a7fc7a88aeb2e2f88225c50f0a05624b1528681cec2bbf7",
      "v": 28,
      "creates": null,
      "raw": "0xf8788086010cd5a554b783015f90942910543af39aba0cd09dbb2d50200b3e800a63d28908f1d5c1cae374000089454e34584a41304d301ca03973f822b6cbfc34f99c58701ca986f8017ae9d7e9039175ce75d2580e35a7a6a02fd2d2101d881d282a7fc7a88aeb2e2f88225c50f0a05624b1528681cec2bbf7",
      "networkId": 0,
      "chainId": 0
    },
    {
      "hash": "0xd6ed54640282da44fb366021d74edb0a807d4aa0191b1cbfc5d3edf46ce02a9f",
      "blockHash": "0xb20357ed9b2eeaddfb06bd63b973129907d837248908f7954f07859f41c2c115",
      "blockNumber": 51265,
      "transactionIndex": 1,
      "confirmations": null,
      "from": "0xC555B93156F09101233c6f7CF6eB3c4F196D3346",
      "gasPrice": {
        "_hex": "0xe9853da01"
      },
      "gasLimit": {
        "_hex": "0x15f90"
      },
      "to": "0x36DeE907a4DA9858CE11CDDd63FAAF89EF610d71",
      "value": {
        "_hex": "0x1b1ae4d6e2ef500000"
      },
      "nonce": 4,
      "data": "0x",
      "r": "0x6936a5e5e8fd1c7516c078f81ccd424e2fb1eadff87d138cf7da9c84325dd8f1",
      "s": "0x4c7f1f738a5c67e297cba031162f8cce9384dc4e3e969a98adb1f18b6ce9dfbd",
      "v": 28,
      "creates": null,
      "raw": "0xf86e04850e9853da0183015f909436dee907a4da9858ce11cddd63faaf89ef610d71891b1ae4d6e2ef500000801ca06936a5e5e8fd1c7516c078f81ccd424e2fb1eadff87d138cf7da9c84325dd8f1a04c7f1f738a5c67e297cba031162f8cce9384dc4e3e969a98adb1f18b6ce9dfbd",
      "networkId": 0,
      "chainId": 0
    },
    {
      "hash": "0xd20e0cdaa263fad80d156570a80e69d0e0797fb3de9e9f3fbd5b1f06b95979e6",
      "blockHash": "0xb20357ed9b2eeaddfb06bd63b973129907d837248908f7954f07859f41c2c115",
      "blockNumber": 51265,
      "transactionIndex": 2,
      "confirmations": null,
      "from": "0x8dd1564B9F5de977842650A81926AF713963C070",
      "gasPrice": {
        "_hex": "0xe43cd8d0b"
      },
      "gasLimit": {
        "_hex": "0x15f90"
      },
      "to": "0xBAA54d6E90c3F4d7Ebec11bD180134C7eD8eBb52",
      "value": {
        "_hex": "0xde0b6b3a7640000"
      },
      "nonce": 2,
      "data": "0x",
      "r": "0x19ff27f832dfdd2cac3b3d606a0b759b5052a94fdde110633602242ea04ba442",
      "s": "0x53c93855c4f05bf1f75e8231d272bba8d753bec72050799f09e8f8efb98696af",
      "v": 27,
      "creates": null,
      "raw": "0xf86d02850e43cd8d0b83015f9094baa54d6e90c3f4d7ebec11bd180134c7ed8ebb52880de0b6b3a7640000801ba019ff27f832dfdd2cac3b3d606a0b759b5052a94fdde110633602242ea04ba442a053c93855c4f05bf1f75e8231d272bba8d753bec72050799f09e8f8efb98696af",
      "networkId": 0,
      "chainId": 0
    },
    {
      "hash": "0x767dedb0e1d41049643e9c69699edceb0075e6d8bb40725c30858db4a490adfb",
      "blockHash": "0xb20357ed9b2eeaddfb06bd63b973129907d837248908f7954f07859f41c2c115",
      "blockNumber": 51265,
      "transactionIndex": 3,
      "confirmations": null,
      "from": "0x2d9c5fECd2b44fBb6A1EC732ea059F4F1F9d2B5c",
      "gasPrice": {
        "_hex": "0xe2787d011"
      },
      "gasLimit": {
        "_hex": "0x7a120"
      },
      "to": "0xBAA54d6E90c3F4d7Ebec11bD180134C7eD8eBb52",
      "value": {
        "_hex": "0x16345785d8a0000"
      },
      "nonce": 3,
      "data": "0x",
      "r": "0xf672b73f65eaa1fe3076b808562a0079c9b56113fc58050b4df78b6ebe14c75e",
      "s": "0x516d56801e2d0bf5d0779a06fc053fffaa86a460bd89a2432c1714b944c923fc",
      "v": 27,
      "creates": null,
      "raw": "0xf86d03850e2787d0118307a12094baa54d6e90c3f4d7ebec11bd180134c7ed8ebb5288016345785d8a0000801ba0f672b73f65eaa1fe3076b808562a0079c9b56113fc58050b4df78b6ebe14c75ea0516d56801e2d0bf5d0779a06fc053fffaa86a460bd89a2432c1714b944c923fc",
      "networkId": 0,
      "chainId": 0
    }
  ]
}