{
  "hash": "0x0d6d6f6b6ac70f431a866a882c099938bca06e0ff18e4e9e3078939ab39e684b",
  "parentHash": "0xfd5cb0b8aa0b21a212d665d39cd3d3dbfa5ee73dd732be3954b61f237dde3216",
  "number": 96184,
  "timestamp": 1439736322,
  "nonce": "0xd2c3daf598fba7a1",
  "difficulty": 3653227829675,
  "gasLimit": {
    "_hex": "0x2fefd8"
  },
  "gasUsed": {
    "_hex": "0x5208"
  },
  "miner": "0x88D74a59454F6cF3B51ef6b9136AFb6b9D405A88",
  "extraData": "0x476574682f76312e302e312d38326566323666362f6c696e75782f676f312e34",
  "transactions": [
    {
      "hash": "0x7edd836016089b6d6d6f5ef9e3d97e0b889646b585c3db1a536ba0ac4b70e32a",
      "blockHash": "0x0d6d6f6b6ac70f431a866a882c099938bca06e0ff18e4e9e3078939ab39e684b",
      "blockNumber": 96184,
      "transactionIndex": 0,
      "confirmations": null,
      "from": "0x007f7f58D3eb5b7510A301eCC749FC1fCDDBE14D",
      "gasPrice": {
        "_hex": "0xcc8ddf695"
      },
      "gasLimit": {
        "_hex": "0x15f90"
      },
      "to": "0xb1abce2918E21ddb93AA452731a12672A3d9F75a",
      "value": {
        "_hex": "0x4563918244f40000"
      },
      "nonce": 75,
      "data": "0x",
      "r": "0xc0fdef3ec0982f18c84e73d52b2916171b5b888fe7d7856e3c48c2eda1b29f29",
      "s": "0x11d993900214ab7863b5ab4475b83d56608a0ebda8172afe2b891560bccb3b7a",
      "v": 27,
      "creates": null,
      "raw": "0xf86d4b850cc8ddf69583015f9094b1abce2918e21ddb93aa452731a12672a3d9f75a884563918244f40000801ba0c0fdef3ec0982f18c84e73d52b2916171b5b888fe7d7856e3c48c2eda1b29f29a011d993900214ab7863b5ab4475b83d56608a0ebda8172afe2b891560bccb3b7a",
      "networkId": 0,
      "chainId": 0
    }
  ]
}