{
  "hash": "0x21a2e3579036d6306121a10f752481b5522246764dd3b4dc5cb5c4a49267e00a",
  "parentHash": "0x394e545cb80f7782b68d5508a69dc42838bfb7cecc48d72edb1afc31e3d657b4",
  "number": 62030,
  "timestamp": 1439182393,
  "nonce": "0x9b6a70a34ea1a5b1",
  "difficulty": 1739484455325,
  "gasLimit": {
    "_hex": "0x2fefd8"
  },
  "gasUsed": {
    "_hex": "0x23e38"
  },
  "miner": "0x01d9DA08cc6Fb97c0DE1B6F4C28910A0859Ed1A1",
  "extraData": "0x476574682f76312e302e312f6c696e75782f676f312e342e32",
  "transactions": [
    {
      "hash": "0x46a356bfbeb375c8c1e7a0d6181e87c2ad08e73b85d81e446f6aeb8cef34a333",
      "blockHash": "0x21a2e3579036d6306121a10f752481b5522246764dd3b4dc5cb5c4a49267e00a",
      "blockNumber": 62030,
      "transactionIndex": 0,
      "confirmations": null,
      "from": "0x4E892e8081BF36E488FddB3b2630f3f1E8da30d2",
      "gasPrice": {
        "_hex": "0x9184e72a000"
      },
      "gasLimit": {
        "_hex": "0x15f90"
      },
      "to": "0x025c3B43d57E72D2150E14B2B0c6D923FbFC0474",
      "value": {
        "_hex": "0x3635c9adc5dea00000"
      },
      "nonce": 12,
      "data": "0x",
      "r": "0x1739657c42a8982f3cefc34e35cbbeb47b83b2b4f27fe39005ec9c25b2f242b4",
      "s": "0x5c1b0d428f985c5d492c1cff5c316e3aa42a0b864b08e83d021e674a8b0cfd8c",
      "v": 27,
      "creates": null,
      "raw": "0xf86f0c8609184e72a00083015f9094025c3b43d57e72d2150e14b2b0c6d923fbfc0474893635c9adc5dea00000801ba01739657c42a8982f3cefc34e35cbbeb47b83b2b4f27fe39005ec9c25b2f242b4a05c1b0d428f985c5d492c1cff5c316e3aa42a0b864b08e83d021e674a8b0cfd8c",
      "networkId": 0,
      "chainId": 0
    },
    {
      "hash": "0x99d125d1777c2c2cbfade38780d543b1aa857a48ad5df3d55554c0746f45e533",
      "blockHash": "0x21a2e3579036d6306121a10f752481b5522246764dd3b4dc5cb5c4a49267e00a",
      "blockNumber": 62030,
      "transactionIndex": 1,
      "confirmations": null,
      "from": "0x4E892e8081BF36E488FddB3b2630f3f1E8da30d2",
      "gasPrice": {
        "_hex": "0x9184e72a000"
      },
      "gasLimit": {
        "_hex": "0x15f90"
      },
      "to": "0x025c3B43d57E72D2150E14B2B0c6D923FbFC0474",
      "value": {
        "_hex": "0x3635c9adc5dea00000"
      },
      "nonce": 13,
      "data": "0x",
      "r": "0x292ab9554bc3d76a486e27ee131ceaac24ef56e55e7f3aafcfa177e18cf6f1d1",
      "s": "0x6af6aab68745312cd45cb8e75e53b0cb0f09d568356e5257e48fc6e3f4f3af37",
      "v": 28,
      "creates": null,
      "raw": "0xf86f0d8609184e72a00083015f9094025c3b43d57e72d2150e14b2b0c6d923fbfc0474893635c9adc5dea00000801ca0292ab9554bc3d76a486e27ee131ceaac24ef56e55e7f3aafcfa177e18cf6f1d1a06af6aab68745312cd45cb8e75e53b0cb0f09d568356e5257e48fc6e3f4f3af37",
      "networkId": 0,
      "chainId": 0
    },
    {
      "hash": "0x02a46c6213a2d156164a0ac2e0cce33aaf8b6972edbd75f1336dc47a9efc8333",
      "blockHash": "0x21a2e3579036d6306121a10f752481b5522246764dd3b4dc5cb5c4a49267e00a",
      "blockNumber": 62030,
      "transactionIndex": 2,
      "confirmations": null,
      "from": "0x4E892e8081BF36E488FddB3b2630f3f1E8da30d2",
      "gasPrice": {
        "_hex": "0x9184e72a000"
      },
      "gasLimit": {
        "_hex": "0x15f90"
      },
      "to": "0x025c3B43d57E72D2150E14B2B0c6D923FbFC0474",
      "value": {
        "_hex": "0x3635c9adc5dea00000"
      },
      "nonce": 14,
      "data": "0x",
      "r": "0x3b5ac4bf230b1e1ac6b33b009f48170ef12b2dda23fcb47703817031d5b15fcd",
      "s": "0x3410dbb7e893158b90d570e6f6b9b445474353504d88e25336ad6368ed04b780",
      "v": 28,
      "creates": null,
      "raw": "0xf86f0e8609184e72a00083015f9094025c3b43d57e72d2150e14b2b0c6d923fbfc0474893635c9adc5dea00000801ca03b5ac4bf230b1e1ac6b33b009f48170ef12b2dda23fcb47703817031d5b15fcda03410dbb7e893158b90d570e6f6b9b445474353504d88e25336ad6368ed04b780",
      "networkId": 0,
      "chainId": 0
    },
    {
      "hash": "0x0bb54823ed1505d47bd1a333edbbb3a41a65e29a1fe248104871672f3af49075",
      "blockHash": "0x21a2e3579036d6306121a10f752481b5522246764dd3b4dc5cb5c4a49267e00a",
      "blockNumber": 62030,
      "transactionIndex": 3,
      "confirmations": null,
      "from": "0x4E892e8081BF36E488FddB3b2630f3f1E8da30d2",
      "gasPrice": {
        "_hex": "0x9184e72a000"
      },
      "gasLimit": {
        "_hex": "0x15f90"
      },
      "to": "0x025c3B43d57E72D2150E14B2B0c6D923FbFC0474",
      "value": {
        "_hex": "0x3635c9adc5dea00000"
      },
      "nonce": 15,
      "data": "0x",
      "r": "0xd3af3d57aeaff654bfeb49ac2b5a41cc47633bb6a7af7fe0bdde546b852dd998",
      "s": "0x14a996a3d11849c7e81140dba67d70ca271d84c557ea8cd9147e46ca7187a209",
      "v": 28,
      "creates": null,
      "raw": "0xf86f0f8609184e72a00083015f9094025c3b43d57e72d2150e14b2b0c6d923fbfc0474893635c9adc5dea00000801ca0d3af3d57aeaff654bfeb49ac2b5a41cc47633bb6a7af7fe0bdde546b852dd998a014a996a3d11849c7e81140dba67d70ca271d84c557ea8cd9147e46ca7187a209",
      "networkId": 0,
      "chainId": 0
    },
    {
      "hash": "0xed758e7bafe50ef0e66401e639ec8322807c6cc9c5bc02f6f0bd8186e953f681",
      "blockHash": "0x21a2e3579036d6306121a10f752481b5522246764dd3b4dc5cb5c4a49267e00a",
      "blockNumber": 62030,
      "transactionIndex": 4,
      "confirmations": null,
      "from": "0x4E892e8081BF36E488FddB3b2630f3f1E8da30d2",
      "gasPrice": {
        "_hex": "0x9184e72a000"
      },
      "gasLimit": {
        "_hex": "0x15f90"
      },
      "to": "0x025c3B43d57E72D2150E14B2B0c6D923FbFC0474",
      "value": {
        "_hex": "0x3635c9adc5dea00000"
      },
      "nonce": 16,
      "data": "0x",
      "r": "0x52ef695fead1893d513248c6db399f1f78816f7775c114121571aabc805205e6",
      "s": "0x18b8e0b20569031024662e97c4721c8347fe44a444d72ae35e8dd2a1435d8e74",
      "v": 28,
      "creates": null,
      "raw": "0xf86f108609184e72a00083015f9094025c3b43d57e72d2150e14b2b0c6d923fbfc0474893635c9adc5dea00000801ca052ef695fead1893d513248c6db399f1f78816f7775c114121571aabc805205e6a018b8e0b20569031024662e97c4721c8347fe44a444d72ae35e8dd2a1435d8e74",
      "networkId": 0,
      "chainId": 0
    },
    {
      "hash": "0xbbe0679b2da7cd34764db32d392a3989a7b1e3a307f5a3bac437672e140952b4",
      "blockHash": "0x21a2e3579036d6306121a10f752481b5522246764dd3b4dc5cb5c4a49267e00a",
      "blockNumber": 62030,
      "transactionIndex": 5,
      "confirmations": null,
      "from": "0x4E892e8081BF36E488FddB3b2630f3f1E8da30d2",
      "gasPrice": {
        "_hex": "0x9184e72a000"
      },
      "gasLimit": {
        "_hex": "0x15f90"
      },
      "to": "0x025c3B43d57E72D2150E14B2B0c6D923FbFC0474",
      "value": {
        "_hex": "0x3635c9adc5dea00000"
      },
      "nonce": 17,
      "data": "0x",
      "r": "0x4e6bf6294f3f90c7c7484542dca1f3e642630819669ba8f8c1d3f5b5b3ee62a2",
      "s": "0x5db8e0fd05a91a6d4d86e8926668a69f091747e7f4a936398606887e6bf5212a",
      "v": 28,
      "creates": null,
      "raw": "0xf86f118609184e72a00083015f9094025c3b43d57e72d2150e14b2b0c6d923fbfc0474893635c9adc5dea00000801ca04e6bf6294f3f90c7c7484542dca1f3e642630819669ba8f8c1d3f5b5b3ee62a2a05db8e0fd05a91a6d4d86e8926668a69f091747e7f4a936398606887e6bf5212a",
      "networkId": 0,
      "chainId": 0
    },
    {
      "hash": "0xd115240d6c79fee1325043121ead7a803de1231d4ed4a8f03d8610c6cb0b8cc9",
      "blockHash": "0x21a2e3579036d6306121a10f752481b5522246764dd3b4dc5cb5c4a49267e00a",
      "blockNumber": 62030,
      "transactionIndex": 6,
      "confirmations": null,
      "from": "0xF5EeDc192aB70b08D8354384aD94efD095849E00",
      "gasPrice": {
        "_hex": "0xd0d5a26cb"
      },
      "gasLimit": {
        "_hex": "0x5208"
      },
      "to": "0x32Be343B94f860124dC4fEe278FDCBD38C102D88",
      "value": {
        "_hex": "0x56bc32f807f23c000"
      },
      "nonce": 18,
      "data": "0x",
      "r": "0x0ac7990a07c81ba417bdbc22ae754454bf7ffeea5f1fd42bc5fb830898d3d92f",
      "s": "0x5900787c01b978eac42d26df1da2e609a4d716d3e16d4db6a7499cc10b9f077b",
      "v": 27,
      "creates": null,
      "raw": "0xf86d12850d0d5a26cb8252089432be343b94f860124dc4fee278fdcbd38c102d8889056bc32f807f23c000801ba00ac7990a07c81ba417bdbc22ae754454bf7ffeea5f1fd42bc5fb830898d3d92fa05900787c01b978eac42d26df1da2e609a4d716d3e16d4db6a7499cc10b9f077b",
      "networkId": 0,
      "chainId": 0
    }
  ]
}