{
  "hash": "0x7c945a3e0912587ebc1fab67eb82fb38b60e6bbc7e9da9acde5579b9f3a345d3",
  "parentHash": "0x632aa0ef6d340023556415d00d87b37aaff112b4663d3db956df70c98c5aebff",
  "number": 121869,
  "timestamp": 1440184027,
  "nonce": "0x3e53e7a818781bcc",
  "difficulty": 4481997288613,
  "gasLimit": {
    "_hex": "0x2fefd8"
  },
  "gasUsed": {
    "_hex": "0x14820"
  },
  "miner": "0x9D49F602b0fdb924Bd63DDE2Bd0907E4A07c63a7",
  "extraData": "0x",
  "transactions": [
    {
      "hash": "0x32126e5466b05f9b171ab12add9314f9d14826c75cdfe203de7f1785dbf9a2c9",
      "blockHash": "0x7c945a3e0912587ebc1fab67eb82fb38b60e6bbc7e9da9acde5579b9f3a345d3",
      "blockNumber": 121869,
      "transactionIndex": 0,
      "confirmations": null,
      "from": "0xe6A7a1d47ff21B6321162AEA7C6CB457D5476Bca",
      "gasPrice": {
        "_hex": "0xba43b7400"
      },
      "gasLimit": {
        "_hex": "0x55f0"
      },
      "to": "0x799Ac9F93b43E63D97F25A436C440470FEF05037",
      "value": {
        "_hex": "0xde5d65267b7fce0"
      },
      "nonce": 6368,
      "data": "0x",
      "r": "0x20d56bf64a1aaf244d8d44f4eb5a5888024aeedbc359dcd9aaefcd32c6560b09",
      "s": "0x2386353310fa00890eb63bdc25edd51bb856d11efabf4e037f01e21ed124e366",
      "v": 28,
      "creates": null,
      "raw": "0xf86e8218e0850ba43b74008255f094799ac9f93b43e63d97f25a436c440470fef05037880de5d65267b7fce0801ca020d56bf64a1aaf244d8d44f4eb5a5888024aeedbc359dcd9aaefcd32c6560b09a02386353310fa00890eb63bdc25edd51bb856d11efabf4e037f01e21ed124e366",
      "networkId": 0,
      "chainId": 0
    },
    {
      "hash": "0x783e363b83e7ab7781c10f3da46ada67445c31b8674fa423db2ab9e6e5badcfb",
      "blockHash": "0x7c945a3e0912587ebc1fab67eb82fb38b60e6bbc7e9da9acde5579b9f3a345d3",
      "blockNumber": 121869,
      "transactionIndex": 1,
      "confirmations": null,
      "from": "0xe6A7a1d47ff21B6321162AEA7C6CB457D5476Bca",
      "gasPrice": {
        "_hex": "0xba43b7400"
      },
      "gasLimit": {
        "_hex": "0x55f0"
      },
      "to": "0x448E4618632ceF5803aadEcAef7beFC9AFB31aBF",
      "value": {
        "_hex": "0xdf9554174e2a40c"
      },
      "nonce": 6369,
      "data": "0x",
      "r": "0x54733cec1c4621e0bf55f42e93465d8850f04e9b2aea416cd28c9d3df5417783",
      "s": "0x1c6ab9409109016b14036e5a795ab56721e10ad629f9078d58b83c45dddded9e",
      "v": 28,
      "creates": null,
      "raw": "0xf86e8218e1850ba43b74008255f094448e4618632cef5803aadecaef7befc9afb31abf880df9554174e2a40c801ca054733cec1c4621e0bf55f42e93465d8850f04e9b2aea416cd28c9d3df5417783a01c6ab9409109016b14036e5a795ab56721e10ad629f9078d58b83c45dddded9e",
      "networkId": 0,
      "chainId": 0
    },
    {
      "hash": "0x87863f12d16d6027a945be78e453c7734c7ff8380e4cd9359d2687ff2ae3defa",
      "blockHash": "0x7c945a3e0912587ebc1fab67eb82fb38b60e6bbc7e9da9acde5579b9f3a345d3",
      "blockNumber": 121869,
      "transactionIndex": 2,
      "confirmations": null,
      "from": "0xe6A7a1d47ff21B6321162AEA7C6CB457D5476Bca",
      "gasPrice": {
        "_hex": "0xba43b7400"
      },
      "gasLimit": {
        "_hex": "0x55f0"
      },
      "to": "0x64bE1C1A0198370F53B2081e15478BE3135D6beF",
      "value": {
        "_hex": "0xe0e016d0af3a964"
      },
      "nonce": 6370,
      "data": "0x",
      "r": "0x04096624c28b9b81dc6746fb77134f2f85f105ef8bc1329fb4d63bdfe628756a",
      "s": "0x7f0dabebe080b8af2aab4a774483f3017734e95a279d0b547a5e44b59064ad0b",
      "v": 28,
      "creates": null,
      "raw": "0xf86e8218e2850ba43b74008255f09464be1c1a0198370f53b2081e15478be3135d6bef880e0e016d0af3a964801ca004096624c28b9b81dc6746fb77134f2f85f105ef8bc1329fb4d63bdfe628756aa07f0dabebe080b8af2aab4a774483f3017734e95a279d0b547a5e44b59064ad0b",
      "networkId": 0,
      "chainId": 0
    },
    {
      "hash": "0x6dc88081ed2019824860edc545506b6fd478dd7abfb0d5f72ec5a64cc8018ad8",
      "blockHash": "0x7c945a3e0912587ebc1fab67eb82fb38b60e6bbc7e9da9acde5579b9f3a345d3",
      "blockNumber": 121869,
      "transactionIndex": 3,
      "confirmations": null,
      "from": "0xe6A7a1d47ff21B6321162AEA7C6CB457D5476Bca",
      "gasPrice": {
        "_hex": "0xba43b7400"
      },
      "gasLimit": {
        "_hex": "0x55f0"
      },
      "to": "0x3831A4852c55a662aFcFB2a03e8DE8D5899AC4f2",
      "value": {
        "_hex": "0xe11cdd85567b324"
      },
      "nonce": 6371,
      "data": "0x",
      "r": "0x4364c2dc1759e1306da96f4ebc2d8b386349ddb92547139f3a31a8fa8c99729c",
      "s": "0x083c8274fdf1c0ad7ef6a9aefaade5d18c638a251e791635d6af34c40666d90d",
      "v": 27,
      "creates": null,
      "raw": "0xf86e8218e3850ba43b74008255f0943831a4852c55a662afcfb2a03e8de8d5899ac4f2880e11cdd85567b324801ba04364c2dc1759e1306da96f4ebc2d8b386349ddb92547139f3a31a8fa8c99729ca0083c8274fdf1c0ad7ef6a9aefaade5d18c638a251e791635d6af34c40666d90d",
      "networkId": 0,
      "chainId": 0
    }
  ]
}