{
  "hash": "0x036bc1023b78bcaa2a2c707024b0c8bec97836dc5777a0ff743ad9bcbcaa1500",
  "parentHash": "0x1e6944c7c7045ae156332f2a530c146fc3427c7b6a73318a87fdc93d7a043c5d",
  "number": 55880,
  "timestamp": 1439078579,
  "nonce": "0x73b96427e60eba19",
  "difficulty": 1608368558847,
  "gasLimit": {
    "_hex": "0x2fefd8"
  },
  "gasUsed": {
    "_hex": "0xf618"
  },
  "miner": "0x55bAf64fc9eAccFFd7Cc643BB61142E1C6ac093e",
  "extraData": "0x",
  "transactions": [
    {
      "hash": "0xe8bb3a2153f73b8bd1174dd57ed1b53f8608404671f956237f7ff33ab6b0d7e7",
      "blockHash": "0x036bc1023b78bcaa2a2c707024b0c8bec97836dc5777a0ff743ad9bcbcaa1500",
      "blockNumber": 55880,
      "transactionIndex": 0,
      "confirmations": null,
      "from": "0x120A270bbC009644e35F0bB6ab13f95b8199c4ad",
      "gasPrice": {
        "_hex": "0xdfb1b6938"
      },
      "gasLimit": {
        "_hex": "0x15f90"
      },
      "to": "0xb7D2dA6be86fA2bA1aF36d09448F029e438Fc419",
      "value": {
        "_hex": "0x1b1ae4d6e2ef500000"
      },
      "nonce": 23,
      "data": "0x",
      "r": "0x8eb11d89fe77e8144997e5811fad0c61a4c2029ef214c31dbacce4c588ee832f",
      "s": "0x2737140e70bae8e53217fae3fce363bc556918c08887e8fa2ad75810ace3a0f2",
      "v": 27,
      "creates": null,
      "raw": "0xf86e17850dfb1b693883015f9094b7d2da6be86fa2ba1af36d09448f029e438fc419891b1ae4d6e2ef500000801ba08eb11d89fe77e8144997e5811fad0c61a4c2029ef214c31dbacce4c588ee832fa02737140e70bae8e53217fae3fce363bc556918c08887e8fa2ad75810ace3a0f2",
      "networkId": 0,
      "chainId": 0
    },
    {
      "hash": "0x5d7da11da9c2d87e0da8eb19bc76eb7d2a6e879198ad17781a1293fb568eb715",
      "blockHash": "0x036bc1023b78bcaa2a2c707024b0c8bec97836dc5777a0ff743ad9bcbcaa1500",
      "blockNumber": 55880,
      "transactionIndex": 1,
      "confirmations": null,
      "from": "0x8AED25fA758454f45b7cABa6275aB50C5A8BfC70",
      "gasPrice": {
        "_hex": "0xd737f4a1e"
      },
      "gasLimit": {
        "_hex": "0x15f90"
      },
      "to": "0x120A270bbC009644e35F0bB6ab13f95b8199c4ad",
      "value": {
        "_hex": "0x10da2cf2ab97800"
      },
      "nonce": 0,
      "data": "0x",
      "r": "0x6f65cac7a772c1daf4a1e110b63706426ff6e1e21b210e60d10163548970b7c8",
      "s": "0x208086e183e0637788dc6fcb93b4e2b692bd1b26ee3b2d72700d79be7ccbd260",
      "v": 27,
      "creates": null,
      "raw": "0xf86d80850d737f4a1e83015f9094120a270bbc009644e35f0bb6ab13f95b8199c4ad88010da2cf2ab97800801ba06f65cac7a772c1daf4a1e110b63706426ff6e1e21b210e60d10163548970b7c8a0208086e183e0637788dc6fcb93b4e2b692bd1b26ee3b2d72700d79be7ccbd260",
      "networkId": 0,
      "chainId": 0
    },
    {
      "hash": "0xe8ce9c9bd44f780d1ba52f31527e3bac55121380d389f33ce26208e8c4eed0dc",
      "blockHash": "0x036bc1023b78bcaa2a2c707024b0c8bec97836dc5777a0ff743ad9bcbcaa1500",
      "blockNumber": 55880,
      "transactionIndex": 2,
      "confirmations": null,
      "from": "0xCC9c3F36a2228f8d97744D0be681fF48525dCc36",
      "gasPrice": {
        "_hex": "0xd737f4a1e"
      },
      "gasLimit": {
        "_hex": "0x15f90"
      },
      "to": "0x120A270bbC009644e35F0bB6ab13f95b8199c4ad",
      "value": {
        "_hex": "0x10a457927f4d2b0000"
      },
      "nonce": 0,
      "data": "0x",
      "r": "0x8a7349a3c80680343856469c412ae35f72ed5d0580b6f13fd9f5d10ef81769a7",
      "s": "0x074a10645d1c0ab83c15b70b768ba12468720ddd1e05664634f22f4d079ca050",
      "v": 28,
      "creates": null,
      "raw": "0xf86e80850d737f4a1e83015f9094120a270bbc009644e35f0bb6ab13f95b8199c4ad8910a457927f4d2b0000801ca08a7349a3c80680343856469c412ae35f72ed5d0580b6f13fd9f5d10ef81769a7a0074a10645d1c0ab83c15b70b768ba12468720ddd1e05664634f22f4d079ca050",
      "networkId": 0,
      "chainId": 0
    }
  ]
}