{
  "hash": "0x2a9428408e3228010082f35d45cc718019f586454eb3d20e590f2c7e8f38d0e9",
  "parentHash": "0xe8c6c5fec34bb07a20f2ab7965c601bb0516bb17dc0544fb2c879e79eaa83e0d",
  "number": 72608,
  "timestamp": 1439355446,
  "nonce": "0x91b29968f350bfe2",
  "difficulty": 2193999730921,
  "gasLimit": {
    "_hex": "0x2fefd5"
  },
  "gasUsed": {
    "_hex": "0x5518"
  },
  "miner": "0x88D74a59454F6cF3B51ef6b9136AFb6b9D405A88",
  "extraData": "0x476574682f76312e302e312d37666266393930632f6c696e75782f676f312e34",
  "transactions": [
    {
      "hash": "0xed910e50ee9d14d421e903941aae89e79f6b9f6e361a9b0e3d40b48179e36f3b",
      "blockHash": "0x2a9428408e3228010082f35d45cc718019f586454eb3d20e590f2c7e8f38d0e9",
      "blockNumber": 72608,
      "transactionIndex": 0,
      "confirmations": null,
      "from": "0x326Be8F71bFb0379f989aAB1CC1fE37f0a771f60",
      "gasPrice": {
        "_hex": "0x10dc90d85e7"
      },
      "gasLimit": {
        "_hex": "0x15f90"
      },
      "to": "0xAE3703584494Ade958AD27EC2d289b7a67c19E90",
      "value": {
        "_hex": "0x0"
      },
      "nonce": 9,
      "data": "0x2e1a7d4d0000000000000000000000000000000000000000000000000de0b6b3a7640000",
      "r": "0xad61231727e9655ed87eb928adf353f59e4337e514f33e731c7892507985fec4",
      "s": "0x59a5ed6db7abb7062985c476618be29f45594166adf484791aa7da39729854cd",
      "v": 28,
      "creates": null,
      "raw": "0xf88a0986010dc90d85e783015f9094ae3703584494ade958ad27ec2d289b7a67c19e9080a42e1a7d4d0000000000000000000000000000000000000000000000000de0b6b3a76400001ca0ad61231727e9655ed87eb928adf353f59e4337e514f33e731c7892507985fec4a059a5ed6db7abb7062985c476618be29f45594166adf484791aa7da39729854cd",
      "networkId": 0,
      "chainId": 0
    }
  ]
}