{
  "hash": "0x580bdcf1da3c843905845eaa1932269202d1ad59916b0948add899d59e392931",
  "parentHash": "0x8301354bd48eb1a0ab49e249713bfaa1453bdcdee27ee6857b7ea30192d13365",
  "number": 52603,
  "timestamp": 1439024168,
  "nonce": "0xd76e100c5459bbb2",
  "difficulty": 1569423965251,
  "gasLimit": {
    "_hex": "0x162917"
  },
  "gasUsed": {
    "_hex": "0xf4240"
  },
  "miner": "0xe6A7a1d47ff21B6321162AEA7C6CB457D5476Bca",
  "extraData": "0x657468706f6f6c2e6f7267",
  "transactions": [
    {
      "hash": "0xd750ac8e285a0522b5d5b17718e6b8d6167f349d50b5afd969a2b9818106c944",
      "blockHash": "0x580bdcf1da3c843905845eaa1932269202d1ad59916b0948add899d59e392931",
      "blockNumber": 52603,
      "transactionIndex": 0,
      "confirmations": null,
      "from": "0x54dAeb3E8a6BBC797E4aD2b0339f134b186e4637",
      "gasPrice": {
        "_hex": "0xe7d27df17"
      },
      "gasLimit": {
        "_hex": "0x7a120"
      },
      "to": "0xBAA54d6E90c3F4d7Ebec11bD180134C7eD8eBb52",
      "value": {
        "_hex": "0x16345785d8a0000"
      },
      "nonce": 785,
      "data": "0x",
      "r": "0x8f98fb4ed9761210a0595f9ca1ae6f9011bb6ac9f03c23da37c6f48f8110926c",
      "s": "0x1a5ac0c129c269ae64a913dbf8b09fccbb113cb4346a289b535bedc25549ed24",
      "v": 27,
      "creates": null,
      "raw": "0xf86f820311850e7d27df178307a12094baa54d6e90c3f4d7ebec11bd180134c7ed8ebb5288016345785d8a0000801ba08f98fb4ed9761210a0595f9ca1ae6f9011bb6ac9f03c23da37c6f48f8110926ca01a5ac0c129c269ae64a913dbf8b09fccbb113cb4346a289b535bedc25549ed24",
      "networkId": 0,
      "chainId": 0
    },
    {
      "hash": "0x4b604771b36a0ddcd6d867b8aaef6ea7d7f1388d91b28fcc27e3ef810edf4148",
      "blockHash": "0x580bdcf1da3c843905845eaa1932269202d1ad59916b0948add899d59e392931",
      "blockNumber": 52603,
      "transactionIndex": 1,
      "confirmations": null,
      "from": "0x54dAeb3E8a6BBC797E4aD2b0339f134b186e4637",
      "gasPrice": {
        "_hex": "0xdf4ba21f9"
      },
      "gasLimit": {
        "_hex": "0x7a120"
      },
      "to": "0xBAA54d6E90c3F4d7Ebec11bD180134C7eD8eBb52",
      "value": {
        "_hex": "0x16345785d8a0000"
      },
      "nonce": 786,
      "data": "0x",
      "r": "0xbeba4683c721278678a40ff8ee53e82de28c2a60cfa7be7e8e3d92a28a2903d7",
      "s": "0x173ce620df67ccec9252f028f3f7bc7bc7a51507dddcb4311b6ee4fd926bd335",
      "v": 27,
      "creates": null,
      "raw": "0xf86f820312850df4ba21f98307a12094baa54d6e90c3f4d7ebec11bd180134c7ed8ebb5288016345785d8a0000801ba0beba4683c721278678a40ff8ee53e82de28c2a60cfa7be7e8e3d92a28a2903d7a0173ce620df67ccec9252f028f3f7bc7bc7a51507dddcb4311b6ee4fd926bd335",
      "networkId": 0,
      "chainId": 0
    }
  ]
}