{
  "hash": "0x86bae224f663c1eb8d6186b1a853c97e11ef0b8388b60c813524ae7c80cfac58",
  "parentHash": "0xd3729732f60c8896cfc520d9c840d17d8122329f1dfb49528d56d8e437744f56",
  "number": 113692,
  "timestamp": 1440027868,
  "nonce": "0xe1a93585f205b0c1",
  "difficulty": 4457980621954,
  "gasLimit": {
    "_hex": "0x2fefd8"
  },
  "gasUsed": {
    "_hex": "0x546c"
  },
  "miner": "0xe6A7a1d47ff21B6321162AEA7C6CB457D5476Bca",
  "extraData": "0x476574682f76312e302e312d38326566323666362f6c696e75782f676f312e34",
  "transactions": [
    {
      "hash": "0x76db30e1a98367f564fa7ff16146ce63f856ff7702e99fc7079415cc00139adb",
      "blockHash": "0x86bae224f663c1eb8d6186b1a853c97e11ef0b8388b60c813524ae7c80cfac58",
      "blockNumber": 113692,
      "transactionIndex": 0,
      "confirmations": null,
      "from": "0xE3263cE8af6db3e467584502eD7109125EaE22A5",
      "gasPrice": {
        "_hex": "0x110c8f7d8de"
      },
      "gasLimit": {
        "_hex": "0xc350"
      },
      "to": "0x2910543Af39abA0Cd09dBb2D50200b3E800A63D2",
      "value": {
        "_hex": "0x35ab028ac154b80000"
      },
      "nonce": 1,
      "data": "0x454e5731464a395a30",
      "r": "0xc9b1517fda9720f86bdc66a781089b88d921780010e6fe7066f67cebc6d5a926",
      "s": "0x7e2de295d8a13a2510f6373218d8aa57ceb6a21b695c4c94949aa30732fb84f7",
      "v": 27,
      "creates": null,
      "raw": "0xf87701860110c8f7d8de82c350942910543af39aba0cd09dbb2d50200b3e800a63d28935ab028ac154b8000089454e5731464a395a301ba0c9b1517fda9720f86bdc66a781089b88d921780010e6fe7066f67cebc6d5a926a07e2de295d8a13a2510f6373218d8aa57ceb6a21b695c4c94949aa30732fb84f7",
      "networkId": 0,
      "chainId": 0
    }
  ]
}