{
  "hash": "0x4e8c3dded2a6a2f24d7b225b140156f3e61b3da48d2ab438f04138dfe2c6f3a5",
  "parentHash": "0x1425352696a8d2ee5bb3a5e1e058b54d24596de057d019bab549d91cc3866778",
  "number": 83236,
  "timestamp": 1439532396,
  "nonce": "0xe366f68bf0618e18",
  "difficulty": 2413647232157,
  "gasLimit": {
    "_hex": "0x2fefd8"
  },
  "gasUsed": {
    "_hex": "0x5208"
  },
  "miner": "0x9746c7e1ef2bd21FF3997fa467593a89cb852BD0",
  "extraData": "0x476574682f76312e302e312f77696e646f77732f676f312e342e32",
  "transactions": [
    {
      "hash": "0xefd50d179f9492ab1e212dfb6eaa4861caf40b29d7193ca632635587bfaee68b",
      "blockHash": "0x4e8c3dded2a6a2f24d7b225b140156f3e61b3da48d2ab438f04138dfe2c6f3a5",
      "blockNumber": 83236,
      "transactionIndex": 0,
      "confirmations": null,
      "from": "0xF78645Ea06d743C6B52a11EB3f3d486bbb4Cf01F",
      "gasPrice": {
        "_hex": "0x1086f7ade1c"
      },
      "gasLimit": {
        "_hex": "0x15f90"
      },
      "to": "0x6A8CC233E14F874983bB2F37D1DE706f6910Ef0b",
      "value": {
        "_hex": "0x63bf212b431ec0000"
      },
      "nonce": 6,
      "data": "0x",
      "r": "0xd98e6e1c910c8607f1eb640fb9c534ed1ce80d3871efc4dd89ef8e64867449ee",
      "s": "0x11b80342934b4a9750348fb38355b3442461b9ecfe5b91a1ae0f511e3c0dde0c",
      "v": 28,
      "creates": null,
      "raw": "0xf86f068601086f7ade1c83015f90946a8cc233e14f874983bb2f37d1de706f6910ef0b89063bf212b431ec0000801ca0d98e6e1c910c8607f1eb640fb9c534ed1ce80d3871efc4dd89ef8e64867449eea011b80342934b4a9750348fb38355b3442461b9ecfe5b91a1ae0f511e3c0dde0c",
      "networkId": 0,
      "chainId": 0
    }
  ]
}