{
  "hash": "0xcc077163c71f61fe65552f13dd1345aac781262216841cf97a08fc4714e955a8",
  "parentHash": "0x0d9354e3fd2f79c7762d796c116a1e6cf653200f4a905ff7798d83a1c0128f48",
  "number": 55799,
  "timestamp": 1439077305,
  "nonce": "0x2f000d8ed0aa60da",
  "difficulty": 1602896066558,
  "gasLimit": {
    "_hex": "0x2fefd5"
  },
  "gasUsed": {
    "_hex": "0x9687"
  },
  "miner": "0xc672B41FCC9441EeB20f8d1b4342DE7A982eBAb4",
  "extraData": "0x476574682f76312e302e312f77696e646f77732f676f312e342e32",
  "transactions": [
    {
      "hash": "0x169ad8d9a8c723cb6ee5fe9dc734d14c03f84b143805269a6dea8699a29cc74a",
      "blockHash": "0xcc077163c71f61fe65552f13dd1345aac781262216841cf97a08fc4714e955a8",
      "blockNumber": 55799,
      "transactionIndex": 0,
      "confirmations": null,
      "from": "0xFD2605a2bF58fDbB90db1Da55dF61628B47F9e8c",
      "gasPrice": {
        "_hex": "0xccc183d96"
      },
      "gasLimit": {
        "_hex": "0x186a0"
      },
      "to": "0x7573ACa378B8417623caD233954fdE810CaD9fB4",
      "value": {
        "_hex": "0x16345785d8a0000"
      },
      "nonce": 18,
      "data": "0xe5423274da2ecaf9095ee629edf549956a1413539ab599ecf7169032c000000000000000",
      "r": "0x4c49d6a06cf7edc5622d2a9c17d4373ac1f348ce20d98f39add77c31e16ab3d9",
      "s": "0x39166d838599231f3204f7deed715e3e41d876b8dafbd42f35fc4def1011e3c4",
      "v": 28,
      "creates": null,
      "raw": "0xf89112850ccc183d96830186a0947573aca378b8417623cad233954fde810cad9fb488016345785d8a0000a4e5423274da2ecaf9095ee629edf549956a1413539ab599ecf7169032c0000000000000001ca04c49d6a06cf7edc5622d2a9c17d4373ac1f348ce20d98f39add77c31e16ab3d9a039166d838599231f3204f7deed715e3e41d876b8dafbd42f35fc4def1011e3c4",
      "networkId": 0,
      "chainId": 0
    }
  ]
}