{
  "hash": "0x81ccce57c3d265a135709ea79b59b40c4ec7fd7364c632fead4eb9bfaa942515",
  "parentHash": "0xefebf5242bc9f0ef751b0c32ea65b549d971e99a1095692578addb551985719e",
  "number": 93421,
  "timestamp": 1439690097,
  "nonce": "0x9dfb4b6e57707cf7",
  "difficulty": 3492194479029,
  "gasLimit": {
    "_hex": "0x2fefd5"
  },
  "gasUsed": {
    "_hex": "0xa410"
  },
  "miner": "0x7E6930B63D03e88F5928C5cd6ee3FCee4D714F7F",
  "extraData": "0x",
  "transactions": [
    {
      "hash": "0xe8e625527626ddc3261febae902907f9b48736b1ffee5a0245470920a7b8e1df",
      "blockHash": "0x81ccce57c3d265a135709ea79b59b40c4ec7fd7364c632fead4eb9bfaa942515",
      "blockNumber": 93421,
      "transactionIndex": 0,
      "confirmations": null,
      "from": "0x32Be343B94f860124dC4fEe278FDCBD38C102D88",
      "gasPrice": {
        "_hex": "0xdbc6b31e0"
      },
      "gasLimit": {
        "_hex": "0x5208"
      },
      "to": "0x00cDBe22d1E508635F75Ee617b459595072c9229",
      "value": {
        "_hex": "0x7ce433e1bb87f0000"
      },
      "nonce": 917,
      "data": "0x",
      "r": "0xbf55744c3b6d6fa3f52d6590097bb40d3e7acfb2a8aa71ee463f75a12039af82",
      "s": "0x57a7be13c06dfe8c2f54686f7906a6af75dd89461054b53d8ed5b751a7bb38ca",
      "v": 27,
      "creates": null,
      "raw": "0xf86f820395850dbc6b31e08252089400cdbe22d1e508635f75ee617b459595072c92298907ce433e1bb87f0000801ba0bf55744c3b6d6fa3f52d6590097bb40d3e7acfb2a8aa71ee463f75a12039af82a057a7be13c06dfe8c2f54686f7906a6af75dd89461054b53d8ed5b751a7bb38ca",
      "networkId": 0,
      "chainId": 0
    },
    {
      "hash": "0xee8e1698f307332e2e0ce752a07da2ae382c161132deac83554a1ad1d43658b0",
      "blockHash": "0x81ccce57c3d265a135709ea79b59b40c4ec7fd7364c632fead4eb9bfaa942515",
      "blockNumber": 93421,
      "transactionIndex": 1,
      "confirmations": null,
      "from": "0x0092C5f887DD0e13E43dBDbcedFa02e332C11FDb",
      "gasPrice": {
        "_hex": "0xdbc6b31e0"
      },
      "gasLimit": {
        "_hex": "0x5208"
      },
      "to": "0x32Be343B94f860124dC4fEe278FDCBD38C102D88",
      "value": {
        "_hex": "0x14526f43e73b2800000"
      },
      "nonce": 3,
      "data": "0x",
      "r": "0xeecea9285f44a3f8988b21dcbf93a962e1856a7ff9b2555417261a49f1696472",
      "s": "0x547cfceba07a30a777518a371cff20f2cf5c6634c009de085b5a85c7d2bf2016",
      "v": 28,
      "creates": null,
      "raw": "0xf86e03850dbc6b31e08252089432be343b94f860124dc4fee278fdcbd38c102d888a014526f43e73b2800000801ca0eecea9285f44a3f8988b21dcbf93a962e1856a7ff9b2555417261a49f1696472a0547cfceba07a30a777518a371cff20f2cf5c6634c009de085b5a85c7d2bf2016",
      "networkId": 0,
      "chainId": 0
    }
  ]
}