{
  "hash": "0x2c38dff5b967e8865a8b81a125c93a651430548a31f61ff2efe2dd152ad1833c",
  "parentHash": "0x2d88a965eeb40bd48899df39a2f46c50c2ca1e93f73d207b8eefb32d5347152e",
  "number": 64887,
  "timestamp": 1439227837,
  "nonce": "0xb1358df46313fddd",
  "difficulty": 1907003881158,
  "gasLimit": {
    "_hex": "0x2fefd8"
  },
  "gasUsed": {
    "_hex": "0x11074"
  },
  "miner": "0xF7e66D2622220807d8696064E94ca24b1dC6e7Da",
  "extraData": "0x",
  "transactions": [
    {
      "hash": "0xe53a2ab6f401da29b6461eb184a7323efb577c1fcb5c04ca8a74bcf1b6597820",
      "blockHash": "0x2c38dff5b967e8865a8b81a125c93a651430548a31f61ff2efe2dd152ad1833c",
      "blockNumber": 64887,
      "transactionIndex": 0,
      "confirmations": null,
      "from": "0x120A270bbC009644e35F0bB6ab13f95b8199c4ad",
      "gasPrice": {
        "_hex": "0xd628f8da9"
      },
      "gasLimit": {
        "_hex": "0x15f90"
      },
      "to": "0x6aCdB36b4ba1c50356c8A71e94B1361448dDAfF9",
      "value": {
        "_hex": "0x1179ae520e8a24d000"
      },
      "nonce": 118,
      "data": "0x",
      "r": "0xa7df20eca5a44b98fdb8200209269776d28cc9124f0553edb2e20af53339fb2f",
      "s": "0x64d0623765838ebf6bc929e4f245278bd64fd998d38a07666517a7ebf20b47d7",
      "v": 28,
      "creates": null,
      "raw": "0xf86e76850d628f8da983015f90946acdb36b4ba1c50356c8a71e94b1361448ddaff9891179ae520e8a24d000801ca0a7df20eca5a44b98fdb8200209269776d28cc9124f0553edb2e20af53339fb2fa064d0623765838ebf6bc929e4f245278bd64fd998d38a07666517a7ebf20b47d7",
      "networkId": 0,
      "chainId": 0
    },
    {
      "hash": "0xf838aba13c00361ec4e343d3615c66ef7b167448115da8062826ec2915d72323",
      "blockHash": "0x2c38dff5b967e8865a8b81a125c93a651430548a31f61ff2efe2dd152ad1833c",
      "blockNumber": 64887,
      "transactionIndex": 1,
      "confirmations": null,
      "from": "0xFbCcc32d5a80b36bA4FE32e3CE075748191Ab6c3",
      "gasPrice": {
        "_hex": "0xba43b7400"
      },
      "gasLimit": {
        "_hex": "0x15f90"
      },
      "to": "0x793AE8C1b1a160BFc07BFB0d04F85eab1A71F4f2",
      "value": {
        "_hex": "0x0"
      },
      "nonce": 0,
      "data": "0x3ba15036",
      "r": "0x534d1ea40be70de96df4c391b2d0b60214b22ef1efa11633cca45a5d2f855c9e",
      "s": "0x3df3a18d125da613a38c7a5c4a9d9f7b7953dc3baaf82d3eb5e726433223f6da",
      "v": 27,
      "creates": null,
      "raw": "0xf86980850ba43b740083015f9094793ae8c1b1a160bfc07bfb0d04f85eab1a71f4f280843ba150361ba0534d1ea40be70de96df4c391b2d0b60214b22ef1efa11633cca45a5d2f855c9ea03df3a18d125da613a38c7a5c4a9d9f7b7953dc3baaf82d3eb5e726433223f6da",
      "networkId": 0,
      "chainId": 0
    }
  ]
}