{
  "hash": "0xa07cc0d7df8bffc0907295518c985816a2bf6f36136015ec7b19118834dded51",
  "parentHash": "0xf43765f66c8de486fccd92e57bf2e03e7e5456e045464bc3199c103843a0e191",
  "number": 46738,
  "timestamp": 1438928385,
  "nonce": "0xa5a7f73ee6c7a7f8",
  "difficulty": 1453204457343,
  "gasLimit": {
    "_hex": "0x75b9"
  },
  "gasUsed": {
    "_hex": "0x5208"
  },
  "miner": "0xB7f5530DF01aeFE061dAbFA6E778eE694157A71f",
  "extraData": "0x476574682f76312e302e312f6c696e75782f676f312e342e32",
  "transactions": [
    {
      "hash": "0x67b7c2f6696d6d62acb190c080d027dc8d4ff7ed9d5dab668193921825af63b5",
      "blockHash": "0xa07cc0d7df8bffc0907295518c985816a2bf6f36136015ec7b19118834dded51",
      "blockNumber": 46738,
      "transactionIndex": 0,
      "confirmations": null,
      "from": "0x3b2367F8494B5Fe18d683c055d89999C9f3D1B34",
      "gasPrice": {
        "_hex": "0x45d964b800"
      },
      "gasLimit": {
        "_hex": "0x5208"
      },
      "to": "0xD1F647c106B7C9ed6Fdb157979744C4Acf521A40",
      "value": {
        "_hex": "0x21e19e0c9bab2400000"
      },
      "nonce": 0,
      "data": "0x",
      "r": "0x953e7f524b60e1a53735bd31527e24d8884100d8dbfff37ddb00de35aa0d2ca8",
      "s": "0x3055b69c9e8db16e596772843fd4dd86b0003dd375e2081d04ccd5ac6c687088",
      "v": 27,
      "creates": null,
      "raw": "0xf86e808545d964b80082520894d1f647c106b7c9ed6fdb157979744c4acf521a408a021e19e0c9bab2400000801ba0953e7f524b60e1a53735bd31527e24d8884100d8dbfff37ddb00de35aa0d2ca8a03055b69c9e8db16e596772843fd4dd86b0003dd375e2081d04ccd5ac6c687088",
      "networkId": 0,
      "chainId": 0
    }
  ]
}