{
  "hash": "0x6842c8b15b0a7e6881003ee6db3d52e8d4f89ca6f8fd8aed5064c226e17e140b",
  "parentHash": "0x25699d41defdf02639b521dc6ffac4bb7267c476711f40597a190308a547857a",
  "number": 66324,
  "timestamp": 1439252542,
  "nonce": "0xf9c2409f1117893f",
  "difficulty": 1937648918752,
  "gasLimit": {
    "_hex": "0x2fefd8"
  },
  "gasUsed": {
    "_hex": "0x5208"
  },
  "miner": "0xf927a40C8B7F6E07c5af7FA2155B4864a4112B13",
  "extraData": "0x",
  "transactions": [
    {
      "hash": "0x3a11c07185035fc1ee59e1ad4d288d2e8a6cf3487ac7ab94d52af69890eacc28",
      "blockHash": "0x6842c8b15b0a7e6881003ee6db3d52e8d4f89ca6f8fd8aed5064c226e17e140b",
      "blockNumber": 66324,
      "transactionIndex": 0,
      "confirmations": null,
      "from": "0x2910543Af39abA0Cd09dBb2D50200b3E800A63D2",
      "gasPrice": {
        "_hex": "0xd1e1b5963"
      },
      "gasLimit": {
        "_hex": "0x5208"
      },
      "to": "0xddDfeCf1F02cDBAdd9292Ba977b8462D670ed4eb",
      "value": {
        "_hex": "0x6c6b819812855f8000"
      },
      "nonce": 199,
      "data": "0x",
      "r": "0xa51016ba9b2eee264974a3f8a67aef38e1f4845f3e4f8cc99f6dc01013009c08",
      "s": "0x3da6c4517f34e497d65dfa8371216f71ce3f45eb8201139e883af961c5849772",
      "v": 28,
      "creates": null,
      "raw": "0xf86e81c7850d1e1b596382520894dddfecf1f02cdbadd9292ba977b8462d670ed4eb896c6b819812855f8000801ca0a51016ba9b2eee264974a3f8a67aef38e1f4845f3e4f8cc99f6dc01013009c08a03da6c4517f34e497d65dfa8371216f71ce3f45eb8201139e883af961c5849772",
      "networkId": 0,
      "chainId": 0
    }
  ]
}