{
  "hash": "0x6f665e88b3a92c84e95ceee8a5935fae2109df998888a40586a65d82aac4b196",
  "parentHash": "0x9439e25596768f008130644d9fbdeda3aa58bc62a48a76310e49155dbc85a149",
  "number": 120125,
  "timestamp": 1440154418,
  "nonce": "0x34f0f224ef1446ee",
  "difficulty": 4400516773210,
  "gasLimit": {
    "_hex": "0x2fefd8"
  },
  "gasUsed": {
    "_hex": "0x5208"
  },
  "miner": "0x88D74a59454F6cF3B51ef6b9136AFb6b9D405A88",
  "extraData": "0x",
  "transactions": [
    {
      "hash": "0x8120d8fc14d492ab31b43d98772caedb99bf83c93d40ea9168c391c9f426f751",
      "blockHash": "0x6f665e88b3a92c84e95ceee8a5935fae2109df998888a40586a65d82aac4b196",
      "blockNumber": 120125,
      "transactionIndex": 0,
      "confirmations": null,
      "from": "0x40B9b889A21Ff1534d018D71Dc406122EBcf3F5A",
      "gasPrice": {
        "_hex": "0xba43b7400"
      },
      "gasLimit": {
        "_hex": "0x15f90"
      },
      "to": "0x0cA19A53a3256482A89770FC1daFC7630717F201",
      "value": {
        "_hex": "0x28f0815ec7670000"
      },
      "nonce": 67,
      "data": "0x",
      "r": "0x5df2e575d23fe5c6e25e87e322e623b9315103304e9f03c92d6d738daa2a8d22",
      "s": "0x21e706f41cb19cdf790fabb47e69b7f6465f8f4d68fab1b966809b42d0d07c69",
      "v": 28,
      "creates": null,
      "raw": "0xf86d43850ba43b740083015f90940ca19a53a3256482a89770fc1dafc7630717f2018828f0815ec7670000801ca05df2e575d23fe5c6e25e87e322e623b9315103304e9f03c92d6d738daa2a8d22a021e706f41cb19cdf790fabb47e69b7f6465f8f4d68fab1b966809b42d0d07c69",
      "networkId": 0,
      "chainId": 0
    }
  ]
}