{
  "hash": "0x5b88e6d08a85499edc994e1e8eb985bea1947c9ef169f6a57c10ce6bdd486dfe",
  "parentHash": "0x6703d1e087d3a00a38489402feb7241cbfb4e0f533239cb02f2f115397383b1b",
  "number": 46474,
  "timestamp": 1438923740,
  "nonce": "0xfc0ad4d0fa422d0e",
  "difficulty": 1467511612269,
  "gasLimit": {
    "_hex": "0x6336"
  },
  "gasUsed": {
    "_hex": "0x5208"
  },
  "miner": "0x3F98e477a361F777DA14611a7e419A75Fd238b6b",
  "extraData": "0x476574682f76312e302e312f6c696e75782f676f312e342e32",
  "transactions": [
    {
      "hash": "0x152c74539166c517f255e9592dd350ba4ddaa8f00ca98d282af416b917e1b5b7",
      "blockHash": "0x5b88e6d08a85499edc994e1e8eb985bea1947c9ef169f6a57c10ce6bdd486dfe",
      "blockNumber": 46474,
      "transactionIndex": 0,
      "confirmations": null,
      "from": "0x365B685282c9b242Ec345fB64731ecfC4fcb834C",
      "gasPrice": {
        "_hex": "0x746a528800"
      },
      "gasLimit": {
        "_hex": "0x5208"
      },
      "to": "0x32Be343B94f860124dC4fEe278FDCBD38C102D88",
      "value": {
        "_hex": "0x2238582da33ff200000"
      },
      "nonce": 0,
      "data": "0x",
      "r": "0xb04c4fa113a6fb928dc06cfa9a833581b70f0627f8b18d32b72d53a8a8f25edf",
      "s": "0x2cf83e078698f1b4e9f42076e6298330852f39ea3317bd9ffcb978ed640bb074",
      "v": 28,
      "creates": null,
      "raw": "0xf86e8085746a5288008252089432be343b94f860124dc4fee278fdcbd38c102d888a02238582da33ff200000801ca0b04c4fa113a6fb928dc06cfa9a833581b70f0627f8b18d32b72d53a8a8f25edfa02cf83e078698f1b4e9f42076e6298330852f39ea3317bd9ffcb978ed640bb074",
      "networkId": 0,
      "chainId": 0
    }
  ]
}