{
  "hash": "0x2f6b826f09a67cc2918d0cb3762d1032ea97374aff0c32f81ef750afff1c1c35",
  "parentHash": "0xa0daf4f52b018f6ea405e80c0b991ffbeb23159bacccda9ad918c29b8d44be2f",
  "number": 53881,
  "timestamp": 1439045102,
  "nonce": "0x6e1cf24bef37139a",
  "difficulty": 1601697678114,
  "gasLimit": {
    "_hex": "0x2fefd8"
  },
  "gasUsed": {
    "_hex": "0x5208"
  },
  "miner": "0x24339341F29d2aaD7d3c591c0f9931e7D4bFEd6e",
  "extraData": "0x476574682f76312e302e312f6c696e75782f676f312e342e32",
  "transactions": [
    {
      "hash": "0x5dc3664ee56fa09a1420577ac8bf3505143ca1ab00223189934fcbf973f6a276",
      "blockHash": "0x2f6b826f09a67cc2918d0cb3762d1032ea97374aff0c32f81ef750afff1c1c35",
      "blockNumber": 53881,
      "transactionIndex": 0,
      "confirmations": null,
      "from": "0x9D49F602b0fdb924Bd63DDE2Bd0907E4A07c63a7",
      "gasPrice": {
        "_hex": "0xdbc80cdcc"
      },
      "gasLimit": {
        "_hex": "0x15f90"
      },
      "to": "0xC6c676946C54B5e7c31A07a079166C488Bf06dd7",
      "value": {
        "_hex": "0xde0b6b3a7640000"
      },
      "nonce": 0,
      "data": "0x",
      "r": "0xcccc79e8352340912ea618aa1c8a3c3b347d8c3c3496dce6b22929b512f11ba6",
      "s": "0x3bd4a4954f3c4bb8f003ced63dabf42956fcbf97da7e30b51926c780014e7dea",
      "v": 28,
      "creates": null,
      "raw": "0xf86d80850dbc80cdcc83015f9094c6c676946c54b5e7c31a07a079166c488bf06dd7880de0b6b3a7640000801ca0cccc79e8352340912ea618aa1c8a3c3b347d8c3c3496dce6b22929b512f11ba6a03bd4a4954f3c4bb8f003ced63dabf42956fcbf97da7e30b51926c780014e7dea",
      "networkId": 0,
      "chainId": 0
    }
  ]
}