{
  "hash": "0x2e47464bc5cf38b1feeec3b982da0fdb9035839d535bf27bc713ea691dce14db",
  "parentHash": "0xd6ce3794ce4ee16628d8a1d71bb8084eb6d8d6e24f3d8c950f1961b875a8468f",
  "number": 52900,
  "timestamp": 1439029276,
  "nonce": "0xddb4985e3ec77ad4",
  "difficulty": 1570134880867,
  "gasLimit": {
    "_hex": "0x1b8152"
  },
  "gasUsed": {
    "_hex": "0xddfd"
  },
  "miner": "0xf927a40C8B7F6E07c5af7FA2155B4864a4112B13",
  "extraData": "0x476574682f76312e302e312f6c696e75782f676f312e342e32",
  "transactions": [
    {
      "hash": "0x7a59fc4f08d15da1517ecac3919d5e8b1dc7ce671cda7436a5c561b01e747848",
      "blockHash": "0x2e47464bc5cf38b1feeec3b982da0fdb9035839d535bf27bc713ea691dce14db",
      "blockNumber": 52900,
      "transactionIndex": 0,
      "confirmations": null,
      "from": "0x40406c243663125ad18ac5729c3356cf673F1d7f",
      "gasPrice": {
        "_hex": "0xcc161276a"
      },
      "gasLimit": {
        "_hex": "0x7a120"
      },
      "to": "0xA327075af2a223A1C83a36aDa1126afE7430f955",
      "value": {
        "_hex": "0x8ac7230489e80000"
      },
      "nonce": 2,
      "data": "0x",
      "r": "0x3826ba554105fc32bb92373205f727c1c4f60e25e6ebff886c788753a7e47b73",
      "s": "0x4f462c33d41087c4110708c56dc997aa07cf1cb998454e3fb97ba65d38cec9ff",
      "v": 27,
      "creates": null,
      "raw": "0xf86d02850cc161276a8307a12094a327075af2a223a1c83a36ada1126afe7430f955888ac7230489e80000801ba03826ba554105fc32bb92373205f727c1c4f60e25e6ebff886c788753a7e47b73a04f462c33d41087c4110708c56dc997aa07cf1cb998454e3fb97ba65d38cec9ff",
      "networkId": 0,
      "chainId": 0
    }
  ]
}