{
  "hash": "0x441a294654a921bf43e543af33957106032851f27219c1e4c753220f32b92ac2",
  "parentHash": "0x55654260d5d827cdcbc7af5eca8aa261f5949690720f24a07be846ffcb7a04af",
  "number": 84401,
  "timestamp": 1439549147,
  "nonce": "0x302fa82cf87864cc",
  "difficulty": 2560191690846,
  "gasLimit": {
    "_hex": "0x2fefd8"
  },
  "gasUsed": {
    "_hex": "0x5208"
  },
  "miner": "0xe6A7a1d47ff21B6321162AEA7C6CB457D5476Bca",
  "extraData": "0x476574682f76312e302e312d38326566323666362f6c696e75782f676f312e34",
  "transactions": [
    {
      "hash": "0x5e81003bc5794eae5bd142d53d5c00ee8ee37655d7724ea000edf89e61b6946b",
      "blockHash": "0x441a294654a921bf43e543af33957106032851f27219c1e4c753220f32b92ac2",
      "blockNumber": 84401,
      "transactionIndex": 0,
      "confirmations": null,
      "from": "0x5182C1C90D2ba500974f56988670D91c13540033",
      "gasPrice": {
        "_hex": "0xd6b187d36"
      },
      "gasLimit": {
        "_hex": "0x15f90"
      },
      "to": "0xD671e71108Bd20F1A8e2A4f73a7449Bf8DAa840f",
      "value": {
        "_hex": "0x1e87f85809dc0000"
      },
      "nonce": 1,
      "data": "0x",
      "r": "0xa0524aec56b6abb1a0bed78b48643ec8f75c584d929ecedb409e3acfcd7d6e7a",
      "s": "0x656a63a2c1d7c9e08edde191f9454f4394e7f6a6e534c8e1130d8a080c8f8c2b",
      "v": 28,
      "creates": null,
      "raw": "0xf86d01850d6b187d3683015f9094d671e71108bd20f1a8e2a4f73a7449bf8daa840f881e87f85809dc0000801ca0a0524aec56b6abb1a0bed78b48643ec8f75c584d929ecedb409e3acfcd7d6e7aa0656a63a2c1d7c9e08edde191f9454f4394e7f6a6e534c8e1130d8a080c8f8c2b",
      "networkId": 0,
      "chainId": 0
    }
  ]
}