{
  "hash": "0xa8fa26c7cc0ed287df92670601635e55b146b84496a25a2b2b945d76b85fcce4",
  "parentHash": "0x5349a7167f69c10a88f178e43fa0e54819ae286595edb63d5cecfb0de1875d52",
  "number": 119423,
  "timestamp": 1440142647,
  "nonce": "0x4e21d75054669a8d",
  "difficulty": 4392297954829,
  "gasLimit": {
    "_hex": "0x2fefd8"
  },
  "gasUsed": {
    "_hex": "0xf618"
  },
  "miner": "0xe6A7a1d47ff21B6321162AEA7C6CB457D5476Bca",
  "extraData": "0xd783010002844765746887676f312e342e32856c696e7578",
  "transactions": [
    {
      "hash": "0x12fb6601f6f4073fa7519e7282e65f83bcad9980ef4f27ad4824b5d2a14f5884",
      "blockHash": "0xa8fa26c7cc0ed287df92670601635e55b146b84496a25a2b2b945d76b85fcce4",
      "blockNumber": 119423,
      "transactionIndex": 0,
      "confirmations": null,
      "from": "0x69C2AE4ed74e215327646b2629eF80B2344FC946",
      "gasPrice": {
        "_hex": "0xc1945dda1"
      },
      "gasLimit": {
        "_hex": "0x5208"
      },
      "to": "0x32Be343B94f860124dC4fEe278FDCBD38C102D88",
      "value": {
        "_hex": "0x4e52bd7691e2c00"
      },
      "nonce": 0,
      "data": "0x",
      "r": "0x715fe5b50ea8cb4c222ae15819a95e4eeae6ea61aef737c364b988a8c46ebf08",
      "s": "0x6807b89dfc01cd088e5fe065721efed859b6c60a052729a5f096f087c67fe4e6",
      "v": 28,
      "creates": null,
      "raw": "0xf86c80850c1945dda18252089432be343b94f860124dc4fee278fdcbd38c102d888804e52bd7691e2c00801ca0715fe5b50ea8cb4c222ae15819a95e4eeae6ea61aef737c364b988a8c46ebf08a06807b89dfc01cd088e5fe065721efed859b6c60a052729a5f096f087c67fe4e6",
      "networkId": 0,
      "chainId": 0
    },
    {
      "hash": "0xe5c522f4c541b07c0c0a8b2c961bbff329e3b720c1c206646694516414efb1c8",
      "blockHash": "0xa8fa26c7cc0ed287df92670601635e55b146b84496a25a2b2b945d76b85fcce4",
      "blockNumber": 119423,
      "transactionIndex": 1,
      "confirmations": null,
      "from": "0x52bc44d5378309EE2abF1539BF71dE1b7d7bE3b5",
      "gasPrice": {
        "_hex": "0xba43b7400"
      },
      "gasLimit": {
        "_hex": "0x61a8"
      },
      "to": "0x004238BFbbe2048F84Ca30a77Bf61523a87e58b2",
      "value": {
        "_hex": "0x9e7d7f4be682000"
      },
      "nonce": 681,
      "data": "0x",
      "r": "0xfe6582345edebced44ee6c657cc765334d947d3a801f9236dcfae15221bbf4bd",
      "s": "0x518b9e9c6076a76849bafb943ebfb3bcc489ef7bbb51a44b0e8d591c411dbad5",
      "v": 28,
      "creates": null,
      "raw": "0xf86e8202a9850ba43b74008261a894004238bfbbe2048f84ca30a77bf61523a87e58b28809e7d7f4be682000801ca0fe6582345edebced44ee6c657cc765334d947d3a801f9236dcfae15221bbf4bda0518b9e9c6076a76849bafb943ebfb3bcc489ef7bbb51a44b0e8d591c411dbad5",
      "networkId": 0,
      "chainId": 0
    },
    {
      "hash": "0x0baaa9f0bfca5cf0419f47f928f16ab50da3a0c48ef45723edebfeca30d39205",
      "blockHash": "0xa8fa26c7cc0ed287df92670601635e55b146b84496a25a2b2b945d76b85fcce4",
      "blockNumber": 119423,
      "transactionIndex": 2,
      "confirmations": null,
      "from": "0x52bc44d5378309EE2abF1539BF71dE1b7d7bE3b5",
      "gasPrice": {
        "_hex": "0xba43b7400"
      },
      "gasLimit": {
        "_hex": "0x61a8"
      },
      "to": "0x2B5EBAe239Cb2f35A0974065E6C43A680ABb4bbe",
      "value": {
        "_hex": "0x49f9404aeac1800"
      },
      "nonce": 682,
      "data": "0x",
      "r": "0x5eda16ba1fff73629cc9c41fff11c2cc58f96894fdd8f16def997ee295e39bfc",
      "s": "0x0caed8d64c30be502191d28c63aba3898c777dedfaac6b1116c931c485bd8383",
      "v": 27,
      "creates": null,
      "raw": "0xf86e8202aa850ba43b74008261a8942b5ebae239cb2f35a0974065e6c43a680abb4bbe88049f9404aeac1800801ba05eda16ba1fff73629cc9c41fff11c2cc58f96894fdd8f16def997ee295e39bfca00caed8d64c30be502191d28c63aba3898c777dedfaac6b1116c931c485bd8383",
      "networkId": 0,
      "chainId": 0
    }
  ]
}