{
  "hash": "0x756963d34232cbed3d2453bb9e602ed34e4dcae6fc98ba0b9670ae9fe9a6fb65",
  "parentHash": "0x079d1ec2f5959aad1eef650afb954db3bc917d2b751b59d21327518d2349b1bf",
  "number": 89078,
  "timestamp": 1439617879,
  "nonce": "0xc5035c0beca6db8e",
  "difficulty": 3267919417420,
  "gasLimit": {
    "_hex": "0x2fefd8"
  },
  "gasUsed": {
    "_hex": "0x546c"
  },
  "miner": "0xe6A7a1d47ff21B6321162AEA7C6CB457D5476Bca",
  "extraData": "0x476574682f76312e302e312d38326566323666362f6c696e75782f676f312e34",
  "transactions": [
    {
      "hash": "0x9f5727d76952bfcaf5d701ba6412cf661ae7bdb77879984f8db33c7991e0a5b9",
      "blockHash": "0x756963d34232cbed3d2453bb9e602ed34e4dcae6fc98ba0b9670ae9fe9a6fb65",
      "blockNumber": 89078,
      "transactionIndex": 0,
      "confirmations": null,
      "from": "0x9d30cB237BC096f17036FC80dd21CA68992ca2d9",
      "gasPrice": {
        "_hex": "0x110c8f7d8de"
      },
      "gasLimit": {
        "_hex": "0xc350"
      },
      "to": "0x2910543Af39abA0Cd09dBb2D50200b3E800A63D2",
      "value": {
        "_hex": "0x10f0cf064dd59200000"
      },
      "nonce": 2,
      "data": "0x454e4e445759415947",
      "r": "0x858b7d63d9e7abcbac81cd473594ea03d613474a93b64a8352b44cf9cedd71f3",
      "s": "0x78eefe7024d553f5807d3d2575aa94073f67c518c182b54f96899ae24ddafd57",
      "v": 27,
      "creates": null,
      "raw": "0xf87802860110c8f7d8de82c350942910543af39aba0cd09dbb2d50200b3e800a63d28a010f0cf064dd5920000089454e4e4457594159471ba0858b7d63d9e7abcbac81cd473594ea03d613474a93b64a8352b44cf9cedd71f3a078eefe7024d553f5807d3d2575aa94073f67c518c182b54f96899ae24ddafd57",
      "networkId": 0,
      "chainId": 0
    }
  ]
}