{
  "hash": "0x54dd8de7ea4936ceac2b1803143692ecf351fbc08939421ffcfebc09f418610c",
  "parentHash": "0x8b7956ba6cc4a95aeeadaa2bdd2abad78869d69075dfb89c0a2e5c233a38998c",
  "number": 58523,
  "timestamp": 1439122127,
  "nonce": "0xf43e3d58cafcb4de",
  "difficulty": 1710724561968,
  "gasLimit": {
    "_hex": "0x2fefd8"
  },
  "gasUsed": {
    "_hex": "0x5208"
  },
  "miner": "0xA21Ba94e45f0E168dA824fC67aC9cb5Cb577a8aF",
  "extraData": "0x476574682f76312e302e312d38326566323666362f6c696e75782f676f312e34",
  "transactions": [
    {
      "hash": "0xfba4077041f04718e0c0d65180c05d11fbd9d4100da7108ed6283a1f5594110a",
      "blockHash": "0x54dd8de7ea4936ceac2b1803143692ecf351fbc08939421ffcfebc09f418610c",
      "blockNumber": 58523,
      "transactionIndex": 0,
      "confirmations": null,
      "from": "0xE8FBEb49c2590120e3a5A34048a725742Bd1a37c",
      "gasPrice": {
        "_hex": "0xd033e76ac"
      },
      "gasLimit": {
        "_hex": "0x15f90"
      },
      "to": "0xc92E31060EB45EFFdb9a3e383ea00f7Ebd0B8FBc",
      "value": {
        "_hex": "0x8ac7230489e80000"
      },
      "nonce": 4,
      "data": "0x",
      "r": "0xdb9b1339f978a653799c601fc6c910ccb402f5a72ef6a73099f2dbe990d2dcc3",
      "s": "0x75c8241080dec824882be011f0b9558220c893dbe08fdabcc046357494a45d0f",
      "v": 28,
      "creates": null,
      "raw": "0xf86d04850d033e76ac83015f9094c92e31060eb45effdb9a3e383ea00f7ebd0b8fbc888ac7230489e80000801ca0db9b1339f978a653799c601fc6c910ccb402f5a72ef6a73099f2dbe990d2dcc3a075c8241080dec824882be011f0b9558220c893dbe08fdabcc046357494a45d0f",
      "networkId": 0,
      "chainId": 0
    }
  ]
}