{
  "hash": "0x7d926fb9ffe49bb9601b2d42801200833863c5bc3856d1f928f687cd04eed1f1",
  "parentHash": "0x5c50cba161942970426f0cf63b08773199503b4da59cd136ae3b315acd73058d",
  "number": 47653,
  "timestamp": 1438944287,
  "nonce": "0xc1c2a78d526385c7",
  "difficulty": 1445262430574,
  "gasLimit": {
    "_hex": "0xdd95"
  },
  "gasUsed": {
    "_hex": "0xa410"
  },
  "miner": "0x580992B51e3925e23280EfB93d3047C82f17E038",
  "extraData": "0x476574682f76312e302e312f6c696e75782f676f312e342e32",
  "transactions": [
    {
      "hash": "0xf52c5cf2bdb70cc00fa72449182227656303c5dab26bf8698511e245a2a5adce",
      "blockHash": "0x7d926fb9ffe49bb9601b2d42801200833863c5bc3856d1f928f687cd04eed1f1",
      "blockNumber": 47653,
      "transactionIndex": 0,
      "confirmations": null,
      "from": "0xe6A7a1d47ff21B6321162AEA7C6CB457D5476Bca",
      "gasPrice": {
        "_hex": "0xd43f3c3e9"
      },
      "gasLimit": {
        "_hex": "0x55f0"
      },
      "to": "0xa2D8888a00a904EC0fE7FCA00c058249737aAC69",
      "value": {
        "_hex": "0x11c3a1e4a53c7f20"
      },
      "nonce": 180,
      "data": "0x",
      "r": "0x6db03b71c58608d4eba79a0b501c4bff781a40ccef9eec25c2d9f77de9454ff0",
      "s": "0x78a4297b6c196af31d2c0a6e35c4524d1ca5eb5bdf126ac10da88ccb56681f9a",
      "v": 27,
      "creates": null,
      "raw": "0xf86d81b4850d43f3c3e98255f094a2d8888a00a904ec0fe7fca00c058249737aac698811c3a1e4a53c7f20801ba06db03b71c58608d4eba79a0b501c4bff781a40ccef9eec25c2d9f77de9454ff0a078a4297b6c196af31d2c0a6e35c4524d1ca5eb5bdf126ac10da88ccb56681f9a",
      "networkId": 0,
      "chainId": 0
    },
    {
      "hash": "0xf1d6cafeb4a442b251173755137759d34b40e7911f34ffdd2c4646f02285118e",
      "blockHash": "0x7d926fb9ffe49bb9601b2d42801200833863c5bc3856d1f928f687cd04eed1f1",
      "blockNumber": 47653,
      "transactionIndex": 1,
      "confirmations": null,
      "from": "0xe6A7a1d47ff21B6321162AEA7C6CB457D5476Bca",
      "gasPrice": {
        "_hex": "0xd43f3c3e9"
      },
      "gasLimit": {
        "_hex": "0x55f0"
      },
      "to": "0xf2743E6B5437a066d21840786277a1D4CCBf3DbA",
      "value": {
        "_hex": "0x1435a8717290a9e0"
      },
      "nonce": 181,
      "data": "0x",
      "r": "0x7449b257cf90dafae3aaef9307afc6786ace181542aacf73a99b0fdca4d0a025",
      "s": "0x191376a54e506003573e67cfe8d276ca80fd6a6d029c369e706bdeaa4b50cf2d",
      "v": 27,
      "creates": null,
      "raw": "0xf86d81b5850d43f3c3e98255f094f2743e6b5437a066d21840786277a1d4ccbf3dba881435a8717290a9e0801ba07449b257cf90dafae3aaef9307afc6786ace181542aacf73a99b0fdca4d0a025a0191376a54e506003573e67cfe8d276ca80fd6a6d029c369e706bdeaa4b50cf2d",
      "networkId": 0,
      "chainId": 0
    }
  ]
}