{
  "hash": "0x3b6dc84c612185689d3abf058fdf970e0b1a7394ffcfefb2691a9f278c67651b",
  "parentHash": "0xf23f86b3b1b1908a13bbb4235ebc7ad429b22f551a5c6b20faa7f07d58e4cd56",
  "number": 93606,
  "timestamp": 1439694214,
  "nonce": "0x794a599dc62351c3",
  "difficulty": 3463250134989,
  "gasLimit": {
    "_hex": "0x2fefd8"
  },
  "gasUsed": {
    "_hex": "0x5208"
  },
  "miner": "0xeB1325C8D9d3ea8D74aC11F4B00F1B2367686319",
  "extraData": "0x476574682f76312e302e312f77696e646f77732f676f312e342e32",
  "transactions": [
    {
      "hash": "0xfadbeabfe73f8c8cc1599cfbd8873fbc231ce6ba46cb15c07f11ce5c94203941",
      "blockHash": "0x3b6dc84c612185689d3abf058fdf970e0b1a7394ffcfefb2691a9f278c67651b",
      "blockNumber": 93606,
      "transactionIndex": 0,
      "confirmations": null,
      "from": "0x945133f5F817b984e41D4798b45C9B8ed7CE3EAc",
      "gasPrice": {
        "_hex": "0xd4febe9c9"
      },
      "gasLimit": {
        "_hex": "0x15f90"
      },
      "to": "0x4E56D55C77DB136de89EEcCF3754A634a9b8898C",
      "value": {
        "_hex": "0x4e1003b28d9280000"
      },
      "nonce": 1,
      "data": "0x",
      "r": "0x15c2b76e3e53f206167023805097b12cc17f23ac0f5ca2edb7f81234a9f100a1",
      "s": "0x64233a76c1143adc3f3a6eb35f3d545bb446ab6883c4a011233b8318bb6c4faa",
      "v": 27,
      "creates": null,
      "raw": "0xf86e01850d4febe9c983015f90944e56d55c77db136de89eeccf3754a634a9b8898c8904e1003b28d9280000801ba015c2b76e3e53f206167023805097b12cc17f23ac0f5ca2edb7f81234a9f100a1a064233a76c1143adc3f3a6eb35f3d545bb446ab6883c4a011233b8318bb6c4faa",
      "networkId": 0,
      "chainId": 0
    }
  ]
}