{
  "hash": "0x1e2d65ac90234bad5308e2a1183c47d4e24e0898b81748a9a8f77194be438150",
  "parentHash": "0x92525fd9946f482d242ea1f5ba3fe569457288f322138b1a7fff45b0e886d87b",
  "number": 65006,
  "timestamp": 1439229900,
  "nonce": "0x99528fb8783264ae",
  "difficulty": 1911638222153,
  "gasLimit": {
    "_hex": "0x2fefd8"
  },
  "gasUsed": {
    "_hex": "0xa410"
  },
  "miner": "0x06D138312754bDEB5c1175f47cE00620c480E9C9",
  "extraData": "0x476574682f76312e302e312f6c696e75782f676f312e342e32",
  "transactions": [
    {
      "hash": "0xbd897138ce1f7bf269a43f3f6d469679df0cd002a8b0a5b7af25a00701021b48",
      "blockHash": "0x1e2d65ac90234bad5308e2a1183c47d4e24e0898b81748a9a8f77194be438150",
      "blockNumber": 65006,
      "transactionIndex": 0,
      "confirmations": null,
      "from": "0x4604F2D284bAc789ddCA0A30b6157606B9E70E87",
      "gasPrice": {
        "_hex": "0xba43b7400"
      },
      "gasLimit": {
        "_hex": "0x5208"
      },
      "to": "0x4598d8e93B75a370046AEAb59BD2895e542fd92D",
      "value": {
        "_hex": "0x2bec80ee81a1000"
      },
      "nonce": 1,
      "data": "0x",
      "r": "0xaf5eaa7c266eecb7fd3cef1eae2e038c2bf9bbac006a6a1d04334369d30f8750",
      "s": "0x09edf1c4b18c89f776cb6290ca5af6c62cf8d4d5c5fa7c49649e36b06bebd822",
      "v": 28,
      "creates": null,
      "raw": "0xf86c01850ba43b7400825208944598d8e93b75a370046aeab59bd2895e542fd92d8802bec80ee81a1000801ca0af5eaa7c266eecb7fd3cef1eae2e038c2bf9bbac006a6a1d04334369d30f8750a009edf1c4b18c89f776cb6290ca5af6c62cf8d4d5c5fa7c49649e36b06bebd822",
      "networkId": 0,
      "chainId": 0
    },
    {
      "hash": "0x068cc520be54948c6c00260c4b64e34ac8868fa3540ca0243b807550f7360459",
      "blockHash": "0x1e2d65ac90234bad5308e2a1183c47d4e24e0898b81748a9a8f77194be438150",
      "blockNumber": 65006,
      "transactionIndex": 1,
      "confirmations": null,
      "from": "0x4a84DD56301cdFdE70436822038bA1548f99D259",
      "gasPrice": {
        "_hex": "0xba43b7400"
      },
      "gasLimit": {
        "_hex": "0x5208"
      },
      "to": "0xB6915c192397e64d2CE5674B4a30c35028D21d64",
      "value": {
        "_hex": "0x2623b5b81d85000"
      },
      "nonce": 1,
      "data": "0x",
      "r": "0xaf788ee7c952aa8ab7139afb287330119307914239e56016bd1beac3bc9befa2",
      "s": "0x57048341076bb350f2bcdde3025cd44933c69b53eac3c6f51db3aba040004f89",
      "v": 27,
      "creates": null,
      "raw": "0xf86c01850ba43b740082520894b6915c192397e64d2ce5674b4a30c35028d21d648802623b5b81d85000801ba0af788ee7c952aa8ab7139afb287330119307914239e56016bd1beac3bc9befa2a057048341076bb350f2bcdde3025cd44933c69b53eac3c6f51db3aba040004f89",
      "networkId": 0,
      "chainId": 0
    }
  ]
}