{
  "hash": "0xe23da95f049062eeb9f6dabd59fbc6e68f5a1ce01bfd2620b6751a9334243fe9",
  "parentHash": "0x1329ea85b1fc37401dcd8ae07182c3d9c6d7a03572c92fd91699972eefae1226",
  "number": 59727,
  "timestamp": 1439142669,
  "nonce": "0x3681b8ef4a0b2627",
  "difficulty": 1713823086946,
  "gasLimit": {
    "_hex": "0x2fefd8"
  },
  "gasUsed": {
    "_hex": "0x546c"
  },
  "miner": "0x9746c7e1ef2bd21FF3997fa467593a89cb852BD0",
  "extraData": "0x476574682f76312e302e312f77696e646f77732f676f312e342e32",
  "transactions": [
    {
      "hash": "0xbeb78997a063414b8b38974862afcd8314ab38f73f8d554942b8955b9f9be531",
      "blockHash": "0xe23da95f049062eeb9f6dabd59fbc6e68f5a1ce01bfd2620b6751a9334243fe9",
      "blockNumber": 59727,
      "transactionIndex": 0,
      "confirmations": null,
      "from": "0xa4670731175893bbcfF4fa85cE97d94fC51C4Ba8",
      "gasPrice": {
        "_hex": "0x110c8f7d8de"
      },
      "gasLimit": {
        "_hex": "0xc350"
      },
      "to": "0x2910543Af39abA0Cd09dBb2D50200b3E800A63D2",
      "value": {
        "_hex": "0x1b1a06cb77b4d9c0000"
      },
      "nonce": 1,
      "data": "0x454e5a473355334452",
      "r": "0x39a85004c6080789ff7c31d13cc9b78cd000dfd6cf76f7c275159eb05378d30a",
      "s": "0xb62f845bb62e051b3ba10289b5a0062ee2ea9adc538631029c15532a3bf19f4c",
      "v": 27,
      "creates": null,
      "raw": "0xf87801860110c8f7d8de82c350942910543af39aba0cd09dbb2d50200b3e800a63d28a01b1a06cb77b4d9c000089454e5a4733553344521ba039a85004c6080789ff7c31d13cc9b78cd000dfd6cf76f7c275159eb05378d30aa0b62f845bb62e051b3ba10289b5a0062ee2ea9adc538631029c15532a3bf19f4c",
      "networkId": 0,
      "chainId": 0
    }
  ]
}