{
  "hash": "0xa3301a12abfe04f650b5e2a292892ddba35c6c4db476a2c5435da437a63d1755",
  "parentHash": "0x89c4671841327b3bc629a96e742afd327131dadbeb64a2149316cac3ff4a081d",
  "number": 95662,
  "timestamp": 1439727495,
  "nonce": "0xb2d0c13857c60fcf",
  "difficulty": 3617950535788,
  "gasLimit": {
    "_hex": "0x2fefd8"
  },
  "gasUsed": {
    "_hex": "0x5208"
  },
  "miner": "0xe6A7a1d47ff21B6321162AEA7C6CB457D5476Bca",
  "extraData": "0x476574682f76312e302e312d38326566323666362f6c696e75782f676f312e34",
  "transactions": [
    {
      "hash": "0x2e9767ede93506bff12aca1c7b272c1f3dccd784fae2471884667f4df2b885f6",
      "blockHash": "0xa3301a12abfe04f650b5e2a292892ddba35c6c4db476a2c5435da437a63d1755",
      "blockNumber": 95662,
      "transactionIndex": 0,
      "confirmations": null,
      "from": "0x2e1A591a3Bd5FCE3c1E095c205Bd202C29541e70",
      "gasPrice": {
        "_hex": "0xd92cb12a2"
      },
      "gasLimit": {
        "_hex": "0x15f90"
      },
      "to": "0xE37619a47076d668A13AB535aA1c01E8a32541EF",
      "value": {
        "_hex": "0x1158e460913d00000"
      },
      "nonce": 4,
      "data": "0x",
      "r": "0xbbc6d33b690f486dcc47bddf5c5dc6fb107f80e4d577df5369230bf46d82e1aa",
      "s": "0x70bda2e959fa17282432032c04ec7e876af9ae4fc0a1de521d4f31946f1db7d4",
      "v": 27,
      "creates": null,
      "raw": "0xf86e04850d92cb12a283015f9094e37619a47076d668a13ab535aa1c01e8a32541ef8901158e460913d00000801ba0bbc6d33b690f486dcc47bddf5c5dc6fb107f80e4d577df5369230bf46d82e1aaa070bda2e959fa17282432032c04ec7e876af9ae4fc0a1de521d4f31946f1db7d4",
      "networkId": 0,
      "chainId": 0
    }
  ]
}