{
  "hash": "0xbd21c5cfd7c485505db7687eafdb84d00e45041c54661541979892bc02fda427",
  "parentHash": "0x94e55839f01508314d9f633503036fb72bf59a36347cac51af3d61dff7162317",
  "number": 47804,
  "timestamp": 1438946606,
  "nonce": "0xeaa2ba08a32f0bf5",
  "difficulty": 1454439457875,
  "gasLimit": {
    "_hex": "0xf52f"
  },
  "gasUsed": {
    "_hex": "0xa674"
  },
  "miner": "0xf927a40C8B7F6E07c5af7FA2155B4864a4112B13",
  "extraData": "0x476574682f76312e302e312f6c696e75782f676f312e342e32",
  "transactions": [
    {
      "hash": "0xba171b8c46e9a9ca3f20828d50dbfb586cc1979cac0243f671b32cbdef130a09",
      "blockHash": "0xbd21c5cfd7c485505db7687eafdb84d00e45041c54661541979892bc02fda427",
      "blockNumber": 47804,
      "transactionIndex": 0,
      "confirmations": null,
      "from": "0x0cDA12BF72d461BBc479eB92e6491d057e6B5Ad1",
      "gasPrice": {
        "_hex": "0x68c6171400"
      },
      "gasLimit": {
        "_hex": "0x55f0"
      },
      "to": "0x2910543Af39abA0Cd09dBb2D50200b3E800A63D2",
      "value": {
        "_hex": "0x4563918244f40000"
      },
      "nonce": 11,
      "data": "0x454e3247434d4b5930",
      "r": "0x4d6c57cc159326ad270f854c28058b3f6590507a5d432d34cb486060ad2ec8b3",
      "s": "0x2b750e06ed75bc9febc9779be86231918308ea9a779597452b2e2ff22d93d662",
      "v": 28,
      "creates": null,
      "raw": "0xf8750b8568c61714008255f0942910543af39aba0cd09dbb2d50200b3e800a63d2884563918244f4000089454e3247434d4b59301ca04d6c57cc159326ad270f854c28058b3f6590507a5d432d34cb486060ad2ec8b3a02b750e06ed75bc9febc9779be86231918308ea9a779597452b2e2ff22d93d662",
      "networkId": 0,
      "chainId": 0
    },
    {
      "hash": "0xadddaf4d0ce1e49646adefd09eb624b9b64488e948c96bf8359df0daa369a2d2",
      "blockHash": "0xbd21c5cfd7c485505db7687eafdb84d00e45041c54661541979892bc02fda427",
      "blockNumber": 47804,
      "transactionIndex": 1,
      "confirmations": null,
      "from": "0x77d43fa7b481DBf3dB530cfBf5fDCed0e6571831",
      "gasPrice": {
        "_hex": "0xdb05fd0cd"
      },
      "gasLimit": {
        "_hex": "0x61a8"
      },
      "to": "0xE11F174499fF162DE6D0A49D6E9dF8Ef0645982d",
      "value": {
        "_hex": "0xde0b6b3a7640000"
      },
      "nonce": 0,
      "data": "0x",
      "r": "0x6c42620f6d0fad9801aad84855caf7fda3d2245d6d0219a3e56bc6ff5e72d534",
      "s": "0x5521fe84f9e976549ecdda4540c476aad87dd9376904ce35d9bca180f7c464a4",
      "v": 28,
      "creates": null,
      "raw": "0xf86c80850db05fd0cd8261a894e11f174499ff162de6d0a49d6e9df8ef0645982d880de0b6b3a7640000801ca06c42620f6d0fad9801aad84855caf7fda3d2245d6d0219a3e56bc6ff5e72d534a05521fe84f9e976549ecdda4540c476aad87dd9376904ce35d9bca180f7c464a4",
      "networkId": 0,
      "chainId": 0
    }
  ]
}