{
  "hash": "0x8790a00d587f21d7835aada0d54813e70a01a8fc87b15c5e944d8f49d6e2273f",
  "parentHash": "0x342ecfc53b671272ba3a930f2de820d08ff8bfeebd38b2aa356173cad7f0b780",
  "number": 103029,
  "timestamp": 1439846628,
  "nonce": "0x0597dc303430a443",
  "difficulty": 4158549061286,
  "gasLimit": {
    "_hex": "0x2fefd8"
  },
  "gasUsed": {
    "_hex": "0x71be"
  },
  "miner": "0xe6A7a1d47ff21B6321162AEA7C6CB457D5476Bca",
  "extraData": "0x476574682f76312e302e312d38326566323666362f6c696e75782f676f312e34",
  "transactions": [
    {
      "hash": "0xadb2de48aab980b2322ff68bb536dc33dd10050747d2cba560fdc6ad3898b50d",
      "blockHash": "0x8790a00d587f21d7835aada0d54813e70a01a8fc87b15c5e944d8f49d6e2273f",
      "blockNumber": 103029,
      "transactionIndex": 0,
      "confirmations": null,
      "from": "0xcD063B3081Ea55535E5b60a21eff7f14E785A877",
      "gasPrice": {
        "_hex": "0xd317c8ca1"
      },
      "gasLimit": {
        "_hex": "0x30d40"
      },
      "to": "0x9E15f66B34edc3262796ef5E4D27139C931223f0",
      "value": {
        "_hex": "0x0"
      },
      "nonce": 7,
      "data": "0x55c87eb0000000000000000000000000000000000000000000000000013fbe85edc90000",
      "r": "0x599fcf384d39920077402e0346b909484eb9a810bfed36fdbda21c6fe7dfb751",
      "s": "0x7e4e1bf5509a375a540c273734f65d9ba89c6583763e0b1919e7840cfb433720",
      "v": 28,
      "creates": null,
      "raw": "0xf88907850d317c8ca183030d40949e15f66b34edc3262796ef5e4d27139c931223f080a455c87eb0000000000000000000000000000000000000000000000000013fbe85edc900001ca0599fcf384d39920077402e0346b909484eb9a810bfed36fdbda21c6fe7dfb751a07e4e1bf5509a375a540c273734f65d9ba89c6583763e0b1919e7840cfb433720",
      "networkId": 0,
      "chainId": 0
    }
  ]
}