{
  "hash": "0x413afb195e078b46e8e6ebd184afe2b3ae8972952c3d31fe5ede4a925f81f41c",
  "parentHash": "0x875769d72edfaae20e80ff2bbcd63e949d7d2208e452b9b9f481b0d0a7bc56a5",
  "number": 62582,
  "timestamp": 1439191125,
  "nonce": "0x2826ca5a3d0908a7",
  "difficulty": 1773675996789,
  "gasLimit": {
    "_hex": "0x2fefd8"
  },
  "gasUsed": {
    "_hex": "0x5208"
  },
  "miner": "0x893FF53FE9b3DA680472E1948F2294F970D44678",
  "extraData": "0x476574682f76312e302e312f6c696e75782f676f312e342e32",
  "transactions": [
    {
      "hash": "0x8b3268d88e838473ee2bb4867e2b283d40114c9a439d76d4b884a837478cf85c",
      "blockHash": "0x413afb195e078b46e8e6ebd184afe2b3ae8972952c3d31fe5ede4a925f81f41c",
      "blockNumber": 62582,
      "transactionIndex": 0,
      "confirmations": null,
      "from": "0x19aF4b2766b8115B49E1fd31Ae71CaA12E706A96",
      "gasPrice": {
        "_hex": "0xe20da3527"
      },
      "gasLimit": {
        "_hex": "0x5208"
      },
      "to": "0x32Be343B94f860124dC4fEe278FDCBD38C102D88",
      "value": {
        "_hex": "0x15aed509341eda000"
      },
      "nonce": 0,
      "data": "0x",
      "r": "0xbe8483c0fe7ebdbc7e24491a2d8b1114d9b71ff67b4c0cbefba2fb41ba1cbaa1",
      "s": "0x3bb6831bbac95815c6e46ecca7739b0c0840d65e9d1ffcfc38e19e2ed64392bd",
      "v": 27,
      "creates": null,
      "raw": "0xf86d80850e20da35278252089432be343b94f860124dc4fee278fdcbd38c102d8889015aed509341eda000801ba0be8483c0fe7ebdbc7e24491a2d8b1114d9b71ff67b4c0cbefba2fb41ba1cbaa1a03bb6831bbac95815c6e46ecca7739b0c0840d65e9d1ffcfc38e19e2ed64392bd",
      "networkId": 0,
      "chainId": 0
    }
  ]
}