{
  "hash": "0x2613136cf4b1584bbd155317fa888d426eeafb99348031b76c17b77dcbf0bc9d",
  "parentHash": "0xeeba16be90de09a42345f153f5c56178bdb15fb21413354b8821f0a069feb0c6",
  "number": 74604,
  "timestamp": 1439388959,
  "nonce": "0x6af69ca9eecef754",
  "difficulty": 2206367885741,
  "gasLimit": {
    "_hex": "0x2fefd8"
  },
  "gasUsed": {
    "_hex": "0x5208"
  },
  "miner": "0x580992B51e3925e23280EfB93d3047C82f17E038",
  "extraData": "0x476574682f76312e302e312f6c696e75782f676f312e342e32",
  "transactions": [
    {
      "hash": "0xdbaa7efb5d51c4c4a7c7a6ad6686c7a30d393ec15f104a5cbf34c3699b36eccd",
      "blockHash": "0x2613136cf4b1584bbd155317fa888d426eeafb99348031b76c17b77dcbf0bc9d",
      "blockNumber": 74604,
      "transactionIndex": 0,
      "confirmations": null,
      "from": "0xB6AC12CefF0375Da80503AcCa54bf3061Fa917a8",
      "gasPrice": {
        "_hex": "0xd9ffbd370"
      },
      "gasLimit": {
        "_hex": "0x15f90"
      },
      "to": "0x5fF827e73C5B866c300b824fe12719a3DD350513",
      "value": {
        "_hex": "0xc249fdd327780000"
      },
      "nonce": 15,
      "data": "0x",
      "r": "0xf9ad2d3bcbc3d1167527f0bab4c841297d442a3c5e895b0bb31b1aead0420120",
      "s": "0x726be4a8a25c7bdbbd2fee3713a15fecafcd44927600356482874849f558c117",
      "v": 27,
      "creates": null,
      "raw": "0xf86d0f850d9ffbd37083015f90945ff827e73c5b866c300b824fe12719a3dd35051388c249fdd327780000801ba0f9ad2d3bcbc3d1167527f0bab4c841297d442a3c5e895b0bb31b1aead0420120a0726be4a8a25c7bdbbd2fee3713a15fecafcd44927600356482874849f558c117",
      "networkId": 0,
      "chainId": 0
    }
  ]
}