{
  "hash": "0xc602163cf3d0ec0c745e031c76e9db439b60bb9abec8189f56fe960b7c7a1b5e",
  "parentHash": "0xd64a3b802509fd3509543388474950f669ac0203e24d09d3ef8eb2c86dd6e0b0",
  "number": 76783,
  "timestamp": 1439426038,
  "nonce": "0x835f2263e4375930",
  "difficulty": 2246007787300,
  "gasLimit": {
    "_hex": "0x2fefd8"
  },
  "gasUsed": {
    "_hex": "0x70d3"
  },
  "miner": "0xC603Ab5ef41fC61AA8b76bEddb09e3Cfcbb174BD",
  "extraData": "0x476574682f76312e302e312f77696e646f77732f676f312e342e32",
  "transactions": [
    {
      "hash": "0x66adf4882a9234f6100ad64d71aa62fdfd3b6bbcc13f9b5f9378251e2fc73704",
      "blockHash": "0xc602163cf3d0ec0c745e031c76e9db439b60bb9abec8189f56fe960b7c7a1b5e",
      "blockNumber": 76783,
      "transactionIndex": 0,
      "confirmations": null,
      "from": "0x8Be84A3adfBc51c59023B2413766E229108c35DE",
      "gasPrice": {
        "_hex": "0xd96647db6"
      },
      "gasLimit": {
        "_hex": "0x493e0"
      },
      "to": "0xD79B4C6791784184e2755B2fC1659eaaB0f80456",
      "value": {
        "_hex": "0x0"
      },
      "nonce": 18,
      "data": "0xbd66528a73302e3838303737383433393033373731343100000000000000000000000000",
      "r": "0x393876547e4bc8f81729afb109b0f5a79d696366eccaea7311c8f8f6b5a16a63",
      "s": "0x091ac181f7979ce52ae8df98f2ddd06cbaf9a5b1644478c63572ddd3c488a14b",
      "v": 28,
      "creates": null,
      "raw": "0xf88912850d96647db6830493e094d79b4c6791784184e2755b2fc1659eaab0f8045680a4bd66528a73302e38383037373834333930333737313431000000000000000000000000001ca0393876547e4bc8f81729afb109b0f5a79d696366eccaea7311c8f8f6b5a16a63a0091ac181f7979ce52ae8df98f2ddd06cbaf9a5b1644478c63572ddd3c488a14b",
      "networkId": 0,
      "chainId": 0
    }
  ]
}