{
  "hash": "0xe4ce2b868d6ec1f510771304a59ef967853f332f0f9b64d0b27be46f4e52f869",
  "parentHash": "0x9a6c546726a8be060508458594a14f70d89a487749f4e988092ac9a56b33f04a",
  "number": 89394,
  "timestamp": 1439622779,
  "nonce": "0xc78a797018837c99",
  "difficulty": 3309546470371,
  "gasLimit": {
    "_hex": "0x2fefd8"
  },
  "gasUsed": {
    "_hex": "0x5208"
  },
  "miner": "0x790b8a3cE86E707ED0eD32bF89B3269692a23CC1",
  "extraData": "0xd783010001844765746887676f312e342e32856c696e7578",
  "transactions": [
    {
      "hash": "0x060278f1d1406ebe0b6eec7df93e8d09f42bb37d1882ed645fc21386dfbb4dec",
      "blockHash": "0xe4ce2b868d6ec1f510771304a59ef967853f332f0f9b64d0b27be46f4e52f869",
      "blockNumber": 89394,
      "transactionIndex": 0,
      "confirmations": null,
      "from": "0xE46181d0089f5D0e0e4668eE7AB335893BDB58bf",
      "gasPrice": {
        "_hex": "0xd8364fc25"
      },
      "gasLimit": {
        "_hex": "0x15f90"
      },
      "to": "0xa2F43CA7f0275fF2D416b523422AC9FCA63f6135",
      "value": {
        "_hex": "0xf4240"
      },
      "nonce": 3,
      "data": "0x",
      "r": "0xe091416fdbc202d894033bca3facacde07b5569b4215828e06a892cca6fd713b",
      "s": "0x6cdb37ae83386a3ab6a90361991cb79f073fceb25040b64cd63063932c220907",
      "v": 28,
      "creates": null,
      "raw": "0xf86803850d8364fc2583015f9094a2f43ca7f0275ff2d416b523422ac9fca63f6135830f4240801ca0e091416fdbc202d894033bca3facacde07b5569b4215828e06a892cca6fd713ba06cdb37ae83386a3ab6a90361991cb79f073fceb25040b64cd63063932c220907",
      "networkId": 0,
      "chainId": 0
    }
  ]
}