{
  "hash": "0xa2659fb9ee157079f5a137472aa75a96c0fe62c73a6b74d500df39e43fc968b9",
  "parentHash": "0x1086033913bb933591be72be90dedd7f75b6a54fc8a48f7f8edff29f9f85bc9a",
  "number": 77779,
  "timestamp": 1439442813,
  "nonce": "0xe02e1f15f824716f",
  "difficulty": 2269995341694,
  "gasLimit": {
    "_hex": "0x2fefd8"
  },
  "gasUsed": {
    "_hex": "0x5208"
  },
  "miner": "0xbb7B8287f3F0a933474a79eAe42CBCa977791171",
  "extraData": "0x476574682f4c5649562f76312e302e312f6c696e75782f676f312e342e32",
  "transactions": [
    {
      "hash": "0xad86784e9abf5a4381d7e4fc684e26b5668f15bf94cedd080d6c7003f2487cc9",
      "blockHash": "0xa2659fb9ee157079f5a137472aa75a96c0fe62c73a6b74d500df39e43fc968b9",
      "blockNumber": 77779,
      "transactionIndex": 0,
      "confirmations": null,
      "from": "0x8178414Ff0aba7fD5bC60A72cB17e213b371F35C",
      "gasPrice": {
        "_hex": "0xe6f7cec00"
      },
      "gasLimit": {
        "_hex": "0x5208"
      },
      "to": "0x9653c9859b18f8777Fe4eEc9a67c9F64F3D6F62a",
      "value": {
        "_hex": "0x151a5861819410000"
      },
      "nonce": 2,
      "data": "0x",
      "r": "0xdda7a0c6de933813f73053d0c9c07900ce8644ffccff3cb2cef9a0d4dd204d2f",
      "s": "0x46e495c45e6296d44033cac5fade123bbeec3bca47215a11fff84b887ff94341",
      "v": 27,
      "creates": null,
      "raw": "0xf86d02850e6f7cec00825208949653c9859b18f8777fe4eec9a67c9f64f3d6f62a890151a5861819410000801ba0dda7a0c6de933813f73053d0c9c07900ce8644ffccff3cb2cef9a0d4dd204d2fa046e495c45e6296d44033cac5fade123bbeec3bca47215a11fff84b887ff94341",
      "networkId": 0,
      "chainId": 0
    }
  ]
}