{
  "hash": "0x0257633afac72cd981dda4075b56c355f10935153813c794bf53dc7efe9ff492",
  "parentHash": "0xc5c1fb570d28900a37cb858385ed80db33f4233960ee6011fd5567ba63bdd20d",
  "number": 121759,
  "timestamp": 1440182068,
  "nonce": "0x3cd356eec9b6c0d9",
  "difficulty": 4477681189829,
  "gasLimit": {
    "_hex": "0x2fefd8"
  },
  "gasUsed": {
    "_hex": "0x5208"
  },
  "miner": "0x9D551f41feD6FC27B719777c224DfeCcE170004d",
  "extraData": "0x476574682f76312e302e322d61303330336666342f6c696e75782f676f312e34",
  "transactions": [
    {
      "hash": "0x5aabd7fe772f01bf46ac1271a6476ff40222fb0867f1819aea98d7d306a8b20b",
      "blockHash": "0x0257633afac72cd981dda4075b56c355f10935153813c794bf53dc7efe9ff492",
      "blockNumber": 121759,
      "transactionIndex": 0,
      "confirmations": null,
      "from": "0x14b17b694095306BE800D68e43cAF4EF963FecBb",
      "gasPrice": {
        "_hex": "0xd9cdfe58c"
      },
      "gasLimit": {
        "_hex": "0x15f90"
      },
      "to": "0x9b0a028EAfDeCdE3AFc0fD00B7937098388b7C8a",
      "value": {
        "_hex": "0x56b91257bb9a2ed40"
      },
      "nonce": 0,
      "data": "0x",
      "r": "0xf8c241ef1af4c4a8057cc9172ef7eccbb14f95a04e85f2aef1cbc121d840d9ae",
      "s": "0x4103ad9835cc9b5185a069f91fc26aab609eb1dfe242c6f3eb2d30ede9fa1eba",
      "v": 27,
      "creates": null,
      "raw": "0xf86e80850d9cdfe58c83015f90949b0a028eafdecde3afc0fd00b7937098388b7c8a89056b91257bb9a2ed40801ba0f8c241ef1af4c4a8057cc9172ef7eccbb14f95a04e85f2aef1cbc121d840d9aea04103ad9835cc9b5185a069f91fc26aab609eb1dfe242c6f3eb2d30ede9fa1eba",
      "networkId": 0,
      "chainId": 0
    }
  ]
}