{
  "hash": "0x56a4af35cac4865c418349b588828d39efaafa6860f61144a65c3b4ee1bad0dc",
  "parentHash": "0xaf998542d6f014d236b8488233e636195d067b34b8efd92914b81c8823d04b2e",
  "number": 101860,
  "timestamp": 1439829256,
  "nonce": "0xa7549ce432c42708",
  "difficulty": 3886210376964,
  "gasLimit": {
    "_hex": "0x2fefd8"
  },
  "gasUsed": {
    "_hex": "0x18326"
  },
  "miner": "0xe6A7a1d47ff21B6321162AEA7C6CB457D5476Bca",
  "extraData": "0x476574682f76312e302e312d38326566323666362f6c696e75782f676f312e34",
  "transactions": [
    {
      "hash": "0x760df2f02b6d50a34ae0c0732d7b1f6015b6b5541e95ad416c73e09d5630410d",
      "blockHash": "0x56a4af35cac4865c418349b588828d39efaafa6860f61144a65c3b4ee1bad0dc",
      "blockNumber": 101860,
      "transactionIndex": 0,
      "confirmations": null,
      "from": "0x0F87Fb507513e749081E34373c84E95e85b5c057",
      "gasPrice": {
        "_hex": "0xcf9065ca8"
      },
      "gasLimit": {
        "_hex": "0x249f0"
      },
      "to": "0xE28e72FCf78647ADCe1F1252F240bbfaebD63BcC",
      "value": {
        "_hex": "0xde0b6b3a7640000"
      },
      "nonce": 2,
      "data": "0x45466f3a",
      "r": "0x92d64ffcf272051713c6ca52825956450fd8ce7a7e5a27343eaef849ca00de72",
      "s": "0x40dda6abc1e2380235e0932b28acef83743d177853991bb61f11a22812034742",
      "v": 27,
      "creates": null,
      "raw": "0xf87102850cf9065ca8830249f094e28e72fcf78647adce1f1252f240bbfaebd63bcc880de0b6b3a76400008445466f3a1ba092d64ffcf272051713c6ca52825956450fd8ce7a7e5a27343eaef849ca00de72a040dda6abc1e2380235e0932b28acef83743d177853991bb61f11a22812034742",
      "networkId": 0,
      "chainId": 0
    }
  ]
}