{
  "hash": "0x3f261aa6079ab9be54c495710d316d3acd3ea491db5e7ffe3bb08e6c02f43896",
  "parentHash": "0xdc0f7bce678db7faddb9505879842e6a9b724d8cabc0690c18e0b009e62da268",
  "number": 69069,
  "timestamp": 1439297889,
  "nonce": "0xa502a8485c22a2a4",
  "difficulty": 2048894663591,
  "gasLimit": {
    "_hex": "0x2fefd5"
  },
  "gasUsed": {
    "_hex": "0x5208"
  },
  "miner": "0xf927a40C8B7F6E07c5af7FA2155B4864a4112B13",
  "extraData": "0x",
  "transactions": [
    {
      "hash": "0x25419f6ff8b76ece9f1b27b7ba833943bec70eb9b836042753b3f6de30383aa7",
      "blockHash": "0x3f261aa6079ab9be54c495710d316d3acd3ea491db5e7ffe3bb08e6c02f43896",
      "blockNumber": 69069,
      "transactionIndex": 0,
      "confirmations": null,
      "from": "0x6747f922385c9a6F9cfDf095F34345257DD597bE",
      "gasPrice": {
        "_hex": "0xba43b7400"
      },
      "gasLimit": {
        "_hex": "0x5208"
      },
      "to": "0xA051AF8F42550826a244b4f5C019f56bc639B1E8",
      "value": {
        "_hex": "0x1fcbfa42bd6000"
      },
      "nonce": 152,
      "data": "0x",
      "r": "0x3682ed329e51a79cec41575d20baff4ce43690cb734f00de11511eb2df4b55e3",
      "s": "0x59cabb5dd1dd91fe6a51108f6ce68bb0d4ce13a3f0525131e4cd3e807575f4ea",
      "v": 28,
      "creates": null,
      "raw": "0xf86c8198850ba43b740082520894a051af8f42550826a244b4f5c019f56bc639b1e8871fcbfa42bd6000801ca03682ed329e51a79cec41575d20baff4ce43690cb734f00de11511eb2df4b55e3a059cabb5dd1dd91fe6a51108f6ce68bb0d4ce13a3f0525131e4cd3e807575f4ea",
      "networkId": 0,
      "chainId": 0
    }
  ]
}