{
  "hash": "0x9c2f9337af47afca0eefadbb2ae9b5e576b11bc6362478187b7d04e17200d476",
  "parentHash": "0x38adab094fb1b4ffbf2e975626c3d356b12c390c0c33ec412eb246e4afa0572b",
  "number": 59941,
  "timestamp": 1439146278,
  "nonce": "0x272ef0436f1e2887",
  "difficulty": 1735675024900,
  "gasLimit": {
    "_hex": "0x2fefd5"
  },
  "gasUsed": {
    "_hex": "0x546c"
  },
  "miner": "0x9D49F602b0fdb924Bd63DDE2Bd0907E4A07c63a7",
  "extraData": "0x476574682f76312e302e312f6c696e75782f676f312e342e32",
  "transactions": [
    {
      "hash": "0x7dd9fb9fefd53473d14bd5aeebae82cd223c162f2c43c388385a35714f545abe",
      "blockHash": "0x9c2f9337af47afca0eefadbb2ae9b5e576b11bc6362478187b7d04e17200d476",
      "blockNumber": 59941,
      "transactionIndex": 0,
      "confirmations": null,
      "from": "0xe6282e5294D064DD01851808dE43b9be32066E72",
      "gasPrice": {
        "_hex": "0x109b93bd48f"
      },
      "gasLimit": {
        "_hex": "0x55f0"
      },
      "to": "0x2910543Af39abA0Cd09dBb2D50200b3E800A63D2",
      "value": {
        "_hex": "0xde0b6b3a7640000"
      },
      "nonce": 4,
      "data": "0x454e3137344a514738",
      "r": "0x28fb4f8248d43e150661fa014eadf2034747472ff82d9c658a784a52d07e70ed",
      "s": "0x235705e65fe6d553c097aa53a15a0a8135a953d2ba4746aa264b885433491523",
      "v": 28,
      "creates": null,
      "raw": "0xf87604860109b93bd48f8255f0942910543af39aba0cd09dbb2d50200b3e800a63d2880de0b6b3a764000089454e3137344a5147381ca028fb4f8248d43e150661fa014eadf2034747472ff82d9c658a784a52d07e70eda0235705e65fe6d553c097aa53a15a0a8135a953d2ba4746aa264b885433491523",
      "networkId": 0,
      "chainId": 0
    }
  ]
}