{
  "hash": "0xc1523f5f462b9ce005a4209b47620408dfffa2ce5afe524561013818b509becb",
  "parentHash": "0x92368747c85472fb65df2860802163d7127db79c5f85f138fe27abc0f168b58b",
  "number": 91176,
  "timestamp": 1439651584,
  "nonce": "0x494024e45d57e995",
  "difficulty": 3437294472970,
  "gasLimit": {
    "_hex": "0x2fefd8"
  },
  "gasUsed": {
    "_hex": "0xa410"
  },
  "miner": "0xcf00A85f3826941e7A25BFcF9Aac575d40410852",
  "extraData": "0x476574682f76312e302e312f77696e646f77732f676f312e342e32",
  "transactions": [
    {
      "hash": "0x2b26e04c33c7f6dc4db31ba4fca7ea871bbf750d7a5bafcbeef48743430440a8",
      "blockHash": "0xc1523f5f462b9ce005a4209b47620408dfffa2ce5afe524561013818b509becb",
      "blockNumber": 91176,
      "transactionIndex": 0,
      "confirmations": null,
      "from": "0xE87470b43FA5904a32866396B2f798D898c13978",
      "gasPrice": {
        "_hex": "0xcd01555c5"
      },
      "gasLimit": {
        "_hex": "0x15f90"
      },
      "to": "0x972ad000397A3c903299F1353d6d4b85eE4E4e2A",
      "value": {
        "_hex": "0xd02ab486cedc0000"
      },
      "nonce": 7,
      "data": "0x",
      "r": "0x607b78b5d62e9005f41787450a2c6899bff09e0e6b4c133e821e1ae4b6504357",
      "s": "0x2fa42836a85b8291de304fc67382be692efcca66f61ec5c37f530dbc22b00273",
      "v": 28,
      "creates": null,
      "raw": "0xf86d07850cd01555c583015f9094972ad000397a3c903299f1353d6d4b85ee4e4e2a88d02ab486cedc0000801ca0607b78b5d62e9005f41787450a2c6899bff09e0e6b4c133e821e1ae4b6504357a02fa42836a85b8291de304fc67382be692efcca66f61ec5c37f530dbc22b00273",
      "networkId": 0,
      "chainId": 0
    },
    {
      "hash": "0x1440e76b6ae26fa1fd5a8105f4d6b86bb885f0c6f5747b10c83e3cbb79d15d64",
      "blockHash": "0xc1523f5f462b9ce005a4209b47620408dfffa2ce5afe524561013818b509becb",
      "blockNumber": 91176,
      "transactionIndex": 1,
      "confirmations": null,
      "from": "0xA6C910ce4D494a919CCdAaa1fc3b82Aa74BA06CF",
      "gasPrice": {
        "_hex": "0xba43b7400"
      },
      "gasLimit": {
        "_hex": "0x5208"
      },
      "to": "0xcEf2F9eDE909391e2b692bb5001b8242F79f812b",
      "value": {
        "_hex": "0x1b1ae49b336c7fc6000"
      },
      "nonce": 0,
      "data": "0x",
      "r": "0xda12f40903788fe54fa611ab4d5a6752cf2a8a9b05cfc5c0ed336488fc642eb1",
      "s": "0xc72aafca5af8ac403324084561b8a72c27af2b4af2f35d9436be49465710b21a",
      "v": 27,
      "creates": null,
      "raw": "0xf86e80850ba43b740082520894cef2f9ede909391e2b692bb5001b8242f79f812b8a01b1ae49b336c7fc6000801ba0da12f40903788fe54fa611ab4d5a6752cf2a8a9b05cfc5c0ed336488fc642eb1a0c72aafca5af8ac403324084561b8a72c27af2b4af2f35d9436be49465710b21a",
      "networkId": 0,
      "chainId": 0
    }
  ]
}