{
  "hash": "0xc9135f0dba4e66b2021bc43eeb0557257e95e32fd652acc84ce94ef9ad2e78f1",
  "parentHash": "0x56f88f2964f154970a6b267baad7a755b70af809bde635c2bbef3f1a07f78a6a",
  "number": 76343,
  "timestamp": 1439418814,
  "nonce": "0x860825556d92cb10",
  "difficulty": 2224297532009,
  "gasLimit": {
    "_hex": "0x2fefd8"
  },
  "gasUsed": {
    "_hex": "0x5208"
  },
  "miner": "0x7E6930B63D03e88F5928C5cd6ee3FCee4D714F7F",
  "extraData": "0x",
  "transactions": [
    {
      "hash": "0x7b52b334ec1ebe6168aa9aa29d0889b668e450bfc92e81dbee56c9f3703156c2",
      "blockHash": "0xc9135f0dba4e66b2021bc43eeb0557257e95e32fd652acc84ce94ef9ad2e78f1",
      "blockNumber": 76343,
      "transactionIndex": 0,
      "confirmations": null,
      "from": "0xA10C59651885FeAaac91F871082a23BBbaBeDfCf",
      "gasPrice": {
        "_hex": "0x10e43e3b6f8"
      },
      "gasLimit": {
        "_hex": "0x5208"
      },
      "to": "0x4c74B6F32c9680aCB5Fe0e72B7Aa95C612540A04",
      "value": {
        "_hex": "0x56bc75e2d63100000"
      },
      "nonce": 20,
      "data": "0x",
      "r": "0x6f34ef1eac3fe2683e0ff03683442dae4cd4a934bf946e3e104fbe7a708fbca9",
      "s": "0x537a26bb9c0044f179c8b9b2686abebf67a741fba36bc2bfc1587f0102cef1b5",
      "v": 28,
      "creates": null,
      "raw": "0xf86e1486010e43e3b6f8825208944c74b6f32c9680acb5fe0e72b7aa95c612540a0489056bc75e2d63100000801ca06f34ef1eac3fe2683e0ff03683442dae4cd4a934bf946e3e104fbe7a708fbca9a0537a26bb9c0044f179c8b9b2686abebf67a741fba36bc2bfc1587f0102cef1b5",
      "networkId": 0,
      "chainId": 0
    }
  ]
}