{
  "hash": "0xdc8d55a0cd8edb6ffe2fef0dc0ad45af9bd6ab76f3fcfba12e1d9131ac33538e",
  "parentHash": "0x5ec203db273be2db1436713f044176887e23a5b7efff6b27d4a5e09e4a661625",
  "number": 73234,
  "timestamp": 1439365603,
  "nonce": "0x7ae30161d5a69214",
  "difficulty": 2204574295668,
  "gasLimit": {
    "_hex": "0x2fefd8"
  },
  "gasUsed": {
    "_hex": "0x5208"
  },
  "miner": "0xe6A7a1d47ff21B6321162AEA7C6CB457D5476Bca",
  "extraData": "0x476574682f76312e302e312d38326566323666362f6c696e75782f676f312e34",
  "transactions": [
    {
      "hash": "0xb0f23be9d3282b4f1ea8de9aa11f885e3e6988dee821d6233a4176bf918a7e3b",
      "blockHash": "0xdc8d55a0cd8edb6ffe2fef0dc0ad45af9bd6ab76f3fcfba12e1d9131ac33538e",
      "blockNumber": 73234,
      "transactionIndex": 0,
      "confirmations": null,
      "from": "0x120A270bbC009644e35F0bB6ab13f95b8199c4ad",
      "gasPrice": {
        "_hex": "0xdfac3e1b8"
      },
      "gasLimit": {
        "_hex": "0x15f90"
      },
      "to": "0x1497E97789518752dC52466b00330d8a19611BA9",
      "value": {
        "_hex": "0x8ac7230489e800000"
      },
      "nonce": 256,
      "data": "0x",
      "r": "0xe98f4ed7cb73c6032717ac6c1caf6220ec42b08ecdd7ea6b7e832cf747456e37",
      "s": "0x76d9b57ffdd4d9f09a7e2ea4d78cb468b36cda95bc53506e8ab7957a5fc61a13",
      "v": 28,
      "creates": null,
      "raw": "0xf870820100850dfac3e1b883015f90941497e97789518752dc52466b00330d8a19611ba98908ac7230489e800000801ca0e98f4ed7cb73c6032717ac6c1caf6220ec42b08ecdd7ea6b7e832cf747456e37a076d9b57ffdd4d9f09a7e2ea4d78cb468b36cda95bc53506e8ab7957a5fc61a13",
      "networkId": 0,
      "chainId": 0
    }
  ]
}