{
  "hash": "0x633f5bf1f4012458c9de563af2dec87f21396cfcf053891ade35f7a1caa26ad1",
  "parentHash": "0xd31ae0073bdfb983b3234dafc3a96f2a32aa6d72afaaeb51a8f974b6a3143d75",
  "number": 55917,
  "timestamp": 1439079195,
  "nonce": "0xc873333b298b0ba0",
  "difficulty": 1610719189614,
  "gasLimit": {
    "_hex": "0x2fefd8"
  },
  "gasUsed": {
    "_hex": "0x14820"
  },
  "miner": "0x01d9DA08cc6Fb97c0DE1B6F4C28910A0859Ed1A1",
  "extraData": "0x476574682f76312e302e312f6c696e75782f676f312e342e32",
  "transactions": [
    {
      "hash": "0x8e0d9acacdada9ffd74156870ded8f6bc950cda52323944d13e562e6dccebca2",
      "blockHash": "0x633f5bf1f4012458c9de563af2dec87f21396cfcf053891ade35f7a1caa26ad1",
      "blockNumber": 55917,
      "transactionIndex": 0,
      "confirmations": null,
      "from": "0xc0920452d99591a4e8b190632c52754c72F73328",
      "gasPrice": {
        "_hex": "0xcebd8278e"
      },
      "gasLimit": {
        "_hex": "0x5208"
      },
      "to": "0x32Be343B94f860124dC4fEe278FDCBD38C102D88",
      "value": {
        "_hex": "0x1efa3d805f0875000"
      },
      "nonce": 0,
      "data": "0x",
      "r": "0xa8cfd5ac3754714fdd234d8ba9bdffec519af3fda6a6381605d2009468a37e31",
      "s": "0x30b302c34f960ee01f863a496d09d6e12ff0dd1c9e02a4b3f14fcc9992a6a7a8",
      "v": 27,
      "creates": null,
      "raw": "0xf86d80850cebd8278e8252089432be343b94f860124dc4fee278fdcbd38c102d888901efa3d805f0875000801ba0a8cfd5ac3754714fdd234d8ba9bdffec519af3fda6a6381605d2009468a37e31a030b302c34f960ee01f863a496d09d6e12ff0dd1c9e02a4b3f14fcc9992a6a7a8",
      "networkId": 0,
      "chainId": 0
    },
    {
      "hash": "0xbfa1c489f56e0d7f0c87ea6e67aba16765cbf5d66c8e33cf92ca85e2f305c722",
      "blockHash": "0x633f5bf1f4012458c9de563af2dec87f21396cfcf053891ade35f7a1caa26ad1",
      "blockNumber": 55917,
      "transactionIndex": 1,
      "confirmations": null,
      "from": "0xabceA603089850F8f6bB612A9031554D90A247CF",
      "gasPrice": {
        "_hex": "0xcebd8278e"
      },
      "gasLimit": {
        "_hex": "0x5208"
      },
      "to": "0x32Be343B94f860124dC4fEe278FDCBD38C102D88",
      "value": {
        "_hex": "0xe874339787415000"
      },
      "nonce": 0,
      "data": "0x",
      "r": "0x3b2eb60b197c4880850b3cab1adc00c45a285b8eac2a2140f9a65f1675d846fd",
      "s": "0x2b39e027083ab5294e211d6010f048eb989d61f5fffdc8829acacd9d296b6dfb",
      "v": 28,
      "creates": null,
      "raw": "0xf86c80850cebd8278e8252089432be343b94f860124dc4fee278fdcbd38c102d8888e874339787415000801ca03b2eb60b197c4880850b3cab1adc00c45a285b8eac2a2140f9a65f1675d846fda02b39e027083ab5294e211d6010f048eb989d61f5fffdc8829acacd9d296b6dfb",
      "networkId": 0,
      "chainId": 0
    },
    {
      "hash": "0x4ff6ddf6eea59d7e6a2d57d59299dd0eeb3fff695a63c43b5811e9f93705ca37",
      "blockHash": "0x633f5bf1f4012458c9de563af2dec87f21396cfcf053891ade35f7a1caa26ad1",
      "blockNumber": 55917,
      "transactionIndex": 2,
      "confirmations": null,
      "from": "0xdCB14605B0EE4F372D223e5DF87aa9e760886D01",
      "gasPrice": {
        "_hex": "0xcebd8278e"
      },
      "gasLimit": {
        "_hex": "0x5208"
      },
      "to": "0x32Be343B94f860124dC4fEe278FDCBD38C102D88",
      "value": {
        "_hex": "0x347a0a22d68292000"
      },
      "nonce": 0,
      "data": "0x",
      "r": "0x469ba6cd5099b8654669483af7e9e0da45ee829def0cc61d1bc00efe7b1fd7fe",
      "s": "0x752bd78c896563d0000f18117439bff1b8e3623768d830545b435280a66d84c4",
      "v": 28,
      "creates": null,
      "raw": "0xf86d80850cebd8278e8252089432be343b94f860124dc4fee278fdcbd38c102d88890347a0a22d68292000801ca0469ba6cd5099b8654669483af7e9e0da45ee829def0cc61d1bc00efe7b1fd7fea0752bd78c896563d0000f18117439bff1b8e3623768d830545b435280a66d84c4",
      "networkId": 0,
      "chainId": 0
    },
    {
      "hash": "0x4f9756e9aaff3c2afeab9b68cd54f01541d0baece0c17bd180d2e6eb24d03e3c",
      "blockHash": "0x633f5bf1f4012458c9de563af2dec87f21396cfcf053891ade35f7a1caa26ad1",
      "blockNumber": 55917,
      "transactionIndex": 3,
      "confirmations": null,
      "from": "0x771b12Bc207A1c4823e77075B17F8D329ACD77A3",
      "gasPrice": {
        "_hex": "0xcebd8278e"
      },
      "gasLimit": {
        "_hex": "0x5208"
      },
      "to": "0x32Be343B94f860124dC4fEe278FDCBD38C102D88",
      "value": {
        "_hex": "0x197a67ac1407f5000"
      },
      "nonce": 0,
      "data": "0x",
      "r": "0x80e27f2990439918525a44ee695aa564aa56d40100b3431c11ffb191d37ff85b",
      "s": "0x3ad576754e751ff81407664359d8be9f8d60592423f5ff244b56b05b9798bf8d",
      "v": 27,
      "creates": null,
      "raw": "0xf86d80850cebd8278e8252089432be343b94f860124dc4fee278fdcbd38c102d88890197a67ac1407f5000801ba080e27f2990439918525a44ee695aa564aa56d40100b3431c11ffb191d37ff85ba03ad576754e751ff81407664359d8be9f8d60592423f5ff244b56b05b9798bf8d",
      "networkId": 0,
      "chainId": 0
    }
  ]
}