{
  "hash": "0x44c4706888a71455c527edf875073074f212d94bb72f7255f2b1de188b919986",
  "parentHash": "0x9179afb250a06296f121655488e6aa38d1d7d81bcf76d7dd05042b3669a566c5",
  "number": 54433,
  "timestamp": 1439054274,
  "nonce": "0xcee6b07bd47024b6",
  "difficulty": 1606291329483,
  "gasLimit": {
    "_hex": "0x2fefd8"
  },
  "gasUsed": {
    "_hex": "0xa674"
  },
  "miner": "0x24A98cf1216cf7af513fc2F21ed7Adb0cb1b1A65",
  "extraData": "0x476574682f76312e302e312f6c696e75782f676f312e342e32",
  "transactions": [
    {
      "hash": "0x90942794f3ecdd84116f22e7060db2ea0d3570e94197fe182a1212bef765a5f3",
      "blockHash": "0x44c4706888a71455c527edf875073074f212d94bb72f7255f2b1de188b919986",
      "blockNumber": 54433,
      "transactionIndex": 0,
      "confirmations": null,
      "from": "0x9b444Fd337E5D75293ADcFFF70E1ea01DB023222",
      "gasPrice": {
        "_hex": "0x110c8f7d8de"
      },
      "gasLimit": {
        "_hex": "0xc350"
      },
      "to": "0x2910543Af39abA0Cd09dBb2D50200b3E800A63D2",
      "value": {
        "_hex": "0x56900d33ca7fc0000"
      },
      "nonce": 0,
      "data": "0x454e335a5959304238",
      "r": "0x2ea6cac40cd2c16400126f8ad685350aee6808d11b528136f2eab83111f5150b",
      "s": "0x28d03bcf6df0a1338a37c894ae4a5fcba98a1e93b680e0f6863477866284a595",
      "v": 28,
      "creates": null,
      "raw": "0xf87780860110c8f7d8de82c350942910543af39aba0cd09dbb2d50200b3e800a63d289056900d33ca7fc000089454e335a59593042381ca02ea6cac40cd2c16400126f8ad685350aee6808d11b528136f2eab83111f5150ba028d03bcf6df0a1338a37c894ae4a5fcba98a1e93b680e0f6863477866284a595",
      "networkId": 0,
      "chainId": 0
    },
    {
      "hash": "0xd073e4dd00379a3894874af8cb2cefbef4ca08cccddef75b0e72971e4c0eb05c",
      "blockHash": "0x44c4706888a71455c527edf875073074f212d94bb72f7255f2b1de188b919986",
      "blockNumber": 54433,
      "transactionIndex": 1,
      "confirmations": null,
      "from": "0x1C257ad4A55105ea3B58Ed374b198dA266c85f63",
      "gasPrice": {
        "_hex": "0x10e33696a9c"
      },
      "gasLimit": {
        "_hex": "0x5208"
      },
      "to": "0x439632734cdF5a84774156c1938CbeDe2eF398F0",
      "value": {
        "_hex": "0x15af1d78b58c40000"
      },
      "nonce": 5,
      "data": "0x",
      "r": "0x6be5df0d8959f1119b661d32856a7a3e1bb2448915c8767d702177b31fc94f37",
      "s": "0x5353d9a3e8c5973a2eefba85fc5dbc55351b879f3cbb6bba5e0bd9a8a383dc4c",
      "v": 27,
      "creates": null,
      "raw": "0xf86e0586010e33696a9c82520894439632734cdf5a84774156c1938cbede2ef398f089015af1d78b58c40000801ba06be5df0d8959f1119b661d32856a7a3e1bb2448915c8767d702177b31fc94f37a05353d9a3e8c5973a2eefba85fc5dbc55351b879f3cbb6bba5e0bd9a8a383dc4c",
      "networkId": 0,
      "chainId": 0
    }
  ]
}