{
  "hash": "0x105c4628015dbf35079586815247b15ff73764c5235b965cccbe24f8daa530a2",
  "parentHash": "0xf2b5c1aecdb113d904b5e68b9f0925c24892791218d65eb52a8d7939c5f4ecf4",
  "number": 59381,
  "timestamp": 1439137332,
  "nonce": "0x5196c731a6b18c11",
  "difficulty": 1698896260371,
  "gasLimit": {
    "_hex": "0x2fefd5"
  },
  "gasUsed": {
    "_hex": "0x5208"
  },
  "miner": "0xf927a40C8B7F6E07c5af7FA2155B4864a4112B13",
  "extraData": "0x476574682f76312e302e312f6c696e75782f676f312e342e32",
  "transactions": [
    {
      "hash": "0xa78734a2dc7de36640c977fdc2ae4ba93e419cba8f2b98d07c66a16951a2c85c",
      "blockHash": "0x105c4628015dbf35079586815247b15ff73764c5235b965cccbe24f8daa530a2",
      "blockNumber": 59381,
      "transactionIndex": 0,
      "confirmations": null,
      "from": "0x32Be343B94f860124dC4fEe278FDCBD38C102D88",
      "gasPrice": {
        "_hex": "0xcf70210cf"
      },
      "gasLimit": {
        "_hex": "0x5208"
      },
      "to": "0xAA8493cA555A6D8E176c37408ba4BBb8E16Bd529",
      "value": {
        "_hex": "0x13fbe85edc90000"
      },
      "nonce": 105,
      "data": "0x",
      "r": "0x738a7ef47a8028e3d619748a65a433afada6c42dc694e3a83af0daed11a93c5b",
      "s": "0x33c2cbac595422a847533fbc67c144d838d3a34e8bab5e5cdfbb4d0c8e288cb7",
      "v": 27,
      "creates": null,
      "raw": "0xf86c69850cf70210cf82520894aa8493ca555a6d8e176c37408ba4bbb8e16bd52988013fbe85edc90000801ba0738a7ef47a8028e3d619748a65a433afada6c42dc694e3a83af0daed11a93c5ba033c2cbac595422a847533fbc67c144d838d3a34e8bab5e5cdfbb4d0c8e288cb7",
      "networkId": 0,
      "chainId": 0
    }
  ]
}