{
  "hash": "0xc6b8c2ddf8197014008de6b36c580c5a0be11044b71c20d95002094ab46346a9",
  "parentHash": "0xed55c249baddcee6d4ed8be79c0b4c9e35bbfd9e12ae61997b2f77ed4f78ba1e",
  "number": 82223,
  "timestamp": 1439515692,
  "nonce": "0x01a8b13f6bbd15d1",
  "difficulty": 2379997838520,
  "gasLimit": {
    "_hex": "0x2fefd5"
  },
  "gasUsed": {
    "_hex": "0x546c"
  },
  "miner": "0xEF247E639d49461D25F57e9362CadE3120910Ce0",
  "extraData": "0x476574682f76312e302e312f6c696e75782f676f312e342e32",
  "transactions": [
    {
      "hash": "0xadd69ef3ebd0f910d77800ed81d345a1425e90106660f7e93dd52864fca171ae",
      "blockHash": "0xc6b8c2ddf8197014008de6b36c580c5a0be11044b71c20d95002094ab46346a9",
      "blockNumber": 82223,
      "transactionIndex": 0,
      "confirmations": null,
      "from": "0x157c6f2431eB1a95797EE86F7d17b3c0FD47A247",
      "gasPrice": {
        "_hex": "0xe1b74a1f7"
      },
      "gasLimit": {
        "_hex": "0x15f90"
      },
      "to": "0xc0b9d23f8d37650D0141B559dbD33d94Ea004e07",
      "value": {
        "_hex": "0x56bc75e2d63100000"
      },
      "nonce": 8,
      "data": "0x454e433933464b3330",
      "r": "0xd9cedb7c2a9c81342b205e5b480a7bdf7a7ae148ea6bf0234686074f3831a554",
      "s": "0x4233461d402a5ddb974e8ede9cdf232b0158f7755dcbfde8bd7a214f68e979e1",
      "v": 28,
      "creates": null,
      "raw": "0xf87708850e1b74a1f783015f9094c0b9d23f8d37650d0141b559dbd33d94ea004e0789056bc75e2d6310000089454e433933464b33301ca0d9cedb7c2a9c81342b205e5b480a7bdf7a7ae148ea6bf0234686074f3831a554a04233461d402a5ddb974e8ede9cdf232b0158f7755dcbfde8bd7a214f68e979e1",
      "networkId": 0,
      "chainId": 0
    }
  ]
}