{
  "hash": "0x81a5e0c7dc707224017e125a9c89d2e0e2935099e03f5c1f9225932ae0238616",
  "parentHash": "0x8f36d20f97368bc89fa4c7118246f73c111c6e90a4201eb6265b155733532c3b",
  "number": 105439,
  "timestamp": 1439887657,
  "nonce": "0x343eb2146931eda4",
  "difficulty": 4391041488202,
  "gasLimit": {
    "_hex": "0x2fefd8"
  },
  "gasUsed": {
    "_hex": "0x42a68"
  },
  "miner": "0xe6A7a1d47ff21B6321162AEA7C6CB457D5476Bca",
  "extraData": "0x476574682f76312e302e312d38326566323666362f6c696e75782f676f312e34",
  "transactions": [
    {
      "hash": "0xf87999068b45b4d66be99e166033479e6fd327538fa172e6a7b06ed3fe07399d",
      "blockHash": "0x81a5e0c7dc707224017e125a9c89d2e0e2935099e03f5c1f9225932ae0238616",
      "blockNumber": 105439,
      "transactionIndex": 0,
      "confirmations": null,
      "from": "0x6d84df1cFAD609EAc476cBC2553390bFC23Cf6Fc",
      "gasPrice": {
        "_hex": "0xcef893702"
      },
      "gasLimit": {
        "_hex": "0x5208"
      },
      "to": "0x32Be343B94f860124dC4fEe278FDCBD38C102D88",
      "value": {
        "_hex": "0xdc9b1cd7b42270000"
      },
      "nonce": 5,
      "data": "0x",
      "r": "0x579fea2cb2fbf60c7c92f5688b7093002ba57077ffc3c01923921e668f05c3fe",
      "s": "0x04cf800e0458e44f92111ac73a6bd49805b0d3a95d1637e8c0b6915c826cbe31",
      "v": 27,
      "creates": null,
      "raw": "0xf86d05850cef8937028252089432be343b94f860124dc4fee278fdcbd38c102d88890dc9b1cd7b42270000801ba0579fea2cb2fbf60c7c92f5688b7093002ba57077ffc3c01923921e668f05c3fea004cf800e0458e44f92111ac73a6bd49805b0d3a95d1637e8c0b6915c826cbe31",
      "networkId": 0,
      "chainId": 0
    },
    {
      "hash": "0x9f463ddd0f937cdabfeaede2bf71738bf674a9cac51fce2118f7bd6d1f11a7cb",
      "blockHash": "0x81a5e0c7dc707224017e125a9c89d2e0e2935099e03f5c1f9225932ae0238616",
      "blockNumber": 105439,
      "transactionIndex": 1,
      "confirmations": null,
      "from": "0x61F642543d22bAf5382908a714E675Cc0b51ea45",
      "gasPrice": {
        "_hex": "0xcef893702"
      },
      "gasLimit": {
        "_hex": "0x5208"
      },
      "to": "0x32Be343B94f860124dC4fEe278FDCBD38C102D88",
      "value": {
        "_hex": "0xd0268f644fa92000"
      },
      "nonce": 16,
      "data": "0x",
      "r": "0xb5022ddefbd9ee1e7e48c6fff99d1ba9a61d697909a2be9fea4e99257b27edc6",
      "s": "0x4f8d63c7703ec8a254ab3d00b469f25417ebaf91e79786af2189be7f1d2508c4",
      "v": 27,
      "creates": null,
      "raw": "0xf86c10850cef8937028252089432be343b94f860124dc4fee278fdcbd38c102d8888d0268f644fa92000801ba0b5022ddefbd9ee1e7e48c6fff99d1ba9a61d697909a2be9fea4e99257b27edc6a04f8d63c7703ec8a254ab3d00b469f25417ebaf91e79786af2189be7f1d2508c4",
      "networkId": 0,
      "chainId": 0
    },
    {
      "hash": "0xec222b6fd8716770f192a85f26380039aec5db18a7118431d469fe6363fa88e0",
      "blockHash": "0x81a5e0c7dc707224017e125a9c89d2e0e2935099e03f5c1f9225932ae0238616",
      "blockNumber": 105439,
      "transactionIndex": 2,
      "confirmations": null,
      "from": "0x3b01EBd2419f6d39DB6AB4471e6382848716641F",
      "gasPrice": {
        "_hex": "0xcef893702"
      },
      "gasLimit": {
        "_hex": "0x5208"
      },
      "to": "0x32Be343B94f860124dC4fEe278FDCBD38C102D88",
      "value": {
        "_hex": "0x5b9477ac3bbde4000"
      },
      "nonce": 3,
      "data": "0x",
      "r": "0xfef1b1d1e1ade532d2ddd07bda9dc3918b4c9c5c863590b18f2142ffeec6d922",
      "s": "0x70dd53ac255d0221108814acd80e7df63bae8f290f06f235d7b30c8d6305fdb5",
      "v": 28,
      "creates": null,
      "raw": "0xf86d03850cef8937028252089432be343b94f860124dc4fee278fdcbd38c102d888905b9477ac3bbde4000801ca0fef1b1d1e1ade532d2ddd07bda9dc3918b4c9c5c863590b18f2142ffeec6d922a070dd53ac255d0221108814acd80e7df63bae8f290f06f235d7b30c8d6305fdb5",
      "networkId": 0,
      "chainId": 0
    },
    {
      "hash": "0xc80ec0e5e8b3aff7a834d8ab25bc441005020f605e6897dfa8984d2690f8a06a",
      "blockHash": "0x81a5e0c7dc707224017e125a9c89d2e0e2935099e03f5c1f9225932ae0238616",
      "blockNumber": 105439,
      "transactionIndex": 3,
      "confirmations": null,
      "from": "0x8101538Df7E005d06CA303f609631c4029130687",
      "gasPrice": {
        "_hex": "0xcef893702"
      },
      "gasLimit": {
        "_hex": "0x5208"
      },
      "to": "0x32Be343B94f860124dC4fEe278FDCBD38C102D88",
      "value": {
        "_hex": "0x128471900d8bbb000"
      },
      "nonce": 4,
      "data": "0x",
      "r": "0xd55845debae4a9c1d5b72718a8287340495b8e01091a92dbc53564ad184d4736",
      "s": "0x4bd6f41c77abed40c1c7c9cd1187146a60545e7abffccdeb6d47c3446e2c09d2",
      "v": 28,
      "creates": null,
      "raw": "0xf86d04850cef8937028252089432be343b94f860124dc4fee278fdcbd38c102d88890128471900d8bbb000801ca0d55845debae4a9c1d5b72718a8287340495b8e01091a92dbc53564ad184d4736a04bd6f41c77abed40c1c7c9cd1187146a60545e7abffccdeb6d47c3446e2c09d2",
      "networkId": 0,
      "chainId": 0
    },
    {
      "hash": "0x22154e7fbe0b683caee4cdf46c0eaab7aba19012ae0353ee04d3fefa1fa0d64f",
      "blockHash": "0x81a5e0c7dc707224017e125a9c89d2e0e2935099e03f5c1f9225932ae0238616",
      "blockNumber": 105439,
      "transactionIndex": 4,
      "confirmations": null,
      "from": "0x0EB0AcFB7C81a83296b8C023673f362e8FCd88bD",
      "gasPrice": {
        "_hex": "0xcef893702"
      },
      "gasLimit": {
        "_hex": "0x5208"
      },
      "to": "0x32Be343B94f860124dC4fEe278FDCBD38C102D88",
      "value": {
        "_hex": "0x2116fa63f77b1000"
      },
      "nonce": 7,
      "data": "0x",
      "r": "0x9edaf90baf3b5f58cfe1090f8dc28701822a03948c91cf7b241a263e890fd0b8",
      "s": "0x2c0fc5225335f8819b1cc9791c373f972730eee142d49f3de01f68f7777891b6",
      "v": 27,
      "creates": null,
      "raw": "0xf86c07850cef8937028252089432be343b94f860124dc4fee278fdcbd38c102d88882116fa63f77b1000801ba09edaf90baf3b5f58cfe1090f8dc28701822a03948c91cf7b241a263e890fd0b8a02c0fc5225335f8819b1cc9791c373f972730eee142d49f3de01f68f7777891b6",
      "networkId": 0,
      "chainId": 0
    },
    {
      "hash": "0xbbda9ee21f2777a0db2a34930ea1dc6fec50236121a7e1eeaa5ddc48580d8a95",
      "blockHash": "0x81a5e0c7dc707224017e125a9c89d2e0e2935099e03f5c1f9225932ae0238616",
      "blockNumber": 105439,
      "transactionIndex": 5,
      "confirmations": null,
      "from": "0xBa9CF76D809cF9f2e3f180AFb33f0adb0826D7DF",
      "gasPrice": {
        "_hex": "0xcef893702"
      },
      "gasLimit": {
        "_hex": "0x5208"
      },
      "to": "0x32Be343B94f860124dC4fEe278FDCBD38C102D88",
      "value": {
        "_hex": "0x280e72a4e5ff8e000"
      },
      "nonce": 4,
      "data": "0x",
      "r": "0x0af0081e04541a0e34c404ac3431f314b868b155de7274015330be0cde8c72ed",
      "s": "0x3ac9148e815caa99847cd059415b4270b8ccb3860560ae50800d8450518016b0",
      "v": 28,
      "creates": null,
      "raw": "0xf86d04850cef8937028252089432be343b94f860124dc4fee278fdcbd38c102d88890280e72a4e5ff8e000801ca00af0081e04541a0e34c404ac3431f314b868b155de7274015330be0cde8c72eda03ac9148e815caa99847cd059415b4270b8ccb3860560ae50800d8450518016b0",
      "networkId": 0,
      "chainId": 0
    },
    {
      "hash": "0x787fd944cb850a739a4f5ff54a9717863ab2701d4ae52da4139f9adfea0d4ba5",
      "blockHash": "0x81a5e0c7dc707224017e125a9c89d2e0e2935099e03f5c1f9225932ae0238616",
      "blockNumber": 105439,
      "transactionIndex": 6,
      "confirmations": null,
      "from": "0x13065c2648269D5b802D31341006d0b458a187fE",
      "gasPrice": {
        "_hex": "0xcef893702"
      },
      "gasLimit": {
        "_hex": "0x5208"
      },
      "to": "0x32Be343B94f860124dC4fEe278FDCBD38C102D88",
      "value": {
        "_hex": "0x173a650c709e5c000"
      },
      "nonce": 4,
      "data": "0x",
      "r": "0x20cc160a0faad55d8340082dd2e299a16b0260deba46f8650e67ffa24fcb6f51",
      "s": "0x4dcae36ba3ed2374f0f4b716797ff0ec99cdd2fb9fef98e4dc2ed10a17c208a6",
      "v": 28,
      "creates": null,
      "raw": "0xf86d04850cef8937028252089432be343b94f860124dc4fee278fdcbd38c102d88890173a650c709e5c000801ca020cc160a0faad55d8340082dd2e299a16b0260deba46f8650e67ffa24fcb6f51a04dcae36ba3ed2374f0f4b716797ff0ec99cdd2fb9fef98e4dc2ed10a17c208a6",
      "networkId": 0,
      "chainId": 0
    },
    {
      "hash": "0x5f62881a004730f9287a16b0243cbeaaccc1fbf68e824998437096d52798e3bb",
      "blockHash": "0x81a5e0c7dc707224017e125a9c89d2e0e2935099e03f5c1f9225932ae0238616",
      "blockNumber": 105439,
      "transactionIndex": 7,
      "confirmations": null,
      "from": "0x9A6eb0bBBE50281644D7a7839147F59819506Ac0",
      "gasPrice": {
        "_hex": "0xcef893702"
      },
      "gasLimit": {
        "_hex": "0x5208"
      },
      "to": "0x32Be343B94f860124dC4fEe278FDCBD38C102D88",
      "value": {
        "_hex": "0xfec803802bb7f000"
      },
      "nonce": 4,
      "data": "0x",
      "r": "0xe94333ce729e2b31232173b5afa6d0591584f7a14ebde2d31720277d70003703",
      "s": "0x7216e6286f900c226f6030711dc8c3221415c9d36a5eeed4d1edfccb68f2fcda",
      "v": 28,
      "creates": null,
      "raw": "0xf86c04850cef8937028252089432be343b94f860124dc4fee278fdcbd38c102d8888fec803802bb7f000801ca0e94333ce729e2b31232173b5afa6d0591584f7a14ebde2d31720277d70003703a07216e6286f900c226f6030711dc8c3221415c9d36a5eeed4d1edfccb68f2fcda",
      "networkId": 0,
      "chainId": 0
    },
    {
      "hash": "0x6b9efe5749589d46ed95ef096458baff6c6f722dd102a1ed541379956ef1e6bf",
      "blockHash": "0x81a5e0c7dc707224017e125a9c89d2e0e2935099e03f5c1f9225932ae0238616",
      "blockNumber": 105439,
      "transactionIndex": 8,
      "confirmations": null,
      "from": "0x7E4252d3d1881b358f2c1Fc2264ce4C27B83683d",
      "gasPrice": {
        "_hex": "0xcef893702"
      },
      "gasLimit": {
        "_hex": "0x5208"
      },
      "to": "0x32Be343B94f860124dC4fEe278FDCBD38C102D88",
      "value": {
        "_hex": "0x331164ffb7b5f800"
      },
      "nonce": 4,
      "data": "0x",
      "r": "0xb428d639ea126b16343aefc84a0e5b4a2e1a5a5d99b428d214dc4a183ac24cd2",
      "s": "0x4daf90d71c8cda8605a941f73ea81faedad1e6b37d5ead88df89cbcd1ec435f7",
      "v": 28,
      "creates": null,
      "raw": "0xf86c04850cef8937028252089432be343b94f860124dc4fee278fdcbd38c102d8888331164ffb7b5f800801ca0b428d639ea126b16343aefc84a0e5b4a2e1a5a5d99b428d214dc4a183ac24cd2a04daf90d71c8cda8605a941f73ea81faedad1e6b37d5ead88df89cbcd1ec435f7",
      "networkId": 0,
      "chainId": 0
    },
    {
      "hash": "0xc961802ec2441bcce39907531af524f8ac76d53dcaf7377c5d3278df7e11d2a8",
      "blockHash": "0x81a5e0c7dc707224017e125a9c89d2e0e2935099e03f5c1f9225932ae0238616",
      "blockNumber": 105439,
      "transactionIndex": 9,
      "confirmations": null,
      "from": "0x4A29dF8a7967b36664f256F18dAcf2e58E9f1E7E",
      "gasPrice": {
        "_hex": "0xcef893702"
      },
      "gasLimit": {
        "_hex": "0x5208"
      },
      "to": "0x32Be343B94f860124dC4fEe278FDCBD38C102D88",
      "value": {
        "_hex": "0xd354d8a89d3398000"
      },
      "nonce": 4,
      "data": "0x",
      "r": "0x78af52364fa6f04b82ddfacb4fba5eead134b2623c0a2fa404e83610cf707265",
      "s": "0x582da0d2e5039f903b4b8e0ceefab62d8f2e3067dfe8217dd19befaef98a8c26",
      "v": 27,
      "creates": null,
      "raw": "0xf86d04850cef8937028252089432be343b94f860124dc4fee278fdcbd38c102d88890d354d8a89d3398000801ba078af52364fa6f04b82ddfacb4fba5eead134b2623c0a2fa404e83610cf707265a0582da0d2e5039f903b4b8e0ceefab62d8f2e3067dfe8217dd19befaef98a8c26",
      "networkId": 0,
      "chainId": 0
    },
    {
      "hash": "0xd8d18b6a00c063ed297ca778b7cbe77b94f447ad7b8db791843c4f98b280eece",
      "blockHash": "0x81a5e0c7dc707224017e125a9c89d2e0e2935099e03f5c1f9225932ae0238616",
      "blockNumber": 105439,
      "transactionIndex": 10,
      "confirmations": null,
      "from": "0x7001C4730b81A539eF8b760A3eEb14C64515137B",
      "gasPrice": {
        "_hex": "0xcef893702"
      },
      "gasLimit": {
        "_hex": "0x5208"
      },
      "to": "0x32Be343B94f860124dC4fEe278FDCBD38C102D88",
      "value": {
        "_hex": "0x2e11480adee21e000"
      },
      "nonce": 4,
      "data": "0x",
      "r": "0x7f35e67c4c6fe1f559870a48b6658bc61f9fe620b1008f468481200eee9b4aad",
      "s": "0x32df9b618e5a3cec4e63425ab6114944ed3026e0f4021bed4a1230b576dcc052",
      "v": 27,
      "creates": null,
      "raw": "0xf86d04850cef8937028252089432be343b94f860124dc4fee278fdcbd38c102d888902e11480adee21e000801ba07f35e67c4c6fe1f559870a48b6658bc61f9fe620b1008f468481200eee9b4aada032df9b618e5a3cec4e63425ab6114944ed3026e0f4021bed4a1230b576dcc052",
      "networkId": 0,
      "chainId": 0
    },
    {
      "hash": "0x33d12d98164c30cf4375d786c4e2fe7d9c077da17d076c41eabd88c28e65b4ec",
      "blockHash": "0x81a5e0c7dc707224017e125a9c89d2e0e2935099e03f5c1f9225932ae0238616",
      "blockNumber": 105439,
      "transactionIndex": 11,
      "confirmations": null,
      "from": "0x608f4b86321a68453f9adf6F06F7Fc3E621739ad",
      "gasPrice": {
        "_hex": "0xcef893702"
      },
      "gasLimit": {
        "_hex": "0x5208"
      },
      "to": "0x32Be343B94f860124dC4fEe278FDCBD38C102D88",
      "value": {
        "_hex": "0x26b416e5652dc60000"
      },
      "nonce": 5,
      "data": "0x",
      "r": "0xa819a8bfa0e23fd0603a73110af1f91475f798348894b64e0a12b54869e54a06",
      "s": "0x34143f34a179e2e62b7b10507aa458094c8d730b0c82581e97242a88c315bb49",
      "v": 28,
      "creates": null,
      "raw": "0xf86d05850cef8937028252089432be343b94f860124dc4fee278fdcbd38c102d888926b416e5652dc60000801ca0a819a8bfa0e23fd0603a73110af1f91475f798348894b64e0a12b54869e54a06a034143f34a179e2e62b7b10507aa458094c8d730b0c82581e97242a88c315bb49",
      "networkId": 0,
      "chainId": 0
    },
    {
      "hash": "0x941c91d807658a648804b18390bcd1f41ebcff6a324dc54f3477e7897444f9d7",
      "blockHash": "0x81a5e0c7dc707224017e125a9c89d2e0e2935099e03f5c1f9225932ae0238616",
      "blockNumber": 105439,
      "transactionIndex": 12,
      "confirmations": null,
      "from": "0x383Ad663AFd1716301FC92d469d9985b97cfBCB0",
      "gasPrice": {
        "_hex": "0xcef893702"
      },
      "gasLimit": {
        "_hex": "0x5208"
      },
      "to": "0x32Be343B94f860124dC4fEe278FDCBD38C102D88",
      "value": {
        "_hex": "0x1f7abefe2ec37c000"
      },
      "nonce": 4,
      "data": "0x",
      "r": "0x81afabd61e860ef0501b14cd67028f7d3ae49ecd3bc232dd12a1f3c8811b760c",
      "s": "0x3b3b2ae92269659db97d102bb5e25370d3012401dafeeb844d9fb04fbe89735b",
      "v": 27,
      "creates": null,
      "raw": "0xf86d04850cef8937028252089432be343b94f860124dc4fee278fdcbd38c102d888901f7abefe2ec37c000801ba081afabd61e860ef0501b14cd67028f7d3ae49ecd3bc232dd12a1f3c8811b760ca03b3b2ae92269659db97d102bb5e25370d3012401dafeeb844d9fb04fbe89735b",
      "networkId": 0,
      "chainId": 0
    }
  ]
}