{
  "hash": "0x04f9b54bba68a562a7403ca5d9069972c10382b4d45b18af52063003a8b6d22a",
  "parentHash": "0x1999af32d1679514622c7e2ee360d0d7cd904ff89dac419377b3a2ea70500b3e",
  "number": 121612,
  "timestamp": 1440179791,
  "nonce": "0xe1a93d5a8d3e558b",
  "difficulty": 4462480938542,
  "gasLimit": {
    "_hex": "0x2fefd8"
  },
  "gasUsed": {
    "_hex": "0x5208"
  },
  "miner": "0xcf00A85f3826941e7A25BFcF9Aac575d40410852",
  "extraData": "0x",
  "transactions": [
    {
      "hash": "0x1620cd9ef1c728e85d9db5995b6233a1b2ae76945a18405ef2221a536ebc8480",
      "blockHash": "0x04f9b54bba68a562a7403ca5d9069972c10382b4d45b18af52063003a8b6d22a",
      "blockNumber": 121612,
      "transactionIndex": 0,
      "confirmations": null,
      "from": "0x32Be343B94f860124dC4fEe278FDCBD38C102D88",
      "gasPrice": {
        "_hex": "0xba43b7400"
      },
      "gasLimit": {
        "_hex": "0x5208"
      },
      "to": "0x9aFe1b069e1aBbedA82317dF1D371c82c91ca271",
      "value": {
        "_hex": "0x56ba3d73af34f0000"
      },
      "nonce": 1566,
      "data": "0x",
      "r": "0x14aa67b714611eb71f411e9de5d403b103d4f671e77f8b5bed6938e1b512b574",
      "s": "0x7d1494a2d9d915339dde38298d962dac7c073f5b3e38f26a4cd392ff24c75abd",
      "v": 28,
      "creates": null,
      "raw": "0xf86f82061e850ba43b7400825208949afe1b069e1abbeda82317df1d371c82c91ca27189056ba3d73af34f0000801ca014aa67b714611eb71f411e9de5d403b103d4f671e77f8b5bed6938e1b512b574a07d1494a2d9d915339dde38298d962dac7c073f5b3e38f26a4cd392ff24c75abd",
      "networkId": 0,
      "chainId": 0
    }
  ]
}