{
  "hash": "0xb811e77b4c5f6a98fe7e7eaf8f646451bb9963f6e9d81bf6c27a8294625ae4bb",
  "parentHash": "0x34b6709deeaf615274344fe038a17d00fe2e9a66e6379174f67a3c45061124bf",
  "number": 80498,
  "timestamp": 1439486378,
  "nonce": "0x841137da7eafde8e",
  "difficulty": 2414435163302,
  "gasLimit": {
    "_hex": "0x2fefd8"
  },
  "gasUsed": {
    "_hex": "0x546c"
  },
  "miner": "0xeB1325C8D9d3ea8D74aC11F4B00F1B2367686319",
  "extraData": "0x476574682f76312e302e312f77696e646f77732f676f312e342e32",
  "transactions": [
    {
      "hash": "0xf60208afe2eac1250d1e5072de5426b609a25e30d6d7d594a872e2e20991258d",
      "blockHash": "0xb811e77b4c5f6a98fe7e7eaf8f646451bb9963f6e9d81bf6c27a8294625ae4bb",
      "blockNumber": 80498,
      "transactionIndex": 0,
      "confirmations": null,
      "from": "0x1bf974d9904F45Ce81a845e11ef4CBCF27aF719E",
      "gasPrice": {
        "_hex": "0x110c8f7d8de"
      },
      "gasLimit": {
        "_hex": "0xc350"
      },
      "to": "0x2910543Af39abA0Cd09dBb2D50200b3E800A63D2",
      "value": {
        "_hex": "0x569b275f8d6c10000"
      },
      "nonce": 0,
      "data": "0x454e57565638325052",
      "r": "0x4d9ed9d70b5aee8628843731b3eec4318d32c9f410d4fe00b77395245d260607",
      "s": "0x228a8c29ba8d30f0dfba1aec37345bfc0822c4b13fac28559bdfb9bf28d55817",
      "v": 28,
      "creates": null,
      "raw": "0xf87780860110c8f7d8de82c350942910543af39aba0cd09dbb2d50200b3e800a63d2890569b275f8d6c1000089454e575656383250521ca04d9ed9d70b5aee8628843731b3eec4318d32c9f410d4fe00b77395245d260607a0228a8c29ba8d30f0dfba1aec37345bfc0822c4b13fac28559bdfb9bf28d55817",
      "networkId": 0,
      "chainId": 0
    }
  ]
}