{
  "hash": "0x7e1387a91ee35664a316162ff24ae8c4b8be7c150c494efe33e053902a08ee8b",
  "parentHash": "0x66c09c899bf9f2a02988fe3a6f9b59fcf5d4cc5a33b5d337e50723a74a2529a8",
  "number": 107172,
  "timestamp": 1439917468,
  "nonce": "0x87146aa193a2c166",
  "difficulty": 4457092155088,
  "gasLimit": {
    "_hex": "0x2fefd8"
  },
  "gasUsed": {
    "_hex": "0x5208"
  },
  "miner": "0xe6A7a1d47ff21B6321162AEA7C6CB457D5476Bca",
  "extraData": "0x476574682f76312e302e312d38326566323666362f6c696e75782f676f312e34",
  "transactions": [
    {
      "hash": "0xdd5f383a5e02e4a349901068f0f3640554e6f2cb8c4e7987b06ada4c1f52003c",
      "blockHash": "0x7e1387a91ee35664a316162ff24ae8c4b8be7c150c494efe33e053902a08ee8b",
      "blockNumber": 107172,
      "transactionIndex": 0,
      "confirmations": null,
      "from": "0xAf5e1c1F54aaC6dBcD5cfDD067Ef4208279280D1",
      "gasPrice": {
        "_hex": "0xcfc37dce8"
      },
      "gasLimit": {
        "_hex": "0x15f90"
      },
      "to": "0x8B87d514623d1127f9b56DB60FA1498C1C4bF72e",
      "value": {
        "_hex": "0xde0b6b3a7640000"
      },
      "nonce": 1,
      "data": "0x",
      "r": "0x2383e082016b0c0469f7654484b0c293b53de2cc9c011a73eec752e663baef42",
      "s": "0x71da2e8c7fa2481e103fdbd9bcbd0f1b249d42a6600f9770a636c8aa578324de",
      "v": 27,
      "creates": null,
      "raw": "0xf86d01850cfc37dce883015f90948b87d514623d1127f9b56db60fa1498c1c4bf72e880de0b6b3a7640000801ba02383e082016b0c0469f7654484b0c293b53de2cc9c011a73eec752e663baef42a071da2e8c7fa2481e103fdbd9bcbd0f1b249d42a6600f9770a636c8aa578324de",
      "networkId": 0,
      "chainId": 0
    }
  ]
}