{
  "hash": "0xfdf524b9c913cab0d4cb0e3929995d9725497cacbe8812ddc1b28e58eee69d0d",
  "parentHash": "0xe6d4148e47dddeee0cfd2ab6ab86f438fb76f135e90649b349415f672b321cc8",
  "number": 66630,
  "timestamp": 1439257794,
  "nonce": "0x7f737d303eb6de08",
  "difficulty": 1939471329013,
  "gasLimit": {
    "_hex": "0x2fefd8"
  },
  "gasUsed": {
    "_hex": "0xa410"
  },
  "miner": "0x0eDEd3DA479d0beF8eeC92A76644D3f4E3C177f7",
  "extraData": "0x476574682f76312e302e312f6c696e75782f676f312e342e32",
  "transactions": [
    {
      "hash": "0xdb316d8494ec7cea466795d5529b8aba94beb810d95bc7a5e046a72f28b7fab0",
      "blockHash": "0xfdf524b9c913cab0d4cb0e3929995d9725497cacbe8812ddc1b28e58eee69d0d",
      "blockNumber": 66630,
      "transactionIndex": 0,
      "confirmations": null,
      "from": "0xBFdD9820a04283b289957956353b5F3C1F665EcF",
      "gasPrice": {
        "_hex": "0xd9e97c246"
      },
      "gasLimit": {
        "_hex": "0x5208"
      },
      "to": "0x32Be343B94f860124dC4fEe278FDCBD38C102D88",
      "value": {
        "_hex": "0x11589e8cfea2ba000"
      },
      "nonce": 21,
      "data": "0x",
      "r": "0xa05164d780a649e50acc94909ae2cf61f3929a397bc99d3fb6ccfeab385e8b99",
      "s": "0x7301a55c7a765e98fe5e0659462d02c0588ee96db250dd9b97d09a263ba7629a",
      "v": 27,
      "creates": null,
      "raw": "0xf86d15850d9e97c2468252089432be343b94f860124dc4fee278fdcbd38c102d8889011589e8cfea2ba000801ba0a05164d780a649e50acc94909ae2cf61f3929a397bc99d3fb6ccfeab385e8b99a07301a55c7a765e98fe5e0659462d02c0588ee96db250dd9b97d09a263ba7629a",
      "networkId": 0,
      "chainId": 0
    },
    {
      "hash": "0xcd2445854359f9e2ec381a5a97424e337d2eaf6687219b1a4038521cbd226aed",
      "blockHash": "0xfdf524b9c913cab0d4cb0e3929995d9725497cacbe8812ddc1b28e58eee69d0d",
      "blockNumber": 66630,
      "transactionIndex": 1,
      "confirmations": null,
      "from": "0x15e1C47974Cff16E4F82aE97a444EA7BA3cF1a1E",
      "gasPrice": {
        "_hex": "0xba43b7400"
      },
      "gasLimit": {
        "_hex": "0x5208"
      },
      "to": "0x00818287ff6BA78A461D21bD5832891592dc6C6B",
      "value": {
        "_hex": "0x2c2cff88e106000"
      },
      "nonce": 3,
      "data": "0x",
      "r": "0x7b9f5006c460f9e54b2408a9d6480f21c69c75e330f5645a4e5368b0da550748",
      "s": "0x770806b66771c9985a1c8f423ddf55dba26c593e688e54a86d3157fdab0f37f5",
      "v": 28,
      "creates": null,
      "raw": "0xf86c03850ba43b74008252089400818287ff6ba78a461d21bd5832891592dc6c6b8802c2cff88e106000801ca07b9f5006c460f9e54b2408a9d6480f21c69c75e330f5645a4e5368b0da550748a0770806b66771c9985a1c8f423ddf55dba26c593e688e54a86d3157fdab0f37f5",
      "networkId": 0,
      "chainId": 0
    }
  ]
}