{
  "hash": "0x676c91dea970c8dc039eb368f7e516ee4d38f5cd303429bf943f8f7494698e3d",
  "parentHash": "0xbd273113695c2dbc15194334bc280f5846ef882f140e5d1eeb5d585e142e397b",
  "number": 72978,
  "timestamp": 1439361225,
  "nonce": "0xecc45d844e814021",
  "difficulty": 2206795597027,
  "gasLimit": {
    "_hex": "0x2fefd8"
  },
  "gasUsed": {
    "_hex": "0xa674"
  },
  "miner": "0xBD744E3F13D79B33F6c8E1d5E32F8E9BA2866c46",
  "extraData": "0x476574682f76312e302e312d39613032663533372f6c696e75782f676f312e34",
  "transactions": [
    {
      "hash": "0x781bb1972222ce3fe03d5fd06feaa2d112f3287e9189600fd04f24c38abf6e77",
      "blockHash": "0x676c91dea970c8dc039eb368f7e516ee4d38f5cd303429bf943f8f7494698e3d",
      "blockNumber": 72978,
      "transactionIndex": 0,
      "confirmations": null,
      "from": "0xAb7c42c5e52d641a07Ad75099c62928b7f86622F",
      "gasPrice": {
        "_hex": "0x110c8f7d8de"
      },
      "gasLimit": {
        "_hex": "0xc350"
      },
      "to": "0x2910543Af39abA0Cd09dBb2D50200b3E800A63D2",
      "value": {
        "_hex": "0x12290f15180bdc0000"
      },
      "nonce": 0,
      "data": "0x454e4d525134555530",
      "r": "0x40a51928381e8a29f87a742d9a24d968a7eabd0c9b158e6655102c2996bd15da",
      "s": "0x03a2629e7addfa018da811705c1c19563ff5a323cfb433985eed8e3d1e0719d0",
      "v": 27,
      "creates": null,
      "raw": "0xf87780860110c8f7d8de82c350942910543af39aba0cd09dbb2d50200b3e800a63d28912290f15180bdc000089454e4d5251345555301ba040a51928381e8a29f87a742d9a24d968a7eabd0c9b158e6655102c2996bd15daa003a2629e7addfa018da811705c1c19563ff5a323cfb433985eed8e3d1e0719d0",
      "networkId": 0,
      "chainId": 0
    },
    {
      "hash": "0x08453a89be38d06ccfe95db55e415000379dd8174ea985b8d16f0aa5f4916614",
      "blockHash": "0x676c91dea970c8dc039eb368f7e516ee4d38f5cd303429bf943f8f7494698e3d",
      "blockNumber": 72978,
      "transactionIndex": 1,
      "confirmations": null,
      "from": "0x0A319A7e0C887F104359e1eEe6717BD8f232d3Da",
      "gasPrice": {
        "_hex": "0xd93cb3c65"
      },
      "gasLimit": {
        "_hex": "0x5208"
      },
      "to": "0x32Be343B94f860124dC4fEe278FDCBD38C102D88",
      "value": {
        "_hex": "0x22b183e37d47ac000"
      },
      "nonce": 5,
      "data": "0x",
      "r": "0xc99ed5f3086e6064e923ad598d196c291fdeaeeb2c3d87e02ff65f8cc24c7598",
      "s": "0x090dbda14bc605dd0ad6f0772228fdbae85808d118d4f9f88f341ef1280dcd28",
      "v": 28,
      "creates": null,
      "raw": "0xf86d05850d93cb3c658252089432be343b94f860124dc4fee278fdcbd38c102d8889022b183e37d47ac000801ca0c99ed5f3086e6064e923ad598d196c291fdeaeeb2c3d87e02ff65f8cc24c7598a0090dbda14bc605dd0ad6f0772228fdbae85808d118d4f9f88f341ef1280dcd28",
      "networkId": 0,
      "chainId": 0
    }
  ]
}