{
  "hash": "0x8ad6a408e6d9983b717c0226795a44e0045c9388440ce78c68f37fbf32d192c9",
  "parentHash": "0x22bd833a72b6ddad593b4c1ca970fbcffc87268954df9a5d92fc630e6b998d4f",
  "number": 46678,
  "timestamp": 1438927293,
  "nonce": "0x718e59ea41ad31e6",
  "difficulty": 1460327979618,
  "gasLimit": {
    "_hex": "0x708b"
  },
  "gasUsed": {
    "_hex": "0x5208"
  },
  "miner": "0xeB1325C8D9d3ea8D74aC11F4B00F1B2367686319",
  "extraData": "0x476574682f76312e302e312f77696e646f77732f676f312e342e32",
  "transactions": [
    {
      "hash": "0x602ab9ce7dd4e64ad5990ab62cb3defca9fbec76fded6d99f41833f21cf70e8f",
      "blockHash": "0x8ad6a408e6d9983b717c0226795a44e0045c9388440ce78c68f37fbf32d192c9",
      "blockNumber": 46678,
      "transactionIndex": 0,
      "confirmations": null,
      "from": "0xa89AC93b23370472DaAc337E9afdF642543F3E57",
      "gasPrice": {
        "_hex": "0x1e34bcfacd"
      },
      "gasLimit": {
        "_hex": "0x5208"
      },
      "to": "0x92c27672FE65e002159Ec2597fcf8897ADBf5B29",
      "value": {
        "_hex": "0x289a768ba0bf940000"
      },
      "nonce": 14,
      "data": "0x",
      "r": "0x3b95f0e7d4ea56217227e11ea81a8ccc5d222750fbe7ade85fa5589a2c747f79",
      "s": "0x48c2886a34381605b7fbc9410689b4d7c687a893c4700931b5fa53f7ebe5b135",
      "v": 28,
      "creates": null,
      "raw": "0xf86d0e851e34bcfacd8252089492c27672fe65e002159ec2597fcf8897adbf5b2989289a768ba0bf940000801ca03b95f0e7d4ea56217227e11ea81a8ccc5d222750fbe7ade85fa5589a2c747f79a048c2886a34381605b7fbc9410689b4d7c687a893c4700931b5fa53f7ebe5b135",
      "networkId": 0,
      "chainId": 0
    }
  ]
}