{
  "hash": "0x8f87638d06853b92315981e6975816ecfb465b5bd3f3d5818d4e04d6c62d3234",
  "parentHash": "0xe6274876d9feed982748fde865bff6ce8c3cc7daba93b58afc306c96b08a3ca7",
  "number": 110759,
  "timestamp": 1439978922,
  "nonce": "0x6b10364228ac13d2",
  "difficulty": 4401132676364,
  "gasLimit": {
    "_hex": "0x2fefd8"
  },
  "gasUsed": {
    "_hex": "0xf618"
  },
  "miner": "0xEF247E639d49461D25F57e9362CadE3120910Ce0",
  "extraData": "0x476574682f76312e302e312f6c696e75782f676f312e342e32",
  "transactions": [
    {
      "hash": "0x280e469f552c04719c18e0d72117b674bfc52ed70ce153ae37fd3a9fbe12a2fc",
      "blockHash": "0x8f87638d06853b92315981e6975816ecfb465b5bd3f3d5818d4e04d6c62d3234",
      "blockNumber": 110759,
      "transactionIndex": 0,
      "confirmations": null,
      "from": "0x976349705b839e2F5719387Fb27D2519d519da03",
      "gasPrice": {
        "_hex": "0xdf4aa23ec"
      },
      "gasLimit": {
        "_hex": "0x15f90"
      },
      "to": "0xB4e3465C5C57c9c8c5Aa2Ccda3156F21F165De45",
      "value": {
        "_hex": "0x16345785d8a0000"
      },
      "nonce": 25,
      "data": "0x",
      "r": "0x2c57617a0baa4628edb072a141c86e27df4f9988c2a2e9aa0afd6981dd5de5fc",
      "s": "0x2b98156970132108f294a78d17e197f5b15633b5c29b95348368305a049e6df0",
      "v": 28,
      "creates": null,
      "raw": "0xf86d19850df4aa23ec83015f9094b4e3465c5c57c9c8c5aa2ccda3156f21f165de4588016345785d8a0000801ca02c57617a0baa4628edb072a141c86e27df4f9988c2a2e9aa0afd6981dd5de5fca02b98156970132108f294a78d17e197f5b15633b5c29b95348368305a049e6df0",
      "networkId": 0,
      "chainId": 0
    },
    {
      "hash": "0x6e565ac5b9b3027aa30bb2f7d1b3bb4297f4b3754f886c70531efc943d691c55",
      "blockHash": "0x8f87638d06853b92315981e6975816ecfb465b5bd3f3d5818d4e04d6c62d3234",
      "blockNumber": 110759,
      "transactionIndex": 1,
      "confirmations": null,
      "from": "0x976349705b839e2F5719387Fb27D2519d519da03",
      "gasPrice": {
        "_hex": "0xdf4aa23ec"
      },
      "gasLimit": {
        "_hex": "0x15f90"
      },
      "to": "0xdbaFd1a7331E9441636678450e58c8c461b7314a",
      "value": {
        "_hex": "0x16345785d8a0000"
      },
      "nonce": 26,
      "data": "0x",
      "r": "0xdaf4597113463a37615fdc2003c0935c0ea364c958b43b4b47ff2bcd72b477d5",
      "s": "0x56f6aaf057e37489d410080a19cc34cc03f117e99c708146f8f0ca1fb573414a",
      "v": 28,
      "creates": null,
      "raw": "0xf86d1a850df4aa23ec83015f9094dbafd1a7331e9441636678450e58c8c461b7314a88016345785d8a0000801ca0daf4597113463a37615fdc2003c0935c0ea364c958b43b4b47ff2bcd72b477d5a056f6aaf057e37489d410080a19cc34cc03f117e99c708146f8f0ca1fb573414a",
      "networkId": 0,
      "chainId": 0
    },
    {
      "hash": "0x8da5ba669e83cdd2909a65203c220899bd9528592da218ba7ce63ebb17844c3a",
      "blockHash": "0x8f87638d06853b92315981e6975816ecfb465b5bd3f3d5818d4e04d6c62d3234",
      "blockNumber": 110759,
      "transactionIndex": 2,
      "confirmations": null,
      "from": "0x976349705b839e2F5719387Fb27D2519d519da03",
      "gasPrice": {
        "_hex": "0xdd182748c"
      },
      "gasLimit": {
        "_hex": "0x15f90"
      },
      "to": "0x87705F99aA408D9a66BcF8C8072C561d5d752CDE",
      "value": {
        "_hex": "0x16345785d8a0000"
      },
      "nonce": 27,
      "data": "0x",
      "r": "0x7b7c7f9c36d736fe60b1e4ce11c4fd70cf6bc167b21ece312211e956e622cb05",
      "s": "0x09f8c2fb66a38a20a756e87532cf95ea36f2b7dcf5bba8481a276cdc808c0edf",
      "v": 27,
      "creates": null,
      "raw": "0xf86d1b850dd182748c83015f909487705f99aa408d9a66bcf8c8072c561d5d752cde88016345785d8a0000801ba07b7c7f9c36d736fe60b1e4ce11c4fd70cf6bc167b21ece312211e956e622cb05a009f8c2fb66a38a20a756e87532cf95ea36f2b7dcf5bba8481a276cdc808c0edf",
      "networkId": 0,
      "chainId": 0
    }
  ]
}