{
  "hash": "0x67c84c7dc267b99e6c8c0e93028d7393687e9bf2d1724bf170903c3251bfa322",
  "parentHash": "0x5243c6c1d052e5d44aca03fbaf8c43e611e0a5827a85e5f72a7f1e3dd5fb505f",
  "number": 95457,
  "timestamp": 1439724441,
  "nonce": "0xc6187c45d3c12846",
  "difficulty": 3598658218521,
  "gasLimit": {
    "_hex": "0x2fefd8"
  },
  "gasUsed": {
    "_hex": "0xf618"
  },
  "miner": "0x3D1C1B034ed3495E962CaADCB322E0CEfB2D24cB",
  "extraData": "0x476574682f5661726168612f76312e302e312f6c696e75782f676f312e342e32",
  "transactions": [
    {
      "hash": "0x5a7e212ce7c1b2eb68dbc8ff6c856eb462468ae8ffb61041221c2cac88726782",
      "blockHash": "0x67c84c7dc267b99e6c8c0e93028d7393687e9bf2d1724bf170903c3251bfa322",
      "blockNumber": 95457,
      "transactionIndex": 0,
      "confirmations": null,
      "from": "0xe1F5B8dc9336BC9637eA97c3f3b13Cd363F88854",
      "gasPrice": {
        "_hex": "0xdb85917f9"
      },
      "gasLimit": {
        "_hex": "0x5208"
      },
      "to": "0x32Be343B94f860124dC4fEe278FDCBD38C102D88",
      "value": {
        "_hex": "0x377e755359bef000"
      },
      "nonce": 7,
      "data": "0x",
      "r": "0x71f9207c86de8ffb21af0382839251145652ff59df93be8974aa3cc3d082d0b6",
      "s": "0x0eaa71c171d55913976ecc2c558f1a3f7b036265f561ee0abb45d97bc9d10ed4",
      "v": 27,
      "creates": null,
      "raw": "0xf86c07850db85917f98252089432be343b94f860124dc4fee278fdcbd38c102d8888377e755359bef000801ba071f9207c86de8ffb21af0382839251145652ff59df93be8974aa3cc3d082d0b6a00eaa71c171d55913976ecc2c558f1a3f7b036265f561ee0abb45d97bc9d10ed4",
      "networkId": 0,
      "chainId": 0
    },
    {
      "hash": "0x2c9095d5d9307d0915347c8345682d2ac195ce7d88c3e770870ad316707c6e6c",
      "blockHash": "0x67c84c7dc267b99e6c8c0e93028d7393687e9bf2d1724bf170903c3251bfa322",
      "blockNumber": 95457,
      "transactionIndex": 1,
      "confirmations": null,
      "from": "0x557C2806B6ceA65a66F415bb2Ed1ce897B340745",
      "gasPrice": {
        "_hex": "0xdb85917f9"
      },
      "gasLimit": {
        "_hex": "0x5208"
      },
      "to": "0x32Be343B94f860124dC4fEe278FDCBD38C102D88",
      "value": {
        "_hex": "0x1bbd07ec0af6f000"
      },
      "nonce": 1,
      "data": "0x",
      "r": "0x1826477579c586918f6a15a9e6888197519fd1ba543f7acfb8bab3b0dea77415",
      "s": "0x7c91d80f84e4fec2a5e9ca17771ccc9969eca6ece2c94f7ddb193e38c6548a96",
      "v": 28,
      "creates": null,
      "raw": "0xf86c01850db85917f98252089432be343b94f860124dc4fee278fdcbd38c102d88881bbd07ec0af6f000801ca01826477579c586918f6a15a9e6888197519fd1ba543f7acfb8bab3b0dea77415a07c91d80f84e4fec2a5e9ca17771ccc9969eca6ece2c94f7ddb193e38c6548a96",
      "networkId": 0,
      "chainId": 0
    },
    {
      "hash": "0xad706601b74b19aae6f6165ac67410b83a5846a9ba7dbfc76f4dfe52d3846dab",
      "blockHash": "0x67c84c7dc267b99e6c8c0e93028d7393687e9bf2d1724bf170903c3251bfa322",
      "blockNumber": 95457,
      "transactionIndex": 2,
      "confirmations": null,
      "from": "0x120A270bbC009644e35F0bB6ab13f95b8199c4ad",
      "gasPrice": {
        "_hex": "0xd358d01dc"
      },
      "gasLimit": {
        "_hex": "0x3d090"
      },
      "to": "0x1A45221Bb8D9c78D59bf1De0B3a361F5da3f965E",
      "value": {
        "_hex": "0x4411a9f0989000"
      },
      "nonce": 599,
      "data": "0x",
      "r": "0xc8e577bee51f11fe3fd5fd26e0df61c2558f36afa42ca9d6a5b7c85f7f2e5524",
      "s": "0x3864b48bb706acd4d1965cf84c2ac860ae6eb954f5723e19360cddc0edac53cc",
      "v": 28,
      "creates": null,
      "raw": "0xf86e820257850d358d01dc8303d090941a45221bb8d9c78d59bf1de0b3a361f5da3f965e874411a9f0989000801ca0c8e577bee51f11fe3fd5fd26e0df61c2558f36afa42ca9d6a5b7c85f7f2e5524a03864b48bb706acd4d1965cf84c2ac860ae6eb954f5723e19360cddc0edac53cc",
      "networkId": 0,
      "chainId": 0
    }
  ]
}