{
  "hash": "0x0510a07bc992c9a72be39635689c16f96a7d504ae42dc0baf094551decb40a17",
  "parentHash": "0xc3af7d60d2fd8c2a361089755fd180eb168e4bf75bd8763182a56724e5288ea7",
  "number": 95364,
  "timestamp": 1439723098,
  "nonce": "0x9bb1e583cbe781f3",
  "difficulty": 3561985942398,
  "gasLimit": {
    "_hex": "0x2fefd8"
  },
  "gasUsed": {
    "_hex": "0xa410"
  },
  "miner": "0x6F2a83BC1c1846bf84ffC43B8776f1AA4a9F890F",
  "extraData": "0x",
  "transactions": [
    {
      "hash": "0x1ac1e677d21dfcb40b278862763eafb9c4e9ac9dea44d1bd39f3717e32b83ce3",
      "blockHash": "0x0510a07bc992c9a72be39635689c16f96a7d504ae42dc0baf094551decb40a17",
      "blockNumber": 95364,
      "transactionIndex": 0,
      "confirmations": null,
      "from": "0x120A270bbC009644e35F0bB6ab13f95b8199c4ad",
      "gasPrice": {
        "_hex": "0xcad301c71"
      },
      "gasLimit": {
        "_hex": "0x3d090"
      },
      "to": "0x2e04f3c491E5F34f6Ce198520F4AC40eaf692D38",
      "value": {
        "_hex": "0x2086ac351052600000"
      },
      "nonce": 595,
      "data": "0x",
      "r": "0xb16485cdb7fef0014f0cd7110f491fe8924b7dc59b6daa804011c86867deeea0",
      "s": "0x63272883645f0f9d32e8c41ef0cf5388dda5bebcc6e448f72f2aba1f52584861",
      "v": 28,
      "creates": null,
      "raw": "0xf870820253850cad301c718303d090942e04f3c491e5f34f6ce198520f4ac40eaf692d38892086ac351052600000801ca0b16485cdb7fef0014f0cd7110f491fe8924b7dc59b6daa804011c86867deeea0a063272883645f0f9d32e8c41ef0cf5388dda5bebcc6e448f72f2aba1f52584861",
      "networkId": 0,
      "chainId": 0
    },
    {
      "hash": "0x14f1f9bca82d7e77d27cb17b03811fb35778a6cbe8c60718b789e5027adb8d63",
      "blockHash": "0x0510a07bc992c9a72be39635689c16f96a7d504ae42dc0baf094551decb40a17",
      "blockNumber": 95364,
      "transactionIndex": 1,
      "confirmations": null,
      "from": "0x120A270bbC009644e35F0bB6ab13f95b8199c4ad",
      "gasPrice": {
        "_hex": "0xcad301c71"
      },
      "gasLimit": {
        "_hex": "0x3d090"
      },
      "to": "0x1A45221Bb8D9c78D59bf1De0B3a361F5da3f965E",
      "value": {
        "_hex": "0x466d1f66736c00"
      },
      "nonce": 596,
      "data": "0x",
      "r": "0xb9a00098d1be44fa2560c18a01fd3cbb298ede10c5e146440c58936058753b7e",
      "s": "0x670a1054fb2a9a5ce6d4693fb8cb41bbf2b82df83421f5c6c8b677d5e822446e",
      "v": 28,
      "creates": null,
      "raw": "0xf86e820254850cad301c718303d090941a45221bb8d9c78d59bf1de0b3a361f5da3f965e87466d1f66736c00801ca0b9a00098d1be44fa2560c18a01fd3cbb298ede10c5e146440c58936058753b7ea0670a1054fb2a9a5ce6d4693fb8cb41bbf2b82df83421f5c6c8b677d5e822446e",
      "networkId": 0,
      "chainId": 0
    }
  ]
}