{
  "hash": "0xff922d374c7714a9f841ad66616125278e0de878ca3d28e62c5be842a6ada0b7",
  "parentHash": "0xc3530006efa7fcdd6bbf2450a0964bf03cdc299480e7a1477df1da038481f498",
  "number": 68588,
  "timestamp": 1439290376,
  "nonce": "0x2068667e01dc9367",
  "difficulty": 2018230382061,
  "gasLimit": {
    "_hex": "0x2fefd8"
  },
  "gasUsed": {
    "_hex": "0x37648"
  },
  "miner": "0xf927a40C8B7F6E07c5af7FA2155B4864a4112B13",
  "extraData": "0x",
  "transactions": [
    {
      "hash": "0x37a8a4ea1de99af7f54b10355fb44564a535b3333f8a4dd70af3af6955910e32",
      "blockHash": "0xff922d374c7714a9f841ad66616125278e0de878ca3d28e62c5be842a6ada0b7",
      "blockNumber": 68588,
      "transactionIndex": 0,
      "confirmations": null,
      "from": "0x17580B766f7453525ca4C6A88b01b50570EA088C",
      "gasPrice": {
        "_hex": "0xd4d426008"
      },
      "gasLimit": {
        "_hex": "0x61a80"
      },
      "to": "0x5Fe5B7546D1628f7348B023A0393de1FC825A4fD",
      "value": {
        "_hex": "0x1bc16d674ec80000"
      },
      "nonce": 41,
      "data": "0xb595b8b50000000000000000000000000000000000000000000000000000000000000001",
      "r": "0x4861bb79b544dd7989c43bad89c1d77d0f72077acab3c134c4a5390767c0ade1",
      "s": "0x4daccd04d01dce77d661c5ceb0b5b59d781f70d279b19b6182d085b92d6aab73",
      "v": 28,
      "creates": null,
      "raw": "0xf89129850d4d42600883061a80945fe5b7546d1628f7348b023a0393de1fc825a4fd881bc16d674ec80000a4b595b8b500000000000000000000000000000000000000000000000000000000000000011ca04861bb79b544dd7989c43bad89c1d77d0f72077acab3c134c4a5390767c0ade1a04daccd04d01dce77d661c5ceb0b5b59d781f70d279b19b6182d085b92d6aab73",
      "networkId": 0,
      "chainId": 0
    },
    {
      "hash": "0xbad1485169b39d4d36e85352d7e92ccb4138d5d136177fa879629a7501c6ed4b",
      "blockHash": "0xff922d374c7714a9f841ad66616125278e0de878ca3d28e62c5be842a6ada0b7",
      "blockNumber": 68588,
      "transactionIndex": 1,
      "confirmations": null,
      "from": "0x7E9e3a1b2928dB8ee074A3F8ec4b8cf9985dC7F7",
      "gasPrice": {
        "_hex": "0xba43b7400"
      },
      "gasLimit": {
        "_hex": "0x5208"
      },
      "to": "0x202A92eC4Abb585097C28E910263F74f103fFA33",
      "value": {
        "_hex": "0xd8e5610f40e000"
      },
      "nonce": 1,
      "data": "0x",
      "r": "0xa2112c19fca3b3ff86d3ed80cffc1beb9e0efc26ae22fe2d782dad5da46d340a",
      "s": "0x54f0de94b0383c50e2f49af29fe8378847b17b11d20c6276b7899b8408f830fc",
      "v": 28,
      "creates": null,
      "raw": "0xf86b01850ba43b740082520894202a92ec4abb585097c28e910263f74f103ffa3387d8e5610f40e000801ca0a2112c19fca3b3ff86d3ed80cffc1beb9e0efc26ae22fe2d782dad5da46d340aa054f0de94b0383c50e2f49af29fe8378847b17b11d20c6276b7899b8408f830fc",
      "networkId": 0,
      "chainId": 0
    },
    {
      "hash": "0xf85ac2ddd973b37122b6c408b12f20e5ae476119da64d1f760e32f05df3f3ba7",
      "blockHash": "0xff922d374c7714a9f841ad66616125278e0de878ca3d28e62c5be842a6ada0b7",
      "blockNumber": 68588,
      "transactionIndex": 2,
      "confirmations": null,
      "from": "0xF005455494Edd4238431E3eA634Bd4ACf7608D26",
      "gasPrice": {
        "_hex": "0xba43b7400"
      },
      "gasLimit": {
        "_hex": "0x5208"
      },
      "to": "0xe5Dc73f0CB3E662193A111eA4263BC1ef1d66dAd",
      "value": {
        "_hex": "0xd8e5610f40e000"
      },
      "nonce": 1,
      "data": "0x",
      "r": "0x27c708def178c62c1dec52c22fcbc4cfb4ac680bcbed781f38a89150f2380ad5",
      "s": "0x1ab4f113f19906c96333b19d74b53af5df2548b5acce86bb3e3d6c1bc26b805b",
      "v": 28,
      "creates": null,
      "raw": "0xf86b01850ba43b740082520894e5dc73f0cb3e662193a111ea4263bc1ef1d66dad87d8e5610f40e000801ca027c708def178c62c1dec52c22fcbc4cfb4ac680bcbed781f38a89150f2380ad5a01ab4f113f19906c96333b19d74b53af5df2548b5acce86bb3e3d6c1bc26b805b",
      "networkId": 0,
      "chainId": 0
    },
    {
      "hash": "0xc8aff67167169ca2e57d0265aa09c91f0223bd4917484487c43645bc104b7b93",
      "blockHash": "0xff922d374c7714a9f841ad66616125278e0de878ca3d28e62c5be842a6ada0b7",
      "blockNumber": 68588,
      "transactionIndex": 3,
      "confirmations": null,
      "from": "0x447781dB0b7A64b6AfbC75bDaD4e3DbbC1AbD959",
      "gasPrice": {
        "_hex": "0xba43b7400"
      },
      "gasLimit": {
        "_hex": "0x5208"
      },
      "to": "0xEC0301d403cec991F50Ab5aB2334348Dab2AD8F3",
      "value": {
        "_hex": "0xd8e5610f40e000"
      },
      "nonce": 1,
      "data": "0x",
      "r": "0x09cf09a7a2c15c47a42089046abba31e87e22f00d737be39283f555d3f9ef975",
      "s": "0x16b8e8bfdca5169d480db0c9978ca3e192b1a1b73f3c10714a187c37aa7cb308",
      "v": 27,
      "creates": null,
      "raw": "0xf86b01850ba43b740082520894ec0301d403cec991f50ab5ab2334348dab2ad8f387d8e5610f40e000801ba009cf09a7a2c15c47a42089046abba31e87e22f00d737be39283f555d3f9ef975a016b8e8bfdca5169d480db0c9978ca3e192b1a1b73f3c10714a187c37aa7cb308",
      "networkId": 0,
      "chainId": 0
    },
    {
      "hash": "0xacf65b9bc5510aa6b527c701468abefe1c0500c714208f7e4575247715422d9f",
      "blockHash": "0xff922d374c7714a9f841ad66616125278e0de878ca3d28e62c5be842a6ada0b7",
      "blockNumber": 68588,
      "transactionIndex": 4,
      "confirmations": null,
      "from": "0xbf586c83bA7ADc64FD85A077CeA9f8Ca03014dae",
      "gasPrice": {
        "_hex": "0xba43b7400"
      },
      "gasLimit": {
        "_hex": "0x5208"
      },
      "to": "0x638F8073E66414827Cf3F06Cd6aD92143c19214E",
      "value": {
        "_hex": "0xd8e5610f40e000"
      },
      "nonce": 1,
      "data": "0x",
      "r": "0x72becfce4607046841ef9424d22120bd4ed96803b19c9fbf29f6adc65de87511",
      "s": "0x6b04a1cb3f6f3178bdcb5fc801f7c28600c47cc3e9b2c499d5fdb02d83d7e3d9",
      "v": 27,
      "creates": null,
      "raw": "0xf86b01850ba43b740082520894638f8073e66414827cf3f06cd6ad92143c19214e87d8e5610f40e000801ba072becfce4607046841ef9424d22120bd4ed96803b19c9fbf29f6adc65de87511a06b04a1cb3f6f3178bdcb5fc801f7c28600c47cc3e9b2c499d5fdb02d83d7e3d9",
      "networkId": 0,
      "chainId": 0
    },
    {
      "hash": "0x61f46752c8ad6bf75fd60be41ef2bc18bdf0a75b45f483083b424b6c05e26e3f",
      "blockHash": "0xff922d374c7714a9f841ad66616125278e0de878ca3d28e62c5be842a6ada0b7",
      "blockNumber": 68588,
      "transactionIndex": 5,
      "confirmations": null,
      "from": "0xcDFEE001CC85eEAe29a5368877E0D13B6a068b11",
      "gasPrice": {
        "_hex": "0xba43b7400"
      },
      "gasLimit": {
        "_hex": "0x5208"
      },
      "to": "0xc3dA7435bcF7b23202F9Fc8D130403fd4e8021E5",
      "value": {
        "_hex": "0xd8e5610f40e000"
      },
      "nonce": 1,
      "data": "0x",
      "r": "0x5b2d3c379c2c43020022c6bff0e306ba4b95aef8c845bcf0b5a396eb6704fb87",
      "s": "0x71e505edd501114fb5bfa8e1b94eacadc6bba63b59aaee94729c83d54166b63a",
      "v": 27,
      "creates": null,
      "raw": "0xf86b01850ba43b740082520894c3da7435bcf7b23202f9fc8d130403fd4e8021e587d8e5610f40e000801ba05b2d3c379c2c43020022c6bff0e306ba4b95aef8c845bcf0b5a396eb6704fb87a071e505edd501114fb5bfa8e1b94eacadc6bba63b59aaee94729c83d54166b63a",
      "networkId": 0,
      "chainId": 0
    },
    {
      "hash": "0xdb61ed59fe28bab6a16f3e33e49b5399105e017074199634343fa38eb77f0640",
      "blockHash": "0xff922d374c7714a9f841ad66616125278e0de878ca3d28e62c5be842a6ada0b7",
      "blockNumber": 68588,
      "transactionIndex": 6,
      "confirmations": null,
      "from": "0x03f3aBb578740b10C28DF354A3aAa15b1Bc13061",
      "gasPrice": {
        "_hex": "0xba43b7400"
      },
      "gasLimit": {
        "_hex": "0x5208"
      },
      "to": "0x64142fE5551a592e1eb12CeADB2E343C6581fD44",
      "value": {
        "_hex": "0xd8e5610f40e000"
      },
      "nonce": 1,
      "data": "0x",
      "r": "0x0daae3d613af71660110b653799efbb794cc603d68c66f6d010f85eb5e6a5775",
      "s": "0x68bd969770d7dec45e781b1fcd02a37ceb7fd17571a89cef8af010aed75d874b",
      "v": 28,
      "creates": null,
      "raw": "0xf86b01850ba43b74008252089464142fe5551a592e1eb12ceadb2e343c6581fd4487d8e5610f40e000801ca00daae3d613af71660110b653799efbb794cc603d68c66f6d010f85eb5e6a5775a068bd969770d7dec45e781b1fcd02a37ceb7fd17571a89cef8af010aed75d874b",
      "networkId": 0,
      "chainId": 0
    },
    {
      "hash": "0x8c72af66cceab209c1e434163792624f988c32dcb0778472edf79e123f9642b3",
      "blockHash": "0xff922d374c7714a9f841ad66616125278e0de878ca3d28e62c5be842a6ada0b7",
      "blockNumber": 68588,
      "transactionIndex": 7,
      "confirmations": null,
      "from": "0xAcC0e17A3C457701D5582c5A8604fd17708E9AAD",
      "gasPrice": {
        "_hex": "0xba43b7400"
      },
      "gasLimit": {
        "_hex": "0x5208"
      },
      "to": "0xb9F4Bc0d94574A084F12243b65383832c60177ed",
      "value": {
        "_hex": "0xd8e5610f40e000"
      },
      "nonce": 1,
      "data": "0x",
      "r": "0xcbe95c9c36ec172c24fd78008b8b9f1e3d94298fb6b4175a1ec1b921638f66dd",
      "s": "0x1c9a8f0689dfd7df7b860765a449958d9093e1120d83c75682d0022572b4b70a",
      "v": 27,
      "creates": null,
      "raw": "0xf86b01850ba43b740082520894b9f4bc0d94574a084f12243b65383832c60177ed87d8e5610f40e000801ba0cbe95c9c36ec172c24fd78008b8b9f1e3d94298fb6b4175a1ec1b921638f66dda01c9a8f0689dfd7df7b860765a449958d9093e1120d83c75682d0022572b4b70a",
      "networkId": 0,
      "chainId": 0
    },
    {
      "hash": "0x1d346aa853810269242902bd4d194dbc9a43a406a18b911f89c065917d098db8",
      "blockHash": "0xff922d374c7714a9f841ad66616125278e0de878ca3d28e62c5be842a6ada0b7",
      "blockNumber": 68588,
      "transactionIndex": 8,
      "confirmations": null,
      "from": "0x2cD844259392844A28cE9b17664e04862A85571F",
      "gasPrice": {
        "_hex": "0xba43b7400"
      },
      "gasLimit": {
        "_hex": "0x5208"
      },
      "to": "0xE38FB8e21E92d717a4123665ADa693c7402CA3b1",
      "value": {
        "_hex": "0xd8e5610f40e000"
      },
      "nonce": 1,
      "data": "0x",
      "r": "0xb7ef3bb6ce0047e50b0e63fbce9383ea062722c261d8736d73500b46830c3c39",
      "s": "0x3f374d31590064904ad3f5a1eb5d1386ed1a2ca3c005e9646bce7e4bece16ad2",
      "v": 27,
      "creates": null,
      "raw": "0xf86b01850ba43b740082520894e38fb8e21e92d717a4123665ada693c7402ca3b187d8e5610f40e000801ba0b7ef3bb6ce0047e50b0e63fbce9383ea062722c261d8736d73500b46830c3c39a03f374d31590064904ad3f5a1eb5d1386ed1a2ca3c005e9646bce7e4bece16ad2",
      "networkId": 0,
      "chainId": 0
    },
    {
      "hash": "0x53a66c03e009bdf2941d6ee212758363c22a1f096c8cbb9214e6d6ae1201c03a",
      "blockHash": "0xff922d374c7714a9f841ad66616125278e0de878ca3d28e62c5be842a6ada0b7",
      "blockNumber": 68588,
      "transactionIndex": 9,
      "confirmations": null,
      "from": "0x3eee97bf355FCAFcbed5665b3c30165C85af571E",
      "gasPrice": {
        "_hex": "0xba43b7400"
      },
      "gasLimit": {
        "_hex": "0x5208"
      },
      "to": "0xA8451fdb797FF400A5B76e3e00BD76C1DfF6f8c6",
      "value": {
        "_hex": "0xd8e5610f40e000"
      },
      "nonce": 1,
      "data": "0x",
      "r": "0xeb7ebe98e5c333bd70a946977393ffe01e9cfd6426c2157356d1244964c04729",
      "s": "0x6c52ad71ef7a70b1181b4c9fbef016799b8978317c708b2359746a4deb4561d9",
      "v": 28,
      "creates": null,
      "raw": "0xf86b01850ba43b740082520894a8451fdb797ff400a5b76e3e00bd76c1dff6f8c687d8e5610f40e000801ca0eb7ebe98e5c333bd70a946977393ffe01e9cfd6426c2157356d1244964c04729a06c52ad71ef7a70b1181b4c9fbef016799b8978317c708b2359746a4deb4561d9",
      "networkId": 0,
      "chainId": 0
    }
  ]
}