{
  "hash": "0xead790c44ea589a29806b9fa0baf72de7b116ed99f8ba0489dddf8ce8f34110c",
  "parentHash": "0x31f79fa5701ac58521d68e8df42e9a99c347247bfdb1b0bbaf84602ecaa79206",
  "number": 64996,
  "timestamp": 1439229713,
  "nonce": "0xb50ecb45f1c38824",
  "difficulty": 1911640501005,
  "gasLimit": {
    "_hex": "0x2fefd8"
  },
  "gasUsed": {
    "_hex": "0xa6b8"
  },
  "miner": "0xbb7B8287f3F0a933474a79eAe42CBCa977791171",
  "extraData": "0x476574682f4c5649562f76312e302e312f6c696e75782f676f312e342e32",
  "transactions": [
    {
      "hash": "0xef136220ecc6d6d2981fa25bd42a4741c4879f1cf7ca1686ba37651ff858ad88",
      "blockHash": "0xead790c44ea589a29806b9fa0baf72de7b116ed99f8ba0489dddf8ce8f34110c",
      "blockNumber": 64996,
      "transactionIndex": 0,
      "confirmations": null,
      "from": "0x7AF34bF553440a68cccE97024F568dcd1f9eA025",
      "gasPrice": {
        "_hex": "0xd8364fc25"
      },
      "gasLimit": {
        "_hex": "0x61a8"
      },
      "to": "0x1E4387b1741bDBb2666946C77858126bBBe2A7E1",
      "value": {
        "_hex": "0xde0b6b3a7640000"
      },
      "nonce": 0,
      "data": "0x6d757374616661583836",
      "r": "0x62c7ac79180d9f9cc7c808e969ab89207841f69a8ba15de961f87c1532860f46",
      "s": "0x23c71361804d7ce3abd36dcd24997a46bf63acbdecdfee81c84e0eb295e63a74",
      "v": 28,
      "creates": null,
      "raw": "0xf87680850d8364fc258261a8941e4387b1741bdbb2666946c77858126bbbe2a7e1880de0b6b3a76400008a6d7573746166615838361ca062c7ac79180d9f9cc7c808e969ab89207841f69a8ba15de961f87c1532860f46a023c71361804d7ce3abd36dcd24997a46bf63acbdecdfee81c84e0eb295e63a74",
      "networkId": 0,
      "chainId": 0
    },
    {
      "hash": "0x24086e3a733eb40f0b325fab26be559a3c58450c141da889018a2e7a3241d48a",
      "blockHash": "0xead790c44ea589a29806b9fa0baf72de7b116ed99f8ba0489dddf8ce8f34110c",
      "blockNumber": 64996,
      "transactionIndex": 1,
      "confirmations": null,
      "from": "0x688eb3853bBCc50EcFEE0FA87F0AB693CAbdEF02",
      "gasPrice": {
        "_hex": "0xd6f724f2d"
      },
      "gasLimit": {
        "_hex": "0x15f90"
      },
      "to": "0x73557a256cF3729C21b2b391f47B18551b9a2D5B",
      "value": {
        "_hex": "0x4563918244f40000"
      },
      "nonce": 0,
      "data": "0x",
      "r": "0xe0357e5be8a3d166342661b2d8baaf9a1e372435a42ed36db83ae91289e2e424",
      "s": "0x3ded8cba494ec8afaa58f73ef87ef2913699bfdfcbdef198ceca68e031b64dca",
      "v": 28,
      "creates": null,
      "raw": "0xf86d80850d6f724f2d83015f909473557a256cf3729c21b2b391f47b18551b9a2d5b884563918244f40000801ca0e0357e5be8a3d166342661b2d8baaf9a1e372435a42ed36db83ae91289e2e424a03ded8cba494ec8afaa58f73ef87ef2913699bfdfcbdef198ceca68e031b64dca",
      "networkId": 0,
      "chainId": 0
    }
  ]
}