{
  "hash": "0xc67f6f48989860cc844fb1e1830a7a6053a611b40efff6b19f6481a8c91ac758",
  "parentHash": "0x5f1ab666e18877c5bd2a36be5596a6598e6a73f60aecfe02e0c201012fafa7f2",
  "number": 100645,
  "timestamp": 1439809820,
  "nonce": "0x479493dbd745233d",
  "difficulty": 3824646495085,
  "gasLimit": {
    "_hex": "0x2fefd8"
  },
  "gasUsed": {
    "_hex": "0x5208"
  },
  "miner": "0x790b8a3cE86E707ED0eD32bF89B3269692a23CC1",
  "extraData": "0xd783010001844765746887676f312e342e32856c696e7578",
  "transactions": [
    {
      "hash": "0x6887b76fe851b46351769022fcc25b5adc7b0ed321fca08611023e55be160819",
      "blockHash": "0xc67f6f48989860cc844fb1e1830a7a6053a611b40efff6b19f6481a8c91ac758",
      "blockNumber": 100645,
      "transactionIndex": 0,
      "confirmations": null,
      "from": "0xC603Ab5ef41fC61AA8b76bEddb09e3Cfcbb174BD",
      "gasPrice": {
        "_hex": "0xcbf2c1d43"
      },
      "gasLimit": {
        "_hex": "0x15f90"
      },
      "to": "0x8F79f76381Aad7B98C19aF55eE75fdfEeb012211",
      "value": {
        "_hex": "0x2a802f8630a240000"
      },
      "nonce": 32,
      "data": "0x",
      "r": "0xb5e1f56d07ce3f0db0669b7079061324a2f9070c54bad4ac341b3768bc043c3a",
      "s": "0x33e426da775ce1b05ead0924cd99d22903b2fcc97a4c03050d39b51d5875d453",
      "v": 28,
      "creates": null,
      "raw": "0xf86e20850cbf2c1d4383015f90948f79f76381aad7b98c19af55ee75fdfeeb0122118902a802f8630a240000801ca0b5e1f56d07ce3f0db0669b7079061324a2f9070c54bad4ac341b3768bc043c3aa033e426da775ce1b05ead0924cd99d22903b2fcc97a4c03050d39b51d5875d453",
      "networkId": 0,
      "chainId": 0
    }
  ]
}