{
  "hash": "0x4af68f1b09e18cdd61fda345aa05653668e925cb6da7b01771e352c6db543fb4",
  "parentHash": "0x1ce1be164438041263f6b99d5870d059cccbf210d66f004950d0b3dd02d26fab",
  "number": 122193,
  "timestamp": 1440189709,
  "nonce": "0x1e22cc2d4c03ecab",
  "difficulty": 4486203099699,
  "gasLimit": {
    "_hex": "0x2fefd8"
  },
  "gasUsed": {
    "_hex": "0xa410"
  },
  "miner": "0xf927a40C8B7F6E07c5af7FA2155B4864a4112B13",
  "extraData": "0x476574682f76312e302e322f6c696e75782f676f312e342e32",
  "transactions": [
    {
      "hash": "0x2e4a6709f458fec910a17778aae3da109f8702b220e7a716163a533e944083fa",
      "blockHash": "0x4af68f1b09e18cdd61fda345aa05653668e925cb6da7b01771e352c6db543fb4",
      "blockNumber": 122193,
      "transactionIndex": 0,
      "confirmations": null,
      "from": "0x32Be343B94f860124dC4fEe278FDCBD38C102D88",
      "gasPrice": {
        "_hex": "0xdf5841ba1"
      },
      "gasLimit": {
        "_hex": "0x5208"
      },
      "to": "0xB4B3c8B3bA50E3FF2C3bD7c750Cbe1B8F8f5b302",
      "value": {
        "_hex": "0x55dc320874beb0000"
      },
      "nonce": 1597,
      "data": "0x",
      "r": "0xe4e459322a8933115ce2397f6ab1f3e293ac5174948ac6c5c2ac9656c0370984",
      "s": "0x029ac618c2db7c683431b20c7db4fb652ceb196ea49c48eba322321dbf18d062",
      "v": 27,
      "creates": null,
      "raw": "0xf86f82063d850df5841ba182520894b4b3c8b3ba50e3ff2c3bd7c750cbe1b8f8f5b30289055dc320874beb0000801ba0e4e459322a8933115ce2397f6ab1f3e293ac5174948ac6c5c2ac9656c0370984a0029ac618c2db7c683431b20c7db4fb652ceb196ea49c48eba322321dbf18d062",
      "networkId": 0,
      "chainId": 0
    },
    {
      "hash": "0x512fa8aadb5627a82a7e514df8f20e738384149927e821eeeffd9d473ad87ded",
      "blockHash": "0x4af68f1b09e18cdd61fda345aa05653668e925cb6da7b01771e352c6db543fb4",
      "blockNumber": 122193,
      "transactionIndex": 1,
      "confirmations": null,
      "from": "0x32Be343B94f860124dC4fEe278FDCBD38C102D88",
      "gasPrice": {
        "_hex": "0xdf5841ba1"
      },
      "gasLimit": {
        "_hex": "0x5208"
      },
      "to": "0x1088F2CB8324A270c8D7E71083449a0722820D99",
      "value": {
        "_hex": "0xdbd2fc137a30000"
      },
      "nonce": 1598,
      "data": "0x",
      "r": "0x2c562cd2a26017436490a55b9b98c7b94e7e63ac7eab589d2024eea2b9130d1a",
      "s": "0x0e8c291715423888cef8be0ec7567b64fe48e2ec120028b9f254c2643725cf04",
      "v": 27,
      "creates": null,
      "raw": "0xf86e82063e850df5841ba1825208941088f2cb8324a270c8d7e71083449a0722820d99880dbd2fc137a30000801ba02c562cd2a26017436490a55b9b98c7b94e7e63ac7eab589d2024eea2b9130d1aa00e8c291715423888cef8be0ec7567b64fe48e2ec120028b9f254c2643725cf04",
      "networkId": 0,
      "chainId": 0
    }
  ]
}