{
  "hash": "0xc8f7d66350c3fd2facc6885d6236c3f721fc33759eb0d2c1542c60998b9cb8a1",
  "parentHash": "0x61237737f7073a3307ce215cf9cea551eeee46b05cfcc06ed366c74dd1d693dc",
  "number": 46840,
  "timestamp": 1438930085,
  "nonce": "0xb869d830c7f1a954",
  "difficulty": 1460299778166,
  "gasLimit": {
    "_hex": "0x7dfe"
  },
  "gasUsed": {
    "_hex": "0x5208"
  },
  "miner": "0xf927a40C8B7F6E07c5af7FA2155B4864a4112B13",
  "extraData": "0x476574682f76312e302e312f6c696e75782f676f312e342e32",
  "transactions": [
    {
      "hash": "0x9d28016c9546b465d2744cc32df4d75bee4aa6ec418460f00f0390380f2fd7ed",
      "blockHash": "0xc8f7d66350c3fd2facc6885d6236c3f721fc33759eb0d2c1542c60998b9cb8a1",
      "blockNumber": 46840,
      "transactionIndex": 0,
      "confirmations": null,
      "from": "0x6E4F1DD8EDB448D8F0F2829eb817B81ACEE45152",
      "gasPrice": {
        "_hex": "0x746a528800"
      },
      "gasLimit": {
        "_hex": "0x5b04"
      },
      "to": "0x756C55cbfa47fd23c0260F958e65866E64c096CB",
      "value": {
        "_hex": "0xde0b6b3a7640000"
      },
      "nonce": 1,
      "data": "0x",
      "r": "0xb2442bb02af119e8afd314a6f77daf4825658f28162f444d0256689475edcf62",
      "s": "0x7aeb9ea1637749621c196ab140fc525e3b93d2b114850837667f513f6e815883",
      "v": 28,
      "creates": null,
      "raw": "0xf86c0185746a528800825b0494756c55cbfa47fd23c0260f958e65866e64c096cb880de0b6b3a7640000801ca0b2442bb02af119e8afd314a6f77daf4825658f28162f444d0256689475edcf62a07aeb9ea1637749621c196ab140fc525e3b93d2b114850837667f513f6e815883",
      "networkId": 0,
      "chainId": 0
    }
  ]
}