{
  "hash": "0x4dd2e2b9735690de8edda41cc0d7a3747311c6728b7c2d4b6ff70f9c898265e9",
  "parentHash": "0xee05758a710246d7c283b13bf9536e804b19c10744e5d503c317ed9380baf541",
  "number": 71122,
  "timestamp": 1439331175,
  "nonce": "0x6d14937dd63012d3",
  "difficulty": 2141463170232,
  "gasLimit": {
    "_hex": "0x2fefd8"
  },
  "gasUsed": {
    "_hex": "0x5208"
  },
  "miner": "0x9dD134D14D1e65F84B706d6F205cd5B1CD03a46b",
  "extraData": "0x",
  "transactions": [
    {
      "hash": "0x0486edecad698468882bbf697591aac5bb70591f6b4f0096748c3d2e192b4a0b",
      "blockHash": "0x4dd2e2b9735690de8edda41cc0d7a3747311c6728b7c2d4b6ff70f9c898265e9",
      "blockNumber": 71122,
      "transactionIndex": 0,
      "confirmations": null,
      "from": "0x6a6D69d85A96de30FAFbc28Fe5560C221F0314E6",
      "gasPrice": {
        "_hex": "0xd531852c7"
      },
      "gasLimit": {
        "_hex": "0x5208"
      },
      "to": "0x32Be343B94f860124dC4fEe278FDCBD38C102D88",
      "value": {
        "_hex": "0x25f25d7f0817b00000"
      },
      "nonce": 2,
      "data": "0x",
      "r": "0x93d30b5bbcddd2575344f0342c7669bf566384d5b819556a924ee785cb68cc41",
      "s": "0x7dc3411db8083d61f9a1ec0ba96b8d5790fcc27cb5d51ac5dd7796c37cb3036a",
      "v": 27,
      "creates": null,
      "raw": "0xf86d02850d531852c78252089432be343b94f860124dc4fee278fdcbd38c102d888925f25d7f0817b00000801ba093d30b5bbcddd2575344f0342c7669bf566384d5b819556a924ee785cb68cc41a07dc3411db8083d61f9a1ec0ba96b8d5790fcc27cb5d51ac5dd7796c37cb3036a",
      "networkId": 0,
      "chainId": 0
    }
  ]
}