{
  "hash": "0xc90647182a0d58a63b0a949242b8c40c29490ccbd9129f42cee0657072a9fde8",
  "parentHash": "0xe9b67d72bc77dc5d38ae3ef0b85d50ef5ab0f21ee8a10f8ab08c4735438e3c59",
  "number": 101703,
  "timestamp": 1439826890,
  "nonce": "0xe28a980f21acade0",
  "difficulty": 3869242188352,
  "gasLimit": {
    "_hex": "0x2fefd8"
  },
  "gasUsed": {
    "_hex": "0xf618"
  },
  "miner": "0xe6A7a1d47ff21B6321162AEA7C6CB457D5476Bca",
  "extraData": "0x476574682f76312e302e312d38326566323666362f6c696e75782f676f312e34",
  "transactions": [
    {
      "hash": "0x3fcfc805b60053e5dac3b9a9adb6f5cfe093fac8f741ada28e12d4e5819b45d9",
      "blockHash": "0xc90647182a0d58a63b0a949242b8c40c29490ccbd9129f42cee0657072a9fde8",
      "blockNumber": 101703,
      "transactionIndex": 0,
      "confirmations": null,
      "from": "0x007f7f58D3eb5b7510A301eCC749FC1fCDDBE14D",
      "gasPrice": {
        "_hex": "0xe0cfe7246"
      },
      "gasLimit": {
        "_hex": "0x15f90"
      },
      "to": "0xb1abce2918E21ddb93AA452731a12672A3d9F75a",
      "value": {
        "_hex": "0x4563918244f40000"
      },
      "nonce": 191,
      "data": "0x",
      "r": "0x048138e56e990544c3b904792198b93f33630af26888143e5d5c58725536254e",
      "s": "0x6fa4b75b7ed564ceac46396e960b25f0ca343e36de29442787c7786106d6e505",
      "v": 28,
      "creates": null,
      "raw": "0xf86e81bf850e0cfe724683015f9094b1abce2918e21ddb93aa452731a12672a3d9f75a884563918244f40000801ca0048138e56e990544c3b904792198b93f33630af26888143e5d5c58725536254ea06fa4b75b7ed564ceac46396e960b25f0ca343e36de29442787c7786106d6e505",
      "networkId": 0,
      "chainId": 0
    },
    {
      "hash": "0x3af957151042e2ea62779deb6f89b015b4d0242329c754f48f5e7eab7bddb59a",
      "blockHash": "0xc90647182a0d58a63b0a949242b8c40c29490ccbd9129f42cee0657072a9fde8",
      "blockNumber": 101703,
      "transactionIndex": 1,
      "confirmations": null,
      "from": "0x24e0fEAc2aabaE5625b91D8e9310bEd1E19eAc2a",
      "gasPrice": {
        "_hex": "0xd61aa2a21"
      },
      "gasLimit": {
        "_hex": "0x5208"
      },
      "to": "0x32Be343B94f860124dC4fEe278FDCBD38C102D88",
      "value": {
        "_hex": "0x1b1ae098b1f4260000"
      },
      "nonce": 5,
      "data": "0x",
      "r": "0xbd457269c2d9be4ce84ab6bbe981c7f9538d7b2c81f86a04bd4be5155cf1b364",
      "s": "0x7638cb3c38f4566f16f597a8e1554bc164507acbcb3e9a846c691bab572782e2",
      "v": 28,
      "creates": null,
      "raw": "0xf86d05850d61aa2a218252089432be343b94f860124dc4fee278fdcbd38c102d88891b1ae098b1f4260000801ca0bd457269c2d9be4ce84ab6bbe981c7f9538d7b2c81f86a04bd4be5155cf1b364a07638cb3c38f4566f16f597a8e1554bc164507acbcb3e9a846c691bab572782e2",
      "networkId": 0,
      "chainId": 0
    },
    {
      "hash": "0x5d4ace89362427cdcc11c803330111ba03bbe233fe78c961b9ba4f57914953bc",
      "blockHash": "0xc90647182a0d58a63b0a949242b8c40c29490ccbd9129f42cee0657072a9fde8",
      "blockNumber": 101703,
      "transactionIndex": 2,
      "confirmations": null,
      "from": "0x6De181Fc4C140FA31F196e5393516c49EEeBdAd3",
      "gasPrice": {
        "_hex": "0xd61aa2a21"
      },
      "gasLimit": {
        "_hex": "0x5208"
      },
      "to": "0x32Be343B94f860124dC4fEe278FDCBD38C102D88",
      "value": {
        "_hex": "0x3a1cb87503134e000"
      },
      "nonce": 19,
      "data": "0x",
      "r": "0x6252bc8da253f604adc27d8b07ae85245c813fe07cbc22ef0d263791384c0623",
      "s": "0x2c7f334fd3a42d232c2e869c61ef092663e6a2d1bb4bcd573a19c980b4220c9e",
      "v": 28,
      "creates": null,
      "raw": "0xf86d13850d61aa2a218252089432be343b94f860124dc4fee278fdcbd38c102d888903a1cb87503134e000801ca06252bc8da253f604adc27d8b07ae85245c813fe07cbc22ef0d263791384c0623a02c7f334fd3a42d232c2e869c61ef092663e6a2d1bb4bcd573a19c980b4220c9e",
      "networkId": 0,
      "chainId": 0
    }
  ]
}