{
  "hash": "0x4f148924cac123b7c46d82a48af1d1b92d00854fc2407551597bed9ee9dfeef9",
  "parentHash": "0x402ce731f858982f2889c22666e9c9bdab08b8694e79b7d66747498812369bb0",
  "number": 52944,
  "timestamp": 1439029917,
  "nonce": "0xa22f25aceb084622",
  "difficulty": 1573196295778,
  "gasLimit": {
    "_hex": "0x1c45b2"
  },
  "gasUsed": {
    "_hex": "0x546c"
  },
  "miner": "0x47ff6576639c2e94762eA5443978D7681C0E78DC",
  "extraData": "0x476574682f76312e302e312f6c696e75782f676f312e342e32",
  "transactions": [
    {
      "hash": "0x57fafc769b6c31a0ae68521ab02b30a63a1dcc069b67bba5eb9f4ad70afade2f",
      "blockHash": "0x4f148924cac123b7c46d82a48af1d1b92d00854fc2407551597bed9ee9dfeef9",
      "blockNumber": 52944,
      "transactionIndex": 0,
      "confirmations": null,
      "from": "0xCD566Ad7B883f01Fd3998a9a58A9DEE4724DDCa5",
      "gasPrice": {
        "_hex": "0x110c8f7d8de"
      },
      "gasLimit": {
        "_hex": "0xc350"
      },
      "to": "0x2910543Af39abA0Cd09dBb2D50200b3E800A63D2",
      "value": {
        "_hex": "0x32f51edbaaa330000"
      },
      "nonce": 0,
      "data": "0x454e34455841483930",
      "r": "0x279a00341860fdaf743c63f6d2400f8bcf66eacf9d8ff6720d41d15867ba8451",
      "s": "0xd7dd80da1e7324aaa80777dcf0b8759d10b1826909464c73d46576baaaaf0cc4",
      "v": 28,
      "creates": null,
      "raw": "0xf87780860110c8f7d8de82c350942910543af39aba0cd09dbb2d50200b3e800a63d289032f51edbaaa33000089454e344558414839301ca0279a00341860fdaf743c63f6d2400f8bcf66eacf9d8ff6720d41d15867ba8451a0d7dd80da1e7324aaa80777dcf0b8759d10b1826909464c73d46576baaaaf0cc4",
      "networkId": 0,
      "chainId": 0
    }
  ]
}