{
  "hash": "0xe4d24979c87facc58fc1a94a08b7e4aa8601f00ba29c1b97063c78fc7580a569",
  "parentHash": "0xa42f6c587a1afeb4ebdca958e6cae7ea775ee294331c2996146e47214be09a95",
  "number": 87013,
  "timestamp": 1439586050,
  "nonce": "0xf49a990ea9d49df4",
  "difficulty": 3003946796624,
  "gasLimit": {
    "_hex": "0x2fefd8"
  },
  "gasUsed": {
    "_hex": "0x5208"
  },
  "miner": "0xe6A7a1d47ff21B6321162AEA7C6CB457D5476Bca",
  "extraData": "0x476574682f76312e302e312d38326566323666362f6c696e75782f676f312e34",
  "transactions": [
    {
      "hash": "0xbbaadc194108889f49875df1ade5876c3e8da5e0092d2b80b0926b1821080898",
      "blockHash": "0xe4d24979c87facc58fc1a94a08b7e4aa8601f00ba29c1b97063c78fc7580a569",
      "blockNumber": 87013,
      "transactionIndex": 0,
      "confirmations": null,
      "from": "0x120A270bbC009644e35F0bB6ab13f95b8199c4ad",
      "gasPrice": {
        "_hex": "0xcd4c091a8"
      },
      "gasLimit": {
        "_hex": "0x15f90"
      },
      "to": "0xFbc92cE518a6CA6341B08b4468880Cc9Dd61a027",
      "value": {
        "_hex": "0x17e5582fb6c5836c00"
      },
      "nonce": 486,
      "data": "0x",
      "r": "0xad3e645eeb19bd4997657c15edda1ac40febaed465b149d25012dae39d708ffd",
      "s": "0x62c726c4d23274e486962cafa15d10a169f9904626fb00fe3c964d25d03a82e0",
      "v": 28,
      "creates": null,
      "raw": "0xf8708201e6850cd4c091a883015f9094fbc92ce518a6ca6341b08b4468880cc9dd61a0278917e5582fb6c5836c00801ca0ad3e645eeb19bd4997657c15edda1ac40febaed465b149d25012dae39d708ffda062c726c4d23274e486962cafa15d10a169f9904626fb00fe3c964d25d03a82e0",
      "networkId": 0,
      "chainId": 0
    }
  ]
}