{
  "hash": "0x80720df82675029293f579ef9cc049b178bab2dcc450cbbd37d6d72aa6e56382",
  "parentHash": "0x99597f7129da1f934199e9c27744ab2ba2d8a85849e7eef6aa5cdd8db655b8d2",
  "number": 96325,
  "timestamp": 1439738546,
  "nonce": "0xac70747da86cbbc2",
  "difficulty": 3680021242245,
  "gasLimit": {
    "_hex": "0x2fefd8"
  },
  "gasUsed": {
    "_hex": "0xa674"
  },
  "miner": "0xf8E0CA3Ed80bd541b94BEdCf259e8CF2141A9523",
  "extraData": "0x476574682f76312e302e312f77696e646f77732f676f312e342e32",
  "transactions": [
    {
      "hash": "0x4da52455896cbe3ba7d7326f28275a5a9be543ded103ff0fd5382b70f7ecce17",
      "blockHash": "0x80720df82675029293f579ef9cc049b178bab2dcc450cbbd37d6d72aa6e56382",
      "blockNumber": 96325,
      "transactionIndex": 0,
      "confirmations": null,
      "from": "0x7c29d47D57A733f56b9b217063B513dc3B315923",
      "gasPrice": {
        "_hex": "0x110c8f7d8de"
      },
      "gasLimit": {
        "_hex": "0xc350"
      },
      "to": "0x2910543Af39abA0Cd09dBb2D50200b3E800A63D2",
      "value": {
        "_hex": "0x6c6b935b8bbd400000"
      },
      "nonce": 1,
      "data": "0x454e375559425a3547",
      "r": "0xd7aadd6e586566a64c92dd334976fb9cb2d4e9f86fb25db5434015e3ef504260",
      "s": "0x920c431c2822dbfdd97c2a9c3dfa62505f144e1800e36918b1656cd1c8ce61b1",
      "v": 28,
      "creates": null,
      "raw": "0xf87701860110c8f7d8de82c350942910543af39aba0cd09dbb2d50200b3e800a63d2896c6b935b8bbd40000089454e375559425a35471ca0d7aadd6e586566a64c92dd334976fb9cb2d4e9f86fb25db5434015e3ef504260a0920c431c2822dbfdd97c2a9c3dfa62505f144e1800e36918b1656cd1c8ce61b1",
      "networkId": 0,
      "chainId": 0
    },
    {
      "hash": "0x3f478573d7f069dd8ccf0de9ad398d17a0a4de94462f5eeca3b96e58511691c4",
      "blockHash": "0x80720df82675029293f579ef9cc049b178bab2dcc450cbbd37d6d72aa6e56382",
      "blockNumber": 96325,
      "transactionIndex": 1,
      "confirmations": null,
      "from": "0x5fA168A1713FBCC49B149749aE8262Bd715Ae8fa",
      "gasPrice": {
        "_hex": "0xd90d130cc"
      },
      "gasLimit": {
        "_hex": "0x15f90"
      },
      "to": "0x93fFb588775213472640ae7a2334e48A904324dd",
      "value": {
        "_hex": "0x8ac7230489e80000"
      },
      "nonce": 0,
      "data": "0x",
      "r": "0xa9def66d1d24c36b0369c6dd1267022b9bbd770da6fa550f4a477419312c9c1b",
      "s": "0x4f01a618ee77510f56397865cc88e8fbfd018ff6999c4e1aede9bdd214fb6e3f",
      "v": 27,
      "creates": null,
      "raw": "0xf86d80850d90d130cc83015f909493ffb588775213472640ae7a2334e48a904324dd888ac7230489e80000801ba0a9def66d1d24c36b0369c6dd1267022b9bbd770da6fa550f4a477419312c9c1ba04f01a618ee77510f56397865cc88e8fbfd018ff6999c4e1aede9bdd214fb6e3f",
      "networkId": 0,
      "chainId": 0
    }
  ]
}