{
  "hash": "0x254a1ee64a253842235f60ad20cbc9b3435d2bda960f5970acf6f8145807bf58",
  "parentHash": "0xeff20ed987a441552f019a7a4da157a98b703b322d59d1718892b409a2defa84",
  "number": 100765,
  "timestamp": 1439811970,
  "nonce": "0xdd5f7e3a822d7e94",
  "difficulty": 3850826021579,
  "gasLimit": {
    "_hex": "0x2fefd8"
  },
  "gasUsed": {
    "_hex": "0x5208"
  },
  "miner": "0x007f7f58D3eb5b7510A301eCC749FC1fCDDBE14D",
  "extraData": "0x476574682f76312e302e312f77696e646f77732f676f312e342e32",
  "transactions": [
    {
      "hash": "0xaba7fa3ea299dc99d3945ceb20c05f8acb7f7ebeb2f31fae798f5a6e0c072e5e",
      "blockHash": "0x254a1ee64a253842235f60ad20cbc9b3435d2bda960f5970acf6f8145807bf58",
      "blockNumber": 100765,
      "transactionIndex": 0,
      "confirmations": null,
      "from": "0x007f7f58D3eb5b7510A301eCC749FC1fCDDBE14D",
      "gasPrice": {
        "_hex": "0xe0cfe7246"
      },
      "gasLimit": {
        "_hex": "0x15f90"
      },
      "to": "0xb1abce2918E21ddb93AA452731a12672A3d9F75a",
      "value": {
        "_hex": "0x4563918244f40000"
      },
      "nonce": 169,
      "data": "0x",
      "r": "0x47a7773e656ca911b8efecc7f31b04b7c95cacf377f23f36f8635ef02a774d85",
      "s": "0x4441cdef6eb5aa72eb6093f170f43df125da394d0020ebc048dde31cfe14d80e",
      "v": 27,
      "creates": null,
      "raw": "0xf86e81a9850e0cfe724683015f9094b1abce2918e21ddb93aa452731a12672a3d9f75a884563918244f40000801ba047a7773e656ca911b8efecc7f31b04b7c95cacf377f23f36f8635ef02a774d85a04441cdef6eb5aa72eb6093f170f43df125da394d0020ebc048dde31cfe14d80e",
      "networkId": 0,
      "chainId": 0
    }
  ]
}