{
  "hash": "0x34316f0dadb3567831d7b96cd8db1617ba4d6ca43a322ef13cb82b5e19c794b0",
  "parentHash": "0x7ad1f3acaf1effdbab8025f93c2566d8b87b85955f79a910e9358f8897c73b32",
  "number": 90146,
  "timestamp": 1439635324,
  "nonce": "0xfee5ae6d1a2190fd",
  "difficulty": 3312483066078,
  "gasLimit": {
    "_hex": "0x2fefd8"
  },
  "gasUsed": {
    "_hex": "0x5208"
  },
  "miner": "0x2f6BCe4fc330B69C9B4c2694d57C63Ec7B18feC7",
  "extraData": "0x476574682f76312e302e312f77696e646f77732f676f312e342e32",
  "transactions": [
    {
      "hash": "0x3db8f8f4e543598e0d05791293fec575b3b6ea7861cbdba4732717e3c5f2ff2d",
      "blockHash": "0x34316f0dadb3567831d7b96cd8db1617ba4d6ca43a322ef13cb82b5e19c794b0",
      "blockNumber": 90146,
      "transactionIndex": 0,
      "confirmations": null,
      "from": "0x1dbe45A9437978D7Bdc5D468e6be0988a71D153f",
      "gasPrice": {
        "_hex": "0xd4dfa5aef"
      },
      "gasLimit": {
        "_hex": "0x15f90"
      },
      "to": "0x11AA265966dFdDfDC4fA42a83C305f6EcbE9588a",
      "value": {
        "_hex": "0x4139c1192c560000"
      },
      "nonce": 2,
      "data": "0x",
      "r": "0xae827c731bd7884449c787a20904d28f5572b1ee79de3909c97410360e8bea58",
      "s": "0x2149ba1c5810fd0a23b49d7ef5122dfa77c232b43fa38fe201127f367f65cd27",
      "v": 27,
      "creates": null,
      "raw": "0xf86d02850d4dfa5aef83015f909411aa265966dfddfdc4fa42a83c305f6ecbe9588a884139c1192c560000801ba0ae827c731bd7884449c787a20904d28f5572b1ee79de3909c97410360e8bea58a02149ba1c5810fd0a23b49d7ef5122dfa77c232b43fa38fe201127f367f65cd27",
      "networkId": 0,
      "chainId": 0
    }
  ]
}