{
  "hash": "0xee69ecd8627a846181fbc372838e59c4baf2a1b468f428f8f2fdd76a215d52be",
  "parentHash": "0xec274a1d00cd13b276de663ac0964e9ffadcca61f456795221422799927f36f9",
  "number": 84043,
  "timestamp": 1439544261,
  "nonce": "0x927d75fe013c146d",
  "difficulty": 2493675240034,
  "gasLimit": {
    "_hex": "0x2fefd8"
  },
  "gasUsed": {
    "_hex": "0xa410"
  },
  "miner": "0x31995C46B15C84523cDEE26f49A681b8237e43F5",
  "extraData": "0x476574682f76312e302e312f77696e646f77732f676f312e342e32",
  "transactions": [
    {
      "hash": "0xfeb8074e6dbef5b2b85dc33ebf646067c8e34b625f3fbf230f6ad6ef93bdad89",
      "blockHash": "0xee69ecd8627a846181fbc372838e59c4baf2a1b468f428f8f2fdd76a215d52be",
      "blockNumber": 84043,
      "transactionIndex": 0,
      "confirmations": null,
      "from": "0x05f74a38293C914C6B14a39f5d8dEa98f22E4FBA",
      "gasPrice": {
        "_hex": "0xd627e0bb8"
      },
      "gasLimit": {
        "_hex": "0x15f90"
      },
      "to": "0xbEB64d852Bb6731CD479E80F7139ADEa5D6A5a28",
      "value": {
        "_hex": "0x3bd913e6c1df40000"
      },
      "nonce": 3,
      "data": "0x",
      "r": "0xefe148a343e4ccd82e334cc810b3a88264d7e05c557072231ddca042be24571f",
      "s": "0x053b9afe76def939b27460163c1c60da3e17321ed77d324c75fbdbdcb1b9b83b",
      "v": 28,
      "creates": null,
      "raw": "0xf86e03850d627e0bb883015f9094beb64d852bb6731cd479e80f7139adea5d6a5a288903bd913e6c1df40000801ca0efe148a343e4ccd82e334cc810b3a88264d7e05c557072231ddca042be24571fa0053b9afe76def939b27460163c1c60da3e17321ed77d324c75fbdbdcb1b9b83b",
      "networkId": 0,
      "chainId": 0
    },
    {
      "hash": "0x7de73ca8b10404907faf0e6bc83ca75fd7ff0f5a636426e256ffdd20f86f8dd1",
      "blockHash": "0xee69ecd8627a846181fbc372838e59c4baf2a1b468f428f8f2fdd76a215d52be",
      "blockNumber": 84043,
      "transactionIndex": 1,
      "confirmations": null,
      "from": "0x120A270bbC009644e35F0bB6ab13f95b8199c4ad",
      "gasPrice": {
        "_hex": "0xd154196a5"
      },
      "gasLimit": {
        "_hex": "0x3d090"
      },
      "to": "0x66551dDfC81BAD8d9C75B6d44b18dB78d8F92186",
      "value": {
        "_hex": "0x22b1c8c1227a00000"
      },
      "nonce": 420,
      "data": "0x",
      "r": "0xd04f5fa1145ef4920b981db8f6b4d8a4f65f66fdf3ace42e2e0e60f8d56bc7fb",
      "s": "0x5136687c65fd9e7f3a8cd79bbc81b5de9a9ac69d3fbc882f1041b032654cfe92",
      "v": 28,
      "creates": null,
      "raw": "0xf8708201a4850d154196a58303d0909466551ddfc81bad8d9c75b6d44b18db78d8f9218689022b1c8c1227a00000801ca0d04f5fa1145ef4920b981db8f6b4d8a4f65f66fdf3ace42e2e0e60f8d56bc7fba05136687c65fd9e7f3a8cd79bbc81b5de9a9ac69d3fbc882f1041b032654cfe92",
      "networkId": 0,
      "chainId": 0
    }
  ]
}