{
  "hash": "0xf75dd64dda4195df36ff89f4cadc5af75fbea3a8c59805081d349021c138527a",
  "parentHash": "0x3871175614accad92f0f7eeb4d42845e736df9e64c8fe584eafa71680ec852e4",
  "number": 85525,
  "timestamp": 1439565005,
  "nonce": "0x616857600a586ac1",
  "difficulty": 2754374394997,
  "gasLimit": {
    "_hex": "0x2fefd8"
  },
  "gasUsed": {
    "_hex": "0xa674"
  },
  "miner": "0x0eDEd3DA479d0beF8eeC92A76644D3f4E3C177f7",
  "extraData": "0x476574682f76312e302e312f6c696e75782f676f312e342e32",
  "transactions": [
    {
      "hash": "0x989faecf36768138a508802aa850579335b3da0d260165beb94e6825816c5c99",
      "blockHash": "0xf75dd64dda4195df36ff89f4cadc5af75fbea3a8c59805081d349021c138527a",
      "blockNumber": 85525,
      "transactionIndex": 0,
      "confirmations": null,
      "from": "0x39D6caCA22Bccd6A72f87Ee7d6B59e0bde21d719",
      "gasPrice": {
        "_hex": "0x110c8f7d8de"
      },
      "gasLimit": {
        "_hex": "0xc350"
      },
      "to": "0x2910543Af39abA0Cd09dBb2D50200b3E800A63D2",
      "value": {
        "_hex": "0x30ca024f987b900000"
      },
      "nonce": 1,
      "data": "0x454e55453356355830",
      "r": "0x03ad4716654ed830bf070ab3610143304b103fa78d9261a78f0e63dbb86ee736",
      "s": "0xdb4325bfeacab3dd2bcaa81f2f9e98219170aae8c0c01e2dafa6cb22d36a8689",
      "v": 28,
      "creates": null,
      "raw": "0xf87701860110c8f7d8de82c350942910543af39aba0cd09dbb2d50200b3e800a63d28930ca024f987b90000089454e554533563558301ca003ad4716654ed830bf070ab3610143304b103fa78d9261a78f0e63dbb86ee736a0db4325bfeacab3dd2bcaa81f2f9e98219170aae8c0c01e2dafa6cb22d36a8689",
      "networkId": 0,
      "chainId": 0
    },
    {
      "hash": "0x14426b52f3ca9aeb36d5db152eede1703e5fcb2933e154a29b30e46229abf82e",
      "blockHash": "0xf75dd64dda4195df36ff89f4cadc5af75fbea3a8c59805081d349021c138527a",
      "blockNumber": 85525,
      "transactionIndex": 1,
      "confirmations": null,
      "from": "0xAfB0dFf6a88F9c755dB704eC522eBE7B1b0Da498",
      "gasPrice": {
        "_hex": "0xba43b7400"
      },
      "gasLimit": {
        "_hex": "0x5208"
      },
      "to": "0xC47Aaa860008be6f65B58c6C6E02a84e666EfE31",
      "value": {
        "_hex": "0x2b5ce30a54ca3b8f0"
      },
      "nonce": 0,
      "data": "0x",
      "r": "0x800910f2691d052795184bd58599a3dac60aeedeeecc4b00482483268e1bc94c",
      "s": "0x3b52b79fe11a74e16c0fb20e57416969311786ef35342b4375040137325b8f8f",
      "v": 27,
      "creates": null,
      "raw": "0xf86d80850ba43b740082520894c47aaa860008be6f65b58c6c6e02a84e666efe318902b5ce30a54ca3b8f0801ba0800910f2691d052795184bd58599a3dac60aeedeeecc4b00482483268e1bc94ca03b52b79fe11a74e16c0fb20e57416969311786ef35342b4375040137325b8f8f",
      "networkId": 0,
      "chainId": 0
    }
  ]
}