{
  "hash": "0x9e3d1425d33085825c09ab8cca0a03c08ccd108b3297141c50d336fdc98ac547",
  "parentHash": "0x3d2646aa6bc9ab88bebf6f416e21862733822e539a56b252e5e338f27e81d4a4",
  "number": 101413,
  "timestamp": 1439822688,
  "nonce": "0xd9d1eb43593dcaf1",
  "difficulty": 3835516776466,
  "gasLimit": {
    "_hex": "0x2fefd8"
  },
  "gasUsed": {
    "_hex": "0x5208"
  },
  "miner": "0xe6A7a1d47ff21B6321162AEA7C6CB457D5476Bca",
  "extraData": "0x476574682f76312e302e312d38326566323666362f6c696e75782f676f312e34",
  "transactions": [
    {
      "hash": "0xcc4c18f843d4ffe088ac0b42aaed493d992aed79e8778db8b703a4ebced490ca",
      "blockHash": "0x9e3d1425d33085825c09ab8cca0a03c08ccd108b3297141c50d336fdc98ac547",
      "blockNumber": 101413,
      "transactionIndex": 0,
      "confirmations": null,
      "from": "0xE73267aF530D04e33c845c1247EfE4210c28ca8A",
      "gasPrice": {
        "_hex": "0xdb9d03448"
      },
      "gasLimit": {
        "_hex": "0x5208"
      },
      "to": "0xFBb1b73C4f0BDa4f67dcA266ce6Ef42f520fBB98",
      "value": {
        "_hex": "0x298bfaaf3f0acdc0"
      },
      "nonce": 0,
      "data": "0x",
      "r": "0x03279614b0d83204ba98bb2ea0bf317ac765dc6c58ad3e8b3944a47b36ecf1b5",
      "s": "0x6231754fad7f3b7170a7288ade70c66fc93808720294a344ad12b779df1fa8fd",
      "v": 28,
      "creates": null,
      "raw": "0xf86c80850db9d0344882520894fbb1b73c4f0bda4f67dca266ce6ef42f520fbb9888298bfaaf3f0acdc0801ca003279614b0d83204ba98bb2ea0bf317ac765dc6c58ad3e8b3944a47b36ecf1b5a06231754fad7f3b7170a7288ade70c66fc93808720294a344ad12b779df1fa8fd",
      "networkId": 0,
      "chainId": 0
    }
  ]
}