{
  "hash": "0x3cf4c141ae3c5119cb2fbe6ac1205f60157fb854c3a70dbdecc553cb27c94531",
  "parentHash": "0x63ffea857f7f49ebf2b1d6e9ba07e31022a3fa2d9492481469e57e05c08bf039",
  "number": 73911,
  "timestamp": 1439377321,
  "nonce": "0x8dd51f67d3f0c3f4",
  "difficulty": 2224942487243,
  "gasLimit": {
    "_hex": "0x2fefd5"
  },
  "gasUsed": {
    "_hex": "0xa410"
  },
  "miner": "0xeB1325C8D9d3ea8D74aC11F4B00F1B2367686319",
  "extraData": "0x476574682f76312e302e312f77696e646f77732f676f312e342e32",
  "transactions": [
    {
      "hash": "0xf040321f1b34b315788400f58319c4f71186975b6b55b260196c7b6f57937fcb",
      "blockHash": "0x3cf4c141ae3c5119cb2fbe6ac1205f60157fb854c3a70dbdecc553cb27c94531",
      "blockNumber": 73911,
      "transactionIndex": 0,
      "confirmations": null,
      "from": "0x32Be343B94f860124dC4fEe278FDCBD38C102D88",
      "gasPrice": {
        "_hex": "0xe0bebf4bf"
      },
      "gasLimit": {
        "_hex": "0x5208"
      },
      "to": "0xBE07744f624130f75511A91a43495e5C11114950",
      "value": {
        "_hex": "0xde0b6b3a7640000"
      },
      "nonce": 312,
      "data": "0x",
      "r": "0xb18c418b92befc4f989ad0ceb8a77249ca8be011b9aa1d858ad7a1561ef18a95",
      "s": "0x1a02efbc5ebb2a0c2741731e8daba664bc2968839a1e840b733d6fa20b6b767f",
      "v": 28,
      "creates": null,
      "raw": "0xf86e820138850e0bebf4bf82520894be07744f624130f75511a91a43495e5c11114950880de0b6b3a7640000801ca0b18c418b92befc4f989ad0ceb8a77249ca8be011b9aa1d858ad7a1561ef18a95a01a02efbc5ebb2a0c2741731e8daba664bc2968839a1e840b733d6fa20b6b767f",
      "networkId": 0,
      "chainId": 0
    },
    {
      "hash": "0x003d8b902a6c7d92ce65095069db7711c0050f8cd421eca34b34f428369a11b3",
      "blockHash": "0x3cf4c141ae3c5119cb2fbe6ac1205f60157fb854c3a70dbdecc553cb27c94531",
      "blockNumber": 73911,
      "transactionIndex": 1,
      "confirmations": null,
      "from": "0x2910543Af39abA0Cd09dBb2D50200b3E800A63D2",
      "gasPrice": {
        "_hex": "0xd1d14e585"
      },
      "gasLimit": {
        "_hex": "0x5208"
      },
      "to": "0xdEC7d1B05f89c0Ce0870Ea4AeA18138264675478",
      "value": {
        "_hex": "0x4b72e45416c4ec000"
      },
      "nonce": 293,
      "data": "0x",
      "r": "0x61cfef5975d7abf9def4358299a2c75d56261a508b48e7ac1de59c5d8fac0270",
      "s": "0x067845710fb5cbadf42917121e912aa8e28549d60e65424dba5d37c8985969d1",
      "v": 27,
      "creates": null,
      "raw": "0xf86f820125850d1d14e58582520894dec7d1b05f89c0ce0870ea4aea181382646754788904b72e45416c4ec000801ba061cfef5975d7abf9def4358299a2c75d56261a508b48e7ac1de59c5d8fac0270a0067845710fb5cbadf42917121e912aa8e28549d60e65424dba5d37c8985969d1",
      "networkId": 0,
      "chainId": 0
    }
  ]
}