{
  "hash": "0x5eb47a7f34db334b7ac3ec9ec7b93ecc6f8bd6def65a8d14a6a947d68042673e",
  "parentHash": "0xc01cf2df5ac081acc7dc06ff75697a074ad26ee7c511aa926e3394c4ba621464",
  "number": 66302,
  "timestamp": 1439252079,
  "nonce": "0x5807534f4a1bc4a7",
  "difficulty": 1935762683710,
  "gasLimit": {
    "_hex": "0x2fefd8"
  },
  "gasUsed": {
    "_hex": "0x5208"
  },
  "miner": "0xa50ec0D39fa913E62f1Bae7074E6F36caA71855b",
  "extraData": "0x",
  "transactions": [
    {
      "hash": "0xea6ef524d66fa0d1515fc615c14e0f67fcaf1064ae459d879ba55d52ec1794d6",
      "blockHash": "0x5eb47a7f34db334b7ac3ec9ec7b93ecc6f8bd6def65a8d14a6a947d68042673e",
      "blockNumber": 66302,
      "transactionIndex": 0,
      "confirmations": null,
      "from": "0xC759dc67E0c3816fdC56A2f5bb29920fc07e767D",
      "gasPrice": {
        "_hex": "0xdacc9b3f1"
      },
      "gasLimit": {
        "_hex": "0x5208"
      },
      "to": "0x910a4aADabb3A7B3F7879118332E13Da66b68D77",
      "value": {
        "_hex": "0xd02ab486cedc0000"
      },
      "nonce": 13,
      "data": "0x",
      "r": "0x2a4759a466c20703474d42ccbdbfea2492e03ce50fe89024af00c9207d0e2a96",
      "s": "0x4690d53f06f678f2e004f66c3078b8fee5a70408e50a149d971e5f3384c84789",
      "v": 27,
      "creates": null,
      "raw": "0xf86c0d850dacc9b3f182520894910a4aadabb3a7b3f7879118332e13da66b68d7788d02ab486cedc0000801ba02a4759a466c20703474d42ccbdbfea2492e03ce50fe89024af00c9207d0e2a96a04690d53f06f678f2e004f66c3078b8fee5a70408e50a149d971e5f3384c84789",
      "networkId": 0,
      "chainId": 0
    }
  ]
}