{
  "hash": "0x667ea5086c17d749601b107cfe3b63fb53c19793180bf76c8c00e3a4ecc98cd6",
  "parentHash": "0x6a02aea135574e6e81cd7220aa33446b5aa2c81f54b2113ee628248714d22705",
  "number": 61151,
  "timestamp": 1439167631,
  "nonce": "0xfe66806e9c226e18",
  "difficulty": 1725285911183,
  "gasLimit": {
    "_hex": "0x2fefd8"
  },
  "gasUsed": {
    "_hex": "0x522d"
  },
  "miner": "0x39A1BB80a741bF5EC39FB9BE59408Fa0F418fFBf",
  "extraData": "0x476574682f76312e302e312f77696e646f77732f676f312e342e32",
  "transactions": [
    {
      "hash": "0x581c5bf5c13e3218e9b349039d7a06b301de69d4f9bf5d8053efe0f6d8d26004",
      "blockHash": "0x667ea5086c17d749601b107cfe3b63fb53c19793180bf76c8c00e3a4ecc98cd6",
      "blockNumber": 61151,
      "transactionIndex": 0,
      "confirmations": null,
      "from": "0xc8ebccC5F5689Fa8659d83713341e5aD19349448",
      "gasPrice": {
        "_hex": "0xdfd94d180"
      },
      "gasLimit": {
        "_hex": "0x15f90"
      },
      "to": "0xC7d3E431Be6222543364408a94C12C0D089Be305",
      "value": {
        "_hex": "0x4563918244f40000"
      },
      "nonce": 17,
      "data": "0x",
      "r": "0xf77e527e1832e9964e92a70ec3f5e3ba3e44b48731905f518f733fdda09ff543",
      "s": "0x1815927a87328818451a0f34ba8614202d4431f64e2eeab191df957fcfbe6025",
      "v": 28,
      "creates": null,
      "raw": "0xf86d11850dfd94d18083015f9094c7d3e431be6222543364408a94c12c0d089be305884563918244f40000801ca0f77e527e1832e9964e92a70ec3f5e3ba3e44b48731905f518f733fdda09ff543a01815927a87328818451a0f34ba8614202d4431f64e2eeab191df957fcfbe6025",
      "networkId": 0,
      "chainId": 0
    }
  ]
}