{
  "hash": "0x33874520d0d075d8c6e8f12f2906c9e0bc971d27363062c2e7f1ca99984f59d2",
  "parentHash": "0x794c37a068fc349c5f1fec8b13c5d2751121cd42e7dc5c25d44be4b9831b398f",
  "number": 115606,
  "timestamp": 1440060031,
  "nonce": "0x63ff396ee179d374",
  "difficulty": 4598442798045,
  "gasLimit": {
    "_hex": "0x2fefd8"
  },
  "gasUsed": {
    "_hex": "0xa410"
  },
  "miner": "0xe6A7a1d47ff21B6321162AEA7C6CB457D5476Bca",
  "extraData": "0x476574682f76312e302e312d38326566323666362f6c696e75782f676f312e34",
  "transactions": [
    {
      "hash": "0xbc18686ac8325f7477d275345e3300f4c9402626086bee7b83862847790fd9d5",
      "blockHash": "0x33874520d0d075d8c6e8f12f2906c9e0bc971d27363062c2e7f1ca99984f59d2",
      "blockNumber": 115606,
      "transactionIndex": 0,
      "confirmations": null,
      "from": "0x4A2D52D0898f560E53cdf4585A034517c06d0544",
      "gasPrice": {
        "_hex": "0xba43b7400"
      },
      "gasLimit": {
        "_hex": "0x5208"
      },
      "to": "0xC47Aaa860008be6f65B58c6C6E02a84e666EfE31",
      "value": {
        "_hex": "0x268c08675024dc00"
      },
      "nonce": 5,
      "data": "0x",
      "r": "0x9d34ac29be736a9538bc9d979a48d98dbce1099d8eead9dad1b4622aa5bde61a",
      "s": "0x2fb7116aeaca52b669c66c7f1391d429db56cceb374c22fb3d1156f6b82163dc",
      "v": 28,
      "creates": null,
      "raw": "0xf86c05850ba43b740082520894c47aaa860008be6f65b58c6c6e02a84e666efe3188268c08675024dc00801ca09d34ac29be736a9538bc9d979a48d98dbce1099d8eead9dad1b4622aa5bde61aa02fb7116aeaca52b669c66c7f1391d429db56cceb374c22fb3d1156f6b82163dc",
      "networkId": 0,
      "chainId": 0
    },
    {
      "hash": "0xf47b467e9736ab35ba180bc3a7f203e244f881500badd770f34d94ad2d463c09",
      "blockHash": "0x33874520d0d075d8c6e8f12f2906c9e0bc971d27363062c2e7f1ca99984f59d2",
      "blockNumber": 115606,
      "transactionIndex": 1,
      "confirmations": null,
      "from": "0xEdD03B3afA58aaE8C5732fF58e26099bc5C10659",
      "gasPrice": {
        "_hex": "0xba43b7400"
      },
      "gasLimit": {
        "_hex": "0x5208"
      },
      "to": "0xC47Aaa860008be6f65B58c6C6E02a84e666EfE31",
      "value": {
        "_hex": "0x152440d73f9d7391e0"
      },
      "nonce": 7,
      "data": "0x",
      "r": "0xbdfb650deca2626ffb278d771a3922a360563a55e80eea5bba9e29176697f385",
      "s": "0x0672cca19fac2402eba9526e70a99f2010dad214887309dd9ba241b8ceaafe29",
      "v": 27,
      "creates": null,
      "raw": "0xf86d07850ba43b740082520894c47aaa860008be6f65b58c6c6e02a84e666efe3189152440d73f9d7391e0801ba0bdfb650deca2626ffb278d771a3922a360563a55e80eea5bba9e29176697f385a00672cca19fac2402eba9526e70a99f2010dad214887309dd9ba241b8ceaafe29",
      "networkId": 0,
      "chainId": 0
    }
  ]
}