{
  "hash": "0x28824b5573b96e27d78a6bbbd0b30d725d83232dfb149d7f011db6df2addb5c8",
  "parentHash": "0x66074b636f3229608dadde2f73ae001a69aaf0215ccf04820c8ff089b812ee50",
  "number": 89635,
  "timestamp": 1439626627,
  "nonce": "0x55e52329baf068d1",
  "difficulty": 3317540977233,
  "gasLimit": {
    "_hex": "0x2fefd8"
  },
  "gasUsed": {
    "_hex": "0x5208"
  },
  "miner": "0xe090Ffdced499691fA9379752a59F8A058c1eE4A",
  "extraData": "0x476574682f76312e302e312f6c696e75782f676f312e342e32",
  "transactions": [
    {
      "hash": "0x07ade12993cb9e5289079f7ed97eb44bc6049fa907a616e1e2e3bffbb03e33f0",
      "blockHash": "0x28824b5573b96e27d78a6bbbd0b30d725d83232dfb149d7f011db6df2addb5c8",
      "blockNumber": 89635,
      "transactionIndex": 0,
      "confirmations": null,
      "from": "0x2910543Af39abA0Cd09dBb2D50200b3E800A63D2",
      "gasPrice": {
        "_hex": "0xd32d818e5"
      },
      "gasLimit": {
        "_hex": "0x5208"
      },
      "to": "0x198D56231387bCe73779303B332E48A8b29aAe06",
      "value": {
        "_hex": "0x1bafa9ee16e78000"
      },
      "nonce": 759,
      "data": "0x",
      "r": "0x977898d0cc141dc6a7ef0d5772c29bacbef4f416f9f8ac553f637447c5777a46",
      "s": "0x272e38bfc58eae43d6a533d1141cd78a823a1673411bfe5dae47a54ff414063c",
      "v": 27,
      "creates": null,
      "raw": "0xf86e8202f7850d32d818e582520894198d56231387bce73779303b332e48a8b29aae06881bafa9ee16e78000801ba0977898d0cc141dc6a7ef0d5772c29bacbef4f416f9f8ac553f637447c5777a46a0272e38bfc58eae43d6a533d1141cd78a823a1673411bfe5dae47a54ff414063c",
      "networkId": 0,
      "chainId": 0
    }
  ]
}