{
  "hash": "0xb6c657e367fb40d09e83ef033b04285765b56bec01409d90dbf14543730d599c",
  "parentHash": "0xaa8a91d40de514c8c5cbb08dc31a6bae20713f9d0ba81a9916b2bb013025dcba",
  "number": 49289,
  "timestamp": 1438971266,
  "nonce": "0x821efc7408bf15cc",
  "difficulty": 1476360988158,
  "gasLimit": {
    "_hex": "0x2bcf6"
  },
  "gasUsed": {
    "_hex": "0x546c"
  },
  "miner": "0x3F98e477a361F777DA14611a7e419A75Fd238b6b",
  "extraData": "0x476574682f76312e302e312f6c696e75782f676f312e342e32",
  "transactions": [
    {
      "hash": "0x88a1e1c6c24621cc46080e7193306f8f62d8b51777b73e33662405d4b6bc6327",
      "blockHash": "0xb6c657e367fb40d09e83ef033b04285765b56bec01409d90dbf14543730d599c",
      "blockNumber": 49289,
      "transactionIndex": 0,
      "confirmations": null,
      "from": "0x36d85Dc3683156e63Bf880A9fAb7788CF8143a27",
      "gasPrice": {
        "_hex": "0xdb16c7a45"
      },
      "gasLimit": {
        "_hex": "0x15f90"
      },
      "to": "0x2910543Af39abA0Cd09dBb2D50200b3E800A63D2",
      "value": {
        "_hex": "0x4563918244f40000"
      },
      "nonce": 3,
      "data": "0x454e424b4e34353330",
      "r": "0xfaeaeb14f101ab2d19381c4a3316a8557e78976ad5615380ad6574fb852a9610",
      "s": "0x0ac1b8ab46512a307847a0b4c18f965454b3281d64d1de49f0bffed0502bf386",
      "v": 27,
      "creates": null,
      "raw": "0xf87603850db16c7a4583015f90942910543af39aba0cd09dbb2d50200b3e800a63d2884563918244f4000089454e424b4e343533301ba0faeaeb14f101ab2d19381c4a3316a8557e78976ad5615380ad6574fb852a9610a00ac1b8ab46512a307847a0b4c18f965454b3281d64d1de49f0bffed0502bf386",
      "networkId": 0,
      "chainId": 0
    }
  ]
}