{
  "hash": "0x89c39df83326268f61b9cecc57c78424aeb4ddeec68b498bf68aeb3881b20c86",
  "parentHash": "0x09e24e567f2066417aae8a46a794dc66deeb1811a0ef61360a3010ba7c94a842",
  "number": 112796,
  "timestamp": 1440013415,
  "nonce": "0x8d62ce74817d078b",
  "difficulty": 4428083011598,
  "gasLimit": {
    "_hex": "0x2fefd8"
  },
  "gasUsed": {
    "_hex": "0xf618"
  },
  "miner": "0x88D74a59454F6cF3B51ef6b9136AFb6b9D405A88",
  "extraData": "0x",
  "transactions": [
    {
      "hash": "0x9f4027d8388439288f607431e31917c9a6e0f48eb0a193980414ff19a0161de4",
      "blockHash": "0x89c39df83326268f61b9cecc57c78424aeb4ddeec68b498bf68aeb3881b20c86",
      "blockNumber": 112796,
      "transactionIndex": 0,
      "confirmations": null,
      "from": "0x5BeBc02e4CDF3e92B5a2947CfD1430c4EBBa4039",
      "gasPrice": {
        "_hex": "0xd37957f17"
      },
      "gasLimit": {
        "_hex": "0x5208"
      },
      "to": "0x32Be343B94f860124dC4fEe278FDCBD38C102D88",
      "value": {
        "_hex": "0x42c0120d3719c400"
      },
      "nonce": 6,
      "data": "0x",
      "r": "0xc9de78789f2005cd7c47cb4a412e448dc8aef172354ca2fb32526f6e878a57fd",
      "s": "0x5d602f6272bc78cf109dfa6b7b1f5df5fd4367288d44708633a5476345038593",
      "v": 27,
      "creates": null,
      "raw": "0xf86c06850d37957f178252089432be343b94f860124dc4fee278fdcbd38c102d888842c0120d3719c400801ba0c9de78789f2005cd7c47cb4a412e448dc8aef172354ca2fb32526f6e878a57fda05d602f6272bc78cf109dfa6b7b1f5df5fd4367288d44708633a5476345038593",
      "networkId": 0,
      "chainId": 0
    },
    {
      "hash": "0x67dbc5af50c600f9d886f9d9d85a0d0ce677fc8c9a0d9efb2aeda41a794991e0",
      "blockHash": "0x89c39df83326268f61b9cecc57c78424aeb4ddeec68b498bf68aeb3881b20c86",
      "blockNumber": 112796,
      "transactionIndex": 1,
      "confirmations": null,
      "from": "0x037658E13e294088Cfd16A534b9C1F3B37282eB2",
      "gasPrice": {
        "_hex": "0xd37957f17"
      },
      "gasLimit": {
        "_hex": "0x5208"
      },
      "to": "0x32Be343B94f860124dC4fEe278FDCBD38C102D88",
      "value": {
        "_hex": "0x2599c4ee9fa95800"
      },
      "nonce": 6,
      "data": "0x",
      "r": "0xd1a32767fd77389f3ff25b820c93f280cda4242cec72e6a2701c2cc8e3a63f2e",
      "s": "0x055b3f58d88b2ebcd86cfc32749929d41a48106c92f3326dda061068c81032fa",
      "v": 28,
      "creates": null,
      "raw": "0xf86c06850d37957f178252089432be343b94f860124dc4fee278fdcbd38c102d88882599c4ee9fa95800801ca0d1a32767fd77389f3ff25b820c93f280cda4242cec72e6a2701c2cc8e3a63f2ea0055b3f58d88b2ebcd86cfc32749929d41a48106c92f3326dda061068c81032fa",
      "networkId": 0,
      "chainId": 0
    },
    {
      "hash": "0x8d4440b949ba8d55ab37820ad0a15c164800aba860612b4181d5a8db96d5e59f",
      "blockHash": "0x89c39df83326268f61b9cecc57c78424aeb4ddeec68b498bf68aeb3881b20c86",
      "blockNumber": 112796,
      "transactionIndex": 2,
      "confirmations": null,
      "from": "0xe33977E292cceF99Ea8828733e97562F3690a8ad",
      "gasPrice": {
        "_hex": "0xd37957f17"
      },
      "gasLimit": {
        "_hex": "0x5208"
      },
      "to": "0x32Be343B94f860124dC4fEe278FDCBD38C102D88",
      "value": {
        "_hex": "0x344ca5d91620d800"
      },
      "nonce": 6,
      "data": "0x",
      "r": "0xc64b8e8f6545564ac567438472ec79c17c4b12d00d8412e7ecccd0ba6b0751fa",
      "s": "0x6a1fba23b30b19cec7d82b75360403e15a2b4f706c82e3be4151aafcb71e6a5e",
      "v": 28,
      "creates": null,
      "raw": "0xf86c06850d37957f178252089432be343b94f860124dc4fee278fdcbd38c102d8888344ca5d91620d800801ca0c64b8e8f6545564ac567438472ec79c17c4b12d00d8412e7ecccd0ba6b0751faa06a1fba23b30b19cec7d82b75360403e15a2b4f706c82e3be4151aafcb71e6a5e",
      "networkId": 0,
      "chainId": 0
    }
  ]
}