{
  "hash": "0x7299a85819bdbb04e09c7c9c4b70373778ff534b7eec8828542efcddf73727a5",
  "parentHash": "0xd82c90e771d690921a0d464a406950f621e2154ba796a1c27d73d63bc8a06e79",
  "number": 80319,
  "timestamp": 1439483738,
  "nonce": "0xc5762e342cc30f7b",
  "difficulty": 2378214489028,
  "gasLimit": {
    "_hex": "0x2fefd8"
  },
  "gasUsed": {
    "_hex": "0x25dbe"
  },
  "miner": "0x01d9DA08cc6Fb97c0DE1B6F4C28910A0859Ed1A1",
  "extraData": "0x476574682f76312e302e312f6c696e75782f676f312e342e32",
  "transactions": [
    {
      "hash": "0x73992d76ae73f7f300cd9b3d526a6c52ea209968907c55480488f295172d65e9",
      "blockHash": "0x7299a85819bdbb04e09c7c9c4b70373778ff534b7eec8828542efcddf73727a5",
      "blockNumber": 80319,
      "transactionIndex": 0,
      "confirmations": null,
      "from": "0xb7A7F77C348F92a9F1100C6bD829a8Ac6D7fCf91",
      "gasPrice": {
        "_hex": "0x110c8f7d8de"
      },
      "gasLimit": {
        "_hex": "0xc350"
      },
      "to": "0x2910543Af39abA0Cd09dBb2D50200b3E800A63D2",
      "value": {
        "_hex": "0x56bc75e2d63100000"
      },
      "nonce": 1,
      "data": "0x454e54315859434647",
      "r": "0x8013795d98e911f9c8a1fa87aec0e5a502e5109ca4b8a68d5852d6fbf8bc3555",
      "s": "0xae51616eb8787c94c7c5648f3c7bba2c888be327996a9e2351029d08563fe983",
      "v": 27,
      "creates": null,
      "raw": "0xf87701860110c8f7d8de82c350942910543af39aba0cd09dbb2d50200b3e800a63d289056bc75e2d6310000089454e543158594346471ba08013795d98e911f9c8a1fa87aec0e5a502e5109ca4b8a68d5852d6fbf8bc3555a0ae51616eb8787c94c7c5648f3c7bba2c888be327996a9e2351029d08563fe983",
      "networkId": 0,
      "chainId": 0
    },
    {
      "hash": "0xdeeb10815737bdfa49e84818b4255a157fd491a18862e5d1d4e766bc35b76613",
      "blockHash": "0x7299a85819bdbb04e09c7c9c4b70373778ff534b7eec8828542efcddf73727a5",
      "blockNumber": 80319,
      "transactionIndex": 1,
      "confirmations": null,
      "from": "0x87C5B5874A18B4306DF8a752a6C8cc3E82daFc19",
      "gasPrice": {
        "_hex": "0x10f612b10b9"
      },
      "gasLimit": {
        "_hex": "0x493e0"
      },
      "to": "0xC4c51de1AbF5D60DBd329eC0F999Fd8f021ae9fC",
      "value": {
        "_hex": "0x28c46ec97273a4f7"
      },
      "nonce": 172,
      "data": "0x8d216186000000000000000000000000000000000000000000000000000000000000001ad3d96ceed0cfca4794c2a5a3d3aeefe69da0a2a669e66a5651f30b64831c3db0",
      "r": "0x91fbe85c3073785d9de7327eeeb8f875d420699fd869767128fe3c2b31787286",
      "s": "0x20a3d3b3ecf290adff271d729c758a3e0367e28969c52386bbf82a19b14af61e",
      "v": 27,
      "creates": null,
      "raw": "0xf8b481ac86010f612b10b9830493e094c4c51de1abf5d60dbd329ec0f999fd8f021ae9fc8828c46ec97273a4f7b8448d216186000000000000000000000000000000000000000000000000000000000000001ad3d96ceed0cfca4794c2a5a3d3aeefe69da0a2a669e66a5651f30b64831c3db01ba091fbe85c3073785d9de7327eeeb8f875d420699fd869767128fe3c2b31787286a020a3d3b3ecf290adff271d729c758a3e0367e28969c52386bbf82a19b14af61e",
      "networkId": 0,
      "chainId": 0
    },
    {
      "hash": "0xb2da5e576e22b6bddc3ff151513d2ea990cd9f26a61c0e272d825264b71c68d4",
      "blockHash": "0x7299a85819bdbb04e09c7c9c4b70373778ff534b7eec8828542efcddf73727a5",
      "blockNumber": 80319,
      "transactionIndex": 2,
      "confirmations": null,
      "from": "0x7c56d94ebECcb769524379C450873519a9d805FF",
      "gasPrice": {
        "_hex": "0xba43b7400"
      },
      "gasLimit": {
        "_hex": "0x8f48"
      },
      "to": "0xde0B295669a9FD93d5F28D9Ec85E40f4cb697BAe",
      "value": {
        "_hex": "0x0"
      },
      "nonce": 7,
      "data": "0xf00d4b5d0000000000000000000000007c56d94ebeccb769524379c450873519a9d805ff0000000000000000000000000037a6b811ffeb6e072da21179d11b1406371c63",
      "r": "0x997eb0705d68625d88866443f9045fbb6e8929d96c93f24a9224816d7c3d9938",
      "s": "0x7250a5a91803cf41191156193670b0b8d341aa75f017270730cffdbec6de5a37",
      "v": 27,
      "creates": null,
      "raw": "0xf8a907850ba43b7400828f4894de0b295669a9fd93d5f28d9ec85e40f4cb697bae80b844f00d4b5d0000000000000000000000007c56d94ebeccb769524379c450873519a9d805ff0000000000000000000000000037a6b811ffeb6e072da21179d11b1406371c631ba0997eb0705d68625d88866443f9045fbb6e8929d96c93f24a9224816d7c3d9938a07250a5a91803cf41191156193670b0b8d341aa75f017270730cffdbec6de5a37",
      "networkId": 0,
      "chainId": 0
    }
  ]
}