{
  "hash": "0x794bcd64d179b1ba1ce622d9147869746ae899c673dbf4f1c74c6a5ca2a5e69b",
  "parentHash": "0x5cb7a0f81586e5b0a8beb05bfd0e6e73dcaa4cd91c9cb0448fcc904a3b544268",
  "number": 79581,
  "timestamp": 1439471988,
  "nonce": "0x09cb898cd5fe8866",
  "difficulty": 2341549680198,
  "gasLimit": {
    "_hex": "0x2fefd8"
  },
  "gasUsed": {
    "_hex": "0x14820"
  },
  "miner": "0xeB1325C8D9d3ea8D74aC11F4B00F1B2367686319",
  "extraData": "0x476574682f76312e302e312f77696e646f77732f676f312e342e32",
  "transactions": [
    {
      "hash": "0x49fc1087cad4801d1f8e230548e55d450a308b07cfdd595cd18385d3ec8bdd7e",
      "blockHash": "0x794bcd64d179b1ba1ce622d9147869746ae899c673dbf4f1c74c6a5ca2a5e69b",
      "blockNumber": 79581,
      "transactionIndex": 0,
      "confirmations": null,
      "from": "0x32Be343B94f860124dC4fEe278FDCBD38C102D88",
      "gasPrice": {
        "_hex": "0xe1ae0732a"
      },
      "gasLimit": {
        "_hex": "0x5208"
      },
      "to": "0x742259a297d480753626dA79958287165fdD3f64",
      "value": {
        "_hex": "0x1b9de674df070000"
      },
      "nonce": 446,
      "data": "0x",
      "r": "0x7011c0e0f8139aaa2079e5b2591b26c8607e529207981731cfc5dd4d5b3b89df",
      "s": "0x17a66693baa91d583a6b24f6fb13ab1e9ace284ec2419fc3d87c0f225e011a50",
      "v": 27,
      "creates": null,
      "raw": "0xf86e8201be850e1ae0732a82520894742259a297d480753626da79958287165fdd3f64881b9de674df070000801ba07011c0e0f8139aaa2079e5b2591b26c8607e529207981731cfc5dd4d5b3b89dfa017a66693baa91d583a6b24f6fb13ab1e9ace284ec2419fc3d87c0f225e011a50",
      "networkId": 0,
      "chainId": 0
    },
    {
      "hash": "0xd891dfdc2940810dfcd41fefe2584a6397340f7dd3a39747bf5a294191986b87",
      "blockHash": "0x794bcd64d179b1ba1ce622d9147869746ae899c673dbf4f1c74c6a5ca2a5e69b",
      "blockNumber": 79581,
      "transactionIndex": 1,
      "confirmations": null,
      "from": "0x32Be343B94f860124dC4fEe278FDCBD38C102D88",
      "gasPrice": {
        "_hex": "0xe1ae0732a"
      },
      "gasLimit": {
        "_hex": "0x5208"
      },
      "to": "0x3730a07b6d2d7413d0d76B91935F60bB0b1d8E2F",
      "value": {
        "_hex": "0x13fbe85edc90000"
      },
      "nonce": 447,
      "data": "0x",
      "r": "0x189707d0b8e7f6edd06edcac632ecdc40a3afc48092820aa13979b86d8cde794",
      "s": "0x1a95d81456343e2959820ed5c8cbe60ca5d3cec6ac264c1267159a487cbba8de",
      "v": 28,
      "creates": null,
      "raw": "0xf86e8201bf850e1ae0732a825208943730a07b6d2d7413d0d76b91935f60bb0b1d8e2f88013fbe85edc90000801ca0189707d0b8e7f6edd06edcac632ecdc40a3afc48092820aa13979b86d8cde794a01a95d81456343e2959820ed5c8cbe60ca5d3cec6ac264c1267159a487cbba8de",
      "networkId": 0,
      "chainId": 0
    },
    {
      "hash": "0x07b1a4e3887174bfc97d48639dc748a4ffa62a7df116e576a5153f631f9fca60",
      "blockHash": "0x794bcd64d179b1ba1ce622d9147869746ae899c673dbf4f1c74c6a5ca2a5e69b",
      "blockNumber": 79581,
      "transactionIndex": 2,
      "confirmations": null,
      "from": "0x32Be343B94f860124dC4fEe278FDCBD38C102D88",
      "gasPrice": {
        "_hex": "0xe1ae0732a"
      },
      "gasLimit": {
        "_hex": "0x5208"
      },
      "to": "0x88a0A05437262a1b65f41A978Cb16CB1f0BFCfE0",
      "value": {
        "_hex": "0x1156abf16a40f0000"
      },
      "nonce": 448,
      "data": "0x",
      "r": "0x213db2cb090920215e46362ee45b7b7559bad7ddab867a9d82e6b9c6df843003",
      "s": "0x4a03ce3e0186fae57f3beecd098beb752c969f52d7b263fd7f5eec30fdacdb1a",
      "v": 27,
      "creates": null,
      "raw": "0xf86f8201c0850e1ae0732a8252089488a0a05437262a1b65f41a978cb16cb1f0bfcfe08901156abf16a40f0000801ba0213db2cb090920215e46362ee45b7b7559bad7ddab867a9d82e6b9c6df843003a04a03ce3e0186fae57f3beecd098beb752c969f52d7b263fd7f5eec30fdacdb1a",
      "networkId": 0,
      "chainId": 0
    },
    {
      "hash": "0xd12a007a91f42a9efac6115897931e11d6c83844ccc3cf1032cabb323dcb093f",
      "blockHash": "0x794bcd64d179b1ba1ce622d9147869746ae899c673dbf4f1c74c6a5ca2a5e69b",
      "blockNumber": 79581,
      "transactionIndex": 3,
      "confirmations": null,
      "from": "0x32Be343B94f860124dC4fEe278FDCBD38C102D88",
      "gasPrice": {
        "_hex": "0xe1ae0732a"
      },
      "gasLimit": {
        "_hex": "0x5208"
      },
      "to": "0x98238986aFB35e580ca6002cDDDC6480857BAE33",
      "value": {
        "_hex": "0xdbd2fc137a30000"
      },
      "nonce": 449,
      "data": "0x",
      "r": "0x36ac638a4ccc574515fbe0e59becdd3c70525dcf5cebe9b0fed098c63a0ee63a",
      "s": "0x7d09ca990b5a4921c93f8fedcfb8ad0eb7ac81499f3c7a5c96115876e3ce1083",
      "v": 27,
      "creates": null,
      "raw": "0xf86e8201c1850e1ae0732a8252089498238986afb35e580ca6002cdddc6480857bae33880dbd2fc137a30000801ba036ac638a4ccc574515fbe0e59becdd3c70525dcf5cebe9b0fed098c63a0ee63aa07d09ca990b5a4921c93f8fedcfb8ad0eb7ac81499f3c7a5c96115876e3ce1083",
      "networkId": 0,
      "chainId": 0
    }
  ]
}