{
  "hash": "0x127b5583429e7d880a902d3abc6bf23b7d7b2a650a933a1e4eb3a4dae73c91a7",
  "parentHash": "0xfa7954ebe7ff20a42b402bf1feab0fb143d5033ad1284fff69686fa895a521bc",
  "number": 53334,
  "timestamp": 1439036040,
  "nonce": "0x4ba7728e1cfbbbe6",
  "difficulty": 1585461315836,
  "gasLimit": {
    "_hex": "0x2505b2"
  },
  "gasUsed": {
    "_hex": "0x5208"
  },
  "miner": "0x785ffdDd5cE55c6DF963f345e68d3F2024E5Acb1",
  "extraData": "0x476574682f4d69676e6f7474652f76312e302e312f6c696e75782f676f312e34",
  "transactions": [
    {
      "hash": "0x0d0858dfd3227464b8929eba7d5150cfbf25b8fd59f05b9bf0ea1f038c078b9f",
      "blockHash": "0x127b5583429e7d880a902d3abc6bf23b7d7b2a650a933a1e4eb3a4dae73c91a7",
      "blockNumber": 53334,
      "transactionIndex": 0,
      "confirmations": null,
      "from": "0xd1B181d3740a85e0D09Df068513Bb081A574EeCf",
      "gasPrice": {
        "_hex": "0xdc307255a"
      },
      "gasLimit": {
        "_hex": "0x5208"
      },
      "to": "0x32Be343B94f860124dC4fEe278FDCBD38C102D88",
      "value": {
        "_hex": "0x93734f50a91780000"
      },
      "nonce": 1,
      "data": "0x",
      "r": "0xd976e35c8651d1e942aa3045cd14854ebd056305c922fdf5b810fce951018267",
      "s": "0x7f7c3fa8d696f17712f71d22b54d95ca9117bf320ae2cfb431b48b788abdff74",
      "v": 27,
      "creates": null,
      "raw": "0xf86d01850dc307255a8252089432be343b94f860124dc4fee278fdcbd38c102d8889093734f50a91780000801ba0d976e35c8651d1e942aa3045cd14854ebd056305c922fdf5b810fce951018267a07f7c3fa8d696f17712f71d22b54d95ca9117bf320ae2cfb431b48b788abdff74",
      "networkId": 0,
      "chainId": 0
    }
  ]
}