{
  "hash": "0x0d91fe3b6bd1fea02d6ac1c90f29a93345423bd8168c3282911ae20540191cdb",
  "parentHash": "0xa3ccb05dfa3f13743469a1d2275fc7b95acdf5291018d349946c358c1da42fa7",
  "number": 112454,
  "timestamp": 1440007730,
  "nonce": "0xa56c57a718e7a562",
  "difficulty": 4415309102491,
  "gasLimit": {
    "_hex": "0x2fefd8"
  },
  "gasUsed": {
    "_hex": "0xa414"
  },
  "miner": "0x007f7f58D3eb5b7510A301eCC749FC1fCDDBE14D",
  "extraData": "0x476574682f76312e302e312f77696e646f77732f676f312e342e32",
  "transactions": [
    {
      "hash": "0x2946e05e0d5ae97acadea8a301fd5de3b2cb6da6a15b07c0700826090c0682e2",
      "blockHash": "0x0d91fe3b6bd1fea02d6ac1c90f29a93345423bd8168c3282911ae20540191cdb",
      "blockNumber": 112454,
      "transactionIndex": 0,
      "confirmations": null,
      "from": "0x120A270bbC009644e35F0bB6ab13f95b8199c4ad",
      "gasPrice": {
        "_hex": "0xdf3e8af36"
      },
      "gasLimit": {
        "_hex": "0x3d090"
      },
      "to": "0x3F3F51FA40eC00Cd81D0898bF65F7F07b4cd146A",
      "value": {
        "_hex": "0x14768f9ec00b800"
      },
      "nonce": 893,
      "data": "0x",
      "r": "0x6275e9ad9cac08a06bf91867940c816343522ec7ba62b6fe01e21a2414eca9c1",
      "s": "0x579ac547643eb621c9a9fc14211e1485b8ccd0facde906dfe739b9734d7ea114",
      "v": 28,
      "creates": null,
      "raw": "0xf86f82037d850df3e8af368303d090943f3f51fa40ec00cd81d0898bf65f7f07b4cd146a88014768f9ec00b800801ca06275e9ad9cac08a06bf91867940c816343522ec7ba62b6fe01e21a2414eca9c1a0579ac547643eb621c9a9fc14211e1485b8ccd0facde906dfe739b9734d7ea114",
      "networkId": 0,
      "chainId": 0
    },
    {
      "hash": "0xe5966313489167ff315becb930d3a247472e90a77b0f847e7342c25161e63354",
      "blockHash": "0x0d91fe3b6bd1fea02d6ac1c90f29a93345423bd8168c3282911ae20540191cdb",
      "blockNumber": 112454,
      "transactionIndex": 1,
      "confirmations": null,
      "from": "0xDf660a91Dab9F730f6190D50c8390561500756Ca",
      "gasPrice": {
        "_hex": "0xd45dd8f48"
      },
      "gasLimit": {
        "_hex": "0x7530"
      },
      "to": "0x52A9Ed3CdA352b0DFEA2E63B7585d79a5210546E",
      "value": {
        "_hex": "0xb1a2bc2ec50000"
      },
      "nonce": 4,
      "data": "0x00",
      "r": "0x792c30a08ff9daa00ee6680d505d8cff712c31335f89f05c825159a58272a380",
      "s": "0x17efd572476c06e9717f3c694377fa231ced6239db5590ad0a29451c410933d0",
      "v": 28,
      "creates": null,
      "raw": "0xf86b04850d45dd8f488275309452a9ed3cda352b0dfea2e63b7585d79a5210546e87b1a2bc2ec50000001ca0792c30a08ff9daa00ee6680d505d8cff712c31335f89f05c825159a58272a380a017efd572476c06e9717f3c694377fa231ced6239db5590ad0a29451c410933d0",
      "networkId": 0,
      "chainId": 0
    }
  ]
}