{
  "hash": "0xd99316421c26bfbf5ac590a0224a79b6ffe7ab3298afb61c68652efac7f3ad87",
  "parentHash": "0xac3a41a75f361bff671b8309cb8c4b049458033bbc888bd17eacb898bc7d0d06",
  "number": 104271,
  "timestamp": 1439867109,
  "nonce": "0x8385fec2e2c5b557",
  "difficulty": 4269024563664,
  "gasLimit": {
    "_hex": "0x2fefd8"
  },
  "gasUsed": {
    "_hex": "0x5208"
  },
  "miner": "0xe6A7a1d47ff21B6321162AEA7C6CB457D5476Bca",
  "extraData": "0x476574682f76312e302e312d38326566323666362f6c696e75782f676f312e34",
  "transactions": [
    {
      "hash": "0xc8e6b96e838972dbb382b6c8c8f85a40cfbc669e072f13b45f4defdcf1295477",
      "blockHash": "0xd99316421c26bfbf5ac590a0224a79b6ffe7ab3298afb61c68652efac7f3ad87",
      "blockNumber": 104271,
      "transactionIndex": 0,
      "confirmations": null,
      "from": "0xC47Aaa860008be6f65B58c6C6E02a84e666EfE31",
      "gasPrice": {
        "_hex": "0xd8ff0044e"
      },
      "gasLimit": {
        "_hex": "0x15f90"
      },
      "to": "0x5adA3743144f1235d8cef97daAD6c123F20E7330",
      "value": {
        "_hex": "0x23551c4b139c02abc"
      },
      "nonce": 80,
      "data": "0x",
      "r": "0xced7fb2b5669da8b57498165098f115508e6a58a5ab9b1c44d7ce7ea2883ea27",
      "s": "0x126a90fb5cd2c01ae8b2ad6887715250979135a5b5891601d06fa282b23edb6b",
      "v": 27,
      "creates": null,
      "raw": "0xf86e50850d8ff0044e83015f90945ada3743144f1235d8cef97daad6c123f20e733089023551c4b139c02abc801ba0ced7fb2b5669da8b57498165098f115508e6a58a5ab9b1c44d7ce7ea2883ea27a0126a90fb5cd2c01ae8b2ad6887715250979135a5b5891601d06fa282b23edb6b",
      "networkId": 0,
      "chainId": 0
    }
  ]
}