{
  "hash": "0x36c66bc4289c1f7805b4c6c05d6cb4fcb359c2312351e5fcc2f4903cbd02962d",
  "parentHash": "0xfefea9d3ff8acc5a940724440ccf28f00884d6f211bef819eeaf594a1cb4c765",
  "number": 74152,
  "timestamp": 1439381262,
  "nonce": "0xd1c3823cbbd5727e",
  "difficulty": 2232496143726,
  "gasLimit": {
    "_hex": "0x2fefd8"
  },
  "gasUsed": {
    "_hex": "0x5208"
  },
  "miner": "0xf8E0CA3Ed80bd541b94BEdCf259e8CF2141A9523",
  "extraData": "0x476574682f76312e302e312f77696e646f77732f676f312e342e32",
  "transactions": [
    {
      "hash": "0xd579bf37d6b6c1d4910ca6bf1d0a3b3219a7f41248ef7aecd82fb8c33ebb4fdf",
      "blockHash": "0x36c66bc4289c1f7805b4c6c05d6cb4fcb359c2312351e5fcc2f4903cbd02962d",
      "blockNumber": 74152,
      "transactionIndex": 0,
      "confirmations": null,
      "from": "0x6c62451A24cE7F7E2D068e72E72E0bA9d7a125Ad",
      "gasPrice": {
        "_hex": "0xd33a485d0"
      },
      "gasLimit": {
        "_hex": "0x7530"
      },
      "to": "0x6De181Fc4C140FA31F196e5393516c49EEeBdAd3",
      "value": {
        "_hex": "0x1158e460913d00000"
      },
      "nonce": 1,
      "data": "0x",
      "r": "0x596fb3e6eb95a1a10e92852b565a5faaef04ffc93b11bdbea59df3311eb593c7",
      "s": "0x3472817aa90b4f8a1428ec16f8400fa05642d89037c12bb6ab349683428060d9",
      "v": 27,
      "creates": null,
      "raw": "0xf86d01850d33a485d0827530946de181fc4c140fa31f196e5393516c49eeebdad38901158e460913d00000801ba0596fb3e6eb95a1a10e92852b565a5faaef04ffc93b11bdbea59df3311eb593c7a03472817aa90b4f8a1428ec16f8400fa05642d89037c12bb6ab349683428060d9",
      "networkId": 0,
      "chainId": 0
    }
  ]
}