{
  "hash": "0x84ef14017f50c8f80a09321d5fc4f4196242100d05e155a38ac041cec75b107d",
  "parentHash": "0xcdff2b5640c29e093cd31f5bf82b938e581b0d9d876ee6526f734bdb47251cf4",
  "number": 68223,
  "timestamp": 1439284418,
  "nonce": "0x6db6b22b1bc0c101",
  "difficulty": 1986057082873,
  "gasLimit": {
    "_hex": "0x2fefd8"
  },
  "gasUsed": {
    "_hex": "0x17cd8"
  },
  "miner": "0x9746c7e1ef2bd21FF3997fa467593a89cb852BD0",
  "extraData": "0x476574682f76312e302e312f77696e646f77732f676f312e342e32",
  "transactions": [
    {
      "hash": "0x028886241922494c06c96caaac276644b998571910a3cf034ed8dc103f2f7234",
      "blockHash": "0x84ef14017f50c8f80a09321d5fc4f4196242100d05e155a38ac041cec75b107d",
      "blockNumber": 68223,
      "transactionIndex": 0,
      "confirmations": null,
      "from": "0xBA8b58445fcd9CB60Cb3A6b50147A19CCFE4726C",
      "gasPrice": {
        "_hex": "0xba43b7400"
      },
      "gasLimit": {
        "_hex": "0x15f90"
      },
      "to": "0x793AE8C1b1a160BFc07BFB0d04F85eab1A71F4f2",
      "value": {
        "_hex": "0x0"
      },
      "nonce": 0,
      "data": "0x3ba15036",
      "r": "0x4d270b021bb710d0d0bf7f5057d5bbc616529bf07f45830da1cc677c80fefe98",
      "s": "0x4be15792585f075adf7665b6c82dcb324cb2d92a71eac717faf48c5e0a59045f",
      "v": 28,
      "creates": null,
      "raw": "0xf86980850ba43b740083015f9094793ae8c1b1a160bfc07bfb0d04f85eab1a71f4f280843ba150361ca04d270b021bb710d0d0bf7f5057d5bbc616529bf07f45830da1cc677c80fefe98a04be15792585f075adf7665b6c82dcb324cb2d92a71eac717faf48c5e0a59045f",
      "networkId": 0,
      "chainId": 0
    },
    {
      "hash": "0xa203c2bd039d6ed4c649f0b9a45b4c277deec46c54cfd6f535d744c6a0dda311",
      "blockHash": "0x84ef14017f50c8f80a09321d5fc4f4196242100d05e155a38ac041cec75b107d",
      "blockNumber": 68223,
      "transactionIndex": 1,
      "confirmations": null,
      "from": "0xC09BA63d811979D6921cedb50294415f5358B92A",
      "gasPrice": {
        "_hex": "0xba43b7400"
      },
      "gasLimit": {
        "_hex": "0x15f90"
      },
      "to": "0x793AE8C1b1a160BFc07BFB0d04F85eab1A71F4f2",
      "value": {
        "_hex": "0x0"
      },
      "nonce": 0,
      "data": "0x3ba15036",
      "r": "0xfad3e6524c6a5e874b8c251a85417179a0955b410f547207cc33cce35463596b",
      "s": "0x37d5fe4372f6ed11318e36f5e7fb995f713b5e0583df8100aa8f4856fcf77d95",
      "v": 27,
      "creates": null,
      "raw": "0xf86980850ba43b740083015f9094793ae8c1b1a160bfc07bfb0d04f85eab1a71f4f280843ba150361ba0fad3e6524c6a5e874b8c251a85417179a0955b410f547207cc33cce35463596ba037d5fe4372f6ed11318e36f5e7fb995f713b5e0583df8100aa8f4856fcf77d95",
      "networkId": 0,
      "chainId": 0
    }
  ]
}