{
  "hash": "0x500cea98bebf31b89b6b7d4ee078aab43b2e99dfd414444822f5ea415a03ad02",
  "parentHash": "0xb757c557dacf05cdb5943f4c50dd98daef54dffd4ec61fe5d89600c840a84406",
  "number": 49910,
  "timestamp": 1438981109,
  "nonce": "0x890692543eb19721",
  "difficulty": 1494382789006,
  "gasLimit": {
    "_hex": "0x457fc"
  },
  "gasUsed": {
    "_hex": "0x5a0c"
  },
  "miner": "0xC49418429e58989172a4ACE0bab0cB8D3F00F97f",
  "extraData": "0x476574682f76312e302e312f6c696e75782f676f312e342e32",
  "transactions": [
    {
      "hash": "0x08aa26a5dab2fd48f1fd4d2552fcc281c3fbf3032f34032ffb81d682d4842eca",
      "blockHash": "0x500cea98bebf31b89b6b7d4ee078aab43b2e99dfd414444822f5ea415a03ad02",
      "blockNumber": 49910,
      "transactionIndex": 0,
      "confirmations": null,
      "from": "0x3D0768da09CE77d25e2d998E6a7b6eD4b9116c2D",
      "gasPrice": {
        "_hex": "0xd4f67521a"
      },
      "gasLimit": {
        "_hex": "0x15f90"
      },
      "to": "0xD958b51bC95338D152D55BEEd17a156e8aeC4c9f",
      "value": {
        "_hex": "0x0"
      },
      "nonce": 17,
      "data": "0xe3d670d70000000000000000000000003d0768da09ce77d25e2d998e6a7b6ed4b9116c2d",
      "r": "0x1fc0687eba798ddcab05dd015983a291c2d7e9b04c4d052ae7475ad665eafe1b",
      "s": "0x1c4265ac4f3a0a5ff87f41b7837455b3b42b37d2bb6b1dc646f3588bd9047d50",
      "v": 28,
      "creates": null,
      "raw": "0xf88911850d4f67521a83015f9094d958b51bc95338d152d55beed17a156e8aec4c9f80a4e3d670d70000000000000000000000003d0768da09ce77d25e2d998e6a7b6ed4b9116c2d1ca01fc0687eba798ddcab05dd015983a291c2d7e9b04c4d052ae7475ad665eafe1ba01c4265ac4f3a0a5ff87f41b7837455b3b42b37d2bb6b1dc646f3588bd9047d50",
      "networkId": 0,
      "chainId": 0
    }
  ]
}