{
  "hash": "0x150282044e5351c0932b2a127310e289231b527a9285cfe82a8db4041396375d",
  "parentHash": "0x0c5a2a6a949f1f3e6cfd8d02f05bd6b019acb8c7e9787949551f2df109046138",
  "number": 107554,
  "timestamp": 1439924550,
  "nonce": "0xb5b1bcd693ca1dbf",
  "difficulty": 4400665232827,
  "gasLimit": {
    "_hex": "0x2fefd8"
  },
  "gasUsed": {
    "_hex": "0x5208"
  },
  "miner": "0x9746c7e1ef2bd21FF3997fa467593a89cb852BD0",
  "extraData": "0x476574682f76312e302e312f77696e646f77732f676f312e342e32",
  "transactions": [
    {
      "hash": "0x60dde1fca47f6d7cfadbab96bb31676d4f481c41a09f68293a041c1782489061",
      "blockHash": "0x150282044e5351c0932b2a127310e289231b527a9285cfe82a8db4041396375d",
      "blockNumber": 107554,
      "transactionIndex": 0,
      "confirmations": null,
      "from": "0xe3002160DEbB2936e6ca494ed36F28056ed7aEfd",
      "gasPrice": {
        "_hex": "0xe0753c0a3"
      },
      "gasLimit": {
        "_hex": "0x55f0"
      },
      "to": "0xF161498A7f225A91C338015ca11833B3399393A8",
      "value": {
        "_hex": "0x2386f26fc10000"
      },
      "nonce": 6,
      "data": "0x",
      "r": "0x716a0999557d62e597b73aae81c0c1c5c0c7049f2b71ef9ba0901e89d675d1b4",
      "s": "0x779b0a56a6cf876c456394d31d8aa59b2efa20c4613abbe05ae8bcb9570ea295",
      "v": 28,
      "creates": null,
      "raw": "0xf86b06850e0753c0a38255f094f161498a7f225a91c338015ca11833b3399393a8872386f26fc10000801ca0716a0999557d62e597b73aae81c0c1c5c0c7049f2b71ef9ba0901e89d675d1b4a0779b0a56a6cf876c456394d31d8aa59b2efa20c4613abbe05ae8bcb9570ea295",
      "networkId": 0,
      "chainId": 0
    }
  ]
}