{
  "hash": "0xad334183aff9dab706ec0f99e3403be92bbec0acace918e997943b6acd013c18",
  "parentHash": "0x02215f10908649b0f307abd3f06d251092bca765b4398a47b9eb61b57f5e026e",
  "number": 49009,
  "timestamp": 1438966351,
  "nonce": "0x94983c04c7b8fecf",
  "difficulty": 1486537492057,
  "gasLimit": {
    "_hex": "0x23455"
  },
  "gasUsed": {
    "_hex": "0x5208"
  },
  "miner": "0xf927a40C8B7F6E07c5af7FA2155B4864a4112B13",
  "extraData": "0x476574682f76312e302e312f6c696e75782f676f312e342e32",
  "transactions": [
    {
      "hash": "0x6bbd56f924861e6c0501de012d7165f0495fca7a27ef3199ae7cfb426d6548a5",
      "blockHash": "0xad334183aff9dab706ec0f99e3403be92bbec0acace918e997943b6acd013c18",
      "blockNumber": 49009,
      "transactionIndex": 0,
      "confirmations": null,
      "from": "0x96EA6Ac89A2bac95347B51DBa63D8bd5ebDedce1",
      "gasPrice": {
        "_hex": "0xd3ac9317f"
      },
      "gasLimit": {
        "_hex": "0x15f90"
      },
      "to": "0x95E9294F71F732A74772b9e587911B0cf322B953",
      "value": {
        "_hex": "0x8ac7230489e80000"
      },
      "nonce": 2,
      "data": "0x",
      "r": "0xf345bdd013c7b40788b47c9d219cc3c9d27a61d677ad1420f8448f039f6e53d1",
      "s": "0x77a18d4f9148a7d0a887b2e42f6f221883902587b9cd4f590ccc7133418897ca",
      "v": 27,
      "creates": null,
      "raw": "0xf86d02850d3ac9317f83015f909495e9294f71f732a74772b9e587911b0cf322b953888ac7230489e80000801ba0f345bdd013c7b40788b47c9d219cc3c9d27a61d677ad1420f8448f039f6e53d1a077a18d4f9148a7d0a887b2e42f6f221883902587b9cd4f590ccc7133418897ca",
      "networkId": 0,
      "chainId": 0
    }
  ]
}