{
  "hash": "0x2dc5588b1e042441217d05693a762645581471c181af67a5f2e5b52cda406710",
  "parentHash": "0xae2e68ad3e08dbc88bd99dd6fe2df9552dd6479df53f54cd1ad9706d7f4b20ba",
  "number": 121685,
  "timestamp": 1440180970,
  "nonce": "0x06aca3d200745ecb",
  "difficulty": 4477720689814,
  "gasLimit": {
    "_hex": "0x2fefd8"
  },
  "gasUsed": {
    "_hex": "0x5208"
  },
  "miner": "0xe6A7a1d47ff21B6321162AEA7C6CB457D5476Bca",
  "extraData": "0xd783010002844765746887676f312e342e32856c696e7578",
  "transactions": [
    {
      "hash": "0xf10935af179fe77eaf4c8eeb4d1f725a695da00f30d77c5627ff7a917f26d1dd",
      "blockHash": "0x2dc5588b1e042441217d05693a762645581471c181af67a5f2e5b52cda406710",
      "blockNumber": 121685,
      "transactionIndex": 0,
      "confirmations": null,
      "from": "0xFFf1471A813EaF20Ade11C3d58E3a64157216587",
      "gasPrice": {
        "_hex": "0xe0c303da1"
      },
      "gasLimit": {
        "_hex": "0x15f90"
      },
      "to": "0x9b0a028EAfDeCdE3AFc0fD00B7937098388b7C8a",
      "value": {
        "_hex": "0x135741b4ce6d5c0e8"
      },
      "nonce": 2,
      "data": "0x",
      "r": "0x93611c834ff62dc8b4ad03d0bde6cd4e3287dc4fc41fe31a217d81612f73e687",
      "s": "0x5a7726835d62b25651306d9b68be3966a48c5277eea936f47dbc3837f327bd7d",
      "v": 28,
      "creates": null,
      "raw": "0xf86e02850e0c303da183015f90949b0a028eafdecde3afc0fd00b7937098388b7c8a890135741b4ce6d5c0e8801ca093611c834ff62dc8b4ad03d0bde6cd4e3287dc4fc41fe31a217d81612f73e687a05a7726835d62b25651306d9b68be3966a48c5277eea936f47dbc3837f327bd7d",
      "networkId": 0,
      "chainId": 0
    }
  ]
}