{
  "hash": "0x5a2931aed36f1dd460518d8c59add0692173bb74a23feaf0d71cc3a8a18904cf",
  "parentHash": "0x5c82ea8675dd906a72af8e4a90d43076e813089b3332d4c6aaa3e23cd4ec1215",
  "number": 82725,
  "timestamp": 1439524212,
  "nonce": "0x27428413d24b9964",
  "difficulty": 2372893386463,
  "gasLimit": {
    "_hex": "0x2fefd8"
  },
  "gasUsed": {
    "_hex": "0x546c"
  },
  "miner": "0xee5379D0c1ca47327368027455074C26D9952628",
  "extraData": "0x476574682f76312e302e312d38326566323666362f6c696e75782f676f312e34",
  "transactions": [
    {
      "hash": "0xdd58acb737b7a7e47b6993eb871d21a0d1980941e8b0a7c2c51c21d5e87402a7",
      "blockHash": "0x5a2931aed36f1dd460518d8c59add0692173bb74a23feaf0d71cc3a8a18904cf",
      "blockNumber": 82725,
      "transactionIndex": 0,
      "confirmations": null,
      "from": "0x8dc1D5111d09AF25FDfcAc455c7cEC283E6D6775",
      "gasPrice": {
        "_hex": "0x110c8f7d8de"
      },
      "gasLimit": {
        "_hex": "0xc350"
      },
      "to": "0x2910543Af39abA0Cd09dBb2D50200b3E800A63D2",
      "value": {
        "_hex": "0x6c5c4f5f5fb8520000"
      },
      "nonce": 1,
      "data": "0x454e31324658434838",
      "r": "0xad882450e514a7aaf3bdac1287a07ca66cb3892eb9ec2df670c16dd9ac9bb61f",
      "s": "0xd2a5947b3b8a0916386c8ce6488418828d8b5fd9ec66e44f0ab2ee3bf646bf1f",
      "v": 27,
      "creates": null,
      "raw": "0xf87701860110c8f7d8de82c350942910543af39aba0cd09dbb2d50200b3e800a63d2896c5c4f5f5fb852000089454e313246584348381ba0ad882450e514a7aaf3bdac1287a07ca66cb3892eb9ec2df670c16dd9ac9bb61fa0d2a5947b3b8a0916386c8ce6488418828d8b5fd9ec66e44f0ab2ee3bf646bf1f",
      "networkId": 0,
      "chainId": 0
    }
  ]
}