{
  "hash": "0x1a6e510f1cc1bc4b44e3558f4fc71e779891f460667270a782117fb077b793a7",
  "parentHash": "0x4fca757721e1f3543e1b60f71cdf3c0dd0f12dbfe4524400c4ac379515f82a45",
  "number": 115142,
  "timestamp": 1440052274,
  "nonce": "0xa34849b8ad228c45",
  "difficulty": 4531824412469,
  "gasLimit": {
    "_hex": "0x2fefd8"
  },
  "gasUsed": {
    "_hex": "0x5208"
  },
  "miner": "0x7366ADF97960d404c38D975e1A8786bEb14B6507",
  "extraData": "0x476574682f76312e302e312f77696e646f77732f676f312e342e32",
  "transactions": [
    {
      "hash": "0x8884b8748790e32f9e117876e01c2cb366fef49c8bc1673897d07a86c71e924e",
      "blockHash": "0x1a6e510f1cc1bc4b44e3558f4fc71e779891f460667270a782117fb077b793a7",
      "blockNumber": 115142,
      "transactionIndex": 0,
      "confirmations": null,
      "from": "0x1A99941B3E60c242bb3941e5BB5e1049145CDf9B",
      "gasPrice": {
        "_hex": "0xdc3e0e282"
      },
      "gasLimit": {
        "_hex": "0x15f90"
      },
      "to": "0x0a856CdC3EaFBAD120c51220d0F71d4Aa2Dee7AE",
      "value": {
        "_hex": "0x2d4249989dbe20000"
      },
      "nonce": 0,
      "data": "0x",
      "r": "0xc845397b5b41996e3459d90606f042cbae294779d22571124c4fc0ee156d9f06",
      "s": "0x103830e12b5e6b266fc0d13df307377dc7d8c2db802269dd74194d71350820e9",
      "v": 27,
      "creates": null,
      "raw": "0xf86e80850dc3e0e28283015f90940a856cdc3eafbad120c51220d0f71d4aa2dee7ae8902d4249989dbe20000801ba0c845397b5b41996e3459d90606f042cbae294779d22571124c4fc0ee156d9f06a0103830e12b5e6b266fc0d13df307377dc7d8c2db802269dd74194d71350820e9",
      "networkId": 0,
      "chainId": 0
    }
  ]
}