{
  "hash": "0xf336bed13669bb11e2dce0c6722fad59f036e4725fa4f2000475a6e34750cd8d",
  "parentHash": "0x0da56e7446161a79586d9336cc128752f2b102d5bfa4d6b56533edd682bc3156",
  "number": 70964,
  "timestamp": 1439328134,
  "nonce": "0x9266370f2eadd858",
  "difficulty": 2166746872891,
  "gasLimit": {
    "_hex": "0x2fefd8"
  },
  "gasUsed": {
    "_hex": "0xae73"
  },
  "miner": "0x123843545FB525C8E134c9A5F15ADA6865cc3848",
  "extraData": "0x476574682f76312e302e312f77696e646f77732f676f312e342e32",
  "transactions": [
    {
      "hash": "0x65569d8c7df58ae8500e938f1c610baed5cc3b09d44ef9fd68a82a6d7b07f795",
      "blockHash": "0xf336bed13669bb11e2dce0c6722fad59f036e4725fa4f2000475a6e34750cd8d",
      "blockNumber": 70964,
      "transactionIndex": 0,
      "confirmations": null,
      "from": "0x17580B766f7453525ca4C6A88b01b50570EA088C",
      "gasPrice": {
        "_hex": "0xcfcc43fa3"
      },
      "gasLimit": {
        "_hex": "0x61a80"
      },
      "to": "0x5Fe5B7546D1628f7348B023A0393de1FC825A4fD",
      "value": {
        "_hex": "0x3782dace9d900000"
      },
      "nonce": 65,
      "data": "0xb595b8b50000000000000000000000000000000000000000000000000000000000000000",
      "r": "0x3c874c8e925a27be0fe62d24e933f79c0f9e82db47dcefb8bdb484c62c4cbdcf",
      "s": "0x50d7fe23ffedfb5a13511c6be7408dcc12dbf582c0afd2bbea300497c585b2b3",
      "v": 28,
      "creates": null,
      "raw": "0xf89141850cfcc43fa383061a80945fe5b7546d1628f7348b023a0393de1fc825a4fd883782dace9d900000a4b595b8b500000000000000000000000000000000000000000000000000000000000000001ca03c874c8e925a27be0fe62d24e933f79c0f9e82db47dcefb8bdb484c62c4cbdcfa050d7fe23ffedfb5a13511c6be7408dcc12dbf582c0afd2bbea300497c585b2b3",
      "networkId": 0,
      "chainId": 0
    }
  ]
}