{
  "hash": "0x99eb3fbe1002f1a800bfc5841280fc84c99970c18f71ec34463ba7d12a1b5cb2",
  "parentHash": "0x89f4feef2acbabddaf5813f8760c3c66a71b0e3f4129049d2304a89e1c6e8cac",
  "number": 80259,
  "timestamp": 1439482716,
  "nonce": "0xc651b7b57c98fe22",
  "difficulty": 2382881022240,
  "gasLimit": {
    "_hex": "0x2fefd8"
  },
  "gasUsed": {
    "_hex": "0x5208"
  },
  "miner": "0x4905B41F0A570ed20bbe5D76501b80Fa5508B9FB",
  "extraData": "0x",
  "transactions": [
    {
      "hash": "0xacd74b9c7c6b8ad4de981ee54594b363d31da005a9a48613f6f2477bb5503964",
      "blockHash": "0x99eb3fbe1002f1a800bfc5841280fc84c99970c18f71ec34463ba7d12a1b5cb2",
      "blockNumber": 80259,
      "transactionIndex": 0,
      "confirmations": null,
      "from": "0xF8CDdB4300504E2827E28101BF15c9215658296c",
      "gasPrice": {
        "_hex": "0xd8364fc25"
      },
      "gasLimit": {
        "_hex": "0x15f90"
      },
      "to": "0xD3c9D979502844332d115ff245381BE054A0b98E",
      "value": {
        "_hex": "0x10a741a462780000"
      },
      "nonce": 1,
      "data": "0x",
      "r": "0x82e57d5fc242ada6e8d624544e9f990f01a8af644a085f1d95ab725877549c73",
      "s": "0x5d841b0caffa712898442f3c2e15cca8f67475c63311771c575c428d6bcda5da",
      "v": 28,
      "creates": null,
      "raw": "0xf86d01850d8364fc2583015f9094d3c9d979502844332d115ff245381be054a0b98e8810a741a462780000801ca082e57d5fc242ada6e8d624544e9f990f01a8af644a085f1d95ab725877549c73a05d841b0caffa712898442f3c2e15cca8f67475c63311771c575c428d6bcda5da",
      "networkId": 0,
      "chainId": 0
    }
  ]
}