{
  "hash": "0x83df1b8dc47f0b81f6dbe7d01ebf7d36f9545c92ec5a5a2bc50c25792bcae13a",
  "parentHash": "0x3eff01f52abd797ef740890d28968e0cd575c1b50f16cf76d4368c8971cafcbb",
  "number": 119882,
  "timestamp": 1440150300,
  "nonce": "0x554f9d7665f0107c",
  "difficulty": 4407095229035,
  "gasLimit": {
    "_hex": "0x2fefd8"
  },
  "gasUsed": {
    "_hex": "0x5208"
  },
  "miner": "0xe6A7a1d47ff21B6321162AEA7C6CB457D5476Bca",
  "extraData": "0xd783010002844765746887676f312e342e32856c696e7578",
  "transactions": [
    {
      "hash": "0xc875b5c6a8b68e159f4e33973479d70dcc9cf9729e0af82ec4c0999812c46e4f",
      "blockHash": "0x83df1b8dc47f0b81f6dbe7d01ebf7d36f9545c92ec5a5a2bc50c25792bcae13a",
      "blockNumber": 119882,
      "transactionIndex": 0,
      "confirmations": null,
      "from": "0x007f7f58D3eb5b7510A301eCC749FC1fCDDBE14D",
      "gasPrice": {
        "_hex": "0xba43b7400"
      },
      "gasLimit": {
        "_hex": "0x15f90"
      },
      "to": "0xb1abce2918E21ddb93AA452731a12672A3d9F75a",
      "value": {
        "_hex": "0x4563918244f40000"
      },
      "nonce": 367,
      "data": "0x",
      "r": "0x17406f723e95e098ec966a4d4bcf242500b21938e851f456220efbf569796836",
      "s": "0x1cb3ee29350366ceb75a35b67afcb407777c71ca5ce80fdd8ce66991728e6071",
      "v": 28,
      "creates": null,
      "raw": "0xf86f82016f850ba43b740083015f9094b1abce2918e21ddb93aa452731a12672a3d9f75a884563918244f40000801ca017406f723e95e098ec966a4d4bcf242500b21938e851f456220efbf569796836a01cb3ee29350366ceb75a35b67afcb407777c71ca5ce80fdd8ce66991728e6071",
      "networkId": 0,
      "chainId": 0
    }
  ]
}