{
  "hash": "0x9f4b97c1162d012e2cb7ed3f24d3afc94a8f427bad7ee982a087d4ecdeaaf73a",
  "parentHash": "0xc32029c0b78dddbfa6a36076e21f0ea2c5eaaeb1abcb43b60e8535d72abddd84",
  "number": 52237,
  "timestamp": 1439018661,
  "nonce": "0x33275f8a463eb108",
  "difficulty": 1549693187863,
  "gasLimit": {
    "_hex": "0x119d02"
  },
  "gasUsed": {
    "_hex": "0x20e02"
  },
  "miner": "0x47ff6576639c2e94762eA5443978D7681C0E78DC",
  "extraData": "0x476574682f76312e302e312f6c696e75782f676f312e342e32",
  "transactions": [
    {
      "hash": "0xb7c49fbd0b3dc07c082b810a0f7c3fee628cd8f4cb03a1cfe6987f925514ef14",
      "blockHash": "0x9f4b97c1162d012e2cb7ed3f24d3afc94a8f427bad7ee982a087d4ecdeaaf73a",
      "blockNumber": 52237,
      "transactionIndex": 0,
      "confirmations": null,
      "from": "0xAd7F5C601260b460ADAC6A54411Ca6Cf07dC83c3",
      "gasPrice": {
        "_hex": "0x1272cc3a7b"
      },
      "gasLimit": {
        "_hex": "0x7a120"
      },
      "to": "0xA327075af2a223A1C83a36aDa1126afE7430f955",
      "value": {
        "_hex": "0x8ac7230489e80000"
      },
      "nonce": 20,
      "data": "0x",
      "r": "0xd0fa2a0decd626469357e03980dff41b9851f291ea1e59d6c0a2479e950095cd",
      "s": "0x506bda027322bffcc99e283019b4614af5ab77f0a1ea1c718f3dfc7afee59a62",
      "v": 28,
      "creates": null,
      "raw": "0xf86d14851272cc3a7b8307a12094a327075af2a223a1c83a36ada1126afe7430f955888ac7230489e80000801ca0d0fa2a0decd626469357e03980dff41b9851f291ea1e59d6c0a2479e950095cda0506bda027322bffcc99e283019b4614af5ab77f0a1ea1c718f3dfc7afee59a62",
      "networkId": 0,
      "chainId": 0
    },
    {
      "hash": "0xb1f38ba589f37b1e6dfb58db8e6acecef77acef7f3f85ecc4cd0b4ebd75a235c",
      "blockHash": "0x9f4b97c1162d012e2cb7ed3f24d3afc94a8f427bad7ee982a087d4ecdeaaf73a",
      "blockNumber": 52237,
      "transactionIndex": 1,
      "confirmations": null,
      "from": "0xAd7F5C601260b460ADAC6A54411Ca6Cf07dC83c3",
      "gasPrice": {
        "_hex": "0x1272cc3a7b"
      },
      "gasLimit": {
        "_hex": "0x7a120"
      },
      "to": "0xA327075af2a223A1C83a36aDa1126afE7430f955",
      "value": {
        "_hex": "0x8ac7230489e80000"
      },
      "nonce": 21,
      "data": "0x",
      "r": "0x961c05166fcf0b01deef4ae10c7ee1afd7b4622ef830ba25707b90a44010ba10",
      "s": "0x4aa1c4f6990f1bcaef6eb4bc9330875594c64fecefce3e1166373bf7ebea499b",
      "v": 27,
      "creates": null,
      "raw": "0xf86d15851272cc3a7b8307a12094a327075af2a223a1c83a36ada1126afe7430f955888ac7230489e80000801ba0961c05166fcf0b01deef4ae10c7ee1afd7b4622ef830ba25707b90a44010ba10a04aa1c4f6990f1bcaef6eb4bc9330875594c64fecefce3e1166373bf7ebea499b",
      "networkId": 0,
      "chainId": 0
    },
    {
      "hash": "0x301ee6fea006220ab29b29c568718953269fa7f518cfa1736e0c13a4987a6560",
      "blockHash": "0x9f4b97c1162d012e2cb7ed3f24d3afc94a8f427bad7ee982a087d4ecdeaaf73a",
      "blockNumber": 52237,
      "transactionIndex": 2,
      "confirmations": null,
      "from": "0x9aB9F7a4B85412bfbe2f4F63b1C98808851C4F32",
      "gasPrice": {
        "_hex": "0x11ccaa90ec"
      },
      "gasLimit": {
        "_hex": "0x15f90"
      },
      "to": "0xfBC1aB9a735012CF8Aa4f8738c5811CDbF39a0C5",
      "value": {
        "_hex": "0xde0b6b3a7640000"
      },
      "nonce": 5,
      "data": "0x",
      "r": "0xc39bd4e8e7ae567158490dca8c8881f23270b62a1c4ff6e8c4f05278a007849b",
      "s": "0x423709a0b23e9e0b9d71939a10d092c2c3bbf0307b4e67f8b512bf481c8aa7a9",
      "v": 27,
      "creates": null,
      "raw": "0xf86d058511ccaa90ec83015f9094fbc1ab9a735012cf8aa4f8738c5811cdbf39a0c5880de0b6b3a7640000801ba0c39bd4e8e7ae567158490dca8c8881f23270b62a1c4ff6e8c4f05278a007849ba0423709a0b23e9e0b9d71939a10d092c2c3bbf0307b4e67f8b512bf481c8aa7a9",
      "networkId": 0,
      "chainId": 0
    }
  ]
}