{
  "hash": "0xf31548a8c2d2e386f04074c162995d766872a8bd1431bd07d73d86ab563170d7",
  "parentHash": "0x99890e9ab5ce4c0724e5cc9051e50fdd686b1a3ea13a796ef77420f01f0a6034",
  "number": 80429,
  "timestamp": 1439485387,
  "nonce": "0x6e04286e5a02ea21",
  "difficulty": 2403867904045,
  "gasLimit": {
    "_hex": "0x2fefd8"
  },
  "gasUsed": {
    "_hex": "0xaa37"
  },
  "miner": "0x05f74a38293C914C6B14a39f5d8dEa98f22E4FBA",
  "extraData": "0x",
  "transactions": [
    {
      "hash": "0x445db1f4703c7f8714e5c14873ea200b60c8f9fd719477992c99c7587d1096ce",
      "blockHash": "0xf31548a8c2d2e386f04074c162995d766872a8bd1431bd07d73d86ab563170d7",
      "blockNumber": 80429,
      "transactionIndex": 0,
      "confirmations": null,
      "from": "0x87C5B5874A18B4306DF8a752a6C8cc3E82daFc19",
      "gasPrice": {
        "_hex": "0x10f49314332"
      },
      "gasLimit": {
        "_hex": "0x493e0"
      },
      "to": "0xC4c51de1AbF5D60DBd329eC0F999Fd8f021ae9fC",
      "value": {
        "_hex": "0x0"
      },
      "nonce": 205,
      "data": "0x03750d9400000000000000000000000087c5b5874a18b4306df8a752a6c8cc3e82dafc196b6b6b0000000000000000000000000000000000000000000000000000000000",
      "r": "0x0a032da13a6500f1146dfcff4dbe2dfc2aea3521947ca9815d8030013df1c056",
      "s": "0x3fad6546924d94c35231587cb1e353e8846be25d876404166f121c175f57d6eb",
      "v": 28,
      "creates": null,
      "raw": "0xf8ac81cd86010f49314332830493e094c4c51de1abf5d60dbd329ec0f999fd8f021ae9fc80b84403750d9400000000000000000000000087c5b5874a18b4306df8a752a6c8cc3e82dafc196b6b6b00000000000000000000000000000000000000000000000000000000001ca00a032da13a6500f1146dfcff4dbe2dfc2aea3521947ca9815d8030013df1c056a03fad6546924d94c35231587cb1e353e8846be25d876404166f121c175f57d6eb",
      "networkId": 0,
      "chainId": 0
    }
  ]
}