{
  "hash": "0xa1843170d7b5e1209bfc404c7ac68e5de1ed3e594a4008abaefbd7520284ec14",
  "parentHash": "0x326694cf03c8ce906ab170fae4e566d5fe384b81635fcb9506e60d6588a2b8e3",
  "number": 73230,
  "timestamp": 1439365533,
  "nonce": "0x5f2a03f839336fed",
  "difficulty": 2206729304240,
  "gasLimit": {
    "_hex": "0x2fefd8"
  },
  "gasUsed": {
    "_hex": "0x8c6e6"
  },
  "miner": "0xf32866D5cE9a9b5673e076be48AbCd6ED48ADe78",
  "extraData": "0x476574682f76312e302e312d37666266393930632f6c696e75782f676f312e34",
  "transactions": [
    {
      "hash": "0xb0f0d9b96f7bb160ec3373860e86ab38a4b70c793f0b7eb6b3044976d440098d",
      "blockHash": "0xa1843170d7b5e1209bfc404c7ac68e5de1ed3e594a4008abaefbd7520284ec14",
      "blockNumber": 73230,
      "transactionIndex": 0,
      "confirmations": null,
      "from": "0x326Be8F71bFb0379f989aAB1CC1fE37f0a771f60",
      "gasPrice": {
        "_hex": "0x113e8168f6d"
      },
      "gasLimit": {
        "_hex": "0xf4240"
      },
      "to": null,
      "value": {
        "_hex": "0x0"
      },
      "nonce": 30,
      "data": "0x60606040526000805433600160a060020a031991821681178355600180549092161790556106dd90819061003390396000f300606060405236156100cf5760e060020a600035046303750d9481146100d157806306b5f02d146100f75780630d1fce42146101155780630e1da6c3146101275780630f06670a146101345780632d9a37d3146101635780632e1a7d4d1461017d5780632fac1d36146101a057806355b775ea146101d0578063839930ba146101f35780638d21618614610204578063a094a0311461023c578063add4c7841461024a578063bd66528a14610279578063cb96012e146102a9578063d8389dc5146102ba578063da932856146102d7575b005b6100cf600435602435600154600160a060020a0390811633919091161461035c57610358565b6103036004356024355b606460628302046101000281900492915050565b61030330600160a060020a0316315b90565b6100cf60006106b06102db565b610303600435600160a060020a033316600090815260026020526040812060048101548214156104c25761046f565b6103035b606430600160a060020a03163160050204610124565b6100cf600435600054600160a060020a0390811633919091161461031557610336565b6103036004355b600160a060020a0381166000908152600260205260408120600481015482141561046a5761046f565b6100cf600435600054600160a060020a039081163391909116146106bb57610336565b610303678ac7230489e80000610124565b6100cf600435602435600182108061021c575060ff82115b8061022e5750678ac7230489e8000034105b8061042e5750610459610167565b6103036000610463336101a7565b610303600435600160a060020a033316600090815260026020526040812060048101548214156104755761046f565b6100cf600435600160a060020a03331660009081526002602052604081206004810154909114156105b657610358565b6103036004355b60ff81165b919050565b6103036004356040805182815290519081900360200190206102b5565b6103035b600160a060020a03331660009081526002602052604081206004810154821461062f5761062b565b60408051918252519081900360200190f35b60405160008054600160a060020a031691839082818181858883f150505050505b50565b600160a060020a03821660009081526002602052604090206004018190555b5050565b600160a060020a0382166000908152600260205260408120600401541461033957610358565b6040805160a081018252348082526020828101868152438486018181526060868101898152600060808901818152600160a060020a0333168083526002808a52928c90209a518b55965160018b0155935190890155516003880155905160049690960195909555855190815291820192909252808401869052925190927f97371a3349bea11f577edf6e64350a3dfb9de665d1154c7e6d08eb0805aa043092908290030190a25050565b115b1561038257604051600160a060020a03331690600090349082818181858883f1935050505050610358565b61042c3484610101565b9050610124565b600191505b50919050565b6040805160038301548582529151908190036020019020146104965761046f565b604080516004830154858252602082015281519081900390910190206104bb906102b0565b915061046f565b6040805160038301548582529151908190036020019020146104e35761046f565b60408051600183015460048401548683526020830152825191829003909201902061050d906102b0565b101561051c576001915061046f565b6000915061046f565b6040516000818181858888f15084546001860154908252602082015260408051600160a060020a03331695507ffdc49939175858b2bb557093a7d52fa6b6f3aad917d282d61758fab4805f102a945091829003019150a25b600160a060020a033316600090815260026020819052604082208281556001810183905590810182905560038101829055600401555050565b6040805160038301548482529151908190036020019020146105d757610358565b604080516001830154600484015485835260208301528251918290039092019020610601906102b0565b101561057d5780546001820154600160a060020a033316916000916105259190610101565b600191505b5090565b805460009011610642576000915061062b565b6002810154601401431015610626576000915061062b565b50600160a060020a03331660008181526002602052604080822080549151909392919082818181858883f15050509081526002602081905281835560018301829055820181905560038201819055600482015550565b151561065a57610336565b6001805473ffffffffffffffffffffffffffffffffffffffff1916821790555056",
      "r": "0x3d9fc2b2d921b45190e15682e5bf9b6a56b933c56f7d189f6e254c98c569543c",
      "s": "0x79ae4322042792f574be27fc8d819cd249942cb4622c964ef6c51c2476f73984",
      "v": 28,
      "creates": "0xB86A36e3E0d2E8132F5798119148eDEF957E1912",
      "raw": "0xf907641e860113e8168f6d830f42408080b9071060606040526000805433600160a060020a031991821681178355600180549092161790556106dd90819061003390396000f300606060405236156100cf5760e060020a600035046303750d9481146100d157806306b5f02d146100f75780630d1fce42146101155780630e1da6c3146101275780630f06670a146101345780632d9a37d3146101635780632e1a7d4d1461017d5780632fac1d36146101a057806355b775ea146101d0578063839930ba146101f35780638d21618614610204578063a094a0311461023c578063add4c7841461024a578063bd66528a14610279578063cb96012e146102a9578063d8389dc5146102ba578063da932856146102d7575b005b6100cf600435602435600154600160a060020a0390811633919091161461035c57610358565b6103036004356024355b606460628302046101000281900492915050565b61030330600160a060020a0316315b90565b6100cf60006106b06102db565b610303600435600160a060020a033316600090815260026020526040812060048101548214156104c25761046f565b6103035b606430600160a060020a03163160050204610124565b6100cf600435600054600160a060020a0390811633919091161461031557610336565b6103036004355b600160a060020a0381166000908152600260205260408120600481015482141561046a5761046f565b6100cf600435600054600160a060020a039081163391909116146106bb57610336565b610303678ac7230489e80000610124565b6100cf600435602435600182108061021c575060ff82115b8061022e5750678ac7230489e8000034105b8061042e5750610459610167565b6103036000610463336101a7565b610303600435600160a060020a033316600090815260026020526040812060048101548214156104755761046f565b6100cf600435600160a060020a03331660009081526002602052604081206004810154909114156105b657610358565b6103036004355b60ff81165b919050565b6103036004356040805182815290519081900360200190206102b5565b6103035b600160a060020a03331660009081526002602052604081206004810154821461062f5761062b565b60408051918252519081900360200190f35b60405160008054600160a060020a031691839082818181858883f150505050505b50565b600160a060020a03821660009081526002602052604090206004018190555b5050565b600160a060020a0382166000908152600260205260408120600401541461033957610358565b6040805160a081018252348082526020828101868152438486018181526060868101898152600060808901818152600160a060020a0333168083526002808a52928c90209a518b55965160018b0155935190890155516003880155905160049690960195909555855190815291820192909252808401869052925190927f97371a3349bea11f577edf6e64350a3dfb9de665d1154c7e6d08eb0805aa043092908290030190a25050565b115b1561038257604051600160a060020a03331690600090349082818181858883f1935050505050610358565b61042c3484610101565b9050610124565b600191505b50919050565b6040805160038301548582529151908190036020019020146104965761046f565b604080516004830154858252602082015281519081900390910190206104bb906102b0565b915061046f565b6040805160038301548582529151908190036020019020146104e35761046f565b60408051600183015460048401548683526020830152825191829003909201902061050d906102b0565b101561051c576001915061046f565b6000915061046f565b6040516000818181858888f15084546001860154908252602082015260408051600160a060020a03331695507ffdc49939175858b2bb557093a7d52fa6b6f3aad917d282d61758fab4805f102a945091829003019150a25b600160a060020a033316600090815260026020819052604082208281556001810183905590810182905560038101829055600401555050565b6040805160038301548482529151908190036020019020146105d757610358565b604080516001830154600484015485835260208301528251918290039092019020610601906102b0565b101561057d5780546001820154600160a060020a033316916000916105259190610101565b600191505b5090565b805460009011610642576000915061062b565b6002810154601401431015610626576000915061062b565b50600160a060020a03331660008181526002602052604080822080549151909392919082818181858883f15050509081526002602081905281835560018301829055820181905560038201819055600482015550565b151561065a57610336565b6001805473ffffffffffffffffffffffffffffffffffffffff19168217905550561ca03d9fc2b2d921b45190e15682e5bf9b6a56b933c56f7d189f6e254c98c569543ca079ae4322042792f574be27fc8d819cd249942cb4622c964ef6c51c2476f73984",
      "networkId": 0,
      "chainId": 0
    },
    {
      "hash": "0x0dc1ee266d07617f896764791aca38874caaf396811796f6956f4f42c790c3fe",
      "blockHash": "0xa1843170d7b5e1209bfc404c7ac68e5de1ed3e594a4008abaefbd7520284ec14",
      "blockNumber": 73230,
      "transactionIndex": 1,
      "confirmations": null,
      "from": "0x2910543Af39abA0Cd09dBb2D50200b3E800A63D2",
      "gasPrice": {
        "_hex": "0xd6ba4f21b"
      },
      "gasLimit": {
        "_hex": "0x5208"
      },
      "to": "0x6938213C21f55F22aB196853A3Ec591D36871b05",
      "value": {
        "_hex": "0x579965167d2938000"
      },
      "nonce": 281,
      "data": "0x",
      "r": "0xed6e12d67f606b6741282b1886c3f0cec4a38ecd01ede0cfb4bd9f2d29139a14",
      "s": "0x1396da0d6aea6735f578de4071ea10383e120ef7420305d6b172f1dced25d739",
      "v": 27,
      "creates": null,
      "raw": "0xf86f820119850d6ba4f21b825208946938213c21f55f22ab196853a3ec591d36871b05890579965167d2938000801ba0ed6e12d67f606b6741282b1886c3f0cec4a38ecd01ede0cfb4bd9f2d29139a14a01396da0d6aea6735f578de4071ea10383e120ef7420305d6b172f1dced25d739",
      "networkId": 0,
      "chainId": 0
    },
    {
      "hash": "0xf40eb33ed2028c456c3c332874e1bd4fa597616e634b91fbd70266bf9a2c9ffd",
      "blockHash": "0xa1843170d7b5e1209bfc404c7ac68e5de1ed3e594a4008abaefbd7520284ec14",
      "blockNumber": 73230,
      "transactionIndex": 2,
      "confirmations": null,
      "from": "0x2910543Af39abA0Cd09dBb2D50200b3E800A63D2",
      "gasPrice": {
        "_hex": "0xd6ba4f21b"
      },
      "gasLimit": {
        "_hex": "0x5208"
      },
      "to": "0xb4Ad43131139584E8f6F31D578E0dC4d11Df6D7b",
      "value": {
        "_hex": "0x2b5e3af16b1880000"
      },
      "nonce": 282,
      "data": "0x",
      "r": "0x8a55f7a732133d6b9f4a6892d72528d02265ba0ad90cd6617e9c34e998596a44",
      "s": "0x56884ca00d39b6c8871f49a8739c92159acfe5dfd22eadde2dd4882137beab77",
      "v": 28,
      "creates": null,
      "raw": "0xf86f82011a850d6ba4f21b82520894b4ad43131139584e8f6f31d578e0dc4d11df6d7b8902b5e3af16b1880000801ca08a55f7a732133d6b9f4a6892d72528d02265ba0ad90cd6617e9c34e998596a44a056884ca00d39b6c8871f49a8739c92159acfe5dfd22eadde2dd4882137beab77",
      "networkId": 0,
      "chainId": 0
    }
  ]
}