{
  "hash": "0x6221e7e4362dbce48b1b7bccb9d75cd3f44f1f8df213a7857fb27aa263951028",
  "parentHash": "0xa6f2f1ee2294934ada33fc7264ddb566f898da54bed71d27bf9a36fe5d05aa9f",
  "number": 122172,
  "timestamp": 1440189410,
  "nonce": "0xc76804c518bad7ba",
  "difficulty": 4475275016970,
  "gasLimit": {
    "_hex": "0x2fefd8"
  },
  "gasUsed": {
    "_hex": "0xa410"
  },
  "miner": "0xe6A7a1d47ff21B6321162AEA7C6CB457D5476Bca",
  "extraData": "0xd783010002844765746887676f312e342e32856c696e7578",
  "transactions": [
    {
      "hash": "0xc50f1e61045b6eb04a5ffcd2699e7368e848dde0ea3f7ec508a58f1a46c30936",
      "blockHash": "0x6221e7e4362dbce48b1b7bccb9d75cd3f44f1f8df213a7857fb27aa263951028",
      "blockNumber": 122172,
      "transactionIndex": 0,
      "confirmations": null,
      "from": "0xb1abce2918E21ddb93AA452731a12672A3d9F75a",
      "gasPrice": {
        "_hex": "0xcbdcb4679"
      },
      "gasLimit": {
        "_hex": "0x5208"
      },
      "to": "0x32Be343B94f860124dC4fEe278FDCBD38C102D88",
      "value": {
        "_hex": "0x455f7c514b2d6000"
      },
      "nonce": 223,
      "data": "0x",
      "r": "0x999844d664cafc07c3b492e7d42988f4eb4ad5ec5910bdd167a4eb3e441fe656",
      "s": "0x50cf7abe58d689d3d3e09fc99c01e4150e5dd1e93a694698e27e69536891339d",
      "v": 27,
      "creates": null,
      "raw": "0xf86d81df850cbdcb46798252089432be343b94f860124dc4fee278fdcbd38c102d8888455f7c514b2d6000801ba0999844d664cafc07c3b492e7d42988f4eb4ad5ec5910bdd167a4eb3e441fe656a050cf7abe58d689d3d3e09fc99c01e4150e5dd1e93a694698e27e69536891339d",
      "networkId": 0,
      "chainId": 0
    },
    {
      "hash": "0x154780fb61a8d170a97085fc44635f1819fc43a2c8a6e9e841d0398b6949fa8e",
      "blockHash": "0x6221e7e4362dbce48b1b7bccb9d75cd3f44f1f8df213a7857fb27aa263951028",
      "blockNumber": 122172,
      "transactionIndex": 1,
      "confirmations": null,
      "from": "0xa61ff394e3846F8bfbBF8801afb051730B04Ee75",
      "gasPrice": {
        "_hex": "0xcbdcb4679"
      },
      "gasLimit": {
        "_hex": "0x5208"
      },
      "to": "0x32Be343B94f860124dC4fEe278FDCBD38C102D88",
      "value": {
        "_hex": "0x455f719f348e0000"
      },
      "nonce": 26,
      "data": "0x",
      "r": "0xd5c86800e8876e40d96c84a7b32271754a3fd4e4324d3d91d4de354e0b72d7e9",
      "s": "0x7b54105a0f101688be7e3c1440eda3b621275649c99a449647e76455ce49eb40",
      "v": 28,
      "creates": null,
      "raw": "0xf86c1a850cbdcb46798252089432be343b94f860124dc4fee278fdcbd38c102d8888455f719f348e0000801ca0d5c86800e8876e40d96c84a7b32271754a3fd4e4324d3d91d4de354e0b72d7e9a07b54105a0f101688be7e3c1440eda3b621275649c99a449647e76455ce49eb40",
      "networkId": 0,
      "chainId": 0
    }
  ]
}