{
  "hash": "0x62210a185876ed51d251ca62ae9a541543e083c0858d541357d431db3ba11148",
  "parentHash": "0x3cbfd26df72fb73045a1315125349ee409bab2dd8e944017174058ca728a93d7",
  "number": 111913,
  "timestamp": 1439998519,
  "nonce": "0x0954bcda36edb8e2",
  "difficulty": 4417750443135,
  "gasLimit": {
    "_hex": "0x2fefd8"
  },
  "gasUsed": {
    "_hex": "0x5208"
  },
  "miner": "0x790b8a3cE86E707ED0eD32bF89B3269692a23CC1",
  "extraData": "0xd783010001844765746887676f312e342e32856c696e7578",
  "transactions": [
    {
      "hash": "0x290fbe91f6d0dda194db6e4c40e4cd6244c6cadca0d1271ff39a240e9eb5281d",
      "blockHash": "0x62210a185876ed51d251ca62ae9a541543e083c0858d541357d431db3ba11148",
      "blockNumber": 111913,
      "transactionIndex": 0,
      "confirmations": null,
      "from": "0x50056353D06a71b1f427499419D04F81f5dE4F20",
      "gasPrice": {
        "_hex": "0xd73d73c9b"
      },
      "gasLimit": {
        "_hex": "0x5208"
      },
      "to": "0x32Be343B94f860124dC4fEe278FDCBD38C102D88",
      "value": {
        "_hex": "0xf707b491aebc3000"
      },
      "nonce": 8,
      "data": "0x",
      "r": "0xd567e6cb9a7de4a84538fc68a72a72137022474cde4de02ffeb95d4699b4f564",
      "s": "0x54cb53189adcdfc621c70ce9d51b2f59a7b3a56c55437d66692334f659ee3406",
      "v": 27,
      "creates": null,
      "raw": "0xf86c08850d73d73c9b8252089432be343b94f860124dc4fee278fdcbd38c102d8888f707b491aebc3000801ba0d567e6cb9a7de4a84538fc68a72a72137022474cde4de02ffeb95d4699b4f564a054cb53189adcdfc621c70ce9d51b2f59a7b3a56c55437d66692334f659ee3406",
      "networkId": 0,
      "chainId": 0
    }
  ]
}