{
  "hash": "0x49a831a59bb616bef840bd53281f155ce7e2e9c25665775270f589920d55c9c4",
  "parentHash": "0x9a108f1afbfaa3590a3c69f2b14311817df67c712e5a88a29c098e9130f7c0b6",
  "number": 52554,
  "timestamp": 1439023427,
  "nonce": "0x0b3558f20172b19e",
  "difficulty": 1567135841185,
  "gasLimit": {
    "_hex": "0x155d89"
  },
  "gasUsed": {
    "_hex": "0xf4240"
  },
  "miner": "0x108b54b7E3c09F8127CB8B28ffA3AD4001b32998",
  "extraData": "0x476574682f76312e302e312f6c696e75782f676f312e342e32",
  "transactions": [
    {
      "hash": "0x3b3534116e89e2e88a07cd8245e5a401ce70720b4d013d7e677205be594b7c1b",
      "blockHash": "0x49a831a59bb616bef840bd53281f155ce7e2e9c25665775270f589920d55c9c4",
      "blockNumber": 52554,
      "transactionIndex": 0,
      "confirmations": null,
      "from": "0x54dAeb3E8a6BBC797E4aD2b0339f134b186e4637",
      "gasPrice": {
        "_hex": "0xe7d27df17"
      },
      "gasLimit": {
        "_hex": "0x7a120"
      },
      "to": "0xBAA54d6E90c3F4d7Ebec11bD180134C7eD8eBb52",
      "value": {
        "_hex": "0x16345785d8a0000"
      },
      "nonce": 711,
      "data": "0x",
      "r": "0xac4e4aba89c8364fe8f298a58a9334cbfe55d846dc58712d64897d1c8d2ef84a",
      "s": "0x390772e45d3c9cddff4365c7eb66150fe1ff052c002c9e910f94171b056707f8",
      "v": 28,
      "creates": null,
      "raw": "0xf86f8202c7850e7d27df178307a12094baa54d6e90c3f4d7ebec11bd180134c7ed8ebb5288016345785d8a0000801ca0ac4e4aba89c8364fe8f298a58a9334cbfe55d846dc58712d64897d1c8d2ef84aa0390772e45d3c9cddff4365c7eb66150fe1ff052c002c9e910f94171b056707f8",
      "networkId": 0,
      "chainId": 0
    },
    {
      "hash": "0xeafc426e6d7ee8929f97a5c1a0d6403dcded0c8fe25412878c23cb1e891093f9",
      "blockHash": "0x49a831a59bb616bef840bd53281f155ce7e2e9c25665775270f589920d55c9c4",
      "blockNumber": 52554,
      "transactionIndex": 1,
      "confirmations": null,
      "from": "0x54dAeb3E8a6BBC797E4aD2b0339f134b186e4637",
      "gasPrice": {
        "_hex": "0xe7d27df17"
      },
      "gasLimit": {
        "_hex": "0x7a120"
      },
      "to": "0xBAA54d6E90c3F4d7Ebec11bD180134C7eD8eBb52",
      "value": {
        "_hex": "0x16345785d8a0000"
      },
      "nonce": 712,
      "data": "0x",
      "r": "0xc7573306971d350ea8dba316c13a8566014951a5e8e49e6115931de8a7a1d71e",
      "s": "0x7b1dfad717216055af32b42cd732803513adf513412d3e5d73413f6e33183f59",
      "v": 27,
      "creates": null,
      "raw": "0xf86f8202c8850e7d27df178307a12094baa54d6e90c3f4d7ebec11bd180134c7ed8ebb5288016345785d8a0000801ba0c7573306971d350ea8dba316c13a8566014951a5e8e49e6115931de8a7a1d71ea07b1dfad717216055af32b42cd732803513adf513412d3e5d73413f6e33183f59",
      "networkId": 0,
      "chainId": 0
    }
  ]
}