{
  "hash": "0x5ba63c561d814e10134f3de7510a65b5923f06f91c2d0747013a550512fbb0e9",
  "parentHash": "0x2e1c5f635d3f6e6a57365a9da22dcdf9479f64b99a21faf1028a08b0bf8ae0f1",
  "number": 112323,
  "timestamp": 1440005703,
  "nonce": "0x6b83b937e03ec961",
  "difficulty": 4396017108272,
  "gasLimit": {
    "_hex": "0x2fefd8"
  },
  "gasUsed": {
    "_hex": "0x1bdbe"
  },
  "miner": "0xe6A7a1d47ff21B6321162AEA7C6CB457D5476Bca",
  "extraData": "0x476574682f76312e302e312d38326566323666362f6c696e75782f676f312e34",
  "transactions": [
    {
      "hash": "0x3b21aab21be52c080dcf72f518738c75e8c4ebe7b045377a28a887290da8e484",
      "blockHash": "0x5ba63c561d814e10134f3de7510a65b5923f06f91c2d0747013a550512fbb0e9",
      "blockNumber": 112323,
      "transactionIndex": 0,
      "confirmations": null,
      "from": "0x56304DCf701924D7c79307dEb10d0956bC70C307",
      "gasPrice": {
        "_hex": "0xd1f217cbf"
      },
      "gasLimit": {
        "_hex": "0x249f0"
      },
      "to": "0xE28e72FCf78647ADCe1F1252F240bbfaebD63BcC",
      "value": {
        "_hex": "0x114dca34ce50b0000"
      },
      "nonce": 0,
      "data": "0x45466f3a",
      "r": "0xd4e70c744dd580bd9f3f95ab47e5e67546ba65a22032ee664a4dd650d26bfdeb",
      "s": "0x67cc1028de8a4faf6a15d4c2f9cc15eb1562b753173ab6a5e50ecda591d94369",
      "v": 28,
      "creates": null,
      "raw": "0xf87280850d1f217cbf830249f094e28e72fcf78647adce1f1252f240bbfaebd63bcc890114dca34ce50b00008445466f3a1ca0d4e70c744dd580bd9f3f95ab47e5e67546ba65a22032ee664a4dd650d26bfdeba067cc1028de8a4faf6a15d4c2f9cc15eb1562b753173ab6a5e50ecda591d94369",
      "networkId": 0,
      "chainId": 0
    }
  ]
}