{
  "hash": "0x2bfe6cdff923393b4e5d43c10542dee31a51cd8e63754c89fd9474dcd2f2f4d5",
  "parentHash": "0xae2f47ce4509c04f9df18a97fa42d99eec5b5d0263c7a4b4ee162c9871b33b9a",
  "number": 79952,
  "timestamp": 1439477794,
  "nonce": "0x5db97fe1561d9013",
  "difficulty": 2351758324617,
  "gasLimit": {
    "_hex": "0x2fefd8"
  },
  "gasUsed": {
    "_hex": "0x5208"
  },
  "miner": "0x55bAf64fc9eAccFFd7Cc643BB61142E1C6ac093e",
  "extraData": "0x",
  "transactions": [
    {
      "hash": "0x82fa1ee7c813a72cc901f8342178a708cd517698287361ba6b3b1cdcd4e5de54",
      "blockHash": "0x2bfe6cdff923393b4e5d43c10542dee31a51cd8e63754c89fd9474dcd2f2f4d5",
      "blockNumber": 79952,
      "transactionIndex": 0,
      "confirmations": null,
      "from": "0x07BC2CC8eeDC01970700efC9c4Fb36735e98CD71",
      "gasPrice": {
        "_hex": "0xdb3b011fb"
      },
      "gasLimit": {
        "_hex": "0x55f0"
      },
      "to": "0x8Dc1D2F6443A45A4BA60d691Ccb70C7e174A643D",
      "value": {
        "_hex": "0xde0b6b3a7640000"
      },
      "nonce": 9,
      "data": "0x",
      "r": "0xc77528986bce81bf213eccb8f69225864fa4d3bb95fd076b67b1d6c9bdad56ca",
      "s": "0x4f81d549549819fd9088e844ccaf74e48497e8af19f8c7ed90bf72f418befe7c",
      "v": 27,
      "creates": null,
      "raw": "0xf86c09850db3b011fb8255f0948dc1d2f6443a45a4ba60d691ccb70c7e174a643d880de0b6b3a7640000801ba0c77528986bce81bf213eccb8f69225864fa4d3bb95fd076b67b1d6c9bdad56caa04f81d549549819fd9088e844ccaf74e48497e8af19f8c7ed90bf72f418befe7c",
      "networkId": 0,
      "chainId": 0
    }
  ]
}