{
  "hash": "0x2ff5fe7e5e093b222c883e69e68f2c5c5bc5900c80bea160fc83cdeaeff9bcea",
  "parentHash": "0x64ef18fe0692229d525fc5118fea088869d86fdb8d5e5dd3f8c1966c14ad27a5",
  "number": 85459,
  "timestamp": 1439563917,
  "nonce": "0x5327e33a68e51123",
  "difficulty": 2749021635925,
  "gasLimit": {
    "_hex": "0x2fefd8"
  },
  "gasUsed": {
    "_hex": "0x5208"
  },
  "miner": "0xe6A7a1d47ff21B6321162AEA7C6CB457D5476Bca",
  "extraData": "0x476574682f76312e302e312d38326566323666362f6c696e75782f676f312e34",
  "transactions": [
    {
      "hash": "0x840e56f9010db98fab715d7c94a7062ba786f6f1e2e2a3f9e07771456923e6f3",
      "blockHash": "0x2ff5fe7e5e093b222c883e69e68f2c5c5bc5900c80bea160fc83cdeaeff9bcea",
      "blockNumber": 85459,
      "transactionIndex": 0,
      "confirmations": null,
      "from": "0x120A270bbC009644e35F0bB6ab13f95b8199c4ad",
      "gasPrice": {
        "_hex": "0xccd527be7"
      },
      "gasLimit": {
        "_hex": "0x15f90"
      },
      "to": "0xE482d255EDE56B04c3E8dF151F56e9ca62aAA8C2",
      "value": {
        "_hex": "0x1dd0c885f9a0d80000"
      },
      "nonce": 453,
      "data": "0x",
      "r": "0xc228e66cb3eaa5b7e6d531d8587001694f74325c320e76f73842675a633f22c1",
      "s": "0x3dec28cf360e8634d0f8245a6b14c1fd2ca0e5ff1fac39091d2a0d1c187e362f",
      "v": 27,
      "creates": null,
      "raw": "0xf8708201c5850ccd527be783015f9094e482d255ede56b04c3e8df151f56e9ca62aaa8c2891dd0c885f9a0d80000801ba0c228e66cb3eaa5b7e6d531d8587001694f74325c320e76f73842675a633f22c1a03dec28cf360e8634d0f8245a6b14c1fd2ca0e5ff1fac39091d2a0d1c187e362f",
      "networkId": 0,
      "chainId": 0
    }
  ]
}