{
  "hash": "0x9d4ecf2860c762e5dec965e2136851d70858f9a03def0c6620cc0062ff4b3f74",
  "parentHash": "0x517527675d39b1a0da2886e135a356b124dd209f6b9dd89d42eeca28e97f13c0",
  "number": 105628,
  "timestamp": 1439890864,
  "nonce": "0xe4d0518f61e7ee82",
  "difficulty": 4405976340205,
  "gasLimit": {
    "_hex": "0x2fefd8"
  },
  "gasUsed": {
    "_hex": "0x5208"
  },
  "miner": "0x55bAf64fc9eAccFFd7Cc643BB61142E1C6ac093e",
  "extraData": "0x",
  "transactions": [
    {
      "hash": "0x5634e83a2b370f1cf151a5ad0ab91d2334fb0ef6dfc06434a1e7c76536705ced",
      "blockHash": "0x9d4ecf2860c762e5dec965e2136851d70858f9a03def0c6620cc0062ff4b3f74",
      "blockNumber": 105628,
      "transactionIndex": 0,
      "confirmations": null,
      "from": "0x007f7f58D3eb5b7510A301eCC749FC1fCDDBE14D",
      "gasPrice": {
        "_hex": "0xde90f59a8"
      },
      "gasLimit": {
        "_hex": "0x15f90"
      },
      "to": "0xb1abce2918E21ddb93AA452731a12672A3d9F75a",
      "value": {
        "_hex": "0x4563918244f40000"
      },
      "nonce": 256,
      "data": "0x",
      "r": "0x46ffd0e6c3cc688d3ffe2a2bde7ae8d833d46e58fc80663299bc8172e5337e2a",
      "s": "0x06f222a462f7e2d3b8ff6f4feb4c78e59c215931266360fff0a346282417903b",
      "v": 28,
      "creates": null,
      "raw": "0xf86f820100850de90f59a883015f9094b1abce2918e21ddb93aa452731a12672a3d9f75a884563918244f40000801ca046ffd0e6c3cc688d3ffe2a2bde7ae8d833d46e58fc80663299bc8172e5337e2aa006f222a462f7e2d3b8ff6f4feb4c78e59c215931266360fff0a346282417903b",
      "networkId": 0,
      "chainId": 0
    }
  ]
}