{
  "hash": "0x3c43d3dfd57674bbd1153a28017502ef4efa4fb11c64094083ce720c703338b5",
  "parentHash": "0x19d4878aefffbcbcaf3a7f6be74ad6a7f10651ee574404ecd869da2d0fca24e3",
  "number": 48641,
  "timestamp": 1438960280,
  "nonce": "0x005e6c10dfff9e64",
  "difficulty": 1473594111740,
  "gasLimit": {
    "_hex": "0x1b29c"
  },
  "gasUsed": {
    "_hex": "0xa410"
  },
  "miner": "0x3FF679B0823a026F2378E5f5F22A6F127cC85828",
  "extraData": "0x476574682f76312e302e302f6c696e75782f676f312e342e32",
  "transactions": [
    {
      "hash": "0xde0066ce7e10b9e3a41220d231f3f4ddb82ecaec2226e31efc73b99021b5d235",
      "blockHash": "0x3c43d3dfd57674bbd1153a28017502ef4efa4fb11c64094083ce720c703338b5",
      "blockNumber": 48641,
      "transactionIndex": 0,
      "confirmations": null,
      "from": "0x0eDEd3DA479d0beF8eeC92A76644D3f4E3C177f7",
      "gasPrice": {
        "_hex": "0xdf19748c7"
      },
      "gasLimit": {
        "_hex": "0x15f90"
      },
      "to": "0x3f0073d6bBE51612013aA09BC970e08E84D7BA23",
      "value": {
        "_hex": "0xde0b6b3a7640000"
      },
      "nonce": 1,
      "data": "0x",
      "r": "0x9027b707bf7cf78d1995be19cf2f481ccb057b144579a295bb49fa3622e86bc5",
      "s": "0x17ae4913ed5d7b41bc7d53d455492021dcfe08f09fd98a152ee0402b8f62feef",
      "v": 28,
      "creates": null,
      "raw": "0xf86d01850df19748c783015f90943f0073d6bbe51612013aa09bc970e08e84d7ba23880de0b6b3a7640000801ca09027b707bf7cf78d1995be19cf2f481ccb057b144579a295bb49fa3622e86bc5a017ae4913ed5d7b41bc7d53d455492021dcfe08f09fd98a152ee0402b8f62feef",
      "networkId": 0,
      "chainId": 0
    },
    {
      "hash": "0xed4eec488f88a6f27fd942fed4d37bbf8cf1d279ec147053bd87ffcc802e9b7e",
      "blockHash": "0x3c43d3dfd57674bbd1153a28017502ef4efa4fb11c64094083ce720c703338b5",
      "blockNumber": 48641,
      "transactionIndex": 1,
      "confirmations": null,
      "from": "0x8B454d830feF179e66206840F8F3D1d83bC32b17",
      "gasPrice": {
        "_hex": "0xd192eb6a5"
      },
      "gasLimit": {
        "_hex": "0x15f90"
      },
      "to": "0x1543667B9bad3e41865C3233E1764d8dda8E1F3D",
      "value": {
        "_hex": "0x38d7ea4c68000"
      },
      "nonce": 2,
      "data": "0x",
      "r": "0xe2e3228e436127c42edaa5709a8b04167b560d23867de14661f542e48f854a4d",
      "s": "0x19d10ff864b24bee28ead34dbfd31f174e5a256850676d95666b2ff8326db860",
      "v": 27,
      "creates": null,
      "raw": "0xf86c02850d192eb6a583015f90941543667b9bad3e41865c3233e1764d8dda8e1f3d87038d7ea4c68000801ba0e2e3228e436127c42edaa5709a8b04167b560d23867de14661f542e48f854a4da019d10ff864b24bee28ead34dbfd31f174e5a256850676d95666b2ff8326db860",
      "networkId": 0,
      "chainId": 0
    }
  ]
}