{
  "hash": "0x38e2143fad6df28e8f9abc4643f24eceeebbc7909a9a7d1f6a9233f66991ffaa",
  "parentHash": "0xd10bbdd3d61e8f3ef2f09e51e7b5cd9d57a3d575ae71887a7b216eabeda67fa0",
  "number": 68932,
  "timestamp": 1439295887,
  "nonce": "0x0b551b5b6cecbf38",
  "difficulty": 2026046427242,
  "gasLimit": {
    "_hex": "0x2fefd8"
  },
  "gasUsed": {
    "_hex": "0x3b81c"
  },
  "miner": "0xf32866D5cE9a9b5673e076be48AbCd6ED48ADe78",
  "extraData": "0x476574682f76312e302e312d37666266393930632f6c696e75782f676f312e34",
  "transactions": [
    {
      "hash": "0x00d596e83995a62ec26bdc30adebbb8fea057852e447b1313c5694dfe89bf3f6",
      "blockHash": "0x38e2143fad6df28e8f9abc4643f24eceeebbc7909a9a7d1f6a9233f66991ffaa",
      "blockNumber": 68932,
      "transactionIndex": 0,
      "confirmations": null,
      "from": "0xae7A9a044f6120c78fD50a1CE512Ab9770b54884",
      "gasPrice": {
        "_hex": "0xba43b7400"
      },
      "gasLimit": {
        "_hex": "0x15f90"
      },
      "to": "0x793AE8C1b1a160BFc07BFB0d04F85eab1A71F4f2",
      "value": {
        "_hex": "0x0"
      },
      "nonce": 0,
      "data": "0x3ba15036",
      "r": "0x25d9f67794e387d02574018f502db52f27639d5cfbf09930f661e227d281e0d2",
      "s": "0x580fbb05c0ada43e22612516144017e80f8679f2a619033a2a932b21acbb9949",
      "v": 27,
      "creates": null,
      "raw": "0xf86980850ba43b740083015f9094793ae8c1b1a160bfc07bfb0d04f85eab1a71f4f280843ba150361ba025d9f67794e387d02574018f502db52f27639d5cfbf09930f661e227d281e0d2a0580fbb05c0ada43e22612516144017e80f8679f2a619033a2a932b21acbb9949",
      "networkId": 0,
      "chainId": 0
    },
    {
      "hash": "0xd382e4df59115b584afb234b9e367a62f07a26ae1ff081f5bd60915aa3150fec",
      "blockHash": "0x38e2143fad6df28e8f9abc4643f24eceeebbc7909a9a7d1f6a9233f66991ffaa",
      "blockNumber": 68932,
      "transactionIndex": 1,
      "confirmations": null,
      "from": "0x5867D79701CDA27A3bc0Db5c25b33F7dB150d1bf",
      "gasPrice": {
        "_hex": "0xba43b7400"
      },
      "gasLimit": {
        "_hex": "0x15f90"
      },
      "to": "0x793AE8C1b1a160BFc07BFB0d04F85eab1A71F4f2",
      "value": {
        "_hex": "0x0"
      },
      "nonce": 0,
      "data": "0x3ba15036",
      "r": "0x4a56102eb055b5a4f4e7e8da1f69838395d36c8bf2a1870ae3cb4976a6695aa6",
      "s": "0x7d6e6bf2e979545561979721f0807011479f3ecd900071aaf9bc0afaf6730d2a",
      "v": 27,
      "creates": null,
      "raw": "0xf86980850ba43b740083015f9094793ae8c1b1a160bfc07bfb0d04f85eab1a71f4f280843ba150361ba04a56102eb055b5a4f4e7e8da1f69838395d36c8bf2a1870ae3cb4976a6695aa6a07d6e6bf2e979545561979721f0807011479f3ecd900071aaf9bc0afaf6730d2a",
      "networkId": 0,
      "chainId": 0
    },
    {
      "hash": "0x15191a7f2f654ec433b918502a0b14b1fb7159a9e240d88048450220192a2042",
      "blockHash": "0x38e2143fad6df28e8f9abc4643f24eceeebbc7909a9a7d1f6a9233f66991ffaa",
      "blockNumber": 68932,
      "transactionIndex": 2,
      "confirmations": null,
      "from": "0x19836C055A12C1CaE9302eb985b5B5b65C3539Ce",
      "gasPrice": {
        "_hex": "0xba43b7400"
      },
      "gasLimit": {
        "_hex": "0x15f90"
      },
      "to": "0x793AE8C1b1a160BFc07BFB0d04F85eab1A71F4f2",
      "value": {
        "_hex": "0x0"
      },
      "nonce": 0,
      "data": "0x3ba15036",
      "r": "0xe55f85308bbeba064d26347e4b1f34e8a8f4052943fc1d575fcc89b964286524",
      "s": "0x23ab7f4df6fe8f55e108896d7450eb276566a6d6c64013bb8376323e2a82b7cf",
      "v": 27,
      "creates": null,
      "raw": "0xf86980850ba43b740083015f9094793ae8c1b1a160bfc07bfb0d04f85eab1a71f4f280843ba150361ba0e55f85308bbeba064d26347e4b1f34e8a8f4052943fc1d575fcc89b964286524a023ab7f4df6fe8f55e108896d7450eb276566a6d6c64013bb8376323e2a82b7cf",
      "networkId": 0,
      "chainId": 0
    },
    {
      "hash": "0xb3d2704774bb13a663281734bf90ab5566fc453ee0018edd4805ce62cf28d501",
      "blockHash": "0x38e2143fad6df28e8f9abc4643f24eceeebbc7909a9a7d1f6a9233f66991ffaa",
      "blockNumber": 68932,
      "transactionIndex": 3,
      "confirmations": null,
      "from": "0x2c7dC901f87626efef1f2aDa6C850Ae40d75d0c6",
      "gasPrice": {
        "_hex": "0xba43b7400"
      },
      "gasLimit": {
        "_hex": "0x15f90"
      },
      "to": "0x793AE8C1b1a160BFc07BFB0d04F85eab1A71F4f2",
      "value": {
        "_hex": "0x0"
      },
      "nonce": 0,
      "data": "0x3ba15036",
      "r": "0xf9a1db51c4a46046fda9b9426ff0738546b78327b02043715b2d930838765f78",
      "s": "0x0b19df57ad8d8f9dc0377fa1d379b33cfd14ba8281326e5f7368be30c8d5aa71",
      "v": 27,
      "creates": null,
      "raw": "0xf86980850ba43b740083015f9094793ae8c1b1a160bfc07bfb0d04f85eab1a71f4f280843ba150361ba0f9a1db51c4a46046fda9b9426ff0738546b78327b02043715b2d930838765f78a00b19df57ad8d8f9dc0377fa1d379b33cfd14ba8281326e5f7368be30c8d5aa71",
      "networkId": 0,
      "chainId": 0
    },
    {
      "hash": "0xf3952c04aaf01f81b16280a7559ebf25a9aef1a8159d00da603ef0abeb453e41",
      "blockHash": "0x38e2143fad6df28e8f9abc4643f24eceeebbc7909a9a7d1f6a9233f66991ffaa",
      "blockNumber": 68932,
      "transactionIndex": 4,
      "confirmations": null,
      "from": "0xeC6A6BD0df7186D3c2FCE7c46264b0b9B2e5E1E5",
      "gasPrice": {
        "_hex": "0xba43b7400"
      },
      "gasLimit": {
        "_hex": "0x15f90"
      },
      "to": "0x793AE8C1b1a160BFc07BFB0d04F85eab1A71F4f2",
      "value": {
        "_hex": "0x0"
      },
      "nonce": 0,
      "data": "0x3ba15036",
      "r": "0xd9a90191e3cee459d151a80898fb4ef524906aa1af2b970871affc89ff0764be",
      "s": "0x65de782de803ca4e99baca0726cc340d6d6582813247cac9683889e3c0db3151",
      "v": 28,
      "creates": null,
      "raw": "0xf86980850ba43b740083015f9094793ae8c1b1a160bfc07bfb0d04f85eab1a71f4f280843ba150361ca0d9a90191e3cee459d151a80898fb4ef524906aa1af2b970871affc89ff0764bea065de782de803ca4e99baca0726cc340d6d6582813247cac9683889e3c0db3151",
      "networkId": 0,
      "chainId": 0
    }
  ]
}