{
  "hash": "0x94837bbeefe4db8fad96a9623d7bd5cc206ed3c8d75660577fe3ac7ed7c3a3bd",
  "parentHash": "0x19975031bb89e2b98b3cc8e502a08d7b8152df61cd289efdb6a02d2d809cae3e",
  "number": 109548,
  "timestamp": 1439958423,
  "nonce": "0x9c32a9335b5f2b4e",
  "difficulty": 4442794814742,
  "gasLimit": {
    "_hex": "0x2fefd8"
  },
  "gasUsed": {
    "_hex": "0x5208"
  },
  "miner": "0x007f7f58D3eb5b7510A301eCC749FC1fCDDBE14D",
  "extraData": "0x476574682f76312e302e312f77696e646f77732f676f312e342e32",
  "transactions": [
    {
      "hash": "0x7e91f4daf9c4d3ee236ab3f66a72682a61d57e805c9c9da287257e5555b68ffc",
      "blockHash": "0x94837bbeefe4db8fad96a9623d7bd5cc206ed3c8d75660577fe3ac7ed7c3a3bd",
      "blockNumber": 109548,
      "transactionIndex": 0,
      "confirmations": null,
      "from": "0xb1abce2918E21ddb93AA452731a12672A3d9F75a",
      "gasPrice": {
        "_hex": "0xd932142fb"
      },
      "gasLimit": {
        "_hex": "0x5208"
      },
      "to": "0x32Be343B94f860124dC4fEe278FDCBD38C102D88",
      "value": {
        "_hex": "0x8ac2c97803077000"
      },
      "nonce": 150,
      "data": "0x",
      "r": "0x29b39e7dcb8e5dd930f7870bf5c31076f1aed470e91e756e7a7ff46c68e15e12",
      "s": "0x197a36c3912f3078600033cf26e55d928e330cc4a08be4e4f5549aa6aff83e96",
      "v": 28,
      "creates": null,
      "raw": "0xf86d8196850d932142fb8252089432be343b94f860124dc4fee278fdcbd38c102d88888ac2c97803077000801ca029b39e7dcb8e5dd930f7870bf5c31076f1aed470e91e756e7a7ff46c68e15e12a0197a36c3912f3078600033cf26e55d928e330cc4a08be4e4f5549aa6aff83e96",
      "networkId": 0,
      "chainId": 0
    }
  ]
}