{
  "hash": "0x8615dd667545ba2598dd5956647fd75f627afd782c8b808dc8bbb29a7de83852",
  "parentHash": "0x74f55fca8fb4e865006a23029df7caaa7c1dd2ef3a59fb45a44523b78ad02cc9",
  "number": 52001,
  "timestamp": 1439014510,
  "nonce": "0xcc91fc33462517d8",
  "difficulty": 1560366983540,
  "gasLimit": {
    "_hex": "0xf9ccb"
  },
  "gasUsed": {
    "_hex": "0xf618"
  },
  "miner": "0x9746c7e1ef2bd21FF3997fa467593a89cb852BD0",
  "extraData": "0x476574682f76312e302e312f77696e646f77732f676f312e342e32",
  "transactions": [
    {
      "hash": "0xf04760bd67b4d941562882393e5f5ab84f59c39b7bb27d760211405fefecbbdc",
      "blockHash": "0x8615dd667545ba2598dd5956647fd75f627afd782c8b808dc8bbb29a7de83852",
      "blockNumber": 52001,
      "transactionIndex": 0,
      "confirmations": null,
      "from": "0x320e69e693Df6C1476c13836CDBE2F6E5dEf83A1",
      "gasPrice": {
        "_hex": "0xd9da38cdc"
      },
      "gasLimit": {
        "_hex": "0x15f90"
      },
      "to": "0x27987110221A880826aDB2E7aB5ECA78c6e31aEc",
      "value": {
        "_hex": "0xde0b6b3a7640000"
      },
      "nonce": 2,
      "data": "0x",
      "r": "0xbb8d5d5bcc20676e8ba7abf65d1f4d9420d52ce03857f51e066eb961b2c3250e",
      "s": "0x5a62a73a85d3fd65dbf0143c37203ff2618fc02c7c3a6126f2d870c97775dc2a",
      "v": 28,
      "creates": null,
      "raw": "0xf86d02850d9da38cdc83015f909427987110221a880826adb2e7ab5eca78c6e31aec880de0b6b3a7640000801ca0bb8d5d5bcc20676e8ba7abf65d1f4d9420d52ce03857f51e066eb961b2c3250ea05a62a73a85d3fd65dbf0143c37203ff2618fc02c7c3a6126f2d870c97775dc2a",
      "networkId": 0,
      "chainId": 0
    },
    {
      "hash": "0x1666f2884a418d6d0e26dce7796469348de4370898f25c14fba0d9c3a3ee1d23",
      "blockHash": "0x8615dd667545ba2598dd5956647fd75f627afd782c8b808dc8bbb29a7de83852",
      "blockNumber": 52001,
      "transactionIndex": 1,
      "confirmations": null,
      "from": "0xF5EeDc192aB70b08D8354384aD94efD095849E00",
      "gasPrice": {
        "_hex": "0xcf1a82b8a"
      },
      "gasLimit": {
        "_hex": "0x5208"
      },
      "to": "0x32Be343B94f860124dC4fEe278FDCBD38C102D88",
      "value": {
        "_hex": "0x7b9957155938c00000"
      },
      "nonce": 1,
      "data": "0x",
      "r": "0xf7dba0b1fdd8df9d732f197ea9fd2af6a7719ab4eda249d43a9aca75cb4571d4",
      "s": "0x6f6ee7bbdb5633411d141d0e21fdab0933e78a08c6d068265f27bee46f9a22bc",
      "v": 27,
      "creates": null,
      "raw": "0xf86d01850cf1a82b8a8252089432be343b94f860124dc4fee278fdcbd38c102d88897b9957155938c00000801ba0f7dba0b1fdd8df9d732f197ea9fd2af6a7719ab4eda249d43a9aca75cb4571d4a06f6ee7bbdb5633411d141d0e21fdab0933e78a08c6d068265f27bee46f9a22bc",
      "networkId": 0,
      "chainId": 0
    },
    {
      "hash": "0xf19224d5c25c0e48ca9047dd9d9b0348de647a268dc8bb01ebfceaf3a866206c",
      "blockHash": "0x8615dd667545ba2598dd5956647fd75f627afd782c8b808dc8bbb29a7de83852",
      "blockNumber": 52001,
      "transactionIndex": 2,
      "confirmations": null,
      "from": "0xc0b9d23f8d37650D0141B559dbD33d94Ea004e07",
      "gasPrice": {
        "_hex": "0xcced493cc"
      },
      "gasLimit": {
        "_hex": "0x5208"
      },
      "to": "0x32Be343B94f860124dC4fEe278FDCBD38C102D88",
      "value": {
        "_hex": "0xddc90e4dcc13400"
      },
      "nonce": 0,
      "data": "0x",
      "r": "0x4fb6882a30170453a4884218b6158c00ca04f5636fec91705e434ea72a67a4bb",
      "s": "0x3242e60f26c9cb85f2ff9faf6ba43838228f187c401fc5b4f0bd6a87f52fcaf3",
      "v": 28,
      "creates": null,
      "raw": "0xf86c80850cced493cc8252089432be343b94f860124dc4fee278fdcbd38c102d88880ddc90e4dcc13400801ca04fb6882a30170453a4884218b6158c00ca04f5636fec91705e434ea72a67a4bba03242e60f26c9cb85f2ff9faf6ba43838228f187c401fc5b4f0bd6a87f52fcaf3",
      "networkId": 0,
      "chainId": 0
    }
  ]
}