{
  "hash": "0x42ef10521a4d71fa36884f770507819b7aeadd985c97f51c51657c9c52878f4c",
  "parentHash": "0x053925c3d863ee9b6911ad1e705ed48c5edae737eabe8a45bd4c3da9fdf32172",
  "number": 82010,
  "timestamp": 1439511829,
  "nonce": "0xaa52e690253e0a32",
  "difficulty": 2406938097373,
  "gasLimit": {
    "_hex": "0x2fefd8"
  },
  "gasUsed": {
    "_hex": "0x5208"
  },
  "miner": "0xe6A7a1d47ff21B6321162AEA7C6CB457D5476Bca",
  "extraData": "0x476574682f76312e302e312d38326566323666362f6c696e75782f676f312e34",
  "transactions": [
    {
      "hash": "0x0a3f2e7570308afb1b3f54f34e19e785b2f41a9c55a270f6fb8a6373898a06ef",
      "blockHash": "0x42ef10521a4d71fa36884f770507819b7aeadd985c97f51c51657c9c52878f4c",
      "blockNumber": 82010,
      "transactionIndex": 0,
      "confirmations": null,
      "from": "0x3250E3e858c26ADeccADf36a5663C22Aa84c4170",
      "gasPrice": {
        "_hex": "0xce11dde25"
      },
      "gasLimit": {
        "_hex": "0x15f90"
      },
      "to": "0x971fb830e0Cb043055d5387B50FD09900Fe7a140",
      "value": {
        "_hex": "0x1b0d04202f47ec0000"
      },
      "nonce": 1,
      "data": "0x",
      "r": "0x85fe98e8fe256234aa27baf47a376cdd637fa52d8fb0cf58bd34a98989f0b3e0",
      "s": "0x5d201acd8f75d852e8f3f6dadf4d0193506dce6ebb30719d416da75a9fdb23af",
      "v": 28,
      "creates": null,
      "raw": "0xf86e01850ce11dde2583015f9094971fb830e0cb043055d5387b50fd09900fe7a140891b0d04202f47ec0000801ca085fe98e8fe256234aa27baf47a376cdd637fa52d8fb0cf58bd34a98989f0b3e0a05d201acd8f75d852e8f3f6dadf4d0193506dce6ebb30719d416da75a9fdb23af",
      "networkId": 0,
      "chainId": 0
    }
  ]
}