{
  "hash": "0xfe5cbae1bd3021a3a810248cab6f5f2e195df510fc2a6b9d72b58eed5a52d251",
  "parentHash": "0x5a045f2df324fb9a37bd71d9c0a1a595a1eeb490a7a0c6b5c4e16c2bd1f88b32",
  "number": 105873,
  "timestamp": 1439894808,
  "nonce": "0x08d615df2aab745c",
  "difficulty": 4455606281672,
  "gasLimit": {
    "_hex": "0x2fefd8"
  },
  "gasUsed": {
    "_hex": "0xad77"
  },
  "miner": "0xbb7B8287f3F0a933474a79eAe42CBCa977791171",
  "extraData": "0x476574682f4c5649562f76312e302e312f6c696e75782f676f312e342e32",
  "transactions": [
    {
      "hash": "0xccfe4fd17fffec60634f4cba5a9b610c504e0e1f3024c967c8d5a3bb145b6475",
      "blockHash": "0xfe5cbae1bd3021a3a810248cab6f5f2e195df510fc2a6b9d72b58eed5a52d251",
      "blockNumber": 105873,
      "transactionIndex": 0,
      "confirmations": null,
      "from": "0x87C5B5874A18B4306DF8a752a6C8cc3E82daFc19",
      "gasPrice": {
        "_hex": "0x1111a15da7d"
      },
      "gasLimit": {
        "_hex": "0x493e0"
      },
      "to": "0xD79B4C6791784184e2755B2fC1659eaaB0f80456",
      "value": {
        "_hex": "0x0"
      },
      "nonce": 287,
      "data": "0x03750d9400000000000000000000000087c5b5874a18b4306df8a752a6c8cc3e82dafc193431323962363937393033663337343200000000000000000000000000000000",
      "r": "0x758e20eaa766ec0775a0d5d2dc9519c42cb4652c3c900ba20ce14b0944f84834",
      "s": "0x3963ccae06ef8ad3255b9ee4377164daa19c304b3f44ef21afa25a52de4e9f9f",
      "v": 27,
      "creates": null,
      "raw": "0xf8ad82011f8601111a15da7d830493e094d79b4c6791784184e2755b2fc1659eaab0f8045680b84403750d9400000000000000000000000087c5b5874a18b4306df8a752a6c8cc3e82dafc1934313239623639373930336633373432000000000000000000000000000000001ba0758e20eaa766ec0775a0d5d2dc9519c42cb4652c3c900ba20ce14b0944f84834a03963ccae06ef8ad3255b9ee4377164daa19c304b3f44ef21afa25a52de4e9f9f",
      "networkId": 0,
      "chainId": 0
    }
  ]
}