{
  "hash": "0xf9017e4b0cee236e036bc06e0ca0e80669d381b3ca5ad4fb4b6e1722b036b445",
  "parentHash": "0xdde671a299177cae06685e32739f5b7f7cd8400c2f469a2e7738b1dc1e3d5a5f",
  "number": 69326,
  "timestamp": 1439302043,
  "nonce": "0x254ec1bbd504453b",
  "difficulty": 2059865968038,
  "gasLimit": {
    "_hex": "0x2fefd8"
  },
  "gasUsed": {
    "_hex": "0x5208"
  },
  "miner": "0xe6A7a1d47ff21B6321162AEA7C6CB457D5476Bca",
  "extraData": "0x476574682f76312e302e312d38326566323666362f6c696e75782f676f312e34",
  "transactions": [
    {
      "hash": "0x1896c847c37c161ad80cd5247889b481ffb2257b9753b0bce14c0fd51bc52732",
      "blockHash": "0xf9017e4b0cee236e036bc06e0ca0e80669d381b3ca5ad4fb4b6e1722b036b445",
      "blockNumber": 69326,
      "transactionIndex": 0,
      "confirmations": null,
      "from": "0xC759dc67E0c3816fdC56A2f5bb29920fc07e767D",
      "gasPrice": {
        "_hex": "0xd167b1925"
      },
      "gasLimit": {
        "_hex": "0x5208"
      },
      "to": "0x910a4aADabb3A7B3F7879118332E13Da66b68D77",
      "value": {
        "_hex": "0x15af1d78b58c40000"
      },
      "nonce": 14,
      "data": "0x",
      "r": "0x02069bbd076353c905beea2b38c7df2bcf508a9a2d66d63e3f957d2536a3a664",
      "s": "0x3579077fba884b817698291f7f093006dc28cfe9dccc30b5a054f4040aa3ad08",
      "v": 27,
      "creates": null,
      "raw": "0xf86d0e850d167b192582520894910a4aadabb3a7b3f7879118332e13da66b68d7789015af1d78b58c40000801ba002069bbd076353c905beea2b38c7df2bcf508a9a2d66d63e3f957d2536a3a664a03579077fba884b817698291f7f093006dc28cfe9dccc30b5a054f4040aa3ad08",
      "networkId": 0,
      "chainId": 0
    }
  ]
}