{
  "hash": "0xe4b9638f9d35e11ae9c646c9bb63be1d7072fd036ef77bb57af8a89850ada1a7",
  "parentHash": "0x202454a93a525cbc54f088c38d0b8ec9d1cc573f7d742d76fd5812de092f1d4b",
  "number": 107869,
  "timestamp": 1439930151,
  "nonce": "0x5cd2d9f2e90cc402",
  "difficulty": 4381204279460,
  "gasLimit": {
    "_hex": "0x2fefd8"
  },
  "gasUsed": {
    "_hex": "0x10d60"
  },
  "miner": "0xe6A7a1d47ff21B6321162AEA7C6CB457D5476Bca",
  "extraData": "0x476574682f76312e302e312d38326566323666362f6c696e75782f676f312e34",
  "transactions": [
    {
      "hash": "0xbc03b5fdedc965a8fbb9b872bf1f43427ce1d7d8be7f859569e74e7b3db907b4",
      "blockHash": "0xe4b9638f9d35e11ae9c646c9bb63be1d7072fd036ef77bb57af8a89850ada1a7",
      "blockNumber": 107869,
      "transactionIndex": 0,
      "confirmations": null,
      "from": "0x2b176421eEBBf303fa94aD4fE78362Fa9e4Ca693",
      "gasPrice": {
        "_hex": "0xccfc45ce0"
      },
      "gasLimit": {
        "_hex": "0x5208"
      },
      "to": "0x32Be343B94f860124dC4fEe278FDCBD38C102D88",
      "value": {
        "_hex": "0xcc0642d5e2e9c00"
      },
      "nonce": 9,
      "data": "0x",
      "r": "0x314630cd473cb3f32222c8dc86339ddd780b225f3e17022b6279fcd118858dda",
      "s": "0x380256128ae6da16318c836ec2fdf34aaef8f4b421adf31a6741fecadd824d9b",
      "v": 28,
      "creates": null,
      "raw": "0xf86c09850ccfc45ce08252089432be343b94f860124dc4fee278fdcbd38c102d88880cc0642d5e2e9c00801ca0314630cd473cb3f32222c8dc86339ddd780b225f3e17022b6279fcd118858ddaa0380256128ae6da16318c836ec2fdf34aaef8f4b421adf31a6741fecadd824d9b",
      "networkId": 0,
      "chainId": 0
    },
    {
      "hash": "0x91f2cc91078af0712e0931ad89e0903f38b42c042701dc02d14f44bbb5885c43",
      "blockHash": "0xe4b9638f9d35e11ae9c646c9bb63be1d7072fd036ef77bb57af8a89850ada1a7",
      "blockNumber": 107869,
      "transactionIndex": 1,
      "confirmations": null,
      "from": "0xa70a9a7040d542C632D8e0bE7c5513A8a5Bbc752",
      "gasPrice": {
        "_hex": "0xccfc45ce0"
      },
      "gasLimit": {
        "_hex": "0x5208"
      },
      "to": "0x32Be343B94f860124dC4fEe278FDCBD38C102D88",
      "value": {
        "_hex": "0x70c1ca2d9c6fd800"
      },
      "nonce": 261,
      "data": "0x",
      "r": "0x554bb9e62b230ccbb937ccb16ed4609fb51a2f2fab24c7bec418ba028844887a",
      "s": "0x1276968aa703a7a38c36fb8b8d9c33a2744147c863e216796eb7da706d96299f",
      "v": 27,
      "creates": null,
      "raw": "0xf86e820105850ccfc45ce08252089432be343b94f860124dc4fee278fdcbd38c102d888870c1ca2d9c6fd800801ba0554bb9e62b230ccbb937ccb16ed4609fb51a2f2fab24c7bec418ba028844887aa01276968aa703a7a38c36fb8b8d9c33a2744147c863e216796eb7da706d96299f",
      "networkId": 0,
      "chainId": 0
    },
    {
      "hash": "0xde90c65365a8d014f48766d805fa1afc8b574237cca91e287a13042f8a81a253",
      "blockHash": "0xe4b9638f9d35e11ae9c646c9bb63be1d7072fd036ef77bb57af8a89850ada1a7",
      "blockNumber": 107869,
      "transactionIndex": 2,
      "confirmations": null,
      "from": "0xE11bC3E5E6285CC7e065efC6A8CA3937222351FF",
      "gasPrice": {
        "_hex": "0xcc6706582"
      },
      "gasLimit": {
        "_hex": "0x15f90"
      },
      "to": "0xD79B4C6791784184e2755B2fC1659eaaB0f80456",
      "value": {
        "_hex": "0x0"
      },
      "nonce": 2,
      "data": "0x0e1da6c3",
      "r": "0xdce5188629354db76a1a93b096b12033f94a24e79f03fea5751728d1acf634fd",
      "s": "0x3e8a00da879af92f755f3420860b996be44c3cc187b93da1cb2da84f633da0a0",
      "v": 27,
      "creates": null,
      "raw": "0xf86902850cc670658283015f9094d79b4c6791784184e2755b2fc1659eaab0f8045680840e1da6c31ba0dce5188629354db76a1a93b096b12033f94a24e79f03fea5751728d1acf634fda03e8a00da879af92f755f3420860b996be44c3cc187b93da1cb2da84f633da0a0",
      "networkId": 0,
      "chainId": 0
    }
  ]
}