{
  "hash": "0x457e534a8c3f6af31f7a1417c1d9f73794bd00b39b2e4e704cd2b29760841029",
  "parentHash": "0xf8849d06c7069f8d99da6a7bf1857f7a9a7186b6e0fb3f58f39f0e4a39af6358",
  "number": 48270,
  "timestamp": 1438954473,
  "nonce": "0x41d24e9ac65db0cd",
  "difficulty": 1454358663773,
  "gasLimit": {
    "_hex": "0x14b2f"
  },
  "gasUsed": {
    "_hex": "0x5208"
  },
  "miner": "0xbb7B8287f3F0a933474a79eAe42CBCa977791171",
  "extraData": "0x476574682f4c5649562f76312e302e312f6c696e75782f676f312e342e32",
  "transactions": [
    {
      "hash": "0xd19df9d3d559c20f939c749d56adc52c923a6870111eeb99f245a6343404389d",
      "blockHash": "0x457e534a8c3f6af31f7a1417c1d9f73794bd00b39b2e4e704cd2b29760841029",
      "blockNumber": 48270,
      "transactionIndex": 0,
      "confirmations": null,
      "from": "0xb6047CDF932DB3E4045F4976122341537eD5961E",
      "gasPrice": {
        "_hex": "0xcb5d9abb5"
      },
      "gasLimit": {
        "_hex": "0x61a8"
      },
      "to": "0xAb5199486803893a6dc1AD1D31612895300BCcA9",
      "value": {
        "_hex": "0x2e2f6e5e148000"
      },
      "nonce": 4,
      "data": "0x",
      "r": "0x311c408d9ccfa791dc2471fd11fe6379b7feda5d635b93d7ac292f7858699f16",
      "s": "0x75f850eb60f3b636cb76d78dd2b8f9caf735042d45ec0d8447ca6be0028d34c8",
      "v": 28,
      "creates": null,
      "raw": "0xf86b04850cb5d9abb58261a894ab5199486803893a6dc1ad1d31612895300bcca9872e2f6e5e148000801ca0311c408d9ccfa791dc2471fd11fe6379b7feda5d635b93d7ac292f7858699f16a075f850eb60f3b636cb76d78dd2b8f9caf735042d45ec0d8447ca6be0028d34c8",
      "networkId": 0,
      "chainId": 0
    }
  ]
}