{
  "hash": "0x5da5a82a2162b7bbc9b21a427573aa16c0f0890019ee00b2c2150c220af82d2b",
  "parentHash": "0x4dc305ffa9980fefe542a2c5009850f259eea1b5b78bd3078a2db68d418348ad",
  "number": 101855,
  "timestamp": 1439829156,
  "nonce": "0x1ee5e29e7497f094",
  "difficulty": 3888110721617,
  "gasLimit": {
    "_hex": "0x2fefd8"
  },
  "gasUsed": {
    "_hex": "0x261ce"
  },
  "miner": "0xbb7B8287f3F0a933474a79eAe42CBCa977791171",
  "extraData": "0x476574682f4c5649562f76312e302e312f6c696e75782f676f312e342e32",
  "transactions": [
    {
      "hash": "0x4907ccaa6a3869663b2b43c03dc333dce39948a8547d2831c91679d674e5a129",
      "blockHash": "0x5da5a82a2162b7bbc9b21a427573aa16c0f0890019ee00b2c2150c220af82d2b",
      "blockNumber": 101855,
      "transactionIndex": 0,
      "confirmations": null,
      "from": "0xeC06c233d618b41076FbfF739Efb85a4999F89Da",
      "gasPrice": {
        "_hex": "0xe0c33bd3c"
      },
      "gasLimit": {
        "_hex": "0x5208"
      },
      "to": "0x32Be343B94f860124dC4fEe278FDCBD38C102D88",
      "value": {
        "_hex": "0x1d203286974c0800"
      },
      "nonce": 4,
      "data": "0x",
      "r": "0xf6674b99ccc9cefa6b38770f36147913aea5cbb700a194375326096fdb1878f1",
      "s": "0x08c098e82d684cbbb5b5f28c35e50a4b4b9f358733264dda4a3e0c8c01e58d55",
      "v": 27,
      "creates": null,
      "raw": "0xf86c04850e0c33bd3c8252089432be343b94f860124dc4fee278fdcbd38c102d88881d203286974c0800801ba0f6674b99ccc9cefa6b38770f36147913aea5cbb700a194375326096fdb1878f1a008c098e82d684cbbb5b5f28c35e50a4b4b9f358733264dda4a3e0c8c01e58d55",
      "networkId": 0,
      "chainId": 0
    },
    {
      "hash": "0x29ced8f0473e0f277db1055490deaa565863195b66389d1d39c97f3df51b76f1",
      "blockHash": "0x5da5a82a2162b7bbc9b21a427573aa16c0f0890019ee00b2c2150c220af82d2b",
      "blockNumber": 101855,
      "transactionIndex": 1,
      "confirmations": null,
      "from": "0xfe8635C30D5b0a49D09Fc9480d59e05d7450fd41",
      "gasPrice": {
        "_hex": "0xe0c33bd3c"
      },
      "gasLimit": {
        "_hex": "0x5208"
      },
      "to": "0x32Be343B94f860124dC4fEe278FDCBD38C102D88",
      "value": {
        "_hex": "0x444dbbf5e0e054000"
      },
      "nonce": 5,
      "data": "0x",
      "r": "0x9cbae112eca076440b9bb8f26787585983a129aaa77539bbe891cdca32025f5d",
      "s": "0x1168fa56c0651117620f99808e5fbeba2198288b3221fe5ea762fa2dd0546ab1",
      "v": 27,
      "creates": null,
      "raw": "0xf86d05850e0c33bd3c8252089432be343b94f860124dc4fee278fdcbd38c102d88890444dbbf5e0e054000801ba09cbae112eca076440b9bb8f26787585983a129aaa77539bbe891cdca32025f5da01168fa56c0651117620f99808e5fbeba2198288b3221fe5ea762fa2dd0546ab1",
      "networkId": 0,
      "chainId": 0
    },
    {
      "hash": "0xe6088ea922b90fc16dbdf10df685f06a965d2c8b94566673a3e114459a8f0642",
      "blockHash": "0x5da5a82a2162b7bbc9b21a427573aa16c0f0890019ee00b2c2150c220af82d2b",
      "blockNumber": 101855,
      "transactionIndex": 2,
      "confirmations": null,
      "from": "0x51d8782D82258441078E57141Daa8FFdDAf8f57D",
      "gasPrice": {
        "_hex": "0xd67c68f59"
      },
      "gasLimit": {
        "_hex": "0x249f0"
      },
      "to": "0xE28e72FCf78647ADCe1F1252F240bbfaebD63BcC",
      "value": {
        "_hex": "0x3860e639d80640000"
      },
      "nonce": 3,
      "data": "0x45466f3a",
      "r": "0xb7aa70daaec296bd45c5b5ffa0044aafa9fb582947905c8c954eb36634c334db",
      "s": "0x00c591a56e690eb57f54e6f210dcafd643fc25491f22e13b0c19b9cb8496b2e9",
      "v": 27,
      "creates": null,
      "raw": "0xf87103850d67c68f59830249f094e28e72fcf78647adce1f1252f240bbfaebd63bcc8903860e639d806400008445466f3a1ba0b7aa70daaec296bd45c5b5ffa0044aafa9fb582947905c8c954eb36634c334db9fc591a56e690eb57f54e6f210dcafd643fc25491f22e13b0c19b9cb8496b2e9",
      "networkId": 0,
      "chainId": 0
    }
  ]
}