{
  "hash": "0xde9eba551b4278a41162befc6e75780d0282e66dc99e9888fb88d7b5db240356",
  "parentHash": "0x8f3a451b880a2817951f9344427b08969a6cf231441f012c85b264815e9c694c",
  "number": 94649,
  "timestamp": 1439711600,
  "nonce": "0x3efd59ac839614b2",
  "difficulty": 3508774225643,
  "gasLimit": {
    "_hex": "0x2fefd8"
  },
  "gasUsed": {
    "_hex": "0x8a6d8"
  },
  "miner": "0xe6A7a1d47ff21B6321162AEA7C6CB457D5476Bca",
  "extraData": "0x476574682f76312e302e312d38326566323666362f6c696e75782f676f312e34",
  "transactions": [
    {
      "hash": "0xc804a968562bd03dfab4c5ce17487e52098101a386ded726157167ec83f8d11a",
      "blockHash": "0xde9eba551b4278a41162befc6e75780d0282e66dc99e9888fb88d7b5db240356",
      "blockNumber": 94649,
      "transactionIndex": 0,
      "confirmations": null,
      "from": "0xe6A7a1d47ff21B6321162AEA7C6CB457D5476Bca",
      "gasPrice": {
        "_hex": "0xda620f396"
      },
      "gasLimit": {
        "_hex": "0x55f0"
      },
      "to": "0x468569500925D53e06Dd0993014aD166fD7Dd381",
      "value": {
        "_hex": "0x1c452af141115f80"
      },
      "nonce": 2607,
      "data": "0x",
      "r": "0x9f9878c91f9bdc6759a801837e11e28613918558bda9327a40faa3d6310ab0ea",
      "s": "0x36900eb1bce2d3f62bea3114e5778d03475629636a8a9f083333b1e229b06d11",
      "v": 27,
      "creates": null,
      "raw": "0xf86e820a2f850da620f3968255f094468569500925d53e06dd0993014ad166fd7dd381881c452af141115f80801ba09f9878c91f9bdc6759a801837e11e28613918558bda9327a40faa3d6310ab0eaa036900eb1bce2d3f62bea3114e5778d03475629636a8a9f083333b1e229b06d11",
      "networkId": 0,
      "chainId": 0
    },
    {
      "hash": "0xa84792fdd4075365554711916f313dccb11c33626a0c858b7a036ef19db60bff",
      "blockHash": "0xde9eba551b4278a41162befc6e75780d0282e66dc99e9888fb88d7b5db240356",
      "blockNumber": 94649,
      "transactionIndex": 1,
      "confirmations": null,
      "from": "0xe6A7a1d47ff21B6321162AEA7C6CB457D5476Bca",
      "gasPrice": {
        "_hex": "0xda620f396"
      },
      "gasLimit": {
        "_hex": "0x55f0"
      },
      "to": "0xeFcD857C9235bDD977b33b263dBB0255F055AAD5",
      "value": {
        "_hex": "0x1c457e0a1dd02738"
      },
      "nonce": 2608,
      "data": "0x",
      "r": "0xf2e62e8fdd2896c1d5ac0fb6e44c358c5085feb51c25a0895247439a2f5b1bef",
      "s": "0x12a1860de83bb09fa0a92b27570423f35a95ab7f54da03c0a53328c4f1e6bd92",
      "v": 28,
      "creates": null,
      "raw": "0xf86e820a30850da620f3968255f094efcd857c9235bdd977b33b263dbb0255f055aad5881c457e0a1dd02738801ca0f2e62e8fdd2896c1d5ac0fb6e44c358c5085feb51c25a0895247439a2f5b1befa012a1860de83bb09fa0a92b27570423f35a95ab7f54da03c0a53328c4f1e6bd92",
      "networkId": 0,
      "chainId": 0
    },
    {
      "hash": "0xf8424a3f52acdb134704c92db9caf158c5545f80b373a8559f6db3fe1b8e3016",
      "blockHash": "0xde9eba551b4278a41162befc6e75780d0282e66dc99e9888fb88d7b5db240356",
      "blockNumber": 94649,
      "transactionIndex": 2,
      "confirmations": null,
      "from": "0xe6A7a1d47ff21B6321162AEA7C6CB457D5476Bca",
      "gasPrice": {
        "_hex": "0xda620f396"
      },
      "gasLimit": {
        "_hex": "0x55f0"
      },
      "to": "0x20b2a17fFa355d7Bcb269812A39e8F57D750A5b3",
      "value": {
        "_hex": "0x1c4e1220e8e9250c"
      },
      "nonce": 2609,
      "data": "0x",
      "r": "0x2c5110e87c531c1a80b6b909e15c1e386781937fa1aa153ba89edb1233f91ff1",
      "s": "0x0f45ced4fc8c7ca15a0399dcfc73c1cf25d94c3c80c17c2b05407246d5077341",
      "v": 28,
      "creates": null,
      "raw": "0xf86e820a31850da620f3968255f09420b2a17ffa355d7bcb269812a39e8f57d750a5b3881c4e1220e8e9250c801ca02c5110e87c531c1a80b6b909e15c1e386781937fa1aa153ba89edb1233f91ff1a00f45ced4fc8c7ca15a0399dcfc73c1cf25d94c3c80c17c2b05407246d5077341",
      "networkId": 0,
      "chainId": 0
    },
    {
      "hash": "0xa495d00d210fc94ae07a9331bb53d3537e441c6a15fcd86c16bf5829c8ea9bd1",
      "blockHash": "0xde9eba551b4278a41162befc6e75780d0282e66dc99e9888fb88d7b5db240356",
      "blockNumber": 94649,
      "transactionIndex": 3,
      "confirmations": null,
      "from": "0xe6A7a1d47ff21B6321162AEA7C6CB457D5476Bca",
      "gasPrice": {
        "_hex": "0xda620f396"
      },
      "gasLimit": {
        "_hex": "0x55f0"
      },
      "to": "0xd141b7CB21652cCdEF036cbe70dE021F31a530Ad",
      "value": {
        "_hex": "0x1c9763c6a8f375d8"
      },
      "nonce": 2610,
      "data": "0x",
      "r": "0x88cc1208be45de591d6acc6629ff99956b77bab20b0d91261d54aceab09f23e7",
      "s": "0x3e15eb620cf48252656b0bbd111d9f18c180d1464454183d3ecc0a88c96bec1a",
      "v": 28,
      "creates": null,
      "raw": "0xf86e820a32850da620f3968255f094d141b7cb21652ccdef036cbe70de021f31a530ad881c9763c6a8f375d8801ca088cc1208be45de591d6acc6629ff99956b77bab20b0d91261d54aceab09f23e7a03e15eb620cf48252656b0bbd111d9f18c180d1464454183d3ecc0a88c96bec1a",
      "networkId": 0,
      "chainId": 0
    },
    {
      "hash": "0x2ce2df1fc5ea9846685ed6815e12cc494d6f6640b717e985cfae8c5b0cd1ff89",
      "blockHash": "0xde9eba551b4278a41162befc6e75780d0282e66dc99e9888fb88d7b5db240356",
      "blockNumber": 94649,
      "transactionIndex": 4,
      "confirmations": null,
      "from": "0xe6A7a1d47ff21B6321162AEA7C6CB457D5476Bca",
      "gasPrice": {
        "_hex": "0xda620f396"
      },
      "gasLimit": {
        "_hex": "0x55f0"
      },
      "to": "0xE7bD36a7CF4F1F8896378D41177BEf637075a1eD",
      "value": {
        "_hex": "0x1ca53b26b009be28"
      },
      "nonce": 2611,
      "data": "0x",
      "r": "0xae863ff8ad6108a8b2e278a4d4cde6b67e76408bd1f2f1c90b07d7c097d925eb",
      "s": "0x692ddb0d7e9d13805e71c1cdc006042914a92e2bc8e0ecc6721d4ac43b78e92c",
      "v": 28,
      "creates": null,
      "raw": "0xf86e820a33850da620f3968255f094e7bd36a7cf4f1f8896378d41177bef637075a1ed881ca53b26b009be28801ca0ae863ff8ad6108a8b2e278a4d4cde6b67e76408bd1f2f1c90b07d7c097d925eba0692ddb0d7e9d13805e71c1cdc006042914a92e2bc8e0ecc6721d4ac43b78e92c",
      "networkId": 0,
      "chainId": 0
    },
    {
      "hash": "0x7a7497a5b16307df5dad7999b4bd619b3b0325433b588c8f406386771d1512f6",
      "blockHash": "0xde9eba551b4278a41162befc6e75780d0282e66dc99e9888fb88d7b5db240356",
      "blockNumber": 94649,
      "transactionIndex": 5,
      "confirmations": null,
      "from": "0xe6A7a1d47ff21B6321162AEA7C6CB457D5476Bca",
      "gasPrice": {
        "_hex": "0xda620f396"
      },
      "gasLimit": {
        "_hex": "0x55f0"
      },
      "to": "0xb4A9c47d4182b60B07a31d310cEDA8105a1122c4",
      "value": {
        "_hex": "0x1d0a4d16a68ec0d4"
      },
      "nonce": 2612,
      "data": "0x",
      "r": "0x90f2f27c2295784866d4fc0afed22ebef41979d94c55d0b0712fcfdcc4159b70",
      "s": "0x6b4173ebcc979447a41e6c028268393f6672ce913812428a3214d49aaa3c2ac9",
      "v": 28,
      "creates": null,
      "raw": "0xf86e820a34850da620f3968255f094b4a9c47d4182b60b07a31d310ceda8105a1122c4881d0a4d16a68ec0d4801ca090f2f27c2295784866d4fc0afed22ebef41979d94c55d0b0712fcfdcc4159b70a06b4173ebcc979447a41e6c028268393f6672ce913812428a3214d49aaa3c2ac9",
      "networkId": 0,
      "chainId": 0
    },
    {
      "hash": "0xfe4d9459b33ec7180baafe3752fc929a08141f60e4fa013cc7e65043fee144f5",
      "blockHash": "0xde9eba551b4278a41162befc6e75780d0282e66dc99e9888fb88d7b5db240356",
      "blockNumber": 94649,
      "transactionIndex": 6,
      "confirmations": null,
      "from": "0xe6A7a1d47ff21B6321162AEA7C6CB457D5476Bca",
      "gasPrice": {
        "_hex": "0xda620f396"
      },
      "gasLimit": {
        "_hex": "0x55f0"
      },
      "to": "0xFD6B6e67d15931706d607e2358A1b0aA05f8e256",
      "value": {
        "_hex": "0x1d1288ab4af60038"
      },
      "nonce": 2613,
      "data": "0x",
      "r": "0x97ee9a1627486a168a1f5b1a809bb163cde8f28970dd022efc4a37eab8f6240d",
      "s": "0x291d7f4ea7d2b8f626dafceb4042eb9c56888de02c8e302b8b09668f1e959e48",
      "v": 27,
      "creates": null,
      "raw": "0xf86e820a35850da620f3968255f094fd6b6e67d15931706d607e2358a1b0aa05f8e256881d1288ab4af60038801ba097ee9a1627486a168a1f5b1a809bb163cde8f28970dd022efc4a37eab8f6240da0291d7f4ea7d2b8f626dafceb4042eb9c56888de02c8e302b8b09668f1e959e48",
      "networkId": 0,
      "chainId": 0
    },
    {
      "hash": "0x90fdc7b7983f6d09df3caac1d52f9cb106d1ca25846a166da869961848857c9c",
      "blockHash": "0xde9eba551b4278a41162befc6e75780d0282e66dc99e9888fb88d7b5db240356",
      "blockNumber": 94649,
      "transactionIndex": 7,
      "confirmations": null,
      "from": "0xe6A7a1d47ff21B6321162AEA7C6CB457D5476Bca",
      "gasPrice": {
        "_hex": "0xda620f396"
      },
      "gasLimit": {
        "_hex": "0x55f0"
      },
      "to": "0xC5d30A49174e1a78D4b8a71824e78563cB041e94",
      "value": {
        "_hex": "0x1d1c9d2adad6b628"
      },
      "nonce": 2614,
      "data": "0x",
      "r": "0xb986c184cd0114c1f1a98700d0665585a57cd5c3314a36c202911bb8421fd1e9",
      "s": "0x5219abc2f88d675f1f30a91dda80ecca5eb7a4b4508c79cf8d8661f2368277b2",
      "v": 28,
      "creates": null,
      "raw": "0xf86e820a36850da620f3968255f094c5d30a49174e1a78d4b8a71824e78563cb041e94881d1c9d2adad6b628801ca0b986c184cd0114c1f1a98700d0665585a57cd5c3314a36c202911bb8421fd1e9a05219abc2f88d675f1f30a91dda80ecca5eb7a4b4508c79cf8d8661f2368277b2",
      "networkId": 0,
      "chainId": 0
    },
    {
      "hash": "0x3c56485f81251bcdd4d655d3adc14e9f00b8d640b17046e11ca377f4173cbe6e",
      "blockHash": "0xde9eba551b4278a41162befc6e75780d0282e66dc99e9888fb88d7b5db240356",
      "blockNumber": 94649,
      "transactionIndex": 8,
      "confirmations": null,
      "from": "0xe6A7a1d47ff21B6321162AEA7C6CB457D5476Bca",
      "gasPrice": {
        "_hex": "0xda620f396"
      },
      "gasLimit": {
        "_hex": "0x55f0"
      },
      "to": "0xdCe26B66eabfB4dE900E4944DcC2FA2d455021fc",
      "value": {
        "_hex": "0x1d62517d42172d08"
      },
      "nonce": 2615,
      "data": "0x",
      "r": "0x196bf47e71b04e9a8a754514ef02a849691dc5bed0669d113ae7651af122ac1f",
      "s": "0x4b33ca4c921f56f3f24c107de07b35a6165285764ab76e4dffc6077cee6547a0",
      "v": 27,
      "creates": null,
      "raw": "0xf86e820a37850da620f3968255f094dce26b66eabfb4de900e4944dcc2fa2d455021fc881d62517d42172d08801ba0196bf47e71b04e9a8a754514ef02a849691dc5bed0669d113ae7651af122ac1fa04b33ca4c921f56f3f24c107de07b35a6165285764ab76e4dffc6077cee6547a0",
      "networkId": 0,
      "chainId": 0
    },
    {
      "hash": "0xae5395a76c7588aa0d39c33adc0cae10263ab69adb31307a4e806d3db367ca27",
      "blockHash": "0xde9eba551b4278a41162befc6e75780d0282e66dc99e9888fb88d7b5db240356",
      "blockNumber": 94649,
      "transactionIndex": 9,
      "confirmations": null,
      "from": "0xe6A7a1d47ff21B6321162AEA7C6CB457D5476Bca",
      "gasPrice": {
        "_hex": "0xda620f396"
      },
      "gasLimit": {
        "_hex": "0x55f0"
      },
      "to": "0x45fe0E379195681d4C1002eA4Def348C19a320df",
      "value": {
        "_hex": "0x1d7d49ebcfcbfc10"
      },
      "nonce": 2616,
      "data": "0x",
      "r": "0xaa094e0d73c814ec48fb2089ca44b51ecfd5060715e4ceda7c2402e9cf7669d5",
      "s": "0x436306a973d83d5fead02b64bbb951f9cc679a26b9a3636c373d60467b419094",
      "v": 27,
      "creates": null,
      "raw": "0xf86e820a38850da620f3968255f09445fe0e379195681d4c1002ea4def348c19a320df881d7d49ebcfcbfc10801ba0aa094e0d73c814ec48fb2089ca44b51ecfd5060715e4ceda7c2402e9cf7669d5a0436306a973d83d5fead02b64bbb951f9cc679a26b9a3636c373d60467b419094",
      "networkId": 0,
      "chainId": 0
    },
    {
      "hash": "0x5b5d2383e24df0d1eb046270e40ceff27d34a3069b64e7ed23fa898405b07a0c",
      "blockHash": "0xde9eba551b4278a41162befc6e75780d0282e66dc99e9888fb88d7b5db240356",
      "blockNumber": 94649,
      "transactionIndex": 10,
      "confirmations": null,
      "from": "0xe6A7a1d47ff21B6321162AEA7C6CB457D5476Bca",
      "gasPrice": {
        "_hex": "0xda620f396"
      },
      "gasLimit": {
        "_hex": "0x55f0"
      },
      "to": "0xb3c4795Ec98c03A7e38AAF46ef4453558EEe289c",
      "value": {
        "_hex": "0x1d8aaa3394e956f0"
      },
      "nonce": 2617,
      "data": "0x",
      "r": "0x1c410f50399397e8b9b5a9b1cd74d6f88cd11b3e15fa433aa493f8bd13ae3384",
      "s": "0x32c52912056c22792cd25a42e66d5125dfd22dcae707bedfb9d71c4ac6e2c030",
      "v": 27,
      "creates": null,
      "raw": "0xf86e820a39850da620f3968255f094b3c4795ec98c03a7e38aaf46ef4453558eee289c881d8aaa3394e956f0801ba01c410f50399397e8b9b5a9b1cd74d6f88cd11b3e15fa433aa493f8bd13ae3384a032c52912056c22792cd25a42e66d5125dfd22dcae707bedfb9d71c4ac6e2c030",
      "networkId": 0,
      "chainId": 0
    },
    {
      "hash": "0xb607b73875555ee7f0d5890348d1e4e3aed2c37da48a3894ddf03bb21e4791d9",
      "blockHash": "0xde9eba551b4278a41162befc6e75780d0282e66dc99e9888fb88d7b5db240356",
      "blockNumber": 94649,
      "transactionIndex": 11,
      "confirmations": null,
      "from": "0xe6A7a1d47ff21B6321162AEA7C6CB457D5476Bca",
      "gasPrice": {
        "_hex": "0xda620f396"
      },
      "gasLimit": {
        "_hex": "0x55f0"
      },
      "to": "0x3831A4852c55a662aFcFB2a03e8DE8D5899AC4f2",
      "value": {
        "_hex": "0x1da8853c299bc318"
      },
      "nonce": 2618,
      "data": "0x",
      "r": "0x1be97525e317384db8c7961a0d2e7cefbc24e14ce052cabfac00518389b07daa",
      "s": "0x4e13714ee7efad4591cee4d20d03f3893d67dff066950621a9a290345f8f863b",
      "v": 27,
      "creates": null,
      "raw": "0xf86e820a3a850da620f3968255f0943831a4852c55a662afcfb2a03e8de8d5899ac4f2881da8853c299bc318801ba01be97525e317384db8c7961a0d2e7cefbc24e14ce052cabfac00518389b07daaa04e13714ee7efad4591cee4d20d03f3893d67dff066950621a9a290345f8f863b",
      "networkId": 0,
      "chainId": 0
    },
    {
      "hash": "0xfcba3b1b9453134761072937c1f423e0e29e4f585176225329528849f1c5d270",
      "blockHash": "0xde9eba551b4278a41162befc6e75780d0282e66dc99e9888fb88d7b5db240356",
      "blockNumber": 94649,
      "transactionIndex": 12,
      "confirmations": null,
      "from": "0xe6A7a1d47ff21B6321162AEA7C6CB457D5476Bca",
      "gasPrice": {
        "_hex": "0xda620f396"
      },
      "gasLimit": {
        "_hex": "0x55f0"
      },
      "to": "0xb9b373b3776bAcfE434e7c2dc66D4Ee715d91C0E",
      "value": {
        "_hex": "0x1db4eb4f626a7628"
      },
      "nonce": 2619,
      "data": "0x",
      "r": "0xb25322323759318e1c378976b58a835c060a13b6d8c5e2196085b53e7730a8ec",
      "s": "0x33174fdbffe4cededa39facef682f2a530cc6f71c9a7520ee08a9caf01939fa6",
      "v": 27,
      "creates": null,
      "raw": "0xf86e820a3b850da620f3968255f094b9b373b3776bacfe434e7c2dc66d4ee715d91c0e881db4eb4f626a7628801ba0b25322323759318e1c378976b58a835c060a13b6d8c5e2196085b53e7730a8eca033174fdbffe4cededa39facef682f2a530cc6f71c9a7520ee08a9caf01939fa6",
      "networkId": 0,
      "chainId": 0
    },
    {
      "hash": "0x1ff42acdb287e31a0774514042c3a8b3ef030741b938f073cc5265e6939a2c5a",
      "blockHash": "0xde9eba551b4278a41162befc6e75780d0282e66dc99e9888fb88d7b5db240356",
      "blockNumber": 94649,
      "transactionIndex": 13,
      "confirmations": null,
      "from": "0xe6A7a1d47ff21B6321162AEA7C6CB457D5476Bca",
      "gasPrice": {
        "_hex": "0xda620f396"
      },
      "gasLimit": {
        "_hex": "0x55f0"
      },
      "to": "0x248aCc54C440214585155Ba4fe5c9706Fb234061",
      "value": {
        "_hex": "0x1dd7e149df1fb300"
      },
      "nonce": 2620,
      "data": "0x",
      "r": "0x70223007331753b36dc6cf81bce6123430fba81447196ff61e1e48634fb67caf",
      "s": "0x3280e09f6acca670e31aedb91aacb3643b750c97111d23f0c7dbc360f94ba791",
      "v": 28,
      "creates": null,
      "raw": "0xf86e820a3c850da620f3968255f094248acc54c440214585155ba4fe5c9706fb234061881dd7e149df1fb300801ca070223007331753b36dc6cf81bce6123430fba81447196ff61e1e48634fb67cafa03280e09f6acca670e31aedb91aacb3643b750c97111d23f0c7dbc360f94ba791",
      "networkId": 0,
      "chainId": 0
    },
    {
      "hash": "0xdfda606f789bf263857539fc22009226a82a220024d4ea86d6a8166c95c658aa",
      "blockHash": "0xde9eba551b4278a41162befc6e75780d0282e66dc99e9888fb88d7b5db240356",
      "blockNumber": 94649,
      "transactionIndex": 14,
      "confirmations": null,
      "from": "0xe6A7a1d47ff21B6321162AEA7C6CB457D5476Bca",
      "gasPrice": {
        "_hex": "0xda620f396"
      },
      "gasLimit": {
        "_hex": "0x55f0"
      },
      "to": "0x5C2422A39Bcb8E469423cA039cf2b89BbE55E93E",
      "value": {
        "_hex": "0x1e182c578b45c848"
      },
      "nonce": 2621,
      "data": "0x",
      "r": "0xdd628ec5c5d0fa6843f212ea44064ed8ff34fff7ecf825bcac955deec639a9b8",
      "s": "0x4803280cb89b1a546d2778765ca28abc485e22e6bc943db65a56f3d2322ec87c",
      "v": 27,
      "creates": null,
      "raw": "0xf86e820a3d850da620f3968255f0945c2422a39bcb8e469423ca039cf2b89bbe55e93e881e182c578b45c848801ba0dd628ec5c5d0fa6843f212ea44064ed8ff34fff7ecf825bcac955deec639a9b8a04803280cb89b1a546d2778765ca28abc485e22e6bc943db65a56f3d2322ec87c",
      "networkId": 0,
      "chainId": 0
    },
    {
      "hash": "0x0f3181f6f5dbbf74cf31475919ed0f2b899efb04c31dc75eb34d0eda88e50a6b",
      "blockHash": "0xde9eba551b4278a41162befc6e75780d0282e66dc99e9888fb88d7b5db240356",
      "blockNumber": 94649,
      "transactionIndex": 15,
      "confirmations": null,
      "from": "0xe6A7a1d47ff21B6321162AEA7C6CB457D5476Bca",
      "gasPrice": {
        "_hex": "0xda620f396"
      },
      "gasLimit": {
        "_hex": "0x55f0"
      },
      "to": "0x4245FB34599786Dd82dB47c0f4f2B276001a72CF",
      "value": {
        "_hex": "0x1e2391f070182c50"
      },
      "nonce": 2622,
      "data": "0x",
      "r": "0x21fa52bbf01b87e9b92de90f1d93004b4fa00b0c56bd9419810cd99ad950c030",
      "s": "0x5c79f21011b1c30d5a1b7976fe1c90d0c6f02d20fa91a23ceac6489626edd41c",
      "v": 27,
      "creates": null,
      "raw": "0xf86e820a3e850da620f3968255f0944245fb34599786dd82db47c0f4f2b276001a72cf881e2391f070182c50801ba021fa52bbf01b87e9b92de90f1d93004b4fa00b0c56bd9419810cd99ad950c030a05c79f21011b1c30d5a1b7976fe1c90d0c6f02d20fa91a23ceac6489626edd41c",
      "networkId": 0,
      "chainId": 0
    },
    {
      "hash": "0xdfca671e7db6f1a5a6c244f78e8d2e591629077b0c1e5e014fa9c8637a23127b",
      "blockHash": "0xde9eba551b4278a41162befc6e75780d0282e66dc99e9888fb88d7b5db240356",
      "blockNumber": 94649,
      "transactionIndex": 16,
      "confirmations": null,
      "from": "0xe6A7a1d47ff21B6321162AEA7C6CB457D5476Bca",
      "gasPrice": {
        "_hex": "0xda620f396"
      },
      "gasLimit": {
        "_hex": "0x55f0"
      },
      "to": "0xBDda295a4aa9E3A60063548157510B47c6BE932f",
      "value": {
        "_hex": "0x1e8adfea25f75ee8"
      },
      "nonce": 2623,
      "data": "0x",
      "r": "0x8e00d85e422b58251069009258a7400050116c1a3b7dc855af36379039432829",
      "s": "0x3db03c17f7b6681e8778e91c1f6d584fd9d6673efdab4f371d40558a39923894",
      "v": 28,
      "creates": null,
      "raw": "0xf86e820a3f850da620f3968255f094bdda295a4aa9e3a60063548157510b47c6be932f881e8adfea25f75ee8801ca08e00d85e422b58251069009258a7400050116c1a3b7dc855af36379039432829a03db03c17f7b6681e8778e91c1f6d584fd9d6673efdab4f371d40558a39923894",
      "networkId": 0,
      "chainId": 0
    },
    {
      "hash": "0xbc0601b11dbc6546cb0659b84c3edfd904f578078819df150a87edffdebac71b",
      "blockHash": "0xde9eba551b4278a41162befc6e75780d0282e66dc99e9888fb88d7b5db240356",
      "blockNumber": 94649,
      "transactionIndex": 17,
      "confirmations": null,
      "from": "0xe6A7a1d47ff21B6321162AEA7C6CB457D5476Bca",
      "gasPrice": {
        "_hex": "0xda620f396"
      },
      "gasLimit": {
        "_hex": "0x55f0"
      },
      "to": "0x014687B2Ed3c3256fe367D6aC47ab2482E055F6b",
      "value": {
        "_hex": "0x1e9b781080677808"
      },
      "nonce": 2624,
      "data": "0x",
      "r": "0x24f5c9c29c47be9d522e257e321d281cd412150f914f7fc25cc7415e32a42381",
      "s": "0x00db22c7ba538ce5276dd510ddd0eda7359cedbede7dfa2e80eaacfd7f6e0131",
      "v": 28,
      "creates": null,
      "raw": "0xf86d820a40850da620f3968255f094014687b2ed3c3256fe367d6ac47ab2482e055f6b881e9b781080677808801ca024f5c9c29c47be9d522e257e321d281cd412150f914f7fc25cc7415e32a423819fdb22c7ba538ce5276dd510ddd0eda7359cedbede7dfa2e80eaacfd7f6e0131",
      "networkId": 0,
      "chainId": 0
    },
    {
      "hash": "0x916f845e9f9f71bd3b3c42c950c45d989e7cc22f741d573607ad206d3fc9fe9b",
      "blockHash": "0xde9eba551b4278a41162befc6e75780d0282e66dc99e9888fb88d7b5db240356",
      "blockNumber": 94649,
      "transactionIndex": 18,
      "confirmations": null,
      "from": "0xe6A7a1d47ff21B6321162AEA7C6CB457D5476Bca",
      "gasPrice": {
        "_hex": "0xda620f396"
      },
      "gasLimit": {
        "_hex": "0x55f0"
      },
      "to": "0xabF56d5ca441eCAD5979023Ec368b74a8d662d95",
      "value": {
        "_hex": "0x1eca1d4a1cb4ce24"
      },
      "nonce": 2625,
      "data": "0x",
      "r": "0x2acbf704dedaff33ade0ffe5a170fdf1ab9089eedff2ee5fac9a3a32d811a35f",
      "s": "0x7aa48f1939fcd5a2081fbe250c1ee82cd8317107cb6418ab4fbe54f4db0d3a8d",
      "v": 28,
      "creates": null,
      "raw": "0xf86e820a41850da620f3968255f094abf56d5ca441ecad5979023ec368b74a8d662d95881eca1d4a1cb4ce24801ca02acbf704dedaff33ade0ffe5a170fdf1ab9089eedff2ee5fac9a3a32d811a35fa07aa48f1939fcd5a2081fbe250c1ee82cd8317107cb6418ab4fbe54f4db0d3a8d",
      "networkId": 0,
      "chainId": 0
    },
    {
      "hash": "0x24a993350f05d2478716e982671c5844c1a5985954ee7c7577ffc3bfd155b41f",
      "blockHash": "0xde9eba551b4278a41162befc6e75780d0282e66dc99e9888fb88d7b5db240356",
      "blockNumber": 94649,
      "transactionIndex": 19,
      "confirmations": null,
      "from": "0xe6A7a1d47ff21B6321162AEA7C6CB457D5476Bca",
      "gasPrice": {
        "_hex": "0xda620f396"
      },
      "gasLimit": {
        "_hex": "0x55f0"
      },
      "to": "0x64bE1C1A0198370F53B2081e15478BE3135D6beF",
      "value": {
        "_hex": "0x1ef6d75f900ea90c"
      },
      "nonce": 2626,
      "data": "0x",
      "r": "0xf9620b2e67ddad0c171500362d8adfc7f2ad185c27226a1fd5155846e8c7ecbf",
      "s": "0x107dd5ea924768e49e9621afec27efbf47f8bccfd1082098e260e51f872442ef",
      "v": 27,
      "creates": null,
      "raw": "0xf86e820a42850da620f3968255f09464be1c1a0198370f53b2081e15478be3135d6bef881ef6d75f900ea90c801ba0f9620b2e67ddad0c171500362d8adfc7f2ad185c27226a1fd5155846e8c7ecbfa0107dd5ea924768e49e9621afec27efbf47f8bccfd1082098e260e51f872442ef",
      "networkId": 0,
      "chainId": 0
    },
    {
      "hash": "0x3a1f871ae912c5c48d60764a7894e855492b35db1903fbf685ed23a3f8682b2f",
      "blockHash": "0xde9eba551b4278a41162befc6e75780d0282e66dc99e9888fb88d7b5db240356",
      "blockNumber": 94649,
      "transactionIndex": 20,
      "confirmations": null,
      "from": "0xe6A7a1d47ff21B6321162AEA7C6CB457D5476Bca",
      "gasPrice": {
        "_hex": "0xda620f396"
      },
      "gasLimit": {
        "_hex": "0x55f0"
      },
      "to": "0x0f7E5465DB8bC57940471E530a83Fb7Ac5b82d7f",
      "value": {
        "_hex": "0x1f3162b9230a3914"
      },
      "nonce": 2627,
      "data": "0x",
      "r": "0xb2419d203cf711f7bcb1f427492657177767ee557075344afa56454d4ecce9c2",
      "s": "0x361dbf720880b1f9786b79a9082cf92fc9827c9ddd0b0d57e2cec223dc184392",
      "v": 28,
      "creates": null,
      "raw": "0xf86e820a43850da620f3968255f0940f7e5465db8bc57940471e530a83fb7ac5b82d7f881f3162b9230a3914801ca0b2419d203cf711f7bcb1f427492657177767ee557075344afa56454d4ecce9c2a0361dbf720880b1f9786b79a9082cf92fc9827c9ddd0b0d57e2cec223dc184392",
      "networkId": 0,
      "chainId": 0
    },
    {
      "hash": "0x002ec33c3696127b8f147a4cd7d5fe514f57e73b614d1f40a4019e21ab96433f",
      "blockHash": "0xde9eba551b4278a41162befc6e75780d0282e66dc99e9888fb88d7b5db240356",
      "blockNumber": 94649,
      "transactionIndex": 21,
      "confirmations": null,
      "from": "0xe6A7a1d47ff21B6321162AEA7C6CB457D5476Bca",
      "gasPrice": {
        "_hex": "0xda620f396"
      },
      "gasLimit": {
        "_hex": "0x55f0"
      },
      "to": "0x9aB9F7a4B85412bfbe2f4F63b1C98808851C4F32",
      "value": {
        "_hex": "0x1f3bd89b1ac52f2c"
      },
      "nonce": 2628,
      "data": "0x",
      "r": "0x84057d65d8ef7828f90b3c9fdcd4cd2243d66ff7328b0b00ba77ae8870f2ffbb",
      "s": "0x04ffca0bfddae476456f68807b23047d9bef646b5c35fee0c318a330386d8834",
      "v": 27,
      "creates": null,
      "raw": "0xf86e820a44850da620f3968255f0949ab9f7a4b85412bfbe2f4f63b1c98808851c4f32881f3bd89b1ac52f2c801ba084057d65d8ef7828f90b3c9fdcd4cd2243d66ff7328b0b00ba77ae8870f2ffbba004ffca0bfddae476456f68807b23047d9bef646b5c35fee0c318a330386d8834",
      "networkId": 0,
      "chainId": 0
    },
    {
      "hash": "0xd2007a767908c9593f4cd770591c3fd8f9ddeb143246759da4b3fefb454d6db7",
      "blockHash": "0xde9eba551b4278a41162befc6e75780d0282e66dc99e9888fb88d7b5db240356",
      "blockNumber": 94649,
      "transactionIndex": 22,
      "confirmations": null,
      "from": "0xe6A7a1d47ff21B6321162AEA7C6CB457D5476Bca",
      "gasPrice": {
        "_hex": "0xda620f396"
      },
      "gasLimit": {
        "_hex": "0x55f0"
      },
      "to": "0xe512429AB3036301dC4c56F9a4c9991dCbb6b496",
      "value": {
        "_hex": "0x1f5eb8baae04e968"
      },
      "nonce": 2629,
      "data": "0x",
      "r": "0xa2abf1a652ca81228ffa943ea36f5731a603f0968a292149ebd4f159bf6bcbfa",
      "s": "0x46444a13aa6a268b7b06a3c5636faa70183c914be3acaa4a0991d4398d7fd7b1",
      "v": 28,
      "creates": null,
      "raw": "0xf86e820a45850da620f3968255f094e512429ab3036301dc4c56f9a4c9991dcbb6b496881f5eb8baae04e968801ca0a2abf1a652ca81228ffa943ea36f5731a603f0968a292149ebd4f159bf6bcbfaa046444a13aa6a268b7b06a3c5636faa70183c914be3acaa4a0991d4398d7fd7b1",
      "networkId": 0,
      "chainId": 0
    },
    {
      "hash": "0x43e0aeb06ea6b7a17ef4e2afd04ecd0ec1e6f7df90b832748e2f8a7972c7536c",
      "blockHash": "0xde9eba551b4278a41162befc6e75780d0282e66dc99e9888fb88d7b5db240356",
      "blockNumber": 94649,
      "transactionIndex": 23,
      "confirmations": null,
      "from": "0xe6A7a1d47ff21B6321162AEA7C6CB457D5476Bca",
      "gasPrice": {
        "_hex": "0xda620f396"
      },
      "gasLimit": {
        "_hex": "0x55f0"
      },
      "to": "0x6B4971F56172Fe56565FD3d6b56F8CA3C91B2baD",
      "value": {
        "_hex": "0x1fc15d4de8018e10"
      },
      "nonce": 2630,
      "data": "0x",
      "r": "0xa679cee4fb9c8eabe9583bc544e0e889583d014fd1cb7e2811df9274f4b25690",
      "s": "0x704e8e06a0fb3defbc5fcab4a2d18ee367a5f16c65ea28f9d3e76c40b010d3ae",
      "v": 27,
      "creates": null,
      "raw": "0xf86e820a46850da620f3968255f0946b4971f56172fe56565fd3d6b56f8ca3c91b2bad881fc15d4de8018e10801ba0a679cee4fb9c8eabe9583bc544e0e889583d014fd1cb7e2811df9274f4b25690a0704e8e06a0fb3defbc5fcab4a2d18ee367a5f16c65ea28f9d3e76c40b010d3ae",
      "networkId": 0,
      "chainId": 0
    },
    {
      "hash": "0x6cb7b8af93691bfa9cac9fdaf2767afd7a975f1d12085e82fd78091152c808a5",
      "blockHash": "0xde9eba551b4278a41162befc6e75780d0282e66dc99e9888fb88d7b5db240356",
      "blockNumber": 94649,
      "transactionIndex": 24,
      "confirmations": null,
      "from": "0xe6A7a1d47ff21B6321162AEA7C6CB457D5476Bca",
      "gasPrice": {
        "_hex": "0xda620f396"
      },
      "gasLimit": {
        "_hex": "0x55f0"
      },
      "to": "0x985D744C50fdcB355d105EE00565A8b32BF0B08f",
      "value": {
        "_hex": "0x2088acbca94cbd58"
      },
      "nonce": 2631,
      "data": "0x",
      "r": "0x948dbd24b415fe3494486fa5f72c71553f8f92ccd96ff7d3fc6abf28c98415dd",
      "s": "0x215c07e21c2a1686a1875f37f7baf775743f2dd6ecec60ac91daabac6f677586",
      "v": 27,
      "creates": null,
      "raw": "0xf86e820a47850da620f3968255f094985d744c50fdcb355d105ee00565a8b32bf0b08f882088acbca94cbd58801ba0948dbd24b415fe3494486fa5f72c71553f8f92ccd96ff7d3fc6abf28c98415dda0215c07e21c2a1686a1875f37f7baf775743f2dd6ecec60ac91daabac6f677586",
      "networkId": 0,
      "chainId": 0
    },
    {
      "hash": "0x2d9e4e1f6c0af03fb3a117857d189538fcc73ad2a7664025843914b08c70c59d",
      "blockHash": "0xde9eba551b4278a41162befc6e75780d0282e66dc99e9888fb88d7b5db240356",
      "blockNumber": 94649,
      "transactionIndex": 25,
      "confirmations": null,
      "from": "0xe6A7a1d47ff21B6321162AEA7C6CB457D5476Bca",
      "gasPrice": {
        "_hex": "0xda620f396"
      },
      "gasLimit": {
        "_hex": "0x55f0"
      },
      "to": "0x03B35D960c861Fe987C50380d76db9D6Ae1fa510",
      "value": {
        "_hex": "0x2099838989ae1dc0"
      },
      "nonce": 2632,
      "data": "0x",
      "r": "0x331e6aec22f7ebd823781a190720238708064949d5ff49a9f16fca085f7688af",
      "s": "0x65231d3e11300c7f43c5a9053f9895adec3e7544db936d17a675771f3eff9c2d",
      "v": 27,
      "creates": null,
      "raw": "0xf86e820a48850da620f3968255f09403b35d960c861fe987c50380d76db9d6ae1fa510882099838989ae1dc0801ba0331e6aec22f7ebd823781a190720238708064949d5ff49a9f16fca085f7688afa065231d3e11300c7f43c5a9053f9895adec3e7544db936d17a675771f3eff9c2d",
      "networkId": 0,
      "chainId": 0
    },
    {
      "hash": "0xb06584bd87815a7d1b94e328190f6ea50f6921955c355bece909cba00c4974cc",
      "blockHash": "0xde9eba551b4278a41162befc6e75780d0282e66dc99e9888fb88d7b5db240356",
      "blockNumber": 94649,
      "transactionIndex": 26,
      "confirmations": null,
      "from": "0xe6A7a1d47ff21B6321162AEA7C6CB457D5476Bca",
      "gasPrice": {
        "_hex": "0xda620f396"
      },
      "gasLimit": {
        "_hex": "0x55f0"
      },
      "to": "0xe7Dff7122b8eA1496643c6D3EDA7150F614dBf1c",
      "value": {
        "_hex": "0x20acb5bdfcad0fd8"
      },
      "nonce": 2633,
      "data": "0x",
      "r": "0xe9d9d300857525c3a96b821a51c3bed859826ac3a9d97deb76a3ecdc19fd5ee3",
      "s": "0x6277aae72b3166d560fe00e167e6ecb32ca88d36fab06008524bb05a3ec7bb81",
      "v": 28,
      "creates": null,
      "raw": "0xf86e820a49850da620f3968255f094e7dff7122b8ea1496643c6d3eda7150f614dbf1c8820acb5bdfcad0fd8801ca0e9d9d300857525c3a96b821a51c3bed859826ac3a9d97deb76a3ecdc19fd5ee3a06277aae72b3166d560fe00e167e6ecb32ca88d36fab06008524bb05a3ec7bb81",
      "networkId": 0,
      "chainId": 0
    }
  ]
}