{
  "hash": "0xc73ee0cf4e2d00b4afe99a4beef44345e7aa5e63a6ef4aec134fde27bd9ac732",
  "parentHash": "0x300d5a9428eb27494948aa78e2f9046b09ae55c93ccbfbef29bafbf7c3902c2d",
  "number": 120428,
  "timestamp": 1440159875,
  "nonce": "0x4b9e68f1d203cd9c",
  "difficulty": 4393916709171,
  "gasLimit": {
    "_hex": "0x2fefd8"
  },
  "gasUsed": {
    "_hex": "0xa410"
  },
  "miner": "0xbb7B8287f3F0a933474a79eAe42CBCa977791171",
  "extraData": "0xd783010003844765746887676f312e342e32856c696e7578",
  "transactions": [
    {
      "hash": "0x3b9a2484af9a15c48794c999b057cc4ece6b80e2ee66e3bb996f27c651261731",
      "blockHash": "0xc73ee0cf4e2d00b4afe99a4beef44345e7aa5e63a6ef4aec134fde27bd9ac732",
      "blockNumber": 120428,
      "transactionIndex": 0,
      "confirmations": null,
      "from": "0xa9f5E7bf6Cbf6fEc55B30850Eb492b47A376d050",
      "gasPrice": {
        "_hex": "0xba43b7400"
      },
      "gasLimit": {
        "_hex": "0x5208"
      },
      "to": "0x32Be343B94f860124dC4fEe278FDCBD38C102D88",
      "value": {
        "_hex": "0x324e5a9bbbfa46000"
      },
      "nonce": 36,
      "data": "0x",
      "r": "0x76347e56b155ac1f5adc81733b5c27e193dafdbe30a744120f67b7ff1977a798",
      "s": "0x5ec466829e828bfa206338978d0c701bed7ac742b5deef579239b9427f676a10",
      "v": 27,
      "creates": null,
      "raw": "0xf86d24850ba43b74008252089432be343b94f860124dc4fee278fdcbd38c102d88890324e5a9bbbfa46000801ba076347e56b155ac1f5adc81733b5c27e193dafdbe30a744120f67b7ff1977a798a05ec466829e828bfa206338978d0c701bed7ac742b5deef579239b9427f676a10",
      "networkId": 0,
      "chainId": 0
    },
    {
      "hash": "0x4c205228e9cc9f4f9675faf2b825c85057574e723d7d6cda3ca7bff5e29620f2",
      "blockHash": "0xc73ee0cf4e2d00b4afe99a4beef44345e7aa5e63a6ef4aec134fde27bd9ac732",
      "blockNumber": 120428,
      "transactionIndex": 1,
      "confirmations": null,
      "from": "0x608f4b86321a68453f9adf6F06F7Fc3E621739ad",
      "gasPrice": {
        "_hex": "0xba43b7400"
      },
      "gasLimit": {
        "_hex": "0x5208"
      },
      "to": "0x32Be343B94f860124dC4fEe278FDCBD38C102D88",
      "value": {
        "_hex": "0xd47d32a6c627a000"
      },
      "nonce": 67,
      "data": "0x",
      "r": "0xc74aee5d30f113e8d0821d2fc48f287233f5d94ef2abf32006088f733de825e0",
      "s": "0x6ddbd7ad9ba39765ac74b49157c271a849d025bc98ca2ec6f0d3e5755b53849a",
      "v": 28,
      "creates": null,
      "raw": "0xf86c43850ba43b74008252089432be343b94f860124dc4fee278fdcbd38c102d8888d47d32a6c627a000801ca0c74aee5d30f113e8d0821d2fc48f287233f5d94ef2abf32006088f733de825e0a06ddbd7ad9ba39765ac74b49157c271a849d025bc98ca2ec6f0d3e5755b53849a",
      "networkId": 0,
      "chainId": 0
    }
  ]
}