{
  "hash": "0x40d22fd2ff9cd04367bd4fcf3d10bde7426ecaa81424af823365b6d84d8357bb",
  "parentHash": "0x2acca9b23a2370d297d2e40b1374bf0b9481a13d77e9568663fe9f2f24b21853",
  "number": 94379,
  "timestamp": 1439707300,
  "nonce": "0xad742e769b6e7d42",
  "difficulty": 3491795684410,
  "gasLimit": {
    "_hex": "0x2fefd5"
  },
  "gasUsed": {
    "_hex": "0x357c8"
  },
  "miner": "0xe6A7a1d47ff21B6321162AEA7C6CB457D5476Bca",
  "extraData": "0x476574682f76312e302e312d38326566323666362f6c696e75782f676f312e34",
  "transactions": [
    {
      "hash": "0x8477238328debbd61a50d09e89217afbce963aef1a89ec7bbe5c965b638f4322",
      "blockHash": "0x40d22fd2ff9cd04367bd4fcf3d10bde7426ecaa81424af823365b6d84d8357bb",
      "blockNumber": 94379,
      "transactionIndex": 0,
      "confirmations": null,
      "from": "0x4B85e9D2e433D7EcA29f8A7A859Cf0346702c89a",
      "gasPrice": {
        "_hex": "0xd486dc7ec"
      },
      "gasLimit": {
        "_hex": "0xf4240"
      },
      "to": null,
      "value": {
        "_hex": "0x0"
      },
      "nonce": 2,
      "data": "0x606060405260405160208061025a8339016040526060805190602001505b8080602757506127105b600060005060003373ffffffffffffffffffffffffffffffffffffffff168152602001908152602001600020600050819055505b506101ef8061006b6000396000f30060606040526000357c01000000000000000000000000000000000000000000000000000000009004806390b98a1114610044578063bbd39ac01461007157610042565b005b61005b6004803590602001803590602001506100b3565b6040518082815260200191505060405180910390f35b610082600480359060200150610098565b6040518082815260200191505060405180910390f35b60006000506020528060005260406000206000915090505481565b600081600060005060003373ffffffffffffffffffffffffffffffffffffffff1681526020019081526020016000206000505410156100f557600090506101e9565b81600060005060003373ffffffffffffffffffffffffffffffffffffffff16815260200190815260200160002060008282825054039250508190555081600060005060008573ffffffffffffffffffffffffffffffffffffffff1681526020019081526020016000206000828282505401925050819055507f16cdf1707799c6655baac6e210f52b94b7cec08adcaf9ede7dfe8649da926146338484604051808473ffffffffffffffffffffffffffffffffffffffff1681526020018373ffffffffffffffffffffffffffffffffffffffff168152602001828152602001935050505060405180910390a1600190506101e9565b92915050560000000000000000000000000000000000000000000000000000000000002710",
      "r": "0x506e05a5795e0e574dae8b6fd4b6fea35207a75e29be47ffe665c6432a5057f8",
      "s": "0x2923fb4000334c187309d07bc672def0bac319a3088ebb6f386ff67a415b6f12",
      "v": 27,
      "creates": "0x4A94787103A50a04f64a95cDcE2c968643D05ABd",
      "raw": "0xf902cd02850d486dc7ec830f42408080b9027a606060405260405160208061025a8339016040526060805190602001505b8080602757506127105b600060005060003373ffffffffffffffffffffffffffffffffffffffff168152602001908152602001600020600050819055505b506101ef8061006b6000396000f30060606040526000357c01000000000000000000000000000000000000000000000000000000009004806390b98a1114610044578063bbd39ac01461007157610042565b005b61005b6004803590602001803590602001506100b3565b6040518082815260200191505060405180910390f35b610082600480359060200150610098565b6040518082815260200191505060405180910390f35b60006000506020528060005260406000206000915090505481565b600081600060005060003373ffffffffffffffffffffffffffffffffffffffff1681526020019081526020016000206000505410156100f557600090506101e9565b81600060005060003373ffffffffffffffffffffffffffffffffffffffff16815260200190815260200160002060008282825054039250508190555081600060005060008573ffffffffffffffffffffffffffffffffffffffff1681526020019081526020016000206000828282505401925050819055507f16cdf1707799c6655baac6e210f52b94b7cec08adcaf9ede7dfe8649da926146338484604051808473ffffffffffffffffffffffffffffffffffffffff1681526020018373ffffffffffffffffffffffffffffffffffffffff168152602001828152602001935050505060405180910390a1600190506101e9565b929150505600000000000000000000000000000000000000000000000000000000000027101ba0506e05a5795e0e574dae8b6fd4b6fea35207a75e29be47ffe665c6432a5057f8a02923fb4000334c187309d07bc672def0bac319a3088ebb6f386ff67a415b6f12",
      "networkId": 0,
      "chainId": 0
    },
    {
      "hash": "0xd0c94b490d9cad9884b682cb1bde16103be2f1788d0b3a3a872c18101886cfe3",
      "blockHash": "0x40d22fd2ff9cd04367bd4fcf3d10bde7426ecaa81424af823365b6d84d8357bb",
      "blockNumber": 94379,
      "transactionIndex": 1,
      "confirmations": null,
      "from": "0xbCb0DE0Aaeb72a37fA29b1Cd6e4Da5941F22461F",
      "gasPrice": {
        "_hex": "0xcaed18a64"
      },
      "gasLimit": {
        "_hex": "0x30d40"
      },
      "to": "0x120A270bbC009644e35F0bB6ab13f95b8199c4ad",
      "value": {
        "_hex": "0x8e3ce5696447a5300"
      },
      "nonce": 0,
      "data": "0x",
      "r": "0x35bcaf54ef13a9785a974915cba7705f5dcfabc2868ad79f2370e02e96444c54",
      "s": "0x0a831467419736070ef15c1f065dfe11bc237725bacf9634ed56b7cd0c5e1b39",
      "v": 27,
      "creates": null,
      "raw": "0xf86e80850caed18a6483030d4094120a270bbc009644e35f0bb6ab13f95b8199c4ad8908e3ce5696447a5300801ba035bcaf54ef13a9785a974915cba7705f5dcfabc2868ad79f2370e02e96444c54a00a831467419736070ef15c1f065dfe11bc237725bacf9634ed56b7cd0c5e1b39",
      "networkId": 0,
      "chainId": 0
    },
    {
      "hash": "0x2231954035cccc8299e03b3b2b4d837c365b05096d93dd3d984e31428ad5019b",
      "blockHash": "0x40d22fd2ff9cd04367bd4fcf3d10bde7426ecaa81424af823365b6d84d8357bb",
      "blockNumber": 94379,
      "transactionIndex": 2,
      "confirmations": null,
      "from": "0xacbAe59a8F0605Cc27A852Ca1BA336789Fb8127d",
      "gasPrice": {
        "_hex": "0xcaed18a64"
      },
      "gasLimit": {
        "_hex": "0x30d40"
      },
      "to": "0x120A270bbC009644e35F0bB6ab13f95b8199c4ad",
      "value": {
        "_hex": "0x3a5869939e020700"
      },
      "nonce": 0,
      "data": "0x",
      "r": "0xef1a5fc4f5ec9dd73bcd57f38e39171035f70b5fc92c542d014d98bcc4b84c5d",
      "s": "0x36dfef1da2e7aa964b8428e9f3a8825ec7950ec6794678a39680a7895d53ea39",
      "v": 28,
      "creates": null,
      "raw": "0xf86d80850caed18a6483030d4094120a270bbc009644e35f0bb6ab13f95b8199c4ad883a5869939e020700801ca0ef1a5fc4f5ec9dd73bcd57f38e39171035f70b5fc92c542d014d98bcc4b84c5da036dfef1da2e7aa964b8428e9f3a8825ec7950ec6794678a39680a7895d53ea39",
      "networkId": 0,
      "chainId": 0
    }
  ]
}