{
  "hash": "0x472078e427966d6d43fd199b06caa1f94f30aaad2b63ded6bc12e1de50e2e290",
  "parentHash": "0x9364edeaa7e35c8fec39f330637188343717eed79da9c327f92e7895a93fb35d",
  "number": 59288,
  "timestamp": 1439135496,
  "nonce": "0x7ab7e5d24a89e540",
  "difficulty": 1708064677836,
  "gasLimit": {
    "_hex": "0x2fefd8"
  },
  "gasUsed": {
    "_hex": "0x5208"
  },
  "miner": "0x3F98e477a361F777DA14611a7e419A75Fd238b6b",
  "extraData": "0x476574682f76312e302e312f6c696e75782f676f312e342e32",
  "transactions": [
    {
      "hash": "0x62b38ef33f60688cbd523857cdefe0f74154c25f058929aa2e8548940518f199",
      "blockHash": "0x472078e427966d6d43fd199b06caa1f94f30aaad2b63ded6bc12e1de50e2e290",
      "blockNumber": 59288,
      "transactionIndex": 0,
      "confirmations": null,
      "from": "0x00ec3B9E2e7Ba7FFBd1D77d100a29f8055C258Bb",
      "gasPrice": {
        "_hex": "0x2000000000"
      },
      "gasLimit": {
        "_hex": "0x7fff"
      },
      "to": "0x008B1D771AF0dCFd83C30D9D93f3B83CdF18BebA",
      "value": {
        "_hex": "0x38d7ea4c68000"
      },
      "nonce": 5,
      "data": "0x",
      "r": "0x2d40ecbecb83c6976bed5f56c5348712a6360112207ad42c7419b28184c2e4ee",
      "s": "0xb95da009148e402a54fe1eb3d1aebe6633928ddb098cfad56cdd381b55923f47",
      "v": 27,
      "creates": null,
      "raw": "0xf86b05852000000000827fff94008b1d771af0dcfd83c30d9d93f3b83cdf18beba87038d7ea4c68000801ba02d40ecbecb83c6976bed5f56c5348712a6360112207ad42c7419b28184c2e4eea0b95da009148e402a54fe1eb3d1aebe6633928ddb098cfad56cdd381b55923f47",
      "networkId": 0,
      "chainId": 0
    }
  ]
}