{
  "hash": "0x854a8d1dd4c3a98e8ccd3b9fd98293d4c180b8047e7ae80d476e3d1ddc1b5f3b",
  "parentHash": "0x14618f19745e10261def826586f0e4256bebf29bc8127dd8c8f9bfadb26f91ef",
  "number": 114944,
  "timestamp": 1440049100,
  "nonce": "0xcd11b9929969e7df",
  "difficulty": 4479132776391,
  "gasLimit": {
    "_hex": "0x2fefd8"
  },
  "gasUsed": {
    "_hex": "0x5208"
  },
  "miner": "0xe6A7a1d47ff21B6321162AEA7C6CB457D5476Bca",
  "extraData": "0x476574682f76312e302e312d38326566323666362f6c696e75782f676f312e34",
  "transactions": [
    {
      "hash": "0x37896b88ca70e769d9b04936f566c21105090356ccd55352a0edc0eaa5502e72",
      "blockHash": "0x854a8d1dd4c3a98e8ccd3b9fd98293d4c180b8047e7ae80d476e3d1ddc1b5f3b",
      "blockNumber": 114944,
      "transactionIndex": 0,
      "confirmations": null,
      "from": "0x623d2411c3bb3340784155F9a688b0085251aB5c",
      "gasPrice": {
        "_hex": "0xd641f460d"
      },
      "gasLimit": {
        "_hex": "0x55f0"
      },
      "to": "0xB9eE81c1A5CdE84454DC603a8000836118627cfd",
      "value": {
        "_hex": "0x2386f26fc10000"
      },
      "nonce": 7,
      "data": "0x",
      "r": "0x4bf26479b7f9f1a6e43da64168c067751c526f9b7211a6a9cad05ce2e531a8f7",
      "s": "0x169749f4cfdee608b749ab05c311ebd48c177f3bf80b0e5fce44729a4572f4fa",
      "v": 27,
      "creates": null,
      "raw": "0xf86b07850d641f460d8255f094b9ee81c1a5cde84454dc603a8000836118627cfd872386f26fc10000801ba04bf26479b7f9f1a6e43da64168c067751c526f9b7211a6a9cad05ce2e531a8f7a0169749f4cfdee608b749ab05c311ebd48c177f3bf80b0e5fce44729a4572f4fa",
      "networkId": 0,
      "chainId": 0
    }
  ]
}