{
  "hash": "0x16734a8fa20af600381753899aa89229c9ae54655751036dce1a7e4f3c5d7608",
  "parentHash": "0xb2441631096750d4b5666266f0fa6b279a2650d95256d9784f98baad31adb521",
  "number": 54565,
  "timestamp": 1439056218,
  "nonce": "0x174d675c28e15181",
  "difficulty": 1622029089530,
  "gasLimit": {
    "_hex": "0x2fefd8"
  },
  "gasUsed": {
    "_hex": "0x5208"
  },
  "miner": "0xC759dc67E0c3816fdC56A2f5bb29920fc07e767D",
  "extraData": "0x476574682f76312e302e312f77696e646f77732f676f312e342e32",
  "transactions": [
    {
      "hash": "0xc3711bd77121c6845f67f25702bfce81d8046739fa7fa607e170ade41b2191f7",
      "blockHash": "0x16734a8fa20af600381753899aa89229c9ae54655751036dce1a7e4f3c5d7608",
      "blockNumber": 54565,
      "transactionIndex": 0,
      "confirmations": null,
      "from": "0x1C257ad4A55105ea3B58Ed374b198dA266c85f63",
      "gasPrice": {
        "_hex": "0x11511ca830d"
      },
      "gasLimit": {
        "_hex": "0x5208"
      },
      "to": "0x439632734cdF5a84774156c1938CbeDe2eF398F0",
      "value": {
        "_hex": "0xa922b2ad8812c0000"
      },
      "nonce": 10,
      "data": "0x",
      "r": "0xb7b2a256dc5e2eb569b5b344abb42c90f5e84740c38391446e2d5d3050b93536",
      "s": "0x416aaec06956c60336c8a8b302af5d467d8070d3e382d9d6f1bf2c4e116eff1d",
      "v": 27,
      "creates": null,
      "raw": "0xf86e0a86011511ca830d82520894439632734cdf5a84774156c1938cbede2ef398f0890a922b2ad8812c0000801ba0b7b2a256dc5e2eb569b5b344abb42c90f5e84740c38391446e2d5d3050b93536a0416aaec06956c60336c8a8b302af5d467d8070d3e382d9d6f1bf2c4e116eff1d",
      "networkId": 0,
      "chainId": 0
    }
  ]
}