{
  "hash": "0xf946e83dbe58262adbd29a9a679aeb6105150a02012ea9c471da530dc900aad1",
  "parentHash": "0x583a89b05f7321fe0631d39d86198c38bb4b7739a75571475000df6b8f464be3",
  "number": 90658,
  "timestamp": 1439643478,
  "nonce": "0x62ca47ce739d14c7",
  "difficulty": 3341521048950,
  "gasLimit": {
    "_hex": "0x2fefd8"
  },
  "gasUsed": {
    "_hex": "0x5208"
  },
  "miner": "0x790b8a3cE86E707ED0eD32bF89B3269692a23CC1",
  "extraData": "0xd783010001844765746887676f312e342e32856c696e7578",
  "transactions": [
    {
      "hash": "0x62c1bd60b815d86bfd160413e297645c6741e6a4f3ced7f90bf10f90e441bdb3",
      "blockHash": "0xf946e83dbe58262adbd29a9a679aeb6105150a02012ea9c471da530dc900aad1",
      "blockNumber": 90658,
      "transactionIndex": 0,
      "confirmations": null,
      "from": "0x0fFecdF99016b9C74f1088c858B0A6b71992A471",
      "gasPrice": {
        "_hex": "0xdfcd0553b"
      },
      "gasLimit": {
        "_hex": "0x5208"
      },
      "to": "0x32Be343B94f860124dC4fEe278FDCBD38C102D88",
      "value": {
        "_hex": "0x6c6b8abb6238340000"
      },
      "nonce": 7,
      "data": "0x",
      "r": "0x16f32532b136a8b085a9fee37a3814d7bea87d941304866c0d63c9c9bf8317ac",
      "s": "0x7b78f544324b3db7f446c45dfa42f052fc62987564e4114ff6bc5fdcb14a487a",
      "v": 28,
      "creates": null,
      "raw": "0xf86d07850dfcd0553b8252089432be343b94f860124dc4fee278fdcbd38c102d88896c6b8abb6238340000801ca016f32532b136a8b085a9fee37a3814d7bea87d941304866c0d63c9c9bf8317aca07b78f544324b3db7f446c45dfa42f052fc62987564e4114ff6bc5fdcb14a487a",
      "networkId": 0,
      "chainId": 0
    }
  ]
}