{
  "hash": "0xd706e3612b5ca12901ddea44376af7c28ff4bc6f259096ef1af58f8d412aa3a7",
  "parentHash": "0x3bdacccf9ae45e41d4f1ed27a3e875fd6bbcbf2633f615e34e5743a0e0c97dfa",
  "number": 92061,
  "timestamp": 1439666243,
  "nonce": "0x3df09e4f52836761",
  "difficulty": 3472355139715,
  "gasLimit": {
    "_hex": "0x2fefd8"
  },
  "gasUsed": {
    "_hex": "0x5208"
  },
  "miner": "0x02017Ae4e03d3eB7322e0Fcd8738CA20AFDE53e4",
  "extraData": "0x476574682f76312e302e312f6c696e75782f676f312e342e32",
  "transactions": [
    {
      "hash": "0x1a8ad9f8618aacb84e0e2de8e5b0ba6a573b03f87815fc16eb9d3d9edc11c36d",
      "blockHash": "0xd706e3612b5ca12901ddea44376af7c28ff4bc6f259096ef1af58f8d412aa3a7",
      "blockNumber": 92061,
      "transactionIndex": 0,
      "confirmations": null,
      "from": "0x120A270bbC009644e35F0bB6ab13f95b8199c4ad",
      "gasPrice": {
        "_hex": "0xe01e455a6"
      },
      "gasLimit": {
        "_hex": "0x3d090"
      },
      "to": "0x36B33F21Ba59c53E3502E52b8e0a7fD311215FFd",
      "value": {
        "_hex": "0x1cfc874a830cf86400"
      },
      "nonce": 540,
      "data": "0x",
      "r": "0x95405c2f1c3dd18ef6e41490e8ef17dd9f787d1bc35a2d79737546672f10e5ba",
      "s": "0x240adfd276777506ec98104a4058d93b24d6b6a0c68405fc541bbb191ac03bf8",
      "v": 28,
      "creates": null,
      "raw": "0xf87082021c850e01e455a68303d0909436b33f21ba59c53e3502e52b8e0a7fd311215ffd891cfc874a830cf86400801ca095405c2f1c3dd18ef6e41490e8ef17dd9f787d1bc35a2d79737546672f10e5baa0240adfd276777506ec98104a4058d93b24d6b6a0c68405fc541bbb191ac03bf8",
      "networkId": 0,
      "chainId": 0
    }
  ]
}