{
  "hash": "0x712343bc98056f01c6fa8cb34b2e19193c33db8ca9649f4e1dc8e2d03ada3976",
  "parentHash": "0xa8a57d573e1721d7b7be38534c6587abbec91e706a9365bdb42d434225f782e3",
  "number": 91375,
  "timestamp": 1439654767,
  "nonce": "0xb3ce32ff6e9489f1",
  "difficulty": 3469249518080,
  "gasLimit": {
    "_hex": "0x2fefd8"
  },
  "gasUsed": {
    "_hex": "0x5208"
  },
  "miner": "0x05f74a38293C914C6B14a39f5d8dEa98f22E4FBA",
  "extraData": "0x",
  "transactions": [
    {
      "hash": "0x885def706f0445eb1e463b32ad9f529a70fd550ce73bde847f24dce8613a4b12",
      "blockHash": "0x712343bc98056f01c6fa8cb34b2e19193c33db8ca9649f4e1dc8e2d03ada3976",
      "blockNumber": 91375,
      "transactionIndex": 0,
      "confirmations": null,
      "from": "0x6De181Fc4C140FA31F196e5393516c49EEeBdAd3",
      "gasPrice": {
        "_hex": "0xdd7832690"
      },
      "gasLimit": {
        "_hex": "0x5208"
      },
      "to": "0x32Be343B94f860124dC4fEe278FDCBD38C102D88",
      "value": {
        "_hex": "0x38609f425c1930000"
      },
      "nonce": 15,
      "data": "0x",
      "r": "0x92ce005ad32c6ed0a1475fd280bc31e2bc9fd576ebec860b1a674db6ca6afdcb",
      "s": "0x531daa73fdf2cff933625e5d69c454932af059388537e2c57832e89edd7c167a",
      "v": 27,
      "creates": null,
      "raw": "0xf86d0f850dd78326908252089432be343b94f860124dc4fee278fdcbd38c102d8889038609f425c1930000801ba092ce005ad32c6ed0a1475fd280bc31e2bc9fd576ebec860b1a674db6ca6afdcba0531daa73fdf2cff933625e5d69c454932af059388537e2c57832e89edd7c167a",
      "networkId": 0,
      "chainId": 0
    }
  ]
}