{
  "hash": "0xedf81746dfbc08d906bd3fdc69ce9ae96db877d951292eb5bc701f17ba88ec29",
  "parentHash": "0xb6cfcd9820927af54cd99a134b24eadc3d4afce35cd28c61789d2ac14213073e",
  "number": 102002,
  "timestamp": 1439831224,
  "nonce": "0x18dbb957f1783d30",
  "difficulty": 3916624005062,
  "gasLimit": {
    "_hex": "0x2fefd8"
  },
  "gasUsed": {
    "_hex": "0xa410"
  },
  "miner": "0xe6A7a1d47ff21B6321162AEA7C6CB457D5476Bca",
  "extraData": "0x476574682f76312e302e312d38326566323666362f6c696e75782f676f312e34",
  "transactions": [
    {
      "hash": "0x76ace8ce980b62667721bcb1b361b6f7e1cff36f0ca350d9b51d30b56acd645d",
      "blockHash": "0xedf81746dfbc08d906bd3fdc69ce9ae96db877d951292eb5bc701f17ba88ec29",
      "blockNumber": 102002,
      "transactionIndex": 0,
      "confirmations": null,
      "from": "0xf97c06a1C52C08B97b9D362b3F69985940317127",
      "gasPrice": {
        "_hex": "0xe08ca1422"
      },
      "gasLimit": {
        "_hex": "0x5208"
      },
      "to": "0x32Be343B94f860124dC4fEe278FDCBD38C102D88",
      "value": {
        "_hex": "0xad76328a802258000"
      },
      "nonce": 0,
      "data": "0x",
      "r": "0x46b69c8daf550a44608f364a27fd296311a82c1bd15f0c6283d445c6b18b560e",
      "s": "0x6699d69f1b02309c036c4ad5067abb89223b3662c8c66017afcfe4618e4f53d6",
      "v": 28,
      "creates": null,
      "raw": "0xf86d80850e08ca14228252089432be343b94f860124dc4fee278fdcbd38c102d88890ad76328a802258000801ca046b69c8daf550a44608f364a27fd296311a82c1bd15f0c6283d445c6b18b560ea06699d69f1b02309c036c4ad5067abb89223b3662c8c66017afcfe4618e4f53d6",
      "networkId": 0,
      "chainId": 0
    },
    {
      "hash": "0xe10ae8b7fc7b84901b0a1100814a9d4a7f5ae3c1048362ad319d1c741cdac003",
      "blockHash": "0xedf81746dfbc08d906bd3fdc69ce9ae96db877d951292eb5bc701f17ba88ec29",
      "blockNumber": 102002,
      "transactionIndex": 1,
      "confirmations": null,
      "from": "0x3cB84c3ABe6F70c91b412997640e050E1A5186DA",
      "gasPrice": {
        "_hex": "0xe08ca1422"
      },
      "gasLimit": {
        "_hex": "0x5208"
      },
      "to": "0x32Be343B94f860124dC4fEe278FDCBD38C102D88",
      "value": {
        "_hex": "0xddc3771f7f0e800"
      },
      "nonce": 0,
      "data": "0x",
      "r": "0xe7275ddee33bb1ebd9701c149dcec97274753e2e5174d99c45e537efa0d07a06",
      "s": "0x285c8494c8266b434bede7dbfe93f05a70c2da4f201c813cb9da586751f90779",
      "v": 27,
      "creates": null,
      "raw": "0xf86c80850e08ca14228252089432be343b94f860124dc4fee278fdcbd38c102d88880ddc3771f7f0e800801ba0e7275ddee33bb1ebd9701c149dcec97274753e2e5174d99c45e537efa0d07a06a0285c8494c8266b434bede7dbfe93f05a70c2da4f201c813cb9da586751f90779",
      "networkId": 0,
      "chainId": 0
    }
  ]
}