{
  "hash": "0x2c575725a8ba25b8b3fd69b7400b29496e50fd5e5711e5c02649c8bb24dc5947",
  "parentHash": "0x0f597ffbba818a1262ebec6c23bd4622ab128817eff0a26a92ba7aef10cc566a",
  "number": 68761,
  "timestamp": 1439293333,
  "nonce": "0xab2c02434beeb01f",
  "difficulty": 2021147257868,
  "gasLimit": {
    "_hex": "0x2fefd5"
  },
  "gasUsed": {
    "_hex": "0xe608"
  },
  "miner": "0xe6A7a1d47ff21B6321162AEA7C6CB457D5476Bca",
  "extraData": "0x476574682f76312e302e312d38326566323666362f6c696e75782f676f312e34",
  "transactions": [
    {
      "hash": "0x4cfc4d8e4480ce9fee4d665645480318763548b31d77628c467bd3c5bf55dfa5",
      "blockHash": "0x2c575725a8ba25b8b3fd69b7400b29496e50fd5e5711e5c02649c8bb24dc5947",
      "blockNumber": 68761,
      "transactionIndex": 0,
      "confirmations": null,
      "from": "0xc8ebccC5F5689Fa8659d83713341e5aD19349448",
      "gasPrice": {
        "_hex": "0xcf7d56fe0"
      },
      "gasLimit": {
        "_hex": "0x61a80"
      },
      "to": "0x5Fe5B7546D1628f7348B023A0393de1FC825A4fD",
      "value": {
        "_hex": "0xde0b6b3a7640000"
      },
      "nonce": 44,
      "data": "0xb595b8b50000000000000000000000000000000000000000000000000000000000000001",
      "r": "0x34d9de60470b929b19c82032d6d220bd9a84af3130c0b7d13268a07de1b9a231",
      "s": "0x0e2c598c199f940df2b79793c5eb4f966009e7dae67adb5c8afc74c4c6b68e80",
      "v": 28,
      "creates": null,
      "raw": "0xf8912c850cf7d56fe083061a80945fe5b7546d1628f7348b023a0393de1fc825a4fd880de0b6b3a7640000a4b595b8b500000000000000000000000000000000000000000000000000000000000000011ca034d9de60470b929b19c82032d6d220bd9a84af3130c0b7d13268a07de1b9a231a00e2c598c199f940df2b79793c5eb4f966009e7dae67adb5c8afc74c4c6b68e80",
      "networkId": 0,
      "chainId": 0
    },
    {
      "hash": "0x4e121b7760b69273cb2f72a935ef3a3f4fcd21aecd4b01a9094645620cf65a33",
      "blockHash": "0x2c575725a8ba25b8b3fd69b7400b29496e50fd5e5711e5c02649c8bb24dc5947",
      "blockNumber": 68761,
      "transactionIndex": 1,
      "confirmations": null,
      "from": "0x7a3193C7532579275d8eD0e2e5680959B06c00F5",
      "gasPrice": {
        "_hex": "0xcdb5cfddb"
      },
      "gasLimit": {
        "_hex": "0x15f90"
      },
      "to": "0x0e79Fa998677114124597D6BCCcA10fF8B57045F",
      "value": {
        "_hex": "0xde0b6b3a7640000"
      },
      "nonce": 1,
      "data": "0x",
      "r": "0x929ad2123ca2fa8cb34b8b672bedfc3afb847fd5fb650992224ec8b5986dc5c6",
      "s": "0x297f81bdc568869b370c3bf3fc4bfcafd782ee5f6a64b2254c2f36053bd59652",
      "v": 27,
      "creates": null,
      "raw": "0xf86d01850cdb5cfddb83015f90940e79fa998677114124597d6bccca10ff8b57045f880de0b6b3a7640000801ba0929ad2123ca2fa8cb34b8b672bedfc3afb847fd5fb650992224ec8b5986dc5c6a0297f81bdc568869b370c3bf3fc4bfcafd782ee5f6a64b2254c2f36053bd59652",
      "networkId": 0,
      "chainId": 0
    }
  ]
}