{
  "hash": "0x9d5a1c8bc01cce82193d1e922eea426cc98854094a28b42786ed18780c755356",
  "parentHash": "0x8c3c07516d2292301bb4ebf9331124dc3fc2f0635de188a807fd053d5e02e6fc",
  "number": 69082,
  "timestamp": 1439298043,
  "nonce": "0x5819cffbe6c6cc6a",
  "difficulty": 2051894993802,
  "gasLimit": {
    "_hex": "0x2fefd8"
  },
  "gasUsed": {
    "_hex": "0x17cd8"
  },
  "miner": "0xEF247E639d49461D25F57e9362CadE3120910Ce0",
  "extraData": "0x476574682f76312e302e312f6c696e75782f676f312e342e32",
  "transactions": [
    {
      "hash": "0xbea1ac52a8160d3e3a415bd5c77a8172a5b9306413f5c8a5334213ec88f6274c",
      "blockHash": "0x9d5a1c8bc01cce82193d1e922eea426cc98854094a28b42786ed18780c755356",
      "blockNumber": 69082,
      "transactionIndex": 0,
      "confirmations": null,
      "from": "0x4eaFf044a6EA01B008092DFbA85196BCFD7974B1",
      "gasPrice": {
        "_hex": "0xba43b7400"
      },
      "gasLimit": {
        "_hex": "0x15f90"
      },
      "to": "0x793AE8C1b1a160BFc07BFB0d04F85eab1A71F4f2",
      "value": {
        "_hex": "0x0"
      },
      "nonce": 0,
      "data": "0x3ba15036",
      "r": "0x4d5b25c4978de87865b13b24fb4d80d767ec8ad92f94538f72b0b06de068e332",
      "s": "0x685ca4319424f931d25c74aca31f87bed3e3bc55baff2bed17d5fd76e40172bd",
      "v": 27,
      "creates": null,
      "raw": "0xf86980850ba43b740083015f9094793ae8c1b1a160bfc07bfb0d04f85eab1a71f4f280843ba150361ba04d5b25c4978de87865b13b24fb4d80d767ec8ad92f94538f72b0b06de068e332a0685ca4319424f931d25c74aca31f87bed3e3bc55baff2bed17d5fd76e40172bd",
      "networkId": 0,
      "chainId": 0
    },
    {
      "hash": "0xf85654f8c4a7fb7f1fb0a0e69e294a13304fd45d7a3e209f72513bb3ec8783bf",
      "blockHash": "0x9d5a1c8bc01cce82193d1e922eea426cc98854094a28b42786ed18780c755356",
      "blockNumber": 69082,
      "transactionIndex": 1,
      "confirmations": null,
      "from": "0x2f3DF887C687A3120dAB039d85154e92ac9C4247",
      "gasPrice": {
        "_hex": "0xba43b7400"
      },
      "gasLimit": {
        "_hex": "0x15f90"
      },
      "to": "0x793AE8C1b1a160BFc07BFB0d04F85eab1A71F4f2",
      "value": {
        "_hex": "0x0"
      },
      "nonce": 0,
      "data": "0x3ba15036",
      "r": "0x537f43c6baddb8d7d4007d30f99cda64deb9048f064cdff3adbda18019494fce",
      "s": "0x460e03398fee42881859c726669e06ad92fc8fdef51ad3c87516478bb20230e9",
      "v": 27,
      "creates": null,
      "raw": "0xf86980850ba43b740083015f9094793ae8c1b1a160bfc07bfb0d04f85eab1a71f4f280843ba150361ba0537f43c6baddb8d7d4007d30f99cda64deb9048f064cdff3adbda18019494fcea0460e03398fee42881859c726669e06ad92fc8fdef51ad3c87516478bb20230e9",
      "networkId": 0,
      "chainId": 0
    }
  ]
}