{
  "hash": "0x75feaf855c40b016778a8819ee4f64df57fcafd5926d48ad1bb95ae27e942d12",
  "parentHash": "0x60c5cd53753f32fdec49dc7ff4293afe20538761194ab58f616beeb714f5a6fd",
  "number": 97783,
  "timestamp": 1439761742,
  "nonce": "0xd969a399ea558630",
  "difficulty": 3837176877918,
  "gasLimit": {
    "_hex": "0x2fefd8"
  },
  "gasUsed": {
    "_hex": "0xa410"
  },
  "miner": "0x007f7f58D3eb5b7510A301eCC749FC1fCDDBE14D",
  "extraData": "0x476574682f76312e302e312f77696e646f77732f676f312e342e32",
  "transactions": [
    {
      "hash": "0xa2f18db3f0e4b358c6d2de431e4363739909df2385139499ffce9fea4e069080",
      "blockHash": "0x75feaf855c40b016778a8819ee4f64df57fcafd5926d48ad1bb95ae27e942d12",
      "blockNumber": 97783,
      "transactionIndex": 0,
      "confirmations": null,
      "from": "0x790b8a3cE86E707ED0eD32bF89B3269692a23CC1",
      "gasPrice": {
        "_hex": "0xda71bd407"
      },
      "gasLimit": {
        "_hex": "0x15f90"
      },
      "to": "0x4D67f4F0Db45b3B5a3424B39ed8d972F710381D5",
      "value": {
        "_hex": "0x2f9e3fb2098f20000"
      },
      "nonce": 16,
      "data": "0x",
      "r": "0xa202f13d7ee498a45b9b01f2175d17b30a8475cef368d09b8352f6a8d837af2f",
      "s": "0x219a63b94e39ecf7ad729037cdfcb747394aed0ed7a1321dc63179b80abf521f",
      "v": 27,
      "creates": null,
      "raw": "0xf86e10850da71bd40783015f90944d67f4f0db45b3b5a3424b39ed8d972f710381d58902f9e3fb2098f20000801ba0a202f13d7ee498a45b9b01f2175d17b30a8475cef368d09b8352f6a8d837af2fa0219a63b94e39ecf7ad729037cdfcb747394aed0ed7a1321dc63179b80abf521f",
      "networkId": 0,
      "chainId": 0
    },
    {
      "hash": "0xf551dfb751ba6c6c3e345f11f36f8cc5dad4dfa93e2ebb21a8d1641101c2673d",
      "blockHash": "0x75feaf855c40b016778a8819ee4f64df57fcafd5926d48ad1bb95ae27e942d12",
      "blockNumber": 97783,
      "transactionIndex": 1,
      "confirmations": null,
      "from": "0x6724EFf089f9dD79c381137DF68678bD574B37e0",
      "gasPrice": {
        "_hex": "0xcf1a02b9c"
      },
      "gasLimit": {
        "_hex": "0x5208"
      },
      "to": "0x32Be343B94f860124dC4fEe278FDCBD38C102D88",
      "value": {
        "_hex": "0x453be4c35e9c1800"
      },
      "nonce": 2,
      "data": "0x",
      "r": "0x1556bcf92a658a3fc033ead528e58b0622c2d4186702d6391f8dcff1450a1c0e",
      "s": "0x34010dbd8e1ddfcb66a32a0317d2a9398803bdb1ad2b8a1a540519f3cf3814a9",
      "v": 27,
      "creates": null,
      "raw": "0xf86c02850cf1a02b9c8252089432be343b94f860124dc4fee278fdcbd38c102d8888453be4c35e9c1800801ba01556bcf92a658a3fc033ead528e58b0622c2d4186702d6391f8dcff1450a1c0ea034010dbd8e1ddfcb66a32a0317d2a9398803bdb1ad2b8a1a540519f3cf3814a9",
      "networkId": 0,
      "chainId": 0
    }
  ]
}