{
  "hash": "0x90d29bb57d14929ea9db15dee2eb3bb11eccbffc4561ac035218d3b2a5d20ca5",
  "parentHash": "0x6307ec9d6506041cd552c29652287b1162099818215b896a2824dd8b1570aa71",
  "number": 82030,
  "timestamp": 1439512224,
  "nonce": "0x050ee5e659e04528",
  "difficulty": 2404582986066,
  "gasLimit": {
    "_hex": "0x2fefd8"
  },
  "gasUsed": {
    "_hex": "0xa410"
  },
  "miner": "0xe6A7a1d47ff21B6321162AEA7C6CB457D5476Bca",
  "extraData": "0x476574682f76312e302e312d38326566323666362f6c696e75782f676f312e34",
  "transactions": [
    {
      "hash": "0x6a5a01113241ae6f8a62e6ce45c13efa7d7417ae08e42b01aaf83362e37246bb",
      "blockHash": "0x90d29bb57d14929ea9db15dee2eb3bb11eccbffc4561ac035218d3b2a5d20ca5",
      "blockNumber": 82030,
      "transactionIndex": 0,
      "confirmations": null,
      "from": "0x76d4a9bc9612bE738A81d0fE632b00B971E2bB9a",
      "gasPrice": {
        "_hex": "0xe1eae53da"
      },
      "gasLimit": {
        "_hex": "0x55f0"
      },
      "to": "0xb50405193Dc0c7077dD65252C15C39242F0aCB76",
      "value": {
        "_hex": "0x1a055690d9db80000"
      },
      "nonce": 6,
      "data": "0x",
      "r": "0xfc3b41f14538f6ed1372c63adb325506f504849a76cb80615bc37f722d6b33c3",
      "s": "0x0d5a337cfca38955adefc61a5cffd07bac2326fb0b8e2b4584a3c63abb43f50b",
      "v": 27,
      "creates": null,
      "raw": "0xf86d06850e1eae53da8255f094b50405193dc0c7077dd65252c15c39242f0acb768901a055690d9db80000801ba0fc3b41f14538f6ed1372c63adb325506f504849a76cb80615bc37f722d6b33c3a00d5a337cfca38955adefc61a5cffd07bac2326fb0b8e2b4584a3c63abb43f50b",
      "networkId": 0,
      "chainId": 0
    },
    {
      "hash": "0x3ec2ed45df781fbee8c8a29a90651b765e91be3c08d549298abf1f840f9ac239",
      "blockHash": "0x90d29bb57d14929ea9db15dee2eb3bb11eccbffc4561ac035218d3b2a5d20ca5",
      "blockNumber": 82030,
      "transactionIndex": 1,
      "confirmations": null,
      "from": "0xe93C41Eb698768D7d6a9e589434e5bc8B2eec540",
      "gasPrice": {
        "_hex": "0xba43b7400"
      },
      "gasLimit": {
        "_hex": "0x5208"
      },
      "to": "0xC47Aaa860008be6f65B58c6C6E02a84e666EfE31",
      "value": {
        "_hex": "0x21e19cb4b494d5be000"
      },
      "nonce": 2,
      "data": "0x",
      "r": "0x4f25b2391f4221da5766335c4b5589c025187536f86ccbae45f1c30576bde166",
      "s": "0x68f59479cbbfe895a657e4a3d5b0517ccee22bc2f4b40a65247a393506d73ae9",
      "v": 27,
      "creates": null,
      "raw": "0xf86e02850ba43b740082520894c47aaa860008be6f65b58c6c6e02a84e666efe318a021e19cb4b494d5be000801ba04f25b2391f4221da5766335c4b5589c025187536f86ccbae45f1c30576bde166a068f59479cbbfe895a657e4a3d5b0517ccee22bc2f4b40a65247a393506d73ae9",
      "networkId": 0,
      "chainId": 0
    }
  ]
}