{
  "hash": "0x9c668e5edad748f312597e47732017cc25af1f00328adf1f9e302a0fd1de284f",
  "parentHash": "0x28a80b3d8e76bbf9435558a6f820a391106e220c5d50f0a66358bf780e0f3320",
  "number": 104973,
  "timestamp": 1439879457,
  "nonce": "0x177af73a2123adc7",
  "difficulty": 4318985029246,
  "gasLimit": {
    "_hex": "0x2fefd8"
  },
  "gasUsed": {
    "_hex": "0x5618"
  },
  "miner": "0x157c6f2431eB1a95797EE86F7d17b3c0FD47A247",
  "extraData": "0x476574682f76312e302e312f77696e646f77732f676f312e342e32",
  "transactions": [
    {
      "hash": "0x55426057dece08cde139a2c09c3dcd84fd63c79b6d2dc7063b74350f9c25a75c",
      "blockHash": "0x9c668e5edad748f312597e47732017cc25af1f00328adf1f9e302a0fd1de284f",
      "blockNumber": 104973,
      "transactionIndex": 0,
      "confirmations": null,
      "from": "0x8f7f160D267B54245003AaEeDB71b3cDD3A8BB65",
      "gasPrice": {
        "_hex": "0xd6d6a1908"
      },
      "gasLimit": {
        "_hex": "0x15f90"
      },
      "to": "0x0000000000000000000000000000000000000000",
      "value": {
        "_hex": "0x0"
      },
      "nonce": 5,
      "data": "0x432ced0470726f76656e616e636500000000000000000000000000000000000000000000",
      "r": "0xccdd6df68974e867073ccbbb3b48b6983fcd87b672b3c84d3b2fbd9d247dd5df",
      "s": "0x0fc0241ab02d814795d9a6ea115d44736a04aac5616fb480a82dc4edc963a2dd",
      "v": 28,
      "creates": null,
      "raw": "0xf88905850d6d6a190883015f9094000000000000000000000000000000000000000080a4432ced0470726f76656e616e6365000000000000000000000000000000000000000000001ca0ccdd6df68974e867073ccbbb3b48b6983fcd87b672b3c84d3b2fbd9d247dd5dfa00fc0241ab02d814795d9a6ea115d44736a04aac5616fb480a82dc4edc963a2dd",
      "networkId": 0,
      "chainId": 0
    }
  ]
}