{
  "hash": "0x3075f2b1215079ba4fbd711d9149a71f739363da3c816429d7a3105fffa7b03b",
  "parentHash": "0x6221e7e4362dbce48b1b7bccb9d75cd3f44f1f8df213a7857fb27aa263951028",
  "number": 122173,
  "timestamp": 1440189441,
  "nonce": "0x86ccdb9834539da4",
  "difficulty": 4473089824091,
  "gasLimit": {
    "_hex": "0x2fefd8"
  },
  "gasUsed": {
    "_hex": "0x2d362"
  },
  "miner": "0x36F60f6fAe70855D6a506c3cbDfa8B1Cc4d77c35",
  "extraData": "0xd783010100844765746887676f312e342e32856c696e7578",
  "transactions": [
    {
      "hash": "0xb465e3d0d3c68a0dcb074eab871c208ad4f88bf4a4eb784351fb96c1826073c2",
      "blockHash": "0x3075f2b1215079ba4fbd711d9149a71f739363da3c816429d7a3105fffa7b03b",
      "blockNumber": 122173,
      "transactionIndex": 0,
      "confirmations": null,
      "from": "0xb735BF53Abc79525A4f585A004A620d08cc66B27",
      "gasPrice": {
        "_hex": "0xd71cd005f"
      },
      "gasLimit": {
        "_hex": "0x61a80"
      },
      "to": "0xDf415bb7AE2363ecbb6A595F07cBc2Fc0fD417D3",
      "value": {
        "_hex": "0x6f05b59d3b20000"
      },
      "nonce": 9,
      "data": "0x",
      "r": "0x9d6912ca11414992980a85d26ae1f51b2cce9c43cc0c861be10c985750793a17",
      "s": "0x592a1e581a42db456b633c6354b55baf89132f77769834e63fd0910fef50e5a6",
      "v": 27,
      "creates": null,
      "raw": "0xf86d09850d71cd005f83061a8094df415bb7ae2363ecbb6a595f07cbc2fc0fd417d38806f05b59d3b20000801ba09d6912ca11414992980a85d26ae1f51b2cce9c43cc0c861be10c985750793a17a0592a1e581a42db456b633c6354b55baf89132f77769834e63fd0910fef50e5a6",
      "networkId": 0,
      "chainId": 0
    },
    {
      "hash": "0xe3c878f9b8a873d2bcf00c2fad94c55c548ac648002f25e16f3396a554daa105",
      "blockHash": "0x3075f2b1215079ba4fbd711d9149a71f739363da3c816429d7a3105fffa7b03b",
      "blockNumber": 122173,
      "transactionIndex": 1,
      "confirmations": null,
      "from": "0x120A270bbC009644e35F0bB6ab13f95b8199c4ad",
      "gasPrice": {
        "_hex": "0xba43b7400"
      },
      "gasLimit": {
        "_hex": "0x3d090"
      },
      "to": "0x739f8ab33a41B67952f16778e3CC6D2dEcC3a2d5",
      "value": {
        "_hex": "0x1b1ae4d6e2ef500000"
      },
      "nonce": 990,
      "data": "0x",
      "r": "0x4cf9a9ead24e9d8a181061fbf49820fa4fbcf3c669af03d003dd780bdc5bcef8",
      "s": "0x7ea0aced0b5f33927f75e2e01640cd2cea4b2afe939662f385c59fb00634835d",
      "v": 27,
      "creates": null,
      "raw": "0xf8708203de850ba43b74008303d09094739f8ab33a41b67952f16778e3cc6d2decc3a2d5891b1ae4d6e2ef500000801ba04cf9a9ead24e9d8a181061fbf49820fa4fbcf3c669af03d003dd780bdc5bcef8a07ea0aced0b5f33927f75e2e01640cd2cea4b2afe939662f385c59fb00634835d",
      "networkId": 0,
      "chainId": 0
    }
  ]
}