{
  "hash": "0x3f6fd801f6a2c6c35fcadae6c6df4307cdf8e5ed4e1f3c03701369012325c43e",
  "parentHash": "0x6fd8bccc2cb413b62c63ce46d96a31a8dd00e0142688506f396fbd630dd03344",
  "number": 80201,
  "timestamp": 1439481709,
  "nonce": "0x49c42fa00e5a8daf",
  "difficulty": 2373607460205,
  "gasLimit": {
    "_hex": "0x2fefd8"
  },
  "gasUsed": {
    "_hex": "0x5208"
  },
  "miner": "0xcAF987dC6DAcB89E1e6Eba13265426e7132E15db",
  "extraData": "0x476574682f76312e302e312f6c696e75782f676f312e342e32",
  "transactions": [
    {
      "hash": "0xc78f91f9778451a99a0c4fdc63bc9a08f2bd95adc5996e7440183488dec016e9",
      "blockHash": "0x3f6fd801f6a2c6c35fcadae6c6df4307cdf8e5ed4e1f3c03701369012325c43e",
      "blockNumber": 80201,
      "transactionIndex": 0,
      "confirmations": null,
      "from": "0xb2169f1326FE9745321aD99563654089bAdf09eb",
      "gasPrice": {
        "_hex": "0xba43b7400"
      },
      "gasLimit": {
        "_hex": "0x5208"
      },
      "to": "0xC47Aaa860008be6f65B58c6C6E02a84e666EfE31",
      "value": {
        "_hex": "0x2b5dff41e84846000"
      },
      "nonce": 2,
      "data": "0x",
      "r": "0xa10381c331bca287d60f461427c574e9360e914eb816e10cb3292078b911bcde",
      "s": "0x556aaa35dbffda716389737431ab4bafe193f70d6611cdafa778fc80fdeff871",
      "v": 28,
      "creates": null,
      "raw": "0xf86d02850ba43b740082520894c47aaa860008be6f65b58c6c6e02a84e666efe318902b5dff41e84846000801ca0a10381c331bca287d60f461427c574e9360e914eb816e10cb3292078b911bcdea0556aaa35dbffda716389737431ab4bafe193f70d6611cdafa778fc80fdeff871",
      "networkId": 0,
      "chainId": 0
    }
  ]
}