{
  "hash": "0xc90630ccb4e66709b25b221373ce6e5eee8770adf65860af048b121951c708b4",
  "parentHash": "0xe4b27b87b7940dd04ad0c9c41fd33e8e16a3bf6b536beefba58b1f772496929f",
  "number": 52617,
  "timestamp": 1439024483,
  "nonce": "0x04feab452472329c",
  "difficulty": 1569421345994,
  "gasLimit": {
    "_hex": "0x16625e"
  },
  "gasUsed": {
    "_hex": "0xf4240"
  },
  "miner": "0xF2d2AfF1320476cb8C6b607199D23175cc595693",
  "extraData": "0x476574682f76312e302e312f77696e646f77732f676f312e342e32",
  "transactions": [
    {
      "hash": "0xc69196e399d6f63ba73fc4b37a73f6de12857ad8bdded831d36759dba7feb917",
      "blockHash": "0xc90630ccb4e66709b25b221373ce6e5eee8770adf65860af048b121951c708b4",
      "blockNumber": 52617,
      "transactionIndex": 0,
      "confirmations": null,
      "from": "0x54dAeb3E8a6BBC797E4aD2b0339f134b186e4637",
      "gasPrice": {
        "_hex": "0xdf4ba21f9"
      },
      "gasLimit": {
        "_hex": "0x7a120"
      },
      "to": "0xBAA54d6E90c3F4d7Ebec11bD180134C7eD8eBb52",
      "value": {
        "_hex": "0x16345785d8a0000"
      },
      "nonce": 799,
      "data": "0x",
      "r": "0x4da8130126861f14c3cbe4b5f6c4484b2ab44f981cba1920e9c007623fb4c09b",
      "s": "0x7f0b22d31c33b83f9ee9d18f20bc9983f2ec90db265df8f78232d01f15bbeeaf",
      "v": 27,
      "creates": null,
      "raw": "0xf86f82031f850df4ba21f98307a12094baa54d6e90c3f4d7ebec11bd180134c7ed8ebb5288016345785d8a0000801ba04da8130126861f14c3cbe4b5f6c4484b2ab44f981cba1920e9c007623fb4c09ba07f0b22d31c33b83f9ee9d18f20bc9983f2ec90db265df8f78232d01f15bbeeaf",
      "networkId": 0,
      "chainId": 0
    },
    {
      "hash": "0x2356152ca32b3c6bab70ba8a91229e3903163273a25580a9f8770fe047df2964",
      "blockHash": "0xc90630ccb4e66709b25b221373ce6e5eee8770adf65860af048b121951c708b4",
      "blockNumber": 52617,
      "transactionIndex": 1,
      "confirmations": null,
      "from": "0x54dAeb3E8a6BBC797E4aD2b0339f134b186e4637",
      "gasPrice": {
        "_hex": "0xe7d27df17"
      },
      "gasLimit": {
        "_hex": "0x7a120"
      },
      "to": "0xBAA54d6E90c3F4d7Ebec11bD180134C7eD8eBb52",
      "value": {
        "_hex": "0x16345785d8a0000"
      },
      "nonce": 800,
      "data": "0x",
      "r": "0x5f8b976500160bdbf53752f14ddb82f1c4f39a17dd9cd61c4ed0c3bdbb75053a",
      "s": "0x60d3a20088607e1090d9c988b41596f903225fce9f1f4d4d1af84c3774543817",
      "v": 27,
      "creates": null,
      "raw": "0xf86f820320850e7d27df178307a12094baa54d6e90c3f4d7ebec11bd180134c7ed8ebb5288016345785d8a0000801ba05f8b976500160bdbf53752f14ddb82f1c4f39a17dd9cd61c4ed0c3bdbb75053aa060d3a20088607e1090d9c988b41596f903225fce9f1f4d4d1af84c3774543817",
      "networkId": 0,
      "chainId": 0
    }
  ]
}