{
  "hash": "0xa8b3a7e02cec3711284d710ea4d00ea2020bd7f5f6ec1651df3a8cf352d8d393",
  "parentHash": "0x34bac2dd84f815fd37c8ae6c607384bb4240dbad143c0cb16099236c83d1a315",
  "number": 47967,
  "timestamp": 1438949104,
  "nonce": "0x4fb3d9d5c854aa29",
  "difficulty": 1462243992785,
  "gasLimit": {
    "_hex": "0x10fe2"
  },
  "gasUsed": {
    "_hex": "0xa674"
  },
  "miner": "0x0037ce3d4B7f8729C8607D8D0248252Be68202c0",
  "extraData": "0x476574682f76312e302e312f77696e646f77732f676f312e342e32",
  "transactions": [
    {
      "hash": "0x0421dbdcddb52531d351a06f19155e460f69dcb22f6dd5ced5125340876efa67",
      "blockHash": "0xa8b3a7e02cec3711284d710ea4d00ea2020bd7f5f6ec1651df3a8cf352d8d393",
      "blockNumber": 47967,
      "transactionIndex": 0,
      "confirmations": null,
      "from": "0xB6F78Da4F4D041b3BC14BC5Ba519A5ba0c32F128",
      "gasPrice": {
        "_hex": "0x1090e50fcfa"
      },
      "gasLimit": {
        "_hex": "0x55f0"
      },
      "to": "0x2910543Af39abA0Cd09dBb2D50200b3E800A63D2",
      "value": {
        "_hex": "0x1e7e4171bf4d3a00000"
      },
      "nonce": 3,
      "data": "0x454e4a384b48473238",
      "r": "0x5a70d85fe924d08749175af1f4c669960ca03bc4294ea4660b2b2079e21e3502",
      "s": "0x320c148e000b6ba5128c5019c1ad77ab25250e9b77d7b6976fd6adb151440242",
      "v": 28,
      "creates": null,
      "raw": "0xf878038601090e50fcfa8255f0942910543af39aba0cd09dbb2d50200b3e800a63d28a01e7e4171bf4d3a0000089454e4a384b484732381ca05a70d85fe924d08749175af1f4c669960ca03bc4294ea4660b2b2079e21e3502a0320c148e000b6ba5128c5019c1ad77ab25250e9b77d7b6976fd6adb151440242",
      "networkId": 0,
      "chainId": 0
    },
    {
      "hash": "0xf4ed28bbdff05d29490b065230c260e390329f550c1c4ae36544353220ecedd4",
      "blockHash": "0xa8b3a7e02cec3711284d710ea4d00ea2020bd7f5f6ec1651df3a8cf352d8d393",
      "blockNumber": 47967,
      "transactionIndex": 1,
      "confirmations": null,
      "from": "0x655Ce0C27E77D78C7e3e89F09EA6dfa394610b5f",
      "gasPrice": {
        "_hex": "0xe0cf73440"
      },
      "gasLimit": {
        "_hex": "0x5208"
      },
      "to": "0x32Be343B94f860124dC4fEe278FDCBD38C102D88",
      "value": {
        "_hex": "0xad78a5224ca280000"
      },
      "nonce": 1,
      "data": "0x",
      "r": "0x723f59302e3e25d37b5e684caa69d2538d3e0ded12a491b82d0aad8de4f483e4",
      "s": "0x05c19bf9f2bc26a4b071b713cd16afc2d444c0312c9b1cf87f9ec9b5ac776a6b",
      "v": 27,
      "creates": null,
      "raw": "0xf86d01850e0cf734408252089432be343b94f860124dc4fee278fdcbd38c102d88890ad78a5224ca280000801ba0723f59302e3e25d37b5e684caa69d2538d3e0ded12a491b82d0aad8de4f483e4a005c19bf9f2bc26a4b071b713cd16afc2d444c0312c9b1cf87f9ec9b5ac776a6b",
      "networkId": 0,
      "chainId": 0
    }
  ]
}