{
  "hash": "0x65692b637ea584d7924f2d74a69959e2e3295d7a8cd48b0beb04be5cddc29233",
  "parentHash": "0xcff62bc326c9e30e27abc55db27898430fe74b644365c55f914a6fd467c2c546",
  "number": 50364,
  "timestamp": 1438988034,
  "nonce": "0xf428a1da4751d168",
  "difficulty": 1508966193346,
  "gasLimit": {
    "_hex": "0x5e8fa"
  },
  "gasUsed": {
    "_hex": "0xa410"
  },
  "miner": "0xf927a40C8B7F6E07c5af7FA2155B4864a4112B13",
  "extraData": "0x476574682f76312e302e312f6c696e75782f676f312e342e32",
  "transactions": [
    {
      "hash": "0xc74a15173aaa8eec79b3dd2f7d87acc9327f41dce7a26ae2e3492ce4fbb2df4a",
      "blockHash": "0x65692b637ea584d7924f2d74a69959e2e3295d7a8cd48b0beb04be5cddc29233",
      "blockNumber": 50364,
      "transactionIndex": 0,
      "confirmations": null,
      "from": "0x8C6AE7a05a1dE57582ae2768204276c0ff47ed03",
      "gasPrice": {
        "_hex": "0xdf8475800"
      },
      "gasLimit": {
        "_hex": "0x5208"
      },
      "to": "0x7a19C3C33f2a800b2FA361fD24277cAb0A1C1dB1",
      "value": {
        "_hex": "0x14542ba12a337c00000"
      },
      "nonce": 8,
      "data": "0x",
      "r": "0xca6ae2610be1eb2d7b01528619908067373106197dbb0bde8af391a6da70b1f0",
      "s": "0x4986ff82e65c2a4d40caa4c34e8fd55e649e4fabf426f582d107ffabb5037105",
      "v": 27,
      "creates": null,
      "raw": "0xf86e08850df8475800825208947a19c3c33f2a800b2fa361fd24277cab0a1c1db18a014542ba12a337c00000801ba0ca6ae2610be1eb2d7b01528619908067373106197dbb0bde8af391a6da70b1f0a04986ff82e65c2a4d40caa4c34e8fd55e649e4fabf426f582d107ffabb5037105",
      "networkId": 0,
      "chainId": 0
    },
    {
      "hash": "0x474b33ce8c315ecc493d3ddb4afe05030a3d327687041c97cd706f88f62787cc",
      "blockHash": "0x65692b637ea584d7924f2d74a69959e2e3295d7a8cd48b0beb04be5cddc29233",
      "blockNumber": 50364,
      "transactionIndex": 1,
      "confirmations": null,
      "from": "0xcaD6D85426181593cf3E16f594824847600c6122",
      "gasPrice": {
        "_hex": "0xccc1a22ce"
      },
      "gasLimit": {
        "_hex": "0x5208"
      },
      "to": "0xb6c00721Fbd69a851EE6456d71C429fBd8f0d022",
      "value": {
        "_hex": "0x2552945046d0f0000"
      },
      "nonce": 1,
      "data": "0x",
      "r": "0xc5858a0e7ad741fc544984eb9b1085a8f4145dbfce3c3258da0641b8c472f0a7",
      "s": "0x18100b8df1ce7b8dd7b28a449d7d91da9eb441d6b84e088ffd518acbf7567581",
      "v": 28,
      "creates": null,
      "raw": "0xf86d01850ccc1a22ce82520894b6c00721fbd69a851ee6456d71c429fbd8f0d0228902552945046d0f0000801ca0c5858a0e7ad741fc544984eb9b1085a8f4145dbfce3c3258da0641b8c472f0a7a018100b8df1ce7b8dd7b28a449d7d91da9eb441d6b84e088ffd518acbf7567581",
      "networkId": 0,
      "chainId": 0
    }
  ]
}