{
  "hash": "0x0dd1099adc54907576e840cc19cac9c2180143c3c7eeb33fa504d5f2bddef0f3",
  "parentHash": "0xf483b8850542956f4f2a7a68210cb597cded7965ae0975d870fb27fb90745560",
  "number": 49752,
  "timestamp": 1438978461,
  "nonce": "0x32894ac52246cb69",
  "difficulty": 1492952262642,
  "gasLimit": {
    "_hex": "0x3d56b"
  },
  "gasUsed": {
    "_hex": "0x546c"
  },
  "miner": "0xA1623430350C5df1b52B0b57483A5bb45d1796Da",
  "extraData": "0x476574682f76312e302e302d30636463373634372f6c696e75782f676f312e34",
  "transactions": [
    {
      "hash": "0xb7097248fc07f22a44938d3f7339dee786d57935f9b92b8d7425b2b6d3ce2a62",
      "blockHash": "0x0dd1099adc54907576e840cc19cac9c2180143c3c7eeb33fa504d5f2bddef0f3",
      "blockNumber": 49752,
      "transactionIndex": 0,
      "confirmations": null,
      "from": "0x9D4FF989b7bed9Ab109d10C8C7e55F02D76734Ad",
      "gasPrice": {
        "_hex": "0x10d040f2876"
      },
      "gasLimit": {
        "_hex": "0x15f90"
      },
      "to": "0x2910543Af39abA0Cd09dBb2D50200b3E800A63D2",
      "value": {
        "_hex": "0x363442e15b11550000"
      },
      "nonce": 0,
      "data": "0x454e42304a42363352",
      "r": "0x07265ad81a13621a70b7d0e9bdb955954874daad09949ddf086a1ab2ba442178",
      "s": "0x64f130ba0f06385f732b82da1ce3873744ecdae01af069042ad48176e3af5e94",
      "v": 28,
      "creates": null,
      "raw": "0xf8788086010d040f287683015f90942910543af39aba0cd09dbb2d50200b3e800a63d289363442e15b1155000089454e42304a423633521ca007265ad81a13621a70b7d0e9bdb955954874daad09949ddf086a1ab2ba442178a064f130ba0f06385f732b82da1ce3873744ecdae01af069042ad48176e3af5e94",
      "networkId": 0,
      "chainId": 0
    }
  ]
}