{
  "hash": "0x2613d827344a5f534e6563a1474fd1d63ce4df6ea10707ae204281fe6775dfc6",
  "parentHash": "0x5c9d8a80dd9261feb07f1a400ec072540d14a3ca01f783dbcd688376fe47816f",
  "number": 51502,
  "timestamp": 1439005902,
  "nonce": "0x2648d1cd632f8a9c",
  "difficulty": 1564274176366,
  "gasLimit": {
    "_hex": "0xb8839"
  },
  "gasUsed": {
    "_hex": "0x5208"
  },
  "miner": "0xEF247E639d49461D25F57e9362CadE3120910Ce0",
  "extraData": "0x476574682f76312e302e312f6c696e75782f676f312e342e32",
  "transactions": [
    {
      "hash": "0xd683bee496c7a85a10c7dcc298c588138ee481c50fcc5672e9b0e1d777a05843",
      "blockHash": "0x2613d827344a5f534e6563a1474fd1d63ce4df6ea10707ae204281fe6775dfc6",
      "blockNumber": 51502,
      "transactionIndex": 0,
      "confirmations": null,
      "from": "0x120A270bbC009644e35F0bB6ab13f95b8199c4ad",
      "gasPrice": {
        "_hex": "0xe071a7700"
      },
      "gasLimit": {
        "_hex": "0x15f90"
      },
      "to": "0xCA092A957744f6385B1aee5dC694143E8A06F805",
      "value": {
        "_hex": "0xb1a2bc2ec50000"
      },
      "nonce": 4,
      "data": "0x",
      "r": "0xa58f338bc779de4c24d8b55fa206d978c6ce7fda55f9b0109689e85dd39f8a2a",
      "s": "0x6ea82667ab630cd375487852b8e7661bbbd07709bef0b826b9cc21fb690c76b3",
      "v": 28,
      "creates": null,
      "raw": "0xf86c04850e071a770083015f9094ca092a957744f6385b1aee5dc694143e8a06f80587b1a2bc2ec50000801ca0a58f338bc779de4c24d8b55fa206d978c6ce7fda55f9b0109689e85dd39f8a2aa06ea82667ab630cd375487852b8e7661bbbd07709bef0b826b9cc21fb690c76b3",
      "networkId": 0,
      "chainId": 0
    }
  ]
}