{
  "hash": "0x2c0474147fdea611bf2852eb938aedf8e856ecbf60fda3f22b9467473d8345d6",
  "parentHash": "0x06686df321e71d42f1b50f4230b8c64d68eb454648812b418366d6e2936c56e2",
  "number": 80505,
  "timestamp": 1439486470,
  "nonce": "0x91643332efed1990",
  "difficulty": 2417972507800,
  "gasLimit": {
    "_hex": "0x2fefd8"
  },
  "gasUsed": {
    "_hex": "0x87aa"
  },
  "miner": "0x5B3e850E39e6f2C7dD38707b649e2B3536F14C0b",
  "extraData": "0x476574682f76312e302e312f64617277696e2f676f312e342e32",
  "transactions": [
    {
      "hash": "0xda50596027e11e154759673dadae48d24b9540ab58ef9e2e2173f5cc54a7ed51",
      "blockHash": "0x2c0474147fdea611bf2852eb938aedf8e856ecbf60fda3f22b9467473d8345d6",
      "blockNumber": 80505,
      "transactionIndex": 0,
      "confirmations": null,
      "from": "0x008FC7CBAdFFbD0D7fe44F8DFD60a79d721a1c9C",
      "gasPrice": {
        "_hex": "0xdd4f785d8"
      },
      "gasLimit": {
        "_hex": "0x15f90"
      },
      "to": "0x5F99D7Ece6B00868103daB44ceeAB57B9197eDCa",
      "value": {
        "_hex": "0x0"
      },
      "nonce": 52,
      "data": "0x32983c9e",
      "r": "0xc78cb4229adb5277fa68603e0e169d650908bac2677c3db840a1576ecb0cdc39",
      "s": "0x712f1dd5c5fb8048ce72fb701f3a911d20839bae8b494c254547795170e6468e",
      "v": 28,
      "creates": null,
      "raw": "0xf86934850dd4f785d883015f90945f99d7ece6b00868103dab44ceeab57b9197edca808432983c9e1ca0c78cb4229adb5277fa68603e0e169d650908bac2677c3db840a1576ecb0cdc39a0712f1dd5c5fb8048ce72fb701f3a911d20839bae8b494c254547795170e6468e",
      "networkId": 0,
      "chainId": 0
    }
  ]
}