{
  "hash": "0x08f9b90d26bb61008ce984ea8adb4ed61e2be35bca410a5f5d74b11c2984d98b",
  "parentHash": "0x9c91be7f686b168b00b1b4b30cf7eab70d0ec52d76284f8afa5e430d3b3f2d14",
  "number": 88282,
  "timestamp": 1439605750,
  "nonce": "0xd72588e318d9545a",
  "difficulty": 3195640285032,
  "gasLimit": {
    "_hex": "0x2fefd8"
  },
  "gasUsed": {
    "_hex": "0xc472"
  },
  "miner": "0x790b8a3cE86E707ED0eD32bF89B3269692a23CC1",
  "extraData": "0xd783010001844765746887676f312e342e32856c696e7578",
  "transactions": [
    {
      "hash": "0xb6d39a16b264e02e3cc1d8461086ed4f10fc7b4a718dec3e17c17df8dd677dee",
      "blockHash": "0x08f9b90d26bb61008ce984ea8adb4ed61e2be35bca410a5f5d74b11c2984d98b",
      "blockNumber": 88282,
      "transactionIndex": 0,
      "confirmations": null,
      "from": "0xf2Ae859397af92154241eAd0aC7c4ce3bea76E8F",
      "gasPrice": {
        "_hex": "0xdcaf03425"
      },
      "gasLimit": {
        "_hex": "0x15f90"
      },
      "to": "0xE7CA5a8e75Ef17f845C14A85C50e39B0DD30B8B7",
      "value": {
        "_hex": "0x0"
      },
      "nonce": 10,
      "data": "0x90b98a11000000000000000000000000c2b34a73703b5274e7b7ec06f35895ba696bac3f00000000000000000000000000000000000000000000000000000000000003e8",
      "r": "0x5dffc1ee1fd17134c0084d110abd4a646d55c2bb84e98237e5539a1f92daf9d9",
      "s": "0x16f30e4dc102751dfc93e0e7bf48a70217e772b8dae3fb28b9face3106b191e3",
      "v": 28,
      "creates": null,
      "raw": "0xf8aa0a850dcaf0342583015f9094e7ca5a8e75ef17f845c14a85c50e39b0dd30b8b780b84490b98a11000000000000000000000000c2b34a73703b5274e7b7ec06f35895ba696bac3f00000000000000000000000000000000000000000000000000000000000003e81ca05dffc1ee1fd17134c0084d110abd4a646d55c2bb84e98237e5539a1f92daf9d9a016f30e4dc102751dfc93e0e7bf48a70217e772b8dae3fb28b9face3106b191e3",
      "networkId": 0,
      "chainId": 0
    }
  ]
}