{
  "hash": "0x7ff66f5130d4ca9024ddb4099fd9ce779fd802eaa922ed4ef411cb63e58d6088",
  "parentHash": "0x259de8a8163e44a67e861e7c6bf8cc03dca5fa4a25b1defcca5c31b37c0a8135",
  "number": 54863,
  "timestamp": 1439061316,
  "nonce": "0xe5287bc363f496f9",
  "difficulty": 1610921583722,
  "gasLimit": {
    "_hex": "0x2fefd8"
  },
  "gasUsed": {
    "_hex": "0x5208"
  },
  "miner": "0x9746c7e1ef2bd21FF3997fa467593a89cb852BD0",
  "extraData": "0x476574682f76312e302e312f77696e646f77732f676f312e342e32",
  "transactions": [
    {
      "hash": "0x363a54a8ed145014e12e41f3becb9755adcd9a72a8de1ef7c662cbaff0bffd77",
      "blockHash": "0x7ff66f5130d4ca9024ddb4099fd9ce779fd802eaa922ed4ef411cb63e58d6088",
      "blockNumber": 54863,
      "transactionIndex": 0,
      "confirmations": null,
      "from": "0x2d5b42FC59ebda0Dfd66aE914BC28c1B0a6Ef83A",
      "gasPrice": {
        "_hex": "0xd8fa5ca3b"
      },
      "gasLimit": {
        "_hex": "0x15f90"
      },
      "to": "0xE73aa111fd3Ebc226B09A83b591b7D5143CE7F34",
      "value": {
        "_hex": "0xde0b6b3a7640000"
      },
      "nonce": 0,
      "data": "0x",
      "r": "0x0d9dd9377ec568a2943a6265373caa3960549ef389cb51f32b267d642daf891f",
      "s": "0x54eeed16e6fedbf3c061080c10b12d7de3aa651fb0a9b7231c97a7be60316948",
      "v": 27,
      "creates": null,
      "raw": "0xf86d80850d8fa5ca3b83015f9094e73aa111fd3ebc226b09a83b591b7d5143ce7f34880de0b6b3a7640000801ba00d9dd9377ec568a2943a6265373caa3960549ef389cb51f32b267d642daf891fa054eeed16e6fedbf3c061080c10b12d7de3aa651fb0a9b7231c97a7be60316948",
      "networkId": 0,
      "chainId": 0
    }
  ]
}