{
  "hash": "0xa5581d69d7c3c161b0c199b55c9697e8ec6189f0ca2f7fcd0cc78d3e1aed41a0",
  "parentHash": "0x1cbd2e2dafca52db3ebaa6c12eb4f5da7f9e4300c70837754b57f3cbf43feb8d",
  "number": 110460,
  "timestamp": 1439974157,
  "nonce": "0xb3c96acd41178dd5",
  "difficulty": 4381990381753,
  "gasLimit": {
    "_hex": "0x2fefd8"
  },
  "gasUsed": {
    "_hex": "0x5208"
  },
  "miner": "0xe6A7a1d47ff21B6321162AEA7C6CB457D5476Bca",
  "extraData": "0x476574682f76312e302e312d38326566323666362f6c696e75782f676f312e34",
  "transactions": [
    {
      "hash": "0xd14ac83a4d04d6b0bab6e846edef9e5815d4af05266d7c0a88f6b98c2cad70e0",
      "blockHash": "0xa5581d69d7c3c161b0c199b55c9697e8ec6189f0ca2f7fcd0cc78d3e1aed41a0",
      "blockNumber": 110460,
      "transactionIndex": 0,
      "confirmations": null,
      "from": "0x7B578F673507975447C714DF2bdCd15801fe30Fe",
      "gasPrice": {
        "_hex": "0xdbc32b5e8"
      },
      "gasLimit": {
        "_hex": "0x5208"
      },
      "to": "0x32Be343B94f860124dC4fEe278FDCBD38C102D88",
      "value": {
        "_hex": "0x3d61ec36feb1ec00"
      },
      "nonce": 4,
      "data": "0x",
      "r": "0x011e0e959063464c0d07998bf94563ab37ed12d3322bca07f11f2dfb22d129b6",
      "s": "0x4717d0e56b2f53751187cc8005b572ad2e2ea3cf6159b84714f92abe6e9d3a74",
      "v": 28,
      "creates": null,
      "raw": "0xf86c04850dbc32b5e88252089432be343b94f860124dc4fee278fdcbd38c102d88883d61ec36feb1ec00801ca0011e0e959063464c0d07998bf94563ab37ed12d3322bca07f11f2dfb22d129b6a04717d0e56b2f53751187cc8005b572ad2e2ea3cf6159b84714f92abe6e9d3a74",
      "networkId": 0,
      "chainId": 0
    }
  ]
}