{
  "hash": "0xfcbddf0c7bd47372f6ae79b336d2471bcec18e26e13a6e01676fa92c01f701a9",
  "parentHash": "0xd10710be4a0f744f2e82d162da8e2378e1dc9e2a4a9c4ccc467ff58245e049e3",
  "number": 71461,
  "timestamp": 1439336459,
  "nonce": "0x5ce2fee740f31c07",
  "difficulty": 2178286923448,
  "gasLimit": {
    "_hex": "0x2fefd8"
  },
  "gasUsed": {
    "_hex": "0x5208"
  },
  "miner": "0x9746c7e1ef2bd21FF3997fa467593a89cb852BD0",
  "extraData": "0x476574682f76312e302e312f77696e646f77732f676f312e342e32",
  "transactions": [
    {
      "hash": "0x65165a8e022fc8e9c570175a78d7f6343181e594f66ec40f8d48469e55b0c9ec",
      "blockHash": "0xfcbddf0c7bd47372f6ae79b336d2471bcec18e26e13a6e01676fa92c01f701a9",
      "blockNumber": 71461,
      "transactionIndex": 0,
      "confirmations": null,
      "from": "0x5c59E28366c83f1d262567c1c529185146e68b16",
      "gasPrice": {
        "_hex": "0xce6cd3a80"
      },
      "gasLimit": {
        "_hex": "0x5208"
      },
      "to": "0x32Be343B94f860124dC4fEe278FDCBD38C102D88",
      "value": {
        "_hex": "0x1dd0b2a02b08130000"
      },
      "nonce": 3,
      "data": "0x",
      "r": "0xebbdf46faacf588ccd38238b3dc8256df3f00336e699252fa94681d975bb6f3d",
      "s": "0x5a4bddeb75160297ff24d825f3ef59f9910ac6c4e1c0dd322b186cba0034ccb6",
      "v": 28,
      "creates": null,
      "raw": "0xf86d03850ce6cd3a808252089432be343b94f860124dc4fee278fdcbd38c102d88891dd0b2a02b08130000801ca0ebbdf46faacf588ccd38238b3dc8256df3f00336e699252fa94681d975bb6f3da05a4bddeb75160297ff24d825f3ef59f9910ac6c4e1c0dd322b186cba0034ccb6",
      "networkId": 0,
      "chainId": 0
    }
  ]
}