{
  "hash": "0xc480b7a7d86a72d70dc6f6ea403ab59a7bf1a08f8b6d3a703e5009de51a88667",
  "parentHash": "0x1c2f1c15a486ba292cbef3a4fc0c0c7a1da57e7601f585258df861faf57f2009",
  "number": 64598,
  "timestamp": 1439223283,
  "nonce": "0x313cbef06aaa7812",
  "difficulty": 1893152812480,
  "gasLimit": {
    "_hex": "0x2fefd8"
  },
  "gasUsed": {
    "_hex": "0x164e0"
  },
  "miner": "0x0Cb6EEF179Ba9E7036f95bEEB01e250ab85A8c88",
  "extraData": "0x476574682f76312e302e312f77696e646f77732f676f312e342e32",
  "transactions": [
    {
      "hash": "0xaa0c7aad7ff66cfab287f1c591c47f339025ae32a185f63693aac1fbce5969a3",
      "blockHash": "0xc480b7a7d86a72d70dc6f6ea403ab59a7bf1a08f8b6d3a703e5009de51a88667",
      "blockNumber": 64598,
      "transactionIndex": 0,
      "confirmations": null,
      "from": "0x4FcE8429bA49cAa0369d1E494Db57E89Eab2AD39",
      "gasPrice": {
        "_hex": "0xd86d5d312"
      },
      "gasLimit": {
        "_hex": "0x55f0"
      },
      "to": "0x2910543Af39abA0Cd09dBb2D50200b3E800A63D2",
      "value": {
        "_hex": "0x14c0973485bf39400000"
      },
      "nonce": 3,
      "data": "0x454e454d5851434b30",
      "r": "0x9da5f9b1e1fe49f07fa94c77b137b9348101b168a47eb6d5929140a9f49c25a0",
      "s": "0x68fbf8ce2c4e3a9042400167dae7c320316ca169689ef4211e6c06b263577b25",
      "v": 27,
      "creates": null,
      "raw": "0xf87703850d86d5d3128255f0942910543af39aba0cd09dbb2d50200b3e800a63d28a14c0973485bf3940000089454e454d5851434b301ba09da5f9b1e1fe49f07fa94c77b137b9348101b168a47eb6d5929140a9f49c25a0a068fbf8ce2c4e3a9042400167dae7c320316ca169689ef4211e6c06b263577b25",
      "networkId": 0,
      "chainId": 0
    },
    {
      "hash": "0x3768ac3d1afc765b0af2fab48699eb7ffc295dd802cbe6e822126e22209e1e03",
      "blockHash": "0xc480b7a7d86a72d70dc6f6ea403ab59a7bf1a08f8b6d3a703e5009de51a88667",
      "blockNumber": 64598,
      "transactionIndex": 1,
      "confirmations": null,
      "from": "0xb3054764a102233C3a5e5E5691787EA61EA4Afd3",
      "gasPrice": {
        "_hex": "0xba43b7400"
      },
      "gasLimit": {
        "_hex": "0x15f90"
      },
      "to": "0x793AE8C1b1a160BFc07BFB0d04F85eab1A71F4f2",
      "value": {
        "_hex": "0x0"
      },
      "nonce": 0,
      "data": "0x3ba15036",
      "r": "0x62ba580523da0e1a88433606035568ad6b094ba1b251e6f1799795e5d823f188",
      "s": "0x622f9681cbde69984f5f57bb8614ee02e3701b75a4ae392e25c8ea491b07fb35",
      "v": 27,
      "creates": null,
      "raw": "0xf86980850ba43b740083015f9094793ae8c1b1a160bfc07bfb0d04f85eab1a71f4f280843ba150361ba062ba580523da0e1a88433606035568ad6b094ba1b251e6f1799795e5d823f188a0622f9681cbde69984f5f57bb8614ee02e3701b75a4ae392e25c8ea491b07fb35",
      "networkId": 0,
      "chainId": 0
    },
    {
      "hash": "0xb5559c8781939f4a76460432663090335222b5501e95b63a13e5ebcb5748ebeb",
      "blockHash": "0xc480b7a7d86a72d70dc6f6ea403ab59a7bf1a08f8b6d3a703e5009de51a88667",
      "blockNumber": 64598,
      "transactionIndex": 2,
      "confirmations": null,
      "from": "0x11f41ebA32c990837cb34E7B5f2C5C1b21D296F5",
      "gasPrice": {
        "_hex": "0xba43b7400"
      },
      "gasLimit": {
        "_hex": "0x5208"
      },
      "to": "0x549E4951Eda725AA5C0a3101Af620344626f2214",
      "value": {
        "_hex": "0x36ef271c4dd000"
      },
      "nonce": 1,
      "data": "0x",
      "r": "0x229080566e54708bf5d6b032e9ba14c258859569f10dff3b9bfc66da83c6f738",
      "s": "0x60a9d7be167688ef9dc7e94118b803465ad15ac209e9cf9ce4ddfad59e285b50",
      "v": 28,
      "creates": null,
      "raw": "0xf86b01850ba43b740082520894549e4951eda725aa5c0a3101af620344626f22148736ef271c4dd000801ca0229080566e54708bf5d6b032e9ba14c258859569f10dff3b9bfc66da83c6f738a060a9d7be167688ef9dc7e94118b803465ad15ac209e9cf9ce4ddfad59e285b50",
      "networkId": 0,
      "chainId": 0
    }
  ]
}