{
  "hash": "0xc8bb0b736be22b53d1fa9f00463280913963541b70e95b5295b5ac9210000029",
  "parentHash": "0x5b68527a27aa0e22a20caa7f097677504d829e56d07dea8f65d427e6efdfeffa",
  "number": 46718,
  "timestamp": 1438928066,
  "nonce": "0x5ccb499207b1b99b",
  "difficulty": 1453207922057,
  "gasLimit": {
    "_hex": "0x73f1"
  },
  "gasUsed": {
    "_hex": "0x5208"
  },
  "miner": "0xF897399d0f64B7Fd450E1ED83B0F794e4686090A",
  "extraData": "0x476574682f76312e302e312f6c696e75782f676f312e342e32",
  "transactions": [
    {
      "hash": "0x4ef79d257143fe6fd154b76c97f40f2ec3ede7a2d927d73b614cee61ae9d94de",
      "blockHash": "0xc8bb0b736be22b53d1fa9f00463280913963541b70e95b5295b5ac9210000029",
      "blockNumber": 46718,
      "transactionIndex": 0,
      "confirmations": null,
      "from": "0xa08d215B5B6aAC4861A281aC7E400b78FEF04cbf",
      "gasPrice": {
        "_hex": "0xce32a3922"
      },
      "gasLimit": {
        "_hex": "0x6978"
      },
      "to": "0x7e1f96dE76715323e90CF5138ea516AD8528d407",
      "value": {
        "_hex": "0x1019b3f66d33040000"
      },
      "nonce": 1,
      "data": "0x",
      "r": "0x64af30588d5e3ff7128397c7370baac0110ba2f11f126fc68b40a1ea23acc717",
      "s": "0x5392f7dcbd9ca19b52a49d785744fe12f5d8d695261526acd22c49a049e706c7",
      "v": 27,
      "creates": null,
      "raw": "0xf86d01850ce32a3922826978947e1f96de76715323e90cf5138ea516ad8528d407891019b3f66d33040000801ba064af30588d5e3ff7128397c7370baac0110ba2f11f126fc68b40a1ea23acc717a05392f7dcbd9ca19b52a49d785744fe12f5d8d695261526acd22c49a049e706c7",
      "networkId": 0,
      "chainId": 0
    }
  ]
}