{
  "hash": "0x2369878481ea29cf752b138b3e3711468c239548fd7002422463a69862424537",
  "parentHash": "0xe5a3f0ce2f9b52ac1ee6181a04563052fe41bba41bf3e264165ca0709ab5a175",
  "number": 99404,
  "timestamp": 1439789558,
  "nonce": "0xc09677cbd3c73431",
  "difficulty": 3793591517247,
  "gasLimit": {
    "_hex": "0x2fefd8"
  },
  "gasUsed": {
    "_hex": "0xa410"
  },
  "miner": "0x790b8a3cE86E707ED0eD32bF89B3269692a23CC1",
  "extraData": "0xd783010001844765746887676f312e342e32856c696e7578",
  "transactions": [
    {
      "hash": "0x767a054331c2833a014f0c739c8f5b6d11129724147976ee7478cbce07212ed8",
      "blockHash": "0x2369878481ea29cf752b138b3e3711468c239548fd7002422463a69862424537",
      "blockNumber": 99404,
      "transactionIndex": 0,
      "confirmations": null,
      "from": "0x32Be343B94f860124dC4fEe278FDCBD38C102D88",
      "gasPrice": {
        "_hex": "0xcebb8f129"
      },
      "gasLimit": {
        "_hex": "0x5208"
      },
      "to": "0x0025BC2515C073784222cBCd1E988dBa9a0f75AF",
      "value": {
        "_hex": "0x115b5fdbfea2c00"
      },
      "nonce": 1061,
      "data": "0x",
      "r": "0x63afd5bfda74b16f067e1385a0261045bf9d71d91669763b070eba4daa256dfe",
      "s": "0x479d4120b2281caf80d90aa62512841a73e8030dacdf1d5b0d2d97dae69cabd8",
      "v": 27,
      "creates": null,
      "raw": "0xf86e820425850cebb8f129825208940025bc2515c073784222cbcd1e988dba9a0f75af880115b5fdbfea2c00801ba063afd5bfda74b16f067e1385a0261045bf9d71d91669763b070eba4daa256dfea0479d4120b2281caf80d90aa62512841a73e8030dacdf1d5b0d2d97dae69cabd8",
      "networkId": 0,
      "chainId": 0
    },
    {
      "hash": "0xcb31227422b7ad73cf1e1e829fcf8e3941393cad3468e524993d3d21eac1e918",
      "blockHash": "0x2369878481ea29cf752b138b3e3711468c239548fd7002422463a69862424537",
      "blockNumber": 99404,
      "transactionIndex": 1,
      "confirmations": null,
      "from": "0xD5bf64B3B17Fb895536953EfE17578a8b7b16880",
      "gasPrice": {
        "_hex": "0xcebb8f129"
      },
      "gasLimit": {
        "_hex": "0x5208"
      },
      "to": "0x32Be343B94f860124dC4fEe278FDCBD38C102D88",
      "value": {
        "_hex": "0x56bc33a4536224000"
      },
      "nonce": 2,
      "data": "0x",
      "r": "0xda011d2a8d8e405f240d62e9b6f565ed22319fb01a92eb603e81b7333e0da5bd",
      "s": "0x78536e6a46a380bde07a9d1e20412d5d9f106082e77ca73aa39ac21c2a6cd489",
      "v": 28,
      "creates": null,
      "raw": "0xf86d02850cebb8f1298252089432be343b94f860124dc4fee278fdcbd38c102d8889056bc33a4536224000801ca0da011d2a8d8e405f240d62e9b6f565ed22319fb01a92eb603e81b7333e0da5bda078536e6a46a380bde07a9d1e20412d5d9f106082e77ca73aa39ac21c2a6cd489",
      "networkId": 0,
      "chainId": 0
    }
  ]
}