{
  "hash": "0xff7fb3acb6edb8fbabbe3c7362a1f56f3ec03e565ca2eea5c790eadb6887762f",
  "parentHash": "0x443b0d9f88a58556fad4653b92bd3a2a4146de2166e8c30c4f0b13bc78e2168a",
  "number": 56319,
  "timestamp": 1439085245,
  "nonce": "0xfb6e35364d0bd5b9",
  "difficulty": 1656907931398,
  "gasLimit": {
    "_hex": "0x2fefd5"
  },
  "gasUsed": {
    "_hex": "0x52a9"
  },
  "miner": "0x88D74a59454F6cF3B51ef6b9136AFb6b9D405A88",
  "extraData": "0x476574682f76312e302e312d37666266393930632f6c696e75782f676f312e34",
  "transactions": [
    {
      "hash": "0xad41f53723d29e06ba82a3e510510c6f68ba2b7d5a6b823019cb71c1b33a1ddf",
      "blockHash": "0xff7fb3acb6edb8fbabbe3c7362a1f56f3ec03e565ca2eea5c790eadb6887762f",
      "blockNumber": 56319,
      "transactionIndex": 0,
      "confirmations": null,
      "from": "0xA1eEc0a9b7C50B8e79A0D9B8760bC5681fb199EC",
      "gasPrice": {
        "_hex": "0xd1e665b55"
      },
      "gasLimit": {
        "_hex": "0x927c0"
      },
      "to": "0x01957911244E546cE519fbaC6f798958fAfadB41",
      "value": {
        "_hex": "0x0"
      },
      "nonce": 8,
      "data": "0x01cb3b20",
      "r": "0x34920ade70e6bdca495b1919d3215d6ba17d473ccb3747acd8af69d212b31e21",
      "s": "0x78d77607ede13cff0b140bd224944ad4b299e4e8b908d61010fabb205f01cf6d",
      "v": 27,
      "creates": null,
      "raw": "0xf86908850d1e665b55830927c09401957911244e546ce519fbac6f798958fafadb41808401cb3b201ba034920ade70e6bdca495b1919d3215d6ba17d473ccb3747acd8af69d212b31e21a078d77607ede13cff0b140bd224944ad4b299e4e8b908d61010fabb205f01cf6d",
      "networkId": 0,
      "chainId": 0
    }
  ]
}