{
  "hash": "0x42c081ef4653b8dab79aa6c09c90cad3b00ed5ccbc1c980e5abe0e73d39566ba",
  "parentHash": "0x43b09ce909704f6040c14ac190d6d587d4582f129d3242ab3c70fbd7298247dd",
  "number": 53105,
  "timestamp": 1439032486,
  "nonce": "0xa7fd97060ba8aaab",
  "difficulty": 1577011532261,
  "gasLimit": {
    "_hex": "0x1fa156"
  },
  "gasUsed": {
    "_hex": "0xa8d8"
  },
  "miner": "0x88D74a59454F6cF3B51ef6b9136AFb6b9D405A88",
  "extraData": "0x476574682f76312e302e302d66633739643332642f6c696e75782f676f312e34",
  "transactions": [
    {
      "hash": "0xfb9c1e599222e3d4bd5fe2dfa824084a1365bb2786fe4fc1efde83d4b905fb54",
      "blockHash": "0x42c081ef4653b8dab79aa6c09c90cad3b00ed5ccbc1c980e5abe0e73d39566ba",
      "blockNumber": 53105,
      "transactionIndex": 0,
      "confirmations": null,
      "from": "0x77a17122Fa31b98f1711D32A99F03Ec326F33D08",
      "gasPrice": {
        "_hex": "0x110c8f7d8de"
      },
      "gasLimit": {
        "_hex": "0xc350"
      },
      "to": "0x2910543Af39abA0Cd09dBb2D50200b3E800A63D2",
      "value": {
        "_hex": "0x8ac7230489e80000"
      },
      "nonce": 0,
      "data": "0x454e37483258325538",
      "r": "0xb000c0156dedc2c323a71b53d6043ac97c46027a808c0c79ee410d373f328917",
      "s": "0x31073c1c49acf7c8a7c1231d2d44de23b37542e0d33dfa18147b9c8f541f8fbe",
      "v": 27,
      "creates": null,
      "raw": "0xf87680860110c8f7d8de82c350942910543af39aba0cd09dbb2d50200b3e800a63d2888ac7230489e8000089454e374832583255381ba0b000c0156dedc2c323a71b53d6043ac97c46027a808c0c79ee410d373f328917a031073c1c49acf7c8a7c1231d2d44de23b37542e0d33dfa18147b9c8f541f8fbe",
      "networkId": 0,
      "chainId": 0
    },
    {
      "hash": "0x87fedf4f8f8412959d83bd446ee4e2fae2796a39f235f9f1e3ac87293e974322",
      "blockHash": "0x42c081ef4653b8dab79aa6c09c90cad3b00ed5ccbc1c980e5abe0e73d39566ba",
      "blockNumber": 53105,
      "transactionIndex": 1,
      "confirmations": null,
      "from": "0x3B5e8B3c77f792DecB7A8985Df916Efb490aAc23",
      "gasPrice": {
        "_hex": "0x110c8f7d8de"
      },
      "gasLimit": {
        "_hex": "0xc350"
      },
      "to": "0x2910543Af39abA0Cd09dBb2D50200b3E800A63D2",
      "value": {
        "_hex": "0x6c262fca09784c0000"
      },
      "nonce": 0,
      "data": "0x454e3931324a455552",
      "r": "0x08dba2e5496e0388a48d956a91777f055b9ef99ac0be409cec8cdaa2158103ff",
      "s": "0x7b10bbc1b3e236d4ee5ea45d67809e3fec24ca539475587d229da44cab9c2e2d",
      "v": 28,
      "creates": null,
      "raw": "0xf87780860110c8f7d8de82c350942910543af39aba0cd09dbb2d50200b3e800a63d2896c262fca09784c000089454e3931324a4555521ca008dba2e5496e0388a48d956a91777f055b9ef99ac0be409cec8cdaa2158103ffa07b10bbc1b3e236d4ee5ea45d67809e3fec24ca539475587d229da44cab9c2e2d",
      "networkId": 0,
      "chainId": 0
    }
  ]
}