{
  "hash": "0xc1ffe9e0040e80fd33888e86849e5897ccb2aa76527c40803f02b8d953630169",
  "parentHash": "0xc480b7a7d86a72d70dc6f6ea403ab59a7bf1a08f8b6d3a703e5009de51a88667",
  "number": 64599,
  "timestamp": 1439223284,
  "nonce": "0x58336d9e4149f941",
  "difficulty": 1894077203501,
  "gasLimit": {
    "_hex": "0x2fefd8"
  },
  "gasUsed": {
    "_hex": "0x5208"
  },
  "miner": "0xC49418429e58989172a4ACE0bab0cB8D3F00F97f",
  "extraData": "0x476574682f76312e302e312f6c696e75782f676f312e342e32",
  "transactions": [
    {
      "hash": "0x9395b8822d0ce4638f453b6fb31fbd5cd6bb08c360c5083a5614c232554bd5cc",
      "blockHash": "0xc1ffe9e0040e80fd33888e86849e5897ccb2aa76527c40803f02b8d953630169",
      "blockNumber": 64599,
      "transactionIndex": 0,
      "confirmations": null,
      "from": "0x6747f922385c9a6F9cfDf095F34345257DD597bE",
      "gasPrice": {
        "_hex": "0xba43b7400"
      },
      "gasLimit": {
        "_hex": "0x5208"
      },
      "to": "0xaFA6B25669A8e28d6EfBE9350C7198B086E0d926",
      "value": {
        "_hex": "0x1fcbfa42bd6000"
      },
      "nonce": 12,
      "data": "0x",
      "r": "0xb5764c51cd4d549fc5d17df62c9d78442f59a7a1caadc62bf3746bc1535f325f",
      "s": "0x5bf7ab64dfbf289b0407f3d85e5973e1ee8ec07396ce1af4bbbb70a92ae1c06d",
      "v": 28,
      "creates": null,
      "raw": "0xf86b0c850ba43b740082520894afa6b25669a8e28d6efbe9350c7198b086e0d926871fcbfa42bd6000801ca0b5764c51cd4d549fc5d17df62c9d78442f59a7a1caadc62bf3746bc1535f325fa05bf7ab64dfbf289b0407f3d85e5973e1ee8ec07396ce1af4bbbb70a92ae1c06d",
      "networkId": 0,
      "chainId": 0
    }
  ]
}