{
  "hash": "0x7ab945958ef4bea403790ccb0c8a7e4e6e76003685512829b608c3a60f9bb14e",
  "parentHash": "0x5af535d8e4aea1207cd1826b5d3a1a9871deabcd7234aa5740a745cac3c7fd53",
  "number": 100153,
  "timestamp": 1439801583,
  "nonce": "0xd4c96b9d59a613b2",
  "difficulty": 3843592619777,
  "gasLimit": {
    "_hex": "0x2fefd8"
  },
  "gasUsed": {
    "_hex": "0x5208"
  },
  "miner": "0x88D74a59454F6cF3B51ef6b9136AFb6b9D405A88",
  "extraData": "0x476574682f76312e302e312d38326566323666362f6c696e75782f676f312e34",
  "transactions": [
    {
      "hash": "0xd9af116748588abf2d9c191815bb30452564c4ee4d30eb49dec3bf56177a1143",
      "blockHash": "0x7ab945958ef4bea403790ccb0c8a7e4e6e76003685512829b608c3a60f9bb14e",
      "blockNumber": 100153,
      "transactionIndex": 0,
      "confirmations": null,
      "from": "0x4bA6C728e6251DC89C317f7dbCA89D4136C0baB0",
      "gasPrice": {
        "_hex": "0xd1a094277"
      },
      "gasLimit": {
        "_hex": "0x5208"
      },
      "to": "0x32Be343B94f860124dC4fEe278FDCBD38C102D88",
      "value": {
        "_hex": "0xa583a358cd0f8000"
      },
      "nonce": 6,
      "data": "0x",
      "r": "0xf96a2a059d8e1dc70fca7e59eb5191e43c456e6019e787a9f0afdd17c1051459",
      "s": "0x7cb71d5c33291ede5fbee4bdef3ae00a26d74e4c2081fb2403bc438bf78c79e7",
      "v": 28,
      "creates": null,
      "raw": "0xf86c06850d1a0942778252089432be343b94f860124dc4fee278fdcbd38c102d8888a583a358cd0f8000801ca0f96a2a059d8e1dc70fca7e59eb5191e43c456e6019e787a9f0afdd17c1051459a07cb71d5c33291ede5fbee4bdef3ae00a26d74e4c2081fb2403bc438bf78c79e7",
      "networkId": 0,
      "chainId": 0
    }
  ]
}