{
  "hash": "0x5c56354771bd017d70ca8db34291c49059aa3018a78811de3cd898d6b0056b5e",
  "parentHash": "0xa2b5ca2f275327f4c6497fcd0c16543a122865b60274e0c4f0f510098763ad1b",
  "number": 79682,
  "timestamp": 1439473543,
  "nonce": "0x564c270b70d3c11b",
  "difficulty": 2351834020725,
  "gasLimit": {
    "_hex": "0x2fefd8"
  },
  "gasUsed": {
    "_hex": "0x5208"
  },
  "miner": "0x88D74a59454F6cF3B51ef6b9136AFb6b9D405A88",
  "extraData": "0x476574682f76312e302e312d37666266393930632f6c696e75782f676f312e34",
  "transactions": [
    {
      "hash": "0xdba472f27ef6962c95a251c1159e4118a2133ef6f1c6c9bc5b3b3e35710501e3",
      "blockHash": "0x5c56354771bd017d70ca8db34291c49059aa3018a78811de3cd898d6b0056b5e",
      "blockNumber": 79682,
      "transactionIndex": 0,
      "confirmations": null,
      "from": "0x31353beec2eD3DFfC213c27A9F28ad8dfee828e9",
      "gasPrice": {
        "_hex": "0xd8364fc25"
      },
      "gasLimit": {
        "_hex": "0x15f90"
      },
      "to": "0x2071130408d9aAf3D5D65953118c3FE37aCB8D04",
      "value": {
        "_hex": "0xc249fdd327780000"
      },
      "nonce": 2,
      "data": "0x",
      "r": "0x4bbba95499b388bbe6e540ad11b4e849e9f3e237bdb2145f9617e6672631b648",
      "s": "0x2cfb88e94b678ef6a505f0865881765f71f42c4b61c23715d45956e027497509",
      "v": 27,
      "creates": null,
      "raw": "0xf86d02850d8364fc2583015f90942071130408d9aaf3d5d65953118c3fe37acb8d0488c249fdd327780000801ba04bbba95499b388bbe6e540ad11b4e849e9f3e237bdb2145f9617e6672631b648a02cfb88e94b678ef6a505f0865881765f71f42c4b61c23715d45956e027497509",
      "networkId": 0,
      "chainId": 0
    }
  ]
}