{
  "hash": "0x64f2fe1a9bb7398dcb900a0a6ab0e970e9fd47bb93fb470e0839ef639f3cf753",
  "parentHash": "0xf7e7b61ba7de63d831bdaac86060606276d6e8e18777934095d0c8ca9d4a3c0a",
  "number": 64898,
  "timestamp": 1439228008,
  "nonce": "0xbd33654b6ac0ccac",
  "difficulty": 1907932760963,
  "gasLimit": {
    "_hex": "0x2fefd8"
  },
  "gasUsed": {
    "_hex": "0xbe6c"
  },
  "miner": "0xC713D2B774095B6E4c738c3FB95e6648Dee3e75D",
  "extraData": "0x476574682f76312e302e312d38326566323666362f6c696e75782f676f312e34",
  "transactions": [
    {
      "hash": "0xae4a35410da7e1e2b6931b4e536fee977dadf0228c16598682bae4a70d56aecc",
      "blockHash": "0x64f2fe1a9bb7398dcb900a0a6ab0e970e9fd47bb93fb470e0839ef639f3cf753",
      "blockNumber": 64898,
      "transactionIndex": 0,
      "confirmations": null,
      "from": "0xd7C82a75D50071E421ce739e89ADE1a163B24480",
      "gasPrice": {
        "_hex": "0xba43b7400"
      },
      "gasLimit": {
        "_hex": "0x15f90"
      },
      "to": "0x793AE8C1b1a160BFc07BFB0d04F85eab1A71F4f2",
      "value": {
        "_hex": "0x0"
      },
      "nonce": 0,
      "data": "0x3ba15036",
      "r": "0x0422ec34aa0a99b8d9969ee0af36778c0fe8b76f57c5b78ee540bd048596c4a3",
      "s": "0x18382f170ddc79e3bc0a151211d01117d41cf817c093be3d8d16a2a805539a06",
      "v": 27,
      "creates": null,
      "raw": "0xf86980850ba43b740083015f9094793ae8c1b1a160bfc07bfb0d04f85eab1a71f4f280843ba150361ba00422ec34aa0a99b8d9969ee0af36778c0fe8b76f57c5b78ee540bd048596c4a3a018382f170ddc79e3bc0a151211d01117d41cf817c093be3d8d16a2a805539a06",
      "networkId": 0,
      "chainId": 0
    }
  ]
}