{
  "hash": "0xbb875ba7b65696bb288eefbea5ad3ba0ac2c49dfad3861602d463e389cfa7e49",
  "parentHash": "0x2d66c74f4593c06fa319b026233fae9561f0af16d39c6bca024dd180a6d65476",
  "number": 74021,
  "timestamp": 1439378989,
  "nonce": "0x25358033847b9427",
  "difficulty": 2240174785072,
  "gasLimit": {
    "_hex": "0x2fefd8"
  },
  "gasUsed": {
    "_hex": "0x5208"
  },
  "miner": "0x0a58b1C9aaF19693813c11b8a20D20C2a8Fe8883",
  "extraData": "0x",
  "transactions": [
    {
      "hash": "0xbdfbed7cf7e39020b0a28220b80957589344fcb9f2e5e22493462460d5ceade2",
      "blockHash": "0xbb875ba7b65696bb288eefbea5ad3ba0ac2c49dfad3861602d463e389cfa7e49",
      "blockNumber": 74021,
      "transactionIndex": 0,
      "confirmations": null,
      "from": "0x8F79f76381Aad7B98C19aF55eE75fdfEeb012211",
      "gasPrice": {
        "_hex": "0xd3c4deca8"
      },
      "gasLimit": {
        "_hex": "0x5208"
      },
      "to": "0x32Be343B94f860124dC4fEe278FDCBD38C102D88",
      "value": {
        "_hex": "0xdca3f3892aac8000"
      },
      "nonce": 7,
      "data": "0x",
      "r": "0x72a20653c2853c5a278b4305f6fd44e30dbbb994c1b02bb157b4d3d9f11f6551",
      "s": "0x69b7317bcacec6977e83984bdd7c121a71fe49061d03ee5256630e5519c3eac0",
      "v": 27,
      "creates": null,
      "raw": "0xf86c07850d3c4deca88252089432be343b94f860124dc4fee278fdcbd38c102d8888dca3f3892aac8000801ba072a20653c2853c5a278b4305f6fd44e30dbbb994c1b02bb157b4d3d9f11f6551a069b7317bcacec6977e83984bdd7c121a71fe49061d03ee5256630e5519c3eac0",
      "networkId": 0,
      "chainId": 0
    }
  ]
}