{
  "hash": "0x0990202c72fe4739c06d83055006abab42f27265649a468f1c5f252e9444c098",
  "parentHash": "0xf34ce9ce8d8512fa4eba525a93b1bf06595e658c8a260b48aad9b43a99555c92",
  "number": 91081,
  "timestamp": 1439650253,
  "nonce": "0x5837d1cc725b573a",
  "difficulty": 3425604756570,
  "gasLimit": {
    "_hex": "0x2fefd8"
  },
  "gasUsed": {
    "_hex": "0x5208"
  },
  "miner": "0xBF26bdEBFe8e9CCe5f9868Ccb198d03F3de44055",
  "extraData": "0x476574682f76312e302e312f6c696e75782f676f312e342e32",
  "transactions": [
    {
      "hash": "0x3a64628d73e4ce4593c30d9bcc4268a3a5e933bfb6d04579396610efe651b936",
      "blockHash": "0x0990202c72fe4739c06d83055006abab42f27265649a468f1c5f252e9444c098",
      "blockNumber": 91081,
      "transactionIndex": 0,
      "confirmations": null,
      "from": "0x8293b65bD915B9FF87F6aDAb479da2e5b6633fDB",
      "gasPrice": {
        "_hex": "0xe0ec6d5b9"
      },
      "gasLimit": {
        "_hex": "0x15f90"
      },
      "to": "0x9f78552704fe7e52cC7C3853534aA2C3cf580D54",
      "value": {
        "_hex": "0x4563918244f40000"
      },
      "nonce": 13,
      "data": "0x",
      "r": "0x87810de9b6711aa03aa9a316d976bcfc06abb46b232794e002c4b967f7df27a8",
      "s": "0x496f8ae84e7b44d2f75f9fdf50a1e471f50e081c1cd9db0680a2c0e0d516d5c9",
      "v": 27,
      "creates": null,
      "raw": "0xf86d0d850e0ec6d5b983015f90949f78552704fe7e52cc7c3853534aa2c3cf580d54884563918244f40000801ba087810de9b6711aa03aa9a316d976bcfc06abb46b232794e002c4b967f7df27a8a0496f8ae84e7b44d2f75f9fdf50a1e471f50e081c1cd9db0680a2c0e0d516d5c9",
      "networkId": 0,
      "chainId": 0
    }
  ]
}