{
  "hash": "0xda06608748bf94a418055d7ae52682ebd87a55c1325541c51e7e9b89675884bc",
  "parentHash": "0x321be2be870de28fcbdd6a4d19c973dff591dc9e945ff93fbe95ca7775b1952d",
  "number": 46689,
  "timestamp": 1438927447,
  "nonce": "0xd3dbee5bfbdcbfc0",
  "difficulty": 1461039288693,
  "gasLimit": {
    "_hex": "0x719c"
  },
  "gasUsed": {
    "_hex": "0x5208"
  },
  "miner": "0xbb7B8287f3F0a933474a79eAe42CBCa977791171",
  "extraData": "0x476574682f4c5649562f76312e302e312f6c696e75782f676f312e342e32",
  "transactions": [
    {
      "hash": "0xe41271a0af3a97b25196ba4f8cd167cbf0bf3cdd35a33872c216e5547b158a03",
      "blockHash": "0xda06608748bf94a418055d7ae52682ebd87a55c1325541c51e7e9b89675884bc",
      "blockNumber": 46689,
      "transactionIndex": 0,
      "confirmations": null,
      "from": "0xad00B7a324f31351d397408c8c3952Ea198317eB",
      "gasPrice": {
        "_hex": "0xd40a92ef1"
      },
      "gasLimit": {
        "_hex": "0x5208"
      },
      "to": "0x32Be343B94f860124dC4fEe278FDCBD38C102D88",
      "value": {
        "_hex": "0x455f52617901b400"
      },
      "nonce": 0,
      "data": "0x",
      "r": "0xafc45a8dc45674fc36bea3f8673c5c833625c419aae4e59c22d9dc7e5f655d65",
      "s": "0x3f1bf6151f7a9d2f4d84d124864ab7bd0cde71a604b011126625ac858f34a209",
      "v": 28,
      "creates": null,
      "raw": "0xf86c80850d40a92ef18252089432be343b94f860124dc4fee278fdcbd38c102d8888455f52617901b400801ca0afc45a8dc45674fc36bea3f8673c5c833625c419aae4e59c22d9dc7e5f655d65a03f1bf6151f7a9d2f4d84d124864ab7bd0cde71a604b011126625ac858f34a209",
      "networkId": 0,
      "chainId": 0
    }
  ]
}