{
  "hash": "0x29d816bf6e23c459f53d7d84953ccc9c8068917796aaecd9b6b99220e9b64d9e",
  "parentHash": "0x73c4918dcaaaded6ecc3b934d94e4ce9689acd9d8647c3e81b20b00916b407a5",
  "number": 96072,
  "timestamp": 1439734426,
  "nonce": "0xcdc778707f1148fa",
  "difficulty": 3642589309069,
  "gasLimit": {
    "_hex": "0x2fefd8"
  },
  "gasUsed": {
    "_hex": "0x5208"
  },
  "miner": "0xe6A7a1d47ff21B6321162AEA7C6CB457D5476Bca",
  "extraData": "0x476574682f76312e302e312d38326566323666362f6c696e75782f676f312e34",
  "transactions": [
    {
      "hash": "0x11e7a79577f3b8ae55b67c6b395d44d8a2ac5ed7fce335397b0644c44aa7c64d",
      "blockHash": "0x29d816bf6e23c459f53d7d84953ccc9c8068917796aaecd9b6b99220e9b64d9e",
      "blockNumber": 96072,
      "transactionIndex": 0,
      "confirmations": null,
      "from": "0x8F79f76381Aad7B98C19aF55eE75fdfEeb012211",
      "gasPrice": {
        "_hex": "0xda86724fe"
      },
      "gasLimit": {
        "_hex": "0x5208"
      },
      "to": "0x32Be343B94f860124dC4fEe278FDCBD38C102D88",
      "value": {
        "_hex": "0x34e872870211d8000"
      },
      "nonce": 35,
      "data": "0x",
      "r": "0x2ed93b228c48690d999fa1767a55a63303729b842b8190c05b0cb2a84f3644d1",
      "s": "0x4ad744c69c8525d76b2d11814174537f7bb6e10e9de3e03047f30dd2a7fd7691",
      "v": 28,
      "creates": null,
      "raw": "0xf86d23850da86724fe8252089432be343b94f860124dc4fee278fdcbd38c102d8889034e872870211d8000801ca02ed93b228c48690d999fa1767a55a63303729b842b8190c05b0cb2a84f3644d1a04ad744c69c8525d76b2d11814174537f7bb6e10e9de3e03047f30dd2a7fd7691",
      "networkId": 0,
      "chainId": 0
    }
  ]
}