{
  "hash": "0xf5b73e9a3e4772e2f5b28595c057a5b1de8a15da66d5318cd7d6c288af1d1e80",
  "parentHash": "0xe8b690af1b4ec61fd5133b52b2423cc470230b3b3cec768cbaa501b484140182",
  "number": 95906,
  "timestamp": 1439731799,
  "nonce": "0x1efe1a2620a26534",
  "difficulty": 3621380079751,
  "gasLimit": {
    "_hex": "0x2fefd8"
  },
  "gasUsed": {
    "_hex": "0x5208"
  },
  "miner": "0xe6A7a1d47ff21B6321162AEA7C6CB457D5476Bca",
  "extraData": "0x476574682f76312e302e312d38326566323666362f6c696e75782f676f312e34",
  "transactions": [
    {
      "hash": "0x3f187b715e27db77ed1f515a3da1466afe6ac879adaf78a3f495b6c3b74d7910",
      "blockHash": "0xf5b73e9a3e4772e2f5b28595c057a5b1de8a15da66d5318cd7d6c288af1d1e80",
      "blockNumber": 95906,
      "transactionIndex": 0,
      "confirmations": null,
      "from": "0x007f7f58D3eb5b7510A301eCC749FC1fCDDBE14D",
      "gasPrice": {
        "_hex": "0xcc8ddf695"
      },
      "gasLimit": {
        "_hex": "0x15f90"
      },
      "to": "0xb1abce2918E21ddb93AA452731a12672A3d9F75a",
      "value": {
        "_hex": "0x4563918244f40000"
      },
      "nonce": 65,
      "data": "0x",
      "r": "0xe4c2af7c79626d3dd13419bcadca713f200618367e21100d02fa1b0982eae999",
      "s": "0x6d8cad64c2229d57892277b1a923a3feed1da611513d90e0336d1e0b1ccc5716",
      "v": 27,
      "creates": null,
      "raw": "0xf86d41850cc8ddf69583015f9094b1abce2918e21ddb93aa452731a12672a3d9f75a884563918244f40000801ba0e4c2af7c79626d3dd13419bcadca713f200618367e21100d02fa1b0982eae999a06d8cad64c2229d57892277b1a923a3feed1da611513d90e0336d1e0b1ccc5716",
      "networkId": 0,
      "chainId": 0
    }
  ]
}