{
  "hash": "0x1ebd9a6eb1692dfa1b3e4e64c2c6dd5ee63418c6393bfa56b9c38fecbd291085",
  "parentHash": "0x08edce31acbf5b228aee9047778bb5c410f92229021f374bf1d7f7347f5cf900",
  "number": 103662,
  "timestamp": 1439856981,
  "nonce": "0xce06eb1ba4f9e1a6",
  "difficulty": 4209306060265,
  "gasLimit": {
    "_hex": "0x2fefd8"
  },
  "gasUsed": {
    "_hex": "0x5208"
  },
  "miner": "0xa6BDc31c431B8F97848c9D60cbbe9660dc450eB7",
  "extraData": "0x",
  "transactions": [
    {
      "hash": "0x65a05a2483fedad6697f614d12b6710a005a951c7cf28ff3ed4e92fd30e397ae",
      "blockHash": "0x1ebd9a6eb1692dfa1b3e4e64c2c6dd5ee63418c6393bfa56b9c38fecbd291085",
      "blockNumber": 103662,
      "transactionIndex": 0,
      "confirmations": null,
      "from": "0x32Be343B94f860124dC4fEe278FDCBD38C102D88",
      "gasPrice": {
        "_hex": "0xd7bd276f6"
      },
      "gasLimit": {
        "_hex": "0x5208"
      },
      "to": "0xE3291e02d1d7b6A7F4aAA164c56Cf21FD30D0eb5",
      "value": {
        "_hex": "0x552280d12a7ad40000"
      },
      "nonce": 1131,
      "data": "0x",
      "r": "0xe2e6b4dd26f033280213c516e17119af3157772bda14890696b16c34187cfd2d",
      "s": "0x289615b8c9a40d1f221b29da087b5bbdbb01687a5c613824499020f69345caed",
      "v": 28,
      "creates": null,
      "raw": "0xf86f82046b850d7bd276f682520894e3291e02d1d7b6a7f4aaa164c56cf21fd30d0eb589552280d12a7ad40000801ca0e2e6b4dd26f033280213c516e17119af3157772bda14890696b16c34187cfd2da0289615b8c9a40d1f221b29da087b5bbdbb01687a5c613824499020f69345caed",
      "networkId": 0,
      "chainId": 0
    }
  ]
}