{
  "hash": "0x8432b5adee9ae4baeada31165282b0116dbb7acdc2b0c9876b79102a91beb705",
  "parentHash": "0x7ea29e7605de9d9be321767fb1f11d4ef28b476e1a7041bcc85e7428b0de0a18",
  "number": 75619,
  "timestamp": 1439406431,
  "nonce": "0x01a64409d4900548",
  "difficulty": 2224489513948,
  "gasLimit": {
    "_hex": "0x2fefd8"
  },
  "gasUsed": {
    "_hex": "0x5208"
  },
  "miner": "0xa50ec0D39fa913E62f1Bae7074E6F36caA71855b",
  "extraData": "0x",
  "transactions": [
    {
      "hash": "0x54bc5bea2a0fd5c2ddceb5cfc4fc772a0e03d0561714e5f8d6ec04710b2e7c18",
      "blockHash": "0x8432b5adee9ae4baeada31165282b0116dbb7acdc2b0c9876b79102a91beb705",
      "blockNumber": 75619,
      "transactionIndex": 0,
      "confirmations": null,
      "from": "0xF5EeDc192aB70b08D8354384aD94efD095849E00",
      "gasPrice": {
        "_hex": "0xdd9ff1fe6"
      },
      "gasLimit": {
        "_hex": "0x5208"
      },
      "to": "0x32Be343B94f860124dC4fEe278FDCBD38C102D88",
      "value": {
        "_hex": "0x7b2a0db8619ff4000"
      },
      "nonce": 24,
      "data": "0x",
      "r": "0xc3b3d2cfda9b89bdb26e91e0eac059fd8b59d000cbeb6107aa3121785abbce73",
      "s": "0x1e69f3aa526feeffaf2b8f22797641b8ecb77d0d9500a32582193433d4661720",
      "v": 28,
      "creates": null,
      "raw": "0xf86d18850dd9ff1fe68252089432be343b94f860124dc4fee278fdcbd38c102d888907b2a0db8619ff4000801ca0c3b3d2cfda9b89bdb26e91e0eac059fd8b59d000cbeb6107aa3121785abbce73a01e69f3aa526feeffaf2b8f22797641b8ecb77d0d9500a32582193433d4661720",
      "networkId": 0,
      "chainId": 0
    }
  ]
}