{
  "hash": "0xa2f4aa2e8d02ee461fc586acb07c15b97bdd845833d208f2ff1bddb83461a29d",
  "parentHash": "0x60f5b36cb4299cc4aa6d48fde6d59a662726519c101287bb01b9b4f20bd47924",
  "number": 81101,
  "timestamp": 1439496237,
  "nonce": "0x857cd351f10ac3d8",
  "difficulty": 2439144582194,
  "gasLimit": {
    "_hex": "0x2fefd8"
  },
  "gasUsed": {
    "_hex": "0x5208"
  },
  "miner": "0xe090Ffdced499691fA9379752a59F8A058c1eE4A",
  "extraData": "0x476574682f76312e302e312f6c696e75782f676f312e342e32",
  "transactions": [
    {
      "hash": "0x123175ea5d57413b75c85860436cc33033984feaafb44fe07537960e9eb39216",
      "blockHash": "0xa2f4aa2e8d02ee461fc586acb07c15b97bdd845833d208f2ff1bddb83461a29d",
      "blockNumber": 81101,
      "transactionIndex": 0,
      "confirmations": null,
      "from": "0xabceA603089850F8f6bB612A9031554D90A247CF",
      "gasPrice": {
        "_hex": "0xcd7b25cef"
      },
      "gasLimit": {
        "_hex": "0x5208"
      },
      "to": "0x32Be343B94f860124dC4fEe278FDCBD38C102D88",
      "value": {
        "_hex": "0x455f6a5f8b892c00"
      },
      "nonce": 22,
      "data": "0x",
      "r": "0x73f833392b1bb674b8dcc5a3991948eafccf7944b956b2f374abcfe0414aa2c5",
      "s": "0x64213a1813fa2ee4b18b1f23ed752c16ea3e768a693d73d31f04f432491c65ac",
      "v": 28,
      "creates": null,
      "raw": "0xf86c16850cd7b25cef8252089432be343b94f860124dc4fee278fdcbd38c102d8888455f6a5f8b892c00801ca073f833392b1bb674b8dcc5a3991948eafccf7944b956b2f374abcfe0414aa2c5a064213a1813fa2ee4b18b1f23ed752c16ea3e768a693d73d31f04f432491c65ac",
      "networkId": 0,
      "chainId": 0
    }
  ]
}