{
  "hash": "0x2925208f91488a9287e0b08d07a25895350c2dec4b23e8cee69465182bb67a6f",
  "parentHash": "0x9c835e910bbbf54744dd926b2fcb1ddc9f6a221524247d8770ea6023a1bbde5c",
  "number": 78439,
  "timestamp": 1439453769,
  "nonce": "0xaa8ba919e2c4f305",
  "difficulty": 2292091517152,
  "gasLimit": {
    "_hex": "0x2fefd8"
  },
  "gasUsed": {
    "_hex": "0x2cea9"
  },
  "miner": "0x9746c7e1ef2bd21FF3997fa467593a89cb852BD0",
  "extraData": "0x476574682f76312e302e312f77696e646f77732f676f312e342e32",
  "transactions": [
    {
      "hash": "0x73f2a8c12cd1606f9a074ac68b4e3c301687996d1c1eb2651f14539dbd0f767b",
      "blockHash": "0x2925208f91488a9287e0b08d07a25895350c2dec4b23e8cee69465182bb67a6f",
      "blockNumber": 78439,
      "transactionIndex": 0,
      "confirmations": null,
      "from": "0x1F8116Bd0aF5570Eaf0C56C49c7ab5E37A580458",
      "gasPrice": {
        "_hex": "0x108d914c084"
      },
      "gasLimit": {
        "_hex": "0x55f0"
      },
      "to": "0x2910543Af39abA0Cd09dBb2D50200b3E800A63D2",
      "value": {
        "_hex": "0xb1a2bc2ec50000"
      },
      "nonce": 0,
      "data": "0x454e44485642394352",
      "r": "0x061a9a871d217ae86cc4bfbf0a75c31379303b8282654824a4a1d73cfde43ff3",
      "s": "0x263ff35922e6be6d326a202808db8ea9d8ece319dc6db9c6a355a5129f0ed98f",
      "v": 27,
      "creates": null,
      "raw": "0xf87580860108d914c0848255f0942910543af39aba0cd09dbb2d50200b3e800a63d287b1a2bc2ec5000089454e444856423943521ba0061a9a871d217ae86cc4bfbf0a75c31379303b8282654824a4a1d73cfde43ff3a0263ff35922e6be6d326a202808db8ea9d8ece319dc6db9c6a355a5129f0ed98f",
      "networkId": 0,
      "chainId": 0
    },
    {
      "hash": "0x20e4acb64be10e4e97bbcdcc3952227e9207542a4ba183ce097eea8b43e43302",
      "blockHash": "0x2925208f91488a9287e0b08d07a25895350c2dec4b23e8cee69465182bb67a6f",
      "blockNumber": 78439,
      "transactionIndex": 1,
      "confirmations": null,
      "from": "0xf4B1114a02EFe852013277F28ed88734Fa81E54f",
      "gasPrice": {
        "_hex": "0xdbb08a5aa"
      },
      "gasLimit": {
        "_hex": "0x15f90"
      },
      "to": "0x4B11852B35058CBFB5a50c5a007b0c134927Fd8b",
      "value": {
        "_hex": "0x10"
      },
      "nonce": 9,
      "data": "0x",
      "r": "0xcc8967be5ea7dc1101a5e899dfa1772fff9fd7bbb9f6a1b38fc64619c5b13dcb",
      "s": "0x3837f5fb5b443ca4f481502d1c7b5a25c41b18edea9d76f3f4ba91053543273d",
      "v": 28,
      "creates": null,
      "raw": "0xf86509850dbb08a5aa83015f90944b11852b35058cbfb5a50c5a007b0c134927fd8b10801ca0cc8967be5ea7dc1101a5e899dfa1772fff9fd7bbb9f6a1b38fc64619c5b13dcba03837f5fb5b443ca4f481502d1c7b5a25c41b18edea9d76f3f4ba91053543273d",
      "networkId": 0,
      "chainId": 0
    },
    {
      "hash": "0xab11b2fe142ceffc5ffac77a04e17a77a50800a5e19407948dedd76018b154c0",
      "blockHash": "0x2925208f91488a9287e0b08d07a25895350c2dec4b23e8cee69465182bb67a6f",
      "blockNumber": 78439,
      "transactionIndex": 2,
      "confirmations": null,
      "from": "0x227ca79E7b445f12032e295a64afE0451269BCc3",
      "gasPrice": {
        "_hex": "0xd76c18c9d"
      },
      "gasLimit": {
        "_hex": "0x7a120"
      },
      "to": null,
      "value": {
        "_hex": "0x0"
      },
      "nonce": 1,
      "data": "0x60606040526101c9806100136000396000f3006060604052361561003d576000357c010000000000000000000000000000000000000000000000000000000090048063ff7ccfe0146101845761003d565b6101825b6207a1204311156100ab5773227ca79e7b445f12032e295a64afe0451269bcc373ffffffffffffffffffffffffffffffffffffffff1660003073ffffffffffffffffffffffffffffffffffffffff1631604051809050600060405180830381858888f19350505050505b6207a120431080156100e0575043610bb8600060009054906101000a900467ffffffffffffffff160167ffffffffffffffff16105b801561010b5750678ac7230489e800003073ffffffffffffffffffffffffffffffffffffffff163110155b1561017f5743600060006101000a81548167ffffffffffffffff0219169083021790555073c2ac6849aec3938fb8c9b36f1c07be76f766637e73ffffffffffffffffffffffffffffffffffffffff166000678ac7230489e80000604051809050600060405180830381858888f19350505050505b5b565b005b61018f6004506101af565b604051808267ffffffffffffffff16815260200191505060405180910390f35b600060009054906101000a900467ffffffffffffffff168156",
      "r": "0x30b30776328276ecc279c8e20664a211d6c15f954753892770bf24cc76c7d2af",
      "s": "0x7cfb2ada813f200fa62f03a210640b5fd31cddd497f780e79fd119aa81c1cd66",
      "v": 27,
      "creates": "0x6fFb4469DE9D4a4118710Ff6651933Ee92f6b205",
      "raw": "0xf9022f01850d76c18c9d8307a1208080b901dc60606040526101c9806100136000396000f3006060604052361561003d576000357c010000000000000000000000000000000000000000000000000000000090048063ff7ccfe0146101845761003d565b6101825b6207a1204311156100ab5773227ca79e7b445f12032e295a64afe0451269bcc373ffffffffffffffffffffffffffffffffffffffff1660003073ffffffffffffffffffffffffffffffffffffffff1631604051809050600060405180830381858888f19350505050505b6207a120431080156100e0575043610bb8600060009054906101000a900467ffffffffffffffff160167ffffffffffffffff16105b801561010b5750678ac7230489e800003073ffffffffffffffffffffffffffffffffffffffff163110155b1561017f5743600060006101000a81548167ffffffffffffffff0219169083021790555073c2ac6849aec3938fb8c9b36f1c07be76f766637e73ffffffffffffffffffffffffffffffffffffffff166000678ac7230489e80000604051809050600060405180830381858888f19350505050505b5b565b005b61018f6004506101af565b604051808267ffffffffffffffff16815260200191505060405180910390f35b600060009054906101000a900467ffffffffffffffff1681561ba030b30776328276ecc279c8e20664a211d6c15f954753892770bf24cc76c7d2afa07cfb2ada813f200fa62f03a210640b5fd31cddd497f780e79fd119aa81c1cd66",
      "networkId": 0,
      "chainId": 0
    }
  ]
}