{
  "hash": "0x829692c5da0b4f3c27ebcab3752b53b2e2f0840240f66cb63992c843171d0184",
  "parentHash": "0x867ec268e4f95f6f15be2d9b2573784c717c3f4a8f220d073bf37be47e504548",
  "number": 72008,
  "timestamp": 1439345695,
  "nonce": "0x347147236297ff39",
  "difficulty": 2162249956601,
  "gasLimit": {
    "_hex": "0x2fefd8"
  },
  "gasUsed": {
    "_hex": "0xaec1"
  },
  "miner": "0x55bAf64fc9eAccFFd7Cc643BB61142E1C6ac093e",
  "extraData": "0x",
  "transactions": [
    {
      "hash": "0xd9b5ec7e3ffcabe07bdd2d6611bd490ec83765a85cf882954a6b4794bf28e6e1",
      "blockHash": "0x829692c5da0b4f3c27ebcab3752b53b2e2f0840240f66cb63992c843171d0184",
      "blockNumber": 72008,
      "transactionIndex": 0,
      "confirmations": null,
      "from": "0x17580B766f7453525ca4C6A88b01b50570EA088C",
      "gasPrice": {
        "_hex": "0xdda108dd3"
      },
      "gasLimit": {
        "_hex": "0x61a80"
      },
      "to": "0x5Fe5B7546D1628f7348B023A0393de1FC825A4fD",
      "value": {
        "_hex": "0x8ac7230489e80000"
      },
      "nonce": 323,
      "data": "0xb595b8b50000000000000000000000000000000000000000000000000000000000000001",
      "r": "0xd86d6c1e1b5705444d3a2eefe2063b2ef23ee00aa600fe105087767f68e4592d",
      "s": "0x11ff0eb604e7e0ee61af265a6f652cfbea2c254c1f6d07b68d010ba68c4583b2",
      "v": 27,
      "creates": null,
      "raw": "0xf893820143850dda108dd383061a80945fe5b7546d1628f7348b023a0393de1fc825a4fd888ac7230489e80000a4b595b8b500000000000000000000000000000000000000000000000000000000000000011ba0d86d6c1e1b5705444d3a2eefe2063b2ef23ee00aa600fe105087767f68e4592da011ff0eb604e7e0ee61af265a6f652cfbea2c254c1f6d07b68d010ba68c4583b2",
      "networkId": 0,
      "chainId": 0
    }
  ]
}