{
  "hash": "0xe69f23007f636d3f894cdabd591e5c16075ebb8fa5541fc6c02e2734ca54c8e3",
  "parentHash": "0x85cbba9be580558712ae61313e1e134c0812e46fee5efa97751798a3e76b5567",
  "number": 47313,
  "timestamp": 1438937950,
  "nonce": "0x2ee322fc913e706d",
  "difficulty": 1455234981843,
  "gasLimit": {
    "_hex": "0xaf6b"
  },
  "gasUsed": {
    "_hex": "0xa410"
  },
  "miner": "0xa50ec0D39fa913E62f1Bae7074E6F36caA71855b",
  "extraData": "0x476574682f76312e302e302f6c696e75782f676f312e342e32",
  "transactions": [
    {
      "hash": "0x5d5d968ca04d1ab09a37b19edca3a6dcf555ab7b57db19c22528e266f4b56c25",
      "blockHash": "0xe69f23007f636d3f894cdabd591e5c16075ebb8fa5541fc6c02e2734ca54c8e3",
      "blockNumber": 47313,
      "transactionIndex": 0,
      "confirmations": null,
      "from": "0x3E4FbD661015f6461ed6735CefeF01F31445De3a",
      "gasPrice": {
        "_hex": "0x8bb2c97000"
      },
      "gasLimit": {
        "_hex": "0x5208"
      },
      "to": "0x53dAc344f48a004729edB5A2aB8900893B904783",
      "value": {
        "_hex": "0x36e18682b5161580000"
      },
      "nonce": 1,
      "data": "0x",
      "r": "0xb3bf4fb7aee4acb4b8daf862ce1c616ac3b72e466aec84f5e5e23be7492f0372",
      "s": "0x0d738ba74b4f118e7578e70518037df12b7c47369f9b6fe929e791cf4e4aff4f",
      "v": 27,
      "creates": null,
      "raw": "0xf86e01858bb2c970008252089453dac344f48a004729edb5a2ab8900893b9047838a036e18682b5161580000801ba0b3bf4fb7aee4acb4b8daf862ce1c616ac3b72e466aec84f5e5e23be7492f0372a00d738ba74b4f118e7578e70518037df12b7c47369f9b6fe929e791cf4e4aff4f",
      "networkId": 0,
      "chainId": 0
    },
    {
      "hash": "0x01cbeffb1ca55bd62aec990fce0a2096eab68c73093fd365a472008c2955467f",
      "blockHash": "0xe69f23007f636d3f894cdabd591e5c16075ebb8fa5541fc6c02e2734ca54c8e3",
      "blockNumber": 47313,
      "transactionIndex": 1,
      "confirmations": null,
      "from": "0x34bB6978C5A1aD68777AD388c6787dF53903430c",
      "gasPrice": {
        "_hex": "0x174876e800"
      },
      "gasLimit": {
        "_hex": "0x5208"
      },
      "to": "0xdB312D1d6A2Ccc64DD94a3892928baC82B4E8C15",
      "value": {
        "_hex": "0xdbd2fc137a30000"
      },
      "nonce": 0,
      "data": "0x",
      "r": "0x0ff0d6a926ca0cdd5234845413d53f19140602ba5c2d8685baa7cf6e1dfbb6cb",
      "s": "0x14faf2f37a8f2da57636632666d1eee3e3a6455b3926df12635099fd6af2ba94",
      "v": 27,
      "creates": null,
      "raw": "0xf86c8085174876e80082520894db312d1d6a2ccc64dd94a3892928bac82b4e8c15880dbd2fc137a30000801ba00ff0d6a926ca0cdd5234845413d53f19140602ba5c2d8685baa7cf6e1dfbb6cba014faf2f37a8f2da57636632666d1eee3e3a6455b3926df12635099fd6af2ba94",
      "networkId": 0,
      "chainId": 0
    }
  ]
}