{
  "hash": "0xedb404ee82a0036680a9f065cd0c1ad358b9cfb448ec126a8470bffcfa17b3c5",
  "parentHash": "0x0bf771e4971e49bcb7641681317af6b1fb4cf82e1b6e7c391cc2a89f23d8529f",
  "number": 115514,
  "timestamp": 1440058402,
  "nonce": "0xd6d4a2543ab3d0e2",
  "difficulty": 4602986140471,
  "gasLimit": {
    "_hex": "0x2fefd8"
  },
  "gasUsed": {
    "_hex": "0x5208"
  },
  "miner": "0xe6A7a1d47ff21B6321162AEA7C6CB457D5476Bca",
  "extraData": "0x476574682f76312e302e312d38326566323666362f6c696e75782f676f312e34",
  "transactions": [
    {
      "hash": "0x39731079802b5f8285660975d6e4d845bb3f88524c794df8c31ae6c4957dcd26",
      "blockHash": "0xedb404ee82a0036680a9f065cd0c1ad358b9cfb448ec126a8470bffcfa17b3c5",
      "blockNumber": 115514,
      "transactionIndex": 0,
      "confirmations": null,
      "from": "0x8C37447a7930187595EC51FEA6f749C4F8a96cD4",
      "gasPrice": {
        "_hex": "0xd7190a056"
      },
      "gasLimit": {
        "_hex": "0x5208"
      },
      "to": "0x32Be343B94f860124dC4fEe278FDCBD38C102D88",
      "value": {
        "_hex": "0xd02665bcaaee1000"
      },
      "nonce": 12,
      "data": "0x",
      "r": "0xf8c7223849bee6474a5ff1619cf7e683c433f2bfee8eaf1e13f31fed2feb1e7d",
      "s": "0x351ee27729352b05be29ef001b3d16ca022f6806dc539ea860e6ee78f6d02e1a",
      "v": 28,
      "creates": null,
      "raw": "0xf86c0c850d7190a0568252089432be343b94f860124dc4fee278fdcbd38c102d8888d02665bcaaee1000801ca0f8c7223849bee6474a5ff1619cf7e683c433f2bfee8eaf1e13f31fed2feb1e7da0351ee27729352b05be29ef001b3d16ca022f6806dc539ea860e6ee78f6d02e1a",
      "networkId": 0,
      "chainId": 0
    }
  ]
}