{
  "hash": "0xffe9c8d63aa5b00c56ddc0f43558546b246604d4d796390b53804e9f218b5cca",
  "parentHash": "0x5134507d0a97cbf46661fa90f77e79d9d23003e555a0f535af3f37372341cfcc",
  "number": 74142,
  "timestamp": 1439381132,
  "nonce": "0x7d9edba369d1aaa0",
  "difficulty": 2230319694477,
  "gasLimit": {
    "_hex": "0x2fefd8"
  },
  "gasUsed": {
    "_hex": "0x5208"
  },
  "miner": "0x55bAf64fc9eAccFFd7Cc643BB61142E1C6ac093e",
  "extraData": "0x",
  "transactions": [
    {
      "hash": "0x168b1a6e6d530ba826ecece2c8fedd21c0c8bf31c7533c356175639f31ca6eab",
      "blockHash": "0xffe9c8d63aa5b00c56ddc0f43558546b246604d4d796390b53804e9f218b5cca",
      "blockNumber": 74142,
      "transactionIndex": 0,
      "confirmations": null,
      "from": "0x65Fe776c996eB7c15f86F236B945353b9a18f335",
      "gasPrice": {
        "_hex": "0xd51d75e7d"
      },
      "gasLimit": {
        "_hex": "0x7530"
      },
      "to": "0x6De181Fc4C140FA31F196e5393516c49EEeBdAd3",
      "value": {
        "_hex": "0x1ae361fc1451c0000"
      },
      "nonce": 1,
      "data": "0x",
      "r": "0xbf44681fb36a386aec15d43cb934b9125f2581d2b3d7631288dd7718277cffd0",
      "s": "0x16a9cdc8ae93ebc5b1b2155f2aed03b05c430fde6a774b6f18cbb6f805a3fe8f",
      "v": 28,
      "creates": null,
      "raw": "0xf86d01850d51d75e7d827530946de181fc4c140fa31f196e5393516c49eeebdad38901ae361fc1451c0000801ca0bf44681fb36a386aec15d43cb934b9125f2581d2b3d7631288dd7718277cffd0a016a9cdc8ae93ebc5b1b2155f2aed03b05c430fde6a774b6f18cbb6f805a3fe8f",
      "networkId": 0,
      "chainId": 0
    }
  ]
}