{
  "hash": "0x8bd6e47f0267ec9ac5fa9683eff5161efa43434667bd2857667672682c6af54f",
  "parentHash": "0x656dcfa604c21d0ab749f93de88517d9053bfe2caf366535ed4d04432129cfc3",
  "number": 76807,
  "timestamp": 1439426523,
  "nonce": "0x8dd69512e379ad71",
  "difficulty": 2239430908183,
  "gasLimit": {
    "_hex": "0x2fefd8"
  },
  "gasUsed": {
    "_hex": "0x1b497"
  },
  "miner": "0x785ffdDd5cE55c6DF963f345e68d3F2024E5Acb1",
  "extraData": "0x",
  "transactions": [
    {
      "hash": "0xb6e61dd424c8a0e2a410852307345ecd74d9c663b2215b0095e20ab99ac08529",
      "blockHash": "0x8bd6e47f0267ec9ac5fa9683eff5161efa43434667bd2857667672682c6af54f",
      "blockNumber": 76807,
      "transactionIndex": 0,
      "confirmations": null,
      "from": "0x8Be84A3adfBc51c59023B2413766E229108c35DE",
      "gasPrice": {
        "_hex": "0xd1cf10403"
      },
      "gasLimit": {
        "_hex": "0x493e0"
      },
      "to": "0xD79B4C6791784184e2755B2fC1659eaaB0f80456",
      "value": {
        "_hex": "0x1bc16d674ec80000"
      },
      "nonce": 21,
      "data": "0x8d21618600000000000000000000000000000000000000000000000000000000000000ccb7efa91eae57dc14083338793f5ebfdaa35239d7717a802c71156d76f96ade16",
      "r": "0x8bdd3a73314634210e5dedac16fd65228978dcaf0d1ad3e5a0888a526e204f0c",
      "s": "0x2849310061dbe3f9f608c8d2f6368728b6224cd4a6bd64ccc8078f6c7c3487f1",
      "v": 27,
      "creates": null,
      "raw": "0xf8b215850d1cf10403830493e094d79b4c6791784184e2755b2fc1659eaab0f80456881bc16d674ec80000b8448d21618600000000000000000000000000000000000000000000000000000000000000ccb7efa91eae57dc14083338793f5ebfdaa35239d7717a802c71156d76f96ade161ba08bdd3a73314634210e5dedac16fd65228978dcaf0d1ad3e5a0888a526e204f0ca02849310061dbe3f9f608c8d2f6368728b6224cd4a6bd64ccc8078f6c7c3487f1",
      "networkId": 0,
      "chainId": 0
    }
  ]
}