{
  "hash": "0x67a4fd5d6c4697f4925c88ef76ad1814305ec76fe8d19c17cebdf9721666d765",
  "parentHash": "0x11d7b5a49cedb3e5023583d071e3aa0768582f64c3d1e589c1aaae7228b5eb26",
  "number": 92108,
  "timestamp": 1439666925,
  "nonce": "0xa0d22e00b2f15ccd",
  "difficulty": 3474031575271,
  "gasLimit": {
    "_hex": "0x2fefd8"
  },
  "gasUsed": {
    "_hex": "0x5208"
  },
  "miner": "0xf8E0CA3Ed80bd541b94BEdCf259e8CF2141A9523",
  "extraData": "0x476574682f76312e302e312f77696e646f77732f676f312e342e32",
  "transactions": [
    {
      "hash": "0xe7784bc1c300b628c40bf2d6a0499b484621e68dbf6f86176e29a5f3b87f9511",
      "blockHash": "0x67a4fd5d6c4697f4925c88ef76ad1814305ec76fe8d19c17cebdf9721666d765",
      "blockNumber": 92108,
      "transactionIndex": 0,
      "confirmations": null,
      "from": "0x2910543Af39abA0Cd09dBb2D50200b3E800A63D2",
      "gasPrice": {
        "_hex": "0xde514601e"
      },
      "gasLimit": {
        "_hex": "0x5208"
      },
      "to": "0xB480F44F0868b5c45aa0C59dCe85CA5A2eef91e8",
      "value": {
        "_hex": "0xde0b6b3a7640000"
      },
      "nonce": 822,
      "data": "0x",
      "r": "0xfdc63153ae411b8def9e38df4b25b3d0bbc48adef34e318d06e5deb3a8caf6f7",
      "s": "0x0282c1f822bf8d8de90dbe0938f497edbb13943efead82ef82f50bf1e29e4167",
      "v": 27,
      "creates": null,
      "raw": "0xf86e820336850de514601e82520894b480f44f0868b5c45aa0c59dce85ca5a2eef91e8880de0b6b3a7640000801ba0fdc63153ae411b8def9e38df4b25b3d0bbc48adef34e318d06e5deb3a8caf6f7a00282c1f822bf8d8de90dbe0938f497edbb13943efead82ef82f50bf1e29e4167",
      "networkId": 0,
      "chainId": 0
    }
  ]
}