{
  "hash": "0x11fb1af3fb8d7d9567a806719dea43d082edb3544508d66809c34bb4e99dadee",
  "parentHash": "0x03d418403b1fa261d8cca4da03c38c43b27dd023462980fcc2a97168bdc9a87b",
  "number": 66703,
  "timestamp": 1439258954,
  "nonce": "0x4b737cd128052964",
  "difficulty": 1944195232594,
  "gasLimit": {
    "_hex": "0x2fefd8"
  },
  "gasUsed": {
    "_hex": "0x5208"
  },
  "miner": "0xBb12b5a9B85D4AB8CDE6056E9c1b2a4a337D2261",
  "extraData": "0x476574682f76312e302e312d36393865393864392f6c696e75782f676f312e34",
  "transactions": [
    {
      "hash": "0xbc427c76a327e489e9f3127f654f8924275915be297255526b3e925172cf0ab2",
      "blockHash": "0x11fb1af3fb8d7d9567a806719dea43d082edb3544508d66809c34bb4e99dadee",
      "blockNumber": 66703,
      "transactionIndex": 0,
      "confirmations": null,
      "from": "0x228ed249A4299B231F83A502c12d904e48C5842c",
      "gasPrice": {
        "_hex": "0xd6ee873ac"
      },
      "gasLimit": {
        "_hex": "0x15f90"
      },
      "to": "0xF2C98425f9f22071AB4DFA15A34628246FEDc163",
      "value": {
        "_hex": "0x287bee9348b5b80000"
      },
      "nonce": 1,
      "data": "0x",
      "r": "0x684fbfc631774f14f7299993994cf191a77d21eec60d4362ab52c12d146e1e1a",
      "s": "0x43269c91c0d87a8da55b7655b6359370601bfdb3f3d504124c2e42697e9851bc",
      "v": 28,
      "creates": null,
      "raw": "0xf86e01850d6ee873ac83015f9094f2c98425f9f22071ab4dfa15a34628246fedc16389287bee9348b5b80000801ca0684fbfc631774f14f7299993994cf191a77d21eec60d4362ab52c12d146e1e1aa043269c91c0d87a8da55b7655b6359370601bfdb3f3d504124c2e42697e9851bc",
      "networkId": 0,
      "chainId": 0
    }
  ]
}