{
  "hash": "0xfc2378c2fdbb34f7e2e2c8acf3572e03da9133fb4b03f808903a4edab942e776",
  "parentHash": "0xed2a119004684cfddaa4f5d97d42d4f0c7b385344ad90b8d2b046131bd341a3e",
  "number": 112769,
  "timestamp": 1440012883,
  "nonce": "0x54b1c6fbe49ddba2",
  "difficulty": 4447599497631,
  "gasLimit": {
    "_hex": "0x2fefd8"
  },
  "gasUsed": {
    "_hex": "0xf618"
  },
  "miner": "0xe6A7a1d47ff21B6321162AEA7C6CB457D5476Bca",
  "extraData": "0x476574682f76312e302e312d38326566323666362f6c696e75782f676f312e34",
  "transactions": [
    {
      "hash": "0x3aea70132be9d379d47f87a2b1744ab48d445e78be9a1b430562bf22336a6584",
      "blockHash": "0xfc2378c2fdbb34f7e2e2c8acf3572e03da9133fb4b03f808903a4edab942e776",
      "blockNumber": 112769,
      "transactionIndex": 0,
      "confirmations": null,
      "from": "0x94b20d3d932AA82aD71b86b904A3D769689351b4",
      "gasPrice": {
        "_hex": "0xe05bc01f3"
      },
      "gasLimit": {
        "_hex": "0x5208"
      },
      "to": "0x32Be343B94f860124dC4fEe278FDCBD38C102D88",
      "value": {
        "_hex": "0x25512fb361998800"
      },
      "nonce": 9,
      "data": "0x",
      "r": "0x2176cbe4ca9823bfda936270363e4940fd4bb883d06b9a78793bdde71837c26e",
      "s": "0x11e755a98eb76a00d444f45e1356035042810baa868736c4104fdd9bbb82e991",
      "v": 28,
      "creates": null,
      "raw": "0xf86c09850e05bc01f38252089432be343b94f860124dc4fee278fdcbd38c102d888825512fb361998800801ca02176cbe4ca9823bfda936270363e4940fd4bb883d06b9a78793bdde71837c26ea011e755a98eb76a00d444f45e1356035042810baa868736c4104fdd9bbb82e991",
      "networkId": 0,
      "chainId": 0
    },
    {
      "hash": "0x861c666038e4f0de2d321271f4431806eadc3116b50bd5a5728673959a956cb1",
      "blockHash": "0xfc2378c2fdbb34f7e2e2c8acf3572e03da9133fb4b03f808903a4edab942e776",
      "blockNumber": 112769,
      "transactionIndex": 1,
      "confirmations": null,
      "from": "0xcD690730A45cdebeF24F2a3db2de181bFBA5CBea",
      "gasPrice": {
        "_hex": "0xe05bc01f3"
      },
      "gasLimit": {
        "_hex": "0x5208"
      },
      "to": "0x32Be343B94f860124dC4fEe278FDCBD38C102D88",
      "value": {
        "_hex": "0x8f13dff869bbe000"
      },
      "nonce": 10,
      "data": "0x",
      "r": "0x3f212d24c35d7dcf2e7ed5bc911bb2216f5fd5db4719ecc32c521981c05906a2",
      "s": "0x7507fa2622a0f9a8e30beaf2a8b51d71316a7385b9a1afa6016f067e6a2a2ff1",
      "v": 28,
      "creates": null,
      "raw": "0xf86c0a850e05bc01f38252089432be343b94f860124dc4fee278fdcbd38c102d88888f13dff869bbe000801ca03f212d24c35d7dcf2e7ed5bc911bb2216f5fd5db4719ecc32c521981c05906a2a07507fa2622a0f9a8e30beaf2a8b51d71316a7385b9a1afa6016f067e6a2a2ff1",
      "networkId": 0,
      "chainId": 0
    },
    {
      "hash": "0xbf11acfe6d15ee4f7c8266657fde0a7fb4be37c5c7338da3ad4ec8971f89cb93",
      "blockHash": "0xfc2378c2fdbb34f7e2e2c8acf3572e03da9133fb4b03f808903a4edab942e776",
      "blockNumber": 112769,
      "transactionIndex": 2,
      "confirmations": null,
      "from": "0x022A006FcC619ebf387F413eF06932bAbd47AE0E",
      "gasPrice": {
        "_hex": "0xe05bc01f3"
      },
      "gasLimit": {
        "_hex": "0x5208"
      },
      "to": "0x32Be343B94f860124dC4fEe278FDCBD38C102D88",
      "value": {
        "_hex": "0x93791ab291340000"
      },
      "nonce": 10,
      "data": "0x",
      "r": "0xb7cd1316a99fa38fbdbd51a3ed5010277e4561e47ca0bd898008745c029e443e",
      "s": "0x57582a6997388eb9950fc851a07bb6e4eeaa1cae45f0669f71bdd8d3eaba2224",
      "v": 28,
      "creates": null,
      "raw": "0xf86c0a850e05bc01f38252089432be343b94f860124dc4fee278fdcbd38c102d888893791ab291340000801ca0b7cd1316a99fa38fbdbd51a3ed5010277e4561e47ca0bd898008745c029e443ea057582a6997388eb9950fc851a07bb6e4eeaa1cae45f0669f71bdd8d3eaba2224",
      "networkId": 0,
      "chainId": 0
    }
  ]
}