{
  "hash": "0xa54676c9f3b497d205c9d2012a7e4a61aa0a970e9c253d893d8fa58caa609345",
  "parentHash": "0xc2978e493be16aac200c053749b7360873b2ab517e9a9420ebc7dfabb8aad152",
  "number": 75923,
  "timestamp": 1439411938,
  "nonce": "0x12fcc314ba33d2b7",
  "difficulty": 2222237686581,
  "gasLimit": {
    "_hex": "0x2fefd8"
  },
  "gasUsed": {
    "_hex": "0xf618"
  },
  "miner": "0xe6A7a1d47ff21B6321162AEA7C6CB457D5476Bca",
  "extraData": "0x476574682f76312e302e312d38326566323666362f6c696e75782f676f312e34",
  "transactions": [
    {
      "hash": "0x2cfe82f2af013dd25a530e474b1a879c8f2dc702a07504d900e3561da040feaf",
      "blockHash": "0xa54676c9f3b497d205c9d2012a7e4a61aa0a970e9c253d893d8fa58caa609345",
      "blockNumber": 75923,
      "transactionIndex": 0,
      "confirmations": null,
      "from": "0x120A270bbC009644e35F0bB6ab13f95b8199c4ad",
      "gasPrice": {
        "_hex": "0xd228b2e40"
      },
      "gasLimit": {
        "_hex": "0x15f90"
      },
      "to": "0x6baeC65168a4fBB94b9557C65Dfc7cef5c6fBb8a",
      "value": {
        "_hex": "0x1de2cd12228e4d1800"
      },
      "nonce": 301,
      "data": "0x",
      "r": "0xb111ff5fc13242a64a937b8e845f2edbdb7ff9e5788cd8621aac354245bb9563",
      "s": "0x458599332bac7e7b736c1b41155d98e744cabb0776d3ee9f0f415753fb09a06b",
      "v": 28,
      "creates": null,
      "raw": "0xf87082012d850d228b2e4083015f90946baec65168a4fbb94b9557c65dfc7cef5c6fbb8a891de2cd12228e4d1800801ca0b111ff5fc13242a64a937b8e845f2edbdb7ff9e5788cd8621aac354245bb9563a0458599332bac7e7b736c1b41155d98e744cabb0776d3ee9f0f415753fb09a06b",
      "networkId": 0,
      "chainId": 0
    },
    {
      "hash": "0xef76c8f05d6740b6a5b48139744e27e8678524d29ce2c7f47a71883f2bb0920e",
      "blockHash": "0xa54676c9f3b497d205c9d2012a7e4a61aa0a970e9c253d893d8fa58caa609345",
      "blockNumber": 75923,
      "transactionIndex": 1,
      "confirmations": null,
      "from": "0x655Ce0C27E77D78C7e3e89F09EA6dfa394610b5f",
      "gasPrice": {
        "_hex": "0xcf7308bbf"
      },
      "gasLimit": {
        "_hex": "0x5208"
      },
      "to": "0x32Be343B94f860124dC4fEe278FDCBD38C102D88",
      "value": {
        "_hex": "0x1b1ae0af4e1f9f0000"
      },
      "nonce": 2,
      "data": "0x",
      "r": "0x982b8da1cf10792a339087236398bf9fc9729924528a86b6ec226d4daa01a7de",
      "s": "0x3d5a084e9ff841807c4e5a8dc3abef8444052c809dd95f84592f8c7f4f9e4ccc",
      "v": 27,
      "creates": null,
      "raw": "0xf86d02850cf7308bbf8252089432be343b94f860124dc4fee278fdcbd38c102d88891b1ae0af4e1f9f0000801ba0982b8da1cf10792a339087236398bf9fc9729924528a86b6ec226d4daa01a7dea03d5a084e9ff841807c4e5a8dc3abef8444052c809dd95f84592f8c7f4f9e4ccc",
      "networkId": 0,
      "chainId": 0
    },
    {
      "hash": "0xa940d269632b79d2dee8dc7d9f1a2234ed72ea64f224086dc708e31f216c8c69",
      "blockHash": "0xa54676c9f3b497d205c9d2012a7e4a61aa0a970e9c253d893d8fa58caa609345",
      "blockNumber": 75923,
      "transactionIndex": 2,
      "confirmations": null,
      "from": "0xC603Ab5ef41fC61AA8b76bEddb09e3Cfcbb174BD",
      "gasPrice": {
        "_hex": "0xcb1e9751a"
      },
      "gasLimit": {
        "_hex": "0x15f90"
      },
      "to": "0x8F79f76381Aad7B98C19aF55eE75fdfEeb012211",
      "value": {
        "_hex": "0x63bf212b431ec0000"
      },
      "nonce": 2,
      "data": "0x",
      "r": "0xf4554a0af462541267e78739027ef77155c58079798cffb025a9554c688ba23c",
      "s": "0x6405e9254bb1fed290284dea7fc4d03d5823d007b3eb2dcf6debd2ebff4eaed3",
      "v": 27,
      "creates": null,
      "raw": "0xf86e02850cb1e9751a83015f90948f79f76381aad7b98c19af55ee75fdfeeb01221189063bf212b431ec0000801ba0f4554a0af462541267e78739027ef77155c58079798cffb025a9554c688ba23ca06405e9254bb1fed290284dea7fc4d03d5823d007b3eb2dcf6debd2ebff4eaed3",
      "networkId": 0,
      "chainId": 0
    }
  ]
}