{
  "hash": "0xde82e42ab9b53769273578e344ecb817306f665e009915b22ea6e09fe1eebd0c",
  "parentHash": "0x0471832a8d430aea5a370387bed92638e0fb87a887035f3fba414795f3d5feb0",
  "number": 94544,
  "timestamp": 1439710069,
  "nonce": "0x1d5fac7213d4fbaf",
  "difficulty": 3500262142527,
  "gasLimit": {
    "_hex": "0x2fefd8"
  },
  "gasUsed": {
    "_hex": "0x5208"
  },
  "miner": "0x0089508679abF8c71BF6781687120e3E6a84584D",
  "extraData": "0x",
  "transactions": [
    {
      "hash": "0x083e3d5eac91ede151941e9f8ab3a23b3ab3090f4d2c86c85dd707ae0a93d2a1",
      "blockHash": "0xde82e42ab9b53769273578e344ecb817306f665e009915b22ea6e09fe1eebd0c",
      "blockNumber": 94544,
      "transactionIndex": 0,
      "confirmations": null,
      "from": "0x2910543Af39abA0Cd09dBb2D50200b3E800A63D2",
      "gasPrice": {
        "_hex": "0xdb5192b4d"
      },
      "gasLimit": {
        "_hex": "0x5208"
      },
      "to": "0x2aBD9e50d51e97aFc9a984f64657eD9539c59c91",
      "value": {
        "_hex": "0x1b1ae4d6e2ef500000"
      },
      "nonce": 881,
      "data": "0x",
      "r": "0xcf6a14e707f051449a5a74bfd5565c1fca9e6f5ee90b81267e7e7b549ad28a63",
      "s": "0x20fb0fef4a3f1e94310e50706fbf706ddb7e275102163ffce8e4497b989e5e50",
      "v": 27,
      "creates": null,
      "raw": "0xf86f820371850db5192b4d825208942abd9e50d51e97afc9a984f64657ed9539c59c91891b1ae4d6e2ef500000801ba0cf6a14e707f051449a5a74bfd5565c1fca9e6f5ee90b81267e7e7b549ad28a63a020fb0fef4a3f1e94310e50706fbf706ddb7e275102163ffce8e4497b989e5e50",
      "networkId": 0,
      "chainId": 0
    }
  ]
}