{
  "hash": "0x473dea246ecfe451b20a098330523c0f255a87a91ead44a8b8b4f6385036d8ea",
  "parentHash": "0x28f040f5b3515e7f023f9c86f7862486563998fa0965c5394fff3348104e7b68",
  "number": 85805,
  "timestamp": 1439569092,
  "nonce": "0x45c72000ceea060d",
  "difficulty": 2767763992359,
  "gasLimit": {
    "_hex": "0x2fefd8"
  },
  "gasUsed": {
    "_hex": "0x5208"
  },
  "miner": "0x33b01a7fe4A1a5F774Bb73f89A4eF15a6Ffe1141",
  "extraData": "0x476574682f76312e302e312f6c696e75782f676f312e342e32",
  "transactions": [
    {
      "hash": "0xabac0ad0bec2ea38ab2dd11cd68939e0bfb6907b678890c3e5869f8e585d297c",
      "blockHash": "0x473dea246ecfe451b20a098330523c0f255a87a91ead44a8b8b4f6385036d8ea",
      "blockNumber": 85805,
      "transactionIndex": 0,
      "confirmations": null,
      "from": "0x4b0424c09BaC4Ee3f4376f1D3fA354E8Cb2D3171",
      "gasPrice": {
        "_hex": "0xcf5aad53b"
      },
      "gasLimit": {
        "_hex": "0x15f90"
      },
      "to": "0x34d34F0a638F6991e4E2536F41295DF6E934A646",
      "value": {
        "_hex": "0x479c00a941040000"
      },
      "nonce": 10,
      "data": "0x",
      "r": "0x4e0d775b4fb6bf872b8d14f4b9dfd3cddbe723c615499087e5bbecd062582461",
      "s": "0x1f853cf94adba2a796a8bdc81dafbd6a95bba654925219e9330ab10d960246ce",
      "v": 28,
      "creates": null,
      "raw": "0xf86d0a850cf5aad53b83015f909434d34f0a638f6991e4e2536f41295df6e934a64688479c00a941040000801ca04e0d775b4fb6bf872b8d14f4b9dfd3cddbe723c615499087e5bbecd062582461a01f853cf94adba2a796a8bdc81dafbd6a95bba654925219e9330ab10d960246ce",
      "networkId": 0,
      "chainId": 0
    }
  ]
}