{
  "hash": "0x2a93072f7d9f506c61d24cb6471f1b8f96af69ccfdd2e57e5f6c5bf6023c3247",
  "parentHash": "0xc3c347e5d370742d204d0ca41841824a12efdbcd5ae51d0e30580edf92c50e6b",
  "number": 115387,
  "timestamp": 1440056343,
  "nonce": "0x42fc86371aaacff5",
  "difficulty": 4565005010001,
  "gasLimit": {
    "_hex": "0x2fefd8"
  },
  "gasUsed": {
    "_hex": "0xa410"
  },
  "miner": "0xe6A7a1d47ff21B6321162AEA7C6CB457D5476Bca",
  "extraData": "0x476574682f76312e302e312d38326566323666362f6c696e75782f676f312e34",
  "transactions": [
    {
      "hash": "0x126e40a063393edb16c41eb396190cc054923f2532ca3a88ab8b082872c8fd6a",
      "blockHash": "0x2a93072f7d9f506c61d24cb6471f1b8f96af69ccfdd2e57e5f6c5bf6023c3247",
      "blockNumber": 115387,
      "transactionIndex": 0,
      "confirmations": null,
      "from": "0xA4b566f129e5810957eF8cC2F750383E488D35Dd",
      "gasPrice": {
        "_hex": "0xd966b553f"
      },
      "gasLimit": {
        "_hex": "0x5208"
      },
      "to": "0x32Be343B94f860124dC4fEe278FDCBD38C102D88",
      "value": {
        "_hex": "0x2ac6929d77da5000"
      },
      "nonce": 7,
      "data": "0x",
      "r": "0xf3087102dafdc54a986b3a738c145c21e0492c3aeff5fde3c61384a55e749c1e",
      "s": "0x65826406fcbec9d4434f3f67f8aa905a3e86b4a439c2bab9a52ac1f3b6dac0e8",
      "v": 28,
      "creates": null,
      "raw": "0xf86c07850d966b553f8252089432be343b94f860124dc4fee278fdcbd38c102d88882ac6929d77da5000801ca0f3087102dafdc54a986b3a738c145c21e0492c3aeff5fde3c61384a55e749c1ea065826406fcbec9d4434f3f67f8aa905a3e86b4a439c2bab9a52ac1f3b6dac0e8",
      "networkId": 0,
      "chainId": 0
    },
    {
      "hash": "0x4da96f605d094a917deb49c87adb36784d522c713459398b3e427951b4689dc1",
      "blockHash": "0x2a93072f7d9f506c61d24cb6471f1b8f96af69ccfdd2e57e5f6c5bf6023c3247",
      "blockNumber": 115387,
      "transactionIndex": 1,
      "confirmations": null,
      "from": "0xA971748c4C493bC96C7d490E1789481e1E96bB10",
      "gasPrice": {
        "_hex": "0xd966b553f"
      },
      "gasLimit": {
        "_hex": "0x5208"
      },
      "to": "0x32Be343B94f860124dC4fEe278FDCBD38C102D88",
      "value": {
        "_hex": "0xb7617e4824aff000"
      },
      "nonce": 7,
      "data": "0x",
      "r": "0xc4f4c1dcdf216d646b17a62c1ab1f70edaa2d35a1335b4247069275870453119",
      "s": "0x3994d5e71503410a71978275a0fcf7115d02d71a01f25062e174dc16acf0f0dc",
      "v": 27,
      "creates": null,
      "raw": "0xf86c07850d966b553f8252089432be343b94f860124dc4fee278fdcbd38c102d8888b7617e4824aff000801ba0c4f4c1dcdf216d646b17a62c1ab1f70edaa2d35a1335b4247069275870453119a03994d5e71503410a71978275a0fcf7115d02d71a01f25062e174dc16acf0f0dc",
      "networkId": 0,
      "chainId": 0
    }
  ]
}