{
  "hash": "0xaa36dfcc245d67313d757f8e37cb43f0939e2e17fbb5699f7c6679fe200b2416",
  "parentHash": "0xa6ed055bab7810fc11333ce07a123667e480f200ad1082657217dc6925548113",
  "number": 122267,
  "timestamp": 1440191264,
  "nonce": "0x1b05385938c5ff10",
  "difficulty": 4455600969866,
  "gasLimit": {
    "_hex": "0x2fefd8"
  },
  "gasUsed": {
    "_hex": "0x1bdbe"
  },
  "miner": "0xe6A7a1d47ff21B6321162AEA7C6CB457D5476Bca",
  "extraData": "0xd783010002844765746887676f312e342e32856c696e7578",
  "transactions": [
    {
      "hash": "0x199d804a41e02daa2c886596fc8b9768325bbaf2940116750b2358bbb1f6fd08",
      "blockHash": "0xaa36dfcc245d67313d757f8e37cb43f0939e2e17fbb5699f7c6679fe200b2416",
      "blockNumber": 122267,
      "transactionIndex": 0,
      "confirmations": null,
      "from": "0x21a26E492A25feE7465cdcbF808d1518993cba3C",
      "gasPrice": {
        "_hex": "0xba43b7400"
      },
      "gasLimit": {
        "_hex": "0x249f0"
      },
      "to": "0xE28e72FCf78647ADCe1F1252F240bbfaebD63BcC",
      "value": {
        "_hex": "0x1b1ae4d6e2ef500000"
      },
      "nonce": 0,
      "data": "0x45466f3a",
      "r": "0x124a1038728885e424882452309289abc8bbb737e4c52caa9dd47ecc6101b16e",
      "s": "0x3d6ddd579fc301a9389ed79e5c8803f4cc9c855ee8b7aed7f1543be070138946",
      "v": 27,
      "creates": null,
      "raw": "0xf87280850ba43b7400830249f094e28e72fcf78647adce1f1252f240bbfaebd63bcc891b1ae4d6e2ef5000008445466f3a1ba0124a1038728885e424882452309289abc8bbb737e4c52caa9dd47ecc6101b16ea03d6ddd579fc301a9389ed79e5c8803f4cc9c855ee8b7aed7f1543be070138946",
      "networkId": 0,
      "chainId": 0
    }
  ]
}