{
  "hash": "0xd2ffe8600df706c360c0d7a9a4546115672d683e04dc38d4e4df29f2df14657e",
  "parentHash": "0xfc13a4edd053903140a2d05e6367d1d29169020b9d8fa5993a2dcd9820d634cd",
  "number": 78562,
  "timestamp": 1439455642,
  "nonce": "0x415e7e45555ab2bf",
  "difficulty": 2304401888587,
  "gasLimit": {
    "_hex": "0x2fefd8"
  },
  "gasUsed": {
    "_hex": "0x15e37"
  },
  "miner": "0xbb7B8287f3F0a933474a79eAe42CBCa977791171",
  "extraData": "0x476574682f4c5649562f76312e302e312f6c696e75782f676f312e342e32",
  "transactions": [
    {
      "hash": "0x9ef9bbd18328aaa84bb8d3d955a2c7bcf954a01b650bc5b2ab1395dfab8f4bd5",
      "blockHash": "0xd2ffe8600df706c360c0d7a9a4546115672d683e04dc38d4e4df29f2df14657e",
      "blockNumber": 78562,
      "transactionIndex": 0,
      "confirmations": null,
      "from": "0x008FC7CBAdFFbD0D7fe44F8DFD60a79d721a1c9C",
      "gasPrice": {
        "_hex": "0xce8808f12"
      },
      "gasLimit": {
        "_hex": "0x15f90"
      },
      "to": "0xC2D72e968Df598134529475769B6C8Befe2d4786",
      "value": {
        "_hex": "0x0"
      },
      "nonce": 27,
      "data": "0x237297a4",
      "r": "0xbcf51be8c625f19b7389b82af734db4c50ddb54447b338d57431bad0dc0159bd",
      "s": "0x2203dd97ea3a85fcd9a6cbc6fdb92276356774a1e11704db8557ce330b5206ea",
      "v": 27,
      "creates": null,
      "raw": "0xf8691b850ce8808f1283015f9094c2d72e968df598134529475769b6c8befe2d47868084237297a41ba0bcf51be8c625f19b7389b82af734db4c50ddb54447b338d57431bad0dc0159bda02203dd97ea3a85fcd9a6cbc6fdb92276356774a1e11704db8557ce330b5206ea",
      "networkId": 0,
      "chainId": 0
    }
  ]
}