{
  "hash": "0xe2abdb77e799aa657b22a0afe5157e3a17029e4fb93ad9dc0b7b21fda709db8c",
  "parentHash": "0x051917481261d1a29be22ae4c31058420b16ac4de21c1ede5a628c6595b18987",
  "number": 108692,
  "timestamp": 1439944684,
  "nonce": "0xec27311699db75bf",
  "difficulty": 4340320453082,
  "gasLimit": {
    "_hex": "0x2fefd8"
  },
  "gasUsed": {
    "_hex": "0x5208"
  },
  "miner": "0xe6A7a1d47ff21B6321162AEA7C6CB457D5476Bca",
  "extraData": "0x476574682f76312e302e312d38326566323666362f6c696e75782f676f312e34",
  "transactions": [
    {
      "hash": "0x6d4e95b731df3abdf8e52a798f25705db6910cc701080fd15c316b8bdb988641",
      "blockHash": "0xe2abdb77e799aa657b22a0afe5157e3a17029e4fb93ad9dc0b7b21fda709db8c",
      "blockNumber": 108692,
      "transactionIndex": 0,
      "confirmations": null,
      "from": "0x32Be343B94f860124dC4fEe278FDCBD38C102D88",
      "gasPrice": {
        "_hex": "0xce991f46f"
      },
      "gasLimit": {
        "_hex": "0x5208"
      },
      "to": "0x74A2B23F7e1bC34c7a605776e0Cd2CbF73566794",
      "value": {
        "_hex": "0x375f53dc2dcf0000"
      },
      "nonce": 1260,
      "data": "0x",
      "r": "0x83097306c0960874578f994d956aa34dce34d1ed2158be8cb94e1ac923988505",
      "s": "0x2d8a410d876c9b3b882b917226708ed05d1ff1295599bff35c6ec43b7509819d",
      "v": 27,
      "creates": null,
      "raw": "0xf86e8204ec850ce991f46f8252089474a2b23f7e1bc34c7a605776e0cd2cbf7356679488375f53dc2dcf0000801ba083097306c0960874578f994d956aa34dce34d1ed2158be8cb94e1ac923988505a02d8a410d876c9b3b882b917226708ed05d1ff1295599bff35c6ec43b7509819d",
      "networkId": 0,
      "chainId": 0
    }
  ]
}