{
  "hash": "0x43dda4e3d7d380d04735c29c246967dc971fc6628663945fd196648986758130",
  "parentHash": "0x387d6854fbd4d583baa7950fd52dd80cfde2b4d20a2d68050c23c00842d4119b",
  "number": 105026,
  "timestamp": 1439880323,
  "nonce": "0x5e297dc06b139fe8",
  "difficulty": 4312635774304,
  "gasLimit": {
    "_hex": "0x2fefd8"
  },
  "gasUsed": {
    "_hex": "0x5208"
  },
  "miner": "0xe6A7a1d47ff21B6321162AEA7C6CB457D5476Bca",
  "extraData": "0x476574682f76312e302e312d38326566323666362f6c696e75782f676f312e34",
  "transactions": [
    {
      "hash": "0x8220d08c2aadc20c42bc2587ec3d9c506a03dfb7b6899ea0c275dc1eb03da1b6",
      "blockHash": "0x43dda4e3d7d380d04735c29c246967dc971fc6628663945fd196648986758130",
      "blockNumber": 105026,
      "transactionIndex": 0,
      "confirmations": null,
      "from": "0xb577b6BEfA054E9c040461855094B002D7f57bd7",
      "gasPrice": {
        "_hex": "0x111f21b9e43"
      },
      "gasLimit": {
        "_hex": "0x15f90"
      },
      "to": "0x1BF3aa6bA1a55E2e26b26a4799d33c2c14945406",
      "value": {
        "_hex": "0x21e19e0c9bab2400000"
      },
      "nonce": 7,
      "data": "0x",
      "r": "0x4f992be6e56da19ec8b23021865c790b8a2ce56d7ebecb739b9596135c25179d",
      "s": "0x7e8aa0889da3649dbbeded27db3a2f6c43ffd452362dc44b5c8f615652c1bd79",
      "v": 28,
      "creates": null,
      "raw": "0xf87007860111f21b9e4383015f90941bf3aa6ba1a55e2e26b26a4799d33c2c149454068a021e19e0c9bab2400000801ca04f992be6e56da19ec8b23021865c790b8a2ce56d7ebecb739b9596135c25179da07e8aa0889da3649dbbeded27db3a2f6c43ffd452362dc44b5c8f615652c1bd79",
      "networkId": 0,
      "chainId": 0
    }
  ]
}