{
  "hash": "0xf5e995f132fc54c6f6f621339345ab4e61c17780d4e4beeb629050bf5133dfec",
  "parentHash": "0xfd9b2a5f14e57ebfb2fd1e2462406716ada0470651673dbb2a9168fc1aba393f",
  "number": 63656,
  "timestamp": 1439207962,
  "nonce": "0x4166785ebcdb6e19",
  "difficulty": 1842295110515,
  "gasLimit": {
    "_hex": "0x2fefd8"
  },
  "gasUsed": {
    "_hex": "0x5208"
  },
  "miner": "0x79d5794171E11dd5C2f0e26E1C187319db2FE6f7",
  "extraData": "0x",
  "transactions": [
    {
      "hash": "0x6c04d6ff6523343f8f560891d9fca81e96ee2908659a7e69b6b3e82ad2d4ad80",
      "blockHash": "0xf5e995f132fc54c6f6f621339345ab4e61c17780d4e4beeb629050bf5133dfec",
      "blockNumber": 63656,
      "transactionIndex": 0,
      "confirmations": null,
      "from": "0x87898CE53471043FcCa0a2aF4E1dC6d8B3fCf607",
      "gasPrice": {
        "_hex": "0xdaa3dee33"
      },
      "gasLimit": {
        "_hex": "0x5208"
      },
      "to": "0xBFdD9820a04283b289957956353b5F3C1F665EcF",
      "value": {
        "_hex": "0xd02ab486cedc0000"
      },
      "nonce": 12,
      "data": "0x",
      "r": "0x2e4707a8ec8c6b271331aa8370b63f5b5bdf4e2c270fe3f0cae2f8f85b60bcfe",
      "s": "0x0ba9cc726cad6a434518474a85b85749c9a1ef3f50e34c82bf535a53cec2e572",
      "v": 28,
      "creates": null,
      "raw": "0xf86c0c850daa3dee3382520894bfdd9820a04283b289957956353b5f3c1f665ecf88d02ab486cedc0000801ca02e4707a8ec8c6b271331aa8370b63f5b5bdf4e2c270fe3f0cae2f8f85b60bcfea00ba9cc726cad6a434518474a85b85749c9a1ef3f50e34c82bf535a53cec2e572",
      "networkId": 0,
      "chainId": 0
    }
  ]
}