{
  "hash": "0x412ab9f80d6700201859ec020b18570bd25bf8f5a762d5b878a10c096a451318",
  "parentHash": "0x7dd1d11a5db3b98ad9d22cf9894c636e1b9b758c9fb3bb0fa5142d12f39c6763",
  "number": 53795,
  "timestamp": 1439043737,
  "nonce": "0xedce553aef50b09b",
  "difficulty": 1592356496140,
  "gasLimit": {
    "_hex": "0x2fefd8"
  },
  "gasUsed": {
    "_hex": "0x5208"
  },
  "miner": "0x47ff6576639c2e94762eA5443978D7681C0E78DC",
  "extraData": "0x476574682f76312e302e312f6c696e75782f676f312e342e32",
  "transactions": [
    {
      "hash": "0xd2876329ebb6c44aaba5d2434c7935d198cb19cadf4dea46d60b4dcd2a41d174",
      "blockHash": "0x412ab9f80d6700201859ec020b18570bd25bf8f5a762d5b878a10c096a451318",
      "blockNumber": 53795,
      "transactionIndex": 0,
      "confirmations": null,
      "from": "0x64CF897D51472Dc7CfF0e6368EB15B9e2d5168E3",
      "gasPrice": {
        "_hex": "0x746a528800"
      },
      "gasLimit": {
        "_hex": "0x5b04"
      },
      "to": "0x2910543Af39abA0Cd09dBb2D50200b3E800A63D2",
      "value": {
        "_hex": "0xde0b6b3a7640000"
      },
      "nonce": 1,
      "data": "0x",
      "r": "0xf4d038d1d221f34fc5d24b23dfbe287a5e20b31fa49c9116801f546747994c41",
      "s": "0xdb3492833a1936660184b74fc8481b09a01fc850e3df9128b26fda169155b35c",
      "v": 27,
      "creates": null,
      "raw": "0xf86c0185746a528800825b04942910543af39aba0cd09dbb2d50200b3e800a63d2880de0b6b3a7640000801ba0f4d038d1d221f34fc5d24b23dfbe287a5e20b31fa49c9116801f546747994c41a0db3492833a1936660184b74fc8481b09a01fc850e3df9128b26fda169155b35c",
      "networkId": 0,
      "chainId": 0
    }
  ]
}