{
  "hash": "0x6b77c70d569401d63aaa60f9f6174aab4a06023215eebd7104a213d224d12c07",
  "parentHash": "0xe5de86ce22e8b0340bc37a26667a962c56ee723393fe94a55657baf141ef7b14",
  "number": 49341,
  "timestamp": 1438972086,
  "nonce": "0x54fa9e9b9dd112bf",
  "difficulty": 1477794290560,
  "gasLimit": {
    "_hex": "0x2da4c"
  },
  "gasUsed": {
    "_hex": "0x5208"
  },
  "miner": "0x9746c7e1ef2bd21FF3997fa467593a89cb852BD0",
  "extraData": "0x476574682f76312e302e312f77696e646f77732f676f312e342e32",
  "transactions": [
    {
      "hash": "0x19c3253ef9348338ef031582a66c658ee95a6b26b638d9dba70101887fdf8cfc",
      "blockHash": "0x6b77c70d569401d63aaa60f9f6174aab4a06023215eebd7104a213d224d12c07",
      "blockNumber": 49341,
      "transactionIndex": 0,
      "confirmations": null,
      "from": "0x01A7d9fa7d0Eb1185c67e54dA83c2e75dB69E39f",
      "gasPrice": {
        "_hex": "0xd4be89f70"
      },
      "gasLimit": {
        "_hex": "0x15f90"
      },
      "to": "0x725af55dE80C8186B3a89f51EBEFc719068A78B4",
      "value": {
        "_hex": "0x6c6b935b8bbd400000"
      },
      "nonce": 1,
      "data": "0x",
      "r": "0xe6394687601da66e936b5ffc20cd9b79f62821385f1e700827ff7515a8d19eda",
      "s": "0x5a2b7aa11b032c802e929c91cc630bfc58a51eb2878dae866415d37b963597ff",
      "v": 27,
      "creates": null,
      "raw": "0xf86e01850d4be89f7083015f9094725af55de80c8186b3a89f51ebefc719068a78b4896c6b935b8bbd400000801ba0e6394687601da66e936b5ffc20cd9b79f62821385f1e700827ff7515a8d19edaa05a2b7aa11b032c802e929c91cc630bfc58a51eb2878dae866415d37b963597ff",
      "networkId": 0,
      "chainId": 0
    }
  ]
}