{
  "hash": "0xf044ede702b36ddbe9a04dd692332cd973fb623df33bfe4a209d88c97819908a",
  "parentHash": "0x7db286ebb3d5579c502b48fd0ef0e75cd52ca5d971026854b4cfd7cf986d540a",
  "number": 48446,
  "timestamp": 1438957265,
  "nonce": "0x2bb3320cd676cdc9",
  "difficulty": 1458595125171,
  "gasLimit": {
    "_hex": "0x1758c"
  },
  "gasUsed": {
    "_hex": "0x546c"
  },
  "miner": "0x29aeA5f51879982Fdb53Fb4F0720823Ed77E49Dc",
  "extraData": "0x476574682f76312e302e312f6c696e75782f676f312e342e32",
  "transactions": [
    {
      "hash": "0x4fe04a44502471e4b34227826ca3aa5314e6661ac10d41e475a0f0335f75e65f",
      "blockHash": "0xf044ede702b36ddbe9a04dd692332cd973fb623df33bfe4a209d88c97819908a",
      "blockNumber": 48446,
      "transactionIndex": 0,
      "confirmations": null,
      "from": "0x3a84E950ed410E51b7E8801049Ab2634B285FEa1",
      "gasPrice": {
        "_hex": "0xd829211eb"
      },
      "gasLimit": {
        "_hex": "0x15f90"
      },
      "to": "0x2910543Af39abA0Cd09dBb2D50200b3E800A63D2",
      "value": {
        "_hex": "0xde0b6b3a7640000"
      },
      "nonce": 0,
      "data": "0x454e4d5a5136343738",
      "r": "0xdf01d57b840e8503235c2f39e3e6220d3df05d15e37ffe8913384a4369dd5d58",
      "s": "0x23905584326017e93f268ddd9e5044f711023f00044b1e365207882bfeb2102d",
      "v": 28,
      "creates": null,
      "raw": "0xf87680850d829211eb83015f90942910543af39aba0cd09dbb2d50200b3e800a63d2880de0b6b3a764000089454e4d5a51363437381ca0df01d57b840e8503235c2f39e3e6220d3df05d15e37ffe8913384a4369dd5d58a023905584326017e93f268ddd9e5044f711023f00044b1e365207882bfeb2102d",
      "networkId": 0,
      "chainId": 0
    }
  ]
}