{
  "hash": "0x7c1c9920a2ac282f939188c7e33b0b1a25c28e3255ad153b0961bb8d0a418ae3",
  "parentHash": "0x7dbdce2791921b753823a1728c2a139903b9cfc7a9c05e026a6f953940f74d65",
  "number": 65544,
  "timestamp": 1439238757,
  "nonce": "0xe4b47a0246dbdd12",
  "difficulty": 1949216894405,
  "gasLimit": {
    "_hex": "0x2fefd8"
  },
  "gasUsed": {
    "_hex": "0xa674"
  },
  "miner": "0x9746c7e1ef2bd21FF3997fa467593a89cb852BD0",
  "extraData": "0x476574682f76312e302e312f77696e646f77732f676f312e342e32",
  "transactions": [
    {
      "hash": "0xfbaf4e5cb3ac12baea1834ebd2f2b7874e6411f1c6fbbb7dfc9f2954e37a4004",
      "blockHash": "0x7c1c9920a2ac282f939188c7e33b0b1a25c28e3255ad153b0961bb8d0a418ae3",
      "blockNumber": 65544,
      "transactionIndex": 0,
      "confirmations": null,
      "from": "0x1059cBc63E36C43E88F30008ACa7Ce058eeAa096",
      "gasPrice": {
        "_hex": "0x110c8f7d8de"
      },
      "gasLimit": {
        "_hex": "0xc350"
      },
      "to": "0x2910543Af39abA0Cd09dBb2D50200b3E800A63D2",
      "value": {
        "_hex": "0x43c3ab1eecf38320000"
      },
      "nonce": 3,
      "data": "0x454e39503037304338",
      "r": "0xefe70b9662ccc8c079e39b18f7b3363d9ef8728cbe85373d3c8dfac6ae4641da",
      "s": "0x589d9095d6c56a0a1c562e2ffac2f651d1b4c28f9312e421339ffc583c2317f5",
      "v": 28,
      "creates": null,
      "raw": "0xf87803860110c8f7d8de82c350942910543af39aba0cd09dbb2d50200b3e800a63d28a043c3ab1eecf3832000089454e395030373043381ca0efe70b9662ccc8c079e39b18f7b3363d9ef8728cbe85373d3c8dfac6ae4641daa0589d9095d6c56a0a1c562e2ffac2f651d1b4c28f9312e421339ffc583c2317f5",
      "networkId": 0,
      "chainId": 0
    },
    {
      "hash": "0x3f0ce16199e76edd0d5279a2e0a3389a717e51035ad190795121d0ef02c33150",
      "blockHash": "0x7c1c9920a2ac282f939188c7e33b0b1a25c28e3255ad153b0961bb8d0a418ae3",
      "blockNumber": 65544,
      "transactionIndex": 1,
      "confirmations": null,
      "from": "0x32Be343B94f860124dC4fEe278FDCBD38C102D88",
      "gasPrice": {
        "_hex": "0xda4504f65"
      },
      "gasLimit": {
        "_hex": "0x5208"
      },
      "to": "0xa5CEEf50b1DD9bF1b9183e9493Fe6A6aa5Cc1678",
      "value": {
        "_hex": "0x30ca024f987b900000"
      },
      "nonce": 190,
      "data": "0x",
      "r": "0x1c5dffa4d8131fe2780cc3f777ee84d830b40aa26c45e8e83c07d90aef009cfd",
      "s": "0x114dfbfd429809fe7d3d8151a44c5df948ae05546101017c92fe4d7f3b250c28",
      "v": 27,
      "creates": null,
      "raw": "0xf86e81be850da4504f6582520894a5ceef50b1dd9bf1b9183e9493fe6a6aa5cc16788930ca024f987b900000801ba01c5dffa4d8131fe2780cc3f777ee84d830b40aa26c45e8e83c07d90aef009cfda0114dfbfd429809fe7d3d8151a44c5df948ae05546101017c92fe4d7f3b250c28",
      "networkId": 0,
      "chainId": 0
    }
  ]
}