{
  "hash": "0x568ad2dc0f42f4918ae9884f3c8cd6ff855e7529f9cd676146f5cf6bb5ea1d9d",
  "parentHash": "0xd2aef36ebae348efa60a44b17706d86425c8800840af6a0093b44d21c3a8cdf1",
  "number": 64292,
  "timestamp": 1439218340,
  "nonce": "0x1e718f2091c51089",
  "difficulty": 1878488701600,
  "gasLimit": {
    "_hex": "0x2fefd8"
  },
  "gasUsed": {
    "_hex": "0x546c"
  },
  "miner": "0x31995C46B15C84523cDEE26f49A681b8237e43F5",
  "extraData": "0x476574682f76312e302e312f77696e646f77732f676f312e342e32",
  "transactions": [
    {
      "hash": "0x7e4da1178140f3e970177c812b9d0ded59b141166790aa62043325a1ff3def32",
      "blockHash": "0x568ad2dc0f42f4918ae9884f3c8cd6ff855e7529f9cd676146f5cf6bb5ea1d9d",
      "blockNumber": 64292,
      "transactionIndex": 0,
      "confirmations": null,
      "from": "0x860F5ffc10dE767DeD807f71e861D647dFD219b1",
      "gasPrice": {
        "_hex": "0x110c8f7d8de"
      },
      "gasLimit": {
        "_hex": "0xc350"
      },
      "to": "0x2910543Af39abA0Cd09dBb2D50200b3E800A63D2",
      "value": {
        "_hex": "0x10f0cf064dd59200000"
      },
      "nonce": 0,
      "data": "0x454e46335647385530",
      "r": "0x6703223322a6f65f8fcc8ca1a9afe4c489630556644b4139d468d8e8d7341bdc",
      "s": "0x639f5d24e7511d6ba97d5fcd3553c781bb3af61833d9710aede6880298cf0264",
      "v": 28,
      "creates": null,
      "raw": "0xf87880860110c8f7d8de82c350942910543af39aba0cd09dbb2d50200b3e800a63d28a010f0cf064dd5920000089454e463356473855301ca06703223322a6f65f8fcc8ca1a9afe4c489630556644b4139d468d8e8d7341bdca0639f5d24e7511d6ba97d5fcd3553c781bb3af61833d9710aede6880298cf0264",
      "networkId": 0,
      "chainId": 0
    }
  ]
}