{
  "hash": "0x5ad19c2034b5246396206b1316caf31c78644ad81c379a33f7b55d60736f99ce",
  "parentHash": "0x21c02c37db7d29dc3a9458676f28f807ca6b0be8851ee4876e01be4ed35644c3",
  "number": 80073,
  "timestamp": 1439479753,
  "nonce": "0xca27b85da760b45b",
  "difficulty": 2348282015161,
  "gasLimit": {
    "_hex": "0x2fefd8"
  },
  "gasUsed": {
    "_hex": "0x5208"
  },
  "miner": "0xa6BDc31c431B8F97848c9D60cbbe9660dc450eB7",
  "extraData": "0x",
  "transactions": [
    {
      "hash": "0x8c3e900d84faf75923401292f3c3fc930ea53b1bf0d8419cb2fc2e75141c9383",
      "blockHash": "0x5ad19c2034b5246396206b1316caf31c78644ad81c379a33f7b55d60736f99ce",
      "blockNumber": 80073,
      "transactionIndex": 0,
      "confirmations": null,
      "from": "0xa6BDc31c431B8F97848c9D60cbbe9660dc450eB7",
      "gasPrice": {
        "_hex": "0xcd4c262ae"
      },
      "gasLimit": {
        "_hex": "0x5208"
      },
      "to": "0x32Be343B94f860124dC4fEe278FDCBD38C102D88",
      "value": {
        "_hex": "0x5265fb01e8ac1c000"
      },
      "nonce": 42,
      "data": "0x",
      "r": "0x3773c0985ed5d4045624c84e17eb8ca62ea9050fa5f9bb6154f108b842e97281",
      "s": "0x50d42e8547110f9b94a80a2b4cd11cecb3147ab4548e23b6e51de06b3146bd33",
      "v": 27,
      "creates": null,
      "raw": "0xf86d2a850cd4c262ae8252089432be343b94f860124dc4fee278fdcbd38c102d888905265fb01e8ac1c000801ba03773c0985ed5d4045624c84e17eb8ca62ea9050fa5f9bb6154f108b842e97281a050d42e8547110f9b94a80a2b4cd11cecb3147ab4548e23b6e51de06b3146bd33",
      "networkId": 0,
      "chainId": 0
    }
  ]
}