{
  "hash": "0xc5d50ce4b0e63ea9f7a13eedfd915b99064fe730304b22e33c5add51dea57c46",
  "parentHash": "0x9c2f2a4e3f69e912961f9da37f693bf3e62caae41672bdd2fadcebb3bf1fb6ad",
  "number": 77503,
  "timestamp": 1439438408,
  "nonce": "0xcbc470df1e34b896",
  "difficulty": 2237059415456,
  "gasLimit": {
    "_hex": "0x2fefd8"
  },
  "gasUsed": {
    "_hex": "0xa410"
  },
  "miner": "0xe6A7a1d47ff21B6321162AEA7C6CB457D5476Bca",
  "extraData": "0x476574682f76312e302e312d38326566323666362f6c696e75782f676f312e34",
  "transactions": [
    {
      "hash": "0x131850b1eb21c96e1916d128363d3dbd14271fa5f99dd4f292996aed335acbaa",
      "blockHash": "0xc5d50ce4b0e63ea9f7a13eedfd915b99064fe730304b22e33c5add51dea57c46",
      "blockNumber": 77503,
      "transactionIndex": 0,
      "confirmations": null,
      "from": "0x2a53CDf1BD82971A0383522D9D2D20eabB832143",
      "gasPrice": {
        "_hex": "0xdfbff8ef3"
      },
      "gasLimit": {
        "_hex": "0x15f90"
      },
      "to": "0x36d85Dc3683156e63Bf880A9fAb7788CF8143a27",
      "value": {
        "_hex": "0x0"
      },
      "nonce": 0,
      "data": "0x",
      "r": "0x4261b69d9eff05d075186ba7f6dba3c4266388b0ab05b8ff67f953c09c0ca358",
      "s": "0x3acfc4be7f4ee44d01f5cd30301a720d8ff13ce24c55e89a9fcef044193a2f8e",
      "v": 27,
      "creates": null,
      "raw": "0xf86580850dfbff8ef383015f909436d85dc3683156e63bf880a9fab7788cf8143a2780801ba04261b69d9eff05d075186ba7f6dba3c4266388b0ab05b8ff67f953c09c0ca358a03acfc4be7f4ee44d01f5cd30301a720d8ff13ce24c55e89a9fcef044193a2f8e",
      "networkId": 0,
      "chainId": 0
    },
    {
      "hash": "0xa12575522de4e35a6d766b76955ea5ccbaf77884b46edf9b59a010d005fc41fa",
      "blockHash": "0xc5d50ce4b0e63ea9f7a13eedfd915b99064fe730304b22e33c5add51dea57c46",
      "blockNumber": 77503,
      "transactionIndex": 1,
      "confirmations": null,
      "from": "0x9F3a74Fd5e7edCC1162993171381cbB632b7cFF0",
      "gasPrice": {
        "_hex": "0xdb6ed1f98"
      },
      "gasLimit": {
        "_hex": "0x5208"
      },
      "to": "0x4dD0c5950cA39fE8295754B1FEC7ABEe21b2C41f",
      "value": {
        "_hex": "0x1b1ae4d6e2ef500000"
      },
      "nonce": 13,
      "data": "0x",
      "r": "0xa0634f7925b31c9252eb6ab83175467b4816b319502ea49a1a7b478c42c210fc",
      "s": "0x54fc0324828170b87d560179f1d6eb6d8d8eab246fbe77a7ca74993d7004d3c3",
      "v": 27,
      "creates": null,
      "raw": "0xf86d0d850db6ed1f98825208944dd0c5950ca39fe8295754b1fec7abee21b2c41f891b1ae4d6e2ef500000801ba0a0634f7925b31c9252eb6ab83175467b4816b319502ea49a1a7b478c42c210fca054fc0324828170b87d560179f1d6eb6d8d8eab246fbe77a7ca74993d7004d3c3",
      "networkId": 0,
      "chainId": 0
    }
  ]
}