{
  "hash": "0x5a0f70a0d0bef43d8cb0bd1a9a8b62bcd6f09a082677fd29737080470d9c643a",
  "parentHash": "0xb90e22596c51128035e7889091eb30d4ea7acf1015acfb8133f94224da1bdd63",
  "number": 104967,
  "timestamp": 1439879307,
  "nonce": "0x383c7446dcd541ee",
  "difficulty": 4323207940720,
  "gasLimit": {
    "_hex": "0x2fefd8"
  },
  "gasUsed": {
    "_hex": "0x5208"
  },
  "miner": "0x580992B51e3925e23280EfB93d3047C82f17E038",
  "extraData": "0x476574682f76312e302e312f6c696e75782f676f312e342e32",
  "transactions": [
    {
      "hash": "0x565ee87294971bbfe87b3fe06b2b0b4f31c9aedfe878c802bd7302de70174f95",
      "blockHash": "0x5a0f70a0d0bef43d8cb0bd1a9a8b62bcd6f09a082677fd29737080470d9c643a",
      "blockNumber": 104967,
      "transactionIndex": 0,
      "confirmations": null,
      "from": "0x32Be343B94f860124dC4fEe278FDCBD38C102D88",
      "gasPrice": {
        "_hex": "0xdaa829fea"
      },
      "gasLimit": {
        "_hex": "0x5208"
      },
      "to": "0xd268fB48FA174088a25a120aFF0fd8eb0C2d4c87",
      "value": {
        "_hex": "0xed2b525841ae0000000"
      },
      "nonce": 1160,
      "data": "0x",
      "r": "0x9bcb50f0c594efe1f2e06eac9b02178b216c16c6a9096950777f911879c38735",
      "s": "0x500cae984ad76d64e2da77b139556464a17edd259ec86c0f6f6673ec571c6255",
      "v": 28,
      "creates": null,
      "raw": "0xf870820488850daa829fea82520894d268fb48fa174088a25a120aff0fd8eb0c2d4c878a0ed2b525841ae0000000801ca09bcb50f0c594efe1f2e06eac9b02178b216c16c6a9096950777f911879c38735a0500cae984ad76d64e2da77b139556464a17edd259ec86c0f6f6673ec571c6255",
      "networkId": 0,
      "chainId": 0
    }
  ]
}