{
  "hash": "0x7217e9e84e927baa6e15241a464effa2e7c66f0a7ca9fb20bceee433615e8827",
  "parentHash": "0xee4c1d3afa7bc454d681c78d25a8b3a33cd12d3143c9fad5ef1db25476eab9fe",
  "number": 80524,
  "timestamp": 1439486725,
  "nonce": "0x6b921ef9b4d68591",
  "difficulty": 2423877483417,
  "gasLimit": {
    "_hex": "0x2fefd8"
  },
  "gasUsed": {
    "_hex": "0xfc3f"
  },
  "miner": "0x01d9DA08cc6Fb97c0DE1B6F4C28910A0859Ed1A1",
  "extraData": "0x476574682f76312e302e312f6c696e75782f676f312e342e32",
  "transactions": [
    {
      "hash": "0x0fe4ff3ead1d45ed88ce26fc2e662bd3e648cbbc4b5aa2eb6475bc599cd5ab26",
      "blockHash": "0x7217e9e84e927baa6e15241a464effa2e7c66f0a7ca9fb20bceee433615e8827",
      "blockNumber": 80524,
      "transactionIndex": 0,
      "confirmations": null,
      "from": "0x87C5B5874A18B4306DF8a752a6C8cc3E82daFc19",
      "gasPrice": {
        "_hex": "0x113911bd9d0"
      },
      "gasLimit": {
        "_hex": "0x493e0"
      },
      "to": "0xC4c51de1AbF5D60DBd329eC0F999Fd8f021ae9fC",
      "value": {
        "_hex": "0x0"
      },
      "nonce": 233,
      "data": "0x03750d9400000000000000000000000087c5b5874a18b4306df8a752a6c8cc3e82dafc196b6b6b0000000000000000000000000000000000000000000000000000000000",
      "r": "0xb2f3bd9c46dda74a598ffe28e5a91587836ecb8fe997c5040caea4014a178024",
      "s": "0x51566746c46082d11c54c907aca45cf67d39ebc89352fdb895f26731599698e6",
      "v": 27,
      "creates": null,
      "raw": "0xf8ac81e9860113911bd9d0830493e094c4c51de1abf5d60dbd329ec0f999fd8f021ae9fc80b84403750d9400000000000000000000000087c5b5874a18b4306df8a752a6c8cc3e82dafc196b6b6b00000000000000000000000000000000000000000000000000000000001ba0b2f3bd9c46dda74a598ffe28e5a91587836ecb8fe997c5040caea4014a178024a051566746c46082d11c54c907aca45cf67d39ebc89352fdb895f26731599698e6",
      "networkId": 0,
      "chainId": 0
    },
    {
      "hash": "0xff64e4d9ba0ac70fef75d92e6f10562219dfc8f73f8cc31a780f4e46b63c4289",
      "blockHash": "0x7217e9e84e927baa6e15241a464effa2e7c66f0a7ca9fb20bceee433615e8827",
      "blockNumber": 80524,
      "transactionIndex": 1,
      "confirmations": null,
      "from": "0xfE439e496730A23d448f85fA219972ea04793aB7",
      "gasPrice": {
        "_hex": "0xdd8f9a9ee"
      },
      "gasLimit": {
        "_hex": "0x5208"
      },
      "to": "0x32Be343B94f860124dC4fEe278FDCBD38C102D88",
      "value": {
        "_hex": "0xddc46c52a349c00"
      },
      "nonce": 4,
      "data": "0x",
      "r": "0x7a61dc90c55193aa00aa62e21ab5df3ac445a2a2b67df5254372d5fa35fc6c01",
      "s": "0x7495b707a3bf7996460b926cabf48d85659896a911404c7eb75795d6495b6a19",
      "v": 27,
      "creates": null,
      "raw": "0xf86c04850dd8f9a9ee8252089432be343b94f860124dc4fee278fdcbd38c102d88880ddc46c52a349c00801ba07a61dc90c55193aa00aa62e21ab5df3ac445a2a2b67df5254372d5fa35fc6c01a07495b707a3bf7996460b926cabf48d85659896a911404c7eb75795d6495b6a19",
      "networkId": 0,
      "chainId": 0
    }
  ]
}