{
  "hash": "0x2948bb7c199c585da5d6e84043136dc8abfc2f1cdd928245d05dd9447367a3ab",
  "parentHash": "0xc3369e76af2df2b1ad603d63b3d5e5568522a3eb8b0ef34b8fc33e8e6d5e0403",
  "number": 60124,
  "timestamp": 1439149552,
  "nonce": "0xfcf4a7406bbafdb1",
  "difficulty": 1743281257197,
  "gasLimit": {
    "_hex": "0x2fefd8"
  },
  "gasUsed": {
    "_hex": "0x5208"
  },
  "miner": "0x9746c7e1ef2bd21FF3997fa467593a89cb852BD0",
  "extraData": "0x476574682f76312e302e312f77696e646f77732f676f312e342e32",
  "transactions": [
    {
      "hash": "0x1f90197fa6636c469c4db011bc98ed569083000738030438ece69a1b2cbe8f8b",
      "blockHash": "0x2948bb7c199c585da5d6e84043136dc8abfc2f1cdd928245d05dd9447367a3ab",
      "blockNumber": 60124,
      "transactionIndex": 0,
      "confirmations": null,
      "from": "0x32Be343B94f860124dC4fEe278FDCBD38C102D88",
      "gasPrice": {
        "_hex": "0xcda5e7fa2"
      },
      "gasLimit": {
        "_hex": "0x5208"
      },
      "to": "0x976349705b839e2F5719387Fb27D2519d519da03",
      "value": {
        "_hex": "0x2af48f83c3de800"
      },
      "nonce": 114,
      "data": "0x",
      "r": "0x74d7c896f8d35198c98a3b7847d20cc2a2fd70469e2b3ce874a4f899d9d8ee73",
      "s": "0x67d1898e633ea30a36f881ebbefe016cdf2425402f4d35cbf11cc0d627eb7f71",
      "v": 27,
      "creates": null,
      "raw": "0xf86c72850cda5e7fa282520894976349705b839e2f5719387fb27d2519d519da038802af48f83c3de800801ba074d7c896f8d35198c98a3b7847d20cc2a2fd70469e2b3ce874a4f899d9d8ee73a067d1898e633ea30a36f881ebbefe016cdf2425402f4d35cbf11cc0d627eb7f71",
      "networkId": 0,
      "chainId": 0
    }
  ]
}