{
  "hash": "0x9ea45561e17af6701f2009bf6d467f3a8f1706b4cf09fdbc0fe07b55705e2d48",
  "parentHash": "0xcc7fd119752cf481af27596e86998e1979dc6ab2e77c98aee8cbe1b609829ca5",
  "number": 103125,
  "timestamp": 1439847957,
  "nonce": "0x9582981552eb05d4",
  "difficulty": 4191117004599,
  "gasLimit": {
    "_hex": "0x2fefd8"
  },
  "gasUsed": {
    "_hex": "0x5208"
  },
  "miner": "0xf927a40C8B7F6E07c5af7FA2155B4864a4112B13",
  "extraData": "0x",
  "transactions": [
    {
      "hash": "0x44a037241760256df5b4a9420f48ef85d3076ada83a75d3c8affc42903aa1597",
      "blockHash": "0x9ea45561e17af6701f2009bf6d467f3a8f1706b4cf09fdbc0fe07b55705e2d48",
      "blockNumber": 103125,
      "transactionIndex": 0,
      "confirmations": null,
      "from": "0xb1abce2918E21ddb93AA452731a12672A3d9F75a",
      "gasPrice": {
        "_hex": "0xcacf83878"
      },
      "gasLimit": {
        "_hex": "0x5208"
      },
      "to": "0x32Be343B94f860124dC4fEe278FDCBD38C102D88",
      "value": {
        "_hex": "0x455f81b5fab88400"
      },
      "nonce": 114,
      "data": "0x",
      "r": "0xa6d31b6dd03a180dec9ea22d901e8ab6190c6242ca98d2cc17bde17a8bd63eec",
      "s": "0x22d644f8510e8911700c043beb2016ef8aecddd6b419cb33faf476c7ac93c713",
      "v": 27,
      "creates": null,
      "raw": "0xf86c72850cacf838788252089432be343b94f860124dc4fee278fdcbd38c102d8888455f81b5fab88400801ba0a6d31b6dd03a180dec9ea22d901e8ab6190c6242ca98d2cc17bde17a8bd63eeca022d644f8510e8911700c043beb2016ef8aecddd6b419cb33faf476c7ac93c713",
      "networkId": 0,
      "chainId": 0
    }
  ]
}