{
  "hash": "0xde5026414f6d90cfe39a6a4af808db05de8ce4046882576eb7d9d1b66e7ee6c7",
  "parentHash": "0xef031f5955a3b5820e3a1a653728a2aca320196ceebba0596e0e29c40b466efb",
  "number": 58435,
  "timestamp": 1439120477,
  "nonce": "0x60ffe3cf9d7450cd",
  "difficulty": 1717438165674,
  "gasLimit": {
    "_hex": "0x2fefd8"
  },
  "gasUsed": {
    "_hex": "0x546c"
  },
  "miner": "0xC6Bf5B6558f2eE21F2E43d9fF9B5408A0Cb89413",
  "extraData": "0x476574682f76312e302e312d38326566323666362f6c696e75782f676f312e34",
  "transactions": [
    {
      "hash": "0x851475332a2fc63241daeeab454ad464d0a500bddece2e0c88bc097870ab4935",
      "blockHash": "0xde5026414f6d90cfe39a6a4af808db05de8ce4046882576eb7d9d1b66e7ee6c7",
      "blockNumber": 58435,
      "transactionIndex": 0,
      "confirmations": null,
      "from": "0x869F1Aa30E4455BEb1822091DE5CAdec79A8f946",
      "gasPrice": {
        "_hex": "0x110c8f7d8de"
      },
      "gasLimit": {
        "_hex": "0xc350"
      },
      "to": "0x2910543Af39abA0Cd09dBb2D50200b3E800A63D2",
      "value": {
        "_hex": "0x8987647e9c1f0000"
      },
      "nonce": 1,
      "data": "0x454e59445233304e52",
      "r": "0x8066688b096a73b140853c9a57b77de3373153ee954043bbad298b914e6005c1",
      "s": "0x80525431f08c609104504edc2d17abbccf4ac95c829b6c2238994d29867dab63",
      "v": 27,
      "creates": null,
      "raw": "0xf87601860110c8f7d8de82c350942910543af39aba0cd09dbb2d50200b3e800a63d2888987647e9c1f000089454e59445233304e521ba08066688b096a73b140853c9a57b77de3373153ee954043bbad298b914e6005c1a080525431f08c609104504edc2d17abbccf4ac95c829b6c2238994d29867dab63",
      "networkId": 0,
      "chainId": 0
    }
  ]
}