{
  "hash": "0x84215b796d0362b5a3d6bf8aed8268dcbebf7bc51c411d7393bcddbf6a411b2a",
  "parentHash": "0x8a810ac218568c7e0dfd264700f6c4841a3ad6a46a0ca7937899a42d31759437",
  "number": 53345,
  "timestamp": 1439036205,
  "nonce": "0xa3b413f77a4216fd",
  "difficulty": 1586233575928,
  "gasLimit": {
    "_hex": "0x255942"
  },
  "gasUsed": {
    "_hex": "0x546c"
  },
  "miner": "0x9746c7e1ef2bd21FF3997fa467593a89cb852BD0",
  "extraData": "0x476574682f76312e302e312f77696e646f77732f676f312e342e32",
  "transactions": [
    {
      "hash": "0xdcdf65d8666ef8a7ea2faf33bd3df244885165d3c6a8608b5972af13ab1fe27a",
      "blockHash": "0x84215b796d0362b5a3d6bf8aed8268dcbebf7bc51c411d7393bcddbf6a411b2a",
      "blockNumber": 53345,
      "transactionIndex": 0,
      "confirmations": null,
      "from": "0x5D6ae8cbD6B3393C22D16254100d0238e808147C",
      "gasPrice": {
        "_hex": "0x110c8f7d8de"
      },
      "gasLimit": {
        "_hex": "0xc350"
      },
      "to": "0x2910543Af39abA0Cd09dBb2D50200b3E800A63D2",
      "value": {
        "_hex": "0x3782dace9d900000"
      },
      "nonce": 2,
      "data": "0x454e35575632475438",
      "r": "0xf21e3089be595c5ee08cadfa06ca711f6eea8ee14b54b1370f162643ff2bcaa1",
      "s": "0x24a5dd14162f36ea6610bd8391f35b1047dfadd60bc35cf8e281aee5b769fecb",
      "v": 27,
      "creates": null,
      "raw": "0xf87602860110c8f7d8de82c350942910543af39aba0cd09dbb2d50200b3e800a63d2883782dace9d90000089454e355756324754381ba0f21e3089be595c5ee08cadfa06ca711f6eea8ee14b54b1370f162643ff2bcaa1a024a5dd14162f36ea6610bd8391f35b1047dfadd60bc35cf8e281aee5b769fecb",
      "networkId": 0,
      "chainId": 0
    }
  ]
}