{
  "hash": "0x1f106693bdc5beb5a3a7d1afcf67fefe27ddf984d7b222b0edb53a7192509972",
  "parentHash": "0xda6f4cd1da75711c279ba3bda3028836f231605579c49d334d327d7c5781b9f1",
  "number": 48433,
  "timestamp": 1438957010,
  "nonce": "0xbc8d7b7a2e70f6a3",
  "difficulty": 1460735568692,
  "gasLimit": {
    "_hex": "0x173c1"
  },
  "gasUsed": {
    "_hex": "0x546c"
  },
  "miner": "0x47ff6576639c2e94762eA5443978D7681C0E78DC",
  "extraData": "0x476574682f76312e302e312f6c696e75782f676f312e342e32",
  "transactions": [
    {
      "hash": "0x67c18919a2799767bc7a22855b1af8f20cfbdd387cd48290109aa20e11d5456d",
      "blockHash": "0x1f106693bdc5beb5a3a7d1afcf67fefe27ddf984d7b222b0edb53a7192509972",
      "blockNumber": 48433,
      "transactionIndex": 0,
      "confirmations": null,
      "from": "0xDB0CC78f74d9827bdc8A6473276eB84Fdc976212",
      "gasPrice": {
        "_hex": "0x10c0811a6e9"
      },
      "gasLimit": {
        "_hex": "0x55f0"
      },
      "to": "0x2910543Af39abA0Cd09dBb2D50200b3E800A63D2",
      "value": {
        "_hex": "0x56bc75e2d63100000"
      },
      "nonce": 6,
      "data": "0x454e463147314e5847",
      "r": "0xdda561407cf52e71ae0a7b0007c461e7fbb07d9b6cf2c9bbdbf7ff104a598308",
      "s": "0x54c1f19a85096afe545bdcc12ea5bb945398577c6f4316fd74269257f3ae53de",
      "v": 28,
      "creates": null,
      "raw": "0xf8770686010c0811a6e98255f0942910543af39aba0cd09dbb2d50200b3e800a63d289056bc75e2d6310000089454e463147314e58471ca0dda561407cf52e71ae0a7b0007c461e7fbb07d9b6cf2c9bbdbf7ff104a598308a054c1f19a85096afe545bdcc12ea5bb945398577c6f4316fd74269257f3ae53de",
      "networkId": 0,
      "chainId": 0
    }
  ]
}