{
  "hash": "0x39ff4012f729f696addee1f6c0ba7597113804a8c16b1742d38a8f62658d07c8",
  "parentHash": "0x6495c1ce4fea5347669d9556670d4c4590c28081162a08a334b25dd7b5431512",
  "number": 55694,
  "timestamp": 1439075214,
  "nonce": "0x04b344ce5940b30f",
  "difficulty": 1609975696061,
  "gasLimit": {
    "_hex": "0x2fefd8"
  },
  "gasUsed": {
    "_hex": "0x13269"
  },
  "miner": "0x01d9DA08cc6Fb97c0DE1B6F4C28910A0859Ed1A1",
  "extraData": "0x476574682f76312e302e312f6c696e75782f676f312e342e32",
  "transactions": [
    {
      "hash": "0xfb923961e525e070247ef2b322660de95c7525e7d0d88dcd369968e97798c026",
      "blockHash": "0x39ff4012f729f696addee1f6c0ba7597113804a8c16b1742d38a8f62658d07c8",
      "blockNumber": 55694,
      "transactionIndex": 0,
      "confirmations": null,
      "from": "0x4FcE8429bA49cAa0369d1E494Db57E89Eab2AD39",
      "gasPrice": {
        "_hex": "0xd6bb2041a"
      },
      "gasLimit": {
        "_hex": "0x15f90"
      },
      "to": "0x2910543Af39abA0Cd09dBb2D50200b3E800A63D2",
      "value": {
        "_hex": "0x152cbd644fc8b18c0000"
      },
      "nonce": 1,
      "data": "0x454e51525259523352",
      "r": "0x5dabd08f8227657c2b0058cef8f3b19ecbd896e5b116f038ffeef32b5d548e77",
      "s": "0x1eb6ed2cca45a7500907592c07319c1513b086fb4a362a9a17320c768314d8cf",
      "v": 28,
      "creates": null,
      "raw": "0xf87801850d6bb2041a83015f90942910543af39aba0cd09dbb2d50200b3e800a63d28a152cbd644fc8b18c000089454e515252595233521ca05dabd08f8227657c2b0058cef8f3b19ecbd896e5b116f038ffeef32b5d548e77a01eb6ed2cca45a7500907592c07319c1513b086fb4a362a9a17320c768314d8cf",
      "networkId": 0,
      "chainId": 0
    },
    {
      "hash": "0x97d5b16b00c823a4476ae8b69b150e7d6aeb3f2496a0389b14d5085f8f93e014",
      "blockHash": "0x39ff4012f729f696addee1f6c0ba7597113804a8c16b1742d38a8f62658d07c8",
      "blockNumber": 55694,
      "transactionIndex": 1,
      "confirmations": null,
      "from": "0x241361559FEEF80Ef137302153Bd9Ed2f25db3eF",
      "gasPrice": {
        "_hex": "0xd263a3587"
      },
      "gasLimit": {
        "_hex": "0x7a120"
      },
      "to": "0xA327075af2a223A1C83a36aDa1126afE7430f955",
      "value": {
        "_hex": "0x8ac7230489e80000"
      },
      "nonce": 3,
      "data": "0x",
      "r": "0x12d7e27c96e3a1b52148593ebb6c7f1ba96c15f44f6b97b8193f1cfcaa4030f8",
      "s": "0x63100e89f6fe69249d9854e534a52a6a7c0af4abcd89c2498949592643b9f04f",
      "v": 28,
      "creates": null,
      "raw": "0xf86d03850d263a35878307a12094a327075af2a223a1c83a36ada1126afe7430f955888ac7230489e80000801ca012d7e27c96e3a1b52148593ebb6c7f1ba96c15f44f6b97b8193f1cfcaa4030f8a063100e89f6fe69249d9854e534a52a6a7c0af4abcd89c2498949592643b9f04f",
      "networkId": 0,
      "chainId": 0
    }
  ]
}