{
  "hash": "0xaef6752f3e8c803f4b0f86bd08f265625f0ab0e328a4894341b09b3605557ed8",
  "parentHash": "0x545ef9a153186cad0e97382a9097edac9f00e79e5444d797d1fc03cd8cb2e145",
  "number": 117409,
  "timestamp": 1440108919,
  "nonce": "0xdca0fbf41faf3f93",
  "difficulty": 4316800502344,
  "gasLimit": {
    "_hex": "0x2fefd8"
  },
  "gasUsed": {
    "_hex": "0x5208"
  },
  "miner": "0x0037ce3d4B7f8729C8607D8D0248252Be68202c0",
  "extraData": "0x",
  "transactions": [
    {
      "hash": "0x4115c9c8ce048564d592b1c3cfa6d7becb671bf9a68fe5808dd0045b82bf7047",
      "blockHash": "0xaef6752f3e8c803f4b0f86bd08f265625f0ab0e328a4894341b09b3605557ed8",
      "blockNumber": 117409,
      "transactionIndex": 0,
      "confirmations": null,
      "from": "0x790b8a3cE86E707ED0eD32bF89B3269692a23CC1",
      "gasPrice": {
        "_hex": "0xba43b7400"
      },
      "gasLimit": {
        "_hex": "0x15f90"
      },
      "to": "0x4D67f4F0Db45b3B5a3424B39ed8d972F710381D5",
      "value": {
        "_hex": "0x376ca67717b760000"
      },
      "nonce": 59,
      "data": "0x",
      "r": "0x5b614fd7efd23c10172bc9c4ae0ddfb18389d3308dd8343b596d4ff6a8ced8bb",
      "s": "0x1de928c82c89275d66fffb7db2ed1da39adf821f13aab0891da216e31473d1e5",
      "v": 27,
      "creates": null,
      "raw": "0xf86e3b850ba43b740083015f90944d67f4f0db45b3b5a3424b39ed8d972f710381d5890376ca67717b760000801ba05b614fd7efd23c10172bc9c4ae0ddfb18389d3308dd8343b596d4ff6a8ced8bba01de928c82c89275d66fffb7db2ed1da39adf821f13aab0891da216e31473d1e5",
      "networkId": 0,
      "chainId": 0
    }
  ]
}