{
  "hash": "0x085ab04666ffd873ebad9ed46e5085d3dda3b62a0999e3558d8eab5d2c7c46b0",
  "parentHash": "0xc0dd9cfd07dacd488052bc3614d620c4165fda5f625481b9dfd90be9f906c2df",
  "number": 74991,
  "timestamp": 1439395741,
  "nonce": "0x0114731896febf72",
  "difficulty": 2192305833976,
  "gasLimit": {
    "_hex": "0x2fefd8"
  },
  "gasUsed": {
    "_hex": "0xf618"
  },
  "miner": "0xe6A7a1d47ff21B6321162AEA7C6CB457D5476Bca",
  "extraData": "0x476574682f76312e302e312d38326566323666362f6c696e75782f676f312e34",
  "transactions": [
    {
      "hash": "0x5cd68313a43d16241e649c57e49f423fe541752498feb0a1e196ec68a8749d2f",
      "blockHash": "0x085ab04666ffd873ebad9ed46e5085d3dda3b62a0999e3558d8eab5d2c7c46b0",
      "blockNumber": 74991,
      "transactionIndex": 0,
      "confirmations": null,
      "from": "0x65B2003cE03eDcF961C6b724862D6a7f942B8971",
      "gasPrice": {
        "_hex": "0xd7d40ace3"
      },
      "gasLimit": {
        "_hex": "0x15f90"
      },
      "to": "0xEe2e3665531f220d70d01CCaBb559537a2663174",
      "value": {
        "_hex": "0x15af1d78b58c40000"
      },
      "nonce": 2,
      "data": "0x",
      "r": "0x975575f07c259503dfbe0b2b68bba7101192bf55a55750379d70daf7cc76e145",
      "s": "0x19cee7088efc1fee0acd2f73bda47c0b9df25c392d6d9facd23c9400980cebb2",
      "v": 27,
      "creates": null,
      "raw": "0xf86e02850d7d40ace383015f9094ee2e3665531f220d70d01ccabb559537a266317489015af1d78b58c40000801ba0975575f07c259503dfbe0b2b68bba7101192bf55a55750379d70daf7cc76e145a019cee7088efc1fee0acd2f73bda47c0b9df25c392d6d9facd23c9400980cebb2",
      "networkId": 0,
      "chainId": 0
    },
    {
      "hash": "0xa48ce22a0e142dd719c42d8089e7ea0851217949166b8d64d085c85f03ada3c3",
      "blockHash": "0x085ab04666ffd873ebad9ed46e5085d3dda3b62a0999e3558d8eab5d2c7c46b0",
      "blockNumber": 74991,
      "transactionIndex": 1,
      "confirmations": null,
      "from": "0xEe2e3665531f220d70d01CCaBb559537a2663174",
      "gasPrice": {
        "_hex": "0xcd001f5e3"
      },
      "gasLimit": {
        "_hex": "0x5208"
      },
      "to": "0x32Be343B94f860124dC4fEe278FDCBD38C102D88",
      "value": {
        "_hex": "0x8ac307fcca4f9800"
      },
      "nonce": 5,
      "data": "0x",
      "r": "0x1432f1531a2a44dc8cfc9d1edf96f7df2fba030848b17ee4bd2da72d2b1941a3",
      "s": "0x0ae5429f7ba61f7a3b6233d9133f70293ee597b4bd0a33cd7ff9aaa0bb1d587b",
      "v": 27,
      "creates": null,
      "raw": "0xf86c05850cd001f5e38252089432be343b94f860124dc4fee278fdcbd38c102d88888ac307fcca4f9800801ba01432f1531a2a44dc8cfc9d1edf96f7df2fba030848b17ee4bd2da72d2b1941a3a00ae5429f7ba61f7a3b6233d9133f70293ee597b4bd0a33cd7ff9aaa0bb1d587b",
      "networkId": 0,
      "chainId": 0
    },
    {
      "hash": "0x797cf02c4a7c6d984f99ac4f6bd92b47741927336be546e1df819aa348bc4742",
      "blockHash": "0x085ab04666ffd873ebad9ed46e5085d3dda3b62a0999e3558d8eab5d2c7c46b0",
      "blockNumber": 74991,
      "transactionIndex": 2,
      "confirmations": null,
      "from": "0xD9666150A9dA92d9108198a4072970805a8B3428",
      "gasPrice": {
        "_hex": "0xcd001f5e3"
      },
      "gasLimit": {
        "_hex": "0x5208"
      },
      "to": "0x32Be343B94f860124dC4fEe278FDCBD38C102D88",
      "value": {
        "_hex": "0xb561ac97a1bbe80000"
      },
      "nonce": 4,
      "data": "0x",
      "r": "0xc08e282df05610bc54289c5617cb69b8b5973a3784ed4149b97f3245acffa493",
      "s": "0x2792e41bcf120f1a08896f89d7209862b0a9f4d87342e1e6af569424e9f6fccd",
      "v": 28,
      "creates": null,
      "raw": "0xf86d04850cd001f5e38252089432be343b94f860124dc4fee278fdcbd38c102d8889b561ac97a1bbe80000801ca0c08e282df05610bc54289c5617cb69b8b5973a3784ed4149b97f3245acffa493a02792e41bcf120f1a08896f89d7209862b0a9f4d87342e1e6af569424e9f6fccd",
      "networkId": 0,
      "chainId": 0
    }
  ]
}