{
  "hash": "0x671ee57777ddc8078fbc02e3c431b0e88b179a3d22381bfbd3fd7b5fc2823278",
  "parentHash": "0xfaf149f8d9dd5a74235dba38d2d9d2068960610fb0ad324299047cb2be109fa7",
  "number": 76970,
  "timestamp": 1439429244,
  "nonce": "0xad129e9152fa8eec",
  "difficulty": 2238294209912,
  "gasLimit": {
    "_hex": "0x2fefd8"
  },
  "gasUsed": {
    "_hex": "0x5208"
  },
  "miner": "0x31995C46B15C84523cDEE26f49A681b8237e43F5",
  "extraData": "0x476574682f76312e302e312f77696e646f77732f676f312e342e32",
  "transactions": [
    {
      "hash": "0xe01827c840021061d71caaf563704019c73c42f1c5add1f59c0bd1cd49ae82d7",
      "blockHash": "0x671ee57777ddc8078fbc02e3c431b0e88b179a3d22381bfbd3fd7b5fc2823278",
      "blockNumber": 76970,
      "transactionIndex": 0,
      "confirmations": null,
      "from": "0x752A5ee232612Cd3005Fb26E5b597De19f776bE6",
      "gasPrice": {
        "_hex": "0xe8f71453b"
      },
      "gasLimit": {
        "_hex": "0x15f90"
      },
      "to": "0xe3A29c590ae7Bf0D32A7121373bf5C94ADbeCa4a",
      "value": {
        "_hex": "0x470de4df820000"
      },
      "nonce": 2,
      "data": "0x",
      "r": "0x433d1b16245ac6a333bbe32940631c635d858d367a538edbd25380e8781a7d63",
      "s": "0x51adce39fbd20a12818b85415de1597b530cb96415996955b43c2e5fe5189ddf",
      "v": 28,
      "creates": null,
      "raw": "0xf86c02850e8f71453b83015f9094e3a29c590ae7bf0d32a7121373bf5c94adbeca4a87470de4df820000801ca0433d1b16245ac6a333bbe32940631c635d858d367a538edbd25380e8781a7d63a051adce39fbd20a12818b85415de1597b530cb96415996955b43c2e5fe5189ddf",
      "networkId": 0,
      "chainId": 0
    }
  ]
}