{
  "hash": "0xe855baa6bcadac58b69e3bd8ee77d3304c6b30576af19f469101a83ad34baccc",
  "parentHash": "0x4cbcf9ec2e1088c8c60bc37e0073455ad6bb424256ce9e41b5a73614630262f6",
  "number": 52680,
  "timestamp": 1439025521,
  "nonce": "0x4c57afc85a6079dd",
  "difficulty": 1571710183973,
  "gasLimit": {
    "_hex": "0x179990"
  },
  "gasUsed": {
    "_hex": "0x16e360"
  },
  "miner": "0xe6A7a1d47ff21B6321162AEA7C6CB457D5476Bca",
  "extraData": "0x657468706f6f6c2e6f7267",
  "transactions": [
    {
      "hash": "0xaa0b9d9855c3645497b23b4dc405c5784f341e7bca163033075dae8a4394c2db",
      "blockHash": "0xe855baa6bcadac58b69e3bd8ee77d3304c6b30576af19f469101a83ad34baccc",
      "blockNumber": 52680,
      "transactionIndex": 0,
      "confirmations": null,
      "from": "0x54dAeb3E8a6BBC797E4aD2b0339f134b186e4637",
      "gasPrice": {
        "_hex": "0xdf4ba21f9"
      },
      "gasLimit": {
        "_hex": "0x7a120"
      },
      "to": "0xBAA54d6E90c3F4d7Ebec11bD180134C7eD8eBb52",
      "value": {
        "_hex": "0x16345785d8a0000"
      },
      "nonce": 921,
      "data": "0x",
      "r": "0xdc8224dd7dc4c807ec0a65296b38117f8bc8b1aaebb832f3701167150e83b6f4",
      "s": "0x0d17131ec05c522d33ea400a464920dcad5a4262e634bc0d09dcedc9cb2a601a",
      "v": 27,
      "creates": null,
      "raw": "0xf86f820399850df4ba21f98307a12094baa54d6e90c3f4d7ebec11bd180134c7ed8ebb5288016345785d8a0000801ba0dc8224dd7dc4c807ec0a65296b38117f8bc8b1aaebb832f3701167150e83b6f4a00d17131ec05c522d33ea400a464920dcad5a4262e634bc0d09dcedc9cb2a601a",
      "networkId": 0,
      "chainId": 0
    },
    {
      "hash": "0x7b52260148385bbd6eddae06aca61d565a91b1b072603f0c9809fcaf3ed7bc52",
      "blockHash": "0xe855baa6bcadac58b69e3bd8ee77d3304c6b30576af19f469101a83ad34baccc",
      "blockNumber": 52680,
      "transactionIndex": 1,
      "confirmations": null,
      "from": "0x54dAeb3E8a6BBC797E4aD2b0339f134b186e4637",
      "gasPrice": {
        "_hex": "0xd8bd64e50"
      },
      "gasLimit": {
        "_hex": "0x7a120"
      },
      "to": "0xBAA54d6E90c3F4d7Ebec11bD180134C7eD8eBb52",
      "value": {
        "_hex": "0x16345785d8a0000"
      },
      "nonce": 922,
      "data": "0x",
      "r": "0x0d0a74e1b92d554bd5b8cd1351cdd2d8b48c514977db88edb0aafce987b1934f",
      "s": "0x32e8e1ceec32bce81c252569ffde23458e8b4351517ecc95f762665e898d5740",
      "v": 28,
      "creates": null,
      "raw": "0xf86f82039a850d8bd64e508307a12094baa54d6e90c3f4d7ebec11bd180134c7ed8ebb5288016345785d8a0000801ca00d0a74e1b92d554bd5b8cd1351cdd2d8b48c514977db88edb0aafce987b1934fa032e8e1ceec32bce81c252569ffde23458e8b4351517ecc95f762665e898d5740",
      "networkId": 0,
      "chainId": 0
    },
    {
      "hash": "0x60ec4928c329fc28413ecc6a0825cb018056242a8809a43e4998bf6e58126630",
      "blockHash": "0xe855baa6bcadac58b69e3bd8ee77d3304c6b30576af19f469101a83ad34baccc",
      "blockNumber": 52680,
      "transactionIndex": 2,
      "confirmations": null,
      "from": "0x54dAeb3E8a6BBC797E4aD2b0339f134b186e4637",
      "gasPrice": {
        "_hex": "0xdce5b224a"
      },
      "gasLimit": {
        "_hex": "0x7a120"
      },
      "to": "0xBAA54d6E90c3F4d7Ebec11bD180134C7eD8eBb52",
      "value": {
        "_hex": "0x16345785d8a0000"
      },
      "nonce": 923,
      "data": "0x",
      "r": "0x099b8f22ec00ac77c253c5200b636e8cc5b79c1661861a8bde45ee4a104e5f47",
      "s": "0x4c8b6b054845689a0a85ee7368e126e380812b9ca3b4503cdd7d33c48eb03ac7",
      "v": 27,
      "creates": null,
      "raw": "0xf86f82039b850dce5b224a8307a12094baa54d6e90c3f4d7ebec11bd180134c7ed8ebb5288016345785d8a0000801ba0099b8f22ec00ac77c253c5200b636e8cc5b79c1661861a8bde45ee4a104e5f47a04c8b6b054845689a0a85ee7368e126e380812b9ca3b4503cdd7d33c48eb03ac7",
      "networkId": 0,
      "chainId": 0
    }
  ]
}