{
  "hash": "0xb3e8c940ae63c671d30fdcb1718486a84693cb0ed33e230238561fa000440b48",
  "parentHash": "0xead194897f74ca7896027e93e4f40dc89d6a50a9c446c9b60a2bcefda94ea4d7",
  "number": 90499,
  "timestamp": 1439640938,
  "nonce": "0x2d971e1384d61324",
  "difficulty": 3346482871951,
  "gasLimit": {
    "_hex": "0x2fefd8"
  },
  "gasUsed": {
    "_hex": "0x55d8"
  },
  "miner": "0xe6A7a1d47ff21B6321162AEA7C6CB457D5476Bca",
  "extraData": "0x476574682f76312e302e312d38326566323666362f6c696e75782f676f312e34",
  "transactions": [
    {
      "hash": "0x4ba2bd54878f96beec807a5ebedda9f90040ac5792f34d5d8bdd983fef2b38e4",
      "blockHash": "0xb3e8c940ae63c671d30fdcb1718486a84693cb0ed33e230238561fa000440b48",
      "blockNumber": 90499,
      "transactionIndex": 0,
      "confirmations": null,
      "from": "0xF5DB8283D971Aa114D2035f512EdD8e86557c5C0",
      "gasPrice": {
        "_hex": "0xe1e33cafa"
      },
      "gasLimit": {
        "_hex": "0x15f90"
      },
      "to": "0x0000000000000000000000000000000000000000",
      "value": {
        "_hex": "0x8ac7230489e80000"
      },
      "nonce": 2,
      "data": "0xb214faa54141414141484a48430000000000000000000000000000000000000000000000",
      "r": "0xb2bf1ce4a3d4dd4bcbde908a14180a3d222d570fc7dc0e6b4dafc04b2c99fa7e",
      "s": "0x0479d945204ae2a3b6a25d7f6684872bed68ce4fa4c7a3a022cf9a727d883a16",
      "v": 27,
      "creates": null,
      "raw": "0xf89102850e1e33cafa83015f90940000000000000000000000000000000000000000888ac7230489e80000a4b214faa54141414141484a484300000000000000000000000000000000000000000000001ba0b2bf1ce4a3d4dd4bcbde908a14180a3d222d570fc7dc0e6b4dafc04b2c99fa7ea00479d945204ae2a3b6a25d7f6684872bed68ce4fa4c7a3a022cf9a727d883a16",
      "networkId": 0,
      "chainId": 0
    }
  ]
}