{
  "hash": "0xfb8928515036a8c0b4f0cd3d28c952068f1bbae909cc65146ede2df59d8fe49b",
  "parentHash": "0xc346c03d068298047431cab756f43ad8f1cd07401fce42da26723bfc0268dc63",
  "number": 46390,
  "timestamp": 1438922335,
  "nonce": "0x7e653e5cc0c7373d",
  "difficulty": 1466093875662,
  "gasLimit": {
    "_hex": "0x5ea2"
  },
  "gasUsed": {
    "_hex": "0x5208"
  },
  "miner": "0xab84940B570d6358ed6A9Dbf7e0bc8Ec8F5A6E89",
  "extraData": "0x322831652933",
  "transactions": [
    {
      "hash": "0x2834064f4f1b0bfcdb7ba169e19889804dfdbc0922bf45d723932fbebaa591e7",
      "blockHash": "0xfb8928515036a8c0b4f0cd3d28c952068f1bbae909cc65146ede2df59d8fe49b",
      "blockNumber": 46390,
      "transactionIndex": 0,
      "confirmations": null,
      "from": "0x8566610901AACe38b83244F3A9c831306a67b9dc",
      "gasPrice": {
        "_hex": "0x746a528800"
      },
      "gasLimit": {
        "_hex": "0x5208"
      },
      "to": "0xF54Cd4eA55D233E7175BBBc8d55645ad60C0Ea73",
      "value": {
        "_hex": "0x1daff710e784000"
      },
      "nonce": 0,
      "data": "0x",
      "r": "0xc18ff5ca0718a13ed43ccb7c634ee28cb5a902933a180348cc899fc2c5e9f047",
      "s": "0x268e42f42af22541c30f5398383136a0418ac461971a5cd3961319d26b7be58e",
      "v": 27,
      "creates": null,
      "raw": "0xf86c8085746a52880082520894f54cd4ea55d233e7175bbbc8d55645ad60c0ea738801daff710e784000801ba0c18ff5ca0718a13ed43ccb7c634ee28cb5a902933a180348cc899fc2c5e9f047a0268e42f42af22541c30f5398383136a0418ac461971a5cd3961319d26b7be58e",
      "networkId": 0,
      "chainId": 0
    }
  ]
}