{
  "hash": "0xc3efdeb952b0a3ab257929978b6405214f238510fc40fa72341a0fdae82d7726",
  "parentHash": "0x199652704d6411e281aedd809ea8ac54a3060452140fe9d568e3db6842493c38",
  "number": 80417,
  "timestamp": 1439485241,
  "nonce": "0x69e1706f42c17e82",
  "difficulty": 2399180863260,
  "gasLimit": {
    "_hex": "0x2fefd8"
  },
  "gasUsed": {
    "_hex": "0x546c"
  },
  "miner": "0xC603Ab5ef41fC61AA8b76bEddb09e3Cfcbb174BD",
  "extraData": "0x476574682f76312e302e312f77696e646f77732f676f312e342e32",
  "transactions": [
    {
      "hash": "0xd3c9e549c8fc347183ba76fa6cfe99998e68961165fd666390869349728bc103",
      "blockHash": "0xc3efdeb952b0a3ab257929978b6405214f238510fc40fa72341a0fdae82d7726",
      "blockNumber": 80417,
      "transactionIndex": 0,
      "confirmations": null,
      "from": "0x671c5D0ffeB3993FD3Ce1D4a70A04eD949B3a250",
      "gasPrice": {
        "_hex": "0x103d2065e22"
      },
      "gasLimit": {
        "_hex": "0x55f0"
      },
      "to": "0x2910543Af39abA0Cd09dBb2D50200b3E800A63D2",
      "value": {
        "_hex": "0x2386f26fc10000"
      },
      "nonce": 6,
      "data": "0x454e42363131514538",
      "r": "0xc71dd9cc8481f310687f8ec2484d5db95b3aaf0b80f445bc8acf5310607993b6",
      "s": "0x3aaac00ebdcc26e7b920a9eab1fddab7937f1c88799210bec4000d3a2282b2a6",
      "v": 28,
      "creates": null,
      "raw": "0xf87506860103d2065e228255f0942910543af39aba0cd09dbb2d50200b3e800a63d2872386f26fc1000089454e423631315145381ca0c71dd9cc8481f310687f8ec2484d5db95b3aaf0b80f445bc8acf5310607993b6a03aaac00ebdcc26e7b920a9eab1fddab7937f1c88799210bec4000d3a2282b2a6",
      "networkId": 0,
      "chainId": 0
    }
  ]
}