{
  "hash": "0xd9e4715c9ca77ef3599a234b36504fed12dabb4a2c4ae2918e0c04a716e2092a",
  "parentHash": "0x8e5427c93b658e5ce6fce277c4b30d6faeda9d82efc4b78f2638cba581850c33",
  "number": 69270,
  "timestamp": 1439300962,
  "nonce": "0x1b4e324f0e5728d8",
  "difficulty": 2067941861087,
  "gasLimit": {
    "_hex": "0x2fefd8"
  },
  "gasUsed": {
    "_hex": "0x1ec30"
  },
  "miner": "0xe6A7a1d47ff21B6321162AEA7C6CB457D5476Bca",
  "extraData": "0x476574682f76312e302e312d38326566323666362f6c696e75782f676f312e34",
  "transactions": [
    {
      "hash": "0x6525614e5e509a31b64b240b53871e54bae0bde03d7b9e42dd54e6b66210249e",
      "blockHash": "0xd9e4715c9ca77ef3599a234b36504fed12dabb4a2c4ae2918e0c04a716e2092a",
      "blockNumber": 69270,
      "transactionIndex": 0,
      "confirmations": null,
      "from": "0xe6A7a1d47ff21B6321162AEA7C6CB457D5476Bca",
      "gasPrice": {
        "_hex": "0xd73573dd9"
      },
      "gasLimit": {
        "_hex": "0x55f0"
      },
      "to": "0x3F587446d527E3a66c695E46D735838500fA92fe",
      "value": {
        "_hex": "0x24e9438c31bdf6a0"
      },
      "nonce": 584,
      "data": "0x",
      "r": "0x46e98115a19be6183a9d072911b6235190807db890becf84c4db66dc7b584b27",
      "s": "0x4ceffddb579571482ba3519a9cf3ddcd6c66d65aaada4dac5cd60eb1559f7a8e",
      "v": 27,
      "creates": null,
      "raw": "0xf86e820248850d73573dd98255f0943f587446d527e3a66c695e46d735838500fa92fe8824e9438c31bdf6a0801ba046e98115a19be6183a9d072911b6235190807db890becf84c4db66dc7b584b27a04ceffddb579571482ba3519a9cf3ddcd6c66d65aaada4dac5cd60eb1559f7a8e",
      "networkId": 0,
      "chainId": 0
    },
    {
      "hash": "0xef18cac876d2b22a7d36cf5f1b45f7ac4237f52b141fd582cf83ad0b95b897ef",
      "blockHash": "0xd9e4715c9ca77ef3599a234b36504fed12dabb4a2c4ae2918e0c04a716e2092a",
      "blockNumber": 69270,
      "transactionIndex": 1,
      "confirmations": null,
      "from": "0xe6A7a1d47ff21B6321162AEA7C6CB457D5476Bca",
      "gasPrice": {
        "_hex": "0xd73573dd9"
      },
      "gasLimit": {
        "_hex": "0x55f0"
      },
      "to": "0xa70a9a7040d542C632D8e0bE7c5513A8a5Bbc752",
      "value": {
        "_hex": "0x2542cabfce7021d0"
      },
      "nonce": 585,
      "data": "0x",
      "r": "0x72cedfd2f2456331e3de16329deb22e342be27902ea30e3ad94d3f381e4d5326",
      "s": "0x4226a52b27eda45cba514d08e3572abc1bf870c8cb991a9371c44afd1c93e465",
      "v": 28,
      "creates": null,
      "raw": "0xf86e820249850d73573dd98255f094a70a9a7040d542c632d8e0be7c5513a8a5bbc752882542cabfce7021d0801ca072cedfd2f2456331e3de16329deb22e342be27902ea30e3ad94d3f381e4d5326a04226a52b27eda45cba514d08e3572abc1bf870c8cb991a9371c44afd1c93e465",
      "networkId": 0,
      "chainId": 0
    },
    {
      "hash": "0xe8d889b32a42045f8610f4810117544d435234e3d740804ea27bcf6328baf6eb",
      "blockHash": "0xd9e4715c9ca77ef3599a234b36504fed12dabb4a2c4ae2918e0c04a716e2092a",
      "blockNumber": 69270,
      "transactionIndex": 2,
      "confirmations": null,
      "from": "0xe6A7a1d47ff21B6321162AEA7C6CB457D5476Bca",
      "gasPrice": {
        "_hex": "0xd73573dd9"
      },
      "gasLimit": {
        "_hex": "0x55f0"
      },
      "to": "0x6d37bd781411ccDd33792481E2C9CE5b62D3a5B8",
      "value": {
        "_hex": "0x25b7644c2292c1d8"
      },
      "nonce": 586,
      "data": "0x",
      "r": "0x05375baa5d8c22c0abbfafb1efe8990395a5782757b9c1e43d04abacf11de681",
      "s": "0x6a332a20394c53558f6be253af82441d4d4367ba64f9fbbdb6f27a51053ce745",
      "v": 27,
      "creates": null,
      "raw": "0xf86e82024a850d73573dd98255f0946d37bd781411ccdd33792481e2c9ce5b62d3a5b88825b7644c2292c1d8801ba005375baa5d8c22c0abbfafb1efe8990395a5782757b9c1e43d04abacf11de681a06a332a20394c53558f6be253af82441d4d4367ba64f9fbbdb6f27a51053ce745",
      "networkId": 0,
      "chainId": 0
    },
    {
      "hash": "0x248418a40d62bbbfc645a1167d89e70f8272f2385c2adf210eef5294cae6a643",
      "blockHash": "0xd9e4715c9ca77ef3599a234b36504fed12dabb4a2c4ae2918e0c04a716e2092a",
      "blockNumber": 69270,
      "transactionIndex": 3,
      "confirmations": null,
      "from": "0xe6A7a1d47ff21B6321162AEA7C6CB457D5476Bca",
      "gasPrice": {
        "_hex": "0xd73573dd9"
      },
      "gasLimit": {
        "_hex": "0x55f0"
      },
      "to": "0x027698B61229ECCa19311e977ADE3C2923D4e414",
      "value": {
        "_hex": "0x2610dd3000c452b8"
      },
      "nonce": 587,
      "data": "0x",
      "r": "0x11f6ad4b373ced1903384c0a1f47d5d7da1a4fb7c085b222985dc7a3e724506c",
      "s": "0x0dbee644b6e0c9f91378ecc0ad6e0cb67a277a39f1a0e267c481d9742c23af98",
      "v": 28,
      "creates": null,
      "raw": "0xf86e82024b850d73573dd98255f094027698b61229ecca19311e977ade3c2923d4e414882610dd3000c452b8801ca011f6ad4b373ced1903384c0a1f47d5d7da1a4fb7c085b222985dc7a3e724506ca00dbee644b6e0c9f91378ecc0ad6e0cb67a277a39f1a0e267c481d9742c23af98",
      "networkId": 0,
      "chainId": 0
    },
    {
      "hash": "0x5c95fdec7f2dc745fc71ecf5c5da69ea402a5237f75ed94d561951988d4c5f6e",
      "blockHash": "0xd9e4715c9ca77ef3599a234b36504fed12dabb4a2c4ae2918e0c04a716e2092a",
      "blockNumber": 69270,
      "transactionIndex": 4,
      "confirmations": null,
      "from": "0xe6A7a1d47ff21B6321162AEA7C6CB457D5476Bca",
      "gasPrice": {
        "_hex": "0xd73573dd9"
      },
      "gasLimit": {
        "_hex": "0x55f0"
      },
      "to": "0x8f9822e187F830d1100DF89B4b088c6Ce5F10d7d",
      "value": {
        "_hex": "0x26156fa6b4f7df18"
      },
      "nonce": 588,
      "data": "0x",
      "r": "0xc404943f047cf96412b6558eb3fd144704b29b7868727d77799148cd2c7084aa",
      "s": "0x1213478c8a1580583a0a8700cee481b29939dfe55d86bd1be8cc86648ac174ef",
      "v": 27,
      "creates": null,
      "raw": "0xf86e82024c850d73573dd98255f0948f9822e187f830d1100df89b4b088c6ce5f10d7d8826156fa6b4f7df18801ba0c404943f047cf96412b6558eb3fd144704b29b7868727d77799148cd2c7084aaa01213478c8a1580583a0a8700cee481b29939dfe55d86bd1be8cc86648ac174ef",
      "networkId": 0,
      "chainId": 0
    },
    {
      "hash": "0x5f349a1831c7c73540d388a3cf0d80002669181ffd0576fc65cedf05e76b3aa6",
      "blockHash": "0xd9e4715c9ca77ef3599a234b36504fed12dabb4a2c4ae2918e0c04a716e2092a",
      "blockNumber": 69270,
      "transactionIndex": 5,
      "confirmations": null,
      "from": "0xe6A7a1d47ff21B6321162AEA7C6CB457D5476Bca",
      "gasPrice": {
        "_hex": "0xd73573dd9"
      },
      "gasLimit": {
        "_hex": "0x55f0"
      },
      "to": "0x03B35D960c861Fe987C50380d76db9D6Ae1fa510",
      "value": {
        "_hex": "0x27794d2701be8000"
      },
      "nonce": 589,
      "data": "0x",
      "r": "0x748ccd2d5285bb73c63dcc0cd2ee149d1eef07ee3d1af733f68513689873e0f0",
      "s": "0x534f8d0a20dc0816c5b4bd83b4f18cdac0b19d35584efc210a9556cb1475b84a",
      "v": 27,
      "creates": null,
      "raw": "0xf86e82024d850d73573dd98255f09403b35d960c861fe987c50380d76db9d6ae1fa5108827794d2701be8000801ba0748ccd2d5285bb73c63dcc0cd2ee149d1eef07ee3d1af733f68513689873e0f0a0534f8d0a20dc0816c5b4bd83b4f18cdac0b19d35584efc210a9556cb1475b84a",
      "networkId": 0,
      "chainId": 0
    }
  ]
}