{
  "hash": "0x48d6cb3fcc3ad50b11d8d109c4eb9cbf55a4cc5e2c8a48c34cd009e038ca4d8c",
  "parentHash": "0x7506cacf74fc74485dcad0f1bd969f5cafb2e8eea8986d408ecf11536f9739db",
  "number": 83859,
  "timestamp": 1439541898,
  "nonce": "0x200359aca2f28129",
  "difficulty": 2450277860062,
  "gasLimit": {
    "_hex": "0x2fefd8"
  },
  "gasUsed": {
    "_hex": "0x5208"
  },
  "miner": "0x9746c7e1ef2bd21FF3997fa467593a89cb852BD0",
  "extraData": "0x476574682f76312e302e312f77696e646f77732f676f312e342e32",
  "transactions": [
    {
      "hash": "0xa9473e4e3da6625879e1ed21ec7a7b758ca91d7531f3ab26175674885fc71f12",
      "blockHash": "0x48d6cb3fcc3ad50b11d8d109c4eb9cbf55a4cc5e2c8a48c34cd009e038ca4d8c",
      "blockNumber": 83859,
      "transactionIndex": 0,
      "confirmations": null,
      "from": "0xcd0Af3474e22F069EC3407870DD770443d5b12B0",
      "gasPrice": {
        "_hex": "0xcb1344c2d"
      },
      "gasLimit": {
        "_hex": "0x7a120"
      },
      "to": "0x0bCa038BF4ACAd3Cbf73463EccC7717dDCDc3D83",
      "value": {
        "_hex": "0x56bc75e2d63100000"
      },
      "nonce": 4,
      "data": "0x",
      "r": "0x14777f9d05e158fd4e7045d3eee0a884faeab57a73d0f5f98b176208e2e25c00",
      "s": "0x04ad35d6ac4e8c419efb03941c32e93c4d80746adfeaede2b9bcc864d1e26782",
      "v": 28,
      "creates": null,
      "raw": "0xf86e04850cb1344c2d8307a120940bca038bf4acad3cbf73463eccc7717ddcdc3d8389056bc75e2d63100000801ca014777f9d05e158fd4e7045d3eee0a884faeab57a73d0f5f98b176208e2e25c00a004ad35d6ac4e8c419efb03941c32e93c4d80746adfeaede2b9bcc864d1e26782",
      "networkId": 0,
      "chainId": 0
    }
  ]
}