{
  "hash": "0x304e6bcdd9f96f449a257e131c1cf84f2f7270192e3b3a002ee4b2e3033cb10c",
  "parentHash": "0x706cea23ade41bbf4b5fab0105d73b6c9b065b26ef9e6ec405131136dcb58407",
  "number": 90291,
  "timestamp": 1439637735,
  "nonce": "0x7412341a650b2bf3",
  "difficulty": 3304348695204,
  "gasLimit": {
    "_hex": "0x2fefd8"
  },
  "gasUsed": {
    "_hex": "0xa410"
  },
  "miner": "0x47ff6576639c2e94762eA5443978D7681C0E78DC",
  "extraData": "0x476574682f76312e302e312f6c696e75782f676f312e342e32",
  "transactions": [
    {
      "hash": "0xd61a12b09c3143e28e68450ef0889a280e1d2eddd07c51795c677939bafbc0e3",
      "blockHash": "0x304e6bcdd9f96f449a257e131c1cf84f2f7270192e3b3a002ee4b2e3033cb10c",
      "blockNumber": 90291,
      "transactionIndex": 0,
      "confirmations": null,
      "from": "0xa6BDc31c431B8F97848c9D60cbbe9660dc450eB7",
      "gasPrice": {
        "_hex": "0xd722a5c77"
      },
      "gasLimit": {
        "_hex": "0x5208"
      },
      "to": "0x32Be343B94f860124dC4fEe278FDCBD38C102D88",
      "value": {
        "_hex": "0x455f4284e8007400"
      },
      "nonce": 87,
      "data": "0x",
      "r": "0x36f9e2fdfc6b113d69a40dc3d33048ebd750088ba221e0206b437523e33fe2c6",
      "s": "0x7e5eddd9cefa4d07be9581165979f5dcf279696359852f76f578611ccd5ac9d1",
      "v": 28,
      "creates": null,
      "raw": "0xf86c57850d722a5c778252089432be343b94f860124dc4fee278fdcbd38c102d8888455f4284e8007400801ca036f9e2fdfc6b113d69a40dc3d33048ebd750088ba221e0206b437523e33fe2c6a07e5eddd9cefa4d07be9581165979f5dcf279696359852f76f578611ccd5ac9d1",
      "networkId": 0,
      "chainId": 0
    },
    {
      "hash": "0x7de26a187c5d9ac8c09bab60dcb7c46c1e6a5c45097fa1da2c6f4be75aaefa82",
      "blockHash": "0x304e6bcdd9f96f449a257e131c1cf84f2f7270192e3b3a002ee4b2e3033cb10c",
      "blockNumber": 90291,
      "transactionIndex": 1,
      "confirmations": null,
      "from": "0x79d5794171E11dd5C2f0e26E1C187319db2FE6f7",
      "gasPrice": {
        "_hex": "0xd722a5c77"
      },
      "gasLimit": {
        "_hex": "0x5208"
      },
      "to": "0x32Be343B94f860124dC4fEe278FDCBD38C102D88",
      "value": {
        "_hex": "0x456ba26cf6738000"
      },
      "nonce": 29,
      "data": "0x",
      "r": "0x35c862e68936c3c78ed2cfd53c8d0cfa4a20cdc0d4a3e1d718999184020663d3",
      "s": "0x2396f2a8a1c786416bca715e55ab1491c19308ec5bb392349d5ec83df91329d9",
      "v": 27,
      "creates": null,
      "raw": "0xf86c1d850d722a5c778252089432be343b94f860124dc4fee278fdcbd38c102d8888456ba26cf6738000801ba035c862e68936c3c78ed2cfd53c8d0cfa4a20cdc0d4a3e1d718999184020663d3a02396f2a8a1c786416bca715e55ab1491c19308ec5bb392349d5ec83df91329d9",
      "networkId": 0,
      "chainId": 0
    }
  ]
}