{
  "hash": "0xfb5171212ad7c7ec6c7eff995d73de75b4eac95c8d66139cae6931485ede3e4e",
  "parentHash": "0x4659326cd684d3919d9f26bd8862eee6c3f1f3fa04cf77ed34375a9143628edc",
  "number": 66361,
  "timestamp": 1439253262,
  "nonce": "0x684bcf491526435a",
  "difficulty": 1936694489712,
  "gasLimit": {
    "_hex": "0x2fefd8"
  },
  "gasUsed": {
    "_hex": "0x5208"
  },
  "miner": "0x9746c7e1ef2bd21FF3997fa467593a89cb852BD0",
  "extraData": "0x476574682f76312e302e312f77696e646f77732f676f312e342e32",
  "transactions": [
    {
      "hash": "0x1da4022bc7f6374ef567847900832fea4c4ed656b667222ea5a3d8b71961a3da",
      "blockHash": "0xfb5171212ad7c7ec6c7eff995d73de75b4eac95c8d66139cae6931485ede3e4e",
      "blockNumber": 66361,
      "transactionIndex": 0,
      "confirmations": null,
      "from": "0x2910543Af39abA0Cd09dBb2D50200b3E800A63D2",
      "gasPrice": {
        "_hex": "0xdb1043674"
      },
      "gasLimit": {
        "_hex": "0x5208"
      },
      "to": "0xc8ebccC5F5689Fa8659d83713341e5aD19349448",
      "value": {
        "_hex": "0x67e4d3b3d99a940000"
      },
      "nonce": 201,
      "data": "0x",
      "r": "0xc31596b73df99b3ac1a1cc5befe96fae3a03fa36d2f8a5c87933ed825f6e0803",
      "s": "0x7abad26f83cfda41083b6f9be66c1b7998943dd25e4e0960b6d311e3576a3ec9",
      "v": 27,
      "creates": null,
      "raw": "0xf86e81c9850db104367482520894c8ebccc5f5689fa8659d83713341e5ad193494488967e4d3b3d99a940000801ba0c31596b73df99b3ac1a1cc5befe96fae3a03fa36d2f8a5c87933ed825f6e0803a07abad26f83cfda41083b6f9be66c1b7998943dd25e4e0960b6d311e3576a3ec9",
      "networkId": 0,
      "chainId": 0
    }
  ]
}