{
  "hash": "0x6ab52112e99aa866d09f5fd45d4dba52fbc404e0996c514007554f7b6c3c406e",
  "parentHash": "0x01d1ea154820ae0f893fb6b997e91176482ca2016f16260ea4fde0a8f4ce034a",
  "number": 64031,
  "timestamp": 1439214159,
  "nonce": "0x32c0fa94de116659",
  "difficulty": 1852134073849,
  "gasLimit": {
    "_hex": "0x2fefd8"
  },
  "gasUsed": {
    "_hex": "0x546c"
  },
  "miner": "0x88D74a59454F6cF3B51ef6b9136AFb6b9D405A88",
  "extraData": "0x476574682f76312e302e312d37666266393930632f6c696e75782f676f312e34",
  "transactions": [
    {
      "hash": "0x771a7f3898c0ce95d03dde154e69c13921f1c12d8a0a84babc4538a1df36053c",
      "blockHash": "0x6ab52112e99aa866d09f5fd45d4dba52fbc404e0996c514007554f7b6c3c406e",
      "blockNumber": 64031,
      "transactionIndex": 0,
      "confirmations": null,
      "from": "0x0B5e2011eBc25a007f21362960498AFb8Af280fb",
      "gasPrice": {
        "_hex": "0xd7d40ace3"
      },
      "gasLimit": {
        "_hex": "0x55f0"
      },
      "to": "0x2910543Af39abA0Cd09dBb2D50200b3E800A63D2",
      "value": {
        "_hex": "0x2086ac351052600000"
      },
      "nonce": 3,
      "data": "0x454e58395059555538",
      "r": "0x0f5bf8b555dd96743717d89af32a0a8f6e559a4ddf721c886b277c2f1647a31c",
      "s": "0x5486192d5ae23d2f7da183774a5d7f1fa09e00a4ce3abdc420b1af5b9d69ec19",
      "v": 27,
      "creates": null,
      "raw": "0xf87603850d7d40ace38255f0942910543af39aba0cd09dbb2d50200b3e800a63d2892086ac35105260000089454e583950595555381ba00f5bf8b555dd96743717d89af32a0a8f6e559a4ddf721c886b277c2f1647a31ca05486192d5ae23d2f7da183774a5d7f1fa09e00a4ce3abdc420b1af5b9d69ec19",
      "networkId": 0,
      "chainId": 0
    }
  ]
}