{
  "hash": "0x84333f62753106bbd05f78278d342f325936d111498a2a7fd1921105131e7c4f",
  "parentHash": "0x48874d6cf95e0e47aaf1765294de036faa7be59ea3f93322a5216c5bc569210b",
  "number": 68355,
  "timestamp": 1439286520,
  "nonce": "0x17e9ff5e2951429e",
  "difficulty": 2015332130554,
  "gasLimit": {
    "_hex": "0x2fefd8"
  },
  "gasUsed": {
    "_hex": "0x5208"
  },
  "miner": "0x47ff6576639c2e94762eA5443978D7681C0E78DC",
  "extraData": "0x476574682f76312e302e312f6c696e75782f676f312e342e32",
  "transactions": [
    {
      "hash": "0x0ca9b3ea1db763663c49d42c0cc3ac77894872f54453d834f38583b269a8b77c",
      "blockHash": "0x84333f62753106bbd05f78278d342f325936d111498a2a7fd1921105131e7c4f",
      "blockNumber": 68355,
      "transactionIndex": 0,
      "confirmations": null,
      "from": "0x6747f922385c9a6F9cfDf095F34345257DD597bE",
      "gasPrice": {
        "_hex": "0xba43b7400"
      },
      "gasLimit": {
        "_hex": "0x5208"
      },
      "to": "0xeC2A4955EB83DDB76F5569FD0EC70A8cfD2ba2c2",
      "value": {
        "_hex": "0x1fcbfa42bd6000"
      },
      "nonce": 58,
      "data": "0x",
      "r": "0xe4f8f84461278ae60fc72194d94b67e323de379ce34e6f0f491bd890a3bf2123",
      "s": "0x435961b2f4dc793b7df54b3d87a6533ae6103a8f0023eb6578ed6c451181df92",
      "v": 27,
      "creates": null,
      "raw": "0xf86b3a850ba43b740082520894ec2a4955eb83ddb76f5569fd0ec70a8cfd2ba2c2871fcbfa42bd6000801ba0e4f8f84461278ae60fc72194d94b67e323de379ce34e6f0f491bd890a3bf2123a0435961b2f4dc793b7df54b3d87a6533ae6103a8f0023eb6578ed6c451181df92",
      "networkId": 0,
      "chainId": 0
    }
  ]
}