{
  "hash": "0x116ad91c2c15915a07ab7a639a0d7be146490f78c161fb005aa18d81edb3a9a8",
  "parentHash": "0x7d8745a6cf19bb835632d4f1afb8e62bb2e02bd1a42b41f18cfb70afc91134c8",
  "number": 81236,
  "timestamp": 1439498290,
  "nonce": "0xc202cb77d1d6d6f4",
  "difficulty": 2454637175403,
  "gasLimit": {
    "_hex": "0x2fefd8"
  },
  "gasUsed": {
    "_hex": "0x1ec30"
  },
  "miner": "0x785ffdDd5cE55c6DF963f345e68d3F2024E5Acb1",
  "extraData": "0x",
  "transactions": [
    {
      "hash": "0x9f14a64f9b7062639746131f15ec7c2134e1b4fab77db792fb314e5d6a3cdb24",
      "blockHash": "0x116ad91c2c15915a07ab7a639a0d7be146490f78c161fb005aa18d81edb3a9a8",
      "blockNumber": 81236,
      "transactionIndex": 0,
      "confirmations": null,
      "from": "0x32Be343B94f860124dC4fEe278FDCBD38C102D88",
      "gasPrice": {
        "_hex": "0xd3c3985af"
      },
      "gasLimit": {
        "_hex": "0x5208"
      },
      "to": "0x2910543Af39abA0Cd09dBb2D50200b3E800A63D2",
      "value": {
        "_hex": "0x393afed9c0603800"
      },
      "nonce": 567,
      "data": "0x",
      "r": "0x8c902989f5e8adcbfef0f8c407d588dc566f41253d3dde1e74842afd02859748",
      "s": "0x00d6bf19c3fdeb3000d41f21bcca1aeb1f21015d0d220c8c6565ab71c1ca90c1",
      "v": 27,
      "creates": null,
      "raw": "0xf86d820237850d3c3985af825208942910543af39aba0cd09dbb2d50200b3e800a63d288393afed9c0603800801ba08c902989f5e8adcbfef0f8c407d588dc566f41253d3dde1e74842afd028597489fd6bf19c3fdeb3000d41f21bcca1aeb1f21015d0d220c8c6565ab71c1ca90c1",
      "networkId": 0,
      "chainId": 0
    },
    {
      "hash": "0x778e6bf7a284de437810e99fa87604c1b0e7c9de2c1f34ace6433035b84eb7bb",
      "blockHash": "0x116ad91c2c15915a07ab7a639a0d7be146490f78c161fb005aa18d81edb3a9a8",
      "blockNumber": 81236,
      "transactionIndex": 1,
      "confirmations": null,
      "from": "0x32Be343B94f860124dC4fEe278FDCBD38C102D88",
      "gasPrice": {
        "_hex": "0xd3c3985af"
      },
      "gasLimit": {
        "_hex": "0x5208"
      },
      "to": "0xfC4D54430031A3948a7E07B6fE6F2e814d8412eb",
      "value": {
        "_hex": "0xdc8fc6ea6309c00"
      },
      "nonce": 568,
      "data": "0x",
      "r": "0x0a71f1a5d484384c547bf31d5a97be8a1537557de7803291aec257af6b5b7a11",
      "s": "0x06669347882cb4229b3b9262b6b98147ff7bca7910e4effe21678d12b276cd8f",
      "v": 27,
      "creates": null,
      "raw": "0xf86e820238850d3c3985af82520894fc4d54430031a3948a7e07b6fe6f2e814d8412eb880dc8fc6ea6309c00801ba00a71f1a5d484384c547bf31d5a97be8a1537557de7803291aec257af6b5b7a11a006669347882cb4229b3b9262b6b98147ff7bca7910e4effe21678d12b276cd8f",
      "networkId": 0,
      "chainId": 0
    },
    {
      "hash": "0xe1f0e566b1743369f8f9f7118b0215ff26eb506963f2968906e790c7cf50de54",
      "blockHash": "0x116ad91c2c15915a07ab7a639a0d7be146490f78c161fb005aa18d81edb3a9a8",
      "blockNumber": 81236,
      "transactionIndex": 2,
      "confirmations": null,
      "from": "0x32Be343B94f860124dC4fEe278FDCBD38C102D88",
      "gasPrice": {
        "_hex": "0xd3c3985af"
      },
      "gasLimit": {
        "_hex": "0x5208"
      },
      "to": "0x03A2F4470228455c681C2D4772EBF4092Ee2624f",
      "value": {
        "_hex": "0x189f71ab975c0000"
      },
      "nonce": 569,
      "data": "0x",
      "r": "0xe1954b2fd1c75dd23ceb8eb0afe3fe1e0ac3bd8ddbf08cb70e41b02ca073618a",
      "s": "0x0557d0a234fffaa41ef593190919e996791d53d31e9ee64e74196e2ed7fe4cb0",
      "v": 27,
      "creates": null,
      "raw": "0xf86e820239850d3c3985af8252089403a2f4470228455c681c2d4772ebf4092ee2624f88189f71ab975c0000801ba0e1954b2fd1c75dd23ceb8eb0afe3fe1e0ac3bd8ddbf08cb70e41b02ca073618aa00557d0a234fffaa41ef593190919e996791d53d31e9ee64e74196e2ed7fe4cb0",
      "networkId": 0,
      "chainId": 0
    },
    {
      "hash": "0x44fc38b50df3f22a5c96c4fab5e6b4f286348af890ba364fee58809913bea7e4",
      "blockHash": "0x116ad91c2c15915a07ab7a639a0d7be146490f78c161fb005aa18d81edb3a9a8",
      "blockNumber": 81236,
      "transactionIndex": 3,
      "confirmations": null,
      "from": "0x32Be343B94f860124dC4fEe278FDCBD38C102D88",
      "gasPrice": {
        "_hex": "0xd3c3985af"
      },
      "gasLimit": {
        "_hex": "0x5208"
      },
      "to": "0xa8e47931Fb32838525Ba4637253f8Ecd9525f842",
      "value": {
        "_hex": "0xdbd2fc137a30000"
      },
      "nonce": 570,
      "data": "0x",
      "r": "0xf3c2d5bb3df9ea0d80388a608796f4f34adc2ce510dcc54b3710780b5bdcbba5",
      "s": "0x0ce85c021afd044717c1d5c4e93b093bcbf9bd4a83f8d967e95a1f475fee938d",
      "v": 28,
      "creates": null,
      "raw": "0xf86e82023a850d3c3985af82520894a8e47931fb32838525ba4637253f8ecd9525f842880dbd2fc137a30000801ca0f3c2d5bb3df9ea0d80388a608796f4f34adc2ce510dcc54b3710780b5bdcbba5a00ce85c021afd044717c1d5c4e93b093bcbf9bd4a83f8d967e95a1f475fee938d",
      "networkId": 0,
      "chainId": 0
    },
    {
      "hash": "0x68c8191161fb03a85c991224365ebf8d693d86b4bbbc52e3b09853107b107663",
      "blockHash": "0x116ad91c2c15915a07ab7a639a0d7be146490f78c161fb005aa18d81edb3a9a8",
      "blockNumber": 81236,
      "transactionIndex": 4,
      "confirmations": null,
      "from": "0x32Be343B94f860124dC4fEe278FDCBD38C102D88",
      "gasPrice": {
        "_hex": "0xd3c3985af"
      },
      "gasLimit": {
        "_hex": "0x5208"
      },
      "to": "0x120A270bbC009644e35F0bB6ab13f95b8199c4ad",
      "value": {
        "_hex": "0x6c6b935b8bbd400000"
      },
      "nonce": 571,
      "data": "0x",
      "r": "0x874be1dd851b4a374f9ba13534be1f2bcabcaf96913c723ab8d839fc24c7534b",
      "s": "0x0e61ba134e087d5c4d996ee9b32504c9798e74768703de4005f30cc60cd9f21d",
      "v": 27,
      "creates": null,
      "raw": "0xf86f82023b850d3c3985af82520894120a270bbc009644e35f0bb6ab13f95b8199c4ad896c6b935b8bbd400000801ba0874be1dd851b4a374f9ba13534be1f2bcabcaf96913c723ab8d839fc24c7534ba00e61ba134e087d5c4d996ee9b32504c9798e74768703de4005f30cc60cd9f21d",
      "networkId": 0,
      "chainId": 0
    },
    {
      "hash": "0x21d2ca41e6f08b49fc9a939b149ac69b78c14d13ec6f2a83c81513e599ad69ba",
      "blockHash": "0x116ad91c2c15915a07ab7a639a0d7be146490f78c161fb005aa18d81edb3a9a8",
      "blockNumber": 81236,
      "transactionIndex": 5,
      "confirmations": null,
      "from": "0x32Be343B94f860124dC4fEe278FDCBD38C102D88",
      "gasPrice": {
        "_hex": "0xd3c3985af"
      },
      "gasLimit": {
        "_hex": "0x5208"
      },
      "to": "0xA0eadCdC3d2cc51DaA7Ef7e65370D2d46Ca9e6D9",
      "value": {
        "_hex": "0x410b1ffaf9a8b0000"
      },
      "nonce": 572,
      "data": "0x",
      "r": "0xa5c8f3a008c73e8353467d04b44a7d6dde6406a90751ec5d4dc778047b5d434e",
      "s": "0x2edb1632e3e924d5575f24823a7ba2e44d45eb8e3c418d302f58d929671d9e4d",
      "v": 28,
      "creates": null,
      "raw": "0xf86f82023c850d3c3985af82520894a0eadcdc3d2cc51daa7ef7e65370d2d46ca9e6d9890410b1ffaf9a8b0000801ca0a5c8f3a008c73e8353467d04b44a7d6dde6406a90751ec5d4dc778047b5d434ea02edb1632e3e924d5575f24823a7ba2e44d45eb8e3c418d302f58d929671d9e4d",
      "networkId": 0,
      "chainId": 0
    }
  ]
}