{
  "hash": "0x912b446e7713540b2ad189152365c0ce9711bf01756de82ca2283e3843944d59",
  "parentHash": "0x329e7c61ed26c6a4adc4d8672feaa7cd34be6e55b970290dc1d026d591866395",
  "number": 69007,
  "timestamp": 1439297029,
  "nonce": "0x74e0afb3e41108c1",
  "difficulty": 2036939578410,
  "gasLimit": {
    "_hex": "0x2fefd8"
  },
  "gasUsed": {
    "_hex": "0x42a68"
  },
  "miner": "0x70C6b45fe0A5116E97B112B806A76E2F51E24413",
  "extraData": "0x476574682f76312e302e312f77696e646f77732f676f312e342e32",
  "transactions": [
    {
      "hash": "0x4d3c7b37bae3a2fae7396c7630751e64f6de07015696296688d6af1b41fabe8d",
      "blockHash": "0x912b446e7713540b2ad189152365c0ce9711bf01756de82ca2283e3843944d59",
      "blockNumber": 69007,
      "transactionIndex": 0,
      "confirmations": null,
      "from": "0xB44cae5c2c8D9883Ba28276f7BA25611f666E27a",
      "gasPrice": {
        "_hex": "0xba43b7400"
      },
      "gasLimit": {
        "_hex": "0x5208"
      },
      "to": "0x54fCd4e22f37487F6e0457FCED91B1c40D6BA9Af",
      "value": {
        "_hex": "0x17adb9b0233f000"
      },
      "nonce": 1,
      "data": "0x",
      "r": "0x341a9995be476b6daf5d25ce842f9a924f3c5d1e6addf49449b0838132bf9cf6",
      "s": "0x32f571768917e3a5f166878884b9147fe42f4efd9caaab53b72b4ff7c5b4db4d",
      "v": 28,
      "creates": null,
      "raw": "0xf86c01850ba43b74008252089454fcd4e22f37487f6e0457fced91b1c40d6ba9af88017adb9b0233f000801ca0341a9995be476b6daf5d25ce842f9a924f3c5d1e6addf49449b0838132bf9cf6a032f571768917e3a5f166878884b9147fe42f4efd9caaab53b72b4ff7c5b4db4d",
      "networkId": 0,
      "chainId": 0
    },
    {
      "hash": "0x643fe2eb9e151198231f6e987e440e813d8b5f20c4f63a5ede8de2da4131d70d",
      "blockHash": "0x912b446e7713540b2ad189152365c0ce9711bf01756de82ca2283e3843944d59",
      "blockNumber": 69007,
      "transactionIndex": 1,
      "confirmations": null,
      "from": "0x8196E0932106E3eAB15A3B71514d47639101dA37",
      "gasPrice": {
        "_hex": "0xba43b7400"
      },
      "gasLimit": {
        "_hex": "0x5208"
      },
      "to": "0x6AC7D1F13B393Bf1ddcFEB93658c8D03DFeE110f",
      "value": {
        "_hex": "0x17adb9b0233f000"
      },
      "nonce": 1,
      "data": "0x",
      "r": "0x270902347ffbab2d36e658723222d3d223bb1973ebc86175ec4f63ff832c13c5",
      "s": "0x6cef00cf0d093ec7fcce04a6918b27aa07791d2963e07170cc3c02a368e0451b",
      "v": 28,
      "creates": null,
      "raw": "0xf86c01850ba43b7400825208946ac7d1f13b393bf1ddcfeb93658c8d03dfee110f88017adb9b0233f000801ca0270902347ffbab2d36e658723222d3d223bb1973ebc86175ec4f63ff832c13c5a06cef00cf0d093ec7fcce04a6918b27aa07791d2963e07170cc3c02a368e0451b",
      "networkId": 0,
      "chainId": 0
    },
    {
      "hash": "0xc74287d086f6e83dfb7d6ea245f3716745afbba01a2d6d8930836e86b1509459",
      "blockHash": "0x912b446e7713540b2ad189152365c0ce9711bf01756de82ca2283e3843944d59",
      "blockNumber": 69007,
      "transactionIndex": 2,
      "confirmations": null,
      "from": "0xBA2431BBC96D0436622A2bC2c9dA858669e49e06",
      "gasPrice": {
        "_hex": "0xba43b7400"
      },
      "gasLimit": {
        "_hex": "0x5208"
      },
      "to": "0x77fA4a488BBC6b00ca2Ec233c2952745F8210086",
      "value": {
        "_hex": "0x17adb9b0233f000"
      },
      "nonce": 1,
      "data": "0x",
      "r": "0xa0a1a4f4887248a1d6bb2d9dcdc6fa2ed35319e08bc95be9eabf819349a59163",
      "s": "0x344f71020921614218ce7a1d9f76f4ed2bf777d43c5c0af4860f5ca867b4540d",
      "v": 27,
      "creates": null,
      "raw": "0xf86c01850ba43b74008252089477fa4a488bbc6b00ca2ec233c2952745f821008688017adb9b0233f000801ba0a0a1a4f4887248a1d6bb2d9dcdc6fa2ed35319e08bc95be9eabf819349a59163a0344f71020921614218ce7a1d9f76f4ed2bf777d43c5c0af4860f5ca867b4540d",
      "networkId": 0,
      "chainId": 0
    },
    {
      "hash": "0x19cca41b390ba73f79b3ebf4c29a4010f0451bf21c09409d10be807a693d6517",
      "blockHash": "0x912b446e7713540b2ad189152365c0ce9711bf01756de82ca2283e3843944d59",
      "blockNumber": 69007,
      "transactionIndex": 3,
      "confirmations": null,
      "from": "0x17A8259bCFdFd084E6c29B574dD24bCaaD70d3F5",
      "gasPrice": {
        "_hex": "0xba43b7400"
      },
      "gasLimit": {
        "_hex": "0x5208"
      },
      "to": "0xAFeCB78b7dDf43251b9b46581168C061b9d0ef1f",
      "value": {
        "_hex": "0x17adb9b0233f000"
      },
      "nonce": 1,
      "data": "0x",
      "r": "0xb0eab8554b3ac8128b8e04efb04dc8fa9b10a2641a65689947934438aceb7941",
      "s": "0x0c09a5ab99d1896779f2f580373a4c48e14de0b9a5ca6ef334e6a34bd80757b1",
      "v": 27,
      "creates": null,
      "raw": "0xf86c01850ba43b740082520894afecb78b7ddf43251b9b46581168c061b9d0ef1f88017adb9b0233f000801ba0b0eab8554b3ac8128b8e04efb04dc8fa9b10a2641a65689947934438aceb7941a00c09a5ab99d1896779f2f580373a4c48e14de0b9a5ca6ef334e6a34bd80757b1",
      "networkId": 0,
      "chainId": 0
    },
    {
      "hash": "0x147c720e52d923678979025e1708b0c9600f648e0aab9f31cd0646e2180790af",
      "blockHash": "0x912b446e7713540b2ad189152365c0ce9711bf01756de82ca2283e3843944d59",
      "blockNumber": 69007,
      "transactionIndex": 4,
      "confirmations": null,
      "from": "0xE856a33a56F4E522ae2D9Bc7b4e69f18a6ADd1E1",
      "gasPrice": {
        "_hex": "0xba43b7400"
      },
      "gasLimit": {
        "_hex": "0x5208"
      },
      "to": "0x9A400f9333d5d52ff1201e6779bA2Fa5Dec907d7",
      "value": {
        "_hex": "0x17adb9b0233f000"
      },
      "nonce": 1,
      "data": "0x",
      "r": "0x428b0db16a4dfbf9293b2d1152c515326e114a678b8b6b6b8a5cc11afd2f1aad",
      "s": "0x10a0708803c374bccec2f3d24ddfae2763ec6efb143d3869528857f08d188c10",
      "v": 28,
      "creates": null,
      "raw": "0xf86c01850ba43b7400825208949a400f9333d5d52ff1201e6779ba2fa5dec907d788017adb9b0233f000801ca0428b0db16a4dfbf9293b2d1152c515326e114a678b8b6b6b8a5cc11afd2f1aada010a0708803c374bccec2f3d24ddfae2763ec6efb143d3869528857f08d188c10",
      "networkId": 0,
      "chainId": 0
    },
    {
      "hash": "0x06d972a13328d32a604f0a0162ed747a2ee823f69b0cb27b9b849ab5a69cb184",
      "blockHash": "0x912b446e7713540b2ad189152365c0ce9711bf01756de82ca2283e3843944d59",
      "blockNumber": 69007,
      "transactionIndex": 5,
      "confirmations": null,
      "from": "0xA06801349A90582742CA419C7b7Fc2C6Ad9E748b",
      "gasPrice": {
        "_hex": "0xba43b7400"
      },
      "gasLimit": {
        "_hex": "0x5208"
      },
      "to": "0xbA2290eF0232D34d38668cCE7F9fB72d3477260B",
      "value": {
        "_hex": "0x17adb9b0233f000"
      },
      "nonce": 1,
      "data": "0x",
      "r": "0x273f55fce77a7715a824763271e85d6499a725d67986bfb0fae6ba77530de9dd",
      "s": "0x54352f2d67eea55d2d3647ea931580c716e5e9bf29547e08ea575c7650406b3c",
      "v": 27,
      "creates": null,
      "raw": "0xf86c01850ba43b740082520894ba2290ef0232d34d38668cce7f9fb72d3477260b88017adb9b0233f000801ba0273f55fce77a7715a824763271e85d6499a725d67986bfb0fae6ba77530de9dda054352f2d67eea55d2d3647ea931580c716e5e9bf29547e08ea575c7650406b3c",
      "networkId": 0,
      "chainId": 0
    },
    {
      "hash": "0xf6a0787abb69bead6708018b74ee105aff172f2aac2578cb312b6e569c4d5592",
      "blockHash": "0x912b446e7713540b2ad189152365c0ce9711bf01756de82ca2283e3843944d59",
      "blockNumber": 69007,
      "transactionIndex": 6,
      "confirmations": null,
      "from": "0xDC6596130F2916656a55C252A89c87aF720Fc38a",
      "gasPrice": {
        "_hex": "0xba43b7400"
      },
      "gasLimit": {
        "_hex": "0x5208"
      },
      "to": "0x58aC51cD425cDBd713B133d5095C05b1b1f3A7b0",
      "value": {
        "_hex": "0x17adb9b0233f000"
      },
      "nonce": 1,
      "data": "0x",
      "r": "0x6e223b2a8c3f5e24f8e03daff503b3d4cd749c6ec4762baad999345c3444bdc2",
      "s": "0x600383f201a7c9457d06201e9c3729c9e8d2cf9404a2cb4033533169ad464fbf",
      "v": 27,
      "creates": null,
      "raw": "0xf86c01850ba43b74008252089458ac51cd425cdbd713b133d5095c05b1b1f3a7b088017adb9b0233f000801ba06e223b2a8c3f5e24f8e03daff503b3d4cd749c6ec4762baad999345c3444bdc2a0600383f201a7c9457d06201e9c3729c9e8d2cf9404a2cb4033533169ad464fbf",
      "networkId": 0,
      "chainId": 0
    },
    {
      "hash": "0x207518866ac1cd1c738b15b4b897afad25b7917045e7f97441d45a0c7afe05dd",
      "blockHash": "0x912b446e7713540b2ad189152365c0ce9711bf01756de82ca2283e3843944d59",
      "blockNumber": 69007,
      "transactionIndex": 7,
      "confirmations": null,
      "from": "0x6745c89f43c6281DEA84DF5605324F2346Ab8056",
      "gasPrice": {
        "_hex": "0xba43b7400"
      },
      "gasLimit": {
        "_hex": "0x5208"
      },
      "to": "0x05dc41d1dce4E2ada0252E947139468BC4A5d9F2",
      "value": {
        "_hex": "0x17adb9b0233f000"
      },
      "nonce": 1,
      "data": "0x",
      "r": "0x16dc14b029b3f8c9064e509f16724b175bc3a1c9c482ac50d4ef828c5ab392d3",
      "s": "0x77c0e5ecf7d2ddbdd18bf1890b96ed250b27a76827fbaf3b177352ebe0fd0b44",
      "v": 28,
      "creates": null,
      "raw": "0xf86c01850ba43b74008252089405dc41d1dce4e2ada0252e947139468bc4a5d9f288017adb9b0233f000801ca016dc14b029b3f8c9064e509f16724b175bc3a1c9c482ac50d4ef828c5ab392d3a077c0e5ecf7d2ddbdd18bf1890b96ed250b27a76827fbaf3b177352ebe0fd0b44",
      "networkId": 0,
      "chainId": 0
    },
    {
      "hash": "0x9ea3af2a3a4fb566f27a2f9ab49f94f16be3ffbb3549e6a578768a22625b2436",
      "blockHash": "0x912b446e7713540b2ad189152365c0ce9711bf01756de82ca2283e3843944d59",
      "blockNumber": 69007,
      "transactionIndex": 8,
      "confirmations": null,
      "from": "0xb7af3D76ca533dd5805943fa727ab7c0062948Af",
      "gasPrice": {
        "_hex": "0xba43b7400"
      },
      "gasLimit": {
        "_hex": "0x5208"
      },
      "to": "0xa73c8b8fCaFB17b4cC8cfcC584d82913e33adf1E",
      "value": {
        "_hex": "0x17adb9b0233f000"
      },
      "nonce": 1,
      "data": "0x",
      "r": "0x9f1ac3386a76e1f8b10dc3c2a3324c96dabacb252584f026e54f7b989a0dab7b",
      "s": "0x7bcc20547f4073bd8364ff658b0cf6d8554b4c08e4e18e9c5a9e1f1b0db3c5be",
      "v": 27,
      "creates": null,
      "raw": "0xf86c01850ba43b740082520894a73c8b8fcafb17b4cc8cfcc584d82913e33adf1e88017adb9b0233f000801ba09f1ac3386a76e1f8b10dc3c2a3324c96dabacb252584f026e54f7b989a0dab7ba07bcc20547f4073bd8364ff658b0cf6d8554b4c08e4e18e9c5a9e1f1b0db3c5be",
      "networkId": 0,
      "chainId": 0
    },
    {
      "hash": "0x22439a2161c0d4790592959a9d4c75d345bd261b248764f37eb402903620eaf7",
      "blockHash": "0x912b446e7713540b2ad189152365c0ce9711bf01756de82ca2283e3843944d59",
      "blockNumber": 69007,
      "transactionIndex": 9,
      "confirmations": null,
      "from": "0x32bdF46Dd1E04ccb09b148e8365d11802f44E6d9",
      "gasPrice": {
        "_hex": "0xba43b7400"
      },
      "gasLimit": {
        "_hex": "0x5208"
      },
      "to": "0xFDBbC8B1B9C230369A3E11dC2d2d6a3Eed7adEBA",
      "value": {
        "_hex": "0x17adb9b0233f000"
      },
      "nonce": 1,
      "data": "0x",
      "r": "0x76caf3733b5f8f592ab73394ac8439bb5936f413cd1ee61aedc1e1439e02ce83",
      "s": "0x1f61c67feddca95ccf5513a3a12314062c91bc031421727dc68c86b61645de94",
      "v": 27,
      "creates": null,
      "raw": "0xf86c01850ba43b740082520894fdbbc8b1b9c230369a3e11dc2d2d6a3eed7adeba88017adb9b0233f000801ba076caf3733b5f8f592ab73394ac8439bb5936f413cd1ee61aedc1e1439e02ce83a01f61c67feddca95ccf5513a3a12314062c91bc031421727dc68c86b61645de94",
      "networkId": 0,
      "chainId": 0
    },
    {
      "hash": "0xd4d8b692576fef11d6dd706b69f49bd7ebea9e86cf82f9c6ab7d416173673b98",
      "blockHash": "0x912b446e7713540b2ad189152365c0ce9711bf01756de82ca2283e3843944d59",
      "blockNumber": 69007,
      "transactionIndex": 10,
      "confirmations": null,
      "from": "0x919204cbe07899fb7EA65bAFefdBbfebD5a8847d",
      "gasPrice": {
        "_hex": "0xba43b7400"
      },
      "gasLimit": {
        "_hex": "0x5208"
      },
      "to": "0x18852D40E029FA9dbA50Ff571d950AFFab8be7Cd",
      "value": {
        "_hex": "0x17adb9b0233f000"
      },
      "nonce": 1,
      "data": "0x",
      "r": "0x04c7634bb659c734ac9024153068eb7227648b02d5bb2bb2d2c0f6349d0900e6",
      "s": "0x1a74b6dd8b75de9113f9b04cdd47b838abe922ba57494d0f1f2bb4f32eb60328",
      "v": 27,
      "creates": null,
      "raw": "0xf86c01850ba43b74008252089418852d40e029fa9dba50ff571d950affab8be7cd88017adb9b0233f000801ba004c7634bb659c734ac9024153068eb7227648b02d5bb2bb2d2c0f6349d0900e6a01a74b6dd8b75de9113f9b04cdd47b838abe922ba57494d0f1f2bb4f32eb60328",
      "networkId": 0,
      "chainId": 0
    },
    {
      "hash": "0xc776df49d6fbfb2060afdbe4bb3cf2ead26881b554d27dc38b01ad12d11c7cfa",
      "blockHash": "0x912b446e7713540b2ad189152365c0ce9711bf01756de82ca2283e3843944d59",
      "blockNumber": 69007,
      "transactionIndex": 11,
      "confirmations": null,
      "from": "0x8bC939be16b82aC187e8dB0Ed5BC674B7E5507FB",
      "gasPrice": {
        "_hex": "0xba43b7400"
      },
      "gasLimit": {
        "_hex": "0x5208"
      },
      "to": "0xAcC31d0F91c315215d5581a86BC3fd919bA81881",
      "value": {
        "_hex": "0x17adb9b0233f000"
      },
      "nonce": 1,
      "data": "0x",
      "r": "0x22042c332a9ee6129f2fb6a022c331d4e2550b0fc6efef6884297b3cb0969490",
      "s": "0x1de17e1e55c487c8149a3a9cd65685c34d2faf806c1a7560f5691d07cdc11ac4",
      "v": 28,
      "creates": null,
      "raw": "0xf86c01850ba43b740082520894acc31d0f91c315215d5581a86bc3fd919ba8188188017adb9b0233f000801ca022042c332a9ee6129f2fb6a022c331d4e2550b0fc6efef6884297b3cb0969490a01de17e1e55c487c8149a3a9cd65685c34d2faf806c1a7560f5691d07cdc11ac4",
      "networkId": 0,
      "chainId": 0
    },
    {
      "hash": "0x57f2adb52a5e9bb8ddc2537e1132ee549a01dfcee44f0bee1a70b83c0ca96553",
      "blockHash": "0x912b446e7713540b2ad189152365c0ce9711bf01756de82ca2283e3843944d59",
      "blockNumber": 69007,
      "transactionIndex": 12,
      "confirmations": null,
      "from": "0xd4Fba50B5efaeda0E1ee9137d80B24043E45191e",
      "gasPrice": {
        "_hex": "0xba43b7400"
      },
      "gasLimit": {
        "_hex": "0x5208"
      },
      "to": "0x3A7A6296575159F66321B872d24dDdC30D6DB256",
      "value": {
        "_hex": "0x17adb9b0233f000"
      },
      "nonce": 1,
      "data": "0x",
      "r": "0xdcd49b6680854dc0ed9f7735001c1c7ddd33d21091a8749656861b011bffa0f4",
      "s": "0x58a37a86e783daed23ede5e228a75e5fb78ac966827cba9bc90fd0c38909ce48",
      "v": 28,
      "creates": null,
      "raw": "0xf86c01850ba43b7400825208943a7a6296575159f66321b872d24dddc30d6db25688017adb9b0233f000801ca0dcd49b6680854dc0ed9f7735001c1c7ddd33d21091a8749656861b011bffa0f4a058a37a86e783daed23ede5e228a75e5fb78ac966827cba9bc90fd0c38909ce48",
      "networkId": 0,
      "chainId": 0
    }
  ]
}