{
  "hash": "0xd95263e5a2833c6596d0874c1cd14519afca5bd88682344054857f717e0f8676",
  "parentHash": "0x691ad6b5b737aeb6c24a54e7000883e292d50ad77a8d1d87a9cb522c9524b1cc",
  "number": 76358,
  "timestamp": 1439419081,
  "nonce": "0xa6800fab19299cb2",
  "difficulty": 2225379900780,
  "gasLimit": {
    "_hex": "0x2fefd8"
  },
  "gasUsed": {
    "_hex": "0x546c"
  },
  "miner": "0xF2d2AfF1320476cb8C6b607199D23175cc595693",
  "extraData": "0x476574682f76312e302e312f77696e646f77732f676f312e342e32",
  "transactions": [
    {
      "hash": "0x929341e731bb96bace4efdc091263585d46cdeaa5fab289aa14df571dd33213b",
      "blockHash": "0xd95263e5a2833c6596d0874c1cd14519afca5bd88682344054857f717e0f8676",
      "blockNumber": 76358,
      "transactionIndex": 0,
      "confirmations": null,
      "from": "0x0E1801E70B6262861b1134ccBC391F568Afc92F7",
      "gasPrice": {
        "_hex": "0x110c8f7d8de"
      },
      "gasLimit": {
        "_hex": "0xc350"
      },
      "to": "0x2910543Af39abA0Cd09dBb2D50200b3E800A63D2",
      "value": {
        "_hex": "0x4563918244f40000"
      },
      "nonce": 0,
      "data": "0x454e4757324b415630",
      "r": "0xf1536e3f507895a5cbf531739977dfcc936494338b10af539ae056af8c78c58c",
      "s": "0x9e427fcdfe39566c77197b5f950269c75a69ddefc188a406e31984c656f72a62",
      "v": 27,
      "creates": null,
      "raw": "0xf87680860110c8f7d8de82c350942910543af39aba0cd09dbb2d50200b3e800a63d2884563918244f4000089454e4757324b4156301ba0f1536e3f507895a5cbf531739977dfcc936494338b10af539ae056af8c78c58ca09e427fcdfe39566c77197b5f950269c75a69ddefc188a406e31984c656f72a62",
      "networkId": 0,
      "chainId": 0
    }
  ]
}