{
  "hash": "0xe14e4f3437c906c12d65d4d5fb2294ddd1ccaac15a3727309ee1d9f7442a42a6",
  "parentHash": "0xb198abd5a74015b80170b0fdc8295a99f9c8005416f97bae9dee9a9708f37275",
  "number": 52008,
  "timestamp": 1439014653,
  "nonce": "0x2171bc381dfdbf3b",
  "difficulty": 1559603970083,
  "gasLimit": {
    "_hex": "0xfa0ae"
  },
  "gasUsed": {
    "_hex": "0x5208"
  },
  "miner": "0xf927a40C8B7F6E07c5af7FA2155B4864a4112B13",
  "extraData": "0x476574682f76312e302e312f6c696e75782f676f312e342e32",
  "transactions": [
    {
      "hash": "0xe1fdcf4010db6145120d0da8e7b3a44cbe83c0e797b840262b5d01d835002c16",
      "blockHash": "0xe14e4f3437c906c12d65d4d5fb2294ddd1ccaac15a3727309ee1d9f7442a42a6",
      "blockNumber": 52008,
      "transactionIndex": 0,
      "confirmations": null,
      "from": "0x6cf94E97b229262AF23908265c2cf7e810686fa7",
      "gasPrice": {
        "_hex": "0xd5f71e4a8"
      },
      "gasLimit": {
        "_hex": "0x15f90"
      },
      "to": "0x2DB3c3bef4b8e8327520D417Ba96b096e6CAcF3B",
      "value": {
        "_hex": "0xde0b6b3a7640000"
      },
      "nonce": 0,
      "data": "0x",
      "r": "0x877eaba59f342c763d2256e63202337aef5e8a06bfe962e978ce4b1f67604045",
      "s": "0x59788c66b82daa143475a09a06602131470c20bccc6888c33445ff7b54b4364a",
      "v": 27,
      "creates": null,
      "raw": "0xf86d80850d5f71e4a883015f90942db3c3bef4b8e8327520d417ba96b096e6cacf3b880de0b6b3a7640000801ba0877eaba59f342c763d2256e63202337aef5e8a06bfe962e978ce4b1f67604045a059788c66b82daa143475a09a06602131470c20bccc6888c33445ff7b54b4364a",
      "networkId": 0,
      "chainId": 0
    }
  ]
}