{
  "hash": "0xb6db6c923b37b6fd17a9cefec112c288794241a9c8df1a43a5a3a06197259421",
  "parentHash": "0xb9427a9b12d5c44de2efd18f73aa1b953cd858786d88b597972e17b0f73cbc0a",
  "number": 101941,
  "timestamp": 1439830192,
  "nonce": "0x55236e485fe9f787",
  "difficulty": 3930062387064,
  "gasLimit": {
    "_hex": "0x2fefd8"
  },
  "gasUsed": {
    "_hex": "0x5208"
  },
  "miner": "0x580992B51e3925e23280EfB93d3047C82f17E038",
  "extraData": "0x476574682f76312e302e312f6c696e75782f676f312e342e32",
  "transactions": [
    {
      "hash": "0xd943b430c934f3527b6f28cdc471715ce57082dff6c48363d6a69e67b64d6b7f",
      "blockHash": "0xb6db6c923b37b6fd17a9cefec112c288794241a9c8df1a43a5a3a06197259421",
      "blockNumber": 101941,
      "transactionIndex": 0,
      "confirmations": null,
      "from": "0xb1abce2918E21ddb93AA452731a12672A3d9F75a",
      "gasPrice": {
        "_hex": "0xdcee9074a"
      },
      "gasLimit": {
        "_hex": "0x5208"
      },
      "to": "0x32Be343B94f860124dC4fEe278FDCBD38C102D88",
      "value": {
        "_hex": "0x455f24cc0035e400"
      },
      "nonce": 96,
      "data": "0x",
      "r": "0xc06881627148537e13df3b4d33c848922b8a425a6f9d32f81681e2df972fce53",
      "s": "0x66655da8f6ae662ca6b6b0e78663de37c8d521163e43f2f0f8dd053f20026f88",
      "v": 27,
      "creates": null,
      "raw": "0xf86c60850dcee9074a8252089432be343b94f860124dc4fee278fdcbd38c102d8888455f24cc0035e400801ba0c06881627148537e13df3b4d33c848922b8a425a6f9d32f81681e2df972fce53a066655da8f6ae662ca6b6b0e78663de37c8d521163e43f2f0f8dd053f20026f88",
      "networkId": 0,
      "chainId": 0
    }
  ]
}