{
  "hash": "0x458ec37ba478d1304e9c14307de0893e7d671bda690eb19f0acf2032ed62ee74",
  "parentHash": "0x42d277dfcfbd5d7d3949401b56122d3f90c20f52e63a58dc31cda8764e2fd36e",
  "number": 68156,
  "timestamp": 1439283452,
  "nonce": "0x4140b85447fb1a31",
  "difficulty": 1967732668809,
  "gasLimit": {
    "_hex": "0x2fefd8"
  },
  "gasUsed": {
    "_hex": "0x5208"
  },
  "miner": "0xf927a40C8B7F6E07c5af7FA2155B4864a4112B13",
  "extraData": "0x",
  "transactions": [
    {
      "hash": "0x07b9032ce24b14bb1defa3e03c13699e64a8233d9ac80a52a4409af92308cfd1",
      "blockHash": "0x458ec37ba478d1304e9c14307de0893e7d671bda690eb19f0acf2032ed62ee74",
      "blockNumber": 68156,
      "transactionIndex": 0,
      "confirmations": null,
      "from": "0xC9C5B6b71d990b30878e954398393cA080Ca04de",
      "gasPrice": {
        "_hex": "0xba43b7400"
      },
      "gasLimit": {
        "_hex": "0x5208"
      },
      "to": "0x6747f922385c9a6F9cfDf095F34345257DD597bE",
      "value": {
        "_hex": "0x4e1253f5de4000"
      },
      "nonce": 1,
      "data": "0x",
      "r": "0xc6cbdd9a37e6f3198c6b2f085bcba98d0a228ab0802adf9876bfeb81677edebb",
      "s": "0x760c2866ec46fd62fd7a5cbd87b7591be82048ee43f36ef0c45cf489d53cff0a",
      "v": 27,
      "creates": null,
      "raw": "0xf86b01850ba43b7400825208946747f922385c9a6f9cfdf095f34345257dd597be874e1253f5de4000801ba0c6cbdd9a37e6f3198c6b2f085bcba98d0a228ab0802adf9876bfeb81677edebba0760c2866ec46fd62fd7a5cbd87b7591be82048ee43f36ef0c45cf489d53cff0a",
      "networkId": 0,
      "chainId": 0
    }
  ]
}