{
  "hash": "0x57b803a2d86f69f2f75702a7548a0a54f55ba12460a688cbae36494f384b9df0",
  "parentHash": "0x160c8eb4b18de49ca136d5f64816af49c73ce16cbe4a1246b83baa3cfba24a83",
  "number": 107858,
  "timestamp": 1439929899,
  "nonce": "0x1ade385edd2937be",
  "difficulty": 4387632516003,
  "gasLimit": {
    "_hex": "0x2fefd8"
  },
  "gasUsed": {
    "_hex": "0x5208"
  },
  "miner": "0xa70a9a7040d542C632D8e0bE7c5513A8a5Bbc752",
  "extraData": "0x",
  "transactions": [
    {
      "hash": "0x71160d1a7132d4f26c0641b885d097316b418c5b90b092933fc835a770a3c606",
      "blockHash": "0x57b803a2d86f69f2f75702a7548a0a54f55ba12460a688cbae36494f384b9df0",
      "blockNumber": 107858,
      "transactionIndex": 0,
      "confirmations": null,
      "from": "0x32Be343B94f860124dC4fEe278FDCBD38C102D88",
      "gasPrice": {
        "_hex": "0xcc8ab771c"
      },
      "gasLimit": {
        "_hex": "0x5208"
      },
      "to": "0xAaA4BEfA989B980188a418Cc5C4C02E7d9103818",
      "value": {
        "_hex": "0x1837fc2cadbf7e0000"
      },
      "nonce": 1232,
      "data": "0x",
      "r": "0x772f1e3307e67e015f1e99712ab44efa41fc5f9d9057c03dccbe15c8deb8f6b8",
      "s": "0x5ccac5a9c719345db320fdd065b8099406bf017855ade4c998426d4b811ff3dc",
      "v": 27,
      "creates": null,
      "raw": "0xf86f8204d0850cc8ab771c82520894aaa4befa989b980188a418cc5c4c02e7d9103818891837fc2cadbf7e0000801ba0772f1e3307e67e015f1e99712ab44efa41fc5f9d9057c03dccbe15c8deb8f6b8a05ccac5a9c719345db320fdd065b8099406bf017855ade4c998426d4b811ff3dc",
      "networkId": 0,
      "chainId": 0
    }
  ]
}