{
  "hash": "0xd8a36fdd9558eb1405ba87f2d1241dbd371682d28ec463425277840d4861ef41",
  "parentHash": "0x5ab440277f664f260d9b6c0d4ceb1645f73308f96a201f60b41f6935bec3a105",
  "number": 57971,
  "timestamp": 1439112722,
  "nonce": "0x86855ba75c71e66f",
  "difficulty": 1724255400432,
  "gasLimit": {
    "_hex": "0x2fefd8"
  },
  "gasUsed": {
    "_hex": "0x5208"
  },
  "miner": "0x123843545FB525C8E134c9A5F15ADA6865cc3848",
  "extraData": "0x476574682f76312e302e312f77696e646f77732f676f312e342e32",
  "transactions": [
    {
      "hash": "0x6b4be7de5110420f4b12d5dc44b57f3cedb80394ec2826ed28c9db18b4ce49a3",
      "blockHash": "0xd8a36fdd9558eb1405ba87f2d1241dbd371682d28ec463425277840d4861ef41",
      "blockNumber": 57971,
      "transactionIndex": 0,
      "confirmations": null,
      "from": "0x32ae73c53E10568A40e6F14f4f606271B013D4E3",
      "gasPrice": {
        "_hex": "0xd6544f09d"
      },
      "gasLimit": {
        "_hex": "0x5208"
      },
      "to": "0x32Be343B94f860124dC4fEe278FDCBD38C102D88",
      "value": {
        "_hex": "0xdffe8bf54008c00"
      },
      "nonce": 0,
      "data": "0x",
      "r": "0xf624e7e244fb501755d27e94f42b33760d4a405975724ecbf8a44a006fd9a0af",
      "s": "0x5cadc83cfa240676bfdbf2902ba7f8f09438abe71871ab6186e2ccc789348b3d",
      "v": 27,
      "creates": null,
      "raw": "0xf86c80850d6544f09d8252089432be343b94f860124dc4fee278fdcbd38c102d88880dffe8bf54008c00801ba0f624e7e244fb501755d27e94f42b33760d4a405975724ecbf8a44a006fd9a0afa05cadc83cfa240676bfdbf2902ba7f8f09438abe71871ab6186e2ccc789348b3d",
      "networkId": 0,
      "chainId": 0
    }
  ]
}