{
  "hash": "0x8f59a426db6028cfd8a4b2f736a0e14f887bbcb95ebd3e10bfea2fb3f197ddd4",
  "parentHash": "0xe1caa300f4c6e63efe53e76265ba74bf1b4ccf2bd27d253593920b2576912319",
  "number": 62102,
  "timestamp": 1439183348,
  "nonce": "0x0855d6f7f5368757",
  "difficulty": 1759973843229,
  "gasLimit": {
    "_hex": "0x2fefd8"
  },
  "gasUsed": {
    "_hex": "0x1bb0b"
  },
  "miner": "0x3222BA3F3e79eA0e31467EEE7639B57923558cCD",
  "extraData": "0x",
  "transactions": [
    {
      "hash": "0x20661d39846c22f846e5688b841d01a63b763e2dae7f2fcb3292bf51d4ba7027",
      "blockHash": "0x8f59a426db6028cfd8a4b2f736a0e14f887bbcb95ebd3e10bfea2fb3f197ddd4",
      "blockNumber": 62102,
      "transactionIndex": 0,
      "confirmations": null,
      "from": "0x17580B766f7453525ca4C6A88b01b50570EA088C",
      "gasPrice": {
        "_hex": "0xda1e5ce50"
      },
      "gasLimit": {
        "_hex": "0x7a120"
      },
      "to": "0xfBc128067A2FE13C11BBC6cc55f29AA1F27630DA",
      "value": {
        "_hex": "0xde0b6b3a7640000"
      },
      "nonce": 11,
      "data": "0x",
      "r": "0xbea837b1f866bef84ca08e99e38e0afd12c50f773a78839f4bb8996678bcace7",
      "s": "0x0bf01493436c4e37e19e03766fc7b2f6cab428e1ad616bc95407a96c6a60e22f",
      "v": 28,
      "creates": null,
      "raw": "0xf86d0b850da1e5ce508307a12094fbc128067a2fe13c11bbc6cc55f29aa1f27630da880de0b6b3a7640000801ca0bea837b1f866bef84ca08e99e38e0afd12c50f773a78839f4bb8996678bcace7a00bf01493436c4e37e19e03766fc7b2f6cab428e1ad616bc95407a96c6a60e22f",
      "networkId": 0,
      "chainId": 0
    }
  ]
}