{
  "hash": "0xdacc3d940b8d775a5c40b9f101ad2a4a50e60d2cfb7dba50fc1806f2a9f64dc7",
  "parentHash": "0xd8d96a157946e5c9584401166e0cf1699f172894f24ef6c2ececa6816127282c",
  "number": 101484,
  "timestamp": 1439823623,
  "nonce": "0xc457994f12eb80a1",
  "difficulty": 3859908086077,
  "gasLimit": {
    "_hex": "0x2fefd8"
  },
  "gasUsed": {
    "_hex": "0x5208"
  },
  "miner": "0xaEAf103356C2Ee943F748E8655659D29881323E1",
  "extraData": "0x476574682f76312e302e312f77696e646f77732f676f312e342e32",
  "transactions": [
    {
      "hash": "0x768d2902d1097585adf3ea1db7b784a6297e2538b7581e93fe89f63c448ec9d5",
      "blockHash": "0xdacc3d940b8d775a5c40b9f101ad2a4a50e60d2cfb7dba50fc1806f2a9f64dc7",
      "blockNumber": 101484,
      "transactionIndex": 0,
      "confirmations": null,
      "from": "0x0156B1dF46A295901BdCA64D7809fd623AE50129",
      "gasPrice": {
        "_hex": "0xd58e9ac9c"
      },
      "gasLimit": {
        "_hex": "0x5208"
      },
      "to": "0x32Be343B94f860124dC4fEe278FDCBD38C102D88",
      "value": {
        "_hex": "0x198d75fc7fc18c00"
      },
      "nonce": 2,
      "data": "0x",
      "r": "0x06244c0a82074b830a2300acd83d466d526760c4a15015ef1b3e15934b1f48a2",
      "s": "0x6a84bec5deff161947f096a0bdc496c3d50688c58ea9d4b95da100aec2e0b5da",
      "v": 27,
      "creates": null,
      "raw": "0xf86c02850d58e9ac9c8252089432be343b94f860124dc4fee278fdcbd38c102d8888198d75fc7fc18c00801ba006244c0a82074b830a2300acd83d466d526760c4a15015ef1b3e15934b1f48a2a06a84bec5deff161947f096a0bdc496c3d50688c58ea9d4b95da100aec2e0b5da",
      "networkId": 0,
      "chainId": 0
    }
  ]
}