{
  "hash": "0xa62700daa920276d650ff2b5804100233de9c8e03397a7fb1fe8d949a7038f54",
  "parentHash": "0xe43e6f167cc03e4f4e6e02148ecfc40c1b6330167188b59299b9229d37b4d02a",
  "number": 48518,
  "timestamp": 1438958421,
  "nonce": "0x1386abde3a7fc486",
  "difficulty": 1465722007943,
  "gasLimit": {
    "_hex": "0x18a8a"
  },
  "gasUsed": {
    "_hex": "0x546c"
  },
  "miner": "0x3F98e477a361F777DA14611a7e419A75Fd238b6b",
  "extraData": "0x476574682f76312e302e312f6c696e75782f676f312e342e32",
  "transactions": [
    {
      "hash": "0x6e883e788089de148b79648bb9dcd795ead956eef1b8544bf1dcef8209079679",
      "blockHash": "0xa62700daa920276d650ff2b5804100233de9c8e03397a7fb1fe8d949a7038f54",
      "blockNumber": 48518,
      "transactionIndex": 0,
      "confirmations": null,
      "from": "0x671110d96aAFf11523CC546Bf9940EedFfB2faF7",
      "gasPrice": {
        "_hex": "0x3937b5fd88"
      },
      "gasLimit": {
        "_hex": "0x15f90"
      },
      "to": "0x2910543Af39abA0Cd09dBb2D50200b3E800A63D2",
      "value": {
        "_hex": "0x25674dd33cb4bda1d4"
      },
      "nonce": 6,
      "data": "0x454e4d353836443847",
      "r": "0xd71e7f9f999a05c55282ebf306489441c8c1523a9dd97321807fa86cb5a9996c",
      "s": "0x172793a0b19d16efe1afcf4090b189515b88aa641b9f6e5e3b47982f7d3c999f",
      "v": 28,
      "creates": null,
      "raw": "0xf87706853937b5fd8883015f90942910543af39aba0cd09dbb2d50200b3e800a63d28925674dd33cb4bda1d489454e4d3538364438471ca0d71e7f9f999a05c55282ebf306489441c8c1523a9dd97321807fa86cb5a9996ca0172793a0b19d16efe1afcf4090b189515b88aa641b9f6e5e3b47982f7d3c999f",
      "networkId": 0,
      "chainId": 0
    }
  ]
}