{
  "hash": "0x6eb44e339ff7811d59233c38fe83c2375cb267abe9be1556d53fcce8d7158ab4",
  "parentHash": "0x04a3456a53e5dccf089ee54f7534bb0cbeb6d6f2f78a039cd92ad0bacc5bdb91",
  "number": 72175,
  "timestamp": 1439348561,
  "nonce": "0xc3ceb158b7151b65",
  "difficulty": 2175975511297,
  "gasLimit": {
    "_hex": "0x2fefd8"
  },
  "gasUsed": {
    "_hex": "0x9400"
  },
  "miner": "0xe6A7a1d47ff21B6321162AEA7C6CB457D5476Bca",
  "extraData": "0x476574682f76312e302e312d38326566323666362f6c696e75782f676f312e34",
  "transactions": [
    {
      "hash": "0xd8b8972a8fb3f55ebdf6bcbeb8be9da460ae500897a5587cf6830dae7e1dfe5d",
      "blockHash": "0x6eb44e339ff7811d59233c38fe83c2375cb267abe9be1556d53fcce8d7158ab4",
      "blockNumber": 72175,
      "transactionIndex": 0,
      "confirmations": null,
      "from": "0x17580B766f7453525ca4C6A88b01b50570EA088C",
      "gasPrice": {
        "_hex": "0xd48802f1d"
      },
      "gasLimit": {
        "_hex": "0x61a80"
      },
      "to": "0x5Fe5B7546D1628f7348B023A0393de1FC825A4fD",
      "value": {
        "_hex": "0x3782dace9d900000"
      },
      "nonce": 344,
      "data": "0xb595b8b50000000000000000000000000000000000000000000000000000000000000001",
      "r": "0x971513bbdf49d7491c0c1314bd3ad58447a62f29a8bf9eed06f49fc12775d54e",
      "s": "0x7165df0a69e11e7f79675dd507871ec523f930c08aa3ef1d8db083fb18c2b26b",
      "v": 27,
      "creates": null,
      "raw": "0xf893820158850d48802f1d83061a80945fe5b7546d1628f7348b023a0393de1fc825a4fd883782dace9d900000a4b595b8b500000000000000000000000000000000000000000000000000000000000000011ba0971513bbdf49d7491c0c1314bd3ad58447a62f29a8bf9eed06f49fc12775d54ea07165df0a69e11e7f79675dd507871ec523f930c08aa3ef1d8db083fb18c2b26b",
      "networkId": 0,
      "chainId": 0
    }
  ]
}