{
  "hash": "0x91e7aa237b5421e48b1e87f743c2ff78a3cbf50e5265da6fe574ddbbb4204594",
  "parentHash": "0xdcf6fb25aca41dab4b68167e4fd7a4aa6a4e934c068a7d7cce008ff7ef00087d",
  "number": 100220,
  "timestamp": 1439803006,
  "nonce": "0xb06ef1b22c7e6d75",
  "difficulty": 3815513671672,
  "gasLimit": {
    "_hex": "0x2fefd8"
  },
  "gasUsed": {
    "_hex": "0x5208"
  },
  "miner": "0xe6A7a1d47ff21B6321162AEA7C6CB457D5476Bca",
  "extraData": "0x476574682f76312e302e312d38326566323666362f6c696e75782f676f312e34",
  "transactions": [
    {
      "hash": "0x4489f578c02223dcb281c15c1caf56840b70cad73bf9ba93e91480bb003c7adf",
      "blockHash": "0x91e7aa237b5421e48b1e87f743c2ff78a3cbf50e5265da6fe574ddbbb4204594",
      "blockNumber": 100220,
      "transactionIndex": 0,
      "confirmations": null,
      "from": "0xd70c667add50d3d9989Ef58A81a698c09f415Bff",
      "gasPrice": {
        "_hex": "0xdb743dcce"
      },
      "gasLimit": {
        "_hex": "0x15f90"
      },
      "to": "0x022A006FcC619ebf387F413eF06932bAbd47AE0E",
      "value": {
        "_hex": "0xbcbce7f1b1500000"
      },
      "nonce": 13,
      "data": "0x",
      "r": "0x51fbe6c41dadf50cca391356ea8c0bc4aeca24e46243e072863df8c8d6874682",
      "s": "0x479642c9518d52f1ad249f53b53142114797e4d9865d79e0b907b9df8cdf7541",
      "v": 28,
      "creates": null,
      "raw": "0xf86d0d850db743dcce83015f9094022a006fcc619ebf387f413ef06932babd47ae0e88bcbce7f1b1500000801ca051fbe6c41dadf50cca391356ea8c0bc4aeca24e46243e072863df8c8d6874682a0479642c9518d52f1ad249f53b53142114797e4d9865d79e0b907b9df8cdf7541",
      "networkId": 0,
      "chainId": 0
    }
  ]
}