{
  "hash": "0x97feaeaab2de2d4948cff2d74e740477bac7063ce70ce8dd934fc1609277b812",
  "parentHash": "0x88e4ee893b19475013fea0d0fceb3d6163642a85351a20fc958427d8dd1a33f2",
  "number": 107328,
  "timestamp": 1439920487,
  "nonce": "0x87cc239f5e4e7310",
  "difficulty": 4405083533980,
  "gasLimit": {
    "_hex": "0x2fefd8"
  },
  "gasUsed": {
    "_hex": "0x5208"
  },
  "miner": "0x580992B51e3925e23280EfB93d3047C82f17E038",
  "extraData": "0x476574682f76312e302e312f6c696e75782f676f312e342e32",
  "transactions": [
    {
      "hash": "0x551d980b5bdbaf3eabd6ee1b2791a963749ba2b6276f99350e477a020e27ddea",
      "blockHash": "0x97feaeaab2de2d4948cff2d74e740477bac7063ce70ce8dd934fc1609277b812",
      "blockNumber": 107328,
      "transactionIndex": 0,
      "confirmations": null,
      "from": "0x55D1554b08a5311C5c0A0B6464162192f9D2f884",
      "gasPrice": {
        "_hex": "0xd69b48315"
      },
      "gasLimit": {
        "_hex": "0x5208"
      },
      "to": "0xe74dfa89858fA989c1b3C38b1a1F605da5c61B72",
      "value": {
        "_hex": "0xde0b6b3a7640000"
      },
      "nonce": 5,
      "data": "0x",
      "r": "0x902ca5b2eda3c286d4b25bc8cefc4f80c1d344687d07c7ff2cb08a3f25d42f75",
      "s": "0x4afc0ac6978e9fd3645e616a58c30f2cf70553809ac15582fdf243f21725f3e7",
      "v": 27,
      "creates": null,
      "raw": "0xf86c05850d69b4831582520894e74dfa89858fa989c1b3c38b1a1f605da5c61b72880de0b6b3a7640000801ba0902ca5b2eda3c286d4b25bc8cefc4f80c1d344687d07c7ff2cb08a3f25d42f75a04afc0ac6978e9fd3645e616a58c30f2cf70553809ac15582fdf243f21725f3e7",
      "networkId": 0,
      "chainId": 0
    }
  ]
}