{
  "hash": "0x26f1073a5c6ff2b4acc1688493722df3d8c0e6ff1dcf8f5144fce41fa6614dce",
  "parentHash": "0x72288233867836dbcd5a47a70c15a3c9e4b1cb6a5b3ca573fe44020e07580457",
  "number": 46517,
  "timestamp": 1438924394,
  "nonce": "0x71df5889cd3bffd4",
  "difficulty": 1466787709946,
  "gasLimit": {
    "_hex": "0x6631"
  },
  "gasUsed": {
    "_hex": "0x5208"
  },
  "miner": "0x9746c7e1ef2bd21FF3997fa467593a89cb852BD0",
  "extraData": "0x476574682f76312e302e312f77696e646f77732f676f312e342e32",
  "transactions": [
    {
      "hash": "0x242080fa524ad44b04d17c69c8d009b8821e31b236661027c409f4334fc9a0e3",
      "blockHash": "0x26f1073a5c6ff2b4acc1688493722df3d8c0e6ff1dcf8f5144fce41fa6614dce",
      "blockNumber": 46517,
      "transactionIndex": 0,
      "confirmations": null,
      "from": "0x87898CE53471043FcCa0a2aF4E1dC6d8B3fCf607",
      "gasPrice": {
        "_hex": "0x746a528800"
      },
      "gasLimit": {
        "_hex": "0x5208"
      },
      "to": "0xBFdD9820a04283b289957956353b5F3C1F665EcF",
      "value": {
        "_hex": "0x56bc75e2d63100000"
      },
      "nonce": 0,
      "data": "0x",
      "r": "0x6568bccd856cd00f5d7177d1852e3061c4bcda0a8e035ac15e849d34f827cffa",
      "s": "0x6556388bcbb51d047d44494550be22fe31b7b467f16ce40f9e0c9742998d0fd8",
      "v": 27,
      "creates": null,
      "raw": "0xf86d8085746a52880082520894bfdd9820a04283b289957956353b5f3c1f665ecf89056bc75e2d63100000801ba06568bccd856cd00f5d7177d1852e3061c4bcda0a8e035ac15e849d34f827cffaa06556388bcbb51d047d44494550be22fe31b7b467f16ce40f9e0c9742998d0fd8",
      "networkId": 0,
      "chainId": 0
    }
  ]
}