{
  "hash": "0xe5c0deb3b5ad112011c349d454360056167ac92728b06958aa0af080a02dc55a",
  "parentHash": "0xd41f8b646796cfafd75aae4afbb64ab5fd5ddc8a78ef3a6afd00bb9145b10799",
  "number": 64613,
  "timestamp": 1439223615,
  "nonce": "0x1a13159f19bb972a",
  "difficulty": 1888533117489,
  "gasLimit": {
    "_hex": "0x2fefd8"
  },
  "gasUsed": {
    "_hex": "0xa410"
  },
  "miner": "0x5F8F73E26CdF436f19Cb24C82F90A15AFe55b592",
  "extraData": "0x476574682f76312e302e312f77696e646f77732f676f312e342e32",
  "transactions": [
    {
      "hash": "0x0d9dd5853a52d98eafeec45e3eaac5a59c9e2317df8cd6c4f1b356757c553f3b",
      "blockHash": "0xe5c0deb3b5ad112011c349d454360056167ac92728b06958aa0af080a02dc55a",
      "blockNumber": 64613,
      "transactionIndex": 0,
      "confirmations": null,
      "from": "0x6747f922385c9a6F9cfDf095F34345257DD597bE",
      "gasPrice": {
        "_hex": "0xba43b7400"
      },
      "gasLimit": {
        "_hex": "0x5208"
      },
      "to": "0x9114a867020e374f2ae51028eea2BaEe5C422468",
      "value": {
        "_hex": "0x1fcbfa42bd6000"
      },
      "nonce": 16,
      "data": "0x",
      "r": "0xbb3779f3fe7fb8f35b4600d59bd9e3aa1fc8af790f0cd34edcdd1c7342d77cc0",
      "s": "0x5364582a71861ee92ffd15d338daf21fa460123bc6ec4df52e80ad7fcb3869d5",
      "v": 28,
      "creates": null,
      "raw": "0xf86b10850ba43b7400825208949114a867020e374f2ae51028eea2baee5c422468871fcbfa42bd6000801ca0bb3779f3fe7fb8f35b4600d59bd9e3aa1fc8af790f0cd34edcdd1c7342d77cc0a05364582a71861ee92ffd15d338daf21fa460123bc6ec4df52e80ad7fcb3869d5",
      "networkId": 0,
      "chainId": 0
    },
    {
      "hash": "0x90a0d725591c55e58f78d311fc55ae5e496c230a303028e53d65f25a45730741",
      "blockHash": "0xe5c0deb3b5ad112011c349d454360056167ac92728b06958aa0af080a02dc55a",
      "blockNumber": 64613,
      "transactionIndex": 1,
      "confirmations": null,
      "from": "0x1943d2139121f9D669a1A7A1D0fb621D693FdC59",
      "gasPrice": {
        "_hex": "0xba43b7400"
      },
      "gasLimit": {
        "_hex": "0x5208"
      },
      "to": "0x72C89386fd6E097EB3Fc844eD3179DB549a22e38",
      "value": {
        "_hex": "0x36ef271c4dd000"
      },
      "nonce": 1,
      "data": "0x",
      "r": "0xf24ccfa68b43f8963e26dc2d2a42cae3778c1996bd968204aeedf7f52894adff",
      "s": "0x0c8c280ea7e1f9a1fdefa7470ad2690d82b70ab6926fc89d3c5125ed6466ea9d",
      "v": 27,
      "creates": null,
      "raw": "0xf86b01850ba43b74008252089472c89386fd6e097eb3fc844ed3179db549a22e388736ef271c4dd000801ba0f24ccfa68b43f8963e26dc2d2a42cae3778c1996bd968204aeedf7f52894adffa00c8c280ea7e1f9a1fdefa7470ad2690d82b70ab6926fc89d3c5125ed6466ea9d",
      "networkId": 0,
      "chainId": 0
    }
  ]
}