{
  "hash": "0x20d1928c3413a3e672e327f695953e9e20298aec6a57f25f7fa34e0cda36106c",
  "parentHash": "0xbba868fcb65615560f3436c305cb44df995d844bd296641303560958514ced66",
  "number": 65132,
  "timestamp": 1439231877,
  "nonce": "0x6f673c6dd6cc071f",
  "difficulty": 1930369022040,
  "gasLimit": {
    "_hex": "0x2fefd8"
  },
  "gasUsed": {
    "_hex": "0x5208"
  },
  "miner": "0xBb12b5a9B85D4AB8CDE6056E9c1b2a4a337D2261",
  "extraData": "0x476574682f76312e302e312d36393865393864392f6c696e75782f676f312e34",
  "transactions": [
    {
      "hash": "0x0503992214a9a49cfb42c9b611824e126b2a79e57ce5bbd21197bb075df615a4",
      "blockHash": "0x20d1928c3413a3e672e327f695953e9e20298aec6a57f25f7fa34e0cda36106c",
      "blockNumber": 65132,
      "transactionIndex": 0,
      "confirmations": null,
      "from": "0xf3004758570961500296c55223cd8172eB47193B",
      "gasPrice": {
        "_hex": "0xba43b7400"
      },
      "gasLimit": {
        "_hex": "0x5208"
      },
      "to": "0xE53Ae7B2Da2F2c4a341EC49256273363B1ca8694",
      "value": {
        "_hex": "0x55dc4238d76c000"
      },
      "nonce": 1,
      "data": "0x",
      "r": "0xe93663020249f11b7d133a305db5bdf7e7c98ae23eb5be3a46c71cc419481e00",
      "s": "0x0c7324faeb1cbce51f1d77b93cf5f884f4100147ef39dba98a28c2cfbbaf903b",
      "v": 27,
      "creates": null,
      "raw": "0xf86c01850ba43b740082520894e53ae7b2da2f2c4a341ec49256273363b1ca869488055dc4238d76c000801ba0e93663020249f11b7d133a305db5bdf7e7c98ae23eb5be3a46c71cc419481e00a00c7324faeb1cbce51f1d77b93cf5f884f4100147ef39dba98a28c2cfbbaf903b",
      "networkId": 0,
      "chainId": 0
    }
  ]
}