{
  "hash": "0x246424c9762e63e15c869899357716b6957a0536455a936bf3ba788bbaf3e11d",
  "parentHash": "0xde635fef72c3b6989a8e35c8d6f76aeae9ec64bd530b71d348a34b9550abd6f7",
  "number": 100919,
  "timestamp": 1439814560,
  "nonce": "0x3b6898f698bdf816",
  "difficulty": 3858283684472,
  "gasLimit": {
    "_hex": "0x2fe3de"
  },
  "gasUsed": {
    "_hex": "0x5208"
  },
  "miner": "0xf927a40C8B7F6E07c5af7FA2155B4864a4112B13",
  "extraData": "0x476574682f76312e302e302f6c696e75782f676f312e342e32",
  "transactions": [
    {
      "hash": "0x7ae0839fff7b7a50f53aed9f6cd0bc88542cd3d09d52bc06fc98e642d4705bd0",
      "blockHash": "0x246424c9762e63e15c869899357716b6957a0536455a936bf3ba788bbaf3e11d",
      "blockNumber": 100919,
      "transactionIndex": 0,
      "confirmations": null,
      "from": "0xA10C59651885FeAaac91F871082a23BBbaBeDfCf",
      "gasPrice": {
        "_hex": "0x114244463ef"
      },
      "gasLimit": {
        "_hex": "0x5208"
      },
      "to": "0x4c74B6F32c9680aCB5Fe0e72B7Aa95C612540A04",
      "value": {
        "_hex": "0x107ad8f556c6c0000"
      },
      "nonce": 38,
      "data": "0x",
      "r": "0x5f74135beba6204c98cfc55e9895eaf509cb3517e7011438cc9aa69419249a68",
      "s": "0x7cecd8707329b67c4aac247a8b704c5bbe6728acb23901cd6f9e92aeffb91f57",
      "v": 28,
      "creates": null,
      "raw": "0xf86e26860114244463ef825208944c74b6f32c9680acb5fe0e72b7aa95c612540a04890107ad8f556c6c0000801ca05f74135beba6204c98cfc55e9895eaf509cb3517e7011438cc9aa69419249a68a07cecd8707329b67c4aac247a8b704c5bbe6728acb23901cd6f9e92aeffb91f57",
      "networkId": 0,
      "chainId": 0
    }
  ]
}