{
  "hash": "0x51499bbd7bceaf654b9123085580d1ff7f57bf5821175e76081fadf2bef9725f",
  "parentHash": "0x143bbf982eea4797337c9735ea381b7cbe1807904c13e6e4dc484fc1521aef7a",
  "number": 117894,
  "timestamp": 1440117114,
  "nonce": "0x1ffd7f8d5c9b747b",
  "difficulty": 4344038057997,
  "gasLimit": {
    "_hex": "0x2fefd8"
  },
  "gasUsed": {
    "_hex": "0x5208"
  },
  "miner": "0x957523c697993cB24FCf75EfBce4f228325e7383",
  "extraData": "0x",
  "transactions": [
    {
      "hash": "0x72c7297c6d72f7ee4656aaf12c24e534a5a996fbd32520468d6f2cf2f863d83a",
      "blockHash": "0x51499bbd7bceaf654b9123085580d1ff7f57bf5821175e76081fadf2bef9725f",
      "blockNumber": 117894,
      "transactionIndex": 0,
      "confirmations": null,
      "from": "0xF2C14aDd753869D4EEdfefdCdFBA341Abfa1D702",
      "gasPrice": {
        "_hex": "0xba43b7400"
      },
      "gasLimit": {
        "_hex": "0x5208"
      },
      "to": "0x32Be343B94f860124dC4fEe278FDCBD38C102D88",
      "value": {
        "_hex": "0x16ac3184cb9aa0000"
      },
      "nonce": 10,
      "data": "0x",
      "r": "0x1f181fb7e4d51ca9828581c4d55585e2ae43dbabfef7d01f4a8bce5efab42ec5",
      "s": "0x371014662db406764eaf5fedf07ac32a83f49d18ebc6091be86c7b1d7c134c51",
      "v": 28,
      "creates": null,
      "raw": "0xf86d0a850ba43b74008252089432be343b94f860124dc4fee278fdcbd38c102d8889016ac3184cb9aa0000801ca01f181fb7e4d51ca9828581c4d55585e2ae43dbabfef7d01f4a8bce5efab42ec5a0371014662db406764eaf5fedf07ac32a83f49d18ebc6091be86c7b1d7c134c51",
      "networkId": 0,
      "chainId": 0
    }
  ]
}