{
  "hash": "0xe0fb93e543fea41f4977bd4e45b1ff65f7bfc1e338926cbfa76f194830ac5ba6",
  "parentHash": "0x5c2352b9715cabf87565570bee4d34343394e3a7aa95b7b4fd7d2bcc6b4e085a",
  "number": 102016,
  "timestamp": 1439831443,
  "nonce": "0x53841b7ef334b1c5",
  "difficulty": 3920444158739,
  "gasLimit": {
    "_hex": "0x2fefd8"
  },
  "gasUsed": {
    "_hex": "0xf618"
  },
  "miner": "0xcf00A85f3826941e7A25BFcF9Aac575d40410852",
  "extraData": "0x476574682f76312e302e312f77696e646f77732f676f312e342e32",
  "transactions": [
    {
      "hash": "0xc889f800b9a31e837c748a2db2c3fd38171b7acb0db977319d897fd7e9fc3123",
      "blockHash": "0xe0fb93e543fea41f4977bd4e45b1ff65f7bfc1e338926cbfa76f194830ac5ba6",
      "blockNumber": 102016,
      "transactionIndex": 0,
      "confirmations": null,
      "from": "0x007f7f58D3eb5b7510A301eCC749FC1fCDDBE14D",
      "gasPrice": {
        "_hex": "0xe0cfe7246"
      },
      "gasLimit": {
        "_hex": "0x15f90"
      },
      "to": "0xb1abce2918E21ddb93AA452731a12672A3d9F75a",
      "value": {
        "_hex": "0x4563918244f40000"
      },
      "nonce": 199,
      "data": "0x",
      "r": "0x8dce6ea98027e16e5d27faed1fa14339c7fc92ec2145a372b50e249272e50590",
      "s": "0x200620921e0b96e67bebe647b2484a168e8dcd3efc5f7cb6acf677aa61168eb0",
      "v": 28,
      "creates": null,
      "raw": "0xf86e81c7850e0cfe724683015f9094b1abce2918e21ddb93aa452731a12672a3d9f75a884563918244f40000801ca08dce6ea98027e16e5d27faed1fa14339c7fc92ec2145a372b50e249272e50590a0200620921e0b96e67bebe647b2484a168e8dcd3efc5f7cb6acf677aa61168eb0",
      "networkId": 0,
      "chainId": 0
    },
    {
      "hash": "0x8b20af871bc266d8bc1b6e20dfd79a57f0ecb63f044b0fb12c22446e9ff75ad9",
      "blockHash": "0xe0fb93e543fea41f4977bd4e45b1ff65f7bfc1e338926cbfa76f194830ac5ba6",
      "blockNumber": 102016,
      "transactionIndex": 1,
      "confirmations": null,
      "from": "0x32Be343B94f860124dC4fEe278FDCBD38C102D88",
      "gasPrice": {
        "_hex": "0xd87ab3648"
      },
      "gasLimit": {
        "_hex": "0x5208"
      },
      "to": "0x4959f006CBae0C011BCEDc07F76ee86288B67A88",
      "value": {
        "_hex": "0x13fbe85edc90000"
      },
      "nonce": 1095,
      "data": "0x",
      "r": "0x52eb090d11caf8ac3254230476bba7c744bf9e777626ac6b599b010889081492",
      "s": "0x30f3e07106ca740b03891b66e0c4c0079af2b6315f471e90f66f52abe02206de",
      "v": 27,
      "creates": null,
      "raw": "0xf86e820447850d87ab3648825208944959f006cbae0c011bcedc07f76ee86288b67a8888013fbe85edc90000801ba052eb090d11caf8ac3254230476bba7c744bf9e777626ac6b599b010889081492a030f3e07106ca740b03891b66e0c4c0079af2b6315f471e90f66f52abe02206de",
      "networkId": 0,
      "chainId": 0
    },
    {
      "hash": "0x0dd55ea9c0dd428e9d39e18bd42168d613c2221024d0fa1e5365a384e03fddaa",
      "blockHash": "0xe0fb93e543fea41f4977bd4e45b1ff65f7bfc1e338926cbfa76f194830ac5ba6",
      "blockNumber": 102016,
      "transactionIndex": 2,
      "confirmations": null,
      "from": "0x090041473c833bf54B1197fD120F895C537c26B0",
      "gasPrice": {
        "_hex": "0xcde11d66c"
      },
      "gasLimit": {
        "_hex": "0x7a120"
      },
      "to": "0xBBDa93a81B882774e1c9b5e3F933Fa35DaC8bc88",
      "value": {
        "_hex": "0x1bc16d674ec80000"
      },
      "nonce": 4,
      "data": "0x",
      "r": "0xa64215659d2edfdfa8dad008844d325a2f53177d7578a51915ff6b185429818e",
      "s": "0x4c6d8ea5d8c22106502ed2abe3b90ed180a2e7fb950d8ffab08fa530704e3499",
      "v": 27,
      "creates": null,
      "raw": "0xf86d04850cde11d66c8307a12094bbda93a81b882774e1c9b5e3f933fa35dac8bc88881bc16d674ec80000801ba0a64215659d2edfdfa8dad008844d325a2f53177d7578a51915ff6b185429818ea04c6d8ea5d8c22106502ed2abe3b90ed180a2e7fb950d8ffab08fa530704e3499",
      "networkId": 0,
      "chainId": 0
    }
  ]
}