{
  "hash": "0x826f33a3ee60acb3b29115eb115bc146ff987a4d040be329431904e8cf7eeb34",
  "parentHash": "0x0ffef0bb4bebe45ba31eb429b844072260ee6e8b195e5a79be0a7e460c645260",
  "number": 51072,
  "timestamp": 1438998876,
  "nonce": "0x27e419f827fbf344",
  "difficulty": 1558255522963,
  "gasLimit": {
    "_hex": "0x8e60e"
  },
  "gasUsed": {
    "_hex": "0xa630"
  },
  "miner": "0x756C55cbfa47fd23c0260F958e65866E64c096CB",
  "extraData": "0x476574682f76312e302e302f77696e646f77732f676f312e342e32",
  "transactions": [
    {
      "hash": "0x03fe8bf88fb6447cff10913547aa7597ad6eb87c8833088afb76351597299f46",
      "blockHash": "0x826f33a3ee60acb3b29115eb115bc146ff987a4d040be329431904e8cf7eeb34",
      "blockNumber": 51072,
      "transactionIndex": 0,
      "confirmations": null,
      "from": "0x858079E02403b10748B71A02195b6608Abaf6b8f",
      "gasPrice": {
        "_hex": "0xd8364fc25"
      },
      "gasLimit": {
        "_hex": "0x59d8"
      },
      "to": "0xcb2Ff4305625D98A9E13C9cA10ca47cf2345e1F8",
      "value": {
        "_hex": "0x56bc75e2d63100000"
      },
      "nonce": 2,
      "data": "0x4d696e7573313030",
      "r": "0x9bf5893c4b1ee7bf447dad25dd789e62bf7cd27b164b73ffed8f7fc47ec8c19e",
      "s": "0x6de6ea049ec02921dad1dcb05e34173ba6e6bf291d3c35bedda28b7ed81fcc0b",
      "v": 27,
      "creates": null,
      "raw": "0xf87502850d8364fc258259d894cb2ff4305625d98a9e13c9ca10ca47cf2345e1f889056bc75e2d63100000884d696e75733130301ba09bf5893c4b1ee7bf447dad25dd789e62bf7cd27b164b73ffed8f7fc47ec8c19ea06de6ea049ec02921dad1dcb05e34173ba6e6bf291d3c35bedda28b7ed81fcc0b",
      "networkId": 0,
      "chainId": 0
    },
    {
      "hash": "0xd3ccf1db9ef96451abb0d103ab5b5579f6fddef8c486ead4ec054d2a196a6584",
      "blockHash": "0x826f33a3ee60acb3b29115eb115bc146ff987a4d040be329431904e8cf7eeb34",
      "blockNumber": 51072,
      "transactionIndex": 1,
      "confirmations": null,
      "from": "0x4E892e8081BF36E488FddB3b2630f3f1E8da30d2",
      "gasPrice": {
        "_hex": "0xcd1dd5d0a"
      },
      "gasLimit": {
        "_hex": "0x15f90"
      },
      "to": "0x42Dd879f8Eb7e9B43036A5b4C97B02c6176D6B99",
      "value": {
        "_hex": "0x16345785d8a0000"
      },
      "nonce": 3,
      "data": "0x",
      "r": "0x3fdcd7cfb7b3eedcb43a130ce5360fb6bd724032abbf7a91e7bf4384b43dc1c0",
      "s": "0x1a62ccda136060d0107bbae8a83acc49ff958d316aee8641a2b6e6e0f800f671",
      "v": 28,
      "creates": null,
      "raw": "0xf86d03850cd1dd5d0a83015f909442dd879f8eb7e9b43036a5b4c97b02c6176d6b9988016345785d8a0000801ca03fdcd7cfb7b3eedcb43a130ce5360fb6bd724032abbf7a91e7bf4384b43dc1c0a01a62ccda136060d0107bbae8a83acc49ff958d316aee8641a2b6e6e0f800f671",
      "networkId": 0,
      "chainId": 0
    }
  ]
}