{
  "hash": "0xf8c5bad48bf3144cc92f1650699529c3686128d98abc5c0f3aea395430ebd373",
  "parentHash": "0xdf7fa08da8ccb64603c55e3231dc1eefbafe4a2ee752a883263f4abd7ee9cc29",
  "number": 108796,
  "timestamp": 1439946307,
  "nonce": "0xa26bda0711bcdf3a",
  "difficulty": 4365772546367,
  "gasLimit": {
    "_hex": "0x2fefd8"
  },
  "gasUsed": {
    "_hex": "0x5208"
  },
  "miner": "0x9Fa9952255B2b06639A04D63804d4BdFFf6E2d7e",
  "extraData": "0x476574682f76312e302e312f77696e646f77732f676f312e342e32",
  "transactions": [
    {
      "hash": "0x4d49f6d9a89c1e24e5ad6e9eba551d4e736024a6faef2bd58a7a3ab249850e49",
      "blockHash": "0xf8c5bad48bf3144cc92f1650699529c3686128d98abc5c0f3aea395430ebd373",
      "blockNumber": 108796,
      "transactionIndex": 0,
      "confirmations": null,
      "from": "0x141d08EDaDA2C1bA62A2940184Ba03d62d3fFF22",
      "gasPrice": {
        "_hex": "0xba43b7400"
      },
      "gasLimit": {
        "_hex": "0x5208"
      },
      "to": "0xC47Aaa860008be6f65B58c6C6E02a84e666EfE31",
      "value": {
        "_hex": "0x1bc015803879be000"
      },
      "nonce": 7,
      "data": "0x",
      "r": "0x3ee8480c05dd121b38dc4bd4c86064657eb5c79e15ff5a032abfc7da71ef45f2",
      "s": "0x383e5b84a8cecef79bda297e5d1c0e6d5322d21f28849f439256745de7cab7ac",
      "v": 28,
      "creates": null,
      "raw": "0xf86d07850ba43b740082520894c47aaa860008be6f65b58c6c6e02a84e666efe318901bc015803879be000801ca03ee8480c05dd121b38dc4bd4c86064657eb5c79e15ff5a032abfc7da71ef45f2a0383e5b84a8cecef79bda297e5d1c0e6d5322d21f28849f439256745de7cab7ac",
      "networkId": 0,
      "chainId": 0
    }
  ]
}