{
  "hash": "0xafb1d2cc267f967620c9804f1ed2b3fcf158b0da300b2ba9b09809054ecb1206",
  "parentHash": "0x8fed3d6a6c2998219541a1d6be9b6980a10e8fa3772d64843e48cc4d7a123ce4",
  "number": 121544,
  "timestamp": 1440178571,
  "nonce": "0x4de08bed0629ec3f",
  "difficulty": 4462517112599,
  "gasLimit": {
    "_hex": "0x2fefd8"
  },
  "gasUsed": {
    "_hex": "0x5208"
  },
  "miner": "0xe6A7a1d47ff21B6321162AEA7C6CB457D5476Bca",
  "extraData": "0xd783010002844765746887676f312e342e32856c696e7578",
  "transactions": [
    {
      "hash": "0x51ff89adb5662e6d89bcd098b2823ff9dc3dd8b78cbfdbb2a67b0fa3e5a06d87",
      "blockHash": "0xafb1d2cc267f967620c9804f1ed2b3fcf158b0da300b2ba9b09809054ecb1206",
      "blockNumber": 121544,
      "transactionIndex": 0,
      "confirmations": null,
      "from": "0x32Be343B94f860124dC4fEe278FDCBD38C102D88",
      "gasPrice": {
        "_hex": "0xba43b7400"
      },
      "gasLimit": {
        "_hex": "0x5208"
      },
      "to": "0xf8520276975f4a52ee4dc848Cb8e7788C92E1F55",
      "value": {
        "_hex": "0x45400a8fd5330000"
      },
      "nonce": 1558,
      "data": "0x",
      "r": "0xb190f8b2f69fc533925517a30cc63e0f8ac49a1478f1070ace66345f0edeb001",
      "s": "0x14d418034033cb143c3a5443f44d907c801899de7882e2cf9b1c7ac1105a4e3a",
      "v": 27,
      "creates": null,
      "raw": "0xf86e820616850ba43b740082520894f8520276975f4a52ee4dc848cb8e7788c92e1f558845400a8fd5330000801ba0b190f8b2f69fc533925517a30cc63e0f8ac49a1478f1070ace66345f0edeb001a014d418034033cb143c3a5443f44d907c801899de7882e2cf9b1c7ac1105a4e3a",
      "networkId": 0,
      "chainId": 0
    }
  ]
}