{
  "hash": "0x8c9b5d4489650dbf64aa5409bae3c3b39b7778f22145cf269ce8b2e25550fa41",
  "parentHash": "0xc80b78b5adf09b6792ca641db745ba9dc795e094dafb28c3ad91d5b946cf6408",
  "number": 110244,
  "timestamp": 1439970451,
  "nonce": "0x4e28c7c6e8998d95",
  "difficulty": 4373552772739,
  "gasLimit": {
    "_hex": "0x2fefd8"
  },
  "gasUsed": {
    "_hex": "0xa414"
  },
  "miner": "0xb6E2d440C46510EC44266A3f58165E3956173df0",
  "extraData": "0x476574682f76312e302e312f77696e646f77732f676f312e342e32",
  "transactions": [
    {
      "hash": "0xd959f4f44bd7b6ccae55e258bacfb36d0ac646f61b27921b7327ce5afe9d2f75",
      "blockHash": "0x8c9b5d4489650dbf64aa5409bae3c3b39b7778f22145cf269ce8b2e25550fa41",
      "blockNumber": 110244,
      "transactionIndex": 0,
      "confirmations": null,
      "from": "0xb9836ec1f42Bd48331bceaedb74a6Bcdc22832bD",
      "gasPrice": {
        "_hex": "0xdc0b6eee4"
      },
      "gasLimit": {
        "_hex": "0x7530"
      },
      "to": "0x7cB57B5A97eAbe94205C07890BE4c1aD31E486A8",
      "value": {
        "_hex": "0xe8d4a51000"
      },
      "nonce": 17,
      "data": "0x00",
      "r": "0x02a32c22361b07ab9327f2b9e0315322797a3ee34e25fc551afcbbfc369197d0",
      "s": "0xb7accc923e5f48e77120f72707c1ae204428f412c5c0467498f8067e6a098ea3",
      "v": 27,
      "creates": null,
      "raw": "0xf86911850dc0b6eee4827530947cb57b5a97eabe94205c07890be4c1ad31e486a885e8d4a51000001ba002a32c22361b07ab9327f2b9e0315322797a3ee34e25fc551afcbbfc369197d0a0b7accc923e5f48e77120f72707c1ae204428f412c5c0467498f8067e6a098ea3",
      "networkId": 0,
      "chainId": 0
    },
    {
      "hash": "0x638de275275f7023ae20b75233eb6ef08f856b6dd7e480673e472b5346a6eeb2",
      "blockHash": "0x8c9b5d4489650dbf64aa5409bae3c3b39b7778f22145cf269ce8b2e25550fa41",
      "blockNumber": 110244,
      "transactionIndex": 1,
      "confirmations": null,
      "from": "0x718d2DE7755FE6395eCa6532128EeBe7dE370eD6",
      "gasPrice": {
        "_hex": "0xba43b7400"
      },
      "gasLimit": {
        "_hex": "0x7530"
      },
      "to": "0xeeb66aFe554366d685C7832C6c93727Ba577378D",
      "value": {
        "_hex": "0x27f7d0bdb920000"
      },
      "nonce": 0,
      "data": "0x",
      "r": "0x20027508ea09e42d9a5bbad92ac4441e7ca3ff47b747c77ef578dc7b7b901ebf",
      "s": "0x5089b55bc5d18bbd2c0a1a94232b64de90e5cc2ea30eda221d1a598baffe3dcb",
      "v": 28,
      "creates": null,
      "raw": "0xf86c80850ba43b740082753094eeb66afe554366d685c7832c6c93727ba577378d88027f7d0bdb920000801ca020027508ea09e42d9a5bbad92ac4441e7ca3ff47b747c77ef578dc7b7b901ebfa05089b55bc5d18bbd2c0a1a94232b64de90e5cc2ea30eda221d1a598baffe3dcb",
      "networkId": 0,
      "chainId": 0
    }
  ]
}