{
  "hash": "0x2c1edc19bf0f7fcddba79445b1571be76433e8c53f3be33133c1b504830d4d5b",
  "parentHash": "0x528fbec9da201be052e2c19552ef69b823d1b03aad8f2447218fae30986cebee",
  "number": 69819,
  "timestamp": 1439310151,
  "nonce": "0x6f4a8d8b06350479",
  "difficulty": 2099344423480,
  "gasLimit": {
    "_hex": "0x2fefd8"
  },
  "gasUsed": {
    "_hex": "0xa410"
  },
  "miner": "0x9746c7e1ef2bd21FF3997fa467593a89cb852BD0",
  "extraData": "0x476574682f76312e302e312f77696e646f77732f676f312e342e32",
  "transactions": [
    {
      "hash": "0x9ceeaebf4ae851a31e5009543caab0d470349f81e032e0ca7048d57bbda6618a",
      "blockHash": "0x2c1edc19bf0f7fcddba79445b1571be76433e8c53f3be33133c1b504830d4d5b",
      "blockNumber": 69819,
      "transactionIndex": 0,
      "confirmations": null,
      "from": "0xE12517204a15E890f12755207271102F4800A0c4",
      "gasPrice": {
        "_hex": "0xd5ad349bf"
      },
      "gasLimit": {
        "_hex": "0x5208"
      },
      "to": "0x32Be343B94f860124dC4fEe278FDCBD38C102D88",
      "value": {
        "_hex": "0x2b5df679332c28000"
      },
      "nonce": 3,
      "data": "0x",
      "r": "0x4c1a51695f6ed08d6cd98bf6c008244335423fb6e34ae0f4b5ea5f155e018ea8",
      "s": "0x1d89ea83fe0fba930295a4623f5f2217559d58a33e8be36f21558f116ca9b155",
      "v": 27,
      "creates": null,
      "raw": "0xf86d03850d5ad349bf8252089432be343b94f860124dc4fee278fdcbd38c102d888902b5df679332c28000801ba04c1a51695f6ed08d6cd98bf6c008244335423fb6e34ae0f4b5ea5f155e018ea8a01d89ea83fe0fba930295a4623f5f2217559d58a33e8be36f21558f116ca9b155",
      "networkId": 0,
      "chainId": 0
    },
    {
      "hash": "0x47e0493d410041b233bdf115844758cc29caafe00df6e6fc4f84239696cb7424",
      "blockHash": "0x2c1edc19bf0f7fcddba79445b1571be76433e8c53f3be33133c1b504830d4d5b",
      "blockNumber": 69819,
      "transactionIndex": 1,
      "confirmations": null,
      "from": "0x796fB5FF91099467f7669c8FB0C68739Fd3a9e40",
      "gasPrice": {
        "_hex": "0xd5ad349bf"
      },
      "gasLimit": {
        "_hex": "0x5208"
      },
      "to": "0x32Be343B94f860124dC4fEe278FDCBD38C102D88",
      "value": {
        "_hex": "0x6c6b8f14083e7c0000"
      },
      "nonce": 2,
      "data": "0x",
      "r": "0xa3fe6c24b46d694d8622bfb0e8f657bce09c7f5480fe546aa2ed9a89bbd32deb",
      "s": "0x4d0134d2a7ef7a2ca31da5546a6eb258ed4d98032594938e596a0f9e0ec44c65",
      "v": 27,
      "creates": null,
      "raw": "0xf86d02850d5ad349bf8252089432be343b94f860124dc4fee278fdcbd38c102d88896c6b8f14083e7c0000801ba0a3fe6c24b46d694d8622bfb0e8f657bce09c7f5480fe546aa2ed9a89bbd32deba04d0134d2a7ef7a2ca31da5546a6eb258ed4d98032594938e596a0f9e0ec44c65",
      "networkId": 0,
      "chainId": 0
    }
  ]
}