{
  "hash": "0xc02bee6d71567057b5ea596e5bde29e0845b6c20cdb3c6b48f72457ad3bde820",
  "parentHash": "0x8bce1b8a8c329608e2c080166a1ba0a3e361e7a8ee475c689b574dca22eabb32",
  "number": 110743,
  "timestamp": 1439978676,
  "nonce": "0xf032bc9d3e16666a",
  "difficulty": 4401141070867,
  "gasLimit": {
    "_hex": "0x2fefd8"
  },
  "gasUsed": {
    "_hex": "0x5208"
  },
  "miner": "0x9746c7e1ef2bd21FF3997fa467593a89cb852BD0",
  "extraData": "0x476574682f76312e302e312f77696e646f77732f676f312e342e32",
  "transactions": [
    {
      "hash": "0xba96199c6a78253ff2da5d937b3fb96c2db2fbec9cecd707cef4320bb3fdecbb",
      "blockHash": "0xc02bee6d71567057b5ea596e5bde29e0845b6c20cdb3c6b48f72457ad3bde820",
      "blockNumber": 110743,
      "transactionIndex": 0,
      "confirmations": null,
      "from": "0x0F87Fb507513e749081E34373c84E95e85b5c057",
      "gasPrice": {
        "_hex": "0xdb619b001"
      },
      "gasLimit": {
        "_hex": "0x15f90"
      },
      "to": "0x54dAeb3E8a6BBC797E4aD2b0339f134b186e4637",
      "value": {
        "_hex": "0xde0b6b3a7640000"
      },
      "nonce": 10,
      "data": "0x",
      "r": "0xd26bc05e42bc5a93ea5608f682f4fdb32bea658baa1b9a22e14873a4785102c2",
      "s": "0x441308b07152f8bd4ec88e1c0f3b3b1e0d9f2df638d6d068be02340a8544d92e",
      "v": 27,
      "creates": null,
      "raw": "0xf86d0a850db619b00183015f909454daeb3e8a6bbc797e4ad2b0339f134b186e4637880de0b6b3a7640000801ba0d26bc05e42bc5a93ea5608f682f4fdb32bea658baa1b9a22e14873a4785102c2a0441308b07152f8bd4ec88e1c0f3b3b1e0d9f2df638d6d068be02340a8544d92e",
      "networkId": 0,
      "chainId": 0
    }
  ]
}