{
  "hash": "0x915f9427d52de96856da62bbedf269e21c7b0ec76891fc63371cf9080692f070",
  "parentHash": "0xd48159a83b147808879e746b7af228cc2652c2648f48bf6e38b7a6a586167ca1",
  "number": 107546,
  "timestamp": 1439924310,
  "nonce": "0x8093bb0a39d4e6c8",
  "difficulty": 4413580920957,
  "gasLimit": {
    "_hex": "0x2fefd8"
  },
  "gasUsed": {
    "_hex": "0x5208"
  },
  "miner": "0xe6A7a1d47ff21B6321162AEA7C6CB457D5476Bca",
  "extraData": "0x476574682f76312e302e312d38326566323666362f6c696e75782f676f312e34",
  "transactions": [
    {
      "hash": "0xf6db748b35a793ba4c1854bbc69519bbf8565a497f95f02f3663e62c989659e4",
      "blockHash": "0x915f9427d52de96856da62bbedf269e21c7b0ec76891fc63371cf9080692f070",
      "blockNumber": 107546,
      "transactionIndex": 0,
      "confirmations": null,
      "from": "0x68526A5784E51B897B4B78ACf01012bF8777e589",
      "gasPrice": {
        "_hex": "0xd953695d0"
      },
      "gasLimit": {
        "_hex": "0x30d40"
      },
      "to": "0x120A270bbC009644e35F0bB6ab13f95b8199c4ad",
      "value": {
        "_hex": "0x8bdd6deda2fffc00"
      },
      "nonce": 0,
      "data": "0x",
      "r": "0xf1d92a3ca2e51c6b758141c27de4b21dd161157ef9e2b25b7b8a5ea53df8e060",
      "s": "0x009e322ba9db6cf5d2c071cdf0f8000d0dba769ad93478bba236dde134071a2c",
      "v": 27,
      "creates": null,
      "raw": "0xf86c80850d953695d083030d4094120a270bbc009644e35f0bb6ab13f95b8199c4ad888bdd6deda2fffc00801ba0f1d92a3ca2e51c6b758141c27de4b21dd161157ef9e2b25b7b8a5ea53df8e0609f9e322ba9db6cf5d2c071cdf0f8000d0dba769ad93478bba236dde134071a2c",
      "networkId": 0,
      "chainId": 0
    }
  ]
}