{
  "hash": "0x71a89e9467fe89b70fcc803e65df3a94279127f43d4edc423c12cab096660d00",
  "parentHash": "0x8f175e6bf28c1689a89c065521af6a9b68a5a8b28eac8ab8a4353990b5268267",
  "number": 89869,
  "timestamp": 1439630467,
  "nonce": "0xcb0d0c090ef39566",
  "difficulty": 3336943670942,
  "gasLimit": {
    "_hex": "0x2fefd8"
  },
  "gasUsed": {
    "_hex": "0xf618"
  },
  "miner": "0x88D74a59454F6cF3B51ef6b9136AFb6b9D405A88",
  "extraData": "0x476574682f76312e302e312d37666266393930632f6c696e75782f676f312e34",
  "transactions": [
    {
      "hash": "0x7ae5d7a679582972dc975131087dd37e46bb3ec136f2bb3e2d826b70663f0481",
      "blockHash": "0x71a89e9467fe89b70fcc803e65df3a94279127f43d4edc423c12cab096660d00",
      "blockNumber": 89869,
      "transactionIndex": 0,
      "confirmations": null,
      "from": "0x78FF59159FAfb4a337fd158FcF8D9603a7c6f03a",
      "gasPrice": {
        "_hex": "0xd14a35788"
      },
      "gasLimit": {
        "_hex": "0x5208"
      },
      "to": "0x32Be343B94f860124dC4fEe278FDCBD38C102D88",
      "value": {
        "_hex": "0x142ef8cb2fb9bc000"
      },
      "nonce": 1,
      "data": "0x",
      "r": "0x31d959705d109d7d8ac6ba07650d760567987b3a583b72e72abed9c1c26a24e1",
      "s": "0x3cffbf2d8d871c4959d7fcb0bdf4efb4685763ca6221ce9794cb4aa414c074e7",
      "v": 28,
      "creates": null,
      "raw": "0xf86d01850d14a357888252089432be343b94f860124dc4fee278fdcbd38c102d88890142ef8cb2fb9bc000801ca031d959705d109d7d8ac6ba07650d760567987b3a583b72e72abed9c1c26a24e1a03cffbf2d8d871c4959d7fcb0bdf4efb4685763ca6221ce9794cb4aa414c074e7",
      "networkId": 0,
      "chainId": 0
    },
    {
      "hash": "0xa98041ff7b68682650dbcc0a7d2ce6bde92e91741895f52c08d133ebcf797721",
      "blockHash": "0x71a89e9467fe89b70fcc803e65df3a94279127f43d4edc423c12cab096660d00",
      "blockNumber": 89869,
      "transactionIndex": 1,
      "confirmations": null,
      "from": "0x8C37447a7930187595EC51FEA6f749C4F8a96cD4",
      "gasPrice": {
        "_hex": "0xd14a35788"
      },
      "gasLimit": {
        "_hex": "0x5208"
      },
      "to": "0x32Be343B94f860124dC4fEe278FDCBD38C102D88",
      "value": {
        "_hex": "0x146b47ea9d1642000"
      },
      "nonce": 2,
      "data": "0x",
      "r": "0x493a34b406bed1954afe63eef619a239bb44bed0625c77911e5ba6fc90da24b9",
      "s": "0x5ead7697fe178f36949b221d79c18e6955cddd4c62659917bad71b88ace5408b",
      "v": 28,
      "creates": null,
      "raw": "0xf86d02850d14a357888252089432be343b94f860124dc4fee278fdcbd38c102d88890146b47ea9d1642000801ca0493a34b406bed1954afe63eef619a239bb44bed0625c77911e5ba6fc90da24b9a05ead7697fe178f36949b221d79c18e6955cddd4c62659917bad71b88ace5408b",
      "networkId": 0,
      "chainId": 0
    },
    {
      "hash": "0x51e223f29563df16ad9e8062f1c9e5fb99eb8b44560b5c7100e18e4d741a0108",
      "blockHash": "0x71a89e9467fe89b70fcc803e65df3a94279127f43d4edc423c12cab096660d00",
      "blockNumber": 89869,
      "transactionIndex": 2,
      "confirmations": null,
      "from": "0xe535C1c29F0091324F184de7a5be5520D1b0b008",
      "gasPrice": {
        "_hex": "0xd14a35788"
      },
      "gasLimit": {
        "_hex": "0x5208"
      },
      "to": "0x32Be343B94f860124dC4fEe278FDCBD38C102D88",
      "value": {
        "_hex": "0x5afe9d6895003800"
      },
      "nonce": 2,
      "data": "0x",
      "r": "0x18b0d04223d533e3ee17a95e639bac2934c32eeab3e10359402fb94e562b0617",
      "s": "0x06547c02f03c26e07c4981ed96c1da8c24583dd715f1c63c3df4a5d6e3e31252",
      "v": 28,
      "creates": null,
      "raw": "0xf86c02850d14a357888252089432be343b94f860124dc4fee278fdcbd38c102d88885afe9d6895003800801ca018b0d04223d533e3ee17a95e639bac2934c32eeab3e10359402fb94e562b0617a006547c02f03c26e07c4981ed96c1da8c24583dd715f1c63c3df4a5d6e3e31252",
      "networkId": 0,
      "chainId": 0
    }
  ]
}