{
  "hash": "0xce73f2c101bc8be8a81563e7217e7e066b3d88b9d7d1723343bdbd2df87abb9b",
  "parentHash": "0xda917ff88cdb0ab27b4a9afab6648c0b3b200616ccdedc234f6673c56f95ff75",
  "number": 108186,
  "timestamp": 1439935802,
  "nonce": "0xf9e1554dc3e90126",
  "difficulty": 4366090026741,
  "gasLimit": {
    "_hex": "0x2fefd8"
  },
  "gasUsed": {
    "_hex": "0x5208"
  },
  "miner": "0x580992B51e3925e23280EfB93d3047C82f17E038",
  "extraData": "0x476574682f76312e302e312f6c696e75782f676f312e342e32",
  "transactions": [
    {
      "hash": "0x39db0623db9dab0659469efe0fba0c6c41e803dc7fdc90bf745fca9780e9623f",
      "blockHash": "0xce73f2c101bc8be8a81563e7217e7e066b3d88b9d7d1723343bdbd2df87abb9b",
      "blockNumber": 108186,
      "transactionIndex": 0,
      "confirmations": null,
      "from": "0xf89583486CA3C0c21C34400638aBE4b53F993457",
      "gasPrice": {
        "_hex": "0xd53d65c00"
      },
      "gasLimit": {
        "_hex": "0x7a120"
      },
      "to": "0xBBDa93a81B882774e1c9b5e3F933Fa35DaC8bc88",
      "value": {
        "_hex": "0xcf7911caa0170000"
      },
      "nonce": 2,
      "data": "0x",
      "r": "0xe91e84585f056a43dfff7afb4a9d93771a9accb1be5c368434b3def21855529e",
      "s": "0x76db6e70c1d0afdf78b637c90c13d2e420c883c902f03c95a760f21d946db3d4",
      "v": 27,
      "creates": null,
      "raw": "0xf86d02850d53d65c008307a12094bbda93a81b882774e1c9b5e3f933fa35dac8bc8888cf7911caa0170000801ba0e91e84585f056a43dfff7afb4a9d93771a9accb1be5c368434b3def21855529ea076db6e70c1d0afdf78b637c90c13d2e420c883c902f03c95a760f21d946db3d4",
      "networkId": 0,
      "chainId": 0
    }
  ]
}