{
  "hash": "0xbd43a3bed61fe21ec42fcebc19437403a7e0862a9d54bb2d06f1f9427355db79",
  "parentHash": "0xb9fac5a012d66d22fba943537adb1b264b0f9ad9e0ca56d87642c7a11bf36fd1",
  "number": 46849,
  "timestamp": 1438930285,
  "nonce": "0xbb30088ffffffa4e",
  "difficulty": 1458160668523,
  "gasLimit": {
    "_hex": "0x7eee"
  },
  "gasUsed": {
    "_hex": "0x5208"
  },
  "miner": "0xeB1325C8D9d3ea8D74aC11F4B00F1B2367686319",
  "extraData": "0x476574682f76312e302e312f77696e646f77732f676f312e342e32",
  "transactions": [
    {
      "hash": "0xcb5f944b4e9443a2d8595262a7362282657ce71744a953bc8c3b70d2533a0331",
      "blockHash": "0xbd43a3bed61fe21ec42fcebc19437403a7e0862a9d54bb2d06f1f9427355db79",
      "blockNumber": 46849,
      "transactionIndex": 0,
      "confirmations": null,
      "from": "0xb583f9403De6C5B2c83D7e2DE9928331176071b8",
      "gasPrice": {
        "_hex": "0xd9f9e5d5f"
      },
      "gasLimit": {
        "_hex": "0x5208"
      },
      "to": "0x32Be343B94f860124dC4fEe278FDCBD38C102D88",
      "value": {
        "_hex": "0xd8d031fe30ab800000"
      },
      "nonce": 4,
      "data": "0x",
      "r": "0x696ba033f9779ee66109b432a5695a308b1648948485dd5ac6e9696b1f7e3805",
      "s": "0x68eb29d6d4da0fef530b79984032920b004c49059ffe909d9ca2286fa6d7fa3e",
      "v": 28,
      "creates": null,
      "raw": "0xf86d04850d9f9e5d5f8252089432be343b94f860124dc4fee278fdcbd38c102d8889d8d031fe30ab800000801ca0696ba033f9779ee66109b432a5695a308b1648948485dd5ac6e9696b1f7e3805a068eb29d6d4da0fef530b79984032920b004c49059ffe909d9ca2286fa6d7fa3e",
      "networkId": 0,
      "chainId": 0
    }
  ]
}