{
  "hash": "0x1750ecc6af0b20b8bd2f973ec35e5eeabb5394eec2d60fb4ea6b5bb4fcb26aa7",
  "parentHash": "0xd26d7b93cc3fdbb5bab003943e55727f9829ae1876db4f73d83c6a5b47ace817",
  "number": 53861,
  "timestamp": 1439044853,
  "nonce": "0x9555d55aced8b1ed",
  "difficulty": 1598576226397,
  "gasLimit": {
    "_hex": "0x2fefd8"
  },
  "gasUsed": {
    "_hex": "0xddfd"
  },
  "miner": "0x3F98e477a361F777DA14611a7e419A75Fd238b6b",
  "extraData": "0x476574682f76312e302e312f6c696e75782f676f312e342e32",
  "transactions": [
    {
      "hash": "0x162059a0cc1dffe9eb8263f197321b5bc03a20b7e34d89cca8ed759d184b8638",
      "blockHash": "0x1750ecc6af0b20b8bd2f973ec35e5eeabb5394eec2d60fb4ea6b5bb4fcb26aa7",
      "blockNumber": 53861,
      "transactionIndex": 0,
      "confirmations": null,
      "from": "0x3734Cb187491eDE713ae5b3b2D12284Af46B8101",
      "gasPrice": {
        "_hex": "0x106ce997e44"
      },
      "gasLimit": {
        "_hex": "0x7a120"
      },
      "to": "0xA327075af2a223A1C83a36aDa1126afE7430f955",
      "value": {
        "_hex": "0x8ac7230489e80000"
      },
      "nonce": 3,
      "data": "0x",
      "r": "0xdcbc3dfb7a5fef956abb3ba90c8bf793c7206ceac7c8981845f0d2c6bef63f06",
      "s": "0x5b9358e20aaaf22b5f72adb67190dab19af1da237d182e0552b4204b1f87183e",
      "v": 27,
      "creates": null,
      "raw": "0xf86e03860106ce997e448307a12094a327075af2a223a1c83a36ada1126afe7430f955888ac7230489e80000801ba0dcbc3dfb7a5fef956abb3ba90c8bf793c7206ceac7c8981845f0d2c6bef63f06a05b9358e20aaaf22b5f72adb67190dab19af1da237d182e0552b4204b1f87183e",
      "networkId": 0,
      "chainId": 0
    }
  ]
}