{
  "hash": "0x0231a743b8b9fe4c6dfc434a2c3a50f0316b398c7738ad5d1b9ddc9c6bb62ffe",
  "parentHash": "0xcca6433c959332ad3fd6b136d0b99ea4af72e816ca95e2e772dec88549aa870f",
  "number": 46639,
  "timestamp": 1438926645,
  "nonce": "0x60c79738cdf08f8e",
  "difficulty": 1453931361948,
  "gasLimit": {
    "_hex": "0x6d69"
  },
  "gasUsed": {
    "_hex": "0x5518"
  },
  "miner": "0xf927a40C8B7F6E07c5af7FA2155B4864a4112B13",
  "extraData": "0x476574682f76312e302e312f6c696e75782f676f312e342e32",
  "transactions": [
    {
      "hash": "0x1762d5d354f323648dab357cb85fac637a78ec6a8dbb4fa7da1e0373650313d1",
      "blockHash": "0x0231a743b8b9fe4c6dfc434a2c3a50f0316b398c7738ad5d1b9ddc9c6bb62ffe",
      "blockNumber": 46639,
      "transactionIndex": 0,
      "confirmations": null,
      "from": "0x0A63E1A8C33e351679e3581AC84ce341C32f813a",
      "gasPrice": {
        "_hex": "0x1195328a3dc"
      },
      "gasLimit": {
        "_hex": "0x6d35"
      },
      "to": "0x0000000000000000000000000000000000000000",
      "value": {
        "_hex": "0x0"
      },
      "nonce": 1,
      "data": "0x432ced046361727665720000000000000000000000000000000000000000000000000000",
      "r": "0x9a1a603b951bdefd0b6ba3ba8c8b43e616eda619994d98996ba8b605e768d8be",
      "s": "0x0cb7591d9574f584c007c79e2a48d958781479a3324e59f850b86a366ba81854",
      "v": 28,
      "creates": null,
      "raw": "0xf889018601195328a3dc826d3594000000000000000000000000000000000000000080a4432ced0463617276657200000000000000000000000000000000000000000000000000001ca09a1a603b951bdefd0b6ba3ba8c8b43e616eda619994d98996ba8b605e768d8bea00cb7591d9574f584c007c79e2a48d958781479a3324e59f850b86a366ba81854",
      "networkId": 0,
      "chainId": 0
    }
  ]
}