{
  "hash": "0x1755ee9c64f0113e1e40d5e4eb203c442c6eac658a9d722959343838a3441f5b",
  "parentHash": "0x05bd25253031ef0c0295ee80fbdadf55ff8ee82d23f35f3a4cc95c0a1df079cf",
  "number": 46470,
  "timestamp": 1438923695,
  "nonce": "0x70886f325f8de854",
  "difficulty": 1467512312034,
  "gasLimit": {
    "_hex": "0x62da"
  },
  "gasUsed": {
    "_hex": "0x5208"
  },
  "miner": "0x70C6b45fe0A5116E97B112B806A76E2F51E24413",
  "extraData": "0x476574682f76312e302e302f77696e646f77732f676f312e342e32",
  "transactions": [
    {
      "hash": "0xa7af255a5a192f110f0338f118e0304bedf016869f8e834a812ea4ad16af7073",
      "blockHash": "0x1755ee9c64f0113e1e40d5e4eb203c442c6eac658a9d722959343838a3441f5b",
      "blockNumber": 46470,
      "transactionIndex": 0,
      "confirmations": null,
      "from": "0xD2e57181beE0BF25a2E7D377EaCCec854Bd65334",
      "gasPrice": {
        "_hex": "0x746a528800"
      },
      "gasLimit": {
        "_hex": "0x5208"
      },
      "to": "0x32Be343B94f860124dC4fEe278FDCBD38C102D88",
      "value": {
        "_hex": "0x1a6b17100120aa000"
      },
      "nonce": 0,
      "data": "0x",
      "r": "0xfc10564adf630dc47d5707c7b40201d8718937f8f137907f14b3579429e94b89",
      "s": "0x432efc4f7f7c4a8c700e6e11a166d229088c8ebf3c7b5f5020c46c84be4c910c",
      "v": 28,
      "creates": null,
      "raw": "0xf86d8085746a5288008252089432be343b94f860124dc4fee278fdcbd38c102d888901a6b17100120aa000801ca0fc10564adf630dc47d5707c7b40201d8718937f8f137907f14b3579429e94b89a0432efc4f7f7c4a8c700e6e11a166d229088c8ebf3c7b5f5020c46c84be4c910c",
      "networkId": 0,
      "chainId": 0
    }
  ]
}