{
  "hash": "0x4ca35a16dbde95fa52f8518849f8720d2c5704b5c9daa3f2421b70b65f358923",
  "parentHash": "0x54dd734f3edf101fde3cb41a53ce0b9850dfdc86e146bf8168f842d54b98dc59",
  "number": 115404,
  "timestamp": 1440056579,
  "nonce": "0x261fbb601ab678a4",
  "difficulty": 4571687664901,
  "gasLimit": {
    "_hex": "0x2fefd8"
  },
  "gasUsed": {
    "_hex": "0x5208"
  },
  "miner": "0x1a8E703197aCd1C0d3aB7ecD62dC01389F076E4b",
  "extraData": "0x476574682f76312e302e312f6c696e75782f676f312e342e32",
  "transactions": [
    {
      "hash": "0x838f8a59b9445f80f65a08bdc04481e7947b349e5e564be67257d59b4242c401",
      "blockHash": "0x4ca35a16dbde95fa52f8518849f8720d2c5704b5c9daa3f2421b70b65f358923",
      "blockNumber": 115404,
      "transactionIndex": 0,
      "confirmations": null,
      "from": "0x263D845A19110802000139cbb7a4BBF2B2B8d6C0",
      "gasPrice": {
        "_hex": "0xe18ba7936"
      },
      "gasLimit": {
        "_hex": "0x5208"
      },
      "to": "0x32Be343B94f860124dC4fEe278FDCBD38C102D88",
      "value": {
        "_hex": "0x55493f7a0f5c0000"
      },
      "nonce": 8,
      "data": "0x",
      "r": "0xc9e092c39f88a333dd7a2a26e03e18df444d0a20ba03a4596cc933f7ccd9f282",
      "s": "0x729bb94521d949891a4f61a1be1b8b02a728f1e795a64a46e44ca3d0ef1d4f90",
      "v": 27,
      "creates": null,
      "raw": "0xf86c08850e18ba79368252089432be343b94f860124dc4fee278fdcbd38c102d888855493f7a0f5c0000801ba0c9e092c39f88a333dd7a2a26e03e18df444d0a20ba03a4596cc933f7ccd9f282a0729bb94521d949891a4f61a1be1b8b02a728f1e795a64a46e44ca3d0ef1d4f90",
      "networkId": 0,
      "chainId": 0
    }
  ]
}