{
  "hash": "0xe2b38a96a6ed03deff4da613a075f8a40fcb4f3acedda5b2486bd198fa64f92d",
  "parentHash": "0x08c110afda8f9762369ffd45a694d27c11c6029bfd7185cfdff37d174f966d59",
  "number": 100394,
  "timestamp": 1439805807,
  "nonce": "0x1de11a4f61063571",
  "difficulty": 3807989780981,
  "gasLimit": {
    "_hex": "0x2fefd8"
  },
  "gasUsed": {
    "_hex": "0x5208"
  },
  "miner": "0x0eDEd3DA479d0beF8eeC92A76644D3f4E3C177f7",
  "extraData": "0x476574682f76312e302e312f6c696e75782f676f312e342e32",
  "transactions": [
    {
      "hash": "0x5242afc665aacc7f2a2a221cc7fcd37eb1f9ba8147b8692d198a3e06e7c2c3fc",
      "blockHash": "0xe2b38a96a6ed03deff4da613a075f8a40fcb4f3acedda5b2486bd198fa64f92d",
      "blockNumber": 100394,
      "transactionIndex": 0,
      "confirmations": null,
      "from": "0x2910543Af39abA0Cd09dBb2D50200b3E800A63D2",
      "gasPrice": {
        "_hex": "0xd54aa6ff7"
      },
      "gasLimit": {
        "_hex": "0x5208"
      },
      "to": "0x4C9655946498b117c7f144836Fe756541223e44b",
      "value": {
        "_hex": "0x8226e73797b3d8000"
      },
      "nonce": 952,
      "data": "0x",
      "r": "0x82c902348b84a780f1cd7fd2006dc286a42e407dd1d98b2abbe526b8b22dfb59",
      "s": "0x6e2adf160a2aa4d80978c885cc599fbb36f165a5ba52ea43bbfb96093c6f86c3",
      "v": 28,
      "creates": null,
      "raw": "0xf86f8203b8850d54aa6ff7825208944c9655946498b117c7f144836fe756541223e44b8908226e73797b3d8000801ca082c902348b84a780f1cd7fd2006dc286a42e407dd1d98b2abbe526b8b22dfb59a06e2adf160a2aa4d80978c885cc599fbb36f165a5ba52ea43bbfb96093c6f86c3",
      "networkId": 0,
      "chainId": 0
    }
  ]
}