{
  "hash": "0xafed3c9930fb9a7a55da7cf21b522749a9bbb1f0c58b77bae187c6b78199e1bd",
  "parentHash": "0xa7fc0e194071deeff194aa4c4600b727697c076f63457a5b0f2e5903519db42a",
  "number": 81717,
  "timestamp": 1439506524,
  "nonce": "0x64d232d984a689b2",
  "difficulty": 2427085490661,
  "gasLimit": {
    "_hex": "0x2fefd8"
  },
  "gasUsed": {
    "_hex": "0xf618"
  },
  "miner": "0xf927a40C8B7F6E07c5af7FA2155B4864a4112B13",
  "extraData": "0x",
  "transactions": [
    {
      "hash": "0x7b98005e6ecde25dcf31a1c0509f122ed09cdf85831e52bb3d9c0454924480d8",
      "blockHash": "0xafed3c9930fb9a7a55da7cf21b522749a9bbb1f0c58b77bae187c6b78199e1bd",
      "blockNumber": 81717,
      "transactionIndex": 0,
      "confirmations": null,
      "from": "0x32Be343B94f860124dC4fEe278FDCBD38C102D88",
      "gasPrice": {
        "_hex": "0xcba9e43eb"
      },
      "gasLimit": {
        "_hex": "0x5208"
      },
      "to": "0x5F28bcc5faFC8982536A9e4be559657998CdE1E3",
      "value": {
        "_hex": "0x57201c24f5efb8000"
      },
      "nonce": 611,
      "data": "0x",
      "r": "0xfc25d3a6ef74f84cd1cd279aa7e982f821638ff17a68586a0c06a19cefe0a0e2",
      "s": "0x049b6ae95d3632e5e25918b0c3a24650b407f158209fe55557be0bebbddc3056",
      "v": 27,
      "creates": null,
      "raw": "0xf86f820263850cba9e43eb825208945f28bcc5fafc8982536a9e4be559657998cde1e389057201c24f5efb8000801ba0fc25d3a6ef74f84cd1cd279aa7e982f821638ff17a68586a0c06a19cefe0a0e2a0049b6ae95d3632e5e25918b0c3a24650b407f158209fe55557be0bebbddc3056",
      "networkId": 0,
      "chainId": 0
    },
    {
      "hash": "0xa590022411de46cf2a17f6fa44a6c811ad0206275601332be9348379620272c8",
      "blockHash": "0xafed3c9930fb9a7a55da7cf21b522749a9bbb1f0c58b77bae187c6b78199e1bd",
      "blockNumber": 81717,
      "transactionIndex": 1,
      "confirmations": null,
      "from": "0x32Be343B94f860124dC4fEe278FDCBD38C102D88",
      "gasPrice": {
        "_hex": "0xcba9e43eb"
      },
      "gasLimit": {
        "_hex": "0x5208"
      },
      "to": "0x7368f28fdD7237E9557E2A34E15e1e618BA851d4",
      "value": {
        "_hex": "0xa6497463151200000"
      },
      "nonce": 612,
      "data": "0x",
      "r": "0x799cb7108ee77233d2cdf9930f0ed1e29c4af74bc5e48335cabefd2099c87deb",
      "s": "0x6a52ecbcf39c14e6b12c49112c36bd7783ea8334799f7072aef3b9698ac6d899",
      "v": 27,
      "creates": null,
      "raw": "0xf86f820264850cba9e43eb825208947368f28fdd7237e9557e2a34e15e1e618ba851d4890a6497463151200000801ba0799cb7108ee77233d2cdf9930f0ed1e29c4af74bc5e48335cabefd2099c87deba06a52ecbcf39c14e6b12c49112c36bd7783ea8334799f7072aef3b9698ac6d899",
      "networkId": 0,
      "chainId": 0
    },
    {
      "hash": "0x43765b3e54024f534d73ecba0038e32207135152992627e581d03e78f37eb2b0",
      "blockHash": "0xafed3c9930fb9a7a55da7cf21b522749a9bbb1f0c58b77bae187c6b78199e1bd",
      "blockNumber": 81717,
      "transactionIndex": 2,
      "confirmations": null,
      "from": "0x3faFe90631678f97C1D101ea02D4cd743cBD24ed",
      "gasPrice": {
        "_hex": "0xba43b7400"
      },
      "gasLimit": {
        "_hex": "0x5208"
      },
      "to": "0xC47Aaa860008be6f65B58c6C6E02a84e666EfE31",
      "value": {
        "_hex": "0x454e1310e0009dc0"
      },
      "nonce": 0,
      "data": "0x",
      "r": "0xab764a5b7aa77118f8e13abb932386470044c23e91e189be193b3a530cb04425",
      "s": "0x4db5cee3e7b97edb30c265266883adb535bb5797fbf5b65afbe47016c5a4d7ed",
      "v": 28,
      "creates": null,
      "raw": "0xf86c80850ba43b740082520894c47aaa860008be6f65b58c6c6e02a84e666efe3188454e1310e0009dc0801ca0ab764a5b7aa77118f8e13abb932386470044c23e91e189be193b3a530cb04425a04db5cee3e7b97edb30c265266883adb535bb5797fbf5b65afbe47016c5a4d7ed",
      "networkId": 0,
      "chainId": 0
    }
  ]
}