{
  "hash": "0x14d05622bd642d382bc8a80632393454293c05bc392db096c69370206b20f55b",
  "parentHash": "0xe09fa9ca699bf0150deb6766eec5d081eb308062e11d0b70c814e686b534569f",
  "number": 101528,
  "timestamp": 1439824272,
  "nonce": "0xa4a310bb9579b38b",
  "difficulty": 3871212687189,
  "gasLimit": {
    "_hex": "0x2fefd8"
  },
  "gasUsed": {
    "_hex": "0xa410"
  },
  "miner": "0x77EC9ad4A7E9418774C29415CAaF4Ee0da96eF64",
  "extraData": "0x",
  "transactions": [
    {
      "hash": "0x517b3a707422e8907d6b5b5ac62bc45b8a04c07175b09b1869fd2e4fae95350f",
      "blockHash": "0x14d05622bd642d382bc8a80632393454293c05bc392db096c69370206b20f55b",
      "blockNumber": 101528,
      "transactionIndex": 0,
      "confirmations": null,
      "from": "0x120A270bbC009644e35F0bB6ab13f95b8199c4ad",
      "gasPrice": {
        "_hex": "0xd8b52faf1"
      },
      "gasLimit": {
        "_hex": "0x3d090"
      },
      "to": "0x36B33F21Ba59c53E3502E52b8e0a7fD311215FFd",
      "value": {
        "_hex": "0x2644fed1b185286000"
      },
      "nonce": 679,
      "data": "0x",
      "r": "0x2799067ae50d1f670793212e7a5d35fea2930af755afde77236d67a28b150bb3",
      "s": "0x56f181066aa3f584dbe1908152893648044a74dd759c6a9c9680d95b0e72aaaf",
      "v": 27,
      "creates": null,
      "raw": "0xf8708202a7850d8b52faf18303d0909436b33f21ba59c53e3502e52b8e0a7fd311215ffd892644fed1b185286000801ba02799067ae50d1f670793212e7a5d35fea2930af755afde77236d67a28b150bb3a056f181066aa3f584dbe1908152893648044a74dd759c6a9c9680d95b0e72aaaf",
      "networkId": 0,
      "chainId": 0
    },
    {
      "hash": "0x129801551d988fd099b055ff1bd1fe355ee40bb53a269032270c4b4428c683de",
      "blockHash": "0x14d05622bd642d382bc8a80632393454293c05bc392db096c69370206b20f55b",
      "blockNumber": 101528,
      "transactionIndex": 1,
      "confirmations": null,
      "from": "0x120A270bbC009644e35F0bB6ab13f95b8199c4ad",
      "gasPrice": {
        "_hex": "0xd8b52faf1"
      },
      "gasLimit": {
        "_hex": "0x3d090"
      },
      "to": "0xdDbddD1BBd38fFADE0305d30f02028D92e9f3Aa8",
      "value": {
        "_hex": "0x1533a2e9fc53438800"
      },
      "nonce": 680,
      "data": "0x",
      "r": "0x5ff502cf6abfb446123a25d952ee9f3d780ad907915ef26739d0aa21fe780644",
      "s": "0x303b9fbc5a1eb0cf6c2e04ed5b3107223606782cbfb68a4631b9425046e7764a",
      "v": 28,
      "creates": null,
      "raw": "0xf8708202a8850d8b52faf18303d09094ddbddd1bbd38ffade0305d30f02028d92e9f3aa8891533a2e9fc53438800801ca05ff502cf6abfb446123a25d952ee9f3d780ad907915ef26739d0aa21fe780644a0303b9fbc5a1eb0cf6c2e04ed5b3107223606782cbfb68a4631b9425046e7764a",
      "networkId": 0,
      "chainId": 0
    }
  ]
}