{
  "hash": "0xc82eff655f378a743155dcfe497bedf04de8237ef1f515cfd16b7d85d9199f83",
  "parentHash": "0x948ddb8270010f59a079aa65d8dbb818d8f6ed440ec56f2ef6165d55bc301d3d",
  "number": 78442,
  "timestamp": 1439453807,
  "nonce": "0xc8272a5629260387",
  "difficulty": 2290971785630,
  "gasLimit": {
    "_hex": "0x2fefd8"
  },
  "gasUsed": {
    "_hex": "0x5208"
  },
  "miner": "0x98f7A0eDF3E25675482cA52480B7e07cA828a4b9",
  "extraData": "0x476574682f76312e302e312f6c696e75782f676f312e342e32",
  "transactions": [
    {
      "hash": "0xb67fa69e7bd4bf401e8dd4c6ecb150a8246a0ae358cd354b158d5d4d6f86699f",
      "blockHash": "0xc82eff655f378a743155dcfe497bedf04de8237ef1f515cfd16b7d85d9199f83",
      "blockNumber": 78442,
      "transactionIndex": 0,
      "confirmations": null,
      "from": "0xf4B1114a02EFe852013277F28ed88734Fa81E54f",
      "gasPrice": {
        "_hex": "0xd505309fd"
      },
      "gasLimit": {
        "_hex": "0x15f90"
      },
      "to": "0x4B11852B35058CBFB5a50c5a007b0c134927Fd8b",
      "value": {
        "_hex": "0x10"
      },
      "nonce": 10,
      "data": "0x",
      "r": "0x2af8f4ff0404f5fcfbac98523dac8709f73ae7c0819a37e2dcdb8ecbd7f7f475",
      "s": "0x6cbbd118cb93d03ecd4b1cfa3268ea8b6428d980c164d9fa006939e91b79878b",
      "v": 28,
      "creates": null,
      "raw": "0xf8650a850d505309fd83015f90944b11852b35058cbfb5a50c5a007b0c134927fd8b10801ca02af8f4ff0404f5fcfbac98523dac8709f73ae7c0819a37e2dcdb8ecbd7f7f475a06cbbd118cb93d03ecd4b1cfa3268ea8b6428d980c164d9fa006939e91b79878b",
      "networkId": 0,
      "chainId": 0
    }
  ]
}