{
  "hash": "0xf518cfdbbfd56b59e05f526c71af9d88631cff1c635632891127c38b6aec74e0",
  "parentHash": "0x66f4646cc621e8c06239eddc0c556aef0ee83d1e77bea9a28cec22457317d28a",
  "number": 117433,
  "timestamp": 1440109425,
  "nonce": "0xa25fc047d7aabf5f",
  "difficulty": 4308365152630,
  "gasLimit": {
    "_hex": "0x2fefd8"
  },
  "gasUsed": {
    "_hex": "0x5208"
  },
  "miner": "0xe6A7a1d47ff21B6321162AEA7C6CB457D5476Bca",
  "extraData": "0xd783010002844765746887676f312e342e32856c696e7578",
  "transactions": [
    {
      "hash": "0x04b9e5904a30f45ee7e5acf78df39ea7a89aa9a19983fa6c4a519718502967eb",
      "blockHash": "0xf518cfdbbfd56b59e05f526c71af9d88631cff1c635632891127c38b6aec74e0",
      "blockNumber": 117433,
      "transactionIndex": 0,
      "confirmations": null,
      "from": "0xA10C59651885FeAaac91F871082a23BBbaBeDfCf",
      "gasPrice": {
        "_hex": "0xba43b7400"
      },
      "gasLimit": {
        "_hex": "0x5208"
      },
      "to": "0x4c74B6F32c9680aCB5Fe0e72B7Aa95C612540A04",
      "value": {
        "_hex": "0x3782dace9d900000"
      },
      "nonce": 44,
      "data": "0x",
      "r": "0xecc2fed061b58587eed9c1f665ea9b68bde9ff7245a958a0c923c17b2087dcb8",
      "s": "0x3f01c0c5eba32bb24f96de777f1f611886116d5d65aba32586ee9e3238669fae",
      "v": 28,
      "creates": null,
      "raw": "0xf86c2c850ba43b7400825208944c74b6f32c9680acb5fe0e72b7aa95c612540a04883782dace9d900000801ca0ecc2fed061b58587eed9c1f665ea9b68bde9ff7245a958a0c923c17b2087dcb8a03f01c0c5eba32bb24f96de777f1f611886116d5d65aba32586ee9e3238669fae",
      "networkId": 0,
      "chainId": 0
    }
  ]
}