{
  "hash": "0x56c19b437c19efbec8f6b982af5cf615acfe5ae06c39f7231a14934133f4fb53",
  "parentHash": "0x580bdcf1da3c843905845eaa1932269202d1ad59916b0948add899d59e392931",
  "number": 52604,
  "timestamp": 1439024178,
  "nonce": "0x25bd23b5b5a9fbfe",
  "difficulty": 1570190285546,
  "gasLimit": {
    "_hex": "0x162ea0"
  },
  "gasUsed": {
    "_hex": "0xf4240"
  },
  "miner": "0xf8E0CA3Ed80bd541b94BEdCf259e8CF2141A9523",
  "extraData": "0x476574682f76312e302e312f77696e646f77732f676f312e342e32",
  "transactions": [
    {
      "hash": "0xbd73a4edc8ebcbe2f282fdf494a4e145c2e6470866222e8711d49168324534d6",
      "blockHash": "0x56c19b437c19efbec8f6b982af5cf615acfe5ae06c39f7231a14934133f4fb53",
      "blockNumber": 52604,
      "transactionIndex": 0,
      "confirmations": null,
      "from": "0x54dAeb3E8a6BBC797E4aD2b0339f134b186e4637",
      "gasPrice": {
        "_hex": "0xdce5b224a"
      },
      "gasLimit": {
        "_hex": "0x7a120"
      },
      "to": "0xBAA54d6E90c3F4d7Ebec11bD180134C7eD8eBb52",
      "value": {
        "_hex": "0x16345785d8a0000"
      },
      "nonce": 787,
      "data": "0x",
      "r": "0x6bf5f76c5dc5d29fea06b244429068f3b35478b8950f42d64d32e0e2f8378805",
      "s": "0x4627f33f6f1870ae7bcee37288ff476118f1c434560aa3f10e3e7c8f92ceccbf",
      "v": 28,
      "creates": null,
      "raw": "0xf86f820313850dce5b224a8307a12094baa54d6e90c3f4d7ebec11bd180134c7ed8ebb5288016345785d8a0000801ca06bf5f76c5dc5d29fea06b244429068f3b35478b8950f42d64d32e0e2f8378805a04627f33f6f1870ae7bcee37288ff476118f1c434560aa3f10e3e7c8f92ceccbf",
      "networkId": 0,
      "chainId": 0
    },
    {
      "hash": "0x0cb20094f2478a23218befac4ef853d8f9ba931a5c9a239f91bd48e58416051e",
      "blockHash": "0x56c19b437c19efbec8f6b982af5cf615acfe5ae06c39f7231a14934133f4fb53",
      "blockNumber": 52604,
      "transactionIndex": 1,
      "confirmations": null,
      "from": "0x54dAeb3E8a6BBC797E4aD2b0339f134b186e4637",
      "gasPrice": {
        "_hex": "0xe1780dfbb"
      },
      "gasLimit": {
        "_hex": "0x7a120"
      },
      "to": "0xBAA54d6E90c3F4d7Ebec11bD180134C7eD8eBb52",
      "value": {
        "_hex": "0x16345785d8a0000"
      },
      "nonce": 788,
      "data": "0x",
      "r": "0xf2e95bbf4b63acf5afab079d7eb91d1bfb3302864e4364f7060e9e7cf6ce5251",
      "s": "0x2c6997aeb2ac4958cb0eda3d6c24d229c7ee88fbf7a4030fdc53fa808a043bae",
      "v": 28,
      "creates": null,
      "raw": "0xf86f820314850e1780dfbb8307a12094baa54d6e90c3f4d7ebec11bd180134c7ed8ebb5288016345785d8a0000801ca0f2e95bbf4b63acf5afab079d7eb91d1bfb3302864e4364f7060e9e7cf6ce5251a02c6997aeb2ac4958cb0eda3d6c24d229c7ee88fbf7a4030fdc53fa808a043bae",
      "networkId": 0,
      "chainId": 0
    }
  ]
}