{
  "hash": "0xa52b4705c3470330865df250eb7b210dc243b20a3d2fd26630924305eb23fd18",
  "parentHash": "0xd09020bce46e5e6593d0141ba66d0ca043d37c0061457d8969bfe91caefc1f8b",
  "number": 86454,
  "timestamp": 1439578505,
  "nonce": "0x0308170dd34020a9",
  "difficulty": 2893295030689,
  "gasLimit": {
    "_hex": "0x2fefd8"
  },
  "gasUsed": {
    "_hex": "0x5208"
  },
  "miner": "0xA21Ba94e45f0E168dA824fC67aC9cb5Cb577a8aF",
  "extraData": "0x",
  "transactions": [
    {
      "hash": "0xe81cf0aac23d63c92e097b517d715047f04b6af4ce41b622f7dbbcceba356474",
      "blockHash": "0xa52b4705c3470330865df250eb7b210dc243b20a3d2fd26630924305eb23fd18",
      "blockNumber": 86454,
      "transactionIndex": 0,
      "confirmations": null,
      "from": "0x120A270bbC009644e35F0bB6ab13f95b8199c4ad",
      "gasPrice": {
        "_hex": "0xd1ab6f2b6"
      },
      "gasLimit": {
        "_hex": "0x3d090"
      },
      "to": "0x233F3C75EBD6f86937dcc9ACC919c65CfB8D72aB",
      "value": {
        "_hex": "0x6c18163b6b848000"
      },
      "nonce": 476,
      "data": "0x",
      "r": "0x678fa82b0682590657dc2611afed454eb07002613b9c4e342e3dcce2250e4def",
      "s": "0x44e24358978021ff731aa59d503a4970275fcd8c5268c18967fde92c40c484fe",
      "v": 28,
      "creates": null,
      "raw": "0xf86f8201dc850d1ab6f2b68303d09094233f3c75ebd6f86937dcc9acc919c65cfb8d72ab886c18163b6b848000801ca0678fa82b0682590657dc2611afed454eb07002613b9c4e342e3dcce2250e4defa044e24358978021ff731aa59d503a4970275fcd8c5268c18967fde92c40c484fe",
      "networkId": 0,
      "chainId": 0
    }
  ]
}