{
  "hash": "0xa58bdcfab3d006da508131d240fe326acb06e2277efebef6d95dd06f60680f0b",
  "parentHash": "0xeca786e8d6bcce9cdb17a0a3f1a8c3c1bc842e135f4015f803591194e2770f11",
  "number": 71388,
  "timestamp": 1439335119,
  "nonce": "0x02ab608207e64145",
  "difficulty": 2181499095806,
  "gasLimit": {
    "_hex": "0x2fefd8"
  },
  "gasUsed": {
    "_hex": "0x93b2"
  },
  "miner": "0x88D74a59454F6cF3B51ef6b9136AFb6b9D405A88",
  "extraData": "0x476574682f76312e302e312d37666266393930632f6c696e75782f676f312e34",
  "transactions": [
    {
      "hash": "0x38b95b4f045670c905fb2b503e8fd7c2a170786d16a91600a36d31afba44b5ce",
      "blockHash": "0xa58bdcfab3d006da508131d240fe326acb06e2277efebef6d95dd06f60680f0b",
      "blockNumber": 71388,
      "transactionIndex": 0,
      "confirmations": null,
      "from": "0x17580B766f7453525ca4C6A88b01b50570EA088C",
      "gasPrice": {
        "_hex": "0xdd00c7ace"
      },
      "gasLimit": {
        "_hex": "0x61a80"
      },
      "to": "0x5Fe5B7546D1628f7348B023A0393de1FC825A4fD",
      "value": {
        "_hex": "0xde0b6b3a7640000"
      },
      "nonce": 169,
      "data": "0xb595b8b50000000000000000000000000000000000000000000000000000000000000000",
      "r": "0x04bf019d86c2d88eb587b527d122c957cdc574131c067e7f00b48fe956f5119d",
      "s": "0x48c7f184c841ec2975b261adadca7c60afd9f50bf8c0675c9eb4c68a831b7063",
      "v": 28,
      "creates": null,
      "raw": "0xf89281a9850dd00c7ace83061a80945fe5b7546d1628f7348b023a0393de1fc825a4fd880de0b6b3a7640000a4b595b8b500000000000000000000000000000000000000000000000000000000000000001ca004bf019d86c2d88eb587b527d122c957cdc574131c067e7f00b48fe956f5119da048c7f184c841ec2975b261adadca7c60afd9f50bf8c0675c9eb4c68a831b7063",
      "networkId": 0,
      "chainId": 0
    }
  ]
}