{
  "hash": "0x4ad06795aec21ae4166377902f61b8902df9b20c7e0b18a48c086b211492e1d7",
  "parentHash": "0xad22c56a010658d84dd06d7a7cd384425d8a58e198984ed1a0704a877a5b3007",
  "number": 113892,
  "timestamp": 1440031510,
  "nonce": "0xd9417035bba0d193",
  "difficulty": 4423182880616,
  "gasLimit": {
    "_hex": "0x2fefd8"
  },
  "gasUsed": {
    "_hex": "0x5208"
  },
  "miner": "0x7366ADF97960d404c38D975e1A8786bEb14B6507",
  "extraData": "0x476574682f76312e302e312f77696e646f77732f676f312e342e32",
  "transactions": [
    {
      "hash": "0xe0849d2c7e7b2844db9e2dc9249c9e5480d891429b43ec8c5d2ee439724301dc",
      "blockHash": "0x4ad06795aec21ae4166377902f61b8902df9b20c7e0b18a48c086b211492e1d7",
      "blockNumber": 113892,
      "transactionIndex": 0,
      "confirmations": null,
      "from": "0x9A6Ae9cEc80B30eFb1ca59E3074C6013CfDA582e",
      "gasPrice": {
        "_hex": "0xba43b7400"
      },
      "gasLimit": {
        "_hex": "0x5208"
      },
      "to": "0xC47Aaa860008be6f65B58c6C6E02a84e666EfE31",
      "value": {
        "_hex": "0xddcfbbb7a606000"
      },
      "nonce": 0,
      "data": "0x",
      "r": "0xb1d40f610c2eaa8cd49bdd9fdb581a99a0db936ce42574bc6ec9cc277cf7975f",
      "s": "0x26c66c42d849d85ad1fe1ef86268ddfe75377581d71e76321d5ffae4ab8aafaf",
      "v": 27,
      "creates": null,
      "raw": "0xf86c80850ba43b740082520894c47aaa860008be6f65b58c6c6e02a84e666efe31880ddcfbbb7a606000801ba0b1d40f610c2eaa8cd49bdd9fdb581a99a0db936ce42574bc6ec9cc277cf7975fa026c66c42d849d85ad1fe1ef86268ddfe75377581d71e76321d5ffae4ab8aafaf",
      "networkId": 0,
      "chainId": 0
    }
  ]
}