{
  "hash": "0x7e8c0846e7d8cd5d120c8fc1dce41793e393f8febd9c0e820058c32e86fd44f1",
  "parentHash": "0x43ab5663a3c6cb621acfb1e2fe3d824b5256e8b5aad6cb2f5f7c70a6578f6b9d",
  "number": 105677,
  "timestamp": 1439891738,
  "nonce": "0x6409050ca5722169",
  "difficulty": 4390916908165,
  "gasLimit": {
    "_hex": "0x2fefd8"
  },
  "gasUsed": {
    "_hex": "0x5208"
  },
  "miner": "0x47ff6576639c2e94762eA5443978D7681C0E78DC",
  "extraData": "0x",
  "transactions": [
    {
      "hash": "0x463dc041e5b5fdc0ed251c1909220c1e0c9fe2c86cb3659af883e9233ca49ced",
      "blockHash": "0x7e8c0846e7d8cd5d120c8fc1dce41793e393f8febd9c0e820058c32e86fd44f1",
      "blockNumber": 105677,
      "transactionIndex": 0,
      "confirmations": null,
      "from": "0xFAB194aC2F8437fAdDeC28952ae2B2CB4F588E38",
      "gasPrice": {
        "_hex": "0xdae68abb5"
      },
      "gasLimit": {
        "_hex": "0x15f90"
      },
      "to": "0x23f2D0fd3B4C98Fb1698564deB4898275E2e831f",
      "value": {
        "_hex": "0x1236efcbcbb340000"
      },
      "nonce": 3,
      "data": "0x",
      "r": "0xa11cfe9edcfe2f52108ca6f15bbf63941e5a8ba8818da57664889277b2961547",
      "s": "0x3a92ffb1aef3c08e67032f983844926688e2cf05e7df1bbfda446d9102c49f9e",
      "v": 27,
      "creates": null,
      "raw": "0xf86e03850dae68abb583015f909423f2d0fd3b4c98fb1698564deb4898275e2e831f8901236efcbcbb340000801ba0a11cfe9edcfe2f52108ca6f15bbf63941e5a8ba8818da57664889277b2961547a03a92ffb1aef3c08e67032f983844926688e2cf05e7df1bbfda446d9102c49f9e",
      "networkId": 0,
      "chainId": 0
    }
  ]
}