{
  "hash": "0x4aa0ef05ec9cd80094bbfada46463ccc0e269b17b383cb61e96e8b31844056c2",
  "parentHash": "0x0e1effc1379fa41a43c1adcbbef7ff293617dc7f2da28170ac527d9392f7333c",
  "number": 49893,
  "timestamp": 1438980742,
  "nonce": "0xeaf2cc12f2b7c09a",
  "difficulty": 1498038677868,
  "gasLimit": {
    "_hex": "0x447ea"
  },
  "gasUsed": {
    "_hex": "0x546c"
  },
  "miner": "0xe6A7a1d47ff21B6321162AEA7C6CB457D5476Bca",
  "extraData": "0x657468706f6f6c2e6f7267",
  "transactions": [
    {
      "hash": "0xd45803a0736e752d36bcbfe174614c5d5831e96247f5767502d019e1f9c7502f",
      "blockHash": "0x4aa0ef05ec9cd80094bbfada46463ccc0e269b17b383cb61e96e8b31844056c2",
      "blockNumber": 49893,
      "transactionIndex": 0,
      "confirmations": null,
      "from": "0xC7EAC31aBCE6d5F1Dea42202b6a674153dB47A29",
      "gasPrice": {
        "_hex": "0x110c8f7d8de"
      },
      "gasLimit": {
        "_hex": "0xc350"
      },
      "to": "0x2910543Af39abA0Cd09dBb2D50200b3E800A63D2",
      "value": {
        "_hex": "0x1ffbe5120bc8780000"
      },
      "nonce": 0,
      "data": "0x454e4d423031415438",
      "r": "0x9730a458eeb7c1f5f61861e29c5f4adc0198c649dab0e77219fe6e648bb72431",
      "s": "0x7f857a0dcbaf8dad532ac8f2031027d94f11fe7bc3849ab2b83743ab04af7212",
      "v": 27,
      "creates": null,
      "raw": "0xf87780860110c8f7d8de82c350942910543af39aba0cd09dbb2d50200b3e800a63d2891ffbe5120bc878000089454e4d4230314154381ba09730a458eeb7c1f5f61861e29c5f4adc0198c649dab0e77219fe6e648bb72431a07f857a0dcbaf8dad532ac8f2031027d94f11fe7bc3849ab2b83743ab04af7212",
      "networkId": 0,
      "chainId": 0
    }
  ]
}