{
  "hash": "0xd200336e7c4a6799814cb6bb95ad96c73a87cb8ed96875d267b2637129e29f20",
  "parentHash": "0xa20f0ef3d8ad7f7aec2ecebf042b2582e5c73e7503caec643a95591a746dfc50",
  "number": 66248,
  "timestamp": 1439251210,
  "nonce": "0x5afe3780519694ae",
  "difficulty": 1947150873009,
  "gasLimit": {
    "_hex": "0x2fefd8"
  },
  "gasUsed": {
    "_hex": "0x7c2d"
  },
  "miner": "0x8B454d830feF179e66206840F8F3D1d83bC32b17",
  "extraData": "0x476574682f76312e302e312f77696e646f77732f676f312e342e32",
  "transactions": [
    {
      "hash": "0xd966aa68435771078b7a5833f492af0037eaa3491c7c8a63da7859c3a6880c97",
      "blockHash": "0xd200336e7c4a6799814cb6bb95ad96c73a87cb8ed96875d267b2637129e29f20",
      "blockNumber": 66248,
      "transactionIndex": 0,
      "confirmations": null,
      "from": "0x9671195D09EDbE08bf945d66f637e59B5357afa2",
      "gasPrice": {
        "_hex": "0x1105a6767c1"
      },
      "gasLimit": {
        "_hex": "0x15f90"
      },
      "to": "0x125B606C67E8066Da65069652b656c19717745Fa",
      "value": {
        "_hex": "0x14a6701dc1c8000"
      },
      "nonce": 1,
      "data": "0xa55526db",
      "r": "0x413f255a7078c95e7207e5d7096f104c08023bf63308d53d230db07458c9e39a",
      "s": "0x5f1abfe0819d8155c53f3238afb8b89bbd8b52618e805413f8f9254eb2eaae00",
      "v": 28,
      "creates": null,
      "raw": "0xf872018601105a6767c183015f9094125b606c67e8066da65069652b656c19717745fa88014a6701dc1c800084a55526db1ca0413f255a7078c95e7207e5d7096f104c08023bf63308d53d230db07458c9e39aa05f1abfe0819d8155c53f3238afb8b89bbd8b52618e805413f8f9254eb2eaae00",
      "networkId": 0,
      "chainId": 0
    }
  ]
}