{
  "hash": "0x0c89fab2516b695a05cead25398b15c321893871afa984d709e6f8ab442ace16",
  "parentHash": "0xe4f1ed3ab86305f8018197f9f2851a60053e04443a7d629d696af03deef1e281",
  "number": 88529,
  "timestamp": 1439609462,
  "nonce": "0x2ca6f4f6fffe4315",
  "difficulty": 3231635949391,
  "gasLimit": {
    "_hex": "0x2fefd8"
  },
  "gasUsed": {
    "_hex": "0x546c"
  },
  "miner": "0xe6A7a1d47ff21B6321162AEA7C6CB457D5476Bca",
  "extraData": "0x476574682f76312e302e312d38326566323666362f6c696e75782f676f312e34",
  "transactions": [
    {
      "hash": "0x935c10578dd31ed5d0c6e4155e124ce4b8afd7c16fc6303cf3bf8bccb3bfad2f",
      "blockHash": "0x0c89fab2516b695a05cead25398b15c321893871afa984d709e6f8ab442ace16",
      "blockNumber": 88529,
      "transactionIndex": 0,
      "confirmations": null,
      "from": "0x7DE7Fe419Cc61F91F408D234cC80D5Ca3D054D99",
      "gasPrice": {
        "_hex": "0x110c8f7d8de"
      },
      "gasLimit": {
        "_hex": "0xc350"
      },
      "to": "0x2910543Af39abA0Cd09dBb2D50200b3E800A63D2",
      "value": {
        "_hex": "0x10e9deaaf401e0000"
      },
      "nonce": 0,
      "data": "0x454e553836344b5538",
      "r": "0x078aac02afddd6a02fc0601758daa7d7f905b4d0633896694f94ce0c1315d769",
      "s": "0x1d4b36eb112ba762c729a06220be63a4d4cc2f66001a1cc7d966855899e6fb00",
      "v": 28,
      "creates": null,
      "raw": "0xf87780860110c8f7d8de82c350942910543af39aba0cd09dbb2d50200b3e800a63d289010e9deaaf401e000089454e553836344b55381ca0078aac02afddd6a02fc0601758daa7d7f905b4d0633896694f94ce0c1315d769a01d4b36eb112ba762c729a06220be63a4d4cc2f66001a1cc7d966855899e6fb00",
      "networkId": 0,
      "chainId": 0
    }
  ]
}