{
  "hash": "0xfb69c591fa44ec67d331a45f55963db3fcda817d03ca4499f1dd8d26e71387d6",
  "parentHash": "0x16882ca4d72547800b8d482fa1438bc27113bad2af65f101663fa4876d12a0e7",
  "number": 71886,
  "timestamp": 1439343508,
  "nonce": "0x7a038a9e6289585b",
  "difficulty": 2168625501467,
  "gasLimit": {
    "_hex": "0x2fefd8"
  },
  "gasUsed": {
    "_hex": "0x93b2"
  },
  "miner": "0xe6A7a1d47ff21B6321162AEA7C6CB457D5476Bca",
  "extraData": "0x476574682f76312e302e312d38326566323666362f6c696e75782f676f312e34",
  "transactions": [
    {
      "hash": "0x531f8ac77f6c415159fb3b245a20f6566dac1b2ba16fec9de3aaff37c154aef1",
      "blockHash": "0xfb69c591fa44ec67d331a45f55963db3fcda817d03ca4499f1dd8d26e71387d6",
      "blockNumber": 71886,
      "transactionIndex": 0,
      "confirmations": null,
      "from": "0x17580B766f7453525ca4C6A88b01b50570EA088C",
      "gasPrice": {
        "_hex": "0xd8fda59fa"
      },
      "gasLimit": {
        "_hex": "0x61a80"
      },
      "to": "0x5Fe5B7546D1628f7348B023A0393de1FC825A4fD",
      "value": {
        "_hex": "0x29a2241af62c0000"
      },
      "nonce": 286,
      "data": "0xb595b8b50000000000000000000000000000000000000000000000000000000000000000",
      "r": "0xa283c4de8bf8dc772eb5413ae66fadeb33321844efccd4074611fb79d7810b8e",
      "s": "0x3d7c82615d2712cccf915db788ebf62ed612ee591761248f86dd955cf2dc9159",
      "v": 27,
      "creates": null,
      "raw": "0xf89382011e850d8fda59fa83061a80945fe5b7546d1628f7348b023a0393de1fc825a4fd8829a2241af62c0000a4b595b8b500000000000000000000000000000000000000000000000000000000000000001ba0a283c4de8bf8dc772eb5413ae66fadeb33321844efccd4074611fb79d7810b8ea03d7c82615d2712cccf915db788ebf62ed612ee591761248f86dd955cf2dc9159",
      "networkId": 0,
      "chainId": 0
    }
  ]
}