{
  "hash": "0x461e21bc19c93084501f0891223c49b069747b4ee3724142531deffebef19e4e",
  "parentHash": "0xe81e18decad4166dc42c694270238e3a42e9934e97e4f0ed5f213b1725401705",
  "number": 71137,
  "timestamp": 1439331459,
  "nonce": "0xd4ab6c7ff5229098",
  "difficulty": 2142505230852,
  "gasLimit": {
    "_hex": "0x2fefd8"
  },
  "gasUsed": {
    "_hex": "0xae73"
  },
  "miner": "0xbb7B8287f3F0a933474a79eAe42CBCa977791171",
  "extraData": "0x476574682f4c5649562f76312e302e312f6c696e75782f676f312e342e32",
  "transactions": [
    {
      "hash": "0xd5bb192d78a5e036ddfa7daee8e0b0374133795b353e52418c1ffa91546aa89f",
      "blockHash": "0x461e21bc19c93084501f0891223c49b069747b4ee3724142531deffebef19e4e",
      "blockNumber": 71137,
      "transactionIndex": 0,
      "confirmations": null,
      "from": "0x17580B766f7453525ca4C6A88b01b50570EA088C",
      "gasPrice": {
        "_hex": "0xde0c943fb"
      },
      "gasLimit": {
        "_hex": "0x61a80"
      },
      "to": "0x5Fe5B7546D1628f7348B023A0393de1FC825A4fD",
      "value": {
        "_hex": "0x1bc16d674ec80000"
      },
      "nonce": 115,
      "data": "0xb595b8b50000000000000000000000000000000000000000000000000000000000000000",
      "r": "0x2ef44bd76d74d3f052bd7c59781dc8be02087efd08dae811b0a4037a835618f8",
      "s": "0x11467d9a2a4174c9344b52fe36d9d19144ee0ed2f4dc6fa4e1d0be890a40c2da",
      "v": 28,
      "creates": null,
      "raw": "0xf89173850de0c943fb83061a80945fe5b7546d1628f7348b023a0393de1fc825a4fd881bc16d674ec80000a4b595b8b500000000000000000000000000000000000000000000000000000000000000001ca02ef44bd76d74d3f052bd7c59781dc8be02087efd08dae811b0a4037a835618f8a011467d9a2a4174c9344b52fe36d9d19144ee0ed2f4dc6fa4e1d0be890a40c2da",
      "networkId": 0,
      "chainId": 0
    }
  ]
}