{
  "hash": "0xa1f92260272b4603c0d4be8655f236001d61eaaca4b7b077d005447f4b5357bc",
  "parentHash": "0x57d1f4fb2f2df7d84103c15fbaa657bb7354223deb31b817875c75505939fabd",
  "number": 89791,
  "timestamp": 1439629263,
  "nonce": "0x7c4e00781dfd74ba",
  "difficulty": 3333717525138,
  "gasLimit": {
    "_hex": "0x2fefd8"
  },
  "gasUsed": {
    "_hex": "0x1ec30"
  },
  "miner": "0xC603Ab5ef41fC61AA8b76bEddb09e3Cfcbb174BD",
  "extraData": "0x476574682f76312e302e312f77696e646f77732f676f312e342e32",
  "transactions": [
    {
      "hash": "0x4d277abb2ff7eecbf97ac6ea7d8a9d17697bc7de9247dfb4fffbd5ecbac35591",
      "blockHash": "0xa1f92260272b4603c0d4be8655f236001d61eaaca4b7b077d005447f4b5357bc",
      "blockNumber": 89791,
      "transactionIndex": 0,
      "confirmations": null,
      "from": "0x1c69e6202df7794272b70FaEa8f7408c856B1f08",
      "gasPrice": {
        "_hex": "0xe29ee7d7a"
      },
      "gasLimit": {
        "_hex": "0x5208"
      },
      "to": "0x32Be343B94f860124dC4fEe278FDCBD38C102D88",
      "value": {
        "_hex": "0x67e0b2ab6b5a5c00"
      },
      "nonce": 5,
      "data": "0x",
      "r": "0x8efc3cb5b2ece256ccb7416fd93144f64edbd106920dd83ddceefd7476d3cc4a",
      "s": "0x2e37df8511fce85aaebdae5ced7f6cf974c0a7e172951474d278b0b2dd721cce",
      "v": 28,
      "creates": null,
      "raw": "0xf86c05850e29ee7d7a8252089432be343b94f860124dc4fee278fdcbd38c102d888867e0b2ab6b5a5c00801ca08efc3cb5b2ece256ccb7416fd93144f64edbd106920dd83ddceefd7476d3cc4aa02e37df8511fce85aaebdae5ced7f6cf974c0a7e172951474d278b0b2dd721cce",
      "networkId": 0,
      "chainId": 0
    },
    {
      "hash": "0x999532a8a6909442388a59d9807bc3a35a98a7d2eec9ef413cd752b297f658bf",
      "blockHash": "0xa1f92260272b4603c0d4be8655f236001d61eaaca4b7b077d005447f4b5357bc",
      "blockNumber": 89791,
      "transactionIndex": 1,
      "confirmations": null,
      "from": "0xCadcea36EC3feB740167E4370777fab1549F8759",
      "gasPrice": {
        "_hex": "0xe07e254aa"
      },
      "gasLimit": {
        "_hex": "0x5208"
      },
      "to": "0x32Be343B94f860124dC4fEe278FDCBD38C102D88",
      "value": {
        "_hex": "0x5b70bd399db97c00"
      },
      "nonce": 5,
      "data": "0x",
      "r": "0xef69319556c78c8bce733c84e569645268bb9f21f5792381099da9538c980c0f",
      "s": "0x55f69809f7def6231ad1a2dffa9bb432bb6b039594f24c8e5f4479dcf4fa9986",
      "v": 27,
      "creates": null,
      "raw": "0xf86c05850e07e254aa8252089432be343b94f860124dc4fee278fdcbd38c102d88885b70bd399db97c00801ba0ef69319556c78c8bce733c84e569645268bb9f21f5792381099da9538c980c0fa055f69809f7def6231ad1a2dffa9bb432bb6b039594f24c8e5f4479dcf4fa9986",
      "networkId": 0,
      "chainId": 0
    },
    {
      "hash": "0x40349a8beaadefad2619f81e4554c52310fdaeaf44cc67fadf34b1a8d4f1602a",
      "blockHash": "0xa1f92260272b4603c0d4be8655f236001d61eaaca4b7b077d005447f4b5357bc",
      "blockNumber": 89791,
      "transactionIndex": 2,
      "confirmations": null,
      "from": "0xbb30e448B72d6Fdd44973A4C7a312F92f22C8F07",
      "gasPrice": {
        "_hex": "0xe07e254aa"
      },
      "gasLimit": {
        "_hex": "0x5208"
      },
      "to": "0x32Be343B94f860124dC4fEe278FDCBD38C102D88",
      "value": {
        "_hex": "0x5a13d9ca192cbc00"
      },
      "nonce": 9,
      "data": "0x",
      "r": "0xe34c7edb767c4f0818f3d0a5abcfce7708a32903ca7598ea3257e69067fbacee",
      "s": "0x7fc06815ad6ee7c726a56547d242b0070b8ac441b4d5df4f9e2d8887b5b47db6",
      "v": 28,
      "creates": null,
      "raw": "0xf86c09850e07e254aa8252089432be343b94f860124dc4fee278fdcbd38c102d88885a13d9ca192cbc00801ca0e34c7edb767c4f0818f3d0a5abcfce7708a32903ca7598ea3257e69067fbaceea07fc06815ad6ee7c726a56547d242b0070b8ac441b4d5df4f9e2d8887b5b47db6",
      "networkId": 0,
      "chainId": 0
    },
    {
      "hash": "0xbad0cec2a918fb8ddaf339395eac5ab878405512e5a33a3ad18a2b1d16af8d61",
      "blockHash": "0xa1f92260272b4603c0d4be8655f236001d61eaaca4b7b077d005447f4b5357bc",
      "blockNumber": 89791,
      "transactionIndex": 3,
      "confirmations": null,
      "from": "0xD924AAC0bCB65C13bE4044f6BeA8aAe34D7a7126",
      "gasPrice": {
        "_hex": "0xe07e254aa"
      },
      "gasLimit": {
        "_hex": "0x5208"
      },
      "to": "0x32Be343B94f860124dC4fEe278FDCBD38C102D88",
      "value": {
        "_hex": "0x4c2efd45531a0c00"
      },
      "nonce": 5,
      "data": "0x",
      "r": "0xdd336705b469629a99eb5f6041e5c941c98d1cf53a032455919d67167c675966",
      "s": "0x1d7c1041c517c5a653b44dc3ed311de4c54021d7be43b4fa20ae28f45dd12943",
      "v": 27,
      "creates": null,
      "raw": "0xf86c05850e07e254aa8252089432be343b94f860124dc4fee278fdcbd38c102d88884c2efd45531a0c00801ba0dd336705b469629a99eb5f6041e5c941c98d1cf53a032455919d67167c675966a01d7c1041c517c5a653b44dc3ed311de4c54021d7be43b4fa20ae28f45dd12943",
      "networkId": 0,
      "chainId": 0
    },
    {
      "hash": "0x65b3a053457e09dabc687a00d296bb2d48c6b13d6361d4279e88aed51c3d5327",
      "blockHash": "0xa1f92260272b4603c0d4be8655f236001d61eaaca4b7b077d005447f4b5357bc",
      "blockNumber": 89791,
      "transactionIndex": 4,
      "confirmations": null,
      "from": "0xe6A7a1d47ff21B6321162AEA7C6CB457D5476Bca",
      "gasPrice": {
        "_hex": "0xd886efd85"
      },
      "gasLimit": {
        "_hex": "0x55f0"
      },
      "to": "0x8101538Df7E005d06CA303f609631c4029130687",
      "value": {
        "_hex": "0x171c380c5a1d3b080"
      },
      "nonce": 2384,
      "data": "0x",
      "r": "0x07118505d349ed9e98c84314d815fbf9f3663b8ee78468b56e8830e4434641bd",
      "s": "0x5eb8679444f2980e3066e212b5dcae6d36b0a581a01fb6463672f4157c5ba980",
      "v": 27,
      "creates": null,
      "raw": "0xf86f820950850d886efd858255f0948101538df7e005d06ca303f609631c4029130687890171c380c5a1d3b080801ba007118505d349ed9e98c84314d815fbf9f3663b8ee78468b56e8830e4434641bda05eb8679444f2980e3066e212b5dcae6d36b0a581a01fb6463672f4157c5ba980",
      "networkId": 0,
      "chainId": 0
    },
    {
      "hash": "0xbdcf2d507516147d13cd418cf4d97df0422c739b7206bd1fedf8b19c6f761482",
      "blockHash": "0xa1f92260272b4603c0d4be8655f236001d61eaaca4b7b077d005447f4b5357bc",
      "blockNumber": 89791,
      "transactionIndex": 5,
      "confirmations": null,
      "from": "0xe6A7a1d47ff21B6321162AEA7C6CB457D5476Bca",
      "gasPrice": {
        "_hex": "0xd6813641f"
      },
      "gasLimit": {
        "_hex": "0x55f0"
      },
      "to": "0x19d1f826fce0c97733e0202eFCCc4A5608e8Eb6d",
      "value": {
        "_hex": "0x1759222349f44c178"
      },
      "nonce": 2385,
      "data": "0x",
      "r": "0xbea5df392132c0d56ae6fae932895d3bec300044b312c96f1c2490cc9f61dd3f",
      "s": "0x7de1612d338dbb6cfdf68f6db9b3e3920103c11043d23bddb0ee43380d72533f",
      "v": 27,
      "creates": null,
      "raw": "0xf86f820951850d6813641f8255f09419d1f826fce0c97733e0202efccc4a5608e8eb6d8901759222349f44c178801ba0bea5df392132c0d56ae6fae932895d3bec300044b312c96f1c2490cc9f61dd3fa07de1612d338dbb6cfdf68f6db9b3e3920103c11043d23bddb0ee43380d72533f",
      "networkId": 0,
      "chainId": 0
    }
  ]
}