{
  "hash": "0x923872f9812fcd6935be916922e6af05367fff7d47f1d29398907955c38c7c0f",
  "parentHash": "0xbbe19e2ee64fb00744084092c2ad5a1d80ac4c84ba010012893619c4042a3d0c",
  "number": 102749,
  "timestamp": 1439842635,
  "nonce": "0x884b0fbf3edfd70b",
  "difficulty": 4038618715369,
  "gasLimit": {
    "_hex": "0x2fefd8"
  },
  "gasUsed": {
    "_hex": "0xa410"
  },
  "miner": "0xe6A7a1d47ff21B6321162AEA7C6CB457D5476Bca",
  "extraData": "0x476574682f76312e302e312d38326566323666362f6c696e75782f676f312e34",
  "transactions": [
    {
      "hash": "0xdcbdcdf0df06ce535d5cf5eea48e8a22eb04ca64495abf22b861856d87466f43",
      "blockHash": "0x923872f9812fcd6935be916922e6af05367fff7d47f1d29398907955c38c7c0f",
      "blockNumber": 102749,
      "transactionIndex": 0,
      "confirmations": null,
      "from": "0xc3a54b95AEc42EBAEE1b351B4B89c1a0B9759Bb8",
      "gasPrice": {
        "_hex": "0xd5bd77a31"
      },
      "gasLimit": {
        "_hex": "0x15f90"
      },
      "to": "0xd2a25DC828b52BdC5f63b95d5B1D1Bb90d6D299B",
      "value": {
        "_hex": "0x7d0"
      },
      "nonce": 2,
      "data": "0x",
      "r": "0xbdc686140153a0a6b521f58358e7c9e1dd0430394418612b6677c1f5dee2d80b",
      "s": "0x5430e7ef4985b572a526e62fb962ee306316771a1fc9282da4c7692b6b0ff6d5",
      "v": 27,
      "creates": null,
      "raw": "0xf86702850d5bd77a3183015f9094d2a25dc828b52bdc5f63b95d5b1d1bb90d6d299b8207d0801ba0bdc686140153a0a6b521f58358e7c9e1dd0430394418612b6677c1f5dee2d80ba05430e7ef4985b572a526e62fb962ee306316771a1fc9282da4c7692b6b0ff6d5",
      "networkId": 0,
      "chainId": 0
    },
    {
      "hash": "0x23a755d1cb37e67ff41211a06708b6e18348e2b108475f048b62662f370e5035",
      "blockHash": "0x923872f9812fcd6935be916922e6af05367fff7d47f1d29398907955c38c7c0f",
      "blockNumber": 102749,
      "transactionIndex": 1,
      "confirmations": null,
      "from": "0x685dAF36A1D6c017E56a42a4c916ED049B0c0B29",
      "gasPrice": {
        "_hex": "0xd0b82cfbd"
      },
      "gasLimit": {
        "_hex": "0x15f90"
      },
      "to": "0x0EDcC8702211F285ca090EF919b6EFF6C2E92eB0",
      "value": {
        "_hex": "0xde0b6b3a7640000"
      },
      "nonce": 0,
      "data": "0x",
      "r": "0x9ec6936973a369213b45129f723fef2bb949bd968c9747aa9211530796489a14",
      "s": "0x4e1bcc3d758a55f8e5af4b5c9935abfdb49b64522392eacb290d3ce3c76aca43",
      "v": 28,
      "creates": null,
      "raw": "0xf86d80850d0b82cfbd83015f90940edcc8702211f285ca090ef919b6eff6c2e92eb0880de0b6b3a7640000801ca09ec6936973a369213b45129f723fef2bb949bd968c9747aa9211530796489a14a04e1bcc3d758a55f8e5af4b5c9935abfdb49b64522392eacb290d3ce3c76aca43",
      "networkId": 0,
      "chainId": 0
    }
  ]
}