{
  "hash": "0x39a72c0f7a8e0e04a83c3973d108396a1bf87ee3d1b2ef6a17c9e9eb2274e3db",
  "parentHash": "0xe99cb34fec5d5edbb59c58cbf1812d26b186e34508d3c4efdc77d78994affd84",
  "number": 55416,
  "timestamp": 1439070366,
  "nonce": "0xfe9c0015f886ebf4",
  "difficulty": 1624242066970,
  "gasLimit": {
    "_hex": "0x2fefd8"
  },
  "gasUsed": {
    "_hex": "0x5208"
  },
  "miner": "0xf927a40C8B7F6E07c5af7FA2155B4864a4112B13",
  "extraData": "0x476574682f76312e302e312f6c696e75782f676f312e342e32",
  "transactions": [
    {
      "hash": "0xd84e2cf12a736137725e591a5ecddbf82b9220c7ce55291df5c9412d8fd193fe",
      "blockHash": "0x39a72c0f7a8e0e04a83c3973d108396a1bf87ee3d1b2ef6a17c9e9eb2274e3db",
      "blockNumber": 55416,
      "transactionIndex": 0,
      "confirmations": null,
      "from": "0x0B12c5618eB8bfc23b8893780f1100D1B668639A",
      "gasPrice": {
        "_hex": "0xba43b7400"
      },
      "gasLimit": {
        "_hex": "0x5208"
      },
      "to": "0xd28620AE1F1f6f863C67fF449dF11AD0aE2FEC25",
      "value": {
        "_hex": "0x1bc6a1abd226c580000"
      },
      "nonce": 7,
      "data": "0x",
      "r": "0xe3a39ee9dfbc53fd5a14395672b72550169db635e6fa2550e9bc5b4c1ec22160",
      "s": "0x11305fa4eca9c47a79178f629392e2f262caa55c0c3575f4ba03aee9dae3f6ad",
      "v": 27,
      "creates": null,
      "raw": "0xf86e07850ba43b740082520894d28620ae1f1f6f863c67ff449df11ad0ae2fec258a01bc6a1abd226c580000801ba0e3a39ee9dfbc53fd5a14395672b72550169db635e6fa2550e9bc5b4c1ec22160a011305fa4eca9c47a79178f629392e2f262caa55c0c3575f4ba03aee9dae3f6ad",
      "networkId": 0,
      "chainId": 0
    }
  ]
}