{
  "hash": "0xec74b3046298274facb76a7f074529bfd4e794e2ef682e959c917363be529e77",
  "parentHash": "0x8d370420af0b8ded1b86aa1f7a0cc2b8c95d2f3766733fc536cfcf4f2c734821",
  "number": 105393,
  "timestamp": 1439886847,
  "nonce": "0xe79b15a0c5dcc322",
  "difficulty": 4369677076061,
  "gasLimit": {
    "_hex": "0x2fefd8"
  },
  "gasUsed": {
    "_hex": "0xa410"
  },
  "miner": "0xcf00A85f3826941e7A25BFcF9Aac575d40410852",
  "extraData": "0x476574682f76312e302e312f77696e646f77732f676f312e342e32",
  "transactions": [
    {
      "hash": "0x7572ddd0007bebca7ebcece1eb1f82a0a53f8a55c7b43621db8a3406e88a0c57",
      "blockHash": "0xec74b3046298274facb76a7f074529bfd4e794e2ef682e959c917363be529e77",
      "blockNumber": 105393,
      "transactionIndex": 0,
      "confirmations": null,
      "from": "0x9dc5018E753A410593259039296bBfd28E29f894",
      "gasPrice": {
        "_hex": "0xdff62273b"
      },
      "gasLimit": {
        "_hex": "0x61a8"
      },
      "to": "0x50056353D06a71b1f427499419D04F81f5dE4F20",
      "value": {
        "_hex": "0x11c63fd3cfbd6f6f8"
      },
      "nonce": 4,
      "data": "0x",
      "r": "0x6901bfb9e373f30eaee9b5ddcf95de0b497d9c6312b4a5318b4adaa497cdbf50",
      "s": "0x62e8c5dd34a5e5a71e9655703a44541958c79016eacf3eddeb08a3e0ac62e6d8",
      "v": 28,
      "creates": null,
      "raw": "0xf86d04850dff62273b8261a89450056353d06a71b1f427499419d04f81f5de4f2089011c63fd3cfbd6f6f8801ca06901bfb9e373f30eaee9b5ddcf95de0b497d9c6312b4a5318b4adaa497cdbf50a062e8c5dd34a5e5a71e9655703a44541958c79016eacf3eddeb08a3e0ac62e6d8",
      "networkId": 0,
      "chainId": 0
    },
    {
      "hash": "0x6676808d83deaf81b6b1d47c3f420414bef59947f156f93f3242c2ef7f3c85a3",
      "blockHash": "0xec74b3046298274facb76a7f074529bfd4e794e2ef682e959c917363be529e77",
      "blockNumber": 105393,
      "transactionIndex": 1,
      "confirmations": null,
      "from": "0xA4fbA5C740C8141d6c4469eD292bfCC8cCAc774F",
      "gasPrice": {
        "_hex": "0xdac793543"
      },
      "gasLimit": {
        "_hex": "0x5208"
      },
      "to": "0x32Be343B94f860124dC4fEe278FDCBD38C102D88",
      "value": {
        "_hex": "0x1cf4e4a3e7d9e000"
      },
      "nonce": 4,
      "data": "0x",
      "r": "0x5c504f26f8c65bced4c38e2b90d9d9fed13d421821e5a3dd417d12efdaadf38e",
      "s": "0x1ed17f4ff2d0acd1449f3be777fa10cac19498886573d42bdd355f7329b3df90",
      "v": 27,
      "creates": null,
      "raw": "0xf86c04850dac7935438252089432be343b94f860124dc4fee278fdcbd38c102d88881cf4e4a3e7d9e000801ba05c504f26f8c65bced4c38e2b90d9d9fed13d421821e5a3dd417d12efdaadf38ea01ed17f4ff2d0acd1449f3be777fa10cac19498886573d42bdd355f7329b3df90",
      "networkId": 0,
      "chainId": 0
    }
  ]
}