{
  "hash": "0xf05fd86f1f29e231f5a9bff5ee52f03427226010a016c09abd82881a5ed59688",
  "parentHash": "0x1d011ece43a32e66453dcf58a57aba53ab6363757a7092a5922facf790168611",
  "number": 83751,
  "timestamp": 1439540306,
  "nonce": "0x3fdbebb6cc540286",
  "difficulty": 2438374166763,
  "gasLimit": {
    "_hex": "0x2fefd8"
  },
  "gasUsed": {
    "_hex": "0xf87c"
  },
  "miner": "0x4F68024B7CEB5ca92e7308BD08e523c632C0c739",
  "extraData": "0x476574682f76312e302e312f6c696e75782f676f312e342e32",
  "transactions": [
    {
      "hash": "0xdee08553894d8490ec5dd19c9422224e2a38e7d51343ede36ee85625fec7861b",
      "blockHash": "0xf05fd86f1f29e231f5a9bff5ee52f03427226010a016c09abd82881a5ed59688",
      "blockNumber": 83751,
      "transactionIndex": 0,
      "confirmations": null,
      "from": "0x9c80bc18E9f8d4968B185Da8c79fA6e11ffc3e23",
      "gasPrice": {
        "_hex": "0x110c8f7d8de"
      },
      "gasLimit": {
        "_hex": "0xc350"
      },
      "to": "0x2910543Af39abA0Cd09dBb2D50200b3E800A63D2",
      "value": {
        "_hex": "0x58d15e176280000"
      },
      "nonce": 1,
      "data": "0x454e4e56514d373947",
      "r": "0x909740b012f6e209932e14e42a9e75acff93103ca8a641a51a47624e1f6575d0",
      "s": "0x584d30ab793d2969560ff951ec8ac52102d68b01f8ce16b36c12def3727510bb",
      "v": 28,
      "creates": null,
      "raw": "0xf87601860110c8f7d8de82c350942910543af39aba0cd09dbb2d50200b3e800a63d288058d15e17628000089454e4e56514d3739471ca0909740b012f6e209932e14e42a9e75acff93103ca8a641a51a47624e1f6575d0a0584d30ab793d2969560ff951ec8ac52102d68b01f8ce16b36c12def3727510bb",
      "networkId": 0,
      "chainId": 0
    },
    {
      "hash": "0x2be148388ec50816c2bdf6b520966b26a5170579794749aafdef59de16843c10",
      "blockHash": "0xf05fd86f1f29e231f5a9bff5ee52f03427226010a016c09abd82881a5ed59688",
      "blockNumber": 83751,
      "transactionIndex": 1,
      "confirmations": null,
      "from": "0x78F1Ee32Bb4682ac1260B42d4Cbff35761124593",
      "gasPrice": {
        "_hex": "0xdbe5c39a7"
      },
      "gasLimit": {
        "_hex": "0x15f90"
      },
      "to": "0x19D182e96Fd7EeAE2cd0c0280cF63a7E01B6184a",
      "value": {
        "_hex": "0xc7d713b49da0000"
      },
      "nonce": 1,
      "data": "0x",
      "r": "0xcc9dd1766bc9ba9fd903c719f1573ba53a05473111dad4f796d02c5a03eb492b",
      "s": "0x37c44b691ccbcc3aac88cb26f8ccf1c8be057e9a96f2202a764c97b8fa432a5d",
      "v": 28,
      "creates": null,
      "raw": "0xf86d01850dbe5c39a783015f909419d182e96fd7eeae2cd0c0280cf63a7e01b6184a880c7d713b49da0000801ca0cc9dd1766bc9ba9fd903c719f1573ba53a05473111dad4f796d02c5a03eb492ba037c44b691ccbcc3aac88cb26f8ccf1c8be057e9a96f2202a764c97b8fa432a5d",
      "networkId": 0,
      "chainId": 0
    },
    {
      "hash": "0x51db9949962862b6033034b16b8dc076ca15ec55d1540d1184d5c542fae54fa2",
      "blockHash": "0xf05fd86f1f29e231f5a9bff5ee52f03427226010a016c09abd82881a5ed59688",
      "blockNumber": 83751,
      "transactionIndex": 2,
      "confirmations": null,
      "from": "0xEa4933866ad977Ce24bBb244ECc2C79463454Fe4",
      "gasPrice": {
        "_hex": "0xcfa42a52d"
      },
      "gasLimit": {
        "_hex": "0x5208"
      },
      "to": "0x32Be343B94f860124dC4fEe278FDCBD38C102D88",
      "value": {
        "_hex": "0x1158a1246a9ed0000"
      },
      "nonce": 1,
      "data": "0x",
      "r": "0x5607d6d6a1c5504f882c4c55f6940e95b05f7796364dc557808fdf41a939c1fa",
      "s": "0x429be1d8bd0d47bca6b5077d1e923b6f6d20ee6ef5f0851c82f229360f12426a",
      "v": 27,
      "creates": null,
      "raw": "0xf86d01850cfa42a52d8252089432be343b94f860124dc4fee278fdcbd38c102d888901158a1246a9ed0000801ba05607d6d6a1c5504f882c4c55f6940e95b05f7796364dc557808fdf41a939c1faa0429be1d8bd0d47bca6b5077d1e923b6f6d20ee6ef5f0851c82f229360f12426a",
      "networkId": 0,
      "chainId": 0
    }
  ]
}