{
  "hash": "0x0086a9bf1433c87424be24bec61e335f9f1ac3896688d75baec18885fb546e18",
  "parentHash": "0x91df524584f04325048462b65dd6b1c4e62debbce02fdc952ad5dd72f4594dd3",
  "number": 85400,
  "timestamp": 1439563044,
  "nonce": "0xcc5171a36003dfad",
  "difficulty": 2736986729184,
  "gasLimit": {
    "_hex": "0x2fefd8"
  },
  "gasUsed": {
    "_hex": "0x5208"
  },
  "miner": "0xF2d2AfF1320476cb8C6b607199D23175cc595693",
  "extraData": "0x476574682f76312e302e312f77696e646f77732f676f312e342e32",
  "transactions": [
    {
      "hash": "0x771749f3fb824e1e20c65dd51079985f83328ce86e382123beec44f41c195303",
      "blockHash": "0x0086a9bf1433c87424be24bec61e335f9f1ac3896688d75baec18885fb546e18",
      "blockNumber": 85400,
      "transactionIndex": 0,
      "confirmations": null,
      "from": "0x85804C279425A6403f00cC9C4b7045dC0CA2F82E",
      "gasPrice": {
        "_hex": "0xcfa7d73d5"
      },
      "gasLimit": {
        "_hex": "0x15f90"
      },
      "to": "0x519DC97eF09491aE962A8F13fe144c71feca4662",
      "value": {
        "_hex": "0x8ac7230489e80000"
      },
      "nonce": 2,
      "data": "0x",
      "r": "0x88cda05c32d37f8c42d0e8cd1b7a43c422d0a5975c93fb44a7700409c0b4e0ef",
      "s": "0x3a6a870051b231e08007196c836beb8c9610dec95900058b0aad70def13ab686",
      "v": 27,
      "creates": null,
      "raw": "0xf86d02850cfa7d73d583015f9094519dc97ef09491ae962a8f13fe144c71feca4662888ac7230489e80000801ba088cda05c32d37f8c42d0e8cd1b7a43c422d0a5975c93fb44a7700409c0b4e0efa03a6a870051b231e08007196c836beb8c9610dec95900058b0aad70def13ab686",
      "networkId": 0,
      "chainId": 0
    }
  ]
}