{
  "hash": "0xd2b5f7212094fc788d73863d27ae1d43bc20a54c1ea9b2aa7d0d67ff06e4be1d",
  "parentHash": "0x1f995c8d2bc3e8dae856ddf20fc5acf550872e3e997ea4b81a753307750375ec",
  "number": 47781,
  "timestamp": 1438946173,
  "nonce": "0x315c217716e3dd72",
  "difficulty": 1455153796614,
  "gasLimit": {
    "_hex": "0xf20d"
  },
  "gasUsed": {
    "_hex": "0xa674"
  },
  "miner": "0xC713D2B774095B6E4c738c3FB95e6648Dee3e75D",
  "extraData": "0x476574682f76312e302e312d38326566323666362f6c696e75782f676f312e34",
  "transactions": [
    {
      "hash": "0x2c27dc2acc5ccd65001041a701ff5607be98b13ffd53c261e3b3f1b4000c27ea",
      "blockHash": "0xd2b5f7212094fc788d73863d27ae1d43bc20a54c1ea9b2aa7d0d67ff06e4be1d",
      "blockNumber": 47781,
      "transactionIndex": 0,
      "confirmations": null,
      "from": "0x4970d3Acf72b5B1F32A7003cF102c64EE0547941",
      "gasPrice": {
        "_hex": "0xd7d40ace3"
      },
      "gasLimit": {
        "_hex": "0x55f0"
      },
      "to": "0x2910543Af39abA0Cd09dBb2D50200b3E800A63D2",
      "value": {
        "_hex": "0x10f0cf064dd59200000"
      },
      "nonce": 1,
      "data": "0x454e36433831453038",
      "r": "0x1ab3b2319dec68d2081fe6216a0f49bc7a099bc882186f79cc5493fd560dacdc",
      "s": "0x53dcf4be01329633773df541aa073de2975f023b95688714bb143a0e3ffb9997",
      "v": 28,
      "creates": null,
      "raw": "0xf87701850d7d40ace38255f0942910543af39aba0cd09dbb2d50200b3e800a63d28a010f0cf064dd5920000089454e364338314530381ca01ab3b2319dec68d2081fe6216a0f49bc7a099bc882186f79cc5493fd560dacdca053dcf4be01329633773df541aa073de2975f023b95688714bb143a0e3ffb9997",
      "networkId": 0,
      "chainId": 0
    },
    {
      "hash": "0x50099342d29e5245da4853e10e49bacaad0de0c9e9e502737eb7dd6be85e8c45",
      "blockHash": "0xd2b5f7212094fc788d73863d27ae1d43bc20a54c1ea9b2aa7d0d67ff06e4be1d",
      "blockNumber": 47781,
      "transactionIndex": 1,
      "confirmations": null,
      "from": "0xe6A7a1d47ff21B6321162AEA7C6CB457D5476Bca",
      "gasPrice": {
        "_hex": "0xcfc0e20aa"
      },
      "gasLimit": {
        "_hex": "0x55f0"
      },
      "to": "0x082B2013c855230fCd4B1B29D67D853De21Df88a",
      "value": {
        "_hex": "0xc6203159147d9850"
      },
      "nonce": 232,
      "data": "0x",
      "r": "0xf8542d4b4ba38e05a19199c810b28d18322b2766e023b4ca28f53d459cbd37b7",
      "s": "0x13dd8432589e3a2314edb4b1bf99c54ca957e7c9dcf5a5549f05c0bf4d49ac2a",
      "v": 27,
      "creates": null,
      "raw": "0xf86d81e8850cfc0e20aa8255f094082b2013c855230fcd4b1b29d67d853de21df88a88c6203159147d9850801ba0f8542d4b4ba38e05a19199c810b28d18322b2766e023b4ca28f53d459cbd37b7a013dd8432589e3a2314edb4b1bf99c54ca957e7c9dcf5a5549f05c0bf4d49ac2a",
      "networkId": 0,
      "chainId": 0
    }
  ]
}