{
  "hash": "0x9f5af882d36220f65ad37c40a110c5728e7028bd0eeb8c0e102af432e81bead8",
  "parentHash": "0x4f812c7610597602bcfee52b9988aeb0c8aa9e30f7ffce474dee41383a6e2fd8",
  "number": 68988,
  "timestamp": 1439296711,
  "nonce": "0x97f1c9916ee6a99c",
  "difficulty": 2035949833084,
  "gasLimit": {
    "_hex": "0x2fefd8"
  },
  "gasUsed": {
    "_hex": "0xa410"
  },
  "miner": "0xbb7B8287f3F0a933474a79eAe42CBCa977791171",
  "extraData": "0x476574682f4c5649562f76312e302e312f6c696e75782f676f312e342e32",
  "transactions": [
    {
      "hash": "0xf337e58543c006d05ffe541946489d20bfd2d8d962cede7c7b9d22d6bf3af0cc",
      "blockHash": "0x9f5af882d36220f65ad37c40a110c5728e7028bd0eeb8c0e102af432e81bead8",
      "blockNumber": 68988,
      "transactionIndex": 0,
      "confirmations": null,
      "from": "0xB77BEA7F1926D55dAB9eeEADD72b490c90eBCCc9",
      "gasPrice": {
        "_hex": "0xba43b7400"
      },
      "gasLimit": {
        "_hex": "0x5208"
      },
      "to": "0x4DC64f7E95D75AdF7b3CEe5d21115b57a03765Ab",
      "value": {
        "_hex": "0x13572147582a000"
      },
      "nonce": 1,
      "data": "0x",
      "r": "0xb2a97cb1c4e01e49404f90d455f931bf4aa85fec199c69787ea0164fc76e71b8",
      "s": "0x333e33beb0db6121c5770cd022e00828833e1af29db2ab47e1cdf82a3426788c",
      "v": 27,
      "creates": null,
      "raw": "0xf86c01850ba43b7400825208944dc64f7e95d75adf7b3cee5d21115b57a03765ab88013572147582a000801ba0b2a97cb1c4e01e49404f90d455f931bf4aa85fec199c69787ea0164fc76e71b8a0333e33beb0db6121c5770cd022e00828833e1af29db2ab47e1cdf82a3426788c",
      "networkId": 0,
      "chainId": 0
    },
    {
      "hash": "0x07566daf70d8bffcd2a50d693f5f42f19db94833dafeaa08384ca5fa833cbaa9",
      "blockHash": "0x9f5af882d36220f65ad37c40a110c5728e7028bd0eeb8c0e102af432e81bead8",
      "blockNumber": 68988,
      "transactionIndex": 1,
      "confirmations": null,
      "from": "0x0Fc5AC27128A1437b3E17FE25B1797EeF18cf7Fc",
      "gasPrice": {
        "_hex": "0xba43b7400"
      },
      "gasLimit": {
        "_hex": "0x5208"
      },
      "to": "0xda68c9e72ed550750ed6172E11b2a9D69b8f48fE",
      "value": {
        "_hex": "0x13572147582a000"
      },
      "nonce": 1,
      "data": "0x",
      "r": "0xb5edf4a09a6b1b36c67b9183520b40d64c63d50cc7a7249244a6aec949bcb6be",
      "s": "0x2c97026f787739f505020b464cfed215f2be5dce7f463d367c93b23334ab80d6",
      "v": 27,
      "creates": null,
      "raw": "0xf86c01850ba43b740082520894da68c9e72ed550750ed6172e11b2a9d69b8f48fe88013572147582a000801ba0b5edf4a09a6b1b36c67b9183520b40d64c63d50cc7a7249244a6aec949bcb6bea02c97026f787739f505020b464cfed215f2be5dce7f463d367c93b23334ab80d6",
      "networkId": 0,
      "chainId": 0
    }
  ]
}