{
  "hash": "0xe5b26782b872e90dccc86d65ae2455c9ccbc15ba2b3b47831d2cb69ef7532ef2",
  "parentHash": "0x2fb4b5cf2eb1428e3d279bb058d663e0b4b779fdd047b01226f540a0f1cf6ab1",
  "number": 96167,
  "timestamp": 1439736048,
  "nonce": "0x8af2d7502dfa86f2",
  "difficulty": 3651451862184,
  "gasLimit": {
    "_hex": "0x2fefd8"
  },
  "gasUsed": {
    "_hex": "0x5208"
  },
  "miner": "0x007f7f58D3eb5b7510A301eCC749FC1fCDDBE14D",
  "extraData": "0x476574682f76312e302e312f77696e646f77732f676f312e342e32",
  "transactions": [
    {
      "hash": "0x282af49f46268da64883b91de0a4f1afae135f130c94e0f0f3787fda22280505",
      "blockHash": "0xe5b26782b872e90dccc86d65ae2455c9ccbc15ba2b3b47831d2cb69ef7532ef2",
      "blockNumber": 96167,
      "transactionIndex": 0,
      "confirmations": null,
      "from": "0x7884D470204862a0d1A21122F41ee77430396Ee5",
      "gasPrice": {
        "_hex": "0xd2b20cd6e"
      },
      "gasLimit": {
        "_hex": "0x15f90"
      },
      "to": "0xfdB948C0D3FC00Bbe56f48268481A3F8cc1743A2",
      "value": {
        "_hex": "0x38d7ea4c68000"
      },
      "nonce": 12,
      "data": "0x",
      "r": "0x3959012850668253449d65e49e56b16ece84ff63ef710c6e0cce0f60c1c32fd1",
      "s": "0x314fbf07ac72df31ef933ee47bc66b581531eeb73c1a56ad332e28aa650dc957",
      "v": 27,
      "creates": null,
      "raw": "0xf86c0c850d2b20cd6e83015f9094fdb948c0d3fc00bbe56f48268481a3f8cc1743a287038d7ea4c68000801ba03959012850668253449d65e49e56b16ece84ff63ef710c6e0cce0f60c1c32fd1a0314fbf07ac72df31ef933ee47bc66b581531eeb73c1a56ad332e28aa650dc957",
      "networkId": 0,
      "chainId": 0
    }
  ]
}