{
  "hash": "0xd614a3264f4c07cbff78f7cce230e230e8354fce1d2e0b0be3e15a2c2241fae2",
  "parentHash": "0x3b7846dd4399bb98eca9e72d0a3702de6af09ebc5e9af30a42e087db3282c741",
  "number": 109133,
  "timestamp": 1439951401,
  "nonce": "0xdce02e2f875bb99e",
  "difficulty": 4445184584144,
  "gasLimit": {
    "_hex": "0x2fefd8"
  },
  "gasUsed": {
    "_hex": "0x5208"
  },
  "miner": "0xe6A7a1d47ff21B6321162AEA7C6CB457D5476Bca",
  "extraData": "0x476574682f76312e302e312d38326566323666362f6c696e75782f676f312e34",
  "transactions": [
    {
      "hash": "0x25e097d6a12c8a9f6248cb718ef677d6537981a882ff905d8c951c3ebc7ce97a",
      "blockHash": "0xd614a3264f4c07cbff78f7cce230e230e8354fce1d2e0b0be3e15a2c2241fae2",
      "blockNumber": 109133,
      "transactionIndex": 0,
      "confirmations": null,
      "from": "0xa70a9a7040d542C632D8e0bE7c5513A8a5Bbc752",
      "gasPrice": {
        "_hex": "0xccafc1aef"
      },
      "gasLimit": {
        "_hex": "0x5208"
      },
      "to": "0x32Be343B94f860124dC4fEe278FDCBD38C102D88",
      "value": {
        "_hex": "0x455f7816a1943c00"
      },
      "nonce": 271,
      "data": "0x",
      "r": "0xe57df0f91a2a2b5d32db3e44757c454fad078278455486ffcc3ee688090a5ace",
      "s": "0x3062a9a6f605fe0b13ea6e0493a2e36df6e5e95de658fa1e85f842265640565b",
      "v": 27,
      "creates": null,
      "raw": "0xf86e82010f850ccafc1aef8252089432be343b94f860124dc4fee278fdcbd38c102d8888455f7816a1943c00801ba0e57df0f91a2a2b5d32db3e44757c454fad078278455486ffcc3ee688090a5acea03062a9a6f605fe0b13ea6e0493a2e36df6e5e95de658fa1e85f842265640565b",
      "networkId": 0,
      "chainId": 0
    }
  ]
}