{
  "hash": "0x7aa062a0126e77d206bedce4baa9be894143232724b25cefd17008fb7637a313",
  "parentHash": "0xe861ee132bb57d4aff9f0525df8acb245f88ed32d937282bdf305cde7946adc6",
  "number": 54331,
  "timestamp": 1439052342,
  "nonce": "0x78f567dfeeb59d91",
  "difficulty": 1609451252996,
  "gasLimit": {
    "_hex": "0x2fefd8"
  },
  "gasUsed": {
    "_hex": "0x5208"
  },
  "miner": "0xbb7B8287f3F0a933474a79eAe42CBCa977791171",
  "extraData": "0x476574682f4c5649562f76312e302e312f6c696e75782f676f312e342e32",
  "transactions": [
    {
      "hash": "0x1badb4a0f75f7c6771c08118e669b1f8152b94d9cd090e9ea81be88f28174fe9",
      "blockHash": "0x7aa062a0126e77d206bedce4baa9be894143232724b25cefd17008fb7637a313",
      "blockNumber": 54331,
      "transactionIndex": 0,
      "confirmations": null,
      "from": "0x30FbE5885F9fCcE9Ea5EdB82Ed4a1196dd259aEd",
      "gasPrice": {
        "_hex": "0xd6b187d36"
      },
      "gasLimit": {
        "_hex": "0x15f90"
      },
      "to": "0xf85787F98B727466F7A58c9424AbD404baBE6ede",
      "value": {
        "_hex": "0x1e"
      },
      "nonce": 1,
      "data": "0x",
      "r": "0x316c5eb51a8c0407aafbf1ff60ace1e577109e547a4520ea92eee2bda9322b6c",
      "s": "0x731a60fc2be97a23c3a971858f663787959573be7eccb6a4b580bb4b9574ed4e",
      "v": 28,
      "creates": null,
      "raw": "0xf86501850d6b187d3683015f9094f85787f98b727466f7a58c9424abd404babe6ede1e801ca0316c5eb51a8c0407aafbf1ff60ace1e577109e547a4520ea92eee2bda9322b6ca0731a60fc2be97a23c3a971858f663787959573be7eccb6a4b580bb4b9574ed4e",
      "networkId": 0,
      "chainId": 0
    }
  ]
}