{
  "hash": "0x18f3ac1991efbc7fff898e63e3060e4e6357b71c69228d605a3d7c604a851d7e",
  "parentHash": "0x7d82ea8a9c8343459f0912f25e4382c1e5f136e6c47330ff5b406c2d303a29f4",
  "number": 107938,
  "timestamp": 1439931203,
  "nonce": "0x981c5801cc87ab22",
  "difficulty": 4383308007100,
  "gasLimit": {
    "_hex": "0x2fefd8"
  },
  "gasUsed": {
    "_hex": "0x5208"
  },
  "miner": "0x49b6848cf1DC05FB0cD8374705cea44B55bbBf1E",
  "extraData": "0xd983010001844765746887676f312e342e328777696e646f7773",
  "transactions": [
    {
      "hash": "0x94464e489cd2e026f1ce3db40879faac39011a9bc69a00620e84a0e416ddfced",
      "blockHash": "0x18f3ac1991efbc7fff898e63e3060e4e6357b71c69228d605a3d7c604a851d7e",
      "blockNumber": 107938,
      "transactionIndex": 0,
      "confirmations": null,
      "from": "0xc3631c7698b6C5111989BF452727B3f9395a6deA",
      "gasPrice": {
        "_hex": "0x45d964b800"
      },
      "gasLimit": {
        "_hex": "0x5208"
      },
      "to": "0x431FDD9f2Fdc4A532867E0e0a85463436807d17C",
      "value": {
        "_hex": "0x3635c9adc5dea00000"
      },
      "nonce": 7,
      "data": "0x",
      "r": "0x35fe54d8a612de6fd911e6e6f33ad12ebe3a11c406ad636b3f9539ad96af4cdd",
      "s": "0x0de24477cfa8b62c9ea0cb3d294b00e954d5f5ab4d99969821d4252e899be576",
      "v": 28,
      "creates": null,
      "raw": "0xf86d078545d964b80082520894431fdd9f2fdc4a532867e0e0a85463436807d17c893635c9adc5dea00000801ca035fe54d8a612de6fd911e6e6f33ad12ebe3a11c406ad636b3f9539ad96af4cdda00de24477cfa8b62c9ea0cb3d294b00e954d5f5ab4d99969821d4252e899be576",
      "networkId": 0,
      "chainId": 0
    }
  ]
}