{
  "hash": "0x22ee0bca5f538cce66cdfcd61d01f9e96a6f19cd9dd783c9f388202718a81267",
  "parentHash": "0x0c73001d3c21dc3428076b6b2bd24960403dd28d45d1f22cf990a8985f5f374c",
  "number": 109984,
  "timestamp": 1439965944,
  "nonce": "0xe23e75c1c5d81d9b",
  "difficulty": 4407991596025,
  "gasLimit": {
    "_hex": "0x2fefd8"
  },
  "gasUsed": {
    "_hex": "0x5208"
  },
  "miner": "0xe6A7a1d47ff21B6321162AEA7C6CB457D5476Bca",
  "extraData": "0x476574682f76312e302e312d38326566323666362f6c696e75782f676f312e34",
  "transactions": [
    {
      "hash": "0xa0259e646fa60fe5488b94a202ef40641783e86c2f7a8740d7168e0a7150b8b1",
      "blockHash": "0x22ee0bca5f538cce66cdfcd61d01f9e96a6f19cd9dd783c9f388202718a81267",
      "blockNumber": 109984,
      "transactionIndex": 0,
      "confirmations": null,
      "from": "0xb1abce2918E21ddb93AA452731a12672A3d9F75a",
      "gasPrice": {
        "_hex": "0xcdfef281a"
      },
      "gasLimit": {
        "_hex": "0x5208"
      },
      "to": "0x32Be343B94f860124dC4fEe278FDCBD38C102D88",
      "value": {
        "_hex": "0x455f7160574cf400"
      },
      "nonce": 157,
      "data": "0x",
      "r": "0x95e2cd3eb11f303cef8337420aed92c208f960f22a7ff2b521c68116013f49a6",
      "s": "0x5600bdaaf4c74efc4ba486bce74e6acf019340bec71ec54362a6dce50859b117",
      "v": 28,
      "creates": null,
      "raw": "0xf86d819d850cdfef281a8252089432be343b94f860124dc4fee278fdcbd38c102d8888455f7160574cf400801ca095e2cd3eb11f303cef8337420aed92c208f960f22a7ff2b521c68116013f49a6a05600bdaaf4c74efc4ba486bce74e6acf019340bec71ec54362a6dce50859b117",
      "networkId": 0,
      "chainId": 0
    }
  ]
}