{
  "hash": "0x1ba26a9070761e23d3ec146a4f315a67bc11f528af3e211d5807abf0efe8e5d3",
  "parentHash": "0x4c72f7621fdf671c5e28bd0dbc71b8cb8d6e6673765efa9ff3b790f8eb833daa",
  "number": 87849,
  "timestamp": 1439598432,
  "nonce": "0xcd54dc896c8f9c2e",
  "difficulty": 3181791986943,
  "gasLimit": {
    "_hex": "0x2fefd8"
  },
  "gasUsed": {
    "_hex": "0x546c"
  },
  "miner": "0x0eDEd3DA479d0beF8eeC92A76644D3f4E3C177f7",
  "extraData": "0x476574682f76312e302e312f6c696e75782f676f312e342e32",
  "transactions": [
    {
      "hash": "0x88a3579cdd7f66daddeaed9cb53b46b9b17652457716540d6a634ef1c9b2bb13",
      "blockHash": "0x1ba26a9070761e23d3ec146a4f315a67bc11f528af3e211d5807abf0efe8e5d3",
      "blockNumber": 87849,
      "transactionIndex": 0,
      "confirmations": null,
      "from": "0x50378Af7eF54043f892ab7CE97D647793511b108",
      "gasPrice": {
        "_hex": "0x110c8f7d8de"
      },
      "gasLimit": {
        "_hex": "0xc350"
      },
      "to": "0x2910543Af39abA0Cd09dBb2D50200b3E800A63D2",
      "value": {
        "_hex": "0x8ac7230489e80000"
      },
      "nonce": 0,
      "data": "0x454e44483150333252",
      "r": "0xc4106990430d0030ed13ed51a15f81ac6817f296a94932f83983004dad06717f",
      "s": "0x11a2183cbeda4ea627fe02f3759bee18fd20dfb306fcdc3d2828c678c2186204",
      "v": 28,
      "creates": null,
      "raw": "0xf87680860110c8f7d8de82c350942910543af39aba0cd09dbb2d50200b3e800a63d2888ac7230489e8000089454e444831503332521ca0c4106990430d0030ed13ed51a15f81ac6817f296a94932f83983004dad06717fa011a2183cbeda4ea627fe02f3759bee18fd20dfb306fcdc3d2828c678c2186204",
      "networkId": 0,
      "chainId": 0
    }
  ]
}