{
  "hash": "0x0dc06bdcf8bc912a33c6b48a576400f8f0b3e578254482d5aaa64729d56af3f7",
  "parentHash": "0x3ece0fc007f30ea9dce33155c7877e530eee00780413258427af78f149b21013",
  "number": 91623,
  "timestamp": 1439658686,
  "nonce": "0xf7541475718e2168",
  "difficulty": 3499771891958,
  "gasLimit": {
    "_hex": "0x2fefd8"
  },
  "gasUsed": {
    "_hex": "0x5208"
  },
  "miner": "0x76d4a9bc9612bE738A81d0fE632b00B971E2bB9a",
  "extraData": "0x",
  "transactions": [
    {
      "hash": "0x5f96b0e19dc10b78b155c53fd310644956b4d57a1be3c55e7dc8e3bbdba1b657",
      "blockHash": "0x0dc06bdcf8bc912a33c6b48a576400f8f0b3e578254482d5aaa64729d56af3f7",
      "blockNumber": 91623,
      "transactionIndex": 0,
      "confirmations": null,
      "from": "0x88797e58675ED5Cc4c19980783dbd0C956085153",
      "gasPrice": {
        "_hex": "0xdcda22f5e"
      },
      "gasLimit": {
        "_hex": "0x15f90"
      },
      "to": "0xae3B25AB398f1Af110403Dc2E5f4264Be52E837B",
      "value": {
        "_hex": "0x21858410cf8d47e800"
      },
      "nonce": 0,
      "data": "0x",
      "r": "0x2eeaffc5e2b067b8e4cdea9d7226bd979d83e26367ee7ba000c1346a7c849409",
      "s": "0x2f57a0a7a17d93b6061dd3dc06f28ee31e563d7a3e2b2e476d6d7ebca223cbfd",
      "v": 27,
      "creates": null,
      "raw": "0xf86e80850dcda22f5e83015f9094ae3b25ab398f1af110403dc2e5f4264be52e837b8921858410cf8d47e800801ba02eeaffc5e2b067b8e4cdea9d7226bd979d83e26367ee7ba000c1346a7c849409a02f57a0a7a17d93b6061dd3dc06f28ee31e563d7a3e2b2e476d6d7ebca223cbfd",
      "networkId": 0,
      "chainId": 0
    }
  ]
}