{
  "hash": "0x4428ff653508ac7330b8e4c0678b6ec7a034e182f60492e52ef06b55e3daf695",
  "parentHash": "0x07c1bb75b16f3f416fe28f5d2e8c11492969191758d0cb1868760c816ed79c3f",
  "number": 115279,
  "timestamp": 1440054412,
  "nonce": "0xdebad93cd23d2fa7",
  "difficulty": 4556156343613,
  "gasLimit": {
    "_hex": "0x2fefd8"
  },
  "gasUsed": {
    "_hex": "0x14820"
  },
  "miner": "0xF6e1652a0397E078f434d6DDa181b218CFd42e09",
  "extraData": "0x476574682f76312e302e312f6c696e75782f676f312e342e32",
  "transactions": [
    {
      "hash": "0x0a8cee60f40b85dc07adc4e83838a5ea1bc8ce493c25a21ce22196cbb5320a09",
      "blockHash": "0x4428ff653508ac7330b8e4c0678b6ec7a034e182f60492e52ef06b55e3daf695",
      "blockNumber": 115279,
      "transactionIndex": 0,
      "confirmations": null,
      "from": "0xe6A7a1d47ff21B6321162AEA7C6CB457D5476Bca",
      "gasPrice": {
        "_hex": "0xcba84eeeb"
      },
      "gasLimit": {
        "_hex": "0x55f0"
      },
      "to": "0xd141b7CB21652cCdEF036cbe70dE021F31a530Ad",
      "value": {
        "_hex": "0xddf1e84b96c2160"
      },
      "nonce": 5048,
      "data": "0x",
      "r": "0xa062b12edfca3bdf2053bef8b8570b842ba5a4758e1135b43535f69294858190",
      "s": "0x6b42afce51ce3b2f8fce246d43181f63a481d548d4318918c17fed3e13abeb5f",
      "v": 27,
      "creates": null,
      "raw": "0xf86e8213b8850cba84eeeb8255f094d141b7cb21652ccdef036cbe70de021f31a530ad880ddf1e84b96c2160801ba0a062b12edfca3bdf2053bef8b8570b842ba5a4758e1135b43535f69294858190a06b42afce51ce3b2f8fce246d43181f63a481d548d4318918c17fed3e13abeb5f",
      "networkId": 0,
      "chainId": 0
    },
    {
      "hash": "0xdf8636dbb641400090f065e2d14dab2665bd00fcfc70b658293ec06b5ae24c73",
      "blockHash": "0x4428ff653508ac7330b8e4c0678b6ec7a034e182f60492e52ef06b55e3daf695",
      "blockNumber": 115279,
      "transactionIndex": 1,
      "confirmations": null,
      "from": "0xe6A7a1d47ff21B6321162AEA7C6CB457D5476Bca",
      "gasPrice": {
        "_hex": "0xcba84eeeb"
      },
      "gasLimit": {
        "_hex": "0x55f0"
      },
      "to": "0x5E4b2D8d8fc2332da92f225890520d41EdB0Ea50",
      "value": {
        "_hex": "0xdeed988368479a4"
      },
      "nonce": 5049,
      "data": "0x",
      "r": "0xfb195fdcae4c9bb7055f537b0982a995019e0647480e590dc31e741cfe8a280a",
      "s": "0x328fb3416997c31dd845efa51a522e1186b3a507a97e4adb84ca927f09928ee8",
      "v": 28,
      "creates": null,
      "raw": "0xf86e8213b9850cba84eeeb8255f0945e4b2d8d8fc2332da92f225890520d41edb0ea50880deed988368479a4801ca0fb195fdcae4c9bb7055f537b0982a995019e0647480e590dc31e741cfe8a280aa0328fb3416997c31dd845efa51a522e1186b3a507a97e4adb84ca927f09928ee8",
      "networkId": 0,
      "chainId": 0
    },
    {
      "hash": "0x402652c502eaf89bc533544e3d1f2d639eed98b2211e959a2c43de23e9b6d200",
      "blockHash": "0x4428ff653508ac7330b8e4c0678b6ec7a034e182f60492e52ef06b55e3daf695",
      "blockNumber": 115279,
      "transactionIndex": 2,
      "confirmations": null,
      "from": "0xe6A7a1d47ff21B6321162AEA7C6CB457D5476Bca",
      "gasPrice": {
        "_hex": "0xcba84eeeb"
      },
      "gasLimit": {
        "_hex": "0x55f0"
      },
      "to": "0x323cD41e4d4e74eB94CA49EdcCAab03f798a930a",
      "value": {
        "_hex": "0xdf99b67d84cbfe8"
      },
      "nonce": 5050,
      "data": "0x",
      "r": "0x087c85e1fd36ab2578373339ca51eda3b0b4000f3572216b2e4318c9627fe009",
      "s": "0x51172ab32b703dd229d882c2e41e292301c7e517f2c60041f07e3a877b8b3a1c",
      "v": 28,
      "creates": null,
      "raw": "0xf86e8213ba850cba84eeeb8255f094323cd41e4d4e74eb94ca49edccaab03f798a930a880df99b67d84cbfe8801ca0087c85e1fd36ab2578373339ca51eda3b0b4000f3572216b2e4318c9627fe009a051172ab32b703dd229d882c2e41e292301c7e517f2c60041f07e3a877b8b3a1c",
      "networkId": 0,
      "chainId": 0
    },
    {
      "hash": "0xe8c68a57dd560f72f851153d18b00169d171a99d2fbe61e6ecaccb046cf38ef7",
      "blockHash": "0x4428ff653508ac7330b8e4c0678b6ec7a034e182f60492e52ef06b55e3daf695",
      "blockNumber": 115279,
      "transactionIndex": 3,
      "confirmations": null,
      "from": "0xe6A7a1d47ff21B6321162AEA7C6CB457D5476Bca",
      "gasPrice": {
        "_hex": "0xcba84eeeb"
      },
      "gasLimit": {
        "_hex": "0x55f0"
      },
      "to": "0x91d32201228cd1Dea4e21d71f7A9e0CeF5de4A39",
      "value": {
        "_hex": "0xe005b32d3fcb4fc"
      },
      "nonce": 5051,
      "data": "0x",
      "r": "0xb63d580468e331d69653e4f4b3f4551d670ea68d969f2f8435642dae3dd1fb07",
      "s": "0x589faeb8545d443c911923aa48bdb06506a271ae69817fd2f60821c56e834393",
      "v": 27,
      "creates": null,
      "raw": "0xf86e8213bb850cba84eeeb8255f09491d32201228cd1dea4e21d71f7a9e0cef5de4a39880e005b32d3fcb4fc801ba0b63d580468e331d69653e4f4b3f4551d670ea68d969f2f8435642dae3dd1fb07a0589faeb8545d443c911923aa48bdb06506a271ae69817fd2f60821c56e834393",
      "networkId": 0,
      "chainId": 0
    }
  ]
}