{
  "hash": "0x05260a4586891849b68f8bbea7795b91f625674ef559627dba5e67d3ea5b457b",
  "parentHash": "0x8b64403ab9cf94c9a9947c61878edcea12ea6343228da72e0550324994db4415",
  "number": 91544,
  "timestamp": 1439657388,
  "nonce": "0x1116e10c037fe07d",
  "difficulty": 3484458592839,
  "gasLimit": {
    "_hex": "0x2fefd8"
  },
  "gasUsed": {
    "_hex": "0x2a20"
  },
  "miner": "0xe6A7a1d47ff21B6321162AEA7C6CB457D5476Bca",
  "extraData": "0x476574682f76312e302e312d38326566323666362f6c696e75782f676f312e34",
  "transactions": [
    {
      "hash": "0xfca45007532008ba1209928b9a312550c290a80d70e4fd7d59a5b714d0116638",
      "blockHash": "0x05260a4586891849b68f8bbea7795b91f625674ef559627dba5e67d3ea5b457b",
      "blockNumber": 91544,
      "transactionIndex": 0,
      "confirmations": null,
      "from": "0x9b65f5224DAB0793bC1cadD6640686A1A1D574ea",
      "gasPrice": {
        "_hex": "0xcddbb3bc5"
      },
      "gasLimit": {
        "_hex": "0x15f90"
      },
      "to": "0x12878A32aDcAB891F5149aed65528373d79F81c3",
      "value": {
        "_hex": "0x0"
      },
      "nonce": 1,
      "data": "0x41c0e1b5",
      "r": "0xf12414b0a895ee03b050b824d2913e9326b3159aeca925efef830cb5372f6b59",
      "s": "0x2f47c00f5fc6cf20fc5951ce9f1b0d5f226cf4304731c397d828aaac6fdfce97",
      "v": 27,
      "creates": null,
      "raw": "0xf86901850cddbb3bc583015f909412878a32adcab891f5149aed65528373d79f81c3808441c0e1b51ba0f12414b0a895ee03b050b824d2913e9326b3159aeca925efef830cb5372f6b59a02f47c00f5fc6cf20fc5951ce9f1b0d5f226cf4304731c397d828aaac6fdfce97",
      "networkId": 0,
      "chainId": 0
    }
  ]
}