{
  "hash": "0xebc15d3216e5566893c52553172237c80451b3248bb33e056ffd368db93a14ca",
  "parentHash": "0x6b303748e532b31aa90d9550848a4690a46b07ea0bb68e31af46608ae87cffb3",
  "number": 110852,
  "timestamp": 1439980686,
  "nonce": "0x624181ae8dc520df",
  "difficulty": 4394641702447,
  "gasLimit": {
    "_hex": "0x2fefd8"
  },
  "gasUsed": {
    "_hex": "0x5208"
  },
  "miner": "0x007f7f58D3eb5b7510A301eCC749FC1fCDDBE14D",
  "extraData": "0x476574682f76312e302e312f77696e646f77732f676f312e342e32",
  "transactions": [
    {
      "hash": "0xba55a8c60a12789d5f860a294f7fa6c212cb4fe52cd9871ae5999e60a56b01fb",
      "blockHash": "0xebc15d3216e5566893c52553172237c80451b3248bb33e056ffd368db93a14ca",
      "blockNumber": 110852,
      "transactionIndex": 0,
      "confirmations": null,
      "from": "0xDb8207d158c5396E26545A979C7A788852f81Eb6",
      "gasPrice": {
        "_hex": "0xd11d0f611"
      },
      "gasLimit": {
        "_hex": "0x5208"
      },
      "to": "0xFBb1b73C4f0BDa4f67dcA266ce6Ef42f520fBB98",
      "value": {
        "_hex": "0xddc86962a0add78"
      },
      "nonce": 0,
      "data": "0x",
      "r": "0x8f4088413ea6d11965e4a09fe7e7866593b18d4455e00e50cd1daafd5ea00fad",
      "s": "0x1c5fd04239e65069affadc7ff84a96deb737df4eb6e41d631407fac5d5a99f49",
      "v": 27,
      "creates": null,
      "raw": "0xf86c80850d11d0f61182520894fbb1b73c4f0bda4f67dca266ce6ef42f520fbb98880ddc86962a0add78801ba08f4088413ea6d11965e4a09fe7e7866593b18d4455e00e50cd1daafd5ea00fada01c5fd04239e65069affadc7ff84a96deb737df4eb6e41d631407fac5d5a99f49",
      "networkId": 0,
      "chainId": 0
    }
  ]
}