{
  "hash": "0x0e6efdf43ec1af81a55fa69bbc49d979a71d7bb298b635ee1270247589829394",
  "parentHash": "0x2be3b36353cfdae4a38fbabd9fe5e123b3ddb6fb67e0eec029622f44c7a74991",
  "number": 92548,
  "timestamp": 1439673801,
  "nonce": "0x0d60dc9e8a247a24",
  "difficulty": 3525110359264,
  "gasLimit": {
    "_hex": "0x2fefd8"
  },
  "gasUsed": {
    "_hex": "0x5208"
  },
  "miner": "0xf8E0CA3Ed80bd541b94BEdCf259e8CF2141A9523",
  "extraData": "0x476574682f76312e302e312f77696e646f77732f676f312e342e32",
  "transactions": [
    {
      "hash": "0x911964df92006d8b2afbc7632f8fb01efa6e21c96caf50a8198983a69d93cd06",
      "blockHash": "0x0e6efdf43ec1af81a55fa69bbc49d979a71d7bb298b635ee1270247589829394",
      "blockNumber": 92548,
      "transactionIndex": 0,
      "confirmations": null,
      "from": "0x32Be343B94f860124dC4fEe278FDCBD38C102D88",
      "gasPrice": {
        "_hex": "0xd0162307c"
      },
      "gasLimit": {
        "_hex": "0x5208"
      },
      "to": "0xdd5B9750fb9a83caDeAC5bFa4E34540A76E97ECE",
      "value": {
        "_hex": "0xd8d4ee47f07e70000"
      },
      "nonce": 898,
      "data": "0x",
      "r": "0x539d53aa8f0e9b24f8db3f64340ddb5178acbf347a3bd306b548272d47ae9216",
      "s": "0x655d688feae7a1e1b3aac546bbaa0ee1f4e208f52c563787b583af46ba6f1395",
      "v": 28,
      "creates": null,
      "raw": "0xf86f820382850d0162307c82520894dd5b9750fb9a83cadeac5bfa4e34540a76e97ece890d8d4ee47f07e70000801ca0539d53aa8f0e9b24f8db3f64340ddb5178acbf347a3bd306b548272d47ae9216a0655d688feae7a1e1b3aac546bbaa0ee1f4e208f52c563787b583af46ba6f1395",
      "networkId": 0,
      "chainId": 0
    }
  ]
}