{
  "hash": "0xede10d1fe1e4d7edb355000edc91176d4d8448df0360e78e5bd41dccbf3f2ad8",
  "parentHash": "0x8c3f4dde649c932ac862af1665ef4830129c33d996b08518f618d2635f0456df",
  "number": 107046,
  "timestamp": 1439915065,
  "nonce": "0x59842d43a4de7a5b",
  "difficulty": 4452808532635,
  "gasLimit": {
    "_hex": "0x2fefd8"
  },
  "gasUsed": {
    "_hex": "0x5208"
  },
  "miner": "0xD5ADfcb174Ca133e9349650E549fe6E2F3242B3a",
  "extraData": "0x476574682f76312e302e312f77696e646f77732f676f312e342e32",
  "transactions": [
    {
      "hash": "0x566830f415df6a299a391ca4e31b35f931e5ad5e49871dfd55d5824f9b4c44ea",
      "blockHash": "0xede10d1fe1e4d7edb355000edc91176d4d8448df0360e78e5bd41dccbf3f2ad8",
      "blockNumber": 107046,
      "transactionIndex": 0,
      "confirmations": null,
      "from": "0xeAf4D4BF5C091A258bf12a1B42fa3b93c5eE8098",
      "gasPrice": {
        "_hex": "0xd6b5e6dc1"
      },
      "gasLimit": {
        "_hex": "0x30d40"
      },
      "to": "0x120A270bbC009644e35F0bB6ab13f95b8199c4ad",
      "value": {
        "_hex": "0x1b7c0d883c22c2c0"
      },
      "nonce": 0,
      "data": "0x",
      "r": "0xaf9c552cec312e3890219633f6632bc654f5768109998ad83c5066791d94953e",
      "s": "0x299f9666a294d040ca0377d47284d3223cd8aeac9338168471352ea1da3459ff",
      "v": 27,
      "creates": null,
      "raw": "0xf86d80850d6b5e6dc183030d4094120a270bbc009644e35f0bb6ab13f95b8199c4ad881b7c0d883c22c2c0801ba0af9c552cec312e3890219633f6632bc654f5768109998ad83c5066791d94953ea0299f9666a294d040ca0377d47284d3223cd8aeac9338168471352ea1da3459ff",
      "networkId": 0,
      "chainId": 0
    }
  ]
}