{
  "hash": "0xfb6593886fcc17a3e03b8aedcd91b18e0c194fdef868e22b5933a39002f1b262",
  "parentHash": "0xa5e3cf0cc8f5104d3746a1707c44f7d930312e18bce6ef4d47e165f6623eef74",
  "number": 121931,
  "timestamp": 1440185097,
  "nonce": "0x8f78d8c30337982c",
  "difficulty": 4477589380396,
  "gasLimit": {
    "_hex": "0x2fefd8"
  },
  "gasUsed": {
    "_hex": "0xa410"
  },
  "miner": "0x004B37d3e250EB1826Fc6a587DEDdc18E7bE6F6f",
  "extraData": "0xd983010002844765746887676f312e342e328777696e646f7773",
  "transactions": [
    {
      "hash": "0x19c0e73bbe5b7a7d0c68b9de701b27fee86ef4a440ef1f969735e23d6763d5fc",
      "blockHash": "0xfb6593886fcc17a3e03b8aedcd91b18e0c194fdef868e22b5933a39002f1b262",
      "blockNumber": 121931,
      "transactionIndex": 0,
      "confirmations": null,
      "from": "0x2910543Af39abA0Cd09dBb2D50200b3E800A63D2",
      "gasPrice": {
        "_hex": "0xd37d42a9f"
      },
      "gasLimit": {
        "_hex": "0x5208"
      },
      "to": "0xFFf1471A813EaF20Ade11C3d58E3a64157216587",
      "value": {
        "_hex": "0xd9b415eabe72b8000"
      },
      "nonce": 1205,
      "data": "0x",
      "r": "0x7dabc52248803656caf3e206e7584bf9680dec87d8cbec2ab0027bdf7332f02f",
      "s": "0x19e78e3a0d7dbd02d1d6a304009b1a2ab0dea06f19203e281b72e9e590e5784d",
      "v": 28,
      "creates": null,
      "raw": "0xf86f8204b5850d37d42a9f82520894fff1471a813eaf20ade11c3d58e3a64157216587890d9b415eabe72b8000801ca07dabc52248803656caf3e206e7584bf9680dec87d8cbec2ab0027bdf7332f02fa019e78e3a0d7dbd02d1d6a304009b1a2ab0dea06f19203e281b72e9e590e5784d",
      "networkId": 0,
      "chainId": 0
    },
    {
      "hash": "0x7516f5f7f9bfa22bca9ef4627931521c8b9b59d6e3e7ee2480f70d989cc588a2",
      "blockHash": "0xfb6593886fcc17a3e03b8aedcd91b18e0c194fdef868e22b5933a39002f1b262",
      "blockNumber": 121931,
      "transactionIndex": 1,
      "confirmations": null,
      "from": "0x50087E7383C8865C1C136b8777C4350B8ed472CE",
      "gasPrice": {
        "_hex": "0xba43b7400"
      },
      "gasLimit": {
        "_hex": "0x15f90"
      },
      "to": "0x647fe784fb1A8380972fB6eA08D6eEd74D1a5699",
      "value": {
        "_hex": "0x14d1120d7b1600000"
      },
      "nonce": 10,
      "data": "0x",
      "r": "0xeab729841ddd6e33c63a1e3f605a0fbac6aaf3be77a732e828d9a96322aa059b",
      "s": "0x6da42a0515062278cbb45f96c5ed5be3970553acbb51a4d76c9c22fd90536b5b",
      "v": 28,
      "creates": null,
      "raw": "0xf86e0a850ba43b740083015f9094647fe784fb1a8380972fb6ea08d6eed74d1a569989014d1120d7b1600000801ca0eab729841ddd6e33c63a1e3f605a0fbac6aaf3be77a732e828d9a96322aa059ba06da42a0515062278cbb45f96c5ed5be3970553acbb51a4d76c9c22fd90536b5b",
      "networkId": 0,
      "chainId": 0
    }
  ]
}