{
  "hash": "0xe9b2aa588b5634a9788936c91c4bc8d62aeb9513bdff27cd8b0e379d03af55b6",
  "parentHash": "0x7fd68b10b291698a67580b181c5d9f9d00aa171d5ef1e2737dce48d8d01c08c4",
  "number": 76244,
  "timestamp": 1439417175,
  "nonce": "0x91fc2b2bb9aafac9",
  "difficulty": 2234120153314,
  "gasLimit": {
    "_hex": "0x2fefd8"
  },
  "gasUsed": {
    "_hex": "0x5208"
  },
  "miner": "0x46b92ea5c3E696bf123354DfCc564cbac1C90671",
  "extraData": "0x",
  "transactions": [
    {
      "hash": "0x123e6b08a6caa730d09a03217e44f3dc1c9134188b322c6bc8c06bd7e8a60332",
      "blockHash": "0xe9b2aa588b5634a9788936c91c4bc8d62aeb9513bdff27cd8b0e379d03af55b6",
      "blockNumber": 76244,
      "transactionIndex": 0,
      "confirmations": null,
      "from": "0x573fA39ba232a67268788CE9D5a7Bd8426856A6d",
      "gasPrice": {
        "_hex": "0xdcda6ee1e"
      },
      "gasLimit": {
        "_hex": "0x15f90"
      },
      "to": "0x19aF4b2766b8115B49E1fd31Ae71CaA12E706A96",
      "value": {
        "_hex": "0xde0b6b3a76400000"
      },
      "nonce": 1,
      "data": "0x",
      "r": "0x3882e3ef52335bbf77b9dbc92efa11bfff5491cd696f210112c12a370f6d67c4",
      "s": "0x0a35b9a3048133a3f7d5516c3bf89f2a13462562c49d24f729937acfb2d8ed35",
      "v": 28,
      "creates": null,
      "raw": "0xf86d01850dcda6ee1e83015f909419af4b2766b8115b49e1fd31ae71caa12e706a9688de0b6b3a76400000801ca03882e3ef52335bbf77b9dbc92efa11bfff5491cd696f210112c12a370f6d67c4a00a35b9a3048133a3f7d5516c3bf89f2a13462562c49d24f729937acfb2d8ed35",
      "networkId": 0,
      "chainId": 0
    }
  ]
}