{
  "hash": "0xfd679f90dc07f8bbb559dcbcd60df1e575bfabf4402264fc9793b3550d13bbd8",
  "parentHash": "0x7ae1d07bb780fa5f97d1817f87f0f1eecbff6a1684fd84f530b3d1672608a0c0",
  "number": 86563,
  "timestamp": 1439579889,
  "nonce": "0x629535bd17cf4b05",
  "difficulty": 2908839202263,
  "gasLimit": {
    "_hex": "0x2fefd8"
  },
  "gasUsed": {
    "_hex": "0x5208"
  },
  "miner": "0xe6A7a1d47ff21B6321162AEA7C6CB457D5476Bca",
  "extraData": "0x476574682f76312e302e312d38326566323666362f6c696e75782f676f312e34",
  "transactions": [
    {
      "hash": "0x5934b0c780de4dc96ef3b1e811d43f1ac96a88cd86b9f406688d08eff5233db6",
      "blockHash": "0xfd679f90dc07f8bbb559dcbcd60df1e575bfabf4402264fc9793b3550d13bbd8",
      "blockNumber": 86563,
      "transactionIndex": 0,
      "confirmations": null,
      "from": "0x1308A2e95c0160B90803ddCA9B9a5bb55E416d79",
      "gasPrice": {
        "_hex": "0xcccc008aa"
      },
      "gasLimit": {
        "_hex": "0x15f90"
      },
      "to": "0x357A01795bfA480a007fB4B1B6eDf2e8C23f1840",
      "value": {
        "_hex": "0x2b5e3af16b1880000"
      },
      "nonce": 133,
      "data": "0x",
      "r": "0xe94a94d1411efbe906c5a5df8a9471bda461e04367982c0beef1ecf7a2cf4051",
      "s": "0x2db1691222d79c2460dd8e6b880de395eaecf5c32b9e24b5faaee9d646ca42fa",
      "v": 27,
      "creates": null,
      "raw": "0xf86f8185850cccc008aa83015f9094357a01795bfa480a007fb4b1b6edf2e8c23f18408902b5e3af16b1880000801ba0e94a94d1411efbe906c5a5df8a9471bda461e04367982c0beef1ecf7a2cf4051a02db1691222d79c2460dd8e6b880de395eaecf5c32b9e24b5faaee9d646ca42fa",
      "networkId": 0,
      "chainId": 0
    }
  ]
}