{
  "hash": "0xaa09417b33c3f8cf166f2876f02a3314d182934655ad3a1d19c51b67b49b315a",
  "parentHash": "0x3fb34fbb4592273637e22737c3f8cf3dd5bab839c389eb2ceb4fda8709325511",
  "number": 99123,
  "timestamp": 1439784812,
  "nonce": "0x34f878cadd8aec44",
  "difficulty": 3810426898334,
  "gasLimit": {
    "_hex": "0x2fefd8"
  },
  "gasUsed": {
    "_hex": "0xa410"
  },
  "miner": "0xe6A7a1d47ff21B6321162AEA7C6CB457D5476Bca",
  "extraData": "0x476574682f76312e302e312d38326566323666362f6c696e75782f676f312e34",
  "transactions": [
    {
      "hash": "0x9a116a8091f7aab025f40ece23d1e130750abb29330b0e35c8f6f32dbe4afdb9",
      "blockHash": "0xaa09417b33c3f8cf166f2876f02a3314d182934655ad3a1d19c51b67b49b315a",
      "blockNumber": 99123,
      "transactionIndex": 0,
      "confirmations": null,
      "from": "0x06EC48800B2DB3eEfa052e98A9b5Fc2Bf783Ee74",
      "gasPrice": {
        "_hex": "0xcc2182c18"
      },
      "gasLimit": {
        "_hex": "0x5208"
      },
      "to": "0x32Be343B94f860124dC4fEe278FDCBD38C102D88",
      "value": {
        "_hex": "0x22b187fdfdfc94000"
      },
      "nonce": 16,
      "data": "0x",
      "r": "0xd7ed612a116ab80c38bcef71624ef13dcba4c2b04a505ac034be8b37399674df",
      "s": "0x4ce2025f0a89e2ac800f3b49ca043a89fc8df4bb99146c48de528f677f57b536",
      "v": 28,
      "creates": null,
      "raw": "0xf86d10850cc2182c188252089432be343b94f860124dc4fee278fdcbd38c102d8889022b187fdfdfc94000801ca0d7ed612a116ab80c38bcef71624ef13dcba4c2b04a505ac034be8b37399674dfa04ce2025f0a89e2ac800f3b49ca043a89fc8df4bb99146c48de528f677f57b536",
      "networkId": 0,
      "chainId": 0
    },
    {
      "hash": "0xff18edab678d1e7a30301d02919ffb785775219626ded8e353cc6ab91756724d",
      "blockHash": "0xaa09417b33c3f8cf166f2876f02a3314d182934655ad3a1d19c51b67b49b315a",
      "blockNumber": 99123,
      "transactionIndex": 1,
      "confirmations": null,
      "from": "0x32Be343B94f860124dC4fEe278FDCBD38C102D88",
      "gasPrice": {
        "_hex": "0xcc2182c18"
      },
      "gasLimit": {
        "_hex": "0x5208"
      },
      "to": "0x8ff16906f302B048E32dCF4d87eF3a0F42C9f3Bf",
      "value": {
        "_hex": "0x3502c6930762a8000"
      },
      "nonce": 1053,
      "data": "0x",
      "r": "0xd169e92a1fdaaa947c882d857fe5f41156efed39028a821b50cdd8933171d37f",
      "s": "0x777c5abdcbb29f0feee8dc1b2092957c5146218ff59058d91672acbcaddb20b7",
      "v": 27,
      "creates": null,
      "raw": "0xf86f82041d850cc2182c18825208948ff16906f302b048e32dcf4d87ef3a0f42c9f3bf8903502c6930762a8000801ba0d169e92a1fdaaa947c882d857fe5f41156efed39028a821b50cdd8933171d37fa0777c5abdcbb29f0feee8dc1b2092957c5146218ff59058d91672acbcaddb20b7",
      "networkId": 0,
      "chainId": 0
    }
  ]
}