{
  "hash": "0xd5a955bbf09d330b567bb1ae7b1ebd17ccda0113737b8f0d4b52b45ccfcb3bc5",
  "parentHash": "0x4faea53f7a6bf0edc412a9e3c6852be28dc7066fe8c167abfc5c2aba91119367",
  "number": 85816,
  "timestamp": 1439569218,
  "nonce": "0x117f5dad40b76aad",
  "difficulty": 2769112138580,
  "gasLimit": {
    "_hex": "0x2fefd8"
  },
  "gasUsed": {
    "_hex": "0xa410"
  },
  "miner": "0x0eDEd3DA479d0beF8eeC92A76644D3f4E3C177f7",
  "extraData": "0x476574682f76312e302e312f6c696e75782f676f312e342e32",
  "transactions": [
    {
      "hash": "0xdacccb0e3d032abaa1bfc4b0a9518d94ebd5ebfb065be4ec3b871059887a4e99",
      "blockHash": "0xd5a955bbf09d330b567bb1ae7b1ebd17ccda0113737b8f0d4b52b45ccfcb3bc5",
      "blockNumber": 85816,
      "transactionIndex": 0,
      "confirmations": null,
      "from": "0xeBe03d9d305540BEe866FC154eFD8C28eCA41A9b",
      "gasPrice": {
        "_hex": "0xba43b7400"
      },
      "gasLimit": {
        "_hex": "0x5208"
      },
      "to": "0xC47Aaa860008be6f65B58c6C6E02a84e666EfE31",
      "value": {
        "_hex": "0x9ccdef291ce638f0"
      },
      "nonce": 1,
      "data": "0x",
      "r": "0x530408d39a49deffc63748cf5e8deb929ed11ca4bb6f7902125a307ee37040a4",
      "s": "0x74672a1d44e02959801339035c40f3265c1c87ce53e50cb3306a7144e68424ed",
      "v": 27,
      "creates": null,
      "raw": "0xf86c01850ba43b740082520894c47aaa860008be6f65b58c6c6e02a84e666efe31889ccdef291ce638f0801ba0530408d39a49deffc63748cf5e8deb929ed11ca4bb6f7902125a307ee37040a4a074672a1d44e02959801339035c40f3265c1c87ce53e50cb3306a7144e68424ed",
      "networkId": 0,
      "chainId": 0
    },
    {
      "hash": "0x762d85735d6d1bbb863aa5469caec3f65e8930537d6911198e57779f36bed11e",
      "blockHash": "0xd5a955bbf09d330b567bb1ae7b1ebd17ccda0113737b8f0d4b52b45ccfcb3bc5",
      "blockNumber": 85816,
      "transactionIndex": 1,
      "confirmations": null,
      "from": "0x734DDf1c85733672C5e8D1db68c3d38d5151ce1f",
      "gasPrice": {
        "_hex": "0xba43b7400"
      },
      "gasLimit": {
        "_hex": "0x5208"
      },
      "to": "0xC47Aaa860008be6f65B58c6C6E02a84e666EfE31",
      "value": {
        "_hex": "0x777598e5aca506000"
      },
      "nonce": 0,
      "data": "0x",
      "r": "0xcb8c13d9c30fba2b71521b417523d58cac5b565deaa59458a6a33fa81ef8900e",
      "s": "0x691f3a64539af630c0fc0c7e4d33873661696569ccba836aa5087bd4d1d09763",
      "v": 28,
      "creates": null,
      "raw": "0xf86d80850ba43b740082520894c47aaa860008be6f65b58c6c6e02a84e666efe31890777598e5aca506000801ca0cb8c13d9c30fba2b71521b417523d58cac5b565deaa59458a6a33fa81ef8900ea0691f3a64539af630c0fc0c7e4d33873661696569ccba836aa5087bd4d1d09763",
      "networkId": 0,
      "chainId": 0
    }
  ]
}