{
  "hash": "0x4da61fec275945f1432d9baafd2590bf09f99c8f5f8bd0750a0d3313abf68d37",
  "parentHash": "0x207b1b9290ffc03f02a76a39dca9030dd103c4cb0c0873174614fb489a11244d",
  "number": 105187,
  "timestamp": 1439883251,
  "nonce": "0x3cfff6122aba6ee1",
  "difficulty": 4327318396001,
  "gasLimit": {
    "_hex": "0x2fefd8"
  },
  "gasUsed": {
    "_hex": "0x5208"
  },
  "miner": "0xC603Ab5ef41fC61AA8b76bEddb09e3Cfcbb174BD",
  "extraData": "0x476574682f76312e302e312f77696e646f77732f676f312e342e32",
  "transactions": [
    {
      "hash": "0x509039e8b0f4bbbb0314513b730367bf95b883f62ab5839af06ed8d509d1cb5e",
      "blockHash": "0x4da61fec275945f1432d9baafd2590bf09f99c8f5f8bd0750a0d3313abf68d37",
      "blockNumber": 105187,
      "transactionIndex": 0,
      "confirmations": null,
      "from": "0x4Eaf4CaDd87499C20bA3412B1D222f9a72DA7AFF",
      "gasPrice": {
        "_hex": "0xda4a71749"
      },
      "gasLimit": {
        "_hex": "0x5208"
      },
      "to": "0x32Be343B94f860124dC4fEe278FDCBD38C102D88",
      "value": {
        "_hex": "0x3ba17ae94e9e3a0000"
      },
      "nonce": 5,
      "data": "0x",
      "r": "0x740fed8b52b27ffebfab5775dbe3dd503bc34c919c2b07515f20feb1e96db5ed",
      "s": "0x356b2f9bca1ccfeb58348c97171ddb4d55de44ea1e2f65dae4442004e0fddebe",
      "v": 27,
      "creates": null,
      "raw": "0xf86d05850da4a717498252089432be343b94f860124dc4fee278fdcbd38c102d88893ba17ae94e9e3a0000801ba0740fed8b52b27ffebfab5775dbe3dd503bc34c919c2b07515f20feb1e96db5eda0356b2f9bca1ccfeb58348c97171ddb4d55de44ea1e2f65dae4442004e0fddebe",
      "networkId": 0,
      "chainId": 0
    }
  ]
}