{
  "hash": "0xf3a4c747d8c7361ecb345e9fc97fceb5578ab35bf345d591400dca1169234a9a",
  "parentHash": "0x8a69290e125a19bc0cedceddfc917665cfac0f7eb6a8762781c82a325b008ac9",
  "number": 61537,
  "timestamp": 1439173969,
  "nonce": "0xb14b5af70f6bd6a8",
  "difficulty": 1740436303204,
  "gasLimit": {
    "_hex": "0x2fefd8"
  },
  "gasUsed": {
    "_hex": "0x5208"
  },
  "miner": "0x55d6bb729E3D6128B9032d03897D7C85cBB4e688",
  "extraData": "0x",
  "transactions": [
    {
      "hash": "0x34f0395387a510ff0989d4bde3096a47a49eca9a1cdfa8caac18e83c6bfdf90d",
      "blockHash": "0xf3a4c747d8c7361ecb345e9fc97fceb5578ab35bf345d591400dca1169234a9a",
      "blockNumber": 61537,
      "transactionIndex": 0,
      "confirmations": null,
      "from": "0x120A270bbC009644e35F0bB6ab13f95b8199c4ad",
      "gasPrice": {
        "_hex": "0xe33758762"
      },
      "gasLimit": {
        "_hex": "0x15f90"
      },
      "to": "0x27a6C40985Fa6cAfaC42CD2077FC25580d3fE37E",
      "value": {
        "_hex": "0x4563918244f40000"
      },
      "nonce": 75,
      "data": "0x",
      "r": "0xb0654870f8e7433197b84efdf2e7b599a23b5ac61038733d43078aab1b73f5af",
      "s": "0x6d1ff3e7ff26109f0597825219e1f6f92c5ed600c9bb90c72e025592e9990ecb",
      "v": 28,
      "creates": null,
      "raw": "0xf86d4b850e3375876283015f909427a6c40985fa6cafac42cd2077fc25580d3fe37e884563918244f40000801ca0b0654870f8e7433197b84efdf2e7b599a23b5ac61038733d43078aab1b73f5afa06d1ff3e7ff26109f0597825219e1f6f92c5ed600c9bb90c72e025592e9990ecb",
      "networkId": 0,
      "chainId": 0
    }
  ]
}