{
  "hash": "0xa6deb322be0f7c8114569ab2701330be436c23e29e777ca7d7a9b50e0f941d34",
  "parentHash": "0xc541135114b4263abd0809271a399e1ad6989c2ea0c4765d0719a8564df6dd7f",
  "number": 100076,
  "timestamp": 1439800233,
  "nonce": "0xfab6c82f181ce97d",
  "difficulty": 3845505130579,
  "gasLimit": {
    "_hex": "0x2fefd8"
  },
  "gasUsed": {
    "_hex": "0x546c"
  },
  "miner": "0xe6A7a1d47ff21B6321162AEA7C6CB457D5476Bca",
  "extraData": "0x476574682f76312e302e312d38326566323666362f6c696e75782f676f312e34",
  "transactions": [
    {
      "hash": "0xe826ee0d91b2a44559c05a1d2370532d517d4b5732c038b5a2784580cbd44486",
      "blockHash": "0xa6deb322be0f7c8114569ab2701330be436c23e29e777ca7d7a9b50e0f941d34",
      "blockNumber": 100076,
      "transactionIndex": 0,
      "confirmations": null,
      "from": "0x837A2A346557050c8cF0fb24b84Aa695E8Add19f",
      "gasPrice": {
        "_hex": "0xdaefbe723"
      },
      "gasLimit": {
        "_hex": "0x55f0"
      },
      "to": "0x2910543Af39abA0Cd09dBb2D50200b3E800A63D2",
      "value": {
        "_hex": "0xbed1d0263d9f00000"
      },
      "nonce": 7,
      "data": "0x454e415157474e5a38",
      "r": "0xa2dfd1ebee2bc4a5ddf386acb6fa517b4f101c3909ea245c4122af4a892b8ab0",
      "s": "0x77ff0863395ba83a91260f56a73873100da453a6f80f42c45a5343c28c7759e8",
      "v": 27,
      "creates": null,
      "raw": "0xf87607850daefbe7238255f0942910543af39aba0cd09dbb2d50200b3e800a63d2890bed1d0263d9f0000089454e415157474e5a381ba0a2dfd1ebee2bc4a5ddf386acb6fa517b4f101c3909ea245c4122af4a892b8ab0a077ff0863395ba83a91260f56a73873100da453a6f80f42c45a5343c28c7759e8",
      "networkId": 0,
      "chainId": 0
    }
  ]
}