{
  "hash": "0xa0d6534a4405340089ecd5c8e6f2abb8ac068031e03aba6a77f45e956fa8a77f",
  "parentHash": "0x975f3845f0fb5bae072c711c9431559eb073103c37e4e3afd84dd9b689130298",
  "number": 71499,
  "timestamp": 1439337182,
  "nonce": "0x6a034c8b8af238c5",
  "difficulty": 2176150870421,
  "gasLimit": {
    "_hex": "0x2fefd8"
  },
  "gasUsed": {
    "_hex": "0xe5ba"
  },
  "miner": "0x5F8F73E26CdF436f19Cb24C82F90A15AFe55b592",
  "extraData": "0x476574682f76312e302e312f77696e646f77732f676f312e342e32",
  "transactions": [
    {
      "hash": "0x65883a363cc61188c15145af15ca5a80b6931d03839a008684d919d72954fbaa",
      "blockHash": "0xa0d6534a4405340089ecd5c8e6f2abb8ac068031e03aba6a77f45e956fa8a77f",
      "blockNumber": 71499,
      "transactionIndex": 0,
      "confirmations": null,
      "from": "0x609E9AE0DC7196EC893bFa9C06A37421Be70bF2d",
      "gasPrice": {
        "_hex": "0xd99bfafa8"
      },
      "gasLimit": {
        "_hex": "0x5208"
      },
      "to": "0x32Be343B94f860124dC4fEe278FDCBD38C102D88",
      "value": {
        "_hex": "0x1bbd11b9f5090800"
      },
      "nonce": 0,
      "data": "0x",
      "r": "0x343744fd0979b6aab6dd7c82fac82ff896e04ec614cda6efb6c5071cc9eb79ae",
      "s": "0x1bf2721d0b9f7d34db47b9ac70762344fffdaaaeec4aedf26c7b819ff30dce28",
      "v": 28,
      "creates": null,
      "raw": "0xf86c80850d99bfafa88252089432be343b94f860124dc4fee278fdcbd38c102d88881bbd11b9f5090800801ca0343744fd0979b6aab6dd7c82fac82ff896e04ec614cda6efb6c5071cc9eb79aea01bf2721d0b9f7d34db47b9ac70762344fffdaaaeec4aedf26c7b819ff30dce28",
      "networkId": 0,
      "chainId": 0
    },
    {
      "hash": "0x0e95befd20a4f3ba921a1def3921a056ca080588fc682f7f9700a10305d03e22",
      "blockHash": "0xa0d6534a4405340089ecd5c8e6f2abb8ac068031e03aba6a77f45e956fa8a77f",
      "blockNumber": 71499,
      "transactionIndex": 1,
      "confirmations": null,
      "from": "0x17580B766f7453525ca4C6A88b01b50570EA088C",
      "gasPrice": {
        "_hex": "0xcd3452148"
      },
      "gasLimit": {
        "_hex": "0x61a80"
      },
      "to": "0x5Fe5B7546D1628f7348B023A0393de1FC825A4fD",
      "value": {
        "_hex": "0x29a2241af62c0000"
      },
      "nonce": 207,
      "data": "0xb595b8b50000000000000000000000000000000000000000000000000000000000000000",
      "r": "0x702ed93e256c093e24126c0116a1034d113dfd06f724fa6005e4f5396756d5a6",
      "s": "0x528f47edb0e42d5efc02fac979aa294186d47454eaee174737850cccbce89719",
      "v": 28,
      "creates": null,
      "raw": "0xf89281cf850cd345214883061a80945fe5b7546d1628f7348b023a0393de1fc825a4fd8829a2241af62c0000a4b595b8b500000000000000000000000000000000000000000000000000000000000000001ca0702ed93e256c093e24126c0116a1034d113dfd06f724fa6005e4f5396756d5a6a0528f47edb0e42d5efc02fac979aa294186d47454eaee174737850cccbce89719",
      "networkId": 0,
      "chainId": 0
    }
  ]
}