{
  "hash": "0x85bb3adf95790bda6518e8474bed93d02f0fdbcdb54f31f692ea1fcefb918df6",
  "parentHash": "0xf2d652ac6ab30e9f20562ba482060e21b8479db20d71830c63ce7966ed4ffb23",
  "number": 70348,
  "timestamp": 1439318594,
  "nonce": "0x411e9b85c7dea0d6",
  "difficulty": 2133311223162,
  "gasLimit": {
    "_hex": "0x2fefd8"
  },
  "gasUsed": {
    "_hex": "0x5208"
  },
  "miner": "0xe6A7a1d47ff21B6321162AEA7C6CB457D5476Bca",
  "extraData": "0x476574682f76312e302e312d38326566323666362f6c696e75782f676f312e34",
  "transactions": [
    {
      "hash": "0x0317b36ec79bb6f5ec07e37638601687f60c3a5449d616b3c41c039274450730",
      "blockHash": "0x85bb3adf95790bda6518e8474bed93d02f0fdbcdb54f31f692ea1fcefb918df6",
      "blockNumber": 70348,
      "transactionIndex": 0,
      "confirmations": null,
      "from": "0xf64EE50154E0D74461966B4bB90139C010BCA68B",
      "gasPrice": {
        "_hex": "0xcf823e532"
      },
      "gasLimit": {
        "_hex": "0x15f90"
      },
      "to": "0xc97b6E47df229442524F8f210926557900f81574",
      "value": {
        "_hex": "0x46c6d6faa27e0000"
      },
      "nonce": 6,
      "data": "0x",
      "r": "0x91c541bf7a34e46b0685b4537ee018c1fc67a60613703c4ea50955f7020e83be",
      "s": "0x3170a307055992356bdbf7d7656a83986d691469d125c0d48ee8caaabe4bf026",
      "v": 27,
      "creates": null,
      "raw": "0xf86d06850cf823e53283015f9094c97b6e47df229442524f8f210926557900f815748846c6d6faa27e0000801ba091c541bf7a34e46b0685b4537ee018c1fc67a60613703c4ea50955f7020e83bea03170a307055992356bdbf7d7656a83986d691469d125c0d48ee8caaabe4bf026",
      "networkId": 0,
      "chainId": 0
    }
  ]
}