{
  "hash": "0xa4b635dd63bd77d2588460097572c2695b01c73a18b76b618a6e52c3ac89be7e",
  "parentHash": "0xe08ac7e7783a5fa0e5a3cb08c04eb5646d9f1903700c957adc00f1a9114ff788",
  "number": 108024,
  "timestamp": 1439932754,
  "nonce": "0x558033368713de5e",
  "difficulty": 4370440270183,
  "gasLimit": {
    "_hex": "0x2fefd8"
  },
  "gasUsed": {
    "_hex": "0x14820"
  },
  "miner": "0xe6A7a1d47ff21B6321162AEA7C6CB457D5476Bca",
  "extraData": "0x476574682f76312e302e312d38326566323666362f6c696e75782f676f312e34",
  "transactions": [
    {
      "hash": "0x94446324ab0d1fbfca4dcc9c582bdd1a998c34d90aa7e61a831d3181e67fd28a",
      "blockHash": "0xa4b635dd63bd77d2588460097572c2695b01c73a18b76b618a6e52c3ac89be7e",
      "blockNumber": 108024,
      "transactionIndex": 0,
      "confirmations": null,
      "from": "0xFBb1b73C4f0BDa4f67dcA266ce6Ef42f520fBB98",
      "gasPrice": {
        "_hex": "0xcdd4f8aca"
      },
      "gasLimit": {
        "_hex": "0x5208"
      },
      "to": "0x3D5C4B04c87615AD5Ea311b02e2898666416832f",
      "value": {
        "_hex": "0xaf07d5c42bd4400"
      },
      "nonce": 123,
      "data": "0x",
      "r": "0x0697ba7536a3a280d6b7207d6a49de0453606e06dae00b14907dacab028192d1",
      "s": "0x05cf95a4af8abdd89483c4455a83d2440248aeb8009145e217ed4e1416707a90",
      "v": 28,
      "creates": null,
      "raw": "0xf86c7b850cdd4f8aca825208943d5c4b04c87615ad5ea311b02e2898666416832f880af07d5c42bd4400801ca00697ba7536a3a280d6b7207d6a49de0453606e06dae00b14907dacab028192d1a005cf95a4af8abdd89483c4455a83d2440248aeb8009145e217ed4e1416707a90",
      "networkId": 0,
      "chainId": 0
    },
    {
      "hash": "0xd259e8a4bdc4db71620edc59c28f5c52be4b067ed475b7449cd7ca86af9301af",
      "blockHash": "0xa4b635dd63bd77d2588460097572c2695b01c73a18b76b618a6e52c3ac89be7e",
      "blockNumber": 108024,
      "transactionIndex": 1,
      "confirmations": null,
      "from": "0xFBb1b73C4f0BDa4f67dcA266ce6Ef42f520fBB98",
      "gasPrice": {
        "_hex": "0xcdd4f8aca"
      },
      "gasLimit": {
        "_hex": "0x5208"
      },
      "to": "0x76d4a9bc9612bE738A81d0fE632b00B971E2bB9a",
      "value": {
        "_hex": "0x1506f57ee4334400"
      },
      "nonce": 124,
      "data": "0x",
      "r": "0x78f208e3cc925d0c757646f9a1976cf458ada6f957cf6b412aa1a56569c24d67",
      "s": "0x087695523fda6f753833fe0cf17788f6f78c7eb00e84ad7ff26a4a5e0071fda4",
      "v": 28,
      "creates": null,
      "raw": "0xf86c7c850cdd4f8aca8252089476d4a9bc9612be738a81d0fe632b00b971e2bb9a881506f57ee4334400801ca078f208e3cc925d0c757646f9a1976cf458ada6f957cf6b412aa1a56569c24d67a0087695523fda6f753833fe0cf17788f6f78c7eb00e84ad7ff26a4a5e0071fda4",
      "networkId": 0,
      "chainId": 0
    },
    {
      "hash": "0x05f0d49da05625412b2c3307e14d0cf5eadeebeabe0075af67315b4d06d0b4e8",
      "blockHash": "0xa4b635dd63bd77d2588460097572c2695b01c73a18b76b618a6e52c3ac89be7e",
      "blockNumber": 108024,
      "transactionIndex": 2,
      "confirmations": null,
      "from": "0xFBb1b73C4f0BDa4f67dcA266ce6Ef42f520fBB98",
      "gasPrice": {
        "_hex": "0xcdd4f8aca"
      },
      "gasLimit": {
        "_hex": "0x5208"
      },
      "to": "0xC8FC262b7cBF3f91Dab62A097955e6544ae2ba2E",
      "value": {
        "_hex": "0xd7ac070b78b6800"
      },
      "nonce": 125,
      "data": "0x",
      "r": "0x1a64c9f5191fe577c060f0ccde4ed86fb9164dc9e8f0668ae1c265f816477edd",
      "s": "0x78012118b2d9802e1862796be103a60f26240b8f66d83511ff442691fbde4bb3",
      "v": 27,
      "creates": null,
      "raw": "0xf86c7d850cdd4f8aca82520894c8fc262b7cbf3f91dab62a097955e6544ae2ba2e880d7ac070b78b6800801ba01a64c9f5191fe577c060f0ccde4ed86fb9164dc9e8f0668ae1c265f816477edda078012118b2d9802e1862796be103a60f26240b8f66d83511ff442691fbde4bb3",
      "networkId": 0,
      "chainId": 0
    },
    {
      "hash": "0xb9f6e42e8d6286da5f5cbd7bec50757cac228e094d657f64b437552e71d207d2",
      "blockHash": "0xa4b635dd63bd77d2588460097572c2695b01c73a18b76b618a6e52c3ac89be7e",
      "blockNumber": 108024,
      "transactionIndex": 3,
      "confirmations": null,
      "from": "0xFBb1b73C4f0BDa4f67dcA266ce6Ef42f520fBB98",
      "gasPrice": {
        "_hex": "0xcdd4f8aca"
      },
      "gasLimit": {
        "_hex": "0x5208"
      },
      "to": "0x9B80BD38c4afE0942F8029298A11fACe85ce4cAF",
      "value": {
        "_hex": "0x5f51a0c63cc1800"
      },
      "nonce": 126,
      "data": "0x",
      "r": "0xa17c7278c8fa882ff7b463c74c67dd17fb0f052afa6c10f4c7b747ccc750fd3a",
      "s": "0x1d75e1ee74f2e6abbaed6ac768d8e73af52b4694dba0d00b46cf555df5f454c4",
      "v": 28,
      "creates": null,
      "raw": "0xf86c7e850cdd4f8aca825208949b80bd38c4afe0942f8029298a11face85ce4caf8805f51a0c63cc1800801ca0a17c7278c8fa882ff7b463c74c67dd17fb0f052afa6c10f4c7b747ccc750fd3aa01d75e1ee74f2e6abbaed6ac768d8e73af52b4694dba0d00b46cf555df5f454c4",
      "networkId": 0,
      "chainId": 0
    }
  ]
}