{
  "hash": "0xc638db8a1b50f4d7e8dc71281434bd1bdc36b5114918af7c462389c9711491c2",
  "parentHash": "0x7cacd516d849a0442f3399f3710490b731e3c5af545b9196c0a5ca568a6796e0",
  "number": 85579,
  "timestamp": 1439565741,
  "nonce": "0xf8783f5390b399a3",
  "difficulty": 2767838560528,
  "gasLimit": {
    "_hex": "0x2fefd8"
  },
  "gasUsed": {
    "_hex": "0xf618"
  },
  "miner": "0xe6A7a1d47ff21B6321162AEA7C6CB457D5476Bca",
  "extraData": "0x476574682f76312e302e312d38326566323666362f6c696e75782f676f312e34",
  "transactions": [
    {
      "hash": "0x16f3f989826bf849c3cc01d41701f55f1c33ccab7a25eb5c7cc07c3cd24c6f60",
      "blockHash": "0xc638db8a1b50f4d7e8dc71281434bd1bdc36b5114918af7c462389c9711491c2",
      "blockNumber": 85579,
      "transactionIndex": 0,
      "confirmations": null,
      "from": "0x695b4cCE085856d9e1f9Ff3e79942023359E5fbC",
      "gasPrice": {
        "_hex": "0xde7b8c539"
      },
      "gasLimit": {
        "_hex": "0x5208"
      },
      "to": "0xBb8F3Dd31Dd284Cc1Deeec5Ac356aD38296Ea6A0",
      "value": {
        "_hex": "0x10f0cdf70694ce3e460"
      },
      "nonce": 2,
      "data": "0x",
      "r": "0xa9b26c114de558db6e1eef2f60ab9c580feda66b42a1a9ac3844fda6888e6d2e",
      "s": "0x7f318c9cbeb4b97e184127a2baae8f9956cb903c1da6afea722a6ae5abc57fd8",
      "v": 27,
      "creates": null,
      "raw": "0xf86e02850de7b8c53982520894bb8f3dd31dd284cc1deeec5ac356ad38296ea6a08a010f0cdf70694ce3e460801ba0a9b26c114de558db6e1eef2f60ab9c580feda66b42a1a9ac3844fda6888e6d2ea07f318c9cbeb4b97e184127a2baae8f9956cb903c1da6afea722a6ae5abc57fd8",
      "networkId": 0,
      "chainId": 0
    },
    {
      "hash": "0x80793eedd2545ab1dab8b3d5373a84cab0052ab16aa8c4e46e70777ea8fc815d",
      "blockHash": "0xc638db8a1b50f4d7e8dc71281434bd1bdc36b5114918af7c462389c9711491c2",
      "blockNumber": 85579,
      "transactionIndex": 1,
      "confirmations": null,
      "from": "0x87898CE53471043FcCa0a2aF4E1dC6d8B3fCf607",
      "gasPrice": {
        "_hex": "0xcd312419d"
      },
      "gasLimit": {
        "_hex": "0x5208"
      },
      "to": "0xBFdD9820a04283b289957956353b5F3C1F665EcF",
      "value": {
        "_hex": "0x8ac7230489e80000"
      },
      "nonce": 37,
      "data": "0x",
      "r": "0x2856b00c2711f87df8bb6193ddc447752d7b8f8cf4e13599b84456bad2a91bed",
      "s": "0x35bafe3e235d8973a3c913377e68640e655b9d35e9a6ab0c7ecdbc1b99283468",
      "v": 27,
      "creates": null,
      "raw": "0xf86c25850cd312419d82520894bfdd9820a04283b289957956353b5f3c1f665ecf888ac7230489e80000801ba02856b00c2711f87df8bb6193ddc447752d7b8f8cf4e13599b84456bad2a91beda035bafe3e235d8973a3c913377e68640e655b9d35e9a6ab0c7ecdbc1b99283468",
      "networkId": 0,
      "chainId": 0
    },
    {
      "hash": "0x1e43d7fc7178efd6e8e36c8cad5273222218006d56ec7e41169414b6e493f072",
      "blockHash": "0xc638db8a1b50f4d7e8dc71281434bd1bdc36b5114918af7c462389c9711491c2",
      "blockNumber": 85579,
      "transactionIndex": 2,
      "confirmations": null,
      "from": "0x4E9f76CBc24805BF1Db0fb2113B3FAb42F9879Df",
      "gasPrice": {
        "_hex": "0xba43b7400"
      },
      "gasLimit": {
        "_hex": "0x5b04"
      },
      "to": "0x9f78552704fe7e52cC7C3853534aA2C3cf580D54",
      "value": {
        "_hex": "0x4563918244f40000"
      },
      "nonce": 4,
      "data": "0x",
      "r": "0x123474751c454f22ae8fff7c42fac9698f962d8edb7cec2308d8bc921e2b081d",
      "s": "0x23d845f6ab75f939c96a4063fbf1cf030ee1153ab592d5dd5e88cc4394c3add6",
      "v": 28,
      "creates": null,
      "raw": "0xf86c04850ba43b7400825b04949f78552704fe7e52cc7c3853534aa2c3cf580d54884563918244f40000801ca0123474751c454f22ae8fff7c42fac9698f962d8edb7cec2308d8bc921e2b081da023d845f6ab75f939c96a4063fbf1cf030ee1153ab592d5dd5e88cc4394c3add6",
      "networkId": 0,
      "chainId": 0
    }
  ]
}