{
  "hash": "0xe526b278ea4a9a0c3959c54dd33586c3fe0c1878d34607b64b5c0002138a7b5b",
  "parentHash": "0x50171ce3bdc89f51c07f2198b05258068355135c4bbb3b55305810faee309f2d",
  "number": 97090,
  "timestamp": 1439750599,
  "nonce": "0x6cbf9c72f95bccf1",
  "difficulty": 3754093566112,
  "gasLimit": {
    "_hex": "0x2fefd8"
  },
  "gasUsed": {
    "_hex": "0x5208"
  },
  "miner": "0xC603Ab5ef41fC61AA8b76bEddb09e3Cfcbb174BD",
  "extraData": "0x476574682f76312e302e312f77696e646f77732f676f312e342e32",
  "transactions": [
    {
      "hash": "0x96b3be1deef540899ec08c1ade3821f786dc21d6a6a7349d55fbd35873c32c70",
      "blockHash": "0xe526b278ea4a9a0c3959c54dd33586c3fe0c1878d34607b64b5c0002138a7b5b",
      "blockNumber": 97090,
      "transactionIndex": 0,
      "confirmations": null,
      "from": "0x40B9b889A21Ff1534d018D71Dc406122EBcf3F5A",
      "gasPrice": {
        "_hex": "0x114acb34218"
      },
      "gasLimit": {
        "_hex": "0x15f90"
      },
      "to": "0x645B979F8ce622236DB26feB803455d40C328615",
      "value": {
        "_hex": "0x3635c9adc5dea00000"
      },
      "nonce": 39,
      "data": "0x",
      "r": "0x5a321988955992ec3d5fcee503f11ae370e8cb289b95776ec271840ff2d12394",
      "s": "0x1c1def7e04396071918210c144fc1ab1b323dcb0902137bdaea1d7482be1d11c",
      "v": 27,
      "creates": null,
      "raw": "0xf86f27860114acb3421883015f9094645b979f8ce622236db26feb803455d40c328615893635c9adc5dea00000801ba05a321988955992ec3d5fcee503f11ae370e8cb289b95776ec271840ff2d12394a01c1def7e04396071918210c144fc1ab1b323dcb0902137bdaea1d7482be1d11c",
      "networkId": 0,
      "chainId": 0
    }
  ]
}