{
  "hash": "0xcf135f2d4d98d75c1f90a2455870af6c251cbbc9d7b6ac0a7c2f1951ac2803da",
  "parentHash": "0x89da950941693434ece73783616ec3de4b8cbce4d51b36add71e36690719729b",
  "number": 82166,
  "timestamp": 1439514655,
  "nonce": "0xcf137bf2a5f316ac",
  "difficulty": 2390496072275,
  "gasLimit": {
    "_hex": "0x2fefd8"
  },
  "gasUsed": {
    "_hex": "0x5208"
  },
  "miner": "0xe6A7a1d47ff21B6321162AEA7C6CB457D5476Bca",
  "extraData": "0x476574682f76312e302e312d38326566323666362f6c696e75782f676f312e34",
  "transactions": [
    {
      "hash": "0xe0180fb866d6e0dd0ea6fb83f0d9b00a25e2e3ce8e157945da066bce13b73c1a",
      "blockHash": "0xcf135f2d4d98d75c1f90a2455870af6c251cbbc9d7b6ac0a7c2f1951ac2803da",
      "blockNumber": 82166,
      "transactionIndex": 0,
      "confirmations": null,
      "from": "0x2910543Af39abA0Cd09dBb2D50200b3E800A63D2",
      "gasPrice": {
        "_hex": "0xd581be7da"
      },
      "gasLimit": {
        "_hex": "0x5208"
      },
      "to": "0xB1BE1Dee63552a38E27d650B399Fa10f81684da6",
      "value": {
        "_hex": "0x15b1eebee45773ea000"
      },
      "nonce": 511,
      "data": "0x",
      "r": "0x31eef245345baf431abbc9c3fee36461424aef8069987dc77436b0ff291b54f7",
      "s": "0x440086997a2ed36958bd96f825810f1199f29378e6c60b2150f1d2da38865091",
      "v": 27,
      "creates": null,
      "raw": "0xf8708201ff850d581be7da82520894b1be1dee63552a38e27d650b399fa10f81684da68a015b1eebee45773ea000801ba031eef245345baf431abbc9c3fee36461424aef8069987dc77436b0ff291b54f7a0440086997a2ed36958bd96f825810f1199f29378e6c60b2150f1d2da38865091",
      "networkId": 0,
      "chainId": 0
    }
  ]
}