{
  "hash": "0x49e709fa12c75565d5b563fe68894990ff47fd5fb32c70683ab372bef23ad60e",
  "parentHash": "0x0ea018b0c52f916afe4d57a99ec86d671f5fcc7deec61147efd42faef6056013",
  "number": 107018,
  "timestamp": 1439914635,
  "nonce": "0x95e128fcd2667c52",
  "difficulty": 4448477057402,
  "gasLimit": {
    "_hex": "0x2fefd8"
  },
  "gasUsed": {
    "_hex": "0x5208"
  },
  "miner": "0xe6A7a1d47ff21B6321162AEA7C6CB457D5476Bca",
  "extraData": "0x476574682f76312e302e312d38326566323666362f6c696e75782f676f312e34",
  "transactions": [
    {
      "hash": "0xd31660a7af1bbe3734bf68c0630beaeecbf3fe7099c4ca4ec7a4a25649631647",
      "blockHash": "0x49e709fa12c75565d5b563fe68894990ff47fd5fb32c70683ab372bef23ad60e",
      "blockNumber": 107018,
      "transactionIndex": 0,
      "confirmations": null,
      "from": "0xA55A736A19c5367e01F9DA25227cbE1AFc48D7f3",
      "gasPrice": {
        "_hex": "0xd641f460d"
      },
      "gasLimit": {
        "_hex": "0x15f90"
      },
      "to": "0xe29AFa2051650D8C9549dF817E80ad5C7c398124",
      "value": {
        "_hex": "0xde0b6b3a7640000"
      },
      "nonce": 0,
      "data": "0x",
      "r": "0xb019be07547877c01b02e74d9405bba1dcf57c76ed536075be686d31e7240b0a",
      "s": "0x6b98a02dde379d7fafd45fbfcb42aa60b8a722e4b7a8f799a551bd60bd1c2781",
      "v": 28,
      "creates": null,
      "raw": "0xf86d80850d641f460d83015f9094e29afa2051650d8c9549df817e80ad5c7c398124880de0b6b3a7640000801ca0b019be07547877c01b02e74d9405bba1dcf57c76ed536075be686d31e7240b0aa06b98a02dde379d7fafd45fbfcb42aa60b8a722e4b7a8f799a551bd60bd1c2781",
      "networkId": 0,
      "chainId": 0
    }
  ]
}