{
  "hash": "0xe861ee132bb57d4aff9f0525df8acb245f88ed32d937282bdf305cde7946adc6",
  "parentHash": "0xf6854f9a2d5f596addad9ca22808273510470f06a02776408294c1f217e33f17",
  "number": 54330,
  "timestamp": 1439052335,
  "nonce": "0x8955721cd3cdedf8",
  "difficulty": 1608665771663,
  "gasLimit": {
    "_hex": "0x2fefd8"
  },
  "gasUsed": {
    "_hex": "0x5208"
  },
  "miner": "0x3FF679B0823a026F2378E5f5F22A6F127cC85828",
  "extraData": "0x476574682f76312e302e302f6c696e75782f676f312e342e32",
  "transactions": [
    {
      "hash": "0xebfd8b38a2f7cf370c66315b0458703184cc8c7d38014a162bbb6498b98fed14",
      "blockHash": "0xe861ee132bb57d4aff9f0525df8acb245f88ed32d937282bdf305cde7946adc6",
      "blockNumber": 54330,
      "transactionIndex": 0,
      "confirmations": null,
      "from": "0x3971D6c120E0626FE6d1b1c32791EBD0e616A137",
      "gasPrice": {
        "_hex": "0xdacbf31b0"
      },
      "gasLimit": {
        "_hex": "0x5208"
      },
      "to": "0x32Be343B94f860124dC4fEe278FDCBD38C102D88",
      "value": {
        "_hex": "0x7892eb87e23f000"
      },
      "nonce": 0,
      "data": "0x",
      "r": "0x9738985c7f25f9259a1741bd669e117f61594a62f9bb8d9bea84b8de60d985df",
      "s": "0x5a40396572f5a90eb7b4f9a1fdcc61a1a887f496a216f4bb9af645f83cf06876",
      "v": 28,
      "creates": null,
      "raw": "0xf86c80850dacbf31b08252089432be343b94f860124dc4fee278fdcbd38c102d888807892eb87e23f000801ca09738985c7f25f9259a1741bd669e117f61594a62f9bb8d9bea84b8de60d985dfa05a40396572f5a90eb7b4f9a1fdcc61a1a887f496a216f4bb9af645f83cf06876",
      "networkId": 0,
      "chainId": 0
    }
  ]
}