{
  "hash": "0x43ab58ddeaf45ed9cad7b3e3b9aeed44de637d0cdfe700a716f08bf9374729f9",
  "parentHash": "0x81b0be2096559e8efb68a30e3ebada3ca92cf0b9cf58ecfe3dacb68dff22b105",
  "number": 64932,
  "timestamp": 1439228644,
  "nonce": "0xbe446c9212fafd65",
  "difficulty": 1909789146152,
  "gasLimit": {
    "_hex": "0x2fefd8"
  },
  "gasUsed": {
    "_hex": "0x17cd8"
  },
  "miner": "0x753562eEA69CD2D342A9c07EDD49b9753dc0F01e",
  "extraData": "0x",
  "transactions": [
    {
      "hash": "0x8c318bd9770b9dcb524b4a75b8623e5249dc63200c4a64999af58928fa63e209",
      "blockHash": "0x43ab58ddeaf45ed9cad7b3e3b9aeed44de637d0cdfe700a716f08bf9374729f9",
      "blockNumber": 64932,
      "transactionIndex": 0,
      "confirmations": null,
      "from": "0x3CcEf49906281a633BEaD34c892865ab8Fd3e436",
      "gasPrice": {
        "_hex": "0xba43b7400"
      },
      "gasLimit": {
        "_hex": "0x15f90"
      },
      "to": "0x793AE8C1b1a160BFc07BFB0d04F85eab1A71F4f2",
      "value": {
        "_hex": "0x0"
      },
      "nonce": 0,
      "data": "0x3ba15036",
      "r": "0xf9e5a93027321c13dc21b327ffc43f59d92f10133fb20fe3b04ca604d25288d9",
      "s": "0x6e31f284b96bab396af5e0479086253a6d19fe3cecbb901520783849a0a765d7",
      "v": 28,
      "creates": null,
      "raw": "0xf86980850ba43b740083015f9094793ae8c1b1a160bfc07bfb0d04f85eab1a71f4f280843ba150361ca0f9e5a93027321c13dc21b327ffc43f59d92f10133fb20fe3b04ca604d25288d9a06e31f284b96bab396af5e0479086253a6d19fe3cecbb901520783849a0a765d7",
      "networkId": 0,
      "chainId": 0
    },
    {
      "hash": "0x63ed6b78bb02b77994650c1566dc19414bad6de6d1cbb35b07d1e6b145c798a6",
      "blockHash": "0x43ab58ddeaf45ed9cad7b3e3b9aeed44de637d0cdfe700a716f08bf9374729f9",
      "blockNumber": 64932,
      "transactionIndex": 1,
      "confirmations": null,
      "from": "0x2F42116373734876bA118A3eE628002d9359f95C",
      "gasPrice": {
        "_hex": "0xba43b7400"
      },
      "gasLimit": {
        "_hex": "0x15f90"
      },
      "to": "0x793AE8C1b1a160BFc07BFB0d04F85eab1A71F4f2",
      "value": {
        "_hex": "0x0"
      },
      "nonce": 0,
      "data": "0x3ba15036",
      "r": "0x3981a6b6893dadbb5640f41b73ba54e3b2fa53aea6979b503df945afb92f9a2d",
      "s": "0x6e0f90dcb2b94f02e5e3a1cca6963c15a683424afc9fad71f854168b08e2d4c2",
      "v": 27,
      "creates": null,
      "raw": "0xf86980850ba43b740083015f9094793ae8c1b1a160bfc07bfb0d04f85eab1a71f4f280843ba150361ba03981a6b6893dadbb5640f41b73ba54e3b2fa53aea6979b503df945afb92f9a2da06e0f90dcb2b94f02e5e3a1cca6963c15a683424afc9fad71f854168b08e2d4c2",
      "networkId": 0,
      "chainId": 0
    }
  ]
}