{
  "hash": "0x99129bdfd94fbf7405c111ccf9b28a11d592e118f891cc8622d748b075775cd0",
  "parentHash": "0x0b605fa841f66b3136947a2f3a746fa2eeb00163e0418f39dfed50f877fd538d",
  "number": 121348,
  "timestamp": 1440175682,
  "nonce": "0xba3387d995776581",
  "difficulty": 4402024156878,
  "gasLimit": {
    "_hex": "0x2fefd8"
  },
  "gasUsed": {
    "_hex": "0xa410"
  },
  "miner": "0x0D2C9857E819cf1275eb59B49033343ccC35fe42",
  "extraData": "0x",
  "transactions": [
    {
      "hash": "0x5165bcf7aaff9c15e2b23947e2742876ab6ad5c55865789a038fb87c572c7a7a",
      "blockHash": "0x99129bdfd94fbf7405c111ccf9b28a11d592e118f891cc8622d748b075775cd0",
      "blockNumber": 121348,
      "transactionIndex": 0,
      "confirmations": null,
      "from": "0x2910543Af39abA0Cd09dBb2D50200b3E800A63D2",
      "gasPrice": {
        "_hex": "0xd8cb4d6ee"
      },
      "gasLimit": {
        "_hex": "0x5208"
      },
      "to": "0xFFf1471A813EaF20Ade11C3d58E3a64157216587",
      "value": {
        "_hex": "0x1158e460913d00000"
      },
      "nonce": 1190,
      "data": "0x",
      "r": "0x7286fda690930062db507776d09582ff946b8f8fbfff78aa0f1be30c9bc2a058",
      "s": "0x553059087cc62f1e844feb7ceed43a8a982637e51bfb66a0d62de252f6af1d7c",
      "v": 27,
      "creates": null,
      "raw": "0xf86f8204a6850d8cb4d6ee82520894fff1471a813eaf20ade11c3d58e3a641572165878901158e460913d00000801ba07286fda690930062db507776d09582ff946b8f8fbfff78aa0f1be30c9bc2a058a0553059087cc62f1e844feb7ceed43a8a982637e51bfb66a0d62de252f6af1d7c",
      "networkId": 0,
      "chainId": 0
    },
    {
      "hash": "0x2bd87db0ed6c9e3ada955bf4708d3df714158299df99ac3e5c970d9b3a6ddf0f",
      "blockHash": "0x99129bdfd94fbf7405c111ccf9b28a11d592e118f891cc8622d748b075775cd0",
      "blockNumber": 121348,
      "transactionIndex": 1,
      "confirmations": null,
      "from": "0xBdF25376dA0767EfBF7eE3dCAe463ECe5572bFF3",
      "gasPrice": {
        "_hex": "0xd62c44cb8"
      },
      "gasLimit": {
        "_hex": "0x15f90"
      },
      "to": "0x9b0a028EAfDeCdE3AFc0fD00B7937098388b7C8a",
      "value": {
        "_hex": "0x1739030bef09080"
      },
      "nonce": 0,
      "data": "0x",
      "r": "0xef355eed262a21ac1af06aacc7b08ee26713cdd58bc7db0544d16de4f3850569",
      "s": "0x4577561a0ead8d0f4b6633dea9d90ad4236d51e02701c00c7d847ddfd883e9e8",
      "v": 28,
      "creates": null,
      "raw": "0xf86d80850d62c44cb883015f90949b0a028eafdecde3afc0fd00b7937098388b7c8a8801739030bef09080801ca0ef355eed262a21ac1af06aacc7b08ee26713cdd58bc7db0544d16de4f3850569a04577561a0ead8d0f4b6633dea9d90ad4236d51e02701c00c7d847ddfd883e9e8",
      "networkId": 0,
      "chainId": 0
    }
  ]
}