{
  "hash": "0x4141f9a58271189da27ed8adfd39743c91b4d293863d7f62e81939b2e7b634c4",
  "parentHash": "0x88bea292c5bac6d2609bf17dff8e6eedd3491b31dec385a65c2ccefc0534cea4",
  "number": 54610,
  "timestamp": 1439057003,
  "nonce": "0x24c71a1e78443e81",
  "difficulty": 1621228579434,
  "gasLimit": {
    "_hex": "0x2fefd8"
  },
  "gasUsed": {
    "_hex": "0x546c"
  },
  "miner": "0x71cEe16c3410CB351b27dD9CFa24cF431287C837",
  "extraData": "0x",
  "transactions": [
    {
      "hash": "0x0c396e173bbe99d098b558198e21ac9cba6603ace5230a940c7d9d03dd9829c5",
      "blockHash": "0x4141f9a58271189da27ed8adfd39743c91b4d293863d7f62e81939b2e7b634c4",
      "blockNumber": 54610,
      "transactionIndex": 0,
      "confirmations": null,
      "from": "0xe49936A92a8CcF710eaAc342Bc454B9b14EbECb1",
      "gasPrice": {
        "_hex": "0x110c8f7d8de"
      },
      "gasLimit": {
        "_hex": "0xc350"
      },
      "to": "0x2910543Af39abA0Cd09dBb2D50200b3E800A63D2",
      "value": {
        "_hex": "0x3782dace9d90000"
      },
      "nonce": 3,
      "data": "0x454e45484638354e38",
      "r": "0xe6234254c8511283dd052508522b526addff6cde1b597bb740ebf080671408ff",
      "s": "0x0bb70ce56513a4590201a8fda03e9ddb278d2c3daf8f313db669146fdd7bcfc7",
      "v": 28,
      "creates": null,
      "raw": "0xf87603860110c8f7d8de82c350942910543af39aba0cd09dbb2d50200b3e800a63d28803782dace9d9000089454e45484638354e381ca0e6234254c8511283dd052508522b526addff6cde1b597bb740ebf080671408ffa00bb70ce56513a4590201a8fda03e9ddb278d2c3daf8f313db669146fdd7bcfc7",
      "networkId": 0,
      "chainId": 0
    }
  ]
}