{
  "hash": "0xf3a1a363acba40fb745a442baa623cdf26981dc447f53ebc8bbab859e59c07eb",
  "parentHash": "0x839836dbd6e2ef5d063a372aba19f13057680cb2812b2907895377e690944d53",
  "number": 74970,
  "timestamp": 1439395425,
  "nonce": "0x653d597823fd26fa",
  "difficulty": 2189102279346,
  "gasLimit": {
    "_hex": "0x2fefd8"
  },
  "gasUsed": {
    "_hex": "0x5208"
  },
  "miner": "0xB1A4B41b8e75a153841c99c62d18588d45e7b406",
  "extraData": "0x",
  "transactions": [
    {
      "hash": "0x14363051448daefe5f533354bd8af37e87c7d39f3cce6cd19d87469e95638b96",
      "blockHash": "0xf3a1a363acba40fb745a442baa623cdf26981dc447f53ebc8bbab859e59c07eb",
      "blockNumber": 74970,
      "transactionIndex": 0,
      "confirmations": null,
      "from": "0x70C6b45fe0A5116E97B112B806A76E2F51E24413",
      "gasPrice": {
        "_hex": "0xd15ce61a9"
      },
      "gasLimit": {
        "_hex": "0x15f90"
      },
      "to": "0xD9666150A9dA92d9108198a4072970805a8B3428",
      "value": {
        "_hex": "0xb561b0b2a97b7e0000"
      },
      "nonce": 1,
      "data": "0x",
      "r": "0x9e4098b43f9b8b4a41624ad0b203beb87494e9f5e38a74676672881643d20c1c",
      "s": "0x0604a19400e5eb1173b814659a79ea60bf38b70a036b47cb8a89b1de7811a6ae",
      "v": 28,
      "creates": null,
      "raw": "0xf86e01850d15ce61a983015f9094d9666150a9da92d9108198a4072970805a8b342889b561b0b2a97b7e0000801ca09e4098b43f9b8b4a41624ad0b203beb87494e9f5e38a74676672881643d20c1ca00604a19400e5eb1173b814659a79ea60bf38b70a036b47cb8a89b1de7811a6ae",
      "networkId": 0,
      "chainId": 0
    }
  ]
}