{
  "hash": "0x80c029c5549b887243f064d3aa223a7eaed9ed8a8b8d96fbc531d495b2e703ad",
  "parentHash": "0x89a682b89b5ec43928999dc3d0feef9809d0bca0b9a9a11ea9950d62c12f1fd5",
  "number": 83351,
  "timestamp": 1439534050,
  "nonce": "0x970f62bf597b93aa",
  "difficulty": 2421877916512,
  "gasLimit": {
    "_hex": "0x2fefd8"
  },
  "gasUsed": {
    "_hex": "0xf618"
  },
  "miner": "0x019D3FA6E3cdA649b26F74395A846575c7bEA14C",
  "extraData": "0x",
  "transactions": [
    {
      "hash": "0x9049acbeabb351fc499f9245a4bd13626cc8cb1322bb682cdf142f8dddc86a53",
      "blockHash": "0x80c029c5549b887243f064d3aa223a7eaed9ed8a8b8d96fbc531d495b2e703ad",
      "blockNumber": 83351,
      "transactionIndex": 0,
      "confirmations": null,
      "from": "0x96811Ad897894eC178872117C8BF2f03971A393B",
      "gasPrice": {
        "_hex": "0xd28ba9482"
      },
      "gasLimit": {
        "_hex": "0x5208"
      },
      "to": "0x32Be343B94f860124dC4fEe278FDCBD38C102D88",
      "value": {
        "_hex": "0x455f4e4c1026d000"
      },
      "nonce": 28,
      "data": "0x",
      "r": "0xbe6dc229bd1139bd5990a3fb5e0c899241be4242a9c2e8ee3a182a8020375f26",
      "s": "0x33d2e709994bea4cc3f9c0a15199fd184d3e84dc10ac8efdeff453099ea27d10",
      "v": 27,
      "creates": null,
      "raw": "0xf86c1c850d28ba94828252089432be343b94f860124dc4fee278fdcbd38c102d8888455f4e4c1026d000801ba0be6dc229bd1139bd5990a3fb5e0c899241be4242a9c2e8ee3a182a8020375f26a033d2e709994bea4cc3f9c0a15199fd184d3e84dc10ac8efdeff453099ea27d10",
      "networkId": 0,
      "chainId": 0
    },
    {
      "hash": "0x53681abdf2b71b6ebb71cda9ba28958c477bf622e8219256674e73e972b5f34b",
      "blockHash": "0x80c029c5549b887243f064d3aa223a7eaed9ed8a8b8d96fbc531d495b2e703ad",
      "blockNumber": 83351,
      "transactionIndex": 1,
      "confirmations": null,
      "from": "0x548938756fCb5655A7523f66C01F1cd40aa620bE",
      "gasPrice": {
        "_hex": "0xd28ba9482"
      },
      "gasLimit": {
        "_hex": "0x5208"
      },
      "to": "0x32Be343B94f860124dC4fEe278FDCBD38C102D88",
      "value": {
        "_hex": "0xf8a89b0d8d3d400"
      },
      "nonce": 0,
      "data": "0x",
      "r": "0xe604f97205b3a8c54e5e09f6fa2df5e2beb917dc37965eaa02f12f40361f89e7",
      "s": "0x3af1ee7adad8ce011ed4038df64118aed85720a0cd6c8b51d78db3709c3cb4fe",
      "v": 27,
      "creates": null,
      "raw": "0xf86c80850d28ba94828252089432be343b94f860124dc4fee278fdcbd38c102d88880f8a89b0d8d3d400801ba0e604f97205b3a8c54e5e09f6fa2df5e2beb917dc37965eaa02f12f40361f89e7a03af1ee7adad8ce011ed4038df64118aed85720a0cd6c8b51d78db3709c3cb4fe",
      "networkId": 0,
      "chainId": 0
    },
    {
      "hash": "0x488c9181c6da54ff014a6eda709f007d64c9219ed83df35a21b83cb1ec745be3",
      "blockHash": "0x80c029c5549b887243f064d3aa223a7eaed9ed8a8b8d96fbc531d495b2e703ad",
      "blockNumber": 83351,
      "transactionIndex": 2,
      "confirmations": null,
      "from": "0x3010cacF5965f60685011055570972e92B4479aB",
      "gasPrice": {
        "_hex": "0xd28ba9482"
      },
      "gasLimit": {
        "_hex": "0x5208"
      },
      "to": "0x32Be343B94f860124dC4fEe278FDCBD38C102D88",
      "value": {
        "_hex": "0x1b1ae09f6ce6860000"
      },
      "nonce": 5,
      "data": "0x",
      "r": "0x99194d9231836c19691fbef061af660b5fbb20ff5495e2b3deca51f86f870ab5",
      "s": "0x117c53e86a303edece6607a8f5c4847acd25c5194f3a5ac3ba882bd2c9f584bf",
      "v": 28,
      "creates": null,
      "raw": "0xf86d05850d28ba94828252089432be343b94f860124dc4fee278fdcbd38c102d88891b1ae09f6ce6860000801ca099194d9231836c19691fbef061af660b5fbb20ff5495e2b3deca51f86f870ab5a0117c53e86a303edece6607a8f5c4847acd25c5194f3a5ac3ba882bd2c9f584bf",
      "networkId": 0,
      "chainId": 0
    }
  ]
}