{
  "hash": "0x3d96ddda64d3e9b569079d9ea85c80c1cdd02758d0bb601d160c96af25baa2a4",
  "parentHash": "0x7c05798ecb39f4c08d5d259602081e4c3052f5a63ccfbaf6fb86544db4366737",
  "number": 76184,
  "timestamp": 1439416169,
  "nonce": "0x67c1a17b7509c394",
  "difficulty": 2238503944580,
  "gasLimit": {
    "_hex": "0x2fefd8"
  },
  "gasUsed": {
    "_hex": "0x5208"
  },
  "miner": "0xf927a40C8B7F6E07c5af7FA2155B4864a4112B13",
  "extraData": "0x",
  "transactions": [
    {
      "hash": "0xdad31e170a548d0bb1b2e61793a808f70dc3e6928807992ba856ec53336deec3",
      "blockHash": "0x3d96ddda64d3e9b569079d9ea85c80c1cdd02758d0bb601d160c96af25baa2a4",
      "blockNumber": 76184,
      "transactionIndex": 0,
      "confirmations": null,
      "from": "0xA5a5181868a8Df772f87DC95aB9B366e974Da936",
      "gasPrice": {
        "_hex": "0xba43b7400"
      },
      "gasLimit": {
        "_hex": "0x5267"
      },
      "to": "0x0000000000000000000000000000000000000000",
      "value": {
        "_hex": "0x16345785d8a0000"
      },
      "nonce": 0,
      "data": "0x",
      "r": "0x86c5d41992cb93fc1c7e702f05c5282fb0a9849b60ea45d4587b4f9665dbb3e2",
      "s": "0x2307e6e475a574a184ea35b180326b85b48e4fc67ec87ac93f9d4cbb37f9264b",
      "v": 27,
      "creates": null,
      "raw": "0xf86c80850ba43b740082526794000000000000000000000000000000000000000088016345785d8a0000801ba086c5d41992cb93fc1c7e702f05c5282fb0a9849b60ea45d4587b4f9665dbb3e2a02307e6e475a574a184ea35b180326b85b48e4fc67ec87ac93f9d4cbb37f9264b",
      "networkId": 0,
      "chainId": 0
    }
  ]
}