{
  "hash": "0x0df75eca32a4a14268ccdcec0b1de4f25d6a8580239b18a140758628eac7542a",
  "parentHash": "0x45606e691f5b4ff3d35594852187022fd768e094341a4bf86387ac12d2add8ba",
  "number": 93686,
  "timestamp": 1439695875,
  "nonce": "0x9a578b2a4851f0f8",
  "difficulty": 3429561227608,
  "gasLimit": {
    "_hex": "0x2fefd8"
  },
  "gasUsed": {
    "_hex": "0x5208"
  },
  "miner": "0x9746c7e1ef2bd21FF3997fa467593a89cb852BD0",
  "extraData": "0x476574682f76312e302e312f77696e646f77732f676f312e342e32",
  "transactions": [
    {
      "hash": "0x86879d28d856f67301a7540f43537979cc03aa67eb8166275baabb96a20909dc",
      "blockHash": "0x0df75eca32a4a14268ccdcec0b1de4f25d6a8580239b18a140758628eac7542a",
      "blockNumber": 93686,
      "transactionIndex": 0,
      "confirmations": null,
      "from": "0x02Ade5Db22F8B758Ee1443626C64Ec2F32Aa0a15",
      "gasPrice": {
        "_hex": "0xcfd5c2aaa"
      },
      "gasLimit": {
        "_hex": "0x15f90"
      },
      "to": "0x2707836DbE604b0eBfdb0F20870dD749C8572676",
      "value": {
        "_hex": "0x28a857425466f800000"
      },
      "nonce": 2,
      "data": "0x",
      "r": "0x1d51939a7986e787ef61d1ade46fdfe1460517533dae8bb4ee3c560e0cb1ed69",
      "s": "0x0b90378c89ba220fcb06db19c3afe953a6fb64bef1382b43796beee1baa0f014",
      "v": 28,
      "creates": null,
      "raw": "0xf86f02850cfd5c2aaa83015f90942707836dbe604b0ebfdb0f20870dd749c85726768a028a857425466f800000801ca01d51939a7986e787ef61d1ade46fdfe1460517533dae8bb4ee3c560e0cb1ed69a00b90378c89ba220fcb06db19c3afe953a6fb64bef1382b43796beee1baa0f014",
      "networkId": 0,
      "chainId": 0
    }
  ]
}