{
  "hash": "0xaf5848e4b53a0337e8682c5389a04400cdad636bf59e2f0384080ace7154627f",
  "parentHash": "0x544309f743ce5f9b870e645e69c813882237cc6070c85b21774cbce5923ae4f9",
  "number": 71584,
  "timestamp": 1439338456,
  "nonce": "0x51be0ec7a8fbfc17",
  "difficulty": 2175066516441,
  "gasLimit": {
    "_hex": "0x2fefd8"
  },
  "gasUsed": {
    "_hex": "0xae73"
  },
  "miner": "0xe6A7a1d47ff21B6321162AEA7C6CB457D5476Bca",
  "extraData": "0x476574682f76312e302e312d38326566323666362f6c696e75782f676f312e34",
  "transactions": [
    {
      "hash": "0xf0cc20b37ecc4b14784fc744460f8e947fb0ec08869d510f649b762340bc221f",
      "blockHash": "0xaf5848e4b53a0337e8682c5389a04400cdad636bf59e2f0384080ace7154627f",
      "blockNumber": 71584,
      "transactionIndex": 0,
      "confirmations": null,
      "from": "0x17580B766f7453525ca4C6A88b01b50570EA088C",
      "gasPrice": {
        "_hex": "0xe115e785e"
      },
      "gasLimit": {
        "_hex": "0x61a80"
      },
      "to": "0x5Fe5B7546D1628f7348B023A0393de1FC825A4fD",
      "value": {
        "_hex": "0x29a2241af62c0000"
      },
      "nonce": 224,
      "data": "0xb595b8b50000000000000000000000000000000000000000000000000000000000000000",
      "r": "0xad238b123a826f45a147991016c773de9da18270f7ed167a30fa8953510a8abb",
      "s": "0x094b3c5f260a8c21fdfa4f48ecb63b1524df1706e1ab8cb2c24c572451736fc7",
      "v": 27,
      "creates": null,
      "raw": "0xf89281e0850e115e785e83061a80945fe5b7546d1628f7348b023a0393de1fc825a4fd8829a2241af62c0000a4b595b8b500000000000000000000000000000000000000000000000000000000000000001ba0ad238b123a826f45a147991016c773de9da18270f7ed167a30fa8953510a8abba0094b3c5f260a8c21fdfa4f48ecb63b1524df1706e1ab8cb2c24c572451736fc7",
      "networkId": 0,
      "chainId": 0
    }
  ]
}