{
  "hash": "0x72c607b441cfe84be12edd6d97a1676637c41268709d7471401df53f71d589fa",
  "parentHash": "0xf3d7ba253922900af515a52c39ae5df911ed461751401849df66e9acf852aef2",
  "number": 119449,
  "timestamp": 1440143263,
  "nonce": "0x6cbbcfd4c19f859c",
  "difficulty": 4379435150877,
  "gasLimit": {
    "_hex": "0x2fefd8"
  },
  "gasUsed": {
    "_hex": "0xf618"
  },
  "miner": "0x52bc44d5378309EE2abF1539BF71dE1b7d7bE3b5",
  "extraData": "0xd783010002844765746887676f312e342e32856c696e7578",
  "transactions": [
    {
      "hash": "0x91fa6fddb9f089f9abe3d683a4c4ee9a3f570b10f6f02c4342c70287ff2eff80",
      "blockHash": "0x72c607b441cfe84be12edd6d97a1676637c41268709d7471401df53f71d589fa",
      "blockNumber": 119449,
      "transactionIndex": 0,
      "confirmations": null,
      "from": "0x608f4b86321a68453f9adf6F06F7Fc3E621739ad",
      "gasPrice": {
        "_hex": "0xba43b7400"
      },
      "gasLimit": {
        "_hex": "0x5208"
      },
      "to": "0x32Be343B94f860124dC4fEe278FDCBD38C102D88",
      "value": {
        "_hex": "0xa090d1ba1d4530000"
      },
      "nonce": 32,
      "data": "0x",
      "r": "0xa97a5ee429ab79fb132f777a2d8289a3dbd4701d174d3ba4cd6e5bed8c4c620c",
      "s": "0x208bac0642258ebebf3418f4edd4d494818ae699d56c503e091a0267aaf4b90e",
      "v": 28,
      "creates": null,
      "raw": "0xf86d20850ba43b74008252089432be343b94f860124dc4fee278fdcbd38c102d88890a090d1ba1d4530000801ca0a97a5ee429ab79fb132f777a2d8289a3dbd4701d174d3ba4cd6e5bed8c4c620ca0208bac0642258ebebf3418f4edd4d494818ae699d56c503e091a0267aaf4b90e",
      "networkId": 0,
      "chainId": 0
    },
    {
      "hash": "0x20a6906ba41bcd41273370db46f3ec8c7d4bdca61f0609c531d73c00ccdf4a31",
      "blockHash": "0x72c607b441cfe84be12edd6d97a1676637c41268709d7471401df53f71d589fa",
      "blockNumber": 119449,
      "transactionIndex": 1,
      "confirmations": null,
      "from": "0x13065c2648269D5b802D31341006d0b458a187fE",
      "gasPrice": {
        "_hex": "0xba43b7400"
      },
      "gasLimit": {
        "_hex": "0x5208"
      },
      "to": "0x32Be343B94f860124dC4fEe278FDCBD38C102D88",
      "value": {
        "_hex": "0x9b247b883677c000"
      },
      "nonce": 9,
      "data": "0x",
      "r": "0x4b091f4fc7c4ba9579043220c33b2976aefab20e3246905d178ca666be27c460",
      "s": "0x2263a27c140db1c26af2f735ac9637f8fe93229867aa509306030c0455d5e6fd",
      "v": 28,
      "creates": null,
      "raw": "0xf86c09850ba43b74008252089432be343b94f860124dc4fee278fdcbd38c102d88889b247b883677c000801ca04b091f4fc7c4ba9579043220c33b2976aefab20e3246905d178ca666be27c460a02263a27c140db1c26af2f735ac9637f8fe93229867aa509306030c0455d5e6fd",
      "networkId": 0,
      "chainId": 0
    },
    {
      "hash": "0x668646fe36febf14151cad9344954db1c2f02c5825450d16e21e7d3771dbc290",
      "blockHash": "0x72c607b441cfe84be12edd6d97a1676637c41268709d7471401df53f71d589fa",
      "blockNumber": 119449,
      "transactionIndex": 2,
      "confirmations": null,
      "from": "0x383Ad663AFd1716301FC92d469d9985b97cfBCB0",
      "gasPrice": {
        "_hex": "0xba43b7400"
      },
      "gasLimit": {
        "_hex": "0x5208"
      },
      "to": "0x32Be343B94f860124dC4fEe278FDCBD38C102D88",
      "value": {
        "_hex": "0x10dcadfc0a568f000"
      },
      "nonce": 9,
      "data": "0x",
      "r": "0xccf6da4f7c3095c45e8d11900951991dc37c14cb3ade11630cae67d3017f8fdf",
      "s": "0x24fa4b90c6e3480ce3d68061501b2ed6897bd530ec2d9b5769b05377c9394e98",
      "v": 28,
      "creates": null,
      "raw": "0xf86d09850ba43b74008252089432be343b94f860124dc4fee278fdcbd38c102d8889010dcadfc0a568f000801ca0ccf6da4f7c3095c45e8d11900951991dc37c14cb3ade11630cae67d3017f8fdfa024fa4b90c6e3480ce3d68061501b2ed6897bd530ec2d9b5769b05377c9394e98",
      "networkId": 0,
      "chainId": 0
    }
  ]
}