{
  "hash": "0xbdc695df73bbabe5dc8199a9303eab68721ec88e3998d876af133be943c6bcb7",
  "parentHash": "0x1c9268e8cdf83a87dffee69d1ebee5070b3ff0c817e4134a8644925b7c2c1482",
  "number": 66676,
  "timestamp": 1439258541,
  "nonce": "0x1d25593ac3534b9f",
  "difficulty": 1941355623547,
  "gasLimit": {
    "_hex": "0x2fefd8"
  },
  "gasUsed": {
    "_hex": "0x5208"
  },
  "miner": "0x01d9DA08cc6Fb97c0DE1B6F4C28910A0859Ed1A1",
  "extraData": "0x476574682f76312e302e312f6c696e75782f676f312e342e32",
  "transactions": [
    {
      "hash": "0x97050d3420630ff889aa62536342f354d836b76d7cc312325d659752842bc67a",
      "blockHash": "0xbdc695df73bbabe5dc8199a9303eab68721ec88e3998d876af133be943c6bcb7",
      "blockNumber": 66676,
      "transactionIndex": 0,
      "confirmations": null,
      "from": "0xF2C98425f9f22071AB4DFA15A34628246FEDc163",
      "gasPrice": {
        "_hex": "0xd11a075b4"
      },
      "gasLimit": {
        "_hex": "0x5208"
      },
      "to": "0x32Be343B94f860124dC4fEe278FDCBD38C102D88",
      "value": {
        "_hex": "0xddc86a4dc687800"
      },
      "nonce": 2,
      "data": "0x",
      "r": "0x71f8a22d60167b88dfe3e2e5f587502d83de8b9e42e0705189a18ffea5f22fd5",
      "s": "0x6ed32aad4d4e9b6511826e3858694cf6a794350dd2132972b1a83a0bd4470060",
      "v": 27,
      "creates": null,
      "raw": "0xf86c02850d11a075b48252089432be343b94f860124dc4fee278fdcbd38c102d88880ddc86a4dc687800801ba071f8a22d60167b88dfe3e2e5f587502d83de8b9e42e0705189a18ffea5f22fd5a06ed32aad4d4e9b6511826e3858694cf6a794350dd2132972b1a83a0bd4470060",
      "networkId": 0,
      "chainId": 0
    }
  ]
}