{
  "hash": "0xc60c309fef10e804dd2578122747d00b1b10829398d282cd52910cc91e57b947",
  "parentHash": "0x32cc09c13a1aacfcc656e8f4f0720f4fd1f2e488dcb9360de13c55cf480a8450",
  "number": 81432,
  "timestamp": 1439501597,
  "nonce": "0x18e3d97266ff8f20",
  "difficulty": 2447399194658,
  "gasLimit": {
    "_hex": "0x2fefd8"
  },
  "gasUsed": {
    "_hex": "0x5208"
  },
  "miner": "0x3FF679B0823a026F2378E5f5F22A6F127cC85828",
  "extraData": "0x",
  "transactions": [
    {
      "hash": "0xaf8256ddfebd78e9270cd2ffe2384fdac4afab148e3b405cfd9133e6a271a459",
      "blockHash": "0xc60c309fef10e804dd2578122747d00b1b10829398d282cd52910cc91e57b947",
      "blockNumber": 81432,
      "transactionIndex": 0,
      "confirmations": null,
      "from": "0x1e7B5e4d1F572BEcf2c00fC90cB4767b4A6E33D4",
      "gasPrice": {
        "_hex": "0xd922d6767"
      },
      "gasLimit": {
        "_hex": "0x15f90"
      },
      "to": "0x2fd8Ad8C541bc201DD24a3C7b60FCBBB6429A4E2",
      "value": {
        "_hex": "0xde0b6b3a7640000"
      },
      "nonce": 4,
      "data": "0x",
      "r": "0x180de4877e2aac611e69b5a2271d5283d111ac4024a3a2c4bfc60bc0e54f6ac4",
      "s": "0x392a5df95df8a088fa8b7992e6090b71a62731e4826e146d315c9a96e2683648",
      "v": 27,
      "creates": null,
      "raw": "0xf86d04850d922d676783015f90942fd8ad8c541bc201dd24a3c7b60fcbbb6429a4e2880de0b6b3a7640000801ba0180de4877e2aac611e69b5a2271d5283d111ac4024a3a2c4bfc60bc0e54f6ac4a0392a5df95df8a088fa8b7992e6090b71a62731e4826e146d315c9a96e2683648",
      "networkId": 0,
      "chainId": 0
    }
  ]
}