{
  "hash": "0xa2bf3ceb763c1c828004bae073f5e7c9f06f74e3dd0afa26ef22db3a884c5714",
  "parentHash": "0x4f886a468722e0ce7f41cc209a8ade0a9f06cb91fe128b0bb466a1a441871a65",
  "number": 52649,
  "timestamp": 1439025146,
  "nonce": "0x30be090c35041b76",
  "difficulty": 1564824190842,
  "gasLimit": {
    "_hex": "0x16f14c"
  },
  "gasUsed": {
    "_hex": "0x16e360"
  },
  "miner": "0xa50ec0D39fa913E62f1Bae7074E6F36caA71855b",
  "extraData": "0x",
  "transactions": [
    {
      "hash": "0xcd66b72f778bc5aca8f87e47eadd80c1791b581c4582a994a8c476dc3ff1b6b2",
      "blockHash": "0xa2bf3ceb763c1c828004bae073f5e7c9f06f74e3dd0afa26ef22db3a884c5714",
      "blockNumber": 52649,
      "transactionIndex": 0,
      "confirmations": null,
      "from": "0x54dAeb3E8a6BBC797E4aD2b0339f134b186e4637",
      "gasPrice": {
        "_hex": "0xd8bd64e50"
      },
      "gasLimit": {
        "_hex": "0x7a120"
      },
      "to": "0xBAA54d6E90c3F4d7Ebec11bD180134C7eD8eBb52",
      "value": {
        "_hex": "0x16345785d8a0000"
      },
      "nonce": 845,
      "data": "0x",
      "r": "0x383855a1dcc21e00d589477927ea2c502be1d54f184b2d1bacf7f659932c140e",
      "s": "0x2ce329605911b4c51bb9665315159daaf8af355ce6b907a6f7b0b5da624d5a18",
      "v": 27,
      "creates": null,
      "raw": "0xf86f82034d850d8bd64e508307a12094baa54d6e90c3f4d7ebec11bd180134c7ed8ebb5288016345785d8a0000801ba0383855a1dcc21e00d589477927ea2c502be1d54f184b2d1bacf7f659932c140ea02ce329605911b4c51bb9665315159daaf8af355ce6b907a6f7b0b5da624d5a18",
      "networkId": 0,
      "chainId": 0
    },
    {
      "hash": "0x0b4905b9e46bdd39f5573d73e2f55ae6b2206c600c9b3e8ed7571e2511199aca",
      "blockHash": "0xa2bf3ceb763c1c828004bae073f5e7c9f06f74e3dd0afa26ef22db3a884c5714",
      "blockNumber": 52649,
      "transactionIndex": 1,
      "confirmations": null,
      "from": "0x54dAeb3E8a6BBC797E4aD2b0339f134b186e4637",
      "gasPrice": {
        "_hex": "0xe7d27df17"
      },
      "gasLimit": {
        "_hex": "0x7a120"
      },
      "to": "0xBAA54d6E90c3F4d7Ebec11bD180134C7eD8eBb52",
      "value": {
        "_hex": "0x16345785d8a0000"
      },
      "nonce": 846,
      "data": "0x",
      "r": "0xf5867478332eaf676def12c1b989ce45461b301c09f080a5b875da00a21a903c",
      "s": "0x7b67314b2101adaf01f3b0f70cfff14b52529050517328e29db33174e40c2344",
      "v": 27,
      "creates": null,
      "raw": "0xf86f82034e850e7d27df178307a12094baa54d6e90c3f4d7ebec11bd180134c7ed8ebb5288016345785d8a0000801ba0f5867478332eaf676def12c1b989ce45461b301c09f080a5b875da00a21a903ca07b67314b2101adaf01f3b0f70cfff14b52529050517328e29db33174e40c2344",
      "networkId": 0,
      "chainId": 0
    },
    {
      "hash": "0xeb26088cf6504fd55028ab2e0267f37bdc6a5b26c94026d6e42a0d0a689a2219",
      "blockHash": "0xa2bf3ceb763c1c828004bae073f5e7c9f06f74e3dd0afa26ef22db3a884c5714",
      "blockNumber": 52649,
      "transactionIndex": 2,
      "confirmations": null,
      "from": "0x54dAeb3E8a6BBC797E4aD2b0339f134b186e4637",
      "gasPrice": {
        "_hex": "0xd8bd64e50"
      },
      "gasLimit": {
        "_hex": "0x7a120"
      },
      "to": "0xBAA54d6E90c3F4d7Ebec11bD180134C7eD8eBb52",
      "value": {
        "_hex": "0x16345785d8a0000"
      },
      "nonce": 847,
      "data": "0x",
      "r": "0x4000c81e816b4150810539a6447fdf59c2042796f0431a1acbff6601dd15ee47",
      "s": "0x7cc06ed8292869df03826788f59e6dfa590b515d91827c995b3ca5ee9afaff77",
      "v": 27,
      "creates": null,
      "raw": "0xf86f82034f850d8bd64e508307a12094baa54d6e90c3f4d7ebec11bd180134c7ed8ebb5288016345785d8a0000801ba04000c81e816b4150810539a6447fdf59c2042796f0431a1acbff6601dd15ee47a07cc06ed8292869df03826788f59e6dfa590b515d91827c995b3ca5ee9afaff77",
      "networkId": 0,
      "chainId": 0
    }
  ]
}