{
  "hash": "0x0e1b14a0dcb8b40c693c79a72bd294cf2c0cb7b9d4a3b9407829a83ebdc3746a",
  "parentHash": "0x6d59ccdc0ec71cede47e1089b0affc48cbf9692d93d31a15397da42a2ad95efb",
  "number": 47427,
  "timestamp": 1438940188,
  "nonce": "0x9f9b98fdb8680c99",
  "difficulty": 1450958118414,
  "gasLimit": {
    "_hex": "0xbd1d"
  },
  "gasUsed": {
    "_hex": "0x5208"
  },
  "miner": "0xe6A7a1d47ff21B6321162AEA7C6CB457D5476Bca",
  "extraData": "0x657468706f6f6c2e6f7267",
  "transactions": [
    {
      "hash": "0xaa7a760410e3f1daa43e74f4f6f18433a933033db6aa067e12fca704aa1f84e1",
      "blockHash": "0x0e1b14a0dcb8b40c693c79a72bd294cf2c0cb7b9d4a3b9407829a83ebdc3746a",
      "blockNumber": 47427,
      "transactionIndex": 0,
      "confirmations": null,
      "from": "0xe6A7a1d47ff21B6321162AEA7C6CB457D5476Bca",
      "gasPrice": {
        "_hex": "0x1d355e283f"
      },
      "gasLimit": {
        "_hex": "0x5208"
      },
      "to": "0x9B80BD38c4afE0942F8029298A11fACe85ce4cAF",
      "value": {
        "_hex": "0x15b2247f88795d468"
      },
      "nonce": 143,
      "data": "0x",
      "r": "0x632ed7edb7a8b17eb2437c63469603f8362225e1bbdedf488abe7d869f69ce91",
      "s": "0x2a20315676198b457863d37bd6c3cafa7522f950f10572afa6e17ee27d17ca27",
      "v": 27,
      "creates": null,
      "raw": "0xf86e818f851d355e283f825208949b80bd38c4afe0942f8029298a11face85ce4caf89015b2247f88795d468801ba0632ed7edb7a8b17eb2437c63469603f8362225e1bbdedf488abe7d869f69ce91a02a20315676198b457863d37bd6c3cafa7522f950f10572afa6e17ee27d17ca27",
      "networkId": 0,
      "chainId": 0
    }
  ]
}