{
  "hash": "0xdad77a47d0976df0c2e9fc7881774ada3af76681bca1b0f7b4f6b97507b4e52f",
  "parentHash": "0x3a0ac64bd22c74b776515201f790bace5543b2572c16008894aa9471efa2bbbe",
  "number": 68438,
  "timestamp": 1439287931,
  "nonce": "0xed207b774468760f",
  "difficulty": 2008435674131,
  "gasLimit": {
    "_hex": "0x2fefd8"
  },
  "gasUsed": {
    "_hex": "0x19a28"
  },
  "miner": "0xBf034FB91a14C1FdC209f70e194C5704a6D844eB",
  "extraData": "0x",
  "transactions": [
    {
      "hash": "0x9da5e878f5aadf38adbb7da9b75a5d3fe60274455391d7cd29a1615eac01bc2e",
      "blockHash": "0xdad77a47d0976df0c2e9fc7881774ada3af76681bca1b0f7b4f6b97507b4e52f",
      "blockNumber": 68438,
      "transactionIndex": 0,
      "confirmations": null,
      "from": "0xc34477640E46f8Cc61Ad2c43f08E16a59C1577bA",
      "gasPrice": {
        "_hex": "0xba43b7400"
      },
      "gasLimit": {
        "_hex": "0x5208"
      },
      "to": "0x5aC39bdCdd5ff549636dA4Bcf7D5b6d348f19D52",
      "value": {
        "_hex": "0xaa9f075c200000"
      },
      "nonce": 1,
      "data": "0x",
      "r": "0xdcfac5f8ff1056404e9b0124e4673cfc4fe8133cd89722db3bc3d486a10990db",
      "s": "0x0885c268dd7e3881375d8f7f206fc1101464eb3932ef80c3479d5b933fef887c",
      "v": 28,
      "creates": null,
      "raw": "0xf86b01850ba43b7400825208945ac39bdcdd5ff549636da4bcf7d5b6d348f19d5287aa9f075c200000801ca0dcfac5f8ff1056404e9b0124e4673cfc4fe8133cd89722db3bc3d486a10990dba00885c268dd7e3881375d8f7f206fc1101464eb3932ef80c3479d5b933fef887c",
      "networkId": 0,
      "chainId": 0
    },
    {
      "hash": "0x323895ec9a135801894cbd37eaef059a5ae9002bb7237ead272f0ead8bb3f644",
      "blockHash": "0xdad77a47d0976df0c2e9fc7881774ada3af76681bca1b0f7b4f6b97507b4e52f",
      "blockNumber": 68438,
      "transactionIndex": 1,
      "confirmations": null,
      "from": "0x6747f922385c9a6F9cfDf095F34345257DD597bE",
      "gasPrice": {
        "_hex": "0xba43b7400"
      },
      "gasLimit": {
        "_hex": "0x5208"
      },
      "to": "0x7a892bd00E816663145c7e446bf1401C7C3a2975",
      "value": {
        "_hex": "0x1fcbfa42bd6000"
      },
      "nonce": 89,
      "data": "0x",
      "r": "0x26b1ec2475b03923ce7b7825a364f33fe1a6ab186dcaf40294134539165e17e6",
      "s": "0x45ba33798c70f0257130eec65691a62af4fe3dde8ed66f30770155549aa6cc86",
      "v": 27,
      "creates": null,
      "raw": "0xf86b59850ba43b7400825208947a892bd00e816663145c7e446bf1401c7c3a2975871fcbfa42bd6000801ba026b1ec2475b03923ce7b7825a364f33fe1a6ab186dcaf40294134539165e17e6a045ba33798c70f0257130eec65691a62af4fe3dde8ed66f30770155549aa6cc86",
      "networkId": 0,
      "chainId": 0
    },
    {
      "hash": "0x6aa6e77d883f8cff342dc9c22d040d48f4eca78e95dfaedf4caf6a332582963e",
      "blockHash": "0xdad77a47d0976df0c2e9fc7881774ada3af76681bca1b0f7b4f6b97507b4e52f",
      "blockNumber": 68438,
      "transactionIndex": 2,
      "confirmations": null,
      "from": "0x3F08337A0c155f8b683cEFC1688D3198b195C6D6",
      "gasPrice": {
        "_hex": "0xba43b7400"
      },
      "gasLimit": {
        "_hex": "0x5208"
      },
      "to": "0x540f9458CB6e9aC722CA07d2E43d4c7C6BA4C4D4",
      "value": {
        "_hex": "0xaa9f075c200000"
      },
      "nonce": 1,
      "data": "0x",
      "r": "0x6c4e16d9c70d37e58d71364a59b9aa06de08f043b725e6ab44a3c6aaab9f97e5",
      "s": "0x592d54a64a670f25446e2b2a1d33348273b81d7ac38f569b483ddbeb342a2948",
      "v": 27,
      "creates": null,
      "raw": "0xf86b01850ba43b740082520894540f9458cb6e9ac722ca07d2e43d4c7c6ba4c4d487aa9f075c200000801ba06c4e16d9c70d37e58d71364a59b9aa06de08f043b725e6ab44a3c6aaab9f97e5a0592d54a64a670f25446e2b2a1d33348273b81d7ac38f569b483ddbeb342a2948",
      "networkId": 0,
      "chainId": 0
    },
    {
      "hash": "0xb91051097b08526ed1b2456a2ff4d616c5629c09e400ffb2e3759fe8b7177690",
      "blockHash": "0xdad77a47d0976df0c2e9fc7881774ada3af76681bca1b0f7b4f6b97507b4e52f",
      "blockNumber": 68438,
      "transactionIndex": 3,
      "confirmations": null,
      "from": "0xf928ff449bcDe87b8755819Fa8D262D5c8D2352B",
      "gasPrice": {
        "_hex": "0xba43b7400"
      },
      "gasLimit": {
        "_hex": "0x5208"
      },
      "to": "0x1653900033B1077634E86b1Cc90C4B8Bf941886b",
      "value": {
        "_hex": "0xaa9f075c200000"
      },
      "nonce": 1,
      "data": "0x",
      "r": "0x5dd5e954c6fa75fb7d95b57372d73b7cc35e086eac9121c7ea3fbd1815e97e1a",
      "s": "0x55e441cebb6855e85db9a0b9ea8ba90b67c50e76884d482a40253b6fe49f2bf5",
      "v": 28,
      "creates": null,
      "raw": "0xf86b01850ba43b7400825208941653900033b1077634e86b1cc90c4b8bf941886b87aa9f075c200000801ca05dd5e954c6fa75fb7d95b57372d73b7cc35e086eac9121c7ea3fbd1815e97e1aa055e441cebb6855e85db9a0b9ea8ba90b67c50e76884d482a40253b6fe49f2bf5",
      "networkId": 0,
      "chainId": 0
    },
    {
      "hash": "0xa896f34cab83d6716a386193d2aa46806e0f24024d03b6f3e9354d522e1fafc7",
      "blockHash": "0xdad77a47d0976df0c2e9fc7881774ada3af76681bca1b0f7b4f6b97507b4e52f",
      "blockNumber": 68438,
      "transactionIndex": 4,
      "confirmations": null,
      "from": "0x3811Cff8d1F549e8f080942519fd44706921573D",
      "gasPrice": {
        "_hex": "0xba43b7400"
      },
      "gasLimit": {
        "_hex": "0x5208"
      },
      "to": "0xBc7BBfD6BaA7FF366C8bA5Fc3E119dF208AaaEda",
      "value": {
        "_hex": "0xaa9f075c200000"
      },
      "nonce": 1,
      "data": "0x",
      "r": "0x5335011b9bab2af1889f170ede5d5a4c5ec5332158e427cc7541ed47fddd1e7b",
      "s": "0x1918cee19369c4e7a8d91545960c4d6961164e1db64c7b6e29ede9654f73090b",
      "v": 27,
      "creates": null,
      "raw": "0xf86b01850ba43b740082520894bc7bbfd6baa7ff366c8ba5fc3e119df208aaaeda87aa9f075c200000801ba05335011b9bab2af1889f170ede5d5a4c5ec5332158e427cc7541ed47fddd1e7ba01918cee19369c4e7a8d91545960c4d6961164e1db64c7b6e29ede9654f73090b",
      "networkId": 0,
      "chainId": 0
    }
  ]
}