{
  "hash": "0x44f08587ad51d871868081ee3485a8a6d75cb55b5f1e2ea742b2d4c3847134da",
  "parentHash": "0x5f460699242803e50b53a95d31ec220654b4e3eaf2faa3306e1990e591a654af",
  "number": 73570,
  "timestamp": 1439371295,
  "nonce": "0x7a487ab4a227abf9",
  "difficulty": 2221775994014,
  "gasLimit": {
    "_hex": "0x2fefd8"
  },
  "gasUsed": {
    "_hex": "0x7a83"
  },
  "miner": "0xe6A7a1d47ff21B6321162AEA7C6CB457D5476Bca",
  "extraData": "0x476574682f76312e302e312d38326566323666362f6c696e75782f676f312e34",
  "transactions": [
    {
      "hash": "0x9a02ed0fb5f652ffafcc67276f9663aa1548bfd6848d2210011bbcf6af09fb5c",
      "blockHash": "0x44f08587ad51d871868081ee3485a8a6d75cb55b5f1e2ea742b2d4c3847134da",
      "blockNumber": 73570,
      "transactionIndex": 0,
      "confirmations": null,
      "from": "0x008FC7CBAdFFbD0D7fe44F8DFD60a79d721a1c9C",
      "gasPrice": {
        "_hex": "0xd8358da51"
      },
      "gasLimit": {
        "_hex": "0x30d40"
      },
      "to": "0x91601CBAb0bD60A0BC314a409da5070f135BeC6E",
      "value": {
        "_hex": "0x38d7ea4c68000"
      },
      "nonce": 13,
      "data": "0x",
      "r": "0x2107e8dd4755c252190b160cfa3125ff046e75b1c40ec11f112e2f83238cbbcf",
      "s": "0x6fa42fa02ca09df5eb79b23743ec485eb6cf142f4b8e88c914b07d9f771b5786",
      "v": 27,
      "creates": null,
      "raw": "0xf86c0d850d8358da5183030d409491601cbab0bd60a0bc314a409da5070f135bec6e87038d7ea4c68000801ba02107e8dd4755c252190b160cfa3125ff046e75b1c40ec11f112e2f83238cbbcfa06fa42fa02ca09df5eb79b23743ec485eb6cf142f4b8e88c914b07d9f771b5786",
      "networkId": 0,
      "chainId": 0
    }
  ]
}