{
  "hash": "0xde4311b8bfc558170ebc62c9a6e9fc0bc64e19d92014559e550a0ccddca62206",
  "parentHash": "0xe88a1f75a91e5c49f5195c6318286b1839941054914f1e72e4c31d503549c99c",
  "number": 120649,
  "timestamp": 1440163650,
  "nonce": "0x16a57a76396d6e96",
  "difficulty": 4421779998867,
  "gasLimit": {
    "_hex": "0x2fefd8"
  },
  "gasUsed": {
    "_hex": "0x5208"
  },
  "miner": "0x52bc44d5378309EE2abF1539BF71dE1b7d7bE3b5",
  "extraData": "0xd783010002844765746887676f312e342e32856c696e7578",
  "transactions": [
    {
      "hash": "0xbb80323cba62957d4253b06fa3f9f1ee2a1f1f04892202b6dc1a0cef4fcdd9bd",
      "blockHash": "0xde4311b8bfc558170ebc62c9a6e9fc0bc64e19d92014559e550a0ccddca62206",
      "blockNumber": 120649,
      "transactionIndex": 0,
      "confirmations": null,
      "from": "0xA21Ba94e45f0E168dA824fC67aC9cb5Cb577a8aF",
      "gasPrice": {
        "_hex": "0x45d964b800"
      },
      "gasLimit": {
        "_hex": "0x5208"
      },
      "to": "0x16C9b930E32c92004105d7F66801C75c61E3408D",
      "value": {
        "_hex": "0x3cb71f51fc5580000"
      },
      "nonce": 17,
      "data": "0x",
      "r": "0x4a32c26f64e8ecb9ecf3b842f69d8f46694e55e752d79e9ce66a0ee093028d0c",
      "s": "0x4764c84d8e004e0a90d1e7b31906ae8ebd8a3f465243ea0434dc781014b61f2b",
      "v": 27,
      "creates": null,
      "raw": "0xf86d118545d964b8008252089416c9b930e32c92004105d7f66801c75c61e3408d8903cb71f51fc5580000801ba04a32c26f64e8ecb9ecf3b842f69d8f46694e55e752d79e9ce66a0ee093028d0ca04764c84d8e004e0a90d1e7b31906ae8ebd8a3f465243ea0434dc781014b61f2b",
      "networkId": 0,
      "chainId": 0
    }
  ]
}