{
  "hash": "0x3e70c2de4f1b37f375777899a52fcb1e61e12bb4c4d3d0f03088f95ea4a10597",
  "parentHash": "0x0c0d106ff65f0e007cd9f5c2fe8f5ac8111e95c6915520f0b270e584dba121ee",
  "number": 111485,
  "timestamp": 1439990993,
  "nonce": "0x2ed83a18a576f1d6",
  "difficulty": 4443938416727,
  "gasLimit": {
    "_hex": "0x2fefd8"
  },
  "gasUsed": {
    "_hex": "0x5208"
  },
  "miner": "0xe6A7a1d47ff21B6321162AEA7C6CB457D5476Bca",
  "extraData": "0x476574682f76312e302e312d38326566323666362f6c696e75782f676f312e34",
  "transactions": [
    {
      "hash": "0xf06281a4d0825681824abca8c81f642e8dd6ee82e0db3cc07b54df17487f60b7",
      "blockHash": "0x3e70c2de4f1b37f375777899a52fcb1e61e12bb4c4d3d0f03088f95ea4a10597",
      "blockNumber": 111485,
      "transactionIndex": 0,
      "confirmations": null,
      "from": "0xB9eE81c1A5CdE84454DC603a8000836118627cfd",
      "gasPrice": {
        "_hex": "0xd89dc34a0"
      },
      "gasLimit": {
        "_hex": "0x5208"
      },
      "to": "0x32Be343B94f860124dC4fEe278FDCBD38C102D88",
      "value": {
        "_hex": "0x7ea23dbdff74bc000"
      },
      "nonce": 7,
      "data": "0x",
      "r": "0xb4fe55f66d12cdd45f923ae1299e3a72ceb51ea695d480fa978072677f2c2811",
      "s": "0x39c94d73f6da59c246e3c06377f1be5dea4a7a1db568ff927468c15b1ba3bbbf",
      "v": 27,
      "creates": null,
      "raw": "0xf86d07850d89dc34a08252089432be343b94f860124dc4fee278fdcbd38c102d888907ea23dbdff74bc000801ba0b4fe55f66d12cdd45f923ae1299e3a72ceb51ea695d480fa978072677f2c2811a039c94d73f6da59c246e3c06377f1be5dea4a7a1db568ff927468c15b1ba3bbbf",
      "networkId": 0,
      "chainId": 0
    }
  ]
}