{
  "hash": "0xe5f72e558ddc6d404add7fb43a98124ac06f92504b1c507deb9cf3c39cf106e1",
  "parentHash": "0x2082f68df5e3afeaa8169dd703d550644dfb8b456d276d8bf0962d407cc87921",
  "number": 121474,
  "timestamp": 1440177627,
  "nonce": "0x368a20a3842bbcac",
  "difficulty": 4440817644330,
  "gasLimit": {
    "_hex": "0x2fefd8"
  },
  "gasUsed": {
    "_hex": "0xa410"
  },
  "miner": "0xe6A7a1d47ff21B6321162AEA7C6CB457D5476Bca",
  "extraData": "0xd783010002844765746887676f312e342e32856c696e7578",
  "transactions": [
    {
      "hash": "0x248473928d969be5a0383470059f760cb93027c6c4c147477a7f97270d3f646b",
      "blockHash": "0xe5f72e558ddc6d404add7fb43a98124ac06f92504b1c507deb9cf3c39cf106e1",
      "blockNumber": 121474,
      "transactionIndex": 0,
      "confirmations": null,
      "from": "0xBdF25376dA0767EfBF7eE3dCAe463ECe5572bFF3",
      "gasPrice": {
        "_hex": "0xd186039b8"
      },
      "gasLimit": {
        "_hex": "0x15f90"
      },
      "to": "0x9b0a028EAfDeCdE3AFc0fD00B7937098388b7C8a",
      "value": {
        "_hex": "0xb5250372a74332ba8"
      },
      "nonce": 2,
      "data": "0x",
      "r": "0x39b50a198c04eafed3640530beeef06cfea9f1b98920533f7a6a420f6048cc2d",
      "s": "0x7dcfbd0b2e8c93ab704ff0f74d92853b29c46a68973162bd2aecaa45de48e691",
      "v": 27,
      "creates": null,
      "raw": "0xf86e02850d186039b883015f90949b0a028eafdecde3afc0fd00b7937098388b7c8a890b5250372a74332ba8801ba039b50a198c04eafed3640530beeef06cfea9f1b98920533f7a6a420f6048cc2da07dcfbd0b2e8c93ab704ff0f74d92853b29c46a68973162bd2aecaa45de48e691",
      "networkId": 0,
      "chainId": 0
    },
    {
      "hash": "0xf7fc6812e46dbf6eb4fcb986d6be82a7a813760aa2e41ccc4e4630cb0db5e35a",
      "blockHash": "0xe5f72e558ddc6d404add7fb43a98124ac06f92504b1c507deb9cf3c39cf106e1",
      "blockNumber": 121474,
      "transactionIndex": 1,
      "confirmations": null,
      "from": "0x063814ec45404958A5e6D30b59ea5D95bB9972E0",
      "gasPrice": {
        "_hex": "0xba43b7400"
      },
      "gasLimit": {
        "_hex": "0x15f90"
      },
      "to": "0xeDc1c224e7D9A03E71143A45645d83e12fB0acb5",
      "value": {
        "_hex": "0xd01ab7ca9552e000"
      },
      "nonce": 2,
      "data": "0x",
      "r": "0x9c3851b7ee546d07ceab909d169230ca7dba56819d50aa44f8db93eb9bad8387",
      "s": "0x10d5fda6faf5dd4c7e8526ab487b655bbfcf9b4d786203232101c2e3a0cafbd6",
      "v": 28,
      "creates": null,
      "raw": "0xf86d02850ba43b740083015f9094edc1c224e7d9a03e71143a45645d83e12fb0acb588d01ab7ca9552e000801ca09c3851b7ee546d07ceab909d169230ca7dba56819d50aa44f8db93eb9bad8387a010d5fda6faf5dd4c7e8526ab487b655bbfcf9b4d786203232101c2e3a0cafbd6",
      "networkId": 0,
      "chainId": 0
    }
  ]
}