{
  "hash": "0xae8e5fa589d8fa827e667f3229c2a84f04e1dede66fdc3a3ad4abde109af3985",
  "parentHash": "0x1faf88fd2ed6eb9bec17ee17ee8d2c01598dacb9dc05fc8dd1d39603578e7b8d",
  "number": 79417,
  "timestamp": 1439469263,
  "nonce": "0xfad4358177767bd1",
  "difficulty": 2343883290128,
  "gasLimit": {
    "_hex": "0x2fefd8"
  },
  "gasUsed": {
    "_hex": "0xa25e"
  },
  "miner": "0x0193d941b50d91BE6567c7eE1C0Fe7AF498b4137",
  "extraData": "0x4a5ace9e4e",
  "transactions": [
    {
      "hash": "0xc8633c7de69f763c420f0a4d072d5674e4d41c41f8a98ade1b89c4fdca4c6219",
      "blockHash": "0xae8e5fa589d8fa827e667f3229c2a84f04e1dede66fdc3a3ad4abde109af3985",
      "blockNumber": 79417,
      "transactionIndex": 0,
      "confirmations": null,
      "from": "0x008FC7CBAdFFbD0D7fe44F8DFD60a79d721a1c9C",
      "gasPrice": {
        "_hex": "0xd555d41db"
      },
      "gasLimit": {
        "_hex": "0x30d40"
      },
      "to": "0xc634A6B0375D5554116900D0B40a06C2C022f17e",
      "value": {
        "_hex": "0x16345785d8a0000"
      },
      "nonce": 37,
      "data": "0x",
      "r": "0x770048e071bbe74f66e9dbb880b7ac272d8abd84b7e3fe3f344f7ea08c5165db",
      "s": "0x1972b7a089c13a4470533cf928cced6a902b2a784e0fef3318a7a759b4e4a801",
      "v": 28,
      "creates": null,
      "raw": "0xf86d25850d555d41db83030d4094c634a6b0375d5554116900d0b40a06c2c022f17e88016345785d8a0000801ca0770048e071bbe74f66e9dbb880b7ac272d8abd84b7e3fe3f344f7ea08c5165dba01972b7a089c13a4470533cf928cced6a902b2a784e0fef3318a7a759b4e4a801",
      "networkId": 0,
      "chainId": 0
    }
  ]
}