{
  "hash": "0x8725055ffd2a107ad5c1e1cd1dbc47b0e70da09094d87be5245d244a0d538c80",
  "parentHash": "0x70e83b0c3559df72f06b46d88686b7bb6329c7d0945573e3a5ce2b37249d3150",
  "number": 72135,
  "timestamp": 1439347839,
  "nonce": "0xe5cac7be2424ad40",
  "difficulty": 2171740062074,
  "gasLimit": {
    "_hex": "0x2fefd8"
  },
  "gasUsed": {
    "_hex": "0x5208"
  },
  "miner": "0xe6A7a1d47ff21B6321162AEA7C6CB457D5476Bca",
  "extraData": "0x476574682f76312e302e312d38326566323666362f6c696e75782f676f312e34",
  "transactions": [
    {
      "hash": "0xdd6c018e0df8af2d4c00d6a47cc7e16a7601f4bce3dc7897dc84bac66a1e7a1a",
      "blockHash": "0x8725055ffd2a107ad5c1e1cd1dbc47b0e70da09094d87be5245d244a0d538c80",
      "blockNumber": 72135,
      "transactionIndex": 0,
      "confirmations": null,
      "from": "0xEF247E639d49461D25F57e9362CadE3120910Ce0",
      "gasPrice": {
        "_hex": "0xd53647b32"
      },
      "gasLimit": {
        "_hex": "0x15f90"
      },
      "to": "0xF87481A262E993a75F791E7859E71BaC36A606Eb",
      "value": {
        "_hex": "0x7518058bd45bc0000"
      },
      "nonce": 15,
      "data": "0x",
      "r": "0x2cce7c4adbe4f2b22db4656187e6ec16056b6de16cc7f74f0fb2b13be9c8a35d",
      "s": "0x42a7cfaa49ec3da5c1d77bc4ad0a674308a22772fbe3465fd0b5ae07bb5cb9f1",
      "v": 28,
      "creates": null,
      "raw": "0xf86e0f850d53647b3283015f9094f87481a262e993a75f791e7859e71bac36a606eb8907518058bd45bc0000801ca02cce7c4adbe4f2b22db4656187e6ec16056b6de16cc7f74f0fb2b13be9c8a35da042a7cfaa49ec3da5c1d77bc4ad0a674308a22772fbe3465fd0b5ae07bb5cb9f1",
      "networkId": 0,
      "chainId": 0
    }
  ]
}