{
  "hash": "0xdc3f2e02266b5e420d356caa6398dc0c9db1116cdbf90b06d986b1fe499dc40b",
  "parentHash": "0x8b24f2bd36c42b0ab943b947150b9fdc5a15ea59f2ceff7ca11726aaa0dec0cc",
  "number": 68680,
  "timestamp": 1439291869,
  "nonce": "0x1c505a4b9380bdd3",
  "difficulty": 2020180117049,
  "gasLimit": {
    "_hex": "0x2fefd8"
  },
  "gasUsed": {
    "_hex": "0xa410"
  },
  "miner": "0x9D49F602b0fdb924Bd63DDE2Bd0907E4A07c63a7",
  "extraData": "0x476574682f76312e302e312f6c696e75782f676f312e342e32",
  "transactions": [
    {
      "hash": "0x690fc0f2c931743712e0fec135456c32183afba25d7ec83c4ad80f1b49376fc7",
      "blockHash": "0xdc3f2e02266b5e420d356caa6398dc0c9db1116cdbf90b06d986b1fe499dc40b",
      "blockNumber": 68680,
      "transactionIndex": 0,
      "confirmations": null,
      "from": "0x79d5794171E11dd5C2f0e26E1C187319db2FE6f7",
      "gasPrice": {
        "_hex": "0xd150ca04a"
      },
      "gasLimit": {
        "_hex": "0x5208"
      },
      "to": "0x32Be343B94f860124dC4fEe278FDCBD38C102D88",
      "value": {
        "_hex": "0x458c2400849cfc00"
      },
      "nonce": 10,
      "data": "0x",
      "r": "0x018806542dede2fabda0b284eb76e3d0999da6788778cb952d5869679eba6daf",
      "s": "0x23cfef26a3b5f1c15e2984a065046cd5644f98902dfd962f499a2459148ec271",
      "v": 28,
      "creates": null,
      "raw": "0xf86c0a850d150ca04a8252089432be343b94f860124dc4fee278fdcbd38c102d8888458c2400849cfc00801ca0018806542dede2fabda0b284eb76e3d0999da6788778cb952d5869679eba6dafa023cfef26a3b5f1c15e2984a065046cd5644f98902dfd962f499a2459148ec271",
      "networkId": 0,
      "chainId": 0
    },
    {
      "hash": "0x4e8620271e7c101228e52ea4e3c6d41061a4cc856c6e4de0744d2c7fe29a5272",
      "blockHash": "0xdc3f2e02266b5e420d356caa6398dc0c9db1116cdbf90b06d986b1fe499dc40b",
      "blockNumber": 68680,
      "transactionIndex": 1,
      "confirmations": null,
      "from": "0xA10CDF70bc138605c39F8651A78485Fe4F1C3811",
      "gasPrice": {
        "_hex": "0xd150ca04a"
      },
      "gasLimit": {
        "_hex": "0x5208"
      },
      "to": "0x32Be343B94f860124dC4fEe278FDCBD38C102D88",
      "value": {
        "_hex": "0x455f605c14659800"
      },
      "nonce": 2,
      "data": "0x",
      "r": "0xff182eba30345460f1a91bff9e3e05b046fd12da67cdfdc695e1bfd42f874f5f",
      "s": "0x22863bd1d67ed567e30a7963a6b8c2259081977d6ac8bfacb08fcc393ed7e7d6",
      "v": 27,
      "creates": null,
      "raw": "0xf86c02850d150ca04a8252089432be343b94f860124dc4fee278fdcbd38c102d8888455f605c14659800801ba0ff182eba30345460f1a91bff9e3e05b046fd12da67cdfdc695e1bfd42f874f5fa022863bd1d67ed567e30a7963a6b8c2259081977d6ac8bfacb08fcc393ed7e7d6",
      "networkId": 0,
      "chainId": 0
    }
  ]
}