{
  "hash": "0xd0c96051414351bd21a6aee3476eabe3f372b65c3cea4a3fdfa7625b398f5423",
  "parentHash": "0x8f3a2ce83b88de43dd25f4f70d17cf9e0e9e9e9e3252453b6a93f9390deb95f9",
  "number": 78794,
  "timestamp": 1439459485,
  "nonce": "0xf79f615d8be3e9b7",
  "difficulty": 2288639563218,
  "gasLimit": {
    "_hex": "0x2fefd8"
  },
  "gasUsed": {
    "_hex": "0x5208"
  },
  "miner": "0xf927a40C8B7F6E07c5af7FA2155B4864a4112B13",
  "extraData": "0x",
  "transactions": [
    {
      "hash": "0x60e29e0c4fe0c31e7628e6f63229e7efd01d473c490367e8cfaa05a23ee758c3",
      "blockHash": "0xd0c96051414351bd21a6aee3476eabe3f372b65c3cea4a3fdfa7625b398f5423",
      "blockNumber": 78794,
      "transactionIndex": 0,
      "confirmations": null,
      "from": "0x32Be343B94f860124dC4fEe278FDCBD38C102D88",
      "gasPrice": {
        "_hex": "0xd14ceac7a"
      },
      "gasLimit": {
        "_hex": "0x5208"
      },
      "to": "0xB111131B23148a685D28A018B3577910B86280FC",
      "value": {
        "_hex": "0xdb614c3ee160000"
      },
      "nonce": 402,
      "data": "0x",
      "r": "0x7a58ff6aa672eff998d527dc449dadd4de25c897614802def05cb7702a43abe0",
      "s": "0x56e37bc32b502fd559c1304028ec00fb09487ffa8548fd3c8ba3cf0f0f604316",
      "v": 27,
      "creates": null,
      "raw": "0xf86e820192850d14ceac7a82520894b111131b23148a685d28a018b3577910b86280fc880db614c3ee160000801ba07a58ff6aa672eff998d527dc449dadd4de25c897614802def05cb7702a43abe0a056e37bc32b502fd559c1304028ec00fb09487ffa8548fd3c8ba3cf0f0f604316",
      "networkId": 0,
      "chainId": 0
    }
  ]
}