{
  "hash": "0x34258aacf5346626b7ff2a09ea09d40fc9f1b7de84cfb5cd1a599baf1da7d60d",
  "parentHash": "0x6d23a6700748c29ef09763b63413f15c8f3f0e3f1488ec3525cb8659b04184a2",
  "number": 65634,
  "timestamp": 1439240413,
  "nonce": "0xac6f3f224336e76c",
  "difficulty": 1937808305499,
  "gasLimit": {
    "_hex": "0x2fefd8"
  },
  "gasUsed": {
    "_hex": "0xf618"
  },
  "miner": "0x1cB4D87C5e67d158aF4c3A754a010Dfa64d78cE8",
  "extraData": "0x476574682f76312e302e312f6c696e75782f676f312e342e32",
  "transactions": [
    {
      "hash": "0x02225370f0fc713c81996d9e189ab63bb529d749735fb7084c9c4db25310c36a",
      "blockHash": "0x34258aacf5346626b7ff2a09ea09d40fc9f1b7de84cfb5cd1a599baf1da7d60d",
      "blockNumber": 65634,
      "transactionIndex": 0,
      "confirmations": null,
      "from": "0x4d67f2AB8599fef5Fc413999Aa01FD7fcE70B43D",
      "gasPrice": {
        "_hex": "0xd4dfa5aef"
      },
      "gasLimit": {
        "_hex": "0x55f0"
      },
      "to": "0xf3cC032a3768A1Ce9D73cF26e01Ec84284cc3Ae6",
      "value": {
        "_hex": "0x8ac7230489e80000"
      },
      "nonce": 3,
      "data": "0x",
      "r": "0x4ae8c3f8fffb105a40892cb7324f20f910c6a5170f4d48a1acea9041c688d946",
      "s": "0x45b3e09b8bdae97f929c0bddad279ccfaa22677f898064376a932ce942363ad0",
      "v": 27,
      "creates": null,
      "raw": "0xf86c03850d4dfa5aef8255f094f3cc032a3768a1ce9d73cf26e01ec84284cc3ae6888ac7230489e80000801ba04ae8c3f8fffb105a40892cb7324f20f910c6a5170f4d48a1acea9041c688d946a045b3e09b8bdae97f929c0bddad279ccfaa22677f898064376a932ce942363ad0",
      "networkId": 0,
      "chainId": 0
    },
    {
      "hash": "0x91640d3bb91eb16996eff539cb2034abf5300218c4978767f91778506cede4eb",
      "blockHash": "0x34258aacf5346626b7ff2a09ea09d40fc9f1b7de84cfb5cd1a599baf1da7d60d",
      "blockNumber": 65634,
      "transactionIndex": 1,
      "confirmations": null,
      "from": "0xE9b9F4aC8114911e13f659915F9A10661F6B5CB1",
      "gasPrice": {
        "_hex": "0xcb751aa78"
      },
      "gasLimit": {
        "_hex": "0x15f90"
      },
      "to": "0xc597A5d92F5dC1137D847db733cfe02c6d209f13",
      "value": {
        "_hex": "0x16345785d8a0000"
      },
      "nonce": 6,
      "data": "0x",
      "r": "0x18e82d526c8f44d3ea56348aa58c360d3d151a94a4c1d7ad9d9d9fb82f8466b8",
      "s": "0x392a035300e8d0f38152a2ba81d55b773fb4e9b760b9500515e8ace66755ef1f",
      "v": 28,
      "creates": null,
      "raw": "0xf86d06850cb751aa7883015f9094c597a5d92f5dc1137d847db733cfe02c6d209f1388016345785d8a0000801ca018e82d526c8f44d3ea56348aa58c360d3d151a94a4c1d7ad9d9d9fb82f8466b8a0392a035300e8d0f38152a2ba81d55b773fb4e9b760b9500515e8ace66755ef1f",
      "networkId": 0,
      "chainId": 0
    },
    {
      "hash": "0x9737b4f19edbf31404a516e54edd367b13c9efce8c81264f4c41cc83e41a5d39",
      "blockHash": "0x34258aacf5346626b7ff2a09ea09d40fc9f1b7de84cfb5cd1a599baf1da7d60d",
      "blockNumber": 65634,
      "transactionIndex": 2,
      "confirmations": null,
      "from": "0xE9b9F4aC8114911e13f659915F9A10661F6B5CB1",
      "gasPrice": {
        "_hex": "0xcb751aa78"
      },
      "gasLimit": {
        "_hex": "0x15f90"
      },
      "to": "0xc597A5d92F5dC1137D847db733cfe02c6d209f13",
      "value": {
        "_hex": "0x16345785d8a0000"
      },
      "nonce": 7,
      "data": "0x",
      "r": "0x66880635d5866f31e8c4b465c283c4ed11fc38c5c0cbb64bfb575fa294e7ed64",
      "s": "0x3210d6e718605684a3612601c3e6d41986e2075ca2cff2b76551bf0c6435e299",
      "v": 28,
      "creates": null,
      "raw": "0xf86d07850cb751aa7883015f9094c597a5d92f5dc1137d847db733cfe02c6d209f1388016345785d8a0000801ca066880635d5866f31e8c4b465c283c4ed11fc38c5c0cbb64bfb575fa294e7ed64a03210d6e718605684a3612601c3e6d41986e2075ca2cff2b76551bf0c6435e299",
      "networkId": 0,
      "chainId": 0
    }
  ]
}