{
  "hash": "0x39099eb9f5966ec96cdaa246662e46df634f22a7dd2ca8b68f4576ee37c5f482",
  "parentHash": "0x7c1358178fe927c80bc4fe95c25a1b9aa06aaf86ff8354861275003f33794b15",
  "number": 120464,
  "timestamp": 1440160368,
  "nonce": "0x7adbfb2a0ffcf8d5",
  "difficulty": 4402488071142,
  "gasLimit": {
    "_hex": "0x2fefd8"
  },
  "gasUsed": {
    "_hex": "0x5208"
  },
  "miner": "0xe6A7a1d47ff21B6321162AEA7C6CB457D5476Bca",
  "extraData": "0xd783010002844765746887676f312e342e32856c696e7578",
  "transactions": [
    {
      "hash": "0x85fb4aab3a2b3a0a0f13f61d715da924245ed51fef3ee2e32b35539eae9f8f62",
      "blockHash": "0x39099eb9f5966ec96cdaa246662e46df634f22a7dd2ca8b68f4576ee37c5f482",
      "blockNumber": 120464,
      "transactionIndex": 0,
      "confirmations": null,
      "from": "0xfE439e496730A23d448f85fA219972ea04793aB7",
      "gasPrice": {
        "_hex": "0xba43b7400"
      },
      "gasLimit": {
        "_hex": "0x5208"
      },
      "to": "0x32Be343B94f860124dC4fEe278FDCBD38C102D88",
      "value": {
        "_hex": "0x1b28c1d29e69b00000"
      },
      "nonce": 11,
      "data": "0x",
      "r": "0x6fcaf1c1fb59185a631ca9641405a7611ab43cc34b86f7a76db0f0c06c643082",
      "s": "0x06439df9bd06206fae8ce0ee386e8a8fd2d2eb031330bc3f396928e89ff6b926",
      "v": 27,
      "creates": null,
      "raw": "0xf86d0b850ba43b74008252089432be343b94f860124dc4fee278fdcbd38c102d88891b28c1d29e69b00000801ba06fcaf1c1fb59185a631ca9641405a7611ab43cc34b86f7a76db0f0c06c643082a006439df9bd06206fae8ce0ee386e8a8fd2d2eb031330bc3f396928e89ff6b926",
      "networkId": 0,
      "chainId": 0
    }
  ]
}