{
  "hash": "0x1fd27a22467a063d0eed2dbdafafd5d612ca6ac9ce456e61f1c7e1ab2bab0cba",
  "parentHash": "0xe997f0c190aae75fe23ed6c3442295384b4a3cb77bb16e92b8ed5e9124f24a45",
  "number": 50695,
  "timestamp": 1438993302,
  "nonce": "0xdfc64f7b55ef32ab",
  "difficulty": 1530425001017,
  "gasLimit": {
    "_hex": "0x72794"
  },
  "gasUsed": {
    "_hex": "0x5208"
  },
  "miner": "0xbb7B8287f3F0a933474a79eAe42CBCa977791171",
  "extraData": "0x476574682f4c5649562f76312e302e312f6c696e75782f676f312e342e32",
  "transactions": [
    {
      "hash": "0xfd5024d556e073b7e9b3eab8f378cd1117e933be5d0d62a3b5cd6743d3c4d5f1",
      "blockHash": "0x1fd27a22467a063d0eed2dbdafafd5d612ca6ac9ce456e61f1c7e1ab2bab0cba",
      "blockNumber": 50695,
      "transactionIndex": 0,
      "confirmations": null,
      "from": "0x3Ad06149b21C55Ff867cc3fb9740D2BCc7101231",
      "gasPrice": {
        "_hex": "0xd641f460d"
      },
      "gasLimit": {
        "_hex": "0x15f90"
      },
      "to": "0x1308A2e95c0160B90803ddCA9B9a5bb55E416d79",
      "value": {
        "_hex": "0x38d7ea4c68000"
      },
      "nonce": 0,
      "data": "0x",
      "r": "0x243628e279eeb655a03adca6e8fc9b6a46e4cb40f85d6de9aecab37cceae0d60",
      "s": "0x5e0a973b0c1eb3eb02034d8fadffc498320c8371879c1035c774d7d825b7058d",
      "v": 27,
      "creates": null,
      "raw": "0xf86c80850d641f460d83015f90941308a2e95c0160b90803ddca9b9a5bb55e416d7987038d7ea4c68000801ba0243628e279eeb655a03adca6e8fc9b6a46e4cb40f85d6de9aecab37cceae0d60a05e0a973b0c1eb3eb02034d8fadffc498320c8371879c1035c774d7d825b7058d",
      "networkId": 0,
      "chainId": 0
    }
  ]
}