{
  "hash": "0xbdd6435ec8869bc7efc5d31ae26f007e955ed827bc341f3a375c7cde9e240688",
  "parentHash": "0x50815f2334c38e049d92d1d79bd698df7b91b7c14641ad82b8bcdc8c0e177dd7",
  "number": 81956,
  "timestamp": 1439510769,
  "nonce": "0xa263ddaad199b317",
  "difficulty": 2411659267107,
  "gasLimit": {
    "_hex": "0x2fefd8"
  },
  "gasUsed": {
    "_hex": "0x5208"
  },
  "miner": "0xfE2C95361cCA1471A07C29386d6be561faA10D84",
  "extraData": "0x",
  "transactions": [
    {
      "hash": "0xd19c6efb16885506c3403fa293c0e082a4af4b3c0bf4b5a7018966db632f8962",
      "blockHash": "0xbdd6435ec8869bc7efc5d31ae26f007e955ed827bc341f3a375c7cde9e240688",
      "blockNumber": 81956,
      "transactionIndex": 0,
      "confirmations": null,
      "from": "0xa70a9a7040d542C632D8e0bE7c5513A8a5Bbc752",
      "gasPrice": {
        "_hex": "0xddc540435"
      },
      "gasLimit": {
        "_hex": "0x5208"
      },
      "to": "0x32Be343B94f860124dC4fEe278FDCBD38C102D88",
      "value": {
        "_hex": "0x455f20810a498400"
      },
      "nonce": 60,
      "data": "0x",
      "r": "0x7b2aaf9f145e6725702396f24d3d1a9db45eeb3d556b5abb1a526e9d1e9799c3",
      "s": "0x1edcf300f0d45c576dd5f7979b0bd1fb20ea14c42513802222849d2d36b60acd",
      "v": 27,
      "creates": null,
      "raw": "0xf86c3c850ddc5404358252089432be343b94f860124dc4fee278fdcbd38c102d8888455f20810a498400801ba07b2aaf9f145e6725702396f24d3d1a9db45eeb3d556b5abb1a526e9d1e9799c3a01edcf300f0d45c576dd5f7979b0bd1fb20ea14c42513802222849d2d36b60acd",
      "networkId": 0,
      "chainId": 0
    }
  ]
}