{
  "hash": "0x9f8f8bf7d370b075d6535f77bdbd12c326b68f0d179d3a31897dbd30be9d58ed",
  "parentHash": "0xb98180230a87ffcb122ffe4061f47cc9e6c6a530d924acd70dbcdb1d356d4832",
  "number": 62434,
  "timestamp": 1439188617,
  "nonce": "0xe61f7dd8ad7ac903",
  "difficulty": 1768518486004,
  "gasLimit": {
    "_hex": "0x2fefd8"
  },
  "gasUsed": {
    "_hex": "0x5208"
  },
  "miner": "0xBD744E3F13D79B33F6c8E1d5E32F8E9BA2866c46",
  "extraData": "0x486170707920353074682053696e6761706f726521203230313530383039",
  "transactions": [
    {
      "hash": "0x63790c578783a159b1cd2800bab6090d9f8d589888655b2cf6035b7ab0eda46b",
      "blockHash": "0x9f8f8bf7d370b075d6535f77bdbd12c326b68f0d179d3a31897dbd30be9d58ed",
      "blockNumber": 62434,
      "transactionIndex": 0,
      "confirmations": null,
      "from": "0xF7e66D2622220807d8696064E94ca24b1dC6e7Da",
      "gasPrice": {
        "_hex": "0xd0b116ea5"
      },
      "gasLimit": {
        "_hex": "0x5208"
      },
      "to": "0x32Be343B94f860124dC4fEe278FDCBD38C102D88",
      "value": {
        "_hex": "0x455f638d50b33400"
      },
      "nonce": 1,
      "data": "0x",
      "r": "0x80ad54a1ca06c0feeba34b9223447429d6ba019f174ca57b16c8f6b7c9ff45a3",
      "s": "0x09683662da7d4dcee294f99817ad5f92695cfd5ae65f69bf95ea21246c8d1d83",
      "v": 27,
      "creates": null,
      "raw": "0xf86c01850d0b116ea58252089432be343b94f860124dc4fee278fdcbd38c102d8888455f638d50b33400801ba080ad54a1ca06c0feeba34b9223447429d6ba019f174ca57b16c8f6b7c9ff45a3a009683662da7d4dcee294f99817ad5f92695cfd5ae65f69bf95ea21246c8d1d83",
      "networkId": 0,
      "chainId": 0
    }
  ]
}