{
  "hash": "0xd2effdf93614605c6349f21f24de7b4debdc3cfed67832c8b0dfe437da3a6101",
  "parentHash": "0x260777f6e073e370fa55ced6a796fecee89a781fa79460158032f41a73dfd622",
  "number": 107179,
  "timestamp": 1439917662,
  "nonce": "0xced53d9eee84147b",
  "difficulty": 4446220143733,
  "gasLimit": {
    "_hex": "0x2fefd8"
  },
  "gasUsed": {
    "_hex": "0xa410"
  },
  "miner": "0x05f74a38293C914C6B14a39f5d8dEa98f22E4FBA",
  "extraData": "0x",
  "transactions": [
    {
      "hash": "0xb9153400a831bf28b3659b4b788d59bee9b4dafb2738689b8733f0f5452183e0",
      "blockHash": "0xd2effdf93614605c6349f21f24de7b4debdc3cfed67832c8b0dfe437da3a6101",
      "blockNumber": 107179,
      "transactionIndex": 0,
      "confirmations": null,
      "from": "0xf652cE4D07f4b2f4Fd6F582F9e1f22a868AD60dA",
      "gasPrice": {
        "_hex": "0xd3fe6d4fc"
      },
      "gasLimit": {
        "_hex": "0x5208"
      },
      "to": "0xFBb1b73C4f0BDa4f67dcA266ce6Ef42f520fBB98",
      "value": {
        "_hex": "0x16e1bb6017f5a020"
      },
      "nonce": 1,
      "data": "0x",
      "r": "0x0f0cf5f65448c8289816308a06b67c772ab2f657659bd41f55189e11f9e17996",
      "s": "0x61c305a3fb2afed1eb617982af566f54f1d55062ae3c0c2f5b64add5e2b1c5b7",
      "v": 27,
      "creates": null,
      "raw": "0xf86c01850d3fe6d4fc82520894fbb1b73c4f0bda4f67dca266ce6ef42f520fbb988816e1bb6017f5a020801ba00f0cf5f65448c8289816308a06b67c772ab2f657659bd41f55189e11f9e17996a061c305a3fb2afed1eb617982af566f54f1d55062ae3c0c2f5b64add5e2b1c5b7",
      "networkId": 0,
      "chainId": 0
    },
    {
      "hash": "0xca0aa882008a28f856aa874620a6be821e5fff441c9f060d68dfba1fe9cd837a",
      "blockHash": "0xd2effdf93614605c6349f21f24de7b4debdc3cfed67832c8b0dfe437da3a6101",
      "blockNumber": 107179,
      "transactionIndex": 1,
      "confirmations": null,
      "from": "0x32Be343B94f860124dC4fEe278FDCBD38C102D88",
      "gasPrice": {
        "_hex": "0xd0dad070b"
      },
      "gasLimit": {
        "_hex": "0x5208"
      },
      "to": "0xd12Cd8A37F074e7eAFae618C986Ff825666198bd",
      "value": {
        "_hex": "0xd4025cdf450bb00000"
      },
      "nonce": 1204,
      "data": "0x",
      "r": "0xec10feaef6712b6749861d1c9a8591fbebd68b6c8dce90e812be015f791c2b49",
      "s": "0x5eb8b7ba48b39a83a2f31594cf51570f500bef97dc293336576c9cf0b13ee2ef",
      "v": 27,
      "creates": null,
      "raw": "0xf86f8204b4850d0dad070b82520894d12cd8a37f074e7eafae618c986ff825666198bd89d4025cdf450bb00000801ba0ec10feaef6712b6749861d1c9a8591fbebd68b6c8dce90e812be015f791c2b49a05eb8b7ba48b39a83a2f31594cf51570f500bef97dc293336576c9cf0b13ee2ef",
      "networkId": 0,
      "chainId": 0
    }
  ]
}