{
  "hash": "0xa68395b59c747f999cd20c69ea6b73d4f74c43bcebd6806ff2ab5509e7d5fe0f",
  "parentHash": "0x92e414bd17fa1cf39849930b9e3655777dde62874d0055ff2d83d06b217cff05",
  "number": 81835,
  "timestamp": 1439508684,
  "nonce": "0xd25b131cbb9515d6",
  "difficulty": 2422315641001,
  "gasLimit": {
    "_hex": "0x2fefd8"
  },
  "gasUsed": {
    "_hex": "0x5208"
  },
  "miner": "0xe6A7a1d47ff21B6321162AEA7C6CB457D5476Bca",
  "extraData": "0x476574682f76312e302e312d38326566323666362f6c696e75782f676f312e34",
  "transactions": [
    {
      "hash": "0xb22e3799f48ed4ec34c895542d78a1faeb9f4d5ce0db7e53f475c5546faed51f",
      "blockHash": "0xa68395b59c747f999cd20c69ea6b73d4f74c43bcebd6806ff2ab5509e7d5fe0f",
      "blockNumber": 81835,
      "transactionIndex": 0,
      "confirmations": null,
      "from": "0x73CcAa6FCE871D925D908FB141B0f6f720fe60eb",
      "gasPrice": {
        "_hex": "0xd25a5e509"
      },
      "gasLimit": {
        "_hex": "0x15f90"
      },
      "to": "0x0D82Cd113DC35DdDA93f38166cD5CDe8b88e36A1",
      "value": {
        "_hex": "0x27147114878000"
      },
      "nonce": 0,
      "data": "0x",
      "r": "0xb14223d269523d9d581f20905bad231a9d0d24463269efa5d52c74fc1f56249d",
      "s": "0x0e09c5aa896c64e6e6da2ce86cd8514b20105802dfde49f447ef24bde329ab61",
      "v": 28,
      "creates": null,
      "raw": "0xf86c80850d25a5e50983015f90940d82cd113dc35ddda93f38166cd5cde8b88e36a18727147114878000801ca0b14223d269523d9d581f20905bad231a9d0d24463269efa5d52c74fc1f56249da00e09c5aa896c64e6e6da2ce86cd8514b20105802dfde49f447ef24bde329ab61",
      "networkId": 0,
      "chainId": 0
    }
  ]
}