{
  "hash": "0xf1b5b49833b4c1dd8e8e71fc4fd32222b6bc930198fb29b581dc54a9cd5b7ee6",
  "parentHash": "0x418f0b392e028b82048cfdcf62f9ab71285c6bd6c5c771bdb6ed00efdfe2a3ef",
  "number": 96764,
  "timestamp": 1439745252,
  "nonce": "0x8a9ed8813ce60958",
  "difficulty": 3772615537189,
  "gasLimit": {
    "_hex": "0x2fefd8"
  },
  "gasUsed": {
    "_hex": "0xf618"
  },
  "miner": "0x790b8a3cE86E707ED0eD32bF89B3269692a23CC1",
  "extraData": "0xd783010001844765746887676f312e342e32856c696e7578",
  "transactions": [
    {
      "hash": "0xfb709a08b6f88053dd98aab6e360613f52b29b9a274a19909697496549efae7c",
      "blockHash": "0xf1b5b49833b4c1dd8e8e71fc4fd32222b6bc930198fb29b581dc54a9cd5b7ee6",
      "blockNumber": 96764,
      "transactionIndex": 0,
      "confirmations": null,
      "from": "0x790b8a3cE86E707ED0eD32bF89B3269692a23CC1",
      "gasPrice": {
        "_hex": "0xdf66973d8"
      },
      "gasLimit": {
        "_hex": "0x15f90"
      },
      "to": "0x4D67f4F0Db45b3B5a3424B39ed8d972F710381D5",
      "value": {
        "_hex": "0x2ec03446cf18e0000"
      },
      "nonce": 13,
      "data": "0x",
      "r": "0x6f0e1d3fcf608cb239ab2c0b8928ad3f2f28d272c78632852f4f1ad41f7aefd0",
      "s": "0x6ea44f57e491adacfc5032d2d51ed567fdfb22687b845fc1ce7bd752f6095e4c",
      "v": 28,
      "creates": null,
      "raw": "0xf86e0d850df66973d883015f90944d67f4f0db45b3b5a3424b39ed8d972f710381d58902ec03446cf18e0000801ca06f0e1d3fcf608cb239ab2c0b8928ad3f2f28d272c78632852f4f1ad41f7aefd0a06ea44f57e491adacfc5032d2d51ed567fdfb22687b845fc1ce7bd752f6095e4c",
      "networkId": 0,
      "chainId": 0
    },
    {
      "hash": "0x9232b8a8b46edf6e771da656e42543786952252687c2d46fe9823797fdaf7595",
      "blockHash": "0xf1b5b49833b4c1dd8e8e71fc4fd32222b6bc930198fb29b581dc54a9cd5b7ee6",
      "blockNumber": 96764,
      "transactionIndex": 1,
      "confirmations": null,
      "from": "0x7813b43093D32CbeD2132ebd334bd7F9811E8309",
      "gasPrice": {
        "_hex": "0xd641f460d"
      },
      "gasLimit": {
        "_hex": "0x15f90"
      },
      "to": "0x2dfA6c0e7A0C06592BEADeEDb71dc959E98fdE6C",
      "value": {
        "_hex": "0x1bc16d674ec80000"
      },
      "nonce": 0,
      "data": "0x",
      "r": "0x8d19c134bb223419afa4b539d613bfb99b0b328355d54943ac8b21903653a793",
      "s": "0x43b1773494420f784e9e095efeb4837ce34e6539df022ab6b422d5a9fd645bb4",
      "v": 27,
      "creates": null,
      "raw": "0xf86d80850d641f460d83015f90942dfa6c0e7a0c06592beadeedb71dc959e98fde6c881bc16d674ec80000801ba08d19c134bb223419afa4b539d613bfb99b0b328355d54943ac8b21903653a793a043b1773494420f784e9e095efeb4837ce34e6539df022ab6b422d5a9fd645bb4",
      "networkId": 0,
      "chainId": 0
    },
    {
      "hash": "0xe1a9c7841586ca9951f8a979c3b1e50f250472186f49a6f171e69171ab359a3e",
      "blockHash": "0xf1b5b49833b4c1dd8e8e71fc4fd32222b6bc930198fb29b581dc54a9cd5b7ee6",
      "blockNumber": 96764,
      "transactionIndex": 2,
      "confirmations": null,
      "from": "0xb1abce2918E21ddb93AA452731a12672A3d9F75a",
      "gasPrice": {
        "_hex": "0xd4c89e314"
      },
      "gasLimit": {
        "_hex": "0x5208"
      },
      "to": "0x32Be343B94f860124dC4fEe278FDCBD38C102D88",
      "value": {
        "_hex": "0x455f4e943d976c00"
      },
      "nonce": 62,
      "data": "0x",
      "r": "0x7676fa9cf0c17199d3e06d773c6725269fbcad4b0a50d92f499749e1040b64d4",
      "s": "0x58b6eb09661310b76c50561cc21bad000d8777ec02f51af7a0de946f9bd42ee6",
      "v": 28,
      "creates": null,
      "raw": "0xf86c3e850d4c89e3148252089432be343b94f860124dc4fee278fdcbd38c102d8888455f4e943d976c00801ca07676fa9cf0c17199d3e06d773c6725269fbcad4b0a50d92f499749e1040b64d4a058b6eb09661310b76c50561cc21bad000d8777ec02f51af7a0de946f9bd42ee6",
      "networkId": 0,
      "chainId": 0
    }
  ]
}