{
  "hash": "0x2a653924cbe1135a1f5731a9fba44a37cf05ed3827c9a81d9bbf17789d5d3040",
  "parentHash": "0xef668108da16d17943e199a15d4cf83d7ef4ea38f8255763db2ce45b86864d39",
  "number": 104151,
  "timestamp": 1439865275,
  "nonce": "0x766d7cce55a98bf2",
  "difficulty": 4252442044095,
  "gasLimit": {
    "_hex": "0x2fefd8"
  },
  "gasUsed": {
    "_hex": "0xa410"
  },
  "miner": "0x0BB549C68C4992BAc6a19C97d97178f60b36998E",
  "extraData": "0x476574682f76312e302e312d38326566323666362f6c696e75782f676f312e34",
  "transactions": [
    {
      "hash": "0x7102e02c7db08f21bec7ef41f7522ae6d7a7dd2da1a68906db689634df33d824",
      "blockHash": "0x2a653924cbe1135a1f5731a9fba44a37cf05ed3827c9a81d9bbf17789d5d3040",
      "blockNumber": 104151,
      "transactionIndex": 0,
      "confirmations": null,
      "from": "0x32Be343B94f860124dC4fEe278FDCBD38C102D88",
      "gasPrice": {
        "_hex": "0xdb5a0fe75"
      },
      "gasLimit": {
        "_hex": "0x5208"
      },
      "to": "0xD7Add146Fd01cC02354e9dE91df7d38D918E9C5D",
      "value": {
        "_hex": "0x77f45779fb52f0000"
      },
      "nonce": 1147,
      "data": "0x",
      "r": "0x354b30fa91fe32de0ff1f5aff00471d4a8b4e4be4880f759b803bf7499929029",
      "s": "0x3c614ac43f963d4ca585b1ecc2ca8eac8a9ddadcaa3e9ec4706b2735688cfd82",
      "v": 28,
      "creates": null,
      "raw": "0xf86f82047b850db5a0fe7582520894d7add146fd01cc02354e9de91df7d38d918e9c5d89077f45779fb52f0000801ca0354b30fa91fe32de0ff1f5aff00471d4a8b4e4be4880f759b803bf7499929029a03c614ac43f963d4ca585b1ecc2ca8eac8a9ddadcaa3e9ec4706b2735688cfd82",
      "networkId": 0,
      "chainId": 0
    },
    {
      "hash": "0x2bcf5192f39a95952f52a72bb25877a7300256576cb2dd301ade7d5c33250e9c",
      "blockHash": "0x2a653924cbe1135a1f5731a9fba44a37cf05ed3827c9a81d9bbf17789d5d3040",
      "blockNumber": 104151,
      "transactionIndex": 1,
      "confirmations": null,
      "from": "0xfF68C2F39C4e7FE2f92c2DC2f8615b1BF070e0FA",
      "gasPrice": {
        "_hex": "0xd3d37f23a"
      },
      "gasLimit": {
        "_hex": "0x5208"
      },
      "to": "0x7147dFfD3d08ad00917cFEa2b60188439944990b",
      "value": {
        "_hex": "0xde0b6b3a7640000"
      },
      "nonce": 2,
      "data": "0x",
      "r": "0x75fba77704556700f72d9e8c41d8824345adf1cfa934a8cc6440a9ddd22caed0",
      "s": "0x71cf850d15e56bee91691c931e25db26dd03103d926d6d2f8aa6e341b2f10628",
      "v": 27,
      "creates": null,
      "raw": "0xf86c02850d3d37f23a825208947147dffd3d08ad00917cfea2b60188439944990b880de0b6b3a7640000801ba075fba77704556700f72d9e8c41d8824345adf1cfa934a8cc6440a9ddd22caed0a071cf850d15e56bee91691c931e25db26dd03103d926d6d2f8aa6e341b2f10628",
      "networkId": 0,
      "chainId": 0
    }
  ]
}