{
  "hash": "0xcf10b1a09855ff1212f9fb61cf1f793e069b10a186b1282cf2b37bc3b43dad85",
  "parentHash": "0x56bb02a389845be5fa61c916b663b982e1d31e807b53d3b26baacba62e4b8fc2",
  "number": 80003,
  "timestamp": 1439478621,
  "nonce": "0x32096a64561f29dc",
  "difficulty": 2348301610840,
  "gasLimit": {
    "_hex": "0x2fefd8"
  },
  "gasUsed": {
    "_hex": "0x5208"
  },
  "miner": "0xe6A7a1d47ff21B6321162AEA7C6CB457D5476Bca",
  "extraData": "0x476574682f76312e302e312d38326566323666362f6c696e75782f676f312e34",
  "transactions": [
    {
      "hash": "0xc354a2b9a82f306ad4e57abd2c3ce6b2203cb1217e34f490fe2150027e28e769",
      "blockHash": "0xcf10b1a09855ff1212f9fb61cf1f793e069b10a186b1282cf2b37bc3b43dad85",
      "blockNumber": 80003,
      "transactionIndex": 0,
      "confirmations": null,
      "from": "0x8df03bD37602d97980327B58D940258dC57007B3",
      "gasPrice": {
        "_hex": "0xd60340b78"
      },
      "gasLimit": {
        "_hex": "0x15f90"
      },
      "to": "0x98f2c2754c77b49993EEA4Dcd2D9ABa71B696B60",
      "value": {
        "_hex": "0xbed1d0263d9f0000"
      },
      "nonce": 6,
      "data": "0x",
      "r": "0x916e1444bcfc5758ec58adb13fec9931c542fd8a0d0dd3c55fb0f4ab9267cf73",
      "s": "0x61d7e4b74af64538276ce91fc82d88784b9c89d17c4c3f0b87ef11bf7aae0d39",
      "v": 27,
      "creates": null,
      "raw": "0xf86d06850d60340b7883015f909498f2c2754c77b49993eea4dcd2d9aba71b696b6088bed1d0263d9f0000801ba0916e1444bcfc5758ec58adb13fec9931c542fd8a0d0dd3c55fb0f4ab9267cf73a061d7e4b74af64538276ce91fc82d88784b9c89d17c4c3f0b87ef11bf7aae0d39",
      "networkId": 0,
      "chainId": 0
    }
  ]
}