{
  "hash": "0xf25df05674f392f8ba6e2e6fbe4fd543ce4de99572a20b84dddff01849163ffa",
  "parentHash": "0x1ee098f1873b3e6a7c8305666eaea3bf6fa1ac5b7d84b4d4ac1a40a3a14aac5b",
  "number": 56052,
  "timestamp": 1439081322,
  "nonce": "0x8863918c68c4d1c8",
  "difficulty": 1622533646705,
  "gasLimit": {
    "_hex": "0x2fefd8"
  },
  "gasUsed": {
    "_hex": "0xa565"
  },
  "miner": "0x3222BA3F3e79eA0e31467EEE7639B57923558cCD",
  "extraData": "0x",
  "transactions": [
    {
      "hash": "0x55bf1096e22772a159c8ce3b0ec8d6faaf88874bdea9513c671e48a589d0f3a6",
      "blockHash": "0xf25df05674f392f8ba6e2e6fbe4fd543ce4de99572a20b84dddff01849163ffa",
      "blockNumber": 56052,
      "transactionIndex": 0,
      "confirmations": null,
      "from": "0xb2e9D76bf50Fc36bf7d3944b63e9Ca889b699968",
      "gasPrice": {
        "_hex": "0xd1f217cbf"
      },
      "gasLimit": {
        "_hex": "0x15f90"
      },
      "to": "0x9b760457B75C17F09C52eEa70b478008fD04c941",
      "value": {
        "_hex": "0xde0b6b3a7640000"
      },
      "nonce": 0,
      "data": "0x",
      "r": "0x9a66809fcd31ac99e38dc08264b07bfd11060677299b807d65e6d02d8cd0dc13",
      "s": "0x452bdce816923ec2f6c95169dba234ffcbe2469ab929962fb7c3dc3a6cc6b708",
      "v": 28,
      "creates": null,
      "raw": "0xf86d80850d1f217cbf83015f90949b760457b75c17f09c52eea70b478008fd04c941880de0b6b3a7640000801ca09a66809fcd31ac99e38dc08264b07bfd11060677299b807d65e6d02d8cd0dc13a0452bdce816923ec2f6c95169dba234ffcbe2469ab929962fb7c3dc3a6cc6b708",
      "networkId": 0,
      "chainId": 0
    },
    {
      "hash": "0x9dd2f40a6d2a07a41d370b4b6b4d98e61e344f014ee583182f5eadb08c08abdd",
      "blockHash": "0xf25df05674f392f8ba6e2e6fbe4fd543ce4de99572a20b84dddff01849163ffa",
      "blockNumber": 56052,
      "transactionIndex": 1,
      "confirmations": null,
      "from": "0x288E4356F12D0D3D0F8DF3506E457E7cFd5f4Ab0",
      "gasPrice": {
        "_hex": "0xd198cd4e0"
      },
      "gasLimit": {
        "_hex": "0xc350"
      },
      "to": "0xa77436621b16912Aeb744A1313a071Ba6A25a278",
      "value": {
        "_hex": "0x0"
      },
      "nonce": 25,
      "data": "0x13e83a59",
      "r": "0x7416aeb0ddcd781703af235bc21792857e7d3313421aa71a6ee6871bad2e785f",
      "s": "0x50ffc88513ab0d11c42ed2dafecb7216e091a944f6e06ec7d697bcd6462f6a0c",
      "v": 27,
      "creates": null,
      "raw": "0xf86819850d198cd4e082c35094a77436621b16912aeb744a1313a071ba6a25a278808413e83a591ba07416aeb0ddcd781703af235bc21792857e7d3313421aa71a6ee6871bad2e785fa050ffc88513ab0d11c42ed2dafecb7216e091a944f6e06ec7d697bcd6462f6a0c",
      "networkId": 0,
      "chainId": 0
    }
  ]
}