{
  "hash": "0x37795262d068f3122bcdbdadec7f84e4c67f3b689397e35e73d82b32aa093844",
  "parentHash": "0x1728b43aae74c5a8034c8fab7485dcb6fd5b44d30651f680d114f9f293dab262",
  "number": 74298,
  "timestamp": 1439383926,
  "nonce": "0xb69e5e882af14367",
  "difficulty": 2206448371200,
  "gasLimit": {
    "_hex": "0x2fefd8"
  },
  "gasUsed": {
    "_hex": "0xa410"
  },
  "miner": "0xa50ec0D39fa913E62f1Bae7074E6F36caA71855b",
  "extraData": "0x",
  "transactions": [
    {
      "hash": "0x357d6a67873baf5a63819f84e24ffb231fa8a962a6a5dc22365d517608ac4039",
      "blockHash": "0x37795262d068f3122bcdbdadec7f84e4c67f3b689397e35e73d82b32aa093844",
      "blockNumber": 74298,
      "transactionIndex": 0,
      "confirmations": null,
      "from": "0xe6A7a1d47ff21B6321162AEA7C6CB457D5476Bca",
      "gasPrice": {
        "_hex": "0xd5e42c4ab"
      },
      "gasLimit": {
        "_hex": "0x55f0"
      },
      "to": "0xBDda295a4aa9E3A60063548157510B47c6BE932f",
      "value": {
        "_hex": "0x402c04f8cb707878"
      },
      "nonce": 987,
      "data": "0x",
      "r": "0x81a14e53f32dff51ce05d2496e8393665c76497acd145b9a8a6cd368b78a9784",
      "s": "0x04ebfe16ec5ff3e8ad1acaeeed36b3be75c00a7e545250fadc76c55b67af5d7c",
      "v": 27,
      "creates": null,
      "raw": "0xf86e8203db850d5e42c4ab8255f094bdda295a4aa9e3a60063548157510b47c6be932f88402c04f8cb707878801ba081a14e53f32dff51ce05d2496e8393665c76497acd145b9a8a6cd368b78a9784a004ebfe16ec5ff3e8ad1acaeeed36b3be75c00a7e545250fadc76c55b67af5d7c",
      "networkId": 0,
      "chainId": 0
    },
    {
      "hash": "0xd1406c9b991708b1fe5e4212350b4b152830c3ee9a2f8a88e2137ae073022990",
      "blockHash": "0x37795262d068f3122bcdbdadec7f84e4c67f3b689397e35e73d82b32aa093844",
      "blockNumber": 74298,
      "transactionIndex": 1,
      "confirmations": null,
      "from": "0xe6A7a1d47ff21B6321162AEA7C6CB457D5476Bca",
      "gasPrice": {
        "_hex": "0xd3ee0f149"
      },
      "gasLimit": {
        "_hex": "0x55f0"
      },
      "to": "0x8eB3FbB4A0Cc2366e88FB476df63D3Ad6907907b",
      "value": {
        "_hex": "0x6a34cf2986814d68"
      },
      "nonce": 988,
      "data": "0x",
      "r": "0x831237c54cea0fc2259313f8e0952a26eea3df13b52d648842580c25337cefe0",
      "s": "0x0ea106b69ff3a308df0e8108c8a0120524744204fcffb2c6a61114243230cfe1",
      "v": 27,
      "creates": null,
      "raw": "0xf86e8203dc850d3ee0f1498255f0948eb3fbb4a0cc2366e88fb476df63d3ad6907907b886a34cf2986814d68801ba0831237c54cea0fc2259313f8e0952a26eea3df13b52d648842580c25337cefe0a00ea106b69ff3a308df0e8108c8a0120524744204fcffb2c6a61114243230cfe1",
      "networkId": 0,
      "chainId": 0
    }
  ]
}