{
  "hash": "0x7b4d53bb10b9f95c52cb63d92aa3b68d6e5f37a5ecb3577f2f972853d106c823",
  "parentHash": "0xe1ae780f7c844ed6d1c44a32e05eb31021fb42f2e231b41a896a80e8b34b28ad",
  "number": 80615,
  "timestamp": 1439488092,
  "nonce": "0xdd9b9d8b62d271aa",
  "difficulty": 2425034999400,
  "gasLimit": {
    "_hex": "0x2fefd8"
  },
  "gasUsed": {
    "_hex": "0x5208"
  },
  "miner": "0x007f7f58D3eb5b7510A301eCC749FC1fCDDBE14D",
  "extraData": "0x476574682f76312e302e312f77696e646f77732f676f312e342e32",
  "transactions": [
    {
      "hash": "0x847406f193b45a66e0694325a8c6887224d2e2a88f00d592072cd5fccebaeeb4",
      "blockHash": "0x7b4d53bb10b9f95c52cb63d92aa3b68d6e5f37a5ecb3577f2f972853d106c823",
      "blockNumber": 80615,
      "transactionIndex": 0,
      "confirmations": null,
      "from": "0x297d128041190ec4D477Cd476D194eFcA4E9cf67",
      "gasPrice": {
        "_hex": "0x746a528800"
      },
      "gasLimit": {
        "_hex": "0x5b04"
      },
      "to": "0x01f2c407D48959817C396105d402041EeAfD9090",
      "value": {
        "_hex": "0x4fefa17b7240000"
      },
      "nonce": 0,
      "data": "0x",
      "r": "0x427265494e055f8ab59b6331e5248b1c6b9f3f725271de67cd5ece7518edf35a",
      "s": "0xead9ae79cb64b8bac0cf41267f716d207fce3063b06f21b6c670f50ba0d83505",
      "v": 28,
      "creates": null,
      "raw": "0xf86c8085746a528800825b049401f2c407d48959817c396105d402041eeafd90908804fefa17b7240000801ca0427265494e055f8ab59b6331e5248b1c6b9f3f725271de67cd5ece7518edf35aa0ead9ae79cb64b8bac0cf41267f716d207fce3063b06f21b6c670f50ba0d83505",
      "networkId": 0,
      "chainId": 0
    }
  ]
}