{
  "hash": "0x330795f538eef8f8cf2148861d2d1bb2361b08d36f8e2d853019faa1db82d872",
  "parentHash": "0xb311e006866491ef46fae563286e02acb70f2e11c3c04718549da4aac8b4e004",
  "number": 100315,
  "timestamp": 1439804402,
  "nonce": "0x7cb1652b879a8e6f",
  "difficulty": 3832274563204,
  "gasLimit": {
    "_hex": "0x2fefd8"
  },
  "gasUsed": {
    "_hex": "0x5208"
  },
  "miner": "0xfC25864D8326b4CB335C6942218e5F4Ee8D1E1EF",
  "extraData": "0x476574682f76312e302e312f77696e646f77732f676f312e342e32",
  "transactions": [
    {
      "hash": "0x6049f65f082e81b6b5d3c8713581ee5a76ba0a5a4402b37f71d147c4a4cef429",
      "blockHash": "0x330795f538eef8f8cf2148861d2d1bb2361b08d36f8e2d853019faa1db82d872",
      "blockNumber": 100315,
      "transactionIndex": 0,
      "confirmations": null,
      "from": "0xC47Aaa860008be6f65B58c6C6E02a84e666EfE31",
      "gasPrice": {
        "_hex": "0xde1e2a63d"
      },
      "gasLimit": {
        "_hex": "0x15f90"
      },
      "to": "0x3aFca45be577815985f0d83E5E4C738F45804Fec",
      "value": {
        "_hex": "0xde0b6b3a7640000"
      },
      "nonce": 37,
      "data": "0x",
      "r": "0xae4301bb66ebc6c8a8faeebc77038c9850e8ad6111b78951a42bb13767adaed8",
      "s": "0x41a28b9d81c7b42bba7ce2548a04856c63c0b07e632eb8b54956da485b18f0aa",
      "v": 27,
      "creates": null,
      "raw": "0xf86d25850de1e2a63d83015f90943afca45be577815985f0d83e5e4c738f45804fec880de0b6b3a7640000801ba0ae4301bb66ebc6c8a8faeebc77038c9850e8ad6111b78951a42bb13767adaed8a041a28b9d81c7b42bba7ce2548a04856c63c0b07e632eb8b54956da485b18f0aa",
      "networkId": 0,
      "chainId": 0
    }
  ]
}