{
  "hash": "0xc372baa7d9d03d1fe67bc9620d0c6ce19c9515f6271131fd614bc1c440abbadf",
  "parentHash": "0x1fb50b289f022c6be1fd20e4f37f9a51f82d6f38048904ea9dde0751fae99213",
  "number": 85314,
  "timestamp": 1439561707,
  "nonce": "0xb918a5b77bdc9769",
  "difficulty": 2745045145039,
  "gasLimit": {
    "_hex": "0x2fefd8"
  },
  "gasUsed": {
    "_hex": "0x5208"
  },
  "miner": "0xEF247E639d49461D25F57e9362CadE3120910Ce0",
  "extraData": "0x476574682f76312e302e312f6c696e75782f676f312e342e32",
  "transactions": [
    {
      "hash": "0xcb37c3cd5de257268e333a93c68b4cb7262ef09c7c3092e48543254ffa434810",
      "blockHash": "0xc372baa7d9d03d1fe67bc9620d0c6ce19c9515f6271131fd614bc1c440abbadf",
      "blockNumber": 85314,
      "transactionIndex": 0,
      "confirmations": null,
      "from": "0x8e44de8518424bFf69916Db9B4a420B9beF5906e",
      "gasPrice": {
        "_hex": "0xba43b7400"
      },
      "gasLimit": {
        "_hex": "0x5208"
      },
      "to": "0xC47Aaa860008be6f65B58c6C6E02a84e666EfE31",
      "value": {
        "_hex": "0xe7d6e37e7245e000"
      },
      "nonce": 1,
      "data": "0x",
      "r": "0x502f7e79462ac5a34804a1dad524e90c7dcbfdff9010ffe9005517139a1fff9f",
      "s": "0x179607b7592b1826532b58ac9113a6f69ca5514f9a2658a9215cb2fd98b417e0",
      "v": 27,
      "creates": null,
      "raw": "0xf86c01850ba43b740082520894c47aaa860008be6f65b58c6c6e02a84e666efe3188e7d6e37e7245e000801ba0502f7e79462ac5a34804a1dad524e90c7dcbfdff9010ffe9005517139a1fff9fa0179607b7592b1826532b58ac9113a6f69ca5514f9a2658a9215cb2fd98b417e0",
      "networkId": 0,
      "chainId": 0
    }
  ]
}