{
  "hash": "0xe23718d3e9d9497e58b6ca0edcd45254698b305f3954f98bea10b3e2ed9946bb",
  "parentHash": "0x6f5b4e562d020d436654ef5d3d7c6113cf9487d571324ddc24ab490186dbfaa1",
  "number": 68540,
  "timestamp": 1439289755,
  "nonce": "0xb848380b2294afbd",
  "difficulty": 2004492402720,
  "gasLimit": {
    "_hex": "0x2fefd8"
  },
  "gasUsed": {
    "_hex": "0x14820"
  },
  "miner": "0xf927a40C8B7F6E07c5af7FA2155B4864a4112B13",
  "extraData": "0x",
  "transactions": [
    {
      "hash": "0x8d56c99ded5ab1243d4acfbf59eb4ad5067992317aec8dc87ba886d337cdb172",
      "blockHash": "0xe23718d3e9d9497e58b6ca0edcd45254698b305f3954f98bea10b3e2ed9946bb",
      "blockNumber": 68540,
      "transactionIndex": 0,
      "confirmations": null,
      "from": "0xBAA5749f251Ba5D0499a11Eadf114c58A5563d7c",
      "gasPrice": {
        "_hex": "0xba43b7400"
      },
      "gasLimit": {
        "_hex": "0x5208"
      },
      "to": "0x43C4EC69f57128fb6CFbE5B8E53C5655c939e356",
      "value": {
        "_hex": "0x4e1253f5de4000"
      },
      "nonce": 1,
      "data": "0x",
      "r": "0xc35aad9693c5a234e1dfdd4a885937df1bdc7771446c213c933895f2f064e07e",
      "s": "0x6c9230d1135dae686185069da8cc1cfc89acb69fa265f01717a4655482e75815",
      "v": 28,
      "creates": null,
      "raw": "0xf86b01850ba43b74008252089443c4ec69f57128fb6cfbe5b8e53c5655c939e356874e1253f5de4000801ca0c35aad9693c5a234e1dfdd4a885937df1bdc7771446c213c933895f2f064e07ea06c9230d1135dae686185069da8cc1cfc89acb69fa265f01717a4655482e75815",
      "networkId": 0,
      "chainId": 0
    },
    {
      "hash": "0x26de2b6f96b622b774e6f75608297320864d3a017c4a24fe2417c2b0ea6d1508",
      "blockHash": "0xe23718d3e9d9497e58b6ca0edcd45254698b305f3954f98bea10b3e2ed9946bb",
      "blockNumber": 68540,
      "transactionIndex": 1,
      "confirmations": null,
      "from": "0x3Ac20D085B43EB5FA52795db0170AbF2E8C67183",
      "gasPrice": {
        "_hex": "0xba43b7400"
      },
      "gasLimit": {
        "_hex": "0x5208"
      },
      "to": "0x0C5fF4b82cDB8963d1D61486d5a31D6559c4526e",
      "value": {
        "_hex": "0x4e1253f5de4000"
      },
      "nonce": 1,
      "data": "0x",
      "r": "0x831e745c4d5270b13856b85bccccd2015f1180139f4daa2e505fb9442e569719",
      "s": "0x327959b63227ec0fc7a2bffebd9f05ff19a8eb5f60f99c7b54f4dcebb7399d40",
      "v": 27,
      "creates": null,
      "raw": "0xf86b01850ba43b7400825208940c5ff4b82cdb8963d1d61486d5a31d6559c4526e874e1253f5de4000801ba0831e745c4d5270b13856b85bccccd2015f1180139f4daa2e505fb9442e569719a0327959b63227ec0fc7a2bffebd9f05ff19a8eb5f60f99c7b54f4dcebb7399d40",
      "networkId": 0,
      "chainId": 0
    },
    {
      "hash": "0xaafe7fb8d369ac13f83567ea8b9244e5fa2721c76a50fb54e5117af8a7ae93c7",
      "blockHash": "0xe23718d3e9d9497e58b6ca0edcd45254698b305f3954f98bea10b3e2ed9946bb",
      "blockNumber": 68540,
      "transactionIndex": 2,
      "confirmations": null,
      "from": "0xA2cce932826AE0eCeD5E1a12299764006407460E",
      "gasPrice": {
        "_hex": "0xba43b7400"
      },
      "gasLimit": {
        "_hex": "0x5208"
      },
      "to": "0x86a62584c15Db92D7cD5B91a69bec3F93Bb7AA82",
      "value": {
        "_hex": "0x4e1253f5de4000"
      },
      "nonce": 1,
      "data": "0x",
      "r": "0x48abec51c152fafeea8c4c1347c0e188da4bad3dfcd2c6c160d1776ec3534220",
      "s": "0x6f0966f4b16aa4f72cad3a001b4af7210e64d52bd57d531141471b0ea619c88d",
      "v": 28,
      "creates": null,
      "raw": "0xf86b01850ba43b74008252089486a62584c15db92d7cd5b91a69bec3f93bb7aa82874e1253f5de4000801ca048abec51c152fafeea8c4c1347c0e188da4bad3dfcd2c6c160d1776ec3534220a06f0966f4b16aa4f72cad3a001b4af7210e64d52bd57d531141471b0ea619c88d",
      "networkId": 0,
      "chainId": 0
    },
    {
      "hash": "0x71690e608b052426f3b8f19f1281321207a80b42b232e0ee9f8caf1f305c20d6",
      "blockHash": "0xe23718d3e9d9497e58b6ca0edcd45254698b305f3954f98bea10b3e2ed9946bb",
      "blockNumber": 68540,
      "transactionIndex": 3,
      "confirmations": null,
      "from": "0x4D8231627D1B8139db6C8418ca9E7BE247560a43",
      "gasPrice": {
        "_hex": "0xba43b7400"
      },
      "gasLimit": {
        "_hex": "0x5208"
      },
      "to": "0x84a0b1713D91cD997B3f931aA3a56817CC053EA9",
      "value": {
        "_hex": "0x4e1253f5de4000"
      },
      "nonce": 1,
      "data": "0x",
      "r": "0x78b2b5f49fc607e084dbaa5197b911cca06a179c5fb115cc9b1a2f6876af08ab",
      "s": "0x0adc0c01728b0433fad4638a291d4bebc09c2bcec1f96eb0149d58c701e6c2a3",
      "v": 28,
      "creates": null,
      "raw": "0xf86b01850ba43b74008252089484a0b1713d91cd997b3f931aa3a56817cc053ea9874e1253f5de4000801ca078b2b5f49fc607e084dbaa5197b911cca06a179c5fb115cc9b1a2f6876af08aba00adc0c01728b0433fad4638a291d4bebc09c2bcec1f96eb0149d58c701e6c2a3",
      "networkId": 0,
      "chainId": 0
    }
  ]
}