{
  "hash": "0xf6614a9879151efb354caca3794b42d57e8dc86621103cbb21a1014b35a42d27",
  "parentHash": "0x804d55d9065a93dec7a189a648de1f37f1e53f8ef77b4cb1286daff5c9978a44",
  "number": 106537,
  "timestamp": 1439906055,
  "nonce": "0x84280a43b179952c",
  "difficulty": 4485813784597,
  "gasLimit": {
    "_hex": "0x2fefd8"
  },
  "gasUsed": {
    "_hex": "0x546c"
  },
  "miner": "0xa2037AA76DF2c3F5F04455844f057758fE1FA6B1",
  "extraData": "0x476574682f76312e302e312f6c696e75782f676f312e342e32",
  "transactions": [
    {
      "hash": "0x4ac6ad5149ff1bbb9f85df3187b0b8f7d285a82a65ac6f699fb32a7ee02eebb7",
      "blockHash": "0xf6614a9879151efb354caca3794b42d57e8dc86621103cbb21a1014b35a42d27",
      "blockNumber": 106537,
      "transactionIndex": 0,
      "confirmations": null,
      "from": "0xd0DF24FD0DfcDc3850D1590dAA1D03ca7706b11B",
      "gasPrice": {
        "_hex": "0x117d1d0e7a9"
      },
      "gasLimit": {
        "_hex": "0x55f0"
      },
      "to": "0x2910543Af39abA0Cd09dBb2D50200b3E800A63D2",
      "value": {
        "_hex": "0x874ef557a00f00000"
      },
      "nonce": 10,
      "data": "0x454e364832354d3230",
      "r": "0x5eb968f29fe4df005de586dc6877b1714662d903427bbecd27f952391bcd20f7",
      "s": "0x663ef42043c8d017aa1805fa1a79362bfd60e9d2db00c1e82611d607f8b13033",
      "v": 27,
      "creates": null,
      "raw": "0xf8770a860117d1d0e7a98255f0942910543af39aba0cd09dbb2d50200b3e800a63d2890874ef557a00f0000089454e364832354d32301ba05eb968f29fe4df005de586dc6877b1714662d903427bbecd27f952391bcd20f7a0663ef42043c8d017aa1805fa1a79362bfd60e9d2db00c1e82611d607f8b13033",
      "networkId": 0,
      "chainId": 0
    }
  ]
}