{
  "hash": "0x3a4ed408db5a568d4cd1398edab7811068bd8daf5169aed617319fd385451044",
  "parentHash": "0xd122cd07d5d30f566efeba729facae25688b9040cf55f3c14988fc9a56502e90",
  "number": 47055,
  "timestamp": 1438933682,
  "nonce": "0x5fcc472b6788bc70",
  "difficulty": 1453859261715,
  "gasLimit": {
    "_hex": "0x9382"
  },
  "gasUsed": {
    "_hex": "0x5208"
  },
  "miner": "0xBb12b5a9B85D4AB8CDE6056E9c1b2a4a337D2261",
  "extraData": "0x476574682f76312e302e312d36393865393864392f6c696e75782f676f312e34",
  "transactions": [
    {
      "hash": "0xa9b3151d2201b14bc4e2a34d94c3139bc76a4a0ea2895e8bd7ce6547f839cb48",
      "blockHash": "0x3a4ed408db5a568d4cd1398edab7811068bd8daf5169aed617319fd385451044",
      "blockNumber": 47055,
      "transactionIndex": 0,
      "confirmations": null,
      "from": "0xe6A7a1d47ff21B6321162AEA7C6CB457D5476Bca",
      "gasPrice": {
        "_hex": "0xd8f099759"
      },
      "gasLimit": {
        "_hex": "0x5208"
      },
      "to": "0x033724EB6FBB715DDE73dD94f5ab95cf06528cb9",
      "value": {
        "_hex": "0x1fac31804b083c5c"
      },
      "nonce": 36,
      "data": "0x",
      "r": "0x330f2ecbefe9e3efd8004bcca5a5bed5fa000b1ce0f08bdc2aaa8e6ef160bdc7",
      "s": "0x07ab184965ceaa93139d39c23507802eef596be15cb83ba31e98cc57d87043f9",
      "v": 28,
      "creates": null,
      "raw": "0xf86c24850d8f09975982520894033724eb6fbb715dde73dd94f5ab95cf06528cb9881fac31804b083c5c801ca0330f2ecbefe9e3efd8004bcca5a5bed5fa000b1ce0f08bdc2aaa8e6ef160bdc7a007ab184965ceaa93139d39c23507802eef596be15cb83ba31e98cc57d87043f9",
      "networkId": 0,
      "chainId": 0
    }
  ]
}