{
  "hash": "0xc0366ea4c54e5c6d3fe350b285e2e7e204ff8eb212a79a5010d960f960fcce18",
  "parentHash": "0xff61f320cacd4b8b83e39568241edea2b1ce1450e38cb07a74419d6c1d573841",
  "number": 84988,
  "timestamp": 1439557033,
  "nonce": "0x2d90d1d8348a8193",
  "difficulty": 2718474174269,
  "gasLimit": {
    "_hex": "0x2fefd8"
  },
  "gasUsed": {
    "_hex": "0xa410"
  },
  "miner": "0xa6BDc31c431B8F97848c9D60cbbe9660dc450eB7",
  "extraData": "0x",
  "transactions": [
    {
      "hash": "0xcc5e6de78cd987692162ce8f8e19637dda5ccfdb0c43c85aa3bb59f70acfbc34",
      "blockHash": "0xc0366ea4c54e5c6d3fe350b285e2e7e204ff8eb212a79a5010d960f960fcce18",
      "blockNumber": 84988,
      "transactionIndex": 0,
      "confirmations": null,
      "from": "0x056507108FE6d30189EcCD6cd7F4Fad56eEef622",
      "gasPrice": {
        "_hex": "0xdca21c32b"
      },
      "gasLimit": {
        "_hex": "0x15f90"
      },
      "to": "0x4E61B2316C9A92a4F5F078A71f2E78f1e2208F34",
      "value": {
        "_hex": "0x1cb677a813b778f5"
      },
      "nonce": 4,
      "data": "0x",
      "r": "0x8cd57a57f59d0bc46b7548e2e0aad19407cc082b832a2cba36b5c131a5efbbe7",
      "s": "0x584b44c25e3aee8dd8ba59f0b1b2b485185938622639b8f0ba2f2e2d66f6aaee",
      "v": 28,
      "creates": null,
      "raw": "0xf86d04850dca21c32b83015f90944e61b2316c9a92a4f5f078a71f2e78f1e2208f34881cb677a813b778f5801ca08cd57a57f59d0bc46b7548e2e0aad19407cc082b832a2cba36b5c131a5efbbe7a0584b44c25e3aee8dd8ba59f0b1b2b485185938622639b8f0ba2f2e2d66f6aaee",
      "networkId": 0,
      "chainId": 0
    },
    {
      "hash": "0x6167d44c5864f78cc8e64a013dac937759aff93692483ad48f32a792c575e8f1",
      "blockHash": "0xc0366ea4c54e5c6d3fe350b285e2e7e204ff8eb212a79a5010d960f960fcce18",
      "blockNumber": 84988,
      "transactionIndex": 1,
      "confirmations": null,
      "from": "0x120A270bbC009644e35F0bB6ab13f95b8199c4ad",
      "gasPrice": {
        "_hex": "0xdabf94fc3"
      },
      "gasLimit": {
        "_hex": "0x3d090"
      },
      "to": "0xE482d255EDE56B04c3E8dF151F56e9ca62aAA8C2",
      "value": {
        "_hex": "0x324e964b3eca80000"
      },
      "nonce": 440,
      "data": "0x",
      "r": "0x7d50cdf7b6ce2dea95586901d5b03f631430d6b34184a8ac1b4219187436eff4",
      "s": "0x1fabd011113b86ceccfb78ac7ce2da9da97915406079463943e623e10bac0459",
      "v": 28,
      "creates": null,
      "raw": "0xf8708201b8850dabf94fc38303d09094e482d255ede56b04c3e8df151f56e9ca62aaa8c2890324e964b3eca80000801ca07d50cdf7b6ce2dea95586901d5b03f631430d6b34184a8ac1b4219187436eff4a01fabd011113b86ceccfb78ac7ce2da9da97915406079463943e623e10bac0459",
      "networkId": 0,
      "chainId": 0
    }
  ]
}