{
  "hash": "0xf14fbc69206df1fddfed4e8d097cb87d9523fa0aeff3febfed74e4fe0f8734dc",
  "parentHash": "0xbed63543b2aaeee9f6f90abd35919e94102b98906b2ceec979ee409c4650f065",
  "number": 103221,
  "timestamp": 1439849707,
  "nonce": "0x75c5826bd5df6eb5",
  "difficulty": 4191069041339,
  "gasLimit": {
    "_hex": "0x2fefd8"
  },
  "gasUsed": {
    "_hex": "0x5208"
  },
  "miner": "0xe6A7a1d47ff21B6321162AEA7C6CB457D5476Bca",
  "extraData": "0x476574682f76312e302e312d38326566323666362f6c696e75782f676f312e34",
  "transactions": [
    {
      "hash": "0xba81a3539295f5b61fcbcc6430f5adcf58d09647004df311346ffbc61e3a9c00",
      "blockHash": "0xf14fbc69206df1fddfed4e8d097cb87d9523fa0aeff3febfed74e4fe0f8734dc",
      "blockNumber": 103221,
      "transactionIndex": 0,
      "confirmations": null,
      "from": "0xC47Aaa860008be6f65B58c6C6E02a84e666EfE31",
      "gasPrice": {
        "_hex": "0xdc9e2efea"
      },
      "gasLimit": {
        "_hex": "0x15f90"
      },
      "to": "0x0fE84fde8E193116965DeC7CBDadA0E886536650",
      "value": {
        "_hex": "0x11578f5113728ff1d"
      },
      "nonce": 74,
      "data": "0x",
      "r": "0x0a2414df04a5e3a6c38550c679d2d5b69b333d1b31523b048a55c255104ec4d2",
      "s": "0x286e14ccb46a8ee30385b78914db00ca887246188b8cbdd899ea41a347b62139",
      "v": 28,
      "creates": null,
      "raw": "0xf86e4a850dc9e2efea83015f90940fe84fde8e193116965dec7cbdada0e88653665089011578f5113728ff1d801ca00a2414df04a5e3a6c38550c679d2d5b69b333d1b31523b048a55c255104ec4d2a0286e14ccb46a8ee30385b78914db00ca887246188b8cbdd899ea41a347b62139",
      "networkId": 0,
      "chainId": 0
    }
  ]
}