{
  "hash": "0x51cb84e880e895bb0174b44bd1c8c1605fed1e9286ae16707099df1ce956c3db",
  "parentHash": "0x1a7b433ea3e0f72289059f0422b3a71e2f253a42b657f1fa131ee4b94a129ba6",
  "number": 56268,
  "timestamp": 1439084580,
  "nonce": "0x3f11637ec8f64dca",
  "difficulty": 1649652602078,
  "gasLimit": {
    "_hex": "0x2fe3de"
  },
  "gasUsed": {
    "_hex": "0xddfd"
  },
  "miner": "0x70C6b45fe0A5116E97B112B806A76E2F51E24413",
  "extraData": "0x476574682f76312e302e302f77696e646f77732f676f312e342e32",
  "transactions": [
    {
      "hash": "0xd7a38db7400ab0518cf6535d7dcc5f9f8a72cc254eaadaace58a4068ea314037",
      "blockHash": "0x51cb84e880e895bb0174b44bd1c8c1605fed1e9286ae16707099df1ce956c3db",
      "blockNumber": 56268,
      "transactionIndex": 0,
      "confirmations": null,
      "from": "0x586c9f00191c01babA71993c5a6d6eE02905816d",
      "gasPrice": {
        "_hex": "0x10aa73bf986"
      },
      "gasLimit": {
        "_hex": "0x7a120"
      },
      "to": "0xA327075af2a223A1C83a36aDa1126afE7430f955",
      "value": {
        "_hex": "0x8ac7230489e80000"
      },
      "nonce": 2,
      "data": "0x",
      "r": "0x23318289da6327eb38dfc5bd2afb923196032af44583fd9a22fc0942488cfd04",
      "s": "0x2979452a7bc297acc7e771db807260affdfd0b70d64edc21f824964253fc4a2c",
      "v": 27,
      "creates": null,
      "raw": "0xf86e0286010aa73bf9868307a12094a327075af2a223a1c83a36ada1126afe7430f955888ac7230489e80000801ba023318289da6327eb38dfc5bd2afb923196032af44583fd9a22fc0942488cfd04a02979452a7bc297acc7e771db807260affdfd0b70d64edc21f824964253fc4a2c",
      "networkId": 0,
      "chainId": 0
    }
  ]
}