{
  "hash": "0xf1265a5aeba54cc624a2b893631b33a87ab5696713165747fa26eee6f2d2e5a1",
  "parentHash": "0xb163809348c1217dba700a74b71b00b75fa78ec54522e80ea3e742bb1271abb9",
  "number": 82037,
  "timestamp": 1439512390,
  "nonce": "0x87bb4a9bb782c9ce",
  "difficulty": 2401061222403,
  "gasLimit": {
    "_hex": "0x2fefd8"
  },
  "gasUsed": {
    "_hex": "0x1c036"
  },
  "miner": "0xF2d2AfF1320476cb8C6b607199D23175cc595693",
  "extraData": "0x476574682f76312e302e312f77696e646f77732f676f312e342e32",
  "transactions": [
    {
      "hash": "0x865668165bb5d09028d6ee56c4a44ab9ace375c7424df293d849fbf3069f59d1",
      "blockHash": "0xf1265a5aeba54cc624a2b893631b33a87ab5696713165747fa26eee6f2d2e5a1",
      "blockNumber": 82037,
      "transactionIndex": 0,
      "confirmations": null,
      "from": "0x2905726Ed11131A984ce9C0119cB32DBC99dE90B",
      "gasPrice": {
        "_hex": "0x117ffef9ce8"
      },
      "gasLimit": {
        "_hex": "0x493e0"
      },
      "to": "0x35E57F2b08596f1946ECD9D31975eC3c2D7e1C1D",
      "value": {
        "_hex": "0x16345785d8a0000"
      },
      "nonce": 29,
      "data": "0xe2543d1c0000000000000000000000000000000000000000000000000000000000000000",
      "r": "0x8ab681c1586d6a76d9ad612b2dcaa748f09a38f901d7abe15e17fb5fb125d01d",
      "s": "0x5d06fa881cc6c3c7f6f0bae3d820b2f45b4490fe54f777220c4023477f1823de",
      "v": 27,
      "creates": null,
      "raw": "0xf8921d860117ffef9ce8830493e09435e57f2b08596f1946ecd9d31975ec3c2d7e1c1d88016345785d8a0000a4e2543d1c00000000000000000000000000000000000000000000000000000000000000001ba08ab681c1586d6a76d9ad612b2dcaa748f09a38f901d7abe15e17fb5fb125d01da05d06fa881cc6c3c7f6f0bae3d820b2f45b4490fe54f777220c4023477f1823de",
      "networkId": 0,
      "chainId": 0
    },
    {
      "hash": "0x89dfe478009bd364544cbe3fa985139bd0252735a007f2dfdeaa5de6645a7187",
      "blockHash": "0xf1265a5aeba54cc624a2b893631b33a87ab5696713165747fa26eee6f2d2e5a1",
      "blockNumber": 82037,
      "transactionIndex": 1,
      "confirmations": null,
      "from": "0xC0A02ab94Ebe56D045B41B629b98462e3a024A93",
      "gasPrice": {
        "_hex": "0x110c8f7d8de"
      },
      "gasLimit": {
        "_hex": "0xc350"
      },
      "to": "0x2910543Af39abA0Cd09dBb2D50200b3E800A63D2",
      "value": {
        "_hex": "0xde0b6b3a7640000"
      },
      "nonce": 0,
      "data": "0x454e54573057474647",
      "r": "0x52f6a814fdfddc00c9abeae5b39a33b4558c4d26671a777fca12e8128ac40e4a",
      "s": "0x9733ffb431f4a52a10e236056bcac1f0f69262344fd41ff2ad1bc63465a83965",
      "v": 28,
      "creates": null,
      "raw": "0xf87680860110c8f7d8de82c350942910543af39aba0cd09dbb2d50200b3e800a63d2880de0b6b3a764000089454e545730574746471ca052f6a814fdfddc00c9abeae5b39a33b4558c4d26671a777fca12e8128ac40e4aa09733ffb431f4a52a10e236056bcac1f0f69262344fd41ff2ad1bc63465a83965",
      "networkId": 0,
      "chainId": 0
    }
  ]
}