{
  "hash": "0xd9e13d8427875ac83dfefe53cca5a389e950b7c521378d88d8d40f6efdcbe4f5",
  "parentHash": "0xa8c377c7d74952ada0dd74fa85716bd15e523612db79ce3f2450f91409aad63a",
  "number": 101246,
  "timestamp": 1439819794,
  "nonce": "0x9e206c93d71ae921",
  "difficulty": 3818774481411,
  "gasLimit": {
    "_hex": "0x2fefd8"
  },
  "gasUsed": {
    "_hex": "0x5208"
  },
  "miner": "0xeB1325C8D9d3ea8D74aC11F4B00F1B2367686319",
  "extraData": "0x",
  "transactions": [
    {
      "hash": "0x75499e193e29afb7228a3b8ff00c5179cf9091d8544d3a6d631c4ba2744f0ce2",
      "blockHash": "0xd9e13d8427875ac83dfefe53cca5a389e950b7c521378d88d8d40f6efdcbe4f5",
      "blockNumber": 101246,
      "transactionIndex": 0,
      "confirmations": null,
      "from": "0xcA8f4Fb1A28593337AeE456Acc76ABD4C3c83257",
      "gasPrice": {
        "_hex": "0xba43b7400"
      },
      "gasLimit": {
        "_hex": "0x5267"
      },
      "to": "0xf357482c5A92C7B2Cee6a157034362b7d7d88c5A",
      "value": {
        "_hex": "0x2135a4d243828000"
      },
      "nonce": 4,
      "data": "0x",
      "r": "0xc12e0ca643f0651d43fe349ab444ae8dd7744fa336364e07a8db13c1315eb83f",
      "s": "0xe65380bb865e78ef75edd21b71fb15bac1d974010592eb1c19bc53ff002a41a8",
      "v": 28,
      "creates": null,
      "raw": "0xf86c04850ba43b740082526794f357482c5a92c7b2cee6a157034362b7d7d88c5a882135a4d243828000801ca0c12e0ca643f0651d43fe349ab444ae8dd7744fa336364e07a8db13c1315eb83fa0e65380bb865e78ef75edd21b71fb15bac1d974010592eb1c19bc53ff002a41a8",
      "networkId": 0,
      "chainId": 0
    }
  ]
}