{
  "hash": "0x9bb2ad1d1169f13c3cd1fbaff147162e43369be74286f1d241a704c5f3c15f2f",
  "parentHash": "0xd2c71a19fd8360e175bc8c82531224b31f9a71ba8584e602141d99977f197b6d",
  "number": 83368,
  "timestamp": 1439534302,
  "nonce": "0x822c718abce1bc96",
  "difficulty": 2425423273918,
  "gasLimit": {
    "_hex": "0x2fefd5"
  },
  "gasUsed": {
    "_hex": "0xa410"
  },
  "miner": "0xC603Ab5ef41fC61AA8b76bEddb09e3Cfcbb174BD",
  "extraData": "0x476574682f76312e302e312f77696e646f77732f676f312e342e32",
  "transactions": [
    {
      "hash": "0x8d18ca42e80e17487eb5cb3233b8a087a96ee745312a87f5917c45f6220009d9",
      "blockHash": "0x9bb2ad1d1169f13c3cd1fbaff147162e43369be74286f1d241a704c5f3c15f2f",
      "blockNumber": 83368,
      "transactionIndex": 0,
      "confirmations": null,
      "from": "0x47357D6E417202fbeDc4d1D514976b6782880348",
      "gasPrice": {
        "_hex": "0xd2a88c2c8"
      },
      "gasLimit": {
        "_hex": "0x15f90"
      },
      "to": "0xf75d01779474F6B5261d34aA7b5b868204635199",
      "value": {
        "_hex": "0xb1a2bc2ec50000"
      },
      "nonce": 1,
      "data": "0x",
      "r": "0x8a0bdeee55b9886cbc6e3679a3154b8aecf31a0201db859c681549ef5a52ebbb",
      "s": "0x073f7c2ef1a786286a9ce15810ba66b0252cc7859155d9a6511df713a0150b7a",
      "v": 28,
      "creates": null,
      "raw": "0xf86c01850d2a88c2c883015f9094f75d01779474f6b5261d34aa7b5b86820463519987b1a2bc2ec50000801ca08a0bdeee55b9886cbc6e3679a3154b8aecf31a0201db859c681549ef5a52ebbba0073f7c2ef1a786286a9ce15810ba66b0252cc7859155d9a6511df713a0150b7a",
      "networkId": 0,
      "chainId": 0
    },
    {
      "hash": "0x4515780a4968e7dd1b6ac8c2727ebfff9546d34623123abe5672bcf22a061898",
      "blockHash": "0x9bb2ad1d1169f13c3cd1fbaff147162e43369be74286f1d241a704c5f3c15f2f",
      "blockNumber": 83368,
      "transactionIndex": 1,
      "confirmations": null,
      "from": "0xfd4B989558AE11Be0c3b36E2d6f2A54a9343ca2E",
      "gasPrice": {
        "_hex": "0xcd01555c5"
      },
      "gasLimit": {
        "_hex": "0x15f90"
      },
      "to": "0x9ecD1Bc07d16eb926077282970FA5240cc983F25",
      "value": {
        "_hex": "0xde0b6b3a7640000"
      },
      "nonce": 0,
      "data": "0x",
      "r": "0xb22f90848bef390bb786bb7d530869fd2f0098468f51b220ca3e3ed56fcbcd7b",
      "s": "0x7f8b32073de6af9615bac2707db965dc00157e59e74feae0c022facd0711c0d7",
      "v": 27,
      "creates": null,
      "raw": "0xf86d80850cd01555c583015f90949ecd1bc07d16eb926077282970fa5240cc983f25880de0b6b3a7640000801ba0b22f90848bef390bb786bb7d530869fd2f0098468f51b220ca3e3ed56fcbcd7ba07f8b32073de6af9615bac2707db965dc00157e59e74feae0c022facd0711c0d7",
      "networkId": 0,
      "chainId": 0
    }
  ]
}