{
  "hash": "0xf344d853b540de86171c0a1d65cc286f272e28ca39fb58015a05b2280f6b6a14",
  "parentHash": "0x314b6e132ea0ac6c23b97f9ec3d9315d06056ee8ec4ebef22a89c64a37a9e401",
  "number": 99325,
  "timestamp": 1439788120,
  "nonce": "0x16db01662b352d12",
  "difficulty": 3795480053201,
  "gasLimit": {
    "_hex": "0x2fefd8"
  },
  "gasUsed": {
    "_hex": "0xa410"
  },
  "miner": "0xC603Ab5ef41fC61AA8b76bEddb09e3Cfcbb174BD",
  "extraData": "0x476574682f76312e302e312f77696e646f77732f676f312e342e32",
  "transactions": [
    {
      "hash": "0x879ac252339683b459dc5e80c335100b00271080e91604a4f82fe0185bfd547b",
      "blockHash": "0xf344d853b540de86171c0a1d65cc286f272e28ca39fb58015a05b2280f6b6a14",
      "blockNumber": 99325,
      "transactionIndex": 0,
      "confirmations": null,
      "from": "0xA10C59651885FeAaac91F871082a23BBbaBeDfCf",
      "gasPrice": {
        "_hex": "0x106dfc77d64"
      },
      "gasLimit": {
        "_hex": "0x5208"
      },
      "to": "0x4c74B6F32c9680aCB5Fe0e72B7Aa95C612540A04",
      "value": {
        "_hex": "0x107ad8f556c6c0000"
      },
      "nonce": 36,
      "data": "0x",
      "r": "0xff7ece08543833240aa95089c5add554112b8b811e4949050af8ca969915bdff",
      "s": "0x3eed2615dd583210db9df0305f56c8770e4abedde72fd75c86626635dc5f8e17",
      "v": 28,
      "creates": null,
      "raw": "0xf86e24860106dfc77d64825208944c74b6f32c9680acb5fe0e72b7aa95c612540a04890107ad8f556c6c0000801ca0ff7ece08543833240aa95089c5add554112b8b811e4949050af8ca969915bdffa03eed2615dd583210db9df0305f56c8770e4abedde72fd75c86626635dc5f8e17",
      "networkId": 0,
      "chainId": 0
    },
    {
      "hash": "0xda9eed0d3a23eabafe4574477ea2716d3f047be08d7069ecc0dcfa577f52338b",
      "blockHash": "0xf344d853b540de86171c0a1d65cc286f272e28ca39fb58015a05b2280f6b6a14",
      "blockNumber": 99325,
      "transactionIndex": 1,
      "confirmations": null,
      "from": "0x790b8a3cE86E707ED0eD32bF89B3269692a23CC1",
      "gasPrice": {
        "_hex": "0xdd1889c57"
      },
      "gasLimit": {
        "_hex": "0x15f90"
      },
      "to": "0x4D67f4F0Db45b3B5a3424B39ed8d972F710381D5",
      "value": {
        "_hex": "0x384ab1e2522da0000"
      },
      "nonce": 22,
      "data": "0x",
      "r": "0xe7aaf1a7509e86ddcbbf6a445b1aa121f16e2dc9eb68a04444fd62cfa0d013bd",
      "s": "0x52c0fd662db535b91dc48852aec36e3af3e76ec680134e377286669da16924d1",
      "v": 27,
      "creates": null,
      "raw": "0xf86e16850dd1889c5783015f90944d67f4f0db45b3b5a3424b39ed8d972f710381d5890384ab1e2522da0000801ba0e7aaf1a7509e86ddcbbf6a445b1aa121f16e2dc9eb68a04444fd62cfa0d013bda052c0fd662db535b91dc48852aec36e3af3e76ec680134e377286669da16924d1",
      "networkId": 0,
      "chainId": 0
    }
  ]
}