{
  "hash": "0x789a5e544003dec89be9d9bf1be90ae840c6a7d60e81b8f04a1bd2938b3504f3",
  "parentHash": "0x862d637a124cce386515c1c8a1dc7e621be06ec461381fa7b5b510ba673cd2ef",
  "number": 70817,
  "timestamp": 1439325970,
  "nonce": "0x4c66f2de9b773444",
  "difficulty": 2144680354752,
  "gasLimit": {
    "_hex": "0x2fefd8"
  },
  "gasUsed": {
    "_hex": "0x5208"
  },
  "miner": "0xbb7B8287f3F0a933474a79eAe42CBCa977791171",
  "extraData": "0x476574682f4c5649562f76312e302e312f6c696e75782f676f312e342e32",
  "transactions": [
    {
      "hash": "0x786e9457dea394d245ce4344a52bf715d2f02fda76d2149c8edf317bfc4e739e",
      "blockHash": "0x789a5e544003dec89be9d9bf1be90ae840c6a7d60e81b8f04a1bd2938b3504f3",
      "blockNumber": 70817,
      "transactionIndex": 0,
      "confirmations": null,
      "from": "0xF78645Ea06d743C6B52a11EB3f3d486bbb4Cf01F",
      "gasPrice": {
        "_hex": "0xd44d9b211"
      },
      "gasLimit": {
        "_hex": "0x15f90"
      },
      "to": "0x6A8CC233E14F874983bB2F37D1DE706f6910Ef0b",
      "value": {
        "_hex": "0x1bc16d674ec80000"
      },
      "nonce": 0,
      "data": "0x",
      "r": "0x61f58028179e9784161110b342aa19a5c1c950623f2539c011a539530e6a18aa",
      "s": "0x30bf58d53abfa8b5504a7165633cb98f1110f6da8e5476a70dfb8576f6e16af8",
      "v": 28,
      "creates": null,
      "raw": "0xf86d80850d44d9b21183015f90946a8cc233e14f874983bb2f37d1de706f6910ef0b881bc16d674ec80000801ca061f58028179e9784161110b342aa19a5c1c950623f2539c011a539530e6a18aaa030bf58d53abfa8b5504a7165633cb98f1110f6da8e5476a70dfb8576f6e16af8",
      "networkId": 0,
      "chainId": 0
    }
  ]
}