{
  "hash": "0xbdbc45c55b6fa6e1b07d9cf8f3f974e0362036e1446e6849f5e62fe4f8e0a123",
  "parentHash": "0xe2b52c3865828a143e50eab6abc4ead13f500ebbf205a460df2099429b215b02",
  "number": 65982,
  "timestamp": 1439246378,
  "nonce": "0xefb6d9562c51af4b",
  "difficulty": 1951019483888,
  "gasLimit": {
    "_hex": "0x2fefd8"
  },
  "gasUsed": {
    "_hex": "0xa410"
  },
  "miner": "0xbb7B8287f3F0a933474a79eAe42CBCa977791171",
  "extraData": "0x476574682f4c5649562f76312e302e312f6c696e75782f676f312e342e32",
  "transactions": [
    {
      "hash": "0x99476ad211185185b7eeb256f42f81d51dcc614e7f78b15077dcb5abec963a24",
      "blockHash": "0xbdbc45c55b6fa6e1b07d9cf8f3f974e0362036e1446e6849f5e62fe4f8e0a123",
      "blockNumber": 65982,
      "transactionIndex": 0,
      "confirmations": null,
      "from": "0x120A270bbC009644e35F0bB6ab13f95b8199c4ad",
      "gasPrice": {
        "_hex": "0xd0245d743"
      },
      "gasLimit": {
        "_hex": "0x15f90"
      },
      "to": "0xc83B0620a11598d85b0c9957aCD445A4C52D5d15",
      "value": {
        "_hex": "0x1ea0f33a806fb40000"
      },
      "nonce": 139,
      "data": "0x",
      "r": "0x6b073ca988aa3f03dbd64df44701e604a1c94cb414bb51921f0f736d6f113bab",
      "s": "0x15f1c4a869f557418dd6b2a57beea18970e4cda54af3f6a87fa0fbf19342f0fd",
      "v": 27,
      "creates": null,
      "raw": "0xf86f818b850d0245d74383015f9094c83b0620a11598d85b0c9957acd445a4c52d5d15891ea0f33a806fb40000801ba06b073ca988aa3f03dbd64df44701e604a1c94cb414bb51921f0f736d6f113baba015f1c4a869f557418dd6b2a57beea18970e4cda54af3f6a87fa0fbf19342f0fd",
      "networkId": 0,
      "chainId": 0
    },
    {
      "hash": "0xb0ef4336c10505677df0fd048dbe174424f3b44a3ac61871bbf04fd87aef147f",
      "blockHash": "0xbdbc45c55b6fa6e1b07d9cf8f3f974e0362036e1446e6849f5e62fe4f8e0a123",
      "blockNumber": 65982,
      "transactionIndex": 1,
      "confirmations": null,
      "from": "0x120A270bbC009644e35F0bB6ab13f95b8199c4ad",
      "gasPrice": {
        "_hex": "0xd0245d743"
      },
      "gasLimit": {
        "_hex": "0x15f90"
      },
      "to": "0x17F42462fC8CAee83D43cEa1F8eD3b3351fC6891",
      "value": {
        "_hex": "0x1f4c3974486f02000"
      },
      "nonce": 140,
      "data": "0x",
      "r": "0x653c16b960b28c8ba8427742a283dbb56e218653d4eab6033eb83de97dc0e730",
      "s": "0x75ddcd8b97b6118d023a63ed6474297203769e0275ee418cf4144efea2890f1b",
      "v": 27,
      "creates": null,
      "raw": "0xf86f818c850d0245d74383015f909417f42462fc8caee83d43cea1f8ed3b3351fc68918901f4c3974486f02000801ba0653c16b960b28c8ba8427742a283dbb56e218653d4eab6033eb83de97dc0e730a075ddcd8b97b6118d023a63ed6474297203769e0275ee418cf4144efea2890f1b",
      "networkId": 0,
      "chainId": 0
    }
  ]
}