{
  "hash": "0xa1ea4dc44c563d4602e522ef432469d39f211de608750be6e282a7478f0c57d2",
  "parentHash": "0xaae4ac311ef9d6bc6a83cfc60f2656fceefd01a3867e2ee0a491a595f0b14b54",
  "number": 112707,
  "timestamp": 1440011818,
  "nonce": "0x3df8382397e2c57a",
  "difficulty": 4425968346929,
  "gasLimit": {
    "_hex": "0x2fefd8"
  },
  "gasUsed": {
    "_hex": "0x5208"
  },
  "miner": "0xe6A7a1d47ff21B6321162AEA7C6CB457D5476Bca",
  "extraData": "0x476574682f76312e302e312d38326566323666362f6c696e75782f676f312e34",
  "transactions": [
    {
      "hash": "0x565b91d3b337bf0a7b09ce1ae149169ecb56e68e9fe5d1afd3d9343afd3cb2c6",
      "blockHash": "0xa1ea4dc44c563d4602e522ef432469d39f211de608750be6e282a7478f0c57d2",
      "blockNumber": 112707,
      "transactionIndex": 0,
      "confirmations": null,
      "from": "0x771b12Bc207A1c4823e77075B17F8D329ACD77A3",
      "gasPrice": {
        "_hex": "0xdf6f0c802"
      },
      "gasLimit": {
        "_hex": "0x5208"
      },
      "to": "0x32Be343B94f860124dC4fEe278FDCBD38C102D88",
      "value": {
        "_hex": "0xa6e6a121747f9800"
      },
      "nonce": 10,
      "data": "0x",
      "r": "0xbce0dd358443106548cc9193b43e7bde7b34fcc601c92c0ee86b4ab2a3172eaf",
      "s": "0x044bbc3fd48492d01d37d23d64613b6ed2f98e25317fdf5ff86d5cc6df128528",
      "v": 28,
      "creates": null,
      "raw": "0xf86c0a850df6f0c8028252089432be343b94f860124dc4fee278fdcbd38c102d8888a6e6a121747f9800801ca0bce0dd358443106548cc9193b43e7bde7b34fcc601c92c0ee86b4ab2a3172eafa0044bbc3fd48492d01d37d23d64613b6ed2f98e25317fdf5ff86d5cc6df128528",
      "networkId": 0,
      "chainId": 0
    }
  ]
}