{
  "hash": "0x3f828527bd7a3c310071a687a9c53696c5e8677ad4ee3d2111a18548ebaf2d6a",
  "parentHash": "0x3ab4c79ad2868c794d61b81b6824823ead013648c443be7a8a63aad4b06d3ecd",
  "number": 63727,
  "timestamp": 1439209194,
  "nonce": "0xdb976251f5d20749",
  "difficulty": 1843179287922,
  "gasLimit": {
    "_hex": "0x2fefd5"
  },
  "gasUsed": {
    "_hex": "0x5208"
  },
  "miner": "0xbb7B8287f3F0a933474a79eAe42CBCa977791171",
  "extraData": "0x476574682f4c5649562f76312e302e312f6c696e75782f676f312e342e32",
  "transactions": [
    {
      "hash": "0x6bf897fbab1853d2b852b53ee4e152a70e1b8159bb4ae8187273a7b25520a024",
      "blockHash": "0x3f828527bd7a3c310071a687a9c53696c5e8677ad4ee3d2111a18548ebaf2d6a",
      "blockNumber": 63727,
      "transactionIndex": 0,
      "confirmations": null,
      "from": "0x2910543Af39abA0Cd09dBb2D50200b3E800A63D2",
      "gasPrice": {
        "_hex": "0xd0410d15a"
      },
      "gasLimit": {
        "_hex": "0x5208"
      },
      "to": "0x5edeF194D1fB66CDeB5ca06baC41be4f3E2D0BE2",
      "value": {
        "_hex": "0x4f1a1efb75a29d8000"
      },
      "nonce": 136,
      "data": "0x",
      "r": "0x4439e07a679d6be9c0d4aeae05e26cd72891dfe985864976b746ecaba761e54d",
      "s": "0x59133d7eb8e53e4ce880a43b6e224b333ff97d1c13765ab443aac48eeb608cec",
      "v": 28,
      "creates": null,
      "raw": "0xf86e8188850d0410d15a825208945edef194d1fb66cdeb5ca06bac41be4f3e2d0be2894f1a1efb75a29d8000801ca04439e07a679d6be9c0d4aeae05e26cd72891dfe985864976b746ecaba761e54da059133d7eb8e53e4ce880a43b6e224b333ff97d1c13765ab443aac48eeb608cec",
      "networkId": 0,
      "chainId": 0
    }
  ]
}