{
  "hash": "0xf8660e97eb795965abeb40b5909741f5d338f3bd2c9287a481fcd7c5b8ea40fa",
  "parentHash": "0x8e3c5aca50d8dfd514419fdf64a964cb482ddf73b8424a18fda460fd6cb5e438",
  "number": 107153,
  "timestamp": 1439917104,
  "nonce": "0xa3863d9ce695c645",
  "difficulty": 4459279101354,
  "gasLimit": {
    "_hex": "0x2fefd8"
  },
  "gasUsed": {
    "_hex": "0xa410"
  },
  "miner": "0x0037ce3d4B7f8729C8607D8D0248252Be68202c0",
  "extraData": "0x476574682f76312e302e312f77696e646f77732f676f312e342e32",
  "transactions": [
    {
      "hash": "0x0ba2f7f60fd5e38a64e54fe6c7f9604f0e3a45b6b8cfec601df7d665a4c651d3",
      "blockHash": "0xf8660e97eb795965abeb40b5909741f5d338f3bd2c9287a481fcd7c5b8ea40fa",
      "blockNumber": 107153,
      "transactionIndex": 0,
      "confirmations": null,
      "from": "0x0b1Ee07Fd94bF8e4e45Bb6724d3B56B099210362",
      "gasPrice": {
        "_hex": "0xdcfb53021"
      },
      "gasLimit": {
        "_hex": "0x5208"
      },
      "to": "0x32Be343B94f860124dC4fEe278FDCBD38C102D88",
      "value": {
        "_hex": "0x8ac2b60d13dcf000"
      },
      "nonce": 0,
      "data": "0x",
      "r": "0xdb04fc1c4418d0ac1dd68157e78aa4d91277bb316ea180915e5d8882d718e7d6",
      "s": "0x5a105e1c04e71948df74a317d43f8571ed2705029fff3f7c6158184895a05a67",
      "v": 27,
      "creates": null,
      "raw": "0xf86c80850dcfb530218252089432be343b94f860124dc4fee278fdcbd38c102d88888ac2b60d13dcf000801ba0db04fc1c4418d0ac1dd68157e78aa4d91277bb316ea180915e5d8882d718e7d6a05a105e1c04e71948df74a317d43f8571ed2705029fff3f7c6158184895a05a67",
      "networkId": 0,
      "chainId": 0
    },
    {
      "hash": "0x3191ddc7556342557b6eb9b048cfedc8bbefba8ba60f4e2f00e8b7ff4f9a2c47",
      "blockHash": "0xf8660e97eb795965abeb40b5909741f5d338f3bd2c9287a481fcd7c5b8ea40fa",
      "blockNumber": 107153,
      "transactionIndex": 1,
      "confirmations": null,
      "from": "0xD5bf64B3B17Fb895536953EfE17578a8b7b16880",
      "gasPrice": {
        "_hex": "0xdcfb53021"
      },
      "gasLimit": {
        "_hex": "0x5208"
      },
      "to": "0x32Be343B94f860124dC4fEe278FDCBD38C102D88",
      "value": {
        "_hex": "0x56bc2e624607e0000"
      },
      "nonce": 5,
      "data": "0x",
      "r": "0xa2af1fec6c43370c22b708d1f601f7395aef956b402ef695b026d9dfa5a8996b",
      "s": "0x589476964ccd4b522b503b1cd51bf083a2d2c8c48ef9feb9d853828501f824cb",
      "v": 28,
      "creates": null,
      "raw": "0xf86d05850dcfb530218252089432be343b94f860124dc4fee278fdcbd38c102d8889056bc2e624607e0000801ca0a2af1fec6c43370c22b708d1f601f7395aef956b402ef695b026d9dfa5a8996ba0589476964ccd4b522b503b1cd51bf083a2d2c8c48ef9feb9d853828501f824cb",
      "networkId": 0,
      "chainId": 0
    }
  ]
}