{
  "hash": "0x43dca59f3e441dc57271eeda93056d3b226aff4ef7d8a631ec1bbb434efa119b",
  "parentHash": "0xe795db933b22613c02913ec95e5df9e37fe685db5fe6b4c4029e564de3632491",
  "number": 95279,
  "timestamp": 1439721741,
  "nonce": "0x3a436c63b96ea759",
  "difficulty": 3556808049081,
  "gasLimit": {
    "_hex": "0x2fefd8"
  },
  "gasUsed": {
    "_hex": "0xf618"
  },
  "miner": "0xe6A7a1d47ff21B6321162AEA7C6CB457D5476Bca",
  "extraData": "0x476574682f76312e302e312d38326566323666362f6c696e75782f676f312e34",
  "transactions": [
    {
      "hash": "0x5ed29b8720202083376bc7b990dcfc205807e4eafcfd7b782da516728d669c2a",
      "blockHash": "0x43dca59f3e441dc57271eeda93056d3b226aff4ef7d8a631ec1bbb434efa119b",
      "blockNumber": 95279,
      "transactionIndex": 0,
      "confirmations": null,
      "from": "0xb1abce2918E21ddb93AA452731a12672A3d9F75a",
      "gasPrice": {
        "_hex": "0xd75e68bf6"
      },
      "gasLimit": {
        "_hex": "0x5208"
      },
      "to": "0x32Be343B94f860124dC4fEe278FDCBD38C102D88",
      "value": {
        "_hex": "0x455f415191dee400"
      },
      "nonce": 34,
      "data": "0x",
      "r": "0xd1d6d1f072bd8ced66e64a23a4ed6f881bb3b52fe6809e7d8bc9d402ce005acb",
      "s": "0x539e88940e04a0ca9fdef6ba2daebc1b135650a8ffcb0115ead0482e938dc53f",
      "v": 27,
      "creates": null,
      "raw": "0xf86c22850d75e68bf68252089432be343b94f860124dc4fee278fdcbd38c102d8888455f415191dee400801ba0d1d6d1f072bd8ced66e64a23a4ed6f881bb3b52fe6809e7d8bc9d402ce005acba0539e88940e04a0ca9fdef6ba2daebc1b135650a8ffcb0115ead0482e938dc53f",
      "networkId": 0,
      "chainId": 0
    },
    {
      "hash": "0xb064d20fdee2234b55a2e09edc8467de530a85d7e1bc330cff7bc4340e172207",
      "blockHash": "0x43dca59f3e441dc57271eeda93056d3b226aff4ef7d8a631ec1bbb434efa119b",
      "blockNumber": 95279,
      "transactionIndex": 1,
      "confirmations": null,
      "from": "0x1904b93787C5bdd897C2362b2879b84AC3D80f57",
      "gasPrice": {
        "_hex": "0xd75e68bf6"
      },
      "gasLimit": {
        "_hex": "0x5208"
      },
      "to": "0x32Be343B94f860124dC4fEe278FDCBD38C102D88",
      "value": {
        "_hex": "0x3cb6da4ef1242e000"
      },
      "nonce": 0,
      "data": "0x",
      "r": "0x4e99834bdea35b61eaecc8a4716b7274239be2b5b2846e075030be69dab35bc3",
      "s": "0x55cbc7ede22f2fcc9c29746fe5b8e8d22e64964ed5b3917639c5a251f5bd0601",
      "v": 28,
      "creates": null,
      "raw": "0xf86d80850d75e68bf68252089432be343b94f860124dc4fee278fdcbd38c102d888903cb6da4ef1242e000801ca04e99834bdea35b61eaecc8a4716b7274239be2b5b2846e075030be69dab35bc3a055cbc7ede22f2fcc9c29746fe5b8e8d22e64964ed5b3917639c5a251f5bd0601",
      "networkId": 0,
      "chainId": 0
    },
    {
      "hash": "0x45ed29f2b390d711d251fa9300c5b2d04f310b3a68bd4d6c94287ca37892ba85",
      "blockHash": "0x43dca59f3e441dc57271eeda93056d3b226aff4ef7d8a631ec1bbb434efa119b",
      "blockNumber": 95279,
      "transactionIndex": 2,
      "confirmations": null,
      "from": "0x32Be343B94f860124dC4fEe278FDCBD38C102D88",
      "gasPrice": {
        "_hex": "0xd75e68bf6"
      },
      "gasLimit": {
        "_hex": "0x5208"
      },
      "to": "0xc93a69dFC0fb3E867D9207599f7fe87d51619635",
      "value": {
        "_hex": "0x56bc75e2d63100000"
      },
      "nonce": 981,
      "data": "0x",
      "r": "0xffa1a69d494d14032219d18545ebb77a07579ba01a4c89f43f020071c803ac2f",
      "s": "0x2c8bd61c4f6b0f596b9214de21ae28ee9f41873fe89e36a28abadce8e9cab2cc",
      "v": 28,
      "creates": null,
      "raw": "0xf86f8203d5850d75e68bf682520894c93a69dfc0fb3e867d9207599f7fe87d5161963589056bc75e2d63100000801ca0ffa1a69d494d14032219d18545ebb77a07579ba01a4c89f43f020071c803ac2fa02c8bd61c4f6b0f596b9214de21ae28ee9f41873fe89e36a28abadce8e9cab2cc",
      "networkId": 0,
      "chainId": 0
    }
  ]
}