{
  "hash": "0x62bcb1afbb77cf6e838cc88198e965c0a0e3abff63bed9281d8326f0f09ed01e",
  "parentHash": "0xdb6c44ce73986d0df04fb9b2c7ae494b2a1674f5c9cb48a534b2cf1b5cbdd153",
  "number": 94953,
  "timestamp": 1439716639,
  "nonce": "0xcaf1da13a16b53e4",
  "difficulty": 3512075158288,
  "gasLimit": {
    "_hex": "0x2fefd8"
  },
  "gasUsed": {
    "_hex": "0x5208"
  },
  "miner": "0xe6A7a1d47ff21B6321162AEA7C6CB457D5476Bca",
  "extraData": "0x476574682f76312e302e312d38326566323666362f6c696e75782f676f312e34",
  "transactions": [
    {
      "hash": "0x1f694a91ee698cd157eb72d0919250395aeeb5aa255b77fd0bd733094640263d",
      "blockHash": "0x62bcb1afbb77cf6e838cc88198e965c0a0e3abff63bed9281d8326f0f09ed01e",
      "blockNumber": 94953,
      "transactionIndex": 0,
      "confirmations": null,
      "from": "0xa70a9a7040d542C632D8e0bE7c5513A8a5Bbc752",
      "gasPrice": {
        "_hex": "0xdf2d7acb0"
      },
      "gasLimit": {
        "_hex": "0x5208"
      },
      "to": "0x32Be343B94f860124dC4fEe278FDCBD38C102D88",
      "value": {
        "_hex": "0x455f194ab1744000"
      },
      "nonce": 152,
      "data": "0x",
      "r": "0xc2063013db7bf2cf6e02459ae5c22930ddec014ef254e52757d9749bc2198ebc",
      "s": "0x4e1f1c3c605c0693076632e4b0cb775deef418c60449cc878559344527a4546f",
      "v": 28,
      "creates": null,
      "raw": "0xf86d8198850df2d7acb08252089432be343b94f860124dc4fee278fdcbd38c102d8888455f194ab1744000801ca0c2063013db7bf2cf6e02459ae5c22930ddec014ef254e52757d9749bc2198ebca04e1f1c3c605c0693076632e4b0cb775deef418c60449cc878559344527a4546f",
      "networkId": 0,
      "chainId": 0
    }
  ]
}