{
  "hash": "0xc8f16f2190359ea74a90be6f78d945f8d9d1c2cf70c39d476c574b2be1871347",
  "parentHash": "0xc203befa115e262daa41ee91b74ceff9698c7addfb5394685e1c5b03d1978ccf",
  "number": 96626,
  "timestamp": 1439743267,
  "nonce": "0x6ca1c4142885bd91",
  "difficulty": 3714187651124,
  "gasLimit": {
    "_hex": "0x2fefd8"
  },
  "gasUsed": {
    "_hex": "0x5208"
  },
  "miner": "0x790b8a3cE86E707ED0eD32bF89B3269692a23CC1",
  "extraData": "0xd783010001844765746887676f312e342e32856c696e7578",
  "transactions": [
    {
      "hash": "0xe325c0975b742243a572b2e7d9668f3e731f5e69f14505cdb57e882cefcd12fc",
      "blockHash": "0xc8f16f2190359ea74a90be6f78d945f8d9d1c2cf70c39d476c574b2be1871347",
      "blockNumber": 96626,
      "transactionIndex": 0,
      "confirmations": null,
      "from": "0x40B9b889A21Ff1534d018D71Dc406122EBcf3F5A",
      "gasPrice": {
        "_hex": "0x10a1ef7beda"
      },
      "gasLimit": {
        "_hex": "0x15f90"
      },
      "to": "0x645B979F8ce622236DB26feB803455d40C328615",
      "value": {
        "_hex": "0x4cb511db0239bc0000"
      },
      "nonce": 36,
      "data": "0x",
      "r": "0x30b2b129d258541a791db8c36f1a39b937b9d07a90cbd89d16ecf240ff80bc28",
      "s": "0x710a636b6e906e61079dd6271c9cfcce2f9444a6f6a447078cbc7d46df13b76b",
      "v": 27,
      "creates": null,
      "raw": "0xf86f2486010a1ef7beda83015f9094645b979f8ce622236db26feb803455d40c328615894cb511db0239bc0000801ba030b2b129d258541a791db8c36f1a39b937b9d07a90cbd89d16ecf240ff80bc28a0710a636b6e906e61079dd6271c9cfcce2f9444a6f6a447078cbc7d46df13b76b",
      "networkId": 0,
      "chainId": 0
    }
  ]
}