{
  "hash": "0x7d75634d78ece4929ab2417af1ae0a049803e3ff408e1db916ba20a2b52d7ba2",
  "parentHash": "0x1c2896f45f29ebea13f927a98d0adcbceb6436c34b031ec98c02a720d6404d32",
  "number": 81051,
  "timestamp": 1439495343,
  "nonce": "0x75176547f0417b33",
  "difficulty": 2434399786940,
  "gasLimit": {
    "_hex": "0x2fefd8"
  },
  "gasUsed": {
    "_hex": "0x546c"
  },
  "miner": "0x723E05fF30e4ba7A87b4D7D459eE5B488A9c36d1",
  "extraData": "0x",
  "transactions": [
    {
      "hash": "0x124c672cff74992adfdcd7679058a7f0e8a9f6034e22255221ef67b156197159",
      "blockHash": "0x7d75634d78ece4929ab2417af1ae0a049803e3ff408e1db916ba20a2b52d7ba2",
      "blockNumber": 81051,
      "transactionIndex": 0,
      "confirmations": null,
      "from": "0x7480DE62254f2bA82b578219c07ba5Be430Dc3cb",
      "gasPrice": {
        "_hex": "0x110c8f7d8de"
      },
      "gasLimit": {
        "_hex": "0xc350"
      },
      "to": "0x2910543Af39abA0Cd09dBb2D50200b3E800A63D2",
      "value": {
        "_hex": "0x878678326eac900000"
      },
      "nonce": 1,
      "data": "0x454e44505836324d47",
      "r": "0x27f071fc6e549b0bab0cbfbe2c4c23dbc66a81846bdcfb4fbd28e59669e5153a",
      "s": "0xa17c6c74974c38cde92a1110a5432c148b5e629cc37fb1d0dc10599caf02322b",
      "v": 28,
      "creates": null,
      "raw": "0xf87701860110c8f7d8de82c350942910543af39aba0cd09dbb2d50200b3e800a63d289878678326eac90000089454e44505836324d471ca027f071fc6e549b0bab0cbfbe2c4c23dbc66a81846bdcfb4fbd28e59669e5153aa0a17c6c74974c38cde92a1110a5432c148b5e629cc37fb1d0dc10599caf02322b",
      "networkId": 0,
      "chainId": 0
    }
  ]
}