{
  "hash": "0x9ada37d32a9b69f202768f22aeb823211cb631c5e4097438757bbead2e886f48",
  "parentHash": "0x9c8aee2a43d3e66e4bd0dda7ed4e15fe3638991f8fed8b0814735ad1234b7ecb",
  "number": 99945,
  "timestamp": 1439798147,
  "nonce": "0x7e5160e6dc90c3c3",
  "difficulty": 3847443360093,
  "gasLimit": {
    "_hex": "0x2fefd8"
  },
  "gasUsed": {
    "_hex": "0x3d864"
  },
  "miner": "0x9Fa9952255B2b06639A04D63804d4BdFFf6E2d7e",
  "extraData": "0x476574682f76312e302e312f77696e646f77732f676f312e342e32",
  "transactions": [
    {
      "hash": "0xc07ce0f871c25570983ce79bd75db3dc0f698d4cfb053ac6c9ee22150bff9f83",
      "blockHash": "0x9ada37d32a9b69f202768f22aeb823211cb631c5e4097438757bbead2e886f48",
      "blockNumber": 99945,
      "transactionIndex": 0,
      "confirmations": null,
      "from": "0x1576e79963A5288CD91F8B822247Bd69508729e9",
      "gasPrice": {
        "_hex": "0xdf41b1aa9"
      },
      "gasLimit": {
        "_hex": "0x7530"
      },
      "to": "0x9799B868C884690465A1e50A97D76a8B107F7583",
      "value": {
        "_hex": "0x10a741a4627800000"
      },
      "nonce": 0,
      "data": "0x00",
      "r": "0x9a48deb295afdef2283b33b600defa000ff98718ac74e1d59421abfe75ba796e",
      "s": "0x86add35ece97c879c6b881917f19ccdd787f01c50e5fe581a78e30a6e2181b2f",
      "v": 27,
      "creates": null,
      "raw": "0xf86d80850df41b1aa9827530949799b868c884690465a1e50a97d76a8b107f758389010a741a4627800000001ba09a48deb295afdef2283b33b600defa000ff98718ac74e1d59421abfe75ba796ea086add35ece97c879c6b881917f19ccdd787f01c50e5fe581a78e30a6e2181b2f",
      "networkId": 0,
      "chainId": 0
    },
    {
      "hash": "0x03a1f00b445f5ec52bf55a983546a8939945253b097783322be58df05f5d68e1",
      "blockHash": "0x9ada37d32a9b69f202768f22aeb823211cb631c5e4097438757bbead2e886f48",
      "blockNumber": 99945,
      "transactionIndex": 1,
      "confirmations": null,
      "from": "0xe6A7a1d47ff21B6321162AEA7C6CB457D5476Bca",
      "gasPrice": {
        "_hex": "0xcbeb34480"
      },
      "gasLimit": {
        "_hex": "0x55f0"
      },
      "to": "0xb4A9c47d4182b60B07a31d310cEDA8105a1122c4",
      "value": {
        "_hex": "0x11fd797652d7f388"
      },
      "nonce": 3046,
      "data": "0x",
      "r": "0x836c71367d12df5c5aa1946c10d43e04cd2700fabd78b4e884d279a01ba2d6a2",
      "s": "0x7087703c73ec7514c017c01c60f17610e16ab8f7795da9b3ffa0e67e4d4ebb5b",
      "v": 27,
      "creates": null,
      "raw": "0xf86e820be6850cbeb344808255f094b4a9c47d4182b60b07a31d310ceda8105a1122c48811fd797652d7f388801ba0836c71367d12df5c5aa1946c10d43e04cd2700fabd78b4e884d279a01ba2d6a2a07087703c73ec7514c017c01c60f17610e16ab8f7795da9b3ffa0e67e4d4ebb5b",
      "networkId": 0,
      "chainId": 0
    },
    {
      "hash": "0x5726324c91497337fdbddd5a43d2938d8fdac83e93b3078f86094617c2e637f6",
      "blockHash": "0x9ada37d32a9b69f202768f22aeb823211cb631c5e4097438757bbead2e886f48",
      "blockNumber": 99945,
      "transactionIndex": 2,
      "confirmations": null,
      "from": "0xe6A7a1d47ff21B6321162AEA7C6CB457D5476Bca",
      "gasPrice": {
        "_hex": "0xcbeb34480"
      },
      "gasLimit": {
        "_hex": "0x55f0"
      },
      "to": "0x657a04FeFfb4412AA72aEe9c4d23918A998B3DF3",
      "value": {
        "_hex": "0x122dd4d9668f72e0"
      },
      "nonce": 3047,
      "data": "0x",
      "r": "0xee225228eaf89bd604fed316dff9bc04ea5e17f052dd033d9eee6fe3784b6995",
      "s": "0x43c3260a56cbb4395c2a3990474c91eba534d9dbba52b0cdd5f4a9602dfddca9",
      "v": 27,
      "creates": null,
      "raw": "0xf86e820be7850cbeb344808255f094657a04feffb4412aa72aee9c4d23918a998b3df388122dd4d9668f72e0801ba0ee225228eaf89bd604fed316dff9bc04ea5e17f052dd033d9eee6fe3784b6995a043c3260a56cbb4395c2a3990474c91eba534d9dbba52b0cdd5f4a9602dfddca9",
      "networkId": 0,
      "chainId": 0
    },
    {
      "hash": "0x0e15211c948384f4a170ec7f912a2750a9e1908ca3918ed3ef3dfd6416196740",
      "blockHash": "0x9ada37d32a9b69f202768f22aeb823211cb631c5e4097438757bbead2e886f48",
      "blockNumber": 99945,
      "transactionIndex": 3,
      "confirmations": null,
      "from": "0xe6A7a1d47ff21B6321162AEA7C6CB457D5476Bca",
      "gasPrice": {
        "_hex": "0xcbeb34480"
      },
      "gasLimit": {
        "_hex": "0x55f0"
      },
      "to": "0x683FEDdafc2A8542744a4587DE0C45626D7B8E68",
      "value": {
        "_hex": "0x1238d4dd2c7fc424"
      },
      "nonce": 3048,
      "data": "0x",
      "r": "0x01e4d1de2b6869f273dd1d192f57b93fc86493c7b23e73afcf61516a161b3ff5",
      "s": "0x3752e66a47d2e1dbaf059afe6657f6e9495d5a9ff058c3e4a9a3826d624671d7",
      "v": 28,
      "creates": null,
      "raw": "0xf86e820be8850cbeb344808255f094683feddafc2a8542744a4587de0c45626d7b8e68881238d4dd2c7fc424801ca001e4d1de2b6869f273dd1d192f57b93fc86493c7b23e73afcf61516a161b3ff5a03752e66a47d2e1dbaf059afe6657f6e9495d5a9ff058c3e4a9a3826d624671d7",
      "networkId": 0,
      "chainId": 0
    },
    {
      "hash": "0x70fe60d071ca06354b74f3cfb3b23ca4f5ad964f2a03a8f9ca223bde183fc725",
      "blockHash": "0x9ada37d32a9b69f202768f22aeb823211cb631c5e4097438757bbead2e886f48",
      "blockNumber": 99945,
      "transactionIndex": 4,
      "confirmations": null,
      "from": "0xe6A7a1d47ff21B6321162AEA7C6CB457D5476Bca",
      "gasPrice": {
        "_hex": "0xcbeb34480"
      },
      "gasLimit": {
        "_hex": "0x55f0"
      },
      "to": "0xc41fDDa36003210005a385c88A71007e62A81C7D",
      "value": {
        "_hex": "0x128b927f1b713570"
      },
      "nonce": 3049,
      "data": "0x",
      "r": "0x469748b9e1506e85a3614c6739dae837e5df6719d8d07d655f566074197e93b5",
      "s": "0x0ceccf6ced7e87d3c03ed49c249becf4ab5c273d7bf02bb8afba17fc2aaadd3a",
      "v": 27,
      "creates": null,
      "raw": "0xf86e820be9850cbeb344808255f094c41fdda36003210005a385c88a71007e62a81c7d88128b927f1b713570801ba0469748b9e1506e85a3614c6739dae837e5df6719d8d07d655f566074197e93b5a00ceccf6ced7e87d3c03ed49c249becf4ab5c273d7bf02bb8afba17fc2aaadd3a",
      "networkId": 0,
      "chainId": 0
    },
    {
      "hash": "0x8630cf5a97b9257af15c043da0b781b122dd8df2a9768596604c121d3e396af0",
      "blockHash": "0x9ada37d32a9b69f202768f22aeb823211cb631c5e4097438757bbead2e886f48",
      "blockNumber": 99945,
      "transactionIndex": 5,
      "confirmations": null,
      "from": "0xe6A7a1d47ff21B6321162AEA7C6CB457D5476Bca",
      "gasPrice": {
        "_hex": "0xcbeb34480"
      },
      "gasLimit": {
        "_hex": "0x55f0"
      },
      "to": "0x1ee96bFCC664C0D4430267bDAd17A38946655eE3",
      "value": {
        "_hex": "0x12a1deabf632cf14"
      },
      "nonce": 3050,
      "data": "0x",
      "r": "0x556a3f99afa0ebbd37c2cc350f4542cf77fb4c97ed8218577921787711922d0d",
      "s": "0x665bcf2c5b95f3502e0ff63bcc46b5a692896c5d88e8b0b3ba5c48e0c851bb8e",
      "v": 28,
      "creates": null,
      "raw": "0xf86e820bea850cbeb344808255f0941ee96bfcc664c0d4430267bdad17a38946655ee38812a1deabf632cf14801ca0556a3f99afa0ebbd37c2cc350f4542cf77fb4c97ed8218577921787711922d0da0665bcf2c5b95f3502e0ff63bcc46b5a692896c5d88e8b0b3ba5c48e0c851bb8e",
      "networkId": 0,
      "chainId": 0
    },
    {
      "hash": "0x7393bf16ab6de981ea1b6f165661ad6be6dea27eb19474a2b69cce2533861d42",
      "blockHash": "0x9ada37d32a9b69f202768f22aeb823211cb631c5e4097438757bbead2e886f48",
      "blockNumber": 99945,
      "transactionIndex": 6,
      "confirmations": null,
      "from": "0xe6A7a1d47ff21B6321162AEA7C6CB457D5476Bca",
      "gasPrice": {
        "_hex": "0xcbeb34480"
      },
      "gasLimit": {
        "_hex": "0x55f0"
      },
      "to": "0x014687B2Ed3c3256fe367D6aC47ab2482E055F6b",
      "value": {
        "_hex": "0x12bbdcf088a8e4e4"
      },
      "nonce": 3051,
      "data": "0x",
      "r": "0xa4422d0c634e9eba731baf594192f02deb1d9ffde152c17fa83b6c21449089e7",
      "s": "0x306db083832698104b0b9a30a5ab695d340a5ed6a01fa88377866a079e42456d",
      "v": 27,
      "creates": null,
      "raw": "0xf86e820beb850cbeb344808255f094014687b2ed3c3256fe367d6ac47ab2482e055f6b8812bbdcf088a8e4e4801ba0a4422d0c634e9eba731baf594192f02deb1d9ffde152c17fa83b6c21449089e7a0306db083832698104b0b9a30a5ab695d340a5ed6a01fa88377866a079e42456d",
      "networkId": 0,
      "chainId": 0
    },
    {
      "hash": "0xe53ab9fefef5d8ee93b6c31e7dc3ff406121f94eaa20480485145de6598ddba6",
      "blockHash": "0x9ada37d32a9b69f202768f22aeb823211cb631c5e4097438757bbead2e886f48",
      "blockNumber": 99945,
      "transactionIndex": 7,
      "confirmations": null,
      "from": "0xe6A7a1d47ff21B6321162AEA7C6CB457D5476Bca",
      "gasPrice": {
        "_hex": "0xcbeb34480"
      },
      "gasLimit": {
        "_hex": "0x55f0"
      },
      "to": "0x740Ab9f08593f931fC5d0589a528663565e707ee",
      "value": {
        "_hex": "0x12fdd878dda2f730"
      },
      "nonce": 3052,
      "data": "0x",
      "r": "0x94073caffc98ed08e7eb84456061bbd11efdb168891bf74af58c21d440a7ab5f",
      "s": "0x0ff72929108ab90a9f8c294ea97d86dda45209f458eb34d48471a4962e395cd5",
      "v": 28,
      "creates": null,
      "raw": "0xf86e820bec850cbeb344808255f094740ab9f08593f931fc5d0589a528663565e707ee8812fdd878dda2f730801ca094073caffc98ed08e7eb84456061bbd11efdb168891bf74af58c21d440a7ab5fa00ff72929108ab90a9f8c294ea97d86dda45209f458eb34d48471a4962e395cd5",
      "networkId": 0,
      "chainId": 0
    },
    {
      "hash": "0x5c766c8d80acf79dba9089994f0a739916a0b8047a7f31a7f06deadabf56cb31",
      "blockHash": "0x9ada37d32a9b69f202768f22aeb823211cb631c5e4097438757bbead2e886f48",
      "blockNumber": 99945,
      "transactionIndex": 8,
      "confirmations": null,
      "from": "0xe6A7a1d47ff21B6321162AEA7C6CB457D5476Bca",
      "gasPrice": {
        "_hex": "0xcbeb34480"
      },
      "gasLimit": {
        "_hex": "0x55f0"
      },
      "to": "0x1327bD31578E52307b9A2A09122d2E6662d40513",
      "value": {
        "_hex": "0x13296257b33111f0"
      },
      "nonce": 3053,
      "data": "0x",
      "r": "0xdcfd61061c35e89e8eee4738e31cc430ba982d76a010d34f59fbba173754a7ed",
      "s": "0x653dff5176759256f63bb85636823718db305ab6253ea1393affb97ba0134144",
      "v": 27,
      "creates": null,
      "raw": "0xf86e820bed850cbeb344808255f0941327bd31578e52307b9a2a09122d2e6662d405138813296257b33111f0801ba0dcfd61061c35e89e8eee4738e31cc430ba982d76a010d34f59fbba173754a7eda0653dff5176759256f63bb85636823718db305ab6253ea1393affb97ba0134144",
      "networkId": 0,
      "chainId": 0
    },
    {
      "hash": "0xb074cedebbd3640b17fe3442d9be3ab6ae29182781a7e8ea8cf9308d7140c4f6",
      "blockHash": "0x9ada37d32a9b69f202768f22aeb823211cb631c5e4097438757bbead2e886f48",
      "blockNumber": 99945,
      "transactionIndex": 9,
      "confirmations": null,
      "from": "0xe6A7a1d47ff21B6321162AEA7C6CB457D5476Bca",
      "gasPrice": {
        "_hex": "0xcbeb34480"
      },
      "gasLimit": {
        "_hex": "0x55f0"
      },
      "to": "0x07B4875Db0388E150D1D95Dd975E458f1eC2a210",
      "value": {
        "_hex": "0x133f95b4ff28b008"
      },
      "nonce": 3054,
      "data": "0x",
      "r": "0x3804ade251535896ad3d07883eab8e5888ddb7e0d18eff64cf885bb03f83524c",
      "s": "0x38b79d873ba624141030beb85963c07d63e03028474afb17a6ccf7437039cca3",
      "v": 28,
      "creates": null,
      "raw": "0xf86e820bee850cbeb344808255f09407b4875db0388e150d1d95dd975e458f1ec2a21088133f95b4ff28b008801ca03804ade251535896ad3d07883eab8e5888ddb7e0d18eff64cf885bb03f83524ca038b79d873ba624141030beb85963c07d63e03028474afb17a6ccf7437039cca3",
      "networkId": 0,
      "chainId": 0
    },
    {
      "hash": "0x4317122eb246fe49b0d7d99e61ecc3a6f20e32f6d654854ebbdf08890a49f6da",
      "blockHash": "0x9ada37d32a9b69f202768f22aeb823211cb631c5e4097438757bbead2e886f48",
      "blockNumber": 99945,
      "transactionIndex": 10,
      "confirmations": null,
      "from": "0xe6A7a1d47ff21B6321162AEA7C6CB457D5476Bca",
      "gasPrice": {
        "_hex": "0xcbeb34480"
      },
      "gasLimit": {
        "_hex": "0x55f0"
      },
      "to": "0x1FC0a68ee75c96453Dc8A877F49CfD6ab21d00ec",
      "value": {
        "_hex": "0x138ac0b86a971518"
      },
      "nonce": 3055,
      "data": "0x",
      "r": "0xd24304103d6f545e6b654a235ac1d3ead0e33753b5076ead77e23d613c72b827",
      "s": "0x3c61413cad76321abf3f8cc7ecc1d79d607ab698542ed90f21fdf64cc6d1564f",
      "v": 28,
      "creates": null,
      "raw": "0xf86e820bef850cbeb344808255f0941fc0a68ee75c96453dc8a877f49cfd6ab21d00ec88138ac0b86a971518801ca0d24304103d6f545e6b654a235ac1d3ead0e33753b5076ead77e23d613c72b827a03c61413cad76321abf3f8cc7ecc1d79d607ab698542ed90f21fdf64cc6d1564f",
      "networkId": 0,
      "chainId": 0
    },
    {
      "hash": "0x095d4cfdfc9380f40f8c141474354652bb4e59bd56fe7cf70bd14e4248f76c87",
      "blockHash": "0x9ada37d32a9b69f202768f22aeb823211cb631c5e4097438757bbead2e886f48",
      "blockNumber": 99945,
      "transactionIndex": 11,
      "confirmations": null,
      "from": "0xe6A7a1d47ff21B6321162AEA7C6CB457D5476Bca",
      "gasPrice": {
        "_hex": "0xcbeb34480"
      },
      "gasLimit": {
        "_hex": "0x55f0"
      },
      "to": "0xe1d9d0792E4175fbd6FA9Ab344AE5b1F9B0D78B2",
      "value": {
        "_hex": "0x1394b1c59ddadfd8"
      },
      "nonce": 3056,
      "data": "0x",
      "r": "0x21dba34f10a22cd61bfc9472d5aaf04500008776658b5d8500034bda18311a90",
      "s": "0x513bd824f24665709633936017323012072b38da92cde506378f482acc76196c",
      "v": 27,
      "creates": null,
      "raw": "0xf86e820bf0850cbeb344808255f094e1d9d0792e4175fbd6fa9ab344ae5b1f9b0d78b2881394b1c59ddadfd8801ba021dba34f10a22cd61bfc9472d5aaf04500008776658b5d8500034bda18311a90a0513bd824f24665709633936017323012072b38da92cde506378f482acc76196c",
      "networkId": 0,
      "chainId": 0
    }
  ]
}