{
  "hash": "0xfd8a1b4e5cf40549878c4137f58c4e8a1a8a06b4562dec4109800109a7a5b127",
  "parentHash": "0xb347661d5efb280784bdf892ec604f097bd0282c77df7e78a206000275f43bb6",
  "number": 119684,
  "timestamp": 1440147192,
  "nonce": "0x6ddb7335e18aa3b6",
  "difficulty": 4377174651926,
  "gasLimit": {
    "_hex": "0x2fefd8"
  },
  "gasUsed": {
    "_hex": "0x5208"
  },
  "miner": "0xe6A7a1d47ff21B6321162AEA7C6CB457D5476Bca",
  "extraData": "0xd783010002844765746887676f312e342e32856c696e7578",
  "transactions": [
    {
      "hash": "0xf3db1ab7ee195008dd2ab83d1410e5dfbeba74f20e87959bf9dc93c28892cb4d",
      "blockHash": "0xfd8a1b4e5cf40549878c4137f58c4e8a1a8a06b4562dec4109800109a7a5b127",
      "blockNumber": 119684,
      "transactionIndex": 0,
      "confirmations": null,
      "from": "0x8312c82650D4A0bF2393eCE0554f650dA73eD14b",
      "gasPrice": {
        "_hex": "0xba43b7400"
      },
      "gasLimit": {
        "_hex": "0x5208"
      },
      "to": "0xFBb1b73C4f0BDa4f67dcA266ce6Ef42f520fBB98",
      "value": {
        "_hex": "0x63afda577e96000"
      },
      "nonce": 1,
      "data": "0x",
      "r": "0xad68a25d6bf688e8a4a061d4ceb37ba2069854986a0be376d36a29e3ba90c2c9",
      "s": "0x5b7f9271b85cc85c6b1ae2656fcc87081d688151d0c863de704186714a6ff3c8",
      "v": 27,
      "creates": null,
      "raw": "0xf86c01850ba43b740082520894fbb1b73c4f0bda4f67dca266ce6ef42f520fbb9888063afda577e96000801ba0ad68a25d6bf688e8a4a061d4ceb37ba2069854986a0be376d36a29e3ba90c2c9a05b7f9271b85cc85c6b1ae2656fcc87081d688151d0c863de704186714a6ff3c8",
      "networkId": 0,
      "chainId": 0
    }
  ]
}