{
  "hash": "0x9b963e1a85bdb157ef1296e3015ec2cc97a8112fc007564a26f03f974fbf8986",
  "parentHash": "0x8d2c20e4c5bea07e50d3062c18f482363e0e524337e6f701695119006ee0e74d",
  "number": 105149,
  "timestamp": 1439882656,
  "nonce": "0x4a5b99654cb84add",
  "difficulty": 4297857462516,
  "gasLimit": {
    "_hex": "0x2fefd8"
  },
  "gasUsed": {
    "_hex": "0x5208"
  },
  "miner": "0xe6A7a1d47ff21B6321162AEA7C6CB457D5476Bca",
  "extraData": "0x476574682f76312e302e312d38326566323666362f6c696e75782f676f312e34",
  "transactions": [
    {
      "hash": "0x86b30baae19b1e97f6eb32fac52b7f6e7c5868ca78c5b6559e6be5e7a773c760",
      "blockHash": "0x9b963e1a85bdb157ef1296e3015ec2cc97a8112fc007564a26f03f974fbf8986",
      "blockNumber": 105149,
      "transactionIndex": 0,
      "confirmations": null,
      "from": "0x1308A2e95c0160B90803ddCA9B9a5bb55E416d79",
      "gasPrice": {
        "_hex": "0xd534e7941"
      },
      "gasLimit": {
        "_hex": "0x15f90"
      },
      "to": "0xb9b3Fb6f39Aa2067ee6E7130601bd8aCB235735A",
      "value": {
        "_hex": "0x36330322d5238c0000"
      },
      "nonce": 172,
      "data": "0x",
      "r": "0x20067a6c2cb7b3caf6f809f1baf46b95e78c6c983896b0d84cc2b9bb989b0ab5",
      "s": "0x65e7657ce42ba0c921306a9f42bae4c8a7aa8be78711bb5692cd0086cb61b35a",
      "v": 27,
      "creates": null,
      "raw": "0xf86f81ac850d534e794183015f9094b9b3fb6f39aa2067ee6e7130601bd8acb235735a8936330322d5238c0000801ba020067a6c2cb7b3caf6f809f1baf46b95e78c6c983896b0d84cc2b9bb989b0ab5a065e7657ce42ba0c921306a9f42bae4c8a7aa8be78711bb5692cd0086cb61b35a",
      "networkId": 0,
      "chainId": 0
    }
  ]
}