{
  "hash": "0x7769bee322bb731811bfd548b852bcd5880670f82f013fc6d84043770ca2319e",
  "parentHash": "0x3e3fca92593b55e5c188b14b8702fc4dd1cc66bbad90b11ceef3643b40f48d9b",
  "number": 117333,
  "timestamp": 1440107586,
  "nonce": "0xe41fc8cbe1fbafd7",
  "difficulty": 4329505148360,
  "gasLimit": {
    "_hex": "0x2fefd8"
  },
  "gasUsed": {
    "_hex": "0x89e6"
  },
  "miner": "0xe6A7a1d47ff21B6321162AEA7C6CB457D5476Bca",
  "extraData": "0xd783010002844765746887676f312e342e32856c696e7578",
  "transactions": [
    {
      "hash": "0x6dc0ee783b42ca4dce3ff89a0271e2e853ad2b72f94ea02a0b4ed10af747a2c8",
      "blockHash": "0x7769bee322bb731811bfd548b852bcd5880670f82f013fc6d84043770ca2319e",
      "blockNumber": 117333,
      "transactionIndex": 0,
      "confirmations": null,
      "from": "0xAcE365e4cD93314Ccf1C389F17216FFC5966BB1F",
      "gasPrice": {
        "_hex": "0xd4a1d7459"
      },
      "gasLimit": {
        "_hex": "0x186a0"
      },
      "to": "0x449C5B639e9852aDA644ffaACfE325dFcE6E6E0A",
      "value": {
        "_hex": "0x0"
      },
      "nonce": 7,
      "data": "0xc86a90fe0000000000000000000000000000000000000000000000000000000000000001000000000000000000000000317c5c2a8c84b82fd77f5cc32f10cc1c1f25efba",
      "r": "0xb5d9b8fed659c68a3f1da977526f5b9f5adf85be2932ec204ae5f828d3ad2dea",
      "s": "0x5a546f69afc6d7fc1f9c3f7b2ad94b803661512edf67b459b91e912fe9fe8432",
      "v": 27,
      "creates": null,
      "raw": "0xf8aa07850d4a1d7459830186a094449c5b639e9852ada644ffaacfe325dfce6e6e0a80b844c86a90fe0000000000000000000000000000000000000000000000000000000000000001000000000000000000000000317c5c2a8c84b82fd77f5cc32f10cc1c1f25efba1ba0b5d9b8fed659c68a3f1da977526f5b9f5adf85be2932ec204ae5f828d3ad2deaa05a546f69afc6d7fc1f9c3f7b2ad94b803661512edf67b459b91e912fe9fe8432",
      "networkId": 0,
      "chainId": 0
    }
  ]
}