{
  "hash": "0x0dc35005b9b1d1d7bc0c1b138bf45060d1884001dcd5233b1c1359ccc1fe2534",
  "parentHash": "0xb8696781841ec3afacb3edf6611f6246e4fba625f9f9ca1cd5414b25488f7292",
  "number": 80510,
  "timestamp": 1439486544,
  "nonce": "0x0c1699f2a06b2f98",
  "difficulty": 2419152004896,
  "gasLimit": {
    "_hex": "0x2fefd8"
  },
  "gasUsed": {
    "_hex": "0x1cec5"
  },
  "miner": "0xC603Ab5ef41fC61AA8b76bEddb09e3Cfcbb174BD",
  "extraData": "0x476574682f76312e302e312f77696e646f77732f676f312e342e32",
  "transactions": [
    {
      "hash": "0x8e7a44ec05ff58a5236dc2584c2fcf9bcb43ef2f4c8781aa2f82c2eb2b638df7",
      "blockHash": "0x0dc35005b9b1d1d7bc0c1b138bf45060d1884001dcd5233b1c1359ccc1fe2534",
      "blockNumber": 80510,
      "transactionIndex": 0,
      "confirmations": null,
      "from": "0x87C5B5874A18B4306DF8a752a6C8cc3E82daFc19",
      "gasPrice": {
        "_hex": "0x101c45ce925"
      },
      "gasLimit": {
        "_hex": "0x493e0"
      },
      "to": "0xC4c51de1AbF5D60DBd329eC0F999Fd8f021ae9fC",
      "value": {
        "_hex": "0x441aeaf8e7a6291"
      },
      "nonce": 229,
      "data": "0x8d2161860000000000000000000000000000000000000000000000000000000000000006d3d96ceed0cfca4794c2a5a3d3aeefe69da0a2a669e66a5651f30b64831c3db0",
      "r": "0x61b49023e66b1a9435088721dc60e0739704db73e29fa1d6624f8ae220a716b0",
      "s": "0x45c7a8f41afad6c4e34ef686d33aa50212e89fc5ef9bb45593ed08c9bf147bc0",
      "v": 28,
      "creates": null,
      "raw": "0xf8b481e5860101c45ce925830493e094c4c51de1abf5d60dbd329ec0f999fd8f021ae9fc880441aeaf8e7a6291b8448d2161860000000000000000000000000000000000000000000000000000000000000006d3d96ceed0cfca4794c2a5a3d3aeefe69da0a2a669e66a5651f30b64831c3db01ca061b49023e66b1a9435088721dc60e0739704db73e29fa1d6624f8ae220a716b0a045c7a8f41afad6c4e34ef686d33aa50212e89fc5ef9bb45593ed08c9bf147bc0",
      "networkId": 0,
      "chainId": 0
    },
    {
      "hash": "0xd51716d4cad388b639d34566c359c7967e48330f6b59c0de60e02377405f1dc4",
      "blockHash": "0x0dc35005b9b1d1d7bc0c1b138bf45060d1884001dcd5233b1c1359ccc1fe2534",
      "blockNumber": 80510,
      "transactionIndex": 1,
      "confirmations": null,
      "from": "0xF5437e158090B2a2d68f82b54a5864B95dD6DBea",
      "gasPrice": {
        "_hex": "0xd641f460d"
      },
      "gasLimit": {
        "_hex": "0x55f0"
      },
      "to": "0x40B9b889A21Ff1534d018D71Dc406122EBcf3F5A",
      "value": {
        "_hex": "0x3635c9adc5dea00000"
      },
      "nonce": 0,
      "data": "0x44525946573530303931",
      "r": "0xc10aed089b6d18fc3eef0c5a8e57f9242ade940cde07c804d2b76cbca3118f11",
      "s": "0x491baa02bbb298a05b1b7eca80f040cf6aadb156dc3206505740cf7d29f10eaa",
      "v": 27,
      "creates": null,
      "raw": "0xf87780850d641f460d8255f09440b9b889a21ff1534d018d71dc406122ebcf3f5a893635c9adc5dea000008a445259465735303039311ba0c10aed089b6d18fc3eef0c5a8e57f9242ade940cde07c804d2b76cbca3118f11a0491baa02bbb298a05b1b7eca80f040cf6aadb156dc3206505740cf7d29f10eaa",
      "networkId": 0,
      "chainId": 0
    }
  ]
}