{
  "hash": "0x88a49ba388953aa3991e867558c932921af9d0e8c48f12844fd309a2919c349c",
  "parentHash": "0x902ea7ba550a4b7d2492f5cb1cff2af2ec9712c82982cc3064c599b7533aa78b",
  "number": 102121,
  "timestamp": 1439833243,
  "nonce": "0x0107c3945fcd7f27",
  "difficulty": 3895588579481,
  "gasLimit": {
    "_hex": "0x2fefd8"
  },
  "gasUsed": {
    "_hex": "0x5208"
  },
  "miner": "0x580992B51e3925e23280EfB93d3047C82f17E038",
  "extraData": "0x476574682f76312e302e312f6c696e75782f676f312e342e32",
  "transactions": [
    {
      "hash": "0xb08392e36bf8602e20fa9687c21f13f9f300815c3110c8609d0d252a4e96984f",
      "blockHash": "0x88a49ba388953aa3991e867558c932921af9d0e8c48f12844fd309a2919c349c",
      "blockNumber": 102121,
      "transactionIndex": 0,
      "confirmations": null,
      "from": "0xcf00A85f3826941e7A25BFcF9Aac575d40410852",
      "gasPrice": {
        "_hex": "0xcb5bea614"
      },
      "gasLimit": {
        "_hex": "0x15f90"
      },
      "to": "0xD9666150A9dA92d9108198a4072970805a8B3428",
      "value": {
        "_hex": "0x4563918244f40000"
      },
      "nonce": 43,
      "data": "0x",
      "r": "0x44a08539f1e65cb30bad4098eae25646cd29658063b480d66f5968f226715226",
      "s": "0x4e126fb231081ebb4d989a89d41948e96d3fdaa7ee861af18ec60282f591e85a",
      "v": 28,
      "creates": null,
      "raw": "0xf86d2b850cb5bea61483015f9094d9666150a9da92d9108198a4072970805a8b3428884563918244f40000801ca044a08539f1e65cb30bad4098eae25646cd29658063b480d66f5968f226715226a04e126fb231081ebb4d989a89d41948e96d3fdaa7ee861af18ec60282f591e85a",
      "networkId": 0,
      "chainId": 0
    }
  ]
}