{
  "hash": "0x236c1ee8f6fb75dd1a06fe99bef0a891752f40d7f5b292264fd25b7679e7c688",
  "parentHash": "0x7eea0ad93c1525f2b57b228bc562e609e953f65ab78629cea901c814d9f6ba77",
  "number": 64473,
  "timestamp": 1439221301,
  "nonce": "0x7cac375fd7947c53",
  "difficulty": 1875698551204,
  "gasLimit": {
    "_hex": "0x2fefd8"
  },
  "gasUsed": {
    "_hex": "0x5208"
  },
  "miner": "0xf8E0CA3Ed80bd541b94BEdCf259e8CF2141A9523",
  "extraData": "0x476574682f76312e302e312f77696e646f77732f676f312e342e32",
  "transactions": [
    {
      "hash": "0x29f40787ccc9230bd0b84bf8aac9bdac3771777c2bcf51ed763592056456d533",
      "blockHash": "0x236c1ee8f6fb75dd1a06fe99bef0a891752f40d7f5b292264fd25b7679e7c688",
      "blockNumber": 64473,
      "transactionIndex": 0,
      "confirmations": null,
      "from": "0xBE38840CaC03E2fF88C50b23C3B041cc16c38548",
      "gasPrice": {
        "_hex": "0xba43b7400"
      },
      "gasLimit": {
        "_hex": "0x5208"
      },
      "to": "0x6747f922385c9a6F9cfDf095F34345257DD597bE",
      "value": {
        "_hex": "0x3aaa1f49517000"
      },
      "nonce": 1,
      "data": "0x",
      "r": "0x2a03c33098d935aab7905b54383c3b23456fb4e08b7eae1a31bb852c8068fee4",
      "s": "0x2bfb3e95335084530eb696300fd6f7aab72deeb0bbaa1268b7362471453c5260",
      "v": 27,
      "creates": null,
      "raw": "0xf86b01850ba43b7400825208946747f922385c9a6f9cfdf095f34345257dd597be873aaa1f49517000801ba02a03c33098d935aab7905b54383c3b23456fb4e08b7eae1a31bb852c8068fee4a02bfb3e95335084530eb696300fd6f7aab72deeb0bbaa1268b7362471453c5260",
      "networkId": 0,
      "chainId": 0
    }
  ]
}