{
  "hash": "0x74eae9a9acd87c05e761048071f4c6734426170a58c6ae1fac8b819bd20c6fd6",
  "parentHash": "0x79b20052b373d83705fe5ca4ce1d395a24d2c33f349bb23985499771164cfe99",
  "number": 61921,
  "timestamp": 1439180353,
  "nonce": "0x746d0f4f3bee4dac",
  "difficulty": 1743759090103,
  "gasLimit": {
    "_hex": "0x2fefd8"
  },
  "gasUsed": {
    "_hex": "0x5208"
  },
  "miner": "0xFC51D7bFF03328dC190c416DFf3Db6CEb8dbdA7B",
  "extraData": "0x476574682f76312e302e312f77696e646f77732f676f312e342e32",
  "transactions": [
    {
      "hash": "0x9cce16a1d467220ef36731988bf3d620cdf6e8524c14a7c6f5c1a10e5074f547",
      "blockHash": "0x74eae9a9acd87c05e761048071f4c6734426170a58c6ae1fac8b819bd20c6fd6",
      "blockNumber": 61921,
      "transactionIndex": 0,
      "confirmations": null,
      "from": "0xc0b9d23f8d37650D0141B559dbD33d94Ea004e07",
      "gasPrice": {
        "_hex": "0xda4ef8364"
      },
      "gasLimit": {
        "_hex": "0x5208"
      },
      "to": "0x32Be343B94f860124dC4fEe278FDCBD38C102D88",
      "value": {
        "_hex": "0x1035710491cdc00000"
      },
      "nonce": 3,
      "data": "0x",
      "r": "0x2daca1d9d60d1e8747bd13b42c3a7c9d271dac4e2c6c7213044204aded4a11d7",
      "s": "0x28bf71ca1958b70b2386f1533e436fdf9e926936916d05ea5f7b0544a4930e2f",
      "v": 27,
      "creates": null,
      "raw": "0xf86d03850da4ef83648252089432be343b94f860124dc4fee278fdcbd38c102d88891035710491cdc00000801ba02daca1d9d60d1e8747bd13b42c3a7c9d271dac4e2c6c7213044204aded4a11d7a028bf71ca1958b70b2386f1533e436fdf9e926936916d05ea5f7b0544a4930e2f",
      "networkId": 0,
      "chainId": 0
    }
  ]
}