{
  "hash": "0x43099a9f858a6617e06687859631b949862fdaa0ae0a395e56796b74773856a7",
  "parentHash": "0x00ca991a4df691b8a84faf83b5a96a07dd4cb6715ff2ea924698eb0d4758e114",
  "number": 120778,
  "timestamp": 1440165710,
  "nonce": "0x9bc60e42ef89fb7c",
  "difficulty": 4445525327392,
  "gasLimit": {
    "_hex": "0x2fefd8"
  },
  "gasUsed": {
    "_hex": "0x1bdbe"
  },
  "miner": "0xe6A7a1d47ff21B6321162AEA7C6CB457D5476Bca",
  "extraData": "0xd783010002844765746887676f312e342e32856c696e7578",
  "transactions": [
    {
      "hash": "0xf459f1263292adcf075f259d960f283b840f340d092e5c896fc376104da032c4",
      "blockHash": "0x43099a9f858a6617e06687859631b949862fdaa0ae0a395e56796b74773856a7",
      "blockNumber": 120778,
      "transactionIndex": 0,
      "confirmations": null,
      "from": "0x948c61d80269E56ed71E8f278e080Fb70bb1B856",
      "gasPrice": {
        "_hex": "0xd4be89f70"
      },
      "gasLimit": {
        "_hex": "0x249f0"
      },
      "to": "0xE28e72FCf78647ADCe1F1252F240bbfaebD63BcC",
      "value": {
        "_hex": "0x4be4e7267b6ae00000"
      },
      "nonce": 0,
      "data": "0x45466f3a",
      "r": "0x45ca800c84e12277460d0c898ede42f5402339dbe16c7e2d42afd7bf586d56c2",
      "s": "0x4567b7855363eed935df8f1c9c362e79dec6cacf41353a10a4a851994dbb3349",
      "v": 28,
      "creates": null,
      "raw": "0xf87280850d4be89f70830249f094e28e72fcf78647adce1f1252f240bbfaebd63bcc894be4e7267b6ae000008445466f3a1ca045ca800c84e12277460d0c898ede42f5402339dbe16c7e2d42afd7bf586d56c2a04567b7855363eed935df8f1c9c362e79dec6cacf41353a10a4a851994dbb3349",
      "networkId": 0,
      "chainId": 0
    }
  ]
}