{
  "hash": "0x8bbd5e4a618a7aec2aaf3326d34ca0d6edd8ddc36e4e14bf9d527d8161ccffed",
  "parentHash": "0x885d2d00118a13ca7826cdc138b7d82dda0b33e36acb7a0489a55ab84b6f8138",
  "number": 118969,
  "timestamp": 1440134430,
  "nonce": "0x3bd00106ad0e4594",
  "difficulty": 4422665644625,
  "gasLimit": {
    "_hex": "0x2fefd8"
  },
  "gasUsed": {
    "_hex": "0x5208"
  },
  "miner": "0x52bc44d5378309EE2abF1539BF71dE1b7d7bE3b5",
  "extraData": "0xd783010002844765746887676f312e342e32856c696e7578",
  "transactions": [
    {
      "hash": "0x5ee34800f635d4ddc6afb06a118490cbe7dd1c9a3f8b2536703047d6321b5bf4",
      "blockHash": "0x8bbd5e4a618a7aec2aaf3326d34ca0d6edd8ddc36e4e14bf9d527d8161ccffed",
      "blockNumber": 118969,
      "transactionIndex": 0,
      "confirmations": null,
      "from": "0xFBb1b73C4f0BDa4f67dcA266ce6Ef42f520fBB98",
      "gasPrice": {
        "_hex": "0xba43b7400"
      },
      "gasLimit": {
        "_hex": "0x5208"
      },
      "to": "0x1Fabd401B08dF84f615091C14C6db1a5E0BeaD0c",
      "value": {
        "_hex": "0x16c2a238ff37d800"
      },
      "nonce": 245,
      "data": "0x",
      "r": "0xbe85689e954e397e83eb93019a5780200595e72c26b02fa9a5bba86f4cc089b3",
      "s": "0x33b8a9dac2a4cd2aaf88c5f5065e37ab030892208db2234639c6323ce23632ad",
      "v": 27,
      "creates": null,
      "raw": "0xf86d81f5850ba43b7400825208941fabd401b08df84f615091c14c6db1a5e0bead0c8816c2a238ff37d800801ba0be85689e954e397e83eb93019a5780200595e72c26b02fa9a5bba86f4cc089b3a033b8a9dac2a4cd2aaf88c5f5065e37ab030892208db2234639c6323ce23632ad",
      "networkId": 0,
      "chainId": 0
    }
  ]
}