{
  "hash": "0x0ee202d341ae0db5c81b8b108002a3e4701c83c328352ca3509ca16d0b16359e",
  "parentHash": "0xbe523aa330a221ba49200209c3bf4c1887bfd3abc82d28256b4564f89e75bca2",
  "number": 108345,
  "timestamp": 1439938679,
  "nonce": "0x3b60cc9ac1ffd3d9",
  "difficulty": 4355361074286,
  "gasLimit": {
    "_hex": "0x2fefd8"
  },
  "gasUsed": {
    "_hex": "0x23e38"
  },
  "miner": "0xe6A7a1d47ff21B6321162AEA7C6CB457D5476Bca",
  "extraData": "0x476574682f76312e302e312d38326566323666362f6c696e75782f676f312e34",
  "transactions": [
    {
      "hash": "0x2c8583fb557bb74953e7f5fbe3c3541f47d801327ee15e02962e3373b0c16c32",
      "blockHash": "0x0ee202d341ae0db5c81b8b108002a3e4701c83c328352ca3509ca16d0b16359e",
      "blockNumber": 108345,
      "transactionIndex": 0,
      "confirmations": null,
      "from": "0x9927939864218A222e4376E689289531E3Fb9569",
      "gasPrice": {
        "_hex": "0xdb836d9e3"
      },
      "gasLimit": {
        "_hex": "0x5208"
      },
      "to": "0x32Be343B94f860124dC4fEe278FDCBD38C102D88",
      "value": {
        "_hex": "0xb8977c1b07de000"
      },
      "nonce": 0,
      "data": "0x",
      "r": "0x0f34a6722d8bdad4ef5098bc729cdf9a62ab195a043f28075f51c4ea7a29cd68",
      "s": "0x6b829cf8c1d3bc6df36f99c34ca95486993583a08913dae2b2675bd0e24c5c53",
      "v": 27,
      "creates": null,
      "raw": "0xf86c80850db836d9e38252089432be343b94f860124dc4fee278fdcbd38c102d88880b8977c1b07de000801ba00f34a6722d8bdad4ef5098bc729cdf9a62ab195a043f28075f51c4ea7a29cd68a06b829cf8c1d3bc6df36f99c34ca95486993583a08913dae2b2675bd0e24c5c53",
      "networkId": 0,
      "chainId": 0
    },
    {
      "hash": "0x319e7ce615dd07767be954b0b940747fdc6d05263b51baf568552291cfcd35bf",
      "blockHash": "0x0ee202d341ae0db5c81b8b108002a3e4701c83c328352ca3509ca16d0b16359e",
      "blockNumber": 108345,
      "transactionIndex": 1,
      "confirmations": null,
      "from": "0x037658E13e294088Cfd16A534b9C1F3B37282eB2",
      "gasPrice": {
        "_hex": "0xdb836d9e3"
      },
      "gasLimit": {
        "_hex": "0x5208"
      },
      "to": "0x32Be343B94f860124dC4fEe278FDCBD38C102D88",
      "value": {
        "_hex": "0x34260e7f8871000"
      },
      "nonce": 4,
      "data": "0x",
      "r": "0xbd2d757a1bf159f6f19f652ff91094dbb4d7bf02ed2e9d6915fa89166b6a272b",
      "s": "0x7f22e41f29f2686e789b855d5e2b9d052bf7648404cd9a3c62734e6ce472462c",
      "v": 28,
      "creates": null,
      "raw": "0xf86c04850db836d9e38252089432be343b94f860124dc4fee278fdcbd38c102d8888034260e7f8871000801ca0bd2d757a1bf159f6f19f652ff91094dbb4d7bf02ed2e9d6915fa89166b6a272ba07f22e41f29f2686e789b855d5e2b9d052bf7648404cd9a3c62734e6ce472462c",
      "networkId": 0,
      "chainId": 0
    },
    {
      "hash": "0xd9c2dac65c2e79c9341ecc5fc2a55e973b2f65f5b84ac7ee22946e39814180d0",
      "blockHash": "0x0ee202d341ae0db5c81b8b108002a3e4701c83c328352ca3509ca16d0b16359e",
      "blockNumber": 108345,
      "transactionIndex": 2,
      "confirmations": null,
      "from": "0x19ae27E1b61445EB9f27821A5eB4b3e957319e7e",
      "gasPrice": {
        "_hex": "0xdb836d9e3"
      },
      "gasLimit": {
        "_hex": "0x5208"
      },
      "to": "0x32Be343B94f860124dC4fEe278FDCBD38C102D88",
      "value": {
        "_hex": "0x1a035f5c2ae38200000"
      },
      "nonce": 16,
      "data": "0x",
      "r": "0x885d78b333e403e1a2004e8014e7d3a99437ac8710775d24db331cc319da9800",
      "s": "0x64fe233de99bce65cee805d87ac0cf876b057b5e922d1d255a43cdc62fa955ad",
      "v": 27,
      "creates": null,
      "raw": "0xf86e10850db836d9e38252089432be343b94f860124dc4fee278fdcbd38c102d888a01a035f5c2ae38200000801ba0885d78b333e403e1a2004e8014e7d3a99437ac8710775d24db331cc319da9800a064fe233de99bce65cee805d87ac0cf876b057b5e922d1d255a43cdc62fa955ad",
      "networkId": 0,
      "chainId": 0
    },
    {
      "hash": "0xd4a2beb73b74151834abba7674fe6524a3a14f472febd8bdd6c90a575dc29723",
      "blockHash": "0x0ee202d341ae0db5c81b8b108002a3e4701c83c328352ca3509ca16d0b16359e",
      "blockNumber": 108345,
      "transactionIndex": 3,
      "confirmations": null,
      "from": "0xFBb1b73C4f0BDa4f67dcA266ce6Ef42f520fBB98",
      "gasPrice": {
        "_hex": "0xd27476dda"
      },
      "gasLimit": {
        "_hex": "0x5208"
      },
      "to": "0xE3d2Ec7B0f0Dcb4a46CbA8df3E271F539F07B9F6",
      "value": {
        "_hex": "0xa130d6b6e4d400"
      },
      "nonce": 178,
      "data": "0x",
      "r": "0xd7c37341da53805770b15d4ea53a99e015bf5ee8bba11886ed25b176413a8415",
      "s": "0x23edcbcc4e5f98569100353284ca1845f7f4117f4e0738d1f71d045bd7f37816",
      "v": 28,
      "creates": null,
      "raw": "0xf86c81b2850d27476dda82520894e3d2ec7b0f0dcb4a46cba8df3e271f539f07b9f687a130d6b6e4d400801ca0d7c37341da53805770b15d4ea53a99e015bf5ee8bba11886ed25b176413a8415a023edcbcc4e5f98569100353284ca1845f7f4117f4e0738d1f71d045bd7f37816",
      "networkId": 0,
      "chainId": 0
    },
    {
      "hash": "0xfd2210e935178ad59b677c13ea200d6787f39614433cd2718f915637d539b10b",
      "blockHash": "0x0ee202d341ae0db5c81b8b108002a3e4701c83c328352ca3509ca16d0b16359e",
      "blockNumber": 108345,
      "transactionIndex": 4,
      "confirmations": null,
      "from": "0xFBb1b73C4f0BDa4f67dcA266ce6Ef42f520fBB98",
      "gasPrice": {
        "_hex": "0xd27476dda"
      },
      "gasLimit": {
        "_hex": "0x5208"
      },
      "to": "0xb4c8A15086d7c2E2aa5506FF51e34e3E23d053a7",
      "value": {
        "_hex": "0x351b41a3c3b1000"
      },
      "nonce": 179,
      "data": "0x",
      "r": "0xa55d2ab9bbdc757bcca204d2b2100e5c661d1b8555e6f9ba60d17d66cb70e155",
      "s": "0x3d540e5ba1daafb6588933b24b28991d25ec03fe4ab636aa6ffb083ea30c6e18",
      "v": 28,
      "creates": null,
      "raw": "0xf86d81b3850d27476dda82520894b4c8a15086d7c2e2aa5506ff51e34e3e23d053a7880351b41a3c3b1000801ca0a55d2ab9bbdc757bcca204d2b2100e5c661d1b8555e6f9ba60d17d66cb70e155a03d540e5ba1daafb6588933b24b28991d25ec03fe4ab636aa6ffb083ea30c6e18",
      "networkId": 0,
      "chainId": 0
    },
    {
      "hash": "0xf4fe08685843bae9d8815b210a56226ea9cacd686eb986fe87aafad78d830b54",
      "blockHash": "0x0ee202d341ae0db5c81b8b108002a3e4701c83c328352ca3509ca16d0b16359e",
      "blockNumber": 108345,
      "transactionIndex": 5,
      "confirmations": null,
      "from": "0xFBb1b73C4f0BDa4f67dcA266ce6Ef42f520fBB98",
      "gasPrice": {
        "_hex": "0xd27476dda"
      },
      "gasLimit": {
        "_hex": "0x5208"
      },
      "to": "0x3a4CC071e426cFFbA54C267391e401e820a5E472",
      "value": {
        "_hex": "0x3c9eb8795dc9800"
      },
      "nonce": 180,
      "data": "0x",
      "r": "0x498b5a869cd7d67f4b1f6ce7381793f1e3b9a083d036752dd98967fabd6e35e0",
      "s": "0x2cf9dac8d69d02b8b39c16f2942d907e3bf7e5de01928c6476bc5dc42a700ff8",
      "v": 27,
      "creates": null,
      "raw": "0xf86d81b4850d27476dda825208943a4cc071e426cffba54c267391e401e820a5e4728803c9eb8795dc9800801ba0498b5a869cd7d67f4b1f6ce7381793f1e3b9a083d036752dd98967fabd6e35e0a02cf9dac8d69d02b8b39c16f2942d907e3bf7e5de01928c6476bc5dc42a700ff8",
      "networkId": 0,
      "chainId": 0
    },
    {
      "hash": "0x7f705090d52781bed4bb267b0c69654c2b079d3a60ec664f849f9a26927fa523",
      "blockHash": "0x0ee202d341ae0db5c81b8b108002a3e4701c83c328352ca3509ca16d0b16359e",
      "blockNumber": 108345,
      "transactionIndex": 6,
      "confirmations": null,
      "from": "0x5F965F10e1BD020753Ca496fee6b3E4D809aff67",
      "gasPrice": {
        "_hex": "0xd27476dda"
      },
      "gasLimit": {
        "_hex": "0x5208"
      },
      "to": "0xFBb1b73C4f0BDa4f67dcA266ce6Ef42f520fBB98",
      "value": {
        "_hex": "0x29330dae9384ee130"
      },
      "nonce": 2,
      "data": "0x",
      "r": "0x3e09d8f4a986c5ed6074eac7b754f9152f30d675adc48f020c2a54cb3752f46b",
      "s": "0x223013a6a0aad88d39b7da9a116b052fc1021a4524a7ac7101af95371a6ffebc",
      "v": 28,
      "creates": null,
      "raw": "0xf86d02850d27476dda82520894fbb1b73c4f0bda4f67dca266ce6ef42f520fbb9889029330dae9384ee130801ca03e09d8f4a986c5ed6074eac7b754f9152f30d675adc48f020c2a54cb3752f46ba0223013a6a0aad88d39b7da9a116b052fc1021a4524a7ac7101af95371a6ffebc",
      "networkId": 0,
      "chainId": 0
    }
  ]
}