{
  "hash": "0x0efaeac570072fd77812c21874a083c45d51f5311f2e7463c80549bf9c26d4ab",
  "parentHash": "0x47bf029a94cb87b4996272f9feadb33fe0c051f0f80e39cb692399e66e1bf489",
  "number": 54360,
  "timestamp": 1439052946,
  "nonce": "0xe5409037ea3f7433",
  "difficulty": 1608660018636,
  "gasLimit": {
    "_hex": "0x2fefd5"
  },
  "gasUsed": {
    "_hex": "0x1b198"
  },
  "miner": "0x9746c7e1ef2bd21FF3997fa467593a89cb852BD0",
  "extraData": "0x476574682f76312e302e312f77696e646f77732f676f312e342e32",
  "transactions": [
    {
      "hash": "0x404e74ed89232bdab70d16b9cc64361f426b1de1d3208eb52f16fcc598b94ba8",
      "blockHash": "0x0efaeac570072fd77812c21874a083c45d51f5311f2e7463c80549bf9c26d4ab",
      "blockNumber": 54360,
      "transactionIndex": 0,
      "confirmations": null,
      "from": "0x8674c218F0351a62C3BA78C34FD2182A93Da94E2",
      "gasPrice": {
        "_hex": "0xd9b8f2f40"
      },
      "gasLimit": {
        "_hex": "0x15f90"
      },
      "to": "0xbA41AF292F5C5eDcC019f5EC41ac03752E4Eb0e1",
      "value": {
        "_hex": "0x0"
      },
      "nonce": 28,
      "data": "0xde6f24bb0000000000000000000000008674c218f0351a62c3ba78c34fd2182a93da94e20000000000000000000000000000000000000000000000000000000000000040000000000000000000000000000000000000000000000000000000000000000668656c6c6f210000000000000000000000000000000000000000000000000000",
      "r": "0x59e55c9ec27904447610ee73bfb0984741ffcd4cbe2207707fe99e8154fdc7f1",
      "s": "0x416eb28df07d606c49f5b5a01585a14abab02d6fe52f8a28e5a470eab12dfa50",
      "v": 28,
      "creates": null,
      "raw": "0xf8ea1c850d9b8f2f4083015f9094ba41af292f5c5edcc019f5ec41ac03752e4eb0e180b884de6f24bb0000000000000000000000008674c218f0351a62c3ba78c34fd2182a93da94e20000000000000000000000000000000000000000000000000000000000000040000000000000000000000000000000000000000000000000000000000000000668656c6c6f2100000000000000000000000000000000000000000000000000001ca059e55c9ec27904447610ee73bfb0984741ffcd4cbe2207707fe99e8154fdc7f1a0416eb28df07d606c49f5b5a01585a14abab02d6fe52f8a28e5a470eab12dfa50",
      "networkId": 0,
      "chainId": 0
    },
    {
      "hash": "0x5e30365c498ac86b5c1673bc08c215e750e31a428955daf467b22b0768e46b5d",
      "blockHash": "0x0efaeac570072fd77812c21874a083c45d51f5311f2e7463c80549bf9c26d4ab",
      "blockNumber": 54360,
      "transactionIndex": 1,
      "confirmations": null,
      "from": "0x7a3193C7532579275d8eD0e2e5680959B06c00F5",
      "gasPrice": {
        "_hex": "0xd69b48315"
      },
      "gasLimit": {
        "_hex": "0x15f90"
      },
      "to": "0xAae61E43CB0d0C96b30699F77E00D711d0a3979b",
      "value": {
        "_hex": "0x63eb89da4ed0000"
      },
      "nonce": 0,
      "data": "0x",
      "r": "0x6cf4b706671b6af0ae8449564161d5aa923df1110454fd23385a13cc82ebd6a1",
      "s": "0x32eba291ee9596c0d788e86cb5475378449468b182f57e002626d1625e560d93",
      "v": 28,
      "creates": null,
      "raw": "0xf86d80850d69b4831583015f9094aae61e43cb0d0c96b30699f77e00d711d0a3979b88063eb89da4ed0000801ca06cf4b706671b6af0ae8449564161d5aa923df1110454fd23385a13cc82ebd6a1a032eba291ee9596c0d788e86cb5475378449468b182f57e002626d1625e560d93",
      "networkId": 0,
      "chainId": 0
    }
  ]
}