{
  "hash": "0x27bf66179d82f30ba9826bdcc4bb3a546efeb24560184f5bbe58d35bf983ba48",
  "parentHash": "0xffd21f39b6a1e7a61f78220efbdd44e1c61edab4eb8165408753d18e775700c8",
  "number": 51625,
  "timestamp": 1439008112,
  "nonce": "0xd415468fa1e7991c",
  "difficulty": 1558913804494,
  "gasLimit": {
    "_hex": "0xc6b88"
  },
  "gasUsed": {
    "_hex": "0x7a120"
  },
  "miner": "0xC49418429e58989172a4ACE0bab0cB8D3F00F97f",
  "extraData": "0x476574682f76312e302e312f6c696e75782f676f312e342e32",
  "transactions": [
    {
      "hash": "0xb017b4138437a9271254ef1f5a0547330020a31384ad3fa044761cd301dcd12c",
      "blockHash": "0x27bf66179d82f30ba9826bdcc4bb3a546efeb24560184f5bbe58d35bf983ba48",
      "blockNumber": 51625,
      "transactionIndex": 0,
      "confirmations": null,
      "from": "0xFCf9f6A78f06227522c6f948ec0119dA31680Ef7",
      "gasPrice": {
        "_hex": "0xdc4b653f2"
      },
      "gasLimit": {
        "_hex": "0x7a120"
      },
      "to": "0x109C4f2CCc82C4d77Bde15F306707320294Aea3F",
      "value": {
        "_hex": "0xde0b6b3a7640000"
      },
      "nonce": 33,
      "data": "0x",
      "r": "0x8cf8a1668b5d38758e1b7cdc619e6f763ceb0f0b976a5430a8320d30b0271561",
      "s": "0x3ce557d95e9605f866a6633e7d4d6e62a08391828948d6ee9d862f98c38d9411",
      "v": 27,
      "creates": null,
      "raw": "0xf86d21850dc4b653f28307a12094109c4f2ccc82c4d77bde15f306707320294aea3f880de0b6b3a7640000801ba08cf8a1668b5d38758e1b7cdc619e6f763ceb0f0b976a5430a8320d30b0271561a03ce557d95e9605f866a6633e7d4d6e62a08391828948d6ee9d862f98c38d9411",
      "networkId": 0,
      "chainId": 0
    }
  ]
}