{
  "hash": "0xb9b283361d689029c100e9ac0ac643a06eff489c811fcc9107c8fadcad113fed",
  "parentHash": "0x1bb60d58c8f6818689258fb8c3dc3ff10be21af458477c06a5de285f3f8db684",
  "number": 74193,
  "timestamp": 1439382009,
  "nonce": "0xcf1b2abc53c78281",
  "difficulty": 2222696030583,
  "gasLimit": {
    "_hex": "0x2fefd5"
  },
  "gasUsed": {
    "_hex": "0xa410"
  },
  "miner": "0xbb7B8287f3F0a933474a79eAe42CBCa977791171",
  "extraData": "0x476574682f4c5649562f76312e302e312f6c696e75782f676f312e342e32",
  "transactions": [
    {
      "hash": "0x28a5df994acbd6b5ef683efa0f2c3c88fb17e00ea35c55102f7611845bb6ba1d",
      "blockHash": "0xb9b283361d689029c100e9ac0ac643a06eff489c811fcc9107c8fadcad113fed",
      "blockNumber": 74193,
      "transactionIndex": 0,
      "confirmations": null,
      "from": "0xa114c802ef29776f05f9c6925cE915232e8ae102",
      "gasPrice": {
        "_hex": "0xcc30d34be"
      },
      "gasLimit": {
        "_hex": "0x5208"
      },
      "to": "0x32Be343B94f860124dC4fEe278FDCBD38C102D88",
      "value": {
        "_hex": "0x455f7aa28e959c00"
      },
      "nonce": 7,
      "data": "0x",
      "r": "0x3206cb679844fd69313ad7939eb4eb5a9c7826d010fc9ab6d11bfa94e1c1b3cc",
      "s": "0x28b328847c831c46705bd9e58a48240f657b85272e10310416a9c8c9c4ba3445",
      "v": 27,
      "creates": null,
      "raw": "0xf86c07850cc30d34be8252089432be343b94f860124dc4fee278fdcbd38c102d8888455f7aa28e959c00801ba03206cb679844fd69313ad7939eb4eb5a9c7826d010fc9ab6d11bfa94e1c1b3cca028b328847c831c46705bd9e58a48240f657b85272e10310416a9c8c9c4ba3445",
      "networkId": 0,
      "chainId": 0
    },
    {
      "hash": "0x785749a22267aa7de52b31bdb26e23cb0a595b977491bc77c64006f59ef22005",
      "blockHash": "0xb9b283361d689029c100e9ac0ac643a06eff489c811fcc9107c8fadcad113fed",
      "blockNumber": 74193,
      "transactionIndex": 1,
      "confirmations": null,
      "from": "0xa70a9a7040d542C632D8e0bE7c5513A8a5Bbc752",
      "gasPrice": {
        "_hex": "0xcc30d34be"
      },
      "gasLimit": {
        "_hex": "0x5208"
      },
      "to": "0x32Be343B94f860124dC4fEe278FDCBD38C102D88",
      "value": {
        "_hex": "0x455f7aa4e2a18000"
      },
      "nonce": 28,
      "data": "0x",
      "r": "0x60e2b798ccd90d81d5b88835fd7bc72d436c82f0ec2317ba97ee3c9589237d14",
      "s": "0x553c2d3f74e3f185d766507385745b6b1c18e7800f77b73becfc613eb7d2b6e3",
      "v": 27,
      "creates": null,
      "raw": "0xf86c1c850cc30d34be8252089432be343b94f860124dc4fee278fdcbd38c102d8888455f7aa4e2a18000801ba060e2b798ccd90d81d5b88835fd7bc72d436c82f0ec2317ba97ee3c9589237d14a0553c2d3f74e3f185d766507385745b6b1c18e7800f77b73becfc613eb7d2b6e3",
      "networkId": 0,
      "chainId": 0
    }
  ]
}