{
  "hash": "0x48e66f77a72e87bd5b8392ab25f6653b98ff0166ae5409fd029a282e2d26824f",
  "parentHash": "0xee22412ed122acbf1af6215ab56115aacc401ed0ece9060245fbab95df52f2b7",
  "number": 103891,
  "timestamp": 1439860522,
  "nonce": "0xfd256c2d3f0b5bd1",
  "difficulty": 4252573848109,
  "gasLimit": {
    "_hex": "0x2fefd5"
  },
  "gasUsed": {
    "_hex": "0x5208"
  },
  "miner": "0x7D45E10A0d63eCCA0694a7cbfF030f4dD87DA0dC",
  "extraData": "0x476574682f76312e302e302f77696e646f77732f676f312e342e32",
  "transactions": [
    {
      "hash": "0x8022dbb94ab85b11a1e419ca2d461eb8229d5c101fbc2170144a14766b56b6df",
      "blockHash": "0x48e66f77a72e87bd5b8392ab25f6653b98ff0166ae5409fd029a282e2d26824f",
      "blockNumber": 103891,
      "transactionIndex": 0,
      "confirmations": null,
      "from": "0x510EdA5601499a0D5E1A006BfFFd833672F2E267",
      "gasPrice": {
        "_hex": "0xd7d40ace3"
      },
      "gasLimit": {
        "_hex": "0x7a120"
      },
      "to": "0xa80b38CE85260252BDb8BE027868c1A32a2201a6",
      "value": {
        "_hex": "0x3635c9adc5dea00000"
      },
      "nonce": 4,
      "data": "0x",
      "r": "0x86c18a611d0a80d6afb1afcf24b19e17c9d8a1a20aeefa03f16582d3f974bdda",
      "s": "0x3a899900668c6e9441b16c79af2cf0ab277e52206ba9c0d5c29229f0b24e9344",
      "v": 27,
      "creates": null,
      "raw": "0xf86e04850d7d40ace38307a12094a80b38ce85260252bdb8be027868c1a32a2201a6893635c9adc5dea00000801ba086c18a611d0a80d6afb1afcf24b19e17c9d8a1a20aeefa03f16582d3f974bddaa03a899900668c6e9441b16c79af2cf0ab277e52206ba9c0d5c29229f0b24e9344",
      "networkId": 0,
      "chainId": 0
    }
  ]
}