{
  "hash": "0xe56b6b499e096f22ea3c8dc2c524c76fbedb662fee810767401ba89075368b70",
  "parentHash": "0xc4962ef97a88f8c11475247a44ee2b6f293386df53aa11e03e439491722bac1a",
  "number": 85435,
  "timestamp": 1439563532,
  "nonce": "0xe8ceb6e22f888b79",
  "difficulty": 2749029500951,
  "gasLimit": {
    "_hex": "0x2fefd8"
  },
  "gasUsed": {
    "_hex": "0x546c"
  },
  "miner": "0x8Bf770A8F2F4cCa135f0699F96f4FB1CEb9c44c9",
  "extraData": "0x",
  "transactions": [
    {
      "hash": "0x974cddbd608253a9854bec75a8964a089ea0054e9ba8753121ca319f9a446582",
      "blockHash": "0xe56b6b499e096f22ea3c8dc2c524c76fbedb662fee810767401ba89075368b70",
      "blockNumber": 85435,
      "transactionIndex": 0,
      "confirmations": null,
      "from": "0x61547d376E5369BCF978fc162c3C56ae453547E8",
      "gasPrice": {
        "_hex": "0x110c8f7d8de"
      },
      "gasLimit": {
        "_hex": "0xc350"
      },
      "to": "0x2910543Af39abA0Cd09dBb2D50200b3E800A63D2",
      "value": {
        "_hex": "0xacf3b1b8894e40000"
      },
      "nonce": 0,
      "data": "0x454e50363252333530",
      "r": "0x143ebe042d41029a216168e399202b2208c1afa75caeda266fd02039d82ac21a",
      "s": "0xe5a15442b8aa9a13e7b8aa7e50790b04fc5cb37b1bcbe46220413fddbf76df19",
      "v": 28,
      "creates": null,
      "raw": "0xf87780860110c8f7d8de82c350942910543af39aba0cd09dbb2d50200b3e800a63d2890acf3b1b8894e4000089454e503632523335301ca0143ebe042d41029a216168e399202b2208c1afa75caeda266fd02039d82ac21aa0e5a15442b8aa9a13e7b8aa7e50790b04fc5cb37b1bcbe46220413fddbf76df19",
      "networkId": 0,
      "chainId": 0
    }
  ]
}