{
  "hash": "0x7a44e1596ef991c3c7b1e9d96c903ece44a6b35a7b328637fc0777b36ab03952",
  "parentHash": "0xccbd9d46bc119f1160930a5087f895a7812117488067981ee1ce6f52d5d33bb8",
  "number": 52180,
  "timestamp": 1439017660,
  "nonce": "0x670b6c15cf570b13",
  "difficulty": 1553491796832,
  "gasLimit": {
    "_hex": "0x10e0e6"
  },
  "gasUsed": {
    "_hex": "0x5208"
  },
  "miner": "0xbb7B8287f3F0a933474a79eAe42CBCa977791171",
  "extraData": "0x476574682f4c5649562f76312e302e312f6c696e75782f676f312e342e32",
  "transactions": [
    {
      "hash": "0x61b140337f7b3f04598d513529043183b4f937da78c0e2eb97619afee6e1d98a",
      "blockHash": "0x7a44e1596ef991c3c7b1e9d96c903ece44a6b35a7b328637fc0777b36ab03952",
      "blockNumber": 52180,
      "transactionIndex": 0,
      "confirmations": null,
      "from": "0x27987110221A880826aDB2E7aB5ECA78c6e31aEc",
      "gasPrice": {
        "_hex": "0xd3a145328"
      },
      "gasLimit": {
        "_hex": "0x15f90"
      },
      "to": "0x320e69e693Df6C1476c13836CDBE2F6E5dEf83A1",
      "value": {
        "_hex": "0xddc9d2b0a655880"
      },
      "nonce": 1,
      "data": "0x",
      "r": "0x86f698443ebbbd2b77e4f0510918f8342a4cb84bc9c1e521131ce84e0a688bb5",
      "s": "0x4555486750a879130a2b4406d573ee51f07d7e89946a614f75d8ce0b7fe0d6eb",
      "v": 27,
      "creates": null,
      "raw": "0xf86d01850d3a14532883015f9094320e69e693df6c1476c13836cdbe2f6e5def83a1880ddc9d2b0a655880801ba086f698443ebbbd2b77e4f0510918f8342a4cb84bc9c1e521131ce84e0a688bb5a04555486750a879130a2b4406d573ee51f07d7e89946a614f75d8ce0b7fe0d6eb",
      "networkId": 0,
      "chainId": 0
    }
  ]
}