{
  "hash": "0xe0b9a3c543410af05dcc2fdfb3d075d2bdd7abf7424974c750018e47e4a5450f",
  "parentHash": "0xa27d56e5d24704abddaaa5f1fbe774ea761c2fa5e7e5c6ab0841d30fca43340e",
  "number": 68749,
  "timestamp": 1439293064,
  "nonce": "0xd49cfbe2d24a3dce",
  "difficulty": 2023124892815,
  "gasLimit": {
    "_hex": "0x2fefd8"
  },
  "gasUsed": {
    "_hex": "0x11074"
  },
  "miner": "0xEF247E639d49461D25F57e9362CadE3120910Ce0",
  "extraData": "0x476574682f76312e302e312f6c696e75782f676f312e342e32",
  "transactions": [
    {
      "hash": "0x3842ecc1907590329b55e3c0c893c5aed09e16408eeeb7f4d0485922d183ed65",
      "blockHash": "0xe0b9a3c543410af05dcc2fdfb3d075d2bdd7abf7424974c750018e47e4a5450f",
      "blockNumber": 68749,
      "transactionIndex": 0,
      "confirmations": null,
      "from": "0xD441bA6FFe06b0BD76330aC8F9c2946dA2dF88A2",
      "gasPrice": {
        "_hex": "0xdc5bd4e28"
      },
      "gasLimit": {
        "_hex": "0x15f90"
      },
      "to": "0xc597A5d92F5dC1137D847db733cfe02c6d209f13",
      "value": {
        "_hex": "0x4563918244f40000"
      },
      "nonce": 2,
      "data": "0x",
      "r": "0x5127cf45c6c0e74f9bc7984b842dc023a897fbca931eeace9a47a23463ea22d5",
      "s": "0x7ad5001aeb67a4b1c78e74ae05c0ca332ebbdf7f1f763410ef177d591d74a8c7",
      "v": 28,
      "creates": null,
      "raw": "0xf86d02850dc5bd4e2883015f9094c597a5d92f5dc1137d847db733cfe02c6d209f13884563918244f40000801ca05127cf45c6c0e74f9bc7984b842dc023a897fbca931eeace9a47a23463ea22d5a07ad5001aeb67a4b1c78e74ae05c0ca332ebbdf7f1f763410ef177d591d74a8c7",
      "networkId": 0,
      "chainId": 0
    },
    {
      "hash": "0xdbd6274c12b0735d0e9bdbb4da06422622437204b116e181be0c09fb7f5c206e",
      "blockHash": "0xe0b9a3c543410af05dcc2fdfb3d075d2bdd7abf7424974c750018e47e4a5450f",
      "blockNumber": 68749,
      "transactionIndex": 1,
      "confirmations": null,
      "from": "0x9aB9F7a4B85412bfbe2f4F63b1C98808851C4F32",
      "gasPrice": {
        "_hex": "0xd606428e3"
      },
      "gasLimit": {
        "_hex": "0x15f90"
      },
      "to": "0x793AE8C1b1a160BFc07BFB0d04F85eab1A71F4f2",
      "value": {
        "_hex": "0x0"
      },
      "nonce": 8,
      "data": "0x3ba15036",
      "r": "0x98a1b44a4faf7946f8281cdc2a488257ad7999b46f068ca15e330413586bc3f1",
      "s": "0x3171adb92e22f842c16d691b1f1c84adb70c30892f68274b985d42c9b2ea9113",
      "v": 28,
      "creates": null,
      "raw": "0xf86908850d606428e383015f9094793ae8c1b1a160bfc07bfb0d04f85eab1a71f4f280843ba150361ca098a1b44a4faf7946f8281cdc2a488257ad7999b46f068ca15e330413586bc3f1a03171adb92e22f842c16d691b1f1c84adb70c30892f68274b985d42c9b2ea9113",
      "networkId": 0,
      "chainId": 0
    }
  ]
}