{
  "hash": "0x7e202059e5b628ce80afaaf8c907fa98b39fe66077383ea5ee84389b403968fc",
  "parentHash": "0x377c403e59ba77b108ca3362a8b97bcf9bb96feaed7708a16c5a9c6db2b9590f",
  "number": 83632,
  "timestamp": 1439538206,
  "nonce": "0x6827065c3b329f93",
  "difficulty": 2451540916091,
  "gasLimit": {
    "_hex": "0x2fefd8"
  },
  "gasUsed": {
    "_hex": "0x5d9f"
  },
  "miner": "0x107C98584d4B18bC54E1D74F4d7a0bF505Ca466f",
  "extraData": "0x",
  "transactions": [
    {
      "hash": "0x8b2ad7d147aafbe062cb67938204159f82ed8fedeb4fcd65b9f5cfd5e7e07213",
      "blockHash": "0x7e202059e5b628ce80afaaf8c907fa98b39fe66077383ea5ee84389b403968fc",
      "blockNumber": 83632,
      "transactionIndex": 0,
      "confirmations": null,
      "from": "0x770d98d31b4353FceEE8560c4CCf803e88C0c4e0",
      "gasPrice": {
        "_hex": "0xd7e689e75"
      },
      "gasLimit": {
        "_hex": "0x15f90"
      },
      "to": "0xCAc7000C7dBaa2E33Af15325AF5D435E011C7BdD",
      "value": {
        "_hex": "0x2979919a1eeac440"
      },
      "nonce": 20,
      "data": "0xb214faa54a4d34544c4f4a33360000000000000000000000000000000000000000000000",
      "r": "0x5212fe9bab106c105c90df4a4bc5a322426ad9ceb2e7bff2a6d4dc0cd93677d7",
      "s": "0x46ded47dfb0518e462b621ae03026eeb08ac6e64ace6d5d4c61afd72575f27d4",
      "v": 27,
      "creates": null,
      "raw": "0xf89114850d7e689e7583015f9094cac7000c7dbaa2e33af15325af5d435e011c7bdd882979919a1eeac440a4b214faa54a4d34544c4f4a333600000000000000000000000000000000000000000000001ba05212fe9bab106c105c90df4a4bc5a322426ad9ceb2e7bff2a6d4dc0cd93677d7a046ded47dfb0518e462b621ae03026eeb08ac6e64ace6d5d4c61afd72575f27d4",
      "networkId": 0,
      "chainId": 0
    }
  ]
}