{
  "hash": "0x64f7f548d3bdcb5d976d0905b3bd1b7247dcb83ca0d4f5ccf5c1cca7a6845f35",
  "parentHash": "0x8f719452e9a9126c13cae8b3a9b19f7db9f9d46d40498352305158e108d0a00c",
  "number": 63874,
  "timestamp": 1439211683,
  "nonce": "0x8b093370033d1598",
  "difficulty": 1853073338627,
  "gasLimit": {
    "_hex": "0x2fefd8"
  },
  "gasUsed": {
    "_hex": "0x5208"
  },
  "miner": "0x1217627fe41A00f0b828317F43E6d58F47dBfc43",
  "extraData": "0x476574682f76312e302e302d66313265303136312f6c696e75782f676f312e34",
  "transactions": [
    {
      "hash": "0x4e3f7e99554c49440ee130ee2cc39ea2bfec0869018b9c8d921d86529d5dcacd",
      "blockHash": "0x64f7f548d3bdcb5d976d0905b3bd1b7247dcb83ca0d4f5ccf5c1cca7a6845f35",
      "blockNumber": 63874,
      "transactionIndex": 0,
      "confirmations": null,
      "from": "0xBFdD9820a04283b289957956353b5F3C1F665EcF",
      "gasPrice": {
        "_hex": "0xd9153f0a1"
      },
      "gasLimit": {
        "_hex": "0x5208"
      },
      "to": "0x32Be343B94f860124dC4fEe278FDCBD38C102D88",
      "value": {
        "_hex": "0x455f38886d008c00"
      },
      "nonce": 16,
      "data": "0x",
      "r": "0x0a6b7bb7e1c5250680305bbf9b6d41188ef7de24534eb6e6e512fbe25f539d49",
      "s": "0x030448ef702eb76caf08315e7de604bc6810959b80bb2bade8a2bdc1dff5f4ed",
      "v": 28,
      "creates": null,
      "raw": "0xf86c10850d9153f0a18252089432be343b94f860124dc4fee278fdcbd38c102d8888455f38886d008c00801ca00a6b7bb7e1c5250680305bbf9b6d41188ef7de24534eb6e6e512fbe25f539d49a0030448ef702eb76caf08315e7de604bc6810959b80bb2bade8a2bdc1dff5f4ed",
      "networkId": 0,
      "chainId": 0
    }
  ]
}