{
  "hash": "0x0e55271f5476fdf4fc90db9b3653c44ad73a620217f7e1689090bc8d4a11554f",
  "parentHash": "0x02c36d1c6167347e5eaa5511f416f0b7af83680b46906bcaaac286ae3303a9d7",
  "number": 51174,
  "timestamp": 1439000555,
  "nonce": "0x80bf53a57730e991",
  "difficulty": 1564335341709,
  "gasLimit": {
    "_hex": "0x96acb"
  },
  "gasUsed": {
    "_hex": "0x5208"
  },
  "miner": "0xF2d2AfF1320476cb8C6b607199D23175cc595693",
  "extraData": "0x476574682f76312e302e312f77696e646f77732f676f312e342e32",
  "transactions": [
    {
      "hash": "0x75ed1d83eb2e2d06a75c201a3b3513f0cb5c75e68712e6f5bfb12266f801181f",
      "blockHash": "0x0e55271f5476fdf4fc90db9b3653c44ad73a620217f7e1689090bc8d4a11554f",
      "blockNumber": 51174,
      "transactionIndex": 0,
      "confirmations": null,
      "from": "0x3D0768da09CE77d25e2d998E6a7b6eD4b9116c2D",
      "gasPrice": {
        "_hex": "0xea0f8a1c8"
      },
      "gasLimit": {
        "_hex": "0x7530"
      },
      "to": "0x5AbFEc25f74Cd88437631a7731906932776356f9",
      "value": {
        "_hex": "0x38d7ea4c68000"
      },
      "nonce": 22,
      "data": "0x",
      "r": "0xb3cae129240914c48f2ecd284914fecced79ceb348cdef5c17a7d5f35171d871",
      "s": "0x0eae815ce6d625bb59cc83e45d21a13c359f030fd1c26802944d8634ddb650ac",
      "v": 28,
      "creates": null,
      "raw": "0xf86b16850ea0f8a1c8827530945abfec25f74cd88437631a7731906932776356f987038d7ea4c68000801ca0b3cae129240914c48f2ecd284914fecced79ceb348cdef5c17a7d5f35171d871a00eae815ce6d625bb59cc83e45d21a13c359f030fd1c26802944d8634ddb650ac",
      "networkId": 0,
      "chainId": 0
    }
  ]
}