{
  "hash": "0x6b5e7383cdc74c625de06e19e1a755a9c801d452405920eff2f1cd6b05658204",
  "parentHash": "0x08fdc115ebd995a7b4edb864a612c28bd9c28c10fc155cdbd6d7dd30e130aa79",
  "number": 48898,
  "timestamp": 1438964822,
  "nonce": "0x255982c34e8d6f55",
  "difficulty": 1474268648305,
  "gasLimit": {
    "_hex": "0x20815"
  },
  "gasUsed": {
    "_hex": "0x546c"
  },
  "miner": "0xf927a40C8B7F6E07c5af7FA2155B4864a4112B13",
  "extraData": "0x476574682f76312e302e312f6c696e75782f676f312e342e32",
  "transactions": [
    {
      "hash": "0xf0277490ca1c83ceab23ccf522739bd9c6ae736ea3e60046b5bf527cde18140e",
      "blockHash": "0x6b5e7383cdc74c625de06e19e1a755a9c801d452405920eff2f1cd6b05658204",
      "blockNumber": 48898,
      "transactionIndex": 0,
      "confirmations": null,
      "from": "0x8E61bF5A2e46D15774172781Cf100ED0962cBb63",
      "gasPrice": {
        "_hex": "0xd604c8bbc"
      },
      "gasLimit": {
        "_hex": "0x15f90"
      },
      "to": "0x2910543Af39abA0Cd09dBb2D50200b3E800A63D2",
      "value": {
        "_hex": "0xde0b6b3a7640000"
      },
      "nonce": 1,
      "data": "0x454e4b353254563252",
      "r": "0x2ba7f7a3be3f609dfb81a833f5d90228d90b88087ca9337bd430661600266496",
      "s": "0x7d4fc757f2506dc1a39e561896d6d878efe7bfaf780e2e22d52466eab78910ba",
      "v": 28,
      "creates": null,
      "raw": "0xf87601850d604c8bbc83015f90942910543af39aba0cd09dbb2d50200b3e800a63d2880de0b6b3a764000089454e4b3532545632521ca02ba7f7a3be3f609dfb81a833f5d90228d90b88087ca9337bd430661600266496a07d4fc757f2506dc1a39e561896d6d878efe7bfaf780e2e22d52466eab78910ba",
      "networkId": 0,
      "chainId": 0
    }
  ]
}