{
  "hash": "0xbae7145a3640260f9573eb31df57a8bfe1f13278264988c3acad5c3678954c79",
  "parentHash": "0x62faca4ecb2827cff2a330bb46f2fb7241a5cecc7300c7ca679927ccba327d31",
  "number": 86292,
  "timestamp": 1439576275,
  "nonce": "0x730719866a3c88a7",
  "difficulty": 2848493654710,
  "gasLimit": {
    "_hex": "0x2fefd8"
  },
  "gasUsed": {
    "_hex": "0x5208"
  },
  "miner": "0xF9df7dCaA26C039BD675B008D4991b34717E0703",
  "extraData": "0x",
  "transactions": [
    {
      "hash": "0x74b6e87c2a1f61fe054845fb182b7d758c9445ec9567523928da8543d9f3f3ca",
      "blockHash": "0xbae7145a3640260f9573eb31df57a8bfe1f13278264988c3acad5c3678954c79",
      "blockNumber": 86292,
      "transactionIndex": 0,
      "confirmations": null,
      "from": "0x2910543Af39abA0Cd09dBb2D50200b3E800A63D2",
      "gasPrice": {
        "_hex": "0xccf096200"
      },
      "gasLimit": {
        "_hex": "0x5208"
      },
      "to": "0x9b18C7Fe0E96C2b7B8868a67b3e2Ef83CE8928cB",
      "value": {
        "_hex": "0x77b10b95f04078000"
      },
      "nonce": 658,
      "data": "0x",
      "r": "0xf2200144867a72f568476090cad40a8d14bed35965e7ef32defd53330997f4e1",
      "s": "0x46156067298c51711a5827b569b16d0eb6663c603fdefa3227581361bd2ca695",
      "v": 28,
      "creates": null,
      "raw": "0xf86f820292850ccf096200825208949b18c7fe0e96c2b7b8868a67b3e2ef83ce8928cb89077b10b95f04078000801ca0f2200144867a72f568476090cad40a8d14bed35965e7ef32defd53330997f4e1a046156067298c51711a5827b569b16d0eb6663c603fdefa3227581361bd2ca695",
      "networkId": 0,
      "chainId": 0
    }
  ]
}