{
  "hash": "0xdc76d3136d274df5e2f16fba304934f160436e4e27bd067e653ba6206776b205",
  "parentHash": "0x479eff3b6713e3e47021ec20fe15c1a327b78312574209546d5e9f75454482ab",
  "number": 68605,
  "timestamp": 1439290549,
  "nonce": "0x74caffce5fd3cdae",
  "difficulty": 2027114967690,
  "gasLimit": {
    "_hex": "0x2fefd8"
  },
  "gasUsed": {
    "_hex": "0xe5ba"
  },
  "miner": "0xa50ec0D39fa913E62f1Bae7074E6F36caA71855b",
  "extraData": "0x",
  "transactions": [
    {
      "hash": "0x07e911ef3f5e9e7b487794e366ff6ce333b7bf815f05a74102e37d9ba1cd6eee",
      "blockHash": "0xdc76d3136d274df5e2f16fba304934f160436e4e27bd067e653ba6206776b205",
      "blockNumber": 68605,
      "transactionIndex": 0,
      "confirmations": null,
      "from": "0x17580B766f7453525ca4C6A88b01b50570EA088C",
      "gasPrice": {
        "_hex": "0xde022de2f"
      },
      "gasLimit": {
        "_hex": "0x61a80"
      },
      "to": "0x5Fe5B7546D1628f7348B023A0393de1FC825A4fD",
      "value": {
        "_hex": "0x1bc16d674ec80000"
      },
      "nonce": 46,
      "data": "0xb595b8b50000000000000000000000000000000000000000000000000000000000000000",
      "r": "0xbbdedf74ae0db5aa399a2923584d8ae397038ea93a3a456da36ba516f81bd995",
      "s": "0x0d2fe7f8a6c3017a92cb7f5ee1448e5d240e7e6e7a15e73b5555be5afc4d8fd8",
      "v": 27,
      "creates": null,
      "raw": "0xf8912e850de022de2f83061a80945fe5b7546d1628f7348b023a0393de1fc825a4fd881bc16d674ec80000a4b595b8b500000000000000000000000000000000000000000000000000000000000000001ba0bbdedf74ae0db5aa399a2923584d8ae397038ea93a3a456da36ba516f81bd995a00d2fe7f8a6c3017a92cb7f5ee1448e5d240e7e6e7a15e73b5555be5afc4d8fd8",
      "networkId": 0,
      "chainId": 0
    },
    {
      "hash": "0x9032212a0afc538c57b2dec59f09df165f239259716ba541e2c7bc0ac6badb7e",
      "blockHash": "0xdc76d3136d274df5e2f16fba304934f160436e4e27bd067e653ba6206776b205",
      "blockNumber": 68605,
      "transactionIndex": 1,
      "confirmations": null,
      "from": "0xDDFD4BBD912D16038aa2F0DEd6BFe35345Ad0081",
      "gasPrice": {
        "_hex": "0xba43b7400"
      },
      "gasLimit": {
        "_hex": "0x5208"
      },
      "to": "0x58A395953681cE59f79E5970ada233e9eF37389F",
      "value": {
        "_hex": "0x1072bbac261c000"
      },
      "nonce": 1,
      "data": "0x",
      "r": "0x9213d56e1f2cbc621ba9f0e3f3f6c7260d203fd40842bf6eb6e41119555f5247",
      "s": "0x3d0a54c4dee12a84eca4848d8babcf73dd42f48cf420eaf4c25f27fbbaa9b82f",
      "v": 28,
      "creates": null,
      "raw": "0xf86c01850ba43b74008252089458a395953681ce59f79e5970ada233e9ef37389f8801072bbac261c000801ca09213d56e1f2cbc621ba9f0e3f3f6c7260d203fd40842bf6eb6e41119555f5247a03d0a54c4dee12a84eca4848d8babcf73dd42f48cf420eaf4c25f27fbbaa9b82f",
      "networkId": 0,
      "chainId": 0
    }
  ]
}