{
  "hash": "0x2ebe9d1966cf8861bb0223b93f52998f38a3ffeb29d664554c8bd2d323e4bea9",
  "parentHash": "0x65ae3e1cbfbcd2233691e59e9851d067253e9c83da6a1af8956cf8ed40b10076",
  "number": 89815,
  "timestamp": 1439629585,
  "nonce": "0xb50af508ceaf52e3",
  "difficulty": 3336965151927,
  "gasLimit": {
    "_hex": "0x2fefd8"
  },
  "gasUsed": {
    "_hex": "0xf618"
  },
  "miner": "0x007f7f58D3eb5b7510A301eCC749FC1fCDDBE14D",
  "extraData": "0x476574682f76312e302e312f77696e646f77732f676f312e342e32",
  "transactions": [
    {
      "hash": "0x4ae2d1a34f9258eb239253ed3c33a9c3479051fbacbd8b187c688fda378de4d4",
      "blockHash": "0x2ebe9d1966cf8861bb0223b93f52998f38a3ffeb29d664554c8bd2d323e4bea9",
      "blockNumber": 89815,
      "transactionIndex": 0,
      "confirmations": null,
      "from": "0x853Bff007d269E0526E871360d79d69D602770dc",
      "gasPrice": {
        "_hex": "0xdc63668c0"
      },
      "gasLimit": {
        "_hex": "0x5208"
      },
      "to": "0x32Be343B94f860124dC4fEe278FDCBD38C102D88",
      "value": {
        "_hex": "0x68e11cfb125f30000"
      },
      "nonce": 5,
      "data": "0x",
      "r": "0xfe4f08d792b900c84039c4cbc5b8e5fd002618a194f64497afdb86f9db66d675",
      "s": "0x3c43a4c91c05cc224448a95690bffcf58b55fb2cb564cde212df77e2b4356f60",
      "v": 28,
      "creates": null,
      "raw": "0xf86d05850dc63668c08252089432be343b94f860124dc4fee278fdcbd38c102d8889068e11cfb125f30000801ca0fe4f08d792b900c84039c4cbc5b8e5fd002618a194f64497afdb86f9db66d675a03c43a4c91c05cc224448a95690bffcf58b55fb2cb564cde212df77e2b4356f60",
      "networkId": 0,
      "chainId": 0
    },
    {
      "hash": "0xf597bd2480098bb7f37d340ce3eb2c05900ea699d12f3a66e87f6ffdc4ef8220",
      "blockHash": "0x2ebe9d1966cf8861bb0223b93f52998f38a3ffeb29d664554c8bd2d323e4bea9",
      "blockNumber": 89815,
      "transactionIndex": 1,
      "confirmations": null,
      "from": "0x7CabE4dE323c392C7135680c61a04d5Eb7519897",
      "gasPrice": {
        "_hex": "0xd852c9c5c"
      },
      "gasLimit": {
        "_hex": "0x5208"
      },
      "to": "0x32Be343B94f860124dC4fEe278FDCBD38C102D88",
      "value": {
        "_hex": "0xf7d8e00d48e71000"
      },
      "nonce": 3,
      "data": "0x",
      "r": "0x77142058e0f4e0eb219d800cf7ea8d541e2e3247ce30498cffdf903ed80de5d5",
      "s": "0x6edfeb6d1c379b25aad80a40ddc2796c1ef03d50c36638af127655dea8bba855",
      "v": 28,
      "creates": null,
      "raw": "0xf86c03850d852c9c5c8252089432be343b94f860124dc4fee278fdcbd38c102d8888f7d8e00d48e71000801ca077142058e0f4e0eb219d800cf7ea8d541e2e3247ce30498cffdf903ed80de5d5a06edfeb6d1c379b25aad80a40ddc2796c1ef03d50c36638af127655dea8bba855",
      "networkId": 0,
      "chainId": 0
    },
    {
      "hash": "0xdfd2a623f52efd45488d1c0fc4b2cd493bbf3cbfb8bf791761f1d2e2f5dc9b4d",
      "blockHash": "0x2ebe9d1966cf8861bb0223b93f52998f38a3ffeb29d664554c8bd2d323e4bea9",
      "blockNumber": 89815,
      "transactionIndex": 2,
      "confirmations": null,
      "from": "0x4bA6C728e6251DC89C317f7dbCA89D4136C0baB0",
      "gasPrice": {
        "_hex": "0xd852c9c5c"
      },
      "gasLimit": {
        "_hex": "0x5208"
      },
      "to": "0x32Be343B94f860124dC4fEe278FDCBD38C102D88",
      "value": {
        "_hex": "0x4b1b57630438e800"
      },
      "nonce": 4,
      "data": "0x",
      "r": "0x4e485cabf628b2c0bff0f82eaf4eea671a07e7e58282a4936d85e86da56cc045",
      "s": "0x1aee50c0a79b841a970a745e29d1bf4971cc267d224138b8a058d5f2b111cee5",
      "v": 28,
      "creates": null,
      "raw": "0xf86c04850d852c9c5c8252089432be343b94f860124dc4fee278fdcbd38c102d88884b1b57630438e800801ca04e485cabf628b2c0bff0f82eaf4eea671a07e7e58282a4936d85e86da56cc045a01aee50c0a79b841a970a745e29d1bf4971cc267d224138b8a058d5f2b111cee5",
      "networkId": 0,
      "chainId": 0
    }
  ]
}