{
  "hash": "0x7bbe5508e166b58e872e6bddc17ca4c016b500718acb6f43bb5d09b1adcbe95a",
  "parentHash": "0x2885bee92e42a2780607b2b0a5b605aaf62c36f11306fe6de4ac1b8604d93f49",
  "number": 84003,
  "timestamp": 1439543771,
  "nonce": "0xddad99cae60e84c4",
  "difficulty": 2476698572638,
  "gasLimit": {
    "_hex": "0x2fefd8"
  },
  "gasUsed": {
    "_hex": "0x5208"
  },
  "miner": "0xf927a40C8B7F6E07c5af7FA2155B4864a4112B13",
  "extraData": "0x",
  "transactions": [
    {
      "hash": "0xcae6a4790563239121b39a5dbbea9447f8b5265842439ee3a96b995f6569245b",
      "blockHash": "0x7bbe5508e166b58e872e6bddc17ca4c016b500718acb6f43bb5d09b1adcbe95a",
      "blockNumber": 84003,
      "transactionIndex": 0,
      "confirmations": null,
      "from": "0xa70a9a7040d542C632D8e0bE7c5513A8a5Bbc752",
      "gasPrice": {
        "_hex": "0xd8784c1a4"
      },
      "gasLimit": {
        "_hex": "0x5208"
      },
      "to": "0x32Be343B94f860124dC4fEe278FDCBD38C102D88",
      "value": {
        "_hex": "0x455f3bae0512b400"
      },
      "nonce": 77,
      "data": "0x",
      "r": "0x382c3fbb851bdaf0d63d7559fe5d90ab7539c3adff4ba27f99bd92cb609993c8",
      "s": "0x349cc462271a86f26b05a1aca16d61868a9e047b8cebb34647e148eb1d031670",
      "v": 28,
      "creates": null,
      "raw": "0xf86c4d850d8784c1a48252089432be343b94f860124dc4fee278fdcbd38c102d8888455f3bae0512b400801ca0382c3fbb851bdaf0d63d7559fe5d90ab7539c3adff4ba27f99bd92cb609993c8a0349cc462271a86f26b05a1aca16d61868a9e047b8cebb34647e148eb1d031670",
      "networkId": 0,
      "chainId": 0
    }
  ]
}