{
  "hash": "0xa00f7572d74de443b1287df67ee8f65c4dac173b35fbca628b97c71e0e5e8731",
  "parentHash": "0xadb1123d8aa63c827ae3f684c969d1eda6363f4eabdb946393dfb2a584d371c4",
  "number": 46554,
  "timestamp": 1438925136,
  "nonce": "0xff05f24d81341cce",
  "difficulty": 1461776385590,
  "gasLimit": {
    "_hex": "0x6843"
  },
  "gasUsed": {
    "_hex": "0x5208"
  },
  "miner": "0x0193d941b50d91BE6567c7eE1C0Fe7AF498b4137",
  "extraData": "0x4a5ace9e4e",
  "transactions": [
    {
      "hash": "0x85e4a08b2033222d8900552d2da73fc04d7f9aef2f73de1a13b0c5a63b5ec915",
      "blockHash": "0xa00f7572d74de443b1287df67ee8f65c4dac173b35fbca628b97c71e0e5e8731",
      "blockNumber": 46554,
      "transactionIndex": 0,
      "confirmations": null,
      "from": "0xfF68C2F39C4e7FE2f92c2DC2f8615b1BF070e0FA",
      "gasPrice": {
        "_hex": "0x618b86e6fd"
      },
      "gasLimit": {
        "_hex": "0x5208"
      },
      "to": "0x0000000000000000000000000000000000000000",
      "value": {
        "_hex": "0xc249fdd327780000"
      },
      "nonce": 0,
      "data": "0x",
      "r": "0x4afb07eb29317b528301a36c0b142f7b9302e57024d574b35ec6c960a31df772",
      "s": "0x58875f52e57b73806a9c4605f94e21452db9345adfc7937c10251db9ce45a956",
      "v": 27,
      "creates": null,
      "raw": "0xf86c8085618b86e6fd82520894000000000000000000000000000000000000000088c249fdd327780000801ba04afb07eb29317b528301a36c0b142f7b9302e57024d574b35ec6c960a31df772a058875f52e57b73806a9c4605f94e21452db9345adfc7937c10251db9ce45a956",
      "networkId": 0,
      "chainId": 0
    }
  ]
}