{
  "hash": "0x61afb2b672509ef902be2d3337222725faf16e8dfdc72866e9a49dee57a5cd68",
  "parentHash": "0xa399d79fb20b24238a654a44d5acbd7868b1f453933907a140d56ff84c9a4c3e",
  "number": 121058,
  "timestamp": 1440170637,
  "nonce": "0x49d755da223446f2",
  "difficulty": 4423723907488,
  "gasLimit": {
    "_hex": "0x2fefd8"
  },
  "gasUsed": {
    "_hex": "0xa410"
  },
  "miner": "0xf8E0CA3Ed80bd541b94BEdCf259e8CF2141A9523",
  "extraData": "0x",
  "transactions": [
    {
      "hash": "0x1c8725a321d0369a8ca1441aa9d16cb06d44cc0062c2045295966f2e9336468f",
      "blockHash": "0x61afb2b672509ef902be2d3337222725faf16e8dfdc72866e9a49dee57a5cd68",
      "blockNumber": 121058,
      "transactionIndex": 0,
      "confirmations": null,
      "from": "0x608f4b86321a68453f9adf6F06F7Fc3E621739ad",
      "gasPrice": {
        "_hex": "0xba43b7400"
      },
      "gasLimit": {
        "_hex": "0x5208"
      },
      "to": "0x32Be343B94f860124dC4fEe278FDCBD38C102D88",
      "value": {
        "_hex": "0x455fd68a17f06000"
      },
      "nonce": 91,
      "data": "0x",
      "r": "0x02c3ad8f46a6b1b05ce79751c0432dcafa34ef0916e0a9321861641eb4321fd9",
      "s": "0x47dee0541d6019f7427148e47489a0ec332705e5e2fa4e3a212c7593d3089337",
      "v": 27,
      "creates": null,
      "raw": "0xf86c5b850ba43b74008252089432be343b94f860124dc4fee278fdcbd38c102d8888455fd68a17f06000801ba002c3ad8f46a6b1b05ce79751c0432dcafa34ef0916e0a9321861641eb4321fd9a047dee0541d6019f7427148e47489a0ec332705e5e2fa4e3a212c7593d3089337",
      "networkId": 0,
      "chainId": 0
    },
    {
      "hash": "0x65bf7568fdbfe484acc3db28dbdd0f146e238413e5a4578b62176bee3fe73f5c",
      "blockHash": "0x61afb2b672509ef902be2d3337222725faf16e8dfdc72866e9a49dee57a5cd68",
      "blockNumber": 121058,
      "transactionIndex": 1,
      "confirmations": null,
      "from": "0xcE2b6a73E0155C41C002D0745D93D9BEd0fbD019",
      "gasPrice": {
        "_hex": "0xba43b7400"
      },
      "gasLimit": {
        "_hex": "0x5208"
      },
      "to": "0x32Be343B94f860124dC4fEe278FDCBD38C102D88",
      "value": {
        "_hex": "0x3c81aebf15dad400"
      },
      "nonce": 5,
      "data": "0x",
      "r": "0x9d9e1cf023deb76ff6f3850b6c47754cd09a52d0d4dc46b219d40d233ca906b9",
      "s": "0x01e3ee827f6f97a133b1354a06c6c446b421396c26fc526d5c2ba95d4ef76473",
      "v": 28,
      "creates": null,
      "raw": "0xf86c05850ba43b74008252089432be343b94f860124dc4fee278fdcbd38c102d88883c81aebf15dad400801ca09d9e1cf023deb76ff6f3850b6c47754cd09a52d0d4dc46b219d40d233ca906b9a001e3ee827f6f97a133b1354a06c6c446b421396c26fc526d5c2ba95d4ef76473",
      "networkId": 0,
      "chainId": 0
    }
  ]
}