{
  "hash": "0xae87ff934100a328ba8b37955f3d87ab8461c9470ece2373d288c2d57bfdb456",
  "parentHash": "0xc41e756ee08eb9835acdfdb2fb1014a9bb97b30e1068415ce1f08702fe4a3834",
  "number": 103605,
  "timestamp": 1439855985,
  "nonce": "0xe3b73806961f5e60",
  "difficulty": 4203173158165,
  "gasLimit": {
    "_hex": "0x2fefd8"
  },
  "gasUsed": {
    "_hex": "0x5208"
  },
  "miner": "0xe6A7a1d47ff21B6321162AEA7C6CB457D5476Bca",
  "extraData": "0x476574682f76312e302e312d38326566323666362f6c696e75782f676f312e34",
  "transactions": [
    {
      "hash": "0xf8b383e7e92a10ce17e05f39db95284c54df6b279c6b23fda81fb90a09d3d1e1",
      "blockHash": "0xae87ff934100a328ba8b37955f3d87ab8461c9470ece2373d288c2d57bfdb456",
      "blockNumber": 103605,
      "transactionIndex": 0,
      "confirmations": null,
      "from": "0x32Be343B94f860124dC4fEe278FDCBD38C102D88",
      "gasPrice": {
        "_hex": "0xcc7fb39ee"
      },
      "gasLimit": {
        "_hex": "0x5208"
      },
      "to": "0x25c6e74Ff1d928df98137AF4dF8430df24F07Cd7",
      "value": {
        "_hex": "0xc617c98db139c0000"
      },
      "nonce": 1127,
      "data": "0x",
      "r": "0x6e9d9bd8e948324313ad0146af36a523927d1c9cdecb3e02bdeafebedbed6864",
      "s": "0x7f1263be85504aad5832e583a3aef8d17196d9e0e8f5a6cb7d5168c70ffb3af8",
      "v": 27,
      "creates": null,
      "raw": "0xf86f820467850cc7fb39ee8252089425c6e74ff1d928df98137af4df8430df24f07cd7890c617c98db139c0000801ba06e9d9bd8e948324313ad0146af36a523927d1c9cdecb3e02bdeafebedbed6864a07f1263be85504aad5832e583a3aef8d17196d9e0e8f5a6cb7d5168c70ffb3af8",
      "networkId": 0,
      "chainId": 0
    }
  ]
}