{
  "hash": "0x7e2206251b7a97745757e38fe86b7a4d3d1d1a6cfd6c24955ebf7fe61606dc5d",
  "parentHash": "0xb4ed20407e0fbad739fea704c20cb27c04c5492567045ef1629b94ffd0ec0a94",
  "number": 95099,
  "timestamp": 1439718959,
  "nonce": "0xafefed163280aca5",
  "difficulty": 3498321986487,
  "gasLimit": {
    "_hex": "0x2fefd8"
  },
  "gasUsed": {
    "_hex": "0xa410"
  },
  "miner": "0x4947190fcC30D3fb3a16233b259bFe6b3492339a",
  "extraData": "0x476574682f76312e302e312d38326566323666362f6c696e75782f676f312e34",
  "transactions": [
    {
      "hash": "0x14b07cfcd2ece94caef209be94ca19e9495d46288dd09cb787bcc4ddf7efb0d1",
      "blockHash": "0x7e2206251b7a97745757e38fe86b7a4d3d1d1a6cfd6c24955ebf7fe61606dc5d",
      "blockNumber": 95099,
      "transactionIndex": 0,
      "confirmations": null,
      "from": "0x32Be343B94f860124dC4fEe278FDCBD38C102D88",
      "gasPrice": {
        "_hex": "0xdb8ae474a"
      },
      "gasLimit": {
        "_hex": "0x5208"
      },
      "to": "0xAaA4BEfA989B980188a418Cc5C4C02E7d9103818",
      "value": {
        "_hex": "0x172bc1501731760000"
      },
      "nonce": 972,
      "data": "0x",
      "r": "0x4f8c89f01a26ed901a672fdd7a5775e5d5708a28bd6deb8d20bb163398908c0b",
      "s": "0x44f68f7897cbf78018421256de3b99f2afc82a6f36eb9f5b9271990644cb760f",
      "v": 28,
      "creates": null,
      "raw": "0xf86f8203cc850db8ae474a82520894aaa4befa989b980188a418cc5c4c02e7d910381889172bc1501731760000801ca04f8c89f01a26ed901a672fdd7a5775e5d5708a28bd6deb8d20bb163398908c0ba044f68f7897cbf78018421256de3b99f2afc82a6f36eb9f5b9271990644cb760f",
      "networkId": 0,
      "chainId": 0
    },
    {
      "hash": "0x6bd29efe0b7760439abd1bf0be83dd65bb9cd884ee4fe87cb57978d05f875151",
      "blockHash": "0x7e2206251b7a97745757e38fe86b7a4d3d1d1a6cfd6c24955ebf7fe61606dc5d",
      "blockNumber": 95099,
      "transactionIndex": 1,
      "confirmations": null,
      "from": "0x32Be343B94f860124dC4fEe278FDCBD38C102D88",
      "gasPrice": {
        "_hex": "0xdb8ae474a"
      },
      "gasLimit": {
        "_hex": "0x5208"
      },
      "to": "0xD6CBc00b3ECFF6E48a1106fEaf62f77C4F52E465",
      "value": {
        "_hex": "0x7be79ef08779200000"
      },
      "nonce": 973,
      "data": "0x",
      "r": "0xdd5dcfc3eb07dc41298a2457bc11b049f476910249741cfc4c779a7e2e4fb05c",
      "s": "0x5bb600f0f782671a8ff1ca659bc754297ac4a515ce2ae679e5515238d9db3091",
      "v": 27,
      "creates": null,
      "raw": "0xf86f8203cd850db8ae474a82520894d6cbc00b3ecff6e48a1106feaf62f77c4f52e465897be79ef08779200000801ba0dd5dcfc3eb07dc41298a2457bc11b049f476910249741cfc4c779a7e2e4fb05ca05bb600f0f782671a8ff1ca659bc754297ac4a515ce2ae679e5515238d9db3091",
      "networkId": 0,
      "chainId": 0
    }
  ]
}