{
  "hash": "0xa82c1d9bb05916d9611f549686e0e68279b3dd4330443a8424cb5f90ff0c1687",
  "parentHash": "0xdd62d02726a17545f1e377efc0f90e85ebbadfafe0b87eb931a6f176ad00ae34",
  "number": 48407,
  "timestamp": 1438956653,
  "nonce": "0x8a88c6719378e438",
  "difficulty": 1457889872267,
  "gasLimit": {
    "_hex": "0x16c53"
  },
  "gasUsed": {
    "_hex": "0x5208"
  },
  "miner": "0xf927a40C8B7F6E07c5af7FA2155B4864a4112B13",
  "extraData": "0x476574682f76312e302e312f6c696e75782f676f312e342e32",
  "transactions": [
    {
      "hash": "0x381b2f35b016bfd6c43b069c19064e37b07b70c84907dfcaa082a0134ae028d6",
      "blockHash": "0xa82c1d9bb05916d9611f549686e0e68279b3dd4330443a8424cb5f90ff0c1687",
      "blockNumber": 48407,
      "transactionIndex": 0,
      "confirmations": null,
      "from": "0x671110d96aAFf11523CC546Bf9940EedFfB2faF7",
      "gasPrice": {
        "_hex": "0x3c90ea0b3e"
      },
      "gasLimit": {
        "_hex": "0x15f90"
      },
      "to": "0x970510Bc87A686a93E9fF410631eb6CE42A761eE",
      "value": {
        "_hex": "0x1a055690d9db80000"
      },
      "nonce": 2,
      "data": "0x",
      "r": "0x619ef9317fa29c83e5f8de908c0f4c2133d365481bc45f2077815dbda02e8bc0",
      "s": "0x76556ded5fce9b66d39bea827a89ad05c318a6df20b916f78f83f74e7da88408",
      "v": 28,
      "creates": null,
      "raw": "0xf86e02853c90ea0b3e83015f9094970510bc87a686a93e9ff410631eb6ce42a761ee8901a055690d9db80000801ca0619ef9317fa29c83e5f8de908c0f4c2133d365481bc45f2077815dbda02e8bc0a076556ded5fce9b66d39bea827a89ad05c318a6df20b916f78f83f74e7da88408",
      "networkId": 0,
      "chainId": 0
    }
  ]
}