{
  "hash": "0x6a6c1cdf53c6647786cbc3c1acc59efa8a797d3f6b47b7e80502029f39e1706b",
  "parentHash": "0xe0e265b03fcd91bb3db0831559249a59b3d8cc42347912b68fe98f5a9c257416",
  "number": 94732,
  "timestamp": 1439713325,
  "nonce": "0xdde72ef844533b7f",
  "difficulty": 3476338254763,
  "gasLimit": {
    "_hex": "0x2fefd8"
  },
  "gasUsed": {
    "_hex": "0xf618"
  },
  "miner": "0xe6A7a1d47ff21B6321162AEA7C6CB457D5476Bca",
  "extraData": "0x476574682f76312e302e312d38326566323666362f6c696e75782f676f312e34",
  "transactions": [
    {
      "hash": "0xd5f1cf3119f818fb5d3f99524f934987e8d3121091d1b27c1dfe1d9dab320b9e",
      "blockHash": "0x6a6c1cdf53c6647786cbc3c1acc59efa8a797d3f6b47b7e80502029f39e1706b",
      "blockNumber": 94732,
      "transactionIndex": 0,
      "confirmations": null,
      "from": "0xEa4933866ad977Ce24bBb244ECc2C79463454Fe4",
      "gasPrice": {
        "_hex": "0xd0a826ab0"
      },
      "gasLimit": {
        "_hex": "0x5208"
      },
      "to": "0x32Be343B94f860124dC4fEe278FDCBD38C102D88",
      "value": {
        "_hex": "0x78621c1548301c00"
      },
      "nonce": 2,
      "data": "0x",
      "r": "0xfec13f1fef9668067fa4b858b51477a2f2b116b11910cceb8c6186b8ebd0afd3",
      "s": "0x0bafb76a7575d2e4b37c83870213b899af18a1895b3498f325ba586b3ac87d5a",
      "v": 28,
      "creates": null,
      "raw": "0xf86c02850d0a826ab08252089432be343b94f860124dc4fee278fdcbd38c102d888878621c1548301c00801ca0fec13f1fef9668067fa4b858b51477a2f2b116b11910cceb8c6186b8ebd0afd3a00bafb76a7575d2e4b37c83870213b899af18a1895b3498f325ba586b3ac87d5a",
      "networkId": 0,
      "chainId": 0
    },
    {
      "hash": "0x96a8dbf9ab8d0474b47e103223b4a3748279d54f3a3a0688511d2dd2e347190f",
      "blockHash": "0x6a6c1cdf53c6647786cbc3c1acc59efa8a797d3f6b47b7e80502029f39e1706b",
      "blockNumber": 94732,
      "transactionIndex": 1,
      "confirmations": null,
      "from": "0xe535C1c29F0091324F184de7a5be5520D1b0b008",
      "gasPrice": {
        "_hex": "0xd0a826ab0"
      },
      "gasLimit": {
        "_hex": "0x5208"
      },
      "to": "0x32Be343B94f860124dC4fEe278FDCBD38C102D88",
      "value": {
        "_hex": "0x627fd65c604a2c00"
      },
      "nonce": 3,
      "data": "0x",
      "r": "0x42e12a8bb71e137d8e132484d01ff5f2821dc126bf13002cd3652fc4cf7e9e2e",
      "s": "0x17398166505f55083b9b0d469a0a496e0ecb57229951dcc877776cb336745664",
      "v": 28,
      "creates": null,
      "raw": "0xf86c03850d0a826ab08252089432be343b94f860124dc4fee278fdcbd38c102d8888627fd65c604a2c00801ca042e12a8bb71e137d8e132484d01ff5f2821dc126bf13002cd3652fc4cf7e9e2ea017398166505f55083b9b0d469a0a496e0ecb57229951dcc877776cb336745664",
      "networkId": 0,
      "chainId": 0
    },
    {
      "hash": "0xdd7d6ee259efe5e706bf547730ef53e7fad92460a8c54075918c0793162e76fb",
      "blockHash": "0x6a6c1cdf53c6647786cbc3c1acc59efa8a797d3f6b47b7e80502029f39e1706b",
      "blockNumber": 94732,
      "transactionIndex": 2,
      "confirmations": null,
      "from": "0xFD6B6e67d15931706d607e2358A1b0aA05f8e256",
      "gasPrice": {
        "_hex": "0xd0a826ab0"
      },
      "gasLimit": {
        "_hex": "0x5208"
      },
      "to": "0x32Be343B94f860124dC4fEe278FDCBD38C102D88",
      "value": {
        "_hex": "0x1d0e50cb18e36c00"
      },
      "nonce": 2,
      "data": "0x",
      "r": "0x8e1d5991ddee09e7ac97733271a17c2fadfe527ea864bd4fb47af8b4c03c45f5",
      "s": "0x328112e2111d8994801b8a907b0508e7ce30020e0c2371c6f798fbedd8904033",
      "v": 27,
      "creates": null,
      "raw": "0xf86c02850d0a826ab08252089432be343b94f860124dc4fee278fdcbd38c102d88881d0e50cb18e36c00801ba08e1d5991ddee09e7ac97733271a17c2fadfe527ea864bd4fb47af8b4c03c45f5a0328112e2111d8994801b8a907b0508e7ce30020e0c2371c6f798fbedd8904033",
      "networkId": 0,
      "chainId": 0
    }
  ]
}