{
  "hash": "0xab466e3799a4d84bb67a2ef5fe15687cd3ca59a143bff2d069d99290674aebeb",
  "parentHash": "0x2626f2b140eeb244b747d772a47387e98c738686cd087bbb24dc2b264b0b61b2",
  "number": 56148,
  "timestamp": 1439082641,
  "nonce": "0xb0b424240b0eb676",
  "difficulty": 1643244722210,
  "gasLimit": {
    "_hex": "0x2fefd2"
  },
  "gasUsed": {
    "_hex": "0xddfd"
  },
  "miner": "0xf927a40C8B7F6E07c5af7FA2155B4864a4112B13",
  "extraData": "0x476574682f76312e302e312f6c696e75782f676f312e342e32",
  "transactions": [
    {
      "hash": "0xf47d9882a704cf4b8239443a251cd7fd05e64f63987c89807974ecfb17db1750",
      "blockHash": "0xab466e3799a4d84bb67a2ef5fe15687cd3ca59a143bff2d069d99290674aebeb",
      "blockNumber": 56148,
      "transactionIndex": 0,
      "confirmations": null,
      "from": "0x91404fD245647b7a1A62120407201eaCe266dC64",
      "gasPrice": {
        "_hex": "0xd35834335"
      },
      "gasLimit": {
        "_hex": "0x7a120"
      },
      "to": "0xA327075af2a223A1C83a36aDa1126afE7430f955",
      "value": {
        "_hex": "0x8ac7230489e80000"
      },
      "nonce": 2,
      "data": "0x",
      "r": "0x3b798cf2840a5c1494a2d5c2eeb7db9d981ab940a4ee627900c0cc1ce74e7404",
      "s": "0x723877dbf27c6e854cfe8b50d0fb38295304fadc66ecab4c2393f937d4dafef5",
      "v": 28,
      "creates": null,
      "raw": "0xf86d02850d358343358307a12094a327075af2a223a1c83a36ada1126afe7430f955888ac7230489e80000801ca03b798cf2840a5c1494a2d5c2eeb7db9d981ab940a4ee627900c0cc1ce74e7404a0723877dbf27c6e854cfe8b50d0fb38295304fadc66ecab4c2393f937d4dafef5",
      "networkId": 0,
      "chainId": 0
    }
  ]
}