{
  "hash": "0x4e50f02ba407f14d6e47f3541bdc60e8f51aeaeea275449c0927aa08cda23d49",
  "parentHash": "0xeefc312a22613d57f61a2fb36cccb01a3c5c0b1f3ff6f2ceefecab3c6747e125",
  "number": 52203,
  "timestamp": 1439018031,
  "nonce": "0xd7ee94e676bf0c2a",
  "difficulty": 1554246261570,
  "gasLimit": {
    "_hex": "0x1131a9"
  },
  "gasUsed": {
    "_hex": "0x5208"
  },
  "miner": "0xdF03a64E38a8103edAb78E94CcaF2475411fff91",
  "extraData": "0x476574682f76312e302e302f77696e646f77732f676f312e342e32",
  "transactions": [
    {
      "hash": "0xe99755134f9e69cd1a239bb3a7851657aa139e98a38f889a76a64ef3f01f3baa",
      "blockHash": "0x4e50f02ba407f14d6e47f3541bdc60e8f51aeaeea275449c0927aa08cda23d49",
      "blockNumber": 52203,
      "transactionIndex": 0,
      "confirmations": null,
      "from": "0xB33F31253E53f81e6bf5b6b57cBF00a42537427C",
      "gasPrice": {
        "_hex": "0x11242a8d974"
      },
      "gasLimit": {
        "_hex": "0x5208"
      },
      "to": "0x51A6D627f66a8923d88D6094C4715380D3057Cb6",
      "value": {
        "_hex": "0x3d5f0cce89acfeee0"
      },
      "nonce": 0,
      "data": "0x",
      "r": "0x3961aa4faab4f78868f4c74d66c1fb500c21b4f8b9b5bcd18dddf0becda1585c",
      "s": "0x29706dd7239d8bad1ee5ca7018d06d56567b9e079def10bdb97544fef73a880b",
      "v": 28,
      "creates": null,
      "raw": "0xf86e8086011242a8d9748252089451a6d627f66a8923d88d6094c4715380d3057cb68903d5f0cce89acfeee0801ca03961aa4faab4f78868f4c74d66c1fb500c21b4f8b9b5bcd18dddf0becda1585ca029706dd7239d8bad1ee5ca7018d06d56567b9e079def10bdb97544fef73a880b",
      "networkId": 0,
      "chainId": 0
    }
  ]
}