{
  "hash": "0xcbbc36db7bc37a777de9e1b4487078792be9b9ce9083cc81188f56474cca97d8",
  "parentHash": "0x961aba195b65c62e819f673731769a9e0cbe321ff7d1c1601d92af7628361cab",
  "number": 66111,
  "timestamp": 1439248760,
  "nonce": "0xb2deefc4525527a5",
  "difficulty": 1951942345616,
  "gasLimit": {
    "_hex": "0x2fefd8"
  },
  "gasUsed": {
    "_hex": "0x5208"
  },
  "miner": "0x0361540510aaC3F834967945511CE54871dc050D",
  "extraData": "0xdd809b302e392e34302b2b326330352a5244617277692f636c612f4a4954",
  "transactions": [
    {
      "hash": "0x5f92c290128ba216c4d22128df742937b18e7ad6a1e4259a77b34d948df1a0fe",
      "blockHash": "0xcbbc36db7bc37a777de9e1b4487078792be9b9ce9083cc81188f56474cca97d8",
      "blockNumber": 66111,
      "transactionIndex": 0,
      "confirmations": null,
      "from": "0x5fF827e73C5B866c300b824fe12719a3DD350513",
      "gasPrice": {
        "_hex": "0xcf1144084"
      },
      "gasLimit": {
        "_hex": "0x5208"
      },
      "to": "0x32Be343B94f860124dC4fEe278FDCBD38C102D88",
      "value": {
        "_hex": "0x455f607a59002c00"
      },
      "nonce": 10,
      "data": "0x",
      "r": "0x5a021817ea0d4ab54ecce99b5187d72f93e0ac7799c7a8d3af4f5dce9b2522d1",
      "s": "0x193d0787668ca069760ee90e0055b547ccd67028feabbb72badec17ca286a121",
      "v": 28,
      "creates": null,
      "raw": "0xf86c0a850cf11440848252089432be343b94f860124dc4fee278fdcbd38c102d8888455f607a59002c00801ca05a021817ea0d4ab54ecce99b5187d72f93e0ac7799c7a8d3af4f5dce9b2522d1a0193d0787668ca069760ee90e0055b547ccd67028feabbb72badec17ca286a121",
      "networkId": 0,
      "chainId": 0
    }
  ]
}