{
  "hash": "0x8cb7ecc0b488ea5de8dfa87d926b42b4009aacabd953d37201fa424484e4b6e9",
  "parentHash": "0xb5e6095df16418d74ae83a867bd24d97ee104fc66ef8025985bc3372b4c6ec3c",
  "number": 80889,
  "timestamp": 1439492746,
  "nonce": "0x114d925778a65068",
  "difficulty": 2448753009943,
  "gasLimit": {
    "_hex": "0x2fefd8"
  },
  "gasUsed": {
    "_hex": "0x19c8c"
  },
  "miner": "0xe6A7a1d47ff21B6321162AEA7C6CB457D5476Bca",
  "extraData": "0x476574682f76312e302e312d38326566323666362f6c696e75782f676f312e34",
  "transactions": [
    {
      "hash": "0x0e9805f09c63f9b514137229d335d7269258e36478b86d4231b7598cf1ce1a14",
      "blockHash": "0x8cb7ecc0b488ea5de8dfa87d926b42b4009aacabd953d37201fa424484e4b6e9",
      "blockNumber": 80889,
      "transactionIndex": 0,
      "confirmations": null,
      "from": "0x860F5ffc10dE767DeD807f71e861D647dFD219b1",
      "gasPrice": {
        "_hex": "0x110c8f7d8de"
      },
      "gasLimit": {
        "_hex": "0xc350"
      },
      "to": "0x2910543Af39abA0Cd09dBb2D50200b3E800A63D2",
      "value": {
        "_hex": "0xd8c870d6b534960000"
      },
      "nonce": 2,
      "data": "0x454e5441475a363552",
      "r": "0x0f39cf10dfd161139d326895f353040d6f7590dba703319c7271ad8d0bb1265f",
      "s": "0x1f194dc4de80b983a165a74a9259cf5fe341118d174699ba5a7398871669d8bf",
      "v": 27,
      "creates": null,
      "raw": "0xf87702860110c8f7d8de82c350942910543af39aba0cd09dbb2d50200b3e800a63d289d8c870d6b53496000089454e5441475a3635521ba00f39cf10dfd161139d326895f353040d6f7590dba703319c7271ad8d0bb1265fa01f194dc4de80b983a165a74a9259cf5fe341118d174699ba5a7398871669d8bf",
      "networkId": 0,
      "chainId": 0
    },
    {
      "hash": "0x48e99da65c8d08cab5ba64c696bd271accf697c86fc65290f3e5ec6c69badbe1",
      "blockHash": "0x8cb7ecc0b488ea5de8dfa87d926b42b4009aacabd953d37201fa424484e4b6e9",
      "blockNumber": 80889,
      "transactionIndex": 1,
      "confirmations": null,
      "from": "0x519DC97eF09491aE962A8F13fe144c71feca4662",
      "gasPrice": {
        "_hex": "0xd0780e155"
      },
      "gasLimit": {
        "_hex": "0x5208"
      },
      "to": "0x32Be343B94f860124dC4fEe278FDCBD38C102D88",
      "value": {
        "_hex": "0x451856cdcf0b6c00"
      },
      "nonce": 2,
      "data": "0x",
      "r": "0x7f4764a5db3ae5cd8f3241b167bc912e2d4cefe7463c7fabb4a863f7aff999ca",
      "s": "0x25a70fa375d5594bb536e4366167e3374bff75ba87aecaa8ae164f8261e9d510",
      "v": 28,
      "creates": null,
      "raw": "0xf86c02850d0780e1558252089432be343b94f860124dc4fee278fdcbd38c102d8888451856cdcf0b6c00801ca07f4764a5db3ae5cd8f3241b167bc912e2d4cefe7463c7fabb4a863f7aff999caa025a70fa375d5594bb536e4366167e3374bff75ba87aecaa8ae164f8261e9d510",
      "networkId": 0,
      "chainId": 0
    },
    {
      "hash": "0xf8a73b10286b46eee077f52f7be248909c03d366302c639c1deab5308828c3e1",
      "blockHash": "0x8cb7ecc0b488ea5de8dfa87d926b42b4009aacabd953d37201fa424484e4b6e9",
      "blockNumber": 80889,
      "transactionIndex": 2,
      "confirmations": null,
      "from": "0x6d33A045c6E37BD756aCFE28Ab25Ba546dF40c4e",
      "gasPrice": {
        "_hex": "0xd0780e155"
      },
      "gasLimit": {
        "_hex": "0x5208"
      },
      "to": "0x32Be343B94f860124dC4fEe278FDCBD38C102D88",
      "value": {
        "_hex": "0x454da13976acec00"
      },
      "nonce": 0,
      "data": "0x",
      "r": "0xae0b9c86cc3f4a8a954f99f709f7e8f829f48f3b25e674aec25a6e7f6087a9bc",
      "s": "0x2bedf52bba089a7c6680b614178422a130e6fd231f4c2b0b8796ef7f258244bd",
      "v": 28,
      "creates": null,
      "raw": "0xf86c80850d0780e1558252089432be343b94f860124dc4fee278fdcbd38c102d8888454da13976acec00801ca0ae0b9c86cc3f4a8a954f99f709f7e8f829f48f3b25e674aec25a6e7f6087a9bca02bedf52bba089a7c6680b614178422a130e6fd231f4c2b0b8796ef7f258244bd",
      "networkId": 0,
      "chainId": 0
    },
    {
      "hash": "0x56e069429c3e67748a1c52a082ed3307c93c355b669ab2d6d3c4b2f5431c5bca",
      "blockHash": "0x8cb7ecc0b488ea5de8dfa87d926b42b4009aacabd953d37201fa424484e4b6e9",
      "blockNumber": 80889,
      "transactionIndex": 3,
      "confirmations": null,
      "from": "0x52cAD867237d735C7bC59F916364743cA70e5F35",
      "gasPrice": {
        "_hex": "0xd0780e155"
      },
      "gasLimit": {
        "_hex": "0x5208"
      },
      "to": "0x32Be343B94f860124dC4fEe278FDCBD38C102D88",
      "value": {
        "_hex": "0x1b71213b4ebaa400"
      },
      "nonce": 0,
      "data": "0x",
      "r": "0x576c19464c1e6e46d6dad5253a9ad2a82511a33af07839a0a8e354170f959a63",
      "s": "0x31b024d3db0b6d93d637bd310ea913658708a3196ab271f522686b8d7486cdd1",
      "v": 27,
      "creates": null,
      "raw": "0xf86c80850d0780e1558252089432be343b94f860124dc4fee278fdcbd38c102d88881b71213b4ebaa400801ba0576c19464c1e6e46d6dad5253a9ad2a82511a33af07839a0a8e354170f959a63a031b024d3db0b6d93d637bd310ea913658708a3196ab271f522686b8d7486cdd1",
      "networkId": 0,
      "chainId": 0
    },
    {
      "hash": "0xf164c6b91984825588e82e85a98e22514c9ebc682d9f856d87b349ba5068a5cd",
      "blockHash": "0x8cb7ecc0b488ea5de8dfa87d926b42b4009aacabd953d37201fa424484e4b6e9",
      "blockNumber": 80889,
      "transactionIndex": 4,
      "confirmations": null,
      "from": "0xdEC7d1B05f89c0Ce0870Ea4AeA18138264675478",
      "gasPrice": {
        "_hex": "0xd0780e155"
      },
      "gasLimit": {
        "_hex": "0x5208"
      },
      "to": "0x32Be343B94f860124dC4fEe278FDCBD38C102D88",
      "value": {
        "_hex": "0x1b1acee69a21090000"
      },
      "nonce": 2,
      "data": "0x",
      "r": "0x899bbec7a195ebdf5d135cb469e89540bcd2c6d41c913aadeb531d01c4221185",
      "s": "0x5c3a44201dc68839a60b7b3b19291402f69173f1c365701b8dd904860020840c",
      "v": 27,
      "creates": null,
      "raw": "0xf86d02850d0780e1558252089432be343b94f860124dc4fee278fdcbd38c102d88891b1acee69a21090000801ba0899bbec7a195ebdf5d135cb469e89540bcd2c6d41c913aadeb531d01c4221185a05c3a44201dc68839a60b7b3b19291402f69173f1c365701b8dd904860020840c",
      "networkId": 0,
      "chainId": 0
    }
  ]
}