{
  "hash": "0x71bc3c7fc6166c81c6bbb1c34287ac17ffae4a8ae214980dd7cc02dac33f6034",
  "parentHash": "0x0d0c41faf00f22072285e6c3fadea74ce2a290ac70df44816260a0c1d57902d5",
  "number": 81518,
  "timestamp": 1439503037,
  "nonce": "0xe146ac7165ff4bdc",
  "difficulty": 2454554659197,
  "gasLimit": {
    "_hex": "0x2fefd8"
  },
  "gasUsed": {
    "_hex": "0x5208"
  },
  "miner": "0xa50ec0D39fa913E62f1Bae7074E6F36caA71855b",
  "extraData": "0xd783010001844765746887676f312e342e32856c696e7578",
  "transactions": [
    {
      "hash": "0x77520b6c233e0d429e3c86f0e6c44297e6be23303413243a0f6fb3a7635e35d3",
      "blockHash": "0x71bc3c7fc6166c81c6bbb1c34287ac17ffae4a8ae214980dd7cc02dac33f6034",
      "blockNumber": 81518,
      "transactionIndex": 0,
      "confirmations": null,
      "from": "0x458F183347F45a4001807728A89F31E9Da9D4A58",
      "gasPrice": {
        "_hex": "0xe0718d1b4"
      },
      "gasLimit": {
        "_hex": "0x15f90"
      },
      "to": "0x7fa165177F28D171bA7C17f765c1904344Ec64CB",
      "value": {
        "_hex": "0x28f0815ec76700000"
      },
      "nonce": 16,
      "data": "0x",
      "r": "0x4e24373661ab9e0de892a324a532e20e21b4dfd42820bad47161a86dd41fc1ee",
      "s": "0x615c1877a848a0a8be95a26ca210388ce81b403ce117a8945993e9fb22742c30",
      "v": 28,
      "creates": null,
      "raw": "0xf86e10850e0718d1b483015f90947fa165177f28d171ba7c17f765c1904344ec64cb89028f0815ec76700000801ca04e24373661ab9e0de892a324a532e20e21b4dfd42820bad47161a86dd41fc1eea0615c1877a848a0a8be95a26ca210388ce81b403ce117a8945993e9fb22742c30",
      "networkId": 0,
      "chainId": 0
    }
  ]
}