{
  "hash": "0x344d6cc27a339d3d68d3aefe18cd434b0aa460aa88c266891d01b1842a6803b1",
  "parentHash": "0x1482ba5bca4a06f19aac63ce50250fdf68e3da760ccc61cd61809cfa6c4b6e26",
  "number": 59024,
  "timestamp": 1439130759,
  "nonce": "0x17b988057d1bbdfe",
  "difficulty": 1709787332927,
  "gasLimit": {
    "_hex": "0x2fefd8"
  },
  "gasUsed": {
    "_hex": "0xf838"
  },
  "miner": "0xF2d2AfF1320476cb8C6b607199D23175cc595693",
  "extraData": "0x476574682f76312e302e312f77696e646f77732f676f312e342e32",
  "transactions": [
    {
      "hash": "0xaf0856985d93a28388902726da0868482489b3394e6290297d76ec4278be08ea",
      "blockHash": "0x344d6cc27a339d3d68d3aefe18cd434b0aa460aa88c266891d01b1842a6803b1",
      "blockNumber": 59024,
      "transactionIndex": 0,
      "confirmations": null,
      "from": "0x96811Ad897894eC178872117C8BF2f03971A393B",
      "gasPrice": {
        "_hex": "0xde2173d2e"
      },
      "gasLimit": {
        "_hex": "0x5208"
      },
      "to": "0x32Be343B94f860124dC4fEe278FDCBD38C102D88",
      "value": {
        "_hex": "0x455f1ea864dbb800"
      },
      "nonce": 6,
      "data": "0x",
      "r": "0xcbace553d799107d47ec4b3c967ef6253b472dfa17b8e495b12ae8ab872cbc1d",
      "s": "0x6c7c32dff717c188e59ffa1225197c303c06b6429118cdbcf02e792ef1dba6d4",
      "v": 27,
      "creates": null,
      "raw": "0xf86c06850de2173d2e8252089432be343b94f860124dc4fee278fdcbd38c102d8888455f1ea864dbb800801ba0cbace553d799107d47ec4b3c967ef6253b472dfa17b8e495b12ae8ab872cbc1da06c7c32dff717c188e59ffa1225197c303c06b6429118cdbcf02e792ef1dba6d4",
      "networkId": 0,
      "chainId": 0
    },
    {
      "hash": "0xe2d5bc882b042f2484ced355a70fe1477f526f3fbcaf0730bb6a3a684fe32900",
      "blockHash": "0x344d6cc27a339d3d68d3aefe18cd434b0aa460aa88c266891d01b1842a6803b1",
      "blockNumber": 59024,
      "transactionIndex": 1,
      "confirmations": null,
      "from": "0xc7bF2ED1ed312940eE6ADED1516E268E4a604856",
      "gasPrice": {
        "_hex": "0xd75fa5f49"
      },
      "gasLimit": {
        "_hex": "0x15f90"
      },
      "to": "0x88a0A05437262a1b65f41A978Cb16CB1f0BFCfE0",
      "value": {
        "_hex": "0x14526dfc6c5678a8000"
      },
      "nonce": 1,
      "data": "0x0a496e759d03f437",
      "r": "0x831e224851b18784b1517d1ffd04e00d6591e28d2f388deed7834bb4ef40ae40",
      "s": "0x0b496519d35f61f2702fff1b93b928e93fa258924e9d0230e24df17f8bfd58a6",
      "v": 28,
      "creates": null,
      "raw": "0xf87701850d75fa5f4983015f909488a0a05437262a1b65f41a978cb16cb1f0bfcfe08a014526dfc6c5678a8000880a496e759d03f4371ca0831e224851b18784b1517d1ffd04e00d6591e28d2f388deed7834bb4ef40ae40a00b496519d35f61f2702fff1b93b928e93fa258924e9d0230e24df17f8bfd58a6",
      "networkId": 0,
      "chainId": 0
    },
    {
      "hash": "0x431de0420f0bf9849c4db086145f443071074d980ea6d4ea7e89b1e268df74cb",
      "blockHash": "0x344d6cc27a339d3d68d3aefe18cd434b0aa460aa88c266891d01b1842a6803b1",
      "blockNumber": 59024,
      "transactionIndex": 2,
      "confirmations": null,
      "from": "0xF61Fe74EEEccbF9A81A32b65586d6c054bd29Fd3",
      "gasPrice": {
        "_hex": "0xba43b7400"
      },
      "gasLimit": {
        "_hex": "0x5267"
      },
      "to": "0xd41CDe3742bE29F53EDb8A99B255F4c0C210935d",
      "value": {
        "_hex": "0x16345785d8a0000"
      },
      "nonce": 0,
      "data": "0x",
      "r": "0x24f474fcd6cb21ed197dd571e0507e6ea671998f669ce4220fce79dab0e2fc89",
      "s": "0x8560f3bd1eae988340641303bf7f90afa90959ccbdd6891898fd340db9ddc9c0",
      "v": 27,
      "creates": null,
      "raw": "0xf86c80850ba43b740082526794d41cde3742be29f53edb8a99b255f4c0c210935d88016345785d8a0000801ba024f474fcd6cb21ed197dd571e0507e6ea671998f669ce4220fce79dab0e2fc89a08560f3bd1eae988340641303bf7f90afa90959ccbdd6891898fd340db9ddc9c0",
      "networkId": 0,
      "chainId": 0
    }
  ]
}