{
  "hash": "0xca6ab0646d1521680e01077507b0bbb357af518f82a76f67c5ddf1c31f0e6ca3",
  "parentHash": "0xf3c93820fae35b97a2f34d8024f9f7df2b3e78789d6ad329dd06b2df40374342",
  "number": 72895,
  "timestamp": 1439359944,
  "nonce": "0xb35192e50a529c21",
  "difficulty": 2194996182680,
  "gasLimit": {
    "_hex": "0x2fefd8"
  },
  "gasUsed": {
    "_hex": "0x15a38"
  },
  "miner": "0x893FF53FE9b3DA680472E1948F2294F970D44678",
  "extraData": "0x476574682f76312e302e312f6c696e75782f676f312e342e32",
  "transactions": [
    {
      "hash": "0x2f0a17821bc12bc5d573d51dec5009c8b096be3c0afdb79252bc51b17ff927f6",
      "blockHash": "0xca6ab0646d1521680e01077507b0bbb357af518f82a76f67c5ddf1c31f0e6ca3",
      "blockNumber": 72895,
      "transactionIndex": 0,
      "confirmations": null,
      "from": "0xB81a113d28921F1a079Dafe4B2466e86B79532A0",
      "gasPrice": {
        "_hex": "0xd56bd3d89"
      },
      "gasLimit": {
        "_hex": "0x7a120"
      },
      "to": "0xc2ac6849Aec3938FB8c9B36F1c07be76f766637E",
      "value": {
        "_hex": "0x8ac7230489e80000"
      },
      "nonce": 0,
      "data": "0x",
      "r": "0xea8d417a71fe75c27bfecf5ec1e6549a9980deb7279fd6041198913609f80a11",
      "s": "0x239688590cf833222e2dc3e35bc1fd917918e9065dd6058ed0afd041a41e2ac7",
      "v": 27,
      "creates": null,
      "raw": "0xf86d80850d56bd3d898307a12094c2ac6849aec3938fb8c9b36f1c07be76f766637e888ac7230489e80000801ba0ea8d417a71fe75c27bfecf5ec1e6549a9980deb7279fd6041198913609f80a11a0239688590cf833222e2dc3e35bc1fd917918e9065dd6058ed0afd041a41e2ac7",
      "networkId": 0,
      "chainId": 0
    }
  ]
}