{
  "hash": "0x8288fe3555f5fc2568c6ca6548da3b4cb3009aa09a16a32a54e19e1d0d3d389a",
  "parentHash": "0x3ba52eb9666309d4e8ab5daafe598aedb8a35d8db77f5206ccee03b84eb64efb",
  "number": 85361,
  "timestamp": 1439562419,
  "nonce": "0x14dd0a519a49e97a",
  "difficulty": 2738336205857,
  "gasLimit": {
    "_hex": "0x2fefd5"
  },
  "gasUsed": {
    "_hex": "0x546c"
  },
  "miner": "0x790b8a3cE86E707ED0eD32bF89B3269692a23CC1",
  "extraData": "0xd783010001844765746887676f312e342e32856c696e7578",
  "transactions": [
    {
      "hash": "0x1d7b726af6e34bc1d322850beb41cf0d9c77f788f7017cde6736822b17facd27",
      "blockHash": "0x8288fe3555f5fc2568c6ca6548da3b4cb3009aa09a16a32a54e19e1d0d3d389a",
      "blockNumber": 85361,
      "transactionIndex": 0,
      "confirmations": null,
      "from": "0xdeFDDfd59B8d2c154EECf5C7c167Bf0BA2905d3e",
      "gasPrice": {
        "_hex": "0x110c8f7d8de"
      },
      "gasLimit": {
        "_hex": "0xc350"
      },
      "to": "0x2910543Af39abA0Cd09dBb2D50200b3E800A63D2",
      "value": {
        "_hex": "0x50f7dd26916b70000"
      },
      "nonce": 0,
      "data": "0x454e55425936395552",
      "r": "0x759db934fe0d02cea1bcc24506b34119bdc25ec35c7f36179ff1ed2608921e67",
      "s": "0xc2a6f04578a533e6dd7a9c5f0cbc0fc86ed4bf4d7d67cf25bc138744cd4ef605",
      "v": 28,
      "creates": null,
      "raw": "0xf87780860110c8f7d8de82c350942910543af39aba0cd09dbb2d50200b3e800a63d289050f7dd26916b7000089454e554259363955521ca0759db934fe0d02cea1bcc24506b34119bdc25ec35c7f36179ff1ed2608921e67a0c2a6f04578a533e6dd7a9c5f0cbc0fc86ed4bf4d7d67cf25bc138744cd4ef605",
      "networkId": 0,
      "chainId": 0
    }
  ]
}