{
  "hash": "0xc5e527ae3986804b6f5ffa7dc68dae1ddef4db113036eb71dab178e800b9b856",
  "parentHash": "0x689c3c5181ae8f88343300dc1c2888575ff90b2af085f62154b2d0122e461d1b",
  "number": 111762,
  "timestamp": 1439995542,
  "nonce": "0x8e59197e11b69e01",
  "difficulty": 4450305906943,
  "gasLimit": {
    "_hex": "0x2fefd8"
  },
  "gasUsed": {
    "_hex": "0x5208"
  },
  "miner": "0xf927a40C8B7F6E07c5af7FA2155B4864a4112B13",
  "extraData": "0x",
  "transactions": [
    {
      "hash": "0x3700b801b8d6eb0ca58bd6f16df04b2748c45e7532101c5f67f6824b41322af0",
      "blockHash": "0xc5e527ae3986804b6f5ffa7dc68dae1ddef4db113036eb71dab178e800b9b856",
      "blockNumber": 111762,
      "transactionIndex": 0,
      "confirmations": null,
      "from": "0xa6BDc31c431B8F97848c9D60cbbe9660dc450eB7",
      "gasPrice": {
        "_hex": "0xe01a91e55"
      },
      "gasLimit": {
        "_hex": "0x5208"
      },
      "to": "0x32Be343B94f860124dC4fEe278FDCBD38C102D88",
      "value": {
        "_hex": "0x455f1488fd297400"
      },
      "nonce": 197,
      "data": "0x",
      "r": "0xb8782e0899875e0c09364cdda2d1e9fe72fd489b0b5b15fc7fed183104f50353",
      "s": "0x5027680ef3467d24e0983feb883393a279182b987abc35d0b91e92f3e5db3909",
      "v": 27,
      "creates": null,
      "raw": "0xf86d81c5850e01a91e558252089432be343b94f860124dc4fee278fdcbd38c102d8888455f1488fd297400801ba0b8782e0899875e0c09364cdda2d1e9fe72fd489b0b5b15fc7fed183104f50353a05027680ef3467d24e0983feb883393a279182b987abc35d0b91e92f3e5db3909",
      "networkId": 0,
      "chainId": 0
    }
  ]
}