{
  "hash": "0xf11c39014de6cdd6b81558be169de66689b4bb1ade53d7c830b1753e71aab820",
  "parentHash": "0xbbea30bf10453450cc7c512fb1f430b5b36dad066e0502fc5d01cc94a90cde7f",
  "number": 72057,
  "timestamp": 1439346477,
  "nonce": "0xbcc95e77da3207f0",
  "difficulty": 2163293364211,
  "gasLimit": {
    "_hex": "0x2fefd8"
  },
  "gasUsed": {
    "_hex": "0x5208"
  },
  "miner": "0x36a3706566A8f9b27e7d604f4702900Acd31f32E",
  "extraData": "0x476574682f76312e302e312f6c696e75782f676f312e342e32",
  "transactions": [
    {
      "hash": "0xa717a1ad62e4b31f6f71a737adda7e99c07d75c7de354c35d49e19d6b17d8b46",
      "blockHash": "0xf11c39014de6cdd6b81558be169de66689b4bb1ade53d7c830b1753e71aab820",
      "blockNumber": 72057,
      "transactionIndex": 0,
      "confirmations": null,
      "from": "0x33fb577a4D214Fe010d32cca7c3eEda63F87cEEF",
      "gasPrice": {
        "_hex": "0xd7d40ace3"
      },
      "gasLimit": {
        "_hex": "0x15f90"
      },
      "to": "0xa64015e0870ff579f8827b39b538C1eda5eF25A0",
      "value": {
        "_hex": "0x16345785d8a0000"
      },
      "nonce": 2,
      "data": "0x",
      "r": "0xe5adebbdc54d38b23d2ad3c7ba6dc2c6da51910a3e0faed5a62f5093bcb70ad5",
      "s": "0x290dbd81b9501e44b9b9b124ae00892a4b8901434c3c3629200062b226e2f64a",
      "v": 28,
      "creates": null,
      "raw": "0xf86d02850d7d40ace383015f9094a64015e0870ff579f8827b39b538c1eda5ef25a088016345785d8a0000801ca0e5adebbdc54d38b23d2ad3c7ba6dc2c6da51910a3e0faed5a62f5093bcb70ad5a0290dbd81b9501e44b9b9b124ae00892a4b8901434c3c3629200062b226e2f64a",
      "networkId": 0,
      "chainId": 0
    }
  ]
}