{
  "hash": "0x47a3c737a3c463050899d896e993e9172f0298a265b02020cdafb9522d9721ad",
  "parentHash": "0x5cdbd88c52954ccead461fe5909d619de6bc55e0a89eab0214174ce8cd28c14f",
  "number": 86575,
  "timestamp": 1439580053,
  "nonce": "0xecee2d6f859d26e5",
  "difficulty": 2903159266803,
  "gasLimit": {
    "_hex": "0x2fefd8"
  },
  "gasUsed": {
    "_hex": "0x5208"
  },
  "miner": "0x88D74a59454F6cF3B51ef6b9136AFb6b9D405A88",
  "extraData": "0x476574682f76312e302e312d37666266393930632f6c696e75782f676f312e34",
  "transactions": [
    {
      "hash": "0x41d33243bb1afda10d3465d14b710c60b25986e5a47f2770a84f84f3c5eb6289",
      "blockHash": "0x47a3c737a3c463050899d896e993e9172f0298a265b02020cdafb9522d9721ad",
      "blockNumber": 86575,
      "transactionIndex": 0,
      "confirmations": null,
      "from": "0xAf1e0b1434C01f7aC75C76D46d3ef605b90A9934",
      "gasPrice": {
        "_hex": "0xd1f217cbf"
      },
      "gasLimit": {
        "_hex": "0x7a120"
      },
      "to": "0xe55bf6FC31c358dcC01D394e6adDde47d3548635",
      "value": {
        "_hex": "0x1a055690d9db80000"
      },
      "nonce": 1,
      "data": "0x",
      "r": "0xbbe787e9951a40c07af53c75a8ca747ad40e5d0af6066ce9f6087f316c9b278c",
      "s": "0x42c35d975e4f3dc78a15affcc1273d86f530ee0338c249ea1c0b6a5546a84fa1",
      "v": 28,
      "creates": null,
      "raw": "0xf86e01850d1f217cbf8307a12094e55bf6fc31c358dcc01d394e6addde47d35486358901a055690d9db80000801ca0bbe787e9951a40c07af53c75a8ca747ad40e5d0af6066ce9f6087f316c9b278ca042c35d975e4f3dc78a15affcc1273d86f530ee0338c249ea1c0b6a5546a84fa1",
      "networkId": 0,
      "chainId": 0
    }
  ]
}