{
  "hash": "0x6d78e9d96171a9a266d399e3b507d6b5767a4d33c548029b27963cea36dd13ec",
  "parentHash": "0x8c325445544c8500959be3cd35d4c79698cd94addd495a3ab54c674ae0446bf0",
  "number": 121042,
  "timestamp": 1440170383,
  "nonce": "0xa594528a174eddd9",
  "difficulty": 4436711502618,
  "gasLimit": {
    "_hex": "0x2fefd8"
  },
  "gasUsed": {
    "_hex": "0x5208"
  },
  "miner": "0xe6A7a1d47ff21B6321162AEA7C6CB457D5476Bca",
  "extraData": "0xd783010002844765746887676f312e342e32856c696e7578",
  "transactions": [
    {
      "hash": "0x349bf2979a3539e1aec40aa5110803f1787f568e13bc0745458b18f7600b0e77",
      "blockHash": "0x6d78e9d96171a9a266d399e3b507d6b5767a4d33c548029b27963cea36dd13ec",
      "blockNumber": 121042,
      "transactionIndex": 0,
      "confirmations": null,
      "from": "0x3f0073d6bBE51612013aA09BC970e08E84D7BA23",
      "gasPrice": {
        "_hex": "0xba43b7400"
      },
      "gasLimit": {
        "_hex": "0x5208"
      },
      "to": "0x32Be343B94f860124dC4fEe278FDCBD38C102D88",
      "value": {
        "_hex": "0x8ac3680c5ce46000"
      },
      "nonce": 10,
      "data": "0x",
      "r": "0xa48cd46b466101fa3b00eb594267c85f6685243ef710b6528a65def9e5a88943",
      "s": "0x28c3301910641773ffe1239e87e21a2b840c27abdff1ed8788e252995da41d3e",
      "v": 27,
      "creates": null,
      "raw": "0xf86c0a850ba43b74008252089432be343b94f860124dc4fee278fdcbd38c102d88888ac3680c5ce46000801ba0a48cd46b466101fa3b00eb594267c85f6685243ef710b6528a65def9e5a88943a028c3301910641773ffe1239e87e21a2b840c27abdff1ed8788e252995da41d3e",
      "networkId": 0,
      "chainId": 0
    }
  ]
}