{
  "hash": "0x6d140e5080d7a058403ee958e763ef4adee510a5584cf1cdcda6739967979a6b",
  "parentHash": "0xf58ae82d61160dc0273913b511f42fecae0d9b613ec67443874b582e4a7c1aaa",
  "number": 86980,
  "timestamp": 1439585480,
  "nonce": "0xd0dd72f27ce3d214",
  "difficulty": 3002492195151,
  "gasLimit": {
    "_hex": "0x2fefd5"
  },
  "gasUsed": {
    "_hex": "0xa410"
  },
  "miner": "0x7366ADF97960d404c38D975e1A8786bEb14B6507",
  "extraData": "0x476574682f76312e302e312f77696e646f77732f676f312e342e32",
  "transactions": [
    {
      "hash": "0x6717a4360bac8e987dcc1e168577a20bb88dea2b32ff3558bcc17586abcc831f",
      "blockHash": "0x6d140e5080d7a058403ee958e763ef4adee510a5584cf1cdcda6739967979a6b",
      "blockNumber": 86980,
      "transactionIndex": 0,
      "confirmations": null,
      "from": "0xC47Aaa860008be6f65B58c6C6E02a84e666EfE31",
      "gasPrice": {
        "_hex": "0xd0d731529"
      },
      "gasLimit": {
        "_hex": "0x15f90"
      },
      "to": "0xA56697139eB8704667673Af60c361AF8C32694E3",
      "value": {
        "_hex": "0x6f057cc550d396d59"
      },
      "nonce": 20,
      "data": "0x",
      "r": "0xce6303162657defe11bc561435c657a00deb127d67858928c3b5e739fe9b834c",
      "s": "0x5bbcdd822fd7b2893aca6221601df33a076ed1a01b098e37f193efaf3f163db0",
      "v": 28,
      "creates": null,
      "raw": "0xf86e14850d0d73152983015f9094a56697139eb8704667673af60c361af8c32694e38906f057cc550d396d59801ca0ce6303162657defe11bc561435c657a00deb127d67858928c3b5e739fe9b834ca05bbcdd822fd7b2893aca6221601df33a076ed1a01b098e37f193efaf3f163db0",
      "networkId": 0,
      "chainId": 0
    },
    {
      "hash": "0xde63df487f4d8876bbb34bef66f7a20ef17ea94e6aec292027101795ef8fda67",
      "blockHash": "0x6d140e5080d7a058403ee958e763ef4adee510a5584cf1cdcda6739967979a6b",
      "blockNumber": 86980,
      "transactionIndex": 1,
      "confirmations": null,
      "from": "0x19D182e96Fd7EeAE2cd0c0280cF63a7E01B6184a",
      "gasPrice": {
        "_hex": "0xba43b7400"
      },
      "gasLimit": {
        "_hex": "0x5208"
      },
      "to": "0xC47Aaa860008be6f65B58c6C6E02a84e666EfE31",
      "value": {
        "_hex": "0x351cf21f646000"
      },
      "nonce": 3,
      "data": "0x",
      "r": "0x4edd222c8ec8e26d23b481a6baedcd9006855e457b747707671c8e1007695331",
      "s": "0x039cf871c8c11344cef9972f69d2e39853f0cc9647e35db42dded8dfb05723b2",
      "v": 28,
      "creates": null,
      "raw": "0xf86b03850ba43b740082520894c47aaa860008be6f65b58c6c6e02a84e666efe3187351cf21f646000801ca04edd222c8ec8e26d23b481a6baedcd9006855e457b747707671c8e1007695331a0039cf871c8c11344cef9972f69d2e39853f0cc9647e35db42dded8dfb05723b2",
      "networkId": 0,
      "chainId": 0
    }
  ]
}