{
  "hash": "0x95edd366bd4e66bb14b50ca8568788f03d6384c0c2db313b2fd0e941e8d0b3bc",
  "parentHash": "0x3281d2eece812969f7f4e88fce627591829c6a722e80c639ca7cd6fb19b35686",
  "number": 87459,
  "timestamp": 1439592556,
  "nonce": "0x463f81466505dbc9",
  "difficulty": 3123444373127,
  "gasLimit": {
    "_hex": "0x2fefd8"
  },
  "gasUsed": {
    "_hex": "0x5208"
  },
  "miner": "0x790b8a3cE86E707ED0eD32bF89B3269692a23CC1",
  "extraData": "0xd783010001844765746887676f312e342e32856c696e7578",
  "transactions": [
    {
      "hash": "0xd406e7c168331b5dab42bd7f46317b7c314475da5babeaa2fa939f57f056bb73",
      "blockHash": "0x95edd366bd4e66bb14b50ca8568788f03d6384c0c2db313b2fd0e941e8d0b3bc",
      "blockNumber": 87459,
      "transactionIndex": 0,
      "confirmations": null,
      "from": "0x120A270bbC009644e35F0bB6ab13f95b8199c4ad",
      "gasPrice": {
        "_hex": "0xd191e1865"
      },
      "gasLimit": {
        "_hex": "0x3d090"
      },
      "to": "0xc5623FA5c297c05c2d965A336b2068CfA0e567FA",
      "value": {
        "_hex": "0x1aefebd32f08854c00"
      },
      "nonce": 500,
      "data": "0x",
      "r": "0x8d2fbeb585d3ee0c3b3ac7e87bea4de4cbe1d3849c9f3471d8fb441049040ad5",
      "s": "0x686356602c47894a374ec7531c9e25ef5010cd42aba607c41eb98b51fc29e4d8",
      "v": 27,
      "creates": null,
      "raw": "0xf8708201f4850d191e18658303d09094c5623fa5c297c05c2d965a336b2068cfa0e567fa891aefebd32f08854c00801ba08d2fbeb585d3ee0c3b3ac7e87bea4de4cbe1d3849c9f3471d8fb441049040ad5a0686356602c47894a374ec7531c9e25ef5010cd42aba607c41eb98b51fc29e4d8",
      "networkId": 0,
      "chainId": 0
    }
  ]
}