{
  "hash": "0xec94f451690c4bab32e8aab6588f9a91db0ef314a8fbccaf973cb3cbf10bd005",
  "parentHash": "0x70708b28adf7a05ecbfcf69935af6cdce512ea73d0e3ea65adcd2168a622c0d6",
  "number": 79267,
  "timestamp": 1439467002,
  "nonce": "0xcdd2caf80215fa33",
  "difficulty": 2325684630338,
  "gasLimit": {
    "_hex": "0x2fefd8"
  },
  "gasUsed": {
    "_hex": "0xa410"
  },
  "miner": "0xf927a40C8B7F6E07c5af7FA2155B4864a4112B13",
  "extraData": "0x",
  "transactions": [
    {
      "hash": "0x90a0284015d3edd7ed7beea0b93e7c91c4e4890a68dd9732cd485ba5a047fa94",
      "blockHash": "0xec94f451690c4bab32e8aab6588f9a91db0ef314a8fbccaf973cb3cbf10bd005",
      "blockNumber": 79267,
      "transactionIndex": 0,
      "confirmations": null,
      "from": "0x32Be343B94f860124dC4fEe278FDCBD38C102D88",
      "gasPrice": {
        "_hex": "0xe03c7433f"
      },
      "gasLimit": {
        "_hex": "0x5208"
      },
      "to": "0xf747F959535B01d4BfDAB64A40DB48D0D6c68edb",
      "value": {
        "_hex": "0x55b4e4db66797800"
      },
      "nonce": 413,
      "data": "0x",
      "r": "0x22101a4f4a9d0dbc664a568abc3d8d63a03d2ebd0d5a2ab52a30f91ee2521229",
      "s": "0x01b72dac6ca797beb1966631f5f37bfeef08b63cfe89618cae01974ac76f3c6d",
      "v": 28,
      "creates": null,
      "raw": "0xf86e82019d850e03c7433f82520894f747f959535b01d4bfdab64a40db48d0d6c68edb8855b4e4db66797800801ca022101a4f4a9d0dbc664a568abc3d8d63a03d2ebd0d5a2ab52a30f91ee2521229a001b72dac6ca797beb1966631f5f37bfeef08b63cfe89618cae01974ac76f3c6d",
      "networkId": 0,
      "chainId": 0
    },
    {
      "hash": "0xaa25edd15db950504ae63588a1a73af81cb7ef12db976d20e14e83adaf285ff1",
      "blockHash": "0xec94f451690c4bab32e8aab6588f9a91db0ef314a8fbccaf973cb3cbf10bd005",
      "blockNumber": 79267,
      "transactionIndex": 1,
      "confirmations": null,
      "from": "0x32Be343B94f860124dC4fEe278FDCBD38C102D88",
      "gasPrice": {
        "_hex": "0xe03c7433f"
      },
      "gasLimit": {
        "_hex": "0x5208"
      },
      "to": "0x841B562a690B0808405F6E3713E1efdbebA96021",
      "value": {
        "_hex": "0x4a54610352a984000"
      },
      "nonce": 414,
      "data": "0x",
      "r": "0xfa4c8acebc8e92b5dbb119dded742862afeeec06accdfe0b4b25c6dc3159d111",
      "s": "0x6b1972753c3eb5acab00d0e71238c48db9ad1ccb0824b8a59ef7b1c2c99ed04b",
      "v": 27,
      "creates": null,
      "raw": "0xf86f82019e850e03c7433f82520894841b562a690b0808405f6e3713e1efdbeba960218904a54610352a984000801ba0fa4c8acebc8e92b5dbb119dded742862afeeec06accdfe0b4b25c6dc3159d111a06b1972753c3eb5acab00d0e71238c48db9ad1ccb0824b8a59ef7b1c2c99ed04b",
      "networkId": 0,
      "chainId": 0
    }
  ]
}