{
  "hash": "0xa7594c7bcc51d9185efcf35cf4cbeaffdf0da36aeb68805dde5bd738d77b35d7",
  "parentHash": "0xed568614507ea9130fb3c31aa9d8027e1a6989b30c1381eceadac6c989e408fb",
  "number": 89698,
  "timestamp": 1439627751,
  "nonce": "0xc9dd3b27ec20bb6b",
  "difficulty": 3325625362089,
  "gasLimit": {
    "_hex": "0x2fefd8"
  },
  "gasUsed": {
    "_hex": "0xa410"
  },
  "miner": "0x007f7f58D3eb5b7510A301eCC749FC1fCDDBE14D",
  "extraData": "0x476574682f76312e302e312f77696e646f77732f676f312e342e32",
  "transactions": [
    {
      "hash": "0xb2e94f0f9d519cd28f0cb90ddb8d8dd2379fe5e0d09396203ee543c224674cdb",
      "blockHash": "0xa7594c7bcc51d9185efcf35cf4cbeaffdf0da36aeb68805dde5bd738d77b35d7",
      "blockNumber": 89698,
      "transactionIndex": 0,
      "confirmations": null,
      "from": "0xa70a9a7040d542C632D8e0bE7c5513A8a5Bbc752",
      "gasPrice": {
        "_hex": "0xdaa15499d"
      },
      "gasLimit": {
        "_hex": "0x5208"
      },
      "to": "0x32Be343B94f860124dC4fEe278FDCBD38C102D88",
      "value": {
        "_hex": "0x455f309a247fec00"
      },
      "nonce": 109,
      "data": "0x",
      "r": "0x2b5ab8e0e7dd9e2c815ba50160efc71d8acf8aa05d8ee031780151bb01989c48",
      "s": "0x711939f4fad4078b5e186686d30ff0dc962a35802f441addb1fc2eaafa2924b2",
      "v": 27,
      "creates": null,
      "raw": "0xf86c6d850daa15499d8252089432be343b94f860124dc4fee278fdcbd38c102d8888455f309a247fec00801ba02b5ab8e0e7dd9e2c815ba50160efc71d8acf8aa05d8ee031780151bb01989c48a0711939f4fad4078b5e186686d30ff0dc962a35802f441addb1fc2eaafa2924b2",
      "networkId": 0,
      "chainId": 0
    },
    {
      "hash": "0xba7dcc7d6bd151d7db7ac039fa7e9dd0542ecb372753daf0461abf1804eb95cd",
      "blockHash": "0xa7594c7bcc51d9185efcf35cf4cbeaffdf0da36aeb68805dde5bd738d77b35d7",
      "blockNumber": 89698,
      "transactionIndex": 1,
      "confirmations": null,
      "from": "0x4D67f4F0Db45b3B5a3424B39ed8d972F710381D5",
      "gasPrice": {
        "_hex": "0xdaa15499d"
      },
      "gasLimit": {
        "_hex": "0x5208"
      },
      "to": "0x32Be343B94f860124dC4fEe278FDCBD38C102D88",
      "value": {
        "_hex": "0x3a2ad9661879b00000"
      },
      "nonce": 2,
      "data": "0x",
      "r": "0x684d82cc648cd33ed4dd8fc7f270591fade587bfccfefe84985917f12e2d12fe",
      "s": "0x284db6b28418a36e939bfce6efcd171973185345ef197accf0448417a61ca782",
      "v": 27,
      "creates": null,
      "raw": "0xf86d02850daa15499d8252089432be343b94f860124dc4fee278fdcbd38c102d88893a2ad9661879b00000801ba0684d82cc648cd33ed4dd8fc7f270591fade587bfccfefe84985917f12e2d12fea0284db6b28418a36e939bfce6efcd171973185345ef197accf0448417a61ca782",
      "networkId": 0,
      "chainId": 0
    }
  ]
}