{
  "hash": "0x58573f83ab203793efeb04ccf605248d13694aea21b82175cc0260b28718120a",
  "parentHash": "0xf7ec8b78923ccd35768e8fa3435da74791ce9c53b33d163f24cf36a0de553183",
  "number": 115422,
  "timestamp": 1440056992,
  "nonce": "0xb3cf3d252d250e8d",
  "difficulty": 4562757510226,
  "gasLimit": {
    "_hex": "0x2fefd8"
  },
  "gasUsed": {
    "_hex": "0x5208"
  },
  "miner": "0xC759dc67E0c3816fdC56A2f5bb29920fc07e767D",
  "extraData": "0x476574682f76312e302e312f77696e646f77732f676f312e342e32",
  "transactions": [
    {
      "hash": "0xf6ca8c00a137623c9619a7a277c3777d34e8bbb05ee951da30a00fc3ec2f054b",
      "blockHash": "0x58573f83ab203793efeb04ccf605248d13694aea21b82175cc0260b28718120a",
      "blockNumber": 115422,
      "transactionIndex": 0,
      "confirmations": null,
      "from": "0xFa9F15F96E3244897308A95163a62861685e8917",
      "gasPrice": {
        "_hex": "0xd10c0354e"
      },
      "gasLimit": {
        "_hex": "0x5208"
      },
      "to": "0x32Be343B94f860124dC4fEe278FDCBD38C102D88",
      "value": {
        "_hex": "0x515ea228b65e78000"
      },
      "nonce": 5,
      "data": "0x",
      "r": "0xd0be9e9538b299854247c47c83eaf7ffa912fb7c0916a2be4a2f497d8783f5a9",
      "s": "0x497a128915377f10194405ed6dc1e82d6d29b3c3f8b4ad64977da0bec72cb55f",
      "v": 28,
      "creates": null,
      "raw": "0xf86d05850d10c0354e8252089432be343b94f860124dc4fee278fdcbd38c102d88890515ea228b65e78000801ca0d0be9e9538b299854247c47c83eaf7ffa912fb7c0916a2be4a2f497d8783f5a9a0497a128915377f10194405ed6dc1e82d6d29b3c3f8b4ad64977da0bec72cb55f",
      "networkId": 0,
      "chainId": 0
    }
  ]
}