{
  "hash": "0xd63f70dc8c65952fc7c93448121a353561bcf1d680df71ac31da47ceef40d7e3",
  "parentHash": "0xd23bf6faeaebafd9f837d0c74032e72015433c40b9caab48a98e04ac348d3825",
  "number": 82171,
  "timestamp": 1439514763,
  "nonce": "0xbaf32f8bf6ba9ba6",
  "difficulty": 2389327698545,
  "gasLimit": {
    "_hex": "0x2fefd8"
  },
  "gasUsed": {
    "_hex": "0xf618"
  },
  "miner": "0xf32866D5cE9a9b5673e076be48AbCd6ED48ADe78",
  "extraData": "0x476574682f76312e302e312d37666266393930632f6c696e75782f676f312e34",
  "transactions": [
    {
      "hash": "0x3663466aebff1dac7f8c1e2900af9c417a47e9ec06a51628bae612c5c725382e",
      "blockHash": "0xd63f70dc8c65952fc7c93448121a353561bcf1d680df71ac31da47ceef40d7e3",
      "blockNumber": 82171,
      "transactionIndex": 0,
      "confirmations": null,
      "from": "0x548303a76b24d477704da08a513179F39AE78C7c",
      "gasPrice": {
        "_hex": "0x10dc90d85e7"
      },
      "gasLimit": {
        "_hex": "0x15f90"
      },
      "to": "0x82226e5858223d7aac5A9b3193c8c1fd4Bb4E1F3",
      "value": {
        "_hex": "0x5188315f776b80000"
      },
      "nonce": 2,
      "data": "0x",
      "r": "0x3fdfeb2170fc982777d315d8eb6255f1e509f6c7b3020a140a08d2dd0b5e0634",
      "s": "0x31c005a9c45c5b9e6bf95767403e475e89940f6919f17f972eb81f0ba9a91bb3",
      "v": 27,
      "creates": null,
      "raw": "0xf86f0286010dc90d85e783015f909482226e5858223d7aac5a9b3193c8c1fd4bb4e1f38905188315f776b80000801ba03fdfeb2170fc982777d315d8eb6255f1e509f6c7b3020a140a08d2dd0b5e0634a031c005a9c45c5b9e6bf95767403e475e89940f6919f17f972eb81f0ba9a91bb3",
      "networkId": 0,
      "chainId": 0
    },
    {
      "hash": "0x842f788f4bea638bcf9a8e73c99f79e102bf3e865e5c9c091799acae1ebdd5a1",
      "blockHash": "0xd63f70dc8c65952fc7c93448121a353561bcf1d680df71ac31da47ceef40d7e3",
      "blockNumber": 82171,
      "transactionIndex": 1,
      "confirmations": null,
      "from": "0x2D1d94521E896625F8Ec3f65171Fa82262Da6BCF",
      "gasPrice": {
        "_hex": "0xd5458e1d5"
      },
      "gasLimit": {
        "_hex": "0x5208"
      },
      "to": "0x32Be343B94f860124dC4fEe278FDCBD38C102D88",
      "value": {
        "_hex": "0xddc714557418000"
      },
      "nonce": 3,
      "data": "0x",
      "r": "0xfba3fc4ce609fa125e074e5a3df193f2628cc391bea7edfeef3d3c411f33c3fc",
      "s": "0x77dd69eeac1c8d3c573fa1c261cc84cd935bcd08dcaab12f7998198ed09a4b34",
      "v": 28,
      "creates": null,
      "raw": "0xf86c03850d5458e1d58252089432be343b94f860124dc4fee278fdcbd38c102d88880ddc714557418000801ca0fba3fc4ce609fa125e074e5a3df193f2628cc391bea7edfeef3d3c411f33c3fca077dd69eeac1c8d3c573fa1c261cc84cd935bcd08dcaab12f7998198ed09a4b34",
      "networkId": 0,
      "chainId": 0
    },
    {
      "hash": "0x6cb999a0081a482658c8a638ab36b1bd9076dba26c628b0753484712cfabebdc",
      "blockHash": "0xd63f70dc8c65952fc7c93448121a353561bcf1d680df71ac31da47ceef40d7e3",
      "blockNumber": 82171,
      "transactionIndex": 2,
      "confirmations": null,
      "from": "0x7B89C493d5Fcf87179238C662C2Ef012c0d07a99",
      "gasPrice": {
        "_hex": "0xd5458e1d5"
      },
      "gasLimit": {
        "_hex": "0x5208"
      },
      "to": "0x32Be343B94f860124dC4fEe278FDCBD38C102D88",
      "value": {
        "_hex": "0x5149a820651e300000"
      },
      "nonce": 0,
      "data": "0x",
      "r": "0x385925f160a7cde7d067112cf26473ce582e37c279a85f77a12e8cf4e07ad2cf",
      "s": "0x740d62c8fb749df8f360231c18886d2cf42a8538da8d237445ce7a4387b2da4e",
      "v": 28,
      "creates": null,
      "raw": "0xf86d80850d5458e1d58252089432be343b94f860124dc4fee278fdcbd38c102d88895149a820651e300000801ca0385925f160a7cde7d067112cf26473ce582e37c279a85f77a12e8cf4e07ad2cfa0740d62c8fb749df8f360231c18886d2cf42a8538da8d237445ce7a4387b2da4e",
      "networkId": 0,
      "chainId": 0
    }
  ]
}