{
  "hash": "0x8a733496523ed7619f4f15fd14087ca9c6a8349402fe44e358661ac6d458be9f",
  "parentHash": "0xb437316ec452c52f9350a6e0d1eb3f6b7bac5264c3b2703c9b1d7b579f17ff96",
  "number": 98516,
  "timestamp": 1439774189,
  "nonce": "0xf823b89f5a45151e",
  "difficulty": 3857505079081,
  "gasLimit": {
    "_hex": "0x2fefd8"
  },
  "gasUsed": {
    "_hex": "0x546c"
  },
  "miner": "0x580992B51e3925e23280EfB93d3047C82f17E038",
  "extraData": "0x476574682f76312e302e312f6c696e75782f676f312e342e32",
  "transactions": [
    {
      "hash": "0x04a4377bcf82f750df3ebb8ff0db425aff6e0f60e17aca34cb07bbf25ef40058",
      "blockHash": "0x8a733496523ed7619f4f15fd14087ca9c6a8349402fe44e358661ac6d458be9f",
      "blockNumber": 98516,
      "transactionIndex": 0,
      "confirmations": null,
      "from": "0xB3A6Bd41f9d9C3201e050b87198FBdA399342210",
      "gasPrice": {
        "_hex": "0x110c8f7d8de"
      },
      "gasLimit": {
        "_hex": "0xc350"
      },
      "to": "0x2910543Af39abA0Cd09dBb2D50200b3E800A63D2",
      "value": {
        "_hex": "0x226abadc42f80000"
      },
      "nonce": 3,
      "data": "0x454e504647514d3138",
      "r": "0x2b8cdf179e1694655b7f5234eca095cf95b243177b12ca4b6ae66bd74c44a6b8",
      "s": "0x03af3e1ec1de93cadcb84976e93b4c7859916978ed7fc159ca5cbe6d94ceaa10",
      "v": 28,
      "creates": null,
      "raw": "0xf87603860110c8f7d8de82c350942910543af39aba0cd09dbb2d50200b3e800a63d288226abadc42f8000089454e504647514d31381ca02b8cdf179e1694655b7f5234eca095cf95b243177b12ca4b6ae66bd74c44a6b8a003af3e1ec1de93cadcb84976e93b4c7859916978ed7fc159ca5cbe6d94ceaa10",
      "networkId": 0,
      "chainId": 0
    }
  ]
}