{
  "hash": "0xef58d207a3c53cc6c2f3d592e728d3d25d57172db9907e479f88ce64f8827d54",
  "parentHash": "0x12be7a4ae41cd7073807ab9eb28b9c1cbf5967133c2efb4ef12e0d76bbec8679",
  "number": 67767,
  "timestamp": 1439277041,
  "nonce": "0xd1fd5c7005329801",
  "difficulty": 1943948649038,
  "gasLimit": {
    "_hex": "0x2fefd8"
  },
  "gasUsed": {
    "_hex": "0x7c2d"
  },
  "miner": "0x63BBedc46A1113Ba7938CF7C18CCb5Aed20eC733",
  "extraData": "0x",
  "transactions": [
    {
      "hash": "0x5cb73a05986705ed81a8447ebae439c95a67f69601cac736c7fac876a90de345",
      "blockHash": "0xef58d207a3c53cc6c2f3d592e728d3d25d57172db9907e479f88ce64f8827d54",
      "blockNumber": 67767,
      "transactionIndex": 0,
      "confirmations": null,
      "from": "0x976349705b839e2F5719387Fb27D2519d519da03",
      "gasPrice": {
        "_hex": "0xe14247be5"
      },
      "gasLimit": {
        "_hex": "0x15f90"
      },
      "to": "0x125B606C67E8066Da65069652b656c19717745Fa",
      "value": {
        "_hex": "0x4934825a37f4ce"
      },
      "nonce": 16,
      "data": "0xa55526db",
      "r": "0xb37792cd3d8e9bc74b23198e2ea28811b859e72ab225b2278c9b8c356a3627c7",
      "s": "0x7f98dc993d3014d7033ea4f49dcd9600be4d05ea7ad45b8918a7ceedcc5ff4f8",
      "v": 28,
      "creates": null,
      "raw": "0xf87010850e14247be583015f9094125b606c67e8066da65069652b656c19717745fa874934825a37f4ce84a55526db1ca0b37792cd3d8e9bc74b23198e2ea28811b859e72ab225b2278c9b8c356a3627c7a07f98dc993d3014d7033ea4f49dcd9600be4d05ea7ad45b8918a7ceedcc5ff4f8",
      "networkId": 0,
      "chainId": 0
    }
  ]
}