{
  "hash": "0x0cc09b4fd9825eab0bdd34903d5aecf9a3278d065d0070f5cfc73c7111220e4e",
  "parentHash": "0xa1d69f113f867d6479181b16c75449acd95d43779fe815cfdb2cfe5782b19c60",
  "number": 62525,
  "timestamp": 1439190235,
  "nonce": "0x00b3cccb43208e07",
  "difficulty": 1767635986808,
  "gasLimit": {
    "_hex": "0x2fefd8"
  },
  "gasUsed": {
    "_hex": "0x2a76"
  },
  "miner": "0xf927a40C8B7F6E07c5af7FA2155B4864a4112B13",
  "extraData": "0x476574682f76312e302e312f6c696e75782f676f312e342e32",
  "transactions": [
    {
      "hash": "0xab469b61d3b5c0280e67f857768f8329590102393dd64a855ce7c079cef5a664",
      "blockHash": "0x0cc09b4fd9825eab0bdd34903d5aecf9a3278d065d0070f5cfc73c7111220e4e",
      "blockNumber": 62525,
      "transactionIndex": 0,
      "confirmations": null,
      "from": "0xc8ebccC5F5689Fa8659d83713341e5aD19349448",
      "gasPrice": {
        "_hex": "0xccbb8ee4c"
      },
      "gasLimit": {
        "_hex": "0x15f90"
      },
      "to": "0xC7d3E431Be6222543364408a94C12C0D089Be305",
      "value": {
        "_hex": "0x0"
      },
      "nonce": 24,
      "data": "0xb603cd80",
      "r": "0x86a5c49dcfedcee7465ad3f2b22c459360d0aa737e15af0779c69784611da532",
      "s": "0x4cdfc022239ea93f9f1ebb9e6b59e38a6fd1f634848f77e08b1c3cd59834cc0d",
      "v": 27,
      "creates": null,
      "raw": "0xf86918850ccbb8ee4c83015f9094c7d3e431be6222543364408a94c12c0d089be3058084b603cd801ba086a5c49dcfedcee7465ad3f2b22c459360d0aa737e15af0779c69784611da532a04cdfc022239ea93f9f1ebb9e6b59e38a6fd1f634848f77e08b1c3cd59834cc0d",
      "networkId": 0,
      "chainId": 0
    }
  ]
}