{
  "hash": "0x12f6c0a23320dda5a9c6749f752025698f39b10dc0f24b16770a72be229e569d",
  "parentHash": "0xbba7c34472106f6e95a1839047d80e2f0337e2c086a9df1cc4d7f515a7bbec44",
  "number": 102497,
  "timestamp": 1439838886,
  "nonce": "0x64f814441f9bd73c",
  "difficulty": 3964493416629,
  "gasLimit": {
    "_hex": "0x2fefd8"
  },
  "gasUsed": {
    "_hex": "0x5208"
  },
  "miner": "0x68BCeBFB3DCad8a30a3a72d5b81f47De7e8bE48D",
  "extraData": "0x476574682f76312e302e312f6c696e75782f676f312e342e32",
  "transactions": [
    {
      "hash": "0xcb047e8327d8c3b90ce86c2c3749ffcda8bfde90bca50da89c8f0743ef628ded",
      "blockHash": "0x12f6c0a23320dda5a9c6749f752025698f39b10dc0f24b16770a72be229e569d",
      "blockNumber": 102497,
      "transactionIndex": 0,
      "confirmations": null,
      "from": "0x2910543Af39abA0Cd09dBb2D50200b3E800A63D2",
      "gasPrice": {
        "_hex": "0xdf2aa76e8"
      },
      "gasLimit": {
        "_hex": "0x5208"
      },
      "to": "0xA143616A882230de7571d01f1916F0A781d6480a",
      "value": {
        "_hex": "0x2cfe7e96ff7e578000"
      },
      "nonce": 998,
      "data": "0x",
      "r": "0x1f375bf095802f04fbd831350f6d91f5bf845d7f07a2f87eb24d158a728a0807",
      "s": "0x492850f79374b1f00fad283411a35a458a619bbcc359614b4e644816882b0d8a",
      "v": 28,
      "creates": null,
      "raw": "0xf86f8203e6850df2aa76e882520894a143616a882230de7571d01f1916f0a781d6480a892cfe7e96ff7e578000801ca01f375bf095802f04fbd831350f6d91f5bf845d7f07a2f87eb24d158a728a0807a0492850f79374b1f00fad283411a35a458a619bbcc359614b4e644816882b0d8a",
      "networkId": 0,
      "chainId": 0
    }
  ]
}