{
  "hash": "0xa366b980e718f7b5e721765d7620bbf780269f04a4e6edca518aaf3e58125426",
  "parentHash": "0x53c50b8271e3d8e71ff9340c298a3aa578b0f6e500b850330d7bf060dddc6de4",
  "number": 108955,
  "timestamp": 1439948940,
  "nonce": "0x0fbcfb23c6cddc8e",
  "difficulty": 4389201413154,
  "gasLimit": {
    "_hex": "0x2fefd8"
  },
  "gasUsed": {
    "_hex": "0x14820"
  },
  "miner": "0x580992B51e3925e23280EfB93d3047C82f17E038",
  "extraData": "0x476574682f76312e302e312f6c696e75782f676f312e342e32",
  "transactions": [
    {
      "hash": "0xf0c204548c49af31ff35b1a03f73576edd73c1503afdf113261180506dfc1ca9",
      "blockHash": "0xa366b980e718f7b5e721765d7620bbf780269f04a4e6edca518aaf3e58125426",
      "blockNumber": 108955,
      "transactionIndex": 0,
      "confirmations": null,
      "from": "0x3b8E0D4377E08D6d82FB5F22B246399f54bfCddD",
      "gasPrice": {
        "_hex": "0xdd4263010"
      },
      "gasLimit": {
        "_hex": "0x15f90"
      },
      "to": "0xefe8745972E5cF49d99F05a72ad83A23db5D0A07",
      "value": {
        "_hex": "0x7dae43649721a0000"
      },
      "nonce": 1,
      "data": "0x",
      "r": "0x173ec4dfae07dd5bd53bdc2f56d240f88d269be7ab5741a98a9c625ccd5c763a",
      "s": "0x49f4c9c65de1dde9cdb2e3bdc95a65d17475c44be145f6823f2145a64a44db8e",
      "v": 27,
      "creates": null,
      "raw": "0xf86e01850dd426301083015f9094efe8745972e5cf49d99f05a72ad83a23db5d0a078907dae43649721a0000801ba0173ec4dfae07dd5bd53bdc2f56d240f88d269be7ab5741a98a9c625ccd5c763aa049f4c9c65de1dde9cdb2e3bdc95a65d17475c44be145f6823f2145a64a44db8e",
      "networkId": 0,
      "chainId": 0
    },
    {
      "hash": "0xcf2c3af37c9a926264f6c326447c5edb2890955809b207496b76a44b9e008949",
      "blockHash": "0xa366b980e718f7b5e721765d7620bbf780269f04a4e6edca518aaf3e58125426",
      "blockNumber": 108955,
      "transactionIndex": 1,
      "confirmations": null,
      "from": "0x32Be343B94f860124dC4fEe278FDCBD38C102D88",
      "gasPrice": {
        "_hex": "0xcce1b745b"
      },
      "gasLimit": {
        "_hex": "0x5208"
      },
      "to": "0x00D497b37Ce44e75ACE856c096d52419E2A7375A",
      "value": {
        "_hex": "0x106cf83ea31f5c0000"
      },
      "nonce": 1264,
      "data": "0x",
      "r": "0x70bb98a66559895fbbc27b697f0029d414c1db70940036fb5c31b86278ef61f3",
      "s": "0x169f75dbc2cc9349e87e3be49977c2fbb9cca3df9c4e8b120dbd51e433a25e21",
      "v": 28,
      "creates": null,
      "raw": "0xf86f8204f0850cce1b745b8252089400d497b37ce44e75ace856c096d52419e2a7375a89106cf83ea31f5c0000801ca070bb98a66559895fbbc27b697f0029d414c1db70940036fb5c31b86278ef61f3a0169f75dbc2cc9349e87e3be49977c2fbb9cca3df9c4e8b120dbd51e433a25e21",
      "networkId": 0,
      "chainId": 0
    },
    {
      "hash": "0xfbf36605b4ad441df82b500a078cedb584942c9e53539a7f5e54b7bc5626e0ea",
      "blockHash": "0xa366b980e718f7b5e721765d7620bbf780269f04a4e6edca518aaf3e58125426",
      "blockNumber": 108955,
      "transactionIndex": 2,
      "confirmations": null,
      "from": "0x120A270bbC009644e35F0bB6ab13f95b8199c4ad",
      "gasPrice": {
        "_hex": "0xcc412e1e6"
      },
      "gasLimit": {
        "_hex": "0x3d090"
      },
      "to": "0xD3c6b518F1631509963232bA8e1882D3474a5838",
      "value": {
        "_hex": "0x2331213fa75e651c00"
      },
      "nonce": 845,
      "data": "0x",
      "r": "0xa5e5903c0237bfb2c2199995d3164894122e862ff94c7a4c987c699fc4a44acd",
      "s": "0x2168ea12f03cd3564eb5fd929fcc2438cc7553841c91a63d30b5b8fef1053697",
      "v": 27,
      "creates": null,
      "raw": "0xf87082034d850cc412e1e68303d09094d3c6b518f1631509963232ba8e1882d3474a5838892331213fa75e651c00801ba0a5e5903c0237bfb2c2199995d3164894122e862ff94c7a4c987c699fc4a44acda02168ea12f03cd3564eb5fd929fcc2438cc7553841c91a63d30b5b8fef1053697",
      "networkId": 0,
      "chainId": 0
    },
    {
      "hash": "0xc0b247e69710f06f1c9f85406c944672e57196f691d5c2dfb09d66073c84d2ef",
      "blockHash": "0xa366b980e718f7b5e721765d7620bbf780269f04a4e6edca518aaf3e58125426",
      "blockNumber": 108955,
      "transactionIndex": 3,
      "confirmations": null,
      "from": "0x120A270bbC009644e35F0bB6ab13f95b8199c4ad",
      "gasPrice": {
        "_hex": "0xcc412e1e6"
      },
      "gasLimit": {
        "_hex": "0x3d090"
      },
      "to": "0xa4c027CD05C0e4D7bb6a28AdC1cd8B392468e8fF",
      "value": {
        "_hex": "0x214a24732fe967b800"
      },
      "nonce": 846,
      "data": "0x",
      "r": "0x6ef36034016c48a951ec55df876d82fe9f3a1b3f2edece14b8f26b9834a0b8f2",
      "s": "0x501bb6a25376ee95e0b5e11430e2d68d600c4293e923cfe622c6df9de092506c",
      "v": 27,
      "creates": null,
      "raw": "0xf87082034e850cc412e1e68303d09094a4c027cd05c0e4d7bb6a28adc1cd8b392468e8ff89214a24732fe967b800801ba06ef36034016c48a951ec55df876d82fe9f3a1b3f2edece14b8f26b9834a0b8f2a0501bb6a25376ee95e0b5e11430e2d68d600c4293e923cfe622c6df9de092506c",
      "networkId": 0,
      "chainId": 0
    }
  ]
}