{
  "hash": "0x2630e85935f4cae7595c3333c9762a44164f14b434dfdeaa2d49b3a3106029ff",
  "parentHash": "0xbdf9474d781db6728b68a9f14f027145a7d60a60badb1d1a7174d274cd9a536a",
  "number": 59625,
  "timestamp": 1439141132,
  "nonce": "0x53ec921ce1edb6bf",
  "difficulty": 1703831233708,
  "gasLimit": {
    "_hex": "0x2fefd5"
  },
  "gasUsed": {
    "_hex": "0x5758"
  },
  "miner": "0x9746c7e1ef2bd21FF3997fa467593a89cb852BD0",
  "extraData": "0x476574682f76312e302e312f77696e646f77732f676f312e342e32",
  "transactions": [
    {
      "hash": "0xa27a705848df2b770ec5d25ce2c7f40a50ffb0de528c412d1f9e9b3a868094f4",
      "blockHash": "0x2630e85935f4cae7595c3333c9762a44164f14b434dfdeaa2d49b3a3106029ff",
      "blockNumber": 59625,
      "transactionIndex": 0,
      "confirmations": null,
      "from": "0x073f70b5bfAde6409E4951EF72BC8F4157677729",
      "gasPrice": {
        "_hex": "0xdcc38b08a"
      },
      "gasLimit": {
        "_hex": "0x7a120"
      },
      "to": "0x9Ed1a2bc358C216483b6D52b9C404B766E2c87c0",
      "value": {
        "_hex": "0x0"
      },
      "nonce": 18,
      "data": "0x7c1c171600000000000000000000000000000000000000000000000000000b41330d1a2f",
      "r": "0x3870d93a805b57a100485f72a94b95cee0ace7d6a8eeb71421e757338e304dcf",
      "s": "0x698ad5842d77ec00c25fa66945cfa87a2131d1cc362b72a09e2d4fe91947c55b",
      "v": 27,
      "creates": null,
      "raw": "0xf88912850dcc38b08a8307a120949ed1a2bc358c216483b6d52b9c404b766e2c87c080a47c1c171600000000000000000000000000000000000000000000000000000b41330d1a2f1ba03870d93a805b57a100485f72a94b95cee0ace7d6a8eeb71421e757338e304dcfa0698ad5842d77ec00c25fa66945cfa87a2131d1cc362b72a09e2d4fe91947c55b",
      "networkId": 0,
      "chainId": 0
    }
  ]
}