{
  "hash": "0xf7ff74605958c5fe2b094f1f0356d24207a70f709df611e2c4fc8bc71eb62c28",
  "parentHash": "0xa379c6f861ecb59e801fcb904075ddad9a32018f17a1d5a7e7e827728841ba32",
  "number": 89311,
  "timestamp": 1439621423,
  "nonce": "0x86b99677b7684e98",
  "difficulty": 3304734748667,
  "gasLimit": {
    "_hex": "0x2fefd8"
  },
  "gasUsed": {
    "_hex": "0xa541"
  },
  "miner": "0xD3E2F0F585C1bDF616A23E113223ba0D26865B01",
  "extraData": "0x476574682f76312e302e312f77696e646f77732f676f312e342e32",
  "transactions": [
    {
      "hash": "0xf57d6d5ea6684176a24bada71507ae5a32babed8888102a32fc896444d364782",
      "blockHash": "0xf7ff74605958c5fe2b094f1f0356d24207a70f709df611e2c4fc8bc71eb62c28",
      "blockNumber": 89311,
      "transactionIndex": 0,
      "confirmations": null,
      "from": "0x073f70b5bfAde6409E4951EF72BC8F4157677729",
      "gasPrice": {
        "_hex": "0xd42d42865"
      },
      "gasLimit": {
        "_hex": "0x15f90"
      },
      "to": "0xa50156cF80fa9eC2e16899E4fb7e072300787417",
      "value": {
        "_hex": "0x0"
      },
      "nonce": 25,
      "data": "0xf7c1f50a",
      "r": "0x33c099451b7a8a27ed7983877a0ba4655ab93e876a06dcedde17cccddf6cb4a0",
      "s": "0x7894569b755fabb9fe2b89d175b5bd4a31c2a1d2a5ce13a87c9f656a3e2cc235",
      "v": 27,
      "creates": null,
      "raw": "0xf86919850d42d4286583015f9094a50156cf80fa9ec2e16899e4fb7e0723007874178084f7c1f50a1ba033c099451b7a8a27ed7983877a0ba4655ab93e876a06dcedde17cccddf6cb4a0a07894569b755fabb9fe2b89d175b5bd4a31c2a1d2a5ce13a87c9f656a3e2cc235",
      "networkId": 0,
      "chainId": 0
    }
  ]
}