{
  "hash": "0x560ba302672099683067050b4c80a994d11552773654330ada209f54c1b2dd43",
  "parentHash": "0xd5b167123c52b7428f49c5baaf23180c643210e8ce04b246562bc909229add94",
  "number": 75088,
  "timestamp": 1439397395,
  "nonce": "0x8fb517a1a5969eed",
  "difficulty": 2191210295585,
  "gasLimit": {
    "_hex": "0x2fefd8"
  },
  "gasUsed": {
    "_hex": "0x5208"
  },
  "miner": "0x31995C46B15C84523cDEE26f49A681b8237e43F5",
  "extraData": "0x476574682f76312e302e312f77696e646f77732f676f312e342e32",
  "transactions": [
    {
      "hash": "0xf09261e3fb1dd70e0cdc82ac828f32ace22c1726dd932c101d46d50728bc7ae5",
      "blockHash": "0x560ba302672099683067050b4c80a994d11552773654330ada209f54c1b2dd43",
      "blockNumber": 75088,
      "transactionIndex": 0,
      "confirmations": null,
      "from": "0x71DF8F549b285B3b1037cd6b090B0E2dfE51Db90",
      "gasPrice": {
        "_hex": "0xd35e27b69"
      },
      "gasLimit": {
        "_hex": "0x15f90"
      },
      "to": "0x881067183D45A90A21F5AD90f313Acf29704C7a9",
      "value": {
        "_hex": "0xa2a15d09519be00000"
      },
      "nonce": 1,
      "data": "0x",
      "r": "0xdf65f50f7d41abd99e13052d52a3518a5c4f7087e62d2e1887baad348fcb91b4",
      "s": "0x623e2e2d701e4fe3b2b9fab0d1933c50f6eb2c095ff91500b75cf7f6ca061df4",
      "v": 27,
      "creates": null,
      "raw": "0xf86e01850d35e27b6983015f9094881067183d45a90a21f5ad90f313acf29704c7a989a2a15d09519be00000801ba0df65f50f7d41abd99e13052d52a3518a5c4f7087e62d2e1887baad348fcb91b4a0623e2e2d701e4fe3b2b9fab0d1933c50f6eb2c095ff91500b75cf7f6ca061df4",
      "networkId": 0,
      "chainId": 0
    }
  ]
}