{
  "hash": "0x5bf8f214403f741ec548db724fa73fd14be9a94a9094e431133049ce093ad031",
  "parentHash": "0xdc76d3136d274df5e2f16fba304934f160436e4e27bd067e653ba6206776b205",
  "number": 68606,
  "timestamp": 1439290561,
  "nonce": "0xf45a9612405c4ab2",
  "difficulty": 2028104769920,
  "gasLimit": {
    "_hex": "0x2fefd8"
  },
  "gasUsed": {
    "_hex": "0x23e38"
  },
  "miner": "0x39A1BB80a741bF5EC39FB9BE59408Fa0F418fFBf",
  "extraData": "0x476574682f76312e302e312f77696e646f77732f676f312e342e32",
  "transactions": [
    {
      "hash": "0x6c8382a800b6ef68812178637990333253bdac0da1921c000c8a00564ac204cf",
      "blockHash": "0x5bf8f214403f741ec548db724fa73fd14be9a94a9094e431133049ce093ad031",
      "blockNumber": 68606,
      "transactionIndex": 0,
      "confirmations": null,
      "from": "0x1b2718De9BfE9111a6Ed2390f0E9A3f55992a334",
      "gasPrice": {
        "_hex": "0xba43b7400"
      },
      "gasLimit": {
        "_hex": "0x5208"
      },
      "to": "0xfE94F82d40F91E6A01CdBE078be982b8b54389a4",
      "value": {
        "_hex": "0x1072bbac261c000"
      },
      "nonce": 1,
      "data": "0x",
      "r": "0x268369b484db050d309e08aa6269435e45f5d3351457e90db48e2bf1d2c10ba3",
      "s": "0x3e111f8ffc429973d08ac1cff335a5bb3f585c6c4ef9f0f80d908a01f20d2834",
      "v": 27,
      "creates": null,
      "raw": "0xf86c01850ba43b740082520894fe94f82d40f91e6a01cdbe078be982b8b54389a48801072bbac261c000801ba0268369b484db050d309e08aa6269435e45f5d3351457e90db48e2bf1d2c10ba3a03e111f8ffc429973d08ac1cff335a5bb3f585c6c4ef9f0f80d908a01f20d2834",
      "networkId": 0,
      "chainId": 0
    },
    {
      "hash": "0xdd644e7f4d3d0ccd9d99ae189124d4cb00b022c5154fd87e47128cd58781a5a2",
      "blockHash": "0x5bf8f214403f741ec548db724fa73fd14be9a94a9094e431133049ce093ad031",
      "blockNumber": 68606,
      "transactionIndex": 1,
      "confirmations": null,
      "from": "0x45d27E2B8F32a9f9509DDe8F4C105beC0861421c",
      "gasPrice": {
        "_hex": "0xba43b7400"
      },
      "gasLimit": {
        "_hex": "0x5208"
      },
      "to": "0x438C20e016acd6bdd5f332d8d68ADD063252d2bf",
      "value": {
        "_hex": "0x1072bbac261c000"
      },
      "nonce": 1,
      "data": "0x",
      "r": "0x90eacbdf6988c71a8cfa54f2baddebc3f2573ba52316b6d54d583f2bcdbed455",
      "s": "0x768794f96a4f29a08b71e55f1566f96940bbc77dec2c6c5e1f95148ea382f4b1",
      "v": 27,
      "creates": null,
      "raw": "0xf86c01850ba43b740082520894438c20e016acd6bdd5f332d8d68add063252d2bf8801072bbac261c000801ba090eacbdf6988c71a8cfa54f2baddebc3f2573ba52316b6d54d583f2bcdbed455a0768794f96a4f29a08b71e55f1566f96940bbc77dec2c6c5e1f95148ea382f4b1",
      "networkId": 0,
      "chainId": 0
    },
    {
      "hash": "0xf25112b523035ebf98eeb33977258b7edeb6bc419dd99b899a8ed14a7879d6a0",
      "blockHash": "0x5bf8f214403f741ec548db724fa73fd14be9a94a9094e431133049ce093ad031",
      "blockNumber": 68606,
      "transactionIndex": 2,
      "confirmations": null,
      "from": "0x7ec0d342Ffc78a83DfF3F257BC6e8ccff46A78a8",
      "gasPrice": {
        "_hex": "0xba43b7400"
      },
      "gasLimit": {
        "_hex": "0x5208"
      },
      "to": "0x76f609cF358c4ea0e92c606A95717A1BC2690242",
      "value": {
        "_hex": "0x1072bbac261c000"
      },
      "nonce": 1,
      "data": "0x",
      "r": "0x1dc9bcbbbeada2255ad2424ad3807b07d4d8710d8bed78173eb092057bc3097d",
      "s": "0x18460ff2f720d50109f19818b3fa28c657cae8ca66a9b072b47976191187997f",
      "v": 27,
      "creates": null,
      "raw": "0xf86c01850ba43b74008252089476f609cf358c4ea0e92c606a95717a1bc26902428801072bbac261c000801ba01dc9bcbbbeada2255ad2424ad3807b07d4d8710d8bed78173eb092057bc3097da018460ff2f720d50109f19818b3fa28c657cae8ca66a9b072b47976191187997f",
      "networkId": 0,
      "chainId": 0
    },
    {
      "hash": "0xa8d9c2f18427529d73f5ce127d633c31ecf93780950c414cb3df5feb64abc5a0",
      "blockHash": "0x5bf8f214403f741ec548db724fa73fd14be9a94a9094e431133049ce093ad031",
      "blockNumber": 68606,
      "transactionIndex": 3,
      "confirmations": null,
      "from": "0xeDBAAB30a12029F48622657294F85603D5EF5AbF",
      "gasPrice": {
        "_hex": "0xba43b7400"
      },
      "gasLimit": {
        "_hex": "0x5208"
      },
      "to": "0xD3f0dFc1f9e957527DC7819ab0Eb836461DA7D66",
      "value": {
        "_hex": "0x1072bbac261c000"
      },
      "nonce": 1,
      "data": "0x",
      "r": "0xfebae9896bffbbae5a203a910ed374f0c7a6198c285452f70c67475826ff5ead",
      "s": "0x07a2b38aad2eab2795cab3a364d5daa498a4eab2af626f75269d12cf535174c5",
      "v": 28,
      "creates": null,
      "raw": "0xf86c01850ba43b740082520894d3f0dfc1f9e957527dc7819ab0eb836461da7d668801072bbac261c000801ca0febae9896bffbbae5a203a910ed374f0c7a6198c285452f70c67475826ff5eada007a2b38aad2eab2795cab3a364d5daa498a4eab2af626f75269d12cf535174c5",
      "networkId": 0,
      "chainId": 0
    },
    {
      "hash": "0xb680c6fdf49ccb9dcf3af606193955e10a61298e31f576792e7a35352f6438b4",
      "blockHash": "0x5bf8f214403f741ec548db724fa73fd14be9a94a9094e431133049ce093ad031",
      "blockNumber": 68606,
      "transactionIndex": 4,
      "confirmations": null,
      "from": "0x7f2F036F8b8276834f461461Ad56E242386c0BF2",
      "gasPrice": {
        "_hex": "0xba43b7400"
      },
      "gasLimit": {
        "_hex": "0x5208"
      },
      "to": "0x29dfaDc0038D9BBe0Fe26771d463A92B2dee8238",
      "value": {
        "_hex": "0x1072bbac261c000"
      },
      "nonce": 1,
      "data": "0x",
      "r": "0x05e5fd08b0058e222f90e054b2cd46ddc69048432444e745341149172adafd3c",
      "s": "0x6e237c398c10f460bea4cce2ed767ddd97002c2bd6fe99090a9e2d90aa082471",
      "v": 27,
      "creates": null,
      "raw": "0xf86c01850ba43b74008252089429dfadc0038d9bbe0fe26771d463a92b2dee82388801072bbac261c000801ba005e5fd08b0058e222f90e054b2cd46ddc69048432444e745341149172adafd3ca06e237c398c10f460bea4cce2ed767ddd97002c2bd6fe99090a9e2d90aa082471",
      "networkId": 0,
      "chainId": 0
    },
    {
      "hash": "0xeb27ed40c68d92dacee481df8ad649b7a05d63b62ad43266a3a1870585b7f4f8",
      "blockHash": "0x5bf8f214403f741ec548db724fa73fd14be9a94a9094e431133049ce093ad031",
      "blockNumber": 68606,
      "transactionIndex": 5,
      "confirmations": null,
      "from": "0xCfd8b9218D3a602FF197Dc7e12FF4c9aC49e11f1",
      "gasPrice": {
        "_hex": "0xba43b7400"
      },
      "gasLimit": {
        "_hex": "0x5208"
      },
      "to": "0x62750dd7e3E377BA03f3550c77b231859bFa88ea",
      "value": {
        "_hex": "0x1072bbac261c000"
      },
      "nonce": 1,
      "data": "0x",
      "r": "0x48a4f2d485ec2826f856ec73d4bc5b4d448b91c4973390e321fdf7b62ddb1146",
      "s": "0x16120b52b4782a758b57fc36dffbda9c9afc05f9fe7922e56ed901ec2df9459f",
      "v": 28,
      "creates": null,
      "raw": "0xf86c01850ba43b74008252089462750dd7e3e377ba03f3550c77b231859bfa88ea8801072bbac261c000801ca048a4f2d485ec2826f856ec73d4bc5b4d448b91c4973390e321fdf7b62ddb1146a016120b52b4782a758b57fc36dffbda9c9afc05f9fe7922e56ed901ec2df9459f",
      "networkId": 0,
      "chainId": 0
    },
    {
      "hash": "0xc483d75ae37b1bab86a4f334de3124d2027d3e6014fbbe0e85cb74aa246d5a48",
      "blockHash": "0x5bf8f214403f741ec548db724fa73fd14be9a94a9094e431133049ce093ad031",
      "blockNumber": 68606,
      "transactionIndex": 6,
      "confirmations": null,
      "from": "0x5adAAc4c2A6CF90f8026e8F27241a2ea4a82a103",
      "gasPrice": {
        "_hex": "0xba43b7400"
      },
      "gasLimit": {
        "_hex": "0x5208"
      },
      "to": "0x7314750910BA9cA486ae3d6151a6f5ab62ADa78A",
      "value": {
        "_hex": "0x1072bbac261c000"
      },
      "nonce": 1,
      "data": "0x",
      "r": "0x4fc09ef5b60502f3bf6e3cfa7785e4ad237a835320be2fc718f8edfaf33ac28e",
      "s": "0x30adde19fad622be8d09ea8b4f54d45451fce77611e9f230761e522b1fdb7ee9",
      "v": 27,
      "creates": null,
      "raw": "0xf86c01850ba43b7400825208947314750910ba9ca486ae3d6151a6f5ab62ada78a8801072bbac261c000801ba04fc09ef5b60502f3bf6e3cfa7785e4ad237a835320be2fc718f8edfaf33ac28ea030adde19fad622be8d09ea8b4f54d45451fce77611e9f230761e522b1fdb7ee9",
      "networkId": 0,
      "chainId": 0
    }
  ]
}