{
  "hash": "0xc37aeb8734f803ba5722146b029c8bc128ccdd0a4cd2d89c24d042443a61fad6",
  "parentHash": "0x2380e957a21c96a5bae0e12912e38750ec962cbb0c8d0c77647464b02132d025",
  "number": 80373,
  "timestamp": 1439484726,
  "nonce": "0x164de3676b316c84",
  "difficulty": 2380522774496,
  "gasLimit": {
    "_hex": "0x2fefd8"
  },
  "gasUsed": {
    "_hex": "0x5208"
  },
  "miner": "0xf8E0CA3Ed80bd541b94BEdCf259e8CF2141A9523",
  "extraData": "0x476574682f76312e302e312f77696e646f77732f676f312e342e32",
  "transactions": [
    {
      "hash": "0xdb96b64f475a63fa1a8b39953f5fe5a19cb04eee57ca4ad5da8389460e0711c0",
      "blockHash": "0xc37aeb8734f803ba5722146b029c8bc128ccdd0a4cd2d89c24d042443a61fad6",
      "blockNumber": 80373,
      "transactionIndex": 0,
      "confirmations": null,
      "from": "0xAd941B747c499E3ad5728C285446813783A33564",
      "gasPrice": {
        "_hex": "0xcd6eb7475"
      },
      "gasLimit": {
        "_hex": "0x5208"
      },
      "to": "0x32Be343B94f860124dC4fEe278FDCBD38C102D88",
      "value": {
        "_hex": "0x455f68fda479cc00"
      },
      "nonce": 7,
      "data": "0x",
      "r": "0xc054ddb9f8ec933bdeaad7265e342195f40424cf0098e0b07a2725b56b6439ee",
      "s": "0x07d1374d38ba54f2d1a9992f8231dc259af39dcab0a2dc8424c5ccdd73b4f00f",
      "v": 28,
      "creates": null,
      "raw": "0xf86c07850cd6eb74758252089432be343b94f860124dc4fee278fdcbd38c102d8888455f68fda479cc00801ca0c054ddb9f8ec933bdeaad7265e342195f40424cf0098e0b07a2725b56b6439eea007d1374d38ba54f2d1a9992f8231dc259af39dcab0a2dc8424c5ccdd73b4f00f",
      "networkId": 0,
      "chainId": 0
    }
  ]
}