{
  "hash": "0x7079f6c9fc9c3ab5cf2d2991525d283f5bb3cd12dd7e2538f1fb3129774a8f45",
  "parentHash": "0x84f382d888c1c6c585a0be820a1d5be8cd37039cb2d3620ee703d5a4c8b5b777",
  "number": 116640,
  "timestamp": 1440092893,
  "nonce": "0xadda41f03f176711",
  "difficulty": 4452064390325,
  "gasLimit": {
    "_hex": "0x2fefd8"
  },
  "gasUsed": {
    "_hex": "0x5208"
  },
  "miner": "0xe6A7a1d47ff21B6321162AEA7C6CB457D5476Bca",
  "extraData": "0xd783010002844765746887676f312e342e32856c696e7578",
  "transactions": [
    {
      "hash": "0x07b0c754a11f1eb95a857b26e6e1450d695950fc7a58fa6109d29ed1df225972",
      "blockHash": "0x7079f6c9fc9c3ab5cf2d2991525d283f5bb3cd12dd7e2538f1fb3129774a8f45",
      "blockNumber": 116640,
      "transactionIndex": 0,
      "confirmations": null,
      "from": "0x9b0a028EAfDeCdE3AFc0fD00B7937098388b7C8a",
      "gasPrice": {
        "_hex": "0xd7802f78f"
      },
      "gasLimit": {
        "_hex": "0x15f90"
      },
      "to": "0xe340fe5D4a4b3a905a34cAAB0be95f7177E24D3c",
      "value": {
        "_hex": "0x2386f26fc10000"
      },
      "nonce": 2,
      "data": "0x",
      "r": "0x0d7659e2a33be7be6b5b44e567aeed09b16e302f1fe5466363b190b6c88fe634",
      "s": "0x285219b4b505fd944131b1c08d8077afe2638fad0af4ea0f65e8a4f4900fce99",
      "v": 27,
      "creates": null,
      "raw": "0xf86c02850d7802f78f83015f9094e340fe5d4a4b3a905a34caab0be95f7177e24d3c872386f26fc10000801ba00d7659e2a33be7be6b5b44e567aeed09b16e302f1fe5466363b190b6c88fe634a0285219b4b505fd944131b1c08d8077afe2638fad0af4ea0f65e8a4f4900fce99",
      "networkId": 0,
      "chainId": 0
    }
  ]
}