{
  "hash": "0x74ab4f31524e45a62ae1fe49ec0048ff83eb3fa1ec724894bac2182847814f89",
  "parentHash": "0x25961e8b1d5fbc3785e50d7356813b9777fd8e81eb2d008bcc4c388748697302",
  "number": 80152,
  "timestamp": 1439480967,
  "nonce": "0x6a36d7be5f5dcf3b",
  "difficulty": 2363213257225,
  "gasLimit": {
    "_hex": "0x2fefd8"
  },
  "gasUsed": {
    "_hex": "0x5208"
  },
  "miner": "0x040F866D0793aEbf4DaCDA92B2F2128e8599B5CF",
  "extraData": "0x476574682f76312e302e312f6c696e75782f676f312e342e32",
  "transactions": [
    {
      "hash": "0x724ac4f45439171468ae25a297ceadb9e2265c4e17889426bf69b722b10f398e",
      "blockHash": "0x74ab4f31524e45a62ae1fe49ec0048ff83eb3fa1ec724894bac2182847814f89",
      "blockNumber": 80152,
      "transactionIndex": 0,
      "confirmations": null,
      "from": "0x796fB5FF91099467f7669c8FB0C68739Fd3a9e40",
      "gasPrice": {
        "_hex": "0xd67e66e99"
      },
      "gasLimit": {
        "_hex": "0x5208"
      },
      "to": "0x32Be343B94f860124dC4fEe278FDCBD38C102D88",
      "value": {
        "_hex": "0x386ec2a5777caa0000"
      },
      "nonce": 4,
      "data": "0x",
      "r": "0xf165ce03ef16619bd219f861e55e1e86834ae7aab31db1d846c6fa490c87b8fe",
      "s": "0x2e328fb566fa9a90e609a131905544d10b334611bab3d9cc99bacc5af2dda3ef",
      "v": 27,
      "creates": null,
      "raw": "0xf86d04850d67e66e998252089432be343b94f860124dc4fee278fdcbd38c102d8889386ec2a5777caa0000801ba0f165ce03ef16619bd219f861e55e1e86834ae7aab31db1d846c6fa490c87b8fea02e328fb566fa9a90e609a131905544d10b334611bab3d9cc99bacc5af2dda3ef",
      "networkId": 0,
      "chainId": 0
    }
  ]
}