{
  "hash": "0x64e00db334e9bd185d6e9a5a6b2d8c7879155a0266edd0964ce9be3fab005f79",
  "parentHash": "0x5ff155eaa3c61ea44db60a350dbbca5e7f27dbfc2154ddcca2818820e38bfa3f",
  "number": 50517,
  "timestamp": 1438990544,
  "nonce": "0xebadd0dce122271c",
  "difficulty": 1512627104773,
  "gasLimit": {
    "_hex": "0x67fc4"
  },
  "gasUsed": {
    "_hex": "0x546c"
  },
  "miner": "0xf927a40C8B7F6E07c5af7FA2155B4864a4112B13",
  "extraData": "0x476574682f76312e302e312f6c696e75782f676f312e342e32",
  "transactions": [
    {
      "hash": "0xfb1a631c333717e85554e82b96f3a53190ff9d0f51740f4f006efe4c072d1268",
      "blockHash": "0x64e00db334e9bd185d6e9a5a6b2d8c7879155a0266edd0964ce9be3fab005f79",
      "blockNumber": 50517,
      "transactionIndex": 0,
      "confirmations": null,
      "from": "0x67D682a282eF73fB8D6E9071e2614F47ab1d0F5e",
      "gasPrice": {
        "_hex": "0x110c8f7d8de"
      },
      "gasLimit": {
        "_hex": "0xc350"
      },
      "to": "0x2910543Af39abA0Cd09dBb2D50200b3E800A63D2",
      "value": {
        "_hex": "0x8ac7230489e80000"
      },
      "nonce": 0,
      "data": "0x454e30335155523130",
      "r": "0x5495e03a254a8cf94824fdd85974b9ba060997192ff7b4f2b502e7c5409dfe5c",
      "s": "0x46fed93d06471c2ba1fc03823bc81e3fc3daecabc1530830aa3d223d244a4f96",
      "v": 27,
      "creates": null,
      "raw": "0xf87680860110c8f7d8de82c350942910543af39aba0cd09dbb2d50200b3e800a63d2888ac7230489e8000089454e303351555231301ba05495e03a254a8cf94824fdd85974b9ba060997192ff7b4f2b502e7c5409dfe5ca046fed93d06471c2ba1fc03823bc81e3fc3daecabc1530830aa3d223d244a4f96",
      "networkId": 0,
      "chainId": 0
    }
  ]
}