{
  "hash": "0x9b88aa0f38052869aa396e40f09eb014809870d54a651cc36fcf9bf38cb19b78",
  "parentHash": "0xa8a55c60aae52c8e5b40a73652be84fabf25c2cb79a080fd37d78d790b37aa24",
  "number": 120408,
  "timestamp": 1440159570,
  "nonce": "0x797095388badc454",
  "difficulty": 4389638334746,
  "gasLimit": {
    "_hex": "0x2fefd8"
  },
  "gasUsed": {
    "_hex": "0x5208"
  },
  "miner": "0xe6A7a1d47ff21B6321162AEA7C6CB457D5476Bca",
  "extraData": "0xd783010002844765746887676f312e342e32856c696e7578",
  "transactions": [
    {
      "hash": "0xb1c980aff56205eae5d663da255a74d03ee00f83755c29ca5d56ebdb8480abb1",
      "blockHash": "0x9b88aa0f38052869aa396e40f09eb014809870d54a651cc36fcf9bf38cb19b78",
      "blockNumber": 120408,
      "transactionIndex": 0,
      "confirmations": null,
      "from": "0xECd486fC196791b92Cf612D348614F9156488b7E",
      "gasPrice": {
        "_hex": "0xba43b7400"
      },
      "gasLimit": {
        "_hex": "0x15f90"
      },
      "to": "0x602b95F91754f9Fc07750f7cE2dD2b5587F29E9B",
      "value": {
        "_hex": "0x36518b1b2d2d680000"
      },
      "nonce": 3,
      "data": "0x",
      "r": "0xdc4fa0ce284225949edcf72f03f1076b130ca17145376e0d2b2eb1896a9755db",
      "s": "0x5702b38b0fb7fa235eb64356cdc78e336c7c3c03e738300f7bd3179ce2ac5d99",
      "v": 27,
      "creates": null,
      "raw": "0xf86e03850ba43b740083015f9094602b95f91754f9fc07750f7ce2dd2b5587f29e9b8936518b1b2d2d680000801ba0dc4fa0ce284225949edcf72f03f1076b130ca17145376e0d2b2eb1896a9755dba05702b38b0fb7fa235eb64356cdc78e336c7c3c03e738300f7bd3179ce2ac5d99",
      "networkId": 0,
      "chainId": 0
    }
  ]
}