{
  "hash": "0xd25e10aeae58c739be0b58565a10cd38649fb531ad3378ff387afd0d9edf006d",
  "parentHash": "0x5cb5a96de35e7d0e21cb1f97b099f2edd9c17679ec53adaba8ff4b34e3343da4",
  "number": 52589,
  "timestamp": 1439023987,
  "nonce": "0xc29ef2a6f72a58d6",
  "difficulty": 1567894689360,
  "gasLimit": {
    "_hex": "0x15ebcb"
  },
  "gasUsed": {
    "_hex": "0xf4240"
  },
  "miner": "0xbb7B8287f3F0a933474a79eAe42CBCa977791171",
  "extraData": "0x476574682f4c5649562f76312e302e312f6c696e75782f676f312e342e32",
  "transactions": [
    {
      "hash": "0xdd4b3b05a1994d574c856bba55186689c920a3edbacc1e28b7a08ce01ee26fef",
      "blockHash": "0xd25e10aeae58c739be0b58565a10cd38649fb531ad3378ff387afd0d9edf006d",
      "blockNumber": 52589,
      "transactionIndex": 0,
      "confirmations": null,
      "from": "0x54dAeb3E8a6BBC797E4aD2b0339f134b186e4637",
      "gasPrice": {
        "_hex": "0xe1780dfbb"
      },
      "gasLimit": {
        "_hex": "0x7a120"
      },
      "to": "0xBAA54d6E90c3F4d7Ebec11bD180134C7eD8eBb52",
      "value": {
        "_hex": "0x16345785d8a0000"
      },
      "nonce": 767,
      "data": "0x",
      "r": "0xb628e1123f152e9a7b988c630f6e5e02c2e3c1dfd8e39ba78d399057ea1222a8",
      "s": "0x54bcc65b1ff65a009cb62cd24748c42e6f50df1a83697c89b2a490b97fcce2be",
      "v": 28,
      "creates": null,
      "raw": "0xf86f8202ff850e1780dfbb8307a12094baa54d6e90c3f4d7ebec11bd180134c7ed8ebb5288016345785d8a0000801ca0b628e1123f152e9a7b988c630f6e5e02c2e3c1dfd8e39ba78d399057ea1222a8a054bcc65b1ff65a009cb62cd24748c42e6f50df1a83697c89b2a490b97fcce2be",
      "networkId": 0,
      "chainId": 0
    },
    {
      "hash": "0xdaa4e1ec67518f185e4637a9c573a9248ff4c3f4a1f2c212ef165699864b339c",
      "blockHash": "0xd25e10aeae58c739be0b58565a10cd38649fb531ad3378ff387afd0d9edf006d",
      "blockNumber": 52589,
      "transactionIndex": 1,
      "confirmations": null,
      "from": "0x54dAeb3E8a6BBC797E4aD2b0339f134b186e4637",
      "gasPrice": {
        "_hex": "0xdf4ba21f9"
      },
      "gasLimit": {
        "_hex": "0x7a120"
      },
      "to": "0xBAA54d6E90c3F4d7Ebec11bD180134C7eD8eBb52",
      "value": {
        "_hex": "0x16345785d8a0000"
      },
      "nonce": 768,
      "data": "0x",
      "r": "0x33ecd78e418301c34e58812c76cf2d0d515eb055739683db378db677ad1d0698",
      "s": "0x4f18c66fa7694a972f648823dd0a386ed410ccb7e09755c24169f81c0073f163",
      "v": 27,
      "creates": null,
      "raw": "0xf86f820300850df4ba21f98307a12094baa54d6e90c3f4d7ebec11bd180134c7ed8ebb5288016345785d8a0000801ba033ecd78e418301c34e58812c76cf2d0d515eb055739683db378db677ad1d0698a04f18c66fa7694a972f648823dd0a386ed410ccb7e09755c24169f81c0073f163",
      "networkId": 0,
      "chainId": 0
    }
  ]
}