{
  "hash": "0x12f793b41f035f085f713c75278810fb068a97d3748357495eab5c5f8aef3c24",
  "parentHash": "0xc1bd583458e98af76d43bb199f4c216ff025aa095684557848a4388f74a84a43",
  "number": 74687,
  "timestamp": 1439390478,
  "nonce": "0xe29ba4cbd356cf61",
  "difficulty": 2205269000703,
  "gasLimit": {
    "_hex": "0x2fefd8"
  },
  "gasUsed": {
    "_hex": "0x5208"
  },
  "miner": "0x923707da8Dd7Ff41a0bDD87b62c9E5DfA9c420a5",
  "extraData": "0x",
  "transactions": [
    {
      "hash": "0x17ea311001d288c3a560f056fef762cacfa5813b9389819919a57336547005a1",
      "blockHash": "0x12f793b41f035f085f713c75278810fb068a97d3748357495eab5c5f8aef3c24",
      "blockNumber": 74687,
      "transactionIndex": 0,
      "confirmations": null,
      "from": "0xd6986162E8B905e6a771C3BCD1b2baa2B0bb386F",
      "gasPrice": {
        "_hex": "0xcfef02b89"
      },
      "gasLimit": {
        "_hex": "0x5208"
      },
      "to": "0x32Be343B94f860124dC4fEe278FDCBD38C102D88",
      "value": {
        "_hex": "0x6eb26d2af4c3480000"
      },
      "nonce": 6,
      "data": "0x",
      "r": "0x0bf9f8977df4e46abccb40331c2a2682a9455d7a8961b9e78b59c6be4c05a3e0",
      "s": "0x3dd3e82911287ef294aaac84c9e1bfa3c3efb2c18bf647b70e1b54388c40e553",
      "v": 27,
      "creates": null,
      "raw": "0xf86d06850cfef02b898252089432be343b94f860124dc4fee278fdcbd38c102d88896eb26d2af4c3480000801ba00bf9f8977df4e46abccb40331c2a2682a9455d7a8961b9e78b59c6be4c05a3e0a03dd3e82911287ef294aaac84c9e1bfa3c3efb2c18bf647b70e1b54388c40e553",
      "networkId": 0,
      "chainId": 0
    }
  ]
}