{
  "hash": "0xd56d8563feefaf3e09244de095d1d6ef1339105cb82bb730b22d2588ae4a82ba",
  "parentHash": "0xefda919c25380d5d1d0a35afaf9eafacbd011e9e92f8507e48063576902b72d2",
  "number": 93974,
  "timestamp": 1439700605,
  "nonce": "0x95c777521bb300ef",
  "difficulty": 3480049220102,
  "gasLimit": {
    "_hex": "0x2fefd8"
  },
  "gasUsed": {
    "_hex": "0xa410"
  },
  "miner": "0x9667dF29De26704cE04E2fF2BE67BEd99308812D",
  "extraData": "0x476574682f76312e302e312d38326566323666362f6c696e75782f676f312e34",
  "transactions": [
    {
      "hash": "0x5c1d79856fc83b29e66c2000969bd459c4fa81547ee896188ead944ad7b1113e",
      "blockHash": "0xd56d8563feefaf3e09244de095d1d6ef1339105cb82bb730b22d2588ae4a82ba",
      "blockNumber": 93974,
      "transactionIndex": 0,
      "confirmations": null,
      "from": "0xb1abce2918E21ddb93AA452731a12672A3d9F75a",
      "gasPrice": {
        "_hex": "0xdbc365b78"
      },
      "gasLimit": {
        "_hex": "0x5208"
      },
      "to": "0x32Be343B94f860124dC4fEe278FDCBD38C102D88",
      "value": {
        "_hex": "0x8ac2bc4c9fc5d000"
      },
      "nonce": 10,
      "data": "0x",
      "r": "0x72768468d25ee86923edbcaf69650f8204c63e0da216faafe0e19742a4382731",
      "s": "0x7966ff836a6b1a11d8c363243623adc07b454229b7d80240b5c66cadfd49207b",
      "v": 28,
      "creates": null,
      "raw": "0xf86c0a850dbc365b788252089432be343b94f860124dc4fee278fdcbd38c102d88888ac2bc4c9fc5d000801ca072768468d25ee86923edbcaf69650f8204c63e0da216faafe0e19742a4382731a07966ff836a6b1a11d8c363243623adc07b454229b7d80240b5c66cadfd49207b",
      "networkId": 0,
      "chainId": 0
    },
    {
      "hash": "0x2e11de645f2b922fac818ae839744fe344085cdde6c318f1e54a7afa22a3209c",
      "blockHash": "0xd56d8563feefaf3e09244de095d1d6ef1339105cb82bb730b22d2588ae4a82ba",
      "blockNumber": 93974,
      "transactionIndex": 1,
      "confirmations": null,
      "from": "0x76899c112A85c5a7d27Ff89f1b97112e900aeEBc",
      "gasPrice": {
        "_hex": "0xba43b7400"
      },
      "gasLimit": {
        "_hex": "0x5208"
      },
      "to": "0xC47Aaa860008be6f65B58c6C6E02a84e666EfE31",
      "value": {
        "_hex": "0xdde4294fd97b6000"
      },
      "nonce": 6,
      "data": "0x",
      "r": "0x9bbcf2612c60e6f7ec2a140fcfbb2eca1bc2bb3a4bae27f3f25867e16ec78af6",
      "s": "0x13e16df3560312f6c90838ff935a6cd74ac7152c861374a1f57d64ed9dc62881",
      "v": 28,
      "creates": null,
      "raw": "0xf86c06850ba43b740082520894c47aaa860008be6f65b58c6c6e02a84e666efe3188dde4294fd97b6000801ca09bbcf2612c60e6f7ec2a140fcfbb2eca1bc2bb3a4bae27f3f25867e16ec78af6a013e16df3560312f6c90838ff935a6cd74ac7152c861374a1f57d64ed9dc62881",
      "networkId": 0,
      "chainId": 0
    }
  ]
}