{
  "hash": "0x6a60d5349d308c9b996e2d6fe1b369e7503599e9407871898dbf9852f23fb581",
  "parentHash": "0xc78b5d5412d50a8fa2335d5445fc183abf58fa227960057344b82ee28dff65dd",
  "number": 82138,
  "timestamp": 1439514316,
  "nonce": "0xd5c13bd9681bb022",
  "difficulty": 2383510869958,
  "gasLimit": {
    "_hex": "0x2fefd8"
  },
  "gasUsed": {
    "_hex": "0x5208"
  },
  "miner": "0xe6A7a1d47ff21B6321162AEA7C6CB457D5476Bca",
  "extraData": "0x476574682f76312e302e312d38326566323666362f6c696e75782f676f312e34",
  "transactions": [
    {
      "hash": "0x567046e75b8e3e77c228c990d0abe194c111888be709756720e7fedc477068ef",
      "blockHash": "0x6a60d5349d308c9b996e2d6fe1b369e7503599e9407871898dbf9852f23fb581",
      "blockNumber": 82138,
      "transactionIndex": 0,
      "confirmations": null,
      "from": "0xd63d66704099F24ED9DD6a45BD57b13B872ad515",
      "gasPrice": {
        "_hex": "0xba43b7400"
      },
      "gasLimit": {
        "_hex": "0x5208"
      },
      "to": "0xC47Aaa860008be6f65B58c6C6E02a84e666EfE31",
      "value": {
        "_hex": "0x54b9c9e29c53a5dc0"
      },
      "nonce": 2,
      "data": "0x",
      "r": "0xd392931b41479d8dc00a7ec8c799ce8fcf4073be92d5b5f0e78ee7124597e823",
      "s": "0x2a13209ec12ddf2a0872ddbd7ead5a31890b9d0dd4fc0692838aae1f5a539195",
      "v": 27,
      "creates": null,
      "raw": "0xf86d02850ba43b740082520894c47aaa860008be6f65b58c6c6e02a84e666efe3189054b9c9e29c53a5dc0801ba0d392931b41479d8dc00a7ec8c799ce8fcf4073be92d5b5f0e78ee7124597e823a02a13209ec12ddf2a0872ddbd7ead5a31890b9d0dd4fc0692838aae1f5a539195",
      "networkId": 0,
      "chainId": 0
    }
  ]
}