{
  "hash": "0xeacc4f9bc5594c89f7d59f6d2d9eab23888fcc454f7b2517af215cd9e963ea63",
  "parentHash": "0x34912a73a82b0809f7b5f32d4c2b21161aa8e0e3042fa2f7d8e4aedaf848893b",
  "number": 55933,
  "timestamp": 1439079391,
  "nonce": "0x79c0208e0144687e",
  "difficulty": 1615441931860,
  "gasLimit": {
    "_hex": "0x2fefd8"
  },
  "gasUsed": {
    "_hex": "0x5208"
  },
  "miner": "0xbb7B8287f3F0a933474a79eAe42CBCa977791171",
  "extraData": "0x476574682f4c5649562f76312e302e312f6c696e75782f676f312e342e32",
  "transactions": [
    {
      "hash": "0xaec8201f313837bb6dce747969b5d89e39fd42db4e2822089b367f2d9ff91f66",
      "blockHash": "0xeacc4f9bc5594c89f7d59f6d2d9eab23888fcc454f7b2517af215cd9e963ea63",
      "blockNumber": 55933,
      "transactionIndex": 0,
      "confirmations": null,
      "from": "0x645f99d488e5Aa4d8376e2ce9f17309195278924",
      "gasPrice": {
        "_hex": "0xd3dedddaa"
      },
      "gasLimit": {
        "_hex": "0x6d60"
      },
      "to": "0xCD8C2959c5781245a5DcD72CFfAb01004d804Aa7",
      "value": {
        "_hex": "0x44d575b885f0000"
      },
      "nonce": 0,
      "data": "0x",
      "r": "0x4a52779435a12f1f39688db47474f7194320c4a8bafb6d2ff3fd4a5a7e22bd7f",
      "s": "0x5ce1069fa01e222313ce83f064b33ebee6e0d83414974d4905b02370a7854102",
      "v": 27,
      "creates": null,
      "raw": "0xf86c80850d3dedddaa826d6094cd8c2959c5781245a5dcd72cffab01004d804aa788044d575b885f0000801ba04a52779435a12f1f39688db47474f7194320c4a8bafb6d2ff3fd4a5a7e22bd7fa05ce1069fa01e222313ce83f064b33ebee6e0d83414974d4905b02370a7854102",
      "networkId": 0,
      "chainId": 0
    }
  ]
}