{
  "hash": "0x17fa4507b4d39e7cac54b08d380616bf3fe038c36ba748d8c911260079d4dae4",
  "parentHash": "0x006a0e0337a739d89a6323fc0363d6ebf63778f30dc38a230c12d7179edaac1e",
  "number": 47364,
  "timestamp": 1438938946,
  "nonce": "0x81fc148011863e7b",
  "difficulty": 1454515748270,
  "gasLimit": {
    "_hex": "0xb53e"
  },
  "gasUsed": {
    "_hex": "0x5208"
  },
  "miner": "0x3FF679B0823a026F2378E5f5F22A6F127cC85828",
  "extraData": "0x476574682f76312e302e302f6c696e75782f676f312e342e32",
  "transactions": [
    {
      "hash": "0x8dbfc63e659150b74a3a916ccf434fbba1b6426d34dd6795d27e485e6aa51b9c",
      "blockHash": "0x17fa4507b4d39e7cac54b08d380616bf3fe038c36ba748d8c911260079d4dae4",
      "blockNumber": 47364,
      "transactionIndex": 0,
      "confirmations": null,
      "from": "0xe6A7a1d47ff21B6321162AEA7C6CB457D5476Bca",
      "gasPrice": {
        "_hex": "0x1796083b39"
      },
      "gasLimit": {
        "_hex": "0x5208"
      },
      "to": "0x00F6ACb0Ea031B497B464b85C99550FB9432bc80",
      "value": {
        "_hex": "0x10054c17f5dd56ff8"
      },
      "nonce": 124,
      "data": "0x",
      "r": "0x45ff51572784a9e2617c0357088b58bee7b972106fb8378f0954e6aa4350e546",
      "s": "0x16cad6d16f107dfe8c43d19902b60a6c2a222e20c491c6b14927e77b5f75310c",
      "v": 28,
      "creates": null,
      "raw": "0xf86d7c851796083b398252089400f6acb0ea031b497b464b85c99550fb9432bc8089010054c17f5dd56ff8801ca045ff51572784a9e2617c0357088b58bee7b972106fb8378f0954e6aa4350e546a016cad6d16f107dfe8c43d19902b60a6c2a222e20c491c6b14927e77b5f75310c",
      "networkId": 0,
      "chainId": 0
    }
  ]
}