{
  "hash": "0x9bc3097ac4583cd5a8724744db9b6ae462f863dc55120a98a770092e52703482",
  "parentHash": "0xe808b7079c949edd088d39630be18123b4d74d73e94898b00af03f7a29f22f5c",
  "number": 81774,
  "timestamp": 1439507740,
  "nonce": "0x3982ac8c2ab79ac4",
  "difficulty": 2416426568812,
  "gasLimit": {
    "_hex": "0x2fefd8"
  },
  "gasUsed": {
    "_hex": "0x5208"
  },
  "miner": "0x9746c7e1ef2bd21FF3997fa467593a89cb852BD0",
  "extraData": "0x476574682f76312e302e312f77696e646f77732f676f312e342e32",
  "transactions": [
    {
      "hash": "0xcb46864e97786b875f2b880beb361880d718030fdfbdb7da78aed0805016e5dc",
      "blockHash": "0x9bc3097ac4583cd5a8724744db9b6ae462f863dc55120a98a770092e52703482",
      "blockNumber": 81774,
      "transactionIndex": 0,
      "confirmations": null,
      "from": "0x3D01cd9bD80e2165FFf6F863E0ddd402EbC4ae9c",
      "gasPrice": {
        "_hex": "0xd5e9fd6cd"
      },
      "gasLimit": {
        "_hex": "0x5208"
      },
      "to": "0x32Be343B94f860124dC4fEe278FDCBD38C102D88",
      "value": {
        "_hex": "0x27b3452b29f1800"
      },
      "nonce": 2,
      "data": "0x",
      "r": "0x668741dcf0e35379be1ba9a8f601685af7dc716192dcefc5d72782a4a3fb3a7e",
      "s": "0x07f939c0ec92f856c66deebbd5a87e02e6bce1cfd1ed395f8a9b646334d37364",
      "v": 27,
      "creates": null,
      "raw": "0xf86c02850d5e9fd6cd8252089432be343b94f860124dc4fee278fdcbd38c102d8888027b3452b29f1800801ba0668741dcf0e35379be1ba9a8f601685af7dc716192dcefc5d72782a4a3fb3a7ea007f939c0ec92f856c66deebbd5a87e02e6bce1cfd1ed395f8a9b646334d37364",
      "networkId": 0,
      "chainId": 0
    }
  ]
}