{
  "hash": "0x57a9b5f8ac3b111b28d11860aee61eb4ec6fc16b6f2e9d103603c4db6980c82d",
  "parentHash": "0xbaa740a4fd2e2499f148328cbeabf32074e24164adbf79e22a496834c663f6c2",
  "number": 80449,
  "timestamp": 1439485612,
  "nonce": "0x0e2a1c58f915752d",
  "difficulty": 2413270624057,
  "gasLimit": {
    "_hex": "0x2fefd8"
  },
  "gasUsed": {
    "_hex": "0x206b5"
  },
  "miner": "0xeB1325C8D9d3ea8D74aC11F4B00F1B2367686319",
  "extraData": "0x476574682f76312e302e312f77696e646f77732f676f312e342e32",
  "transactions": [
    {
      "hash": "0x4050c5dfd196788bb40188c3d9b515fa40cb22e91a4321e7de16f9b347c0516d",
      "blockHash": "0x57a9b5f8ac3b111b28d11860aee61eb4ec6fc16b6f2e9d103603c4db6980c82d",
      "blockNumber": 80449,
      "transactionIndex": 0,
      "confirmations": null,
      "from": "0x87C5B5874A18B4306DF8a752a6C8cc3E82daFc19",
      "gasPrice": {
        "_hex": "0x115c48a9bdf"
      },
      "gasLimit": {
        "_hex": "0x493e0"
      },
      "to": "0xC4c51de1AbF5D60DBd329eC0F999Fd8f021ae9fC",
      "value": {
        "_hex": "0x575d52dbf5396af"
      },
      "nonce": 210,
      "data": "0x8d2161860000000000000000000000000000000000000000000000000000000000000006d3d96ceed0cfca4794c2a5a3d3aeefe69da0a2a669e66a5651f30b64831c3db0",
      "r": "0x9c7aa688c9299c080298b03ad24c49f92f2546a0fffb57da6812ccec37defa5d",
      "s": "0x598011bc614d7e58af6dc32acac8ee9fcab5353c67e777bef3f56bfcf95f99e1",
      "v": 28,
      "creates": null,
      "raw": "0xf8b481d2860115c48a9bdf830493e094c4c51de1abf5d60dbd329ec0f999fd8f021ae9fc880575d52dbf5396afb8448d2161860000000000000000000000000000000000000000000000000000000000000006d3d96ceed0cfca4794c2a5a3d3aeefe69da0a2a669e66a5651f30b64831c3db01ca09c7aa688c9299c080298b03ad24c49f92f2546a0fffb57da6812ccec37defa5da0598011bc614d7e58af6dc32acac8ee9fcab5353c67e777bef3f56bfcf95f99e1",
      "networkId": 0,
      "chainId": 0
    },
    {
      "hash": "0x530c87026c059aaf027ac37ed74cb6707e46ec0a78b3c4212051f0c0870e56de",
      "blockHash": "0x57a9b5f8ac3b111b28d11860aee61eb4ec6fc16b6f2e9d103603c4db6980c82d",
      "blockNumber": 80449,
      "transactionIndex": 1,
      "confirmations": null,
      "from": "0xC759dc67E0c3816fdC56A2f5bb29920fc07e767D",
      "gasPrice": {
        "_hex": "0xd1924fa9e"
      },
      "gasLimit": {
        "_hex": "0x5208"
      },
      "to": "0x910a4aADabb3A7B3F7879118332E13Da66b68D77",
      "value": {
        "_hex": "0x1158e460913d00000"
      },
      "nonce": 19,
      "data": "0x",
      "r": "0xfacfb53bf55d5379be42136ec5ecb13845eb47a21da13ff8b0bbc973da0fc15e",
      "s": "0x206466c4e3c0b9b3e55339fa897933b89bb98465cda9195d2aef8230a20360c7",
      "v": 27,
      "creates": null,
      "raw": "0xf86d13850d1924fa9e82520894910a4aadabb3a7b3f7879118332e13da66b68d778901158e460913d00000801ba0facfb53bf55d5379be42136ec5ecb13845eb47a21da13ff8b0bbc973da0fc15ea0206466c4e3c0b9b3e55339fa897933b89bb98465cda9195d2aef8230a20360c7",
      "networkId": 0,
      "chainId": 0
    }
  ]
}