{
  "hash": "0x359a341f00e779c07b3c848455ddd45777c14d4c2a6b21455faeefeed06db07f",
  "parentHash": "0x9349e0e448b147fe1035f073dd654981b9904717e516df70b6750beacd9067e5",
  "number": 68563,
  "timestamp": 1439290073,
  "nonce": "0xbb9195d09123afbd",
  "difficulty": 2011349903002,
  "gasLimit": {
    "_hex": "0x2fefd8"
  },
  "gasUsed": {
    "_hex": "0x23e38"
  },
  "miner": "0x01d9DA08cc6Fb97c0DE1B6F4C28910A0859Ed1A1",
  "extraData": "0x476574682f76312e302e312f6c696e75782f676f312e342e32",
  "transactions": [
    {
      "hash": "0xa38812f08546b5936131189b260398cdae0a41d718d875ad2d92cc2cdd77282f",
      "blockHash": "0x359a341f00e779c07b3c848455ddd45777c14d4c2a6b21455faeefeed06db07f",
      "blockNumber": 68563,
      "transactionIndex": 0,
      "confirmations": null,
      "from": "0xf4f5837Ef31957349089F6160A57205a8B823b96",
      "gasPrice": {
        "_hex": "0xba43b7400"
      },
      "gasLimit": {
        "_hex": "0x5208"
      },
      "to": "0x445C812DFAceAc12b55a9B4D21959478424C0Abd",
      "value": {
        "_hex": "0x937bda828f9000"
      },
      "nonce": 1,
      "data": "0x",
      "r": "0xd42737884159fa56725bad28df3011af4ea4f50f745c9eab46b32eba8fcccebf",
      "s": "0x1a2aeb3ccbe7e7ec87f6a5c4bf0466d4ca519cf49cfc7414158176e995213fad",
      "v": 28,
      "creates": null,
      "raw": "0xf86b01850ba43b740082520894445c812dfaceac12b55a9b4d21959478424c0abd87937bda828f9000801ca0d42737884159fa56725bad28df3011af4ea4f50f745c9eab46b32eba8fcccebfa01a2aeb3ccbe7e7ec87f6a5c4bf0466d4ca519cf49cfc7414158176e995213fad",
      "networkId": 0,
      "chainId": 0
    },
    {
      "hash": "0x83644cc90c3551481f99e48f591bd108c814ba4550a6626f57fd93760c12dd4a",
      "blockHash": "0x359a341f00e779c07b3c848455ddd45777c14d4c2a6b21455faeefeed06db07f",
      "blockNumber": 68563,
      "transactionIndex": 1,
      "confirmations": null,
      "from": "0xC0855Fc346eecc63859DA34e49F8AA8670d4A67B",
      "gasPrice": {
        "_hex": "0xba43b7400"
      },
      "gasLimit": {
        "_hex": "0x5208"
      },
      "to": "0x901532083719Fa328b3CF1bEbc5fef2dAd660a56",
      "value": {
        "_hex": "0x937bda828f9000"
      },
      "nonce": 1,
      "data": "0x",
      "r": "0xfaa926c3cc6a7b47d6c78e16d6875b1dac11092c2d00529b17e879d255e9ec58",
      "s": "0x362d9c66a409f3b6cb43c24c56d5092be8ccac6bd9b0db9aca2dd8b66bdece96",
      "v": 27,
      "creates": null,
      "raw": "0xf86b01850ba43b740082520894901532083719fa328b3cf1bebc5fef2dad660a5687937bda828f9000801ba0faa926c3cc6a7b47d6c78e16d6875b1dac11092c2d00529b17e879d255e9ec58a0362d9c66a409f3b6cb43c24c56d5092be8ccac6bd9b0db9aca2dd8b66bdece96",
      "networkId": 0,
      "chainId": 0
    },
    {
      "hash": "0x789537f1507a678d3f48ed1b4fc248c6cee09e70350ff04ee86c9ddf3a49d79e",
      "blockHash": "0x359a341f00e779c07b3c848455ddd45777c14d4c2a6b21455faeefeed06db07f",
      "blockNumber": 68563,
      "transactionIndex": 2,
      "confirmations": null,
      "from": "0x08Cf7C87B3Bb28C3E6784b307862Eaf827f4aa6E",
      "gasPrice": {
        "_hex": "0xba43b7400"
      },
      "gasLimit": {
        "_hex": "0x5208"
      },
      "to": "0x167D2f4De25F54528F60a58A71cF558c67fBD07F",
      "value": {
        "_hex": "0x937bda828f9000"
      },
      "nonce": 1,
      "data": "0x",
      "r": "0x3e9ddec28acf92bcfff1043e1122ed39b107119103e9c61f5a9feac873f3c7f2",
      "s": "0x3beb4a8ce1fa148db2e02ce8ce061ede1c08571fbf9b28ac52b4d4986218c835",
      "v": 28,
      "creates": null,
      "raw": "0xf86b01850ba43b740082520894167d2f4de25f54528f60a58a71cf558c67fbd07f87937bda828f9000801ca03e9ddec28acf92bcfff1043e1122ed39b107119103e9c61f5a9feac873f3c7f2a03beb4a8ce1fa148db2e02ce8ce061ede1c08571fbf9b28ac52b4d4986218c835",
      "networkId": 0,
      "chainId": 0
    },
    {
      "hash": "0x370c9ce3567ffd68fa9b34951be85698a50835e58874ad47aa24c581f0a257cd",
      "blockHash": "0x359a341f00e779c07b3c848455ddd45777c14d4c2a6b21455faeefeed06db07f",
      "blockNumber": 68563,
      "transactionIndex": 3,
      "confirmations": null,
      "from": "0xDEf1e51D3Ce3C0014E315814fEC373b1963BD4a8",
      "gasPrice": {
        "_hex": "0xba43b7400"
      },
      "gasLimit": {
        "_hex": "0x5208"
      },
      "to": "0xB487bdc0685dfD76969e3524c68a16C9c257CbAF",
      "value": {
        "_hex": "0x937bda828f9000"
      },
      "nonce": 1,
      "data": "0x",
      "r": "0x45e4aa8f490277b79ee354fcd51cac12545370412a85af7f1a621a6cdca353e3",
      "s": "0x5a02a41e861ece83f77426a97033dd21e14d01cb6c4b64c72bd22791fbe4625d",
      "v": 27,
      "creates": null,
      "raw": "0xf86b01850ba43b740082520894b487bdc0685dfd76969e3524c68a16c9c257cbaf87937bda828f9000801ba045e4aa8f490277b79ee354fcd51cac12545370412a85af7f1a621a6cdca353e3a05a02a41e861ece83f77426a97033dd21e14d01cb6c4b64c72bd22791fbe4625d",
      "networkId": 0,
      "chainId": 0
    },
    {
      "hash": "0xb26923d9984ad722a1f97bf5a9b79cfe569ae8a87ab30725e60501baae0647db",
      "blockHash": "0x359a341f00e779c07b3c848455ddd45777c14d4c2a6b21455faeefeed06db07f",
      "blockNumber": 68563,
      "transactionIndex": 4,
      "confirmations": null,
      "from": "0xC8d30056dB6d7d31846fB93F4f779048E89Db548",
      "gasPrice": {
        "_hex": "0xba43b7400"
      },
      "gasLimit": {
        "_hex": "0x5208"
      },
      "to": "0x50032fC3e6253a2aF31bF68da09483bfa4Ce985f",
      "value": {
        "_hex": "0x937bda828f9000"
      },
      "nonce": 1,
      "data": "0x",
      "r": "0x210be62493198938e210b51c1475f46e001eb56bf83e02beed0bd5baadc87672",
      "s": "0x4ed71ced794fc2f4b92f8b6621f39c3e7ab8fae2c08dd09a80cde0690af662b8",
      "v": 27,
      "creates": null,
      "raw": "0xf86b01850ba43b74008252089450032fc3e6253a2af31bf68da09483bfa4ce985f87937bda828f9000801ba0210be62493198938e210b51c1475f46e001eb56bf83e02beed0bd5baadc87672a04ed71ced794fc2f4b92f8b6621f39c3e7ab8fae2c08dd09a80cde0690af662b8",
      "networkId": 0,
      "chainId": 0
    },
    {
      "hash": "0xba1c867f20220bc9c3ab4cf5962c1edc087ccd0e7132e24e34253f2174273977",
      "blockHash": "0x359a341f00e779c07b3c848455ddd45777c14d4c2a6b21455faeefeed06db07f",
      "blockNumber": 68563,
      "transactionIndex": 5,
      "confirmations": null,
      "from": "0x17245336eA733da9E9070B49E07f7cbF07E2F9f6",
      "gasPrice": {
        "_hex": "0xba43b7400"
      },
      "gasLimit": {
        "_hex": "0x5208"
      },
      "to": "0xeD1A17aBf6704Bc0FA17771f95b00831f24d808a",
      "value": {
        "_hex": "0x937bda828f9000"
      },
      "nonce": 1,
      "data": "0x",
      "r": "0xbab15f628e95ea0add32cf3b38dea956646e070e5fdf1e3a2868e259182a60cb",
      "s": "0x4c8f17398c82d78a752913e354370c7ea97d871626f18456fcf19622ac5dfe8e",
      "v": 27,
      "creates": null,
      "raw": "0xf86b01850ba43b740082520894ed1a17abf6704bc0fa17771f95b00831f24d808a87937bda828f9000801ba0bab15f628e95ea0add32cf3b38dea956646e070e5fdf1e3a2868e259182a60cba04c8f17398c82d78a752913e354370c7ea97d871626f18456fcf19622ac5dfe8e",
      "networkId": 0,
      "chainId": 0
    },
    {
      "hash": "0xab6f1908e5bf5d51e8951f3ec2d6473a0d27ccef2f7b9a1ef61161a4beeb337f",
      "blockHash": "0x359a341f00e779c07b3c848455ddd45777c14d4c2a6b21455faeefeed06db07f",
      "blockNumber": 68563,
      "transactionIndex": 6,
      "confirmations": null,
      "from": "0x7B80ECc19271F85095613A59df426456cF219A20",
      "gasPrice": {
        "_hex": "0xba43b7400"
      },
      "gasLimit": {
        "_hex": "0x5208"
      },
      "to": "0xcF2bE5A91fD40bc00A497f3B7649D47aB28C4E64",
      "value": {
        "_hex": "0x937bda828f9000"
      },
      "nonce": 1,
      "data": "0x",
      "r": "0xdeb280ce3848d4f8cac7d76981a5986ad7b6c50703d0af1aa411fa6e547aed23",
      "s": "0x51814a2c2be78d971a2308aeaa46eeb30a95aeb856db56d100dfaf988754ea9e",
      "v": 28,
      "creates": null,
      "raw": "0xf86b01850ba43b740082520894cf2be5a91fd40bc00a497f3b7649d47ab28c4e6487937bda828f9000801ca0deb280ce3848d4f8cac7d76981a5986ad7b6c50703d0af1aa411fa6e547aed23a051814a2c2be78d971a2308aeaa46eeb30a95aeb856db56d100dfaf988754ea9e",
      "networkId": 0,
      "chainId": 0
    }
  ]
}