{
  "hash": "0xf0f5d46d677ec252ccfd9e27a60a6630c324ac4b2771e96df46701991e6d6cc8",
  "parentHash": "0x39f41d5654c608f8ec20f0330dc1ed9f3f0af8f4fd3c4e8e6ee45816484c826c",
  "number": 106841,
  "timestamp": 1439911578,
  "nonce": "0x7ebf198bbc534d75",
  "difficulty": 4424741281005,
  "gasLimit": {
    "_hex": "0x2fefd8"
  },
  "gasUsed": {
    "_hex": "0x5208"
  },
  "miner": "0xe6A7a1d47ff21B6321162AEA7C6CB457D5476Bca",
  "extraData": "0x476574682f76312e302e312d38326566323666362f6c696e75782f676f312e34",
  "transactions": [
    {
      "hash": "0x723d33bbe679a564514a14bbfe34f54eb9c198813addb510e84f5f386f35d12d",
      "blockHash": "0xf0f5d46d677ec252ccfd9e27a60a6630c324ac4b2771e96df46701991e6d6cc8",
      "blockNumber": 106841,
      "transactionIndex": 0,
      "confirmations": null,
      "from": "0x0117aCA5D98443a8CE8AeE7aC4BEc8450ABbd852",
      "gasPrice": {
        "_hex": "0xd4659d09d"
      },
      "gasLimit": {
        "_hex": "0x5208"
      },
      "to": "0x32Be343B94f860124dC4fEe278FDCBD38C102D88",
      "value": {
        "_hex": "0x32d26cceda596200000"
      },
      "nonce": 2,
      "data": "0x",
      "r": "0xdc38e815c8105f0b8618315203c15412312d7db45490c443d436609c0c2354c9",
      "s": "0x707c7b231f9c13691cb3f337f9f134a0b98cbfda12dccbc3f599c89dec7ee7a2",
      "v": 27,
      "creates": null,
      "raw": "0xf86e02850d4659d09d8252089432be343b94f860124dc4fee278fdcbd38c102d888a032d26cceda596200000801ba0dc38e815c8105f0b8618315203c15412312d7db45490c443d436609c0c2354c9a0707c7b231f9c13691cb3f337f9f134a0b98cbfda12dccbc3f599c89dec7ee7a2",
      "networkId": 0,
      "chainId": 0
    }
  ]
}