{
  "hash": "0x4fd3f7c9c5309682f593440b218ede171090b3be5cd3210c06624fdb2901bcc1",
  "parentHash": "0x3e7860f2c448a981abce751666ab4fa8337c31c23fbb4e5e7f3cea2eedb4b315",
  "number": 63323,
  "timestamp": 1439202590,
  "nonce": "0xc742e93aac311e9f",
  "difficulty": 1821793333574,
  "gasLimit": {
    "_hex": "0x2fefd8"
  },
  "gasUsed": {
    "_hex": "0x13269"
  },
  "miner": "0x47ff6576639c2e94762eA5443978D7681C0E78DC",
  "extraData": "0x476574682f76312e302e312f6c696e75782f676f312e342e32",
  "transactions": [
    {
      "hash": "0x8553bc99b67b66fdf2f1e965bf18f16806448d915f4347c0088f5043f544e79d",
      "blockHash": "0x4fd3f7c9c5309682f593440b218ede171090b3be5cd3210c06624fdb2901bcc1",
      "blockNumber": 63323,
      "transactionIndex": 0,
      "confirmations": null,
      "from": "0xa22AdE0dDB5c6ef8d0cD8De94d82b11082Cb2e91",
      "gasPrice": {
        "_hex": "0x110c8f7d8de"
      },
      "gasLimit": {
        "_hex": "0xc350"
      },
      "to": "0x2910543Af39abA0Cd09dBb2D50200b3E800A63D2",
      "value": {
        "_hex": "0x373d773d1b4b0c0000"
      },
      "nonce": 0,
      "data": "0x454e5a50374a4b5430",
      "r": "0x34308baca34dc036f95618360fd13b573a30383627b565a14a8267bdaf0d8ca2",
      "s": "0x537d6b0254bb7158fb6d1d9081199c9062e917c108be390bf16b07322920b9cc",
      "v": 27,
      "creates": null,
      "raw": "0xf87780860110c8f7d8de82c350942910543af39aba0cd09dbb2d50200b3e800a63d289373d773d1b4b0c000089454e5a50374a4b54301ba034308baca34dc036f95618360fd13b573a30383627b565a14a8267bdaf0d8ca2a0537d6b0254bb7158fb6d1d9081199c9062e917c108be390bf16b07322920b9cc",
      "networkId": 0,
      "chainId": 0
    },
    {
      "hash": "0x7747cb5c89451d68d263e70ac348adfb362377d9656830428f4f73e389769b01",
      "blockHash": "0x4fd3f7c9c5309682f593440b218ede171090b3be5cd3210c06624fdb2901bcc1",
      "blockNumber": 63323,
      "transactionIndex": 1,
      "confirmations": null,
      "from": "0xAd7F5C601260b460ADAC6A54411Ca6Cf07dC83c3",
      "gasPrice": {
        "_hex": "0xd54121a53"
      },
      "gasLimit": {
        "_hex": "0x61a80"
      },
      "to": "0x020522bF9B8eD6FF41E2fa6765a17E20E2767D64",
      "value": {
        "_hex": "0x56bc75e2d63100000"
      },
      "nonce": 23,
      "data": "0x",
      "r": "0x730ddfbd58932a21ff7342d240bd9cf479211d70f4300c780eedeff116c4f291",
      "s": "0x0fd61f4f4d70f0ab21638b593ed0615ea8370aceb62ec7af15a1e7f501b0f6c8",
      "v": 28,
      "creates": null,
      "raw": "0xf86e17850d54121a5383061a8094020522bf9b8ed6ff41e2fa6765a17e20e2767d6489056bc75e2d63100000801ca0730ddfbd58932a21ff7342d240bd9cf479211d70f4300c780eedeff116c4f291a00fd61f4f4d70f0ab21638b593ed0615ea8370aceb62ec7af15a1e7f501b0f6c8",
      "networkId": 0,
      "chainId": 0
    }
  ]
}