{
  "hash": "0x7294e18306ebed621702909519de90e815d679199363644a9eb826f4a6e55192",
  "parentHash": "0xde7554684ef0429f3d6847144f0aaead7fecb3857b3103b3621abb3e390d78df",
  "number": 98082,
  "timestamp": 1439766762,
  "nonce": "0x2bc2b375e2d5fac0",
  "difficulty": 3872803289688,
  "gasLimit": {
    "_hex": "0x2fefd8"
  },
  "gasUsed": {
    "_hex": "0x5208"
  },
  "miner": "0xC603Ab5ef41fC61AA8b76bEddb09e3Cfcbb174BD",
  "extraData": "0x476574682f76312e302e312f77696e646f77732f676f312e342e32",
  "transactions": [
    {
      "hash": "0x35e53fb22c5e64e1ffe96228c12e30f6ba8c326dba51545cadc18c98a6c3cf04",
      "blockHash": "0x7294e18306ebed621702909519de90e815d679199363644a9eb826f4a6e55192",
      "blockNumber": 98082,
      "transactionIndex": 0,
      "confirmations": null,
      "from": "0x2910543Af39abA0Cd09dBb2D50200b3E800A63D2",
      "gasPrice": {
        "_hex": "0xe097b2df1"
      },
      "gasLimit": {
        "_hex": "0x5208"
      },
      "to": "0xe42894D2857F716256b2c3A41E6547Bd2988DCC0",
      "value": {
        "_hex": "0x9f5d08f051f7cb4000"
      },
      "nonce": 927,
      "data": "0x",
      "r": "0x66ae0c9ac50e047e287bef013e7dacdbc0cf1b62eff34d1bda26a83f58ba5481",
      "s": "0x43ebdd9ac8558a349ea48bd6a0223b1509d97508366b0868c9a005347469d594",
      "v": 27,
      "creates": null,
      "raw": "0xf86f82039f850e097b2df182520894e42894d2857f716256b2c3a41e6547bd2988dcc0899f5d08f051f7cb4000801ba066ae0c9ac50e047e287bef013e7dacdbc0cf1b62eff34d1bda26a83f58ba5481a043ebdd9ac8558a349ea48bd6a0223b1509d97508366b0868c9a005347469d594",
      "networkId": 0,
      "chainId": 0
    }
  ]
}