{
  "hash": "0x436c5d335cbe5f3602a3074b4f8f711c3f9672678ab08f019d4e4a563c75b844",
  "parentHash": "0xe6553e60c059b1042946d69cefe12a42c703c4c354d5a4153cf8667efe38aebc",
  "number": 50484,
  "timestamp": 1438990014,
  "nonce": "0x32bd2308b47b54a2",
  "difficulty": 1508944607564,
  "gasLimit": {
    "_hex": "0x65f91"
  },
  "gasUsed": {
    "_hex": "0x5208"
  },
  "miner": "0x70C6b45fe0A5116E97B112B806A76E2F51E24413",
  "extraData": "0x476574682f76312e302e302f77696e646f77732f676f312e342e32",
  "transactions": [
    {
      "hash": "0x6787454802a4963c622723d0a343f133b1aba3c0fe2284ba0bbef3f8ea580af0",
      "blockHash": "0x436c5d335cbe5f3602a3074b4f8f711c3f9672678ab08f019d4e4a563c75b844",
      "blockNumber": 50484,
      "transactionIndex": 0,
      "confirmations": null,
      "from": "0x1C356cfdB95FEbb714633B28d5C132dD84A9b436",
      "gasPrice": {
        "_hex": "0x115f0bc7c34"
      },
      "gasLimit": {
        "_hex": "0x15f90"
      },
      "to": "0x1da881Fae84444ebEf7B72F3267a4e67Aa61faE9",
      "value": {
        "_hex": "0xde0b6b3a7640000"
      },
      "nonce": 1,
      "data": "0x",
      "r": "0xf589358a8275384fba6b199f3f84c5499d31cd3ab0b5662fd61ad1cea02618fd",
      "s": "0x1ed3bdf32c83c8f8b64f2954a2f26864690f96f3ff6566969cdbd7de36f81f76",
      "v": 28,
      "creates": null,
      "raw": "0xf86e01860115f0bc7c3483015f90941da881fae84444ebef7b72f3267a4e67aa61fae9880de0b6b3a7640000801ca0f589358a8275384fba6b199f3f84c5499d31cd3ab0b5662fd61ad1cea02618fda01ed3bdf32c83c8f8b64f2954a2f26864690f96f3ff6566969cdbd7de36f81f76",
      "networkId": 0,
      "chainId": 0
    }
  ]
}