{
  "hash": "0xe1ffbb224112935dab6a7ffdf02206456b5269d06ad9637665b83f7437b2c97f",
  "parentHash": "0x90a51530cf6f55ece3c436c12d311c5bfff9c060ff30a02f0fde382b92c5b0a3",
  "number": 104331,
  "timestamp": 1439868008,
  "nonce": "0xf39ad2c8dc304be8",
  "difficulty": 4298276580834,
  "gasLimit": {
    "_hex": "0x2fefd8"
  },
  "gasUsed": {
    "_hex": "0x5208"
  },
  "miner": "0x9Fa9952255B2b06639A04D63804d4BdFFf6E2d7e",
  "extraData": "0x476574682f76312e302e312f77696e646f77732f676f312e342e32",
  "transactions": [
    {
      "hash": "0x8c2f8e2f834ced16e0dc665fbc3f2f57181a027be8311b6cc911f71d27572742",
      "blockHash": "0xe1ffbb224112935dab6a7ffdf02206456b5269d06ad9637665b83f7437b2c97f",
      "blockNumber": 104331,
      "transactionIndex": 0,
      "confirmations": null,
      "from": "0x1D3ffA437e5bce40fCC134f4E0ac62841E4A9E81",
      "gasPrice": {
        "_hex": "0xba43b7400"
      },
      "gasLimit": {
        "_hex": "0x5208"
      },
      "to": "0xC47Aaa860008be6f65B58c6C6E02a84e666EfE31",
      "value": {
        "_hex": "0x235978e783e000"
      },
      "nonce": 16,
      "data": "0x",
      "r": "0x5436abac6fefe46ba4bfc7ffc4ceb00513f2db075015b16c97aff41ed7413451",
      "s": "0x7372c510f05d5fd2be69d9488c3a08262c2e456f6a2410cc32e37dd28cd13639",
      "v": 27,
      "creates": null,
      "raw": "0xf86b10850ba43b740082520894c47aaa860008be6f65b58c6c6e02a84e666efe3187235978e783e000801ba05436abac6fefe46ba4bfc7ffc4ceb00513f2db075015b16c97aff41ed7413451a07372c510f05d5fd2be69d9488c3a08262c2e456f6a2410cc32e37dd28cd13639",
      "networkId": 0,
      "chainId": 0
    }
  ]
}