{
  "hash": "0x55a62b08eedc3776db857f966dfe3703be888292883a421afe380f0cf42da902",
  "parentHash": "0x8e0ef6b2be449643e13f6b68cdbf17be1155db50e8a53cea062c33884d297eee",
  "number": 52634,
  "timestamp": 1439024863,
  "nonce": "0xb337069315431cf2",
  "difficulty": 1567120895883,
  "gasLimit": {
    "_hex": "0x16b279"
  },
  "gasUsed": {
    "_hex": "0xf4240"
  },
  "miner": "0xbb7B8287f3F0a933474a79eAe42CBCa977791171",
  "extraData": "0x476574682f4c5649562f76312e302e312f6c696e75782f676f312e342e32",
  "transactions": [
    {
      "hash": "0xeefe634c24b3bc43cf998d4e44a49dbd4a98f76dc40b41bf1c6993489700190e",
      "blockHash": "0x55a62b08eedc3776db857f966dfe3703be888292883a421afe380f0cf42da902",
      "blockNumber": 52634,
      "transactionIndex": 0,
      "confirmations": null,
      "from": "0x54dAeb3E8a6BBC797E4aD2b0339f134b186e4637",
      "gasPrice": {
        "_hex": "0xdf4ba21f9"
      },
      "gasLimit": {
        "_hex": "0x7a120"
      },
      "to": "0xBAA54d6E90c3F4d7Ebec11bD180134C7eD8eBb52",
      "value": {
        "_hex": "0x16345785d8a0000"
      },
      "nonce": 827,
      "data": "0x",
      "r": "0x495ef083bab430a04d38d236286f819b48b5397981f25705872ffdf77d6b5345",
      "s": "0x61b199f3be36a7f1d4ff59c8758615963c1941f831aa513b7c2734a86718dccc",
      "v": 27,
      "creates": null,
      "raw": "0xf86f82033b850df4ba21f98307a12094baa54d6e90c3f4d7ebec11bd180134c7ed8ebb5288016345785d8a0000801ba0495ef083bab430a04d38d236286f819b48b5397981f25705872ffdf77d6b5345a061b199f3be36a7f1d4ff59c8758615963c1941f831aa513b7c2734a86718dccc",
      "networkId": 0,
      "chainId": 0
    },
    {
      "hash": "0xf803826eaf50c06aa20f6b3fed816afff8646e78ad441f3dd1afbf154f22b177",
      "blockHash": "0x55a62b08eedc3776db857f966dfe3703be888292883a421afe380f0cf42da902",
      "blockNumber": 52634,
      "transactionIndex": 1,
      "confirmations": null,
      "from": "0x54dAeb3E8a6BBC797E4aD2b0339f134b186e4637",
      "gasPrice": {
        "_hex": "0xdada9c769"
      },
      "gasLimit": {
        "_hex": "0x7a120"
      },
      "to": "0xBAA54d6E90c3F4d7Ebec11bD180134C7eD8eBb52",
      "value": {
        "_hex": "0x16345785d8a0000"
      },
      "nonce": 828,
      "data": "0x",
      "r": "0x21ceeba86b965a884ff0e6c796ddc693027cb7c7b2fc83b837b9bbf9dc356fad",
      "s": "0x4b6c0cc99cb463f4191684471080928a0ca303afa01f8fe2bbb2504001e877fb",
      "v": 28,
      "creates": null,
      "raw": "0xf86f82033c850dada9c7698307a12094baa54d6e90c3f4d7ebec11bd180134c7ed8ebb5288016345785d8a0000801ca021ceeba86b965a884ff0e6c796ddc693027cb7c7b2fc83b837b9bbf9dc356fada04b6c0cc99cb463f4191684471080928a0ca303afa01f8fe2bbb2504001e877fb",
      "networkId": 0,
      "chainId": 0
    }
  ]
}