{
  "hash": "0xd9d3eb28af56236691ed1570281c3adbc99519c7dd3f682abbacd41c816ad76b",
  "parentHash": "0x7b5a494739e9aa41bfb5f5a683805e75fdbc860ab967b8129574d3854d9c3a18",
  "number": 121676,
  "timestamp": 1440180745,
  "nonce": "0xf76fdd10764dd109",
  "difficulty": 4484289469040,
  "gasLimit": {
    "_hex": "0x2fefd8"
  },
  "gasUsed": {
    "_hex": "0xa410"
  },
  "miner": "0x52bc44d5378309EE2abF1539BF71dE1b7d7bE3b5",
  "extraData": "0xd783010002844765746887676f312e342e32856c696e7578",
  "transactions": [
    {
      "hash": "0xc75f50a0ca09ef3e31d4c23a4857cb73ce2e1efe218b676dbb533f73b94792e5",
      "blockHash": "0xd9d3eb28af56236691ed1570281c3adbc99519c7dd3f682abbacd41c816ad76b",
      "blockNumber": 121676,
      "transactionIndex": 0,
      "confirmations": null,
      "from": "0xcA422f88253D0492F13F304eBCF34892B3c07AEc",
      "gasPrice": {
        "_hex": "0xde9a5b5b9"
      },
      "gasLimit": {
        "_hex": "0x5208"
      },
      "to": "0x32Be343B94f860124dC4fEe278FDCBD38C102D88",
      "value": {
        "_hex": "0x9292bc348b61d000"
      },
      "nonce": 11,
      "data": "0x",
      "r": "0xb85b3fb55e25ef3ff25fa9831c9998ae1b294c47d8a561f9905b669461357b05",
      "s": "0x2a4977a3c5f9ebe8fb63dc129b94230737ba1eac217e79ebb6289a245e33d1da",
      "v": 27,
      "creates": null,
      "raw": "0xf86c0b850de9a5b5b98252089432be343b94f860124dc4fee278fdcbd38c102d88889292bc348b61d000801ba0b85b3fb55e25ef3ff25fa9831c9998ae1b294c47d8a561f9905b669461357b05a02a4977a3c5f9ebe8fb63dc129b94230737ba1eac217e79ebb6289a245e33d1da",
      "networkId": 0,
      "chainId": 0
    },
    {
      "hash": "0x7e953fd502368b47f02c85e460d070932f112d82a78873b826d9b0f801ebaa10",
      "blockHash": "0xd9d3eb28af56236691ed1570281c3adbc99519c7dd3f682abbacd41c816ad76b",
      "blockNumber": 121676,
      "transactionIndex": 1,
      "confirmations": null,
      "from": "0xB8796061FcCcC0c40BD2060d95d6cff928bD1C1B",
      "gasPrice": {
        "_hex": "0xde9a5b5b9"
      },
      "gasLimit": {
        "_hex": "0x5208"
      },
      "to": "0x32Be343B94f860124dC4fEe278FDCBD38C102D88",
      "value": {
        "_hex": "0xaff75624592f4000"
      },
      "nonce": 11,
      "data": "0x",
      "r": "0x1e932e5e356b065c8f82a2b06ee05e19f4a4b838519a18412965429000cfba1a",
      "s": "0x07402dc5fe3c4e1e9d9978435869bc9c050467cd496955ada8d6f5212ca28ca3",
      "v": 27,
      "creates": null,
      "raw": "0xf86c0b850de9a5b5b98252089432be343b94f860124dc4fee278fdcbd38c102d8888aff75624592f4000801ba01e932e5e356b065c8f82a2b06ee05e19f4a4b838519a18412965429000cfba1aa007402dc5fe3c4e1e9d9978435869bc9c050467cd496955ada8d6f5212ca28ca3",
      "networkId": 0,
      "chainId": 0
    }
  ]
}