{
  "hash": "0x3d3fe3f8a57bddbe8e18ea16e14f95450b7051343d51b52233ce7e07b856abc3",
  "parentHash": "0xbade3d9d5e6171eea9aa21b2b9832807aeed7df548c35b25ebdda623bde7a4c8",
  "number": 68945,
  "timestamp": 1439296020,
  "nonce": "0x83de7a71cfcdef8a",
  "difficulty": 2034966390750,
  "gasLimit": {
    "_hex": "0x2fefd8"
  },
  "gasUsed": {
    "_hex": "0x1ec30"
  },
  "miner": "0xf927a40C8B7F6E07c5af7FA2155B4864a4112B13",
  "extraData": "0x",
  "transactions": [
    {
      "hash": "0xa29a41e14d8fdcdf72cc6af0822c06d48cb6bec52aadfe259032af18e6fda00e",
      "blockHash": "0x3d3fe3f8a57bddbe8e18ea16e14f95450b7051343d51b52233ce7e07b856abc3",
      "blockNumber": 68945,
      "transactionIndex": 0,
      "confirmations": null,
      "from": "0x4aAc4Ddc27f1e7c2d4769e444eD0892d88A201F8",
      "gasPrice": {
        "_hex": "0xba43b7400"
      },
      "gasLimit": {
        "_hex": "0x5208"
      },
      "to": "0x3899A1cdB9b4275d84860c6AB72D09e08DCc589A",
      "value": {
        "_hex": "0xaa9f075c200000"
      },
      "nonce": 1,
      "data": "0x",
      "r": "0x43d5a4ac13160d5ec33968c44fd4d2d174519d43de9652d138ed59a6b104613d",
      "s": "0x6e460dca1f38add644c57347922089edc51c813dcc2519bf8d1bb6d873cc6955",
      "v": 28,
      "creates": null,
      "raw": "0xf86b01850ba43b7400825208943899a1cdb9b4275d84860c6ab72d09e08dcc589a87aa9f075c200000801ca043d5a4ac13160d5ec33968c44fd4d2d174519d43de9652d138ed59a6b104613da06e460dca1f38add644c57347922089edc51c813dcc2519bf8d1bb6d873cc6955",
      "networkId": 0,
      "chainId": 0
    },
    {
      "hash": "0xadb1cdcff00f978063f72020d6766fbdbc3f369a2a81447fa6d26c4a6c043121",
      "blockHash": "0x3d3fe3f8a57bddbe8e18ea16e14f95450b7051343d51b52233ce7e07b856abc3",
      "blockNumber": 68945,
      "transactionIndex": 1,
      "confirmations": null,
      "from": "0x06aDb049491ec3c400dE78374edE98348C276A09",
      "gasPrice": {
        "_hex": "0xba43b7400"
      },
      "gasLimit": {
        "_hex": "0x5208"
      },
      "to": "0xd7cd983a1343848E6B4D7e189F8Fb050F1d440Ac",
      "value": {
        "_hex": "0xaa9f075c200000"
      },
      "nonce": 1,
      "data": "0x",
      "r": "0xbccb20dbdbace5d882190d1b5deac229508f348e9b8028863b8c83685a8dcb1a",
      "s": "0x295bd6578340798640c80ece7b3ae693dc1d3e6a2995c2a9bcdc2276d4f2ff0b",
      "v": 28,
      "creates": null,
      "raw": "0xf86b01850ba43b740082520894d7cd983a1343848e6b4d7e189f8fb050f1d440ac87aa9f075c200000801ca0bccb20dbdbace5d882190d1b5deac229508f348e9b8028863b8c83685a8dcb1aa0295bd6578340798640c80ece7b3ae693dc1d3e6a2995c2a9bcdc2276d4f2ff0b",
      "networkId": 0,
      "chainId": 0
    },
    {
      "hash": "0xa5c4f4c5ab93994221d5037300d47ccb8c7550ac92f6f5c4515e6bb04715e148",
      "blockHash": "0x3d3fe3f8a57bddbe8e18ea16e14f95450b7051343d51b52233ce7e07b856abc3",
      "blockNumber": 68945,
      "transactionIndex": 2,
      "confirmations": null,
      "from": "0x1a193e57C256b5e3564139Cf013b643Ef9E2d173",
      "gasPrice": {
        "_hex": "0xba43b7400"
      },
      "gasLimit": {
        "_hex": "0x5208"
      },
      "to": "0x0D4034E02bb759035dBaE78bDe38D2ec9f79Feb1",
      "value": {
        "_hex": "0xaa9f075c200000"
      },
      "nonce": 1,
      "data": "0x",
      "r": "0xf6acaaf97b7cdacd32fba06d117970ff21d2635cf1dbc287262aba3a2766b4b0",
      "s": "0x543949b1e543c500fff2f4ba4f84f2821593f9b46b022144372df737c0343553",
      "v": 28,
      "creates": null,
      "raw": "0xf86b01850ba43b7400825208940d4034e02bb759035dbae78bde38d2ec9f79feb187aa9f075c200000801ca0f6acaaf97b7cdacd32fba06d117970ff21d2635cf1dbc287262aba3a2766b4b0a0543949b1e543c500fff2f4ba4f84f2821593f9b46b022144372df737c0343553",
      "networkId": 0,
      "chainId": 0
    },
    {
      "hash": "0x8d5bf876f380088cb22c9a420caed5acb2df49276eabfc34209f506ae3641458",
      "blockHash": "0x3d3fe3f8a57bddbe8e18ea16e14f95450b7051343d51b52233ce7e07b856abc3",
      "blockNumber": 68945,
      "transactionIndex": 3,
      "confirmations": null,
      "from": "0xDA4Df15deBAdaeac68E9e544dDa2481C5fc1FacD",
      "gasPrice": {
        "_hex": "0xba43b7400"
      },
      "gasLimit": {
        "_hex": "0x5208"
      },
      "to": "0x4ad723b0Bd1E2f189ec2012D28b9d1d58c744373",
      "value": {
        "_hex": "0xaa9f075c200000"
      },
      "nonce": 1,
      "data": "0x",
      "r": "0x10e3c6a3e96c12591f436ce1733f903fdced8b474ce99215383c4edca832d23b",
      "s": "0x4a4b463764d4589cf0a7c1b2677225f5414b3e56affc8e5e18b09e43282a1a01",
      "v": 27,
      "creates": null,
      "raw": "0xf86b01850ba43b7400825208944ad723b0bd1e2f189ec2012d28b9d1d58c74437387aa9f075c200000801ba010e3c6a3e96c12591f436ce1733f903fdced8b474ce99215383c4edca832d23ba04a4b463764d4589cf0a7c1b2677225f5414b3e56affc8e5e18b09e43282a1a01",
      "networkId": 0,
      "chainId": 0
    },
    {
      "hash": "0x260b61ee94f82ab5941a63b1bbbc0ddcb0ec8ea386059a7fe5620471e82a75ab",
      "blockHash": "0x3d3fe3f8a57bddbe8e18ea16e14f95450b7051343d51b52233ce7e07b856abc3",
      "blockNumber": 68945,
      "transactionIndex": 4,
      "confirmations": null,
      "from": "0x663515dF92ec4fC269B376C18Dc2Aab1083f181e",
      "gasPrice": {
        "_hex": "0xba43b7400"
      },
      "gasLimit": {
        "_hex": "0x5208"
      },
      "to": "0x1387f0408dD08CEF5A4b7f5258Bda0067666b93b",
      "value": {
        "_hex": "0xaa9f075c200000"
      },
      "nonce": 1,
      "data": "0x",
      "r": "0xc312ac4c14e5b8e71977a7957b5351cc3e4d3358fc2df5f92cebbf28aa338876",
      "s": "0x7b7b25bed98a0102713fac6600f4ef5901749fd964f3560227ab536eeada7f43",
      "v": 28,
      "creates": null,
      "raw": "0xf86b01850ba43b7400825208941387f0408dd08cef5a4b7f5258bda0067666b93b87aa9f075c200000801ca0c312ac4c14e5b8e71977a7957b5351cc3e4d3358fc2df5f92cebbf28aa338876a07b7b25bed98a0102713fac6600f4ef5901749fd964f3560227ab536eeada7f43",
      "networkId": 0,
      "chainId": 0
    },
    {
      "hash": "0x7d3f6803887fe6498f6fff80482e43629088bf3caf5e41a5e0ed0c4004f51c61",
      "blockHash": "0x3d3fe3f8a57bddbe8e18ea16e14f95450b7051343d51b52233ce7e07b856abc3",
      "blockNumber": 68945,
      "transactionIndex": 5,
      "confirmations": null,
      "from": "0x3b3014beA595B13C5929fC583a5e4F4f11A76eb2",
      "gasPrice": {
        "_hex": "0xba43b7400"
      },
      "gasLimit": {
        "_hex": "0x5208"
      },
      "to": "0xDDFb0A4a63aBD565c7D801662c75cbA520638829",
      "value": {
        "_hex": "0xaa9f075c200000"
      },
      "nonce": 1,
      "data": "0x",
      "r": "0x4be3361f5c4f2916c8034f5ad093da57f7e135e3e53866ed3e6cffac421c4f18",
      "s": "0x04438654aabf06890cb892325ee72fbfd6ceee7730c024ee4cab10e6041d20d0",
      "v": 28,
      "creates": null,
      "raw": "0xf86b01850ba43b740082520894ddfb0a4a63abd565c7d801662c75cba52063882987aa9f075c200000801ca04be3361f5c4f2916c8034f5ad093da57f7e135e3e53866ed3e6cffac421c4f18a004438654aabf06890cb892325ee72fbfd6ceee7730c024ee4cab10e6041d20d0",
      "networkId": 0,
      "chainId": 0
    }
  ]
}