{
  "hash": "0x1a7ef489e362e667a86abec17100487163df0faccd01baccabff221eef231de6",
  "parentHash": "0x380c63a52a6b492d23e977861fbad3052791f38b8acbab8fa11172f161bf1d0d",
  "number": 80759,
  "timestamp": 1439490354,
  "nonce": "0x3ae30669c58a1f08",
  "difficulty": 2441627265063,
  "gasLimit": {
    "_hex": "0x2fefd8"
  },
  "gasUsed": {
    "_hex": "0x546c"
  },
  "miner": "0xC603Ab5ef41fC61AA8b76bEddb09e3Cfcbb174BD",
  "extraData": "0x476574682f76312e302e312f77696e646f77732f676f312e342e32",
  "transactions": [
    {
      "hash": "0x4b171a485bd0d4399484905dd639511c48a88ea7b1b5836a47e0560989f37f8b",
      "blockHash": "0x1a7ef489e362e667a86abec17100487163df0faccd01baccabff221eef231de6",
      "blockNumber": 80759,
      "transactionIndex": 0,
      "confirmations": null,
      "from": "0x6a6b18a45A76467e2E5d5A2ef911c3e12929857B",
      "gasPrice": {
        "_hex": "0x110c8f7d8de"
      },
      "gasLimit": {
        "_hex": "0xc350"
      },
      "to": "0x2910543Af39abA0Cd09dBb2D50200b3E800A63D2",
      "value": {
        "_hex": "0x6c6a3016135fb60000"
      },
      "nonce": 1,
      "data": "0x454e52355044435738",
      "r": "0x1ee545f35e1cbd4f3408af8982c643ffef917557f2f06e58a42e7edf4c99d089",
      "s": "0x11fe05acea0afbcadb78774078d9b2383ae17d0f0152e46971f2afee64255bda",
      "v": 27,
      "creates": null,
      "raw": "0xf87701860110c8f7d8de82c350942910543af39aba0cd09dbb2d50200b3e800a63d2896c6a3016135fb6000089454e523550444357381ba01ee545f35e1cbd4f3408af8982c643ffef917557f2f06e58a42e7edf4c99d089a011fe05acea0afbcadb78774078d9b2383ae17d0f0152e46971f2afee64255bda",
      "networkId": 0,
      "chainId": 0
    }
  ]
}