{
  "hash": "0x659a3620494c89ecab12fbe4cbec0cec005e3bb7b033b9bb592f730f3b515ccc",
  "parentHash": "0x96670c528cce9d8591712aae07df846ccabdd6fe1f712c478701f2b71f1fbcc1",
  "number": 52682,
  "timestamp": 1439025585,
  "nonce": "0xa472bd52a8b2d4ed",
  "difficulty": 1570175685472,
  "gasLimit": {
    "_hex": "0x17a55b"
  },
  "gasUsed": {
    "_hex": "0x16e360"
  },
  "miner": "0xe6A7a1d47ff21B6321162AEA7C6CB457D5476Bca",
  "extraData": "0x657468706f6f6c2e6f7267",
  "transactions": [
    {
      "hash": "0x5dc87dcf04e39a8bd2662ffb0bfeea5bc56081382cc2ff1589144b6e5199df44",
      "blockHash": "0x659a3620494c89ecab12fbe4cbec0cec005e3bb7b033b9bb592f730f3b515ccc",
      "blockNumber": 52682,
      "transactionIndex": 0,
      "confirmations": null,
      "from": "0x54dAeb3E8a6BBC797E4aD2b0339f134b186e4637",
      "gasPrice": {
        "_hex": "0xdf4ba21f9"
      },
      "gasLimit": {
        "_hex": "0x7a120"
      },
      "to": "0xBAA54d6E90c3F4d7Ebec11bD180134C7eD8eBb52",
      "value": {
        "_hex": "0x16345785d8a0000"
      },
      "nonce": 927,
      "data": "0x",
      "r": "0x08a70bf3bf1a8f517230906045f7144cbb87ac8b49a1c78996761a3135ac52be",
      "s": "0x60f81b145b0764a32c0e9868052d182e2de11b7a232a6fe1e4a3e5efd04972a4",
      "v": 27,
      "creates": null,
      "raw": "0xf86f82039f850df4ba21f98307a12094baa54d6e90c3f4d7ebec11bd180134c7ed8ebb5288016345785d8a0000801ba008a70bf3bf1a8f517230906045f7144cbb87ac8b49a1c78996761a3135ac52bea060f81b145b0764a32c0e9868052d182e2de11b7a232a6fe1e4a3e5efd04972a4",
      "networkId": 0,
      "chainId": 0
    },
    {
      "hash": "0x0e537fcb5a2136dfbf05c8be9455d2b0d7fc1718a0bfccff1dffa36e7245d684",
      "blockHash": "0x659a3620494c89ecab12fbe4cbec0cec005e3bb7b033b9bb592f730f3b515ccc",
      "blockNumber": 52682,
      "transactionIndex": 1,
      "confirmations": null,
      "from": "0x54dAeb3E8a6BBC797E4aD2b0339f134b186e4637",
      "gasPrice": {
        "_hex": "0xdce5b224a"
      },
      "gasLimit": {
        "_hex": "0x7a120"
      },
      "to": "0xBAA54d6E90c3F4d7Ebec11bD180134C7eD8eBb52",
      "value": {
        "_hex": "0x16345785d8a0000"
      },
      "nonce": 928,
      "data": "0x",
      "r": "0x70b323d6b57e0ca01b3a466938d2a9310224c8805f401591a907a4a7d298d998",
      "s": "0x2aef124614957ccca45e6b8a7d4719b6479174d941b51d1e65cc2bf9dff832ce",
      "v": 27,
      "creates": null,
      "raw": "0xf86f8203a0850dce5b224a8307a12094baa54d6e90c3f4d7ebec11bd180134c7ed8ebb5288016345785d8a0000801ba070b323d6b57e0ca01b3a466938d2a9310224c8805f401591a907a4a7d298d998a02aef124614957ccca45e6b8a7d4719b6479174d941b51d1e65cc2bf9dff832ce",
      "networkId": 0,
      "chainId": 0
    },
    {
      "hash": "0xe508d642fad5d7022d40790346c7a674deb77254567e25306c6cdaab4395f4c5",
      "blockHash": "0x659a3620494c89ecab12fbe4cbec0cec005e3bb7b033b9bb592f730f3b515ccc",
      "blockNumber": 52682,
      "transactionIndex": 2,
      "confirmations": null,
      "from": "0x54dAeb3E8a6BBC797E4aD2b0339f134b186e4637",
      "gasPrice": {
        "_hex": "0xe1780dfbb"
      },
      "gasLimit": {
        "_hex": "0x7a120"
      },
      "to": "0xBAA54d6E90c3F4d7Ebec11bD180134C7eD8eBb52",
      "value": {
        "_hex": "0x16345785d8a0000"
      },
      "nonce": 929,
      "data": "0x",
      "r": "0x78622a3aaa5fd2b4d70aa9700449e09e6144dbce9489c7a5aae9ea86c766efcd",
      "s": "0x384f1c328e5720bd67f569d50d7dcf90e6dd3b11c0cce665bce786ddbfa967a1",
      "v": 27,
      "creates": null,
      "raw": "0xf86f8203a1850e1780dfbb8307a12094baa54d6e90c3f4d7ebec11bd180134c7ed8ebb5288016345785d8a0000801ba078622a3aaa5fd2b4d70aa9700449e09e6144dbce9489c7a5aae9ea86c766efcda0384f1c328e5720bd67f569d50d7dcf90e6dd3b11c0cce665bce786ddbfa967a1",
      "networkId": 0,
      "chainId": 0
    }
  ]
}