{
  "hash": "0xb94f59eb463b2f34024668d902023b884f62495fe3dfbfccf2c8dec446a3882e",
  "parentHash": "0x9a3bc1324c2fb546643209a2395c98e3137067eb42ac669d05d400c12a892daf",
  "number": 121988,
  "timestamp": 1440186161,
  "nonce": "0xb8a8dcb9dac33b2e",
  "difficulty": 4471004832379,
  "gasLimit": {
    "_hex": "0x2fefd8"
  },
  "gasUsed": {
    "_hex": "0xa410"
  },
  "miner": "0x9746c7e1ef2bd21FF3997fa467593a89cb852BD0",
  "extraData": "0x476574682f76312e302e312f77696e646f77732f676f312e342e32",
  "transactions": [
    {
      "hash": "0x34e96ad49b505740711a5b4f613a0de62e392294b8a8db98e30bb3192abc1cc6",
      "blockHash": "0xb94f59eb463b2f34024668d902023b884f62495fe3dfbfccf2c8dec446a3882e",
      "blockNumber": 121988,
      "transactionIndex": 0,
      "confirmations": null,
      "from": "0x30beD8049947963394D93412326225E4e3123601",
      "gasPrice": {
        "_hex": "0xcaeb62fb6"
      },
      "gasLimit": {
        "_hex": "0x5208"
      },
      "to": "0x32Be343B94f860124dC4fEe278FDCBD38C102D88",
      "value": {
        "_hex": "0xe65afbb0025f5000"
      },
      "nonce": 21,
      "data": "0x",
      "r": "0x466259befb84e61aba8dcbd0b10d23c4ae266e0fe0f8f5ebe95168e63ce02566",
      "s": "0x51ade35b1847d3adb3a8265b355ab360654ed05eb42f96989b72943569f459ef",
      "v": 28,
      "creates": null,
      "raw": "0xf86c15850caeb62fb68252089432be343b94f860124dc4fee278fdcbd38c102d8888e65afbb0025f5000801ca0466259befb84e61aba8dcbd0b10d23c4ae266e0fe0f8f5ebe95168e63ce02566a051ade35b1847d3adb3a8265b355ab360654ed05eb42f96989b72943569f459ef",
      "networkId": 0,
      "chainId": 0
    },
    {
      "hash": "0x524e12bd73484a007ed51a225f90c38d57843225365402768c3ec9da7ddcc1c1",
      "blockHash": "0xb94f59eb463b2f34024668d902023b884f62495fe3dfbfccf2c8dec446a3882e",
      "blockNumber": 121988,
      "transactionIndex": 1,
      "confirmations": null,
      "from": "0x5b6D1655738E28B06F5045069a2920911b57fed2",
      "gasPrice": {
        "_hex": "0xba43b7400"
      },
      "gasLimit": {
        "_hex": "0x5208"
      },
      "to": "0xFBb1b73C4f0BDa4f67dcA266ce6Ef42f520fBB98",
      "value": {
        "_hex": "0x49740858e76d000"
      },
      "nonce": 0,
      "data": "0x",
      "r": "0x6a9d1644513bb1c7f1aca2c3034be8ce95880a103f0ce567909703a7e4408928",
      "s": "0x1e08238e7e50295f6a906d4ec87f02d66fa507eda1b12e8443567c39d81c9240",
      "v": 28,
      "creates": null,
      "raw": "0xf86c80850ba43b740082520894fbb1b73c4f0bda4f67dca266ce6ef42f520fbb9888049740858e76d000801ca06a9d1644513bb1c7f1aca2c3034be8ce95880a103f0ce567909703a7e4408928a01e08238e7e50295f6a906d4ec87f02d66fa507eda1b12e8443567c39d81c9240",
      "networkId": 0,
      "chainId": 0
    }
  ]
}