{
  "hash": "0x3f1e0af59c9078b343fab74955f41181373aaeb68f20db140dbe86ad7346b469",
  "parentHash": "0xd71a698db88eb058a03c71da53deef319ecdcd05559a03245810520b7c295829",
  "number": 100432,
  "timestamp": 1439806583,
  "nonce": "0x25b310df996de6e2",
  "difficulty": 3796832686696,
  "gasLimit": {
    "_hex": "0x2fefd8"
  },
  "gasUsed": {
    "_hex": "0xf618"
  },
  "miner": "0x785ffdDd5cE55c6DF963f345e68d3F2024E5Acb1",
  "extraData": "0x",
  "transactions": [
    {
      "hash": "0x2cd6c305e852e39b80acb6880c5e773811674f0432c5ff42a6a5382bed14d624",
      "blockHash": "0x3f1e0af59c9078b343fab74955f41181373aaeb68f20db140dbe86ad7346b469",
      "blockNumber": 100432,
      "transactionIndex": 0,
      "confirmations": null,
      "from": "0xF5EeDc192aB70b08D8354384aD94efD095849E00",
      "gasPrice": {
        "_hex": "0xd67427b8b"
      },
      "gasLimit": {
        "_hex": "0x5208"
      },
      "to": "0x32Be343B94f860124dC4fEe278FDCBD38C102D88",
      "value": {
        "_hex": "0x147dc979c5de8a0000"
      },
      "nonce": 47,
      "data": "0x",
      "r": "0x7590bea24542411bc561ce3359fae41e81b9328f04ce2b7c23ef9b0398736d09",
      "s": "0x4442fb4247f9dfaac44ecb8160cec59d7414cf17603c0ac46c32b97f812f8fa8",
      "v": 27,
      "creates": null,
      "raw": "0xf86d2f850d67427b8b8252089432be343b94f860124dc4fee278fdcbd38c102d8889147dc979c5de8a0000801ba07590bea24542411bc561ce3359fae41e81b9328f04ce2b7c23ef9b0398736d09a04442fb4247f9dfaac44ecb8160cec59d7414cf17603c0ac46c32b97f812f8fa8",
      "networkId": 0,
      "chainId": 0
    },
    {
      "hash": "0x97c927d0fc76376e9ef45750d903dfa483809c8cecc81d25ff2b3be1f611df67",
      "blockHash": "0x3f1e0af59c9078b343fab74955f41181373aaeb68f20db140dbe86ad7346b469",
      "blockNumber": 100432,
      "transactionIndex": 1,
      "confirmations": null,
      "from": "0x7fa165177F28D171bA7C17f765c1904344Ec64CB",
      "gasPrice": {
        "_hex": "0xd483db961"
      },
      "gasLimit": {
        "_hex": "0x5208"
      },
      "to": "0x32Be343B94f860124dC4fEe278FDCBD38C102D88",
      "value": {
        "_hex": "0xe231057f20cfa000"
      },
      "nonce": 22,
      "data": "0x",
      "r": "0xab4097bea1259e3c9096e376c9a04a5a1d6c4718e476225827ef444d2d2e0364",
      "s": "0x28e8cbc26f6eea392dce7621130fc6ddbab0ace241f25a48e7c0fec3d16651e0",
      "v": 27,
      "creates": null,
      "raw": "0xf86c16850d483db9618252089432be343b94f860124dc4fee278fdcbd38c102d8888e231057f20cfa000801ba0ab4097bea1259e3c9096e376c9a04a5a1d6c4718e476225827ef444d2d2e0364a028e8cbc26f6eea392dce7621130fc6ddbab0ace241f25a48e7c0fec3d16651e0",
      "networkId": 0,
      "chainId": 0
    },
    {
      "hash": "0x8cd58716bd68e1a98ff899332491593b535193b0d464f9f0ac1036510b8d8caa",
      "blockHash": "0x3f1e0af59c9078b343fab74955f41181373aaeb68f20db140dbe86ad7346b469",
      "blockNumber": 100432,
      "transactionIndex": 2,
      "confirmations": null,
      "from": "0x47fe9Ce29dA03E8466a067e4321fD32312e39607",
      "gasPrice": {
        "_hex": "0xd3d37f23a"
      },
      "gasLimit": {
        "_hex": "0x15f90"
      },
      "to": "0x132ACC4ebA2B5039C65849368648bc19f32BEd97",
      "value": {
        "_hex": "0xde0b6b3a7640000"
      },
      "nonce": 4,
      "data": "0x",
      "r": "0x0f2db4d76a65609951944595fe586b8bb2e4451a4d94a3e8217f0d97238c6d03",
      "s": "0x73ea628a3d419575378cba2f2885d8c036f134e9d2feba4b3a2ac92d4cc63fd9",
      "v": 28,
      "creates": null,
      "raw": "0xf86d04850d3d37f23a83015f9094132acc4eba2b5039c65849368648bc19f32bed97880de0b6b3a7640000801ca00f2db4d76a65609951944595fe586b8bb2e4451a4d94a3e8217f0d97238c6d03a073ea628a3d419575378cba2f2885d8c036f134e9d2feba4b3a2ac92d4cc63fd9",
      "networkId": 0,
      "chainId": 0
    }
  ]
}