{
  "hash": "0x642cfc896a7615a522b35917fc3e3a191652467a8c0d4caf7bf4e143584ca081",
  "parentHash": "0xba5aa5c368ac326fecbd6498a6d97adb4aa8690541352210b70e208ff46e9738",
  "number": 80929,
  "timestamp": 1439493423,
  "nonce": "0xe67349a30d2a0472",
  "difficulty": 2441577784568,
  "gasLimit": {
    "_hex": "0x2fefd8"
  },
  "gasUsed": {
    "_hex": "0x5208"
  },
  "miner": "0xe6A7a1d47ff21B6321162AEA7C6CB457D5476Bca",
  "extraData": "0x476574682f76312e302e312d38326566323666362f6c696e75782f676f312e34",
  "transactions": [
    {
      "hash": "0x6af55c58cb04f5d36d5c4d8f2539c9e14c755b6ad31c5d39d2c93f57a8006be2",
      "blockHash": "0x642cfc896a7615a522b35917fc3e3a191652467a8c0d4caf7bf4e143584ca081",
      "blockNumber": 80929,
      "transactionIndex": 0,
      "confirmations": null,
      "from": "0x2910543Af39abA0Cd09dBb2D50200b3E800A63D2",
      "gasPrice": {
        "_hex": "0xd578141f2"
      },
      "gasLimit": {
        "_hex": "0x5208"
      },
      "to": "0x7C1b1dbF5eb1fEc98755ae253640Dc103ee7d03c",
      "value": {
        "_hex": "0x1a043a59465d78000"
      },
      "nonce": 418,
      "data": "0x",
      "r": "0x9718c9d62d6b0924db5c2ba51f6d410566d42bb5ad7c7c64c13f684ca9094ee4",
      "s": "0x3a5d3db5fbae23e4c064fb6096b1185bae5e17747df9d1f2abd39cf60410346c",
      "v": 28,
      "creates": null,
      "raw": "0xf86f8201a2850d578141f2825208947c1b1dbf5eb1fec98755ae253640dc103ee7d03c8901a043a59465d78000801ca09718c9d62d6b0924db5c2ba51f6d410566d42bb5ad7c7c64c13f684ca9094ee4a03a5d3db5fbae23e4c064fb6096b1185bae5e17747df9d1f2abd39cf60410346c",
      "networkId": 0,
      "chainId": 0
    }
  ]
}