{
  "hash": "0xdf86ca23248e9c09c2c344b81a973f5d55275d1276ef8c1b0f6a81ad24d16407",
  "parentHash": "0x3b8fe2e5b6a39421c44dea99e5b42474f6ee130d9d2891d32f56ebd037dd4e6d",
  "number": 101600,
  "timestamp": 1439825313,
  "nonce": "0xd6693fc5f0e3035b",
  "difficulty": 3893928737584,
  "gasLimit": {
    "_hex": "0x2fefd8"
  },
  "gasUsed": {
    "_hex": "0x5208"
  },
  "miner": "0x9D49F602b0fdb924Bd63DDE2Bd0907E4A07c63a7",
  "extraData": "0x476574682f76312e302e312f6c696e75782f676f312e342e32",
  "transactions": [
    {
      "hash": "0xb4fd22459c9ef4303e6659fe93036ae46735e39cfd0bcaf913365bf227059ed1",
      "blockHash": "0xdf86ca23248e9c09c2c344b81a973f5d55275d1276ef8c1b0f6a81ad24d16407",
      "blockNumber": 101600,
      "transactionIndex": 0,
      "confirmations": null,
      "from": "0x007f7f58D3eb5b7510A301eCC749FC1fCDDBE14D",
      "gasPrice": {
        "_hex": "0xe0cfe7246"
      },
      "gasLimit": {
        "_hex": "0x15f90"
      },
      "to": "0xb1abce2918E21ddb93AA452731a12672A3d9F75a",
      "value": {
        "_hex": "0x4563918244f40000"
      },
      "nonce": 190,
      "data": "0x",
      "r": "0x87ce2bc02eb65d191b7bd55edca1173e2ec5c3fbc4bd290a60a0235e456d2419",
      "s": "0x6511fb3d5c831eb5b174b425a85cd1fc8c647019a80c1312e8944b1054c7244a",
      "v": 27,
      "creates": null,
      "raw": "0xf86e81be850e0cfe724683015f9094b1abce2918e21ddb93aa452731a12672a3d9f75a884563918244f40000801ba087ce2bc02eb65d191b7bd55edca1173e2ec5c3fbc4bd290a60a0235e456d2419a06511fb3d5c831eb5b174b425a85cd1fc8c647019a80c1312e8944b1054c7244a",
      "networkId": 0,
      "chainId": 0
    }
  ]
}