{
  "hash": "0xfc98b1798bfdcfef45709496e3f762f2300137cdaefe9e2652d0b93ec03cb608",
  "parentHash": "0xc9d0538727b812d67186eae931e8c41421a8e83d34633e6eed6645ec82e89e9f",
  "number": 106149,
  "timestamp": 1439899419,
  "nonce": "0x9909559fb16d9c9b",
  "difficulty": 4477268062523,
  "gasLimit": {
    "_hex": "0x2fefd8"
  },
  "gasUsed": {
    "_hex": "0x5208"
  },
  "miner": "0xE300c4587D260cE22a677755Db6429B491A4309E",
  "extraData": "0x",
  "transactions": [
    {
      "hash": "0x203ee90b83ce388117e52ce38f9b8e6563d8855b3b841632691e15ebebd99509",
      "blockHash": "0xfc98b1798bfdcfef45709496e3f762f2300137cdaefe9e2652d0b93ec03cb608",
      "blockNumber": 106149,
      "transactionIndex": 0,
      "confirmations": null,
      "from": "0xAF654b2845616930f74573a909B477E23752DcA4",
      "gasPrice": {
        "_hex": "0x746a528800"
      },
      "gasLimit": {
        "_hex": "0x5267"
      },
      "to": "0x0000000000000000000000000000000000000000",
      "value": {
        "_hex": "0xde0b6b3a7640000"
      },
      "nonce": 13,
      "data": "0x",
      "r": "0x4c8674ea7c9cc14c9b73bd4256fcc8e6f529b3e47e42a3b9318c6d79bb6691e8",
      "s": "0x4ebbfee1fc45c38e69de49cff17b005893f698be40604bea29b260131f217e23",
      "v": 28,
      "creates": null,
      "raw": "0xf86c0d85746a528800825267940000000000000000000000000000000000000000880de0b6b3a7640000801ca04c8674ea7c9cc14c9b73bd4256fcc8e6f529b3e47e42a3b9318c6d79bb6691e8a04ebbfee1fc45c38e69de49cff17b005893f698be40604bea29b260131f217e23",
      "networkId": 0,
      "chainId": 0
    }
  ]
}