{
  "hash": "0x1eaf70e22cfa04450c50d8b51e549046b46f0767d2b7367f8545401db950ec40",
  "parentHash": "0x306dde1b5e2a8c778c16e3b8467c68ce5b7cf8e6518d68f02e2006cf9b7ae216",
  "number": 102423,
  "timestamp": 1439837746,
  "nonce": "0x584876a1c91c5131",
  "difficulty": 3964528389519,
  "gasLimit": {
    "_hex": "0x2fefd8"
  },
  "gasUsed": {
    "_hex": "0x5208"
  },
  "miner": "0xaEAf103356C2Ee943F748E8655659D29881323E1",
  "extraData": "0x476574682f76312e302e312f77696e646f77732f676f312e342e32",
  "transactions": [
    {
      "hash": "0xd8e42fbfd50e17165ae0df25fff8f56d05cd66501ef703b42e842540ae9bbfd0",
      "blockHash": "0x1eaf70e22cfa04450c50d8b51e549046b46f0767d2b7367f8545401db950ec40",
      "blockNumber": 102423,
      "transactionIndex": 0,
      "confirmations": null,
      "from": "0x562a8dcbBEEEf7B360685D27303bD69e094AcCf6",
      "gasPrice": {
        "_hex": "0xd5e23b7a5"
      },
      "gasLimit": {
        "_hex": "0x15f90"
      },
      "to": "0x01A7d9fa7d0Eb1185c67e54dA83c2e75dB69E39f",
      "value": {
        "_hex": "0x878678326eac900000"
      },
      "nonce": 0,
      "data": "0x",
      "r": "0xc05e578ae6525d8f1d204dd28f5efbf0d3637a0e514f519f000dee73241e7a6b",
      "s": "0x11bb7e5adb04102f2e5ccf16f66bdfa1db6c869ddebb3e367112506fff62990e",
      "v": 28,
      "creates": null,
      "raw": "0xf86e80850d5e23b7a583015f909401a7d9fa7d0eb1185c67e54da83c2e75db69e39f89878678326eac900000801ca0c05e578ae6525d8f1d204dd28f5efbf0d3637a0e514f519f000dee73241e7a6ba011bb7e5adb04102f2e5ccf16f66bdfa1db6c869ddebb3e367112506fff62990e",
      "networkId": 0,
      "chainId": 0
    }
  ]
}