{
  "hash": "0xda0aea35701b9befac7b7712044d8dd9d5a89c2045512d9e8e3093b28a111efb",
  "parentHash": "0x125acb0c46dfede12c4477a5a1b61ec7dc25ff99197dc5737cfba873bbace3b2",
  "number": 94798,
  "timestamp": 1439714235,
  "nonce": "0xb4c631a7b0fadab0",
  "difficulty": 3503575950188,
  "gasLimit": {
    "_hex": "0x2fefd8"
  },
  "gasUsed": {
    "_hex": "0x5208"
  },
  "miner": "0xe6A7a1d47ff21B6321162AEA7C6CB457D5476Bca",
  "extraData": "0x476574682f76312e302e312d38326566323666362f6c696e75782f676f312e34",
  "transactions": [
    {
      "hash": "0x8d2e18b1175c1bb15aeed49a119af32bbfe1bf76d078faf317bc3d5a91922e13",
      "blockHash": "0xda0aea35701b9befac7b7712044d8dd9d5a89c2045512d9e8e3093b28a111efb",
      "blockNumber": 94798,
      "transactionIndex": 0,
      "confirmations": null,
      "from": "0x8Ba74c19d14CC77E53A2B1DA67e92F2454E56634",
      "gasPrice": {
        "_hex": "0xdd0534873"
      },
      "gasLimit": {
        "_hex": "0x5208"
      },
      "to": "0x32Be343B94f860124dC4fEe278FDCBD38C102D88",
      "value": {
        "_hex": "0x3635c5409d839c0000"
      },
      "nonce": 3,
      "data": "0x",
      "r": "0x191d621d88a997086ef72cc9344b9313788211a07ea2fef00ca79a3928358b4c",
      "s": "0x3dd05324b3644b8493875908a7e6b56d43838c5e21a817cc7aab2f687e991ec0",
      "v": 27,
      "creates": null,
      "raw": "0xf86d03850dd05348738252089432be343b94f860124dc4fee278fdcbd38c102d88893635c5409d839c0000801ba0191d621d88a997086ef72cc9344b9313788211a07ea2fef00ca79a3928358b4ca03dd05324b3644b8493875908a7e6b56d43838c5e21a817cc7aab2f687e991ec0",
      "networkId": 0,
      "chainId": 0
    }
  ]
}