{
  "hash": "0xb51a2276ee622dea053b5ddb6d62a682d49421cbfff642283753fd3afb053c29",
  "parentHash": "0x1f4ce9d149dc599666c91f89f456fb1dd1cda2c5859eef903acee44a38970935",
  "number": 91585,
  "timestamp": 1439658030,
  "nonce": "0xa7dcc4dcf8692a73",
  "difficulty": 3499787745799,
  "gasLimit": {
    "_hex": "0x2fefd8"
  },
  "gasUsed": {
    "_hex": "0x5208"
  },
  "miner": "0xe6A7a1d47ff21B6321162AEA7C6CB457D5476Bca",
  "extraData": "0x476574682f76312e302e312d38326566323666362f6c696e75782f676f312e34",
  "transactions": [
    {
      "hash": "0xe3247683a92eaa7431fba442554c0ddaefd8a69074221ceb738f3de483679b23",
      "blockHash": "0xb51a2276ee622dea053b5ddb6d62a682d49421cbfff642283753fd3afb053c29",
      "blockNumber": 91585,
      "transactionIndex": 0,
      "confirmations": null,
      "from": "0x32Be343B94f860124dC4fEe278FDCBD38C102D88",
      "gasPrice": {
        "_hex": "0xdf5e95ab6"
      },
      "gasLimit": {
        "_hex": "0x5208"
      },
      "to": "0x29062F7438d8fa6ac773F453E356A34542b6f2AF",
      "value": {
        "_hex": "0xd8d4ee47f07e70000"
      },
      "nonce": 877,
      "data": "0x",
      "r": "0xdac9ef6e988b2a8492a1948f0156a1043a54c58023cfb2a2fd6f725c567a3a53",
      "s": "0x1e4e295256a38b7377606aaabac9bb5eee17de95203b76d29c1c8f09f0dd3cc4",
      "v": 27,
      "creates": null,
      "raw": "0xf86f82036d850df5e95ab68252089429062f7438d8fa6ac773f453e356a34542b6f2af890d8d4ee47f07e70000801ba0dac9ef6e988b2a8492a1948f0156a1043a54c58023cfb2a2fd6f725c567a3a53a01e4e295256a38b7377606aaabac9bb5eee17de95203b76d29c1c8f09f0dd3cc4",
      "networkId": 0,
      "chainId": 0
    }
  ]
}