{
  "hash": "0xbbd4aeb872a3ad5a169eb29c167a244c52da8f09ff6f7989b83fe57415ee9e1e",
  "parentHash": "0x98e2b3a60ccda26a4af44d59598cce79ba9b2edc8e62e87343e9b22f9dd45fc2",
  "number": 94839,
  "timestamp": 1439714874,
  "nonce": "0xbbb8a0691e81a319",
  "difficulty": 3512122887227,
  "gasLimit": {
    "_hex": "0x2fefd8"
  },
  "gasUsed": {
    "_hex": "0x5208"
  },
  "miner": "0x47ff6576639c2e94762eA5443978D7681C0E78DC",
  "extraData": "0x476574682f76312e302e312f6c696e75782f676f312e342e32",
  "transactions": [
    {
      "hash": "0x39989adc871939d43855c210f25655373a955419ac37f136c5fbea69005db4c4",
      "blockHash": "0xbbd4aeb872a3ad5a169eb29c167a244c52da8f09ff6f7989b83fe57415ee9e1e",
      "blockNumber": 94839,
      "transactionIndex": 0,
      "confirmations": null,
      "from": "0xc3DBDB3Efa722db2a3F6041b0ca0042782296ba9",
      "gasPrice": {
        "_hex": "0xd4e53779b"
      },
      "gasLimit": {
        "_hex": "0x15f90"
      },
      "to": "0x92857A8BC0A6F66180324f49541C695A3a0Ff944",
      "value": {
        "_hex": "0x22b1c8c1227a00000"
      },
      "nonce": 5,
      "data": "0x",
      "r": "0x53eca7a717348c9cf7f7463bc3f323203f99c72695f30c01cabae79962c24f76",
      "s": "0x3e934b5d76e669087143b6cd5e06f54b16907379c2afa1551183e8183c457ab7",
      "v": 28,
      "creates": null,
      "raw": "0xf86e05850d4e53779b83015f909492857a8bc0a6f66180324f49541c695a3a0ff94489022b1c8c1227a00000801ca053eca7a717348c9cf7f7463bc3f323203f99c72695f30c01cabae79962c24f76a03e934b5d76e669087143b6cd5e06f54b16907379c2afa1551183e8183c457ab7",
      "networkId": 0,
      "chainId": 0
    }
  ]
}