{
  "hash": "0xf85af70b214575c6342b4e7e9f90a9d7d059e29fad65e034b274d5023aac42d7",
  "parentHash": "0xad45f5e4d47007606d035519469d7fa775049cade911d3552e6d7c4c0e248a74",
  "number": 85407,
  "timestamp": 1439563150,
  "nonce": "0xa29f7c15ff3c5187",
  "difficulty": 2738321189883,
  "gasLimit": {
    "_hex": "0x2fefd8"
  },
  "gasUsed": {
    "_hex": "0x5208"
  },
  "miner": "0xe6A7a1d47ff21B6321162AEA7C6CB457D5476Bca",
  "extraData": "0x476574682f76312e302e312d38326566323666362f6c696e75782f676f312e34",
  "transactions": [
    {
      "hash": "0x637494f510facf185296905c55f3a1043d62778fc25bf70ea815e7f7a2bc2c3d",
      "blockHash": "0xf85af70b214575c6342b4e7e9f90a9d7d059e29fad65e034b274d5023aac42d7",
      "blockNumber": 85407,
      "transactionIndex": 0,
      "confirmations": null,
      "from": "0xF09B3e87f913dDfD57Ae8049C731DBa9B636DFc3",
      "gasPrice": {
        "_hex": "0xba43b7400"
      },
      "gasLimit": {
        "_hex": "0x5208"
      },
      "to": "0x88F04B8296a5bed52A9e1E416c8cCD98339Ee56e",
      "value": {
        "_hex": "0x20f5ae2fb5607c6000"
      },
      "nonce": 0,
      "data": "0x",
      "r": "0x129284f074c0d2e452f9b5d44a3e6b3467d73d27194b3f732936b6fb02075337",
      "s": "0xc0ee4244a4533301e7f43eb108f093a46e821e2d42a7a902303b81cee6fc3ee5",
      "v": 28,
      "creates": null,
      "raw": "0xf86d80850ba43b74008252089488f04b8296a5bed52a9e1e416c8ccd98339ee56e8920f5ae2fb5607c6000801ca0129284f074c0d2e452f9b5d44a3e6b3467d73d27194b3f732936b6fb02075337a0c0ee4244a4533301e7f43eb108f093a46e821e2d42a7a902303b81cee6fc3ee5",
      "networkId": 0,
      "chainId": 0
    }
  ]
}