{
  "hash": "0x4d7520aad3e8c67a641ee66428a1eceb67152a80104fac8cd0077d03eb16b9d6",
  "parentHash": "0x39c9dc32deddf90e61db4e35a3169e75d1e73746b85acc1ce059be2ca09cbc4d",
  "number": 113183,
  "timestamp": 1440019035,
  "nonce": "0xf5880efe4f4b9433",
  "difficulty": 4521829746301,
  "gasLimit": {
    "_hex": "0x2fefd8"
  },
  "gasUsed": {
    "_hex": "0x5208"
  },
  "miner": "0xeB1325C8D9d3ea8D74aC11F4B00F1B2367686319",
  "extraData": "0x",
  "transactions": [
    {
      "hash": "0xa3b60ed0995719fc29a82b0394954f7444eaa9b0bd2b16d6f6816258852bdbbd",
      "blockHash": "0x4d7520aad3e8c67a641ee66428a1eceb67152a80104fac8cd0077d03eb16b9d6",
      "blockNumber": 113183,
      "transactionIndex": 0,
      "confirmations": null,
      "from": "0xa70a9a7040d542C632D8e0bE7c5513A8a5Bbc752",
      "gasPrice": {
        "_hex": "0xdcccb3bac"
      },
      "gasLimit": {
        "_hex": "0x5208"
      },
      "to": "0x32Be343B94f860124dC4fEe278FDCBD38C102D88",
      "value": {
        "_hex": "0x455f257cf3bd9400"
      },
      "nonce": 299,
      "data": "0x",
      "r": "0x2ac69f8c605cd27d5aa97af732c6a653ac6f147db9b1dcd943b7b2e478f00e50",
      "s": "0x654684d213182ce59417b79d0cee2d785fd9127f8b1f5d3fcfbc059257780d09",
      "v": 27,
      "creates": null,
      "raw": "0xf86e82012b850dcccb3bac8252089432be343b94f860124dc4fee278fdcbd38c102d8888455f257cf3bd9400801ba02ac69f8c605cd27d5aa97af732c6a653ac6f147db9b1dcd943b7b2e478f00e50a0654684d213182ce59417b79d0cee2d785fd9127f8b1f5d3fcfbc059257780d09",
      "networkId": 0,
      "chainId": 0
    }
  ]
}