{
  "hash": "0x15d2adda36b1a09d1f872e823152204a0beb486ded7faede342a1b0164ebd61c",
  "parentHash": "0x5ffa15a74fdb068507a8a97de22430b696d67ccf4e182b3e41a7ba72b5e166d3",
  "number": 108749,
  "timestamp": 1439945584,
  "nonce": "0x7d494083e9424ee2",
  "difficulty": 4338172195463,
  "gasLimit": {
    "_hex": "0x2fefd8"
  },
  "gasUsed": {
    "_hex": "0x5208"
  },
  "miner": "0xe6A7a1d47ff21B6321162AEA7C6CB457D5476Bca",
  "extraData": "0x476574682f76312e302e312d38326566323666362f6c696e75782f676f312e34",
  "transactions": [
    {
      "hash": "0xdff1f7ba9214b7f746a6e1959026740cb0f0696dea423dcc4bc8830e2081d23c",
      "blockHash": "0x15d2adda36b1a09d1f872e823152204a0beb486ded7faede342a1b0164ebd61c",
      "blockNumber": 108749,
      "transactionIndex": 0,
      "confirmations": null,
      "from": "0x731f48FB82E3aa0085A39775Fe6987f943B05362",
      "gasPrice": {
        "_hex": "0xe10bde994"
      },
      "gasLimit": {
        "_hex": "0x15f90"
      },
      "to": "0x2910543Af39abA0Cd09dBb2D50200b3E800A63D2",
      "value": {
        "_hex": "0xc7d713b49da0000"
      },
      "nonce": 2,
      "data": "0x",
      "r": "0xb03d433450cc308805f59e05000d4e6c40a429276666b3358d9abc2da762677a",
      "s": "0x0cf981ee7ecd9c28799f99ba569f0505b5fa74fb1274146f481e992507b6ebfe",
      "v": 27,
      "creates": null,
      "raw": "0xf86d02850e10bde99483015f90942910543af39aba0cd09dbb2d50200b3e800a63d2880c7d713b49da0000801ba0b03d433450cc308805f59e05000d4e6c40a429276666b3358d9abc2da762677aa00cf981ee7ecd9c28799f99ba569f0505b5fa74fb1274146f481e992507b6ebfe",
      "networkId": 0,
      "chainId": 0
    }
  ]
}