{
  "hash": "0x735cb7d00f71c38186b24047390b7e83bcc09b6557d614adf4014e250e290b5b",
  "parentHash": "0xd43a5d4c5eef4069a8b18127fb2ff441a7ca1809ad7d987531c559e657f0dda6",
  "number": 68315,
  "timestamp": 1439285908,
  "nonce": "0xf4498f7cefd5b31e",
  "difficulty": 2005525189505,
  "gasLimit": {
    "_hex": "0x2fefd8"
  },
  "gasUsed": {
    "_hex": "0x5208"
  },
  "miner": "0xf927a40C8B7F6E07c5af7FA2155B4864a4112B13",
  "extraData": "0x",
  "transactions": [
    {
      "hash": "0x0aeb4f889dd2354b1f4eab2d3363cebb9c21255a1de8416cd92d030a3b11c814",
      "blockHash": "0x735cb7d00f71c38186b24047390b7e83bcc09b6557d614adf4014e250e290b5b",
      "blockNumber": 68315,
      "transactionIndex": 0,
      "confirmations": null,
      "from": "0x6747f922385c9a6F9cfDf095F34345257DD597bE",
      "gasPrice": {
        "_hex": "0xba43b7400"
      },
      "gasLimit": {
        "_hex": "0x5208"
      },
      "to": "0x38ef6Be89CAf64f56788723650b028AfF968CF82",
      "value": {
        "_hex": "0x1fcbfa42bd6000"
      },
      "nonce": 49,
      "data": "0x",
      "r": "0x39d054ec4e0d85d405c5db128a43041e76bfc952785384344990f8bfe2342818",
      "s": "0x004970413177233056d7dcae7576f6218a1ecdf746c66a783538d4697392327f",
      "v": 27,
      "creates": null,
      "raw": "0xf86a31850ba43b74008252089438ef6be89caf64f56788723650b028aff968cf82871fcbfa42bd6000801ba039d054ec4e0d85d405c5db128a43041e76bfc952785384344990f8bfe23428189f4970413177233056d7dcae7576f6218a1ecdf746c66a783538d4697392327f",
      "networkId": 0,
      "chainId": 0
    }
  ]
}