{
  "hash": "0x5a522d241d1ede16d1f0c336b6c68fea2a0db0b03ca0dc9e305a55697b775890",
  "parentHash": "0x7a1586346806a4446f2dca2c519be32f9d8d4955f4358a93125b8f713e12a6b8",
  "number": 81128,
  "timestamp": 1439496645,
  "nonce": "0x190e5d927218aabd",
  "difficulty": 2437946037346,
  "gasLimit": {
    "_hex": "0x2fefd8"
  },
  "gasUsed": {
    "_hex": "0xa410"
  },
  "miner": "0xe6A7a1d47ff21B6321162AEA7C6CB457D5476Bca",
  "extraData": "0x476574682f76312e302e312d38326566323666362f6c696e75782f676f312e34",
  "transactions": [
    {
      "hash": "0x9c1c5992ff9b901642e6653915d5b1b80c38d0ca25f099e0ad3d2f153378c2f9",
      "blockHash": "0x5a522d241d1ede16d1f0c336b6c68fea2a0db0b03ca0dc9e305a55697b775890",
      "blockNumber": 81128,
      "transactionIndex": 0,
      "confirmations": null,
      "from": "0x120A270bbC009644e35F0bB6ab13f95b8199c4ad",
      "gasPrice": {
        "_hex": "0xd987b4cc4"
      },
      "gasLimit": {
        "_hex": "0x3d090"
      },
      "to": "0xFbc92cE518a6CA6341B08b4468880Cc9Dd61a027",
      "value": {
        "_hex": "0x193c76ae7063c8d400"
      },
      "nonce": 368,
      "data": "0x",
      "r": "0x4364ae0a2ca348820ca127b35be503654109c754873de612edfe460c8fb9a00d",
      "s": "0x500564cdfd33bc852f2e0deed5063e02964b6cd977c0dcc85f43124ec40c229d",
      "v": 28,
      "creates": null,
      "raw": "0xf870820170850d987b4cc48303d09094fbc92ce518a6ca6341b08b4468880cc9dd61a02789193c76ae7063c8d400801ca04364ae0a2ca348820ca127b35be503654109c754873de612edfe460c8fb9a00da0500564cdfd33bc852f2e0deed5063e02964b6cd977c0dcc85f43124ec40c229d",
      "networkId": 0,
      "chainId": 0
    },
    {
      "hash": "0x5de40125476b4b430d78ec1c1929b1d1c41c6dafa81d09892e2c4951db62bbc2",
      "blockHash": "0x5a522d241d1ede16d1f0c336b6c68fea2a0db0b03ca0dc9e305a55697b775890",
      "blockNumber": 81128,
      "transactionIndex": 1,
      "confirmations": null,
      "from": "0x95dF4e3445D7662624c48eba74cF9e0a53E9f732",
      "gasPrice": {
        "_hex": "0xce81b83e8"
      },
      "gasLimit": {
        "_hex": "0x5208"
      },
      "to": "0x43279854AaF8825a6d1fcCf056caF190Ab8a7b76",
      "value": {
        "_hex": "0xd8d726b7177a800000"
      },
      "nonce": 16,
      "data": "0x",
      "r": "0x1d139e63e95888636ffaec61a92d7f642c4e3d67ee87716b4dfa6a156b6a38f5",
      "s": "0x082ea3540fe24628b655a27849f5c9bc8e1f85633f4e5e3d42877b513c093eb7",
      "v": 27,
      "creates": null,
      "raw": "0xf86d10850ce81b83e88252089443279854aaf8825a6d1fccf056caf190ab8a7b7689d8d726b7177a800000801ba01d139e63e95888636ffaec61a92d7f642c4e3d67ee87716b4dfa6a156b6a38f5a0082ea3540fe24628b655a27849f5c9bc8e1f85633f4e5e3d42877b513c093eb7",
      "networkId": 0,
      "chainId": 0
    }
  ]
}