{
  "hash": "0x02ff7485d5dda89472fd2247dfc789d3172f1e3c2949af913ec69022ab957b35",
  "parentHash": "0x910f237e79f52d2ec46be8f33060e86e88fdeb485e00f05499e83004546ec92e",
  "number": 49379,
  "timestamp": 1438972666,
  "nonce": "0x7f7837a23ac3ff37",
  "difficulty": 1476345148608,
  "gasLimit": {
    "_hex": "0x2f04c"
  },
  "gasUsed": {
    "_hex": "0x14820"
  },
  "miner": "0xe6A7a1d47ff21B6321162AEA7C6CB457D5476Bca",
  "extraData": "0x657468706f6f6c2e6f7267",
  "transactions": [
    {
      "hash": "0x35643b88e59f755a3996c18f6ad444a22922b80c15b1f45e926eeab74b76e71b",
      "blockHash": "0x02ff7485d5dda89472fd2247dfc789d3172f1e3c2949af913ec69022ab957b35",
      "blockNumber": 49379,
      "transactionIndex": 0,
      "confirmations": null,
      "from": "0x481b251c3Cd86c298f9f601f8BF7021412e193c6",
      "gasPrice": {
        "_hex": "0xcea1cb011"
      },
      "gasLimit": {
        "_hex": "0x15f90"
      },
      "to": "0x1a79c7f4039C67A39d7513884cDC0E2C34222490",
      "value": {
        "_hex": "0x38d7ea4c67fff"
      },
      "nonce": 0,
      "data": "0x",
      "r": "0xbbaf6cd84f00c9863873915ba87446d0fa35574b114175614c0b0be7949432a6",
      "s": "0x0ed3022a8d86547bcd7739154396b55f662c0421f05ebb8a8cdd52c876c445fc",
      "v": 28,
      "creates": null,
      "raw": "0xf86c80850cea1cb01183015f90941a79c7f4039c67a39d7513884cdc0e2c3422249087038d7ea4c67fff801ca0bbaf6cd84f00c9863873915ba87446d0fa35574b114175614c0b0be7949432a6a00ed3022a8d86547bcd7739154396b55f662c0421f05ebb8a8cdd52c876c445fc",
      "networkId": 0,
      "chainId": 0
    },
    {
      "hash": "0x55ca703974f61a2a4674f93d563c37b62cd0fcc7f7c1f98b8af653c6bf274e9e",
      "blockHash": "0x02ff7485d5dda89472fd2247dfc789d3172f1e3c2949af913ec69022ab957b35",
      "blockNumber": 49379,
      "transactionIndex": 1,
      "confirmations": null,
      "from": "0xB2Ee3409b1f48d7d8D75B40568D7b5E68A4fb284",
      "gasPrice": {
        "_hex": "0xdbd83ba19"
      },
      "gasLimit": {
        "_hex": "0x5208"
      },
      "to": "0x32Be343B94f860124dC4fEe278FDCBD38C102D88",
      "value": {
        "_hex": "0x87fc30f0ca8ed800"
      },
      "nonce": 0,
      "data": "0x",
      "r": "0x1f55c0670b547be827704c0422f3a036a9462541129c90c774e797fdf82983c3",
      "s": "0x083124bf0c1deb07b5f641af95476fb49f36ecb113ee379e82ef05887dbef07c",
      "v": 27,
      "creates": null,
      "raw": "0xf86c80850dbd83ba198252089432be343b94f860124dc4fee278fdcbd38c102d888887fc30f0ca8ed800801ba01f55c0670b547be827704c0422f3a036a9462541129c90c774e797fdf82983c3a0083124bf0c1deb07b5f641af95476fb49f36ecb113ee379e82ef05887dbef07c",
      "networkId": 0,
      "chainId": 0
    },
    {
      "hash": "0xfd80f3d35f9e01ab88fc6407f34827802725501b202fe5935c6b0e3512926921",
      "blockHash": "0x02ff7485d5dda89472fd2247dfc789d3172f1e3c2949af913ec69022ab957b35",
      "blockNumber": 49379,
      "transactionIndex": 2,
      "confirmations": null,
      "from": "0x1Bb2E0301Ccc81367BC1C2c97B9d60548ECe3B69",
      "gasPrice": {
        "_hex": "0xdbd83ba19"
      },
      "gasLimit": {
        "_hex": "0x5208"
      },
      "to": "0x32Be343B94f860124dC4fEe278FDCBD38C102D88",
      "value": {
        "_hex": "0x813ce8a03ad828000"
      },
      "nonce": 1,
      "data": "0x",
      "r": "0x5b5ba007befb32183fc2b4b0988fc5959fe5bac5327c2ffc352271d8c5b9e234",
      "s": "0x59b5caa3d534d095d94377789494d2d9e5c1960b516669a3458e343eba066e72",
      "v": 27,
      "creates": null,
      "raw": "0xf86d01850dbd83ba198252089432be343b94f860124dc4fee278fdcbd38c102d88890813ce8a03ad828000801ba05b5ba007befb32183fc2b4b0988fc5959fe5bac5327c2ffc352271d8c5b9e234a059b5caa3d534d095d94377789494d2d9e5c1960b516669a3458e343eba066e72",
      "networkId": 0,
      "chainId": 0
    },
    {
      "hash": "0x945a0e0e1dfc8a2f941c640c8dfe49b03dafd956592ac325e1d08d4248eb9f28",
      "blockHash": "0x02ff7485d5dda89472fd2247dfc789d3172f1e3c2949af913ec69022ab957b35",
      "blockNumber": 49379,
      "transactionIndex": 3,
      "confirmations": null,
      "from": "0xb82415923664590236aea1c1912955E7653B9FCa",
      "gasPrice": {
        "_hex": "0xdbd83ba19"
      },
      "gasLimit": {
        "_hex": "0x5208"
      },
      "to": "0x32Be343B94f860124dC4fEe278FDCBD38C102D88",
      "value": {
        "_hex": "0x56bc2f70a5ecac000"
      },
      "nonce": 1,
      "data": "0x",
      "r": "0x6ba2c7a60f17e5027c3d396a42ebf3766d20e4536c71772d1e90f8964a4c3ac1",
      "s": "0x3b86dc79314ff57a2dc632717e11d1bb5f8a39a9e680f15585a0256922a8250d",
      "v": 28,
      "creates": null,
      "raw": "0xf86d01850dbd83ba198252089432be343b94f860124dc4fee278fdcbd38c102d8889056bc2f70a5ecac000801ca06ba2c7a60f17e5027c3d396a42ebf3766d20e4536c71772d1e90f8964a4c3ac1a03b86dc79314ff57a2dc632717e11d1bb5f8a39a9e680f15585a0256922a8250d",
      "networkId": 0,
      "chainId": 0
    }
  ]
}