{
  "hash": "0x40c71efe63e1ee3141d8a2a36cdc2118fc273cdb9b63f1198c289d901b3766fb",
  "parentHash": "0xb00c3f7ef51a4f1814c8c8d09ebfc07fbe63a83a1f614a88a06d979e4da66888",
  "number": 76502,
  "timestamp": 1439421691,
  "nonce": "0xb32788e79cd671f8",
  "difficulty": 2223169575278,
  "gasLimit": {
    "_hex": "0x2fefd8"
  },
  "gasUsed": {
    "_hex": "0x546c"
  },
  "miner": "0xF2d2AfF1320476cb8C6b607199D23175cc595693",
  "extraData": "0x476574682f76312e302e312f77696e646f77732f676f312e342e32",
  "transactions": [
    {
      "hash": "0x654d3d5e7facb90878202fe8e0748f69155b838f887667a2083c81f16dfda0f7",
      "blockHash": "0x40c71efe63e1ee3141d8a2a36cdc2118fc273cdb9b63f1198c289d901b3766fb",
      "blockNumber": 76502,
      "transactionIndex": 0,
      "confirmations": null,
      "from": "0xE7bD36a7CF4F1F8896378D41177BEf637075a1eD",
      "gasPrice": {
        "_hex": "0xd3a9f6e33"
      },
      "gasLimit": {
        "_hex": "0x55f0"
      },
      "to": "0x2910543Af39abA0Cd09dBb2D50200b3E800A63D2",
      "value": {
        "_hex": "0x98a7d9b8314c0000"
      },
      "nonce": 2,
      "data": "0x454e4d573432434547",
      "r": "0x047054dee0fcadc39dd6bcab64c177aa8311f9548b1c1f461ca9e595be95f257",
      "s": "0x439fc7e7c360c44002191a2c8b23ddba3bbb03eba2c0f3d12cc083f2aeab2814",
      "v": 27,
      "creates": null,
      "raw": "0xf87502850d3a9f6e338255f0942910543af39aba0cd09dbb2d50200b3e800a63d28898a7d9b8314c000089454e4d5734324345471ba0047054dee0fcadc39dd6bcab64c177aa8311f9548b1c1f461ca9e595be95f257a0439fc7e7c360c44002191a2c8b23ddba3bbb03eba2c0f3d12cc083f2aeab2814",
      "networkId": 0,
      "chainId": 0
    }
  ]
}