{
  "hash": "0x75fb35fd78c3b8dfa0f0a03ee383ad7ead0c61f85e72a103261fbb7311cf4642",
  "parentHash": "0x2cc45c6ecb3493325c76c602be0b8e3b9c6319133e2684da8df4033eb5aaad09",
  "number": 70810,
  "timestamp": 1439325888,
  "nonce": "0xab71c77581cda9b1",
  "difficulty": 2143635191876,
  "gasLimit": {
    "_hex": "0x2fefd5"
  },
  "gasUsed": {
    "_hex": "0xf87c"
  },
  "miner": "0xEF247E639d49461D25F57e9362CadE3120910Ce0",
  "extraData": "0x476574682f76312e302e312f6c696e75782f676f312e342e32",
  "transactions": [
    {
      "hash": "0x79d6d845d92ad87b74e020f6f001b381409fd7956d7b579eaac0bdb3399650ea",
      "blockHash": "0x75fb35fd78c3b8dfa0f0a03ee383ad7ead0c61f85e72a103261fbb7311cf4642",
      "blockNumber": 70810,
      "transactionIndex": 0,
      "confirmations": null,
      "from": "0xEcfD004D02f36Cd4d8b4a8C1A9533b6AF85CD716",
      "gasPrice": {
        "_hex": "0x110c8f7d8de"
      },
      "gasLimit": {
        "_hex": "0xc350"
      },
      "to": "0x2910543Af39abA0Cd09dBb2D50200b3E800A63D2",
      "value": {
        "_hex": "0x10f33cbfe0794380000"
      },
      "nonce": 0,
      "data": "0x454e4d385430354e30",
      "r": "0x13d7e0158f1ffd9f1a435fb166bd9553b99894f88b139292f3c6f6b3d873d310",
      "s": "0x612f947ad714be8ccea4d6268debe86d4ef40660fd7cef21306ee17c6929b050",
      "v": 28,
      "creates": null,
      "raw": "0xf87880860110c8f7d8de82c350942910543af39aba0cd09dbb2d50200b3e800a63d28a010f33cbfe079438000089454e4d385430354e301ca013d7e0158f1ffd9f1a435fb166bd9553b99894f88b139292f3c6f6b3d873d310a0612f947ad714be8ccea4d6268debe86d4ef40660fd7cef21306ee17c6929b050",
      "networkId": 0,
      "chainId": 0
    },
    {
      "hash": "0x1b42eff238bc5f9fb9679c4748207e98cb928f8b9d45687ddf0399af7f976085",
      "blockHash": "0x75fb35fd78c3b8dfa0f0a03ee383ad7ead0c61f85e72a103261fbb7311cf4642",
      "blockNumber": 70810,
      "transactionIndex": 1,
      "confirmations": null,
      "from": "0x2910543Af39abA0Cd09dBb2D50200b3E800A63D2",
      "gasPrice": {
        "_hex": "0xde33eb4c9"
      },
      "gasLimit": {
        "_hex": "0x5208"
      },
      "to": "0x2db0CA23aeB4B1721bB88bc7B2059F5F99876d45",
      "value": {
        "_hex": "0xf01427270590c7e000"
      },
      "nonce": 254,
      "data": "0x",
      "r": "0xc9fe46f01e68d4b012750bb689ca9ab4c622eebd6c21ff26764315c30be772aa",
      "s": "0x4c9a7c4b86558d04ed480ffd8f589dcbef6b5bae27d3160d7edaf2b525e7589f",
      "v": 27,
      "creates": null,
      "raw": "0xf86e81fe850de33eb4c9825208942db0ca23aeb4b1721bb88bc7b2059f5f99876d4589f01427270590c7e000801ba0c9fe46f01e68d4b012750bb689ca9ab4c622eebd6c21ff26764315c30be772aaa04c9a7c4b86558d04ed480ffd8f589dcbef6b5bae27d3160d7edaf2b525e7589f",
      "networkId": 0,
      "chainId": 0
    },
    {
      "hash": "0xb0a8b40b6744ba14cb3a895770cad162d1ab2866d541354f42194d17a3773011",
      "blockHash": "0x75fb35fd78c3b8dfa0f0a03ee383ad7ead0c61f85e72a103261fbb7311cf4642",
      "blockNumber": 70810,
      "transactionIndex": 2,
      "confirmations": null,
      "from": "0x2910543Af39abA0Cd09dBb2D50200b3E800A63D2",
      "gasPrice": {
        "_hex": "0xde33eb4c9"
      },
      "gasLimit": {
        "_hex": "0x5208"
      },
      "to": "0x235236386b79A71D7Fcd0827D95FDE47b6Ea113F",
      "value": {
        "_hex": "0x69e01d506b46a000"
      },
      "nonce": 255,
      "data": "0x",
      "r": "0x2caa0a5c0d2fde6d03c2e50253eb9f3804207bab59952f66322030b399761162",
      "s": "0x51209b12ab9d5ece30f921171d452f057f673f42046cef351413d505f8a80be3",
      "v": 27,
      "creates": null,
      "raw": "0xf86d81ff850de33eb4c982520894235236386b79a71d7fcd0827d95fde47b6ea113f8869e01d506b46a000801ba02caa0a5c0d2fde6d03c2e50253eb9f3804207bab59952f66322030b399761162a051209b12ab9d5ece30f921171d452f057f673f42046cef351413d505f8a80be3",
      "networkId": 0,
      "chainId": 0
    }
  ]
}