{
  "hash": "0xe361c4a23c8850b323d32a4eb883bf1fd9436ce31b4abd882d6b8a1aab55505d",
  "parentHash": "0x75d60d8d2965512fcf7657ba235250a38a83086752ff6156d4ddd5c0d54e88c6",
  "number": 101977,
  "timestamp": 1439830720,
  "nonce": "0xf9e1538afe3e0c66",
  "difficulty": 3937728892718,
  "gasLimit": {
    "_hex": "0x2fefd8"
  },
  "gasUsed": {
    "_hex": "0x5208"
  },
  "miner": "0xe6A7a1d47ff21B6321162AEA7C6CB457D5476Bca",
  "extraData": "0x476574682f76312e302e312d38326566323666362f6c696e75782f676f312e34",
  "transactions": [
    {
      "hash": "0x1d53322543e71dfb3e3c8fdbb850673426aeee4e476461f03dce3006a63fc7a4",
      "blockHash": "0xe361c4a23c8850b323d32a4eb883bf1fd9436ce31b4abd882d6b8a1aab55505d",
      "blockNumber": 101977,
      "transactionIndex": 0,
      "confirmations": null,
      "from": "0xC47Aaa860008be6f65B58c6C6E02a84e666EfE31",
      "gasPrice": {
        "_hex": "0xd9d91a19e"
      },
      "gasLimit": {
        "_hex": "0x15f90"
      },
      "to": "0x58B94a362ac6F3f8058facd1FAaAF8cD00456057",
      "value": {
        "_hex": "0x375bc65d89087f87"
      },
      "nonce": 44,
      "data": "0x",
      "r": "0xfa36a0b62ac990b3b93d5129f16b38ddc526ef4f5fd42effe062e24dd9c43f3c",
      "s": "0x5d8907c0384d033c35806c830e9142453a6f16078ec1682d376e19e500ce75e9",
      "v": 28,
      "creates": null,
      "raw": "0xf86d2c850d9d91a19e83015f909458b94a362ac6f3f8058facd1faaaf8cd0045605788375bc65d89087f87801ca0fa36a0b62ac990b3b93d5129f16b38ddc526ef4f5fd42effe062e24dd9c43f3ca05d8907c0384d033c35806c830e9142453a6f16078ec1682d376e19e500ce75e9",
      "networkId": 0,
      "chainId": 0
    }
  ]
}