{
  "hash": "0x94d86719a65dc6012dab761c6b9d8dfd30f9a59e15ac3bc358df38818b465102",
  "parentHash": "0x95439430c2ee332ea8710c02939acc023889b4223b6f7f54184263fea28ff7c2",
  "number": 105933,
  "timestamp": 1439895828,
  "nonce": "0xf0e723b9fc34cf12",
  "difficulty": 4464285211142,
  "gasLimit": {
    "_hex": "0x2fefd8"
  },
  "gasUsed": {
    "_hex": "0xf618"
  },
  "miner": "0x0193d941b50d91BE6567c7eE1C0Fe7AF498b4137",
  "extraData": "0x4a5ace9e4e",
  "transactions": [
    {
      "hash": "0x182d8d85220c1416a2cf8a11af0478d6d090d94f2903c43ce18e918804eb1316",
      "blockHash": "0x94d86719a65dc6012dab761c6b9d8dfd30f9a59e15ac3bc358df38818b465102",
      "blockNumber": 105933,
      "transactionIndex": 0,
      "confirmations": null,
      "from": "0x99181ED48C7c51532622dA23e20E2B38392476A7",
      "gasPrice": {
        "_hex": "0xcd1bfe677"
      },
      "gasLimit": {
        "_hex": "0x5208"
      },
      "to": "0x32Be343B94f860124dC4fEe278FDCBD38C102D88",
      "value": {
        "_hex": "0x1f71e4e76361c400"
      },
      "nonce": 9,
      "data": "0x",
      "r": "0x4d20431a9ae4cc214fc0604b23cb4a22a76ded443c75daee0bfd2193c46ec16c",
      "s": "0x2663512d99d960473e2cd9aa1c9986d12803e59810a8752dceeeee689a1beff4",
      "v": 27,
      "creates": null,
      "raw": "0xf86c09850cd1bfe6778252089432be343b94f860124dc4fee278fdcbd38c102d88881f71e4e76361c400801ba04d20431a9ae4cc214fc0604b23cb4a22a76ded443c75daee0bfd2193c46ec16ca02663512d99d960473e2cd9aa1c9986d12803e59810a8752dceeeee689a1beff4",
      "networkId": 0,
      "chainId": 0
    },
    {
      "hash": "0xf40dd14cb39f758fb9d31c721451365b832c8fbf0e4679aa09386c48b74ef3b1",
      "blockHash": "0x94d86719a65dc6012dab761c6b9d8dfd30f9a59e15ac3bc358df38818b465102",
      "blockNumber": 105933,
      "transactionIndex": 1,
      "confirmations": null,
      "from": "0x296ddc7dB724c4b7252dEe85F3969df1b618ef1F",
      "gasPrice": {
        "_hex": "0xcd1bfe677"
      },
      "gasLimit": {
        "_hex": "0x5208"
      },
      "to": "0x32Be343B94f860124dC4fEe278FDCBD38C102D88",
      "value": {
        "_hex": "0x8ac3076ec37a4000"
      },
      "nonce": 3,
      "data": "0x",
      "r": "0x73e341b6ee8af6f674ca237d67e1d042f9e9afde6b1a1ff163de24183b16cb67",
      "s": "0x6e124e69590c5b22295bc3cbef8504d568f8100805bce14bd2fdc0c29bb5fbf5",
      "v": 27,
      "creates": null,
      "raw": "0xf86c03850cd1bfe6778252089432be343b94f860124dc4fee278fdcbd38c102d88888ac3076ec37a4000801ba073e341b6ee8af6f674ca237d67e1d042f9e9afde6b1a1ff163de24183b16cb67a06e124e69590c5b22295bc3cbef8504d568f8100805bce14bd2fdc0c29bb5fbf5",
      "networkId": 0,
      "chainId": 0
    },
    {
      "hash": "0x08c8b704ba32e7cda2faeef9f54aa20f18580ccea6cc491fcbcefc89854cddc2",
      "blockHash": "0x94d86719a65dc6012dab761c6b9d8dfd30f9a59e15ac3bc358df38818b465102",
      "blockNumber": 105933,
      "transactionIndex": 2,
      "confirmations": null,
      "from": "0xBb7f43EDfd8bf08B022fEd5BD91e3f9dE7e74D09",
      "gasPrice": {
        "_hex": "0xcd1bfe677"
      },
      "gasLimit": {
        "_hex": "0x5208"
      },
      "to": "0x32Be343B94f860124dC4fEe278FDCBD38C102D88",
      "value": {
        "_hex": "0x8ac3076ec37a4000"
      },
      "nonce": 4,
      "data": "0x",
      "r": "0xe9a6dafd4345a0a164ffd61bff855887371e760088733b4a9c7f2dd17d93b706",
      "s": "0x09cc8b5f218a64751376bc69e038891a61576d34663603186de3d50447c739f2",
      "v": 27,
      "creates": null,
      "raw": "0xf86c04850cd1bfe6778252089432be343b94f860124dc4fee278fdcbd38c102d88888ac3076ec37a4000801ba0e9a6dafd4345a0a164ffd61bff855887371e760088733b4a9c7f2dd17d93b706a009cc8b5f218a64751376bc69e038891a61576d34663603186de3d50447c739f2",
      "networkId": 0,
      "chainId": 0
    }
  ]
}