{
  "hash": "0x967358b94f1065f50fb65277c14484a752bc4d2a81bb2934037a7b32b55f7ac4",
  "parentHash": "0xc597f8629325034c79bdc89fd6897885da48b7a23d01abbe105a36e648bf8093",
  "number": 111523,
  "timestamp": 1439991657,
  "nonce": "0x0db642f3f4b4f74f",
  "difficulty": 4452606296154,
  "gasLimit": {
    "_hex": "0x2fefd8"
  },
  "gasUsed": {
    "_hex": "0x5208"
  },
  "miner": "0x580992B51e3925e23280EfB93d3047C82f17E038",
  "extraData": "0x476574682f76312e302e312f6c696e75782f676f312e342e32",
  "transactions": [
    {
      "hash": "0x0601724bdf5f02618835b9a2fb5c16fea8629ffa43b5b94eed8331a6f06353e6",
      "blockHash": "0x967358b94f1065f50fb65277c14484a752bc4d2a81bb2934037a7b32b55f7ac4",
      "blockNumber": 111523,
      "transactionIndex": 0,
      "confirmations": null,
      "from": "0x944bd85E903362E39D6Ae7E4f609CE21C2EE03dc",
      "gasPrice": {
        "_hex": "0xce0173ed9"
      },
      "gasLimit": {
        "_hex": "0x15f90"
      },
      "to": "0x05dbCFEec0a867Ee5ae6468cD4cdF92E1924ad33",
      "value": {
        "_hex": "0x26db992a3b180000"
      },
      "nonce": 0,
      "data": "0x",
      "r": "0xb24889369dfd514ea2a6d5175a47474cdb82f5b5f863f31a4aae21ba698cfa9f",
      "s": "0x1257886a65e55df8d18f2929653c43c516d48ef9ddb1679af29956f03269d627",
      "v": 27,
      "creates": null,
      "raw": "0xf86d80850ce0173ed983015f909405dbcfeec0a867ee5ae6468cd4cdf92e1924ad338826db992a3b180000801ba0b24889369dfd514ea2a6d5175a47474cdb82f5b5f863f31a4aae21ba698cfa9fa01257886a65e55df8d18f2929653c43c516d48ef9ddb1679af29956f03269d627",
      "networkId": 0,
      "chainId": 0
    }
  ]
}