{
  "hash": "0xd840f5e70ed7f81cbf6afd52c53ca7816dcc4c47e3c387b2731c5764fdbaaa09",
  "parentHash": "0xa5c914b7b945c559fdb22b5fb551c2f6b3c6a801386393861142d8dac1648bb3",
  "number": 61587,
  "timestamp": 1439174812,
  "nonce": "0x1b92562316bf2f9c",
  "difficulty": 1740425929425,
  "gasLimit": {
    "_hex": "0x2fefd5"
  },
  "gasUsed": {
    "_hex": "0x5208"
  },
  "miner": "0x957523c697993cB24FCf75EfBce4f228325e7383",
  "extraData": "0x476574682f76312e302e312f6c696e75782f676f312e342e32",
  "transactions": [
    {
      "hash": "0x492ea8096543951a45f2c5c4f2b7f1a38f97056d84a4a6e54cd8267283dd545b",
      "blockHash": "0xd840f5e70ed7f81cbf6afd52c53ca7816dcc4c47e3c387b2731c5764fdbaaa09",
      "blockNumber": 61587,
      "transactionIndex": 0,
      "confirmations": null,
      "from": "0x120A270bbC009644e35F0bB6ab13f95b8199c4ad",
      "gasPrice": {
        "_hex": "0xd4f3800eb"
      },
      "gasLimit": {
        "_hex": "0x15f90"
      },
      "to": "0x6CEaB690C13c569062c3E85A2A27fAF1eBad174b",
      "value": {
        "_hex": "0x4563918244f40000"
      },
      "nonce": 77,
      "data": "0x",
      "r": "0xce7104d508195714a606400410bda150ae657988fcc2595c815de14be5ca4036",
      "s": "0x705ea8b24597fa4d531352a4e0d7fbf83ad5dd440828999afb201cb36f177e0b",
      "v": 27,
      "creates": null,
      "raw": "0xf86d4d850d4f3800eb83015f90946ceab690c13c569062c3e85a2a27faf1ebad174b884563918244f40000801ba0ce7104d508195714a606400410bda150ae657988fcc2595c815de14be5ca4036a0705ea8b24597fa4d531352a4e0d7fbf83ad5dd440828999afb201cb36f177e0b",
      "networkId": 0,
      "chainId": 0
    }
  ]
}