{
  "hash": "0x5f14e070d5c9ffc87a7df0d3bc39db4a76013927e2b61c96ed3a6e64b0bba7d9",
  "parentHash": "0x7eef6393cf9bc4028fd405e2f9796750083bed339ccc881f4679f1ba02cf20ca",
  "number": 121462,
  "timestamp": 1440177394,
  "nonce": "0x226a8d1673f4c93d",
  "difficulty": 4445162857744,
  "gasLimit": {
    "_hex": "0x2fefd8"
  },
  "gasUsed": {
    "_hex": "0x5208"
  },
  "miner": "0xBDF2dd433ED03E0Ff7c0E238C6126B7bc74304de",
  "extraData": "0x",
  "transactions": [
    {
      "hash": "0xaf9367fad7fa34636fe56913fb77056839ed4f4a519c87449eddb1082ba25351",
      "blockHash": "0x5f14e070d5c9ffc87a7df0d3bc39db4a76013927e2b61c96ed3a6e64b0bba7d9",
      "blockNumber": 121462,
      "transactionIndex": 0,
      "confirmations": null,
      "from": "0xa70a9a7040d542C632D8e0bE7c5513A8a5Bbc752",
      "gasPrice": {
        "_hex": "0xba43b7400"
      },
      "gasLimit": {
        "_hex": "0x5208"
      },
      "to": "0x32Be343B94f860124dC4fEe278FDCBD38C102D88",
      "value": {
        "_hex": "0x455fd68a17f06000"
      },
      "nonce": 334,
      "data": "0x",
      "r": "0x2f4aef672b989610d8389fbcc68e348c102b698775dcdc6bb89a13c5596013ea",
      "s": "0x037b884137dd3ef2d40d82943b092f01e80081df1fb522b8c93da19e603ac8c4",
      "v": 27,
      "creates": null,
      "raw": "0xf86e82014e850ba43b74008252089432be343b94f860124dc4fee278fdcbd38c102d8888455fd68a17f06000801ba02f4aef672b989610d8389fbcc68e348c102b698775dcdc6bb89a13c5596013eaa0037b884137dd3ef2d40d82943b092f01e80081df1fb522b8c93da19e603ac8c4",
      "networkId": 0,
      "chainId": 0
    }
  ]
}