{
  "hash": "0x6a18e057527b44a9d647f9f9ca9c26d031056d8d01a32e3d23594b41c426e0f9",
  "parentHash": "0x5e33b0884763221b8311fb51c0f77227e2e39cf66f8501927bbdb5fe4305e770",
  "number": 59406,
  "timestamp": 1439137616,
  "nonce": "0x08e69fc697f746f7",
  "difficulty": 1703043948400,
  "gasLimit": {
    "_hex": "0x2fefd8"
  },
  "gasUsed": {
    "_hex": "0x5208"
  },
  "miner": "0xbb7B8287f3F0a933474a79eAe42CBCa977791171",
  "extraData": "0x476574682f4c5649562f76312e302e312f6c696e75782f676f312e342e32",
  "transactions": [
    {
      "hash": "0x63de973ce8aadbe0094c533dd96f1ae594756eaa3623cbb719ab64d726ec1027",
      "blockHash": "0x6a18e057527b44a9d647f9f9ca9c26d031056d8d01a32e3d23594b41c426e0f9",
      "blockNumber": 59406,
      "transactionIndex": 0,
      "confirmations": null,
      "from": "0x961A3E33FC9789a8Adf573e07066BfCc81e21E5f",
      "gasPrice": {
        "_hex": "0xd62fb50f9"
      },
      "gasLimit": {
        "_hex": "0x15f90"
      },
      "to": "0x120A270bbC009644e35F0bB6ab13f95b8199c4ad",
      "value": {
        "_hex": "0x3a087203969019800"
      },
      "nonce": 0,
      "data": "0x",
      "r": "0x2c121a470fc022da7c850c05e498016ba0266b13ce8b02a0510669b4f3e3e0cf",
      "s": "0x66abf5c17f6b14779e462b7e81c2d59709560f191c114a26bd13e5c43f83bfd0",
      "v": 27,
      "creates": null,
      "raw": "0xf86e80850d62fb50f983015f9094120a270bbc009644e35f0bb6ab13f95b8199c4ad8903a087203969019800801ba02c121a470fc022da7c850c05e498016ba0266b13ce8b02a0510669b4f3e3e0cfa066abf5c17f6b14779e462b7e81c2d59709560f191c114a26bd13e5c43f83bfd0",
      "networkId": 0,
      "chainId": 0
    }
  ]
}