{
  "hash": "0x68dc1ed57916875ec108ccc09b04bc4cca67c6fc66f049dc93717cb7d769f3cf",
  "parentHash": "0x455503b0ec65e1646558d7a3c8fc174dd25335f358a251d1899d3ba4afda4bc1",
  "number": 94794,
  "timestamp": 1439714168,
  "nonce": "0xb8f035f67199822d",
  "difficulty": 3503577620824,
  "gasLimit": {
    "_hex": "0x2fefd8"
  },
  "gasUsed": {
    "_hex": "0x5208"
  },
  "miner": "0x0089508679abF8c71BF6781687120e3E6a84584D",
  "extraData": "0x",
  "transactions": [
    {
      "hash": "0xa89e4124ff1c40ca2e4a6e441f8af4bdb04f7cac07bf5981b425c247d99e4f7e",
      "blockHash": "0x68dc1ed57916875ec108ccc09b04bc4cca67c6fc66f049dc93717cb7d769f3cf",
      "blockNumber": 94794,
      "transactionIndex": 0,
      "confirmations": null,
      "from": "0xf1e46105a7A9A546C1e87de8d741371EFaB9a7b0",
      "gasPrice": {
        "_hex": "0xcf764587b"
      },
      "gasLimit": {
        "_hex": "0x5208"
      },
      "to": "0x32Be343B94f860124dC4fEe278FDCBD38C102D88",
      "value": {
        "_hex": "0x48c432df1c4cf000"
      },
      "nonce": 1,
      "data": "0x",
      "r": "0x70a891e6a60af47073b7d5564dcdadc194d9a4c072697d73a8689f67eac96c95",
      "s": "0x5c92eede89859a1d864457cdf0be7f395bdbd7877adb6a467d96492dc4616b69",
      "v": 27,
      "creates": null,
      "raw": "0xf86c01850cf764587b8252089432be343b94f860124dc4fee278fdcbd38c102d888848c432df1c4cf000801ba070a891e6a60af47073b7d5564dcdadc194d9a4c072697d73a8689f67eac96c95a05c92eede89859a1d864457cdf0be7f395bdbd7877adb6a467d96492dc4616b69",
      "networkId": 0,
      "chainId": 0
    }
  ]
}