{
  "hash": "0x1ecde4bc90781eb83616865876abe03c1d96cbb5c001c4c8cfdd23a236d8bded",
  "parentHash": "0x802559624184cecff022df71e35d896e74aa51821b2597d9eeb02d31fb11a3ee",
  "number": 46684,
  "timestamp": 1438927387,
  "nonce": "0xfa496a59aa8f4542",
  "difficulty": 1461753732310,
  "gasLimit": {
    "_hex": "0x712d"
  },
  "gasUsed": {
    "_hex": "0x5208"
  },
  "miner": "0xbb7B8287f3F0a933474a79eAe42CBCa977791171",
  "extraData": "0x476574682f4c5649562f76312e302e312f6c696e75782f676f312e342e32",
  "transactions": [
    {
      "hash": "0x75332bab0373211228d852c2057d5da3ba476c337a6d490fd6d37ed802c8cf14",
      "blockHash": "0x1ecde4bc90781eb83616865876abe03c1d96cbb5c001c4c8cfdd23a236d8bded",
      "blockNumber": 46684,
      "transactionIndex": 0,
      "confirmations": null,
      "from": "0x92c27672FE65e002159Ec2597fcf8897ADBf5B29",
      "gasPrice": {
        "_hex": "0xd2dd9f2d9"
      },
      "gasLimit": {
        "_hex": "0x5208"
      },
      "to": "0x32Be343B94f860124dC4fEe278FDCBD38C102D88",
      "value": {
        "_hex": "0xa2a158d0387ab80000"
      },
      "nonce": 2,
      "data": "0x",
      "r": "0x0a141eac883dfe9fcd09a3ea8a5a834ec71203738c83fa4fca9621ac3784946a",
      "s": "0x22d5b9b0a4584d3cc15857648605912b79d2cf19b88e1ad862869ca61099c5bf",
      "v": 27,
      "creates": null,
      "raw": "0xf86d02850d2dd9f2d98252089432be343b94f860124dc4fee278fdcbd38c102d8889a2a158d0387ab80000801ba00a141eac883dfe9fcd09a3ea8a5a834ec71203738c83fa4fca9621ac3784946aa022d5b9b0a4584d3cc15857648605912b79d2cf19b88e1ad862869ca61099c5bf",
      "networkId": 0,
      "chainId": 0
    }
  ]
}