{
  "hash": "0xab15ab7d9aaf320660046ee1377c8e53bef1ac46dfe325d91f2bfd37de17bff4",
  "parentHash": "0x12c1d43e92cfd11834567e841a149aa6a2ba7a6d113734b54bc506dfe681700b",
  "number": 48976,
  "timestamp": 1438965865,
  "nonce": "0x10aea8a9c8be7fda",
  "difficulty": 1484367380188,
  "gasLimit": {
    "_hex": "0x226c3"
  },
  "gasUsed": {
    "_hex": "0xa410"
  },
  "miner": "0xeB1325C8D9d3ea8D74aC11F4B00F1B2367686319",
  "extraData": "0x476574682f76312e302e312f77696e646f77732f676f312e342e32",
  "transactions": [
    {
      "hash": "0x1fbc7ba62409a1f126c4daf920e48ed380dda0b3110a5da3efef55c23a72d8f7",
      "blockHash": "0xab15ab7d9aaf320660046ee1377c8e53bef1ac46dfe325d91f2bfd37de17bff4",
      "blockNumber": 48976,
      "transactionIndex": 0,
      "confirmations": null,
      "from": "0xeD17Ea8E9fd42159037deE95ea173a56c54f55ce",
      "gasPrice": {
        "_hex": "0xdef995ba4"
      },
      "gasLimit": {
        "_hex": "0x5208"
      },
      "to": "0x32Be343B94f860124dC4fEe278FDCBD38C102D88",
      "value": {
        "_hex": "0x5f68a1527f3a9c000"
      },
      "nonce": 3,
      "data": "0x",
      "r": "0xc4ad3b599aa0c3db4ae6ddc55ee1f07c4a7afb79c45181d6b6b8f48449ed198b",
      "s": "0x33fa7801047a280d3d55101a28e101b038148cf45a3e13f6bdcb5ae012365738",
      "v": 28,
      "creates": null,
      "raw": "0xf86d03850def995ba48252089432be343b94f860124dc4fee278fdcbd38c102d888905f68a1527f3a9c000801ca0c4ad3b599aa0c3db4ae6ddc55ee1f07c4a7afb79c45181d6b6b8f48449ed198ba033fa7801047a280d3d55101a28e101b038148cf45a3e13f6bdcb5ae012365738",
      "networkId": 0,
      "chainId": 0
    },
    {
      "hash": "0xf81504f5861c4d51ead71551006176ee404a63d8e03037b641570422ddf2b1ed",
      "blockHash": "0xab15ab7d9aaf320660046ee1377c8e53bef1ac46dfe325d91f2bfd37de17bff4",
      "blockNumber": 48976,
      "transactionIndex": 1,
      "confirmations": null,
      "from": "0x8143a7314E1e89e35885e25C35362acA01b0F1fF",
      "gasPrice": {
        "_hex": "0xdef995ba4"
      },
      "gasLimit": {
        "_hex": "0x5208"
      },
      "to": "0x32Be343B94f860124dC4fEe278FDCBD38C102D88",
      "value": {
        "_hex": "0x281d8bb3f92b560000"
      },
      "nonce": 1,
      "data": "0x",
      "r": "0x13e97d246be277191abddff452027d96cccdcc4c0fb5c40eced39d24405726c2",
      "s": "0x4879c173c1f448e538d1eb2bf4c29c6cd7e92e43a681605892c44cc67bc20bc6",
      "v": 28,
      "creates": null,
      "raw": "0xf86d01850def995ba48252089432be343b94f860124dc4fee278fdcbd38c102d8889281d8bb3f92b560000801ca013e97d246be277191abddff452027d96cccdcc4c0fb5c40eced39d24405726c2a04879c173c1f448e538d1eb2bf4c29c6cd7e92e43a681605892c44cc67bc20bc6",
      "networkId": 0,
      "chainId": 0
    }
  ]
}