{
  "hash": "0x401d8199e70faca766dfb75fd2c6a4f212c731108f7797981671889673a8dc1b",
  "parentHash": "0xf7ac62c9b0b1beff1d6bf7b373a55a93d56257d8d0e1fd968f81cbcede2e505a",
  "number": 55019,
  "timestamp": 1439064113,
  "nonce": "0x0e8cebb9c7310a44",
  "difficulty": 1621941306037,
  "gasLimit": {
    "_hex": "0x2fefd8"
  },
  "gasUsed": {
    "_hex": "0xa410"
  },
  "miner": "0xB6be56962eab062fC2A764216eEd2Bf07ea1bd92",
  "extraData": "0x476574682f76312e302e312d37666266393930632f6c696e75782f676f312e34",
  "transactions": [
    {
      "hash": "0x491b73932efaf782933efc8f62753e9d382fd8b749d92ea529b18a25bca64065",
      "blockHash": "0x401d8199e70faca766dfb75fd2c6a4f212c731108f7797981671889673a8dc1b",
      "blockNumber": 55019,
      "transactionIndex": 0,
      "confirmations": null,
      "from": "0x5eF8c96186b37984cBfE04C598406e3b0ac3171F",
      "gasPrice": {
        "_hex": "0x9184e72a000"
      },
      "gasLimit": {
        "_hex": "0x9732e"
      },
      "to": "0x10FCF58DF80FC9E737BC27ed2c301394019cb8a4",
      "value": {
        "_hex": "0x14a585bfb5d2e70400"
      },
      "nonce": 1,
      "data": "0x",
      "r": "0xd67d67932fe3cf3f00b4a3781844bd3b184c89ef6680b89dccea60dc002bd150",
      "s": "0x56b78e2c52acaac4d539f91f70f1de088e2b11460c444458f58c2d02df3a5b43",
      "v": 28,
      "creates": null,
      "raw": "0xf86f018609184e72a0008309732e9410fcf58df80fc9e737bc27ed2c301394019cb8a48914a585bfb5d2e70400801ca0d67d67932fe3cf3f00b4a3781844bd3b184c89ef6680b89dccea60dc002bd150a056b78e2c52acaac4d539f91f70f1de088e2b11460c444458f58c2d02df3a5b43",
      "networkId": 0,
      "chainId": 0
    },
    {
      "hash": "0x38023e491c002e29246dd2d60aace265916e9ec9abe74f727bda10578b381b29",
      "blockHash": "0x401d8199e70faca766dfb75fd2c6a4f212c731108f7797981671889673a8dc1b",
      "blockNumber": 55019,
      "transactionIndex": 1,
      "confirmations": null,
      "from": "0x60780933D9a5A8e8E3ab20CB6382cd314f04065F",
      "gasPrice": {
        "_hex": "0xcd84cd4e3"
      },
      "gasLimit": {
        "_hex": "0x5208"
      },
      "to": "0x32Be343B94f860124dC4fEe278FDCBD38C102D88",
      "value": {
        "_hex": "0x79c292ea83a86000"
      },
      "nonce": 5,
      "data": "0x",
      "r": "0xa8628a2fd21086b789c38c82bcf59d48d201c7cf182e3ad277e0bf4761c4f22a",
      "s": "0x1dc7e8181d014b7513027ad3f44719ebb16b64a9aec595fb47487125c9b50475",
      "v": 27,
      "creates": null,
      "raw": "0xf86c05850cd84cd4e38252089432be343b94f860124dc4fee278fdcbd38c102d888879c292ea83a86000801ba0a8628a2fd21086b789c38c82bcf59d48d201c7cf182e3ad277e0bf4761c4f22aa01dc7e8181d014b7513027ad3f44719ebb16b64a9aec595fb47487125c9b50475",
      "networkId": 0,
      "chainId": 0
    }
  ]
}