{
  "hash": "0x79d429996287271da52353eea3fd1cd53c544569c142415f86ec2c6dd89c1d3b",
  "parentHash": "0xc3ddcd06c6fe5bee4227896d2bba2199051130b0bf31a858518e28ea5e10278c",
  "number": 57258,
  "timestamp": 1439100120,
  "nonce": "0xe69ab300924d51b8",
  "difficulty": 1743876957728,
  "gasLimit": {
    "_hex": "0x2fefd8"
  },
  "gasUsed": {
    "_hex": "0x5208"
  },
  "miner": "0x01d9DA08cc6Fb97c0DE1B6F4C28910A0859Ed1A1",
  "extraData": "0x476574682f76312e302e312f6c696e75782f676f312e342e32",
  "transactions": [
    {
      "hash": "0x053a45703370ba20c0f6a75cdf8b34be773ad221d26878c8c69a15f864d890ce",
      "blockHash": "0x79d429996287271da52353eea3fd1cd53c544569c142415f86ec2c6dd89c1d3b",
      "blockNumber": 57258,
      "transactionIndex": 0,
      "confirmations": null,
      "from": "0x590BF3F066929bEd67cb81C58BB24009c77B4476",
      "gasPrice": {
        "_hex": "0x10fefc4f11a"
      },
      "gasLimit": {
        "_hex": "0x15f90"
      },
      "to": "0xE35453eef2cC3C7A044D0aC134ba615908FA82EE",
      "value": {
        "_hex": "0xb1a2bc2ec500000"
      },
      "nonce": 2,
      "data": "0x",
      "r": "0xec420113eecfe8c18c4bcb4fbd2f100ae43672451272bba02a6c4211111f8db2",
      "s": "0x08dad4a713a93a1882375a14d0b828c800dd9d9ddc0a78beecf22c4b2e01d6e9",
      "v": 28,
      "creates": null,
      "raw": "0xf86e0286010fefc4f11a83015f9094e35453eef2cc3c7a044d0ac134ba615908fa82ee880b1a2bc2ec500000801ca0ec420113eecfe8c18c4bcb4fbd2f100ae43672451272bba02a6c4211111f8db2a008dad4a713a93a1882375a14d0b828c800dd9d9ddc0a78beecf22c4b2e01d6e9",
      "networkId": 0,
      "chainId": 0
    }
  ]
}