{
  "hash": "0x3e2fd9406ca32cf5ef7f8fb1bb0ec4f51039abbafca222fdab56ecece8a5f64c",
  "parentHash": "0x70184d35d1d7bdd67d2eb69383b0ce88601e8455e6f2955c7b40c3b0f2200f9e",
  "number": 47401,
  "timestamp": 1438939615,
  "nonce": "0xc2c26c8d0d87bbc5",
  "difficulty": 1453799296460,
  "gasLimit": {
    "_hex": "0xb957"
  },
  "gasUsed": {
    "_hex": "0x5208"
  },
  "miner": "0xf927a40C8B7F6E07c5af7FA2155B4864a4112B13",
  "extraData": "0x476574682f76312e302e312f6c696e75782f676f312e342e32",
  "transactions": [
    {
      "hash": "0x79d78f1330ee3f129b33d6853aa15a90a76a1e31c8e98acc4e83124a43efb4be",
      "blockHash": "0x3e2fd9406ca32cf5ef7f8fb1bb0ec4f51039abbafca222fdab56ecece8a5f64c",
      "blockNumber": 47401,
      "transactionIndex": 0,
      "confirmations": null,
      "from": "0xe6A7a1d47ff21B6321162AEA7C6CB457D5476Bca",
      "gasPrice": {
        "_hex": "0x190e98167f"
      },
      "gasLimit": {
        "_hex": "0x5208"
      },
      "to": "0x9c1478134D61258dD2c35DE561BD0Ff94678ab5e",
      "value": {
        "_hex": "0x11a69e86b19993eb8"
      },
      "nonce": 130,
      "data": "0x",
      "r": "0xcfbd0b92e51aa168f1e9232b503facd3508e37d176013e84d7e5b6681b9dd1b8",
      "s": "0x2a213d6c1dc3c140226422523d6787c1b33e8b6dbe4fac7ab1bbd12cd196ed96",
      "v": 28,
      "creates": null,
      "raw": "0xf86e818285190e98167f825208949c1478134d61258dd2c35de561bd0ff94678ab5e89011a69e86b19993eb8801ca0cfbd0b92e51aa168f1e9232b503facd3508e37d176013e84d7e5b6681b9dd1b8a02a213d6c1dc3c140226422523d6787c1b33e8b6dbe4fac7ab1bbd12cd196ed96",
      "networkId": 0,
      "chainId": 0
    }
  ]
}