{
  "hash": "0x7ac1872c7bfc41d7d2dd9dbc191d3545031d52021935cd8f7d42eb37eebe14a2",
  "parentHash": "0x360786c8495edd7dfebbe1e0e63abee9f5810c11bf19f80257b2cd4ce3f2a702",
  "number": 99523,
  "timestamp": 1439791531,
  "nonce": "0x4f05c4ab771ef7e1",
  "difficulty": 3795390467871,
  "gasLimit": {
    "_hex": "0x2fefd8"
  },
  "gasUsed": {
    "_hex": "0x5208"
  },
  "miner": "0x33F36DffD23cf019833E1d59cBc7138824b12289",
  "extraData": "0xda8098302e392e34312b2b302d524c696e75782f672b2b2f696e74",
  "transactions": [
    {
      "hash": "0xcbbff829cc8331c6579e2fdc13a5c6e2f1fd0c2634af7a0a1881711e5a7cb92e",
      "blockHash": "0x7ac1872c7bfc41d7d2dd9dbc191d3545031d52021935cd8f7d42eb37eebe14a2",
      "blockNumber": 99523,
      "transactionIndex": 0,
      "confirmations": null,
      "from": "0x120A270bbC009644e35F0bB6ab13f95b8199c4ad",
      "gasPrice": {
        "_hex": "0xd09c81432"
      },
      "gasLimit": {
        "_hex": "0x3d090"
      },
      "to": "0x5553B4f0E2Ce499930b79C3b48bD6c13A0571c34",
      "value": {
        "_hex": "0x56bc75e2d63100000"
      },
      "nonce": 668,
      "data": "0x",
      "r": "0x1d3f194559356c8f71c78ea933801d0862558f1c19478b4b24d440356d24a856",
      "s": "0x5982de0e6a89953c824536fa081816e4dcdfc3a43279f92ab3a06fa822490e19",
      "v": 28,
      "creates": null,
      "raw": "0xf87082029c850d09c814328303d090945553b4f0e2ce499930b79c3b48bd6c13a0571c3489056bc75e2d63100000801ca01d3f194559356c8f71c78ea933801d0862558f1c19478b4b24d440356d24a856a05982de0e6a89953c824536fa081816e4dcdfc3a43279f92ab3a06fa822490e19",
      "networkId": 0,
      "chainId": 0
    }
  ]
}