{
  "hash": "0xd6ec8fa1e7438b076cf4c597590fafab9516cd7d427dde72d20adc85fe371b07",
  "parentHash": "0xb2f591b07f2d66dfdb092644bbc87fd46d4866346405b7c9011a7874260e2ffa",
  "number": 100321,
  "timestamp": 1439804507,
  "nonce": "0x74e2cc581d854a46",
  "difficulty": 3828531195675,
  "gasLimit": {
    "_hex": "0x2fefd8"
  },
  "gasUsed": {
    "_hex": "0x5208"
  },
  "miner": "0xe6A7a1d47ff21B6321162AEA7C6CB457D5476Bca",
  "extraData": "0x476574682f76312e302e312d38326566323666362f6c696e75782f676f312e34",
  "transactions": [
    {
      "hash": "0x0e69473f0e82465ed3d73c78f4c416c34054b5bf31821137e28382a0c441b390",
      "blockHash": "0xd6ec8fa1e7438b076cf4c597590fafab9516cd7d427dde72d20adc85fe371b07",
      "blockNumber": 100321,
      "transactionIndex": 0,
      "confirmations": null,
      "from": "0xFBb1b73C4f0BDa4f67dcA266ce6Ef42f520fBB98",
      "gasPrice": {
        "_hex": "0xd45b6ff1f"
      },
      "gasLimit": {
        "_hex": "0x5208"
      },
      "to": "0x1a88c57A263f87c39AB07f02045f7bBe559d93bc",
      "value": {
        "_hex": "0xa4502144dca0000"
      },
      "nonce": 90,
      "data": "0x",
      "r": "0x0821c02ba8c5067e08193a47f4e3381f92e03568741774055dec1629f8b98fee",
      "s": "0x51f794501dc52868ec97e2aee93eae807c5f4c450f7690d1e13fed41bd38048d",
      "v": 27,
      "creates": null,
      "raw": "0xf86c5a850d45b6ff1f825208941a88c57a263f87c39ab07f02045f7bbe559d93bc880a4502144dca0000801ba00821c02ba8c5067e08193a47f4e3381f92e03568741774055dec1629f8b98feea051f794501dc52868ec97e2aee93eae807c5f4c450f7690d1e13fed41bd38048d",
      "networkId": 0,
      "chainId": 0
    }
  ]
}