{
  "hash": "0x9d47aec4e1199c8f28ccfea4118547d86625376d5f06bc110d69fa90c75de3c4",
  "parentHash": "0xc03b60f4fee6d3f485aa9b3b1d99eecd272f8206bfac4bb99f138b9f75902a89",
  "number": 101330,
  "timestamp": 1439821249,
  "nonce": "0x3bddfd626b27f4c2",
  "difficulty": 3815008827405,
  "gasLimit": {
    "_hex": "0x2fefd8"
  },
  "gasUsed": {
    "_hex": "0x5208"
  },
  "miner": "0x790b8a3cE86E707ED0eD32bF89B3269692a23CC1",
  "extraData": "0xd783010001844765746887676f312e342e32856c696e7578",
  "transactions": [
    {
      "hash": "0xff97c4bcb513672755bce8c182327f2935c9ccb588875759dcd90a7dc72b5e36",
      "blockHash": "0x9d47aec4e1199c8f28ccfea4118547d86625376d5f06bc110d69fa90c75de3c4",
      "blockNumber": 101330,
      "transactionIndex": 0,
      "confirmations": null,
      "from": "0x7884D470204862a0d1A21122F41ee77430396Ee5",
      "gasPrice": {
        "_hex": "0xd99bd606a"
      },
      "gasLimit": {
        "_hex": "0x15f90"
      },
      "to": "0x8e47320b08b9eCc4026D03a027a3B59A48e2980D",
      "value": {
        "_hex": "0x166d2f702508000"
      },
      "nonce": 86,
      "data": "0x",
      "r": "0x89bc80bb60e9902991cff7dec6a3c4736e8404927f9e7378bc5dd428c0b2d5a9",
      "s": "0x1f2f5f1e1df4b806400421ef09ed488a663b2225ac7a753d7a53529b1fb8606e",
      "v": 27,
      "creates": null,
      "raw": "0xf86d56850d99bd606a83015f90948e47320b08b9ecc4026d03a027a3b59a48e2980d880166d2f702508000801ba089bc80bb60e9902991cff7dec6a3c4736e8404927f9e7378bc5dd428c0b2d5a9a01f2f5f1e1df4b806400421ef09ed488a663b2225ac7a753d7a53529b1fb8606e",
      "networkId": 0,
      "chainId": 0
    }
  ]
}