{
  "hash": "0x3c7f219157856c42dfe083e02f1b607781fc88b2cc485eb3cb89204fda9de0a0",
  "parentHash": "0xf3619f583a7ede1b75d39765eed66ded826c4a27e066ed0dd1d97200386e8bc2",
  "number": 98891,
  "timestamp": 1439780670,
  "nonce": "0xdd19c33734c39822",
  "difficulty": 3862987169546,
  "gasLimit": {
    "_hex": "0x2fefd8"
  },
  "gasUsed": {
    "_hex": "0x546c"
  },
  "miner": "0x6541237dAaFf6688A79f9F2F370Ca0E7Ee20BD33",
  "extraData": "0x476574682f76312e302e312f77696e646f77732f676f312e342e32",
  "transactions": [
    {
      "hash": "0xce8ace30edfc7e2496dd02830b802ae32babfc3e59c8cc23749286bec13f5aae",
      "blockHash": "0x3c7f219157856c42dfe083e02f1b607781fc88b2cc485eb3cb89204fda9de0a0",
      "blockNumber": 98891,
      "transactionIndex": 0,
      "confirmations": null,
      "from": "0x93235f340D2863e18D2F4c52996516138D220267",
      "gasPrice": {
        "_hex": "0x110c8f7d8de"
      },
      "gasLimit": {
        "_hex": "0xc350"
      },
      "to": "0x2910543Af39abA0Cd09dBb2D50200b3E800A63D2",
      "value": {
        "_hex": "0x0"
      },
      "nonce": 0,
      "data": "0x454e37464135525030",
      "r": "0x682e2177788adc05e81c5e335a9837097ea0c9c97d6ef71f099ab36d9163e632",
      "s": "0x1ca969fa487f2a622cdb991257518603d980d99938e933055cc856d1cc409fea",
      "v": 28,
      "creates": null,
      "raw": "0xf86e80860110c8f7d8de82c350942910543af39aba0cd09dbb2d50200b3e800a63d28089454e374641355250301ca0682e2177788adc05e81c5e335a9837097ea0c9c97d6ef71f099ab36d9163e632a01ca969fa487f2a622cdb991257518603d980d99938e933055cc856d1cc409fea",
      "networkId": 0,
      "chainId": 0
    }
  ]
}