{
  "hash": "0xec274a1d00cd13b276de663ac0964e9ffadcca61f456795221422799927f36f9",
  "parentHash": "0x6d8dcebda4667a1131581a095259fb30d7c24bb1f90ba5a549985c5134725cb4",
  "number": 84042,
  "timestamp": 1439544222,
  "nonce": "0xe86e7fc87583a784",
  "difficulty": 2494893449726,
  "gasLimit": {
    "_hex": "0x2fefd8"
  },
  "gasUsed": {
    "_hex": "0x5208"
  },
  "miner": "0xe6A7a1d47ff21B6321162AEA7C6CB457D5476Bca",
  "extraData": "0x476574682f76312e302e312d38326566323666362f6c696e75782f676f312e34",
  "transactions": [
    {
      "hash": "0xdefb58f053b53e1e11eb5ccf418a7d055959262c3b150228aac5b10b8d689fa5",
      "blockHash": "0xec274a1d00cd13b276de663ac0964e9ffadcca61f456795221422799927f36f9",
      "blockNumber": 84042,
      "transactionIndex": 0,
      "confirmations": null,
      "from": "0x056507108FE6d30189EcCD6cd7F4Fad56eEef622",
      "gasPrice": {
        "_hex": "0xdabdf648e"
      },
      "gasLimit": {
        "_hex": "0x15f90"
      },
      "to": "0xf669D33ffC879Ed84BECd4EF67CB17c76f4607D5",
      "value": {
        "_hex": "0x2febe79197496f"
      },
      "nonce": 1,
      "data": "0x",
      "r": "0xdb7dc8046672a7db708b97b10864245ece0dc50aefe71737bc178ea9a5e35e6b",
      "s": "0x783c267ec73697523f8b3732b0fed7910a60fbed5523b92f70cb478f4d42f494",
      "v": 27,
      "creates": null,
      "raw": "0xf86c01850dabdf648e83015f9094f669d33ffc879ed84becd4ef67cb17c76f4607d5872febe79197496f801ba0db7dc8046672a7db708b97b10864245ece0dc50aefe71737bc178ea9a5e35e6ba0783c267ec73697523f8b3732b0fed7910a60fbed5523b92f70cb478f4d42f494",
      "networkId": 0,
      "chainId": 0
    }
  ]
}