{
  "hash": "0x103bb203cfb1b86afc8156096c5ed1d906986c13cf4f9ff0a5fddc5f09a874d8",
  "parentHash": "0x047cc31f392fe82d2826a25b16a298e84a225918b9ebb329aa0f0601eb6c9922",
  "number": 89350,
  "timestamp": 1439622002,
  "nonce": "0x03d6e19fea9eb105",
  "difficulty": 3309563829683,
  "gasLimit": {
    "_hex": "0x2fefd8"
  },
  "gasUsed": {
    "_hex": "0x5208"
  },
  "miner": "0xe6A7a1d47ff21B6321162AEA7C6CB457D5476Bca",
  "extraData": "0x476574682f76312e302e312d38326566323666362f6c696e75782f676f312e34",
  "transactions": [
    {
      "hash": "0x264275615b131b3cf0e53215aa607ce64eec9c2e57fa2810a7f592e5458b0763",
      "blockHash": "0x103bb203cfb1b86afc8156096c5ed1d906986c13cf4f9ff0a5fddc5f09a874d8",
      "blockNumber": 89350,
      "transactionIndex": 0,
      "confirmations": null,
      "from": "0xE46181d0089f5D0e0e4668eE7AB335893BDB58bf",
      "gasPrice": {
        "_hex": "0xd8364fc25"
      },
      "gasLimit": {
        "_hex": "0x15f90"
      },
      "to": "0xa2F43CA7f0275fF2D416b523422AC9FCA63f6135",
      "value": {
        "_hex": "0x38d7ea4c68000"
      },
      "nonce": 2,
      "data": "0x",
      "r": "0x0f370a7bf3012271c56888d6671d2e8e00b3eaad8e3185ad7601d22762f1b8f1",
      "s": "0x490a927d418aac367f648c60b78270de6ce168b99c320c73a4ad48314e2697c3",
      "v": 28,
      "creates": null,
      "raw": "0xf86c02850d8364fc2583015f9094a2f43ca7f0275ff2d416b523422ac9fca63f613587038d7ea4c68000801ca00f370a7bf3012271c56888d6671d2e8e00b3eaad8e3185ad7601d22762f1b8f1a0490a927d418aac367f648c60b78270de6ce168b99c320c73a4ad48314e2697c3",
      "networkId": 0,
      "chainId": 0
    }
  ]
}