{
  "hash": "0x5ed9a21a8cfe26d3d6ba7dd0da97f8ce29a73be28393c8ba770d93d4f49bdc33",
  "parentHash": "0xdbb4fea910040c4785c43491f0039bade0f93a69a1e60c0b91c6d78b48af1d30",
  "number": 110594,
  "timestamp": 1439976369,
  "nonce": "0xeab1e3d8051a2717",
  "difficulty": 4369101512612,
  "gasLimit": {
    "_hex": "0x2fefd8"
  },
  "gasUsed": {
    "_hex": "0x5208"
  },
  "miner": "0xe6A7a1d47ff21B6321162AEA7C6CB457D5476Bca",
  "extraData": "0x476574682f76312e302e312d38326566323666362f6c696e75782f676f312e34",
  "transactions": [
    {
      "hash": "0xec8cf0e35765a4824dbe180f3aa77859d83f36175e35ad909e198fe40cf2286d",
      "blockHash": "0x5ed9a21a8cfe26d3d6ba7dd0da97f8ce29a73be28393c8ba770d93d4f49bdc33",
      "blockNumber": 110594,
      "transactionIndex": 0,
      "confirmations": null,
      "from": "0x974A55472732FA7D1EdD5737b0A881F41997Ae00",
      "gasPrice": {
        "_hex": "0xd0c03c86d"
      },
      "gasLimit": {
        "_hex": "0x5208"
      },
      "to": "0x32Be343B94f860124dC4fEe278FDCBD38C102D88",
      "value": {
        "_hex": "0x2868c708de67400"
      },
      "nonce": 0,
      "data": "0x",
      "r": "0x20797dce455ba4032898726496cace8be990f6a35d0b133205a568ce7c6e2713",
      "s": "0x7edc434efd11a03f872093abc8eb7558a5e7a41d5f75e5cb32ff6dd53d992c31",
      "v": 28,
      "creates": null,
      "raw": "0xf86c80850d0c03c86d8252089432be343b94f860124dc4fee278fdcbd38c102d888802868c708de67400801ca020797dce455ba4032898726496cace8be990f6a35d0b133205a568ce7c6e2713a07edc434efd11a03f872093abc8eb7558a5e7a41d5f75e5cb32ff6dd53d992c31",
      "networkId": 0,
      "chainId": 0
    }
  ]
}