{
  "hash": "0xd05820d0ead30d0efaaca809a2244ca78833e58c21f1516ae31df4048b45b202",
  "parentHash": "0x4d189862d5803419cd08e4b456ee18e56f8a6ce917fa9e1a261faaaf2ede0e5f",
  "number": 120340,
  "timestamp": 1440158239,
  "nonce": "0x3e916d8b4e7507dd",
  "difficulty": 4428425083568,
  "gasLimit": {
    "_hex": "0x2fefd8"
  },
  "gasUsed": {
    "_hex": "0x5208"
  },
  "miner": "0xe6A7a1d47ff21B6321162AEA7C6CB457D5476Bca",
  "extraData": "0xd783010002844765746887676f312e342e32856c696e7578",
  "transactions": [
    {
      "hash": "0x0649945f1781e69e596418e19a2896755d54b8b99bfe89a5912567a9b82f047f",
      "blockHash": "0xd05820d0ead30d0efaaca809a2244ca78833e58c21f1516ae31df4048b45b202",
      "blockNumber": 120340,
      "transactionIndex": 0,
      "confirmations": null,
      "from": "0x2910543Af39abA0Cd09dBb2D50200b3E800A63D2",
      "gasPrice": {
        "_hex": "0xdb57952e9"
      },
      "gasLimit": {
        "_hex": "0x5208"
      },
      "to": "0xFD7c9117BbEB649d9b37B3D3C9917f7c12f526B3",
      "value": {
        "_hex": "0x37c2940a0268bd8a00"
      },
      "nonce": 1179,
      "data": "0x",
      "r": "0xca8661a427cd1d5b27f24420a772837043ecac3fc0a245b1402e1ad9a575761c",
      "s": "0x1daa67c835b5a3c60433b8d48e7b27f7c573ae46d508ab41fce21038f6816c55",
      "v": 28,
      "creates": null,
      "raw": "0xf86f82049b850db57952e982520894fd7c9117bbeb649d9b37b3d3c9917f7c12f526b38937c2940a0268bd8a00801ca0ca8661a427cd1d5b27f24420a772837043ecac3fc0a245b1402e1ad9a575761ca01daa67c835b5a3c60433b8d48e7b27f7c573ae46d508ab41fce21038f6816c55",
      "networkId": 0,
      "chainId": 0
    }
  ]
}