{
  "hash": "0xe26ba1ff1da3e72ab4cda5cc8eade886511315f1545d2263f7160ce9d3a47705",
  "parentHash": "0xfc27ec47cd519f1ef3d4151aca82dc4aaa8158c700c7485fde6b37cc522d07db",
  "number": 104459,
  "timestamp": 1439870058,
  "nonce": "0x20562be4ad93634a",
  "difficulty": 4365897974426,
  "gasLimit": {
    "_hex": "0x2fefd8"
  },
  "gasUsed": {
    "_hex": "0x5208"
  },
  "miner": "0xa50ec0D39fa913E62f1Bae7074E6F36caA71855b",
  "extraData": "0xd783010001844765746887676f312e342e32856c696e7578",
  "transactions": [
    {
      "hash": "0x8ff6688dc482cfd356d5ef6a2c6ef2037de06b3fc6add0a27e13bb7b1872e631",
      "blockHash": "0xe26ba1ff1da3e72ab4cda5cc8eade886511315f1545d2263f7160ce9d3a47705",
      "blockNumber": 104459,
      "transactionIndex": 0,
      "confirmations": null,
      "from": "0xD9E6086071980fE3484b6BaABA07A10b47B046A6",
      "gasPrice": {
        "_hex": "0x102656ffb4b"
      },
      "gasLimit": {
        "_hex": "0x15f90"
      },
      "to": "0x0da70D5A92d6cFCd4c12E2A83950676Fdf4c95F9",
      "value": {
        "_hex": "0x16345785d8a0000"
      },
      "nonce": 14,
      "data": "0x",
      "r": "0xfa7f701ce7f3111e2660b49fa0bcd8a5f2e8331627395f7bffa9b2efa90fb2e8",
      "s": "0x518a3df76c3275f4fede25f052bde0a3b80e432e1f37151d26c831b85643249d",
      "v": 28,
      "creates": null,
      "raw": "0xf86e0e860102656ffb4b83015f90940da70d5a92d6cfcd4c12e2a83950676fdf4c95f988016345785d8a0000801ca0fa7f701ce7f3111e2660b49fa0bcd8a5f2e8331627395f7bffa9b2efa90fb2e8a0518a3df76c3275f4fede25f052bde0a3b80e432e1f37151d26c831b85643249d",
      "networkId": 0,
      "chainId": 0
    }
  ]
}