{
  "hash": "0x22f5f308ac35e415603e7fbc74656587bd6ae5db03c840ec39628d78d23c4a0f",
  "parentHash": "0x48e0a815269a40b555266e46e125a222c03b42e78f7b5b356e5dcc31114cad1b",
  "number": 75146,
  "timestamp": 1439398394,
  "nonce": "0x183dfbccccfddbe6",
  "difficulty": 2199771241298,
  "gasLimit": {
    "_hex": "0x2fefd8"
  },
  "gasUsed": {
    "_hex": "0x5208"
  },
  "miner": "0xF2d2AfF1320476cb8C6b607199D23175cc595693",
  "extraData": "0x476574682f76312e302e312f77696e646f77732f676f312e342e32",
  "transactions": [
    {
      "hash": "0xa97d1d9907878d52b3779c0d264fd725e2d6e7b3e495c06246410a08077ccfe9",
      "blockHash": "0x22f5f308ac35e415603e7fbc74656587bd6ae5db03c840ec39628d78d23c4a0f",
      "blockNumber": 75146,
      "transactionIndex": 0,
      "confirmations": null,
      "from": "0x8566f68Aee274dF135ee5A619ea3b17437121fC4",
      "gasPrice": {
        "_hex": "0xcd8d46eff"
      },
      "gasLimit": {
        "_hex": "0x15f90"
      },
      "to": "0x9E1B8Bfe4062F4fA08C9fb5eD4A4Ae55425a7EB1",
      "value": {
        "_hex": "0x0"
      },
      "nonce": 0,
      "data": "0x",
      "r": "0x78c4029897bde62ae1f706c861e844a350d57bd838573397aac28789a909f7a7",
      "s": "0x7b1d7376b1af3f8d3aa96db7feaf5003029e8cabd8914351eb5163f412766f2b",
      "v": 28,
      "creates": null,
      "raw": "0xf86580850cd8d46eff83015f90949e1b8bfe4062f4fa08c9fb5ed4a4ae55425a7eb180801ca078c4029897bde62ae1f706c861e844a350d57bd838573397aac28789a909f7a7a07b1d7376b1af3f8d3aa96db7feaf5003029e8cabd8914351eb5163f412766f2b",
      "networkId": 0,
      "chainId": 0
    }
  ]
}