{
  "hash": "0x69fc7042883377d33f3b0e874712f2a943d977c16f7708528fac3ea376c86fe6",
  "parentHash": "0x71355bb9830e9895517d43e99c725e8f91a90d43d0b5208263af191b20894be7",
  "number": 86297,
  "timestamp": 1439576329,
  "nonce": "0xf2040bbb737addb9",
  "difficulty": 2852667610440,
  "gasLimit": {
    "_hex": "0x2fefd8"
  },
  "gasUsed": {
    "_hex": "0x5208"
  },
  "miner": "0xe6A7a1d47ff21B6321162AEA7C6CB457D5476Bca",
  "extraData": "0x476574682f76312e302e312d38326566323666362f6c696e75782f676f312e34",
  "transactions": [
    {
      "hash": "0xa9b032d98bbe4fa9af91aae1cc0ee7bf5eef6f029634cb1395ac29a36ab182e8",
      "blockHash": "0x69fc7042883377d33f3b0e874712f2a943d977c16f7708528fac3ea376c86fe6",
      "blockNumber": 86297,
      "transactionIndex": 0,
      "confirmations": null,
      "from": "0x120A270bbC009644e35F0bB6ab13f95b8199c4ad",
      "gasPrice": {
        "_hex": "0xcf0e733d5"
      },
      "gasLimit": {
        "_hex": "0x3d090"
      },
      "to": "0xc5623FA5c297c05c2d965A336b2068CfA0e567FA",
      "value": {
        "_hex": "0x187d631eeabc9a6000"
      },
      "nonce": 475,
      "data": "0x",
      "r": "0xb1348be34c62a5979a9b50d85231805178accf67c68cd9f629a8fab8261d40ea",
      "s": "0x28c0243f61ccc064911f9f453cf18c3f1a7ee5d46d47b1bb4facb5c16d7cba02",
      "v": 28,
      "creates": null,
      "raw": "0xf8708201db850cf0e733d58303d09094c5623fa5c297c05c2d965a336b2068cfa0e567fa89187d631eeabc9a6000801ca0b1348be34c62a5979a9b50d85231805178accf67c68cd9f629a8fab8261d40eaa028c0243f61ccc064911f9f453cf18c3f1a7ee5d46d47b1bb4facb5c16d7cba02",
      "networkId": 0,
      "chainId": 0
    }
  ]
}