{
  "hash": "0x4e80767b5a7a4710bba8d6f10c01e32898c5debc355f39587c37ed89cebc1d92",
  "parentHash": "0xa8ef6b97d676bdd8789768f8ff705bdecf21ebb20b77f6ac1ed7e58d331b1c94",
  "number": 102457,
  "timestamp": 1439838368,
  "nonce": "0xcf9f6905a8186f2e",
  "difficulty": 3960642616296,
  "gasLimit": {
    "_hex": "0x2fefd8"
  },
  "gasUsed": {
    "_hex": "0xa410"
  },
  "miner": "0xe6A7a1d47ff21B6321162AEA7C6CB457D5476Bca",
  "extraData": "0x476574682f76312e302e312d38326566323666362f6c696e75782f676f312e34",
  "transactions": [
    {
      "hash": "0x4f1c26644021ddc7efc67df8080a9bb9e116301a3f5bd8f01856c51efe8a62d9",
      "blockHash": "0x4e80767b5a7a4710bba8d6f10c01e32898c5debc355f39587c37ed89cebc1d92",
      "blockNumber": 102457,
      "transactionIndex": 0,
      "confirmations": null,
      "from": "0x574FDcb2165600BA7FcF526D999380208DB10382",
      "gasPrice": {
        "_hex": "0xde653a1fc"
      },
      "gasLimit": {
        "_hex": "0x7a120"
      },
      "to": "0xBBDa93a81B882774e1c9b5e3F933Fa35DaC8bc88",
      "value": {
        "_hex": "0xd0072d945f1b0000"
      },
      "nonce": 0,
      "data": "0x",
      "r": "0xb45a53da479cc974ffa64fe734a0b034b90a6d59f05338205bfd507c18b80da5",
      "s": "0x08f3426349f9a02b2b2888beb6c81e6443dbe2e0b97fa70ee0a137c1065c99a3",
      "v": 27,
      "creates": null,
      "raw": "0xf86d80850de653a1fc8307a12094bbda93a81b882774e1c9b5e3f933fa35dac8bc8888d0072d945f1b0000801ba0b45a53da479cc974ffa64fe734a0b034b90a6d59f05338205bfd507c18b80da5a008f3426349f9a02b2b2888beb6c81e6443dbe2e0b97fa70ee0a137c1065c99a3",
      "networkId": 0,
      "chainId": 0
    },
    {
      "hash": "0x7cc966c9343438c25a4a20ac567b9359626584de76a2cf2ef268f1f5fc97b6b8",
      "blockHash": "0x4e80767b5a7a4710bba8d6f10c01e32898c5debc355f39587c37ed89cebc1d92",
      "blockNumber": 102457,
      "transactionIndex": 1,
      "confirmations": null,
      "from": "0x72e3Ea8234b449531A581F05f1c1E07cceb559d2",
      "gasPrice": {
        "_hex": "0xbdfd63e00"
      },
      "gasLimit": {
        "_hex": "0x5208"
      },
      "to": "0xE3Db7786B4026E54542B7D1e4984E970d6729Ed8",
      "value": {
        "_hex": "0xb469471f80140000"
      },
      "nonce": 3,
      "data": "0x",
      "r": "0xfd354e21b655cf59ba47a00e57923f7816c0a0727bfa311ec5472b6a660d57cd",
      "s": "0x01c522afaafd1b9323f07067864483351c32ed07bf151ad528bb935fe1741eaa",
      "v": 27,
      "creates": null,
      "raw": "0xf86c03850bdfd63e0082520894e3db7786b4026e54542b7d1e4984e970d6729ed888b469471f80140000801ba0fd354e21b655cf59ba47a00e57923f7816c0a0727bfa311ec5472b6a660d57cda001c522afaafd1b9323f07067864483351c32ed07bf151ad528bb935fe1741eaa",
      "networkId": 0,
      "chainId": 0
    }
  ]
}