{
  "hash": "0x6102e646f254af9402a0c8cb942245df29b2804a56aa86e93aa9c0c1358d9425",
  "parentHash": "0x282290426855514619a91494bd66192de7214a06a881ff1f238442529bfd61ff",
  "number": 65887,
  "timestamp": 1439244762,
  "nonce": "0x49bd87de368e3029",
  "difficulty": 1944384362967,
  "gasLimit": {
    "_hex": "0x2fefd8"
  },
  "gasUsed": {
    "_hex": "0x1b039"
  },
  "miner": "0x01d9DA08cc6Fb97c0DE1B6F4C28910A0859Ed1A1",
  "extraData": "0x476574682f76312e302e312f6c696e75782f676f312e342e32",
  "transactions": [
    {
      "hash": "0xc0838ded87ffe0a716ae2ed1ac7d578d63af858c4020f5c173e104b911e61866",
      "blockHash": "0x6102e646f254af9402a0c8cb942245df29b2804a56aa86e93aa9c0c1358d9425",
      "blockNumber": 65887,
      "transactionIndex": 0,
      "confirmations": null,
      "from": "0xC3fe64D1af00F0d9c324E4387EF7533f7D788e95",
      "gasPrice": {
        "_hex": "0xdc2a761df"
      },
      "gasLimit": {
        "_hex": "0x5208"
      },
      "to": "0x32Be343B94f860124dC4fEe278FDCBD38C102D88",
      "value": {
        "_hex": "0x42567a0a7f0a400"
      },
      "nonce": 0,
      "data": "0x",
      "r": "0x5ee293b0343e62e6c7924c2d535a8d6ea2e9aa52c75b209332d55dd01b38f9e2",
      "s": "0x0130420b978966eb015bbdf9f072dd91c91c76479dbc1b21c3e5f19c7a8631c8",
      "v": 27,
      "creates": null,
      "raw": "0xf86c80850dc2a761df8252089432be343b94f860124dc4fee278fdcbd38c102d8888042567a0a7f0a400801ba05ee293b0343e62e6c7924c2d535a8d6ea2e9aa52c75b209332d55dd01b38f9e2a00130420b978966eb015bbdf9f072dd91c91c76479dbc1b21c3e5f19c7a8631c8",
      "networkId": 0,
      "chainId": 0
    },
    {
      "hash": "0x51cde0a0c160a6a22e4c1b1a1597bc671c4a68a5af0f9d50d5f0f1ff2966f43e",
      "blockHash": "0x6102e646f254af9402a0c8cb942245df29b2804a56aa86e93aa9c0c1358d9425",
      "blockNumber": 65887,
      "transactionIndex": 1,
      "confirmations": null,
      "from": "0xC25f24A505b8fEF751D8f4FCc397651001F7a160",
      "gasPrice": {
        "_hex": "0xdc2a761df"
      },
      "gasLimit": {
        "_hex": "0x5208"
      },
      "to": "0x32Be343B94f860124dC4fEe278FDCBD38C102D88",
      "value": {
        "_hex": "0x453b95e1f7c4b400"
      },
      "nonce": 8,
      "data": "0x",
      "r": "0xa9535ee07f15209bfe6da8fbd3c9fa14e0c1cfd04955153cc9943b11e25edbe0",
      "s": "0x5d700a4cf4e5b3138182ffcede12c83fad8ed5feb82b99787f898250a890b85d",
      "v": 28,
      "creates": null,
      "raw": "0xf86c08850dc2a761df8252089432be343b94f860124dc4fee278fdcbd38c102d8888453b95e1f7c4b400801ca0a9535ee07f15209bfe6da8fbd3c9fa14e0c1cfd04955153cc9943b11e25edbe0a05d700a4cf4e5b3138182ffcede12c83fad8ed5feb82b99787f898250a890b85d",
      "networkId": 0,
      "chainId": 0
    },
    {
      "hash": "0x80573ef8fed19aa2134437fa313f51220244ae44433844c375df9737bb72e253",
      "blockHash": "0x6102e646f254af9402a0c8cb942245df29b2804a56aa86e93aa9c0c1358d9425",
      "blockNumber": 65887,
      "transactionIndex": 2,
      "confirmations": null,
      "from": "0x14474c5a1d2745901c71Eb7179560A9dde3d4Aa0",
      "gasPrice": {
        "_hex": "0xdc2a761df"
      },
      "gasLimit": {
        "_hex": "0x5208"
      },
      "to": "0x32Be343B94f860124dC4fEe278FDCBD38C102D88",
      "value": {
        "_hex": "0x42be286597123400000"
      },
      "nonce": 1,
      "data": "0x",
      "r": "0x53af0a47252985b4dae948bd97c0ad119b7b312cad2d3529a87af13e6c74956e",
      "s": "0x4df9066b293af51b82559745c7de0ab9f238308b0700f2e33d2d839399f48044",
      "v": 27,
      "creates": null,
      "raw": "0xf86e01850dc2a761df8252089432be343b94f860124dc4fee278fdcbd38c102d888a042be286597123400000801ba053af0a47252985b4dae948bd97c0ad119b7b312cad2d3529a87af13e6c74956ea04df9066b293af51b82559745c7de0ab9f238308b0700f2e33d2d839399f48044",
      "networkId": 0,
      "chainId": 0
    },
    {
      "hash": "0xc227917557b84eb0d87c366c82ec9fc7017056c93161144c5f7329f6d8b2d9a3",
      "blockHash": "0x6102e646f254af9402a0c8cb942245df29b2804a56aa86e93aa9c0c1358d9425",
      "blockNumber": 65887,
      "transactionIndex": 3,
      "confirmations": null,
      "from": "0xa27f6FEDC7Ee75E02d31410ffafC3FFe22af7837",
      "gasPrice": {
        "_hex": "0xdc2a761df"
      },
      "gasLimit": {
        "_hex": "0x5208"
      },
      "to": "0x32Be343B94f860124dC4fEe278FDCBD38C102D88",
      "value": {
        "_hex": "0xb8506455c57f900000"
      },
      "nonce": 1,
      "data": "0x",
      "r": "0x213a6055db4411dfd2afc5e3a79b4b36f44aa2e135042225451224dd11809463",
      "s": "0x5f1e9b1a7ff4a87600c9fa35a3aec72b0bb3c27b256ef380837ddddea4b54c14",
      "v": 27,
      "creates": null,
      "raw": "0xf86d01850dc2a761df8252089432be343b94f860124dc4fee278fdcbd38c102d8889b8506455c57f900000801ba0213a6055db4411dfd2afc5e3a79b4b36f44aa2e135042225451224dd11809463a05f1e9b1a7ff4a87600c9fa35a3aec72b0bb3c27b256ef380837ddddea4b54c14",
      "networkId": 0,
      "chainId": 0
    },
    {
      "hash": "0x1df1e6bce8bf608bda9c1d0ec24d2b18011c851b022fcb10a039330d6adc949f",
      "blockHash": "0x6102e646f254af9402a0c8cb942245df29b2804a56aa86e93aa9c0c1358d9425",
      "blockNumber": 65887,
      "transactionIndex": 4,
      "confirmations": null,
      "from": "0xFBb1b73C4f0BDa4f67dcA266ce6Ef42f520fBB98",
      "gasPrice": {
        "_hex": "0xcc9bc97fa"
      },
      "gasLimit": {
        "_hex": "0x15f90"
      },
      "to": "0xa1A111bc074c9cfa781F0C38e63bD51c91b8af00",
      "value": {
        "_hex": "0x0"
      },
      "nonce": 15,
      "data": "0x201745d54254525800000000000000000000000000000000000000000000000000000000000000000000000000000000fbb1b73c4f0bda4f67dca266ce6ef42f520fbb98",
      "r": "0x67c7009f687f34319ac5e2807605fce4ecca7722e67528db550110ed8b1874db",
      "s": "0x4640a448113e6c1a9a6ab005e5bf1fc3b3556719fe3069614721a7003dbeaca2",
      "v": 28,
      "creates": null,
      "raw": "0xf8aa0f850cc9bc97fa83015f9094a1a111bc074c9cfa781f0c38e63bd51c91b8af0080b844201745d54254525800000000000000000000000000000000000000000000000000000000000000000000000000000000fbb1b73c4f0bda4f67dca266ce6ef42f520fbb981ca067c7009f687f34319ac5e2807605fce4ecca7722e67528db550110ed8b1874dba04640a448113e6c1a9a6ab005e5bf1fc3b3556719fe3069614721a7003dbeaca2",
      "networkId": 0,
      "chainId": 0
    }
  ]
}