{
  "hash": "0xd294a2b9ba82d73ca016c01c6719502ca4774c9396c4e592d21a8e0ec3a3a06d",
  "parentHash": "0xf6ec2035e46ce9df8192de23572ed5b493d8f53011986f3d5200c2ebf37391d9",
  "number": 69254,
  "timestamp": 1439300657,
  "nonce": "0xf88309b1fb67cf4a",
  "difficulty": 2065927312643,
  "gasLimit": {
    "_hex": "0x2fefd8"
  },
  "gasUsed": {
    "_hex": "0xa410"
  },
  "miner": "0x7E6930B63D03e88F5928C5cd6ee3FCee4D714F7F",
  "extraData": "0x",
  "transactions": [
    {
      "hash": "0x2300ec4cc6d421421ecac6b67064bc19ca4166d8fd1cf0d59d05058a120aee96",
      "blockHash": "0xd294a2b9ba82d73ca016c01c6719502ca4774c9396c4e592d21a8e0ec3a3a06d",
      "blockNumber": 69254,
      "transactionIndex": 0,
      "confirmations": null,
      "from": "0x5864d28C751934B2a101FbE0640bEa6F3488daD9",
      "gasPrice": {
        "_hex": "0xd7d40ace3"
      },
      "gasLimit": {
        "_hex": "0x15f90"
      },
      "to": "0xC25f24A505b8fEF751D8f4FCc397651001F7a160",
      "value": {
        "_hex": "0x4563918244f40000"
      },
      "nonce": 0,
      "data": "0x",
      "r": "0x6016bcd3c6befd6d0b93bd622435b89c48e2e734003eafe758c9429354acf7a4",
      "s": "0x080e7d0d7370206042fcee3484aae98fdbf859a9c86f5423abe5127d3fe1db33",
      "v": 27,
      "creates": null,
      "raw": "0xf86d80850d7d40ace383015f9094c25f24a505b8fef751d8f4fcc397651001f7a160884563918244f40000801ba06016bcd3c6befd6d0b93bd622435b89c48e2e734003eafe758c9429354acf7a4a0080e7d0d7370206042fcee3484aae98fdbf859a9c86f5423abe5127d3fe1db33",
      "networkId": 0,
      "chainId": 0
    },
    {
      "hash": "0x8a601fddddc7888aaacb378ea41ca624434856a3005f5bae367d74d5f48bad9a",
      "blockHash": "0xd294a2b9ba82d73ca016c01c6719502ca4774c9396c4e592d21a8e0ec3a3a06d",
      "blockNumber": 69254,
      "transactionIndex": 1,
      "confirmations": null,
      "from": "0xC25f24A505b8fEF751D8f4FCc397651001F7a160",
      "gasPrice": {
        "_hex": "0xce7491e90"
      },
      "gasLimit": {
        "_hex": "0x5208"
      },
      "to": "0x32Be343B94f860124dC4fEe278FDCBD38C102D88",
      "value": {
        "_hex": "0x33e303b24e474800"
      },
      "nonce": 12,
      "data": "0x",
      "r": "0x3bec9a14aabe48bbc4c5079b312fc6d53aa87947f6cb3bf5e0a295bff07b9cb3",
      "s": "0x7f7a00482ed86c77bdc764c2b38e2d4bcbec95c9518e4c63a766e13151f5275b",
      "v": 28,
      "creates": null,
      "raw": "0xf86c0c850ce7491e908252089432be343b94f860124dc4fee278fdcbd38c102d888833e303b24e474800801ca03bec9a14aabe48bbc4c5079b312fc6d53aa87947f6cb3bf5e0a295bff07b9cb3a07f7a00482ed86c77bdc764c2b38e2d4bcbec95c9518e4c63a766e13151f5275b",
      "networkId": 0,
      "chainId": 0
    }
  ]
}