{
  "hash": "0x2d5b44a242da25819f7da3086fbc7b08d19b0f6ee9c4c7b96cea17a30afc0a9b",
  "parentHash": "0xfdbe48bd9da6c4ced464d0379d9fb887d77a7d487e84db9740ed192609554914",
  "number": 101264,
  "timestamp": 1439820154,
  "nonce": "0xfacfd9114214bbc4",
  "difficulty": 3815038843304,
  "gasLimit": {
    "_hex": "0x2fefd8"
  },
  "gasUsed": {
    "_hex": "0x5208"
  },
  "miner": "0xC603Ab5ef41fC61AA8b76bEddb09e3Cfcbb174BD",
  "extraData": "0x476574682f76312e302e312f77696e646f77732f676f312e342e32",
  "transactions": [
    {
      "hash": "0x687bca285bc394abd264bf07238a2a55c8d87c4d46077e6da9b51c4c40638cb8",
      "blockHash": "0x2d5b44a242da25819f7da3086fbc7b08d19b0f6ee9c4c7b96cea17a30afc0a9b",
      "blockNumber": 101264,
      "transactionIndex": 0,
      "confirmations": null,
      "from": "0xad7210d76107F888745616FFF7979623b84F928c",
      "gasPrice": {
        "_hex": "0xd7d40ace3"
      },
      "gasLimit": {
        "_hex": "0x61a8"
      },
      "to": "0xF109ca710C0Df51c1a86dBA1B0BA0Ed038114463",
      "value": {
        "_hex": "0x4563918244f40000"
      },
      "nonce": 15,
      "data": "0x",
      "r": "0x3d175be4bc6082616384efb743f7a305500c41b8eca1e93d430fcd0d53536d94",
      "s": "0x2efb368a51adde95af99644694536e2d827883d1180b1207d3e5ae297c9b0878",
      "v": 28,
      "creates": null,
      "raw": "0xf86c0f850d7d40ace38261a894f109ca710c0df51c1a86dba1b0ba0ed038114463884563918244f40000801ca03d175be4bc6082616384efb743f7a305500c41b8eca1e93d430fcd0d53536d94a02efb368a51adde95af99644694536e2d827883d1180b1207d3e5ae297c9b0878",
      "networkId": 0,
      "chainId": 0
    }
  ]
}