{
  "hash": "0xdcd2983c898a1da4733145efda5a89d79114e02d75bb8670edc9bfd94756a8cd",
  "parentHash": "0xaa4b74f1e98a521f58b891158548c4ded49ed0ff98d6c55636bb0576277de05f",
  "number": 116214,
  "timestamp": 1440070207,
  "nonce": "0xd1c7686c42c4e707",
  "difficulty": 4584658207052,
  "gasLimit": {
    "_hex": "0x2fefd8"
  },
  "gasUsed": {
    "_hex": "0xa410"
  },
  "miner": "0x52bc44d5378309EE2abF1539BF71dE1b7d7bE3b5",
  "extraData": "0x476574682f76312e302e312d61383839306436312f6c696e75782f676f312e34",
  "transactions": [
    {
      "hash": "0xb0e8618c8e3a1341a6636464d43ae3fd1384e0dda7f238763c1f11293decea38",
      "blockHash": "0xdcd2983c898a1da4733145efda5a89d79114e02d75bb8670edc9bfd94756a8cd",
      "blockNumber": 116214,
      "transactionIndex": 0,
      "confirmations": null,
      "from": "0xF87481A262E993a75F791E7859E71BaC36A606Eb",
      "gasPrice": {
        "_hex": "0xe0ad15e56"
      },
      "gasLimit": {
        "_hex": "0x5208"
      },
      "to": "0x32Be343B94f860124dC4fEe278FDCBD38C102D88",
      "value": {
        "_hex": "0x20f569ec3da18a000"
      },
      "nonce": 45,
      "data": "0x",
      "r": "0xaed5ca5d9097aa0d573f3b70ac85bd27f870d8dc38567f4e257992d6bd77d56e",
      "s": "0x30c190cfe6cd2cfd9e26b3b5950dd315b31a1904698fcc3711782757c1798425",
      "v": 28,
      "creates": null,
      "raw": "0xf86d2d850e0ad15e568252089432be343b94f860124dc4fee278fdcbd38c102d8889020f569ec3da18a000801ca0aed5ca5d9097aa0d573f3b70ac85bd27f870d8dc38567f4e257992d6bd77d56ea030c190cfe6cd2cfd9e26b3b5950dd315b31a1904698fcc3711782757c1798425",
      "networkId": 0,
      "chainId": 0
    },
    {
      "hash": "0x30fb5af05bf1646ba1e2b1512abd6e0ba411e416a1621e549f3c506d6a931618",
      "blockHash": "0xdcd2983c898a1da4733145efda5a89d79114e02d75bb8670edc9bfd94756a8cd",
      "blockNumber": 116214,
      "transactionIndex": 1,
      "confirmations": null,
      "from": "0xf2881e3e520bF84469Fa00a56449D357FB1af54A",
      "gasPrice": {
        "_hex": "0xe0ad15e56"
      },
      "gasLimit": {
        "_hex": "0x5208"
      },
      "to": "0x32Be343B94f860124dC4fEe278FDCBD38C102D88",
      "value": {
        "_hex": "0x271dee325cb5ea000"
      },
      "nonce": 13,
      "data": "0x",
      "r": "0x016c0a717a2e9d4dd7dbec18366a94ca7cba16ca3a5bf6e7c3146482f5aa2158",
      "s": "0x213dadd39a1110ef396adee005a2bf456ff3afdab75458f451117736dbd20838",
      "v": 27,
      "creates": null,
      "raw": "0xf86d0d850e0ad15e568252089432be343b94f860124dc4fee278fdcbd38c102d88890271dee325cb5ea000801ba0016c0a717a2e9d4dd7dbec18366a94ca7cba16ca3a5bf6e7c3146482f5aa2158a0213dadd39a1110ef396adee005a2bf456ff3afdab75458f451117736dbd20838",
      "networkId": 0,
      "chainId": 0
    }
  ]
}