{
  "hash": "0x542422bc48f6326aec48fc95ed3c17ca6f8e68a425be340f0a7f4888fd0f1b6d",
  "parentHash": "0x6a0b4506960cd745168df0d414751e7a1543e2cfeb766be8827c2166b06330ee",
  "number": 79523,
  "timestamp": 1439471091,
  "nonce": "0x8790f022ad45556f",
  "difficulty": 2339280300638,
  "gasLimit": {
    "_hex": "0x2fefd8"
  },
  "gasUsed": {
    "_hex": "0x5208"
  },
  "miner": "0xC603Ab5ef41fC61AA8b76bEddb09e3Cfcbb174BD",
  "extraData": "0x476574682f76312e302e312f77696e646f77732f676f312e342e32",
  "transactions": [
    {
      "hash": "0x76502323c24013fc0f2b683d0e128ee762df83fce7f2fb0452b01d2d8840f79c",
      "blockHash": "0x542422bc48f6326aec48fc95ed3c17ca6f8e68a425be340f0a7f4888fd0f1b6d",
      "blockNumber": 79523,
      "transactionIndex": 0,
      "confirmations": null,
      "from": "0x93641e54c9aA6F9038FE7Adb03629a1747326Cd6",
      "gasPrice": {
        "_hex": "0xd641f460d"
      },
      "gasLimit": {
        "_hex": "0x15f90"
      },
      "to": "0xA5fb3E4399E8F18643f969D0Ce65CC352fc252C6",
      "value": {
        "_hex": "0x30927f74c9de00000"
      },
      "nonce": 2,
      "data": "0x",
      "r": "0x34042521cb52d911735180d046128db0f3fdb581c524213e8e0310f18eb980f4",
      "s": "0x7bc79de8c9e590e4cfa3d327acc3507b77a70d3247f81ac25c4277611632005b",
      "v": 28,
      "creates": null,
      "raw": "0xf86e02850d641f460d83015f9094a5fb3e4399e8f18643f969d0ce65cc352fc252c689030927f74c9de00000801ca034042521cb52d911735180d046128db0f3fdb581c524213e8e0310f18eb980f4a07bc79de8c9e590e4cfa3d327acc3507b77a70d3247f81ac25c4277611632005b",
      "networkId": 0,
      "chainId": 0
    }
  ]
}