{
  "hash": "0x05fa07fcf6e94b8efe33bdd680db95ff43dc79c7f08832f5321d5eaa0c10088f",
  "parentHash": "0x135695fa5585a410bab43d34e75471a589d7e5772e4aba7b005b4ceddb33f498",
  "number": 93176,
  "timestamp": 1439684291,
  "nonce": "0xfd6ff90547dbf119",
  "difficulty": 3608435799046,
  "gasLimit": {
    "_hex": "0x2fefd8"
  },
  "gasUsed": {
    "_hex": "0x5208"
  },
  "miner": "0x790b8a3cE86E707ED0eD32bF89B3269692a23CC1",
  "extraData": "0xd783010001844765746887676f312e342e32856c696e7578",
  "transactions": [
    {
      "hash": "0xd89f1175493dde2b3fa164e13bc445ee0556f44cfb8fb51508385c8c0496e160",
      "blockHash": "0x05fa07fcf6e94b8efe33bdd680db95ff43dc79c7f08832f5321d5eaa0c10088f",
      "blockNumber": 93176,
      "transactionIndex": 0,
      "confirmations": null,
      "from": "0x27A2f708f13CFE24f8e5d6E8b7D8E971D2449Ba0",
      "gasPrice": {
        "_hex": "0xd7d40ace3"
      },
      "gasLimit": {
        "_hex": "0x15f90"
      },
      "to": "0x61F642543d22bAf5382908a714E675Cc0b51ea45",
      "value": {
        "_hex": "0xb30601a7228a0000"
      },
      "nonce": 6,
      "data": "0x",
      "r": "0x68f890f3ea6ac492cf02284d7e9f42a207c68a6c94e7b7b636529ac1ff94ac81",
      "s": "0x795516307556b83c5b248d43fda3550bf0fdb06c6a5266c2ffd8db9ec0a64f3b",
      "v": 28,
      "creates": null,
      "raw": "0xf86d06850d7d40ace383015f909461f642543d22baf5382908a714e675cc0b51ea4588b30601a7228a0000801ca068f890f3ea6ac492cf02284d7e9f42a207c68a6c94e7b7b636529ac1ff94ac81a0795516307556b83c5b248d43fda3550bf0fdb06c6a5266c2ffd8db9ec0a64f3b",
      "networkId": 0,
      "chainId": 0
    }
  ]
}