{
  "hash": "0xd783a8974d9ad3f3da6166eb25674dd410d7da416d2e6615d349abefa2fc36d0",
  "parentHash": "0x5ffcadb40eb25abec601db2b52cca8a358abce83d3657cf091cf77f9a00ca523",
  "number": 82454,
  "timestamp": 1439519639,
  "nonce": "0x65ce58bb251bbb6a",
  "difficulty": 2376448623505,
  "gasLimit": {
    "_hex": "0x2fefd8"
  },
  "gasUsed": {
    "_hex": "0x5208"
  },
  "miner": "0x0037ce3d4B7f8729C8607D8D0248252Be68202c0",
  "extraData": "0x476574682f76312e302e312f77696e646f77732f676f312e342e32",
  "transactions": [
    {
      "hash": "0x05c100d9986ab45cd5c5863f14e0365d66495c6ab0ec881f45198d261751f6f6",
      "blockHash": "0xd783a8974d9ad3f3da6166eb25674dd410d7da416d2e6615d349abefa2fc36d0",
      "blockNumber": 82454,
      "transactionIndex": 0,
      "confirmations": null,
      "from": "0xC8224326e29eD30AEEC1B70ec238A818169ecaBA",
      "gasPrice": {
        "_hex": "0xd829211eb"
      },
      "gasLimit": {
        "_hex": "0x15f90"
      },
      "to": "0x27A2f708f13CFE24f8e5d6E8b7D8E971D2449Ba0",
      "value": {
        "_hex": "0xde0b6b3a7640000"
      },
      "nonce": 0,
      "data": "0x",
      "r": "0x385fb8ee173835ccd28232740a5015384c89ea1c89688a11da42e4eb1c77a44c",
      "s": "0x1ad95e007de22f5b9fe4fe94593af4f6025363b252c935f604afe100487856c4",
      "v": 27,
      "creates": null,
      "raw": "0xf86d80850d829211eb83015f909427a2f708f13cfe24f8e5d6e8b7d8e971d2449ba0880de0b6b3a7640000801ba0385fb8ee173835ccd28232740a5015384c89ea1c89688a11da42e4eb1c77a44ca01ad95e007de22f5b9fe4fe94593af4f6025363b252c935f604afe100487856c4",
      "networkId": 0,
      "chainId": 0
    }
  ]
}