{
  "hash": "0x00040a5668b65cfae9a7432d08ac44d22f2065469df85360887cc0888203753d",
  "parentHash": "0x15dcc741c8ab973bb0b63a143680439fc5c81de96bef12f11b70cc6fa6b6480d",
  "number": 60605,
  "timestamp": 1439158628,
  "nonce": "0xa031934ecbffe22f",
  "difficulty": 1732151228919,
  "gasLimit": {
    "_hex": "0x2fefd8"
  },
  "gasUsed": {
    "_hex": "0x5208"
  },
  "miner": "0x306e6267d94f23a9b37Cb110f20852208Fbbf1aA",
  "extraData": "0x476574682f76312e302e312f77696e646f77732f676f312e342e32",
  "transactions": [
    {
      "hash": "0xca40770425e92c10b7717cdf6881d0309ee496f3f51e240abc7e8624c005c14c",
      "blockHash": "0x00040a5668b65cfae9a7432d08ac44d22f2065469df85360887cc0888203753d",
      "blockNumber": 60605,
      "transactionIndex": 0,
      "confirmations": null,
      "from": "0x35c5140a58e4bC73160a52814cAC257d1f272eC5",
      "gasPrice": {
        "_hex": "0xba43b7400"
      },
      "gasLimit": {
        "_hex": "0x5260"
      },
      "to": "0x5298f6ac7590b7b56ED81fFD18Db083Db3922e31",
      "value": {
        "_hex": "0x38d7ea4c68000"
      },
      "nonce": 0,
      "data": "0x",
      "r": "0xb4a6a17187485e685da423e80b2c3d80306c08efad1f0c68fe586db201b0f857",
      "s": "0x70a29b5227153baf5c302baed3a3e86936fde9d807459a488c5d9acdfff3e53e",
      "v": 27,
      "creates": null,
      "raw": "0xf86b80850ba43b7400825260945298f6ac7590b7b56ed81ffd18db083db3922e3187038d7ea4c68000801ba0b4a6a17187485e685da423e80b2c3d80306c08efad1f0c68fe586db201b0f857a070a29b5227153baf5c302baed3a3e86936fde9d807459a488c5d9acdfff3e53e",
      "networkId": 0,
      "chainId": 0
    }
  ]
}