{
  "hash": "0x985512a735951da2642352021f46062670eafd45b3c3661b96e9f2fd8d9a1bf3",
  "parentHash": "0xa54932c9c62dd5ff4d5112d77d7cf790437e3c45005af3025cc8c9b9ffd762f7",
  "number": 86133,
  "timestamp": 1439573896,
  "nonce": "0x088ca57513eb7643",
  "difficulty": 2811240013166,
  "gasLimit": {
    "_hex": "0x2fefd8"
  },
  "gasUsed": {
    "_hex": "0x5208"
  },
  "miner": "0x36a3706566A8f9b27e7d604f4702900Acd31f32E",
  "extraData": "0x476574682f76312e302e312f6c696e75782f676f312e342e32",
  "transactions": [
    {
      "hash": "0xd77ba687a78062a98f11541fd7e7f870ba03924e550aadb4600a392b3157ff90",
      "blockHash": "0x985512a735951da2642352021f46062670eafd45b3c3661b96e9f2fd8d9a1bf3",
      "blockNumber": 86133,
      "transactionIndex": 0,
      "confirmations": null,
      "from": "0x120A270bbC009644e35F0bB6ab13f95b8199c4ad",
      "gasPrice": {
        "_hex": "0xd15f0c932"
      },
      "gasLimit": {
        "_hex": "0x15f90"
      },
      "to": "0x20134CBFf88bFADc466b52ECEAA79857891d831E",
      "value": {
        "_hex": "0x1cbb3a3ff08d080000"
      },
      "nonce": 471,
      "data": "0x",
      "r": "0x34bbaf59a27c133f991e06d3a7c8057431211e14a244954fdbcf22a63ea3c0ed",
      "s": "0x7ccd713455971190f1e8fd6eadaa3a98fbb84564b24a0470ddcd0563c4478584",
      "v": 28,
      "creates": null,
      "raw": "0xf8708201d7850d15f0c93283015f909420134cbff88bfadc466b52eceaa79857891d831e891cbb3a3ff08d080000801ca034bbaf59a27c133f991e06d3a7c8057431211e14a244954fdbcf22a63ea3c0eda07ccd713455971190f1e8fd6eadaa3a98fbb84564b24a0470ddcd0563c4478584",
      "networkId": 0,
      "chainId": 0
    }
  ]
}