{
  "hash": "0xa4478ae146eaf22bdf02b6e0000e0dfdac23ec737fdbd9712137429588ba7e9c",
  "parentHash": "0xf7620c36d4abe829d74bd3f484f0a391c561ca26177ffe81b7ea969ff831db79",
  "number": 85544,
  "timestamp": 1439565290,
  "nonce": "0xca64a219b63a879c",
  "difficulty": 2758405832268,
  "gasLimit": {
    "_hex": "0x2fefd5"
  },
  "gasUsed": {
    "_hex": "0x546c"
  },
  "miner": "0xe6A7a1d47ff21B6321162AEA7C6CB457D5476Bca",
  "extraData": "0x476574682f76312e302e312d38326566323666362f6c696e75782f676f312e34",
  "transactions": [
    {
      "hash": "0x54d8fa4db7e8091025e08f1bbe7f615e2acc290754d7551aeb3d31082cecf0aa",
      "blockHash": "0xa4478ae146eaf22bdf02b6e0000e0dfdac23ec737fdbd9712137429588ba7e9c",
      "blockNumber": 85544,
      "transactionIndex": 0,
      "confirmations": null,
      "from": "0x77a17122Fa31b98f1711D32A99F03Ec326F33D08",
      "gasPrice": {
        "_hex": "0x110c8f7d8de"
      },
      "gasLimit": {
        "_hex": "0xc350"
      },
      "to": "0x2910543Af39abA0Cd09dBb2D50200b3E800A63D2",
      "value": {
        "_hex": "0x2a802f8630a240000"
      },
      "nonce": 3,
      "data": "0x454e4844444b563338",
      "r": "0xfb540d4b187c6ae0c8b4160012db3768d60418928ec59100fa4ee98eeecef9f8",
      "s": "0x01471d237f79c4c275357b4e1b6011ff56a57effb36d1ac53512019de11a3091",
      "v": 28,
      "creates": null,
      "raw": "0xf87703860110c8f7d8de82c350942910543af39aba0cd09dbb2d50200b3e800a63d28902a802f8630a24000089454e4844444b5633381ca0fb540d4b187c6ae0c8b4160012db3768d60418928ec59100fa4ee98eeecef9f8a001471d237f79c4c275357b4e1b6011ff56a57effb36d1ac53512019de11a3091",
      "networkId": 0,
      "chainId": 0
    }
  ]
}