{
  "hash": "0x2b516e54b3c70faa856e80989fe0ae87ff174f81cb46f6eb1500d9d78dd25dfe",
  "parentHash": "0xddb20e9777a4643e52fa4ad3bca7c4d7946bfc0e0840309ddbc0d637d9354218",
  "number": 83868,
  "timestamp": 1439542025,
  "nonce": "0x27bf5d2df681685c",
  "difficulty": 2456264657272,
  "gasLimit": {
    "_hex": "0x2fefd8"
  },
  "gasUsed": {
    "_hex": "0xa410"
  },
  "miner": "0x0037ce3d4B7f8729C8607D8D0248252Be68202c0",
  "extraData": "0x476574682f76312e302e312f77696e646f77732f676f312e342e32",
  "transactions": [
    {
      "hash": "0xfef425efc6fd2562dabd503331753cfdf1bd1719b2cf5809b13231446e0cc68c",
      "blockHash": "0x2b516e54b3c70faa856e80989fe0ae87ff174f81cb46f6eb1500d9d78dd25dfe",
      "blockNumber": 83868,
      "transactionIndex": 0,
      "confirmations": null,
      "from": "0x32Be343B94f860124dC4fEe278FDCBD38C102D88",
      "gasPrice": {
        "_hex": "0xcf1c34863"
      },
      "gasLimit": {
        "_hex": "0x5208"
      },
      "to": "0xA5ab30442100373e87AA2B87Cb448881f9Ec5AFd",
      "value": {
        "_hex": "0x56a879fa775470000"
      },
      "nonce": 668,
      "data": "0x",
      "r": "0x402014b77df8204e0eeabb2a90917193b0dffd91420d0eee1225f55f398c861e",
      "s": "0x26dc7ca58d97e56ed429577497ac97e9566e7c33b2600e90204bf49ce99bbfb0",
      "v": 28,
      "creates": null,
      "raw": "0xf86f82029c850cf1c3486382520894a5ab30442100373e87aa2b87cb448881f9ec5afd89056a879fa775470000801ca0402014b77df8204e0eeabb2a90917193b0dffd91420d0eee1225f55f398c861ea026dc7ca58d97e56ed429577497ac97e9566e7c33b2600e90204bf49ce99bbfb0",
      "networkId": 0,
      "chainId": 0
    },
    {
      "hash": "0x9d117acc12461dfc736dde86a3d2056ba42b1553b68c7a981aed40fb99c0b743",
      "blockHash": "0x2b516e54b3c70faa856e80989fe0ae87ff174f81cb46f6eb1500d9d78dd25dfe",
      "blockNumber": 83868,
      "transactionIndex": 1,
      "confirmations": null,
      "from": "0x0bCa038BF4ACAd3Cbf73463EccC7717dDCDc3D83",
      "gasPrice": {
        "_hex": "0xcf1c34863"
      },
      "gasLimit": {
        "_hex": "0x5208"
      },
      "to": "0x32Be343B94f860124dC4fEe278FDCBD38C102D88",
      "value": {
        "_hex": "0x2086a803ab44900000"
      },
      "nonce": 1,
      "data": "0x",
      "r": "0x2b24d23145eb6f25498b4e0d18312aded363de5caeb2f8ed92f8125e35b12ee7",
      "s": "0x676edf2baea654e2f1aa87d54de3c16450ad77a617d4e2162e79045e005b7eb9",
      "v": 28,
      "creates": null,
      "raw": "0xf86d01850cf1c348638252089432be343b94f860124dc4fee278fdcbd38c102d88892086a803ab44900000801ca02b24d23145eb6f25498b4e0d18312aded363de5caeb2f8ed92f8125e35b12ee7a0676edf2baea654e2f1aa87d54de3c16450ad77a617d4e2162e79045e005b7eb9",
      "networkId": 0,
      "chainId": 0
    }
  ]
}