{
  "hash": "0x3df9e61c0bbf9725af01d089a72908df2b6a957de69777fe87adb3ee349cb238",
  "parentHash": "0x618a55512cb8eb36bef345e462b32f090176e1b4428868131b5893221d0b1d89",
  "number": 74315,
  "timestamp": 1439384154,
  "nonce": "0x9c9f50f00524afed",
  "difficulty": 2213998359704,
  "gasLimit": {
    "_hex": "0x2fefd8"
  },
  "gasUsed": {
    "_hex": "0x546c"
  },
  "miner": "0x756C55cbfa47fd23c0260F958e65866E64c096CB",
  "extraData": "0x",
  "transactions": [
    {
      "hash": "0x3759d3c3eaf021e856dfe58aee558ce0d436974d8763bc8988332169434935cb",
      "blockHash": "0x3df9e61c0bbf9725af01d089a72908df2b6a957de69777fe87adb3ee349cb238",
      "blockNumber": 74315,
      "transactionIndex": 0,
      "confirmations": null,
      "from": "0x39782FFE06AC78822A3c3A8AFE305e50a56188ce",
      "gasPrice": {
        "_hex": "0x110c8f7d8de"
      },
      "gasLimit": {
        "_hex": "0xc350"
      },
      "to": "0x2910543Af39abA0Cd09dBb2D50200b3E800A63D2",
      "value": {
        "_hex": "0x21e0c0013070adc0000"
      },
      "nonce": 0,
      "data": "0x454e3133524e4d3347",
      "r": "0x729c49c25ee1c5109aec9add7a02aaddbce9f242f29b15b143c323772a54f423",
      "s": "0xfc58165aeaf053e940d6948c51b42aabb89e6a9b3f6197497180a4febb65ba34",
      "v": 28,
      "creates": null,
      "raw": "0xf87880860110c8f7d8de82c350942910543af39aba0cd09dbb2d50200b3e800a63d28a021e0c0013070adc000089454e3133524e4d33471ca0729c49c25ee1c5109aec9add7a02aaddbce9f242f29b15b143c323772a54f423a0fc58165aeaf053e940d6948c51b42aabb89e6a9b3f6197497180a4febb65ba34",
      "networkId": 0,
      "chainId": 0
    }
  ]
}