{
  "hash": "0x4b9ab4f7f4e20b36eaa9542a471107dcdc263e271ebf006d6b53fe19cb18b5ae",
  "parentHash": "0xd8404708876035518c8143524ed9aa2581dfa58e1177a6f95365bb39163207ef",
  "number": 49737,
  "timestamp": 1438978186,
  "nonce": "0xdb7663880bb9ca40",
  "difficulty": 1493684092214,
  "gasLimit": {
    "_hex": "0x3ccc4"
  },
  "gasUsed": {
    "_hex": "0x546c"
  },
  "miner": "0xeB1325C8D9d3ea8D74aC11F4B00F1B2367686319",
  "extraData": "0x476574682f76312e302e312f77696e646f77732f676f312e342e32",
  "transactions": [
    {
      "hash": "0xc1a1d370c640d42f6d1a6f609531cc02e70dd8583937cd7591554c2396fc36d8",
      "blockHash": "0x4b9ab4f7f4e20b36eaa9542a471107dcdc263e271ebf006d6b53fe19cb18b5ae",
      "blockNumber": 49737,
      "transactionIndex": 0,
      "confirmations": null,
      "from": "0x64264AEDD52dcae918A012FBcD0C030eE6F71821",
      "gasPrice": {
        "_hex": "0xfe855f07dd"
      },
      "gasLimit": {
        "_hex": "0x15f90"
      },
      "to": "0x2910543Af39abA0Cd09dBb2D50200b3E800A63D2",
      "value": {
        "_hex": "0x363442e15b11550000"
      },
      "nonce": 0,
      "data": "0x454e42304a42363352",
      "r": "0x32bd55e304e9c0de8c3d34ae322e01c54fdcebe38ac59ba6dae925996d2b8289",
      "s": "0x3952667c63b7da1246cc272e2057dc6c4f81c370d067c86a2b4affe4ff4e0a64",
      "v": 28,
      "creates": null,
      "raw": "0xf8778085fe855f07dd83015f90942910543af39aba0cd09dbb2d50200b3e800a63d289363442e15b1155000089454e42304a423633521ca032bd55e304e9c0de8c3d34ae322e01c54fdcebe38ac59ba6dae925996d2b8289a03952667c63b7da1246cc272e2057dc6c4f81c370d067c86a2b4affe4ff4e0a64",
      "networkId": 0,
      "chainId": 0
    }
  ]
}