{
  "hash": "0x8d035ac0e749ec5ca5365c9d43fdf1796d2b6f5b7ab518526f7ebe00001e1509",
  "parentHash": "0x64e1a39b2d1c55501c85878d489bbd8d9f1038de8a8de778c527eb1fbeb95739",
  "number": 102533,
  "timestamp": 1439839512,
  "nonce": "0x98da989c03adcfb0",
  "difficulty": 3979992926060,
  "gasLimit": {
    "_hex": "0x2fefd8"
  },
  "gasUsed": {
    "_hex": "0x5208"
  },
  "miner": "0xe6A7a1d47ff21B6321162AEA7C6CB457D5476Bca",
  "extraData": "0x476574682f76312e302e312d38326566323666362f6c696e75782f676f312e34",
  "transactions": [
    {
      "hash": "0xb144ef47ab553f4af95bc14fd309d958a05cf21223fbedcc5b29cef22442cd3f",
      "blockHash": "0x8d035ac0e749ec5ca5365c9d43fdf1796d2b6f5b7ab518526f7ebe00001e1509",
      "blockNumber": 102533,
      "transactionIndex": 0,
      "confirmations": null,
      "from": "0x9c4dB3C798408A4e36e443c1141E182809BD5e50",
      "gasPrice": {
        "_hex": "0xba43b7400"
      },
      "gasLimit": {
        "_hex": "0x5208"
      },
      "to": "0xC47Aaa860008be6f65B58c6C6E02a84e666EfE31",
      "value": {
        "_hex": "0x53408d3dbf5438f0"
      },
      "nonce": 3,
      "data": "0x",
      "r": "0xa111daf1c854c6a8e4822371d795276c82d9dbb24e9c2d29266c3c464c0ce38e",
      "s": "0x0b342cffa3f7c8bd3c639fc6a3f45208be4a92e5a7d0c83e130f955395575d1b",
      "v": 27,
      "creates": null,
      "raw": "0xf86c03850ba43b740082520894c47aaa860008be6f65b58c6c6e02a84e666efe318853408d3dbf5438f0801ba0a111daf1c854c6a8e4822371d795276c82d9dbb24e9c2d29266c3c464c0ce38ea00b342cffa3f7c8bd3c639fc6a3f45208be4a92e5a7d0c83e130f955395575d1b",
      "networkId": 0,
      "chainId": 0
    }
  ]
}