{
  "hash": "0x08bcc5c8e8de2cb422f3ce70ab2d9465005042866038deabafe0fe69590c497f",
  "parentHash": "0x5f3833ad7928539245518ef65d119484d410153503d3e43b839b2684d2d9e886",
  "number": 117886,
  "timestamp": 1440116936,
  "nonce": "0x96b0052f7ef539a2",
  "difficulty": 4344042200798,
  "gasLimit": {
    "_hex": "0x2fefd8"
  },
  "gasUsed": {
    "_hex": "0xa410"
  },
  "miner": "0x52bc44d5378309EE2abF1539BF71dE1b7d7bE3b5",
  "extraData": "0xd783010002844765746887676f312e342e32856c696e7578",
  "transactions": [
    {
      "hash": "0xce3378c55013ec52f2be3461d1ff603452cea1d83888b9a553df34b1bf02974b",
      "blockHash": "0x08bcc5c8e8de2cb422f3ce70ab2d9465005042866038deabafe0fe69590c497f",
      "blockNumber": 117886,
      "transactionIndex": 0,
      "confirmations": null,
      "from": "0x022A006FcC619ebf387F413eF06932bAbd47AE0E",
      "gasPrice": {
        "_hex": "0xba43b7400"
      },
      "gasLimit": {
        "_hex": "0x5208"
      },
      "to": "0x32Be343B94f860124dC4fEe278FDCBD38C102D88",
      "value": {
        "_hex": "0x6c43673112a9b000"
      },
      "nonce": 12,
      "data": "0x",
      "r": "0x19ce037e928f917b08a06e0e6ca401cfca706909ecaf36429761537260f137a7",
      "s": "0x57e7c15d1bf86741d868c56d845c99ed8972cea4b819351b0d816c55453c8d9c",
      "v": 28,
      "creates": null,
      "raw": "0xf86c0c850ba43b74008252089432be343b94f860124dc4fee278fdcbd38c102d88886c43673112a9b000801ca019ce037e928f917b08a06e0e6ca401cfca706909ecaf36429761537260f137a7a057e7c15d1bf86741d868c56d845c99ed8972cea4b819351b0d816c55453c8d9c",
      "networkId": 0,
      "chainId": 0
    },
    {
      "hash": "0xea462f8c3d26534dfac7be7cd5849c063c92af17312982a9f485b36b8cb2985b",
      "blockHash": "0x08bcc5c8e8de2cb422f3ce70ab2d9465005042866038deabafe0fe69590c497f",
      "blockNumber": 117886,
      "transactionIndex": 1,
      "confirmations": null,
      "from": "0xf2cC0eEAAAeD313542CB262B0B8c3972425143f0",
      "gasPrice": {
        "_hex": "0xba43b7400"
      },
      "gasLimit": {
        "_hex": "0x5208"
      },
      "to": "0x32Be343B94f860124dC4fEe278FDCBD38C102D88",
      "value": {
        "_hex": "0xd801319d921ac800"
      },
      "nonce": 21,
      "data": "0x",
      "r": "0x63ad2eaa3137d9c5f75351bdcfd5852ed26e26f22f5a3b3b13d6fcce0ed2deca",
      "s": "0x19eff7798fa007f2cbfd5a965774665a517ab8e946bdf3092fb833780fa284ad",
      "v": 28,
      "creates": null,
      "raw": "0xf86c15850ba43b74008252089432be343b94f860124dc4fee278fdcbd38c102d8888d801319d921ac800801ca063ad2eaa3137d9c5f75351bdcfd5852ed26e26f22f5a3b3b13d6fcce0ed2decaa019eff7798fa007f2cbfd5a965774665a517ab8e946bdf3092fb833780fa284ad",
      "networkId": 0,
      "chainId": 0
    }
  ]
}