{
  "hash": "0xd51840f69a0580daf7f6b81204b314a652959ee1c793c70daec1b611f58b6981",
  "parentHash": "0x38f0319d226e1903e47c9bbc67ea23e4414f731d7a300f6e2ac4fc850f550cc9",
  "number": 58983,
  "timestamp": 1439130108,
  "nonce": "0x8bc8ed7de9bdb80f",
  "difficulty": 1708961032219,
  "gasLimit": {
    "_hex": "0x2fefd8"
  },
  "gasUsed": {
    "_hex": "0x546c"
  },
  "miner": "0x4FAbC395F6Be877A5C797Dd3AF42C8E5D0261ED1",
  "extraData": "0x476574682f76312e302e312f6c696e75782f676f312e342e32",
  "transactions": [
    {
      "hash": "0x4c1d5d09fda3710ab1ad38465f1310eae66a0b7b737071f548078e68e1a881f3",
      "blockHash": "0xd51840f69a0580daf7f6b81204b314a652959ee1c793c70daec1b611f58b6981",
      "blockNumber": 58983,
      "transactionIndex": 0,
      "confirmations": null,
      "from": "0x71d9494E50C5dd59c599dBa3810BA1755E6537f0",
      "gasPrice": {
        "_hex": "0x110c8f7d8de"
      },
      "gasLimit": {
        "_hex": "0xc350"
      },
      "to": "0x2910543Af39abA0Cd09dBb2D50200b3E800A63D2",
      "value": {
        "_hex": "0x6c6a3016135fb60000"
      },
      "nonce": 1,
      "data": "0x454e44464a30523930",
      "r": "0x8316b3533a5ba750e4b72dd0140f7edadf1af116165bbf01d3c646f9f84dcbae",
      "s": "0x68ee10f4b73ea1ff9ddef71494bc545cff26a688b4763391d75cba3683048bdb",
      "v": 28,
      "creates": null,
      "raw": "0xf87701860110c8f7d8de82c350942910543af39aba0cd09dbb2d50200b3e800a63d2896c6a3016135fb6000089454e44464a305239301ca08316b3533a5ba750e4b72dd0140f7edadf1af116165bbf01d3c646f9f84dcbaea068ee10f4b73ea1ff9ddef71494bc545cff26a688b4763391d75cba3683048bdb",
      "networkId": 0,
      "chainId": 0
    }
  ]
}