{
  "hash": "0x84f1025177be26eddb6dbdfb3b96f6fd85c0b0112d74e4f4f95df70045d3582c",
  "parentHash": "0x138c55ec44fc3b509126ccd3d8887edad65fa1f095fd43b9953afb07c92e7ffb",
  "number": 105489,
  "timestamp": 1439888563,
  "nonce": "0xc8638f7b8a277090",
  "difficulty": 4378169837736,
  "gasLimit": {
    "_hex": "0x2fefd8"
  },
  "gasUsed": {
    "_hex": "0x5208"
  },
  "miner": "0x858079E02403b10748B71A02195b6608Abaf6b8f",
  "extraData": "0x476574682f76312e302e312f77696e646f77732f676f312e342e32",
  "transactions": [
    {
      "hash": "0x9144b9946ab3c261c7c19171f651608549ff7d3c959668a9948bfa8e0b31e57e",
      "blockHash": "0x84f1025177be26eddb6dbdfb3b96f6fd85c0b0112d74e4f4f95df70045d3582c",
      "blockNumber": 105489,
      "transactionIndex": 0,
      "confirmations": null,
      "from": "0x89Ea4C778D3f3D6BE70883BB9995D41Bd4c453Ab",
      "gasPrice": {
        "_hex": "0xd013d2b3b"
      },
      "gasLimit": {
        "_hex": "0x5208"
      },
      "to": "0x32Be343B94f860124dC4fEe278FDCBD38C102D88",
      "value": {
        "_hex": "0x98a3baa204fc6000"
      },
      "nonce": 5,
      "data": "0x",
      "r": "0x219a5d3fc0930edf14dfe4a07bc2487719bb8cef9c76b794d2e8ceaba59ace4b",
      "s": "0x57296ab89fb5b5020e0c8ec53169d72d09c26d3b1c03e9323dbf888f459f6654",
      "v": 28,
      "creates": null,
      "raw": "0xf86c05850d013d2b3b8252089432be343b94f860124dc4fee278fdcbd38c102d888898a3baa204fc6000801ca0219a5d3fc0930edf14dfe4a07bc2487719bb8cef9c76b794d2e8ceaba59ace4ba057296ab89fb5b5020e0c8ec53169d72d09c26d3b1c03e9323dbf888f459f6654",
      "networkId": 0,
      "chainId": 0
    }
  ]
}