{
  "hash": "0xef8644ec9e5c6f841724051fc5a6a0b86982aaedec231892e58e9d40afdf1439",
  "parentHash": "0xbde2e5c17848f90d545c5621108607a61b053dc61856d86908535d626b126527",
  "number": 116311,
  "timestamp": 1440071931,
  "nonce": "0x3789afdc6b561255",
  "difficulty": 4591325845519,
  "gasLimit": {
    "_hex": "0x2fefd8"
  },
  "gasUsed": {
    "_hex": "0x5208"
  },
  "miner": "0x9D49F602b0fdb924Bd63DDE2Bd0907E4A07c63a7",
  "extraData": "0x476574682f76312e302e312f6c696e75782f676f312e342e32",
  "transactions": [
    {
      "hash": "0x5323c1b07569861bbaa57fbe56ec7276bb84fbaf63dbfbe5970358e57c7ca87b",
      "blockHash": "0xef8644ec9e5c6f841724051fc5a6a0b86982aaedec231892e58e9d40afdf1439",
      "blockNumber": 116311,
      "transactionIndex": 0,
      "confirmations": null,
      "from": "0x37D1d27e54bea142CfFf327152361818E3c46FB6",
      "gasPrice": {
        "_hex": "0xd6bbf94df"
      },
      "gasLimit": {
        "_hex": "0x5208"
      },
      "to": "0x32Be343B94f860124dC4fEe278FDCBD38C102D88",
      "value": {
        "_hex": "0xbc4e062b3798c000"
      },
      "nonce": 1,
      "data": "0x",
      "r": "0x626fa6b49f92e905c0ac5e00639b4e06f3f326f9cf1e49f6d7a8241172da63e8",
      "s": "0x7c5cfebba3f23e4bdef33225693f8a81e695efc617d31cce9b01755b6caf8b36",
      "v": 27,
      "creates": null,
      "raw": "0xf86c01850d6bbf94df8252089432be343b94f860124dc4fee278fdcbd38c102d8888bc4e062b3798c000801ba0626fa6b49f92e905c0ac5e00639b4e06f3f326f9cf1e49f6d7a8241172da63e8a07c5cfebba3f23e4bdef33225693f8a81e695efc617d31cce9b01755b6caf8b36",
      "networkId": 0,
      "chainId": 0
    }
  ]
}