{
  "hash": "0xe25e76765029ad3ac1bc02a168d2a031a6a8307bf5002e227e6da4c1699c737c",
  "parentHash": "0xb23301512d4a3c58c8b883dde22631ad6706561b93d632ac3675c3c9704cd579",
  "number": 112755,
  "timestamp": 1440012675,
  "nonce": "0x109500c9d161fae1",
  "difficulty": 4438928665034,
  "gasLimit": {
    "_hex": "0x2fefd8"
  },
  "gasUsed": {
    "_hex": "0x5208"
  },
  "miner": "0x52bc44d5378309EE2abF1539BF71dE1b7d7bE3b5",
  "extraData": "0x476574682f76312e302e312d39353236303766382f6c696e75782f676f312e34",
  "transactions": [
    {
      "hash": "0xc8038fe77b8482954b30497015bbe5d1e40d8ed74c4c8e9c56415e1d7a1fd1db",
      "blockHash": "0xe25e76765029ad3ac1bc02a168d2a031a6a8307bf5002e227e6da4c1699c737c",
      "blockNumber": 112755,
      "transactionIndex": 0,
      "confirmations": null,
      "from": "0x4369BF4867c99a39513Bb176d468A7e326F3a542",
      "gasPrice": {
        "_hex": "0xd4002004a"
      },
      "gasLimit": {
        "_hex": "0x5208"
      },
      "to": "0x32Be343B94f860124dC4fEe278FDCBD38C102D88",
      "value": {
        "_hex": "0x2b0601636b045000"
      },
      "nonce": 8,
      "data": "0x",
      "r": "0x56d13e86bbcadf54c24bd3030d2670b1f21f806bd852a0d8d8974e81e8ca70bd",
      "s": "0x621d3394c8533de83197e7a4e57d131f4cb350407b6ff094eb9331adddaf3edb",
      "v": 28,
      "creates": null,
      "raw": "0xf86c08850d4002004a8252089432be343b94f860124dc4fee278fdcbd38c102d88882b0601636b045000801ca056d13e86bbcadf54c24bd3030d2670b1f21f806bd852a0d8d8974e81e8ca70bda0621d3394c8533de83197e7a4e57d131f4cb350407b6ff094eb9331adddaf3edb",
      "networkId": 0,
      "chainId": 0
    }
  ]
}