{
  "hash": "0xd7f1f7133119b7133fa8c8bb974b8f9bdfbf0a8de432a78704c54ed2f31743a7",
  "parentHash": "0xb6caf610f9bfb3c0e2b072bbddf0d4b3541aef19048ed9ea5ee8bca1abe77015",
  "number": 92129,
  "timestamp": 1439667292,
  "nonce": "0x4292b626a0d9def8",
  "difficulty": 3475719592978,
  "gasLimit": {
    "_hex": "0x2fefd8"
  },
  "gasUsed": {
    "_hex": "0xa410"
  },
  "miner": "0xa50ec0D39fa913E62f1Bae7074E6F36caA71855b",
  "extraData": "0xd783010001844765746887676f312e342e32856c696e7578",
  "transactions": [
    {
      "hash": "0x7a290fda06d8010d030045ba4df83d62cd2a48b13479e87830a6a12fe5bd5143",
      "blockHash": "0xd7f1f7133119b7133fa8c8bb974b8f9bdfbf0a8de432a78704c54ed2f31743a7",
      "blockNumber": 92129,
      "transactionIndex": 0,
      "confirmations": null,
      "from": "0x0EB0AcFB7C81a83296b8C023673f362e8FCd88bD",
      "gasPrice": {
        "_hex": "0xdc2fbb753"
      },
      "gasLimit": {
        "_hex": "0x5208"
      },
      "to": "0x32Be343B94f860124dC4fEe278FDCBD38C102D88",
      "value": {
        "_hex": "0xddc58a44979b000"
      },
      "nonce": 3,
      "data": "0x",
      "r": "0x9e8520a2b1d32f69f4ff089659a48ee96f5ed1fb9865aa22043e5a1057019ba5",
      "s": "0x02271735fc55d11af39a6bfc2dab71ec5be5334b3967289cfcb9a4eb829a699d",
      "v": 27,
      "creates": null,
      "raw": "0xf86c03850dc2fbb7538252089432be343b94f860124dc4fee278fdcbd38c102d88880ddc58a44979b000801ba09e8520a2b1d32f69f4ff089659a48ee96f5ed1fb9865aa22043e5a1057019ba5a002271735fc55d11af39a6bfc2dab71ec5be5334b3967289cfcb9a4eb829a699d",
      "networkId": 0,
      "chainId": 0
    },
    {
      "hash": "0x44134eadabad9d7aafca5a9c8ca50d048cc695983aa8862b9cef9668907aa0fb",
      "blockHash": "0xd7f1f7133119b7133fa8c8bb974b8f9bdfbf0a8de432a78704c54ed2f31743a7",
      "blockNumber": 92129,
      "transactionIndex": 1,
      "confirmations": null,
      "from": "0x2e41275bF9571c7244de1cF0EA68133d0f6d7422",
      "gasPrice": {
        "_hex": "0xd1f8d725a"
      },
      "gasLimit": {
        "_hex": "0x30d40"
      },
      "to": "0x120A270bbC009644e35F0bB6ab13f95b8199c4ad",
      "value": {
        "_hex": "0xc988ce7d900d780"
      },
      "nonce": 0,
      "data": "0x",
      "r": "0xba848d8c7f86c3d4fbb748de4aafac54d296debcf19e8f4c5638e5ba356d2290",
      "s": "0x4bcbef790ddb88c46f54b94405fd0c38c76e4aa6ce3ff8af70254e51c351045d",
      "v": 28,
      "creates": null,
      "raw": "0xf86d80850d1f8d725a83030d4094120a270bbc009644e35f0bb6ab13f95b8199c4ad880c988ce7d900d780801ca0ba848d8c7f86c3d4fbb748de4aafac54d296debcf19e8f4c5638e5ba356d2290a04bcbef790ddb88c46f54b94405fd0c38c76e4aa6ce3ff8af70254e51c351045d",
      "networkId": 0,
      "chainId": 0
    }
  ]
}