{
  "hash": "0x8c17325fba4b301b95cf5c8dddf549e12bd1eddd1620094cf3a98da8afb08d60",
  "parentHash": "0x930ef11c79fdecbab0885989ba27c1909684578c490da9b2fa5ba6a79e70ff90",
  "number": 121590,
  "timestamp": 1440179538,
  "nonce": "0x94cac2e30f8509af",
  "difficulty": 4445095030452,
  "gasLimit": {
    "_hex": "0x2fefd8"
  },
  "gasUsed": {
    "_hex": "0x5208"
  },
  "miner": "0x52bc44d5378309EE2abF1539BF71dE1b7d7bE3b5",
  "extraData": "0xd783010002844765746887676f312e342e32856c696e7578",
  "transactions": [
    {
      "hash": "0xb124a14b78d0b0ceb16edb0cf24c98eaed733ed9b483a79b33ade0c0c133f0c8",
      "blockHash": "0x8c17325fba4b301b95cf5c8dddf549e12bd1eddd1620094cf3a98da8afb08d60",
      "blockNumber": 121590,
      "transactionIndex": 0,
      "confirmations": null,
      "from": "0x32Be343B94f860124dC4fEe278FDCBD38C102D88",
      "gasPrice": {
        "_hex": "0xba43b7400"
      },
      "gasLimit": {
        "_hex": "0x5208"
      },
      "to": "0xFC8907e9A15f3b14E331e908b4F3f7883Ad95373",
      "value": {
        "_hex": "0x2386f26fc10000"
      },
      "nonce": 1564,
      "data": "0x",
      "r": "0x8b2814f19aee0baabbe3adfe2b079851277169ebbd9c4b17735e022d4288e01f",
      "s": "0x4475bab7fe4cc6e1afcfd5a96f94bdaa0c48b645ebd4edb8bafb83f039434618",
      "v": 28,
      "creates": null,
      "raw": "0xf86d82061c850ba43b740082520894fc8907e9a15f3b14e331e908b4f3f7883ad95373872386f26fc10000801ca08b2814f19aee0baabbe3adfe2b079851277169ebbd9c4b17735e022d4288e01fa04475bab7fe4cc6e1afcfd5a96f94bdaa0c48b645ebd4edb8bafb83f039434618",
      "networkId": 0,
      "chainId": 0
    }
  ]
}