{
  "hash": "0x0246b2cd299c51d21553225ba5ce3495d5e11a93e2718ff1f37fb1da399c5673",
  "parentHash": "0x9abba4cfb73adaf2a54ba90d1fe18c6c2562eb2b9838929974c46e10f7da1939",
  "number": 78668,
  "timestamp": 1439457409,
  "nonce": "0x96e7d9194cfd1b5a",
  "difficulty": 2290910064694,
  "gasLimit": {
    "_hex": "0x2fefd8"
  },
  "gasUsed": {
    "_hex": "0x5208"
  },
  "miner": "0xa6BDc31c431B8F97848c9D60cbbe9660dc450eB7",
  "extraData": "0x",
  "transactions": [
    {
      "hash": "0x5e65ca554015f209239e5f03d4b9225385ad5f9039bbf97c46f2b23cb1ebb278",
      "blockHash": "0x0246b2cd299c51d21553225ba5ce3495d5e11a93e2718ff1f37fb1da399c5673",
      "blockNumber": 78668,
      "transactionIndex": 0,
      "confirmations": null,
      "from": "0x120A270bbC009644e35F0bB6ab13f95b8199c4ad",
      "gasPrice": {
        "_hex": "0xdeb4fcc72"
      },
      "gasLimit": {
        "_hex": "0x3d090"
      },
      "to": "0x8f717ec1552f4C440084fBa1154A81DC003EbdC0",
      "value": {
        "_hex": "0x2086ac351052600000"
      },
      "nonce": 328,
      "data": "0x",
      "r": "0x16f67ce69dc41059b0762a41f24394a38f4b8fe6625abe628e4ec8f5a8319db5",
      "s": "0x3d088cc6ba2b37afb33dc9fec701df8160cc3544e5ef4aca61fe9715ae62ddc9",
      "v": 27,
      "creates": null,
      "raw": "0xf870820148850deb4fcc728303d090948f717ec1552f4c440084fba1154a81dc003ebdc0892086ac351052600000801ba016f67ce69dc41059b0762a41f24394a38f4b8fe6625abe628e4ec8f5a8319db5a03d088cc6ba2b37afb33dc9fec701df8160cc3544e5ef4aca61fe9715ae62ddc9",
      "networkId": 0,
      "chainId": 0
    }
  ]
}