{
  "hash": "0xd3604af0c732a2d77094f9edb3a8795de87ff5951b5ae63c7a9e1cbfbef46b30",
  "parentHash": "0xe8a8e3626e72c5e9c42fe10b76c256407548299f7612591323e57841385cb6d3",
  "number": 62549,
  "timestamp": 1439190566,
  "nonce": "0x7fdd3c0110d827d3",
  "difficulty": 1769357974929,
  "gasLimit": {
    "_hex": "0x2fefd5"
  },
  "gasUsed": {
    "_hex": "0xab6d"
  },
  "miner": "0x5F8F73E26CdF436f19Cb24C82F90A15AFe55b592",
  "extraData": "0x476574682f76312e302e312f77696e646f77732f676f312e342e32",
  "transactions": [
    {
      "hash": "0xe40e8479902a3ff4c5a8ef4139ae1a1ddb2db62e64ff9ee9273dc07903342511",
      "blockHash": "0xd3604af0c732a2d77094f9edb3a8795de87ff5951b5ae63c7a9e1cbfbef46b30",
      "blockNumber": 62549,
      "transactionIndex": 0,
      "confirmations": null,
      "from": "0x30902C00f16382313E6Dd2D307a4a07D738b6432",
      "gasPrice": {
        "_hex": "0xdd4aad49f"
      },
      "gasLimit": {
        "_hex": "0x15f90"
      },
      "to": "0x6C18EB3a3cbFc8fc6EeC1d80aB1d0dc5510FA0b1",
      "value": {
        "_hex": "0x16345785d8a0000"
      },
      "nonce": 0,
      "data": "0xa55526db",
      "r": "0x43fb056bb7eab9f0d5bd060191e0bc3b4787e798b73f75ae12444871cc497c42",
      "s": "0x61811b3a10d495ab19009c4eda723d7f2b68f3ace9d4eb174defc5be796c76cd",
      "v": 28,
      "creates": null,
      "raw": "0xf87180850dd4aad49f83015f90946c18eb3a3cbfc8fc6eec1d80ab1d0dc5510fa0b188016345785d8a000084a55526db1ca043fb056bb7eab9f0d5bd060191e0bc3b4787e798b73f75ae12444871cc497c42a061811b3a10d495ab19009c4eda723d7f2b68f3ace9d4eb174defc5be796c76cd",
      "networkId": 0,
      "chainId": 0
    }
  ]
}