{
  "hash": "0xfcfe63b3b245d89670b7f551579ad093c8f4e745d34c5552a0f15f09d909b4c7",
  "parentHash": "0x6edcb4a74f210f2c2123857f09aec79125f00f28c28ec3f13a5ab00efc34d255",
  "number": 112065,
  "timestamp": 1440001201,
  "nonce": "0xed132f7e476008c2",
  "difficulty": 4391861291982,
  "gasLimit": {
    "_hex": "0x2fefd8"
  },
  "gasUsed": {
    "_hex": "0x5208"
  },
  "miner": "0x05f74a38293C914C6B14a39f5d8dEa98f22E4FBA",
  "extraData": "0x",
  "transactions": [
    {
      "hash": "0x1b3056b180994351656ecd6439780f25b0bd86bf60a23b87e89d3b1ac23cde41",
      "blockHash": "0xfcfe63b3b245d89670b7f551579ad093c8f4e745d34c5552a0f15f09d909b4c7",
      "blockNumber": 112065,
      "transactionIndex": 0,
      "confirmations": null,
      "from": "0x5A89048Fb5710E89dc5973652dAF900aC9018d26",
      "gasPrice": {
        "_hex": "0xba43b7400"
      },
      "gasLimit": {
        "_hex": "0x5208"
      },
      "to": "0xC47Aaa860008be6f65B58c6C6E02a84e666EfE31",
      "value": {
        "_hex": "0x217791357bb5d94f0"
      },
      "nonce": 1,
      "data": "0x",
      "r": "0xc67277d8280b4605a45d4a06df09de1e7c9a4fe009bc8e32604a28abde7cb701",
      "s": "0x1ce74e64ec634b57544044559949701781210d9ce28186d407ff2fe503899354",
      "v": 28,
      "creates": null,
      "raw": "0xf86d01850ba43b740082520894c47aaa860008be6f65b58c6c6e02a84e666efe31890217791357bb5d94f0801ca0c67277d8280b4605a45d4a06df09de1e7c9a4fe009bc8e32604a28abde7cb701a01ce74e64ec634b57544044559949701781210d9ce28186d407ff2fe503899354",
      "networkId": 0,
      "chainId": 0
    }
  ]
}