{
  "hash": "0x0de4bf928f3bba9afc8ab48f52acac0fee806b62ae9850f718e5ab3198d12740",
  "parentHash": "0x4d2d239218d9a1164658c7d91f711f67889f7c3859b372fb8eec41365cf3e562",
  "number": 111083,
  "timestamp": 1439984408,
  "nonce": "0xcde42d7cda3c0257",
  "difficulty": 4409566721693,
  "gasLimit": {
    "_hex": "0x2fefd8"
  },
  "gasUsed": {
    "_hex": "0x5208"
  },
  "miner": "0xe6A7a1d47ff21B6321162AEA7C6CB457D5476Bca",
  "extraData": "0x476574682f76312e302e312d38326566323666362f6c696e75782f676f312e34",
  "transactions": [
    {
      "hash": "0x13684203a4bf07aaed0112983cb380db6004acac772af2a5d46cb2a28245fbad",
      "blockHash": "0x0de4bf928f3bba9afc8ab48f52acac0fee806b62ae9850f718e5ab3198d12740",
      "blockNumber": 111083,
      "transactionIndex": 0,
      "confirmations": null,
      "from": "0xC47Aaa860008be6f65B58c6C6E02a84e666EfE31",
      "gasPrice": {
        "_hex": "0xd9d2b70b9"
      },
      "gasLimit": {
        "_hex": "0x15f90"
      },
      "to": "0xaFB7ed3beBE50E0b62Fa862FAba93e7A46e59cA7",
      "value": {
        "_hex": "0x207bcf929faa08ca9"
      },
      "nonce": 100,
      "data": "0x",
      "r": "0x2e88b63be1b8f46bc89f8393926b4b7f1a5289ce2c7522f6ec539758d0f14c3a",
      "s": "0x110e8587a7dde7399f1ad4316738a46bb0c06b73f50a0726618540351f21f0bf",
      "v": 28,
      "creates": null,
      "raw": "0xf86e64850d9d2b70b983015f9094afb7ed3bebe50e0b62fa862faba93e7a46e59ca7890207bcf929faa08ca9801ca02e88b63be1b8f46bc89f8393926b4b7f1a5289ce2c7522f6ec539758d0f14c3aa0110e8587a7dde7399f1ad4316738a46bb0c06b73f50a0726618540351f21f0bf",
      "networkId": 0,
      "chainId": 0
    }
  ]
}