{
  "hash": "0x0938c64c8ec9edba2ccbb4c2a64277cc4757003c3fa38ff6afaabb3b10352fef",
  "parentHash": "0xf8ee12c29ffb7dfffa0c52d86c1e84389cd014f94eaa732bd973fca8e41eab39",
  "number": 63868,
  "timestamp": 1439211557,
  "nonce": "0x90ae3f451663f0eb",
  "difficulty": 1854885191321,
  "gasLimit": {
    "_hex": "0x2fefd8"
  },
  "gasUsed": {
    "_hex": "0x5208"
  },
  "miner": "0xd2a781a0bBBE2c930B012aABf90b3d95A0c6D047",
  "extraData": "0x476574682f76312e302e312f77696e646f77732f676f312e342e32",
  "transactions": [
    {
      "hash": "0xef6dbb4e34a10a94f99de242525732809826fb50ad1516ebd9a6d8fa91559ea1",
      "blockHash": "0x0938c64c8ec9edba2ccbb4c2a64277cc4757003c3fa38ff6afaabb3b10352fef",
      "blockNumber": 63868,
      "transactionIndex": 0,
      "confirmations": null,
      "from": "0x87898CE53471043FcCa0a2aF4E1dC6d8B3fCf607",
      "gasPrice": {
        "_hex": "0xcb6c17a11"
      },
      "gasLimit": {
        "_hex": "0x5208"
      },
      "to": "0xBFdD9820a04283b289957956353b5F3C1F665EcF",
      "value": {
        "_hex": "0x4563918244f40000"
      },
      "nonce": 14,
      "data": "0x",
      "r": "0x7c7a4241b73aa05238330ca8b0d9bb3a5828031eb1f8738e9f780fefc662e686",
      "s": "0x45f624a0851aedbd3c802d80743452f4ffed01e573368ea95c6ae32f26117c3c",
      "v": 27,
      "creates": null,
      "raw": "0xf86c0e850cb6c17a1182520894bfdd9820a04283b289957956353b5f3c1f665ecf884563918244f40000801ba07c7a4241b73aa05238330ca8b0d9bb3a5828031eb1f8738e9f780fefc662e686a045f624a0851aedbd3c802d80743452f4ffed01e573368ea95c6ae32f26117c3c",
      "networkId": 0,
      "chainId": 0
    }
  ]
}