{
  "hash": "0x1086727398fb2af66c270c4e0323d7b892d814a55a4672502eb032fd0baaed2d",
  "parentHash": "0xdd8785201e7397c034b3c7575add9b9495d1ca77630d5848926be0580ed6927d",
  "number": 86026,
  "timestamp": 1439572399,
  "nonce": "0x8104710a2d98b69f",
  "difficulty": 2788036669190,
  "gasLimit": {
    "_hex": "0x2fefd8"
  },
  "gasUsed": {
    "_hex": "0x5208"
  },
  "miner": "0xe6A7a1d47ff21B6321162AEA7C6CB457D5476Bca",
  "extraData": "0x476574682f76312e302e312d38326566323666362f6c696e75782f676f312e34",
  "transactions": [
    {
      "hash": "0xc4af8efe9d6f1eb070f96ed0a5ad9bc9ec1ede330cb689b79d6b99ed398ca48c",
      "blockHash": "0x1086727398fb2af66c270c4e0323d7b892d814a55a4672502eb032fd0baaed2d",
      "blockNumber": 86026,
      "transactionIndex": 0,
      "confirmations": null,
      "from": "0x5D872b122E994EF27C71d7DeB457bf65429eca6C",
      "gasPrice": {
        "_hex": "0x10c8fbe6724"
      },
      "gasLimit": {
        "_hex": "0x15f90"
      },
      "to": "0xAaE8DCB1d3D159A0D2439c8e0e2F73812320c79d",
      "value": {
        "_hex": "0xde0b6b3a7640000"
      },
      "nonce": 3,
      "data": "0x",
      "r": "0x4c2f49695593ca96553d23f3d965053d34c7b9a4095a777b1440026a4d80ce5b",
      "s": "0x60fd90d98dc5d9e980187982539bec517924f68a8f314d920ab56685378632da",
      "v": 27,
      "creates": null,
      "raw": "0xf86e0386010c8fbe672483015f9094aae8dcb1d3d159a0d2439c8e0e2f73812320c79d880de0b6b3a7640000801ba04c2f49695593ca96553d23f3d965053d34c7b9a4095a777b1440026a4d80ce5ba060fd90d98dc5d9e980187982539bec517924f68a8f314d920ab56685378632da",
      "networkId": 0,
      "chainId": 0
    }
  ]
}