{
  "hash": "0x8b10e5fbc09565acf51ab8f6ec9cd71e11436417f9f806a2d5e195116808400f",
  "parentHash": "0x464b496a111cd9b98f4a695aaf624e685e2c7bd130a8f0ebcb96f96f7516f364",
  "number": 83059,
  "timestamp": 1439529358,
  "nonce": "0x2c3fc37f8feca6a7",
  "difficulty": 2412519884809,
  "gasLimit": {
    "_hex": "0x2fefd8"
  },
  "gasUsed": {
    "_hex": "0x5208"
  },
  "miner": "0xBD744E3F13D79B33F6c8E1d5E32F8E9BA2866c46",
  "extraData": "0x476574682f76312e302e312d39613032663533372f6c696e75782f676f312e34",
  "transactions": [
    {
      "hash": "0xb13a80518dc467f743e975017a8ede627d62845c7935f0b10437c006c5473894",
      "blockHash": "0x8b10e5fbc09565acf51ab8f6ec9cd71e11436417f9f806a2d5e195116808400f",
      "blockNumber": 83059,
      "transactionIndex": 0,
      "confirmations": null,
      "from": "0xb2169f1326FE9745321aD99563654089bAdf09eb",
      "gasPrice": {
        "_hex": "0xba43b7400"
      },
      "gasLimit": {
        "_hex": "0x5208"
      },
      "to": "0xC47Aaa860008be6f65B58c6C6E02a84e666EfE31",
      "value": {
        "_hex": "0x56ba01c42c64b6000"
      },
      "nonce": 9,
      "data": "0x",
      "r": "0x538e5d5b7efdfc8444221534d6c2740e8de6202d00241fde2a28ab1ac9cfcf29",
      "s": "0x7353ebb6a240d55c8b6592916a16105a58c829756cbf9656fa47a1192b4cc7d0",
      "v": 27,
      "creates": null,
      "raw": "0xf86d09850ba43b740082520894c47aaa860008be6f65b58c6c6e02a84e666efe3189056ba01c42c64b6000801ba0538e5d5b7efdfc8444221534d6c2740e8de6202d00241fde2a28ab1ac9cfcf29a07353ebb6a240d55c8b6592916a16105a58c829756cbf9656fa47a1192b4cc7d0",
      "networkId": 0,
      "chainId": 0
    }
  ]
}