{
  "hash": "0xd601bd9088e81ab1b03175d7f63c45c91e0211faa71ae5f591730cee2124f168",
  "parentHash": "0x103bfec761bdf59047863f21284af97fe832e29a333607c3b9dfb20f3a2b648d",
  "number": 115824,
  "timestamp": 1440064049,
  "nonce": "0x35881f7d2610e59d",
  "difficulty": 4553636345630,
  "gasLimit": {
    "_hex": "0x2fefd8"
  },
  "gasUsed": {
    "_hex": "0x5208"
  },
  "miner": "0x007f7f58D3eb5b7510A301eCC749FC1fCDDBE14D",
  "extraData": "0x476574682f76312e302e312f77696e646f77732f676f312e342e32",
  "transactions": [
    {
      "hash": "0x4d338f56dc3ddacc2bbc52f58664fdc16a642f0c423b14c795f64f00b59c46bc",
      "blockHash": "0xd601bd9088e81ab1b03175d7f63c45c91e0211faa71ae5f591730cee2124f168",
      "blockNumber": 115824,
      "transactionIndex": 0,
      "confirmations": null,
      "from": "0x890Fe11f3c24dB8732D6C2e772E2297c7E65F139",
      "gasPrice": {
        "_hex": "0xd58c01fd5"
      },
      "gasLimit": {
        "_hex": "0x15f90"
      },
      "to": "0x45E19D9F052b9c35AC8385094C9fff6f1C544794",
      "value": {
        "_hex": "0x2386f26fc10000"
      },
      "nonce": 1,
      "data": "0x",
      "r": "0x5a51fd4fbfa7146ce494b7db2d498645030f70f8e02c74ef9fea921b8f9ecc7b",
      "s": "0x5475bd23347122a39bbe56429a7ab3ce7b025bc4ff9c042dbbcdb992d189b11a",
      "v": 27,
      "creates": null,
      "raw": "0xf86c01850d58c01fd583015f909445e19d9f052b9c35ac8385094c9fff6f1c544794872386f26fc10000801ba05a51fd4fbfa7146ce494b7db2d498645030f70f8e02c74ef9fea921b8f9ecc7ba05475bd23347122a39bbe56429a7ab3ce7b025bc4ff9c042dbbcdb992d189b11a",
      "networkId": 0,
      "chainId": 0
    }
  ]
}