{
  "hash": "0xe0df5a92d404fd41bbefdfad61376354c1259874f7ce10fae6901771471a57cf",
  "parentHash": "0x788a5d1b6a0f1c97de8ad5833bb0627d7511d5185ebd94f377828b0634860f2b",
  "number": 69483,
  "timestamp": 1439304892,
  "nonce": "0xb7a2732088af3fe2",
  "difficulty": 2060833437013,
  "gasLimit": {
    "_hex": "0x2fefd8"
  },
  "gasUsed": {
    "_hex": "0x5208"
  },
  "miner": "0xf927a40C8B7F6E07c5af7FA2155B4864a4112B13",
  "extraData": "0x",
  "transactions": [
    {
      "hash": "0xdf85c80aa1d7c5af0a3edcde84bdb5ac29a7799ccebdf700c57fdd8341414b2a",
      "blockHash": "0xe0df5a92d404fd41bbefdfad61376354c1259874f7ce10fae6901771471a57cf",
      "blockNumber": 69483,
      "transactionIndex": 0,
      "confirmations": null,
      "from": "0x120A270bbC009644e35F0bB6ab13f95b8199c4ad",
      "gasPrice": {
        "_hex": "0xdd31be6e9"
      },
      "gasLimit": {
        "_hex": "0x15f90"
      },
      "to": "0x63116ca569ba01384f4B68C196f4745cf45C7d11",
      "value": {
        "_hex": "0x2a5164a93cffd9ec00"
      },
      "nonce": 178,
      "data": "0x",
      "r": "0xbb9a1c37381b85fc1204ef14664af93b8eedc4790125c80e0b29e38c95ea9ffc",
      "s": "0x3309c9951b8f71cc83f01f6015e73acb00c3a5ccfea15863e021a7aca972b7cd",
      "v": 28,
      "creates": null,
      "raw": "0xf86f81b2850dd31be6e983015f909463116ca569ba01384f4b68c196f4745cf45c7d11892a5164a93cffd9ec00801ca0bb9a1c37381b85fc1204ef14664af93b8eedc4790125c80e0b29e38c95ea9ffca03309c9951b8f71cc83f01f6015e73acb00c3a5ccfea15863e021a7aca972b7cd",
      "networkId": 0,
      "chainId": 0
    }
  ]
}