{
  "hash": "0xc9ec50f2190dc8e8dca509c3ef06ab68ae7a1c579dbcd00036c9d77f7628e79f",
  "parentHash": "0xa2fb35171b84d9d3db28791d847d6b15e0319e480cb260e1bd8e634ff6d6525f",
  "number": 68866,
  "timestamp": 1439294898,
  "nonce": "0x0e161b673d32c35f",
  "difficulty": 2020135324231,
  "gasLimit": {
    "_hex": "0x2fefd8"
  },
  "gasUsed": {
    "_hex": "0xa410"
  },
  "miner": "0xC79E0c02B728239f002efa8bFd81089407b06dD6",
  "extraData": "0x476574682f76312e302e312f6c696e75782f676f312e342e32",
  "transactions": [
    {
      "hash": "0x7c083e196ea7a0012e37a6b205272a5f0b1a1ddadb2ce0f6a17b0c82d27c7a4e",
      "blockHash": "0xc9ec50f2190dc8e8dca509c3ef06ab68ae7a1c579dbcd00036c9d77f7628e79f",
      "blockNumber": 68866,
      "transactionIndex": 0,
      "confirmations": null,
      "from": "0x0D81FD2bB264D9Ee0F432599b443ae1B691f6134",
      "gasPrice": {
        "_hex": "0xd555bf3f2"
      },
      "gasLimit": {
        "_hex": "0x5208"
      },
      "to": "0x32Be343B94f860124dC4fEe278FDCBD38C102D88",
      "value": {
        "_hex": "0x455f4bc023257000"
      },
      "nonce": 0,
      "data": "0x",
      "r": "0x7207b2577aeb78a33162c4d23c7dfc81c7c769643e17d3aef640989fad878d57",
      "s": "0x1ffe2b63e21a010ab72305be3a5ab5d8ada65aef628bbe772a1ba3844ffa5199",
      "v": 28,
      "creates": null,
      "raw": "0xf86c80850d555bf3f28252089432be343b94f860124dc4fee278fdcbd38c102d8888455f4bc023257000801ca07207b2577aeb78a33162c4d23c7dfc81c7c769643e17d3aef640989fad878d57a01ffe2b63e21a010ab72305be3a5ab5d8ada65aef628bbe772a1ba3844ffa5199",
      "networkId": 0,
      "chainId": 0
    },
    {
      "hash": "0x370c90ee9925ba7b53babae6e5185d793479f4e4d7a1c7609e98009debaf8b43",
      "blockHash": "0xc9ec50f2190dc8e8dca509c3ef06ab68ae7a1c579dbcd00036c9d77f7628e79f",
      "blockNumber": 68866,
      "transactionIndex": 1,
      "confirmations": null,
      "from": "0x2910543Af39abA0Cd09dBb2D50200b3E800A63D2",
      "gasPrice": {
        "_hex": "0xd5006a2d6"
      },
      "gasLimit": {
        "_hex": "0x5208"
      },
      "to": "0x9789Efa70E6Fb22C4f6f7409571dbD1Aee9713EB",
      "value": {
        "_hex": "0x8ab55f8b52078000"
      },
      "nonce": 219,
      "data": "0x",
      "r": "0xeba1e4a04aa6b71bea6a4ecc8e77cdd736c4fb49216ca87b7cd174f484439b86",
      "s": "0x0fed2efe0a04355f4133a4e01c0585db84a6fdb5aa720b3a30307de106ad43dd",
      "v": 28,
      "creates": null,
      "raw": "0xf86d81db850d5006a2d6825208949789efa70e6fb22c4f6f7409571dbd1aee9713eb888ab55f8b52078000801ca0eba1e4a04aa6b71bea6a4ecc8e77cdd736c4fb49216ca87b7cd174f484439b86a00fed2efe0a04355f4133a4e01c0585db84a6fdb5aa720b3a30307de106ad43dd",
      "networkId": 0,
      "chainId": 0
    }
  ]
}