{
  "hash": "0xffc8f9635981232eacc6b6e4ce5d28c40bee8bd3cdb2b73b26bca218a2e7ba19",
  "parentHash": "0xac53528e4b0bfb22e5a25652e3c00986c8e9d5496e25a629666afe3c39137eba",
  "number": 48843,
  "timestamp": 1438963876,
  "nonce": "0x6c50626a244f3893",
  "difficulty": 1482218105655,
  "gasLimit": {
    "_hex": "0x1f476"
  },
  "gasUsed": {
    "_hex": "0xa410"
  },
  "miner": "0xf927a40C8B7F6E07c5af7FA2155B4864a4112B13",
  "extraData": "0x",
  "transactions": [
    {
      "hash": "0x6a81908a473bfd4010f1c3d91af434d54defe74ae43b585a2ad988ff1f81eb3b",
      "blockHash": "0xffc8f9635981232eacc6b6e4ce5d28c40bee8bd3cdb2b73b26bca218a2e7ba19",
      "blockNumber": 48843,
      "transactionIndex": 0,
      "confirmations": null,
      "from": "0x77028E409cC43A3Bd33D21A9Fc53eC606E94910E",
      "gasPrice": {
        "_hex": "0x10db0db47e1"
      },
      "gasLimit": {
        "_hex": "0x15f90"
      },
      "to": "0xD1CCb40781EC460bfA996eC6e834f1A3074aC3a5",
      "value": {
        "_hex": "0x1b1ae4d6e2ef500000"
      },
      "nonce": 2,
      "data": "0x",
      "r": "0x8d41aadeb9ec28b52151781850d1c92a7c900d12d32e0ca6b00545464737a0a4",
      "s": "0x41458444e939571395f3ab33f0b9a79ae2acddf6abc80e67acaf90af41751043",
      "v": 28,
      "creates": null,
      "raw": "0xf86f0286010db0db47e183015f9094d1ccb40781ec460bfa996ec6e834f1a3074ac3a5891b1ae4d6e2ef500000801ca08d41aadeb9ec28b52151781850d1c92a7c900d12d32e0ca6b00545464737a0a4a041458444e939571395f3ab33f0b9a79ae2acddf6abc80e67acaf90af41751043",
      "networkId": 0,
      "chainId": 0
    },
    {
      "hash": "0x942322f3224b262a0070962c83de1b26ebf0c1e4e3c9bff27753caaaed6b53ee",
      "blockHash": "0xffc8f9635981232eacc6b6e4ce5d28c40bee8bd3cdb2b73b26bca218a2e7ba19",
      "blockNumber": 48843,
      "transactionIndex": 1,
      "confirmations": null,
      "from": "0xeC210EC3715d5918B37CFa4D344a45d177eD849f",
      "gasPrice": {
        "_hex": "0xdd417f268"
      },
      "gasLimit": {
        "_hex": "0x5208"
      },
      "to": "0x32Be343B94f860124dC4fEe278FDCBD38C102D88",
      "value": {
        "_hex": "0x56bc2efcf5dddc000"
      },
      "nonce": 1,
      "data": "0x",
      "r": "0xe3525a570bcbd00d3ef2787720f26e8f5a52828d3f1dac8528a1d3ff8c108848",
      "s": "0x7efbdd0ce890aa0cc4a3ed796d2d2deef42465679028c5df6daca786c6874556",
      "v": 27,
      "creates": null,
      "raw": "0xf86d01850dd417f2688252089432be343b94f860124dc4fee278fdcbd38c102d8889056bc2efcf5dddc000801ba0e3525a570bcbd00d3ef2787720f26e8f5a52828d3f1dac8528a1d3ff8c108848a07efbdd0ce890aa0cc4a3ed796d2d2deef42465679028c5df6daca786c6874556",
      "networkId": 0,
      "chainId": 0
    }
  ]
}