{
  "hash": "0xdb101739de75b0fb8e9611c9a19ea322fff259b71b98be04dc825af4025c7e9b",
  "parentHash": "0xf341e81076d6dfe800c28db1284e6dc257b32f9f8441ca231aa46af1b0a4959e",
  "number": 59821,
  "timestamp": 1439144288,
  "nonce": "0xb4cb1bce3d2d15df",
  "difficulty": 1718832154757,
  "gasLimit": {
    "_hex": "0x2fefd8"
  },
  "gasUsed": {
    "_hex": "0xf618"
  },
  "miner": "0xf927a40C8B7F6E07c5af7FA2155B4864a4112B13",
  "extraData": "0x476574682f76312e302e312f6c696e75782f676f312e342e32",
  "transactions": [
    {
      "hash": "0xd448fa433a21a80cee80b536f38733edb0b0da9b5351e4c268e99f516147809a",
      "blockHash": "0xdb101739de75b0fb8e9611c9a19ea322fff259b71b98be04dc825af4025c7e9b",
      "blockNumber": 59821,
      "transactionIndex": 0,
      "confirmations": null,
      "from": "0x27e806e70622d2864e1B1f4426D72FFb0457C83a",
      "gasPrice": {
        "_hex": "0xce13bdd6c"
      },
      "gasLimit": {
        "_hex": "0x5208"
      },
      "to": "0x32Be343B94f860124dC4fEe278FDCBD38C102D88",
      "value": {
        "_hex": "0x480274f3887cfc00"
      },
      "nonce": 3,
      "data": "0x",
      "r": "0x286fc6fd919794018e7bb6121d9eb2a07a468100c83b936fd3c595a8d4cbf524",
      "s": "0x67888514725210791efbf4ae5971905da117b0aaab8ce188b35f977292766ef9",
      "v": 27,
      "creates": null,
      "raw": "0xf86c03850ce13bdd6c8252089432be343b94f860124dc4fee278fdcbd38c102d8888480274f3887cfc00801ba0286fc6fd919794018e7bb6121d9eb2a07a468100c83b936fd3c595a8d4cbf524a067888514725210791efbf4ae5971905da117b0aaab8ce188b35f977292766ef9",
      "networkId": 0,
      "chainId": 0
    },
    {
      "hash": "0xc7d7266c3ec95fe80e088de6774d1c678830da5c98564bc9f5054c124f952b6f",
      "blockHash": "0xdb101739de75b0fb8e9611c9a19ea322fff259b71b98be04dc825af4025c7e9b",
      "blockNumber": 59821,
      "transactionIndex": 1,
      "confirmations": null,
      "from": "0xa9f5E7bf6Cbf6fEc55B30850Eb492b47A376d050",
      "gasPrice": {
        "_hex": "0xce13bdd6c"
      },
      "gasLimit": {
        "_hex": "0x5208"
      },
      "to": "0x32Be343B94f860124dC4fEe278FDCBD38C102D88",
      "value": {
        "_hex": "0x1d99418a9dfb7e0000"
      },
      "nonce": 5,
      "data": "0x",
      "r": "0x58e5881eb081e49769f7c3f680abc7c41ff8c21b79fd92843d38d23cc478afb1",
      "s": "0x20217e6759398fb5aed78952bd396ed3b8ac287881fffc7e33cb0461dbed9679",
      "v": 28,
      "creates": null,
      "raw": "0xf86d05850ce13bdd6c8252089432be343b94f860124dc4fee278fdcbd38c102d88891d99418a9dfb7e0000801ca058e5881eb081e49769f7c3f680abc7c41ff8c21b79fd92843d38d23cc478afb1a020217e6759398fb5aed78952bd396ed3b8ac287881fffc7e33cb0461dbed9679",
      "networkId": 0,
      "chainId": 0
    },
    {
      "hash": "0x3d5c04033dd1bae708aee318ba5e54ba3766fb13eab4381273f4325ddaf543ab",
      "blockHash": "0xdb101739de75b0fb8e9611c9a19ea322fff259b71b98be04dc825af4025c7e9b",
      "blockNumber": 59821,
      "transactionIndex": 2,
      "confirmations": null,
      "from": "0x9Fd0F678538d8c5b8b2D6cD6feFd48f27218965C",
      "gasPrice": {
        "_hex": "0xce13bdd6c"
      },
      "gasLimit": {
        "_hex": "0x5208"
      },
      "to": "0x32Be343B94f860124dC4fEe278FDCBD38C102D88",
      "value": {
        "_hex": "0x12c701fbe136b0000"
      },
      "nonce": 1,
      "data": "0x",
      "r": "0xeb0394f040239e7414ff4954a3bc5f7c4346b371ee432cf6a2b5094972e158f5",
      "s": "0x78cc048c0cef21580d594ff0022f100d91952bc5adcaf030c6fe79f7523cd805",
      "v": 27,
      "creates": null,
      "raw": "0xf86d01850ce13bdd6c8252089432be343b94f860124dc4fee278fdcbd38c102d8889012c701fbe136b0000801ba0eb0394f040239e7414ff4954a3bc5f7c4346b371ee432cf6a2b5094972e158f5a078cc048c0cef21580d594ff0022f100d91952bc5adcaf030c6fe79f7523cd805",
      "networkId": 0,
      "chainId": 0
    }
  ]
}