{
  "hash": "0x81dcef4314bde0adf8166d889a511b8f34f20738f99b10cd7f44b67be1869c74",
  "parentHash": "0x7556a83269d42e234c1950b88116af5e8496a09c302c2eb6c5e08ebb8cfc0ac4",
  "number": 105021,
  "timestamp": 1439880262,
  "nonce": "0xb332cd0d010a7ea9",
  "difficulty": 4314744639635,
  "gasLimit": {
    "_hex": "0x2fefd8"
  },
  "gasUsed": {
    "_hex": "0x5208"
  },
  "miner": "0x790b8a3cE86E707ED0eD32bF89B3269692a23CC1",
  "extraData": "0xd783010001844765746887676f312e342e32856c696e7578",
  "transactions": [
    {
      "hash": "0x58973fa736ce712d3aedcde42b7160222b5d6e6d212accf75721f553419bf291",
      "blockHash": "0x81dcef4314bde0adf8166d889a511b8f34f20738f99b10cd7f44b67be1869c74",
      "blockNumber": 105021,
      "transactionIndex": 0,
      "confirmations": null,
      "from": "0xa70a9a7040d542C632D8e0bE7c5513A8a5Bbc752",
      "gasPrice": {
        "_hex": "0xd88fb6bf8"
      },
      "gasLimit": {
        "_hex": "0x5208"
      },
      "to": "0x32Be343B94f860124dC4fEe278FDCBD38C102D88",
      "value": {
        "_hex": "0x455f3b34f2a86400"
      },
      "nonce": 240,
      "data": "0x",
      "r": "0x5056fbc8222457a1ff5b649d25e35ffbad96bfb60273ca16b373f85dc783a237",
      "s": "0x5720c2f95593831187257cea0753e638b3197e2ebaeddd13fae7c78ef05237f0",
      "v": 28,
      "creates": null,
      "raw": "0xf86d81f0850d88fb6bf88252089432be343b94f860124dc4fee278fdcbd38c102d8888455f3b34f2a86400801ca05056fbc8222457a1ff5b649d25e35ffbad96bfb60273ca16b373f85dc783a237a05720c2f95593831187257cea0753e638b3197e2ebaeddd13fae7c78ef05237f0",
      "networkId": 0,
      "chainId": 0
    }
  ]
}