{
  "hash": "0x3995a3f0868e1e6dcd9a60821d39ace633d8d0935eb58baa05078d84a8b51fe7",
  "parentHash": "0x4f04d402ae12ca43b3bd94de77af1137cdfd0f21962234b8d2319802dac9313d",
  "number": 72115,
  "timestamp": 1439347552,
  "nonce": "0x962cedb5e6f9267b",
  "difficulty": 2167507689236,
  "gasLimit": {
    "_hex": "0x2fefd8"
  },
  "gasUsed": {
    "_hex": "0x5208"
  },
  "miner": "0xF6e1652a0397E078f434d6DDa181b218CFd42e09",
  "extraData": "0x476574682f76312e302e312f6c696e75782f676f312e342e32",
  "transactions": [
    {
      "hash": "0x573e868ba513c4cb5e43eb507cfe08911d464f80a0aa9a4efd2f2c97e63a944d",
      "blockHash": "0x3995a3f0868e1e6dcd9a60821d39ace633d8d0935eb58baa05078d84a8b51fe7",
      "blockNumber": 72115,
      "transactionIndex": 0,
      "confirmations": null,
      "from": "0x2910543Af39abA0Cd09dBb2D50200b3E800A63D2",
      "gasPrice": {
        "_hex": "0xd1426f9f2"
      },
      "gasLimit": {
        "_hex": "0x5208"
      },
      "to": "0xF96ffEd8e5116236F560026Ae3658EE0f4eBd622",
      "value": {
        "_hex": "0x1c1e3e57eae8bce000"
      },
      "nonce": 278,
      "data": "0x",
      "r": "0x22cf7c188826525445c921c85d17e8e0fc30e5f49ab7feecea31b9e23312fa08",
      "s": "0x7e1ac410be641110d1a306812086129d1b4de6d7a1e158354d197a1b06f78be3",
      "v": 28,
      "creates": null,
      "raw": "0xf86f820116850d1426f9f282520894f96ffed8e5116236f560026ae3658ee0f4ebd622891c1e3e57eae8bce000801ca022cf7c188826525445c921c85d17e8e0fc30e5f49ab7feecea31b9e23312fa08a07e1ac410be641110d1a306812086129d1b4de6d7a1e158354d197a1b06f78be3",
      "networkId": 0,
      "chainId": 0
    }
  ]
}