{
  "hash": "0x8443a74ccaf693abd044710b9bb1bf0c41b36662e7658ae121f14a860a8d784c",
  "parentHash": "0x643ca86821cc088ee968b0a83132d5b6e78487f823a30ee43283538c82648fb5",
  "number": 47680,
  "timestamp": 1438944641,
  "nonce": "0x69f69f3f0aa952f8",
  "difficulty": 1447376407129,
  "gasLimit": {
    "_hex": "0xe2e8"
  },
  "gasUsed": {
    "_hex": "0x5208"
  },
  "miner": "0xab84940B570d6358ed6A9Dbf7e0bc8Ec8F5A6E89",
  "extraData": "0x322831652933",
  "transactions": [
    {
      "hash": "0xe94784addabc738d77955e600962f9565e32a22158af96ae622a528455420f63",
      "blockHash": "0x8443a74ccaf693abd044710b9bb1bf0c41b36662e7658ae121f14a860a8d784c",
      "blockNumber": 47680,
      "transactionIndex": 0,
      "confirmations": null,
      "from": "0xe6A7a1d47ff21B6321162AEA7C6CB457D5476Bca",
      "gasPrice": {
        "_hex": "0xdc72d8df8"
      },
      "gasLimit": {
        "_hex": "0x55f0"
      },
      "to": "0x338f82f23454993F348164343Ab42acd09c1F18F",
      "value": {
        "_hex": "0x54d2d02677ec1298"
      },
      "nonce": 197,
      "data": "0x",
      "r": "0xd32e753e979631d732e271ef93c860a7ccf61c91e262e1b12ae20daa6bd197df",
      "s": "0x46d4f80e1720a6936da5598b83957c33b99957b0c9fc1638a026d5e7224de998",
      "v": 28,
      "creates": null,
      "raw": "0xf86d81c5850dc72d8df88255f094338f82f23454993f348164343ab42acd09c1f18f8854d2d02677ec1298801ca0d32e753e979631d732e271ef93c860a7ccf61c91e262e1b12ae20daa6bd197dfa046d4f80e1720a6936da5598b83957c33b99957b0c9fc1638a026d5e7224de998",
      "networkId": 0,
      "chainId": 0
    }
  ]
}