{
  "hash": "0x70e59638cba9ae66fb4b8ff369737c41c43b6cb7e531831c898f3fd3d42050f2",
  "parentHash": "0xf86e2a24ffd726809748077fd2bfcb766a601eec195120aad54d2fc74d640354",
  "number": 101235,
  "timestamp": 1439819610,
  "nonce": "0xe92c893dce991f5c",
  "difficulty": 3824377503801,
  "gasLimit": {
    "_hex": "0x2fefd8"
  },
  "gasUsed": {
    "_hex": "0x5208"
  },
  "miner": "0xe6A7a1d47ff21B6321162AEA7C6CB457D5476Bca",
  "extraData": "0x476574682f76312e302e312d38326566323666362f6c696e75782f676f312e34",
  "transactions": [
    {
      "hash": "0xf85d34193a837ca240270d258158b96148d9f0ab754ce51733074b658865ad96",
      "blockHash": "0x70e59638cba9ae66fb4b8ff369737c41c43b6cb7e531831c898f3fd3d42050f2",
      "blockNumber": 101235,
      "transactionIndex": 0,
      "confirmations": null,
      "from": "0x035052044374B3607Fc995a2460f096a5c5c0184",
      "gasPrice": {
        "_hex": "0xcc9328a61"
      },
      "gasLimit": {
        "_hex": "0x5208"
      },
      "to": "0x621733B1DcDa5b3f450D3f4231aC8342D3419f8f",
      "value": {
        "_hex": "0xd2f13f7789f0000"
      },
      "nonce": 3,
      "data": "0x",
      "r": "0xe0b47897a84e18935a77cc663f79eb6fbe7f58cdb99c01c65163355782023508",
      "s": "0x3c21596b65687e79e6dee1e21561754b2779db3f5be6dd278d05fee1a395de76",
      "v": 27,
      "creates": null,
      "raw": "0xf86c03850cc9328a6182520894621733b1dcda5b3f450d3f4231ac8342d3419f8f880d2f13f7789f0000801ba0e0b47897a84e18935a77cc663f79eb6fbe7f58cdb99c01c65163355782023508a03c21596b65687e79e6dee1e21561754b2779db3f5be6dd278d05fee1a395de76",
      "networkId": 0,
      "chainId": 0
    }
  ]
}