{
  "hash": "0xb50de2079ed51d35b1327021965437aba63d79a81fa134e247f0dfd9386d4969",
  "parentHash": "0xea4ae907dd7a204da4955a81b4b0e971487c0764ca3eef838fdfeb5127b1de88",
  "number": 55026,
  "timestamp": 1439064271,
  "nonce": "0x5b3aa87ebb57761e",
  "difficulty": 1621148182973,
  "gasLimit": {
    "_hex": "0x2fefd8"
  },
  "gasUsed": {
    "_hex": "0x5208"
  },
  "miner": "0xf8E0CA3Ed80bd541b94BEdCf259e8CF2141A9523",
  "extraData": "0x476574682f76312e302e312f77696e646f77732f676f312e342e32",
  "transactions": [
    {
      "hash": "0xe375c6329fb7e4222b7746481a6e5ab0533e2dc3d99b5c766922c187e151169b",
      "blockHash": "0xb50de2079ed51d35b1327021965437aba63d79a81fa134e247f0dfd9386d4969",
      "blockNumber": 55026,
      "transactionIndex": 0,
      "confirmations": null,
      "from": "0xE73aa111fd3Ebc226B09A83b591b7D5143CE7F34",
      "gasPrice": {
        "_hex": "0xcd7cbb34a"
      },
      "gasLimit": {
        "_hex": "0x15f90"
      },
      "to": "0x4476f1e8426c8Cde922185046Fca80a9f3aD1fb4",
      "value": {
        "_hex": "0x515e6bb46a05930000"
      },
      "nonce": 1,
      "data": "0x",
      "r": "0xa6d7c210723bd629e4b2982d4c3ea182da257e7a94c6cf8dd05698eff2204140",
      "s": "0x37f51d44e11c4c8fac3d3ee1f8e548b121da6b4b980d3f9d0873c7c68138ba1c",
      "v": 27,
      "creates": null,
      "raw": "0xf86e01850cd7cbb34a83015f90944476f1e8426c8cde922185046fca80a9f3ad1fb489515e6bb46a05930000801ba0a6d7c210723bd629e4b2982d4c3ea182da257e7a94c6cf8dd05698eff2204140a037f51d44e11c4c8fac3d3ee1f8e548b121da6b4b980d3f9d0873c7c68138ba1c",
      "networkId": 0,
      "chainId": 0
    }
  ]
}