{
  "hash": "0x835e9ed829105a692f60693a19fd67213059db5c69910d1ccd9f1178d28aa1d4",
  "parentHash": "0xff93786f67273d6a24a42cf60c2b54318c9d043c2f0159be0db893a3db6915a1",
  "number": 91154,
  "timestamp": 1439651264,
  "nonce": "0x4ab887b5e2146f3a",
  "difficulty": 3440661869168,
  "gasLimit": {
    "_hex": "0x2fefd8"
  },
  "gasUsed": {
    "_hex": "0xa410"
  },
  "miner": "0x5F8F73E26CdF436f19Cb24C82F90A15AFe55b592",
  "extraData": "0x476574682f76312e302e312f77696e646f77732f676f312e342e32",
  "transactions": [
    {
      "hash": "0xd97421b8f92048c8f28573614c4e081ddc7d4ed8f67529f6c0eea622405a8568",
      "blockHash": "0x835e9ed829105a692f60693a19fd67213059db5c69910d1ccd9f1178d28aa1d4",
      "blockNumber": 91154,
      "transactionIndex": 0,
      "confirmations": null,
      "from": "0xe3A29c590ae7Bf0D32A7121373bf5C94ADbeCa4a",
      "gasPrice": {
        "_hex": "0xccca0c706"
      },
      "gasLimit": {
        "_hex": "0x5208"
      },
      "to": "0x32Be343B94f860124dC4fEe278FDCBD38C102D88",
      "value": {
        "_hex": "0x20631c1e9de17a00000"
      },
      "nonce": 8,
      "data": "0x",
      "r": "0x05641142611670d7486d1513f9dc5c59ff219709b633afcd9e6884ccfe967e0d",
      "s": "0x48e42b3b9f57f8d899e019a6be50a7564c098794b0ceddc71b8187a655b79869",
      "v": 28,
      "creates": null,
      "raw": "0xf86e08850ccca0c7068252089432be343b94f860124dc4fee278fdcbd38c102d888a020631c1e9de17a00000801ca005641142611670d7486d1513f9dc5c59ff219709b633afcd9e6884ccfe967e0da048e42b3b9f57f8d899e019a6be50a7564c098794b0ceddc71b8187a655b79869",
      "networkId": 0,
      "chainId": 0
    },
    {
      "hash": "0x69a3a843475f48b880c05ed2250d70e138fd86d58d04ab0cdcf4a3a3b9bbdde3",
      "blockHash": "0x835e9ed829105a692f60693a19fd67213059db5c69910d1ccd9f1178d28aa1d4",
      "blockNumber": 91154,
      "transactionIndex": 1,
      "confirmations": null,
      "from": "0xdeE4977F74E6Aef6D627191c9A45D2627e331150",
      "gasPrice": {
        "_hex": "0xccca0c706"
      },
      "gasLimit": {
        "_hex": "0x5208"
      },
      "to": "0x32Be343B94f860124dC4fEe278FDCBD38C102D88",
      "value": {
        "_hex": "0xd026a579706f9000"
      },
      "nonce": 9,
      "data": "0x",
      "r": "0x2cc32229e5cb32720e7e618f4379b8e00183ceec7c970c46e03a50d7455080da",
      "s": "0x032076d357c627310ca73d141ce3af8ae4f95408dfb25759e7ae14d1d2a95797",
      "v": 28,
      "creates": null,
      "raw": "0xf86c09850ccca0c7068252089432be343b94f860124dc4fee278fdcbd38c102d8888d026a579706f9000801ca02cc32229e5cb32720e7e618f4379b8e00183ceec7c970c46e03a50d7455080daa0032076d357c627310ca73d141ce3af8ae4f95408dfb25759e7ae14d1d2a95797",
      "networkId": 0,
      "chainId": 0
    }
  ]
}