{
  "hash": "0xca05264b4d800982d9bb4c4f596cb228df15a1e00e9de4bfe785f93354b43986",
  "parentHash": "0x83b09d0207febcf0b94c6769ff10ddde361749bdbbc7c7dae540816e7b8d8621",
  "number": 63993,
  "timestamp": 1439213750,
  "nonce": "0x46ee54e87563e7d9",
  "difficulty": 1841321797973,
  "gasLimit": {
    "_hex": "0x2fefd8"
  },
  "gasUsed": {
    "_hex": "0xd13e"
  },
  "miner": "0x0eDEd3DA479d0beF8eeC92A76644D3f4E3C177f7",
  "extraData": "0x476574682f76312e302e312f6c696e75782f676f312e342e32",
  "transactions": [
    {
      "hash": "0x6db9bf29b2d67050ae6a489ed3eb2fec3dac45d1db978697b304e971fc7cbd52",
      "blockHash": "0xca05264b4d800982d9bb4c4f596cb228df15a1e00e9de4bfe785f93354b43986",
      "blockNumber": 63993,
      "transactionIndex": 0,
      "confirmations": null,
      "from": "0xc70bA22fe446A85A247bf85BaD1AdDf3ddaF62E9",
      "gasPrice": {
        "_hex": "0xcf78b778d"
      },
      "gasLimit": {
        "_hex": "0x15f90"
      },
      "to": "0x7320f8461BbC8104c677FeC0429cC0d963a5Ac40",
      "value": {
        "_hex": "0x0"
      },
      "nonce": 24,
      "data": "0x0a3b0a4f00000000000000000000000073c8b87d1cd7f1fc41d33096d1a150b2d457bfeb",
      "r": "0x7af32e9f06211568d318d7f61baaab591180b74e0ce0f49e0c189abde07e0635",
      "s": "0x185df66d6449c3a178f6b58bb398122484e409858cfeaf2b1808857cda7cda3b",
      "v": 27,
      "creates": null,
      "raw": "0xf88918850cf78b778d83015f90947320f8461bbc8104c677fec0429cc0d963a5ac4080a40a3b0a4f00000000000000000000000073c8b87d1cd7f1fc41d33096d1a150b2d457bfeb1ba07af32e9f06211568d318d7f61baaab591180b74e0ce0f49e0c189abde07e0635a0185df66d6449c3a178f6b58bb398122484e409858cfeaf2b1808857cda7cda3b",
      "networkId": 0,
      "chainId": 0
    }
  ]
}