{
  "hash": "0xa5c9d3de98fd20403b847b2a191f51e348fc6472b7266bd8cefab3e903bb365b",
  "parentHash": "0xf3302769afd67c949b7b79587a4d217b4c81197a16cad10693500d3f3d8b14ad",
  "number": 47584,
  "timestamp": 1438943173,
  "nonce": "0xa8697a6e8bf5fd60",
  "difficulty": 1448807131340,
  "gasLimit": {
    "_hex": "0xd2a3"
  },
  "gasUsed": {
    "_hex": "0x546c"
  },
  "miner": "0xF2d2AfF1320476cb8C6b607199D23175cc595693",
  "extraData": "0x476574682f76312e302e312f77696e646f77732f676f312e342e32",
  "transactions": [
    {
      "hash": "0x83fd33bc1349ef70fa40508ed97e31757231bddc72f7d7df2e2af6e43784360f",
      "blockHash": "0xa5c9d3de98fd20403b847b2a191f51e348fc6472b7266bd8cefab3e903bb365b",
      "blockNumber": 47584,
      "transactionIndex": 0,
      "confirmations": null,
      "from": "0xa13CfE826d6D1841DcaE443BE8c387518136b5e8",
      "gasPrice": {
        "_hex": "0x110c8f7d8de"
      },
      "gasLimit": {
        "_hex": "0xc350"
      },
      "to": "0x2910543Af39abA0Cd09dBb2D50200b3E800A63D2",
      "value": {
        "_hex": "0x1b1ae4d6e2ef50000000"
      },
      "nonce": 3,
      "data": "0x454e30573343543030",
      "r": "0x0e68f71626d9d740cedd48b549f01737ff99b1de53bf349038405e750865a383",
      "s": "0x5a165ec89622cae12e5f00532b7f816492040bf58b5fc648015ad35f02f6ef76",
      "v": 28,
      "creates": null,
      "raw": "0xf87803860110c8f7d8de82c350942910543af39aba0cd09dbb2d50200b3e800a63d28a1b1ae4d6e2ef5000000089454e305733435430301ca00e68f71626d9d740cedd48b549f01737ff99b1de53bf349038405e750865a383a05a165ec89622cae12e5f00532b7f816492040bf58b5fc648015ad35f02f6ef76",
      "networkId": 0,
      "chainId": 0
    }
  ]
}