{
  "hash": "0x9bb842dfccdc0f075c82270748defd762055111b093bf3d4d31590382f1d8474",
  "parentHash": "0xb5c40b3591918500a531e27e239051767a05949222ab60425fa4aaafa69a6c69",
  "number": 48452,
  "timestamp": 1438957379,
  "nonce": "0x0e61daa74176eb9e",
  "difficulty": 1460019186036,
  "gasLimit": {
    "_hex": "0x177b4"
  },
  "gasUsed": {
    "_hex": "0x546c"
  },
  "miner": "0xf8E0CA3Ed80bd541b94BEdCf259e8CF2141A9523",
  "extraData": "0x476574682f76312e302e312f77696e646f77732f676f312e342e32",
  "transactions": [
    {
      "hash": "0x5082d5674e795e0d89355d76211e0c437490b9dc6a26161e81428e21ed3cafa0",
      "blockHash": "0x9bb842dfccdc0f075c82270748defd762055111b093bf3d4d31590382f1d8474",
      "blockNumber": 48452,
      "transactionIndex": 0,
      "confirmations": null,
      "from": "0x8B7780A94a7F4d3fE19fcBB9494Fd04dEBc2035E",
      "gasPrice": {
        "_hex": "0xd02c8b966"
      },
      "gasLimit": {
        "_hex": "0x15f90"
      },
      "to": "0x2910543Af39abA0Cd09dBb2D50200b3E800A63D2",
      "value": {
        "_hex": "0x19274b259f6540000"
      },
      "nonce": 0,
      "data": "0x454e324b3536505238",
      "r": "0x9a546f23f732065d9ba8ab4992713469c04451f7c7da967b359806439eb1de2e",
      "s": "0x338a9ed02487507cd3f879dc9dd687b6c3057a97eeb1ccdb34e9c402bb220801",
      "v": 28,
      "creates": null,
      "raw": "0xf87780850d02c8b96683015f90942910543af39aba0cd09dbb2d50200b3e800a63d289019274b259f654000089454e324b35365052381ca09a546f23f732065d9ba8ab4992713469c04451f7c7da967b359806439eb1de2ea0338a9ed02487507cd3f879dc9dd687b6c3057a97eeb1ccdb34e9c402bb220801",
      "networkId": 0,
      "chainId": 0
    }
  ]
}