{
  "hash": "0xf73ca0233e8800a7d318efd0ffff0a616fc7dec5991d4f9ac3286898b6899f47",
  "parentHash": "0xb20357ed9b2eeaddfb06bd63b973129907d837248908f7954f07859f41c2c115",
  "number": 51266,
  "timestamp": 1439002065,
  "nonce": "0xee32e82ce3edf8c5",
  "difficulty": 1568907869017,
  "gasLimit": {
    "_hex": "0x9f3ce"
  },
  "gasUsed": {
    "_hex": "0x13005"
  },
  "miner": "0xe6A7a1d47ff21B6321162AEA7C6CB457D5476Bca",
  "extraData": "0x657468706f6f6c2e6f7267",
  "transactions": [
    {
      "hash": "0x0f908fb825a4bd4285e7b9349a1d7fc7c8273d3d534f330784a67428f9f2232e",
      "blockHash": "0xf73ca0233e8800a7d318efd0ffff0a616fc7dec5991d4f9ac3286898b6899f47",
      "blockNumber": 51266,
      "transactionIndex": 0,
      "confirmations": null,
      "from": "0xC555B93156F09101233c6f7CF6eB3c4F196D3346",
      "gasPrice": {
        "_hex": "0xe728da358"
      },
      "gasLimit": {
        "_hex": "0x15f90"
      },
      "to": "0x36DeE907a4DA9858CE11CDDd63FAAF89EF610d71",
      "value": {
        "_hex": "0x1b1ae4d6e2ef500000"
      },
      "nonce": 5,
      "data": "0x",
      "r": "0x05d831393ceca48a9f1311aabf2305ce05060b0ae2523d12181677ec57ba488f",
      "s": "0x2b60a8c6c0be62e027b8b880367a46485e19373aba67ab311c15e39738b61b9a",
      "v": 28,
      "creates": null,
      "raw": "0xf86e05850e728da35883015f909436dee907a4da9858ce11cddd63faaf89ef610d71891b1ae4d6e2ef500000801ca005d831393ceca48a9f1311aabf2305ce05060b0ae2523d12181677ec57ba488fa02b60a8c6c0be62e027b8b880367a46485e19373aba67ab311c15e39738b61b9a",
      "networkId": 0,
      "chainId": 0
    },
    {
      "hash": "0x7574f50a2cfd0a8ac1a6bc68c158283c846f70e3d1bb9d853143f08f59976fb0",
      "blockHash": "0xf73ca0233e8800a7d318efd0ffff0a616fc7dec5991d4f9ac3286898b6899f47",
      "blockNumber": 51266,
      "transactionIndex": 1,
      "confirmations": null,
      "from": "0xc8ebccC5F5689Fa8659d83713341e5aD19349448",
      "gasPrice": {
        "_hex": "0xdd5f02904"
      },
      "gasLimit": {
        "_hex": "0x7a120"
      },
      "to": "0xA327075af2a223A1C83a36aDa1126afE7430f955",
      "value": {
        "_hex": "0x8ac7230489e80000"
      },
      "nonce": 12,
      "data": "0x",
      "r": "0x3bb758c9fa4d9d898a66c34f3a65cf78777e0307f6e161769fac0ff4298dc39a",
      "s": "0x0bbf27157edd3b9b34a5f524c5bca337c7c25522b1b9c5278192f551af5f1847",
      "v": 27,
      "creates": null,
      "raw": "0xf86d0c850dd5f029048307a12094a327075af2a223a1c83a36ada1126afe7430f955888ac7230489e80000801ba03bb758c9fa4d9d898a66c34f3a65cf78777e0307f6e161769fac0ff4298dc39aa00bbf27157edd3b9b34a5f524c5bca337c7c25522b1b9c5278192f551af5f1847",
      "networkId": 0,
      "chainId": 0
    }
  ]
}