{
  "hash": "0x0592245b823bfbf4d9249de35b4343b53c9acb61973f61a78832d114a16497cd",
  "parentHash": "0x91e99a9affcd9864af17132d824efc0647bcdfa452dabbe72c3038954479c1c4",
  "number": 121525,
  "timestamp": 1440178311,
  "nonce": "0xf11b3c345881e946",
  "difficulty": 4464706720711,
  "gasLimit": {
    "_hex": "0x2fefd8"
  },
  "gasUsed": {
    "_hex": "0x5208"
  },
  "miner": "0xe6A7a1d47ff21B6321162AEA7C6CB457D5476Bca",
  "extraData": "0xd783010002844765746887676f312e342e32856c696e7578",
  "transactions": [
    {
      "hash": "0x99abeb4c963fe631977c2b6ff98d32e38bfebd8975c2305bec87ffc7001e0650",
      "blockHash": "0x0592245b823bfbf4d9249de35b4343b53c9acb61973f61a78832d114a16497cd",
      "blockNumber": 121525,
      "transactionIndex": 0,
      "confirmations": null,
      "from": "0x120A270bbC009644e35F0bB6ab13f95b8199c4ad",
      "gasPrice": {
        "_hex": "0xba43b7400"
      },
      "gasLimit": {
        "_hex": "0x15f90"
      },
      "to": "0xfC0096B21e95aCB8D619D176a4a1d8D529badBEF",
      "value": {
        "_hex": "0x13a5edb1c3a1204000"
      },
      "nonce": 981,
      "data": "0x",
      "r": "0x96cbf41c0a4e294ea3918a51b523e287ff20d3e8f129dbb10e2ad4c60891bd35",
      "s": "0x0291d57c7c1a2a0e8097ceb6381628d1f0845b3a4fc576cabed138a6879342c4",
      "v": 28,
      "creates": null,
      "raw": "0xf8708203d5850ba43b740083015f9094fc0096b21e95acb8d619d176a4a1d8d529badbef8913a5edb1c3a1204000801ca096cbf41c0a4e294ea3918a51b523e287ff20d3e8f129dbb10e2ad4c60891bd35a00291d57c7c1a2a0e8097ceb6381628d1f0845b3a4fc576cabed138a6879342c4",
      "networkId": 0,
      "chainId": 0
    }
  ]
}