{
  "hash": "0x9505788d89c29a4874794aa19f0b6b2e00d065e560570975bbd9b4502e2e8ea0",
  "parentHash": "0x8c167b904ff3886ae281f0571a30744460c52b937430bea2eb333106ca8427de",
  "number": 111253,
  "timestamp": 1439987203,
  "nonce": "0xd73de6f29c451127",
  "difficulty": 4396577873392,
  "gasLimit": {
    "_hex": "0x2fefd8"
  },
  "gasUsed": {
    "_hex": "0xa410"
  },
  "miner": "0xe6A7a1d47ff21B6321162AEA7C6CB457D5476Bca",
  "extraData": "0x476574682f76312e302e312d38326566323666362f6c696e75782f676f312e34",
  "transactions": [
    {
      "hash": "0xb92c04c895e9eb57931fdf00661d7045e101454c9b6d313716f1aee7f62e6301",
      "blockHash": "0x9505788d89c29a4874794aa19f0b6b2e00d065e560570975bbd9b4502e2e8ea0",
      "blockNumber": 111253,
      "transactionIndex": 0,
      "confirmations": null,
      "from": "0xe3d915EdA3B825D6ee4AF9328D32Ac18ada35497",
      "gasPrice": {
        "_hex": "0xe007359d3"
      },
      "gasLimit": {
        "_hex": "0x15f90"
      },
      "to": "0x79204D7826f5d18687B4bB92dF98b98218Ab38B9",
      "value": {
        "_hex": "0xde0b6b3a7640000"
      },
      "nonce": 2,
      "data": "0x",
      "r": "0x0064b486756f63239f5016eb999e74de5bd0f910b00fce98289e7e91129d5fd5",
      "s": "0x4a18ce751ebdd09acefe0a6da3a052856581f7cbed5f5783a867a3d32d23a9ff",
      "v": 28,
      "creates": null,
      "raw": "0xf86c02850e007359d383015f909479204d7826f5d18687b4bb92df98b98218ab38b9880de0b6b3a7640000801c9f64b486756f63239f5016eb999e74de5bd0f910b00fce98289e7e91129d5fd5a04a18ce751ebdd09acefe0a6da3a052856581f7cbed5f5783a867a3d32d23a9ff",
      "networkId": 0,
      "chainId": 0
    },
    {
      "hash": "0xd11009fb67bc6400cb1732654d85f7a10a48393412e5b6a2cfec39399689564b",
      "blockHash": "0x9505788d89c29a4874794aa19f0b6b2e00d065e560570975bbd9b4502e2e8ea0",
      "blockNumber": 111253,
      "transactionIndex": 1,
      "confirmations": null,
      "from": "0xEF247E639d49461D25F57e9362CadE3120910Ce0",
      "gasPrice": {
        "_hex": "0xd2811d3a2"
      },
      "gasLimit": {
        "_hex": "0x15f90"
      },
      "to": "0xF87481A262E993a75F791E7859E71BaC36A606Eb",
      "value": {
        "_hex": "0x8ac7230489e80000"
      },
      "nonce": 45,
      "data": "0x",
      "r": "0x803efaa353cae8d4b26bcf49834e98034d90b070cdb35d85d8dcd4b706789c5f",
      "s": "0x5614553b61cd346cf9461341e95735d485439a7ffc3b61b31a581ea08575fc48",
      "v": 28,
      "creates": null,
      "raw": "0xf86d2d850d2811d3a283015f9094f87481a262e993a75f791e7859e71bac36a606eb888ac7230489e80000801ca0803efaa353cae8d4b26bcf49834e98034d90b070cdb35d85d8dcd4b706789c5fa05614553b61cd346cf9461341e95735d485439a7ffc3b61b31a581ea08575fc48",
      "networkId": 0,
      "chainId": 0
    }
  ]
}