{
  "hash": "0xc4cca5cd6817bb273357a481fd0c7a01af83d21cfd8e15960ab434ebad9f8774",
  "parentHash": "0xc662fe7abd1e15de1f15b894b053bf335546c203a0bff5fad560b9306e7e9e82",
  "number": 85234,
  "timestamp": 1439560443,
  "nonce": "0x458fd20a36c77db0",
  "difficulty": 2753125317818,
  "gasLimit": {
    "_hex": "0x2fefd8"
  },
  "gasUsed": {
    "_hex": "0x5208"
  },
  "miner": "0xe6A7a1d47ff21B6321162AEA7C6CB457D5476Bca",
  "extraData": "0x476574682f76312e302e312d38326566323666362f6c696e75782f676f312e34",
  "transactions": [
    {
      "hash": "0x598db6db2e1dce065b9f9bcda4a6ab47959be23380d7fe020c80be3b5074a6e3",
      "blockHash": "0xc4cca5cd6817bb273357a481fd0c7a01af83d21cfd8e15960ab434ebad9f8774",
      "blockNumber": 85234,
      "transactionIndex": 0,
      "confirmations": null,
      "from": "0xE53Fe5B196a315dE96297181E99F6c22a9313fd3",
      "gasPrice": {
        "_hex": "0xcf69b9f26"
      },
      "gasLimit": {
        "_hex": "0x15f90"
      },
      "to": "0xCDA330c8160f0c90B8B528C6Db267acc17381818",
      "value": {
        "_hex": "0xfe84c4d49caa0000"
      },
      "nonce": 0,
      "data": "0x",
      "r": "0x58df2ab7176721ce520d6cd09b76164009b8a02b3b9a9f6e017a78b84aaf736c",
      "s": "0x1f7f92549b4ddf7e99e8d633a2545a6fb0d1f1297d33e62a665cd594ea841fb8",
      "v": 27,
      "creates": null,
      "raw": "0xf86d80850cf69b9f2683015f9094cda330c8160f0c90b8b528c6db267acc1738181888fe84c4d49caa0000801ba058df2ab7176721ce520d6cd09b76164009b8a02b3b9a9f6e017a78b84aaf736ca01f7f92549b4ddf7e99e8d633a2545a6fb0d1f1297d33e62a665cd594ea841fb8",
      "networkId": 0,
      "chainId": 0
    }
  ]
}