{
  "hash": "0x3bf5d1565228fa4b5adf81ec4b04b03b5b96df1793292782c98f5ad291ee7938",
  "parentHash": "0xbf1becd8358f0e06cefed9f8f0a0c4524358d2eb2e2fddc0abb6598052636112",
  "number": 60659,
  "timestamp": 1439159547,
  "nonce": "0xfd63510d5623f4f5",
  "difficulty": 1730449361076,
  "gasLimit": {
    "_hex": "0x2fefd8"
  },
  "gasUsed": {
    "_hex": "0x5208"
  },
  "miner": "0x9746c7e1ef2bd21FF3997fa467593a89cb852BD0",
  "extraData": "0x476574682f76312e302e312f77696e646f77732f676f312e342e32",
  "transactions": [
    {
      "hash": "0xb9fde49085a014b37a1e8fe9d4d37d4b719efc4586047b1c0b18fe3136985187",
      "blockHash": "0x3bf5d1565228fa4b5adf81ec4b04b03b5b96df1793292782c98f5ad291ee7938",
      "blockNumber": 60659,
      "transactionIndex": 0,
      "confirmations": null,
      "from": "0xD31D16701B62A3065BA1Edb26fC367A77B18Ab72",
      "gasPrice": {
        "_hex": "0xdd3bb3888"
      },
      "gasLimit": {
        "_hex": "0x5208"
      },
      "to": "0x32Be343B94f860124dC4fEe278FDCBD38C102D88",
      "value": {
        "_hex": "0xb4530a5e4b449000"
      },
      "nonce": 0,
      "data": "0x",
      "r": "0xd93105f05547201c44679930ee2ca9efd4f1853dfa03685421a73a15d1bd9a2f",
      "s": "0x7ea8dee4ceed46f31c186deb295f363ba2c2c488475147bc9a39ccffc13c520b",
      "v": 27,
      "creates": null,
      "raw": "0xf86c80850dd3bb38888252089432be343b94f860124dc4fee278fdcbd38c102d8888b4530a5e4b449000801ba0d93105f05547201c44679930ee2ca9efd4f1853dfa03685421a73a15d1bd9a2fa07ea8dee4ceed46f31c186deb295f363ba2c2c488475147bc9a39ccffc13c520b",
      "networkId": 0,
      "chainId": 0
    }
  ]
}