{
  "hash": "0xf78bb338cdb5473748a7794c08978284eba0b6bece6c1f68c270ef89bf9bb38c",
  "parentHash": "0xa997c4cc82498091bbd080ad8b9145b28d082b9e97968b4850d1979b22e4a83c",
  "number": 116277,
  "timestamp": 1440071324,
  "nonce": "0xd38ee480eb61ab44",
  "difficulty": 4591344454734,
  "gasLimit": {
    "_hex": "0x2fefd8"
  },
  "gasUsed": {
    "_hex": "0x5208"
  },
  "miner": "0xf927a40C8B7F6E07c5af7FA2155B4864a4112B13",
  "extraData": "0x",
  "transactions": [
    {
      "hash": "0x8599c10a3b86e55534a3c0538db302b2f40e1bc6744d6e9bb0daa368befb7b2d",
      "blockHash": "0xf78bb338cdb5473748a7794c08978284eba0b6bece6c1f68c270ef89bf9bb38c",
      "blockNumber": 116277,
      "transactionIndex": 0,
      "confirmations": null,
      "from": "0x51c6a5F0248d9a4f7CA205080e2BA8b0962Fd8ea",
      "gasPrice": {
        "_hex": "0xdf4381208"
      },
      "gasLimit": {
        "_hex": "0x15f90"
      },
      "to": "0x12F599032e12008E8d73200271eb5Fc3847bf8B0",
      "value": {
        "_hex": "0x2386f26fc10000"
      },
      "nonce": 3,
      "data": "0x",
      "r": "0x316ebde68799f6f452a48c45707bab981e3d7e10e4aa63c955ac418c05a056a1",
      "s": "0x18c3dc5a1568ca80544dd69264753b8b219101e23bdb8298582c9af7e42c3773",
      "v": 28,
      "creates": null,
      "raw": "0xf86c03850df438120883015f909412f599032e12008e8d73200271eb5fc3847bf8b0872386f26fc10000801ca0316ebde68799f6f452a48c45707bab981e3d7e10e4aa63c955ac418c05a056a1a018c3dc5a1568ca80544dd69264753b8b219101e23bdb8298582c9af7e42c3773",
      "networkId": 0,
      "chainId": 0
    }
  ]
}