{
  "hash": "0x3191dae75142958862de587ceb64f414d75e810fd9579472df8284b97f1b1dc0",
  "parentHash": "0xffbe7ba6ba5ef94b61c7b337ce3abc67c84aae31e5f543707f5a0d9c19a86b3d",
  "number": 75605,
  "timestamp": 1439406232,
  "nonce": "0x1aa3b89ef0f1dc0e",
  "difficulty": 2222321930009,
  "gasLimit": {
    "_hex": "0x2fefd8"
  },
  "gasUsed": {
    "_hex": "0xad77"
  },
  "miner": "0xf8E0CA3Ed80bd541b94BEdCf259e8CF2141A9523",
  "extraData": "0x476574682f76312e302e312f77696e646f77732f676f312e342e32",
  "transactions": [
    {
      "hash": "0x4c032cc02eff734a6ed23c558b7cd679a9862df048915f2354297f41c88f2502",
      "blockHash": "0x3191dae75142958862de587ceb64f414d75e810fd9579472df8284b97f1b1dc0",
      "blockNumber": 75605,
      "transactionIndex": 0,
      "confirmations": null,
      "from": "0x87C5B5874A18B4306DF8a752a6C8cc3E82daFc19",
      "gasPrice": {
        "_hex": "0x1114371644c"
      },
      "gasLimit": {
        "_hex": "0x493e0"
      },
      "to": "0xD79B4C6791784184e2755B2fC1659eaaB0f80456",
      "value": {
        "_hex": "0x0"
      },
      "nonce": 56,
      "data": "0x03750d94000000000000000000000000e1237d552429cc333ffd3038fc3ba3441d0b7dde3263343065636461303436336633616200000000000000000000000000000000",
      "r": "0xa930459b71c740caecbde83936447bb39ec9533d1152d61a855dae79919a88a5",
      "s": "0x763d99e493e44a31bed2ed4eaafe4a2cb07b2e4bc18f8fa65e0daf619d46fae7",
      "v": 28,
      "creates": null,
      "raw": "0xf8ab388601114371644c830493e094d79b4c6791784184e2755b2fc1659eaab0f8045680b84403750d94000000000000000000000000e1237d552429cc333ffd3038fc3ba3441d0b7dde32633430656364613034363366336162000000000000000000000000000000001ca0a930459b71c740caecbde83936447bb39ec9533d1152d61a855dae79919a88a5a0763d99e493e44a31bed2ed4eaafe4a2cb07b2e4bc18f8fa65e0daf619d46fae7",
      "networkId": 0,
      "chainId": 0
    }
  ]
}