{
  "hash": "0x5aac377cd439de5787a46678e6f7a4c5d51779f92ae9f6d3db6c79eb96160f0c",
  "parentHash": "0xcc5ef843b07f4922d63e874aa89c4e8b26aa95a42522ed1a3373b2ce3c7f8831",
  "number": 112847,
  "timestamp": 1440014179,
  "nonce": "0x1047d988430d1dfd",
  "difficulty": 4430218755265,
  "gasLimit": {
    "_hex": "0x2fefd8"
  },
  "gasUsed": {
    "_hex": "0x5d0d"
  },
  "miner": "0x007f7f58D3eb5b7510A301eCC749FC1fCDDBE14D",
  "extraData": "0x476574682f76312e302e312f77696e646f77732f676f312e342e32",
  "transactions": [
    {
      "hash": "0x114ba56cb2798159f11d0104ef58cabe996a3f17763e6a794f817e08641b5e25",
      "blockHash": "0x5aac377cd439de5787a46678e6f7a4c5d51779f92ae9f6d3db6c79eb96160f0c",
      "blockNumber": 112847,
      "transactionIndex": 0,
      "confirmations": null,
      "from": "0xd268fB48FA174088a25a120aFF0fd8eb0C2d4c87",
      "gasPrice": {
        "_hex": "0x14e3a27081"
      },
      "gasLimit": {
        "_hex": "0x1d8a8"
      },
      "to": "0x3C7771db7F343B79003e8c9BA787BBE47764ed05",
      "value": {
        "_hex": "0x0"
      },
      "nonce": 16,
      "data": "0xb61d27f6000000000000000000000000d268fb48fa174088a25a120aff0fd8eb0c2d4c8700000000000000000000000000000000000000000000001b1ae4d6e2ef500000000000000000000000000000000000000000000000000000000000000000006000000000000000000000000000000000000000000000000000000000000000000000000000000000000000000000000000000000000000000000000000000000",
      "r": "0xa4cd101b10718dd3df7c0d3371fd52834e4d63bb7890e7ad6e9d056adb894927",
      "s": "0x514dfbae6183fdb20998dacb788bcc0b4a7823458ef114e4ebf1f3fe14417872",
      "v": 27,
      "creates": null,
      "raw": "0xf9010a108514e3a270818301d8a8943c7771db7f343b79003e8c9ba787bbe47764ed0580b8a4b61d27f6000000000000000000000000d268fb48fa174088a25a120aff0fd8eb0c2d4c8700000000000000000000000000000000000000000000001b1ae4d6e2ef5000000000000000000000000000000000000000000000000000000000000000000060000000000000000000000000000000000000000000000000000000000000000000000000000000000000000000000000000000000000000000000000000000001ba0a4cd101b10718dd3df7c0d3371fd52834e4d63bb7890e7ad6e9d056adb894927a0514dfbae6183fdb20998dacb788bcc0b4a7823458ef114e4ebf1f3fe14417872",
      "networkId": 0,
      "chainId": 0
    }
  ]
}