{
  "hash": "0x0f9637715ce35dc3e52052c2d2f8b3d400cd2735ee28ebd6584a8c1d48d61828",
  "parentHash": "0xd2137875c103958489eb52d4cf093eedd88e3d34e3a86dda27b79d7f5bede2d4",
  "number": 116476,
  "timestamp": 1440074836,
  "nonce": "0x78f4be4116880379",
  "difficulty": 4566641685780,
  "gasLimit": {
    "_hex": "0x2fefd8"
  },
  "gasUsed": {
    "_hex": "0x5208"
  },
  "miner": "0xbb7B8287f3F0a933474a79eAe42CBCa977791171",
  "extraData": "0x476574682f4c5649562f76312e302e312f6c696e75782f676f312e342e32",
  "transactions": [
    {
      "hash": "0x8cca6f81675f5428828f78a707c726f1f48aa60fd739470578dfc3c86aa6f009",
      "blockHash": "0x0f9637715ce35dc3e52052c2d2f8b3d400cd2735ee28ebd6584a8c1d48d61828",
      "blockNumber": 116476,
      "transactionIndex": 0,
      "confirmations": null,
      "from": "0x02020D22dCF88f5eDd66B382D7da019F161fB7e3",
      "gasPrice": {
        "_hex": "0xd9fd62047"
      },
      "gasLimit": {
        "_hex": "0x15f90"
      },
      "to": "0xCDA330c8160f0c90B8B528C6Db267acc17381818",
      "value": {
        "_hex": "0x16345785d8a0000"
      },
      "nonce": 41,
      "data": "0x",
      "r": "0x2b2ed97762e9c1788c7b8c6bf12486348f5555729f7291fb5f275f2e0da19b32",
      "s": "0x23286b4394cbcb6af54bc06f05e8986670279f4efa43e5a24f91bd81a493f273",
      "v": 27,
      "creates": null,
      "raw": "0xf86d29850d9fd6204783015f9094cda330c8160f0c90b8b528c6db267acc1738181888016345785d8a0000801ba02b2ed97762e9c1788c7b8c6bf12486348f5555729f7291fb5f275f2e0da19b32a023286b4394cbcb6af54bc06f05e8986670279f4efa43e5a24f91bd81a493f273",
      "networkId": 0,
      "chainId": 0
    }
  ]
}