{
  "hash": "0x4cfd727851a3f36f38c410ee2bebe1fa7b61fa742a4552e1197863173731b1f3",
  "parentHash": "0x30424ff94958bae40a55f119dc8ce504534146b0a34aad36f4b0f70d42005869",
  "number": 70871,
  "timestamp": 1439326665,
  "nonce": "0x1ade511711a21afb",
  "difficulty": 2155164162390,
  "gasLimit": {
    "_hex": "0x2fefd8"
  },
  "gasUsed": {
    "_hex": "0xf618"
  },
  "miner": "0xe6A7a1d47ff21B6321162AEA7C6CB457D5476Bca",
  "extraData": "0x476574682f76312e302e312d38326566323666362f6c696e75782f676f312e34",
  "transactions": [
    {
      "hash": "0xb4fe37773b8c4d8f13b44b60567a9092e9e04700e51fe4bf279617038fbf7162",
      "blockHash": "0x4cfd727851a3f36f38c410ee2bebe1fa7b61fa742a4552e1197863173731b1f3",
      "blockNumber": 70871,
      "transactionIndex": 0,
      "confirmations": null,
      "from": "0xfE439e496730A23d448f85fA219972ea04793aB7",
      "gasPrice": {
        "_hex": "0xd5a85b884"
      },
      "gasLimit": {
        "_hex": "0x5208"
      },
      "to": "0x32Be343B94f860124dC4fEe278FDCBD38C102D88",
      "value": {
        "_hex": "0x1166c0d9a698280000"
      },
      "nonce": 2,
      "data": "0x",
      "r": "0x109f1c9c5886716cb3913c64d23eeffc1ff504a6a81b2131f4616d29b4666c87",
      "s": "0x097d6be5a5acc0f42f4a219c726c6a8ae1afc8faa91997c45a7006ee671b7dc6",
      "v": 28,
      "creates": null,
      "raw": "0xf86d02850d5a85b8848252089432be343b94f860124dc4fee278fdcbd38c102d88891166c0d9a698280000801ca0109f1c9c5886716cb3913c64d23eeffc1ff504a6a81b2131f4616d29b4666c87a0097d6be5a5acc0f42f4a219c726c6a8ae1afc8faa91997c45a7006ee671b7dc6",
      "networkId": 0,
      "chainId": 0
    },
    {
      "hash": "0xd8250fed7c4ad34bec43520bef8ed7c6ac3db662333853d83cdc206757bde5d2",
      "blockHash": "0x4cfd727851a3f36f38c410ee2bebe1fa7b61fa742a4552e1197863173731b1f3",
      "blockNumber": 70871,
      "transactionIndex": 1,
      "confirmations": null,
      "from": "0xabceA603089850F8f6bB612A9031554D90A247CF",
      "gasPrice": {
        "_hex": "0xd5a85b884"
      },
      "gasLimit": {
        "_hex": "0x5208"
      },
      "to": "0x32Be343B94f860124dC4fEe278FDCBD38C102D88",
      "value": {
        "_hex": "0x1314b6c0680556000"
      },
      "nonce": 3,
      "data": "0x",
      "r": "0x4049f3a93ec26641ebd71c5e42397e568a622787add3364a3b74ff9aeaf7d1ff",
      "s": "0x50bb5fd5d11b15c09731cde11f193a8e0916e68de4fa1197a493fe05ae9da64a",
      "v": 28,
      "creates": null,
      "raw": "0xf86d03850d5a85b8848252089432be343b94f860124dc4fee278fdcbd38c102d888901314b6c0680556000801ca04049f3a93ec26641ebd71c5e42397e568a622787add3364a3b74ff9aeaf7d1ffa050bb5fd5d11b15c09731cde11f193a8e0916e68de4fa1197a493fe05ae9da64a",
      "networkId": 0,
      "chainId": 0
    },
    {
      "hash": "0x7bbbe4a2a7a9a366102efeefaee35ca9d2300e024504128e4c1c20c9840a5ab2",
      "blockHash": "0x4cfd727851a3f36f38c410ee2bebe1fa7b61fa742a4552e1197863173731b1f3",
      "blockNumber": 70871,
      "transactionIndex": 2,
      "confirmations": null,
      "from": "0xb6c00721Fbd69a851EE6456d71C429fBd8f0d022",
      "gasPrice": {
        "_hex": "0xd5a85b884"
      },
      "gasLimit": {
        "_hex": "0x5208"
      },
      "to": "0x32Be343B94f860124dC4fEe278FDCBD38C102D88",
      "value": {
        "_hex": "0xb6c0f5cf09a25800"
      },
      "nonce": 4,
      "data": "0x",
      "r": "0xb6f533d03fd22f8251f559a84e7abe62161fdfc62fa2a29409e15265780a79cc",
      "s": "0x332f74ecc00fbe39c0367ac218ab4e37413e473fd42118634e27b8b8a68aa2b2",
      "v": 27,
      "creates": null,
      "raw": "0xf86c04850d5a85b8848252089432be343b94f860124dc4fee278fdcbd38c102d8888b6c0f5cf09a25800801ba0b6f533d03fd22f8251f559a84e7abe62161fdfc62fa2a29409e15265780a79cca0332f74ecc00fbe39c0367ac218ab4e37413e473fd42118634e27b8b8a68aa2b2",
      "networkId": 0,
      "chainId": 0
    }
  ]
}