{
  "hash": "0x0301172c79f2783d9ce380bfca4857b1148755cc341ce17d66db6ee5d028b98a",
  "parentHash": "0xacbf8de0e36e73acfef5951af636ce1cef039fb902c4d8565b8b36166309b8ce",
  "number": 76152,
  "timestamp": 1439415701,
  "nonce": "0x36c20c82455429c2",
  "difficulty": 2236327503352,
  "gasLimit": {
    "_hex": "0x2fefd8"
  },
  "gasUsed": {
    "_hex": "0x5208"
  },
  "miner": "0x93641e54c9aA6F9038FE7Adb03629a1747326Cd6",
  "extraData": "0x476574682f76312e302e312f77696e646f77732f676f312e342e32",
  "transactions": [
    {
      "hash": "0x7d7af1c1139b53bd54a1b8c7b5046c783a48bc1265ef4b1230d463bb9791d875",
      "blockHash": "0x0301172c79f2783d9ce380bfca4857b1148755cc341ce17d66db6ee5d028b98a",
      "blockNumber": 76152,
      "transactionIndex": 0,
      "confirmations": null,
      "from": "0xd5A85B42F59351D806582F791600EA3e99811121",
      "gasPrice": {
        "_hex": "0x10dc90d85e7"
      },
      "gasLimit": {
        "_hex": "0x15f90"
      },
      "to": "0x2739bB08fe7115bfb78cE99961E453A83eCc6adB",
      "value": {
        "_hex": "0x64"
      },
      "nonce": 1,
      "data": "0x",
      "r": "0xc4d0a035ffaaab8b467f8c818cb5693bca271de4a8d5c41d7005a01647aaad75",
      "s": "0x6cc8c3f1077d1e7edea6d007fe3b0121fd8f8b19fe1431d419eef06d8b387d97",
      "v": 28,
      "creates": null,
      "raw": "0xf8660186010dc90d85e783015f90942739bb08fe7115bfb78ce99961e453a83ecc6adb64801ca0c4d0a035ffaaab8b467f8c818cb5693bca271de4a8d5c41d7005a01647aaad75a06cc8c3f1077d1e7edea6d007fe3b0121fd8f8b19fe1431d419eef06d8b387d97",
      "networkId": 0,
      "chainId": 0
    }
  ]
}