{
  "hash": "0xfa9246e9340ce0cea00b628fe51cdf3d6163602243acaf056f2e8126b86f1ef3",
  "parentHash": "0xe22fccdffef24966384f015726ea7118787ee6f94902037f45fb7b1fd402d11a",
  "number": 69411,
  "timestamp": 1439303836,
  "nonce": "0x71309f09b8b83501",
  "difficulty": 2050812902260,
  "gasLimit": {
    "_hex": "0x2fefd8"
  },
  "gasUsed": {
    "_hex": "0x5208"
  },
  "miner": "0xc8ebccC5F5689Fa8659d83713341e5aD19349448",
  "extraData": "0x476574682f76312e302e312f6c696e75782f676f312e342e32",
  "transactions": [
    {
      "hash": "0x8a6870e867b4669015748227d8f08f963439cca93a775497bbfa11e3d8d8562d",
      "blockHash": "0xfa9246e9340ce0cea00b628fe51cdf3d6163602243acaf056f2e8126b86f1ef3",
      "blockNumber": 69411,
      "transactionIndex": 0,
      "confirmations": null,
      "from": "0x2910543Af39abA0Cd09dBb2D50200b3E800A63D2",
      "gasPrice": {
        "_hex": "0xdb4115e33"
      },
      "gasLimit": {
        "_hex": "0x5208"
      },
      "to": "0x0cA19A53a3256482A89770FC1daFC7630717F201",
      "value": {
        "_hex": "0xdcef33a6f838000"
      },
      "nonce": 224,
      "data": "0x",
      "r": "0x23aef3db1a292449990c941ae7407b9a34a5b7c3817d709f994fda211c38bf52",
      "s": "0x5867dd9609c97010cc29231671453b05c769d7222f7c95b9ebec83ce645852c9",
      "v": 27,
      "creates": null,
      "raw": "0xf86d81e0850db4115e33825208940ca19a53a3256482a89770fc1dafc7630717f201880dcef33a6f838000801ba023aef3db1a292449990c941ae7407b9a34a5b7c3817d709f994fda211c38bf52a05867dd9609c97010cc29231671453b05c769d7222f7c95b9ebec83ce645852c9",
      "networkId": 0,
      "chainId": 0
    }
  ]
}