{
  "hash": "0x37859cde268a339b6e4e0320cfd49244e869bf5662e64c5965f8c8a99133ece7",
  "parentHash": "0x11449799f2dc5f653082c1eec061fd6cb8008a1198af55aaefc6feee8e8904a0",
  "number": 89984,
  "timestamp": 1439632014,
  "nonce": "0xc17c2ba77a3d565f",
  "difficulty": 3364712066640,
  "gasLimit": {
    "_hex": "0x2fefd8"
  },
  "gasUsed": {
    "_hex": "0x29c23"
  },
  "miner": "0xA21Ba94e45f0E168dA824fC67aC9cb5Cb577a8aF",
  "extraData": "0x",
  "transactions": [
    {
      "hash": "0xf2351deb313b417c73e050b798c11443ab70bef72d0f9fff566e4580ef568870",
      "blockHash": "0x37859cde268a339b6e4e0320cfd49244e869bf5662e64c5965f8c8a99133ece7",
      "blockNumber": 89984,
      "transactionIndex": 0,
      "confirmations": null,
      "from": "0x063dD253C8da4EA9b12105781C9611b8297F5d14",
      "gasPrice": {
        "_hex": "0xdbf374033"
      },
      "gasLimit": {
        "_hex": "0x493e0"
      },
      "to": "0xde0B295669a9FD93d5F28D9Ec85E40f4cb697BAe",
      "value": {
        "_hex": "0x0"
      },
      "nonce": 5,
      "data": "0xb61d27f6000000000000000000000000b2d7e6cd1b25f591e2e630ba65dac638e6cd4c8e000000000000000000000000000000000000000000028ec0ae1a01431f780000000000000000000000000000000000000000000000000000000000000000006000000000000000000000000000000000000000000000000000000000000000000000000000000000000000000000000000000000000000000000000000000000",
      "r": "0xb377e04f77fcb4f4f0c7a524eadf5e1ac1689cfcb48373a7d1f6fb1afeea6367",
      "s": "0x2cb4597ec375ac4cecfbdd11541baa029ff7a190f5738cb3f1caf5500645f4d6",
      "v": 28,
      "creates": null,
      "raw": "0xf9010a05850dbf374033830493e094de0b295669a9fd93d5f28d9ec85e40f4cb697bae80b8a4b61d27f6000000000000000000000000b2d7e6cd1b25f591e2e630ba65dac638e6cd4c8e000000000000000000000000000000000000000000028ec0ae1a01431f7800000000000000000000000000000000000000000000000000000000000000000060000000000000000000000000000000000000000000000000000000000000000000000000000000000000000000000000000000000000000000000000000000001ca0b377e04f77fcb4f4f0c7a524eadf5e1ac1689cfcb48373a7d1f6fb1afeea6367a02cb4597ec375ac4cecfbdd11541baa029ff7a190f5738cb3f1caf5500645f4d6",
      "networkId": 0,
      "chainId": 0
    }
  ]
}