{
  "hash": "0xd98dda89b36bbfa8cd9e64a1c0b853832740d67e6113fac4f0e093cc724ae786",
  "parentHash": "0x37d593a7f8c95135b5409e2a97c28a95428e226f79171e15100373aa9d8053f1",
  "number": 65512,
  "timestamp": 1439238252,
  "nonce": "0x25a7f1b3d578d22e",
  "difficulty": 1953035129436,
  "gasLimit": {
    "_hex": "0x2fefd8"
  },
  "gasUsed": {
    "_hex": "0x1820d"
  },
  "miner": "0x785ffdDd5cE55c6DF963f345e68d3F2024E5Acb1",
  "extraData": "0x457468657265756d20474f212121212121",
  "transactions": [
    {
      "hash": "0xdac867cf9753a46496ac1d890975b82260e28523c345b8e1cdc37d73cbdd7292",
      "blockHash": "0xd98dda89b36bbfa8cd9e64a1c0b853832740d67e6113fac4f0e093cc724ae786",
      "blockNumber": 65512,
      "transactionIndex": 0,
      "confirmations": null,
      "from": "0x32Be343B94f860124dC4fEe278FDCBD38C102D88",
      "gasPrice": {
        "_hex": "0xd96b426c3"
      },
      "gasLimit": {
        "_hex": "0x5208"
      },
      "to": "0xa5CEEf50b1DD9bF1b9183e9493Fe6A6aa5Cc1678",
      "value": {
        "_hex": "0x56bc75e2d63100000"
      },
      "nonce": 188,
      "data": "0x",
      "r": "0xa027935b3fb022c585c45a5d9b5c8b7f7177aa7063b74a2d7c182be00fce1399",
      "s": "0x1bdc31dba67e6898faa0960534cd9f40c19ff8dcd8e8de7371b0f86d4ff502e7",
      "v": 27,
      "creates": null,
      "raw": "0xf86e81bc850d96b426c382520894a5ceef50b1dd9bf1b9183e9493fe6a6aa5cc167889056bc75e2d63100000801ba0a027935b3fb022c585c45a5d9b5c8b7f7177aa7063b74a2d7c182be00fce1399a01bdc31dba67e6898faa0960534cd9f40c19ff8dcd8e8de7371b0f86d4ff502e7",
      "networkId": 0,
      "chainId": 0
    },
    {
      "hash": "0xf1f3af927f5b6f7f5b4707613db7d2efe0beba3ef69a7b1da51b6ec7949b0ac2",
      "blockHash": "0xd98dda89b36bbfa8cd9e64a1c0b853832740d67e6113fac4f0e093cc724ae786",
      "blockNumber": 65512,
      "transactionIndex": 1,
      "confirmations": null,
      "from": "0xE9b9F4aC8114911e13f659915F9A10661F6B5CB1",
      "gasPrice": {
        "_hex": "0xd738c788e"
      },
      "gasLimit": {
        "_hex": "0x15f90"
      },
      "to": "0xc597A5d92F5dC1137D847db733cfe02c6d209f13",
      "value": {
        "_hex": "0x2386f26fc10000"
      },
      "nonce": 2,
      "data": "0x",
      "r": "0x7e58ee15aeb2cfc98a08478dbb8a206937f506f8d27dfa5a95120384604c8dbc",
      "s": "0x426977e04a384c9b8c5aa60ad7d7026227dc5d415b0637e309ebea0dd4674633",
      "v": 28,
      "creates": null,
      "raw": "0xf86c02850d738c788e83015f9094c597a5d92f5dc1137d847db733cfe02c6d209f13872386f26fc10000801ca07e58ee15aeb2cfc98a08478dbb8a206937f506f8d27dfa5a95120384604c8dbca0426977e04a384c9b8c5aa60ad7d7026227dc5d415b0637e309ebea0dd4674633",
      "networkId": 0,
      "chainId": 0
    },
    {
      "hash": "0xbcd38bd1f7207082305db3738355e30ed72b4c592cadf295ef0cf873e45fde61",
      "blockHash": "0xd98dda89b36bbfa8cd9e64a1c0b853832740d67e6113fac4f0e093cc724ae786",
      "blockNumber": 65512,
      "transactionIndex": 2,
      "confirmations": null,
      "from": "0xd2731F6A25bC94eD032b33085b23fC37f6A554a6",
      "gasPrice": {
        "_hex": "0xd73868745"
      },
      "gasLimit": {
        "_hex": "0x7a120"
      },
      "to": "0xBAA54d6E90c3F4d7Ebec11bD180134C7eD8eBb52",
      "value": {
        "_hex": "0x16345785d8a0000"
      },
      "nonce": 1,
      "data": "0x",
      "r": "0xd15590bdb8d4aa032ec219af8e83ba519d8bdfa2f01492b307c661b5f31c4ef0",
      "s": "0x43f2b3e41d739e523426cbaf71e113653167dbca2f3057196864a4ba9d311cd8",
      "v": 28,
      "creates": null,
      "raw": "0xf86d01850d738687458307a12094baa54d6e90c3f4d7ebec11bd180134c7ed8ebb5288016345785d8a0000801ca0d15590bdb8d4aa032ec219af8e83ba519d8bdfa2f01492b307c661b5f31c4ef0a043f2b3e41d739e523426cbaf71e113653167dbca2f3057196864a4ba9d311cd8",
      "networkId": 0,
      "chainId": 0
    }
  ]
}