{
  "hash": "0x6399012930c2be0f1f74da2fb75d4d0b9c226610454704eab2aab19da1263c52",
  "parentHash": "0xa534db834b4e8e575d7c434b86295756084ce0be4cf19168de27ea9dc062d751",
  "number": 75916,
  "timestamp": 1439411785,
  "nonce": "0x99b1cc2048662b14",
  "difficulty": 2227671559078,
  "gasLimit": {
    "_hex": "0x2fefd8"
  },
  "gasUsed": {
    "_hex": "0xa410"
  },
  "miner": "0xeB1325C8D9d3ea8D74aC11F4B00F1B2367686319",
  "extraData": "0x476574682f76312e302e312f77696e646f77732f676f312e342e32",
  "transactions": [
    {
      "hash": "0x2966aab53240dac4c1561f988840c3be69ee95acb8451a3385be58b2a3374f73",
      "blockHash": "0x6399012930c2be0f1f74da2fb75d4d0b9c226610454704eab2aab19da1263c52",
      "blockNumber": 75916,
      "transactionIndex": 0,
      "confirmations": null,
      "from": "0x120A270bbC009644e35F0bB6ab13f95b8199c4ad",
      "gasPrice": {
        "_hex": "0xe128823e1"
      },
      "gasLimit": {
        "_hex": "0x15f90"
      },
      "to": "0x366F9C25dCaF576CC9CEF686DA70C1785113F05d",
      "value": {
        "_hex": "0x1812ccc4c349fe8800"
      },
      "nonce": 300,
      "data": "0x",
      "r": "0xe4f97b775c45ac430797051f2a7f6149a2bc26150556c2ad8dbf63be10b94e41",
      "s": "0x0245569cc18e29fe1d8840cd3608c9d00120b39c882a4260025379f064cbbede",
      "v": 28,
      "creates": null,
      "raw": "0xf87082012c850e128823e183015f9094366f9c25dcaf576cc9cef686da70c1785113f05d891812ccc4c349fe8800801ca0e4f97b775c45ac430797051f2a7f6149a2bc26150556c2ad8dbf63be10b94e41a00245569cc18e29fe1d8840cd3608c9d00120b39c882a4260025379f064cbbede",
      "networkId": 0,
      "chainId": 0
    },
    {
      "hash": "0xc4e8454edce3a4d0a97eb68365b6a4e07febbcdde8605a7025d4b2d094b2449e",
      "blockHash": "0x6399012930c2be0f1f74da2fb75d4d0b9c226610454704eab2aab19da1263c52",
      "blockNumber": 75916,
      "transactionIndex": 1,
      "confirmations": null,
      "from": "0x2910543Af39abA0Cd09dBb2D50200b3E800A63D2",
      "gasPrice": {
        "_hex": "0xd7f88cb69"
      },
      "gasLimit": {
        "_hex": "0x5208"
      },
      "to": "0x3c3Ca5A5a214208bFCA6b54F57A41b10f5fbe873",
      "value": {
        "_hex": "0xba7a7ad685d1b8000"
      },
      "nonce": 317,
      "data": "0x",
      "r": "0xadc86240499f073f4f21d8871a1b84094b6693190f254b88da5e00a3adb5fc6f",
      "s": "0x0760b7585b365303e3fc47a31e22100eaaab612fbbcac740bbb48c8840f15878",
      "v": 28,
      "creates": null,
      "raw": "0xf86f82013d850d7f88cb69825208943c3ca5a5a214208bfca6b54f57a41b10f5fbe873890ba7a7ad685d1b8000801ca0adc86240499f073f4f21d8871a1b84094b6693190f254b88da5e00a3adb5fc6fa00760b7585b365303e3fc47a31e22100eaaab612fbbcac740bbb48c8840f15878",
      "networkId": 0,
      "chainId": 0
    }
  ]
}