{
  "hash": "0x924b35c69ba78fbb4362c93a92fdc89098ac3bedcab1f0365c847f4197085276",
  "parentHash": "0xe157a374b144216ddd2eeb133647c94371442cfb8aa50deab9d42ea57b622639",
  "number": 49566,
  "timestamp": 1438975428,
  "nonce": "0x5229b376fc0f4b9a",
  "difficulty": 1481366860929,
  "gasLimit": {
    "_hex": "0x35933"
  },
  "gasUsed": {
    "_hex": "0x546c"
  },
  "miner": "0x70C6b45fe0A5116E97B112B806A76E2F51E24413",
  "extraData": "0x476574682f76312e302e302f77696e646f77732f676f312e342e32",
  "transactions": [
    {
      "hash": "0x41eff4361c536cd2be83a57cb6276a1d451b9484cacf510d563a08aed1337702",
      "blockHash": "0x924b35c69ba78fbb4362c93a92fdc89098ac3bedcab1f0365c847f4197085276",
      "blockNumber": 49566,
      "transactionIndex": 0,
      "confirmations": null,
      "from": "0x684A44C069339d08e19A75668bdbA303Be855332",
      "gasPrice": {
        "_hex": "0x110c8f7d8de"
      },
      "gasLimit": {
        "_hex": "0xc350"
      },
      "to": "0x2910543Af39abA0Cd09dBb2D50200b3E800A63D2",
      "value": {
        "_hex": "0x43c33c1937564800000"
      },
      "nonce": 0,
      "data": "0x454e3347514d323752",
      "r": "0x83e0761d8bfdbaf7d0fdc3fc67b309dbe1f4a29f64bba91ffac479516876af9c",
      "s": "0x7f8604dd7abe85ef9c7e4ab55fc3df12e5c5f118e212ce9e08e1482ead0ec3d6",
      "v": 28,
      "creates": null,
      "raw": "0xf87880860110c8f7d8de82c350942910543af39aba0cd09dbb2d50200b3e800a63d28a043c33c193756480000089454e3347514d3237521ca083e0761d8bfdbaf7d0fdc3fc67b309dbe1f4a29f64bba91ffac479516876af9ca07f8604dd7abe85ef9c7e4ab55fc3df12e5c5f118e212ce9e08e1482ead0ec3d6",
      "networkId": 0,
      "chainId": 0
    }
  ]
}