{
  "hash": "0x404edbaf238b0929bd9146f2dae9c3b145b39059565f37d95addebf154738d01",
  "parentHash": "0xb7ad26ac14eceffa0e589dbe7913ffedec90e904ffa1cceac3871d0fcbf0aa56",
  "number": 108119,
  "timestamp": 1439934379,
  "nonce": "0x6d2f0cbc75843830",
  "difficulty": 4376797407069,
  "gasLimit": {
    "_hex": "0x2fefd8"
  },
  "gasUsed": {
    "_hex": "0xa410"
  },
  "miner": "0xe6A7a1d47ff21B6321162AEA7C6CB457D5476Bca",
  "extraData": "0x476574682f76312e302e312d38326566323666362f6c696e75782f676f312e34",
  "transactions": [
    {
      "hash": "0x9a3ceebb915c627e34af6ee1a0fd40cd42dc0094cec0e980d089b52bc8b27b8e",
      "blockHash": "0x404edbaf238b0929bd9146f2dae9c3b145b39059565f37d95addebf154738d01",
      "blockNumber": 108119,
      "transactionIndex": 0,
      "confirmations": null,
      "from": "0x6BED894B45159c6001dfbC5bd6257A10B9eF2202",
      "gasPrice": {
        "_hex": "0xd5051fe8a"
      },
      "gasLimit": {
        "_hex": "0x15f90"
      },
      "to": "0xbCa6DD2fDDAf2d917006b0Aa1F8d1962BFf7FB87",
      "value": {
        "_hex": "0x38d7ea4c68000"
      },
      "nonce": 12,
      "data": "0x",
      "r": "0xe22a297a210742035ebda2e369ac3de2bc326c1ad7d78cb939d5289900f31d4a",
      "s": "0x79a140f4e78c6d98067290a8e6a20316a542a56407e6c7ad2e976edaebfb5023",
      "v": 28,
      "creates": null,
      "raw": "0xf86c0c850d5051fe8a83015f9094bca6dd2fddaf2d917006b0aa1f8d1962bff7fb8787038d7ea4c68000801ca0e22a297a210742035ebda2e369ac3de2bc326c1ad7d78cb939d5289900f31d4aa079a140f4e78c6d98067290a8e6a20316a542a56407e6c7ad2e976edaebfb5023",
      "networkId": 0,
      "chainId": 0
    },
    {
      "hash": "0x2560aa643914f661e144f74750edcc4f456643bae4be03685531205d49ce7b92",
      "blockHash": "0x404edbaf238b0929bd9146f2dae9c3b145b39059565f37d95addebf154738d01",
      "blockNumber": 108119,
      "transactionIndex": 1,
      "confirmations": null,
      "from": "0x2753Eb7f173C1e8B9F5315395ef4608F92b637AB",
      "gasPrice": {
        "_hex": "0xcebe443da"
      },
      "gasLimit": {
        "_hex": "0x5208"
      },
      "to": "0x32Be343B94f860124dC4fEe278FDCBD38C102D88",
      "value": {
        "_hex": "0x1934062aa7289400"
      },
      "nonce": 1,
      "data": "0x",
      "r": "0x576b58c2dcb492c2f5d9356561f72515653314d948b5a274daa69654039f3e6f",
      "s": "0x4b72c99f3f85a4006fba0cc1359fb6405924a76698c9779027afe3fe9df9c207",
      "v": 27,
      "creates": null,
      "raw": "0xf86c01850cebe443da8252089432be343b94f860124dc4fee278fdcbd38c102d88881934062aa7289400801ba0576b58c2dcb492c2f5d9356561f72515653314d948b5a274daa69654039f3e6fa04b72c99f3f85a4006fba0cc1359fb6405924a76698c9779027afe3fe9df9c207",
      "networkId": 0,
      "chainId": 0
    }
  ]
}