{
  "hash": "0x80ade9171a765320bc2fc525a8de93edcc636d3ad2e87262e43f2d64844ee191",
  "parentHash": "0x4e266e94a98a4651b30f2cb8b4731fdd32b5b04efbd9d71a32e13ec5bbf0f375",
  "number": 67290,
  "timestamp": 1439269579,
  "nonce": "0x965a6b2f16896bd4",
  "difficulty": 1918597707718,
  "gasLimit": {
    "_hex": "0x2fefd8"
  },
  "gasUsed": {
    "_hex": "0x5208"
  },
  "miner": "0x4B2E99813534a63b28578eDBcB7E660F2BA78cdE",
  "extraData": "0x476574682f76312e302e312f6c696e75782f676f312e342e32",
  "transactions": [
    {
      "hash": "0x04941ac74f68fbb2b98da93ae7d2cedc2f06ab8d2d092952bb67d37c8a94886b",
      "blockHash": "0x80ade9171a765320bc2fc525a8de93edcc636d3ad2e87262e43f2d64844ee191",
      "blockNumber": 67290,
      "transactionIndex": 0,
      "confirmations": null,
      "from": "0x4c74B6F32c9680aCB5Fe0e72B7Aa95C612540A04",
      "gasPrice": {
        "_hex": "0xd0d1cec76"
      },
      "gasLimit": {
        "_hex": "0x5208"
      },
      "to": "0x32Be343B94f860124dC4fEe278FDCBD38C102D88",
      "value": {
        "_hex": "0x56bc32f90cb770000"
      },
      "nonce": 13,
      "data": "0x",
      "r": "0xc400217322705408a4ad1c590a7084287b024a1fa14e63041577d0d2866c0e7b",
      "s": "0x1b491bfca49da700b4fae2749de565b90af4d7436a6dce43f0ddc3fdf3b8c73f",
      "v": 28,
      "creates": null,
      "raw": "0xf86d0d850d0d1cec768252089432be343b94f860124dc4fee278fdcbd38c102d8889056bc32f90cb770000801ca0c400217322705408a4ad1c590a7084287b024a1fa14e63041577d0d2866c0e7ba01b491bfca49da700b4fae2749de565b90af4d7436a6dce43f0ddc3fdf3b8c73f",
      "networkId": 0,
      "chainId": 0
    }
  ]
}