{
  "hash": "0xae20fe24bc56cea557118d8723ad0a8f1c440ebc86d95944eeda036218ba3814",
  "parentHash": "0x527ba193f554b814aee6972085da83eb714c03533da26acc4824f86c771d4f37",
  "number": 89010,
  "timestamp": 1439616716,
  "nonce": "0xd8216081c8c730e7",
  "difficulty": 3267945908046,
  "gasLimit": {
    "_hex": "0x2fefd8"
  },
  "gasUsed": {
    "_hex": "0x5208"
  },
  "miner": "0xf8E0CA3Ed80bd541b94BEdCf259e8CF2141A9523",
  "extraData": "0x476574682f76312e302e312f77696e646f77732f676f312e342e32",
  "transactions": [
    {
      "hash": "0x093613555a91750bb0b80e85bc99119dbdf76f6950a7536fd06d9295ba7ffbec",
      "blockHash": "0xae20fe24bc56cea557118d8723ad0a8f1c440ebc86d95944eeda036218ba3814",
      "blockNumber": 89010,
      "transactionIndex": 0,
      "confirmations": null,
      "from": "0x2910543Af39abA0Cd09dBb2D50200b3E800A63D2",
      "gasPrice": {
        "_hex": "0xd364d4292"
      },
      "gasLimit": {
        "_hex": "0x5208"
      },
      "to": "0x02020D22dCF88f5eDd66B382D7da019F161fB7e3",
      "value": {
        "_hex": "0x9b3149eb5f242a000"
      },
      "nonce": 743,
      "data": "0x",
      "r": "0xfb2aa72daa466728c38376c0e14534ff304d1e3b526a59bacea841f9b8f4d17b",
      "s": "0x6ec47840e86b1cbdf1a018516cf0dca8fc17498084e9020b0d78187c0ffb58e9",
      "v": 28,
      "creates": null,
      "raw": "0xf86f8202e7850d364d42928252089402020d22dcf88f5edd66b382d7da019f161fb7e38909b3149eb5f242a000801ca0fb2aa72daa466728c38376c0e14534ff304d1e3b526a59bacea841f9b8f4d17ba06ec47840e86b1cbdf1a018516cf0dca8fc17498084e9020b0d78187c0ffb58e9",
      "networkId": 0,
      "chainId": 0
    }
  ]
}