{
  "hash": "0xc180daf196b7b332290c46b5f151912e1b4c6ad0c6a9532528a8fbad6df42298",
  "parentHash": "0x05292ed7c9070abef81983d6192d376a364b0038a4cc7d5a3e856f350f9d7a07",
  "number": 101444,
  "timestamp": 1439823132,
  "nonce": "0x8d9e3a6c1bd81a6b",
  "difficulty": 3848634661155,
  "gasLimit": {
    "_hex": "0x2fefd8"
  },
  "gasUsed": {
    "_hex": "0x5208"
  },
  "miner": "0x9D49F602b0fdb924Bd63DDE2Bd0907E4A07c63a7",
  "extraData": "0x476574682f76312e302e312f6c696e75782f676f312e342e32",
  "transactions": [
    {
      "hash": "0xac06bda80683edf966020bb7e9f1fd62551f5f37bdbdbf60115d3791ac965b89",
      "blockHash": "0xc180daf196b7b332290c46b5f151912e1b4c6ad0c6a9532528a8fbad6df42298",
      "blockNumber": 101444,
      "transactionIndex": 0,
      "confirmations": null,
      "from": "0x34fDf2118f88a297b3750FAD5eEB307808d08378",
      "gasPrice": {
        "_hex": "0xcfd85cf84"
      },
      "gasLimit": {
        "_hex": "0x5208"
      },
      "to": "0x32Be343B94f860124dC4fEe278FDCBD38C102D88",
      "value": {
        "_hex": "0x4b57129f0451ec00"
      },
      "nonce": 3,
      "data": "0x",
      "r": "0xd39b27cebaf5dc442df7f6409ebcd8ed3143ab3908e750760b529135e2f90dde",
      "s": "0x6469ac25308a6574fd1ac76333d7fd93a97fd79a07e4740c2f7824ca9fc7567f",
      "v": 27,
      "creates": null,
      "raw": "0xf86c03850cfd85cf848252089432be343b94f860124dc4fee278fdcbd38c102d88884b57129f0451ec00801ba0d39b27cebaf5dc442df7f6409ebcd8ed3143ab3908e750760b529135e2f90ddea06469ac25308a6574fd1ac76333d7fd93a97fd79a07e4740c2f7824ca9fc7567f",
      "networkId": 0,
      "chainId": 0
    }
  ]
}