{
  "hash": "0x136a67586854114e39ecd01593d6a28747b38d86e8f821c8b9725e8b11d69375",
  "parentHash": "0xda4c0d8c4df359aeb0dbcdc98767da4f31f95c3a9eb705a96933bd5322c8007f",
  "number": 89797,
  "timestamp": 1439629351,
  "nonce": "0x4a0bb11e62b2b960",
  "difficulty": 3336972312285,
  "gasLimit": {
    "_hex": "0x2fefd8"
  },
  "gasUsed": {
    "_hex": "0x5208"
  },
  "miner": "0xe6A7a1d47ff21B6321162AEA7C6CB457D5476Bca",
  "extraData": "0x476574682f76312e302e312d38326566323666362f6c696e75782f676f312e34",
  "transactions": [
    {
      "hash": "0xfcbb3e2d6ce2e07e0d572d4bd944e5ccf4cadf8b7f3b4afd77bee566dc65fb45",
      "blockHash": "0x136a67586854114e39ecd01593d6a28747b38d86e8f821c8b9725e8b11d69375",
      "blockNumber": 89797,
      "transactionIndex": 0,
      "confirmations": null,
      "from": "0xb7B3690EFa6b3f08D4EC289fF655C4b7bb15EE39",
      "gasPrice": {
        "_hex": "0xd3bf0d887"
      },
      "gasLimit": {
        "_hex": "0x5208"
      },
      "to": "0x32Be343B94f860124dC4fEe278FDCBD38C102D88",
      "value": {
        "_hex": "0x784c27be0d31d000"
      },
      "nonce": 3,
      "data": "0x",
      "r": "0x8ed3e90e9d321d36503130a438bc2f259f7df2b78a04b6405dc55f61c5824d84",
      "s": "0x3afff15caccf224a99b4b1f29c9118b69721878bbdcd95b1a258ce7e1ac661cb",
      "v": 28,
      "creates": null,
      "raw": "0xf86c03850d3bf0d8878252089432be343b94f860124dc4fee278fdcbd38c102d8888784c27be0d31d000801ca08ed3e90e9d321d36503130a438bc2f259f7df2b78a04b6405dc55f61c5824d84a03afff15caccf224a99b4b1f29c9118b69721878bbdcd95b1a258ce7e1ac661cb",
      "networkId": 0,
      "chainId": 0
    }
  ]
}