{
  "hash": "0xfda63de729ee12a9bcf577b4b578148e895829012ea1c5c86254ff353f9c5c48",
  "parentHash": "0x2434581ab4e6ffced3723c7fa46e7a876d38d4848f2d18ce3203072251cb51da",
  "number": 107742,
  "timestamp": 1439928128,
  "nonce": "0x30e35c6137b9d110",
  "difficulty": 4362059220875,
  "gasLimit": {
    "_hex": "0x2fefd8"
  },
  "gasUsed": {
    "_hex": "0x5208"
  },
  "miner": "0xe6A7a1d47ff21B6321162AEA7C6CB457D5476Bca",
  "extraData": "0x476574682f76312e302e312d38326566323666362f6c696e75782f676f312e34",
  "transactions": [
    {
      "hash": "0x781262a17b775630ff7970df6c294266dd3229a34ba58bd6cbf057b6b1417395",
      "blockHash": "0xfda63de729ee12a9bcf577b4b578148e895829012ea1c5c86254ff353f9c5c48",
      "blockNumber": 107742,
      "transactionIndex": 0,
      "confirmations": null,
      "from": "0x32Be343B94f860124dC4fEe278FDCBD38C102D88",
      "gasPrice": {
        "_hex": "0xe1e305034"
      },
      "gasLimit": {
        "_hex": "0x5208"
      },
      "to": "0xd12Cd8A37F074e7eAFae618C986Ff825666198bd",
      "value": {
        "_hex": "0x132871e557e2fc00000"
      },
      "nonce": 1230,
      "data": "0x",
      "r": "0x11722e000d3cdb68507bbe9c06ffc681622a09439fb79a20f9c4f594ffdd255b",
      "s": "0x5d173d084ce382286c22115f274ce359bc451833955771ea4df0f6c9a7bb39bd",
      "v": 28,
      "creates": null,
      "raw": "0xf8708204ce850e1e30503482520894d12cd8a37f074e7eafae618c986ff825666198bd8a0132871e557e2fc00000801ca011722e000d3cdb68507bbe9c06ffc681622a09439fb79a20f9c4f594ffdd255ba05d173d084ce382286c22115f274ce359bc451833955771ea4df0f6c9a7bb39bd",
      "networkId": 0,
      "chainId": 0
    }
  ]
}