{
  "hash": "0x5a6c3c131db5728dec499ae9651e572ab1a36d86a7ec51a9ecc52f285cfc1285",
  "parentHash": "0x6fbc0599941f5c2659ba543311e6f6a30a6786864f0756740e270c753b3abfd8",
  "number": 68087,
  "timestamp": 1439282317,
  "nonce": "0x823e441748a694ab",
  "difficulty": 1962950639198,
  "gasLimit": {
    "_hex": "0x2fefd8"
  },
  "gasUsed": {
    "_hex": "0x8c2e"
  },
  "miner": "0x52Dc504a422f0E2A9e7632A34a50f1a82F8224c7",
  "extraData": "0x476574682f76312e302e312f6c696e75782f676f312e342e32",
  "transactions": [
    {
      "hash": "0xb9d8ce1b26d4c9d85c2c8cc5346e9e0b112a3512ee4c48e23ab937c8a3e30b52",
      "blockHash": "0x5a6c3c131db5728dec499ae9651e572ab1a36d86a7ec51a9ecc52f285cfc1285",
      "blockNumber": 68087,
      "transactionIndex": 0,
      "confirmations": null,
      "from": "0xFBb1b73C4f0BDa4f67dcA266ce6Ef42f520fBB98",
      "gasPrice": {
        "_hex": "0xd50cdf4b2"
      },
      "gasLimit": {
        "_hex": "0x15f90"
      },
      "to": "0xCAc7000C7dBaa2E33Af15325AF5D435E011C7BdD",
      "value": {
        "_hex": "0x0"
      },
      "nonce": 27,
      "data": "0x6042a7604249545452455830300000000000000000000000000000000000000000000000000000000000000000000000cac7000c7dbaa2e33af15325af5d435e011c7bdd41313131313131314100000000000000000000000000000000000000000000000000000000000000000000000000000000000000000000001d780286444da000",
      "r": "0xf158fb6545f18b814af0e65c50b183d1851ce4e50c4030fd2ab77544de693bc9",
      "s": "0x5c6af222d74faa715e774d7bd44b203656cc52b8206bce632859a3fe0563852c",
      "v": 28,
      "creates": null,
      "raw": "0xf8ea1b850d50cdf4b283015f9094cac7000c7dbaa2e33af15325af5d435e011c7bdd80b8846042a7604249545452455830300000000000000000000000000000000000000000000000000000000000000000000000cac7000c7dbaa2e33af15325af5d435e011c7bdd41313131313131314100000000000000000000000000000000000000000000000000000000000000000000000000000000000000000000001d780286444da0001ca0f158fb6545f18b814af0e65c50b183d1851ce4e50c4030fd2ab77544de693bc9a05c6af222d74faa715e774d7bd44b203656cc52b8206bce632859a3fe0563852c",
      "networkId": 0,
      "chainId": 0
    }
  ]
}