{
  "hash": "0xb1d2bf723d0641ff5d6ae41e36a0867786aa6f06ff2b4c3a1621e81f41b6d18c",
  "parentHash": "0x5487cd1bd7f406f00c130140b2446242132b89bf98ba34f8eb270a5421cac22a",
  "number": 111605,
  "timestamp": 1439993143,
  "nonce": "0x4bc50ece35bd685d",
  "difficulty": 4426549818611,
  "gasLimit": {
    "_hex": "0x2fefd8"
  },
  "gasUsed": {
    "_hex": "0x5208"
  },
  "miner": "0xe6A7a1d47ff21B6321162AEA7C6CB457D5476Bca",
  "extraData": "0x476574682f76312e302e312d38326566323666362f6c696e75782f676f312e34",
  "transactions": [
    {
      "hash": "0x8df9153604f8f989ed23125796346fe6176c259b8b9a8d94d96f2043bff0d71d",
      "blockHash": "0xb1d2bf723d0641ff5d6ae41e36a0867786aa6f06ff2b4c3a1621e81f41b6d18c",
      "blockNumber": 111605,
      "transactionIndex": 0,
      "confirmations": null,
      "from": "0x2910543Af39abA0Cd09dBb2D50200b3E800A63D2",
      "gasPrice": {
        "_hex": "0xd337615e1"
      },
      "gasLimit": {
        "_hex": "0x5208"
      },
      "to": "0xFD7c9117BbEB649d9b37B3D3C9917f7c12f526B3",
      "value": {
        "_hex": "0x159f884c350d117300"
      },
      "nonce": 1096,
      "data": "0x",
      "r": "0xdb444ebe5587fa8adc0045ed841438c5ad5102824a90e28d3f84b490a320ef14",
      "s": "0x3d24ff25dcff89b392c86b2966a44a2564e9043f05126dedaca0befab959f96e",
      "v": 28,
      "creates": null,
      "raw": "0xf86f820448850d337615e182520894fd7c9117bbeb649d9b37b3d3c9917f7c12f526b389159f884c350d117300801ca0db444ebe5587fa8adc0045ed841438c5ad5102824a90e28d3f84b490a320ef14a03d24ff25dcff89b392c86b2966a44a2564e9043f05126dedaca0befab959f96e",
      "networkId": 0,
      "chainId": 0
    }
  ]
}