{
  "hash": "0x5feb96147bbe58f831c6ead580ea839cd74050dc84273c1d42c7594363257c4d",
  "parentHash": "0x1afedc64968e2d3b39d78122d565e7a47d2429e86c56123794698fe2ef3630ec",
  "number": 78808,
  "timestamp": 1439459774,
  "nonce": "0xe688dba499213655",
  "difficulty": 2284170113988,
  "gasLimit": {
    "_hex": "0x2fefd8"
  },
  "gasUsed": {
    "_hex": "0x5208"
  },
  "miner": "0xC603Ab5ef41fC61AA8b76bEddb09e3Cfcbb174BD",
  "extraData": "0x476574682f76312e302e312f77696e646f77732f676f312e342e32",
  "transactions": [
    {
      "hash": "0x62d1e311f5f7f61e987a4da866ec25b8ef46735e16a6fe2279a37673378d0df9",
      "blockHash": "0x5feb96147bbe58f831c6ead580ea839cd74050dc84273c1d42c7594363257c4d",
      "blockNumber": 78808,
      "transactionIndex": 0,
      "confirmations": null,
      "from": "0x5170535271F5B9eC438c0447b3daD67b3E2633f2",
      "gasPrice": {
        "_hex": "0xba43b7400"
      },
      "gasLimit": {
        "_hex": "0x5208"
      },
      "to": "0xC47Aaa860008be6f65B58c6C6E02a84e666EfE31",
      "value": {
        "_hex": "0x455fd68a17f038f0"
      },
      "nonce": 4,
      "data": "0x",
      "r": "0xf6f93022a63c8cf15e78d7650a222561e0c72f98c0ac446eb9aacd333d26de18",
      "s": "0x72421ab2db57a192317e457331503a3024abeec103b25c52f721b06d52f302de",
      "v": 28,
      "creates": null,
      "raw": "0xf86c04850ba43b740082520894c47aaa860008be6f65b58c6c6e02a84e666efe3188455fd68a17f038f0801ca0f6f93022a63c8cf15e78d7650a222561e0c72f98c0ac446eb9aacd333d26de18a072421ab2db57a192317e457331503a3024abeec103b25c52f721b06d52f302de",
      "networkId": 0,
      "chainId": 0
    }
  ]
}