{
  "hash": "0xfa66c4e8b86702e2b5288dd9bffad694ca1ea40f3a89e1ccf76f7df99c8ecb14",
  "parentHash": "0xc19668c7ad0b046500e4d68c3045562e6aabeabe1c6218dd4eb8b5aea48b1228",
  "number": 67545,
  "timestamp": 1439273801,
  "nonce": "0xc730f348fea7050f",
  "difficulty": 1919476401990,
  "gasLimit": {
    "_hex": "0x2fefd8"
  },
  "gasUsed": {
    "_hex": "0x5208"
  },
  "miner": "0xF6f0E8De7a79ED0F55AeBFe96aA924d0bF5512AB",
  "extraData": "0xda8098302e392e34302b2b302d524c696e75782f672b2b2f696e74",
  "transactions": [
    {
      "hash": "0x19b2fe073a0b2984b8e28557b80d60abadca0bdef1b3173c19fa85d567032024",
      "blockHash": "0xfa66c4e8b86702e2b5288dd9bffad694ca1ea40f3a89e1ccf76f7df99c8ecb14",
      "blockNumber": 67545,
      "transactionIndex": 0,
      "confirmations": null,
      "from": "0x32Be343B94f860124dC4fEe278FDCBD38C102D88",
      "gasPrice": {
        "_hex": "0xd856a57e2"
      },
      "gasLimit": {
        "_hex": "0x5208"
      },
      "to": "0x9Eb13f2Df9A75B34f1e48D8eC2aF7DfbDabA1764",
      "value": {
        "_hex": "0x13fbe85edc90000"
      },
      "nonce": 212,
      "data": "0x",
      "r": "0x99a3c89e6e111e8a0b4c45d0d9f86b55c7f8e64921e0ee24aa80c66257e5bb17",
      "s": "0x159a20af761d32abf22e1909546432f1db88c70659b7cfa750662646a1145e87",
      "v": 28,
      "creates": null,
      "raw": "0xf86d81d4850d856a57e2825208949eb13f2df9a75b34f1e48d8ec2af7dfbdaba176488013fbe85edc90000801ca099a3c89e6e111e8a0b4c45d0d9f86b55c7f8e64921e0ee24aa80c66257e5bb17a0159a20af761d32abf22e1909546432f1db88c70659b7cfa750662646a1145e87",
      "networkId": 0,
      "chainId": 0
    }
  ]
}