{
  "hash": "0x4ab5596cd8d54be6964cb4e2c4f76a07af6e832e06f10b0ffb83bb7de1cad24b",
  "parentHash": "0x06ad02020ca25f6ef9479025554956adef986b8f5df558b4b6567d198033584e",
  "number": 112777,
  "timestamp": 1440013040,
  "nonce": "0xe80b592dc801311e",
  "difficulty": 4438917023494,
  "gasLimit": {
    "_hex": "0x2fefd8"
  },
  "gasUsed": {
    "_hex": "0x5208"
  },
  "miner": "0x6Cf387a1C50cF6b09634E0d24fDAa2c06Be0ea95",
  "extraData": "0x476574682f76312e302e312f6c696e75782f676f312e342e32",
  "transactions": [
    {
      "hash": "0x0207e59acf48f5f4174ef0f5700a0033172fb3f815dbf85a700ea67504fd05a7",
      "blockHash": "0x4ab5596cd8d54be6964cb4e2c4f76a07af6e832e06f10b0ffb83bb7de1cad24b",
      "blockNumber": 112777,
      "transactionIndex": 0,
      "confirmations": null,
      "from": "0x03bbfbb9d362b4B1C6a113BE654A0190Fc6aEa80",
      "gasPrice": {
        "_hex": "0xce81ddaf9"
      },
      "gasLimit": {
        "_hex": "0x5208"
      },
      "to": "0x32Be343B94f860124dC4fEe278FDCBD38C102D88",
      "value": {
        "_hex": "0x562db434c7f80000"
      },
      "nonce": 8,
      "data": "0x",
      "r": "0xa894222bbefd8ec38d271ec9f1186868ac6f3e58721179575714b09384c264d2",
      "s": "0x19060911864826b186e3c7bf3f1b0e0f4a343baa517fc8f79e64799da8f92535",
      "v": 27,
      "creates": null,
      "raw": "0xf86c08850ce81ddaf98252089432be343b94f860124dc4fee278fdcbd38c102d8888562db434c7f80000801ba0a894222bbefd8ec38d271ec9f1186868ac6f3e58721179575714b09384c264d2a019060911864826b186e3c7bf3f1b0e0f4a343baa517fc8f79e64799da8f92535",
      "networkId": 0,
      "chainId": 0
    }
  ]
}