{
  "hash": "0x38f31cd2a85cf5b698cbce45d197d97c1b1431a722bc97175a2e6b8f38890699",
  "parentHash": "0x2831d53d2474908daf709fe46e3138bb782b5fcd34c3199a5ac8cc77d1469281",
  "number": 86722,
  "timestamp": 1439581981,
  "nonce": "0x4dc6e0f5cdcc9ea2",
  "difficulty": 2941635200546,
  "gasLimit": {
    "_hex": "0x2fefd8"
  },
  "gasUsed": {
    "_hex": "0x5208"
  },
  "miner": "0xe6A7a1d47ff21B6321162AEA7C6CB457D5476Bca",
  "extraData": "0x476574682f76312e302e312d38326566323666362f6c696e75782f676f312e34",
  "transactions": [
    {
      "hash": "0xfa4e176c61104d2a690ec4e03313189e2e6c185273d92ea671dac59287c7c25c",
      "blockHash": "0x38f31cd2a85cf5b698cbce45d197d97c1b1431a722bc97175a2e6b8f38890699",
      "blockNumber": 86722,
      "transactionIndex": 0,
      "confirmations": null,
      "from": "0x2910543Af39abA0Cd09dBb2D50200b3E800A63D2",
      "gasPrice": {
        "_hex": "0xdd1288aad"
      },
      "gasLimit": {
        "_hex": "0x5208"
      },
      "to": "0xF5618B657f42AEf0189AD783731715e5667CdDab",
      "value": {
        "_hex": "0xbe5c25af52a90000"
      },
      "nonce": 677,
      "data": "0x",
      "r": "0xac50066aaaf05233773b2886672658612f18742bf766faa18948a2c953401ed5",
      "s": "0x16f20b45104c155407d7d442717ee1309979e2ea78c2be9c57bf91f5c8f5d204",
      "v": 27,
      "creates": null,
      "raw": "0xf86e8202a5850dd1288aad82520894f5618b657f42aef0189ad783731715e5667cddab88be5c25af52a90000801ba0ac50066aaaf05233773b2886672658612f18742bf766faa18948a2c953401ed5a016f20b45104c155407d7d442717ee1309979e2ea78c2be9c57bf91f5c8f5d204",
      "networkId": 0,
      "chainId": 0
    }
  ]
}