{
  "hash": "0xfa655ce9da44fd83cccd9d70d5163e35a8f2d7d72124ca0d3f68d1f7cf7b650e",
  "parentHash": "0x0f6eda7051fcfeb55c8b940ecea92485d0cd1d76c626d1ed43d6f7c39e99ab2d",
  "number": 47250,
  "timestamp": 1438936834,
  "nonce": "0xeda5b30edd9d8d2e",
  "difficulty": 1461655107499,
  "gasLimit": {
    "_hex": "0xa8b5"
  },
  "gasUsed": {
    "_hex": "0xa410"
  },
  "miner": "0xf927a40C8B7F6E07c5af7FA2155B4864a4112B13",
  "extraData": "0x476574682f76312e302e312f6c696e75782f676f312e342e32",
  "transactions": [
    {
      "hash": "0xebca235b910a32931776a21b04bb8bc8ae0217005d451dceb8c277a7e6274001",
      "blockHash": "0xfa655ce9da44fd83cccd9d70d5163e35a8f2d7d72124ca0d3f68d1f7cf7b650e",
      "blockNumber": 47250,
      "transactionIndex": 0,
      "confirmations": null,
      "from": "0xa0E74ae010D51894734c308D612131056bB721AD",
      "gasPrice": {
        "_hex": "0xce821a3db"
      },
      "gasLimit": {
        "_hex": "0x5208"
      },
      "to": "0x32Be343B94f860124dC4fEe278FDCBD38C102D88",
      "value": {
        "_hex": "0x5f68a5e6f1de48000"
      },
      "nonce": 3,
      "data": "0x",
      "r": "0x0b23ce90eda94892c30d2a362d07431683a12207749009f591a3675be9310196",
      "s": "0x3a368edc06419f1955eb1f7312f448bfa01715af0015b3f7676bfbf75b34578b",
      "v": 27,
      "creates": null,
      "raw": "0xf86d03850ce821a3db8252089432be343b94f860124dc4fee278fdcbd38c102d888905f68a5e6f1de48000801ba00b23ce90eda94892c30d2a362d07431683a12207749009f591a3675be9310196a03a368edc06419f1955eb1f7312f448bfa01715af0015b3f7676bfbf75b34578b",
      "networkId": 0,
      "chainId": 0
    },
    {
      "hash": "0xe65f501dcb42be8e8827364c306e6e4865ffe11cf1fe28843a757f2947a101b3",
      "blockHash": "0xfa655ce9da44fd83cccd9d70d5163e35a8f2d7d72124ca0d3f68d1f7cf7b650e",
      "blockNumber": 47250,
      "transactionIndex": 1,
      "confirmations": null,
      "from": "0xf77a1a60534F0D1c012Dd5860cEC5f30865DF6b8",
      "gasPrice": {
        "_hex": "0xce821a3db"
      },
      "gasLimit": {
        "_hex": "0x5208"
      },
      "to": "0x32Be343B94f860124dC4fEe278FDCBD38C102D88",
      "value": {
        "_hex": "0x17e5500dc7d11d0000"
      },
      "nonce": 0,
      "data": "0x",
      "r": "0x61b9edd4319f97e197a017e699ed67db3ec5b1a3be303fb85b7bef188db95554",
      "s": "0x1980977cba692d409884001eb426b36203a2768fe629ceffa9023e21e3c218e5",
      "v": 27,
      "creates": null,
      "raw": "0xf86d80850ce821a3db8252089432be343b94f860124dc4fee278fdcbd38c102d888917e5500dc7d11d0000801ba061b9edd4319f97e197a017e699ed67db3ec5b1a3be303fb85b7bef188db95554a01980977cba692d409884001eb426b36203a2768fe629ceffa9023e21e3c218e5",
      "networkId": 0,
      "chainId": 0
    }
  ]
}