{
  "hash": "0x217828ba3976e8aaef322367eaf4ef79c0d6597af098b0dc290577bce2a15821",
  "parentHash": "0x38ec39a585b8c6ac853590abb180e8527db8da01dbdd060288d906b66d4a37bb",
  "number": 94495,
  "timestamp": 1439709383,
  "nonce": "0xce3e0b509400bde6",
  "difficulty": 3484934235186,
  "gasLimit": {
    "_hex": "0x2fefd8"
  },
  "gasUsed": {
    "_hex": "0x5208"
  },
  "miner": "0x9B80BD38c4afE0942F8029298A11fACe85ce4cAF",
  "extraData": "0x",
  "transactions": [
    {
      "hash": "0x077379b03945bc8c6c281d01c3fe0f4c7e176297333718e3f58d6f9e789bb6cd",
      "blockHash": "0x217828ba3976e8aaef322367eaf4ef79c0d6597af098b0dc290577bce2a15821",
      "blockNumber": 94495,
      "transactionIndex": 0,
      "confirmations": null,
      "from": "0xb1abce2918E21ddb93AA452731a12672A3d9F75a",
      "gasPrice": {
        "_hex": "0xdb81cd871"
      },
      "gasLimit": {
        "_hex": "0x5208"
      },
      "to": "0x32Be343B94f860124dC4fEe278FDCBD38C102D88",
      "value": {
        "_hex": "0x455f2c1bf58df400"
      },
      "nonce": 18,
      "data": "0x",
      "r": "0xfe5d960e72ad5ed7544ce8422f83d2dd6a0e31b76e8a10b7ec7558e09c9f36f9",
      "s": "0x0161945c6d6c9915133df23661646ff41fdfda92b701cf1c91ae28100a1c84fa",
      "v": 27,
      "creates": null,
      "raw": "0xf86c12850db81cd8718252089432be343b94f860124dc4fee278fdcbd38c102d8888455f2c1bf58df400801ba0fe5d960e72ad5ed7544ce8422f83d2dd6a0e31b76e8a10b7ec7558e09c9f36f9a00161945c6d6c9915133df23661646ff41fdfda92b701cf1c91ae28100a1c84fa",
      "networkId": 0,
      "chainId": 0
    }
  ]
}