{
  "hash": "0xbfc6dbe96463692597756a7c1391322a543009f5e299359b84b1a8829321dd52",
  "parentHash": "0xd12bc50a6bb3bb77c3cc995768189ac614f911076dbf994883086a791ba5f0cf",
  "number": 54440,
  "timestamp": 1439054350,
  "nonce": "0xf581f5bb22e1240f",
  "difficulty": 1608644677331,
  "gasLimit": {
    "_hex": "0x2fefd5"
  },
  "gasUsed": {
    "_hex": "0x5208"
  },
  "miner": "0x3FF679B0823a026F2378E5f5F22A6F127cC85828",
  "extraData": "0x476574682f76312e302e302f6c696e75782f676f312e342e32",
  "transactions": [
    {
      "hash": "0xed1a4f982eb263363d2d89ba7c27bf5aa58b74243bc7f18f3f5496d5b85d7c6a",
      "blockHash": "0xbfc6dbe96463692597756a7c1391322a543009f5e299359b84b1a8829321dd52",
      "blockNumber": 54440,
      "transactionIndex": 0,
      "confirmations": null,
      "from": "0xAf134ceB3E1C67ae88B0Bf50C0fC6D35BD353988",
      "gasPrice": {
        "_hex": "0xce5639ee8"
      },
      "gasLimit": {
        "_hex": "0x5208"
      },
      "to": "0x32Be343B94f860124dC4fEe278FDCBD38C102D88",
      "value": {
        "_hex": "0x104351f8a7329e0000"
      },
      "nonce": 1,
      "data": "0x",
      "r": "0xa317acdb8ab003b8a2190706a623dd989d89240f896b72c78ddbd83c32d4a80e",
      "s": "0x518319fc5805fe5b427eed54665e4dc037e55030449d4ef28a9bb86f3f2ebd48",
      "v": 27,
      "creates": null,
      "raw": "0xf86d01850ce5639ee88252089432be343b94f860124dc4fee278fdcbd38c102d8889104351f8a7329e0000801ba0a317acdb8ab003b8a2190706a623dd989d89240f896b72c78ddbd83c32d4a80ea0518319fc5805fe5b427eed54665e4dc037e55030449d4ef28a9bb86f3f2ebd48",
      "networkId": 0,
      "chainId": 0
    }
  ]
}