{
  "hash": "0x300c94d0f305f58c71a4b022552a5ee6aaf57eaec30b71ada8850eb7b7ebd3c0",
  "parentHash": "0x994aaff02724aa1f2e0c60befd0406964f6b3a57d01fb771dcf69a50d0b0528f",
  "number": 72381,
  "timestamp": 1439351778,
  "nonce": "0x989292414d015923",
  "difficulty": 2188709045937,
  "gasLimit": {
    "_hex": "0x2fefd8"
  },
  "gasUsed": {
    "_hex": "0x5208"
  },
  "miner": "0x63BBedc46A1113Ba7938CF7C18CCb5Aed20eC733",
  "extraData": "0x",
  "transactions": [
    {
      "hash": "0xaba0efb26fa4acd1e217cddbe64c67bd692e6ab62db59a5275aacbea99a2652c",
      "blockHash": "0x300c94d0f305f58c71a4b022552a5ee6aaf57eaec30b71ada8850eb7b7ebd3c0",
      "blockNumber": 72381,
      "transactionIndex": 0,
      "confirmations": null,
      "from": "0x2C89f5FDcA3D155409b638B98A742E55eb4652B7",
      "gasPrice": {
        "_hex": "0x9184e72a000"
      },
      "gasLimit": {
        "_hex": "0x15f90"
      },
      "to": "0x1308A2e95c0160B90803ddCA9B9a5bb55E416d79",
      "value": {
        "_hex": "0x3635c9adc5dea00000"
      },
      "nonce": 11,
      "data": "0x",
      "r": "0x118445564fbfbcf9c9c4867b51b45c2e6b1c2ea1fd4083c4ac106ceb5a88d563",
      "s": "0x2836b0cc77502f8eb06d1f142c53af80d8937f3bfd303a8c0834dc989b5b5e31",
      "v": 27,
      "creates": null,
      "raw": "0xf86f0b8609184e72a00083015f90941308a2e95c0160b90803ddca9b9a5bb55e416d79893635c9adc5dea00000801ba0118445564fbfbcf9c9c4867b51b45c2e6b1c2ea1fd4083c4ac106ceb5a88d563a02836b0cc77502f8eb06d1f142c53af80d8937f3bfd303a8c0834dc989b5b5e31",
      "networkId": 0,
      "chainId": 0
    }
  ]
}