{
  "hash": "0x3b5d7d381db89ef22d2699a23d78b02ed26bce19d1ac3c66eb65667a3b49489a",
  "parentHash": "0x58d53a382a676487b876667c99711b5ea4be259497a0f6d4ee6a9d88925688ad",
  "number": 121752,
  "timestamp": 1440181959,
  "nonce": "0x328969dcbe9546ff",
  "difficulty": 4475499090228,
  "gasLimit": {
    "_hex": "0x2fefd8"
  },
  "gasUsed": {
    "_hex": "0xa410"
  },
  "miner": "0xd131F6C3957d70A74cb28737528Cb609C45ee509",
  "extraData": "0x",
  "transactions": [
    {
      "hash": "0xa11220567ac14ca1dc95d16758c8955cf7665a3444038d73f0db3eba0a2f6730",
      "blockHash": "0x3b5d7d381db89ef22d2699a23d78b02ed26bce19d1ac3c66eb65667a3b49489a",
      "blockNumber": 121752,
      "transactionIndex": 0,
      "confirmations": null,
      "from": "0xa61ff394e3846F8bfbBF8801afb051730B04Ee75",
      "gasPrice": {
        "_hex": "0xd52962914"
      },
      "gasLimit": {
        "_hex": "0x5208"
      },
      "to": "0x32Be343B94f860124dC4fEe278FDCBD38C102D88",
      "value": {
        "_hex": "0x478a693061da5800"
      },
      "nonce": 25,
      "data": "0x",
      "r": "0x8a90a47d0f152fea59dbc06f4aedc9fc37d08a3d82ee1789750de771971325cc",
      "s": "0x3dff48ec83d9e10be9d1600b3af5f9481fb2deb59c462abfaab4a2b9ffddf881",
      "v": 27,
      "creates": null,
      "raw": "0xf86c19850d529629148252089432be343b94f860124dc4fee278fdcbd38c102d8888478a693061da5800801ba08a90a47d0f152fea59dbc06f4aedc9fc37d08a3d82ee1789750de771971325cca03dff48ec83d9e10be9d1600b3af5f9481fb2deb59c462abfaab4a2b9ffddf881",
      "networkId": 0,
      "chainId": 0
    },
    {
      "hash": "0x55627a96cf6bd13835074c89740f0a5aac8f2000661cb3ea5f88587ed2d7f4b6",
      "blockHash": "0x3b5d7d381db89ef22d2699a23d78b02ed26bce19d1ac3c66eb65667a3b49489a",
      "blockNumber": 121752,
      "transactionIndex": 1,
      "confirmations": null,
      "from": "0x5c59E28366c83f1d262567c1c529185146e68b16",
      "gasPrice": {
        "_hex": "0xd52962914"
      },
      "gasLimit": {
        "_hex": "0x5208"
      },
      "to": "0x32Be343B94f860124dC4fEe278FDCBD38C102D88",
      "value": {
        "_hex": "0x2b5e24e913eb5e0000"
      },
      "nonce": 10,
      "data": "0x",
      "r": "0x2f2eda7332fc4b57464587d5d8ae6a5cd4a684d47b195f011d87e135d8f6167e",
      "s": "0x5d1b1e61a7475c96fb6aa71b5006ebe5abe7c289e19f21a0b9810de6cc34c722",
      "v": 28,
      "creates": null,
      "raw": "0xf86d0a850d529629148252089432be343b94f860124dc4fee278fdcbd38c102d88892b5e24e913eb5e0000801ca02f2eda7332fc4b57464587d5d8ae6a5cd4a684d47b195f011d87e135d8f6167ea05d1b1e61a7475c96fb6aa71b5006ebe5abe7c289e19f21a0b9810de6cc34c722",
      "networkId": 0,
      "chainId": 0
    }
  ]
}