{
  "hash": "0xb659c06e2c46e57afaee57eb16f1d8f5dcf9c63e1c54517f214bad326505f15d",
  "parentHash": "0x917af9b490775f0520d41bb52dda9ba2ab47852f8584f7a98fa7fe0bf7e732c2",
  "number": 112242,
  "timestamp": 1440004278,
  "nonce": "0xaae5fd587295b3b6",
  "difficulty": 4385340078712,
  "gasLimit": {
    "_hex": "0x2fefd8"
  },
  "gasUsed": {
    "_hex": "0xa410"
  },
  "miner": "0xe6A7a1d47ff21B6321162AEA7C6CB457D5476Bca",
  "extraData": "0x476574682f76312e302e312d38326566323666362f6c696e75782f676f312e34",
  "transactions": [
    {
      "hash": "0x948db5ba81af594302e8a5dbcfa3e2abd2e9f1ce96ca2eef10fbd9b5a98e05d7",
      "blockHash": "0xb659c06e2c46e57afaee57eb16f1d8f5dcf9c63e1c54517f214bad326505f15d",
      "blockNumber": 112242,
      "transactionIndex": 0,
      "confirmations": null,
      "from": "0xE3a44b84A68C84F674E1e8c17445742DE48D9501",
      "gasPrice": {
        "_hex": "0xe1a207a23"
      },
      "gasLimit": {
        "_hex": "0x5208"
      },
      "to": "0x32Be343B94f860124dC4fEe278FDCBD38C102D88",
      "value": {
        "_hex": "0x533fc365a483bc00"
      },
      "nonce": 2,
      "data": "0x",
      "r": "0xd988aa1e97de04355edfe3f137d74469d3d1c6ee8af09bc44371f9ae2fbf0f02",
      "s": "0x3d38fc17a3f0807982ffdc6f469e9db5e7459b20f19edb7b676926731affa203",
      "v": 28,
      "creates": null,
      "raw": "0xf86c02850e1a207a238252089432be343b94f860124dc4fee278fdcbd38c102d8888533fc365a483bc00801ca0d988aa1e97de04355edfe3f137d74469d3d1c6ee8af09bc44371f9ae2fbf0f02a03d38fc17a3f0807982ffdc6f469e9db5e7459b20f19edb7b676926731affa203",
      "networkId": 0,
      "chainId": 0
    },
    {
      "hash": "0xf8943c7ed9b00a60cff33d7c6ce8c305e0fdd17b1c6abf18217e4b1d446d833f",
      "blockHash": "0xb659c06e2c46e57afaee57eb16f1d8f5dcf9c63e1c54517f214bad326505f15d",
      "blockNumber": 112242,
      "transactionIndex": 1,
      "confirmations": null,
      "from": "0xE37619a47076d668A13AB535aA1c01E8a32541EF",
      "gasPrice": {
        "_hex": "0xe1a207a23"
      },
      "gasLimit": {
        "_hex": "0x5208"
      },
      "to": "0x32Be343B94f860124dC4fEe278FDCBD38C102D88",
      "value": {
        "_hex": "0x6810d5731f99bc00"
      },
      "nonce": 3,
      "data": "0x",
      "r": "0xb2be67508dcc5d992121fa7608a6b6b468be29a8ce7bf7fd5ee0848f1bb633bc",
      "s": "0x3c4abc9b3086615af685ee91bca155c1cf034613e39268b6a8b7df08f52eb9cf",
      "v": 28,
      "creates": null,
      "raw": "0xf86c03850e1a207a238252089432be343b94f860124dc4fee278fdcbd38c102d88886810d5731f99bc00801ca0b2be67508dcc5d992121fa7608a6b6b468be29a8ce7bf7fd5ee0848f1bb633bca03c4abc9b3086615af685ee91bca155c1cf034613e39268b6a8b7df08f52eb9cf",
      "networkId": 0,
      "chainId": 0
    }
  ]
}