{
  "hash": "0xe38333621ced6566e8cdd98242e78fbb81fd99395ebe281444c30d9505c386ad",
  "parentHash": "0x215d063e2752a48e9958c62dc11645ffde736ef053230db70395418dfa9d6ea7",
  "number": 101126,
  "timestamp": 1439817825,
  "nonce": "0xeb81d2789adec4b1",
  "difficulty": 3863844262521,
  "gasLimit": {
    "_hex": "0x2fefd8"
  },
  "gasUsed": {
    "_hex": "0x5208"
  },
  "miner": "0xC978e305Aaa59952FAb39Ba288d6E9CB09B952E1",
  "extraData": "0x476574682f76312e302e312f77696e646f77732f676f312e342e32",
  "transactions": [
    {
      "hash": "0xa4a6d86fac99d0446aa39b226b87be0bfbddc1bf0294dd15a53e961dcecabd1e",
      "blockHash": "0xe38333621ced6566e8cdd98242e78fbb81fd99395ebe281444c30d9505c386ad",
      "blockNumber": 101126,
      "transactionIndex": 0,
      "confirmations": null,
      "from": "0x47ff6576639c2e94762eA5443978D7681C0E78DC",
      "gasPrice": {
        "_hex": "0xdc93b42a9"
      },
      "gasLimit": {
        "_hex": "0x5208"
      },
      "to": "0x3620db64D25D412bAb4C8d93E2e0D7e64e8Cb933",
      "value": {
        "_hex": "0x1d3820ac416f8c0000"
      },
      "nonce": 30,
      "data": "0x",
      "r": "0xf4c730db0df17380729f4ba935d2879d5116b57adececcf5968147828e45b5eb",
      "s": "0x20cd1eaa257ef6694fe99b44a591fbc1bf4ba075a18a8d1c3062671a954d4713",
      "v": 28,
      "creates": null,
      "raw": "0xf86d1e850dc93b42a9825208943620db64d25d412bab4c8d93e2e0d7e64e8cb933891d3820ac416f8c0000801ca0f4c730db0df17380729f4ba935d2879d5116b57adececcf5968147828e45b5eba020cd1eaa257ef6694fe99b44a591fbc1bf4ba075a18a8d1c3062671a954d4713",
      "networkId": 0,
      "chainId": 0
    }
  ]
}