{
  "hash": "0x34341bd70c0aaafb7c131f328c44db188ccaa7f0b2adfe8b1db823a4f456298a",
  "parentHash": "0x03a6a2c26f971d17f1cfb31f7910c03fbd65a3ebc80806e8306b7e82acf94376",
  "number": 66337,
  "timestamp": 1439252743,
  "nonce": "0xa33c0aba0587a5ed",
  "difficulty": 1938592263209,
  "gasLimit": {
    "_hex": "0x2fefd8"
  },
  "gasUsed": {
    "_hex": "0x5208"
  },
  "miner": "0xf8E0CA3Ed80bd541b94BEdCf259e8CF2141A9523",
  "extraData": "0x476574682f76312e302e312f77696e646f77732f676f312e342e32",
  "transactions": [
    {
      "hash": "0xe107d7899e080807c8dee932df88558cdadae537b0b9ea37340fff30a30eb4a9",
      "blockHash": "0x34341bd70c0aaafb7c131f328c44db188ccaa7f0b2adfe8b1db823a4f456298a",
      "blockNumber": 66337,
      "transactionIndex": 0,
      "confirmations": null,
      "from": "0x2910543Af39abA0Cd09dBb2D50200b3E800A63D2",
      "gasPrice": {
        "_hex": "0xcba401700"
      },
      "gasLimit": {
        "_hex": "0x5208"
      },
      "to": "0xc8ebccC5F5689Fa8659d83713341e5aD19349448",
      "value": {
        "_hex": "0x796d226c652cf8000"
      },
      "nonce": 200,
      "data": "0x",
      "r": "0x1fed3b17108263e5b2551e3aff348fd02ef12db150c190a056eb438a1830d363",
      "s": "0x447a72b4821debe56188703b2b3fc760741208d6117879e0eb2aded3d73adf76",
      "v": 28,
      "creates": null,
      "raw": "0xf86e81c8850cba40170082520894c8ebccc5f5689fa8659d83713341e5ad19349448890796d226c652cf8000801ca01fed3b17108263e5b2551e3aff348fd02ef12db150c190a056eb438a1830d363a0447a72b4821debe56188703b2b3fc760741208d6117879e0eb2aded3d73adf76",
      "networkId": 0,
      "chainId": 0
    }
  ]
}