{
  "hash": "0x4defd33c43d6cab4413cfa80102b0333f7f110fee733d5a47dc99b51d6839848",
  "parentHash": "0x644a8c2269398f20389c21e53fdd2ef3e6009628755d54264ddbb31411905d63",
  "number": 64520,
  "timestamp": 1439222178,
  "nonce": "0x4c3bebffcd2c8927",
  "difficulty": 1878437645497,
  "gasLimit": {
    "_hex": "0x2fefd8"
  },
  "gasUsed": {
    "_hex": "0x17cd8"
  },
  "miner": "0xbb7B8287f3F0a933474a79eAe42CBCa977791171",
  "extraData": "0x476574682f4c5649562f76312e302e312f6c696e75782f676f312e342e32",
  "transactions": [
    {
      "hash": "0xce3acf57a95c8223e5f44eb9c73f2db9251846904d36b64403c0db62c3101514",
      "blockHash": "0x4defd33c43d6cab4413cfa80102b0333f7f110fee733d5a47dc99b51d6839848",
      "blockNumber": 64520,
      "transactionIndex": 0,
      "confirmations": null,
      "from": "0x0Ed56C7b3005CAD430d7977490cEc0e9579EC326",
      "gasPrice": {
        "_hex": "0xba43b7400"
      },
      "gasLimit": {
        "_hex": "0x15f90"
      },
      "to": "0x793AE8C1b1a160BFc07BFB0d04F85eab1A71F4f2",
      "value": {
        "_hex": "0x0"
      },
      "nonce": 0,
      "data": "0x3ba15036",
      "r": "0x5b65bd28427321eaeb6292463ae8d4aff720b19d15da12dcb85c32fc2891fb74",
      "s": "0x0b96142a86bfc87b0ed706ed84abc2bc88c32bbaf3c9c815c828a67fd3d722bc",
      "v": 27,
      "creates": null,
      "raw": "0xf86980850ba43b740083015f9094793ae8c1b1a160bfc07bfb0d04f85eab1a71f4f280843ba150361ba05b65bd28427321eaeb6292463ae8d4aff720b19d15da12dcb85c32fc2891fb74a00b96142a86bfc87b0ed706ed84abc2bc88c32bbaf3c9c815c828a67fd3d722bc",
      "networkId": 0,
      "chainId": 0
    },
    {
      "hash": "0x147881807ae4a97952b206f919f5eedc5c947865758daf2fc4e37580d5d9fde7",
      "blockHash": "0x4defd33c43d6cab4413cfa80102b0333f7f110fee733d5a47dc99b51d6839848",
      "blockNumber": 64520,
      "transactionIndex": 1,
      "confirmations": null,
      "from": "0x0c012a3c88Efe26c88cAc1C4E77b4687c268030B",
      "gasPrice": {
        "_hex": "0xba43b7400"
      },
      "gasLimit": {
        "_hex": "0x15f90"
      },
      "to": "0x793AE8C1b1a160BFc07BFB0d04F85eab1A71F4f2",
      "value": {
        "_hex": "0x0"
      },
      "nonce": 0,
      "data": "0x3ba15036",
      "r": "0xd1fc7dd77763809526d4f367eb0fd11c45214908ff3f19b5fc54ddb879d2ab8f",
      "s": "0x717bf2d288024bdda3c6c1df6dd1a46ab47be45543330f2c0872d3783f9c1c86",
      "v": 28,
      "creates": null,
      "raw": "0xf86980850ba43b740083015f9094793ae8c1b1a160bfc07bfb0d04f85eab1a71f4f280843ba150361ca0d1fc7dd77763809526d4f367eb0fd11c45214908ff3f19b5fc54ddb879d2ab8fa0717bf2d288024bdda3c6c1df6dd1a46ab47be45543330f2c0872d3783f9c1c86",
      "networkId": 0,
      "chainId": 0
    }
  ]
}