{
  "hash": "0x8848ad21700a727d7544ccc330637bf30f443d27b36774e9df7fa8733f7641f2",
  "parentHash": "0x97d19a526b391763c35b6b050a2a38cc25fd117fbd28478e3c3c9dc5a7beef09",
  "number": 49463,
  "timestamp": 1438973786,
  "nonce": "0xd4741398bb8318a9",
  "difficulty": 1482108559315,
  "gasLimit": {
    "_hex": "0x31e53"
  },
  "gasUsed": {
    "_hex": "0x5208"
  },
  "miner": "0xF2d2AfF1320476cb8C6b607199D23175cc595693",
  "extraData": "0x476574682f76312e302e312f77696e646f77732f676f312e342e32",
  "transactions": [
    {
      "hash": "0xc2f191a0a058018ec11264081bb4c03282de074116468f671c8624c4d55b4c30",
      "blockHash": "0x8848ad21700a727d7544ccc330637bf30f443d27b36774e9df7fa8733f7641f2",
      "blockNumber": 49463,
      "transactionIndex": 0,
      "confirmations": null,
      "from": "0x6E4F1DD8EDB448D8F0F2829eb817B81ACEE45152",
      "gasPrice": {
        "_hex": "0xd8364fc25"
      },
      "gasLimit": {
        "_hex": "0x15f90"
      },
      "to": "0x756C55cbfa47fd23c0260F958e65866E64c096CB",
      "value": {
        "_hex": "0x38d7ea4c68000"
      },
      "nonce": 2,
      "data": "0x",
      "r": "0x67d77210ca2a5176546cb75bd3ea4b6b8cebf7dea95487074eace87e6b762c29",
      "s": "0x66de734ad0c98aa1e7b7333b38f02e94d4fe0a90dc281fdfa12ad091499db73f",
      "v": 28,
      "creates": null,
      "raw": "0xf86c02850d8364fc2583015f9094756c55cbfa47fd23c0260f958e65866e64c096cb87038d7ea4c68000801ca067d77210ca2a5176546cb75bd3ea4b6b8cebf7dea95487074eace87e6b762c29a066de734ad0c98aa1e7b7333b38f02e94d4fe0a90dc281fdfa12ad091499db73f",
      "networkId": 0,
      "chainId": 0
    }
  ]
}