{
  "hash": "0xcaa797e9939a36d5db55de2ed5b0c9e1b604d0de6f15f678fbdacc466a7212ed",
  "parentHash": "0x179a70f186b7b8b1eac9632888597123ce2dfb612a06f97a7be4f867204d2c9a",
  "number": 51631,
  "timestamp": 1439008162,
  "nonce": "0x7fbaba88d28dd523",
  "difficulty": 1558912689473,
  "gasLimit": {
    "_hex": "0xc7e2b"
  },
  "gasUsed": {
    "_hex": "0x7a120"
  },
  "miner": "0x9746c7e1ef2bd21FF3997fa467593a89cb852BD0",
  "extraData": "0x476574682f76312e302e312f77696e646f77732f676f312e342e32",
  "transactions": [
    {
      "hash": "0x67ac95193457fca90d28d09fb36d7a7b72b563271adcb1cec7ff02fbbf667087",
      "blockHash": "0xcaa797e9939a36d5db55de2ed5b0c9e1b604d0de6f15f678fbdacc466a7212ed",
      "blockNumber": 51631,
      "transactionIndex": 0,
      "confirmations": null,
      "from": "0xFCf9f6A78f06227522c6f948ec0119dA31680Ef7",
      "gasPrice": {
        "_hex": "0xdc4b653f2"
      },
      "gasLimit": {
        "_hex": "0x7a120"
      },
      "to": "0x109C4f2CCc82C4d77Bde15F306707320294Aea3F",
      "value": {
        "_hex": "0xde0b6b3a7640000"
      },
      "nonce": 39,
      "data": "0x",
      "r": "0x25b671d75267cffec18df2878f5e61b18ab80c83255d70d24389c76a2551c296",
      "s": "0x7dfbe96ff455110b7585e897b90997f0322d70a4fbd8a277e8e33f0895bfac24",
      "v": 27,
      "creates": null,
      "raw": "0xf86d27850dc4b653f28307a12094109c4f2ccc82c4d77bde15f306707320294aea3f880de0b6b3a7640000801ba025b671d75267cffec18df2878f5e61b18ab80c83255d70d24389c76a2551c296a07dfbe96ff455110b7585e897b90997f0322d70a4fbd8a277e8e33f0895bfac24",
      "networkId": 0,
      "chainId": 0
    }
  ]
}