{
  "hash": "0x541be237c0119acbc6b014d6c803c12e8da58325773ac31637d5352f67f6d30f",
  "parentHash": "0x86319b9de3e9cf56688fa4216c779b1ae7406e2d3315f42f849f25827e409d7a",
  "number": 107531,
  "timestamp": 1439924017,
  "nonce": "0x7d184b4e9ec8cb12",
  "difficulty": 4424377341460,
  "gasLimit": {
    "_hex": "0x2fefd8"
  },
  "gasUsed": {
    "_hex": "0x1bdbe"
  },
  "miner": "0xe6A7a1d47ff21B6321162AEA7C6CB457D5476Bca",
  "extraData": "0x476574682f76312e302e312d38326566323666362f6c696e75782f676f312e34",
  "transactions": [
    {
      "hash": "0x52378dade1bead0c506f6e38e254fb3c456ea2154bf99d236c98aa82344860d5",
      "blockHash": "0x541be237c0119acbc6b014d6c803c12e8da58325773ac31637d5352f67f6d30f",
      "blockNumber": 107531,
      "transactionIndex": 0,
      "confirmations": null,
      "from": "0x57a5156876AA9d5bA611Db7871966a2a8c1D8f4e",
      "gasPrice": {
        "_hex": "0xd1804e738"
      },
      "gasLimit": {
        "_hex": "0x249f0"
      },
      "to": "0xE28e72FCf78647ADCe1F1252F240bbfaebD63BcC",
      "value": {
        "_hex": "0x56bc75e2d63100000"
      },
      "nonce": 0,
      "data": "0x45466f3a",
      "r": "0x39e4037d2cfa0e07f4e4f81d18786ed9fee35dadba60a338e6bcc47189891565",
      "s": "0x02bad7816c38877f369edc3fe796994a118acaa39c4bf66cb027ed4fcb200955",
      "v": 27,
      "creates": null,
      "raw": "0xf87280850d1804e738830249f094e28e72fcf78647adce1f1252f240bbfaebd63bcc89056bc75e2d631000008445466f3a1ba039e4037d2cfa0e07f4e4f81d18786ed9fee35dadba60a338e6bcc47189891565a002bad7816c38877f369edc3fe796994a118acaa39c4bf66cb027ed4fcb200955",
      "networkId": 0,
      "chainId": 0
    }
  ]
}