{
  "hash": "0x9c3acbf4ec73dc68e821cc609e603558a3269cd7db550c21c95c4e2fd55b63cf",
  "parentHash": "0x054bf763619a08c8f59de434f1ed0f553996a5962eb300b05ea27ed5b4661a08",
  "number": 102619,
  "timestamp": 1439840690,
  "nonce": "0x05849cfd031a3d08",
  "difficulty": 4007252033440,
  "gasLimit": {
    "_hex": "0x2fefd8"
  },
  "gasUsed": {
    "_hex": "0x5208"
  },
  "miner": "0xFE78b27B9A135636679f07FbcCCa7CABD8E5c370",
  "extraData": "0x",
  "transactions": [
    {
      "hash": "0xa776ff5eb0bd80c933f87c80442b8403e0e0773b012600905782b7817be2183c",
      "blockHash": "0x9c3acbf4ec73dc68e821cc609e603558a3269cd7db550c21c95c4e2fd55b63cf",
      "blockNumber": 102619,
      "transactionIndex": 0,
      "confirmations": null,
      "from": "0xcf00A85f3826941e7A25BFcF9Aac575d40410852",
      "gasPrice": {
        "_hex": "0xcb5bea614"
      },
      "gasLimit": {
        "_hex": "0x15f90"
      },
      "to": "0xD9666150A9dA92d9108198a4072970805a8B3428",
      "value": {
        "_hex": "0x4563918244f40000"
      },
      "nonce": 45,
      "data": "0x",
      "r": "0x113f555cc682c113a516be6ddcffeb3b00b5264545b31951205f9551762c28cf",
      "s": "0x43a642798f291d4bc30a0077f4d49a88aceb916887047f908f4bf2dab67229a3",
      "v": 28,
      "creates": null,
      "raw": "0xf86d2d850cb5bea61483015f9094d9666150a9da92d9108198a4072970805a8b3428884563918244f40000801ca0113f555cc682c113a516be6ddcffeb3b00b5264545b31951205f9551762c28cfa043a642798f291d4bc30a0077f4d49a88aceb916887047f908f4bf2dab67229a3",
      "networkId": 0,
      "chainId": 0
    }
  ]
}