{
  "hash": "0xd390389d6b8bc675e95b24513225cd53b0083511f3951bd7e944d51da6466d32",
  "parentHash": "0x499f2ecc06f27860970c7febce7a1881187c5db72837cba7132dc98acb457182",
  "number": 55252,
  "timestamp": 1439067674,
  "nonce": "0x49051e308bba2f59",
  "difficulty": 1638612586851,
  "gasLimit": {
    "_hex": "0x2fefd8"
  },
  "gasUsed": {
    "_hex": "0x8abe2"
  },
  "miner": "0x3222BA3F3e79eA0e31467EEE7639B57923558cCD",
  "extraData": "0x",
  "transactions": [
    {
      "hash": "0x65e08cc570c50e91acb73288a0b9e1c5ef07a8b722891bfa1ddcf1e543c4e8a3",
      "blockHash": "0xd390389d6b8bc675e95b24513225cd53b0083511f3951bd7e944d51da6466d32",
      "blockNumber": 55252,
      "transactionIndex": 0,
      "confirmations": null,
      "from": "0x0ae3F81a67725a8A7758FeB8684c6c17dA20755D",
      "gasPrice": {
        "_hex": "0xcb26bf950"
      },
      "gasLimit": {
        "_hex": "0x1e8480"
      },
      "to": "0xA327075af2a223A1C83a36aDa1126afE7430f955",
      "value": {
        "_hex": "0x8ac7230489e80000"
      },
      "nonce": 85,
      "data": "0x",
      "r": "0x865ac39b64597430342c8b5279e0f143cff3188752b1dee2b7bc5741997cdbc4",
      "s": "0x6d7da2655d6865854427df98e1c0bd0cb562d66db28d3ba2aded02447c85a05e",
      "v": 27,
      "creates": null,
      "raw": "0xf86d55850cb26bf950831e848094a327075af2a223a1c83a36ada1126afe7430f955888ac7230489e80000801ba0865ac39b64597430342c8b5279e0f143cff3188752b1dee2b7bc5741997cdbc4a06d7da2655d6865854427df98e1c0bd0cb562d66db28d3ba2aded02447c85a05e",
      "networkId": 0,
      "chainId": 0
    },
    {
      "hash": "0xd52f5f1687d4f35bf29890c30c815b6d7bb5e12a147da4d4baa30882ef4b59d3",
      "blockHash": "0xd390389d6b8bc675e95b24513225cd53b0083511f3951bd7e944d51da6466d32",
      "blockNumber": 55252,
      "transactionIndex": 1,
      "confirmations": null,
      "from": "0x0ae3F81a67725a8A7758FeB8684c6c17dA20755D",
      "gasPrice": {
        "_hex": "0xcb26bf950"
      },
      "gasLimit": {
        "_hex": "0x1e8480"
      },
      "to": "0xA327075af2a223A1C83a36aDa1126afE7430f955",
      "value": {
        "_hex": "0x8ac7230489e80000"
      },
      "nonce": 86,
      "data": "0x",
      "r": "0x4e45e43400c7d6f388d5fc0b778a9dd7f5a26e06dc9ea7902fda5b69185a05b8",
      "s": "0x5cab4cb6f8312adf579bd0ea44a3d7189b2766f73e96a97e34ad3bd7d9d08f97",
      "v": 28,
      "creates": null,
      "raw": "0xf86d56850cb26bf950831e848094a327075af2a223a1c83a36ada1126afe7430f955888ac7230489e80000801ca04e45e43400c7d6f388d5fc0b778a9dd7f5a26e06dc9ea7902fda5b69185a05b8a05cab4cb6f8312adf579bd0ea44a3d7189b2766f73e96a97e34ad3bd7d9d08f97",
      "networkId": 0,
      "chainId": 0
    },
    {
      "hash": "0x38d0d29f15ad07aff9b8995dffbe96fd7cac16518eab8118337dec3096cb2a92",
      "blockHash": "0xd390389d6b8bc675e95b24513225cd53b0083511f3951bd7e944d51da6466d32",
      "blockNumber": 55252,
      "transactionIndex": 2,
      "confirmations": null,
      "from": "0x0ae3F81a67725a8A7758FeB8684c6c17dA20755D",
      "gasPrice": {
        "_hex": "0xcb26bf950"
      },
      "gasLimit": {
        "_hex": "0x1e8480"
      },
      "to": "0xA327075af2a223A1C83a36aDa1126afE7430f955",
      "value": {
        "_hex": "0x8ac7230489e80000"
      },
      "nonce": 87,
      "data": "0x",
      "r": "0x7368ec32b98c32393c3852c3c50429b5e806411999f50705198a9e185c07e9eb",
      "s": "0x1aa626adaaf099d59dfa83ecd5556cdc629baf0a04b5b287573dee5368db0c2d",
      "v": 28,
      "creates": null,
      "raw": "0xf86d57850cb26bf950831e848094a327075af2a223a1c83a36ada1126afe7430f955888ac7230489e80000801ca07368ec32b98c32393c3852c3c50429b5e806411999f50705198a9e185c07e9eba01aa626adaaf099d59dfa83ecd5556cdc629baf0a04b5b287573dee5368db0c2d",
      "networkId": 0,
      "chainId": 0
    },
    {
      "hash": "0x968e5b6a0aba5a04cb9b8a6852afc849ad834d3fa2371b33e582ef21a3b6c8fc",
      "blockHash": "0xd390389d6b8bc675e95b24513225cd53b0083511f3951bd7e944d51da6466d32",
      "blockNumber": 55252,
      "transactionIndex": 3,
      "confirmations": null,
      "from": "0x0ae3F81a67725a8A7758FeB8684c6c17dA20755D",
      "gasPrice": {
        "_hex": "0xcb26bf950"
      },
      "gasLimit": {
        "_hex": "0x1e8480"
      },
      "to": "0xA327075af2a223A1C83a36aDa1126afE7430f955",
      "value": {
        "_hex": "0x8ac7230489e80000"
      },
      "nonce": 88,
      "data": "0x",
      "r": "0xfeb935ae5b5b8e1dfa26e0dca320c59770dc2d1684b2e65944fdce4398f97c92",
      "s": "0x37e1185f99489d7414dcbf09309237a244b91a42facd3d3ba27f643be100cfd2",
      "v": 28,
      "creates": null,
      "raw": "0xf86d58850cb26bf950831e848094a327075af2a223a1c83a36ada1126afe7430f955888ac7230489e80000801ca0feb935ae5b5b8e1dfa26e0dca320c59770dc2d1684b2e65944fdce4398f97c92a037e1185f99489d7414dcbf09309237a244b91a42facd3d3ba27f643be100cfd2",
      "networkId": 0,
      "chainId": 0
    },
    {
      "hash": "0x1d969df55519b49fc0bf815bc9b78e2e7a2a1c744fc6b5183639304315c3f03f",
      "blockHash": "0xd390389d6b8bc675e95b24513225cd53b0083511f3951bd7e944d51da6466d32",
      "blockNumber": 55252,
      "transactionIndex": 4,
      "confirmations": null,
      "from": "0x0ae3F81a67725a8A7758FeB8684c6c17dA20755D",
      "gasPrice": {
        "_hex": "0xcb26bf950"
      },
      "gasLimit": {
        "_hex": "0x1e8480"
      },
      "to": "0xA327075af2a223A1C83a36aDa1126afE7430f955",
      "value": {
        "_hex": "0x8ac7230489e80000"
      },
      "nonce": 89,
      "data": "0x",
      "r": "0x38109c5977a610ed0acba7da76f71d7e0bee9b897ad53e88789975c547e6e96e",
      "s": "0x67a611b92f78a3f6db8a81f4e1efd8cb0cedad63bb8dba264347df9c81e91c84",
      "v": 27,
      "creates": null,
      "raw": "0xf86d59850cb26bf950831e848094a327075af2a223a1c83a36ada1126afe7430f955888ac7230489e80000801ba038109c5977a610ed0acba7da76f71d7e0bee9b897ad53e88789975c547e6e96ea067a611b92f78a3f6db8a81f4e1efd8cb0cedad63bb8dba264347df9c81e91c84",
      "networkId": 0,
      "chainId": 0
    },
    {
      "hash": "0xf0dc2c2089548d09bddc01bd23be15e79c570f82b80e1b3669ebcf46dcbd1cdd",
      "blockHash": "0xd390389d6b8bc675e95b24513225cd53b0083511f3951bd7e944d51da6466d32",
      "blockNumber": 55252,
      "transactionIndex": 5,
      "confirmations": null,
      "from": "0x0ae3F81a67725a8A7758FeB8684c6c17dA20755D",
      "gasPrice": {
        "_hex": "0xcb26bf950"
      },
      "gasLimit": {
        "_hex": "0x1e8480"
      },
      "to": "0xA327075af2a223A1C83a36aDa1126afE7430f955",
      "value": {
        "_hex": "0x8ac7230489e80000"
      },
      "nonce": 90,
      "data": "0x",
      "r": "0xf1fb2571c4fec14a9fe683908a396f706ab63dabc5b406d1f2093a8898d67b19",
      "s": "0x4a632019e2cf88a23561cf4fa8196611a3b3c8c4fbd4d3427cb3c7620869f2bf",
      "v": 27,
      "creates": null,
      "raw": "0xf86d5a850cb26bf950831e848094a327075af2a223a1c83a36ada1126afe7430f955888ac7230489e80000801ba0f1fb2571c4fec14a9fe683908a396f706ab63dabc5b406d1f2093a8898d67b19a04a632019e2cf88a23561cf4fa8196611a3b3c8c4fbd4d3427cb3c7620869f2bf",
      "networkId": 0,
      "chainId": 0
    },
    {
      "hash": "0x6e1031e1b41e31f16b69e7c096b5279f6d6c903b34cc1464f0eff7448f34085f",
      "blockHash": "0xd390389d6b8bc675e95b24513225cd53b0083511f3951bd7e944d51da6466d32",
      "blockNumber": 55252,
      "transactionIndex": 6,
      "confirmations": null,
      "from": "0x0ae3F81a67725a8A7758FeB8684c6c17dA20755D",
      "gasPrice": {
        "_hex": "0xcb26bf950"
      },
      "gasLimit": {
        "_hex": "0x1e8480"
      },
      "to": "0xA327075af2a223A1C83a36aDa1126afE7430f955",
      "value": {
        "_hex": "0x8ac7230489e80000"
      },
      "nonce": 91,
      "data": "0x",
      "r": "0x363ca2e575a0d8be13a5b42545d83df18b05330393820e4f074f29e41cc9db91",
      "s": "0x53e027f2547137db42ec676f250ca8be6c104e1cfce0b001b8907ecb5b293b92",
      "v": 28,
      "creates": null,
      "raw": "0xf86d5b850cb26bf950831e848094a327075af2a223a1c83a36ada1126afe7430f955888ac7230489e80000801ca0363ca2e575a0d8be13a5b42545d83df18b05330393820e4f074f29e41cc9db91a053e027f2547137db42ec676f250ca8be6c104e1cfce0b001b8907ecb5b293b92",
      "networkId": 0,
      "chainId": 0
    },
    {
      "hash": "0x458602206a863d020accace595dcb6218d0888eed8e657ab922d1a3711fe3fff",
      "blockHash": "0xd390389d6b8bc675e95b24513225cd53b0083511f3951bd7e944d51da6466d32",
      "blockNumber": 55252,
      "transactionIndex": 7,
      "confirmations": null,
      "from": "0x0ae3F81a67725a8A7758FeB8684c6c17dA20755D",
      "gasPrice": {
        "_hex": "0xcb26bf950"
      },
      "gasLimit": {
        "_hex": "0x1e8480"
      },
      "to": "0xA327075af2a223A1C83a36aDa1126afE7430f955",
      "value": {
        "_hex": "0x8ac7230489e80000"
      },
      "nonce": 92,
      "data": "0x",
      "r": "0xa807351726b28e276a7967288d5c2e543f3ae9147d3e00eb21e26ee22d565a7e",
      "s": "0x07ba9c00364805bae5fc804cec87f963dbc2e4fb762508cd7cd5f89d95b3e085",
      "v": 27,
      "creates": null,
      "raw": "0xf86d5c850cb26bf950831e848094a327075af2a223a1c83a36ada1126afe7430f955888ac7230489e80000801ba0a807351726b28e276a7967288d5c2e543f3ae9147d3e00eb21e26ee22d565a7ea007ba9c00364805bae5fc804cec87f963dbc2e4fb762508cd7cd5f89d95b3e085",
      "networkId": 0,
      "chainId": 0
    },
    {
      "hash": "0xfce17bcbcdc1acb7d6b1f852431a5ef7cf5ff6bcddbec05b47d023bd96adb308",
      "blockHash": "0xd390389d6b8bc675e95b24513225cd53b0083511f3951bd7e944d51da6466d32",
      "blockNumber": 55252,
      "transactionIndex": 8,
      "confirmations": null,
      "from": "0x0ae3F81a67725a8A7758FeB8684c6c17dA20755D",
      "gasPrice": {
        "_hex": "0xcb26bf950"
      },
      "gasLimit": {
        "_hex": "0x1e8480"
      },
      "to": "0xA327075af2a223A1C83a36aDa1126afE7430f955",
      "value": {
        "_hex": "0x8ac7230489e80000"
      },
      "nonce": 93,
      "data": "0x",
      "r": "0xe28dd527f135e0ea23b3a9d0b1cd826871f13f79d3b5c45c83b9085ba86992bd",
      "s": "0x4e8baa517c310012b4ba97a1bb6f39f8cd97416df96aa55a679689064d8d5600",
      "v": 28,
      "creates": null,
      "raw": "0xf86d5d850cb26bf950831e848094a327075af2a223a1c83a36ada1126afe7430f955888ac7230489e80000801ca0e28dd527f135e0ea23b3a9d0b1cd826871f13f79d3b5c45c83b9085ba86992bda04e8baa517c310012b4ba97a1bb6f39f8cd97416df96aa55a679689064d8d5600",
      "networkId": 0,
      "chainId": 0
    },
    {
      "hash": "0xb606634af7cd32f3da215b4186ed0cebf1ab19e98c3f22dc074611e46bd101b5",
      "blockHash": "0xd390389d6b8bc675e95b24513225cd53b0083511f3951bd7e944d51da6466d32",
      "blockNumber": 55252,
      "transactionIndex": 9,
      "confirmations": null,
      "from": "0x0ae3F81a67725a8A7758FeB8684c6c17dA20755D",
      "gasPrice": {
        "_hex": "0xcb26bf950"
      },
      "gasLimit": {
        "_hex": "0x1e8480"
      },
      "to": "0xA327075af2a223A1C83a36aDa1126afE7430f955",
      "value": {
        "_hex": "0x8ac7230489e80000"
      },
      "nonce": 94,
      "data": "0x",
      "r": "0xd86605bba5222f55ad6878a18f554c94f0cd197ceefb6857812b72efa910dcde",
      "s": "0x333b27a381b2a5dd07ec8a06115da453a7eebc2825e29be759b8edbbfbf3aef4",
      "v": 27,
      "creates": null,
      "raw": "0xf86d5e850cb26bf950831e848094a327075af2a223a1c83a36ada1126afe7430f955888ac7230489e80000801ba0d86605bba5222f55ad6878a18f554c94f0cd197ceefb6857812b72efa910dcdea0333b27a381b2a5dd07ec8a06115da453a7eebc2825e29be759b8edbbfbf3aef4",
      "networkId": 0,
      "chainId": 0
    }
  ]
}