{
  "hash": "0xb637f1845b7ff41a10f68f37264eb294c050d4036ef541808f66dc4828def64d",
  "parentHash": "0xc246637e8364b486820ad986b310f1052e28f674ef484ffc37b87aff52d17175",
  "number": 94642,
  "timestamp": 1439711506,
  "nonce": "0x8d3b6264461fc5b3",
  "difficulty": 3507064301575,
  "gasLimit": {
    "_hex": "0x2fefd8"
  },
  "gasUsed": {
    "_hex": "0xf618"
  },
  "miner": "0xe6A7a1d47ff21B6321162AEA7C6CB457D5476Bca",
  "extraData": "0x476574682f76312e302e312d38326566323666362f6c696e75782f676f312e34",
  "transactions": [
    {
      "hash": "0x8958572ba63131bc38b9b07ec991ffd6690615602aa7a30fbef618d12909cd00",
      "blockHash": "0xb637f1845b7ff41a10f68f37264eb294c050d4036ef541808f66dc4828def64d",
      "blockNumber": 94642,
      "transactionIndex": 0,
      "confirmations": null,
      "from": "0xe6A7a1d47ff21B6321162AEA7C6CB457D5476Bca",
      "gasPrice": {
        "_hex": "0xd16057dc4"
      },
      "gasLimit": {
        "_hex": "0x55f0"
      },
      "to": "0x2d11763B4999FB3b61Ca8d19C8C77a743079f7bd",
      "value": {
        "_hex": "0x16caa0c57303f218"
      },
      "nonce": 2564,
      "data": "0x",
      "r": "0xa1abc2fd9b419d59a304bb71cb5afed769463054d34b8bc859e42d24a70eadf6",
      "s": "0x467ee9acf353a6dd1aa8a94759d457d89ba0e43a757fc99a24c02a089ae2c514",
      "v": 27,
      "creates": null,
      "raw": "0xf86e820a04850d16057dc48255f0942d11763b4999fb3b61ca8d19c8c77a743079f7bd8816caa0c57303f218801ba0a1abc2fd9b419d59a304bb71cb5afed769463054d34b8bc859e42d24a70eadf6a0467ee9acf353a6dd1aa8a94759d457d89ba0e43a757fc99a24c02a089ae2c514",
      "networkId": 0,
      "chainId": 0
    },
    {
      "hash": "0xba9e2b671b0bd4825c985815aa59e665dd8e696d6b42f451bd945290dba22b4e",
      "blockHash": "0xb637f1845b7ff41a10f68f37264eb294c050d4036ef541808f66dc4828def64d",
      "blockNumber": 94642,
      "transactionIndex": 1,
      "confirmations": null,
      "from": "0xe6A7a1d47ff21B6321162AEA7C6CB457D5476Bca",
      "gasPrice": {
        "_hex": "0xd16057dc4"
      },
      "gasLimit": {
        "_hex": "0x55f0"
      },
      "to": "0x0EB0AcFB7C81a83296b8C023673f362e8FCd88bD",
      "value": {
        "_hex": "0x16de09c61215c828"
      },
      "nonce": 2565,
      "data": "0x",
      "r": "0x2bcd9a6f8686cb4fdcb67c2d6cb83976b37d7ecb52659a44ada661087f542dbe",
      "s": "0x6b38b08770d6a509772367fb9e0e719d8907eabda15f300207fcbde9d5fd538d",
      "v": 28,
      "creates": null,
      "raw": "0xf86e820a05850d16057dc48255f0940eb0acfb7c81a83296b8c023673f362e8fcd88bd8816de09c61215c828801ca02bcd9a6f8686cb4fdcb67c2d6cb83976b37d7ecb52659a44ada661087f542dbea06b38b08770d6a509772367fb9e0e719d8907eabda15f300207fcbde9d5fd538d",
      "networkId": 0,
      "chainId": 0
    },
    {
      "hash": "0xc40fcfbf8046dd991f613491a9a0c57ce78b55d9dca179cc72d2903c85bcd3ee",
      "blockHash": "0xb637f1845b7ff41a10f68f37264eb294c050d4036ef541808f66dc4828def64d",
      "blockNumber": 94642,
      "transactionIndex": 2,
      "confirmations": null,
      "from": "0xe6A7a1d47ff21B6321162AEA7C6CB457D5476Bca",
      "gasPrice": {
        "_hex": "0xd16057dc4"
      },
      "gasLimit": {
        "_hex": "0x55f0"
      },
      "to": "0x9C79cd9eDDAC7B87063732BC9629e3404341FB6E",
      "value": {
        "_hex": "0x16e426a0d3a58c88"
      },
      "nonce": 2566,
      "data": "0x",
      "r": "0x284baafe327379b79af79fc9655c4e0027ac1cd8ad1f6456077c2d675019dcc1",
      "s": "0x1a1dfb62881c9912ddaba534c8a3e23d579240ced38412e216eb580c1c77bf54",
      "v": 28,
      "creates": null,
      "raw": "0xf86e820a06850d16057dc48255f0949c79cd9eddac7b87063732bc9629e3404341fb6e8816e426a0d3a58c88801ca0284baafe327379b79af79fc9655c4e0027ac1cd8ad1f6456077c2d675019dcc1a01a1dfb62881c9912ddaba534c8a3e23d579240ced38412e216eb580c1c77bf54",
      "networkId": 0,
      "chainId": 0
    }
  ]
}