{
  "hash": "0x4d0d0b12e1490d4f2414dd12a76ca6bdaadcb6494819f3452d20f30fd1a39332",
  "parentHash": "0x5f1a7043115c4120fd8b1d4ba1c3b9968054a0759d91d50164069a283489d1b7",
  "number": 48646,
  "timestamp": 1438960395,
  "nonce": "0x4095bd9b3ac773d6",
  "difficulty": 1474312937107,
  "gasLimit": {
    "_hex": "0x1b4b4"
  },
  "gasUsed": {
    "_hex": "0xa674"
  },
  "miner": "0x3FF679B0823a026F2378E5f5F22A6F127cC85828",
  "extraData": "0x476574682f76312e302e302f6c696e75782f676f312e342e32",
  "transactions": [
    {
      "hash": "0x1292c33bdb75aad5d6cd37e217b9dcca0eaa50a836b47101e0581745c685e88a",
      "blockHash": "0x4d0d0b12e1490d4f2414dd12a76ca6bdaadcb6494819f3452d20f30fd1a39332",
      "blockNumber": 48646,
      "transactionIndex": 0,
      "confirmations": null,
      "from": "0xB2676841Ee9f2d31C172E82303b0Fe9BBf9f1e09",
      "gasPrice": {
        "_hex": "0xdac45e38c"
      },
      "gasLimit": {
        "_hex": "0x15f90"
      },
      "to": "0xd67EA950Fe0e4a0e1367Bda02c0548BD446A8443",
      "value": {
        "_hex": "0xde0b6b3a7640000"
      },
      "nonce": 0,
      "data": "0x",
      "r": "0x54d233d23ddd4dbeca15f530659bfd0a9643a6f4a054253a77da5913d24f6ae2",
      "s": "0x62d7cda3acdc416cd67f5fb3b3245bf3ebee80f5f6614db458129db8f013c4e6",
      "v": 28,
      "creates": null,
      "raw": "0xf86d80850dac45e38c83015f9094d67ea950fe0e4a0e1367bda02c0548bd446a8443880de0b6b3a7640000801ca054d233d23ddd4dbeca15f530659bfd0a9643a6f4a054253a77da5913d24f6ae2a062d7cda3acdc416cd67f5fb3b3245bf3ebee80f5f6614db458129db8f013c4e6",
      "networkId": 0,
      "chainId": 0
    },
    {
      "hash": "0x76b84db353b5aa515765e6b6fa264c1818ff03d45b9c501aae605055791116e1",
      "blockHash": "0x4d0d0b12e1490d4f2414dd12a76ca6bdaadcb6494819f3452d20f30fd1a39332",
      "blockNumber": 48646,
      "transactionIndex": 1,
      "confirmations": null,
      "from": "0x2100381D60a5B54aDC09D19683A8F6D5bB4bFbCb",
      "gasPrice": {
        "_hex": "0xcfb57edfc"
      },
      "gasLimit": {
        "_hex": "0x15f90"
      },
      "to": "0x2910543Af39abA0Cd09dBb2D50200b3E800A63D2",
      "value": {
        "_hex": "0xd8c7d4fb94a3636880"
      },
      "nonce": 3,
      "data": "0x454e37394b33593930",
      "r": "0x02b0840dc95d9e2766a3c9415ed846a5d840b24ffeb92f46b52110abf344784b",
      "s": "0x53391eb13751ed38c54b4160bcf053642bf92a80d2e8ee2021fd3033de3232f4",
      "v": 28,
      "creates": null,
      "raw": "0xf87703850cfb57edfc83015f90942910543af39aba0cd09dbb2d50200b3e800a63d289d8c7d4fb94a363688089454e37394b335939301ca002b0840dc95d9e2766a3c9415ed846a5d840b24ffeb92f46b52110abf344784ba053391eb13751ed38c54b4160bcf053642bf92a80d2e8ee2021fd3033de3232f4",
      "networkId": 0,
      "chainId": 0
    }
  ]
}