{
  "hash": "0x3275c49cafb17fd1aee4933e28a3fd81bf34a9b70d7792ba1be9b9c27097e8ab",
  "parentHash": "0x77166fc5c5f394a2936b808c9c210c4984a383125753118d572188315ac08191",
  "number": 77338,
  "timestamp": 1439435604,
  "nonce": "0x409108d971244312",
  "difficulty": 2233828809574,
  "gasLimit": {
    "_hex": "0x2fefd8"
  },
  "gasUsed": {
    "_hex": "0xa410"
  },
  "miner": "0xe6A7a1d47ff21B6321162AEA7C6CB457D5476Bca",
  "extraData": "0x476574682f76312e302e312d38326566323666362f6c696e75782f676f312e34",
  "transactions": [
    {
      "hash": "0x15e9dafafdb613f3dd324c6581cbe4edeefe413b3e205013e5c50ed90c704265",
      "blockHash": "0x3275c49cafb17fd1aee4933e28a3fd81bf34a9b70d7792ba1be9b9c27097e8ab",
      "blockNumber": 77338,
      "transactionIndex": 0,
      "confirmations": null,
      "from": "0xcf684DFB8304729355B58315E8019B1aa2AD1Bac",
      "gasPrice": {
        "_hex": "0xd7d40ace3"
      },
      "gasLimit": {
        "_hex": "0x15f90"
      },
      "to": "0xA938b9DCabbB3eA3cC14eE810138c803edee9222",
      "value": {
        "_hex": "0x17714f80d5adec0000"
      },
      "nonce": 1,
      "data": "0x",
      "r": "0xfaaaa2a11b6ba61b169c3c6d966ad5081e4347c5e4f3f25b10ade4e7417956de",
      "s": "0x2fc4224fda70afef76c8f05ea2057f6dee4584b1686d39483cee1c96f8866336",
      "v": 27,
      "creates": null,
      "raw": "0xf86e01850d7d40ace383015f9094a938b9dcabbb3ea3cc14ee810138c803edee92228917714f80d5adec0000801ba0faaaa2a11b6ba61b169c3c6d966ad5081e4347c5e4f3f25b10ade4e7417956dea02fc4224fda70afef76c8f05ea2057f6dee4584b1686d39483cee1c96f8866336",
      "networkId": 0,
      "chainId": 0
    },
    {
      "hash": "0x493395c129f6e53febe63f39357519b3d12e49523bb13c6a4bf10ac03802a51f",
      "blockHash": "0x3275c49cafb17fd1aee4933e28a3fd81bf34a9b70d7792ba1be9b9c27097e8ab",
      "blockNumber": 77338,
      "transactionIndex": 1,
      "confirmations": null,
      "from": "0x1E9Cb3929516130db1ac4CB03a20cAe1CEE52F71",
      "gasPrice": {
        "_hex": "0xd6b3f8bec"
      },
      "gasLimit": {
        "_hex": "0x15f90"
      },
      "to": "0x24C0B9E42a508F3cB1A66c03dEf2Baf4c4555a89",
      "value": {
        "_hex": "0xb1a2bc2ec50000"
      },
      "nonce": 0,
      "data": "0x",
      "r": "0x9e1e9724a38f75106f6307f3efb9765f366ffe397832ce135f5fe62867484316",
      "s": "0x2986c4d2fc545c8abc695aab8cd404fe16c90fe938cf7f9b2cdfdcc788157831",
      "v": 28,
      "creates": null,
      "raw": "0xf86c80850d6b3f8bec83015f909424c0b9e42a508f3cb1a66c03def2baf4c4555a8987b1a2bc2ec50000801ca09e1e9724a38f75106f6307f3efb9765f366ffe397832ce135f5fe62867484316a02986c4d2fc545c8abc695aab8cd404fe16c90fe938cf7f9b2cdfdcc788157831",
      "networkId": 0,
      "chainId": 0
    }
  ]
}