{
  "hash": "0xf4f23ab5b787c6e8411c5c9cd8e061418cbcc59b9ad8c7353357397c95888ce7",
  "parentHash": "0x4827a0f9d730814308291b42fd5536d41797fb3c87d54d97ac6db003909a48fe",
  "number": 79630,
  "timestamp": 1439472832,
  "nonce": "0xb820efab217d3951",
  "difficulty": 2338108528969,
  "gasLimit": {
    "_hex": "0x2fefd8"
  },
  "gasUsed": {
    "_hex": "0xa25e"
  },
  "miner": "0x580992B51e3925e23280EfB93d3047C82f17E038",
  "extraData": "0x476574682f76312e302e312f6c696e75782f676f312e342e32",
  "transactions": [
    {
      "hash": "0x4a90dff035b0a99a279b18a1396a9c69dcf6cd493ee325fcc757d3cb1ec2cf47",
      "blockHash": "0xf4f23ab5b787c6e8411c5c9cd8e061418cbcc59b9ad8c7353357397c95888ce7",
      "blockNumber": 79630,
      "transactionIndex": 0,
      "confirmations": null,
      "from": "0x008FC7CBAdFFbD0D7fe44F8DFD60a79d721a1c9C",
      "gasPrice": {
        "_hex": "0xd37fde9d2"
      },
      "gasLimit": {
        "_hex": "0x30d40"
      },
      "to": "0x21748fB7CF936666F1b826F67fA61F265d29D42c",
      "value": {
        "_hex": "0x16345785d8a0000"
      },
      "nonce": 42,
      "data": "0x",
      "r": "0x0d12dbd13f762f1d5876dad065ccef49ecb4567c9376b7565ba170c12070f9f8",
      "s": "0x4df42a6d6c55bbd841483b2312adfdcbe152bb2a8d47cb23afff6f18c4d35957",
      "v": 28,
      "creates": null,
      "raw": "0xf86d2a850d37fde9d283030d409421748fb7cf936666f1b826f67fa61f265d29d42c88016345785d8a0000801ca00d12dbd13f762f1d5876dad065ccef49ecb4567c9376b7565ba170c12070f9f8a04df42a6d6c55bbd841483b2312adfdcbe152bb2a8d47cb23afff6f18c4d35957",
      "networkId": 0,
      "chainId": 0
    }
  ]
}