{
  "hash": "0x448fb04256e0c9a600290005bf4bf661de996c7ca82b03b23d589aefd77d6d14",
  "parentHash": "0x82f9b0ecc45a08e49baa482cf7bc7301fcf302a456d6d93376c1f8b62d2dec6d",
  "number": 81498,
  "timestamp": 1439502768,
  "nonce": "0xb50ba781454dc072",
  "difficulty": 2444991086017,
  "gasLimit": {
    "_hex": "0x2fefd8"
  },
  "gasUsed": {
    "_hex": "0x40a2"
  },
  "miner": "0xbb7B8287f3F0a933474a79eAe42CBCa977791171",
  "extraData": "0x476574682f4c5649562f76312e302e312f6c696e75782f676f312e342e32",
  "transactions": [
    {
      "hash": "0x779a49d98e161a75e2e8841020f590165bf9f1b4c89bd426fef53a300de9e0aa",
      "blockHash": "0x448fb04256e0c9a600290005bf4bf661de996c7ca82b03b23d589aefd77d6d14",
      "blockNumber": 81498,
      "transactionIndex": 0,
      "confirmations": null,
      "from": "0x062b7D49861d2A000578D647BCE532Eb1dCF5EFe",
      "gasPrice": {
        "_hex": "0xda4aa3a85"
      },
      "gasLimit": {
        "_hex": "0x2dc6c0"
      },
      "to": "0x93D38e72C5281e78f6B364eACaC6fa907EcBa164",
      "value": {
        "_hex": "0x0"
      },
      "nonce": 4,
      "data": "0x79d5f12c",
      "r": "0x354f47024ff776cfcf182b886d6b3c6f441d5341557f235552d0bab4945f6998",
      "s": "0x7957d3f9c755efc87103beef2430be7ab8a8c797d7c4c783b7ae4837f439872e",
      "v": 27,
      "creates": null,
      "raw": "0xf86904850da4aa3a85832dc6c09493d38e72c5281e78f6b364eacac6fa907ecba164808479d5f12c1ba0354f47024ff776cfcf182b886d6b3c6f441d5341557f235552d0bab4945f6998a07957d3f9c755efc87103beef2430be7ab8a8c797d7c4c783b7ae4837f439872e",
      "networkId": 0,
      "chainId": 0
    }
  ]
}