{
  "hash": "0x02b1e6c0f9ceb7fce810c457d5aadbd5e4b9db0ef9dc8e1b91a516ed4d5b843c",
  "parentHash": "0x0c431b6e390201d9b8175a46dbc299e1309300c8aae12673871a2b617a1c476f",
  "number": 84269,
  "timestamp": 1439547354,
  "nonce": "0x7c42994c4f4e0af9",
  "difficulty": 2525466995835,
  "gasLimit": {
    "_hex": "0x2fefd8"
  },
  "gasUsed": {
    "_hex": "0x99cf0"
  },
  "miner": "0xe6A7a1d47ff21B6321162AEA7C6CB457D5476Bca",
  "extraData": "0x476574682f76312e302e312d38326566323666362f6c696e75782f676f312e34",
  "transactions": [
    {
      "hash": "0x5222c55a2799b84d9778b8d58f8ee85df48e68fe16e7512c698592ce2834fb9d",
      "blockHash": "0x02b1e6c0f9ceb7fce810c457d5aadbd5e4b9db0ef9dc8e1b91a516ed4d5b843c",
      "blockNumber": 84269,
      "transactionIndex": 0,
      "confirmations": null,
      "from": "0xe6A7a1d47ff21B6321162AEA7C6CB457D5476Bca",
      "gasPrice": {
        "_hex": "0xd2d30ea5d"
      },
      "gasLimit": {
        "_hex": "0x55f0"
      },
      "to": "0x99181ED48C7c51532622dA23e20E2B38392476A7",
      "value": {
        "_hex": "0x331ff84342219f00"
      },
      "nonce": 1628,
      "data": "0x",
      "r": "0x50a49c7be52949dac36f8d81aa2ec01975fb5a7342431c957cb49d18d6c3c273",
      "s": "0x20f09df46395438d2846ef39add0febb6df282eb747bf63783899f40f21c36c9",
      "v": 28,
      "creates": null,
      "raw": "0xf86e82065c850d2d30ea5d8255f09499181ed48c7c51532622da23e20e2b38392476a788331ff84342219f00801ca050a49c7be52949dac36f8d81aa2ec01975fb5a7342431c957cb49d18d6c3c273a020f09df46395438d2846ef39add0febb6df282eb747bf63783899f40f21c36c9",
      "networkId": 0,
      "chainId": 0
    },
    {
      "hash": "0xb0599e9e9ccca11b4416b52d1f96c316450c9940b831e7da2af12b1ac006d1e3",
      "blockHash": "0x02b1e6c0f9ceb7fce810c457d5aadbd5e4b9db0ef9dc8e1b91a516ed4d5b843c",
      "blockNumber": 84269,
      "transactionIndex": 1,
      "confirmations": null,
      "from": "0xe6A7a1d47ff21B6321162AEA7C6CB457D5476Bca",
      "gasPrice": {
        "_hex": "0xd2d30ea5d"
      },
      "gasLimit": {
        "_hex": "0x55f0"
      },
      "to": "0x6923f88FCDC5D737237Ba10C2D830Aa40F4634de",
      "value": {
        "_hex": "0x3355643753ad63e0"
      },
      "nonce": 1629,
      "data": "0x",
      "r": "0xb47e3ca842652997ef3b13656bf86668342ed490b5a21824256d3523e544c264",
      "s": "0x5bb8fb443d530db082b817f9228d5796fc137f685ab282fb335dfb86bc974200",
      "v": 27,
      "creates": null,
      "raw": "0xf86e82065d850d2d30ea5d8255f0946923f88fcdc5d737237ba10c2d830aa40f4634de883355643753ad63e0801ba0b47e3ca842652997ef3b13656bf86668342ed490b5a21824256d3523e544c264a05bb8fb443d530db082b817f9228d5796fc137f685ab282fb335dfb86bc974200",
      "networkId": 0,
      "chainId": 0
    },
    {
      "hash": "0x549dfb66acbea9ea095e6122e76d9979a06553792787a8a508508b19aabb8d27",
      "blockHash": "0x02b1e6c0f9ceb7fce810c457d5aadbd5e4b9db0ef9dc8e1b91a516ed4d5b843c",
      "blockNumber": 84269,
      "transactionIndex": 2,
      "confirmations": null,
      "from": "0xe6A7a1d47ff21B6321162AEA7C6CB457D5476Bca",
      "gasPrice": {
        "_hex": "0xd2d30ea5d"
      },
      "gasLimit": {
        "_hex": "0x55f0"
      },
      "to": "0xC15233674F0Cb7729e4Ab8aB733430C40580914d",
      "value": {
        "_hex": "0x336af9f68c247c08"
      },
      "nonce": 1630,
      "data": "0x",
      "r": "0xa2d01d3bb14ddaba2cfe0bbccdc0779ef6089658da14faf525b7f4d551496a2f",
      "s": "0x273659351715cc5260faefe7494e06db40ff461f823711ca5d07f7cdf2282aeb",
      "v": 28,
      "creates": null,
      "raw": "0xf86e82065e850d2d30ea5d8255f094c15233674f0cb7729e4ab8ab733430c40580914d88336af9f68c247c08801ca0a2d01d3bb14ddaba2cfe0bbccdc0779ef6089658da14faf525b7f4d551496a2fa0273659351715cc5260faefe7494e06db40ff461f823711ca5d07f7cdf2282aeb",
      "networkId": 0,
      "chainId": 0
    },
    {
      "hash": "0x9d04431b577d82890980f743ba835290c27274816d7289ec9d1a6de04043b0e7",
      "blockHash": "0x02b1e6c0f9ceb7fce810c457d5aadbd5e4b9db0ef9dc8e1b91a516ed4d5b843c",
      "blockNumber": 84269,
      "transactionIndex": 3,
      "confirmations": null,
      "from": "0xe6A7a1d47ff21B6321162AEA7C6CB457D5476Bca",
      "gasPrice": {
        "_hex": "0xd2d30ea5d"
      },
      "gasLimit": {
        "_hex": "0x55f0"
      },
      "to": "0xad74C8133300eB63De8d69A384B1E8CcFe28DED7",
      "value": {
        "_hex": "0x33759d8c27f59a48"
      },
      "nonce": 1631,
      "data": "0x",
      "r": "0x011a8639ed39c95f3bf9b93c39638bc80df4e5d8491685975122d5613c20046e",
      "s": "0x6bea81a6c691f4fcfe8abb4f7695716f87b49963f9e684bd15bf0f6d07696a5a",
      "v": 28,
      "creates": null,
      "raw": "0xf86e82065f850d2d30ea5d8255f094ad74c8133300eb63de8d69a384b1e8ccfe28ded78833759d8c27f59a48801ca0011a8639ed39c95f3bf9b93c39638bc80df4e5d8491685975122d5613c20046ea06bea81a6c691f4fcfe8abb4f7695716f87b49963f9e684bd15bf0f6d07696a5a",
      "networkId": 0,
      "chainId": 0
    },
    {
      "hash": "0x2d6016fe0ba9b97b988b652ff6e0f3adae3065d43a5a5213319461b362ec7987",
      "blockHash": "0x02b1e6c0f9ceb7fce810c457d5aadbd5e4b9db0ef9dc8e1b91a516ed4d5b843c",
      "blockNumber": 84269,
      "transactionIndex": 4,
      "confirmations": null,
      "from": "0xe6A7a1d47ff21B6321162AEA7C6CB457D5476Bca",
      "gasPrice": {
        "_hex": "0xd2d30ea5d"
      },
      "gasLimit": {
        "_hex": "0x55f0"
      },
      "to": "0x657a04FeFfb4412AA72aEe9c4d23918A998B3DF3",
      "value": {
        "_hex": "0x33b74f13f191c80c"
      },
      "nonce": 1632,
      "data": "0x",
      "r": "0xc4d1f7e44237856a8607673c8e6dbbae23b10a2fb55ac2fd6f77d1afdd9ea4ff",
      "s": "0x1f648afc3a8c406b334e704553ba409dc92f1236989506aba4962bf4127cc80f",
      "v": 27,
      "creates": null,
      "raw": "0xf86e820660850d2d30ea5d8255f094657a04feffb4412aa72aee9c4d23918a998b3df38833b74f13f191c80c801ba0c4d1f7e44237856a8607673c8e6dbbae23b10a2fb55ac2fd6f77d1afdd9ea4ffa01f648afc3a8c406b334e704553ba409dc92f1236989506aba4962bf4127cc80f",
      "networkId": 0,
      "chainId": 0
    },
    {
      "hash": "0x2dafcb76d6000e8a1d4bcb00924ebd8eee028db2171dfed6a7e432af52bd9b4a",
      "blockHash": "0x02b1e6c0f9ceb7fce810c457d5aadbd5e4b9db0ef9dc8e1b91a516ed4d5b843c",
      "blockNumber": 84269,
      "transactionIndex": 5,
      "confirmations": null,
      "from": "0xe6A7a1d47ff21B6321162AEA7C6CB457D5476Bca",
      "gasPrice": {
        "_hex": "0xd2d30ea5d"
      },
      "gasLimit": {
        "_hex": "0x55f0"
      },
      "to": "0x6Ca7109e3020A822bc419d4F8d35F6b929398407",
      "value": {
        "_hex": "0x33baa404c8e9d9a0"
      },
      "nonce": 1633,
      "data": "0x",
      "r": "0x155af88f44d8a437a684ee9796bdc3f43f6b9b92eaa4d39f75925ae3f9a700ae",
      "s": "0x4457d929b429fc5b8d0f22b987657f1fd485d01d0f6ee1f2924694f1c370cd45",
      "v": 27,
      "creates": null,
      "raw": "0xf86e820661850d2d30ea5d8255f0946ca7109e3020a822bc419d4f8d35f6b9293984078833baa404c8e9d9a0801ba0155af88f44d8a437a684ee9796bdc3f43f6b9b92eaa4d39f75925ae3f9a700aea04457d929b429fc5b8d0f22b987657f1fd485d01d0f6ee1f2924694f1c370cd45",
      "networkId": 0,
      "chainId": 0
    },
    {
      "hash": "0xeed0acea90fe7f8c35814529739ce83927c02019d32875d9d491f5e83bccc05f",
      "blockHash": "0x02b1e6c0f9ceb7fce810c457d5aadbd5e4b9db0ef9dc8e1b91a516ed4d5b843c",
      "blockNumber": 84269,
      "transactionIndex": 6,
      "confirmations": null,
      "from": "0xe6A7a1d47ff21B6321162AEA7C6CB457D5476Bca",
      "gasPrice": {
        "_hex": "0xd2d30ea5d"
      },
      "gasLimit": {
        "_hex": "0x55f0"
      },
      "to": "0x6747f922385c9a6F9cfDf095F34345257DD597bE",
      "value": {
        "_hex": "0x33de2f7a1429d5e0"
      },
      "nonce": 1634,
      "data": "0x",
      "r": "0x9c175b47bd27b833a94c90aad7c4f3cbdc5d707148d152a83490e9cadbcf8f61",
      "s": "0x090f072fdf0689813ab285887ad99f5856f091202dc2772fa2698ed41c00a8e4",
      "v": 27,
      "creates": null,
      "raw": "0xf86e820662850d2d30ea5d8255f0946747f922385c9a6f9cfdf095f34345257dd597be8833de2f7a1429d5e0801ba09c175b47bd27b833a94c90aad7c4f3cbdc5d707148d152a83490e9cadbcf8f61a0090f072fdf0689813ab285887ad99f5856f091202dc2772fa2698ed41c00a8e4",
      "networkId": 0,
      "chainId": 0
    },
    {
      "hash": "0x2dbd9187a8ee0f405f0097469c16f81820678429c7664dc272f242319f1040fc",
      "blockHash": "0x02b1e6c0f9ceb7fce810c457d5aadbd5e4b9db0ef9dc8e1b91a516ed4d5b843c",
      "blockNumber": 84269,
      "transactionIndex": 7,
      "confirmations": null,
      "from": "0xe6A7a1d47ff21B6321162AEA7C6CB457D5476Bca",
      "gasPrice": {
        "_hex": "0xd2d30ea5d"
      },
      "gasLimit": {
        "_hex": "0x55f0"
      },
      "to": "0x0e308556B1C6EEB7457a08f91D5E132b4a54C9F1",
      "value": {
        "_hex": "0x3444a165d9444630"
      },
      "nonce": 1635,
      "data": "0x",
      "r": "0x61e0993dae8fc5dd1a4e3138dce28dd0250db7919c54b4e63e74c60b92be3790",
      "s": "0x532aab5b22d8f1f1403000160d364dd0b60df9d08fbeab699325c3881edd6490",
      "v": 28,
      "creates": null,
      "raw": "0xf86e820663850d2d30ea5d8255f0940e308556b1c6eeb7457a08f91d5e132b4a54c9f1883444a165d9444630801ca061e0993dae8fc5dd1a4e3138dce28dd0250db7919c54b4e63e74c60b92be3790a0532aab5b22d8f1f1403000160d364dd0b60df9d08fbeab699325c3881edd6490",
      "networkId": 0,
      "chainId": 0
    },
    {
      "hash": "0x2707d1db12fd547b8dd6a8a44143d1c567488355354ee932f1bc2da635db7110",
      "blockHash": "0x02b1e6c0f9ceb7fce810c457d5aadbd5e4b9db0ef9dc8e1b91a516ed4d5b843c",
      "blockNumber": 84269,
      "transactionIndex": 8,
      "confirmations": null,
      "from": "0xe6A7a1d47ff21B6321162AEA7C6CB457D5476Bca",
      "gasPrice": {
        "_hex": "0xd2d30ea5d"
      },
      "gasLimit": {
        "_hex": "0x55f0"
      },
      "to": "0x014687B2Ed3c3256fe367D6aC47ab2482E055F6b",
      "value": {
        "_hex": "0x3496921dc93a7624"
      },
      "nonce": 1636,
      "data": "0x",
      "r": "0x76ef0dfe2607643cad595616d450951de744820fd777ccd1331435a47e894b38",
      "s": "0x4685fd29666a6b1fafa1d21bab5105a99c3e97395275644d87b4be1e277d5587",
      "v": 28,
      "creates": null,
      "raw": "0xf86e820664850d2d30ea5d8255f094014687b2ed3c3256fe367d6ac47ab2482e055f6b883496921dc93a7624801ca076ef0dfe2607643cad595616d450951de744820fd777ccd1331435a47e894b38a04685fd29666a6b1fafa1d21bab5105a99c3e97395275644d87b4be1e277d5587",
      "networkId": 0,
      "chainId": 0
    },
    {
      "hash": "0x11475fb60d7f346102fd1191a29e4380fd35846b8a58e1028e6c188e76d27406",
      "blockHash": "0x02b1e6c0f9ceb7fce810c457d5aadbd5e4b9db0ef9dc8e1b91a516ed4d5b843c",
      "blockNumber": 84269,
      "transactionIndex": 9,
      "confirmations": null,
      "from": "0xe6A7a1d47ff21B6321162AEA7C6CB457D5476Bca",
      "gasPrice": {
        "_hex": "0xd2d30ea5d"
      },
      "gasLimit": {
        "_hex": "0x55f0"
      },
      "to": "0x1dbe45A9437978D7Bdc5D468e6be0988a71D153f",
      "value": {
        "_hex": "0x34c8fb9bb88fac30"
      },
      "nonce": 1637,
      "data": "0x",
      "r": "0x3cc885ecd1658cee792de1844a8ef5b4f498435fa7094f77c7724ed0a853c374",
      "s": "0x72c2d46b2ed550b8da074efc092f5152f347818bad9bdf39469a585800a06acb",
      "v": 27,
      "creates": null,
      "raw": "0xf86e820665850d2d30ea5d8255f0941dbe45a9437978d7bdc5d468e6be0988a71d153f8834c8fb9bb88fac30801ba03cc885ecd1658cee792de1844a8ef5b4f498435fa7094f77c7724ed0a853c374a072c2d46b2ed550b8da074efc092f5152f347818bad9bdf39469a585800a06acb",
      "networkId": 0,
      "chainId": 0
    },
    {
      "hash": "0x4de31f12946b62d231795f068de8bc861e183d427232ba74bc7c9b880ca2822e",
      "blockHash": "0x02b1e6c0f9ceb7fce810c457d5aadbd5e4b9db0ef9dc8e1b91a516ed4d5b843c",
      "blockNumber": 84269,
      "transactionIndex": 10,
      "confirmations": null,
      "from": "0xe6A7a1d47ff21B6321162AEA7C6CB457D5476Bca",
      "gasPrice": {
        "_hex": "0xd2d30ea5d"
      },
      "gasLimit": {
        "_hex": "0x55f0"
      },
      "to": "0x2d27CE2418Da94902451Cd959C847dEc86e024e8",
      "value": {
        "_hex": "0x34e55df3bbf35378"
      },
      "nonce": 1638,
      "data": "0x",
      "r": "0x13c5ed058116624246c7689749d3d6b751ba0d7437f4536a7ead41b20c0083ad",
      "s": "0x6d8ce87f54d390b95d35a80a0634037dfe3c20b607493ee8bf8558c26f6ca545",
      "v": 28,
      "creates": null,
      "raw": "0xf86e820666850d2d30ea5d8255f0942d27ce2418da94902451cd959c847dec86e024e88834e55df3bbf35378801ca013c5ed058116624246c7689749d3d6b751ba0d7437f4536a7ead41b20c0083ada06d8ce87f54d390b95d35a80a0634037dfe3c20b607493ee8bf8558c26f6ca545",
      "networkId": 0,
      "chainId": 0
    },
    {
      "hash": "0xe03a771a88d61a9c5a8095d39a412039f034146d27232fc058136c966e81e5db",
      "blockHash": "0x02b1e6c0f9ceb7fce810c457d5aadbd5e4b9db0ef9dc8e1b91a516ed4d5b843c",
      "blockNumber": 84269,
      "transactionIndex": 11,
      "confirmations": null,
      "from": "0xe6A7a1d47ff21B6321162AEA7C6CB457D5476Bca",
      "gasPrice": {
        "_hex": "0xd2d30ea5d"
      },
      "gasLimit": {
        "_hex": "0x55f0"
      },
      "to": "0xafa4dbAdd4e76B6C5946DFB726E5095516A96144",
      "value": {
        "_hex": "0x351eb0b4a61c1a24"
      },
      "nonce": 1639,
      "data": "0x",
      "r": "0x4f9debc14830145d4edb60f0398af40b1367f5728302cfe3c7a55c0be6752b3c",
      "s": "0x18c35d38bf3229a4b0755f0c46946cd1c95b4738aaad80aefb5716d729648ac9",
      "v": 27,
      "creates": null,
      "raw": "0xf86e820667850d2d30ea5d8255f094afa4dbadd4e76b6c5946dfb726e5095516a9614488351eb0b4a61c1a24801ba04f9debc14830145d4edb60f0398af40b1367f5728302cfe3c7a55c0be6752b3ca018c35d38bf3229a4b0755f0c46946cd1c95b4738aaad80aefb5716d729648ac9",
      "networkId": 0,
      "chainId": 0
    },
    {
      "hash": "0x08a2751908b997bec0653305dc6ab6d0e45fb7bdb8e721b23ce57fb2a47f7e35",
      "blockHash": "0x02b1e6c0f9ceb7fce810c457d5aadbd5e4b9db0ef9dc8e1b91a516ed4d5b843c",
      "blockNumber": 84269,
      "transactionIndex": 12,
      "confirmations": null,
      "from": "0xe6A7a1d47ff21B6321162AEA7C6CB457D5476Bca",
      "gasPrice": {
        "_hex": "0xd2d30ea5d"
      },
      "gasLimit": {
        "_hex": "0x55f0"
      },
      "to": "0x3730a07b6d2d7413d0d76B91935F60bB0b1d8E2F",
      "value": {
        "_hex": "0x35ee121aa71f8608"
      },
      "nonce": 1640,
      "data": "0x",
      "r": "0x72c0c621f842bb13cdb58f2053442479cdf1a1e6010c13c8301135ec6f002599",
      "s": "0x254342abfdf82ab0f01aa9604fb510f6161026f47e25ade9b131d40224c9aec3",
      "v": 28,
      "creates": null,
      "raw": "0xf86e820668850d2d30ea5d8255f0943730a07b6d2d7413d0d76b91935f60bb0b1d8e2f8835ee121aa71f8608801ca072c0c621f842bb13cdb58f2053442479cdf1a1e6010c13c8301135ec6f002599a0254342abfdf82ab0f01aa9604fb510f6161026f47e25ade9b131d40224c9aec3",
      "networkId": 0,
      "chainId": 0
    },
    {
      "hash": "0x26b8f5ac96d613ef42214fea82d5ea6e37b6c38c879d0e131f503de0b294f4b4",
      "blockHash": "0x02b1e6c0f9ceb7fce810c457d5aadbd5e4b9db0ef9dc8e1b91a516ed4d5b843c",
      "blockNumber": 84269,
      "transactionIndex": 13,
      "confirmations": null,
      "from": "0xe6A7a1d47ff21B6321162AEA7C6CB457D5476Bca",
      "gasPrice": {
        "_hex": "0xd2d30ea5d"
      },
      "gasLimit": {
        "_hex": "0x55f0"
      },
      "to": "0x4C84686094c69469502847D76a8190f3CD9e921c",
      "value": {
        "_hex": "0x363168b3d8f37224"
      },
      "nonce": 1641,
      "data": "0x",
      "r": "0xaa2b131fad23156ab1458ecd385bd771cadd2483796967980203ea413dbca5a2",
      "s": "0x563a89cd699fc324e6d6039228f695c423b1596e8b69071c7d5b24add20f08e8",
      "v": 28,
      "creates": null,
      "raw": "0xf86e820669850d2d30ea5d8255f0944c84686094c69469502847d76a8190f3cd9e921c88363168b3d8f37224801ca0aa2b131fad23156ab1458ecd385bd771cadd2483796967980203ea413dbca5a2a0563a89cd699fc324e6d6039228f695c423b1596e8b69071c7d5b24add20f08e8",
      "networkId": 0,
      "chainId": 0
    },
    {
      "hash": "0xa8f743099e844b0028a238a78240ecbaa360e292b5875ec78adb9eb0cd5c6591",
      "blockHash": "0x02b1e6c0f9ceb7fce810c457d5aadbd5e4b9db0ef9dc8e1b91a516ed4d5b843c",
      "blockNumber": 84269,
      "transactionIndex": 14,
      "confirmations": null,
      "from": "0xe6A7a1d47ff21B6321162AEA7C6CB457D5476Bca",
      "gasPrice": {
        "_hex": "0xd2d30ea5d"
      },
      "gasLimit": {
        "_hex": "0x55f0"
      },
      "to": "0x0D3111E6CfA28bc8745057bD71E0D10FEB4C7AE7",
      "value": {
        "_hex": "0x363490505dc52224"
      },
      "nonce": 1642,
      "data": "0x",
      "r": "0x1c029f15939e6b9b078a230a39835dde3e0aa16efd2090d309cc881ed9e0cece",
      "s": "0x4b5c1b28881b7223304a6de1f42a7513d213a9ab38cdb7643396260c7c1c135f",
      "v": 27,
      "creates": null,
      "raw": "0xf86e82066a850d2d30ea5d8255f0940d3111e6cfa28bc8745057bd71e0d10feb4c7ae788363490505dc52224801ba01c029f15939e6b9b078a230a39835dde3e0aa16efd2090d309cc881ed9e0cecea04b5c1b28881b7223304a6de1f42a7513d213a9ab38cdb7643396260c7c1c135f",
      "networkId": 0,
      "chainId": 0
    },
    {
      "hash": "0x03fcd3f8efce5aa9095288a6ba54ce40ce7ca53568e45f761a85efe3a30d5cc3",
      "blockHash": "0x02b1e6c0f9ceb7fce810c457d5aadbd5e4b9db0ef9dc8e1b91a516ed4d5b843c",
      "blockNumber": 84269,
      "transactionIndex": 15,
      "confirmations": null,
      "from": "0xe6A7a1d47ff21B6321162AEA7C6CB457D5476Bca",
      "gasPrice": {
        "_hex": "0xd2d30ea5d"
      },
      "gasLimit": {
        "_hex": "0x55f0"
      },
      "to": "0xbb7a36251F31DF2B2189F542Cf6E5488090bc0fB",
      "value": {
        "_hex": "0x36ea982d20273fec"
      },
      "nonce": 1643,
      "data": "0x",
      "r": "0xf84af4fcf4bc0e25dd7d0c0b41254e219d5d29d5b97cb2edde34d01996ad3475",
      "s": "0x6489e3e365b833f6598d1a0ff08f677a2e1dbd3800f220236a159f07b6da3957",
      "v": 27,
      "creates": null,
      "raw": "0xf86e82066b850d2d30ea5d8255f094bb7a36251f31df2b2189f542cf6e5488090bc0fb8836ea982d20273fec801ba0f84af4fcf4bc0e25dd7d0c0b41254e219d5d29d5b97cb2edde34d01996ad3475a06489e3e365b833f6598d1a0ff08f677a2e1dbd3800f220236a159f07b6da3957",
      "networkId": 0,
      "chainId": 0
    },
    {
      "hash": "0x7e02b4e9fb6531b17be0dda4534393c0510630d889ce00b2b21f8003a46dd1fb",
      "blockHash": "0x02b1e6c0f9ceb7fce810c457d5aadbd5e4b9db0ef9dc8e1b91a516ed4d5b843c",
      "blockNumber": 84269,
      "transactionIndex": 16,
      "confirmations": null,
      "from": "0xe6A7a1d47ff21B6321162AEA7C6CB457D5476Bca",
      "gasPrice": {
        "_hex": "0xd2d30ea5d"
      },
      "gasLimit": {
        "_hex": "0x55f0"
      },
      "to": "0x57C413ECd1d83c2C65B14ABE1FB48D4Fc3136844",
      "value": {
        "_hex": "0x37090c66ef8e24a0"
      },
      "nonce": 1644,
      "data": "0x",
      "r": "0xb8c37b2a01a7ed3a9881afcfd9aadd88619916f48aab74c2530de375d527f01b",
      "s": "0x38b170c5982196fe3ec9c9f3113b238447d2ca07b4c5564c87868daaa4c69592",
      "v": 28,
      "creates": null,
      "raw": "0xf86e82066c850d2d30ea5d8255f09457c413ecd1d83c2c65b14abe1fb48d4fc31368448837090c66ef8e24a0801ca0b8c37b2a01a7ed3a9881afcfd9aadd88619916f48aab74c2530de375d527f01ba038b170c5982196fe3ec9c9f3113b238447d2ca07b4c5564c87868daaa4c69592",
      "networkId": 0,
      "chainId": 0
    },
    {
      "hash": "0x8eda242afdcaae25d5266c7f03f6cb58766c67656b73a1737990500aa5f9c5d4",
      "blockHash": "0x02b1e6c0f9ceb7fce810c457d5aadbd5e4b9db0ef9dc8e1b91a516ed4d5b843c",
      "blockNumber": 84269,
      "transactionIndex": 17,
      "confirmations": null,
      "from": "0xe6A7a1d47ff21B6321162AEA7C6CB457D5476Bca",
      "gasPrice": {
        "_hex": "0xd2d30ea5d"
      },
      "gasLimit": {
        "_hex": "0x55f0"
      },
      "to": "0x842aC76913Df36aFcbdfE5fA4872759ed84210Bf",
      "value": {
        "_hex": "0x3729e3b8988a15e8"
      },
      "nonce": 1645,
      "data": "0x",
      "r": "0xc7f256f9aa5c7399603d255bee830d294127defc63c54eddf578590bedce49f4",
      "s": "0x75d727926d98eb5a928c411a62b4ed4fd4c1fc8383e996cc320ac2372417ba54",
      "v": 28,
      "creates": null,
      "raw": "0xf86e82066d850d2d30ea5d8255f094842ac76913df36afcbdfe5fa4872759ed84210bf883729e3b8988a15e8801ca0c7f256f9aa5c7399603d255bee830d294127defc63c54eddf578590bedce49f4a075d727926d98eb5a928c411a62b4ed4fd4c1fc8383e996cc320ac2372417ba54",
      "networkId": 0,
      "chainId": 0
    },
    {
      "hash": "0x296f328cf38d3fd09b72ea63f5cc0cbd5f86c9e082efedf5e03ab72af75b081b",
      "blockHash": "0x02b1e6c0f9ceb7fce810c457d5aadbd5e4b9db0ef9dc8e1b91a516ed4d5b843c",
      "blockNumber": 84269,
      "transactionIndex": 18,
      "confirmations": null,
      "from": "0xe6A7a1d47ff21B6321162AEA7C6CB457D5476Bca",
      "gasPrice": {
        "_hex": "0xd2d30ea5d"
      },
      "gasLimit": {
        "_hex": "0x55f0"
      },
      "to": "0xdC49b9dc1AbB93Ebb856547a1C0578D65f4A32DE",
      "value": {
        "_hex": "0x372e6c9e88caead8"
      },
      "nonce": 1646,
      "data": "0x",
      "r": "0x07e44357fcfa0c9e8f4c5c77a7fbe60223667883021c47f25fabbb6a9738aa76",
      "s": "0x0f9445f81e5e7829d8e4fc0977a828c92b13048feb1c09e356ff9c7199e962e9",
      "v": 27,
      "creates": null,
      "raw": "0xf86e82066e850d2d30ea5d8255f094dc49b9dc1abb93ebb856547a1c0578d65f4a32de88372e6c9e88caead8801ba007e44357fcfa0c9e8f4c5c77a7fbe60223667883021c47f25fabbb6a9738aa76a00f9445f81e5e7829d8e4fc0977a828c92b13048feb1c09e356ff9c7199e962e9",
      "networkId": 0,
      "chainId": 0
    },
    {
      "hash": "0xace6debba6f514860a8338ce2387762f668be4958672753bb13acd80395f231c",
      "blockHash": "0x02b1e6c0f9ceb7fce810c457d5aadbd5e4b9db0ef9dc8e1b91a516ed4d5b843c",
      "blockNumber": 84269,
      "transactionIndex": 19,
      "confirmations": null,
      "from": "0x7B25Bb9cA8E702217e9333225250E53c36804D48",
      "gasPrice": {
        "_hex": "0xd05e29e1c"
      },
      "gasLimit": {
        "_hex": "0x15f90"
      },
      "to": "0x4fA3954A093E9916a48C5960B4303d7832b21A9b",
      "value": {
        "_hex": "0x8ac7230489e80000"
      },
      "nonce": 0,
      "data": "0x",
      "r": "0x3f16510176a085f09e69569d29086aef9fb598e5391e37bd9d9beb9030e31c68",
      "s": "0x5cc40f2995d1f3c95d6db00a587a1d26280944abefa1c41ed57d6df1d6a37dc2",
      "v": 27,
      "creates": null,
      "raw": "0xf86d80850d05e29e1c83015f90944fa3954a093e9916a48c5960b4303d7832b21a9b888ac7230489e80000801ba03f16510176a085f09e69569d29086aef9fb598e5391e37bd9d9beb9030e31c68a05cc40f2995d1f3c95d6db00a587a1d26280944abefa1c41ed57d6df1d6a37dc2",
      "networkId": 0,
      "chainId": 0
    },
    {
      "hash": "0x5449b8f4dc61f0e9bf14889ef485b2b25f7910a1364784d078ba7d1ea8f1b5f2",
      "blockHash": "0x02b1e6c0f9ceb7fce810c457d5aadbd5e4b9db0ef9dc8e1b91a516ed4d5b843c",
      "blockNumber": 84269,
      "transactionIndex": 20,
      "confirmations": null,
      "from": "0xdCe26B66eabfB4dE900E4944DcC2FA2d455021fc",
      "gasPrice": {
        "_hex": "0xd00128008"
      },
      "gasLimit": {
        "_hex": "0x5208"
      },
      "to": "0x32Be343B94f860124dC4fEe278FDCBD38C102D88",
      "value": {
        "_hex": "0xfda5d4f2536f400"
      },
      "nonce": 0,
      "data": "0x",
      "r": "0x286babbe52b65328c6f00882b45f493bc71421579c4e7babd04eb437badeab0e",
      "s": "0x4344514ab715a2e79c6cb4e63de02a9403cce0a4740fe3836fcfd9232345b4df",
      "v": 28,
      "creates": null,
      "raw": "0xf86c80850d001280088252089432be343b94f860124dc4fee278fdcbd38c102d88880fda5d4f2536f400801ca0286babbe52b65328c6f00882b45f493bc71421579c4e7babd04eb437badeab0ea04344514ab715a2e79c6cb4e63de02a9403cce0a4740fe3836fcfd9232345b4df",
      "networkId": 0,
      "chainId": 0
    },
    {
      "hash": "0x49e224a4260987cb7ff6d0288b90a87960e9200c220b083034adc04f237f3cce",
      "blockHash": "0x02b1e6c0f9ceb7fce810c457d5aadbd5e4b9db0ef9dc8e1b91a516ed4d5b843c",
      "blockNumber": 84269,
      "transactionIndex": 21,
      "confirmations": null,
      "from": "0x7E4252d3d1881b358f2c1Fc2264ce4C27B83683d",
      "gasPrice": {
        "_hex": "0xd00128008"
      },
      "gasLimit": {
        "_hex": "0x5208"
      },
      "to": "0x32Be343B94f860124dC4fEe278FDCBD38C102D88",
      "value": {
        "_hex": "0xe1997fe6faf3c00"
      },
      "nonce": 0,
      "data": "0x",
      "r": "0x0592d462f69663968582024ac7543536d93a201fee0469cdf5525cbfa2f746a7",
      "s": "0x4f57ef581e2eb533487423f827e34528db061fd58a01076be87482e788c14062",
      "v": 27,
      "creates": null,
      "raw": "0xf86c80850d001280088252089432be343b94f860124dc4fee278fdcbd38c102d88880e1997fe6faf3c00801ba00592d462f69663968582024ac7543536d93a201fee0469cdf5525cbfa2f746a7a04f57ef581e2eb533487423f827e34528db061fd58a01076be87482e788c14062",
      "networkId": 0,
      "chainId": 0
    },
    {
      "hash": "0xcfb8fae85c61a71c30fdfad5ba1813846c1d698f1a0c596a1fd93629c8472952",
      "blockHash": "0x02b1e6c0f9ceb7fce810c457d5aadbd5e4b9db0ef9dc8e1b91a516ed4d5b843c",
      "blockNumber": 84269,
      "transactionIndex": 22,
      "confirmations": null,
      "from": "0x2cf4364bc4C7C3333aB9963C4B3473664f42D83A",
      "gasPrice": {
        "_hex": "0xd00128008"
      },
      "gasLimit": {
        "_hex": "0x5208"
      },
      "to": "0x32Be343B94f860124dC4fEe278FDCBD38C102D88",
      "value": {
        "_hex": "0x16c9af63422b1800"
      },
      "nonce": 0,
      "data": "0x",
      "r": "0x43819ba312cbcc123709dc5a1b76add4a9d06d736af1c54c312ec24d7a9eb407",
      "s": "0x5692cc84e0f69239d62afa632278813a254be0399d7201d32a515333e1672456",
      "v": 28,
      "creates": null,
      "raw": "0xf86c80850d001280088252089432be343b94f860124dc4fee278fdcbd38c102d888816c9af63422b1800801ca043819ba312cbcc123709dc5a1b76add4a9d06d736af1c54c312ec24d7a9eb407a05692cc84e0f69239d62afa632278813a254be0399d7201d32a515333e1672456",
      "networkId": 0,
      "chainId": 0
    },
    {
      "hash": "0x6c6a76ad08163f2cb60a789238365e282e5ce93b98a34507efe0f9c146b94759",
      "blockHash": "0x02b1e6c0f9ceb7fce810c457d5aadbd5e4b9db0ef9dc8e1b91a516ed4d5b843c",
      "blockNumber": 84269,
      "transactionIndex": 23,
      "confirmations": null,
      "from": "0x78FF59159FAfb4a337fd158FcF8D9603a7c6f03a",
      "gasPrice": {
        "_hex": "0xd00128008"
      },
      "gasLimit": {
        "_hex": "0x5208"
      },
      "to": "0x32Be343B94f860124dC4fEe278FDCBD38C102D88",
      "value": {
        "_hex": "0x18d0caa483c10800"
      },
      "nonce": 0,
      "data": "0x",
      "r": "0xfa3ebca43a69ae2447ff70207f2c4229d4763d31d98b3c49bf312c0f8347f137",
      "s": "0x28b5dab3b4bde96fbafbce2951be6d31dcdeb63411d5f39d4d3b40a1192a82e5",
      "v": 27,
      "creates": null,
      "raw": "0xf86c80850d001280088252089432be343b94f860124dc4fee278fdcbd38c102d888818d0caa483c10800801ba0fa3ebca43a69ae2447ff70207f2c4229d4763d31d98b3c49bf312c0f8347f137a028b5dab3b4bde96fbafbce2951be6d31dcdeb63411d5f39d4d3b40a1192a82e5",
      "networkId": 0,
      "chainId": 0
    },
    {
      "hash": "0xcf92c1aa236170306e6362fd8eed8a7a76d2687569fb7bfea2c077c1b2aad586",
      "blockHash": "0x02b1e6c0f9ceb7fce810c457d5aadbd5e4b9db0ef9dc8e1b91a516ed4d5b843c",
      "blockNumber": 84269,
      "transactionIndex": 24,
      "confirmations": null,
      "from": "0xA10DcDc99cF571e66c6Af1F1175a15686C4C6800",
      "gasPrice": {
        "_hex": "0xd00128008"
      },
      "gasLimit": {
        "_hex": "0x5208"
      },
      "to": "0x32Be343B94f860124dC4fEe278FDCBD38C102D88",
      "value": {
        "_hex": "0x15d87d3a817cc000"
      },
      "nonce": 1,
      "data": "0x",
      "r": "0xe29397318b846f516d90191ed1981f146ba524a74b4228e033a6daab124c96e0",
      "s": "0x631e9571de2bb4ebeb5f13c41aa6f012d7b773f2f5162cb989e9f4a56fe08b0d",
      "v": 27,
      "creates": null,
      "raw": "0xf86c01850d001280088252089432be343b94f860124dc4fee278fdcbd38c102d888815d87d3a817cc000801ba0e29397318b846f516d90191ed1981f146ba524a74b4228e033a6daab124c96e0a0631e9571de2bb4ebeb5f13c41aa6f012d7b773f2f5162cb989e9f4a56fe08b0d",
      "networkId": 0,
      "chainId": 0
    },
    {
      "hash": "0x6ee1f1a6545c77af80f71c1200c753a5413b8b7108cfae6739bb9129c9032662",
      "blockHash": "0x02b1e6c0f9ceb7fce810c457d5aadbd5e4b9db0ef9dc8e1b91a516ed4d5b843c",
      "blockNumber": 84269,
      "transactionIndex": 25,
      "confirmations": null,
      "from": "0x6d84df1cFAD609EAc476cBC2553390bFC23Cf6Fc",
      "gasPrice": {
        "_hex": "0xd00128008"
      },
      "gasLimit": {
        "_hex": "0x5208"
      },
      "to": "0x32Be343B94f860124dC4fEe278FDCBD38C102D88",
      "value": {
        "_hex": "0xe24bd11d64c6800"
      },
      "nonce": 0,
      "data": "0x",
      "r": "0xc6260416b645d179e4bdb2f1a70be8bb084f85ec676cd5df1988baf3504eb4e8",
      "s": "0x401ed5d4d664a1847b0a11387a23c1fb97b34f454892105f4097f9261cdef5a3",
      "v": 28,
      "creates": null,
      "raw": "0xf86c80850d001280088252089432be343b94f860124dc4fee278fdcbd38c102d88880e24bd11d64c6800801ca0c6260416b645d179e4bdb2f1a70be8bb084f85ec676cd5df1988baf3504eb4e8a0401ed5d4d664a1847b0a11387a23c1fb97b34f454892105f4097f9261cdef5a3",
      "networkId": 0,
      "chainId": 0
    },
    {
      "hash": "0xf520bdf8f80758b2275022a94ba4cfb854b51c105489d276c8a0f3ae41651fab",
      "blockHash": "0x02b1e6c0f9ceb7fce810c457d5aadbd5e4b9db0ef9dc8e1b91a516ed4d5b843c",
      "blockNumber": 84269,
      "transactionIndex": 26,
      "confirmations": null,
      "from": "0x5BeBc02e4CDF3e92B5a2947CfD1430c4EBBa4039",
      "gasPrice": {
        "_hex": "0xd00128008"
      },
      "gasLimit": {
        "_hex": "0x5208"
      },
      "to": "0x32Be343B94f860124dC4fEe278FDCBD38C102D88",
      "value": {
        "_hex": "0xe4f8f438e0e1000"
      },
      "nonce": 0,
      "data": "0x",
      "r": "0xb71ff3cfa2ac8dbf93c96a9b8fbc535b7856cb89a42569aba185c2fa1e73b41f",
      "s": "0x58f6924a1f952b31a295fddebf189ea814d8fc0c2b9104da794ff8156511826b",
      "v": 27,
      "creates": null,
      "raw": "0xf86c80850d001280088252089432be343b94f860124dc4fee278fdcbd38c102d88880e4f8f438e0e1000801ba0b71ff3cfa2ac8dbf93c96a9b8fbc535b7856cb89a42569aba185c2fa1e73b41fa058f6924a1f952b31a295fddebf189ea814d8fc0c2b9104da794ff8156511826b",
      "networkId": 0,
      "chainId": 0
    },
    {
      "hash": "0x069c3ef6ef72996a1e4cf92f50b998f4e05f65d8863857e5dde29283c8a61c86",
      "blockHash": "0x02b1e6c0f9ceb7fce810c457d5aadbd5e4b9db0ef9dc8e1b91a516ed4d5b843c",
      "blockNumber": 84269,
      "transactionIndex": 27,
      "confirmations": null,
      "from": "0x0C86a1460618c5186d7514aADAB51815368c5c61",
      "gasPrice": {
        "_hex": "0xd00128008"
      },
      "gasLimit": {
        "_hex": "0x5208"
      },
      "to": "0x32Be343B94f860124dC4fEe278FDCBD38C102D88",
      "value": {
        "_hex": "0x144f8bfc6159e000"
      },
      "nonce": 1,
      "data": "0x",
      "r": "0x78339a2a96932220e583c00ec556188d80d3f6a2d3138ef66d4a2c53229577a6",
      "s": "0x668dbef999ae1ea6235e8a21d95f3dcf282cda3ee3cf2ebf2d2245d4f661430f",
      "v": 28,
      "creates": null,
      "raw": "0xf86c01850d001280088252089432be343b94f860124dc4fee278fdcbd38c102d8888144f8bfc6159e000801ca078339a2a96932220e583c00ec556188d80d3f6a2d3138ef66d4a2c53229577a6a0668dbef999ae1ea6235e8a21d95f3dcf282cda3ee3cf2ebf2d2245d4f661430f",
      "networkId": 0,
      "chainId": 0
    },
    {
      "hash": "0x3805d092fc7fa02b6e546c65c3552c9acb7e7b793303848a04a0df91caa6eea1",
      "blockHash": "0x02b1e6c0f9ceb7fce810c457d5aadbd5e4b9db0ef9dc8e1b91a516ed4d5b843c",
      "blockNumber": 84269,
      "transactionIndex": 28,
      "confirmations": null,
      "from": "0xb4A9c47d4182b60B07a31d310cEDA8105a1122c4",
      "gasPrice": {
        "_hex": "0xd00128008"
      },
      "gasLimit": {
        "_hex": "0x5208"
      },
      "to": "0x32Be343B94f860124dC4fEe278FDCBD38C102D88",
      "value": {
        "_hex": "0x1666a27e58e6c800"
      },
      "nonce": 0,
      "data": "0x",
      "r": "0x5ddb0ae8da5f3b5acc979ba3352e9cdedcc1e2761ced37f663262124484e20c6",
      "s": "0x2174cb54092e968f2476ca938c13bd987ff32f95fbe793ca527c4995c107c079",
      "v": 28,
      "creates": null,
      "raw": "0xf86c80850d001280088252089432be343b94f860124dc4fee278fdcbd38c102d88881666a27e58e6c800801ca05ddb0ae8da5f3b5acc979ba3352e9cdedcc1e2761ced37f663262124484e20c6a02174cb54092e968f2476ca938c13bd987ff32f95fbe793ca527c4995c107c079",
      "networkId": 0,
      "chainId": 0
    },
    {
      "hash": "0x73bb4ce420e13b1d04417acd50ae76771a622280b7e2159b914be09a6dbb89a8",
      "blockHash": "0x02b1e6c0f9ceb7fce810c457d5aadbd5e4b9db0ef9dc8e1b91a516ed4d5b843c",
      "blockNumber": 84269,
      "transactionIndex": 29,
      "confirmations": null,
      "from": "0xe33977E292cceF99Ea8828733e97562F3690a8ad",
      "gasPrice": {
        "_hex": "0xd00128008"
      },
      "gasLimit": {
        "_hex": "0x5208"
      },
      "to": "0x32Be343B94f860124dC4fEe278FDCBD38C102D88",
      "value": {
        "_hex": "0x1ba40fe6ff04c800"
      },
      "nonce": 0,
      "data": "0x",
      "r": "0xf471844ac099f016454d2745897f1d76ec8a8501064022e98bf473dcf2f195ca",
      "s": "0x0433c8a4d8d7e092f6b9247d3ddda1de4fe0305bbe33687a7caaa30a1e87157b",
      "v": 28,
      "creates": null,
      "raw": "0xf86c80850d001280088252089432be343b94f860124dc4fee278fdcbd38c102d88881ba40fe6ff04c800801ca0f471844ac099f016454d2745897f1d76ec8a8501064022e98bf473dcf2f195caa00433c8a4d8d7e092f6b9247d3ddda1de4fe0305bbe33687a7caaa30a1e87157b",
      "networkId": 0,
      "chainId": 0
    }
  ]
}