{
  "hash": "0x2b60627582c888ca32b972ca1686d002bafea684cf0ffaa1ffbc9f5120efa983",
  "parentHash": "0xee7b2bfe08d1f330c69201f78b40e92aa6a761a9955ec909c7777a5083ea6d6c",
  "number": 118913,
  "timestamp": 1440133454,
  "nonce": "0x1e895c69a1e81367",
  "difficulty": 4396856710185,
  "gasLimit": {
    "_hex": "0x2fefd8"
  },
  "gasUsed": {
    "_hex": "0x5208"
  },
  "miner": "0xa50ec0D39fa913E62f1Bae7074E6F36caA71855b",
  "extraData": "0xd783010100844765746887676f312e342e32856c696e7578",
  "transactions": [
    {
      "hash": "0x9e85f049ca46111763cf552381c7ea6b9deaa348f59443454fe9d4657c05bda5",
      "blockHash": "0x2b60627582c888ca32b972ca1686d002bafea684cf0ffaa1ffbc9f5120efa983",
      "blockNumber": 118913,
      "transactionIndex": 0,
      "confirmations": null,
      "from": "0xFBb1b73C4f0BDa4f67dcA266ce6Ef42f520fBB98",
      "gasPrice": {
        "_hex": "0xba43b7400"
      },
      "gasLimit": {
        "_hex": "0x5208"
      },
      "to": "0x1Fabd401B08dF84f615091C14C6db1a5E0BeaD0c",
      "value": {
        "_hex": "0xb70dc2690805c000"
      },
      "nonce": 242,
      "data": "0x",
      "r": "0x3ec6d621029c9ea0b2322b430bbef128e66ef22225e47d420f2909b6d96ce91a",
      "s": "0x5054930165f312f9fa741511b97b0a789b814d6482e59be9f86454fac74a0362",
      "v": 27,
      "creates": null,
      "raw": "0xf86d81f2850ba43b7400825208941fabd401b08df84f615091c14c6db1a5e0bead0c88b70dc2690805c000801ba03ec6d621029c9ea0b2322b430bbef128e66ef22225e47d420f2909b6d96ce91aa05054930165f312f9fa741511b97b0a789b814d6482e59be9f86454fac74a0362",
      "networkId": 0,
      "chainId": 0
    }
  ]
}