{
  "hash": "0xb52e16bc9d39aa16fb9bd80d014ef4e80b2d017a5fce7e9e6a5267278f3088a0",
  "parentHash": "0xb78dead7f4847ae42bd9c5d5772538ca3c9c39393234febb9186218cf7c785ef",
  "number": 64772,
  "timestamp": 1439226033,
  "nonce": "0x76976bbabb8fdeb6",
  "difficulty": 1891265702882,
  "gasLimit": {
    "_hex": "0x2fefd8"
  },
  "gasUsed": {
    "_hex": "0x1627c"
  },
  "miner": "0x39A1BB80a741bF5EC39FB9BE59408Fa0F418fFBf",
  "extraData": "0x476574682f76312e302e312f77696e646f77732f676f312e342e32",
  "transactions": [
    {
      "hash": "0x682c8df327fa6dfea92b807f447053f7f7c4f05e76d351beef9f923087f46e2e",
      "blockHash": "0xb52e16bc9d39aa16fb9bd80d014ef4e80b2d017a5fce7e9e6a5267278f3088a0",
      "blockNumber": 64772,
      "transactionIndex": 0,
      "confirmations": null,
      "from": "0x2910543Af39abA0Cd09dBb2D50200b3E800A63D2",
      "gasPrice": {
        "_hex": "0xdb8db5d6d"
      },
      "gasLimit": {
        "_hex": "0x5208"
      },
      "to": "0x790077820FC227245D3de4CDBd3D801f3dd6B8df",
      "value": {
        "_hex": "0x8ab55f8b52078000"
      },
      "nonce": 155,
      "data": "0x",
      "r": "0xa0d07821b9e1035f44437a339943daa486bccd5451fbc6ee2e33a20dd568c6db",
      "s": "0x6c7df5d895f9a98eb9a310641012e085377f578640531feda60a744aa9e3ed89",
      "v": 27,
      "creates": null,
      "raw": "0xf86d819b850db8db5d6d82520894790077820fc227245d3de4cdbd3d801f3dd6b8df888ab55f8b52078000801ba0a0d07821b9e1035f44437a339943daa486bccd5451fbc6ee2e33a20dd568c6dba06c7df5d895f9a98eb9a310641012e085377f578640531feda60a744aa9e3ed89",
      "networkId": 0,
      "chainId": 0
    },
    {
      "hash": "0x08c4a70ad864f6b7d2300ba64173d8a86bdb750f4e71aee12031938c3a4d2e9c",
      "blockHash": "0xb52e16bc9d39aa16fb9bd80d014ef4e80b2d017a5fce7e9e6a5267278f3088a0",
      "blockNumber": 64772,
      "transactionIndex": 1,
      "confirmations": null,
      "from": "0x2d8d515f70719CfB0afD3Cb653A5a47e875EeF77",
      "gasPrice": {
        "_hex": "0xba43b7400"
      },
      "gasLimit": {
        "_hex": "0x5208"
      },
      "to": "0xfE8f7c78c9Ec1ABf63Bc535751afd1B9eCA36D43",
      "value": {
        "_hex": "0xf0088de8d15000"
      },
      "nonce": 1,
      "data": "0x",
      "r": "0x36081da9b7a4ca5827c4fe73877ae13136dbf2ee7202ef68d8bc6b7fb5fbc66a",
      "s": "0x1ed3cd2a37058a712cf89404306810f3dded47d840842328abe083e6686eeb51",
      "v": 28,
      "creates": null,
      "raw": "0xf86b01850ba43b740082520894fe8f7c78c9ec1abf63bc535751afd1b9eca36d4387f0088de8d15000801ca036081da9b7a4ca5827c4fe73877ae13136dbf2ee7202ef68d8bc6b7fb5fbc66aa01ed3cd2a37058a712cf89404306810f3dded47d840842328abe083e6686eeb51",
      "networkId": 0,
      "chainId": 0
    },
    {
      "hash": "0xcd260be7c0495710341c69e0bcb37501f2b59acc3b865901173f1bc7b55ebac8",
      "blockHash": "0xb52e16bc9d39aa16fb9bd80d014ef4e80b2d017a5fce7e9e6a5267278f3088a0",
      "blockNumber": 64772,
      "transactionIndex": 2,
      "confirmations": null,
      "from": "0xedaf5ABf55fc99Fd10d3F2368d9a12f78220c90a",
      "gasPrice": {
        "_hex": "0xba43b7400"
      },
      "gasLimit": {
        "_hex": "0x15f90"
      },
      "to": "0x793AE8C1b1a160BFc07BFB0d04F85eab1A71F4f2",
      "value": {
        "_hex": "0x0"
      },
      "nonce": 0,
      "data": "0x3ba15036",
      "r": "0x16125bacdd18f3faa0cefc54ad13ae262b3ab49ba3a6ccfaf68b97343017a132",
      "s": "0x1fd19b0b597efa0b5e07f0273350f91367d06d7f15060f114b68dbed104f1d9d",
      "v": 28,
      "creates": null,
      "raw": "0xf86980850ba43b740083015f9094793ae8c1b1a160bfc07bfb0d04f85eab1a71f4f280843ba150361ca016125bacdd18f3faa0cefc54ad13ae262b3ab49ba3a6ccfaf68b97343017a132a01fd19b0b597efa0b5e07f0273350f91367d06d7f15060f114b68dbed104f1d9d",
      "networkId": 0,
      "chainId": 0
    }
  ]
}