{
  "hash": "0x03ace0050e5619b862134f1fdc6e8dd434a231f0d696e7efcd05cc183ac70e3a",
  "parentHash": "0x35630fa54f6c62048a2def8c68b798ec65bdcde4c966e4bae826429e3e0611da",
  "number": 47896,
  "timestamp": 1438948079,
  "nonce": "0x234d817ab13e31ae",
  "difficulty": 1455844536071,
  "gasLimit": {
    "_hex": "0x1037e"
  },
  "gasUsed": {
    "_hex": "0x546c"
  },
  "miner": "0x88D74a59454F6cF3B51ef6b9136AFb6b9D405A88",
  "extraData": "0x476574682f76312e302e302d66633739643332642f6c696e75782f676f312e34",
  "transactions": [
    {
      "hash": "0x2d23290b83ad6cab7497f2a34fca349c08319dbcefd551e390aa8688e3e44c9b",
      "blockHash": "0x03ace0050e5619b862134f1fdc6e8dd434a231f0d696e7efcd05cc183ac70e3a",
      "blockNumber": 47896,
      "transactionIndex": 0,
      "confirmations": null,
      "from": "0xa13CfE826d6D1841DcaE443BE8c387518136b5e8",
      "gasPrice": {
        "_hex": "0x110c8f7d8de"
      },
      "gasLimit": {
        "_hex": "0xc350"
      },
      "to": "0x2910543Af39abA0Cd09dBb2D50200b3E800A63D2",
      "value": {
        "_hex": "0x2386f26fc10000"
      },
      "nonce": 5,
      "data": "0x454e30573343543030",
      "r": "0xb0b2caa85ae62984187a1308ff8daef919e6060cb372e88529980ddde335ddc7",
      "s": "0x8d5d9936bcf2f54322570a43d8068d06b9db25e66be086984422317faccd2002",
      "v": 28,
      "creates": null,
      "raw": "0xf87505860110c8f7d8de82c350942910543af39aba0cd09dbb2d50200b3e800a63d2872386f26fc1000089454e305733435430301ca0b0b2caa85ae62984187a1308ff8daef919e6060cb372e88529980ddde335ddc7a08d5d9936bcf2f54322570a43d8068d06b9db25e66be086984422317faccd2002",
      "networkId": 0,
      "chainId": 0
    }
  ]
}