{
  "hash": "0x3458be600307c18e20a3ce85250621b2c8e3f2274609a9dff41bc64ca9d8426a",
  "parentHash": "0x06bec8a0f9059082f1b8d32b7a915e6a1e274f82f3f669acb40a140caf8c93a6",
  "number": 75998,
  "timestamp": 1439413187,
  "nonce": "0x62da20bdc46f0865",
  "difficulty": 2234185670954,
  "gasLimit": {
    "_hex": "0x2fefd8"
  },
  "gasUsed": {
    "_hex": "0x5208"
  },
  "miner": "0xbb7B8287f3F0a933474a79eAe42CBCa977791171",
  "extraData": "0x476574682f4c5649562f76312e302e312f6c696e75782f676f312e342e32",
  "transactions": [
    {
      "hash": "0xb98dcf4d5f9160541e94ed1b691addd12fbc8ddfefdba9c19e5c1851f4aa5042",
      "blockHash": "0x3458be600307c18e20a3ce85250621b2c8e3f2274609a9dff41bc64ca9d8426a",
      "blockNumber": 75998,
      "transactionIndex": 0,
      "confirmations": null,
      "from": "0x120A270bbC009644e35F0bB6ab13f95b8199c4ad",
      "gasPrice": {
        "_hex": "0xcb9dab19b"
      },
      "gasLimit": {
        "_hex": "0x3d090"
      },
      "to": "0xb5425D52895036F7033B9f276A8429905C3cf042",
      "value": {
        "_hex": "0x1d24b2dfac520000"
      },
      "nonce": 302,
      "data": "0x",
      "r": "0xcaea3ea8057ff3756d967dc87561f86da47d004743d81133888cfebd90ec6b07",
      "s": "0x0590752b5d9193c5105c8287742b9ede39eb46545e3fb23641c5be9c595bc33f",
      "v": 27,
      "creates": null,
      "raw": "0xf86f82012e850cb9dab19b8303d09094b5425d52895036f7033b9f276a8429905c3cf042881d24b2dfac520000801ba0caea3ea8057ff3756d967dc87561f86da47d004743d81133888cfebd90ec6b07a00590752b5d9193c5105c8287742b9ede39eb46545e3fb23641c5be9c595bc33f",
      "networkId": 0,
      "chainId": 0
    }
  ]
}