{
  "hash": "0x6b471fbe5f6893cc41e5c6d9c11a587ed1f36d785a6d1527ee4a70875e4e3a75",
  "parentHash": "0x5068097f10b3d09995a8ab3d0034bfe9c35689881189d275bece15009b07610a",
  "number": 116878,
  "timestamp": 1440099186,
  "nonce": "0x0f14172f768f7c14",
  "difficulty": 4319182226125,
  "gasLimit": {
    "_hex": "0x2fefd8"
  },
  "gasUsed": {
    "_hex": "0xee2e"
  },
  "miner": "0xe6A7a1d47ff21B6321162AEA7C6CB457D5476Bca",
  "extraData": "0xd783010002844765746887676f312e342e32856c696e7578",
  "transactions": [
    {
      "hash": "0xb3920d300aa6508b2555f37a7f453fba8630f57c26ba1de3bd7cfd1870aed73d",
      "blockHash": "0x6b471fbe5f6893cc41e5c6d9c11a587ed1f36d785a6d1527ee4a70875e4e3a75",
      "blockNumber": 116878,
      "transactionIndex": 0,
      "confirmations": null,
      "from": "0xE083d34863e0E17f926b7928eDff317E998E9C4B",
      "gasPrice": {
        "_hex": "0x110c8f7d8de"
      },
      "gasLimit": {
        "_hex": "0xc350"
      },
      "to": "0x2910543Af39abA0Cd09dBb2D50200b3E800A63D2",
      "value": {
        "_hex": "0x56a6418b505860000"
      },
      "nonce": 2,
      "data": "0x454e57364432543738",
      "r": "0xddec77da5c4b4c4152d1fff1e3b294ee4fc65694f09c5dac87b06cb32f31a37c",
      "s": "0xe5042b8e07e87cd1066632e045883d54c5f4c1db85791ebe2eb5ae7295ffeee1",
      "v": 28,
      "creates": null,
      "raw": "0xf87702860110c8f7d8de82c350942910543af39aba0cd09dbb2d50200b3e800a63d289056a6418b50586000089454e573644325437381ca0ddec77da5c4b4c4152d1fff1e3b294ee4fc65694f09c5dac87b06cb32f31a37ca0e5042b8e07e87cd1066632e045883d54c5f4c1db85791ebe2eb5ae7295ffeee1",
      "networkId": 0,
      "chainId": 0
    },
    {
      "hash": "0x7a1bcb5fc31e6e65bb209a92db33e92e83caf6834810719f467c6fe90dc13f98",
      "blockHash": "0x6b471fbe5f6893cc41e5c6d9c11a587ed1f36d785a6d1527ee4a70875e4e3a75",
      "blockNumber": 116878,
      "transactionIndex": 1,
      "confirmations": null,
      "from": "0x9b22a80D5c7B3374a05b446081f97d0A34079e7F",
      "gasPrice": {
        "_hex": "0xba43b7400"
      },
      "gasLimit": {
        "_hex": "0x22062"
      },
      "to": "0x816c42608bC6Ad894A7d788129c408A18241FF55",
      "value": {
        "_hex": "0x0"
      },
      "nonce": 15,
      "data": "0xb61d27f6000000000000000000000000b1a2b43a7433dd150bb82227ed519cd6b142d38200000000000000000000000000000000000000000000000003d748d93e7c2000000000000000000000000000000000000000000000000000000000000000006000000000000000000000000000000000000000000000000000000000000000000000000000000000000000000000000000000000000000000000000000000000",
      "r": "0x74d1a13ebecc9213f6d24671a89dd2d9905de206e8a2a5bc2d444dbe934d57b3",
      "s": "0x0b0c68a26440cfd2470e2231f25687d8798ad1d86fd9467233c0f51f356fb334",
      "v": 28,
      "creates": null,
      "raw": "0xf9010a0f850ba43b74008302206294816c42608bc6ad894a7d788129c408a18241ff5580b8a4b61d27f6000000000000000000000000b1a2b43a7433dd150bb82227ed519cd6b142d38200000000000000000000000000000000000000000000000003d748d93e7c20000000000000000000000000000000000000000000000000000000000000000060000000000000000000000000000000000000000000000000000000000000000000000000000000000000000000000000000000000000000000000000000000001ca074d1a13ebecc9213f6d24671a89dd2d9905de206e8a2a5bc2d444dbe934d57b3a00b0c68a26440cfd2470e2231f25687d8798ad1d86fd9467233c0f51f356fb334",
      "networkId": 0,
      "chainId": 0
    }
  ]
}