{
  "hash": "0x6251c90f0babd73bb72e2ee2f794cbbe1dbcaa3d737328aff67d88d646fd0b0b",
  "parentHash": "0x1a604bc3163ab452203ce936c1a5ccfb9b6529f3d9035b4f45b7bf8743dc6e24",
  "number": 115159,
  "timestamp": 1440052625,
  "nonce": "0xd72e9fad852b2760",
  "difficulty": 4525181686473,
  "gasLimit": {
    "_hex": "0x2fefd8"
  },
  "gasUsed": {
    "_hex": "0x5208"
  },
  "miner": "0xe6A7a1d47ff21B6321162AEA7C6CB457D5476Bca",
  "extraData": "0x476574682f76312e302e312d38326566323666362f6c696e75782f676f312e34",
  "transactions": [
    {
      "hash": "0xea847755f27595c68492096ad14c1479d302c5bdb053af74afc726dcc57ea46b",
      "blockHash": "0x6251c90f0babd73bb72e2ee2f794cbbe1dbcaa3d737328aff67d88d646fd0b0b",
      "blockNumber": 115159,
      "transactionIndex": 0,
      "confirmations": null,
      "from": "0x029dC24e25DB54Ab740AaBCfeecA04b1fa8aa188",
      "gasPrice": {
        "_hex": "0xd842966fd"
      },
      "gasLimit": {
        "_hex": "0x5208"
      },
      "to": "0xFBb1b73C4f0BDa4f67dcA266ce6Ef42f520fBB98",
      "value": {
        "_hex": "0x1b28c138d5326bbe18"
      },
      "nonce": 0,
      "data": "0x",
      "r": "0xe3aa0e3816344eb8f4638fdb361896703ac6c74cc826bf6e2942a825c726e6cb",
      "s": "0x0123d3e62cbcb3cd5e9ea7b35f0352ddf0ed39b4db2a1fee5ddfb00ac70c1752",
      "v": 28,
      "creates": null,
      "raw": "0xf86d80850d842966fd82520894fbb1b73c4f0bda4f67dca266ce6ef42f520fbb98891b28c138d5326bbe18801ca0e3aa0e3816344eb8f4638fdb361896703ac6c74cc826bf6e2942a825c726e6cba00123d3e62cbcb3cd5e9ea7b35f0352ddf0ed39b4db2a1fee5ddfb00ac70c1752",
      "networkId": 0,
      "chainId": 0
    }
  ]
}