{
  "hash": "0x528cb792a92751457f7151dd0c2ecd2d2852f701944e68e08ae049447f862bd4",
  "parentHash": "0x95c8cacd1262154ea01120651fbf42b40d61a9b630a514b78d0863a292b70092",
  "number": 48496,
  "timestamp": 1438958113,
  "nonce": "0xc72bcd0f25e46842",
  "difficulty": 1461438016988,
  "gasLimit": {
    "_hex": "0x1832d"
  },
  "gasUsed": {
    "_hex": "0xa674"
  },
  "miner": "0x9746c7e1ef2bd21FF3997fa467593a89cb852BD0",
  "extraData": "0x476574682f76312e302e312f77696e646f77732f676f312e342e32",
  "transactions": [
    {
      "hash": "0x5e34ffdc19301fa3e2a9fec63adb5c5750e3ab473ca372b6597f6b26237607a7",
      "blockHash": "0x528cb792a92751457f7151dd0c2ecd2d2852f701944e68e08ae049447f862bd4",
      "blockNumber": 48496,
      "transactionIndex": 0,
      "confirmations": null,
      "from": "0x4f6D4737D7A940382487264886697cF7637F8015",
      "gasPrice": {
        "_hex": "0xd95b9e0d6"
      },
      "gasLimit": {
        "_hex": "0x15f90"
      },
      "to": "0x2910543Af39abA0Cd09dBb2D50200b3E800A63D2",
      "value": {
        "_hex": "0x8ac7230489e80000"
      },
      "nonce": 0,
      "data": "0x454e35364234543252",
      "r": "0xfe549d4fd09049efeb52b71b3f219b3bd57191d2782244a208cc12c9d3fab319",
      "s": "0x40460554ac5887d51fd3cef4b5667fbb316b818979bc1d7c672d3e863160bbf1",
      "v": 28,
      "creates": null,
      "raw": "0xf87680850d95b9e0d683015f90942910543af39aba0cd09dbb2d50200b3e800a63d2888ac7230489e8000089454e353642345432521ca0fe549d4fd09049efeb52b71b3f219b3bd57191d2782244a208cc12c9d3fab319a040460554ac5887d51fd3cef4b5667fbb316b818979bc1d7c672d3e863160bbf1",
      "networkId": 0,
      "chainId": 0
    },
    {
      "hash": "0xf5aa346ecb09ce1346df6df53b06bd48c7194e1a63ba0134fea3049d26c55dd1",
      "blockHash": "0x528cb792a92751457f7151dd0c2ecd2d2852f701944e68e08ae049447f862bd4",
      "blockNumber": 48496,
      "transactionIndex": 1,
      "confirmations": null,
      "from": "0x7892e574CADDBB5E9491DE9F26C1F2747F442eeE",
      "gasPrice": {
        "_hex": "0xcf8f90509"
      },
      "gasLimit": {
        "_hex": "0x5208"
      },
      "to": "0x3Fea87A96a61a1c83b110b8E0A2FFA6F009b78c9",
      "value": {
        "_hex": "0x4563918244f40000"
      },
      "nonce": 3,
      "data": "0x",
      "r": "0xa0da77678bbb92e93472d7fbdf32ec87365446f6678d9a7075c0bc46e2dc94d0",
      "s": "0x05f49c036d5af97c27c6b72b53a6d6038ef917d203a502b937576862958f7680",
      "v": 28,
      "creates": null,
      "raw": "0xf86c03850cf8f90509825208943fea87a96a61a1c83b110b8e0a2ffa6f009b78c9884563918244f40000801ca0a0da77678bbb92e93472d7fbdf32ec87365446f6678d9a7075c0bc46e2dc94d0a005f49c036d5af97c27c6b72b53a6d6038ef917d203a502b937576862958f7680",
      "networkId": 0,
      "chainId": 0
    }
  ]
}