{
  "hash": "0x4bf7a114395c61454ee0f4666de0a13a425f5f205951112119cc1173b0e1ee74",
  "parentHash": "0xf0283322b2e184397489a86cca729a4db0827aece370bfe01ab26621a6949cfd",
  "number": 48994,
  "timestamp": 1438966123,
  "nonce": "0x954595ad5962ce20",
  "difficulty": 1484364195082,
  "gasLimit": {
    "_hex": "0x22e42"
  },
  "gasUsed": {
    "_hex": "0x5208"
  },
  "miner": "0xF2d2AfF1320476cb8C6b607199D23175cc595693",
  "extraData": "0x476574682f76312e302e312f77696e646f77732f676f312e342e32",
  "transactions": [
    {
      "hash": "0x271613829f13394f2e747e3d66a2482e68186858aeae0f3a603be0dc53a157aa",
      "blockHash": "0x4bf7a114395c61454ee0f4666de0a13a425f5f205951112119cc1173b0e1ee74",
      "blockNumber": 48994,
      "transactionIndex": 0,
      "confirmations": null,
      "from": "0xE4324912D64ea3AEF76B3C2ff9dF82c7E13ae991",
      "gasPrice": {
        "_hex": "0xd829211eb"
      },
      "gasLimit": {
        "_hex": "0x15f90"
      },
      "to": "0x885936eaee918456Ee4e71C32497C0114AE56476",
      "value": {
        "_hex": "0x8ac7230489e80000"
      },
      "nonce": 0,
      "data": "0x",
      "r": "0x04d7c3631e799bb6157a113c3a56690e5bdd0f2dd510b8b799ecfb6be1ac73ac",
      "s": "0x28d50745354c1a9a917fc178846cc5e0c65f89e7e03f1bd5e77f6e432c876da7",
      "v": 28,
      "creates": null,
      "raw": "0xf86d80850d829211eb83015f9094885936eaee918456ee4e71c32497c0114ae56476888ac7230489e80000801ca004d7c3631e799bb6157a113c3a56690e5bdd0f2dd510b8b799ecfb6be1ac73aca028d50745354c1a9a917fc178846cc5e0c65f89e7e03f1bd5e77f6e432c876da7",
      "networkId": 0,
      "chainId": 0
    }
  ]
}