{
  "hash": "0xe98b6e700311f79b3a201beb6cbfdefe999d17cf88771e26d2db37f369d05c9a",
  "parentHash": "0xbf6b87fac9b7e5b2dbe8492f919ce3f5b1f977266d3e683b2ecdfaf0bec5d2d8",
  "number": 92346,
  "timestamp": 1439670655,
  "nonce": "0xec7ede024ddbc208",
  "difficulty": 3504600199385,
  "gasLimit": {
    "_hex": "0x2fefd8"
  },
  "gasUsed": {
    "_hex": "0xdc758"
  },
  "miner": "0x8293b65bD915B9FF87F6aDAb479da2e5b6633fDB",
  "extraData": "0x476574682f76312e302e312f77696e646f77732f676f312e342e32",
  "transactions": [
    {
      "hash": "0x06009c3ec85e51fc1c0d29adb688219708b0fa782f3b8a8f185f01e82de25fbe",
      "blockHash": "0xe98b6e700311f79b3a201beb6cbfdefe999d17cf88771e26d2db37f369d05c9a",
      "blockNumber": 92346,
      "transactionIndex": 0,
      "confirmations": null,
      "from": "0xB2D7e6CD1b25F591e2E630Ba65DAC638e6cd4C8e",
      "gasPrice": {
        "_hex": "0x174876e800"
      },
      "gasLimit": {
        "_hex": "0x5208"
      },
      "to": "0x65d7e41BC79587dB2FEBBcEa0Ad9D76469C88085",
      "value": {
        "_hex": "0x4470e4b41cce423e0000"
      },
      "nonce": 0,
      "data": "0x",
      "r": "0xee3247864a247451889e21825953fac01e4bba6a08b1dab971b91ed05258889e",
      "s": "0x0b031db78fbda96f6fa6c5fccc0f7744255703976aefdb69149237de1fb30b21",
      "v": 27,
      "creates": null,
      "raw": "0xf86e8085174876e8008252089465d7e41bc79587db2febbcea0ad9d76469c880858a4470e4b41cce423e0000801ba0ee3247864a247451889e21825953fac01e4bba6a08b1dab971b91ed05258889ea00b031db78fbda96f6fa6c5fccc0f7744255703976aefdb69149237de1fb30b21",
      "networkId": 0,
      "chainId": 0
    },
    {
      "hash": "0x5e02f5c83298e0457dccb909e6e6d488601e7c1a7e731b3d222fecdf0a5954a0",
      "blockHash": "0xe98b6e700311f79b3a201beb6cbfdefe999d17cf88771e26d2db37f369d05c9a",
      "blockNumber": 92346,
      "transactionIndex": 1,
      "confirmations": null,
      "from": "0xB2D7e6CD1b25F591e2E630Ba65DAC638e6cd4C8e",
      "gasPrice": {
        "_hex": "0x174876e800"
      },
      "gasLimit": {
        "_hex": "0x5208"
      },
      "to": "0xDdFafdbC7c90f1320e54b98F374617fbd01d109f",
      "value": {
        "_hex": "0x3ebd172b03b23a810000"
      },
      "nonce": 1,
      "data": "0x",
      "r": "0xc76873572f85983633ec7187bd07cc1c57fb6060bc6f9fa7d7a0876908a6bc6c",
      "s": "0xa48f9f6e0c6ad512e8f6b6b74105e5aca0bdecf1fc74693dd1904f9ded003a74",
      "v": 27,
      "creates": null,
      "raw": "0xf86e0185174876e80082520894ddfafdbc7c90f1320e54b98f374617fbd01d109f8a3ebd172b03b23a810000801ba0c76873572f85983633ec7187bd07cc1c57fb6060bc6f9fa7d7a0876908a6bc6ca0a48f9f6e0c6ad512e8f6b6b74105e5aca0bdecf1fc74693dd1904f9ded003a74",
      "networkId": 0,
      "chainId": 0
    },
    {
      "hash": "0x65d4608de495ae01e750eecf47d11d3562231091d548541867e87fc2f808d8ae",
      "blockHash": "0xe98b6e700311f79b3a201beb6cbfdefe999d17cf88771e26d2db37f369d05c9a",
      "blockNumber": 92346,
      "transactionIndex": 2,
      "confirmations": null,
      "from": "0xB2D7e6CD1b25F591e2E630Ba65DAC638e6cd4C8e",
      "gasPrice": {
        "_hex": "0x174876e800"
      },
      "gasLimit": {
        "_hex": "0x5208"
      },
      "to": "0xd30eCf8897AF28bCCF7e05250Ea9e1e275Ee41D4",
      "value": {
        "_hex": "0x330a8a18d0c29fd08000"
      },
      "nonce": 2,
      "data": "0x",
      "r": "0x04bf5cafa86f8b70c276ef191eccc586e355664d815f097c4eab9ec7abfb1dc3",
      "s": "0xbb7f877bd776985a1b66bebbb638738e8b052d55e5b7c725eabc93aff0cc4da0",
      "v": 27,
      "creates": null,
      "raw": "0xf86e0285174876e80082520894d30ecf8897af28bccf7e05250ea9e1e275ee41d48a330a8a18d0c29fd08000801ba004bf5cafa86f8b70c276ef191eccc586e355664d815f097c4eab9ec7abfb1dc3a0bb7f877bd776985a1b66bebbb638738e8b052d55e5b7c725eabc93aff0cc4da0",
      "networkId": 0,
      "chainId": 0
    },
    {
      "hash": "0x9578ce8047b746267b0ff40edea0e3cd779d44ea839152e52c8817f62db459f3",
      "blockHash": "0xe98b6e700311f79b3a201beb6cbfdefe999d17cf88771e26d2db37f369d05c9a",
      "blockNumber": 92346,
      "transactionIndex": 3,
      "confirmations": null,
      "from": "0xB2D7e6CD1b25F591e2E630Ba65DAC638e6cd4C8e",
      "gasPrice": {
        "_hex": "0x174876e800"
      },
      "gasLimit": {
        "_hex": "0x5208"
      },
      "to": "0x2B5F4B3f1E11707A227Aa5e69fa49ddeD33fB321",
      "value": {
        "_hex": "0x27d711c4280e5fdd8000"
      },
      "nonce": 3,
      "data": "0x",
      "r": "0x270d87e3d1ce60e79f0014517bc64a9f87d1c0530d3d11119854df16ddf7eb17",
      "s": "0xb4070c5ffadf7ae78dc8dbd4bc5774b16a6290ae9fbed55075949fcc55deb187",
      "v": 27,
      "creates": null,
      "raw": "0xf86e0385174876e800825208942b5f4b3f1e11707a227aa5e69fa49dded33fb3218a27d711c4280e5fdd8000801ba0270d87e3d1ce60e79f0014517bc64a9f87d1c0530d3d11119854df16ddf7eb17a0b4070c5ffadf7ae78dc8dbd4bc5774b16a6290ae9fbed55075949fcc55deb187",
      "networkId": 0,
      "chainId": 0
    },
    {
      "hash": "0x0b550ac04be6406f47dc53d0684537cc06eeed28c0eb9668803d30a88c68fb4e",
      "blockHash": "0xe98b6e700311f79b3a201beb6cbfdefe999d17cf88771e26d2db37f369d05c9a",
      "blockNumber": 92346,
      "transactionIndex": 4,
      "confirmations": null,
      "from": "0xB2D7e6CD1b25F591e2E630Ba65DAC638e6cd4C8e",
      "gasPrice": {
        "_hex": "0x174876e800"
      },
      "gasLimit": {
        "_hex": "0x5208"
      },
      "to": "0xDdFafdbC7c90f1320e54b98F374617fbd01d109f",
      "value": {
        "_hex": "0x270d0b0a2a9a1eb00000"
      },
      "nonce": 4,
      "data": "0x",
      "r": "0x9ddb8d48cfdb903125690fee70df7d2dca4b6c3bc13cb86f1a9bb9e45e69c219",
      "s": "0x8e81efc505274d9f14b74ed8c19608f82ca8ac2b7bbc55abc4b82f867b0a38bc",
      "v": 28,
      "creates": null,
      "raw": "0xf86e0485174876e80082520894ddfafdbc7c90f1320e54b98f374617fbd01d109f8a270d0b0a2a9a1eb00000801ca09ddb8d48cfdb903125690fee70df7d2dca4b6c3bc13cb86f1a9bb9e45e69c219a08e81efc505274d9f14b74ed8c19608f82ca8ac2b7bbc55abc4b82f867b0a38bc",
      "networkId": 0,
      "chainId": 0
    },
    {
      "hash": "0xab85163c1112b4c396027aaa4fb1b8917da9778c9824108e0a1784ab87c5cca5",
      "blockHash": "0xe98b6e700311f79b3a201beb6cbfdefe999d17cf88771e26d2db37f369d05c9a",
      "blockNumber": 92346,
      "transactionIndex": 5,
      "confirmations": null,
      "from": "0xB2D7e6CD1b25F591e2E630Ba65DAC638e6cd4C8e",
      "gasPrice": {
        "_hex": "0x174876e800"
      },
      "gasLimit": {
        "_hex": "0x5208"
      },
      "to": "0x6812F391Fd38375316F6613Ee1b46b77AD846c52",
      "value": {
        "_hex": "0x22f08d1f8fef587c0000"
      },
      "nonce": 5,
      "data": "0x",
      "r": "0x646acc86555bf7653b84ca5dd99a8a72df21ccb1edd6012dfc3d3263a0e028b3",
      "s": "0x67d391bea61bff1dadf675e3d0218f9d672ee2b3932fe98a3cfe0a83d4787a53",
      "v": 28,
      "creates": null,
      "raw": "0xf86e0585174876e800825208946812f391fd38375316f6613ee1b46b77ad846c528a22f08d1f8fef587c0000801ca0646acc86555bf7653b84ca5dd99a8a72df21ccb1edd6012dfc3d3263a0e028b3a067d391bea61bff1dadf675e3d0218f9d672ee2b3932fe98a3cfe0a83d4787a53",
      "networkId": 0,
      "chainId": 0
    },
    {
      "hash": "0xc050b5112467fac45278f239079821a5f2ed78abc234b358208e021b4632fdbf",
      "blockHash": "0xe98b6e700311f79b3a201beb6cbfdefe999d17cf88771e26d2db37f369d05c9a",
      "blockNumber": 92346,
      "transactionIndex": 6,
      "confirmations": null,
      "from": "0xB2D7e6CD1b25F591e2E630Ba65DAC638e6cd4C8e",
      "gasPrice": {
        "_hex": "0x174876e800"
      },
      "gasLimit": {
        "_hex": "0x5208"
      },
      "to": "0x16b22E53f64F585AE5A6f8ea20254a017B90b577",
      "value": {
        "_hex": "0x1fb1a2fc3de7e1a38000"
      },
      "nonce": 6,
      "data": "0x",
      "r": "0x7a85a065443c38adc2b6c127a2f76c72bdce613ec64e27fe68296eeec9cf9400",
      "s": "0x50f8c09c9a328421dce53a6fb2e42dd8d05c590fc3ee33b6e2da691d071dba7c",
      "v": 27,
      "creates": null,
      "raw": "0xf86e0685174876e8008252089416b22e53f64f585ae5a6f8ea20254a017b90b5778a1fb1a2fc3de7e1a38000801ba07a85a065443c38adc2b6c127a2f76c72bdce613ec64e27fe68296eeec9cf9400a050f8c09c9a328421dce53a6fb2e42dd8d05c590fc3ee33b6e2da691d071dba7c",
      "networkId": 0,
      "chainId": 0
    },
    {
      "hash": "0x7e07edb367f2255f144d403aa4f0dd4d1dc047076747e16d9ff51999f231ee72",
      "blockHash": "0xe98b6e700311f79b3a201beb6cbfdefe999d17cf88771e26d2db37f369d05c9a",
      "blockNumber": 92346,
      "transactionIndex": 7,
      "confirmations": null,
      "from": "0xB2D7e6CD1b25F591e2E630Ba65DAC638e6cd4C8e",
      "gasPrice": {
        "_hex": "0x174876e800"
      },
      "gasLimit": {
        "_hex": "0x5208"
      },
      "to": "0xF7E9cd4E40d304a1B160e128993e0704cC04f161",
      "value": {
        "_hex": "0x16606c49a1db13368000"
      },
      "nonce": 7,
      "data": "0x",
      "r": "0x0139202f6a19fb787e74f599a277e434158742ce1a072457b2a2e22da5a81df8",
      "s": "0xc42c88e2af7761d62beb49d2390423642c7de651ca9b10cc29e0b96dfb1f6666",
      "v": 28,
      "creates": null,
      "raw": "0xf86e0785174876e80082520894f7e9cd4e40d304a1b160e128993e0704cc04f1618a16606c49a1db13368000801ca00139202f6a19fb787e74f599a277e434158742ce1a072457b2a2e22da5a81df8a0c42c88e2af7761d62beb49d2390423642c7de651ca9b10cc29e0b96dfb1f6666",
      "networkId": 0,
      "chainId": 0
    },
    {
      "hash": "0x2dbae9b871f6beb1b4921e3a2653c42c2f0f293916ea0575a0ec2d54879efa0d",
      "blockHash": "0xe98b6e700311f79b3a201beb6cbfdefe999d17cf88771e26d2db37f369d05c9a",
      "blockNumber": 92346,
      "transactionIndex": 8,
      "confirmations": null,
      "from": "0xB2D7e6CD1b25F591e2E630Ba65DAC638e6cd4C8e",
      "gasPrice": {
        "_hex": "0x174876e800"
      },
      "gasLimit": {
        "_hex": "0x5208"
      },
      "to": "0x2d0EFca5E73E90C7707931678dfAeF38C068ac10",
      "value": {
        "_hex": "0x14a202941a8a5a180000"
      },
      "nonce": 8,
      "data": "0x",
      "r": "0x2e6a7b66304bcb07d40d7961e11a036851d1f3999cdc745c22bf14fee1f81308",
      "s": "0xd932b77ca24e90056f200bd5b55b0b6e17dc632387f961f56e33c38cf5b5341a",
      "v": 27,
      "creates": null,
      "raw": "0xf86e0885174876e800825208942d0efca5e73e90c7707931678dfaef38c068ac108a14a202941a8a5a180000801ba02e6a7b66304bcb07d40d7961e11a036851d1f3999cdc745c22bf14fee1f81308a0d932b77ca24e90056f200bd5b55b0b6e17dc632387f961f56e33c38cf5b5341a",
      "networkId": 0,
      "chainId": 0
    },
    {
      "hash": "0xb5e85330f26bf4683c46ce99953a2b1a4f8a78f89e529919a6bce17932a59dc6",
      "blockHash": "0xe98b6e700311f79b3a201beb6cbfdefe999d17cf88771e26d2db37f369d05c9a",
      "blockNumber": 92346,
      "transactionIndex": 9,
      "confirmations": null,
      "from": "0xB2D7e6CD1b25F591e2E630Ba65DAC638e6cd4C8e",
      "gasPrice": {
        "_hex": "0x174876e800"
      },
      "gasLimit": {
        "_hex": "0x5208"
      },
      "to": "0x475526af19ba007Bc39bA43c0946892035AA1B08",
      "value": {
        "_hex": "0x114c4938f9cb15e38000"
      },
      "nonce": 9,
      "data": "0x",
      "r": "0xffb1a5c4a575dcc52e3cc9e0c854316e842d4e6ea9e1726c7f9013fdde12ecf5",
      "s": "0x78ae012cf132f4fede38425a05480386072b52666c95b9179815c3a4871b5322",
      "v": 28,
      "creates": null,
      "raw": "0xf86e0985174876e80082520894475526af19ba007bc39ba43c0946892035aa1b088a114c4938f9cb15e38000801ca0ffb1a5c4a575dcc52e3cc9e0c854316e842d4e6ea9e1726c7f9013fdde12ecf5a078ae012cf132f4fede38425a05480386072b52666c95b9179815c3a4871b5322",
      "networkId": 0,
      "chainId": 0
    },
    {
      "hash": "0xad20a7aade17225f22891f6d7e0a2259779b84d687b18aabc107760b68fa0b5c",
      "blockHash": "0xe98b6e700311f79b3a201beb6cbfdefe999d17cf88771e26d2db37f369d05c9a",
      "blockNumber": 92346,
      "transactionIndex": 10,
      "confirmations": null,
      "from": "0xB2D7e6CD1b25F591e2E630Ba65DAC638e6cd4C8e",
      "gasPrice": {
        "_hex": "0x174876e800"
      },
      "gasLimit": {
        "_hex": "0x5208"
      },
      "to": "0x61B3df2e9e9Fd968131f1e88f0a0Eb5BD765464D",
      "value": {
        "_hex": "0xf5338663969208e8000"
      },
      "nonce": 10,
      "data": "0x",
      "r": "0xed8d583287e69e22954d2a2cb439b7720bd8525237a832ebc8797f5b03f77d81",
      "s": "0x1cfa7084841ee71d1317f457b9b0f37766d14d61ee7dbfa93851f03bc9d86575",
      "v": 28,
      "creates": null,
      "raw": "0xf86e0a85174876e8008252089461b3df2e9e9fd968131f1e88f0a0eb5bd765464d8a0f5338663969208e8000801ca0ed8d583287e69e22954d2a2cb439b7720bd8525237a832ebc8797f5b03f77d81a01cfa7084841ee71d1317f457b9b0f37766d14d61ee7dbfa93851f03bc9d86575",
      "networkId": 0,
      "chainId": 0
    },
    {
      "hash": "0x89f8245905b84f9955ade9a120ff8e021ff94cb812524a34aee137d003cdbd81",
      "blockHash": "0xe98b6e700311f79b3a201beb6cbfdefe999d17cf88771e26d2db37f369d05c9a",
      "blockNumber": 92346,
      "transactionIndex": 11,
      "confirmations": null,
      "from": "0xB2D7e6CD1b25F591e2E630Ba65DAC638e6cd4C8e",
      "gasPrice": {
        "_hex": "0x174876e800"
      },
      "gasLimit": {
        "_hex": "0x5208"
      },
      "to": "0xCcd47f23058759a07F6220E3d186ccAa2AaDbA88",
      "value": {
        "_hex": "0xe37bb57342bd5ce8000"
      },
      "nonce": 11,
      "data": "0x",
      "r": "0xbf742903ebb10a953fb7c6fa8bfff6a07ed4c730acc2bad9a400c344eceafda6",
      "s": "0x98a5a667b94f016b48b27c40d8d62b3b6a0ef133bd68b0077b64d89a6a123428",
      "v": 27,
      "creates": null,
      "raw": "0xf86e0b85174876e80082520894ccd47f23058759a07f6220e3d186ccaa2aadba888a0e37bb57342bd5ce8000801ba0bf742903ebb10a953fb7c6fa8bfff6a07ed4c730acc2bad9a400c344eceafda6a098a5a667b94f016b48b27c40d8d62b3b6a0ef133bd68b0077b64d89a6a123428",
      "networkId": 0,
      "chainId": 0
    },
    {
      "hash": "0x90f7484d188c40f579bd92652176c468406269f1f9c2555dcbe7b2959f9a15cc",
      "blockHash": "0xe98b6e700311f79b3a201beb6cbfdefe999d17cf88771e26d2db37f369d05c9a",
      "blockNumber": 92346,
      "transactionIndex": 12,
      "confirmations": null,
      "from": "0xB2D7e6CD1b25F591e2E630Ba65DAC638e6cd4C8e",
      "gasPrice": {
        "_hex": "0x174876e800"
      },
      "gasLimit": {
        "_hex": "0x5208"
      },
      "to": "0x28E5cD7FF6bD8398699Ea469F2580f772c7976f2",
      "value": {
        "_hex": "0xddc7e7f1449e9eb8000"
      },
      "nonce": 12,
      "data": "0x",
      "r": "0x5196066d96d45d7f5820582acd92f403f1c5b969074116e6b2cfab1bbefc5737",
      "s": "0xd0ad0157fa645f3fd67f0835d7f6f95b105dce8f9062c081bf28cb40ca3d4acf",
      "v": 28,
      "creates": null,
      "raw": "0xf86e0c85174876e8008252089428e5cd7ff6bd8398699ea469f2580f772c7976f28a0ddc7e7f1449e9eb8000801ca05196066d96d45d7f5820582acd92f403f1c5b969074116e6b2cfab1bbefc5737a0d0ad0157fa645f3fd67f0835d7f6f95b105dce8f9062c081bf28cb40ca3d4acf",
      "networkId": 0,
      "chainId": 0
    },
    {
      "hash": "0xb15ff1d4ddc43f5224a89dbee4f9f4388779bbaeb8fb2ebc1a9dcf0cb1fa83ad",
      "blockHash": "0xe98b6e700311f79b3a201beb6cbfdefe999d17cf88771e26d2db37f369d05c9a",
      "blockNumber": 92346,
      "transactionIndex": 13,
      "confirmations": null,
      "from": "0xB2D7e6CD1b25F591e2E630Ba65DAC638e6cd4C8e",
      "gasPrice": {
        "_hex": "0x174876e800"
      },
      "gasLimit": {
        "_hex": "0x5208"
      },
      "to": "0x08c355Aa664fde5bDc31ca7b49f0CFB11001920F",
      "value": {
        "_hex": "0xda5198c5ec16ce30000"
      },
      "nonce": 13,
      "data": "0x",
      "r": "0xfccade82a8139704da3b829a4783ac45774feeb82abeab359627706e7f815ec7",
      "s": "0x7d415c7e2b872766f5757995ae6fe33bd59b585c7b81048efaec23a6e4fdd761",
      "v": 27,
      "creates": null,
      "raw": "0xf86e0d85174876e8008252089408c355aa664fde5bdc31ca7b49f0cfb11001920f8a0da5198c5ec16ce30000801ba0fccade82a8139704da3b829a4783ac45774feeb82abeab359627706e7f815ec7a07d415c7e2b872766f5757995ae6fe33bd59b585c7b81048efaec23a6e4fdd761",
      "networkId": 0,
      "chainId": 0
    },
    {
      "hash": "0xb92f68f08f5de95cf95685bd8dae487431fe03e9e1f7df629142b60200d41743",
      "blockHash": "0xe98b6e700311f79b3a201beb6cbfdefe999d17cf88771e26d2db37f369d05c9a",
      "blockNumber": 92346,
      "transactionIndex": 14,
      "confirmations": null,
      "from": "0xB2D7e6CD1b25F591e2E630Ba65DAC638e6cd4C8e",
      "gasPrice": {
        "_hex": "0x174876e800"
      },
      "gasLimit": {
        "_hex": "0x5208"
      },
      "to": "0xf978b025b64233555CC3c19ADa7f4199c9348Bf7",
      "value": {
        "_hex": "0xc2e5fa539a236400000"
      },
      "nonce": 14,
      "data": "0x",
      "r": "0x4133b4ccb50d5b180043631aff771577400129d14c81f33a12250a22c93519bd",
      "s": "0x9118fbd504d7302cab2c392c8fb995d99b60fe3b75377fa3bebd9878d719a291",
      "v": 28,
      "creates": null,
      "raw": "0xf86e0e85174876e80082520894f978b025b64233555cc3c19ada7f4199c9348bf78a0c2e5fa539a236400000801ca04133b4ccb50d5b180043631aff771577400129d14c81f33a12250a22c93519bda09118fbd504d7302cab2c392c8fb995d99b60fe3b75377fa3bebd9878d719a291",
      "networkId": 0,
      "chainId": 0
    },
    {
      "hash": "0xcc4ac4cba5a152773aa98425dd59afae89a82b8de06a6b3bbeed6bd8fb25d39f",
      "blockHash": "0xe98b6e700311f79b3a201beb6cbfdefe999d17cf88771e26d2db37f369d05c9a",
      "blockNumber": 92346,
      "transactionIndex": 15,
      "confirmations": null,
      "from": "0xB2D7e6CD1b25F591e2E630Ba65DAC638e6cd4C8e",
      "gasPrice": {
        "_hex": "0x174876e800"
      },
      "gasLimit": {
        "_hex": "0x5208"
      },
      "to": "0xd7eb903162271c1AFa35fe69e37322c8A4d29b11",
      "value": {
        "_hex": "0xb43c32cc7dea09f8000"
      },
      "nonce": 15,
      "data": "0x",
      "r": "0x9f492ac9d23d5067e512c1190cdd58fb1fd3ba91d15a2ec697abb4065b02caae",
      "s": "0x667c159129e70e1c548be02d53eba888e0bd34148b9b99626db32fc9ff9081a3",
      "v": 27,
      "creates": null,
      "raw": "0xf86e0f85174876e80082520894d7eb903162271c1afa35fe69e37322c8a4d29b118a0b43c32cc7dea09f8000801ba09f492ac9d23d5067e512c1190cdd58fb1fd3ba91d15a2ec697abb4065b02caaea0667c159129e70e1c548be02d53eba888e0bd34148b9b99626db32fc9ff9081a3",
      "networkId": 0,
      "chainId": 0
    },
    {
      "hash": "0x09b4174542f3ae162314ec1a4fc0e487a0334be9a4f4d26cb42809ca50bb28c9",
      "blockHash": "0xe98b6e700311f79b3a201beb6cbfdefe999d17cf88771e26d2db37f369d05c9a",
      "blockNumber": 92346,
      "transactionIndex": 16,
      "confirmations": null,
      "from": "0xB2D7e6CD1b25F591e2E630Ba65DAC638e6cd4C8e",
      "gasPrice": {
        "_hex": "0x174876e800"
      },
      "gasLimit": {
        "_hex": "0x5208"
      },
      "to": "0x21AE688f755da68e95753E80b143D63d92046F3d",
      "value": {
        "_hex": "0x995a4567ab591ba8000"
      },
      "nonce": 16,
      "data": "0x",
      "r": "0x96ade04eae0a886149c12d36361c4760f9635d4ec2344bf1831488e25726b04b",
      "s": "0x2cd1f261412d7e29fb648bc1be0d12c72c9b9eb2a954ff2a344f5a98e03c101f",
      "v": 28,
      "creates": null,
      "raw": "0xf86e1085174876e8008252089421ae688f755da68e95753e80b143d63d92046f3d8a0995a4567ab591ba8000801ca096ade04eae0a886149c12d36361c4760f9635d4ec2344bf1831488e25726b04ba02cd1f261412d7e29fb648bc1be0d12c72c9b9eb2a954ff2a344f5a98e03c101f",
      "networkId": 0,
      "chainId": 0
    },
    {
      "hash": "0xe1f1c081d90f46c8bc3ce63f111a54d7ad10adb0bf5a9512907b6aab9d3a6f82",
      "blockHash": "0xe98b6e700311f79b3a201beb6cbfdefe999d17cf88771e26d2db37f369d05c9a",
      "blockNumber": 92346,
      "transactionIndex": 17,
      "confirmations": null,
      "from": "0xB2D7e6CD1b25F591e2E630Ba65DAC638e6cd4C8e",
      "gasPrice": {
        "_hex": "0x174876e800"
      },
      "gasLimit": {
        "_hex": "0x5208"
      },
      "to": "0x5298f6ac7590b7b56ED81fFD18Db083Db3922e31",
      "value": {
        "_hex": "0x964c3bc59bd37d48000"
      },
      "nonce": 17,
      "data": "0x",
      "r": "0x0fc4398a4211712e431e066bb0f61b6cbfff4b58bc78acd1f695524078417aa3",
      "s": "0x5fcf7df9d23fa92f6d90bea5ee2c3d252380c02211586f74eb9e3cf92b3725e0",
      "v": 27,
      "creates": null,
      "raw": "0xf86e1185174876e800825208945298f6ac7590b7b56ed81ffd18db083db3922e318a0964c3bc59bd37d48000801ba00fc4398a4211712e431e066bb0f61b6cbfff4b58bc78acd1f695524078417aa3a05fcf7df9d23fa92f6d90bea5ee2c3d252380c02211586f74eb9e3cf92b3725e0",
      "networkId": 0,
      "chainId": 0
    },
    {
      "hash": "0x66802b995724373f16bf0832d6c810375825a347684f7207cfd0f3e4647eb820",
      "blockHash": "0xe98b6e700311f79b3a201beb6cbfdefe999d17cf88771e26d2db37f369d05c9a",
      "blockNumber": 92346,
      "transactionIndex": 18,
      "confirmations": null,
      "from": "0xB2D7e6CD1b25F591e2E630Ba65DAC638e6cd4C8e",
      "gasPrice": {
        "_hex": "0x174876e800"
      },
      "gasLimit": {
        "_hex": "0x5208"
      },
      "to": "0x0Ce7b863693f133b14151f242f26d3f7a5424887",
      "value": {
        "_hex": "0x8ae4a0c19f9600e8000"
      },
      "nonce": 18,
      "data": "0x",
      "r": "0x762c980e45e07a4a8f0f8f97f0d55335ad39e8b55ecebfa00b27749d2ba4520c",
      "s": "0xfb5014fc02358ab41d046fd9c9810035ffe23238958ec909d38f90a9ea26491a",
      "v": 28,
      "creates": null,
      "raw": "0xf86e1285174876e800825208940ce7b863693f133b14151f242f26d3f7a54248878a08ae4a0c19f9600e8000801ca0762c980e45e07a4a8f0f8f97f0d55335ad39e8b55ecebfa00b27749d2ba4520ca0fb5014fc02358ab41d046fd9c9810035ffe23238958ec909d38f90a9ea26491a",
      "networkId": 0,
      "chainId": 0
    },
    {
      "hash": "0x78af1c83e465581a0f528885e82f2412b9885cbb24ec398fc43e3115534abd96",
      "blockHash": "0xe98b6e700311f79b3a201beb6cbfdefe999d17cf88771e26d2db37f369d05c9a",
      "blockNumber": 92346,
      "transactionIndex": 19,
      "confirmations": null,
      "from": "0xB2D7e6CD1b25F591e2E630Ba65DAC638e6cd4C8e",
      "gasPrice": {
        "_hex": "0x174876e800"
      },
      "gasLimit": {
        "_hex": "0x5208"
      },
      "to": "0xAD732c976593eeC4783B4e2ecd793979780BfEDB",
      "value": {
        "_hex": "0x87d6971f90106288000"
      },
      "nonce": 19,
      "data": "0x",
      "r": "0x48748d70e20d173630792b0b083945d245ed13c71b6534b53f8cd4d4ba5ac711",
      "s": "0xd8c7a73f520ac5445da6e4f421653ff3ff17705e64e483d0779342d664bf4df3",
      "v": 28,
      "creates": null,
      "raw": "0xf86e1385174876e80082520894ad732c976593eec4783b4e2ecd793979780bfedb8a087d6971f90106288000801ca048748d70e20d173630792b0b083945d245ed13c71b6534b53f8cd4d4ba5ac711a0d8c7a73f520ac5445da6e4f421653ff3ff17705e64e483d0779342d664bf4df3",
      "networkId": 0,
      "chainId": 0
    },
    {
      "hash": "0xd663a57c70692052fdd96805ac6dd132519452546f5997309992fc4622d0ed9f",
      "blockHash": "0xe98b6e700311f79b3a201beb6cbfdefe999d17cf88771e26d2db37f369d05c9a",
      "blockNumber": 92346,
      "transactionIndex": 20,
      "confirmations": null,
      "from": "0xB2D7e6CD1b25F591e2E630Ba65DAC638e6cd4C8e",
      "gasPrice": {
        "_hex": "0x174876e800"
      },
      "gasLimit": {
        "_hex": "0x5208"
      },
      "to": "0x91a8BAAeD012eA2e63803b593D0D0C2AAb4C5B0A",
      "value": {
        "_hex": "0x84c88d7d808ac428000"
      },
      "nonce": 20,
      "data": "0x",
      "r": "0x8f0f58e072605deb364b15e7445dea387fe76b9834557d9b0237c7ca6df48132",
      "s": "0x1354de782396a2e352a62e36bf807bf52f2c3be26e2b54a5726bdf7f2cde1b3a",
      "v": 27,
      "creates": null,
      "raw": "0xf86e1485174876e8008252089491a8baaed012ea2e63803b593d0d0c2aab4c5b0a8a084c88d7d808ac428000801ba08f0f58e072605deb364b15e7445dea387fe76b9834557d9b0237c7ca6df48132a01354de782396a2e352a62e36bf807bf52f2c3be26e2b54a5726bdf7f2cde1b3a",
      "networkId": 0,
      "chainId": 0
    },
    {
      "hash": "0x8c77f60f4c079bc30124970a96f27a2e9e3d7fd68996876e832de6eeadb22366",
      "blockHash": "0xe98b6e700311f79b3a201beb6cbfdefe999d17cf88771e26d2db37f369d05c9a",
      "blockNumber": 92346,
      "transactionIndex": 21,
      "confirmations": null,
      "from": "0xB2D7e6CD1b25F591e2E630Ba65DAC638e6cd4C8e",
      "gasPrice": {
        "_hex": "0x174876e800"
      },
      "gasLimit": {
        "_hex": "0x5208"
      },
      "to": "0x6890A72965d9c54316A0F345D736f28849328024",
      "value": {
        "_hex": "0x68e1f2250b7f3240000"
      },
      "nonce": 21,
      "data": "0x",
      "r": "0xe61d842a268a0267f2e47295d317d22d13e5bae14842cdc7316867312a8109f4",
      "s": "0x3a5480c8c8f05cca8bff23088dcd859712ea4ed1249e4a2766e3ea88ec8f8137",
      "v": 28,
      "creates": null,
      "raw": "0xf86e1585174876e800825208946890a72965d9c54316a0f345d736f288493280248a068e1f2250b7f3240000801ca0e61d842a268a0267f2e47295d317d22d13e5bae14842cdc7316867312a8109f4a03a5480c8c8f05cca8bff23088dcd859712ea4ed1249e4a2766e3ea88ec8f8137",
      "networkId": 0,
      "chainId": 0
    },
    {
      "hash": "0x5460446fecd8ca3783bf4934c93ab816e1df63ba42b2144d1bbbecce2f1e4920",
      "blockHash": "0xe98b6e700311f79b3a201beb6cbfdefe999d17cf88771e26d2db37f369d05c9a",
      "blockNumber": 92346,
      "transactionIndex": 22,
      "confirmations": null,
      "from": "0xB2D7e6CD1b25F591e2E630Ba65DAC638e6cd4C8e",
      "gasPrice": {
        "_hex": "0x174876e800"
      },
      "gasLimit": {
        "_hex": "0x5208"
      },
      "to": "0xe941484f90d740212E3beBD3f01F24E11be80275",
      "value": {
        "_hex": "0x68adcf7cd2f33f60000"
      },
      "nonce": 22,
      "data": "0x",
      "r": "0x8860dbde0dc6f66987e767197c3543b3d18fd8d976c834d68a5f779d1072684f",
      "s": "0xf7502578f3495d4665857e795eaa54dff87a9d87e01d25cd3831618d61c00922",
      "v": 28,
      "creates": null,
      "raw": "0xf86e1685174876e80082520894e941484f90d740212e3bebd3f01f24e11be802758a068adcf7cd2f33f60000801ca08860dbde0dc6f66987e767197c3543b3d18fd8d976c834d68a5f779d1072684fa0f7502578f3495d4665857e795eaa54dff87a9d87e01d25cd3831618d61c00922",
      "networkId": 0,
      "chainId": 0
    },
    {
      "hash": "0x7122e109e5c4c6b79fe4f743e854839d1caba62874ff16e2f15e9dcf0c446e2a",
      "blockHash": "0xe98b6e700311f79b3a201beb6cbfdefe999d17cf88771e26d2db37f369d05c9a",
      "blockNumber": 92346,
      "transactionIndex": 23,
      "confirmations": null,
      "from": "0xB2D7e6CD1b25F591e2E630Ba65DAC638e6cd4C8e",
      "gasPrice": {
        "_hex": "0x174876e800"
      },
      "gasLimit": {
        "_hex": "0x5208"
      },
      "to": "0xF7E9cd4E40d304a1B160e128993e0704cC04f161",
      "value": {
        "_hex": "0x6432d25dd7f0cb40000"
      },
      "nonce": 23,
      "data": "0x",
      "r": "0xb515dc19744eeee21a4bb2829b3cdee239f99f616ea682c92e2a656f313e64ce",
      "s": "0x28ef687379bbfa06e5a274a6992a03dec6156bc8b787212315d99ad6aed12478",
      "v": 27,
      "creates": null,
      "raw": "0xf86e1785174876e80082520894f7e9cd4e40d304a1b160e128993e0704cc04f1618a06432d25dd7f0cb40000801ba0b515dc19744eeee21a4bb2829b3cdee239f99f616ea682c92e2a656f313e64cea028ef687379bbfa06e5a274a6992a03dec6156bc8b787212315d99ad6aed12478",
      "networkId": 0,
      "chainId": 0
    },
    {
      "hash": "0x20cd3742b7ee4ece8e9517703b569b822cf25c5fadc68b0dabcd8ccd844b9607",
      "blockHash": "0xe98b6e700311f79b3a201beb6cbfdefe999d17cf88771e26d2db37f369d05c9a",
      "blockNumber": 92346,
      "transactionIndex": 24,
      "confirmations": null,
      "from": "0xB2D7e6CD1b25F591e2E630Ba65DAC638e6cd4C8e",
      "gasPrice": {
        "_hex": "0x174876e800"
      },
      "gasLimit": {
        "_hex": "0x5208"
      },
      "to": "0xfA86CA27bf2854d98870837Fb6F6Dfe4bF6453fc",
      "value": {
        "_hex": "0x589714b1a3275c00000"
      },
      "nonce": 24,
      "data": "0x",
      "r": "0x52e75e0e471478cc88cd39b6ef5c719eabb5fcf4997a441458e68d14db017187",
      "s": "0xb522786d1a015abf3b29fd5a58ed761471107c5b7397c7d1da3eb9ec02a0042f",
      "v": 27,
      "creates": null,
      "raw": "0xf86e1885174876e80082520894fa86ca27bf2854d98870837fb6f6dfe4bf6453fc8a0589714b1a3275c00000801ba052e75e0e471478cc88cd39b6ef5c719eabb5fcf4997a441458e68d14db017187a0b522786d1a015abf3b29fd5a58ed761471107c5b7397c7d1da3eb9ec02a0042f",
      "networkId": 0,
      "chainId": 0
    },
    {
      "hash": "0xe94c3e08c61829642360cf7d55e5cf0993a97036c9a18176d0254a5175061c21",
      "blockHash": "0xe98b6e700311f79b3a201beb6cbfdefe999d17cf88771e26d2db37f369d05c9a",
      "blockNumber": 92346,
      "transactionIndex": 25,
      "confirmations": null,
      "from": "0xB2D7e6CD1b25F591e2E630Ba65DAC638e6cd4C8e",
      "gasPrice": {
        "_hex": "0x174876e800"
      },
      "gasLimit": {
        "_hex": "0x5208"
      },
      "to": "0x4fE56Ab3baE1B0A44433458333C4b05A248F8241",
      "value": {
        "_hex": "0x5246dec54b902c60000"
      },
      "nonce": 25,
      "data": "0x",
      "r": "0x517679e26ffeb9202e87e7c6fb4cb915c036960c70205c389749eb2b06a84f72",
      "s": "0x17ed73fb1c0c18a8736f1e16d2a6a7fa069caaca6c87eaa3da3bc6804ce4f1b1",
      "v": 28,
      "creates": null,
      "raw": "0xf86e1985174876e800825208944fe56ab3bae1b0a44433458333c4b05a248f82418a05246dec54b902c60000801ca0517679e26ffeb9202e87e7c6fb4cb915c036960c70205c389749eb2b06a84f72a017ed73fb1c0c18a8736f1e16d2a6a7fa069caaca6c87eaa3da3bc6804ce4f1b1",
      "networkId": 0,
      "chainId": 0
    },
    {
      "hash": "0xa6b97523b0f08c5bec98feb43ee115319594504279efe98d64fda0af357c112a",
      "blockHash": "0xe98b6e700311f79b3a201beb6cbfdefe999d17cf88771e26d2db37f369d05c9a",
      "blockNumber": 92346,
      "transactionIndex": 26,
      "confirmations": null,
      "from": "0xB2D7e6CD1b25F591e2E630Ba65DAC638e6cd4C8e",
      "gasPrice": {
        "_hex": "0x174876e800"
      },
      "gasLimit": {
        "_hex": "0x5208"
      },
      "to": "0xfF68C2F39C4e7FE2f92c2DC2f8615b1BF070e0FA",
      "value": {
        "_hex": "0x503d8316de853198000"
      },
      "nonce": 26,
      "data": "0x",
      "r": "0xc2883e9238a42ef83c798f3b830a2db6b908c6eec26ae6ce9ca28efefa89f492",
      "s": "0x351f0428f9ccee4230d87c413eb953651a312341301dfda28dafe04b3500e40d",
      "v": 28,
      "creates": null,
      "raw": "0xf86e1a85174876e80082520894ff68c2f39c4e7fe2f92c2dc2f8615b1bf070e0fa8a0503d8316de853198000801ca0c2883e9238a42ef83c798f3b830a2db6b908c6eec26ae6ce9ca28efefa89f492a0351f0428f9ccee4230d87c413eb953651a312341301dfda28dafe04b3500e40d",
      "networkId": 0,
      "chainId": 0
    },
    {
      "hash": "0x344886d40c907b767a0eb0de360d02eb3e15a59c39bae806e1f094dd4ee1059a",
      "blockHash": "0xe98b6e700311f79b3a201beb6cbfdefe999d17cf88771e26d2db37f369d05c9a",
      "blockNumber": 92346,
      "transactionIndex": 27,
      "confirmations": null,
      "from": "0xB2D7e6CD1b25F591e2E630Ba65DAC638e6cd4C8e",
      "gasPrice": {
        "_hex": "0x174876e800"
      },
      "gasLimit": {
        "_hex": "0x5208"
      },
      "to": "0x426259B0A756701a8B663528522156C0288f0F24",
      "value": {
        "_hex": "0x4fd53d8d9582ff70000"
      },
      "nonce": 27,
      "data": "0x",
      "r": "0xe317ccbcc0c71834570fcf34296655a866af918bd778a1bfbf958604c48a4c4e",
      "s": "0xe63723357896b1080d04cb0d827231ae6629e2dc3cc01ecc98a2ffb31e397dc6",
      "v": 27,
      "creates": null,
      "raw": "0xf86e1b85174876e80082520894426259b0a756701a8b663528522156c0288f0f248a04fd53d8d9582ff70000801ba0e317ccbcc0c71834570fcf34296655a866af918bd778a1bfbf958604c48a4c4ea0e63723357896b1080d04cb0d827231ae6629e2dc3cc01ecc98a2ffb31e397dc6",
      "networkId": 0,
      "chainId": 0
    },
    {
      "hash": "0xb4edef22b8cdb68c1508f2959a788843494ebb69c40247e098909163d4c75ab7",
      "blockHash": "0xe98b6e700311f79b3a201beb6cbfdefe999d17cf88771e26d2db37f369d05c9a",
      "blockNumber": 92346,
      "transactionIndex": 28,
      "confirmations": null,
      "from": "0xB2D7e6CD1b25F591e2E630Ba65DAC638e6cd4C8e",
      "gasPrice": {
        "_hex": "0x174876e800"
      },
      "gasLimit": {
        "_hex": "0x5208"
      },
      "to": "0x70089842ad51c663fEBE262e3FD47dAB9Ac7Ff73",
      "value": {
        "_hex": "0x4a21700b97644140000"
      },
      "nonce": 28,
      "data": "0x",
      "r": "0x756f7f8cc6b07b7cd28e5214e98d853da06d85111b3df46b93afe30e364054ae",
      "s": "0x18651c8cabb35225c56404f1b8fc91c8d949d782e50334614f8ed0034820a184",
      "v": 28,
      "creates": null,
      "raw": "0xf86e1c85174876e8008252089470089842ad51c663febe262e3fd47dab9ac7ff738a04a21700b97644140000801ca0756f7f8cc6b07b7cd28e5214e98d853da06d85111b3df46b93afe30e364054aea018651c8cabb35225c56404f1b8fc91c8d949d782e50334614f8ed0034820a184",
      "networkId": 0,
      "chainId": 0
    },
    {
      "hash": "0xadccc84dbe4e054ec772d967cb4c938db0f10bc8c0dadd6be5492d487a412ad2",
      "blockHash": "0xe98b6e700311f79b3a201beb6cbfdefe999d17cf88771e26d2db37f369d05c9a",
      "blockNumber": 92346,
      "transactionIndex": 29,
      "confirmations": null,
      "from": "0xB2D7e6CD1b25F591e2E630Ba65DAC638e6cd4C8e",
      "gasPrice": {
        "_hex": "0x174876e800"
      },
      "gasLimit": {
        "_hex": "0x5208"
      },
      "to": "0x9fb0aEfB1c991AF1F6dCdcEF85CF3bc2B2517fB8",
      "value": {
        "_hex": "0x4300af0cadc8ad50000"
      },
      "nonce": 29,
      "data": "0x",
      "r": "0x422ceadea01b6729b40f10217c36a7ee617c58a56be7322dcc633a41d66a5f85",
      "s": "0xc428f06f64f80e3a872d9f1a83da5414f84d4844a931b1ad6951a35b893a6a90",
      "v": 27,
      "creates": null,
      "raw": "0xf86e1d85174876e800825208949fb0aefb1c991af1f6dcdcef85cf3bc2b2517fb88a04300af0cadc8ad50000801ba0422ceadea01b6729b40f10217c36a7ee617c58a56be7322dcc633a41d66a5f85a0c428f06f64f80e3a872d9f1a83da5414f84d4844a931b1ad6951a35b893a6a90",
      "networkId": 0,
      "chainId": 0
    },
    {
      "hash": "0xd2490795aa12fb18076ec5d503d449a68ac07a8946416d1b024102cfcf8906a5",
      "blockHash": "0xe98b6e700311f79b3a201beb6cbfdefe999d17cf88771e26d2db37f369d05c9a",
      "blockNumber": 92346,
      "transactionIndex": 30,
      "confirmations": null,
      "from": "0xB2D7e6CD1b25F591e2E630Ba65DAC638e6cd4C8e",
      "gasPrice": {
        "_hex": "0x174876e800"
      },
      "gasLimit": {
        "_hex": "0x5208"
      },
      "to": "0xB82935FDdfD2dBAa58f648e8D23274668B534008",
      "value": {
        "_hex": "0x412b76067949a568000"
      },
      "nonce": 30,
      "data": "0x",
      "r": "0x7e4fcaed47168a0dd3d3d3780cc938cd514571e4867795ba4a6f808c0af18e2f",
      "s": "0x597a9519e3a50caf54a343f017474e04b59e4ccd77a8860d0d33cd1e0228bc52",
      "v": 27,
      "creates": null,
      "raw": "0xf86e1e85174876e80082520894b82935fddfd2dbaa58f648e8d23274668b5340088a0412b76067949a568000801ba07e4fcaed47168a0dd3d3d3780cc938cd514571e4867795ba4a6f808c0af18e2fa0597a9519e3a50caf54a343f017474e04b59e4ccd77a8860d0d33cd1e0228bc52",
      "networkId": 0,
      "chainId": 0
    },
    {
      "hash": "0x8341a9608c9da25dffd6b093f39a8ca72d769c78320b13e0576e76867ce34d80",
      "blockHash": "0xe98b6e700311f79b3a201beb6cbfdefe999d17cf88771e26d2db37f369d05c9a",
      "blockNumber": 92346,
      "transactionIndex": 31,
      "confirmations": null,
      "from": "0xB2D7e6CD1b25F591e2E630Ba65DAC638e6cd4C8e",
      "gasPrice": {
        "_hex": "0x174876e800"
      },
      "gasLimit": {
        "_hex": "0x5208"
      },
      "to": "0xC9B3815Dd67E281133d38Ce920b6579c24595734",
      "value": {
        "_hex": "0x412b76067949a568000"
      },
      "nonce": 31,
      "data": "0x",
      "r": "0xc06863f6926fa2ce8f306c785dd7ddae3bc47113ba47e1b24e12d92a89fa2404",
      "s": "0x102212abd300ec3a61ad99f06de7590c502a7d5b40caa0709222517eed6b5b2c",
      "v": 27,
      "creates": null,
      "raw": "0xf86e1f85174876e80082520894c9b3815dd67e281133d38ce920b6579c245957348a0412b76067949a568000801ba0c06863f6926fa2ce8f306c785dd7ddae3bc47113ba47e1b24e12d92a89fa2404a0102212abd300ec3a61ad99f06de7590c502a7d5b40caa0709222517eed6b5b2c",
      "networkId": 0,
      "chainId": 0
    },
    {
      "hash": "0x499dc9bd34d4c5e1d9c7465b029fff038e4898264e56262cb7f06f846d508d55",
      "blockHash": "0xe98b6e700311f79b3a201beb6cbfdefe999d17cf88771e26d2db37f369d05c9a",
      "blockNumber": 92346,
      "transactionIndex": 32,
      "confirmations": null,
      "from": "0xB2D7e6CD1b25F591e2E630Ba65DAC638e6cd4C8e",
      "gasPrice": {
        "_hex": "0x174876e800"
      },
      "gasLimit": {
        "_hex": "0x5208"
      },
      "to": "0xB59cC540B5c82ED49d86146D0928644745eFE705",
      "value": {
        "_hex": "0x2af8a830025cd1b0000"
      },
      "nonce": 32,
      "data": "0x",
      "r": "0x780c01df24ccdae796a4356318507040929588c5f84b54a77513e4da7c73fe97",
      "s": "0x382b741c22849ca1f5cb1cb2e0da099a39b5259784675120b39455e45df28a76",
      "v": 27,
      "creates": null,
      "raw": "0xf86e2085174876e80082520894b59cc540b5c82ed49d86146d0928644745efe7058a02af8a830025cd1b0000801ba0780c01df24ccdae796a4356318507040929588c5f84b54a77513e4da7c73fe97a0382b741c22849ca1f5cb1cb2e0da099a39b5259784675120b39455e45df28a76",
      "networkId": 0,
      "chainId": 0
    },
    {
      "hash": "0x9c92189333de742f9cc4fc9c90599f631a3de2b072c4b65f22fb8d1ab1430855",
      "blockHash": "0xe98b6e700311f79b3a201beb6cbfdefe999d17cf88771e26d2db37f369d05c9a",
      "blockNumber": 92346,
      "transactionIndex": 33,
      "confirmations": null,
      "from": "0xB2D7e6CD1b25F591e2E630Ba65DAC638e6cd4C8e",
      "gasPrice": {
        "_hex": "0x174876e800"
      },
      "gasLimit": {
        "_hex": "0x5208"
      },
      "to": "0xaF3Aa7b4cecb92995Cd240A849C9DAE70E09186d",
      "value": {
        "_hex": "0x27ea9ec6cac17fb8000"
      },
      "nonce": 33,
      "data": "0x",
      "r": "0xb6d211aa314ec969989cb2f5dd1a3f1ee3e50c1b2365d9db8dd1e672ec3d59e8",
      "s": "0x81023e34e9853c07ca98ebb25c5fe9ed5bb3e65282ba2366443371f72c916d34",
      "v": 28,
      "creates": null,
      "raw": "0xf86e2185174876e80082520894af3aa7b4cecb92995cd240a849c9dae70e09186d8a027ea9ec6cac17fb8000801ca0b6d211aa314ec969989cb2f5dd1a3f1ee3e50c1b2365d9db8dd1e672ec3d59e8a081023e34e9853c07ca98ebb25c5fe9ed5bb3e65282ba2366443371f72c916d34",
      "networkId": 0,
      "chainId": 0
    },
    {
      "hash": "0x1df80eefed7fe5e7565345539abf279567b43c2b93316d41349b2d02fb0570f0",
      "blockHash": "0xe98b6e700311f79b3a201beb6cbfdefe999d17cf88771e26d2db37f369d05c9a",
      "blockNumber": 92346,
      "transactionIndex": 34,
      "confirmations": null,
      "from": "0xB2D7e6CD1b25F591e2E630Ba65DAC638e6cd4C8e",
      "gasPrice": {
        "_hex": "0x174876e800"
      },
      "gasLimit": {
        "_hex": "0x5208"
      },
      "to": "0x30475463369f8f18ec9724ed53F1B71f24ec48B2",
      "value": {
        "_hex": "0x226af3ed052eb468000"
      },
      "nonce": 34,
      "data": "0x",
      "r": "0x5dcc4f1aa14b629012511eeabfd9696d520b31e6e75c0baa8c48b9429ed6f697",
      "s": "0xc7176d39cda18aa39b65b10ca9b1f9bf2c9cb411b223b2629f526b1c19e54872",
      "v": 28,
      "creates": null,
      "raw": "0xf86e2285174876e8008252089430475463369f8f18ec9724ed53f1b71f24ec48b28a0226af3ed052eb468000801ca05dcc4f1aa14b629012511eeabfd9696d520b31e6e75c0baa8c48b9429ed6f697a0c7176d39cda18aa39b65b10ca9b1f9bf2c9cb411b223b2629f526b1c19e54872",
      "networkId": 0,
      "chainId": 0
    },
    {
      "hash": "0xdb1c573140a1462ae84a76e6760669c2179cfb61ca3b77d7ea1767836d6bef92",
      "blockHash": "0xe98b6e700311f79b3a201beb6cbfdefe999d17cf88771e26d2db37f369d05c9a",
      "blockNumber": 92346,
      "transactionIndex": 35,
      "confirmations": null,
      "from": "0xB2D7e6CD1b25F591e2E630Ba65DAC638e6cd4C8e",
      "gasPrice": {
        "_hex": "0x174876e800"
      },
      "gasLimit": {
        "_hex": "0x5208"
      },
      "to": "0x3E0A2c3E2eB13e7cD8c35A7B094eEeeB2DE71BD0",
      "value": {
        "_hex": "0x226af3ed052eb468000"
      },
      "nonce": 35,
      "data": "0x",
      "r": "0xef91f8446b0ee1be3ad3d0f943cbf67fe0efead3cf7a8a87adf125b5385e6f3f",
      "s": "0x4a18d83d584d7c6646dc77c4fdab77864ba816a026502e88bd2158ed8a8b157e",
      "v": 27,
      "creates": null,
      "raw": "0xf86e2385174876e800825208943e0a2c3e2eb13e7cd8c35a7b094eeeeb2de71bd08a0226af3ed052eb468000801ba0ef91f8446b0ee1be3ad3d0f943cbf67fe0efead3cf7a8a87adf125b5385e6f3fa04a18d83d584d7c6646dc77c4fdab77864ba816a026502e88bd2158ed8a8b157e",
      "networkId": 0,
      "chainId": 0
    },
    {
      "hash": "0x4085723839f4952e00c9162bc7aa678d9b60dd49236d4a2a0ee62e3710d9cd80",
      "blockHash": "0xe98b6e700311f79b3a201beb6cbfdefe999d17cf88771e26d2db37f369d05c9a",
      "blockNumber": 92346,
      "transactionIndex": 36,
      "confirmations": null,
      "from": "0xB2D7e6CD1b25F591e2E630Ba65DAC638e6cd4C8e",
      "gasPrice": {
        "_hex": "0x174876e800"
      },
      "gasLimit": {
        "_hex": "0x5208"
      },
      "to": "0xADcf9243B830A70ABCEFEfE62f12315E650E3561",
      "value": {
        "_hex": "0x1f28c7a2bd1d2328000"
      },
      "nonce": 36,
      "data": "0x",
      "r": "0x58d87e5ed72e6fc77fdc487bfdc84486838c608081cce5425395888d0d503459",
      "s": "0xf6b4dba7acc7622a42a7fa68b6f2c3796287ee15a21d0ecfd0b7255100a26fa4",
      "v": 28,
      "creates": null,
      "raw": "0xf86e2485174876e80082520894adcf9243b830a70abcefefe62f12315e650e35618a01f28c7a2bd1d2328000801ca058d87e5ed72e6fc77fdc487bfdc84486838c608081cce5425395888d0d503459a0f6b4dba7acc7622a42a7fa68b6f2c3796287ee15a21d0ecfd0b7255100a26fa4",
      "networkId": 0,
      "chainId": 0
    },
    {
      "hash": "0x3e45286f887aabcba678d88f8e6ed5b9251b7513708929aefe7a91d896e95645",
      "blockHash": "0xe98b6e700311f79b3a201beb6cbfdefe999d17cf88771e26d2db37f369d05c9a",
      "blockNumber": 92346,
      "transactionIndex": 37,
      "confirmations": null,
      "from": "0xB2D7e6CD1b25F591e2E630Ba65DAC638e6cd4C8e",
      "gasPrice": {
        "_hex": "0x174876e800"
      },
      "gasLimit": {
        "_hex": "0x5208"
      },
      "to": "0x096bcf8DCBd1Ed6b794164affe2123334B8cc377",
      "value": {
        "_hex": "0x19dd3faa08009720000"
      },
      "nonce": 37,
      "data": "0x",
      "r": "0x328a9c72191be5ee5063fa07c6879f82d4e30bfa253be34cfcc666c7dac43dca",
      "s": "0xdb50cc561d15e972f68b5646a63949d453213b3ce495f3e413cc68ffb464d9ac",
      "v": 27,
      "creates": null,
      "raw": "0xf86e2585174876e80082520894096bcf8dcbd1ed6b794164affe2123334b8cc3778a019dd3faa08009720000801ba0328a9c72191be5ee5063fa07c6879f82d4e30bfa253be34cfcc666c7dac43dcaa0db50cc561d15e972f68b5646a63949d453213b3ce495f3e413cc68ffb464d9ac",
      "networkId": 0,
      "chainId": 0
    },
    {
      "hash": "0xdd97007bae198580ef0c37fc50755611c72e9f11f1f94b7230094960195ffc3b",
      "blockHash": "0xe98b6e700311f79b3a201beb6cbfdefe999d17cf88771e26d2db37f369d05c9a",
      "blockNumber": 92346,
      "transactionIndex": 38,
      "confirmations": null,
      "from": "0xB2D7e6CD1b25F591e2E630Ba65DAC638e6cd4C8e",
      "gasPrice": {
        "_hex": "0x174876e800"
      },
      "gasLimit": {
        "_hex": "0x5208"
      },
      "to": "0xcfEc6A28CF84b338d84dd9CCb0F147F9fc24CD40",
      "value": {
        "_hex": "0x19dd3faa08009720000"
      },
      "nonce": 38,
      "data": "0x",
      "r": "0xf3c83bf512a94ed7a6631a8c4d705fe966d9ad7e017d4e9478a08b9a32d8340e",
      "s": "0xc983f1f979625d314513c3514c5fab74c12366a8c9ac56a823c7e6c3477a6ce4",
      "v": 28,
      "creates": null,
      "raw": "0xf86e2685174876e80082520894cfec6a28cf84b338d84dd9ccb0f147f9fc24cd408a019dd3faa08009720000801ca0f3c83bf512a94ed7a6631a8c4d705fe966d9ad7e017d4e9478a08b9a32d8340ea0c983f1f979625d314513c3514c5fab74c12366a8c9ac56a823c7e6c3477a6ce4",
      "networkId": 0,
      "chainId": 0
    },
    {
      "hash": "0x621bbe1114d9aaec55dfe82095b541bc90637a07741f3f64428b2a8ce886a461",
      "blockHash": "0xe98b6e700311f79b3a201beb6cbfdefe999d17cf88771e26d2db37f369d05c9a",
      "blockNumber": 92346,
      "transactionIndex": 39,
      "confirmations": null,
      "from": "0xB2D7e6CD1b25F591e2E630Ba65DAC638e6cd4C8e",
      "gasPrice": {
        "_hex": "0x174876e800"
      },
      "gasLimit": {
        "_hex": "0x5208"
      },
      "to": "0x70E3e34C0100B1E05700FA699183C82Af7a25Ba0",
      "value": {
        "_hex": "0x12bc7eab1e650330000"
      },
      "nonce": 39,
      "data": "0x",
      "r": "0x3c5ea8d7e63a40bf5142af950f75143cacf50264732aae361943a37b81ee005f",
      "s": "0x452c34d01424499b71915bcb6db62dfeb0c521e9cfe20b12f8d63d3899b230b4",
      "v": 28,
      "creates": null,
      "raw": "0xf86e2785174876e8008252089470e3e34c0100b1e05700fa699183c82af7a25ba08a012bc7eab1e650330000801ca03c5ea8d7e63a40bf5142af950f75143cacf50264732aae361943a37b81ee005fa0452c34d01424499b71915bcb6db62dfeb0c521e9cfe20b12f8d63d3899b230b4",
      "networkId": 0,
      "chainId": 0
    },
    {
      "hash": "0xce3e104f32ef7192142c2a507f9ceada77570079d890c20e042052d9704448e1",
      "blockHash": "0xe98b6e700311f79b3a201beb6cbfdefe999d17cf88771e26d2db37f369d05c9a",
      "blockNumber": 92346,
      "transactionIndex": 40,
      "confirmations": null,
      "from": "0xB2D7e6CD1b25F591e2E630Ba65DAC638e6cd4C8e",
      "gasPrice": {
        "_hex": "0x174876e800"
      },
      "gasLimit": {
        "_hex": "0x5208"
      },
      "to": "0xE3e5741337A7be0Fd8EAe7dF28705566980A577e",
      "value": {
        "_hex": "0x789064f5ab379b0000"
      },
      "nonce": 40,
      "data": "0x",
      "r": "0xb78fe6d59352c9d4bd7444b75561030acdf79836e50f79cfd4dc8c951e6429fd",
      "s": "0x43297e5d8b9216a7ac53979c71752bc9b7b52f62090bf0d57aeb035af324925c",
      "v": 28,
      "creates": null,
      "raw": "0xf86d2885174876e80082520894e3e5741337a7be0fd8eae7df28705566980a577e89789064f5ab379b0000801ca0b78fe6d59352c9d4bd7444b75561030acdf79836e50f79cfd4dc8c951e6429fda043297e5d8b9216a7ac53979c71752bc9b7b52f62090bf0d57aeb035af324925c",
      "networkId": 0,
      "chainId": 0
    },
    {
      "hash": "0xc0c6281d2760085c927722d56284926174ef76c37bde1320d5016e3f9c3b8dea",
      "blockHash": "0xe98b6e700311f79b3a201beb6cbfdefe999d17cf88771e26d2db37f369d05c9a",
      "blockNumber": 92346,
      "transactionIndex": 41,
      "confirmations": null,
      "from": "0xB2D7e6CD1b25F591e2E630Ba65DAC638e6cd4C8e",
      "gasPrice": {
        "_hex": "0x174876e800"
      },
      "gasLimit": {
        "_hex": "0x5208"
      },
      "to": "0x355F44E5dEE45414dd2502D1Abf99AA641f8D4d2",
      "value": {
        "_hex": "0x2da09876e409f53c8000"
      },
      "nonce": 41,
      "data": "0x",
      "r": "0x3d1025d721c33a56374a49b4fcfff24b1251f9db5bc6383aed7f354303a104aa",
      "s": "0x572027d37efc9aee12513f07cc4e9024bbb2afcdda2cc76730c3a76fe6a2bdff",
      "v": 28,
      "creates": null,
      "raw": "0xf86e2985174876e80082520894355f44e5dee45414dd2502d1abf99aa641f8d4d28a2da09876e409f53c8000801ca03d1025d721c33a56374a49b4fcfff24b1251f9db5bc6383aed7f354303a104aaa0572027d37efc9aee12513f07cc4e9024bbb2afcdda2cc76730c3a76fe6a2bdff",
      "networkId": 0,
      "chainId": 0
    },
    {
      "hash": "0x4e20af753897e82e3c582097dd7bfed7399dc375b86f219925630ad23e499a7f",
      "blockHash": "0xe98b6e700311f79b3a201beb6cbfdefe999d17cf88771e26d2db37f369d05c9a",
      "blockNumber": 92346,
      "transactionIndex": 42,
      "confirmations": null,
      "from": "0xB2D7e6CD1b25F591e2E630Ba65DAC638e6cd4C8e",
      "gasPrice": {
        "_hex": "0x174876e800"
      },
      "gasLimit": {
        "_hex": "0x5208"
      },
      "to": "0x631585604245516d5c06fa70F904960F240EA503",
      "value": {
        "_hex": "0x16d04c3d38c44d018000"
      },
      "nonce": 42,
      "data": "0x",
      "r": "0x04015d3762d7ce17f2e065a0140d13aacd591d9b8f215553584cd56d1565d915",
      "s": "0x761096dd278de71ad7deb507cfd61f9fdc4ed2ebf66ca1f1a2dfad3e926ae398",
      "v": 27,
      "creates": null,
      "raw": "0xf86e2a85174876e80082520894631585604245516d5c06fa70f904960f240ea5038a16d04c3d38c44d018000801ba004015d3762d7ce17f2e065a0140d13aacd591d9b8f215553584cd56d1565d915a0761096dd278de71ad7deb507cfd61f9fdc4ed2ebf66ca1f1a2dfad3e926ae398",
      "networkId": 0,
      "chainId": 0
    }
  ]
}