{
  "hash": "0x6e5e9a4b3b09096a561e9ee275fa84737a70665de19b4064860d9bd3e2c3cfb6",
  "parentHash": "0x4624dacafbe1b618d7f53d12753fa873167a5d645916327517cab625f043d9a4",
  "number": 92425,
  "timestamp": 1439671715,
  "nonce": "0xcb2b1ca9fccc5533",
  "difficulty": 3530329643376,
  "gasLimit": {
    "_hex": "0x2fefd8"
  },
  "gasUsed": {
    "_hex": "0x23cbd"
  },
  "miner": "0xf927a40C8B7F6E07c5af7FA2155B4864a4112B13",
  "extraData": "0x",
  "transactions": [
    {
      "hash": "0xa157da0446ac407d66babf879500b441a32eaf6126e1c5882f4ec55e099df1f3",
      "blockHash": "0x6e5e9a4b3b09096a561e9ee275fa84737a70665de19b4064860d9bd3e2c3cfb6",
      "blockNumber": 92425,
      "transactionIndex": 0,
      "confirmations": null,
      "from": "0x0D82Cd113DC35DdDA93f38166cD5CDe8b88e36A1",
      "gasPrice": {
        "_hex": "0xd8d194d6c"
      },
      "gasLimit": {
        "_hex": "0x30d40"
      },
      "to": "0x4d6387f3B967dA39B11DE111158D49754C31985d",
      "value": {
        "_hex": "0x16345785d8a0000"
      },
      "nonce": 17,
      "data": "0x02dc2e1d000000000000000000000000000000000000000000000000000000000000002000000000000000000000000000000000000000000000000000000000000000223137326142713267314b38327174626745755876384b634433424535313462583772000000000000000000000000000000000000000000000000000000000000",
      "r": "0x8151ba4ec08a6d290749cb53e9332b124e0b6238e46b265daaddb60a40995c2a",
      "s": "0x74c285ee90e6fef537d5aec2ca639a341581c60150bb79f5a752aeee17ab245f",
      "v": 28,
      "creates": null,
      "raw": "0xf8f211850d8d194d6c83030d40944d6387f3b967da39b11de111158d49754c31985d88016345785d8a0000b88402dc2e1d000000000000000000000000000000000000000000000000000000000000002000000000000000000000000000000000000000000000000000000000000000223137326142713267314b38327174626745755876384b6344334245353134625837720000000000000000000000000000000000000000000000000000000000001ca08151ba4ec08a6d290749cb53e9332b124e0b6238e46b265daaddb60a40995c2aa074c285ee90e6fef537d5aec2ca639a341581c60150bb79f5a752aeee17ab245f",
      "networkId": 0,
      "chainId": 0
    }
  ]
}