{
  "hash": "0xb6fc7624f4846aacd4e9236f159b5b9b29d74692ff9849f910761adca4fede6b",
  "parentHash": "0xc3ccbcd4d68294979747bbed338c414acbce65f2c1b7557da73386b140fbd96a",
  "number": 67169,
  "timestamp": 1439267209,
  "nonce": "0x711c6f4feae1d482",
  "difficulty": 1928958224500,
  "gasLimit": {
    "_hex": "0x2fefd8"
  },
  "gasUsed": {
    "_hex": "0x5208"
  },
  "miner": "0xf927a40C8B7F6E07c5af7FA2155B4864a4112B13",
  "extraData": "0x",
  "transactions": [
    {
      "hash": "0xd30cfcb80a596a4f8be11a33b94a27805f9c262345d8d6990dcb3370b2715634",
      "blockHash": "0xb6fc7624f4846aacd4e9236f159b5b9b29d74692ff9849f910761adca4fede6b",
      "blockNumber": 67169,
      "transactionIndex": 0,
      "confirmations": null,
      "from": "0x640bAfc5732d621d5611eed670718409acb81366",
      "gasPrice": {
        "_hex": "0xdf229ca3f"
      },
      "gasLimit": {
        "_hex": "0x15f90"
      },
      "to": "0xDA4E0Ba268486216E0B3Ad5ccEAa1E7EdB1C2751",
      "value": {
        "_hex": "0xde0b6b3a7640000"
      },
      "nonce": 0,
      "data": "0x",
      "r": "0x90e8ff0d2960bc8c4090ea3d3070b222dfa41f91459ab8af084f398d5c8b9b2a",
      "s": "0x13de42f3e271d0cda206390e962bbb7eb658544d0dab997733e36ff9554d49ab",
      "v": 27,
      "creates": null,
      "raw": "0xf86d80850df229ca3f83015f9094da4e0ba268486216e0b3ad5cceaa1e7edb1c2751880de0b6b3a7640000801ba090e8ff0d2960bc8c4090ea3d3070b222dfa41f91459ab8af084f398d5c8b9b2aa013de42f3e271d0cda206390e962bbb7eb658544d0dab997733e36ff9554d49ab",
      "networkId": 0,
      "chainId": 0
    }
  ]
}