{
  "hash": "0x4e2253d044abbabedaba2cf69703e74867d340f7cb5ebeb68e327f9712b49fcb",
  "parentHash": "0xb5d1a720745ae802cec42962173be9779c9c37e5e305e9112a706b8200f9c994",
  "number": 87847,
  "timestamp": 1439598403,
  "nonce": "0x6d7749708c9aaf95",
  "difficulty": 3181792745541,
  "gasLimit": {
    "_hex": "0x2fefd8"
  },
  "gasUsed": {
    "_hex": "0x5208"
  },
  "miner": "0xF2d2AfF1320476cb8C6b607199D23175cc595693",
  "extraData": "0x476574682f76312e302e312f77696e646f77732f676f312e342e32",
  "transactions": [
    {
      "hash": "0x022fcffa64db3bc2becbcb28b3a6106f5dfb829cc4ce5b38499ce0f1765be948",
      "blockHash": "0x4e2253d044abbabedaba2cf69703e74867d340f7cb5ebeb68e327f9712b49fcb",
      "blockNumber": 87847,
      "transactionIndex": 0,
      "confirmations": null,
      "from": "0x365DE8355B8cDe6EfcC572f8431bFaFe38A32269",
      "gasPrice": {
        "_hex": "0xd619b8d23"
      },
      "gasLimit": {
        "_hex": "0x5208"
      },
      "to": "0x32Be343B94f860124dC4fEe278FDCBD38C102D88",
      "value": {
        "_hex": "0xddc61482d99c800"
      },
      "nonce": 0,
      "data": "0x",
      "r": "0x0ef5c24431350f983f611901a66dcaa3c68fb7e5d51803ec296fb3ecf8175587",
      "s": "0x7b12514e02ca670a0ace02fca244821b41e9a1ac05c56408b7784d86bb796da6",
      "v": 27,
      "creates": null,
      "raw": "0xf86c80850d619b8d238252089432be343b94f860124dc4fee278fdcbd38c102d88880ddc61482d99c800801ba00ef5c24431350f983f611901a66dcaa3c68fb7e5d51803ec296fb3ecf8175587a07b12514e02ca670a0ace02fca244821b41e9a1ac05c56408b7784d86bb796da6",
      "networkId": 0,
      "chainId": 0
    }
  ]
}