{
  "hash": "0x48c7a15695b7c9faa69b615d69aa11ed2cf2ebac3ce98548556ac7a12ae887ee",
  "parentHash": "0xfdc9395e1ffcf869a1642dc23cc4cf0623fb436ad38e06643c4dd0f9c6a0c8ec",
  "number": 52967,
  "timestamp": 1439030355,
  "nonce": "0xcc4b833b32577c59",
  "difficulty": 1567824039871,
  "gasLimit": {
    "_hex": "0x1cbeae"
  },
  "gasUsed": {
    "_hex": "0x5208"
  },
  "miner": "0xf927a40C8B7F6E07c5af7FA2155B4864a4112B13",
  "extraData": "0x476574682f76312e302e312f6c696e75782f676f312e342e32",
  "transactions": [
    {
      "hash": "0xe51eb1de66ca8d5b21a73f00aabcf29a289b83352b6dfa60e75b7ac8d2b6bc0e",
      "blockHash": "0x48c7a15695b7c9faa69b615d69aa11ed2cf2ebac3ce98548556ac7a12ae887ee",
      "blockNumber": 52967,
      "transactionIndex": 0,
      "confirmations": null,
      "from": "0x25c6e74Ff1d928df98137AF4dF8430df24F07Cd7",
      "gasPrice": {
        "_hex": "0xcd06253be"
      },
      "gasLimit": {
        "_hex": "0xc350"
      },
      "to": "0xE23dbd13A99Ae7956D7d5AEe0d27e0FD4dd44dAd",
      "value": {
        "_hex": "0x14def2c42ebd640000"
      },
      "nonce": 2,
      "data": "0x",
      "r": "0x14ef75f01c29468f25e0b825463f8e91695806471d898cb2e059e302f1ebe9c6",
      "s": "0x2bac9ddd37ff561b240e85e1c2ce49f6121ab2578353333142623419ff51492e",
      "v": 28,
      "creates": null,
      "raw": "0xf86d02850cd06253be82c35094e23dbd13a99ae7956d7d5aee0d27e0fd4dd44dad8914def2c42ebd640000801ca014ef75f01c29468f25e0b825463f8e91695806471d898cb2e059e302f1ebe9c6a02bac9ddd37ff561b240e85e1c2ce49f6121ab2578353333142623419ff51492e",
      "networkId": 0,
      "chainId": 0
    }
  ]
}