{
  "hash": "0xf098eb4ce93b15c12b1fcc224bffca9932100f8f12347f639b6a315c4f8a1e54",
  "parentHash": "0xeb6b8d5b6501c211cac1dc745317592f359152aa65e7b4edf32cdb28a784affa",
  "number": 85129,
  "timestamp": 1439558878,
  "nonce": "0xe1501ea16b72a791",
  "difficulty": 2733068698323,
  "gasLimit": {
    "_hex": "0x2fefd8"
  },
  "gasUsed": {
    "_hex": "0xa674"
  },
  "miner": "0x8EF5f53D5B50584a031D68D0AB92493355d4EdB0",
  "extraData": "0x476574682f76312e302e312f6c696e75782f676f312e342e32",
  "transactions": [
    {
      "hash": "0xcc7ea73f9dc2457d949a77479ee4a756f8a352099c35e3a4b9af17c55d6f0447",
      "blockHash": "0xf098eb4ce93b15c12b1fcc224bffca9932100f8f12347f639b6a315c4f8a1e54",
      "blockNumber": 85129,
      "transactionIndex": 0,
      "confirmations": null,
      "from": "0xE5DC9349Cb52E161196122Cf87A38936e2C57F34",
      "gasPrice": {
        "_hex": "0x110c8f7d8de"
      },
      "gasLimit": {
        "_hex": "0xc350"
      },
      "to": "0x2910543Af39abA0Cd09dBb2D50200b3E800A63D2",
      "value": {
        "_hex": "0x8ac7230489e80000"
      },
      "nonce": 0,
      "data": "0x454e365a50335a4147",
      "r": "0x6ef9d338113313540099c861836ec691ff538be6ef615ae10704afd973a37cce",
      "s": "0x29cd12b1017a6a85a3c59eb0cda011ca4b249bcbd3c4a0609eda3684ae9358bd",
      "v": 27,
      "creates": null,
      "raw": "0xf87680860110c8f7d8de82c350942910543af39aba0cd09dbb2d50200b3e800a63d2888ac7230489e8000089454e365a50335a41471ba06ef9d338113313540099c861836ec691ff538be6ef615ae10704afd973a37ccea029cd12b1017a6a85a3c59eb0cda011ca4b249bcbd3c4a0609eda3684ae9358bd",
      "networkId": 0,
      "chainId": 0
    },
    {
      "hash": "0xe8975dfbb7488018b26df5fa6198b3edcfc1d2a7ee2c521e492f815ad330600e",
      "blockHash": "0xf098eb4ce93b15c12b1fcc224bffca9932100f8f12347f639b6a315c4f8a1e54",
      "blockNumber": 85129,
      "transactionIndex": 1,
      "confirmations": null,
      "from": "0xAF654b2845616930f74573a909B477E23752DcA4",
      "gasPrice": {
        "_hex": "0xba43b7400"
      },
      "gasLimit": {
        "_hex": "0x5266"
      },
      "to": "0x014e478251F22a79fA7014f285647d91462A9669",
      "value": {
        "_hex": "0x0"
      },
      "nonce": 0,
      "data": "0x",
      "r": "0x6788c7cf7d508e8a155b47262c307a9f4a09799e8b3e8236e72565a90d4b2fd2",
      "s": "0x7918cbd2a1b54ec917cc1c8843d1ee11d37e57afee87bfb5930dfd05538a5d56",
      "v": 27,
      "creates": null,
      "raw": "0xf86480850ba43b740082526694014e478251f22a79fa7014f285647d91462a966980801ba06788c7cf7d508e8a155b47262c307a9f4a09799e8b3e8236e72565a90d4b2fd2a07918cbd2a1b54ec917cc1c8843d1ee11d37e57afee87bfb5930dfd05538a5d56",
      "networkId": 0,
      "chainId": 0
    }
  ]
}