{
  "hash": "0x7efe065d7aae504148255e446478038461c0fde077f977c523e8f94784e2ba6f",
  "parentHash": "0x6506c14a96fbe5bea6a88cc8f29ae4d205cacb42f211b9e30e4dfbdbfa518211",
  "number": 65482,
  "timestamp": 1439237814,
  "nonce": "0xaa86757bac037149",
  "difficulty": 1949231301077,
  "gasLimit": {
    "_hex": "0x2fefd8"
  },
  "gasUsed": {
    "_hex": "0x5208"
  },
  "miner": "0x88D74a59454F6cF3B51ef6b9136AFb6b9D405A88",
  "extraData": "0x476574682f76312e302e312d37666266393930632f6c696e75782f676f312e34",
  "transactions": [
    {
      "hash": "0xdbabfc0bbcb17c11d6a1499c7a30e6d7a460bb567f796c0c76217f917ab6ac14",
      "blockHash": "0x7efe065d7aae504148255e446478038461c0fde077f977c523e8f94784e2ba6f",
      "blockNumber": 65482,
      "transactionIndex": 0,
      "confirmations": null,
      "from": "0x2910543Af39abA0Cd09dBb2D50200b3E800A63D2",
      "gasPrice": {
        "_hex": "0xd826718b9"
      },
      "gasLimit": {
        "_hex": "0x5208"
      },
      "to": "0x739f8ab33a41B67952f16778e3CC6D2dEcC3a2d5",
      "value": {
        "_hex": "0x364398a1004e238000"
      },
      "nonce": 178,
      "data": "0x",
      "r": "0x2421977c94dd00de5d2c0bcd3376ea3b53fa1c197c9dc1a54f765fd4c4f262ab",
      "s": "0x195869541f77415b5f2d7f5b4cb3db99fbf58e20d4f19ce32a7b310a2b3f523b",
      "v": 28,
      "creates": null,
      "raw": "0xf86e81b2850d826718b982520894739f8ab33a41b67952f16778e3cc6d2decc3a2d589364398a1004e238000801ca02421977c94dd00de5d2c0bcd3376ea3b53fa1c197c9dc1a54f765fd4c4f262aba0195869541f77415b5f2d7f5b4cb3db99fbf58e20d4f19ce32a7b310a2b3f523b",
      "networkId": 0,
      "chainId": 0
    }
  ]
}