{
  "hash": "0x602c15be2875bdf477fd5059340df59e60453cda4f2a72c3bfb807332fd87b4e",
  "parentHash": "0xf6683718f1c4b060a5efa1fd567ebb7a3b5d91847d940c1344df6e1d0ce7b700",
  "number": 94552,
  "timestamp": 1439710125,
  "nonce": "0xe648b98079872608",
  "difficulty": 3507101928500,
  "gasLimit": {
    "_hex": "0x2fefd8"
  },
  "gasUsed": {
    "_hex": "0x5208"
  },
  "miner": "0xe6A7a1d47ff21B6321162AEA7C6CB457D5476Bca",
  "extraData": "0x476574682f76312e302e312d38326566323666362f6c696e75782f676f312e34",
  "transactions": [
    {
      "hash": "0xe27e04fcf8811e5a602d23f35712764e6c4adcad0767335f391d5a7c698abbed",
      "blockHash": "0x602c15be2875bdf477fd5059340df59e60453cda4f2a72c3bfb807332fd87b4e",
      "blockNumber": 94552,
      "transactionIndex": 0,
      "confirmations": null,
      "from": "0x8F586E3212291c58DCc78980a9c3432a3aFd3b6E",
      "gasPrice": {
        "_hex": "0xd47cb17f5"
      },
      "gasLimit": {
        "_hex": "0x5208"
      },
      "to": "0x32Be343B94f860124dC4fEe278FDCBD38C102D88",
      "value": {
        "_hex": "0x142a736d0650e30000"
      },
      "nonce": 12,
      "data": "0x",
      "r": "0x34b2601e234f18c01bfc81477b6f28e8400e714ffbcb6690c3c37af093814e57",
      "s": "0x380991824fa020a860699afddc3a7e53df454f7da353ec39e4ca9d530e240e27",
      "v": 27,
      "creates": null,
      "raw": "0xf86d0c850d47cb17f58252089432be343b94f860124dc4fee278fdcbd38c102d8889142a736d0650e30000801ba034b2601e234f18c01bfc81477b6f28e8400e714ffbcb6690c3c37af093814e57a0380991824fa020a860699afddc3a7e53df454f7da353ec39e4ca9d530e240e27",
      "networkId": 0,
      "chainId": 0
    }
  ]
}