{
  "hash": "0x38346bfa77548f6d6130698ee96ee11af95a35e8aa6906e42b16248012f490be",
  "parentHash": "0xcaa701354b838a339de64105eb8863df2fa75bcf2221b666426c45b57fd8588c",
  "number": 79593,
  "timestamp": 1439472191,
  "nonce": "0xa664a4bef6065ce4",
  "difficulty": 2341546330587,
  "gasLimit": {
    "_hex": "0x2fefd8"
  },
  "gasUsed": {
    "_hex": "0x5208"
  },
  "miner": "0x2134e2a2b718DCa96580ECAC31E653Ea1fdd58DA",
  "extraData": "0x476574682f76312e302e312f77696e646f77732f676f312e342e32",
  "transactions": [
    {
      "hash": "0xcd1eee9cd503a01164f93c88e3a596219ec7f723ecc3e14ca7d32befdc96bc76",
      "blockHash": "0x38346bfa77548f6d6130698ee96ee11af95a35e8aa6906e42b16248012f490be",
      "blockNumber": 79593,
      "transactionIndex": 0,
      "confirmations": null,
      "from": "0xe997A23B159E2E2a5Ce72333262972374B15425c",
      "gasPrice": {
        "_hex": "0xd6f724f2d"
      },
      "gasLimit": {
        "_hex": "0x15f90"
      },
      "to": "0x33F36DffD23cf019833E1d59cBc7138824b12289",
      "value": {
        "_hex": "0x1e87f85809dc0000"
      },
      "nonce": 4,
      "data": "0x",
      "r": "0x6a3d7a9d4b028a4a192d348095b055533004b454b7500ff457f5946ef83d21b3",
      "s": "0x40b025f80697ddb036c40a238d3590f7f7e01eaef46179eef7540dd45035f5fb",
      "v": 27,
      "creates": null,
      "raw": "0xf86d04850d6f724f2d83015f909433f36dffd23cf019833e1d59cbc7138824b12289881e87f85809dc0000801ba06a3d7a9d4b028a4a192d348095b055533004b454b7500ff457f5946ef83d21b3a040b025f80697ddb036c40a238d3590f7f7e01eaef46179eef7540dd45035f5fb",
      "networkId": 0,
      "chainId": 0
    }
  ]
}