{
  "hash": "0x52750b80a669ecfb25fe9186432ee602af6cacac39324e3a102d05c1bf369c8f",
  "parentHash": "0xddd04a3724f4edcb3b381c70c8f33f5ead34f6afdb99f1d28833fe2c0694bf7b",
  "number": 59881,
  "timestamp": 1439145293,
  "nonce": "0xbaa53d9c5619e36a",
  "difficulty": 1725547132016,
  "gasLimit": {
    "_hex": "0x2fefd8"
  },
  "gasUsed": {
    "_hex": "0x5208"
  },
  "miner": "0x93641e54c9aA6F9038FE7Adb03629a1747326Cd6",
  "extraData": "0x476574682f76312e302e312f77696e646f77732f676f312e342e32",
  "transactions": [
    {
      "hash": "0x082ce87045ea2fcc58fe3288a319c685e9da36230c860af66ea7cfbed7a6a870",
      "blockHash": "0x52750b80a669ecfb25fe9186432ee602af6cacac39324e3a102d05c1bf369c8f",
      "blockNumber": 59881,
      "transactionIndex": 0,
      "confirmations": null,
      "from": "0x94B3Ee3a5901f370FAc29924652deBc4dab040F6",
      "gasPrice": {
        "_hex": "0xd35d239c5"
      },
      "gasLimit": {
        "_hex": "0x5208"
      },
      "to": "0x32Be343B94f860124dC4fEe278FDCBD38C102D88",
      "value": {
        "_hex": "0x15efeaf227bcc00"
      },
      "nonce": 0,
      "data": "0x",
      "r": "0xe2c345dd571363de66cc7a2821b44894649a4eaafbd2098eab786a1a9dce5bb5",
      "s": "0x234c05b7f07da7f919cb720f65ce719cd3453d4cf7ad2cbb117782fd38482fdf",
      "v": 27,
      "creates": null,
      "raw": "0xf86c80850d35d239c58252089432be343b94f860124dc4fee278fdcbd38c102d8888015efeaf227bcc00801ba0e2c345dd571363de66cc7a2821b44894649a4eaafbd2098eab786a1a9dce5bb5a0234c05b7f07da7f919cb720f65ce719cd3453d4cf7ad2cbb117782fd38482fdf",
      "networkId": 0,
      "chainId": 0
    }
  ]
}