{
  "hash": "0x89c9cb9f5d0ea37950b24b90a612e52cd4680977c18dc68c223cf0d1fa0f5aea",
  "parentHash": "0x396a1541da2dac2d103139249a9ad50beba78af7192c84617ece0bc4ae804c85",
  "number": 79096,
  "timestamp": 1439464347,
  "nonce": "0x6302cd8bfbc5ca85",
  "difficulty": 2320060907818,
  "gasLimit": {
    "_hex": "0x2fefd8"
  },
  "gasUsed": {
    "_hex": "0x33450"
  },
  "miner": "0xF2d2AfF1320476cb8C6b607199D23175cc595693",
  "extraData": "0x476574682f76312e302e312f77696e646f77732f676f312e342e32",
  "transactions": [
    {
      "hash": "0xad3f097b173dac9638c354ff4b1c567e82e0b8febc9fd3f655555072de05e934",
      "blockHash": "0x89c9cb9f5d0ea37950b24b90a612e52cd4680977c18dc68c223cf0d1fa0f5aea",
      "blockNumber": 79096,
      "transactionIndex": 0,
      "confirmations": null,
      "from": "0xe6A7a1d47ff21B6321162AEA7C6CB457D5476Bca",
      "gasPrice": {
        "_hex": "0xcc15e38da"
      },
      "gasLimit": {
        "_hex": "0x55f0"
      },
      "to": "0x0A319A7e0C887F104359e1eEe6717BD8f232d3Da",
      "value": {
        "_hex": "0x5ecb2708fcf40bb8"
      },
      "nonce": 1224,
      "data": "0x",
      "r": "0xdb3e30917b30c3397eebffbde6367da359647aea7eca2c6f5e702fa95e0a4d02",
      "s": "0x6cb3e06d01c77a3a8596b82e1f2997ea239b1f5ebc64b72f8cc1e9ce14179038",
      "v": 28,
      "creates": null,
      "raw": "0xf86e8204c8850cc15e38da8255f0940a319a7e0c887f104359e1eee6717bd8f232d3da885ecb2708fcf40bb8801ca0db3e30917b30c3397eebffbde6367da359647aea7eca2c6f5e702fa95e0a4d02a06cb3e06d01c77a3a8596b82e1f2997ea239b1f5ebc64b72f8cc1e9ce14179038",
      "networkId": 0,
      "chainId": 0
    },
    {
      "hash": "0x11c089d95256bd699c722f8ca237c7004c40c7310a98e6f840c55ac33b7dd8c8",
      "blockHash": "0x89c9cb9f5d0ea37950b24b90a612e52cd4680977c18dc68c223cf0d1fa0f5aea",
      "blockNumber": 79096,
      "transactionIndex": 1,
      "confirmations": null,
      "from": "0xe6A7a1d47ff21B6321162AEA7C6CB457D5476Bca",
      "gasPrice": {
        "_hex": "0xcc15e38da"
      },
      "gasLimit": {
        "_hex": "0x55f0"
      },
      "to": "0x6c341709A69F0D286ff289986ECd928bb3a51B7A",
      "value": {
        "_hex": "0x5f62df2d14c66d48"
      },
      "nonce": 1225,
      "data": "0x",
      "r": "0x012fe307cb4f89743bcfa3ca344d14ab639dfa95e3c82c2539358d5c9030742f",
      "s": "0x7ea63de513b299969e7aec132bce5e8267d7b1affc1f0d959fa08700a19bff07",
      "v": 28,
      "creates": null,
      "raw": "0xf86e8204c9850cc15e38da8255f0946c341709a69f0d286ff289986ecd928bb3a51b7a885f62df2d14c66d48801ca0012fe307cb4f89743bcfa3ca344d14ab639dfa95e3c82c2539358d5c9030742fa07ea63de513b299969e7aec132bce5e8267d7b1affc1f0d959fa08700a19bff07",
      "networkId": 0,
      "chainId": 0
    },
    {
      "hash": "0x400379dadcb3b3b6870e52ba7cf397a94d003c83034bd46db33ed64bba03cdc4",
      "blockHash": "0x89c9cb9f5d0ea37950b24b90a612e52cd4680977c18dc68c223cf0d1fa0f5aea",
      "blockNumber": 79096,
      "transactionIndex": 2,
      "confirmations": null,
      "from": "0xe6A7a1d47ff21B6321162AEA7C6CB457D5476Bca",
      "gasPrice": {
        "_hex": "0xcc15e38da"
      },
      "gasLimit": {
        "_hex": "0x55f0"
      },
      "to": "0xF0224ea727d4924A8dd69a8d2d473Cc4c3590423",
      "value": {
        "_hex": "0x60b0081273826038"
      },
      "nonce": 1226,
      "data": "0x",
      "r": "0xea864e6b0b8cbffa4c933108bf2a9a44cc39e530e1f42a46973d19cd9ef15c7b",
      "s": "0x7547fe31754bbd967b2d195d8fc5a9781508d558f3809bbaa3815e3e0dd5ab43",
      "v": 28,
      "creates": null,
      "raw": "0xf86e8204ca850cc15e38da8255f094f0224ea727d4924a8dd69a8d2d473cc4c35904238860b0081273826038801ca0ea864e6b0b8cbffa4c933108bf2a9a44cc39e530e1f42a46973d19cd9ef15c7ba07547fe31754bbd967b2d195d8fc5a9781508d558f3809bbaa3815e3e0dd5ab43",
      "networkId": 0,
      "chainId": 0
    },
    {
      "hash": "0xa21ad0931e104eea518b8bd8019437b80cb410e752f61c186526ea275fcb66da",
      "blockHash": "0x89c9cb9f5d0ea37950b24b90a612e52cd4680977c18dc68c223cf0d1fa0f5aea",
      "blockNumber": 79096,
      "transactionIndex": 3,
      "confirmations": null,
      "from": "0xe6A7a1d47ff21B6321162AEA7C6CB457D5476Bca",
      "gasPrice": {
        "_hex": "0xcc15e38da"
      },
      "gasLimit": {
        "_hex": "0x55f0"
      },
      "to": "0x90fba3C13F19F8cf72A3Bb9EE63C8f728F548654",
      "value": {
        "_hex": "0x60ce58c062168870"
      },
      "nonce": 1227,
      "data": "0x",
      "r": "0x29600b7c4883dc30af03f57ef00f0b7d235c8c67034d1e71a5066280ed300a49",
      "s": "0x74654937bd6073fa586cb70a94750c155b93b1092eab7205aa10d42cc36d4485",
      "v": 28,
      "creates": null,
      "raw": "0xf86e8204cb850cc15e38da8255f09490fba3c13f19f8cf72a3bb9ee63c8f728f5486548860ce58c062168870801ca029600b7c4883dc30af03f57ef00f0b7d235c8c67034d1e71a5066280ed300a49a074654937bd6073fa586cb70a94750c155b93b1092eab7205aa10d42cc36d4485",
      "networkId": 0,
      "chainId": 0
    },
    {
      "hash": "0xe2ccf8d4192d45f7f00f07bebbdc5f6829dbff6a0bed5340f1c5950ba54cb5cd",
      "blockHash": "0x89c9cb9f5d0ea37950b24b90a612e52cd4680977c18dc68c223cf0d1fa0f5aea",
      "blockNumber": 79096,
      "transactionIndex": 4,
      "confirmations": null,
      "from": "0xe6A7a1d47ff21B6321162AEA7C6CB457D5476Bca",
      "gasPrice": {
        "_hex": "0xcc15e38da"
      },
      "gasLimit": {
        "_hex": "0x55f0"
      },
      "to": "0xB9A0a0410aA5e26bFa66Cc3ACAF0A6FC61Df5588",
      "value": {
        "_hex": "0x610a31a05816f7e8"
      },
      "nonce": 1228,
      "data": "0x",
      "r": "0xc402ee16acaf89c342d41ead93e2438f0e13f84444709a3c564908673e94f88e",
      "s": "0x02ecadece22a7825fc4a1849722d5b8a59cc65bf12da7a1ef6d29a34fa3ad0d2",
      "v": 28,
      "creates": null,
      "raw": "0xf86e8204cc850cc15e38da8255f094b9a0a0410aa5e26bfa66cc3acaf0a6fc61df558888610a31a05816f7e8801ca0c402ee16acaf89c342d41ead93e2438f0e13f84444709a3c564908673e94f88ea002ecadece22a7825fc4a1849722d5b8a59cc65bf12da7a1ef6d29a34fa3ad0d2",
      "networkId": 0,
      "chainId": 0
    },
    {
      "hash": "0xc78c14dc46122628bfb30f9e3711b7a8e95a131deb21a8ae668ac7a262ed6245",
      "blockHash": "0x89c9cb9f5d0ea37950b24b90a612e52cd4680977c18dc68c223cf0d1fa0f5aea",
      "blockNumber": 79096,
      "transactionIndex": 5,
      "confirmations": null,
      "from": "0xe6A7a1d47ff21B6321162AEA7C6CB457D5476Bca",
      "gasPrice": {
        "_hex": "0xcc15e38da"
      },
      "gasLimit": {
        "_hex": "0x55f0"
      },
      "to": "0xcA422f88253D0492F13F304eBCF34892B3c07AEc",
      "value": {
        "_hex": "0x633ad9ae9ace4d00"
      },
      "nonce": 1229,
      "data": "0x",
      "r": "0x704099e5b86c142c0a83763e1d5c09caa253dddbaf0d10e5ded639c66ece7385",
      "s": "0x35a8fa136bcf5e0e8f90b2fd59b38f9f4ce796f381e5e8e37cd5bed959753316",
      "v": 27,
      "creates": null,
      "raw": "0xf86e8204cd850cc15e38da8255f094ca422f88253d0492f13f304ebcf34892b3c07aec88633ad9ae9ace4d00801ba0704099e5b86c142c0a83763e1d5c09caa253dddbaf0d10e5ded639c66ece7385a035a8fa136bcf5e0e8f90b2fd59b38f9f4ce796f381e5e8e37cd5bed959753316",
      "networkId": 0,
      "chainId": 0
    },
    {
      "hash": "0x96df936d21c95a3560aae1b96a4d902beff11e43e6da7ee9568786eac939fd72",
      "blockHash": "0x89c9cb9f5d0ea37950b24b90a612e52cd4680977c18dc68c223cf0d1fa0f5aea",
      "blockNumber": 79096,
      "transactionIndex": 6,
      "confirmations": null,
      "from": "0xe6A7a1d47ff21B6321162AEA7C6CB457D5476Bca",
      "gasPrice": {
        "_hex": "0xcc15e38da"
      },
      "gasLimit": {
        "_hex": "0x55f0"
      },
      "to": "0x2118baa5B9d6423676CF5502Eb6eaeD859228c33",
      "value": {
        "_hex": "0x63d2151f783871f0"
      },
      "nonce": 1230,
      "data": "0x",
      "r": "0x0932e97f3144186ed4a6796a10da676130103f60c21b7151c99802aea14b446d",
      "s": "0x7a9e9ef743ae5f3d0b28a13e90d99d77f554579eccfe98f4e9d72ab7a50bd805",
      "v": 28,
      "creates": null,
      "raw": "0xf86e8204ce850cc15e38da8255f0942118baa5b9d6423676cf5502eb6eaed859228c338863d2151f783871f0801ca00932e97f3144186ed4a6796a10da676130103f60c21b7151c99802aea14b446da07a9e9ef743ae5f3d0b28a13e90d99d77f554579eccfe98f4e9d72ab7a50bd805",
      "networkId": 0,
      "chainId": 0
    },
    {
      "hash": "0xf9e0addc9cd79de215cfe2808a0a5bcc3e64af6f53a31c9fe535c879364ab3cc",
      "blockHash": "0x89c9cb9f5d0ea37950b24b90a612e52cd4680977c18dc68c223cf0d1fa0f5aea",
      "blockNumber": 79096,
      "transactionIndex": 7,
      "confirmations": null,
      "from": "0xe6A7a1d47ff21B6321162AEA7C6CB457D5476Bca",
      "gasPrice": {
        "_hex": "0xcc15e38da"
      },
      "gasLimit": {
        "_hex": "0x55f0"
      },
      "to": "0x0D3111E6CfA28bc8745057bD71E0D10FEB4C7AE7",
      "value": {
        "_hex": "0x64eb19a7a6d36b40"
      },
      "nonce": 1231,
      "data": "0x",
      "r": "0x2ff7ab42466d9297d478832c42a41d1d157440ad01e97166e528d553b9c0cd45",
      "s": "0x4ae89b359f18c323d5cc5fb31316d308f2e72439f77956757c655a1d135b35f7",
      "v": 27,
      "creates": null,
      "raw": "0xf86e8204cf850cc15e38da8255f0940d3111e6cfa28bc8745057bd71e0d10feb4c7ae78864eb19a7a6d36b40801ba02ff7ab42466d9297d478832c42a41d1d157440ad01e97166e528d553b9c0cd45a04ae89b359f18c323d5cc5fb31316d308f2e72439f77956757c655a1d135b35f7",
      "networkId": 0,
      "chainId": 0
    },
    {
      "hash": "0x5bdc8afb573c600c714a1f857a84fe57f833c8dfe3a9d240a5b90c2928d0bc20",
      "blockHash": "0x89c9cb9f5d0ea37950b24b90a612e52cd4680977c18dc68c223cf0d1fa0f5aea",
      "blockNumber": 79096,
      "transactionIndex": 8,
      "confirmations": null,
      "from": "0xe6A7a1d47ff21B6321162AEA7C6CB457D5476Bca",
      "gasPrice": {
        "_hex": "0xcc15e38da"
      },
      "gasLimit": {
        "_hex": "0x55f0"
      },
      "to": "0xAd941B747c499E3ad5728C285446813783A33564",
      "value": {
        "_hex": "0x655fc36d2ee1dec0"
      },
      "nonce": 1232,
      "data": "0x",
      "r": "0xd52b3f841595032db8eb066b6cc3509a96f485b4342b8650dc0fc7b1b95c38de",
      "s": "0x2c6e186244e1b8dcd91f3cca2e8c97675ece8ab6fa843450802eb9b63a0995a3",
      "v": 27,
      "creates": null,
      "raw": "0xf86e8204d0850cc15e38da8255f094ad941b747c499e3ad5728c285446813783a3356488655fc36d2ee1dec0801ba0d52b3f841595032db8eb066b6cc3509a96f485b4342b8650dc0fc7b1b95c38dea02c6e186244e1b8dcd91f3cca2e8c97675ece8ab6fa843450802eb9b63a0995a3",
      "networkId": 0,
      "chainId": 0
    },
    {
      "hash": "0xa9cb6f301dbba3f53fc52ac52d6ff62e376269edad6e6db4a6b781dc49961d30",
      "blockHash": "0x89c9cb9f5d0ea37950b24b90a612e52cd4680977c18dc68c223cf0d1fa0f5aea",
      "blockNumber": 79096,
      "transactionIndex": 9,
      "confirmations": null,
      "from": "0xe6A7a1d47ff21B6321162AEA7C6CB457D5476Bca",
      "gasPrice": {
        "_hex": "0xcc15e38da"
      },
      "gasLimit": {
        "_hex": "0x55f0"
      },
      "to": "0xAD8c7FBFaBC46C35aDb03F7b3A67e731E5793899",
      "value": {
        "_hex": "0x661a84fcbc95d6c0"
      },
      "nonce": 1233,
      "data": "0x",
      "r": "0x06af00632b35530fdfb3554d8f51dacd2b06fc4cac82b1200c7af555eaad4a99",
      "s": "0x28f982a76b05205f9343c6776dd1edbb116203a0c9613c8d1f01e09dd94e56ba",
      "v": 28,
      "creates": null,
      "raw": "0xf86e8204d1850cc15e38da8255f094ad8c7fbfabc46c35adb03f7b3a67e731e579389988661a84fcbc95d6c0801ca006af00632b35530fdfb3554d8f51dacd2b06fc4cac82b1200c7af555eaad4a99a028f982a76b05205f9343c6776dd1edbb116203a0c9613c8d1f01e09dd94e56ba",
      "networkId": 0,
      "chainId": 0
    }
  ]
}