{
  "hash": "0x57102905ba096dd3fca8da2c9db581f3443b1402d6bcfb82ceccdb5fb9b4756c",
  "parentHash": "0xd3b0bd7efe0ed71c21889cb5796a7eb155183ed1e9bc436bfd897fa5bfbc0510",
  "number": 71280,
  "timestamp": 1439333675,
  "nonce": "0x7277385364211160",
  "difficulty": 2154007068288,
  "gasLimit": {
    "_hex": "0x2fefd8"
  },
  "gasUsed": {
    "_hex": "0xf618"
  },
  "miner": "0x47ff6576639c2e94762eA5443978D7681C0E78DC",
  "extraData": "0x476574682f76312e302e312f6c696e75782f676f312e342e32",
  "transactions": [
    {
      "hash": "0x4e8f84888c45a6af441c23dbd1793eda8e35c23bed9e62832942641a54f99594",
      "blockHash": "0x57102905ba096dd3fca8da2c9db581f3443b1402d6bcfb82ceccdb5fb9b4756c",
      "blockNumber": 71280,
      "transactionIndex": 0,
      "confirmations": null,
      "from": "0x03466d5cc463db01bAB65B5AAE456D8700c7601c",
      "gasPrice": {
        "_hex": "0xd41bedc97"
      },
      "gasLimit": {
        "_hex": "0x5208"
      },
      "to": "0x32Be343B94f860124dC4fEe278FDCBD38C102D88",
      "value": {
        "_hex": "0xd7791941a0edc00"
      },
      "nonce": 0,
      "data": "0x",
      "r": "0x3e8de6002cdbf05e7c5f4b254bbd3f27a62222308b414c3aa825ec9ec35038ba",
      "s": "0x26f7d072bed25f3a4a0923ca0f768638f58424636b7ff6655c22ff15c3318508",
      "v": 28,
      "creates": null,
      "raw": "0xf86c80850d41bedc978252089432be343b94f860124dc4fee278fdcbd38c102d88880d7791941a0edc00801ca03e8de6002cdbf05e7c5f4b254bbd3f27a62222308b414c3aa825ec9ec35038baa026f7d072bed25f3a4a0923ca0f768638f58424636b7ff6655c22ff15c3318508",
      "networkId": 0,
      "chainId": 0
    },
    {
      "hash": "0x8eca2ba34bb05c1a9a1d32ea8314ca9428b57febb82940a16e598255934c65c2",
      "blockHash": "0x57102905ba096dd3fca8da2c9db581f3443b1402d6bcfb82ceccdb5fb9b4756c",
      "blockNumber": 71280,
      "transactionIndex": 1,
      "confirmations": null,
      "from": "0x3a5e3acAF9E194bFc9bE8a16B3f437D7eA1d7A15",
      "gasPrice": {
        "_hex": "0xd41bedc97"
      },
      "gasLimit": {
        "_hex": "0x5208"
      },
      "to": "0x32Be343B94f860124dC4fEe278FDCBD38C102D88",
      "value": {
        "_hex": "0xd45a59f6b057000"
      },
      "nonce": 0,
      "data": "0x",
      "r": "0x60871a5567b057b19c1a4bdc01d732bfd7eee7f4447b16e0c4e5acc3d3491be4",
      "s": "0x69be4d1d9418980d5a00b45336c64fd7069169a088e7f51f606a72776e05b9b2",
      "v": 28,
      "creates": null,
      "raw": "0xf86c80850d41bedc978252089432be343b94f860124dc4fee278fdcbd38c102d88880d45a59f6b057000801ca060871a5567b057b19c1a4bdc01d732bfd7eee7f4447b16e0c4e5acc3d3491be4a069be4d1d9418980d5a00b45336c64fd7069169a088e7f51f606a72776e05b9b2",
      "networkId": 0,
      "chainId": 0
    },
    {
      "hash": "0x58ce6b7ef4f7be870730002dfc705de54de8b2905a4fc126b8225e0e0cfef012",
      "blockHash": "0x57102905ba096dd3fca8da2c9db581f3443b1402d6bcfb82ceccdb5fb9b4756c",
      "blockNumber": 71280,
      "transactionIndex": 2,
      "confirmations": null,
      "from": "0x5c59E28366c83f1d262567c1c529185146e68b16",
      "gasPrice": {
        "_hex": "0xd41bedc97"
      },
      "gasLimit": {
        "_hex": "0x5208"
      },
      "to": "0x32Be343B94f860124dC4fEe278FDCBD38C102D88",
      "value": {
        "_hex": "0x8ab120120c516000"
      },
      "nonce": 1,
      "data": "0x",
      "r": "0xf6823d262ade4500cd68ea2b40b25cacfb683807554a7a726504fa325d7e7d55",
      "s": "0x760ccf52bc2dd886bd27ad8460c44cb42e0d00266e20b85fd76ecbfa6cd7b74f",
      "v": 27,
      "creates": null,
      "raw": "0xf86c01850d41bedc978252089432be343b94f860124dc4fee278fdcbd38c102d88888ab120120c516000801ba0f6823d262ade4500cd68ea2b40b25cacfb683807554a7a726504fa325d7e7d55a0760ccf52bc2dd886bd27ad8460c44cb42e0d00266e20b85fd76ecbfa6cd7b74f",
      "networkId": 0,
      "chainId": 0
    }
  ]
}