{
  "hash": "0x627c0c2c348973129b67ad574ecd2bacc3c26a477fee2a4b3b65aa4541929fb1",
  "parentHash": "0xb73eb284b1770a915ea217936c43b110c94e1b04beaffbdf20c34a67062efce0",
  "number": 49191,
  "timestamp": 1438969513,
  "nonce": "0x7e3d5d3d4be73896",
  "difficulty": 1479264605135,
  "gasLimit": {
    "_hex": "0x28775"
  },
  "gasUsed": {
    "_hex": "0x5208"
  },
  "miner": "0xf8E0CA3Ed80bd541b94BEdCf259e8CF2141A9523",
  "extraData": "0x476574682f76312e302e312f77696e646f77732f676f312e342e32",
  "transactions": [
    {
      "hash": "0xd598768e93509aaa1d8239821a0efb6af540426816062b470e638e0d6dd27008",
      "blockHash": "0x627c0c2c348973129b67ad574ecd2bacc3c26a477fee2a4b3b65aa4541929fb1",
      "blockNumber": 49191,
      "transactionIndex": 0,
      "confirmations": null,
      "from": "0x0089508679abF8c71BF6781687120e3E6a84584D",
      "gasPrice": {
        "_hex": "0xd7caf8d6d"
      },
      "gasLimit": {
        "_hex": "0x15f90"
      },
      "to": "0xA81fd3D89fe9c52094feDf0777c2F77212310B2F",
      "value": {
        "_hex": "0x1b0d04202f47ec0000"
      },
      "nonce": 3,
      "data": "0x",
      "r": "0xe0711fc93c52ec9e05a60daa64d62cd5ccf4a020bc033a9a75904b00482395ae",
      "s": "0x7197e2647105863ceffe2c13d7e793a801599b1959f9937f4d422aa3c5e67459",
      "v": 27,
      "creates": null,
      "raw": "0xf86e03850d7caf8d6d83015f9094a81fd3d89fe9c52094fedf0777c2f77212310b2f891b0d04202f47ec0000801ba0e0711fc93c52ec9e05a60daa64d62cd5ccf4a020bc033a9a75904b00482395aea07197e2647105863ceffe2c13d7e793a801599b1959f9937f4d422aa3c5e67459",
      "networkId": 0,
      "chainId": 0
    }
  ]
}