{
  "hash": "0x024b0623b88fbea8d5bb3e475e24920e8c04e5d7bc8d7cc0c4daabd08f48fb21",
  "parentHash": "0x1853c7039ff62e8f31f0c87a986b8468ef7022473b270784efae336564cd9f61",
  "number": 51402,
  "timestamp": 1439004301,
  "nonce": "0x00b5df516b1adef3",
  "difficulty": 1565821200067,
  "gasLimit": {
    "_hex": "0xaca75"
  },
  "gasUsed": {
    "_hex": "0x87f1d"
  },
  "miner": "0xF2d2AfF1320476cb8C6b607199D23175cc595693",
  "extraData": "0x476574682f76312e302e312f77696e646f77732f676f312e342e32",
  "transactions": [
    {
      "hash": "0x1692602b0ef7a1739afd14de4e77715fc0b7261e64dea3d63d34704f030b6b58",
      "blockHash": "0x024b0623b88fbea8d5bb3e475e24920e8c04e5d7bc8d7cc0c4daabd08f48fb21",
      "blockNumber": 51402,
      "transactionIndex": 0,
      "confirmations": null,
      "from": "0xd8aE46Ba60513f7811Dcd26882405F6Be01C730F",
      "gasPrice": {
        "_hex": "0xdfba5c947"
      },
      "gasLimit": {
        "_hex": "0x7a120"
      },
      "to": "0xA327075af2a223A1C83a36aDa1126afE7430f955",
      "value": {
        "_hex": "0x8ac7230489e80000"
      },
      "nonce": 2,
      "data": "0x",
      "r": "0xe2c902e803d04127668600cee06aa8984c416f774b5e5375532294e0e692437f",
      "s": "0x31f22a8e60d5d0235f8da8e9a3090fd09c4d628a6b1929dd06dc2712d2010f96",
      "v": 27,
      "creates": null,
      "raw": "0xf86d02850dfba5c9478307a12094a327075af2a223a1c83a36ada1126afe7430f955888ac7230489e80000801ba0e2c902e803d04127668600cee06aa8984c416f774b5e5375532294e0e692437fa031f22a8e60d5d0235f8da8e9a3090fd09c4d628a6b1929dd06dc2712d2010f96",
      "networkId": 0,
      "chainId": 0
    },
    {
      "hash": "0x90197c2d4101d617d67d56974ad438d318f90a0cc665f8134c3161a74d01dba5",
      "blockHash": "0x024b0623b88fbea8d5bb3e475e24920e8c04e5d7bc8d7cc0c4daabd08f48fb21",
      "blockNumber": 51402,
      "transactionIndex": 1,
      "confirmations": null,
      "from": "0xf88a65846C19D8fc76fFf545fEAa7bbc7114F667",
      "gasPrice": {
        "_hex": "0xd40b74564"
      },
      "gasLimit": {
        "_hex": "0x7a120"
      },
      "to": "0x109C4f2CCc82C4d77Bde15F306707320294Aea3F",
      "value": {
        "_hex": "0xde0b6b3a7640000"
      },
      "nonce": 15,
      "data": "0x",
      "r": "0xdaa1fd0d2c2231711cfc5b62b36034ab2c3cbe2e5e3ac5d114f1a52c852eaaa0",
      "s": "0x7eacb94e07d923eff8ae28188c1b861fa64d9dc2ba6b103336f608fe052de697",
      "v": 28,
      "creates": null,
      "raw": "0xf86d0f850d40b745648307a12094109c4f2ccc82c4d77bde15f306707320294aea3f880de0b6b3a7640000801ca0daa1fd0d2c2231711cfc5b62b36034ab2c3cbe2e5e3ac5d114f1a52c852eaaa0a07eacb94e07d923eff8ae28188c1b861fa64d9dc2ba6b103336f608fe052de697",
      "networkId": 0,
      "chainId": 0
    }
  ]
}