{
  "hash": "0x1f048d46573e2253d7391a3be7b1f5d0b3ca5bbe0f0026cf3a52c3e632620799",
  "parentHash": "0x4584612e65a85feca06af592cac45f9949dd62ac55d81fe64ac6a9989a9d2268",
  "number": 49659,
  "timestamp": 1438977042,
  "nonce": "0x941a02d22c004c30",
  "difficulty": 1483521975090,
  "gasLimit": {
    "_hex": "0x3986a"
  },
  "gasUsed": {
    "_hex": "0x546c"
  },
  "miner": "0xe6A7a1d47ff21B6321162AEA7C6CB457D5476Bca",
  "extraData": "0x657468706f6f6c2e6f7267",
  "transactions": [
    {
      "hash": "0x86b6f2b15a5a18e8090d35bb53d60d6ab87b2b1d449a58d04eccd321f8bfb0d6",
      "blockHash": "0x1f048d46573e2253d7391a3be7b1f5d0b3ca5bbe0f0026cf3a52c3e632620799",
      "blockNumber": 49659,
      "transactionIndex": 0,
      "confirmations": null,
      "from": "0x38643BaBeA6011316Cc797D9B093c897A17BdaE7",
      "gasPrice": {
        "_hex": "0x110c8f7d8de"
      },
      "gasLimit": {
        "_hex": "0xc350"
      },
      "to": "0x2910543Af39abA0Cd09dBb2D50200b3E800A63D2",
      "value": {
        "_hex": "0x121b2e5e6464780000"
      },
      "nonce": 0,
      "data": "0x454e35433736595430",
      "r": "0x8e2f939669f54b8ec3d22ccc1297a2ce962bc3852642904921efe1fa58b59967",
      "s": "0xe83ac8040b948ca15405e7ce2f403d8a05ff515e6007efae2bfac3a093bad228",
      "v": 28,
      "creates": null,
      "raw": "0xf87780860110c8f7d8de82c350942910543af39aba0cd09dbb2d50200b3e800a63d289121b2e5e646478000089454e354337365954301ca08e2f939669f54b8ec3d22ccc1297a2ce962bc3852642904921efe1fa58b59967a0e83ac8040b948ca15405e7ce2f403d8a05ff515e6007efae2bfac3a093bad228",
      "networkId": 0,
      "chainId": 0
    }
  ]
}