{
  "hash": "0x11224dfbccae095f0d5eaa2f63739ed5f8991101fc82b393ad9b82af17d064d3",
  "parentHash": "0x47af906bcd0d145a47dae37fc551f041b639fab0e05ce726d170cf4f6a463328",
  "number": 78423,
  "timestamp": 1439453548,
  "nonce": "0x8fd36dafb2467abe",
  "difficulty": 2287623507820,
  "gasLimit": {
    "_hex": "0x2fefd8"
  },
  "gasUsed": {
    "_hex": "0x546c"
  },
  "miner": "0xbb7B8287f3F0a933474a79eAe42CBCa977791171",
  "extraData": "0x476574682f4c5649562f76312e302e312f6c696e75782f676f312e342e32",
  "transactions": [
    {
      "hash": "0xa2a93f3a34a37f6637bfa35fb7a9cd5e399744f7b241d024bf45774871ea094e",
      "blockHash": "0x11224dfbccae095f0d5eaa2f63739ed5f8991101fc82b393ad9b82af17d064d3",
      "blockNumber": 78423,
      "transactionIndex": 0,
      "confirmations": null,
      "from": "0x6038740AE28D66Ba93b0BE08482B3205A0F7a07b",
      "gasPrice": {
        "_hex": "0x110c8f7d8de"
      },
      "gasLimit": {
        "_hex": "0xc350"
      },
      "to": "0x2910543Af39abA0Cd09dBb2D50200b3E800A63D2",
      "value": {
        "_hex": "0x111380cf0ef80c0000"
      },
      "nonce": 0,
      "data": "0x454e42475547555647",
      "r": "0x82182d4a28e2359de3d139c1c3b2971ff6a038aaeea5b94c68d482feecadca92",
      "s": "0x389914c2dfe820cedd86d4e6f1c26c8d6d849ee3c7a00bbdeb9abc00bd7f043b",
      "v": 28,
      "creates": null,
      "raw": "0xf87780860110c8f7d8de82c350942910543af39aba0cd09dbb2d50200b3e800a63d289111380cf0ef80c000089454e424755475556471ca082182d4a28e2359de3d139c1c3b2971ff6a038aaeea5b94c68d482feecadca92a0389914c2dfe820cedd86d4e6f1c26c8d6d849ee3c7a00bbdeb9abc00bd7f043b",
      "networkId": 0,
      "chainId": 0
    }
  ]
}