{
  "hash": "0x72554e9d322990b469bc11074d018fc67cfd9bdc5f3682b6ca1851cf57224a50",
  "parentHash": "0xeb3d86bb0427ac7ab62dc112c86d41ae8f12b5926f59b4a6390b3df358c328f1",
  "number": 107367,
  "timestamp": 1439921215,
  "nonce": "0xa863c27521ec92b5",
  "difficulty": 4398615048297,
  "gasLimit": {
    "_hex": "0x2fefd8"
  },
  "gasUsed": {
    "_hex": "0x261ce"
  },
  "miner": "0xD0ee3F53eE0fCf3F9fbCcdd17BD1b6441DdC2074",
  "extraData": "0x476574682f76312e302e312d38326566323666362f6c696e75782f676f312e34",
  "transactions": [
    {
      "hash": "0xa3955e72966e65f24e3fc3cc0687ee7af5e3eeb8a9e4ae94d3d6df9267bca25f",
      "blockHash": "0x72554e9d322990b469bc11074d018fc67cfd9bdc5f3682b6ca1851cf57224a50",
      "blockNumber": 107367,
      "transactionIndex": 0,
      "confirmations": null,
      "from": "0x2910543Af39abA0Cd09dBb2D50200b3E800A63D2",
      "gasPrice": {
        "_hex": "0xdf881a0ad"
      },
      "gasLimit": {
        "_hex": "0x5208"
      },
      "to": "0xf3731A397D198a526EF77bD99906873936f05AB8",
      "value": {
        "_hex": "0x56bb59ab42b2f8000"
      },
      "nonce": 1046,
      "data": "0x",
      "r": "0x9398aa111a785603e94ab5a22da10831395756c0c6a092e889f329b22014319b",
      "s": "0x2b3f11dee8cdf86978c32f66ca0f3f7760882e4eeec300e028e80183e812cea3",
      "v": 28,
      "creates": null,
      "raw": "0xf86f820416850df881a0ad82520894f3731a397d198a526ef77bd99906873936f05ab889056bb59ab42b2f8000801ca09398aa111a785603e94ab5a22da10831395756c0c6a092e889f329b22014319ba02b3f11dee8cdf86978c32f66ca0f3f7760882e4eeec300e028e80183e812cea3",
      "networkId": 0,
      "chainId": 0
    },
    {
      "hash": "0xe58002ce75aa72179760d2b25897cefb7e86e73ac36e467e60d0374aff825e2f",
      "blockHash": "0x72554e9d322990b469bc11074d018fc67cfd9bdc5f3682b6ca1851cf57224a50",
      "blockNumber": 107367,
      "transactionIndex": 1,
      "confirmations": null,
      "from": "0x2910543Af39abA0Cd09dBb2D50200b3E800A63D2",
      "gasPrice": {
        "_hex": "0xdf881a0ad"
      },
      "gasLimit": {
        "_hex": "0x5208"
      },
      "to": "0x8Ba4aaE770cA635B0EA078ff5c742dDdF41A394a",
      "value": {
        "_hex": "0xdcef33a6f838000"
      },
      "nonce": 1047,
      "data": "0x",
      "r": "0xd54cfaafb5558cece11927248710102703ea36d6cd25d2086481e96eb9874164",
      "s": "0x62d80a16739be1fea255e3f0c73fb565fb9032418c3a616543df63d96ffa9a03",
      "v": 28,
      "creates": null,
      "raw": "0xf86e820417850df881a0ad825208948ba4aae770ca635b0ea078ff5c742dddf41a394a880dcef33a6f838000801ca0d54cfaafb5558cece11927248710102703ea36d6cd25d2086481e96eb9874164a062d80a16739be1fea255e3f0c73fb565fb9032418c3a616543df63d96ffa9a03",
      "networkId": 0,
      "chainId": 0
    },
    {
      "hash": "0x3f300728a4530dce674f8c78f80838ba9403e6f0e47bd0857148ef455b964bb9",
      "blockHash": "0x72554e9d322990b469bc11074d018fc67cfd9bdc5f3682b6ca1851cf57224a50",
      "blockNumber": 107367,
      "transactionIndex": 2,
      "confirmations": null,
      "from": "0x28d7e5866F1d85fD1CeB32bFBe1dFc36Db434566",
      "gasPrice": {
        "_hex": "0xd13332b54"
      },
      "gasLimit": {
        "_hex": "0x249f0"
      },
      "to": "0xE28e72FCf78647ADCe1F1252F240bbfaebD63BcC",
      "value": {
        "_hex": "0x6c6b935b8bbd400000"
      },
      "nonce": 0,
      "data": "0x45466f3a",
      "r": "0x4bd188311cfe8c009973ce4737019f016baeb7cfdb5035ce5b33eef65349bb2d",
      "s": "0x21e34d242b58dd5c3ccae8ec4f87bb1e02b80d52cbe935bbab8392e0d7d0118a",
      "v": 27,
      "creates": null,
      "raw": "0xf87280850d13332b54830249f094e28e72fcf78647adce1f1252f240bbfaebd63bcc896c6b935b8bbd4000008445466f3a1ba04bd188311cfe8c009973ce4737019f016baeb7cfdb5035ce5b33eef65349bb2da021e34d242b58dd5c3ccae8ec4f87bb1e02b80d52cbe935bbab8392e0d7d0118a",
      "networkId": 0,
      "chainId": 0
    }
  ]
}