{
  "hash": "0x66ef3c175fe064824f7d16204abeb70b59288f26fb2574659960b988f7897c93",
  "parentHash": "0x8b2b882a3b73e3080f6e5d6767435da44843f24cfcdb7ea41da00280e4770c01",
  "number": 57983,
  "timestamp": 1439113001,
  "nonce": "0x24c9c26c5005294e",
  "difficulty": 1720888538700,
  "gasLimit": {
    "_hex": "0x2fefd8"
  },
  "gasUsed": {
    "_hex": "0xa410"
  },
  "miner": "0x306e6267d94f23a9b37Cb110f20852208Fbbf1aA",
  "extraData": "0x476574682f76312e302e312f77696e646f77732f676f312e342e32",
  "transactions": [
    {
      "hash": "0x1d394b6c9ea60314a1725735eaa8b65bca10487b0c60b517a748976669fe8fd4",
      "blockHash": "0x66ef3c175fe064824f7d16204abeb70b59288f26fb2574659960b988f7897c93",
      "blockNumber": 57983,
      "transactionIndex": 0,
      "confirmations": null,
      "from": "0xF2d2AfF1320476cb8C6b607199D23175cc595693",
      "gasPrice": {
        "_hex": "0xd92e05573"
      },
      "gasLimit": {
        "_hex": "0x15f90"
      },
      "to": "0xF5EeDc192aB70b08D8354384aD94efD095849E00",
      "value": {
        "_hex": "0x332ca1b67940c0000"
      },
      "nonce": 13,
      "data": "0x",
      "r": "0x6ef1f96d5e804ff16cb70877c7a0bf8dddbc1bd36577d6ec1772dd9c0ce44c5c",
      "s": "0x67549c9f89303d0e12878629e78b01d0ed664c00449bf0329af5aec240bbcff0",
      "v": 28,
      "creates": null,
      "raw": "0xf86e0d850d92e0557383015f9094f5eedc192ab70b08d8354384ad94efd095849e00890332ca1b67940c0000801ca06ef1f96d5e804ff16cb70877c7a0bf8dddbc1bd36577d6ec1772dd9c0ce44c5ca067549c9f89303d0e12878629e78b01d0ed664c00449bf0329af5aec240bbcff0",
      "networkId": 0,
      "chainId": 0
    },
    {
      "hash": "0xea887e8290b5a772e74d201367440bbd6319bca590d219a1adf96d9038139b69",
      "blockHash": "0x66ef3c175fe064824f7d16204abeb70b59288f26fb2574659960b988f7897c93",
      "blockNumber": 57983,
      "transactionIndex": 1,
      "confirmations": null,
      "from": "0x43c2AeB7b46cbB31eE7f9A86BDAfB5C87cD486a3",
      "gasPrice": {
        "_hex": "0xba43b7400"
      },
      "gasLimit": {
        "_hex": "0x5267"
      },
      "to": "0xf79785E5a846aCea08F94379fCCe79B1054bDB99",
      "value": {
        "_hex": "0x16345785d8a0000"
      },
      "nonce": 0,
      "data": "0x",
      "r": "0x8215693d1a2c7720830458c8677de7e85b70114f22d2170bde8c7a808a2fe4db",
      "s": "0x575024781b09affb89b9c8b05091cd2658fa7b3a1e1dd3fbf9bb092a0cd28864",
      "v": 27,
      "creates": null,
      "raw": "0xf86c80850ba43b740082526794f79785e5a846acea08f94379fcce79b1054bdb9988016345785d8a0000801ba08215693d1a2c7720830458c8677de7e85b70114f22d2170bde8c7a808a2fe4dba0575024781b09affb89b9c8b05091cd2658fa7b3a1e1dd3fbf9bb092a0cd28864",
      "networkId": 0,
      "chainId": 0
    }
  ]
}