{
  "hash": "0x64d4379967c141a5f4e7c9dcbf8d25b8b29647a880e8725452f5e61bf874781b",
  "parentHash": "0x6af539e4de4268b20713fa8da09545b120b641a253275a0095b5e44005050ecd",
  "number": 100074,
  "timestamp": 1439800209,
  "nonce": "0x4b22dd9340b22e12",
  "difficulty": 3845506047419,
  "gasLimit": {
    "_hex": "0x2fefd8"
  },
  "gasUsed": {
    "_hex": "0xa410"
  },
  "miner": "0xe6A7a1d47ff21B6321162AEA7C6CB457D5476Bca",
  "extraData": "0x476574682f76312e302e312d38326566323666362f6c696e75782f676f312e34",
  "transactions": [
    {
      "hash": "0xc599ff9ad217b9e036b34b4164195496a62102689c3d19a2c1931818b7a34bec",
      "blockHash": "0x64d4379967c141a5f4e7c9dcbf8d25b8b29647a880e8725452f5e61bf874781b",
      "blockNumber": 100074,
      "transactionIndex": 0,
      "confirmations": null,
      "from": "0x007f7f58D3eb5b7510A301eCC749FC1fCDDBE14D",
      "gasPrice": {
        "_hex": "0xe0cfe7246"
      },
      "gasLimit": {
        "_hex": "0x15f90"
      },
      "to": "0xb1abce2918E21ddb93AA452731a12672A3d9F75a",
      "value": {
        "_hex": "0x4563918244f40000"
      },
      "nonce": 158,
      "data": "0x",
      "r": "0xd3e64483dd1e6cdcd69a502c0c35bda92cc3cb95c2d09b9c18469d9ea88cf428",
      "s": "0x24e18780fc9efab3f7c5626d26b8e1c7681014e7c7389b2b9c029c9558d0891b",
      "v": 27,
      "creates": null,
      "raw": "0xf86e819e850e0cfe724683015f9094b1abce2918e21ddb93aa452731a12672a3d9f75a884563918244f40000801ba0d3e64483dd1e6cdcd69a502c0c35bda92cc3cb95c2d09b9c18469d9ea88cf428a024e18780fc9efab3f7c5626d26b8e1c7681014e7c7389b2b9c029c9558d0891b",
      "networkId": 0,
      "chainId": 0
    },
    {
      "hash": "0xb302369a943a9500d4e43e3dbc1691e4525cb4c89954eb4389897907b67bc755",
      "blockHash": "0x64d4379967c141a5f4e7c9dcbf8d25b8b29647a880e8725452f5e61bf874781b",
      "blockNumber": 100074,
      "transactionIndex": 1,
      "confirmations": null,
      "from": "0x2910543Af39abA0Cd09dBb2D50200b3E800A63D2",
      "gasPrice": {
        "_hex": "0xdae74561d"
      },
      "gasLimit": {
        "_hex": "0x5208"
      },
      "to": "0x2f86ba8019945f39edE131D38d4d8780884DA553",
      "value": {
        "_hex": "0x6c6b819812855f8000"
      },
      "nonce": 946,
      "data": "0x",
      "r": "0x97c204881ac46d911d1210ee2281e9bd8c4d0bdf41843ba6b70403e74e53a92d",
      "s": "0x5c9f89d7f7165d714ae95d79e74af49a7409e1d2862c2e418de63587a3f2e726",
      "v": 28,
      "creates": null,
      "raw": "0xf86f8203b2850dae74561d825208942f86ba8019945f39ede131d38d4d8780884da553896c6b819812855f8000801ca097c204881ac46d911d1210ee2281e9bd8c4d0bdf41843ba6b70403e74e53a92da05c9f89d7f7165d714ae95d79e74af49a7409e1d2862c2e418de63587a3f2e726",
      "networkId": 0,
      "chainId": 0
    }
  ]
}