{
  "hash": "0xa3c578f553c58d1197b2ac1ff47f534cae9d997e49dfe47134e89588175fae34",
  "parentHash": "0x39dffdbdc8e27f172dbf930700f4d27fee5f8c0f2b6a5a12075b36fa897b9e16",
  "number": 65124,
  "timestamp": 1439231793,
  "nonce": "0x634b6a045618b8cb",
  "difficulty": 1926604286589,
  "gasLimit": {
    "_hex": "0x2fefd8"
  },
  "gasUsed": {
    "_hex": "0x5208"
  },
  "miner": "0x93641e54c9aA6F9038FE7Adb03629a1747326Cd6",
  "extraData": "0x476574682f76312e302e312f77696e646f77732f676f312e342e32",
  "transactions": [
    {
      "hash": "0xfdda02d7aac1fe357e40fa6f0d66dafe0cc387400fb0e1b8544d4784f8a1bcf1",
      "blockHash": "0xa3c578f553c58d1197b2ac1ff47f534cae9d997e49dfe47134e89588175fae34",
      "blockNumber": 65124,
      "transactionIndex": 0,
      "confirmations": null,
      "from": "0x54b110D18f2B85b63f06837bb6B79432A11118D8",
      "gasPrice": {
        "_hex": "0xba43b7400"
      },
      "gasLimit": {
        "_hex": "0x5208"
      },
      "to": "0x80932CA692817E26D37687465d63aE8561BD7e77",
      "value": {
        "_hex": "0x52f7dc9da55e000"
      },
      "nonce": 1,
      "data": "0x",
      "r": "0x1e7609b9a9a84e23c8f65e30ddb7681b3c5759d8d0d2325d474eae0d4a23c9a3",
      "s": "0x612ad5a5261d97b55d64131db4747e39f2bdd33d47846853a1284785f8128008",
      "v": 27,
      "creates": null,
      "raw": "0xf86c01850ba43b74008252089480932ca692817e26d37687465d63ae8561bd7e7788052f7dc9da55e000801ba01e7609b9a9a84e23c8f65e30ddb7681b3c5759d8d0d2325d474eae0d4a23c9a3a0612ad5a5261d97b55d64131db4747e39f2bdd33d47846853a1284785f8128008",
      "networkId": 0,
      "chainId": 0
    }
  ]
}