{
  "hash": "0xfa6d1e627947a3cdf2066b4f11e90bc92f5878e353b8de374e5ee69bb9b52f7c",
  "parentHash": "0xda54456c92959aaf27fefac8463cb609163a895cb5ee267735574985b5ca76c5",
  "number": 88339,
  "timestamp": 1439606652,
  "nonce": "0x5b38516fcf9285c4",
  "difficulty": 3197179312717,
  "gasLimit": {
    "_hex": "0x2fefd8"
  },
  "gasUsed": {
    "_hex": "0x5b58"
  },
  "miner": "0xe6A7a1d47ff21B6321162AEA7C6CB457D5476Bca",
  "extraData": "0x476574682f76312e302e312d38326566323666362f6c696e75782f676f312e34",
  "transactions": [
    {
      "hash": "0x96055a25c3ff75997e13cf9ee15c19a7fd19c90bfc4a9576bc91b3a0f0756496",
      "blockHash": "0xfa6d1e627947a3cdf2066b4f11e90bc92f5878e353b8de374e5ee69bb9b52f7c",
      "blockNumber": 88339,
      "transactionIndex": 0,
      "confirmations": null,
      "from": "0xf2Ae859397af92154241eAd0aC7c4ce3bea76E8F",
      "gasPrice": {
        "_hex": "0xd0a662e19"
      },
      "gasLimit": {
        "_hex": "0x15f90"
      },
      "to": "0x0000000000000000000000000000000000000000",
      "value": {
        "_hex": "0x0"
      },
      "nonce": 14,
      "data": "0xbe99a9806379706572780000000000000000000000000000000000000000000000000000000000000000000000000000f2ae859397af92154241ead0ac7c4ce3bea76e8f0000000000000000000000000000000000000000000000000000000000000001",
      "r": "0xa45d308fd153d171a28bf59d45458e426047a94cc759c81e0964e56a01fe5dec",
      "s": "0x40b58ccc0204e5cfb4b25064dcb5bdd9d760e271230938f9511f45bd040902e9",
      "v": 28,
      "creates": null,
      "raw": "0xf8ca0e850d0a662e1983015f9094000000000000000000000000000000000000000080b864be99a9806379706572780000000000000000000000000000000000000000000000000000000000000000000000000000f2ae859397af92154241ead0ac7c4ce3bea76e8f00000000000000000000000000000000000000000000000000000000000000011ca0a45d308fd153d171a28bf59d45458e426047a94cc759c81e0964e56a01fe5deca040b58ccc0204e5cfb4b25064dcb5bdd9d760e271230938f9511f45bd040902e9",
      "networkId": 0,
      "chainId": 0
    }
  ]
}