{
  "hash": "0x4fcdbaaf22dbf8bec3a7a8d65c4ce2e3aafd2296e1c453450d25bab61a6166b6",
  "parentHash": "0x3708f514803d8258f187b8b781613bac95731b4eaef68265ed8b87d71aa745b7",
  "number": 77585,
  "timestamp": 1439439721,
  "nonce": "0x0c1c7dc526bb9ce1",
  "difficulty": 2254582852275,
  "gasLimit": {
    "_hex": "0x2fefd8"
  },
  "gasUsed": {
    "_hex": "0x5208"
  },
  "miner": "0x01d9DA08cc6Fb97c0DE1B6F4C28910A0859Ed1A1",
  "extraData": "0x476574682f76312e302e312f6c696e75782f676f312e342e32",
  "transactions": [
    {
      "hash": "0xb29b632fd142a61a1dab55756a0f8b60e911718da861d7dc860b92719e73fbf7",
      "blockHash": "0x4fcdbaaf22dbf8bec3a7a8d65c4ce2e3aafd2296e1c453450d25bab61a6166b6",
      "blockNumber": 77585,
      "transactionIndex": 0,
      "confirmations": null,
      "from": "0x32Be343B94f860124dC4fEe278FDCBD38C102D88",
      "gasPrice": {
        "_hex": "0xd9d33f9e7"
      },
      "gasLimit": {
        "_hex": "0x5208"
      },
      "to": "0x8F68fbE2DCFf038C24F650C9e05Ee478038171cd",
      "value": {
        "_hex": "0x9841cded2e61500000"
      },
      "nonce": 370,
      "data": "0x",
      "r": "0x306448c5dab70b92289d892aca9bcdd361879abac42c29c724f9ba93c083f6b7",
      "s": "0x5080a64ee79d87bfef65bf228fbafd505515c8d10cb4f6b4859614f028664d75",
      "v": 28,
      "creates": null,
      "raw": "0xf86f820172850d9d33f9e7825208948f68fbe2dcff038c24f650c9e05ee478038171cd899841cded2e61500000801ca0306448c5dab70b92289d892aca9bcdd361879abac42c29c724f9ba93c083f6b7a05080a64ee79d87bfef65bf228fbafd505515c8d10cb4f6b4859614f028664d75",
      "networkId": 0,
      "chainId": 0
    }
  ]
}