{
  "hash": "0x195c9e3e99972ff2029faa56734063e3d854bf20ea57bc16d93112cba09ba96b",
  "parentHash": "0xfbfe7267516c6d94a2e35e1cdb881e7463344b861d0cf7ac4543664bba3f4aea",
  "number": 64739,
  "timestamp": 1439225580,
  "nonce": "0xfa02881a605ec595",
  "difficulty": 1888504751224,
  "gasLimit": {
    "_hex": "0x2fefd8"
  },
  "gasUsed": {
    "_hex": "0x5208"
  },
  "miner": "0xEF247E639d49461D25F57e9362CadE3120910Ce0",
  "extraData": "0x476574682f76312e302e312f6c696e75782f676f312e342e32",
  "transactions": [
    {
      "hash": "0xf51be4d3ff3ccf01f2b992e0c3bb730559cce995273f26171fa21a9347b64ba7",
      "blockHash": "0x195c9e3e99972ff2029faa56734063e3d854bf20ea57bc16d93112cba09ba96b",
      "blockNumber": 64739,
      "transactionIndex": 0,
      "confirmations": null,
      "from": "0x663Aa88FB3d115E8743f88d6d645d322EF722422",
      "gasPrice": {
        "_hex": "0xba43b7400"
      },
      "gasLimit": {
        "_hex": "0x5208"
      },
      "to": "0x579261aad4379E254242B57D50b8A125b77cF70A",
      "value": {
        "_hex": "0x4e1253f5de4000"
      },
      "nonce": 1,
      "data": "0x",
      "r": "0x63acc9ba4bca07562d4a87c2541cd214096b51c4385b76ef4e34ff9612af922a",
      "s": "0x040f39969bb9db9861cfdfa44d0042ed6c826144b15554607d9020901e7d461a",
      "v": 27,
      "creates": null,
      "raw": "0xf86b01850ba43b740082520894579261aad4379e254242b57d50b8a125b77cf70a874e1253f5de4000801ba063acc9ba4bca07562d4a87c2541cd214096b51c4385b76ef4e34ff9612af922aa0040f39969bb9db9861cfdfa44d0042ed6c826144b15554607d9020901e7d461a",
      "networkId": 0,
      "chainId": 0
    }
  ]
}