{
  "hash": "0x042aa30997480dc5305431231aac7325e7c7811fc5da336e34fe436aadcd7f2a",
  "parentHash": "0xffa6229e1f13e78a93ac9b86d2434f52bead5ecc2721b314360b324009970397",
  "number": 78596,
  "timestamp": 1439456345,
  "nonce": "0x648f36f781c999a9",
  "difficulty": 2293168056815,
  "gasLimit": {
    "_hex": "0x2fefd8"
  },
  "gasUsed": {
    "_hex": "0xa410"
  },
  "miner": "0x70137010922f2fC2964b3792907F79FBB75fEbe8",
  "extraData": "0x476574682f76312e302e302f6c696e75782f676f312e342e32",
  "transactions": [
    {
      "hash": "0x8c8b344853bc8de047298e5ce4722547396fb60e9ecec392099b61882c1c44e7",
      "blockHash": "0x042aa30997480dc5305431231aac7325e7c7811fc5da336e34fe436aadcd7f2a",
      "blockNumber": 78596,
      "transactionIndex": 0,
      "confirmations": null,
      "from": "0x1C8eCebAD1FDa19EF7701CF4Ca45033a34a6da31",
      "gasPrice": {
        "_hex": "0xcf395c1db"
      },
      "gasLimit": {
        "_hex": "0x15f90"
      },
      "to": "0x1a3520453582c718a21c42375BC50773255253e1",
      "value": {
        "_hex": "0x1314fb37062980000"
      },
      "nonce": 1,
      "data": "0x",
      "r": "0xd57b2eca619b99ac60d1ca6240904da5730d98071965b2e6ff95e9ce940da7d5",
      "s": "0x34aab57b93226484944093a7e662a7333ab2e1d9dfb8d63b9b7d041d32e4928f",
      "v": 27,
      "creates": null,
      "raw": "0xf86e01850cf395c1db83015f90941a3520453582c718a21c42375bc50773255253e18901314fb37062980000801ba0d57b2eca619b99ac60d1ca6240904da5730d98071965b2e6ff95e9ce940da7d5a034aab57b93226484944093a7e662a7333ab2e1d9dfb8d63b9b7d041d32e4928f",
      "networkId": 0,
      "chainId": 0
    },
    {
      "hash": "0x625db0ab72fb86da0b0629e8907479912083b94b4cc91a880ae08a88091db3c7",
      "blockHash": "0x042aa30997480dc5305431231aac7325e7c7811fc5da336e34fe436aadcd7f2a",
      "blockNumber": 78596,
      "transactionIndex": 1,
      "confirmations": null,
      "from": "0x458F183347F45a4001807728A89F31E9Da9D4A58",
      "gasPrice": {
        "_hex": "0xda8574647"
      },
      "gasLimit": {
        "_hex": "0x15f90"
      },
      "to": "0x7fa165177F28D171bA7C17f765c1904344Ec64CB",
      "value": {
        "_hex": "0x4563918244f400000"
      },
      "nonce": 12,
      "data": "0x",
      "r": "0x4aa82c64b3c10b46eefd0fc07030359d1fc045927d6610fd0d851440608df68d",
      "s": "0x5dd4162fcb3a3a6ee807e308535707e28cecee4a0101842e0c29d29808676d28",
      "v": 28,
      "creates": null,
      "raw": "0xf86e0c850da857464783015f90947fa165177f28d171ba7c17f765c1904344ec64cb8904563918244f400000801ca04aa82c64b3c10b46eefd0fc07030359d1fc045927d6610fd0d851440608df68da05dd4162fcb3a3a6ee807e308535707e28cecee4a0101842e0c29d29808676d28",
      "networkId": 0,
      "chainId": 0
    }
  ]
}