{
  "hash": "0x6aaee46924c81d86940f26333fbb95cdff38cb90a2dfb801d77a07f1b39947a3",
  "parentHash": "0x7ce9cdbd32d0bcd5980aaff5aa303582c8b6a5bc93105b6f539bde27908a2cb2",
  "number": 83114,
  "timestamp": 1439530384,
  "nonce": "0x56cea2090ba3c25f",
  "difficulty": 2406621348147,
  "gasLimit": {
    "_hex": "0x2fefd8"
  },
  "gasUsed": {
    "_hex": "0x5208"
  },
  "miner": "0x36F60f6fAe70855D6a506c3cbDfa8B1Cc4d77c35",
  "extraData": "0x",
  "transactions": [
    {
      "hash": "0x2544c4fba89c74e6ef4f2c357260f8e96f42c41dcf2988d292c9768cfa120019",
      "blockHash": "0x6aaee46924c81d86940f26333fbb95cdff38cb90a2dfb801d77a07f1b39947a3",
      "blockNumber": 83114,
      "transactionIndex": 0,
      "confirmations": null,
      "from": "0x72B904440e90E720d6ac1c2AD79C321DCc1C1a86",
      "gasPrice": {
        "_hex": "0x106ce997e44"
      },
      "gasLimit": {
        "_hex": "0x5208"
      },
      "to": "0xD678C8d3430cbE0d7a6F36487f3Cb6E5f27e4CA6",
      "value": {
        "_hex": "0x1dc2e7cf45f9740000"
      },
      "nonce": 1,
      "data": "0x",
      "r": "0x2a221299301e20451c4aa0a4f38eb13a0f889a97841af3d2d5ace804a2bebaeb",
      "s": "0x63605f2057231e902555ed343deb24b8354927ece82e7ca6adf42044af11f488",
      "v": 27,
      "creates": null,
      "raw": "0xf86e01860106ce997e4482520894d678c8d3430cbe0d7a6f36487f3cb6e5f27e4ca6891dc2e7cf45f9740000801ba02a221299301e20451c4aa0a4f38eb13a0f889a97841af3d2d5ace804a2bebaeba063605f2057231e902555ed343deb24b8354927ece82e7ca6adf42044af11f488",
      "networkId": 0,
      "chainId": 0
    }
  ]
}