{
  "hash": "0x30e5494ff051c729f373cacc95a12f49140330c64766889397d386b148ae84a5",
  "parentHash": "0xe51684950671aee724b86cddf143ee6bfcee4229ebd0a2fd0c6d2342823e0f31",
  "number": 90752,
  "timestamp": 1439644993,
  "nonce": "0x6b88219144616c7c",
  "difficulty": 3377571938222,
  "gasLimit": {
    "_hex": "0x2fefd8"
  },
  "gasUsed": {
    "_hex": "0x5208"
  },
  "miner": "0xe6A7a1d47ff21B6321162AEA7C6CB457D5476Bca",
  "extraData": "0x476574682f76312e302e312d38326566323666362f6c696e75782f676f312e34",
  "transactions": [
    {
      "hash": "0x5cc46dcf9ed8895c8337a6db1d73a985418af36570bc70962deb3f9bb679cd8e",
      "blockHash": "0x30e5494ff051c729f373cacc95a12f49140330c64766889397d386b148ae84a5",
      "blockNumber": 90752,
      "transactionIndex": 0,
      "confirmations": null,
      "from": "0xa6BDc31c431B8F97848c9D60cbbe9660dc450eB7",
      "gasPrice": {
        "_hex": "0xd2459105b"
      },
      "gasLimit": {
        "_hex": "0x5208"
      },
      "to": "0x32Be343B94f860124dC4fEe278FDCBD38C102D88",
      "value": {
        "_hex": "0x455f5b751f5c8c00"
      },
      "nonce": 89,
      "data": "0x",
      "r": "0x8127233b39c846d0bb7c9e2d435d308e5b38fce06ce6be69d864a3cdcaf6ff0e",
      "s": "0x0fb61ef6679723daa63523e4aa5db21ac34b4881e423f1968e9879d17ea4be86",
      "v": 28,
      "creates": null,
      "raw": "0xf86c59850d2459105b8252089432be343b94f860124dc4fee278fdcbd38c102d8888455f5b751f5c8c00801ca08127233b39c846d0bb7c9e2d435d308e5b38fce06ce6be69d864a3cdcaf6ff0ea00fb61ef6679723daa63523e4aa5db21ac34b4881e423f1968e9879d17ea4be86",
      "networkId": 0,
      "chainId": 0
    }
  ]
}