{
  "hash": "0x676051dc22f284a0f92d270cb6b9c773c0fa97f187f8946a2be630652149760d",
  "parentHash": "0x2f68f94a10a6797d332e1c8169fea3b43fb2540ad99e40f122c05ea1ee82b95a",
  "number": 110531,
  "timestamp": 1439975250,
  "nonce": "0x597b002c7c97d3e1",
  "difficulty": 4379814189837,
  "gasLimit": {
    "_hex": "0x2fefd8"
  },
  "gasUsed": {
    "_hex": "0xa410"
  },
  "miner": "0xe6A7a1d47ff21B6321162AEA7C6CB457D5476Bca",
  "extraData": "0x476574682f76312e302e312d38326566323666362f6c696e75782f676f312e34",
  "transactions": [
    {
      "hash": "0x973513bcb1d67ca5efd2857a9da237113f5c644ac6e343395874697cf2b61689",
      "blockHash": "0x676051dc22f284a0f92d270cb6b9c773c0fa97f187f8946a2be630652149760d",
      "blockNumber": 110531,
      "transactionIndex": 0,
      "confirmations": null,
      "from": "0x7BD85B8e7546f88b3560CC11380C61eb7c9F95db",
      "gasPrice": {
        "_hex": "0xcd8021dbf"
      },
      "gasLimit": {
        "_hex": "0x5208"
      },
      "to": "0x32Be343B94f860124dC4fEe278FDCBD38C102D88",
      "value": {
        "_hex": "0xdb91228e2f17000"
      },
      "nonce": 1,
      "data": "0x",
      "r": "0xfdfe63e5c28a932625b7ea2c232f6cbf9bb6b13a2dcb7647b9949805fc6832fe",
      "s": "0x0e9376457887a6c14661eb23fba164799f8a1f5c536b1a21e48d54c8fb1364f9",
      "v": 27,
      "creates": null,
      "raw": "0xf86c01850cd8021dbf8252089432be343b94f860124dc4fee278fdcbd38c102d88880db91228e2f17000801ba0fdfe63e5c28a932625b7ea2c232f6cbf9bb6b13a2dcb7647b9949805fc6832fea00e9376457887a6c14661eb23fba164799f8a1f5c536b1a21e48d54c8fb1364f9",
      "networkId": 0,
      "chainId": 0
    },
    {
      "hash": "0x6fe98d8f65178b9ad48481eba4e656204f3aa09fb099738a59c541f931a98d58",
      "blockHash": "0x676051dc22f284a0f92d270cb6b9c773c0fa97f187f8946a2be630652149760d",
      "blockNumber": 110531,
      "transactionIndex": 1,
      "confirmations": null,
      "from": "0x737D72D4CC6E993486Ab68981A880848c8901Cb7",
      "gasPrice": {
        "_hex": "0xcd8021dbf"
      },
      "gasLimit": {
        "_hex": "0x5208"
      },
      "to": "0x32Be343B94f860124dC4fEe278FDCBD38C102D88",
      "value": {
        "_hex": "0x109aa835ca3cc000"
      },
      "nonce": 0,
      "data": "0x",
      "r": "0x348b26f086a02501067b71bba0b823d8d112894588285fa3a13d4e40cbe16c25",
      "s": "0x018a8cb33fd830b6361a10d9923925030413a3df50953cdd6e12eb056e48949d",
      "v": 28,
      "creates": null,
      "raw": "0xf86c80850cd8021dbf8252089432be343b94f860124dc4fee278fdcbd38c102d8888109aa835ca3cc000801ca0348b26f086a02501067b71bba0b823d8d112894588285fa3a13d4e40cbe16c25a0018a8cb33fd830b6361a10d9923925030413a3df50953cdd6e12eb056e48949d",
      "networkId": 0,
      "chainId": 0
    }
  ]
}