{
  "hash": "0xa115c8dd05457ac5708d7e117ad3bd145ab3c5dd94ce823f267e32e762ad61bf",
  "parentHash": "0xf7a700623183b0d5a337dc4ac2b86ce5538aa995c776826c400f42c2b00aeaa9",
  "number": 63710,
  "timestamp": 1439208955,
  "nonce": "0x3e8fa05303ff2d87",
  "difficulty": 1840485024447,
  "gasLimit": {
    "_hex": "0x2fefd5"
  },
  "gasUsed": {
    "_hex": "0xa410"
  },
  "miner": "0x63BBedc46A1113Ba7938CF7C18CCb5Aed20eC733",
  "extraData": "0x",
  "transactions": [
    {
      "hash": "0x02becc017aaf45f738bd008b423aba5e75b1637bf472932bd16a3e7ec4168063",
      "blockHash": "0xa115c8dd05457ac5708d7e117ad3bd145ab3c5dd94ce823f267e32e762ad61bf",
      "blockNumber": 63710,
      "transactionIndex": 0,
      "confirmations": null,
      "from": "0x2910543Af39abA0Cd09dBb2D50200b3E800A63D2",
      "gasPrice": {
        "_hex": "0xd8107a7ad"
      },
      "gasLimit": {
        "_hex": "0x5208"
      },
      "to": "0x006bfa4a5e365D3AE032805f8Ae03E09680B2f30",
      "value": {
        "_hex": "0x8ab55f8b52078000"
      },
      "nonce": 134,
      "data": "0x",
      "r": "0x1d7b0927e5c164d4ea95938313f78bae9f688010a67710cab0f2494f370cb24c",
      "s": "0x7eae7202febf81632b46586e7cf7d74a7f747ec2afc1927423f31982ef293da8",
      "v": 28,
      "creates": null,
      "raw": "0xf86d8186850d8107a7ad82520894006bfa4a5e365d3ae032805f8ae03e09680b2f30888ab55f8b52078000801ca01d7b0927e5c164d4ea95938313f78bae9f688010a67710cab0f2494f370cb24ca07eae7202febf81632b46586e7cf7d74a7f747ec2afc1927423f31982ef293da8",
      "networkId": 0,
      "chainId": 0
    },
    {
      "hash": "0x457686586819c921bd3c9d0ee402edb9bf7643550302d991d304d38e998fbc33",
      "blockHash": "0xa115c8dd05457ac5708d7e117ad3bd145ab3c5dd94ce823f267e32e762ad61bf",
      "blockNumber": 63710,
      "transactionIndex": 1,
      "confirmations": null,
      "from": "0x2910543Af39abA0Cd09dBb2D50200b3E800A63D2",
      "gasPrice": {
        "_hex": "0xd8107a7ad"
      },
      "gasLimit": {
        "_hex": "0x5208"
      },
      "to": "0xb0862B56cf108420D770182534231d2f5b115616",
      "value": {
        "_hex": "0x8ab55f8b52078000"
      },
      "nonce": 135,
      "data": "0x",
      "r": "0x66228065634c83dca01f6ad09103c8b47e78de1e0ec5162bb0a9f13b5eb034e7",
      "s": "0x3c63134b2d2e66b55b99af9f91e7ae894a61a5f3c40485cb6d8729988963367b",
      "v": 28,
      "creates": null,
      "raw": "0xf86d8187850d8107a7ad82520894b0862b56cf108420d770182534231d2f5b115616888ab55f8b52078000801ca066228065634c83dca01f6ad09103c8b47e78de1e0ec5162bb0a9f13b5eb034e7a03c63134b2d2e66b55b99af9f91e7ae894a61a5f3c40485cb6d8729988963367b",
      "networkId": 0,
      "chainId": 0
    }
  ]
}