{
  "hash": "0xf2690b6616b4c600f9bcca3f669bf460562522808d276eab4f9edc11fa95a398",
  "parentHash": "0x930a6f7511ce61aa0630222ff97f59c9133710435b198ce1b21d844884e4b8cb",
  "number": 96396,
  "timestamp": 1439739752,
  "nonce": "0x327677a97c24b8ed",
  "difficulty": 3663853744257,
  "gasLimit": {
    "_hex": "0x2fefd8"
  },
  "gasUsed": {
    "_hex": "0xa410"
  },
  "miner": "0x39d678E1A5a4BD201c1285a305fD1b5849388EA3",
  "extraData": "0x476574682f76312e302e312d38326566323666362f6c696e75782f676f312e34",
  "transactions": [
    {
      "hash": "0x7da0b3c0a1b61c745dadb36346d3e81e14b903b9965d9c10d93c07d6da91ea5c",
      "blockHash": "0xf2690b6616b4c600f9bcca3f669bf460562522808d276eab4f9edc11fa95a398",
      "blockNumber": 96396,
      "transactionIndex": 0,
      "confirmations": null,
      "from": "0x32Be343B94f860124dC4fEe278FDCBD38C102D88",
      "gasPrice": {
        "_hex": "0xdb66fbde2"
      },
      "gasLimit": {
        "_hex": "0x5208"
      },
      "to": "0x120A270bbC009644e35F0bB6ab13f95b8199c4ad",
      "value": {
        "_hex": "0x10f0cf064dd59200000"
      },
      "nonce": 1003,
      "data": "0x",
      "r": "0x206f3cfd988b6038c911a703c2fcb56d71f246ffa1dbeb32df4228a6a0da094d",
      "s": "0x47fcac32e2feb4bb86a044ae8ca856a2e7cc4429449b005c22bf25b4e88514c1",
      "v": 28,
      "creates": null,
      "raw": "0xf8708203eb850db66fbde282520894120a270bbc009644e35f0bb6ab13f95b8199c4ad8a010f0cf064dd59200000801ca0206f3cfd988b6038c911a703c2fcb56d71f246ffa1dbeb32df4228a6a0da094da047fcac32e2feb4bb86a044ae8ca856a2e7cc4429449b005c22bf25b4e88514c1",
      "networkId": 0,
      "chainId": 0
    },
    {
      "hash": "0x51036c559d2324c75dffd306d947516b00931515e037d521a0b1e9fb39faab7a",
      "blockHash": "0xf2690b6616b4c600f9bcca3f669bf460562522808d276eab4f9edc11fa95a398",
      "blockNumber": 96396,
      "transactionIndex": 1,
      "confirmations": null,
      "from": "0x0DBaD90C967BFfeA4d6B589c0d2AF50A0eA16304",
      "gasPrice": {
        "_hex": "0xdb66fbde2"
      },
      "gasLimit": {
        "_hex": "0x5208"
      },
      "to": "0x32Be343B94f860124dC4fEe278FDCBD38C102D88",
      "value": {
        "_hex": "0x1a0748b231cd08000"
      },
      "nonce": 1,
      "data": "0x",
      "r": "0xf617a89c3c4b14ebccf74b8c36e46254c4a474d9932485653c5bb1426808a650",
      "s": "0x4d5d2d9f3968efc352bd4b4d27d16063496ed180805f2e9a6d4147a76154e6bb",
      "v": 27,
      "creates": null,
      "raw": "0xf86d01850db66fbde28252089432be343b94f860124dc4fee278fdcbd38c102d888901a0748b231cd08000801ba0f617a89c3c4b14ebccf74b8c36e46254c4a474d9932485653c5bb1426808a650a04d5d2d9f3968efc352bd4b4d27d16063496ed180805f2e9a6d4147a76154e6bb",
      "networkId": 0,
      "chainId": 0
    }
  ]
}