{
  "hash": "0xc2edbd87a73faf9647a4b6af45a6886edc0a11ed0de023c5fbac1c27cffdbe22",
  "parentHash": "0x4e4414c6fbfa54e54a6939124905cf5c1d0e4d8ef414a758c21bdbc9f38cb1c8",
  "number": 50763,
  "timestamp": 1438994123,
  "nonce": "0x0212072a671e57b6",
  "difficulty": 1548452615902,
  "gasLimit": {
    "_hex": "0x76c89"
  },
  "gasUsed": {
    "_hex": "0x5208"
  },
  "miner": "0xbcB2E3693d246E1fc00348754334BadEb88b2a11",
  "extraData": "0x476574682f76312e302e302f6c696e75782f676f312e342e32",
  "transactions": [
    {
      "hash": "0xb6e09c8ee0f80dd02350350c5cc887ed6950451ad0ae70012dfd6d09b57783db",
      "blockHash": "0xc2edbd87a73faf9647a4b6af45a6886edc0a11ed0de023c5fbac1c27cffdbe22",
      "blockNumber": 50763,
      "transactionIndex": 0,
      "confirmations": null,
      "from": "0xC939D6e2515872B4A5bed252f1d82A4dCE4A1507",
      "gasPrice": {
        "_hex": "0x117e6529f85"
      },
      "gasLimit": {
        "_hex": "0x15f90"
      },
      "to": "0x3aAE6435730f753ecF6214996ae2a55A1503F97c",
      "value": {
        "_hex": "0x56bc75e2d63100000"
      },
      "nonce": 3,
      "data": "0x",
      "r": "0x1c4bcaab9d80a52796b7b0742acb35d609b81e35d72e1eda0764609ace88bde4",
      "s": "0x7b91505d41038d947663cef8cf909622538fb5bd5b748fa157f9ba0c13d9aed0",
      "v": 27,
      "creates": null,
      "raw": "0xf86f03860117e6529f8583015f90943aae6435730f753ecf6214996ae2a55a1503f97c89056bc75e2d63100000801ba01c4bcaab9d80a52796b7b0742acb35d609b81e35d72e1eda0764609ace88bde4a07b91505d41038d947663cef8cf909622538fb5bd5b748fa157f9ba0c13d9aed0",
      "networkId": 0,
      "chainId": 0
    }
  ]
}