{
  "hash": "0xe001132eb0e3e9d896060081c2c78e4578c7a4839fb44025f7e60fb34f9005a5",
  "parentHash": "0x73afec71c7792ccd90e4fdf262bde4f0ce274a4e421c2d20bc5527fb478b597e",
  "number": 107209,
  "timestamp": 1439918133,
  "nonce": "0xf87f31a22b4330ef",
  "difficulty": 4433197315236,
  "gasLimit": {
    "_hex": "0x2fefd8"
  },
  "gasUsed": {
    "_hex": "0xa410"
  },
  "miner": "0x580992B51e3925e23280EfB93d3047C82f17E038",
  "extraData": "0x476574682f76312e302e312f6c696e75782f676f312e342e32",
  "transactions": [
    {
      "hash": "0x0d601b8744dd8aed88f16aae01d01e146ebb7866565b5554a4e23215dd003ca5",
      "blockHash": "0xe001132eb0e3e9d896060081c2c78e4578c7a4839fb44025f7e60fb34f9005a5",
      "blockNumber": 107209,
      "transactionIndex": 0,
      "confirmations": null,
      "from": "0x32Be343B94f860124dC4fEe278FDCBD38C102D88",
      "gasPrice": {
        "_hex": "0xd832b7ed0"
      },
      "gasLimit": {
        "_hex": "0x5208"
      },
      "to": "0x76899c112A85c5a7d27Ff89f1b97112e900aeEBc",
      "value": {
        "_hex": "0xdde7e448067f0000"
      },
      "nonce": 1205,
      "data": "0x",
      "r": "0x939cff5351d3b323e84a3c8a3c07c8afb522ddd4f7b9d8be1563354a9f946fa9",
      "s": "0x19fba5917626a27b5e3641983987195a82004efa73da648684e29c857bd93dd2",
      "v": 28,
      "creates": null,
      "raw": "0xf86e8204b5850d832b7ed08252089476899c112a85c5a7d27ff89f1b97112e900aeebc88dde7e448067f0000801ca0939cff5351d3b323e84a3c8a3c07c8afb522ddd4f7b9d8be1563354a9f946fa9a019fba5917626a27b5e3641983987195a82004efa73da648684e29c857bd93dd2",
      "networkId": 0,
      "chainId": 0
    },
    {
      "hash": "0x7221c7b26682b738fb6ff0290799371b3c857151f44aaf4ebe59fd1b7d67e3fc",
      "blockHash": "0xe001132eb0e3e9d896060081c2c78e4578c7a4839fb44025f7e60fb34f9005a5",
      "blockNumber": 107209,
      "transactionIndex": 1,
      "confirmations": null,
      "from": "0x924b9ac94Fb8352e2Bb405Da728c58d4D4985895",
      "gasPrice": {
        "_hex": "0xd20c08680"
      },
      "gasLimit": {
        "_hex": "0x15f90"
      },
      "to": "0xf2cC0eEAAAeD313542CB262B0B8c3972425143f0",
      "value": {
        "_hex": "0x8aa39c121a270000"
      },
      "nonce": 0,
      "data": "0x",
      "r": "0x81142286bea875c29eee94f1cc1c3a51005676ac6700d449833417a6d45e6e3b",
      "s": "0x7ada8b31ca60d859d283db1130696501516a6877f94c32ea679c4e057b490349",
      "v": 28,
      "creates": null,
      "raw": "0xf86d80850d20c0868083015f9094f2cc0eeaaaed313542cb262b0b8c3972425143f0888aa39c121a270000801ca081142286bea875c29eee94f1cc1c3a51005676ac6700d449833417a6d45e6e3ba07ada8b31ca60d859d283db1130696501516a6877f94c32ea679c4e057b490349",
      "networkId": 0,
      "chainId": 0
    }
  ]
}