{
  "hash": "0x982397d0ac51b4f6bfa01067de8cf8c10050f61753b2caeabb37808f6181293a",
  "parentHash": "0xf5b4dcaf536ad9b72b951d80cc07b807861f7d67566a97ba6bd9e93724a34df9",
  "number": 48820,
  "timestamp": 1438963516,
  "nonce": "0x657fafa528f49029",
  "difficulty": 1478607876648,
  "gasLimit": {
    "_hex": "0x1ee79"
  },
  "gasUsed": {
    "_hex": "0x546c"
  },
  "miner": "0x0d24088Af27304EBc156E217A00bD4313bBDde08",
  "extraData": "0x476574682f76312e302e302f77696e646f77732f676f312e342e32",
  "transactions": [
    {
      "hash": "0x850b098113c7d33cca2a0ebe6b05e174fd26f7abbaddd1c5088e056b9489ee4d",
      "blockHash": "0x982397d0ac51b4f6bfa01067de8cf8c10050f61753b2caeabb37808f6181293a",
      "blockNumber": 48820,
      "transactionIndex": 0,
      "confirmations": null,
      "from": "0xf2Efe96560C9D97b72bd36447843885C1D90C231",
      "gasPrice": {
        "_hex": "0x110c8f7d8de"
      },
      "gasLimit": {
        "_hex": "0xc350"
      },
      "to": "0x2910543Af39abA0Cd09dBb2D50200b3E800A63D2",
      "value": {
        "_hex": "0x1b1ae4d6e2ef500000"
      },
      "nonce": 0,
      "data": "0x454e50315156315052",
      "r": "0xda40a6c3f4e52e769829055c63a84d106a64c15f96bc996ae7865139732f56cf",
      "s": "0xe0f6af0b68bd57d9c46049cad14fee8612302ff1cc6e4e54acfe8ff924701f12",
      "v": 28,
      "creates": null,
      "raw": "0xf87780860110c8f7d8de82c350942910543af39aba0cd09dbb2d50200b3e800a63d2891b1ae4d6e2ef50000089454e503151563150521ca0da40a6c3f4e52e769829055c63a84d106a64c15f96bc996ae7865139732f56cfa0e0f6af0b68bd57d9c46049cad14fee8612302ff1cc6e4e54acfe8ff924701f12",
      "networkId": 0,
      "chainId": 0
    }
  ]
}