{
  "hash": "0x44fdff6a28c8e560fc7231a9a589c3178318a56185200c0c4c1180aa1147c185",
  "parentHash": "0x79cc48207a3795cc6860a04cb9fed57b86e5df4e8451de99faf5b6ae2bb28ff1",
  "number": 68402,
  "timestamp": 1439287185,
  "nonce": "0x5f1c3ce3190f0ccc",
  "difficulty": 2020247067305,
  "gasLimit": {
    "_hex": "0x2fefd8"
  },
  "gasUsed": {
    "_hex": "0x524fb"
  },
  "miner": "0x9746c7e1ef2bd21FF3997fa467593a89cb852BD0",
  "extraData": "0x476574682f76312e302e312f77696e646f77732f676f312e342e32",
  "transactions": [
    {
      "hash": "0x6ff31f39e893d528d5ff1d61b901d8d9b6241392fc150e882109845ba34003d9",
      "blockHash": "0x44fdff6a28c8e560fc7231a9a589c3178318a56185200c0c4c1180aa1147c185",
      "blockNumber": 68402,
      "transactionIndex": 0,
      "confirmations": null,
      "from": "0x17580B766f7453525ca4C6A88b01b50570EA088C",
      "gasPrice": {
        "_hex": "0xd5c5d4c78"
      },
      "gasLimit": {
        "_hex": "0x61a80"
      },
      "to": "0x5Fe5B7546D1628f7348B023A0393de1FC825A4fD",
      "value": {
        "_hex": "0xde0b6b3a7640000"
      },
      "nonce": 17,
      "data": "0xb595b8b50000000000000000000000000000000000000000000000000000000000000000",
      "r": "0xcebdf112e5ee61dc100ae6a828824cfdb31282fbcc5e92b0dfd3b447c3f41a9f",
      "s": "0x45a6d969ac46e72f4c0ef84d2338990dfa15526c89224b96748c5381ccdb4324",
      "v": 27,
      "creates": null,
      "raw": "0xf89111850d5c5d4c7883061a80945fe5b7546d1628f7348b023a0393de1fc825a4fd880de0b6b3a7640000a4b595b8b500000000000000000000000000000000000000000000000000000000000000001ba0cebdf112e5ee61dc100ae6a828824cfdb31282fbcc5e92b0dfd3b447c3f41a9fa045a6d969ac46e72f4c0ef84d2338990dfa15526c89224b96748c5381ccdb4324",
      "networkId": 0,
      "chainId": 0
    },
    {
      "hash": "0x167f852509d039672ce37fd6906f8d6507cc71907c691f8d7849bd6b9413c3b8",
      "blockHash": "0x44fdff6a28c8e560fc7231a9a589c3178318a56185200c0c4c1180aa1147c185",
      "blockNumber": 68402,
      "transactionIndex": 1,
      "confirmations": null,
      "from": "0x6a475fA6C5b59669d452275211156562594b0a21",
      "gasPrice": {
        "_hex": "0xba43b7400"
      },
      "gasLimit": {
        "_hex": "0x15f90"
      },
      "to": "0x793AE8C1b1a160BFc07BFB0d04F85eab1A71F4f2",
      "value": {
        "_hex": "0x0"
      },
      "nonce": 0,
      "data": "0x3ba15036",
      "r": "0xd8efafb9dc03a8a7375636bf0f681f5dc12e61b35dc2a343e1d690d439919d42",
      "s": "0x437387e6286bb648435c44d138a40d468b8170ac01fe9157c22ae0ec1365e5c6",
      "v": 28,
      "creates": null,
      "raw": "0xf86980850ba43b740083015f9094793ae8c1b1a160bfc07bfb0d04f85eab1a71f4f280843ba150361ca0d8efafb9dc03a8a7375636bf0f681f5dc12e61b35dc2a343e1d690d439919d42a0437387e6286bb648435c44d138a40d468b8170ac01fe9157c22ae0ec1365e5c6",
      "networkId": 0,
      "chainId": 0
    },
    {
      "hash": "0x46c30a6b4800f1313b73932310f3a1f462d7ae6b0e21d6e523b6c263d31dbaa3",
      "blockHash": "0x44fdff6a28c8e560fc7231a9a589c3178318a56185200c0c4c1180aa1147c185",
      "blockNumber": 68402,
      "transactionIndex": 2,
      "confirmations": null,
      "from": "0x6989DB79Af16EB387d56537D24c65aaE7791Dc31",
      "gasPrice": {
        "_hex": "0xba43b7400"
      },
      "gasLimit": {
        "_hex": "0x15f90"
      },
      "to": "0x793AE8C1b1a160BFc07BFB0d04F85eab1A71F4f2",
      "value": {
        "_hex": "0x0"
      },
      "nonce": 0,
      "data": "0x3ba15036",
      "r": "0x2638d0d83532ba841b7f57971247f14f1ee54a66d2b232c25699bb34dfc62fe2",
      "s": "0x3b7d272785ff0e90c7c44c607c950dc0ee496c403f38a25473808c7705622d5a",
      "v": 27,
      "creates": null,
      "raw": "0xf86980850ba43b740083015f9094793ae8c1b1a160bfc07bfb0d04f85eab1a71f4f280843ba150361ba02638d0d83532ba841b7f57971247f14f1ee54a66d2b232c25699bb34dfc62fe2a03b7d272785ff0e90c7c44c607c950dc0ee496c403f38a25473808c7705622d5a",
      "networkId": 0,
      "chainId": 0
    },
    {
      "hash": "0xb83acb5232bae2ad22e8e1343a0d2e1e9b62e94c17bb0b89f3bd6fce0231aa02",
      "blockHash": "0x44fdff6a28c8e560fc7231a9a589c3178318a56185200c0c4c1180aa1147c185",
      "blockNumber": 68402,
      "transactionIndex": 3,
      "confirmations": null,
      "from": "0x3bbbDCa04Cbbf6129A50Fc35164EeB2a7f9B8550",
      "gasPrice": {
        "_hex": "0xba43b7400"
      },
      "gasLimit": {
        "_hex": "0x15f90"
      },
      "to": "0x793AE8C1b1a160BFc07BFB0d04F85eab1A71F4f2",
      "value": {
        "_hex": "0x0"
      },
      "nonce": 0,
      "data": "0x3ba15036",
      "r": "0x5d93e8f0779891293b981c0310f056978ca17aff45bd2cbc9275bf76413bd9b7",
      "s": "0x51f0c946696f7f5fab132cb63213267b669d021912e406928a1dd1147b1e001b",
      "v": 28,
      "creates": null,
      "raw": "0xf86980850ba43b740083015f9094793ae8c1b1a160bfc07bfb0d04f85eab1a71f4f280843ba150361ca05d93e8f0779891293b981c0310f056978ca17aff45bd2cbc9275bf76413bd9b7a051f0c946696f7f5fab132cb63213267b669d021912e406928a1dd1147b1e001b",
      "networkId": 0,
      "chainId": 0
    },
    {
      "hash": "0x53b4118254bb2bbdcbc27a9a6354b7820bdc74dcfc23abb698533337eb82e8ba",
      "blockHash": "0x44fdff6a28c8e560fc7231a9a589c3178318a56185200c0c4c1180aa1147c185",
      "blockNumber": 68402,
      "transactionIndex": 4,
      "confirmations": null,
      "from": "0x0d6414C49C645e64492f880EAFA8A63FB1A3D761",
      "gasPrice": {
        "_hex": "0xba43b7400"
      },
      "gasLimit": {
        "_hex": "0x15f90"
      },
      "to": "0x793AE8C1b1a160BFc07BFB0d04F85eab1A71F4f2",
      "value": {
        "_hex": "0x0"
      },
      "nonce": 0,
      "data": "0x3ba15036",
      "r": "0x92145020e34c7e69974d288db3bcb08749cf4ff96f0bc92740013dde352426f6",
      "s": "0x5ffae4d1451c84f7e60f4bfb8fb8b65442e2030023bd1d0caf7312eb2f8d6a61",
      "v": 28,
      "creates": null,
      "raw": "0xf86980850ba43b740083015f9094793ae8c1b1a160bfc07bfb0d04f85eab1a71f4f280843ba150361ca092145020e34c7e69974d288db3bcb08749cf4ff96f0bc92740013dde352426f6a05ffae4d1451c84f7e60f4bfb8fb8b65442e2030023bd1d0caf7312eb2f8d6a61",
      "networkId": 0,
      "chainId": 0
    },
    {
      "hash": "0x4389689352f9434dd91d28530e1f2b028707290c04310b99b8ba420dcb72fc65",
      "blockHash": "0x44fdff6a28c8e560fc7231a9a589c3178318a56185200c0c4c1180aa1147c185",
      "blockNumber": 68402,
      "transactionIndex": 5,
      "confirmations": null,
      "from": "0x00B385C0b8f493344BF886fd112f762680B6E2cC",
      "gasPrice": {
        "_hex": "0xba43b7400"
      },
      "gasLimit": {
        "_hex": "0x15f90"
      },
      "to": "0x793AE8C1b1a160BFc07BFB0d04F85eab1A71F4f2",
      "value": {
        "_hex": "0x0"
      },
      "nonce": 0,
      "data": "0x3ba15036",
      "r": "0xd09828375285ad589f335e390fb5afd40095e630bca5d3d36bc3d20af4ac9a05",
      "s": "0x70df9d01e9c59faeddb603d10254e0e90183a2496bab09879426f48e56185f76",
      "v": 28,
      "creates": null,
      "raw": "0xf86980850ba43b740083015f9094793ae8c1b1a160bfc07bfb0d04f85eab1a71f4f280843ba150361ca0d09828375285ad589f335e390fb5afd40095e630bca5d3d36bc3d20af4ac9a05a070df9d01e9c59faeddb603d10254e0e90183a2496bab09879426f48e56185f76",
      "networkId": 0,
      "chainId": 0
    },
    {
      "hash": "0x1e2bb7c70d93a1d333b2c27c961ecc48caa4c30ca77b52a22fc20a1bb3ae7d23",
      "blockHash": "0x44fdff6a28c8e560fc7231a9a589c3178318a56185200c0c4c1180aa1147c185",
      "blockNumber": 68402,
      "transactionIndex": 6,
      "confirmations": null,
      "from": "0x7157d2d644cf4006eDBad877F532abfF068dA8DE",
      "gasPrice": {
        "_hex": "0xba43b7400"
      },
      "gasLimit": {
        "_hex": "0x15f90"
      },
      "to": "0x793AE8C1b1a160BFc07BFB0d04F85eab1A71F4f2",
      "value": {
        "_hex": "0x0"
      },
      "nonce": 0,
      "data": "0x3ba15036",
      "r": "0x11340b6f69f1fd7e2d745bbb32d5a89e2ac7e235ddd2e79db8bb89ba2ddd4caf",
      "s": "0x6be79b2455749a54c0a23575959cfeb51750f3d758a7313f1d2ed3f5f268c09e",
      "v": 27,
      "creates": null,
      "raw": "0xf86980850ba43b740083015f9094793ae8c1b1a160bfc07bfb0d04f85eab1a71f4f280843ba150361ba011340b6f69f1fd7e2d745bbb32d5a89e2ac7e235ddd2e79db8bb89ba2ddd4cafa06be79b2455749a54c0a23575959cfeb51750f3d758a7313f1d2ed3f5f268c09e",
      "networkId": 0,
      "chainId": 0
    }
  ]
}