{
  "hash": "0x6d000ecaa96787cb5ac493fd20274dc1050b1c24ac601add133913f756a392ed",
  "parentHash": "0x8dad64a2c9121ae973f1d98c31e0110b733cad040a13630fac38bfd347cb5610",
  "number": 116791,
  "timestamp": 1440097312,
  "nonce": "0x591bb3e76e3ad2d7",
  "difficulty": 4338249768550,
  "gasLimit": {
    "_hex": "0x2fefd8"
  },
  "gasUsed": {
    "_hex": "0x5208"
  },
  "miner": "0xe6A7a1d47ff21B6321162AEA7C6CB457D5476Bca",
  "extraData": "0xd783010002844765746887676f312e342e32856c696e7578",
  "transactions": [
    {
      "hash": "0x48d78edea4c8d78d1bf7fbe01cb7094d30ee1d81987c1833ae995bb13b78028d",
      "blockHash": "0x6d000ecaa96787cb5ac493fd20274dc1050b1c24ac601add133913f756a392ed",
      "blockNumber": 116791,
      "transactionIndex": 0,
      "confirmations": null,
      "from": "0xeDc1c224e7D9A03E71143A45645d83e12fB0acb5",
      "gasPrice": {
        "_hex": "0xba43b7400"
      },
      "gasLimit": {
        "_hex": "0x15f90"
      },
      "to": "0x6BED894B45159c6001dfbC5bd6257A10B9eF2202",
      "value": {
        "_hex": "0xde0b6b3a7640000"
      },
      "nonce": 1,
      "data": "0x",
      "r": "0xe8ef8dca729529e9132cd356cbadb747b10b42aac49b4ddb774aee4ecfc0c53d",
      "s": "0x042334fc8c44a8353aafbf5c0ca4147a95541011abcdf6202c8f221fdd3d7e7d",
      "v": 28,
      "creates": null,
      "raw": "0xf86d01850ba43b740083015f90946bed894b45159c6001dfbc5bd6257a10b9ef2202880de0b6b3a7640000801ca0e8ef8dca729529e9132cd356cbadb747b10b42aac49b4ddb774aee4ecfc0c53da0042334fc8c44a8353aafbf5c0ca4147a95541011abcdf6202c8f221fdd3d7e7d",
      "networkId": 0,
      "chainId": 0
    }
  ]
}