{
  "hash": "0xf2fe9ccffe376970efc35e9d0760525ce54b60077fdb4422ff9b12c876bccd6e",
  "parentHash": "0xb49bc249c8253cb0728e40333a775b6a4d8258e6d297b0560fdd9d9eecb1580d",
  "number": 87100,
  "timestamp": 1439587075,
  "nonce": "0x8a05d55903bb5f49",
  "difficulty": 3055693270888,
  "gasLimit": {
    "_hex": "0x2fefd8"
  },
  "gasUsed": {
    "_hex": "0x546c"
  },
  "miner": "0x157c6f2431eB1a95797EE86F7d17b3c0FD47A247",
  "extraData": "0x476574682f76312e302e312f77696e646f77732f676f312e342e32",
  "transactions": [
    {
      "hash": "0x83b22bc659a461532066826f631b5a1c6e2d96a33e876c01d7f009f4dda98e92",
      "blockHash": "0xf2fe9ccffe376970efc35e9d0760525ce54b60077fdb4422ff9b12c876bccd6e",
      "blockNumber": 87100,
      "transactionIndex": 0,
      "confirmations": null,
      "from": "0x32eB64be1B5dedE408c6BDEfbe6E405c16B7ED02",
      "gasPrice": {
        "_hex": "0x110c8f7d8de"
      },
      "gasLimit": {
        "_hex": "0xc350"
      },
      "to": "0x2910543Af39abA0Cd09dBb2D50200b3E800A63D2",
      "value": {
        "_hex": "0x6abd5d3bca78240000"
      },
      "nonce": 0,
      "data": "0x454e524a4544383047",
      "r": "0x3f412c3f168903e974f107d75aa709df73f678466bdc34816100854160c90417",
      "s": "0xeab8bcaa168e593ea22b21f565310bb7488c01af90042a4bf0fea8298ccdd51f",
      "v": 28,
      "creates": null,
      "raw": "0xf87780860110c8f7d8de82c350942910543af39aba0cd09dbb2d50200b3e800a63d2896abd5d3bca7824000089454e524a45443830471ca03f412c3f168903e974f107d75aa709df73f678466bdc34816100854160c90417a0eab8bcaa168e593ea22b21f565310bb7488c01af90042a4bf0fea8298ccdd51f",
      "networkId": 0,
      "chainId": 0
    }
  ]
}