{
  "hash": "0x589bddfe7370c78a10cc18e22754db6122f64a6b48df6c7ee3994379cdcb73ec",
  "parentHash": "0x863844cbb95e9ba61f99bd6977b8be0545fa623816648a6efdbb9fe43fc7882d",
  "number": 94951,
  "timestamp": 1439716614,
  "nonce": "0xa43d2bf7279ae986",
  "difficulty": 3512075995632,
  "gasLimit": {
    "_hex": "0x2fefd8"
  },
  "gasUsed": {
    "_hex": "0x5208"
  },
  "miner": "0x9Fa9952255B2b06639A04D63804d4BdFFf6E2d7e",
  "extraData": "0x476574682f76312e302e312f77696e646f77732f676f312e342e32",
  "transactions": [
    {
      "hash": "0xf201587f5568d8b83778a11398f92bdcb4e59c1bd3e01917353b82ceab381e22",
      "blockHash": "0x589bddfe7370c78a10cc18e22754db6122f64a6b48df6c7ee3994379cdcb73ec",
      "blockNumber": 94951,
      "transactionIndex": 0,
      "confirmations": null,
      "from": "0xcb350b1D62684c80Cf15696c28550B343A0c6444",
      "gasPrice": {
        "_hex": "0xd11c9a70d"
      },
      "gasLimit": {
        "_hex": "0x15f90"
      },
      "to": "0xD913f0771949753c4726ACAA2bD3619C5C20FF77",
      "value": {
        "_hex": "0x14ad8b1b0b550000"
      },
      "nonce": 0,
      "data": "0x",
      "r": "0xb0703d37896caacb31942f44b1b11e172624f9a0e7c031ed88b09f636a9929b2",
      "s": "0x4f8561ea2fff844a4269b493db060df711f35db988109244d83fe6063374e378",
      "v": 28,
      "creates": null,
      "raw": "0xf86d80850d11c9a70d83015f9094d913f0771949753c4726acaa2bd3619c5c20ff778814ad8b1b0b550000801ca0b0703d37896caacb31942f44b1b11e172624f9a0e7c031ed88b09f636a9929b2a04f8561ea2fff844a4269b493db060df711f35db988109244d83fe6063374e378",
      "networkId": 0,
      "chainId": 0
    }
  ]
}