{
  "hash": "0x70ac2f6cf75660c1922fbd2988f22578e3827947a6f16e242d2dbaef58ef558e",
  "parentHash": "0x2e2076d8318f0fe385953bc15992434804aafa8afcf93ea5b3da83eaf0ad5e4c",
  "number": 100701,
  "timestamp": 1439810881,
  "nonce": "0x9f35678cbd510fc1",
  "difficulty": 3835842337548,
  "gasLimit": {
    "_hex": "0x2fefd8"
  },
  "gasUsed": {
    "_hex": "0xf618"
  },
  "miner": "0x790b8a3cE86E707ED0eD32bF89B3269692a23CC1",
  "extraData": "0xd783010001844765746887676f312e342e32856c696e7578",
  "transactions": [
    {
      "hash": "0xed1c27ab3e3edbffd69ef135840794284c69cf59b7c8ebb35fb876bfc0e030d1",
      "blockHash": "0x70ac2f6cf75660c1922fbd2988f22578e3827947a6f16e242d2dbaef58ef558e",
      "blockNumber": 100701,
      "transactionIndex": 0,
      "confirmations": null,
      "from": "0x46b29910396E1cF71678f81101334A180876E9b1",
      "gasPrice": {
        "_hex": "0xde746a4f5"
      },
      "gasLimit": {
        "_hex": "0x5208"
      },
      "to": "0x32Be343B94f860124dC4fEe278FDCBD38C102D88",
      "value": {
        "_hex": "0x99f51d42d6732000"
      },
      "nonce": 5,
      "data": "0x",
      "r": "0x9b4f78d020d2e9a27e1885154a10d17e5b909c651585ca07b79dcee20154a9f3",
      "s": "0x33bc254c602f9b937f33736588679f3197d4e10640dae3029035ec7c080e086c",
      "v": 27,
      "creates": null,
      "raw": "0xf86c05850de746a4f58252089432be343b94f860124dc4fee278fdcbd38c102d888899f51d42d6732000801ba09b4f78d020d2e9a27e1885154a10d17e5b909c651585ca07b79dcee20154a9f3a033bc254c602f9b937f33736588679f3197d4e10640dae3029035ec7c080e086c",
      "networkId": 0,
      "chainId": 0
    },
    {
      "hash": "0x549f5670d114d61394108112d6e1d1ca9d38c41b6480ae14fe74209d7e341462",
      "blockHash": "0x70ac2f6cf75660c1922fbd2988f22578e3827947a6f16e242d2dbaef58ef558e",
      "blockNumber": 100701,
      "transactionIndex": 1,
      "confirmations": null,
      "from": "0x164d6C84C4D54AA3E22A5b2B72cFb968eDe862C5",
      "gasPrice": {
        "_hex": "0xde746a4f5"
      },
      "gasLimit": {
        "_hex": "0x5208"
      },
      "to": "0x32Be343B94f860124dC4fEe278FDCBD38C102D88",
      "value": {
        "_hex": "0x2633183d6e3bf6000"
      },
      "nonce": 3,
      "data": "0x",
      "r": "0x15eba30ca3fa6f02650d2c86950019aca17c069f070569c96c5a208cbc6f576a",
      "s": "0x51fc350fd705dc3e3d8bb2d4400744388c737ea11509b3c71372934724cc2e85",
      "v": 28,
      "creates": null,
      "raw": "0xf86d03850de746a4f58252089432be343b94f860124dc4fee278fdcbd38c102d888902633183d6e3bf6000801ca015eba30ca3fa6f02650d2c86950019aca17c069f070569c96c5a208cbc6f576aa051fc350fd705dc3e3d8bb2d4400744388c737ea11509b3c71372934724cc2e85",
      "networkId": 0,
      "chainId": 0
    },
    {
      "hash": "0x64092f56a1984e171938ac9091e66872eff09c6810ca541b52902f139ca68892",
      "blockHash": "0x70ac2f6cf75660c1922fbd2988f22578e3827947a6f16e242d2dbaef58ef558e",
      "blockNumber": 100701,
      "transactionIndex": 2,
      "confirmations": null,
      "from": "0x6CB5e8313a5B29aDb14AE1884D3EcE4489d02D77",
      "gasPrice": {
        "_hex": "0xde746a4f5"
      },
      "gasLimit": {
        "_hex": "0x5208"
      },
      "to": "0x32Be343B94f860124dC4fEe278FDCBD38C102D88",
      "value": {
        "_hex": "0x1b90a255a3d5b4000"
      },
      "nonce": 5,
      "data": "0x",
      "r": "0xfeb6e1e9c211548ce18b66f6e0fdee55f7c0e93e834ab5c98ae9d1bec6457055",
      "s": "0x532bc04d13cdea1405d10d830b3d6773f3b73513d7925c58271e11acbf56f55a",
      "v": 28,
      "creates": null,
      "raw": "0xf86d05850de746a4f58252089432be343b94f860124dc4fee278fdcbd38c102d888901b90a255a3d5b4000801ca0feb6e1e9c211548ce18b66f6e0fdee55f7c0e93e834ab5c98ae9d1bec6457055a0532bc04d13cdea1405d10d830b3d6773f3b73513d7925c58271e11acbf56f55a",
      "networkId": 0,
      "chainId": 0
    }
  ]
}