{
  "hash": "0xf8ce32a70443acdc81fe9ac59638cb5f75701765c74f3c79ef899aae3cfb8774",
  "parentHash": "0x7f4b75d2f6795a36c5e256f54793b6db354baec81adcd3162bdc70ce73ed3de7",
  "number": 60256,
  "timestamp": 1439152289,
  "nonce": "0x95f5f4dea1ec5b98",
  "difficulty": 1739852355719,
  "gasLimit": {
    "_hex": "0x2fefd8"
  },
  "gasUsed": {
    "_hex": "0x5208"
  },
  "miner": "0xf927a40C8B7F6E07c5af7FA2155B4864a4112B13",
  "extraData": "0x476574682f76312e302e312f6c696e75782f676f312e342e32",
  "transactions": [
    {
      "hash": "0x3a675a08fae4d59d0647089904a8b27fb6c7246ff9712d31b65343ad00ec2502",
      "blockHash": "0xf8ce32a70443acdc81fe9ac59638cb5f75701765c74f3c79ef899aae3cfb8774",
      "blockNumber": 60256,
      "transactionIndex": 0,
      "confirmations": null,
      "from": "0x42DbB395D3D789B9D56D5d1e71e795d4228C9D5C",
      "gasPrice": {
        "_hex": "0xba43b7400"
      },
      "gasLimit": {
        "_hex": "0x5b04"
      },
      "to": "0xf95b5ADd446cF4820A731613f94c50c4273B0351",
      "value": {
        "_hex": "0xa363a70724c3580000"
      },
      "nonce": 0,
      "data": "0x",
      "r": "0x6c3cff534185bcd1c0a0d59aa3c79b8f05695e5d70dabbbfa9ea3ef7f77c3d92",
      "s": "0x9c64d65b58af255179421d7b46609db539a0e19e969a0f1feab0eb8449e7e66d",
      "v": 27,
      "creates": null,
      "raw": "0xf86d80850ba43b7400825b0494f95b5add446cf4820a731613f94c50c4273b035189a363a70724c3580000801ba06c3cff534185bcd1c0a0d59aa3c79b8f05695e5d70dabbbfa9ea3ef7f77c3d92a09c64d65b58af255179421d7b46609db539a0e19e969a0f1feab0eb8449e7e66d",
      "networkId": 0,
      "chainId": 0
    }
  ]
}