{
  "hash": "0xa74d70014a9abbb5c38f44b7fce2ba19d16414d8a8a5ac1df621fb2df695c605",
  "parentHash": "0xb8c46e4a50910573fd1f3e69c9f0084c068ce7ef5d7ec4e7ce882edd239d2134",
  "number": 102119,
  "timestamp": 1439833225,
  "nonce": "0x35bb77bc63b510eb",
  "difficulty": 3895589508262,
  "gasLimit": {
    "_hex": "0x2fefd8"
  },
  "gasUsed": {
    "_hex": "0x5208"
  },
  "miner": "0xf927a40C8B7F6E07c5af7FA2155B4864a4112B13",
  "extraData": "0x",
  "transactions": [
    {
      "hash": "0xed94491cbeae46fae0d39937e5b9b7c432b1badc32f910560d937cc0e13ef4cf",
      "blockHash": "0xa74d70014a9abbb5c38f44b7fce2ba19d16414d8a8a5ac1df621fb2df695c605",
      "blockNumber": 102119,
      "transactionIndex": 0,
      "confirmations": null,
      "from": "0x32Be343B94f860124dC4fEe278FDCBD38C102D88",
      "gasPrice": {
        "_hex": "0xddc0effb6"
      },
      "gasLimit": {
        "_hex": "0x5208"
      },
      "to": "0x5F03b61cc63cA0b9E5D70A11E7CcA53447c38aE7",
      "value": {
        "_hex": "0x8679cba901890000"
      },
      "nonce": 1097,
      "data": "0x",
      "r": "0x9a581c7be6a9c345ed0b7cf8b00253800f6c6c1d6276eebe65a0176578df8f42",
      "s": "0x0d4b584c8dfbb17ece12fe7c89bf4f01d938e7318882ad0993a3b1e7cb94d0d2",
      "v": 28,
      "creates": null,
      "raw": "0xf86e820449850ddc0effb6825208945f03b61cc63ca0b9e5d70a11e7cca53447c38ae7888679cba901890000801ca09a581c7be6a9c345ed0b7cf8b00253800f6c6c1d6276eebe65a0176578df8f42a00d4b584c8dfbb17ece12fe7c89bf4f01d938e7318882ad0993a3b1e7cb94d0d2",
      "networkId": 0,
      "chainId": 0
    }
  ]
}