{
  "hash": "0xde07e4090f3b17114008247d4fbb93d74d7db81909eefa05542656e8986d5165",
  "parentHash": "0x2488debe7693c869656dd42c915d8b207111314aba93c7a442cd19d396410f54",
  "number": 71458,
  "timestamp": 1439336371,
  "nonce": "0x9a4f81ae960434af",
  "difficulty": 2179351579305,
  "gasLimit": {
    "_hex": "0x2fefd8"
  },
  "gasUsed": {
    "_hex": "0x93b2"
  },
  "miner": "0x47ff6576639c2e94762eA5443978D7681C0E78DC",
  "extraData": "0x476574682f76312e302e312f6c696e75782f676f312e342e32",
  "transactions": [
    {
      "hash": "0x61a2e3875b8679467ab46a1678bed51e05fd1751fcf1229d7428b080e787aca6",
      "blockHash": "0xde07e4090f3b17114008247d4fbb93d74d7db81909eefa05542656e8986d5165",
      "blockNumber": 71458,
      "transactionIndex": 0,
      "confirmations": null,
      "from": "0x17580B766f7453525ca4C6A88b01b50570EA088C",
      "gasPrice": {
        "_hex": "0xcb57c03c0"
      },
      "gasLimit": {
        "_hex": "0x61a80"
      },
      "to": "0x5Fe5B7546D1628f7348B023A0393de1FC825A4fD",
      "value": {
        "_hex": "0xde0b6b3a7640000"
      },
      "nonce": 196,
      "data": "0xb595b8b50000000000000000000000000000000000000000000000000000000000000000",
      "r": "0x4b2d665b85770bafa95ecce20d9478797409a5862ce57b6d840973fbfb9adc55",
      "s": "0x285b6bb4a9eeffeb316f1bc68dc5a3dae8a49a8f62ea8de71b8a79bec8864da8",
      "v": 27,
      "creates": null,
      "raw": "0xf89281c4850cb57c03c083061a80945fe5b7546d1628f7348b023a0393de1fc825a4fd880de0b6b3a7640000a4b595b8b500000000000000000000000000000000000000000000000000000000000000001ba04b2d665b85770bafa95ecce20d9478797409a5862ce57b6d840973fbfb9adc55a0285b6bb4a9eeffeb316f1bc68dc5a3dae8a49a8f62ea8de71b8a79bec8864da8",
      "networkId": 0,
      "chainId": 0
    }
  ]
}