{
  "hash": "0x434a7099a2b7c172a7118401acf609c842d95ef7ba17c80375db02e8e75b989e",
  "parentHash": "0x422cfe070fb0ed42ca57598c042e5e4dadba0419f02b76d91897cd7cffb15147",
  "number": 64524,
  "timestamp": 1439222263,
  "nonce": "0xf87fd8775de67c68",
  "difficulty": 1876603234172,
  "gasLimit": {
    "_hex": "0x2fefd8"
  },
  "gasUsed": {
    "_hex": "0x220e8"
  },
  "miner": "0xD6D327d45e2F3bddBc5DEA12815F871d4375bd25",
  "extraData": "0x476574682f76312e302e312d38326566323666362f6c696e75782f676f312e34",
  "transactions": [
    {
      "hash": "0xd5c83a0190d9c041c6695d6280a37e6e5cd966e08675d7d14e016735a777ae3b",
      "blockHash": "0x434a7099a2b7c172a7118401acf609c842d95ef7ba17c80375db02e8e75b989e",
      "blockNumber": 64524,
      "transactionIndex": 0,
      "confirmations": null,
      "from": "0x6747f922385c9a6F9cfDf095F34345257DD597bE",
      "gasPrice": {
        "_hex": "0xba43b7400"
      },
      "gasLimit": {
        "_hex": "0x5208"
      },
      "to": "0xB5512b430FC2E9F3867cB3B5B9b15D4f1f51943d",
      "value": {
        "_hex": "0x1fcbfa42bd6000"
      },
      "nonce": 8,
      "data": "0x",
      "r": "0x91831851daa04a234865745920d289a30304245f6eaaf7a6a8b9bae786df30b9",
      "s": "0x14d22978c230e80024633eb231d16898c69b9ded54854f4983e160b24b85bab1",
      "v": 28,
      "creates": null,
      "raw": "0xf86b08850ba43b740082520894b5512b430fc2e9f3867cb3b5b9b15d4f1f51943d871fcbfa42bd6000801ca091831851daa04a234865745920d289a30304245f6eaaf7a6a8b9bae786df30b9a014d22978c230e80024633eb231d16898c69b9ded54854f4983e160b24b85bab1",
      "networkId": 0,
      "chainId": 0
    },
    {
      "hash": "0x46d30f3ef5a70055ee9f80a1188a82734d02ecdea93e12ff5f6c550e84f0a80e",
      "blockHash": "0x434a7099a2b7c172a7118401acf609c842d95ef7ba17c80375db02e8e75b989e",
      "blockNumber": 64524,
      "transactionIndex": 1,
      "confirmations": null,
      "from": "0xbEF2c3a18011C3760F611296db4bb1Cb120cAE47",
      "gasPrice": {
        "_hex": "0xba43b7400"
      },
      "gasLimit": {
        "_hex": "0x15f90"
      },
      "to": "0x793AE8C1b1a160BFc07BFB0d04F85eab1A71F4f2",
      "value": {
        "_hex": "0x0"
      },
      "nonce": 0,
      "data": "0x3ba15036",
      "r": "0xee05442bc5746a68f4e9a6f8ade1ae37b5d9d5a5f634374fe8520ef2892c0a5e",
      "s": "0x1cecfefaee570b8e8306d119ab7e2d88010d2e93365e8ce200757914f87fe3fd",
      "v": 27,
      "creates": null,
      "raw": "0xf86980850ba43b740083015f9094793ae8c1b1a160bfc07bfb0d04f85eab1a71f4f280843ba150361ba0ee05442bc5746a68f4e9a6f8ade1ae37b5d9d5a5f634374fe8520ef2892c0a5ea01cecfefaee570b8e8306d119ab7e2d88010d2e93365e8ce200757914f87fe3fd",
      "networkId": 0,
      "chainId": 0
    },
    {
      "hash": "0xd54fb17f3226f1d9eb48ad7d803f4c7c6facf0895d420fbe3c0363129d9b3d9f",
      "blockHash": "0x434a7099a2b7c172a7118401acf609c842d95ef7ba17c80375db02e8e75b989e",
      "blockNumber": 64524,
      "transactionIndex": 2,
      "confirmations": null,
      "from": "0x6747f922385c9a6F9cfDf095F34345257DD597bE",
      "gasPrice": {
        "_hex": "0xba43b7400"
      },
      "gasLimit": {
        "_hex": "0x5208"
      },
      "to": "0x20a8D178f543EaFdab3638E52c6546b6Db0536c2",
      "value": {
        "_hex": "0x1fcbfa42bd6000"
      },
      "nonce": 9,
      "data": "0x",
      "r": "0x52e42f92c7e68526e568959fada3feb3d99edbfc04254b574ff4a8204b07ecd9",
      "s": "0x3ee222efcb61e1ab7c02aeb433ce5903b9c05a0867b31df1c75afa0d56c6758f",
      "v": 27,
      "creates": null,
      "raw": "0xf86b09850ba43b74008252089420a8d178f543eafdab3638e52c6546b6db0536c2871fcbfa42bd6000801ba052e42f92c7e68526e568959fada3feb3d99edbfc04254b574ff4a8204b07ecd9a03ee222efcb61e1ab7c02aeb433ce5903b9c05a0867b31df1c75afa0d56c6758f",
      "networkId": 0,
      "chainId": 0
    },
    {
      "hash": "0x6c526465ab3dfdc946f3ae68fe956384ad8ddf543f1066ece6e37a603a0734be",
      "blockHash": "0x434a7099a2b7c172a7118401acf609c842d95ef7ba17c80375db02e8e75b989e",
      "blockNumber": 64524,
      "transactionIndex": 3,
      "confirmations": null,
      "from": "0xdac32601E492EDFDdF3726F104A5CD2422c4262D",
      "gasPrice": {
        "_hex": "0xba43b7400"
      },
      "gasLimit": {
        "_hex": "0x15f90"
      },
      "to": "0x793AE8C1b1a160BFc07BFB0d04F85eab1A71F4f2",
      "value": {
        "_hex": "0x0"
      },
      "nonce": 0,
      "data": "0x3ba15036",
      "r": "0x0751aeb938ed74e1ecb29ffe00e8c2366d3a2f4e6c2ace3ec9027e0e38dad0e7",
      "s": "0x59b24f5c8ac80deb6140ea626863b9c9e19d57ff7341fbc790e14f64b806a729",
      "v": 28,
      "creates": null,
      "raw": "0xf86980850ba43b740083015f9094793ae8c1b1a160bfc07bfb0d04f85eab1a71f4f280843ba150361ca00751aeb938ed74e1ecb29ffe00e8c2366d3a2f4e6c2ace3ec9027e0e38dad0e7a059b24f5c8ac80deb6140ea626863b9c9e19d57ff7341fbc790e14f64b806a729",
      "networkId": 0,
      "chainId": 0
    }
  ]
}