{
  "hash": "0xccd824d937920a8a6fccc86e0281290e4d51c8e7dff370581264b15ad570e272",
  "parentHash": "0x68799180a06801e2df1343998a80558288625425c76e1995066b39fb1e7bc6da",
  "number": 107486,
  "timestamp": 1439923184,
  "nonce": "0x9505c7c86de0931d",
  "difficulty": 4426561955511,
  "gasLimit": {
    "_hex": "0x2fefd8"
  },
  "gasUsed": {
    "_hex": "0x5208"
  },
  "miner": "0x9746c7e1ef2bd21FF3997fa467593a89cb852BD0",
  "extraData": "0x476574682f76312e302e312f77696e646f77732f676f312e342e32",
  "transactions": [
    {
      "hash": "0xb62f276012baf40b510188986fcba98268338e37dd47bbff3559eacd529e5920",
      "blockHash": "0xccd824d937920a8a6fccc86e0281290e4d51c8e7dff370581264b15ad570e272",
      "blockNumber": 107486,
      "transactionIndex": 0,
      "confirmations": null,
      "from": "0x2910543Af39abA0Cd09dBb2D50200b3E800A63D2",
      "gasPrice": {
        "_hex": "0xdacd0e9a3"
      },
      "gasLimit": {
        "_hex": "0x5208"
      },
      "to": "0x2c64840c9fcf3d5B1a1b23B85A483DA42dA35f10",
      "value": {
        "_hex": "0xdcef33a6f838000"
      },
      "nonce": 1048,
      "data": "0x",
      "r": "0x52ec31ab7517f33368217ab4803338a413d6532bce64bcc331a9cbec082e6102",
      "s": "0x6ee3b68f4d0568f4af159b3ef4df865d3c78cc7b3ead2983d9fae3d658c14fa4",
      "v": 27,
      "creates": null,
      "raw": "0xf86e820418850dacd0e9a3825208942c64840c9fcf3d5b1a1b23b85a483da42da35f10880dcef33a6f838000801ba052ec31ab7517f33368217ab4803338a413d6532bce64bcc331a9cbec082e6102a06ee3b68f4d0568f4af159b3ef4df865d3c78cc7b3ead2983d9fae3d658c14fa4",
      "networkId": 0,
      "chainId": 0
    }
  ]
}