{
  "hash": "0x939a22ed5a794a39dd3cbdd5bfb0b16a7651f613eac6ae5a4da5a130d71754f9",
  "parentHash": "0x1669c3c58353de7cb5d3c0420518f0aba012372528d0a322472aeb7f1d38bfa9",
  "number": 48462,
  "timestamp": 1438957537,
  "nonce": "0xe35b885e20798481",
  "difficulty": 1461443940376,
  "gasLimit": {
    "_hex": "0x179ff"
  },
  "gasUsed": {
    "_hex": "0xa784"
  },
  "miner": "0x580992B51e3925e23280EfB93d3047C82f17E038",
  "extraData": "0x476574682f76312e302e312f6c696e75782f676f312e342e32",
  "transactions": [
    {
      "hash": "0x6fd112af869acb860895a29c1ee55b8edcf1c3081ce13ab2e5aa171b931746e1",
      "blockHash": "0x939a22ed5a794a39dd3cbdd5bfb0b16a7651f613eac6ae5a4da5a130d71754f9",
      "blockNumber": 48462,
      "transactionIndex": 0,
      "confirmations": null,
      "from": "0x3D0768da09CE77d25e2d998E6a7b6eD4b9116c2D",
      "gasPrice": {
        "_hex": "0xdc9b4452f"
      },
      "gasLimit": {
        "_hex": "0x15f90"
      },
      "to": "0x3D0768da09CE77d25e2d998E6a7b6eD4b9116c2D",
      "value": {
        "_hex": "0x2386f26fc10000"
      },
      "nonce": 1,
      "data": "0xdeadbeef",
      "r": "0x215b9f7c8acf059675534ef6938801dbe15d5be6987efc4afb380586a7e9d0a5",
      "s": "0x6b8e1df3265af283276f512f60832a297ccba9ed691bdaa78643337c410ac4b4",
      "v": 27,
      "creates": null,
      "raw": "0xf87001850dc9b4452f83015f90943d0768da09ce77d25e2d998e6a7b6ed4b9116c2d872386f26fc1000084deadbeef1ba0215b9f7c8acf059675534ef6938801dbe15d5be6987efc4afb380586a7e9d0a5a06b8e1df3265af283276f512f60832a297ccba9ed691bdaa78643337c410ac4b4",
      "networkId": 0,
      "chainId": 0
    },
    {
      "hash": "0x75224111f1830d7090823b9fc0af22910ef486111bdc69f4fc7b5a357b7529e9",
      "blockHash": "0x939a22ed5a794a39dd3cbdd5bfb0b16a7651f613eac6ae5a4da5a130d71754f9",
      "blockNumber": 48462,
      "transactionIndex": 1,
      "confirmations": null,
      "from": "0x0B12c5618eB8bfc23b8893780f1100D1B668639A",
      "gasPrice": {
        "_hex": "0xba43b7400"
      },
      "gasLimit": {
        "_hex": "0x55f0"
      },
      "to": "0x2910543Af39abA0Cd09dBb2D50200b3E800A63D2",
      "value": {
        "_hex": "0x10f0cf064dd59200000"
      },
      "nonce": 1,
      "data": "0x454e42374356415252",
      "r": "0x62475824cd8c033295f179674d814a3497f529cb2cd98b6536e96f890532d519",
      "s": "0x56c3fe673aba57defcfb15d3137a0503647446104c1314e13927c89ed611e9c8",
      "v": 28,
      "creates": null,
      "raw": "0xf87701850ba43b74008255f0942910543af39aba0cd09dbb2d50200b3e800a63d28a010f0cf064dd5920000089454e423743564152521ca062475824cd8c033295f179674d814a3497f529cb2cd98b6536e96f890532d519a056c3fe673aba57defcfb15d3137a0503647446104c1314e13927c89ed611e9c8",
      "networkId": 0,
      "chainId": 0
    }
  ]
}