{
  "hash": "0x0123a8cf7c2c8ed672dcd929ccf1f6ce7e0b6ba5eb7fe748e8a3b2e9b83ef858",
  "parentHash": "0xe7bc4ff0a0288c282a1ee65c47e6d6716fdcef81d48be1a4519e57e8ce989d7e",
  "number": 73766,
  "timestamp": 1439374716,
  "nonce": "0x08c638f95502ac02",
  "difficulty": 2221724082774,
  "gasLimit": {
    "_hex": "0x2fefd8"
  },
  "gasUsed": {
    "_hex": "0x5208"
  },
  "miner": "0x0037ce3d4B7f8729C8607D8D0248252Be68202c0",
  "extraData": "0x476574682f76312e302e312f77696e646f77732f676f312e342e32",
  "transactions": [
    {
      "hash": "0x627969980bc90858c05037fc4ee812afd9fa9880693d40af4b18dcaa5cde8d6d",
      "blockHash": "0x0123a8cf7c2c8ed672dcd929ccf1f6ce7e0b6ba5eb7fe748e8a3b2e9b83ef858",
      "blockNumber": 73766,
      "transactionIndex": 0,
      "confirmations": null,
      "from": "0x1543667B9bad3e41865C3233E1764d8dda8E1F3D",
      "gasPrice": {
        "_hex": "0xd8910fff1"
      },
      "gasLimit": {
        "_hex": "0x5208"
      },
      "to": "0x32Be343B94f860124dC4fEe278FDCBD38C102D88",
      "value": {
        "_hex": "0x657af1d84a3a84000"
      },
      "nonce": 6,
      "data": "0x",
      "r": "0x6897951178e4c99c39a62e4eb798289ea4045b033a97da3fa5ef90fd9d74a2f8",
      "s": "0x05a4c4bdd0de9633941a0cc6663d8d907c279ea898f613a4b43c41bc1b8abf46",
      "v": 28,
      "creates": null,
      "raw": "0xf86d06850d8910fff18252089432be343b94f860124dc4fee278fdcbd38c102d88890657af1d84a3a84000801ca06897951178e4c99c39a62e4eb798289ea4045b033a97da3fa5ef90fd9d74a2f8a005a4c4bdd0de9633941a0cc6663d8d907c279ea898f613a4b43c41bc1b8abf46",
      "networkId": 0,
      "chainId": 0
    }
  ]
}