{
  "hash": "0x99783b1fd162ce62f14d007554ca01b3e450bfb6553456f281f7303047c2d9e4",
  "parentHash": "0x897c52296f381c85aeb4472222a7a6c2ff167376a9d3e9e96f46a89c458c1319",
  "number": 120120,
  "timestamp": 1440154315,
  "nonce": "0xb2f9477b405f75a6",
  "difficulty": 4402668612074,
  "gasLimit": {
    "_hex": "0x2fefd8"
  },
  "gasUsed": {
    "_hex": "0x5208"
  },
  "miner": "0xA21Ba94e45f0E168dA824fC67aC9cb5Cb577a8aF",
  "extraData": "0x",
  "transactions": [
    {
      "hash": "0xa22d60d32dd1693780dc65cbb0eae8ad2a9537383cbc946fd1063263cce3b9af",
      "blockHash": "0x99783b1fd162ce62f14d007554ca01b3e450bfb6553456f281f7303047c2d9e4",
      "blockNumber": 120120,
      "transactionIndex": 0,
      "confirmations": null,
      "from": "0x790b8a3cE86E707ED0eD32bF89B3269692a23CC1",
      "gasPrice": {
        "_hex": "0xba43b7400"
      },
      "gasLimit": {
        "_hex": "0x15f90"
      },
      "to": "0x4D67f4F0Db45b3B5a3424B39ed8d972F710381D5",
      "value": {
        "_hex": "0x307c4b1d440560000"
      },
      "nonce": 70,
      "data": "0x",
      "r": "0x31966c08f3c4608f879263bb1a0531b3d599664d752147b763fb6f865afc4d45",
      "s": "0x0273e21e16589f4565c391ef5d8ac07a518538eca2f227c4531598a81a7de2e5",
      "v": 28,
      "creates": null,
      "raw": "0xf86e46850ba43b740083015f90944d67f4f0db45b3b5a3424b39ed8d972f710381d5890307c4b1d440560000801ca031966c08f3c4608f879263bb1a0531b3d599664d752147b763fb6f865afc4d45a00273e21e16589f4565c391ef5d8ac07a518538eca2f227c4531598a81a7de2e5",
      "networkId": 0,
      "chainId": 0
    }
  ]
}