{
  "hash": "0x6357b02df2839a1945ade3aa6373ff7757f1fee53c5358d3ef344920cba2dabe",
  "parentHash": "0x0d7a1deae9edecefa452382730761583f62be09e6f6736087a2d3d3bd0b704eb",
  "number": 94696,
  "timestamp": 1439712563,
  "nonce": "0x98aa646f9fd6fc81",
  "difficulty": 3486552736336,
  "gasLimit": {
    "_hex": "0x2fefd8"
  },
  "gasUsed": {
    "_hex": "0x5208"
  },
  "miner": "0xe6A7a1d47ff21B6321162AEA7C6CB457D5476Bca",
  "extraData": "0x476574682f76312e302e312d38326566323666362f6c696e75782f676f312e34",
  "transactions": [
    {
      "hash": "0x6dde2f3b0dfdc0cce3c44cae378f079fe4848b79081a575cb64f188d9cf453e1",
      "blockHash": "0x6357b02df2839a1945ade3aa6373ff7757f1fee53c5358d3ef344920cba2dabe",
      "blockNumber": 94696,
      "transactionIndex": 0,
      "confirmations": null,
      "from": "0x7fDF07A0f977e4032C1f082Df831423abf58D13D",
      "gasPrice": {
        "_hex": "0xdc3ac398d"
      },
      "gasLimit": {
        "_hex": "0x5208"
      },
      "to": "0x32Be343B94f860124dC4fEe278FDCBD38C102D88",
      "value": {
        "_hex": "0x2d0720663b74e000"
      },
      "nonce": 3,
      "data": "0x",
      "r": "0x2f600fc937b039e1147926de9c21aae6fe432f572c18fb9ae9059575c7204b41",
      "s": "0x276c90a9f92967f7a875f0b69955ad08cb7b33a948e45bf94b448cace6719a47",
      "v": 27,
      "creates": null,
      "raw": "0xf86c03850dc3ac398d8252089432be343b94f860124dc4fee278fdcbd38c102d88882d0720663b74e000801ba02f600fc937b039e1147926de9c21aae6fe432f572c18fb9ae9059575c7204b41a0276c90a9f92967f7a875f0b69955ad08cb7b33a948e45bf94b448cace6719a47",
      "networkId": 0,
      "chainId": 0
    }
  ]
}