{
  "hash": "0xbed8431210b82e82b72ac4377f6eaf13e8142fa02c3a29ccff71efbaa1a487d3",
  "parentHash": "0x3f91d03a5f9fcd59e91d9ed86eaa93ae392fbf44595c8e23cd70e360d33c448f",
  "number": 103687,
  "timestamp": 1439857445,
  "nonce": "0x0b89e84887a50448",
  "difficulty": 4199029453732,
  "gasLimit": {
    "_hex": "0x2fefd8"
  },
  "gasUsed": {
    "_hex": "0x5208"
  },
  "miner": "0x20c6Efe179C293690A5B3375F5bd81c2f07Ed037",
  "extraData": "0x476574682f76312e302e312d38326566323666362f6c696e75782f676f312e34",
  "transactions": [
    {
      "hash": "0x8303c95fcf240c9493d372c912a1256db7679db731187ce5cfd6e7b31246e655",
      "blockHash": "0xbed8431210b82e82b72ac4377f6eaf13e8142fa02c3a29ccff71efbaa1a487d3",
      "blockNumber": 103687,
      "transactionIndex": 0,
      "confirmations": null,
      "from": "0xa70a9a7040d542C632D8e0bE7c5513A8a5Bbc752",
      "gasPrice": {
        "_hex": "0xcf4594857"
      },
      "gasLimit": {
        "_hex": "0x5208"
      },
      "to": "0x32Be343B94f860124dC4fEe278FDCBD38C102D88",
      "value": {
        "_hex": "0x455f6ad649e79800"
      },
      "nonce": 230,
      "data": "0x",
      "r": "0xe59a2a26da4d5a53ea4ccdacd49a14a7c2738ea9ede2da2c5060ced98f38e652",
      "s": "0x4d2cf955e4b28566e9b0679fc5ef6cd6bd6262a81b61a5a73ee102b223a5119b",
      "v": 28,
      "creates": null,
      "raw": "0xf86d81e6850cf45948578252089432be343b94f860124dc4fee278fdcbd38c102d8888455f6ad649e79800801ca0e59a2a26da4d5a53ea4ccdacd49a14a7c2738ea9ede2da2c5060ced98f38e652a04d2cf955e4b28566e9b0679fc5ef6cd6bd6262a81b61a5a73ee102b223a5119b",
      "networkId": 0,
      "chainId": 0
    }
  ]
}