{
  "hash": "0xd4b41df6516ac5675e35c7cc0d4ab5b71035038b9090e68a005b60f96db64243",
  "parentHash": "0x3844001e64c6aca3a1aa15408c37a1ca2777258cd7d559a3d423d28b4bde6fc3",
  "number": 47867,
  "timestamp": 1438947623,
  "nonce": "0x29ed561d3ceaed83",
  "difficulty": 1457983724066,
  "gasLimit": {
    "_hex": "0xfdfe"
  },
  "gasUsed": {
    "_hex": "0x546c"
  },
  "miner": "0x76f84927A612Dc4D9E690AFc6275f2Ef1D78a4B0",
  "extraData": "0x476574682f76312e302e312f6c696e75782f676f312e342e32",
  "transactions": [
    {
      "hash": "0xa403234868faa0e8277beafdb7342de4c4bd1b5a0d3fa780c18492cbc40c672b",
      "blockHash": "0xd4b41df6516ac5675e35c7cc0d4ab5b71035038b9090e68a005b60f96db64243",
      "blockNumber": 47867,
      "transactionIndex": 0,
      "confirmations": null,
      "from": "0x7aBb10F5bd9BC33B8Ec1A82d64b55b6B18777541",
      "gasPrice": {
        "_hex": "0xdf8475800"
      },
      "gasLimit": {
        "_hex": "0x55f0"
      },
      "to": "0x2910543Af39abA0Cd09dBb2D50200b3E800A63D2",
      "value": {
        "_hex": "0x29a2241af62c0000"
      },
      "nonce": 3,
      "data": "0x454e34573751343547",
      "r": "0xadedbf91d1f124f08d584b451c43f851625fb887fae7d0c2136a81a5aed1313f",
      "s": "0x1a919aa02b20848034e0e44c4201c0beddfb41ac63309a8acea425cb85d15184",
      "v": 28,
      "creates": null,
      "raw": "0xf87503850df84758008255f0942910543af39aba0cd09dbb2d50200b3e800a63d28829a2241af62c000089454e345737513435471ca0adedbf91d1f124f08d584b451c43f851625fb887fae7d0c2136a81a5aed1313fa01a919aa02b20848034e0e44c4201c0beddfb41ac63309a8acea425cb85d15184",
      "networkId": 0,
      "chainId": 0
    }
  ]
}