{
  "hash": "0x0fdedee72be12cdc0516f028d1abe5ef3a1ee806169dd62822c7765da92647a6",
  "parentHash": "0x246d9990b1fe7a2d30af74f8c59558e57003766b033b502e5984decdeb264647",
  "number": 121921,
  "timestamp": 1440184956,
  "nonce": "0x2b267d97f1b2e96a",
  "difficulty": 4473224201053,
  "gasLimit": {
    "_hex": "0x2fefd8"
  },
  "gasUsed": {
    "_hex": "0x5208"
  },
  "miner": "0xD0ee3F53eE0fCf3F9fbCcdd17BD1b6441DdC2074",
  "extraData": "0x",
  "transactions": [
    {
      "hash": "0x9ff2768695fc8b9b1834e7043c2f02ada8aec33438e1ed90297baa9c39f28ebc",
      "blockHash": "0x0fdedee72be12cdc0516f028d1abe5ef3a1ee806169dd62822c7765da92647a6",
      "blockNumber": 121921,
      "transactionIndex": 0,
      "confirmations": null,
      "from": "0xe6A7a1d47ff21B6321162AEA7C6CB457D5476Bca",
      "gasPrice": {
        "_hex": "0xba43b7400"
      },
      "gasLimit": {
        "_hex": "0x55f0"
      },
      "to": "0x52524C3c4B039D2C330eD2D34973906987B21413",
      "value": {
        "_hex": "0x11dd7cb380f28114"
      },
      "nonce": 6769,
      "data": "0x",
      "r": "0x85425a20dbd1ed8c6dd399d1bc357fdee4816efcf1de1299a0b28ec4174917d0",
      "s": "0x66ba491e8ed48d5838866282676aae9571955b08c6a89d1ca0d8a51353e3edec",
      "v": 27,
      "creates": null,
      "raw": "0xf86e821a71850ba43b74008255f09452524c3c4b039d2c330ed2d34973906987b214138811dd7cb380f28114801ba085425a20dbd1ed8c6dd399d1bc357fdee4816efcf1de1299a0b28ec4174917d0a066ba491e8ed48d5838866282676aae9571955b08c6a89d1ca0d8a51353e3edec",
      "networkId": 0,
      "chainId": 0
    }
  ]
}