{
  "hash": "0x2d6b971df4d390b276de92a5b9663070eaf77aab3429860433d5d435c2227071",
  "parentHash": "0x40841ca2592a3dc64c567a81a32946b79829f79a7a94898379ba4d376fab7083",
  "number": 47774,
  "timestamp": 1438946072,
  "nonce": "0x5da14dd69ec64e27",
  "difficulty": 1453024996450,
  "gasLimit": {
    "_hex": "0xf0c8"
  },
  "gasUsed": {
    "_hex": "0xa674"
  },
  "miner": "0x123843545FB525C8E134c9A5F15ADA6865cc3848",
  "extraData": "0x476574682f76312e302e312f77696e646f77732f676f312e342e32",
  "transactions": [
    {
      "hash": "0xd16dd667412e8b958574a7ed5b4db358832eb22441d78d506a1feded6f942d7b",
      "blockHash": "0x2d6b971df4d390b276de92a5b9663070eaf77aab3429860433d5d435c2227071",
      "blockNumber": 47774,
      "transactionIndex": 0,
      "confirmations": null,
      "from": "0x23c99bA087448e19C9701Df66e0cab52368331FA",
      "gasPrice": {
        "_hex": "0x45d964b800"
      },
      "gasLimit": {
        "_hex": "0x55f0"
      },
      "to": "0x2910543Af39abA0Cd09dBb2D50200b3E800A63D2",
      "value": {
        "_hex": "0x337d1f73be72040000"
      },
      "nonce": 5,
      "data": "0x454e344e5642375a52",
      "r": "0xee5c2a8a204f40ea7df890b414f3435485e8ef5ed3df1df796ce2a0ff5d50b01",
      "s": "0x480ee9ed45fe202abe2f2c8253740e9be14e5eac332e8e56dca2f906530a8986",
      "v": 27,
      "creates": null,
      "raw": "0xf876058545d964b8008255f0942910543af39aba0cd09dbb2d50200b3e800a63d289337d1f73be7204000089454e344e5642375a521ba0ee5c2a8a204f40ea7df890b414f3435485e8ef5ed3df1df796ce2a0ff5d50b01a0480ee9ed45fe202abe2f2c8253740e9be14e5eac332e8e56dca2f906530a8986",
      "networkId": 0,
      "chainId": 0
    },
    {
      "hash": "0x8ef786fec01b037032c1cb82798ada1614758088ce3cd17d5c09e37a5ea2dd49",
      "blockHash": "0x2d6b971df4d390b276de92a5b9663070eaf77aab3429860433d5d435c2227071",
      "blockNumber": 47774,
      "transactionIndex": 1,
      "confirmations": null,
      "from": "0xe6A7a1d47ff21B6321162AEA7C6CB457D5476Bca",
      "gasPrice": {
        "_hex": "0xdf4f0482e"
      },
      "gasLimit": {
        "_hex": "0x55f0"
      },
      "to": "0x3aAE6435730f753ecF6214996ae2a55A1503F97c",
      "value": {
        "_hex": "0x4283255a7ee559c0"
      },
      "nonce": 226,
      "data": "0x",
      "r": "0x1792b48e36a7b9cd1a13b82d4c37fb608988f17a7b118129cb7b50b64ced3882",
      "s": "0x370d649aa4e89c465cd3439f71a816a50db0c96883e0f4cc41c0c2b03b3b84a1",
      "v": 28,
      "creates": null,
      "raw": "0xf86d81e2850df4f0482e8255f0943aae6435730f753ecf6214996ae2a55a1503f97c884283255a7ee559c0801ca01792b48e36a7b9cd1a13b82d4c37fb608988f17a7b118129cb7b50b64ced3882a0370d649aa4e89c465cd3439f71a816a50db0c96883e0f4cc41c0c2b03b3b84a1",
      "networkId": 0,
      "chainId": 0
    }
  ]
}