{
  "hash": "0x6931c2d00770c5e45e279fcea409d651d4bb0f135000bec5a99dbfd48e2cb553",
  "parentHash": "0xf8828ea82c0dc45c616025878bb7cb65d69111238490725dbd69df4d044fe41f",
  "number": 112694,
  "timestamp": 1440011618,
  "nonce": "0xbb26048133d5abe6",
  "difficulty": 4415182781272,
  "gasLimit": {
    "_hex": "0x2fefd8"
  },
  "gasUsed": {
    "_hex": "0x61698"
  },
  "miner": "0xbb7B8287f3F0a933474a79eAe42CBCa977791171",
  "extraData": "0xd783010001844765746887676f312e342e32856c696e7578",
  "transactions": [
    {
      "hash": "0xd210c335499353fd7afd15ca30e15bc8081742fc0edb98728565fc54bb0ccd7a",
      "blockHash": "0x6931c2d00770c5e45e279fcea409d651d4bb0f135000bec5a99dbfd48e2cb553",
      "blockNumber": 112694,
      "transactionIndex": 0,
      "confirmations": null,
      "from": "0xe6A7a1d47ff21B6321162AEA7C6CB457D5476Bca",
      "gasPrice": {
        "_hex": "0xd0ae45fc9"
      },
      "gasLimit": {
        "_hex": "0x55f0"
      },
      "to": "0x226E8B888E9F360E1Aea28229C40E2adC5D698b5",
      "value": {
        "_hex": "0xcb7cac74517fdbd0"
      },
      "nonce": 4944,
      "data": "0x",
      "r": "0x0dca5970a529a5e88d5565b06db4518197f790e750235d34083a20f91fd8bf91",
      "s": "0x6aa19c8b3a9df8d2659f49b5bd851504faba30dd945903d0d764f89d6881d0e4",
      "v": 28,
      "creates": null,
      "raw": "0xf86e821350850d0ae45fc98255f094226e8b888e9f360e1aea28229c40e2adc5d698b588cb7cac74517fdbd0801ca00dca5970a529a5e88d5565b06db4518197f790e750235d34083a20f91fd8bf91a06aa19c8b3a9df8d2659f49b5bd851504faba30dd945903d0d764f89d6881d0e4",
      "networkId": 0,
      "chainId": 0
    },
    {
      "hash": "0xf710560d46572e39e3ebd65ae618766ad224820d4958362209d3889d9ae57e91",
      "blockHash": "0x6931c2d00770c5e45e279fcea409d651d4bb0f135000bec5a99dbfd48e2cb553",
      "blockNumber": 112694,
      "transactionIndex": 1,
      "confirmations": null,
      "from": "0xe6A7a1d47ff21B6321162AEA7C6CB457D5476Bca",
      "gasPrice": {
        "_hex": "0xd0ae45fc9"
      },
      "gasLimit": {
        "_hex": "0x55f0"
      },
      "to": "0xD9a9A8ec148D2B0F7Cd8B2700013A9AA5cf89910",
      "value": {
        "_hex": "0xcc196d25d6ee4798"
      },
      "nonce": 4945,
      "data": "0x",
      "r": "0xcfadee44a2780a4f2ed1ac2d0fb1215c2dc720566efb101b4c9dd5c79fb9ea9a",
      "s": "0x26d8650c64eb1bc8d22b779aa3840a81b9b0bddf49bb7d12d18b2a0a8ab7a16a",
      "v": 27,
      "creates": null,
      "raw": "0xf86e821351850d0ae45fc98255f094d9a9a8ec148d2b0f7cd8b2700013a9aa5cf8991088cc196d25d6ee4798801ba0cfadee44a2780a4f2ed1ac2d0fb1215c2dc720566efb101b4c9dd5c79fb9ea9aa026d8650c64eb1bc8d22b779aa3840a81b9b0bddf49bb7d12d18b2a0a8ab7a16a",
      "networkId": 0,
      "chainId": 0
    },
    {
      "hash": "0xba848a1429d7a5bc25187d8659537f87d68491e754389c67fad21f7d56328fe5",
      "blockHash": "0x6931c2d00770c5e45e279fcea409d651d4bb0f135000bec5a99dbfd48e2cb553",
      "blockNumber": 112694,
      "transactionIndex": 2,
      "confirmations": null,
      "from": "0xe6A7a1d47ff21B6321162AEA7C6CB457D5476Bca",
      "gasPrice": {
        "_hex": "0xd0ae45fc9"
      },
      "gasLimit": {
        "_hex": "0x55f0"
      },
      "to": "0xe2F72eC9A4d57A125f9397267198Fbd81c86aB9A",
      "value": {
        "_hex": "0xcff987bc9b99cf10"
      },
      "nonce": 4946,
      "data": "0x",
      "r": "0xf423c1ddb3e180ed09585f973667115c48149183fbc340c9bb7871bcf6bf8199",
      "s": "0x14fb8280de7c4b9b8189bf8c3e209e5edc263e05428eea74936fa8e2dde40e24",
      "v": 28,
      "creates": null,
      "raw": "0xf86e821352850d0ae45fc98255f094e2f72ec9a4d57a125f9397267198fbd81c86ab9a88cff987bc9b99cf10801ca0f423c1ddb3e180ed09585f973667115c48149183fbc340c9bb7871bcf6bf8199a014fb8280de7c4b9b8189bf8c3e209e5edc263e05428eea74936fa8e2dde40e24",
      "networkId": 0,
      "chainId": 0
    },
    {
      "hash": "0x801ef024600f44664f15ed470d96c9ac1e7fa046a875d40d0cdc03be2b3130f2",
      "blockHash": "0x6931c2d00770c5e45e279fcea409d651d4bb0f135000bec5a99dbfd48e2cb553",
      "blockNumber": 112694,
      "transactionIndex": 3,
      "confirmations": null,
      "from": "0xe6A7a1d47ff21B6321162AEA7C6CB457D5476Bca",
      "gasPrice": {
        "_hex": "0xd0ae45fc9"
      },
      "gasLimit": {
        "_hex": "0x55f0"
      },
      "to": "0x10a3287DC19D160c0EF7dAE4e51670b0394ef951",
      "value": {
        "_hex": "0xd52d0754eaa10ba0"
      },
      "nonce": 4947,
      "data": "0x",
      "r": "0xd513a45de5922358167a85b983fd98665863f1a4f2689074fd634ff15a8aec1e",
      "s": "0x0f0dd4ad3b91636f73f78d0001165611513f618302e69e6b29f0ab5c132cd9fa",
      "v": 28,
      "creates": null,
      "raw": "0xf86e821353850d0ae45fc98255f09410a3287dc19d160c0ef7dae4e51670b0394ef95188d52d0754eaa10ba0801ca0d513a45de5922358167a85b983fd98665863f1a4f2689074fd634ff15a8aec1ea00f0dd4ad3b91636f73f78d0001165611513f618302e69e6b29f0ab5c132cd9fa",
      "networkId": 0,
      "chainId": 0
    },
    {
      "hash": "0x82b03e3916cd41ba63ae1bee79b1973d117499a4af328e9c7e0aedd5b9d617f5",
      "blockHash": "0x6931c2d00770c5e45e279fcea409d651d4bb0f135000bec5a99dbfd48e2cb553",
      "blockNumber": 112694,
      "transactionIndex": 4,
      "confirmations": null,
      "from": "0xe6A7a1d47ff21B6321162AEA7C6CB457D5476Bca",
      "gasPrice": {
        "_hex": "0xd0ae45fc9"
      },
      "gasLimit": {
        "_hex": "0x55f0"
      },
      "to": "0x2b176421eEBBf303fa94aD4fE78362Fa9e4Ca693",
      "value": {
        "_hex": "0xd973825dedd75850"
      },
      "nonce": 4948,
      "data": "0x",
      "r": "0xad55b5a387835722fc66908954627a8017a7ac96e298d65ec5ebfd5f3da201a4",
      "s": "0x3ed5d6637382853d3d29270da2044c81b4b625e85874815a3c50b2cfe99bdc12",
      "v": 27,
      "creates": null,
      "raw": "0xf86e821354850d0ae45fc98255f0942b176421eebbf303fa94ad4fe78362fa9e4ca69388d973825dedd75850801ba0ad55b5a387835722fc66908954627a8017a7ac96e298d65ec5ebfd5f3da201a4a03ed5d6637382853d3d29270da2044c81b4b625e85874815a3c50b2cfe99bdc12",
      "networkId": 0,
      "chainId": 0
    },
    {
      "hash": "0xc2f0a976b0bd751fc74860bcdb062cb355745e5591427de19a39d20ec3e821a7",
      "blockHash": "0x6931c2d00770c5e45e279fcea409d651d4bb0f135000bec5a99dbfd48e2cb553",
      "blockNumber": 112694,
      "transactionIndex": 5,
      "confirmations": null,
      "from": "0xe6A7a1d47ff21B6321162AEA7C6CB457D5476Bca",
      "gasPrice": {
        "_hex": "0xd0ae45fc9"
      },
      "gasLimit": {
        "_hex": "0x55f0"
      },
      "to": "0xf0c896DB24137eDA6Ec88cF1a95217F8604aE55e",
      "value": {
        "_hex": "0xdb193ac9be0a1e20"
      },
      "nonce": 4949,
      "data": "0x",
      "r": "0x2058d5ef074295b839530e6e62ead65c67ae1ddffb06ab0e0e853e4700c190fd",
      "s": "0x1c3d66afba88535ef55e22ef0233d4d75eae2f02910e92eb1e2040f36d85f881",
      "v": 28,
      "creates": null,
      "raw": "0xf86e821355850d0ae45fc98255f094f0c896db24137eda6ec88cf1a95217f8604ae55e88db193ac9be0a1e20801ca02058d5ef074295b839530e6e62ead65c67ae1ddffb06ab0e0e853e4700c190fda01c3d66afba88535ef55e22ef0233d4d75eae2f02910e92eb1e2040f36d85f881",
      "networkId": 0,
      "chainId": 0
    },
    {
      "hash": "0x4fca92adbcaedd29cc3d6101a2b5bc63f144f3924b248820d2bb583a149fbf57",
      "blockHash": "0x6931c2d00770c5e45e279fcea409d651d4bb0f135000bec5a99dbfd48e2cb553",
      "blockNumber": 112694,
      "transactionIndex": 6,
      "confirmations": null,
      "from": "0xe6A7a1d47ff21B6321162AEA7C6CB457D5476Bca",
      "gasPrice": {
        "_hex": "0xd0ae45fc9"
      },
      "gasLimit": {
        "_hex": "0x55f0"
      },
      "to": "0x556ca325C21e450b2aFf86D9c8eF0Fa371971c97",
      "value": {
        "_hex": "0xdd2be194c1e9a7c8"
      },
      "nonce": 4950,
      "data": "0x",
      "r": "0x3a49bd10f233c77da92e80073f0a677e4bd9ce204c87ac97d281ad8e5ead7d16",
      "s": "0x7615b19e7f10bb2dbecf20231a9ef65c1c823b085a38f9bd24256678e5b7d113",
      "v": 28,
      "creates": null,
      "raw": "0xf86e821356850d0ae45fc98255f094556ca325c21e450b2aff86d9c8ef0fa371971c9788dd2be194c1e9a7c8801ca03a49bd10f233c77da92e80073f0a677e4bd9ce204c87ac97d281ad8e5ead7d16a07615b19e7f10bb2dbecf20231a9ef65c1c823b085a38f9bd24256678e5b7d113",
      "networkId": 0,
      "chainId": 0
    },
    {
      "hash": "0x5101ce02d73a9b00c0f09a273db8d21bd01a34b0fb8b1e78e42a18aeecf633dd",
      "blockHash": "0x6931c2d00770c5e45e279fcea409d651d4bb0f135000bec5a99dbfd48e2cb553",
      "blockNumber": 112694,
      "transactionIndex": 7,
      "confirmations": null,
      "from": "0xe6A7a1d47ff21B6321162AEA7C6CB457D5476Bca",
      "gasPrice": {
        "_hex": "0xd0ae45fc9"
      },
      "gasLimit": {
        "_hex": "0x55f0"
      },
      "to": "0x6964b95BF8BA16b837e2f3Ae8dA7D299553eC1f7",
      "value": {
        "_hex": "0xdd8829cbc379c768"
      },
      "nonce": 4951,
      "data": "0x",
      "r": "0x079be7a540c6118ac2c435d5c1eb6105f5f99b978ce482751f90901567e16968",
      "s": "0x6bf0cda73fb496dfc6b8c9f6ed6abe6dd733368024ce1ad1bf955200ab5a3018",
      "v": 27,
      "creates": null,
      "raw": "0xf86e821357850d0ae45fc98255f0946964b95bf8ba16b837e2f3ae8da7d299553ec1f788dd8829cbc379c768801ba0079be7a540c6118ac2c435d5c1eb6105f5f99b978ce482751f90901567e16968a06bf0cda73fb496dfc6b8c9f6ed6abe6dd733368024ce1ad1bf955200ab5a3018",
      "networkId": 0,
      "chainId": 0
    },
    {
      "hash": "0xf209943eac4a1e02d1ce038b2637bf13277feb1d2b367f82840b77b715b7d876",
      "blockHash": "0x6931c2d00770c5e45e279fcea409d651d4bb0f135000bec5a99dbfd48e2cb553",
      "blockNumber": 112694,
      "transactionIndex": 8,
      "confirmations": null,
      "from": "0xe6A7a1d47ff21B6321162AEA7C6CB457D5476Bca",
      "gasPrice": {
        "_hex": "0xd0ae45fc9"
      },
      "gasLimit": {
        "_hex": "0x55f0"
      },
      "to": "0x19d1f826fce0c97733e0202eFCCc4A5608e8Eb6d",
      "value": {
        "_hex": "0xeba9b110aecb06a0"
      },
      "nonce": 4952,
      "data": "0x",
      "r": "0xf886fae86ee7613b8dfc190e8bb624bad33359e4a3d8828e343399b61c6a0059",
      "s": "0x231e156181af3aad409550f8b61ac90ddcef8d5290bdee2d366996b85022704b",
      "v": 27,
      "creates": null,
      "raw": "0xf86e821358850d0ae45fc98255f09419d1f826fce0c97733e0202efccc4a5608e8eb6d88eba9b110aecb06a0801ba0f886fae86ee7613b8dfc190e8bb624bad33359e4a3d8828e343399b61c6a0059a0231e156181af3aad409550f8b61ac90ddcef8d5290bdee2d366996b85022704b",
      "networkId": 0,
      "chainId": 0
    },
    {
      "hash": "0x7eb8d6071bef9bfc8beca496efb3059531ec0c3a7fdae744be3a6021af3f6a3e",
      "blockHash": "0x6931c2d00770c5e45e279fcea409d651d4bb0f135000bec5a99dbfd48e2cb553",
      "blockNumber": 112694,
      "transactionIndex": 9,
      "confirmations": null,
      "from": "0xe6A7a1d47ff21B6321162AEA7C6CB457D5476Bca",
      "gasPrice": {
        "_hex": "0xd0ae45fc9"
      },
      "gasLimit": {
        "_hex": "0x55f0"
      },
      "to": "0x701aE497d3522329870Ada714AA902424EA8Da01",
      "value": {
        "_hex": "0xec5dd6c73e3b0070"
      },
      "nonce": 4953,
      "data": "0x",
      "r": "0x761d7d9dc8844e2aef19cad740f59fb5e452297773ef17acdff515daa01e0488",
      "s": "0x65569e76fdf4c7178a45807453a1b52010b7e8f32f532f5b1a6893777c707485",
      "v": 28,
      "creates": null,
      "raw": "0xf86e821359850d0ae45fc98255f094701ae497d3522329870ada714aa902424ea8da0188ec5dd6c73e3b0070801ca0761d7d9dc8844e2aef19cad740f59fb5e452297773ef17acdff515daa01e0488a065569e76fdf4c7178a45807453a1b52010b7e8f32f532f5b1a6893777c707485",
      "networkId": 0,
      "chainId": 0
    },
    {
      "hash": "0x9f368c406ffc4e3fc88b8fb6793e1663174c98eb6a4190c064e526b3492c32c6",
      "blockHash": "0x6931c2d00770c5e45e279fcea409d651d4bb0f135000bec5a99dbfd48e2cb553",
      "blockNumber": 112694,
      "transactionIndex": 10,
      "confirmations": null,
      "from": "0xe6A7a1d47ff21B6321162AEA7C6CB457D5476Bca",
      "gasPrice": {
        "_hex": "0xd0ae45fc9"
      },
      "gasLimit": {
        "_hex": "0x55f0"
      },
      "to": "0xd121f6B6DE47879cc29a8262cA01F7B4ACE9707e",
      "value": {
        "_hex": "0xf0cd54d243074f58"
      },
      "nonce": 4954,
      "data": "0x",
      "r": "0x10d6aec021a881e07a27beeeadee960712bffdb89a7da4c1b88c9a07ada807d3",
      "s": "0x2d55ade687ae07c492717e797a3b91d3f1b3e0b4b0515503959baa8c5b4c7cf2",
      "v": 27,
      "creates": null,
      "raw": "0xf86e82135a850d0ae45fc98255f094d121f6b6de47879cc29a8262ca01f7b4ace9707e88f0cd54d243074f58801ba010d6aec021a881e07a27beeeadee960712bffdb89a7da4c1b88c9a07ada807d3a02d55ade687ae07c492717e797a3b91d3f1b3e0b4b0515503959baa8c5b4c7cf2",
      "networkId": 0,
      "chainId": 0
    },
    {
      "hash": "0x35685306f0bf0501406d46a90207e428d407521cdfbccc21bf2a3fb05b63fcd0",
      "blockHash": "0x6931c2d00770c5e45e279fcea409d651d4bb0f135000bec5a99dbfd48e2cb553",
      "blockNumber": 112694,
      "transactionIndex": 11,
      "confirmations": null,
      "from": "0xe6A7a1d47ff21B6321162AEA7C6CB457D5476Bca",
      "gasPrice": {
        "_hex": "0xd0ae45fc9"
      },
      "gasLimit": {
        "_hex": "0x55f0"
      },
      "to": "0xB5EDD17d2582A94610ebf0C6832c1652EBBBe210",
      "value": {
        "_hex": "0xf338468af6e56890"
      },
      "nonce": 4955,
      "data": "0x",
      "r": "0x6c23b1aa8e175f1b86cd3615ec6422f3c789ce938ff1908b9a524a2f2610207c",
      "s": "0x13b8000d60d12fb8e9fa55dc161232c55f08b1d760e6fb145fd2ee68b6f15e58",
      "v": 27,
      "creates": null,
      "raw": "0xf86e82135b850d0ae45fc98255f094b5edd17d2582a94610ebf0c6832c1652ebbbe21088f338468af6e56890801ba06c23b1aa8e175f1b86cd3615ec6422f3c789ce938ff1908b9a524a2f2610207ca013b8000d60d12fb8e9fa55dc161232c55f08b1d760e6fb145fd2ee68b6f15e58",
      "networkId": 0,
      "chainId": 0
    },
    {
      "hash": "0xa321229c21d6e1ff7fef333b1799d59d9c9397870a452488ac556d0372ee6d53",
      "blockHash": "0x6931c2d00770c5e45e279fcea409d651d4bb0f135000bec5a99dbfd48e2cb553",
      "blockNumber": 112694,
      "transactionIndex": 12,
      "confirmations": null,
      "from": "0xe6A7a1d47ff21B6321162AEA7C6CB457D5476Bca",
      "gasPrice": {
        "_hex": "0xd0ae45fc9"
      },
      "gasLimit": {
        "_hex": "0x55f0"
      },
      "to": "0xE921770D00ff942284b8f101b71C029ecE92DA53",
      "value": {
        "_hex": "0xf3bf1e14d5b46f98"
      },
      "nonce": 4956,
      "data": "0x",
      "r": "0x7cb66b3347bcc608ff679b06f03f7253b8a1e3be9effdba395495237409132ac",
      "s": "0x35dcefee00ea7c38fca4dabefa48669917221f56d6f7e61e5bd63711e00fe27b",
      "v": 27,
      "creates": null,
      "raw": "0xf86e82135c850d0ae45fc98255f094e921770d00ff942284b8f101b71c029ece92da5388f3bf1e14d5b46f98801ba07cb66b3347bcc608ff679b06f03f7253b8a1e3be9effdba395495237409132aca035dcefee00ea7c38fca4dabefa48669917221f56d6f7e61e5bd63711e00fe27b",
      "networkId": 0,
      "chainId": 0
    },
    {
      "hash": "0xa8e5d8bf0e6493280b065037e41a23d2fd5fa9db87d1df4070978ad2121c4946",
      "blockHash": "0x6931c2d00770c5e45e279fcea409d651d4bb0f135000bec5a99dbfd48e2cb553",
      "blockNumber": 112694,
      "transactionIndex": 13,
      "confirmations": null,
      "from": "0xe6A7a1d47ff21B6321162AEA7C6CB457D5476Bca",
      "gasPrice": {
        "_hex": "0xd0ae45fc9"
      },
      "gasLimit": {
        "_hex": "0x55f0"
      },
      "to": "0x04a6c6a293340Fc3f2244D097b0CFD84d5317bA5",
      "value": {
        "_hex": "0xf4afbd3b5ac12e18"
      },
      "nonce": 4957,
      "data": "0x",
      "r": "0x9451acdbaa8c2e32a48945a5cf827f3f68d39c4ad3d181a45a58427a326d227c",
      "s": "0x5421801b1a19232f5a9cd27bc6e57405a49ab32d975462946ef0301ce4823557",
      "v": 28,
      "creates": null,
      "raw": "0xf86e82135d850d0ae45fc98255f09404a6c6a293340fc3f2244d097b0cfd84d5317ba588f4afbd3b5ac12e18801ca09451acdbaa8c2e32a48945a5cf827f3f68d39c4ad3d181a45a58427a326d227ca05421801b1a19232f5a9cd27bc6e57405a49ab32d975462946ef0301ce4823557",
      "networkId": 0,
      "chainId": 0
    },
    {
      "hash": "0xcf18068b52707e5b77055c27a5902b807b9222a690fb591a88fe38f09d2e89db",
      "blockHash": "0x6931c2d00770c5e45e279fcea409d651d4bb0f135000bec5a99dbfd48e2cb553",
      "blockNumber": 112694,
      "transactionIndex": 14,
      "confirmations": null,
      "from": "0xe6A7a1d47ff21B6321162AEA7C6CB457D5476Bca",
      "gasPrice": {
        "_hex": "0xd0ae45fc9"
      },
      "gasLimit": {
        "_hex": "0x55f0"
      },
      "to": "0x1332996a46dcBBE02f9cF164Dfc153aB976a9766",
      "value": {
        "_hex": "0xf62280b26345d710"
      },
      "nonce": 4958,
      "data": "0x",
      "r": "0x0b756e98a39615855105c095851369f4deac9dc1e3734d60b46806019e1af483",
      "s": "0x78701726c80983197036e05f59d326d1b61bd286a777516743088b8e9d1182cb",
      "v": 28,
      "creates": null,
      "raw": "0xf86e82135e850d0ae45fc98255f0941332996a46dcbbe02f9cf164dfc153ab976a976688f62280b26345d710801ca00b756e98a39615855105c095851369f4deac9dc1e3734d60b46806019e1af483a078701726c80983197036e05f59d326d1b61bd286a777516743088b8e9d1182cb",
      "networkId": 0,
      "chainId": 0
    },
    {
      "hash": "0xe7a7ade5765935ccc29abc5281c9420a3fa612ab9a2fca73fc6d52e34f2ed29f",
      "blockHash": "0x6931c2d00770c5e45e279fcea409d651d4bb0f135000bec5a99dbfd48e2cb553",
      "blockNumber": 112694,
      "transactionIndex": 15,
      "confirmations": null,
      "from": "0xe6A7a1d47ff21B6321162AEA7C6CB457D5476Bca",
      "gasPrice": {
        "_hex": "0xd0ae45fc9"
      },
      "gasLimit": {
        "_hex": "0x55f0"
      },
      "to": "0x9cF18B3eb373C383a42d06136ba331D766ed9Fbb",
      "value": {
        "_hex": "0xfc27dd0b89afa1b8"
      },
      "nonce": 4959,
      "data": "0x",
      "r": "0xaa6d1c157ef8b26a6c1fad8664a2098d14b87cbcdd0ae0d3d67e25329cb44827",
      "s": "0x5f4e3548d2e5ff374156edcd3db1652c3df78f7de75beb4d5c1067924e1abe27",
      "v": 28,
      "creates": null,
      "raw": "0xf86e82135f850d0ae45fc98255f0949cf18b3eb373c383a42d06136ba331d766ed9fbb88fc27dd0b89afa1b8801ca0aa6d1c157ef8b26a6c1fad8664a2098d14b87cbcdd0ae0d3d67e25329cb44827a05f4e3548d2e5ff374156edcd3db1652c3df78f7de75beb4d5c1067924e1abe27",
      "networkId": 0,
      "chainId": 0
    },
    {
      "hash": "0xacd57f57ab66e8a9337d221690b0e560083765021109d6ffb6f6f6cf07ded1c6",
      "blockHash": "0x6931c2d00770c5e45e279fcea409d651d4bb0f135000bec5a99dbfd48e2cb553",
      "blockNumber": 112694,
      "transactionIndex": 16,
      "confirmations": null,
      "from": "0xe6A7a1d47ff21B6321162AEA7C6CB457D5476Bca",
      "gasPrice": {
        "_hex": "0xd0ae45fc9"
      },
      "gasLimit": {
        "_hex": "0x55f0"
      },
      "to": "0x383Ad663AFd1716301FC92d469d9985b97cfBCB0",
      "value": {
        "_hex": "0xfd53abdcff8befa0"
      },
      "nonce": 4960,
      "data": "0x",
      "r": "0x91f24020b5967d018a3c5e38a9d1ca500089e9ea1e5ae63bb38d0d989e893368",
      "s": "0x09bec7a4ccc1f0486475a7aae92c0f7a6837f9e234bdd2366f2f70a4780a71bc",
      "v": 27,
      "creates": null,
      "raw": "0xf86e821360850d0ae45fc98255f094383ad663afd1716301fc92d469d9985b97cfbcb088fd53abdcff8befa0801ba091f24020b5967d018a3c5e38a9d1ca500089e9ea1e5ae63bb38d0d989e893368a009bec7a4ccc1f0486475a7aae92c0f7a6837f9e234bdd2366f2f70a4780a71bc",
      "networkId": 0,
      "chainId": 0
    },
    {
      "hash": "0xa06af2f3ecab23265d44e7d7dd4791eb667a26a98371a936f9f300fcfa3e3ab2",
      "blockHash": "0x6931c2d00770c5e45e279fcea409d651d4bb0f135000bec5a99dbfd48e2cb553",
      "blockNumber": 112694,
      "transactionIndex": 17,
      "confirmations": null,
      "from": "0xe6A7a1d47ff21B6321162AEA7C6CB457D5476Bca",
      "gasPrice": {
        "_hex": "0xd0ae45fc9"
      },
      "gasLimit": {
        "_hex": "0x55f0"
      },
      "to": "0xa114c802ef29776f05f9c6925cE915232e8ae102",
      "value": {
        "_hex": "0x100d4f54c19225250"
      },
      "nonce": 4961,
      "data": "0x",
      "r": "0x265772c00a273dc30e39dc027d4b5c7edc6428be380f5de78eec8376c95e9d41",
      "s": "0x26b9fab2d42908e96e7aba1d28bf464ff75301302ad2970de11d81e4d0b26896",
      "v": 28,
      "creates": null,
      "raw": "0xf86f821361850d0ae45fc98255f094a114c802ef29776f05f9c6925ce915232e8ae102890100d4f54c19225250801ca0265772c00a273dc30e39dc027d4b5c7edc6428be380f5de78eec8376c95e9d41a026b9fab2d42908e96e7aba1d28bf464ff75301302ad2970de11d81e4d0b26896",
      "networkId": 0,
      "chainId": 0
    },
    {
      "hash": "0x56183772a677f83386c5eae61915c074b566fb91b14b363adb0253795d99fee7",
      "blockHash": "0x6931c2d00770c5e45e279fcea409d651d4bb0f135000bec5a99dbfd48e2cb553",
      "blockNumber": 112694,
      "transactionIndex": 18,
      "confirmations": null,
      "from": "0xe6A7a1d47ff21B6321162AEA7C6CB457D5476Bca",
      "gasPrice": {
        "_hex": "0xd0ae45fc9"
      },
      "gasLimit": {
        "_hex": "0x55f0"
      },
      "to": "0x52191276589069F70F0E46bcCc718d793d1Aa1D0",
      "value": {
        "_hex": "0x1042286981f0aa158"
      },
      "nonce": 4962,
      "data": "0x",
      "r": "0xb87b73e966bfc504cc3d9144ec428068f68d44399ac2d8f24fe6f436d5f05b58",
      "s": "0x25f01285374df6813b3a9a8a2f401750e50310ac7f523aa0c8bf892c0322bc49",
      "v": 27,
      "creates": null,
      "raw": "0xf86f821362850d0ae45fc98255f09452191276589069f70f0e46bccc718d793d1aa1d08901042286981f0aa158801ba0b87b73e966bfc504cc3d9144ec428068f68d44399ac2d8f24fe6f436d5f05b58a025f01285374df6813b3a9a8a2f401750e50310ac7f523aa0c8bf892c0322bc49",
      "networkId": 0,
      "chainId": 0
    }
  ]
}