{
  "hash": "0xdcf50fe1aa96c1bc5c79f2340a64f4b9d884f851f057c1ee827e2a4bed578898",
  "parentHash": "0x812d2bebe7ba459e79d6ae8d13f47bd0bb58b1df776d644cc3d733b9b68432c5",
  "number": 85617,
  "timestamp": 1439566222,
  "nonce": "0x45f51f454ae48378",
  "difficulty": 2789534352645,
  "gasLimit": {
    "_hex": "0x2fefd8"
  },
  "gasUsed": {
    "_hex": "0xafa7"
  },
  "miner": "0xe6A7a1d47ff21B6321162AEA7C6CB457D5476Bca",
  "extraData": "0x476574682f76312e302e312d38326566323666362f6c696e75782f676f312e34",
  "transactions": [
    {
      "hash": "0x3c8c0aa343d7bd0cd9c8408059b62b24db5e9c185c6330f5e90eab70964aa7da",
      "blockHash": "0xdcf50fe1aa96c1bc5c79f2340a64f4b9d884f851f057c1ee827e2a4bed578898",
      "blockNumber": 85617,
      "transactionIndex": 0,
      "confirmations": null,
      "from": "0x2910543Af39abA0Cd09dBb2D50200b3E800A63D2",
      "gasPrice": {
        "_hex": "0xd472ce277"
      },
      "gasLimit": {
        "_hex": "0x5208"
      },
      "to": "0xFD7c9117BbEB649d9b37B3D3C9917f7c12f526B3",
      "value": {
        "_hex": "0x1ad5b4b4aaf606ef00"
      },
      "nonce": 621,
      "data": "0x",
      "r": "0x7e22bfccbd28b35b7d9f87db7143208929d608fad5c56a14432411d54d0a64c3",
      "s": "0x5584f0355b59cceb260346a6a6bbd460de21856aa283d5bd6b29f4e41cd9f74e",
      "v": 27,
      "creates": null,
      "raw": "0xf86f82026d850d472ce27782520894fd7c9117bbeb649d9b37b3d3c9917f7c12f526b3891ad5b4b4aaf606ef00801ba07e22bfccbd28b35b7d9f87db7143208929d608fad5c56a14432411d54d0a64c3a05584f0355b59cceb260346a6a6bbd460de21856aa283d5bd6b29f4e41cd9f74e",
      "networkId": 0,
      "chainId": 0
    },
    {
      "hash": "0x1584d7dd25b4cbfa57c36031bb3066be16b03f3a6043009dbd33cd7382b48029",
      "blockHash": "0xdcf50fe1aa96c1bc5c79f2340a64f4b9d884f851f057c1ee827e2a4bed578898",
      "blockNumber": 85617,
      "transactionIndex": 1,
      "confirmations": null,
      "from": "0x02020D22dCF88f5eDd66B382D7da019F161fB7e3",
      "gasPrice": {
        "_hex": "0xcfaedcf6f"
      },
      "gasLimit": {
        "_hex": "0x15f90"
      },
      "to": "0xCAc7000C7dBaa2E33Af15325AF5D435E011C7BdD",
      "value": {
        "_hex": "0x0"
      },
      "nonce": 4,
      "data": "0xb214faa5384e53354b355737410000000000000000000000000000000000000000000000",
      "r": "0xdac3649237d3aa3b691e3d26907452a6010425b3faffa3bb4528d44b527cc39b",
      "s": "0x7d0dcede76cf890d9b1d090d4532727bb8d7542e7badadf6b557cb8ef1658421",
      "v": 28,
      "creates": null,
      "raw": "0xf88904850cfaedcf6f83015f9094cac7000c7dbaa2e33af15325af5d435e011c7bdd80a4b214faa5384e53354b3557374100000000000000000000000000000000000000000000001ca0dac3649237d3aa3b691e3d26907452a6010425b3faffa3bb4528d44b527cc39ba07d0dcede76cf890d9b1d090d4532727bb8d7542e7badadf6b557cb8ef1658421",
      "networkId": 0,
      "chainId": 0
    }
  ]
}