{
  "hash": "0xa76ea5d93866cb8f6d050562c3517a28e6d38345214cf33b9bc60f0ee09e18d4",
  "parentHash": "0x2b4cfaa9d3f63580fa8ce16b8af138c72dff66df4b77209fd34feff9935a87fd",
  "number": 90761,
  "timestamp": 1439645118,
  "nonce": "0x645d823e8f079e34",
  "difficulty": 3385824405663,
  "gasLimit": {
    "_hex": "0x2fefd8"
  },
  "gasUsed": {
    "_hex": "0x5208"
  },
  "miner": "0xe6A7a1d47ff21B6321162AEA7C6CB457D5476Bca",
  "extraData": "0x476574682f76312e302e312d38326566323666362f6c696e75782f676f312e34",
  "transactions": [
    {
      "hash": "0x227b5258fa275e347485ae611c6afe631a543db8667c6ece26a0b3927e836a8b",
      "blockHash": "0xa76ea5d93866cb8f6d050562c3517a28e6d38345214cf33b9bc60f0ee09e18d4",
      "blockNumber": 90761,
      "transactionIndex": 0,
      "confirmations": null,
      "from": "0x1D3ffA437e5bce40fCC134f4E0ac62841E4A9E81",
      "gasPrice": {
        "_hex": "0xba43b7400"
      },
      "gasLimit": {
        "_hex": "0x5208"
      },
      "to": "0xC47Aaa860008be6f65B58c6C6E02a84e666EfE31",
      "value": {
        "_hex": "0x4aecec6b8e186000"
      },
      "nonce": 7,
      "data": "0x",
      "r": "0xfaef17c9d943a3ffc4b1110708d524fddf199f2aa647a04af1909d2b3b35b170",
      "s": "0x78770944020fde9c7317afd351900fc9a92905e615de09020a55713dd4173ed0",
      "v": 28,
      "creates": null,
      "raw": "0xf86c07850ba43b740082520894c47aaa860008be6f65b58c6c6e02a84e666efe31884aecec6b8e186000801ca0faef17c9d943a3ffc4b1110708d524fddf199f2aa647a04af1909d2b3b35b170a078770944020fde9c7317afd351900fc9a92905e615de09020a55713dd4173ed0",
      "networkId": 0,
      "chainId": 0
    }
  ]
}