{
  "hash": "0x7e256b93c9feaab56bfee90a1f4e53c98368a9f814d15571c797d67ec41f8cc1",
  "parentHash": "0x0cc952a9e5dc00ea72592d85d734904329206765814c0774f55a5f6df77c490f",
  "number": 122243,
  "timestamp": 1440190651,
  "nonce": "0x6a2f25c874a8e82d",
  "difficulty": 4481797466453,
  "gasLimit": {
    "_hex": "0x2fefd8"
  },
  "gasUsed": {
    "_hex": "0x5208"
  },
  "miner": "0x52bc44d5378309EE2abF1539BF71dE1b7d7bE3b5",
  "extraData": "0xd783010002844765746887676f312e342e32856c696e7578",
  "transactions": [
    {
      "hash": "0x55f29843f8d723ccbde550e731d622a5e1f96e445f2324f25f8a1e332ca51593",
      "blockHash": "0x7e256b93c9feaab56bfee90a1f4e53c98368a9f814d15571c797d67ec41f8cc1",
      "blockNumber": 122243,
      "transactionIndex": 0,
      "confirmations": null,
      "from": "0x007f7f58D3eb5b7510A301eCC749FC1fCDDBE14D",
      "gasPrice": {
        "_hex": "0xba43b7400"
      },
      "gasLimit": {
        "_hex": "0x15f90"
      },
      "to": "0xb1abce2918E21ddb93AA452731a12672A3d9F75a",
      "value": {
        "_hex": "0x4563918244f40000"
      },
      "nonce": 390,
      "data": "0x",
      "r": "0xbc73732d7e5f7a735794678abae9ab78f847d68723eac210d17400bbb7ceb718",
      "s": "0x5721d94e615612a8aba93a9397468947468a4839ce2903a5dea879cd07e96eca",
      "v": 28,
      "creates": null,
      "raw": "0xf86f820186850ba43b740083015f9094b1abce2918e21ddb93aa452731a12672a3d9f75a884563918244f40000801ca0bc73732d7e5f7a735794678abae9ab78f847d68723eac210d17400bbb7ceb718a05721d94e615612a8aba93a9397468947468a4839ce2903a5dea879cd07e96eca",
      "networkId": 0,
      "chainId": 0
    }
  ]
}