{
  "hash": "0x1c2d80411eb29b0ac0b5ea6521e0abec16a323c5b3fefe3ca8757949f96f4cb5",
  "parentHash": "0x6f92438344b8ba39e4e346c408bf9d3889c2952a0edfb8e5a0cc56932ba6a3b8",
  "number": 63848,
  "timestamp": 1439211174,
  "nonce": "0xb6fd4d5f8dee5b96",
  "difficulty": 1853079082129,
  "gasLimit": {
    "_hex": "0x2fefd8"
  },
  "gasUsed": {
    "_hex": "0x5208"
  },
  "miner": "0x0eDEd3DA479d0beF8eeC92A76644D3f4E3C177f7",
  "extraData": "0x476574682f76312e302e312f6c696e75782f676f312e342e32",
  "transactions": [
    {
      "hash": "0x6e96bf4a3e421115950590af307a3f56513856f221ec595a1cc3ca4c128dcd3b",
      "blockHash": "0x1c2d80411eb29b0ac0b5ea6521e0abec16a323c5b3fefe3ca8757949f96f4cb5",
      "blockNumber": 63848,
      "transactionIndex": 0,
      "confirmations": null,
      "from": "0x1333a55102f1f4B3df95298b6CE863eF8d5BAf45",
      "gasPrice": {
        "_hex": "0xcddd87dd7"
      },
      "gasLimit": {
        "_hex": "0x5208"
      },
      "to": "0x32Be343B94f860124dC4fEe278FDCBD38C102D88",
      "value": {
        "_hex": "0xddc8bb80e537000"
      },
      "nonce": 1,
      "data": "0x",
      "r": "0x6f419707aa39ff43a09cd1dc6d79adbd15d3c7010f525556de15fc34e14160c6",
      "s": "0x38997dfd9410b3f43cf30610368e30858dfda7c6f17f3cee034d52fa60d8c2ce",
      "v": 28,
      "creates": null,
      "raw": "0xf86c01850cddd87dd78252089432be343b94f860124dc4fee278fdcbd38c102d88880ddc8bb80e537000801ca06f419707aa39ff43a09cd1dc6d79adbd15d3c7010f525556de15fc34e14160c6a038997dfd9410b3f43cf30610368e30858dfda7c6f17f3cee034d52fa60d8c2ce",
      "networkId": 0,
      "chainId": 0
    }
  ]
}