{
  "hash": "0xdfc5c28af9dfe13b4211a6e93f39397868d3bdc728fb5626f004b5092f48733a",
  "parentHash": "0x562059843aaa0e37cbb92d33ed3e0eba7b89cbf753ee8cd024e81697ed1d36f8",
  "number": 84393,
  "timestamp": 1439549040,
  "nonce": "0xaa5b2e9f489073c9",
  "difficulty": 2557695163055,
  "gasLimit": {
    "_hex": "0x2fefd8"
  },
  "gasUsed": {
    "_hex": "0xf618"
  },
  "miner": "0x9Fa9952255B2b06639A04D63804d4BdFFf6E2d7e",
  "extraData": "0x476574682f76312e302e312f77696e646f77732f676f312e342e32",
  "transactions": [
    {
      "hash": "0x84708c1226db7c1fa7cdaac41e2dcd8249cf5694d97de5333bfb7da0ab0c1eb1",
      "blockHash": "0xdfc5c28af9dfe13b4211a6e93f39397868d3bdc728fb5626f004b5092f48733a",
      "blockNumber": 84393,
      "transactionIndex": 0,
      "confirmations": null,
      "from": "0xabceA603089850F8f6bB612A9031554D90A247CF",
      "gasPrice": {
        "_hex": "0xdb85d7ab4"
      },
      "gasLimit": {
        "_hex": "0x5208"
      },
      "to": "0x32Be343B94f860124dC4fEe278FDCBD38C102D88",
      "value": {
        "_hex": "0x330563c7a8d43800"
      },
      "nonce": 25,
      "data": "0x",
      "r": "0xa195c443c95025747a80b83a1ce48a575f8b8ebf12ff362e2d339f3bf1cda343",
      "s": "0x386540c5da6c15362207070acf753bc5b29468a3ba296523a140b77c279b9e40",
      "v": 28,
      "creates": null,
      "raw": "0xf86c19850db85d7ab48252089432be343b94f860124dc4fee278fdcbd38c102d8888330563c7a8d43800801ca0a195c443c95025747a80b83a1ce48a575f8b8ebf12ff362e2d339f3bf1cda343a0386540c5da6c15362207070acf753bc5b29468a3ba296523a140b77c279b9e40",
      "networkId": 0,
      "chainId": 0
    },
    {
      "hash": "0xdf6f4e0528114e6c9cf681b28842f4fcfd75cf51f8b525af25847dbdcf19aee8",
      "blockHash": "0xdfc5c28af9dfe13b4211a6e93f39397868d3bdc728fb5626f004b5092f48733a",
      "blockNumber": 84393,
      "transactionIndex": 1,
      "confirmations": null,
      "from": "0xa0E74ae010D51894734c308D612131056bB721AD",
      "gasPrice": {
        "_hex": "0xdb85d7ab4"
      },
      "gasLimit": {
        "_hex": "0x5208"
      },
      "to": "0x32Be343B94f860124dC4fEe278FDCBD38C102D88",
      "value": {
        "_hex": "0x8ac2b14db39e1000"
      },
      "nonce": 5,
      "data": "0x",
      "r": "0x879840440406ea79551aeed2ec2fc629b43f2b64826646b520be81a4c6f0b18f",
      "s": "0x726268cafa7fbb2e05e60583e237a34b3c91b814896c39d7d4be0a67b5d59edf",
      "v": 28,
      "creates": null,
      "raw": "0xf86c05850db85d7ab48252089432be343b94f860124dc4fee278fdcbd38c102d88888ac2b14db39e1000801ca0879840440406ea79551aeed2ec2fc629b43f2b64826646b520be81a4c6f0b18fa0726268cafa7fbb2e05e60583e237a34b3c91b814896c39d7d4be0a67b5d59edf",
      "networkId": 0,
      "chainId": 0
    },
    {
      "hash": "0x5bba37ceaa6affba855c73a956bbd9e6129c8be6d0291e6e1bc65218a72df5fc",
      "blockHash": "0xdfc5c28af9dfe13b4211a6e93f39397868d3bdc728fb5626f004b5092f48733a",
      "blockNumber": 84393,
      "transactionIndex": 2,
      "confirmations": null,
      "from": "0xD2883586F46d3ae001F84C548013D9447051c0C3",
      "gasPrice": {
        "_hex": "0xdb85d7ab4"
      },
      "gasLimit": {
        "_hex": "0x5208"
      },
      "to": "0x32Be343B94f860124dC4fEe278FDCBD38C102D88",
      "value": {
        "_hex": "0x11fd2592c1d53800"
      },
      "nonce": 1,
      "data": "0x",
      "r": "0xaae66b06282ceabda4affc1200304e2b79c1f382ed5b6402db7bf80e6ab4b3d4",
      "s": "0x061ef0d8b170f7f2e87c2200739be9683a2612b328f9d655cd275fe775d012c3",
      "v": 27,
      "creates": null,
      "raw": "0xf86c01850db85d7ab48252089432be343b94f860124dc4fee278fdcbd38c102d888811fd2592c1d53800801ba0aae66b06282ceabda4affc1200304e2b79c1f382ed5b6402db7bf80e6ab4b3d4a0061ef0d8b170f7f2e87c2200739be9683a2612b328f9d655cd275fe775d012c3",
      "networkId": 0,
      "chainId": 0
    }
  ]
}