{
  "hash": "0xa92dbd934340f786a9ed70c94b1013ea429ebb9e0eab5df46696ead318b37f2d",
  "parentHash": "0xebf34420606cad10d47cf6bfab27b324c2b660739db534308fce18ea9b3a3fb7",
  "number": 65116,
  "timestamp": 1439231637,
  "nonce": "0x3f0be20d54896c6b",
  "difficulty": 1926606123943,
  "gasLimit": {
    "_hex": "0x2fefd8"
  },
  "gasUsed": {
    "_hex": "0xf618"
  },
  "miner": "0x1B7047b4338ACf65bE94C1A3e8c5c9338ad7d67C",
  "extraData": "0x476574682f76312e302e312d38326566323666362f6c696e75782f676f312e34",
  "transactions": [
    {
      "hash": "0x72e5ff3083b29f9b52659ce7a7142b63e0e21f924c4dd8ea5c251be2871f3daf",
      "blockHash": "0xa92dbd934340f786a9ed70c94b1013ea429ebb9e0eab5df46696ead318b37f2d",
      "blockNumber": 65116,
      "transactionIndex": 0,
      "confirmations": null,
      "from": "0xe22B20c77894463Baf774CC256D5bDDbbF7DDd09",
      "gasPrice": {
        "_hex": "0xd3d37f23a"
      },
      "gasLimit": {
        "_hex": "0x15f90"
      },
      "to": "0x845eDA2dC559f882D393FFe560a5a6989F7a46e5",
      "value": {
        "_hex": "0x4563918244f40000"
      },
      "nonce": 0,
      "data": "0x",
      "r": "0x0044893d8816bcd80dd7b8111259fea2c642ec4a6120bab4b28e957166499548",
      "s": "0x57217f9f26017ffae07846d9bcceb9487719d94b78e6c824cda1235a4b9e173a",
      "v": 28,
      "creates": null,
      "raw": "0xf86c80850d3d37f23a83015f9094845eda2dc559f882d393ffe560a5a6989f7a46e5884563918244f40000801c9f44893d8816bcd80dd7b8111259fea2c642ec4a6120bab4b28e957166499548a057217f9f26017ffae07846d9bcceb9487719d94b78e6c824cda1235a4b9e173a",
      "networkId": 0,
      "chainId": 0
    },
    {
      "hash": "0x2ea7a45c7bd3842544d5328ec98ffdedd8019b90341e24acf94804606ce1f016",
      "blockHash": "0xa92dbd934340f786a9ed70c94b1013ea429ebb9e0eab5df46696ead318b37f2d",
      "blockNumber": 65116,
      "transactionIndex": 1,
      "confirmations": null,
      "from": "0x3056B55a2ab0bd91Bbf857F21b71e2Bd35571644",
      "gasPrice": {
        "_hex": "0xba43b7400"
      },
      "gasLimit": {
        "_hex": "0x5208"
      },
      "to": "0xb9D945210D2a51023959B8fD534C7499CF9450CC",
      "value": {
        "_hex": "0x4a4aabcc0f34000"
      },
      "nonce": 1,
      "data": "0x",
      "r": "0x36799c10e7ded248c2fa0607b8252a1a0eb969c018de5c8b16ece02c0a6ae345",
      "s": "0x0e7e197dc64e80f5b0650b9ec50f640f3094f5ed3422be9e42e3dfe78233571e",
      "v": 28,
      "creates": null,
      "raw": "0xf86c01850ba43b740082520894b9d945210d2a51023959b8fd534c7499cf9450cc8804a4aabcc0f34000801ca036799c10e7ded248c2fa0607b8252a1a0eb969c018de5c8b16ece02c0a6ae345a00e7e197dc64e80f5b0650b9ec50f640f3094f5ed3422be9e42e3dfe78233571e",
      "networkId": 0,
      "chainId": 0
    },
    {
      "hash": "0xd049f98b2662e5313a4013f1411d98b52a9512ecb6b96aa622ebba0a8d3f8cb9",
      "blockHash": "0xa92dbd934340f786a9ed70c94b1013ea429ebb9e0eab5df46696ead318b37f2d",
      "blockNumber": 65116,
      "transactionIndex": 2,
      "confirmations": null,
      "from": "0xD57B6d42B9759FBb58f8420Ac79aDD1e67e727D8",
      "gasPrice": {
        "_hex": "0xba43b7400"
      },
      "gasLimit": {
        "_hex": "0x5208"
      },
      "to": "0x0260753EEe4D0F0D001Fe8ec0C0648B8094B691b",
      "value": {
        "_hex": "0x501377027350000"
      },
      "nonce": 1,
      "data": "0x",
      "r": "0x3b2ed43448a928c5cbfc8df6497531be57fe7e76d04eaffade85d370a7068499",
      "s": "0x2127187a2c6641146ccf6fb6730b87641333dc51f13f99aea8363e1799bb883c",
      "v": 28,
      "creates": null,
      "raw": "0xf86c01850ba43b7400825208940260753eee4d0f0d001fe8ec0c0648b8094b691b880501377027350000801ca03b2ed43448a928c5cbfc8df6497531be57fe7e76d04eaffade85d370a7068499a02127187a2c6641146ccf6fb6730b87641333dc51f13f99aea8363e1799bb883c",
      "networkId": 0,
      "chainId": 0
    }
  ]
}