{
  "hash": "0xe843cb0b77837cd2d1185c5745e324673c625f370dca30f5c2f99b03aca6fb80",
  "parentHash": "0x04a55660d09dd20ab154d6f27e303f7f56063fe4e8b0ef599ef0da39284df7e9",
  "number": 48458,
  "timestamp": 1438957431,
  "nonce": "0xc306c5ed0a2ed417",
  "difficulty": 1462872526485,
  "gasLimit": {
    "_hex": "0x17926"
  },
  "gasUsed": {
    "_hex": "0x546c"
  },
  "miner": "0x4705E331214F54eE19677a920BeB64e5206Fd610",
  "extraData": "0x476574682f76312e302e312f6c696e75782f676f312e342e32",
  "transactions": [
    {
      "hash": "0x08394a0daa554632662d8cc488e8704b5c7a13f28f63d576d9a685c5411aa288",
      "blockHash": "0xe843cb0b77837cd2d1185c5745e324673c625f370dca30f5c2f99b03aca6fb80",
      "blockNumber": 48458,
      "transactionIndex": 0,
      "confirmations": null,
      "from": "0xFD2605a2bF58fDbB90db1Da55dF61628B47F9e8c",
      "gasPrice": {
        "_hex": "0xcddcb30c2"
      },
      "gasLimit": {
        "_hex": "0x15f90"
      },
      "to": "0x2910543Af39abA0Cd09dBb2D50200b3E800A63D2",
      "value": {
        "_hex": "0x16345785d8a0000"
      },
      "nonce": 7,
      "data": "0x454e31514354464d38",
      "r": "0x835fce4d68092b65e130825e0f09f9360625ab02ae3128fd6301d19d739c37e4",
      "s": "0x3e4f06ef8b3d3459388a8a73dd8f1154bc68ef3fd75a627e6cc32a344249d43c",
      "v": 27,
      "creates": null,
      "raw": "0xf87607850cddcb30c283015f90942910543af39aba0cd09dbb2d50200b3e800a63d288016345785d8a000089454e31514354464d381ba0835fce4d68092b65e130825e0f09f9360625ab02ae3128fd6301d19d739c37e4a03e4f06ef8b3d3459388a8a73dd8f1154bc68ef3fd75a627e6cc32a344249d43c",
      "networkId": 0,
      "chainId": 0
    }
  ]
}