{
  "hash": "0xb8cebe884584fec0992a8f7d0157729e42100000989874fdbf304f4b3520dbbb",
  "parentHash": "0xb5fec41a87fb598af9c6cb37e9d2af4a05731ed513469b52f4af3adf30dbc5d0",
  "number": 86034,
  "timestamp": 1439572517,
  "nonce": "0xd1682347fef937ad",
  "difficulty": 2790758029862,
  "gasLimit": {
    "_hex": "0x2fefd8"
  },
  "gasUsed": {
    "_hex": "0x5208"
  },
  "miner": "0x5F8F73E26CdF436f19Cb24C82F90A15AFe55b592",
  "extraData": "0x476574682f76312e302e312f77696e646f77732f676f312e342e32",
  "transactions": [
    {
      "hash": "0x365492cadbeaaeeeb032053f72a910eee44cb4ce6364eef3444b59979e17ec04",
      "blockHash": "0xb8cebe884584fec0992a8f7d0157729e42100000989874fdbf304f4b3520dbbb",
      "blockNumber": 86034,
      "transactionIndex": 0,
      "confirmations": null,
      "from": "0x19939AD9F09d103B670c9EE56cA41d5764380f8A",
      "gasPrice": {
        "_hex": "0xba43b7400"
      },
      "gasLimit": {
        "_hex": "0x5208"
      },
      "to": "0xC47Aaa860008be6f65B58c6C6E02a84e666EfE31",
      "value": {
        "_hex": "0x141bb4591f4d38f0"
      },
      "nonce": 1,
      "data": "0x",
      "r": "0xa1196c03bceb3801fdc68636dcf24dc9106d6bc7cde1153a9d944166b962e066",
      "s": "0x7fcb4f3003b602c7dee56cdafea53497369f33411af79da82503c857590251ab",
      "v": 27,
      "creates": null,
      "raw": "0xf86c01850ba43b740082520894c47aaa860008be6f65b58c6c6e02a84e666efe3188141bb4591f4d38f0801ba0a1196c03bceb3801fdc68636dcf24dc9106d6bc7cde1153a9d944166b962e066a07fcb4f3003b602c7dee56cdafea53497369f33411af79da82503c857590251ab",
      "networkId": 0,
      "chainId": 0
    }
  ]
}