{
  "hash": "0x0b32f34a4274e8d62d4a80fbbae4bfc9f50640c8a63d910ab4ffb0dec9895edd",
  "parentHash": "0x05c8db5a8929e822933929611973508b24f5687c83886d185ff37de89d0a30e4",
  "number": 83201,
  "timestamp": 1439531766,
  "nonce": "0xb4297509720c7067",
  "difficulty": 2419557220307,
  "gasLimit": {
    "_hex": "0x2fefd8"
  },
  "gasUsed": {
    "_hex": "0x5208"
  },
  "miner": "0xe6A7a1d47ff21B6321162AEA7C6CB457D5476Bca",
  "extraData": "0x476574682f76312e302e312d38326566323666362f6c696e75782f676f312e34",
  "transactions": [
    {
      "hash": "0x15065f40e8091df7c94c8bc9d8eb818e8b357ab88909b29e357ceb87cf54eb2e",
      "blockHash": "0x0b32f34a4274e8d62d4a80fbbae4bfc9f50640c8a63d910ab4ffb0dec9895edd",
      "blockNumber": 83201,
      "transactionIndex": 0,
      "confirmations": null,
      "from": "0xF5EeDc192aB70b08D8354384aD94efD095849E00",
      "gasPrice": {
        "_hex": "0xd15022206"
      },
      "gasLimit": {
        "_hex": "0x5208"
      },
      "to": "0x32Be343B94f860124dC4fEe278FDCBD38C102D88",
      "value": {
        "_hex": "0x2b5df7df2d5058000"
      },
      "nonce": 38,
      "data": "0x",
      "r": "0x2554bcf79733bacbe6dcd18343462cae4cd9f8ac86d180eae53818cb9b6405f8",
      "s": "0x3d345340c9cf91e15119dd2e31e95175be064a2adc97ac1724715bd20bc4a5f4",
      "v": 28,
      "creates": null,
      "raw": "0xf86d26850d150222068252089432be343b94f860124dc4fee278fdcbd38c102d888902b5df7df2d5058000801ca02554bcf79733bacbe6dcd18343462cae4cd9f8ac86d180eae53818cb9b6405f8a03d345340c9cf91e15119dd2e31e95175be064a2adc97ac1724715bd20bc4a5f4",
      "networkId": 0,
      "chainId": 0
    }
  ]
}