{
  "hash": "0xf8828ea82c0dc45c616025878bb7cb65d69111238490725dbd69df4d044fe41f",
  "parentHash": "0x0f0fee9a7ec4ff4e5a1ad87b2ad91dde34f1ffb2d9b1255e10511c07793a57c7",
  "number": 112693,
  "timestamp": 1440011613,
  "nonce": "0xf089083654fd3ff5",
  "difficulty": 4413027982453,
  "gasLimit": {
    "_hex": "0x2fefd8"
  },
  "gasUsed": {
    "_hex": "0x19a28"
  },
  "miner": "0xC603Ab5ef41fC61AA8b76bEddb09e3Cfcbb174BD",
  "extraData": "0x476574682f76312e302e312f77696e646f77732f676f312e342e32",
  "transactions": [
    {
      "hash": "0x3e854f4319b3392c1b1492ef0f9119f8bde22c737db4993a43be8c243f54db4a",
      "blockHash": "0xf8828ea82c0dc45c616025878bb7cb65d69111238490725dbd69df4d044fe41f",
      "blockNumber": 112693,
      "transactionIndex": 0,
      "confirmations": null,
      "from": "0xc8b25f8890816e7F491d8EE02BA8b4548c73D3A4",
      "gasPrice": {
        "_hex": "0xd16b078a7"
      },
      "gasLimit": {
        "_hex": "0x5208"
      },
      "to": "0x32Be343B94f860124dC4fEe278FDCBD38C102D88",
      "value": {
        "_hex": "0x1a573b86cdd68d000"
      },
      "nonce": 6,
      "data": "0x",
      "r": "0x2d12741aab2e91580ff424709ecbf64fc1c1b310ec2b187f95a969ff438f46f1",
      "s": "0x4a8724607eead69529aadca4817da2ee2529cbcd9430ed55329308e765963425",
      "v": 27,
      "creates": null,
      "raw": "0xf86d06850d16b078a78252089432be343b94f860124dc4fee278fdcbd38c102d888901a573b86cdd68d000801ba02d12741aab2e91580ff424709ecbf64fc1c1b310ec2b187f95a969ff438f46f1a04a8724607eead69529aadca4817da2ee2529cbcd9430ed55329308e765963425",
      "networkId": 0,
      "chainId": 0
    },
    {
      "hash": "0xd8c1df76e02e1d07872ea2715714d8107ecdce9f0d772ac04b307c296424b77d",
      "blockHash": "0xf8828ea82c0dc45c616025878bb7cb65d69111238490725dbd69df4d044fe41f",
      "blockNumber": 112693,
      "transactionIndex": 1,
      "confirmations": null,
      "from": "0x1c69e6202df7794272b70FaEa8f7408c856B1f08",
      "gasPrice": {
        "_hex": "0xd16b078a7"
      },
      "gasLimit": {
        "_hex": "0x5208"
      },
      "to": "0x32Be343B94f860124dC4fEe278FDCBD38C102D88",
      "value": {
        "_hex": "0x22ff5a2705e6c000"
      },
      "nonce": 10,
      "data": "0x",
      "r": "0x0939ca7239f98c121bdecb3e5a2f73aba4292eca02c2275bf8a75e8417ae0211",
      "s": "0x1aae6e1cf5157822616975fdac63b98e7d7b806e95c6458deaa1464d50e480c6",
      "v": 27,
      "creates": null,
      "raw": "0xf86c0a850d16b078a78252089432be343b94f860124dc4fee278fdcbd38c102d888822ff5a2705e6c000801ba00939ca7239f98c121bdecb3e5a2f73aba4292eca02c2275bf8a75e8417ae0211a01aae6e1cf5157822616975fdac63b98e7d7b806e95c6458deaa1464d50e480c6",
      "networkId": 0,
      "chainId": 0
    },
    {
      "hash": "0x343ce45eeeb9df4de4f7d9d12869d3c3cad680c3e41f6dd06b12ddbfbf7ebc85",
      "blockHash": "0xf8828ea82c0dc45c616025878bb7cb65d69111238490725dbd69df4d044fe41f",
      "blockNumber": 112693,
      "transactionIndex": 2,
      "confirmations": null,
      "from": "0xe6A7a1d47ff21B6321162AEA7C6CB457D5476Bca",
      "gasPrice": {
        "_hex": "0xd0ae45fc9"
      },
      "gasLimit": {
        "_hex": "0x55f0"
      },
      "to": "0x1CaC89419da71AC175A5B99CEE0163720430990c",
      "value": {
        "_hex": "0xc6a3adf394bdd030"
      },
      "nonce": 4942,
      "data": "0x",
      "r": "0xe8b8ff6f64ed1808e794020a3493eaad74ae1cc48a5becd04ce203fba43dd143",
      "s": "0x106b769121e3c91c96ccb4a4340cfe6c0851836e637bc1ae3dc70c29af7f6867",
      "v": 28,
      "creates": null,
      "raw": "0xf86e82134e850d0ae45fc98255f0941cac89419da71ac175a5b99cee0163720430990c88c6a3adf394bdd030801ca0e8b8ff6f64ed1808e794020a3493eaad74ae1cc48a5becd04ce203fba43dd143a0106b769121e3c91c96ccb4a4340cfe6c0851836e637bc1ae3dc70c29af7f6867",
      "networkId": 0,
      "chainId": 0
    },
    {
      "hash": "0x37e4803b1e4f994db96cdb95b475ae803530365d719a4fafee33aae42446d497",
      "blockHash": "0xf8828ea82c0dc45c616025878bb7cb65d69111238490725dbd69df4d044fe41f",
      "blockNumber": 112693,
      "transactionIndex": 3,
      "confirmations": null,
      "from": "0xe6A7a1d47ff21B6321162AEA7C6CB457D5476Bca",
      "gasPrice": {
        "_hex": "0xd0ae45fc9"
      },
      "gasLimit": {
        "_hex": "0x55f0"
      },
      "to": "0xA338ba84d5d4734988a5Ed5CabC55ed61371e198",
      "value": {
        "_hex": "0xc906f855985cdb70"
      },
      "nonce": 4943,
      "data": "0x",
      "r": "0xf9c7f9685fb9c60be674a7bbad525252440b3e09186127e99e20dccd1e5e6949",
      "s": "0x08f4d7699a7149e11ccd92c490d66febff2af84edeba9e52c9991f7adf568f6d",
      "v": 28,
      "creates": null,
      "raw": "0xf86e82134f850d0ae45fc98255f094a338ba84d5d4734988a5ed5cabc55ed61371e19888c906f855985cdb70801ca0f9c7f9685fb9c60be674a7bbad525252440b3e09186127e99e20dccd1e5e6949a008f4d7699a7149e11ccd92c490d66febff2af84edeba9e52c9991f7adf568f6d",
      "networkId": 0,
      "chainId": 0
    },
    {
      "hash": "0x8a226b79ecbce329f297bdc3bb14d142cb9bde32d69e71e3aa22a3cc9cc74b8a",
      "blockHash": "0xf8828ea82c0dc45c616025878bb7cb65d69111238490725dbd69df4d044fe41f",
      "blockNumber": 112693,
      "transactionIndex": 4,
      "confirmations": null,
      "from": "0xB89C0F465b0472fa5A58eCDd01eD937205ae4d06",
      "gasPrice": {
        "_hex": "0xcf7e5816a"
      },
      "gasLimit": {
        "_hex": "0x5208"
      },
      "to": "0x32Be343B94f860124dC4fEe278FDCBD38C102D88",
      "value": {
        "_hex": "0x1c99685548b45800"
      },
      "nonce": 10,
      "data": "0x",
      "r": "0x05cb5477122bb3a4b2c9dfe90852444bc99a1b20545326bb90e62841f00d56b9",
      "s": "0x6d93d69df1f7c7d0d70b8bbed0565b396bc6decef11cc4e9e6d0d739334591ea",
      "v": 27,
      "creates": null,
      "raw": "0xf86c0a850cf7e5816a8252089432be343b94f860124dc4fee278fdcbd38c102d88881c99685548b45800801ba005cb5477122bb3a4b2c9dfe90852444bc99a1b20545326bb90e62841f00d56b9a06d93d69df1f7c7d0d70b8bbed0565b396bc6decef11cc4e9e6d0d739334591ea",
      "networkId": 0,
      "chainId": 0
    }
  ]
}