{
  "hash": "0xe138422e9a14fbfdf28fd31478052af85dd6ee89de87324193334078e1b458cc",
  "parentHash": "0x9ba30e95d6e2c8dca4bacb3f17a594e3fa427d0eeb5095e9616f25c2f430ac57",
  "number": 113974,
  "timestamp": 1440032792,
  "nonce": "0xfd9ffb2bf159caff",
  "difficulty": 4431787030761,
  "gasLimit": {
    "_hex": "0x2fefd8"
  },
  "gasUsed": {
    "_hex": "0x18326"
  },
  "miner": "0xe6A7a1d47ff21B6321162AEA7C6CB457D5476Bca",
  "extraData": "0x476574682f76312e302e312d38326566323666362f6c696e75782f676f312e34",
  "transactions": [
    {
      "hash": "0x3177b68facba337452e5093c11cc237e68c9c963bcc246eae105c024c2bad01c",
      "blockHash": "0xe138422e9a14fbfdf28fd31478052af85dd6ee89de87324193334078e1b458cc",
      "blockNumber": 113974,
      "transactionIndex": 0,
      "confirmations": null,
      "from": "0x3ce70f7EBbb911d5FF14BB9244ac7C9be2c669B3",
      "gasPrice": {
        "_hex": "0xd2a5fde5c"
      },
      "gasLimit": {
        "_hex": "0x249f0"
      },
      "to": "0xE28e72FCf78647ADCe1F1252F240bbfaebD63BcC",
      "value": {
        "_hex": "0xde0b6b3a7640000"
      },
      "nonce": 5,
      "data": "0x45466f3a",
      "r": "0x4355514379cdf0ee390ef57e20f30fe9c77ac9fdc558377b3d15bfd2b8c87e22",
      "s": "0x02e3f7c58f9236007e17a28e4ed2926ed1c23f5dac987275769ac4d7c698003c",
      "v": 27,
      "creates": null,
      "raw": "0xf87105850d2a5fde5c830249f094e28e72fcf78647adce1f1252f240bbfaebd63bcc880de0b6b3a76400008445466f3a1ba04355514379cdf0ee390ef57e20f30fe9c77ac9fdc558377b3d15bfd2b8c87e22a002e3f7c58f9236007e17a28e4ed2926ed1c23f5dac987275769ac4d7c698003c",
      "networkId": 0,
      "chainId": 0
    }
  ]
}