{
  "hash": "0x8286e58e4b4f969fb4fb91679cc98a9e0bfdd41bd06faf03bc031991fe8def1c",
  "parentHash": "0x7b86147e16e7db1abd76f3d0907a0e8421ef26dcb919d7cbc4547752dd418e52",
  "number": 119324,
  "timestamp": 1440140900,
  "nonce": "0x699e6a1fa7c94dcc",
  "difficulty": 4403086403782,
  "gasLimit": {
    "_hex": "0x2fefd8"
  },
  "gasUsed": {
    "_hex": "0x14820"
  },
  "miner": "0xe6A7a1d47ff21B6321162AEA7C6CB457D5476Bca",
  "extraData": "0xd783010002844765746887676f312e342e32856c696e7578",
  "transactions": [
    {
      "hash": "0xaa20c32fc70e3220d536e66042e30914606ca684bdbb9ccf35bef45fe1daf713",
      "blockHash": "0x8286e58e4b4f969fb4fb91679cc98a9e0bfdd41bd06faf03bc031991fe8def1c",
      "blockNumber": 119324,
      "transactionIndex": 0,
      "confirmations": null,
      "from": "0xe6A7a1d47ff21B6321162AEA7C6CB457D5476Bca",
      "gasPrice": {
        "_hex": "0xba43b7400"
      },
      "gasLimit": {
        "_hex": "0x55f0"
      },
      "to": "0x905364aFd546a2e96f44A41071b83C0258Bf17dA",
      "value": {
        "_hex": "0x14b7eed857b51130"
      },
      "nonce": 5951,
      "data": "0x",
      "r": "0xd27585d1db83db2c08c7f0450d4dee78c3c91a3386127086a839d3dce5bc8141",
      "s": "0x2ba2cf225a4c7c13bba7d551466138b483831c28d8f3942e70cfef4ef92fdbff",
      "v": 27,
      "creates": null,
      "raw": "0xf86e82173f850ba43b74008255f094905364afd546a2e96f44a41071b83c0258bf17da8814b7eed857b51130801ba0d27585d1db83db2c08c7f0450d4dee78c3c91a3386127086a839d3dce5bc8141a02ba2cf225a4c7c13bba7d551466138b483831c28d8f3942e70cfef4ef92fdbff",
      "networkId": 0,
      "chainId": 0
    },
    {
      "hash": "0xd68e69398833399c3948c92b6b7d893af9f39067ff4fd22f57c4eac5c726c2f1",
      "blockHash": "0x8286e58e4b4f969fb4fb91679cc98a9e0bfdd41bd06faf03bc031991fe8def1c",
      "blockNumber": 119324,
      "transactionIndex": 1,
      "confirmations": null,
      "from": "0xe6A7a1d47ff21B6321162AEA7C6CB457D5476Bca",
      "gasPrice": {
        "_hex": "0xba43b7400"
      },
      "gasLimit": {
        "_hex": "0x55f0"
      },
      "to": "0x4C84686094c69469502847D76a8190f3CD9e921c",
      "value": {
        "_hex": "0x14b85b6c8250ca14"
      },
      "nonce": 5952,
      "data": "0x",
      "r": "0x8e020934bc983a3daba50b702c655fb7d169e32cd61d791eb2221f6a090094fc",
      "s": "0x1687a0b7483d28b56f44dd63f81c62aae9cfaa4fa6199ec13a116c9e0f1a51de",
      "v": 28,
      "creates": null,
      "raw": "0xf86e821740850ba43b74008255f0944c84686094c69469502847d76a8190f3cd9e921c8814b85b6c8250ca14801ca08e020934bc983a3daba50b702c655fb7d169e32cd61d791eb2221f6a090094fca01687a0b7483d28b56f44dd63f81c62aae9cfaa4fa6199ec13a116c9e0f1a51de",
      "networkId": 0,
      "chainId": 0
    },
    {
      "hash": "0x75d2584286a07a349aa523fc092ce4c39aca67216c7e3a6269d689b99db0dc70",
      "blockHash": "0x8286e58e4b4f969fb4fb91679cc98a9e0bfdd41bd06faf03bc031991fe8def1c",
      "blockNumber": 119324,
      "transactionIndex": 2,
      "confirmations": null,
      "from": "0x05f74a38293C914C6B14a39f5d8dEa98f22E4FBA",
      "gasPrice": {
        "_hex": "0xba43b7400"
      },
      "gasLimit": {
        "_hex": "0x15f90"
      },
      "to": "0xbEB64d852Bb6731CD479E80F7139ADEa5D6A5a28",
      "value": {
        "_hex": "0xde0b6b3a7640000"
      },
      "nonce": 6,
      "data": "0x",
      "r": "0xe58cf871950e6fafdfee6408c1c950aae3ab2b90a3b15e66b4c423cbaab81c03",
      "s": "0x32ca70004a85c712e87f6a1df54dc387e21f80e8342f290a28581d296ef2b912",
      "v": 28,
      "creates": null,
      "raw": "0xf86d06850ba43b740083015f9094beb64d852bb6731cd479e80f7139adea5d6a5a28880de0b6b3a7640000801ca0e58cf871950e6fafdfee6408c1c950aae3ab2b90a3b15e66b4c423cbaab81c03a032ca70004a85c712e87f6a1df54dc387e21f80e8342f290a28581d296ef2b912",
      "networkId": 0,
      "chainId": 0
    },
    {
      "hash": "0x10ed7e2f0ed76b2fc38ce0231383ff089acf8ba4626d8db79ab789eec5990cf5",
      "blockHash": "0x8286e58e4b4f969fb4fb91679cc98a9e0bfdd41bd06faf03bc031991fe8def1c",
      "blockNumber": 119324,
      "transactionIndex": 3,
      "confirmations": null,
      "from": "0xe6A7a1d47ff21B6321162AEA7C6CB457D5476Bca",
      "gasPrice": {
        "_hex": "0xba43b7400"
      },
      "gasLimit": {
        "_hex": "0x55f0"
      },
      "to": "0xFAc1B5968b6CC27786d1A28c3E360B8c421569B9",
      "value": {
        "_hex": "0x14b8ecfad45a452c"
      },
      "nonce": 5953,
      "data": "0x",
      "r": "0x987dc2a22d4aaf54f56d1ff217519e955afa18dd6093e6335716ea470f8c424b",
      "s": "0x7f4c45b21954d613da2679686287b15189d4ec587026a5458cfc9be084a75efc",
      "v": 28,
      "creates": null,
      "raw": "0xf86e821741850ba43b74008255f094fac1b5968b6cc27786d1a28c3e360b8c421569b98814b8ecfad45a452c801ca0987dc2a22d4aaf54f56d1ff217519e955afa18dd6093e6335716ea470f8c424ba07f4c45b21954d613da2679686287b15189d4ec587026a5458cfc9be084a75efc",
      "networkId": 0,
      "chainId": 0
    }
  ]
}