{
  "hash": "0xbc3294c6e52f7cc2a59159e2d4f8b2bc9f7444098f491b05da57d5f50428f02b",
  "parentHash": "0x1fdf71f71d9ee93be5a6de649f2b73427f10d379d8a98591007699188f40b156",
  "number": 80675,
  "timestamp": 1439489020,
  "nonce": "0xec7de761b75c3ee1",
  "difficulty": 2434508905756,
  "gasLimit": {
    "_hex": "0x2fefd8"
  },
  "gasUsed": {
    "_hex": "0x19a28"
  },
  "miner": "0x98499d3218782EEB1cCd8651EEF3bAB9a8443faD",
  "extraData": "0x",
  "transactions": [
    {
      "hash": "0x8d7ac7798c238f291399ef42e5c8cc7a2df1dc9ae0ca93162c2bb6abff5e0f17",
      "blockHash": "0xbc3294c6e52f7cc2a59159e2d4f8b2bc9f7444098f491b05da57d5f50428f02b",
      "blockNumber": 80675,
      "transactionIndex": 0,
      "confirmations": null,
      "from": "0x0D4EcC7d750180EBf4A9Df728B6669B5Bceb5E40",
      "gasPrice": {
        "_hex": "0xdb46d82d4"
      },
      "gasLimit": {
        "_hex": "0x5208"
      },
      "to": "0x32Be343B94f860124dC4fEe278FDCBD38C102D88",
      "value": {
        "_hex": "0x455f2d4aa397bc00"
      },
      "nonce": 4,
      "data": "0x",
      "r": "0x266da33d57046d78d13739f88ec96351ef07aab8ccd21a30cae646bf085957a8",
      "s": "0x4c319bb84c408dfa2f6fac155793e492d6e1c79d174a47f217c6df04ac6b62f5",
      "v": 27,
      "creates": null,
      "raw": "0xf86c04850db46d82d48252089432be343b94f860124dc4fee278fdcbd38c102d8888455f2d4aa397bc00801ba0266da33d57046d78d13739f88ec96351ef07aab8ccd21a30cae646bf085957a8a04c319bb84c408dfa2f6fac155793e492d6e1c79d174a47f217c6df04ac6b62f5",
      "networkId": 0,
      "chainId": 0
    },
    {
      "hash": "0x1e0d2c14b56d93b074414918a708a78737d5bd7866ca9e4997b76ee057a5831d",
      "blockHash": "0xbc3294c6e52f7cc2a59159e2d4f8b2bc9f7444098f491b05da57d5f50428f02b",
      "blockNumber": 80675,
      "transactionIndex": 1,
      "confirmations": null,
      "from": "0x32Be343B94f860124dC4fEe278FDCBD38C102D88",
      "gasPrice": {
        "_hex": "0xd923879ad"
      },
      "gasLimit": {
        "_hex": "0x5208"
      },
      "to": "0x4d965A32023A4b9C94a3c6930805C2D515fA37d9",
      "value": {
        "_hex": "0x126855fe13a14000"
      },
      "nonce": 550,
      "data": "0x",
      "r": "0x96e535bd1954973571ad1331e776f5431da382a1a6dcaca8e097dc6c1153c5ca",
      "s": "0x5754bca24cf28e23e48c7d4cc04cf1e4fb23221f8283253bdf44933dfaa0e070",
      "v": 27,
      "creates": null,
      "raw": "0xf86e820226850d923879ad825208944d965a32023a4b9c94a3c6930805c2d515fa37d988126855fe13a14000801ba096e535bd1954973571ad1331e776f5431da382a1a6dcaca8e097dc6c1153c5caa05754bca24cf28e23e48c7d4cc04cf1e4fb23221f8283253bdf44933dfaa0e070",
      "networkId": 0,
      "chainId": 0
    },
    {
      "hash": "0xc10b69279a12b3d08f001393f83c80edcc266fb052c1d06b8c429e26bebb7780",
      "blockHash": "0xbc3294c6e52f7cc2a59159e2d4f8b2bc9f7444098f491b05da57d5f50428f02b",
      "blockNumber": 80675,
      "transactionIndex": 2,
      "confirmations": null,
      "from": "0x6dba98d348Bb505Dae50fE2c5bEa1634a6409457",
      "gasPrice": {
        "_hex": "0xba43b7400"
      },
      "gasLimit": {
        "_hex": "0x5208"
      },
      "to": "0xC47Aaa860008be6f65B58c6C6E02a84e666EfE31",
      "value": {
        "_hex": "0x375b98e400bc1dc0"
      },
      "nonce": 0,
      "data": "0x",
      "r": "0x487860141bc07637fe13aacfd47c3c102d7ef829d0a3d33a7a4291ea559a02e3",
      "s": "0x70d0fc9614d27dca7fe4a2db12ee3004e6b850580a27c86ae5db405b82bc6735",
      "v": 28,
      "creates": null,
      "raw": "0xf86c80850ba43b740082520894c47aaa860008be6f65b58c6c6e02a84e666efe3188375b98e400bc1dc0801ca0487860141bc07637fe13aacfd47c3c102d7ef829d0a3d33a7a4291ea559a02e3a070d0fc9614d27dca7fe4a2db12ee3004e6b850580a27c86ae5db405b82bc6735",
      "networkId": 0,
      "chainId": 0
    },
    {
      "hash": "0x69c2fce81a5f6596d494d9e0fcec18094bac13a0cba4b34f04caae8318d10f1f",
      "blockHash": "0xbc3294c6e52f7cc2a59159e2d4f8b2bc9f7444098f491b05da57d5f50428f02b",
      "blockNumber": 80675,
      "transactionIndex": 3,
      "confirmations": null,
      "from": "0x0724AfE96CCc39C86EfEfC5F27AAfb0C3134bce6",
      "gasPrice": {
        "_hex": "0xba43b7400"
      },
      "gasLimit": {
        "_hex": "0x5208"
      },
      "to": "0xC47Aaa860008be6f65B58c6C6E02a84e666EfE31",
      "value": {
        "_hex": "0xad7677a70295b6000"
      },
      "nonce": 2,
      "data": "0x",
      "r": "0xa1811fcbddbc776db3edc57ba96b18d71d67196ebfb6dcd84c8345961e41e924",
      "s": "0x1f6e3f7a2ebc96cf021f396095cd7f6d132d766ef0445c9751473ad3de83fe2c",
      "v": 28,
      "creates": null,
      "raw": "0xf86d02850ba43b740082520894c47aaa860008be6f65b58c6c6e02a84e666efe31890ad7677a70295b6000801ca0a1811fcbddbc776db3edc57ba96b18d71d67196ebfb6dcd84c8345961e41e924a01f6e3f7a2ebc96cf021f396095cd7f6d132d766ef0445c9751473ad3de83fe2c",
      "networkId": 0,
      "chainId": 0
    },
    {
      "hash": "0x002812bcafcc857bd6c620622d08ff749936ac6970f1d59ce27d6bd202f36501",
      "blockHash": "0xbc3294c6e52f7cc2a59159e2d4f8b2bc9f7444098f491b05da57d5f50428f02b",
      "blockNumber": 80675,
      "transactionIndex": 4,
      "confirmations": null,
      "from": "0xE54C51118A2Cc163BC4BDb7C653Ab45Fc179d928",
      "gasPrice": {
        "_hex": "0xba43b7400"
      },
      "gasLimit": {
        "_hex": "0x5208"
      },
      "to": "0xC47Aaa860008be6f65B58c6C6E02a84e666EfE31",
      "value": {
        "_hex": "0x56ba01c42c64b6000"
      },
      "nonce": 2,
      "data": "0x",
      "r": "0xb6fe48ca0c3e01f52a07e94edeae27482fbfc050b40fff65a43a3bf11d26a720",
      "s": "0x062e4e909c36d50bdec2e5b22c408c2dcf43d557565ab5cd06e65e4cc8095a6d",
      "v": 27,
      "creates": null,
      "raw": "0xf86d02850ba43b740082520894c47aaa860008be6f65b58c6c6e02a84e666efe3189056ba01c42c64b6000801ba0b6fe48ca0c3e01f52a07e94edeae27482fbfc050b40fff65a43a3bf11d26a720a0062e4e909c36d50bdec2e5b22c408c2dcf43d557565ab5cd06e65e4cc8095a6d",
      "networkId": 0,
      "chainId": 0
    }
  ]
}