{
  "hash": "0xe0cebe2c09bcfa8868009bf7c4c7c7aac56ba62c33fda21ac2c5b894ff729885",
  "parentHash": "0x093f010476751e77652857603cef61fa07925938624591ca4e7311bb46660c10",
  "number": 54354,
  "timestamp": 1439052821,
  "nonce": "0x5ec51f7b5deab0e0",
  "difficulty": 1608661169240,
  "gasLimit": {
    "_hex": "0x2fefd8"
  },
  "gasUsed": {
    "_hex": "0x5208"
  },
  "miner": "0x9DedD6eC380c0FC0058bA1c2a8035e9ba583F34F",
  "extraData": "0x",
  "transactions": [
    {
      "hash": "0xdf8ac827f86c8e730fe540fb57810409186fc3559e2645d82ff1ed6ecd7ef563",
      "blockHash": "0xe0cebe2c09bcfa8868009bf7c4c7c7aac56ba62c33fda21ac2c5b894ff729885",
      "blockNumber": 54354,
      "transactionIndex": 0,
      "confirmations": null,
      "from": "0x30FbE5885F9fCcE9Ea5EdB82Ed4a1196dd259aEd",
      "gasPrice": {
        "_hex": "0xd1faae075"
      },
      "gasLimit": {
        "_hex": "0x15f90"
      },
      "to": "0xf85787F98B727466F7A58c9424AbD404baBE6ede",
      "value": {
        "_hex": "0x3"
      },
      "nonce": 2,
      "data": "0x",
      "r": "0xc1ba6b03a58d4e0c0e193f226a1218586ab3c6e450df4af58920cbd2f233168c",
      "s": "0x3d28d2af079db884c9b8e3179052f4f7d3b0914be65adf0c6f0fd92de8fe0354",
      "v": 27,
      "creates": null,
      "raw": "0xf86502850d1faae07583015f9094f85787f98b727466f7a58c9424abd404babe6ede03801ba0c1ba6b03a58d4e0c0e193f226a1218586ab3c6e450df4af58920cbd2f233168ca03d28d2af079db884c9b8e3179052f4f7d3b0914be65adf0c6f0fd92de8fe0354",
      "networkId": 0,
      "chainId": 0
    }
  ]
}