{
  "hash": "0x14b612816e451db9a76a649550d8e8ce7bf1ab7c617ed6919d31741c3d3dcc7f",
  "parentHash": "0xc48580574959329a9f1c2084d4fdac652d82fa8de2621013d1c540f91b53c5b7",
  "number": 85065,
  "timestamp": 1439558076,
  "nonce": "0xe913fa55dc922cbd",
  "difficulty": 2717122177317,
  "gasLimit": {
    "_hex": "0x2fefd8"
  },
  "gasUsed": {
    "_hex": "0x5208"
  },
  "miner": "0xe6A7a1d47ff21B6321162AEA7C6CB457D5476Bca",
  "extraData": "0x476574682f76312e302e312d38326566323666362f6c696e75782f676f312e34",
  "transactions": [
    {
      "hash": "0x77d97fc06a6b5d3c9d2d936275df187a7ee57178a27d7c4869b23778f983892b",
      "blockHash": "0x14b612816e451db9a76a649550d8e8ce7bf1ab7c617ed6919d31741c3d3dcc7f",
      "blockNumber": 85065,
      "transactionIndex": 0,
      "confirmations": null,
      "from": "0x32Be343B94f860124dC4fEe278FDCBD38C102D88",
      "gasPrice": {
        "_hex": "0xd1f644687"
      },
      "gasLimit": {
        "_hex": "0x5208"
      },
      "to": "0xcBAc58e027A3C27C108ceC06199EBdcA862ca57e",
      "value": {
        "_hex": "0x18a43633fc99fc00"
      },
      "nonce": 721,
      "data": "0x",
      "r": "0x2979c526cb1a2051a900c3ae04ab59c82da9587e1360641824c1d1297e047e3c",
      "s": "0x113175d525fa3d33f0c5a7235c8b71b2004a2a1e04fda95857457eab95e89e13",
      "v": 28,
      "creates": null,
      "raw": "0xf86e8202d1850d1f64468782520894cbac58e027a3c27c108cec06199ebdca862ca57e8818a43633fc99fc00801ca02979c526cb1a2051a900c3ae04ab59c82da9587e1360641824c1d1297e047e3ca0113175d525fa3d33f0c5a7235c8b71b2004a2a1e04fda95857457eab95e89e13",
      "networkId": 0,
      "chainId": 0
    }
  ]
}