{
  "hash": "0x26511b8cebc1a2f0c38d9e27d5cfe4973e5120d4970c51c4eb2f700639c1c6fc",
  "parentHash": "0xfacb24fcc8390d82fa3bf43cb35ad515057ea1bd601ef9d637309a9c044456dd",
  "number": 64959,
  "timestamp": 1439229027,
  "nonce": "0x2291e37153594a4d",
  "difficulty": 1914451251971,
  "gasLimit": {
    "_hex": "0x2fefd8"
  },
  "gasUsed": {
    "_hex": "0x17cd8"
  },
  "miner": "0x2C674A948592B20a4B775E1a3991Db043E6CF0FE",
  "extraData": "0x476574682f76312e302e312d38326566323666362f6c696e75782f676f312e34",
  "transactions": [
    {
      "hash": "0xe99abe8bcf5d5b35c88707c730f9175f3ab3a7441f4ebf899a752d1047986736",
      "blockHash": "0x26511b8cebc1a2f0c38d9e27d5cfe4973e5120d4970c51c4eb2f700639c1c6fc",
      "blockNumber": 64959,
      "transactionIndex": 0,
      "confirmations": null,
      "from": "0x6D5Be066AafE397b55BB0faEcAdc113B75f58020",
      "gasPrice": {
        "_hex": "0xba43b7400"
      },
      "gasLimit": {
        "_hex": "0x15f90"
      },
      "to": "0x793AE8C1b1a160BFc07BFB0d04F85eab1A71F4f2",
      "value": {
        "_hex": "0x0"
      },
      "nonce": 0,
      "data": "0x3ba15036",
      "r": "0xa44b0545d3af5f80feae50976d3ad1f36e86e3526c4d6a432d715fc0ec97eef9",
      "s": "0x7a7f55101bacefb9e993d335695775f9a196c90f68041c252aec41cb701cfed3",
      "v": 27,
      "creates": null,
      "raw": "0xf86980850ba43b740083015f9094793ae8c1b1a160bfc07bfb0d04f85eab1a71f4f280843ba150361ba0a44b0545d3af5f80feae50976d3ad1f36e86e3526c4d6a432d715fc0ec97eef9a07a7f55101bacefb9e993d335695775f9a196c90f68041c252aec41cb701cfed3",
      "networkId": 0,
      "chainId": 0
    },
    {
      "hash": "0x2aec78bef806c74f3a2cb601b3d1e2a67ac3cffee265dbc70e3c9226fc7e6267",
      "blockHash": "0x26511b8cebc1a2f0c38d9e27d5cfe4973e5120d4970c51c4eb2f700639c1c6fc",
      "blockNumber": 64959,
      "transactionIndex": 1,
      "confirmations": null,
      "from": "0x8624961b48421B6f6cEB7E507F1A228a30618E24",
      "gasPrice": {
        "_hex": "0xba43b7400"
      },
      "gasLimit": {
        "_hex": "0x15f90"
      },
      "to": "0x793AE8C1b1a160BFc07BFB0d04F85eab1A71F4f2",
      "value": {
        "_hex": "0x0"
      },
      "nonce": 0,
      "data": "0x3ba15036",
      "r": "0xf2beab9d32791a83de9269e6ada4c8e6ac7b89652665476ce59f10c24af5f845",
      "s": "0x6d5b2afe0d02455dbba39017b55bbe29fe9f45e68650a765ba4a81c36e2f176a",
      "v": 28,
      "creates": null,
      "raw": "0xf86980850ba43b740083015f9094793ae8c1b1a160bfc07bfb0d04f85eab1a71f4f280843ba150361ca0f2beab9d32791a83de9269e6ada4c8e6ac7b89652665476ce59f10c24af5f845a06d5b2afe0d02455dbba39017b55bbe29fe9f45e68650a765ba4a81c36e2f176a",
      "networkId": 0,
      "chainId": 0
    }
  ]
}