{
  "hash": "0x2490d01de0c6b6cb9c3391db1885c076c93d2fb9db5edb3ae4b594a5f85aa30c",
  "parentHash": "0x0fcb81ba68e35f7cc00b34dfaa72d0ae2b0f59598bed7cc4322378428955e354",
  "number": 113596,
  "timestamp": 1440026366,
  "nonce": "0x87f3de4fbee1a532",
  "difficulty": 4449333043545,
  "gasLimit": {
    "_hex": "0x2fefd8"
  },
  "gasUsed": {
    "_hex": "0xa410"
  },
  "miner": "0xe6A7a1d47ff21B6321162AEA7C6CB457D5476Bca",
  "extraData": "0x476574682f76312e302e312d38326566323666362f6c696e75782f676f312e34",
  "transactions": [
    {
      "hash": "0x4705e0cafbc3c058aa04fd0c54dd728631f8d0f2b89abd3ad39bd13b750e53e7",
      "blockHash": "0x2490d01de0c6b6cb9c3391db1885c076c93d2fb9db5edb3ae4b594a5f85aa30c",
      "blockNumber": 113596,
      "transactionIndex": 0,
      "confirmations": null,
      "from": "0x32Be343B94f860124dC4fEe278FDCBD38C102D88",
      "gasPrice": {
        "_hex": "0xe0c52a88f"
      },
      "gasLimit": {
        "_hex": "0x5208"
      },
      "to": "0x120A270bbC009644e35F0bB6ab13f95b8199c4ad",
      "value": {
        "_hex": "0x14542ba12a337c00000"
      },
      "nonce": 1371,
      "data": "0x",
      "r": "0x95fd363597dd904dabc660f5bc2cce212be390cad4d7f4d96ef28e556a6524ec",
      "s": "0x0c36eb6ebb7da3a4ecf5597d141804aa86c647c03cbdde5cfb82884fd979eaac",
      "v": 27,
      "creates": null,
      "raw": "0xf87082055b850e0c52a88f82520894120a270bbc009644e35f0bb6ab13f95b8199c4ad8a014542ba12a337c00000801ba095fd363597dd904dabc660f5bc2cce212be390cad4d7f4d96ef28e556a6524eca00c36eb6ebb7da3a4ecf5597d141804aa86c647c03cbdde5cfb82884fd979eaac",
      "networkId": 0,
      "chainId": 0
    },
    {
      "hash": "0xe997633430e920361c37fac1b4e162e066a184c1e2453baee8f5e029b007bbac",
      "blockHash": "0x2490d01de0c6b6cb9c3391db1885c076c93d2fb9db5edb3ae4b594a5f85aa30c",
      "blockNumber": 113596,
      "transactionIndex": 1,
      "confirmations": null,
      "from": "0x2910543Af39abA0Cd09dBb2D50200b3E800A63D2",
      "gasPrice": {
        "_hex": "0xcd179bceb"
      },
      "gasLimit": {
        "_hex": "0x5208"
      },
      "to": "0x3120869dfC5b2e9D636fd0BFA6717C51146d5F7a",
      "value": {
        "_hex": "0x15181ff25a98000"
      },
      "nonce": 1116,
      "data": "0x",
      "r": "0x5947a2f8ed1089e560546aad3588640bb58c92c5d7e0edb86ea3c954ef0601e1",
      "s": "0x1069e45c99a823f92363fdb58d1d95a5119ad4229100ac7cf2f9b0730b38dd72",
      "v": 28,
      "creates": null,
      "raw": "0xf86e82045c850cd179bceb825208943120869dfc5b2e9d636fd0bfa6717c51146d5f7a88015181ff25a98000801ca05947a2f8ed1089e560546aad3588640bb58c92c5d7e0edb86ea3c954ef0601e1a01069e45c99a823f92363fdb58d1d95a5119ad4229100ac7cf2f9b0730b38dd72",
      "networkId": 0,
      "chainId": 0
    }
  ]
}