{
  "hash": "0xf13828e94c9eebb7397212b10ebab6655200c2917bd53d897e3d5a1e1a300e28",
  "parentHash": "0x92d449faf75ca274ef21ad6c40146d685fe8023d1bf9fe335afafffea95bc6f4",
  "number": 98680,
  "timestamp": 1439777283,
  "nonce": "0xc639f0cc7d667cc0",
  "difficulty": 3834893623643,
  "gasLimit": {
    "_hex": "0x2fefd8"
  },
  "gasUsed": {
    "_hex": "0x5208"
  },
  "miner": "0xe6A7a1d47ff21B6321162AEA7C6CB457D5476Bca",
  "extraData": "0x476574682f76312e302e312d38326566323666362f6c696e75782f676f312e34",
  "transactions": [
    {
      "hash": "0x977f8ed544108c9262740e0e1ec5bd810777510bbab95015f6fd4a0ff5640848",
      "blockHash": "0xf13828e94c9eebb7397212b10ebab6655200c2917bd53d897e3d5a1e1a300e28",
      "blockNumber": 98680,
      "transactionIndex": 0,
      "confirmations": null,
      "from": "0x32Be343B94f860124dC4fEe278FDCBD38C102D88",
      "gasPrice": {
        "_hex": "0xd6f7bf33c"
      },
      "gasLimit": {
        "_hex": "0x5208"
      },
      "to": "0x00Ab671B95627E3eE6b34CdD67577dF3882F7ae4",
      "value": {
        "_hex": "0x8aa39c121a270000"
      },
      "nonce": 1046,
      "data": "0x",
      "r": "0xc8e66c8470fad959c04a3739292f187968033c6b817ce77c4d24781de1f436e1",
      "s": "0x11219f00d858f49a0748e1a05a1033904f8094b11bc994267000c3855ef2124f",
      "v": 28,
      "creates": null,
      "raw": "0xf86e820416850d6f7bf33c8252089400ab671b95627e3ee6b34cdd67577df3882f7ae4888aa39c121a270000801ca0c8e66c8470fad959c04a3739292f187968033c6b817ce77c4d24781de1f436e1a011219f00d858f49a0748e1a05a1033904f8094b11bc994267000c3855ef2124f",
      "networkId": 0,
      "chainId": 0
    }
  ]
}