{
  "hash": "0xe3a97db4a511e50e71ba018d010668f53b315c51b55f5572a9ef475bf1002e3d",
  "parentHash": "0xc8947ead3310f98b22081688a31c7269704431f3d8b9dce2d796d946e910dc57",
  "number": 112696,
  "timestamp": 1440011637,
  "nonce": "0xbe069219de79493f",
  "difficulty": 4415181728610,
  "gasLimit": {
    "_hex": "0x2fefd8"
  },
  "gasUsed": {
    "_hex": "0x3d860"
  },
  "miner": "0xe6A7a1d47ff21B6321162AEA7C6CB457D5476Bca",
  "extraData": "0x476574682f76312e302e312d38326566323666362f6c696e75782f676f312e34",
  "transactions": [
    {
      "hash": "0x27f2a40adbed796e953dc83d92abc7a864ff8ebba08c35d7bdf98d36f47c7c9e",
      "blockHash": "0xe3a97db4a511e50e71ba018d010668f53b315c51b55f5572a9ef475bf1002e3d",
      "blockNumber": 112696,
      "transactionIndex": 0,
      "confirmations": null,
      "from": "0xBDda295a4aa9E3A60063548157510B47c6BE932f",
      "gasPrice": {
        "_hex": "0xe1bb81487"
      },
      "gasLimit": {
        "_hex": "0x5208"
      },
      "to": "0x32Be343B94f860124dC4fEe278FDCBD38C102D88",
      "value": {
        "_hex": "0x19e93c0b5b8c2800"
      },
      "nonce": 9,
      "data": "0x",
      "r": "0x9a206affca734f705fdf9253e7a1b405e9bde3f5e05a0f8a36faf244e87ad1cf",
      "s": "0x06136d5ab1231ad302f1118595e75b63410d77402fb4b538d3abbae12ee17ee3",
      "v": 28,
      "creates": null,
      "raw": "0xf86c09850e1bb814878252089432be343b94f860124dc4fee278fdcbd38c102d888819e93c0b5b8c2800801ca09a206affca734f705fdf9253e7a1b405e9bde3f5e05a0f8a36faf244e87ad1cfa006136d5ab1231ad302f1118595e75b63410d77402fb4b538d3abbae12ee17ee3",
      "networkId": 0,
      "chainId": 0
    },
    {
      "hash": "0x20209a1e6681c3aa00d49b4380202f0d509458016f105c42331ca0c20513e312",
      "blockHash": "0xe3a97db4a511e50e71ba018d010668f53b315c51b55f5572a9ef475bf1002e3d",
      "blockNumber": 112696,
      "transactionIndex": 1,
      "confirmations": null,
      "from": "0xe6A7a1d47ff21B6321162AEA7C6CB457D5476Bca",
      "gasPrice": {
        "_hex": "0xe0480a327"
      },
      "gasLimit": {
        "_hex": "0x55f0"
      },
      "to": "0x58cAfc9A3273821ec5691840ABfc256952Df94B8",
      "value": {
        "_hex": "0x111f411d1dab650e8"
      },
      "nonce": 4966,
      "data": "0x",
      "r": "0x7f573acbb4eed5ddda08fbba4715514ac67c5da2d258e73d7db8145b9e059f48",
      "s": "0x3e2cd2572d1f27aba7d5ded2b3a028d8e03f23f50b79ad8b7e7acf5a5e2f245e",
      "v": 28,
      "creates": null,
      "raw": "0xf86f821366850e0480a3278255f09458cafc9a3273821ec5691840abfc256952df94b8890111f411d1dab650e8801ca07f573acbb4eed5ddda08fbba4715514ac67c5da2d258e73d7db8145b9e059f48a03e2cd2572d1f27aba7d5ded2b3a028d8e03f23f50b79ad8b7e7acf5a5e2f245e",
      "networkId": 0,
      "chainId": 0
    },
    {
      "hash": "0x1d029699314a559589d063a3b4e2216b48e295b46ce794dc9ae95f6c8ed24975",
      "blockHash": "0xe3a97db4a511e50e71ba018d010668f53b315c51b55f5572a9ef475bf1002e3d",
      "blockNumber": 112696,
      "transactionIndex": 2,
      "confirmations": null,
      "from": "0xe6A7a1d47ff21B6321162AEA7C6CB457D5476Bca",
      "gasPrice": {
        "_hex": "0xe0480a327"
      },
      "gasLimit": {
        "_hex": "0x55f0"
      },
      "to": "0xBa9CF76D809cF9f2e3f180AFb33f0adb0826D7DF",
      "value": {
        "_hex": "0x112b7185634f56118"
      },
      "nonce": 4967,
      "data": "0x",
      "r": "0x2de16e5de39f6270ddf9b5bfa3c66a0717fddfb49466dbe42fb7cddb976a4227",
      "s": "0x4c64662752e8d39cfec86a54de4c444f2bd22cc36d0d4613368c6040c071aaa9",
      "v": 28,
      "creates": null,
      "raw": "0xf86f821367850e0480a3278255f094ba9cf76d809cf9f2e3f180afb33f0adb0826d7df890112b7185634f56118801ca02de16e5de39f6270ddf9b5bfa3c66a0717fddfb49466dbe42fb7cddb976a4227a04c64662752e8d39cfec86a54de4c444f2bd22cc36d0d4613368c6040c071aaa9",
      "networkId": 0,
      "chainId": 0
    },
    {
      "hash": "0x833c9c8bb058a222adacecd4a8bb29718d76e6b870e1db9f6195dbe59cbf14d4",
      "blockHash": "0xe3a97db4a511e50e71ba018d010668f53b315c51b55f5572a9ef475bf1002e3d",
      "blockNumber": 112696,
      "transactionIndex": 3,
      "confirmations": null,
      "from": "0xe6A7a1d47ff21B6321162AEA7C6CB457D5476Bca",
      "gasPrice": {
        "_hex": "0xe0480a327"
      },
      "gasLimit": {
        "_hex": "0x55f0"
      },
      "to": "0x5248EfBC7319bd65d436374266765D9727253F12",
      "value": {
        "_hex": "0x113925349c9b5e020"
      },
      "nonce": 4968,
      "data": "0x",
      "r": "0x65c1f420e118d81bd75cf902a644b6498733aa4a26c9e21a353f2c498d4b0cbc",
      "s": "0x649c32a70f123940ee99629a8d896f8a4c4a50759d6327f389238fbee2faa848",
      "v": 27,
      "creates": null,
      "raw": "0xf86f821368850e0480a3278255f0945248efbc7319bd65d436374266765d9727253f12890113925349c9b5e020801ba065c1f420e118d81bd75cf902a644b6498733aa4a26c9e21a353f2c498d4b0cbca0649c32a70f123940ee99629a8d896f8a4c4a50759d6327f389238fbee2faa848",
      "networkId": 0,
      "chainId": 0
    },
    {
      "hash": "0xd23343780f5966868183aebe6603e84782e0021cadf808661f99bdc9f206e722",
      "blockHash": "0xe3a97db4a511e50e71ba018d010668f53b315c51b55f5572a9ef475bf1002e3d",
      "blockNumber": 112696,
      "transactionIndex": 4,
      "confirmations": null,
      "from": "0xe6A7a1d47ff21B6321162AEA7C6CB457D5476Bca",
      "gasPrice": {
        "_hex": "0xe0480a327"
      },
      "gasLimit": {
        "_hex": "0x55f0"
      },
      "to": "0x06BcFDb20583cc822f2031724E36F3678BBCa6E9",
      "value": {
        "_hex": "0x119d1d905e24fce70"
      },
      "nonce": 4969,
      "data": "0x",
      "r": "0x9691beddd875dbc518ecc58a33f3f0892451b862d7dfee3d736aa251a2da53ab",
      "s": "0x17f888e29fd8345c69bf4b31ca7311152f89ceb64cd6ef962de8cc9b6db26d3b",
      "v": 28,
      "creates": null,
      "raw": "0xf86f821369850e0480a3278255f09406bcfdb20583cc822f2031724e36f3678bbca6e9890119d1d905e24fce70801ca09691beddd875dbc518ecc58a33f3f0892451b862d7dfee3d736aa251a2da53aba017f888e29fd8345c69bf4b31ca7311152f89ceb64cd6ef962de8cc9b6db26d3b",
      "networkId": 0,
      "chainId": 0
    },
    {
      "hash": "0xdff7ceac034be6b589daa70eb577d40dd98e6d05880c95554125c3da035b4dc4",
      "blockHash": "0xe3a97db4a511e50e71ba018d010668f53b315c51b55f5572a9ef475bf1002e3d",
      "blockNumber": 112696,
      "transactionIndex": 5,
      "confirmations": null,
      "from": "0xe6A7a1d47ff21B6321162AEA7C6CB457D5476Bca",
      "gasPrice": {
        "_hex": "0xe0480a327"
      },
      "gasLimit": {
        "_hex": "0x55f0"
      },
      "to": "0x51c6a5F0248d9a4f7CA205080e2BA8b0962Fd8ea",
      "value": {
        "_hex": "0x119ec6e4dfb26b560"
      },
      "nonce": 4970,
      "data": "0x",
      "r": "0x3d2ebc65ab2f918bb309412c097383fcc5593ee74fcf27a4a0d7f473b2bb1ab8",
      "s": "0x3d184883493adaff465c6f5b60047759c3814922db365748364dcadcafc5c1d3",
      "v": 28,
      "creates": null,
      "raw": "0xf86f82136a850e0480a3278255f09451c6a5f0248d9a4f7ca205080e2ba8b0962fd8ea890119ec6e4dfb26b560801ca03d2ebc65ab2f918bb309412c097383fcc5593ee74fcf27a4a0d7f473b2bb1ab8a03d184883493adaff465c6f5b60047759c3814922db365748364dcadcafc5c1d3",
      "networkId": 0,
      "chainId": 0
    },
    {
      "hash": "0x72d4a1e57d6f77c0fd901fa2344f07e9dd14e84a610487c181945a5072385aa9",
      "blockHash": "0xe3a97db4a511e50e71ba018d010668f53b315c51b55f5572a9ef475bf1002e3d",
      "blockNumber": 112696,
      "transactionIndex": 6,
      "confirmations": null,
      "from": "0xe6A7a1d47ff21B6321162AEA7C6CB457D5476Bca",
      "gasPrice": {
        "_hex": "0xe0480a327"
      },
      "gasLimit": {
        "_hex": "0x55f0"
      },
      "to": "0xc0920452d99591a4e8b190632c52754c72F73328",
      "value": {
        "_hex": "0x11e382e92f74d0fc0"
      },
      "nonce": 4971,
      "data": "0x",
      "r": "0x72d3279299ef8f99b6af6f1aa4fda2da1969e9ec3893d2f054871d386f167d26",
      "s": "0x1d874d277981f19de74f3c88a6de0e9139a9f9316869121f1294246bb6865915",
      "v": 28,
      "creates": null,
      "raw": "0xf86f82136b850e0480a3278255f094c0920452d99591a4e8b190632c52754c72f7332889011e382e92f74d0fc0801ca072d3279299ef8f99b6af6f1aa4fda2da1969e9ec3893d2f054871d386f167d26a01d874d277981f19de74f3c88a6de0e9139a9f9316869121f1294246bb6865915",
      "networkId": 0,
      "chainId": 0
    },
    {
      "hash": "0xe2ea2d98b380b43bf7d318c433903c54060eef1c6053241b65b18a8920211ce4",
      "blockHash": "0xe3a97db4a511e50e71ba018d010668f53b315c51b55f5572a9ef475bf1002e3d",
      "blockNumber": 112696,
      "transactionIndex": 7,
      "confirmations": null,
      "from": "0xe6A7a1d47ff21B6321162AEA7C6CB457D5476Bca",
      "gasPrice": {
        "_hex": "0xe0480a327"
      },
      "gasLimit": {
        "_hex": "0x55f0"
      },
      "to": "0xc3DBDB3Efa722db2a3F6041b0ca0042782296ba9",
      "value": {
        "_hex": "0x1203537ba28b09058"
      },
      "nonce": 4972,
      "data": "0x",
      "r": "0x76d53144e9d335cfa44c0635e801ed2ba2dbf05a8a81809eaf243778c2db4a3d",
      "s": "0x0e1905807a91dbcb9e33d6e0df7a15e77fcf39a53bd7b8f8c5bb97051f4e16c1",
      "v": 27,
      "creates": null,
      "raw": "0xf86f82136c850e0480a3278255f094c3dbdb3efa722db2a3f6041b0ca0042782296ba98901203537ba28b09058801ba076d53144e9d335cfa44c0635e801ed2ba2dbf05a8a81809eaf243778c2db4a3da00e1905807a91dbcb9e33d6e0df7a15e77fcf39a53bd7b8f8c5bb97051f4e16c1",
      "networkId": 0,
      "chainId": 0
    },
    {
      "hash": "0x6ad15f59aa684bc601fb659176d60a64b4b8c5edccdbbb667b0673bc50bb209b",
      "blockHash": "0xe3a97db4a511e50e71ba018d010668f53b315c51b55f5572a9ef475bf1002e3d",
      "blockNumber": 112696,
      "transactionIndex": 8,
      "confirmations": null,
      "from": "0xe6A7a1d47ff21B6321162AEA7C6CB457D5476Bca",
      "gasPrice": {
        "_hex": "0xe0480a327"
      },
      "gasLimit": {
        "_hex": "0x55f0"
      },
      "to": "0x8AeAaA4f505396d24B783Ba68694b10b1a3f0BCE",
      "value": {
        "_hex": "0x1204febf6b19c7390"
      },
      "nonce": 4973,
      "data": "0x",
      "r": "0xd9a5fd971bbdd1b85ad7256505b986b674e6ccf37acecdef10d4afcc65a98db5",
      "s": "0x772daabaa29d1d7dc97beee99de0c546f318a9f9e7a6ca35ec5a1a2223d1b4a2",
      "v": 28,
      "creates": null,
      "raw": "0xf86f82136d850e0480a3278255f0948aeaaa4f505396d24b783ba68694b10b1a3f0bce8901204febf6b19c7390801ca0d9a5fd971bbdd1b85ad7256505b986b674e6ccf37acecdef10d4afcc65a98db5a0772daabaa29d1d7dc97beee99de0c546f318a9f9e7a6ca35ec5a1a2223d1b4a2",
      "networkId": 0,
      "chainId": 0
    },
    {
      "hash": "0xf5950ec398ac8adbe05a5c49b42d7dbd1ebb8c1d7bca07a906b1029ab8914421",
      "blockHash": "0xe3a97db4a511e50e71ba018d010668f53b315c51b55f5572a9ef475bf1002e3d",
      "blockNumber": 112696,
      "transactionIndex": 9,
      "confirmations": null,
      "from": "0xe6A7a1d47ff21B6321162AEA7C6CB457D5476Bca",
      "gasPrice": {
        "_hex": "0xe0480a327"
      },
      "gasLimit": {
        "_hex": "0x55f0"
      },
      "to": "0x7001C4730b81A539eF8b760A3eEb14C64515137B",
      "value": {
        "_hex": "0x122a519a75be7afd8"
      },
      "nonce": 4974,
      "data": "0x",
      "r": "0x683a3d66ba3ac1229c7b99f39920946254cd207eaa23499355da9113898954f6",
      "s": "0x1e88f97fdcefcda8ec517657c94379218dc898a3dc7a0937fec1588764b5e36e",
      "v": 27,
      "creates": null,
      "raw": "0xf86f82136e850e0480a3278255f0947001c4730b81a539ef8b760a3eeb14c64515137b890122a519a75be7afd8801ba0683a3d66ba3ac1229c7b99f39920946254cd207eaa23499355da9113898954f6a01e88f97fdcefcda8ec517657c94379218dc898a3dc7a0937fec1588764b5e36e",
      "networkId": 0,
      "chainId": 0
    },
    {
      "hash": "0x04c4ec685fa63d516db9aab6d1fc1c1816c6f71c9367458441d357b6900c8b25",
      "blockHash": "0xe3a97db4a511e50e71ba018d010668f53b315c51b55f5572a9ef475bf1002e3d",
      "blockNumber": 112696,
      "transactionIndex": 10,
      "confirmations": null,
      "from": "0xe6A7a1d47ff21B6321162AEA7C6CB457D5476Bca",
      "gasPrice": {
        "_hex": "0xe0480a327"
      },
      "gasLimit": {
        "_hex": "0x55f0"
      },
      "to": "0x0dd48f729D5084545452A08F5E5AB412d7c2888a",
      "value": {
        "_hex": "0x1278b8c6afb067a10"
      },
      "nonce": 4975,
      "data": "0x",
      "r": "0xa75700d44518d8d1423d8cc850bd4552e654b99874a99c29f5beaee907ce6977",
      "s": "0x76c16e7c513b85fa322825b355ad18df2382aa7ee9fb9f5a923596cd520f5fad",
      "v": 28,
      "creates": null,
      "raw": "0xf86f82136f850e0480a3278255f0940dd48f729d5084545452a08f5e5ab412d7c2888a8901278b8c6afb067a10801ca0a75700d44518d8d1423d8cc850bd4552e654b99874a99c29f5beaee907ce6977a076c16e7c513b85fa322825b355ad18df2382aa7ee9fb9f5a923596cd520f5fad",
      "networkId": 0,
      "chainId": 0
    },
    {
      "hash": "0x94e0952a91658cb517024fa91983fdad69efefcc25e2dfe4f30c25ed993ab338",
      "blockHash": "0xe3a97db4a511e50e71ba018d010668f53b315c51b55f5572a9ef475bf1002e3d",
      "blockNumber": 112696,
      "transactionIndex": 11,
      "confirmations": null,
      "from": "0xe6A7a1d47ff21B6321162AEA7C6CB457D5476Bca",
      "gasPrice": {
        "_hex": "0xe0480a327"
      },
      "gasLimit": {
        "_hex": "0x55f0"
      },
      "to": "0x86d3856ad0105B9d4199936c1fd203664BA325dC",
      "value": {
        "_hex": "0x132a57a864e1c71e0"
      },
      "nonce": 4976,
      "data": "0x",
      "r": "0x495d43464c6c7bddf12cadd52ca38d61904fff5a0c99db43afba6f5301357146",
      "s": "0x1970ef3a09f31ec43c64bdb92f06bbbcd1954d3a0462d85f0546f4982ab2d7b8",
      "v": 27,
      "creates": null,
      "raw": "0xf86f821370850e0480a3278255f09486d3856ad0105b9d4199936c1fd203664ba325dc890132a57a864e1c71e0801ba0495d43464c6c7bddf12cadd52ca38d61904fff5a0c99db43afba6f5301357146a01970ef3a09f31ec43c64bdb92f06bbbcd1954d3a0462d85f0546f4982ab2d7b8",
      "networkId": 0,
      "chainId": 0
    }
  ]
}