{
  "hash": "0xd0f23b901f70992dd3b846f288a33d29f3c7c8cc6dd78195fa559b6815fc1ac0",
  "parentHash": "0x086e734642cf1788a5b9cee48c33dddf9757f3f13c12c2d153f8a02f8e683eae",
  "number": 51360,
  "timestamp": 1439003547,
  "nonce": "0x3e62100eee96de09",
  "difficulty": 1571957521896,
  "gasLimit": {
    "_hex": "0xa79cd"
  },
  "gasUsed": {
    "_hex": "0x4381c"
  },
  "miner": "0xF2d2AfF1320476cb8C6b607199D23175cc595693",
  "extraData": "0x476574682f76312e302e312f77696e646f77732f676f312e342e32",
  "transactions": [
    {
      "hash": "0x862fde8d65fad777598914747213a47ee78b3268d9c358b3f50136c8942bc1f5",
      "blockHash": "0xd0f23b901f70992dd3b846f288a33d29f3c7c8cc6dd78195fa559b6815fc1ac0",
      "blockNumber": 51360,
      "transactionIndex": 0,
      "confirmations": null,
      "from": "0x288E4356F12D0D3D0F8DF3506E457E7cFd5f4Ab0",
      "gasPrice": {
        "_hex": "0xcc1b0ebc5"
      },
      "gasLimit": {
        "_hex": "0x7a120"
      },
      "to": "0xA327075af2a223A1C83a36aDa1126afE7430f955",
      "value": {
        "_hex": "0x8ac7230489e80000"
      },
      "nonce": 10,
      "data": "0x",
      "r": "0xca17aaaece65e4f0b86db6aa91e082e6949f98489bd95cf7fc5e6cd6389aad2c",
      "s": "0x7274b95469833c38deb39c5e97a3670f54331eb51c2f306ccd6cedaa11375906",
      "v": 28,
      "creates": null,
      "raw": "0xf86d0a850cc1b0ebc58307a12094a327075af2a223a1c83a36ada1126afe7430f955888ac7230489e80000801ca0ca17aaaece65e4f0b86db6aa91e082e6949f98489bd95cf7fc5e6cd6389aad2ca07274b95469833c38deb39c5e97a3670f54331eb51c2f306ccd6cedaa11375906",
      "networkId": 0,
      "chainId": 0
    }
  ]
}