{
  "hash": "0x6192bcebf4cdb7723e260b30d6ffa4b6f3f694e0f5562dd8f541e84db92f2e27",
  "parentHash": "0xe4fecfe54c11c057c50f9ba5793fef04d0ca8f3c656d32fa22bd66c29be3614a",
  "number": 58906,
  "timestamp": 1439128721,
  "nonce": "0x510d2e7e411b8ea8",
  "difficulty": 1708142461384,
  "gasLimit": {
    "_hex": "0x2fefd8"
  },
  "gasUsed": {
    "_hex": "0x5208"
  },
  "miner": "0x9D49F602b0fdb924Bd63DDE2Bd0907E4A07c63a7",
  "extraData": "0x476574682f76312e302e312f6c696e75782f676f312e342e32",
  "transactions": [
    {
      "hash": "0x2122a12df050b1e075096e8dcaf6107c08d59304e1f3b6a3bd5c1f80c3269aa2",
      "blockHash": "0x6192bcebf4cdb7723e260b30d6ffa4b6f3f694e0f5562dd8f541e84db92f2e27",
      "blockNumber": 58906,
      "transactionIndex": 0,
      "confirmations": null,
      "from": "0x120A270bbC009644e35F0bB6ab13f95b8199c4ad",
      "gasPrice": {
        "_hex": "0xcf637c7f4"
      },
      "gasLimit": {
        "_hex": "0x15f90"
      },
      "to": "0xA7822289A56eD0579b760724B56001c11CDC107E",
      "value": {
        "_hex": "0x8ac7230489e80000"
      },
      "nonce": 47,
      "data": "0x",
      "r": "0xfb18adf4e9c6a393909d2f497db80a3828b3a30ae841c9945c08a29421106587",
      "s": "0x6574dbddfde28b325880b46c7d131694fc6569f108c27e335b102b9b2c9791ca",
      "v": 27,
      "creates": null,
      "raw": "0xf86d2f850cf637c7f483015f9094a7822289a56ed0579b760724b56001c11cdc107e888ac7230489e80000801ba0fb18adf4e9c6a393909d2f497db80a3828b3a30ae841c9945c08a29421106587a06574dbddfde28b325880b46c7d131694fc6569f108c27e335b102b9b2c9791ca",
      "networkId": 0,
      "chainId": 0
    }
  ]
}