{
  "hash": "0xabf64cbce9abc95af1a657d676d37666dcb437c3320281073e9562316c1c271b",
  "parentHash": "0xd73ee09a180ee46f84838c9af2d1a3cacd3f9e6318d4d83143f2c304c28f67e2",
  "number": 82273,
  "timestamp": 1439516498,
  "nonce": "0x8a9b071496814be3",
  "difficulty": 2379983652667,
  "gasLimit": {
    "_hex": "0x2fefd8"
  },
  "gasUsed": {
    "_hex": "0x5208"
  },
  "miner": "0x9D49F602b0fdb924Bd63DDE2Bd0907E4A07c63a7",
  "extraData": "0x476574682f76312e302e312f6c696e75782f676f312e342e32",
  "transactions": [
    {
      "hash": "0xd6f3957a785bad88f3f4df2c6044de53cf54d3a2f8bc3f25fefdf9a636da63ff",
      "blockHash": "0xabf64cbce9abc95af1a657d676d37666dcb437c3320281073e9562316c1c271b",
      "blockNumber": 82273,
      "transactionIndex": 0,
      "confirmations": null,
      "from": "0x5Fcb6761B7463127E5e79e151Fb542472a454C3E",
      "gasPrice": {
        "_hex": "0xdbe3d7f08"
      },
      "gasLimit": {
        "_hex": "0x5208"
      },
      "to": "0x32Be343B94f860124dC4fEe278FDCBD38C102D88",
      "value": {
        "_hex": "0xf9c871448b999000"
      },
      "nonce": 2,
      "data": "0x",
      "r": "0x22e34e334fd209a8df4fb9f7335aaf2ff0fe6bb43ecf884027dc297a8ad284e9",
      "s": "0x552ff853cf21f3050b729b1f9b739c2f0cbef4a880ed6d6f0f2adaabdef7eea7",
      "v": 28,
      "creates": null,
      "raw": "0xf86c02850dbe3d7f088252089432be343b94f860124dc4fee278fdcbd38c102d8888f9c871448b999000801ca022e34e334fd209a8df4fb9f7335aaf2ff0fe6bb43ecf884027dc297a8ad284e9a0552ff853cf21f3050b729b1f9b739c2f0cbef4a880ed6d6f0f2adaabdef7eea7",
      "networkId": 0,
      "chainId": 0
    }
  ]
}