{
  "hash": "0x7c611975cb262b330cdd829c9d66179d205196d471ba56a16588fb528eb29091",
  "parentHash": "0x971a42e43686745fb94482ac8d226c7453978438f06faa231c5e47c045ce0fdb",
  "number": 80359,
  "timestamp": 1439484549,
  "nonce": "0xb660ad9c64c23efb",
  "difficulty": 2380526747425,
  "gasLimit": {
    "_hex": "0x2fefd8"
  },
  "gasUsed": {
    "_hex": "0x546c"
  },
  "miner": "0xe6A7a1d47ff21B6321162AEA7C6CB457D5476Bca",
  "extraData": "0x476574682f76312e302e312d38326566323666362f6c696e75782f676f312e34",
  "transactions": [
    {
      "hash": "0xdc6468825e333dbc824ff0de30fd8bf9ceea716488fbb9086fcd7f7ec9081637",
      "blockHash": "0x7c611975cb262b330cdd829c9d66179d205196d471ba56a16588fb528eb29091",
      "blockNumber": 80359,
      "transactionIndex": 0,
      "confirmations": null,
      "from": "0x671c5D0ffeB3993FD3Ce1D4a70A04eD949B3a250",
      "gasPrice": {
        "_hex": "0x10dc90d85e7"
      },
      "gasLimit": {
        "_hex": "0x55f0"
      },
      "to": "0x2910543Af39abA0Cd09dBb2D50200b3E800A63D2",
      "value": {
        "_hex": "0xde0b6b3a7640000"
      },
      "nonce": 0,
      "data": "0x454e42363131514538",
      "r": "0x5cdcce43ecfd6f689c7cf44a0e5c56ed056f4b9bc80b2a59570f0381d1c1224f",
      "s": "0x50afa5910e76411b74224d7eefdd6bf852a88d586bd1854e2d4fd8ab0b10193c",
      "v": 27,
      "creates": null,
      "raw": "0xf8768086010dc90d85e78255f0942910543af39aba0cd09dbb2d50200b3e800a63d2880de0b6b3a764000089454e423631315145381ba05cdcce43ecfd6f689c7cf44a0e5c56ed056f4b9bc80b2a59570f0381d1c1224fa050afa5910e76411b74224d7eefdd6bf852a88d586bd1854e2d4fd8ab0b10193c",
      "networkId": 0,
      "chainId": 0
    }
  ]
}