{
  "hash": "0xd6e3a96efd4ceeb9e45db56099320ce72306e9a5f48742284eb198a4d27d8518",
  "parentHash": "0xe33709f81550a353f7d0b5a5195db0d248badb674814e461b67e7f9d155a7ad3",
  "number": 85964,
  "timestamp": 1439571520,
  "nonce": "0x21456e0773a282ef",
  "difficulty": 2785335892197,
  "gasLimit": {
    "_hex": "0x2fefd8"
  },
  "gasUsed": {
    "_hex": "0x5208"
  },
  "miner": "0xe6A7a1d47ff21B6321162AEA7C6CB457D5476Bca",
  "extraData": "0x476574682f76312e302e312d38326566323666362f6c696e75782f676f312e34",
  "transactions": [
    {
      "hash": "0x3a5daca273c4ee5b6bff513431e622b6b4788944faef62408421ef07a438a6d7",
      "blockHash": "0xd6e3a96efd4ceeb9e45db56099320ce72306e9a5f48742284eb198a4d27d8518",
      "blockNumber": 85964,
      "transactionIndex": 0,
      "confirmations": null,
      "from": "0x297d128041190ec4D477Cd476D194eFcA4E9cf67",
      "gasPrice": {
        "_hex": "0x746a528800"
      },
      "gasLimit": {
        "_hex": "0x5b04"
      },
      "to": "0x0000000000000000000000000000000000000000",
      "value": {
        "_hex": "0x16345785d8a0000"
      },
      "nonce": 2,
      "data": "0x",
      "r": "0x4090b0a4cff7c949ced94bcf30bec736c0445fd6ded75ba0f37e6a56b0d909de",
      "s": "0xf38e3c18fdcdf2a6cd1beea04e40514418ad6854b83ddbcb690af29ae2f6d6f8",
      "v": 27,
      "creates": null,
      "raw": "0xf86c0285746a528800825b0494000000000000000000000000000000000000000088016345785d8a0000801ba04090b0a4cff7c949ced94bcf30bec736c0445fd6ded75ba0f37e6a56b0d909dea0f38e3c18fdcdf2a6cd1beea04e40514418ad6854b83ddbcb690af29ae2f6d6f8",
      "networkId": 0,
      "chainId": 0
    }
  ]
}