{
  "hash": "0xe84152953a93330a7133ebc4c5f89e4a82d6f114c6ec48de798bfb53bec459ba",
  "parentHash": "0x6cfac39165013f0f784308e2c097987ed45ddd23203cf5792c85600f202f7f4a",
  "number": 99959,
  "timestamp": 1439798439,
  "nonce": "0xb06112d39e920b99",
  "difficulty": 3847436938983,
  "gasLimit": {
    "_hex": "0x2fefd8"
  },
  "gasUsed": {
    "_hex": "0x38658"
  },
  "miner": "0xe6A7a1d47ff21B6321162AEA7C6CB457D5476Bca",
  "extraData": "0x476574682f76312e302e312d38326566323666362f6c696e75782f676f312e34",
  "transactions": [
    {
      "hash": "0x09b0049c3aff4108ef04a126d57763e8d47adc4c9dc414f45c23f405f8d39568",
      "blockHash": "0xe84152953a93330a7133ebc4c5f89e4a82d6f114c6ec48de798bfb53bec459ba",
      "blockNumber": 99959,
      "transactionIndex": 0,
      "confirmations": null,
      "from": "0xe6A7a1d47ff21B6321162AEA7C6CB457D5476Bca",
      "gasPrice": {
        "_hex": "0xdca027af5"
      },
      "gasLimit": {
        "_hex": "0x55f0"
      },
      "to": "0xCE09fD3E23b65BaD12809190a19b6BFCFfD48c35",
      "value": {
        "_hex": "0x580716c9fbf03148"
      },
      "nonce": 3266,
      "data": "0x",
      "r": "0x712a615c2cfa7057e4d2642d4fffcca9195c4ad9fcfa6f6fee707927e094d0f4",
      "s": "0x43d0c8846e3fa2640d259cd69fd66591a01b4a05c6be8731dee067097fdc2252",
      "v": 27,
      "creates": null,
      "raw": "0xf86e820cc2850dca027af58255f094ce09fd3e23b65bad12809190a19b6bfcffd48c3588580716c9fbf03148801ba0712a615c2cfa7057e4d2642d4fffcca9195c4ad9fcfa6f6fee707927e094d0f4a043d0c8846e3fa2640d259cd69fd66591a01b4a05c6be8731dee067097fdc2252",
      "networkId": 0,
      "chainId": 0
    },
    {
      "hash": "0x81b78cedfb4aada6129862163d2b885c495aa7788c78268d36534b3484095a6e",
      "blockHash": "0xe84152953a93330a7133ebc4c5f89e4a82d6f114c6ec48de798bfb53bec459ba",
      "blockNumber": 99959,
      "transactionIndex": 1,
      "confirmations": null,
      "from": "0xe6A7a1d47ff21B6321162AEA7C6CB457D5476Bca",
      "gasPrice": {
        "_hex": "0xdca027af5"
      },
      "gasLimit": {
        "_hex": "0x55f0"
      },
      "to": "0xAD8c7FBFaBC46C35aDb03F7b3A67e731E5793899",
      "value": {
        "_hex": "0x588661ed8dc88758"
      },
      "nonce": 3267,
      "data": "0x",
      "r": "0xb0f6d2c7319f2143baf8bb3f5e3af73a6cc8ff130c8169eb2fb4adc708276ee4",
      "s": "0x778f6651a1c1344af24a5fe68f835ee4c71eae13582ce719733a9b94dde32482",
      "v": 27,
      "creates": null,
      "raw": "0xf86e820cc3850dca027af58255f094ad8c7fbfabc46c35adb03f7b3a67e731e579389988588661ed8dc88758801ba0b0f6d2c7319f2143baf8bb3f5e3af73a6cc8ff130c8169eb2fb4adc708276ee4a0778f6651a1c1344af24a5fe68f835ee4c71eae13582ce719733a9b94dde32482",
      "networkId": 0,
      "chainId": 0
    },
    {
      "hash": "0xc6a7c0f3b4d73ad9ac6c6dd5bc5b699357a6b91dc8c60ca13a81261510bf2485",
      "blockHash": "0xe84152953a93330a7133ebc4c5f89e4a82d6f114c6ec48de798bfb53bec459ba",
      "blockNumber": 99959,
      "transactionIndex": 2,
      "confirmations": null,
      "from": "0xe6A7a1d47ff21B6321162AEA7C6CB457D5476Bca",
      "gasPrice": {
        "_hex": "0xdca027af5"
      },
      "gasLimit": {
        "_hex": "0x55f0"
      },
      "to": "0xb62A0BF317fceb39ed916f0F9E60e623Ad309127",
      "value": {
        "_hex": "0x591853e436e8bf90"
      },
      "nonce": 3268,
      "data": "0x",
      "r": "0xf537f0cbfe2ff6db7e24e020acbc2b5fa94e2a3269d6d0eed818469a8c013bd9",
      "s": "0x18a9ad42c1e2919950b86dae5e3f56adb359375dae4214e00ca9556eb14e247b",
      "v": 27,
      "creates": null,
      "raw": "0xf86e820cc4850dca027af58255f094b62a0bf317fceb39ed916f0f9e60e623ad30912788591853e436e8bf90801ba0f537f0cbfe2ff6db7e24e020acbc2b5fa94e2a3269d6d0eed818469a8c013bd9a018a9ad42c1e2919950b86dae5e3f56adb359375dae4214e00ca9556eb14e247b",
      "networkId": 0,
      "chainId": 0
    },
    {
      "hash": "0x894d39528f1a5c71123e29513004ff0e2209f6115c88ff8dc49c446c84e223d3",
      "blockHash": "0xe84152953a93330a7133ebc4c5f89e4a82d6f114c6ec48de798bfb53bec459ba",
      "blockNumber": 99959,
      "transactionIndex": 3,
      "confirmations": null,
      "from": "0xe6A7a1d47ff21B6321162AEA7C6CB457D5476Bca",
      "gasPrice": {
        "_hex": "0xdca027af5"
      },
      "gasLimit": {
        "_hex": "0x55f0"
      },
      "to": "0x4CA7cc5aF3D69A52e705DcEac59B9f76e0906DA8",
      "value": {
        "_hex": "0x59e24a5718707178"
      },
      "nonce": 3269,
      "data": "0x",
      "r": "0xa317b0b9547d41cb2c945208fec309a635b06161a2aeb9e4daefca76114c9483",
      "s": "0x3f78a84aa338fa3cb2c7135509897fac1459bb7bdfd85f4b018a582c0f8ddd7b",
      "v": 27,
      "creates": null,
      "raw": "0xf86e820cc5850dca027af58255f0944ca7cc5af3d69a52e705dceac59b9f76e0906da88859e24a5718707178801ba0a317b0b9547d41cb2c945208fec309a635b06161a2aeb9e4daefca76114c9483a03f78a84aa338fa3cb2c7135509897fac1459bb7bdfd85f4b018a582c0f8ddd7b",
      "networkId": 0,
      "chainId": 0
    },
    {
      "hash": "0xfddca25e8abdbfae94c903e7c5f8106de87a2f19325f90487ed9d55b7395aee0",
      "blockHash": "0xe84152953a93330a7133ebc4c5f89e4a82d6f114c6ec48de798bfb53bec459ba",
      "blockNumber": 99959,
      "transactionIndex": 4,
      "confirmations": null,
      "from": "0xe6A7a1d47ff21B6321162AEA7C6CB457D5476Bca",
      "gasPrice": {
        "_hex": "0xdca027af5"
      },
      "gasLimit": {
        "_hex": "0x55f0"
      },
      "to": "0x6c341709A69F0D286ff289986ECd928bb3a51B7A",
      "value": {
        "_hex": "0x5a19af4076c4b7e0"
      },
      "nonce": 3270,
      "data": "0x",
      "r": "0xc6115895b0c87717ab69a079cd7a6a030d370f2f701d77364a0d23cf4eb558f3",
      "s": "0x00191633ade8886296683577123de458d87ffa4af3038e814b5d787126a2a540",
      "v": 28,
      "creates": null,
      "raw": "0xf86d820cc6850dca027af58255f0946c341709a69f0d286ff289986ecd928bb3a51b7a885a19af4076c4b7e0801ca0c6115895b0c87717ab69a079cd7a6a030d370f2f701d77364a0d23cf4eb558f39f191633ade8886296683577123de458d87ffa4af3038e814b5d787126a2a540",
      "networkId": 0,
      "chainId": 0
    },
    {
      "hash": "0x5d8412b52da9ec9127a8a07e1fb73cd3972539d3e44ec0e12844743f1fd83e26",
      "blockHash": "0xe84152953a93330a7133ebc4c5f89e4a82d6f114c6ec48de798bfb53bec459ba",
      "blockNumber": 99959,
      "transactionIndex": 5,
      "confirmations": null,
      "from": "0xe6A7a1d47ff21B6321162AEA7C6CB457D5476Bca",
      "gasPrice": {
        "_hex": "0xdca027af5"
      },
      "gasLimit": {
        "_hex": "0x55f0"
      },
      "to": "0x78FF59159FAfb4a337fd158FcF8D9603a7c6f03a",
      "value": {
        "_hex": "0x5a207a5e270867c0"
      },
      "nonce": 3271,
      "data": "0x",
      "r": "0x74cb56b643fe797475f9e241affe538160ce36caee7e798c787cc5f46e2fcd96",
      "s": "0x095ff6b79abda0fc3d15bfab28993eef238e674d50e2127cc4501003f14e5c39",
      "v": 28,
      "creates": null,
      "raw": "0xf86e820cc7850dca027af58255f09478ff59159fafb4a337fd158fcf8d9603a7c6f03a885a207a5e270867c0801ca074cb56b643fe797475f9e241affe538160ce36caee7e798c787cc5f46e2fcd96a0095ff6b79abda0fc3d15bfab28993eef238e674d50e2127cc4501003f14e5c39",
      "networkId": 0,
      "chainId": 0
    },
    {
      "hash": "0x50a19b78130b3edff47b9df23133a8a2dc697686c1fae91bcc6395d13194b254",
      "blockHash": "0xe84152953a93330a7133ebc4c5f89e4a82d6f114c6ec48de798bfb53bec459ba",
      "blockNumber": 99959,
      "transactionIndex": 6,
      "confirmations": null,
      "from": "0xe6A7a1d47ff21B6321162AEA7C6CB457D5476Bca",
      "gasPrice": {
        "_hex": "0xdca027af5"
      },
      "gasLimit": {
        "_hex": "0x55f0"
      },
      "to": "0x4a900C6a7785648E677cd96E39603466c0C7744A",
      "value": {
        "_hex": "0x5b92d25043531930"
      },
      "nonce": 3272,
      "data": "0x",
      "r": "0xbb8bde7b24c56e9806d4774dc9e5560077eb7c21def59a16a2b4d23eb64fa069",
      "s": "0x70bee945e1542d446ed37a1fd6cca9c1e09df3b8cc1c3e5d53c0d0659f491c5f",
      "v": 28,
      "creates": null,
      "raw": "0xf86e820cc8850dca027af58255f0944a900c6a7785648e677cd96e39603466c0c7744a885b92d25043531930801ca0bb8bde7b24c56e9806d4774dc9e5560077eb7c21def59a16a2b4d23eb64fa069a070bee945e1542d446ed37a1fd6cca9c1e09df3b8cc1c3e5d53c0d0659f491c5f",
      "networkId": 0,
      "chainId": 0
    },
    {
      "hash": "0x9a7c715e3a13c924df7f56bd8e14ddd8b92bee02caf6a7feb9fb8f74bbd45966",
      "blockHash": "0xe84152953a93330a7133ebc4c5f89e4a82d6f114c6ec48de798bfb53bec459ba",
      "blockNumber": 99959,
      "transactionIndex": 7,
      "confirmations": null,
      "from": "0xe6A7a1d47ff21B6321162AEA7C6CB457D5476Bca",
      "gasPrice": {
        "_hex": "0xdca027af5"
      },
      "gasLimit": {
        "_hex": "0x55f0"
      },
      "to": "0x796C24bD0325fc7d33BE618526173a8f4D5083Ce",
      "value": {
        "_hex": "0x5bbc7921018ed4e8"
      },
      "nonce": 3273,
      "data": "0x",
      "r": "0x3c34e3e8964600bb111f352e0bf132a980c0212be1de1e5342172222f0b58833",
      "s": "0x6873de10d099d30fdfac9e9bb5153741f740bbb3b4aaa304f4a8838a340eb74f",
      "v": 27,
      "creates": null,
      "raw": "0xf86e820cc9850dca027af58255f094796c24bd0325fc7d33be618526173a8f4d5083ce885bbc7921018ed4e8801ba03c34e3e8964600bb111f352e0bf132a980c0212be1de1e5342172222f0b58833a06873de10d099d30fdfac9e9bb5153741f740bbb3b4aaa304f4a8838a340eb74f",
      "networkId": 0,
      "chainId": 0
    },
    {
      "hash": "0x05384e51904f93e976b50c7716b1f59aad6566f9ae1840face669110eca2aa32",
      "blockHash": "0xe84152953a93330a7133ebc4c5f89e4a82d6f114c6ec48de798bfb53bec459ba",
      "blockNumber": 99959,
      "transactionIndex": 8,
      "confirmations": null,
      "from": "0xe6A7a1d47ff21B6321162AEA7C6CB457D5476Bca",
      "gasPrice": {
        "_hex": "0xdca027af5"
      },
      "gasLimit": {
        "_hex": "0x55f0"
      },
      "to": "0xabF56d5ca441eCAD5979023Ec368b74a8d662d95",
      "value": {
        "_hex": "0x5d467c0d1c992a98"
      },
      "nonce": 3274,
      "data": "0x",
      "r": "0xf6ee3cc75b22214f308b74ebdf9c88be492ac75f426ce2ca4c4c25bc90fb92b9",
      "s": "0x7cc6e36eee52ebf36730c1b7fb400bb186d4d95a2f13be7da7f0bdf6683b2e94",
      "v": 27,
      "creates": null,
      "raw": "0xf86e820cca850dca027af58255f094abf56d5ca441ecad5979023ec368b74a8d662d95885d467c0d1c992a98801ba0f6ee3cc75b22214f308b74ebdf9c88be492ac75f426ce2ca4c4c25bc90fb92b9a07cc6e36eee52ebf36730c1b7fb400bb186d4d95a2f13be7da7f0bdf6683b2e94",
      "networkId": 0,
      "chainId": 0
    },
    {
      "hash": "0xdadbef214b42884c2f46da52a58e4835d31dcb17f7db3930238285f7f6e60f98",
      "blockHash": "0xe84152953a93330a7133ebc4c5f89e4a82d6f114c6ec48de798bfb53bec459ba",
      "blockNumber": 99959,
      "transactionIndex": 9,
      "confirmations": null,
      "from": "0xe6A7a1d47ff21B6321162AEA7C6CB457D5476Bca",
      "gasPrice": {
        "_hex": "0xdca027af5"
      },
      "gasLimit": {
        "_hex": "0x55f0"
      },
      "to": "0x8421b6810A1aee71B0baa38D7E1b5de6f71245d2",
      "value": {
        "_hex": "0x5d5e4003246d5bf0"
      },
      "nonce": 3275,
      "data": "0x",
      "r": "0x2dd9c5d57ad084a74690d25aebf4095f4e2a71083b5c861bfa34a29cfd863c10",
      "s": "0x1377022bcb3b9432a4cdb39967fe59903913818da5ee4da825b06185577fc55e",
      "v": 28,
      "creates": null,
      "raw": "0xf86e820ccb850dca027af58255f0948421b6810a1aee71b0baa38d7e1b5de6f71245d2885d5e4003246d5bf0801ca02dd9c5d57ad084a74690d25aebf4095f4e2a71083b5c861bfa34a29cfd863c10a01377022bcb3b9432a4cdb39967fe59903913818da5ee4da825b06185577fc55e",
      "networkId": 0,
      "chainId": 0
    },
    {
      "hash": "0x22322b786273ea3d59f08b2d48290c841ca54993bbc99055db9bdd67b88fe9a9",
      "blockHash": "0xe84152953a93330a7133ebc4c5f89e4a82d6f114c6ec48de798bfb53bec459ba",
      "blockNumber": 99959,
      "transactionIndex": 10,
      "confirmations": null,
      "from": "0xe6A7a1d47ff21B6321162AEA7C6CB457D5476Bca",
      "gasPrice": {
        "_hex": "0xdca027af5"
      },
      "gasLimit": {
        "_hex": "0x55f0"
      },
      "to": "0x4b0a38C16B842d68A8721B4CAd662e07cc430652",
      "value": {
        "_hex": "0x5ddd7cc9bf08f110"
      },
      "nonce": 3276,
      "data": "0x",
      "r": "0xbd66f680a4dcbb9d77d3b2ee009a0ad9a2a523a095828e1f72a7b6118be4338d",
      "s": "0x29512baacf803cba67d982e9d52aaac7e848f03344fb008d23f3c5ac70f86bfe",
      "v": 27,
      "creates": null,
      "raw": "0xf86e820ccc850dca027af58255f0944b0a38c16b842d68a8721b4cad662e07cc430652885ddd7cc9bf08f110801ba0bd66f680a4dcbb9d77d3b2ee009a0ad9a2a523a095828e1f72a7b6118be4338da029512baacf803cba67d982e9d52aaac7e848f03344fb008d23f3c5ac70f86bfe",
      "networkId": 0,
      "chainId": 0
    }
  ]
}