{
  "hash": "0x6dfd048e6efd56358120cc6fe74b4c31cd0d3e947d0bdcc8ff6b5fd967fba9b4",
  "parentHash": "0x19fefbeb8c638ed78c530550a2a840c6ad66753b4fc1005d00e2150faccc2b2e",
  "number": 84578,
  "timestamp": 1439551627,
  "nonce": "0x4e90c55b8b2b0755",
  "difficulty": 2581477260820,
  "gasLimit": {
    "_hex": "0x2fefd8"
  },
  "gasUsed": {
    "_hex": "0x5208"
  },
  "miner": "0x9D49F602b0fdb924Bd63DDE2Bd0907E4A07c63a7",
  "extraData": "0x476574682f76312e302e312f6c696e75782f676f312e342e32",
  "transactions": [
    {
      "hash": "0xc863869222dc109a93ff9e3d14320a6e42dcbb8b25ada24a619e5e73efbde276",
      "blockHash": "0x6dfd048e6efd56358120cc6fe74b4c31cd0d3e947d0bdcc8ff6b5fd967fba9b4",
      "blockNumber": 84578,
      "transactionIndex": 0,
      "confirmations": null,
      "from": "0x2C82c5457b3e101b0c8bc5c7e6BA098c1FfD53B6",
      "gasPrice": {
        "_hex": "0xdee9fc2d9"
      },
      "gasLimit": {
        "_hex": "0x15f90"
      },
      "to": "0x89Ea4C778D3f3D6BE70883BB9995D41Bd4c453Ab",
      "value": {
        "_hex": "0xde0b6b3a7640000"
      },
      "nonce": 0,
      "data": "0x",
      "r": "0xc5715f9e11c2fefffa0306babbb8077c8839fdd702f35a0ee722b84492825457",
      "s": "0x55a8413e34372995d6f582c8a098e9a3a4a8f8ef5877ee5eb729e35ea0e072c1",
      "v": 28,
      "creates": null,
      "raw": "0xf86d80850dee9fc2d983015f909489ea4c778d3f3d6be70883bb9995d41bd4c453ab880de0b6b3a7640000801ca0c5715f9e11c2fefffa0306babbb8077c8839fdd702f35a0ee722b84492825457a055a8413e34372995d6f582c8a098e9a3a4a8f8ef5877ee5eb729e35ea0e072c1",
      "networkId": 0,
      "chainId": 0
    }
  ]
}