{
  "hash": "0xcb5bea0cfe77b387c80124928363871047084123c1788422c80b27a74ff33df0",
  "parentHash": "0x552b45c8ef1806f549557028813017ac5162565241f2b9fae30e56e5c68cf3e9",
  "number": 68400,
  "timestamp": 1439287128,
  "nonce": "0xea875ec8c0f39696",
  "difficulty": 2022221410766,
  "gasLimit": {
    "_hex": "0x2fefd8"
  },
  "gasUsed": {
    "_hex": "0x2ecab"
  },
  "miner": "0x40dDAE161B79aaebeb68187233fe59bd3B1c2db2",
  "extraData": "0x476574682f76312e302e312f77696e646f77732f676f312e342e32",
  "transactions": [
    {
      "hash": "0xa3ae3a5149f2c65aa0c927079772ea050ae3abdac1cdc5440d0b118562bbe806",
      "blockHash": "0xcb5bea0cfe77b387c80124928363871047084123c1788422c80b27a74ff33df0",
      "blockNumber": 68400,
      "transactionIndex": 0,
      "confirmations": null,
      "from": "0x1B63142628311395CEaFeEa5667e7C9026c862Ca",
      "gasPrice": {
        "_hex": "0xd8364fc25"
      },
      "gasLimit": {
        "_hex": "0x15f90"
      },
      "to": "0x063dD253C8da4EA9b12105781C9611b8297F5d14",
      "value": {
        "_hex": "0xde0b6b3a7640000"
      },
      "nonce": 0,
      "data": "0x",
      "r": "0xdd2a88e883d6e2b26d9171db56de578c84566d16f27a4df668d9febcf359d0cc",
      "s": "0x5b5a7f9bff7da55776c5e65129e7a7d49695f9a8fe450c00a767c24c1c512995",
      "v": 28,
      "creates": null,
      "raw": "0xf86d80850d8364fc2583015f9094063dd253c8da4ea9b12105781c9611b8297f5d14880de0b6b3a7640000801ca0dd2a88e883d6e2b26d9171db56de578c84566d16f27a4df668d9febcf359d0cca05b5a7f9bff7da55776c5e65129e7a7d49695f9a8fe450c00a767c24c1c512995",
      "networkId": 0,
      "chainId": 0
    },
    {
      "hash": "0xf2469d138d92bc5ab1324efb48f381692fc2d892d4e3f772eda6a1d738062f31",
      "blockHash": "0xcb5bea0cfe77b387c80124928363871047084123c1788422c80b27a74ff33df0",
      "blockNumber": 68400,
      "transactionIndex": 1,
      "confirmations": null,
      "from": "0x17580B766f7453525ca4C6A88b01b50570EA088C",
      "gasPrice": {
        "_hex": "0xd819a0da7"
      },
      "gasLimit": {
        "_hex": "0x61a80"
      },
      "to": "0x5Fe5B7546D1628f7348B023A0393de1FC825A4fD",
      "value": {
        "_hex": "0xde0b6b3a7640000"
      },
      "nonce": 16,
      "data": "0xb595b8b50000000000000000000000000000000000000000000000000000000000000000",
      "r": "0xa83738d2b766a06f0b72a00d384d72c77d65075ec81a28cdef8c6d561bb0c1ab",
      "s": "0x4e048590b236f80016a2adcda891251cc30b7ae3bd6340c8f24e8a06d629be82",
      "v": 27,
      "creates": null,
      "raw": "0xf89110850d819a0da783061a80945fe5b7546d1628f7348b023a0393de1fc825a4fd880de0b6b3a7640000a4b595b8b500000000000000000000000000000000000000000000000000000000000000001ba0a83738d2b766a06f0b72a00d384d72c77d65075ec81a28cdef8c6d561bb0c1aba04e048590b236f80016a2adcda891251cc30b7ae3bd6340c8f24e8a06d629be82",
      "networkId": 0,
      "chainId": 0
    },
    {
      "hash": "0x2a3471a82b3358158bb5af5672d76a9e7e5fe81b083f4ebb76eaf4bd28d591f0",
      "blockHash": "0xcb5bea0cfe77b387c80124928363871047084123c1788422c80b27a74ff33df0",
      "blockNumber": 68400,
      "transactionIndex": 2,
      "confirmations": null,
      "from": "0xB053b1d48cc216942E431cA955A29476D954Efdd",
      "gasPrice": {
        "_hex": "0xba43b7400"
      },
      "gasLimit": {
        "_hex": "0x5208"
      },
      "to": "0x7157d2d644cf4006eDBad877F532abfF068dA8DE",
      "value": {
        "_hex": "0x36ef271c4dd000"
      },
      "nonce": 1,
      "data": "0x",
      "r": "0xbe50db50e74740ef9ffcc66207df163342cb7c12dd30096fe6d462e7093c5cac",
      "s": "0x5581b11a3a10b60102a5f8b7eae15fc683dd19bfa8b2e1ccf031973196d18b77",
      "v": 28,
      "creates": null,
      "raw": "0xf86b01850ba43b7400825208947157d2d644cf4006edbad877f532abff068da8de8736ef271c4dd000801ca0be50db50e74740ef9ffcc66207df163342cb7c12dd30096fe6d462e7093c5caca05581b11a3a10b60102a5f8b7eae15fc683dd19bfa8b2e1ccf031973196d18b77",
      "networkId": 0,
      "chainId": 0
    },
    {
      "hash": "0xfb16ff0a25b22d249a54af7e204cbab9ec5c212027801ab0ea2f641f4c5e59bd",
      "blockHash": "0xcb5bea0cfe77b387c80124928363871047084123c1788422c80b27a74ff33df0",
      "blockNumber": 68400,
      "transactionIndex": 3,
      "confirmations": null,
      "from": "0x8f69e077701C5276F128C3f08Cb76649f50fFcC9",
      "gasPrice": {
        "_hex": "0xba43b7400"
      },
      "gasLimit": {
        "_hex": "0x5208"
      },
      "to": "0x0d6414C49C645e64492f880EAFA8A63FB1A3D761",
      "value": {
        "_hex": "0x36ef271c4dd000"
      },
      "nonce": 1,
      "data": "0x",
      "r": "0x143b78d539e576ec744922d53f34f68420e1c531df0ad4bf824893de7a8395de",
      "s": "0x3f2020b6ef54a000c0ab969a3d863f3b76acc960f6fa5bac602493a8a92826d7",
      "v": 27,
      "creates": null,
      "raw": "0xf86b01850ba43b7400825208940d6414c49c645e64492f880eafa8a63fb1a3d7618736ef271c4dd000801ba0143b78d539e576ec744922d53f34f68420e1c531df0ad4bf824893de7a8395dea03f2020b6ef54a000c0ab969a3d863f3b76acc960f6fa5bac602493a8a92826d7",
      "networkId": 0,
      "chainId": 0
    },
    {
      "hash": "0xff558447a5c5a1520cf1821d70eb424c76baa5cbea465f6829237f25dfe97f52",
      "blockHash": "0xcb5bea0cfe77b387c80124928363871047084123c1788422c80b27a74ff33df0",
      "blockNumber": 68400,
      "transactionIndex": 4,
      "confirmations": null,
      "from": "0x9e35614A1392fcD60F5FfCCf9c28261D088FE961",
      "gasPrice": {
        "_hex": "0xba43b7400"
      },
      "gasLimit": {
        "_hex": "0x5208"
      },
      "to": "0x3bbbDCa04Cbbf6129A50Fc35164EeB2a7f9B8550",
      "value": {
        "_hex": "0x36ef271c4dd000"
      },
      "nonce": 1,
      "data": "0x",
      "r": "0x2a787e853207aa884be8ef060be40f28d827fb681611c7314d34e741053aee33",
      "s": "0x0f02f8598f3537cdbf051ca53766d5f85af493d0c4395546021328b86d458ff7",
      "v": 28,
      "creates": null,
      "raw": "0xf86b01850ba43b7400825208943bbbdca04cbbf6129a50fc35164eeb2a7f9b85508736ef271c4dd000801ca02a787e853207aa884be8ef060be40f28d827fb681611c7314d34e741053aee33a00f02f8598f3537cdbf051ca53766d5f85af493d0c4395546021328b86d458ff7",
      "networkId": 0,
      "chainId": 0
    },
    {
      "hash": "0x1cbaf4b483679b0ffbf5115f149f3d4c1d5371802f911a1c43e66459d833f0ac",
      "blockHash": "0xcb5bea0cfe77b387c80124928363871047084123c1788422c80b27a74ff33df0",
      "blockNumber": 68400,
      "transactionIndex": 5,
      "confirmations": null,
      "from": "0xd3703205CC732CAbF6c2b15bfF07fc5e164ea41E",
      "gasPrice": {
        "_hex": "0xba43b7400"
      },
      "gasLimit": {
        "_hex": "0x5208"
      },
      "to": "0x6989DB79Af16EB387d56537D24c65aaE7791Dc31",
      "value": {
        "_hex": "0x36ef271c4dd000"
      },
      "nonce": 1,
      "data": "0x",
      "r": "0x8b5da62b46a1b965b90a82c058e748431d8c62dc50f50b47f1b1f6224649445d",
      "s": "0x60485444cefb0cc513cd419cfabc6776e51afed61c88e331340709d53f71ecef",
      "v": 27,
      "creates": null,
      "raw": "0xf86b01850ba43b7400825208946989db79af16eb387d56537d24c65aae7791dc318736ef271c4dd000801ba08b5da62b46a1b965b90a82c058e748431d8c62dc50f50b47f1b1f6224649445da060485444cefb0cc513cd419cfabc6776e51afed61c88e331340709d53f71ecef",
      "networkId": 0,
      "chainId": 0
    },
    {
      "hash": "0x162860ca308e64eecbd74f720a55aff70617bf10af67eca6f2dc6571c58bf404",
      "blockHash": "0xcb5bea0cfe77b387c80124928363871047084123c1788422c80b27a74ff33df0",
      "blockNumber": 68400,
      "transactionIndex": 6,
      "confirmations": null,
      "from": "0x32ce224244a542Df49c6eC5434EC236c89EE09C6",
      "gasPrice": {
        "_hex": "0xba43b7400"
      },
      "gasLimit": {
        "_hex": "0x5208"
      },
      "to": "0x00B385C0b8f493344BF886fd112f762680B6E2cC",
      "value": {
        "_hex": "0x36ef271c4dd000"
      },
      "nonce": 1,
      "data": "0x",
      "r": "0xe29e0f7504ca332ee26aa7965eda36e344f9893b72370ef70cded47a462f7860",
      "s": "0x0965d2cdda0219a9c0f494edc8ff814af9df863f76a6c295d76ffe319c7cee13",
      "v": 28,
      "creates": null,
      "raw": "0xf86b01850ba43b74008252089400b385c0b8f493344bf886fd112f762680b6e2cc8736ef271c4dd000801ca0e29e0f7504ca332ee26aa7965eda36e344f9893b72370ef70cded47a462f7860a00965d2cdda0219a9c0f494edc8ff814af9df863f76a6c295d76ffe319c7cee13",
      "networkId": 0,
      "chainId": 0
    },
    {
      "hash": "0xebea105e0fb4ea2460a4bb5b08bb3fbc9cd5c524934fad40de26dbdce8022a62",
      "blockHash": "0xcb5bea0cfe77b387c80124928363871047084123c1788422c80b27a74ff33df0",
      "blockNumber": 68400,
      "transactionIndex": 7,
      "confirmations": null,
      "from": "0x9C6E735C583f7A761e93E557914D63b973D2FC85",
      "gasPrice": {
        "_hex": "0xba43b7400"
      },
      "gasLimit": {
        "_hex": "0x5208"
      },
      "to": "0x6a475fA6C5b59669d452275211156562594b0a21",
      "value": {
        "_hex": "0x36ef271c4dd000"
      },
      "nonce": 1,
      "data": "0x",
      "r": "0xc32ad52752833247319bb6ce3a70e60f14ce9f6f75af5267eb763f6051e11bb1",
      "s": "0x22542ad2ae295d268092667ac01681ed49bdd58a7ce0bb1b7f00f8d2ade6bdee",
      "v": 27,
      "creates": null,
      "raw": "0xf86b01850ba43b7400825208946a475fa6c5b59669d452275211156562594b0a218736ef271c4dd000801ba0c32ad52752833247319bb6ce3a70e60f14ce9f6f75af5267eb763f6051e11bb1a022542ad2ae295d268092667ac01681ed49bdd58a7ce0bb1b7f00f8d2ade6bdee",
      "networkId": 0,
      "chainId": 0
    }
  ]
}