{
  "hash": "0xa7ddb6fc238b3a07fc93d7fed220ecadacdcb57abbc91c87723b0276c7a498d4",
  "parentHash": "0x1ff6df3bc3808b719670ab6b9d1e16c2c0ad154e432ba96c12c4b1406f48f68e",
  "number": 55493,
  "timestamp": 1439071494,
  "nonce": "0xb60f99e5ee868969",
  "difficulty": 1628197401096,
  "gasLimit": {
    "_hex": "0x2fefd8"
  },
  "gasUsed": {
    "_hex": "0x55dd"
  },
  "miner": "0x9746c7e1ef2bd21FF3997fa467593a89cb852BD0",
  "extraData": "0x476574682f76312e302e312f77696e646f77732f676f312e342e32",
  "transactions": [
    {
      "hash": "0xcdc5218e5b131284285c3435830bac2064deff7ccb2b299de8993f73a4272245",
      "blockHash": "0xa7ddb6fc238b3a07fc93d7fed220ecadacdcb57abbc91c87723b0276c7a498d4",
      "blockNumber": 55493,
      "transactionIndex": 0,
      "confirmations": null,
      "from": "0x073f70b5bfAde6409E4951EF72BC8F4157677729",
      "gasPrice": {
        "_hex": "0xd82658174"
      },
      "gasLimit": {
        "_hex": "0x186a0"
      },
      "to": "0xF6bF0eE51FE0ee92500bB22295382E9241eC3b5C",
      "value": {
        "_hex": "0x0"
      },
      "nonce": 10,
      "data": "0x5e0572a70000000000000000000000000000000000000000000000000000000000003039",
      "r": "0x4c16b5aa0c93c0f570255d8522eca821ab913bf422722b98bcc0a694f8f769e0",
      "s": "0x3c54e982298f6c78ab1646559d4b8bd6b632716821bd2e24f3f8abe15089bb33",
      "v": 28,
      "creates": null,
      "raw": "0xf8890a850d82658174830186a094f6bf0ee51fe0ee92500bb22295382e9241ec3b5c80a45e0572a700000000000000000000000000000000000000000000000000000000000030391ca04c16b5aa0c93c0f570255d8522eca821ab913bf422722b98bcc0a694f8f769e0a03c54e982298f6c78ab1646559d4b8bd6b632716821bd2e24f3f8abe15089bb33",
      "networkId": 0,
      "chainId": 0
    }
  ]
}