{
  "hash": "0x8a67efd71c7d51a6365444d10b190efd708a3351d0cd6c8ff5b570a189b21de7",
  "parentHash": "0xbfde766908d27e027d888d90f1f5fd81349c18aeefd1d1b3486e0b7c0361a1f1",
  "number": 69019,
  "timestamp": 1439297230,
  "nonce": "0xb721b94112927f96",
  "difficulty": 2034948439398,
  "gasLimit": {
    "_hex": "0x2fefd8"
  },
  "gasUsed": {
    "_hex": "0xa410"
  },
  "miner": "0x88D74a59454F6cF3B51ef6b9136AFb6b9D405A88",
  "extraData": "0x476574682f76312e302e312d37666266393930632f6c696e75782f676f312e34",
  "transactions": [
    {
      "hash": "0xf335ce7c342129e10a6887f4f74c4df166b7e3d129945cc547f728edfde7f791",
      "blockHash": "0x8a67efd71c7d51a6365444d10b190efd708a3351d0cd6c8ff5b570a189b21de7",
      "blockNumber": 69019,
      "transactionIndex": 0,
      "confirmations": null,
      "from": "0xAbbFe34FcD2F66FcA82A768DFf1d3A717ed9d8CB",
      "gasPrice": {
        "_hex": "0xba43b7400"
      },
      "gasLimit": {
        "_hex": "0x5208"
      },
      "to": "0x0614c4F1a59a3883b749e0AAB29174157dCAA937",
      "value": {
        "_hex": "0x1a921f4b554d000"
      },
      "nonce": 1,
      "data": "0x",
      "r": "0x599d9adf4a55f4619fc160790a9184e268934d799b0911dd5e0cdba38e37eb23",
      "s": "0x4be8916cf19a224634008f317ca5a0bb4647928f2028c8868562eb1ad49275af",
      "v": 28,
      "creates": null,
      "raw": "0xf86c01850ba43b7400825208940614c4f1a59a3883b749e0aab29174157dcaa9378801a921f4b554d000801ca0599d9adf4a55f4619fc160790a9184e268934d799b0911dd5e0cdba38e37eb23a04be8916cf19a224634008f317ca5a0bb4647928f2028c8868562eb1ad49275af",
      "networkId": 0,
      "chainId": 0
    },
    {
      "hash": "0x840164001f8f89d4d6e96a3eb9d77a5337ee6aeef79ad1d00703c5da9b97c774",
      "blockHash": "0x8a67efd71c7d51a6365444d10b190efd708a3351d0cd6c8ff5b570a189b21de7",
      "blockNumber": 69019,
      "transactionIndex": 1,
      "confirmations": null,
      "from": "0xb6267ACb1Aa81566c95e663c874ca4d7Efac492a",
      "gasPrice": {
        "_hex": "0xba43b7400"
      },
      "gasLimit": {
        "_hex": "0x5208"
      },
      "to": "0x691625324Eee68BCA95DA99E760FA72F01900eE0",
      "value": {
        "_hex": "0x1a921f4b554d000"
      },
      "nonce": 1,
      "data": "0x",
      "r": "0x1fbe35bef16848c9c071079edd85f696487aa208168873ae5edcc6806f8e3db0",
      "s": "0x4952a148880a29ab621c495cc0f28c243ebb1946d9a8e6bbd73d7f5fd0e12886",
      "v": 27,
      "creates": null,
      "raw": "0xf86c01850ba43b740082520894691625324eee68bca95da99e760fa72f01900ee08801a921f4b554d000801ba01fbe35bef16848c9c071079edd85f696487aa208168873ae5edcc6806f8e3db0a04952a148880a29ab621c495cc0f28c243ebb1946d9a8e6bbd73d7f5fd0e12886",
      "networkId": 0,
      "chainId": 0
    }
  ]
}