{
  "hash": "0x0fd66b299161b592e0fbda399a9f39fc182c3c2f390167b25dba2ebf241fae7e",
  "parentHash": "0xa17d91839eaeae0d048bff12d5ee1147628f15da20653c7ee08400106f0acd14",
  "number": 88634,
  "timestamp": 1439611087,
  "nonce": "0xe836520e3d01207e",
  "difficulty": 3226865181914,
  "gasLimit": {
    "_hex": "0x2fefd8"
  },
  "gasUsed": {
    "_hex": "0x5208"
  },
  "miner": "0xe6A7a1d47ff21B6321162AEA7C6CB457D5476Bca",
  "extraData": "0x476574682f76312e302e312d38326566323666362f6c696e75782f676f312e34",
  "transactions": [
    {
      "hash": "0xe6e6be6dd3a6b0226ae6bd3e6eaf250eb667f92df9ccbfa4924780fc55e812b9",
      "blockHash": "0x0fd66b299161b592e0fbda399a9f39fc182c3c2f390167b25dba2ebf241fae7e",
      "blockNumber": 88634,
      "transactionIndex": 0,
      "confirmations": null,
      "from": "0xCABAb6274eD15089737e287Be878B757934864e2",
      "gasPrice": {
        "_hex": "0xdade7290b"
      },
      "gasLimit": {
        "_hex": "0x15f90"
      },
      "to": "0x6e6bD2E762ecBa2B68ddB39b05916A9531AA0EA6",
      "value": {
        "_hex": "0x6c6b935b8bbd400000"
      },
      "nonce": 3,
      "data": "0x",
      "r": "0xd1000d2692425eb6495355493af7d68ed54a34138d0fe7b552c5cb05665691b3",
      "s": "0x0d58f22be353b53d275121d4f85d91604b86438461029e0fe9499bd30c0377a0",
      "v": 28,
      "creates": null,
      "raw": "0xf86e03850dade7290b83015f90946e6bd2e762ecba2b68ddb39b05916a9531aa0ea6896c6b935b8bbd400000801ca0d1000d2692425eb6495355493af7d68ed54a34138d0fe7b552c5cb05665691b3a00d58f22be353b53d275121d4f85d91604b86438461029e0fe9499bd30c0377a0",
      "networkId": 0,
      "chainId": 0
    }
  ]
}