{
  "hash": "0x2dd6bec0ecefec71ba08340894b4bd6898932c3d6449cc357dcc4f734b0eb6aa",
  "parentHash": "0xdadc89fbb1a4e3f18d472c80e007559a0bc9fb68fd3311ea04dc71b515b1a226",
  "number": 47479,
  "timestamp": 1438941199,
  "nonce": "0x95eb1b33beb33769",
  "difficulty": 1448118004555,
  "gasLimit": {
    "_hex": "0xc3a2"
  },
  "gasUsed": {
    "_hex": "0x5208"
  },
  "miner": "0xa50ec0D39fa913E62f1Bae7074E6F36caA71855b",
  "extraData": "0x476574682f76312e302e302f6c696e75782f676f312e342e32",
  "transactions": [
    {
      "hash": "0x51f30e966d811987e90c2becfc10e1e976d066afdc24b7e51682f024b70c1597",
      "blockHash": "0x2dd6bec0ecefec71ba08340894b4bd6898932c3d6449cc357dcc4f734b0eb6aa",
      "blockNumber": 47479,
      "transactionIndex": 0,
      "confirmations": null,
      "from": "0xe6A7a1d47ff21B6321162AEA7C6CB457D5476Bca",
      "gasPrice": {
        "_hex": "0x1b2a3f7b77"
      },
      "gasLimit": {
        "_hex": "0x5208"
      },
      "to": "0xF161498A7f225A91C338015ca11833B3399393A8",
      "value": {
        "_hex": "0x2600b90e0b6162548"
      },
      "nonce": 161,
      "data": "0x",
      "r": "0x509de3e19bf22cf0c4a6b070e1762754896aad3eb20ace3ab4b7d0bee11c9dad",
      "s": "0x516b45c2538a69688e65292340a471f810a672e7d749d63eb2fecb5f3719700e",
      "v": 28,
      "creates": null,
      "raw": "0xf86e81a1851b2a3f7b7782520894f161498a7f225a91c338015ca11833b3399393a88902600b90e0b6162548801ca0509de3e19bf22cf0c4a6b070e1762754896aad3eb20ace3ab4b7d0bee11c9dada0516b45c2538a69688e65292340a471f810a672e7d749d63eb2fecb5f3719700e",
      "networkId": 0,
      "chainId": 0
    }
  ]
}