{
  "hash": "0xbdacb7afe2aa2af76edc1c40d323ff5c6f935b97c4399581e088f67104e5f018",
  "parentHash": "0xcf40388fd712c8c48c374eb5c93869a2048ff1684a97e7def4e311aaa8f3975c",
  "number": 49239,
  "timestamp": 1438970323,
  "nonce": "0xf9259f43f044b1c6",
  "difficulty": 1477812259683,
  "gasLimit": {
    "_hex": "0x29f81"
  },
  "gasUsed": {
    "_hex": "0xa8d8"
  },
  "miner": "0xf8E0CA3Ed80bd541b94BEdCf259e8CF2141A9523",
  "extraData": "0x476574682f76312e302e312f77696e646f77732f676f312e342e32",
  "transactions": [
    {
      "hash": "0xcb27a2c9d52d419e61025db63f733ae00f2bfd2f823ce1ffbf4c3dd1a578f31a",
      "blockHash": "0xbdacb7afe2aa2af76edc1c40d323ff5c6f935b97c4399581e088f67104e5f018",
      "blockNumber": 49239,
      "transactionIndex": 0,
      "confirmations": null,
      "from": "0x4e5C9FD685DCC9AbEDe1Cbde4959039388bf7c5A",
      "gasPrice": {
        "_hex": "0xd73886131"
      },
      "gasLimit": {
        "_hex": "0x15f90"
      },
      "to": "0x2910543Af39abA0Cd09dBb2D50200b3E800A63D2",
      "value": {
        "_hex": "0x15af1d78b58c400000"
      },
      "nonce": 2,
      "data": "0x454e4a3536524b5052",
      "r": "0xbe45016f4bb2dc13a25ddeddbb0a77c13a4704950844df15fdc1e379990e6344",
      "s": "0x5956b81e75f686a00422b127c333f733c28e4838573fd7808878abaab86c4d21",
      "v": 28,
      "creates": null,
      "raw": "0xf87702850d7388613183015f90942910543af39aba0cd09dbb2d50200b3e800a63d28915af1d78b58c40000089454e4a3536524b50521ca0be45016f4bb2dc13a25ddeddbb0a77c13a4704950844df15fdc1e379990e6344a05956b81e75f686a00422b127c333f733c28e4838573fd7808878abaab86c4d21",
      "networkId": 0,
      "chainId": 0
    },
    {
      "hash": "0xbaf6d15c99e84c0895cec61c0bba36bb27591dad715b887a060d6ffbdd8bb152",
      "blockHash": "0xbdacb7afe2aa2af76edc1c40d323ff5c6f935b97c4399581e088f67104e5f018",
      "blockNumber": 49239,
      "transactionIndex": 1,
      "confirmations": null,
      "from": "0x67350b5331926f5E28F3C1E986F96443809c8B8c",
      "gasPrice": {
        "_hex": "0xd641f460d"
      },
      "gasLimit": {
        "_hex": "0x15f90"
      },
      "to": "0x2910543Af39abA0Cd09dBb2D50200b3E800A63D2",
      "value": {
        "_hex": "0x2386f26fc10000"
      },
      "nonce": 0,
      "data": "0x454e47333152313652",
      "r": "0xe6151f447b66892c26078dddb5dc43813db955a70fa837739cd129820e5ebb7a",
      "s": "0x65620142a572185ea6825f829141552ea3f42ac51ca34b4b3ea1d5add14d4899",
      "v": 28,
      "creates": null,
      "raw": "0xf87580850d641f460d83015f90942910543af39aba0cd09dbb2d50200b3e800a63d2872386f26fc1000089454e473331523136521ca0e6151f447b66892c26078dddb5dc43813db955a70fa837739cd129820e5ebb7aa065620142a572185ea6825f829141552ea3f42ac51ca34b4b3ea1d5add14d4899",
      "networkId": 0,
      "chainId": 0
    }
  ]
}