{
  "hash": "0x66ebbbd4cf8bc00ac455ee3ca102e0f2160ef909ba288a3adef913db2743b3ad",
  "parentHash": "0xf98f80a7291220b23338e0368d1ed3ab23134685ba05ffc3435683f7beb66fff",
  "number": 95168,
  "timestamp": 1439719830,
  "nonce": "0x7d9e4b40883b94f5",
  "difficulty": 3534348924877,
  "gasLimit": {
    "_hex": "0x2fefd5"
  },
  "gasUsed": {
    "_hex": "0x5208"
  },
  "miner": "0xd83630DD777Ce7c8Df15D55A8Bb72EB7C7b4568D",
  "extraData": "0xd783010001844765746887676f312e342e32856c696e7578",
  "transactions": [
    {
      "hash": "0xac49b6a86e07af127e487c12cd14ce59358262a21c308b6f521498d61741d182",
      "blockHash": "0x66ebbbd4cf8bc00ac455ee3ca102e0f2160ef909ba288a3adef913db2743b3ad",
      "blockNumber": 95168,
      "transactionIndex": 0,
      "confirmations": null,
      "from": "0x5dFE00558b1b8cAdfDc190fB334ec459Bb28198c",
      "gasPrice": {
        "_hex": "0xba43b7400"
      },
      "gasLimit": {
        "_hex": "0x5208"
      },
      "to": "0xC47Aaa860008be6f65B58c6C6E02a84e666EfE31",
      "value": {
        "_hex": "0x568fd18447af86000"
      },
      "nonce": 0,
      "data": "0x",
      "r": "0xb3e96917ca5c2bab32aced9d51a96415eb7c217b8b49593173c8c5aa902d3b31",
      "s": "0x0517684d2670825bcc73d13de0f16363aa529d85c802536b463492a0375f093d",
      "v": 27,
      "creates": null,
      "raw": "0xf86d80850ba43b740082520894c47aaa860008be6f65b58c6c6e02a84e666efe31890568fd18447af86000801ba0b3e96917ca5c2bab32aced9d51a96415eb7c217b8b49593173c8c5aa902d3b31a00517684d2670825bcc73d13de0f16363aa529d85c802536b463492a0375f093d",
      "networkId": 0,
      "chainId": 0
    }
  ]
}