{
  "hash": "0x0a2c5a36d8ebdd07d2c7a23dad0f183ccf1fe4295a158349c9dabb2fb3728d4c",
  "parentHash": "0x2fa93cb2ab9c2db16a1221b9bb4469e301699cfd57a0af90ecfaf7676d696926",
  "number": 69913,
  "timestamp": 1439311767,
  "nonce": "0x054c884b241b1b9a",
  "difficulty": 2109596556822,
  "gasLimit": {
    "_hex": "0x2fefd8"
  },
  "gasUsed": {
    "_hex": "0x5208"
  },
  "miner": "0x157c6f2431eB1a95797EE86F7d17b3c0FD47A247",
  "extraData": "0x476574682f76312e302e312f77696e646f77732f676f312e342e32",
  "transactions": [
    {
      "hash": "0x62727a0428870ac9902aa9f7b0d1843588383e1ab8c00699522069eff8cca56f",
      "blockHash": "0x0a2c5a36d8ebdd07d2c7a23dad0f183ccf1fe4295a158349c9dabb2fb3728d4c",
      "blockNumber": 69913,
      "transactionIndex": 0,
      "confirmations": null,
      "from": "0x120A270bbC009644e35F0bB6ab13f95b8199c4ad",
      "gasPrice": {
        "_hex": "0xde8f9afc4"
      },
      "gasLimit": {
        "_hex": "0x15f90"
      },
      "to": "0xA8471786fF71d0F894e60Ab9e3217a7E842c7b38",
      "value": {
        "_hex": "0x1043561a8829300000"
      },
      "nonce": 188,
      "data": "0x",
      "r": "0x6a5f5ce8a716b8f41bac5b1e2e2f4e3e24c65ea71a346ff24c93f313227f9d65",
      "s": "0x27285c94249ca878d951d3af0876399060ec30eb1b19125745a86f207973339d",
      "v": 28,
      "creates": null,
      "raw": "0xf86f81bc850de8f9afc483015f9094a8471786ff71d0f894e60ab9e3217a7e842c7b38891043561a8829300000801ca06a5f5ce8a716b8f41bac5b1e2e2f4e3e24c65ea71a346ff24c93f313227f9d65a027285c94249ca878d951d3af0876399060ec30eb1b19125745a86f207973339d",
      "networkId": 0,
      "chainId": 0
    }
  ]
}