{
  "hash": "0x6c9312b38b51712e68ceb37b26d807035482cdbab5a99903ee87bf83e5713c4d",
  "parentHash": "0xc8e0638fbdf94e86d6a9ba89b85b5b43c5d3dd8ff9314c79e211d4194271c3aa",
  "number": 70567,
  "timestamp": 1439321859,
  "nonce": "0x49a1ef9465aca1a3",
  "difficulty": 2138470036448,
  "gasLimit": {
    "_hex": "0x2fefd8"
  },
  "gasUsed": {
    "_hex": "0x5208"
  },
  "miner": "0x9192Ca96DE0B90f2A67A2D81f4A1325CFA3Cc685",
  "extraData": "0x",
  "transactions": [
    {
      "hash": "0x03fb503dcdbfe06ec203eefe69a09e287c4ccd75de38b285e20beafc4f301b14",
      "blockHash": "0x6c9312b38b51712e68ceb37b26d807035482cdbab5a99903ee87bf83e5713c4d",
      "blockNumber": 70567,
      "transactionIndex": 0,
      "confirmations": null,
      "from": "0x120A270bbC009644e35F0bB6ab13f95b8199c4ad",
      "gasPrice": {
        "_hex": "0xdc88e1210"
      },
      "gasLimit": {
        "_hex": "0x15f90"
      },
      "to": "0x5D0A4935EEC4434871C16A885443ae9F96589E6f",
      "value": {
        "_hex": "0x2ff2a017aac3ea9000"
      },
      "nonce": 206,
      "data": "0x",
      "r": "0x47447ae6cc699e891291c62224996aff27480bb5bf66c9436b04537c9083485f",
      "s": "0x0a0bc39098a95033faf76840dfc20e920dea8be7e06d5c0cd2b4ee4aa856ffc5",
      "v": 27,
      "creates": null,
      "raw": "0xf86f81ce850dc88e121083015f90945d0a4935eec4434871c16a885443ae9f96589e6f892ff2a017aac3ea9000801ba047447ae6cc699e891291c62224996aff27480bb5bf66c9436b04537c9083485fa00a0bc39098a95033faf76840dfc20e920dea8be7e06d5c0cd2b4ee4aa856ffc5",
      "networkId": 0,
      "chainId": 0
    }
  ]
}