{
  "hash": "0x9ec3e9686f52a642dcd102b76f61417d675273e0ff25b4bdb4d4a3b2511bb6d7",
  "parentHash": "0xee130b94e81de22a887c9d243d44a6c3858f480d978ac1b83943e5865a5f26f9",
  "number": 90091,
  "timestamp": 1439634358,
  "nonce": "0x52017178147e3a4e",
  "difficulty": 3327093723724,
  "gasLimit": {
    "_hex": "0x2fefd8"
  },
  "gasUsed": {
    "_hex": "0xf618"
  },
  "miner": "0xeB1325C8D9d3ea8D74aC11F4B00F1B2367686319",
  "extraData": "0x476574682f76312e302e312f77696e646f77732f676f312e342e32",
  "transactions": [
    {
      "hash": "0xed71ef6978f9b9c72af08ee07b24c70007875675130c8b28e179e84f5f624d67",
      "blockHash": "0x9ec3e9686f52a642dcd102b76f61417d675273e0ff25b4bdb4d4a3b2511bb6d7",
      "blockNumber": 90091,
      "transactionIndex": 0,
      "confirmations": null,
      "from": "0xa70a9a7040d542C632D8e0bE7c5513A8a5Bbc752",
      "gasPrice": {
        "_hex": "0xd73612ac9"
      },
      "gasLimit": {
        "_hex": "0x5208"
      },
      "to": "0x32Be343B94f860124dC4fEe278FDCBD38C102D88",
      "value": {
        "_hex": "0x455f4220ca012800"
      },
      "nonce": 112,
      "data": "0x",
      "r": "0x4b5e6d843f17c62337a0f97e88bc45e99c5594ec9b5044e8ac64b6fd83982cd8",
      "s": "0x30552d61ad30d98efb2a690f1a67926c5102e14262f56e3f09a83c609f87ae95",
      "v": 27,
      "creates": null,
      "raw": "0xf86c70850d73612ac98252089432be343b94f860124dc4fee278fdcbd38c102d8888455f4220ca012800801ba04b5e6d843f17c62337a0f97e88bc45e99c5594ec9b5044e8ac64b6fd83982cd8a030552d61ad30d98efb2a690f1a67926c5102e14262f56e3f09a83c609f87ae95",
      "networkId": 0,
      "chainId": 0
    },
    {
      "hash": "0xcb6eca3944a530254dd9daefd25157afedc16ec46b6a81b380fa13ef177396bb",
      "blockHash": "0x9ec3e9686f52a642dcd102b76f61417d675273e0ff25b4bdb4d4a3b2511bb6d7",
      "blockNumber": 90091,
      "transactionIndex": 1,
      "confirmations": null,
      "from": "0x89ec7E9734CE329a5ef22B060A1055144f6b72Ad",
      "gasPrice": {
        "_hex": "0xd73612ac9"
      },
      "gasLimit": {
        "_hex": "0x5208"
      },
      "to": "0x32Be343B94f860124dC4fEe278FDCBD38C102D88",
      "value": {
        "_hex": "0xddc67522c712800"
      },
      "nonce": 0,
      "data": "0x",
      "r": "0xbf915066f18365a8beb26418e20dd7202d0db46764449a5f166b1c380ad8c52b",
      "s": "0x00982c236aec4034a26d42fa6fbfaa9dae7a38cf863b58950ecf3890602dcfbd",
      "v": 28,
      "creates": null,
      "raw": "0xf86b80850d73612ac98252089432be343b94f860124dc4fee278fdcbd38c102d88880ddc67522c712800801ca0bf915066f18365a8beb26418e20dd7202d0db46764449a5f166b1c380ad8c52b9f982c236aec4034a26d42fa6fbfaa9dae7a38cf863b58950ecf3890602dcfbd",
      "networkId": 0,
      "chainId": 0
    },
    {
      "hash": "0x6fe59422d07d71ddfb8523693a8cfc82c3afd8c061dba6e97eb69854179a4446",
      "blockHash": "0x9ec3e9686f52a642dcd102b76f61417d675273e0ff25b4bdb4d4a3b2511bb6d7",
      "blockNumber": 90091,
      "transactionIndex": 2,
      "confirmations": null,
      "from": "0x64aF60Be7c74AE1D077e7F350114a5098D179b4a",
      "gasPrice": {
        "_hex": "0xd73612ac9"
      },
      "gasLimit": {
        "_hex": "0x5208"
      },
      "to": "0x32Be343B94f860124dC4fEe278FDCBD38C102D88",
      "value": {
        "_hex": "0x1fa85bd3be2cf2000"
      },
      "nonce": 2,
      "data": "0x",
      "r": "0xb59f6a610c149e54b61f46a08862e594ee363483ca66e71f1f4cf15172097120",
      "s": "0x675f83bed4a17edef05c41afadbdbdcaa636ecdbd795bf78a30b3b5ceca7dd06",
      "v": 28,
      "creates": null,
      "raw": "0xf86d02850d73612ac98252089432be343b94f860124dc4fee278fdcbd38c102d888901fa85bd3be2cf2000801ca0b59f6a610c149e54b61f46a08862e594ee363483ca66e71f1f4cf15172097120a0675f83bed4a17edef05c41afadbdbdcaa636ecdbd795bf78a30b3b5ceca7dd06",
      "networkId": 0,
      "chainId": 0
    }
  ]
}