{
  "hash": "0x2f844005f59a80148aff5a642ce9edd4ed9f3c0d274cafd227371ca27bf43b8b",
  "parentHash": "0x1d353b4e2477d80d35fd76546f7bc61d7e6ed1a006a1fb8d238a6e94354c4c30",
  "number": 49813,
  "timestamp": 1438979581,
  "nonce": "0x7af500898b19e76f",
  "difficulty": 1490756081187,
  "gasLimit": {
    "_hex": "0x40b77"
  },
  "gasUsed": {
    "_hex": "0x5208"
  },
  "miner": "0xbb7B8287f3F0a933474a79eAe42CBCa977791171",
  "extraData": "0x476574682f4c5649562f76312e302e312f6c696e75782f676f312e342e32",
  "transactions": [
    {
      "hash": "0x88631bdfbe0df6905db8c33ba640bdd018d36cb684e77466e66fe1239c9d434f",
      "blockHash": "0x2f844005f59a80148aff5a642ce9edd4ed9f3c0d274cafd227371ca27bf43b8b",
      "blockNumber": 49813,
      "transactionIndex": 0,
      "confirmations": null,
      "from": "0xAE842210f44D14C4a4db91fc9D3B3b50014f7Bf7",
      "gasPrice": {
        "_hex": "0x10dc90d85e7"
      },
      "gasLimit": {
        "_hex": "0x15f90"
      },
      "to": "0xc8b25f8890816e7F491d8EE02BA8b4548c73D3A4",
      "value": {
        "_hex": "0x1b1ae4d6e2ef500000"
      },
      "nonce": 1,
      "data": "0x",
      "r": "0xa465c176fa4cf6ca0c3711440c1763bcc83aae4cdb2f746a3cb9d5c95ca805f5",
      "s": "0x5f507618bd09a405f1583b2201207b3a5b7b3bd826520566a9e0e77a7c7a1fb0",
      "v": 28,
      "creates": null,
      "raw": "0xf86f0186010dc90d85e783015f9094c8b25f8890816e7f491d8ee02ba8b4548c73d3a4891b1ae4d6e2ef500000801ca0a465c176fa4cf6ca0c3711440c1763bcc83aae4cdb2f746a3cb9d5c95ca805f5a05f507618bd09a405f1583b2201207b3a5b7b3bd826520566a9e0e77a7c7a1fb0",
      "networkId": 0,
      "chainId": 0
    }
  ]
}