{
  "hash": "0x5ed4e175338d585a0f39a1671564b8e881c88eee3af23c873ff9ba475073fdb9",
  "parentHash": "0xf1c490cacfcf601e64a7daeccb60f850274bb8dfff9830d089e9317869a531a1",
  "number": 109056,
  "timestamp": 1439950373,
  "nonce": "0x87ea02b022933997",
  "difficulty": 4408479262503,
  "gasLimit": {
    "_hex": "0x2fefd8"
  },
  "gasUsed": {
    "_hex": "0x5208"
  },
  "miner": "0xe6A7a1d47ff21B6321162AEA7C6CB457D5476Bca",
  "extraData": "0x476574682f76312e302e312d38326566323666362f6c696e75782f676f312e34",
  "transactions": [
    {
      "hash": "0x32d6eff002b63763a679b31f9f96c3b05d08f822e27ab633ed919c7242deca78",
      "blockHash": "0x5ed4e175338d585a0f39a1671564b8e881c88eee3af23c873ff9ba475073fdb9",
      "blockNumber": 109056,
      "transactionIndex": 0,
      "confirmations": null,
      "from": "0xEF247E639d49461D25F57e9362CadE3120910Ce0",
      "gasPrice": {
        "_hex": "0xcb8a6d987"
      },
      "gasLimit": {
        "_hex": "0x15f90"
      },
      "to": "0xF87481A262E993a75F791E7859E71BaC36A606Eb",
      "value": {
        "_hex": "0x7b2a557a6d9780000"
      },
      "nonce": 42,
      "data": "0x",
      "r": "0xf9c2cd0a018591240a8f3f2f652d758d204701f8b24b891a1779ea5dc5e580f8",
      "s": "0x6da53ba9dec932763c7aac04082d3d8ee2741bcae94b61a800c622947a147748",
      "v": 28,
      "creates": null,
      "raw": "0xf86e2a850cb8a6d98783015f9094f87481a262e993a75f791e7859e71bac36a606eb8907b2a557a6d9780000801ca0f9c2cd0a018591240a8f3f2f652d758d204701f8b24b891a1779ea5dc5e580f8a06da53ba9dec932763c7aac04082d3d8ee2741bcae94b61a800c622947a147748",
      "networkId": 0,
      "chainId": 0
    }
  ]
}