{
  "hash": "0xf48c40f3299add77a2c65b3d452e466fce9bf79be81857a927842b9881a4db48",
  "parentHash": "0x1e66f634e12a339f2d8f83c9729b0985c321f77a49f8e26eac6eaf7bdccffbba",
  "number": 95691,
  "timestamp": 1439728009,
  "nonce": "0x83048b25202047e7",
  "difficulty": 3619705031109,
  "gasLimit": {
    "_hex": "0x2fefd8"
  },
  "gasUsed": {
    "_hex": "0x5208"
  },
  "miner": "0xe6A7a1d47ff21B6321162AEA7C6CB457D5476Bca",
  "extraData": "0x476574682f76312e302e312d38326566323666362f6c696e75782f676f312e34",
  "transactions": [
    {
      "hash": "0xdf793dc2161fdb6479e91482a4bfee268542b91b761f70cda34cf731061fbcc3",
      "blockHash": "0xf48c40f3299add77a2c65b3d452e466fce9bf79be81857a927842b9881a4db48",
      "blockNumber": 95691,
      "transactionIndex": 0,
      "confirmations": null,
      "from": "0x182c02d431a667bF08d1BB680306aB6feC4971e5",
      "gasPrice": {
        "_hex": "0xd4be89f70"
      },
      "gasLimit": {
        "_hex": "0x15f90"
      },
      "to": "0xfe8635C30D5b0a49D09Fc9480d59e05d7450fd41",
      "value": {
        "_hex": "0x36007f421e3d20000"
      },
      "nonce": 4,
      "data": "0x",
      "r": "0x738944e4157d296cd3c87da6a66d67666b8f90f134e725a9b0a58da2291b92cc",
      "s": "0x2b7ea32f88094871f318b6c7596c8cf23a1a4b4f26354be0d3f504f8baabb0ea",
      "v": 28,
      "creates": null,
      "raw": "0xf86e04850d4be89f7083015f9094fe8635c30d5b0a49d09fc9480d59e05d7450fd4189036007f421e3d20000801ca0738944e4157d296cd3c87da6a66d67666b8f90f134e725a9b0a58da2291b92cca02b7ea32f88094871f318b6c7596c8cf23a1a4b4f26354be0d3f504f8baabb0ea",
      "networkId": 0,
      "chainId": 0
    }
  ]
}