{
  "hash": "0xd9ffb75e0025bc3ea7007615f86dfd84107af471a3bd6d8a76cd3fbd76511d0b",
  "parentHash": "0x4f4476742d1b89a7cc114d73fd05fac24610a42ccad81bbb253c23c33e0c0848",
  "number": 87986,
  "timestamp": 1439600633,
  "nonce": "0x600464f5b295bc12",
  "difficulty": 3202000853289,
  "gasLimit": {
    "_hex": "0x2fefd8"
  },
  "gasUsed": {
    "_hex": "0xe1d6"
  },
  "miner": "0x47ff6576639c2e94762eA5443978D7681C0E78DC",
  "extraData": "0x476574682f76312e302e312f6c696e75782f676f312e342e32",
  "transactions": [
    {
      "hash": "0xf437b5d8fb10524fa558df9df818ecfd4bb332d5985f783d7a6f9156eb4f1d7c",
      "blockHash": "0xd9ffb75e0025bc3ea7007615f86dfd84107af471a3bd6d8a76cd3fbd76511d0b",
      "blockNumber": 87986,
      "transactionIndex": 0,
      "confirmations": null,
      "from": "0xFBb1b73C4f0BDa4f67dcA266ce6Ef42f520fBB98",
      "gasPrice": {
        "_hex": "0xddd945f9b"
      },
      "gasLimit": {
        "_hex": "0x15f90"
      },
      "to": "0xCAc7000C7dBaa2E33Af15325AF5D435E011C7BdD",
      "value": {
        "_hex": "0x0"
      },
      "nonce": 38,
      "data": "0x3feb1bd8424954545245583030000000000000000000000000000000000000000000000000000000000000000000000030509a1db862170af8f96520c084c4698a8014ab0000000000000000000000000000000000000000000000000de0b6b3a7640000",
      "r": "0x9cfced7f550557dc6ca089ae6a4b855abf95eaa40b6d3e8de30b4c54027912af",
      "s": "0x4c497d235fb60f1510d871f15ede3b27ddd4449ec73840061c5b07206de38e00",
      "v": 27,
      "creates": null,
      "raw": "0xf8ca26850ddd945f9b83015f9094cac7000c7dbaa2e33af15325af5d435e011c7bdd80b8643feb1bd8424954545245583030000000000000000000000000000000000000000000000000000000000000000000000030509a1db862170af8f96520c084c4698a8014ab0000000000000000000000000000000000000000000000000de0b6b3a76400001ba09cfced7f550557dc6ca089ae6a4b855abf95eaa40b6d3e8de30b4c54027912afa04c497d235fb60f1510d871f15ede3b27ddd4449ec73840061c5b07206de38e00",
      "networkId": 0,
      "chainId": 0
    }
  ]
}