{
  "hash": "0xd74201f28f9608a14c9bb151d54dc324268b8c7de040666596badab75b524992",
  "parentHash": "0xd732b6542e96468711e4d107ae8e31eb2db0efaa2e04d12cd94b018ea312343c",
  "number": 113315,
  "timestamp": 1440021312,
  "nonce": "0x33b2d5d6440647d4",
  "difficulty": 4495341381434,
  "gasLimit": {
    "_hex": "0x2fefd8"
  },
  "gasUsed": {
    "_hex": "0x5208"
  },
  "miner": "0x9746c7e1ef2bd21FF3997fa467593a89cb852BD0",
  "extraData": "0x476574682f76312e302e312f77696e646f77732f676f312e342e32",
  "transactions": [
    {
      "hash": "0xba2320610b241bf15c3b26c132b8da41a13b28dba3ab62a32de0ef59d9b54635",
      "blockHash": "0xd74201f28f9608a14c9bb151d54dc324268b8c7de040666596badab75b524992",
      "blockNumber": 113315,
      "transactionIndex": 0,
      "confirmations": null,
      "from": "0xF7d656314a325997c2adD0c4A788975eFbdDF659",
      "gasPrice": {
        "_hex": "0xceabde75f"
      },
      "gasLimit": {
        "_hex": "0x15f90"
      },
      "to": "0xD021d7e87Aa8053C9A196aEF9ad37Aa7CdC44898",
      "value": {
        "_hex": "0x561a9dfc1c12b84"
      },
      "nonce": 2,
      "data": "0x",
      "r": "0xa97c3d62114edd35d358d91e06f08db1537ace0cb89f342b1855a3e3f741247c",
      "s": "0x4433e2b7f1b025ba819821d4e624d18e48acd4613c8b9084b524d7eb5e7d011d",
      "v": 27,
      "creates": null,
      "raw": "0xf86d02850ceabde75f83015f9094d021d7e87aa8053c9a196aef9ad37aa7cdc44898880561a9dfc1c12b84801ba0a97c3d62114edd35d358d91e06f08db1537ace0cb89f342b1855a3e3f741247ca04433e2b7f1b025ba819821d4e624d18e48acd4613c8b9084b524d7eb5e7d011d",
      "networkId": 0,
      "chainId": 0
    }
  ]
}