{
  "hash": "0x02a27ef296c8c1d2d6f62be99464924777f5aa1ba7f4df78efbae4691da43d5e",
  "parentHash": "0x42d3d46785b42469dd4c6c52aaafac2cc96fc3f6ee329d560228a8ccdd1ed9a5",
  "number": 79492,
  "timestamp": 1439470635,
  "nonce": "0x2694151b78a211c4",
  "difficulty": 2333584756290,
  "gasLimit": {
    "_hex": "0x2fefd8"
  },
  "gasUsed": {
    "_hex": "0xb449"
  },
  "miner": "0x838a08913B5a50d914Dd306006fA1f8a1bfAAAb9",
  "extraData": "0x476574682f76312e302e302f77696e646f77732f676f312e342e32",
  "transactions": [
    {
      "hash": "0x11b503deef94e457daa4f1405aca9c0db241816b67200cbf9cd9a907a9ae6042",
      "blockHash": "0x02a27ef296c8c1d2d6f62be99464924777f5aa1ba7f4df78efbae4691da43d5e",
      "blockNumber": 79492,
      "transactionIndex": 0,
      "confirmations": null,
      "from": "0x775e18be7A50a0Abb8A4e82B1bD697D79F31fE04",
      "gasPrice": {
        "_hex": "0xd6b187d36"
      },
      "gasLimit": {
        "_hex": "0xf4240"
      },
      "to": "0xde0B295669a9FD93d5F28D9Ec85E40f4cb697BAe",
      "value": {
        "_hex": "0x0"
      },
      "nonce": 2,
      "data": "0xf00d4b5d00000000000000000000000005096a47749d8bfab0a90c1bb7a95115dbe4cea60000000000000000000000005ed8cee6b63b1c6afce3ad7c92f4fd7e1b8fad9f",
      "r": "0xd5f1cf0857944986915db14ad5c696d571c727eab9df8ff5fc539af0e2c65936",
      "s": "0x25977b97f27584b6b54461df2d2f7f44c581419d77f362a43d902926c0e763f4",
      "v": 28,
      "creates": null,
      "raw": "0xf8aa02850d6b187d36830f424094de0b295669a9fd93d5f28d9ec85e40f4cb697bae80b844f00d4b5d00000000000000000000000005096a47749d8bfab0a90c1bb7a95115dbe4cea60000000000000000000000005ed8cee6b63b1c6afce3ad7c92f4fd7e1b8fad9f1ca0d5f1cf0857944986915db14ad5c696d571c727eab9df8ff5fc539af0e2c65936a025977b97f27584b6b54461df2d2f7f44c581419d77f362a43d902926c0e763f4",
      "networkId": 0,
      "chainId": 0
    },
    {
      "hash": "0xc0a90b486a9f2f756282a0dbc03b433fa454d273cfa95b048d878baf7f1a85da",
      "blockHash": "0x02a27ef296c8c1d2d6f62be99464924777f5aa1ba7f4df78efbae4691da43d5e",
      "blockNumber": 79492,
      "transactionIndex": 1,
      "confirmations": null,
      "from": "0xD5276F0Cd5FFd5FFb63f98B5703d5594EDE0838b",
      "gasPrice": {
        "_hex": "0xd641f460d"
      },
      "gasLimit": {
        "_hex": "0x15f90"
      },
      "to": "0x869e88783E4c2E97d967A89E1aca4523eeAB3D7C",
      "value": {
        "_hex": "0x8ac7230489e80000"
      },
      "nonce": 0,
      "data": "0x",
      "r": "0x53f11f588271522cbf9e7e02feddcff749bed1c00593a0f4ac22bef3a034ac63",
      "s": "0x224e1067de3ec177bfb554bc9161f0a705f96a1e4e01d1792874d8ee8dbf7a88",
      "v": 27,
      "creates": null,
      "raw": "0xf86d80850d641f460d83015f9094869e88783e4c2e97d967a89e1aca4523eeab3d7c888ac7230489e80000801ba053f11f588271522cbf9e7e02feddcff749bed1c00593a0f4ac22bef3a034ac63a0224e1067de3ec177bfb554bc9161f0a705f96a1e4e01d1792874d8ee8dbf7a88",
      "networkId": 0,
      "chainId": 0
    }
  ]
}