{
  "hash": "0xc789c32a784ef6009b7bf033479b06bb5606be1fcd845d5e4e2f2783b8e29b74",
  "parentHash": "0x052a4a92ebc80dffaf4928b1b8a78a71b9c88fd4ea74fc773d5e4149cef31b27",
  "number": 84490,
  "timestamp": 1439550412,
  "nonce": "0x366b4f386ec8c913",
  "difficulty": 2566422566581,
  "gasLimit": {
    "_hex": "0x2fefd8"
  },
  "gasUsed": {
    "_hex": "0xdc10"
  },
  "miner": "0xA21Ba94e45f0E168dA824fC67aC9cb5Cb577a8aF",
  "extraData": "0x",
  "transactions": [
    {
      "hash": "0x5683f53de683525b7c87a496d7453929654ce12150d02b3a175c1991cd86803b",
      "blockHash": "0xc789c32a784ef6009b7bf033479b06bb5606be1fcd845d5e4e2f2783b8e29b74",
      "blockNumber": 84490,
      "transactionIndex": 0,
      "confirmations": null,
      "from": "0xE30fBFf0F73d76643501B77772aBc74377dacE64",
      "gasPrice": {
        "_hex": "0x48c27395000"
      },
      "gasLimit": {
        "_hex": "0x15f90"
      },
      "to": "0x0a105Bf0e4eD0D55F1867694ACa81cC84e613d32",
      "value": {
        "_hex": "0x0"
      },
      "nonce": 5,
      "data": "0xd0679d34000000000000000000000000f2a22f713f87c51076136a1338140aa8fff4ebf300000000000000000000000000000000000000000000000000000000000003e8",
      "r": "0x0149763e44d17be9539837768a6c8276246b310c12a6fbbf19b0654413d8e945",
      "s": "0x483b4cff9f3018416a49aa191b8680eaa2c23870a208c3ff4ef224342f7afca9",
      "v": 27,
      "creates": null,
      "raw": "0xf8ab0586048c2739500083015f90940a105bf0e4ed0d55f1867694aca81cc84e613d3280b844d0679d34000000000000000000000000f2a22f713f87c51076136a1338140aa8fff4ebf300000000000000000000000000000000000000000000000000000000000003e81ba00149763e44d17be9539837768a6c8276246b310c12a6fbbf19b0654413d8e945a0483b4cff9f3018416a49aa191b8680eaa2c23870a208c3ff4ef224342f7afca9",
      "networkId": 0,
      "chainId": 0
    },
    {
      "hash": "0xd3643a5bce0e1c426cf0507e555f7cf64ab9c47fe4b6e357d78ad121009dfcc1",
      "blockHash": "0xc789c32a784ef6009b7bf033479b06bb5606be1fcd845d5e4e2f2783b8e29b74",
      "blockNumber": 84490,
      "transactionIndex": 1,
      "confirmations": null,
      "from": "0xB76CeFA8d0680c6dA05CA47e1C4B70aA092B69a9",
      "gasPrice": {
        "_hex": "0xd6b187d36"
      },
      "gasLimit": {
        "_hex": "0x15f90"
      },
      "to": "0xeC06c233d618b41076FbfF739Efb85a4999F89Da",
      "value": {
        "_hex": "0x1988fe4052b80000"
      },
      "nonce": 0,
      "data": "0x",
      "r": "0x13cf65a9053e5bbd1134fe19f4036eced86a337de7caa88c7ba057566fbd77c5",
      "s": "0x407066b96eddd84559a2dc41ae09785f72beb8c9b8e00655649a265934e2077b",
      "v": 28,
      "creates": null,
      "raw": "0xf86d80850d6b187d3683015f9094ec06c233d618b41076fbff739efb85a4999f89da881988fe4052b80000801ca013cf65a9053e5bbd1134fe19f4036eced86a337de7caa88c7ba057566fbd77c5a0407066b96eddd84559a2dc41ae09785f72beb8c9b8e00655649a265934e2077b",
      "networkId": 0,
      "chainId": 0
    }
  ]
}