{
  "hash": "0x3ec04cb06df1e9da85376d05eb2199611568ac032955afaa3e8e026554d46fa7",
  "parentHash": "0xabbc1efa2dc66fa827b6c0acb8c89df7d2d2ffbaaa252e8c3ce2badd5c77a7d0",
  "number": 56560,
  "timestamp": 1439089123,
  "nonce": "0xc2be002bbfb41fee",
  "difficulty": 1662533116503,
  "gasLimit": {
    "_hex": "0x2fe3db"
  },
  "gasUsed": {
    "_hex": "0x1b530"
  },
  "miner": "0x756C55cbfa47fd23c0260F958e65866E64c096CB",
  "extraData": "0x476574682f76312e302e302f77696e646f77732f676f312e342e32",
  "transactions": [
    {
      "hash": "0xedd3d274b2047f31fddab0c572da0e66a7b39185eb0af28bcfef0ad9912a94cf",
      "blockHash": "0x3ec04cb06df1e9da85376d05eb2199611568ac032955afaa3e8e026554d46fa7",
      "blockNumber": 56560,
      "transactionIndex": 0,
      "confirmations": null,
      "from": "0x1308A2e95c0160B90803ddCA9B9a5bb55E416d79",
      "gasPrice": {
        "_hex": "0xe8d4a51000"
      },
      "gasLimit": {
        "_hex": "0x15f90"
      },
      "to": "0x7266c8FD66eD582bEA23bd8BC48E58D7f17321F3",
      "value": {
        "_hex": "0x56bc75e2d63100000"
      },
      "nonce": 67,
      "data": "0x",
      "r": "0x1463504baa318a6e14e16d4ecf18804c1b346938eaa1216ca1a051911571230d",
      "s": "0x5ba13a22ff1d7f4395f75c513f996679d3b7e4c2045c2aab863c3fbf1ba6903f",
      "v": 28,
      "creates": null,
      "raw": "0xf86e4385e8d4a5100083015f90947266c8fd66ed582bea23bd8bc48e58d7f17321f389056bc75e2d63100000801ca01463504baa318a6e14e16d4ecf18804c1b346938eaa1216ca1a051911571230da05ba13a22ff1d7f4395f75c513f996679d3b7e4c2045c2aab863c3fbf1ba6903f",
      "networkId": 0,
      "chainId": 0
    },
    {
      "hash": "0x7ecd7c6399f7425c8ef8b159e464f22851dc0efc1f7fb675e744e86163477521",
      "blockHash": "0x3ec04cb06df1e9da85376d05eb2199611568ac032955afaa3e8e026554d46fa7",
      "blockNumber": 56560,
      "transactionIndex": 1,
      "confirmations": null,
      "from": "0x073f70b5bfAde6409E4951EF72BC8F4157677729",
      "gasPrice": {
        "_hex": "0xdf055e287"
      },
      "gasLimit": {
        "_hex": "0x15f90"
      },
      "to": "0xCdd192F2c49383af4321c7D1941Fb3C9Ca1B622C",
      "value": {
        "_hex": "0x0"
      },
      "nonce": 14,
      "data": "0x7c1c17160000000000000000000000000000000000000000000000000000000000002694",
      "r": "0x5101d8317297461c26da6adb52b166b0d59d4212f9010ba8e19df5d57ec23775",
      "s": "0x45d0bf6dc6a7cfab36fa78b5c0dc2b9ca41c68443082a5a9c89a840d9cfc5b26",
      "v": 27,
      "creates": null,
      "raw": "0xf8890e850df055e28783015f9094cdd192f2c49383af4321c7d1941fb3c9ca1b622c80a47c1c171600000000000000000000000000000000000000000000000000000000000026941ba05101d8317297461c26da6adb52b166b0d59d4212f9010ba8e19df5d57ec23775a045d0bf6dc6a7cfab36fa78b5c0dc2b9ca41c68443082a5a9c89a840d9cfc5b26",
      "networkId": 0,
      "chainId": 0
    },
    {
      "hash": "0x7aaf8ad553d4aa1e7f7cbbe17fe592a99602382121cfbce2523862ee107f4442",
      "blockHash": "0x3ec04cb06df1e9da85376d05eb2199611568ac032955afaa3e8e026554d46fa7",
      "blockNumber": 56560,
      "transactionIndex": 2,
      "confirmations": null,
      "from": "0xFD2605a2bF58fDbB90db1Da55dF61628B47F9e8c",
      "gasPrice": {
        "_hex": "0xdab7b0de2"
      },
      "gasLimit": {
        "_hex": "0x186a0"
      },
      "to": "0xCdd192F2c49383af4321c7D1941Fb3C9Ca1B622C",
      "value": {
        "_hex": "0x0"
      },
      "nonce": 39,
      "data": "0x7c1c171600000000000000000000000000000000000000000000000000000000075bcd15",
      "r": "0x3eac7c3e224b74780162579be5bf7c90b4c115564bb1be8a4497dd2a69955394",
      "s": "0x53cd42b3b4826910271f75bcd72273c6a9df30361a1b1307bfa3a5c64e4a753f",
      "v": 28,
      "creates": null,
      "raw": "0xf88927850dab7b0de2830186a094cdd192f2c49383af4321c7d1941fb3c9ca1b622c80a47c1c171600000000000000000000000000000000000000000000000000000000075bcd151ca03eac7c3e224b74780162579be5bf7c90b4c115564bb1be8a4497dd2a69955394a053cd42b3b4826910271f75bcd72273c6a9df30361a1b1307bfa3a5c64e4a753f",
      "networkId": 0,
      "chainId": 0
    },
    {
      "hash": "0x69630e007ca91e52459d7a287e111ebc872786e4929a8573a8ee1eff699015c9",
      "blockHash": "0x3ec04cb06df1e9da85376d05eb2199611568ac032955afaa3e8e026554d46fa7",
      "blockNumber": 56560,
      "transactionIndex": 3,
      "confirmations": null,
      "from": "0xF2d2AfF1320476cb8C6b607199D23175cc595693",
      "gasPrice": {
        "_hex": "0xd640ed609"
      },
      "gasLimit": {
        "_hex": "0x15f90"
      },
      "to": "0xF5EeDc192aB70b08D8354384aD94efD095849E00",
      "value": {
        "_hex": "0x1314fb37062980000"
      },
      "nonce": 10,
      "data": "0x",
      "r": "0x92def748e2399529854cd8ba4958dea25942cdd8305f8da815327663b7b19f53",
      "s": "0x1d3e8215d35c87dda2ebc0821ae899988ca37c84d9cb59d58323d51893704a9e",
      "v": 28,
      "creates": null,
      "raw": "0xf86e0a850d640ed60983015f9094f5eedc192ab70b08d8354384ad94efd095849e008901314fb37062980000801ca092def748e2399529854cd8ba4958dea25942cdd8305f8da815327663b7b19f53a01d3e8215d35c87dda2ebc0821ae899988ca37c84d9cb59d58323d51893704a9e",
      "networkId": 0,
      "chainId": 0
    }
  ]
}