{
  "hash": "0x5d9f2b7ca48c198fa969127ad80f6e0673c390b95b3dd82e397f123d0ca36e54",
  "parentHash": "0x7432bca88700aada8583092f7f3b6ee6c03707fe8fdea0e5fd8c1091e37684f2",
  "number": 48173,
  "timestamp": 1438952908,
  "nonce": "0xb7f77217de1da5c6",
  "difficulty": 1457930540636,
  "gasLimit": {
    "_hex": "0x133e4"
  },
  "gasUsed": {
    "_hex": "0xa674"
  },
  "miner": "0xa50ec0D39fa913E62f1Bae7074E6F36caA71855b",
  "extraData": "0x476574682f76312e302e302f6c696e75782f676f312e342e32",
  "transactions": [
    {
      "hash": "0x467073eeba1aed22d1afccbc07bc6c4b3b7e54cc0895e5476d381db15c0e58e7",
      "blockHash": "0x5d9f2b7ca48c198fa969127ad80f6e0673c390b95b3dd82e397f123d0ca36e54",
      "blockNumber": 48173,
      "transactionIndex": 0,
      "confirmations": null,
      "from": "0x664B099B945b899AaC84DA69dd6D4eEb3D03c8a3",
      "gasPrice": {
        "_hex": "0x1176592e000"
      },
      "gasLimit": {
        "_hex": "0x55f0"
      },
      "to": "0x2910543Af39abA0Cd09dBb2D50200b3E800A63D2",
      "value": {
        "_hex": "0x732f860653be0000"
      },
      "nonce": 2,
      "data": "0x454e305941315a4338",
      "r": "0x37e4d781496b3df6a1bc8767d5afca33f305800cf4b4ff5dda0909cccec8950a",
      "s": "0xb747feb94def5e89f388b81fdbc9e556a385825edbb6114c003bf86a27943fbd",
      "v": 27,
      "creates": null,
      "raw": "0xf876028601176592e0008255f0942910543af39aba0cd09dbb2d50200b3e800a63d288732f860653be000089454e305941315a43381ba037e4d781496b3df6a1bc8767d5afca33f305800cf4b4ff5dda0909cccec8950aa0b747feb94def5e89f388b81fdbc9e556a385825edbb6114c003bf86a27943fbd",
      "networkId": 0,
      "chainId": 0
    },
    {
      "hash": "0x4f2e6103c5b6224fe4cb478b957215a71b0e8c0523c0ce41a80b7697dbea3cb1",
      "blockHash": "0x5d9f2b7ca48c198fa969127ad80f6e0673c390b95b3dd82e397f123d0ca36e54",
      "blockNumber": 48173,
      "transactionIndex": 1,
      "confirmations": null,
      "from": "0x91DBB6AaAD149585BE47375c5d6de5Ff09191518",
      "gasPrice": {
        "_hex": "0xdf8475800"
      },
      "gasLimit": {
        "_hex": "0x5208"
      },
      "to": null,
      "value": {
        "_hex": "0xde0b6b3a7640000"
      },
      "nonce": 3,
      "data": "0x",
      "r": "0x1813c0bd61f78c74355ef1fad5081ce6038094cbd1e8a958fbe3009260a87760",
      "s": "0x1eaf9117810a99c2717d161a8683add8c99d00395347daecca6d04b160aac611",
      "v": 27,
      "creates": "0xF0B0420788Efa4e6241Ed3fF5e88c092D7EE4FA3",
      "raw": "0xf85803850df847580082520880880de0b6b3a7640000801ba01813c0bd61f78c74355ef1fad5081ce6038094cbd1e8a958fbe3009260a87760a01eaf9117810a99c2717d161a8683add8c99d00395347daecca6d04b160aac611",
      "networkId": 0,
      "chainId": 0
    }
  ]
}