{
  "hash": "0xb2dbbd9870bb8e96f73d272aaf96110d16d6a4b661718dc9ce9f44a14614d4f3",
  "parentHash": "0x1747fdc744a0d1fd0f9df3e4c1548e20d7cc7803eacb1f1e4e4035c9fe8f84e4",
  "number": 54866,
  "timestamp": 1439061361,
  "nonce": "0xcfac48a48a36bdb6",
  "difficulty": 1610134617031,
  "gasLimit": {
    "_hex": "0x2fefd8"
  },
  "gasUsed": {
    "_hex": "0xf618"
  },
  "miner": "0x0338116f55fEd2F5ee9391C8624612Dc9744D149",
  "extraData": "0x476574682f76312e302e312f6c696e75782f676f312e342e32",
  "transactions": [
    {
      "hash": "0xf2d11cc3ffb7bff6b333577e2001efb9277462197d363047cf7fd5111bc4f63b",
      "blockHash": "0xb2dbbd9870bb8e96f73d272aaf96110d16d6a4b661718dc9ce9f44a14614d4f3",
      "blockNumber": 54866,
      "transactionIndex": 0,
      "confirmations": null,
      "from": "0x0998b6F1124aa2dB79848a78316a03A6bC8c880D",
      "gasPrice": {
        "_hex": "0xdb683b41e"
      },
      "gasLimit": {
        "_hex": "0x5208"
      },
      "to": "0x32Be343B94f860124dC4fEe278FDCBD38C102D88",
      "value": {
        "_hex": "0x159357a66a50ac0000"
      },
      "nonce": 1,
      "data": "0x",
      "r": "0x9de09433f945fd4acd34fec793a12bf6b7bcefb4b22642b9a045fa4f1353c8ce",
      "s": "0x779827d940fc9cf21fbd05c6ad66ba01f56274ada4ea390eef7657583304e7ac",
      "v": 27,
      "creates": null,
      "raw": "0xf86d01850db683b41e8252089432be343b94f860124dc4fee278fdcbd38c102d8889159357a66a50ac0000801ba09de09433f945fd4acd34fec793a12bf6b7bcefb4b22642b9a045fa4f1353c8cea0779827d940fc9cf21fbd05c6ad66ba01f56274ada4ea390eef7657583304e7ac",
      "networkId": 0,
      "chainId": 0
    },
    {
      "hash": "0x392b7b079d2686473c1329a10db52f9c85be6e02f0babe2b494c3e39b9a92c10",
      "blockHash": "0xb2dbbd9870bb8e96f73d272aaf96110d16d6a4b661718dc9ce9f44a14614d4f3",
      "blockNumber": 54866,
      "transactionIndex": 1,
      "confirmations": null,
      "from": "0x314c7Daa4825ffC0293819119c5FDCC0CcF19827",
      "gasPrice": {
        "_hex": "0xdb683b41e"
      },
      "gasLimit": {
        "_hex": "0x5208"
      },
      "to": "0x32Be343B94f860124dC4fEe278FDCBD38C102D88",
      "value": {
        "_hex": "0x21e19dc64d6c5800000"
      },
      "nonce": 1,
      "data": "0x",
      "r": "0x0646db35fd410b8102a320dd658930198b080e71f9628d08a17db00b0e16b0f7",
      "s": "0x4e740083116f2901ee79bb6abf8e1c13115205129926071a677f3cc2e14ed571",
      "v": 27,
      "creates": null,
      "raw": "0xf86e01850db683b41e8252089432be343b94f860124dc4fee278fdcbd38c102d888a021e19dc64d6c5800000801ba00646db35fd410b8102a320dd658930198b080e71f9628d08a17db00b0e16b0f7a04e740083116f2901ee79bb6abf8e1c13115205129926071a677f3cc2e14ed571",
      "networkId": 0,
      "chainId": 0
    },
    {
      "hash": "0xbf6eb2b88f00695b5c2cb1e04f35d91b7fcff8f05877be225ce3904915c08fe4",
      "blockHash": "0xb2dbbd9870bb8e96f73d272aaf96110d16d6a4b661718dc9ce9f44a14614d4f3",
      "blockNumber": 54866,
      "transactionIndex": 2,
      "confirmations": null,
      "from": "0x9aD28d4b9331aAC808DED237E46c6f5d69FCEDF6",
      "gasPrice": {
        "_hex": "0xdb683b41e"
      },
      "gasLimit": {
        "_hex": "0x5208"
      },
      "to": "0x32Be343B94f860124dC4fEe278FDCBD38C102D88",
      "value": {
        "_hex": "0x1a0510429b0ebd000"
      },
      "nonce": 1,
      "data": "0x",
      "r": "0x2d6aee51680895ebedf7441666c3e602095d85fb143290ba1f79662b0cd1a69a",
      "s": "0x4be35b2c6919d33e846c26bcbcd0e812fd68e938d15670f54f23e882c69ed335",
      "v": 27,
      "creates": null,
      "raw": "0xf86d01850db683b41e8252089432be343b94f860124dc4fee278fdcbd38c102d888901a0510429b0ebd000801ba02d6aee51680895ebedf7441666c3e602095d85fb143290ba1f79662b0cd1a69aa04be35b2c6919d33e846c26bcbcd0e812fd68e938d15670f54f23e882c69ed335",
      "networkId": 0,
      "chainId": 0
    }
  ]
}