{
  "hash": "0x21696d9a898131e1da55433ee9ba9ed26c0db568c23333a5be2f7a32dc2e92de",
  "parentHash": "0x450597c649a26b6f3d837de584511f2636d79172c02082bdb06a0e3aa574f78b",
  "number": 87079,
  "timestamp": 1439586822,
  "nonce": "0x762c8eb4acebb270",
  "difficulty": 3039332460713,
  "gasLimit": {
    "_hex": "0x2fefd8"
  },
  "gasUsed": {
    "_hex": "0x546c"
  },
  "miner": "0x123843545FB525C8E134c9A5F15ADA6865cc3848",
  "extraData": "0x476574682f76312e302e312f77696e646f77732f676f312e342e32",
  "transactions": [
    {
      "hash": "0x252547805cd3983f06debc157564246cee44ec4e1e3ca4f9d983348d9d59a53f",
      "blockHash": "0x21696d9a898131e1da55433ee9ba9ed26c0db568c23333a5be2f7a32dc2e92de",
      "blockNumber": 87079,
      "transactionIndex": 0,
      "confirmations": null,
      "from": "0x7b1fe1ab4Dfd0088CDD7F60163Ef59ec2aee06f5",
      "gasPrice": {
        "_hex": "0x110c8f7d8de"
      },
      "gasLimit": {
        "_hex": "0xc350"
      },
      "to": "0x2910543Af39abA0Cd09dBb2D50200b3E800A63D2",
      "value": {
        "_hex": "0xde0b6b3a7640000"
      },
      "nonce": 0,
      "data": "0x454e5551504d373438",
      "r": "0x4ad13f6d065127b5bf3df40a188b4f9d84c39ff92b034de4bc91a4b9e1aebd43",
      "s": "0x7a2f5b6ae4edc73d3fc2f2bbe52062f16263239d360d830090a227309569e8d8",
      "v": 27,
      "creates": null,
      "raw": "0xf87680860110c8f7d8de82c350942910543af39aba0cd09dbb2d50200b3e800a63d2880de0b6b3a764000089454e5551504d3734381ba04ad13f6d065127b5bf3df40a188b4f9d84c39ff92b034de4bc91a4b9e1aebd43a07a2f5b6ae4edc73d3fc2f2bbe52062f16263239d360d830090a227309569e8d8",
      "networkId": 0,
      "chainId": 0
    }
  ]
}