{
  "hash": "0x289290f95f03adfc79858b4637432248241968ba1e54deab8f40845f3f8ce1fe",
  "parentHash": "0xb9d9f9f25617952f83b225b2c4a3b08a111c04cc0f943d8277581634b7b8af8e",
  "number": 118972,
  "timestamp": 1440134547,
  "nonce": "0x9428c6766a44496a",
  "difficulty": 4420505085985,
  "gasLimit": {
    "_hex": "0x2fefd8"
  },
  "gasUsed": {
    "_hex": "0x5208"
  },
  "miner": "0x7e8504a5e26df87f6D26fA1ba148BE146F42775A",
  "extraData": "0x",
  "transactions": [
    {
      "hash": "0x5169be96df4d87e65fed771a973ef4a12aa1ee7a84f4e2f65bc959c9379da863",
      "blockHash": "0x289290f95f03adfc79858b4637432248241968ba1e54deab8f40845f3f8ce1fe",
      "blockNumber": 118972,
      "transactionIndex": 0,
      "confirmations": null,
      "from": "0x1C9E954d10cfcE921f4692F922A50D4da0812E69",
      "gasPrice": {
        "_hex": "0xba43b7400"
      },
      "gasLimit": {
        "_hex": "0x7a120"
      },
      "to": "0x277dD9dFff8dfd4D74C63f7d9002cFF80b8161d2",
      "value": {
        "_hex": "0xde0b6b3a7640000"
      },
      "nonce": 0,
      "data": "0x",
      "r": "0x0f92bb172f2f7d1308db64bf5e846cbcf8a6fe7d49ae2fe268b21f964bb0fe7c",
      "s": "0x0f57b5626f6651dc46283d94543dab92793bbab18fe28ea570506b61acc80d74",
      "v": 27,
      "creates": null,
      "raw": "0xf86d80850ba43b74008307a12094277dd9dfff8dfd4d74c63f7d9002cff80b8161d2880de0b6b3a7640000801ba00f92bb172f2f7d1308db64bf5e846cbcf8a6fe7d49ae2fe268b21f964bb0fe7ca00f57b5626f6651dc46283d94543dab92793bbab18fe28ea570506b61acc80d74",
      "networkId": 0,
      "chainId": 0
    }
  ]
}