{
  "hash": "0x8d1c15aaae22f4828c4eeb919288d9b363f87a49a7146e0b102446d4bc641fa4",
  "parentHash": "0xd542257c4ad25867110611f57112a50a3dfcbc33a83bd07453aee7d1afe08794",
  "number": 54264,
  "timestamp": 1439051408,
  "nonce": "0x00e9a4e44a141477",
  "difficulty": 1605539544407,
  "gasLimit": {
    "_hex": "0x2fefd8"
  },
  "gasUsed": {
    "_hex": "0x5208"
  },
  "miner": "0xeB1325C8D9d3ea8D74aC11F4B00F1B2367686319",
  "extraData": "0x476574682f76312e302e312f77696e646f77732f676f312e342e32",
  "transactions": [
    {
      "hash": "0x13c18d68e14d0389d9944081e8e5d57e09e24ad9a04de1a168d81e7c5e6f7d75",
      "blockHash": "0x8d1c15aaae22f4828c4eeb919288d9b363f87a49a7146e0b102446d4bc641fa4",
      "blockNumber": 54264,
      "transactionIndex": 0,
      "confirmations": null,
      "from": "0xB203D29e6c56b92699c4B92D1f6F84648dc4cFBc",
      "gasPrice": {
        "_hex": "0xd641f460d"
      },
      "gasLimit": {
        "_hex": "0x15f90"
      },
      "to": "0x50E13023bD9CA96ad4C53fdfd410CB6b1f420Bdf",
      "value": {
        "_hex": "0x15aef9f1c31c7f0000"
      },
      "nonce": 0,
      "data": "0x",
      "r": "0xa535fe49a9f7340b8535862f40a371087738f3312dd36d6d005d6a95af37b4cc",
      "s": "0x36b95d776cf2d0c94cb82b15e0b7d29ef92a2c140f293493229decc2abc247f5",
      "v": 28,
      "creates": null,
      "raw": "0xf86e80850d641f460d83015f909450e13023bd9ca96ad4c53fdfd410cb6b1f420bdf8915aef9f1c31c7f0000801ca0a535fe49a9f7340b8535862f40a371087738f3312dd36d6d005d6a95af37b4cca036b95d776cf2d0c94cb82b15e0b7d29ef92a2c140f293493229decc2abc247f5",
      "networkId": 0,
      "chainId": 0
    }
  ]
}