{
  "hash": "0xff7ed0806b5f324556aeb444de1162f262599b6f6355375a3adab9630e4f06e8",
  "parentHash": "0xc69f797478a6112fd946d8872dc17762ab37346bd2bbc5c61ac9d3f7ec65e485",
  "number": 48468,
  "timestamp": 1438957581,
  "nonce": "0x06370795c94507c1",
  "difficulty": 1464300065247,
  "gasLimit": {
    "_hex": "0x17ad8"
  },
  "gasUsed": {
    "_hex": "0x546c"
  },
  "miner": "0xe6A7a1d47ff21B6321162AEA7C6CB457D5476Bca",
  "extraData": "0x657468706f6f6c2e6f7267",
  "transactions": [
    {
      "hash": "0xcca32d42b598471dd13cf66384ba02943b3f2e765a9216d4746472e8b8d68f9a",
      "blockHash": "0xff7ed0806b5f324556aeb444de1162f262599b6f6355375a3adab9630e4f06e8",
      "blockNumber": 48468,
      "transactionIndex": 0,
      "confirmations": null,
      "from": "0x8B7780A94a7F4d3fE19fcBB9494Fd04dEBc2035E",
      "gasPrice": {
        "_hex": "0xcdcb9992f"
      },
      "gasLimit": {
        "_hex": "0x15f90"
      },
      "to": "0x2910543Af39abA0Cd09dBb2D50200b3E800A63D2",
      "value": {
        "_hex": "0xdbd2fc137a30000"
      },
      "nonce": 1,
      "data": "0x454e324b3536505238",
      "r": "0x7b365e828391c287846e022701ce951c3e9f59afa80283ed10a4772f5152a1d0",
      "s": "0x0c4211633d5bcc86882cb4f5735ad28373189d5eef63b261ee64869f05b001d3",
      "v": 27,
      "creates": null,
      "raw": "0xf87601850cdcb9992f83015f90942910543af39aba0cd09dbb2d50200b3e800a63d2880dbd2fc137a3000089454e324b35365052381ba07b365e828391c287846e022701ce951c3e9f59afa80283ed10a4772f5152a1d0a00c4211633d5bcc86882cb4f5735ad28373189d5eef63b261ee64869f05b001d3",
      "networkId": 0,
      "chainId": 0
    }
  ]
}