{
  "hash": "0x96249b8f0266fc3f3c724f44f2b5a44d14bcda657f37b3d7327e7c596dfb6083",
  "parentHash": "0xf99cecd38a25481c44c2cfdfa1fab8b5813e20fe208e2130e105646591ca1887",
  "number": 77669,
  "timestamp": 1439440817,
  "nonce": "0x5e4948c2c390daf6",
  "difficulty": 2270025108389,
  "gasLimit": {
    "_hex": "0x2fefd8"
  },
  "gasUsed": {
    "_hex": "0x5208"
  },
  "miner": "0xe6A7a1d47ff21B6321162AEA7C6CB457D5476Bca",
  "extraData": "0x476574682f76312e302e312d38326566323666362f6c696e75782f676f312e34",
  "transactions": [
    {
      "hash": "0xc8dc9c54907b634b83c104a7628879d5ca3e1cfae9ac3dfd01a042fda279093c",
      "blockHash": "0x96249b8f0266fc3f3c724f44f2b5a44d14bcda657f37b3d7327e7c596dfb6083",
      "blockNumber": 77669,
      "transactionIndex": 0,
      "confirmations": null,
      "from": "0xC603Ab5ef41fC61AA8b76bEddb09e3Cfcbb174BD",
      "gasPrice": {
        "_hex": "0xd08d5607c"
      },
      "gasLimit": {
        "_hex": "0x15f90"
      },
      "to": "0x8F79f76381Aad7B98C19aF55eE75fdfEeb012211",
      "value": {
        "_hex": "0x22b1c8c1227a00000"
      },
      "nonce": 5,
      "data": "0x",
      "r": "0x4e9bcf34e05eabc7dd615bc47ee6a726d764de4fae9369dcc50fbd1458abbc72",
      "s": "0x33dddd177625af730802613a7c0d34d856181b078f89d2d47b9dd9076b564a0d",
      "v": 28,
      "creates": null,
      "raw": "0xf86e05850d08d5607c83015f90948f79f76381aad7b98c19af55ee75fdfeeb01221189022b1c8c1227a00000801ca04e9bcf34e05eabc7dd615bc47ee6a726d764de4fae9369dcc50fbd1458abbc72a033dddd177625af730802613a7c0d34d856181b078f89d2d47b9dd9076b564a0d",
      "networkId": 0,
      "chainId": 0
    }
  ]
}