{
  "hash": "0x42adcd1503d55698cfbf74c8c166fba25857af987781cf2f7713c63ee75a6064",
  "parentHash": "0x8c17325fba4b301b95cf5c8dddf549e12bd1eddd1620094cf3a98da8afb08d60",
  "number": 121591,
  "timestamp": 1440179558,
  "nonce": "0x629c4708c88ef70a",
  "difficulty": 4442924573895,
  "gasLimit": {
    "_hex": "0x2fefd8"
  },
  "gasUsed": {
    "_hex": "0x5208"
  },
  "miner": "0xe6A7a1d47ff21B6321162AEA7C6CB457D5476Bca",
  "extraData": "0xd783010002844765746887676f312e342e32856c696e7578",
  "transactions": [
    {
      "hash": "0x92136b3b637cf96b7607f55dde2ad41cd41df9e3d2430c1fd255479a19a12219",
      "blockHash": "0x42adcd1503d55698cfbf74c8c166fba25857af987781cf2f7713c63ee75a6064",
      "blockNumber": 121591,
      "transactionIndex": 0,
      "confirmations": null,
      "from": "0x32Be343B94f860124dC4fEe278FDCBD38C102D88",
      "gasPrice": {
        "_hex": "0xba43b7400"
      },
      "gasLimit": {
        "_hex": "0x5208"
      },
      "to": "0x9aFe1b069e1aBbedA82317dF1D371c82c91ca271",
      "value": {
        "_hex": "0x8aa39c121a270000"
      },
      "nonce": 1565,
      "data": "0x",
      "r": "0x729df54bb1e41fbf76c16268ef62e82b29a077f6f63a824bbeb5117c5c42b802",
      "s": "0x00f62eaff80a26a705ab6db0a94289be58ca91c444e0d2b55688fa6f5f8b78ae",
      "v": 28,
      "creates": null,
      "raw": "0xf86d82061d850ba43b7400825208949afe1b069e1abbeda82317df1d371c82c91ca271888aa39c121a270000801ca0729df54bb1e41fbf76c16268ef62e82b29a077f6f63a824bbeb5117c5c42b8029ff62eaff80a26a705ab6db0a94289be58ca91c444e0d2b55688fa6f5f8b78ae",
      "networkId": 0,
      "chainId": 0
    }
  ]
}