{
  "hash": "0x07785979d515c32bd585fe2017c122f6001bddc145c499dbbeaac140090976f5",
  "parentHash": "0x0f38931841a7a1e645f1bde8747df3e9262c6ef20eb71aabda6b4bdc263b72a6",
  "number": 55216,
  "timestamp": 1439067116,
  "nonce": "0xe21bba292fb5923d",
  "difficulty": 1638619619031,
  "gasLimit": {
    "_hex": "0x2fefd5"
  },
  "gasUsed": {
    "_hex": "0x5208"
  },
  "miner": "0xbe4532E1B1Db5c913Cf553be76180c1777055403",
  "extraData": "0x476574682f686261722f76312e302e312f6c696e75782f676f312e342e32",
  "transactions": [
    {
      "hash": "0x15a43ddda9cefb84af2d76114d4a807fc5f4c1a0915c62806da5a3e440bbeb2a",
      "blockHash": "0x07785979d515c32bd585fe2017c122f6001bddc145c499dbbeaac140090976f5",
      "blockNumber": 55216,
      "transactionIndex": 0,
      "confirmations": null,
      "from": "0x32Be343B94f860124dC4fEe278FDCBD38C102D88",
      "gasPrice": {
        "_hex": "0xe7024d3df"
      },
      "gasLimit": {
        "_hex": "0x5208"
      },
      "to": "0x8394A052eb6c32FB9DEFcAabc12fCBD8FEA0B8A8",
      "value": {
        "_hex": "0x340874b28cbaf0000"
      },
      "nonce": 64,
      "data": "0x",
      "r": "0x607f1111b034a69e3b1d8e450a4abb2f1da55db16bf14013e4d0e1dbf66ece14",
      "s": "0x036978ad57fc8c4e8c549f4a90b6260a23d0659a104af51a79bd5083226983d7",
      "v": 27,
      "creates": null,
      "raw": "0xf86d40850e7024d3df825208948394a052eb6c32fb9defcaabc12fcbd8fea0b8a8890340874b28cbaf0000801ba0607f1111b034a69e3b1d8e450a4abb2f1da55db16bf14013e4d0e1dbf66ece14a0036978ad57fc8c4e8c549f4a90b6260a23d0659a104af51a79bd5083226983d7",
      "networkId": 0,
      "chainId": 0
    }
  ]
}