{
  "hash": "0x87b8e4b9ac4958aa8f6a87d9ddb9b9cfd2f1c6b580879bdf346d49e5e97fce7e",
  "parentHash": "0x820e18ce5b2dcb652b5edfce5954b381dc53bc76d72ca35c6f45b4e03f5fda6f",
  "number": 48947,
  "timestamp": 1438965444,
  "nonce": "0xfdecdd2c2bb70b4e",
  "difficulty": 1483647897360,
  "gasLimit": {
    "_hex": "0x21b5a"
  },
  "gasUsed": {
    "_hex": "0x546c"
  },
  "miner": "0xe6A7a1d47ff21B6321162AEA7C6CB457D5476Bca",
  "extraData": "0x657468706f6f6c2e6f7267",
  "transactions": [
    {
      "hash": "0xbb3fa1d0a24a9b6fb64b360d83fb20330db2bb2ea377f7b581bedcd596e77bca",
      "blockHash": "0x87b8e4b9ac4958aa8f6a87d9ddb9b9cfd2f1c6b580879bdf346d49e5e97fce7e",
      "blockNumber": 48947,
      "transactionIndex": 0,
      "confirmations": null,
      "from": "0x8E61bF5A2e46D15774172781Cf100ED0962cBb63",
      "gasPrice": {
        "_hex": "0xdd808f778"
      },
      "gasLimit": {
        "_hex": "0x15f90"
      },
      "to": "0x2910543Af39abA0Cd09dBb2D50200b3E800A63D2",
      "value": {
        "_hex": "0x78903338be34c0000"
      },
      "nonce": 2,
      "data": "0x454e4b353254563252",
      "r": "0x69b8d8b4bea2eacae4bac8023ef3053890c60850879cb288405d54d5fa5136e7",
      "s": "0x59d28013644d550662cf4b7b3208a7efccc966fb651f83093de8f35b58f66f91",
      "v": 28,
      "creates": null,
      "raw": "0xf87702850dd808f77883015f90942910543af39aba0cd09dbb2d50200b3e800a63d289078903338be34c000089454e4b3532545632521ca069b8d8b4bea2eacae4bac8023ef3053890c60850879cb288405d54d5fa5136e7a059d28013644d550662cf4b7b3208a7efccc966fb651f83093de8f35b58f66f91",
      "networkId": 0,
      "chainId": 0
    }
  ]
}