{
  "hash": "0x3658a236dd1a3a174c87e7066a8760a9dd74d6941c433d5e547d00719d4a5213",
  "parentHash": "0x14345b99a19b6a627fd65f614eab452299eb5cb24e561a135a030bffbe44e1d0",
  "number": 105420,
  "timestamp": 1439887270,
  "nonce": "0xdb18b0ada27829d9",
  "difficulty": 4371797157293,
  "gasLimit": {
    "_hex": "0x2fefd8"
  },
  "gasUsed": {
    "_hex": "0x14820"
  },
  "miner": "0xe6A7a1d47ff21B6321162AEA7C6CB457D5476Bca",
  "extraData": "0x476574682f76312e302e312d38326566323666362f6c696e75782f676f312e34",
  "transactions": [
    {
      "hash": "0xf51ee27fa592ced70593f10da4c8e35876bc944dd286cb0268c49a8e4309f40d",
      "blockHash": "0x3658a236dd1a3a174c87e7066a8760a9dd74d6941c433d5e547d00719d4a5213",
      "blockNumber": 105420,
      "transactionIndex": 0,
      "confirmations": null,
      "from": "0x120A270bbC009644e35F0bB6ab13f95b8199c4ad",
      "gasPrice": {
        "_hex": "0xcceacfed6"
      },
      "gasLimit": {
        "_hex": "0x3d090"
      },
      "to": "0x480fC9313233A9a1896eDd5109FccA26b79dB731",
      "value": {
        "_hex": "0x1fa3ce9156b6c00"
      },
      "nonce": 768,
      "data": "0x",
      "r": "0xed07120ee9bb3c41b007179bb308c361c4761993c55f046f5149f6bffd59c9f1",
      "s": "0x7e88fa6dd79b3502c3f98dce4040feb43f0d930faa8499c6b0ddaf03d55eafd9",
      "v": 28,
      "creates": null,
      "raw": "0xf86f820300850cceacfed68303d09094480fc9313233a9a1896edd5109fcca26b79db7318801fa3ce9156b6c00801ca0ed07120ee9bb3c41b007179bb308c361c4761993c55f046f5149f6bffd59c9f1a07e88fa6dd79b3502c3f98dce4040feb43f0d930faa8499c6b0ddaf03d55eafd9",
      "networkId": 0,
      "chainId": 0
    },
    {
      "hash": "0xdc543a3467b565dea74a70431385d506046978d415b0c4208aaa5faaaff374a4",
      "blockHash": "0x3658a236dd1a3a174c87e7066a8760a9dd74d6941c433d5e547d00719d4a5213",
      "blockNumber": 105420,
      "transactionIndex": 1,
      "confirmations": null,
      "from": "0xEa4933866ad977Ce24bBb244ECc2C79463454Fe4",
      "gasPrice": {
        "_hex": "0xcc5c30fc4"
      },
      "gasLimit": {
        "_hex": "0x5208"
      },
      "to": "0x32Be343B94f860124dC4fEe278FDCBD38C102D88",
      "value": {
        "_hex": "0x742689b577677400"
      },
      "nonce": 4,
      "data": "0x",
      "r": "0x0b38f5949ac71b4f54426c737335c923b9ab83fbe7d1fcac0d5a90f4692d3e77",
      "s": "0x5bca488e0e6b28d9179f214e7a39a4fc1ab94ceb3950d95400afaa6dc4ff9667",
      "v": 27,
      "creates": null,
      "raw": "0xf86c04850cc5c30fc48252089432be343b94f860124dc4fee278fdcbd38c102d8888742689b577677400801ba00b38f5949ac71b4f54426c737335c923b9ab83fbe7d1fcac0d5a90f4692d3e77a05bca488e0e6b28d9179f214e7a39a4fc1ab94ceb3950d95400afaa6dc4ff9667",
      "networkId": 0,
      "chainId": 0
    },
    {
      "hash": "0xc78a0a9c01f28919b65d71d33be5265e121065545e0b2b06693def5c06db7fb1",
      "blockHash": "0x3658a236dd1a3a174c87e7066a8760a9dd74d6941c433d5e547d00719d4a5213",
      "blockNumber": 105420,
      "transactionIndex": 2,
      "confirmations": null,
      "from": "0x285B048CC4cB946abCF3eF11aDe982C36946AF18",
      "gasPrice": {
        "_hex": "0xcc5c30fc4"
      },
      "gasLimit": {
        "_hex": "0x5208"
      },
      "to": "0x32Be343B94f860124dC4fEe278FDCBD38C102D88",
      "value": {
        "_hex": "0x176af2d336cb82000"
      },
      "nonce": 15,
      "data": "0x",
      "r": "0xcb998efe076a7360b28a161203ee563ff3dfee2a40002eadd5dce77fb73775fb",
      "s": "0x34e3546e93f26d88633c0c802614b356a5bda30e1e00d1bf6a5f16c123a86929",
      "v": 28,
      "creates": null,
      "raw": "0xf86d0f850cc5c30fc48252089432be343b94f860124dc4fee278fdcbd38c102d88890176af2d336cb82000801ca0cb998efe076a7360b28a161203ee563ff3dfee2a40002eadd5dce77fb73775fba034e3546e93f26d88633c0c802614b356a5bda30e1e00d1bf6a5f16c123a86929",
      "networkId": 0,
      "chainId": 0
    },
    {
      "hash": "0x163ef22987d3e36572b47003d1455fb766bb49ec00829487b3731480986e36f4",
      "blockHash": "0x3658a236dd1a3a174c87e7066a8760a9dd74d6941c433d5e547d00719d4a5213",
      "blockNumber": 105420,
      "transactionIndex": 3,
      "confirmations": null,
      "from": "0xe535C1c29F0091324F184de7a5be5520D1b0b008",
      "gasPrice": {
        "_hex": "0xcc5c30fc4"
      },
      "gasLimit": {
        "_hex": "0x5208"
      },
      "to": "0x32Be343B94f860124dC4fEe278FDCBD38C102D88",
      "value": {
        "_hex": "0x4d6caf6f12fcf400"
      },
      "nonce": 5,
      "data": "0x",
      "r": "0x1272378f8968a7b0fac9b9189cf55665efd5ffd6ecb58ce58246c88cdcbcb9fe",
      "s": "0x6bc85b0ad68ef7067b8347f8ff543a59cb2f1a8e3d480df9488d620d24ffcd06",
      "v": 28,
      "creates": null,
      "raw": "0xf86c05850cc5c30fc48252089432be343b94f860124dc4fee278fdcbd38c102d88884d6caf6f12fcf400801ca01272378f8968a7b0fac9b9189cf55665efd5ffd6ecb58ce58246c88cdcbcb9fea06bc85b0ad68ef7067b8347f8ff543a59cb2f1a8e3d480df9488d620d24ffcd06",
      "networkId": 0,
      "chainId": 0
    }
  ]
}