{
  "hash": "0x99f39c18b62a57d95b5e30c127f5a3623c64b3b3424ba549a031847e442c0508",
  "parentHash": "0x88ed3872d526a99e0670158460b683323b7d3ab62c52a550c5e794ecf2c68147",
  "number": 94507,
  "timestamp": 1439709598,
  "nonce": "0xca924215e68a8d82",
  "difficulty": 3478129389622,
  "gasLimit": {
    "_hex": "0x2fefd8"
  },
  "gasUsed": {
    "_hex": "0x5208"
  },
  "miner": "0xbb7B8287f3F0a933474a79eAe42CBCa977791171",
  "extraData": "0x476574682f4c5649562f76312e302e312f6c696e75782f676f312e342e32",
  "transactions": [
    {
      "hash": "0xbfcf301a7717b17a1f5692d89b66197829f17896999f4a1f85b6ac3164e84771",
      "blockHash": "0x99f39c18b62a57d95b5e30c127f5a3623c64b3b3424ba549a031847e442c0508",
      "blockNumber": 94507,
      "transactionIndex": 0,
      "confirmations": null,
      "from": "0x7D60e9b25EaBC5f5971381c991D4757D07a2a51F",
      "gasPrice": {
        "_hex": "0x746a528800"
      },
      "gasLimit": {
        "_hex": "0x5208"
      },
      "to": "0x0DBaD90C967BFfeA4d6B589c0d2AF50A0eA16304",
      "value": {
        "_hex": "0x1a078f0000d790000"
      },
      "nonce": 2,
      "data": "0x",
      "r": "0x77a5abe499de5843c7fa546893406b6c74d713416fbad54ed3501b6227929017",
      "s": "0x08c3a7f92a7bf9656c0f09fa2adf5f64a15829d352442a7fe9e49523efb5f62b",
      "v": 28,
      "creates": null,
      "raw": "0xf86d0285746a528800825208940dbad90c967bffea4d6b589c0d2af50a0ea163048901a078f0000d790000801ca077a5abe499de5843c7fa546893406b6c74d713416fbad54ed3501b6227929017a008c3a7f92a7bf9656c0f09fa2adf5f64a15829d352442a7fe9e49523efb5f62b",
      "networkId": 0,
      "chainId": 0
    }
  ]
}