{
  "hash": "0x2cd37d27681b419f84dbe33984bb7d3e49e10a88547f11fa72eb259d50bac541",
  "parentHash": "0x9ecbd47f91ebfd0b98b2d6d7f46b55fc735d083bf4ad97c2d06c7141694056bc",
  "number": 48203,
  "timestamp": 1438953338,
  "nonce": "0x8aed7650d7b10469",
  "difficulty": 1457925326678,
  "gasLimit": {
    "_hex": "0x13ad0"
  },
  "gasUsed": {
    "_hex": "0x5208"
  },
  "miner": "0x0A63E1A8C33e351679e3581AC84ce341C32f813a",
  "extraData": "0x476574682f76312e302e312d38326566323666362f6c696e75782f676f312e34",
  "transactions": [
    {
      "hash": "0x89c22c3ba6622fbc5d04685140cd30dcd6f9edad095adae748e4d9476587376a",
      "blockHash": "0x2cd37d27681b419f84dbe33984bb7d3e49e10a88547f11fa72eb259d50bac541",
      "blockNumber": 48203,
      "transactionIndex": 0,
      "confirmations": null,
      "from": "0x53c5Fe0119e1E848640cEe30aDEA96940F2a5d8B",
      "gasPrice": {
        "_hex": "0xe8d4a51000"
      },
      "gasLimit": {
        "_hex": "0x5208"
      },
      "to": "0xd0b1b8656e589cFB61b5643837bDE52B30E921f9",
      "value": {
        "_hex": "0x49ad36f4d6738d60000"
      },
      "nonce": 0,
      "data": "0x",
      "r": "0xdf36d4466017213c3f2b954e191b0b824625fd3a376fb3c5d55be77332793350",
      "s": "0x6f6ed3b11d245f516fca99024ae85d030aabeef08bc02e8582388c10f806d1a5",
      "v": 28,
      "creates": null,
      "raw": "0xf86e8085e8d4a5100082520894d0b1b8656e589cfb61b5643837bde52b30e921f98a049ad36f4d6738d60000801ca0df36d4466017213c3f2b954e191b0b824625fd3a376fb3c5d55be77332793350a06f6ed3b11d245f516fca99024ae85d030aabeef08bc02e8582388c10f806d1a5",
      "networkId": 0,
      "chainId": 0
    }
  ]
}