{
  "hash": "0xd269b66033b1d94d2ac511e986490ed222364984e55e73e80e6ee133d44ff65a",
  "parentHash": "0x7a5fe833cdfd15d5e99d9f50106eff7cf7e44abab17f24081dd9015e21ecc342",
  "number": 56109,
  "timestamp": 1439082065,
  "nonce": "0x3b1ebc05a702db7f",
  "difficulty": 1637645364007,
  "gasLimit": {
    "_hex": "0x2fefd2"
  },
  "gasUsed": {
    "_hex": "0x5208"
  },
  "miner": "0x4245FB34599786Dd82dB47c0f4f2B276001a72CF",
  "extraData": "0x476574682f76312e302e312f77696e646f77732f676f312e342e32",
  "transactions": [
    {
      "hash": "0x92e36ad78ca953d41df89e60485cff33435caa979f256e9daf5a14414dd95d97",
      "blockHash": "0xd269b66033b1d94d2ac511e986490ed222364984e55e73e80e6ee133d44ff65a",
      "blockNumber": 56109,
      "transactionIndex": 0,
      "confirmations": null,
      "from": "0x646628a53c2c4193da88359ce718daDD92b7A48D",
      "gasPrice": {
        "_hex": "0xba43b7400"
      },
      "gasLimit": {
        "_hex": "0x5208"
      },
      "to": "0x632bb14025BA69A50f8C99F962998F06b70F76b4",
      "value": {
        "_hex": "0xad7fcb13731ec6000"
      },
      "nonce": 0,
      "data": "0x",
      "r": "0x1f6b8f5ef65fc3a5849a74c00a3c5ce5b9dbcf21ae6af843343daedc28e52dff",
      "s": "0xeea21e978842aaac55abf3828e7171d4690a3d718fb1fa549a2929e753b3a0d2",
      "v": 27,
      "creates": null,
      "raw": "0xf86d80850ba43b740082520894632bb14025ba69a50f8c99f962998f06b70f76b4890ad7fcb13731ec6000801ba01f6b8f5ef65fc3a5849a74c00a3c5ce5b9dbcf21ae6af843343daedc28e52dffa0eea21e978842aaac55abf3828e7171d4690a3d718fb1fa549a2929e753b3a0d2",
      "networkId": 0,
      "chainId": 0
    }
  ]
}