{
  "hash": "0x36d2aff4b0ff8fa77930cc58372c229117369ed5092d8afb02fcead5e4d1cd03",
  "parentHash": "0xdf7ca4b3bb3cad12b0267d8831afc05b7fe368f3dc34454966a72dc24cc422cb",
  "number": 73118,
  "timestamp": 1439363347,
  "nonce": "0xb338b2609a1060be",
  "difficulty": 2221895712319,
  "gasLimit": {
    "_hex": "0x2fefd8"
  },
  "gasUsed": {
    "_hex": "0x5208"
  },
  "miner": "0x0eDEd3DA479d0beF8eeC92A76644D3f4E3C177f7",
  "extraData": "0x476574682f76312e302e312f6c696e75782f676f312e342e32",
  "transactions": [
    {
      "hash": "0x5223e886dab5eeb0dc5a1f8913d39bddce1acb6026fefc3a6b9c3de4b298527f",
      "blockHash": "0x36d2aff4b0ff8fa77930cc58372c229117369ed5092d8afb02fcead5e4d1cd03",
      "blockNumber": 73118,
      "transactionIndex": 0,
      "confirmations": null,
      "from": "0x40B9b889A21Ff1534d018D71Dc406122EBcf3F5A",
      "gasPrice": {
        "_hex": "0x10aff5af5c9"
      },
      "gasLimit": {
        "_hex": "0x15f90"
      },
      "to": "0x50Da60D4Da4c04E154eA22AF84437e69Dd6dA401",
      "value": {
        "_hex": "0x16345785d8a0000"
      },
      "nonce": 2,
      "data": "0x",
      "r": "0xcd4de75a41c0f35cdc0b7adfb19fdd4302bebf3a03066fd0f1019061014ad3b3",
      "s": "0x6a7bed8e985390b4c1530d8a4649b3439dd7246d9e5557b5a7465361c3d7b19b",
      "v": 28,
      "creates": null,
      "raw": "0xf86e0286010aff5af5c983015f909450da60d4da4c04e154ea22af84437e69dd6da40188016345785d8a0000801ca0cd4de75a41c0f35cdc0b7adfb19fdd4302bebf3a03066fd0f1019061014ad3b3a06a7bed8e985390b4c1530d8a4649b3439dd7246d9e5557b5a7465361c3d7b19b",
      "networkId": 0,
      "chainId": 0
    }
  ]
}