{
  "hash": "0x0f3d2fcc5b0e5726d0150baf8c9ee6f023282f20f4bc077b32df9b42b3f8310c",
  "parentHash": "0x0f6b6e450bedc2bb06634aeea7e25c823d327703987b836240f50d4738a4c4d5",
  "number": 108195,
  "timestamp": 1439935986,
  "nonce": "0xd0bf5b0973e4c1f0",
  "difficulty": 4363953985053,
  "gasLimit": {
    "_hex": "0x2fefd8"
  },
  "gasUsed": {
    "_hex": "0x5208"
  },
  "miner": "0xe6A7a1d47ff21B6321162AEA7C6CB457D5476Bca",
  "extraData": "0x476574682f76312e302e312d38326566323666362f6c696e75782f676f312e34",
  "transactions": [
    {
      "hash": "0xe629a3a5ba5ddffea91ae64c20c43d9295e50acfd0026844751ddc396c514946",
      "blockHash": "0x0f3d2fcc5b0e5726d0150baf8c9ee6f023282f20f4bc077b32df9b42b3f8310c",
      "blockNumber": 108195,
      "transactionIndex": 0,
      "confirmations": null,
      "from": "0x3f6da2f18Ce077B065ac7bcae884bF439a222B35",
      "gasPrice": {
        "_hex": "0xdbebb0e14"
      },
      "gasLimit": {
        "_hex": "0x5208"
      },
      "to": "0xFBb1b73C4f0BDa4f67dcA266ce6Ef42f520fBB98",
      "value": {
        "_hex": "0x56bc2f6a782b52760"
      },
      "nonce": 4,
      "data": "0x",
      "r": "0x0a0e68d6081876b27e9987cdee6e04c84eb2b62cccf9ac1e2f9cd88432f26889",
      "s": "0x5d098055bec12e3da21f337f65e1aacffd6b95a1cb0a002c05f170eaee423121",
      "v": 28,
      "creates": null,
      "raw": "0xf86d04850dbebb0e1482520894fbb1b73c4f0bda4f67dca266ce6ef42f520fbb9889056bc2f6a782b52760801ca00a0e68d6081876b27e9987cdee6e04c84eb2b62cccf9ac1e2f9cd88432f26889a05d098055bec12e3da21f337f65e1aacffd6b95a1cb0a002c05f170eaee423121",
      "networkId": 0,
      "chainId": 0
    }
  ]
}