{
  "hash": "0xfe01b6032242547f2221a0013954a31f7a73455e84738b11bb077b9d5b371b55",
  "parentHash": "0xa3764a0082e8f2965b92a283a22831b86892a96a5d3499ea1d38828e779b9c94",
  "number": 92949,
  "timestamp": 1439679763,
  "nonce": "0x9d4c4e8e78728151",
  "difficulty": 3659994335238,
  "gasLimit": {
    "_hex": "0x2fefd8"
  },
  "gasUsed": {
    "_hex": "0x5208"
  },
  "miner": "0xe6A7a1d47ff21B6321162AEA7C6CB457D5476Bca",
  "extraData": "0x476574682f76312e302e312d38326566323666362f6c696e75782f676f312e34",
  "transactions": [
    {
      "hash": "0x2c88491c74fa9d0d52d80baf1a6bcf9017f981354e18fa1c7cadf95f14ac9cf4",
      "blockHash": "0xfe01b6032242547f2221a0013954a31f7a73455e84738b11bb077b9d5b371b55",
      "blockNumber": 92949,
      "transactionIndex": 0,
      "confirmations": null,
      "from": "0x120A270bbC009644e35F0bB6ab13f95b8199c4ad",
      "gasPrice": {
        "_hex": "0xcbacf01e6"
      },
      "gasLimit": {
        "_hex": "0x3d090"
      },
      "to": "0x36B33F21Ba59c53E3502E52b8e0a7fD311215FFd",
      "value": {
        "_hex": "0x1d215693b8a0656400"
      },
      "nonce": 555,
      "data": "0x",
      "r": "0xae8efd04514cba180ed7e13d722af217e2dbe702681ba9b1a36ad03c5364685f",
      "s": "0x2f9cb1643a92cd7d416ee8e635b9581dc17bb05365cf9eb931fe5488197b6e17",
      "v": 28,
      "creates": null,
      "raw": "0xf87082022b850cbacf01e68303d0909436b33f21ba59c53e3502e52b8e0a7fd311215ffd891d215693b8a0656400801ca0ae8efd04514cba180ed7e13d722af217e2dbe702681ba9b1a36ad03c5364685fa02f9cb1643a92cd7d416ee8e635b9581dc17bb05365cf9eb931fe5488197b6e17",
      "networkId": 0,
      "chainId": 0
    }
  ]
}