{
  "hash": "0xaef6a16a981960d4dfdbe48ce3f1093de5a88c28ce9a1641cc07dd717b990d16",
  "parentHash": "0x5f382bd7e1506d2bc2225e95ed34ce2a4d4711ed9382ad013ad6877aba937f55",
  "number": 120078,
  "timestamp": 1440153612,
  "nonce": "0x069e743b4bdd5f40",
  "difficulty": 4406992258356,
  "gasLimit": {
    "_hex": "0x2fefd8"
  },
  "gasUsed": {
    "_hex": "0x5208"
  },
  "miner": "0x52bc44d5378309EE2abF1539BF71dE1b7d7bE3b5",
  "extraData": "0xd783010002844765746887676f312e342e32856c696e7578",
  "transactions": [
    {
      "hash": "0xb90612ae639c2dab65444df41e2f81276414659b9b07894b9826ee8b3e700e5f",
      "blockHash": "0xaef6a16a981960d4dfdbe48ce3f1093de5a88c28ce9a1641cc07dd717b990d16",
      "blockNumber": 120078,
      "transactionIndex": 0,
      "confirmations": null,
      "from": "0x2910543Af39abA0Cd09dBb2D50200b3E800A63D2",
      "gasPrice": {
        "_hex": "0xe0b8de831"
      },
      "gasLimit": {
        "_hex": "0x5208"
      },
      "to": "0x3668a45E28EDD089fcBe31209de076cef5F06501",
      "value": {
        "_hex": "0x20869a71971a7f8000"
      },
      "nonce": 1170,
      "data": "0x",
      "r": "0x5758178156c47a6b753a7b603b6872f6fe63b9436da93f06ca1d585f4f233b61",
      "s": "0x3dc06053e0966bdeb796870c75e325271d3a4806819b5896b2aa9feb9f47c62c",
      "v": 28,
      "creates": null,
      "raw": "0xf86f820492850e0b8de831825208943668a45e28edd089fcbe31209de076cef5f065018920869a71971a7f8000801ca05758178156c47a6b753a7b603b6872f6fe63b9436da93f06ca1d585f4f233b61a03dc06053e0966bdeb796870c75e325271d3a4806819b5896b2aa9feb9f47c62c",
      "networkId": 0,
      "chainId": 0
    }
  ]
}