{
  "hash": "0x1d8899b4f2a5b1d60d95d390f8ffab3402333a9dc24af565ae8e6b6a1de8424e",
  "parentHash": "0x86090aac5c0d121e725050c220d1f58ddcf7125105c222d9095eed0b9ef78368",
  "number": 59765,
  "timestamp": 1439143217,
  "nonce": "0xbf4306b63743d84a",
  "difficulty": 1717165890215,
  "gasLimit": {
    "_hex": "0x2fefd8"
  },
  "gasUsed": {
    "_hex": "0x15f90"
  },
  "miner": "0xEc98b7A32A91F21203E7DB60feABDA1eDD7ef5bb",
  "extraData": "0x476574682f76312e302e312f6c696e75782f676f312e342e32",
  "transactions": [
    {
      "hash": "0xef11e90c1e78df8fd9a0053ad71a4a40e4be44c26ef228f172a44b07b77ba859",
      "blockHash": "0x1d8899b4f2a5b1d60d95d390f8ffab3402333a9dc24af565ae8e6b6a1de8424e",
      "blockNumber": 59765,
      "transactionIndex": 0,
      "confirmations": null,
      "from": "0x073f70b5bfAde6409E4951EF72BC8F4157677729",
      "gasPrice": {
        "_hex": "0xd9677be5b"
      },
      "gasLimit": {
        "_hex": "0x15f90"
      },
      "to": "0x9Ed1a2bc358C216483b6D52b9C404B766E2c87c0",
      "value": {
        "_hex": "0x0"
      },
      "nonce": 19,
      "data": "0x63bd1d4a",
      "r": "0x793c7f11da18056536d991acf90231638d25bebfffc3365393bc877763a6b488",
      "s": "0x3076c6cc1e8866d35f63cddb02608bbe8fb2827d6a472a41483e37f8fbd6e54c",
      "v": 28,
      "creates": null,
      "raw": "0xf86913850d9677be5b83015f90949ed1a2bc358c216483b6d52b9c404b766e2c87c0808463bd1d4a1ca0793c7f11da18056536d991acf90231638d25bebfffc3365393bc877763a6b488a03076c6cc1e8866d35f63cddb02608bbe8fb2827d6a472a41483e37f8fbd6e54c",
      "networkId": 0,
      "chainId": 0
    }
  ]
}