{
  "hash": "0xb6608be65a64a59e4e2a2cb14b21689432d457f90fa791ee9354729a53a40b78",
  "parentHash": "0xaa7f59efe080d01e54007ae5e3ec21ad7f57220aa61dbe3f6ecff7fd6c39c141",
  "number": 108363,
  "timestamp": 1439939022,
  "nonce": "0x6d8d500daf3e5c0e",
  "difficulty": 4338371820143,
  "gasLimit": {
    "_hex": "0x2fefd8"
  },
  "gasUsed": {
    "_hex": "0x5208"
  },
  "miner": "0xe6A7a1d47ff21B6321162AEA7C6CB457D5476Bca",
  "extraData": "0x476574682f76312e302e312d38326566323666362f6c696e75782f676f312e34",
  "transactions": [
    {
      "hash": "0x0be0b377fee5af240aa4843c7e40cc6cb48bf73e98afacaa7396d5d1868c30e7",
      "blockHash": "0xb6608be65a64a59e4e2a2cb14b21689432d457f90fa791ee9354729a53a40b78",
      "blockNumber": 108363,
      "transactionIndex": 0,
      "confirmations": null,
      "from": "0x120A270bbC009644e35F0bB6ab13f95b8199c4ad",
      "gasPrice": {
        "_hex": "0xdefc46174"
      },
      "gasLimit": {
        "_hex": "0x3d090"
      },
      "to": "0x9eE2bcfE9d322cFD264b1aa913ff9e2Ca905C204",
      "value": {
        "_hex": "0x184ea36210eb694c00"
      },
      "nonce": 834,
      "data": "0x",
      "r": "0x820874a73b80d7b753e7d470fe32560378d5ef48a36c513187506aca3989fa4a",
      "s": "0x6e5121898f58c7346402d5ae3abb5e4edfc4d7e9d029328531f35b6c055fddfa",
      "v": 27,
      "creates": null,
      "raw": "0xf870820342850defc461748303d090949ee2bcfe9d322cfd264b1aa913ff9e2ca905c20489184ea36210eb694c00801ba0820874a73b80d7b753e7d470fe32560378d5ef48a36c513187506aca3989fa4aa06e5121898f58c7346402d5ae3abb5e4edfc4d7e9d029328531f35b6c055fddfa",
      "networkId": 0,
      "chainId": 0
    }
  ]
}