{
  "hash": "0xd18988f662861d5d94633786de28cb17eab7fb841ee331645c7b48fff7cea216",
  "parentHash": "0xdb06a9b14072f642a14252ff49fbd38f58f9280f7e85dec5d0c719ff3663d319",
  "number": 105993,
  "timestamp": 1439896896,
  "nonce": "0x26330c79af972033",
  "difficulty": 4459895785538,
  "gasLimit": {
    "_hex": "0x2fefd8"
  },
  "gasUsed": {
    "_hex": "0xfc3f"
  },
  "miner": "0x322df8Fd261820C36234f806b15F51A2203a8F88",
  "extraData": "0x476574682f76312e302e312d39383130306634372f6c696e75782f676f312e34",
  "transactions": [
    {
      "hash": "0x453a34e509929eea4b96548b7a11eb400ae97767ba3e10a2cc70935191d0086a",
      "blockHash": "0xd18988f662861d5d94633786de28cb17eab7fb841ee331645c7b48fff7cea216",
      "blockNumber": 105993,
      "transactionIndex": 0,
      "confirmations": null,
      "from": "0x87C5B5874A18B4306DF8a752a6C8cc3E82daFc19",
      "gasPrice": {
        "_hex": "0x10e7c4772bc"
      },
      "gasLimit": {
        "_hex": "0x493e0"
      },
      "to": "0xD79B4C6791784184e2755B2fC1659eaaB0f80456",
      "value": {
        "_hex": "0x0"
      },
      "nonce": 323,
      "data": "0x03750d9400000000000000000000000087c5b5874a18b4306df8a752a6c8cc3e82dafc196b6b6b0000000000000000000000000000000000000000000000000000000000",
      "r": "0xa2a2ef4e2342bef8a9d42343ad02e8a597f93831f461d14754fe22a4697ddadc",
      "s": "0x56dd66192f53df86bf84d545745f71e42bed555ab34709f411eb9ff1eb4302ec",
      "v": 27,
      "creates": null,
      "raw": "0xf8ad82014386010e7c4772bc830493e094d79b4c6791784184e2755b2fc1659eaab0f8045680b84403750d9400000000000000000000000087c5b5874a18b4306df8a752a6c8cc3e82dafc196b6b6b00000000000000000000000000000000000000000000000000000000001ba0a2a2ef4e2342bef8a9d42343ad02e8a597f93831f461d14754fe22a4697ddadca056dd66192f53df86bf84d545745f71e42bed555ab34709f411eb9ff1eb4302ec",
      "networkId": 0,
      "chainId": 0
    },
    {
      "hash": "0x224ab0ef4ab34444b0de7a78c9111c89a06ed9dcf2fa51c2b55f2d34e23098d3",
      "blockHash": "0xd18988f662861d5d94633786de28cb17eab7fb841ee331645c7b48fff7cea216",
      "blockNumber": 105993,
      "transactionIndex": 1,
      "confirmations": null,
      "from": "0x9aB9F7a4B85412bfbe2f4F63b1C98808851C4F32",
      "gasPrice": {
        "_hex": "0xba43b7400"
      },
      "gasLimit": {
        "_hex": "0x15f90"
      },
      "to": "0xfBC1aB9a735012CF8Aa4f8738c5811CDbF39a0C5",
      "value": {
        "_hex": "0x176b344f2a78c0000"
      },
      "nonce": 10,
      "data": "0x",
      "r": "0xc4a51c9bb10b42e760bf06e1e97b866b00534f1e135d43bebf6906b910119438",
      "s": "0x280b6ea95c3526f38a4157a4a46810a328cb65a3baa96893c4663e917e7ed1e1",
      "v": 27,
      "creates": null,
      "raw": "0xf86e0a850ba43b740083015f9094fbc1ab9a735012cf8aa4f8738c5811cdbf39a0c5890176b344f2a78c0000801ba0c4a51c9bb10b42e760bf06e1e97b866b00534f1e135d43bebf6906b910119438a0280b6ea95c3526f38a4157a4a46810a328cb65a3baa96893c4663e917e7ed1e1",
      "networkId": 0,
      "chainId": 0
    }
  ]
}