{
  "hash": "0x47de32dd4320f39b4f943f8f413daab7bf44b19607e6e7daa6fcc2c4873af3ac",
  "parentHash": "0xff7ed0806b5f324556aeb444de1162f262599b6f6355375a3adab9630e4f06e8",
  "number": 48469,
  "timestamp": 1438957585,
  "nonce": "0xcc101052774e586b",
  "difficulty": 1465015055513,
  "gasLimit": {
    "_hex": "0x17b35"
  },
  "gasUsed": {
    "_hex": "0x546c"
  },
  "miner": "0x4947190fcC30D3fb3a16233b259bFe6b3492339a",
  "extraData": "0x476574682f6e75632f76312e302e312f6c696e75782f676f312e342e32",
  "transactions": [
    {
      "hash": "0x7a6ab84b2dba7111aba4d6501f24e5d1caef69c7867ca13516d5127c934d5dfc",
      "blockHash": "0x47de32dd4320f39b4f943f8f413daab7bf44b19607e6e7daa6fcc2c4873af3ac",
      "blockNumber": 48469,
      "transactionIndex": 0,
      "confirmations": null,
      "from": "0x8f22398F1567CDDABA1b6bB1973E62B4992d5c9C",
      "gasPrice": {
        "_hex": "0xfdd8638557"
      },
      "gasLimit": {
        "_hex": "0x15f90"
      },
      "to": "0x2910543Af39abA0Cd09dBb2D50200b3E800A63D2",
      "value": {
        "_hex": "0x317e6b96b7fba40000"
      },
      "nonce": 1,
      "data": "0x454e41564e57344e47",
      "r": "0x111b5d823e41d93d2bb643ab9860987ecffd6cec6abcc5ab58e4990098544625",
      "s": "0x0f4f8bdd214782810d831d12f4593074fba4f38b3db53cda445107e02eedd4b5",
      "v": 27,
      "creates": null,
      "raw": "0xf8770185fdd863855783015f90942910543af39aba0cd09dbb2d50200b3e800a63d289317e6b96b7fba4000089454e41564e57344e471ba0111b5d823e41d93d2bb643ab9860987ecffd6cec6abcc5ab58e4990098544625a00f4f8bdd214782810d831d12f4593074fba4f38b3db53cda445107e02eedd4b5",
      "networkId": 0,
      "chainId": 0
    }
  ]
}