{
  "hash": "0x6cddd4e7af9f839c56adcca6c29d5de70630e0be797feeca541c08729a3d5d1d",
  "parentHash": "0x42ac2abf3b8d9e33c2c6270f4bad0f6089e3c33a20180ab9dea5e295545e1524",
  "number": 63556,
  "timestamp": 1439206412,
  "nonce": "0xfe0558af1b77634c",
  "difficulty": 1835134558370,
  "gasLimit": {
    "_hex": "0x2fefd8"
  },
  "gasUsed": {
    "_hex": "0xa410"
  },
  "miner": "0x47ff6576639c2e94762eA5443978D7681C0E78DC",
  "extraData": "0x476574682f76312e302e312f6c696e75782f676f312e342e32",
  "transactions": [
    {
      "hash": "0x7f1fedfa1078e7bc1676fe71302e114cf2361da4b29e061e8dec479a4217b2db",
      "blockHash": "0x6cddd4e7af9f839c56adcca6c29d5de70630e0be797feeca541c08729a3d5d1d",
      "blockNumber": 63556,
      "transactionIndex": 0,
      "confirmations": null,
      "from": "0x3f0073d6bBE51612013aA09BC970e08E84D7BA23",
      "gasPrice": {
        "_hex": "0xd7256a889"
      },
      "gasLimit": {
        "_hex": "0x5208"
      },
      "to": "0x32Be343B94f860124dC4fEe278FDCBD38C102D88",
      "value": {
        "_hex": "0xe18353f6aac550000"
      },
      "nonce": 5,
      "data": "0x",
      "r": "0xa006e6fa6c20e3264377145462e4341a6100cf64ff3b8e46586ac51699f5357d",
      "s": "0x21b10371a7aec953ae106d4e5fe0c5f9b3da1c5b618d08ed51c1028c33a8bf3b",
      "v": 27,
      "creates": null,
      "raw": "0xf86d05850d7256a8898252089432be343b94f860124dc4fee278fdcbd38c102d88890e18353f6aac550000801ba0a006e6fa6c20e3264377145462e4341a6100cf64ff3b8e46586ac51699f5357da021b10371a7aec953ae106d4e5fe0c5f9b3da1c5b618d08ed51c1028c33a8bf3b",
      "networkId": 0,
      "chainId": 0
    },
    {
      "hash": "0x77071e0a5bc286701d7dd09185caa560a0e233535f3bfdea7177aecb4af012e1",
      "blockHash": "0x6cddd4e7af9f839c56adcca6c29d5de70630e0be797feeca541c08729a3d5d1d",
      "blockNumber": 63556,
      "transactionIndex": 1,
      "confirmations": null,
      "from": "0xCb88dAC50e0b4f450f3a5d02c2D65Bc56361313E",
      "gasPrice": {
        "_hex": "0xd5115e494"
      },
      "gasLimit": {
        "_hex": "0x5208"
      },
      "to": "0x32Be343B94f860124dC4fEe278FDCBD38C102D88",
      "value": {
        "_hex": "0x56bc30f220dd50000"
      },
      "nonce": 5,
      "data": "0x",
      "r": "0x5bdf1d370cdb9db0014d3ee7300072c576387d4a44a0b193984c4ace2788bdab",
      "s": "0x704368564f8050509a3f060284890a0afc6ded3fc3772810e2554dd2c3f7d49f",
      "v": 27,
      "creates": null,
      "raw": "0xf86d05850d5115e4948252089432be343b94f860124dc4fee278fdcbd38c102d8889056bc30f220dd50000801ba05bdf1d370cdb9db0014d3ee7300072c576387d4a44a0b193984c4ace2788bdaba0704368564f8050509a3f060284890a0afc6ded3fc3772810e2554dd2c3f7d49f",
      "networkId": 0,
      "chainId": 0
    }
  ]
}