{
  "hash": "0xe4e688b53b764dc502439039925b01340e464383c2d1e6a38c7a63dac9c38abd",
  "parentHash": "0xdce93893bcabf4e6d1b4d44eb1da61f070f6827bf7eb4bbadacd6ea5011e1a5c",
  "number": 84526,
  "timestamp": 1439550906,
  "nonce": "0xee6550c47a523f8c",
  "difficulty": 2568919038353,
  "gasLimit": {
    "_hex": "0x2fefd8"
  },
  "gasUsed": {
    "_hex": "0x5208"
  },
  "miner": "0xe6A7a1d47ff21B6321162AEA7C6CB457D5476Bca",
  "extraData": "0x476574682f76312e302e312d38326566323666362f6c696e75782f676f312e34",
  "transactions": [
    {
      "hash": "0xa8ea9244f4d07d7f6668adf63d2d357f29963b7cec8ffa58f164b037340ceb20",
      "blockHash": "0xe4e688b53b764dc502439039925b01340e464383c2d1e6a38c7a63dac9c38abd",
      "blockNumber": 84526,
      "transactionIndex": 0,
      "confirmations": null,
      "from": "0x6c341709A69F0D286ff289986ECd928bb3a51B7A",
      "gasPrice": {
        "_hex": "0xba43b7400"
      },
      "gasLimit": {
        "_hex": "0x5267"
      },
      "to": "0x5352e2FF4dac044a6973adCd25db7734021f62F7",
      "value": {
        "_hex": "0x688a9796a5048000"
      },
      "nonce": 5,
      "data": "0x",
      "r": "0xe799f2d9bf99c67f02f3026ec62ff721743fbc0c3e68edbb2f626e30db255cab",
      "s": "0xfae03dc359a97bcdfd661000b1ebfdb77cb3e6afe2cd59700121a91522196685",
      "v": 27,
      "creates": null,
      "raw": "0xf86c05850ba43b7400825267945352e2ff4dac044a6973adcd25db7734021f62f788688a9796a5048000801ba0e799f2d9bf99c67f02f3026ec62ff721743fbc0c3e68edbb2f626e30db255caba0fae03dc359a97bcdfd661000b1ebfdb77cb3e6afe2cd59700121a91522196685",
      "networkId": 0,
      "chainId": 0
    }
  ]
}