{
  "hash": "0xd3e6ee8c52e3e38eca42ea713da6c2baa424c0106aecb50e14b5a99fd40455b1",
  "parentHash": "0xae35d9e8bcbe244febd48de606d940839309d3a711b74e83f7fa30ee6547e1e8",
  "number": 47515,
  "timestamp": 1438941870,
  "nonce": "0x8eec294af4215b33",
  "difficulty": 1450942897335,
  "gasLimit": {
    "_hex": "0xc942"
  },
  "gasUsed": {
    "_hex": "0xa410"
  },
  "miner": "0xf927a40C8B7F6E07c5af7FA2155B4864a4112B13",
  "extraData": "0x476574682f76312e302e312f6c696e75782f676f312e342e32",
  "transactions": [
    {
      "hash": "0xbe815a659caacff44a5fb867bbeb28bba762d6c5527ac717e52a5e5b84a5b646",
      "blockHash": "0xd3e6ee8c52e3e38eca42ea713da6c2baa424c0106aecb50e14b5a99fd40455b1",
      "blockNumber": 47515,
      "transactionIndex": 0,
      "confirmations": null,
      "from": "0x7892e574CADDBB5E9491DE9F26C1F2747F442eeE",
      "gasPrice": {
        "_hex": "0x191438f14c"
      },
      "gasLimit": {
        "_hex": "0x5208"
      },
      "to": "0x0D70592F27eC3d8996b4317150B3eD8C0CD57e38",
      "value": {
        "_hex": "0x2c68af0bb140000"
      },
      "nonce": 1,
      "data": "0x",
      "r": "0x9a638951a420376a2f1298a017f46ec44fbd6a0760424233a460d41091debd4f",
      "s": "0x4ce6a82582d2e2d4c47ae3f239e0d5651d93d80254fe809e70d4e9ef3a64ee79",
      "v": 28,
      "creates": null,
      "raw": "0xf86c0185191438f14c825208940d70592f27ec3d8996b4317150b3ed8c0cd57e388802c68af0bb140000801ca09a638951a420376a2f1298a017f46ec44fbd6a0760424233a460d41091debd4fa04ce6a82582d2e2d4c47ae3f239e0d5651d93d80254fe809e70d4e9ef3a64ee79",
      "networkId": 0,
      "chainId": 0
    },
    {
      "hash": "0x6fe35601f4259a80ae9aa13f0c087bbd17d50d473ce6cd1d46311565fbe5a59d",
      "blockHash": "0xd3e6ee8c52e3e38eca42ea713da6c2baa424c0106aecb50e14b5a99fd40455b1",
      "blockNumber": 47515,
      "transactionIndex": 1,
      "confirmations": null,
      "from": "0xe6A7a1d47ff21B6321162AEA7C6CB457D5476Bca",
      "gasPrice": {
        "_hex": "0x190aa74f48"
      },
      "gasLimit": {
        "_hex": "0x55f0"
      },
      "to": "0x188143c01B67512E0dfc5438A42a904eD8d4AB36",
      "value": {
        "_hex": "0x280676228ff766640"
      },
      "nonce": 164,
      "data": "0x",
      "r": "0xa2fa4a76e47dcc012d5577352b269160df168c5f06be0ace0f4b1579f88ba061",
      "s": "0x754cd8aa24ed79809c48940ab6dd750fb03d200ac6afaa1464a9c0e36ed1d301",
      "v": 27,
      "creates": null,
      "raw": "0xf86e81a485190aa74f488255f094188143c01b67512e0dfc5438a42a904ed8d4ab36890280676228ff766640801ba0a2fa4a76e47dcc012d5577352b269160df168c5f06be0ace0f4b1579f88ba061a0754cd8aa24ed79809c48940ab6dd750fb03d200ac6afaa1464a9c0e36ed1d301",
      "networkId": 0,
      "chainId": 0
    }
  ]
}