{
  "hash": "0xb55d4957c305bf61e106ab9926e8bc2d7203b965010d16848a1bcf5c3d28555f",
  "parentHash": "0x3c110f2c3709d505cbf52fe20b283f64f2571c6e28d4ffa89483c6e37bcef14b",
  "number": 86129,
  "timestamp": 1439573839,
  "nonce": "0x216f6650e77f0725",
  "difficulty": 2811241353670,
  "gasLimit": {
    "_hex": "0x2fefd8"
  },
  "gasUsed": {
    "_hex": "0x14a84"
  },
  "miner": "0xaaDE52902e3D88e6174ABe35E042947601413988",
  "extraData": "0x476574682f76312e302e312f6c696e75782f676f312e342e32",
  "transactions": [
    {
      "hash": "0x931a57a3e860d96da7e268064d44528c96c721bb819d0050062fa1de6e9518b2",
      "blockHash": "0xb55d4957c305bf61e106ab9926e8bc2d7203b965010d16848a1bcf5c3d28555f",
      "blockNumber": 86129,
      "transactionIndex": 0,
      "confirmations": null,
      "from": "0xC1438C99Dd51ef1ca8386aF0a317E9B041457888",
      "gasPrice": {
        "_hex": "0x110c8f7d8de"
      },
      "gasLimit": {
        "_hex": "0xc350"
      },
      "to": "0x2910543Af39abA0Cd09dBb2D50200b3E800A63D2",
      "value": {
        "_hex": "0x93739534d28680000"
      },
      "nonce": 1,
      "data": "0x454e434755314e5a30",
      "r": "0x5713178139d02df3724cb3d1b823fb840ccb5efbadfb584da05a4abcda771fb9",
      "s": "0x15004064592fc595b9fce9c3e1f111e7671e6ac030e2a84cb741d591fbfce329",
      "v": 28,
      "creates": null,
      "raw": "0xf87701860110c8f7d8de82c350942910543af39aba0cd09dbb2d50200b3e800a63d289093739534d2868000089454e434755314e5a301ca05713178139d02df3724cb3d1b823fb840ccb5efbadfb584da05a4abcda771fb9a015004064592fc595b9fce9c3e1f111e7671e6ac030e2a84cb741d591fbfce329",
      "networkId": 0,
      "chainId": 0
    },
    {
      "hash": "0x19c363430858332848f4cc8d17ed6906791e18ddea395a48be59271d18d7459c",
      "blockHash": "0xb55d4957c305bf61e106ab9926e8bc2d7203b965010d16848a1bcf5c3d28555f",
      "blockNumber": 86129,
      "transactionIndex": 1,
      "confirmations": null,
      "from": "0x1f2D29a8eE20E49937af84CE1932510e7cF677c7",
      "gasPrice": {
        "_hex": "0xcfebb947a"
      },
      "gasLimit": {
        "_hex": "0x5208"
      },
      "to": "0x32Be343B94f860124dC4fEe278FDCBD38C102D88",
      "value": {
        "_hex": "0x9c1ea88d856630000"
      },
      "nonce": 1,
      "data": "0x",
      "r": "0x65d0b6eb111838c7c28a987d02c5b2611bc4798bf6c13ab6f2cd66fa6720e056",
      "s": "0x5e51a80483209393634d196fec14721115e45bb7669c78228efb1a9e2a4f602d",
      "v": 27,
      "creates": null,
      "raw": "0xf86d01850cfebb947a8252089432be343b94f860124dc4fee278fdcbd38c102d888909c1ea88d856630000801ba065d0b6eb111838c7c28a987d02c5b2611bc4798bf6c13ab6f2cd66fa6720e056a05e51a80483209393634d196fec14721115e45bb7669c78228efb1a9e2a4f602d",
      "networkId": 0,
      "chainId": 0
    },
    {
      "hash": "0xca60275d97030516b9f54332e789b3831eb1f6ac5d2270a260e63b80386d214b",
      "blockHash": "0xb55d4957c305bf61e106ab9926e8bc2d7203b965010d16848a1bcf5c3d28555f",
      "blockNumber": 86129,
      "transactionIndex": 2,
      "confirmations": null,
      "from": "0xb71F25995CC5De7A465fB37688126E07654Fa662",
      "gasPrice": {
        "_hex": "0xcfebb947a"
      },
      "gasLimit": {
        "_hex": "0x5208"
      },
      "to": "0x32Be343B94f860124dC4fEe278FDCBD38C102D88",
      "value": {
        "_hex": "0x455f678220e7a000"
      },
      "nonce": 4,
      "data": "0x",
      "r": "0x276857885e0ca9500ceebc600613c581addde40b2f703eb4217c468f2f7cbaf6",
      "s": "0x51b334aa837c0188a2df28b4045660200a9caae407ccf5a79253f3e3ea51ea60",
      "v": 28,
      "creates": null,
      "raw": "0xf86c04850cfebb947a8252089432be343b94f860124dc4fee278fdcbd38c102d8888455f678220e7a000801ca0276857885e0ca9500ceebc600613c581addde40b2f703eb4217c468f2f7cbaf6a051b334aa837c0188a2df28b4045660200a9caae407ccf5a79253f3e3ea51ea60",
      "networkId": 0,
      "chainId": 0
    },
    {
      "hash": "0xa801903ba66060c65cc88ce2f661c9cd2add2c73f1f6ea2adc105778cc66b322",
      "blockHash": "0xb55d4957c305bf61e106ab9926e8bc2d7203b965010d16848a1bcf5c3d28555f",
      "blockNumber": 86129,
      "transactionIndex": 3,
      "confirmations": null,
      "from": "0x64f1bF4c23E8a6f89b8A3D0Fd4cC300dF71Cc065",
      "gasPrice": {
        "_hex": "0xcfebb947a"
      },
      "gasLimit": {
        "_hex": "0x5208"
      },
      "to": "0x32Be343B94f860124dC4fEe278FDCBD38C102D88",
      "value": {
        "_hex": "0x1b0cfff62f23e00000"
      },
      "nonce": 0,
      "data": "0x",
      "r": "0x9bd63eb3a1cb9a9744773b06d559c298a6c5489ecac86af68c986bf318004357",
      "s": "0x1299f69de77785a6b9218c6f41e3d30185dfff1fe701aa7d10d2efb25e4ba401",
      "v": 28,
      "creates": null,
      "raw": "0xf86d80850cfebb947a8252089432be343b94f860124dc4fee278fdcbd38c102d88891b0cfff62f23e00000801ca09bd63eb3a1cb9a9744773b06d559c298a6c5489ecac86af68c986bf318004357a01299f69de77785a6b9218c6f41e3d30185dfff1fe701aa7d10d2efb25e4ba401",
      "networkId": 0,
      "chainId": 0
    }
  ]
}