{
  "hash": "0x5d7f8999114500efabf186a7f0b6364136e9c60ee007e71b803957fed5c112b5",
  "parentHash": "0x89a76aaebfe16f06a85de5b5a15f4b942f4039081049698dab831fc1307b64a0",
  "number": 87340,
  "timestamp": 1439590663,
  "nonce": "0xa95a3fab5e24a2f1",
  "difficulty": 3115872278087,
  "gasLimit": {
    "_hex": "0x2fefd8"
  },
  "gasUsed": {
    "_hex": "0xf618"
  },
  "miner": "0xe6A7a1d47ff21B6321162AEA7C6CB457D5476Bca",
  "extraData": "0x476574682f76312e302e312d38326566323666362f6c696e75782f676f312e34",
  "transactions": [
    {
      "hash": "0xd09c94cd5d97b50b5c4a6bdab44ff02b09dc4c37736bd7731b5d9a23479590db",
      "blockHash": "0x5d7f8999114500efabf186a7f0b6364136e9c60ee007e71b803957fed5c112b5",
      "blockNumber": 87340,
      "transactionIndex": 0,
      "confirmations": null,
      "from": "0x32Be343B94f860124dC4fEe278FDCBD38C102D88",
      "gasPrice": {
        "_hex": "0xd89865322"
      },
      "gasLimit": {
        "_hex": "0x5208"
      },
      "to": "0x72bb27Cb99f3E2C2CF90A98F707d30E4A201A071",
      "value": {
        "_hex": "0x56ba3d73af34f0000"
      },
      "nonce": 780,
      "data": "0x",
      "r": "0x3f37012d10c5b7e90a9590444200927e4b416e8c7f87d0d794e8dcfc9bad8f49",
      "s": "0x35461bdda21b516fe1030d5031bfe29d79242d79cb999641f5b8bde7a2fe67bd",
      "v": 27,
      "creates": null,
      "raw": "0xf86f82030c850d898653228252089472bb27cb99f3e2c2cf90a98f707d30e4a201a07189056ba3d73af34f0000801ba03f37012d10c5b7e90a9590444200927e4b416e8c7f87d0d794e8dcfc9bad8f49a035461bdda21b516fe1030d5031bfe29d79242d79cb999641f5b8bde7a2fe67bd",
      "networkId": 0,
      "chainId": 0
    },
    {
      "hash": "0xa94d4604a87fe0c745fa8b46a9cf3888a1b615dbcceb43a34f387700b12a0da7",
      "blockHash": "0x5d7f8999114500efabf186a7f0b6364136e9c60ee007e71b803957fed5c112b5",
      "blockNumber": 87340,
      "transactionIndex": 1,
      "confirmations": null,
      "from": "0x4098BB4167723FcD38D1306F6A66fC4fAc2c84Fb",
      "gasPrice": {
        "_hex": "0xd89865322"
      },
      "gasLimit": {
        "_hex": "0x5208"
      },
      "to": "0x32Be343B94f860124dC4fEe278FDCBD38C102D88",
      "value": {
        "_hex": "0x1b0447bde71e540000"
      },
      "nonce": 0,
      "data": "0x",
      "r": "0xe3540d5775b9192951f48197a7ad328fef2d22a1d77819ce3d2a1cc81d53ab89",
      "s": "0x1401b04ca7e1914538ff9abda7ecbb2b7647fa58898218bdef4e2de50546eb74",
      "v": 27,
      "creates": null,
      "raw": "0xf86d80850d898653228252089432be343b94f860124dc4fee278fdcbd38c102d88891b0447bde71e540000801ba0e3540d5775b9192951f48197a7ad328fef2d22a1d77819ce3d2a1cc81d53ab89a01401b04ca7e1914538ff9abda7ecbb2b7647fa58898218bdef4e2de50546eb74",
      "networkId": 0,
      "chainId": 0
    },
    {
      "hash": "0xdb86e45c200c349f4ed7cc3f7ee05050c79108a9e714c68d8c0885ff4a507364",
      "blockHash": "0x5d7f8999114500efabf186a7f0b6364136e9c60ee007e71b803957fed5c112b5",
      "blockNumber": 87340,
      "transactionIndex": 2,
      "confirmations": null,
      "from": "0x108feDb097c1DCfED441480170144D8e19BB217f",
      "gasPrice": {
        "_hex": "0xd89865322"
      },
      "gasLimit": {
        "_hex": "0x5208"
      },
      "to": "0x32Be343B94f860124dC4fEe278FDCBD38C102D88",
      "value": {
        "_hex": "0x1826b258afb4c00"
      },
      "nonce": 0,
      "data": "0x",
      "r": "0x8a523092a61caf4a4b245f92c2ae3a549d0be7fcbc33bd68e2b23a6af17308af",
      "s": "0x365c7aa8e722b9cb5b5a5871a676486f0ae00964e9c9f38fbcb3b453b156d1be",
      "v": 27,
      "creates": null,
      "raw": "0xf86c80850d898653228252089432be343b94f860124dc4fee278fdcbd38c102d888801826b258afb4c00801ba08a523092a61caf4a4b245f92c2ae3a549d0be7fcbc33bd68e2b23a6af17308afa0365c7aa8e722b9cb5b5a5871a676486f0ae00964e9c9f38fbcb3b453b156d1be",
      "networkId": 0,
      "chainId": 0
    }
  ]
}