{
  "hash": "0xc42c582f216705f22a1b41ed1d4ceb5f276fb24e38717dc0b5d618dfe40e39b0",
  "parentHash": "0x4a45da6f03a11ac69bfd82907ab6ed31c7041f912c562051b90724a4e78670a2",
  "number": 77460,
  "timestamp": 1439437658,
  "nonce": "0xd3e86ab290110d6e",
  "difficulty": 2238163469230,
  "gasLimit": {
    "_hex": "0x2fefd8"
  },
  "gasUsed": {
    "_hex": "0x5d9f"
  },
  "miner": "0xf927a40C8B7F6E07c5af7FA2155B4864a4112B13",
  "extraData": "0x",
  "transactions": [
    {
      "hash": "0x0d2e9324a2091a3ed863838402e2256202bed1a767631988031089562d8e6d19",
      "blockHash": "0xc42c582f216705f22a1b41ed1d4ceb5f276fb24e38717dc0b5d618dfe40e39b0",
      "blockNumber": 77460,
      "transactionIndex": 0,
      "confirmations": null,
      "from": "0x770d98d31b4353FceEE8560c4CCf803e88C0c4e0",
      "gasPrice": {
        "_hex": "0xd3de3c853"
      },
      "gasLimit": {
        "_hex": "0x15f90"
      },
      "to": "0xCAc7000C7dBaa2E33Af15325AF5D435E011C7BdD",
      "value": {
        "_hex": "0x720ac7a94a4000"
      },
      "nonce": 16,
      "data": "0xb214faa54131313131313131410000000000000000000000000000000000000000000000",
      "r": "0x2d9a2ea1adcaba809bffb0d5ec88897f2fa06579117572d5ee40ef3aeaaf1726",
      "s": "0x6c7d56c59d0c63a5633c5dfcacdb0fb885f6cb321ddd9b9f859a9a7bce88c67d",
      "v": 27,
      "creates": null,
      "raw": "0xf89010850d3de3c85383015f9094cac7000c7dbaa2e33af15325af5d435e011c7bdd87720ac7a94a4000a4b214faa541313131313131314100000000000000000000000000000000000000000000001ba02d9a2ea1adcaba809bffb0d5ec88897f2fa06579117572d5ee40ef3aeaaf1726a06c7d56c59d0c63a5633c5dfcacdb0fb885f6cb321ddd9b9f859a9a7bce88c67d",
      "networkId": 0,
      "chainId": 0
    }
  ]
}