{
  "hash": "0x176809cac1b83d5274e4263fa6bb48714ab6119ee93336a23a71679bf71d58d1",
  "parentHash": "0x9330b57800ddebf18f7e380760c96498e982d191a1d9dc63da249ca7ed0950bc",
  "number": 109676,
  "timestamp": 1439960679,
  "nonce": "0x2580c48a8738a75f",
  "difficulty": 4447067743685,
  "gasLimit": {
    "_hex": "0x2fefd8"
  },
  "gasUsed": {
    "_hex": "0x5208"
  },
  "miner": "0x88D74a59454F6cF3B51ef6b9136AFb6b9D405A88",
  "extraData": "0x",
  "transactions": [
    {
      "hash": "0xecb597885850719db0b572772de99f8176a7934649c562a9e3d5ebbd1aa15412",
      "blockHash": "0x176809cac1b83d5274e4263fa6bb48714ab6119ee93336a23a71679bf71d58d1",
      "blockNumber": 109676,
      "transactionIndex": 0,
      "confirmations": null,
      "from": "0xa70a9a7040d542C632D8e0bE7c5513A8a5Bbc752",
      "gasPrice": {
        "_hex": "0xd7d62a379"
      },
      "gasLimit": {
        "_hex": "0x5208"
      },
      "to": "0x32Be343B94f860124dC4fEe278FDCBD38C102D88",
      "value": {
        "_hex": "0x3cb2ccbcf1092800"
      },
      "nonce": 277,
      "data": "0x",
      "r": "0xe8c81cb4368846968ba732896c4bc4291e19d3912115d440e7c8e91bcbe057df",
      "s": "0x763b03a0e72a27203a5485890cfdb4a89e0e5d6bbade03df24ec20d8e34adb3a",
      "v": 28,
      "creates": null,
      "raw": "0xf86e820115850d7d62a3798252089432be343b94f860124dc4fee278fdcbd38c102d88883cb2ccbcf1092800801ca0e8c81cb4368846968ba732896c4bc4291e19d3912115d440e7c8e91bcbe057dfa0763b03a0e72a27203a5485890cfdb4a89e0e5d6bbade03df24ec20d8e34adb3a",
      "networkId": 0,
      "chainId": 0
    }
  ]
}