{
  "hash": "0x360876d3f6ff8b966e132815e09c86ac9749ee0251998861582e81ebda14e4f7",
  "parentHash": "0x128a3232de5f7971d9380bb213eb3b3f5bd59926c9c95b26162a4d231f717682",
  "number": 63479,
  "timestamp": 1439205170,
  "nonce": "0x4fb5e5005b61276f",
  "difficulty": 1836047692252,
  "gasLimit": {
    "_hex": "0x2fefd8"
  },
  "gasUsed": {
    "_hex": "0xa410"
  },
  "miner": "0xdB312D1d6A2Ccc64DD94a3892928baC82B4E8C15",
  "extraData": "0x476574682f76312e302e312d65383935333663612f6c696e75782f676f312e34",
  "transactions": [
    {
      "hash": "0x322e4c14b2f93771132c6700d2a8ffcb6fa4a4dd66645ff88f6339e065b77b5b",
      "blockHash": "0x360876d3f6ff8b966e132815e09c86ac9749ee0251998861582e81ebda14e4f7",
      "blockNumber": 63479,
      "transactionIndex": 0,
      "confirmations": null,
      "from": "0xA10C59651885FeAaac91F871082a23BBbaBeDfCf",
      "gasPrice": {
        "_hex": "0x100675bfaa4"
      },
      "gasLimit": {
        "_hex": "0x5208"
      },
      "to": "0x4c74B6F32c9680aCB5Fe0e72B7Aa95C612540A04",
      "value": {
        "_hex": "0x56bc75e2d63100000"
      },
      "nonce": 9,
      "data": "0x",
      "r": "0x2141e3d49d72292a38176d53050f37e7dd0c5699a64c8b41399c638c30391771",
      "s": "0x3c7661fe217c9718d75ee0b23ef38e44ef467f619aaaecf276837a3566821c84",
      "v": 28,
      "creates": null,
      "raw": "0xf86e09860100675bfaa4825208944c74b6f32c9680acb5fe0e72b7aa95c612540a0489056bc75e2d63100000801ca02141e3d49d72292a38176d53050f37e7dd0c5699a64c8b41399c638c30391771a03c7661fe217c9718d75ee0b23ef38e44ef467f619aaaecf276837a3566821c84",
      "networkId": 0,
      "chainId": 0
    },
    {
      "hash": "0x225496d584db6b11a61d3e736fe9b6cb371ff95879c8be13842adba01b1d3f7b",
      "blockHash": "0x360876d3f6ff8b966e132815e09c86ac9749ee0251998861582e81ebda14e4f7",
      "blockNumber": 63479,
      "transactionIndex": 1,
      "confirmations": null,
      "from": "0x4c74B6F32c9680aCB5Fe0e72B7Aa95C612540A04",
      "gasPrice": {
        "_hex": "0xddc026153"
      },
      "gasLimit": {
        "_hex": "0x5208"
      },
      "to": "0x32Be343B94f860124dC4fEe278FDCBD38C102D88",
      "value": {
        "_hex": "0x56bc2ed45c4e84000"
      },
      "nonce": 7,
      "data": "0x",
      "r": "0x24e0404e3f63285cd9a5e8931fb0d5f2eb6ea4cb2b2dcc69af36e5012c4b7a64",
      "s": "0x1b1059e5c42196c808047758cf256b897a9cbb31f492406c7326815c7fa37ef4",
      "v": 27,
      "creates": null,
      "raw": "0xf86d07850ddc0261538252089432be343b94f860124dc4fee278fdcbd38c102d8889056bc2ed45c4e84000801ba024e0404e3f63285cd9a5e8931fb0d5f2eb6ea4cb2b2dcc69af36e5012c4b7a64a01b1059e5c42196c808047758cf256b897a9cbb31f492406c7326815c7fa37ef4",
      "networkId": 0,
      "chainId": 0
    }
  ]
}