{
  "hash": "0xb67fd183bd5a4fa1822cd4bce23d5408e04184b38c3fd545dffff66a224da44f",
  "parentHash": "0x937c36d16a968fbbe1fc2ba1ad8c727820d8f3d31a364287b945e648051285a8",
  "number": 74449,
  "timestamp": 1439386124,
  "nonce": "0x1e18d03386eada6d",
  "difficulty": 2220458724276,
  "gasLimit": {
    "_hex": "0x2fefd8"
  },
  "gasUsed": {
    "_hex": "0xa674"
  },
  "miner": "0x9746c7e1ef2bd21FF3997fa467593a89cb852BD0",
  "extraData": "0x476574682f76312e302e312f77696e646f77732f676f312e342e32",
  "transactions": [
    {
      "hash": "0x3ad8b2d13bf1b3ef4e363d2beba43b5cbdb0d7d7812e2587c1a9428d5311f0cf",
      "blockHash": "0xb67fd183bd5a4fa1822cd4bce23d5408e04184b38c3fd545dffff66a224da44f",
      "blockNumber": 74449,
      "transactionIndex": 0,
      "confirmations": null,
      "from": "0xC13Dad778D7BcE116BD97f744625D57f7124c38A",
      "gasPrice": {
        "_hex": "0xde1562122"
      },
      "gasLimit": {
        "_hex": "0x15f90"
      },
      "to": "0x2910543Af39abA0Cd09dBb2D50200b3E800A63D2",
      "value": {
        "_hex": "0x3860e639d80640000"
      },
      "nonce": 2,
      "data": "0x454e47464542323730",
      "r": "0x7bda84aacd167622049c819c3fa3a15c261ee073195529893acab175358019fc",
      "s": "0x1ee5c42064eb5f4424cc808f8d9d2a47c57d3076d930b5a8912bc58764e8e820",
      "v": 27,
      "creates": null,
      "raw": "0xf87702850de156212283015f90942910543af39aba0cd09dbb2d50200b3e800a63d28903860e639d8064000089454e474645423237301ba07bda84aacd167622049c819c3fa3a15c261ee073195529893acab175358019fca01ee5c42064eb5f4424cc808f8d9d2a47c57d3076d930b5a8912bc58764e8e820",
      "networkId": 0,
      "chainId": 0
    },
    {
      "hash": "0x485dd43d9b66ecfa9fe6ea8baf356c9faa427ce9333335f9e6af05e914818796",
      "blockHash": "0xb67fd183bd5a4fa1822cd4bce23d5408e04184b38c3fd545dffff66a224da44f",
      "blockNumber": 74449,
      "transactionIndex": 1,
      "confirmations": null,
      "from": "0x120A270bbC009644e35F0bB6ab13f95b8199c4ad",
      "gasPrice": {
        "_hex": "0xcb826bf93"
      },
      "gasLimit": {
        "_hex": "0x15f90"
      },
      "to": "0x9C66FdF08e9C18B7E1B8D539d012445cFD9b3EA4",
      "value": {
        "_hex": "0x4e0109448f330000"
      },
      "nonce": 279,
      "data": "0x",
      "r": "0x1516edfcf0549becf7e61d40c0ab6318a7ef8e93229bf0683ad0cb0e8b788275",
      "s": "0x22551ab399774a9b0e8de0b5ea23abd46a2078e1b3864cb04e9d584f81427a19",
      "v": 28,
      "creates": null,
      "raw": "0xf86f820117850cb826bf9383015f90949c66fdf08e9c18b7e1b8d539d012445cfd9b3ea4884e0109448f330000801ca01516edfcf0549becf7e61d40c0ab6318a7ef8e93229bf0683ad0cb0e8b788275a022551ab399774a9b0e8de0b5ea23abd46a2078e1b3864cb04e9d584f81427a19",
      "networkId": 0,
      "chainId": 0
    }
  ]
}