{
  "hash": "0x707848f50d3a435cf1523b0faaad40084d7459516aaddcccdc684f2a0323f3bd",
  "parentHash": "0xdb98370ee5799edeec4354cf28746340f5497418ccd5f39cca6cd52d9cde58ce",
  "number": 50322,
  "timestamp": 1438987290,
  "nonce": "0x82ac1a4058744232",
  "difficulty": 1510448075502,
  "gasLimit": {
    "_hex": "0x5c2fc"
  },
  "gasUsed": {
    "_hex": "0x5208"
  },
  "miner": "0xbb7B8287f3F0a933474a79eAe42CBCa977791171",
  "extraData": "0x476574682f4c5649562f76312e302e312f6c696e75782f676f312e342e32",
  "transactions": [
    {
      "hash": "0xe51cad0e6563ccdcde9a844c0775b496e9852ab942001928d22645011b247380",
      "blockHash": "0x707848f50d3a435cf1523b0faaad40084d7459516aaddcccdc684f2a0323f3bd",
      "blockNumber": 50322,
      "transactionIndex": 0,
      "confirmations": null,
      "from": "0xaFCc7DBB8356D842d43Ae7E23c8422b022A30803",
      "gasPrice": {
        "_hex": "0xd4bc77e7c"
      },
      "gasLimit": {
        "_hex": "0x5208"
      },
      "to": "0x0000000000000000000000000000000000000000",
      "value": {
        "_hex": "0x8ac7230489e80000"
      },
      "nonce": 0,
      "data": "0x",
      "r": "0x40a2f35e7bab8381ced0d75b552fc7162ea663b9a4bf13549d8604c512560d8c",
      "s": "0x2d96d63210968b4aac17e71bd0e2521a4215dc9a5346f832cd6ed98ea5089565",
      "v": 28,
      "creates": null,
      "raw": "0xf86c80850d4bc77e7c825208940000000000000000000000000000000000000000888ac7230489e80000801ca040a2f35e7bab8381ced0d75b552fc7162ea663b9a4bf13549d8604c512560d8ca02d96d63210968b4aac17e71bd0e2521a4215dc9a5346f832cd6ed98ea5089565",
      "networkId": 0,
      "chainId": 0
    }
  ]
}