{
  "hash": "0xbd1f63bacce637927f27f889575c2be6abfad1ceb364480db92ae2f93cfa9e2b",
  "parentHash": "0x8c9fb6bda62afb6b3ead907229d62bd8ae6dc551ef32eace0bc5681e665854a1",
  "number": 62426,
  "timestamp": 1439188511,
  "nonce": "0x03331d2c4e2908b7",
  "difficulty": 1768520172595,
  "gasLimit": {
    "_hex": "0x2fefd2"
  },
  "gasUsed": {
    "_hex": "0xc9c3"
  },
  "miner": "0x39A1BB80a741bF5EC39FB9BE59408Fa0F418fFBf",
  "extraData": "0x476574682f76312e302e312f77696e646f77732f676f312e342e32",
  "transactions": [
    {
      "hash": "0x8c689fb4f94e5edb910b4f29c24a7dec9303d92553e0690f59ece15bb21722f2",
      "blockHash": "0xbd1f63bacce637927f27f889575c2be6abfad1ceb364480db92ae2f93cfa9e2b",
      "blockNumber": 62426,
      "transactionIndex": 0,
      "confirmations": null,
      "from": "0x25c6e74Ff1d928df98137AF4dF8430df24F07Cd7",
      "gasPrice": {
        "_hex": "0xd6db9a5b5"
      },
      "gasLimit": {
        "_hex": "0x7a120"
      },
      "to": "0xfBc128067A2FE13C11BBC6cc55f29AA1F27630DA",
      "value": {
        "_hex": "0xde0b6b3a7640000"
      },
      "nonce": 5,
      "data": "0x",
      "r": "0xbcc01f7ffa1c1e7d528ee90cdd83c04907145828f869ead3707beff20ea8bb8a",
      "s": "0x36227252e94e14e03b38c6e01d500c5f3d7bc9717b0599b8c73e1f3a719bf31e",
      "v": 27,
      "creates": null,
      "raw": "0xf86d05850d6db9a5b58307a12094fbc128067a2fe13c11bbc6cc55f29aa1f27630da880de0b6b3a7640000801ba0bcc01f7ffa1c1e7d528ee90cdd83c04907145828f869ead3707beff20ea8bb8aa036227252e94e14e03b38c6e01d500c5f3d7bc9717b0599b8c73e1f3a719bf31e",
      "networkId": 0,
      "chainId": 0
    }
  ]
}