{
  "hash": "0x87878438e07149d658e846faff52ad3b9c884973333423b6400aeccd3c8a1640",
  "parentHash": "0xbd2abbcc8041780821f0ae82f24640ddd3bb0e28db8398ebb0331119283e1b43",
  "number": 105154,
  "timestamp": 1439882792,
  "nonce": "0x45fa3a3bf2be9b65",
  "difficulty": 4295756850926,
  "gasLimit": {
    "_hex": "0x2fefd8"
  },
  "gasUsed": {
    "_hex": "0xa410"
  },
  "miner": "0xC603Ab5ef41fC61AA8b76bEddb09e3Cfcbb174BD",
  "extraData": "0x476574682f76312e302e312f77696e646f77732f676f312e342e32",
  "transactions": [
    {
      "hash": "0xd92d9f6e7099c8963e5e25920e7c0585c198afb56c7c2f8fcbe3f6764b13bad0",
      "blockHash": "0x87878438e07149d658e846faff52ad3b9c884973333423b6400aeccd3c8a1640",
      "blockNumber": 105154,
      "transactionIndex": 0,
      "confirmations": null,
      "from": "0x32Be343B94f860124dC4fEe278FDCBD38C102D88",
      "gasPrice": {
        "_hex": "0xdcbb5d3c2"
      },
      "gasLimit": {
        "_hex": "0x5208"
      },
      "to": "0xd12Cd8A37F074e7eAFae618C986Ff825666198bd",
      "value": {
        "_hex": "0xde51806eb4b3b80000"
      },
      "nonce": 1164,
      "data": "0x",
      "r": "0xbb5fde64cb6b66cc3fcd7677f5556f3b215f77e90dbbcf0dbcb1894bef8a1281",
      "s": "0x784a2f69fc8056f0ce89fc7f5f6e633f30b54712d296c428009768b8a17b1413",
      "v": 27,
      "creates": null,
      "raw": "0xf86f82048c850dcbb5d3c282520894d12cd8a37f074e7eafae618c986ff825666198bd89de51806eb4b3b80000801ba0bb5fde64cb6b66cc3fcd7677f5556f3b215f77e90dbbcf0dbcb1894bef8a1281a0784a2f69fc8056f0ce89fc7f5f6e633f30b54712d296c428009768b8a17b1413",
      "networkId": 0,
      "chainId": 0
    },
    {
      "hash": "0xf85d218da24eebf79543b627d9ca62090f76dc1eca871c977f7801a0f7c7b11e",
      "blockHash": "0x87878438e07149d658e846faff52ad3b9c884973333423b6400aeccd3c8a1640",
      "blockNumber": 105154,
      "transactionIndex": 1,
      "confirmations": null,
      "from": "0x2910543Af39abA0Cd09dBb2D50200b3E800A63D2",
      "gasPrice": {
        "_hex": "0xccd2ffbfd"
      },
      "gasLimit": {
        "_hex": "0x5208"
      },
      "to": "0x4Eaf4CaDd87499C20bA3412B1D222f9a72DA7AFF",
      "value": {
        "_hex": "0x4551ce090d138000"
      },
      "nonce": 1023,
      "data": "0x",
      "r": "0xc2a7b284b5ffa147459eb701434105262f118a6899fb1387d7554c50db6ef28b",
      "s": "0x436cbfecc0728140b78ec49ec1cdfc3ab9ee3dca9f1bba73bda25771b03193c6",
      "v": 28,
      "creates": null,
      "raw": "0xf86e8203ff850ccd2ffbfd825208944eaf4cadd87499c20ba3412b1d222f9a72da7aff884551ce090d138000801ca0c2a7b284b5ffa147459eb701434105262f118a6899fb1387d7554c50db6ef28ba0436cbfecc0728140b78ec49ec1cdfc3ab9ee3dca9f1bba73bda25771b03193c6",
      "networkId": 0,
      "chainId": 0
    }
  ]
}