{
  "hash": "0x119e375dea890104da068af05abfba459f131f29c648f229299ec584af3c3268",
  "parentHash": "0x3bf6eb18018a2054cb06e9db8b2b5595f73fc7c047ac89ffc4533169f1fe2737",
  "number": 103368,
  "timestamp": 1439852229,
  "nonce": "0x23d103f526a8ff44",
  "difficulty": 4168545710816,
  "gasLimit": {
    "_hex": "0x2fefd8"
  },
  "gasUsed": {
    "_hex": "0xfae0"
  },
  "miner": "0x5F8F73E26CdF436f19Cb24C82F90A15AFe55b592",
  "extraData": "0x476574682f76312e302e312f77696e646f77732f676f312e342e32",
  "transactions": [
    {
      "hash": "0x6b33f27f5319ceb4c65b1d9951f3e94d1ef0a6ea1e339acac3980a848a82d092",
      "blockHash": "0x119e375dea890104da068af05abfba459f131f29c648f229299ec584af3c3268",
      "blockNumber": 103368,
      "transactionIndex": 0,
      "confirmations": null,
      "from": "0x4258fD662fc4Ce3295f0d4Ed8F7BB1449600A0A9",
      "gasPrice": {
        "_hex": "0x110c8f7d8de"
      },
      "gasLimit": {
        "_hex": "0xc350"
      },
      "to": "0x2910543Af39abA0Cd09dBb2D50200b3E800A63D2",
      "value": {
        "_hex": "0x1b1ae4d6e2ef500000"
      },
      "nonce": 1,
      "data": "0x454e564a5655594638",
      "r": "0xb95b88618305eeb925bfc1856671d8e244f37f3de2847e2a54d193219994cd90",
      "s": "0xa455c0581559e3e5298dc5095670be537350492eed3d05d9ed7c3e0c862c20ea",
      "v": 27,
      "creates": null,
      "raw": "0xf87701860110c8f7d8de82c350942910543af39aba0cd09dbb2d50200b3e800a63d2891b1ae4d6e2ef50000089454e564a56555946381ba0b95b88618305eeb925bfc1856671d8e244f37f3de2847e2a54d193219994cd90a0a455c0581559e3e5298dc5095670be537350492eed3d05d9ed7c3e0c862c20ea",
      "networkId": 0,
      "chainId": 0
    },
    {
      "hash": "0x07d23b22feab51734ca83a943673af03f1de528c66ef2e044f194c071e03775c",
      "blockHash": "0x119e375dea890104da068af05abfba459f131f29c648f229299ec584af3c3268",
      "blockNumber": 103368,
      "transactionIndex": 1,
      "confirmations": null,
      "from": "0x70Fd0931873b76DF103453dd8c0ac92dc7E17b5a",
      "gasPrice": {
        "_hex": "0x10523509998"
      },
      "gasLimit": {
        "_hex": "0x55f0"
      },
      "to": "0x2910543Af39abA0Cd09dBb2D50200b3E800A63D2",
      "value": {
        "_hex": "0x7ce66c50e2840000"
      },
      "nonce": 4,
      "data": "0x454e54314834395730",
      "r": "0x75059e9aa53fed93e4efa45eb010fe938513459afd703267cb633af06c78dcc6",
      "s": "0x2f80315ea4ff17d0612b00f2d291835a5dd461d30b2e7625bf97787b5023c017",
      "v": 28,
      "creates": null,
      "raw": "0xf87604860105235099988255f0942910543af39aba0cd09dbb2d50200b3e800a63d2887ce66c50e284000089454e543148343957301ca075059e9aa53fed93e4efa45eb010fe938513459afd703267cb633af06c78dcc6a02f80315ea4ff17d0612b00f2d291835a5dd461d30b2e7625bf97787b5023c017",
      "networkId": 0,
      "chainId": 0
    },
    {
      "hash": "0x9af47e43013135abbc8760a77235eecb4e22231095abd940d2af7a0b130ecb7b",
      "blockHash": "0x119e375dea890104da068af05abfba459f131f29c648f229299ec584af3c3268",
      "blockNumber": 103368,
      "transactionIndex": 2,
      "confirmations": null,
      "from": "0x120A270bbC009644e35F0bB6ab13f95b8199c4ad",
      "gasPrice": {
        "_hex": "0xd8749ea6c"
      },
      "gasLimit": {
        "_hex": "0x3d090"
      },
      "to": "0x4880617F9b93B1e5A9fa6a1B2EB29358D0D38B8d",
      "value": {
        "_hex": "0xbff4d92ca021e4800"
      },
      "nonce": 716,
      "data": "0x",
      "r": "0xe8f302bbdad9e3ae52973605d1eacba925f2e493bb3a607c612e65ffd8bb2595",
      "s": "0x7edc13d115d206500d6dd9f867060f5c2f8346859f268c5ace1d9bd5ba2c66de",
      "v": 27,
      "creates": null,
      "raw": "0xf8708202cc850d8749ea6c8303d090944880617f9b93b1e5a9fa6a1b2eb29358d0d38b8d890bff4d92ca021e4800801ba0e8f302bbdad9e3ae52973605d1eacba925f2e493bb3a607c612e65ffd8bb2595a07edc13d115d206500d6dd9f867060f5c2f8346859f268c5ace1d9bd5ba2c66de",
      "networkId": 0,
      "chainId": 0
    }
  ]
}