{
  "hash": "0x3129583891ef7395eae84a533228a4bdbf2ecc2efb41fae69d717ae56bd564e8",
  "parentHash": "0x30c859005ab9a36b39fc9815984ae8855934f35720ad5b48326a5190efc59606",
  "number": 54654,
  "timestamp": 1439057845,
  "nonce": "0x2c1101a02d1f314e",
  "difficulty": 1621220075777,
  "gasLimit": {
    "_hex": "0x2fefd8"
  },
  "gasUsed": {
    "_hex": "0x5208"
  },
  "miner": "0x400fb5A6482E54E44b2250E75251707514c605C1",
  "extraData": "0x476574682f76312e302e312f77696e646f77732f676f312e342e32",
  "transactions": [
    {
      "hash": "0x848b9eec49580d993943e86373195bd539fec3c9790f184f45cdd07846c3fe26",
      "blockHash": "0x3129583891ef7395eae84a533228a4bdbf2ecc2efb41fae69d717ae56bd564e8",
      "blockNumber": 54654,
      "transactionIndex": 0,
      "confirmations": null,
      "from": "0x7a137d87f0a48899c3A6ae528A474bE90f7686B2",
      "gasPrice": {
        "_hex": "0xd1780c4e1"
      },
      "gasLimit": {
        "_hex": "0x5208"
      },
      "to": "0x32Be343B94f860124dC4fEe278FDCBD38C102D88",
      "value": {
        "_hex": "0x14542b5e0b277200000"
      },
      "nonce": 0,
      "data": "0x",
      "r": "0x58b0352877a06b8267a38ea5d9ca5961958f009b9e9f9b52f707ec157da36394",
      "s": "0x2e039f2c628e38dd547a573df536cbd03fd96611bdc236fb35f53988ef794e4f",
      "v": 28,
      "creates": null,
      "raw": "0xf86e80850d1780c4e18252089432be343b94f860124dc4fee278fdcbd38c102d888a014542b5e0b277200000801ca058b0352877a06b8267a38ea5d9ca5961958f009b9e9f9b52f707ec157da36394a02e039f2c628e38dd547a573df536cbd03fd96611bdc236fb35f53988ef794e4f",
      "networkId": 0,
      "chainId": 0
    }
  ]
}