{
  "hash": "0x6dd979128c5ee9c289e10d75761c6b9f005b951b28844ea0a4d1eff6592dcc1c",
  "parentHash": "0x67306fdb6b3819f38773a741a05e8c1d8fe3da3a7e68ef0149591338dbdf34b4",
  "number": 89746,
  "timestamp": 1439628460,
  "nonce": "0xf69bd30eee6afe1c",
  "difficulty": 3338622388963,
  "gasLimit": {
    "_hex": "0x2fefd8"
  },
  "gasUsed": {
    "_hex": "0x5208"
  },
  "miner": "0xe6A7a1d47ff21B6321162AEA7C6CB457D5476Bca",
  "extraData": "0x476574682f76312e302e312d38326566323666362f6c696e75782f676f312e34",
  "transactions": [
    {
      "hash": "0xf392e759b09f87fc2a1e8d16f5c045e43ed471ca6e3377c58765492986bb4d5a",
      "blockHash": "0x6dd979128c5ee9c289e10d75761c6b9f005b951b28844ea0a4d1eff6592dcc1c",
      "blockNumber": 89746,
      "transactionIndex": 0,
      "confirmations": null,
      "from": "0xf2cC0eEAAAeD313542CB262B0B8c3972425143f0",
      "gasPrice": {
        "_hex": "0xcdab4e359"
      },
      "gasLimit": {
        "_hex": "0x5208"
      },
      "to": "0x32Be343B94f860124dC4fEe278FDCBD38C102D88",
      "value": {
        "_hex": "0x453bec1a5017d400"
      },
      "nonce": 4,
      "data": "0x",
      "r": "0xb2712e388b0a3349ed3a2cdf68e4b7fc14c66c043dc3c548fb99ec2321b5a7c2",
      "s": "0x2734fa0ae96a2f08fcec6ed007a5bb1275a98c297f9fd3a6a337d4705a092c6a",
      "v": 27,
      "creates": null,
      "raw": "0xf86c04850cdab4e3598252089432be343b94f860124dc4fee278fdcbd38c102d8888453bec1a5017d400801ba0b2712e388b0a3349ed3a2cdf68e4b7fc14c66c043dc3c548fb99ec2321b5a7c2a02734fa0ae96a2f08fcec6ed007a5bb1275a98c297f9fd3a6a337d4705a092c6a",
      "networkId": 0,
      "chainId": 0
    }
  ]
}