{
  "hash": "0x147f7665657c8b0540eecfe9c5407c3e46381977b6c49e93603a0a4401814103",
  "parentHash": "0xb92f3a69d6d89b5e7e6096a7f9f5297ba0e27f081f6d2c9853cbe7ce2dda818a",
  "number": 70620,
  "timestamp": 1439322829,
  "nonce": "0x3ba7922f2954b2ee",
  "difficulty": 2147874719325,
  "gasLimit": {
    "_hex": "0x2fefd8"
  },
  "gasUsed": {
    "_hex": "0xce7d"
  },
  "miner": "0xE4BA8cF48d11D4cd54fba46C5331b5477DbF5539",
  "extraData": "0x476574682f76312e302e312f77696e646f77732f676f312e342e32",
  "transactions": [
    {
      "hash": "0xbdec6f1015170016383e0a5a806ebafb0f3204e7b762c86cce5b76471b47df86",
      "blockHash": "0x147f7665657c8b0540eecfe9c5407c3e46381977b6c49e93603a0a4401814103",
      "blockNumber": 70620,
      "transactionIndex": 0,
      "confirmations": null,
      "from": "0x000Df160997ba9420e4622996b05447871848834",
      "gasPrice": {
        "_hex": "0xba43b7400"
      },
      "gasLimit": {
        "_hex": "0x9965e"
      },
      "to": "0xad5e5A5Bc4654dbeF0d5CABD7ABeB426769C073a",
      "value": {
        "_hex": "0xa"
      },
      "nonce": 12,
      "data": "0xfcfff16f",
      "r": "0x2d1e042d28a3797f329e37e0d699aad64ac9764b13beb35cdac6bd0bca5b612e",
      "s": "0x18475867243ab93beb38b4984f95a28d7e0991ec14c383691754108b9973c59a",
      "v": 28,
      "creates": null,
      "raw": "0xf8690c850ba43b74008309965e94ad5e5a5bc4654dbef0d5cabd7abeb426769c073a0a84fcfff16f1ca02d1e042d28a3797f329e37e0d699aad64ac9764b13beb35cdac6bd0bca5b612ea018475867243ab93beb38b4984f95a28d7e0991ec14c383691754108b9973c59a",
      "networkId": 0,
      "chainId": 0
    }
  ]
}