{
  "hash": "0x74cb8022e6c86478f4db1090ce54625615cd0588155ff84810721b42fb2655f9",
  "parentHash": "0xbbd4aeb872a3ad5a169eb29c167a244c52da8f09ff6f7989b83fe57415ee9e1e",
  "number": 94840,
  "timestamp": 1439714885,
  "nonce": "0x6913a13fef894f41",
  "difficulty": 3513837790980,
  "gasLimit": {
    "_hex": "0x2fefd8"
  },
  "gasUsed": {
    "_hex": "0x5208"
  },
  "miner": "0xe6A7a1d47ff21B6321162AEA7C6CB457D5476Bca",
  "extraData": "0x476574682f76312e302e312d38326566323666362f6c696e75782f676f312e34",
  "transactions": [
    {
      "hash": "0x483e48b5c9b2ee9b0a0e265e2b0f5f6d9228f5d53950e846b9448a8fb2dc0752",
      "blockHash": "0x74cb8022e6c86478f4db1090ce54625615cd0588155ff84810721b42fb2655f9",
      "blockNumber": 94840,
      "transactionIndex": 0,
      "confirmations": null,
      "from": "0x01Ad0ACFf478127D9d702B1A13599D706cB759b1",
      "gasPrice": {
        "_hex": "0xdc03a092f"
      },
      "gasLimit": {
        "_hex": "0x5208"
      },
      "to": "0x32Be343B94f860124dC4fEe278FDCBD38C102D88",
      "value": {
        "_hex": "0x455f298210453c00"
      },
      "nonce": 31,
      "data": "0x",
      "r": "0x96ff278e25135e606189384e13dba9a88d630aa839159ca9a0118fe919c82696",
      "s": "0x683f722b066c37f9214df93d84bf79d06ecdb0016c95d75e693f1e928a2137ce",
      "v": 27,
      "creates": null,
      "raw": "0xf86c1f850dc03a092f8252089432be343b94f860124dc4fee278fdcbd38c102d8888455f298210453c00801ba096ff278e25135e606189384e13dba9a88d630aa839159ca9a0118fe919c82696a0683f722b066c37f9214df93d84bf79d06ecdb0016c95d75e693f1e928a2137ce",
      "networkId": 0,
      "chainId": 0
    }
  ]
}