{
  "hash": "0x92c26ef2c9612b2d82cd51e279329a8e8a361ed2cb899d284b2849be7674586e",
  "parentHash": "0x17d4cd30b34e59cc35758177d0704e5b6132ae3b2d87a5e92eb8772efb0e3cae",
  "number": 46591,
  "timestamp": 1438925929,
  "nonce": "0xf8ac04df2a370f94",
  "difficulty": 1452520511417,
  "gasLimit": {
    "_hex": "0x6a0a"
  },
  "gasUsed": {
    "_hex": "0x5208"
  },
  "miner": "0xa50ec0D39fa913E62f1Bae7074E6F36caA71855b",
  "extraData": "0x476574682f76312e302e302f6c696e75782f676f312e342e32",
  "transactions": [
    {
      "hash": "0x17785f8ff3b9fb476e270bd7e1eee1c328ccfdc2e17dc3da168df9c15856182e",
      "blockHash": "0x92c26ef2c9612b2d82cd51e279329a8e8a361ed2cb899d284b2849be7674586e",
      "blockNumber": 46591,
      "transactionIndex": 0,
      "confirmations": null,
      "from": "0xcCF7110d1Bd9A74bfd1d7d7d2d9D55607E7B837d",
      "gasPrice": {
        "_hex": "0x4159213bab"
      },
      "gasLimit": {
        "_hex": "0x5208"
      },
      "to": "0x3dFe98a9cebaA3c6901e643b50271d3C1A3E4C17",
      "value": {
        "_hex": "0x129814cab546fc0000"
      },
      "nonce": 0,
      "data": "0x",
      "r": "0x264d7963de5dd2e3c2454856694f023ef3ba5836cf210511e350c7f1e3a5697e",
      "s": "0x3e951737e70ced8cc77bacc40c21efabb6c57d5ab2023bb3615ab7bb00d70223",
      "v": 27,
      "creates": null,
      "raw": "0xf86d80854159213bab825208943dfe98a9cebaa3c6901e643b50271d3c1a3e4c1789129814cab546fc0000801ba0264d7963de5dd2e3c2454856694f023ef3ba5836cf210511e350c7f1e3a5697ea03e951737e70ced8cc77bacc40c21efabb6c57d5ab2023bb3615ab7bb00d70223",
      "networkId": 0,
      "chainId": 0
    }
  ]
}