{
  "hash": "0x4d8608444e2b53eb4049a15b25e501b460dc78bc3a433f016d306a203630577d",
  "parentHash": "0xd3c3520e6f91f1d5679c3ca26b4c833928bc27940b97c29d47874000d87f4807",
  "number": 67153,
  "timestamp": 1439266883,
  "nonce": "0xc1b69dc98d92fad0",
  "difficulty": 1925198076492,
  "gasLimit": {
    "_hex": "0x2fefd8"
  },
  "gasUsed": {
    "_hex": "0xa630"
  },
  "miner": "0xf927a40C8B7F6E07c5af7FA2155B4864a4112B13",
  "extraData": "0x",
  "transactions": [
    {
      "hash": "0x8ab2ee2cf5b5e5be1de64ffc5fa368b4b50c62b434c493f2d5ee8e1c9180b772",
      "blockHash": "0x4d8608444e2b53eb4049a15b25e501b460dc78bc3a433f016d306a203630577d",
      "blockNumber": 67153,
      "transactionIndex": 0,
      "confirmations": null,
      "from": "0x858079E02403b10748B71A02195b6608Abaf6b8f",
      "gasPrice": {
        "_hex": "0xd7d40ace3"
      },
      "gasLimit": {
        "_hex": "0x59d8"
      },
      "to": "0xcb2Ff4305625D98A9E13C9cA10ca47cf2345e1F8",
      "value": {
        "_hex": "0x2b5e3af16b1880000"
      },
      "nonce": 5,
      "data": "0x4d696e7573313030",
      "r": "0x752d8656cb025419aa8d58cd7b13a265fc19975f80be02c3ab2f6616687202ce",
      "s": "0x0eccc1f6524c895f3ded3e4757609e22bb1a49704c93bc43b9cbd79a2986c46d",
      "v": 28,
      "creates": null,
      "raw": "0xf87505850d7d40ace38259d894cb2ff4305625d98a9e13c9ca10ca47cf2345e1f88902b5e3af16b1880000884d696e75733130301ca0752d8656cb025419aa8d58cd7b13a265fc19975f80be02c3ab2f6616687202cea00eccc1f6524c895f3ded3e4757609e22bb1a49704c93bc43b9cbd79a2986c46d",
      "networkId": 0,
      "chainId": 0
    },
    {
      "hash": "0xb34354d254a95328345a5fc44eaddcbc385499100adf92ab8fee94b224dae7ff",
      "blockHash": "0x4d8608444e2b53eb4049a15b25e501b460dc78bc3a433f016d306a203630577d",
      "blockNumber": 67153,
      "transactionIndex": 1,
      "confirmations": null,
      "from": "0x2910543Af39abA0Cd09dBb2D50200b3E800A63D2",
      "gasPrice": {
        "_hex": "0xcc6174ab4"
      },
      "gasLimit": {
        "_hex": "0x5208"
      },
      "to": "0xb4Ad43131139584E8f6F31D578E0dC4d11Df6D7b",
      "value": {
        "_hex": "0x2b5e3af16b1880000"
      },
      "nonce": 209,
      "data": "0x",
      "r": "0xe356324e2fb292508d621d1f7d63ed7352394c48e569136900c5a948991fde13",
      "s": "0x0d6835dd7da817d6b2913dff89fa3e242667103e1aeefbf63e2dc28f760034ee",
      "v": 27,
      "creates": null,
      "raw": "0xf86e81d1850cc6174ab482520894b4ad43131139584e8f6f31d578e0dc4d11df6d7b8902b5e3af16b1880000801ba0e356324e2fb292508d621d1f7d63ed7352394c48e569136900c5a948991fde13a00d6835dd7da817d6b2913dff89fa3e242667103e1aeefbf63e2dc28f760034ee",
      "networkId": 0,
      "chainId": 0
    }
  ]
}