{
  "hash": "0xd2b8ecc7833b262d966cacb8dfc4aeea9f38a29825c07bb84e6c96ae201e03cf",
  "parentHash": "0xa69cfd8f12e5f228905d05878acf4fe97312b4eeadd70ee3856535a975c115b4",
  "number": 88003,
  "timestamp": 1439601026,
  "nonce": "0xf438f59fb1c8f595",
  "difficulty": 3194186529511,
  "gasLimit": {
    "_hex": "0x2fefd8"
  },
  "gasUsed": {
    "_hex": "0x546c"
  },
  "miner": "0xe6A7a1d47ff21B6321162AEA7C6CB457D5476Bca",
  "extraData": "0x476574682f76312e302e312d38326566323666362f6c696e75782f676f312e34",
  "transactions": [
    {
      "hash": "0x425f526142b2c387287880b0b5185a836df30701940eb893442736ae71536ee8",
      "blockHash": "0xd2b8ecc7833b262d966cacb8dfc4aeea9f38a29825c07bb84e6c96ae201e03cf",
      "blockNumber": 88003,
      "transactionIndex": 0,
      "confirmations": null,
      "from": "0x34BDAF0a5ed72734a4c4c6CE6Cc8132EC81fb2a8",
      "gasPrice": {
        "_hex": "0xd1f217cbf"
      },
      "gasLimit": {
        "_hex": "0x61a8"
      },
      "to": "0x609E9AE0DC7196EC893bFa9C06A37421Be70bF2d",
      "value": {
        "_hex": "0xde0b6b3a7640000"
      },
      "nonce": 3,
      "data": "0x454e37465148485647",
      "r": "0x0665eb5ad83da0cf0b2658b8d1d29a55b1565582586bd43c84341c782a692719",
      "s": "0x5109f2981f656ac18c2af33492df7e3575ebd3170c85d07be723ebeed402078d",
      "v": 28,
      "creates": null,
      "raw": "0xf87503850d1f217cbf8261a894609e9ae0dc7196ec893bfa9c06a37421be70bf2d880de0b6b3a764000089454e374651484856471ca00665eb5ad83da0cf0b2658b8d1d29a55b1565582586bd43c84341c782a692719a05109f2981f656ac18c2af33492df7e3575ebd3170c85d07be723ebeed402078d",
      "networkId": 0,
      "chainId": 0
    }
  ]
}