{
  "hash": "0xe7604a51e456a41190bfd7b72fe61b73e6febc03d54a37e22d5f4f9cf5cdfa42",
  "parentHash": "0x081bdfcc6d807b905ac736455276c6a44d210d1e0e8b50785cd8f4c07bb6cf72",
  "number": 118393,
  "timestamp": 1440125326,
  "nonce": "0x15f087ff5376da28",
  "difficulty": 4295269876750,
  "gasLimit": {
    "_hex": "0x2fefd8"
  },
  "gasUsed": {
    "_hex": "0x5208"
  },
  "miner": "0x52bc44d5378309EE2abF1539BF71dE1b7d7bE3b5",
  "extraData": "0xd783010002844765746887676f312e342e32856c696e7578",
  "transactions": [
    {
      "hash": "0xb97857a366d32b473a0df8b8c2388cdf337ab9865f523928ad985fddc6b2d571",
      "blockHash": "0xe7604a51e456a41190bfd7b72fe61b73e6febc03d54a37e22d5f4f9cf5cdfa42",
      "blockNumber": 118393,
      "transactionIndex": 0,
      "confirmations": null,
      "from": "0xF11940EA05aA9CC3F13aCF5C5cA6EDCF312E3Aec",
      "gasPrice": {
        "_hex": "0xd9dd8e9f7"
      },
      "gasLimit": {
        "_hex": "0x15f90"
      },
      "to": "0x59C62d3D43f9EA1c4118d98c188AA5d028b8bB8E",
      "value": {
        "_hex": "0x254beb02d1dcc0000"
      },
      "nonce": 14,
      "data": "0x",
      "r": "0xcddcde1eaf3469b8137afdbd1a438530559281066d6fb5c067f795652df5526b",
      "s": "0x67c95236cdd7865bef239f96e2ea496b4c309ede56f8a5a32839e950857870c5",
      "v": 28,
      "creates": null,
      "raw": "0xf86e0e850d9dd8e9f783015f909459c62d3d43f9ea1c4118d98c188aa5d028b8bb8e890254beb02d1dcc0000801ca0cddcde1eaf3469b8137afdbd1a438530559281066d6fb5c067f795652df5526ba067c95236cdd7865bef239f96e2ea496b4c309ede56f8a5a32839e950857870c5",
      "networkId": 0,
      "chainId": 0
    }
  ]
}