{
  "hash": "0x346ae684b6023b7eefb80b71162992f5d7a7ed181a1c7f0752b9500a1a53eac0",
  "parentHash": "0xe892804b440208159861a7c6a3229d4e109ffe48a2463abd7ecf5874b503cc52",
  "number": 114491,
  "timestamp": 1440041210,
  "nonce": "0x219d159a2c586222",
  "difficulty": 4503498535193,
  "gasLimit": {
    "_hex": "0x2fefd8"
  },
  "gasUsed": {
    "_hex": "0x18326"
  },
  "miner": "0x893Fb367C7E84864E2A1C45D75d7F49cbe4b2073",
  "extraData": "0x",
  "transactions": [
    {
      "hash": "0xb5442682a9833be08112cdd67437b5c9ed5ffe8422652e7866e906679522b159",
      "blockHash": "0x346ae684b6023b7eefb80b71162992f5d7a7ed181a1c7f0752b9500a1a53eac0",
      "blockNumber": 114491,
      "transactionIndex": 0,
      "confirmations": null,
      "from": "0x7e99dfbE989d3bA529D19751b7F4317f8953A3e2",
      "gasPrice": {
        "_hex": "0xcd01555c5"
      },
      "gasLimit": {
        "_hex": "0x249f0"
      },
      "to": "0xE28e72FCf78647ADCe1F1252F240bbfaebD63BcC",
      "value": {
        "_hex": "0x340aad21b3b700000"
      },
      "nonce": 2,
      "data": "0x45466f3a",
      "r": "0xffb68fc5cedb7e4945a6366ed200af048073490e58d55c581f41295260e3b4a7",
      "s": "0x465742011ba227fbdf3c18f9d78004cb61090d2e026c670c85e1ceb0e651abbd",
      "v": 28,
      "creates": null,
      "raw": "0xf87202850cd01555c5830249f094e28e72fcf78647adce1f1252f240bbfaebd63bcc890340aad21b3b7000008445466f3a1ca0ffb68fc5cedb7e4945a6366ed200af048073490e58d55c581f41295260e3b4a7a0465742011ba227fbdf3c18f9d78004cb61090d2e026c670c85e1ceb0e651abbd",
      "networkId": 0,
      "chainId": 0
    }
  ]
}