{
  "hash": "0xccc76a85667db51a0de01264617fca37741fe06e2baf6775e4e7da45897632b5",
  "parentHash": "0x3ba13f77f13dca0f30412cba3f1549e97670f15c5bb4699e58371ec166a9eb1e",
  "number": 78392,
  "timestamp": 1439453133,
  "nonce": "0x07d2ede760891c50",
  "difficulty": 2275377813567,
  "gasLimit": {
    "_hex": "0x2fefd8"
  },
  "gasUsed": {
    "_hex": "0x5208"
  },
  "miner": "0xbb7B8287f3F0a933474a79eAe42CBCa977791171",
  "extraData": "0x476574682f4c5649562f76312e302e312f6c696e75782f676f312e342e32",
  "transactions": [
    {
      "hash": "0x77c84574cf20e18f7ef6cf8e951a0fa5f3b43bfacd19243799f0c459875429d6",
      "blockHash": "0xccc76a85667db51a0de01264617fca37741fe06e2baf6775e4e7da45897632b5",
      "blockNumber": 78392,
      "transactionIndex": 0,
      "confirmations": null,
      "from": "0xB7268c7705A1866b2A78e882fdfDc8E2a4e1428E",
      "gasPrice": {
        "_hex": "0xd6b187d36"
      },
      "gasLimit": {
        "_hex": "0x15f90"
      },
      "to": "0x96811Ad897894eC178872117C8BF2f03971A393B",
      "value": {
        "_hex": "0x4563918244f40000"
      },
      "nonce": 20,
      "data": "0x",
      "r": "0x04feb35c6db3a4ed878ca35219f769710b9f1cc520489ba8ed8724787a85b15f",
      "s": "0x79d3f765afea09f5401d9d96e29a9a1745d03f8dfe4b0ee852534b47144f4ff5",
      "v": 27,
      "creates": null,
      "raw": "0xf86d14850d6b187d3683015f909496811ad897894ec178872117c8bf2f03971a393b884563918244f40000801ba004feb35c6db3a4ed878ca35219f769710b9f1cc520489ba8ed8724787a85b15fa079d3f765afea09f5401d9d96e29a9a1745d03f8dfe4b0ee852534b47144f4ff5",
      "networkId": 0,
      "chainId": 0
    }
  ]
}