{
  "hash": "0x97efb3433f8aab10f32ee523a3f537e944630b58ed57216dfed87ff53a4b1aa7",
  "parentHash": "0x337abda6ed05ccbebcd66dcec4b16eb1b5674024c33ad2e53683ac695d8d96f5",
  "number": 86095,
  "timestamp": 1439573280,
  "nonce": "0x368b42de66b712e7",
  "difficulty": 2813999453157,
  "gasLimit": {
    "_hex": "0x2fefd5"
  },
  "gasUsed": {
    "_hex": "0x5208"
  },
  "miner": "0xe6A7a1d47ff21B6321162AEA7C6CB457D5476Bca",
  "extraData": "0x476574682f76312e302e312d38326566323666362f6c696e75782f676f312e34",
  "transactions": [
    {
      "hash": "0x8cf778884411bbee80b406b13fff954dd76cb946d389d8cc2c475eca68b6ebd4",
      "blockHash": "0x97efb3433f8aab10f32ee523a3f537e944630b58ed57216dfed87ff53a4b1aa7",
      "blockNumber": 86095,
      "transactionIndex": 0,
      "confirmations": null,
      "from": "0x7871C9936A21B89507B5B65C7B13d8216D832D76",
      "gasPrice": {
        "_hex": "0xd6b187d36"
      },
      "gasLimit": {
        "_hex": "0x15f90"
      },
      "to": "0x108feDb097c1DCfED441480170144D8e19BB217f",
      "value": {
        "_hex": "0x2386f26fc10000"
      },
      "nonce": 0,
      "data": "0x",
      "r": "0xf40d87f53ae1774bda978d48bc3e64bc244afa838cbdc30cf03f86308709de78",
      "s": "0x01f40b80e0265f9769ba35a853e845f3f40dc949f154feffe3199fabbc284e0c",
      "v": 27,
      "creates": null,
      "raw": "0xf86c80850d6b187d3683015f9094108fedb097c1dcfed441480170144d8e19bb217f872386f26fc10000801ba0f40d87f53ae1774bda978d48bc3e64bc244afa838cbdc30cf03f86308709de78a001f40b80e0265f9769ba35a853e845f3f40dc949f154feffe3199fabbc284e0c",
      "networkId": 0,
      "chainId": 0
    }
  ]
}