{
  "hash": "0x0825a63e6d94e635bf91b9b7627aa40d22000c75e49815ace9665234e88c1e37",
  "parentHash": "0x12b2df3828d33cd6003c2d0731f8f725daff454c4d0df8dea96d095dbdfe83e4",
  "number": 82518,
  "timestamp": 1439520728,
  "nonce": "0xc4801a7eb4a638bf",
  "difficulty": 2374110892427,
  "gasLimit": {
    "_hex": "0x2fefd8"
  },
  "gasUsed": {
    "_hex": "0x5208"
  },
  "miner": "0x0eDEd3DA479d0beF8eeC92A76644D3f4E3C177f7",
  "extraData": "0x476574682f76312e302e312f6c696e75782f676f312e342e32",
  "transactions": [
    {
      "hash": "0x806a168cd15599360f4a280341695522a843abc31547621326542a4281506df4",
      "blockHash": "0x0825a63e6d94e635bf91b9b7627aa40d22000c75e49815ace9665234e88c1e37",
      "blockNumber": 82518,
      "transactionIndex": 0,
      "confirmations": null,
      "from": "0x785c79a2f4C948DD7feBF1360D8A228c51A4211E",
      "gasPrice": {
        "_hex": "0xd75908638"
      },
      "gasLimit": {
        "_hex": "0x15f90"
      },
      "to": "0x27A2f708f13CFE24f8e5d6E8b7D8E971D2449Ba0",
      "value": {
        "_hex": "0x9b6e64a8ec60000"
      },
      "nonce": 1,
      "data": "0x",
      "r": "0xfd4730bcf0fe834c6f654cac17505cd1e2703b9bf210d838e25ae0d0f563cafd",
      "s": "0x681b38e9b642134c5ea3f60f41432035ff736a5208d895b35ece1be9e1ab6447",
      "v": 28,
      "creates": null,
      "raw": "0xf86d01850d7590863883015f909427a2f708f13cfe24f8e5d6e8b7d8e971d2449ba08809b6e64a8ec60000801ca0fd4730bcf0fe834c6f654cac17505cd1e2703b9bf210d838e25ae0d0f563cafda0681b38e9b642134c5ea3f60f41432035ff736a5208d895b35ece1be9e1ab6447",
      "networkId": 0,
      "chainId": 0
    }
  ]
}