{
  "hash": "0xb24d14bcd8492e36d59e1e5df3b6c4888aa04498c6c93c9309f8bd278bb6de22",
  "parentHash": "0x140385017f4b5e81eed8bc642f542828c8cbdceb61a57a45b41a8a356fd0e64d",
  "number": 89051,
  "timestamp": 1439617447,
  "nonce": "0x3ecc8a3604752530",
  "difficulty": 3259961321800,
  "gasLimit": {
    "_hex": "0x2fefd8"
  },
  "gasUsed": {
    "_hex": "0x5208"
  },
  "miner": "0xbb7B8287f3F0a933474a79eAe42CBCa977791171",
  "extraData": "0x476574682f4c5649562f76312e302e312f6c696e75782f676f312e342e32",
  "transactions": [
    {
      "hash": "0x9b2a3436852c35643069b0e490780ce61a0e8c08804a00a3b585d586af490141",
      "blockHash": "0xb24d14bcd8492e36d59e1e5df3b6c4888aa04498c6c93c9309f8bd278bb6de22",
      "blockNumber": 89051,
      "transactionIndex": 0,
      "confirmations": null,
      "from": "0xF4f2C15602B084Cae84Ea603f75527DE19705aA1",
      "gasPrice": {
        "_hex": "0xd8f95147d"
      },
      "gasLimit": {
        "_hex": "0x5208"
      },
      "to": "0x32Be343B94f860124dC4fEe278FDCBD38C102D88",
      "value": {
        "_hex": "0x1bbd14fdd1b5c400"
      },
      "nonce": 1,
      "data": "0x",
      "r": "0x03b34bea84852cf9b98428c251a5ac23b0f04b80e9693f486622a006115b42f1",
      "s": "0x6a4c988b2a9960bd57192fd7e1d2fb5d2e26b1ac2855eec0dc75d5c4efd3047a",
      "v": 27,
      "creates": null,
      "raw": "0xf86c01850d8f95147d8252089432be343b94f860124dc4fee278fdcbd38c102d88881bbd14fdd1b5c400801ba003b34bea84852cf9b98428c251a5ac23b0f04b80e9693f486622a006115b42f1a06a4c988b2a9960bd57192fd7e1d2fb5d2e26b1ac2855eec0dc75d5c4efd3047a",
      "networkId": 0,
      "chainId": 0
    }
  ]
}