{
  "hash": "0xa9eb3deafb992ff65e20307b3eac225e9d8ec9808a9162a98b09ae78c4e3073f",
  "parentHash": "0xb8c2c2b463e1687cea86b81530f66442d67932663d62ff0d010657a9029ff190",
  "number": 89809,
  "timestamp": 1439629510,
  "nonce": "0x68c0482c3eaa69d0",
  "difficulty": 3340227888040,
  "gasLimit": {
    "_hex": "0x2fefd8"
  },
  "gasUsed": {
    "_hex": "0xa410"
  },
  "miner": "0x88D74a59454F6cF3B51ef6b9136AFb6b9D405A88",
  "extraData": "0x476574682f76312e302e312d37666266393930632f6c696e75782f676f312e34",
  "transactions": [
    {
      "hash": "0x778535c556db8452118112dfe223b13aa138840596037497014ebbbcf68cc58e",
      "blockHash": "0xa9eb3deafb992ff65e20307b3eac225e9d8ec9808a9162a98b09ae78c4e3073f",
      "blockNumber": 89809,
      "transactionIndex": 0,
      "confirmations": null,
      "from": "0xAD8c7FBFaBC46C35aDb03F7b3A67e731E5793899",
      "gasPrice": {
        "_hex": "0xd021da1e1"
      },
      "gasLimit": {
        "_hex": "0x5208"
      },
      "to": "0x32Be343B94f860124dC4fEe278FDCBD38C102D88",
      "value": {
        "_hex": "0x745f9b5e2eb50800"
      },
      "nonce": 6,
      "data": "0x",
      "r": "0x49bc78228b61eded337759cf21fff01c4ba6f0a7072b3084b32fd206affffb8e",
      "s": "0x737b03edd9b838654ef5f7ac278c5c7848b097703af885b58f006313f0c9068a",
      "v": 27,
      "creates": null,
      "raw": "0xf86c06850d021da1e18252089432be343b94f860124dc4fee278fdcbd38c102d8888745f9b5e2eb50800801ba049bc78228b61eded337759cf21fff01c4ba6f0a7072b3084b32fd206affffb8ea0737b03edd9b838654ef5f7ac278c5c7848b097703af885b58f006313f0c9068a",
      "networkId": 0,
      "chainId": 0
    },
    {
      "hash": "0xbc41dadb9e1417d466c73bb71751530be6bde8515accfe3f7aaec463a62fc6be",
      "blockHash": "0xa9eb3deafb992ff65e20307b3eac225e9d8ec9808a9162a98b09ae78c4e3073f",
      "blockNumber": 89809,
      "transactionIndex": 1,
      "confirmations": null,
      "from": "0x7c56d94ebECcb769524379C450873519a9d805FF",
      "gasPrice": {
        "_hex": "0xba43b7400"
      },
      "gasLimit": {
        "_hex": "0x5208"
      },
      "to": "0x0037A6B811ffeB6e072DA21179d11B1406371C63",
      "value": {
        "_hex": "0x6a8552a3029f000"
      },
      "nonce": 8,
      "data": "0x",
      "r": "0x1432bcb39e864d9a0d48a0ab7b7b52de900d1506c3ede82d807d872e9d60a804",
      "s": "0x24d8f564a03addaf7b2f4f2f9a01290eb727ee322238f905af52b0b2eefa9181",
      "v": 28,
      "creates": null,
      "raw": "0xf86c08850ba43b7400825208940037a6b811ffeb6e072da21179d11b1406371c638806a8552a3029f000801ca01432bcb39e864d9a0d48a0ab7b7b52de900d1506c3ede82d807d872e9d60a804a024d8f564a03addaf7b2f4f2f9a01290eb727ee322238f905af52b0b2eefa9181",
      "networkId": 0,
      "chainId": 0
    }
  ]
}