{
  "hash": "0xd7d0406d981e531bbbb03341717718bb23233c459e7f8c616c36c1cd85d777ce",
  "parentHash": "0x355b5b97c36efd52bfd3615ed05402445742041be3d3fdc1a29fa2f1aa30d55b",
  "number": 49483,
  "timestamp": 1438974126,
  "nonce": "0x2a064da9377fb37a",
  "difficulty": 1482105025697,
  "gasLimit": {
    "_hex": "0x32c5d"
  },
  "gasUsed": {
    "_hex": "0x5208"
  },
  "miner": "0xBb12b5a9B85D4AB8CDE6056E9c1b2a4a337D2261",
  "extraData": "0x476574682f76312e302e312d36393865393864392f6c696e75782f676f312e34",
  "transactions": [
    {
      "hash": "0x806340b8146b4fc530a16b302e44ededf72507cae0e3fe3cb0b1c0e31cec9cb6",
      "blockHash": "0xd7d0406d981e531bbbb03341717718bb23233c459e7f8c616c36c1cd85d777ce",
      "blockNumber": 49483,
      "transactionIndex": 0,
      "confirmations": null,
      "from": "0xc440C7Ca2F964B6972ef664a2261DdE892619d9C",
      "gasPrice": {
        "_hex": "0x108c85ef086"
      },
      "gasLimit": {
        "_hex": "0x55f0"
      },
      "to": "0x8bb807c77969259B4Bb4fB3522e1720f4f6bebed",
      "value": {
        "_hex": "0x8ac7230489e80000"
      },
      "nonce": 0,
      "data": "0x",
      "r": "0x61692b28ae38cb3de68046bf149508c5257ef10b33addad9b06bea022ed8d51b",
      "s": "0x57df6251f7ee3eb66de048385904a26ee82482e2a1599c99dc11a663a690a225",
      "v": 27,
      "creates": null,
      "raw": "0xf86d80860108c85ef0868255f0948bb807c77969259b4bb4fb3522e1720f4f6bebed888ac7230489e80000801ba061692b28ae38cb3de68046bf149508c5257ef10b33addad9b06bea022ed8d51ba057df6251f7ee3eb66de048385904a26ee82482e2a1599c99dc11a663a690a225",
      "networkId": 0,
      "chainId": 0
    }
  ]
}