{
  "hash": "0x26b0352f1d1111374ca1aee111f2c262fe38455f8a2909bd6f96ae0cd930df68",
  "parentHash": "0x782fdba819fd671d96c0cd05c696b7f01d06dcc859dc0af4434e8e08536ed77e",
  "number": 96862,
  "timestamp": 1439747036,
  "nonce": "0x000f042286213317",
  "difficulty": 3735909248804,
  "gasLimit": {
    "_hex": "0x2fefd8"
  },
  "gasUsed": {
    "_hex": "0x5208"
  },
  "miner": "0x3D5292e9d2a2D31014717ff936A0F9375A5Cc8b7",
  "extraData": "0x476574682f76312e302e312f77696e646f77732f676f312e342e32",
  "transactions": [
    {
      "hash": "0x585fca61a888791ba2da4a6d6562c76219e666e468a1fb75d9d39e2908e95be4",
      "blockHash": "0x26b0352f1d1111374ca1aee111f2c262fe38455f8a2909bd6f96ae0cd930df68",
      "blockNumber": 96862,
      "transactionIndex": 0,
      "confirmations": null,
      "from": "0x3D5292e9d2a2D31014717ff936A0F9375A5Cc8b7",
      "gasPrice": {
        "_hex": "0xd7d40ace3"
      },
      "gasLimit": {
        "_hex": "0x15f90"
      },
      "to": "0x9f78552704fe7e52cC7C3853534aA2C3cf580D54",
      "value": {
        "_hex": "0x1158e460913d00000"
      },
      "nonce": 4,
      "data": "0x",
      "r": "0x391bb9e29b4f7b7f0c1985c11943df372ee417d819a289796f4713257f513cdd",
      "s": "0x7757c62885a155d403bc0ccefd89d3fe67aa42716885bb3a873c46d7314172d7",
      "v": 27,
      "creates": null,
      "raw": "0xf86e04850d7d40ace383015f90949f78552704fe7e52cc7c3853534aa2c3cf580d548901158e460913d00000801ba0391bb9e29b4f7b7f0c1985c11943df372ee417d819a289796f4713257f513cdda07757c62885a155d403bc0ccefd89d3fe67aa42716885bb3a873c46d7314172d7",
      "networkId": 0,
      "chainId": 0
    }
  ]
}