{
  "hash": "0xad30ae24cf5c9ef85962a12b1cea324a2af1e114fc5a8d5170e7b07f97238e97",
  "parentHash": "0x19d609b71b333fc717bfcd996092af416910070ce1f6cf08711578d43f03a466",
  "number": 85751,
  "timestamp": 1439568227,
  "nonce": "0xeaf2e80da8f110ae",
  "difficulty": 2784046887237,
  "gasLimit": {
    "_hex": "0x2fefd8"
  },
  "gasUsed": {
    "_hex": "0x5208"
  },
  "miner": "0x88D74a59454F6cF3B51ef6b9136AFb6b9D405A88",
  "extraData": "0x476574682f76312e302e312d38326566323666362f6c696e75782f676f312e34",
  "transactions": [
    {
      "hash": "0x57445e871a05b736229dbf34a5303f050fc8d5b1d6c345c0a353cf2d8d6020ca",
      "blockHash": "0xad30ae24cf5c9ef85962a12b1cea324a2af1e114fc5a8d5170e7b07f97238e97",
      "blockNumber": 85751,
      "transactionIndex": 0,
      "confirmations": null,
      "from": "0x661eedD93dA06499d3220aA2aDF05d6d2417e60c",
      "gasPrice": {
        "_hex": "0x10dc90d85e7"
      },
      "gasLimit": {
        "_hex": "0x15f90"
      },
      "to": "0x71762C63678C18D1C6378ce068E666381315147e",
      "value": {
        "_hex": "0x5"
      },
      "nonce": 0,
      "data": "0x",
      "r": "0xaf712f6d52cb91bfa601b4cd721bfd79949524f46619e954af411d9a597668e1",
      "s": "0x00a97e6c890758e6e3135bd90f555df4b48b69c712e19de339d49b91c0f1bbc3",
      "v": 28,
      "creates": null,
      "raw": "0xf8658086010dc90d85e783015f909471762c63678c18d1c6378ce068e666381315147e05801ca0af712f6d52cb91bfa601b4cd721bfd79949524f46619e954af411d9a597668e19fa97e6c890758e6e3135bd90f555df4b48b69c712e19de339d49b91c0f1bbc3",
      "networkId": 0,
      "chainId": 0
    }
  ]
}