{
  "hash": "0x3f14cab5ea8ec2f75443e64e54df41116ee94015c8b8bcc659beded7fcc9f686",
  "parentHash": "0x125f3b2d574069300c0e909a2ebc3ef9bba13712b60045139abea2317402f3bb",
  "number": 98326,
  "timestamp": 1439770811,
  "nonce": "0xb7fe18b31182dee9",
  "difficulty": 3876474414828,
  "gasLimit": {
    "_hex": "0x2fefd8"
  },
  "gasUsed": {
    "_hex": "0x5208"
  },
  "miner": "0xC603Ab5ef41fC61AA8b76bEddb09e3Cfcbb174BD",
  "extraData": "0x476574682f76312e302e312f77696e646f77732f676f312e342e32",
  "transactions": [
    {
      "hash": "0xad7f0cda6f9b6bc3ab8957dde40a0f5fe45f2f85c46b9502f2566961ea5d497d",
      "blockHash": "0x3f14cab5ea8ec2f75443e64e54df41116ee94015c8b8bcc659beded7fcc9f686",
      "blockNumber": 98326,
      "transactionIndex": 0,
      "confirmations": null,
      "from": "0x2AeDF47e935C75601e9D779453F1a5F8c616bd6E",
      "gasPrice": {
        "_hex": "0xd606428e3"
      },
      "gasLimit": {
        "_hex": "0x5208"
      },
      "to": "0xFBb1b73C4f0BDa4f67dcA266ce6Ef42f520fBB98",
      "value": {
        "_hex": "0x29bd09a71f746ec0"
      },
      "nonce": 6,
      "data": "0x",
      "r": "0xdc5d13eadce93ddcd2579dd22ab119e55f6a963fc3dec2b0b81fa0ee3fc25903",
      "s": "0x4b3fe29cc2aa6139ff5ffe914becceef8922ba4a8839ff6734e28a47f201ba18",
      "v": 28,
      "creates": null,
      "raw": "0xf86c06850d606428e382520894fbb1b73c4f0bda4f67dca266ce6ef42f520fbb988829bd09a71f746ec0801ca0dc5d13eadce93ddcd2579dd22ab119e55f6a963fc3dec2b0b81fa0ee3fc25903a04b3fe29cc2aa6139ff5ffe914becceef8922ba4a8839ff6734e28a47f201ba18",
      "networkId": 0,
      "chainId": 0
    }
  ]
}