{
  "hash": "0xb4d961e65cda022a0d8374f82a83debbc970030a3a71218a73f29bd4eeace047",
  "parentHash": "0x4d9535596eeaa7fa572d48cf11c9f00ae6b8a6a347045e3ac7577f80a0ec6dcf",
  "number": 78415,
  "timestamp": 1439453474,
  "nonce": "0x167cddbdba5274f0",
  "difficulty": 2283162030652,
  "gasLimit": {
    "_hex": "0x2fefd8"
  },
  "gasUsed": {
    "_hex": "0x5208"
  },
  "miner": "0xbb7B8287f3F0a933474a79eAe42CBCa977791171",
  "extraData": "0x476574682f4c5649562f76312e302e312f6c696e75782f676f312e342e32",
  "transactions": [
    {
      "hash": "0x4421a8257c828be22b7373ca273738c4cc5b4776c7e1447aec130d447d0631db",
      "blockHash": "0xb4d961e65cda022a0d8374f82a83debbc970030a3a71218a73f29bd4eeace047",
      "blockNumber": 78415,
      "transactionIndex": 0,
      "confirmations": null,
      "from": "0x1543667B9bad3e41865C3233E1764d8dda8E1F3D",
      "gasPrice": {
        "_hex": "0xd768cd4c0"
      },
      "gasLimit": {
        "_hex": "0x5208"
      },
      "to": "0x32Be343B94f860124dC4fEe278FDCBD38C102D88",
      "value": {
        "_hex": "0x6202c54e8f7094000"
      },
      "nonce": 8,
      "data": "0x",
      "r": "0x35536cad36818297678ce9470ceddd84bdf8d34072a1803658c824d60bcfb104",
      "s": "0x3eb56b078d1f678b96e8013d4354c8a5c96328d6ff2fec3581a867f140790e9c",
      "v": 28,
      "creates": null,
      "raw": "0xf86d08850d768cd4c08252089432be343b94f860124dc4fee278fdcbd38c102d888906202c54e8f7094000801ca035536cad36818297678ce9470ceddd84bdf8d34072a1803658c824d60bcfb104a03eb56b078d1f678b96e8013d4354c8a5c96328d6ff2fec3581a867f140790e9c",
      "networkId": 0,
      "chainId": 0
    }
  ]
}