{
  "hash": "0xa9e990b8778319dd67086fdee2d8ea536fa31a489ed535d79fb834869158e1c6",
  "parentHash": "0xce158499a3b26f0226fce4735011c68a63326aaa6db40e414b24021c9fbca315",
  "number": 93999,
  "timestamp": 1439700966,
  "nonce": "0x443657ed3a709cc2",
  "difficulty": 3478340025694,
  "gasLimit": {
    "_hex": "0x2fefd8"
  },
  "gasUsed": {
    "_hex": "0xa410"
  },
  "miner": "0x5B034036Ae40b7C5d7bbbF041D07b7f76E200039",
  "extraData": "0x476574682f76312e302e312f77696e646f77732f676f312e342e32",
  "transactions": [
    {
      "hash": "0x21149cb0500b8d455474edc9c2f5243fb4a8ebf1275649a3b235602ba3e756cb",
      "blockHash": "0xa9e990b8778319dd67086fdee2d8ea536fa31a489ed535d79fb834869158e1c6",
      "blockNumber": 93999,
      "transactionIndex": 0,
      "confirmations": null,
      "from": "0x120A270bbC009644e35F0bB6ab13f95b8199c4ad",
      "gasPrice": {
        "_hex": "0xda6558e21"
      },
      "gasLimit": {
        "_hex": "0x3d090"
      },
      "to": "0x957523c697993cB24FCf75EfBce4f228325e7383",
      "value": {
        "_hex": "0x2086ac351052600000"
      },
      "nonce": 571,
      "data": "0x",
      "r": "0xf0e312f8e420ea0f1dbb5115b39ba273eb33d12c227bdf902b9cc701ce56d6e6",
      "s": "0x17af8299b4c323c9d5141ae46b9608493f559a6df83aa2885b408908c77a9688",
      "v": 28,
      "creates": null,
      "raw": "0xf87082023b850da6558e218303d09094957523c697993cb24fcf75efbce4f228325e7383892086ac351052600000801ca0f0e312f8e420ea0f1dbb5115b39ba273eb33d12c227bdf902b9cc701ce56d6e6a017af8299b4c323c9d5141ae46b9608493f559a6df83aa2885b408908c77a9688",
      "networkId": 0,
      "chainId": 0
    },
    {
      "hash": "0x7bf9d73235dd65dea13b45256660a5b354ae3a8e7220ac4fb107e2fb0b06e2b4",
      "blockHash": "0xa9e990b8778319dd67086fdee2d8ea536fa31a489ed535d79fb834869158e1c6",
      "blockNumber": 93999,
      "transactionIndex": 1,
      "confirmations": null,
      "from": "0x120A270bbC009644e35F0bB6ab13f95b8199c4ad",
      "gasPrice": {
        "_hex": "0xda6558e21"
      },
      "gasLimit": {
        "_hex": "0x3d090"
      },
      "to": "0xA8a1B4d1070d54aDB24318EE8bA071892F1F8500",
      "value": {
        "_hex": "0x3bdc05cf355192400"
      },
      "nonce": 572,
      "data": "0x",
      "r": "0xd9eb9fa146f17fc346365066b3ab5fd3377be95631e02e1e1123fa9e61f74ac7",
      "s": "0x6e00a5af0677c1f98c1fdeee373d31a64a1011ed0b6b01e04e79a693c34c5efd",
      "v": 27,
      "creates": null,
      "raw": "0xf87082023c850da6558e218303d09094a8a1b4d1070d54adb24318ee8ba071892f1f85008903bdc05cf355192400801ba0d9eb9fa146f17fc346365066b3ab5fd3377be95631e02e1e1123fa9e61f74ac7a06e00a5af0677c1f98c1fdeee373d31a64a1011ed0b6b01e04e79a693c34c5efd",
      "networkId": 0,
      "chainId": 0
    }
  ]
}