{
  "hash": "0xcf568ecbfa5245f5dfb0efe5cad28265b6e2b7f333e74fa81b33ab6107592960",
  "parentHash": "0x8027256dce268dc341ed15903365af45050017dd7ea1b49da1fde5099028dbe3",
  "number": 99515,
  "timestamp": 1439791443,
  "nonce": "0x3a26adabddf00d2c",
  "difficulty": 3791689456804,
  "gasLimit": {
    "_hex": "0x2fefd8"
  },
  "gasUsed": {
    "_hex": "0x5208"
  },
  "miner": "0x0D4EcC7d750180EBf4A9Df728B6669B5Bceb5E40",
  "extraData": "0x",
  "transactions": [
    {
      "hash": "0x396badec044488a54e3f9b6869873d408f4bf20e08257cd4820429784ef7a605",
      "blockHash": "0xcf568ecbfa5245f5dfb0efe5cad28265b6e2b7f333e74fa81b33ab6107592960",
      "blockNumber": 99515,
      "transactionIndex": 0,
      "confirmations": null,
      "from": "0x790b8a3cE86E707ED0eD32bF89B3269692a23CC1",
      "gasPrice": {
        "_hex": "0xddf5ef2a9"
      },
      "gasLimit": {
        "_hex": "0x15f90"
      },
      "to": "0x4D67f4F0Db45b3B5a3424B39ed8d972F710381D5",
      "value": {
        "_hex": "0x2f9e3fb2098f20000"
      },
      "nonce": 23,
      "data": "0x",
      "r": "0x5879d910e45367ef870522f430123005a1745644162cd38a0715f6d7d8343b52",
      "s": "0x6dd4d10035955475fdd65bd10ce88d25bf497c3df1bd20ebe7efa64805e7731c",
      "v": 28,
      "creates": null,
      "raw": "0xf86e17850ddf5ef2a983015f90944d67f4f0db45b3b5a3424b39ed8d972f710381d58902f9e3fb2098f20000801ca05879d910e45367ef870522f430123005a1745644162cd38a0715f6d7d8343b52a06dd4d10035955475fdd65bd10ce88d25bf497c3df1bd20ebe7efa64805e7731c",
      "networkId": 0,
      "chainId": 0
    }
  ]
}