{
  "hash": "0x2319b6c8e78744c532711f8ca98ead684cb1874862abcdfd2bda69af0d6aa1f6",
  "parentHash": "0x9152719b59f8f922f0dc927a05767596bcf844c4724c1c99e2b29cd175549423",
  "number": 91436,
  "timestamp": 1439655685,
  "nonce": "0xd97a033f0a83e697",
  "difficulty": 3467530746784,
  "gasLimit": {
    "_hex": "0x2fefd8"
  },
  "gasUsed": {
    "_hex": "0x5208"
  },
  "miner": "0xf8E0CA3Ed80bd541b94BEdCf259e8CF2141A9523",
  "extraData": "0x476574682f76312e302e312f77696e646f77732f676f312e342e32",
  "transactions": [
    {
      "hash": "0xa0212574419cf82c12d8ca34f8c2ae21002b914fac8abb9494d97772a8d893b4",
      "blockHash": "0x2319b6c8e78744c532711f8ca98ead684cb1874862abcdfd2bda69af0d6aa1f6",
      "blockNumber": 91436,
      "transactionIndex": 0,
      "confirmations": null,
      "from": "0x53c451B5977b29118899c6B6613Cf4dEC25E6Cb0",
      "gasPrice": {
        "_hex": "0x45d964b800"
      },
      "gasLimit": {
        "_hex": "0x5208"
      },
      "to": "0xF4026b7274ddFb01DC134CbB0da9367De410178b",
      "value": {
        "_hex": "0x19e63e8562f01d0800"
      },
      "nonce": 1,
      "data": "0x",
      "r": "0x894d4a48ff412003bd5ab9502227e3e4978e9cfca666a0d8f8396d5d68af854d",
      "s": "0x474dcfe57cf0d3fd1f62fd63d24e1ef9347bb43bb3c106d0f96e5bb01ad1d4c9",
      "v": 28,
      "creates": null,
      "raw": "0xf86d018545d964b80082520894f4026b7274ddfb01dc134cbb0da9367de410178b8919e63e8562f01d0800801ca0894d4a48ff412003bd5ab9502227e3e4978e9cfca666a0d8f8396d5d68af854da0474dcfe57cf0d3fd1f62fd63d24e1ef9347bb43bb3c106d0f96e5bb01ad1d4c9",
      "networkId": 0,
      "chainId": 0
    }
  ]
}