{
  "hash": "0x5fb973104eb792a27ba83d3a9ac8345670eabc7cabb657999999de86f716d0ac",
  "parentHash": "0x35c81c7f9d343fd41558a217d88ffef1eaf4fbc24724c88ff06592ad79cde6f9",
  "number": 71765,
  "timestamp": 1439341570,
  "nonce": "0x31a1939ab653beaa",
  "difficulty": 2173957823661,
  "gasLimit": {
    "_hex": "0x2fefd8"
  },
  "gasUsed": {
    "_hex": "0x405d0"
  },
  "miner": "0x02020D22dCF88f5eDd66B382D7da019F161fB7e3",
  "extraData": "0x",
  "transactions": [
    {
      "hash": "0x7ad766285d55d7c1f8b83b7361434a3d3d57dc8aeaf3c0863e857eb0de22b23f",
      "blockHash": "0x5fb973104eb792a27ba83d3a9ac8345670eabc7cabb657999999de86f716d0ac",
      "blockNumber": 71765,
      "transactionIndex": 0,
      "confirmations": null,
      "from": "0x36d85Dc3683156e63Bf880A9fAb7788CF8143a27",
      "gasPrice": {
        "_hex": "0xdefbb026d"
      },
      "gasLimit": {
        "_hex": "0xf4240"
      },
      "to": null,
      "value": {
        "_hex": "0x0"
      },
      "nonce": 9,
      "data": "0x60606040526040516102b43803806102b48339016040526060805160600190602001505b5b33600060006101000a81548173ffffffffffffffffffffffffffffffffffffffff021916908302179055505b806001600050908051906020019082805482825590600052602060002090601f01602090048101928215609e579182015b82811115609d5782518260005055916020019190600101906081565b5b50905060c5919060a9565b8082111560c1576000818150600090555060010160a9565b5090565b50505b506101dc806100d86000396000f30060606040526000357c01000000000000000000000000000000000000000000000000000000009004806341c0e1b514610044578063cfae32171461005157610042565b005b61004f6004506100ca565b005b61005c60045061015e565b60405180806020018281038252838181518152602001915080519060200190808383829060006004602084601f0104600302600f01f150905090810190601f1680156100bc5780820380516001836020036101000a031916815260200191505b509250505060405180910390f35b600060009054906101000a900473ffffffffffffffffffffffffffffffffffffffff1673ffffffffffffffffffffffffffffffffffffffff163373ffffffffffffffffffffffffffffffffffffffff16141561015b57600060009054906101000a900473ffffffffffffffffffffffffffffffffffffffff1673ffffffffffffffffffffffffffffffffffffffff16ff5b5b565b60206040519081016040528060008152602001506001600050805480601f016020809104026020016040519081016040528092919081815260200182805480156101cd57820191906000526020600020905b8154815290600101906020018083116101b057829003601f168201915b505050505090506101d9565b90560000000000000000000000000000000000000000000000000000000000000020000000000000000000000000000000000000000000000000000000000000001377656c6c2068656c6c6f20746865726520636300000000000000000000000000",
      "r": "0x6e533fab287e2f94ba69f98cb51efbffdb7a1146629ea733ccb8b251dd43943b",
      "s": "0x643a7e4063f3e2bb9fd5495e65f3bb9a4de9186bbeb79d668e37dd65c7921d7a",
      "v": 27,
      "creates": "0x525d6813C3d4272a29FEa666FcCa7a296c98a14B",
      "raw": "0xf9036709850defbb026d830f42408080b9031460606040526040516102b43803806102b48339016040526060805160600190602001505b5b33600060006101000a81548173ffffffffffffffffffffffffffffffffffffffff021916908302179055505b806001600050908051906020019082805482825590600052602060002090601f01602090048101928215609e579182015b82811115609d5782518260005055916020019190600101906081565b5b50905060c5919060a9565b8082111560c1576000818150600090555060010160a9565b5090565b50505b506101dc806100d86000396000f30060606040526000357c01000000000000000000000000000000000000000000000000000000009004806341c0e1b514610044578063cfae32171461005157610042565b005b61004f6004506100ca565b005b61005c60045061015e565b60405180806020018281038252838181518152602001915080519060200190808383829060006004602084601f0104600302600f01f150905090810190601f1680156100bc5780820380516001836020036101000a031916815260200191505b509250505060405180910390f35b600060009054906101000a900473ffffffffffffffffffffffffffffffffffffffff1673ffffffffffffffffffffffffffffffffffffffff163373ffffffffffffffffffffffffffffffffffffffff16141561015b57600060009054906101000a900473ffffffffffffffffffffffffffffffffffffffff1673ffffffffffffffffffffffffffffffffffffffff16ff5b5b565b60206040519081016040528060008152602001506001600050805480601f016020809104026020016040519081016040528092919081815260200182805480156101cd57820191906000526020600020905b8154815290600101906020018083116101b057829003601f168201915b505050505090506101d9565b90560000000000000000000000000000000000000000000000000000000000000020000000000000000000000000000000000000000000000000000000000000001377656c6c2068656c6c6f207468657265206363000000000000000000000000001ba06e533fab287e2f94ba69f98cb51efbffdb7a1146629ea733ccb8b251dd43943ba0643a7e4063f3e2bb9fd5495e65f3bb9a4de9186bbeb79d668e37dd65c7921d7a",
      "networkId": 0,
      "chainId": 0
    },
    {
      "hash": "0x9a25ec3adafc9db867701c0eac9166ff7ef65d52b97ecc1f6da5a6965d0e6f3f",
      "blockHash": "0x5fb973104eb792a27ba83d3a9ac8345670eabc7cabb657999999de86f716d0ac",
      "blockNumber": 71765,
      "transactionIndex": 1,
      "confirmations": null,
      "from": "0x32Be343B94f860124dC4fEe278FDCBD38C102D88",
      "gasPrice": {
        "_hex": "0xd7fb7f2cb"
      },
      "gasLimit": {
        "_hex": "0x5208"
      },
      "to": "0xCD8C2959c5781245a5DcD72CFfAb01004d804Aa7",
      "value": {
        "_hex": "0x71a2104e117ed0000"
      },
      "nonce": 274,
      "data": "0x",
      "r": "0xcc7517c766773ddf6526b30f7072fe2d588d4c314d7b86ee37a2f6e0cf603aed",
      "s": "0x422b8d9f6a97448398cd0a1358546740971229d5f2a87bb88429ef2a37215bef",
      "v": 28,
      "creates": null,
      "raw": "0xf86f820112850d7fb7f2cb82520894cd8c2959c5781245a5dcd72cffab01004d804aa789071a2104e117ed0000801ca0cc7517c766773ddf6526b30f7072fe2d588d4c314d7b86ee37a2f6e0cf603aeda0422b8d9f6a97448398cd0a1358546740971229d5f2a87bb88429ef2a37215bef",
      "networkId": 0,
      "chainId": 0
    },
    {
      "hash": "0x5a2f67e1ceaee403c653818d5af6ac5da1836e35289077ec79d8dbdc2f64969a",
      "blockHash": "0x5fb973104eb792a27ba83d3a9ac8345670eabc7cabb657999999de86f716d0ac",
      "blockNumber": 71765,
      "transactionIndex": 2,
      "confirmations": null,
      "from": "0x32Be343B94f860124dC4fEe278FDCBD38C102D88",
      "gasPrice": {
        "_hex": "0xd7fb7f2cb"
      },
      "gasLimit": {
        "_hex": "0x5208"
      },
      "to": "0x107C98584d4B18bC54E1D74F4d7a0bF505Ca466f",
      "value": {
        "_hex": "0x134d16206c34900000"
      },
      "nonce": 275,
      "data": "0x",
      "r": "0xe65410859c724eeeccabed15cb200d257827c6deec12bca762c197f11f1cd6e7",
      "s": "0x4e8806d3a447182299ac3d4e8ffed2d6989c526f96f9de8c8ba2c3c791ebede7",
      "v": 28,
      "creates": null,
      "raw": "0xf86f820113850d7fb7f2cb82520894107c98584d4b18bc54e1d74f4d7a0bf505ca466f89134d16206c34900000801ca0e65410859c724eeeccabed15cb200d257827c6deec12bca762c197f11f1cd6e7a04e8806d3a447182299ac3d4e8ffed2d6989c526f96f9de8c8ba2c3c791ebede7",
      "networkId": 0,
      "chainId": 0
    }
  ]
}