{
  "hash": "0xf4a537e8e2233149929a9b6964c9aced6ee95f42131aa6b648d2c7946dfc6fe2",
  "parentHash": "0x5793f91c9fa8f824d8ed77fc1687dddcf334da81c68be65a782a36463b6f7998",
  "number": 46170,
  "timestamp": 1438918630,
  "nonce": "0x827a6369128a45a1",
  "difficulty": 1456144114565,
  "gasLimit": {
    "_hex": "0x5374"
  },
  "gasUsed": {
    "_hex": "0x5208"
  },
  "miner": "0xf927a40C8B7F6E07c5af7FA2155B4864a4112B13",
  "extraData": "0x476574682f76312e302e312f6c696e75782f676f312e342e32",
  "transactions": [
    {
      "hash": "0x9e6e19637bb625a8ff3d052b7c2fe57dc78c55a15d258d77c43d5a9c160b0384",
      "blockHash": "0xf4a537e8e2233149929a9b6964c9aced6ee95f42131aa6b648d2c7946dfc6fe2",
      "blockNumber": 46170,
      "transactionIndex": 0,
      "confirmations": null,
      "from": "0x63Ac545C991243fa18aec41D4F6f598e555015dc",
      "gasPrice": {
        "_hex": "0x746a528800"
      },
      "gasLimit": {
        "_hex": "0x5208"
      },
      "to": "0xC93f2250589a6563f5359051c1eA25746549f0D8",
      "value": {
        "_hex": "0x208686e75e903bc000"
      },
      "nonce": 0,
      "data": "0x",
      "r": "0x34b6fdc33ea520e8123cf5ac4a9ff476f639cab68980cd9366ccae7aef437ea0",
      "s": "0xe517caa5f50e27ca0d1e9a92c503b4ccb039680c6d9d0c71203ed611ea4feb33",
      "v": 27,
      "creates": null,
      "raw": "0xf86d8085746a52880082520894c93f2250589a6563f5359051c1ea25746549f0d889208686e75e903bc000801ba034b6fdc33ea520e8123cf5ac4a9ff476f639cab68980cd9366ccae7aef437ea0a0e517caa5f50e27ca0d1e9a92c503b4ccb039680c6d9d0c71203ed611ea4feb33",
      "networkId": 0,
      "chainId": 0
    }
  ]
}