{
  "hash": "0x60b14ff5e9b3e3f49bb85132419d2978a93eef4c9e5f3baf891223ded9885943",
  "parentHash": "0x7cbeffdd8db99723c94ea22ce8fe2aad129d4ae5e8adfcb5f2f1f7464898b494",
  "number": 55864,
  "timestamp": 1439078340,
  "nonce": "0xcfa2a68077bc8713",
  "difficulty": 1605233341218,
  "gasLimit": {
    "_hex": "0x2fefd8"
  },
  "gasUsed": {
    "_hex": "0x4baf0"
  },
  "miner": "0x9746c7e1ef2bd21FF3997fa467593a89cb852BD0",
  "extraData": "0x476574682f76312e302e312f77696e646f77732f676f312e342e32",
  "transactions": [
    {
      "hash": "0x9fbbadd0ebb5bf6c97a29e17a666db61fd645d9b4ea2111949472c17bf211a26",
      "blockHash": "0x60b14ff5e9b3e3f49bb85132419d2978a93eef4c9e5f3baf891223ded9885943",
      "blockNumber": 55864,
      "transactionIndex": 0,
      "confirmations": null,
      "from": "0xe6A7a1d47ff21B6321162AEA7C6CB457D5476Bca",
      "gasPrice": {
        "_hex": "0xe04169f4c"
      },
      "gasLimit": {
        "_hex": "0x55f0"
      },
      "to": "0xE2376E68D8260aC85EA789CA4fAcce34a816dDeC",
      "value": {
        "_hex": "0x1afd09a802c72a88"
      },
      "nonce": 306,
      "data": "0x",
      "r": "0x5a96128d2c9fc5f8651a06296b29c9ad48097ea40fbb875d0476831a2430130b",
      "s": "0x48344a79aa23bc2fbfdf3cfd18a9a13b4b0d6c8cd59907e0365bb3ef8816ec9c",
      "v": 28,
      "creates": null,
      "raw": "0xf86e820132850e04169f4c8255f094e2376e68d8260ac85ea789ca4facce34a816ddec881afd09a802c72a88801ca05a96128d2c9fc5f8651a06296b29c9ad48097ea40fbb875d0476831a2430130ba048344a79aa23bc2fbfdf3cfd18a9a13b4b0d6c8cd59907e0365bb3ef8816ec9c",
      "networkId": 0,
      "chainId": 0
    },
    {
      "hash": "0xa929acde9c34c2211512f161d6ba09a9ef814b02bbc26e7fdb7b67c6812cd7ab",
      "blockHash": "0x60b14ff5e9b3e3f49bb85132419d2978a93eef4c9e5f3baf891223ded9885943",
      "blockNumber": 55864,
      "transactionIndex": 1,
      "confirmations": null,
      "from": "0xe6A7a1d47ff21B6321162AEA7C6CB457D5476Bca",
      "gasPrice": {
        "_hex": "0xe04169f4c"
      },
      "gasLimit": {
        "_hex": "0x55f0"
      },
      "to": "0x65d948E7Ff8d2104C2bd01F9b5896b357e01916c",
      "value": {
        "_hex": "0x1ba271893faaadc8"
      },
      "nonce": 307,
      "data": "0x",
      "r": "0xb579d7efb3fcdea470a6a0e731d25dadf808713509e40d37e49d0be98ef2e368",
      "s": "0x7029612beae92f2979c6bca771fe5893310f5fa565c8e7829399416dbc7f4971",
      "v": 28,
      "creates": null,
      "raw": "0xf86e820133850e04169f4c8255f09465d948e7ff8d2104c2bd01f9b5896b357e01916c881ba271893faaadc8801ca0b579d7efb3fcdea470a6a0e731d25dadf808713509e40d37e49d0be98ef2e368a07029612beae92f2979c6bca771fe5893310f5fa565c8e7829399416dbc7f4971",
      "networkId": 0,
      "chainId": 0
    },
    {
      "hash": "0x6c7205c30f21c2756e04615c331f0789a8d5d5e894adacc1674c135dbc36b55a",
      "blockHash": "0x60b14ff5e9b3e3f49bb85132419d2978a93eef4c9e5f3baf891223ded9885943",
      "blockNumber": 55864,
      "transactionIndex": 2,
      "confirmations": null,
      "from": "0xe6A7a1d47ff21B6321162AEA7C6CB457D5476Bca",
      "gasPrice": {
        "_hex": "0xe04169f4c"
      },
      "gasLimit": {
        "_hex": "0x55f0"
      },
      "to": "0xD0E343F03F5a7Fd77bcD16064305C2cdeF46FBc4",
      "value": {
        "_hex": "0x1bebc260e1b24ee8"
      },
      "nonce": 308,
      "data": "0x",
      "r": "0xa065ca1609a007187dac37bc5912290750fb7ad1fc126643362662ee190197ea",
      "s": "0x5d956afdbfebca58dec2d7781c47e1b5a8f1dc22caddceb9c51a5dca17b5c4a7",
      "v": 28,
      "creates": null,
      "raw": "0xf86e820134850e04169f4c8255f094d0e343f03f5a7fd77bcd16064305c2cdef46fbc4881bebc260e1b24ee8801ca0a065ca1609a007187dac37bc5912290750fb7ad1fc126643362662ee190197eaa05d956afdbfebca58dec2d7781c47e1b5a8f1dc22caddceb9c51a5dca17b5c4a7",
      "networkId": 0,
      "chainId": 0
    },
    {
      "hash": "0xe774b475b0802f28959123db89e7f482a408832bc880682cf2a042bb105c46c3",
      "blockHash": "0x60b14ff5e9b3e3f49bb85132419d2978a93eef4c9e5f3baf891223ded9885943",
      "blockNumber": 55864,
      "transactionIndex": 3,
      "confirmations": null,
      "from": "0xe6A7a1d47ff21B6321162AEA7C6CB457D5476Bca",
      "gasPrice": {
        "_hex": "0xe04169f4c"
      },
      "gasLimit": {
        "_hex": "0x55f0"
      },
      "to": "0x8178414Ff0aba7fD5bC60A72cB17e213b371F35C",
      "value": {
        "_hex": "0x1c161c1a85eb7a10"
      },
      "nonce": 309,
      "data": "0x",
      "r": "0x6b93af80b3db099fbdf2d085d38ec975cac38e289fd71f537342c798dab96486",
      "s": "0x6d6d68d271985e4c30c6c327f65f2207d92554b298d8b415f785988a2b375235",
      "v": 28,
      "creates": null,
      "raw": "0xf86e820135850e04169f4c8255f0948178414ff0aba7fd5bc60a72cb17e213b371f35c881c161c1a85eb7a10801ca06b93af80b3db099fbdf2d085d38ec975cac38e289fd71f537342c798dab96486a06d6d68d271985e4c30c6c327f65f2207d92554b298d8b415f785988a2b375235",
      "networkId": 0,
      "chainId": 0
    },
    {
      "hash": "0x08f430ab41cf2b3911c36075af8ceec73e3b9b62ec74f8488c3134a4356b29ca",
      "blockHash": "0x60b14ff5e9b3e3f49bb85132419d2978a93eef4c9e5f3baf891223ded9885943",
      "blockNumber": 55864,
      "transactionIndex": 4,
      "confirmations": null,
      "from": "0xFD2605a2bF58fDbB90db1Da55dF61628B47F9e8c",
      "gasPrice": {
        "_hex": "0xde499de65"
      },
      "gasLimit": {
        "_hex": "0x186a0"
      },
      "to": "0x7573ACa378B8417623caD233954fdE810CaD9fB4",
      "value": {
        "_hex": "0x0"
      },
      "nonce": 21,
      "data": "0x63bd1d4a",
      "r": "0x0ca8cf58a22c05b37abf724937e7d3fa0a1a0634a2265d93298fad63f5e448c7",
      "s": "0x34370b35ebe8faae46fe13f4231a39b6b53e67abb39c6dd3628b105baaa56d75",
      "v": 28,
      "creates": null,
      "raw": "0xf86915850de499de65830186a0947573aca378b8417623cad233954fde810cad9fb4808463bd1d4a1ca00ca8cf58a22c05b37abf724937e7d3fa0a1a0634a2265d93298fad63f5e448c7a034370b35ebe8faae46fe13f4231a39b6b53e67abb39c6dd3628b105baaa56d75",
      "networkId": 0,
      "chainId": 0
    },
    {
      "hash": "0x09764ac72581f71fcad2fb96127435466b3daa97b42693c226f6b8fa285f05b4",
      "blockHash": "0x60b14ff5e9b3e3f49bb85132419d2978a93eef4c9e5f3baf891223ded9885943",
      "blockNumber": 55864,
      "transactionIndex": 5,
      "confirmations": null,
      "from": "0xe6A7a1d47ff21B6321162AEA7C6CB457D5476Bca",
      "gasPrice": {
        "_hex": "0xde32653d9"
      },
      "gasLimit": {
        "_hex": "0x55f0"
      },
      "to": "0xDf6DdC40f2297Bfac49bE5503b2bc6AC094E96be",
      "value": {
        "_hex": "0x1cb0df318a05c478"
      },
      "nonce": 310,
      "data": "0x",
      "r": "0xd68a5427a9c0c98c691c2cc20a8fc270d1461b880d681c6bcf2439520f29daad",
      "s": "0x55f19ca1837fcfbadeacc041633cfa1555da2236d6da756e31ae34b5b1ea508e",
      "v": 27,
      "creates": null,
      "raw": "0xf86e820136850de32653d98255f094df6ddc40f2297bfac49be5503b2bc6ac094e96be881cb0df318a05c478801ba0d68a5427a9c0c98c691c2cc20a8fc270d1461b880d681c6bcf2439520f29daada055f19ca1837fcfbadeacc041633cfa1555da2236d6da756e31ae34b5b1ea508e",
      "networkId": 0,
      "chainId": 0
    },
    {
      "hash": "0xe2343a62d9774a29dbe3e137838fe09d71aa7776855777aa6538c161945f205d",
      "blockHash": "0x60b14ff5e9b3e3f49bb85132419d2978a93eef4c9e5f3baf891223ded9885943",
      "blockNumber": 55864,
      "transactionIndex": 6,
      "confirmations": null,
      "from": "0xe6A7a1d47ff21B6321162AEA7C6CB457D5476Bca",
      "gasPrice": {
        "_hex": "0xde32653d9"
      },
      "gasLimit": {
        "_hex": "0x55f0"
      },
      "to": "0x179Ee0EA429fe916E743e90c54da36e3DDBc2474",
      "value": {
        "_hex": "0x1cee97a90bfc67f8"
      },
      "nonce": 311,
      "data": "0x",
      "r": "0x4def146507abdb85beeb09a24506e94fee49b1fe18fcf7819795b028c11ef5d8",
      "s": "0x05ebd8932bb3454a1a5bcee478344ba8cbae874ce6adc479d55c937d19e2cc9e",
      "v": 27,
      "creates": null,
      "raw": "0xf86e820137850de32653d98255f094179ee0ea429fe916e743e90c54da36e3ddbc2474881cee97a90bfc67f8801ba04def146507abdb85beeb09a24506e94fee49b1fe18fcf7819795b028c11ef5d8a005ebd8932bb3454a1a5bcee478344ba8cbae874ce6adc479d55c937d19e2cc9e",
      "networkId": 0,
      "chainId": 0
    },
    {
      "hash": "0x58c6d924da3363e8b9731496999d5ffd956fd6753285925c35796962852e632f",
      "blockHash": "0x60b14ff5e9b3e3f49bb85132419d2978a93eef4c9e5f3baf891223ded9885943",
      "blockNumber": 55864,
      "transactionIndex": 7,
      "confirmations": null,
      "from": "0xe6A7a1d47ff21B6321162AEA7C6CB457D5476Bca",
      "gasPrice": {
        "_hex": "0xde32653d9"
      },
      "gasLimit": {
        "_hex": "0x55f0"
      },
      "to": "0xabF56d5ca441eCAD5979023Ec368b74a8d662d95",
      "value": {
        "_hex": "0x1d8c8d0a360e0110"
      },
      "nonce": 312,
      "data": "0x",
      "r": "0x037a9a12329442a57d53ac9585bad218f2353f0e434a0d088cedff02204c3867",
      "s": "0x15936f139ac5264ac4b404201226c14f976d1210f07dc0ea61e64c983ee9b9b9",
      "v": 27,
      "creates": null,
      "raw": "0xf86e820138850de32653d98255f094abf56d5ca441ecad5979023ec368b74a8d662d95881d8c8d0a360e0110801ba0037a9a12329442a57d53ac9585bad218f2353f0e434a0d088cedff02204c3867a015936f139ac5264ac4b404201226c14f976d1210f07dc0ea61e64c983ee9b9b9",
      "networkId": 0,
      "chainId": 0
    },
    {
      "hash": "0xc3ea27f27691584be8a61a7f9eced0149317da915cab29c10a828dafaaada3c9",
      "blockHash": "0x60b14ff5e9b3e3f49bb85132419d2978a93eef4c9e5f3baf891223ded9885943",
      "blockNumber": 55864,
      "transactionIndex": 8,
      "confirmations": null,
      "from": "0xe6A7a1d47ff21B6321162AEA7C6CB457D5476Bca",
      "gasPrice": {
        "_hex": "0xde32653d9"
      },
      "gasLimit": {
        "_hex": "0x55f0"
      },
      "to": "0x5E418A1728294b2ec7eF61C837d0902ce115aB5F",
      "value": {
        "_hex": "0x1dc5dd5342da2428"
      },
      "nonce": 313,
      "data": "0x",
      "r": "0x101908143e4a1d8559e7fb900bffd37ed2a669548dd157a0473d76b395a22f28",
      "s": "0x3f96c51324fae9fc4d74ef4c9b7df2feed18eaa327b2679dd0669622c2e75bb6",
      "v": 27,
      "creates": null,
      "raw": "0xf86e820139850de32653d98255f0945e418a1728294b2ec7ef61c837d0902ce115ab5f881dc5dd5342da2428801ba0101908143e4a1d8559e7fb900bffd37ed2a669548dd157a0473d76b395a22f28a03f96c51324fae9fc4d74ef4c9b7df2feed18eaa327b2679dd0669622c2e75bb6",
      "networkId": 0,
      "chainId": 0
    },
    {
      "hash": "0x3caa670ce097e96fccd3c9317991189fde7900cc891dbc6675bcf3568d8ccda5",
      "blockHash": "0x60b14ff5e9b3e3f49bb85132419d2978a93eef4c9e5f3baf891223ded9885943",
      "blockNumber": 55864,
      "transactionIndex": 9,
      "confirmations": null,
      "from": "0xe6A7a1d47ff21B6321162AEA7C6CB457D5476Bca",
      "gasPrice": {
        "_hex": "0xde32653d9"
      },
      "gasLimit": {
        "_hex": "0x55f0"
      },
      "to": "0x79F6a9Fc08d42283B5742e6C5Fd1DF7Ab09eADFA",
      "value": {
        "_hex": "0x1dcf26811f973f20"
      },
      "nonce": 314,
      "data": "0x",
      "r": "0xaa99618cc27c523dfceab202c293f824793e64395e86303293de7bde896edd9b",
      "s": "0x42b4eabe6b85b6659efead6d961b63c160ffe91037ebe15cb6f71989ee7d621d",
      "v": 27,
      "creates": null,
      "raw": "0xf86e82013a850de32653d98255f09479f6a9fc08d42283b5742e6c5fd1df7ab09eadfa881dcf26811f973f20801ba0aa99618cc27c523dfceab202c293f824793e64395e86303293de7bde896edd9ba042b4eabe6b85b6659efead6d961b63c160ffe91037ebe15cb6f71989ee7d621d",
      "networkId": 0,
      "chainId": 0
    },
    {
      "hash": "0x039f39dec3786031c775fcec824a7e7af7bbc0fed79c0daa7c65a9c5bbd13045",
      "blockHash": "0x60b14ff5e9b3e3f49bb85132419d2978a93eef4c9e5f3baf891223ded9885943",
      "blockNumber": 55864,
      "transactionIndex": 10,
      "confirmations": null,
      "from": "0xe6A7a1d47ff21B6321162AEA7C6CB457D5476Bca",
      "gasPrice": {
        "_hex": "0xde32653d9"
      },
      "gasLimit": {
        "_hex": "0x55f0"
      },
      "to": "0x1ee96bFCC664C0D4430267bDAd17A38946655eE3",
      "value": {
        "_hex": "0x1e16f620016a9bd0"
      },
      "nonce": 315,
      "data": "0x",
      "r": "0x21969ee721004e1e1c0eaf99b382f18698de033e5599b02b1b8e50468b600012",
      "s": "0x44bd86a80cae92e4914ebc0d6255d9bd6ed05eb9a28b0370cead6461a36c9011",
      "v": 28,
      "creates": null,
      "raw": "0xf86e82013b850de32653d98255f0941ee96bfcc664c0d4430267bdad17a38946655ee3881e16f620016a9bd0801ca021969ee721004e1e1c0eaf99b382f18698de033e5599b02b1b8e50468b600012a044bd86a80cae92e4914ebc0d6255d9bd6ed05eb9a28b0370cead6461a36c9011",
      "networkId": 0,
      "chainId": 0
    }
  ]
}