{
  "hash": "0xa836cf3731f8f03339d6accf62ff52b9f5137c6efa2c83b305efc9752e5acbdd",
  "parentHash": "0x68972cb3bd07c4f98b650e777bc9113e55b15552d2b1faf7afa8f3a6e8411dfa",
  "number": 64315,
  "timestamp": 1439218690,
  "nonce": "0x1eddf596c01fa8c9",
  "difficulty": 1883075295863,
  "gasLimit": {
    "_hex": "0x2fefd5"
  },
  "gasUsed": {
    "_hex": "0xf618"
  },
  "miner": "0xbb7B8287f3F0a933474a79eAe42CBCa977791171",
  "extraData": "0x476574682f4c5649562f76312e302e312f6c696e75782f676f312e342e32",
  "transactions": [
    {
      "hash": "0x6bf5d776abd3d74c09bf3a7cccb9ea54d97f4aace23ba8d50efbe4a7a67628e4",
      "blockHash": "0xa836cf3731f8f03339d6accf62ff52b9f5137c6efa2c83b305efc9752e5acbdd",
      "blockNumber": 64315,
      "transactionIndex": 0,
      "confirmations": null,
      "from": "0x097738363B1662599ad0777E19461601F5EC8dF9",
      "gasPrice": {
        "_hex": "0xd886bf128"
      },
      "gasLimit": {
        "_hex": "0x5208"
      },
      "to": "0x32Be343B94f860124dC4fEe278FDCBD38C102D88",
      "value": {
        "_hex": "0x56bc3080ea1b24000"
      },
      "nonce": 7,
      "data": "0x",
      "r": "0xa97f91cb760cebd8e6a1f01dd88ce9e1b4692f6ca88d7d2f609c2efb32fe7d78",
      "s": "0x66f0c2a51a8afb205c6fa6e43f08b1b67aaa50fa59290c5763645bf2cae9ce59",
      "v": 28,
      "creates": null,
      "raw": "0xf86d07850d886bf1288252089432be343b94f860124dc4fee278fdcbd38c102d8889056bc3080ea1b24000801ca0a97f91cb760cebd8e6a1f01dd88ce9e1b4692f6ca88d7d2f609c2efb32fe7d78a066f0c2a51a8afb205c6fa6e43f08b1b67aaa50fa59290c5763645bf2cae9ce59",
      "networkId": 0,
      "chainId": 0
    },
    {
      "hash": "0x838cc7c7f55b2ea6dabc8307ef72743984676818158c58a8fa99c737741a7acd",
      "blockHash": "0xa836cf3731f8f03339d6accf62ff52b9f5137c6efa2c83b305efc9752e5acbdd",
      "blockNumber": 64315,
      "transactionIndex": 1,
      "confirmations": null,
      "from": "0xF5EeDc192aB70b08D8354384aD94efD095849E00",
      "gasPrice": {
        "_hex": "0xd67fea229"
      },
      "gasLimit": {
        "_hex": "0x5208"
      },
      "to": "0x32Be343B94f860124dC4fEe278FDCBD38C102D88",
      "value": {
        "_hex": "0xbed18ac4518920000"
      },
      "nonce": 19,
      "data": "0x",
      "r": "0x3b425470677967d6107073fd1c19f98915e45ec93d9c017f5dfbe69469081210",
      "s": "0x6c07ff8cc52722e1dbc6cb586e34a368a55d63d6e0b9cb881cab2442975969fd",
      "v": 27,
      "creates": null,
      "raw": "0xf86d13850d67fea2298252089432be343b94f860124dc4fee278fdcbd38c102d88890bed18ac4518920000801ba03b425470677967d6107073fd1c19f98915e45ec93d9c017f5dfbe69469081210a06c07ff8cc52722e1dbc6cb586e34a368a55d63d6e0b9cb881cab2442975969fd",
      "networkId": 0,
      "chainId": 0
    },
    {
      "hash": "0x0da790876e21110b1808416c2963689da1c987c4c11864db473333a881adf727",
      "blockHash": "0xa836cf3731f8f03339d6accf62ff52b9f5137c6efa2c83b305efc9752e5acbdd",
      "blockNumber": 64315,
      "transactionIndex": 2,
      "confirmations": null,
      "from": "0xB0bA9ec050654A083c88777e30261F815cB0A3B7",
      "gasPrice": {
        "_hex": "0xd67fea229"
      },
      "gasLimit": {
        "_hex": "0x5208"
      },
      "to": "0x32Be343B94f860124dC4fEe278FDCBD38C102D88",
      "value": {
        "_hex": "0x1b788000b08c850000"
      },
      "nonce": 0,
      "data": "0x",
      "r": "0xd11b00c758ff3dcce4ff1b66e16bb2fb1e1b717dd5ae0f1374ef74cd5e99c023",
      "s": "0x64bb17445073a331b86ed21aacea0fe6a1a1175ccc1db85d8bbd4068e077e598",
      "v": 27,
      "creates": null,
      "raw": "0xf86d80850d67fea2298252089432be343b94f860124dc4fee278fdcbd38c102d88891b788000b08c850000801ba0d11b00c758ff3dcce4ff1b66e16bb2fb1e1b717dd5ae0f1374ef74cd5e99c023a064bb17445073a331b86ed21aacea0fe6a1a1175ccc1db85d8bbd4068e077e598",
      "networkId": 0,
      "chainId": 0
    }
  ]
}