{
  "hash": "0x9e78548ccaea03b0fffa7f8c26c01990bd346f11a2c6bc21ee0de8959762fb5c",
  "parentHash": "0xc74e6452168fa7e58d74acfdb341f4444b3a7dbda2ba24c70ffc052421e8cf38",
  "number": 59536,
  "timestamp": 1439139833,
  "nonce": "0x200879ea2e6ce2db",
  "difficulty": 1699694595879,
  "gasLimit": {
    "_hex": "0x2fefd8"
  },
  "gasUsed": {
    "_hex": "0x5208"
  },
  "miner": "0x0193d941b50d91BE6567c7eE1C0Fe7AF498b4137",
  "extraData": "0x4a5ace9e4e",
  "transactions": [
    {
      "hash": "0xb476adf732f78cea09a3e7ced61e5c7e1adbfc3c12ae6d72dbd98c80d8dd58fc",
      "blockHash": "0x9e78548ccaea03b0fffa7f8c26c01990bd346f11a2c6bc21ee0de8959762fb5c",
      "blockNumber": 59536,
      "transactionIndex": 0,
      "confirmations": null,
      "from": "0x06D138312754bDEB5c1175f47cE00620c480E9C9",
      "gasPrice": {
        "_hex": "0xd3ffb46a9"
      },
      "gasLimit": {
        "_hex": "0x15f90"
      },
      "to": "0x14101dABf1212bB2d77C70E121AA394c4293af74",
      "value": {
        "_hex": "0x4563918244f40000"
      },
      "nonce": 3,
      "data": "0x",
      "r": "0xac2d4ff14eecfa47a7a18cfb8f3b4314adc3e289bfb35ca3297bfc01fca9d909",
      "s": "0x3e2bfb310b3930fc4416c17207f6db8f98d0a88459f98a9e0f56296ef1525ef2",
      "v": 27,
      "creates": null,
      "raw": "0xf86d03850d3ffb46a983015f909414101dabf1212bb2d77c70e121aa394c4293af74884563918244f40000801ba0ac2d4ff14eecfa47a7a18cfb8f3b4314adc3e289bfb35ca3297bfc01fca9d909a03e2bfb310b3930fc4416c17207f6db8f98d0a88459f98a9e0f56296ef1525ef2",
      "networkId": 0,
      "chainId": 0
    }
  ]
}