{
  "hash": "0xf39d37de701d9941c579e899a832c0f844e4094918d1ecc55e14748e19dae495",
  "parentHash": "0xe353b7401dd08e0f6ba408ddf0b07eb09836654d1fe258871a80da6c9539da5c",
  "number": 113384,
  "timestamp": 1440022568,
  "nonce": "0x8ae49aa772355137",
  "difficulty": 4475592991104,
  "gasLimit": {
    "_hex": "0x2fefd8"
  },
  "gasUsed": {
    "_hex": "0x5208"
  },
  "miner": "0x7eD2359220bC2A40b70C40350EcAb732B39c0eF4",
  "extraData": "0x",
  "transactions": [
    {
      "hash": "0x85749a11f88b1404822b660f368073c31f7b907bd87a9bdd980800f492e64f9a",
      "blockHash": "0xf39d37de701d9941c579e899a832c0f844e4094918d1ecc55e14748e19dae495",
      "blockNumber": 113384,
      "transactionIndex": 0,
      "confirmations": null,
      "from": "0xF0224ea727d4924A8dd69a8d2d473Cc4c3590423",
      "gasPrice": {
        "_hex": "0xde4e79bb5"
      },
      "gasLimit": {
        "_hex": "0x5208"
      },
      "to": "0x32Be343B94f860124dC4fEe278FDCBD38C102D88",
      "value": {
        "_hex": "0x2d79cd4050721000"
      },
      "nonce": 14,
      "data": "0x",
      "r": "0x763dd4d2f42922361156c0284453e70e13f5fbb65a69a9e74a36133ddea8ad20",
      "s": "0x0066dd54b738b4fb0c7283d9717c7fe1696261b8642665c27f76adcec05598cf",
      "v": 27,
      "creates": null,
      "raw": "0xf86b0e850de4e79bb58252089432be343b94f860124dc4fee278fdcbd38c102d88882d79cd4050721000801ba0763dd4d2f42922361156c0284453e70e13f5fbb65a69a9e74a36133ddea8ad209f66dd54b738b4fb0c7283d9717c7fe1696261b8642665c27f76adcec05598cf",
      "networkId": 0,
      "chainId": 0
    }
  ]
}