{
  "hash": "0xb24560d03548b0fa00af912868f8e620142a164b86bca55d85ab0978139c1143",
  "parentHash": "0x2aa6ddc45af42f5a4402aaa1ada762c56f9a4403566e601347a0adb1f9519de5",
  "number": 46926,
  "timestamp": 1438931702,
  "nonce": "0x963b4ddc06a3fe90",
  "difficulty": 1456012889515,
  "gasLimit": {
    "_hex": "0x8611"
  },
  "gasUsed": {
    "_hex": "0x5208"
  },
  "miner": "0xbb7B8287f3F0a933474a79eAe42CBCa977791171",
  "extraData": "0x476574682f4c5649562f76312e302e312f6c696e75782f676f312e342e32",
  "transactions": [
    {
      "hash": "0x0a085ffa148b92c77471191fcd1625ff5e0ffd3c080716e7ba9e40c11b2c0d35",
      "blockHash": "0xb24560d03548b0fa00af912868f8e620142a164b86bca55d85ab0978139c1143",
      "blockNumber": 46926,
      "transactionIndex": 0,
      "confirmations": null,
      "from": "0xc8ebccC5F5689Fa8659d83713341e5aD19349448",
      "gasPrice": {
        "_hex": "0xcb7322e19"
      },
      "gasLimit": {
        "_hex": "0x5208"
      },
      "to": "0xfF68C2F39C4e7FE2f92c2DC2f8615b1BF070e0FA",
      "value": {
        "_hex": "0x9184e72a000"
      },
      "nonce": 3,
      "data": "0x",
      "r": "0x3b97bf7afcd1d9c5983c44793de4c9fca355ed1d9cfef6bfc238aee3201958ad",
      "s": "0x0578e2576b59debe1defc405fb5e2133c9bc123de00897608af511246159deb4",
      "v": 27,
      "creates": null,
      "raw": "0xf86a03850cb7322e1982520894ff68c2f39c4e7fe2f92c2dc2f8615b1bf070e0fa8609184e72a000801ba03b97bf7afcd1d9c5983c44793de4c9fca355ed1d9cfef6bfc238aee3201958ada00578e2576b59debe1defc405fb5e2133c9bc123de00897608af511246159deb4",
      "networkId": 0,
      "chainId": 0
    }
  ]
}