{
  "hash": "0x8d410e725c6350d1aec62198773d9951ffae894156a2e4e20092ff94c230803c",
  "parentHash": "0xec7f686729bcf6f603422b4f613a4e09fcd89478d840f6a920ab89b0993c134a",
  "number": 47984,
  "timestamp": 1438949422,
  "nonce": "0x74c5b3bb61ff7422",
  "difficulty": 1460100642712,
  "gasLimit": {
    "_hex": "0x1135f"
  },
  "gasUsed": {
    "_hex": "0x546c"
  },
  "miner": "0xA1623430350C5df1b52B0b57483A5bb45d1796Da",
  "extraData": "0x476574682f76312e302e302d30636463373634372f6c696e75782f676f312e34",
  "transactions": [
    {
      "hash": "0xea6e249f3936bb5295cc449183bcc8f789fbeb132e905338a1656ed4df241cdf",
      "blockHash": "0x8d410e725c6350d1aec62198773d9951ffae894156a2e4e20092ff94c230803c",
      "blockNumber": 47984,
      "transactionIndex": 0,
      "confirmations": null,
      "from": "0xE09C68e61998D9c81b14E4ee802BA7ADf6d74CdB",
      "gasPrice": {
        "_hex": "0x110c8f7d8de"
      },
      "gasLimit": {
        "_hex": "0xc350"
      },
      "to": "0x2910543Af39abA0Cd09dBb2D50200b3E800A63D2",
      "value": {
        "_hex": "0x38d7ea4c68000"
      },
      "nonce": 3,
      "data": "0x454e32413658483230",
      "r": "0x03ae7e075e15b95fb8ebbe4972b7be501666cfb21745c76ececd27a1aac3cd2b",
      "s": "0xc9b5e989e289359e0c242ae9319396ecb6cb3bb00e8435a392121871ccc3a11d",
      "v": 27,
      "creates": null,
      "raw": "0xf87503860110c8f7d8de82c350942910543af39aba0cd09dbb2d50200b3e800a63d287038d7ea4c6800089454e324136584832301ba003ae7e075e15b95fb8ebbe4972b7be501666cfb21745c76ececd27a1aac3cd2ba0c9b5e989e289359e0c242ae9319396ecb6cb3bb00e8435a392121871ccc3a11d",
      "networkId": 0,
      "chainId": 0
    }
  ]
}