{
  "hash": "0x6f9e3c666938f9548317220e3d5f06dc91a861d430777f14d43ecd118dd06cb7",
  "parentHash": "0xdbd965f66fb025c72849a06df0cb6e748b2b5598e499301c0ba42951594f9afe",
  "number": 99607,
  "timestamp": 1439793026,
  "nonce": "0xe9de141b92dab89f",
  "difficulty": 3784249537056,
  "gasLimit": {
    "_hex": "0x2fefd8"
  },
  "gasUsed": {
    "_hex": "0x5208"
  },
  "miner": "0xe6A7a1d47ff21B6321162AEA7C6CB457D5476Bca",
  "extraData": "0x476574682f76312e302e312d38326566323666362f6c696e75782f676f312e34",
  "transactions": [
    {
      "hash": "0x18231ebae008be26ec8926836ee5a61e02835090ebea6e4404ef638cad09b502",
      "blockHash": "0x6f9e3c666938f9548317220e3d5f06dc91a861d430777f14d43ecd118dd06cb7",
      "blockNumber": 99607,
      "transactionIndex": 0,
      "confirmations": null,
      "from": "0x7884D470204862a0d1A21122F41ee77430396Ee5",
      "gasPrice": {
        "_hex": "0xdf0e43aac"
      },
      "gasLimit": {
        "_hex": "0x15f90"
      },
      "to": "0x248A1382965C116DF560d250a0997835fB0470E8",
      "value": {
        "_hex": "0x470de4df820000"
      },
      "nonce": 39,
      "data": "0x",
      "r": "0x0bd49ac0e06524083a1445c381d6429ebcd2a77261f551916fd282f1f29584dd",
      "s": "0x7bfb1f866fd7ad5fc1ae33b246f53cf33aa34a23248cfd53f3861ca6eee3df26",
      "v": 28,
      "creates": null,
      "raw": "0xf86c27850df0e43aac83015f9094248a1382965c116df560d250a0997835fb0470e887470de4df820000801ca00bd49ac0e06524083a1445c381d6429ebcd2a77261f551916fd282f1f29584dda07bfb1f866fd7ad5fc1ae33b246f53cf33aa34a23248cfd53f3861ca6eee3df26",
      "networkId": 0,
      "chainId": 0
    }
  ]
}