{
  "hash": "0x8db7739d9f1ed3ffae05043cfbd6e6cd4e403459f36f63494c4cf7f55d9c91f2",
  "parentHash": "0x0f5fbbb2ebc8d6ec0f42f840761ace69cf67fcf7a100269ebbf19a5fa5edd1f8",
  "number": 70061,
  "timestamp": 1439314150,
  "nonce": "0x270eaad093037e60",
  "difficulty": 2105443125230,
  "gasLimit": {
    "_hex": "0x2fefd8"
  },
  "gasUsed": {
    "_hex": "0x5208"
  },
  "miner": "0x0037ce3d4B7f8729C8607D8D0248252Be68202c0",
  "extraData": "0x476574682f76312e302e312f77696e646f77732f676f312e342e32",
  "transactions": [
    {
      "hash": "0x9f7fffe8a1c37d3e0600540048cd2cd642615f75ca9d636224ca6f611ed73e63",
      "blockHash": "0x8db7739d9f1ed3ffae05043cfbd6e6cd4e403459f36f63494c4cf7f55d9c91f2",
      "blockNumber": 70061,
      "transactionIndex": 0,
      "confirmations": null,
      "from": "0x2aBD9e50d51e97aFc9a984f64657eD9539c59c91",
      "gasPrice": {
        "_hex": "0xcc059c98f"
      },
      "gasLimit": {
        "_hex": "0x5208"
      },
      "to": "0x32Be343B94f860124dC4fEe278FDCBD38C102D88",
      "value": {
        "_hex": "0xddc9636ebed3800"
      },
      "nonce": 0,
      "data": "0x",
      "r": "0x3b280fa168065b4924a6acfc02129bd75f24e6ab843f08b4e38f54c030fee2d8",
      "s": "0x60c9f0b0437208e9c9fe8e459b50a22223264729f47ef64f222991257d097084",
      "v": 27,
      "creates": null,
      "raw": "0xf86c80850cc059c98f8252089432be343b94f860124dc4fee278fdcbd38c102d88880ddc9636ebed3800801ba03b280fa168065b4924a6acfc02129bd75f24e6ab843f08b4e38f54c030fee2d8a060c9f0b0437208e9c9fe8e459b50a22223264729f47ef64f222991257d097084",
      "networkId": 0,
      "chainId": 0
    }
  ]
}