{
  "hash": "0x518e2736c29358b0303cb0a0f9115298f1dea95f7340af630df115abaae362b7",
  "parentHash": "0xdc7fb87527b4ff536e203733c13ac57d33e072dbfc8f9a285cc915a2a8d987f0",
  "number": 84373,
  "timestamp": 1439548813,
  "nonce": "0x80a1efb8c339b526",
  "difficulty": 2545242925022,
  "gasLimit": {
    "_hex": "0x2fefd8"
  },
  "gasUsed": {
    "_hex": "0x99cf0"
  },
  "miner": "0x2F85B3bF062769b2A2672200aFb21e3F4067a86d",
  "extraData": "0x476574682f76312e302e312d38326566323666362f6c696e75782f676f312e34",
  "transactions": [
    {
      "hash": "0x481cc0a7c8ad75f75c28b95e9279ef3bcea40dd2e1308e0b7bec5dd4022bf64a",
      "blockHash": "0x518e2736c29358b0303cb0a0f9115298f1dea95f7340af630df115abaae362b7",
      "blockNumber": 84373,
      "transactionIndex": 0,
      "confirmations": null,
      "from": "0x30beD8049947963394D93412326225E4e3123601",
      "gasPrice": {
        "_hex": "0xdbfcd47d3"
      },
      "gasLimit": {
        "_hex": "0x5208"
      },
      "to": "0x32Be343B94f860124dC4fEe278FDCBD38C102D88",
      "value": {
        "_hex": "0x71c7e35974a76800"
      },
      "nonce": 5,
      "data": "0x",
      "r": "0x9a5b4613b1085bc90c7f1bd33311702c049acf271ff63ee9d809cbf54e6c4af5",
      "s": "0x303ab463505335497e5bdd9c4b25fa07e405bed5a7dd30ace05a689483d4fdad",
      "v": 28,
      "creates": null,
      "raw": "0xf86c05850dbfcd47d38252089432be343b94f860124dc4fee278fdcbd38c102d888871c7e35974a76800801ca09a5b4613b1085bc90c7f1bd33311702c049acf271ff63ee9d809cbf54e6c4af5a0303ab463505335497e5bdd9c4b25fa07e405bed5a7dd30ace05a689483d4fdad",
      "networkId": 0,
      "chainId": 0
    },
    {
      "hash": "0xb2ef30841a6d2aff55da8bcc7e6413aabbed8260065920cc0d7513302fde0b80",
      "blockHash": "0x518e2736c29358b0303cb0a0f9115298f1dea95f7340af630df115abaae362b7",
      "blockNumber": 84373,
      "transactionIndex": 1,
      "confirmations": null,
      "from": "0x43D575Cc486538f9B89F6e46188822F6fBC68D94",
      "gasPrice": {
        "_hex": "0xd9f7d76ee"
      },
      "gasLimit": {
        "_hex": "0x5208"
      },
      "to": "0x32Be343B94f860124dC4fEe278FDCBD38C102D88",
      "value": {
        "_hex": "0x18215bc6aca70000"
      },
      "nonce": 1,
      "data": "0x",
      "r": "0x8be22217b29bb75965e628f3e1ff9423c430faa96e30795d8c2000a79d7db736",
      "s": "0x6d64e462a166c2256d5e5c227290641a57341b56b4e5bb93b7e2db7c960f6820",
      "v": 27,
      "creates": null,
      "raw": "0xf86c01850d9f7d76ee8252089432be343b94f860124dc4fee278fdcbd38c102d888818215bc6aca70000801ba08be22217b29bb75965e628f3e1ff9423c430faa96e30795d8c2000a79d7db736a06d64e462a166c2256d5e5c227290641a57341b56b4e5bb93b7e2db7c960f6820",
      "networkId": 0,
      "chainId": 0
    },
    {
      "hash": "0x99124b2ac20656e50669a6e9eea61821f9e17807ad6ef618fc8ba7193f611285",
      "blockHash": "0x518e2736c29358b0303cb0a0f9115298f1dea95f7340af630df115abaae362b7",
      "blockNumber": 84373,
      "transactionIndex": 2,
      "confirmations": null,
      "from": "0xa6BDc31c431B8F97848c9D60cbbe9660dc450eB7",
      "gasPrice": {
        "_hex": "0xd9f7d76ee"
      },
      "gasLimit": {
        "_hex": "0x5208"
      },
      "to": "0x32Be343B94f860124dC4fEe278FDCBD38C102D88",
      "value": {
        "_hex": "0x45636083aebd3400"
      },
      "nonce": 63,
      "data": "0x",
      "r": "0xdab866287a3b05b0585cd3c60ab336ab0d45a04ac1e204a30463ccb418db4c8a",
      "s": "0x239e53b4126dedfbda9c0ae80c8defc37f86cad1c80f6ccacd4b1d3e5194b61d",
      "v": 27,
      "creates": null,
      "raw": "0xf86c3f850d9f7d76ee8252089432be343b94f860124dc4fee278fdcbd38c102d888845636083aebd3400801ba0dab866287a3b05b0585cd3c60ab336ab0d45a04ac1e204a30463ccb418db4c8aa0239e53b4126dedfbda9c0ae80c8defc37f86cad1c80f6ccacd4b1d3e5194b61d",
      "networkId": 0,
      "chainId": 0
    },
    {
      "hash": "0xe7a0d4896517eeb8bada589f3904b6fb01b81ba2999a9fbc9a2c14b7f5c06ecf",
      "blockHash": "0x518e2736c29358b0303cb0a0f9115298f1dea95f7340af630df115abaae362b7",
      "blockNumber": 84373,
      "transactionIndex": 3,
      "confirmations": null,
      "from": "0x6ca3173089AA3f7661ef2B627647A2ef685d15E3",
      "gasPrice": {
        "_hex": "0xd9f7d76ee"
      },
      "gasLimit": {
        "_hex": "0x5208"
      },
      "to": "0x32Be343B94f860124dC4fEe278FDCBD38C102D88",
      "value": {
        "_hex": "0x298c031e132aa000"
      },
      "nonce": 0,
      "data": "0x",
      "r": "0x168529d137d13dbb183b3a55494f341e2e58526fbbc2ef94fd05f65f57d2a4c3",
      "s": "0x052ca96efe539f09d4f0afc986f342eccb6022982d410a4a1d25710d7c109b75",
      "v": 28,
      "creates": null,
      "raw": "0xf86c80850d9f7d76ee8252089432be343b94f860124dc4fee278fdcbd38c102d8888298c031e132aa000801ca0168529d137d13dbb183b3a55494f341e2e58526fbbc2ef94fd05f65f57d2a4c3a0052ca96efe539f09d4f0afc986f342eccb6022982d410a4a1d25710d7c109b75",
      "networkId": 0,
      "chainId": 0
    },
    {
      "hash": "0x6e042c922c6bde3e047304711446e006729479364c54bf3666de211b7547e264",
      "blockHash": "0x518e2736c29358b0303cb0a0f9115298f1dea95f7340af630df115abaae362b7",
      "blockNumber": 84373,
      "transactionIndex": 4,
      "confirmations": null,
      "from": "0xFDE80370e058cfC8292D8eE4D7ed14c37Aa66D89",
      "gasPrice": {
        "_hex": "0xd9f7d76ee"
      },
      "gasLimit": {
        "_hex": "0x5208"
      },
      "to": "0x32Be343B94f860124dC4fEe278FDCBD38C102D88",
      "value": {
        "_hex": "0x56bc300a9b7ef0000"
      },
      "nonce": 3,
      "data": "0x",
      "r": "0xb007688364e2d269f07835d30f7ac341843db59af1ddfd3364432293e4f1821f",
      "s": "0x129a77e97b69550feb04b3753d1ff598a20f3827015498b68e0322503c187972",
      "v": 27,
      "creates": null,
      "raw": "0xf86d03850d9f7d76ee8252089432be343b94f860124dc4fee278fdcbd38c102d8889056bc300a9b7ef0000801ba0b007688364e2d269f07835d30f7ac341843db59af1ddfd3364432293e4f1821fa0129a77e97b69550feb04b3753d1ff598a20f3827015498b68e0322503c187972",
      "networkId": 0,
      "chainId": 0
    },
    {
      "hash": "0x922bc12374c76122c3229735788c07a9a1234b6f69d6195f43df70a0703f5944",
      "blockHash": "0x518e2736c29358b0303cb0a0f9115298f1dea95f7340af630df115abaae362b7",
      "blockNumber": 84373,
      "transactionIndex": 5,
      "confirmations": null,
      "from": "0x32Be343B94f860124dC4fEe278FDCBD38C102D88",
      "gasPrice": {
        "_hex": "0xd9f7d76ee"
      },
      "gasLimit": {
        "_hex": "0x5208"
      },
      "to": "0x28a9D631e5C22Ee57312DDdc75936822a2243A05",
      "value": {
        "_hex": "0x17a001bd0d0622000"
      },
      "nonce": 679,
      "data": "0x",
      "r": "0x3dee8a672d54d4534da7323bc5546985091672b183ffe3577d3b492714c0d189",
      "s": "0x4f598424f36d9a2b3a1a764988b9b585c7b411e79c1b1a601c5cdaa531c6a5a4",
      "v": 27,
      "creates": null,
      "raw": "0xf86f8202a7850d9f7d76ee8252089428a9d631e5c22ee57312dddc75936822a2243a0589017a001bd0d0622000801ba03dee8a672d54d4534da7323bc5546985091672b183ffe3577d3b492714c0d189a04f598424f36d9a2b3a1a764988b9b585c7b411e79c1b1a601c5cdaa531c6a5a4",
      "networkId": 0,
      "chainId": 0
    },
    {
      "hash": "0x1cd25219ec9e12759360b27f99f7eea4243674228d337f03dbedd04bf912f160",
      "blockHash": "0x518e2736c29358b0303cb0a0f9115298f1dea95f7340af630df115abaae362b7",
      "blockNumber": 84373,
      "transactionIndex": 6,
      "confirmations": null,
      "from": "0xdeE4977F74E6Aef6D627191c9A45D2627e331150",
      "gasPrice": {
        "_hex": "0xd9f7d76ee"
      },
      "gasLimit": {
        "_hex": "0x5208"
      },
      "to": "0x32Be343B94f860124dC4fEe278FDCBD38C102D88",
      "value": {
        "_hex": "0xd026570323bb2000"
      },
      "nonce": 2,
      "data": "0x",
      "r": "0x200f13023724cf1afe14c7278095aeb71bda3f70ccb10b17c65e9e509a642c07",
      "s": "0x38e683281ca82f45d3fbf16ff523bf03f2523ddf0c67cc5eadf519aff025665f",
      "v": 28,
      "creates": null,
      "raw": "0xf86c02850d9f7d76ee8252089432be343b94f860124dc4fee278fdcbd38c102d8888d026570323bb2000801ca0200f13023724cf1afe14c7278095aeb71bda3f70ccb10b17c65e9e509a642c07a038e683281ca82f45d3fbf16ff523bf03f2523ddf0c67cc5eadf519aff025665f",
      "networkId": 0,
      "chainId": 0
    },
    {
      "hash": "0xbd5e758976e6d45e47398e5233c2dd0adacd6a23caadc3fccef0830c31c25aef",
      "blockHash": "0x518e2736c29358b0303cb0a0f9115298f1dea95f7340af630df115abaae362b7",
      "blockNumber": 84373,
      "transactionIndex": 7,
      "confirmations": null,
      "from": "0x12cbF607E6b04f34f251Ac08cF55444786Add488",
      "gasPrice": {
        "_hex": "0xd9f7d76ee"
      },
      "gasLimit": {
        "_hex": "0x5208"
      },
      "to": "0x32Be343B94f860124dC4fEe278FDCBD38C102D88",
      "value": {
        "_hex": "0x298c031e132aa000"
      },
      "nonce": 0,
      "data": "0x",
      "r": "0x80a678314817835b76526a028a6445af7854953cb5e375ac305706381c3af369",
      "s": "0x2920644f5d4db078db955939fa5372231d369e84c66e82669e5fd2513b79481e",
      "v": 28,
      "creates": null,
      "raw": "0xf86c80850d9f7d76ee8252089432be343b94f860124dc4fee278fdcbd38c102d8888298c031e132aa000801ca080a678314817835b76526a028a6445af7854953cb5e375ac305706381c3af369a02920644f5d4db078db955939fa5372231d369e84c66e82669e5fd2513b79481e",
      "networkId": 0,
      "chainId": 0
    },
    {
      "hash": "0xc1edc4dd8bffeb39d00b52d689560dcda91898a4a991722143c95e6626e3940e",
      "blockHash": "0x518e2736c29358b0303cb0a0f9115298f1dea95f7340af630df115abaae362b7",
      "blockNumber": 84373,
      "transactionIndex": 8,
      "confirmations": null,
      "from": "0xe6A7a1d47ff21B6321162AEA7C6CB457D5476Bca",
      "gasPrice": {
        "_hex": "0xd416f9f95"
      },
      "gasLimit": {
        "_hex": "0x55f0"
      },
      "to": "0xDE209fd98dEc789370402D891e7401d3947379e4",
      "value": {
        "_hex": "0x30db72dfe3ee3fd0"
      },
      "nonce": 1913,
      "data": "0x",
      "r": "0xf46fde283fa6ba0e3b18a6456d903daeec5a55c4c2d07a5c8f3b9932af43e0f3",
      "s": "0x20adc3b099fc6aa775ef409ee0d19b8825945f4369daafb2486cdcd148fc58ab",
      "v": 27,
      "creates": null,
      "raw": "0xf86e820779850d416f9f958255f094de209fd98dec789370402d891e7401d3947379e48830db72dfe3ee3fd0801ba0f46fde283fa6ba0e3b18a6456d903daeec5a55c4c2d07a5c8f3b9932af43e0f3a020adc3b099fc6aa775ef409ee0d19b8825945f4369daafb2486cdcd148fc58ab",
      "networkId": 0,
      "chainId": 0
    },
    {
      "hash": "0x4cfaa9f33e088cc0ef194a7d4976ed89c0bf2f6f17d920cb84209d326d0a3542",
      "blockHash": "0x518e2736c29358b0303cb0a0f9115298f1dea95f7340af630df115abaae362b7",
      "blockNumber": 84373,
      "transactionIndex": 9,
      "confirmations": null,
      "from": "0xe6A7a1d47ff21B6321162AEA7C6CB457D5476Bca",
      "gasPrice": {
        "_hex": "0xd416f9f95"
      },
      "gasLimit": {
        "_hex": "0x55f0"
      },
      "to": "0xabceA603089850F8f6bB612A9031554D90A247CF",
      "value": {
        "_hex": "0x3309c9431c7a77f8"
      },
      "nonce": 1914,
      "data": "0x",
      "r": "0x0a2ebde395717375f2a19e12bef10eb953653641f0ae379e3d3b2e652c00e3f0",
      "s": "0x3f0e5e3963034ee9de979abe94464f3f7ba8ef7457d814d34d222da725d87fe8",
      "v": 28,
      "creates": null,
      "raw": "0xf86e82077a850d416f9f958255f094abcea603089850f8f6bb612a9031554d90a247cf883309c9431c7a77f8801ca00a2ebde395717375f2a19e12bef10eb953653641f0ae379e3d3b2e652c00e3f0a03f0e5e3963034ee9de979abe94464f3f7ba8ef7457d814d34d222da725d87fe8",
      "networkId": 0,
      "chainId": 0
    },
    {
      "hash": "0xe1f782a5a1106d919e99e33dc91b06d1e641ded7d3e35b1769b2049c1ea0d61e",
      "blockHash": "0x518e2736c29358b0303cb0a0f9115298f1dea95f7340af630df115abaae362b7",
      "blockNumber": 84373,
      "transactionIndex": 10,
      "confirmations": null,
      "from": "0xe6A7a1d47ff21B6321162AEA7C6CB457D5476Bca",
      "gasPrice": {
        "_hex": "0xd416f9f95"
      },
      "gasLimit": {
        "_hex": "0x55f0"
      },
      "to": "0x34BDAF0a5ed72734a4c4c6CE6Cc8132EC81fb2a8",
      "value": {
        "_hex": "0x3925cf40038b8b40"
      },
      "nonce": 1915,
      "data": "0x",
      "r": "0x2ba8ce1cd861f4ba97b12ae16eac059e21827a196954572a5de00676a50618a4",
      "s": "0x2e4d1acd2e6eb3210d75695f63fc3ce2b3dd88cb9f5035ca97459e0cc784f596",
      "v": 28,
      "creates": null,
      "raw": "0xf86e82077b850d416f9f958255f09434bdaf0a5ed72734a4c4c6ce6cc8132ec81fb2a8883925cf40038b8b40801ca02ba8ce1cd861f4ba97b12ae16eac059e21827a196954572a5de00676a50618a4a02e4d1acd2e6eb3210d75695f63fc3ce2b3dd88cb9f5035ca97459e0cc784f596",
      "networkId": 0,
      "chainId": 0
    },
    {
      "hash": "0xc01fae2095542d789a8473ef460d176a5cfcad524c7b9df821ea156e15902a57",
      "blockHash": "0x518e2736c29358b0303cb0a0f9115298f1dea95f7340af630df115abaae362b7",
      "blockNumber": 84373,
      "transactionIndex": 11,
      "confirmations": null,
      "from": "0xe6A7a1d47ff21B6321162AEA7C6CB457D5476Bca",
      "gasPrice": {
        "_hex": "0xd416f9f95"
      },
      "gasLimit": {
        "_hex": "0x55f0"
      },
      "to": "0xd223eD5b348a82910987CbBc7875a7AE62E1Ba53",
      "value": {
        "_hex": "0x3a7d7887569d97f8"
      },
      "nonce": 1916,
      "data": "0x",
      "r": "0x5fbcf162e809864285c7e4a39a9d9b64c22596a5734a81800b6ce0bd0e862f23",
      "s": "0x6505ca94eef6c750e20b8740aac94b2d626017106dafdf4a2f23df8cc063faab",
      "v": 27,
      "creates": null,
      "raw": "0xf86e82077c850d416f9f958255f094d223ed5b348a82910987cbbc7875a7ae62e1ba53883a7d7887569d97f8801ba05fbcf162e809864285c7e4a39a9d9b64c22596a5734a81800b6ce0bd0e862f23a06505ca94eef6c750e20b8740aac94b2d626017106dafdf4a2f23df8cc063faab",
      "networkId": 0,
      "chainId": 0
    },
    {
      "hash": "0xfbfe60c34146c4c15d8dfa79d5d102e2e95399691b2bbb162ecaf9a3e03ea1d9",
      "blockHash": "0x518e2736c29358b0303cb0a0f9115298f1dea95f7340af630df115abaae362b7",
      "blockNumber": 84373,
      "transactionIndex": 12,
      "confirmations": null,
      "from": "0xe6A7a1d47ff21B6321162AEA7C6CB457D5476Bca",
      "gasPrice": {
        "_hex": "0xd416f9f95"
      },
      "gasLimit": {
        "_hex": "0x55f0"
      },
      "to": "0x5175f107219871c88e0C4202F14A5f34088b54c8",
      "value": {
        "_hex": "0x3b73a35f90aeca30"
      },
      "nonce": 1917,
      "data": "0x",
      "r": "0x38fc67323abf2660528d068124bebae149de20f2cd4a58bf9be1cd4c2ad3d6b6",
      "s": "0x00119bd582190d245541ea083ace963ed60b17655a2594829a0a31dabd6cbe1a",
      "v": 28,
      "creates": null,
      "raw": "0xf86d82077d850d416f9f958255f0945175f107219871c88e0c4202f14a5f34088b54c8883b73a35f90aeca30801ca038fc67323abf2660528d068124bebae149de20f2cd4a58bf9be1cd4c2ad3d6b69f119bd582190d245541ea083ace963ed60b17655a2594829a0a31dabd6cbe1a",
      "networkId": 0,
      "chainId": 0
    },
    {
      "hash": "0x11621b106087d7a423da83ca181a574a05a2a0ce74629258783de26a34d81f9c",
      "blockHash": "0x518e2736c29358b0303cb0a0f9115298f1dea95f7340af630df115abaae362b7",
      "blockNumber": 84373,
      "transactionIndex": 13,
      "confirmations": null,
      "from": "0xe6A7a1d47ff21B6321162AEA7C6CB457D5476Bca",
      "gasPrice": {
        "_hex": "0xd416f9f95"
      },
      "gasLimit": {
        "_hex": "0x55f0"
      },
      "to": "0x08A2e2E8Aa27cF67a48dDb5DD92F170Eb4a90BFE",
      "value": {
        "_hex": "0x3d54907a73682878"
      },
      "nonce": 1918,
      "data": "0x",
      "r": "0xdc9625fd6e90e7bf3e6917cb3733d2a8ed369d66b815ca6c601ed5937c1720fc",
      "s": "0x60f0e33751e8ac04a26b4e1dcfc722cd122e34d3bad04b6d0a4c975bafa6091d",
      "v": 28,
      "creates": null,
      "raw": "0xf86e82077e850d416f9f958255f09408a2e2e8aa27cf67a48ddb5dd92f170eb4a90bfe883d54907a73682878801ca0dc9625fd6e90e7bf3e6917cb3733d2a8ed369d66b815ca6c601ed5937c1720fca060f0e33751e8ac04a26b4e1dcfc722cd122e34d3bad04b6d0a4c975bafa6091d",
      "networkId": 0,
      "chainId": 0
    },
    {
      "hash": "0x9157a9a98662bdaf460c288d8a3ad82f97e421257793b63f9dc50af27c322116",
      "blockHash": "0x518e2736c29358b0303cb0a0f9115298f1dea95f7340af630df115abaae362b7",
      "blockNumber": 84373,
      "transactionIndex": 14,
      "confirmations": null,
      "from": "0xe6A7a1d47ff21B6321162AEA7C6CB457D5476Bca",
      "gasPrice": {
        "_hex": "0xd416f9f95"
      },
      "gasLimit": {
        "_hex": "0x55f0"
      },
      "to": "0x63d25FB5edc318Aae1DEc4F3aBd7c645f921cff8",
      "value": {
        "_hex": "0x4933138156cd68d0"
      },
      "nonce": 1919,
      "data": "0x",
      "r": "0x955303fb056bcc18b75b1498fbefe6922c6f22e4088d01493fc30bc3f70beeca",
      "s": "0x7a2b09aa3af2a04f0bd1ba0eb50c2d02d882f90b0fe2aef2703f95ab84537b65",
      "v": 28,
      "creates": null,
      "raw": "0xf86e82077f850d416f9f958255f09463d25fb5edc318aae1dec4f3abd7c645f921cff8884933138156cd68d0801ca0955303fb056bcc18b75b1498fbefe6922c6f22e4088d01493fc30bc3f70beecaa07a2b09aa3af2a04f0bd1ba0eb50c2d02d882f90b0fe2aef2703f95ab84537b65",
      "networkId": 0,
      "chainId": 0
    },
    {
      "hash": "0xac99a87dc317e4bf0a627c7e72851136118f57889059d4010767a272bbb3dcea",
      "blockHash": "0x518e2736c29358b0303cb0a0f9115298f1dea95f7340af630df115abaae362b7",
      "blockNumber": 84373,
      "transactionIndex": 15,
      "confirmations": null,
      "from": "0xe6A7a1d47ff21B6321162AEA7C6CB457D5476Bca",
      "gasPrice": {
        "_hex": "0xd416f9f95"
      },
      "gasLimit": {
        "_hex": "0x55f0"
      },
      "to": "0x0dd48f729D5084545452A08F5E5AB412d7c2888a",
      "value": {
        "_hex": "0x4b17221ecc8d0710"
      },
      "nonce": 1920,
      "data": "0x",
      "r": "0xc1c3d9c9123b444aed6403510d5f3c8c4b048249d5db80684cabb83a44dcc517",
      "s": "0x05e7ebb9678b387a0f459091cd8fc6610523c49c16640f1d8faa245113204229",
      "v": 28,
      "creates": null,
      "raw": "0xf86e820780850d416f9f958255f0940dd48f729d5084545452a08f5e5ab412d7c2888a884b17221ecc8d0710801ca0c1c3d9c9123b444aed6403510d5f3c8c4b048249d5db80684cabb83a44dcc517a005e7ebb9678b387a0f459091cd8fc6610523c49c16640f1d8faa245113204229",
      "networkId": 0,
      "chainId": 0
    },
    {
      "hash": "0x65a7367eb4c93fcf1bcfd485450ae5b51cc15e2dfcd4c2be289972fb95dc4b19",
      "blockHash": "0x518e2736c29358b0303cb0a0f9115298f1dea95f7340af630df115abaae362b7",
      "blockNumber": 84373,
      "transactionIndex": 16,
      "confirmations": null,
      "from": "0xe6A7a1d47ff21B6321162AEA7C6CB457D5476Bca",
      "gasPrice": {
        "_hex": "0xd416f9f95"
      },
      "gasLimit": {
        "_hex": "0x55f0"
      },
      "to": "0xB89C0F465b0472fa5A58eCDd01eD937205ae4d06",
      "value": {
        "_hex": "0x4d26c91df4a7a108"
      },
      "nonce": 1921,
      "data": "0x",
      "r": "0x41c7f3cb7463dd09506c7af27881eac454b0d3d8b3d3190fbc813865a38145d9",
      "s": "0x07f64fde9e1f8119d66587e5dc6d18c3857d626c03af5c778571ce9cc87d09d0",
      "v": 27,
      "creates": null,
      "raw": "0xf86e820781850d416f9f958255f094b89c0f465b0472fa5a58ecdd01ed937205ae4d06884d26c91df4a7a108801ba041c7f3cb7463dd09506c7af27881eac454b0d3d8b3d3190fbc813865a38145d9a007f64fde9e1f8119d66587e5dc6d18c3857d626c03af5c778571ce9cc87d09d0",
      "networkId": 0,
      "chainId": 0
    },
    {
      "hash": "0xb6268cee6744e7aac8904f894e3dcf03444999fa00450f5e2dcc7f49faa15ee1",
      "blockHash": "0x518e2736c29358b0303cb0a0f9115298f1dea95f7340af630df115abaae362b7",
      "blockNumber": 84373,
      "transactionIndex": 17,
      "confirmations": null,
      "from": "0xe6A7a1d47ff21B6321162AEA7C6CB457D5476Bca",
      "gasPrice": {
        "_hex": "0xd416f9f95"
      },
      "gasLimit": {
        "_hex": "0x55f0"
      },
      "to": "0xacc8dECDFDCbed202B8632947c60487494F5D2c7",
      "value": {
        "_hex": "0x519d8fc1fa241e78"
      },
      "nonce": 1922,
      "data": "0x",
      "r": "0x22e3ad436886a207b18c9606e63e729cc3ae09787963c972dc7b419ad41d92f0",
      "s": "0x75c1c7291de4da565d4df4eee30a5b4de88e0f5503d2cc724bbc2abe53634ba7",
      "v": 27,
      "creates": null,
      "raw": "0xf86e820782850d416f9f958255f094acc8decdfdcbed202b8632947c60487494f5d2c788519d8fc1fa241e78801ba022e3ad436886a207b18c9606e63e729cc3ae09787963c972dc7b419ad41d92f0a075c1c7291de4da565d4df4eee30a5b4de88e0f5503d2cc724bbc2abe53634ba7",
      "networkId": 0,
      "chainId": 0
    },
    {
      "hash": "0x376b2db62b7889a37259f24ddec6aa2ac12016a59b4a82d5074b5c668a8f2301",
      "blockHash": "0x518e2736c29358b0303cb0a0f9115298f1dea95f7340af630df115abaae362b7",
      "blockNumber": 84373,
      "transactionIndex": 18,
      "confirmations": null,
      "from": "0xe6A7a1d47ff21B6321162AEA7C6CB457D5476Bca",
      "gasPrice": {
        "_hex": "0xd416f9f95"
      },
      "gasLimit": {
        "_hex": "0x55f0"
      },
      "to": "0x027698B61229ECCa19311e977ADE3C2923D4e414",
      "value": {
        "_hex": "0x68eb6e024fc8a140"
      },
      "nonce": 1923,
      "data": "0x",
      "r": "0xe254b0dfa0db2c568ee8ad85dbd149b5318ac892f5c3b451600f62787a58a978",
      "s": "0x0bf52ed010ed8f225005dcb72e2b7a4fddb0beaae1602276d793c9af72bd59e4",
      "v": 28,
      "creates": null,
      "raw": "0xf86e820783850d416f9f958255f094027698b61229ecca19311e977ade3c2923d4e4148868eb6e024fc8a140801ca0e254b0dfa0db2c568ee8ad85dbd149b5318ac892f5c3b451600f62787a58a978a00bf52ed010ed8f225005dcb72e2b7a4fddb0beaae1602276d793c9af72bd59e4",
      "networkId": 0,
      "chainId": 0
    },
    {
      "hash": "0xb3fb820851b71c7ca1412938d401dcec5575b4affa80583a7d9735221709c1ef",
      "blockHash": "0x518e2736c29358b0303cb0a0f9115298f1dea95f7340af630df115abaae362b7",
      "blockNumber": 84373,
      "transactionIndex": 19,
      "confirmations": null,
      "from": "0xe6A7a1d47ff21B6321162AEA7C6CB457D5476Bca",
      "gasPrice": {
        "_hex": "0xd416f9f95"
      },
      "gasLimit": {
        "_hex": "0x55f0"
      },
      "to": "0xC96Bd2Aa7AcB234ecA4E38E33bF2C080e7680FA5",
      "value": {
        "_hex": "0x7d49276a2444acd8"
      },
      "nonce": 1924,
      "data": "0x",
      "r": "0xcc2cfdb4cf17769b0394b63de100b3c4bd354c81c9943dcb0323935f9c7662d5",
      "s": "0x6400c33b65b3b561b5ee4c4afeb9d14f6efda3171e819f6358f822d9094049a1",
      "v": 27,
      "creates": null,
      "raw": "0xf86e820784850d416f9f958255f094c96bd2aa7acb234eca4e38e33bf2c080e7680fa5887d49276a2444acd8801ba0cc2cfdb4cf17769b0394b63de100b3c4bd354c81c9943dcb0323935f9c7662d5a06400c33b65b3b561b5ee4c4afeb9d14f6efda3171e819f6358f822d9094049a1",
      "networkId": 0,
      "chainId": 0
    },
    {
      "hash": "0x111ae67d1ff099e593179cdaccaaffb554dda456e334d2ec39762cdd1fb95dd7",
      "blockHash": "0x518e2736c29358b0303cb0a0f9115298f1dea95f7340af630df115abaae362b7",
      "blockNumber": 84373,
      "transactionIndex": 20,
      "confirmations": null,
      "from": "0xe6A7a1d47ff21B6321162AEA7C6CB457D5476Bca",
      "gasPrice": {
        "_hex": "0xd416f9f95"
      },
      "gasLimit": {
        "_hex": "0x55f0"
      },
      "to": "0xa28F8098A723e4ca02E9f4512410C519a252c1a9",
      "value": {
        "_hex": "0x87ca7a7d61796fe8"
      },
      "nonce": 1925,
      "data": "0x",
      "r": "0x73f8681cfb9dc5eef4c9086f8aed1a03aa7165a307b2f4ecb97a482e372b907d",
      "s": "0x00aa8410a9c477428d391605cffcf68903747064076e250f383a8c7117bb19ac",
      "v": 27,
      "creates": null,
      "raw": "0xf86d820785850d416f9f958255f094a28f8098a723e4ca02e9f4512410c519a252c1a98887ca7a7d61796fe8801ba073f8681cfb9dc5eef4c9086f8aed1a03aa7165a307b2f4ecb97a482e372b907d9faa8410a9c477428d391605cffcf68903747064076e250f383a8c7117bb19ac",
      "networkId": 0,
      "chainId": 0
    },
    {
      "hash": "0x8fd751a7dc21636599816afb30bf90278c1a2361a6282d17e703a7816ca544d7",
      "blockHash": "0x518e2736c29358b0303cb0a0f9115298f1dea95f7340af630df115abaae362b7",
      "blockNumber": 84373,
      "transactionIndex": 21,
      "confirmations": null,
      "from": "0xe6A7a1d47ff21B6321162AEA7C6CB457D5476Bca",
      "gasPrice": {
        "_hex": "0xd416f9f95"
      },
      "gasLimit": {
        "_hex": "0x55f0"
      },
      "to": "0x90891a4dAE53428129E5E2044f4677213EcCBB59",
      "value": {
        "_hex": "0x8e4bb51d18b67988"
      },
      "nonce": 1926,
      "data": "0x",
      "r": "0xae2c0cd7cd0810373aaa32fd2e826df94a277393e769978643b29cc9f7fffbc4",
      "s": "0x7564b4d82bd4ef68eba3604034d1cee893519a447932fe4d6681058bb8f6d31d",
      "v": 27,
      "creates": null,
      "raw": "0xf86e820786850d416f9f958255f09490891a4dae53428129e5e2044f4677213eccbb59888e4bb51d18b67988801ba0ae2c0cd7cd0810373aaa32fd2e826df94a277393e769978643b29cc9f7fffbc4a07564b4d82bd4ef68eba3604034d1cee893519a447932fe4d6681058bb8f6d31d",
      "networkId": 0,
      "chainId": 0
    },
    {
      "hash": "0x8e3963f99544a4a8228cc7beb6849343319ca482184bb8724ed66c37b509db1a",
      "blockHash": "0x518e2736c29358b0303cb0a0f9115298f1dea95f7340af630df115abaae362b7",
      "blockNumber": 84373,
      "transactionIndex": 22,
      "confirmations": null,
      "from": "0xe6A7a1d47ff21B6321162AEA7C6CB457D5476Bca",
      "gasPrice": {
        "_hex": "0xd416f9f95"
      },
      "gasLimit": {
        "_hex": "0x55f0"
      },
      "to": "0x61E20833179bA2eCCc2065e5F733CC8CdA7394c0",
      "value": {
        "_hex": "0x97def6e95a1ae990"
      },
      "nonce": 1927,
      "data": "0x",
      "r": "0x1648d055798407d37bcc19f70b8b6ff0cd8ec0d35b1dee919a26f6a28bb58070",
      "s": "0x2ce5550dc7b9b45d6f473c0ef75e35bdf576ae459f8dc45de65edff5f6e0a99b",
      "v": 27,
      "creates": null,
      "raw": "0xf86e820787850d416f9f958255f09461e20833179ba2eccc2065e5f733cc8cda7394c08897def6e95a1ae990801ba01648d055798407d37bcc19f70b8b6ff0cd8ec0d35b1dee919a26f6a28bb58070a02ce5550dc7b9b45d6f473c0ef75e35bdf576ae459f8dc45de65edff5f6e0a99b",
      "networkId": 0,
      "chainId": 0
    },
    {
      "hash": "0x467f4cfba9b9ee992e46ddd50d95a2938c792f8dc5f0a1393e2148dafb722039",
      "blockHash": "0x518e2736c29358b0303cb0a0f9115298f1dea95f7340af630df115abaae362b7",
      "blockNumber": 84373,
      "transactionIndex": 23,
      "confirmations": null,
      "from": "0xe6A7a1d47ff21B6321162AEA7C6CB457D5476Bca",
      "gasPrice": {
        "_hex": "0xd416f9f95"
      },
      "gasLimit": {
        "_hex": "0x55f0"
      },
      "to": "0xC99478b218E58F45783fA70f0507cf614938E67d",
      "value": {
        "_hex": "0xb22c12b08b926e18"
      },
      "nonce": 1928,
      "data": "0x",
      "r": "0xc06b147aaad10aa20a19010ac2020f925ced1e9d4cbf00478297937ba8b82120",
      "s": "0x539b8686bf3c7140f2cae7dcb585fdbd154320262abd6a7a372205c81e79083b",
      "v": 27,
      "creates": null,
      "raw": "0xf86e820788850d416f9f958255f094c99478b218e58f45783fa70f0507cf614938e67d88b22c12b08b926e18801ba0c06b147aaad10aa20a19010ac2020f925ced1e9d4cbf00478297937ba8b82120a0539b8686bf3c7140f2cae7dcb585fdbd154320262abd6a7a372205c81e79083b",
      "networkId": 0,
      "chainId": 0
    },
    {
      "hash": "0x29aca479dee7d7d6d6fd411b31eb54ecf8a793f4d427ebe14ea48078a899405b",
      "blockHash": "0x518e2736c29358b0303cb0a0f9115298f1dea95f7340af630df115abaae362b7",
      "blockNumber": 84373,
      "transactionIndex": 24,
      "confirmations": null,
      "from": "0xe6A7a1d47ff21B6321162AEA7C6CB457D5476Bca",
      "gasPrice": {
        "_hex": "0xd416f9f95"
      },
      "gasLimit": {
        "_hex": "0x55f0"
      },
      "to": "0x02020D22dCF88f5eDd66B382D7da019F161fB7e3",
      "value": {
        "_hex": "0xe0336ef4b273b868"
      },
      "nonce": 1929,
      "data": "0x",
      "r": "0x9ea53e0d41909f7525748013760b41acdd64afa4859ab9a41a0190c093700c88",
      "s": "0x6d957b6bf3ee8e309b2495681a18594025615230bb633536a00a6c0d6ef8c39b",
      "v": 28,
      "creates": null,
      "raw": "0xf86e820789850d416f9f958255f09402020d22dcf88f5edd66b382d7da019f161fb7e388e0336ef4b273b868801ca09ea53e0d41909f7525748013760b41acdd64afa4859ab9a41a0190c093700c88a06d957b6bf3ee8e309b2495681a18594025615230bb633536a00a6c0d6ef8c39b",
      "networkId": 0,
      "chainId": 0
    },
    {
      "hash": "0xd0433737442ea59ba904b5799011f0d018589a18872605262539a5ae75478883",
      "blockHash": "0x518e2736c29358b0303cb0a0f9115298f1dea95f7340af630df115abaae362b7",
      "blockNumber": 84373,
      "transactionIndex": 25,
      "confirmations": null,
      "from": "0xe6A7a1d47ff21B6321162AEA7C6CB457D5476Bca",
      "gasPrice": {
        "_hex": "0xd416f9f95"
      },
      "gasLimit": {
        "_hex": "0x55f0"
      },
      "to": "0x13065c2648269D5b802D31341006d0b458a187fE",
      "value": {
        "_hex": "0xea53061e3275a9d8"
      },
      "nonce": 1930,
      "data": "0x",
      "r": "0xb3c8aab619284cb171a2b8dce5232efbf19124b5fbdce414eefaf3ccb8a59f55",
      "s": "0x55b98e16e582bc142c5936676f224692898ed16631379f03e7ac64bf552a0df7",
      "v": 27,
      "creates": null,
      "raw": "0xf86e82078a850d416f9f958255f09413065c2648269d5b802d31341006d0b458a187fe88ea53061e3275a9d8801ba0b3c8aab619284cb171a2b8dce5232efbf19124b5fbdce414eefaf3ccb8a59f55a055b98e16e582bc142c5936676f224692898ed16631379f03e7ac64bf552a0df7",
      "networkId": 0,
      "chainId": 0
    },
    {
      "hash": "0xe2931f95a68272f2b7d7d70ef5842e2808963657d780ec0635f3df5805467acf",
      "blockHash": "0x518e2736c29358b0303cb0a0f9115298f1dea95f7340af630df115abaae362b7",
      "blockNumber": 84373,
      "transactionIndex": 26,
      "confirmations": null,
      "from": "0xe6A7a1d47ff21B6321162AEA7C6CB457D5476Bca",
      "gasPrice": {
        "_hex": "0xd416f9f95"
      },
      "gasLimit": {
        "_hex": "0x55f0"
      },
      "to": "0x051219f568c86EA6DD6Dd2cC8052c31504F33d44",
      "value": {
        "_hex": "0x1079cc3a2055c68d0"
      },
      "nonce": 1931,
      "data": "0x",
      "r": "0xe9da2bb91b627796cad9af96a567e4c13658fe35fef3dad370775ec47bc3a473",
      "s": "0x741b0d9480e21b6654285b14478ae2606d12c7baab3f6b7afbaf789d50cec192",
      "v": 28,
      "creates": null,
      "raw": "0xf86f82078b850d416f9f958255f094051219f568c86ea6dd6dd2cc8052c31504f33d448901079cc3a2055c68d0801ca0e9da2bb91b627796cad9af96a567e4c13658fe35fef3dad370775ec47bc3a473a0741b0d9480e21b6654285b14478ae2606d12c7baab3f6b7afbaf789d50cec192",
      "networkId": 0,
      "chainId": 0
    },
    {
      "hash": "0x1d6669d16adca01eff55af0e6e3905e8dcf7887d45d9fa3d2b66484b28009125",
      "blockHash": "0x518e2736c29358b0303cb0a0f9115298f1dea95f7340af630df115abaae362b7",
      "blockNumber": 84373,
      "transactionIndex": 27,
      "confirmations": null,
      "from": "0xe6A7a1d47ff21B6321162AEA7C6CB457D5476Bca",
      "gasPrice": {
        "_hex": "0xd416f9f95"
      },
      "gasLimit": {
        "_hex": "0x55f0"
      },
      "to": "0xB6AC12CefF0375Da80503AcCa54bf3061Fa917a8",
      "value": {
        "_hex": "0x120bcb9dab0dd11c0"
      },
      "nonce": 1932,
      "data": "0x",
      "r": "0x445970ca8c4ab6e489644e1f53284d3ca9d9d0269f4d4cb876f7919972df4220",
      "s": "0x48cbd4668c854d446cb06de4afa6406ba6aa1280384fe9f86c0fed3e0ea8ccec",
      "v": 27,
      "creates": null,
      "raw": "0xf86f82078c850d416f9f958255f094b6ac12ceff0375da80503acca54bf3061fa917a8890120bcb9dab0dd11c0801ba0445970ca8c4ab6e489644e1f53284d3ca9d9d0269f4d4cb876f7919972df4220a048cbd4668c854d446cb06de4afa6406ba6aa1280384fe9f86c0fed3e0ea8ccec",
      "networkId": 0,
      "chainId": 0
    },
    {
      "hash": "0x2f8c9a90843a4d18ad812b1bdb06917ad6c517b0e32121ff8ac7530d0dc67c13",
      "blockHash": "0x518e2736c29358b0303cb0a0f9115298f1dea95f7340af630df115abaae362b7",
      "blockNumber": 84373,
      "transactionIndex": 28,
      "confirmations": null,
      "from": "0xe6A7a1d47ff21B6321162AEA7C6CB457D5476Bca",
      "gasPrice": {
        "_hex": "0xd416f9f95"
      },
      "gasLimit": {
        "_hex": "0x55f0"
      },
      "to": "0xcA422f88253D0492F13F304eBCF34892B3c07AEc",
      "value": {
        "_hex": "0x12a38e9590a0cf098"
      },
      "nonce": 1933,
      "data": "0x",
      "r": "0xf61aeb50ca85a690b2be8a47f2c6b1f4b2448b891d2c1fc93f59bfc2116b7738",
      "s": "0x55b213985190ff646b2d3ca75c5e90df95561aeb5445bdac560b3e45b035fc86",
      "v": 27,
      "creates": null,
      "raw": "0xf86f82078d850d416f9f958255f094ca422f88253d0492f13f304ebcf34892b3c07aec89012a38e9590a0cf098801ba0f61aeb50ca85a690b2be8a47f2c6b1f4b2448b891d2c1fc93f59bfc2116b7738a055b213985190ff646b2d3ca75c5e90df95561aeb5445bdac560b3e45b035fc86",
      "networkId": 0,
      "chainId": 0
    },
    {
      "hash": "0xfb669535016dbd2a5929ff359f7bfa76138a9cbacd684bb5e9e355d01d770381",
      "blockHash": "0x518e2736c29358b0303cb0a0f9115298f1dea95f7340af630df115abaae362b7",
      "blockNumber": 84373,
      "transactionIndex": 29,
      "confirmations": null,
      "from": "0xe6A7a1d47ff21B6321162AEA7C6CB457D5476Bca",
      "gasPrice": {
        "_hex": "0xd416f9f95"
      },
      "gasLimit": {
        "_hex": "0x55f0"
      },
      "to": "0xc7704Fc5c51C7a5f1a6574b0014b58C8915BA55C",
      "value": {
        "_hex": "0x218572d343329af80"
      },
      "nonce": 1934,
      "data": "0x",
      "r": "0xe9d6cdfa77a63c1d1cd005ffc0182ad8cf9ce2e842dc61ad636edd24fce1a4a1",
      "s": "0x3076901ab927eba9fe0055ab6926c3b8f76ba964a61588bf038fb559705d49dd",
      "v": 27,
      "creates": null,
      "raw": "0xf86f82078e850d416f9f958255f094c7704fc5c51c7a5f1a6574b0014b58c8915ba55c890218572d343329af80801ba0e9d6cdfa77a63c1d1cd005ffc0182ad8cf9ce2e842dc61ad636edd24fce1a4a1a03076901ab927eba9fe0055ab6926c3b8f76ba964a61588bf038fb559705d49dd",
      "networkId": 0,
      "chainId": 0
    }
  ]
}