{
  "hash": "0x0675a14d53324d2fbbc23f45fbe11e6b0c5f67461bdf2d804a50bdf6d28a1ce5",
  "parentHash": "0x31f5410ca70a1ec75ce4647f94e46b1f0b3d797b6c1f06068459b5e6483ea752",
  "number": 101746,
  "timestamp": 1439827454,
  "nonce": "0xa950369977e63998",
  "difficulty": 3878680239625,
  "gasLimit": {
    "_hex": "0x2fefd8"
  },
  "gasUsed": {
    "_hex": "0x5208"
  },
  "miner": "0x040F866D0793aEbf4DaCDA92B2F2128e8599B5CF",
  "extraData": "0x476574682f76312e302e312f6c696e75782f676f312e342e32",
  "transactions": [
    {
      "hash": "0x9947cecc1059b16cafc33458b555632b3e5b5a8f614ef83ab6ab7278b213bc43",
      "blockHash": "0x0675a14d53324d2fbbc23f45fbe11e6b0c5f67461bdf2d804a50bdf6d28a1ce5",
      "blockNumber": 101746,
      "transactionIndex": 0,
      "confirmations": null,
      "from": "0xD79835E404FB86BF845fbA090d6bA25e0C8866a6",
      "gasPrice": {
        "_hex": "0xd6d9651bf"
      },
      "gasLimit": {
        "_hex": "0x15f90"
      },
      "to": "0x0Ba1B6A6368f18FF8AdB368A124A3eB7AbF6A4a7",
      "value": {
        "_hex": "0xde0b6b3a7640000"
      },
      "nonce": 0,
      "data": "0x",
      "r": "0x37a75ce1b79ba090f95e9fed814d03ed50bc01272a93b1d900a6ce9ec92bff3f",
      "s": "0x24223ddd85e98846d5f351b6961548a9e2e7315cb5d51edff02e13eaf35c22c7",
      "v": 27,
      "creates": null,
      "raw": "0xf86d80850d6d9651bf83015f90940ba1b6a6368f18ff8adb368a124a3eb7abf6a4a7880de0b6b3a7640000801ba037a75ce1b79ba090f95e9fed814d03ed50bc01272a93b1d900a6ce9ec92bff3fa024223ddd85e98846d5f351b6961548a9e2e7315cb5d51edff02e13eaf35c22c7",
      "networkId": 0,
      "chainId": 0
    }
  ]
}