{
  "hash": "0x29e1aaa8513d76e3dd068a8be1f5d872f16a60d09c8e5e9f3127894e57eba12f",
  "parentHash": "0xdcd95b90ce6997c727857996db9a83f7c912f883a740d54ebd059282cfe4af7f",
  "number": 48576,
  "timestamp": 1438959254,
  "nonce": "0x82d9cf7be5b51a3f",
  "difficulty": 1468577389947,
  "gasLimit": {
    "_hex": "0x19c2f"
  },
  "gasUsed": {
    "_hex": "0x546c"
  },
  "miner": "0xa50ec0D39fa913E62f1Bae7074E6F36caA71855b",
  "extraData": "0x476574682f76312e302e302f6c696e75782f676f312e342e32",
  "transactions": [
    {
      "hash": "0x78abf587188900a7a31e3ca9a4abd024a5c4f8c68a2803ae86f91c4cd8443edf",
      "blockHash": "0x29e1aaa8513d76e3dd068a8be1f5d872f16a60d09c8e5e9f3127894e57eba12f",
      "blockNumber": 48576,
      "transactionIndex": 0,
      "confirmations": null,
      "from": "0x88c2516A7Cdb09a6276D7297d30f5a4DB1E84B86",
      "gasPrice": {
        "_hex": "0x10b4882fe3e"
      },
      "gasLimit": {
        "_hex": "0x15f90"
      },
      "to": "0x2910543Af39abA0Cd09dBb2D50200b3E800A63D2",
      "value": {
        "_hex": "0x4563918244f40000"
      },
      "nonce": 0,
      "data": "0x454e33583632563030",
      "r": "0x6c5f8641f6d50948b2d962ec1373b6409964e5ea5f118c78bb10471d95e3e564",
      "s": "0x44d2348160cb6c397bdfc45433e381a5ab8478510943591045e132ed012bc0f7",
      "v": 28,
      "creates": null,
      "raw": "0xf8778086010b4882fe3e83015f90942910543af39aba0cd09dbb2d50200b3e800a63d2884563918244f4000089454e335836325630301ca06c5f8641f6d50948b2d962ec1373b6409964e5ea5f118c78bb10471d95e3e564a044d2348160cb6c397bdfc45433e381a5ab8478510943591045e132ed012bc0f7",
      "networkId": 0,
      "chainId": 0
    }
  ]
}