{
  "hash": "0xc329dfce7321b3635e7e593a0c5daf12eeb3d371c3d7f7cf2c3cc0bc285a5275",
  "parentHash": "0x8bbd5e4a618a7aec2aaf3326d34ca0d6edd8ddc36e4e14bf9d527d8161ccffed",
  "number": 118970,
  "timestamp": 1440134486,
  "nonce": "0x75d9985f60ff24d4",
  "difficulty": 4420506139916,
  "gasLimit": {
    "_hex": "0x2fefd8"
  },
  "gasUsed": {
    "_hex": "0x5208"
  },
  "miner": "0xe6A7a1d47ff21B6321162AEA7C6CB457D5476Bca",
  "extraData": "0xd783010002844765746887676f312e342e32856c696e7578",
  "transactions": [
    {
      "hash": "0x44c10824a0ce31bc26704cbd4c8e5247eade1e0c5b7527be2c06bf27309009b3",
      "blockHash": "0xc329dfce7321b3635e7e593a0c5daf12eeb3d371c3d7f7cf2c3cc0bc285a5275",
      "blockNumber": 118970,
      "transactionIndex": 0,
      "confirmations": null,
      "from": "0x00E681Bc2D10DB62De85848324492250348E90Bf",
      "gasPrice": {
        "_hex": "0xba43b7400"
      },
      "gasLimit": {
        "_hex": "0x15f90"
      },
      "to": "0x5562e886dF729822Ef77862A12f4631658cEa98e",
      "value": {
        "_hex": "0x2da518eae48ee80000"
      },
      "nonce": 3,
      "data": "0x",
      "r": "0xf1b10d5dd4576561c706893a40886cce0ad280a41cfaf0406af758bff8a74174",
      "s": "0x072c623a4f094e065636e87f31f8a2a4891102223d88f6e86fec626b91d8bdb8",
      "v": 27,
      "creates": null,
      "raw": "0xf86e03850ba43b740083015f90945562e886df729822ef77862a12f4631658cea98e892da518eae48ee80000801ba0f1b10d5dd4576561c706893a40886cce0ad280a41cfaf0406af758bff8a74174a0072c623a4f094e065636e87f31f8a2a4891102223d88f6e86fec626b91d8bdb8",
      "networkId": 0,
      "chainId": 0
    }
  ]
}