{
  "hash": "0xa8397c84b7e285873dc2b8b9e6be13c01a3622b79d2c2ad1ca081b3012db4e11",
  "parentHash": "0xe6e45e6912a691f1f714c1648907c5aab356c657e14033f608322b83afaa0d90",
  "number": 64471,
  "timestamp": 1439221278,
  "nonce": "0x5d584131e69db471",
  "difficulty": 1875698998405,
  "gasLimit": {
    "_hex": "0x2fefd8"
  },
  "gasUsed": {
    "_hex": "0xbe6c"
  },
  "miner": "0x858079E02403b10748B71A02195b6608Abaf6b8f",
  "extraData": "0x476574682f76312e302e312f77696e646f77732f676f312e342e32",
  "transactions": [
    {
      "hash": "0x807a5d7150067cb795dd5518232374262f4a358dc34e1e53bbd81844ec89c85b",
      "blockHash": "0xa8397c84b7e285873dc2b8b9e6be13c01a3622b79d2c2ad1ca081b3012db4e11",
      "blockNumber": 64471,
      "transactionIndex": 0,
      "confirmations": null,
      "from": "0xBE38840CaC03E2fF88C50b23C3B041cc16c38548",
      "gasPrice": {
        "_hex": "0xba43b7400"
      },
      "gasLimit": {
        "_hex": "0x15f90"
      },
      "to": "0x793AE8C1b1a160BFc07BFB0d04F85eab1A71F4f2",
      "value": {
        "_hex": "0x0"
      },
      "nonce": 0,
      "data": "0x3ba15036",
      "r": "0x21117b28b859aa89fcbdb1ceae3ab4fc6f2a8e7fd4796b5b10b44e057a6bac1a",
      "s": "0x7a56fbaf476377bc4df11d2dc20e37b5662224b41c9d5b8ac9c430661aad4be7",
      "v": 27,
      "creates": null,
      "raw": "0xf86980850ba43b740083015f9094793ae8c1b1a160bfc07bfb0d04f85eab1a71f4f280843ba150361ba021117b28b859aa89fcbdb1ceae3ab4fc6f2a8e7fd4796b5b10b44e057a6bac1aa07a56fbaf476377bc4df11d2dc20e37b5662224b41c9d5b8ac9c430661aad4be7",
      "networkId": 0,
      "chainId": 0
    }
  ]
}