{
  "hash": "0xa43215c31ed0180ebee5904cd5e5a5cc1bb1d544f19e81fcdabdd39689d8a3ae",
  "parentHash": "0xd6bd2e7021621cbce69ce6285dfed1c90b8ca3d2863d8a1555f076077dcd4ce5",
  "number": 110366,
  "timestamp": 1439972594,
  "nonce": "0x22f7fde26f77f3df",
  "difficulty": 4364955530916,
  "gasLimit": {
    "_hex": "0x2fefd8"
  },
  "gasUsed": {
    "_hex": "0x14820"
  },
  "miner": "0xa50ec0D39fa913E62f1Bae7074E6F36caA71855b",
  "extraData": "0xd783010001844765746887676f312e342e32856c696e7578",
  "transactions": [
    {
      "hash": "0xf87cd8a2a2237ff476645392d9d0d95ac5edf24089221e158af8d59c0afdd60b",
      "blockHash": "0xa43215c31ed0180ebee5904cd5e5a5cc1bb1d544f19e81fcdabdd39689d8a3ae",
      "blockNumber": 110366,
      "transactionIndex": 0,
      "confirmations": null,
      "from": "0x1E550f4ecF22cBCb73da4fc090FBf5a5c748b0F1",
      "gasPrice": {
        "_hex": "0xd26f3d8e4"
      },
      "gasLimit": {
        "_hex": "0x5208"
      },
      "to": "0x32Be343B94f860124dC4fEe278FDCBD38C102D88",
      "value": {
        "_hex": "0x110d95b5c3e1fc000"
      },
      "nonce": 6,
      "data": "0x",
      "r": "0x71e8dc9782b59a034c5d77da09c18140f6949aea53d382fd08af2b7f65abd1c5",
      "s": "0x42543a2056d318ed21d25fcb74723036ced807e3c58a2bafc24ef3a55b2d5120",
      "v": 27,
      "creates": null,
      "raw": "0xf86d06850d26f3d8e48252089432be343b94f860124dc4fee278fdcbd38c102d88890110d95b5c3e1fc000801ba071e8dc9782b59a034c5d77da09c18140f6949aea53d382fd08af2b7f65abd1c5a042543a2056d318ed21d25fcb74723036ced807e3c58a2bafc24ef3a55b2d5120",
      "networkId": 0,
      "chainId": 0
    },
    {
      "hash": "0xd020d19d7d34c20c88111e7b777f1b07f85ec2a55c102aaa559940d62f8cc2d8",
      "blockHash": "0xa43215c31ed0180ebee5904cd5e5a5cc1bb1d544f19e81fcdabdd39689d8a3ae",
      "blockNumber": 110366,
      "transactionIndex": 1,
      "confirmations": null,
      "from": "0x06BcFDb20583cc822f2031724E36F3678BBCa6E9",
      "gasPrice": {
        "_hex": "0xd26f3d8e4"
      },
      "gasLimit": {
        "_hex": "0x5208"
      },
      "to": "0x32Be343B94f860124dC4fEe278FDCBD38C102D88",
      "value": {
        "_hex": "0x277d8bde8b0e6c000"
      },
      "nonce": 7,
      "data": "0x",
      "r": "0x0ee46c7acaf62f1b92d8495c38108ac9ac2f694c83d3940c59fd46d12751af8b",
      "s": "0x079b7060d93186216e74ca5b265e91b0bb21dee823379c27b134c8da3c79fc6d",
      "v": 28,
      "creates": null,
      "raw": "0xf86d07850d26f3d8e48252089432be343b94f860124dc4fee278fdcbd38c102d88890277d8bde8b0e6c000801ca00ee46c7acaf62f1b92d8495c38108ac9ac2f694c83d3940c59fd46d12751af8ba0079b7060d93186216e74ca5b265e91b0bb21dee823379c27b134c8da3c79fc6d",
      "networkId": 0,
      "chainId": 0
    },
    {
      "hash": "0x4f323e9edd7c768949a0c69039583347bc02eb1b57a574554437bede877ca191",
      "blockHash": "0xa43215c31ed0180ebee5904cd5e5a5cc1bb1d544f19e81fcdabdd39689d8a3ae",
      "blockNumber": 110366,
      "transactionIndex": 2,
      "confirmations": null,
      "from": "0x853Bff007d269E0526E871360d79d69D602770dc",
      "gasPrice": {
        "_hex": "0xd26f3d8e4"
      },
      "gasLimit": {
        "_hex": "0x5208"
      },
      "to": "0x32Be343B94f860124dC4fEe278FDCBD38C102D88",
      "value": {
        "_hex": "0x2778531aaeb7bc000"
      },
      "nonce": 15,
      "data": "0x",
      "r": "0x6d4c57fe4aef5a2f14f1d964df9cd2aabcb80faa90339851fd7b50bad31f9633",
      "s": "0x7e1472cb4a0bd544a9ccc9d89357bda9f6e6bc7d1c015d03a932f2af56c8c9e9",
      "v": 28,
      "creates": null,
      "raw": "0xf86d0f850d26f3d8e48252089432be343b94f860124dc4fee278fdcbd38c102d888902778531aaeb7bc000801ca06d4c57fe4aef5a2f14f1d964df9cd2aabcb80faa90339851fd7b50bad31f9633a07e1472cb4a0bd544a9ccc9d89357bda9f6e6bc7d1c015d03a932f2af56c8c9e9",
      "networkId": 0,
      "chainId": 0
    },
    {
      "hash": "0xf3073d84520abe6dd67cb99dd3ace1b745393f283aea736faff35ebac8880db9",
      "blockHash": "0xa43215c31ed0180ebee5904cd5e5a5cc1bb1d544f19e81fcdabdd39689d8a3ae",
      "blockNumber": 110366,
      "transactionIndex": 3,
      "confirmations": null,
      "from": "0x556ca325C21e450b2aFf86D9c8eF0Fa371971c97",
      "gasPrice": {
        "_hex": "0xd26f3d8e4"
      },
      "gasLimit": {
        "_hex": "0x5208"
      },
      "to": "0x32Be343B94f860124dC4fEe278FDCBD38C102D88",
      "value": {
        "_hex": "0x1dedad8b3618f4000"
      },
      "nonce": 19,
      "data": "0x",
      "r": "0x9f12b6ff21783d2a28a2467754572f8c5e081d5c1d2cd65e2ccefd2ccee203dd",
      "s": "0x47c494c47b989cb84119320b10c74cd68a64038b839a6fb9ccd805b25408bf89",
      "v": 27,
      "creates": null,
      "raw": "0xf86d13850d26f3d8e48252089432be343b94f860124dc4fee278fdcbd38c102d888901dedad8b3618f4000801ba09f12b6ff21783d2a28a2467754572f8c5e081d5c1d2cd65e2ccefd2ccee203dda047c494c47b989cb84119320b10c74cd68a64038b839a6fb9ccd805b25408bf89",
      "networkId": 0,
      "chainId": 0
    }
  ]
}