{
  "hash": "0x983557af14e8a17cd5e92b4d78c1484d9b3e5925da38d6dd21d6ddc9c24e5d21",
  "parentHash": "0x927557f6dcd7c370e37b2dd97065fefcd769cab8cf696f313fc44aa1ffe42192",
  "number": 47536,
  "timestamp": 1438942375,
  "nonce": "0x8d96406ae51babb7",
  "difficulty": 1447401253209,
  "gasLimit": {
    "_hex": "0xcc21"
  },
  "gasUsed": {
    "_hex": "0xa674"
  },
  "miner": "0xe6A7a1d47ff21B6321162AEA7C6CB457D5476Bca",
  "extraData": "0x657468706f6f6c2e6f7267",
  "transactions": [
    {
      "hash": "0x1a9b92ddb5d9faf9500190bc834b6cf7313005d1dad3c09beb51512ff6a3d238",
      "blockHash": "0x983557af14e8a17cd5e92b4d78c1484d9b3e5925da38d6dd21d6ddc9c24e5d21",
      "blockNumber": 47536,
      "transactionIndex": 0,
      "confirmations": null,
      "from": "0xF0a3af9e925b07D1FAA4ddF8beBfAA86B7B95e33",
      "gasPrice": {
        "_hex": "0x12a05f2000"
      },
      "gasLimit": {
        "_hex": "0x61a8"
      },
      "to": "0x2910543Af39abA0Cd09dBb2D50200b3E800A63D2",
      "value": {
        "_hex": "0x4563918244f40000"
      },
      "nonce": 1,
      "data": "0x454e375a4455355847",
      "r": "0x42424412a59bb9e9c5bfe0509e1ce21189f16566d774f6581e98bc0969cf19fe",
      "s": "0x122c8d6fbd636467ee568a60279f92dd3f3b9343ad452d25012c97f70d63c6f0",
      "v": 27,
      "creates": null,
      "raw": "0xf875018512a05f20008261a8942910543af39aba0cd09dbb2d50200b3e800a63d2884563918244f4000089454e375a44553558471ba042424412a59bb9e9c5bfe0509e1ce21189f16566d774f6581e98bc0969cf19fea0122c8d6fbd636467ee568a60279f92dd3f3b9343ad452d25012c97f70d63c6f0",
      "networkId": 0,
      "chainId": 0
    },
    {
      "hash": "0x285af35551d0bc07778920bc4f3380c36dcd9b8e326fbd9b49b5eee760428e30",
      "blockHash": "0x983557af14e8a17cd5e92b4d78c1484d9b3e5925da38d6dd21d6ddc9c24e5d21",
      "blockNumber": 47536,
      "transactionIndex": 1,
      "confirmations": null,
      "from": "0xe6A7a1d47ff21B6321162AEA7C6CB457D5476Bca",
      "gasPrice": {
        "_hex": "0x1cc97c2f04"
      },
      "gasLimit": {
        "_hex": "0x55f0"
      },
      "to": "0xD0E343F03F5a7Fd77bcD16064305C2cdeF46FBc4",
      "value": {
        "_hex": "0x404cf29595c84cfe0"
      },
      "nonce": 171,
      "data": "0x",
      "r": "0x765892b5b1d9eb2e70b0709c2a2424673c34fbf7b3062cfee15d5d786c84938b",
      "s": "0x4052f0b7cc6c8812654336144bd62c14d538d9d6bcc1af6ea20f49539ddfa166",
      "v": 27,
      "creates": null,
      "raw": "0xf86e81ab851cc97c2f048255f094d0e343f03f5a7fd77bcd16064305c2cdef46fbc4890404cf29595c84cfe0801ba0765892b5b1d9eb2e70b0709c2a2424673c34fbf7b3062cfee15d5d786c84938ba04052f0b7cc6c8812654336144bd62c14d538d9d6bcc1af6ea20f49539ddfa166",
      "networkId": 0,
      "chainId": 0
    }
  ]
}