{
  "hash": "0x1ef465aa820a4f3f6d32363fd5a0f6f97af4c58144e97954389f3dace35f41e7",
  "parentHash": "0x11d58a8e58fe4b2a5a33bccff655f9031a27d3a13c8a50367e78373a9ffb7fd7",
  "number": 93185,
  "timestamp": 1439684634,
  "nonce": "0xd60bb326b7718860",
  "difficulty": 3596119472856,
  "gasLimit": {
    "_hex": "0x2fefd8"
  },
  "gasUsed": {
    "_hex": "0x5d9f"
  },
  "miner": "0x513cc87Fc09c7Dedae9A780a66dc47ebeE4B5C5A",
  "extraData": "0x",
  "transactions": [
    {
      "hash": "0xbdb57c253952a1104a1765b7718196d049d3aeadbdcafd5221512fed22a4051e",
      "blockHash": "0x1ef465aa820a4f3f6d32363fd5a0f6f97af4c58144e97954389f3dace35f41e7",
      "blockNumber": 93185,
      "transactionIndex": 0,
      "confirmations": null,
      "from": "0x02020D22dCF88f5eDd66B382D7da019F161fB7e3",
      "gasPrice": {
        "_hex": "0xce0236b6e"
      },
      "gasLimit": {
        "_hex": "0x15f90"
      },
      "to": "0xCAc7000C7dBaa2E33Af15325AF5D435E011C7BdD",
      "value": {
        "_hex": "0xde0b6b3a7640000"
      },
      "nonce": 24,
      "data": "0xb214faa5384e53354b355737410000000000000000000000000000000000000000000000",
      "r": "0xf19a24555f19db23a7f5b22a9ee61af616f4801e7dcc39661354ad0557fcffde",
      "s": "0x606eee7ee69ceaf664fd7d8d292437e6c53a8e70b6994a5b0c265c46a0bde523",
      "v": 27,
      "creates": null,
      "raw": "0xf89118850ce0236b6e83015f9094cac7000c7dbaa2e33af15325af5d435e011c7bdd880de0b6b3a7640000a4b214faa5384e53354b3557374100000000000000000000000000000000000000000000001ba0f19a24555f19db23a7f5b22a9ee61af616f4801e7dcc39661354ad0557fcffdea0606eee7ee69ceaf664fd7d8d292437e6c53a8e70b6994a5b0c265c46a0bde523",
      "networkId": 0,
      "chainId": 0
    }
  ]
}