{
  "hash": "0x282f54a18670e1c74ab9f9d0e91a05716fc18ff7bda74f78746e28d5d67d756f",
  "parentHash": "0x35e2ce9ee422509fd6e345f1ba8ef82ab5ac637c2cddcfb6c2cbdd67daed4a04",
  "number": 91193,
  "timestamp": 1439651766,
  "nonce": "0xe1f70579f5f1438e",
  "difficulty": 3438966280099,
  "gasLimit": {
    "_hex": "0x2fefd8"
  },
  "gasUsed": {
    "_hex": "0xa410"
  },
  "miner": "0x790b8a3cE86E707ED0eD32bF89B3269692a23CC1",
  "extraData": "0xd783010001844765746887676f312e342e32856c696e7578",
  "transactions": [
    {
      "hash": "0x46a8d3f0606bad818952ee97bf5a0bbf5e7ec9450a24f8b3f66c42242bcef255",
      "blockHash": "0x282f54a18670e1c74ab9f9d0e91a05716fc18ff7bda74f78746e28d5d67d756f",
      "blockNumber": 91193,
      "transactionIndex": 0,
      "confirmations": null,
      "from": "0x79d5794171E11dd5C2f0e26E1C187319db2FE6f7",
      "gasPrice": {
        "_hex": "0xcfcb2e420"
      },
      "gasLimit": {
        "_hex": "0x5208"
      },
      "to": "0x32Be343B94f860124dC4fEe278FDCBD38C102D88",
      "value": {
        "_hex": "0x4563a16cce3c9800"
      },
      "nonce": 31,
      "data": "0x",
      "r": "0xbf932434d421a2b456000bd480bb59225463894e08f1cad6f2872fbda853a5c6",
      "s": "0x01c01793b3b41e6e82b7b94ba3b4a37c05831b3da0772ac245be56f183556671",
      "v": 27,
      "creates": null,
      "raw": "0xf86c1f850cfcb2e4208252089432be343b94f860124dc4fee278fdcbd38c102d88884563a16cce3c9800801ba0bf932434d421a2b456000bd480bb59225463894e08f1cad6f2872fbda853a5c6a001c01793b3b41e6e82b7b94ba3b4a37c05831b3da0772ac245be56f183556671",
      "networkId": 0,
      "chainId": 0
    },
    {
      "hash": "0x7c78cfe312a220381e4c2d364b83eb9dbeb76dc55fb75df8f2413d78d00a0840",
      "blockHash": "0x282f54a18670e1c74ab9f9d0e91a05716fc18ff7bda74f78746e28d5d67d756f",
      "blockNumber": 91193,
      "transactionIndex": 1,
      "confirmations": null,
      "from": "0x972ad000397A3c903299F1353d6d4b85eE4E4e2A",
      "gasPrice": {
        "_hex": "0xcfcb2e420"
      },
      "gasLimit": {
        "_hex": "0x5208"
      },
      "to": "0x32Be343B94f860124dC4fEe278FDCBD38C102D88",
      "value": {
        "_hex": "0xd0268b2e4e27c000"
      },
      "nonce": 11,
      "data": "0x",
      "r": "0xfd99df5bf0d3b29c42cc1c02d6aca56bab55f07adccbeb3ee3f0731631a9bf73",
      "s": "0x44c0a3d61055c27ace891afd880c8828a5f0d139d945eed3563212c4bfb974f8",
      "v": 27,
      "creates": null,
      "raw": "0xf86c0b850cfcb2e4208252089432be343b94f860124dc4fee278fdcbd38c102d8888d0268b2e4e27c000801ba0fd99df5bf0d3b29c42cc1c02d6aca56bab55f07adccbeb3ee3f0731631a9bf73a044c0a3d61055c27ace891afd880c8828a5f0d139d945eed3563212c4bfb974f8",
      "networkId": 0,
      "chainId": 0
    }
  ]
}