{
  "hash": "0x5b595e22f2966f7813856d140ddf19a9f1c67d55bb127c28633129faf2d984b2",
  "parentHash": "0xdc596b9dc8d626565a7bde501fb68552d757a693a45666a1dbeb3b0e9f1a39c7",
  "number": 102771,
  "timestamp": 1439842933,
  "nonce": "0x6e6d1cfc9a266410",
  "difficulty": 4042554003624,
  "gasLimit": {
    "_hex": "0x2fefd8"
  },
  "gasUsed": {
    "_hex": "0x5208"
  },
  "miner": "0x457C428117c1b8507111392d50876A9D548a6D36",
  "extraData": "0x476574682f76312e302e312f6c696e75782f676f312e342e32",
  "transactions": [
    {
      "hash": "0xee6854123990da1c49b1a0b0305f9e8a372e69adb229913cb0ba12ce21885bd8",
      "blockHash": "0x5b595e22f2966f7813856d140ddf19a9f1c67d55bb127c28633129faf2d984b2",
      "blockNumber": 102771,
      "transactionIndex": 0,
      "confirmations": null,
      "from": "0x79B8C67B1298733172AB8A72633499AD67F4A8c9",
      "gasPrice": {
        "_hex": "0xd443d0a08"
      },
      "gasLimit": {
        "_hex": "0x5208"
      },
      "to": "0x32Be343B94f860124dC4fEe278FDCBD38C102D88",
      "value": {
        "_hex": "0x1183ec1de5f33a000"
      },
      "nonce": 2,
      "data": "0x",
      "r": "0x459aba3063e31b9e7a945173925f09fc218b6452bf5db1d3eca27cdb49506fea",
      "s": "0x42eb9aa89ad8fcaf34749db53c5b1c01201dd78724764140c22c791d32408c08",
      "v": 27,
      "creates": null,
      "raw": "0xf86d02850d443d0a088252089432be343b94f860124dc4fee278fdcbd38c102d888901183ec1de5f33a000801ba0459aba3063e31b9e7a945173925f09fc218b6452bf5db1d3eca27cdb49506feaa042eb9aa89ad8fcaf34749db53c5b1c01201dd78724764140c22c791d32408c08",
      "networkId": 0,
      "chainId": 0
    }
  ]
}