{
  "hash": "0x53b5048b237c55007f5eb5e2c05bfd86da0de950f6eb94e57f78577cb54d663f",
  "parentHash": "0x0112d593236c77a103f9931079bb97bf3994b04cca729e16be61188cde985e2d",
  "number": 92993,
  "timestamp": 1439680506,
  "nonce": "0xb5fee9a0d5e5bf26",
  "difficulty": 3645706245913,
  "gasLimit": {
    "_hex": "0x2fefd8"
  },
  "gasUsed": {
    "_hex": "0x5208"
  },
  "miner": "0x1B8F8F8b66B72Dae86da6656622a11Ee08f09285",
  "extraData": "0x476574682f76312e302e312d38326566323666362f6c696e75782f676f312e34",
  "transactions": [
    {
      "hash": "0x1316fc6d8e2bd1bf0f722783755e490fdace50b5bb969d85e04638dc021f419b",
      "blockHash": "0x53b5048b237c55007f5eb5e2c05bfd86da0de950f6eb94e57f78577cb54d663f",
      "blockNumber": 92993,
      "transactionIndex": 0,
      "confirmations": null,
      "from": "0x54dAeb3E8a6BBC797E4aD2b0339f134b186e4637",
      "gasPrice": {
        "_hex": "0xda1c42399"
      },
      "gasLimit": {
        "_hex": "0x5208"
      },
      "to": "0x0F87Fb507513e749081E34373c84E95e85b5c057",
      "value": {
        "_hex": "0xa5c007cce266d"
      },
      "nonce": 975,
      "data": "0x",
      "r": "0x96aa5a299fbfb532bf9b89d6c10bcc5aed146b941adb6ffe58d883372f76cb9e",
      "s": "0x3c5745ec84b5322951e20af3137f4d54a43ffab1b8be7f4894ca50aedd406703",
      "v": 28,
      "creates": null,
      "raw": "0xf86d8203cf850da1c42399825208940f87fb507513e749081e34373c84e95e85b5c057870a5c007cce266d801ca096aa5a299fbfb532bf9b89d6c10bcc5aed146b941adb6ffe58d883372f76cb9ea03c5745ec84b5322951e20af3137f4d54a43ffab1b8be7f4894ca50aedd406703",
      "networkId": 0,
      "chainId": 0
    }
  ]
}