{
  "hash": "0x411a41335637bb3fedaa4de43582659612bad6da50ce6d4da3fa06675bf0a2b4",
  "parentHash": "0x4ae92285180473f113c9ce4aaaa6e8568bbc7be038cc5908cc06ee650fff663e",
  "number": 61066,
  "timestamp": 1439166093,
  "nonce": "0xcb2f7bbfd5a7b71f",
  "difficulty": 1732901977388,
  "gasLimit": {
    "_hex": "0x2fefd8"
  },
  "gasUsed": {
    "_hex": "0x5208"
  },
  "miner": "0xC5624D986419AeBa6B6A7Ce5BAFd9883f75d8bc8",
  "extraData": "0x",
  "transactions": [
    {
      "hash": "0x7b655cad18e4bb431e469febc867f7dd6e197e7ee3f719090de9780c477dae26",
      "blockHash": "0x411a41335637bb3fedaa4de43582659612bad6da50ce6d4da3fa06675bf0a2b4",
      "blockNumber": 61066,
      "transactionIndex": 0,
      "confirmations": null,
      "from": "0xBFdD9820a04283b289957956353b5F3C1F665EcF",
      "gasPrice": {
        "_hex": "0xceb34aaea"
      },
      "gasLimit": {
        "_hex": "0x5208"
      },
      "to": "0x32Be343B94f860124dC4fEe278FDCBD38C102D88",
      "value": {
        "_hex": "0xd026919ebf0a5000"
      },
      "nonce": 10,
      "data": "0x",
      "r": "0x64762b39b670ed2dc33499d87f38379d4d9807143c3a918b07bd2aae2c82eb24",
      "s": "0x251108825adc19516855a7f0529afbc9f7ea889fdc312cb697c17383f87d4ef0",
      "v": 27,
      "creates": null,
      "raw": "0xf86c0a850ceb34aaea8252089432be343b94f860124dc4fee278fdcbd38c102d8888d026919ebf0a5000801ba064762b39b670ed2dc33499d87f38379d4d9807143c3a918b07bd2aae2c82eb24a0251108825adc19516855a7f0529afbc9f7ea889fdc312cb697c17383f87d4ef0",
      "networkId": 0,
      "chainId": 0
    }
  ]
}