{
  "hash": "0xac66208a7b0eceeb8ed418167221984e67a18e47dca2c2733087a76f40d82bd3",
  "parentHash": "0x75a6a8c880d8e54f5c57c55558c7892be6bfd6aa0e0994fe4a06ad76c0267cac",
  "number": 110476,
  "timestamp": 1439974415,
  "nonce": "0x58ff7356f004c980",
  "difficulty": 4377704832929,
  "gasLimit": {
    "_hex": "0x2fefd8"
  },
  "gasUsed": {
    "_hex": "0xf618"
  },
  "miner": "0xe6A7a1d47ff21B6321162AEA7C6CB457D5476Bca",
  "extraData": "0x476574682f76312e302e312d38326566323666362f6c696e75782f676f312e34",
  "transactions": [
    {
      "hash": "0xcf80ce4c7b15fccfa7ce6b9d9c127c7c0cc606e7728efca0d4e6a0c9468049c6",
      "blockHash": "0xac66208a7b0eceeb8ed418167221984e67a18e47dca2c2733087a76f40d82bd3",
      "blockNumber": 110476,
      "transactionIndex": 0,
      "confirmations": null,
      "from": "0x7C197542A77e913547d2E58e8d3c6F224f6f0f98",
      "gasPrice": {
        "_hex": "0xd1c04e96c"
      },
      "gasLimit": {
        "_hex": "0x5208"
      },
      "to": "0x32Be343B94f860124dC4fEe278FDCBD38C102D88",
      "value": {
        "_hex": "0xc0d3f93ba8e3d000"
      },
      "nonce": 4,
      "data": "0x",
      "r": "0x9b609925377af76e63128766976437f8f9944aa99a287d9608a044832fc3a2ac",
      "s": "0x3f124a7c04f6c8ca0271fa8f7eb436571250793ca702169f3042dfe0355a4344",
      "v": 27,
      "creates": null,
      "raw": "0xf86c04850d1c04e96c8252089432be343b94f860124dc4fee278fdcbd38c102d8888c0d3f93ba8e3d000801ba09b609925377af76e63128766976437f8f9944aa99a287d9608a044832fc3a2aca03f124a7c04f6c8ca0271fa8f7eb436571250793ca702169f3042dfe0355a4344",
      "networkId": 0,
      "chainId": 0
    },
    {
      "hash": "0xec798baa3d1f3b4a98d73e95c5edec21700357c3cc6e476e1035ec478f8d1dc9",
      "blockHash": "0xac66208a7b0eceeb8ed418167221984e67a18e47dca2c2733087a76f40d82bd3",
      "blockNumber": 110476,
      "transactionIndex": 1,
      "confirmations": null,
      "from": "0x378fCAEF49580b550cB7164f14811a5E613BD683",
      "gasPrice": {
        "_hex": "0xd1c04e96c"
      },
      "gasLimit": {
        "_hex": "0x5208"
      },
      "to": "0x32Be343B94f860124dC4fEe278FDCBD38C102D88",
      "value": {
        "_hex": "0xdbe5e56ceee26000"
      },
      "nonce": 4,
      "data": "0x",
      "r": "0x87aa77e58628a223b8a0490442c2db1fa94292a881b80de4f1e97e14ec830621",
      "s": "0x76cfb5557485da71762214ac8d7316fb59f8c9c9d63616a999fc0465eee2218d",
      "v": 27,
      "creates": null,
      "raw": "0xf86c04850d1c04e96c8252089432be343b94f860124dc4fee278fdcbd38c102d8888dbe5e56ceee26000801ba087aa77e58628a223b8a0490442c2db1fa94292a881b80de4f1e97e14ec830621a076cfb5557485da71762214ac8d7316fb59f8c9c9d63616a999fc0465eee2218d",
      "networkId": 0,
      "chainId": 0
    },
    {
      "hash": "0x2dfd69e8f0a4c670571b60d81cc70072649b457a486b867c56cadab930a6118c",
      "blockHash": "0xac66208a7b0eceeb8ed418167221984e67a18e47dca2c2733087a76f40d82bd3",
      "blockNumber": 110476,
      "transactionIndex": 2,
      "confirmations": null,
      "from": "0x263D845A19110802000139cbb7a4BBF2B2B8d6C0",
      "gasPrice": {
        "_hex": "0xd1c04e96c"
      },
      "gasLimit": {
        "_hex": "0x5208"
      },
      "to": "0x32Be343B94f860124dC4fEe278FDCBD38C102D88",
      "value": {
        "_hex": "0xb3f3e38dbb2d7000"
      },
      "nonce": 6,
      "data": "0x",
      "r": "0x04b5baa7a0feaaa29879ec70ba35bd0ada54e73e3b741d5cd9086a1a8f9ffe4e",
      "s": "0x7558aed04f7dd73ad12d55c1b67e58c25d3389c1124210d22e22130153be4e30",
      "v": 27,
      "creates": null,
      "raw": "0xf86c06850d1c04e96c8252089432be343b94f860124dc4fee278fdcbd38c102d8888b3f3e38dbb2d7000801ba004b5baa7a0feaaa29879ec70ba35bd0ada54e73e3b741d5cd9086a1a8f9ffe4ea07558aed04f7dd73ad12d55c1b67e58c25d3389c1124210d22e22130153be4e30",
      "networkId": 0,
      "chainId": 0
    }
  ]
}