{
  "hash": "0xfa18cadef3c7b731c6fb0be418df5ff93aaf063829a5ed189ab5d00d9fc64f3c",
  "parentHash": "0xf2fa1334c039a6e6a0d9611ef3cc8eafbbd86d40f35d20704aa69e939a060ee4",
  "number": 113914,
  "timestamp": 1440031854,
  "nonce": "0xaff076bbb088549e",
  "difficulty": 4431818729487,
  "gasLimit": {
    "_hex": "0x2fefd8"
  },
  "gasUsed": {
    "_hex": "0x5208"
  },
  "miner": "0x2134e2a2b718DCa96580ECAC31E653Ea1fdd58DA",
  "extraData": "0x476574682f76312e302e312f77696e646f77732f676f312e342e32",
  "transactions": [
    {
      "hash": "0xe902ae361446cd1f00fe13387e92bbed72736ff93405b5d670c3f68b96e41178",
      "blockHash": "0xfa18cadef3c7b731c6fb0be418df5ff93aaf063829a5ed189ab5d00d9fc64f3c",
      "blockNumber": 113914,
      "transactionIndex": 0,
      "confirmations": null,
      "from": "0xC99478b218E58F45783fA70f0507cf614938E67d",
      "gasPrice": {
        "_hex": "0xd3d37f23a"
      },
      "gasLimit": {
        "_hex": "0x15f90"
      },
      "to": "0xC3fe64D1af00F0d9c324E4387EF7533f7D788e95",
      "value": {
        "_hex": "0x14d1120d7b1600000"
      },
      "nonce": 21,
      "data": "0x",
      "r": "0x552f858a050c401ce9d4b6037d1e1803d7b3788f2410554bdad2a31280116b8b",
      "s": "0x4e07c64e30c9ffa8ace041a827e3348398c113d4ee88a3e639f5bffed509d189",
      "v": 28,
      "creates": null,
      "raw": "0xf86e15850d3d37f23a83015f9094c3fe64d1af00f0d9c324e4387ef7533f7d788e9589014d1120d7b1600000801ca0552f858a050c401ce9d4b6037d1e1803d7b3788f2410554bdad2a31280116b8ba04e07c64e30c9ffa8ace041a827e3348398c113d4ee88a3e639f5bffed509d189",
      "networkId": 0,
      "chainId": 0
    }
  ]
}