{
  "hash": "0xf96a58009de4cdcbe51987760009742ef3dc05bb3e544f44ed61027a1392494b",
  "parentHash": "0x33d5cb4f952adb3c983498b2f3b9dec66a7290caf4a13f5e4b111c18102cae16",
  "number": 46508,
  "timestamp": 1438924276,
  "nonce": "0xc4e0e275d6762a69",
  "difficulty": 1467505664285,
  "gasLimit": {
    "_hex": "0x6589"
  },
  "gasUsed": {
    "_hex": "0x5208"
  },
  "miner": "0x356CEFb4Eb836DC68403308309E075a31DD991D2",
  "extraData": "0x476574682f76312e302e302f6c696e75782f676f312e342e32",
  "transactions": [
    {
      "hash": "0xf11284489d17ab4364f73a5e39e39513cd8d04d44feb48d3469496bfc1ca0571",
      "blockHash": "0xf96a58009de4cdcbe51987760009742ef3dc05bb3e544f44ed61027a1392494b",
      "blockNumber": 46508,
      "transactionIndex": 0,
      "confirmations": null,
      "from": "0xe1F5B8dc9336BC9637eA97c3f3b13Cd363F88854",
      "gasPrice": {
        "_hex": "0x746a528800"
      },
      "gasLimit": {
        "_hex": "0x5208"
      },
      "to": "0x32Be343B94f860124dC4fEe278FDCBD38C102D88",
      "value": {
        "_hex": "0x362ff3c34036920000"
      },
      "nonce": 1,
      "data": "0x",
      "r": "0xb9ded1889694ddeca857fbf1b3e0fddd6a4ae52044afe000db86fec868e7e449",
      "s": "0x636b9dc49c9832863f6a9b9f24a779ca2b7237ab80dce633daf6291d64981c5b",
      "v": 27,
      "creates": null,
      "raw": "0xf86d0185746a5288008252089432be343b94f860124dc4fee278fdcbd38c102d8889362ff3c34036920000801ba0b9ded1889694ddeca857fbf1b3e0fddd6a4ae52044afe000db86fec868e7e449a0636b9dc49c9832863f6a9b9f24a779ca2b7237ab80dce633daf6291d64981c5b",
      "networkId": 0,
      "chainId": 0
    }
  ]
}