{
  "hash": "0x65c262a5ec33dcfaa123b02518a47fb1400d094bb05a5da29497cc1c18097d1b",
  "parentHash": "0xffd7be9287faf1b44de3971823f1e33ad9c9151d4e52f061b67efeafbd2e001a",
  "number": 62953,
  "timestamp": 1439196663,
  "nonce": "0x3466166088f3156e",
  "difficulty": 1791877419109,
  "gasLimit": {
    "_hex": "0x2fefd8"
  },
  "gasUsed": {
    "_hex": "0x5208"
  },
  "miner": "0xf927a40C8B7F6E07c5af7FA2155B4864a4112B13",
  "extraData": "0x476574682f76312e302e312f6c696e75782f676f312e342e32",
  "transactions": [
    {
      "hash": "0x47902cedba1205b5c4549c312db5c616d03f1e67a5ff855e8bddf09029373b2d",
      "blockHash": "0x65c262a5ec33dcfaa123b02518a47fb1400d094bb05a5da29497cc1c18097d1b",
      "blockNumber": 62953,
      "transactionIndex": 0,
      "confirmations": null,
      "from": "0x32Be343B94f860124dC4fEe278FDCBD38C102D88",
      "gasPrice": {
        "_hex": "0xdf9f4138f"
      },
      "gasLimit": {
        "_hex": "0x5208"
      },
      "to": "0x2d3Cf607ADCE246F0750b08eBDC87789edb2a407",
      "value": {
        "_hex": "0xde0b6b3a7640000"
      },
      "nonce": 158,
      "data": "0x",
      "r": "0x53e967a1dcd69cce4afee5429360a4a5cd6bdda049c2d0a9738c5f610b33b3d4",
      "s": "0x21bc5bc7066304aa413c04c26d1cc0da930ad46829eb7008f6c4633d5b0ac607",
      "v": 27,
      "creates": null,
      "raw": "0xf86d819e850df9f4138f825208942d3cf607adce246f0750b08ebdc87789edb2a407880de0b6b3a7640000801ba053e967a1dcd69cce4afee5429360a4a5cd6bdda049c2d0a9738c5f610b33b3d4a021bc5bc7066304aa413c04c26d1cc0da930ad46829eb7008f6c4633d5b0ac607",
      "networkId": 0,
      "chainId": 0
    }
  ]
}