{
  "hash": "0xe26fbb356e54be4fc74ccf43d07424cede22e4784c93dcd3f35106bd8482a972",
  "parentHash": "0x59e091203922a1a4f9cef4920bc72a9d149873e121c803cb0c16df66341446c9",
  "number": 120042,
  "timestamp": 1440153083,
  "nonce": "0x45cacfcb696c6a51",
  "difficulty": 4398412127021,
  "gasLimit": {
    "_hex": "0x2fefd8"
  },
  "gasUsed": {
    "_hex": "0x2a4a"
  },
  "miner": "0x7E6930B63D03e88F5928C5cd6ee3FCee4D714F7F",
  "extraData": "0xd783010003844765746887676f312e342e32856c696e7578",
  "transactions": [
    {
      "hash": "0x9efbf1979b22bad41ae6854a865f32685c9f0c477e4ed326e264996fb4bf304d",
      "blockHash": "0xe26fbb356e54be4fc74ccf43d07424cede22e4784c93dcd3f35106bd8482a972",
      "blockNumber": 120042,
      "transactionIndex": 0,
      "confirmations": null,
      "from": "0x34C57A97dF78772fAc54FF75CeF9590457feE4D9",
      "gasPrice": {
        "_hex": "0xd8a01e6e7"
      },
      "gasLimit": {
        "_hex": "0x15f90"
      },
      "to": "0x3cc6cD0229daf29f60Cc0C24ac0DE3A7d9d431A1",
      "value": {
        "_hex": "0x0"
      },
      "nonce": 13,
      "data": "0x41c0e1b5",
      "r": "0x879b70b5c055f98abeb1c8a498b93737adbd1af18960ad91d06c5cd8cdb594ca",
      "s": "0x6cfa2e6781a97d3859c8c0b037f733ab532a7c67a5d5c4826190959ade9836a6",
      "v": 27,
      "creates": null,
      "raw": "0xf8690d850d8a01e6e783015f90943cc6cd0229daf29f60cc0c24ac0de3a7d9d431a1808441c0e1b51ba0879b70b5c055f98abeb1c8a498b93737adbd1af18960ad91d06c5cd8cdb594caa06cfa2e6781a97d3859c8c0b037f733ab532a7c67a5d5c4826190959ade9836a6",
      "networkId": 0,
      "chainId": 0
    }
  ]
}