{
  "hash": "0x3ed4f107d20f1fc2273f553f6b80c444d90981386e4d6fbf920bd3f097add006",
  "parentHash": "0x1ae9b4bd088f2b55d643ae7b5c9feb1b76f54c3b38da88531bb6b84327d423a9",
  "number": 106648,
  "timestamp": 1439908029,
  "nonce": "0x8d6234461e9806e0",
  "difficulty": 4466084888945,
  "gasLimit": {
    "_hex": "0x2fefd8"
  },
  "gasUsed": {
    "_hex": "0xa410"
  },
  "miner": "0xe6A7a1d47ff21B6321162AEA7C6CB457D5476Bca",
  "extraData": "0x476574682f76312e302e312d38326566323666362f6c696e75782f676f312e34",
  "transactions": [
    {
      "hash": "0xd2c7441406ad7b91e175fe5f087fa9fc3fb8617f1d174f1f1b6611acdc671ace",
      "blockHash": "0x3ed4f107d20f1fc2273f553f6b80c444d90981386e4d6fbf920bd3f097add006",
      "blockNumber": 106648,
      "transactionIndex": 0,
      "confirmations": null,
      "from": "0xFBb1b73C4f0BDa4f67dcA266ce6Ef42f520fBB98",
      "gasPrice": {
        "_hex": "0xdd659a18f"
      },
      "gasLimit": {
        "_hex": "0x5208"
      },
      "to": "0xe81C595000faF9aa9cD5DD53ae4137806d4Ca08E",
      "value": {
        "_hex": "0x16345785d8a0000"
      },
      "nonce": 114,
      "data": "0x",
      "r": "0x463ed5e771cf6eb6aa982f355ee5d573fafbb297a9ebc32924cb40c7f209b3c8",
      "s": "0x277c0dbdd480d472bf22a9306a9a37e0aa069ec50461cd195f696fbf3bf5db4e",
      "v": 27,
      "creates": null,
      "raw": "0xf86c72850dd659a18f82520894e81c595000faf9aa9cd5dd53ae4137806d4ca08e88016345785d8a0000801ba0463ed5e771cf6eb6aa982f355ee5d573fafbb297a9ebc32924cb40c7f209b3c8a0277c0dbdd480d472bf22a9306a9a37e0aa069ec50461cd195f696fbf3bf5db4e",
      "networkId": 0,
      "chainId": 0
    },
    {
      "hash": "0x87e5b8e75b753fa45817f2a9d7f0f3d64a3cccff965c5c7a8e31e4e12c3c79c6",
      "blockHash": "0x3ed4f107d20f1fc2273f553f6b80c444d90981386e4d6fbf920bd3f097add006",
      "blockNumber": 106648,
      "transactionIndex": 1,
      "confirmations": null,
      "from": "0xFBb1b73C4f0BDa4f67dcA266ce6Ef42f520fBB98",
      "gasPrice": {
        "_hex": "0xdd659a18f"
      },
      "gasLimit": {
        "_hex": "0x5208"
      },
      "to": "0x4AC5223Dd6a8E0a7500086541bb69a066De729BF",
      "value": {
        "_hex": "0xdbd2fc137a30000"
      },
      "nonce": 115,
      "data": "0x",
      "r": "0x9c7dd1dc7f5a634837011b0e23ab7a785abd364f252fd53825ff2b96e573f2f1",
      "s": "0x19c37449ec3cfb8781c21e01e49a8ff041401ff1afb721e00d2900ef11060740",
      "v": 28,
      "creates": null,
      "raw": "0xf86c73850dd659a18f825208944ac5223dd6a8e0a7500086541bb69a066de729bf880dbd2fc137a30000801ca09c7dd1dc7f5a634837011b0e23ab7a785abd364f252fd53825ff2b96e573f2f1a019c37449ec3cfb8781c21e01e49a8ff041401ff1afb721e00d2900ef11060740",
      "networkId": 0,
      "chainId": 0
    }
  ]
}