{
  "hash": "0x724a16a5f021268f5595f790aefb01f903ae9dda1653079e417444b8d7b49bcd",
  "parentHash": "0x9ce8a1d29edff2759a69232753c4d0f7ad198e531491704d8b4a2606a9b6d10e",
  "number": 107789,
  "timestamp": 1439928877,
  "nonce": "0x4824851c3d46f1f0",
  "difficulty": 4368429163169,
  "gasLimit": {
    "_hex": "0x2fefd8"
  },
  "gasUsed": {
    "_hex": "0x5208"
  },
  "miner": "0xe6A7a1d47ff21B6321162AEA7C6CB457D5476Bca",
  "extraData": "0x476574682f76312e302e312d38326566323666362f6c696e75782f676f312e34",
  "transactions": [
    {
      "hash": "0x0002e17c85c0987024805a0adc5e82d6fe1faf210a911549b3e54db9ac4e94af",
      "blockHash": "0x724a16a5f021268f5595f790aefb01f903ae9dda1653079e417444b8d7b49bcd",
      "blockNumber": 107789,
      "transactionIndex": 0,
      "confirmations": null,
      "from": "0xa61ff394e3846F8bfbBF8801afb051730B04Ee75",
      "gasPrice": {
        "_hex": "0xd93315f11"
      },
      "gasLimit": {
        "_hex": "0x5208"
      },
      "to": "0x32Be343B94f860124dC4fEe278FDCBD38C102D88",
      "value": {
        "_hex": "0x455f43dfd2ec2800"
      },
      "nonce": 16,
      "data": "0x",
      "r": "0xc17b960278f3a40be0d8b1911b1e7ed21d576ddd1683dc6f1e8b75136257e4ca",
      "s": "0x258a2e0716ec32923a940267f2390b1e1f2bd250dbe4c3b613691818ef0ec524",
      "v": 27,
      "creates": null,
      "raw": "0xf86c10850d93315f118252089432be343b94f860124dc4fee278fdcbd38c102d8888455f43dfd2ec2800801ba0c17b960278f3a40be0d8b1911b1e7ed21d576ddd1683dc6f1e8b75136257e4caa0258a2e0716ec32923a940267f2390b1e1f2bd250dbe4c3b613691818ef0ec524",
      "networkId": 0,
      "chainId": 0
    }
  ]
}