{
  "hash": "0x75dff834ce4655697ab40c2b6d71fae04be132c2bee450d01297f3a28cf29f28",
  "parentHash": "0x4fabc0b4e924aabbf4800d68bea512fd756c15996801f526d26aa03efeb9c3dd",
  "number": 101925,
  "timestamp": 1439830069,
  "nonce": "0xe02a824a728681bf",
  "difficulty": 3910926861131,
  "gasLimit": {
    "_hex": "0x2fefd8"
  },
  "gasUsed": {
    "_hex": "0x5208"
  },
  "miner": "0xe6A7a1d47ff21B6321162AEA7C6CB457D5476Bca",
  "extraData": "0x476574682f76312e302e312d38326566323666362f6c696e75782f676f312e34",
  "transactions": [
    {
      "hash": "0xd53c3188ae5c3d1bf4e8757f039d84000418507bbc549a7f51d35bd6390d30e1",
      "blockHash": "0x75dff834ce4655697ab40c2b6d71fae04be132c2bee450d01297f3a28cf29f28",
      "blockNumber": 101925,
      "transactionIndex": 0,
      "confirmations": null,
      "from": "0xF29a3Dc6237aF30ed75641f05b28D12668F69268",
      "gasPrice": {
        "_hex": "0xd25d596a1"
      },
      "gasLimit": {
        "_hex": "0x5208"
      },
      "to": "0x32Be343B94f860124dC4fEe278FDCBD38C102D88",
      "value": {
        "_hex": "0xddc802b1b565800"
      },
      "nonce": 0,
      "data": "0x",
      "r": "0x106f333118e82aa5bd6707903d61060a5fe731ebebfcd7a18e59e7cd4b896e5e",
      "s": "0x01c52d096357ea1e45cdabf2872f67d3f0b8671c7162b3898f8995f7f27376b1",
      "v": 27,
      "creates": null,
      "raw": "0xf86c80850d25d596a18252089432be343b94f860124dc4fee278fdcbd38c102d88880ddc802b1b565800801ba0106f333118e82aa5bd6707903d61060a5fe731ebebfcd7a18e59e7cd4b896e5ea001c52d096357ea1e45cdabf2872f67d3f0b8671c7162b3898f8995f7f27376b1",
      "networkId": 0,
      "chainId": 0
    }
  ]
}