{
  "hash": "0x7870ce2f8aadb05d4540a055021bab13678bc79bc56ceced48e96534d6533643",
  "parentHash": "0x8363d6e3cf6fe70b363fee07773f96e5991adc297c32bc94682d859831dba818",
  "number": 94084,
  "timestamp": 1439702397,
  "nonce": "0xe9c89f76ef67175a",
  "difficulty": 3473213337155,
  "gasLimit": {
    "_hex": "0x2fefd8"
  },
  "gasUsed": {
    "_hex": "0x5208"
  },
  "miner": "0xe6A7a1d47ff21B6321162AEA7C6CB457D5476Bca",
  "extraData": "0x476574682f76312e302e312d38326566323666362f6c696e75782f676f312e34",
  "transactions": [
    {
      "hash": "0x09a17c033ff0e79a856aaa32a9bd1f0a353df3440a169e367e92dd98ab85e763",
      "blockHash": "0x7870ce2f8aadb05d4540a055021bab13678bc79bc56ceced48e96534d6533643",
      "blockNumber": 94084,
      "transactionIndex": 0,
      "confirmations": null,
      "from": "0x32Be343B94f860124dC4fEe278FDCBD38C102D88",
      "gasPrice": {
        "_hex": "0xd5e2b44f6"
      },
      "gasLimit": {
        "_hex": "0x5208"
      },
      "to": "0x76899c112A85c5a7d27Ff89f1b97112e900aeEBc",
      "value": {
        "_hex": "0xdde7e448067f0000"
      },
      "nonce": 942,
      "data": "0x",
      "r": "0x96a285b3aa0078bdae2fdafab1a948e47865f6d8c465dbfc547dcf833384083e",
      "s": "0x62bf27c7c1a61434b4c490fe9643545f35ecf4a198c050d0ab4cf3982e30ab2b",
      "v": 27,
      "creates": null,
      "raw": "0xf86e8203ae850d5e2b44f68252089476899c112a85c5a7d27ff89f1b97112e900aeebc88dde7e448067f0000801ba096a285b3aa0078bdae2fdafab1a948e47865f6d8c465dbfc547dcf833384083ea062bf27c7c1a61434b4c490fe9643545f35ecf4a198c050d0ab4cf3982e30ab2b",
      "networkId": 0,
      "chainId": 0
    }
  ]
}