{
  "hash": "0x794822633a4abfda99f7ab7bd1d3fc7205f27f2ae36d67b30d6f46d184e98491",
  "parentHash": "0x29a539b4979c3dd0fc7e285ad8504a7124b198ef4fa810ac49f4211776e1adab",
  "number": 74849,
  "timestamp": 1439393478,
  "nonce": "0x273d3531be8243c6",
  "difficulty": 2190203030006,
  "gasLimit": {
    "_hex": "0x2fefd8"
  },
  "gasUsed": {
    "_hex": "0x5208"
  },
  "miner": "0x88D74a59454F6cF3B51ef6b9136AFb6b9D405A88",
  "extraData": "0x476574682f76312e302e312d37666266393930632f6c696e75782f676f312e34",
  "transactions": [
    {
      "hash": "0x0a30ac61c9040b0ae29d54a32e9629606cf65b555b3501599c4a690786c44fce",
      "blockHash": "0x794822633a4abfda99f7ab7bd1d3fc7205f27f2ae36d67b30d6f46d184e98491",
      "blockNumber": 74849,
      "transactionIndex": 0,
      "confirmations": null,
      "from": "0x32Be343B94f860124dC4fEe278FDCBD38C102D88",
      "gasPrice": {
        "_hex": "0xde11a3d1b"
      },
      "gasLimit": {
        "_hex": "0x5208"
      },
      "to": "0x72bb27Cb99f3E2C2CF90A98F707d30E4A201A071",
      "value": {
        "_hex": "0xd718d7717b91f0000"
      },
      "nonce": 330,
      "data": "0x",
      "r": "0xd45511db7efd3e3e8f9f20135ff27fd139f2343133fcca6d3a40d7486b90b374",
      "s": "0x4b52c338e06a641f4d06c204189a7e8cc73136867c14084601d0286db03f5ec8",
      "v": 28,
      "creates": null,
      "raw": "0xf86f82014a850de11a3d1b8252089472bb27cb99f3e2c2cf90a98f707d30e4a201a071890d718d7717b91f0000801ca0d45511db7efd3e3e8f9f20135ff27fd139f2343133fcca6d3a40d7486b90b374a04b52c338e06a641f4d06c204189a7e8cc73136867c14084601d0286db03f5ec8",
      "networkId": 0,
      "chainId": 0
    }
  ]
}