{
  "hash": "0x4b75a4f3dbabe30376e9d99bc647ceafbc13c0ca2290b0323539358609b63720",
  "parentHash": "0xd7b716d31fdb5667c5b703bfdfac087f35ad2974ccb2590159e5baa5bb5cd5c4",
  "number": 60523,
  "timestamp": 1439157192,
  "nonce": "0xc1038f6b877fa2ff",
  "difficulty": 1737250313795,
  "gasLimit": {
    "_hex": "0x2fefd8"
  },
  "gasUsed": {
    "_hex": "0x546c"
  },
  "miner": "0xBb12b5a9B85D4AB8CDE6056E9c1b2a4a337D2261",
  "extraData": "0x476574682f76312e302e312d36393865393864392f6c696e75782f676f312e34",
  "transactions": [
    {
      "hash": "0x01f59d09815bae4e6a9c90290b0e6493e0e3b308defc550ea85c8eb0467ff565",
      "blockHash": "0x4b75a4f3dbabe30376e9d99bc647ceafbc13c0ca2290b0323539358609b63720",
      "blockNumber": 60523,
      "transactionIndex": 0,
      "confirmations": null,
      "from": "0x6dBE8aBFA1742806263981371Bf3D35590806b6E",
      "gasPrice": {
        "_hex": "0x1190ba63d6a"
      },
      "gasLimit": {
        "_hex": "0x61a8"
      },
      "to": "0x2910543Af39abA0Cd09dBb2D50200b3E800A63D2",
      "value": {
        "_hex": "0x4563918244f40000"
      },
      "nonce": 0,
      "data": "0x454e32564e57354d30",
      "r": "0x40afff029d4dc27bbe804d7e1449868ae9e62eea06f02dea5cacf30a90dc8292",
      "s": "0x4ab09e9f495d2ddd1f842439f761b082d017b14dc39f2218d6a432bd1e94271f",
      "v": 27,
      "creates": null,
      "raw": "0xf876808601190ba63d6a8261a8942910543af39aba0cd09dbb2d50200b3e800a63d2884563918244f4000089454e32564e57354d301ba040afff029d4dc27bbe804d7e1449868ae9e62eea06f02dea5cacf30a90dc8292a04ab09e9f495d2ddd1f842439f761b082d017b14dc39f2218d6a432bd1e94271f",
      "networkId": 0,
      "chainId": 0
    }
  ]
}