{
  "hash": "0x47e121b86136666ddcc03cb0e7d2c8a805d03267e469d876f425e1f14e0df950",
  "parentHash": "0x545498a4e6bf761c4ee2d178cbad711e8d3902c9d0600054f865f40f47d3442b",
  "number": 94152,
  "timestamp": 1439703438,
  "nonce": "0x32336943f1d7020b",
  "difficulty": 3476578621949,
  "gasLimit": {
    "_hex": "0x2fefd8"
  },
  "gasUsed": {
    "_hex": "0x5208"
  },
  "miner": "0x88D74a59454F6cF3B51ef6b9136AFb6b9D405A88",
  "extraData": "0x476574682f76312e302e312d37666266393930632f6c696e75782f676f312e34",
  "transactions": [
    {
      "hash": "0xd4241e884558e447c28438aaee53bf990d7406d57dcbf9ac6ef8b6212b867cf2",
      "blockHash": "0x47e121b86136666ddcc03cb0e7d2c8a805d03267e469d876f425e1f14e0df950",
      "blockNumber": 94152,
      "transactionIndex": 0,
      "confirmations": null,
      "from": "0x007f7f58D3eb5b7510A301eCC749FC1fCDDBE14D",
      "gasPrice": {
        "_hex": "0xcd8a77067"
      },
      "gasLimit": {
        "_hex": "0x15f90"
      },
      "to": "0xb1abce2918E21ddb93AA452731a12672A3d9F75a",
      "value": {
        "_hex": "0x4563918244f40000"
      },
      "nonce": 24,
      "data": "0x",
      "r": "0xb6da858e70688f468e426bee3e590120d07f358c11dc17196504db3e0e909468",
      "s": "0x653c62af470d640dc6b2dc10d3147989b4c91f26b5e867d9718eb8111a760f54",
      "v": 27,
      "creates": null,
      "raw": "0xf86d18850cd8a7706783015f9094b1abce2918e21ddb93aa452731a12672a3d9f75a884563918244f40000801ba0b6da858e70688f468e426bee3e590120d07f358c11dc17196504db3e0e909468a0653c62af470d640dc6b2dc10d3147989b4c91f26b5e867d9718eb8111a760f54",
      "networkId": 0,
      "chainId": 0
    }
  ]
}