{
  "hash": "0xf539ec88ff9c76439fc8d8355a79e48ee3fb46219175a4613c90b2a4f58e02aa",
  "parentHash": "0x9673b7be20373238ccf47595c2bd4e20004b3c4bad0986a417bb3ba5351f628d",
  "number": 48872,
  "timestamp": 1438964488,
  "nonce": "0x8207defc4f21f66f",
  "difficulty": 1472834200428,
  "gasLimit": {
    "_hex": "0x20000"
  },
  "gasUsed": {
    "_hex": "0xa8d8"
  },
  "miner": "0xcAF987dC6DAcB89E1e6Eba13265426e7132E15db",
  "extraData": "0x476574682f76312e302e312f6c696e75782f676f312e342e32",
  "transactions": [
    {
      "hash": "0x543d4afbc5e09e50a16b21ade723509c413cc6ebc3714ffb77cadbbffad44baf",
      "blockHash": "0xf539ec88ff9c76439fc8d8355a79e48ee3fb46219175a4613c90b2a4f58e02aa",
      "blockNumber": 48872,
      "transactionIndex": 0,
      "confirmations": null,
      "from": "0x36343AEcA07b6Ed58a0e62FA4eCb498A124fc971",
      "gasPrice": {
        "_hex": "0x110c8f7d8de"
      },
      "gasLimit": {
        "_hex": "0xc350"
      },
      "to": "0x2910543Af39abA0Cd09dBb2D50200b3E800A63D2",
      "value": {
        "_hex": "0xfaaae40cff7e40000"
      },
      "nonce": 1,
      "data": "0x454e34453943323547",
      "r": "0x2aec9e211941a27ce8ae2a9053cefa89a2edc173237e6672445458d23131430a",
      "s": "0x2ca19bc9d056a95bfe1924222ee0f9cb030e29dcba973449d13cb05edc5a3468",
      "v": 28,
      "creates": null,
      "raw": "0xf87701860110c8f7d8de82c350942910543af39aba0cd09dbb2d50200b3e800a63d2890faaae40cff7e4000089454e344539433235471ca02aec9e211941a27ce8ae2a9053cefa89a2edc173237e6672445458d23131430aa02ca19bc9d056a95bfe1924222ee0f9cb030e29dcba973449d13cb05edc5a3468",
      "networkId": 0,
      "chainId": 0
    },
    {
      "hash": "0x0106290adf9cde707ec7131edd8ba496b71749e1129b0586dbfa0a9495b5a029",
      "blockHash": "0xf539ec88ff9c76439fc8d8355a79e48ee3fb46219175a4613c90b2a4f58e02aa",
      "blockNumber": 48872,
      "transactionIndex": 1,
      "confirmations": null,
      "from": "0x431F2C19E316B044a4b3E61A0C6ff8C104a1A12f",
      "gasPrice": {
        "_hex": "0x10dc90d85e7"
      },
      "gasLimit": {
        "_hex": "0x15f90"
      },
      "to": "0x2910543Af39abA0Cd09dBb2D50200b3E800A63D2",
      "value": {
        "_hex": "0x1aff23697ba0880000"
      },
      "nonce": 2,
      "data": "0x454e314338315a4247",
      "r": "0x65b312590d6c76238292be2df80c3bcb304a26499ecbce0dcf101a58921d2ff7",
      "s": "0x27e6137755546eb683f4f283f4f11ce6a4beb6805b6ffc75c5a99112b405719b",
      "v": 28,
      "creates": null,
      "raw": "0xf8780286010dc90d85e783015f90942910543af39aba0cd09dbb2d50200b3e800a63d2891aff23697ba088000089454e314338315a42471ca065b312590d6c76238292be2df80c3bcb304a26499ecbce0dcf101a58921d2ff7a027e6137755546eb683f4f283f4f11ce6a4beb6805b6ffc75c5a99112b405719b",
      "networkId": 0,
      "chainId": 0
    }
  ]
}