{
  "hash": "0xf694fd150610e7a3ab805fc0dc2dcf5660cc00441be0799db66a520e3707e400",
  "parentHash": "0x827abcba48444851d2f896ef8b571d9bc9f71cfe4a603166a2e3dbe00bb56331",
  "number": 54955,
  "timestamp": 1439063105,
  "nonce": "0x2281c257af019d67",
  "difficulty": 1617208816596,
  "gasLimit": {
    "_hex": "0x2fefd8"
  },
  "gasUsed": {
    "_hex": "0x5208"
  },
  "miner": "0x785ffdDd5cE55c6DF963f345e68d3F2024E5Acb1",
  "extraData": "0x476574682f4d69676e6f7474652f76312e302e312f6c696e75782f676f312e34",
  "transactions": [
    {
      "hash": "0x44d1ad0b8e5b0791c33bc6a84e24d6870a0ecfef41085fd64b8b881a24fe72e4",
      "blockHash": "0xf694fd150610e7a3ab805fc0dc2dcf5660cc00441be0799db66a520e3707e400",
      "blockNumber": 54955,
      "transactionIndex": 0,
      "confirmations": null,
      "from": "0x1308A2e95c0160B90803ddCA9B9a5bb55E416d79",
      "gasPrice": {
        "_hex": "0xe8d4a51000"
      },
      "gasLimit": {
        "_hex": "0x15f90"
      },
      "to": "0xfa6Dc2Aa157B2c6b7DcF668f500dfa2441179842",
      "value": {
        "_hex": "0x56bc75e2d63100000"
      },
      "nonce": 25,
      "data": "0x",
      "r": "0xb2fe441c09b3bc9fbc0fd6685ee86ab487ab5c564f8d69cfc94decc55e0b1bb4",
      "s": "0x066fde06d7d1f98a6c277ef6ab87f4acf2ebadad5157b78155b4d0b1d4ae2d16",
      "v": 28,
      "creates": null,
      "raw": "0xf86e1985e8d4a5100083015f9094fa6dc2aa157b2c6b7dcf668f500dfa244117984289056bc75e2d63100000801ca0b2fe441c09b3bc9fbc0fd6685ee86ab487ab5c564f8d69cfc94decc55e0b1bb4a0066fde06d7d1f98a6c277ef6ab87f4acf2ebadad5157b78155b4d0b1d4ae2d16",
      "networkId": 0,
      "chainId": 0
    }
  ]
}