{
  "hash": "0xc2fb5b52dbbd86b91fe4de01c8aec3ef027b4846dbbc99232c4d4c0ef49923ed",
  "parentHash": "0x011b2fc61373ebb9bc964f5a658997608da648529e3ae957385ec21640ed53c3",
  "number": 110174,
  "timestamp": 1439969329,
  "nonce": "0xcc4df88a1222ad1a",
  "difficulty": 4373589268667,
  "gasLimit": {
    "_hex": "0x2fefd8"
  },
  "gasUsed": {
    "_hex": "0x11263"
  },
  "miner": "0xe6A7a1d47ff21B6321162AEA7C6CB457D5476Bca",
  "extraData": "0x476574682f76312e302e312d38326566323666362f6c696e75782f676f312e34",
  "transactions": [
    {
      "hash": "0x91539a8b4a2247eea0eb116fa7986ffb7c89cc7c87f2bc54ab0fe407b0a3ea8e",
      "blockHash": "0xc2fb5b52dbbd86b91fe4de01c8aec3ef027b4846dbbc99232c4d4c0ef49923ed",
      "blockNumber": 110174,
      "transactionIndex": 0,
      "confirmations": null,
      "from": "0x5d4Ee23e18ec9ded020B58e37C2184Ce48Ac5959",
      "gasPrice": {
        "_hex": "0xce28e70d8"
      },
      "gasLimit": {
        "_hex": "0x15f90"
      },
      "to": null,
      "value": {
        "_hex": "0x0"
      },
      "nonce": 5,
      "data": "0x6060604052606d8060116000396000f30060606040526000357c010000000000000000000000000000000000000000000000000000000090048063c6888fa1146037576035565b005b6046600480359060200150605c565b6040518082815260200191505060405180910390f35b60006007820290506068565b91905056",
      "r": "0xe801e1c26e933a8fbd75c04495ab89818c0dc9705ad67b410b1782fd44f80b27",
      "s": "0x156bf6613dfe4fe8560571ee359494423adc73c2af835e743f10fed5bc86f690",
      "v": 27,
      "creates": "0x21CCC283F44A7d22da4E3728e659A29B247030DF",
      "raw": "0xf8d005850ce28e70d883015f908080b87e6060604052606d8060116000396000f30060606040526000357c010000000000000000000000000000000000000000000000000000000090048063c6888fa1146037576035565b005b6046600480359060200150605c565b6040518082815260200191505060405180910390f35b60006007820290506068565b919050561ba0e801e1c26e933a8fbd75c04495ab89818c0dc9705ad67b410b1782fd44f80b27a0156bf6613dfe4fe8560571ee359494423adc73c2af835e743f10fed5bc86f690",
      "networkId": 0,
      "chainId": 0
    },
    {
      "hash": "0x9a4675327f16b3267481dc7c24756c4fc92b7e934f132951e2ea6289151a7b45",
      "blockHash": "0xc2fb5b52dbbd86b91fe4de01c8aec3ef027b4846dbbc99232c4d4c0ef49923ed",
      "blockNumber": 110174,
      "transactionIndex": 1,
      "confirmations": null,
      "from": "0xc597A5d92F5dC1137D847db733cfe02c6d209f13",
      "gasPrice": {
        "_hex": "0xba43b7400"
      },
      "gasLimit": {
        "_hex": "0x15f90"
      },
      "to": "0x1E468676DE2B8bb970A922b5b7090c2973482187",
      "value": {
        "_hex": "0xa296089f153c00"
      },
      "nonce": 48,
      "data": "0x",
      "r": "0x9ae734373947f39e6a5be027cdb128404899895b3a7881531323e89d06308d40",
      "s": "0x1cbb2c8f7e224ea90e5a842122cd1130b328bfc8f4225b7e5c20da200597fa48",
      "v": 28,
      "creates": null,
      "raw": "0xf86c30850ba43b740083015f90941e468676de2b8bb970a922b5b7090c297348218787a296089f153c00801ca09ae734373947f39e6a5be027cdb128404899895b3a7881531323e89d06308d40a01cbb2c8f7e224ea90e5a842122cd1130b328bfc8f4225b7e5c20da200597fa48",
      "networkId": 0,
      "chainId": 0
    }
  ]
}