{
  "hash": "0xb87db414d576309f6cdec4dbc8bd2fe779ebc36c0fc91f2a5297936d81a7bf9f",
  "parentHash": "0xf1fbfcf01db6d82afe25ab87ae2c4f0df1bac7df354af2c5a929a1e21f6d8170",
  "number": 69302,
  "timestamp": 1439301577,
  "nonce": "0x4da83c6af3f75420",
  "difficulty": 2063898980373,
  "gasLimit": {
    "_hex": "0x2fefd5"
  },
  "gasUsed": {
    "_hex": "0x39f83"
  },
  "miner": "0x035052044374B3607Fc995a2460f096a5c5c0184",
  "extraData": "0x",
  "transactions": [
    {
      "hash": "0x2a0c9f8def89ece2c3de2aa701140743c3bdb60f563699165aabae721a3ab83f",
      "blockHash": "0xb87db414d576309f6cdec4dbc8bd2fe779ebc36c0fc91f2a5297936d81a7bf9f",
      "blockNumber": 69302,
      "transactionIndex": 0,
      "confirmations": null,
      "from": "0xe6A7a1d47ff21B6321162AEA7C6CB457D5476Bca",
      "gasPrice": {
        "_hex": "0xd9d91d219"
      },
      "gasLimit": {
        "_hex": "0x55f0"
      },
      "to": "0x0d271b81faBA0B8eD00aC8542D9896B69AAaA0E5",
      "value": {
        "_hex": "0xe8e06fd45579a8c"
      },
      "nonce": 672,
      "data": "0x",
      "r": "0x6ad6885a5cc32f3b5ec0706fa27ca8e160d103390869f84a036b36babe38110d",
      "s": "0x71e6e69bcf544c00d0c5a3fcfaf0674c1b034f1e5c8c684c781d1c0557a20a8d",
      "v": 28,
      "creates": null,
      "raw": "0xf86e8202a0850d9d91d2198255f0940d271b81faba0b8ed00ac8542d9896b69aaaa0e5880e8e06fd45579a8c801ca06ad6885a5cc32f3b5ec0706fa27ca8e160d103390869f84a036b36babe38110da071e6e69bcf544c00d0c5a3fcfaf0674c1b034f1e5c8c684c781d1c0557a20a8d",
      "networkId": 0,
      "chainId": 0
    },
    {
      "hash": "0x97d8278c3237829cda2da303766a733a682ac63b96be58a4672a8d68280a5c4f",
      "blockHash": "0xb87db414d576309f6cdec4dbc8bd2fe779ebc36c0fc91f2a5297936d81a7bf9f",
      "blockNumber": 69302,
      "transactionIndex": 1,
      "confirmations": null,
      "from": "0xe6A7a1d47ff21B6321162AEA7C6CB457D5476Bca",
      "gasPrice": {
        "_hex": "0xd9d91d219"
      },
      "gasLimit": {
        "_hex": "0x55f0"
      },
      "to": "0x2118baa5B9d6423676CF5502Eb6eaeD859228c33",
      "value": {
        "_hex": "0xeec5921dc331da8"
      },
      "nonce": 673,
      "data": "0x",
      "r": "0xac86bd674e64717d67607d233bfce0f4349683d29ab02a472a81e498be2527fb",
      "s": "0x0e6c9cdd98ecbfac016a4274ad55549bddea811eccb07355851a9eeac2c919f1",
      "v": 28,
      "creates": null,
      "raw": "0xf86e8202a1850d9d91d2198255f0942118baa5b9d6423676cf5502eb6eaed859228c33880eec5921dc331da8801ca0ac86bd674e64717d67607d233bfce0f4349683d29ab02a472a81e498be2527fba00e6c9cdd98ecbfac016a4274ad55549bddea811eccb07355851a9eeac2c919f1",
      "networkId": 0,
      "chainId": 0
    },
    {
      "hash": "0xd3c268d216f1682c1477bbc9bab5c51663d0aa95dfff16f53f7b67962f0b31f2",
      "blockHash": "0xb87db414d576309f6cdec4dbc8bd2fe779ebc36c0fc91f2a5297936d81a7bf9f",
      "blockNumber": 69302,
      "transactionIndex": 2,
      "confirmations": null,
      "from": "0xe6A7a1d47ff21B6321162AEA7C6CB457D5476Bca",
      "gasPrice": {
        "_hex": "0xd9d91d219"
      },
      "gasLimit": {
        "_hex": "0x55f0"
      },
      "to": "0xE5cd922132641CF77d8a95dE3F3B335Ee6D54d71",
      "value": {
        "_hex": "0x105f7eb1b8b3a508"
      },
      "nonce": 674,
      "data": "0x",
      "r": "0xba578cd66906dca7cc01cc3f2b50e2de3f228732ec1fb07f86654bfd2d25767f",
      "s": "0x13ad8eb23e22106d551952764824a01dd8c72d5e78c27d3af671c7510c969279",
      "v": 27,
      "creates": null,
      "raw": "0xf86e8202a2850d9d91d2198255f094e5cd922132641cf77d8a95de3f3b335ee6d54d7188105f7eb1b8b3a508801ba0ba578cd66906dca7cc01cc3f2b50e2de3f228732ec1fb07f86654bfd2d25767fa013ad8eb23e22106d551952764824a01dd8c72d5e78c27d3af671c7510c969279",
      "networkId": 0,
      "chainId": 0
    },
    {
      "hash": "0x87302a91650fd52ef69f7f42f60cb3c20e99e753c882f6ba865bf531f16c06d8",
      "blockHash": "0xb87db414d576309f6cdec4dbc8bd2fe779ebc36c0fc91f2a5297936d81a7bf9f",
      "blockNumber": 69302,
      "transactionIndex": 3,
      "confirmations": null,
      "from": "0xe6A7a1d47ff21B6321162AEA7C6CB457D5476Bca",
      "gasPrice": {
        "_hex": "0xd9d91d219"
      },
      "gasLimit": {
        "_hex": "0x55f0"
      },
      "to": "0xa1962d0A7c48886Eaed5B9e12129384281adEb2a",
      "value": {
        "_hex": "0x124090181b2763f0"
      },
      "nonce": 675,
      "data": "0x",
      "r": "0x27c284697cccdb6052eea750da2481dff9b702984f6a465b8f64e7b67cbeb0b4",
      "s": "0x461592ca14585edfea74cc2db1097d4af34f3373d2889d2eae648a5dfa7e8dd3",
      "v": 27,
      "creates": null,
      "raw": "0xf86e8202a3850d9d91d2198255f094a1962d0a7c48886eaed5b9e12129384281adeb2a88124090181b2763f0801ba027c284697cccdb6052eea750da2481dff9b702984f6a465b8f64e7b67cbeb0b4a0461592ca14585edfea74cc2db1097d4af34f3373d2889d2eae648a5dfa7e8dd3",
      "networkId": 0,
      "chainId": 0
    },
    {
      "hash": "0x3b627e484baf29a5114003144c7c321f25816f2e23b3883116b34ac6cd6cd246",
      "blockHash": "0xb87db414d576309f6cdec4dbc8bd2fe779ebc36c0fc91f2a5297936d81a7bf9f",
      "blockNumber": 69302,
      "transactionIndex": 4,
      "confirmations": null,
      "from": "0xe6A7a1d47ff21B6321162AEA7C6CB457D5476Bca",
      "gasPrice": {
        "_hex": "0xd9d91d219"
      },
      "gasLimit": {
        "_hex": "0x55f0"
      },
      "to": "0xdC49b9dc1AbB93Ebb856547a1C0578D65f4A32DE",
      "value": {
        "_hex": "0x2471d414a5114648"
      },
      "nonce": 676,
      "data": "0x",
      "r": "0x12fde4dc175b1b32c0c805faaff8a47b2d2faddadf0b856c9ce8e9814ea80717",
      "s": "0x3aefbd9610fc12ab3ce0e863eea7b03f5210631dbc3717b8bb523819d93297fe",
      "v": 28,
      "creates": null,
      "raw": "0xf86e8202a4850d9d91d2198255f094dc49b9dc1abb93ebb856547a1c0578d65f4a32de882471d414a5114648801ca012fde4dc175b1b32c0c805faaff8a47b2d2faddadf0b856c9ce8e9814ea80717a03aefbd9610fc12ab3ce0e863eea7b03f5210631dbc3717b8bb523819d93297fe",
      "networkId": 0,
      "chainId": 0
    },
    {
      "hash": "0x32b03a510032010bea48be567c05d3bde80b61e4193a8fbc35bccd0a4f39d998",
      "blockHash": "0xb87db414d576309f6cdec4dbc8bd2fe779ebc36c0fc91f2a5297936d81a7bf9f",
      "blockNumber": 69302,
      "transactionIndex": 5,
      "confirmations": null,
      "from": "0xe6A7a1d47ff21B6321162AEA7C6CB457D5476Bca",
      "gasPrice": {
        "_hex": "0xd9d91d219"
      },
      "gasLimit": {
        "_hex": "0x55f0"
      },
      "to": "0x78A5a3e39DB4Cf9824d4DFAbAbcdB36611788C78",
      "value": {
        "_hex": "0x281c44d65936f9a8"
      },
      "nonce": 677,
      "data": "0x",
      "r": "0x1f3ba9bbbbd7067e097cba8d473660220f49061ea818528463a2e9c58b92a0c6",
      "s": "0x15eca467bdb125cc1534076189b4e2e130050e8615029c69b0b4b09aeecea2bb",
      "v": 28,
      "creates": null,
      "raw": "0xf86e8202a5850d9d91d2198255f09478a5a3e39db4cf9824d4dfababcdb36611788c7888281c44d65936f9a8801ca01f3ba9bbbbd7067e097cba8d473660220f49061ea818528463a2e9c58b92a0c6a015eca467bdb125cc1534076189b4e2e130050e8615029c69b0b4b09aeecea2bb",
      "networkId": 0,
      "chainId": 0
    },
    {
      "hash": "0xf4687bcaca66188a4b9f03f8eb085a29af81b24c9bbd6e04cabef596f5c7f74b",
      "blockHash": "0xb87db414d576309f6cdec4dbc8bd2fe779ebc36c0fc91f2a5297936d81a7bf9f",
      "blockNumber": 69302,
      "transactionIndex": 6,
      "confirmations": null,
      "from": "0xe6A7a1d47ff21B6321162AEA7C6CB457D5476Bca",
      "gasPrice": {
        "_hex": "0xd9d91d219"
      },
      "gasLimit": {
        "_hex": "0x55f0"
      },
      "to": "0xaEDBC952F1334C1Bf1bAE3326F3dc9E405235c21",
      "value": {
        "_hex": "0x3012a466218d6210"
      },
      "nonce": 678,
      "data": "0x",
      "r": "0x55a4079ffd29784ab1802176ebce44b2eb7abf37a26fe6cbca508813be727089",
      "s": "0x4796cccb3db786ed99ea8adebdff218fa893ffd83fbcefa2d016e9344b9b5cdd",
      "v": 28,
      "creates": null,
      "raw": "0xf86e8202a6850d9d91d2198255f094aedbc952f1334c1bf1bae3326f3dc9e405235c21883012a466218d6210801ca055a4079ffd29784ab1802176ebce44b2eb7abf37a26fe6cbca508813be727089a04796cccb3db786ed99ea8adebdff218fa893ffd83fbcefa2d016e9344b9b5cdd",
      "networkId": 0,
      "chainId": 0
    },
    {
      "hash": "0x9d43705751c4b7d4bba5fa87df163680500d6d792e1d131ac07d6f2efea066b5",
      "blockHash": "0xb87db414d576309f6cdec4dbc8bd2fe779ebc36c0fc91f2a5297936d81a7bf9f",
      "blockNumber": 69302,
      "transactionIndex": 7,
      "confirmations": null,
      "from": "0xe6A7a1d47ff21B6321162AEA7C6CB457D5476Bca",
      "gasPrice": {
        "_hex": "0xd9d91d219"
      },
      "gasLimit": {
        "_hex": "0x55f0"
      },
      "to": "0x2B15C5211bdA6A867c582080536f6c61766aA5Af",
      "value": {
        "_hex": "0x559ea4940ed4db00"
      },
      "nonce": 679,
      "data": "0x",
      "r": "0xeb552a2636b6eea2d00effafae5e7857c618a1ced1cc6ee7ef8312c13dafe3b7",
      "s": "0x2a367500c1fd9a6b1bbc60564d1311295af3cc6c1c5fe008fe1b5ed07fbfce84",
      "v": 28,
      "creates": null,
      "raw": "0xf86e8202a7850d9d91d2198255f0942b15c5211bda6a867c582080536f6c61766aa5af88559ea4940ed4db00801ca0eb552a2636b6eea2d00effafae5e7857c618a1ced1cc6ee7ef8312c13dafe3b7a02a367500c1fd9a6b1bbc60564d1311295af3cc6c1c5fe008fe1b5ed07fbfce84",
      "networkId": 0,
      "chainId": 0
    },
    {
      "hash": "0x079f49b8ce0c69721e20b0d12e16cbcb051acf407f734aa7d033668eeb76f933",
      "blockHash": "0xb87db414d576309f6cdec4dbc8bd2fe779ebc36c0fc91f2a5297936d81a7bf9f",
      "blockNumber": 69302,
      "transactionIndex": 8,
      "confirmations": null,
      "from": "0xe6A7a1d47ff21B6321162AEA7C6CB457D5476Bca",
      "gasPrice": {
        "_hex": "0xd9d91d219"
      },
      "gasLimit": {
        "_hex": "0x55f0"
      },
      "to": "0xF7e66D2622220807d8696064E94ca24b1dC6e7Da",
      "value": {
        "_hex": "0x1596bce2402d9f0c0"
      },
      "nonce": 680,
      "data": "0x",
      "r": "0x827a61de85eebc5234ebb5fedf7311d22f3a8c5161e61ecc3d773785d2b7c97f",
      "s": "0x76107e7aba1b01b52fab75f35b51ecaf12c90d8b6aebfd7594005c206e725c92",
      "v": 28,
      "creates": null,
      "raw": "0xf86f8202a8850d9d91d2198255f094f7e66d2622220807d8696064e94ca24b1dc6e7da8901596bce2402d9f0c0801ca0827a61de85eebc5234ebb5fedf7311d22f3a8c5161e61ecc3d773785d2b7c97fa076107e7aba1b01b52fab75f35b51ecaf12c90d8b6aebfd7594005c206e725c92",
      "networkId": 0,
      "chainId": 0
    },
    {
      "hash": "0x2959f2876d2ea96d77669fceb9d5d84435411b2ae805e56103d5a8246a2eb578",
      "blockHash": "0xb87db414d576309f6cdec4dbc8bd2fe779ebc36c0fc91f2a5297936d81a7bf9f",
      "blockNumber": 69302,
      "transactionIndex": 9,
      "confirmations": null,
      "from": "0xf8E0CA3Ed80bd541b94BEdCf259e8CF2141A9523",
      "gasPrice": {
        "_hex": "0xd523f1150"
      },
      "gasLimit": {
        "_hex": "0x15f90"
      },
      "to": "0xD5377B8cbCca498A7fc78984898C27A98F982503",
      "value": {
        "_hex": "0x3a013ba2e5a3f80000"
      },
      "nonce": 6,
      "data": "0x454e433933464b3330",
      "r": "0x07e3af4df606a0780d459298bf46cb60c72a9c4c62d63caab3d67253a2383903",
      "s": "0x4614b3e939863a894c6a44a2fdec20f433f873aa041bf596ce6baca7907b9ed7",
      "v": 28,
      "creates": null,
      "raw": "0xf87706850d523f115083015f9094d5377b8cbcca498a7fc78984898c27a98f982503893a013ba2e5a3f8000089454e433933464b33301ca007e3af4df606a0780d459298bf46cb60c72a9c4c62d63caab3d67253a2383903a04614b3e939863a894c6a44a2fdec20f433f873aa041bf596ce6baca7907b9ed7",
      "networkId": 0,
      "chainId": 0
    },
    {
      "hash": "0x06e9892a02ee1c57fde89ee8d67acc75f6f33126681230b9174d78e4386337b0",
      "blockHash": "0xb87db414d576309f6cdec4dbc8bd2fe779ebc36c0fc91f2a5297936d81a7bf9f",
      "blockNumber": 69302,
      "transactionIndex": 10,
      "confirmations": null,
      "from": "0x8bae48F227d978d084B009b775222BAaF61ed9fe",
      "gasPrice": {
        "_hex": "0xba43b7400"
      },
      "gasLimit": {
        "_hex": "0x691a"
      },
      "to": "0xdf373f3Dab2561668e239cA6e43a8c6aaeB3f825",
      "value": {
        "_hex": "0x0"
      },
      "nonce": 13,
      "data": "0x224993c20000000000000000000000000000000000000000000000000000000000015180",
      "r": "0x4d05047d6276ebb768ddea64c3ba91ca99e9b93154bbd4499fe71574e0ae58e9",
      "s": "0x7fb703a4afff7dfc870ded9cf4465a42775c36ebccb0eefbf57f0e90b43cea31",
      "v": 28,
      "creates": null,
      "raw": "0xf8880d850ba43b740082691a94df373f3dab2561668e239ca6e43a8c6aaeb3f82580a4224993c200000000000000000000000000000000000000000000000000000000000151801ca04d05047d6276ebb768ddea64c3ba91ca99e9b93154bbd4499fe71574e0ae58e9a07fb703a4afff7dfc870ded9cf4465a42775c36ebccb0eefbf57f0e90b43cea31",
      "networkId": 0,
      "chainId": 0
    }
  ]
}