{
  "hash": "0x9e1e77f1357cce46c809f8ebdb2ed3e890b28ffcafe41d7f0952dd58d21d6e91",
  "parentHash": "0xc5086a523ef8efa62b7a70dfbf1303812a0bbffaae46eb61a536ed1f75b234c2",
  "number": 60444,
  "timestamp": 1439155836,
  "nonce": "0x7038854429791216",
  "difficulty": 1734723713032,
  "gasLimit": {
    "_hex": "0x2fefd8"
  },
  "gasUsed": {
    "_hex": "0xddfd"
  },
  "miner": "0x6541237dAaFf6688A79f9F2F370Ca0E7Ee20BD33",
  "extraData": "0x476574682f76312e302e312f77696e646f77732f676f312e342e32",
  "transactions": [
    {
      "hash": "0x104724de3289fc3d525c964704336367061116ca6ca48f12b0c526a6c5ad15fa",
      "blockHash": "0x9e1e77f1357cce46c809f8ebdb2ed3e890b28ffcafe41d7f0952dd58d21d6e91",
      "blockNumber": 60444,
      "transactionIndex": 0,
      "confirmations": null,
      "from": "0x5804baCD8DEC367de4137ffaD580997311841369",
      "gasPrice": {
        "_hex": "0xd606428e3"
      },
      "gasLimit": {
        "_hex": "0x7a120"
      },
      "to": "0xA327075af2a223A1C83a36aDa1126afE7430f955",
      "value": {
        "_hex": "0x8ac7230489e80000"
      },
      "nonce": 2,
      "data": "0x",
      "r": "0xca79cc7c4fbbb0aa6dc8dbf8a8dc87b1368d2d7d5ebfb1a1cb1b01aa833c7472",
      "s": "0x7c96405f0d0538a7e366e530b131304f24b2f1bc444f30978909c929c61210fb",
      "v": 28,
      "creates": null,
      "raw": "0xf86d02850d606428e38307a12094a327075af2a223a1c83a36ada1126afe7430f955888ac7230489e80000801ca0ca79cc7c4fbbb0aa6dc8dbf8a8dc87b1368d2d7d5ebfb1a1cb1b01aa833c7472a07c96405f0d0538a7e366e530b131304f24b2f1bc444f30978909c929c61210fb",
      "networkId": 0,
      "chainId": 0
    }
  ]
}