{
  "hash": "0xc288a4dbab6ba8c748eebe62adec7d9e2722b03631d7aaefa7b66d79fcb7f0db",
  "parentHash": "0xf4de007d36e7a166c4864956bac107a00c9f1a3c418d0d8a2bc0fbf35ad55a17",
  "number": 88623,
  "timestamp": 1439610913,
  "nonce": "0xf27f44be1587833b",
  "difficulty": 3234757137743,
  "gasLimit": {
    "_hex": "0x2fefd8"
  },
  "gasUsed": {
    "_hex": "0x5208"
  },
  "miner": "0x790b8a3cE86E707ED0eD32bF89B3269692a23CC1",
  "extraData": "0xd783010001844765746887676f312e342e32856c696e7578",
  "transactions": [
    {
      "hash": "0x34326b0e34bbf47c4ad49d9e19f2486bc203b153626e10febe6af94898af80e5",
      "blockHash": "0xc288a4dbab6ba8c748eebe62adec7d9e2722b03631d7aaefa7b66d79fcb7f0db",
      "blockNumber": 88623,
      "transactionIndex": 0,
      "confirmations": null,
      "from": "0x2910543Af39abA0Cd09dBb2D50200b3E800A63D2",
      "gasPrice": {
        "_hex": "0xdac35eb02"
      },
      "gasLimit": {
        "_hex": "0x5208"
      },
      "to": "0x5a0f0935E8E5591B2f9f2d55f29C626B50292088",
      "value": {
        "_hex": "0xe41c9ef17bfdb8000"
      },
      "nonce": 732,
      "data": "0x",
      "r": "0x6d182f3a072b11754d0faa3df6361f80afdc55e7efb93fbee09cd1ab0c8ccf42",
      "s": "0x3b24066fcc5d809cb75e8f64bcc65e84b1765d97bd4964fc65fa6c961881e9df",
      "v": 28,
      "creates": null,
      "raw": "0xf86f8202dc850dac35eb02825208945a0f0935e8e5591b2f9f2d55f29c626b50292088890e41c9ef17bfdb8000801ca06d182f3a072b11754d0faa3df6361f80afdc55e7efb93fbee09cd1ab0c8ccf42a03b24066fcc5d809cb75e8f64bcc65e84b1765d97bd4964fc65fa6c961881e9df",
      "networkId": 0,
      "chainId": 0
    }
  ]
}