{
  "hash": "0x8536c9b5b589b12693589e0a995b78d029e2222ff5c94b70da0a8d5b553f23ed",
  "parentHash": "0x6e2a31dba0ac0606d4126d835d26dbb8cbd7c0d7f73676ad12510ed7abbc60f5",
  "number": 79415,
  "timestamp": 1439469228,
  "nonce": "0x4b1e7c63b6d19757",
  "difficulty": 2343883848954,
  "gasLimit": {
    "_hex": "0x2fefd8"
  },
  "gasUsed": {
    "_hex": "0x5208"
  },
  "miner": "0x909755D480A27911cB7EeeB5edB918fae50883c0",
  "extraData": "0x476574682f76312e302e312d39383130306634372f6c696e75782f676f312e34",
  "transactions": [
    {
      "hash": "0x65d12972f2b998016c5175f5e124eda1d8b4de90c246effd3aa3de7e17a32e27",
      "blockHash": "0x8536c9b5b589b12693589e0a995b78d029e2222ff5c94b70da0a8d5b553f23ed",
      "blockNumber": 79415,
      "transactionIndex": 0,
      "confirmations": null,
      "from": "0x32Be343B94f860124dC4fEe278FDCBD38C102D88",
      "gasPrice": {
        "_hex": "0xd98028c81"
      },
      "gasLimit": {
        "_hex": "0x5208"
      },
      "to": "0xb2169f1326FE9745321aD99563654089bAdf09eb",
      "value": {
        "_hex": "0x2b5e3af16b1880000"
      },
      "nonce": 421,
      "data": "0x",
      "r": "0x2aa89ae883f43d1044b55b75ecf1f0974c7dbd84ebf052b088fa07826167aaf6",
      "s": "0x0f7a6613087aaa77a07c3a6f0ceed8bc7c4c34e659a5906ca95fcfa3528df309",
      "v": 28,
      "creates": null,
      "raw": "0xf86f8201a5850d98028c8182520894b2169f1326fe9745321ad99563654089badf09eb8902b5e3af16b1880000801ca02aa89ae883f43d1044b55b75ecf1f0974c7dbd84ebf052b088fa07826167aaf6a00f7a6613087aaa77a07c3a6f0ceed8bc7c4c34e659a5906ca95fcfa3528df309",
      "networkId": 0,
      "chainId": 0
    }
  ]
}