{
  "hash": "0x6c1fe4d4a80aca2241b555a7b2f464de8e83c3db15e28fef346f93b44387f743",
  "parentHash": "0xa87c2aa1683e3fb0cb2ce2c304fd44cfe7441bedcacabe68f3e696a5e00544c9",
  "number": 47484,
  "timestamp": 1438941355,
  "nonce": "0x11fe1f1ee5c948b9",
  "difficulty": 1445997428801,
  "gasLimit": {
    "_hex": "0xc490"
  },
  "gasUsed": {
    "_hex": "0x5208"
  },
  "miner": "0xe6A7a1d47ff21B6321162AEA7C6CB457D5476Bca",
  "extraData": "0x657468706f6f6c2e6f7267",
  "transactions": [
    {
      "hash": "0xc4d2bc2a8e98bb45136e5905f21ddb24ec29a6b34073578648f8f4ca4e1757a9",
      "blockHash": "0x6c1fe4d4a80aca2241b555a7b2f464de8e83c3db15e28fef346f93b44387f743",
      "blockNumber": 47484,
      "transactionIndex": 0,
      "confirmations": null,
      "from": "0x4019b21f3dB1F288414aC180f3Ea63315B12a7aC",
      "gasPrice": {
        "_hex": "0x2086811bee"
      },
      "gasLimit": {
        "_hex": "0x5208"
      },
      "to": "0x32Be343B94f860124dC4fEe278FDCBD38C102D88",
      "value": {
        "_hex": "0xa2a1529d374de80000"
      },
      "nonce": 3,
      "data": "0x",
      "r": "0x8e9ac0f164fd6edd280be0f7746919ca12a94a3467b474013f446aeeaba72e0a",
      "s": "0x759f1ae9cae7028574a22e1eb8303688c328efba62181c9ececba504ee9a68cd",
      "v": 27,
      "creates": null,
      "raw": "0xf86d03852086811bee8252089432be343b94f860124dc4fee278fdcbd38c102d8889a2a1529d374de80000801ba08e9ac0f164fd6edd280be0f7746919ca12a94a3467b474013f446aeeaba72e0aa0759f1ae9cae7028574a22e1eb8303688c328efba62181c9ececba504ee9a68cd",
      "networkId": 0,
      "chainId": 0
    }
  ]
}