{
  "hash": "0xac477920f3faebb3181ac352fb6083993eb2e9380fa74c376f24b1e028409660",
  "parentHash": "0x5e28bf1b6f6f340e5a0218008edeff4762232546b6af2b044c9b76589a60a1bc",
  "number": 57195,
  "timestamp": 1439099195,
  "nonce": "0x6c5da105260b155a",
  "difficulty": 1729474317329,
  "gasLimit": {
    "_hex": "0x2fefd5"
  },
  "gasUsed": {
    "_hex": "0xa410"
  },
  "miner": "0x01d9DA08cc6Fb97c0DE1B6F4C28910A0859Ed1A1",
  "extraData": "0x476574682f76312e302e312f6c696e75782f676f312e342e32",
  "transactions": [
    {
      "hash": "0xf5759661980ebff3a608aad9db7de2854803add5f210879a4c05e7b2972bb5c4",
      "blockHash": "0xac477920f3faebb3181ac352fb6083993eb2e9380fa74c376f24b1e028409660",
      "blockNumber": 57195,
      "transactionIndex": 0,
      "confirmations": null,
      "from": "0x3041445a33Ba158741160d9c344eB88E5c306F94",
      "gasPrice": {
        "_hex": "0x746a528800"
      },
      "gasLimit": {
        "_hex": "0x5208"
      },
      "to": "0x3e24D2A72282bE2807BB9e0B9e6D75ed7776e4fb",
      "value": {
        "_hex": "0x340858469794bc000"
      },
      "nonce": 0,
      "data": "0x",
      "r": "0x2ef7d07ff6f237d78e7ad0eede55918c502893a2a2cb2b2ae8fbe79a9ebd32a3",
      "s": "0x9ee5b6b70d60b4a358bb5de6a1b7b8b3b068d71da2ddb6992edb865373c84641",
      "v": 27,
      "creates": null,
      "raw": "0xf86d8085746a528800825208943e24d2a72282be2807bb9e0b9e6d75ed7776e4fb890340858469794bc000801ba02ef7d07ff6f237d78e7ad0eede55918c502893a2a2cb2b2ae8fbe79a9ebd32a3a09ee5b6b70d60b4a358bb5de6a1b7b8b3b068d71da2ddb6992edb865373c84641",
      "networkId": 0,
      "chainId": 0
    },
    {
      "hash": "0xc4b4151811a180e458e3c49306ce66c482eb4921de8150c27ce102413e20ec78",
      "blockHash": "0xac477920f3faebb3181ac352fb6083993eb2e9380fa74c376f24b1e028409660",
      "blockNumber": 57195,
      "transactionIndex": 1,
      "confirmations": null,
      "from": "0x28EE9f11DB43ea073BccB423AF9bbb6fb77fFC09",
      "gasPrice": {
        "_hex": "0xd8f4a76d9"
      },
      "gasLimit": {
        "_hex": "0x5208"
      },
      "to": "0x32Be343B94f860124dC4fEe278FDCBD38C102D88",
      "value": {
        "_hex": "0x309239efa6944a000"
      },
      "nonce": 2,
      "data": "0x",
      "r": "0x2cbaa31c457618a4ac0714b1fd74cd1ec93e2b01a311301f0b0f01118325dc87",
      "s": "0x29fd149f15c1d342cb340fa1e1dfda90b822bb08ec5e61089cf7869252e3cbb0",
      "v": 28,
      "creates": null,
      "raw": "0xf86d02850d8f4a76d98252089432be343b94f860124dc4fee278fdcbd38c102d88890309239efa6944a000801ca02cbaa31c457618a4ac0714b1fd74cd1ec93e2b01a311301f0b0f01118325dc87a029fd149f15c1d342cb340fa1e1dfda90b822bb08ec5e61089cf7869252e3cbb0",
      "networkId": 0,
      "chainId": 0
    }
  ]
}