{
  "hash": "0x5901653def6412070bcb6c3e08e6d1ebaf1cc36e6077800e5cf39a32cadf095a",
  "parentHash": "0x18e4799f7ebc3170a746269ca1b67d751847bf6d67131ae3ec8b2a93254ee6d6",
  "number": 88374,
  "timestamp": 1439607109,
  "nonce": "0xbb25983298924e6c",
  "difficulty": 3204981090735,
  "gasLimit": {
    "_hex": "0x2fefd8"
  },
  "gasUsed": {
    "_hex": "0xc472"
  },
  "miner": "0xe6A7a1d47ff21B6321162AEA7C6CB457D5476Bca",
  "extraData": "0x476574682f76312e302e312d38326566323666362f6c696e75782f676f312e34",
  "transactions": [
    {
      "hash": "0x7b6fabcf8ea16cb48a0abef2a083ec6cfe0092ee31c9cc619358503da2475412",
      "blockHash": "0x5901653def6412070bcb6c3e08e6d1ebaf1cc36e6077800e5cf39a32cadf095a",
      "blockNumber": 88374,
      "transactionIndex": 0,
      "confirmations": null,
      "from": "0xf2Ae859397af92154241eAd0aC7c4ce3bea76E8F",
      "gasPrice": {
        "_hex": "0xcbff113bd"
      },
      "gasLimit": {
        "_hex": "0x15f90"
      },
      "to": "0xF4a44aDDDb8D2b0d3e54016E9AC07359B6be9446",
      "value": {
        "_hex": "0x0"
      },
      "nonce": 20,
      "data": "0x90b98a11000000000000000000000000c2b34a73703b5274e7b7ec06f35895ba696bac3f00000000000000000000000000000000000000000000000000000000000003e8",
      "r": "0x4ff259ef721df1b9ff4b05a9fec9980f2cda3871e6274f4f67ba93abcb20055b",
      "s": "0x2915b4a8d9961ed625e144d825d2cb72c2579fc28acafed6f5bc30b61422f46f",
      "v": 28,
      "creates": null,
      "raw": "0xf8aa14850cbff113bd83015f9094f4a44adddb8d2b0d3e54016e9ac07359b6be944680b84490b98a11000000000000000000000000c2b34a73703b5274e7b7ec06f35895ba696bac3f00000000000000000000000000000000000000000000000000000000000003e81ca04ff259ef721df1b9ff4b05a9fec9980f2cda3871e6274f4f67ba93abcb20055ba02915b4a8d9961ed625e144d825d2cb72c2579fc28acafed6f5bc30b61422f46f",
      "networkId": 0,
      "chainId": 0
    }
  ]
}