{
  "hash": "0x8b14234e802eddb355a52c5c6a1d0c2deed059c9f27d8a7f4614cffae9aa97f3",
  "parentHash": "0x1c2c9afd92f7841f81374cbd56845c8249985597ffa56ccf0226b9ee0db3227f",
  "number": 49552,
  "timestamp": 1438975249,
  "nonce": "0x238388fd9e76d914",
  "difficulty": 1479923389518,
  "gasLimit": {
    "_hex": "0x350ee"
  },
  "gasUsed": {
    "_hex": "0x546c"
  },
  "miner": "0xC49418429e58989172a4ACE0bab0cB8D3F00F97f",
  "extraData": "0x476574682f76312e302e312f6c696e75782f676f312e342e32",
  "transactions": [
    {
      "hash": "0x3af10152df9847251c932673945b587551a08fa5c4d329dbfe2230aaaa6a7c51",
      "blockHash": "0x8b14234e802eddb355a52c5c6a1d0c2deed059c9f27d8a7f4614cffae9aa97f3",
      "blockNumber": 49552,
      "transactionIndex": 0,
      "confirmations": null,
      "from": "0xF1DF55dcc34a051012B575cB968BC9C458EA09C9",
      "gasPrice": {
        "_hex": "0x110c8f7d8de"
      },
      "gasLimit": {
        "_hex": "0xc350"
      },
      "to": "0x2910543Af39abA0Cd09dBb2D50200b3E800A63D2",
      "value": {
        "_hex": "0x3635c9adc5dea00000"
      },
      "nonce": 0,
      "data": "0x454e37335938305530",
      "r": "0x93095590056e2527075d21057472b129e6c411f20f3f99cb819dec72b21e4b56",
      "s": "0xd89e9a4d44263513c38def52dd2fe0ff693b9dc635fc3de2ab910dda99e4a3f1",
      "v": 27,
      "creates": null,
      "raw": "0xf87780860110c8f7d8de82c350942910543af39aba0cd09dbb2d50200b3e800a63d2893635c9adc5dea0000089454e373359383055301ba093095590056e2527075d21057472b129e6c411f20f3f99cb819dec72b21e4b56a0d89e9a4d44263513c38def52dd2fe0ff693b9dc635fc3de2ab910dda99e4a3f1",
      "networkId": 0,
      "chainId": 0
    }
  ]
}