{
  "hash": "0x9a00ccf1f13adb6ca397da199f71497c0831c96c1b45828f1ef200bd1ae93292",
  "parentHash": "0xc4f297664c60837fbbbc7488ef81f5ea802244aa18b72276759c5d8caa035499",
  "number": 68513,
  "timestamp": 1439289228,
  "nonce": "0xf0cf5f68e488e432",
  "difficulty": 2003520334125,
  "gasLimit": {
    "_hex": "0x2fefd8"
  },
  "gasUsed": {
    "_hex": "0x12ea94"
  },
  "miner": "0xf927a40C8B7F6E07c5af7FA2155B4864a4112B13",
  "extraData": "0x",
  "transactions": [
    {
      "hash": "0x80ed531ae85f331f9561a5acef6ee2a0926ca5841d3f2d0e3f350431a295b9de",
      "blockHash": "0x9a00ccf1f13adb6ca397da199f71497c0831c96c1b45828f1ef200bd1ae93292",
      "blockNumber": 68513,
      "transactionIndex": 0,
      "confirmations": null,
      "from": "0x8961C9C9F9721021e63f9D4fAF987B0DdA50fe72",
      "gasPrice": {
        "_hex": "0xba43b7400"
      },
      "gasLimit": {
        "_hex": "0x15f90"
      },
      "to": "0x793AE8C1b1a160BFc07BFB0d04F85eab1A71F4f2",
      "value": {
        "_hex": "0x0"
      },
      "nonce": 0,
      "data": "0x3ba15036",
      "r": "0x4f1c0bd4454b009fc38eeb6c1c204108cc6a739296bd1c7279d662df18ba51bc",
      "s": "0x14c5b95c28ae509532607baccab58dadd0a630a6e0e5197e08d3716ea547f492",
      "v": 27,
      "creates": null,
      "raw": "0xf86980850ba43b740083015f9094793ae8c1b1a160bfc07bfb0d04f85eab1a71f4f280843ba150361ba04f1c0bd4454b009fc38eeb6c1c204108cc6a739296bd1c7279d662df18ba51bca014c5b95c28ae509532607baccab58dadd0a630a6e0e5197e08d3716ea547f492",
      "networkId": 0,
      "chainId": 0
    },
    {
      "hash": "0x11d3613752c3052b66453c14e55e1b9fe06b15d0db6821df757f501be72c9c32",
      "blockHash": "0x9a00ccf1f13adb6ca397da199f71497c0831c96c1b45828f1ef200bd1ae93292",
      "blockNumber": 68513,
      "transactionIndex": 1,
      "confirmations": null,
      "from": "0xb00961b542D43044B2cA6684ffa7F98Bc1567414",
      "gasPrice": {
        "_hex": "0xba43b7400"
      },
      "gasLimit": {
        "_hex": "0x15f90"
      },
      "to": "0x793AE8C1b1a160BFc07BFB0d04F85eab1A71F4f2",
      "value": {
        "_hex": "0x0"
      },
      "nonce": 0,
      "data": "0x3ba15036",
      "r": "0x59d37fbfe3a9374a51f0ddbdb7309652f07edf641ce5c12746d61c8d39e0ce59",
      "s": "0x1df1303a9f2771462b0cd028f499f3f103806ec1878003aadff7038e230cbc94",
      "v": 28,
      "creates": null,
      "raw": "0xf86980850ba43b740083015f9094793ae8c1b1a160bfc07bfb0d04f85eab1a71f4f280843ba150361ca059d37fbfe3a9374a51f0ddbdb7309652f07edf641ce5c12746d61c8d39e0ce59a01df1303a9f2771462b0cd028f499f3f103806ec1878003aadff7038e230cbc94",
      "networkId": 0,
      "chainId": 0
    },
    {
      "hash": "0x94f929062fe239800def57aa85c7f7bc999edaabcbbba1df29be1e2a0ae75ecb",
      "blockHash": "0x9a00ccf1f13adb6ca397da199f71497c0831c96c1b45828f1ef200bd1ae93292",
      "blockNumber": 68513,
      "transactionIndex": 2,
      "confirmations": null,
      "from": "0xD846Ed89f81ecBE6B8737d000728c34b353a47c1",
      "gasPrice": {
        "_hex": "0xba43b7400"
      },
      "gasLimit": {
        "_hex": "0x15f90"
      },
      "to": "0x793AE8C1b1a160BFc07BFB0d04F85eab1A71F4f2",
      "value": {
        "_hex": "0x0"
      },
      "nonce": 0,
      "data": "0x3ba15036",
      "r": "0x3a5bf85c484942541bcd6a5f92482a37d185fc39ffdf81e74aa08b406c9e69bd",
      "s": "0x2b2bbbec550002d0f0460673271c467875279e9091413ba7508225fba1ec920a",
      "v": 27,
      "creates": null,
      "raw": "0xf86980850ba43b740083015f9094793ae8c1b1a160bfc07bfb0d04f85eab1a71f4f280843ba150361ba03a5bf85c484942541bcd6a5f92482a37d185fc39ffdf81e74aa08b406c9e69bda02b2bbbec550002d0f0460673271c467875279e9091413ba7508225fba1ec920a",
      "networkId": 0,
      "chainId": 0
    },
    {
      "hash": "0xa216bca7238dedfe6c6481063f39937816050f95d9ce17d5fb83b30ce60b0682",
      "blockHash": "0x9a00ccf1f13adb6ca397da199f71497c0831c96c1b45828f1ef200bd1ae93292",
      "blockNumber": 68513,
      "transactionIndex": 3,
      "confirmations": null,
      "from": "0x72a9926161dB29FdC56D84d05b85C3ba0F68E647",
      "gasPrice": {
        "_hex": "0xba43b7400"
      },
      "gasLimit": {
        "_hex": "0x15f90"
      },
      "to": "0x793AE8C1b1a160BFc07BFB0d04F85eab1A71F4f2",
      "value": {
        "_hex": "0x0"
      },
      "nonce": 0,
      "data": "0x3ba15036",
      "r": "0x0570a94633d2a00d8b0bca95843b31969dfa54a54345aeb26428cd454ed2ae8d",
      "s": "0x70b5602b4679fc90c7bc7eb5fbea2b0ca8eb28ccf1f27bcdeb98f3d6eb9e8fbd",
      "v": 28,
      "creates": null,
      "raw": "0xf86980850ba43b740083015f9094793ae8c1b1a160bfc07bfb0d04f85eab1a71f4f280843ba150361ca00570a94633d2a00d8b0bca95843b31969dfa54a54345aeb26428cd454ed2ae8da070b5602b4679fc90c7bc7eb5fbea2b0ca8eb28ccf1f27bcdeb98f3d6eb9e8fbd",
      "networkId": 0,
      "chainId": 0
    },
    {
      "hash": "0x8d6252e93209c378df02446e01c4876eeb3e6e69a2a00b46459b131b1fc75368",
      "blockHash": "0x9a00ccf1f13adb6ca397da199f71497c0831c96c1b45828f1ef200bd1ae93292",
      "blockNumber": 68513,
      "transactionIndex": 4,
      "confirmations": null,
      "from": "0x240faA729706e51F8FB23ae71bd1D0518e1084ff",
      "gasPrice": {
        "_hex": "0xba43b7400"
      },
      "gasLimit": {
        "_hex": "0x15f90"
      },
      "to": "0x793AE8C1b1a160BFc07BFB0d04F85eab1A71F4f2",
      "value": {
        "_hex": "0x0"
      },
      "nonce": 0,
      "data": "0x3ba15036",
      "r": "0x8ac5dc0ae202e6e9b2084b217436f66650943e93b7c9d81135586c565532f79a",
      "s": "0x347bc149871810d53bec82b83cfeed736e74e4efc0e41e02215b2ff85919bc2e",
      "v": 28,
      "creates": null,
      "raw": "0xf86980850ba43b740083015f9094793ae8c1b1a160bfc07bfb0d04f85eab1a71f4f280843ba150361ca08ac5dc0ae202e6e9b2084b217436f66650943e93b7c9d81135586c565532f79aa0347bc149871810d53bec82b83cfeed736e74e4efc0e41e02215b2ff85919bc2e",
      "networkId": 0,
      "chainId": 0
    },
    {
      "hash": "0x8a76ea49285090630a79737b55b87131dd1e42f3e6e54ef4ce8a01895b537a0a",
      "blockHash": "0x9a00ccf1f13adb6ca397da199f71497c0831c96c1b45828f1ef200bd1ae93292",
      "blockNumber": 68513,
      "transactionIndex": 5,
      "confirmations": null,
      "from": "0x423346353B42642c1bb5A0A9b1c3e3f95A6f252b",
      "gasPrice": {
        "_hex": "0xba43b7400"
      },
      "gasLimit": {
        "_hex": "0x15f90"
      },
      "to": "0x793AE8C1b1a160BFc07BFB0d04F85eab1A71F4f2",
      "value": {
        "_hex": "0x0"
      },
      "nonce": 0,
      "data": "0x3ba15036",
      "r": "0x78cfa89c691a96d40a8b82bcb69b8fdd3658e67e8609d51ec52241458b595efa",
      "s": "0x4e515c35ef85c95d2fe39d8aeb0cdf8a718fe4c0717ca7a1494721e663a133fa",
      "v": 28,
      "creates": null,
      "raw": "0xf86980850ba43b740083015f9094793ae8c1b1a160bfc07bfb0d04f85eab1a71f4f280843ba150361ca078cfa89c691a96d40a8b82bcb69b8fdd3658e67e8609d51ec52241458b595efaa04e515c35ef85c95d2fe39d8aeb0cdf8a718fe4c0717ca7a1494721e663a133fa",
      "networkId": 0,
      "chainId": 0
    },
    {
      "hash": "0xad4b0965f16947ceecab7b097644913814fb2e0e46e4dee27750cf4c0943fc7a",
      "blockHash": "0x9a00ccf1f13adb6ca397da199f71497c0831c96c1b45828f1ef200bd1ae93292",
      "blockNumber": 68513,
      "transactionIndex": 6,
      "confirmations": null,
      "from": "0xC087DE3D27F4F84A877695C08f93cAa7e23EDb81",
      "gasPrice": {
        "_hex": "0xba43b7400"
      },
      "gasLimit": {
        "_hex": "0x15f90"
      },
      "to": "0x793AE8C1b1a160BFc07BFB0d04F85eab1A71F4f2",
      "value": {
        "_hex": "0x0"
      },
      "nonce": 0,
      "data": "0x3ba15036",
      "r": "0x7aaa461ece55a1da2d0c3a0949f7e7bcce6734d32f1d3d36578ac083679fbcfb",
      "s": "0x78a4a312d2038a33a6948430f38c7c255044e3d1b18acbb52cf0308df24e2329",
      "v": 28,
      "creates": null,
      "raw": "0xf86980850ba43b740083015f9094793ae8c1b1a160bfc07bfb0d04f85eab1a71f4f280843ba150361ca07aaa461ece55a1da2d0c3a0949f7e7bcce6734d32f1d3d36578ac083679fbcfba078a4a312d2038a33a6948430f38c7c255044e3d1b18acbb52cf0308df24e2329",
      "networkId": 0,
      "chainId": 0
    },
    {
      "hash": "0x52f056ddeef26640359f2554aa286a07ce03ec4c6e6689bd60bf74ba7e5835f4",
      "blockHash": "0x9a00ccf1f13adb6ca397da199f71497c0831c96c1b45828f1ef200bd1ae93292",
      "blockNumber": 68513,
      "transactionIndex": 7,
      "confirmations": null,
      "from": "0x6747f922385c9a6F9cfDf095F34345257DD597bE",
      "gasPrice": {
        "_hex": "0xba43b7400"
      },
      "gasLimit": {
        "_hex": "0x5208"
      },
      "to": "0x73A29A4Dde2A7D6Fc31e80BFC5333DeF2ceA1F00",
      "value": {
        "_hex": "0x1fcbfa42bd6000"
      },
      "nonce": 119,
      "data": "0x",
      "r": "0x301f518fa70252fa1bd33930fdaeee7c48432478dfdb3be948d6f23ad1da70d2",
      "s": "0x55863e0b2dcff519dbc05d352f220b429e1d70d90b1680a0eb84e349ac9c65a2",
      "v": 27,
      "creates": null,
      "raw": "0xf86b77850ba43b74008252089473a29a4dde2a7d6fc31e80bfc5333def2cea1f00871fcbfa42bd6000801ba0301f518fa70252fa1bd33930fdaeee7c48432478dfdb3be948d6f23ad1da70d2a055863e0b2dcff519dbc05d352f220b429e1d70d90b1680a0eb84e349ac9c65a2",
      "networkId": 0,
      "chainId": 0
    },
    {
      "hash": "0x2fc8fd0ac06eaf3fa81fb3e140eed997709c810b53b86fd8fb8721b032475e4a",
      "blockHash": "0x9a00ccf1f13adb6ca397da199f71497c0831c96c1b45828f1ef200bd1ae93292",
      "blockNumber": 68513,
      "transactionIndex": 8,
      "confirmations": null,
      "from": "0xB261a44AFfA63f1DDD1d584Ab1ACCC0471D361a4",
      "gasPrice": {
        "_hex": "0xba43b7400"
      },
      "gasLimit": {
        "_hex": "0x15f90"
      },
      "to": "0x793AE8C1b1a160BFc07BFB0d04F85eab1A71F4f2",
      "value": {
        "_hex": "0x0"
      },
      "nonce": 0,
      "data": "0x3ba15036",
      "r": "0x439ee45ca3fb1ecca798e7e56ba4e351d8bd83d7380841cf8a9ac8c1449be88c",
      "s": "0x7b0b05b18fafcdcc0617fbfaa9d7a45a6c179ce65f441d9dcb571298f579a2d3",
      "v": 28,
      "creates": null,
      "raw": "0xf86980850ba43b740083015f9094793ae8c1b1a160bfc07bfb0d04f85eab1a71f4f280843ba150361ca0439ee45ca3fb1ecca798e7e56ba4e351d8bd83d7380841cf8a9ac8c1449be88ca07b0b05b18fafcdcc0617fbfaa9d7a45a6c179ce65f441d9dcb571298f579a2d3",
      "networkId": 0,
      "chainId": 0
    },
    {
      "hash": "0x90210f6e8c0032a92d3f31ca03bce592ebc0c001cad71f14821bd10eaebba1f7",
      "blockHash": "0x9a00ccf1f13adb6ca397da199f71497c0831c96c1b45828f1ef200bd1ae93292",
      "blockNumber": 68513,
      "transactionIndex": 9,
      "confirmations": null,
      "from": "0x809516C8A73B83bF351e9e1F7466D17c7144bDb8",
      "gasPrice": {
        "_hex": "0xba43b7400"
      },
      "gasLimit": {
        "_hex": "0x15f90"
      },
      "to": "0x793AE8C1b1a160BFc07BFB0d04F85eab1A71F4f2",
      "value": {
        "_hex": "0x0"
      },
      "nonce": 0,
      "data": "0x3ba15036",
      "r": "0x128cb74ec3300487c6e8740edc179f58950214205cf7ebbf1d461da81c7a7e29",
      "s": "0x26dae4de40c0763ed5b1bb004a176733e348b1c8b965771cf78c4710bb313bfc",
      "v": 28,
      "creates": null,
      "raw": "0xf86980850ba43b740083015f9094793ae8c1b1a160bfc07bfb0d04f85eab1a71f4f280843ba150361ca0128cb74ec3300487c6e8740edc179f58950214205cf7ebbf1d461da81c7a7e29a026dae4de40c0763ed5b1bb004a176733e348b1c8b965771cf78c4710bb313bfc",
      "networkId": 0,
      "chainId": 0
    },
    {
      "hash": "0x87fdf30f7362912831bcaa69eff41452c4be9a19c13b107e96060480d3e5f765",
      "blockHash": "0x9a00ccf1f13adb6ca397da199f71497c0831c96c1b45828f1ef200bd1ae93292",
      "blockNumber": 68513,
      "transactionIndex": 10,
      "confirmations": null,
      "from": "0x75F094909B1A18dD04AD35b9252f13b296721A0D",
      "gasPrice": {
        "_hex": "0xba43b7400"
      },
      "gasLimit": {
        "_hex": "0x15f90"
      },
      "to": "0x793AE8C1b1a160BFc07BFB0d04F85eab1A71F4f2",
      "value": {
        "_hex": "0x0"
      },
      "nonce": 0,
      "data": "0x3ba15036",
      "r": "0xc32e3646dc20d7d6b7153407e2d70152c52c0a59176ac8977d2fb2a92c7fb9d8",
      "s": "0x7d65d7ea12d29146b9a213c6d5075b8b6c85340d23c696e7900d37e6a1040a51",
      "v": 28,
      "creates": null,
      "raw": "0xf86980850ba43b740083015f9094793ae8c1b1a160bfc07bfb0d04f85eab1a71f4f280843ba150361ca0c32e3646dc20d7d6b7153407e2d70152c52c0a59176ac8977d2fb2a92c7fb9d8a07d65d7ea12d29146b9a213c6d5075b8b6c85340d23c696e7900d37e6a1040a51",
      "networkId": 0,
      "chainId": 0
    },
    {
      "hash": "0x6c98220435cca8e7aba3e232f3d37282ff0ca77afdfb730b5365d618e2865b3e",
      "blockHash": "0x9a00ccf1f13adb6ca397da199f71497c0831c96c1b45828f1ef200bd1ae93292",
      "blockNumber": 68513,
      "transactionIndex": 11,
      "confirmations": null,
      "from": "0x544B0036689DB83D9671850D97e08273803D940c",
      "gasPrice": {
        "_hex": "0xba43b7400"
      },
      "gasLimit": {
        "_hex": "0x15f90"
      },
      "to": "0x793AE8C1b1a160BFc07BFB0d04F85eab1A71F4f2",
      "value": {
        "_hex": "0x0"
      },
      "nonce": 0,
      "data": "0x3ba15036",
      "r": "0x874f9edf4ca8908c8eba9c6e5475c253a445986e878d74737ad271957b426fb5",
      "s": "0x74444d2c0698927523af9932b7e6a16340ef91a7cb5fea53fca22a7e23360466",
      "v": 28,
      "creates": null,
      "raw": "0xf86980850ba43b740083015f9094793ae8c1b1a160bfc07bfb0d04f85eab1a71f4f280843ba150361ca0874f9edf4ca8908c8eba9c6e5475c253a445986e878d74737ad271957b426fb5a074444d2c0698927523af9932b7e6a16340ef91a7cb5fea53fca22a7e23360466",
      "networkId": 0,
      "chainId": 0
    },
    {
      "hash": "0x998e2690173f3b480abdee48008b8dae2b06da36b817cea870ccd65c611488a2",
      "blockHash": "0x9a00ccf1f13adb6ca397da199f71497c0831c96c1b45828f1ef200bd1ae93292",
      "blockNumber": 68513,
      "transactionIndex": 12,
      "confirmations": null,
      "from": "0x359EB2519b6004dcE410ebE2d99f538F92597aD0",
      "gasPrice": {
        "_hex": "0xba43b7400"
      },
      "gasLimit": {
        "_hex": "0x15f90"
      },
      "to": "0x793AE8C1b1a160BFc07BFB0d04F85eab1A71F4f2",
      "value": {
        "_hex": "0x0"
      },
      "nonce": 0,
      "data": "0x3ba15036",
      "r": "0xecc5953878239f8ba79ad665d7ad64e0290f59229cf0c5d52de95380d5f9df7c",
      "s": "0x58fe8db70765990847be2cf40470114c76422f25ceca6442ba6f6d4806b100d5",
      "v": 28,
      "creates": null,
      "raw": "0xf86980850ba43b740083015f9094793ae8c1b1a160bfc07bfb0d04f85eab1a71f4f280843ba150361ca0ecc5953878239f8ba79ad665d7ad64e0290f59229cf0c5d52de95380d5f9df7ca058fe8db70765990847be2cf40470114c76422f25ceca6442ba6f6d4806b100d5",
      "networkId": 0,
      "chainId": 0
    },
    {
      "hash": "0xa04ed685945ac5b795e26459e7f18a5473f0e5a0cddcc7e527227e784f9d754d",
      "blockHash": "0x9a00ccf1f13adb6ca397da199f71497c0831c96c1b45828f1ef200bd1ae93292",
      "blockNumber": 68513,
      "transactionIndex": 13,
      "confirmations": null,
      "from": "0x9E5af72b1d1FB6bDD9A3fD873CF6b425777b3667",
      "gasPrice": {
        "_hex": "0xba43b7400"
      },
      "gasLimit": {
        "_hex": "0x15f90"
      },
      "to": "0x793AE8C1b1a160BFc07BFB0d04F85eab1A71F4f2",
      "value": {
        "_hex": "0x0"
      },
      "nonce": 0,
      "data": "0x3ba15036",
      "r": "0x61a22c805a877b3aabe5f23d19c57e680927c9e0173d26d98249e2fc17f7dd5d",
      "s": "0x048056d36210b40808986de723a66ba0bea4fd5336cc63459b2caee18bce15fc",
      "v": 28,
      "creates": null,
      "raw": "0xf86980850ba43b740083015f9094793ae8c1b1a160bfc07bfb0d04f85eab1a71f4f280843ba150361ca061a22c805a877b3aabe5f23d19c57e680927c9e0173d26d98249e2fc17f7dd5da0048056d36210b40808986de723a66ba0bea4fd5336cc63459b2caee18bce15fc",
      "networkId": 0,
      "chainId": 0
    },
    {
      "hash": "0xa50bb3c220334466a6fd2b0a144bafb1f123fed96728ee6adb406936c70e7f83",
      "blockHash": "0x9a00ccf1f13adb6ca397da199f71497c0831c96c1b45828f1ef200bd1ae93292",
      "blockNumber": 68513,
      "transactionIndex": 14,
      "confirmations": null,
      "from": "0x62aC65597bbc75C1f17777479424da1fB9120440",
      "gasPrice": {
        "_hex": "0xba43b7400"
      },
      "gasLimit": {
        "_hex": "0x15f90"
      },
      "to": "0x793AE8C1b1a160BFc07BFB0d04F85eab1A71F4f2",
      "value": {
        "_hex": "0x0"
      },
      "nonce": 0,
      "data": "0x3ba15036",
      "r": "0xf36b84f066004e0866bc36183e3b602a52f92f5a4a4d950551633549fed14132",
      "s": "0x3162ea57b6b7c8c81087fa06bbb1009cbed95284c38aa85aef47c03b6d17fed3",
      "v": 27,
      "creates": null,
      "raw": "0xf86980850ba43b740083015f9094793ae8c1b1a160bfc07bfb0d04f85eab1a71f4f280843ba150361ba0f36b84f066004e0866bc36183e3b602a52f92f5a4a4d950551633549fed14132a03162ea57b6b7c8c81087fa06bbb1009cbed95284c38aa85aef47c03b6d17fed3",
      "networkId": 0,
      "chainId": 0
    },
    {
      "hash": "0x200880072e48ca521853fdf9aaf59a23f8bd12973444decce7b99eaae5fb305a",
      "blockHash": "0x9a00ccf1f13adb6ca397da199f71497c0831c96c1b45828f1ef200bd1ae93292",
      "blockNumber": 68513,
      "transactionIndex": 15,
      "confirmations": null,
      "from": "0x4F4c754135f52216b5328c89f378b916D865b560",
      "gasPrice": {
        "_hex": "0xba43b7400"
      },
      "gasLimit": {
        "_hex": "0x15f90"
      },
      "to": "0x793AE8C1b1a160BFc07BFB0d04F85eab1A71F4f2",
      "value": {
        "_hex": "0x0"
      },
      "nonce": 0,
      "data": "0x3ba15036",
      "r": "0x02a5a0381f121248370ce11cf5b0dd1988de63ff38d938bb0fa8c7f8e9cd15f4",
      "s": "0x6569f89eb41056a45222ac77ea4187cec5b7cb0209c66d8bea8b166993ced833",
      "v": 27,
      "creates": null,
      "raw": "0xf86980850ba43b740083015f9094793ae8c1b1a160bfc07bfb0d04f85eab1a71f4f280843ba150361ba002a5a0381f121248370ce11cf5b0dd1988de63ff38d938bb0fa8c7f8e9cd15f4a06569f89eb41056a45222ac77ea4187cec5b7cb0209c66d8bea8b166993ced833",
      "networkId": 0,
      "chainId": 0
    },
    {
      "hash": "0xba175933bee9dca16267bb70ade51857e014e63e301b522a9ce35883e09e004d",
      "blockHash": "0x9a00ccf1f13adb6ca397da199f71497c0831c96c1b45828f1ef200bd1ae93292",
      "blockNumber": 68513,
      "transactionIndex": 16,
      "confirmations": null,
      "from": "0x79FdBE3686295554a1fd9dEB5E7608e79ad73695",
      "gasPrice": {
        "_hex": "0xba43b7400"
      },
      "gasLimit": {
        "_hex": "0x15f90"
      },
      "to": "0x793AE8C1b1a160BFc07BFB0d04F85eab1A71F4f2",
      "value": {
        "_hex": "0x0"
      },
      "nonce": 0,
      "data": "0x3ba15036",
      "r": "0xbef9e37542021049dbc9ecd9b6409cf61661f8995caad57b33025f4cd684b606",
      "s": "0x3082b28d164a9ed4f0b3fa41c4701d1f5f2918ae2d637883d744ca9d95bb795d",
      "v": 28,
      "creates": null,
      "raw": "0xf86980850ba43b740083015f9094793ae8c1b1a160bfc07bfb0d04f85eab1a71f4f280843ba150361ca0bef9e37542021049dbc9ecd9b6409cf61661f8995caad57b33025f4cd684b606a03082b28d164a9ed4f0b3fa41c4701d1f5f2918ae2d637883d744ca9d95bb795d",
      "networkId": 0,
      "chainId": 0
    },
    {
      "hash": "0xfd60c45685a20465261b475868b9e461e84e7e5dbc61c29a37d02080c0c5d230",
      "blockHash": "0x9a00ccf1f13adb6ca397da199f71497c0831c96c1b45828f1ef200bd1ae93292",
      "blockNumber": 68513,
      "transactionIndex": 17,
      "confirmations": null,
      "from": "0x6B675e1101Fc0B1483A6B4645a6f9c75dDc82d5e",
      "gasPrice": {
        "_hex": "0xba43b7400"
      },
      "gasLimit": {
        "_hex": "0x15f90"
      },
      "to": "0x793AE8C1b1a160BFc07BFB0d04F85eab1A71F4f2",
      "value": {
        "_hex": "0x0"
      },
      "nonce": 0,
      "data": "0x3ba15036",
      "r": "0xed5b352875b1530e151c9166e6d70705c637eb506fdd0a90c5057db857403afa",
      "s": "0x7723ed8cf963f0caa5ff7abb1ac8a9ac84da48369175674a24d6db1612872f46",
      "v": 27,
      "creates": null,
      "raw": "0xf86980850ba43b740083015f9094793ae8c1b1a160bfc07bfb0d04f85eab1a71f4f280843ba150361ba0ed5b352875b1530e151c9166e6d70705c637eb506fdd0a90c5057db857403afaa07723ed8cf963f0caa5ff7abb1ac8a9ac84da48369175674a24d6db1612872f46",
      "networkId": 0,
      "chainId": 0
    },
    {
      "hash": "0xfba75c609ea2a4a7dbc82b7f106ce56ea067d2370e2765b0b0c6f93a708e582a",
      "blockHash": "0x9a00ccf1f13adb6ca397da199f71497c0831c96c1b45828f1ef200bd1ae93292",
      "blockNumber": 68513,
      "transactionIndex": 18,
      "confirmations": null,
      "from": "0x94DBc0615a05D32F698ce4FC90ee1Ec61bceF8Df",
      "gasPrice": {
        "_hex": "0xba43b7400"
      },
      "gasLimit": {
        "_hex": "0x15f90"
      },
      "to": "0x793AE8C1b1a160BFc07BFB0d04F85eab1A71F4f2",
      "value": {
        "_hex": "0x0"
      },
      "nonce": 0,
      "data": "0x3ba15036",
      "r": "0x817726619b844434efb695d2e351b1d44270be33d27ec075e6a532d55af23d49",
      "s": "0x3d6a3d910a263b068a8653effff4eb86f15bdb0c427e856ae881c235572e08ff",
      "v": 27,
      "creates": null,
      "raw": "0xf86980850ba43b740083015f9094793ae8c1b1a160bfc07bfb0d04f85eab1a71f4f280843ba150361ba0817726619b844434efb695d2e351b1d44270be33d27ec075e6a532d55af23d49a03d6a3d910a263b068a8653effff4eb86f15bdb0c427e856ae881c235572e08ff",
      "networkId": 0,
      "chainId": 0
    },
    {
      "hash": "0x9f6b7e98f9384232ef91580a43a32ecd2a400775690f32b12af405612d556a55",
      "blockHash": "0x9a00ccf1f13adb6ca397da199f71497c0831c96c1b45828f1ef200bd1ae93292",
      "blockNumber": 68513,
      "transactionIndex": 19,
      "confirmations": null,
      "from": "0x3Da4225Ad67e0E5729fF1beaa10BB6e41DDF31F7",
      "gasPrice": {
        "_hex": "0xba43b7400"
      },
      "gasLimit": {
        "_hex": "0x15f90"
      },
      "to": "0x793AE8C1b1a160BFc07BFB0d04F85eab1A71F4f2",
      "value": {
        "_hex": "0x0"
      },
      "nonce": 0,
      "data": "0x3ba15036",
      "r": "0x925423152d31d714fe3767add742bbba6dbd28f5631e75ed0a8bcd1104fea4c5",
      "s": "0x415d1efa112a6da0b7d44d434d19eae2ee3a072989a1a4a47490c0ac2e547388",
      "v": 28,
      "creates": null,
      "raw": "0xf86980850ba43b740083015f9094793ae8c1b1a160bfc07bfb0d04f85eab1a71f4f280843ba150361ca0925423152d31d714fe3767add742bbba6dbd28f5631e75ed0a8bcd1104fea4c5a0415d1efa112a6da0b7d44d434d19eae2ee3a072989a1a4a47490c0ac2e547388",
      "networkId": 0,
      "chainId": 0
    },
    {
      "hash": "0x66398ac187007fa794f4d121df8fe02266933c45f089cfd15f1d4998ff5d788e",
      "blockHash": "0x9a00ccf1f13adb6ca397da199f71497c0831c96c1b45828f1ef200bd1ae93292",
      "blockNumber": 68513,
      "transactionIndex": 20,
      "confirmations": null,
      "from": "0x2D223fF6643f9E6DE2906d7171C539D20453c48C",
      "gasPrice": {
        "_hex": "0xba43b7400"
      },
      "gasLimit": {
        "_hex": "0x15f90"
      },
      "to": "0x793AE8C1b1a160BFc07BFB0d04F85eab1A71F4f2",
      "value": {
        "_hex": "0x0"
      },
      "nonce": 0,
      "data": "0x3ba15036",
      "r": "0x188e5a7bc06a442e7eaf50835718db788ff3a9f63d5c635d59b91c9989d58fe7",
      "s": "0x2c8a8d2b83a0b2c4673ac077616b3dd7cf43b90fba19b27c0bb6a9fafc254e5d",
      "v": 27,
      "creates": null,
      "raw": "0xf86980850ba43b740083015f9094793ae8c1b1a160bfc07bfb0d04f85eab1a71f4f280843ba150361ba0188e5a7bc06a442e7eaf50835718db788ff3a9f63d5c635d59b91c9989d58fe7a02c8a8d2b83a0b2c4673ac077616b3dd7cf43b90fba19b27c0bb6a9fafc254e5d",
      "networkId": 0,
      "chainId": 0
    },
    {
      "hash": "0xcc223e69a7ed9efae70401949976f9f309908c15874f882a3bcfaec4e49913ee",
      "blockHash": "0x9a00ccf1f13adb6ca397da199f71497c0831c96c1b45828f1ef200bd1ae93292",
      "blockNumber": 68513,
      "transactionIndex": 21,
      "confirmations": null,
      "from": "0x0f474a5205155404aAc37D04494e5129224AD117",
      "gasPrice": {
        "_hex": "0xba43b7400"
      },
      "gasLimit": {
        "_hex": "0x15f90"
      },
      "to": "0x793AE8C1b1a160BFc07BFB0d04F85eab1A71F4f2",
      "value": {
        "_hex": "0x0"
      },
      "nonce": 0,
      "data": "0x3ba15036",
      "r": "0x0d032377ec9d1a55890db83b27e3ebf4a78ce080a57877584f8deec4c4886149",
      "s": "0x49c296216e0644de291a382be2c2c39f3436cf53345fb131d9fde4ae1fe47195",
      "v": 28,
      "creates": null,
      "raw": "0xf86980850ba43b740083015f9094793ae8c1b1a160bfc07bfb0d04f85eab1a71f4f280843ba150361ca00d032377ec9d1a55890db83b27e3ebf4a78ce080a57877584f8deec4c4886149a049c296216e0644de291a382be2c2c39f3436cf53345fb131d9fde4ae1fe47195",
      "networkId": 0,
      "chainId": 0
    },
    {
      "hash": "0xf0efc4c2b099b7c51e0c3b6eca145f5f037128699d328abd86d2d9b4eb0b073e",
      "blockHash": "0x9a00ccf1f13adb6ca397da199f71497c0831c96c1b45828f1ef200bd1ae93292",
      "blockNumber": 68513,
      "transactionIndex": 22,
      "confirmations": null,
      "from": "0xBEDCE6B61c7D6dD8D782F23385a67D6F1f15A847",
      "gasPrice": {
        "_hex": "0xba43b7400"
      },
      "gasLimit": {
        "_hex": "0x15f90"
      },
      "to": "0x793AE8C1b1a160BFc07BFB0d04F85eab1A71F4f2",
      "value": {
        "_hex": "0x0"
      },
      "nonce": 0,
      "data": "0x3ba15036",
      "r": "0xdb35ebb3ab988340b7bcec689275d6a7d7daaf2963ae462ad5c3bb082528fb42",
      "s": "0x7440e910928c8bf7f639d19c1cb82e3c3f1aa675010a5a22b72186a4e37cd1b7",
      "v": 28,
      "creates": null,
      "raw": "0xf86980850ba43b740083015f9094793ae8c1b1a160bfc07bfb0d04f85eab1a71f4f280843ba150361ca0db35ebb3ab988340b7bcec689275d6a7d7daaf2963ae462ad5c3bb082528fb42a07440e910928c8bf7f639d19c1cb82e3c3f1aa675010a5a22b72186a4e37cd1b7",
      "networkId": 0,
      "chainId": 0
    },
    {
      "hash": "0x1e0e55c855ce782b77eef265880e8fae3810bf1b32344c942dc286b0fd3ab4a3",
      "blockHash": "0x9a00ccf1f13adb6ca397da199f71497c0831c96c1b45828f1ef200bd1ae93292",
      "blockNumber": 68513,
      "transactionIndex": 23,
      "confirmations": null,
      "from": "0x58AD03a6C82170e75390aB68D238A88edE98a068",
      "gasPrice": {
        "_hex": "0xba43b7400"
      },
      "gasLimit": {
        "_hex": "0x15f90"
      },
      "to": "0x793AE8C1b1a160BFc07BFB0d04F85eab1A71F4f2",
      "value": {
        "_hex": "0x0"
      },
      "nonce": 0,
      "data": "0x3ba15036",
      "r": "0x6933763a0d32e31a61ce6afb7f1a61e332780dc0b6381ea0c7878c29f8857fdb",
      "s": "0x22df2b8d2fda9f5c534ee851dc64c1ac1fd9d9173231c7d9123649280a765998",
      "v": 27,
      "creates": null,
      "raw": "0xf86980850ba43b740083015f9094793ae8c1b1a160bfc07bfb0d04f85eab1a71f4f280843ba150361ba06933763a0d32e31a61ce6afb7f1a61e332780dc0b6381ea0c7878c29f8857fdba022df2b8d2fda9f5c534ee851dc64c1ac1fd9d9173231c7d9123649280a765998",
      "networkId": 0,
      "chainId": 0
    },
    {
      "hash": "0x6d512915e1e726b8a5e2adab39ebbd23932b85350331bc4b0f4f8ef3b9bef743",
      "blockHash": "0x9a00ccf1f13adb6ca397da199f71497c0831c96c1b45828f1ef200bd1ae93292",
      "blockNumber": 68513,
      "transactionIndex": 24,
      "confirmations": null,
      "from": "0x8F1C0Dd1d8D230F7557B63967586EAC9f139dCEe",
      "gasPrice": {
        "_hex": "0xba43b7400"
      },
      "gasLimit": {
        "_hex": "0x15f90"
      },
      "to": "0x793AE8C1b1a160BFc07BFB0d04F85eab1A71F4f2",
      "value": {
        "_hex": "0x0"
      },
      "nonce": 0,
      "data": "0x3ba15036",
      "r": "0x4fd7db40eed9d1ccf4ab1099a1e9c2e26f6494b1465dd3a03b2b1c9df6f0d20a",
      "s": "0x0c700d4d04c3c5f40f0bb8ce153ba841af6c0a9e664f912ac27694bdf2381c5f",
      "v": 27,
      "creates": null,
      "raw": "0xf86980850ba43b740083015f9094793ae8c1b1a160bfc07bfb0d04f85eab1a71f4f280843ba150361ba04fd7db40eed9d1ccf4ab1099a1e9c2e26f6494b1465dd3a03b2b1c9df6f0d20aa00c700d4d04c3c5f40f0bb8ce153ba841af6c0a9e664f912ac27694bdf2381c5f",
      "networkId": 0,
      "chainId": 0
    },
    {
      "hash": "0xa3243f2196093150bbb9827ffe1ff95f1348992f1a3c31fcb426f98e8b89d806",
      "blockHash": "0x9a00ccf1f13adb6ca397da199f71497c0831c96c1b45828f1ef200bd1ae93292",
      "blockNumber": 68513,
      "transactionIndex": 25,
      "confirmations": null,
      "from": "0xC7861BF8C367f012123a9976BcC312F1a412E9bB",
      "gasPrice": {
        "_hex": "0xba43b7400"
      },
      "gasLimit": {
        "_hex": "0x15f90"
      },
      "to": "0x793AE8C1b1a160BFc07BFB0d04F85eab1A71F4f2",
      "value": {
        "_hex": "0x0"
      },
      "nonce": 0,
      "data": "0x3ba15036",
      "r": "0x5d95a5cc35ef73353421b8f4e6706536f440d868bc9ed2eb0455366cf41cc340",
      "s": "0x2d448b3affe718e19bfd0409910d6ff21390dead9286c50a8b6f147123cd9871",
      "v": 28,
      "creates": null,
      "raw": "0xf86980850ba43b740083015f9094793ae8c1b1a160bfc07bfb0d04f85eab1a71f4f280843ba150361ca05d95a5cc35ef73353421b8f4e6706536f440d868bc9ed2eb0455366cf41cc340a02d448b3affe718e19bfd0409910d6ff21390dead9286c50a8b6f147123cd9871",
      "networkId": 0,
      "chainId": 0
    }
  ]
}