{
  "hash": "0x9435610beb40fdc94691de5e6926b408bf85abaf63f5a559ed01de5ab88a8c32",
  "parentHash": "0xce73f2c101bc8be8a81563e7217e7e066b3d88b9d7d1723343bdbd2df87abb9b",
  "number": 108187,
  "timestamp": 1439935825,
  "nonce": "0xdefd98e70447d0b0",
  "difficulty": 4363958146846,
  "gasLimit": {
    "_hex": "0x2fefd8"
  },
  "gasUsed": {
    "_hex": "0x11098"
  },
  "miner": "0xe6A7a1d47ff21B6321162AEA7C6CB457D5476Bca",
  "extraData": "0x476574682f76312e302e312d38326566323666362f6c696e75782f676f312e34",
  "transactions": [
    {
      "hash": "0x5d1ff7a42f7f60166d627b5f2189190239d8b71f1664f0b67e605ce8e4f49a9a",
      "blockHash": "0x9435610beb40fdc94691de5e6926b408bf85abaf63f5a559ed01de5ab88a8c32",
      "blockNumber": 108187,
      "transactionIndex": 0,
      "confirmations": null,
      "from": "0xFBb1b73C4f0BDa4f67dcA266ce6Ef42f520fBB98",
      "gasPrice": {
        "_hex": "0xd45c77f54"
      },
      "gasLimit": {
        "_hex": "0x5208"
      },
      "to": "0xC7711C2ed62c75340909Fdf6bf3BF0CA3e1Be850",
      "value": {
        "_hex": "0x1156abf16a40f0000"
      },
      "nonce": 142,
      "data": "0x",
      "r": "0x47d617766e81a80903fea46647af6810844d8c0acfe1f8a000f4d95a7a72e3e6",
      "s": "0x22a8ec034ac52254005f63776a47f373ab7944c869139430671b2340601c1f82",
      "v": 28,
      "creates": null,
      "raw": "0xf86e818e850d45c77f5482520894c7711c2ed62c75340909fdf6bf3bf0ca3e1be8508901156abf16a40f0000801ca047d617766e81a80903fea46647af6810844d8c0acfe1f8a000f4d95a7a72e3e6a022a8ec034ac52254005f63776a47f373ab7944c869139430671b2340601c1f82",
      "networkId": 0,
      "chainId": 0
    },
    {
      "hash": "0xfee67be933b7b7338722dcc5aecf82a7b8b1381e2993eb4f1a7e6bb8a9b369e6",
      "blockHash": "0x9435610beb40fdc94691de5e6926b408bf85abaf63f5a559ed01de5ab88a8c32",
      "blockNumber": 108187,
      "transactionIndex": 1,
      "confirmations": null,
      "from": "0xFBb1b73C4f0BDa4f67dcA266ce6Ef42f520fBB98",
      "gasPrice": {
        "_hex": "0xd45c77f54"
      },
      "gasLimit": {
        "_hex": "0x5208"
      },
      "to": "0x95aC27Ac0ab7B97CA9A05f935A3478b70002D213",
      "value": {
        "_hex": "0x16345785d8a0000"
      },
      "nonce": 143,
      "data": "0x",
      "r": "0x4bfe62733c5ed2c5344dcd26b73e0451cc58ba99151978044c4860726d78a422",
      "s": "0x06e99cf96d550f5445a7dc39dad956bfc1d5b27028734926fee21fc759240110",
      "v": 28,
      "creates": null,
      "raw": "0xf86d818f850d45c77f548252089495ac27ac0ab7b97ca9a05f935a3478b70002d21388016345785d8a0000801ca04bfe62733c5ed2c5344dcd26b73e0451cc58ba99151978044c4860726d78a422a006e99cf96d550f5445a7dc39dad956bfc1d5b27028734926fee21fc759240110",
      "networkId": 0,
      "chainId": 0
    },
    {
      "hash": "0xf1d1560056d5ee92c820560e962b6e218fade3c14fb4be08d96e2fa16ca83af4",
      "blockHash": "0x9435610beb40fdc94691de5e6926b408bf85abaf63f5a559ed01de5ab88a8c32",
      "blockNumber": 108187,
      "transactionIndex": 2,
      "confirmations": null,
      "from": "0xd268fB48FA174088a25a120aFF0fd8eb0C2d4c87",
      "gasPrice": {
        "_hex": "0xd19adfa23"
      },
      "gasLimit": {
        "_hex": "0x1f328"
      },
      "to": "0x3C7771db7F343B79003e8c9BA787BBE47764ed05",
      "value": {
        "_hex": "0x1b1ae4d6e2ef5000000"
      },
      "nonce": 15,
      "data": "0x",
      "r": "0xe4a676ae15c02b9ee4c050ee354b3ac1a726d0cc2b989262b0f6c8a0f3086a46",
      "s": "0x61d80dc47f8a4ba62067052ead7da7097c4d8e26506f86051b602a66f9ae2482",
      "v": 28,
      "creates": null,
      "raw": "0xf86f0f850d19adfa238301f328943c7771db7f343b79003e8c9ba787bbe47764ed058a01b1ae4d6e2ef5000000801ca0e4a676ae15c02b9ee4c050ee354b3ac1a726d0cc2b989262b0f6c8a0f3086a46a061d80dc47f8a4ba62067052ead7da7097c4d8e26506f86051b602a66f9ae2482",
      "networkId": 0,
      "chainId": 0
    }
  ]
}