{
  "hash": "0xc59a8f257b3500039085c071232e9e6f696aa77d9fea951dbdecd1a11c5bb96a",
  "parentHash": "0xd7d18df21e02dc4c7ff75892298f8e8a5fb9457d482ba5ae6eab2f1e27570e8e",
  "number": 80349,
  "timestamp": 1439484300,
  "nonce": "0x6312cd7c62e994a8",
  "difficulty": 2380529585235,
  "gasLimit": {
    "_hex": "0x2fefd8"
  },
  "gasUsed": {
    "_hex": "0x19a28"
  },
  "miner": "0xF2d2AfF1320476cb8C6b607199D23175cc595693",
  "extraData": "0x476574682f76312e302e312f77696e646f77732f676f312e342e32",
  "transactions": [
    {
      "hash": "0xd19e98ea619b64c2e59020cc11abe4594fc29b0f36e635a243d56ba220976d6e",
      "blockHash": "0xc59a8f257b3500039085c071232e9e6f696aa77d9fea951dbdecd1a11c5bb96a",
      "blockNumber": 80349,
      "transactionIndex": 0,
      "confirmations": null,
      "from": "0xeBe03d9d305540BEe866FC154eFD8C28eCA41A9b",
      "gasPrice": {
        "_hex": "0xba43b7400"
      },
      "gasLimit": {
        "_hex": "0x5208"
      },
      "to": "0xC47Aaa860008be6f65B58c6C6E02a84e666EfE31",
      "value": {
        "_hex": "0xd87a9a60d3146000"
      },
      "nonce": 0,
      "data": "0x",
      "r": "0xd877bb9f4edf465783b9e70f161d334753f6d1764dbec2a5b736dd96516487ea",
      "s": "0x7d5d6ff4a231213da596928f463eb3effc862e8fa4e61cc05ecfcf7acd906262",
      "v": 28,
      "creates": null,
      "raw": "0xf86c80850ba43b740082520894c47aaa860008be6f65b58c6c6e02a84e666efe3188d87a9a60d3146000801ca0d877bb9f4edf465783b9e70f161d334753f6d1764dbec2a5b736dd96516487eaa07d5d6ff4a231213da596928f463eb3effc862e8fa4e61cc05ecfcf7acd906262",
      "networkId": 0,
      "chainId": 0
    },
    {
      "hash": "0x426468a632781e4a91ccea27e01ba16bd76cb83869eefa47ba838a0fdd2342a5",
      "blockHash": "0xc59a8f257b3500039085c071232e9e6f696aa77d9fea951dbdecd1a11c5bb96a",
      "blockNumber": 80349,
      "transactionIndex": 1,
      "confirmations": null,
      "from": "0x7afc1a7cc42A5DfD4822f8bC40e238Dd2B0380bE",
      "gasPrice": {
        "_hex": "0xba43b7400"
      },
      "gasLimit": {
        "_hex": "0x5208"
      },
      "to": "0xC47Aaa860008be6f65B58c6C6E02a84e666EfE31",
      "value": {
        "_hex": "0x28228a7a9ffb9cf0"
      },
      "nonce": 0,
      "data": "0x",
      "r": "0xceffa4da5617e62e7f5bdc9e111a8fdb104ae7958c3ebc78d4e1ae5a05d4e1b5",
      "s": "0x5db5eaef1ae974bcb7eb51ce4598a943e18931a23099fd29ea6e7b5004388361",
      "v": 27,
      "creates": null,
      "raw": "0xf86c80850ba43b740082520894c47aaa860008be6f65b58c6c6e02a84e666efe318828228a7a9ffb9cf0801ba0ceffa4da5617e62e7f5bdc9e111a8fdb104ae7958c3ebc78d4e1ae5a05d4e1b5a05db5eaef1ae974bcb7eb51ce4598a943e18931a23099fd29ea6e7b5004388361",
      "networkId": 0,
      "chainId": 0
    },
    {
      "hash": "0x179f25c99bb9751d3604e082bc1aef34e226d604b5f793c8b0e060d61aae69d5",
      "blockHash": "0xc59a8f257b3500039085c071232e9e6f696aa77d9fea951dbdecd1a11c5bb96a",
      "blockNumber": 80349,
      "transactionIndex": 2,
      "confirmations": null,
      "from": "0xa6b0Df3d84cb20F4F4a593855BfFAA0d3aaa02Aa",
      "gasPrice": {
        "_hex": "0xba43b7400"
      },
      "gasLimit": {
        "_hex": "0x5208"
      },
      "to": "0xC47Aaa860008be6f65B58c6C6E02a84e666EfE31",
      "value": {
        "_hex": "0x338537650dd3038f0"
      },
      "nonce": 0,
      "data": "0x",
      "r": "0x00cafe0b124a358fdef1f9a550ecb9337da31478f1fe4e34fdbc1aa7d0b6ccd0",
      "s": "0x497ccfa966e18035c3dfa3be7378fc9ac55819727c87bdefacd4f00dfd228351",
      "v": 28,
      "creates": null,
      "raw": "0xf86c80850ba43b740082520894c47aaa860008be6f65b58c6c6e02a84e666efe31890338537650dd3038f0801c9fcafe0b124a358fdef1f9a550ecb9337da31478f1fe4e34fdbc1aa7d0b6ccd0a0497ccfa966e18035c3dfa3be7378fc9ac55819727c87bdefacd4f00dfd228351",
      "networkId": 0,
      "chainId": 0
    },
    {
      "hash": "0x765336d04c266480961000b01f80937e365e5ac783270e5eea9a600bedd8bd68",
      "blockHash": "0xc59a8f257b3500039085c071232e9e6f696aa77d9fea951dbdecd1a11c5bb96a",
      "blockNumber": 80349,
      "transactionIndex": 3,
      "confirmations": null,
      "from": "0xb2169f1326FE9745321aD99563654089bAdf09eb",
      "gasPrice": {
        "_hex": "0xba43b7400"
      },
      "gasLimit": {
        "_hex": "0x5208"
      },
      "to": "0xC47Aaa860008be6f65B58c6C6E02a84e666EfE31",
      "value": {
        "_hex": "0x2b598e639a50238f0"
      },
      "nonce": 3,
      "data": "0x",
      "r": "0x67c154d8f5d91f3e6a34f39314edb59658b95a4d50e195bdf2d9d3d7c5fffe54",
      "s": "0x1b3472b1bf53a62586c1b1509bdd1c8f8b50db6f1dd57d867a36e58d357a604a",
      "v": 28,
      "creates": null,
      "raw": "0xf86d03850ba43b740082520894c47aaa860008be6f65b58c6c6e02a84e666efe318902b598e639a50238f0801ca067c154d8f5d91f3e6a34f39314edb59658b95a4d50e195bdf2d9d3d7c5fffe54a01b3472b1bf53a62586c1b1509bdd1c8f8b50db6f1dd57d867a36e58d357a604a",
      "networkId": 0,
      "chainId": 0
    },
    {
      "hash": "0x08019b7f4097361d604512b88fd1b6308ece12986ee0974ab35f71d13097c367",
      "blockHash": "0xc59a8f257b3500039085c071232e9e6f696aa77d9fea951dbdecd1a11c5bb96a",
      "blockNumber": 80349,
      "transactionIndex": 4,
      "confirmations": null,
      "from": "0x5aABF5d8c476f9FdB39e91DB8d477e1e8eF31719",
      "gasPrice": {
        "_hex": "0xba43b7400"
      },
      "gasLimit": {
        "_hex": "0x5208"
      },
      "to": "0xC47Aaa860008be6f65B58c6C6E02a84e666EfE31",
      "value": {
        "_hex": "0xdcb3842427fe000"
      },
      "nonce": 0,
      "data": "0x",
      "r": "0x26984b379958908a7f62a54faba53d43953a18d0bd7d4a6036ea2e4fea9a047d",
      "s": "0x4ce559ba60ee9f0a1ed3f6c55a2872b495c3919734da0b19c1e5ef3afed1f9dd",
      "v": 28,
      "creates": null,
      "raw": "0xf86c80850ba43b740082520894c47aaa860008be6f65b58c6c6e02a84e666efe31880dcb3842427fe000801ca026984b379958908a7f62a54faba53d43953a18d0bd7d4a6036ea2e4fea9a047da04ce559ba60ee9f0a1ed3f6c55a2872b495c3919734da0b19c1e5ef3afed1f9dd",
      "networkId": 0,
      "chainId": 0
    }
  ]
}