{
  "hash": "0xcbf40fc5129ee6efad8e4a99a50d8a98f3be6e44ac3a32fdcc0e15ac6b02e1d3",
  "parentHash": "0xd39f220dbe41d67766ae706f313a61135fcd0d0222f0cfd8bd92af64b0e05347",
  "number": 48377,
  "timestamp": 1438956247,
  "nonce": "0x88b59c4da79f1b8c",
  "difficulty": 1453630159253,
  "gasLimit": {
    "_hex": "0x1647c"
  },
  "gasUsed": {
    "_hex": "0xa674"
  },
  "miner": "0xbb7B8287f3F0a933474a79eAe42CBCa977791171",
  "extraData": "0x476574682f4c5649562f76312e302e312f6c696e75782f676f312e342e32",
  "transactions": [
    {
      "hash": "0x4598f7961ba453c7b35d0fc6051c866bdba4145303ba3623eb8f611a62f22fe2",
      "blockHash": "0xcbf40fc5129ee6efad8e4a99a50d8a98f3be6e44ac3a32fdcc0e15ac6b02e1d3",
      "blockNumber": 48377,
      "transactionIndex": 0,
      "confirmations": null,
      "from": "0x15f1B352110D68901d8f67AAC46A6cFafE031477",
      "gasPrice": {
        "_hex": "0xcd0332b24"
      },
      "gasLimit": {
        "_hex": "0x15f90"
      },
      "to": "0x268724e66A4DC6904f398c8F7EC7ab30E56c8A68",
      "value": {
        "_hex": "0x821ab0d4414980000"
      },
      "nonce": 0,
      "data": "0x",
      "r": "0xc0584e027d4511c6ca76889adc0ba51d77a19bb9e24cc524e8de5bab59133e4f",
      "s": "0x7c4dc4647dcde3630e8e31425a7b2fe1754d146bbf69c4da3903c540a72e65e6",
      "v": 28,
      "creates": null,
      "raw": "0xf86e80850cd0332b2483015f9094268724e66a4dc6904f398c8f7ec7ab30e56c8a68890821ab0d4414980000801ca0c0584e027d4511c6ca76889adc0ba51d77a19bb9e24cc524e8de5bab59133e4fa07c4dc4647dcde3630e8e31425a7b2fe1754d146bbf69c4da3903c540a72e65e6",
      "networkId": 0,
      "chainId": 0
    },
    {
      "hash": "0x3c4e57b35bea350e61106039c3323df06b0cbfebd4f32ecf5f2493ae658e0ae3",
      "blockHash": "0xcbf40fc5129ee6efad8e4a99a50d8a98f3be6e44ac3a32fdcc0e15ac6b02e1d3",
      "blockNumber": 48377,
      "transactionIndex": 1,
      "confirmations": null,
      "from": "0x0B12c5618eB8bfc23b8893780f1100D1B668639A",
      "gasPrice": {
        "_hex": "0xba43b7400"
      },
      "gasLimit": {
        "_hex": "0x55f0"
      },
      "to": "0x2910543Af39abA0Cd09dBb2D50200b3E800A63D2",
      "value": {
        "_hex": "0x3635c9adc5dea00000"
      },
      "nonce": 0,
      "data": "0x454e42374356415252",
      "r": "0xe051f61b564596d96225e6ddc2a1a7a281a819ed283a84f0a8950e18f35841c4",
      "s": "0x1d2bce5147b5481e5a85bb137ddf32e32d5d97db56fe68acc0969f5aeb9ceff3",
      "v": 28,
      "creates": null,
      "raw": "0xf87680850ba43b74008255f0942910543af39aba0cd09dbb2d50200b3e800a63d2893635c9adc5dea0000089454e423743564152521ca0e051f61b564596d96225e6ddc2a1a7a281a819ed283a84f0a8950e18f35841c4a01d2bce5147b5481e5a85bb137ddf32e32d5d97db56fe68acc0969f5aeb9ceff3",
      "networkId": 0,
      "chainId": 0
    }
  ]
}