{
  "hash": "0xa446a7e0caf3a6caaaf03a118ca5296f8b4ba27c93a004a42f847afcf5d19b98",
  "parentHash": "0x05f4331ad2d4d3ad85f90186a41f0a2f701d92aabc49e33ceb357a9386ea818e",
  "number": 72194,
  "timestamp": 1439348843,
  "nonce": "0xc36b4cea077146f1",
  "difficulty": 2177033327929,
  "gasLimit": {
    "_hex": "0x2fefd8"
  },
  "gasUsed": {
    "_hex": "0x1bbfa"
  },
  "miner": "0xe6A7a1d47ff21B6321162AEA7C6CB457D5476Bca",
  "extraData": "0x476574682f76312e302e312d38326566323666362f6c696e75782f676f312e34",
  "transactions": [
    {
      "hash": "0x74931a37e8d695486da19dceb41f8fcf24df26bdbb87e2ed93207eba39c443aa",
      "blockHash": "0xa446a7e0caf3a6caaaf03a118ca5296f8b4ba27c93a004a42f847afcf5d19b98",
      "blockNumber": 72194,
      "transactionIndex": 0,
      "confirmations": null,
      "from": "0x3d1FC29b89717742e275fB98A8D2a26F216f49F2",
      "gasPrice": {
        "_hex": "0x10a178f1ed5"
      },
      "gasLimit": {
        "_hex": "0x7a120"
      },
      "to": "0xBAA54d6E90c3F4d7Ebec11bD180134C7eD8eBb52",
      "value": {
        "_hex": "0x16345785d8a0000"
      },
      "nonce": 0,
      "data": "0x",
      "r": "0xeeed66b9d093d22fe44914fa0fa2d7dbc41ba0fad1dba257e80e301a8f5d27ed",
      "s": "0x5c1cbb992f7c271c2f094fff5015fc66492babf7c42349db5a4041ceeecfe428",
      "v": 27,
      "creates": null,
      "raw": "0xf86e8086010a178f1ed58307a12094baa54d6e90c3f4d7ebec11bd180134c7ed8ebb5288016345785d8a0000801ba0eeed66b9d093d22fe44914fa0fa2d7dbc41ba0fad1dba257e80e301a8f5d27eda05c1cbb992f7c271c2f094fff5015fc66492babf7c42349db5a4041ceeecfe428",
      "networkId": 0,
      "chainId": 0
    },
    {
      "hash": "0x045f7ae07fe790d88275646bc7211c715ecb624a4fd7a6221170d875bb9fb2d5",
      "blockHash": "0xa446a7e0caf3a6caaaf03a118ca5296f8b4ba27c93a004a42f847afcf5d19b98",
      "blockNumber": 72194,
      "transactionIndex": 1,
      "confirmations": null,
      "from": "0x3d1FC29b89717742e275fB98A8D2a26F216f49F2",
      "gasPrice": {
        "_hex": "0x11637e54e98"
      },
      "gasLimit": {
        "_hex": "0x7a120"
      },
      "to": "0xBAA54d6E90c3F4d7Ebec11bD180134C7eD8eBb52",
      "value": {
        "_hex": "0x16345785d8a0000"
      },
      "nonce": 1,
      "data": "0x",
      "r": "0x34953df0c0f6815c8ff96a6e3b39f676fe5889873e2178585115b06950a26002",
      "s": "0x1614f531af7e3aac62a10da3f92c05a3e836136590a7311b8a8f334afdf1557e",
      "v": 28,
      "creates": null,
      "raw": "0xf86e0186011637e54e988307a12094baa54d6e90c3f4d7ebec11bd180134c7ed8ebb5288016345785d8a0000801ca034953df0c0f6815c8ff96a6e3b39f676fe5889873e2178585115b06950a26002a01614f531af7e3aac62a10da3f92c05a3e836136590a7311b8a8f334afdf1557e",
      "networkId": 0,
      "chainId": 0
    }
  ]
}