{
  "hash": "0x2a62b5e5261bd233de4b68ccd878c6b219dc7f364260be1a345d24fac53c13fd",
  "parentHash": "0xe8902dcabd1bb182190699555e1f1c5d9ee0953df95b19b3daa71e7500a992f3",
  "number": 87438,
  "timestamp": 1439592188,
  "nonce": "0x32da7056b6064f9c",
  "difficulty": 3128030914874,
  "gasLimit": {
    "_hex": "0x2fefd8"
  },
  "gasUsed": {
    "_hex": "0x546c"
  },
  "miner": "0xf8E0CA3Ed80bd541b94BEdCf259e8CF2141A9523",
  "extraData": "0x476574682f76312e302e312f77696e646f77732f676f312e342e32",
  "transactions": [
    {
      "hash": "0xf5407b5fb3a7f529ac0317dcb1b14643fe58820b40d8f7b90af67658f880ec2e",
      "blockHash": "0x2a62b5e5261bd233de4b68ccd878c6b219dc7f364260be1a345d24fac53c13fd",
      "blockNumber": 87438,
      "transactionIndex": 0,
      "confirmations": null,
      "from": "0x369eF761195f3A373e24eCE6CD22520fE0b9E86E",
      "gasPrice": {
        "_hex": "0x110c8f7d8de"
      },
      "gasLimit": {
        "_hex": "0xc350"
      },
      "to": "0x2910543Af39abA0Cd09dBb2D50200b3E800A63D2",
      "value": {
        "_hex": "0x1c67f5f7baa0b00000"
      },
      "nonce": 2,
      "data": "0x454e385451354e4a38",
      "r": "0x504a5cd049c8713c976ef2e3ae88c28aaf06acac629c76afc3fb6aa516c8c0ed",
      "s": "0x51a9a0c2d358d90a18de72523b6f35e86d61e194a99a91e67c71713702a072ce",
      "v": 27,
      "creates": null,
      "raw": "0xf87702860110c8f7d8de82c350942910543af39aba0cd09dbb2d50200b3e800a63d2891c67f5f7baa0b0000089454e385451354e4a381ba0504a5cd049c8713c976ef2e3ae88c28aaf06acac629c76afc3fb6aa516c8c0eda051a9a0c2d358d90a18de72523b6f35e86d61e194a99a91e67c71713702a072ce",
      "networkId": 0,
      "chainId": 0
    }
  ]
}