{
  "hash": "0x0419fd11d11272d2057005aa57e9b420cf563557479207ffec3ac8fad2a43ed5",
  "parentHash": "0xe6c99c266d941c77f8826a859cb98d65f0dd119f80e985f72ebf5e7f581c8cb4",
  "number": 105350,
  "timestamp": 1439886160,
  "nonce": "0x7e4a0b95ede836c0",
  "difficulty": 4354789473123,
  "gasLimit": {
    "_hex": "0x2fefd8"
  },
  "gasUsed": {
    "_hex": "0x5208"
  },
  "miner": "0x76CB306530455abB4341FC10608d5FD869389acf",
  "extraData": "0xd983010001844765746887676f312e342e328777696e646f7773",
  "transactions": [
    {
      "hash": "0x07b01d0ddba370003dee283754572955a917a43a944cce7cbb10fdf0f172930f",
      "blockHash": "0x0419fd11d11272d2057005aa57e9b420cf563557479207ffec3ac8fad2a43ed5",
      "blockNumber": 105350,
      "transactionIndex": 0,
      "confirmations": null,
      "from": "0x50087E7383C8865C1C136b8777C4350B8ed472CE",
      "gasPrice": {
        "_hex": "0xcd259f159"
      },
      "gasLimit": {
        "_hex": "0x15f90"
      },
      "to": "0x8Ad679342135277c2db3e0e469CE16c34367Ad88",
      "value": {
        "_hex": "0x1f399b1438a100000"
      },
      "nonce": 4,
      "data": "0x",
      "r": "0x85b5065866b87991feb8ed25cd3a9b5b78d97b3b1b6cc9b8477a297a20d3f72e",
      "s": "0x4e37f9e256932e698d991e35834c9b5b7cb96af7aab6c66717aadc83f1e24612",
      "v": 27,
      "creates": null,
      "raw": "0xf86e04850cd259f15983015f90948ad679342135277c2db3e0e469ce16c34367ad888901f399b1438a100000801ba085b5065866b87991feb8ed25cd3a9b5b78d97b3b1b6cc9b8477a297a20d3f72ea04e37f9e256932e698d991e35834c9b5b7cb96af7aab6c66717aadc83f1e24612",
      "networkId": 0,
      "chainId": 0
    }
  ]
}