{
  "hash": "0x8e70abb3b45285eb733efcf1bad96582184cedcb010668f8fbe30117da6c72b7",
  "parentHash": "0x05f60319f1654a447eae9ddea23f8230c5a10297ce92fe460f815e2146d6f3b8",
  "number": 88069,
  "timestamp": 1439602163,
  "nonce": "0x4e6348eea7fe4b05",
  "difficulty": 3197282220420,
  "gasLimit": {
    "_hex": "0x2fefd8"
  },
  "gasUsed": {
    "_hex": "0xaf054"
  },
  "miner": "0x5B3e850E39e6f2C7dD38707b649e2B3536F14C0b",
  "extraData": "0x476574682f76312e302e312f64617277696e2f676f312e342e32",
  "transactions": [
    {
      "hash": "0xb2f48f84142c56950f9766316355437fbd5b36badf6419321c142ed089617da8",
      "blockHash": "0x8e70abb3b45285eb733efcf1bad96582184cedcb010668f8fbe30117da6c72b7",
      "blockNumber": 88069,
      "transactionIndex": 0,
      "confirmations": null,
      "from": "0x7939750c8A0c35A952CE7Cb34014F5C2dD72736E",
      "gasPrice": {
        "_hex": "0xd8364fc25"
      },
      "gasLimit": {
        "_hex": "0x15f90"
      },
      "to": "0xb1A2a1e9b8AC33fdcB2118b73A875b096AEd24aD",
      "value": {
        "_hex": "0x45400a8fd5330000"
      },
      "nonce": 0,
      "data": "0x",
      "r": "0x943cc74aac398fc1d94e100f75e59c489e9b1b3e544da549bb8e2c86a91303af",
      "s": "0x60d8de2e731887d20f017c981bf6d64c367e57ddd620eedb13f291af74a756d5",
      "v": 27,
      "creates": null,
      "raw": "0xf86d80850d8364fc2583015f9094b1a2a1e9b8ac33fdcb2118b73a875b096aed24ad8845400a8fd5330000801ba0943cc74aac398fc1d94e100f75e59c489e9b1b3e544da549bb8e2c86a91303afa060d8de2e731887d20f017c981bf6d64c367e57ddd620eedb13f291af74a756d5",
      "networkId": 0,
      "chainId": 0
    },
    {
      "hash": "0x0d3ba97ae0c707c2eacf428e3aa52ea587478844025e9677043f12f555818d0d",
      "blockHash": "0x8e70abb3b45285eb733efcf1bad96582184cedcb010668f8fbe30117da6c72b7",
      "blockNumber": 88069,
      "transactionIndex": 1,
      "confirmations": null,
      "from": "0xFD2605a2bF58fDbB90db1Da55dF61628B47F9e8c",
      "gasPrice": {
        "_hex": "0xd69b48315"
      },
      "gasLimit": {
        "_hex": "0xf4240"
      },
      "to": null,
      "value": {
        "_hex": "0x0"
      },
      "nonce": 62,
      "data": "0x606060408190526001805460ff19168117905560208061088d83395060806040525160055561085a806100336000396000f300606060405236156100615760e060020a6000350463146008e38114610063578063667d5d22146100a25780638b299903146100ab578063960edffb146100b7578063d4f77b1c146101c5578063f71d96cb14610220578063f7c1f50a14610253575b005b6103296004356024356002826003811015610002575082018160038110156100025750506020808204909201600201549190066101000a900460ff1681565b61033660055481565b61032960015460ff1681565b61006160043560243560443560008054600154600160a060020a033316929160001960ff909216919091019081101561000257506001549080527f290decd9548b62a8d60345a988386fc84ba6bc95484008f6362f93160ef3e56260ff9091160154600160a060020a031614156105b75760028360038110156100025750830182600381101561000257505060208083048401600201549083066101000a900460ff16600014158061016c575060028360ff16115b8061017a575060028260ff16115b1561044e5760ff8084166060908152908316608052600160a060020a033316907ff24cc84d7800f1a4b3b0b56717c6c879f60aa9787450219273d5d132c309708590604090a26105b7565b610061600054600290101561034057600554341061035f5760008054600181018083553392919082908280158290116103815781836000526020600020918201910161038191905b8082111561044a5784815560010161020d565b6103366004356000805482908110156100025750805260008051602061083a8339815191520154600160a060020a031681565b6006546100619033600160a060020a039081169116148015906102ec57506000805481908110156100025750805260008051602061083a83398151915254600160a060020a039081163390911614806102ec57506000600050600181548110156100025750507f290decd9548b62a8d60345a988386fc84ba6bc95484008f6362f93160ef3e56454600160a060020a0390811633909116145b1561035d57600654600160a060020a031660001415610799576006805473ffffffffffffffffffffffffffffffffffffffff19163317905561035d565b60ff166060908152602090f35b6060908152602090f35b600160a060020a033316600034606082818181858883f150505050505b565b600160a060020a033316600034606082818181858883f150505050505b61035d565b505050815481101561000257906000526020600020900160006101000a815481600160a060020a030219169083021790555033600160a060020a03167f7073afa60b48e833a1a66ebb442bc8e0d19e9f3cc05f34bdcd1da22c8d87f27560405180905060405180910390a26000546002141561044557600080548190811015610002575060008051602061083a83398151915254600160a060020a0316907f41d1a459ab67bcb3138612c208da7ec5021c56ce9ffe7b8b209159f3446e1e9d906060a25b61037c565b5090565b600160009054906101000a900460ff16600260005084600381101561000257508401836003811015610002579090602091828204019190066101000a81548160ff021916908302179055508060ff16600014156104ca576001805460ff1614156105aa576001805460ff8116820160ff199091161790556105b7565b8060ff16600114156105bc5760015460ff1660028460038110156100025750840160018401600381101561000257602080820487016002015491066101000a900460ff1690911490508015610558575060015460ff1660028460038110156100025750848101908401600381101561000257602080820487016002015491066101000a900460ff1690911490505b156105b75760ff8084166060908152908316608052600160a060020a033316907f2be3e3eea061a6600a1f8d4025a2a142f684f6aaf74e2cb30e25fc3352b2646690604090a233600160a060020a0316ff5b6001805460ff1916811790555b505050565b8060ff166002141561069f576001805460ff1690600290850160038110156100025790900160005083600381101561000257505060208084048501600301549084066101000a900460ff16148015610558575060015460ff16600284810160038110156100025790900160005083600381101561000257505060208084048501600401549084066101000a900460ff1614156105b75760ff8084166060908152908316608052600160a060020a033316907f2be3e3eea061a6600a1f8d4025a2a142f684f6aaf74e2cb30e25fc3352b2646690604090a233600160a060020a0316ff5b8060ff16600214156105b7578160ff168360ff1614801561070057506001805460ff1690600290850160038110156100025790900160005083600101600381101561000257602080820487016003015491066101000a900460ff1690911490505b8015610558575060015460ff1660028481016003811015610002575060048501908401600381101561000257602080820487016004015491066101000a900460ff169091149050156105b75760ff8084166060908152908316608052600160a060020a033316907f2be3e3eea061a6600a1f8d4025a2a142f684f6aaf74e2cb30e25fc3352b2646690604090a233600160a060020a0316ff5b6000805481908110156100025780805260008051602061083a83398151915254600160a060020a0390811692506002309091163104606082818181858883f150508154919250600191821015905061000257508080527f290decd9548b62a8d60345a988386fc84ba6bc95484008f6362f93160ef3e56454604051600160a060020a03918216929160023090911631049082818181858883f150505050505600290decd9548b62a8d60345a988386fc84ba6bc95484008f6362f93160ef3e56300000000000000000000000000000000000000000000000000000000000003e8",
      "r": "0xa023a8c98150628f62cb6e4c22a07664282c1625172459d56668221799e36361",
      "s": "0x4616354f3a9b9ecf9a801c981f75432f549452d27c0da7f5d207a1eb2a8b9292",
      "v": 27,
      "creates": "0xa50156cF80fa9eC2e16899E4fb7e072300787417",
      "raw": "0xf909003e850d69b48315830f42408080b908ad606060408190526001805460ff19168117905560208061088d83395060806040525160055561085a806100336000396000f300606060405236156100615760e060020a6000350463146008e38114610063578063667d5d22146100a25780638b299903146100ab578063960edffb146100b7578063d4f77b1c146101c5578063f71d96cb14610220578063f7c1f50a14610253575b005b6103296004356024356002826003811015610002575082018160038110156100025750506020808204909201600201549190066101000a900460ff1681565b61033660055481565b61032960015460ff1681565b61006160043560243560443560008054600154600160a060020a033316929160001960ff909216919091019081101561000257506001549080527f290decd9548b62a8d60345a988386fc84ba6bc95484008f6362f93160ef3e56260ff9091160154600160a060020a031614156105b75760028360038110156100025750830182600381101561000257505060208083048401600201549083066101000a900460ff16600014158061016c575060028360ff16115b8061017a575060028260ff16115b1561044e5760ff8084166060908152908316608052600160a060020a033316907ff24cc84d7800f1a4b3b0b56717c6c879f60aa9787450219273d5d132c309708590604090a26105b7565b610061600054600290101561034057600554341061035f5760008054600181018083553392919082908280158290116103815781836000526020600020918201910161038191905b8082111561044a5784815560010161020d565b6103366004356000805482908110156100025750805260008051602061083a8339815191520154600160a060020a031681565b6006546100619033600160a060020a039081169116148015906102ec57506000805481908110156100025750805260008051602061083a83398151915254600160a060020a039081163390911614806102ec57506000600050600181548110156100025750507f290decd9548b62a8d60345a988386fc84ba6bc95484008f6362f93160ef3e56454600160a060020a0390811633909116145b1561035d57600654600160a060020a031660001415610799576006805473ffffffffffffffffffffffffffffffffffffffff19163317905561035d565b60ff166060908152602090f35b6060908152602090f35b600160a060020a033316600034606082818181858883f150505050505b565b600160a060020a033316600034606082818181858883f150505050505b61035d565b505050815481101561000257906000526020600020900160006101000a815481600160a060020a030219169083021790555033600160a060020a03167f7073afa60b48e833a1a66ebb442bc8e0d19e9f3cc05f34bdcd1da22c8d87f27560405180905060405180910390a26000546002141561044557600080548190811015610002575060008051602061083a83398151915254600160a060020a0316907f41d1a459ab67bcb3138612c208da7ec5021c56ce9ffe7b8b209159f3446e1e9d906060a25b61037c565b5090565b600160009054906101000a900460ff16600260005084600381101561000257508401836003811015610002579090602091828204019190066101000a81548160ff021916908302179055508060ff16600014156104ca576001805460ff1614156105aa576001805460ff8116820160ff199091161790556105b7565b8060ff16600114156105bc5760015460ff1660028460038110156100025750840160018401600381101561000257602080820487016002015491066101000a900460ff1690911490508015610558575060015460ff1660028460038110156100025750848101908401600381101561000257602080820487016002015491066101000a900460ff1690911490505b156105b75760ff8084166060908152908316608052600160a060020a033316907f2be3e3eea061a6600a1f8d4025a2a142f684f6aaf74e2cb30e25fc3352b2646690604090a233600160a060020a0316ff5b6001805460ff1916811790555b505050565b8060ff166002141561069f576001805460ff1690600290850160038110156100025790900160005083600381101561000257505060208084048501600301549084066101000a900460ff16148015610558575060015460ff16600284810160038110156100025790900160005083600381101561000257505060208084048501600401549084066101000a900460ff1614156105b75760ff8084166060908152908316608052600160a060020a033316907f2be3e3eea061a6600a1f8d4025a2a142f684f6aaf74e2cb30e25fc3352b2646690604090a233600160a060020a0316ff5b8060ff16600214156105b7578160ff168360ff1614801561070057506001805460ff1690600290850160038110156100025790900160005083600101600381101561000257602080820487016003015491066101000a900460ff1690911490505b8015610558575060015460ff1660028481016003811015610002575060048501908401600381101561000257602080820487016004015491066101000a900460ff169091149050156105b75760ff8084166060908152908316608052600160a060020a033316907f2be3e3eea061a6600a1f8d4025a2a142f684f6aaf74e2cb30e25fc3352b2646690604090a233600160a060020a0316ff5b6000805481908110156100025780805260008051602061083a83398151915254600160a060020a0390811692506002309091163104606082818181858883f150508154919250600191821015905061000257508080527f290decd9548b62a8d60345a988386fc84ba6bc95484008f6362f93160ef3e56454604051600160a060020a03918216929160023090911631049082818181858883f150505050505600290decd9548b62a8d60345a988386fc84ba6bc95484008f6362f93160ef3e56300000000000000000000000000000000000000000000000000000000000003e81ba0a023a8c98150628f62cb6e4c22a07664282c1625172459d56668221799e36361a04616354f3a9b9ecf9a801c981f75432f549452d27c0da7f5d207a1eb2a8b9292",
      "networkId": 0,
      "chainId": 0
    },
    {
      "hash": "0xbf66b3f5e8cab0aeed00cc1d4172fa7176c4501a9fd2915bbc28d29bd1cc78ea",
      "blockHash": "0x8e70abb3b45285eb733efcf1bad96582184cedcb010668f8fbe30117da6c72b7",
      "blockNumber": 88069,
      "transactionIndex": 2,
      "confirmations": null,
      "from": "0x19ae27E1b61445EB9f27821A5eB4b3e957319e7e",
      "gasPrice": {
        "_hex": "0xcfeacf444"
      },
      "gasLimit": {
        "_hex": "0x5208"
      },
      "to": "0x32Be343B94f860124dC4fEe278FDCBD38C102D88",
      "value": {
        "_hex": "0x1b1acef41259d30000"
      },
      "nonce": 8,
      "data": "0x",
      "r": "0x45a1793af0229f167635abe7f67849c1e1bd3d40285baf698e7607519c6fef55",
      "s": "0x79f27f78a1f0310b029bac1f26e702d032ce698f0ae97311a326435777055102",
      "v": 28,
      "creates": null,
      "raw": "0xf86d08850cfeacf4448252089432be343b94f860124dc4fee278fdcbd38c102d88891b1acef41259d30000801ca045a1793af0229f167635abe7f67849c1e1bd3d40285baf698e7607519c6fef55a079f27f78a1f0310b029bac1f26e702d032ce698f0ae97311a326435777055102",
      "networkId": 0,
      "chainId": 0
    },
    {
      "hash": "0x2023761fb7f981779dea1d4f30e243e466875f30531d7921715ed921f019eac0",
      "blockHash": "0x8e70abb3b45285eb733efcf1bad96582184cedcb010668f8fbe30117da6c72b7",
      "blockNumber": 88069,
      "transactionIndex": 3,
      "confirmations": null,
      "from": "0x324b3914fC1e53995C94480633a2016Bf16Da7b9",
      "gasPrice": {
        "_hex": "0xcfeacf444"
      },
      "gasLimit": {
        "_hex": "0x5208"
      },
      "to": "0x32Be343B94f860124dC4fEe278FDCBD38C102D88",
      "value": {
        "_hex": "0xb45359aacc3ee800"
      },
      "nonce": 0,
      "data": "0x",
      "r": "0x3c8dc6b46c22ec360f451151c1b464545110aebac43a92110221fb6a678af07b",
      "s": "0x27a8244fd103c9bb18a56124b721b8670411acf731dafc8ae7390bce1415f98a",
      "v": 27,
      "creates": null,
      "raw": "0xf86c80850cfeacf4448252089432be343b94f860124dc4fee278fdcbd38c102d8888b45359aacc3ee800801ba03c8dc6b46c22ec360f451151c1b464545110aebac43a92110221fb6a678af07ba027a8244fd103c9bb18a56124b721b8670411acf731dafc8ae7390bce1415f98a",
      "networkId": 0,
      "chainId": 0
    },
    {
      "hash": "0xdffb776f155eb32ef8668f7504079a34d4d83f1e3592eb19c292b5852e0fbaa0",
      "blockHash": "0x8e70abb3b45285eb733efcf1bad96582184cedcb010668f8fbe30117da6c72b7",
      "blockNumber": 88069,
      "transactionIndex": 4,
      "confirmations": null,
      "from": "0x34d34F0a638F6991e4E2536F41295DF6E934A646",
      "gasPrice": {
        "_hex": "0xcfeacf444"
      },
      "gasLimit": {
        "_hex": "0x5208"
      },
      "to": "0x32Be343B94f860124dC4fEe278FDCBD38C102D88",
      "value": {
        "_hex": "0x455f6786c8ff6800"
      },
      "nonce": 12,
      "data": "0x",
      "r": "0x16404ffbdbfaafbd9d705c159ede535f7bac99280d5c5643643d16010998a19f",
      "s": "0x4699d02d513cfe6803e3f24e000e4acf4a5e603df4818f0e52ae6600af830191",
      "v": 28,
      "creates": null,
      "raw": "0xf86c0c850cfeacf4448252089432be343b94f860124dc4fee278fdcbd38c102d8888455f6786c8ff6800801ca016404ffbdbfaafbd9d705c159ede535f7bac99280d5c5643643d16010998a19fa04699d02d513cfe6803e3f24e000e4acf4a5e603df4818f0e52ae6600af830191",
      "networkId": 0,
      "chainId": 0
    }
  ]
}