{
  "hash": "0x815f0dabb58541e316a8b7c9e8f19754d1f7391d2a299e492b86f1913619aac2",
  "parentHash": "0xd5fd7816b7278cd9dfc3c97aed5a088735e094507ec2b77475d69e92bb72cec7",
  "number": 49716,
  "timestamp": 1438977918,
  "nonce": "0xebd277fc5996cd86",
  "difficulty": 1492958669712,
  "gasLimit": {
    "_hex": "0x3c1f9"
  },
  "gasUsed": {
    "_hex": "0x546c"
  },
  "miner": "0x1B7047b4338ACf65bE94C1A3e8c5c9338ad7d67C",
  "extraData": "0x476574682f76312e302e312d38326566323666362f6c696e75782f676f312e34",
  "transactions": [
    {
      "hash": "0xde1495bdd676a57602f44aeb3cfa83469833049aeaf55cbbfac0536c584b8851",
      "blockHash": "0x815f0dabb58541e316a8b7c9e8f19754d1f7391d2a299e492b86f1913619aac2",
      "blockNumber": 49716,
      "transactionIndex": 0,
      "confirmations": null,
      "from": "0xD1538e9a87E59ca9Ec8E5826a5b793F99f96C4c3",
      "gasPrice": {
        "_hex": "0x11b0cf5a868"
      },
      "gasLimit": {
        "_hex": "0x15f90"
      },
      "to": "0x2910543Af39abA0Cd09dBb2D50200b3E800A63D2",
      "value": {
        "_hex": "0x363442e15b11550000"
      },
      "nonce": 0,
      "data": "0x454e42304a42363352",
      "r": "0x5a79dde58ab68b442f4955a9608d7b8c27312a96c26081962b2db80884a11cca",
      "s": "0x5672f610d2d92aa126496ac13014eb8378dd76186da441ceebdfb6f96391bcb6",
      "v": 27,
      "creates": null,
      "raw": "0xf8788086011b0cf5a86883015f90942910543af39aba0cd09dbb2d50200b3e800a63d289363442e15b1155000089454e42304a423633521ba05a79dde58ab68b442f4955a9608d7b8c27312a96c26081962b2db80884a11ccaa05672f610d2d92aa126496ac13014eb8378dd76186da441ceebdfb6f96391bcb6",
      "networkId": 0,
      "chainId": 0
    }
  ]
}