{
  "hash": "0x7dd61ed3c1c99e771deafb7c10868c94cfda0c9599354ef2eceb905d7bd5f60c",
  "parentHash": "0x628f67703495c21eab3260675354558e16cbfe37d14e01e978f89ff3c1c74daa",
  "number": 92477,
  "timestamp": 1439672683,
  "nonce": "0x76d7fb0e8bb85e71",
  "difficulty": 3523419355596,
  "gasLimit": {
    "_hex": "0x2fefd8"
  },
  "gasUsed": {
    "_hex": "0x5208"
  },
  "miner": "0xe6A7a1d47ff21B6321162AEA7C6CB457D5476Bca",
  "extraData": "0x476574682f76312e302e312d38326566323666362f6c696e75782f676f312e34",
  "transactions": [
    {
      "hash": "0xa21d61d526578bae05dc3a1724c77134a75efbdd963a2a06218266b117e2ccaa",
      "blockHash": "0x7dd61ed3c1c99e771deafb7c10868c94cfda0c9599354ef2eceb905d7bd5f60c",
      "blockNumber": 92477,
      "transactionIndex": 0,
      "confirmations": null,
      "from": "0xa30e0ACB534c9b3084E8501dA090B4eB16A2C0Cd",
      "gasPrice": {
        "_hex": "0xba43b7400"
      },
      "gasLimit": {
        "_hex": "0x5208"
      },
      "to": "0xFcefbDb5ab3B71FDE148e3d9Eb4Ac77F16e6e7Cb",
      "value": {
        "_hex": "0x6b02c0cd4cbd180000"
      },
      "nonce": 1,
      "data": "0x",
      "r": "0xc46dc54be5c7ef35504ecfa93b1eafb6e28a02321c2724fbc40279dbae6ff1fa",
      "s": "0x23b8a58b3dece3b5b7fa183fc52d619d9d9c37c7409f6b17718cce4c0cea193c",
      "v": 28,
      "creates": null,
      "raw": "0xf86d01850ba43b740082520894fcefbdb5ab3b71fde148e3d9eb4ac77f16e6e7cb896b02c0cd4cbd180000801ca0c46dc54be5c7ef35504ecfa93b1eafb6e28a02321c2724fbc40279dbae6ff1faa023b8a58b3dece3b5b7fa183fc52d619d9d9c37c7409f6b17718cce4c0cea193c",
      "networkId": 0,
      "chainId": 0
    }
  ]
}