{
  "hash": "0xd146660a5815407073b3b3ed5db91281ad1cde7b68b268420cc7b342dfeed662",
  "parentHash": "0x61b7e9a72bfd397d873b6449f1ca038b4efdedacf40276d9839aa7c0c01ca02e",
  "number": 121372,
  "timestamp": 1440176160,
  "nonce": "0xa0d33ef3b9da90cc",
  "difficulty": 4389133916284,
  "gasLimit": {
    "_hex": "0x2fefd8"
  },
  "gasUsed": {
    "_hex": "0xa410"
  },
  "miner": "0xe6A7a1d47ff21B6321162AEA7C6CB457D5476Bca",
  "extraData": "0xd783010002844765746887676f312e342e32856c696e7578",
  "transactions": [
    {
      "hash": "0x8a08b811d10bf0127228bf802d0617282afdbea720a3a9606539b63519ef377f",
      "blockHash": "0xd146660a5815407073b3b3ed5db91281ad1cde7b68b268420cc7b342dfeed662",
      "blockNumber": 121372,
      "transactionIndex": 0,
      "confirmations": null,
      "from": "0x9d0D51Aa42b97151aaCa5876a743172C8c04f09E",
      "gasPrice": {
        "_hex": "0xba43b7400"
      },
      "gasLimit": {
        "_hex": "0x5208"
      },
      "to": "0x32Be343B94f860124dC4fEe278FDCBD38C102D88",
      "value": {
        "_hex": "0x2b5dff420d8904000"
      },
      "nonce": 5,
      "data": "0x",
      "r": "0x8d1a369d6e9a2cf196d564b73ca911c219abc43e81a8880c4f364247a5efdced",
      "s": "0x61a27651729b34410f4e5a23e4876b01cd947c45ed464dd3b4e54fa76471d924",
      "v": 28,
      "creates": null,
      "raw": "0xf86d05850ba43b74008252089432be343b94f860124dc4fee278fdcbd38c102d888902b5dff420d8904000801ca08d1a369d6e9a2cf196d564b73ca911c219abc43e81a8880c4f364247a5efdceda061a27651729b34410f4e5a23e4876b01cd947c45ed464dd3b4e54fa76471d924",
      "networkId": 0,
      "chainId": 0
    },
    {
      "hash": "0xb814abdbfa0633b4ccfb6e4a7e97e71d4ba39234f4103aec1fb7973230087111",
      "blockHash": "0xd146660a5815407073b3b3ed5db91281ad1cde7b68b268420cc7b342dfeed662",
      "blockNumber": 121372,
      "transactionIndex": 1,
      "confirmations": null,
      "from": "0x608f4b86321a68453f9adf6F06F7Fc3E621739ad",
      "gasPrice": {
        "_hex": "0xba43b7400"
      },
      "gasLimit": {
        "_hex": "0x5208"
      },
      "to": "0x32Be343B94f860124dC4fEe278FDCBD38C102D88",
      "value": {
        "_hex": "0x455fd68a17f06000"
      },
      "nonce": 98,
      "data": "0x",
      "r": "0x441bb49c93937f1bd48151b701249e701c47558746abbc4faa90fa0cc728abdd",
      "s": "0x7708bd80a303e61de644fbc849c19c58e0ee98fb7e9cd799080902af4941a7cc",
      "v": 28,
      "creates": null,
      "raw": "0xf86c62850ba43b74008252089432be343b94f860124dc4fee278fdcbd38c102d8888455fd68a17f06000801ca0441bb49c93937f1bd48151b701249e701c47558746abbc4faa90fa0cc728abdda07708bd80a303e61de644fbc849c19c58e0ee98fb7e9cd799080902af4941a7cc",
      "networkId": 0,
      "chainId": 0
    }
  ]
}