{
  "hash": "0x3016d1ddf7ccb947000cd14caeee4a1e037f412e93ea6ff1123873c800eb98ad",
  "parentHash": "0xa021f17022e11eacc9a1ff48488db7f9c0b2d5aef2799a49b0cf86802d59a601",
  "number": 108585,
  "timestamp": 1439942891,
  "nonce": "0x157c349fd17629e0",
  "difficulty": 4338257008970,
  "gasLimit": {
    "_hex": "0x2fefd8"
  },
  "gasUsed": {
    "_hex": "0xa410"
  },
  "miner": "0xe6A7a1d47ff21B6321162AEA7C6CB457D5476Bca",
  "extraData": "0x476574682f76312e302e312d38326566323666362f6c696e75782f676f312e34",
  "transactions": [
    {
      "hash": "0x427f9a8587af96b9fe140d6761944376688843f98ea32030e584129a7dad89fd",
      "blockHash": "0x3016d1ddf7ccb947000cd14caeee4a1e037f412e93ea6ff1123873c800eb98ad",
      "blockNumber": 108585,
      "transactionIndex": 0,
      "confirmations": null,
      "from": "0x65553f5e8FA2eDfCe37Aec51A90ed28777dDe402",
      "gasPrice": {
        "_hex": "0xd95c221b7"
      },
      "gasLimit": {
        "_hex": "0x5208"
      },
      "to": "0xFBb1b73C4f0BDa4f67dcA266ce6Ef42f520fBB98",
      "value": {
        "_hex": "0xdd8cecdd1b3f048"
      },
      "nonce": 2,
      "data": "0x",
      "r": "0x09a9bf74a501f6783f6d65667526d826ddad23bf01b8068534dfab567f97668f",
      "s": "0x428ca9450df606c8a91ee88bf4f9c472b83da9552d3c5e357df75af1eb67b9b7",
      "v": 27,
      "creates": null,
      "raw": "0xf86c02850d95c221b782520894fbb1b73c4f0bda4f67dca266ce6ef42f520fbb98880dd8cecdd1b3f048801ba009a9bf74a501f6783f6d65667526d826ddad23bf01b8068534dfab567f97668fa0428ca9450df606c8a91ee88bf4f9c472b83da9552d3c5e357df75af1eb67b9b7",
      "networkId": 0,
      "chainId": 0
    },
    {
      "hash": "0x799b01a49bef4d071bf559a2a24807482387a642cad50247dddbf18dcb827bab",
      "blockHash": "0x3016d1ddf7ccb947000cd14caeee4a1e037f412e93ea6ff1123873c800eb98ad",
      "blockNumber": 108585,
      "transactionIndex": 1,
      "confirmations": null,
      "from": "0xC5421FF9a6C1dfE6fE5BE19FA1322E70b77c8cb1",
      "gasPrice": {
        "_hex": "0xd465ecef6"
      },
      "gasLimit": {
        "_hex": "0x5208"
      },
      "to": "0x32Be343B94f860124dC4fEe278FDCBD38C102D88",
      "value": {
        "_hex": "0xdd8e84039553000"
      },
      "nonce": 2,
      "data": "0x",
      "r": "0xe9a5fa4017df1b71aba5f32bc7479b76de38a613c0a2790fbd1dc727f3c9d8a0",
      "s": "0x307c1e106790b2b49488983ed56971af8ac761ba67b065e060eee6dc1896aa54",
      "v": 28,
      "creates": null,
      "raw": "0xf86c02850d465ecef68252089432be343b94f860124dc4fee278fdcbd38c102d88880dd8e84039553000801ca0e9a5fa4017df1b71aba5f32bc7479b76de38a613c0a2790fbd1dc727f3c9d8a0a0307c1e106790b2b49488983ed56971af8ac761ba67b065e060eee6dc1896aa54",
      "networkId": 0,
      "chainId": 0
    }
  ]
}