{
  "hash": "0x86dc4f6bcb52c432db75e71481125fe042b1e8502d2045edcba561528c1f5c4e",
  "parentHash": "0x653cf54ab9e39edd0ede9bd8b6e8f870f612b27eda115592eaa0495b02e56e50",
  "number": 58942,
  "timestamp": 1439129319,
  "nonce": "0x6f38c47f63366024",
  "difficulty": 1708135130845,
  "gasLimit": {
    "_hex": "0x2fefd8"
  },
  "gasUsed": {
    "_hex": "0x546c"
  },
  "miner": "0x55bAf64fc9eAccFFd7Cc643BB61142E1C6ac093e",
  "extraData": "0x",
  "transactions": [
    {
      "hash": "0x5de2b8b4c4af82167fd6d4983d7ced18d3ec2d5d10a67240dfb4fda6cddc0896",
      "blockHash": "0x86dc4f6bcb52c432db75e71481125fe042b1e8502d2045edcba561528c1f5c4e",
      "blockNumber": 58942,
      "transactionIndex": 0,
      "confirmations": null,
      "from": "0x92c0F573ECCf62c54810ee6ba8D1F113542b301b",
      "gasPrice": {
        "_hex": "0x110c8f7d8de"
      },
      "gasLimit": {
        "_hex": "0xc350"
      },
      "to": "0x2910543Af39abA0Cd09dBb2D50200b3E800A63D2",
      "value": {
        "_hex": "0xb72d0b854a6cec0000"
      },
      "nonce": 1,
      "data": "0x454e594e5850575747",
      "r": "0x763912b88946675edbceb2217658faf2ead6b44039ceed03bd47f7bbab8fe8bb",
      "s": "0xf7f213b53e3315893e8b7e50c42d3751d916ce5e2ae4af6e4ff1cc6d04214d0a",
      "v": 27,
      "creates": null,
      "raw": "0xf87701860110c8f7d8de82c350942910543af39aba0cd09dbb2d50200b3e800a63d289b72d0b854a6cec000089454e594e58505757471ba0763912b88946675edbceb2217658faf2ead6b44039ceed03bd47f7bbab8fe8bba0f7f213b53e3315893e8b7e50c42d3751d916ce5e2ae4af6e4ff1cc6d04214d0a",
      "networkId": 0,
      "chainId": 0
    }
  ]
}