{
  "hash": "0x3e0061731e37aa3a6a9656a9f046aef381e1bd2279e0975281e2a544339dcb7e",
  "parentHash": "0xe12bde542e4575f38263c0b9b88f72a4f40c88801caac5701f0c22280ebf49f0",
  "number": 80742,
  "timestamp": 1439490168,
  "nonce": "0xf1c43408dd0178ff",
  "difficulty": 2435678467265,
  "gasLimit": {
    "_hex": "0x2fefd8"
  },
  "gasUsed": {
    "_hex": "0x546c"
  },
  "miner": "0x5B7970CD176308e0Ffd0358e8B14aaF4A19BA544",
  "extraData": "0x476574682f76312e302e302f77696e646f77732f676f312e342e32",
  "transactions": [
    {
      "hash": "0xa47c455c9b2084b309731c6a8062507fe2cee520dd43b6bbf1410d427685ee73",
      "blockHash": "0x3e0061731e37aa3a6a9656a9f046aef381e1bd2279e0975281e2a544339dcb7e",
      "blockNumber": 80742,
      "transactionIndex": 0,
      "confirmations": null,
      "from": "0x1a3520453582c718a21c42375BC50773255253e1",
      "gasPrice": {
        "_hex": "0x110c8f7d8de"
      },
      "gasLimit": {
        "_hex": "0xc350"
      },
      "to": "0x2910543Af39abA0Cd09dBb2D50200b3E800A63D2",
      "value": {
        "_hex": "0x5f68e8131ecf80000"
      },
      "nonce": 1,
      "data": "0x454e454b4856544a47",
      "r": "0xb51c7e33ec58b211d24044afee1ec8f9e99bed61ae387cdd3026cb8ff0fda7c3",
      "s": "0x945a86a241a038daf1de7e4cff7e045698e8f42aebbf18cedc5e10ded0061923",
      "v": 27,
      "creates": null,
      "raw": "0xf87701860110c8f7d8de82c350942910543af39aba0cd09dbb2d50200b3e800a63d28905f68e8131ecf8000089454e454b4856544a471ba0b51c7e33ec58b211d24044afee1ec8f9e99bed61ae387cdd3026cb8ff0fda7c3a0945a86a241a038daf1de7e4cff7e045698e8f42aebbf18cedc5e10ded0061923",
      "networkId": 0,
      "chainId": 0
    }
  ]
}