{
  "hash": "0x985a2d0be6f7121667745bd73eafde3355551316a19370da00120f058d9d2bdd",
  "parentHash": "0xe6e3c4e75b302a80d9c9d1020dfe7035a0e36c1d68fa1896c8df097fe947b1f1",
  "number": 78508,
  "timestamp": 1439454820,
  "nonce": "0x3982ddf169d0d0e1",
  "difficulty": 2297675381201,
  "gasLimit": {
    "_hex": "0x2fefd8"
  },
  "gasUsed": {
    "_hex": "0x7a61"
  },
  "miner": "0xe6A7a1d47ff21B6321162AEA7C6CB457D5476Bca",
  "extraData": "0x476574682f76312e302e312d38326566323666362f6c696e75782f676f312e34",
  "transactions": [
    {
      "hash": "0x208be62878f54e720067fd22c15338031d20bb483b04efccaca3182e5c3518fb",
      "blockHash": "0x985a2d0be6f7121667745bd73eafde3355551316a19370da00120f058d9d2bdd",
      "blockNumber": 78508,
      "transactionIndex": 0,
      "confirmations": null,
      "from": "0xD1826373C4E0938f0b4302B40324f7f9c546492C",
      "gasPrice": {
        "_hex": "0xd06a9381c"
      },
      "gasLimit": {
        "_hex": "0x30d40"
      },
      "to": "0xC2D72e968Df598134529475769B6C8Befe2d4786",
      "value": {
        "_hex": "0x38d7ea4c68000"
      },
      "nonce": 17,
      "data": "0x",
      "r": "0xff261c8aa25cff768dbfca8111544d533f4ed40d1e0769f5d2c091eb9f0a7a56",
      "s": "0x5f79dca39ebd45dd44db5cae466cc10949ea129cd0ac8e82a393973b3e0e4639",
      "v": 27,
      "creates": null,
      "raw": "0xf86c11850d06a9381c83030d4094c2d72e968df598134529475769b6c8befe2d478687038d7ea4c68000801ba0ff261c8aa25cff768dbfca8111544d533f4ed40d1e0769f5d2c091eb9f0a7a56a05f79dca39ebd45dd44db5cae466cc10949ea129cd0ac8e82a393973b3e0e4639",
      "networkId": 0,
      "chainId": 0
    }
  ]
}