{
  "hash": "0x4cac61d9008ec4e4f7e979a76e92307843bf6176fb30cc9ac235cb5606dc5e1c",
  "parentHash": "0x8a071caeef2c81291ad27f3cfdaeca04504ee3d6767e9fbd8dad71f95ac1b866",
  "number": 81006,
  "timestamp": 1439494494,
  "nonce": "0xec38cf4a75276c5f",
  "difficulty": 2445134491339,
  "gasLimit": {
    "_hex": "0x2fefd8"
  },
  "gasUsed": {
    "_hex": "0xa410"
  },
  "miner": "0x9D49F602b0fdb924Bd63DDE2Bd0907E4A07c63a7",
  "extraData": "0x476574682f76312e302e312f6c696e75782f676f312e342e32",
  "transactions": [
    {
      "hash": "0x7d6790eb78e0fb1837f9fb49d949a578c46e09abaafeebce4612e3d38b19b996",
      "blockHash": "0x4cac61d9008ec4e4f7e979a76e92307843bf6176fb30cc9ac235cb5606dc5e1c",
      "blockNumber": 81006,
      "transactionIndex": 0,
      "confirmations": null,
      "from": "0xE4Dd37247830493DE1Df7c758DD746DCdE19419e",
      "gasPrice": {
        "_hex": "0xd3d37f23a"
      },
      "gasLimit": {
        "_hex": "0x7530"
      },
      "to": "0x6De181Fc4C140FA31F196e5393516c49EEeBdAd3",
      "value": {
        "_hex": "0xd02ab486cedc0000"
      },
      "nonce": 5,
      "data": "0x",
      "r": "0x74c0fbc46ac415e21a3cd5039e6554e65ff532aaeac691287cd639657d07fc81",
      "s": "0x27022d3c73093102187a195fe882d4057126510a10e3d319a55f069160db6cb0",
      "v": 28,
      "creates": null,
      "raw": "0xf86c05850d3d37f23a827530946de181fc4c140fa31f196e5393516c49eeebdad388d02ab486cedc0000801ca074c0fbc46ac415e21a3cd5039e6554e65ff532aaeac691287cd639657d07fc81a027022d3c73093102187a195fe882d4057126510a10e3d319a55f069160db6cb0",
      "networkId": 0,
      "chainId": 0
    },
    {
      "hash": "0x9ba3673dbb09e81c4909ed15ebb32bf437cb5f22c61fe851b73f630b901ca33c",
      "blockHash": "0x4cac61d9008ec4e4f7e979a76e92307843bf6176fb30cc9ac235cb5606dc5e1c",
      "blockNumber": 81006,
      "transactionIndex": 1,
      "confirmations": null,
      "from": "0x42f5841AFCCfA58245df34AF90eC8f8c7F765515",
      "gasPrice": {
        "_hex": "0xcf72bc770"
      },
      "gasLimit": {
        "_hex": "0x5208"
      },
      "to": "0x32Be343B94f860124dC4fEe278FDCBD38C102D88",
      "value": {
        "_hex": "0x1ab9a9eceb54020000"
      },
      "nonce": 0,
      "data": "0x",
      "r": "0xda54552374f74621c143c0bbc189fd09bfb5ed421ec12c7d57874c147c434e23",
      "s": "0x1ea8bfdeb07f0e6d61f80faf88cb52b41bab85bd91f7bba790a7047f834444a6",
      "v": 28,
      "creates": null,
      "raw": "0xf86d80850cf72bc7708252089432be343b94f860124dc4fee278fdcbd38c102d88891ab9a9eceb54020000801ca0da54552374f74621c143c0bbc189fd09bfb5ed421ec12c7d57874c147c434e23a01ea8bfdeb07f0e6d61f80faf88cb52b41bab85bd91f7bba790a7047f834444a6",
      "networkId": 0,
      "chainId": 0
    }
  ]
}