{
  "hash": "0x19cca5f84a067d7824fead7adc8d0854067e4a0e729c2827b66020d8a0bba63f",
  "parentHash": "0xbd092e9f74763d206ec45700d28008f2ff5beb050435fd8e9bc3793a6af5f33b",
  "number": 107680,
  "timestamp": 1439926764,
  "nonce": "0xde508bb341696315",
  "difficulty": 4387725619292,
  "gasLimit": {
    "_hex": "0x2fefd8"
  },
  "gasUsed": {
    "_hex": "0x5208"
  },
  "miner": "0xe6A7a1d47ff21B6321162AEA7C6CB457D5476Bca",
  "extraData": "0x476574682f76312e302e312d38326566323666362f6c696e75782f676f312e34",
  "transactions": [
    {
      "hash": "0xa62a93fd5f9ca20adeae8baf47d1aae8929a630cc92613362d23c8f87c6ee689",
      "blockHash": "0x19cca5f84a067d7824fead7adc8d0854067e4a0e729c2827b66020d8a0bba63f",
      "blockNumber": 107680,
      "transactionIndex": 0,
      "confirmations": null,
      "from": "0x0909648c18A3CE5BAe7A047Ec2F868D24cDdA81D",
      "gasPrice": {
        "_hex": "0xd8c2c798e"
      },
      "gasLimit": {
        "_hex": "0x15f90"
      },
      "to": "0xBaA949Dbf5dbaE91Bf1cf03fC3bD9E30d0237Fd6",
      "value": {
        "_hex": "0xde0b6b3a7640000"
      },
      "nonce": 2,
      "data": "0x",
      "r": "0x7d6e0e023e64bb97d844ffd0c930b98f8ca93883e7854a7a1a5e42fabdd9fc3b",
      "s": "0x17312cc726bd9986bd2e4e787e816ac0df5c470a4dcd5177bebb9dffda65db7f",
      "v": 27,
      "creates": null,
      "raw": "0xf86d02850d8c2c798e83015f9094baa949dbf5dbae91bf1cf03fc3bd9e30d0237fd6880de0b6b3a7640000801ba07d6e0e023e64bb97d844ffd0c930b98f8ca93883e7854a7a1a5e42fabdd9fc3ba017312cc726bd9986bd2e4e787e816ac0df5c470a4dcd5177bebb9dffda65db7f",
      "networkId": 0,
      "chainId": 0
    }
  ]
}