{
  "hash": "0x75e4718e8b944e4d88a311b6ec40f98ac2d15c167d970a2b9e10793fdea785e9",
  "parentHash": "0x03988cc45e6a442f404fe34313b7c787aad10800d944a8f5220cde0f23ba93c9",
  "number": 119337,
  "timestamp": 1440141045,
  "nonce": "0x37d7c19f91a78b35",
  "difficulty": 4418154918675,
  "gasLimit": {
    "_hex": "0x2fefd8"
  },
  "gasUsed": {
    "_hex": "0xa410"
  },
  "miner": "0x52bc44d5378309EE2abF1539BF71dE1b7d7bE3b5",
  "extraData": "0xd783010002844765746887676f312e342e32856c696e7578",
  "transactions": [
    {
      "hash": "0x5c85c3055d323dcf1c1df1f9b9fefa7372a44a2d9a4c25062297d9518127b62e",
      "blockHash": "0x75e4718e8b944e4d88a311b6ec40f98ac2d15c167d970a2b9e10793fdea785e9",
      "blockNumber": 119337,
      "transactionIndex": 0,
      "confirmations": null,
      "from": "0xe6A7a1d47ff21B6321162AEA7C6CB457D5476Bca",
      "gasPrice": {
        "_hex": "0xba43b7400"
      },
      "gasLimit": {
        "_hex": "0x55f0"
      },
      "to": "0x06D8532FBF8657Fe91402132191f01Dc4e1E54d0",
      "value": {
        "_hex": "0x20794b640809e7b8"
      },
      "nonce": 6044,
      "data": "0x",
      "r": "0x9df7e5605a17a3157da0e663ebcab50eea242f54016d9f9b2ed39791bf30b2b8",
      "s": "0x1ef5995b82ba0dc195e8f0c6b04bdd8f81062a7256f71b2b9c66f7cf787d5a24",
      "v": 27,
      "creates": null,
      "raw": "0xf86e82179c850ba43b74008255f09406d8532fbf8657fe91402132191f01dc4e1e54d08820794b640809e7b8801ba09df7e5605a17a3157da0e663ebcab50eea242f54016d9f9b2ed39791bf30b2b8a01ef5995b82ba0dc195e8f0c6b04bdd8f81062a7256f71b2b9c66f7cf787d5a24",
      "networkId": 0,
      "chainId": 0
    },
    {
      "hash": "0x555d4f7cd9b845212b05f1057c258d92ad5fbba5268a4aab9db9ceea00791aee",
      "blockHash": "0x75e4718e8b944e4d88a311b6ec40f98ac2d15c167d970a2b9e10793fdea785e9",
      "blockNumber": 119337,
      "transactionIndex": 1,
      "confirmations": null,
      "from": "0xe6A7a1d47ff21B6321162AEA7C6CB457D5476Bca",
      "gasPrice": {
        "_hex": "0xba43b7400"
      },
      "gasLimit": {
        "_hex": "0x55f0"
      },
      "to": "0xB89C0F465b0472fa5A58eCDd01eD937205ae4d06",
      "value": {
        "_hex": "0x20e2ed21f9e7e490"
      },
      "nonce": 6045,
      "data": "0x",
      "r": "0x0513e51a418cda90c6b33c1437ab00061bf6ee6b70f69f9d1f48dd14f9726e0f",
      "s": "0x788d86865c5128a3f32333b1f836676db2a0b419018740a25d882577e08cec06",
      "v": 27,
      "creates": null,
      "raw": "0xf86e82179d850ba43b74008255f094b89c0f465b0472fa5a58ecdd01ed937205ae4d068820e2ed21f9e7e490801ba00513e51a418cda90c6b33c1437ab00061bf6ee6b70f69f9d1f48dd14f9726e0fa0788d86865c5128a3f32333b1f836676db2a0b419018740a25d882577e08cec06",
      "networkId": 0,
      "chainId": 0
    }
  ]
}