{
  "hash": "0x769ff2a948467d8ab0ca159ac4a2deb7011e2f7a45280afa127634a2ac41a19b",
  "parentHash": "0xa227526f54ca727fe2daa415cf8ec93e50b0aa768358a94168d0c3b89ce1b586",
  "number": 86394,
  "timestamp": 1439577579,
  "nonce": "0xee2af106ad12ede3",
  "difficulty": 2884851618286,
  "gasLimit": {
    "_hex": "0x2fefd8"
  },
  "gasUsed": {
    "_hex": "0x5d9f"
  },
  "miner": "0x5B3e850E39e6f2C7dD38707b649e2B3536F14C0b",
  "extraData": "0x476574682f76312e302e312f64617277696e2f676f312e342e32",
  "transactions": [
    {
      "hash": "0xd63f3cf6aff771c6c7a99186631cda02245e8af9fac6d754ae9ece74077632dd",
      "blockHash": "0x769ff2a948467d8ab0ca159ac4a2deb7011e2f7a45280afa127634a2ac41a19b",
      "blockNumber": 86394,
      "transactionIndex": 0,
      "confirmations": null,
      "from": "0xBB274103ed8b7CE3b55f9dF7d13F5FFF306251FF",
      "gasPrice": {
        "_hex": "0xd8906ccd0"
      },
      "gasLimit": {
        "_hex": "0x15f90"
      },
      "to": "0xCAc7000C7dBaa2E33Af15325AF5D435E011C7BdD",
      "value": {
        "_hex": "0xde0b6b3a7640000"
      },
      "nonce": 1,
      "data": "0xb214faa5535537564544514b310000000000000000000000000000000000000000000000",
      "r": "0xd4e691415fcd8b0732b6b2ebc339d0161dd73a4457a54dc51f84443a11011418",
      "s": "0x61ce88124fae3e5b544721bf0b4728afc162ce5c679c7351517757bc3904042f",
      "v": 27,
      "creates": null,
      "raw": "0xf89101850d8906ccd083015f9094cac7000c7dbaa2e33af15325af5d435e011c7bdd880de0b6b3a7640000a4b214faa5535537564544514b3100000000000000000000000000000000000000000000001ba0d4e691415fcd8b0732b6b2ebc339d0161dd73a4457a54dc51f84443a11011418a061ce88124fae3e5b544721bf0b4728afc162ce5c679c7351517757bc3904042f",
      "networkId": 0,
      "chainId": 0
    }
  ]
}