{
  "hash": "0x4801cb06357ed0cfbbfa51269751c189c65a7c841e56290c03921b038c638c41",
  "parentHash": "0xfefb09d984015ff280bd8810e3759082b3051311db79ee232b38bca0d796dd4a",
  "number": 107890,
  "timestamp": 1439930448,
  "nonce": "0x5acdec989f393fc2",
  "difficulty": 4383333088666,
  "gasLimit": {
    "_hex": "0x2fefd8"
  },
  "gasUsed": {
    "_hex": "0x5208"
  },
  "miner": "0xe6A7a1d47ff21B6321162AEA7C6CB457D5476Bca",
  "extraData": "0x476574682f76312e302e312d38326566323666362f6c696e75782f676f312e34",
  "transactions": [
    {
      "hash": "0x226d6ba92250647b0db169dab7d4fad6de17d93973c55b0c64ae32450c7dfb34",
      "blockHash": "0x4801cb06357ed0cfbbfa51269751c189c65a7c841e56290c03921b038c638c41",
      "blockNumber": 107890,
      "transactionIndex": 0,
      "confirmations": null,
      "from": "0x120A270bbC009644e35F0bB6ab13f95b8199c4ad",
      "gasPrice": {
        "_hex": "0xd8a99f609"
      },
      "gasLimit": {
        "_hex": "0x15f90"
      },
      "to": "0x85eB256B51c819d60eA61a82D12c9358D59c1CAE",
      "value": {
        "_hex": "0x8b5244290f1a81000"
      },
      "nonce": 818,
      "data": "0x",
      "r": "0x2bfb66775202b2761745e08ffce80d5df51c987cdbbb7effea699b9995c61b43",
      "s": "0x39dd980621758684976eaa0db8195914e2763aaa076d72fa20285712ae158d78",
      "v": 28,
      "creates": null,
      "raw": "0xf870820332850d8a99f60983015f909485eb256b51c819d60ea61a82d12c9358d59c1cae8908b5244290f1a81000801ca02bfb66775202b2761745e08ffce80d5df51c987cdbbb7effea699b9995c61b43a039dd980621758684976eaa0db8195914e2763aaa076d72fa20285712ae158d78",
      "networkId": 0,
      "chainId": 0
    }
  ]
}