{
  "hash": "0xc53cf720af25f16fbf03ebd1fafcc49218559d69db5d2cc5f43c55ba64ca83cd",
  "parentHash": "0xf4a236bc43466c2b950ab80e78af6699e16303fc379d4c7403d94af25a7ed74c",
  "number": 108675,
  "timestamp": 1439944394,
  "nonce": "0x843c52dfaf6ec3db",
  "difficulty": 4338210464766,
  "gasLimit": {
    "_hex": "0x2fefd8"
  },
  "gasUsed": {
    "_hex": "0x5208"
  },
  "miner": "0xa50ec0D39fa913E62f1Bae7074E6F36caA71855b",
  "extraData": "0xd783010001844765746887676f312e342e32856c696e7578",
  "transactions": [
    {
      "hash": "0x73621d9d02e784694433a9811c6d0fb52e9b79fd1caf5246adf529b76a3ec8d3",
      "blockHash": "0xc53cf720af25f16fbf03ebd1fafcc49218559d69db5d2cc5f43c55ba64ca83cd",
      "blockNumber": 108675,
      "transactionIndex": 0,
      "confirmations": null,
      "from": "0x886e83d9133F65B9c27A946f699E88e71A888E4C",
      "gasPrice": {
        "_hex": "0xd4ab1ce5c"
      },
      "gasLimit": {
        "_hex": "0x15f90"
      },
      "to": "0xCbbdAd70d0ff27254925AD37B5C135EEe1116615",
      "value": {
        "_hex": "0xde0b6b3a7640000"
      },
      "nonce": 12,
      "data": "0x",
      "r": "0x26a9be1d8e8e550f71f02b875cdc47f18bf33ff417c7da811d6a92fc3ce7f9c9",
      "s": "0x7fb909d9a52be5743bf0782069e6d76de8c3544f59326651e5d9a87c5d008c9e",
      "v": 28,
      "creates": null,
      "raw": "0xf86d0c850d4ab1ce5c83015f9094cbbdad70d0ff27254925ad37b5c135eee1116615880de0b6b3a7640000801ca026a9be1d8e8e550f71f02b875cdc47f18bf33ff417c7da811d6a92fc3ce7f9c9a07fb909d9a52be5743bf0782069e6d76de8c3544f59326651e5d9a87c5d008c9e",
      "networkId": 0,
      "chainId": 0
    }
  ]
}