{
  "hash": "0xf2274e8b71b934d7dc99d9bb3735d8c00785b928bcc22488219ce19e14a78f20",
  "parentHash": "0x6c574195148502098b9b2b6d499d968487e12fd0737f5df96d0b348c5cc8e1b0",
  "number": 66052,
  "timestamp": 1439247763,
  "nonce": "0xc56f703478631c47",
  "difficulty": 1947196368774,
  "gasLimit": {
    "_hex": "0x2fefd5"
  },
  "gasUsed": {
    "_hex": "0xf85a"
  },
  "miner": "0x55bAf64fc9eAccFFd7Cc643BB61142E1C6ac093e",
  "extraData": "0x",
  "transactions": [
    {
      "hash": "0x43715ec4f21b23b4bca473743e647296725f3027474c09353dfa2d092c9f0b78",
      "blockHash": "0xf2274e8b71b934d7dc99d9bb3735d8c00785b928bcc22488219ce19e14a78f20",
      "blockNumber": 66052,
      "transactionIndex": 0,
      "confirmations": null,
      "from": "0x976349705b839e2F5719387Fb27D2519d519da03",
      "gasPrice": {
        "_hex": "0xd583837a2"
      },
      "gasLimit": {
        "_hex": "0x15f90"
      },
      "to": "0x125B606C67E8066Da65069652b656c19717745Fa",
      "value": {
        "_hex": "0x14ad8bceb291fe0"
      },
      "nonce": 8,
      "data": "0xa55526db",
      "r": "0xe62c683405562cca6997357dc5dc6883db56cd931b7a784c05b12556ceef71e9",
      "s": "0x110c1f096d3567f5a7c9aed820899c1fb5b0b1e248094d33a445023e264b487c",
      "v": 28,
      "creates": null,
      "raw": "0xf87108850d583837a283015f9094125b606c67e8066da65069652b656c19717745fa88014ad8bceb291fe084a55526db1ca0e62c683405562cca6997357dc5dc6883db56cd931b7a784c05b12556ceef71e9a0110c1f096d3567f5a7c9aed820899c1fb5b0b1e248094d33a445023e264b487c",
      "networkId": 0,
      "chainId": 0
    },
    {
      "hash": "0xf75c23667c92d838f9f4104fcb848047c3747f566f32b3387b8c29d352fff279",
      "blockHash": "0xf2274e8b71b934d7dc99d9bb3735d8c00785b928bcc22488219ce19e14a78f20",
      "blockNumber": 66052,
      "transactionIndex": 1,
      "confirmations": null,
      "from": "0x976349705b839e2F5719387Fb27D2519d519da03",
      "gasPrice": {
        "_hex": "0xd583837a2"
      },
      "gasLimit": {
        "_hex": "0x15f90"
      },
      "to": "0x125B606C67E8066Da65069652b656c19717745Fa",
      "value": {
        "_hex": "0x14ad8bceb291fe0"
      },
      "nonce": 9,
      "data": "0xa55526db",
      "r": "0x57d7d786d57825066b0ca27e8f5195ffe4248f0bde20ccab905efff373304186",
      "s": "0x53817ed0a53bc6f87fdc9700554003c6bd17284fcc1196a8f7addd7f93fb74f1",
      "v": 28,
      "creates": null,
      "raw": "0xf87109850d583837a283015f9094125b606c67e8066da65069652b656c19717745fa88014ad8bceb291fe084a55526db1ca057d7d786d57825066b0ca27e8f5195ffe4248f0bde20ccab905efff373304186a053817ed0a53bc6f87fdc9700554003c6bd17284fcc1196a8f7addd7f93fb74f1",
      "networkId": 0,
      "chainId": 0
    }
  ]
}