{
  "hash": "0x7a217c9428662b8f79fe1a30800b865ba3afd6eef231eebaaf90a0d55ec9bba9",
  "parentHash": "0x2adc9c8e9abd659df48df251369eecd24a7f32f7e227aa2e60c2edc2a4f34ba2",
  "number": 85196,
  "timestamp": 1439559897,
  "nonce": "0xa0ee80df029b85cc",
  "difficulty": 2745083759027,
  "gasLimit": {
    "_hex": "0x2fefd8"
  },
  "gasUsed": {
    "_hex": "0xa410"
  },
  "miner": "0x88D74a59454F6cF3B51ef6b9136AFb6b9D405A88",
  "extraData": "0x476574682f76312e302e312d37666266393930632f6c696e75782f676f312e34",
  "transactions": [
    {
      "hash": "0x369aa4cafd22312d4f0021b7a8fc797d5a02ff5a79c453a572c7824068acc337",
      "blockHash": "0x7a217c9428662b8f79fe1a30800b865ba3afd6eef231eebaaf90a0d55ec9bba9",
      "blockNumber": 85196,
      "transactionIndex": 0,
      "confirmations": null,
      "from": "0x739f8ab33a41B67952f16778e3CC6D2dEcC3a2d5",
      "gasPrice": {
        "_hex": "0x10b7edc9784"
      },
      "gasLimit": {
        "_hex": "0x15f90"
      },
      "to": "0x0a2b7bfEAaE2E2a8E0b16566F7b707F968938a56",
      "value": {
        "_hex": "0x0"
      },
      "nonce": 2,
      "data": "0x",
      "r": "0x7c6ed1164bd720973d611dbc730738698b47cfe6a93793801860f2baf11c41ea",
      "s": "0x360decf614222d71e403575063f92df970af80e5a139f13ae1a88c3f156ff895",
      "v": 27,
      "creates": null,
      "raw": "0xf8660286010b7edc978483015f90940a2b7bfeaae2e2a8e0b16566f7b707f968938a5680801ba07c6ed1164bd720973d611dbc730738698b47cfe6a93793801860f2baf11c41eaa0360decf614222d71e403575063f92df970af80e5a139f13ae1a88c3f156ff895",
      "networkId": 0,
      "chainId": 0
    },
    {
      "hash": "0xecd4e2d85d67f42543d1481ac511b2208b6d75c94a68dbae90ca37153269dca4",
      "blockHash": "0x7a217c9428662b8f79fe1a30800b865ba3afd6eef231eebaaf90a0d55ec9bba9",
      "blockNumber": 85196,
      "transactionIndex": 1,
      "confirmations": null,
      "from": "0x2910543Af39abA0Cd09dBb2D50200b3E800A63D2",
      "gasPrice": {
        "_hex": "0xd55757480"
      },
      "gasLimit": {
        "_hex": "0x5208"
      },
      "to": "0xeAC8895afdC8eeBb9747C0ec1F0588c51322f93b",
      "value": {
        "_hex": "0x4ceb4ce6bd59df2000"
      },
      "nonce": 593,
      "data": "0x",
      "r": "0x9d0940048b02aebbca87fce908635f093e02558aa444e3c10f40d6509c79cf04",
      "s": "0x165a825bf31f37d4e9c1feeb294cf4db1f034b1aefcc3afab53dbf21c5f9a40a",
      "v": 27,
      "creates": null,
      "raw": "0xf86f820251850d5575748082520894eac8895afdc8eebb9747c0ec1f0588c51322f93b894ceb4ce6bd59df2000801ba09d0940048b02aebbca87fce908635f093e02558aa444e3c10f40d6509c79cf04a0165a825bf31f37d4e9c1feeb294cf4db1f034b1aefcc3afab53dbf21c5f9a40a",
      "networkId": 0,
      "chainId": 0
    }
  ]
}