{
  "hash": "0xb2333e6586941e44ed8cad3232c156966b9026e23755d0b41793beed33733b26",
  "parentHash": "0x79d5aa9beac16f8cc30bc28e3f4f45c5846b1dba4320578897f975744780f86b",
  "number": 74056,
  "timestamp": 1439379676,
  "nonce": "0x7ffc734b628cffc8",
  "difficulty": 2236886348015,
  "gasLimit": {
    "_hex": "0x2fefd2"
  },
  "gasUsed": {
    "_hex": "0xa410"
  },
  "miner": "0x47ff6576639c2e94762eA5443978D7681C0E78DC",
  "extraData": "0x476574682f76312e302e312f6c696e75782f676f312e342e32",
  "transactions": [
    {
      "hash": "0x0e3712381b2f8afaa218232d3dad391865dfe64f09732a9c51e0800d4d8a2b98",
      "blockHash": "0xb2333e6586941e44ed8cad3232c156966b9026e23755d0b41793beed33733b26",
      "blockNumber": 74056,
      "transactionIndex": 0,
      "confirmations": null,
      "from": "0x33A095c66C480D7ceEFafD38b12919632854784F",
      "gasPrice": {
        "_hex": "0x117941640e5"
      },
      "gasLimit": {
        "_hex": "0x7a120"
      },
      "to": "0x83816f103117f26a382c0ED30c21D0CF23f1D687",
      "value": {
        "_hex": "0x1273b027cd5bfff"
      },
      "nonce": 2,
      "data": "0x",
      "r": "0x535d36d334a8e40020dc0ef0c14a25ee60c2708647fddee94de20cadee3810ef",
      "s": "0x40a64997eceabb50c29079b100fd16855d3a25c2d8909e460639fdd6b27179f2",
      "v": 27,
      "creates": null,
      "raw": "0xf86e02860117941640e58307a1209483816f103117f26a382c0ed30c21d0cf23f1d6878801273b027cd5bfff801ba0535d36d334a8e40020dc0ef0c14a25ee60c2708647fddee94de20cadee3810efa040a64997eceabb50c29079b100fd16855d3a25c2d8909e460639fdd6b27179f2",
      "networkId": 0,
      "chainId": 0
    },
    {
      "hash": "0x37ec910a4501b9911cedfd51605d3a510505bf5a213540e351388901dd4a7851",
      "blockHash": "0xb2333e6586941e44ed8cad3232c156966b9026e23755d0b41793beed33733b26",
      "blockNumber": 74056,
      "transactionIndex": 1,
      "confirmations": null,
      "from": "0x7a3193C7532579275d8eD0e2e5680959B06c00F5",
      "gasPrice": {
        "_hex": "0xd7d40ace3"
      },
      "gasLimit": {
        "_hex": "0x15f90"
      },
      "to": "0xA968562027623a2E58669047292f30A9D9fc9c7E",
      "value": {
        "_hex": "0x3830458468a948000"
      },
      "nonce": 3,
      "data": "0x",
      "r": "0xd01ef220ec16720ffe56422cd5b0ce87e3e518f743ef4c14ae05899a22e64624",
      "s": "0x12fc4ebb283f41b940aa0622d8bbfc5456f6b5e13cf1a2615418dd0dbbc5bac2",
      "v": 27,
      "creates": null,
      "raw": "0xf86e03850d7d40ace383015f9094a968562027623a2e58669047292f30a9d9fc9c7e8903830458468a948000801ba0d01ef220ec16720ffe56422cd5b0ce87e3e518f743ef4c14ae05899a22e64624a012fc4ebb283f41b940aa0622d8bbfc5456f6b5e13cf1a2615418dd0dbbc5bac2",
      "networkId": 0,
      "chainId": 0
    }
  ]
}