{
  "hash": "0xc4a2e4bc914fa70087e29ade7a19227e6141763fb29c936eb8462066979dcc02",
  "parentHash": "0xe631c53b696b008dc1ae1d70fffeb5b341d4803a2d0d5c60134ff3d8e8664ffb",
  "number": 106599,
  "timestamp": 1439907261,
  "nonce": "0xa1211f51cf276aba",
  "difficulty": 4477027889569,
  "gasLimit": {
    "_hex": "0x2fefd8"
  },
  "gasUsed": {
    "_hex": "0x5208"
  },
  "miner": "0xbb7B8287f3F0a933474a79eAe42CBCa977791171",
  "extraData": "0x476574682f4c5649562f76312e302e312f6c696e75782f676f312e342e32",
  "transactions": [
    {
      "hash": "0x47863c1535381723cc41adec7432aed22d374ab1dde211edd3a6ac011731b052",
      "blockHash": "0xc4a2e4bc914fa70087e29ade7a19227e6141763fb29c936eb8462066979dcc02",
      "blockNumber": 106599,
      "transactionIndex": 0,
      "confirmations": null,
      "from": "0x790b8a3cE86E707ED0eD32bF89B3269692a23CC1",
      "gasPrice": {
        "_hex": "0xe2b842521"
      },
      "gasLimit": {
        "_hex": "0x15f90"
      },
      "to": "0x4D67f4F0Db45b3B5a3424B39ed8d972F710381D5",
      "value": {
        "_hex": "0x2ec03446cf18e0000"
      },
      "nonce": 37,
      "data": "0x",
      "r": "0x1a836403c1b135cfb819e4a83babd1b42c76af23eac39cef1c2a242b8ce86893",
      "s": "0x262bc5015b043185bc3b84296ae3d7712a1c31f58f9e6f8e9133d91d01b121c5",
      "v": 27,
      "creates": null,
      "raw": "0xf86e25850e2b84252183015f90944d67f4f0db45b3b5a3424b39ed8d972f710381d58902ec03446cf18e0000801ba01a836403c1b135cfb819e4a83babd1b42c76af23eac39cef1c2a242b8ce86893a0262bc5015b043185bc3b84296ae3d7712a1c31f58f9e6f8e9133d91d01b121c5",
      "networkId": 0,
      "chainId": 0
    }
  ]
}