{
  "hash": "0x7ef668eb2a31042e04cfe7a33ee7a45c734ff620d06cad684933bffa123f4d60",
  "parentHash": "0xff9901659c0b2a4c31701b3f1ccbb2b962270622927f0e9abb0c3de75337a853",
  "number": 105448,
  "timestamp": 1439887861,
  "nonce": "0xb6ad8d7c2a94a418",
  "difficulty": 4384609302611,
  "gasLimit": {
    "_hex": "0x2fefd8"
  },
  "gasUsed": {
    "_hex": "0x19a28"
  },
  "miner": "0x157c6f2431eB1a95797EE86F7d17b3c0FD47A247",
  "extraData": "0x476574682f76312e302e312f77696e646f77732f676f312e342e32",
  "transactions": [
    {
      "hash": "0xfd560083e5484f81e4acacb0bf1d8ecdde57f45e1d94901dd00688ad238507cc",
      "blockHash": "0x7ef668eb2a31042e04cfe7a33ee7a45c734ff620d06cad684933bffa123f4d60",
      "blockNumber": 105448,
      "transactionIndex": 0,
      "confirmations": null,
      "from": "0x037658E13e294088Cfd16A534b9C1F3B37282eB2",
      "gasPrice": {
        "_hex": "0xd3982fa64"
      },
      "gasLimit": {
        "_hex": "0x5208"
      },
      "to": "0x32Be343B94f860124dC4fEe278FDCBD38C102D88",
      "value": {
        "_hex": "0x361329682c2b8c00"
      },
      "nonce": 3,
      "data": "0x",
      "r": "0x8a0d726e817156df01d82029bbe87320fd923a1d4ec31816ae49e3091dd57cdc",
      "s": "0x0af8b88d79aa9ecb14f4e05e32802d6d75fae52533d025aeca1f5377886eed1f",
      "v": 28,
      "creates": null,
      "raw": "0xf86c03850d3982fa648252089432be343b94f860124dc4fee278fdcbd38c102d8888361329682c2b8c00801ca08a0d726e817156df01d82029bbe87320fd923a1d4ec31816ae49e3091dd57cdca00af8b88d79aa9ecb14f4e05e32802d6d75fae52533d025aeca1f5377886eed1f",
      "networkId": 0,
      "chainId": 0
    },
    {
      "hash": "0x0f9b70749ba3a696a2863d9c5fa964add743b59f3b746adfd669f01ef3223565",
      "blockHash": "0x7ef668eb2a31042e04cfe7a33ee7a45c734ff620d06cad684933bffa123f4d60",
      "blockNumber": 105448,
      "transactionIndex": 1,
      "confirmations": null,
      "from": "0xe33977E292cceF99Ea8828733e97562F3690a8ad",
      "gasPrice": {
        "_hex": "0xd3982fa64"
      },
      "gasLimit": {
        "_hex": "0x5208"
      },
      "to": "0x32Be343B94f860124dC4fEe278FDCBD38C102D88",
      "value": {
        "_hex": "0x7ef32445b9504c00"
      },
      "nonce": 4,
      "data": "0x",
      "r": "0x8d94f29149f0bb41d33143e339b0e87c8fdb06c833014e25975d255775f210b6",
      "s": "0x486ea76dd3ae0dd22615769881217f82b322525d37a34cb8100b2298cfb51108",
      "v": 28,
      "creates": null,
      "raw": "0xf86c04850d3982fa648252089432be343b94f860124dc4fee278fdcbd38c102d88887ef32445b9504c00801ca08d94f29149f0bb41d33143e339b0e87c8fdb06c833014e25975d255775f210b6a0486ea76dd3ae0dd22615769881217f82b322525d37a34cb8100b2298cfb51108",
      "networkId": 0,
      "chainId": 0
    },
    {
      "hash": "0x630316d5b86613a9afea467eb6dc7fdc4db5ee21c21c7010bff2d104c41f0361",
      "blockHash": "0x7ef668eb2a31042e04cfe7a33ee7a45c734ff620d06cad684933bffa123f4d60",
      "blockNumber": 105448,
      "transactionIndex": 2,
      "confirmations": null,
      "from": "0x2910543Af39abA0Cd09dBb2D50200b3E800A63D2",
      "gasPrice": {
        "_hex": "0xcc91804b2"
      },
      "gasLimit": {
        "_hex": "0x5208"
      },
      "to": "0xFD7c9117BbEB649d9b37B3D3C9917f7c12f526B3",
      "value": {
        "_hex": "0x1cd12788036e207600"
      },
      "nonce": 1026,
      "data": "0x",
      "r": "0x70ff2d45702e52ef6290e0777d3aa2bff1cbfe837fcc5745eb6f9c92b911593c",
      "s": "0x538c797ad880befae53f058318717b999adbe5fe093067dd7f90e9249419ae06",
      "v": 28,
      "creates": null,
      "raw": "0xf86f820402850cc91804b282520894fd7c9117bbeb649d9b37b3d3c9917f7c12f526b3891cd12788036e207600801ca070ff2d45702e52ef6290e0777d3aa2bff1cbfe837fcc5745eb6f9c92b911593ca0538c797ad880befae53f058318717b999adbe5fe093067dd7f90e9249419ae06",
      "networkId": 0,
      "chainId": 0
    },
    {
      "hash": "0xdbc3802cd456692f33ef3ded1e86504574e199d41542a9f63055663b4392dea1",
      "blockHash": "0x7ef668eb2a31042e04cfe7a33ee7a45c734ff620d06cad684933bffa123f4d60",
      "blockNumber": 105448,
      "transactionIndex": 3,
      "confirmations": null,
      "from": "0x2910543Af39abA0Cd09dBb2D50200b3E800A63D2",
      "gasPrice": {
        "_hex": "0xcc91804b2"
      },
      "gasLimit": {
        "_hex": "0x5208"
      },
      "to": "0x9Df360518f39eFB9729De3B6f9f1225f542c63E6",
      "value": {
        "_hex": "0xbdbc301cbb534f8000"
      },
      "nonce": 1027,
      "data": "0x",
      "r": "0xaa3a7d1a93886809bf6f0b84a98bdc3539b714dd26926d6cdce4765d6a52cd3b",
      "s": "0x26a894211ca87bcf28d67845f6a0ffa3afe45fb9033e8c8edeaec56eec1143e2",
      "v": 28,
      "creates": null,
      "raw": "0xf86f820403850cc91804b2825208949df360518f39efb9729de3b6f9f1225f542c63e689bdbc301cbb534f8000801ca0aa3a7d1a93886809bf6f0b84a98bdc3539b714dd26926d6cdce4765d6a52cd3ba026a894211ca87bcf28d67845f6a0ffa3afe45fb9033e8c8edeaec56eec1143e2",
      "networkId": 0,
      "chainId": 0
    },
    {
      "hash": "0x7b32dca007a00be1483d5b62983c3496c536e3731e3872fa37e69608797b6341",
      "blockHash": "0x7ef668eb2a31042e04cfe7a33ee7a45c734ff620d06cad684933bffa123f4d60",
      "blockNumber": 105448,
      "transactionIndex": 4,
      "confirmations": null,
      "from": "0x2910543Af39abA0Cd09dBb2D50200b3E800A63D2",
      "gasPrice": {
        "_hex": "0xcc91804b2"
      },
      "gasLimit": {
        "_hex": "0x5208"
      },
      "to": "0xB6Cc54EB0ad5452f98ec2Be0a901B41e26a77b3B",
      "value": {
        "_hex": "0xdcef33a6f838000"
      },
      "nonce": 1028,
      "data": "0x",
      "r": "0x8759b6037f5d827c4f9a7708ab62c0131d8f99979423b7aa8a85204c58b0f62e",
      "s": "0x5217ce748f9fb29c6b12b3142d722821bc55b2238f4109139ef0125995a624d1",
      "v": 27,
      "creates": null,
      "raw": "0xf86e820404850cc91804b282520894b6cc54eb0ad5452f98ec2be0a901b41e26a77b3b880dcef33a6f838000801ba08759b6037f5d827c4f9a7708ab62c0131d8f99979423b7aa8a85204c58b0f62ea05217ce748f9fb29c6b12b3142d722821bc55b2238f4109139ef0125995a624d1",
      "networkId": 0,
      "chainId": 0
    }
  ]
}