{
  "hash": "0xf68e54ddf4623bc918a4a79e3bf6818280b3bebb7efab834a3df2e5e13a77252",
  "parentHash": "0x234e646982e540f05adf48df3aebde6db010ca75e1e33d78873b7b7baf76c3df",
  "number": 64909,
  "timestamp": 1439228247,
  "nonce": "0xf462d9e8bb1edcc5",
  "difficulty": 1908862093214,
  "gasLimit": {
    "_hex": "0x2fefd8"
  },
  "gasUsed": {
    "_hex": "0x5208"
  },
  "miner": "0x123843545FB525C8E134c9A5F15ADA6865cc3848",
  "extraData": "0x476574682f76312e302e312f77696e646f77732f676f312e342e32",
  "transactions": [
    {
      "hash": "0x80f3796363d90beabb605fc7358c97b95166e24d46d7fba528a9a6edcb16b42c",
      "blockHash": "0xf68e54ddf4623bc918a4a79e3bf6818280b3bebb7efab834a3df2e5e13a77252",
      "blockNumber": 64909,
      "transactionIndex": 0,
      "confirmations": null,
      "from": "0xc0bd063969F1e0C8B8AB74601488cD68155019Ef",
      "gasPrice": {
        "_hex": "0xba43b7400"
      },
      "gasLimit": {
        "_hex": "0x5208"
      },
      "to": "0x70cc0dB519BcA4E67aEE568550c9f427546fBDF6",
      "value": {
        "_hex": "0xc1c23435b07000"
      },
      "nonce": 1,
      "data": "0x",
      "r": "0xb765da4f0c1e0ff7a729c2473bbdd8a02840117a480873be982615ccf62d8c14",
      "s": "0x0aade0c0b4fa742dd5a86e62d2ee63b990df4918c6b3a1261f66e170e3a84c33",
      "v": 27,
      "creates": null,
      "raw": "0xf86b01850ba43b74008252089470cc0db519bca4e67aee568550c9f427546fbdf687c1c23435b07000801ba0b765da4f0c1e0ff7a729c2473bbdd8a02840117a480873be982615ccf62d8c14a00aade0c0b4fa742dd5a86e62d2ee63b990df4918c6b3a1261f66e170e3a84c33",
      "networkId": 0,
      "chainId": 0
    }
  ]
}