{
  "hash": "0xd68e7445065f2d4d9449fd357c8d77495dcac5197aed540999329a886746e6ec",
  "parentHash": "0xd872acb6c287d6d916358163b95521eff8997d93d3fd2df82d6e75540e0082be",
  "number": 93560,
  "timestamp": 1439693099,
  "nonce": "0xba5027ce1f47f0e8",
  "difficulty": 3466652877192,
  "gasLimit": {
    "_hex": "0x2fefd8"
  },
  "gasUsed": {
    "_hex": "0x5208"
  },
  "miner": "0xeB1325C8D9d3ea8D74aC11F4B00F1B2367686319",
  "extraData": "0x476574682f76312e302e312f77696e646f77732f676f312e342e32",
  "transactions": [
    {
      "hash": "0x68c7224520e14ef871564ec784c9d8094313adac43b9bfaea3ced1106644c67f",
      "blockHash": "0xd68e7445065f2d4d9449fd357c8d77495dcac5197aed540999329a886746e6ec",
      "blockNumber": 93560,
      "transactionIndex": 0,
      "confirmations": null,
      "from": "0xD9666150A9dA92d9108198a4072970805a8B3428",
      "gasPrice": {
        "_hex": "0xd3a7861ad"
      },
      "gasLimit": {
        "_hex": "0x5208"
      },
      "to": "0x32Be343B94f860124dC4fEe278FDCBD38C102D88",
      "value": {
        "_hex": "0x1236ab52fec3f0000"
      },
      "nonce": 10,
      "data": "0x",
      "r": "0x10782da4f16a905b37f05a587a5c88bb3d2c7bdf6f6584655b5fc3f36f6c5eea",
      "s": "0x274c4d2f32b10b4e388f6ce2b94b392d32563832cc2fb071740f1a51aaa46d85",
      "v": 27,
      "creates": null,
      "raw": "0xf86d0a850d3a7861ad8252089432be343b94f860124dc4fee278fdcbd38c102d888901236ab52fec3f0000801ba010782da4f16a905b37f05a587a5c88bb3d2c7bdf6f6584655b5fc3f36f6c5eeaa0274c4d2f32b10b4e388f6ce2b94b392d32563832cc2fb071740f1a51aaa46d85",
      "networkId": 0,
      "chainId": 0
    }
  ]
}