{
  "hash": "0xe4c2d3b58a95eb8831b997e610ea4f5c59810fb13ef9dc357381aa3c9ee83c87",
  "parentHash": "0x34be984c8cd0e2df697467794bbfe2f455ce7665efe04455f990ce2b534a8993",
  "number": 96752,
  "timestamp": 1439745108,
  "nonce": "0xa80aedeed8574a18",
  "difficulty": 3765259724141,
  "gasLimit": {
    "_hex": "0x2fefd8"
  },
  "gasUsed": {
    "_hex": "0x5208"
  },
  "miner": "0xB06c47325B63091CF8555d4709bC8fA20AAE1E49",
  "extraData": "0x476574682f76312e302e312d38326566323666362f6c696e75782f676f312e34",
  "transactions": [
    {
      "hash": "0xb88499527e5256bc98297c61935dff6aecbcdf9b8ab51ea36bd502dfef8acf1e",
      "blockHash": "0xe4c2d3b58a95eb8831b997e610ea4f5c59810fb13ef9dc357381aa3c9ee83c87",
      "blockNumber": 96752,
      "transactionIndex": 0,
      "confirmations": null,
      "from": "0x007f7f58D3eb5b7510A301eCC749FC1fCDDBE14D",
      "gasPrice": {
        "_hex": "0xe308e1d1f"
      },
      "gasLimit": {
        "_hex": "0x15f90"
      },
      "to": "0xb1abce2918E21ddb93AA452731a12672A3d9F75a",
      "value": {
        "_hex": "0x4563918244f40000"
      },
      "nonce": 87,
      "data": "0x",
      "r": "0xd04456d42a8995c9e4bd490bd8313546ac4c0a3b9c39c866b49139de93e4d55d",
      "s": "0x057942cc1ac0682f126009c839a9f9167b3c7c65a290cd5a0060f8fc9cd2e5ec",
      "v": 28,
      "creates": null,
      "raw": "0xf86d57850e308e1d1f83015f9094b1abce2918e21ddb93aa452731a12672a3d9f75a884563918244f40000801ca0d04456d42a8995c9e4bd490bd8313546ac4c0a3b9c39c866b49139de93e4d55da0057942cc1ac0682f126009c839a9f9167b3c7c65a290cd5a0060f8fc9cd2e5ec",
      "networkId": 0,
      "chainId": 0
    }
  ]
}