{
  "hash": "0x930764a41ee161676dd8978c80aca9a871bbdda4b0c4083686d47cd473bc6220",
  "parentHash": "0x5e0eedf8bc1333fb7de88f3d05058b25d9a5c9f4fafdbc2a65ee847e11a00df4",
  "number": 98457,
  "timestamp": 1439773111,
  "nonce": "0x6a6856415626efab",
  "difficulty": 3870739694475,
  "gasLimit": {
    "_hex": "0x2fefd8"
  },
  "gasUsed": {
    "_hex": "0x802e"
  },
  "miner": "0xe6A7a1d47ff21B6321162AEA7C6CB457D5476Bca",
  "extraData": "0x476574682f76312e302e312d38326566323666362f6c696e75782f676f312e34",
  "transactions": [
    {
      "hash": "0x8ae1bce9e598b81e37229cb9ee7f786f031cb1ec7a3ecc95e808c3be6f4e7441",
      "blockHash": "0x930764a41ee161676dd8978c80aca9a871bbdda4b0c4083686d47cd473bc6220",
      "blockNumber": 98457,
      "transactionIndex": 0,
      "confirmations": null,
      "from": "0xC4c6bAF00209a0f33331e4B7cb1c7B680A3d2F79",
      "gasPrice": {
        "_hex": "0xd6d863a83"
      },
      "gasLimit": {
        "_hex": "0x15f90"
      },
      "to": "0xAd8d3a5d2d92EB14bB56CA9f380be35b8EFE0c04",
      "value": {
        "_hex": "0x0"
      },
      "nonce": 18,
      "data": "0x3feb1bd8585858585858585858000000000000000000000000000000000000000000000000000000000000000000000030475463369f8f18ec9724ed53f1b71f24ec48b20000000000000000000000000000000000000000000000000dbd2fc137a30000",
      "r": "0xa72c9fa8ccbe8e41ab57a17145fd4d24a9389baec609107c728581b289509392",
      "s": "0x56a3a6a0cccda1a7844ecac4dba9edaddd2025903dd51d9f407cefeae7f8745c",
      "v": 28,
      "creates": null,
      "raw": "0xf8ca12850d6d863a8383015f9094ad8d3a5d2d92eb14bb56ca9f380be35b8efe0c0480b8643feb1bd8585858585858585858000000000000000000000000000000000000000000000000000000000000000000000030475463369f8f18ec9724ed53f1b71f24ec48b20000000000000000000000000000000000000000000000000dbd2fc137a300001ca0a72c9fa8ccbe8e41ab57a17145fd4d24a9389baec609107c728581b289509392a056a3a6a0cccda1a7844ecac4dba9edaddd2025903dd51d9f407cefeae7f8745c",
      "networkId": 0,
      "chainId": 0
    }
  ]
}