{
  "hash": "0x8d5facc04c06e41c13fd57a0e4b9c7e313d7028b0e10a230bba1f7a72471a9aa",
  "parentHash": "0xbf35e094296dfe5ac8103790d2c5e14fbe7730c69f139538876f72a8ddd9aee4",
  "number": 73922,
  "timestamp": 1439377471,
  "nonce": "0xd4261c3dd3326734",
  "difficulty": 2226026231309,
  "gasLimit": {
    "_hex": "0x2fefd8"
  },
  "gasUsed": {
    "_hex": "0x5208"
  },
  "miner": "0xF2d2AfF1320476cb8C6b607199D23175cc595693",
  "extraData": "0x476574682f76312e302e312f77696e646f77732f676f312e342e32",
  "transactions": [
    {
      "hash": "0x6998fa2fdadc99adacfaa9c1b6ee08232ee48b6467493e3b10d74f447de07038",
      "blockHash": "0x8d5facc04c06e41c13fd57a0e4b9c7e313d7028b0e10a230bba1f7a72471a9aa",
      "blockNumber": 73922,
      "transactionIndex": 0,
      "confirmations": null,
      "from": "0xdEC7d1B05f89c0Ce0870Ea4AeA18138264675478",
      "gasPrice": {
        "_hex": "0xdee31f457"
      },
      "gasLimit": {
        "_hex": "0x5208"
      },
      "to": "0x32Be343B94f860124dC4fEe278FDCBD38C102D88",
      "value": {
        "_hex": "0x4b729c3e392150000"
      },
      "nonce": 0,
      "data": "0x",
      "r": "0x11986ddb8b34bbfa01526476d16dc662b94356e4b01ac60d7c2d52ab3aeac63f",
      "s": "0x53b40ebfb6967c13ec5e8e313dba9b592a9cd537148f8de0326808bafc726782",
      "v": 28,
      "creates": null,
      "raw": "0xf86d80850dee31f4578252089432be343b94f860124dc4fee278fdcbd38c102d888904b729c3e392150000801ca011986ddb8b34bbfa01526476d16dc662b94356e4b01ac60d7c2d52ab3aeac63fa053b40ebfb6967c13ec5e8e313dba9b592a9cd537148f8de0326808bafc726782",
      "networkId": 0,
      "chainId": 0
    }
  ]
}