{
  "hash": "0x43757f89bca38edd4b4948abc13caa3eaf87cc4f0c691eb0a4bb40ef527ec6b7",
  "parentHash": "0x6606d5f83b8a120f9607d29d7ede78642feaeec370819ab75f718777f9297a90",
  "number": 90912,
  "timestamp": 1439647350,
  "nonce": "0xa7b7e822574e4910",
  "difficulty": 3413984911401,
  "gasLimit": {
    "_hex": "0x2fefd8"
  },
  "gasUsed": {
    "_hex": "0x5208"
  },
  "miner": "0x7E6930B63D03e88F5928C5cd6ee3FCee4D714F7F",
  "extraData": "0x",
  "transactions": [
    {
      "hash": "0x89bc8b93bbbeb411d43b52ea765a7197093e256560a20b957d5bd1f7bd167eee",
      "blockHash": "0x43757f89bca38edd4b4948abc13caa3eaf87cc4f0c691eb0a4bb40ef527ec6b7",
      "blockNumber": 90912,
      "transactionIndex": 0,
      "confirmations": null,
      "from": "0xaFF2628417768132E1d04f605Fe1e797f2ECA3F8",
      "gasPrice": {
        "_hex": "0x746a528800"
      },
      "gasLimit": {
        "_hex": "0x5b04"
      },
      "to": "0x1467bcfA961fE8067c779935a78B4a73E7393BD8",
      "value": {
        "_hex": "0x2b05699353b60000"
      },
      "nonce": 4,
      "data": "0x",
      "r": "0x1d4135efe329d22fc6806e1ee9c0a5f366ef5b51b38e8c3a288dbad82209e277",
      "s": "0xceb99b20afa86fdf68fd0aeddbfc2021f3e3c439b1afafdf9feecdf1414cea7e",
      "v": 27,
      "creates": null,
      "raw": "0xf86c0485746a528800825b04941467bcfa961fe8067c779935a78b4a73e7393bd8882b05699353b60000801ba01d4135efe329d22fc6806e1ee9c0a5f366ef5b51b38e8c3a288dbad82209e277a0ceb99b20afa86fdf68fd0aeddbfc2021f3e3c439b1afafdf9feecdf1414cea7e",
      "networkId": 0,
      "chainId": 0
    }
  ]
}