{
  "hash": "0x30df6d9a9261e2be7377befe2afad2756107ec81e92e87e6a15f67e2e826d5ec",
  "parentHash": "0x25275cd15859994b0de3fcc94a621753def7892a17d5ec4887af0eadac09d6e9",
  "number": 100067,
  "timestamp": 1439800075,
  "nonce": "0xc7f0e24688993420",
  "difficulty": 3851146454807,
  "gasLimit": {
    "_hex": "0x2fefd8"
  },
  "gasUsed": {
    "_hex": "0x5208"
  },
  "miner": "0xeB1325C8D9d3ea8D74aC11F4B00F1B2367686319",
  "extraData": "0x",
  "transactions": [
    {
      "hash": "0x188b87b01ad5dee94e51cbc8c52286cb07a861793e3a4002b927d5b2bbf79c95",
      "blockHash": "0x30df6d9a9261e2be7377befe2afad2756107ec81e92e87e6a15f67e2e826d5ec",
      "blockNumber": 100067,
      "transactionIndex": 0,
      "confirmations": null,
      "from": "0xCadcea36EC3feB740167E4370777fab1549F8759",
      "gasPrice": {
        "_hex": "0xd5fe783f9"
      },
      "gasLimit": {
        "_hex": "0x5208"
      },
      "to": "0x32Be343B94f860124dC4fEe278FDCBD38C102D88",
      "value": {
        "_hex": "0x33f458fe6b7cc000"
      },
      "nonce": 7,
      "data": "0x",
      "r": "0xf78ab96cb834c60b431c4aa5a8082e7c3ef5ba3e2d404c07808b6b4d0b29a68f",
      "s": "0x465b066f26132a8f315e3bfb1b2aff371a46cbe62865adcf9c62dc36e320bdc0",
      "v": 28,
      "creates": null,
      "raw": "0xf86c07850d5fe783f98252089432be343b94f860124dc4fee278fdcbd38c102d888833f458fe6b7cc000801ca0f78ab96cb834c60b431c4aa5a8082e7c3ef5ba3e2d404c07808b6b4d0b29a68fa0465b066f26132a8f315e3bfb1b2aff371a46cbe62865adcf9c62dc36e320bdc0",
      "networkId": 0,
      "chainId": 0
    }
  ]
}