{
  "hash": "0x7f4df3771642ec2803ddff3554836796b71ecfd55a942a66259841664d010848",
  "parentHash": "0x4b637bbc45a69e3eec015434d6f7ff61d924d934296ea838341abb68c3506eb4",
  "number": 71690,
  "timestamp": 1439340113,
  "nonce": "0x9fdc403dd33eee39",
  "difficulty": 2183551894821,
  "gasLimit": {
    "_hex": "0x2fefd8"
  },
  "gasUsed": {
    "_hex": "0xae73"
  },
  "miner": "0xe6A7a1d47ff21B6321162AEA7C6CB457D5476Bca",
  "extraData": "0x476574682f76312e302e312d38326566323666362f6c696e75782f676f312e34",
  "transactions": [
    {
      "hash": "0x090096ebb3ec847e9db011dbaddc903ff3cfc9ece2a28a150c395da1e3079543",
      "blockHash": "0x7f4df3771642ec2803ddff3554836796b71ecfd55a942a66259841664d010848",
      "blockNumber": 71690,
      "transactionIndex": 0,
      "confirmations": null,
      "from": "0x17580B766f7453525ca4C6A88b01b50570EA088C",
      "gasPrice": {
        "_hex": "0xd8f9f4db5"
      },
      "gasLimit": {
        "_hex": "0x61a80"
      },
      "to": "0x5Fe5B7546D1628f7348B023A0393de1FC825A4fD",
      "value": {
        "_hex": "0x6f05b59d3b200000"
      },
      "nonce": 257,
      "data": "0xb595b8b50000000000000000000000000000000000000000000000000000000000000000",
      "r": "0x23a427b45948e1cbad7eac96f08040fd97b66b0e908dee796701662bf0db9c49",
      "s": "0x6e994f34a65b31d197ac87e22704a7eacc5f3ea9f965f548a3511fb003298da8",
      "v": 28,
      "creates": null,
      "raw": "0xf893820101850d8f9f4db583061a80945fe5b7546d1628f7348b023a0393de1fc825a4fd886f05b59d3b200000a4b595b8b500000000000000000000000000000000000000000000000000000000000000001ca023a427b45948e1cbad7eac96f08040fd97b66b0e908dee796701662bf0db9c49a06e994f34a65b31d197ac87e22704a7eacc5f3ea9f965f548a3511fb003298da8",
      "networkId": 0,
      "chainId": 0
    }
  ]
}