{
  "hash": "0x3117404af7f782792df23d926050581bd28f27be39d5aa759346f5b471fa0eec",
  "parentHash": "0x91e9aa151de4c9241198a5a288e8c5ab0ee7f33ca661fe9c5d4feaa5549457a9",
  "number": 114593,
  "timestamp": 1440043013,
  "nonce": "0xc11050a9ef40e570",
  "difficulty": 4503443775910,
  "gasLimit": {
    "_hex": "0x2fefd8"
  },
  "gasUsed": {
    "_hex": "0x5208"
  },
  "miner": "0x790b8a3cE86E707ED0eD32bF89B3269692a23CC1",
  "extraData": "0xd783010001844765746887676f312e342e32856c696e7578",
  "transactions": [
    {
      "hash": "0xc10f5c154e8e0c132972922a6e5006efc0a94b7e2ad941344c15b0ec8f8b861d",
      "blockHash": "0x3117404af7f782792df23d926050581bd28f27be39d5aa759346f5b471fa0eec",
      "blockNumber": 114593,
      "transactionIndex": 0,
      "confirmations": null,
      "from": "0x02020D22dCF88f5eDd66B382D7da019F161fB7e3",
      "gasPrice": {
        "_hex": "0xcf9a28df3"
      },
      "gasLimit": {
        "_hex": "0x15f90"
      },
      "to": "0x4FCD326ae0739D0DA0fC71020adb6aBf9abf3BdA",
      "value": {
        "_hex": "0xde0b6b3a7640000"
      },
      "nonce": 32,
      "data": "0x",
      "r": "0xa72f5d406de4dc74f4b09e225a3cd200a24df63035f7805d6cc83f6062098e74",
      "s": "0x546c9768e7486a1fe5add0f468dd33ed06ce2710cc7176c99a4b58c04b420ab1",
      "v": 28,
      "creates": null,
      "raw": "0xf86d20850cf9a28df383015f90944fcd326ae0739d0da0fc71020adb6abf9abf3bda880de0b6b3a7640000801ca0a72f5d406de4dc74f4b09e225a3cd200a24df63035f7805d6cc83f6062098e74a0546c9768e7486a1fe5add0f468dd33ed06ce2710cc7176c99a4b58c04b420ab1",
      "networkId": 0,
      "chainId": 0
    }
  ]
}