{
  "hash": "0x9869c99684ce473b3d4b176e4282da49f4d05e72d962e4aaaa44012e0deff571",
  "parentHash": "0xf72d7ef7282ffbef5dde18f939136aa9f2d11fe205ccbaba676b07acc64a2404",
  "number": 100881,
  "timestamp": 1439813877,
  "nonce": "0x373de1f2c60d4e1d",
  "difficulty": 3862070875268,
  "gasLimit": {
    "_hex": "0x2fefd8"
  },
  "gasUsed": {
    "_hex": "0xa410"
  },
  "miner": "0xe6A7a1d47ff21B6321162AEA7C6CB457D5476Bca",
  "extraData": "0x476574682f76312e302e312d38326566323666362f6c696e75782f676f312e34",
  "transactions": [
    {
      "hash": "0xf0693f9bf84744353f32be20ce146fa6cbf7a2f04a05624156bdde2caaa10a24",
      "blockHash": "0x9869c99684ce473b3d4b176e4282da49f4d05e72d962e4aaaa44012e0deff571",
      "blockNumber": 100881,
      "transactionIndex": 0,
      "confirmations": null,
      "from": "0x629e35e0A481d821293F354E0dD27E43a354D061",
      "gasPrice": {
        "_hex": "0xd61619f52"
      },
      "gasLimit": {
        "_hex": "0x5208"
      },
      "to": "0x32Be343B94f860124dC4fEe278FDCBD38C102D88",
      "value": {
        "_hex": "0xc76d2cde77007000"
      },
      "nonce": 5,
      "data": "0x",
      "r": "0x84c3359f01e51715be7f50d3ec8680082aa40fc814e6936ad079f018c59cacba",
      "s": "0x407ad1e98bfc3fbc319d0901bd141128fcfe9db06eea72973d910d3c53e60525",
      "v": 27,
      "creates": null,
      "raw": "0xf86c05850d61619f528252089432be343b94f860124dc4fee278fdcbd38c102d8888c76d2cde77007000801ba084c3359f01e51715be7f50d3ec8680082aa40fc814e6936ad079f018c59cacbaa0407ad1e98bfc3fbc319d0901bd141128fcfe9db06eea72973d910d3c53e60525",
      "networkId": 0,
      "chainId": 0
    },
    {
      "hash": "0xd6fa6aafe0770cf8c2fa481662a6b1a240d9255be8e78cfe1c46fab31b2b1f59",
      "blockHash": "0x9869c99684ce473b3d4b176e4282da49f4d05e72d962e4aaaa44012e0deff571",
      "blockNumber": 100881,
      "transactionIndex": 1,
      "confirmations": null,
      "from": "0x3D5292e9d2a2D31014717ff936A0F9375A5Cc8b7",
      "gasPrice": {
        "_hex": "0xce18039ba"
      },
      "gasLimit": {
        "_hex": "0x15f90"
      },
      "to": "0x9f78552704fe7e52cC7C3853534aA2C3cf580D54",
      "value": {
        "_hex": "0x4563918244f40000"
      },
      "nonce": 12,
      "data": "0x",
      "r": "0x7e68d493b3b038bcc23ac27430394bb404a4017c886c8ab215238458c7d7b200",
      "s": "0x6b5554fc46488a73258c9570605f5a39c618d15c7c5b94e06fb2f15e63868480",
      "v": 27,
      "creates": null,
      "raw": "0xf86d0c850ce18039ba83015f90949f78552704fe7e52cc7c3853534aa2c3cf580d54884563918244f40000801ba07e68d493b3b038bcc23ac27430394bb404a4017c886c8ab215238458c7d7b200a06b5554fc46488a73258c9570605f5a39c618d15c7c5b94e06fb2f15e63868480",
      "networkId": 0,
      "chainId": 0
    }
  ]
}