{
  "hash": "0x3da49bee9ee79c7cfd33fc263dc862b11b0e8f2fbbc2c9f0848fb94852621c17",
  "parentHash": "0x2d6b971df4d390b276de92a5b9663070eaf77aab3429860433d5d435c2227071",
  "number": 47775,
  "timestamp": 1438946078,
  "nonce": "0x8c661f96f8779d1d",
  "difficulty": 1453734481311,
  "gasLimit": {
    "_hex": "0xf103"
  },
  "gasUsed": {
    "_hex": "0xa410"
  },
  "miner": "0x8B454d830feF179e66206840F8F3D1d83bC32b17",
  "extraData": "0x476574682f76312e302e312f77696e646f77732f676f312e342e32",
  "transactions": [
    {
      "hash": "0x547c019ff492423bde6a0ba2100a92340b10c863a699d1264524c0cde5a18165",
      "blockHash": "0x3da49bee9ee79c7cfd33fc263dc862b11b0e8f2fbbc2c9f0848fb94852621c17",
      "blockNumber": 47775,
      "transactionIndex": 0,
      "confirmations": null,
      "from": "0xe6A7a1d47ff21B6321162AEA7C6CB457D5476Bca",
      "gasPrice": {
        "_hex": "0xdf4f0482e"
      },
      "gasLimit": {
        "_hex": "0x55f0"
      },
      "to": "0xFEE35B63dDf7Dc99780822995745dFc245a58fb3",
      "value": {
        "_hex": "0x455b75ce367bdc28"
      },
      "nonce": 227,
      "data": "0x",
      "r": "0x0b4abcba3e88d1c482f80cd43d22916faf81153749716395a7a8cf6f104129be",
      "s": "0x77992d898042563a3a4742a7247347c5c7fefb8f8a75d1b04a5c44f1d8338aef",
      "v": 27,
      "creates": null,
      "raw": "0xf86d81e3850df4f0482e8255f094fee35b63ddf7dc99780822995745dfc245a58fb388455b75ce367bdc28801ba00b4abcba3e88d1c482f80cd43d22916faf81153749716395a7a8cf6f104129bea077992d898042563a3a4742a7247347c5c7fefb8f8a75d1b04a5c44f1d8338aef",
      "networkId": 0,
      "chainId": 0
    },
    {
      "hash": "0xdb89e63a4f7cfb923a957ad9f691542b1d55366e60f98d17a93ef6b4dfa7d605",
      "blockHash": "0x3da49bee9ee79c7cfd33fc263dc862b11b0e8f2fbbc2c9f0848fb94852621c17",
      "blockNumber": 47775,
      "transactionIndex": 1,
      "confirmations": null,
      "from": "0xe6A7a1d47ff21B6321162AEA7C6CB457D5476Bca",
      "gasPrice": {
        "_hex": "0xdd19a2c50"
      },
      "gasLimit": {
        "_hex": "0x55f0"
      },
      "to": "0xcC2E1dcD8A127A7c8EE16B0a75E234D216a34eA7",
      "value": {
        "_hex": "0x4d9cc59a9801ca38"
      },
      "nonce": 228,
      "data": "0x",
      "r": "0x019ebdcd87356e3961b761e3c54690f1c7c27f5f6bed71e4190551e4545a8ed0",
      "s": "0x00e1fae217b8cf97acc8d8aec00f6a72ff49b55864cac326e6ef558e05435ce4",
      "v": 28,
      "creates": null,
      "raw": "0xf86c81e4850dd19a2c508255f094cc2e1dcd8a127a7c8ee16b0a75e234d216a34ea7884d9cc59a9801ca38801ca0019ebdcd87356e3961b761e3c54690f1c7c27f5f6bed71e4190551e4545a8ed09fe1fae217b8cf97acc8d8aec00f6a72ff49b55864cac326e6ef558e05435ce4",
      "networkId": 0,
      "chainId": 0
    }
  ]
}