{
  "hash": "0xa59f0976a179007150d66c825e3ce19b971ec416e6d41b5987d0cb5e5d43d08a",
  "parentHash": "0xb98ff9d298b1e3a92e649a9a24a9af7cc2cb087cd06910c8bf8ae1cb26766111",
  "number": 73096,
  "timestamp": 1439362928,
  "nonce": "0x4b3849174b68affd",
  "difficulty": 2226245431969,
  "gasLimit": {
    "_hex": "0x2fefd8"
  },
  "gasUsed": {
    "_hex": "0x5208"
  },
  "miner": "0x580992B51e3925e23280EfB93d3047C82f17E038",
  "extraData": "0x476574682f76312e302e312f6c696e75782f676f312e342e32",
  "transactions": [
    {
      "hash": "0x5d8bb892e8140e947b72904667fac16c8b23366976ccd970cfcbaa71eb46dadb",
      "blockHash": "0xa59f0976a179007150d66c825e3ce19b971ec416e6d41b5987d0cb5e5d43d08a",
      "blockNumber": 73096,
      "transactionIndex": 0,
      "confirmations": null,
      "from": "0x2C89f5FDcA3D155409b638B98A742E55eb4652B7",
      "gasPrice": {
        "_hex": "0x9184e72a000"
      },
      "gasLimit": {
        "_hex": "0x15f90"
      },
      "to": "0x1308A2e95c0160B90803ddCA9B9a5bb55E416d79",
      "value": {
        "_hex": "0x1b1ae4d6e2ef5000000"
      },
      "nonce": 22,
      "data": "0x",
      "r": "0x8d5e5ec1a5a5eead7e06b488666460c5b82a5977b161cafd5a3ca54f2a49ee8d",
      "s": "0x7654e4a73c5725bef9b3d2f3f8608850f6bfbc8994b7d92e6075c4574b13b8e8",
      "v": 28,
      "creates": null,
      "raw": "0xf870168609184e72a00083015f90941308a2e95c0160b90803ddca9b9a5bb55e416d798a01b1ae4d6e2ef5000000801ca08d5e5ec1a5a5eead7e06b488666460c5b82a5977b161cafd5a3ca54f2a49ee8da07654e4a73c5725bef9b3d2f3f8608850f6bfbc8994b7d92e6075c4574b13b8e8",
      "networkId": 0,
      "chainId": 0
    }
  ]
}