{
  "hash": "0x97d16bbc1f2a5dd40f5daf79d9fdba51e0988e435127f784a7993bc0304e8a4c",
  "parentHash": "0xba42c9b8e24a40cb726c438d5ecdfb4b611c02443d0d68f8fb03ee68fb854bbd",
  "number": 65181,
  "timestamp": 1439232480,
  "nonce": "0xd0b9d4717a0a7ffa",
  "difficulty": 1946447913039,
  "gasLimit": {
    "_hex": "0x2fefd8"
  },
  "gasUsed": {
    "_hex": "0x17cd8"
  },
  "miner": "0xf927a40C8B7F6E07c5af7FA2155B4864a4112B13",
  "extraData": "0x",
  "transactions": [
    {
      "hash": "0x2f6d4ebdf97cf67b9baafba0da467b135d01ad0d087a4dda995753578a17686b",
      "blockHash": "0x97d16bbc1f2a5dd40f5daf79d9fdba51e0988e435127f784a7993bc0304e8a4c",
      "blockNumber": 65181,
      "transactionIndex": 0,
      "confirmations": null,
      "from": "0x1A7c36e0787d99b10651C5f5dEB384D484A86760",
      "gasPrice": {
        "_hex": "0xba43b7400"
      },
      "gasLimit": {
        "_hex": "0x15f90"
      },
      "to": "0x793AE8C1b1a160BFc07BFB0d04F85eab1A71F4f2",
      "value": {
        "_hex": "0x0"
      },
      "nonce": 0,
      "data": "0x3ba15036",
      "r": "0x2f81d915d0a2971eec8d8d375b6381f4d625984307c178f273b437bfc1b488c1",
      "s": "0x6ed03cff95784dd659d61cfe66e6beb91e0f4bc45dbc0677f347647ab60f0993",
      "v": 27,
      "creates": null,
      "raw": "0xf86980850ba43b740083015f9094793ae8c1b1a160bfc07bfb0d04f85eab1a71f4f280843ba150361ba02f81d915d0a2971eec8d8d375b6381f4d625984307c178f273b437bfc1b488c1a06ed03cff95784dd659d61cfe66e6beb91e0f4bc45dbc0677f347647ab60f0993",
      "networkId": 0,
      "chainId": 0
    },
    {
      "hash": "0x4caafa12b80c592705d4446ace3919767ed7599a35f08c76fbf41ee5d83ef894",
      "blockHash": "0x97d16bbc1f2a5dd40f5daf79d9fdba51e0988e435127f784a7993bc0304e8a4c",
      "blockNumber": 65181,
      "transactionIndex": 1,
      "confirmations": null,
      "from": "0xab894Bf7393f489a69bAF52A0AdD4f93632BA8C1",
      "gasPrice": {
        "_hex": "0xba43b7400"
      },
      "gasLimit": {
        "_hex": "0x15f90"
      },
      "to": "0x793AE8C1b1a160BFc07BFB0d04F85eab1A71F4f2",
      "value": {
        "_hex": "0x0"
      },
      "nonce": 0,
      "data": "0x3ba15036",
      "r": "0xe642ebe07662b3095c2fa12e775dc398de9d2685cc0b54cb7b9eba21398a5448",
      "s": "0x65ebdd149c6c85231ea0120b22c1f4a6039c891716a84e42bc6f6091768119f7",
      "v": 28,
      "creates": null,
      "raw": "0xf86980850ba43b740083015f9094793ae8c1b1a160bfc07bfb0d04f85eab1a71f4f280843ba150361ca0e642ebe07662b3095c2fa12e775dc398de9d2685cc0b54cb7b9eba21398a5448a065ebdd149c6c85231ea0120b22c1f4a6039c891716a84e42bc6f6091768119f7",
      "networkId": 0,
      "chainId": 0
    }
  ]
}