{
  "hash": "0x241b1b0660cd8839c07d29bcf04d88db0c1dc4b693c24830f30c261f157e6a84",
  "parentHash": "0x380ee9012b87c2c10c8b3f0a002676d093de3e31e4b6fdb311a5dd60f09516b3",
  "number": 83863,
  "timestamp": 1439541931,
  "nonce": "0x899cd4d64072e054",
  "difficulty": 2452670708963,
  "gasLimit": {
    "_hex": "0x2fefd8"
  },
  "gasUsed": {
    "_hex": "0x5208"
  },
  "miner": "0xe6A7a1d47ff21B6321162AEA7C6CB457D5476Bca",
  "extraData": "0x476574682f76312e302e312d38326566323666362f6c696e75782f676f312e34",
  "transactions": [
    {
      "hash": "0x7ea3b810118e044be4202d33817beb84de1b10feef42a51fe4a59ed4f673b25b",
      "blockHash": "0x241b1b0660cd8839c07d29bcf04d88db0c1dc4b693c24830f30c261f157e6a84",
      "blockNumber": 83863,
      "transactionIndex": 0,
      "confirmations": null,
      "from": "0xcd0Af3474e22F069EC3407870DD770443d5b12B0",
      "gasPrice": {
        "_hex": "0xdaa755fdb"
      },
      "gasLimit": {
        "_hex": "0x7a120"
      },
      "to": "0x0bCa038BF4ACAd3Cbf73463EccC7717dDCDc3D83",
      "value": {
        "_hex": "0x56bc75e2d63100000"
      },
      "nonce": 6,
      "data": "0x",
      "r": "0xdae101494096899232942a767e1f66c7bc68cee0f1ef1db964043bd2e6baa303",
      "s": "0x49389f9427e8205be3f5b00a8e77f76621d47945b7f8d0e84769d94b4f15b816",
      "v": 27,
      "creates": null,
      "raw": "0xf86e06850daa755fdb8307a120940bca038bf4acad3cbf73463eccc7717ddcdc3d8389056bc75e2d63100000801ba0dae101494096899232942a767e1f66c7bc68cee0f1ef1db964043bd2e6baa303a049389f9427e8205be3f5b00a8e77f76621d47945b7f8d0e84769d94b4f15b816",
      "networkId": 0,
      "chainId": 0
    }
  ]
}