{
  "hash": "0xd48159a83b147808879e746b7af228cc2652c2648f48bf6e38b7a6a586167ca1",
  "parentHash": "0x77122372c98d39c53398722254601e92e6120a23dfe70207816a12b17978d879",
  "number": 107545,
  "timestamp": 1439924294,
  "nonce": "0x50a1b1d9fdfe218e",
  "difficulty": 4415737042559,
  "gasLimit": {
    "_hex": "0x2fefd8"
  },
  "gasUsed": {
    "_hex": "0x5208"
  },
  "miner": "0xe6A7a1d47ff21B6321162AEA7C6CB457D5476Bca",
  "extraData": "0x476574682f76312e302e312d38326566323666362f6c696e75782f676f312e34",
  "transactions": [
    {
      "hash": "0x7de42534e21c34c38202e896715a3686c6d851ccb119ceee914cfe872df6d984",
      "blockHash": "0xd48159a83b147808879e746b7af228cc2652c2648f48bf6e38b7a6a586167ca1",
      "blockNumber": 107545,
      "transactionIndex": 0,
      "confirmations": null,
      "from": "0xa8E7201ff619fAFFc332E6aD37Ed41e301bf014a",
      "gasPrice": {
        "_hex": "0xd7367e8d7"
      },
      "gasLimit": {
        "_hex": "0x15f90"
      },
      "to": "0x00C865a16eD3c930DD70B642507639D199C62180",
      "value": {
        "_hex": "0xbf8372e26c640000"
      },
      "nonce": 7,
      "data": "0x",
      "r": "0xa766f4933adfac73862991e60a8218120870b4e3d8f13f2912fc3e119c5ca13a",
      "s": "0x39a04e38d5d189f6b0291ac10819b00e105acaf973e0aa5cec65c1f6e3812f10",
      "v": 27,
      "creates": null,
      "raw": "0xf86d07850d7367e8d783015f909400c865a16ed3c930dd70b642507639d199c6218088bf8372e26c640000801ba0a766f4933adfac73862991e60a8218120870b4e3d8f13f2912fc3e119c5ca13aa039a04e38d5d189f6b0291ac10819b00e105acaf973e0aa5cec65c1f6e3812f10",
      "networkId": 0,
      "chainId": 0
    }
  ]
}