{
  "hash": "0x4685029a1a14e6be2781a61dc210661941db283a0f269de074309ba4b7ae7f3f",
  "parentHash": "0x36a49dab1b41933e866d95a5b16d67b71b075d42f8ddcaceaf7188b8f2968266",
  "number": 109356,
  "timestamp": 1439955188,
  "nonce": "0xa37ac2bdf756c4e8",
  "difficulty": 4460285510063,
  "gasLimit": {
    "_hex": "0x2fefd8"
  },
  "gasUsed": {
    "_hex": "0x5208"
  },
  "miner": "0xe6A7a1d47ff21B6321162AEA7C6CB457D5476Bca",
  "extraData": "0x476574682f76312e302e312d38326566323666362f6c696e75782f676f312e34",
  "transactions": [
    {
      "hash": "0xa0ff4df5c1928d41be60d1ef875e3cee3062277250274ab8fb48ee536f5cd035",
      "blockHash": "0x4685029a1a14e6be2781a61dc210661941db283a0f269de074309ba4b7ae7f3f",
      "blockNumber": 109356,
      "transactionIndex": 0,
      "confirmations": null,
      "from": "0x5F03b61cc63cA0b9E5D70A11E7CcA53447c38aE7",
      "gasPrice": {
        "_hex": "0xcca37d4c8"
      },
      "gasLimit": {
        "_hex": "0x5208"
      },
      "to": "0x32Be343B94f860124dC4fEe278FDCBD38C102D88",
      "value": {
        "_hex": "0x6ede169ebb02b800"
      },
      "nonce": 1,
      "data": "0x",
      "r": "0x554c9e7922feb49b9e4fe244dd76280c1da97d3bae61e79b3e83842101e81da7",
      "s": "0x1aaf952ca1b7a30363526085661414d1a12040b262149dbabdf9a7c15517ddff",
      "v": 27,
      "creates": null,
      "raw": "0xf86c01850cca37d4c88252089432be343b94f860124dc4fee278fdcbd38c102d88886ede169ebb02b800801ba0554c9e7922feb49b9e4fe244dd76280c1da97d3bae61e79b3e83842101e81da7a01aaf952ca1b7a30363526085661414d1a12040b262149dbabdf9a7c15517ddff",
      "networkId": 0,
      "chainId": 0
    }
  ]
}