{
  "hash": "0x6705521101a9d97e16e14bace3ab981fe184bb5c382d8caa76b8ddad71070c96",
  "parentHash": "0x75d172a456048383215d37b90c9c25ab3eaf07c812fd2a6188887c8a3d611bf0",
  "number": 116817,
  "timestamp": 1440097982,
  "nonce": "0x592206f2b9faf348",
  "difficulty": 4338236322416,
  "gasLimit": {
    "_hex": "0x2fefd8"
  },
  "gasUsed": {
    "_hex": "0x1ec30"
  },
  "miner": "0xe6A7a1d47ff21B6321162AEA7C6CB457D5476Bca",
  "extraData": "0xd783010002844765746887676f312e342e32856c696e7578",
  "transactions": [
    {
      "hash": "0x33289dcdc2402f661262983e53e22ccfd9a3cc5a9ef677de0ac4207de70f59ed",
      "blockHash": "0x6705521101a9d97e16e14bace3ab981fe184bb5c382d8caa76b8ddad71070c96",
      "blockNumber": 116817,
      "transactionIndex": 0,
      "confirmations": null,
      "from": "0xe6A7a1d47ff21B6321162AEA7C6CB457D5476Bca",
      "gasPrice": {
        "_hex": "0xba43b7400"
      },
      "gasLimit": {
        "_hex": "0x55f0"
      },
      "to": "0xF161498A7f225A91C338015ca11833B3399393A8",
      "value": {
        "_hex": "0x273049dbfe321fec"
      },
      "nonce": 5682,
      "data": "0x",
      "r": "0x534427f2d5d0e5478ff9e3671691a3058f34148e5a6bc71ed95210a6763ea9ab",
      "s": "0x07b1a9b10c6f98a2c66b4f99a0410e547706ee8fb0583e190d73df14248a88b9",
      "v": 28,
      "creates": null,
      "raw": "0xf86e821632850ba43b74008255f094f161498a7f225a91c338015ca11833b3399393a888273049dbfe321fec801ca0534427f2d5d0e5478ff9e3671691a3058f34148e5a6bc71ed95210a6763ea9aba007b1a9b10c6f98a2c66b4f99a0410e547706ee8fb0583e190d73df14248a88b9",
      "networkId": 0,
      "chainId": 0
    },
    {
      "hash": "0x2a92e451914264acd247b440efba49b812249af7a9f167c3b91b0700c6d7e533",
      "blockHash": "0x6705521101a9d97e16e14bace3ab981fe184bb5c382d8caa76b8ddad71070c96",
      "blockNumber": 116817,
      "transactionIndex": 1,
      "confirmations": null,
      "from": "0xe6A7a1d47ff21B6321162AEA7C6CB457D5476Bca",
      "gasPrice": {
        "_hex": "0xba43b7400"
      },
      "gasLimit": {
        "_hex": "0x55f0"
      },
      "to": "0xeD3Fe86896534C24D9F91232faE34b78DFf3c1f4",
      "value": {
        "_hex": "0x274a57f8bc1aa210"
      },
      "nonce": 5683,
      "data": "0x",
      "r": "0x56c94c7fc1bef98801a2ed036c5240b60a00413c1903aeab2a232bd8abb790a7",
      "s": "0x07c4dbb7c9be2a069bda6bdf6f1fab3339d6d68b1b7571dc4971af0c49b5f31c",
      "v": 27,
      "creates": null,
      "raw": "0xf86e821633850ba43b74008255f094ed3fe86896534c24d9f91232fae34b78dff3c1f488274a57f8bc1aa210801ba056c94c7fc1bef98801a2ed036c5240b60a00413c1903aeab2a232bd8abb790a7a007c4dbb7c9be2a069bda6bdf6f1fab3339d6d68b1b7571dc4971af0c49b5f31c",
      "networkId": 0,
      "chainId": 0
    },
    {
      "hash": "0x0bb05cf355e5ed35b3fabd2f2a21e644a8b5d803797d29ac2b3923a92ede5410",
      "blockHash": "0x6705521101a9d97e16e14bace3ab981fe184bb5c382d8caa76b8ddad71070c96",
      "blockNumber": 116817,
      "transactionIndex": 2,
      "confirmations": null,
      "from": "0xe6A7a1d47ff21B6321162AEA7C6CB457D5476Bca",
      "gasPrice": {
        "_hex": "0xba43b7400"
      },
      "gasLimit": {
        "_hex": "0x55f0"
      },
      "to": "0x027698B61229ECCa19311e977ADE3C2923D4e414",
      "value": {
        "_hex": "0x2779cf036c3bc5d8"
      },
      "nonce": 5684,
      "data": "0x",
      "r": "0x88a4a62e7f26af9632dea2fc657ffcef461699ef6b27b8fd2670dd5c5c31bb82",
      "s": "0x0e2410612045683fd87d4df0e65fc315f1bdca0781c7c71b990cd4e2d56eca49",
      "v": 27,
      "creates": null,
      "raw": "0xf86e821634850ba43b74008255f094027698b61229ecca19311e977ade3c2923d4e414882779cf036c3bc5d8801ba088a4a62e7f26af9632dea2fc657ffcef461699ef6b27b8fd2670dd5c5c31bb82a00e2410612045683fd87d4df0e65fc315f1bdca0781c7c71b990cd4e2d56eca49",
      "networkId": 0,
      "chainId": 0
    },
    {
      "hash": "0x4f3022cbd4331fc0e8825c6e15b476c0dcfa4aea05ebaedeb70d1f3c915fbf35",
      "blockHash": "0x6705521101a9d97e16e14bace3ab981fe184bb5c382d8caa76b8ddad71070c96",
      "blockNumber": 116817,
      "transactionIndex": 3,
      "confirmations": null,
      "from": "0xe6A7a1d47ff21B6321162AEA7C6CB457D5476Bca",
      "gasPrice": {
        "_hex": "0xba43b7400"
      },
      "gasLimit": {
        "_hex": "0x55f0"
      },
      "to": "0x3cD73157C6a0aB907B9dFe60F75c74Bb99D98e7b",
      "value": {
        "_hex": "0x27b3242c0d074620"
      },
      "nonce": 5685,
      "data": "0x",
      "r": "0xc2f46fb2303d50d75446032cad4e393001c93f119fe71d868b7d288f29fc9104",
      "s": "0x36c481d69a63797622888f8b1d07187daeceefe18be09340de5aacb038e3a5d3",
      "v": 27,
      "creates": null,
      "raw": "0xf86e821635850ba43b74008255f0943cd73157c6a0ab907b9dfe60f75c74bb99d98e7b8827b3242c0d074620801ba0c2f46fb2303d50d75446032cad4e393001c93f119fe71d868b7d288f29fc9104a036c481d69a63797622888f8b1d07187daeceefe18be09340de5aacb038e3a5d3",
      "networkId": 0,
      "chainId": 0
    },
    {
      "hash": "0x611b330d9e167ceb306c34146cf257e0a66dbcf5d497bedb3d1645f29581f552",
      "blockHash": "0x6705521101a9d97e16e14bace3ab981fe184bb5c382d8caa76b8ddad71070c96",
      "blockNumber": 116817,
      "transactionIndex": 4,
      "confirmations": null,
      "from": "0xe6A7a1d47ff21B6321162AEA7C6CB457D5476Bca",
      "gasPrice": {
        "_hex": "0xba43b7400"
      },
      "gasLimit": {
        "_hex": "0x55f0"
      },
      "to": "0x46b29910396E1cF71678f81101334A180876E9b1",
      "value": {
        "_hex": "0x27e84087d5015bf0"
      },
      "nonce": 5686,
      "data": "0x",
      "r": "0x5312c8c8c15bf74ced6700e089d48cf8d9e46358b78da43b001a4740d9cba8be",
      "s": "0x497c3929a55e0bcce78bfaf524bb9c933ef14d510deafa08bf37cbe39d048fec",
      "v": 27,
      "creates": null,
      "raw": "0xf86e821636850ba43b74008255f09446b29910396e1cf71678f81101334a180876e9b18827e84087d5015bf0801ba05312c8c8c15bf74ced6700e089d48cf8d9e46358b78da43b001a4740d9cba8bea0497c3929a55e0bcce78bfaf524bb9c933ef14d510deafa08bf37cbe39d048fec",
      "networkId": 0,
      "chainId": 0
    },
    {
      "hash": "0xad4381b73e9bda46c50a61da6bae9312eb30824e16b05ab108c0350b314cf30e",
      "blockHash": "0x6705521101a9d97e16e14bace3ab981fe184bb5c382d8caa76b8ddad71070c96",
      "blockNumber": 116817,
      "transactionIndex": 5,
      "confirmations": null,
      "from": "0xe6A7a1d47ff21B6321162AEA7C6CB457D5476Bca",
      "gasPrice": {
        "_hex": "0xba43b7400"
      },
      "gasLimit": {
        "_hex": "0x55f0"
      },
      "to": "0xaa71fa80d26F718E6A3c87e41D817b8D10944a63",
      "value": {
        "_hex": "0x284c35a50d131fd0"
      },
      "nonce": 5687,
      "data": "0x",
      "r": "0x8d1ee0090fe0df2ab4d4a3c974335d1ddddef5fb402a0fb49b18c059fe5c1329",
      "s": "0x30ec66a85d93d71776635e57c60e7060a33584efd9d329971c628daddb76af5b",
      "v": 28,
      "creates": null,
      "raw": "0xf86e821637850ba43b74008255f094aa71fa80d26f718e6a3c87e41d817b8d10944a6388284c35a50d131fd0801ca08d1ee0090fe0df2ab4d4a3c974335d1ddddef5fb402a0fb49b18c059fe5c1329a030ec66a85d93d71776635e57c60e7060a33584efd9d329971c628daddb76af5b",
      "networkId": 0,
      "chainId": 0
    }
  ]
}