{
  "hash": "0x69f68fad5c2d41da27bcc3dabfa324fdced55dfc1071892bbf76cb13d4fba66f",
  "parentHash": "0x71c5e66f0bc1bed869fad900cbdc152d3a306b7b36224c59f093a4ea884318c6",
  "number": 76801,
  "timestamp": 1439426453,
  "nonce": "0x589e5323469edcf4",
  "difficulty": 2237246631463,
  "gasLimit": {
    "_hex": "0x2fefd8"
  },
  "gasUsed": {
    "_hex": "0x2069f"
  },
  "miner": "0xe6A7a1d47ff21B6321162AEA7C6CB457D5476Bca",
  "extraData": "0x476574682f76312e302e312d38326566323666362f6c696e75782f676f312e34",
  "transactions": [
    {
      "hash": "0xd6f462cf12d7a0bc15ffeddd9a31de9a04e41a4a284c219e66f3412cf0434711",
      "blockHash": "0x69f68fad5c2d41da27bcc3dabfa324fdced55dfc1071892bbf76cb13d4fba66f",
      "blockNumber": 76801,
      "transactionIndex": 0,
      "confirmations": null,
      "from": "0x8Be84A3adfBc51c59023B2413766E229108c35DE",
      "gasPrice": {
        "_hex": "0xdf212d839"
      },
      "gasLimit": {
        "_hex": "0x493e0"
      },
      "to": "0xD79B4C6791784184e2755B2fC1659eaaB0f80456",
      "value": {
        "_hex": "0x3782dace9d900000"
      },
      "nonce": 19,
      "data": "0x8d21618600000000000000000000000000000000000000000000000000000000000000cca1ba1f332f517f6c9cdb26171dc59d7e2237ce77036d3aa5cc597e199940aec9",
      "r": "0x875fe79760245ac8dc34a862cb673457457d40acfdd1c2f6a6fdb911efcedb52",
      "s": "0x4d0a9f2d501dc1b54e0ddfa5d6bf6037081217906b4cf99c8a09dcc2d72fedba",
      "v": 28,
      "creates": null,
      "raw": "0xf8b213850df212d839830493e094d79b4c6791784184e2755b2fc1659eaab0f80456883782dace9d900000b8448d21618600000000000000000000000000000000000000000000000000000000000000cca1ba1f332f517f6c9cdb26171dc59d7e2237ce77036d3aa5cc597e199940aec91ca0875fe79760245ac8dc34a862cb673457457d40acfdd1c2f6a6fdb911efcedb52a04d0a9f2d501dc1b54e0ddfa5d6bf6037081217906b4cf99c8a09dcc2d72fedba",
      "networkId": 0,
      "chainId": 0
    },
    {
      "hash": "0x500efaf9e03d857ee783df378a27756e9ace5cd419538e4b0bf690f861fbf719",
      "blockHash": "0x69f68fad5c2d41da27bcc3dabfa324fdced55dfc1071892bbf76cb13d4fba66f",
      "blockNumber": 76801,
      "transactionIndex": 1,
      "confirmations": null,
      "from": "0xe3A29c590ae7Bf0D32A7121373bf5C94ADbeCa4a",
      "gasPrice": {
        "_hex": "0xd4e91689a"
      },
      "gasLimit": {
        "_hex": "0x5208"
      },
      "to": "0x32Be343B94f860124dC4fEe278FDCBD38C102D88",
      "value": {
        "_hex": "0x127f6522c8861700000"
      },
      "nonce": 3,
      "data": "0x",
      "r": "0x975b2e40cca25a83726641ae68e1ed9696f8bba50662cb24af3e178e1a2c9e8d",
      "s": "0x3165eb1afa83247e83ccf1ddee6d8ed781901276dfa90b05decd3c630ae9377d",
      "v": 28,
      "creates": null,
      "raw": "0xf86e03850d4e91689a8252089432be343b94f860124dc4fee278fdcbd38c102d888a0127f6522c8861700000801ca0975b2e40cca25a83726641ae68e1ed9696f8bba50662cb24af3e178e1a2c9e8da03165eb1afa83247e83ccf1ddee6d8ed781901276dfa90b05decd3c630ae9377d",
      "networkId": 0,
      "chainId": 0
    }
  ]
}