{
  "hash": "0x653d466ddb2d82929b113d41343abef06afa049190ff88e894c0826c1edca38a",
  "parentHash": "0x2d18b91c173388361481606a862fb1b4d2468c7f1305e16aac522282bdf41784",
  "number": 85398,
  "timestamp": 1439563015,
  "nonce": "0x091771712b749368",
  "difficulty": 2736987381732,
  "gasLimit": {
    "_hex": "0x2fefd8"
  },
  "gasUsed": {
    "_hex": "0x5208"
  },
  "miner": "0x3b8F41B36056A249BC135626DF32b70482c57539",
  "extraData": "0x476574682f76312e302e312f6c696e75782f676f312e342e32",
  "transactions": [
    {
      "hash": "0xf82f7e559112591dbb7a92ec9cbd54724f0f4848c36f55a958040a728be916f7",
      "blockHash": "0x653d466ddb2d82929b113d41343abef06afa049190ff88e894c0826c1edca38a",
      "blockNumber": 85398,
      "transactionIndex": 0,
      "confirmations": null,
      "from": "0x458F183347F45a4001807728A89F31E9Da9D4A58",
      "gasPrice": {
        "_hex": "0xd7d40ace3"
      },
      "gasLimit": {
        "_hex": "0x15f90"
      },
      "to": "0x1D3ffA437e5bce40fCC134f4E0ac62841E4A9E81",
      "value": {
        "_hex": "0x22b1c8c1227a0000"
      },
      "nonce": 22,
      "data": "0x",
      "r": "0x33663fff69d55fd861ff6033e13a9dab99c7fb23ac160c26ab8916fd02cd1031",
      "s": "0x7fe4b568fdef345a9fe3e9bb67bd604218d47bfc85625b12954abb486cd46871",
      "v": 27,
      "creates": null,
      "raw": "0xf86d16850d7d40ace383015f90941d3ffa437e5bce40fcc134f4e0ac62841e4a9e818822b1c8c1227a0000801ba033663fff69d55fd861ff6033e13a9dab99c7fb23ac160c26ab8916fd02cd1031a07fe4b568fdef345a9fe3e9bb67bd604218d47bfc85625b12954abb486cd46871",
      "networkId": 0,
      "chainId": 0
    }
  ]
}