{
  "hash": "0x540cb04bc212cc930b8313d3c2b8e79ac5efed4c37a819c15c581f2d95022f65",
  "parentHash": "0x90b49ae1de64a61c3863053a648bf99082cf8181046dd2428c5b3838316541db",
  "number": 110401,
  "timestamp": 1439973046,
  "nonce": "0x0e05cfd8d826b774",
  "difficulty": 4384161383353,
  "gasLimit": {
    "_hex": "0x2fefd8"
  },
  "gasUsed": {
    "_hex": "0x5208"
  },
  "miner": "0xe6A7a1d47ff21B6321162AEA7C6CB457D5476Bca",
  "extraData": "0x476574682f76312e302e312d38326566323666362f6c696e75782f676f312e34",
  "transactions": [
    {
      "hash": "0x127d57e9bfd2cbddd14897607499220a183ab13a8ca88a4d8d2b8b0ec2c1569e",
      "blockHash": "0x540cb04bc212cc930b8313d3c2b8e79ac5efed4c37a819c15c581f2d95022f65",
      "blockNumber": 110401,
      "transactionIndex": 0,
      "confirmations": null,
      "from": "0x9FA0960220d2d51D54f755501E391Da140c2EF63",
      "gasPrice": {
        "_hex": "0xce1ed499e"
      },
      "gasLimit": {
        "_hex": "0x5208"
      },
      "to": "0x32Be343B94f860124dC4fEe278FDCBD38C102D88",
      "value": {
        "_hex": "0x36dc85fbedf51400"
      },
      "nonce": 6,
      "data": "0x",
      "r": "0x65ac1f254582bf5e959338507eaf3bb62abf9898b785ae89b98cb6ce99e2dd80",
      "s": "0x7d40b799636f9fc25e918af7112acc85b67754fad8daa97ba2c5e5438a9d766d",
      "v": 28,
      "creates": null,
      "raw": "0xf86c06850ce1ed499e8252089432be343b94f860124dc4fee278fdcbd38c102d888836dc85fbedf51400801ca065ac1f254582bf5e959338507eaf3bb62abf9898b785ae89b98cb6ce99e2dd80a07d40b799636f9fc25e918af7112acc85b67754fad8daa97ba2c5e5438a9d766d",
      "networkId": 0,
      "chainId": 0
    }
  ]
}