{
  "hash": "0xb5f64de1046e74b944742806513d619ab5ad6ac26684d182b26249872f01da70",
  "parentHash": "0x0bda230e068a8a5d7142ffb7af19447373accc408673689f5ac1cf1190560933",
  "number": 58687,
  "timestamp": 1439124998,
  "nonce": "0xbb0cce31885ef5ab",
  "difficulty": 1710691117073,
  "gasLimit": {
    "_hex": "0x2fefd8"
  },
  "gasUsed": {
    "_hex": "0xa410"
  },
  "miner": "0x88D74a59454F6cF3B51ef6b9136AFb6b9D405A88",
  "extraData": "0x476574682f76312e302e312d37666266393930632f6c696e75782f676f312e34",
  "transactions": [
    {
      "hash": "0xf4e225507b9c85028e4fe687397fe9a53e3f838a20c1cbc06f179caaf6b68efd",
      "blockHash": "0xb5f64de1046e74b944742806513d619ab5ad6ac26684d182b26249872f01da70",
      "blockNumber": 58687,
      "transactionIndex": 0,
      "confirmations": null,
      "from": "0xbb30e448B72d6Fdd44973A4C7a312F92f22C8F07",
      "gasPrice": {
        "_hex": "0xd35ded01a"
      },
      "gasLimit": {
        "_hex": "0x5208"
      },
      "to": "0x32Be343B94f860124dC4fEe278FDCBD38C102D88",
      "value": {
        "_hex": "0xc245c2271d2c2000"
      },
      "nonce": 4,
      "data": "0x",
      "r": "0x9eb788651cb7af8052cbdb16dbfec17697c7d191f738d0a94d57204ee8b3b3b4",
      "s": "0x306d201a706e06e484dd944a2205d14fdee7bf8fccd2636f1a350ff3f2ed5da0",
      "v": 28,
      "creates": null,
      "raw": "0xf86c04850d35ded01a8252089432be343b94f860124dc4fee278fdcbd38c102d8888c245c2271d2c2000801ca09eb788651cb7af8052cbdb16dbfec17697c7d191f738d0a94d57204ee8b3b3b4a0306d201a706e06e484dd944a2205d14fdee7bf8fccd2636f1a350ff3f2ed5da0",
      "networkId": 0,
      "chainId": 0
    },
    {
      "hash": "0x22689f1b9e871da0af13aed30309d20ef6b65ca792613e7d0a091a7486815740",
      "blockHash": "0xb5f64de1046e74b944742806513d619ab5ad6ac26684d182b26249872f01da70",
      "blockNumber": 58687,
      "transactionIndex": 1,
      "confirmations": null,
      "from": "0x3f0073d6bBE51612013aA09BC970e08E84D7BA23",
      "gasPrice": {
        "_hex": "0xd35ded01a"
      },
      "gasLimit": {
        "_hex": "0x5208"
      },
      "to": "0x32Be343B94f860124dC4fEe278FDCBD38C102D88",
      "value": {
        "_hex": "0xddc7b079d182400"
      },
      "nonce": 3,
      "data": "0x",
      "r": "0x5b807a805cc358d541d89fc24e762e94b486dcbfa6d3f79a1ec11bed69d27a2e",
      "s": "0x2308c5d0680e8b1452ebcb231d17e5c5f060ba762088811a0530bdac476b544b",
      "v": 27,
      "creates": null,
      "raw": "0xf86c03850d35ded01a8252089432be343b94f860124dc4fee278fdcbd38c102d88880ddc7b079d182400801ba05b807a805cc358d541d89fc24e762e94b486dcbfa6d3f79a1ec11bed69d27a2ea02308c5d0680e8b1452ebcb231d17e5c5f060ba762088811a0530bdac476b544b",
      "networkId": 0,
      "chainId": 0
    }
  ]
}