{
  "hash": "0xb8f50f8e0c96de0d213f543645cef8e89a035371aaa450fa9b502dec709a52c1",
  "parentHash": "0x09ad9ea2abeaf7131d21901ccaaf3208e816bf1fc7288961b6e150df15b9b6d9",
  "number": 80716,
  "timestamp": 1439489724,
  "nonce": "0x6cc5dd94002be6a5",
  "difficulty": 2435686016521,
  "gasLimit": {
    "_hex": "0x2fefd8"
  },
  "gasUsed": {
    "_hex": "0xf618"
  },
  "miner": "0x9746c7e1ef2bd21FF3997fa467593a89cb852BD0",
  "extraData": "0x476574682f76312e302e312f77696e646f77732f676f312e342e32",
  "transactions": [
    {
      "hash": "0xec4e0ac544191ee394f8415e1eb51fc924cceb3cdfead34ff823ae511d8f7c41",
      "blockHash": "0xb8f50f8e0c96de0d213f543645cef8e89a035371aaa450fa9b502dec709a52c1",
      "blockNumber": 80716,
      "transactionIndex": 0,
      "confirmations": null,
      "from": "0x0D4EcC7d750180EBf4A9Df728B6669B5Bceb5E40",
      "gasPrice": {
        "_hex": "0xd8d99e630"
      },
      "gasLimit": {
        "_hex": "0x5208"
      },
      "to": "0x32Be343B94f860124dC4fEe278FDCBD38C102D88",
      "value": {
        "_hex": "0x455f39b96f163800"
      },
      "nonce": 5,
      "data": "0x",
      "r": "0xe52841a3612973f7d450a3d2f6e3d48254d5bae2d8622ad7e4cc34be286bbdc3",
      "s": "0x75be3b99b31c6208df91b0ba9cc5cc03465015dd1cfa8bb9d986a2225a624c25",
      "v": 27,
      "creates": null,
      "raw": "0xf86c05850d8d99e6308252089432be343b94f860124dc4fee278fdcbd38c102d8888455f39b96f163800801ba0e52841a3612973f7d450a3d2f6e3d48254d5bae2d8622ad7e4cc34be286bbdc3a075be3b99b31c6208df91b0ba9cc5cc03465015dd1cfa8bb9d986a2225a624c25",
      "networkId": 0,
      "chainId": 0
    },
    {
      "hash": "0x499b7c77e4357f052e9e45ec121a3bab1acc7d095a3a499ae02990ad9827c7e2",
      "blockHash": "0xb8f50f8e0c96de0d213f543645cef8e89a035371aaa450fa9b502dec709a52c1",
      "blockNumber": 80716,
      "transactionIndex": 1,
      "confirmations": null,
      "from": "0x1595C4fa4989C67D937ae55EF3BF5c37a6f522f9",
      "gasPrice": {
        "_hex": "0xba43b7400"
      },
      "gasLimit": {
        "_hex": "0x5208"
      },
      "to": "0xC47Aaa860008be6f65B58c6C6E02a84e666EfE31",
      "value": {
        "_hex": "0x10a386ac35651dc0"
      },
      "nonce": 0,
      "data": "0x",
      "r": "0xc9a2737960b7c0eb999d05d95f298d602bec4c73fe70d5b6ef954f7734aa0c1a",
      "s": "0x1bb0ad92742091d967830aeb7d975363f1695e56e2220a45fa8fb1b8b367d39f",
      "v": 28,
      "creates": null,
      "raw": "0xf86c80850ba43b740082520894c47aaa860008be6f65b58c6c6e02a84e666efe318810a386ac35651dc0801ca0c9a2737960b7c0eb999d05d95f298d602bec4c73fe70d5b6ef954f7734aa0c1aa01bb0ad92742091d967830aeb7d975363f1695e56e2220a45fa8fb1b8b367d39f",
      "networkId": 0,
      "chainId": 0
    },
    {
      "hash": "0xe6ef691f91a2755da89483db2fdf837a23b5f65affb27d56edeeabf5f5580cea",
      "blockHash": "0xb8f50f8e0c96de0d213f543645cef8e89a035371aaa450fa9b502dec709a52c1",
      "blockNumber": 80716,
      "transactionIndex": 2,
      "confirmations": null,
      "from": "0x1BF5b1581819E4B545F5A57c246E5C96e27C876e",
      "gasPrice": {
        "_hex": "0xba43b7400"
      },
      "gasLimit": {
        "_hex": "0x5208"
      },
      "to": "0xC47Aaa860008be6f65B58c6C6E02a84e666EfE31",
      "value": {
        "_hex": "0x230194c2a3ed69c0"
      },
      "nonce": 1,
      "data": "0x",
      "r": "0xcff4b970806868be83823fafa198aa215c2468f072f208f71a55783ffea2bc96",
      "s": "0x356310c9fd979c81646f4a39934a73d8e3215e98c860967a393ef0770d64bfef",
      "v": 27,
      "creates": null,
      "raw": "0xf86c01850ba43b740082520894c47aaa860008be6f65b58c6c6e02a84e666efe3188230194c2a3ed69c0801ba0cff4b970806868be83823fafa198aa215c2468f072f208f71a55783ffea2bc96a0356310c9fd979c81646f4a39934a73d8e3215e98c860967a393ef0770d64bfef",
      "networkId": 0,
      "chainId": 0
    }
  ]
}