{
  "hash": "0xbcb93c482adceb82763869ea1cd340cc21ec2ae4ba3cd71cf323a8100d0f3872",
  "parentHash": "0x3215401f650dbc7387905b7833b2b27a402c2e6877d44e48caf8aef8532856a8",
  "number": 86919,
  "timestamp": 1439584613,
  "nonce": "0x7bdaecaafeb57e2b",
  "difficulty": 2980603294828,
  "gasLimit": {
    "_hex": "0x2fefd8"
  },
  "gasUsed": {
    "_hex": "0xa410"
  },
  "miner": "0x87898CE53471043FcCa0a2aF4E1dC6d8B3fCf607",
  "extraData": "0x476574682f5369626572696131392f76312e302e312d37666266393930632f6c",
  "transactions": [
    {
      "hash": "0xecb055941102cabad15a9a9c29619d87c84bf67dc4aff7ff30c82e2a7a791b6d",
      "blockHash": "0xbcb93c482adceb82763869ea1cd340cc21ec2ae4ba3cd71cf323a8100d0f3872",
      "blockNumber": 86919,
      "transactionIndex": 0,
      "confirmations": null,
      "from": "0x32Be343B94f860124dC4fEe278FDCBD38C102D88",
      "gasPrice": {
        "_hex": "0xd0de9e3b1"
      },
      "gasLimit": {
        "_hex": "0x5208"
      },
      "to": "0x6930ae154deFA2bb051B986ce1C4092C904feb08",
      "value": {
        "_hex": "0x30ca024f987b900000"
      },
      "nonce": 772,
      "data": "0x",
      "r": "0x0cb203f7add15b11fda991ed10c7ea7cce71e05a9e084a994282b534e6c1f7bb",
      "s": "0x0bffa1c2efd3388eb771cf8c48b5d8e021728bcdda5634995417b211fbd3649e",
      "v": 27,
      "creates": null,
      "raw": "0xf86f820304850d0de9e3b1825208946930ae154defa2bb051b986ce1c4092c904feb088930ca024f987b900000801ba00cb203f7add15b11fda991ed10c7ea7cce71e05a9e084a994282b534e6c1f7bba00bffa1c2efd3388eb771cf8c48b5d8e021728bcdda5634995417b211fbd3649e",
      "networkId": 0,
      "chainId": 0
    },
    {
      "hash": "0x11091133903b7812f4cdeb3c6269d8aaff1adaf43ad63157e9d9b70358fa6a70",
      "blockHash": "0xbcb93c482adceb82763869ea1cd340cc21ec2ae4ba3cd71cf323a8100d0f3872",
      "blockNumber": 86919,
      "transactionIndex": 1,
      "confirmations": null,
      "from": "0x32Be343B94f860124dC4fEe278FDCBD38C102D88",
      "gasPrice": {
        "_hex": "0xd0de9e3b1"
      },
      "gasLimit": {
        "_hex": "0x5208"
      },
      "to": "0xf669D33ffC879Ed84BECd4EF67CB17c76f4607D5",
      "value": {
        "_hex": "0x8ac4ea9562ebf0000"
      },
      "nonce": 773,
      "data": "0x",
      "r": "0xbb7a2611387b32b7b0795e1edf4320f4d8f7bc1b7376e44d4aa347f745a9f52d",
      "s": "0x72c7afbc82814b7d47ac38ab3530af107db15a188374bae1eb0cca6fe322d014",
      "v": 28,
      "creates": null,
      "raw": "0xf86f820305850d0de9e3b182520894f669d33ffc879ed84becd4ef67cb17c76f4607d58908ac4ea9562ebf0000801ca0bb7a2611387b32b7b0795e1edf4320f4d8f7bc1b7376e44d4aa347f745a9f52da072c7afbc82814b7d47ac38ab3530af107db15a188374bae1eb0cca6fe322d014",
      "networkId": 0,
      "chainId": 0
    }
  ]
}