{
  "hash": "0x812175468a2a30f471801219e631b821044bc7c324bb30949986562abfc97327",
  "parentHash": "0x6ba9b2592533cf423aab2b769b98c7ae2adb8752cb9551a19d68daa1adf020a7",
  "number": 57351,
  "timestamp": 1439101758,
  "nonce": "0xbf9701d93775d5d7",
  "difficulty": 1739605352044,
  "gasLimit": {
    "_hex": "0x2fefd8"
  },
  "gasUsed": {
    "_hex": "0x546c"
  },
  "miner": "0x400fb5A6482E54E44b2250E75251707514c605C1",
  "extraData": "0x476574682f76312e302e312f77696e646f77732f676f312e342e32",
  "transactions": [
    {
      "hash": "0x8aba012d32f6431057e7cd7364ffd8eb39c62ed9b958490625ed0dd27a8657a4",
      "blockHash": "0x812175468a2a30f471801219e631b821044bc7c324bb30949986562abfc97327",
      "blockNumber": 57351,
      "transactionIndex": 0,
      "confirmations": null,
      "from": "0x43227d65334e691Cf231b4A4e1D339B95D598AFB",
      "gasPrice": {
        "_hex": "0x110c8f7d8de"
      },
      "gasLimit": {
        "_hex": "0xc350"
      },
      "to": "0x2910543Af39abA0Cd09dBb2D50200b3E800A63D2",
      "value": {
        "_hex": "0x8e1bc9bf040000"
      },
      "nonce": 2,
      "data": "0x454e445736434d5830",
      "r": "0xd1d9ab23bb768dbb3a55eabda4b197166e021b4203c4ced900c2a471c0ff7437",
      "s": "0x54095fe1c0b5c483a557fda2e1c13ec37b73b15e1df6b75a000ab387c4723556",
      "v": 28,
      "creates": null,
      "raw": "0xf87502860110c8f7d8de82c350942910543af39aba0cd09dbb2d50200b3e800a63d2878e1bc9bf04000089454e445736434d58301ca0d1d9ab23bb768dbb3a55eabda4b197166e021b4203c4ced900c2a471c0ff7437a054095fe1c0b5c483a557fda2e1c13ec37b73b15e1df6b75a000ab387c4723556",
      "networkId": 0,
      "chainId": 0
    }
  ]
}