{
  "hash": "0xa82d0c43dd5c47777ebf44208b8f1e5ead85961cc2ea7d6e5536c41ee3165553",
  "parentHash": "0x2cdb255c011ca35cddbf4cbe4c2122f8fd6ff1ac48cb3a82e0869b4721503671",
  "number": 84318,
  "timestamp": 1439547970,
  "nonce": "0x0c46490e3aea3846",
  "difficulty": 2539053179072,
  "gasLimit": {
    "_hex": "0x2fefd8"
  },
  "gasUsed": {
    "_hex": "0x1ec30"
  },
  "miner": "0xEF247E639d49461D25F57e9362CadE3120910Ce0",
  "extraData": "0x476574682f76312e302e312f6c696e75782f676f312e342e32",
  "transactions": [
    {
      "hash": "0x7412279e437a22c6c8a3b2caf5b148cd1c471e2b3790d20908ac50b0129ab334",
      "blockHash": "0xa82d0c43dd5c47777ebf44208b8f1e5ead85961cc2ea7d6e5536c41ee3165553",
      "blockNumber": 84318,
      "transactionIndex": 0,
      "confirmations": null,
      "from": "0x94b20d3d932AA82aD71b86b904A3D769689351b4",
      "gasPrice": {
        "_hex": "0xdb9401621"
      },
      "gasLimit": {
        "_hex": "0x5208"
      },
      "to": "0x32Be343B94f860124dC4fEe278FDCBD38C102D88",
      "value": {
        "_hex": "0x170d8be772d74e000"
      },
      "nonce": 2,
      "data": "0x",
      "r": "0x42d26d1ac35291b05e3f49ad6336ce0aefe32b4984fc5a42b20cb0aae0fe9c6f",
      "s": "0x3a9647d9ebc1471bf9f44b8a01982172c07291589d6fe8338c90f21fc5e120a6",
      "v": 28,
      "creates": null,
      "raw": "0xf86d02850db94016218252089432be343b94f860124dc4fee278fdcbd38c102d88890170d8be772d74e000801ca042d26d1ac35291b05e3f49ad6336ce0aefe32b4984fc5a42b20cb0aae0fe9c6fa03a9647d9ebc1471bf9f44b8a01982172c07291589d6fe8338c90f21fc5e120a6",
      "networkId": 0,
      "chainId": 0
    },
    {
      "hash": "0xf29992ef639edf6405297afc98705cafb9437fa85a35d0d667b78eed929c1266",
      "blockHash": "0xa82d0c43dd5c47777ebf44208b8f1e5ead85961cc2ea7d6e5536c41ee3165553",
      "blockNumber": 84318,
      "transactionIndex": 1,
      "confirmations": null,
      "from": "0x4CD33268dF93C6b4F6b3D504009EAE965Afe272d",
      "gasPrice": {
        "_hex": "0xdb9401621"
      },
      "gasLimit": {
        "_hex": "0x5208"
      },
      "to": "0x32Be343B94f860124dC4fEe278FDCBD38C102D88",
      "value": {
        "_hex": "0xae6b3d160b8f1000"
      },
      "nonce": 1,
      "data": "0x",
      "r": "0x21a1ba2271dfc312f8b76ef465ab9ce642341eb1b74e2a4627694c026737f2ee",
      "s": "0x5802c2d2265db02cad834f6ad87e5e8d067218eff5863aef0445d8e67e634a04",
      "v": 27,
      "creates": null,
      "raw": "0xf86c01850db94016218252089432be343b94f860124dc4fee278fdcbd38c102d8888ae6b3d160b8f1000801ba021a1ba2271dfc312f8b76ef465ab9ce642341eb1b74e2a4627694c026737f2eea05802c2d2265db02cad834f6ad87e5e8d067218eff5863aef0445d8e67e634a04",
      "networkId": 0,
      "chainId": 0
    },
    {
      "hash": "0x67b2a6728d68345067bb8662e85caac85635bfe9c3c636ecf7772dfe424ea19d",
      "blockHash": "0xa82d0c43dd5c47777ebf44208b8f1e5ead85961cc2ea7d6e5536c41ee3165553",
      "blockNumber": 84318,
      "transactionIndex": 2,
      "confirmations": null,
      "from": "0x8C37447a7930187595EC51FEA6f749C4F8a96cD4",
      "gasPrice": {
        "_hex": "0xdb9401621"
      },
      "gasLimit": {
        "_hex": "0x5208"
      },
      "to": "0x32Be343B94f860124dC4fEe278FDCBD38C102D88",
      "value": {
        "_hex": "0x11bac908769ed9000"
      },
      "nonce": 1,
      "data": "0x",
      "r": "0x32eaa3262cf8c9c73eb5aedffba154326cd643d35e26203909660fc8eb08bcc8",
      "s": "0x140fad12d7432c16cbb19113aed3bd67187eb0623a2c35077710555385e0eccd",
      "v": 28,
      "creates": null,
      "raw": "0xf86d01850db94016218252089432be343b94f860124dc4fee278fdcbd38c102d8889011bac908769ed9000801ca032eaa3262cf8c9c73eb5aedffba154326cd643d35e26203909660fc8eb08bcc8a0140fad12d7432c16cbb19113aed3bd67187eb0623a2c35077710555385e0eccd",
      "networkId": 0,
      "chainId": 0
    },
    {
      "hash": "0x46828262c499630d70a0c833752c871c72b6aec84ffec910d9e5d8cc95ac51e2",
      "blockHash": "0xa82d0c43dd5c47777ebf44208b8f1e5ead85961cc2ea7d6e5536c41ee3165553",
      "blockNumber": 84318,
      "transactionIndex": 3,
      "confirmations": null,
      "from": "0xD99b25c518320820D3C5ae9f47378DA32dED5f00",
      "gasPrice": {
        "_hex": "0xdb9401621"
      },
      "gasLimit": {
        "_hex": "0x5208"
      },
      "to": "0x32Be343B94f860124dC4fEe278FDCBD38C102D88",
      "value": {
        "_hex": "0x1ba44792d9d4c8000"
      },
      "nonce": 2,
      "data": "0x",
      "r": "0x1a6b98a63cfe83e3977c990de5ad70c18b089c6521963f5e8eee381dd7b027a0",
      "s": "0x12deeab120e81a715684e67327579c542a8ea6cb3c49de18fcf84c84036ce7a6",
      "v": 27,
      "creates": null,
      "raw": "0xf86d02850db94016218252089432be343b94f860124dc4fee278fdcbd38c102d888901ba44792d9d4c8000801ba01a6b98a63cfe83e3977c990de5ad70c18b089c6521963f5e8eee381dd7b027a0a012deeab120e81a715684e67327579c542a8ea6cb3c49de18fcf84c84036ce7a6",
      "networkId": 0,
      "chainId": 0
    },
    {
      "hash": "0xd78a47b6fedb0295b9ce4f3e3a5444672ad91da03facd8f82bd4bd41e79b5429",
      "blockHash": "0xa82d0c43dd5c47777ebf44208b8f1e5ead85961cc2ea7d6e5536c41ee3165553",
      "blockNumber": 84318,
      "transactionIndex": 4,
      "confirmations": null,
      "from": "0x629e35e0A481d821293F354E0dD27E43a354D061",
      "gasPrice": {
        "_hex": "0xdb9401621"
      },
      "gasLimit": {
        "_hex": "0x5208"
      },
      "to": "0x32Be343B94f860124dC4fEe278FDCBD38C102D88",
      "value": {
        "_hex": "0xf2171c957c0f8000"
      },
      "nonce": 2,
      "data": "0x",
      "r": "0xba289a01a8ddef02f33f640bd7aa94badb4a3eed3f5e056312c4c1c2a47a9df2",
      "s": "0x3e321c707794c304a2e85054bc60b482c8e82aba7078145b79ee396033255092",
      "v": 28,
      "creates": null,
      "raw": "0xf86c02850db94016218252089432be343b94f860124dc4fee278fdcbd38c102d8888f2171c957c0f8000801ca0ba289a01a8ddef02f33f640bd7aa94badb4a3eed3f5e056312c4c1c2a47a9df2a03e321c707794c304a2e85054bc60b482c8e82aba7078145b79ee396033255092",
      "networkId": 0,
      "chainId": 0
    },
    {
      "hash": "0x73425699a47c8aa890c0ae301593e9cfc1a8818949bffe4e8849907991893486",
      "blockHash": "0xa82d0c43dd5c47777ebf44208b8f1e5ead85961cc2ea7d6e5536c41ee3165553",
      "blockNumber": 84318,
      "transactionIndex": 5,
      "confirmations": null,
      "from": "0xD72ab61a64fEAeE7b5EB3D42B5445858B95d38fd",
      "gasPrice": {
        "_hex": "0xdb9401621"
      },
      "gasLimit": {
        "_hex": "0x5208"
      },
      "to": "0x32Be343B94f860124dC4fEe278FDCBD38C102D88",
      "value": {
        "_hex": "0xcf7d32a6d1755000"
      },
      "nonce": 1,
      "data": "0x",
      "r": "0x20e8b635636bf8f9544aba338c5709935c26e0dea2b79389854928ef24ca63ef",
      "s": "0x065f6725ab26fb53d15887891ffbfc6d9f92552ca7bd51333e1ea6586ce77add",
      "v": 28,
      "creates": null,
      "raw": "0xf86c01850db94016218252089432be343b94f860124dc4fee278fdcbd38c102d8888cf7d32a6d1755000801ca020e8b635636bf8f9544aba338c5709935c26e0dea2b79389854928ef24ca63efa0065f6725ab26fb53d15887891ffbfc6d9f92552ca7bd51333e1ea6586ce77add",
      "networkId": 0,
      "chainId": 0
    }
  ]
}