{
  "hash": "0x977f312cede3b5b9281fc111cd02b0290445dce1dc9b703c091c88f39d2ee244",
  "parentHash": "0xc920d9964617d01ff3344603470e7b9cbb6d4aeb4b2b3607980b2471518d7fc8",
  "number": 113813,
  "timestamp": 1440029999,
  "nonce": "0x4266a2a2e9b3d993",
  "difficulty": 4447046008253,
  "gasLimit": {
    "_hex": "0x2fefd8"
  },
  "gasUsed": {
    "_hex": "0x5208"
  },
  "miner": "0x6541237dAaFf6688A79f9F2F370Ca0E7Ee20BD33",
  "extraData": "0x476574682f76312e302e312f77696e646f77732f676f312e342e32",
  "transactions": [
    {
      "hash": "0x1789567d6c9af968313bf9b1d1b5d45a0e8f515c4804c33da65ae6fcec0233d3",
      "blockHash": "0x977f312cede3b5b9281fc111cd02b0290445dce1dc9b703c091c88f39d2ee244",
      "blockNumber": 113813,
      "transactionIndex": 0,
      "confirmations": null,
      "from": "0x120A270bbC009644e35F0bB6ab13f95b8199c4ad",
      "gasPrice": {
        "_hex": "0xd29037e1f"
      },
      "gasLimit": {
        "_hex": "0x3d090"
      },
      "to": "0xEe80Ef3c49d9465c7fC2B3D7373FdbBbc3FE282f",
      "value": {
        "_hex": "0x6997890e4e2f1c000"
      },
      "nonce": 920,
      "data": "0x",
      "r": "0xcc7160c7fb778d0499f08b46a8a10c8014afdab81e6b042b01b11dc3904b03d2",
      "s": "0x48e8c5ebf295fbe7a1c13faa2353bea5ce07fd3e6ca27a581b813abdf9555857",
      "v": 27,
      "creates": null,
      "raw": "0xf870820398850d29037e1f8303d09094ee80ef3c49d9465c7fc2b3d7373fdbbbc3fe282f8906997890e4e2f1c000801ba0cc7160c7fb778d0499f08b46a8a10c8014afdab81e6b042b01b11dc3904b03d2a048e8c5ebf295fbe7a1c13faa2353bea5ce07fd3e6ca27a581b813abdf9555857",
      "networkId": 0,
      "chainId": 0
    }
  ]
}