{
  "hash": "0xb442a990887b6f59191699441e8ed48ad54e1ae60debacfe226f043991fda07a",
  "parentHash": "0x693b3ee84d255ed027d9ade1960c81d6a9b52beefe6147409da71ace9c8462b2",
  "number": 94178,
  "timestamp": 1439703878,
  "nonce": "0x28ab000613fb8efa",
  "difficulty": 3473174417674,
  "gasLimit": {
    "_hex": "0x2fefd8"
  },
  "gasUsed": {
    "_hex": "0xa410"
  },
  "miner": "0x9D49F602b0fdb924Bd63DDE2Bd0907E4A07c63a7",
  "extraData": "0x476574682f76312e302e312f6c696e75782f676f312e342e32",
  "transactions": [
    {
      "hash": "0x5a79a02ee33eae80481036843b3dde2ec60ff9b720e51ef7345928227e69d9f1",
      "blockHash": "0xb442a990887b6f59191699441e8ed48ad54e1ae60debacfe226f043991fda07a",
      "blockNumber": 94178,
      "transactionIndex": 0,
      "confirmations": null,
      "from": "0x24C0B9E42a508F3cB1A66c03dEf2Baf4c4555a89",
      "gasPrice": {
        "_hex": "0xe0f85c744"
      },
      "gasLimit": {
        "_hex": "0x5208"
      },
      "to": "0x32Be343B94f860124dC4fEe278FDCBD38C102D88",
      "value": {
        "_hex": "0xad2152b04fd400"
      },
      "nonce": 4,
      "data": "0x",
      "r": "0xfc29990ba1011a3ac54592b09c795c02c7fee5e82888d4dee0e044290555c726",
      "s": "0x78da168f7f2aed2aaf596faf4523a5188b95a97810611e48ddb6ae9b076ca064",
      "v": 28,
      "creates": null,
      "raw": "0xf86b04850e0f85c7448252089432be343b94f860124dc4fee278fdcbd38c102d8887ad2152b04fd400801ca0fc29990ba1011a3ac54592b09c795c02c7fee5e82888d4dee0e044290555c726a078da168f7f2aed2aaf596faf4523a5188b95a97810611e48ddb6ae9b076ca064",
      "networkId": 0,
      "chainId": 0
    },
    {
      "hash": "0xdcc0ba079cb2a1b8e89357044c20a68c409521df3b08ccf434a6668d161454f3",
      "blockHash": "0xb442a990887b6f59191699441e8ed48ad54e1ae60debacfe226f043991fda07a",
      "blockNumber": 94178,
      "transactionIndex": 1,
      "confirmations": null,
      "from": "0xa70a9a7040d542C632D8e0bE7c5513A8a5Bbc752",
      "gasPrice": {
        "_hex": "0xe0f85c744"
      },
      "gasLimit": {
        "_hex": "0x5208"
      },
      "to": "0x32Be343B94f860124dC4fEe278FDCBD38C102D88",
      "value": {
        "_hex": "0x45635a2a86518c00"
      },
      "nonce": 144,
      "data": "0x",
      "r": "0xeb14ac277c766602f15802e7a6f42d84ab988b53d5ead13509d06cc4ac3abd2e",
      "s": "0x576441b3c19ad4e3ab1a6650064cb0fe3be91cd8540a527c9dec9cd852a3b7c7",
      "v": 27,
      "creates": null,
      "raw": "0xf86d8190850e0f85c7448252089432be343b94f860124dc4fee278fdcbd38c102d888845635a2a86518c00801ba0eb14ac277c766602f15802e7a6f42d84ab988b53d5ead13509d06cc4ac3abd2ea0576441b3c19ad4e3ab1a6650064cb0fe3be91cd8540a527c9dec9cd852a3b7c7",
      "networkId": 0,
      "chainId": 0
    }
  ]
}