{
  "hash": "0x819aac22b27da5a8b484b3dfac77853f2904beb9ad18d64315f4305fb50779f6",
  "parentHash": "0x98a978c7bbdd4cbe1f8de53f54679278b754f166db3bb1ba4e864b1f0312eda9",
  "number": 109351,
  "timestamp": 1439955153,
  "nonce": "0xdf15073f970fdc77",
  "difficulty": 4453759325872,
  "gasLimit": {
    "_hex": "0x2fefd8"
  },
  "gasUsed": {
    "_hex": "0xa410"
  },
  "miner": "0x64DcD9c2733262031AbFE744614d9Ed5AEDb0EFB",
  "extraData": "0x476574682f76312e302e312f6c696e75782f676f312e342e32",
  "transactions": [
    {
      "hash": "0xcd2836095aff5b8b71a83b7f05579e9457ba328ecf3a1268e365b738cd1592b5",
      "blockHash": "0x819aac22b27da5a8b484b3dfac77853f2904beb9ad18d64315f4305fb50779f6",
      "blockNumber": 109351,
      "transactionIndex": 0,
      "confirmations": null,
      "from": "0x120A270bbC009644e35F0bB6ab13f95b8199c4ad",
      "gasPrice": {
        "_hex": "0xdb96a51c3"
      },
      "gasLimit": {
        "_hex": "0x3d090"
      },
      "to": "0x0B50eBD079ADCea71D28590C42d07B5398F19AbA",
      "value": {
        "_hex": "0x33575172f7488b400"
      },
      "nonce": 858,
      "data": "0x",
      "r": "0x3919877a077368aa61d7a9a18f7a2227d400e83d0979b178d5a8b72f1a69e127",
      "s": "0x39fea0d894af5dd90a0ef89e66d631315437f4a7c1f43bf32694a68588882f37",
      "v": 27,
      "creates": null,
      "raw": "0xf87082035a850db96a51c38303d090940b50ebd079adcea71d28590c42d07b5398f19aba89033575172f7488b400801ba03919877a077368aa61d7a9a18f7a2227d400e83d0979b178d5a8b72f1a69e127a039fea0d894af5dd90a0ef89e66d631315437f4a7c1f43bf32694a68588882f37",
      "networkId": 0,
      "chainId": 0
    },
    {
      "hash": "0x288760762c06c2b9d071e23368d26505c91e8361bfb6367024ca0b725ccbe507",
      "blockHash": "0x819aac22b27da5a8b484b3dfac77853f2904beb9ad18d64315f4305fb50779f6",
      "blockNumber": 109351,
      "transactionIndex": 1,
      "confirmations": null,
      "from": "0x1A22137e525478043F6E1394849e6C23932786C9",
      "gasPrice": {
        "_hex": "0xcf0763be6"
      },
      "gasLimit": {
        "_hex": "0x5208"
      },
      "to": "0x0a41Be86378F36BA0823db204723693c0836a3E9",
      "value": {
        "_hex": "0x455f6c14e21274d0"
      },
      "nonce": 3,
      "data": "0x",
      "r": "0x2bcea8323044c3aa674eb7ee7dfba1cda4a49532f73c5c9a1bd27d5d4133b07b",
      "s": "0x3c8b0b3b9ac57b95dd9c55cbb03656e010fd06f5f92d3c67eb1fb66eba31ed73",
      "v": 27,
      "creates": null,
      "raw": "0xf86c03850cf0763be6825208940a41be86378f36ba0823db204723693c0836a3e988455f6c14e21274d0801ba02bcea8323044c3aa674eb7ee7dfba1cda4a49532f73c5c9a1bd27d5d4133b07ba03c8b0b3b9ac57b95dd9c55cbb03656e010fd06f5f92d3c67eb1fb66eba31ed73",
      "networkId": 0,
      "chainId": 0
    }
  ]
}