{
  "hash": "0xc0b4a0590ee1684140ffd8c321cf310982622191e3323d0be03d65d828161333",
  "parentHash": "0x0489f29412bc9b0922fa672a53d192db21d66b27ba55fd5e34675f640defa9d8",
  "number": 97062,
  "timestamp": 1439750225,
  "nonce": "0x6079540b40882a83",
  "difficulty": 3757774006978,
  "gasLimit": {
    "_hex": "0x2fefd8"
  },
  "gasUsed": {
    "_hex": "0xf618"
  },
  "miner": "0xaB638742EBe3A78F2a85028350e1AADB86C0a6ed",
  "extraData": "0x",
  "transactions": [
    {
      "hash": "0x25f55291ff519b21e55e50beb92759ac8735e474d21f44014a8e69886ec44992",
      "blockHash": "0xc0b4a0590ee1684140ffd8c321cf310982622191e3323d0be03d65d828161333",
      "blockNumber": 97062,
      "transactionIndex": 0,
      "confirmations": null,
      "from": "0x01Ad0ACFf478127D9d702B1A13599D706cB759b1",
      "gasPrice": {
        "_hex": "0xd9c9851fd"
      },
      "gasLimit": {
        "_hex": "0x5208"
      },
      "to": "0x32Be343B94f860124dC4fEe278FDCBD38C102D88",
      "value": {
        "_hex": "0x8ac2c66e5b83f800"
      },
      "nonce": 34,
      "data": "0x",
      "r": "0x8c33fcc7d7ba7cc61dfbbb8f91eb2c96e20d1bee60cc0b6117f3364888ab2f40",
      "s": "0x0114907dd19eb003b5113c732a44d10fa30765645ac43086fde176c42987766f",
      "v": 28,
      "creates": null,
      "raw": "0xf86c22850d9c9851fd8252089432be343b94f860124dc4fee278fdcbd38c102d88888ac2c66e5b83f800801ca08c33fcc7d7ba7cc61dfbbb8f91eb2c96e20d1bee60cc0b6117f3364888ab2f40a00114907dd19eb003b5113c732a44d10fa30765645ac43086fde176c42987766f",
      "networkId": 0,
      "chainId": 0
    },
    {
      "hash": "0x87e35eae1e011d7c68a1fd13f02925eb9c253affacd39d2e691401595dccb08c",
      "blockHash": "0xc0b4a0590ee1684140ffd8c321cf310982622191e3323d0be03d65d828161333",
      "blockNumber": 97062,
      "transactionIndex": 1,
      "confirmations": null,
      "from": "0x32Be343B94f860124dC4fEe278FDCBD38C102D88",
      "gasPrice": {
        "_hex": "0xd9c9851fd"
      },
      "gasLimit": {
        "_hex": "0x5208"
      },
      "to": "0xa2E0DbbC9EE160775dd0d26ed1cD097C471C7141",
      "value": {
        "_hex": "0x1156abf16a40f0000"
      },
      "nonce": 1018,
      "data": "0x",
      "r": "0x394528a7d36d3d93468ef3847ba8af618157730aef865fcccb937fe1846819c6",
      "s": "0x7160c47ea758f1a52c1afaab562bb3b58801a0b027273081bb227665a0c33320",
      "v": 28,
      "creates": null,
      "raw": "0xf86f8203fa850d9c9851fd82520894a2e0dbbc9ee160775dd0d26ed1cd097c471c71418901156abf16a40f0000801ca0394528a7d36d3d93468ef3847ba8af618157730aef865fcccb937fe1846819c6a07160c47ea758f1a52c1afaab562bb3b58801a0b027273081bb227665a0c33320",
      "networkId": 0,
      "chainId": 0
    },
    {
      "hash": "0xcdbc12e797840c1f68e25ab396db8ae14009c3ac49fc6f29f736dce25f2c9846",
      "blockHash": "0xc0b4a0590ee1684140ffd8c321cf310982622191e3323d0be03d65d828161333",
      "blockNumber": 97062,
      "transactionIndex": 2,
      "confirmations": null,
      "from": "0x32Be343B94f860124dC4fEe278FDCBD38C102D88",
      "gasPrice": {
        "_hex": "0xd9c9851fd"
      },
      "gasLimit": {
        "_hex": "0x5208"
      },
      "to": "0xfE284479d83D913ce62BAe7f7D5D591b66D972e8",
      "value": {
        "_hex": "0x6ccd46763f10000"
      },
      "nonce": 1019,
      "data": "0x",
      "r": "0xa194eec28eb0c4569f062a25cc6bb42ddba36985c5c1203cd46e5bc1e157e44f",
      "s": "0x572758f942508c1ab262a8569a8b7b0124b72fcaaef7aaeba3cd66be2f190ac5",
      "v": 27,
      "creates": null,
      "raw": "0xf86e8203fb850d9c9851fd82520894fe284479d83d913ce62bae7f7d5d591b66d972e88806ccd46763f10000801ba0a194eec28eb0c4569f062a25cc6bb42ddba36985c5c1203cd46e5bc1e157e44fa0572758f942508c1ab262a8569a8b7b0124b72fcaaef7aaeba3cd66be2f190ac5",
      "networkId": 0,
      "chainId": 0
    }
  ]
}