{
  "hash": "0x5903d624dae0342874a5ba33f86086c3d8c69912230292f269913c6af37ec0a3",
  "parentHash": "0xcafaf96e38645c99b3295b773fe689fa7130913a27c39b361660ef505975c9a3",
  "number": 93071,
  "timestamp": 1439681924,
  "nonce": "0x0e5fcb4beee9b4a2",
  "difficulty": 3642113857752,
  "gasLimit": {
    "_hex": "0x2fefd8"
  },
  "gasUsed": {
    "_hex": "0x5208"
  },
  "miner": "0x8293b65bD915B9FF87F6aDAb479da2e5b6633fDB",
  "extraData": "0x476574682f76312e302e312f77696e646f77732f676f312e342e32",
  "transactions": [
    {
      "hash": "0x2b32b7e354ba6ac9b2960590562897e3301f060f4620bb1e7edf2b57da3a9081",
      "blockHash": "0x5903d624dae0342874a5ba33f86086c3d8c69912230292f269913c6af37ec0a3",
      "blockNumber": 93071,
      "transactionIndex": 0,
      "confirmations": null,
      "from": "0xcf684DFB8304729355B58315E8019B1aa2AD1Bac",
      "gasPrice": {
        "_hex": "0xd7d40ace3"
      },
      "gasLimit": {
        "_hex": "0x15f90"
      },
      "to": "0xA938b9DCabbB3eA3cC14eE810138c803edee9222",
      "value": {
        "_hex": "0x269d026d2036fd0000"
      },
      "nonce": 2,
      "data": "0x",
      "r": "0x630cba51f0cf682b628b824782e24fbbd8fa8ce28d2674eb7c552dbab2438d69",
      "s": "0x63e6f8cf571e0b167e7e227e4836ccc60ad3b37a2ab2ee57de36d4e116ac0f53",
      "v": 28,
      "creates": null,
      "raw": "0xf86e02850d7d40ace383015f9094a938b9dcabbb3ea3cc14ee810138c803edee922289269d026d2036fd0000801ca0630cba51f0cf682b628b824782e24fbbd8fa8ce28d2674eb7c552dbab2438d69a063e6f8cf571e0b167e7e227e4836ccc60ad3b37a2ab2ee57de36d4e116ac0f53",
      "networkId": 0,
      "chainId": 0
    }
  ]
}