{
  "hash": "0xdb9a327214a16c6068042d932f3476ef870d0e34086c0687a0ff7bf70745d891",
  "parentHash": "0x17cd7fa48c0ecb379c7485cf31006135cd433f58f35410d0b7cb827e4b35914b",
  "number": 51025,
  "timestamp": 1438998201,
  "nonce": "0x59fbc61e2e4e5e79",
  "difficulty": 1554464537463,
  "gasLimit": {
    "_hex": "0x8b7fc"
  },
  "gasUsed": {
    "_hex": "0x13005"
  },
  "miner": "0xF2d2AfF1320476cb8C6b607199D23175cc595693",
  "extraData": "0x476574682f76312e302e312f77696e646f77732f676f312e342e32",
  "transactions": [
    {
      "hash": "0x5397f1735edd25fe1be9b7d1acf91ef1dd31e2f0bd590c3f946919dabd4ac40a",
      "blockHash": "0xdb9a327214a16c6068042d932f3476ef870d0e34086c0687a0ff7bf70745d891",
      "blockNumber": 51025,
      "transactionIndex": 0,
      "confirmations": null,
      "from": "0x0aA8aE2485e31c024201BdF77BfA25021BC10C5b",
      "gasPrice": {
        "_hex": "0x10bfb4c317c"
      },
      "gasLimit": {
        "_hex": "0x15f90"
      },
      "to": "0x109C4f2CCc82C4d77Bde15F306707320294Aea3F",
      "value": {
        "_hex": "0x56bc75e2d63100000"
      },
      "nonce": 0,
      "data": "0x",
      "r": "0xc0cf3165e9961e0898cdc603be1a13161b3617783aed735a521cba4bc989c43b",
      "s": "0x4879701f024858cacadcbdc6b2736da5cdd54e7c23e1d93275113b01b4536eb2",
      "v": 27,
      "creates": null,
      "raw": "0xf86f8086010bfb4c317c83015f9094109c4f2ccc82c4d77bde15f306707320294aea3f89056bc75e2d63100000801ba0c0cf3165e9961e0898cdc603be1a13161b3617783aed735a521cba4bc989c43ba04879701f024858cacadcbdc6b2736da5cdd54e7c23e1d93275113b01b4536eb2",
      "networkId": 0,
      "chainId": 0
    },
    {
      "hash": "0x768664b9bc7bb4b51f5304d8421d3800c6393b811b8655c7e365a6a913bc7a5a",
      "blockHash": "0xdb9a327214a16c6068042d932f3476ef870d0e34086c0687a0ff7bf70745d891",
      "blockNumber": 51025,
      "transactionIndex": 1,
      "confirmations": null,
      "from": "0x29aC2b458454A36c7e96C73A8667222a12242c71",
      "gasPrice": {
        "_hex": "0xba43b7400"
      },
      "gasLimit": {
        "_hex": "0x5208"
      },
      "to": "0x3e8c40498098dd81D00F8bCA8744a0053c82079A",
      "value": {
        "_hex": "0xd8d722fc1f4d7c6000"
      },
      "nonce": 0,
      "data": "0x",
      "r": "0x0019bb75a39fbacb93b3ec8988879647ceaf92f9f99a87f6adc59182a8523f43",
      "s": "0xde5cbf18fef2136503ef6cb3fc28af765d60c5ddb81491e1770170d6c9009a6a",
      "v": 27,
      "creates": null,
      "raw": "0xf86c80850ba43b7400825208943e8c40498098dd81d00f8bca8744a0053c82079a89d8d722fc1f4d7c6000801b9f19bb75a39fbacb93b3ec8988879647ceaf92f9f99a87f6adc59182a8523f43a0de5cbf18fef2136503ef6cb3fc28af765d60c5ddb81491e1770170d6c9009a6a",
      "networkId": 0,
      "chainId": 0
    }
  ]
}