{
  "hash": "0xe8d91d9f7b40c6069fac7e3608304e0ea6eb9a8bf4a9ec38908617df4ed7f719",
  "parentHash": "0xecae91c8e9528f73f6ed5b764dc3f2b7cdc8dc810228138f618662ccd1a76b35",
  "number": 70381,
  "timestamp": 1439318973,
  "nonce": "0x1bd56acacf105a6c",
  "difficulty": 2142698326911,
  "gasLimit": {
    "_hex": "0x2fefd8"
  },
  "gasUsed": {
    "_hex": "0x5208"
  },
  "miner": "0xE4Dd37247830493DE1Df7c758DD746DCdE19419e",
  "extraData": "0x476574682f76312e302e312f77696e646f77732f676f312e342e32",
  "transactions": [
    {
      "hash": "0x7984fbf46e17d91cab7c077f5c6b791e6c755508535d68e91ee041c46aeb0bcf",
      "blockHash": "0xe8d91d9f7b40c6069fac7e3608304e0ea6eb9a8bf4a9ec38908617df4ed7f719",
      "blockNumber": 70381,
      "transactionIndex": 0,
      "confirmations": null,
      "from": "0x92F401191F869a2b5A76B2b0FB1E0d9D948a3f1d",
      "gasPrice": {
        "_hex": "0x1059cad49d4"
      },
      "gasLimit": {
        "_hex": "0x15f90"
      },
      "to": "0x267069452478cA39b3f5F1A4fFdD4131f50Bc977",
      "value": {
        "_hex": "0x471fa858b9e080000"
      },
      "nonce": 1,
      "data": "0x",
      "r": "0xe522a330b70a011dc4b132419de3c1c3b4a060e90cf9a747527a36a719b6dfbe",
      "s": "0x4349e8be738ef0e112e959f02b35874ba63ebd9ec8589b6cc0cd210e62e9442d",
      "v": 27,
      "creates": null,
      "raw": "0xf86f018601059cad49d483015f9094267069452478ca39b3f5f1a4ffdd4131f50bc977890471fa858b9e080000801ba0e522a330b70a011dc4b132419de3c1c3b4a060e90cf9a747527a36a719b6dfbea04349e8be738ef0e112e959f02b35874ba63ebd9ec8589b6cc0cd210e62e9442d",
      "networkId": 0,
      "chainId": 0
    }
  ]
}