{
  "hash": "0x168195136625401bee2a57f70b915677ee6b572505a1469f6003c0ba9a091d44",
  "parentHash": "0x7dd06c4e7ba4bbe4f5088bbfdb928365bdc36aee5e02ebf37b21d76effeaf544",
  "number": 113002,
  "timestamp": 1440016415,
  "nonce": "0xaf012d43d26f4720",
  "difficulty": 4471428042958,
  "gasLimit": {
    "_hex": "0x2fefd8"
  },
  "gasUsed": {
    "_hex": "0x5208"
  },
  "miner": "0x445Aa5d2cB3Bc1A77460aB63C13328368d12fb9F",
  "extraData": "0x",
  "transactions": [
    {
      "hash": "0x6086140ae2ba0e1e71decfcf20204a33b2c915ba2654f07218b800cf535fea1b",
      "blockHash": "0x168195136625401bee2a57f70b915677ee6b572505a1469f6003c0ba9a091d44",
      "blockNumber": 113002,
      "transactionIndex": 0,
      "confirmations": null,
      "from": "0x120A270bbC009644e35F0bB6ab13f95b8199c4ad",
      "gasPrice": {
        "_hex": "0xcb7481149"
      },
      "gasLimit": {
        "_hex": "0x3d090"
      },
      "to": "0x16Aa904405CF81815f608Ffe926ecE969509293C",
      "value": {
        "_hex": "0x3949ea8ecc8fc5000"
      },
      "nonce": 904,
      "data": "0x",
      "r": "0x9e1540681e0a3b0247bf8c3efa0995a9cf9a8cef757919c0f49a53961f7264a9",
      "s": "0x49b6cdd16c3110f8fd447df0df0a91c4bb464e13939b79fbf0a73a8bba2686b2",
      "v": 27,
      "creates": null,
      "raw": "0xf870820388850cb74811498303d0909416aa904405cf81815f608ffe926ece969509293c8903949ea8ecc8fc5000801ba09e1540681e0a3b0247bf8c3efa0995a9cf9a8cef757919c0f49a53961f7264a9a049b6cdd16c3110f8fd447df0df0a91c4bb464e13939b79fbf0a73a8bba2686b2",
      "networkId": 0,
      "chainId": 0
    }
  ]
}