{
  "hash": "0x2c74eb2ef7d0da15f6e3cd06ef6dcd1a63bf913ef993b8404398d85ec32612e4",
  "parentHash": "0x6a68c9dea11002279814c30993d4cd8d340a165fa5dede681f6d31cb6768d395",
  "number": 111531,
  "timestamp": 1439991756,
  "nonce": "0x1da004f62c20f122",
  "difficulty": 4448255927761,
  "gasLimit": {
    "_hex": "0x2fefd8"
  },
  "gasUsed": {
    "_hex": "0xa410"
  },
  "miner": "0xe6A7a1d47ff21B6321162AEA7C6CB457D5476Bca",
  "extraData": "0x476574682f76312e302e312d38326566323666362f6c696e75782f676f312e34",
  "transactions": [
    {
      "hash": "0xb75632a902a4267550a163560846562c57b37aeb5ee5eabf0fb80c410861ed6c",
      "blockHash": "0x2c74eb2ef7d0da15f6e3cd06ef6dcd1a63bf913ef993b8404398d85ec32612e4",
      "blockNumber": 111531,
      "transactionIndex": 0,
      "confirmations": null,
      "from": "0xDA4E0Ba268486216E0B3Ad5ccEAa1E7EdB1C2751",
      "gasPrice": {
        "_hex": "0xd1d86b6ae"
      },
      "gasLimit": {
        "_hex": "0x5208"
      },
      "to": "0x32Be343B94f860124dC4fEe278FDCBD38C102D88",
      "value": {
        "_hex": "0x18cbfd7268453a000"
      },
      "nonce": 9,
      "data": "0x",
      "r": "0x2b9bbfb8b41d7e9c7793e493960abf665cfd4845797639f84add7fd7365e17ca",
      "s": "0x2c6e79b56152cb785d6a9fce95e6b663b9469805d3fdd12e7cbed6c964c0d8cc",
      "v": 28,
      "creates": null,
      "raw": "0xf86d09850d1d86b6ae8252089432be343b94f860124dc4fee278fdcbd38c102d8889018cbfd7268453a000801ca02b9bbfb8b41d7e9c7793e493960abf665cfd4845797639f84add7fd7365e17caa02c6e79b56152cb785d6a9fce95e6b663b9469805d3fdd12e7cbed6c964c0d8cc",
      "networkId": 0,
      "chainId": 0
    },
    {
      "hash": "0x4eb9e2b0b2b205a318230a9c187b377c93739a7ca234139db2b6dd93004a4342",
      "blockHash": "0x2c74eb2ef7d0da15f6e3cd06ef6dcd1a63bf913ef993b8404398d85ec32612e4",
      "blockNumber": 111531,
      "transactionIndex": 1,
      "confirmations": null,
      "from": "0x5E33810d055F68eBA415be93fAEC212e9a2d6723",
      "gasPrice": {
        "_hex": "0xd1d86b6ae"
      },
      "gasLimit": {
        "_hex": "0x5208"
      },
      "to": "0x32Be343B94f860124dC4fEe278FDCBD38C102D88",
      "value": {
        "_hex": "0x1190630781801e0000"
      },
      "nonce": 3,
      "data": "0x",
      "r": "0x933937bb399bb049ab70efc1fbbd0af20329e7d9dde3c2624107a0133da4748b",
      "s": "0x6c3e5349b7df302ad3673fc242aef0f2ffc82236add2379e4d09f118a78fd687",
      "v": 27,
      "creates": null,
      "raw": "0xf86d03850d1d86b6ae8252089432be343b94f860124dc4fee278fdcbd38c102d88891190630781801e0000801ba0933937bb399bb049ab70efc1fbbd0af20329e7d9dde3c2624107a0133da4748ba06c3e5349b7df302ad3673fc242aef0f2ffc82236add2379e4d09f118a78fd687",
      "networkId": 0,
      "chainId": 0
    }
  ]
}