{
  "hash": "0x19e18b6e3732d81430b9ed241be274597c0d27e66203f7406601ae3bd85e3864",
  "parentHash": "0xe5b98e326ccd78be675782a4960fd06f7d6c86391ae6fa3d92fe5e72b0642c06",
  "number": 55574,
  "timestamp": 1439072947,
  "nonce": "0x19a02dfac2beebb8",
  "difficulty": 1622626104634,
  "gasLimit": {
    "_hex": "0x2fefd5"
  },
  "gasUsed": {
    "_hex": "0x5208"
  },
  "miner": "0xf927a40C8B7F6E07c5af7FA2155B4864a4112B13",
  "extraData": "0x476574682f76312e302e312f6c696e75782f676f312e342e32",
  "transactions": [
    {
      "hash": "0x6e21592840c7124a01ce9178cf189a6c9fa0fb22ea8d2e28b607854d688504a4",
      "blockHash": "0x19e18b6e3732d81430b9ed241be274597c0d27e66203f7406601ae3bd85e3864",
      "blockNumber": 55574,
      "transactionIndex": 0,
      "confirmations": null,
      "from": "0x120A270bbC009644e35F0bB6ab13f95b8199c4ad",
      "gasPrice": {
        "_hex": "0xdc1fdbbbd"
      },
      "gasLimit": {
        "_hex": "0x15f90"
      },
      "to": "0x26eAB902725342208bC79c5Bfa2C5fE795f7aeD6",
      "value": {
        "_hex": "0x30ca024f987b900000"
      },
      "nonce": 19,
      "data": "0x",
      "r": "0x05276c0ef9d3a34a4048966740ebb97a2bd7cb3557800b762724a068e575ce05",
      "s": "0x3a5dce865e08e388020b17635825e19d9d55ef2729990e11ed3633af5e4fd229",
      "v": 28,
      "creates": null,
      "raw": "0xf86e13850dc1fdbbbd83015f909426eab902725342208bc79c5bfa2c5fe795f7aed68930ca024f987b900000801ca005276c0ef9d3a34a4048966740ebb97a2bd7cb3557800b762724a068e575ce05a03a5dce865e08e388020b17635825e19d9d55ef2729990e11ed3633af5e4fd229",
      "networkId": 0,
      "chainId": 0
    }
  ]
}