{
  "hash": "0x9ea8482539bc0415362a908a527655664063f0d1f2918e74095380fe47f1507d",
  "parentHash": "0xcee404e7bb8e9fb31864cdee26c08e8b05c832c48235ee66e97ccf7adaff8c04",
  "number": 65296,
  "timestamp": 1439234460,
  "nonce": "0xf6c7145ba928efa0",
  "difficulty": 1947371862363,
  "gasLimit": {
    "_hex": "0x2fefd8"
  },
  "gasUsed": {
    "_hex": "0x5208"
  },
  "miner": "0x47ff6576639c2e94762eA5443978D7681C0E78DC",
  "extraData": "0x476574682f76312e302e312f6c696e75782f676f312e342e32",
  "transactions": [
    {
      "hash": "0xb88df2906491b26d8a1214fee8e25f24b54844d2030fd3e658a54b31779e524a",
      "blockHash": "0x9ea8482539bc0415362a908a527655664063f0d1f2918e74095380fe47f1507d",
      "blockNumber": 65296,
      "transactionIndex": 0,
      "confirmations": null,
      "from": "0x2910543Af39abA0Cd09dBb2D50200b3E800A63D2",
      "gasPrice": {
        "_hex": "0xd2e34bd32"
      },
      "gasLimit": {
        "_hex": "0x5208"
      },
      "to": "0x296dE94E7A50ccfa9c9EFDEd86d690319973683d",
      "value": {
        "_hex": "0x6c6a7723f83f38000"
      },
      "nonce": 173,
      "data": "0x",
      "r": "0xd75ef3efd7c4ae614676ca2bbfd9c9d08199cb6f9ef9f5cf4c61824737cce7c9",
      "s": "0x2ca839c5fc11f8c1c2b582630f6243b66bcff999e20bc585f754d742aac27cb7",
      "v": 27,
      "creates": null,
      "raw": "0xf86e81ad850d2e34bd3282520894296de94e7a50ccfa9c9efded86d690319973683d8906c6a7723f83f38000801ba0d75ef3efd7c4ae614676ca2bbfd9c9d08199cb6f9ef9f5cf4c61824737cce7c9a02ca839c5fc11f8c1c2b582630f6243b66bcff999e20bc585f754d742aac27cb7",
      "networkId": 0,
      "chainId": 0
    }
  ]
}