{
  "hash": "0xb72d0273f2ed27730220c5ea8d4428043b8809fe6574b372a58387102f96216e",
  "parentHash": "0xfd914b27fd68eb769eaa73ba528f16dcf3e23d8cf0ad8c53899ba6cfc2adb1e3",
  "number": 122198,
  "timestamp": 1440189799,
  "nonce": "0xa3ca410a84f02146",
  "difficulty": 4488391488323,
  "gasLimit": {
    "_hex": "0x2fefd8"
  },
  "gasUsed": {
    "_hex": "0x18326"
  },
  "miner": "0xaB638742EBe3A78F2a85028350e1AADB86C0a6ed",
  "extraData": "0xd983010002844765746887676f312e342e328777696e646f7773",
  "transactions": [
    {
      "hash": "0x86fc6329c5c523627ec05a509ea46701d150809323163fad69896859ec00d7f3",
      "blockHash": "0xb72d0273f2ed27730220c5ea8d4428043b8809fe6574b372a58387102f96216e",
      "blockNumber": 122198,
      "transactionIndex": 0,
      "confirmations": null,
      "from": "0xB4B3c8B3bA50E3FF2C3bD7c750Cbe1B8F8f5b302",
      "gasPrice": {
        "_hex": "0xba43b7400"
      },
      "gasLimit": {
        "_hex": "0x249f0"
      },
      "to": "0xE28e72FCf78647ADCe1F1252F240bbfaebD63BcC",
      "value": {
        "_hex": "0x55c8362015e220000"
      },
      "nonce": 1,
      "data": "0x45466f3a",
      "r": "0xf9568eb8b2a40ee9859af4cf8caf5f917e53a59fb2d9aa84efbae3eb222959e3",
      "s": "0x0324656c5c7c67f28043e9f7542da5ce8e4caabf8edbb7c3b8f1f9e99dd5860f",
      "v": 28,
      "creates": null,
      "raw": "0xf87201850ba43b7400830249f094e28e72fcf78647adce1f1252f240bbfaebd63bcc89055c8362015e2200008445466f3a1ca0f9568eb8b2a40ee9859af4cf8caf5f917e53a59fb2d9aa84efbae3eb222959e3a00324656c5c7c67f28043e9f7542da5ce8e4caabf8edbb7c3b8f1f9e99dd5860f",
      "networkId": 0,
      "chainId": 0
    }
  ]
}