{
  "hash": "0xf174f3bf3af1a1b0ada4bc011ad02e68fcc77b73fbd08433239c475b8eb1d62f",
  "parentHash": "0x588086c66b03350e07bf6dc05374091ded917d4ac2d307f79fa1578ed72479a2",
  "number": 49779,
  "timestamp": 1438979060,
  "nonce": "0xef122440e5ac43a4",
  "difficulty": 1489307011527,
  "gasLimit": {
    "_hex": "0x3ebb0"
  },
  "gasUsed": {
    "_hex": "0x546c"
  },
  "miner": "0xf927a40C8B7F6E07c5af7FA2155B4864a4112B13",
  "extraData": "0x476574682f76312e302e312f6c696e75782f676f312e342e32",
  "transactions": [
    {
      "hash": "0x013ef3dcff54afb48d6409810c537d03cadea331681b519e5e60009c4c654fef",
      "blockHash": "0xf174f3bf3af1a1b0ada4bc011ad02e68fcc77b73fbd08433239c475b8eb1d62f",
      "blockNumber": 49779,
      "transactionIndex": 0,
      "confirmations": null,
      "from": "0xcab9A97aDa065c87816e6860A8f1426fe6B3D775",
      "gasPrice": {
        "_hex": "0xd752f995b"
      },
      "gasLimit": {
        "_hex": "0x15f90"
      },
      "to": "0x2910543Af39abA0Cd09dBb2D50200b3E800A63D2",
      "value": {
        "_hex": "0x363466684d81160000"
      },
      "nonce": 0,
      "data": "0x454e354b394b523138",
      "r": "0xfa22f5e36bb610b7ee83830bd8ff681ee0e3f54f01e05a9273a273c992fd0e0b",
      "s": "0x536dd13831ac2d753c64b4731642208e2f916a8c21bf69473b8d5c7573346580",
      "v": 28,
      "creates": null,
      "raw": "0xf87780850d752f995b83015f90942910543af39aba0cd09dbb2d50200b3e800a63d289363466684d8116000089454e354b394b5231381ca0fa22f5e36bb610b7ee83830bd8ff681ee0e3f54f01e05a9273a273c992fd0e0ba0536dd13831ac2d753c64b4731642208e2f916a8c21bf69473b8d5c7573346580",
      "networkId": 0,
      "chainId": 0
    }
  ]
}