{
  "hash": "0xc3f24574378cd3471f85fa27995c0fdfa98f126852130eed559b6b69a1c5f743",
  "parentHash": "0x6047bf50f5ac02624a841399d3b67d91650568c00394394688bd2c214afedb76",
  "number": 54717,
  "timestamp": 1439058799,
  "nonce": "0x2a037aac462b57c1",
  "difficulty": 1618834822227,
  "gasLimit": {
    "_hex": "0x2fefd8"
  },
  "gasUsed": {
    "_hex": "0xa674"
  },
  "miner": "0x4947190fcC30D3fb3a16233b259bFe6b3492339a",
  "extraData": "0x",
  "transactions": [
    {
      "hash": "0x10a7aaa39c35f46bfbabd72c715eeddaba7bbc40e68a062110c2f8e2a41ecfb7",
      "blockHash": "0xc3f24574378cd3471f85fa27995c0fdfa98f126852130eed559b6b69a1c5f743",
      "blockNumber": 54717,
      "transactionIndex": 0,
      "confirmations": null,
      "from": "0x4BbCbF38b3C90163A84b1cD2a93b58b2a3348d87",
      "gasPrice": {
        "_hex": "0x110c8f7d8de"
      },
      "gasLimit": {
        "_hex": "0xc350"
      },
      "to": "0x2910543Af39abA0Cd09dBb2D50200b3E800A63D2",
      "value": {
        "_hex": "0x10f0cf064dd59200000"
      },
      "nonce": 2,
      "data": "0x454e47354a34375130",
      "r": "0x2ed3d3285041691a8a939fda9cd0705aa4c5e684a067ec8ea68fecb73a2f8025",
      "s": "0x3692b8f8ac1c0f70a8e6694aeb9940769d68781757a34f3925033d24b14664fb",
      "v": 27,
      "creates": null,
      "raw": "0xf87802860110c8f7d8de82c350942910543af39aba0cd09dbb2d50200b3e800a63d28a010f0cf064dd5920000089454e47354a343751301ba02ed3d3285041691a8a939fda9cd0705aa4c5e684a067ec8ea68fecb73a2f8025a03692b8f8ac1c0f70a8e6694aeb9940769d68781757a34f3925033d24b14664fb",
      "networkId": 0,
      "chainId": 0
    },
    {
      "hash": "0x8eb2715de727761c434740de62ad463f7fad6c53aefbcb776f06bd6e2293af62",
      "blockHash": "0xc3f24574378cd3471f85fa27995c0fdfa98f126852130eed559b6b69a1c5f743",
      "blockNumber": 54717,
      "transactionIndex": 1,
      "confirmations": null,
      "from": "0xF9B37825F03073d31E249378C30c795C33F83aF2",
      "gasPrice": {
        "_hex": "0xe1763bcf2"
      },
      "gasLimit": {
        "_hex": "0x15f90"
      },
      "to": "0x88c7F66b99e7f9235A092a57AfAB243B0F9A6364",
      "value": {
        "_hex": "0xac9ae05a71ebc0000"
      },
      "nonce": 3,
      "data": "0x",
      "r": "0xefba1190da2a035275ceb43e5355a203de304430799082b09c3c74aadb928e63",
      "s": "0x7df4dd65de82e31cb92e535ff202c68466339a73000c6f01eb04b26841ebea50",
      "v": 28,
      "creates": null,
      "raw": "0xf86e03850e1763bcf283015f909488c7f66b99e7f9235a092a57afab243b0f9a6364890ac9ae05a71ebc0000801ca0efba1190da2a035275ceb43e5355a203de304430799082b09c3c74aadb928e63a07df4dd65de82e31cb92e535ff202c68466339a73000c6f01eb04b26841ebea50",
      "networkId": 0,
      "chainId": 0
    }
  ]
}