{
  "hash": "0xd30bef06785a83a60154fa741da93a2ee8bb70a731c8ba4f9414d58e284ba8ba",
  "parentHash": "0x7739679578655688349d0bb525f632c4201e72a087e1a5ebfd6fe2c6a8f56360",
  "number": 62007,
  "timestamp": 1439181834,
  "nonce": "0x8d292024414d1cbd",
  "difficulty": 1745444917343,
  "gasLimit": {
    "_hex": "0x2fefd8"
  },
  "gasUsed": {
    "_hex": "0x2aa6d"
  },
  "miner": "0x47ff6576639c2e94762eA5443978D7681C0E78DC",
  "extraData": "0x476574682f76312e302e312f6c696e75782f676f312e342e32",
  "transactions": [
    {
      "hash": "0xc48a0695d9a327bb0505a8c17cefa5229a226581e711ab3e37bc21dcb0ab68e9",
      "blockHash": "0xd30bef06785a83a60154fa741da93a2ee8bb70a731c8ba4f9414d58e284ba8ba",
      "blockNumber": 62007,
      "transactionIndex": 0,
      "confirmations": null,
      "from": "0xE589Fa76984DB5eC4004b46EE8a59492C30744cE",
      "gasPrice": {
        "_hex": "0x110c8f7d8de"
      },
      "gasLimit": {
        "_hex": "0xc350"
      },
      "to": "0x2910543Af39abA0Cd09dBb2D50200b3E800A63D2",
      "value": {
        "_hex": "0x233c8fe42703e80000"
      },
      "nonce": 1,
      "data": "0x454e394d3441444147",
      "r": "0x333192f4bcf2021c148315a1940b5910644961cae48c286d7bc29719bf82f226",
      "s": "0x1347d9c09ea1a28fca7093a965151ca6ec43296c447475390f44ac0dc7653d0d",
      "v": 27,
      "creates": null,
      "raw": "0xf87701860110c8f7d8de82c350942910543af39aba0cd09dbb2d50200b3e800a63d289233c8fe42703e8000089454e394d34414441471ba0333192f4bcf2021c148315a1940b5910644961cae48c286d7bc29719bf82f226a01347d9c09ea1a28fca7093a965151ca6ec43296c447475390f44ac0dc7653d0d",
      "networkId": 0,
      "chainId": 0
    },
    {
      "hash": "0xfd08fc7bc5befa6d08a43417db3cd0b7c6bb971fb67e9c360ffbb9aa7ff3ca0f",
      "blockHash": "0xd30bef06785a83a60154fa741da93a2ee8bb70a731c8ba4f9414d58e284ba8ba",
      "blockNumber": 62007,
      "transactionIndex": 1,
      "confirmations": null,
      "from": "0xa748fac76B1d857E2f77484a0F816463e8b56EDc",
      "gasPrice": {
        "_hex": "0x102fd3d4b48"
      },
      "gasLimit": {
        "_hex": "0x7a120"
      },
      "to": "0xfBc128067A2FE13C11BBC6cc55f29AA1F27630DA",
      "value": {
        "_hex": "0xde0b6b3a7640000"
      },
      "nonce": 3,
      "data": "0x",
      "r": "0xe2857aeec773522b2c65edb8c9e5d0a55762b1c635e0895b819b75fce8aa6184",
      "s": "0x75c298830ac5a5790a9c1df3db5b7bf42051fbb35176ac1bcf34c264a2b51c82",
      "v": 27,
      "creates": null,
      "raw": "0xf86e03860102fd3d4b488307a12094fbc128067a2fe13c11bbc6cc55f29aa1f27630da880de0b6b3a7640000801ba0e2857aeec773522b2c65edb8c9e5d0a55762b1c635e0895b819b75fce8aa6184a075c298830ac5a5790a9c1df3db5b7bf42051fbb35176ac1bcf34c264a2b51c82",
      "networkId": 0,
      "chainId": 0
    },
    {
      "hash": "0x50aa4ca364532aab49ffce4ccdbdaa2a331f3efe4411431feb0e5e15bd35779e",
      "blockHash": "0xd30bef06785a83a60154fa741da93a2ee8bb70a731c8ba4f9414d58e284ba8ba",
      "blockNumber": 62007,
      "transactionIndex": 2,
      "confirmations": null,
      "from": "0x828B10061A800ddd5F632023F3A56C58065F5f90",
      "gasPrice": {
        "_hex": "0xd00f81c8f"
      },
      "gasLimit": {
        "_hex": "0x15f90"
      },
      "to": "0xC7d3E431Be6222543364408a94C12C0D089Be305",
      "value": {
        "_hex": "0x0"
      },
      "nonce": 0,
      "data": "0x3ba15036",
      "r": "0xcbf8cd38106dfa69acf57b10134f2043043bb9b7808b83cc69c5965c3426f579",
      "s": "0x0f2a935c3aa614541daf54f83813b419f6a2c8e2607d78c99d657301c8d36084",
      "v": 27,
      "creates": null,
      "raw": "0xf86980850d00f81c8f83015f9094c7d3e431be6222543364408a94c12c0d089be30580843ba150361ba0cbf8cd38106dfa69acf57b10134f2043043bb9b7808b83cc69c5965c3426f579a00f2a935c3aa614541daf54f83813b419f6a2c8e2607d78c99d657301c8d36084",
      "networkId": 0,
      "chainId": 0
    }
  ]
}