{
  "hash": "0x456688948cada766f1e68a09a91fc1d5b05b9691e0004c104d91481dd9a8c96c",
  "parentHash": "0x87a7199e86455822ec5a34b8315eb3445e7e972f09a70095ea735345a2b818ad",
  "number": 94302,
  "timestamp": 1439705987,
  "nonce": "0x150e7a54603fa90b",
  "difficulty": 3476516456426,
  "gasLimit": {
    "_hex": "0x2fefd8"
  },
  "gasUsed": {
    "_hex": "0x5208"
  },
  "miner": "0x88D74a59454F6cF3B51ef6b9136AFb6b9D405A88",
  "extraData": "0x476574682f76312e302e312d37666266393930632f6c696e75782f676f312e34",
  "transactions": [
    {
      "hash": "0xc1195b2ffb321c55fde33cd552a902b0bb0aac976cd18c8c52f7b9d1068a1621",
      "blockHash": "0x456688948cada766f1e68a09a91fc1d5b05b9691e0004c104d91481dd9a8c96c",
      "blockNumber": 94302,
      "transactionIndex": 0,
      "confirmations": null,
      "from": "0x2910543Af39abA0Cd09dBb2D50200b3E800A63D2",
      "gasPrice": {
        "_hex": "0xdc2d97104"
      },
      "gasLimit": {
        "_hex": "0x5208"
      },
      "to": "0x2707836DbE604b0eBfdb0F20870dD749C8572676",
      "value": {
        "_hex": "0x1b1ad31369b76f8000"
      },
      "nonce": 872,
      "data": "0x",
      "r": "0x62bda0c766c8962cabc45e4a4953f73961de823fca3a67b561efcef907afef7a",
      "s": "0x467da2184fab8fe71ff12b7a5efc5366211cd7404f432fc652ad95c1ad6ca865",
      "v": 27,
      "creates": null,
      "raw": "0xf86f820368850dc2d97104825208942707836dbe604b0ebfdb0f20870dd749c8572676891b1ad31369b76f8000801ba062bda0c766c8962cabc45e4a4953f73961de823fca3a67b561efcef907afef7aa0467da2184fab8fe71ff12b7a5efc5366211cd7404f432fc652ad95c1ad6ca865",
      "networkId": 0,
      "chainId": 0
    }
  ]
}