{
  "hash": "0x48d9c70b0f2561717627a8899f33fe2875109d83d88760074522883e70388c91",
  "parentHash": "0x40cdde52f3b723d9d2554476c5dee1dbdf602d519a0504c5da88d8e64fb658e0",
  "number": 64641,
  "timestamp": 1439224027,
  "nonce": "0x5c4beed068f7d46a",
  "difficulty": 1888526813838,
  "gasLimit": {
    "_hex": "0x2fefd8"
  },
  "gasUsed": {
    "_hex": "0x5bea8"
  },
  "miner": "0xf927a40C8B7F6E07c5af7FA2155B4864a4112B13",
  "extraData": "0x",
  "transactions": [
    {
      "hash": "0xee9c337090c58f8c5af99f96ea7efe9a86577cade7608f487d1d6af9c6013819",
      "blockHash": "0x48d9c70b0f2561717627a8899f33fe2875109d83d88760074522883e70388c91",
      "blockNumber": 64641,
      "transactionIndex": 0,
      "confirmations": null,
      "from": "0x468A38bCA5f3c6C36d959caFa2C4908A30989352",
      "gasPrice": {
        "_hex": "0xba43b7400"
      },
      "gasLimit": {
        "_hex": "0x15f90"
      },
      "to": "0x793AE8C1b1a160BFc07BFB0d04F85eab1A71F4f2",
      "value": {
        "_hex": "0x0"
      },
      "nonce": 0,
      "data": "0x3ba15036",
      "r": "0x169583e78f08209853946ff28ed7bc7d2ff3f3c99cbabf7ce7d3c3ba73097eeb",
      "s": "0x35cd5ea12601bd8944bc0991c9498d43fc1cea20d9a70ae42ada7f2c9880225d",
      "v": 28,
      "creates": null,
      "raw": "0xf86980850ba43b740083015f9094793ae8c1b1a160bfc07bfb0d04f85eab1a71f4f280843ba150361ca0169583e78f08209853946ff28ed7bc7d2ff3f3c99cbabf7ce7d3c3ba73097eeba035cd5ea12601bd8944bc0991c9498d43fc1cea20d9a70ae42ada7f2c9880225d",
      "networkId": 0,
      "chainId": 0
    },
    {
      "hash": "0x64afc8bbc46a6558b3f61245f5c2833f89d0bd41add47f8e523453118c955c58",
      "blockHash": "0x48d9c70b0f2561717627a8899f33fe2875109d83d88760074522883e70388c91",
      "blockNumber": 64641,
      "transactionIndex": 1,
      "confirmations": null,
      "from": "0xeFfD11492fcF695e6BAEcB464E177483290F7803",
      "gasPrice": {
        "_hex": "0xba43b7400"
      },
      "gasLimit": {
        "_hex": "0x5208"
      },
      "to": "0x6bBf1f700fAAd9da910C0e8234CD2F1a3BeA6105",
      "value": {
        "_hex": "0xf0088de8d15000"
      },
      "nonce": 1,
      "data": "0x",
      "r": "0x1bf1f5e9b36a8f48eae2676f375886a96df8a4de4c6cd58858b10cb9b3e989a6",
      "s": "0x6bf508a80361efa4c9aed4693df371ce7595229233d9b6bfd741a3e711e6c981",
      "v": 27,
      "creates": null,
      "raw": "0xf86b01850ba43b7400825208946bbf1f700faad9da910c0e8234cd2f1a3bea610587f0088de8d15000801ba01bf1f5e9b36a8f48eae2676f375886a96df8a4de4c6cd58858b10cb9b3e989a6a06bf508a80361efa4c9aed4693df371ce7595229233d9b6bfd741a3e711e6c981",
      "networkId": 0,
      "chainId": 0
    },
    {
      "hash": "0xbab1234ebaae1250c450e87aac83e687b073d9e6ec538be1062fe95a3d5b76d1",
      "blockHash": "0x48d9c70b0f2561717627a8899f33fe2875109d83d88760074522883e70388c91",
      "blockNumber": 64641,
      "transactionIndex": 2,
      "confirmations": null,
      "from": "0xD73Ec3B8Cbbe16c4f27f5922a5729EEb85303392",
      "gasPrice": {
        "_hex": "0xba43b7400"
      },
      "gasLimit": {
        "_hex": "0x5208"
      },
      "to": "0x26E365bA787fFd7096B2BA99a007b600A2Aa7311",
      "value": {
        "_hex": "0xaa9f075c200000"
      },
      "nonce": 1,
      "data": "0x",
      "r": "0x75c40e01be231196616f3e99a894d8c568f706f6bd651154040bba3fe870520a",
      "s": "0x18c895250e5e23960a6cb6512627d25d1296fea9ced51e751d27c78b21654388",
      "v": 28,
      "creates": null,
      "raw": "0xf86b01850ba43b74008252089426e365ba787ffd7096b2ba99a007b600a2aa731187aa9f075c200000801ca075c40e01be231196616f3e99a894d8c568f706f6bd651154040bba3fe870520aa018c895250e5e23960a6cb6512627d25d1296fea9ced51e751d27c78b21654388",
      "networkId": 0,
      "chainId": 0
    },
    {
      "hash": "0xc4f647fdcb32a3e342cc6fbd23d39339271d76e22a6cd4d9cfd422655ce8d059",
      "blockHash": "0x48d9c70b0f2561717627a8899f33fe2875109d83d88760074522883e70388c91",
      "blockNumber": 64641,
      "transactionIndex": 3,
      "confirmations": null,
      "from": "0x1c914c3D59635fae955e2eB1Ba114346635AE4F3",
      "gasPrice": {
        "_hex": "0xba43b7400"
      },
      "gasLimit": {
        "_hex": "0x15f90"
      },
      "to": "0x793AE8C1b1a160BFc07BFB0d04F85eab1A71F4f2",
      "value": {
        "_hex": "0x0"
      },
      "nonce": 0,
      "data": "0x3ba15036",
      "r": "0xb1daa61c15b5bf925a94de3d23594c8bcb41a47e620b9af201fc3ca234be8f13",
      "s": "0x7060af1dedeecdc7e6b05287e618c693b8ab0d1314cdffd56e8c5487c084001d",
      "v": 28,
      "creates": null,
      "raw": "0xf86980850ba43b740083015f9094793ae8c1b1a160bfc07bfb0d04f85eab1a71f4f280843ba150361ca0b1daa61c15b5bf925a94de3d23594c8bcb41a47e620b9af201fc3ca234be8f13a07060af1dedeecdc7e6b05287e618c693b8ab0d1314cdffd56e8c5487c084001d",
      "networkId": 0,
      "chainId": 0
    },
    {
      "hash": "0x10d8bff6679a3ca2df41fb9bbb690b15e609625e4b8fe6556205e9673435aaed",
      "blockHash": "0x48d9c70b0f2561717627a8899f33fe2875109d83d88760074522883e70388c91",
      "blockNumber": 64641,
      "transactionIndex": 4,
      "confirmations": null,
      "from": "0x2A7B74289D69f49B0405e8Af3EFa592BAA0fd8EB",
      "gasPrice": {
        "_hex": "0xba43b7400"
      },
      "gasLimit": {
        "_hex": "0x15f90"
      },
      "to": "0x793AE8C1b1a160BFc07BFB0d04F85eab1A71F4f2",
      "value": {
        "_hex": "0x0"
      },
      "nonce": 0,
      "data": "0x3ba15036",
      "r": "0x8900aec8ef5065c99093efc5273c763688820c7e71411609240281dde0dded0d",
      "s": "0x3eb77802dc708ba9ab3191d97b3ef8c76e3d36276d500d710db290660b433740",
      "v": 28,
      "creates": null,
      "raw": "0xf86980850ba43b740083015f9094793ae8c1b1a160bfc07bfb0d04f85eab1a71f4f280843ba150361ca08900aec8ef5065c99093efc5273c763688820c7e71411609240281dde0dded0da03eb77802dc708ba9ab3191d97b3ef8c76e3d36276d500d710db290660b433740",
      "networkId": 0,
      "chainId": 0
    },
    {
      "hash": "0x2d83f3c156245715971dd53a14ce61a1cefbe30240dfcec85aba83f4546bf378",
      "blockHash": "0x48d9c70b0f2561717627a8899f33fe2875109d83d88760074522883e70388c91",
      "blockNumber": 64641,
      "transactionIndex": 5,
      "confirmations": null,
      "from": "0x23aFc83CF20C1B7714Db5223f8b0edE6E6FF0AEc",
      "gasPrice": {
        "_hex": "0xba43b7400"
      },
      "gasLimit": {
        "_hex": "0x15f90"
      },
      "to": "0x793AE8C1b1a160BFc07BFB0d04F85eab1A71F4f2",
      "value": {
        "_hex": "0x0"
      },
      "nonce": 0,
      "data": "0x3ba15036",
      "r": "0x44d0b77530b6c53c9483c106a75c3c343f46aa47b502d68b549970b0f97e2fe6",
      "s": "0x0ce5848c05b3a076abccd3a1354617cd987a3c89c5e1de304b2ffff57c246054",
      "v": 27,
      "creates": null,
      "raw": "0xf86980850ba43b740083015f9094793ae8c1b1a160bfc07bfb0d04f85eab1a71f4f280843ba150361ba044d0b77530b6c53c9483c106a75c3c343f46aa47b502d68b549970b0f97e2fe6a00ce5848c05b3a076abccd3a1354617cd987a3c89c5e1de304b2ffff57c246054",
      "networkId": 0,
      "chainId": 0
    },
    {
      "hash": "0xba66520e088616e2249980a0e0952479e2ed3e62d4655ffd746dc18eb14e68e6",
      "blockHash": "0x48d9c70b0f2561717627a8899f33fe2875109d83d88760074522883e70388c91",
      "blockNumber": 64641,
      "transactionIndex": 6,
      "confirmations": null,
      "from": "0xe438FC467FBa78a8A2e7b856da6114fE045aA62B",
      "gasPrice": {
        "_hex": "0xba43b7400"
      },
      "gasLimit": {
        "_hex": "0x15f90"
      },
      "to": "0x793AE8C1b1a160BFc07BFB0d04F85eab1A71F4f2",
      "value": {
        "_hex": "0x0"
      },
      "nonce": 0,
      "data": "0x3ba15036",
      "r": "0x392084e907b535b6d9449d9f9c26c353308b8dc20bb726528db03cec1ccb01e6",
      "s": "0x2351bf37dabbc997470e9033842c20b1eab318ec3335c919d6e1864a7592e8ef",
      "v": 27,
      "creates": null,
      "raw": "0xf86980850ba43b740083015f9094793ae8c1b1a160bfc07bfb0d04f85eab1a71f4f280843ba150361ba0392084e907b535b6d9449d9f9c26c353308b8dc20bb726528db03cec1ccb01e6a02351bf37dabbc997470e9033842c20b1eab318ec3335c919d6e1864a7592e8ef",
      "networkId": 0,
      "chainId": 0
    },
    {
      "hash": "0xc33609a3325b90829320631e0939eeec55617cbc43969bfcc67e3bb8f662cd9e",
      "blockHash": "0x48d9c70b0f2561717627a8899f33fe2875109d83d88760074522883e70388c91",
      "blockNumber": 64641,
      "transactionIndex": 7,
      "confirmations": null,
      "from": "0xAd8f7C1349B760389C4B11F80EE1eFF1B90CE40E",
      "gasPrice": {
        "_hex": "0xba43b7400"
      },
      "gasLimit": {
        "_hex": "0x5208"
      },
      "to": "0x7C642150b0E8052316A3869337c65Cc361135b74",
      "value": {
        "_hex": "0x7c58ada8ff2000"
      },
      "nonce": 1,
      "data": "0x",
      "r": "0x9b11c85ebfbed629402d93c3018dcb1710fd106dee97b8b5beea26096fde4563",
      "s": "0x7bcbae20d7181ed6e3b3b1b1abe8ea3f5af0a810f5e811b13107c0757f276531",
      "v": 27,
      "creates": null,
      "raw": "0xf86b01850ba43b7400825208947c642150b0e8052316a3869337c65cc361135b74877c58ada8ff2000801ba09b11c85ebfbed629402d93c3018dcb1710fd106dee97b8b5beea26096fde4563a07bcbae20d7181ed6e3b3b1b1abe8ea3f5af0a810f5e811b13107c0757f276531",
      "networkId": 0,
      "chainId": 0
    },
    {
      "hash": "0xfe2821ffb52537c954551aacf248c686762f50dc0f7d61e884f6264921dd5c72",
      "blockHash": "0x48d9c70b0f2561717627a8899f33fe2875109d83d88760074522883e70388c91",
      "blockNumber": 64641,
      "transactionIndex": 8,
      "confirmations": null,
      "from": "0x64b91466Aa386917d7364F6242784bF3d2093B57",
      "gasPrice": {
        "_hex": "0xba43b7400"
      },
      "gasLimit": {
        "_hex": "0x5208"
      },
      "to": "0x7A8EdD2c042b921315AeA0Db2f3Fee621e13C0DE",
      "value": {
        "_hex": "0xf0088de8d15000"
      },
      "nonce": 1,
      "data": "0x",
      "r": "0xc570b82235aec142b6db9e560346a8b64f5635e238de841678fe268a08fbea3d",
      "s": "0x7ce8c287175494af6716c54d1508b1af3d89ede5cf21d787650ba9a807f5f26e",
      "v": 27,
      "creates": null,
      "raw": "0xf86b01850ba43b7400825208947a8edd2c042b921315aea0db2f3fee621e13c0de87f0088de8d15000801ba0c570b82235aec142b6db9e560346a8b64f5635e238de841678fe268a08fbea3da07ce8c287175494af6716c54d1508b1af3d89ede5cf21d787650ba9a807f5f26e",
      "networkId": 0,
      "chainId": 0
    },
    {
      "hash": "0xd73170761b18d1c163ab9b5e4b58d8c1b60893d61771b439328a0b2ad464d44d",
      "blockHash": "0x48d9c70b0f2561717627a8899f33fe2875109d83d88760074522883e70388c91",
      "blockNumber": 64641,
      "transactionIndex": 9,
      "confirmations": null,
      "from": "0x646d2cE09D7a666d4FF2f9BB52b6100B796588AD",
      "gasPrice": {
        "_hex": "0xba43b7400"
      },
      "gasLimit": {
        "_hex": "0x15f90"
      },
      "to": "0x793AE8C1b1a160BFc07BFB0d04F85eab1A71F4f2",
      "value": {
        "_hex": "0x0"
      },
      "nonce": 0,
      "data": "0x3ba15036",
      "r": "0x490f3e06f513cf9d777910feee86c4bd965c36cede6a884de0538fc38405f435",
      "s": "0x3d545a5e9a4127d0729dc9cbd74ed4b3d9fa4e57e0b0d52c5e1535dd69480ddd",
      "v": 28,
      "creates": null,
      "raw": "0xf86980850ba43b740083015f9094793ae8c1b1a160bfc07bfb0d04f85eab1a71f4f280843ba150361ca0490f3e06f513cf9d777910feee86c4bd965c36cede6a884de0538fc38405f435a03d545a5e9a4127d0729dc9cbd74ed4b3d9fa4e57e0b0d52c5e1535dd69480ddd",
      "networkId": 0,
      "chainId": 0
    }
  ]
}