{
  "hash": "0xaa6c03cf537cdc1635fc0751da762dbc5cb03937db0d8cc6f6407d5e33b5262a",
  "parentHash": "0x60780c3f05f7283f9265385f48e190fc7ccf1926d2bf8f300dc18917e08c1493",
  "number": 84315,
  "timestamp": 1439547920,
  "nonce": "0x67a3bf2bcc71d200",
  "difficulty": 2540294162438,
  "gasLimit": {
    "_hex": "0x2fefd8"
  },
  "gasUsed": {
    "_hex": "0x5208"
  },
  "miner": "0x5aF19bDa5B9466D3BCdce272CFdDBA5C2eE1c1D8",
  "extraData": "0x476574682f76312e302e312f77696e646f77732f676f312e342e32",
  "transactions": [
    {
      "hash": "0x01f440b4539821dda29c2ff87c08c18c85b7873b0e88389a8c72fdd98d1521a6",
      "blockHash": "0xaa6c03cf537cdc1635fc0751da762dbc5cb03937db0d8cc6f6407d5e33b5262a",
      "blockNumber": 84315,
      "transactionIndex": 0,
      "confirmations": null,
      "from": "0xa61ff394e3846F8bfbBF8801afb051730B04Ee75",
      "gasPrice": {
        "_hex": "0xccfea94f4"
      },
      "gasLimit": {
        "_hex": "0x5208"
      },
      "to": "0x32Be343B94f860124dC4fEe278FDCBD38C102D88",
      "value": {
        "_hex": "0x2308198fbb0752000"
      },
      "nonce": 2,
      "data": "0x",
      "r": "0x449b01c0231b3eb32669143c62530bff5260d3701af6f05b87d495fd3916280a",
      "s": "0x086bdcbd7208b0dbec21ff6f0370d8d7cdd2e5439b27bba85af857b5b34f86d4",
      "v": 28,
      "creates": null,
      "raw": "0xf86d02850ccfea94f48252089432be343b94f860124dc4fee278fdcbd38c102d888902308198fbb0752000801ca0449b01c0231b3eb32669143c62530bff5260d3701af6f05b87d495fd3916280aa0086bdcbd7208b0dbec21ff6f0370d8d7cdd2e5439b27bba85af857b5b34f86d4",
      "networkId": 0,
      "chainId": 0
    }
  ]
}