{
  "hash": "0xb8c0d344a6d53079b71ba8dd0dfccc0031c159b17eeb998f6c7f0b99bf3e143d",
  "parentHash": "0x1f9eaa317c8b440a6a46448ebaa1d559d84bdbb1d25bacaa11486f6483dc2d0d",
  "number": 82052,
  "timestamp": 1439512635,
  "nonce": "0xc401a7f8ba615dcb",
  "difficulty": 2397542330259,
  "gasLimit": {
    "_hex": "0x2fefd8"
  },
  "gasUsed": {
    "_hex": "0x5208"
  },
  "miner": "0x2f6BCe4fc330B69C9B4c2694d57C63Ec7B18feC7",
  "extraData": "0x476574682f76312e302e312f77696e646f77732f676f312e342e32",
  "transactions": [
    {
      "hash": "0xc248bc1acb353b8ce27680c72577cd8ef42d38b1b2d9c87312bb4698350a9d15",
      "blockHash": "0xb8c0d344a6d53079b71ba8dd0dfccc0031c159b17eeb998f6c7f0b99bf3e143d",
      "blockNumber": 82052,
      "transactionIndex": 0,
      "confirmations": null,
      "from": "0xfFcD9CAE6d9f54fd8ae05296F839892677ff6EaA",
      "gasPrice": {
        "_hex": "0xdac50275d"
      },
      "gasLimit": {
        "_hex": "0x15f90"
      },
      "to": "0xd5d9a0033e6B0A3ba7634d0e1a9055ad5f452C3D",
      "value": {
        "_hex": "0xde0b6b3a7640000"
      },
      "nonce": 3,
      "data": "0x",
      "r": "0x4f6888e279d2cfac90a12ce6362238b72ce38bd5c7c61c60e03437e233e1cb1e",
      "s": "0x3756e5c36aef8b7d9675f8ea3e252a5be39150659e7c48629fc55c0b4e91d29a",
      "v": 28,
      "creates": null,
      "raw": "0xf86d03850dac50275d83015f9094d5d9a0033e6b0a3ba7634d0e1a9055ad5f452c3d880de0b6b3a7640000801ca04f6888e279d2cfac90a12ce6362238b72ce38bd5c7c61c60e03437e233e1cb1ea03756e5c36aef8b7d9675f8ea3e252a5be39150659e7c48629fc55c0b4e91d29a",
      "networkId": 0,
      "chainId": 0
    }
  ]
}