{
  "hash": "0x2c9f5eefb07f0d3a371f8d8313be79876385e77f1539419bba5e7862d233793e",
  "parentHash": "0x09c2f8b233f196da8b2f23c69c144c73638161eab19d2837972e2ae7b4e125ab",
  "number": 119130,
  "timestamp": 1440137349,
  "nonce": "0x91186b2ea8f0babb",
  "difficulty": 4407490322539,
  "gasLimit": {
    "_hex": "0x2fefd8"
  },
  "gasUsed": {
    "_hex": "0xa410"
  },
  "miner": "0x52bc44d5378309EE2abF1539BF71dE1b7d7bE3b5",
  "extraData": "0xd783010002844765746887676f312e342e32856c696e7578",
  "transactions": [
    {
      "hash": "0xdafe407229097f742cda6a1d5be5f94d52a0c857e82ca372d4ac677fd5a7e964",
      "blockHash": "0x2c9f5eefb07f0d3a371f8d8313be79876385e77f1539419bba5e7862d233793e",
      "blockNumber": 119130,
      "transactionIndex": 0,
      "confirmations": null,
      "from": "0x9CF253B20806e369059D8D8023f376b1aE248aDD",
      "gasPrice": {
        "_hex": "0xba43b7400"
      },
      "gasLimit": {
        "_hex": "0x15f90"
      },
      "to": "0x9b4b6E7551cEc7a4C42b6Eff2BE246698938E6E4",
      "value": {
        "_hex": "0x914ce9870e570000"
      },
      "nonce": 8,
      "data": "0x",
      "r": "0xf82729502d96d93fa1df2111c42a18cf79f624d0fd8d4f0855b0cb93f11a74ea",
      "s": "0x775d16e41d96dfb9bc3dbe2056253fa776af8563e325a391d4b8160eb32282e4",
      "v": 28,
      "creates": null,
      "raw": "0xf86d08850ba43b740083015f90949b4b6e7551cec7a4c42b6eff2be246698938e6e488914ce9870e570000801ca0f82729502d96d93fa1df2111c42a18cf79f624d0fd8d4f0855b0cb93f11a74eaa0775d16e41d96dfb9bc3dbe2056253fa776af8563e325a391d4b8160eb32282e4",
      "networkId": 0,
      "chainId": 0
    },
    {
      "hash": "0x6e80269eb587aff580846ae46fcd7e38fb3496837927041c7650d6d95f578907",
      "blockHash": "0x2c9f5eefb07f0d3a371f8d8313be79876385e77f1539419bba5e7862d233793e",
      "blockNumber": 119130,
      "transactionIndex": 1,
      "confirmations": null,
      "from": "0x608f4b86321a68453f9adf6F06F7Fc3E621739ad",
      "gasPrice": {
        "_hex": "0xba43b7400"
      },
      "gasLimit": {
        "_hex": "0x5208"
      },
      "to": "0x32Be343B94f860124dC4fEe278FDCBD38C102D88",
      "value": {
        "_hex": "0x4563918244f40000"
      },
      "nonce": 21,
      "data": "0x",
      "r": "0x12bfa673546ab4ab4fef6758e467eefc588d1c920f3746b38859d352f061f808",
      "s": "0x057aaf3e7a910a0a23db6d07ad36703c7ecbdc400f61fa5d8282e203191b463a",
      "v": 28,
      "creates": null,
      "raw": "0xf86c15850ba43b74008252089432be343b94f860124dc4fee278fdcbd38c102d88884563918244f40000801ca012bfa673546ab4ab4fef6758e467eefc588d1c920f3746b38859d352f061f808a0057aaf3e7a910a0a23db6d07ad36703c7ecbdc400f61fa5d8282e203191b463a",
      "networkId": 0,
      "chainId": 0
    }
  ]
}