{
  "hash": "0x8fd9698f4e37c97a7de80897f005cf7cd76848333fe843b47dc24906ab138d20",
  "parentHash": "0x1eef99cbf56915eb60a0d0be42a7bd47264d99e64d54736c598533de9abc2185",
  "number": 79110,
  "timestamp": 1439464593,
  "nonce": "0xbeba66d98365c856",
  "difficulty": 2315530096325,
  "gasLimit": {
    "_hex": "0x2fefd8"
  },
  "gasUsed": {
    "_hex": "0x1ec30"
  },
  "miner": "0xa50ec0D39fa913E62f1Bae7074E6F36caA71855b",
  "extraData": "0xd783010001844765746887676f312e342e32856c696e7578",
  "transactions": [
    {
      "hash": "0x4a8a5f9face75e2e36f35362f865b1258a11e0edc1f3b81922a4137c6e7ef355",
      "blockHash": "0x8fd9698f4e37c97a7de80897f005cf7cd76848333fe843b47dc24906ab138d20",
      "blockNumber": 79110,
      "transactionIndex": 0,
      "confirmations": null,
      "from": "0xaa71fa80d26F718E6A3c87e41D817b8D10944a63",
      "gasPrice": {
        "_hex": "0xdfca6a830"
      },
      "gasLimit": {
        "_hex": "0x5208"
      },
      "to": "0x32Be343B94f860124dC4fEe278FDCBD38C102D88",
      "value": {
        "_hex": "0xa14ac4d7e9a67800"
      },
      "nonce": 1,
      "data": "0x",
      "r": "0x54b7d7bac5edee4dda6dffd7ded4ed243acf424e4f546655f04bdff6840d8968",
      "s": "0x276841430449ccb2e7ff4c733b88cfb1b20185f0d75d9be57c68c1ce5b1bf5ff",
      "v": 28,
      "creates": null,
      "raw": "0xf86c01850dfca6a8308252089432be343b94f860124dc4fee278fdcbd38c102d8888a14ac4d7e9a67800801ca054b7d7bac5edee4dda6dffd7ded4ed243acf424e4f546655f04bdff6840d8968a0276841430449ccb2e7ff4c733b88cfb1b20185f0d75d9be57c68c1ce5b1bf5ff",
      "networkId": 0,
      "chainId": 0
    },
    {
      "hash": "0xc84dce65359e846f5b4c2e4a22ca7f438b2ec95191e07be460905fd40b417320",
      "blockHash": "0x8fd9698f4e37c97a7de80897f005cf7cd76848333fe843b47dc24906ab138d20",
      "blockNumber": 79110,
      "transactionIndex": 1,
      "confirmations": null,
      "from": "0x60781265e9850f54AE0Bc9545948d05DeE6FC3e3",
      "gasPrice": {
        "_hex": "0xdfca6a830"
      },
      "gasLimit": {
        "_hex": "0x5208"
      },
      "to": "0x32Be343B94f860124dC4fEe278FDCBD38C102D88",
      "value": {
        "_hex": "0x4cbfc540e849fc00"
      },
      "nonce": 3,
      "data": "0x",
      "r": "0xc7f79cfe0581fd74de8992321f58f1037b232c5c5d71e41946619bce6f941b75",
      "s": "0x54a3250120c71eb061f41244f4024c2d936149c16b717590b079cf5577277776",
      "v": 27,
      "creates": null,
      "raw": "0xf86c03850dfca6a8308252089432be343b94f860124dc4fee278fdcbd38c102d88884cbfc540e849fc00801ba0c7f79cfe0581fd74de8992321f58f1037b232c5c5d71e41946619bce6f941b75a054a3250120c71eb061f41244f4024c2d936149c16b717590b079cf5577277776",
      "networkId": 0,
      "chainId": 0
    },
    {
      "hash": "0x214bbefd4dbaa9ee38fce797f7686d700f332febff4c5e85fff63dd6ef6a2003",
      "blockHash": "0x8fd9698f4e37c97a7de80897f005cf7cd76848333fe843b47dc24906ab138d20",
      "blockNumber": 79110,
      "transactionIndex": 2,
      "confirmations": null,
      "from": "0x6599C9c86f1635FAAEFE7A5540914811DAD8d167",
      "gasPrice": {
        "_hex": "0xdfca6a830"
      },
      "gasLimit": {
        "_hex": "0x5208"
      },
      "to": "0x32Be343B94f860124dC4fEe278FDCBD38C102D88",
      "value": {
        "_hex": "0x989bd9b5cc97b000"
      },
      "nonce": 1,
      "data": "0x",
      "r": "0x50cb396c837f308aa3f0a00ce4053806e208d1e4323b847599b1ff348b337a54",
      "s": "0x33674caac367a72a86175826e9ca24e32f8cbcab3a8a5b5e3c8335ecf79514c2",
      "v": 28,
      "creates": null,
      "raw": "0xf86c01850dfca6a8308252089432be343b94f860124dc4fee278fdcbd38c102d8888989bd9b5cc97b000801ca050cb396c837f308aa3f0a00ce4053806e208d1e4323b847599b1ff348b337a54a033674caac367a72a86175826e9ca24e32f8cbcab3a8a5b5e3c8335ecf79514c2",
      "networkId": 0,
      "chainId": 0
    },
    {
      "hash": "0xc2f4adc7792ba5f5292b94ee85cda5da5c8d194f5b3cd831fa5ffe2b05dfc7bb",
      "blockHash": "0x8fd9698f4e37c97a7de80897f005cf7cd76848333fe843b47dc24906ab138d20",
      "blockNumber": 79110,
      "transactionIndex": 3,
      "confirmations": null,
      "from": "0xF18446BCC37B179f7ccc3De19387269cE04023F1",
      "gasPrice": {
        "_hex": "0xdfca6a830"
      },
      "gasLimit": {
        "_hex": "0x5208"
      },
      "to": "0x32Be343B94f860124dC4fEe278FDCBD38C102D88",
      "value": {
        "_hex": "0x45a0c5233b4a8800"
      },
      "nonce": 1,
      "data": "0x",
      "r": "0xddb552c872e668bae14f04ae8212b620c347adf9de79c666b5869a81ada3529b",
      "s": "0x62de26d85c648cc19cc124bf28ae1028e9ff0002a9131de56c5cabd804b64c80",
      "v": 27,
      "creates": null,
      "raw": "0xf86c01850dfca6a8308252089432be343b94f860124dc4fee278fdcbd38c102d888845a0c5233b4a8800801ba0ddb552c872e668bae14f04ae8212b620c347adf9de79c666b5869a81ada3529ba062de26d85c648cc19cc124bf28ae1028e9ff0002a9131de56c5cabd804b64c80",
      "networkId": 0,
      "chainId": 0
    },
    {
      "hash": "0x32d613e93e015a1e195d5548de6ce83ce5e90366d31382c77f5c55966353e0f1",
      "blockHash": "0x8fd9698f4e37c97a7de80897f005cf7cd76848333fe843b47dc24906ab138d20",
      "blockNumber": 79110,
      "transactionIndex": 4,
      "confirmations": null,
      "from": "0xAd941B747c499E3ad5728C285446813783A33564",
      "gasPrice": {
        "_hex": "0xcc13ad47b"
      },
      "gasLimit": {
        "_hex": "0x5208"
      },
      "to": "0x32Be343B94f860124dC4fEe278FDCBD38C102D88",
      "value": {
        "_hex": "0x655bb978fcce8c00"
      },
      "nonce": 3,
      "data": "0x",
      "r": "0xbe628d60e35d47f2aa574e03be6c7cd22b319d6b16bfd4da610ec29548f12c41",
      "s": "0x27df862b57ac1b2cbbb7359ae796e9ea28874d74d2a9209be30c26a16e51e75f",
      "v": 28,
      "creates": null,
      "raw": "0xf86c03850cc13ad47b8252089432be343b94f860124dc4fee278fdcbd38c102d8888655bb978fcce8c00801ca0be628d60e35d47f2aa574e03be6c7cd22b319d6b16bfd4da610ec29548f12c41a027df862b57ac1b2cbbb7359ae796e9ea28874d74d2a9209be30c26a16e51e75f",
      "networkId": 0,
      "chainId": 0
    },
    {
      "hash": "0xa2f7ce47f2ecfb279862b80f07586e509fca8ed08aab4651c2983f93d6cc9bd6",
      "blockHash": "0x8fd9698f4e37c97a7de80897f005cf7cd76848333fe843b47dc24906ab138d20",
      "blockNumber": 79110,
      "transactionIndex": 5,
      "confirmations": null,
      "from": "0xeCdf9d571849dE520c84eBEd7Ac4551e483eA5b3",
      "gasPrice": {
        "_hex": "0xcc13ad47b"
      },
      "gasLimit": {
        "_hex": "0x5208"
      },
      "to": "0x32Be343B94f860124dC4fEe278FDCBD38C102D88",
      "value": {
        "_hex": "0x8198a3e00aaf8000"
      },
      "nonce": 2,
      "data": "0x",
      "r": "0xf2fa5f3519f436830614ff342365a523e04bce00df27a1c47011427ca1d3b2eb",
      "s": "0x176af1db791a710d953f8fe42d6c25dd1aa6e021ffb18b9bc0af7bb93269bffd",
      "v": 27,
      "creates": null,
      "raw": "0xf86c02850cc13ad47b8252089432be343b94f860124dc4fee278fdcbd38c102d88888198a3e00aaf8000801ba0f2fa5f3519f436830614ff342365a523e04bce00df27a1c47011427ca1d3b2eba0176af1db791a710d953f8fe42d6c25dd1aa6e021ffb18b9bc0af7bb93269bffd",
      "networkId": 0,
      "chainId": 0
    }
  ]
}