{
  "hash": "0x7b58a2aa56038bcc4536e358e580051562c2c91205e788a85d7ec2da818dce9c",
  "parentHash": "0xe8ef25f6a4cddc0d82ba8eaeda20252c458c277527ba9c361f1c59fcd3eaa46f",
  "number": 102170,
  "timestamp": 1439833920,
  "nonce": "0x6b69be0fed259483",
  "difficulty": 3908903528669,
  "gasLimit": {
    "_hex": "0x2fefd8"
  },
  "gasUsed": {
    "_hex": "0xa410"
  },
  "miner": "0x790b8a3cE86E707ED0eD32bF89B3269692a23CC1",
  "extraData": "0xd783010001844765746887676f312e342e32856c696e7578",
  "transactions": [
    {
      "hash": "0xea818c3f671dac2344453dd2223d8213f2a752d7dabc4da2bb896b6f97b9f50a",
      "blockHash": "0x7b58a2aa56038bcc4536e358e580051562c2c91205e788a85d7ec2da818dce9c",
      "blockNumber": 102170,
      "transactionIndex": 0,
      "confirmations": null,
      "from": "0xC47Aaa860008be6f65B58c6C6E02a84e666EfE31",
      "gasPrice": {
        "_hex": "0xd076f8cab"
      },
      "gasLimit": {
        "_hex": "0x15f90"
      },
      "to": "0x63e2599604Db7711Eed64E12B8Ad553b5F5D0eF0",
      "value": {
        "_hex": "0x457ab74c121cc2d53"
      },
      "nonce": 71,
      "data": "0x",
      "r": "0x346f008e992772703eee3971a6ec8b3dc8ee95697b522e8e3956df143a9eb18c",
      "s": "0x106af1617201493f66b3758c501199652c21d4de90a2241afd654467c5efb26e",
      "v": 28,
      "creates": null,
      "raw": "0xf86e47850d076f8cab83015f909463e2599604db7711eed64e12b8ad553b5f5d0ef0890457ab74c121cc2d53801ca0346f008e992772703eee3971a6ec8b3dc8ee95697b522e8e3956df143a9eb18ca0106af1617201493f66b3758c501199652c21d4de90a2241afd654467c5efb26e",
      "networkId": 0,
      "chainId": 0
    },
    {
      "hash": "0xa5ae56cef9bb4a420d37f3a38d48c3115e37b73270b1ed6b40103b11f82783db",
      "blockHash": "0x7b58a2aa56038bcc4536e358e580051562c2c91205e788a85d7ec2da818dce9c",
      "blockNumber": 102170,
      "transactionIndex": 1,
      "confirmations": null,
      "from": "0x5F03b61cc63cA0b9E5D70A11E7CcA53447c38aE7",
      "gasPrice": {
        "_hex": "0xcdd447114"
      },
      "gasLimit": {
        "_hex": "0x5208"
      },
      "to": "0x32Be343B94f860124dC4fEe278FDCBD38C102D88",
      "value": {
        "_hex": "0x8675a14017659000"
      },
      "nonce": 0,
      "data": "0x",
      "r": "0xcbaa640979a2291e4ed04fd234ee6cdfea77c245a7ecd6d5ada0a9ac9f0f3a50",
      "s": "0x0b44b3409798dd86b350423f72b3a2071aa75f87e2ec9cab24d4e3eeb76a9713",
      "v": 28,
      "creates": null,
      "raw": "0xf86c80850cdd4471148252089432be343b94f860124dc4fee278fdcbd38c102d88888675a14017659000801ca0cbaa640979a2291e4ed04fd234ee6cdfea77c245a7ecd6d5ada0a9ac9f0f3a50a00b44b3409798dd86b350423f72b3a2071aa75f87e2ec9cab24d4e3eeb76a9713",
      "networkId": 0,
      "chainId": 0
    }
  ]
}