{
  "hash": "0x0cd6a811730968cea51c47f472db3d428f56e7fe121c8bb759d7faaae169368e",
  "parentHash": "0xa8688bbb89f3d34c90044c5fc8a67c488f04d2dd8b4dbc10aa3e8ed9ef75d48c",
  "number": 75020,
  "timestamp": 1439396311,
  "nonce": "0xe624d1a06acea721",
  "difficulty": 2186952492194,
  "gasLimit": {
    "_hex": "0x2fefd8"
  },
  "gasUsed": {
    "_hex": "0xa410"
  },
  "miner": "0x858079E02403b10748B71A02195b6608Abaf6b8f",
  "extraData": "0x476574682f76312e302e312f77696e646f77732f676f312e342e32",
  "transactions": [
    {
      "hash": "0x945cae6bd936e63a872574c2c68ce68b75b09ac36594f1c30352d6d6bdca4b77",
      "blockHash": "0x0cd6a811730968cea51c47f472db3d428f56e7fe121c8bb759d7faaae169368e",
      "blockNumber": 75020,
      "transactionIndex": 0,
      "confirmations": null,
      "from": "0x6866e5e1FaBB4AbceF3EEb9Ea0d8CD6b52dfC9FF",
      "gasPrice": {
        "_hex": "0xd9073d3ef"
      },
      "gasLimit": {
        "_hex": "0x15f90"
      },
      "to": "0x01Ad0ACFf478127D9d702B1A13599D706cB759b1",
      "value": {
        "_hex": "0x4563918244f40000"
      },
      "nonce": 10,
      "data": "0x",
      "r": "0xf62c9c4385c7c9c4f7b0cbbe46044cd9ec4c2e5800cd33f10c8afbf4a07a8f84",
      "s": "0x40ca7e15a398474f1d7d530c99d0b620893ef1a1d5032660e2acc976060962fc",
      "v": 27,
      "creates": null,
      "raw": "0xf86d0a850d9073d3ef83015f909401ad0acff478127d9d702b1a13599d706cb759b1884563918244f40000801ba0f62c9c4385c7c9c4f7b0cbbe46044cd9ec4c2e5800cd33f10c8afbf4a07a8f84a040ca7e15a398474f1d7d530c99d0b620893ef1a1d5032660e2acc976060962fc",
      "networkId": 0,
      "chainId": 0
    },
    {
      "hash": "0x9b685b64183c2f6efeec229a01c4faf1d90cba8d4334c54c6da3a8f63391b8a5",
      "blockHash": "0x0cd6a811730968cea51c47f472db3d428f56e7fe121c8bb759d7faaae169368e",
      "blockNumber": 75020,
      "transactionIndex": 1,
      "confirmations": null,
      "from": "0x120A270bbC009644e35F0bB6ab13f95b8199c4ad",
      "gasPrice": {
        "_hex": "0xd7116f7fe"
      },
      "gasLimit": {
        "_hex": "0x222e0"
      },
      "to": "0xCA092A957744f6385B1aee5dC694143E8A06F805",
      "value": {
        "_hex": "0x16345785d8a0000"
      },
      "nonce": 288,
      "data": "0x",
      "r": "0x9ece3a8670299ab985b2c8b9e09a96c744766fc1e529c0f27c9c83927334ff69",
      "s": "0x114bd764ea53507038639c66f0d8370609fe71cae49cbc87673d414b6a9f98c5",
      "v": 28,
      "creates": null,
      "raw": "0xf86f820120850d7116f7fe830222e094ca092a957744f6385b1aee5dc694143e8a06f80588016345785d8a0000801ca09ece3a8670299ab985b2c8b9e09a96c744766fc1e529c0f27c9c83927334ff69a0114bd764ea53507038639c66f0d8370609fe71cae49cbc87673d414b6a9f98c5",
      "networkId": 0,
      "chainId": 0
    }
  ]
}