{
  "hash": "0xb507afcde09bc4ce06076050a12b4846a76755eb7ff1b7b9684cf110a31fdd5a",
  "parentHash": "0x86a52e582d312f60a5f6f0bf43de026fb2442fa145ccd393ce8dd9322f3ef155",
  "number": 117872,
  "timestamp": 1440116758,
  "nonce": "0x6b5021bd902f3bdd",
  "difficulty": 4331341366772,
  "gasLimit": {
    "_hex": "0x2fefd8"
  },
  "gasUsed": {
    "_hex": "0x5208"
  },
  "miner": "0xe6A7a1d47ff21B6321162AEA7C6CB457D5476Bca",
  "extraData": "0xd783010002844765746887676f312e342e32856c696e7578",
  "transactions": [
    {
      "hash": "0x556e776b91a4f4449b79113f878f9e7a6df33db7f8d5b6f686b1f5231855af62",
      "blockHash": "0xb507afcde09bc4ce06076050a12b4846a76755eb7ff1b7b9684cf110a31fdd5a",
      "blockNumber": 117872,
      "transactionIndex": 0,
      "confirmations": null,
      "from": "0x6CB5e8313a5B29aDb14AE1884D3EcE4489d02D77",
      "gasPrice": {
        "_hex": "0xba43b7400"
      },
      "gasLimit": {
        "_hex": "0x5208"
      },
      "to": "0x32Be343B94f860124dC4fEe278FDCBD38C102D88",
      "value": {
        "_hex": "0x9f297c5288cd5800"
      },
      "nonce": 11,
      "data": "0x",
      "r": "0xa3402f5b98de96b37f1df29f6abdae7e45b8fd67d2660030d0ad64b701e5cb44",
      "s": "0x5828336e03ef41bb5b0ee2ed13d72cb1dfc1ac7ba9997d8aa5e70b755e0b63d7",
      "v": 28,
      "creates": null,
      "raw": "0xf86c0b850ba43b74008252089432be343b94f860124dc4fee278fdcbd38c102d88889f297c5288cd5800801ca0a3402f5b98de96b37f1df29f6abdae7e45b8fd67d2660030d0ad64b701e5cb44a05828336e03ef41bb5b0ee2ed13d72cb1dfc1ac7ba9997d8aa5e70b755e0b63d7",
      "networkId": 0,
      "chainId": 0
    }
  ]
}