{
  "hash": "0x8097e24f4c2132b02bbd5ca1f931d8e13001c709a761ec9d3d747b8cff4f4a3e",
  "parentHash": "0x7556afa28dbd92f9d3052a6fa0073f5f4fa7b629972183ab434578a4cbf44daf",
  "number": 65023,
  "timestamp": 1439230097,
  "nonce": "0x0902c85ee0336445",
  "difficulty": 1916307126281,
  "gasLimit": {
    "_hex": "0x2fefd8"
  },
  "gasUsed": {
    "_hex": "0x17cd8"
  },
  "miner": "0x88D74a59454F6cF3B51ef6b9136AFb6b9D405A88",
  "extraData": "0x476574682f76312e302e312d37666266393930632f6c696e75782f676f312e34",
  "transactions": [
    {
      "hash": "0xf235b654107b599c103840de202eefc222f455cb992677ceb2dc3b9ff8f427f4",
      "blockHash": "0x8097e24f4c2132b02bbd5ca1f931d8e13001c709a761ec9d3d747b8cff4f4a3e",
      "blockNumber": 65023,
      "transactionIndex": 0,
      "confirmations": null,
      "from": "0x7C3167f6775133a8974439b34aF759AdfFAeE9cC",
      "gasPrice": {
        "_hex": "0xba43b7400"
      },
      "gasLimit": {
        "_hex": "0x15f90"
      },
      "to": "0x793AE8C1b1a160BFc07BFB0d04F85eab1A71F4f2",
      "value": {
        "_hex": "0x0"
      },
      "nonce": 0,
      "data": "0x3ba15036",
      "r": "0x6a1e0485e6ffc0fd629f3931b6215190a1bd2340589e02578a1242c5536374ac",
      "s": "0x662002ec1609551f223b2b7a103af2171de8c9e4acc269607734ef3a58a2b763",
      "v": 27,
      "creates": null,
      "raw": "0xf86980850ba43b740083015f9094793ae8c1b1a160bfc07bfb0d04f85eab1a71f4f280843ba150361ba06a1e0485e6ffc0fd629f3931b6215190a1bd2340589e02578a1242c5536374aca0662002ec1609551f223b2b7a103af2171de8c9e4acc269607734ef3a58a2b763",
      "networkId": 0,
      "chainId": 0
    },
    {
      "hash": "0x335ff02a6fe15db657198a9e8602d2faedbec753b3c59dee4bd2cdc5a8773ced",
      "blockHash": "0x8097e24f4c2132b02bbd5ca1f931d8e13001c709a761ec9d3d747b8cff4f4a3e",
      "blockNumber": 65023,
      "transactionIndex": 1,
      "confirmations": null,
      "from": "0x38Dfa501D885fbbd00AF63C5E022D549c0AB95A7",
      "gasPrice": {
        "_hex": "0xba43b7400"
      },
      "gasLimit": {
        "_hex": "0x15f90"
      },
      "to": "0x793AE8C1b1a160BFc07BFB0d04F85eab1A71F4f2",
      "value": {
        "_hex": "0x0"
      },
      "nonce": 0,
      "data": "0x3ba15036",
      "r": "0x6cc55daf2b942ea995b785a0c8093bd3194a18c24343d7d4c3be805dcd2a28c7",
      "s": "0x1f7e68449f77b2922b4f207d453e000ed5586af847309f216b01e7bbb00484e0",
      "v": 27,
      "creates": null,
      "raw": "0xf86980850ba43b740083015f9094793ae8c1b1a160bfc07bfb0d04f85eab1a71f4f280843ba150361ba06cc55daf2b942ea995b785a0c8093bd3194a18c24343d7d4c3be805dcd2a28c7a01f7e68449f77b2922b4f207d453e000ed5586af847309f216b01e7bbb00484e0",
      "networkId": 0,
      "chainId": 0
    }
  ]
}