{
  "hash": "0x84379b55bd18ca3856941a1e49d6333678646834e8eea40a5b8c7f2a8a14b073",
  "parentHash": "0xe726ddde85b1b05799a1192f9fba7acf56a8121325f82578631ec2b90c298eec",
  "number": 82312,
  "timestamp": 1439517254,
  "nonce": "0xe97bf5daee034359",
  "difficulty": 2374169194455,
  "gasLimit": {
    "_hex": "0x2fefd8"
  },
  "gasUsed": {
    "_hex": "0x5208"
  },
  "miner": "0xe6A7a1d47ff21B6321162AEA7C6CB457D5476Bca",
  "extraData": "0x476574682f76312e302e312d38326566323666362f6c696e75782f676f312e34",
  "transactions": [
    {
      "hash": "0xa70d2757ef6f7560d2da6597f131688862b85d5ddad1ffd59c202d023aa62093",
      "blockHash": "0x84379b55bd18ca3856941a1e49d6333678646834e8eea40a5b8c7f2a8a14b073",
      "blockNumber": 82312,
      "transactionIndex": 0,
      "confirmations": null,
      "from": "0x32Be343B94f860124dC4fEe278FDCBD38C102D88",
      "gasPrice": {
        "_hex": "0xcd0d38fb8"
      },
      "gasLimit": {
        "_hex": "0x5208"
      },
      "to": "0x8259E039E6a80780C3E455e00EA04DF29f9b6e5C",
      "value": {
        "_hex": "0xde0b6b3a7640000"
      },
      "nonce": 624,
      "data": "0x",
      "r": "0xcbdc540bbeb890cae6b8da0c2943cd49decb254e39b956532c68d86482b679e6",
      "s": "0x372b6157347d88355cfaa2dffe22e250c951c9b0e59b882f05be9706206416ad",
      "v": 27,
      "creates": null,
      "raw": "0xf86e820270850cd0d38fb8825208948259e039e6a80780c3e455e00ea04df29f9b6e5c880de0b6b3a7640000801ba0cbdc540bbeb890cae6b8da0c2943cd49decb254e39b956532c68d86482b679e6a0372b6157347d88355cfaa2dffe22e250c951c9b0e59b882f05be9706206416ad",
      "networkId": 0,
      "chainId": 0
    }
  ]
}