{
  "hash": "0xaa0bac1af1eae1284f6d577552bdd1f8dfd782b91168c1c701d6f3c2154f15e0",
  "parentHash": "0x9c068a2e75023fa1d9a078235c1aa8fd88089245b03ee7ae69ae7e58c426146d",
  "number": 70033,
  "timestamp": 1439313662,
  "nonce": "0x1062cc773f6a10c7",
  "difficulty": 2111627508842,
  "gasLimit": {
    "_hex": "0x2fefd8"
  },
  "gasUsed": {
    "_hex": "0x5208"
  },
  "miner": "0xe6A7a1d47ff21B6321162AEA7C6CB457D5476Bca",
  "extraData": "0x476574682f76312e302e312d38326566323666362f6c696e75782f676f312e34",
  "transactions": [
    {
      "hash": "0x30b8837fb180f404704d60752934a5f0bc2f6b04c2283bee05b7eb34c5bff85f",
      "blockHash": "0xaa0bac1af1eae1284f6d577552bdd1f8dfd782b91168c1c701d6f3c2154f15e0",
      "blockNumber": 70033,
      "transactionIndex": 0,
      "confirmations": null,
      "from": "0xa9f5E7bf6Cbf6fEc55B30850Eb492b47A376d050",
      "gasPrice": {
        "_hex": "0xdc20482ca"
      },
      "gasLimit": {
        "_hex": "0x5208"
      },
      "to": "0x32Be343B94f860124dC4fEe278FDCBD38C102D88",
      "value": {
        "_hex": "0xddc4e20c3c82000"
      },
      "nonce": 7,
      "data": "0x",
      "r": "0x07bf59324d1951bdf0edc4600375b3243a3e434296eb6f199ba14442126336da",
      "s": "0x7b6566a4a24dc24b283c9bf9aecc63ae3036bf1d93a8f356f7b8c3025847335d",
      "v": 27,
      "creates": null,
      "raw": "0xf86c07850dc20482ca8252089432be343b94f860124dc4fee278fdcbd38c102d88880ddc4e20c3c82000801ba007bf59324d1951bdf0edc4600375b3243a3e434296eb6f199ba14442126336daa07b6566a4a24dc24b283c9bf9aecc63ae3036bf1d93a8f356f7b8c3025847335d",
      "networkId": 0,
      "chainId": 0
    }
  ]
}