{
  "hash": "0x3adb7844326c42fa96dfecafc6232b63c5b583cbfe7e6825cd031265dfd8f354",
  "parentHash": "0x25dbdd2f3bd325064228c0354615500be5b6d1b7b7651bec2731daa8fff22ba7",
  "number": 90403,
  "timestamp": 1439639444,
  "nonce": "0xbbf5eb47613becf3",
  "difficulty": 3336731255318,
  "gasLimit": {
    "_hex": "0x2fefd8"
  },
  "gasUsed": {
    "_hex": "0xa410"
  },
  "miner": "0x007f7f58D3eb5b7510A301eCC749FC1fCDDBE14D",
  "extraData": "0x476574682f76312e302e312f77696e646f77732f676f312e342e32",
  "transactions": [
    {
      "hash": "0x41bf73f269a8c663ed30c2d5879a9d53af40bdbed84d1320b28ae5d930e99f0f",
      "blockHash": "0x3adb7844326c42fa96dfecafc6232b63c5b583cbfe7e6825cd031265dfd8f354",
      "blockNumber": 90403,
      "transactionIndex": 0,
      "confirmations": null,
      "from": "0xA7e983CBCf86d16420529CF812f74cd86d397516",
      "gasPrice": {
        "_hex": "0xd6b187d36"
      },
      "gasLimit": {
        "_hex": "0x15f90"
      },
      "to": "0x9c4dB3C798408A4e36e443c1141E182809BD5e50",
      "value": {
        "_hex": "0x29a2241af62c0000"
      },
      "nonce": 1,
      "data": "0x",
      "r": "0x8cc6d86fb245d11f8516b1fc33726047c99594c0391a13f1c5f43a0724136167",
      "s": "0x2c80ca6115f923cb6d2f1b58f7f785493249726331f298828991335ecdd8e1eb",
      "v": 28,
      "creates": null,
      "raw": "0xf86d01850d6b187d3683015f90949c4db3c798408a4e36e443c1141e182809bd5e508829a2241af62c0000801ca08cc6d86fb245d11f8516b1fc33726047c99594c0391a13f1c5f43a0724136167a02c80ca6115f923cb6d2f1b58f7f785493249726331f298828991335ecdd8e1eb",
      "networkId": 0,
      "chainId": 0
    },
    {
      "hash": "0x91dfeb3fe8c28204049ef379b13012aded4db78f799d99cca303c5a66640007f",
      "blockHash": "0x3adb7844326c42fa96dfecafc6232b63c5b583cbfe7e6825cd031265dfd8f354",
      "blockNumber": 90403,
      "transactionIndex": 1,
      "confirmations": null,
      "from": "0xA7e983CBCf86d16420529CF812f74cd86d397516",
      "gasPrice": {
        "_hex": "0xd6b187d36"
      },
      "gasLimit": {
        "_hex": "0x15f90"
      },
      "to": "0x9c4dB3C798408A4e36e443c1141E182809BD5e50",
      "value": {
        "_hex": "0x29a2241af62c0000"
      },
      "nonce": 2,
      "data": "0x",
      "r": "0xa0628ad4d28f9cd2ef8c54017a67f146f1cdded986ea903e455f58e0fa10c62f",
      "s": "0x22e34730063e61b841c4f9e04e130f82600c9b988725ad453b6df0c15afa305e",
      "v": 27,
      "creates": null,
      "raw": "0xf86d02850d6b187d3683015f90949c4db3c798408a4e36e443c1141e182809bd5e508829a2241af62c0000801ba0a0628ad4d28f9cd2ef8c54017a67f146f1cdded986ea903e455f58e0fa10c62fa022e34730063e61b841c4f9e04e130f82600c9b988725ad453b6df0c15afa305e",
      "networkId": 0,
      "chainId": 0
    }
  ]
}