{
  "hash": "0xb843fc74c7fbe845cb5f6340bb5b54b9d5d945feba65265ea150648ded326841",
  "parentHash": "0x79fde5826e85c731dcc3d19b9d140e8460a4d87ad573ddd51434afd80d02c4cc",
  "number": 65083,
  "timestamp": 1439230928,
  "nonce": "0xfa59fe70747efe99",
  "difficulty": 1931323096589,
  "gasLimit": {
    "_hex": "0x2fefd8"
  },
  "gasUsed": {
    "_hex": "0x17cd8"
  },
  "miner": "0x6Cf387a1C50cF6b09634E0d24fDAa2c06Be0ea95",
  "extraData": "0x476574682f76312e302e312d38326566323666362f6c696e75782f676f312e34",
  "transactions": [
    {
      "hash": "0x4724209f669e7215eb1749dc91658a0dbf9ccb7fc6b95c135b057be58b4953f9",
      "blockHash": "0xb843fc74c7fbe845cb5f6340bb5b54b9d5d945feba65265ea150648ded326841",
      "blockNumber": 65083,
      "transactionIndex": 0,
      "confirmations": null,
      "from": "0xf9346262794975b0C5DCD352238025dDBFEecf46",
      "gasPrice": {
        "_hex": "0xba43b7400"
      },
      "gasLimit": {
        "_hex": "0x15f90"
      },
      "to": "0x793AE8C1b1a160BFc07BFB0d04F85eab1A71F4f2",
      "value": {
        "_hex": "0x0"
      },
      "nonce": 0,
      "data": "0x3ba15036",
      "r": "0x356ace5a1eb81726807c08b201b6bfc2af9a5726ca1efebe52943f70e63e9a99",
      "s": "0x24efdd113ba83d18930453d4e29d4a73f5e0e5d623f8bb2e06a5d2bec8d47f8a",
      "v": 27,
      "creates": null,
      "raw": "0xf86980850ba43b740083015f9094793ae8c1b1a160bfc07bfb0d04f85eab1a71f4f280843ba150361ba0356ace5a1eb81726807c08b201b6bfc2af9a5726ca1efebe52943f70e63e9a99a024efdd113ba83d18930453d4e29d4a73f5e0e5d623f8bb2e06a5d2bec8d47f8a",
      "networkId": 0,
      "chainId": 0
    },
    {
      "hash": "0x31b19146ae757a985a5cfe517eba0be3e7a20ed86d92a0088565e6f540faa7b5",
      "blockHash": "0xb843fc74c7fbe845cb5f6340bb5b54b9d5d945feba65265ea150648ded326841",
      "blockNumber": 65083,
      "transactionIndex": 1,
      "confirmations": null,
      "from": "0xeB9f4F7AE4c9403E7Eefd2E4643744294477B10d",
      "gasPrice": {
        "_hex": "0xba43b7400"
      },
      "gasLimit": {
        "_hex": "0x15f90"
      },
      "to": "0x793AE8C1b1a160BFc07BFB0d04F85eab1A71F4f2",
      "value": {
        "_hex": "0x0"
      },
      "nonce": 0,
      "data": "0x3ba15036",
      "r": "0xf141b5b909013a8c9aa244209d6308f6ee61ab1d2c844b29e7fe44ee19b0ccd1",
      "s": "0x2e6cf999a1b1436d3feea9cea02eefba03cf5e47e5a2796660a77c62e8005cbf",
      "v": 28,
      "creates": null,
      "raw": "0xf86980850ba43b740083015f9094793ae8c1b1a160bfc07bfb0d04f85eab1a71f4f280843ba150361ca0f141b5b909013a8c9aa244209d6308f6ee61ab1d2c844b29e7fe44ee19b0ccd1a02e6cf999a1b1436d3feea9cea02eefba03cf5e47e5a2796660a77c62e8005cbf",
      "networkId": 0,
      "chainId": 0
    }
  ]
}