{
  "hash": "0x13688c0751a399528e99d197cb2e4f9ac70e63a3316b3f6a4c9031ba3bb0f5a5",
  "parentHash": "0x4fceb782c490e71442106b6bfa3e2211a31a89a8d3877704dc68a10f273dd969",
  "number": 121656,
  "timestamp": 1440180496,
  "nonce": "0x0c2db5d90c4b8aa5",
  "difficulty": 4471181787021,
  "gasLimit": {
    "_hex": "0x2fefd8"
  },
  "gasUsed": {
    "_hex": "0xf618"
  },
  "miner": "0xe6A7a1d47ff21B6321162AEA7C6CB457D5476Bca",
  "extraData": "0xd783010002844765746887676f312e342e32856c696e7578",
  "transactions": [
    {
      "hash": "0xa044d99453cce7f72c7b5f12686568de7729c8a1d6d8afd62bfe10a2c4a3d248",
      "blockHash": "0x13688c0751a399528e99d197cb2e4f9ac70e63a3316b3f6a4c9031ba3bb0f5a5",
      "blockNumber": 121656,
      "transactionIndex": 0,
      "confirmations": null,
      "from": "0xb406315733467Ea62738DdAAF37E2D35fF76CF89",
      "gasPrice": {
        "_hex": "0xdf0a8f08b"
      },
      "gasLimit": {
        "_hex": "0x5208"
      },
      "to": "0x32Be343B94f860124dC4fEe278FDCBD38C102D88",
      "value": {
        "_hex": "0x882a80db4989b0000"
      },
      "nonce": 1,
      "data": "0x",
      "r": "0x6d0947975c5a9ec9ebb945cbda9e6f8bf590dbae736b61089ec724c0fa1d0244",
      "s": "0x3fe0f580dbd46495207d35ca24839fac420962f52344497e3731fb3b27b2ded3",
      "v": 27,
      "creates": null,
      "raw": "0xf86d01850df0a8f08b8252089432be343b94f860124dc4fee278fdcbd38c102d88890882a80db4989b0000801ba06d0947975c5a9ec9ebb945cbda9e6f8bf590dbae736b61089ec724c0fa1d0244a03fe0f580dbd46495207d35ca24839fac420962f52344497e3731fb3b27b2ded3",
      "networkId": 0,
      "chainId": 0
    },
    {
      "hash": "0x362bb9005250ddc9e56af470fe38091ee36a389d4d2ab8dc0d0facfbc8af13de",
      "blockHash": "0x13688c0751a399528e99d197cb2e4f9ac70e63a3316b3f6a4c9031ba3bb0f5a5",
      "blockNumber": 121656,
      "transactionIndex": 1,
      "confirmations": null,
      "from": "0x69998aF76c49616e3788376cfB9d5B687E066d1d",
      "gasPrice": {
        "_hex": "0xdf0a8f08b"
      },
      "gasLimit": {
        "_hex": "0x5208"
      },
      "to": "0x32Be343B94f860124dC4fEe278FDCBD38C102D88",
      "value": {
        "_hex": "0xa24e1449950f900000"
      },
      "nonce": 0,
      "data": "0x",
      "r": "0x16f3c9e81b74c2ca065c8198152bb2a66bd870c041925b48c6132d69994236db",
      "s": "0x449d89a236f57568abd2f4b957bf5bed34ef92444c22017bd87397ba905eab9c",
      "v": 27,
      "creates": null,
      "raw": "0xf86d80850df0a8f08b8252089432be343b94f860124dc4fee278fdcbd38c102d8889a24e1449950f900000801ba016f3c9e81b74c2ca065c8198152bb2a66bd870c041925b48c6132d69994236dba0449d89a236f57568abd2f4b957bf5bed34ef92444c22017bd87397ba905eab9c",
      "networkId": 0,
      "chainId": 0
    },
    {
      "hash": "0x07b0c3ceec3570c2e031cf6e5db8d42a88ffb3634412053b67987e49c26b017e",
      "blockHash": "0x13688c0751a399528e99d197cb2e4f9ac70e63a3316b3f6a4c9031ba3bb0f5a5",
      "blockNumber": 121656,
      "transactionIndex": 2,
      "confirmations": null,
      "from": "0x21895C01b82eA35dF09ca8E69d5E77c8D639e175",
      "gasPrice": {
        "_hex": "0xdf0a8f08b"
      },
      "gasLimit": {
        "_hex": "0x5208"
      },
      "to": "0x32Be343B94f860124dC4fEe278FDCBD38C102D88",
      "value": {
        "_hex": "0x821a695bd74a00000"
      },
      "nonce": 1,
      "data": "0x",
      "r": "0x561f00540d34277d38cef6c85618fa0eb33388db5db84b85512de3cc0529073b",
      "s": "0x2bcaff6c24d392a48fee21af7057cbb296d43a8a457d5b1dfc403099f7997a71",
      "v": 28,
      "creates": null,
      "raw": "0xf86d01850df0a8f08b8252089432be343b94f860124dc4fee278fdcbd38c102d88890821a695bd74a00000801ca0561f00540d34277d38cef6c85618fa0eb33388db5db84b85512de3cc0529073ba02bcaff6c24d392a48fee21af7057cbb296d43a8a457d5b1dfc403099f7997a71",
      "networkId": 0,
      "chainId": 0
    }
  ]
}