{
  "hash": "0xc24917cb03b7cd9de8e0405e8036881807c31a17027f936019637724a2dc7191",
  "parentHash": "0x2d68325124dc4944435554cf0d397386fb8b53d72a49153f558475641140617a",
  "number": 112519,
  "timestamp": 1440008720,
  "nonce": "0x86120d3d7ab0ad04",
  "difficulty": 4426067539964,
  "gasLimit": {
    "_hex": "0x2fefd8"
  },
  "gasUsed": {
    "_hex": "0x5208"
  },
  "miner": "0xf927a40C8B7F6E07c5af7FA2155B4864a4112B13",
  "extraData": "0x",
  "transactions": [
    {
      "hash": "0x9e03f16d4bc04012bcaff7470b42eacfc93f99cff6a95a386bc92c33b3718ce2",
      "blockHash": "0xc24917cb03b7cd9de8e0405e8036881807c31a17027f936019637724a2dc7191",
      "blockNumber": 112519,
      "transactionIndex": 0,
      "confirmations": null,
      "from": "0x120A270bbC009644e35F0bB6ab13f95b8199c4ad",
      "gasPrice": {
        "_hex": "0xd56466dd4"
      },
      "gasLimit": {
        "_hex": "0x15f90"
      },
      "to": "0x6a05b60Df8c225f0b2171f59a6fD52CD0BEeD37D",
      "value": {
        "_hex": "0x28cd5ed57915b47400"
      },
      "nonce": 896,
      "data": "0x",
      "r": "0xabf1445b23aa3eb724dd254e61224c3afde1da4d4fd46d9c1d3685331a22f18f",
      "s": "0x2dffc4d7b193f65baee9db7609c51b8c89ea53d4d756e3e494624e478c58558f",
      "v": 28,
      "creates": null,
      "raw": "0xf870820380850d56466dd483015f90946a05b60df8c225f0b2171f59a6fd52cd0beed37d8928cd5ed57915b47400801ca0abf1445b23aa3eb724dd254e61224c3afde1da4d4fd46d9c1d3685331a22f18fa02dffc4d7b193f65baee9db7609c51b8c89ea53d4d756e3e494624e478c58558f",
      "networkId": 0,
      "chainId": 0
    }
  ]
}