{
  "hash": "0x6c3401adffa6b713960f6c7c5b41da5cd98ea2a169929ad5d710b7a33d8bab2d",
  "parentHash": "0xdfda9c88874bc69871b29be9046c232c7e5f8d01809cf679fd2773954e2258a9",
  "number": 105323,
  "timestamp": 1439885563,
  "nonce": "0x47f60a20fbfa18b8",
  "difficulty": 4365448323890,
  "gasLimit": {
    "_hex": "0x2fefd8"
  },
  "gasUsed": {
    "_hex": "0x14820"
  },
  "miner": "0xe6A7a1d47ff21B6321162AEA7C6CB457D5476Bca",
  "extraData": "0x476574682f76312e302e312d38326566323666362f6c696e75782f676f312e34",
  "transactions": [
    {
      "hash": "0xdf8763b8aa514069993750c406ffc18654f235ec1fcdc1ef43c8f7054ba3df70",
      "blockHash": "0x6c3401adffa6b713960f6c7c5b41da5cd98ea2a169929ad5d710b7a33d8bab2d",
      "blockNumber": 105323,
      "transactionIndex": 0,
      "confirmations": null,
      "from": "0xED2aF977080D441C24E9910f1e2078A4446d0bbf",
      "gasPrice": {
        "_hex": "0xd54836a0f"
      },
      "gasLimit": {
        "_hex": "0x5208"
      },
      "to": "0x32Be343B94f860124dC4fEe278FDCBD38C102D88",
      "value": {
        "_hex": "0x14c3347a0b74e000"
      },
      "nonce": 2,
      "data": "0x",
      "r": "0x99aa3b708143fcb1592dde3aa5db76b3d071e2f8e668dafe7f536018731aeb7c",
      "s": "0x3acaf26d3260515dc76e33883e09fff1f8f5816e4fc9a9734b45b16f52a4d7f0",
      "v": 28,
      "creates": null,
      "raw": "0xf86c02850d54836a0f8252089432be343b94f860124dc4fee278fdcbd38c102d888814c3347a0b74e000801ca099aa3b708143fcb1592dde3aa5db76b3d071e2f8e668dafe7f536018731aeb7ca03acaf26d3260515dc76e33883e09fff1f8f5816e4fc9a9734b45b16f52a4d7f0",
      "networkId": 0,
      "chainId": 0
    },
    {
      "hash": "0x37ba3bc8591ba0644843a598ecbdccaad6fc5a476ef30fbcaedd0b1aacffc17e",
      "blockHash": "0x6c3401adffa6b713960f6c7c5b41da5cd98ea2a169929ad5d710b7a33d8bab2d",
      "blockNumber": 105323,
      "transactionIndex": 1,
      "confirmations": null,
      "from": "0xe6A7a1d47ff21B6321162AEA7C6CB457D5476Bca",
      "gasPrice": {
        "_hex": "0xcc8a82106"
      },
      "gasLimit": {
        "_hex": "0x55f0"
      },
      "to": "0x1332996a46dcBBE02f9cF164Dfc153aB976a9766",
      "value": {
        "_hex": "0x4d5cf89d4cfd6808"
      },
      "nonce": 3784,
      "data": "0x",
      "r": "0xc773fba12fe070606a049d62235dcae22171edb80c2f59f01ce66ad983e1575a",
      "s": "0x3c2af810585b768fba036eed277b0608f6d4c987d10a9ab16f55baf6734f1a79",
      "v": 28,
      "creates": null,
      "raw": "0xf86e820ec8850cc8a821068255f0941332996a46dcbbe02f9cf164dfc153ab976a9766884d5cf89d4cfd6808801ca0c773fba12fe070606a049d62235dcae22171edb80c2f59f01ce66ad983e1575aa03c2af810585b768fba036eed277b0608f6d4c987d10a9ab16f55baf6734f1a79",
      "networkId": 0,
      "chainId": 0
    },
    {
      "hash": "0x4e79324fa3e5fc1e497d553b61b97741583404c48750f35b228eb50045ab31eb",
      "blockHash": "0x6c3401adffa6b713960f6c7c5b41da5cd98ea2a169929ad5d710b7a33d8bab2d",
      "blockNumber": 105323,
      "transactionIndex": 2,
      "confirmations": null,
      "from": "0xe6A7a1d47ff21B6321162AEA7C6CB457D5476Bca",
      "gasPrice": {
        "_hex": "0xcc8a82106"
      },
      "gasLimit": {
        "_hex": "0x55f0"
      },
      "to": "0xe535C1c29F0091324F184de7a5be5520D1b0b008",
      "value": {
        "_hex": "0x4d70c72d28c89fa8"
      },
      "nonce": 3785,
      "data": "0x",
      "r": "0x84bbc9e871879f494148cf79bd40013bd1655182aa90517c55f5e0f08e0eddad",
      "s": "0x34960c390d0db317297cbb2fa2a2a4c777ceecc200c050058ed808342ee35ada",
      "v": 27,
      "creates": null,
      "raw": "0xf86e820ec9850cc8a821068255f094e535c1c29f0091324f184de7a5be5520d1b0b008884d70c72d28c89fa8801ba084bbc9e871879f494148cf79bd40013bd1655182aa90517c55f5e0f08e0eddada034960c390d0db317297cbb2fa2a2a4c777ceecc200c050058ed808342ee35ada",
      "networkId": 0,
      "chainId": 0
    },
    {
      "hash": "0x03dee865575779e5f595f3d95474a21e580493830509775a4c258acf8ad4434d",
      "blockHash": "0x6c3401adffa6b713960f6c7c5b41da5cd98ea2a169929ad5d710b7a33d8bab2d",
      "blockNumber": 105323,
      "transactionIndex": 3,
      "confirmations": null,
      "from": "0xe6A7a1d47ff21B6321162AEA7C6CB457D5476Bca",
      "gasPrice": {
        "_hex": "0xcc8a82106"
      },
      "gasLimit": {
        "_hex": "0x55f0"
      },
      "to": "0xA88B1eAe9655f8f49d669A10EA450fC4df44A268",
      "value": {
        "_hex": "0x4e54138f596dd780"
      },
      "nonce": 3786,
      "data": "0x",
      "r": "0xddbae34ceec7018240e1ed9e0b86ef1e03cc4c4f13394e52e42ddb1e71448a13",
      "s": "0x3ad0c0d69a9afa3cbe45073da20bf298f6fdcbd99e5cb99118892faebec87adf",
      "v": 28,
      "creates": null,
      "raw": "0xf86e820eca850cc8a821068255f094a88b1eae9655f8f49d669a10ea450fc4df44a268884e54138f596dd780801ca0ddbae34ceec7018240e1ed9e0b86ef1e03cc4c4f13394e52e42ddb1e71448a13a03ad0c0d69a9afa3cbe45073da20bf298f6fdcbd99e5cb99118892faebec87adf",
      "networkId": 0,
      "chainId": 0
    }
  ]
}