{
  "hash": "0xa2ee741d1e865b259ebef7881a0ac4931c1166d1cd1c286dd7bb86a58497c6a4",
  "parentHash": "0x75e3ae6680ff77a7a8377db52be6e27e3f773f59250dec5267790d6e93b813cc",
  "number": 106186,
  "timestamp": 1439900101,
  "nonce": "0xd2b98ac485fc2feb",
  "difficulty": 4466330863990,
  "gasLimit": {
    "_hex": "0x2fefd8"
  },
  "gasUsed": {
    "_hex": "0x5208"
  },
  "miner": "0xe6A7a1d47ff21B6321162AEA7C6CB457D5476Bca",
  "extraData": "0x476574682f76312e302e312d38326566323666362f6c696e75782f676f312e34",
  "transactions": [
    {
      "hash": "0xbce52f57f44d029102213c89cb22e923f75bba9a76fd540ec56b1ea7ab9aa444",
      "blockHash": "0xa2ee741d1e865b259ebef7881a0ac4931c1166d1cd1c286dd7bb86a58497c6a4",
      "blockNumber": 106186,
      "transactionIndex": 0,
      "confirmations": null,
      "from": "0x32Be343B94f860124dC4fEe278FDCBD38C102D88",
      "gasPrice": {
        "_hex": "0xd202554ea"
      },
      "gasLimit": {
        "_hex": "0x5208"
      },
      "to": "0xAa37b1200B856ce897a85b9C2b11a8213095Bf2a",
      "value": {
        "_hex": "0x47fb7b54cd5ab0000"
      },
      "nonce": 1186,
      "data": "0x",
      "r": "0xadf03ee31883fa8b40cace181989146439a25c1b3c0c6bee56292f254fc7ec27",
      "s": "0x6c40fb8e14fd4a3f8f77c2d7d5a88f1a88db4eb0253d98e65c0b19adb8fe5536",
      "v": 28,
      "creates": null,
      "raw": "0xf86f8204a2850d202554ea82520894aa37b1200b856ce897a85b9c2b11a8213095bf2a89047fb7b54cd5ab0000801ca0adf03ee31883fa8b40cace181989146439a25c1b3c0c6bee56292f254fc7ec27a06c40fb8e14fd4a3f8f77c2d7d5a88f1a88db4eb0253d98e65c0b19adb8fe5536",
      "networkId": 0,
      "chainId": 0
    }
  ]
}