{
  "hash": "0xce9e8231d89fbc8c71f59f06adcf8d91ca7d566563d52ead67cb5a1b039f0361",
  "parentHash": "0xb8282cfc62c93f39222d4fb9a85cf9a938c7f17e0d42597ed02b9472e5a24b95",
  "number": 82129,
  "timestamp": 1439514152,
  "nonce": "0xe158c068753caef9",
  "difficulty": 2384677536381,
  "gasLimit": {
    "_hex": "0x2fefd8"
  },
  "gasUsed": {
    "_hex": "0xa410"
  },
  "miner": "0xe6A7a1d47ff21B6321162AEA7C6CB457D5476Bca",
  "extraData": "0x476574682f76312e302e312d38326566323666362f6c696e75782f676f312e34",
  "transactions": [
    {
      "hash": "0x19622eed128c428d6b16fc997d8577860da4c6924a0eef22dd20a11a2c17e517",
      "blockHash": "0xce9e8231d89fbc8c71f59f06adcf8d91ca7d566563d52ead67cb5a1b039f0361",
      "blockNumber": 82129,
      "transactionIndex": 0,
      "confirmations": null,
      "from": "0x2910543Af39abA0Cd09dBb2D50200b3E800A63D2",
      "gasPrice": {
        "_hex": "0xcc9bdfb46"
      },
      "gasLimit": {
        "_hex": "0x5208"
      },
      "to": "0xdEC7d1B05f89c0Ce0870Ea4AeA18138264675478",
      "value": {
        "_hex": "0x3635b7ea4ca6bf8000"
      },
      "nonce": 508,
      "data": "0x",
      "r": "0xebc6df4ef136d684395fc3b55907889422bf9b7a5fecb6ca2d9db7bef7523a6b",
      "s": "0x1c73db634ee7492cdc0e22a89f52b5f7f3a3c864f44e3ac5e29648c4ed962490",
      "v": 27,
      "creates": null,
      "raw": "0xf86f8201fc850cc9bdfb4682520894dec7d1b05f89c0ce0870ea4aea18138264675478893635b7ea4ca6bf8000801ba0ebc6df4ef136d684395fc3b55907889422bf9b7a5fecb6ca2d9db7bef7523a6ba01c73db634ee7492cdc0e22a89f52b5f7f3a3c864f44e3ac5e29648c4ed962490",
      "networkId": 0,
      "chainId": 0
    },
    {
      "hash": "0x88a07e43c23e9f4c5b7d47b208ed3293d679a2cdb2e321d6e85222f3ce43ca52",
      "blockHash": "0xce9e8231d89fbc8c71f59f06adcf8d91ca7d566563d52ead67cb5a1b039f0361",
      "blockNumber": 82129,
      "transactionIndex": 1,
      "confirmations": null,
      "from": "0x09ae49E37f121Df5dc158cfDE806f173A06B0c7f",
      "gasPrice": {
        "_hex": "0xba43b7400"
      },
      "gasLimit": {
        "_hex": "0x5208"
      },
      "to": "0x001bC0Ef77194c76bCf47CD4afFa70Fd84c138EA",
      "value": {
        "_hex": "0xd8309a6bb374cc6000"
      },
      "nonce": 0,
      "data": "0x",
      "r": "0xedad5a6edc76a05f4d3be1d3ab2cb8a44323743323179abfa64a303db8f18970",
      "s": "0x4d724eeb4b3d8c38cc5f8e73c0ca33f27a94243d9a560b68d75ee1143e082f2b",
      "v": 27,
      "creates": null,
      "raw": "0xf86d80850ba43b740082520894001bc0ef77194c76bcf47cd4affa70fd84c138ea89d8309a6bb374cc6000801ba0edad5a6edc76a05f4d3be1d3ab2cb8a44323743323179abfa64a303db8f18970a04d724eeb4b3d8c38cc5f8e73c0ca33f27a94243d9a560b68d75ee1143e082f2b",
      "networkId": 0,
      "chainId": 0
    }
  ]
}