{
  "hash": "0x17fd83b03d0647193215cfd53c646303728d5bcfa65347c0a82406ac21c1d6ea",
  "parentHash": "0x1f1345395975defb4a13c5ee4d04a0cc2189fff2cd34ae4ee2fb882327871445",
  "number": 48845,
  "timestamp": 1438963927,
  "nonce": "0xd70eaeea0f5f9005",
  "difficulty": 1480770980425,
  "gasLimit": {
    "_hex": "0x1f56e"
  },
  "gasUsed": {
    "_hex": "0xa8d8"
  },
  "miner": "0xf8E0CA3Ed80bd541b94BEdCf259e8CF2141A9523",
  "extraData": "0x476574682f76312e302e312f77696e646f77732f676f312e342e32",
  "transactions": [
    {
      "hash": "0xf4a039f8939f71094c1e00922ac33784e8575d9ac39434ff21240b8c2fd180bb",
      "blockHash": "0x17fd83b03d0647193215cfd53c646303728d5bcfa65347c0a82406ac21c1d6ea",
      "blockNumber": 48845,
      "transactionIndex": 0,
      "confirmations": null,
      "from": "0x36343AEcA07b6Ed58a0e62FA4eCb498A124fc971",
      "gasPrice": {
        "_hex": "0x110c8f7d8de"
      },
      "gasLimit": {
        "_hex": "0xc350"
      },
      "to": "0x2910543Af39abA0Cd09dBb2D50200b3E800A63D2",
      "value": {
        "_hex": "0x8ac7230489e80000"
      },
      "nonce": 0,
      "data": "0x454e34453943323547",
      "r": "0x9eed8b7436f60a29959081ed1f015e330fec638e8a373650864875ea87f9c850",
      "s": "0x83a7166fd46c37329a6a4799a7b3f38d43aaefccb28af336253c831ee2f6f193",
      "v": 27,
      "creates": null,
      "raw": "0xf87680860110c8f7d8de82c350942910543af39aba0cd09dbb2d50200b3e800a63d2888ac7230489e8000089454e344539433235471ba09eed8b7436f60a29959081ed1f015e330fec638e8a373650864875ea87f9c850a083a7166fd46c37329a6a4799a7b3f38d43aaefccb28af336253c831ee2f6f193",
      "networkId": 0,
      "chainId": 0
    },
    {
      "hash": "0xf4d1ba45b7d0c4636eccd6cb29936c090085a4fbfd9b113784b604f89f8b98e0",
      "blockHash": "0x17fd83b03d0647193215cfd53c646303728d5bcfa65347c0a82406ac21c1d6ea",
      "blockNumber": 48845,
      "transactionIndex": 1,
      "confirmations": null,
      "from": "0xf6a8635757c5e8C134d20D028cf778cf8609E46A",
      "gasPrice": {
        "_hex": "0xd8a18bdfa"
      },
      "gasLimit": {
        "_hex": "0x15f90"
      },
      "to": "0x2910543Af39abA0Cd09dBb2D50200b3E800A63D2",
      "value": {
        "_hex": "0x4563918244f40000"
      },
      "nonce": 0,
      "data": "0x454e52473051335a52",
      "r": "0xd8eb9484b40892c8adfae9b8cba42e801e2736c83ad91a0904abb17a065ba573",
      "s": "0x2ae32427522e2ff6a9ffee59634f63a27a733a1b2469e4a932a8c21742c53641",
      "v": 27,
      "creates": null,
      "raw": "0xf87680850d8a18bdfa83015f90942910543af39aba0cd09dbb2d50200b3e800a63d2884563918244f4000089454e52473051335a521ba0d8eb9484b40892c8adfae9b8cba42e801e2736c83ad91a0904abb17a065ba573a02ae32427522e2ff6a9ffee59634f63a27a733a1b2469e4a932a8c21742c53641",
      "networkId": 0,
      "chainId": 0
    }
  ]
}