{
  "hash": "0x5f3260efb8661b83906e87241dd0c39cbd20412a40f4a6cf9402c91b8cf5c2c1",
  "parentHash": "0x6c5319b6810687fce0abeae2cbf0b452bc62ece7b6f2fa617b2a408393e01c08",
  "number": 83961,
  "timestamp": 1439543290,
  "nonce": "0xa1fbab3557428e99",
  "difficulty": 2467055191206,
  "gasLimit": {
    "_hex": "0x2fefd8"
  },
  "gasUsed": {
    "_hex": "0xf618"
  },
  "miner": "0xe6A7a1d47ff21B6321162AEA7C6CB457D5476Bca",
  "extraData": "0x476574682f76312e302e312d38326566323666362f6c696e75782f676f312e34",
  "transactions": [
    {
      "hash": "0xde4db24bbba9c4caa6e0db25fba8610534d0fc15f7911b0af05b54af827bb9ba",
      "blockHash": "0x5f3260efb8661b83906e87241dd0c39cbd20412a40f4a6cf9402c91b8cf5c2c1",
      "blockNumber": 83961,
      "transactionIndex": 0,
      "confirmations": null,
      "from": "0x9230b1300eF6Bc6abD4b702f79a69dee0fDCe4C1",
      "gasPrice": {
        "_hex": "0xd398a7f6a"
      },
      "gasLimit": {
        "_hex": "0x5208"
      },
      "to": "0x32Be343B94f860124dC4fEe278FDCBD38C102D88",
      "value": {
        "_hex": "0x8599e4a9530b48000"
      },
      "nonce": 1,
      "data": "0x",
      "r": "0x76652aba9db13c28a034584b07cb684c5328f7122cfeb3705fdf427ab337d8a9",
      "s": "0x3ecfb32fba53c33333ff4575cdb35d61f0bdbdebe58e6e93b57f0ee79f94c4d3",
      "v": 27,
      "creates": null,
      "raw": "0xf86d01850d398a7f6a8252089432be343b94f860124dc4fee278fdcbd38c102d888908599e4a9530b48000801ba076652aba9db13c28a034584b07cb684c5328f7122cfeb3705fdf427ab337d8a9a03ecfb32fba53c33333ff4575cdb35d61f0bdbdebe58e6e93b57f0ee79f94c4d3",
      "networkId": 0,
      "chainId": 0
    },
    {
      "hash": "0x4998c763e3dfee99d09b6f9f9e4c6d91dea892963bf67ec96c980f2c1be0a712",
      "blockHash": "0x5f3260efb8661b83906e87241dd0c39cbd20412a40f4a6cf9402c91b8cf5c2c1",
      "blockNumber": 83961,
      "transactionIndex": 1,
      "confirmations": null,
      "from": "0x0bCa038BF4ACAd3Cbf73463EccC7717dDCDc3D83",
      "gasPrice": {
        "_hex": "0xd398a7f6a"
      },
      "gasLimit": {
        "_hex": "0x5208"
      },
      "to": "0x32Be343B94f860124dC4fEe278FDCBD38C102D88",
      "value": {
        "_hex": "0x872eaec3cb34000"
      },
      "nonce": 5,
      "data": "0x",
      "r": "0x08e5e1424f79a5b962a5964df03d35a1442b09c53a99c25e56c8ce1de9057306",
      "s": "0x47005906c48d883a011cfef738d30cd7447ac2e989ceef1f0450e61049daa321",
      "v": 28,
      "creates": null,
      "raw": "0xf86c05850d398a7f6a8252089432be343b94f860124dc4fee278fdcbd38c102d88880872eaec3cb34000801ca008e5e1424f79a5b962a5964df03d35a1442b09c53a99c25e56c8ce1de9057306a047005906c48d883a011cfef738d30cd7447ac2e989ceef1f0450e61049daa321",
      "networkId": 0,
      "chainId": 0
    },
    {
      "hash": "0x164b49746c33b37d09ba45ca2e3250b1f4f0f6eb1754bd73a2f98517aec6f553",
      "blockHash": "0x5f3260efb8661b83906e87241dd0c39cbd20412a40f4a6cf9402c91b8cf5c2c1",
      "blockNumber": 83961,
      "transactionIndex": 2,
      "confirmations": null,
      "from": "0x859217617481BD9b6E3e38f6aE9BB677F0D26154",
      "gasPrice": {
        "_hex": "0xd398a7f6a"
      },
      "gasLimit": {
        "_hex": "0x5208"
      },
      "to": "0x32Be343B94f860124dC4fEe278FDCBD38C102D88",
      "value": {
        "_hex": "0x56bc3160b91220000"
      },
      "nonce": 0,
      "data": "0x",
      "r": "0x1f3ff15daa138d65c75287d2ff81fbc1fb6bf42182445e63da810b9d339e35eb",
      "s": "0x70ebb9afa6f39befbe0c672bbaa4a27596df63840559c090f403d8725403a509",
      "v": 28,
      "creates": null,
      "raw": "0xf86d80850d398a7f6a8252089432be343b94f860124dc4fee278fdcbd38c102d8889056bc3160b91220000801ca01f3ff15daa138d65c75287d2ff81fbc1fb6bf42182445e63da810b9d339e35eba070ebb9afa6f39befbe0c672bbaa4a27596df63840559c090f403d8725403a509",
      "networkId": 0,
      "chainId": 0
    }
  ]
}