{
  "hash": "0xdb5e8c822a360b70228bb319f6df29ede11d58ddf0697a806a16d61144b93c78",
  "parentHash": "0x401a5b72dcb1d7ee8b705f29859defbbee8bb45eaf376a112226301dc622421f",
  "number": 85341,
  "timestamp": 1439562151,
  "nonce": "0x38f51cb3c543b65a",
  "difficulty": 2735669876849,
  "gasLimit": {
    "_hex": "0x2fefd8"
  },
  "gasUsed": {
    "_hex": "0x5208"
  },
  "miner": "0xe343732D1eA6921c73683B947937AC902b77aD4f",
  "extraData": "0x476574682f76312e302e312f6c696e75782f676f312e342e32",
  "transactions": [
    {
      "hash": "0x338d443666807abf3eb18dcdc05d60d574fabb2f9ca5e592ccde01f2833692e1",
      "blockHash": "0xdb5e8c822a360b70228bb319f6df29ede11d58ddf0697a806a16d61144b93c78",
      "blockNumber": 85341,
      "transactionIndex": 0,
      "confirmations": null,
      "from": "0x2910543Af39abA0Cd09dBb2D50200b3E800A63D2",
      "gasPrice": {
        "_hex": "0xdbed0635e"
      },
      "gasLimit": {
        "_hex": "0x5208"
      },
      "to": "0x12cbF607E6b04f34f251Ac08cF55444786Add488",
      "value": {
        "_hex": "0x429ca4cc3e8fc8000"
      },
      "nonce": 607,
      "data": "0x",
      "r": "0x6f2c94007cfd7db96fa03c5c28bf219bb97a0b4fb67d9207e73a5d9b796b4bc7",
      "s": "0x3eb57e46f43b8c4433e408321b4605098e8d70fbfd0cd1cfcbfcb2b2d3e0d17c",
      "v": 27,
      "creates": null,
      "raw": "0xf86f82025f850dbed0635e8252089412cbf607e6b04f34f251ac08cf55444786add488890429ca4cc3e8fc8000801ba06f2c94007cfd7db96fa03c5c28bf219bb97a0b4fb67d9207e73a5d9b796b4bc7a03eb57e46f43b8c4433e408321b4605098e8d70fbfd0cd1cfcbfcb2b2d3e0d17c",
      "networkId": 0,
      "chainId": 0
    }
  ]
}