{
  "hash": "0xe76dcdeb26956352492944b6d6d3f239af5242b364b814db4d45be197db0ee93",
  "parentHash": "0xc4f1237964162eb10fea21d6cd853a98a105b992cfb52a5220e62c4590a5308b",
  "number": 107724,
  "timestamp": 1439927769,
  "nonce": "0x1073f4a4c3074e27",
  "difficulty": 4374866817923,
  "gasLimit": {
    "_hex": "0x2fefd8"
  },
  "gasUsed": {
    "_hex": "0x5208"
  },
  "miner": "0x007f7f58D3eb5b7510A301eCC749FC1fCDDBE14D",
  "extraData": "0x476574682f76312e302e312f77696e646f77732f676f312e342e32",
  "transactions": [
    {
      "hash": "0x86d30b904fa6f18c2cb7825e8e0cf2c2a6c374af2fefd7ed75844876744506e9",
      "blockHash": "0xe76dcdeb26956352492944b6d6d3f239af5242b364b814db4d45be197db0ee93",
      "blockNumber": 107724,
      "transactionIndex": 0,
      "confirmations": null,
      "from": "0x00f222E7C680F9932feCAC767cC279C84C0A3285",
      "gasPrice": {
        "_hex": "0xba43b7400"
      },
      "gasLimit": {
        "_hex": "0x92385"
      },
      "to": "0x2FdA34cB6C13420bA8b8Af3cB1BA4F7CBb167821",
      "value": {
        "_hex": "0xa688906bd8b00000"
      },
      "nonce": 3,
      "data": "0x",
      "r": "0xbc5658e20f9a878a14da95b6b2306c28d23fc4eb21d9f1db708d0bc520b46d44",
      "s": "0x1e3d4cbf3e733df2bc62d01d6854f93f98dba1d84ec8687227f575b26ce4a34e",
      "v": 27,
      "creates": null,
      "raw": "0xf86d03850ba43b740083092385942fda34cb6c13420ba8b8af3cb1ba4f7cbb16782188a688906bd8b00000801ba0bc5658e20f9a878a14da95b6b2306c28d23fc4eb21d9f1db708d0bc520b46d44a01e3d4cbf3e733df2bc62d01d6854f93f98dba1d84ec8687227f575b26ce4a34e",
      "networkId": 0,
      "chainId": 0
    }
  ]
}