{
  "hash": "0x272d372614ed046443d4bcc2f1227de3113eb6fd41e4cc66f50f044a8725aa76",
  "parentHash": "0x6f4eb7cb5938f0115b2ea11edf3735057bd90d14eead8bc74dd0a37c5f4d08c3",
  "number": 121296,
  "timestamp": 1440174763,
  "nonce": "0xe12ee36c378008fe",
  "difficulty": 4423598400189,
  "gasLimit": {
    "_hex": "0x2fefd8"
  },
  "gasUsed": {
    "_hex": "0x520c"
  },
  "miner": "0xe6A7a1d47ff21B6321162AEA7C6CB457D5476Bca",
  "extraData": "0xd783010002844765746887676f312e342e32856c696e7578",
  "transactions": [
    {
      "hash": "0x5f074765c80cedfb8d33af437205b73c2c1b5cce1b76708c6ce5c1773e7c6b12",
      "blockHash": "0x272d372614ed046443d4bcc2f1227de3113eb6fd41e4cc66f50f044a8725aa76",
      "blockNumber": 121296,
      "transactionIndex": 0,
      "confirmations": null,
      "from": "0x74672829d26538f170FCE44F0CA97b5D5906532D",
      "gasPrice": {
        "_hex": "0xe52bf0b85"
      },
      "gasLimit": {
        "_hex": "0x7530"
      },
      "to": "0x04DcC562Aa04849203d88aDfd504A0030c4cBF60",
      "value": {
        "_hex": "0x14a6701dc1c8000"
      },
      "nonce": 0,
      "data": "0x00",
      "r": "0x9a34fbbcee256281a49f921a508b578b3d55bf992cccad28205d1a6e9f8afa2a",
      "s": "0x7b55f20f6e4f5a138b7cd37143d638458f6ac75047d5aa86da7ffb308932312c",
      "v": 28,
      "creates": null,
      "raw": "0xf86c80850e52bf0b858275309404dcc562aa04849203d88adfd504a0030c4cbf6088014a6701dc1c8000001ca09a34fbbcee256281a49f921a508b578b3d55bf992cccad28205d1a6e9f8afa2aa07b55f20f6e4f5a138b7cd37143d638458f6ac75047d5aa86da7ffb308932312c",
      "networkId": 0,
      "chainId": 0
    }
  ]
}