{
  "hash": "0xfa8f2e02c4e79c06a9da38224fd2f885ebad2583c727a2aed110d518d69173f3",
  "parentHash": "0xf8dff423dce45a61094c2617daf5e94073e5957b36d927ec259db16a133c9688",
  "number": 119074,
  "timestamp": 1440136273,
  "nonce": "0x5e2a55d12d553c0b",
  "difficulty": 4429093467385,
  "gasLimit": {
    "_hex": "0x2fefd8"
  },
  "gasUsed": {
    "_hex": "0x520c"
  },
  "miner": "0xe6A7a1d47ff21B6321162AEA7C6CB457D5476Bca",
  "extraData": "0xd783010002844765746887676f312e342e32856c696e7578",
  "transactions": [
    {
      "hash": "0xcedf8a405217778638a15f79c178cd4669b36f6c1790aa67afb2651736c6659a",
      "blockHash": "0xfa8f2e02c4e79c06a9da38224fd2f885ebad2583c727a2aed110d518d69173f3",
      "blockNumber": 119074,
      "transactionIndex": 0,
      "confirmations": null,
      "from": "0xb9836ec1f42Bd48331bceaedb74a6Bcdc22832bD",
      "gasPrice": {
        "_hex": "0xd95b68b44"
      },
      "gasLimit": {
        "_hex": "0x7530"
      },
      "to": "0x7cB57B5A97eAbe94205C07890BE4c1aD31E486A8",
      "value": {
        "_hex": "0x38d7ea4c68000"
      },
      "nonce": 26,
      "data": "0x00",
      "r": "0xacf23af97837d5c2b42ba6daa475608e3a40601c00fbb90de2c93486cd8040a0",
      "s": "0x17ae5daca0815f37f4120e064f3107b9e4bb75911cca5e1da92e2400709cc107",
      "v": 27,
      "creates": null,
      "raw": "0xf86b1a850d95b68b44827530947cb57b5a97eabe94205c07890be4c1ad31e486a887038d7ea4c68000001ba0acf23af97837d5c2b42ba6daa475608e3a40601c00fbb90de2c93486cd8040a0a017ae5daca0815f37f4120e064f3107b9e4bb75911cca5e1da92e2400709cc107",
      "networkId": 0,
      "chainId": 0
    }
  ]
}