{
  "hash": "0xb593ab32f3a9356c1d29b3496ca47e5598e399b2e1e73ef008d82f6370caf3bc",
  "parentHash": "0x4b46ac6d1b39996b7f1aaa1ac948d6b211d8a89e62e1f77b33aa47f152416d90",
  "number": 115420,
  "timestamp": 1440056957,
  "nonce": "0x7699c24f05022237",
  "difficulty": 4562758598073,
  "gasLimit": {
    "_hex": "0x2fefd8"
  },
  "gasUsed": {
    "_hex": "0x5208"
  },
  "miner": "0xbb7B8287f3F0a933474a79eAe42CBCa977791171",
  "extraData": "0x476574682f4c5649562f76312e302e312f6c696e75782f676f312e342e32",
  "transactions": [
    {
      "hash": "0x55f7f67c16e3a8f758b16e6a5a14701e4ee2014321a7e6e0fb74bf36eda6c8b8",
      "blockHash": "0xb593ab32f3a9356c1d29b3496ca47e5598e399b2e1e73ef008d82f6370caf3bc",
      "blockNumber": 115420,
      "transactionIndex": 0,
      "confirmations": null,
      "from": "0xA270859a7dD7bEF18258BDE4b85Dd3691FdE277D",
      "gasPrice": {
        "_hex": "0xd56a0e747"
      },
      "gasLimit": {
        "_hex": "0x5208"
      },
      "to": "0x32Be343B94f860124dC4fEe278FDCBD38C102D88",
      "value": {
        "_hex": "0x62673bd1a9bbdc00"
      },
      "nonce": 6,
      "data": "0x",
      "r": "0x52d34cdd6e356f80f8dce4c7738000254546903afd2f4a8ee44bd218cb375dac",
      "s": "0x4318363ab8f68704ceb177138ef292c8a35f0042fa24eebcc504f7b9c18c4526",
      "v": 28,
      "creates": null,
      "raw": "0xf86c06850d56a0e7478252089432be343b94f860124dc4fee278fdcbd38c102d888862673bd1a9bbdc00801ca052d34cdd6e356f80f8dce4c7738000254546903afd2f4a8ee44bd218cb375daca04318363ab8f68704ceb177138ef292c8a35f0042fa24eebcc504f7b9c18c4526",
      "networkId": 0,
      "chainId": 0
    }
  ]
}