{
  "hash": "0x8289f3119d7446233f792bbf5a7ff0c0fbb23c1f4394421459a3fcd22b7e3d55",
  "parentHash": "0x3431ac932d1aaf742198be0b424cb53ac053da3f9332acf914ec5788069c3c3b",
  "number": 47258,
  "timestamp": 1438936983,
  "nonce": "0xd1c04a1e0e55b330",
  "difficulty": 1461653713559,
  "gasLimit": {
    "_hex": "0xa977"
  },
  "gasUsed": {
    "_hex": "0x5208"
  },
  "miner": "0x59389A554d044d4b3BED659834A248C59957f168",
  "extraData": "0x476574682f76312e302e312d38326566323666362f6c696e75782f676f312e34",
  "transactions": [
    {
      "hash": "0x0f439cf7471770c5ccdbd5ee2f91a9975ee63c9bc4f72a0d71ee5d31fb0bc1f0",
      "blockHash": "0x8289f3119d7446233f792bbf5a7ff0c0fbb23c1f4394421459a3fcd22b7e3d55",
      "blockNumber": 47258,
      "transactionIndex": 0,
      "confirmations": null,
      "from": "0xe6A7a1d47ff21B6321162AEA7C6CB457D5476Bca",
      "gasPrice": {
        "_hex": "0xf244a4e14"
      },
      "gasLimit": {
        "_hex": "0x5208"
      },
      "to": "0x75F9Ad8F648129cB38e85D8AB3018AF048e18F24",
      "value": {
        "_hex": "0x8b2b83ab360d7070"
      },
      "nonce": 91,
      "data": "0x",
      "r": "0xe8a3fca2aed5b22c2ab6d9c589119c59462b71499cfbf17139dd7712ab9d70b8",
      "s": "0x2a50481a018200c9d66814a93484747699d29bbfa572242ab791a839c40d1eff",
      "v": 27,
      "creates": null,
      "raw": "0xf86c5b850f244a4e148252089475f9ad8f648129cb38e85d8ab3018af048e18f24888b2b83ab360d7070801ba0e8a3fca2aed5b22c2ab6d9c589119c59462b71499cfbf17139dd7712ab9d70b8a02a50481a018200c9d66814a93484747699d29bbfa572242ab791a839c40d1eff",
      "networkId": 0,
      "chainId": 0
    }
  ]
}