{
  "hash": "0x5d4251693441c3ea481b8542f1485bad8114e9e8c4e55e1c3abbe29279c86004",
  "parentHash": "0x644f32f790a1702dc71f20a4258d9f3ae98a38c1f3ce54f775454fe5f1ab1ae0",
  "number": 48248,
  "timestamp": 1438954131,
  "nonce": "0x7c560df48f6cf943",
  "difficulty": 1455783447676,
  "gasLimit": {
    "_hex": "0x144c8"
  },
  "gasUsed": {
    "_hex": "0x5208"
  },
  "miner": "0xf927a40C8B7F6E07c5af7FA2155B4864a4112B13",
  "extraData": "0x476574682f76312e302e312f6c696e75782f676f312e342e32",
  "transactions": [
    {
      "hash": "0x6dea9d74be53d2f514660d0f5afa83536e580bbe72812cc1209810875c7b2aa0",
      "blockHash": "0x5d4251693441c3ea481b8542f1485bad8114e9e8c4e55e1c3abbe29279c86004",
      "blockNumber": 48248,
      "transactionIndex": 0,
      "confirmations": null,
      "from": "0xb6047CDF932DB3E4045F4976122341537eD5961E",
      "gasPrice": {
        "_hex": "0xcf73cdd79"
      },
      "gasLimit": {
        "_hex": "0x61a8"
      },
      "to": "0xAb5199486803893a6dc1AD1D31612895300BCcA9",
      "value": {
        "_hex": "0x2386f26fc10000"
      },
      "nonce": 2,
      "data": "0x",
      "r": "0x1f552666586cbf71fece040c0d746cb5bb46d1b719a05e155aa6c88bf3a89af1",
      "s": "0x29b447e5ffa7827079203199769e1952a66ca831ad3f51f406103da3f3924abb",
      "v": 28,
      "creates": null,
      "raw": "0xf86b02850cf73cdd798261a894ab5199486803893a6dc1ad1d31612895300bcca9872386f26fc10000801ca01f552666586cbf71fece040c0d746cb5bb46d1b719a05e155aa6c88bf3a89af1a029b447e5ffa7827079203199769e1952a66ca831ad3f51f406103da3f3924abb",
      "networkId": 0,
      "chainId": 0
    }
  ]
}