{
  "hash": "0x5ceb96ba4f80019ea1dabb4ed1c5cfa8f9b2fad657531418d79d2db8611cbc72",
  "parentHash": "0xe9024cd143f3f4559fa48525497622ae462ddff90855a25c5909af796d841298",
  "number": 110747,
  "timestamp": 1439978772,
  "nonce": "0x8812fcd534f684c9",
  "difficulty": 4392551386049,
  "gasLimit": {
    "_hex": "0x2ff527"
  },
  "gasUsed": {
    "_hex": "0x2dc6c0"
  },
  "miner": "0xe6A7a1d47ff21B6321162AEA7C6CB457D5476Bca",
  "extraData": "0x476574682f76312e302e312d38326566323666362f6c696e75782f676f312e34",
  "transactions": [
    {
      "hash": "0x74cdff8d5b2b342cc4930d12bde5d7f204489e52b0506c5a35c7b6c3d5e31a31",
      "blockHash": "0x5ceb96ba4f80019ea1dabb4ed1c5cfa8f9b2fad657531418d79d2db8611cbc72",
      "blockNumber": 110747,
      "transactionIndex": 0,
      "confirmations": null,
      "from": "0x54dAeb3E8a6BBC797E4aD2b0339f134b186e4637",
      "gasPrice": {
        "_hex": "0xe1780dfbb"
      },
      "gasLimit": {
        "_hex": "0x7a120"
      },
      "to": "0xBAA54d6E90c3F4d7Ebec11bD180134C7eD8eBb52",
      "value": {
        "_hex": "0x16345785d8a0000"
      },
      "nonce": 982,
      "data": "0x",
      "r": "0xb6af0380291c07a22cbe108c94f3e4eca418b72a50a04ba9e9c6c5b9ffbf2489",
      "s": "0x59ddf7e56dba5e0429fb62cbada7066875f2e568d91981637c18d48c494865fa",
      "v": 27,
      "creates": null,
      "raw": "0xf86f8203d6850e1780dfbb8307a12094baa54d6e90c3f4d7ebec11bd180134c7ed8ebb5288016345785d8a0000801ba0b6af0380291c07a22cbe108c94f3e4eca418b72a50a04ba9e9c6c5b9ffbf2489a059ddf7e56dba5e0429fb62cbada7066875f2e568d91981637c18d48c494865fa",
      "networkId": 0,
      "chainId": 0
    },
    {
      "hash": "0x8235ed28487d57681dcb16487937eaaf80229b744997fb6c3761a133c3721ad8",
      "blockHash": "0x5ceb96ba4f80019ea1dabb4ed1c5cfa8f9b2fad657531418d79d2db8611cbc72",
      "blockNumber": 110747,
      "transactionIndex": 1,
      "confirmations": null,
      "from": "0x54dAeb3E8a6BBC797E4aD2b0339f134b186e4637",
      "gasPrice": {
        "_hex": "0xdf4ba21f9"
      },
      "gasLimit": {
        "_hex": "0x7a120"
      },
      "to": "0xBAA54d6E90c3F4d7Ebec11bD180134C7eD8eBb52",
      "value": {
        "_hex": "0x16345785d8a0000"
      },
      "nonce": 983,
      "data": "0x",
      "r": "0xe2adadb0a6e51e3454ef6ca7fc46508549c726d95d1e9b7cd603763ec7480e24",
      "s": "0x12692ffe0e1498bdf7611050b73c288f0e84cebe4b956eb1ab537beb14165df2",
      "v": 28,
      "creates": null,
      "raw": "0xf86f8203d7850df4ba21f98307a12094baa54d6e90c3f4d7ebec11bd180134c7ed8ebb5288016345785d8a0000801ca0e2adadb0a6e51e3454ef6ca7fc46508549c726d95d1e9b7cd603763ec7480e24a012692ffe0e1498bdf7611050b73c288f0e84cebe4b956eb1ab537beb14165df2",
      "networkId": 0,
      "chainId": 0
    },
    {
      "hash": "0x98e33b14ebb6483e2ca26261b09b02afab0b5d6829de181a278ab9e6a77ffc41",
      "blockHash": "0x5ceb96ba4f80019ea1dabb4ed1c5cfa8f9b2fad657531418d79d2db8611cbc72",
      "blockNumber": 110747,
      "transactionIndex": 2,
      "confirmations": null,
      "from": "0x54dAeb3E8a6BBC797E4aD2b0339f134b186e4637",
      "gasPrice": {
        "_hex": "0xe7d27df17"
      },
      "gasLimit": {
        "_hex": "0x7a120"
      },
      "to": "0xBAA54d6E90c3F4d7Ebec11bD180134C7eD8eBb52",
      "value": {
        "_hex": "0x16345785d8a0000"
      },
      "nonce": 984,
      "data": "0x",
      "r": "0x1bea49d23ec009daddb2189060dc5c52670925cf24a7ea153b7ec5c78a3e59a3",
      "s": "0x1f7701e99e385b3020b28a7e9c221aaaac9eee0c891ce9f6282f3936510edb1e",
      "v": 28,
      "creates": null,
      "raw": "0xf86f8203d8850e7d27df178307a12094baa54d6e90c3f4d7ebec11bd180134c7ed8ebb5288016345785d8a0000801ca01bea49d23ec009daddb2189060dc5c52670925cf24a7ea153b7ec5c78a3e59a3a01f7701e99e385b3020b28a7e9c221aaaac9eee0c891ce9f6282f3936510edb1e",
      "networkId": 0,
      "chainId": 0
    },
    {
      "hash": "0x7076cc7a107ca0fd971c851a27c8e42e403d4a09bba36a6bf575f39e2bee1233",
      "blockHash": "0x5ceb96ba4f80019ea1dabb4ed1c5cfa8f9b2fad657531418d79d2db8611cbc72",
      "blockNumber": 110747,
      "transactionIndex": 3,
      "confirmations": null,
      "from": "0x54dAeb3E8a6BBC797E4aD2b0339f134b186e4637",
      "gasPrice": {
        "_hex": "0xdada9c769"
      },
      "gasLimit": {
        "_hex": "0x7a120"
      },
      "to": "0xBAA54d6E90c3F4d7Ebec11bD180134C7eD8eBb52",
      "value": {
        "_hex": "0x16345785d8a0000"
      },
      "nonce": 985,
      "data": "0x",
      "r": "0x5ba17be91794547054773f5f6a47e3154977a20c0069a7ccc87804e4e8623483",
      "s": "0x7fdcfece2796779c1772b4edca8b553d987532a6abac79d68f252f246dc3033c",
      "v": 28,
      "creates": null,
      "raw": "0xf86f8203d9850dada9c7698307a12094baa54d6e90c3f4d7ebec11bd180134c7ed8ebb5288016345785d8a0000801ca05ba17be91794547054773f5f6a47e3154977a20c0069a7ccc87804e4e8623483a07fdcfece2796779c1772b4edca8b553d987532a6abac79d68f252f246dc3033c",
      "networkId": 0,
      "chainId": 0
    },
    {
      "hash": "0x993b6182e83634d39cc819aeefeae44cb51a41a74e0fc6627c67d9bc89345ecb",
      "blockHash": "0x5ceb96ba4f80019ea1dabb4ed1c5cfa8f9b2fad657531418d79d2db8611cbc72",
      "blockNumber": 110747,
      "transactionIndex": 4,
      "confirmations": null,
      "from": "0x54dAeb3E8a6BBC797E4aD2b0339f134b186e4637",
      "gasPrice": {
        "_hex": "0xdf4ba21f9"
      },
      "gasLimit": {
        "_hex": "0x7a120"
      },
      "to": "0xBAA54d6E90c3F4d7Ebec11bD180134C7eD8eBb52",
      "value": {
        "_hex": "0x16345785d8a0000"
      },
      "nonce": 986,
      "data": "0x",
      "r": "0xf2418a4407b44889311fb53e04b74263e593d73f88364d16429560b3c55e07c4",
      "s": "0x613e75d87b86927e76e957816d555ad621c965903eb37a9e9de2236afa7f243e",
      "v": 28,
      "creates": null,
      "raw": "0xf86f8203da850df4ba21f98307a12094baa54d6e90c3f4d7ebec11bd180134c7ed8ebb5288016345785d8a0000801ca0f2418a4407b44889311fb53e04b74263e593d73f88364d16429560b3c55e07c4a0613e75d87b86927e76e957816d555ad621c965903eb37a9e9de2236afa7f243e",
      "networkId": 0,
      "chainId": 0
    },
    {
      "hash": "0x45038596d44cf008f16a43f6533693f6b0c06c36dd2d34f57bf570c20f2721c8",
      "blockHash": "0x5ceb96ba4f80019ea1dabb4ed1c5cfa8f9b2fad657531418d79d2db8611cbc72",
      "blockNumber": 110747,
      "transactionIndex": 5,
      "confirmations": null,
      "from": "0x54dAeb3E8a6BBC797E4aD2b0339f134b186e4637",
      "gasPrice": {
        "_hex": "0xdf4ba21f9"
      },
      "gasLimit": {
        "_hex": "0x7a120"
      },
      "to": "0xBAA54d6E90c3F4d7Ebec11bD180134C7eD8eBb52",
      "value": {
        "_hex": "0x16345785d8a0000"
      },
      "nonce": 987,
      "data": "0x",
      "r": "0xca7bbaa470693691925800d82ae39f9eb6db21b8005d4c271f1038944c034f8e",
      "s": "0x2cd8ccd18d922987a21387ff6a9207e0c667c340c4d7974bd3f909320cf5f161",
      "v": 28,
      "creates": null,
      "raw": "0xf86f8203db850df4ba21f98307a12094baa54d6e90c3f4d7ebec11bd180134c7ed8ebb5288016345785d8a0000801ca0ca7bbaa470693691925800d82ae39f9eb6db21b8005d4c271f1038944c034f8ea02cd8ccd18d922987a21387ff6a9207e0c667c340c4d7974bd3f909320cf5f161",
      "networkId": 0,
      "chainId": 0
    }
  ]
}