{
  "hash": "0xe5f6c52f8743ec0d02e4ddb6f92ac83732702f04fdf84cc245de672f0039c911",
  "parentHash": "0xb9e0a8f26408698e0b758573d78b9eb4edc45af4bc7b9a18790a358f173bab8d",
  "number": 82096,
  "timestamp": 1439513517,
  "nonce": "0xf7cb992678bdae89",
  "difficulty": 2383522803731,
  "gasLimit": {
    "_hex": "0x2fefd8"
  },
  "gasUsed": {
    "_hex": "0xa410"
  },
  "miner": "0x001147dCbB1ec632AF78203FDFA4981D65f2Cd46",
  "extraData": "0xda8098302e392e34312b2b302d524c696e75782f672b2b2f696e74",
  "transactions": [
    {
      "hash": "0x821d538f6f74ac7d8b56154e48501a594e4b7bb5fea76ed222a99df22afb2cc4",
      "blockHash": "0xe5f6c52f8743ec0d02e4ddb6f92ac83732702f04fdf84cc245de672f0039c911",
      "blockNumber": 82096,
      "transactionIndex": 0,
      "confirmations": null,
      "from": "0xd5d9a0033e6B0A3ba7634d0e1a9055ad5f452C3D",
      "gasPrice": {
        "_hex": "0xda213c908"
      },
      "gasLimit": {
        "_hex": "0x5208"
      },
      "to": "0x32Be343B94f860124dC4fEe278FDCBD38C102D88",
      "value": {
        "_hex": "0xac9a9a74f93610000"
      },
      "nonce": 7,
      "data": "0x",
      "r": "0xc1c7dd196c41e91a35ade16720f7a2cdb89548a2f05641986fa6095bacc61d8a",
      "s": "0x32f134a022e8bf69ff51c1a34b7d14d89d901f1ae4a5e40bb774d7d90224310c",
      "v": 28,
      "creates": null,
      "raw": "0xf86d07850da213c9088252089432be343b94f860124dc4fee278fdcbd38c102d88890ac9a9a74f93610000801ca0c1c7dd196c41e91a35ade16720f7a2cdb89548a2f05641986fa6095bacc61d8aa032f134a022e8bf69ff51c1a34b7d14d89d901f1ae4a5e40bb774d7d90224310c",
      "networkId": 0,
      "chainId": 0
    },
    {
      "hash": "0xeec4ff55045d3721ed95e8e19b6dafb110a82a70a4d2136282339304697b6255",
      "blockHash": "0xe5f6c52f8743ec0d02e4ddb6f92ac83732702f04fdf84cc245de672f0039c911",
      "blockNumber": 82096,
      "transactionIndex": 1,
      "confirmations": null,
      "from": "0xa6BDc31c431B8F97848c9D60cbbe9660dc450eB7",
      "gasPrice": {
        "_hex": "0xda213c908"
      },
      "gasLimit": {
        "_hex": "0x5208"
      },
      "to": "0x32Be343B94f860124dC4fEe278FDCBD38C102D88",
      "value": {
        "_hex": "0x478a4fb6cbc0b400"
      },
      "nonce": 49,
      "data": "0x",
      "r": "0xa142481aff8e399eadf32b21d76b0e370b4a02e9583b0f85ec40169f95d35d55",
      "s": "0x38af8a05b1c09d521f1a32f088cc87415530c0a3d0b7f7dd3aec941f2aca68d9",
      "v": 28,
      "creates": null,
      "raw": "0xf86c31850da213c9088252089432be343b94f860124dc4fee278fdcbd38c102d8888478a4fb6cbc0b400801ca0a142481aff8e399eadf32b21d76b0e370b4a02e9583b0f85ec40169f95d35d55a038af8a05b1c09d521f1a32f088cc87415530c0a3d0b7f7dd3aec941f2aca68d9",
      "networkId": 0,
      "chainId": 0
    }
  ]
}