{
  "hash": "0x28dcd8ef6726e8605c3bc373d6dbeaca439d1b5cab7999692ff563955d0dca15",
  "parentHash": "0x5c924a7add94982f612b1ded72353e918cce09840dd40f8c8c333b3b42c103fd",
  "number": 105280,
  "timestamp": 1439884807,
  "nonce": "0x4f40aaaba2e5c566",
  "difficulty": 4367602799387,
  "gasLimit": {
    "_hex": "0x2fefd8"
  },
  "gasUsed": {
    "_hex": "0x5208"
  },
  "miner": "0xbb7B8287f3F0a933474a79eAe42CBCa977791171",
  "extraData": "0x476574682f4c5649562f76312e302e312f6c696e75782f676f312e342e32",
  "transactions": [
    {
      "hash": "0xbf8dde1eca31fdf08d02b9216cec31466b652bc7d8ca3dcddc2da8b4a0a4e4e7",
      "blockHash": "0x28dcd8ef6726e8605c3bc373d6dbeaca439d1b5cab7999692ff563955d0dca15",
      "blockNumber": 105280,
      "transactionIndex": 0,
      "confirmations": null,
      "from": "0xd3D6e9FB82542fD29eD9Ea3609891E151396B6f7",
      "gasPrice": {
        "_hex": "0xd8364fc25"
      },
      "gasLimit": {
        "_hex": "0x5208"
      },
      "to": "0x2878c60b86FBf89645547fEcFA7f74B067f32E52",
      "value": {
        "_hex": "0xde0b6b3a7640000"
      },
      "nonce": 0,
      "data": "0x",
      "r": "0x5b7ce8373e80e7121505478719db2440c4f1a48db5ae7c3cd1ee205c87bc475b",
      "s": "0x04ba1a566aafc0434ca8a309c92f9137448c1bb89636a76fffac146c42937d29",
      "v": 28,
      "creates": null,
      "raw": "0xf86c80850d8364fc25825208942878c60b86fbf89645547fecfa7f74b067f32e52880de0b6b3a7640000801ca05b7ce8373e80e7121505478719db2440c4f1a48db5ae7c3cd1ee205c87bc475ba004ba1a566aafc0434ca8a309c92f9137448c1bb89636a76fffac146c42937d29",
      "networkId": 0,
      "chainId": 0
    }
  ]
}