{
  "hash": "0xe8c8f5a436169e8fe1ed40a411d844795637174f3edcca4939db056a9d2a4f9c",
  "parentHash": "0x840d11b18be01bfd857de9976020c6aaae4bbacc23e10d0dbe1b36e4d0abbb61",
  "number": 84709,
  "timestamp": 1439553519,
  "nonce": "0x4362648641b4b7f6",
  "difficulty": 2613141748756,
  "gasLimit": {
    "_hex": "0x2fefd8"
  },
  "gasUsed": {
    "_hex": "0x1b497"
  },
  "miner": "0xe6A7a1d47ff21B6321162AEA7C6CB457D5476Bca",
  "extraData": "0x476574682f76312e302e312d38326566323666362f6c696e75782f676f312e34",
  "transactions": [
    {
      "hash": "0x37948489704669778bddb24ccc881d7d651b2bbd32647fe47cdd64c505778c32",
      "blockHash": "0xe8c8f5a436169e8fe1ed40a411d844795637174f3edcca4939db056a9d2a4f9c",
      "blockNumber": 84709,
      "transactionIndex": 0,
      "confirmations": null,
      "from": "0xe0368CB092B5D09A6Ce3adB583CC82d17E644E39",
      "gasPrice": {
        "_hex": "0xcb4962787"
      },
      "gasLimit": {
        "_hex": "0x493e0"
      },
      "to": "0xD79B4C6791784184e2755B2fC1659eaaB0f80456",
      "value": {
        "_hex": "0xde0b6b3a7640000"
      },
      "nonce": 0,
      "data": "0x8d2161860000000000000000000000000000000000000000000000000000000000000080423284cc8d0d9cb2f211db4721313573cb2fedcb21d9871f2416b73c32d385b3",
      "r": "0xf3f2a3563731aed42c47a47c15a93f2f4dc1544213f608c4dc895f5307d2a2fa",
      "s": "0x1d1c0790d66ca68dd04af7b41711fb3543560a1dee21c674caa63746a445b745",
      "v": 27,
      "creates": null,
      "raw": "0xf8b280850cb4962787830493e094d79b4c6791784184e2755b2fc1659eaab0f80456880de0b6b3a7640000b8448d2161860000000000000000000000000000000000000000000000000000000000000080423284cc8d0d9cb2f211db4721313573cb2fedcb21d9871f2416b73c32d385b31ba0f3f2a3563731aed42c47a47c15a93f2f4dc1544213f608c4dc895f5307d2a2faa01d1c0790d66ca68dd04af7b41711fb3543560a1dee21c674caa63746a445b745",
      "networkId": 0,
      "chainId": 0
    }
  ]
}