{
  "hash": "0x8b085594020a8a57300de267767be27ded283e4c587f2c036800aed395c06568",
  "parentHash": "0xf413c2295ef43ddab826d8ea35097480d150dfd41b411ce6d979f980def80557",
  "number": 90864,
  "timestamp": 1439646488,
  "nonce": "0xbcbc710d8f5ff7b5",
  "difficulty": 3414004446439,
  "gasLimit": {
    "_hex": "0x2fefd8"
  },
  "gasUsed": {
    "_hex": "0x5208"
  },
  "miner": "0xe6A7a1d47ff21B6321162AEA7C6CB457D5476Bca",
  "extraData": "0x476574682f76312e302e312d38326566323666362f6c696e75782f676f312e34",
  "transactions": [
    {
      "hash": "0xec14f66a254ed4a03fa3549411f1cc24d0df49781f096b0940e654955b6f07ad",
      "blockHash": "0x8b085594020a8a57300de267767be27ded283e4c587f2c036800aed395c06568",
      "blockNumber": 90864,
      "transactionIndex": 0,
      "confirmations": null,
      "from": "0x6896e22C387dc77Eef9566aaecbf584a65130067",
      "gasPrice": {
        "_hex": "0xd9e2870c4"
      },
      "gasLimit": {
        "_hex": "0x5208"
      },
      "to": "0x32Be343B94f860124dC4fEe278FDCBD38C102D88",
      "value": {
        "_hex": "0xddc4e7b9197dc00"
      },
      "nonce": 0,
      "data": "0x",
      "r": "0x04345a87d845198f731394d0d307af2c37a2f247aa86515eb77737601ce1e6d5",
      "s": "0x20a3056c262fae1be987d3869959a7424b0861157aa5111049b181eb69c73e87",
      "v": 27,
      "creates": null,
      "raw": "0xf86c80850d9e2870c48252089432be343b94f860124dc4fee278fdcbd38c102d88880ddc4e7b9197dc00801ba004345a87d845198f731394d0d307af2c37a2f247aa86515eb77737601ce1e6d5a020a3056c262fae1be987d3869959a7424b0861157aa5111049b181eb69c73e87",
      "networkId": 0,
      "chainId": 0
    }
  ]
}