{
  "hash": "0x0d399a99df2c8b3c3c53a2de36f693e2ae5a520f0fa2833e4ff4d1ccf199a3c6",
  "parentHash": "0xbf2d10cc6ba3fa2440a6b4bea2bc78eb17ce3a616dd5940c921e1245a44e9d03",
  "number": 58874,
  "timestamp": 1439128135,
  "nonce": "0x36edccf42a1c28b3",
  "difficulty": 1706481677320,
  "gasLimit": {
    "_hex": "0x2fefd8"
  },
  "gasUsed": {
    "_hex": "0x5208"
  },
  "miner": "0xE4BA8cF48d11D4cd54fba46C5331b5477DbF5539",
  "extraData": "0x476574682f76312e302e312f77696e646f77732f676f312e342e32",
  "transactions": [
    {
      "hash": "0xfa57dac23eb1a1a712429fed47169ccf27ad414fd476ddcff5e22dc4fe5e7732",
      "blockHash": "0x0d399a99df2c8b3c3c53a2de36f693e2ae5a520f0fa2833e4ff4d1ccf199a3c6",
      "blockNumber": 58874,
      "transactionIndex": 0,
      "confirmations": null,
      "from": "0x47ff6576639c2e94762eA5443978D7681C0E78DC",
      "gasPrice": {
        "_hex": "0xd4c8875d5"
      },
      "gasLimit": {
        "_hex": "0x5208"
      },
      "to": "0xeD17Ea8E9fd42159037deE95ea173a56c54f55ce",
      "value": {
        "_hex": "0x471fa858b9e080000"
      },
      "nonce": 13,
      "data": "0x",
      "r": "0x8dd4d27d58f949bb8eaa55d5703a314fff5b3d61786b367f6f4e77698f225d5f",
      "s": "0x46945ea6d3d9f5fadffe18e9bc58e58a46f3692208f903d59f2b0358db913f0c",
      "v": 28,
      "creates": null,
      "raw": "0xf86d0d850d4c8875d582520894ed17ea8e9fd42159037dee95ea173a56c54f55ce890471fa858b9e080000801ca08dd4d27d58f949bb8eaa55d5703a314fff5b3d61786b367f6f4e77698f225d5fa046945ea6d3d9f5fadffe18e9bc58e58a46f3692208f903d59f2b0358db913f0c",
      "networkId": 0,
      "chainId": 0
    }
  ]
}