{
  "hash": "0xe8ea721dbc797443def5fc8ed11ac98b03cc2d705610aa2997209de3b478b2af",
  "parentHash": "0x4dbb8ea2be6e101759493b07d82441385ee6ca1637b537a93161b556b8207a29",
  "number": 88440,
  "timestamp": 1439607938,
  "nonce": "0x04e7f2121163100e",
  "difficulty": 3230092657105,
  "gasLimit": {
    "_hex": "0x2fefd8"
  },
  "gasUsed": {
    "_hex": "0x2a20"
  },
  "miner": "0xa50ec0D39fa913E62f1Bae7074E6F36caA71855b",
  "extraData": "0xd783010001844765746887676f312e342e32856c696e7578",
  "transactions": [
    {
      "hash": "0x839cf634b9bb4780052910017e9121283a99eeb47d3bb1e96d4aabc897ecda48",
      "blockHash": "0xe8ea721dbc797443def5fc8ed11ac98b03cc2d705610aa2997209de3b478b2af",
      "blockNumber": 88440,
      "transactionIndex": 0,
      "confirmations": null,
      "from": "0x5e0320BB4D82AB8Bb5d7291f2C67D1c99aBb3C05",
      "gasPrice": {
        "_hex": "0xd298e2e05"
      },
      "gasLimit": {
        "_hex": "0x15f90"
      },
      "to": "0xCdD1f57f5513918999e308E5d223Dc4745615c1B",
      "value": {
        "_hex": "0x0"
      },
      "nonce": 5,
      "data": "0x41c0e1b5",
      "r": "0xc0ce1649c40745d7e4c5c2fd638b105615f5f72e4ece331b4838fa5a96556ec6",
      "s": "0x1054a778f800b0e18a699092b5467733235e64b97b3c392ea99e507e0c0b1e20",
      "v": 27,
      "creates": null,
      "raw": "0xf86905850d298e2e0583015f9094cdd1f57f5513918999e308e5d223dc4745615c1b808441c0e1b51ba0c0ce1649c40745d7e4c5c2fd638b105615f5f72e4ece331b4838fa5a96556ec6a01054a778f800b0e18a699092b5467733235e64b97b3c392ea99e507e0c0b1e20",
      "networkId": 0,
      "chainId": 0
    }
  ]
}