{
  "hash": "0x40838b115cd892a8f1c60dc3fa744be293a0ac1345d9f356079cfa1881c0a429",
  "parentHash": "0xa2dd707c1976d5a138793192aacf9349919e8c72aa8a7c8fa321b358c346c90a",
  "number": 69243,
  "timestamp": 1439300491,
  "nonce": "0xcd0cd53e5eeeb6fd",
  "difficulty": 2066939022990,
  "gasLimit": {
    "_hex": "0x2fefd8"
  },
  "gasUsed": {
    "_hex": "0xa5ec"
  },
  "miner": "0xC13Dad778D7BcE116BD97f744625D57f7124c38A",
  "extraData": "0x476574682f76312e302e312f6c696e75782f676f312e342e32",
  "transactions": [
    {
      "hash": "0x572f8fc56eaf1038c2319c94a19572dd71c1ecce15b1b6a3c924f990d07a98f8",
      "blockHash": "0x40838b115cd892a8f1c60dc3fa744be293a0ac1345d9f356079cfa1881c0a429",
      "blockNumber": 69243,
      "transactionIndex": 0,
      "confirmations": null,
      "from": "0x472F4E6077a466Ce29EC5c633db8a2B0728a342e",
      "gasPrice": {
        "_hex": "0xd641f460d"
      },
      "gasLimit": {
        "_hex": "0x15f90"
      },
      "to": "0xC25f24A505b8fEF751D8f4FCc397651001F7a160",
      "value": {
        "_hex": "0x33e7262f43f60000"
      },
      "nonce": 0,
      "data": "0x",
      "r": "0x5d5dd85a7b70bf04823a446598708e7d161b49344655f3d9d180f6707c470913",
      "s": "0x3fbad2cdada0c2058f8248280fae572e7dadfd5f7bee2a678fd128fd4da6d39e",
      "v": 27,
      "creates": null,
      "raw": "0xf86d80850d641f460d83015f9094c25f24a505b8fef751d8f4fcc397651001f7a1608833e7262f43f60000801ba05d5dd85a7b70bf04823a446598708e7d161b49344655f3d9d180f6707c470913a03fbad2cdada0c2058f8248280fae572e7dadfd5f7bee2a678fd128fd4da6d39e",
      "networkId": 0,
      "chainId": 0
    },
    {
      "hash": "0xe1d358ea10c751bdb52c0c65eb79bfb8bc92b186e929e6c66f178b535c5dd838",
      "blockHash": "0x40838b115cd892a8f1c60dc3fa744be293a0ac1345d9f356079cfa1881c0a429",
      "blockNumber": 69243,
      "transactionIndex": 1,
      "confirmations": null,
      "from": "0x0a3DE155d5Ecd8E81C1Ff9BBF0378301f8d4C623",
      "gasPrice": {
        "_hex": "0xd03b5b200"
      },
      "gasLimit": {
        "_hex": "0x55f0"
      },
      "to": "0xB2423E4Aeca605283fA6a9CAab01325d1C71CA7D",
      "value": {
        "_hex": "0x16345785d8a0000"
      },
      "nonce": 5,
      "data": "0x676f617447656e",
      "r": "0x556e41dfcc505ad55bfb263d92c4ff1fce0171587f4105bd906f020ba2e2f538",
      "s": "0x1ee9f72cec4ab4abe67dd4017913f497ed02e7e7b62bd774a5597199a6097e14",
      "v": 28,
      "creates": null,
      "raw": "0xf87305850d03b5b2008255f094b2423e4aeca605283fa6a9caab01325d1c71ca7d88016345785d8a000087676f617447656e1ca0556e41dfcc505ad55bfb263d92c4ff1fce0171587f4105bd906f020ba2e2f538a01ee9f72cec4ab4abe67dd4017913f497ed02e7e7b62bd774a5597199a6097e14",
      "networkId": 0,
      "chainId": 0
    }
  ]
}