{
  "hash": "0x08219b3dda75f1d291454c3a667542c8c1aad9ad55dc9d711857506adf7a4ab7",
  "parentHash": "0xd543f7e999b4e410732784c8309d22bb538cb88a84c5b5086512b92c142f6a36",
  "number": 76613,
  "timestamp": 1439423305,
  "nonce": "0x9911761651d32f32",
  "difficulty": 2246053304416,
  "gasLimit": {
    "_hex": "0x2fefd8"
  },
  "gasUsed": {
    "_hex": "0x5208"
  },
  "miner": "0xf8E0CA3Ed80bd541b94BEdCf259e8CF2141A9523",
  "extraData": "0x476574682f76312e302e312f77696e646f77732f676f312e342e32",
  "transactions": [
    {
      "hash": "0x257b3a060e636013765f1dc3628106b96cf49375e132ea4055645754300f7749",
      "blockHash": "0x08219b3dda75f1d291454c3a667542c8c1aad9ad55dc9d711857506adf7a4ab7",
      "blockNumber": 76613,
      "transactionIndex": 0,
      "confirmations": null,
      "from": "0x2910543Af39abA0Cd09dBb2D50200b3E800A63D2",
      "gasPrice": {
        "_hex": "0xdcb1c8347"
      },
      "gasLimit": {
        "_hex": "0x5208"
      },
      "to": "0x8dB8F218CeD465C5458C6b7fc56AEa358ec27997",
      "value": {
        "_hex": "0x1088a7e89136438000"
      },
      "nonce": 328,
      "data": "0x",
      "r": "0x5e63ec29138bdd6815b4ccc42894a08a83360846ef6197052651c90daefb0e8c",
      "s": "0x178a291ffed622fa5687ae02cc095b5fc35c5fbf6c367433ec62b66004350531",
      "v": 28,
      "creates": null,
      "raw": "0xf86f820148850dcb1c8347825208948db8f218ced465c5458c6b7fc56aea358ec27997891088a7e89136438000801ca05e63ec29138bdd6815b4ccc42894a08a83360846ef6197052651c90daefb0e8ca0178a291ffed622fa5687ae02cc095b5fc35c5fbf6c367433ec62b66004350531",
      "networkId": 0,
      "chainId": 0
    }
  ]
}