{
  "hash": "0x158356401879c88c675f15c96f0be4a89566d7309e981db2c29765e5471237a0",
  "parentHash": "0x54a6c2bfc4fde07f69ee8a96f4875795c8d2328aef5153c4a8d22cb041083106",
  "number": 87472,
  "timestamp": 1439592681,
  "nonce": "0xc1481bb6f871b08c",
  "difficulty": 3137195790400,
  "gasLimit": {
    "_hex": "0x2fefd8"
  },
  "gasUsed": {
    "_hex": "0xe256"
  },
  "miner": "0x55bAf64fc9eAccFFd7Cc643BB61142E1C6ac093e",
  "extraData": "0x",
  "transactions": [
    {
      "hash": "0x0d51875fa7cd947c3f081ece966dc5bdc380fa2febaf9e8acc2ff609e7a1bd11",
      "blockHash": "0x158356401879c88c675f15c96f0be4a89566d7309e981db2c29765e5471237a0",
      "blockNumber": 87472,
      "transactionIndex": 0,
      "confirmations": null,
      "from": "0xFBb1b73C4f0BDa4f67dcA266ce6Ef42f520fBB98",
      "gasPrice": {
        "_hex": "0xdfd7c197e"
      },
      "gasLimit": {
        "_hex": "0x15f90"
      },
      "to": "0xCAc7000C7dBaa2E33Af15325AF5D435E011C7BdD",
      "value": {
        "_hex": "0x0"
      },
      "nonce": 34,
      "data": "0x3feb1bd842495454524558303000000000000000000000000000000000000000000000000000000000000000000000006c26a66f05426f23e15b992c6ece6e01aa9c253a000000000000000000000000000000000000000000000056eed888e928241400",
      "r": "0xb92149baf7f5b02a1a7babd0d8086e001a6518cfba2e38d3b250464dc00b9325",
      "s": "0x75330f61948551db5a672f80b2fc8198672aac301659f57d30357dd758b77559",
      "v": 27,
      "creates": null,
      "raw": "0xf8ca22850dfd7c197e83015f9094cac7000c7dbaa2e33af15325af5d435e011c7bdd80b8643feb1bd842495454524558303000000000000000000000000000000000000000000000000000000000000000000000006c26a66f05426f23e15b992c6ece6e01aa9c253a000000000000000000000000000000000000000000000056eed888e9282414001ba0b92149baf7f5b02a1a7babd0d8086e001a6518cfba2e38d3b250464dc00b9325a075330f61948551db5a672f80b2fc8198672aac301659f57d30357dd758b77559",
      "networkId": 0,
      "chainId": 0
    }
  ]
}