{
  "hash": "0xabf67f3e538ac4ac8cce1657970cf34fca9a353de07abb8ef0586cc5c65067e9",
  "parentHash": "0x49a831a59bb616bef840bd53281f155ce7e2e9c25665775270f589920d55c9c4",
  "number": 52555,
  "timestamp": 1439023432,
  "nonce": "0x978c6fb9f560f2cf",
  "difficulty": 1567901044232,
  "gasLimit": {
    "_hex": "0x1562df"
  },
  "gasUsed": {
    "_hex": "0xf4240"
  },
  "miner": "0xf8E0CA3Ed80bd541b94BEdCf259e8CF2141A9523",
  "extraData": "0x476574682f76312e302e312f77696e646f77732f676f312e342e32",
  "transactions": [
    {
      "hash": "0xed8e7b4585ce57c930fb33b64e70431487b91d5cfc1aac4f76d5ca0a2faf21e7",
      "blockHash": "0xabf67f3e538ac4ac8cce1657970cf34fca9a353de07abb8ef0586cc5c65067e9",
      "blockNumber": 52555,
      "transactionIndex": 0,
      "confirmations": null,
      "from": "0x54dAeb3E8a6BBC797E4aD2b0339f134b186e4637",
      "gasPrice": {
        "_hex": "0xe7d27df17"
      },
      "gasLimit": {
        "_hex": "0x7a120"
      },
      "to": "0xBAA54d6E90c3F4d7Ebec11bD180134C7eD8eBb52",
      "value": {
        "_hex": "0x16345785d8a0000"
      },
      "nonce": 713,
      "data": "0x",
      "r": "0x49fddd61ffe761fc975d2fb26fd99147077084504d47d40dafc436c85df851a7",
      "s": "0x48d8e5061a1d7067bfdd6b3576ce09e11a4a986d90ef42f619a9171a8aba205e",
      "v": 27,
      "creates": null,
      "raw": "0xf86f8202c9850e7d27df178307a12094baa54d6e90c3f4d7ebec11bd180134c7ed8ebb5288016345785d8a0000801ba049fddd61ffe761fc975d2fb26fd99147077084504d47d40dafc436c85df851a7a048d8e5061a1d7067bfdd6b3576ce09e11a4a986d90ef42f619a9171a8aba205e",
      "networkId": 0,
      "chainId": 0
    },
    {
      "hash": "0xd608debc74be0d47396cd0e6a70ce9d35900f8a19191dc5c294d0f1790183439",
      "blockHash": "0xabf67f3e538ac4ac8cce1657970cf34fca9a353de07abb8ef0586cc5c65067e9",
      "blockNumber": 52555,
      "transactionIndex": 1,
      "confirmations": null,
      "from": "0x54dAeb3E8a6BBC797E4aD2b0339f134b186e4637",
      "gasPrice": {
        "_hex": "0xe7d27df17"
      },
      "gasLimit": {
        "_hex": "0x7a120"
      },
      "to": "0xBAA54d6E90c3F4d7Ebec11bD180134C7eD8eBb52",
      "value": {
        "_hex": "0x16345785d8a0000"
      },
      "nonce": 714,
      "data": "0x",
      "r": "0x24d274a9d89d79d3793424f3703328b18a6f43473593a9f287ad6c0b40f94ce2",
      "s": "0x7a904f4aae40fc28e4ff38e1eeed8681fe1f035d9f12548df974df7373a338b4",
      "v": 28,
      "creates": null,
      "raw": "0xf86f8202ca850e7d27df178307a12094baa54d6e90c3f4d7ebec11bd180134c7ed8ebb5288016345785d8a0000801ca024d274a9d89d79d3793424f3703328b18a6f43473593a9f287ad6c0b40f94ce2a07a904f4aae40fc28e4ff38e1eeed8681fe1f035d9f12548df974df7373a338b4",
      "networkId": 0,
      "chainId": 0
    }
  ]
}