{
  "hash": "0x75651deae92fcc5497fe63f105ac1dd99fe976cf1fe799e93fce381f2ef9c445",
  "parentHash": "0x13aeac9255f66cfc6352930d4ef6de346866b8c3e974cb15432db2ffe0704536",
  "number": 91173,
  "timestamp": 1439651533,
  "nonce": "0xd919cb4b80499b05",
  "difficulty": 3438974479242,
  "gasLimit": {
    "_hex": "0x2fefd8"
  },
  "gasUsed": {
    "_hex": "0x5208"
  },
  "miner": "0xf927a40C8B7F6E07c5af7FA2155B4864a4112B13",
  "extraData": "0x",
  "transactions": [
    {
      "hash": "0xe1ce834fa32b476d7dd66d5407ee7a26214db3f4aadbb4982c1dca7de75b66b2",
      "blockHash": "0x75651deae92fcc5497fe63f105ac1dd99fe976cf1fe799e93fce381f2ef9c445",
      "blockNumber": 91173,
      "transactionIndex": 0,
      "confirmations": null,
      "from": "0xDA4E0Ba268486216E0B3Ad5ccEAa1E7EdB1C2751",
      "gasPrice": {
        "_hex": "0xd0982747e"
      },
      "gasLimit": {
        "_hex": "0x5208"
      },
      "to": "0x32Be343B94f860124dC4fEe278FDCBD38C102D88",
      "value": {
        "_hex": "0xc721384f0feef000"
      },
      "nonce": 6,
      "data": "0x",
      "r": "0xc2b5fb34df70acf54b1368681e691034a769fa442f2056f66c53ba197de0ca25",
      "s": "0x5c8aa034f899bdfe27aaa7773882d2c5af4bf550f701eebed9e61bb61b825499",
      "v": 28,
      "creates": null,
      "raw": "0xf86c06850d0982747e8252089432be343b94f860124dc4fee278fdcbd38c102d8888c721384f0feef000801ca0c2b5fb34df70acf54b1368681e691034a769fa442f2056f66c53ba197de0ca25a05c8aa034f899bdfe27aaa7773882d2c5af4bf550f701eebed9e61bb61b825499",
      "networkId": 0,
      "chainId": 0
    }
  ]
}