{
  "hash": "0x706e260cdd6ff70dc005166be31cb1ffe5f1bceda3e3400645a22eeef56c72f2",
  "parentHash": "0x2fa3453c67ef303798537d6605f10b1771f1017c6a3061be360e7f532a8a75c0",
  "number": 88645,
  "timestamp": 1439611163,
  "nonce": "0x52708f6f619753d6",
  "difficulty": 3241072697044,
  "gasLimit": {
    "_hex": "0x2fefd8"
  },
  "gasUsed": {
    "_hex": "0xa410"
  },
  "miner": "0xe6A7a1d47ff21B6321162AEA7C6CB457D5476Bca",
  "extraData": "0x476574682f76312e302e312d38326566323666362f6c696e75782f676f312e34",
  "transactions": [
    {
      "hash": "0xd6310dd0980e711ea94dc5b47ccce8a21be34ad26414ae115ce3fc9c4271a5d0",
      "blockHash": "0x706e260cdd6ff70dc005166be31cb1ffe5f1bceda3e3400645a22eeef56c72f2",
      "blockNumber": 88645,
      "transactionIndex": 0,
      "confirmations": null,
      "from": "0x6e6bD2E762ecBa2B68ddB39b05916A9531AA0EA6",
      "gasPrice": {
        "_hex": "0xd41984d93"
      },
      "gasLimit": {
        "_hex": "0x5208"
      },
      "to": "0x32Be343B94f860124dC4fEe278FDCBD38C102D88",
      "value": {
        "_hex": "0x6c6b8f1c1e1bc40000"
      },
      "nonce": 3,
      "data": "0x",
      "r": "0xd8c138caa2bfb198b87ca3d046e6050579216a2bacd6f40eed99382c3d8c31f7",
      "s": "0x7af01db936b20e2cc086dbf47776fc9c888e29417aa2ba8a8a79aab96b084509",
      "v": 27,
      "creates": null,
      "raw": "0xf86d03850d41984d938252089432be343b94f860124dc4fee278fdcbd38c102d88896c6b8f1c1e1bc40000801ba0d8c138caa2bfb198b87ca3d046e6050579216a2bacd6f40eed99382c3d8c31f7a07af01db936b20e2cc086dbf47776fc9c888e29417aa2ba8a8a79aab96b084509",
      "networkId": 0,
      "chainId": 0
    },
    {
      "hash": "0xbe2fe10f9243fcb3977847c4ab26b1804d18ee6bb02a929e966613e88158d45f",
      "blockHash": "0x706e260cdd6ff70dc005166be31cb1ffe5f1bceda3e3400645a22eeef56c72f2",
      "blockNumber": 88645,
      "transactionIndex": 1,
      "confirmations": null,
      "from": "0x95C5717Afc281AFf43f3D7535Ab579925534aeA8",
      "gasPrice": {
        "_hex": "0xd3d37f23a"
      },
      "gasLimit": {
        "_hex": "0x15f90"
      },
      "to": "0xE510d6797FBA3d6693835a844ea2AD540691971b",
      "value": {
        "_hex": "0x1"
      },
      "nonce": 0,
      "data": "0x",
      "r": "0xcba7ff211a4aa3d9ce8b0727639189c17d20fa0a31fc4197e72526b90e7d6a0a",
      "s": "0x2294c06d9af170f39b7cef66c1b62d495eb18a593427f487acc208d527563e65",
      "v": 28,
      "creates": null,
      "raw": "0xf86580850d3d37f23a83015f9094e510d6797fba3d6693835a844ea2ad540691971b01801ca0cba7ff211a4aa3d9ce8b0727639189c17d20fa0a31fc4197e72526b90e7d6a0aa02294c06d9af170f39b7cef66c1b62d495eb18a593427f487acc208d527563e65",
      "networkId": 0,
      "chainId": 0
    }
  ]
}