{
  "hash": "0xda358dd2f8693417276caa281060771666dd5e07a429d65ca4251b77de4f47fe",
  "parentHash": "0x91f7b18950e02e2aa37156e078d3efb5bc1d5682b50827a84cff0f3e91dd8cd8",
  "number": 97017,
  "timestamp": 1439749507,
  "nonce": "0x8c7d2891305776e7",
  "difficulty": 3744972066514,
  "gasLimit": {
    "_hex": "0x2fefd8"
  },
  "gasUsed": {
    "_hex": "0x5208"
  },
  "miner": "0xe6A7a1d47ff21B6321162AEA7C6CB457D5476Bca",
  "extraData": "0x476574682f76312e302e312d38326566323666362f6c696e75782f676f312e34",
  "transactions": [
    {
      "hash": "0x766990ebfb053f38d1e935efe8c1c99696433b9a451a52e00385d06d47aca0e5",
      "blockHash": "0xda358dd2f8693417276caa281060771666dd5e07a429d65ca4251b77de4f47fe",
      "blockNumber": 97017,
      "transactionIndex": 0,
      "confirmations": null,
      "from": "0xa40849B05E19dB7B487f912660f8143178FCE1bA",
      "gasPrice": {
        "_hex": "0xba43b7400"
      },
      "gasLimit": {
        "_hex": "0x5208"
      },
      "to": "0xC47Aaa860008be6f65B58c6C6E02a84e666EfE31",
      "value": {
        "_hex": "0x3e6f7b30443e38f0"
      },
      "nonce": 0,
      "data": "0x",
      "r": "0x0463a7626fc945419cb555bac7afa68bd9fb3226cd240bcf5ec3e61e6756a770",
      "s": "0x64cf2661b795e7e804408004a1d2e771b2fe810c3d2bb543a2bb6aa4b40b92d5",
      "v": 28,
      "creates": null,
      "raw": "0xf86c80850ba43b740082520894c47aaa860008be6f65b58c6c6e02a84e666efe31883e6f7b30443e38f0801ca00463a7626fc945419cb555bac7afa68bd9fb3226cd240bcf5ec3e61e6756a770a064cf2661b795e7e804408004a1d2e771b2fe810c3d2bb543a2bb6aa4b40b92d5",
      "networkId": 0,
      "chainId": 0
    }
  ]
}