{
  "hash": "0xe4ef3f75d9500fb3835bd43ef0349b8799f7505cea2e84e1148deab1aca73e9b",
  "parentHash": "0x4762e71014e3d6f3142fbe24bac9a86b1315284bba060779a502dc0f898d14d5",
  "number": 80682,
  "timestamp": 1439489144,
  "nonce": "0x1281982ef3652be5",
  "difficulty": 2438075659923,
  "gasLimit": {
    "_hex": "0x2fefd8"
  },
  "gasUsed": {
    "_hex": "0x2409c"
  },
  "miner": "0x9D02944DC5BcA42f6e768F605C55194c8eBeE4D4",
  "extraData": "0x",
  "transactions": [
    {
      "hash": "0x659ebcfe4d8e09ff43104be2c929de0ba64aba2e6e93c116c5396d3fd9343aa4",
      "blockHash": "0xe4ef3f75d9500fb3835bd43ef0349b8799f7505cea2e84e1148deab1aca73e9b",
      "blockNumber": 80682,
      "transactionIndex": 0,
      "confirmations": null,
      "from": "0x8c1571F5e9fFff7D31C2d66d3818F273813D8FdF",
      "gasPrice": {
        "_hex": "0xdb8867c86"
      },
      "gasLimit": {
        "_hex": "0x55f0"
      },
      "to": "0x2910543Af39abA0Cd09dBb2D50200b3E800A63D2",
      "value": {
        "_hex": "0x8ac7230489e80000"
      },
      "nonce": 1,
      "data": "0x454e52343442485647",
      "r": "0xd2a8f491e0374949e61d94dbb27a6f22c9dce1554d99985161c0cd1a97690dd7",
      "s": "0x12bf1873bbc0299ca700f55c49b2480efeb21e04be317c8ea1e9c70e85d0081e",
      "v": 27,
      "creates": null,
      "raw": "0xf87501850db8867c868255f0942910543af39aba0cd09dbb2d50200b3e800a63d2888ac7230489e8000089454e523434424856471ba0d2a8f491e0374949e61d94dbb27a6f22c9dce1554d99985161c0cd1a97690dd7a012bf1873bbc0299ca700f55c49b2480efeb21e04be317c8ea1e9c70e85d0081e",
      "networkId": 0,
      "chainId": 0
    },
    {
      "hash": "0x4444abd5744971b2dec7d5684d4f21cbbd8e9ca3377be2ae73c043d70121592e",
      "blockHash": "0xe4ef3f75d9500fb3835bd43ef0349b8799f7505cea2e84e1148deab1aca73e9b",
      "blockNumber": 80682,
      "transactionIndex": 1,
      "confirmations": null,
      "from": "0xdF938BF4cded288d831F5d003B3921d61BD6E329",
      "gasPrice": {
        "_hex": "0xba43b7400"
      },
      "gasLimit": {
        "_hex": "0x5208"
      },
      "to": "0xC47Aaa860008be6f65B58c6C6E02a84e666EfE31",
      "value": {
        "_hex": "0x56bb1dfbbfe2be000"
      },
      "nonce": 0,
      "data": "0x",
      "r": "0xd7d2fc33c3857ffacc710b9ae98bee0247f255421be3668ee4158003e407e0a6",
      "s": "0x3d1acf687d9709f5f2d0a4e866d5538f805ce67fe96b222cd5c91d1c91f481e7",
      "v": 28,
      "creates": null,
      "raw": "0xf86d80850ba43b740082520894c47aaa860008be6f65b58c6c6e02a84e666efe3189056bb1dfbbfe2be000801ca0d7d2fc33c3857ffacc710b9ae98bee0247f255421be3668ee4158003e407e0a6a03d1acf687d9709f5f2d0a4e866d5538f805ce67fe96b222cd5c91d1c91f481e7",
      "networkId": 0,
      "chainId": 0
    },
    {
      "hash": "0x65eab3f88c77b87f7826b51baa6b587905f85f7543a59c82ae67622b9db7593c",
      "blockHash": "0xe4ef3f75d9500fb3835bd43ef0349b8799f7505cea2e84e1148deab1aca73e9b",
      "blockNumber": 80682,
      "transactionIndex": 2,
      "confirmations": null,
      "from": "0x95D26518548e038C30909c1B24E95c7Cb9CDbFd9",
      "gasPrice": {
        "_hex": "0xba43b7400"
      },
      "gasLimit": {
        "_hex": "0x5208"
      },
      "to": "0xC47Aaa860008be6f65B58c6C6E02a84e666EfE31",
      "value": {
        "_hex": "0x11567041e76fc1dc0"
      },
      "nonce": 2,
      "data": "0x",
      "r": "0xc7acb6021834c66ccfa4bb807f1804ab1d6a2b90ee092485e40ff229baa12864",
      "s": "0x4a9d9d0aca496fc3911d1f56779a8c4768c754cf1f5d58a5f133712b1a055d84",
      "v": 27,
      "creates": null,
      "raw": "0xf86d02850ba43b740082520894c47aaa860008be6f65b58c6c6e02a84e666efe3189011567041e76fc1dc0801ba0c7acb6021834c66ccfa4bb807f1804ab1d6a2b90ee092485e40ff229baa12864a04a9d9d0aca496fc3911d1f56779a8c4768c754cf1f5d58a5f133712b1a055d84",
      "networkId": 0,
      "chainId": 0
    },
    {
      "hash": "0xd4f2723e02afeadd85cb33eb8d0fec24b094de0b4dea1d0368fc46c383bf7424",
      "blockHash": "0xe4ef3f75d9500fb3835bd43ef0349b8799f7505cea2e84e1148deab1aca73e9b",
      "blockNumber": 80682,
      "transactionIndex": 3,
      "confirmations": null,
      "from": "0x95D26518548e038C30909c1B24E95c7Cb9CDbFd9",
      "gasPrice": {
        "_hex": "0xba43b7400"
      },
      "gasLimit": {
        "_hex": "0x5208"
      },
      "to": "0xC47Aaa860008be6f65B58c6C6E02a84e666EfE31",
      "value": {
        "_hex": "0x11567041e76fc1dc0"
      },
      "nonce": 3,
      "data": "0x",
      "r": "0xa2f22c81f8eddb394c8edc2594292afe4e39cbf7130f517e3ef028cbfb0e07a4",
      "s": "0x22ccf48ed4652c598543e132bb897234ae29f6d0b24c8fbc0a1c81c30c502aff",
      "v": 28,
      "creates": null,
      "raw": "0xf86d03850ba43b740082520894c47aaa860008be6f65b58c6c6e02a84e666efe3189011567041e76fc1dc0801ca0a2f22c81f8eddb394c8edc2594292afe4e39cbf7130f517e3ef028cbfb0e07a4a022ccf48ed4652c598543e132bb897234ae29f6d0b24c8fbc0a1c81c30c502aff",
      "networkId": 0,
      "chainId": 0
    },
    {
      "hash": "0xb30d1e076ab7633aa0c8f81cbeac4aab2b2faa4507ba5b641fda4da738b949cf",
      "blockHash": "0xe4ef3f75d9500fb3835bd43ef0349b8799f7505cea2e84e1148deab1aca73e9b",
      "blockNumber": 80682,
      "transactionIndex": 4,
      "confirmations": null,
      "from": "0x28d29032c771EB357D52FA3F510824EF8E8E2513",
      "gasPrice": {
        "_hex": "0xba43b7400"
      },
      "gasLimit": {
        "_hex": "0x5208"
      },
      "to": "0xC47Aaa860008be6f65B58c6C6E02a84e666EfE31",
      "value": {
        "_hex": "0x8a9fe119ed236000"
      },
      "nonce": 1,
      "data": "0x",
      "r": "0x6ecd2a1ad11238667874b6671e8a40528e3dfd43c0892e949fd933ece3e71229",
      "s": "0x3d932018edd46e2adf7ac7ed30e7798a56c6af916ff95eeeaea82cb3a10346d9",
      "v": 27,
      "creates": null,
      "raw": "0xf86c01850ba43b740082520894c47aaa860008be6f65b58c6c6e02a84e666efe31888a9fe119ed236000801ba06ecd2a1ad11238667874b6671e8a40528e3dfd43c0892e949fd933ece3e71229a03d932018edd46e2adf7ac7ed30e7798a56c6af916ff95eeeaea82cb3a10346d9",
      "networkId": 0,
      "chainId": 0
    },
    {
      "hash": "0xd8050fe816fced8110613483931b808a1eac39a2321c81a3a5a007ade9e8897c",
      "blockHash": "0xe4ef3f75d9500fb3835bd43ef0349b8799f7505cea2e84e1148deab1aca73e9b",
      "blockNumber": 80682,
      "transactionIndex": 5,
      "confirmations": null,
      "from": "0x28d29032c771EB357D52FA3F510824EF8E8E2513",
      "gasPrice": {
        "_hex": "0xba43b7400"
      },
      "gasLimit": {
        "_hex": "0x5208"
      },
      "to": "0xC47Aaa860008be6f65B58c6C6E02a84e666EfE31",
      "value": {
        "_hex": "0x8a9fe119ed236000"
      },
      "nonce": 2,
      "data": "0x",
      "r": "0x72cd39b518dd6438e0d72d41a4f503fe9e30a75a93b1bf5a141f9c1254ba8df9",
      "s": "0x3327aca1f414e7335e8f84601c4db101603a294f86ee1d94ade90130c52c4b08",
      "v": 27,
      "creates": null,
      "raw": "0xf86c02850ba43b740082520894c47aaa860008be6f65b58c6c6e02a84e666efe31888a9fe119ed236000801ba072cd39b518dd6438e0d72d41a4f503fe9e30a75a93b1bf5a141f9c1254ba8df9a03327aca1f414e7335e8f84601c4db101603a294f86ee1d94ade90130c52c4b08",
      "networkId": 0,
      "chainId": 0
    },
    {
      "hash": "0xe2be5759133beb4cab2bc9608899fadf58500f205b37ce2cf19be1efaad9ce92",
      "blockHash": "0xe4ef3f75d9500fb3835bd43ef0349b8799f7505cea2e84e1148deab1aca73e9b",
      "blockNumber": 80682,
      "transactionIndex": 6,
      "confirmations": null,
      "from": "0xB96bD01B0eA32fd247336E98754f5D9B2D73d33E",
      "gasPrice": {
        "_hex": "0xba43b7400"
      },
      "gasLimit": {
        "_hex": "0x5208"
      },
      "to": "0xC47Aaa860008be6f65B58c6C6E02a84e666EfE31",
      "value": {
        "_hex": "0x15aca95a0bbf01dc0"
      },
      "nonce": 0,
      "data": "0x",
      "r": "0x1d38498b55ab91c5bf16ad86aa60cf339b1101dada36c95a85606bd108c75000",
      "s": "0x3e45301c9a53414bd4ba92e12ce4f3efcd5b755709800dc6fbdf2de11fe0741c",
      "v": 27,
      "creates": null,
      "raw": "0xf86d80850ba43b740082520894c47aaa860008be6f65b58c6c6e02a84e666efe3189015aca95a0bbf01dc0801ba01d38498b55ab91c5bf16ad86aa60cf339b1101dada36c95a85606bd108c75000a03e45301c9a53414bd4ba92e12ce4f3efcd5b755709800dc6fbdf2de11fe0741c",
      "networkId": 0,
      "chainId": 0
    }
  ]
}