{
  "hash": "0x764373bb6fdc42896bb4c63889df81a6ffe5c069f5f560931d4ca8cd29d91854",
  "parentHash": "0x8b61fde6d78a3c98c2fbe50e1612ca7f4faab144a8fcbbb1c4fb3c0bfa7c754a",
  "number": 84781,
  "timestamp": 1439554537,
  "nonce": "0x0cde647b112278e6",
  "difficulty": 2623346780730,
  "gasLimit": {
    "_hex": "0x2fefd8"
  },
  "gasUsed": {
    "_hex": "0x546c"
  },
  "miner": "0xa70a9a7040d542C632D8e0bE7c5513A8a5Bbc752",
  "extraData": "0x",
  "transactions": [
    {
      "hash": "0x863e31fa514581aba2f67b4be5ecac5583f5aab7f6ebe8896765eadbfb816d8a",
      "blockHash": "0x764373bb6fdc42896bb4c63889df81a6ffe5c069f5f560931d4ca8cd29d91854",
      "blockNumber": 84781,
      "transactionIndex": 0,
      "confirmations": null,
      "from": "0xa106e6923EDD53Ca8ed650968A9108D6Ccfd9670",
      "gasPrice": {
        "_hex": "0x110c8f7d8de"
      },
      "gasLimit": {
        "_hex": "0xc350"
      },
      "to": "0x2910543Af39abA0Cd09dBb2D50200b3E800A63D2",
      "value": {
        "_hex": "0x202f11b3c241b8c0000"
      },
      "nonce": 0,
      "data": "0x454e39503133365030",
      "r": "0xa7dc41e08622254185b4c506a1aea429bf800b84bc6e3762334be40095acf38e",
      "s": "0xc46fed4ebcb0c903cb8c7341192afec37aab2408faef6ad86502021709d83454",
      "v": 27,
      "creates": null,
      "raw": "0xf87880860110c8f7d8de82c350942910543af39aba0cd09dbb2d50200b3e800a63d28a0202f11b3c241b8c000089454e395031333650301ba0a7dc41e08622254185b4c506a1aea429bf800b84bc6e3762334be40095acf38ea0c46fed4ebcb0c903cb8c7341192afec37aab2408faef6ad86502021709d83454",
      "networkId": 0,
      "chainId": 0
    }
  ]
}