{
  "hash": "0x675bab8ef9ce4c671f3a48456f238dff2c36e1252b4a3c471a6ea9a8648504fa",
  "parentHash": "0x1caec2fba038e8241bb18f7130b54bd0823813e157a010276b9742dce470ad10",
  "number": 47481,
  "timestamp": 1438941298,
  "nonce": "0x3e9ce42d492b3c44",
  "difficulty": 1446704172075,
  "gasLimit": {
    "_hex": "0xc400"
  },
  "gasUsed": {
    "_hex": "0x5208"
  },
  "miner": "0xf8E0CA3Ed80bd541b94BEdCf259e8CF2141A9523",
  "extraData": "0x476574682f76312e302e312f77696e646f77732f676f312e342e32",
  "transactions": [
    {
      "hash": "0x5929c26f565974a900d94e6508dc7cad91c0f9a4783a42d0bc555b24e468a148",
      "blockHash": "0x675bab8ef9ce4c671f3a48456f238dff2c36e1252b4a3c471a6ea9a8648504fa",
      "blockNumber": 47481,
      "transactionIndex": 0,
      "confirmations": null,
      "from": "0x02E816AFC1b5C0f39852131959D946eb3b07b5ad",
      "gasPrice": {
        "_hex": "0x16362c1c68"
      },
      "gasLimit": {
        "_hex": "0x5208"
      },
      "to": "0xCdA0AD7542e30BF520652A05056eBe0105c7e49A",
      "value": {
        "_hex": "0x4563918244f40000"
      },
      "nonce": 0,
      "data": "0x",
      "r": "0x923f9fa4841ccb5af103c05bb86a3d789ea236c9db02ab9fd0986eb800027162",
      "s": "0x180dc5268d976bf8a70991c60e828d2e18dbf35265f305ea9cca9996f85b1f0f",
      "v": 27,
      "creates": null,
      "raw": "0xf86c808516362c1c6882520894cda0ad7542e30bf520652a05056ebe0105c7e49a884563918244f40000801ba0923f9fa4841ccb5af103c05bb86a3d789ea236c9db02ab9fd0986eb800027162a0180dc5268d976bf8a70991c60e828d2e18dbf35265f305ea9cca9996f85b1f0f",
      "networkId": 0,
      "chainId": 0
    }
  ]
}