{
  "hash": "0x0bc868e4714797e5bbbed344085a192f8ba089104c557f1810c3632369b43fc5",
  "parentHash": "0x49e02b5216081917e32c0fbc3e0773c1e4db8066f213f932924f71444dfc748b",
  "number": 94499,
  "timestamp": 1439709454,
  "nonce": "0x9fd06ddf8ac4daf8",
  "difficulty": 3481530979910,
  "gasLimit": {
    "_hex": "0x2fefd8"
  },
  "gasUsed": {
    "_hex": "0xa410"
  },
  "miner": "0x9D49F602b0fdb924Bd63DDE2Bd0907E4A07c63a7",
  "extraData": "0x476574682f76312e302e312f6c696e75782f676f312e342e32",
  "transactions": [
    {
      "hash": "0xc8551fb75b661234dba0f01691cec8c2a0d476f7d7bb5deb6c2e201f4689617d",
      "blockHash": "0x0bc868e4714797e5bbbed344085a192f8ba089104c557f1810c3632369b43fc5",
      "blockNumber": 94499,
      "transactionIndex": 0,
      "confirmations": null,
      "from": "0x835ad98Ab8AF27814f6563b3117d6B0Ab897F83b",
      "gasPrice": {
        "_hex": "0x10748051268"
      },
      "gasLimit": {
        "_hex": "0x15f90"
      },
      "to": "0x37c004E1cfDc61738ddA1284Cab255A81e2F00e1",
      "value": {
        "_hex": "0x16345785d8a0000"
      },
      "nonce": 2,
      "data": "0x",
      "r": "0xc1ad4daf073094b83703a75f0101ca25df42e7d5c38491e3054efe1ec15aa5ed",
      "s": "0x6edb837adac5a0fd2499cee1df23d519cc754c64bba374d105cbdc82613fbad8",
      "v": 27,
      "creates": null,
      "raw": "0xf86e028601074805126883015f909437c004e1cfdc61738dda1284cab255a81e2f00e188016345785d8a0000801ba0c1ad4daf073094b83703a75f0101ca25df42e7d5c38491e3054efe1ec15aa5eda06edb837adac5a0fd2499cee1df23d519cc754c64bba374d105cbdc82613fbad8",
      "networkId": 0,
      "chainId": 0
    },
    {
      "hash": "0x9827f8583d38040954731b6826d502df10ccddf8d137f49b5cdab4096ef2b8a8",
      "blockHash": "0x0bc868e4714797e5bbbed344085a192f8ba089104c557f1810c3632369b43fc5",
      "blockNumber": 94499,
      "transactionIndex": 1,
      "confirmations": null,
      "from": "0x2910543Af39abA0Cd09dBb2D50200b3E800A63D2",
      "gasPrice": {
        "_hex": "0xcb5c59310"
      },
      "gasLimit": {
        "_hex": "0x5208"
      },
      "to": "0x09D6b0F8DE057aC9116C0f321eA4017444de0801",
      "value": {
        "_hex": "0x25f261cfc47d8f8000"
      },
      "nonce": 878,
      "data": "0x",
      "r": "0x08ac495befb70a22652abab772e7994a7f9d2caa9d802da29b9667e76006e1f4",
      "s": "0x576022d76bf911a5ab5749d3ca326354b19f1e05ac27b1cc4e8509ea7c9097a3",
      "v": 27,
      "creates": null,
      "raw": "0xf86f82036e850cb5c593108252089409d6b0f8de057ac9116c0f321ea4017444de08018925f261cfc47d8f8000801ba008ac495befb70a22652abab772e7994a7f9d2caa9d802da29b9667e76006e1f4a0576022d76bf911a5ab5749d3ca326354b19f1e05ac27b1cc4e8509ea7c9097a3",
      "networkId": 0,
      "chainId": 0
    }
  ]
}