{
  "hash": "0xa5d3f351221ae8bfb3d2aaf2c456d6e3c53da3457674339d4f70f8eeb49edcd1",
  "parentHash": "0xe3faa8094047738f1277eed563a89151a7220afd31965e37761f49f75237d49d",
  "number": 57393,
  "timestamp": 1439102493,
  "nonce": "0x4264cb0d0b16e486",
  "difficulty": 1741296296984,
  "gasLimit": {
    "_hex": "0x2fefd8"
  },
  "gasUsed": {
    "_hex": "0x546c"
  },
  "miner": "0x70137010922f2fC2964b3792907F79FBB75fEbe8",
  "extraData": "0x476574682f76312e302e302f6c696e75782f676f312e342e32",
  "transactions": [
    {
      "hash": "0xc97a0e7e609cf810d7d141ca355ed00c984cc2d5aafff6a74e0cfa2ee1b99078",
      "blockHash": "0xa5d3f351221ae8bfb3d2aaf2c456d6e3c53da3457674339d4f70f8eeb49edcd1",
      "blockNumber": 57393,
      "transactionIndex": 0,
      "confirmations": null,
      "from": "0x87A53ea39F59a35badA8352521645594a1a714Cb",
      "gasPrice": {
        "_hex": "0x110c8f7d8de"
      },
      "gasLimit": {
        "_hex": "0xc350"
      },
      "to": "0x2910543Af39abA0Cd09dBb2D50200b3E800A63D2",
      "value": {
        "_hex": "0x3635c9adc5dea00000"
      },
      "nonce": 0,
      "data": "0x454e5830594d415630",
      "r": "0xa9364bde5f5d5ee4ed40769ec2c582b54a713d1bcd353e91b9684980216cbfa8",
      "s": "0x41b8ec2720382e9c32db4587209e793a778b855d6f82090f30a274abf6a526c3",
      "v": 27,
      "creates": null,
      "raw": "0xf87780860110c8f7d8de82c350942910543af39aba0cd09dbb2d50200b3e800a63d2893635c9adc5dea0000089454e5830594d4156301ba0a9364bde5f5d5ee4ed40769ec2c582b54a713d1bcd353e91b9684980216cbfa8a041b8ec2720382e9c32db4587209e793a778b855d6f82090f30a274abf6a526c3",
      "networkId": 0,
      "chainId": 0
    }
  ]
}