{
  "hash": "0xe3d2bd4eead8dd63d216f925971d9d0dfd03a7d21b8a30a8dc8781b2470e3def",
  "parentHash": "0x9f3faa8519ccf84b6d32e4a7d86a9eeaf97cff12879028f2df4952d6763f91bc",
  "number": 91860,
  "timestamp": 1439662820,
  "nonce": "0x3433d3d21ce96294",
  "difficulty": 3474134282740,
  "gasLimit": {
    "_hex": "0x2fefd8"
  },
  "gasUsed": {
    "_hex": "0x5208"
  },
  "miner": "0x458F183347F45a4001807728A89F31E9Da9D4A58",
  "extraData": "0x476574682f76312e302e312d38326566323666362f6c696e75782f676f312e34",
  "transactions": [
    {
      "hash": "0xb655df8edae0413e7bddf290ab52025235b8dde6a716bcbbd70e22067dc1ac76",
      "blockHash": "0xe3d2bd4eead8dd63d216f925971d9d0dfd03a7d21b8a30a8dc8781b2470e3def",
      "blockNumber": 91860,
      "transactionIndex": 0,
      "confirmations": null,
      "from": "0x95dF4e3445D7662624c48eba74cF9e0a53E9f732",
      "gasPrice": {
        "_hex": "0xd8364fc25"
      },
      "gasLimit": {
        "_hex": "0x5208"
      },
      "to": "0x43279854AaF8825a6d1fcCf056caF190Ab8a7b76",
      "value": {
        "_hex": "0x878678326eac900000"
      },
      "nonce": 18,
      "data": "0x",
      "r": "0x42c10628daddf3f49c2c84c8051c92bb86eb39df82d5ceb7fc08e8a11424db3b",
      "s": "0x3c1fb9d25c2c50d9bce7aa460d9d17ed0c6897ac0663f07815031f3db28508c1",
      "v": 28,
      "creates": null,
      "raw": "0xf86d12850d8364fc258252089443279854aaf8825a6d1fccf056caf190ab8a7b7689878678326eac900000801ca042c10628daddf3f49c2c84c8051c92bb86eb39df82d5ceb7fc08e8a11424db3ba03c1fb9d25c2c50d9bce7aa460d9d17ed0c6897ac0663f07815031f3db28508c1",
      "networkId": 0,
      "chainId": 0
    }
  ]
}