{
  "hash": "0xea13dfd2e0760319fa8092db0c9233c1033cfc1668015bf1872b17468ff1333c",
  "parentHash": "0xe73ec728e63809a457edb885df1ea8a4a5dfb6c52205796a81dd8b885fea76d0",
  "number": 47015,
  "timestamp": 1438933203,
  "nonce": "0xf90310771bc50d6a",
  "difficulty": 1449613053550,
  "gasLimit": {
    "_hex": "0x8f9d"
  },
  "gasUsed": {
    "_hex": "0x5208"
  },
  "miner": "0xf927a40C8B7F6E07c5af7FA2155B4864a4112B13",
  "extraData": "0x476574682f76312e302e312f6c696e75782f676f312e342e32",
  "transactions": [
    {
      "hash": "0x69dc0cdee493bc287e43142dc153d23fbe86becad095ac4f6bbcd42c947a35b3",
      "blockHash": "0xea13dfd2e0760319fa8092db0c9233c1033cfc1668015bf1872b17468ff1333c",
      "blockNumber": 47015,
      "transactionIndex": 0,
      "confirmations": null,
      "from": "0xe6A7a1d47ff21B6321162AEA7C6CB457D5476Bca",
      "gasPrice": {
        "_hex": "0xd586ce3cf"
      },
      "gasLimit": {
        "_hex": "0x5208"
      },
      "to": "0x51fb36631e0b81Cb031eb2aBd0667C5D702700de",
      "value": {
        "_hex": "0x1d0b5267df3b6c50"
      },
      "nonce": 30,
      "data": "0x",
      "r": "0xeed9e66465f449578d7c827edf105fff692015933641f98b6546ee0a118a82d7",
      "s": "0x3e19962b8b1d434df54b4495d9bcbe72e013824beb07254f53aed7a51f102509",
      "v": 28,
      "creates": null,
      "raw": "0xf86c1e850d586ce3cf8252089451fb36631e0b81cb031eb2abd0667c5d702700de881d0b5267df3b6c50801ca0eed9e66465f449578d7c827edf105fff692015933641f98b6546ee0a118a82d7a03e19962b8b1d434df54b4495d9bcbe72e013824beb07254f53aed7a51f102509",
      "networkId": 0,
      "chainId": 0
    }
  ]
}