{
  "hash": "0x7f6a4f63d50be7a8e077101bbc18a28dc4a3723ae5f00ab80eef4c661cc6bf91",
  "parentHash": "0xc8ae37e29a2fcf23bb4cd80afbb9f7f93b5ec3389d608a52eed764ffa21794a5",
  "number": 105973,
  "timestamp": 1439896551,
  "nonce": "0x378720983406f4eb",
  "difficulty": 4455553167022,
  "gasLimit": {
    "_hex": "0x2fefd8"
  },
  "gasUsed": {
    "_hex": "0xf618"
  },
  "miner": "0xe6A7a1d47ff21B6321162AEA7C6CB457D5476Bca",
  "extraData": "0x476574682f76312e302e312d38326566323666362f6c696e75782f676f312e34",
  "transactions": [
    {
      "hash": "0x3355b6f24d763700e9e961b93c24529ce93d35357d49a4f2bab6344f15d241ee",
      "blockHash": "0x7f6a4f63d50be7a8e077101bbc18a28dc4a3723ae5f00ab80eef4c661cc6bf91",
      "blockNumber": 105973,
      "transactionIndex": 0,
      "confirmations": null,
      "from": "0x63738Ec4C9adec404749B5747F3bbE2147de632F",
      "gasPrice": {
        "_hex": "0xd68a5741c"
      },
      "gasLimit": {
        "_hex": "0x15f90"
      },
      "to": "0x557C2806B6ceA65a66F415bb2Ed1ce897B340745",
      "value": {
        "_hex": "0x8ac7230489e80000"
      },
      "nonce": 46,
      "data": "0x",
      "r": "0xf291298820434ed6ecb29d522f4317fbd25a596903fcfb9e33b05090c2ae83b1",
      "s": "0x70b08ed92fc2689b771663d6f62d1de8e895773333ac55275493136fe2af88ad",
      "v": 27,
      "creates": null,
      "raw": "0xf86d2e850d68a5741c83015f9094557c2806b6cea65a66f415bb2ed1ce897b340745888ac7230489e80000801ba0f291298820434ed6ecb29d522f4317fbd25a596903fcfb9e33b05090c2ae83b1a070b08ed92fc2689b771663d6f62d1de8e895773333ac55275493136fe2af88ad",
      "networkId": 0,
      "chainId": 0
    },
    {
      "hash": "0x7877b8b3cb8091025dd661b0edc2d4dfa6f557030b7b147b6e1673ff3079881c",
      "blockHash": "0x7f6a4f63d50be7a8e077101bbc18a28dc4a3723ae5f00ab80eef4c661cc6bf91",
      "blockNumber": 105973,
      "transactionIndex": 1,
      "confirmations": null,
      "from": "0x557C2806B6ceA65a66F415bb2Ed1ce897B340745",
      "gasPrice": {
        "_hex": "0xd08fca157"
      },
      "gasLimit": {
        "_hex": "0x5208"
      },
      "to": "0x32Be343B94f860124dC4fEe278FDCBD38C102D88",
      "value": {
        "_hex": "0x2c3c043a5dd012000"
      },
      "nonce": 9,
      "data": "0x",
      "r": "0x2776bb2276f211e74e6a5e3e5de34c50f05b19045783ee7cd21470e88418e35a",
      "s": "0x03079cd3fa1a178f091c928ad4cf8114b755e78fce56a99630236b7751635ebf",
      "v": 27,
      "creates": null,
      "raw": "0xf86d09850d08fca1578252089432be343b94f860124dc4fee278fdcbd38c102d888902c3c043a5dd012000801ba02776bb2276f211e74e6a5e3e5de34c50f05b19045783ee7cd21470e88418e35aa003079cd3fa1a178f091c928ad4cf8114b755e78fce56a99630236b7751635ebf",
      "networkId": 0,
      "chainId": 0
    },
    {
      "hash": "0x976b33da5df80481921a522bfdffad36c49b11f56bf5a6414c734513b35500c8",
      "blockHash": "0x7f6a4f63d50be7a8e077101bbc18a28dc4a3723ae5f00ab80eef4c661cc6bf91",
      "blockNumber": 105973,
      "transactionIndex": 2,
      "confirmations": null,
      "from": "0x108feDb097c1DCfED441480170144D8e19BB217f",
      "gasPrice": {
        "_hex": "0xd08fca157"
      },
      "gasLimit": {
        "_hex": "0x5208"
      },
      "to": "0x32Be343B94f860124dC4fEe278FDCBD38C102D88",
      "value": {
        "_hex": "0x191acff6f9a63800"
      },
      "nonce": 5,
      "data": "0x",
      "r": "0x6fc65e9c3ca83b239bf5a92f8a116dc66c23dedc3c3a08b64781eccabd9b9adc",
      "s": "0x6a0cd4373970436b5cc348c796c91757d3ae1649c0eb04c0f413bf9bf05ae697",
      "v": 28,
      "creates": null,
      "raw": "0xf86c05850d08fca1578252089432be343b94f860124dc4fee278fdcbd38c102d8888191acff6f9a63800801ca06fc65e9c3ca83b239bf5a92f8a116dc66c23dedc3c3a08b64781eccabd9b9adca06a0cd4373970436b5cc348c796c91757d3ae1649c0eb04c0f413bf9bf05ae697",
      "networkId": 0,
      "chainId": 0
    }
  ]
}