{
  "hash": "0xec2111e1924cf4b69501f48263d1a19acd00ea0aeba1ed1c24429d913bde4572",
  "parentHash": "0xc9481227bb46d05568449de5310401633a9fb1f4ce01fbcaa21865aecc5cae8b",
  "number": 84350,
  "timestamp": 1439548457,
  "nonce": "0xb03f669fc12853b6",
  "difficulty": 2539043493370,
  "gasLimit": {
    "_hex": "0x2fefd8"
  },
  "gasUsed": {
    "_hex": "0x5208"
  },
  "miner": "0xB5EDD17d2582A94610ebf0C6832c1652EBBBe210",
  "extraData": "0x476574682f76312e302e312d38326566323666362f6c696e75782f676f312e34",
  "transactions": [
    {
      "hash": "0xcf885583fa45cc8457fab48684c04c3a5e4aa969b0fa8cbb9246c85d06d9ecf5",
      "blockHash": "0xec2111e1924cf4b69501f48263d1a19acd00ea0aeba1ed1c24429d913bde4572",
      "blockNumber": 84350,
      "transactionIndex": 0,
      "confirmations": null,
      "from": "0xa83A3BD5fBcceD1b6e82119B404769f74a89Cab4",
      "gasPrice": {
        "_hex": "0xd5279f546"
      },
      "gasLimit": {
        "_hex": "0x15f90"
      },
      "to": "0x4FCD326ae0739D0DA0fC71020adb6aBf9abf3BdA",
      "value": {
        "_hex": "0xde0b6b3a7640000"
      },
      "nonce": 2,
      "data": "0x",
      "r": "0x708e14821789278760350d5a368eecaf6984a0c422e1c00612dc48fe1598dcb0",
      "s": "0x13c0913251049b9d96cdece9a0615a4131a62fe2b377593335c0d1d3763d7c3c",
      "v": 28,
      "creates": null,
      "raw": "0xf86d02850d5279f54683015f90944fcd326ae0739d0da0fc71020adb6abf9abf3bda880de0b6b3a7640000801ca0708e14821789278760350d5a368eecaf6984a0c422e1c00612dc48fe1598dcb0a013c0913251049b9d96cdece9a0615a4131a62fe2b377593335c0d1d3763d7c3c",
      "networkId": 0,
      "chainId": 0
    }
  ]
}