{
  "hash": "0x61eb8791d1319b7e6385aba14a1fb7be9eab6009978ed579a72b063eadba3442",
  "parentHash": "0x645b522846dea5d5bdd6ad6abb0e0e24a7bfb72d05b5e9745003f511f5ebdca3",
  "number": 49445,
  "timestamp": 1438973524,
  "nonce": "0x8d65a6139ba9caf2",
  "difficulty": 1482111739578,
  "gasLimit": {
    "_hex": "0x314f9"
  },
  "gasUsed": {
    "_hex": "0x546c"
  },
  "miner": "0xC759dc67E0c3816fdC56A2f5bb29920fc07e767D",
  "extraData": "0x476574682f76312e302e312f77696e646f77732f676f312e342e32",
  "transactions": [
    {
      "hash": "0x25f43ad39f51b1b22c959df95cbffb3fe0fff1d523acefb7c488bab50af9db6d",
      "blockHash": "0x61eb8791d1319b7e6385aba14a1fb7be9eab6009978ed579a72b063eadba3442",
      "blockNumber": 49445,
      "transactionIndex": 0,
      "confirmations": null,
      "from": "0xf65EaC42da2c53D2a0e9bb399DDeDA9b68c7885c",
      "gasPrice": {
        "_hex": "0xe08f91ea4"
      },
      "gasLimit": {
        "_hex": "0x61a8"
      },
      "to": "0x2910543Af39abA0Cd09dBb2D50200b3E800A63D2",
      "value": {
        "_hex": "0x7068fb1598aa0000"
      },
      "nonce": 2,
      "data": "0x454e395456414b3930",
      "r": "0x7149fab65ef5d41121ae4cbee4b94d003e8b71062fe389bca980c2eeb99e6010",
      "s": "0x685212ec5632a0ca478d102780b4b59fb4c34ef10d7f507f3952d760d3921154",
      "v": 27,
      "creates": null,
      "raw": "0xf87502850e08f91ea48261a8942910543af39aba0cd09dbb2d50200b3e800a63d2887068fb1598aa000089454e395456414b39301ba07149fab65ef5d41121ae4cbee4b94d003e8b71062fe389bca980c2eeb99e6010a0685212ec5632a0ca478d102780b4b59fb4c34ef10d7f507f3952d760d3921154",
      "networkId": 0,
      "chainId": 0
    }
  ]
}