{
  "hash": "0x3507c1766089af7ccac8940c2edfede1fa3748bd8401c13ca343216cfc75e1bc",
  "parentHash": "0x1394e048bfbfedfad163eeb1834fb3c30e68ee89e9fcf77801298415f4f7698b",
  "number": 92550,
  "timestamp": 1439673850,
  "nonce": "0xa41c801040fae2ec",
  "difficulty": 3525109518812,
  "gasLimit": {
    "_hex": "0x2fefd8"
  },
  "gasUsed": {
    "_hex": "0x87f1d"
  },
  "miner": "0xe6A7a1d47ff21B6321162AEA7C6CB457D5476Bca",
  "extraData": "0x476574682f76312e302e312d38326566323666362f6c696e75782f676f312e34",
  "transactions": [
    {
      "hash": "0x721bd514609022e71e240328b77e7656db5decf14d441e72d1b34234a9703e45",
      "blockHash": "0x3507c1766089af7ccac8940c2edfede1fa3748bd8401c13ca343216cfc75e1bc",
      "blockNumber": 92550,
      "transactionIndex": 0,
      "confirmations": null,
      "from": "0x9C072558df29d101D320e51e05D3D0e0BDf4036E",
      "gasPrice": {
        "_hex": "0x11a265ae1e7"
      },
      "gasLimit": {
        "_hex": "0x7a120"
      },
      "to": "0xBAA54d6E90c3F4d7Ebec11bD180134C7eD8eBb52",
      "value": {
        "_hex": "0x16345785d8a0000"
      },
      "nonce": 1,
      "data": "0x",
      "r": "0x14629994aa20a4d79d9aeb3a3f4f57fea0884593f288eacadafc6d93c2c0e307",
      "s": "0x457b20316833cc4f5f3bf0f0f55ed73d0baab688211292421d2c3844fc7eb4cc",
      "v": 28,
      "creates": null,
      "raw": "0xf86e0186011a265ae1e78307a12094baa54d6e90c3f4d7ebec11bd180134c7ed8ebb5288016345785d8a0000801ca014629994aa20a4d79d9aeb3a3f4f57fea0884593f288eacadafc6d93c2c0e307a0457b20316833cc4f5f3bf0f0f55ed73d0baab688211292421d2c3844fc7eb4cc",
      "networkId": 0,
      "chainId": 0
    },
    {
      "hash": "0xead58e2beb14c76983e6b67b165bafd4e116d2dfc71dce5d29bc1ad6a6f43c9d",
      "blockHash": "0x3507c1766089af7ccac8940c2edfede1fa3748bd8401c13ca343216cfc75e1bc",
      "blockNumber": 92550,
      "transactionIndex": 1,
      "confirmations": null,
      "from": "0x9C072558df29d101D320e51e05D3D0e0BDf4036E",
      "gasPrice": {
        "_hex": "0x11a265ae1e7"
      },
      "gasLimit": {
        "_hex": "0x7a120"
      },
      "to": "0x109C4f2CCc82C4d77Bde15F306707320294Aea3F",
      "value": {
        "_hex": "0xde0b6b3a7640000"
      },
      "nonce": 2,
      "data": "0x",
      "r": "0x71484d9ebf0589a940f8808e20d93c5094bfb19e84ca254433697166ca497dbc",
      "s": "0x261503c1f6679c897c8b207a45b662f84d0dbd2554400134f81bf2b486f259da",
      "v": 27,
      "creates": null,
      "raw": "0xf86e0286011a265ae1e78307a12094109c4f2ccc82c4d77bde15f306707320294aea3f880de0b6b3a7640000801ba071484d9ebf0589a940f8808e20d93c5094bfb19e84ca254433697166ca497dbca0261503c1f6679c897c8b207a45b662f84d0dbd2554400134f81bf2b486f259da",
      "networkId": 0,
      "chainId": 0
    }
  ]
}