{
  "hash": "0x5b310ca6d878a33c4a4f5eb00a02f6aa224253442d23ed8cdee41477058e021b",
  "parentHash": "0x943e9d96ff128ebe0371bfc262a6a59f5c5e7d8c400d0a4fc1e1a42307472d22",
  "number": 57391,
  "timestamp": 1439102458,
  "nonce": "0x4e0678f7eb36be77",
  "difficulty": 1742998027931,
  "gasLimit": {
    "_hex": "0x2fefd8"
  },
  "gasUsed": {
    "_hex": "0x5208"
  },
  "miner": "0x6B4971F56172Fe56565FD3d6b56F8CA3C91B2baD",
  "extraData": "0x6e6f6e6f32333537",
  "transactions": [
    {
      "hash": "0x20367a702cae2f27b4af236b0ddd35ceac3b17b786b0e9cf9868e1760e17e3a7",
      "blockHash": "0x5b310ca6d878a33c4a4f5eb00a02f6aa224253442d23ed8cdee41477058e021b",
      "blockNumber": 57391,
      "transactionIndex": 0,
      "confirmations": null,
      "from": "0xF0224ea727d4924A8dd69a8d2d473Cc4c3590423",
      "gasPrice": {
        "_hex": "0xd81b4323f"
      },
      "gasLimit": {
        "_hex": "0x5208"
      },
      "to": "0x32Be343B94f860124dC4fEe278FDCBD38C102D88",
      "value": {
        "_hex": "0x533ff43ef9fc4800"
      },
      "nonce": 2,
      "data": "0x",
      "r": "0xd803142a1672f5c443f29269f3b79a26b89c7a3827c62ade4b43ad5b294f9fd7",
      "s": "0x1568fbd828e4f611f113e8da32b3e0868e12ec0356ff660296f822c108eafb3a",
      "v": 27,
      "creates": null,
      "raw": "0xf86c02850d81b4323f8252089432be343b94f860124dc4fee278fdcbd38c102d8888533ff43ef9fc4800801ba0d803142a1672f5c443f29269f3b79a26b89c7a3827c62ade4b43ad5b294f9fd7a01568fbd828e4f611f113e8da32b3e0868e12ec0356ff660296f822c108eafb3a",
      "networkId": 0,
      "chainId": 0
    }
  ]
}