{
  "hash": "0x30d19a53c1bd98a6ffedfeb01ee5bb0e6f272344bb013711a4187496a1d16f02",
  "parentHash": "0x146a15dc841eacb7c706cec6313c3ba5470c0e38849156196178665c43634aa8",
  "number": 71505,
  "timestamp": 1439337303,
  "nonce": "0x2caad98542714d7b",
  "difficulty": 2174025205266,
  "gasLimit": {
    "_hex": "0x2fefd8"
  },
  "gasUsed": {
    "_hex": "0x5208"
  },
  "miner": "0x0037ce3d4B7f8729C8607D8D0248252Be68202c0",
  "extraData": "0x476574682f76312e302e312f77696e646f77732f676f312e342e32",
  "transactions": [
    {
      "hash": "0x1c54851b15f7a0499d01e845a1e0c8b4caf9b521a83134ca41388d7d14fe1810",
      "blockHash": "0x30d19a53c1bd98a6ffedfeb01ee5bb0e6f272344bb013711a4187496a1d16f02",
      "blockNumber": 71505,
      "transactionIndex": 0,
      "confirmations": null,
      "from": "0x96D9CcA8F55eea0040ec6EB348a1774b95d93eF4",
      "gasPrice": {
        "_hex": "0xd7d40ace3"
      },
      "gasLimit": {
        "_hex": "0x15f90"
      },
      "to": "0xAb375C1F0F01d6eB03790Fd7200132a2FC7E1a1A",
      "value": {
        "_hex": "0xd84c5f9412f0980000"
      },
      "nonce": 1,
      "data": "0x",
      "r": "0x508f84ea9b0f3e67610e0036a3f5fb9049665bf4fa61a494904be25d6a16a6e4",
      "s": "0x32ec60442fc254433d2727e27668efcd9f1823dcff99356aebc8dd9316316f7d",
      "v": 27,
      "creates": null,
      "raw": "0xf86e01850d7d40ace383015f9094ab375c1f0f01d6eb03790fd7200132a2fc7e1a1a89d84c5f9412f0980000801ba0508f84ea9b0f3e67610e0036a3f5fb9049665bf4fa61a494904be25d6a16a6e4a032ec60442fc254433d2727e27668efcd9f1823dcff99356aebc8dd9316316f7d",
      "networkId": 0,
      "chainId": 0
    }
  ]
}