{
  "hash": "0xc0a13a360d95b43d8c07315604d7f47666b1cf808cda6d2be51c7e2399fe98be",
  "parentHash": "0xe586b8592e0a227c60bac995ce41e0d66802b935bcc65d2b8396dc45a9f6158f",
  "number": 103300,
  "timestamp": 1439850973,
  "nonce": "0x9834a8692c04b7d8",
  "difficulty": 4172652369277,
  "gasLimit": {
    "_hex": "0x2fefd2"
  },
  "gasUsed": {
    "_hex": "0xa410"
  },
  "miner": "0x9D49F602b0fdb924Bd63DDE2Bd0907E4A07c63a7",
  "extraData": "0x476574682f76312e302e312f6c696e75782f676f312e342e32",
  "transactions": [
    {
      "hash": "0x35a21484af2fd0818127ca4d2e46888d9de119b13feffe67cd253ad24b852256",
      "blockHash": "0xc0a13a360d95b43d8c07315604d7f47666b1cf808cda6d2be51c7e2399fe98be",
      "blockNumber": 103300,
      "transactionIndex": 0,
      "confirmations": null,
      "from": "0xBb7f43EDfd8bf08B022fEd5BD91e3f9dE7e74D09",
      "gasPrice": {
        "_hex": "0xd20adec8e"
      },
      "gasLimit": {
        "_hex": "0x5208"
      },
      "to": "0x32Be343B94f860124dC4fEe278FDCBD38C102D88",
      "value": {
        "_hex": "0x455f6806d78d6400"
      },
      "nonce": 3,
      "data": "0x",
      "r": "0xa9b24113694abcc80465b52e3fc84294766912871eefa3448bd4f7e3f33a907d",
      "s": "0x5233dfb403f4ac51375215b505aa847058668855ce33c45e9119f3872e7a5c4f",
      "v": 27,
      "creates": null,
      "raw": "0xf86c03850d20adec8e8252089432be343b94f860124dc4fee278fdcbd38c102d8888455f6806d78d6400801ba0a9b24113694abcc80465b52e3fc84294766912871eefa3448bd4f7e3f33a907da05233dfb403f4ac51375215b505aa847058668855ce33c45e9119f3872e7a5c4f",
      "networkId": 0,
      "chainId": 0
    },
    {
      "hash": "0xeb3bf532cb7f952539e1ca5bd3154642a1804305776889b3f7b23c85dcb8bd46",
      "blockHash": "0xc0a13a360d95b43d8c07315604d7f47666b1cf808cda6d2be51c7e2399fe98be",
      "blockNumber": 103300,
      "transactionIndex": 1,
      "confirmations": null,
      "from": "0xa70a9a7040d542C632D8e0bE7c5513A8a5Bbc752",
      "gasPrice": {
        "_hex": "0xd20adec8e"
      },
      "gasLimit": {
        "_hex": "0x5208"
      },
      "to": "0x32Be343B94f860124dC4fEe278FDCBD38C102D88",
      "value": {
        "_hex": "0x455f5ca1795a7000"
      },
      "nonce": 225,
      "data": "0x",
      "r": "0x253e5923caa1a6ab6bbdf75cb71982cb5dd126a4702924a75141372316460d50",
      "s": "0x15f9dcb50a84787c00e6dabbbc606b440ee098f1f522ed2dbb200e8a7cddcce5",
      "v": 27,
      "creates": null,
      "raw": "0xf86d81e1850d20adec8e8252089432be343b94f860124dc4fee278fdcbd38c102d8888455f5ca1795a7000801ba0253e5923caa1a6ab6bbdf75cb71982cb5dd126a4702924a75141372316460d50a015f9dcb50a84787c00e6dabbbc606b440ee098f1f522ed2dbb200e8a7cddcce5",
      "networkId": 0,
      "chainId": 0
    }
  ]
}