{
  "hash": "0xe6100a98c2b24d8a15f56aa3443f024d960817fbcd87068ebe22fcc3721fe32e",
  "parentHash": "0xfa9603bce8423199cad510dcce7d443ba16768e4b47084e841eb890f7099c24e",
  "number": 81061,
  "timestamp": 1439495543,
  "nonce": "0xc6d7297e69614ff4",
  "difficulty": 2432020704447,
  "gasLimit": {
    "_hex": "0x2fefd8"
  },
  "gasUsed": {
    "_hex": "0xf618"
  },
  "miner": "0x29D19206747E4Db867186f5899D9F7188DF153F6",
  "extraData": "0x",
  "transactions": [
    {
      "hash": "0x637a5692e6cc364e22a1c09c1e912e321197f60b4419722c74cd54e536226123",
      "blockHash": "0xe6100a98c2b24d8a15f56aa3443f024d960817fbcd87068ebe22fcc3721fe32e",
      "blockNumber": 81061,
      "transactionIndex": 0,
      "confirmations": null,
      "from": "0x46Aa501870677e7f0A504876b4E8801A0ad01C46",
      "gasPrice": {
        "_hex": "0xd4dfa5aef"
      },
      "gasLimit": {
        "_hex": "0x15f90"
      },
      "to": "0x1cf40bA5af782c541AC24e8FB9Bdd82dD0EF4900",
      "value": {
        "_hex": "0x56bc75e2d63100000"
      },
      "nonce": 2,
      "data": "0x",
      "r": "0xc2ed5a499401f9161d4f313339ecc4a64356879dd8bfb01fa329b24b4edc4c1c",
      "s": "0x38c322433e68932e49dfaf6e9b2b7dbc2efd49abbadf65ecfa0ab1ac83064fd2",
      "v": 28,
      "creates": null,
      "raw": "0xf86e02850d4dfa5aef83015f90941cf40ba5af782c541ac24e8fb9bdd82dd0ef490089056bc75e2d63100000801ca0c2ed5a499401f9161d4f313339ecc4a64356879dd8bfb01fa329b24b4edc4c1ca038c322433e68932e49dfaf6e9b2b7dbc2efd49abbadf65ecfa0ab1ac83064fd2",
      "networkId": 0,
      "chainId": 0
    },
    {
      "hash": "0x2e77a310e58a9b9019c893a18983988e31b099fb3fca48a16ec25d7a3698f9b5",
      "blockHash": "0xe6100a98c2b24d8a15f56aa3443f024d960817fbcd87068ebe22fcc3721fe32e",
      "blockNumber": 81061,
      "transactionIndex": 1,
      "confirmations": null,
      "from": "0x833Db9bC424dbdA6657780d1392eF714f503106C",
      "gasPrice": {
        "_hex": "0xcb1054e31"
      },
      "gasLimit": {
        "_hex": "0x5208"
      },
      "to": "0x32Be343B94f860124dC4fEe278FDCBD38C102D88",
      "value": {
        "_hex": "0xddca59a6a842800"
      },
      "nonce": 0,
      "data": "0x",
      "r": "0xaec5df8d249d43400665e56683907203ec9c95e1ba8f1b1aa29fe139c9075c81",
      "s": "0x3b4782c32f1a47fc2ef7ad977cc998e9676cdd971eaa50ce2cc064b0fc9751ca",
      "v": 28,
      "creates": null,
      "raw": "0xf86c80850cb1054e318252089432be343b94f860124dc4fee278fdcbd38c102d88880ddca59a6a842800801ca0aec5df8d249d43400665e56683907203ec9c95e1ba8f1b1aa29fe139c9075c81a03b4782c32f1a47fc2ef7ad977cc998e9676cdd971eaa50ce2cc064b0fc9751ca",
      "networkId": 0,
      "chainId": 0
    },
    {
      "hash": "0xa88f2c7e32de65b64aaa8052f0dd73f30d3a1d029d16371b2bf685e5e2bd7084",
      "blockHash": "0xe6100a98c2b24d8a15f56aa3443f024d960817fbcd87068ebe22fcc3721fe32e",
      "blockNumber": 81061,
      "transactionIndex": 2,
      "confirmations": null,
      "from": "0xfD2e2C6803497ECF240350F24Ef3Ee61E3360dc4",
      "gasPrice": {
        "_hex": "0xcb1054e31"
      },
      "gasLimit": {
        "_hex": "0x5208"
      },
      "to": "0x32Be343B94f860124dC4fEe278FDCBD38C102D88",
      "value": {
        "_hex": "0x1bab8d9964aabc00"
      },
      "nonce": 0,
      "data": "0x",
      "r": "0x2c64898e4148b968e4d1ab15e314427c94bc0d29bd9322f8d014fe243a08d550",
      "s": "0x7dbbda2fbd6af908266ae90173adba1fe93942cc23e17cc636929483ad48ee0e",
      "v": 28,
      "creates": null,
      "raw": "0xf86c80850cb1054e318252089432be343b94f860124dc4fee278fdcbd38c102d88881bab8d9964aabc00801ca02c64898e4148b968e4d1ab15e314427c94bc0d29bd9322f8d014fe243a08d550a07dbbda2fbd6af908266ae90173adba1fe93942cc23e17cc636929483ad48ee0e",
      "networkId": 0,
      "chainId": 0
    }
  ]
}