{
  "hash": "0x72e6386631b6cb72c4700d2a0957c6c277556ac9f2577b5c24c14b4192c448bb",
  "parentHash": "0xa97507379e0770c6e8ca8b869993005c5d5c7496b8ffc666d656fb6d1c27e47f",
  "number": 46269,
  "timestamp": 1438920258,
  "nonce": "0xe1005693d16a656c",
  "difficulty": 1463968965835,
  "gasLimit": {
    "_hex": "0x5744"
  },
  "gasUsed": {
    "_hex": "0x5208"
  },
  "miner": "0x9746c7e1ef2bd21FF3997fa467593a89cb852BD0",
  "extraData": "0x476574682f76312e302e312f77696e646f77732f676f312e342e32",
  "transactions": [
    {
      "hash": "0x29a31f5c9a2820beb81ea553ba69e331193383c433c560fbfe921204a86d55b0",
      "blockHash": "0x72e6386631b6cb72c4700d2a0957c6c277556ac9f2577b5c24c14b4192c448bb",
      "blockNumber": 46269,
      "transactionIndex": 0,
      "confirmations": null,
      "from": "0xC1CdC601f89c0428b31302D187e0dc08ad7D1C57",
      "gasPrice": {
        "_hex": "0x299bfd14d7"
      },
      "gasLimit": {
        "_hex": "0x5209"
      },
      "to": "0x806F38EDec3539c3B368f49f5783D8C673935375",
      "value": {
        "_hex": "0x3635c9adc5dea00000"
      },
      "nonce": 0,
      "data": "0x",
      "r": "0x85393a7cc29b378e04082d6430da130826fd8610f8c4eb88be4d69f65051a1a4",
      "s": "0x22d1392b48899ee1e1b80965ad9bee633b677139bb50553ee2bad719cf40ee6e",
      "v": 28,
      "creates": null,
      "raw": "0xf86d8085299bfd14d782520994806f38edec3539c3b368f49f5783d8c673935375893635c9adc5dea00000801ca085393a7cc29b378e04082d6430da130826fd8610f8c4eb88be4d69f65051a1a4a022d1392b48899ee1e1b80965ad9bee633b677139bb50553ee2bad719cf40ee6e",
      "networkId": 0,
      "chainId": 0
    }
  ]
}