{
  "hash": "0xdc3bb3f7a2d7f57b543fdb800fc5dae3dc1f4718baed274abf8c6c902bf56fd2",
  "parentHash": "0x7c2906fece930097fb47768286afce670d2925dae6d131282a8b6f4d408e1dfd",
  "number": 107260,
  "timestamp": 1439919198,
  "nonce": "0x09736b5840bfa8e3",
  "difficulty": 4431006257173,
  "gasLimit": {
    "_hex": "0x2fefd8"
  },
  "gasUsed": {
    "_hex": "0x5208"
  },
  "miner": "0xe6A7a1d47ff21B6321162AEA7C6CB457D5476Bca",
  "extraData": "0x476574682f76312e302e312d38326566323666362f6c696e75782f676f312e34",
  "transactions": [
    {
      "hash": "0xccfde1c5a2f79929891e8a687a2c9b50c4a2f1bca3ebba447e319d680ca12759",
      "blockHash": "0xdc3bb3f7a2d7f57b543fdb800fc5dae3dc1f4718baed274abf8c6c902bf56fd2",
      "blockNumber": 107260,
      "transactionIndex": 0,
      "confirmations": null,
      "from": "0x50f5E0F817a9bF0194A1703aA0dF67a9F2575F06",
      "gasPrice": {
        "_hex": "0xba43b7400"
      },
      "gasLimit": {
        "_hex": "0x5267"
      },
      "to": "0x0966686ed6164a792d67B3C62b43F46959073A58",
      "value": {
        "_hex": "0x1158e460913d00000"
      },
      "nonce": 0,
      "data": "0x",
      "r": "0xa96dbe3f3753f2b0585ea28a726de80ef7f851424f14d301a05e725b5fcc263a",
      "s": "0x19794b240666569e187c193d6d24eae6300a207550dc739df90e91574a463cc8",
      "v": 28,
      "creates": null,
      "raw": "0xf86d80850ba43b7400825267940966686ed6164a792d67b3c62b43f46959073a588901158e460913d00000801ca0a96dbe3f3753f2b0585ea28a726de80ef7f851424f14d301a05e725b5fcc263aa019794b240666569e187c193d6d24eae6300a207550dc739df90e91574a463cc8",
      "networkId": 0,
      "chainId": 0
    }
  ]
}