{
  "hash": "0xda37f035bf092cf1017c92285bb0356eb331c871168b563d1c6e0fae0fa43ce6",
  "parentHash": "0x12cf480d2d2412ba51a3d1c2198c5fc083e756b080582c744847c0255b6bb9cc",
  "number": 50900,
  "timestamp": 1438996285,
  "nonce": "0x7d5165232e6ff8d9",
  "difficulty": 1550697193651,
  "gasLimit": {
    "_hex": "0x8150f"
  },
  "gasUsed": {
    "_hex": "0xddfd"
  },
  "miner": "0x84ad64deFF6B187f690634051D2a096C359D1099",
  "extraData": "0x",
  "transactions": [
    {
      "hash": "0x301f8b7f3cb7785f796801bfbf1160a7c327b92b5e58ad7624247bd4a09087f1",
      "blockHash": "0xda37f035bf092cf1017c92285bb0356eb331c871168b563d1c6e0fae0fa43ce6",
      "blockNumber": 50900,
      "transactionIndex": 0,
      "confirmations": null,
      "from": "0x288E4356F12D0D3D0F8DF3506E457E7cFd5f4Ab0",
      "gasPrice": {
        "_hex": "0xe17305bd6"
      },
      "gasLimit": {
        "_hex": "0x5a550"
      },
      "to": "0x109C4f2CCc82C4d77Bde15F306707320294Aea3F",
      "value": {
        "_hex": "0xde0b6b3a7640000"
      },
      "nonce": 5,
      "data": "0x",
      "r": "0x42bd8057a55e93a01e512c43ecf234e4d87400aae269866d1b64bf512d4a7c02",
      "s": "0x32cd1d76a185096245d085ffc5aeb8471a27687dd86fbd77fe72c0c4a156db71",
      "v": 27,
      "creates": null,
      "raw": "0xf86d05850e17305bd68305a55094109c4f2ccc82c4d77bde15f306707320294aea3f880de0b6b3a7640000801ba042bd8057a55e93a01e512c43ecf234e4d87400aae269866d1b64bf512d4a7c02a032cd1d76a185096245d085ffc5aeb8471a27687dd86fbd77fe72c0c4a156db71",
      "networkId": 0,
      "chainId": 0
    }
  ]
}