{
  "hash": "0x3c5fa62b51e25a5887e53480b9fbc3b27e50352d1e3a02d603cd890a1cd5704f",
  "parentHash": "0xbda8f7971175b9813c43137586dbd25180b457052718f33b0a1cb17a7666a522",
  "number": 100038,
  "timestamp": 1439799668,
  "nonce": "0x5c4091a397b4077c",
  "difficulty": 3860573501484,
  "gasLimit": {
    "_hex": "0x2fefd8"
  },
  "gasUsed": {
    "_hex": "0x38658"
  },
  "miner": "0xe6A7a1d47ff21B6321162AEA7C6CB457D5476Bca",
  "extraData": "0x476574682f76312e302e312d38326566323666362f6c696e75782f676f312e34",
  "transactions": [
    {
      "hash": "0xca392f436964bf2904e48b096c97df61739691ba77b33b263dfe8b29a64fd9bc",
      "blockHash": "0x3c5fa62b51e25a5887e53480b9fbc3b27e50352d1e3a02d603cd890a1cd5704f",
      "blockNumber": 100038,
      "transactionIndex": 0,
      "confirmations": null,
      "from": "0xe6A7a1d47ff21B6321162AEA7C6CB457D5476Bca",
      "gasPrice": {
        "_hex": "0xcee9851e5"
      },
      "gasLimit": {
        "_hex": "0x55f0"
      },
      "to": "0x7C197542A77e913547d2E58e8d3c6F224f6f0f98",
      "value": {
        "_hex": "0xe5c37ac8390c5668"
      },
      "nonce": 3537,
      "data": "0x",
      "r": "0xc906e6587179cf9c9c1e8cfadca4106f601784114289a226eabe7dfcca68b3fd",
      "s": "0x09512b0ab69457d020da7d395a5c81fa74a187245611aa203171bcd54c8874ab",
      "v": 27,
      "creates": null,
      "raw": "0xf86e820dd1850cee9851e58255f0947c197542a77e913547d2e58e8d3c6f224f6f0f9888e5c37ac8390c5668801ba0c906e6587179cf9c9c1e8cfadca4106f601784114289a226eabe7dfcca68b3fda009512b0ab69457d020da7d395a5c81fa74a187245611aa203171bcd54c8874ab",
      "networkId": 0,
      "chainId": 0
    },
    {
      "hash": "0x290072bbd03bdf6597db689905282a71ed459859dd0c8d301d408fae4aaba3f1",
      "blockHash": "0x3c5fa62b51e25a5887e53480b9fbc3b27e50352d1e3a02d603cd890a1cd5704f",
      "blockNumber": 100038,
      "transactionIndex": 1,
      "confirmations": null,
      "from": "0xe6A7a1d47ff21B6321162AEA7C6CB457D5476Bca",
      "gasPrice": {
        "_hex": "0xcee9851e5"
      },
      "gasLimit": {
        "_hex": "0x55f0"
      },
      "to": "0x1E550f4ecF22cBCb73da4fc090FBf5a5c748b0F1",
      "value": {
        "_hex": "0x13ad248daddffc170"
      },
      "nonce": 3538,
      "data": "0x",
      "r": "0x29166ff8fb2e04e863e431bb2445d6216dc3ad58f112d1db0707a4ee4b260da6",
      "s": "0x081be2bef33823f19887c740715d68094c3f0ce2bbe38d398e31b3fef904464e",
      "v": 27,
      "creates": null,
      "raw": "0xf86f820dd2850cee9851e58255f0941e550f4ecf22cbcb73da4fc090fbf5a5c748b0f189013ad248daddffc170801ba029166ff8fb2e04e863e431bb2445d6216dc3ad58f112d1db0707a4ee4b260da6a0081be2bef33823f19887c740715d68094c3f0ce2bbe38d398e31b3fef904464e",
      "networkId": 0,
      "chainId": 0
    },
    {
      "hash": "0x2db324d066e11dab832bda739132ee6d906fe783e417ebe0251e0bc430ddc2b4",
      "blockHash": "0x3c5fa62b51e25a5887e53480b9fbc3b27e50352d1e3a02d603cd890a1cd5704f",
      "blockNumber": 100038,
      "transactionIndex": 2,
      "confirmations": null,
      "from": "0xe6A7a1d47ff21B6321162AEA7C6CB457D5476Bca",
      "gasPrice": {
        "_hex": "0xcee9851e5"
      },
      "gasLimit": {
        "_hex": "0x55f0"
      },
      "to": "0x52191276589069F70F0E46bcCc718d793d1Aa1D0",
      "value": {
        "_hex": "0x167773e7409414ce0"
      },
      "nonce": 3539,
      "data": "0x",
      "r": "0x1249800222cc5b54aeb9a2abc4efa7207247c9e7f2ae4621b20cb5d251b7753b",
      "s": "0x5c1ae2fb63a36eccb0683677dcb839c5d455ee785be23cad00f765e7558ef7fc",
      "v": 28,
      "creates": null,
      "raw": "0xf86f820dd3850cee9851e58255f09452191276589069f70f0e46bccc718d793d1aa1d0890167773e7409414ce0801ca01249800222cc5b54aeb9a2abc4efa7207247c9e7f2ae4621b20cb5d251b7753ba05c1ae2fb63a36eccb0683677dcb839c5d455ee785be23cad00f765e7558ef7fc",
      "networkId": 0,
      "chainId": 0
    },
    {
      "hash": "0x2017ca1f83b54f7c1fc2d8cac86e4ebd95a3f54ae8d0a4d517f677ff55f943e5",
      "blockHash": "0x3c5fa62b51e25a5887e53480b9fbc3b27e50352d1e3a02d603cd890a1cd5704f",
      "blockNumber": 100038,
      "transactionIndex": 3,
      "confirmations": null,
      "from": "0xe6A7a1d47ff21B6321162AEA7C6CB457D5476Bca",
      "gasPrice": {
        "_hex": "0xcee9851e5"
      },
      "gasLimit": {
        "_hex": "0x55f0"
      },
      "to": "0xf0c896DB24137eDA6Ec88cF1a95217F8604aE55e",
      "value": {
        "_hex": "0x1e15718a9bdfe17d0"
      },
      "nonce": 3540,
      "data": "0x",
      "r": "0x88965d4a1d98513df491d7e7d8ffab4986119de68246bf32e956c36299108f32",
      "s": "0x0eee17e12bc45f1c463dd6cfca7a93eb74ffaac72c34c8e664738f1405ce0c30",
      "v": 27,
      "creates": null,
      "raw": "0xf86f820dd4850cee9851e58255f094f0c896db24137eda6ec88cf1a95217f8604ae55e8901e15718a9bdfe17d0801ba088965d4a1d98513df491d7e7d8ffab4986119de68246bf32e956c36299108f32a00eee17e12bc45f1c463dd6cfca7a93eb74ffaac72c34c8e664738f1405ce0c30",
      "networkId": 0,
      "chainId": 0
    },
    {
      "hash": "0x6e41e911a5b5e7d2c4151228e090f079d15db1a391d47f23a502746a711081b8",
      "blockHash": "0x3c5fa62b51e25a5887e53480b9fbc3b27e50352d1e3a02d603cd890a1cd5704f",
      "blockNumber": 100038,
      "transactionIndex": 4,
      "confirmations": null,
      "from": "0xe6A7a1d47ff21B6321162AEA7C6CB457D5476Bca",
      "gasPrice": {
        "_hex": "0xcee9851e5"
      },
      "gasLimit": {
        "_hex": "0x55f0"
      },
      "to": "0xc0920452d99591a4e8b190632c52754c72F73328",
      "value": {
        "_hex": "0x1e76e03ec2e7d3640"
      },
      "nonce": 3541,
      "data": "0x",
      "r": "0xfa76832cd7bdb3e4ffd39bcbb6c2262515579eabeb9315f89591d7efd58f7f9c",
      "s": "0x4f37199f59d786302e7ed8a60c68e62225a7bd08f5a56a99a994edfa31b48864",
      "v": 28,
      "creates": null,
      "raw": "0xf86f820dd5850cee9851e58255f094c0920452d99591a4e8b190632c52754c72f733288901e76e03ec2e7d3640801ca0fa76832cd7bdb3e4ffd39bcbb6c2262515579eabeb9315f89591d7efd58f7f9ca04f37199f59d786302e7ed8a60c68e62225a7bd08f5a56a99a994edfa31b48864",
      "networkId": 0,
      "chainId": 0
    },
    {
      "hash": "0x66de65201671511433c7d907590646f1f44bb2a9e195b4bd5a704f19f099679b",
      "blockHash": "0x3c5fa62b51e25a5887e53480b9fbc3b27e50352d1e3a02d603cd890a1cd5704f",
      "blockNumber": 100038,
      "transactionIndex": 5,
      "confirmations": null,
      "from": "0xe6A7a1d47ff21B6321162AEA7C6CB457D5476Bca",
      "gasPrice": {
        "_hex": "0xcee9851e5"
      },
      "gasLimit": {
        "_hex": "0x55f0"
      },
      "to": "0x383Ad663AFd1716301FC92d469d9985b97cfBCB0",
      "value": {
        "_hex": "0x212f15f8c69ee4fc0"
      },
      "nonce": 3542,
      "data": "0x",
      "r": "0x485f1b60f706da07f107ebc46be54db6f5763c1add2b36b383178ec445629fe8",
      "s": "0x7066554a9583961816c79cc06f01f933eb0652a301335c366306b353bc9f9a97",
      "v": 28,
      "creates": null,
      "raw": "0xf86f820dd6850cee9851e58255f094383ad663afd1716301fc92d469d9985b97cfbcb0890212f15f8c69ee4fc0801ca0485f1b60f706da07f107ebc46be54db6f5763c1add2b36b383178ec445629fe8a07066554a9583961816c79cc06f01f933eb0652a301335c366306b353bc9f9a97",
      "networkId": 0,
      "chainId": 0
    },
    {
      "hash": "0x3bf2c1db44b4b9676af1a61bd136687c21d8a24ba59480015f2d661969aba12c",
      "blockHash": "0x3c5fa62b51e25a5887e53480b9fbc3b27e50352d1e3a02d603cd890a1cd5704f",
      "blockNumber": 100038,
      "transactionIndex": 6,
      "confirmations": null,
      "from": "0xe6A7a1d47ff21B6321162AEA7C6CB457D5476Bca",
      "gasPrice": {
        "_hex": "0xcee9851e5"
      },
      "gasLimit": {
        "_hex": "0x55f0"
      },
      "to": "0x46b92ea5c3E696bf123354DfCc564cbac1C90671",
      "value": {
        "_hex": "0x2c03e80e13ec87890"
      },
      "nonce": 3543,
      "data": "0x",
      "r": "0xc8de78ca3bffebb833fb6bba163efb209bfef7f339ff00d39a6ef01cf71f4047",
      "s": "0x42d0e3a75461c159b331c6b03d55f128baba8d5de1d2abb47c5fa2c42bd85f4a",
      "v": 28,
      "creates": null,
      "raw": "0xf86f820dd7850cee9851e58255f09446b92ea5c3e696bf123354dfcc564cbac1c906718902c03e80e13ec87890801ca0c8de78ca3bffebb833fb6bba163efb209bfef7f339ff00d39a6ef01cf71f4047a042d0e3a75461c159b331c6b03d55f128baba8d5de1d2abb47c5fa2c42bd85f4a",
      "networkId": 0,
      "chainId": 0
    },
    {
      "hash": "0x08b95fe4a92f5d4b3e84528b3d974736ed5c8bcc48b5cc618d7e396a20702f0b",
      "blockHash": "0x3c5fa62b51e25a5887e53480b9fbc3b27e50352d1e3a02d603cd890a1cd5704f",
      "blockNumber": 100038,
      "transactionIndex": 7,
      "confirmations": null,
      "from": "0xe6A7a1d47ff21B6321162AEA7C6CB457D5476Bca",
      "gasPrice": {
        "_hex": "0xcee9851e5"
      },
      "gasLimit": {
        "_hex": "0x55f0"
      },
      "to": "0x187b1f47Cd55b27878699DfCDCee2234cD49E97e",
      "value": {
        "_hex": "0x353bb42ff2ff16890"
      },
      "nonce": 3544,
      "data": "0x",
      "r": "0x4cd466b3f09e3fc5994cc92fcb98c537412f9995a52ce00fbc494ef23ce1c8e6",
      "s": "0x3bc78660ced94272a4384eeb5d51aec44b8fdb9485ac8f59c6debf5fb4aea9fd",
      "v": 27,
      "creates": null,
      "raw": "0xf86f820dd8850cee9851e58255f094187b1f47cd55b27878699dfcdcee2234cd49e97e890353bb42ff2ff16890801ba04cd466b3f09e3fc5994cc92fcb98c537412f9995a52ce00fbc494ef23ce1c8e6a03bc78660ced94272a4384eeb5d51aec44b8fdb9485ac8f59c6debf5fb4aea9fd",
      "networkId": 0,
      "chainId": 0
    },
    {
      "hash": "0x0007a499b76ca3df0f5398a8775453d5319b071075f592221ea29e05a80ff959",
      "blockHash": "0x3c5fa62b51e25a5887e53480b9fbc3b27e50352d1e3a02d603cd890a1cd5704f",
      "blockNumber": 100038,
      "transactionIndex": 8,
      "confirmations": null,
      "from": "0xe6A7a1d47ff21B6321162AEA7C6CB457D5476Bca",
      "gasPrice": {
        "_hex": "0xcee9851e5"
      },
      "gasLimit": {
        "_hex": "0x55f0"
      },
      "to": "0x1Fab7BE036A5C6A69b2B05D6e172FF4e5b2a5e6B",
      "value": {
        "_hex": "0x396d1b1ec1ce5c1f0"
      },
      "nonce": 3545,
      "data": "0x",
      "r": "0x1de8d5dbe45201469801a47190496d6371b998c9e215d9194e74e8fb1425b28b",
      "s": "0x6a2396da8babe434a7c86bc6f539eefe0abbeab2298fad3954c6d72c69ab0758",
      "v": 27,
      "creates": null,
      "raw": "0xf86f820dd9850cee9851e58255f0941fab7be036a5c6a69b2b05d6e172ff4e5b2a5e6b890396d1b1ec1ce5c1f0801ba01de8d5dbe45201469801a47190496d6371b998c9e215d9194e74e8fb1425b28ba06a2396da8babe434a7c86bc6f539eefe0abbeab2298fad3954c6d72c69ab0758",
      "networkId": 0,
      "chainId": 0
    },
    {
      "hash": "0x3536146eae1ba2ff4f91b7e94c51ae2b805f67011d36ea6947ea203c8a1a9f9b",
      "blockHash": "0x3c5fa62b51e25a5887e53480b9fbc3b27e50352d1e3a02d603cd890a1cd5704f",
      "blockNumber": 100038,
      "transactionIndex": 9,
      "confirmations": null,
      "from": "0xe6A7a1d47ff21B6321162AEA7C6CB457D5476Bca",
      "gasPrice": {
        "_hex": "0xcee9851e5"
      },
      "gasLimit": {
        "_hex": "0x55f0"
      },
      "to": "0x4A29dF8a7967b36664f256F18dAcf2e58E9f1E7E",
      "value": {
        "_hex": "0xddca13add23978ad0"
      },
      "nonce": 3546,
      "data": "0x",
      "r": "0xa3e1f23883bd5c9babfcd3df8771b54daf3e0374a8bf874672cab24945d71166",
      "s": "0x35d8a22044c79587febc7974d6116a541a3697ff41209407bd9550437f818752",
      "v": 27,
      "creates": null,
      "raw": "0xf86f820dda850cee9851e58255f0944a29df8a7967b36664f256f18dacf2e58e9f1e7e890ddca13add23978ad0801ba0a3e1f23883bd5c9babfcd3df8771b54daf3e0374a8bf874672cab24945d71166a035d8a22044c79587febc7974d6116a541a3697ff41209407bd9550437f818752",
      "networkId": 0,
      "chainId": 0
    },
    {
      "hash": "0x50a1946ba5148d3a741fb2a2c125bb4a7bf2a848222b5e097aef4a7457db14b9",
      "blockHash": "0x3c5fa62b51e25a5887e53480b9fbc3b27e50352d1e3a02d603cd890a1cd5704f",
      "blockNumber": 100038,
      "transactionIndex": 10,
      "confirmations": null,
      "from": "0xe6A7a1d47ff21B6321162AEA7C6CB457D5476Bca",
      "gasPrice": {
        "_hex": "0xcee9851e5"
      },
      "gasLimit": {
        "_hex": "0x55f0"
      },
      "to": "0xF2d2AfF1320476cb8C6b607199D23175cc595693",
      "value": {
        "_hex": "0x147f54f34cb8d053a0"
      },
      "nonce": 3547,
      "data": "0x",
      "r": "0xb3a5e67ef3df5982b40778340223204c6042f06cecee520b274c35e9c664efa0",
      "s": "0x3439f40991bf049b2d944a3a0694a042b790bb750953e4c5ab2d76903649435c",
      "v": 27,
      "creates": null,
      "raw": "0xf86f820ddb850cee9851e58255f094f2d2aff1320476cb8c6b607199d23175cc59569389147f54f34cb8d053a0801ba0b3a5e67ef3df5982b40778340223204c6042f06cecee520b274c35e9c664efa0a03439f40991bf049b2d944a3a0694a042b790bb750953e4c5ab2d76903649435c",
      "networkId": 0,
      "chainId": 0
    }
  ]
}