{
  "hash": "0xf68113561b04b030e4a6d8b41d9dad4f963165dbbc815c2e961197d35deddec9",
  "parentHash": "0x13f4fd2531a4e492c0b776f4c2e78b2f9fbfc190363c0f5ac6558b6bd389d50b",
  "number": 94718,
  "timestamp": 1439712983,
  "nonce": "0x2a4a525cb1f9a0b1",
  "difficulty": 3483140426475,
  "gasLimit": {
    "_hex": "0x2fefd8"
  },
  "gasUsed": {
    "_hex": "0xf618"
  },
  "miner": "0x2C674A948592B20a4B775E1a3991Db043E6CF0FE",
  "extraData": "0x476574682f76312e302e312d38326566323666362f6c696e75782f676f312e34",
  "transactions": [
    {
      "hash": "0xc3034bfea56ea928b7b089a4ea9bb524240f6e4e06057a067a1b7ddea0b130a5",
      "blockHash": "0xf68113561b04b030e4a6d8b41d9dad4f963165dbbc815c2e961197d35deddec9",
      "blockNumber": 94718,
      "transactionIndex": 0,
      "confirmations": null,
      "from": "0x1308A2e95c0160B90803ddCA9B9a5bb55E416d79",
      "gasPrice": {
        "_hex": "0xdcf653bee"
      },
      "gasLimit": {
        "_hex": "0x15f90"
      },
      "to": "0x05c75De56E6Dd252880Ea8f35695c43Bd837f16E",
      "value": {
        "_hex": "0x59d7ab27ac3b02800"
      },
      "nonce": 150,
      "data": "0x",
      "r": "0x712b3611289b6d95adcd42d069f4d72f475149f63c341312c814a2420e93638c",
      "s": "0x75a26d7cacb08a83872b22fea1c00e30795aceb703e22c330e8b036dec940983",
      "v": 28,
      "creates": null,
      "raw": "0xf86f8196850dcf653bee83015f909405c75de56e6dd252880ea8f35695c43bd837f16e89059d7ab27ac3b02800801ca0712b3611289b6d95adcd42d069f4d72f475149f63c341312c814a2420e93638ca075a26d7cacb08a83872b22fea1c00e30795aceb703e22c330e8b036dec940983",
      "networkId": 0,
      "chainId": 0
    },
    {
      "hash": "0x1285caa38a8b20c9e5d65e9db6ca6e2f74be86ac74790dec8d76e1e32b9627db",
      "blockHash": "0xf68113561b04b030e4a6d8b41d9dad4f963165dbbc815c2e961197d35deddec9",
      "blockNumber": 94718,
      "transactionIndex": 1,
      "confirmations": null,
      "from": "0x4369BF4867c99a39513Bb176d468A7e326F3a542",
      "gasPrice": {
        "_hex": "0xd8d138627"
      },
      "gasLimit": {
        "_hex": "0x5208"
      },
      "to": "0x32Be343B94f860124dC4fEe278FDCBD38C102D88",
      "value": {
        "_hex": "0x58baf5c0ef1cac00"
      },
      "nonce": 4,
      "data": "0x",
      "r": "0x36090bb22819e6b1644a9f49ea2f6696adeb63be2685c2621553d333699cada5",
      "s": "0x0eaeab7019d6f35a1336bdc3fbc5ee25745df1335a0f3e96241f6323c35301cf",
      "v": 28,
      "creates": null,
      "raw": "0xf86c04850d8d1386278252089432be343b94f860124dc4fee278fdcbd38c102d888858baf5c0ef1cac00801ca036090bb22819e6b1644a9f49ea2f6696adeb63be2685c2621553d333699cada5a00eaeab7019d6f35a1336bdc3fbc5ee25745df1335a0f3e96241f6323c35301cf",
      "networkId": 0,
      "chainId": 0
    },
    {
      "hash": "0x2975692dbbda2102b5c3090305e09e368f40d9d219107e4e2260a64439163e28",
      "blockHash": "0xf68113561b04b030e4a6d8b41d9dad4f963165dbbc815c2e961197d35deddec9",
      "blockNumber": 94718,
      "transactionIndex": 2,
      "confirmations": null,
      "from": "0xF18446BCC37B179f7ccc3De19387269cE04023F1",
      "gasPrice": {
        "_hex": "0xd8d138627"
      },
      "gasLimit": {
        "_hex": "0x5208"
      },
      "to": "0x32Be343B94f860124dC4fEe278FDCBD38C102D88",
      "value": {
        "_hex": "0x3348bf7b2c250c00"
      },
      "nonce": 4,
      "data": "0x",
      "r": "0x4aa6371249172b7ec1f70dab1ee6efbf409b8bb33d2e934cfad2a79650b9a20e",
      "s": "0x70ad22da85187bcf48c0b5c5f1113d81ee148d66869bbcb4475832d4a4a5c702",
      "v": 27,
      "creates": null,
      "raw": "0xf86c04850d8d1386278252089432be343b94f860124dc4fee278fdcbd38c102d88883348bf7b2c250c00801ba04aa6371249172b7ec1f70dab1ee6efbf409b8bb33d2e934cfad2a79650b9a20ea070ad22da85187bcf48c0b5c5f1113d81ee148d66869bbcb4475832d4a4a5c702",
      "networkId": 0,
      "chainId": 0
    }
  ]
}