{
  "hash": "0x386dd41d9d6ef7b4684868b2f2fc30eb1f2d0a052bec4173737f9c8ca047778c",
  "parentHash": "0xdb9c147a595a4caa0f8b775ee7a02236b8e52256be539f0adbb12c0613bb29a9",
  "number": 109212,
  "timestamp": 1439952670,
  "nonce": "0x845bc034c9b6a6c4",
  "difficulty": 4464720026847,
  "gasLimit": {
    "_hex": "0x2fefd8"
  },
  "gasUsed": {
    "_hex": "0x5208"
  },
  "miner": "0xC603Ab5ef41fC61AA8b76bEddb09e3Cfcbb174BD",
  "extraData": "0x476574682f76312e302e312f77696e646f77732f676f312e342e32",
  "transactions": [
    {
      "hash": "0x1c2a989f7ec89611532ed45e9eeebbaa33699411502435aa6c0102dad4a8dbc5",
      "blockHash": "0x386dd41d9d6ef7b4684868b2f2fc30eb1f2d0a052bec4173737f9c8ca047778c",
      "blockNumber": 109212,
      "transactionIndex": 0,
      "confirmations": null,
      "from": "0x0d13f392404e2a5ef1cB11B44d7C0d47a69359Aa",
      "gasPrice": {
        "_hex": "0xd4276d9a9"
      },
      "gasLimit": {
        "_hex": "0x5208"
      },
      "to": "0x32Be343B94f860124dC4fEe278FDCBD38C102D88",
      "value": {
        "_hex": "0x2ae47407894b2800"
      },
      "nonce": 0,
      "data": "0x",
      "r": "0x2f3bda59d1adc1ca51a20c320fd73e3716c423041930172bd6e89cae97457d03",
      "s": "0x0beb0a4c884861e0ea884813b37d013bbeb92e7bc25c269c026709506a404c49",
      "v": 28,
      "creates": null,
      "raw": "0xf86c80850d4276d9a98252089432be343b94f860124dc4fee278fdcbd38c102d88882ae47407894b2800801ca02f3bda59d1adc1ca51a20c320fd73e3716c423041930172bd6e89cae97457d03a00beb0a4c884861e0ea884813b37d013bbeb92e7bc25c269c026709506a404c49",
      "networkId": 0,
      "chainId": 0
    }
  ]
}