{
  "hash": "0x419a688f37c4467d0a4db9fbd6e65bd244c191007eecfe5423f639f84e579ab8",
  "parentHash": "0xba530a4e13fdcbfd19140470b2548b152052ae5faf4ffbfbf4806f427409ea4b",
  "number": 111078,
  "timestamp": 1439984261,
  "nonce": "0x66e74c8df76985c1",
  "difficulty": 4420348053269,
  "gasLimit": {
    "_hex": "0x2fefd8"
  },
  "gasUsed": {
    "_hex": "0x5208"
  },
  "miner": "0xe6A7a1d47ff21B6321162AEA7C6CB457D5476Bca",
  "extraData": "0x476574682f76312e302e312d38326566323666362f6c696e75782f676f312e34",
  "transactions": [
    {
      "hash": "0x9725288f1ef48afed89c32b3e0e35178aea4976f51a5506bf8c875da86b2f16f",
      "blockHash": "0x419a688f37c4467d0a4db9fbd6e65bd244c191007eecfe5423f639f84e579ab8",
      "blockNumber": 111078,
      "transactionIndex": 0,
      "confirmations": null,
      "from": "0x32Be343B94f860124dC4fEe278FDCBD38C102D88",
      "gasPrice": {
        "_hex": "0xce30d634f"
      },
      "gasLimit": {
        "_hex": "0x5208"
      },
      "to": "0x3dd309ba127D104e1bdF8D6b4D361d95be829F21",
      "value": {
        "_hex": "0x3635a626d36ee00000"
      },
      "nonce": 1298,
      "data": "0x",
      "r": "0xbcc54d6403f8200c0fad7b37c4039390c9e0d43e04d9282f2d1f4158f1f21de6",
      "s": "0x04d52ef328a4b32a7de83eb78899e5b5e321d070869666f1e1fe96b1b3ce9f4e",
      "v": 28,
      "creates": null,
      "raw": "0xf86f820512850ce30d634f825208943dd309ba127d104e1bdf8d6b4d361d95be829f21893635a626d36ee00000801ca0bcc54d6403f8200c0fad7b37c4039390c9e0d43e04d9282f2d1f4158f1f21de6a004d52ef328a4b32a7de83eb78899e5b5e321d070869666f1e1fe96b1b3ce9f4e",
      "networkId": 0,
      "chainId": 0
    }
  ]
}