{
  "hash": "0xa26d8446e2075b81bf5eb5885babd3a2f99d95c761a6d7f4d1276b96232352d5",
  "parentHash": "0x83b1b5b116e244bbd4de6061c96820820a81992f3082396d1032b6df983dfb70",
  "number": 98623,
  "timestamp": 1439776127,
  "nonce": "0xc8ae1340c262fde2",
  "difficulty": 3844293717447,
  "gasLimit": {
    "_hex": "0x2fefd8"
  },
  "gasUsed": {
    "_hex": "0xa410"
  },
  "miner": "0xe6A7a1d47ff21B6321162AEA7C6CB457D5476Bca",
  "extraData": "0x476574682f76312e302e312d38326566323666362f6c696e75782f676f312e34",
  "transactions": [
    {
      "hash": "0xb71cd90d961a9f6b6a2e9a84d241a337962ca92995f64b510c8861a7ed898e8a",
      "blockHash": "0xa26d8446e2075b81bf5eb5885babd3a2f99d95c761a6d7f4d1276b96232352d5",
      "blockNumber": 98623,
      "transactionIndex": 0,
      "confirmations": null,
      "from": "0x790b8a3cE86E707ED0eD32bF89B3269692a23CC1",
      "gasPrice": {
        "_hex": "0xcf223c61b"
      },
      "gasLimit": {
        "_hex": "0x15f90"
      },
      "to": "0x4D67f4F0Db45b3B5a3424B39ed8d972F710381D5",
      "value": {
        "_hex": "0x2c2612051fb620000"
      },
      "nonce": 19,
      "data": "0x",
      "r": "0xe84fd9f5bf3d54231ce26d0dbaab10b61772e26211fad377996b13be8d01e582",
      "s": "0x25b844e792b868b45c66f28566d4cd8cf51fb8318b8b00816d3bce70e0b3cedd",
      "v": 28,
      "creates": null,
      "raw": "0xf86e13850cf223c61b83015f90944d67f4f0db45b3b5a3424b39ed8d972f710381d58902c2612051fb620000801ca0e84fd9f5bf3d54231ce26d0dbaab10b61772e26211fad377996b13be8d01e582a025b844e792b868b45c66f28566d4cd8cf51fb8318b8b00816d3bce70e0b3cedd",
      "networkId": 0,
      "chainId": 0
    },
    {
      "hash": "0xcec98c74fa617309cf31ba380d311328a16ce9c5bc7fbf8ab30f00c0bda2fb32",
      "blockHash": "0xa26d8446e2075b81bf5eb5885babd3a2f99d95c761a6d7f4d1276b96232352d5",
      "blockNumber": 98623,
      "transactionIndex": 1,
      "confirmations": null,
      "from": "0x3D5292e9d2a2D31014717ff936A0F9375A5Cc8b7",
      "gasPrice": {
        "_hex": "0xcd958726a"
      },
      "gasLimit": {
        "_hex": "0x15f90"
      },
      "to": "0x9f78552704fe7e52cC7C3853534aA2C3cf580D54",
      "value": {
        "_hex": "0x70c1cc73b00c80000"
      },
      "nonce": 6,
      "data": "0x",
      "r": "0x0146de59af8162488fd2a93bbc84c13fed39cac76dac08f974286128aa9f7a7b",
      "s": "0x0b31dafea669aa84110dc40600e2d24c98c0f31b2d82655ac2767f7a44bd6eaf",
      "v": 27,
      "creates": null,
      "raw": "0xf86e06850cd958726a83015f90949f78552704fe7e52cc7c3853534aa2c3cf580d5489070c1cc73b00c80000801ba00146de59af8162488fd2a93bbc84c13fed39cac76dac08f974286128aa9f7a7ba00b31dafea669aa84110dc40600e2d24c98c0f31b2d82655ac2767f7a44bd6eaf",
      "networkId": 0,
      "chainId": 0
    }
  ]
}