{
  "hash": "0x33eeeb383cbe54a952f5850d34d11b6cdb90bd972d2a28d2cde82ee67b1400f8",
  "parentHash": "0xd7a57aac371db7a4a7a9d01eb3a7b4cb39053ded13770e0c26a7726b21676fb2",
  "number": 74182,
  "timestamp": 1439381785,
  "nonce": "0x8ecd3bd28e484c54",
  "difficulty": 2225957237990,
  "gasLimit": {
    "_hex": "0x2fefd8"
  },
  "gasUsed": {
    "_hex": "0x5208"
  },
  "miner": "0x55bAf64fc9eAccFFd7Cc643BB61142E1C6ac093e",
  "extraData": "0x",
  "transactions": [
    {
      "hash": "0xf566bd036dcadd5fff49eb673d6e42c4e72b4d3b49a8bc11ff61399675dba58d",
      "blockHash": "0x33eeeb383cbe54a952f5850d34d11b6cdb90bd972d2a28d2cde82ee67b1400f8",
      "blockNumber": 74182,
      "transactionIndex": 0,
      "confirmations": null,
      "from": "0xa5fdA2ef36A7c5963c0f7b55F34Ff3Dd294C06Cb",
      "gasPrice": {
        "_hex": "0xd5e580499"
      },
      "gasLimit": {
        "_hex": "0x15f90"
      },
      "to": "0x120A270bbC009644e35F0bB6ab13f95b8199c4ad",
      "value": {
        "_hex": "0x56ba3d73af34f0000"
      },
      "nonce": 0,
      "data": "0x",
      "r": "0xac55754b0fa85498fe969cb1593ec976c5780954a9685226d0b5c276f2b2efaf",
      "s": "0x13f60028d877c5678d5f950ffd71661bc050d10d8384ec4aeb98b04c4a6d8785",
      "v": 27,
      "creates": null,
      "raw": "0xf86e80850d5e58049983015f9094120a270bbc009644e35f0bb6ab13f95b8199c4ad89056ba3d73af34f0000801ba0ac55754b0fa85498fe969cb1593ec976c5780954a9685226d0b5c276f2b2efafa013f60028d877c5678d5f950ffd71661bc050d10d8384ec4aeb98b04c4a6d8785",
      "networkId": 0,
      "chainId": 0
    }
  ]
}