{
  "hash": "0x995008d6197cd76cf53c645d57c818ba5ba7d768cd4f997ed60a8bcc9a192e94",
  "parentHash": "0xb7cb33ef88dbba5d0aeda687ab80586dd23a66c896f26e6f5e45f2942db957ba",
  "number": 75857,
  "timestamp": 1439410573,
  "nonce": "0xb920f5f3437f036a",
  "difficulty": 2230952832311,
  "gasLimit": {
    "_hex": "0x2fefd8"
  },
  "gasUsed": {
    "_hex": "0xad77"
  },
  "miner": "0x923707da8Dd7Ff41a0bDD87b62c9E5DfA9c420a5",
  "extraData": "0x",
  "transactions": [
    {
      "hash": "0x1474d3b50071e5c1aa3aa3549d728e32d7eee3173aaa0fa102b84d42eed1e1cd",
      "blockHash": "0x995008d6197cd76cf53c645d57c818ba5ba7d768cd4f997ed60a8bcc9a192e94",
      "blockNumber": 75857,
      "transactionIndex": 0,
      "confirmations": null,
      "from": "0x87C5B5874A18B4306DF8a752a6C8cc3E82daFc19",
      "gasPrice": {
        "_hex": "0x108e9bbbe28"
      },
      "gasLimit": {
        "_hex": "0x493e0"
      },
      "to": "0xD79B4C6791784184e2755B2fC1659eaaB0f80456",
      "value": {
        "_hex": "0x0"
      },
      "nonce": 69,
      "data": "0x03750d940000000000000000000000009724ac4dc56e03379eba5d157d1513ecc32cbd8f6335653533343632333964323437623800000000000000000000000000000000",
      "r": "0x4de3ab302ba6963885a1a4970554635fe0d4b9b63c9814b622f1b28cb7100324",
      "s": "0x7465bfe27005651b768b1420cff1b0c54baa76d366c0f2af23a08c6f26e2e5c4",
      "v": 27,
      "creates": null,
      "raw": "0xf8ab45860108e9bbbe28830493e094d79b4c6791784184e2755b2fc1659eaab0f8045680b84403750d940000000000000000000000009724ac4dc56e03379eba5d157d1513ecc32cbd8f63356535333436323339643234376238000000000000000000000000000000001ba04de3ab302ba6963885a1a4970554635fe0d4b9b63c9814b622f1b28cb7100324a07465bfe27005651b768b1420cff1b0c54baa76d366c0f2af23a08c6f26e2e5c4",
      "networkId": 0,
      "chainId": 0
    }
  ]
}