{
  "hash": "0xd58f870cab78111eb39381ce92923eaa3c2260a1fe966270bd01810afa349999",
  "parentHash": "0x4e10492ae08ab8aa45e485e5b0a65436f800d7e5b6031a4a49bc0e7d0b197b60",
  "number": 83522,
  "timestamp": 1439536714,
  "nonce": "0x3c40508032725de3",
  "difficulty": 2432494768969,
  "gasLimit": {
    "_hex": "0x2fefd8"
  },
  "gasUsed": {
    "_hex": "0x57aa"
  },
  "miner": "0xbb7B8287f3F0a933474a79eAe42CBCa977791171",
  "extraData": "0x476574682f4c5649562f76312e302e312f6c696e75782f676f312e342e32",
  "transactions": [
    {
      "hash": "0xb1c55e8cd363eba36173094ec631f884925b76e508fba1f00a8ddd442d0d6984",
      "blockHash": "0xd58f870cab78111eb39381ce92923eaa3c2260a1fe966270bd01810afa349999",
      "blockNumber": 83522,
      "transactionIndex": 0,
      "confirmations": null,
      "from": "0xc8ebccC5F5689Fa8659d83713341e5aD19349448",
      "gasPrice": {
        "_hex": "0xcbc0d2f66"
      },
      "gasLimit": {
        "_hex": "0x15f90"
      },
      "to": "0x96d76ae3397B52D9F61215270DF65D72358709E3",
      "value": {
        "_hex": "0x0"
      },
      "nonce": 61,
      "data": "0x432ced04657468636f696e62617365000000000000000000000000000000000000000000",
      "r": "0x151430586849cf47f3366db6aadbf07712abc4e02f9401356f7b9df2d37a2d24",
      "s": "0x6fd99ca56d2fdd4e9fdbfc02e9a073c477be3a0e8ff7f5fbcbf3d1c6b7775e05",
      "v": 27,
      "creates": null,
      "raw": "0xf8893d850cbc0d2f6683015f909496d76ae3397b52d9f61215270df65d72358709e380a4432ced04657468636f696e626173650000000000000000000000000000000000000000001ba0151430586849cf47f3366db6aadbf07712abc4e02f9401356f7b9df2d37a2d24a06fd99ca56d2fdd4e9fdbfc02e9a073c477be3a0e8ff7f5fbcbf3d1c6b7775e05",
      "networkId": 0,
      "chainId": 0
    }
  ]
}