{
  "hash": "0x69269af56e04d4661f7fdf08e4ce0bfc862c6b60104d1e7058dfbfd89a387341",
  "parentHash": "0x032ecc76e817a3d889a2d041ce72e7c4437f42e030464a7ede027bbf296ea0c4",
  "number": 50434,
  "timestamp": 1438989197,
  "nonce": "0xc882ed925f2839d4",
  "difficulty": 1508953601604,
  "gasLimit": {
    "_hex": "0x6258b"
  },
  "gasUsed": {
    "_hex": "0xf87c"
  },
  "miner": "0xf8E0CA3Ed80bd541b94BEdCf259e8CF2141A9523",
  "extraData": "0x476574682f76312e302e312f77696e646f77732f676f312e342e32",
  "transactions": [
    {
      "hash": "0xd3bc296d1709f5f74631dff70d36aeb059c6ab33b41dc562caf276a28df776b7",
      "blockHash": "0x69269af56e04d4661f7fdf08e4ce0bfc862c6b60104d1e7058dfbfd89a387341",
      "blockNumber": 50434,
      "transactionIndex": 0,
      "confirmations": null,
      "from": "0x3090F8130eC44466afadB36ED3C926133963677B",
      "gasPrice": {
        "_hex": "0x110c8f7d8de"
      },
      "gasLimit": {
        "_hex": "0xc350"
      },
      "to": "0x2910543Af39abA0Cd09dBb2D50200b3E800A63D2",
      "value": {
        "_hex": "0x6c6a539d05cf770000"
      },
      "nonce": 1,
      "data": "0x454e50313332473152",
      "r": "0xa655b4cc3b1b6ea9aac8f0a8f5bb4b4a45bed7271375a6fb52dc0a9b5edbf16b",
      "s": "0x19fe881318cb7fc2935323d572970b90bf5dc3e47f7e40723d91ea8aba3978ac",
      "v": 28,
      "creates": null,
      "raw": "0xf87701860110c8f7d8de82c350942910543af39aba0cd09dbb2d50200b3e800a63d2896c6a539d05cf77000089454e503133324731521ca0a655b4cc3b1b6ea9aac8f0a8f5bb4b4a45bed7271375a6fb52dc0a9b5edbf16ba019fe881318cb7fc2935323d572970b90bf5dc3e47f7e40723d91ea8aba3978ac",
      "networkId": 0,
      "chainId": 0
    },
    {
      "hash": "0x7c4771662f858f61a75655fa881a2ee214b299493027072b07672067a203bd41",
      "blockHash": "0x69269af56e04d4661f7fdf08e4ce0bfc862c6b60104d1e7058dfbfd89a387341",
      "blockNumber": 50434,
      "transactionIndex": 1,
      "confirmations": null,
      "from": "0xc97b6E47df229442524F8f210926557900f81574",
      "gasPrice": {
        "_hex": "0xd00f6f254"
      },
      "gasLimit": {
        "_hex": "0x5208"
      },
      "to": "0x32Be343B94f860124dC4fEe278FDCBD38C102D88",
      "value": {
        "_hex": "0xddc8bfb93ac4400"
      },
      "nonce": 0,
      "data": "0x",
      "r": "0x4ba4d0e2aa9258c64a10161383715f04c24cf6e730c46cf582396cb24590a782",
      "s": "0x10a5df8f041c1709b2325497f93311c354dc2c2188d6966ff7e9a98e05d73bcc",
      "v": 28,
      "creates": null,
      "raw": "0xf86c80850d00f6f2548252089432be343b94f860124dc4fee278fdcbd38c102d88880ddc8bfb93ac4400801ca04ba4d0e2aa9258c64a10161383715f04c24cf6e730c46cf582396cb24590a782a010a5df8f041c1709b2325497f93311c354dc2c2188d6966ff7e9a98e05d73bcc",
      "networkId": 0,
      "chainId": 0
    },
    {
      "hash": "0xfc506cffa015179efa091ac4ff43f35dc9971ab35c0c69fc6d623c69512ceb0b",
      "blockHash": "0x69269af56e04d4661f7fdf08e4ce0bfc862c6b60104d1e7058dfbfd89a387341",
      "blockNumber": 50434,
      "transactionIndex": 2,
      "confirmations": null,
      "from": "0x1da881Fae84444ebEf7B72F3267a4e67Aa61faE9",
      "gasPrice": {
        "_hex": "0xd00f6f254"
      },
      "gasLimit": {
        "_hex": "0x5208"
      },
      "to": "0x32Be343B94f860124dC4fEe278FDCBD38C102D88",
      "value": {
        "_hex": "0x21d37aaa66c844000"
      },
      "nonce": 0,
      "data": "0x",
      "r": "0xce0684268e020c2cf5d89cfc5efac38c62ed8071a8f0fc09e77b14aa3d3f8e35",
      "s": "0x17da42dab1a7c873c3125c4d173651119f31297393541646d9a0e18d9fc5e5d4",
      "v": 28,
      "creates": null,
      "raw": "0xf86d80850d00f6f2548252089432be343b94f860124dc4fee278fdcbd38c102d8889021d37aaa66c844000801ca0ce0684268e020c2cf5d89cfc5efac38c62ed8071a8f0fc09e77b14aa3d3f8e35a017da42dab1a7c873c3125c4d173651119f31297393541646d9a0e18d9fc5e5d4",
      "networkId": 0,
      "chainId": 0
    }
  ]
}