{
  "hash": "0x8080f36ef9b8f4be44185bafc39af5d76607fe8cb54cdd2cabbdf08f038e89f8",
  "parentHash": "0xa72fb1e2d422599412d945219694315952178089511e2303d4a76551beebc857",
  "number": 84559,
  "timestamp": 1439551354,
  "nonce": "0xf49b8ac7840d5ca4",
  "difficulty": 2577704406397,
  "gasLimit": {
    "_hex": "0x2fefd8"
  },
  "gasUsed": {
    "_hex": "0x5208"
  },
  "miner": "0xbb7B8287f3F0a933474a79eAe42CBCa977791171",
  "extraData": "0x476574682f4c5649562f76312e302e312f6c696e75782f676f312e342e32",
  "transactions": [
    {
      "hash": "0xec45de636bea47fb21033300c35f038b931959de4ad116ff132506630ffde316",
      "blockHash": "0x8080f36ef9b8f4be44185bafc39af5d76607fe8cb54cdd2cabbdf08f038e89f8",
      "blockNumber": 84559,
      "transactionIndex": 0,
      "confirmations": null,
      "from": "0x63BBedc46A1113Ba7938CF7C18CCb5Aed20eC733",
      "gasPrice": {
        "_hex": "0xd8150d813"
      },
      "gasLimit": {
        "_hex": "0x15f90"
      },
      "to": "0x0A319A7e0C887F104359e1eEe6717BD8f232d3Da",
      "value": {
        "_hex": "0x498d61eb5d920000"
      },
      "nonce": 8,
      "data": "0x",
      "r": "0xc62f0dbb5730ade924b313fff7055dd5eeb92fee5bb39aeea034c2873dc7bc5a",
      "s": "0x611bf4c227d8e789841803dcfa2e163bae9deda57bb0010f9a35bcbc2124626f",
      "v": 28,
      "creates": null,
      "raw": "0xf86d08850d8150d81383015f90940a319a7e0c887f104359e1eee6717bd8f232d3da88498d61eb5d920000801ca0c62f0dbb5730ade924b313fff7055dd5eeb92fee5bb39aeea034c2873dc7bc5aa0611bf4c227d8e789841803dcfa2e163bae9deda57bb0010f9a35bcbc2124626f",
      "networkId": 0,
      "chainId": 0
    }
  ]
}