{
  "hash": "0x60ea58635f9d05995fe24c3afb103b9182712872409dd7eef66fd28d02c5157e",
  "parentHash": "0xb64131583ceb35ce490c3e141b7515e040d964c3406ec91b4176edcafc72f847",
  "number": 108936,
  "timestamp": 1439948607,
  "nonce": "0xd91c493e83e1cd5b",
  "difficulty": 4387068707977,
  "gasLimit": {
    "_hex": "0x2fefd8"
  },
  "gasUsed": {
    "_hex": "0x546c"
  },
  "miner": "0xC603Ab5ef41fC61AA8b76bEddb09e3Cfcbb174BD",
  "extraData": "0x476574682f76312e302e312f77696e646f77732f676f312e342e32",
  "transactions": [
    {
      "hash": "0x15259e118d4d40c4d5ba163d71174751fbf4d4e608ea23185875976c037d7757",
      "blockHash": "0x60ea58635f9d05995fe24c3afb103b9182712872409dd7eef66fd28d02c5157e",
      "blockNumber": 108936,
      "transactionIndex": 0,
      "confirmations": null,
      "from": "0x231a15acc199c89fa9cb22441Cc70330BDCce617",
      "gasPrice": {
        "_hex": "0x110c8f7d8de"
      },
      "gasLimit": {
        "_hex": "0xc350"
      },
      "to": "0x2910543Af39abA0Cd09dBb2D50200b3E800A63D2",
      "value": {
        "_hex": "0x1b0d04202f47ec0000"
      },
      "nonce": 0,
      "data": "0x454e4d475047374438",
      "r": "0xea3c904a67bda0c6700ed65d117569549aced7a34ac2ef53d235fb1412026207",
      "s": "0xd3b98dfa4eca07c079bd76bc3864f2a3bd7e6daf2e4a6637d272f89b4cb141dd",
      "v": 28,
      "creates": null,
      "raw": "0xf87780860110c8f7d8de82c350942910543af39aba0cd09dbb2d50200b3e800a63d2891b0d04202f47ec000089454e4d4750473744381ca0ea3c904a67bda0c6700ed65d117569549aced7a34ac2ef53d235fb1412026207a0d3b98dfa4eca07c079bd76bc3864f2a3bd7e6daf2e4a6637d272f89b4cb141dd",
      "networkId": 0,
      "chainId": 0
    }
  ]
}