{
  "hash": "0x78d46f8233100cc6aa3f7eeb78887b36a92c1c41d5e12b808f860da8e7eff1a6",
  "parentHash": "0x563f7e8cf28c2f940abae5976b9d8cbb04e1aa01a92b9c005362b107ee1f7589",
  "number": 82953,
  "timestamp": 1439527589,
  "nonce": "0x4fb5f2a023b8fdd2",
  "difficulty": 2407842955819,
  "gasLimit": {
    "_hex": "0x2fefd8"
  },
  "gasUsed": {
    "_hex": "0x5208"
  },
  "miner": "0xe6A7a1d47ff21B6321162AEA7C6CB457D5476Bca",
  "extraData": "0x476574682f76312e302e312d38326566323666362f6c696e75782f676f312e34",
  "transactions": [
    {
      "hash": "0x075a9113bf114653e15beaf2af299b1c7ad2975f88a7c46a64017260bb5c2a92",
      "blockHash": "0x78d46f8233100cc6aa3f7eeb78887b36a92c1c41d5e12b808f860da8e7eff1a6",
      "blockNumber": 82953,
      "transactionIndex": 0,
      "confirmations": null,
      "from": "0x9746c7e1ef2bd21FF3997fa467593a89cb852BD0",
      "gasPrice": {
        "_hex": "0xd76229f3a"
      },
      "gasLimit": {
        "_hex": "0x5208"
      },
      "to": "0xB0bF4A71F730782368Ef660FE6D298F432F95450",
      "value": {
        "_hex": "0x15af1d78b58c400000"
      },
      "nonce": 24,
      "data": "0x",
      "r": "0x635669a209bd5d6b694f089e319d30c3a320cec2539c55153838f8977cf6dcde",
      "s": "0x47bc46afb4f55822b1c6af4ea3dbcb2f02c9072c165fc3afd054c2b23fa3c01e",
      "v": 28,
      "creates": null,
      "raw": "0xf86d18850d76229f3a82520894b0bf4a71f730782368ef660fe6d298f432f954508915af1d78b58c400000801ca0635669a209bd5d6b694f089e319d30c3a320cec2539c55153838f8977cf6dcdea047bc46afb4f55822b1c6af4ea3dbcb2f02c9072c165fc3afd054c2b23fa3c01e",
      "networkId": 0,
      "chainId": 0
    }
  ]
}