{
  "hash": "0xfa7a14cb27c3a1d9607b67f4531860c3471fb544104f1975846508a002e0b42e",
  "parentHash": "0xa21f0ca22a7db267bc5cf9299c9f96743659847d58cd5822f35ae05c77c271f3",
  "number": 90046,
  "timestamp": 1439633259,
  "nonce": "0xc80fd514c8877790",
  "difficulty": 3345029878658,
  "gasLimit": {
    "_hex": "0x2fefd8"
  },
  "gasUsed": {
    "_hex": "0x5208"
  },
  "miner": "0xe6A7a1d47ff21B6321162AEA7C6CB457D5476Bca",
  "extraData": "0x476574682f76312e302e312d38326566323666362f6c696e75782f676f312e34",
  "transactions": [
    {
      "hash": "0x4347b1ba73397506dcbf19d1a0c1ecc279742d7f8b6c6ed32761bd4ac7fe339c",
      "blockHash": "0xfa7a14cb27c3a1d9607b67f4531860c3471fb544104f1975846508a002e0b42e",
      "blockNumber": 90046,
      "transactionIndex": 0,
      "confirmations": null,
      "from": "0x120A270bbC009644e35F0bB6ab13f95b8199c4ad",
      "gasPrice": {
        "_hex": "0xdbf2e0cce"
      },
      "gasLimit": {
        "_hex": "0x3d090"
      },
      "to": "0xc3877edF798a7713bE2fBbB90f594797D3e8C05C",
      "value": {
        "_hex": "0x28bfde2b635000"
      },
      "nonce": 524,
      "data": "0x",
      "r": "0xd6b2f73532d9f9220a85fb4ed7991cb8d608cf4f1495b1129cb2849aadc4d0b5",
      "s": "0x59949099e2a72ff4144f3afe962fff04c60ce53bdbfd6eb174b61cf27b51f3ea",
      "v": 28,
      "creates": null,
      "raw": "0xf86e82020c850dbf2e0cce8303d09094c3877edf798a7713be2fbbb90f594797d3e8c05c8728bfde2b635000801ca0d6b2f73532d9f9220a85fb4ed7991cb8d608cf4f1495b1129cb2849aadc4d0b5a059949099e2a72ff4144f3afe962fff04c60ce53bdbfd6eb174b61cf27b51f3ea",
      "networkId": 0,
      "chainId": 0
    }
  ]
}