{
  "hash": "0x31f8610b181cedb196e74d6bc29732c8045ab013cc698b33b9d0012f1b112921",
  "parentHash": "0x2d6539046cbbf7d235f91dd4e7402f865ab8741ff306e267173e681d352ee1c3",
  "number": 48097,
  "timestamp": 1438951287,
  "nonce": "0xfdb56285c2207bae",
  "difficulty": 1465080024307,
  "gasLimit": {
    "_hex": "0x1288e"
  },
  "gasUsed": {
    "_hex": "0x546c"
  },
  "miner": "0xbb7B8287f3F0a933474a79eAe42CBCa977791171",
  "extraData": "0x476574682f4c5649562f76312e302e312f6c696e75782f676f312e342e32",
  "transactions": [
    {
      "hash": "0x1439406d7c9d1dc7b3f01f5472ef02ae8de17a1bd5a13fdadc1054003be784a6",
      "blockHash": "0x31f8610b181cedb196e74d6bc29732c8045ab013cc698b33b9d0012f1b112921",
      "blockNumber": 48097,
      "transactionIndex": 0,
      "confirmations": null,
      "from": "0x20c6Efe179C293690A5B3375F5bd81c2f07Ed037",
      "gasPrice": {
        "_hex": "0xe682478d2"
      },
      "gasLimit": {
        "_hex": "0x55f0"
      },
      "to": "0x2910543Af39abA0Cd09dBb2D50200b3E800A63D2",
      "value": {
        "_hex": "0xfaaae40cff7e40000"
      },
      "nonce": 1,
      "data": "0x454e45554350585a30",
      "r": "0xcc50dbfb26c9721e9d042da72e534822736e2ef3ebb518f48e93ef210ee8abce",
      "s": "0x409996e36f6699aec104a75ada9d40dd4e935941fe44a48b68832673a4e68933",
      "v": 28,
      "creates": null,
      "raw": "0xf87601850e682478d28255f0942910543af39aba0cd09dbb2d50200b3e800a63d2890faaae40cff7e4000089454e45554350585a301ca0cc50dbfb26c9721e9d042da72e534822736e2ef3ebb518f48e93ef210ee8abcea0409996e36f6699aec104a75ada9d40dd4e935941fe44a48b68832673a4e68933",
      "networkId": 0,
      "chainId": 0
    }
  ]
}