{
  "hash": "0x46e4e55e3c83f77e895a4786fab09d5994bd01401bac13cf522ae3aa066cc874",
  "parentHash": "0x46fb482672a878b60d50823c32ec3e8f1ca65144f9ff7f8af1626613d0ee395f",
  "number": 91613,
  "timestamp": 1439658469,
  "nonce": "0x6c74a26ef8b125a4",
  "difficulty": 3503195483714,
  "gasLimit": {
    "_hex": "0x2fefd8"
  },
  "gasUsed": {
    "_hex": "0x5208"
  },
  "miner": "0xfC25864D8326b4CB335C6942218e5F4Ee8D1E1EF",
  "extraData": "0x476574682f76312e302e312f77696e646f77732f676f312e342e32",
  "transactions": [
    {
      "hash": "0x7fa5bde7842e30be56c2bc43dac725ab07a0a29543692cbfd24145aab9822845",
      "blockHash": "0x46e4e55e3c83f77e895a4786fab09d5994bd01401bac13cf522ae3aa066cc874",
      "blockNumber": 91613,
      "transactionIndex": 0,
      "confirmations": null,
      "from": "0xc27376f45D21E15edE3b26F2655FceE02Ccc0F2a",
      "gasPrice": {
        "_hex": "0x1023474e5f9"
      },
      "gasLimit": {
        "_hex": "0x5208"
      },
      "to": "0x8275f23188E1EB190f386D35ecef64364FCCdAEE",
      "value": {
        "_hex": "0x12309ce54000"
      },
      "nonce": 5,
      "data": "0x",
      "r": "0x1b5fa75b75dddabe696202c4e5aa32b9796f16c220c7d2b166a8dabac1adeea8",
      "s": "0x6a7d91b40abb8a8be8197bb1ff28a42a9d984aed57f4920439f2f424a402437a",
      "v": 27,
      "creates": null,
      "raw": "0xf86b058601023474e5f9825208948275f23188e1eb190f386d35ecef64364fccdaee8612309ce54000801ba01b5fa75b75dddabe696202c4e5aa32b9796f16c220c7d2b166a8dabac1adeea8a06a7d91b40abb8a8be8197bb1ff28a42a9d984aed57f4920439f2f424a402437a",
      "networkId": 0,
      "chainId": 0
    }
  ]
}