{
  "hash": "0x8f3a451b880a2817951f9344427b08969a6cf231441f012c85b264815e9c694c",
  "parentHash": "0xc2eb380fbd0868ed65ea0fc7c4265fb70f09af5e4f650c8b5e761fb232097501",
  "number": 94648,
  "timestamp": 1439711565,
  "nonce": "0xb01bc9004a21c342",
  "difficulty": 3510488331273,
  "gasLimit": {
    "_hex": "0x2fefd8"
  },
  "gasUsed": {
    "_hex": "0x42a68"
  },
  "miner": "0xe6A7a1d47ff21B6321162AEA7C6CB457D5476Bca",
  "extraData": "0x476574682f76312e302e312d38326566323666362f6c696e75782f676f312e34",
  "transactions": [
    {
      "hash": "0x5915ba25d4f9e14c986989003ccd075361d05f6b5ac53a62d3dadfba1d31613e",
      "blockHash": "0x8f3a451b880a2817951f9344427b08969a6cf231441f012c85b264815e9c694c",
      "blockNumber": 94648,
      "transactionIndex": 0,
      "confirmations": null,
      "from": "0xe6A7a1d47ff21B6321162AEA7C6CB457D5476Bca",
      "gasPrice": {
        "_hex": "0xdcac737c2"
      },
      "gasLimit": {
        "_hex": "0x55f0"
      },
      "to": "0x315260950914163880F3AD5A7FEEC87407fa4868",
      "value": {
        "_hex": "0x1ac779d8bc52b110"
      },
      "nonce": 2595,
      "data": "0x",
      "r": "0x6f5b332953b166815dccbaa49c0c1ef7ba5ecefcf078e62343e8e18b07256a68",
      "s": "0x01a0cae664e134aa3fe070ca31ea2566465f80b4274592b183e30382d38b6d0b",
      "v": 27,
      "creates": null,
      "raw": "0xf86e820a23850dcac737c28255f094315260950914163880f3ad5a7feec87407fa4868881ac779d8bc52b110801ba06f5b332953b166815dccbaa49c0c1ef7ba5ecefcf078e62343e8e18b07256a68a001a0cae664e134aa3fe070ca31ea2566465f80b4274592b183e30382d38b6d0b",
      "networkId": 0,
      "chainId": 0
    },
    {
      "hash": "0xf8e9ab2b32f9d2691a5c9e6f577fb4fe412d9b8ee6b1a0f1a949291a7abc3f86",
      "blockHash": "0x8f3a451b880a2817951f9344427b08969a6cf231441f012c85b264815e9c694c",
      "blockNumber": 94648,
      "transactionIndex": 1,
      "confirmations": null,
      "from": "0xe6A7a1d47ff21B6321162AEA7C6CB457D5476Bca",
      "gasPrice": {
        "_hex": "0xdcac737c2"
      },
      "gasLimit": {
        "_hex": "0x55f0"
      },
      "to": "0x8FA820f3a6469c4E450dC6bBb84d42Ae75AB24Af",
      "value": {
        "_hex": "0x1aca63ef4537bb1c"
      },
      "nonce": 2596,
      "data": "0x",
      "r": "0x48bbcc90769d61535c385abd68305f2ea12c90bf8e5d0cd04847df36be894fc1",
      "s": "0x54d043b3fb4d4591e53e00a2e674eb3d4a9646056aec4deb5ae566fc454befe6",
      "v": 27,
      "creates": null,
      "raw": "0xf86e820a24850dcac737c28255f0948fa820f3a6469c4e450dc6bbb84d42ae75ab24af881aca63ef4537bb1c801ba048bbcc90769d61535c385abd68305f2ea12c90bf8e5d0cd04847df36be894fc1a054d043b3fb4d4591e53e00a2e674eb3d4a9646056aec4deb5ae566fc454befe6",
      "networkId": 0,
      "chainId": 0
    },
    {
      "hash": "0xbdb40cb10229f78948ec5dbbc8e8e1d62efb41380e6d29a4da85442a80fc4ff2",
      "blockHash": "0x8f3a451b880a2817951f9344427b08969a6cf231441f012c85b264815e9c694c",
      "blockNumber": 94648,
      "transactionIndex": 2,
      "confirmations": null,
      "from": "0xe6A7a1d47ff21B6321162AEA7C6CB457D5476Bca",
      "gasPrice": {
        "_hex": "0xdcac737c2"
      },
      "gasLimit": {
        "_hex": "0x55f0"
      },
      "to": "0x911C819565DA29661e97381cbde506ACF7aabf65",
      "value": {
        "_hex": "0x1b1ce05359756420"
      },
      "nonce": 2597,
      "data": "0x",
      "r": "0x29f03f889a3eb424dfb193489493b2a9d4c76f9c2a6e8e6a6480b83563fed5c6",
      "s": "0x69db81f6ed2a0fac78858f21e287ce6ea0f77126b03288ec6dc64771f2f3ec82",
      "v": 27,
      "creates": null,
      "raw": "0xf86e820a25850dcac737c28255f094911c819565da29661e97381cbde506acf7aabf65881b1ce05359756420801ba029f03f889a3eb424dfb193489493b2a9d4c76f9c2a6e8e6a6480b83563fed5c6a069db81f6ed2a0fac78858f21e287ce6ea0f77126b03288ec6dc64771f2f3ec82",
      "networkId": 0,
      "chainId": 0
    },
    {
      "hash": "0xfaaeba61860531575941582989f88f01be389cc667b906a3223ff4e26b16e94d",
      "blockHash": "0x8f3a451b880a2817951f9344427b08969a6cf231441f012c85b264815e9c694c",
      "blockNumber": 94648,
      "transactionIndex": 3,
      "confirmations": null,
      "from": "0xe6A7a1d47ff21B6321162AEA7C6CB457D5476Bca",
      "gasPrice": {
        "_hex": "0xdcac737c2"
      },
      "gasLimit": {
        "_hex": "0x55f0"
      },
      "to": "0x905364aFd546a2e96f44A41071b83C0258Bf17dA",
      "value": {
        "_hex": "0x1b3bf80c8a4a18d0"
      },
      "nonce": 2598,
      "data": "0x",
      "r": "0xe20d8bcb1625a04f16a0feb160ed833e1905f38cc74a32edfdf7f2b7a4ee2b28",
      "s": "0x3f24036d90f76adc12fa441fa7659d71b890060766f54396843deb42f5da3851",
      "v": 27,
      "creates": null,
      "raw": "0xf86e820a26850dcac737c28255f094905364afd546a2e96f44a41071b83c0258bf17da881b3bf80c8a4a18d0801ba0e20d8bcb1625a04f16a0feb160ed833e1905f38cc74a32edfdf7f2b7a4ee2b28a03f24036d90f76adc12fa441fa7659d71b890060766f54396843deb42f5da3851",
      "networkId": 0,
      "chainId": 0
    },
    {
      "hash": "0x2a911a8fa3eff6ea09a14e2e90a4a218df6a2f6e9ee9326df88fdd5377d18244",
      "blockHash": "0x8f3a451b880a2817951f9344427b08969a6cf231441f012c85b264815e9c694c",
      "blockNumber": 94648,
      "transactionIndex": 4,
      "confirmations": null,
      "from": "0xe6A7a1d47ff21B6321162AEA7C6CB457D5476Bca",
      "gasPrice": {
        "_hex": "0xdcac737c2"
      },
      "gasLimit": {
        "_hex": "0x55f0"
      },
      "to": "0xA4fbA5C740C8141d6c4469eD292bfCC8cCAc774F",
      "value": {
        "_hex": "0x1b6ea1c3368ee50c"
      },
      "nonce": 2599,
      "data": "0x",
      "r": "0x27654fcb8bf65c1007fa050ea78c2f619dd6a9926051fc543d274472f5fe7f32",
      "s": "0x604277be093391aeeaa531c5aa11d1446efcb2165f89fa99d5065564d2febdc7",
      "v": 27,
      "creates": null,
      "raw": "0xf86e820a27850dcac737c28255f094a4fba5c740c8141d6c4469ed292bfcc8ccac774f881b6ea1c3368ee50c801ba027654fcb8bf65c1007fa050ea78c2f619dd6a9926051fc543d274472f5fe7f32a0604277be093391aeeaa531c5aa11d1446efcb2165f89fa99d5065564d2febdc7",
      "networkId": 0,
      "chainId": 0
    },
    {
      "hash": "0x2b7f935548b3d3d859e08907aa1be2bfcc32c06f62097f75c494043fd095c61d",
      "blockHash": "0x8f3a451b880a2817951f9344427b08969a6cf231441f012c85b264815e9c694c",
      "blockNumber": 94648,
      "transactionIndex": 5,
      "confirmations": null,
      "from": "0xe6A7a1d47ff21B6321162AEA7C6CB457D5476Bca",
      "gasPrice": {
        "_hex": "0xdcac737c2"
      },
      "gasLimit": {
        "_hex": "0x55f0"
      },
      "to": "0xF53cEB46156c2a0bC1a7aAd59774F5DfDA068CEc",
      "value": {
        "_hex": "0x1b75dd994345f510"
      },
      "nonce": 2600,
      "data": "0x",
      "r": "0xe7d3dc036007e71b71fc41306fcfd5b5e66b947ed84257cd8d930d930cf7f81a",
      "s": "0x64bf2518250cf9ccf2a2323c97b61c8fb881f98c855dcce64285457c5db991db",
      "v": 27,
      "creates": null,
      "raw": "0xf86e820a28850dcac737c28255f094f53ceb46156c2a0bc1a7aad59774f5dfda068cec881b75dd994345f510801ba0e7d3dc036007e71b71fc41306fcfd5b5e66b947ed84257cd8d930d930cf7f81aa064bf2518250cf9ccf2a2323c97b61c8fb881f98c855dcce64285457c5db991db",
      "networkId": 0,
      "chainId": 0
    },
    {
      "hash": "0xde9041f488d5f9af1cb81f4d63dd7ebc9070f0607c05426996181d8bc7595009",
      "blockHash": "0x8f3a451b880a2817951f9344427b08969a6cf231441f012c85b264815e9c694c",
      "blockNumber": 94648,
      "transactionIndex": 6,
      "confirmations": null,
      "from": "0xe6A7a1d47ff21B6321162AEA7C6CB457D5476Bca",
      "gasPrice": {
        "_hex": "0xdcac737c2"
      },
      "gasLimit": {
        "_hex": "0x55f0"
      },
      "to": "0xbE97502418b30440315e0F5c824943C7500ce91A",
      "value": {
        "_hex": "0x1ba050debe657918"
      },
      "nonce": 2601,
      "data": "0x",
      "r": "0xafd369dafcb4666e1ff885ce2070ddf9fa336ccec62474e501cfcde212bf4945",
      "s": "0x2d8c3514e449801652a42460ed20843ad97a65b5c7147a4b96147cf0bcf82019",
      "v": 28,
      "creates": null,
      "raw": "0xf86e820a29850dcac737c28255f094be97502418b30440315e0f5c824943c7500ce91a881ba050debe657918801ca0afd369dafcb4666e1ff885ce2070ddf9fa336ccec62474e501cfcde212bf4945a02d8c3514e449801652a42460ed20843ad97a65b5c7147a4b96147cf0bcf82019",
      "networkId": 0,
      "chainId": 0
    },
    {
      "hash": "0xffbb9595102152912914df46f096ea78527767dd2b78d2ba87607ccf4f3aa6c0",
      "blockHash": "0x8f3a451b880a2817951f9344427b08969a6cf231441f012c85b264815e9c694c",
      "blockNumber": 94648,
      "transactionIndex": 7,
      "confirmations": null,
      "from": "0xe6A7a1d47ff21B6321162AEA7C6CB457D5476Bca",
      "gasPrice": {
        "_hex": "0xdcac737c2"
      },
      "gasLimit": {
        "_hex": "0x55f0"
      },
      "to": "0x7812D42e3DDAaC2BFB738279ED0F7026Ef0Eef4D",
      "value": {
        "_hex": "0x1bb39d6c0873c11c"
      },
      "nonce": 2602,
      "data": "0x",
      "r": "0xc96be71e317873064c68738f60531d946977be09dd18c48133a036dbd42f8cd4",
      "s": "0x1b2cd751112b0bedf29dc616c42d3ad6a763d62ecaa858efaf37cc77ccae3d96",
      "v": 28,
      "creates": null,
      "raw": "0xf86e820a2a850dcac737c28255f0947812d42e3ddaac2bfb738279ed0f7026ef0eef4d881bb39d6c0873c11c801ca0c96be71e317873064c68738f60531d946977be09dd18c48133a036dbd42f8cd4a01b2cd751112b0bedf29dc616c42d3ad6a763d62ecaa858efaf37cc77ccae3d96",
      "networkId": 0,
      "chainId": 0
    },
    {
      "hash": "0xd39ae69e757bc429b6b53e322ced2817f1cfab3ba540f1c32a68a33d1f5867d0",
      "blockHash": "0x8f3a451b880a2817951f9344427b08969a6cf231441f012c85b264815e9c694c",
      "blockNumber": 94648,
      "transactionIndex": 8,
      "confirmations": null,
      "from": "0xe6A7a1d47ff21B6321162AEA7C6CB457D5476Bca",
      "gasPrice": {
        "_hex": "0xdcac737c2"
      },
      "gasLimit": {
        "_hex": "0x55f0"
      },
      "to": "0xaEDBC952F1334C1Bf1bAE3326F3dc9E405235c21",
      "value": {
        "_hex": "0x1bc2a55edcb8a31c"
      },
      "nonce": 2603,
      "data": "0x",
      "r": "0xd77d8a50aa6fdf9ba778176c137c6069b400207919e24c080ea69acb57ec393d",
      "s": "0x05fea0926a99dd19b421c96f17fb2d6b7173eaad1bb00c65c978fcc6a1756683",
      "v": 27,
      "creates": null,
      "raw": "0xf86e820a2b850dcac737c28255f094aedbc952f1334c1bf1bae3326f3dc9e405235c21881bc2a55edcb8a31c801ba0d77d8a50aa6fdf9ba778176c137c6069b400207919e24c080ea69acb57ec393da005fea0926a99dd19b421c96f17fb2d6b7173eaad1bb00c65c978fcc6a1756683",
      "networkId": 0,
      "chainId": 0
    },
    {
      "hash": "0x75a3e976b859e18bcecf502a5e43fcf81b07901cdbb4f436769d76b51e6e8ea9",
      "blockHash": "0x8f3a451b880a2817951f9344427b08969a6cf231441f012c85b264815e9c694c",
      "blockNumber": 94648,
      "transactionIndex": 9,
      "confirmations": null,
      "from": "0xe6A7a1d47ff21B6321162AEA7C6CB457D5476Bca",
      "gasPrice": {
        "_hex": "0xdcac737c2"
      },
      "gasLimit": {
        "_hex": "0x55f0"
      },
      "to": "0xc47d9E6C75d388Aeb92574429dAD43A148f2f3ea",
      "value": {
        "_hex": "0x1c012abf7a95ddd8"
      },
      "nonce": 2604,
      "data": "0x",
      "r": "0xaa752814065a652a09bc4f444f97c47ca5f92df4363fbaa78ab7d12799154342",
      "s": "0x7302ac714791bff3f69053607ddfe6fdf76a27915c7aa764cb2db8f9c3b40fd0",
      "v": 27,
      "creates": null,
      "raw": "0xf86e820a2c850dcac737c28255f094c47d9e6c75d388aeb92574429dad43a148f2f3ea881c012abf7a95ddd8801ba0aa752814065a652a09bc4f444f97c47ca5f92df4363fbaa78ab7d12799154342a07302ac714791bff3f69053607ddfe6fdf76a27915c7aa764cb2db8f9c3b40fd0",
      "networkId": 0,
      "chainId": 0
    },
    {
      "hash": "0x9ce9817cf935b05fbb7012b194ed99b61e3b9f7d831e8074a707fee34392cf62",
      "blockHash": "0x8f3a451b880a2817951f9344427b08969a6cf231441f012c85b264815e9c694c",
      "blockNumber": 94648,
      "transactionIndex": 10,
      "confirmations": null,
      "from": "0xe6A7a1d47ff21B6321162AEA7C6CB457D5476Bca",
      "gasPrice": {
        "_hex": "0xdcac737c2"
      },
      "gasLimit": {
        "_hex": "0x55f0"
      },
      "to": "0x8C93d2F70d641AC1F4cCc3287E2A1376Ce3c7DCC",
      "value": {
        "_hex": "0x1c0e992bed7f4edc"
      },
      "nonce": 2605,
      "data": "0x",
      "r": "0x15925d46c869bd8d7cff741267842eb73d4b6a3f8a1f9b23e66bc5b929b4237d",
      "s": "0x2463088eb758e9e968abcef4ffc8748a448391b226138a15a455c60b0f9dbd43",
      "v": 27,
      "creates": null,
      "raw": "0xf86e820a2d850dcac737c28255f0948c93d2f70d641ac1f4ccc3287e2a1376ce3c7dcc881c0e992bed7f4edc801ba015925d46c869bd8d7cff741267842eb73d4b6a3f8a1f9b23e66bc5b929b4237da02463088eb758e9e968abcef4ffc8748a448391b226138a15a455c60b0f9dbd43",
      "networkId": 0,
      "chainId": 0
    },
    {
      "hash": "0x9650d630886cd2d4a998dc7c9946638693d6c6c1b70eb6741b16a86508f8360e",
      "blockHash": "0x8f3a451b880a2817951f9344427b08969a6cf231441f012c85b264815e9c694c",
      "blockNumber": 94648,
      "transactionIndex": 11,
      "confirmations": null,
      "from": "0xe6A7a1d47ff21B6321162AEA7C6CB457D5476Bca",
      "gasPrice": {
        "_hex": "0xdcac737c2"
      },
      "gasLimit": {
        "_hex": "0x55f0"
      },
      "to": "0x1049cb6C4223942Bb3Ed14e47b27c7478449deB2",
      "value": {
        "_hex": "0x1c133747f99a5e28"
      },
      "nonce": 2606,
      "data": "0x",
      "r": "0xb653b4fbb65392674bd487286f4ad639b5e555669b905c54ef69ff582e79c2a0",
      "s": "0x3ed9ed15f855da306a22d18bc117d1221378aefb527135a4f1274a6412f18692",
      "v": 28,
      "creates": null,
      "raw": "0xf86e820a2e850dcac737c28255f0941049cb6c4223942bb3ed14e47b27c7478449deb2881c133747f99a5e28801ca0b653b4fbb65392674bd487286f4ad639b5e555669b905c54ef69ff582e79c2a0a03ed9ed15f855da306a22d18bc117d1221378aefb527135a4f1274a6412f18692",
      "networkId": 0,
      "chainId": 0
    },
    {
      "hash": "0x45d1c680ee936dd907fe41e1f65f15674ee84a2a4b2fd5b485dd708170d162b1",
      "blockHash": "0x8f3a451b880a2817951f9344427b08969a6cf231441f012c85b264815e9c694c",
      "blockNumber": 94648,
      "transactionIndex": 12,
      "confirmations": null,
      "from": "0x0D82Cd113DC35DdDA93f38166cD5CDe8b88e36A1",
      "gasPrice": {
        "_hex": "0xd60340b78"
      },
      "gasLimit": {
        "_hex": "0x15f90"
      },
      "to": "0x3764d76beAC9edbf7d8CA710ceea9946F5CF358C",
      "value": {
        "_hex": "0xb1a2bc2ec50000"
      },
      "nonce": 19,
      "data": "0x",
      "r": "0xffdd487052415f8580c9f8e661dd2f2aaa4d0ba2889ea3a1b5dc23d6e3dfeb54",
      "s": "0x54c15f1ea6bcd16f2b0474750ee07738baa645883f093b221c59c244051d7365",
      "v": 27,
      "creates": null,
      "raw": "0xf86c13850d60340b7883015f90943764d76beac9edbf7d8ca710ceea9946f5cf358c87b1a2bc2ec50000801ba0ffdd487052415f8580c9f8e661dd2f2aaa4d0ba2889ea3a1b5dc23d6e3dfeb54a054c15f1ea6bcd16f2b0474750ee07738baa645883f093b221c59c244051d7365",
      "networkId": 0,
      "chainId": 0
    }
  ]
}