{
  "hash": "0x79ccbae39377a4f45e144da42d56d554e36ad0139410ddeb48b861af4bb8c780",
  "parentHash": "0xb291bcfb0c8b5947cd0cc5d51781259968102a279266e5c4bcc3999e6f18430a",
  "number": 88099,
  "timestamp": 1439602633,
  "nonce": "0x38a9c59228c11677",
  "difficulty": 3194149975150,
  "gasLimit": {
    "_hex": "0x2fefd8"
  },
  "gasUsed": {
    "_hex": "0x11a4a"
  },
  "miner": "0xb04a4F5D56cDA604d99A2b8023f307CCF21999eF",
  "extraData": "0x476574682f76312e302e312f77696e646f77732f676f312e342e32",
  "transactions": [
    {
      "hash": "0x666c30ef537f44ecaeed26c7ea8321558ff33ff550fcab68ce7bcb235f803abb",
      "blockHash": "0x79ccbae39377a4f45e144da42d56d554e36ad0139410ddeb48b861af4bb8c780",
      "blockNumber": 88099,
      "transactionIndex": 0,
      "confirmations": null,
      "from": "0xD3a33636677fFF0BE34EC503b9E848b296E0972A",
      "gasPrice": {
        "_hex": "0x10705e26b48"
      },
      "gasLimit": {
        "_hex": "0x15f90"
      },
      "to": "0x0000000000000000000000000000000000000000",
      "value": {
        "_hex": "0xc7d713b49da0000"
      },
      "nonce": 4,
      "data": "0xb214faa53445534e51425851330000000000000000000000000000000000000000000000",
      "r": "0xc0f2a3524e1a2ac50ae04f153f2096570fd7257b06c2525dac39ea0ccc0bb225",
      "s": "0x10287eff2a102756ed9223579e0fcb3cb3e72bd0eb0095e65fe5273957ee25e8",
      "v": 27,
      "creates": null,
      "raw": "0xf8920486010705e26b4883015f90940000000000000000000000000000000000000000880c7d713b49da0000a4b214faa53445534e514258513300000000000000000000000000000000000000000000001ba0c0f2a3524e1a2ac50ae04f153f2096570fd7257b06c2525dac39ea0ccc0bb225a010287eff2a102756ed9223579e0fcb3cb3e72bd0eb0095e65fe5273957ee25e8",
      "networkId": 0,
      "chainId": 0
    },
    {
      "hash": "0x1eae9c6147559c31bf78486c787a8bd5757e963e6666b20236638720ff72f13e",
      "blockHash": "0x79ccbae39377a4f45e144da42d56d554e36ad0139410ddeb48b861af4bb8c780",
      "blockNumber": 88099,
      "transactionIndex": 1,
      "confirmations": null,
      "from": "0xf2Ae859397af92154241eAd0aC7c4ce3bea76E8F",
      "gasPrice": {
        "_hex": "0xcbd6136fb"
      },
      "gasLimit": {
        "_hex": "0x15f90"
      },
      "to": "0x412C794424C331d8794eDf9aa54B4fdaece5F4Fd",
      "value": {
        "_hex": "0x0"
      },
      "nonce": 4,
      "data": "0x90b98a11000000000000000000000000c2b34a73703b5274e7b7ec06f35895ba696bac3f00000000000000000000000000000000000000000000000000000000000003e8",
      "r": "0x5676a0311b679f46b24d782376991bb0bb6c31aaa9bcf635fae36188d24ce029",
      "s": "0x473e53a135985877a1de6dffaf9f6045dc88393526fa674c9e8c5c10dd73f038",
      "v": 28,
      "creates": null,
      "raw": "0xf8aa04850cbd6136fb83015f9094412c794424c331d8794edf9aa54b4fdaece5f4fd80b84490b98a11000000000000000000000000c2b34a73703b5274e7b7ec06f35895ba696bac3f00000000000000000000000000000000000000000000000000000000000003e81ca05676a0311b679f46b24d782376991bb0bb6c31aaa9bcf635fae36188d24ce029a0473e53a135985877a1de6dffaf9f6045dc88393526fa674c9e8c5c10dd73f038",
      "networkId": 0,
      "chainId": 0
    }
  ]
}