{
  "hash": "0x89fec202d95e91ff9340a88b2e8f4f49e19549f508183f536afefad8014b6fb1",
  "parentHash": "0x13419ae91158a365719a36c8e4e59c5db34fc3308635fb9c7dacdd3d1fcc1f79",
  "number": 47978,
  "timestamp": 1438949343,
  "nonce": "0x716dd35666decc76",
  "difficulty": 1460101687059,
  "gasLimit": {
    "_hex": "0x1127b"
  },
  "gasUsed": {
    "_hex": "0xa674"
  },
  "miner": "0x33b01a7fe4A1a5F774Bb73f89A4eF15a6Ffe1141",
  "extraData": "0x476574682f76312e302e312f6c696e75782f676f312e342e32",
  "transactions": [
    {
      "hash": "0x528c89e9a85cbe238dbfe52ea96acb618948bddbc01d88174d3e1821347e1811",
      "blockHash": "0x89fec202d95e91ff9340a88b2e8f4f49e19549f508183f536afefad8014b6fb1",
      "blockNumber": 47978,
      "transactionIndex": 0,
      "confirmations": null,
      "from": "0x7C1D0c9ad434e14754deeA395231be017047e40C",
      "gasPrice": {
        "_hex": "0xe0341b63a"
      },
      "gasLimit": {
        "_hex": "0x5208"
      },
      "to": "0x32Be343B94f860124dC4fEe278FDCBD38C102D88",
      "value": {
        "_hex": "0x56bc2e0b1b8ab8000"
      },
      "nonce": 1,
      "data": "0x",
      "r": "0x2d8f93496d741bf7680a40b0d2adb24c7c6465c774ea8043cbc0b080423b9cd5",
      "s": "0x3f4696c569a5da5c3e91d02804d64a14ee6f0212e55f5308ea4c94c2ab538c22",
      "v": 28,
      "creates": null,
      "raw": "0xf86d01850e0341b63a8252089432be343b94f860124dc4fee278fdcbd38c102d8889056bc2e0b1b8ab8000801ca02d8f93496d741bf7680a40b0d2adb24c7c6465c774ea8043cbc0b080423b9cd5a03f4696c569a5da5c3e91d02804d64a14ee6f0212e55f5308ea4c94c2ab538c22",
      "networkId": 0,
      "chainId": 0
    },
    {
      "hash": "0x16ae54f7964f2d5317fbcbd581c989472ed7107f4fcd65d3adb9f9b7d889c14f",
      "blockHash": "0x89fec202d95e91ff9340a88b2e8f4f49e19549f508183f536afefad8014b6fb1",
      "blockNumber": 47978,
      "transactionIndex": 1,
      "confirmations": null,
      "from": "0xa0A0e65204541Fca9b2fB282cd95138FAE16f809",
      "gasPrice": {
        "_hex": "0xdcab6af52"
      },
      "gasLimit": {
        "_hex": "0x61a8"
      },
      "to": "0x2910543Af39abA0Cd09dBb2D50200b3E800A63D2",
      "value": {
        "_hex": "0x30ca024f987b900000"
      },
      "nonce": 3,
      "data": "0x454e42425057375430",
      "r": "0xb4e926aef7e9b45512fe5f56d7ff0858e631e800e67ed5641b74f58c289aaed1",
      "s": "0x5836fa4d2c5672947f1d4ea2fedb2571124ea9e67c97a4b6ece551bcd80b700c",
      "v": 27,
      "creates": null,
      "raw": "0xf87603850dcab6af528261a8942910543af39aba0cd09dbb2d50200b3e800a63d28930ca024f987b90000089454e424250573754301ba0b4e926aef7e9b45512fe5f56d7ff0858e631e800e67ed5641b74f58c289aaed1a05836fa4d2c5672947f1d4ea2fedb2571124ea9e67c97a4b6ece551bcd80b700c",
      "networkId": 0,
      "chainId": 0
    }
  ]
}