{
  "hash": "0xe0364a6338265a643d6904a1534fb124bcd5c8ad1d7e7171903794d72f8cdfe1",
  "parentHash": "0xf2b99666394b501d13564a91dd97aee14f2405c415908553eafabe7f9f48332d",
  "number": 68489,
  "timestamp": 1439288665,
  "nonce": "0x652b864423362093",
  "difficulty": 2009404378591,
  "gasLimit": {
    "_hex": "0x2fefd8"
  },
  "gasUsed": {
    "_hex": "0xa410"
  },
  "miner": "0xbb7B8287f3F0a933474a79eAe42CBCa977791171",
  "extraData": "0x476574682f4c5649562f76312e302e312f6c696e75782f676f312e342e32",
  "transactions": [
    {
      "hash": "0x3d6015c1450401d5576e2272212755632577dab20f57add8704080ba06ef5fd0",
      "blockHash": "0xe0364a6338265a643d6904a1534fb124bcd5c8ad1d7e7171903794d72f8cdfe1",
      "blockNumber": 68489,
      "transactionIndex": 0,
      "confirmations": null,
      "from": "0xff69D0DaCA53c25BA6026094841F66E48735755A",
      "gasPrice": {
        "_hex": "0xba43b7400"
      },
      "gasLimit": {
        "_hex": "0x5208"
      },
      "to": "0x25874A25158c739e33B036B520Ef44781fCB6851",
      "value": {
        "_hex": "0x653580cf6eb000"
      },
      "nonce": 1,
      "data": "0x",
      "r": "0xef6b0964a2e439d1bae55224ffbe8480587905acc9f3dc3a96881ddc58b5d0ae",
      "s": "0x1515970e4f93e40c7f173d9f496fbba1ee4ad3292c3cf5939e871fc06178b8f0",
      "v": 27,
      "creates": null,
      "raw": "0xf86b01850ba43b74008252089425874a25158c739e33b036b520ef44781fcb685187653580cf6eb000801ba0ef6b0964a2e439d1bae55224ffbe8480587905acc9f3dc3a96881ddc58b5d0aea01515970e4f93e40c7f173d9f496fbba1ee4ad3292c3cf5939e871fc06178b8f0",
      "networkId": 0,
      "chainId": 0
    },
    {
      "hash": "0x185604869ca8920ecb2e44b3cf91780edb89ecdebb4622db4902fd3c75a09b6c",
      "blockHash": "0xe0364a6338265a643d6904a1534fb124bcd5c8ad1d7e7171903794d72f8cdfe1",
      "blockNumber": 68489,
      "transactionIndex": 1,
      "confirmations": null,
      "from": "0x6747f922385c9a6F9cfDf095F34345257DD597bE",
      "gasPrice": {
        "_hex": "0xba43b7400"
      },
      "gasLimit": {
        "_hex": "0x5208"
      },
      "to": "0x685dA9Eb932613E5c8F3187534D395acd044454c",
      "value": {
        "_hex": "0x1fcbfa42bd6000"
      },
      "nonce": 108,
      "data": "0x",
      "r": "0x75e192e891b59c4f836f0b113d0f3737e2528daaf7a252c1b76e587a849212cb",
      "s": "0x1cd33a5d3d8b381d443f620eea9ca60ccef917555db536f5cdba211935c02d07",
      "v": 28,
      "creates": null,
      "raw": "0xf86b6c850ba43b740082520894685da9eb932613e5c8f3187534d395acd044454c871fcbfa42bd6000801ca075e192e891b59c4f836f0b113d0f3737e2528daaf7a252c1b76e587a849212cba01cd33a5d3d8b381d443f620eea9ca60ccef917555db536f5cdba211935c02d07",
      "networkId": 0,
      "chainId": 0
    }
  ]
}