{
  "hash": "0xb8a56a3378a785edbff430281d0130435cf3cb02e581100997dc67426d8800a2",
  "parentHash": "0x27b73547014ec4676e0c9f16db1ce2583c0c90da1fe7d265e936a40e759b18f9",
  "number": 86990,
  "timestamp": 1439585620,
  "nonce": "0x6e1e6fa92af34755",
  "difficulty": 3002488615904,
  "gasLimit": {
    "_hex": "0x2fefd8"
  },
  "gasUsed": {
    "_hex": "0xa410"
  },
  "miner": "0x123843545FB525C8E134c9A5F15ADA6865cc3848",
  "extraData": "0x476574682f76312e302e312f77696e646f77732f676f312e342e32",
  "transactions": [
    {
      "hash": "0xa6a1db441507a81ad3b10a9999b11b409f574195f04bc6998edb3e43154861f1",
      "blockHash": "0xb8a56a3378a785edbff430281d0130435cf3cb02e581100997dc67426d8800a2",
      "blockNumber": 86990,
      "transactionIndex": 0,
      "confirmations": null,
      "from": "0x25F94b76d5D63BF0786FDa36450a7C0Dfb1A4dE8",
      "gasPrice": {
        "_hex": "0xd4870ace3"
      },
      "gasLimit": {
        "_hex": "0x5208"
      },
      "to": "0x32Be343B94f860124dC4fEe278FDCBD38C102D88",
      "value": {
        "_hex": "0x228be3f7a87506000"
      },
      "nonce": 0,
      "data": "0x",
      "r": "0xb9322c7eb5efa401f1f322383e3cec379eb7f3d726d569bfef88766fa559e974",
      "s": "0x7d1e9cf2873690ad9bb469ba15567b1aceeaec3369b1752948425130943b5b6b",
      "v": 27,
      "creates": null,
      "raw": "0xf86d80850d4870ace38252089432be343b94f860124dc4fee278fdcbd38c102d88890228be3f7a87506000801ba0b9322c7eb5efa401f1f322383e3cec379eb7f3d726d569bfef88766fa559e974a07d1e9cf2873690ad9bb469ba15567b1aceeaec3369b1752948425130943b5b6b",
      "networkId": 0,
      "chainId": 0
    },
    {
      "hash": "0xfa729e9dfced308988b1da774f7bd5461a34b776ffbfcc38f65824e799900f14",
      "blockHash": "0xb8a56a3378a785edbff430281d0130435cf3cb02e581100997dc67426d8800a2",
      "blockNumber": 86990,
      "transactionIndex": 1,
      "confirmations": null,
      "from": "0x7B059a354a1A740d6e8674eaf88D39D23AB13c70",
      "gasPrice": {
        "_hex": "0xd4870ace3"
      },
      "gasLimit": {
        "_hex": "0x5208"
      },
      "to": "0x32Be343B94f860124dC4fEe278FDCBD38C102D88",
      "value": {
        "_hex": "0x2547536fadf85a000"
      },
      "nonce": 0,
      "data": "0x",
      "r": "0xf8bb61da9e23d5f03b9998f6afbd4d73b7b01080a1273f33fdf23791a2f1f665",
      "s": "0x49f3088106347dc02cb6421262d082136da4ff3ea06f87f20e174fdaa721656e",
      "v": 27,
      "creates": null,
      "raw": "0xf86d80850d4870ace38252089432be343b94f860124dc4fee278fdcbd38c102d888902547536fadf85a000801ba0f8bb61da9e23d5f03b9998f6afbd4d73b7b01080a1273f33fdf23791a2f1f665a049f3088106347dc02cb6421262d082136da4ff3ea06f87f20e174fdaa721656e",
      "networkId": 0,
      "chainId": 0
    }
  ]
}