{
  "hash": "0x88dcc2e211c33891b17e56eb140e2d8be22cb38abd8b0cd5f184c32182481541",
  "parentHash": "0xa3127f98a7c3b1a4a35ee3b09656c1c77912e5ce03b023492af62d267efed9c4",
  "number": 65669,
  "timestamp": 1439240985,
  "nonce": "0xf638b99fc9cbff4b",
  "difficulty": 1934963723601,
  "gasLimit": {
    "_hex": "0x2fefd8"
  },
  "gasUsed": {
    "_hex": "0x5208"
  },
  "miner": "0xa50ec0D39fa913E62f1Bae7074E6F36caA71855b",
  "extraData": "0x",
  "transactions": [
    {
      "hash": "0xa944a0311f2fc01c435274cc4f31210210f0c7d345b2ba344f6c01320bd55b56",
      "blockHash": "0x88dcc2e211c33891b17e56eb140e2d8be22cb38abd8b0cd5f184c32182481541",
      "blockNumber": 65669,
      "transactionIndex": 0,
      "confirmations": null,
      "from": "0x994A688Ccbd21c39a780468628e269CbC013d948",
      "gasPrice": {
        "_hex": "0x111f81b4f89"
      },
      "gasLimit": {
        "_hex": "0x55f0"
      },
      "to": "0xAD063CE182014Fa78C3932981fE402a6Af48235B",
      "value": {
        "_hex": "0xc7d713b49da00000"
      },
      "nonce": 1,
      "data": "0x",
      "r": "0xfa173dc4ee2f21473c338336204165789cd1495607c182e337db754ef23fc0a1",
      "s": "0x4b3cc8d055405015617d6b42c2e681849981188b6ee3d873e9f58dac5986ba17",
      "v": 28,
      "creates": null,
      "raw": "0xf86d01860111f81b4f898255f094ad063ce182014fa78c3932981fe402a6af48235b88c7d713b49da00000801ca0fa173dc4ee2f21473c338336204165789cd1495607c182e337db754ef23fc0a1a04b3cc8d055405015617d6b42c2e681849981188b6ee3d873e9f58dac5986ba17",
      "networkId": 0,
      "chainId": 0
    }
  ]
}