{
  "hash": "0xbc4d377ca204bb79394478c9687a163f67edabc7a5715e8e6287ba47e4d8f86e",
  "parentHash": "0x577c2a24fa02de89d0d7b2df117da2ecbf43222693f0d69ccd492fa1c05df882",
  "number": 74250,
  "timestamp": 1439382964,
  "nonce": "0xe42dbb679318ec1e",
  "difficulty": 2219427430560,
  "gasLimit": {
    "_hex": "0x2fefd8"
  },
  "gasUsed": {
    "_hex": "0x5208"
  },
  "miner": "0xF2d2AfF1320476cb8C6b607199D23175cc595693",
  "extraData": "0x476574682f76312e302e312f77696e646f77732f676f312e342e32",
  "transactions": [
    {
      "hash": "0xd002194307a2e0e2327be8f97c92920d03d95e1d54858b92d5499059e186bb6d",
      "blockHash": "0xbc4d377ca204bb79394478c9687a163f67edabc7a5715e8e6287ba47e4d8f86e",
      "blockNumber": 74250,
      "transactionIndex": 0,
      "confirmations": null,
      "from": "0xe6A7a1d47ff21B6321162AEA7C6CB457D5476Bca",
      "gasPrice": {
        "_hex": "0xdb888e93a"
      },
      "gasLimit": {
        "_hex": "0x55f0"
      },
      "to": "0x523e93ed2d488b01E5a425F3A8d1cFcfEbD8B064",
      "value": {
        "_hex": "0x3976d8225c9d15a0"
      },
      "nonce": 789,
      "data": "0x",
      "r": "0xfe547977d13eb8fb7a4ea294d161cf049b812e07aa25a850117cee4800e4716f",
      "s": "0x7003408f2b965fd5855f95385b4c7cc562e06a707a0ea53f4664178964fbd08d",
      "v": 28,
      "creates": null,
      "raw": "0xf86e820315850db888e93a8255f094523e93ed2d488b01e5a425f3a8d1cfcfebd8b064883976d8225c9d15a0801ca0fe547977d13eb8fb7a4ea294d161cf049b812e07aa25a850117cee4800e4716fa07003408f2b965fd5855f95385b4c7cc562e06a707a0ea53f4664178964fbd08d",
      "networkId": 0,
      "chainId": 0
    }
  ]
}