{
  "hash": "0x1d00859fd8c736c8ffbf1175b09848e77d256c6d54ba853f7ebbd2d8b3aa85a4",
  "parentHash": "0x4be189a11fa0e29904ed717db1d28a37b198fb7a69e11ee622fc9f7bf3b37b02",
  "number": 110088,
  "timestamp": 1439967916,
  "nonce": "0x12d882a4df0b8482",
  "difficulty": 4377907320519,
  "gasLimit": {
    "_hex": "0x2fefd8"
  },
  "gasUsed": {
    "_hex": "0xa410"
  },
  "miner": "0x580992B51e3925e23280EfB93d3047C82f17E038",
  "extraData": "0x476574682f76312e302e312f6c696e75782f676f312e342e32",
  "transactions": [
    {
      "hash": "0xef4c5ea62177c18c53209b36df65bdf85d24413bcd084dc804b12a73ad8ad9de",
      "blockHash": "0x1d00859fd8c736c8ffbf1175b09848e77d256c6d54ba853f7ebbd2d8b3aa85a4",
      "blockNumber": 110088,
      "transactionIndex": 0,
      "confirmations": null,
      "from": "0xC47Aaa860008be6f65B58c6C6E02a84e666EfE31",
      "gasPrice": {
        "_hex": "0xcff2b1ef0"
      },
      "gasLimit": {
        "_hex": "0x15f90"
      },
      "to": "0x193bB9b5E9b6099FB6c33DBb5CcDA4AC18ed14D7",
      "value": {
        "_hex": "0x821ab0d4414980000"
      },
      "nonce": 96,
      "data": "0x",
      "r": "0x752033ae4dadd6e2775075116428f42b3da5e4ef051f7f7bdc74aa795201a2bf",
      "s": "0x7801a3f8f505512b91ce4bf59f553330a109f72fc0c8a51d91fc8cc07b929a54",
      "v": 27,
      "creates": null,
      "raw": "0xf86e60850cff2b1ef083015f9094193bb9b5e9b6099fb6c33dbb5ccda4ac18ed14d7890821ab0d4414980000801ba0752033ae4dadd6e2775075116428f42b3da5e4ef051f7f7bdc74aa795201a2bfa07801a3f8f505512b91ce4bf59f553330a109f72fc0c8a51d91fc8cc07b929a54",
      "networkId": 0,
      "chainId": 0
    },
    {
      "hash": "0x2b40bdd2da051ec806171bcb8a95708a0244c2ed9b4d52d051fb47d2240c1821",
      "blockHash": "0x1d00859fd8c736c8ffbf1175b09848e77d256c6d54ba853f7ebbd2d8b3aa85a4",
      "blockNumber": 110088,
      "transactionIndex": 1,
      "confirmations": null,
      "from": "0xC47Aaa860008be6f65B58c6C6E02a84e666EfE31",
      "gasPrice": {
        "_hex": "0xcff2b1ef0"
      },
      "gasLimit": {
        "_hex": "0x15f90"
      },
      "to": "0x8CbEDB607dA768E860c22C7e292dAD2F58c3ea35",
      "value": {
        "_hex": "0x2b45c7c14984eb3d"
      },
      "nonce": 97,
      "data": "0x",
      "r": "0x8c088aa67ca2b9708420b11dc0ed2f8eabb053f1417bc30eecb6abe3dc993750",
      "s": "0x6339fd1f92f153987b9cbe47c0974a70c67eb6e6a0bc8f0a8af3368c2d4cfcc7",
      "v": 28,
      "creates": null,
      "raw": "0xf86d61850cff2b1ef083015f90948cbedb607da768e860c22c7e292dad2f58c3ea35882b45c7c14984eb3d801ca08c088aa67ca2b9708420b11dc0ed2f8eabb053f1417bc30eecb6abe3dc993750a06339fd1f92f153987b9cbe47c0974a70c67eb6e6a0bc8f0a8af3368c2d4cfcc7",
      "networkId": 0,
      "chainId": 0
    }
  ]
}