{
  "hash": "0x6f9e82001087e61c135694cc1767e01b56b92296230d5adf13f00506aab41429",
  "parentHash": "0x17a3117c7367c2251c54c9927cbd27ee4ad38c5e28b91b653e7adda6d8f6ccac",
  "number": 75428,
  "timestamp": 1439403198,
  "nonce": "0x64117b60899c918f",
  "difficulty": 2206151168246,
  "gasLimit": {
    "_hex": "0x2fefd8"
  },
  "gasUsed": {
    "_hex": "0xa410"
  },
  "miner": "0xf927a40C8B7F6E07c5af7FA2155B4864a4112B13",
  "extraData": "0x",
  "transactions": [
    {
      "hash": "0x4fc2a3a1644bc68cb01457ff39404be2f38031081e110e33ec77490d97ebcf59",
      "blockHash": "0x6f9e82001087e61c135694cc1767e01b56b92296230d5adf13f00506aab41429",
      "blockNumber": 75428,
      "transactionIndex": 0,
      "confirmations": null,
      "from": "0xa6BDc31c431B8F97848c9D60cbbe9660dc450eB7",
      "gasPrice": {
        "_hex": "0xd0c177740"
      },
      "gasLimit": {
        "_hex": "0x5208"
      },
      "to": "0x32Be343B94f860124dC4fEe278FDCBD38C102D88",
      "value": {
        "_hex": "0x455f63397f072400"
      },
      "nonce": 9,
      "data": "0x",
      "r": "0x8127463b8335b0b83dc60b2c15b43be6e7d070880b7d36829f1ae75d8d3462a0",
      "s": "0x009e5abc28d2722ffdac4d0f46d89afc495d97e44cf582dc0e5f6638d0734470",
      "v": 27,
      "creates": null,
      "raw": "0xf86b09850d0c1777408252089432be343b94f860124dc4fee278fdcbd38c102d8888455f63397f072400801ba08127463b8335b0b83dc60b2c15b43be6e7d070880b7d36829f1ae75d8d3462a09f9e5abc28d2722ffdac4d0f46d89afc495d97e44cf582dc0e5f6638d0734470",
      "networkId": 0,
      "chainId": 0
    },
    {
      "hash": "0x4b7fbad18d353f0e43f94c599760eb87103cbaa90dfdfcc43316dfb93194302f",
      "blockHash": "0x6f9e82001087e61c135694cc1767e01b56b92296230d5adf13f00506aab41429",
      "blockNumber": 75428,
      "transactionIndex": 1,
      "confirmations": null,
      "from": "0x32Be343B94f860124dC4fEe278FDCBD38C102D88",
      "gasPrice": {
        "_hex": "0xd0c177740"
      },
      "gasLimit": {
        "_hex": "0x5208"
      },
      "to": "0x7d18A54Bd3051327D87eD7B3E6B3d95B772e5180",
      "value": {
        "_hex": "0x5f2cf45a0239d0000"
      },
      "nonce": 339,
      "data": "0x",
      "r": "0x7eb684a67e49b4fd5e34e8b33dd4e90ea0e5ccfbcfff4032739e2289631d56b0",
      "s": "0x16dccc16b85c7d40902a26a67f35bdfd2add77e5e27e2edfa08f2f719fa1fcfe",
      "v": 27,
      "creates": null,
      "raw": "0xf86f820153850d0c177740825208947d18a54bd3051327d87ed7b3e6b3d95b772e51808905f2cf45a0239d0000801ba07eb684a67e49b4fd5e34e8b33dd4e90ea0e5ccfbcfff4032739e2289631d56b0a016dccc16b85c7d40902a26a67f35bdfd2add77e5e27e2edfa08f2f719fa1fcfe",
      "networkId": 0,
      "chainId": 0
    }
  ]
}