{
  "hash": "0xb9f8ecda1d03591647e03e81bf1125727539ae679ffc4adcb7e55c79ae441afb",
  "parentHash": "0xdc3f2e02266b5e420d356caa6398dc0c9db1116cdbf90b06d986b1fe499dc40b",
  "number": 68681,
  "timestamp": 1439291935,
  "nonce": "0xce121ba4df976e3d",
  "difficulty": 2019193700977,
  "gasLimit": {
    "_hex": "0x2fefd8"
  },
  "gasUsed": {
    "_hex": "0x5208"
  },
  "miner": "0xf927a40C8B7F6E07c5af7FA2155B4864a4112B13",
  "extraData": "0x",
  "transactions": [
    {
      "hash": "0xe574a4f1b7eb6f081cfe2890ef3489c1ca23dd52140705027afd3ed9f68b8cb1",
      "blockHash": "0xb9f8ecda1d03591647e03e81bf1125727539ae679ffc4adcb7e55c79ae441afb",
      "blockNumber": 68681,
      "transactionIndex": 0,
      "confirmations": null,
      "from": "0xa9ce244D143aC2759f899a638b69A1437052929f",
      "gasPrice": {
        "_hex": "0xcf40716fd"
      },
      "gasLimit": {
        "_hex": "0x5208"
      },
      "to": "0x32Be343B94f860124dC4fEe278FDCBD38C102D88",
      "value": {
        "_hex": "0x15f14522cfb9800"
      },
      "nonce": 0,
      "data": "0x",
      "r": "0x97911e74451aacf04d62d8421eedb25c438547ff1ea0c9222f8dc6212a1b91a7",
      "s": "0x320b985c3058d55ca6bc5096bfbcca032aa06cd724d0d1c3618c072e50676d70",
      "v": 28,
      "creates": null,
      "raw": "0xf86c80850cf40716fd8252089432be343b94f860124dc4fee278fdcbd38c102d8888015f14522cfb9800801ca097911e74451aacf04d62d8421eedb25c438547ff1ea0c9222f8dc6212a1b91a7a0320b985c3058d55ca6bc5096bfbcca032aa06cd724d0d1c3618c072e50676d70",
      "networkId": 0,
      "chainId": 0
    }
  ]
}