{
  "hash": "0x10eb4f067c6daa76ec93954046d5222e13747aa202767f56756d6d20262905b2",
  "parentHash": "0x95a3a13c9f9b6c06983afa2d49d25fec1c6bb48cdf643af27e3c512ad3fd7a92",
  "number": 96631,
  "timestamp": 1439743374,
  "nonce": "0xd0882b778db68079",
  "difficulty": 3715999447385,
  "gasLimit": {
    "_hex": "0x2fefd8"
  },
  "gasUsed": {
    "_hex": "0x546c"
  },
  "miner": "0xbb7B8287f3F0a933474a79eAe42CBCa977791171",
  "extraData": "0x476574682f4c5649562f76312e302e312f6c696e75782f676f312e342e32",
  "transactions": [
    {
      "hash": "0x76b87340a4f932b4e28e0793d68f29625b1947192fe011d1bc60e9a8b21ce4aa",
      "blockHash": "0x10eb4f067c6daa76ec93954046d5222e13747aa202767f56756d6d20262905b2",
      "blockNumber": 96631,
      "transactionIndex": 0,
      "confirmations": null,
      "from": "0x8F0aB894Bd3F4E697DBCfb859D497a9ba195994A",
      "gasPrice": {
        "_hex": "0x110c8f7d8de"
      },
      "gasLimit": {
        "_hex": "0xc350"
      },
      "to": "0x2910543Af39abA0Cd09dBb2D50200b3E800A63D2",
      "value": {
        "_hex": "0x84231b97924ea600000"
      },
      "nonce": 1,
      "data": "0x454e51393041375947",
      "r": "0x529ea7caec1d491a511d4f5db9bd388e8a771e35aede2f0e1551ffeb908d2fb3",
      "s": "0x53003a381fceef43a34ea43dca2a7f7c845c421f4654125b9effe4cc23cc3f35",
      "v": 28,
      "creates": null,
      "raw": "0xf87801860110c8f7d8de82c350942910543af39aba0cd09dbb2d50200b3e800a63d28a084231b97924ea60000089454e513930413759471ca0529ea7caec1d491a511d4f5db9bd388e8a771e35aede2f0e1551ffeb908d2fb3a053003a381fceef43a34ea43dca2a7f7c845c421f4654125b9effe4cc23cc3f35",
      "networkId": 0,
      "chainId": 0
    }
  ]
}