{
  "hash": "0x150af17b4f1a9dbac8818adec3ea043237929d1fe945c8901d71be9b97ccf84c",
  "parentHash": "0x8144db52efcca9388400fe23420a960cb49dbafb5a90689dbf2bf836a0566dca",
  "number": 107392,
  "timestamp": 1439921695,
  "nonce": "0x9745dc63f3d2419f",
  "difficulty": 4396454708664,
  "gasLimit": {
    "_hex": "0x2fefd8"
  },
  "gasUsed": {
    "_hex": "0x5208"
  },
  "miner": "0xa70a9a7040d542C632D8e0bE7c5513A8a5Bbc752",
  "extraData": "0x",
  "transactions": [
    {
      "hash": "0xba680d1b4b4217a969edfd0d257c70bc8d2ed843c01e8b4da365d5c11d9702b1",
      "blockHash": "0x150af17b4f1a9dbac8818adec3ea043237929d1fe945c8901d71be9b97ccf84c",
      "blockNumber": 107392,
      "transactionIndex": 0,
      "confirmations": null,
      "from": "0x120A270bbC009644e35F0bB6ab13f95b8199c4ad",
      "gasPrice": {
        "_hex": "0xdfbf771c1"
      },
      "gasLimit": {
        "_hex": "0x3d090"
      },
      "to": "0xb7b6e8868e3DfCD6C7EC726C4fda236266841c8C",
      "value": {
        "_hex": "0x22eded6888f3400"
      },
      "nonce": 806,
      "data": "0x",
      "r": "0xe87afa0e0d9fbd2fb67c566ede6c6d074c97fb1e270de4793350b48ce45a490f",
      "s": "0x7f84b5626af39292bb47c6fa2e0ccc6fbfce7bb9ec6030ee1556803b2e22b4fa",
      "v": 27,
      "creates": null,
      "raw": "0xf86f820326850dfbf771c18303d09094b7b6e8868e3dfcd6c7ec726c4fda236266841c8c88022eded6888f3400801ba0e87afa0e0d9fbd2fb67c566ede6c6d074c97fb1e270de4793350b48ce45a490fa07f84b5626af39292bb47c6fa2e0ccc6fbfce7bb9ec6030ee1556803b2e22b4fa",
      "networkId": 0,
      "chainId": 0
    }
  ]
}