{
  "hash": "0xe6e417003e6a51c07e2a3044bca02c73070df5b5b78d1692a3a7f02e822dfdea",
  "parentHash": "0x03dd444d09e3c92e87e0f689bf57231a9845662d589648b95d03484a9f47e29b",
  "number": 67857,
  "timestamp": 1439278456,
  "nonce": "0xcd1e41d7acd0f2ad",
  "difficulty": 1951536111709,
  "gasLimit": {
    "_hex": "0x2fefd8"
  },
  "gasUsed": {
    "_hex": "0x5208"
  },
  "miner": "0x26E3f7C9e444f2Ca9E0BE2aF841bd060cF1CbDDb",
  "extraData": "0x476574682f76312e302e312f6c696e75782f676f312e342e32",
  "transactions": [
    {
      "hash": "0xf41808a17b0267efe1937a3bcac369e5bc80a33a34e0d1de993e38803f2876f7",
      "blockHash": "0xe6e417003e6a51c07e2a3044bca02c73070df5b5b78d1692a3a7f02e822dfdea",
      "blockNumber": 67857,
      "transactionIndex": 0,
      "confirmations": null,
      "from": "0x9Eb13f2Df9A75B34f1e48D8eC2aF7DfbDabA1764",
      "gasPrice": {
        "_hex": "0xde82b5266"
      },
      "gasLimit": {
        "_hex": "0x15f90"
      },
      "to": "0x608F680cB915b87F83f3d369bBbb796D778c6162",
      "value": {
        "_hex": "0x0"
      },
      "nonce": 3,
      "data": "0x",
      "r": "0x0bf41ce2c61f6de1e10ebee43ef2f03bfa2803e5f5cdea0250e397f80bdcd52d",
      "s": "0x014905696fd39f7594b8fbaa9a2ec241c76f4baba38caa64e5e9f7b24d64de44",
      "v": 27,
      "creates": null,
      "raw": "0xf86503850de82b526683015f9094608f680cb915b87f83f3d369bbbb796d778c616280801ba00bf41ce2c61f6de1e10ebee43ef2f03bfa2803e5f5cdea0250e397f80bdcd52da0014905696fd39f7594b8fbaa9a2ec241c76f4baba38caa64e5e9f7b24d64de44",
      "networkId": 0,
      "chainId": 0
    }
  ]
}