{
  "hash": "0x8de4f6a99b204f7affd52dd169643b343b10001fe3739797266fb4ad9c8c70e9",
  "parentHash": "0x9e41c9f2613f37c33bbcfe4fd7db3fa36dcce2e59a0446862be57ab0e926d2d1",
  "number": 49113,
  "timestamp": 1438968258,
  "nonce": "0xc36048516feb4c25",
  "difficulty": 1479278359876,
  "gasLimit": {
    "_hex": "0x262a3"
  },
  "gasUsed": {
    "_hex": "0x546c"
  },
  "miner": "0x62b0559efe3a073EDfe78bBe7CB491A6C65F0806",
  "extraData": "0x687474703a2f2f692e696d6775722e636f6d2f4a7a5964526b652e706e67",
  "transactions": [
    {
      "hash": "0xa285161dcd32e4232200647f96a30fc3dcccc5d1d8e63406b74cd595174f98e1",
      "blockHash": "0x8de4f6a99b204f7affd52dd169643b343b10001fe3739797266fb4ad9c8c70e9",
      "blockNumber": 49113,
      "transactionIndex": 0,
      "confirmations": null,
      "from": "0xb28245037cb192f75785CB86cBFe7C930DA258B0",
      "gasPrice": {
        "_hex": "0x110c8f7d8de"
      },
      "gasLimit": {
        "_hex": "0xc350"
      },
      "to": "0x2910543Af39abA0Cd09dBb2D50200b3E800A63D2",
      "value": {
        "_hex": "0x3635c9adc5dea00000"
      },
      "nonce": 0,
      "data": "0x454e4d594841333647",
      "r": "0x20c4c9af04acc6a1a01acbfec2ea527e3bbf9445961978a09c34bd94de2863fe",
      "s": "0x957b2d5d9b90d68dc8dd811c8b4fa4a4c5fb319c41eaa86df0057b46d2adfd69",
      "v": 27,
      "creates": null,
      "raw": "0xf87780860110c8f7d8de82c350942910543af39aba0cd09dbb2d50200b3e800a63d2893635c9adc5dea0000089454e4d5948413336471ba020c4c9af04acc6a1a01acbfec2ea527e3bbf9445961978a09c34bd94de2863fea0957b2d5d9b90d68dc8dd811c8b4fa4a4c5fb319c41eaa86df0057b46d2adfd69",
      "networkId": 0,
      "chainId": 0
    }
  ]
}