{
  "hash": "0x75b488e261147e8276165ffa95b824fd9bd4908f5c32d747a55737e277c8536e",
  "parentHash": "0x8103c724af4b513ea03d7e6ae518851a4ebd0b5454f76721c972c37e130aafc4",
  "number": 86738,
  "timestamp": 1439582149,
  "nonce": "0x749d690b48c88ceb",
  "difficulty": 2950260282392,
  "gasLimit": {
    "_hex": "0x2fefd8"
  },
  "gasUsed": {
    "_hex": "0x61698"
  },
  "miner": "0xD65B98DBBE8F63FA14139a10041Bba7E3A0d377D",
  "extraData": "0x",
  "transactions": [
    {
      "hash": "0x0f3b9af1b562f65178e5033aa3e66955789feef179706143cc0fe28be0d83fdd",
      "blockHash": "0x75b488e261147e8276165ffa95b824fd9bd4908f5c32d747a55737e277c8536e",
      "blockNumber": 86738,
      "transactionIndex": 0,
      "confirmations": null,
      "from": "0x3B1E88830B47B0e800C4C15a96d6da92d5C79Cf4",
      "gasPrice": {
        "_hex": "0xcd5153384"
      },
      "gasLimit": {
        "_hex": "0x30d40"
      },
      "to": "0x120A270bbC009644e35F0bB6ab13f95b8199c4ad",
      "value": {
        "_hex": "0x2b5e019d8f8c100380"
      },
      "nonce": 0,
      "data": "0x",
      "r": "0x8d72d58e3a1ce0462484d18f6f6e2636468c8093aa3262624a2cd348448e122c",
      "s": "0x304234d9be5509c214386d0b0d9d2f1a7a3c525686d547004b9c464ea2fafe22",
      "v": 27,
      "creates": null,
      "raw": "0xf86e80850cd515338483030d4094120a270bbc009644e35f0bb6ab13f95b8199c4ad892b5e019d8f8c100380801ba08d72d58e3a1ce0462484d18f6f6e2636468c8093aa3262624a2cd348448e122ca0304234d9be5509c214386d0b0d9d2f1a7a3c525686d547004b9c464ea2fafe22",
      "networkId": 0,
      "chainId": 0
    },
    {
      "hash": "0x6f744c802c067b080b9db25167a42ba60edb0decc0dd3af00969561f4e4a8107",
      "blockHash": "0x75b488e261147e8276165ffa95b824fd9bd4908f5c32d747a55737e277c8536e",
      "blockNumber": 86738,
      "transactionIndex": 1,
      "confirmations": null,
      "from": "0x23c8E5E706581FBe9beFFbAbFb7f98A73f047Acd",
      "gasPrice": {
        "_hex": "0xcd5153384"
      },
      "gasLimit": {
        "_hex": "0x30d40"
      },
      "to": "0x120A270bbC009644e35F0bB6ab13f95b8199c4ad",
      "value": {
        "_hex": "0x1b9a44205b516b00"
      },
      "nonce": 0,
      "data": "0x",
      "r": "0xb99e2f89b983fbad69070ae66ed175d2b6f479d8c5fe02d1a1ef292dce63491e",
      "s": "0x626dae3124be8ecc82071ec170972f32bf327a5de774e6ecde84fe4e5e92440a",
      "v": 28,
      "creates": null,
      "raw": "0xf86d80850cd515338483030d4094120a270bbc009644e35f0bb6ab13f95b8199c4ad881b9a44205b516b00801ca0b99e2f89b983fbad69070ae66ed175d2b6f479d8c5fe02d1a1ef292dce63491ea0626dae3124be8ecc82071ec170972f32bf327a5de774e6ecde84fe4e5e92440a",
      "networkId": 0,
      "chainId": 0
    },
    {
      "hash": "0x8ecbff8ee9ecccce2614073322d6c476ed2f2a39016a229dd6d23c5ee465c3c7",
      "blockHash": "0x75b488e261147e8276165ffa95b824fd9bd4908f5c32d747a55737e277c8536e",
      "blockNumber": 86738,
      "transactionIndex": 2,
      "confirmations": null,
      "from": "0xC985854C62ECDeb549b89E7EA409DbdEbA080043",
      "gasPrice": {
        "_hex": "0xcd5153384"
      },
      "gasLimit": {
        "_hex": "0x30d40"
      },
      "to": "0x120A270bbC009644e35F0bB6ab13f95b8199c4ad",
      "value": {
        "_hex": "0xc3919c78b109a300"
      },
      "nonce": 0,
      "data": "0x",
      "r": "0x6dc2d9bb5349ac57ef26765bd0487025f832a6b4d282fed12ab9414b058e2f10",
      "s": "0x4230f0b1fabfd43262ae418c33db03c6ae86d8245b968a49fca105c682c7b222",
      "v": 27,
      "creates": null,
      "raw": "0xf86d80850cd515338483030d4094120a270bbc009644e35f0bb6ab13f95b8199c4ad88c3919c78b109a300801ba06dc2d9bb5349ac57ef26765bd0487025f832a6b4d282fed12ab9414b058e2f10a04230f0b1fabfd43262ae418c33db03c6ae86d8245b968a49fca105c682c7b222",
      "networkId": 0,
      "chainId": 0
    },
    {
      "hash": "0xb774c4ca52c923559f88a09984b576935fd29075e4264d895a35a779eedde07c",
      "blockHash": "0x75b488e261147e8276165ffa95b824fd9bd4908f5c32d747a55737e277c8536e",
      "blockNumber": 86738,
      "transactionIndex": 3,
      "confirmations": null,
      "from": "0xEb7e13586E7BE15Cbe4ADEb0a766C5AfEAD2c0D0",
      "gasPrice": {
        "_hex": "0xcd5153384"
      },
      "gasLimit": {
        "_hex": "0x30d40"
      },
      "to": "0x120A270bbC009644e35F0bB6ab13f95b8199c4ad",
      "value": {
        "_hex": "0x297a93b8a19c8380"
      },
      "nonce": 0,
      "data": "0x",
      "r": "0x8e35fcb0a80fca02e6bd4763c5371cc6cbdcac06836683ff890dcfd702eb5aa8",
      "s": "0x2cc1cf8bf7e227713e7926068f60296d2f25375f7e7a9b59b8c20f8d92229bcb",
      "v": 27,
      "creates": null,
      "raw": "0xf86d80850cd515338483030d4094120a270bbc009644e35f0bb6ab13f95b8199c4ad88297a93b8a19c8380801ba08e35fcb0a80fca02e6bd4763c5371cc6cbdcac06836683ff890dcfd702eb5aa8a02cc1cf8bf7e227713e7926068f60296d2f25375f7e7a9b59b8c20f8d92229bcb",
      "networkId": 0,
      "chainId": 0
    },
    {
      "hash": "0xcb0b1f2491f55f539cc0fbc73bd7719b173a93e357c790aa61fbb9d2e79ab2ce",
      "blockHash": "0x75b488e261147e8276165ffa95b824fd9bd4908f5c32d747a55737e277c8536e",
      "blockNumber": 86738,
      "transactionIndex": 4,
      "confirmations": null,
      "from": "0x7EbBE3b72d811e886520bcfEb034C393A45aA83C",
      "gasPrice": {
        "_hex": "0xcd5153384"
      },
      "gasLimit": {
        "_hex": "0x30d40"
      },
      "to": "0x120A270bbC009644e35F0bB6ab13f95b8199c4ad",
      "value": {
        "_hex": "0x1400c02fad53ad6b00"
      },
      "nonce": 0,
      "data": "0x",
      "r": "0xfcb07813bedfca5358521e1dd73668958c5fa9f11ea2d0edb7bda70874de5e08",
      "s": "0x7abe18225a4aa487824b672d83fb7bfd425e8bebe73bb220612f04dcbb6949bc",
      "v": 28,
      "creates": null,
      "raw": "0xf86e80850cd515338483030d4094120a270bbc009644e35f0bb6ab13f95b8199c4ad891400c02fad53ad6b00801ca0fcb07813bedfca5358521e1dd73668958c5fa9f11ea2d0edb7bda70874de5e08a07abe18225a4aa487824b672d83fb7bfd425e8bebe73bb220612f04dcbb6949bc",
      "networkId": 0,
      "chainId": 0
    },
    {
      "hash": "0x4ba73fbd6be05bdd150e6d31b1041077e456e41b446b4f72a8d1b0d0dc48c078",
      "blockHash": "0x75b488e261147e8276165ffa95b824fd9bd4908f5c32d747a55737e277c8536e",
      "blockNumber": 86738,
      "transactionIndex": 5,
      "confirmations": null,
      "from": "0x4AbccD4EE4290bFC0b721D862c6ea13b2C3871ff",
      "gasPrice": {
        "_hex": "0xcd5153384"
      },
      "gasLimit": {
        "_hex": "0x30d40"
      },
      "to": "0x120A270bbC009644e35F0bB6ab13f95b8199c4ad",
      "value": {
        "_hex": "0x1823a715cebf78b00"
      },
      "nonce": 0,
      "data": "0x",
      "r": "0x114cf5cd1980f387498eb2f63385cd9805dc1766f0f3a639d5ddc48271f80a5b",
      "s": "0x1a08c426e1d0fb3e9c1ded861765a5f805f1b12fbabdc1a9e7133c84dd636bc7",
      "v": 27,
      "creates": null,
      "raw": "0xf86e80850cd515338483030d4094120a270bbc009644e35f0bb6ab13f95b8199c4ad8901823a715cebf78b00801ba0114cf5cd1980f387498eb2f63385cd9805dc1766f0f3a639d5ddc48271f80a5ba01a08c426e1d0fb3e9c1ded861765a5f805f1b12fbabdc1a9e7133c84dd636bc7",
      "networkId": 0,
      "chainId": 0
    },
    {
      "hash": "0x46cd4007507e6b3fa12cbfce9beaead07a5119dff0398c970b06bae89cbff40e",
      "blockHash": "0x75b488e261147e8276165ffa95b824fd9bd4908f5c32d747a55737e277c8536e",
      "blockNumber": 86738,
      "transactionIndex": 6,
      "confirmations": null,
      "from": "0xB9819F8673cB4F167F1b6597d630B42E6ECd9EC5",
      "gasPrice": {
        "_hex": "0xcd5153384"
      },
      "gasLimit": {
        "_hex": "0x30d40"
      },
      "to": "0x120A270bbC009644e35F0bB6ab13f95b8199c4ad",
      "value": {
        "_hex": "0x4481eaf5469b94240"
      },
      "nonce": 0,
      "data": "0x",
      "r": "0x848358b02ae6554083bff334bb27b5bdb964425f19da9667bbc25722bb5b0a63",
      "s": "0x5c092d5f04ace1f0db44b81a3167e8783ba78d88fc8f472d9cf278faf0b259f0",
      "v": 27,
      "creates": null,
      "raw": "0xf86e80850cd515338483030d4094120a270bbc009644e35f0bb6ab13f95b8199c4ad8904481eaf5469b94240801ba0848358b02ae6554083bff334bb27b5bdb964425f19da9667bbc25722bb5b0a63a05c092d5f04ace1f0db44b81a3167e8783ba78d88fc8f472d9cf278faf0b259f0",
      "networkId": 0,
      "chainId": 0
    },
    {
      "hash": "0x80419385c48e6ce73984fce6b7034384ba57cf72764d0139069061e1bf0e87cd",
      "blockHash": "0x75b488e261147e8276165ffa95b824fd9bd4908f5c32d747a55737e277c8536e",
      "blockNumber": 86738,
      "transactionIndex": 7,
      "confirmations": null,
      "from": "0x8d5D4a5998B3EE46c92707e0aec7717091C004Fe",
      "gasPrice": {
        "_hex": "0xcd5153384"
      },
      "gasLimit": {
        "_hex": "0x30d40"
      },
      "to": "0x120A270bbC009644e35F0bB6ab13f95b8199c4ad",
      "value": {
        "_hex": "0x138ae7c712deee5f00"
      },
      "nonce": 0,
      "data": "0x",
      "r": "0x19408ccd0185e93f13734f4d2d83b6b5f61d5f61c3d04353f12bcb4fa26af0a5",
      "s": "0x5c7da9583df3c1d2110d7b0aeb84279a4975fe0e5ccf74fc4dc7d38944fc70e7",
      "v": 28,
      "creates": null,
      "raw": "0xf86e80850cd515338483030d4094120a270bbc009644e35f0bb6ab13f95b8199c4ad89138ae7c712deee5f00801ca019408ccd0185e93f13734f4d2d83b6b5f61d5f61c3d04353f12bcb4fa26af0a5a05c7da9583df3c1d2110d7b0aeb84279a4975fe0e5ccf74fc4dc7d38944fc70e7",
      "networkId": 0,
      "chainId": 0
    },
    {
      "hash": "0x86410a7802cfeeb3bae45de215ee735e73aeb6fffda71a6279fa6ddef6c36c47",
      "blockHash": "0x75b488e261147e8276165ffa95b824fd9bd4908f5c32d747a55737e277c8536e",
      "blockNumber": 86738,
      "transactionIndex": 8,
      "confirmations": null,
      "from": "0xDeb6D4F9C3c7eCaF2326056e736E9A80040D48eA",
      "gasPrice": {
        "_hex": "0xcd5153384"
      },
      "gasLimit": {
        "_hex": "0x30d40"
      },
      "to": "0x120A270bbC009644e35F0bB6ab13f95b8199c4ad",
      "value": {
        "_hex": "0x1cbb12af8e38788380"
      },
      "nonce": 0,
      "data": "0x",
      "r": "0x0b41886fd81a321a65bbf624e450ee6f6b6b59b2c3573113b8db614b4e1e15b2",
      "s": "0x0a75884d73517ea337e372528d32a013c9fab58b7b16cfaa11f944f156fe6343",
      "v": 27,
      "creates": null,
      "raw": "0xf86e80850cd515338483030d4094120a270bbc009644e35f0bb6ab13f95b8199c4ad891cbb12af8e38788380801ba00b41886fd81a321a65bbf624e450ee6f6b6b59b2c3573113b8db614b4e1e15b2a00a75884d73517ea337e372528d32a013c9fab58b7b16cfaa11f944f156fe6343",
      "networkId": 0,
      "chainId": 0
    },
    {
      "hash": "0xd8aa019142a365f226866684d69e364c288fa17b728df9c1c3a943aac5da8e20",
      "blockHash": "0x75b488e261147e8276165ffa95b824fd9bd4908f5c32d747a55737e277c8536e",
      "blockNumber": 86738,
      "transactionIndex": 9,
      "confirmations": null,
      "from": "0xE2A7ffDCB7645b0AdB7fEbD0C72F485d10783A52",
      "gasPrice": {
        "_hex": "0xcd5153384"
      },
      "gasLimit": {
        "_hex": "0x30d40"
      },
      "to": "0x120A270bbC009644e35F0bB6ab13f95b8199c4ad",
      "value": {
        "_hex": "0x6b6a93d958f4240"
      },
      "nonce": 0,
      "data": "0x",
      "r": "0xa0304161dbd5b0015f078a8ab91e97f7d7b71268a2b4cdb14d04c7457876bc98",
      "s": "0x6c79bcbdd8e71c3127ec4dc376eb1486f359c1358aea0ee5f49270b3dee4330c",
      "v": 28,
      "creates": null,
      "raw": "0xf86d80850cd515338483030d4094120a270bbc009644e35f0bb6ab13f95b8199c4ad8806b6a93d958f4240801ca0a0304161dbd5b0015f078a8ab91e97f7d7b71268a2b4cdb14d04c7457876bc98a06c79bcbdd8e71c3127ec4dc376eb1486f359c1358aea0ee5f49270b3dee4330c",
      "networkId": 0,
      "chainId": 0
    },
    {
      "hash": "0xb9b3fc523b0be32eff8001a22fcab28916bd881e54083351031d24576da8a037",
      "blockHash": "0x75b488e261147e8276165ffa95b824fd9bd4908f5c32d747a55737e277c8536e",
      "blockNumber": 86738,
      "transactionIndex": 10,
      "confirmations": null,
      "from": "0xBe3b6282525766Cc679b498850b29b06De5e498c",
      "gasPrice": {
        "_hex": "0xcd5153384"
      },
      "gasLimit": {
        "_hex": "0x30d40"
      },
      "to": "0x120A270bbC009644e35F0bB6ab13f95b8199c4ad",
      "value": {
        "_hex": "0x821837ce1c0088380"
      },
      "nonce": 0,
      "data": "0x",
      "r": "0x507838ca22c6ec838611a314530cf0f47d48c5478f5962e016f9f470f6f8f0c7",
      "s": "0x0e886f086a2ae7f46f45a311551df6382cb6b1428e741b8443177b7919820cfd",
      "v": 27,
      "creates": null,
      "raw": "0xf86e80850cd515338483030d4094120a270bbc009644e35f0bb6ab13f95b8199c4ad890821837ce1c0088380801ba0507838ca22c6ec838611a314530cf0f47d48c5478f5962e016f9f470f6f8f0c7a00e886f086a2ae7f46f45a311551df6382cb6b1428e741b8443177b7919820cfd",
      "networkId": 0,
      "chainId": 0
    },
    {
      "hash": "0xc1aa10b201106243896fe16f032f0051b11902c04d239e4e14ee15755cecf518",
      "blockHash": "0x75b488e261147e8276165ffa95b824fd9bd4908f5c32d747a55737e277c8536e",
      "blockNumber": 86738,
      "transactionIndex": 11,
      "confirmations": null,
      "from": "0x0a2b7bfEAaE2E2a8E0b16566F7b707F968938a56",
      "gasPrice": {
        "_hex": "0xcd5153384"
      },
      "gasLimit": {
        "_hex": "0x30d40"
      },
      "to": "0x120A270bbC009644e35F0bB6ab13f95b8199c4ad",
      "value": {
        "_hex": "0x138ae7c712deee5f00"
      },
      "nonce": 0,
      "data": "0x",
      "r": "0x3888014c1576996f5a01893da18448d5aeebe17fcf84d2269b97815d0f58579d",
      "s": "0x328e49e6e602d0458ebe81ecf0bb687aa1fa23dc3a944891576be0795fa8377c",
      "v": 28,
      "creates": null,
      "raw": "0xf86e80850cd515338483030d4094120a270bbc009644e35f0bb6ab13f95b8199c4ad89138ae7c712deee5f00801ca03888014c1576996f5a01893da18448d5aeebe17fcf84d2269b97815d0f58579da0328e49e6e602d0458ebe81ecf0bb687aa1fa23dc3a944891576be0795fa8377c",
      "networkId": 0,
      "chainId": 0
    },
    {
      "hash": "0x5c15ba696ed4c52211655fb7bda2d660afea806754e7114cbf61089ac9ec8bd6",
      "blockHash": "0x75b488e261147e8276165ffa95b824fd9bd4908f5c32d747a55737e277c8536e",
      "blockNumber": 86738,
      "transactionIndex": 12,
      "confirmations": null,
      "from": "0xba861c9e097fE478D9ca5C1132caCF6Fdde69Db0",
      "gasPrice": {
        "_hex": "0xcd5153384"
      },
      "gasLimit": {
        "_hex": "0x30d40"
      },
      "to": "0x120A270bbC009644e35F0bB6ab13f95b8199c4ad",
      "value": {
        "_hex": "0xd1e458c8d49116b00"
      },
      "nonce": 0,
      "data": "0x",
      "r": "0xa3a49fe4078bdfce73d44f2f9822b78599bfaf997092a35d4e72d5ad75768cd4",
      "s": "0x4d4043ac4afb669da7f59e128fed052453a8a61ca6834d7827074119d656047b",
      "v": 28,
      "creates": null,
      "raw": "0xf86e80850cd515338483030d4094120a270bbc009644e35f0bb6ab13f95b8199c4ad890d1e458c8d49116b00801ca0a3a49fe4078bdfce73d44f2f9822b78599bfaf997092a35d4e72d5ad75768cd4a04d4043ac4afb669da7f59e128fed052453a8a61ca6834d7827074119d656047b",
      "networkId": 0,
      "chainId": 0
    },
    {
      "hash": "0x0c64db0f44b6704778f96a2ee29e91d33f367fe8e25794fcf7062765a41d1493",
      "blockHash": "0x75b488e261147e8276165ffa95b824fd9bd4908f5c32d747a55737e277c8536e",
      "blockNumber": 86738,
      "transactionIndex": 13,
      "confirmations": null,
      "from": "0x7B041680ceDF35e40D06f107b3f84eb4A4e72e72",
      "gasPrice": {
        "_hex": "0xcd5153384"
      },
      "gasLimit": {
        "_hex": "0x30d40"
      },
      "to": "0x120A270bbC009644e35F0bB6ab13f95b8199c4ad",
      "value": {
        "_hex": "0x2c73a1a711d7c08380"
      },
      "nonce": 0,
      "data": "0x",
      "r": "0xccbac55e6e925fc34a4fb3ec8151fc40803907b771c1451761b6b1997ded3e8d",
      "s": "0x4eccb4b1859d293b1e50b058d7f3a0c876c2c3f4d22ff4001681b462f526efdf",
      "v": 28,
      "creates": null,
      "raw": "0xf86e80850cd515338483030d4094120a270bbc009644e35f0bb6ab13f95b8199c4ad892c73a1a711d7c08380801ca0ccbac55e6e925fc34a4fb3ec8151fc40803907b771c1451761b6b1997ded3e8da04eccb4b1859d293b1e50b058d7f3a0c876c2c3f4d22ff4001681b462f526efdf",
      "networkId": 0,
      "chainId": 0
    },
    {
      "hash": "0x9e9b9103da6aebf16e64d10a01a5c934b5f9f3ea69f76813fd25ac226877cd82",
      "blockHash": "0x75b488e261147e8276165ffa95b824fd9bd4908f5c32d747a55737e277c8536e",
      "blockNumber": 86738,
      "transactionIndex": 14,
      "confirmations": null,
      "from": "0xb9504fAe32956Ef6bB546bce039f04b8cEb573e5",
      "gasPrice": {
        "_hex": "0xcd5153384"
      },
      "gasLimit": {
        "_hex": "0x30d40"
      },
      "to": "0x120A270bbC009644e35F0bB6ab13f95b8199c4ad",
      "value": {
        "_hex": "0x1dd08f321e14680380"
      },
      "nonce": 0,
      "data": "0x",
      "r": "0xab6956eb6b48dd2fedaf18d9decf2ae2cc6218d36ac7e90f45ef9a3924c21d58",
      "s": "0x75ba720fc3abbffe0c6a97dcdf8acbed8199a4325ef2a93f6d3d5062611d0312",
      "v": 28,
      "creates": null,
      "raw": "0xf86e80850cd515338483030d4094120a270bbc009644e35f0bb6ab13f95b8199c4ad891dd08f321e14680380801ca0ab6956eb6b48dd2fedaf18d9decf2ae2cc6218d36ac7e90f45ef9a3924c21d58a075ba720fc3abbffe0c6a97dcdf8acbed8199a4325ef2a93f6d3d5062611d0312",
      "networkId": 0,
      "chainId": 0
    },
    {
      "hash": "0x69694257e8b0e5ce0db663e7f3bde88ae8001e4339838ec368fca65e8fd7350c",
      "blockHash": "0x75b488e261147e8276165ffa95b824fd9bd4908f5c32d747a55737e277c8536e",
      "blockNumber": 86738,
      "transactionIndex": 15,
      "confirmations": null,
      "from": "0x55e32F27209a6CbdA0fAF5119b76b0FBfC01f532",
      "gasPrice": {
        "_hex": "0xcd5153384"
      },
      "gasLimit": {
        "_hex": "0x30d40"
      },
      "to": "0x120A270bbC009644e35F0bB6ab13f95b8199c4ad",
      "value": {
        "_hex": "0x10a11e85083cd2700"
      },
      "nonce": 0,
      "data": "0x",
      "r": "0x5d09b6988188af7b9a224e57db7c0578442b37feb7d8616dcd612fee4fe4d9a8",
      "s": "0x7d544b5ec8f2dfbffbbe6adfa9c3060970897f60f3f8d3ed2aa50e17131261b2",
      "v": 28,
      "creates": null,
      "raw": "0xf86e80850cd515338483030d4094120a270bbc009644e35f0bb6ab13f95b8199c4ad89010a11e85083cd2700801ca05d09b6988188af7b9a224e57db7c0578442b37feb7d8616dcd612fee4fe4d9a8a07d544b5ec8f2dfbffbbe6adfa9c3060970897f60f3f8d3ed2aa50e17131261b2",
      "networkId": 0,
      "chainId": 0
    },
    {
      "hash": "0xda2241267f13395cb2c7c8c82245b6a810da4f184c19d6db0f6bd0b8474a5ca1",
      "blockHash": "0x75b488e261147e8276165ffa95b824fd9bd4908f5c32d747a55737e277c8536e",
      "blockNumber": 86738,
      "transactionIndex": 16,
      "confirmations": null,
      "from": "0x783692588d0273d066CBc0e78f1abEce463F3d74",
      "gasPrice": {
        "_hex": "0xcd5153384"
      },
      "gasLimit": {
        "_hex": "0x30d40"
      },
      "to": "0x120A270bbC009644e35F0bB6ab13f95b8199c4ad",
      "value": {
        "_hex": "0xebc4334b1761c240"
      },
      "nonce": 0,
      "data": "0x",
      "r": "0x4cd47e62b2dbbe11a7ccb913eee281332c07d0a4c75cebdb4665a24115c84296",
      "s": "0x7de8aa87b74e1bcb1915224bcb07ce81c63ce64c895b2957ef03d2c6e94749ef",
      "v": 28,
      "creates": null,
      "raw": "0xf86d80850cd515338483030d4094120a270bbc009644e35f0bb6ab13f95b8199c4ad88ebc4334b1761c240801ca04cd47e62b2dbbe11a7ccb913eee281332c07d0a4c75cebdb4665a24115c84296a07de8aa87b74e1bcb1915224bcb07ce81c63ce64c895b2957ef03d2c6e94749ef",
      "networkId": 0,
      "chainId": 0
    },
    {
      "hash": "0xe5edff7fc561d98cab02f50ae88e4aa3fe80cc7877471a37c3289a8abb83d5f2",
      "blockHash": "0x75b488e261147e8276165ffa95b824fd9bd4908f5c32d747a55737e277c8536e",
      "blockNumber": 86738,
      "transactionIndex": 17,
      "confirmations": null,
      "from": "0x8b6222058558418cA83DC19C5539a476Ef0Ec772",
      "gasPrice": {
        "_hex": "0xcd5153384"
      },
      "gasLimit": {
        "_hex": "0x30d40"
      },
      "to": "0x120A270bbC009644e35F0bB6ab13f95b8199c4ad",
      "value": {
        "_hex": "0x531cb7d397c88380"
      },
      "nonce": 0,
      "data": "0x",
      "r": "0xae71197c439ee705036ffdec26415c94c1b400c8837960725039933574e7a3d6",
      "s": "0x1625eea0ce08a7db18b0fe10e5cd2b2817fa63abfdb443638a2d75d2cd439c88",
      "v": 28,
      "creates": null,
      "raw": "0xf86d80850cd515338483030d4094120a270bbc009644e35f0bb6ab13f95b8199c4ad88531cb7d397c88380801ca0ae71197c439ee705036ffdec26415c94c1b400c8837960725039933574e7a3d6a01625eea0ce08a7db18b0fe10e5cd2b2817fa63abfdb443638a2d75d2cd439c88",
      "networkId": 0,
      "chainId": 0
    },
    {
      "hash": "0x2efeae6b6d045c190897db476187caf1b8f672382a27536aaa57c3e42bb06c18",
      "blockHash": "0x75b488e261147e8276165ffa95b824fd9bd4908f5c32d747a55737e277c8536e",
      "blockNumber": 86738,
      "transactionIndex": 18,
      "confirmations": null,
      "from": "0xaAE6FB0B083A7D2d62c79Ac1b50d943341eAe445",
      "gasPrice": {
        "_hex": "0xcd5153384"
      },
      "gasLimit": {
        "_hex": "0x30d40"
      },
      "to": "0x120A270bbC009644e35F0bB6ab13f95b8199c4ad",
      "value": {
        "_hex": "0xdb9265152d48380"
      },
      "nonce": 0,
      "data": "0x",
      "r": "0x201362436070dfbae53d8050fdcb2fc7d1dc66d77c7cb3578a85f9398ddbfb25",
      "s": "0x4a70a2dba4a289022bdb5be03a69c501871f09d5902e9e62a6c8dbec55975b92",
      "v": 27,
      "creates": null,
      "raw": "0xf86d80850cd515338483030d4094120a270bbc009644e35f0bb6ab13f95b8199c4ad880db9265152d48380801ba0201362436070dfbae53d8050fdcb2fc7d1dc66d77c7cb3578a85f9398ddbfb25a04a70a2dba4a289022bdb5be03a69c501871f09d5902e9e62a6c8dbec55975b92",
      "networkId": 0,
      "chainId": 0
    }
  ]
}