{
  "hash": "0x9f86d0de9b3fd7a497fd7fa22e98d65e1b25ee026988898d956f4ca599353dad",
  "parentHash": "0xde88fa49799de7b488710973ba06cdabd519cb760a12e612e46348291c566053",
  "number": 93983,
  "timestamp": 1439700788,
  "nonce": "0xc9a356fad828c7b1",
  "difficulty": 3474951494994,
  "gasLimit": {
    "_hex": "0x2fefd8"
  },
  "gasUsed": {
    "_hex": "0x5208"
  },
  "miner": "0xe6A7a1d47ff21B6321162AEA7C6CB457D5476Bca",
  "extraData": "0x476574682f76312e302e312d38326566323666362f6c696e75782f676f312e34",
  "transactions": [
    {
      "hash": "0x8dcd6944dd702f6fb88f5126cfdfc2d5bbe67768713847e32ad8688755c27516",
      "blockHash": "0x9f86d0de9b3fd7a497fd7fa22e98d65e1b25ee026988898d956f4ca599353dad",
      "blockNumber": 93983,
      "transactionIndex": 0,
      "confirmations": null,
      "from": "0x886e83d9133F65B9c27A946f699E88e71A888E4C",
      "gasPrice": {
        "_hex": "0xd2b231b73"
      },
      "gasLimit": {
        "_hex": "0x15f90"
      },
      "to": "0xCbbdAd70d0ff27254925AD37B5C135EEe1116615",
      "value": {
        "_hex": "0x58d15e176280000"
      },
      "nonce": 6,
      "data": "0x",
      "r": "0xb927dc56ebde45fe75d84cba1d74715cdaefb4016cd44eba3b76b6aab7fcfdd3",
      "s": "0x3e50198419cdc6ab17736fb11284dafbf3fd4a32c5ebe0e84fc5bcd6b546dbb8",
      "v": 27,
      "creates": null,
      "raw": "0xf86d06850d2b231b7383015f9094cbbdad70d0ff27254925ad37b5c135eee111661588058d15e176280000801ba0b927dc56ebde45fe75d84cba1d74715cdaefb4016cd44eba3b76b6aab7fcfdd3a03e50198419cdc6ab17736fb11284dafbf3fd4a32c5ebe0e84fc5bcd6b546dbb8",
      "networkId": 0,
      "chainId": 0
    }
  ]
}