{
  "hash": "0x3a65956a0db730eada51551accddd4cad0ce3bcf38ccc6655ccadb8ab5ef0c31",
  "parentHash": "0x4d88baed3c3ba364cd5956e4f7a2baa87d4c2a51d6258a88f82d8bc50a63eedc",
  "number": 102592,
  "timestamp": 1439840343,
  "nonce": "0xda398a06464cd911",
  "difficulty": 4001399211184,
  "gasLimit": {
    "_hex": "0x2fefd8"
  },
  "gasUsed": {
    "_hex": "0x1bdbe"
  },
  "miner": "0xC603Ab5ef41fC61AA8b76bEddb09e3Cfcbb174BD",
  "extraData": "0x476574682f76312e302e312f77696e646f77732f676f312e342e32",
  "transactions": [
    {
      "hash": "0x7ef427b904f0b21907f2f7d600726675a6de629409abab64df0aaf665016c957",
      "blockHash": "0x3a65956a0db730eada51551accddd4cad0ce3bcf38ccc6655ccadb8ab5ef0c31",
      "blockNumber": 102592,
      "transactionIndex": 0,
      "confirmations": null,
      "from": "0xFfeef280ABabd07bD185B0ff831Ac17b8020d365",
      "gasPrice": {
        "_hex": "0xd902e7fda"
      },
      "gasLimit": {
        "_hex": "0x249f0"
      },
      "to": "0xE28e72FCf78647ADCe1F1252F240bbfaebD63BcC",
      "value": {
        "_hex": "0x56bc75e2d63100000"
      },
      "nonce": 2,
      "data": "0x45466f3a",
      "r": "0xe5b5445673418063987c4cc696a87c5c1cf7be3fed5f9649caaa743d0c210437",
      "s": "0x03cb48698b9aa271e6276a89d5d71c3d4a1193d77bc538c508ff04d393554814",
      "v": 27,
      "creates": null,
      "raw": "0xf87202850d902e7fda830249f094e28e72fcf78647adce1f1252f240bbfaebd63bcc89056bc75e2d631000008445466f3a1ba0e5b5445673418063987c4cc696a87c5c1cf7be3fed5f9649caaa743d0c210437a003cb48698b9aa271e6276a89d5d71c3d4a1193d77bc538c508ff04d393554814",
      "networkId": 0,
      "chainId": 0
    }
  ]
}