{
  "hash": "0x2b970a5b4c7f85036139d154f7772c8f6ea63f31cf8e71f6744103f6e0b2c29c",
  "parentHash": "0x08f27ff947361bd69c32f83c4dac4d63ce8d3a009809da0b8b3f66df03ed3ac5",
  "number": 91421,
  "timestamp": 1439655519,
  "nonce": "0x80cb6859ff0ba8ec",
  "difficulty": 3462461265440,
  "gasLimit": {
    "_hex": "0x2fefd8"
  },
  "gasUsed": {
    "_hex": "0x5208"
  },
  "miner": "0xe6A7a1d47ff21B6321162AEA7C6CB457D5476Bca",
  "extraData": "0x476574682f76312e302e312d38326566323666362f6c696e75782f676f312e34",
  "transactions": [
    {
      "hash": "0xae4e463a18a0956032bf89d9a143c235cabb559072959ac1efb7226e0111f715",
      "blockHash": "0x2b970a5b4c7f85036139d154f7772c8f6ea63f31cf8e71f6744103f6e0b2c29c",
      "blockNumber": 91421,
      "transactionIndex": 0,
      "confirmations": null,
      "from": "0x32Be343B94f860124dC4fEe278FDCBD38C102D88",
      "gasPrice": {
        "_hex": "0xd341bb0d3"
      },
      "gasLimit": {
        "_hex": "0x5208"
      },
      "to": "0xE60d047A7f89348A473EB1b32c27A13cB459d776",
      "value": {
        "_hex": "0xcdff7473ca44a00000"
      },
      "nonce": 873,
      "data": "0x",
      "r": "0xfc7351b00399d53fef873e5851d7e4ee51b78a3c2ff9e93e5c2f1ff6f7a4c40b",
      "s": "0x5f893f4e171f5e2366214682c79a00acd41a28618e5ecab3efe95c489148c867",
      "v": 27,
      "creates": null,
      "raw": "0xf86f820369850d341bb0d382520894e60d047a7f89348a473eb1b32c27a13cb459d77689cdff7473ca44a00000801ba0fc7351b00399d53fef873e5851d7e4ee51b78a3c2ff9e93e5c2f1ff6f7a4c40ba05f893f4e171f5e2366214682c79a00acd41a28618e5ecab3efe95c489148c867",
      "networkId": 0,
      "chainId": 0
    }
  ]
}