{
  "hash": "0x6954d8af5168ee0a6e18f63d5faa3f72087a6b4dd1fca5ab9e31d364f3283030",
  "parentHash": "0x0f59f267051d4cc75443ff8a3605cc29bc739011ab92e9a8cf1ad7e7144ed229",
  "number": 84275,
  "timestamp": 1439547416,
  "nonce": "0xcfc4e38b7985aecc",
  "difficulty": 2527932668902,
  "gasLimit": {
    "_hex": "0x2fefd8"
  },
  "gasUsed": {
    "_hex": "0x42a68"
  },
  "miner": "0xe6A7a1d47ff21B6321162AEA7C6CB457D5476Bca",
  "extraData": "0x476574682f76312e302e312d38326566323666362f6c696e75782f676f312e34",
  "transactions": [
    {
      "hash": "0xe58a7807663c1f8c03584b6c7991f180cb17e192a7db85a78e61ea77ea247173",
      "blockHash": "0x6954d8af5168ee0a6e18f63d5faa3f72087a6b4dd1fca5ab9e31d364f3283030",
      "blockNumber": 84275,
      "transactionIndex": 0,
      "confirmations": null,
      "from": "0xe6A7a1d47ff21B6321162AEA7C6CB457D5476Bca",
      "gasPrice": {
        "_hex": "0xe02a5ce2b"
      },
      "gasLimit": {
        "_hex": "0x55f0"
      },
      "to": "0x610821723ac6726cBCec2037C83743dfbDADa663",
      "value": {
        "_hex": "0x3de8f85696ddcaf0"
      },
      "nonce": 1661,
      "data": "0x",
      "r": "0x3fb79757552ce8d658fed2f9543c09c9c030636d9422d2ccdaed501a28c68457",
      "s": "0x6cd088d6484c45f542c0f0f940e0763accd12bc468fc1063b5492cb0b152a731",
      "v": 28,
      "creates": null,
      "raw": "0xf86e82067d850e02a5ce2b8255f094610821723ac6726cbcec2037c83743dfbdada663883de8f85696ddcaf0801ca03fb79757552ce8d658fed2f9543c09c9c030636d9422d2ccdaed501a28c68457a06cd088d6484c45f542c0f0f940e0763accd12bc468fc1063b5492cb0b152a731",
      "networkId": 0,
      "chainId": 0
    },
    {
      "hash": "0x2fc9979c7b7e8cf942c2c709543c0cae367727df1f653a07b5a2f96c8f9d0c4b",
      "blockHash": "0x6954d8af5168ee0a6e18f63d5faa3f72087a6b4dd1fca5ab9e31d364f3283030",
      "blockNumber": 84275,
      "transactionIndex": 1,
      "confirmations": null,
      "from": "0xe6A7a1d47ff21B6321162AEA7C6CB457D5476Bca",
      "gasPrice": {
        "_hex": "0xe02a5ce2b"
      },
      "gasLimit": {
        "_hex": "0x55f0"
      },
      "to": "0x7fDF07A0f977e4032C1f082Df831423abf58D13D",
      "value": {
        "_hex": "0x3e1207b3aa8600c8"
      },
      "nonce": 1662,
      "data": "0x",
      "r": "0x1de42a8ab5bfc70cd4c1d86afe216bfead95777a49be3d3bdd0f8c52912bd232",
      "s": "0x5dd67f3759e3995ae6cc9a829518a8746dedd6bd9a2732682ed6b94263de6640",
      "v": 28,
      "creates": null,
      "raw": "0xf86e82067e850e02a5ce2b8255f0947fdf07a0f977e4032c1f082df831423abf58d13d883e1207b3aa8600c8801ca01de42a8ab5bfc70cd4c1d86afe216bfead95777a49be3d3bdd0f8c52912bd232a05dd67f3759e3995ae6cc9a829518a8746dedd6bd9a2732682ed6b94263de6640",
      "networkId": 0,
      "chainId": 0
    },
    {
      "hash": "0xadb285b16a51855e391fe00b6826bfcdd6d1afbbe95e452a5e06bfb957c415a7",
      "blockHash": "0x6954d8af5168ee0a6e18f63d5faa3f72087a6b4dd1fca5ab9e31d364f3283030",
      "blockNumber": 84275,
      "transactionIndex": 2,
      "confirmations": null,
      "from": "0xe6A7a1d47ff21B6321162AEA7C6CB457D5476Bca",
      "gasPrice": {
        "_hex": "0xe02a5ce2b"
      },
      "gasLimit": {
        "_hex": "0x55f0"
      },
      "to": "0x51f8ecFF73486E3161082dDEc7FbB5450b45D689",
      "value": {
        "_hex": "0x3e37c13229d639a8"
      },
      "nonce": 1663,
      "data": "0x",
      "r": "0x7442d133d7cec1cbb1f8cd6cecd0864ba7da21b437a1110e1ef003f166c260f9",
      "s": "0x784b938378374c4b3c3de16cb562d08259c2ff406e678c36b852ebbae0635eb0",
      "v": 27,
      "creates": null,
      "raw": "0xf86e82067f850e02a5ce2b8255f09451f8ecff73486e3161082ddec7fbb5450b45d689883e37c13229d639a8801ba07442d133d7cec1cbb1f8cd6cecd0864ba7da21b437a1110e1ef003f166c260f9a0784b938378374c4b3c3de16cb562d08259c2ff406e678c36b852ebbae0635eb0",
      "networkId": 0,
      "chainId": 0
    },
    {
      "hash": "0x3e4a6f538f1c4b3d21f52e76e359d66e913d947806be26805a2b654cfc16e09c",
      "blockHash": "0x6954d8af5168ee0a6e18f63d5faa3f72087a6b4dd1fca5ab9e31d364f3283030",
      "blockNumber": 84275,
      "transactionIndex": 3,
      "confirmations": null,
      "from": "0xe6A7a1d47ff21B6321162AEA7C6CB457D5476Bca",
      "gasPrice": {
        "_hex": "0xe02a5ce2b"
      },
      "gasLimit": {
        "_hex": "0x55f0"
      },
      "to": "0x7af25C80793a1CBaBE39Ac9d604729017d9E4001",
      "value": {
        "_hex": "0x4014e59278c42760"
      },
      "nonce": 1664,
      "data": "0x",
      "r": "0x58ae361eaf5a1235313ba60043d8fed75fc1996c2c815750c41bf080d3e6b0fe",
      "s": "0x4782cffd9b6c0966df50badb35de41b321b1a98a10ade473603db6fe6827114a",
      "v": 28,
      "creates": null,
      "raw": "0xf86e820680850e02a5ce2b8255f0947af25c80793a1cbabe39ac9d604729017d9e4001884014e59278c42760801ca058ae361eaf5a1235313ba60043d8fed75fc1996c2c815750c41bf080d3e6b0fea04782cffd9b6c0966df50badb35de41b321b1a98a10ade473603db6fe6827114a",
      "networkId": 0,
      "chainId": 0
    },
    {
      "hash": "0x78a6f61c22c59597e37898c727022bd7de5f72560428b5b4c8f45ed41fc4d612",
      "blockHash": "0x6954d8af5168ee0a6e18f63d5faa3f72087a6b4dd1fca5ab9e31d364f3283030",
      "blockNumber": 84275,
      "transactionIndex": 4,
      "confirmations": null,
      "from": "0xe6A7a1d47ff21B6321162AEA7C6CB457D5476Bca",
      "gasPrice": {
        "_hex": "0xe02a5ce2b"
      },
      "gasLimit": {
        "_hex": "0x55f0"
      },
      "to": "0x605C4282130e22ae43d0e95728788988fA800894",
      "value": {
        "_hex": "0x40c4d982e76208b0"
      },
      "nonce": 1665,
      "data": "0x",
      "r": "0x18f4dbccea31459556abbd44665f39d894f1d15e21f7abe71be87290ec85dac7",
      "s": "0x7fbb348e36669f15747bc2475a31dc1c34c2176145ebf332449d1d8bf631fe1a",
      "v": 27,
      "creates": null,
      "raw": "0xf86e820681850e02a5ce2b8255f094605c4282130e22ae43d0e95728788988fa8008948840c4d982e76208b0801ba018f4dbccea31459556abbd44665f39d894f1d15e21f7abe71be87290ec85dac7a07fbb348e36669f15747bc2475a31dc1c34c2176145ebf332449d1d8bf631fe1a",
      "networkId": 0,
      "chainId": 0
    },
    {
      "hash": "0xaf63926bdc902bd6307b2af7489d4716323537ba33ac3dcf66a9ece1aa9e8335",
      "blockHash": "0x6954d8af5168ee0a6e18f63d5faa3f72087a6b4dd1fca5ab9e31d364f3283030",
      "blockNumber": 84275,
      "transactionIndex": 5,
      "confirmations": null,
      "from": "0xe6A7a1d47ff21B6321162AEA7C6CB457D5476Bca",
      "gasPrice": {
        "_hex": "0xe02a5ce2b"
      },
      "gasLimit": {
        "_hex": "0x55f0"
      },
      "to": "0xA5a5181868a8Df772f87DC95aB9B366e974Da936",
      "value": {
        "_hex": "0x40d3d88ccc72d8a0"
      },
      "nonce": 1666,
      "data": "0x",
      "r": "0x20d41e115934ecb812862c27e88a6eeb43a508643373575e638a2fb1c6855bbf",
      "s": "0x586cf544bac1be71dacfa022f78e7f7dabfead7e425254d93cbf0b2dad779746",
      "v": 28,
      "creates": null,
      "raw": "0xf86e820682850e02a5ce2b8255f094a5a5181868a8df772f87dc95ab9b366e974da9368840d3d88ccc72d8a0801ca020d41e115934ecb812862c27e88a6eeb43a508643373575e638a2fb1c6855bbfa0586cf544bac1be71dacfa022f78e7f7dabfead7e425254d93cbf0b2dad779746",
      "networkId": 0,
      "chainId": 0
    },
    {
      "hash": "0x93ce732af0dacdd0216006d7568b48d80dc660439d341551ecfcef95092bf7f1",
      "blockHash": "0x6954d8af5168ee0a6e18f63d5faa3f72087a6b4dd1fca5ab9e31d364f3283030",
      "blockNumber": 84275,
      "transactionIndex": 6,
      "confirmations": null,
      "from": "0xe6A7a1d47ff21B6321162AEA7C6CB457D5476Bca",
      "gasPrice": {
        "_hex": "0xe02a5ce2b"
      },
      "gasLimit": {
        "_hex": "0x55f0"
      },
      "to": "0xdF8b20CeD9C6Ed58a7219519c1d936fC3b46223A",
      "value": {
        "_hex": "0x41deedd470ee71b0"
      },
      "nonce": 1667,
      "data": "0x",
      "r": "0x1e1b0c3b9315d800c30e186eb9446a1a44673a5cf2a5d1ba9d4ab00c9375c824",
      "s": "0x74a245dbe23d32484b3486bddd1aa412c36c3dbf5d7039904d665163fdf1299b",
      "v": 28,
      "creates": null,
      "raw": "0xf86e820683850e02a5ce2b8255f094df8b20ced9c6ed58a7219519c1d936fc3b46223a8841deedd470ee71b0801ca01e1b0c3b9315d800c30e186eb9446a1a44673a5cf2a5d1ba9d4ab00c9375c824a074a245dbe23d32484b3486bddd1aa412c36c3dbf5d7039904d665163fdf1299b",
      "networkId": 0,
      "chainId": 0
    },
    {
      "hash": "0x1cc703a8a989e4c221e01b111cf8d84c6d3740d57ad715e7cec208ad8d078bea",
      "blockHash": "0x6954d8af5168ee0a6e18f63d5faa3f72087a6b4dd1fca5ab9e31d364f3283030",
      "blockNumber": 84275,
      "transactionIndex": 7,
      "confirmations": null,
      "from": "0xe6A7a1d47ff21B6321162AEA7C6CB457D5476Bca",
      "gasPrice": {
        "_hex": "0xe02a5ce2b"
      },
      "gasLimit": {
        "_hex": "0x55f0"
      },
      "to": "0xAb5199486803893a6dc1AD1D31612895300BCcA9",
      "value": {
        "_hex": "0x41e38775b1bd4b78"
      },
      "nonce": 1668,
      "data": "0x",
      "r": "0x01a9d43715f0108f2086ceeb1ffbce6e886d72ebde70a14a3a6a91f1b0d15e3e",
      "s": "0x6bbf960c628a31034ec5d00426078780aadf35abb59cf81de02716051c0d8343",
      "v": 28,
      "creates": null,
      "raw": "0xf86e820684850e02a5ce2b8255f094ab5199486803893a6dc1ad1d31612895300bcca98841e38775b1bd4b78801ca001a9d43715f0108f2086ceeb1ffbce6e886d72ebde70a14a3a6a91f1b0d15e3ea06bbf960c628a31034ec5d00426078780aadf35abb59cf81de02716051c0d8343",
      "networkId": 0,
      "chainId": 0
    },
    {
      "hash": "0x7004d19230196a0279e7b2fb900558f65ef241208ebe2f8c07cefd3d9c128bf8",
      "blockHash": "0x6954d8af5168ee0a6e18f63d5faa3f72087a6b4dd1fca5ab9e31d364f3283030",
      "blockNumber": 84275,
      "transactionIndex": 8,
      "confirmations": null,
      "from": "0xe6A7a1d47ff21B6321162AEA7C6CB457D5476Bca",
      "gasPrice": {
        "_hex": "0xe02a5ce2b"
      },
      "gasLimit": {
        "_hex": "0x55f0"
      },
      "to": "0xec4B2cCFC84A4C62d73D56c44917986aAAaEe10f",
      "value": {
        "_hex": "0x420a8be2658b6008"
      },
      "nonce": 1669,
      "data": "0x",
      "r": "0x8485e93d23672f157531fb666c0b2553aae27536280659ec427aec5273c55863",
      "s": "0x124badd7ae43790349283d80b0b79672920a35634a99f5085f34f5f6094a562c",
      "v": 27,
      "creates": null,
      "raw": "0xf86e820685850e02a5ce2b8255f094ec4b2ccfc84a4c62d73d56c44917986aaaaee10f88420a8be2658b6008801ba08485e93d23672f157531fb666c0b2553aae27536280659ec427aec5273c55863a0124badd7ae43790349283d80b0b79672920a35634a99f5085f34f5f6094a562c",
      "networkId": 0,
      "chainId": 0
    },
    {
      "hash": "0x86d126b17c261384d63280cfa7c2a2c15afd108ddfe10ab34a6cf0a818c806f0",
      "blockHash": "0x6954d8af5168ee0a6e18f63d5faa3f72087a6b4dd1fca5ab9e31d364f3283030",
      "blockNumber": 84275,
      "transactionIndex": 9,
      "confirmations": null,
      "from": "0xe6A7a1d47ff21B6321162AEA7C6CB457D5476Bca",
      "gasPrice": {
        "_hex": "0xe02a5ce2b"
      },
      "gasLimit": {
        "_hex": "0x55f0"
      },
      "to": "0x7B578F673507975447C714DF2bdCd15801fe30Fe",
      "value": {
        "_hex": "0x422933b8e715bc08"
      },
      "nonce": 1670,
      "data": "0x",
      "r": "0xbc02660f2b9f18215c4f445aae8f1c8064b33b1e48072cf416fcaeb78439137a",
      "s": "0x218b31494d90c16c2c7f37acf7f1049ca00d4a069e9d48a3b2692013f122c729",
      "v": 28,
      "creates": null,
      "raw": "0xf86e820686850e02a5ce2b8255f0947b578f673507975447c714df2bdcd15801fe30fe88422933b8e715bc08801ca0bc02660f2b9f18215c4f445aae8f1c8064b33b1e48072cf416fcaeb78439137aa0218b31494d90c16c2c7f37acf7f1049ca00d4a069e9d48a3b2692013f122c729",
      "networkId": 0,
      "chainId": 0
    },
    {
      "hash": "0xe407d5e9b03289038a01e8b51567016f0e4f243de6b001736ac8236e4ce00020",
      "blockHash": "0x6954d8af5168ee0a6e18f63d5faa3f72087a6b4dd1fca5ab9e31d364f3283030",
      "blockNumber": 84275,
      "transactionIndex": 10,
      "confirmations": null,
      "from": "0xe6A7a1d47ff21B6321162AEA7C6CB457D5476Bca",
      "gasPrice": {
        "_hex": "0xe02a5ce2b"
      },
      "gasLimit": {
        "_hex": "0x55f0"
      },
      "to": "0x60781265e9850f54AE0Bc9545948d05DeE6FC3e3",
      "value": {
        "_hex": "0x4232f1bbe5a133f0"
      },
      "nonce": 1671,
      "data": "0x",
      "r": "0xe734bd90199c553099942a898c1a8f98b9d2eff63b6bbdc62430f1d76fdfb007",
      "s": "0x2ec0467b4a4962ee864b3a65ebb382db6feb57c19f2f43bec9aec2ab20c5dffe",
      "v": 27,
      "creates": null,
      "raw": "0xf86e820687850e02a5ce2b8255f09460781265e9850f54ae0bc9545948d05dee6fc3e3884232f1bbe5a133f0801ba0e734bd90199c553099942a898c1a8f98b9d2eff63b6bbdc62430f1d76fdfb007a02ec0467b4a4962ee864b3a65ebb382db6feb57c19f2f43bec9aec2ab20c5dffe",
      "networkId": 0,
      "chainId": 0
    },
    {
      "hash": "0x25d027b0ab4a0ff02a681c7560271b44fa3553a1f11ecaac2f4d2d1446a8511b",
      "blockHash": "0x6954d8af5168ee0a6e18f63d5faa3f72087a6b4dd1fca5ab9e31d364f3283030",
      "blockNumber": 84275,
      "transactionIndex": 11,
      "confirmations": null,
      "from": "0xe6A7a1d47ff21B6321162AEA7C6CB457D5476Bca",
      "gasPrice": {
        "_hex": "0xe02a5ce2b"
      },
      "gasLimit": {
        "_hex": "0x55f0"
      },
      "to": "0xc544B25bb91b87e380dda392687c6216b0260671",
      "value": {
        "_hex": "0x4297fbdfa85bb8d8"
      },
      "nonce": 1672,
      "data": "0x",
      "r": "0x19146b1b61edb9d0e50d725b23b33ed5fe94d1dc778578f3596618f9f7a742f4",
      "s": "0x5e12cbefabb68e73686a6bc4792948923922682025fcd24ce5a0d3936dac9c74",
      "v": 27,
      "creates": null,
      "raw": "0xf86e820688850e02a5ce2b8255f094c544b25bb91b87e380dda392687c6216b0260671884297fbdfa85bb8d8801ba019146b1b61edb9d0e50d725b23b33ed5fe94d1dc778578f3596618f9f7a742f4a05e12cbefabb68e73686a6bc4792948923922682025fcd24ce5a0d3936dac9c74",
      "networkId": 0,
      "chainId": 0
    },
    {
      "hash": "0x3a585e510c10b9bf5f3bee9a4aedb4e641e75193a593e86468533254ae90949e",
      "blockHash": "0x6954d8af5168ee0a6e18f63d5faa3f72087a6b4dd1fca5ab9e31d364f3283030",
      "blockNumber": 84275,
      "transactionIndex": 12,
      "confirmations": null,
      "from": "0xe6A7a1d47ff21B6321162AEA7C6CB457D5476Bca",
      "gasPrice": {
        "_hex": "0xe02a5ce2b"
      },
      "gasLimit": {
        "_hex": "0x55f0"
      },
      "to": "0xf97e4688e66CD658F9666d93FD97f779b80218a0",
      "value": {
        "_hex": "0x42f8158d379d34a0"
      },
      "nonce": 1673,
      "data": "0x",
      "r": "0xc24b486e309c57f5738d11412fbd71839d746a722d5fb13c54fb2d668eaa9cd5",
      "s": "0x716c2bdd850813147bc2affaba31f223b9ee9b53a0053d069cef09794c77f3b3",
      "v": 28,
      "creates": null,
      "raw": "0xf86e820689850e02a5ce2b8255f094f97e4688e66cd658f9666d93fd97f779b80218a08842f8158d379d34a0801ca0c24b486e309c57f5738d11412fbd71839d746a722d5fb13c54fb2d668eaa9cd5a0716c2bdd850813147bc2affaba31f223b9ee9b53a0053d069cef09794c77f3b3",
      "networkId": 0,
      "chainId": 0
    }
  ]
}