{
  "hash": "0x0109e31f4f24bfb87499cccbe94bd6bd934ef4be60426663c9e99548dd893e33",
  "parentHash": "0x5f6d5d7240b7dcc3400fc8aa1d1d08790859b52f9dd280c91b5075c60d832234",
  "number": 68628,
  "timestamp": 1439291063,
  "nonce": "0xdd10e49de17328c9",
  "difficulty": 2020192639948,
  "gasLimit": {
    "_hex": "0x2fefd8"
  },
  "gasUsed": {
    "_hex": "0x6baa8"
  },
  "miner": "0x0eDEd3DA479d0beF8eeC92A76644D3f4E3C177f7",
  "extraData": "0x476574682f76312e302e312f6c696e75782f676f312e342e32",
  "transactions": [
    {
      "hash": "0x83dcf403841264255ed1b383f016eae4c84792f67cf5bd486b50e89096008645",
      "blockHash": "0x0109e31f4f24bfb87499cccbe94bd6bd934ef4be60426663c9e99548dd893e33",
      "blockNumber": 68628,
      "transactionIndex": 0,
      "confirmations": null,
      "from": "0xd502FD7463d800Fa50F019A0B24B4aDF1D5778fE",
      "gasPrice": {
        "_hex": "0xba43b7400"
      },
      "gasLimit": {
        "_hex": "0x5208"
      },
      "to": "0xA6d28a5720E0D51FD8C5FeEAe807Ff13F2808b7f",
      "value": {
        "_hex": "0x163b86e28a38000"
      },
      "nonce": 1,
      "data": "0x",
      "r": "0x616b191ff91ff74688cbf903a839475913a172903b5cea7466014c097d699f8e",
      "s": "0x261ac11d5c0348faa0f5606a4c1ab57fa0f10c6124448297af11b82ff47f9ec9",
      "v": 28,
      "creates": null,
      "raw": "0xf86c01850ba43b740082520894a6d28a5720e0d51fd8c5feeae807ff13f2808b7f880163b86e28a38000801ca0616b191ff91ff74688cbf903a839475913a172903b5cea7466014c097d699f8ea0261ac11d5c0348faa0f5606a4c1ab57fa0f10c6124448297af11b82ff47f9ec9",
      "networkId": 0,
      "chainId": 0
    },
    {
      "hash": "0x222d3c9693e05dd1b8b04fcd8f58054b730564c1590f68c489411b0b5127560b",
      "blockHash": "0x0109e31f4f24bfb87499cccbe94bd6bd934ef4be60426663c9e99548dd893e33",
      "blockNumber": 68628,
      "transactionIndex": 1,
      "confirmations": null,
      "from": "0xDce5D410cd7D856aDc7033E79dB7dA12E3Ef814a",
      "gasPrice": {
        "_hex": "0xba43b7400"
      },
      "gasLimit": {
        "_hex": "0x5208"
      },
      "to": "0xb879a6150B910d734155FDC4d501d097982684e7",
      "value": {
        "_hex": "0x163b86e28a38000"
      },
      "nonce": 1,
      "data": "0x",
      "r": "0xab6992876567ea6aa662f96a6902b970804988b4296d47f6380a8ce427b770b9",
      "s": "0x7a5634753ddade2007f1ed2eec22fe25444b0e7a8d6b84a5c57c84300952adb5",
      "v": 28,
      "creates": null,
      "raw": "0xf86c01850ba43b740082520894b879a6150b910d734155fdc4d501d097982684e7880163b86e28a38000801ca0ab6992876567ea6aa662f96a6902b970804988b4296d47f6380a8ce427b770b9a07a5634753ddade2007f1ed2eec22fe25444b0e7a8d6b84a5c57c84300952adb5",
      "networkId": 0,
      "chainId": 0
    },
    {
      "hash": "0x494314016f56f9b47d9105bd06f2f8ce83eea131716deaf981e8df5a14623cb9",
      "blockHash": "0x0109e31f4f24bfb87499cccbe94bd6bd934ef4be60426663c9e99548dd893e33",
      "blockNumber": 68628,
      "transactionIndex": 2,
      "confirmations": null,
      "from": "0xAb30a2e06438Cc77Da8Fa2f608d8B67e0A718490",
      "gasPrice": {
        "_hex": "0xba43b7400"
      },
      "gasLimit": {
        "_hex": "0x5208"
      },
      "to": "0x89a2FD010E3cdBE4E84D0b97472a4F1f016CAFC6",
      "value": {
        "_hex": "0x163b86e28a38000"
      },
      "nonce": 1,
      "data": "0x",
      "r": "0xab3695ca37fa8eb16baa9d5b0d67f31d1d80c027dc1e1d739475044ed8912040",
      "s": "0x64ff227a4a44d3865044bc5e8ffbcebbf6a17b7c857d30dce1e018bbaec4f6e7",
      "v": 28,
      "creates": null,
      "raw": "0xf86c01850ba43b74008252089489a2fd010e3cdbe4e84d0b97472a4f1f016cafc6880163b86e28a38000801ca0ab3695ca37fa8eb16baa9d5b0d67f31d1d80c027dc1e1d739475044ed8912040a064ff227a4a44d3865044bc5e8ffbcebbf6a17b7c857d30dce1e018bbaec4f6e7",
      "networkId": 0,
      "chainId": 0
    },
    {
      "hash": "0x9160eadc649c38b015b6571bb764f41ef8425e6da08dc8d666a180ad28a45f6b",
      "blockHash": "0x0109e31f4f24bfb87499cccbe94bd6bd934ef4be60426663c9e99548dd893e33",
      "blockNumber": 68628,
      "transactionIndex": 3,
      "confirmations": null,
      "from": "0xDe6B086F67C7dfBCB4BbA0f0B3Be2dFF4Bd510a7",
      "gasPrice": {
        "_hex": "0xba43b7400"
      },
      "gasLimit": {
        "_hex": "0x5208"
      },
      "to": "0x476bdAA7869D6C964204AFA1Fa86a5BAD3F3f37b",
      "value": {
        "_hex": "0x163b86e28a38000"
      },
      "nonce": 1,
      "data": "0x",
      "r": "0x67cf987cb218d430a1801a3c4ceccaf6cb321ed5c3c21729c0ad20e9f8e48758",
      "s": "0x43d37e3382a9cb95ef440684a0154cc8c13590280e40f130038d816b419ea65c",
      "v": 27,
      "creates": null,
      "raw": "0xf86c01850ba43b740082520894476bdaa7869d6c964204afa1fa86a5bad3f3f37b880163b86e28a38000801ba067cf987cb218d430a1801a3c4ceccaf6cb321ed5c3c21729c0ad20e9f8e48758a043d37e3382a9cb95ef440684a0154cc8c13590280e40f130038d816b419ea65c",
      "networkId": 0,
      "chainId": 0
    },
    {
      "hash": "0x260b1e778109870d59b7c82395abd2bde07f2c0bd2210744de6da30651a578f7",
      "blockHash": "0x0109e31f4f24bfb87499cccbe94bd6bd934ef4be60426663c9e99548dd893e33",
      "blockNumber": 68628,
      "transactionIndex": 4,
      "confirmations": null,
      "from": "0xeAd21d5CFfb134488066a3C41F5B1780B4fff829",
      "gasPrice": {
        "_hex": "0xba43b7400"
      },
      "gasLimit": {
        "_hex": "0x5208"
      },
      "to": "0xd5375eBB15CF409D4b083E9121B98658Dc81defc",
      "value": {
        "_hex": "0x163b86e28a38000"
      },
      "nonce": 1,
      "data": "0x",
      "r": "0x3b1db0fa9ac58ccc2e2bf7711a0270328366df85f3700af88b8a27cfe3ab5153",
      "s": "0x4f24964ce884b4f511004a95d4413714f3262327340ba17276ab32214168444e",
      "v": 28,
      "creates": null,
      "raw": "0xf86c01850ba43b740082520894d5375ebb15cf409d4b083e9121b98658dc81defc880163b86e28a38000801ca03b1db0fa9ac58ccc2e2bf7711a0270328366df85f3700af88b8a27cfe3ab5153a04f24964ce884b4f511004a95d4413714f3262327340ba17276ab32214168444e",
      "networkId": 0,
      "chainId": 0
    },
    {
      "hash": "0x3ddd8a5202cc578390ca665c97a0cacae4af4e1eb6d7bd571db10aac19469af1",
      "blockHash": "0x0109e31f4f24bfb87499cccbe94bd6bd934ef4be60426663c9e99548dd893e33",
      "blockNumber": 68628,
      "transactionIndex": 5,
      "confirmations": null,
      "from": "0xA95f4b6C49e02eD6cc7bB494Bf188BddA7249f12",
      "gasPrice": {
        "_hex": "0xba43b7400"
      },
      "gasLimit": {
        "_hex": "0x5208"
      },
      "to": "0xdC4357B572Fe45779ee88E920A2De6392e4A7196",
      "value": {
        "_hex": "0x163b86e28a38000"
      },
      "nonce": 1,
      "data": "0x",
      "r": "0xf92106a4b310fe6c48497dc40b425746a6328d6b31705a10b903a03351c68047",
      "s": "0x13e8dcab0a78ac97448e7c7e96144cee9fbb60e7b2c1b4901ed98774255274d0",
      "v": 27,
      "creates": null,
      "raw": "0xf86c01850ba43b740082520894dc4357b572fe45779ee88e920a2de6392e4a7196880163b86e28a38000801ba0f92106a4b310fe6c48497dc40b425746a6328d6b31705a10b903a03351c68047a013e8dcab0a78ac97448e7c7e96144cee9fbb60e7b2c1b4901ed98774255274d0",
      "networkId": 0,
      "chainId": 0
    },
    {
      "hash": "0xa911985faddd569d7754e8d4674459b453e32ec359a2e7511f3c3e36fc356d0f",
      "blockHash": "0x0109e31f4f24bfb87499cccbe94bd6bd934ef4be60426663c9e99548dd893e33",
      "blockNumber": 68628,
      "transactionIndex": 6,
      "confirmations": null,
      "from": "0xA567A26A854e89a79818204620f63C220b6bd950",
      "gasPrice": {
        "_hex": "0xba43b7400"
      },
      "gasLimit": {
        "_hex": "0x5208"
      },
      "to": "0x713c3C88AA03630f6ac890D69DE8e3F69BcF8D82",
      "value": {
        "_hex": "0x163b86e28a38000"
      },
      "nonce": 1,
      "data": "0x",
      "r": "0x8cad8075781d7f9d01f92b943355e318ff7b64b3b913c500e7eb44cb0bf71723",
      "s": "0x272293b9cdf40152706b1ec73b75141d785eb1dea02c76fab400fc80cf3c7d86",
      "v": 27,
      "creates": null,
      "raw": "0xf86c01850ba43b740082520894713c3c88aa03630f6ac890d69de8e3f69bcf8d82880163b86e28a38000801ba08cad8075781d7f9d01f92b943355e318ff7b64b3b913c500e7eb44cb0bf71723a0272293b9cdf40152706b1ec73b75141d785eb1dea02c76fab400fc80cf3c7d86",
      "networkId": 0,
      "chainId": 0
    },
    {
      "hash": "0x989a7ca28462da09649a165d3a86777789ef4779768320a90add16b6f9a0a59c",
      "blockHash": "0x0109e31f4f24bfb87499cccbe94bd6bd934ef4be60426663c9e99548dd893e33",
      "blockNumber": 68628,
      "transactionIndex": 7,
      "confirmations": null,
      "from": "0x7029A53aEc258129aD5dCb049f09101EEEf82651",
      "gasPrice": {
        "_hex": "0xba43b7400"
      },
      "gasLimit": {
        "_hex": "0x5208"
      },
      "to": "0xf6a9095B1ED6779EfC6bdDBc9F641E05Ad6449A6",
      "value": {
        "_hex": "0x163b86e28a38000"
      },
      "nonce": 1,
      "data": "0x",
      "r": "0xfd88d6c3a8c416685b445325889f93bdba4b2618d8f06246346b9cd6d790f0ea",
      "s": "0x11f2b4b2a7549ab71dc9cfaf9719ca4db69db95bafaa6c8c2319821b2a930b3c",
      "v": 28,
      "creates": null,
      "raw": "0xf86c01850ba43b740082520894f6a9095b1ed6779efc6bddbc9f641e05ad6449a6880163b86e28a38000801ca0fd88d6c3a8c416685b445325889f93bdba4b2618d8f06246346b9cd6d790f0eaa011f2b4b2a7549ab71dc9cfaf9719ca4db69db95bafaa6c8c2319821b2a930b3c",
      "networkId": 0,
      "chainId": 0
    },
    {
      "hash": "0x9b93f52df32881e24d45c7dec776701569dd306a8f45d5ca1f8443ef5444c342",
      "blockHash": "0x0109e31f4f24bfb87499cccbe94bd6bd934ef4be60426663c9e99548dd893e33",
      "blockNumber": 68628,
      "transactionIndex": 8,
      "confirmations": null,
      "from": "0xB9CE1E0E34DCE7Be4D0DA790F206bEa69cE2c224",
      "gasPrice": {
        "_hex": "0xba43b7400"
      },
      "gasLimit": {
        "_hex": "0x5208"
      },
      "to": "0x58Ff3011878079142059Ab126C3d3D6982777dDd",
      "value": {
        "_hex": "0x163b86e28a38000"
      },
      "nonce": 1,
      "data": "0x",
      "r": "0x543cf646008fe70de0a9e6e152e15019fb2b77242f6a299315d06687da6a9d33",
      "s": "0x0aca7c552606b0d139380c53acf818ed913fd6419bf503d3b0c2ad897e4101ee",
      "v": 28,
      "creates": null,
      "raw": "0xf86c01850ba43b74008252089458ff3011878079142059ab126c3d3d6982777ddd880163b86e28a38000801ca0543cf646008fe70de0a9e6e152e15019fb2b77242f6a299315d06687da6a9d33a00aca7c552606b0d139380c53acf818ed913fd6419bf503d3b0c2ad897e4101ee",
      "networkId": 0,
      "chainId": 0
    },
    {
      "hash": "0xbf05ae89d9d74a5c41dd17bb7cff7523a099c71de91ac610bccb072bc34761a3",
      "blockHash": "0x0109e31f4f24bfb87499cccbe94bd6bd934ef4be60426663c9e99548dd893e33",
      "blockNumber": 68628,
      "transactionIndex": 9,
      "confirmations": null,
      "from": "0x826E4614196fE2A30F373E99Ab439DDBE84381d7",
      "gasPrice": {
        "_hex": "0xba43b7400"
      },
      "gasLimit": {
        "_hex": "0x5208"
      },
      "to": "0x7FA5adC8A01E387cd7Fb496C6452c673a6beD424",
      "value": {
        "_hex": "0x163b86e28a38000"
      },
      "nonce": 1,
      "data": "0x",
      "r": "0x039716e729dc29cb8798870089217c16c27c36f1dc10d4b376e62e2f9ef248cb",
      "s": "0x4da232fd62ba24b368c52e29f773ddb17813a70a2b274e0f4f833645efe7c1c9",
      "v": 27,
      "creates": null,
      "raw": "0xf86c01850ba43b7400825208947fa5adc8a01e387cd7fb496c6452c673a6bed424880163b86e28a38000801ba0039716e729dc29cb8798870089217c16c27c36f1dc10d4b376e62e2f9ef248cba04da232fd62ba24b368c52e29f773ddb17813a70a2b274e0f4f833645efe7c1c9",
      "networkId": 0,
      "chainId": 0
    },
    {
      "hash": "0xe19376f1fa6c7394020e68a927b2e56258284b8f55a8c70720034489a6c4c77f",
      "blockHash": "0x0109e31f4f24bfb87499cccbe94bd6bd934ef4be60426663c9e99548dd893e33",
      "blockNumber": 68628,
      "transactionIndex": 10,
      "confirmations": null,
      "from": "0x5DA37cd0855f0be39Ee8157Ac42Ef60070218cb3",
      "gasPrice": {
        "_hex": "0xba43b7400"
      },
      "gasLimit": {
        "_hex": "0x5208"
      },
      "to": "0xCB0AE669157A8be0524Cbb600f399FD9e05b92Bd",
      "value": {
        "_hex": "0x163b86e28a38000"
      },
      "nonce": 1,
      "data": "0x",
      "r": "0x37bc49e70c1bc247eafebeca1bd1e8bed5435fc1276da99cf8d0130072f8f083",
      "s": "0x3c64b36e9406cf5cb1eaa225a7c40a8af0151962ceb2acc95c726f706469d79a",
      "v": 28,
      "creates": null,
      "raw": "0xf86c01850ba43b740082520894cb0ae669157a8be0524cbb600f399fd9e05b92bd880163b86e28a38000801ca037bc49e70c1bc247eafebeca1bd1e8bed5435fc1276da99cf8d0130072f8f083a03c64b36e9406cf5cb1eaa225a7c40a8af0151962ceb2acc95c726f706469d79a",
      "networkId": 0,
      "chainId": 0
    },
    {
      "hash": "0x38cdf6523274239bb77e8e0c4c5d8e062d08172484f078167dc97a28469c949a",
      "blockHash": "0x0109e31f4f24bfb87499cccbe94bd6bd934ef4be60426663c9e99548dd893e33",
      "blockNumber": 68628,
      "transactionIndex": 11,
      "confirmations": null,
      "from": "0x4F8fe6d696611d86fD17F868d3949d98298D73Fa",
      "gasPrice": {
        "_hex": "0xba43b7400"
      },
      "gasLimit": {
        "_hex": "0x5208"
      },
      "to": "0x18e1823Ad69bbd7dA1718f0F31D7E05Ec90F236F",
      "value": {
        "_hex": "0x163b86e28a38000"
      },
      "nonce": 1,
      "data": "0x",
      "r": "0xc4dedeaca05c0405b2a37341457ecb8183f25aed7787980e24a6febb13070109",
      "s": "0x493fb1313684534aaaa57335622e31fdfdcf8ed26c7e9676ea1511e069e8968b",
      "v": 28,
      "creates": null,
      "raw": "0xf86c01850ba43b74008252089418e1823ad69bbd7da1718f0f31d7e05ec90f236f880163b86e28a38000801ca0c4dedeaca05c0405b2a37341457ecb8183f25aed7787980e24a6febb13070109a0493fb1313684534aaaa57335622e31fdfdcf8ed26c7e9676ea1511e069e8968b",
      "networkId": 0,
      "chainId": 0
    },
    {
      "hash": "0xf13359d49838da82a6979b9aa556f9b0fa09ced8802c69c35432a567b0bb9964",
      "blockHash": "0x0109e31f4f24bfb87499cccbe94bd6bd934ef4be60426663c9e99548dd893e33",
      "blockNumber": 68628,
      "transactionIndex": 12,
      "confirmations": null,
      "from": "0xA781304d89969A39a7b6F9770C9307561E323E8a",
      "gasPrice": {
        "_hex": "0xba43b7400"
      },
      "gasLimit": {
        "_hex": "0x5208"
      },
      "to": "0xF8781B31324867d19e7e9bf8D19AE3f682148B7D",
      "value": {
        "_hex": "0x163b86e28a38000"
      },
      "nonce": 1,
      "data": "0x",
      "r": "0x4844ea56a5f5b3641a0c4e706265e717d41ee187d60b97dd28ddab27b0aa6f96",
      "s": "0x55eddf2f23ced44af362b1675dd8be06c79dd287fcec6237f78abd0bb9977a93",
      "v": 28,
      "creates": null,
      "raw": "0xf86c01850ba43b740082520894f8781b31324867d19e7e9bf8d19ae3f682148b7d880163b86e28a38000801ca04844ea56a5f5b3641a0c4e706265e717d41ee187d60b97dd28ddab27b0aa6f96a055eddf2f23ced44af362b1675dd8be06c79dd287fcec6237f78abd0bb9977a93",
      "networkId": 0,
      "chainId": 0
    },
    {
      "hash": "0x50b8f9af738eb0483a2c4d9938b787e1192f8636670a6ed636b63330d699674d",
      "blockHash": "0x0109e31f4f24bfb87499cccbe94bd6bd934ef4be60426663c9e99548dd893e33",
      "blockNumber": 68628,
      "transactionIndex": 13,
      "confirmations": null,
      "from": "0x7e3c2Eb24B4e9a798be2286e8789dDEA28967D4b",
      "gasPrice": {
        "_hex": "0xba43b7400"
      },
      "gasLimit": {
        "_hex": "0x5208"
      },
      "to": "0x7E9aC8f8550268328e4ddbA89d7B902098f594fC",
      "value": {
        "_hex": "0x163b86e28a38000"
      },
      "nonce": 1,
      "data": "0x",
      "r": "0xd10b7b788565d7c3fd8c2bc42b85cda8a5eb0d84bd215957d507f728210f27fd",
      "s": "0x3f2b662d2d6e648df2717590d96e4439a2d406bc1189f03a153a0e6a2728e135",
      "v": 28,
      "creates": null,
      "raw": "0xf86c01850ba43b7400825208947e9ac8f8550268328e4ddba89d7b902098f594fc880163b86e28a38000801ca0d10b7b788565d7c3fd8c2bc42b85cda8a5eb0d84bd215957d507f728210f27fda03f2b662d2d6e648df2717590d96e4439a2d406bc1189f03a153a0e6a2728e135",
      "networkId": 0,
      "chainId": 0
    },
    {
      "hash": "0x1ed8417894d87618fec642d857a53b98f203778fab2971f6c0aa630760f00bf0",
      "blockHash": "0x0109e31f4f24bfb87499cccbe94bd6bd934ef4be60426663c9e99548dd893e33",
      "blockNumber": 68628,
      "transactionIndex": 14,
      "confirmations": null,
      "from": "0xF88A2Def459a4840313B08813A3085E62bD26E4e",
      "gasPrice": {
        "_hex": "0xba43b7400"
      },
      "gasLimit": {
        "_hex": "0x5208"
      },
      "to": "0x394b6501C6Fa912D9c01a82A93eF6a2f1B55946D",
      "value": {
        "_hex": "0x163b86e28a38000"
      },
      "nonce": 1,
      "data": "0x",
      "r": "0xc464f00d60169dbe843035967181ff71dda0167083ea916c358c3429941d0390",
      "s": "0x195fa6c59f02419e74fe931a22e60d982bcc85d07c212b5c75230e981e275e99",
      "v": 27,
      "creates": null,
      "raw": "0xf86c01850ba43b740082520894394b6501c6fa912d9c01a82a93ef6a2f1b55946d880163b86e28a38000801ba0c464f00d60169dbe843035967181ff71dda0167083ea916c358c3429941d0390a0195fa6c59f02419e74fe931a22e60d982bcc85d07c212b5c75230e981e275e99",
      "networkId": 0,
      "chainId": 0
    },
    {
      "hash": "0x5f109787cc3df73fd286a3ffbb000f9e72a633f4efd1b86783072cb04385c325",
      "blockHash": "0x0109e31f4f24bfb87499cccbe94bd6bd934ef4be60426663c9e99548dd893e33",
      "blockNumber": 68628,
      "transactionIndex": 15,
      "confirmations": null,
      "from": "0x12Ab697CAA725e156dA8e07fFEEe8AeDd33f1EE6",
      "gasPrice": {
        "_hex": "0xba43b7400"
      },
      "gasLimit": {
        "_hex": "0x5208"
      },
      "to": "0xdeb04086E705c30aD5A18127aF9D57403fEc7dC0",
      "value": {
        "_hex": "0x163b86e28a38000"
      },
      "nonce": 1,
      "data": "0x",
      "r": "0xc8ac5a96eaaa2ee61cbc66ebe167fcfd21945b7c60421b52bf0a6bfee7cdacd6",
      "s": "0x1ac97423b97d595edb7d3fffd3212e4969c40c0d739e1c5f4fd7cedf567365a4",
      "v": 28,
      "creates": null,
      "raw": "0xf86c01850ba43b740082520894deb04086e705c30ad5a18127af9d57403fec7dc0880163b86e28a38000801ca0c8ac5a96eaaa2ee61cbc66ebe167fcfd21945b7c60421b52bf0a6bfee7cdacd6a01ac97423b97d595edb7d3fffd3212e4969c40c0d739e1c5f4fd7cedf567365a4",
      "networkId": 0,
      "chainId": 0
    },
    {
      "hash": "0x628fc796cd1fab8aadc8ee8e2f1b15ac6eb2c7b9082200e1e31634641f4aa5e5",
      "blockHash": "0x0109e31f4f24bfb87499cccbe94bd6bd934ef4be60426663c9e99548dd893e33",
      "blockNumber": 68628,
      "transactionIndex": 16,
      "confirmations": null,
      "from": "0x3bbe753e3D86d4c7aA531573B98f13a4676A2512",
      "gasPrice": {
        "_hex": "0xba43b7400"
      },
      "gasLimit": {
        "_hex": "0x5208"
      },
      "to": "0xB38132c36011BaACe92428262595328cC5E5981c",
      "value": {
        "_hex": "0x163b86e28a38000"
      },
      "nonce": 1,
      "data": "0x",
      "r": "0x2830c52866e7392955c24b496ada36f532aeab605121ccdc5cc2e0406e73ffb6",
      "s": "0x710989c2e0b40f3c6238ca68434d83b470037e5324058590f5a1a8eb6cc5fd37",
      "v": 27,
      "creates": null,
      "raw": "0xf86c01850ba43b740082520894b38132c36011baace92428262595328cc5e5981c880163b86e28a38000801ba02830c52866e7392955c24b496ada36f532aeab605121ccdc5cc2e0406e73ffb6a0710989c2e0b40f3c6238ca68434d83b470037e5324058590f5a1a8eb6cc5fd37",
      "networkId": 0,
      "chainId": 0
    },
    {
      "hash": "0x2057598ce5b0f59429c1c0f29b0c31d570deddce46538d9432013684bdf14e7e",
      "blockHash": "0x0109e31f4f24bfb87499cccbe94bd6bd934ef4be60426663c9e99548dd893e33",
      "blockNumber": 68628,
      "transactionIndex": 17,
      "confirmations": null,
      "from": "0xA79dDbbabde78C010617C76A81DEc1E1E5fD289A",
      "gasPrice": {
        "_hex": "0xba43b7400"
      },
      "gasLimit": {
        "_hex": "0x5208"
      },
      "to": "0xC04c52161144Fcae0e105385dd24965E38FA0365",
      "value": {
        "_hex": "0x163b86e28a38000"
      },
      "nonce": 1,
      "data": "0x",
      "r": "0x7c9f84a6dac9047fd4e778005ee48044fa0405a9493bff7c04b98fcae5651af2",
      "s": "0x58835478c4fe55bda1eabba92648c1f28ad207ecda41088e2d385a4120234d70",
      "v": 28,
      "creates": null,
      "raw": "0xf86c01850ba43b740082520894c04c52161144fcae0e105385dd24965e38fa0365880163b86e28a38000801ca07c9f84a6dac9047fd4e778005ee48044fa0405a9493bff7c04b98fcae5651af2a058835478c4fe55bda1eabba92648c1f28ad207ecda41088e2d385a4120234d70",
      "networkId": 0,
      "chainId": 0
    },
    {
      "hash": "0x161466eafb65d04529f6490101e9d7ba2cb9450384762955607038042b96c9dd",
      "blockHash": "0x0109e31f4f24bfb87499cccbe94bd6bd934ef4be60426663c9e99548dd893e33",
      "blockNumber": 68628,
      "transactionIndex": 18,
      "confirmations": null,
      "from": "0x8c4B8EF3D3cb4a743a0BaCE6609cC7512dD7bC19",
      "gasPrice": {
        "_hex": "0xba43b7400"
      },
      "gasLimit": {
        "_hex": "0x5208"
      },
      "to": "0x073e9a6475B8941DA144B72DcCbaB16110062a02",
      "value": {
        "_hex": "0x163b86e28a38000"
      },
      "nonce": 1,
      "data": "0x",
      "r": "0xb0e627871bf76715ebd50a6542d90f3458afa39a7b77e69ea12774acdc96045e",
      "s": "0x75b6bd3d2853460c4324954be54f5bb4baa3d1a2aa6ba62564d07e766be5a94c",
      "v": 27,
      "creates": null,
      "raw": "0xf86c01850ba43b740082520894073e9a6475b8941da144b72dccbab16110062a02880163b86e28a38000801ba0b0e627871bf76715ebd50a6542d90f3458afa39a7b77e69ea12774acdc96045ea075b6bd3d2853460c4324954be54f5bb4baa3d1a2aa6ba62564d07e766be5a94c",
      "networkId": 0,
      "chainId": 0
    },
    {
      "hash": "0xb86be43a4c39fc07a7a810be70caa092f831801ffa241e81cc17f9ea25082be7",
      "blockHash": "0x0109e31f4f24bfb87499cccbe94bd6bd934ef4be60426663c9e99548dd893e33",
      "blockNumber": 68628,
      "transactionIndex": 19,
      "confirmations": null,
      "from": "0x66F8f93C8D942521159826f023FaE6Bea2fCb3D0",
      "gasPrice": {
        "_hex": "0xba43b7400"
      },
      "gasLimit": {
        "_hex": "0x5208"
      },
      "to": "0xAfa779EbaFB4D919b290565Be48668ef38E585eD",
      "value": {
        "_hex": "0x163b86e28a38000"
      },
      "nonce": 1,
      "data": "0x",
      "r": "0x5981d00d6369557d42c1902a153a8957ce17e80c17fb0a925fee309085975f51",
      "s": "0x18a5d735cb2d469d7923d62cd4ed4807ea0ef3068fff8b2d20a8fa8b76e3c84c",
      "v": 28,
      "creates": null,
      "raw": "0xf86c01850ba43b740082520894afa779ebafb4d919b290565be48668ef38e585ed880163b86e28a38000801ca05981d00d6369557d42c1902a153a8957ce17e80c17fb0a925fee309085975f51a018a5d735cb2d469d7923d62cd4ed4807ea0ef3068fff8b2d20a8fa8b76e3c84c",
      "networkId": 0,
      "chainId": 0
    },
    {
      "hash": "0xc2fdc4768c4eb6b17b400919a0ffe4667df4bacf5d43c50fea36f19ec106db45",
      "blockHash": "0x0109e31f4f24bfb87499cccbe94bd6bd934ef4be60426663c9e99548dd893e33",
      "blockNumber": 68628,
      "transactionIndex": 20,
      "confirmations": null,
      "from": "0x04452CFf438E32994b551d0e1DF8434824FD2bD7",
      "gasPrice": {
        "_hex": "0xba43b7400"
      },
      "gasLimit": {
        "_hex": "0x5208"
      },
      "to": "0x18dF57d10Cd5813fb1e9aA2f4aA78b9fbb4Ec2ac",
      "value": {
        "_hex": "0x163b86e28a38000"
      },
      "nonce": 1,
      "data": "0x",
      "r": "0xb765f5f0543715559cd3369fb910c9f22fc95c7e886c9ed8684c6a579c0326cb",
      "s": "0x0d1200979500cef09fa79dc03c53b0d3a7b5140e179a6e97a503566b29b3e195",
      "v": 27,
      "creates": null,
      "raw": "0xf86c01850ba43b74008252089418df57d10cd5813fb1e9aa2f4aa78b9fbb4ec2ac880163b86e28a38000801ba0b765f5f0543715559cd3369fb910c9f22fc95c7e886c9ed8684c6a579c0326cba00d1200979500cef09fa79dc03c53b0d3a7b5140e179a6e97a503566b29b3e195",
      "networkId": 0,
      "chainId": 0
    }
  ]
}