{
  "hash": "0x0ea7af57b33e5cae6e97e52d3d791f5e9ef863a68b03d199fb869f16808a048c",
  "parentHash": "0xa0ec29951a2d6536a6dcedccca204f410fe1c36224a340b712e857461aae749e",
  "number": 65066,
  "timestamp": 1439230682,
  "nonce": "0xd41ff147d7a63256",
  "difficulty": 1928499989087,
  "gasLimit": {
    "_hex": "0x2fefd8"
  },
  "gasUsed": {
    "_hex": "0x17cd8"
  },
  "miner": "0x79d5794171E11dd5C2f0e26E1C187319db2FE6f7",
  "extraData": "0x",
  "transactions": [
    {
      "hash": "0x2cd95b36e2ff294c654b22f0b816d86c680c444ad41e6246d192d13125e5fdcc",
      "blockHash": "0x0ea7af57b33e5cae6e97e52d3d791f5e9ef863a68b03d199fb869f16808a048c",
      "blockNumber": 65066,
      "transactionIndex": 0,
      "confirmations": null,
      "from": "0x1C4b22D11D3004A1d4ef2a4433E2E3cC2b9aC5D9",
      "gasPrice": {
        "_hex": "0xba43b7400"
      },
      "gasLimit": {
        "_hex": "0x15f90"
      },
      "to": "0x793AE8C1b1a160BFc07BFB0d04F85eab1A71F4f2",
      "value": {
        "_hex": "0x0"
      },
      "nonce": 0,
      "data": "0x3ba15036",
      "r": "0xca02508b6c56b5a6c02c1221ea8d4c231fbb7edf3e10c638a0e7c3f310661cea",
      "s": "0x36f0937535eeae083685655ce177996dd71b24fc73508599eb2269ec81c0f4a6",
      "v": 28,
      "creates": null,
      "raw": "0xf86980850ba43b740083015f9094793ae8c1b1a160bfc07bfb0d04f85eab1a71f4f280843ba150361ca0ca02508b6c56b5a6c02c1221ea8d4c231fbb7edf3e10c638a0e7c3f310661ceaa036f0937535eeae083685655ce177996dd71b24fc73508599eb2269ec81c0f4a6",
      "networkId": 0,
      "chainId": 0
    },
    {
      "hash": "0xe43f03e6d3ab1c41ee85e96c4280f64d0ab54d6a06bab6fb3d2615bc961421b5",
      "blockHash": "0x0ea7af57b33e5cae6e97e52d3d791f5e9ef863a68b03d199fb869f16808a048c",
      "blockNumber": 65066,
      "transactionIndex": 1,
      "confirmations": null,
      "from": "0xfe94A04FD0E639e25E3ee538c8DAAFa20e0B8c3E",
      "gasPrice": {
        "_hex": "0xba43b7400"
      },
      "gasLimit": {
        "_hex": "0x15f90"
      },
      "to": "0x793AE8C1b1a160BFc07BFB0d04F85eab1A71F4f2",
      "value": {
        "_hex": "0x0"
      },
      "nonce": 0,
      "data": "0x3ba15036",
      "r": "0x7b1cc7e4a4d39656bdb134008707dbcd89bcc6d30f4b2bed1938197747ac3b9f",
      "s": "0x0c584597848c137512cab6812311d02e7d275f7c5982bee4b1d5e958590fd395",
      "v": 27,
      "creates": null,
      "raw": "0xf86980850ba43b740083015f9094793ae8c1b1a160bfc07bfb0d04f85eab1a71f4f280843ba150361ba07b1cc7e4a4d39656bdb134008707dbcd89bcc6d30f4b2bed1938197747ac3b9fa00c584597848c137512cab6812311d02e7d275f7c5982bee4b1d5e958590fd395",
      "networkId": 0,
      "chainId": 0
    }
  ]
}