{
  "hash": "0xa90b84b7754bbd772f67c31e04dc4c47f60c5ce685217774c7c2fdab7bd7dc07",
  "parentHash": "0x48867c834009d07760485878387773248ec7b4d8e1e78a7185e9c906cad65126",
  "number": 52531,
  "timestamp": 1439023148,
  "nonce": "0x6df57ffef44bb410",
  "difficulty": 1563318778601,
  "gasLimit": {
    "_hex": "0x1501df"
  },
  "gasUsed": {
    "_hex": "0xf4240"
  },
  "miner": "0x4F68024B7CEB5ca92e7308BD08e523c632C0c739",
  "extraData": "0x",
  "transactions": [
    {
      "hash": "0xb30ccf313f8e358488fd24fbb363fc9a1a3c756d401b4311c1de194db59d8674",
      "blockHash": "0xa90b84b7754bbd772f67c31e04dc4c47f60c5ce685217774c7c2fdab7bd7dc07",
      "blockNumber": 52531,
      "transactionIndex": 0,
      "confirmations": null,
      "from": "0x54dAeb3E8a6BBC797E4aD2b0339f134b186e4637",
      "gasPrice": {
        "_hex": "0xe7d27df17"
      },
      "gasLimit": {
        "_hex": "0x7a120"
      },
      "to": "0xBAA54d6E90c3F4d7Ebec11bD180134C7eD8eBb52",
      "value": {
        "_hex": "0x16345785d8a0000"
      },
      "nonce": 675,
      "data": "0x",
      "r": "0xdaac72923b189339cec566bf308713d174abb741399059eb2046037756610b6c",
      "s": "0x44e10310c1284a89e8406e4b1e3204cb7bd13f52d36784ba6ab7918f5c99233e",
      "v": 28,
      "creates": null,
      "raw": "0xf86f8202a3850e7d27df178307a12094baa54d6e90c3f4d7ebec11bd180134c7ed8ebb5288016345785d8a0000801ca0daac72923b189339cec566bf308713d174abb741399059eb2046037756610b6ca044e10310c1284a89e8406e4b1e3204cb7bd13f52d36784ba6ab7918f5c99233e",
      "networkId": 0,
      "chainId": 0
    },
    {
      "hash": "0xaaa3aadf1acf2fc98266518dcba0a4f91af2e63850d489218c6fde0f4dc2c2cc",
      "blockHash": "0xa90b84b7754bbd772f67c31e04dc4c47f60c5ce685217774c7c2fdab7bd7dc07",
      "blockNumber": 52531,
      "transactionIndex": 1,
      "confirmations": null,
      "from": "0x54dAeb3E8a6BBC797E4aD2b0339f134b186e4637",
      "gasPrice": {
        "_hex": "0xe7d27df17"
      },
      "gasLimit": {
        "_hex": "0x7a120"
      },
      "to": "0xBAA54d6E90c3F4d7Ebec11bD180134C7eD8eBb52",
      "value": {
        "_hex": "0x16345785d8a0000"
      },
      "nonce": 676,
      "data": "0x",
      "r": "0xdf081b338f8b7c85ef08684027a05d26010ea636e1ffe148c716538be154d39f",
      "s": "0x0639163f3102c0704b7ccfb57b96585755c4870487bbcbd4fd37566a09df16a6",
      "v": 27,
      "creates": null,
      "raw": "0xf86f8202a4850e7d27df178307a12094baa54d6e90c3f4d7ebec11bd180134c7ed8ebb5288016345785d8a0000801ba0df081b338f8b7c85ef08684027a05d26010ea636e1ffe148c716538be154d39fa00639163f3102c0704b7ccfb57b96585755c4870487bbcbd4fd37566a09df16a6",
      "networkId": 0,
      "chainId": 0
    }
  ]
}