{
  "hash": "0xe6d6461bca5fa7e2ebc2c32507d7d9e8d535c50f7a5047d7aae030f6e1a0a3a2",
  "parentHash": "0x1bed64ff0f200d1c79459c22debec08f7b29ee7a990c96865d2280202136b5b6",
  "number": 71973,
  "timestamp": 1439344928,
  "nonce": "0x607719e80d69fc98",
  "difficulty": 2169662157143,
  "gasLimit": {
    "_hex": "0x2fefd8"
  },
  "gasUsed": {
    "_hex": "0x1007b"
  },
  "miner": "0x05f74a38293C914C6B14a39f5d8dEa98f22E4FBA",
  "extraData": "0x",
  "transactions": [
    {
      "hash": "0xc47734045b4639d3a4fb6e4d37c55af2e581c4f41c5d859dcf964efe6c169daf",
      "blockHash": "0xe6d6461bca5fa7e2ebc2c32507d7d9e8d535c50f7a5047d7aae030f6e1a0a3a2",
      "blockNumber": 71973,
      "transactionIndex": 0,
      "confirmations": null,
      "from": "0x4c74B6F32c9680aCB5Fe0e72B7Aa95C612540A04",
      "gasPrice": {
        "_hex": "0xdb8fa0707"
      },
      "gasLimit": {
        "_hex": "0x5208"
      },
      "to": "0x32Be343B94f860124dC4fEe278FDCBD38C102D88",
      "value": {
        "_hex": "0x56bc3032304918000"
      },
      "nonce": 17,
      "data": "0x",
      "r": "0x25c0cfeb69010df050959e50c65e2e9d3701f79805b3f45a811889fd07210d6a",
      "s": "0x498d7bb990bf980aee242bebf0284e7990667598eb918a6d3b3a5aca76836af2",
      "v": 27,
      "creates": null,
      "raw": "0xf86d11850db8fa07078252089432be343b94f860124dc4fee278fdcbd38c102d8889056bc3032304918000801ba025c0cfeb69010df050959e50c65e2e9d3701f79805b3f45a811889fd07210d6aa0498d7bb990bf980aee242bebf0284e7990667598eb918a6d3b3a5aca76836af2",
      "networkId": 0,
      "chainId": 0
    },
    {
      "hash": "0x924c3184fce822771f21a65fa1d6590dc24d7c4b4c622b5ed0e406e42046cfe6",
      "blockHash": "0xe6d6461bca5fa7e2ebc2c32507d7d9e8d535c50f7a5047d7aae030f6e1a0a3a2",
      "blockNumber": 71973,
      "transactionIndex": 1,
      "confirmations": null,
      "from": "0x17580B766f7453525ca4C6A88b01b50570EA088C",
      "gasPrice": {
        "_hex": "0xce23166ae"
      },
      "gasLimit": {
        "_hex": "0x61a80"
      },
      "to": "0x5Fe5B7546D1628f7348B023A0393de1FC825A4fD",
      "value": {
        "_hex": "0x1bc16d674ec80000"
      },
      "nonce": 315,
      "data": "0xb595b8b50000000000000000000000000000000000000000000000000000000000000000",
      "r": "0x6293c150e4193a20186bb092995bf762799390f65f8e3ff3021c65a5c38f843b",
      "s": "0x6d65cb604f310c940f6d6883f5fcdbd4c14066252d77cb22378a60fbbe2f055a",
      "v": 28,
      "creates": null,
      "raw": "0xf89382013b850ce23166ae83061a80945fe5b7546d1628f7348b023a0393de1fc825a4fd881bc16d674ec80000a4b595b8b500000000000000000000000000000000000000000000000000000000000000001ca06293c150e4193a20186bb092995bf762799390f65f8e3ff3021c65a5c38f843ba06d65cb604f310c940f6d6883f5fcdbd4c14066252d77cb22378a60fbbe2f055a",
      "networkId": 0,
      "chainId": 0
    }
  ]
}