{
  "hash": "0xd9bf162f59a18959eb53749524800b19f7f8ed3543d78c2f27996e70cb9e31f0",
  "parentHash": "0xbe3e253ea260819290e32dc9a66c7d13d5655a602966ac7d5fc719d86040158d",
  "number": 121189,
  "timestamp": 1440172964,
  "nonce": "0x1e833d4acbc3137d",
  "difficulty": 4399958652783,
  "gasLimit": {
    "_hex": "0x2fefd8"
  },
  "gasUsed": {
    "_hex": "0x5208"
  },
  "miner": "0xe6A7a1d47ff21B6321162AEA7C6CB457D5476Bca",
  "extraData": "0xd783010002844765746887676f312e342e32856c696e7578",
  "transactions": [
    {
      "hash": "0xdaf1fffa8767874eda89f49f0def7036d3cf23030f154eacc10fe38c8f8a2f15",
      "blockHash": "0xd9bf162f59a18959eb53749524800b19f7f8ed3543d78c2f27996e70cb9e31f0",
      "blockNumber": 121189,
      "transactionIndex": 0,
      "confirmations": null,
      "from": "0xF109ca710C0Df51c1a86dBA1B0BA0Ed038114463",
      "gasPrice": {
        "_hex": "0xba43b7400"
      },
      "gasLimit": {
        "_hex": "0x5208"
      },
      "to": "0x32Be343B94f860124dC4fEe278FDCBD38C102D88",
      "value": {
        "_hex": "0x1be1396191856000"
      },
      "nonce": 20,
      "data": "0x",
      "r": "0x765f74f52b5f1f7e113775cfdeb77ec054e514c8a08ad1f484a2d85d981549c0",
      "s": "0x6fec6505e070ed877d20959dd8acd4592be7002718d22464ab700b71d0891a3d",
      "v": 28,
      "creates": null,
      "raw": "0xf86c14850ba43b74008252089432be343b94f860124dc4fee278fdcbd38c102d88881be1396191856000801ca0765f74f52b5f1f7e113775cfdeb77ec054e514c8a08ad1f484a2d85d981549c0a06fec6505e070ed877d20959dd8acd4592be7002718d22464ab700b71d0891a3d",
      "networkId": 0,
      "chainId": 0
    }
  ]
}