{
  "hash": "0x1392c80a489409e74597fcc93639fd984ab07d86958947ef0e4067dc0d34ce9b",
  "parentHash": "0x0155f3fc470f69261168f731d47119f959d1bd37d076521516e0d595cc7cadfb",
  "number": 102789,
  "timestamp": 1439843138,
  "nonce": "0x9d4e0ef49a5ddd10",
  "difficulty": 4054406090389,
  "gasLimit": {
    "_hex": "0x2fefd8"
  },
  "gasUsed": {
    "_hex": "0x1bdbe"
  },
  "miner": "0xe6A7a1d47ff21B6321162AEA7C6CB457D5476Bca",
  "extraData": "0x476574682f76312e302e312d38326566323666362f6c696e75782f676f312e34",
  "transactions": [
    {
      "hash": "0x1643466bc9b338764e8143711b7169f99493f0d9e26d6978c010f6cacf790eef",
      "blockHash": "0x1392c80a489409e74597fcc93639fd984ab07d86958947ef0e4067dc0d34ce9b",
      "blockNumber": 102789,
      "transactionIndex": 0,
      "confirmations": null,
      "from": "0xB1a2B43A7433dd150BB82227eD519Cd6b142d382",
      "gasPrice": {
        "_hex": "0xd1f217cbf"
      },
      "gasLimit": {
        "_hex": "0x249f0"
      },
      "to": "0xE28e72FCf78647ADCe1F1252F240bbfaebD63BcC",
      "value": {
        "_hex": "0x3635c9adc5dea00000"
      },
      "nonce": 9,
      "data": "0x45466f3a",
      "r": "0xe57fb9a2e4158e85a964d6413327a23246fad12445138ceaf9f2e6acfa026345",
      "s": "0x1d7c1c18853506e8bd4ed90070712b3806ce8231b8c92d02ef68399c23bc741f",
      "v": 27,
      "creates": null,
      "raw": "0xf87209850d1f217cbf830249f094e28e72fcf78647adce1f1252f240bbfaebd63bcc893635c9adc5dea000008445466f3a1ba0e57fb9a2e4158e85a964d6413327a23246fad12445138ceaf9f2e6acfa026345a01d7c1c18853506e8bd4ed90070712b3806ce8231b8c92d02ef68399c23bc741f",
      "networkId": 0,
      "chainId": 0
    }
  ]
}