{
  "hash": "0x9c5022396a8e02e2f693c4e3b85d25664df3f35e256513d3a5713609879a42c5",
  "parentHash": "0x70e286edfb3ec48ac5f3d278858296f9394478073e51736ab32353c4b1593dde",
  "number": 119530,
  "timestamp": 1440144502,
  "nonce": "0x1ae294e5ba9d0dbc",
  "difficulty": 4385812691110,
  "gasLimit": {
    "_hex": "0x2fefd8"
  },
  "gasUsed": {
    "_hex": "0x5208"
  },
  "miner": "0x608f4b86321a68453f9adf6F06F7Fc3E621739ad",
  "extraData": "0xd783010002844765746887676f312e342e32856c696e7578",
  "transactions": [
    {
      "hash": "0x60af5c23d649e00e9afd77586bea939c242818025e2dd8647600cac557f0b06c",
      "blockHash": "0x9c5022396a8e02e2f693c4e3b85d25664df3f35e256513d3a5713609879a42c5",
      "blockNumber": 119530,
      "transactionIndex": 0,
      "confirmations": null,
      "from": "0x32Be343B94f860124dC4fEe278FDCBD38C102D88",
      "gasPrice": {
        "_hex": "0xba43b7400"
      },
      "gasLimit": {
        "_hex": "0x5208"
      },
      "to": "0x915E19e9d6874Ad050c3D4b88D4eA496dB0Ee7DB",
      "value": {
        "_hex": "0x4703e6eb5291b80000"
      },
      "nonce": 1508,
      "data": "0x",
      "r": "0x12e2d820153252019eda3368d5a6db2e38c748aa6d958405de951de506ed96bc",
      "s": "0x3415608c82ff412178bf7750b155b17696a73fa7f27b92ab06d369a3324046ab",
      "v": 28,
      "creates": null,
      "raw": "0xf86f8205e4850ba43b740082520894915e19e9d6874ad050c3d4b88d4ea496db0ee7db894703e6eb5291b80000801ca012e2d820153252019eda3368d5a6db2e38c748aa6d958405de951de506ed96bca03415608c82ff412178bf7750b155b17696a73fa7f27b92ab06d369a3324046ab",
      "networkId": 0,
      "chainId": 0
    }
  ]
}