{
  "hash": "0xa0d48d025c4e40faaefb1ace7af086d05fccafb60ad0f1d09ba35ea42375d829",
  "parentHash": "0xd429e640710fc84cf00ff3d39dcb73c8d40031fb7cbf105a28adb6c194f029aa",
  "number": 71346,
  "timestamp": 1439334477,
  "nonce": "0x73c33469239710ee",
  "difficulty": 2177253414245,
  "gasLimit": {
    "_hex": "0x2fefd8"
  },
  "gasUsed": {
    "_hex": "0x9400"
  },
  "miner": "0xe6A7a1d47ff21B6321162AEA7C6CB457D5476Bca",
  "extraData": "0x476574682f76312e302e312d38326566323666362f6c696e75782f676f312e34",
  "transactions": [
    {
      "hash": "0x6da6488e27e587cafcf533d4e32137104999d41c5e6d289526fb6d818f8b3ea3",
      "blockHash": "0xa0d48d025c4e40faaefb1ace7af086d05fccafb60ad0f1d09ba35ea42375d829",
      "blockNumber": 71346,
      "transactionIndex": 0,
      "confirmations": null,
      "from": "0x17580B766f7453525ca4C6A88b01b50570EA088C",
      "gasPrice": {
        "_hex": "0xdeba7d02f"
      },
      "gasLimit": {
        "_hex": "0x61a80"
      },
      "to": "0x5Fe5B7546D1628f7348B023A0393de1FC825A4fD",
      "value": {
        "_hex": "0x29a2241af62c0000"
      },
      "nonce": 155,
      "data": "0xb595b8b50000000000000000000000000000000000000000000000000000000000000001",
      "r": "0x44fe5cd23d4f826761129284f90616046345e8cf12679b5d8a400f1ee3bdb5ba",
      "s": "0x58eeaf8acf831d8e1830ad4493e245916a7838c7c754fab955987dd5db4fa61f",
      "v": 27,
      "creates": null,
      "raw": "0xf892819b850deba7d02f83061a80945fe5b7546d1628f7348b023a0393de1fc825a4fd8829a2241af62c0000a4b595b8b500000000000000000000000000000000000000000000000000000000000000011ba044fe5cd23d4f826761129284f90616046345e8cf12679b5d8a400f1ee3bdb5baa058eeaf8acf831d8e1830ad4493e245916a7838c7c754fab955987dd5db4fa61f",
      "networkId": 0,
      "chainId": 0
    }
  ]
}