{
  "hash": "0xa97f2d4fcd94ffecbd451e595ac53e72f92d1e42102675588fba030bf72216cb",
  "parentHash": "0xdd6f958dee2b2b511d86bce0f7b296526702524e41891d1130c5b656532b6580",
  "number": 86816,
  "timestamp": 1439583240,
  "nonce": "0x43e40ba587cfcee4",
  "difficulty": 2953115344273,
  "gasLimit": {
    "_hex": "0x2fefd8"
  },
  "gasUsed": {
    "_hex": "0xad77"
  },
  "miner": "0x7E6930B63D03e88F5928C5cd6ee3FCee4D714F7F",
  "extraData": "0x",
  "transactions": [
    {
      "hash": "0x7d53b229d401884ffda878bb4aa9fe7756a4ed44215c91ba40dd0f4af9362c8e",
      "blockHash": "0xa97f2d4fcd94ffecbd451e595ac53e72f92d1e42102675588fba030bf72216cb",
      "blockNumber": 86816,
      "transactionIndex": 0,
      "confirmations": null,
      "from": "0x87C5B5874A18B4306DF8a752a6C8cc3E82daFc19",
      "gasPrice": {
        "_hex": "0x113350af56a"
      },
      "gasLimit": {
        "_hex": "0x493e0"
      },
      "to": "0xD79B4C6791784184e2755B2fC1659eaaB0f80456",
      "value": {
        "_hex": "0x0"
      },
      "nonce": 280,
      "data": "0x03750d940000000000000000000000001a79c7f4039c67a39d7513884cdc0e2c342224903864656435653963616436653630333500000000000000000000000000000000",
      "r": "0x452b923a732caacfd7e94435a1603a5a939152f69accd36d10294556ce5a0455",
      "s": "0x4ce53193f09fc98279b692adf8fc8858d1086841909b102d1a5fe7aeb3afd88c",
      "v": 28,
      "creates": null,
      "raw": "0xf8ad820118860113350af56a830493e094d79b4c6791784184e2755b2fc1659eaab0f8045680b84403750d940000000000000000000000001a79c7f4039c67a39d7513884cdc0e2c3422249038646564356539636164366536303335000000000000000000000000000000001ca0452b923a732caacfd7e94435a1603a5a939152f69accd36d10294556ce5a0455a04ce53193f09fc98279b692adf8fc8858d1086841909b102d1a5fe7aeb3afd88c",
      "networkId": 0,
      "chainId": 0
    }
  ]
}