{
  "hash": "0xbbd27c055203866a629320dfb4780102fdb345f48cf4e87fdc289868862d324c",
  "parentHash": "0x814ca11869e0557839828e58599b9a93c5563f6ad32422dd9341c24e806d009f",
  "number": 68397,
  "timestamp": 1439287070,
  "nonce": "0x1441a17b38c4aa45",
  "difficulty": 2023209788305,
  "gasLimit": {
    "_hex": "0x2fefd8"
  },
  "gasUsed": {
    "_hex": "0x14820"
  },
  "miner": "0xf927a40C8B7F6E07c5af7FA2155B4864a4112B13",
  "extraData": "0x",
  "transactions": [
    {
      "hash": "0x2897350bffb5c97ef15bc9ef80a3053a119cc2ac964f91c2cbf85c4bba80834c",
      "blockHash": "0xbbd27c055203866a629320dfb4780102fdb345f48cf4e87fdc289868862d324c",
      "blockNumber": 68397,
      "transactionIndex": 0,
      "confirmations": null,
      "from": "0x57e7114122bDCB9232A12712C2040195c30F8Ed8",
      "gasPrice": {
        "_hex": "0xba43b7400"
      },
      "gasLimit": {
        "_hex": "0x5208"
      },
      "to": "0x8a9BfC8d363aa439151Cb5234F20c0C5614C7571",
      "value": {
        "_hex": "0x36ef271c4dd000"
      },
      "nonce": 1,
      "data": "0x",
      "r": "0x073af5b71a6cb064263ac219c566fd0779d782f46246cd1f963eacec2ab220d7",
      "s": "0x1d6d7833cb3cab8fccad39e65db71f652193d8872fe045715c0771c2a2e047c2",
      "v": 28,
      "creates": null,
      "raw": "0xf86b01850ba43b7400825208948a9bfc8d363aa439151cb5234f20c0c5614c75718736ef271c4dd000801ca0073af5b71a6cb064263ac219c566fd0779d782f46246cd1f963eacec2ab220d7a01d6d7833cb3cab8fccad39e65db71f652193d8872fe045715c0771c2a2e047c2",
      "networkId": 0,
      "chainId": 0
    },
    {
      "hash": "0x3a4c1d9e30a131f2da799ce9447794df5df7e3f7570d716edc9d6977e74a77fe",
      "blockHash": "0xbbd27c055203866a629320dfb4780102fdb345f48cf4e87fdc289868862d324c",
      "blockNumber": 68397,
      "transactionIndex": 1,
      "confirmations": null,
      "from": "0x719A45c28031Af4160c48051Bfd73aDA8072609D",
      "gasPrice": {
        "_hex": "0xba43b7400"
      },
      "gasLimit": {
        "_hex": "0x5208"
      },
      "to": "0x6bD14fE0E8370F06CD2516dC6DB05189c6Af3e3C",
      "value": {
        "_hex": "0x36ef271c4dd000"
      },
      "nonce": 1,
      "data": "0x",
      "r": "0x13c59b3d52aec6a7f68fe018a1c783a7b254ca571098a0024c4b1167e83409ba",
      "s": "0x3738731c66af9aeba9a1bb3387a988149215bff233985207b26329a78636448a",
      "v": 27,
      "creates": null,
      "raw": "0xf86b01850ba43b7400825208946bd14fe0e8370f06cd2516dc6db05189c6af3e3c8736ef271c4dd000801ba013c59b3d52aec6a7f68fe018a1c783a7b254ca571098a0024c4b1167e83409baa03738731c66af9aeba9a1bb3387a988149215bff233985207b26329a78636448a",
      "networkId": 0,
      "chainId": 0
    },
    {
      "hash": "0xf2408ea52c7cf2be932adb8f1c74c1b05bdc6fb990bd94b136fb30ad168cb413",
      "blockHash": "0xbbd27c055203866a629320dfb4780102fdb345f48cf4e87fdc289868862d324c",
      "blockNumber": 68397,
      "transactionIndex": 2,
      "confirmations": null,
      "from": "0x84cB447076C797482c0314Aa01BCC525C0F22788",
      "gasPrice": {
        "_hex": "0xba43b7400"
      },
      "gasLimit": {
        "_hex": "0x5208"
      },
      "to": "0x29DAFf71bEEbD4B6c32327456DA46e8aee26e60C",
      "value": {
        "_hex": "0x36ef271c4dd000"
      },
      "nonce": 1,
      "data": "0x",
      "r": "0x5684c24b585533ff1c72ef54d77743f060e9db52929799489a67366bb3748e06",
      "s": "0x7fe4f7932eceac22da833cc40f3720f886e1f2821763ef345488a12c7bb762c5",
      "v": 27,
      "creates": null,
      "raw": "0xf86b01850ba43b74008252089429daff71beebd4b6c32327456da46e8aee26e60c8736ef271c4dd000801ba05684c24b585533ff1c72ef54d77743f060e9db52929799489a67366bb3748e06a07fe4f7932eceac22da833cc40f3720f886e1f2821763ef345488a12c7bb762c5",
      "networkId": 0,
      "chainId": 0
    },
    {
      "hash": "0xd22617829326752e0141bc2d6f628c34ce3106420bdcbad770b31d55b962a481",
      "blockHash": "0xbbd27c055203866a629320dfb4780102fdb345f48cf4e87fdc289868862d324c",
      "blockNumber": 68397,
      "transactionIndex": 3,
      "confirmations": null,
      "from": "0x31A538002E5E3764176012ca69F27f4B9f917f1e",
      "gasPrice": {
        "_hex": "0xba43b7400"
      },
      "gasLimit": {
        "_hex": "0x5208"
      },
      "to": "0x67db390312dc02A140c358aDd4f37966C7775096",
      "value": {
        "_hex": "0x36ef271c4dd000"
      },
      "nonce": 1,
      "data": "0x",
      "r": "0xc7b24d1f5576ee19b1f4d4880a38797bef0a867d65fc02632be2f07ebff787e4",
      "s": "0x642fba40a92331fe7e7cfdf268375f87151a5d8353aa12a694ae12a473c2bb9a",
      "v": 28,
      "creates": null,
      "raw": "0xf86b01850ba43b74008252089467db390312dc02a140c358add4f37966c77750968736ef271c4dd000801ca0c7b24d1f5576ee19b1f4d4880a38797bef0a867d65fc02632be2f07ebff787e4a0642fba40a92331fe7e7cfdf268375f87151a5d8353aa12a694ae12a473c2bb9a",
      "networkId": 0,
      "chainId": 0
    }
  ]
}