{
  "hash": "0xa2ba25557226206b7354563b7ef4dfddda977a967185a25252afea015b953004",
  "parentHash": "0x93f230c31765db2f5b25b18e1364d135675c38785b1e6f1c5bb0c07406c659d7",
  "number": 96193,
  "timestamp": 1439736473,
  "nonce": "0x5d2f0f73e6c98c5c",
  "difficulty": 3658579234223,
  "gasLimit": {
    "_hex": "0x2fefd8"
  },
  "gasUsed": {
    "_hex": "0x5208"
  },
  "miner": "0xa50ec0D39fa913E62f1Bae7074E6F36caA71855b",
  "extraData": "0xd783010001844765746887676f312e342e32856c696e7578",
  "transactions": [
    {
      "hash": "0x40a8e89e3e6fc5f02d63ce5b13fb3805ab595442f7e5d1c270d5dbf56873bd4c",
      "blockHash": "0xa2ba25557226206b7354563b7ef4dfddda977a967185a25252afea015b953004",
      "blockNumber": 96193,
      "transactionIndex": 0,
      "confirmations": null,
      "from": "0x32Be343B94f860124dC4fEe278FDCBD38C102D88",
      "gasPrice": {
        "_hex": "0xcb088e718"
      },
      "gasLimit": {
        "_hex": "0x5208"
      },
      "to": "0x2D96cefBdEC4c5A6eA88d9496fdEDDEFA561aDCd",
      "value": {
        "_hex": "0x45400a8fd5330000"
      },
      "nonce": 998,
      "data": "0x",
      "r": "0x9f132acc861497cd7a2fb1927f56d65c80fb5f84341bbc44fd748febf87ea994",
      "s": "0x3397c0754603980fd935cc76edf2dfc9925f020c3417b895ee32e872d8702b46",
      "v": 27,
      "creates": null,
      "raw": "0xf86e8203e6850cb088e718825208942d96cefbdec4c5a6ea88d9496fdeddefa561adcd8845400a8fd5330000801ba09f132acc861497cd7a2fb1927f56d65c80fb5f84341bbc44fd748febf87ea994a03397c0754603980fd935cc76edf2dfc9925f020c3417b895ee32e872d8702b46",
      "networkId": 0,
      "chainId": 0
    }
  ]
}