{
  "hash": "0xb5d1366ef0b49b8b10b08aee75209ae04365f404f42190d9de70f7dcc9d0aea9",
  "parentHash": "0x95e7414b8b67cd237c1ce975aca8f3e4e9516d90abdb1d028fd4c643fee2560b",
  "number": 67296,
  "timestamp": 1439269644,
  "nonce": "0xaad13836c598cd24",
  "difficulty": 1920470879967,
  "gasLimit": {
    "_hex": "0x2fefd8"
  },
  "gasUsed": {
    "_hex": "0x546c"
  },
  "miner": "0xf927a40C8B7F6E07c5af7FA2155B4864a4112B13",
  "extraData": "0x",
  "transactions": [
    {
      "hash": "0xc28bca87f78af10400e0cfe697a0c8c826265b20f8c4557a067229a143e73840",
      "blockHash": "0xb5d1366ef0b49b8b10b08aee75209ae04365f404f42190d9de70f7dcc9d0aea9",
      "blockNumber": 67296,
      "transactionIndex": 0,
      "confirmations": null,
      "from": "0x72dcecdD4a7374231676f7fA910A678DfC7c98D6",
      "gasPrice": {
        "_hex": "0xd641f460d"
      },
      "gasLimit": {
        "_hex": "0x15f90"
      },
      "to": "0x2910543Af39abA0Cd09dBb2D50200b3E800A63D2",
      "value": {
        "_hex": "0x4563918244f40000"
      },
      "nonce": 3,
      "data": "0x454e35585546344d47",
      "r": "0xfb4531f200f65691be1edcae34e7eb4fb5eac70ba39f76d9a168434d11103610",
      "s": "0x12a402a924b012c13ae5b6d7570de529ace8c55a52cd273117e8b202b59806a5",
      "v": 28,
      "creates": null,
      "raw": "0xf87603850d641f460d83015f90942910543af39aba0cd09dbb2d50200b3e800a63d2884563918244f4000089454e35585546344d471ca0fb4531f200f65691be1edcae34e7eb4fb5eac70ba39f76d9a168434d11103610a012a402a924b012c13ae5b6d7570de529ace8c55a52cd273117e8b202b59806a5",
      "networkId": 0,
      "chainId": 0
    }
  ]
}