{
  "hash": "0x146037b4589093a48e2a10874acd31a1f162d80640a433a6cbe2bb07bb87861e",
  "parentHash": "0xbf455e796057849f1ac02d57e46e54a066dc9b480c169b960c0a3f64b04bf314",
  "number": 119392,
  "timestamp": 1440142002,
  "nonce": "0x362ee5d7d05b232c",
  "difficulty": 4415969189445,
  "gasLimit": {
    "_hex": "0x2fefd8"
  },
  "gasUsed": {
    "_hex": "0x19a28"
  },
  "miner": "0x35e8e5dC5FBd97c5b421A80B596C030a2Be2A04D",
  "extraData": "0x",
  "transactions": [
    {
      "hash": "0x224921971cd0ca70e34981f2884ac4950f919c5be92049bca01013fa0c53c8dc",
      "blockHash": "0x146037b4589093a48e2a10874acd31a1f162d80640a433a6cbe2bb07bb87861e",
      "blockNumber": 119392,
      "transactionIndex": 0,
      "confirmations": null,
      "from": "0x0d62E666D681E8Be96903Ac4aBD3537f28c6125A",
      "gasPrice": {
        "_hex": "0xba43b7400"
      },
      "gasLimit": {
        "_hex": "0x5208"
      },
      "to": "0x32Be343B94f860124dC4fEe278FDCBD38C102D88",
      "value": {
        "_hex": "0x2739d85e24587800"
      },
      "nonce": 11,
      "data": "0x",
      "r": "0x11ab248ab183d25597635d85565108c4b004f86026033abb6a55e9fdfcf0030d",
      "s": "0x54579a7899d7b5183d8d964bdc0f3b756cd3a14cfa63f4749775027d9de1f564",
      "v": 27,
      "creates": null,
      "raw": "0xf86c0b850ba43b74008252089432be343b94f860124dc4fee278fdcbd38c102d88882739d85e24587800801ba011ab248ab183d25597635d85565108c4b004f86026033abb6a55e9fdfcf0030da054579a7899d7b5183d8d964bdc0f3b756cd3a14cfa63f4749775027d9de1f564",
      "networkId": 0,
      "chainId": 0
    },
    {
      "hash": "0xecf8aa32997d3bb4dd091b78d83aa2149504af8f6e756426b4daf3946be1cb64",
      "blockHash": "0x146037b4589093a48e2a10874acd31a1f162d80640a433a6cbe2bb07bb87861e",
      "blockNumber": 119392,
      "transactionIndex": 1,
      "confirmations": null,
      "from": "0x1CaC89419da71AC175A5B99CEE0163720430990c",
      "gasPrice": {
        "_hex": "0xba43b7400"
      },
      "gasLimit": {
        "_hex": "0x5208"
      },
      "to": "0x32Be343B94f860124dC4fEe278FDCBD38C102D88",
      "value": {
        "_hex": "0xc7963498955f9000"
      },
      "nonce": 12,
      "data": "0x",
      "r": "0x1e218005e32c553e925c454bc9b2bfd28d3d6e0a2d51b90a0337dd34ca466228",
      "s": "0x496bd1598fc953dfa412fa23ed512f107d4d776cd0ebab6ecf1efcf1d2be0ed0",
      "v": 27,
      "creates": null,
      "raw": "0xf86c0c850ba43b74008252089432be343b94f860124dc4fee278fdcbd38c102d8888c7963498955f9000801ba01e218005e32c553e925c454bc9b2bfd28d3d6e0a2d51b90a0337dd34ca466228a0496bd1598fc953dfa412fa23ed512f107d4d776cd0ebab6ecf1efcf1d2be0ed0",
      "networkId": 0,
      "chainId": 0
    },
    {
      "hash": "0x7a258167e9a7fbc8469559012dde8b7aeabf4066d2c4a068262d3e82dc747911",
      "blockHash": "0x146037b4589093a48e2a10874acd31a1f162d80640a433a6cbe2bb07bb87861e",
      "blockNumber": 119392,
      "transactionIndex": 2,
      "confirmations": null,
      "from": "0x60781265e9850f54AE0Bc9545948d05DeE6FC3e3",
      "gasPrice": {
        "_hex": "0xba43b7400"
      },
      "gasLimit": {
        "_hex": "0x5208"
      },
      "to": "0x32Be343B94f860124dC4fEe278FDCBD38C102D88",
      "value": {
        "_hex": "0x4db0d05e3d91e000"
      },
      "nonce": 13,
      "data": "0x",
      "r": "0xa92ab6445e4904360e54e9fa394460753f1f631e3b4cc9a69a3d2c6525dd6755",
      "s": "0x285315f50a4c6f16b8376532500c2869abb6bf3781c36e0ecc5f9ecf71ce1c0e",
      "v": 27,
      "creates": null,
      "raw": "0xf86c0d850ba43b74008252089432be343b94f860124dc4fee278fdcbd38c102d88884db0d05e3d91e000801ba0a92ab6445e4904360e54e9fa394460753f1f631e3b4cc9a69a3d2c6525dd6755a0285315f50a4c6f16b8376532500c2869abb6bf3781c36e0ecc5f9ecf71ce1c0e",
      "networkId": 0,
      "chainId": 0
    },
    {
      "hash": "0x8f88df12253c9f3f55a17f7ece3b6425b8c6d2b98f27c1a0be725832a5fe1476",
      "blockHash": "0x146037b4589093a48e2a10874acd31a1f162d80640a433a6cbe2bb07bb87861e",
      "blockNumber": 119392,
      "transactionIndex": 3,
      "confirmations": null,
      "from": "0x6599C9c86f1635FAAEFE7A5540914811DAD8d167",
      "gasPrice": {
        "_hex": "0xba43b7400"
      },
      "gasLimit": {
        "_hex": "0x5208"
      },
      "to": "0x32Be343B94f860124dC4fEe278FDCBD38C102D88",
      "value": {
        "_hex": "0x3f8529033272c400"
      },
      "nonce": 11,
      "data": "0x",
      "r": "0xe5a3ba2823810da1adec9b2a0d683ebaba8780443bc7ec053df608162868102f",
      "s": "0x7d81688b68cd54ed384ffa8510870bf812f2ca63ada2e6b3c8be8ac281e5f310",
      "v": 28,
      "creates": null,
      "raw": "0xf86c0b850ba43b74008252089432be343b94f860124dc4fee278fdcbd38c102d88883f8529033272c400801ca0e5a3ba2823810da1adec9b2a0d683ebaba8780443bc7ec053df608162868102fa07d81688b68cd54ed384ffa8510870bf812f2ca63ada2e6b3c8be8ac281e5f310",
      "networkId": 0,
      "chainId": 0
    },
    {
      "hash": "0xeedb6a8d124489577241c586a776e50c7a892e2c635cc792a880c7c4e5688892",
      "blockHash": "0x146037b4589093a48e2a10874acd31a1f162d80640a433a6cbe2bb07bb87861e",
      "blockNumber": 119392,
      "transactionIndex": 4,
      "confirmations": null,
      "from": "0x972ad000397A3c903299F1353d6d4b85eE4E4e2A",
      "gasPrice": {
        "_hex": "0xba43b7400"
      },
      "gasLimit": {
        "_hex": "0x5208"
      },
      "to": "0x32Be343B94f860124dC4fEe278FDCBD38C102D88",
      "value": {
        "_hex": "0xbb0477f2de9d3000"
      },
      "nonce": 23,
      "data": "0x",
      "r": "0x5587596720047fd945f2b7d23836c7c50412dc6f7405ca622df16a07d303c3ca",
      "s": "0x2966875defa2b4dbc7d61568a6ab3920ba25c87cc4943e488c46270a824931f0",
      "v": 28,
      "creates": null,
      "raw": "0xf86c17850ba43b74008252089432be343b94f860124dc4fee278fdcbd38c102d8888bb0477f2de9d3000801ca05587596720047fd945f2b7d23836c7c50412dc6f7405ca622df16a07d303c3caa02966875defa2b4dbc7d61568a6ab3920ba25c87cc4943e488c46270a824931f0",
      "networkId": 0,
      "chainId": 0
    }
  ]
}