{
  "hash": "0xf6c042d524ed2e74c7e315de8974518868a4e7be77bd26191e7e6c78ef3ef595",
  "parentHash": "0xf2f81e7259192dc781d6d91fae57f2101b307e66d1be782762c0df62b089b3dc",
  "number": 69780,
  "timestamp": 1439309457,
  "nonce": "0x7ee95c71d3001f9c",
  "difficulty": 2104485822182,
  "gasLimit": {
    "_hex": "0x2fefd8"
  },
  "gasUsed": {
    "_hex": "0x5208"
  },
  "miner": "0x20c6Efe179C293690A5B3375F5bd81c2f07Ed037",
  "extraData": "0x476574682f76312e302e312d38326566323666362f6c696e75782f676f312e34",
  "transactions": [
    {
      "hash": "0x44bd29f68298e3e012feb4f6a55f7359674630fdd7349f9866e98b547703b66f",
      "blockHash": "0xf6c042d524ed2e74c7e315de8974518868a4e7be77bd26191e7e6c78ef3ef595",
      "blockNumber": 69780,
      "transactionIndex": 0,
      "confirmations": null,
      "from": "0x120A270bbC009644e35F0bB6ab13f95b8199c4ad",
      "gasPrice": {
        "_hex": "0xd5a9f5361"
      },
      "gasLimit": {
        "_hex": "0x15f90"
      },
      "to": "0xA8471786fF71d0F894e60Ab9e3217a7E842c7b38",
      "value": {
        "_hex": "0xde0b6b3a7640000"
      },
      "nonce": 183,
      "data": "0x",
      "r": "0xfdfe8712270b990aff5280512e662219226a98518b01dd3d145313cfa022fccf",
      "s": "0x66868acf548605147fd1e3859fa89d71016244dfe09b8a5441cb4915116613a7",
      "v": 28,
      "creates": null,
      "raw": "0xf86e81b7850d5a9f536183015f9094a8471786ff71d0f894e60ab9e3217a7e842c7b38880de0b6b3a7640000801ca0fdfe8712270b990aff5280512e662219226a98518b01dd3d145313cfa022fccfa066868acf548605147fd1e3859fa89d71016244dfe09b8a5441cb4915116613a7",
      "networkId": 0,
      "chainId": 0
    }
  ]
}