{
  "hash": "0x3424817fc917eda39e88dac11c0bc03b6d05c5825bea64d167e4ba592c13ee92",
  "parentHash": "0x6e26485240e5fa58d92a42b4a1ccd6dc98988f728003d1e3f97273d700603804",
  "number": 47468,
  "timestamp": 1438940957,
  "nonce": "0xfe229e25c1906fa1",
  "difficulty": 1451659671987,
  "gasLimit": {
    "_hex": "0xc1fe"
  },
  "gasUsed": {
    "_hex": "0x5208"
  },
  "miner": "0xe6A7a1d47ff21B6321162AEA7C6CB457D5476Bca",
  "extraData": "0x657468706f6f6c2e6f7267",
  "transactions": [
    {
      "hash": "0x5cb01365ea43d78e0cf033785bd04ae7633ee0d43067ae5211b57b1c91a44613",
      "blockHash": "0x3424817fc917eda39e88dac11c0bc03b6d05c5825bea64d167e4ba592c13ee92",
      "blockNumber": 47468,
      "transactionIndex": 0,
      "confirmations": null,
      "from": "0xe6A7a1d47ff21B6321162AEA7C6CB457D5476Bca",
      "gasPrice": {
        "_hex": "0x1b54a56cd8"
      },
      "gasLimit": {
        "_hex": "0x5208"
      },
      "to": "0x7Bd46b71ceE5Bb9e27d837625365cdafDA812D87",
      "value": {
        "_hex": "0x1e407c9d229e87170"
      },
      "nonce": 156,
      "data": "0x",
      "r": "0x6221f7890537887b18c5f01a9bb6fa155cb957159f8f71655abdadfa8bfe0aa2",
      "s": "0x1f493af229c037b9ab758052a8fc7ffbc3b368b903bfee11f7f1a31e2e2ab0d2",
      "v": 27,
      "creates": null,
      "raw": "0xf86e819c851b54a56cd8825208947bd46b71cee5bb9e27d837625365cdafda812d878901e407c9d229e87170801ba06221f7890537887b18c5f01a9bb6fa155cb957159f8f71655abdadfa8bfe0aa2a01f493af229c037b9ab758052a8fc7ffbc3b368b903bfee11f7f1a31e2e2ab0d2",
      "networkId": 0,
      "chainId": 0
    }
  ]
}