{
  "hash": "0xe221e8bb142150ecf57022fd9afe2ef6de41925ffed21db04f096def846a284b",
  "parentHash": "0xcd83d939255efc78fc5451fb3f8a281857c93ade006a0162b0a90e4ae99b44c3",
  "number": 72592,
  "timestamp": 1439355144,
  "nonce": "0x18a9354218f01a18",
  "difficulty": 2198293267339,
  "gasLimit": {
    "_hex": "0x2fefd8"
  },
  "gasUsed": {
    "_hex": "0x5208"
  },
  "miner": "0xe6A7a1d47ff21B6321162AEA7C6CB457D5476Bca",
  "extraData": "0x476574682f76312e302e312d38326566323666362f6c696e75782f676f312e34",
  "transactions": [
    {
      "hash": "0x24cd30ee78fbe05bf186ba3f8e28b22822cc9dd2d69bc4147b1c51a1e4c624e1",
      "blockHash": "0xe221e8bb142150ecf57022fd9afe2ef6de41925ffed21db04f096def846a284b",
      "blockNumber": 72592,
      "transactionIndex": 0,
      "confirmations": null,
      "from": "0x120A270bbC009644e35F0bB6ab13f95b8199c4ad",
      "gasPrice": {
        "_hex": "0xd952251f2"
      },
      "gasLimit": {
        "_hex": "0x15f90"
      },
      "to": "0xaB241a2f548800Da0544cF6f1b9c74f68f9A2f7A",
      "value": {
        "_hex": "0xde0b6b3a7640000"
      },
      "nonce": 246,
      "data": "0x",
      "r": "0x6b71292baae32ea0af39e02b89517381150aba287bd432e61732128041eb5e54",
      "s": "0x4881f5eb278c4730349f830af6ee222dcd1618384af3a1aaedb2347ba3c03137",
      "v": 28,
      "creates": null,
      "raw": "0xf86e81f6850d952251f283015f9094ab241a2f548800da0544cf6f1b9c74f68f9a2f7a880de0b6b3a7640000801ca06b71292baae32ea0af39e02b89517381150aba287bd432e61732128041eb5e54a04881f5eb278c4730349f830af6ee222dcd1618384af3a1aaedb2347ba3c03137",
      "networkId": 0,
      "chainId": 0
    }
  ]
}