{
  "hash": "0x3cbfd26df72fb73045a1315125349ee409bab2dd8e944017174058ca728a93d7",
  "parentHash": "0x10a2950d183acceee5ad06fd13f563245a008606456415eb5a2bbca46c84ce78",
  "number": 111912,
  "timestamp": 1439998480,
  "nonce": "0x6f4ed2e26350e7b3",
  "difficulty": 4419908601631,
  "gasLimit": {
    "_hex": "0x2fefd8"
  },
  "gasUsed": {
    "_hex": "0x5208"
  },
  "miner": "0xf927a40C8B7F6E07c5af7FA2155B4864a4112B13",
  "extraData": "0x",
  "transactions": [
    {
      "hash": "0x9c880655757bd0a9fff2d094bba466baf5b8985eafd81e7da2e1c3a4c0533385",
      "blockHash": "0x3cbfd26df72fb73045a1315125349ee409bab2dd8e944017174058ca728a93d7",
      "blockNumber": 111912,
      "transactionIndex": 0,
      "confirmations": null,
      "from": "0x663555F143e6a4674c0FdF2e73f12fdaf5D51112",
      "gasPrice": {
        "_hex": "0xba43b7400"
      },
      "gasLimit": {
        "_hex": "0x5267"
      },
      "to": "0xc07082b0caEF1afaAA062CDae1c592c110B82aa5",
      "value": {
        "_hex": "0x141f6f514c510000"
      },
      "nonce": 6,
      "data": "0x",
      "r": "0xc23adbfb98c47ceaf6caec57135b598995f65c3019f3c46dbb215608588d6447",
      "s": "0xcab5ce0e1c2bc28cf0c886fa849baed837b12bfe28b598e93dcc2857feca2a29",
      "v": 27,
      "creates": null,
      "raw": "0xf86c06850ba43b740082526794c07082b0caef1afaaa062cdae1c592c110b82aa588141f6f514c510000801ba0c23adbfb98c47ceaf6caec57135b598995f65c3019f3c46dbb215608588d6447a0cab5ce0e1c2bc28cf0c886fa849baed837b12bfe28b598e93dcc2857feca2a29",
      "networkId": 0,
      "chainId": 0
    }
  ]
}