{
  "hash": "0x6c3e6a771f2a96cce968b8823073722ca8204a88d04371b33add431cf0a70731",
  "parentHash": "0x6d1904f4c0baafdcab7c728e5e2e5b5d90c9e7e056c3f6a2f1d981ddad91a5f7",
  "number": 96458,
  "timestamp": 1439740704,
  "nonce": "0x56bacc519e215406",
  "difficulty": 3660250455366,
  "gasLimit": {
    "_hex": "0x2fefd8"
  },
  "gasUsed": {
    "_hex": "0x5208"
  },
  "miner": "0xe6A7a1d47ff21B6321162AEA7C6CB457D5476Bca",
  "extraData": "0x476574682f76312e302e312d38326566323666362f6c696e75782f676f312e34",
  "transactions": [
    {
      "hash": "0x9fca2c7f3a911ed6accf000da5cee7f62ad7bf99454cf2c2590b424d4731af46",
      "blockHash": "0x6c3e6a771f2a96cce968b8823073722ca8204a88d04371b33add431cf0a70731",
      "blockNumber": 96458,
      "transactionIndex": 0,
      "confirmations": null,
      "from": "0x32Be343B94f860124dC4fEe278FDCBD38C102D88",
      "gasPrice": {
        "_hex": "0xde318263e"
      },
      "gasLimit": {
        "_hex": "0x5208"
      },
      "to": "0x576e6acE6eBBaC590a6cb166598BFEbA1697BDB8",
      "value": {
        "_hex": "0xcdff7473ca44a00000"
      },
      "nonce": 1005,
      "data": "0x",
      "r": "0x5e2a46bbea25929d9dff55edd6de32a4aaf185c819dfdbc3db693b94e329feb1",
      "s": "0x2f3a2dd8b1eacd867e7dee9e94d561f0de8f30d24be57ffd76b8cf7ce71ee100",
      "v": 27,
      "creates": null,
      "raw": "0xf86f8203ed850de318263e82520894576e6ace6ebbac590a6cb166598bfeba1697bdb889cdff7473ca44a00000801ba05e2a46bbea25929d9dff55edd6de32a4aaf185c819dfdbc3db693b94e329feb1a02f3a2dd8b1eacd867e7dee9e94d561f0de8f30d24be57ffd76b8cf7ce71ee100",
      "networkId": 0,
      "chainId": 0
    }
  ]
}