{
  "hash": "0x9751b6c0efaf157d1b30159b879a49ce519b48b85d25cb8eca376a05dced92e7",
  "parentHash": "0x96d61533806acdcccad27becf2f439dbb884b4e4b7c2ebc742fa6af1c4a561b6",
  "number": 107098,
  "timestamp": 1439915846,
  "nonce": "0x97be41c6831d2d53",
  "difficulty": 4474576194185,
  "gasLimit": {
    "_hex": "0x2fefd8"
  },
  "gasUsed": {
    "_hex": "0x5208"
  },
  "miner": "0x580992B51e3925e23280EfB93d3047C82f17E038",
  "extraData": "0x476574682f76312e302e312f6c696e75782f676f312e342e32",
  "transactions": [
    {
      "hash": "0xc12179514ccec512177ba93df10c212ed0fff6f90ad4122cf18634e9e4eb8239",
      "blockHash": "0x9751b6c0efaf157d1b30159b879a49ce519b48b85d25cb8eca376a05dced92e7",
      "blockNumber": 107098,
      "transactionIndex": 0,
      "confirmations": null,
      "from": "0x1Dd20cba1Ac0a6ADaFc39b52A8e3E9429A444Ada",
      "gasPrice": {
        "_hex": "0xcb8514e65"
      },
      "gasLimit": {
        "_hex": "0x5208"
      },
      "to": "0xFBb1b73C4f0BDa4f67dcA266ce6Ef42f520fBB98",
      "value": {
        "_hex": "0x6ec47ea060b32d8"
      },
      "nonce": 0,
      "data": "0x",
      "r": "0xb4e401a14a41f5b2ff678a3dbea34f7daca35f5dc9793b9afa30e7bdf9e2af88",
      "s": "0x300d2bdd14a7d32faf1f2ef40dff983ad2f31b8d954ae0b7923bd49380142dec",
      "v": 28,
      "creates": null,
      "raw": "0xf86c80850cb8514e6582520894fbb1b73c4f0bda4f67dca266ce6ef42f520fbb988806ec47ea060b32d8801ca0b4e401a14a41f5b2ff678a3dbea34f7daca35f5dc9793b9afa30e7bdf9e2af88a0300d2bdd14a7d32faf1f2ef40dff983ad2f31b8d954ae0b7923bd49380142dec",
      "networkId": 0,
      "chainId": 0
    }
  ]
}