{
  "hash": "0xe1d4198be01aa33b16ba31991f635461cc6e4d9b13193cbb6507b15ee8cff550",
  "parentHash": "0x242cb410b4ec68374c3b91ac4dc4bc67c665f70446fe4be63ead6b567416a962",
  "number": 75463,
  "timestamp": 1439403817,
  "nonce": "0x563ec74cf500fde7",
  "difficulty": 2207219444361,
  "gasLimit": {
    "_hex": "0x2fefd8"
  },
  "gasUsed": {
    "_hex": "0x546c"
  },
  "miner": "0xe6A7a1d47ff21B6321162AEA7C6CB457D5476Bca",
  "extraData": "0x476574682f76312e302e312d38326566323666362f6c696e75782f676f312e34",
  "transactions": [
    {
      "hash": "0xd0518e921d625c519701d725ec6032d671c538dd15c77934d8ceca44083a8e0f",
      "blockHash": "0xe1d4198be01aa33b16ba31991f635461cc6e4d9b13193cbb6507b15ee8cff550",
      "blockNumber": 75463,
      "transactionIndex": 0,
      "confirmations": null,
      "from": "0x1d395b30adda1cF21f091a4F4A7B753371189441",
      "gasPrice": {
        "_hex": "0x110c8f7d8de"
      },
      "gasLimit": {
        "_hex": "0xc350"
      },
      "to": "0x2910543Af39abA0Cd09dBb2D50200b3E800A63D2",
      "value": {
        "_hex": "0x21e19e0c9bab2400000"
      },
      "nonce": 4,
      "data": "0x454e304d5756584238",
      "r": "0xe29d213475f11e6b9148a58d4ace2fd183862107648be4143a50697a96e76fdd",
      "s": "0xddd3980aa6411851376b26f4d9538eb736eba687d58085d35eef009d77dbd944",
      "v": 28,
      "creates": null,
      "raw": "0xf87804860110c8f7d8de82c350942910543af39aba0cd09dbb2d50200b3e800a63d28a021e19e0c9bab240000089454e304d57565842381ca0e29d213475f11e6b9148a58d4ace2fd183862107648be4143a50697a96e76fdda0ddd3980aa6411851376b26f4d9538eb736eba687d58085d35eef009d77dbd944",
      "networkId": 0,
      "chainId": 0
    }
  ]
}