{
  "hash": "0x8c759625af743d81398b0514b7ca89418ce73a822d0e644bd0c93e260a168dce",
  "parentHash": "0xb05f61398a52cf23efa1f24a0730615b91e2c1fd84730851b9613d087071027e",
  "number": 103024,
  "timestamp": 1439846567,
  "nonce": "0x6f3921fb8ab04f20",
  "difficulty": 4156521492727,
  "gasLimit": {
    "_hex": "0x2fefd8"
  },
  "gasUsed": {
    "_hex": "0x717e"
  },
  "miner": "0x88D74a59454F6cF3B51ef6b9136AFb6b9D405A88",
  "extraData": "0x476574682f76312e302e312d38326566323666362f6c696e75782f676f312e34",
  "transactions": [
    {
      "hash": "0xd689a0ff88051e869d2ca6bd94f8e980c710ff3da1452f3504f7e8055c82cbe8",
      "blockHash": "0x8c759625af743d81398b0514b7ca89418ce73a822d0e644bd0c93e260a168dce",
      "blockNumber": 103024,
      "transactionIndex": 0,
      "confirmations": null,
      "from": "0xcD063B3081Ea55535E5b60a21eff7f14E785A877",
      "gasPrice": {
        "_hex": "0xde5d56faf"
      },
      "gasLimit": {
        "_hex": "0x30d40"
      },
      "to": "0x9E15f66B34edc3262796ef5E4D27139C931223f0",
      "value": {
        "_hex": "0x0"
      },
      "nonce": 6,
      "data": "0x55c87eb0000000000000000000000000000000000000000000000000905438e600100000",
      "r": "0x069f1c7138a8d819d9c9a1cf37aa8d8edfdda3cd05ecf1f75b8e2e5250b080d7",
      "s": "0x1f21d497fa5a1b513135955902cdce60e1326b9707414dbba58bd2e577205261",
      "v": 28,
      "creates": null,
      "raw": "0xf88906850de5d56faf83030d40949e15f66b34edc3262796ef5e4d27139c931223f080a455c87eb0000000000000000000000000000000000000000000000000905438e6001000001ca0069f1c7138a8d819d9c9a1cf37aa8d8edfdda3cd05ecf1f75b8e2e5250b080d7a01f21d497fa5a1b513135955902cdce60e1326b9707414dbba58bd2e577205261",
      "networkId": 0,
      "chainId": 0
    }
  ]
}