{
  "hash": "0x10c9763194a560d83221e82c3232ea7b23f99972a818104a2b7d36a4e114806b",
  "parentHash": "0x66d06f8737b091c10e10cac20070058cef08d58e0f5acc41e42f8ae417590fd8",
  "number": 96525,
  "timestamp": 1439741665,
  "nonce": "0x8cb4387b5d2a201d",
  "difficulty": 3683528945382,
  "gasLimit": {
    "_hex": "0x2fefd8"
  },
  "gasUsed": {
    "_hex": "0x5208"
  },
  "miner": "0x9998bacdb32b1DDc6A36173a0E64a87904BD9b43",
  "extraData": "0x",
  "transactions": [
    {
      "hash": "0x34c1d63d1c13a83953bba77e72549078ebbd1ab4bce3496334d5c09e40821e57",
      "blockHash": "0x10c9763194a560d83221e82c3232ea7b23f99972a818104a2b7d36a4e114806b",
      "blockNumber": 96525,
      "transactionIndex": 0,
      "confirmations": null,
      "from": "0xEF247E639d49461D25F57e9362CadE3120910Ce0",
      "gasPrice": {
        "_hex": "0xd1b4874f2"
      },
      "gasLimit": {
        "_hex": "0x15f90"
      },
      "to": "0xF87481A262E993a75F791E7859E71BaC36A606Eb",
      "value": {
        "_hex": "0x1158e460913d00000"
      },
      "nonce": 33,
      "data": "0x",
      "r": "0x75f815bcce0025ae6b2c2aabe4e0e79a0757bff347efe045e53bd71fb8c6e0b3",
      "s": "0x0a2cb9ed6286bd4f7ab9ffc5321601b4f07d9ae0cf4a6feef0552d195baad440",
      "v": 28,
      "creates": null,
      "raw": "0xf86e21850d1b4874f283015f9094f87481a262e993a75f791e7859e71bac36a606eb8901158e460913d00000801ca075f815bcce0025ae6b2c2aabe4e0e79a0757bff347efe045e53bd71fb8c6e0b3a00a2cb9ed6286bd4f7ab9ffc5321601b4f07d9ae0cf4a6feef0552d195baad440",
      "networkId": 0,
      "chainId": 0
    }
  ]
}