{
  "hash": "0x94d836bec247244d01dadd2e64d383df5bc7390943bb75fa481dfc20b5f7ddc1",
  "parentHash": "0xf3870f2cddc3d7e704c27d2bf932cf469ad53b2fc82caa66d3ca26d501f30360",
  "number": 85548,
  "timestamp": 1439565355,
  "nonce": "0x6a7d8c6d963d138e",
  "difficulty": 2758404516958,
  "gasLimit": {
    "_hex": "0x2fefd8"
  },
  "gasUsed": {
    "_hex": "0x1ec30"
  },
  "miner": "0xbb7B8287f3F0a933474a79eAe42CBCa977791171",
  "extraData": "0x476574682f4c5649562f76312e302e312f6c696e75782f676f312e342e32",
  "transactions": [
    {
      "hash": "0x1111280471afd29789fd9f2543a8e73968a74fb1a64eea7f1e5c2c611c7b4b28",
      "blockHash": "0x94d836bec247244d01dadd2e64d383df5bc7390943bb75fa481dfc20b5f7ddc1",
      "blockNumber": 85548,
      "transactionIndex": 0,
      "confirmations": null,
      "from": "0x2f86ba8019945f39edE131D38d4d8780884DA553",
      "gasPrice": {
        "_hex": "0xcf70b3d87"
      },
      "gasLimit": {
        "_hex": "0x5208"
      },
      "to": "0x32Be343B94f860124dC4fEe278FDCBD38C102D88",
      "value": {
        "_hex": "0x2086965632390c0000"
      },
      "nonce": 13,
      "data": "0x",
      "r": "0x78cac1e7ad52e1fd1df1bc16c545e653b260b2c54e1cd099eea481ba53288b43",
      "s": "0x410abfb4d2cf60bb4588579b515dcfe901144b95557b668b7ba803525c34a590",
      "v": 28,
      "creates": null,
      "raw": "0xf86d0d850cf70b3d878252089432be343b94f860124dc4fee278fdcbd38c102d88892086965632390c0000801ca078cac1e7ad52e1fd1df1bc16c545e653b260b2c54e1cd099eea481ba53288b43a0410abfb4d2cf60bb4588579b515dcfe901144b95557b668b7ba803525c34a590",
      "networkId": 0,
      "chainId": 0
    },
    {
      "hash": "0x81e7e3873da5618ccdf7b36b601df6797df3947e7c9119ceff59d026591b7a06",
      "blockHash": "0x94d836bec247244d01dadd2e64d383df5bc7390943bb75fa481dfc20b5f7ddc1",
      "blockNumber": 85548,
      "transactionIndex": 1,
      "confirmations": null,
      "from": "0x0D4EcC7d750180EBf4A9Df728B6669B5Bceb5E40",
      "gasPrice": {
        "_hex": "0xcd747d92a"
      },
      "gasLimit": {
        "_hex": "0x5208"
      },
      "to": "0x32Be343B94f860124dC4fEe278FDCBD38C102D88",
      "value": {
        "_hex": "0x455f742679779800"
      },
      "nonce": 29,
      "data": "0x",
      "r": "0x5e6ffd3278a740f5d2c697b71c198831c47c9a5375544b7c8e42c4190b9252f2",
      "s": "0x38a24acde52ebf7284d31cb8f08329740ab4493b23f2ed111d37e302f6196c31",
      "v": 28,
      "creates": null,
      "raw": "0xf86c1d850cd747d92a8252089432be343b94f860124dc4fee278fdcbd38c102d8888455f742679779800801ca05e6ffd3278a740f5d2c697b71c198831c47c9a5375544b7c8e42c4190b9252f2a038a24acde52ebf7284d31cb8f08329740ab4493b23f2ed111d37e302f6196c31",
      "networkId": 0,
      "chainId": 0
    },
    {
      "hash": "0x5611da37f4741d1837bf47330bdcf4579cbe91deada1c9f581b76af634cd1667",
      "blockHash": "0x94d836bec247244d01dadd2e64d383df5bc7390943bb75fa481dfc20b5f7ddc1",
      "blockNumber": 85548,
      "transactionIndex": 2,
      "confirmations": null,
      "from": "0x06EC48800B2DB3eEfa052e98A9b5Fc2Bf783Ee74",
      "gasPrice": {
        "_hex": "0xcd747d92a"
      },
      "gasLimit": {
        "_hex": "0x5208"
      },
      "to": "0x32Be343B94f860124dC4fEe278FDCBD38C102D88",
      "value": {
        "_hex": "0x191545d6d00db8000"
      },
      "nonce": 6,
      "data": "0x",
      "r": "0xa40af41ec2bb625e9ba011d32dac92ee133f68962f8e88e51387493cb410d09d",
      "s": "0x706a4cbfae0bc5c5f9029392ae89230a109d5dc40134f6972775c9bbe998cd89",
      "v": 27,
      "creates": null,
      "raw": "0xf86d06850cd747d92a8252089432be343b94f860124dc4fee278fdcbd38c102d88890191545d6d00db8000801ba0a40af41ec2bb625e9ba011d32dac92ee133f68962f8e88e51387493cb410d09da0706a4cbfae0bc5c5f9029392ae89230a109d5dc40134f6972775c9bbe998cd89",
      "networkId": 0,
      "chainId": 0
    },
    {
      "hash": "0x81103c7feb598cac20351d25301b7cd7f5cedfa289bedd8da7f0c905bc4adad7",
      "blockHash": "0x94d836bec247244d01dadd2e64d383df5bc7390943bb75fa481dfc20b5f7ddc1",
      "blockNumber": 85548,
      "transactionIndex": 3,
      "confirmations": null,
      "from": "0x01Ad0ACFf478127D9d702B1A13599D706cB759b1",
      "gasPrice": {
        "_hex": "0xcd747d92a"
      },
      "gasLimit": {
        "_hex": "0x5208"
      },
      "to": "0x32Be343B94f860124dC4fEe278FDCBD38C102D88",
      "value": {
        "_hex": "0x8b54aef122361800"
      },
      "nonce": 26,
      "data": "0x",
      "r": "0xc1be099114271b85320f6593fef9508c4f69776661b240920c773347b5086304",
      "s": "0x5fe889f1367e01ecf20885cdb4abee78e42f1ace20118527d1ae48f93ae2c0d1",
      "v": 28,
      "creates": null,
      "raw": "0xf86c1a850cd747d92a8252089432be343b94f860124dc4fee278fdcbd38c102d88888b54aef122361800801ca0c1be099114271b85320f6593fef9508c4f69776661b240920c773347b5086304a05fe889f1367e01ecf20885cdb4abee78e42f1ace20118527d1ae48f93ae2c0d1",
      "networkId": 0,
      "chainId": 0
    },
    {
      "hash": "0x3acf19b31fcafa379a121d86e3d0d2e0e298bb4142f0266b4818fb5b97ba8e00",
      "blockHash": "0x94d836bec247244d01dadd2e64d383df5bc7390943bb75fa481dfc20b5f7ddc1",
      "blockNumber": 85548,
      "transactionIndex": 4,
      "confirmations": null,
      "from": "0x2D1d94521E896625F8Ec3f65171Fa82262Da6BCF",
      "gasPrice": {
        "_hex": "0xcd747d92a"
      },
      "gasLimit": {
        "_hex": "0x5208"
      },
      "to": "0x32Be343B94f860124dC4fEe278FDCBD38C102D88",
      "value": {
        "_hex": "0x8ac305a8be6b9800"
      },
      "nonce": 5,
      "data": "0x",
      "r": "0x4a855b505ff841b380a0d137e960d9aee32c03f3c3bd19de6339a14f7d1ceff9",
      "s": "0x31988f5bf59fc1cb15e847a6fd603b128bd5d41ff13c2d7840c2844938b83c76",
      "v": 27,
      "creates": null,
      "raw": "0xf86c05850cd747d92a8252089432be343b94f860124dc4fee278fdcbd38c102d88888ac305a8be6b9800801ba04a855b505ff841b380a0d137e960d9aee32c03f3c3bd19de6339a14f7d1ceff9a031988f5bf59fc1cb15e847a6fd603b128bd5d41ff13c2d7840c2844938b83c76",
      "networkId": 0,
      "chainId": 0
    },
    {
      "hash": "0x8430d23acb6cda8a5991314bab6586f14ef7173544b3c778ae9e3d84f47eacec",
      "blockHash": "0x94d836bec247244d01dadd2e64d383df5bc7390943bb75fa481dfc20b5f7ddc1",
      "blockNumber": 85548,
      "transactionIndex": 5,
      "confirmations": null,
      "from": "0x6De181Fc4C140FA31F196e5393516c49EEeBdAd3",
      "gasPrice": {
        "_hex": "0xcd747d92a"
      },
      "gasLimit": {
        "_hex": "0x5208"
      },
      "to": "0x32Be343B94f860124dC4fEe278FDCBD38C102D88",
      "value": {
        "_hex": "0xa8434892276718000"
      },
      "nonce": 12,
      "data": "0x",
      "r": "0x04b2f88bde9bead01627073e0bfe788de531bc835baba3f22f2f6578ab0393b1",
      "s": "0x3a8eaf444454006dc4d49bc208bab09b5aee909154927c55f76e9f6e7dfdcc59",
      "v": 27,
      "creates": null,
      "raw": "0xf86d0c850cd747d92a8252089432be343b94f860124dc4fee278fdcbd38c102d88890a8434892276718000801ba004b2f88bde9bead01627073e0bfe788de531bc835baba3f22f2f6578ab0393b1a03a8eaf444454006dc4d49bc208bab09b5aee909154927c55f76e9f6e7dfdcc59",
      "networkId": 0,
      "chainId": 0
    }
  ]
}