{
  "hash": "0x85255e56146afe6b03c2c30b921251d0705fbe49c5d2817cb7bd9081e4508bf1",
  "parentHash": "0xa0f6d75d14cec276ddd8f637ab7109d5d7da237e5beae4bb9f40d808e3eef6c9",
  "number": 92822,
  "timestamp": 1439677563,
  "nonce": "0xdbd606e5863232e7",
  "difficulty": 3644000831735,
  "gasLimit": {
    "_hex": "0x2fefd8"
  },
  "gasUsed": {
    "_hex": "0x5208"
  },
  "miner": "0x4F85e43F44D2B0e6f57C9355806cE3e1B3F40Ab8",
  "extraData": "0x476574682f76312e302e312f6c696e75782f676f312e342e32",
  "transactions": [
    {
      "hash": "0xcded1b104c498cd7bd239955814bbfa8c28063a0a629ea9f7a7c0c53a5329991",
      "blockHash": "0x85255e56146afe6b03c2c30b921251d0705fbe49c5d2817cb7bd9081e4508bf1",
      "blockNumber": 92822,
      "transactionIndex": 0,
      "confirmations": null,
      "from": "0x32Be343B94f860124dC4fEe278FDCBD38C102D88",
      "gasPrice": {
        "_hex": "0xd3bd1dd73"
      },
      "gasLimit": {
        "_hex": "0x5208"
      },
      "to": "0xD0ee3F53eE0fCf3F9fbCcdd17BD1b6441DdC2074",
      "value": {
        "_hex": "0x177d5ec62052b000"
      },
      "nonce": 901,
      "data": "0x",
      "r": "0xbf181864716b7209d6564c2737eb6c486d430e4973aaba56f29491e774d2341a",
      "s": "0x00cb5724c9384d388bbfcdbac249b03da8af80b62f233e9e90216dcb03757045",
      "v": 28,
      "creates": null,
      "raw": "0xf86d820385850d3bd1dd7382520894d0ee3f53ee0fcf3f9fbccdd17bd1b6441ddc207488177d5ec62052b000801ca0bf181864716b7209d6564c2737eb6c486d430e4973aaba56f29491e774d2341a9fcb5724c9384d388bbfcdbac249b03da8af80b62f233e9e90216dcb03757045",
      "networkId": 0,
      "chainId": 0
    }
  ]
}