{
  "hash": "0xdf3c75a998ff36d7eebd721b8d7ab6a0fa24eddd98c6e5f3d2d65d8dfd6b9c4a",
  "parentHash": "0xa39149819e8f74f35ae7a5507c97a65f5410eff3fdf7c2fbcfa01cc2b37d1fa7",
  "number": 89150,
  "timestamp": 1439618895,
  "nonce": "0xee6de96b7da1422f",
  "difficulty": 3277479307992,
  "gasLimit": {
    "_hex": "0x2fefd8"
  },
  "gasUsed": {
    "_hex": "0x55d8"
  },
  "miner": "0xFAB194aC2F8437fAdDeC28952ae2B2CB4F588E38",
  "extraData": "0x476574682f76312e302e312f77696e646f77732f676f312e342e32",
  "transactions": [
    {
      "hash": "0x54b0284e4c1bbb13a1b00cf403f02c32f2e6544de22448ed636bdb7ef725b245",
      "blockHash": "0xdf3c75a998ff36d7eebd721b8d7ab6a0fa24eddd98c6e5f3d2d65d8dfd6b9c4a",
      "blockNumber": 89150,
      "transactionIndex": 0,
      "confirmations": null,
      "from": "0xb577b6BEfA054E9c040461855094B002D7f57bd7",
      "gasPrice": {
        "_hex": "0x10dcf090015"
      },
      "gasLimit": {
        "_hex": "0x15f90"
      },
      "to": "0x0000000000000000000000000000000000000000",
      "value": {
        "_hex": "0x16345785d8a0000"
      },
      "nonce": 5,
      "data": "0xb214faa54141414141414547460000000000000000000000000000000000000000000000",
      "r": "0x9569dcfa468325ceeee52f76f7f08d619cb6bad95f7fee9d8bacc6a289680e72",
      "s": "0x1737452fadd40722bbb7bbd9d31e69cfd93bf70d421a0a1e74b52c9d8ced4be8",
      "v": 28,
      "creates": null,
      "raw": "0xf8920586010dcf09001583015f9094000000000000000000000000000000000000000088016345785d8a0000a4b214faa541414141414145474600000000000000000000000000000000000000000000001ca09569dcfa468325ceeee52f76f7f08d619cb6bad95f7fee9d8bacc6a289680e72a01737452fadd40722bbb7bbd9d31e69cfd93bf70d421a0a1e74b52c9d8ced4be8",
      "networkId": 0,
      "chainId": 0
    }
  ]
}