{
  "hash": "0xf585c8f52f1d07f9080680672e0b37d6ac77a597b370c4401926de85cbb8fc69",
  "parentHash": "0x40bd523b95675bc500d57088b29da117bfb8c493b14bb843ef0a12c06e62bc44",
  "number": 77158,
  "timestamp": 1439432560,
  "nonce": "0x6504f26e56531bd0",
  "difficulty": 2244811018294,
  "gasLimit": {
    "_hex": "0x2fefd8"
  },
  "gasUsed": {
    "_hex": "0xa410"
  },
  "miner": "0xbb7B8287f3F0a933474a79eAe42CBCa977791171",
  "extraData": "0x476574682f4c5649562f76312e302e312f6c696e75782f676f312e342e32",
  "transactions": [
    {
      "hash": "0xacbb7eec7f01038433965e8f7ebe71a660e1a21e4e6c587cba2f35c6b2585182",
      "blockHash": "0xf585c8f52f1d07f9080680672e0b37d6ac77a597b370c4401926de85cbb8fc69",
      "blockNumber": 77158,
      "transactionIndex": 0,
      "confirmations": null,
      "from": "0x36d85Dc3683156e63Bf880A9fAb7788CF8143a27",
      "gasPrice": {
        "_hex": "0xcec0a26af"
      },
      "gasLimit": {
        "_hex": "0x15f90"
      },
      "to": "0x80Fab6384E60110816D73D8F52826F99D494c748",
      "value": {
        "_hex": "0x15af1d78b58c40000"
      },
      "nonce": 15,
      "data": "0x",
      "r": "0xfbecd26242a2986a801566d261fdcb2d844d46f1f4e258668478d8e4efc88d02",
      "s": "0x57e5263cc78c481f199a7c34662a8198d48816833036094e7dc51898dd81172e",
      "v": 28,
      "creates": null,
      "raw": "0xf86e0f850cec0a26af83015f909480fab6384e60110816d73d8f52826f99d494c74889015af1d78b58c40000801ca0fbecd26242a2986a801566d261fdcb2d844d46f1f4e258668478d8e4efc88d02a057e5263cc78c481f199a7c34662a8198d48816833036094e7dc51898dd81172e",
      "networkId": 0,
      "chainId": 0
    },
    {
      "hash": "0x53add0aa0a54cdc9e0771da1fab1195c9f807e9f41714b4b664474640e7fc075",
      "blockHash": "0xf585c8f52f1d07f9080680672e0b37d6ac77a597b370c4401926de85cbb8fc69",
      "blockNumber": 77158,
      "transactionIndex": 1,
      "confirmations": null,
      "from": "0x120A270bbC009644e35F0bB6ab13f95b8199c4ad",
      "gasPrice": {
        "_hex": "0xcd4dac58f"
      },
      "gasLimit": {
        "_hex": "0x3d090"
      },
      "to": "0x6b876da817EC60D0e6Cc23399eB6058f91116aaE",
      "value": {
        "_hex": "0xe67509e4f704000"
      },
      "nonce": 319,
      "data": "0x",
      "r": "0x294780e9054f8671f0a5687673bb8c075251cb0ded1ac88f39324caac51eb81b",
      "s": "0x0942bfca32e96c5be4c68c355f9d82033fff6b0940a53b83cc0ba85b8252e24b",
      "v": 27,
      "creates": null,
      "raw": "0xf86f82013f850cd4dac58f8303d090946b876da817ec60d0e6cc23399eb6058f91116aae880e67509e4f704000801ba0294780e9054f8671f0a5687673bb8c075251cb0ded1ac88f39324caac51eb81ba00942bfca32e96c5be4c68c355f9d82033fff6b0940a53b83cc0ba85b8252e24b",
      "networkId": 0,
      "chainId": 0
    }
  ]
}