{
  "hash": "0xf96e1c7aeb34af093b87f15f2fe1946154935daa3454d594198ff215438cc356",
  "parentHash": "0x1da401fd754800a006ed70aa1a0fcd15b87841c1c30ff6afe1fa87813bcaf871",
  "number": 81470,
  "timestamp": 1439502246,
  "nonce": "0x5526b7648704383d",
  "difficulty": 2447388108080,
  "gasLimit": {
    "_hex": "0x2fefd8"
  },
  "gasUsed": {
    "_hex": "0xa410"
  },
  "miner": "0xe6A7a1d47ff21B6321162AEA7C6CB457D5476Bca",
  "extraData": "0x476574682f76312e302e312d38326566323666362f6c696e75782f676f312e34",
  "transactions": [
    {
      "hash": "0x38bae1bd7f9b12513f61b61996c64bb49c521e33ae56143e2807f138ebb40b0c",
      "blockHash": "0xf96e1c7aeb34af093b87f15f2fe1946154935daa3454d594198ff215438cc356",
      "blockNumber": 81470,
      "transactionIndex": 0,
      "confirmations": null,
      "from": "0x0D4EcC7d750180EBf4A9Df728B6669B5Bceb5E40",
      "gasPrice": {
        "_hex": "0xd15bc0f2a"
      },
      "gasLimit": {
        "_hex": "0x5208"
      },
      "to": "0x32Be343B94f860124dC4fEe278FDCBD38C102D88",
      "value": {
        "_hex": "0x455f602433483800"
      },
      "nonce": 12,
      "data": "0x",
      "r": "0x0b3b6c4d3c20f950d1cb25736bbf99a1a388173e4d54a3460e5df26451460c81",
      "s": "0x146a279b992afac4d4bfa7883ac09b595e54f15cac3731d59a7a20a6ac66ef36",
      "v": 28,
      "creates": null,
      "raw": "0xf86c0c850d15bc0f2a8252089432be343b94f860124dc4fee278fdcbd38c102d8888455f602433483800801ca00b3b6c4d3c20f950d1cb25736bbf99a1a388173e4d54a3460e5df26451460c81a0146a279b992afac4d4bfa7883ac09b595e54f15cac3731d59a7a20a6ac66ef36",
      "networkId": 0,
      "chainId": 0
    },
    {
      "hash": "0x90954838efa4042090f6152dbfaae1a4d6cebcd091d6e8e2c4727337db52f64e",
      "blockHash": "0xf96e1c7aeb34af093b87f15f2fe1946154935daa3454d594198ff215438cc356",
      "blockNumber": 81470,
      "transactionIndex": 1,
      "confirmations": null,
      "from": "0x2910543Af39abA0Cd09dBb2D50200b3E800A63D2",
      "gasPrice": {
        "_hex": "0xcbe6ff44c"
      },
      "gasLimit": {
        "_hex": "0x5208"
      },
      "to": "0x9630Db4398d754a15E7E3A395269D2e884C5ec59",
      "value": {
        "_hex": "0xc8f22f108829f8000"
      },
      "nonce": 483,
      "data": "0x",
      "r": "0xa020edef15be7dc5da418a373ebe799f31d0b0e224cf9a21463b03abcf0eed1d",
      "s": "0x54d8967073954831fd81c3a130c39310246b1766a7b3cf8ee1fe226c374001e2",
      "v": 27,
      "creates": null,
      "raw": "0xf86f8201e3850cbe6ff44c825208949630db4398d754a15e7e3a395269d2e884c5ec59890c8f22f108829f8000801ba0a020edef15be7dc5da418a373ebe799f31d0b0e224cf9a21463b03abcf0eed1da054d8967073954831fd81c3a130c39310246b1766a7b3cf8ee1fe226c374001e2",
      "networkId": 0,
      "chainId": 0
    }
  ]
}