{
  "hash": "0xe55f553b3333cd3797b0f47f037de673a230c8b2f49c9b9313310e69cf99c5e3",
  "parentHash": "0x3ca353f157a4bf46e9437d01ab1c601f42d09781c2a3004c761514867bcc4403",
  "number": 113493,
  "timestamp": 1440024494,
  "nonce": "0xd44fdc7173211645",
  "difficulty": 4451560758515,
  "gasLimit": {
    "_hex": "0x2fefd5"
  },
  "gasUsed": {
    "_hex": "0x546c"
  },
  "miner": "0x9D49F602b0fdb924Bd63DDE2Bd0907E4A07c63a7",
  "extraData": "0x476574682f76312e302e312f6c696e75782f676f312e342e32",
  "transactions": [
    {
      "hash": "0x9b81b40306cff16715780c2a573e863b4ccc7312504eccc467ba55cecdf3d09f",
      "blockHash": "0xe55f553b3333cd3797b0f47f037de673a230c8b2f49c9b9313310e69cf99c5e3",
      "blockNumber": 113493,
      "transactionIndex": 0,
      "confirmations": null,
      "from": "0x86Ca0145957e6B0dFe36875FBe7a0Dec55e17A28",
      "gasPrice": {
        "_hex": "0x110c8f7d8de"
      },
      "gasLimit": {
        "_hex": "0xc350"
      },
      "to": "0x2910543Af39abA0Cd09dBb2D50200b3E800A63D2",
      "value": {
        "_hex": "0x8ac7230489e80000"
      },
      "nonce": 0,
      "data": "0x454e31435236473952",
      "r": "0xf65e389889fd2c55765acbabea224594b0d37306a626b1a4355c17dc835ed42b",
      "s": "0xb7157f24b78ac68a6d0c4803cf304a5c2fcff8e37004a63b0df7d35716e7d391",
      "v": 27,
      "creates": null,
      "raw": "0xf87680860110c8f7d8de82c350942910543af39aba0cd09dbb2d50200b3e800a63d2888ac7230489e8000089454e314352364739521ba0f65e389889fd2c55765acbabea224594b0d37306a626b1a4355c17dc835ed42ba0b7157f24b78ac68a6d0c4803cf304a5c2fcff8e37004a63b0df7d35716e7d391",
      "networkId": 0,
      "chainId": 0
    }
  ]
}