{
  "hash": "0xbbd5a30ec116811319be690e7c5b09cf1e3091b090c09261314575f3b9f10eae",
  "parentHash": "0x6e017521ae3fca23529261c5f662cada571dc6d7675e3290ceab391eedd8765f",
  "number": 66647,
  "timestamp": 1439258023,
  "nonce": "0xc19d8f19a6eab880",
  "difficulty": 1940414635447,
  "gasLimit": {
    "_hex": "0x2fefd2"
  },
  "gasUsed": {
    "_hex": "0x5208"
  },
  "miner": "0x38E8Ac573F0718497B99B698bB6A6D4A25404300",
  "extraData": "0x476574682f76312e302e312f77696e646f77732f676f312e342e32",
  "transactions": [
    {
      "hash": "0x8825df4ccfa057be52400577db0e7d5a832abbcd1a2043a0b1c344996856c561",
      "blockHash": "0xbbd5a30ec116811319be690e7c5b09cf1e3091b090c09261314575f3b9f10eae",
      "blockNumber": 66647,
      "transactionIndex": 0,
      "confirmations": null,
      "from": "0x2910543Af39abA0Cd09dBb2D50200b3E800A63D2",
      "gasPrice": {
        "_hex": "0xe30ea4087"
      },
      "gasLimit": {
        "_hex": "0x5208"
      },
      "to": "0xE5F9b98aFCd58f9a652BAd30417958Bc9dD7bFba",
      "value": {
        "_hex": "0x29f5569fb2e0778000"
      },
      "nonce": 202,
      "data": "0x",
      "r": "0x2b952d653d5d5f0139bf30b60e14e3c1d6df8b5824abcab7267ed6fd1850dc84",
      "s": "0x041941550fd2b998f7a0d75795d4ef365b90c028e8513cd26b3daf08d5e69a3d",
      "v": 28,
      "creates": null,
      "raw": "0xf86e81ca850e30ea408782520894e5f9b98afcd58f9a652bad30417958bc9dd7bfba8929f5569fb2e0778000801ca02b952d653d5d5f0139bf30b60e14e3c1d6df8b5824abcab7267ed6fd1850dc84a0041941550fd2b998f7a0d75795d4ef365b90c028e8513cd26b3daf08d5e69a3d",
      "networkId": 0,
      "chainId": 0
    }
  ]
}