{
  "hash": "0xa8d59b337ad8992147665d9223e3abf9da2f60761b6fac55cd802737c8c2655a",
  "parentHash": "0x57f81fa0e289b36a109401bd0be4dc0f4507101bf787ec790fb67e045f496682",
  "number": 101994,
  "timestamp": 1439831041,
  "nonce": "0xadd5bce65447a4b4",
  "difficulty": 3928119061262,
  "gasLimit": {
    "_hex": "0x2fefd8"
  },
  "gasUsed": {
    "_hex": "0x5208"
  },
  "miner": "0xe6A7a1d47ff21B6321162AEA7C6CB457D5476Bca",
  "extraData": "0x476574682f76312e302e312d38326566323666362f6c696e75782f676f312e34",
  "transactions": [
    {
      "hash": "0xdda1510146f4778f729902af417a34d604f231f839cabfe057e91c6136f5d483",
      "blockHash": "0xa8d59b337ad8992147665d9223e3abf9da2f60761b6fac55cd802737c8c2655a",
      "blockNumber": 101994,
      "transactionIndex": 0,
      "confirmations": null,
      "from": "0x32Be343B94f860124dC4fEe278FDCBD38C102D88",
      "gasPrice": {
        "_hex": "0xdb85ad6c3"
      },
      "gasLimit": {
        "_hex": "0x5208"
      },
      "to": "0x49f0609Ed78ee50FAa268a9Bdeb2949fa50d83eD",
      "value": {
        "_hex": "0xdbd2fc137a30000"
      },
      "nonce": 1094,
      "data": "0x",
      "r": "0x66a3400809b5c34fdc1248da4313ebea631b377ef72d2a0eadab65f59c3603f4",
      "s": "0x658c6a8303f63753051636f8b13bb6db6654f5967f8a3b71fd3d2bfa540135b4",
      "v": 28,
      "creates": null,
      "raw": "0xf86e820446850db85ad6c38252089449f0609ed78ee50faa268a9bdeb2949fa50d83ed880dbd2fc137a30000801ca066a3400809b5c34fdc1248da4313ebea631b377ef72d2a0eadab65f59c3603f4a0658c6a8303f63753051636f8b13bb6db6654f5967f8a3b71fd3d2bfa540135b4",
      "networkId": 0,
      "chainId": 0
    }
  ]
}