{
  "hash": "0xd003d86ea85f2ddac25bac27bc9524d685cf693e4a7e95ec8ca6ea922dd0f046",
  "parentHash": "0xff52d6aabaf080ff6967ad9a11e3df1da9cf80bd500521a08448240ef7dc27c2",
  "number": 100419,
  "timestamp": 1439806334,
  "nonce": "0x672d86060757f9d4",
  "difficulty": 3794985098047,
  "gasLimit": {
    "_hex": "0x2fefd8"
  },
  "gasUsed": {
    "_hex": "0xf618"
  },
  "miner": "0x47ff6576639c2e94762eA5443978D7681C0E78DC",
  "extraData": "0x476574682f76312e302e312f6c696e75782f676f312e342e32",
  "transactions": [
    {
      "hash": "0x24ba8cd03ba7ff54923c27d420cbd96d321c36b8940a6921bdc62623e27e7d6e",
      "blockHash": "0xd003d86ea85f2ddac25bac27bc9524d685cf693e4a7e95ec8ca6ea922dd0f046",
      "blockNumber": 100419,
      "transactionIndex": 0,
      "confirmations": null,
      "from": "0x458F183347F45a4001807728A89F31E9Da9D4A58",
      "gasPrice": {
        "_hex": "0xcf4972ae5"
      },
      "gasLimit": {
        "_hex": "0x15f90"
      },
      "to": "0x7fa165177F28D171bA7C17f765c1904344Ec64CB",
      "value": {
        "_hex": "0xe2353ba38ede0000"
      },
      "nonce": 38,
      "data": "0x",
      "r": "0x8b08d2c05eed6c2550cd7137711b7e6f0a822ccf8403d4c98152689af4ef7e8d",
      "s": "0x511275e115d57cc011488641d132c06bfb58e450ddaa474a158248f77fac8ca3",
      "v": 28,
      "creates": null,
      "raw": "0xf86d26850cf4972ae583015f90947fa165177f28d171ba7c17f765c1904344ec64cb88e2353ba38ede0000801ca08b08d2c05eed6c2550cd7137711b7e6f0a822ccf8403d4c98152689af4ef7e8da0511275e115d57cc011488641d132c06bfb58e450ddaa474a158248f77fac8ca3",
      "networkId": 0,
      "chainId": 0
    },
    {
      "hash": "0xa8f0a3405f9e1ce2a02ad7bc9300ccd87a6e5f34a1fcb7ce8467ad25a0b42380",
      "blockHash": "0xd003d86ea85f2ddac25bac27bc9524d685cf693e4a7e95ec8ca6ea922dd0f046",
      "blockNumber": 100419,
      "transactionIndex": 1,
      "confirmations": null,
      "from": "0x458F183347F45a4001807728A89F31E9Da9D4A58",
      "gasPrice": {
        "_hex": "0xcf4972ae5"
      },
      "gasLimit": {
        "_hex": "0x15f90"
      },
      "to": "0x1D3ffA437e5bce40fCC134f4E0ac62841E4A9E81",
      "value": {
        "_hex": "0x2dcbf4840eca0000"
      },
      "nonce": 39,
      "data": "0x",
      "r": "0x327a6775afa40c01b4414f93bbcbe2db76917b457bddaae47f5bac97418d2202",
      "s": "0x1c84191b9038c65e256aecccd5a1f195ffeceb1800e561248757782a8fb0328c",
      "v": 28,
      "creates": null,
      "raw": "0xf86d27850cf4972ae583015f90941d3ffa437e5bce40fcc134f4e0ac62841e4a9e81882dcbf4840eca0000801ca0327a6775afa40c01b4414f93bbcbe2db76917b457bddaae47f5bac97418d2202a01c84191b9038c65e256aecccd5a1f195ffeceb1800e561248757782a8fb0328c",
      "networkId": 0,
      "chainId": 0
    },
    {
      "hash": "0x2d06eae429ec9703926caf5a19f30c982f9623519cf3605be4b09427b31eb3a5",
      "blockHash": "0xd003d86ea85f2ddac25bac27bc9524d685cf693e4a7e95ec8ca6ea922dd0f046",
      "blockNumber": 100419,
      "transactionIndex": 2,
      "confirmations": null,
      "from": "0x458F183347F45a4001807728A89F31E9Da9D4A58",
      "gasPrice": {
        "_hex": "0xcf4972ae5"
      },
      "gasLimit": {
        "_hex": "0x15f90"
      },
      "to": "0x7313946aA53dCDd777C90905D75A9B41e17Ca2c9",
      "value": {
        "_hex": "0x29a2241af62c0000"
      },
      "nonce": 40,
      "data": "0x",
      "r": "0xbea6f76845b52158e602af55b96c1752247e33dda36bac34d0b9e37377c942e7",
      "s": "0x732257ffe0a9b29c80cc995f82f945501f23d17fc310fa6efd76b50fc873aa70",
      "v": 28,
      "creates": null,
      "raw": "0xf86d28850cf4972ae583015f90947313946aa53dcdd777c90905d75a9b41e17ca2c98829a2241af62c0000801ca0bea6f76845b52158e602af55b96c1752247e33dda36bac34d0b9e37377c942e7a0732257ffe0a9b29c80cc995f82f945501f23d17fc310fa6efd76b50fc873aa70",
      "networkId": 0,
      "chainId": 0
    }
  ]
}