{
  "hash": "0x551c38b124b3a90eccb5c4d28c5da2436dbb390d42563b6a86c8a5188deabdb8",
  "parentHash": "0x7acfe1073e5723f2d93747aa89aa77eb28374672323804c3b23c6409825821bd",
  "number": 79657,
  "timestamp": 1439473252,
  "nonce": "0xa4d9c038dbe2d908",
  "difficulty": 2339242933165,
  "gasLimit": {
    "_hex": "0x2fefd8"
  },
  "gasUsed": {
    "_hex": "0x5208"
  },
  "miner": "0xe6A7a1d47ff21B6321162AEA7C6CB457D5476Bca",
  "extraData": "0x476574682f76312e302e312d38326566323666362f6c696e75782f676f312e34",
  "transactions": [
    {
      "hash": "0xc08b563be709a301f35e32c7c5b48da6b338541fb5a3304a1b02b3e06c0a90fe",
      "blockHash": "0x551c38b124b3a90eccb5c4d28c5da2436dbb390d42563b6a86c8a5188deabdb8",
      "blockNumber": 79657,
      "transactionIndex": 0,
      "confirmations": null,
      "from": "0x32Be343B94f860124dC4fEe278FDCBD38C102D88",
      "gasPrice": {
        "_hex": "0xdef345988"
      },
      "gasLimit": {
        "_hex": "0x5208"
      },
      "to": "0xe2f8F0ab7063c301CBDbA058e37Eb5a9fCbDB002",
      "value": {
        "_hex": "0x376079fb47e1ec00"
      },
      "nonce": 455,
      "data": "0x",
      "r": "0x4ec21955198c364870d86d66bf5f7ccfe0aa2b0441a71858f84e180f75790e01",
      "s": "0x4b5b0172ffa30eee253a5a5ee297aca5d519b690948919744e2c7052d2c7c0fb",
      "v": 28,
      "creates": null,
      "raw": "0xf86e8201c7850def34598882520894e2f8f0ab7063c301cbdba058e37eb5a9fcbdb00288376079fb47e1ec00801ca04ec21955198c364870d86d66bf5f7ccfe0aa2b0441a71858f84e180f75790e01a04b5b0172ffa30eee253a5a5ee297aca5d519b690948919744e2c7052d2c7c0fb",
      "networkId": 0,
      "chainId": 0
    }
  ]
}