{
  "hash": "0xb2e86609deaf8bfeffd83faa464cdaf9cd22ac64d9bee246938059e6064b0fe5",
  "parentHash": "0x7c57507b0d8bce3ddd1c3338a1d162234e8fff61f3e2016f69ffd47157fd576b",
  "number": 71565,
  "timestamp": 1439338161,
  "nonce": "0x24c9b2644f82c56c",
  "difficulty": 2180388163853,
  "gasLimit": {
    "_hex": "0x2fefd8"
  },
  "gasUsed": {
    "_hex": "0x5208"
  },
  "miner": "0x0037ce3d4B7f8729C8607D8D0248252Be68202c0",
  "extraData": "0x476574682f76312e302e312f77696e646f77732f676f312e342e32",
  "transactions": [
    {
      "hash": "0xd741f21239c235b1203726f96f01da0caf1b0e106dc1a977c003fc846443fac0",
      "blockHash": "0xb2e86609deaf8bfeffd83faa464cdaf9cd22ac64d9bee246938059e6064b0fe5",
      "blockNumber": 71565,
      "transactionIndex": 0,
      "confirmations": null,
      "from": "0x120A270bbC009644e35F0bB6ab13f95b8199c4ad",
      "gasPrice": {
        "_hex": "0xd499f7894"
      },
      "gasLimit": {
        "_hex": "0x15f90"
      },
      "to": "0x46eDf24aFE9394C6fa0056Bd0c3cB659baDf9962",
      "value": {
        "_hex": "0x10fe8ac30c7276bc00"
      },
      "nonce": 234,
      "data": "0x",
      "r": "0x7504b49310095078828d02e14e2a036cf23b3bf5644c181dfb909528d0f90cb3",
      "s": "0x2806cbb758c00d9c3d2ec38d948325ce8d49e12a79cb2c08d6bd609815eba433",
      "v": 27,
      "creates": null,
      "raw": "0xf86f81ea850d499f789483015f909446edf24afe9394c6fa0056bd0c3cb659badf99628910fe8ac30c7276bc00801ba07504b49310095078828d02e14e2a036cf23b3bf5644c181dfb909528d0f90cb3a02806cbb758c00d9c3d2ec38d948325ce8d49e12a79cb2c08d6bd609815eba433",
      "networkId": 0,
      "chainId": 0
    }
  ]
}