{
  "hash": "0x369fb5076faa47d3056b013ff8ccf4494e75f77ad227666691ce10f1fc99bd50",
  "parentHash": "0x77362fa9907d77a9d904f12273b899b3bb4cf332774b475c2d7072fc48f75e57",
  "number": 116043,
  "timestamp": 1440067354,
  "nonce": "0xa2c5e7e15c6dfba9",
  "difficulty": 4600449015709,
  "gasLimit": {
    "_hex": "0x2fefd8"
  },
  "gasUsed": {
    "_hex": "0x5208"
  },
  "miner": "0xe6A7a1d47ff21B6321162AEA7C6CB457D5476Bca",
  "extraData": "0x476574682f76312e302e312d38326566323666362f6c696e75782f676f312e34",
  "transactions": [
    {
      "hash": "0x0894401b2710842a59a000b80f76ad368b4b6aaf593d5abec30c65d5d1f4aa45",
      "blockHash": "0x369fb5076faa47d3056b013ff8ccf4494e75f77ad227666691ce10f1fc99bd50",
      "blockNumber": 116043,
      "transactionIndex": 0,
      "confirmations": null,
      "from": "0x120A270bbC009644e35F0bB6ab13f95b8199c4ad",
      "gasPrice": {
        "_hex": "0xd4e05eff1"
      },
      "gasLimit": {
        "_hex": "0x3d090"
      },
      "to": "0x37612058C28D5599b4Ab876EA7EF3B4F0020114f",
      "value": {
        "_hex": "0x4563918244f40000"
      },
      "nonce": 938,
      "data": "0x",
      "r": "0xfbabb6c030bde30f5251c68b91b492ba79bded977d877009b33f4e2bf9b9a983",
      "s": "0x0fb5a90d02d1a530c38f0b39e1e492b9de74d6bbe90ce2d61b8d4c8a4f5b5578",
      "v": 28,
      "creates": null,
      "raw": "0xf86f8203aa850d4e05eff18303d0909437612058c28d5599b4ab876ea7ef3b4f0020114f884563918244f40000801ca0fbabb6c030bde30f5251c68b91b492ba79bded977d877009b33f4e2bf9b9a983a00fb5a90d02d1a530c38f0b39e1e492b9de74d6bbe90ce2d61b8d4c8a4f5b5578",
      "networkId": 0,
      "chainId": 0
    }
  ]
}