{
  "hash": "0xa02f3e183710d72bf9c1c090cda74f78f6ffd986387636ec8b520fc47bf9499a",
  "parentHash": "0x407b5df104a5f0070333a6f286f3396e8ee27913a4dec4aa24550b7db5d66d08",
  "number": 115692,
  "timestamp": 1440061552,
  "nonce": "0x0d4f8a4354f2f497",
  "difficulty": 4598395655053,
  "gasLimit": {
    "_hex": "0x2fefd8"
  },
  "gasUsed": {
    "_hex": "0x14820"
  },
  "miner": "0xbb7B8287f3F0a933474a79eAe42CBCa977791171",
  "extraData": "0x476574682f4c5649562f76312e302e312f6c696e75782f676f312e342e32",
  "transactions": [
    {
      "hash": "0x239617348d80e224d0b504baacfdab0b8506ab2ee0d2b402e8bc2b4780e34d8b",
      "blockHash": "0xa02f3e183710d72bf9c1c090cda74f78f6ffd986387636ec8b520fc47bf9499a",
      "blockNumber": 115692,
      "transactionIndex": 0,
      "confirmations": null,
      "from": "0x423F06030a6c726925816243446a11Ed6d40Ab99",
      "gasPrice": {
        "_hex": "0xba43b7400"
      },
      "gasLimit": {
        "_hex": "0x5208"
      },
      "to": "0xC47Aaa860008be6f65B58c6C6E02a84e666EfE31",
      "value": {
        "_hex": "0xf02ab2bf0415fe0"
      },
      "nonce": 9,
      "data": "0x",
      "r": "0x00ccbfee11a7adc453b46c026d4236704f3cc31bc3b0d4684a7fa95f71fc9e49",
      "s": "0x492a38e2030d4d94c3355ff4ad028fba4c3ffd2b6ed07f687639c56e5d8d186b",
      "v": 27,
      "creates": null,
      "raw": "0xf86b09850ba43b740082520894c47aaa860008be6f65b58c6c6e02a84e666efe31880f02ab2bf0415fe0801b9fccbfee11a7adc453b46c026d4236704f3cc31bc3b0d4684a7fa95f71fc9e49a0492a38e2030d4d94c3355ff4ad028fba4c3ffd2b6ed07f687639c56e5d8d186b",
      "networkId": 0,
      "chainId": 0
    },
    {
      "hash": "0xb7e44bcd8f4a571a44defce2bcea81ee1d2a63f59a5b4edaf7618af65655ad9b",
      "blockHash": "0xa02f3e183710d72bf9c1c090cda74f78f6ffd986387636ec8b520fc47bf9499a",
      "blockNumber": 115692,
      "transactionIndex": 1,
      "confirmations": null,
      "from": "0xcF9DD62019778E76a6B393f0ac4590f03A7429F7",
      "gasPrice": {
        "_hex": "0xba43b7400"
      },
      "gasLimit": {
        "_hex": "0x5208"
      },
      "to": "0xC47Aaa860008be6f65B58c6C6E02a84e666EfE31",
      "value": {
        "_hex": "0x52d8cd3c7f9b04b0"
      },
      "nonce": 8,
      "data": "0x",
      "r": "0x7848226135237a3586474a0f1f36b4fa311674a5d44f047af5e391eda11e9ff2",
      "s": "0x6aabdf3fe9b6b68ce401d93bb72c3a487d34110b16e26b138f1f0e3f74354b30",
      "v": 28,
      "creates": null,
      "raw": "0xf86c08850ba43b740082520894c47aaa860008be6f65b58c6c6e02a84e666efe318852d8cd3c7f9b04b0801ca07848226135237a3586474a0f1f36b4fa311674a5d44f047af5e391eda11e9ff2a06aabdf3fe9b6b68ce401d93bb72c3a487d34110b16e26b138f1f0e3f74354b30",
      "networkId": 0,
      "chainId": 0
    },
    {
      "hash": "0xe5add18ad2ea88a8eb0d1e2edd81c1a824e6d7868b0ce59b995c1f51849d99c4",
      "blockHash": "0xa02f3e183710d72bf9c1c090cda74f78f6ffd986387636ec8b520fc47bf9499a",
      "blockNumber": 115692,
      "transactionIndex": 2,
      "confirmations": null,
      "from": "0x63d25FB5edc318Aae1DEc4F3aBd7c645f921cff8",
      "gasPrice": {
        "_hex": "0xba43b7400"
      },
      "gasLimit": {
        "_hex": "0x5208"
      },
      "to": "0xC47Aaa860008be6f65B58c6C6E02a84e666EfE31",
      "value": {
        "_hex": "0x35655686450838d0"
      },
      "nonce": 8,
      "data": "0x",
      "r": "0xc34906d9db0c34dbf77e59796fc4d58ce120b473eed979729ba7a5b0b4622896",
      "s": "0x6cf6192289618ccffc712ebf81d602de5e3b1c22b9d8875f8e902da66d48b06a",
      "v": 27,
      "creates": null,
      "raw": "0xf86c08850ba43b740082520894c47aaa860008be6f65b58c6c6e02a84e666efe318835655686450838d0801ba0c34906d9db0c34dbf77e59796fc4d58ce120b473eed979729ba7a5b0b4622896a06cf6192289618ccffc712ebf81d602de5e3b1c22b9d8875f8e902da66d48b06a",
      "networkId": 0,
      "chainId": 0
    },
    {
      "hash": "0xfd6edc2e06b7edeff601ca2c19b58a90df56346597fbaa3bf1f6a6b52da43bd6",
      "blockHash": "0xa02f3e183710d72bf9c1c090cda74f78f6ffd986387636ec8b520fc47bf9499a",
      "blockNumber": 115692,
      "transactionIndex": 3,
      "confirmations": null,
      "from": "0xc9450a30B259ebB8631b9bC49c64dBAeC472D6Af",
      "gasPrice": {
        "_hex": "0xba43b7400"
      },
      "gasLimit": {
        "_hex": "0x5208"
      },
      "to": "0xC47Aaa860008be6f65B58c6C6E02a84e666EfE31",
      "value": {
        "_hex": "0x2d2325830c3d5680"
      },
      "nonce": 6,
      "data": "0x",
      "r": "0xed66e5877af6ed0fcab8e83a8f8f4d488977c66a9e8385287c9d6ad605e5301f",
      "s": "0x4b2c99b1369390fe4555282b099135e46f45f4b432b20a04fd42f6700fc708d5",
      "v": 28,
      "creates": null,
      "raw": "0xf86c06850ba43b740082520894c47aaa860008be6f65b58c6c6e02a84e666efe31882d2325830c3d5680801ca0ed66e5877af6ed0fcab8e83a8f8f4d488977c66a9e8385287c9d6ad605e5301fa04b2c99b1369390fe4555282b099135e46f45f4b432b20a04fd42f6700fc708d5",
      "networkId": 0,
      "chainId": 0
    }
  ]
}