{
  "hash": "0x6bd3506db49e79225e192ce757d09d7c0b81673ab2ba6523571c1f1926d02a51",
  "parentHash": "0x13c8ab71547d7548bf2c2dd36ba9a8bde583bae6cd7049f3ddfac8de2f0f7ab5",
  "number": 105051,
  "timestamp": 1439880773,
  "nonce": "0xadb2ac8c4b9a7698",
  "difficulty": 4302106898445,
  "gasLimit": {
    "_hex": "0x2fefd8"
  },
  "gasUsed": {
    "_hex": "0xa410"
  },
  "miner": "0x5DE860D6869F1f5B252804d304547004Da5d69dF",
  "extraData": "0x476574682f76312e302e312f6c696e75782f676f312e342e32",
  "transactions": [
    {
      "hash": "0x42681c54c5baa3e64f92c780e4d99243c833d88059db96d61d7db8b87e339717",
      "blockHash": "0x6bd3506db49e79225e192ce757d09d7c0b81673ab2ba6523571c1f1926d02a51",
      "blockNumber": 105051,
      "transactionIndex": 0,
      "confirmations": null,
      "from": "0x717cf9beAB3638308ded7E195e0C86132d163FeD",
      "gasPrice": {
        "_hex": "0xd99e236da"
      },
      "gasLimit": {
        "_hex": "0x5208"
      },
      "to": "0x25aCcdbA96d622Ca806Ee384Aa399B9D4E64fEDb",
      "value": {
        "_hex": "0x3326ee29caeaf7e7530"
      },
      "nonce": 0,
      "data": "0x",
      "r": "0x4fbab78797554c9456d443bd442cd39eb57a7bbd1878dc623a21e71bf243857a",
      "s": "0x3e358693127c82074f55edae738f158ce10c3c8b15068584e8c350eed8c13fc7",
      "v": 27,
      "creates": null,
      "raw": "0xf86e80850d99e236da8252089425accdba96d622ca806ee384aa399b9d4e64fedb8a03326ee29caeaf7e7530801ba04fbab78797554c9456d443bd442cd39eb57a7bbd1878dc623a21e71bf243857aa03e358693127c82074f55edae738f158ce10c3c8b15068584e8c350eed8c13fc7",
      "networkId": 0,
      "chainId": 0
    },
    {
      "hash": "0xd4f52a25386ee79f89e7594889f4dc104ed9846afb27dba7751829f7ca77af81",
      "blockHash": "0x6bd3506db49e79225e192ce757d09d7c0b81673ab2ba6523571c1f1926d02a51",
      "blockNumber": 105051,
      "transactionIndex": 1,
      "confirmations": null,
      "from": "0xb1abce2918E21ddb93AA452731a12672A3d9F75a",
      "gasPrice": {
        "_hex": "0xd8bbdcca9"
      },
      "gasLimit": {
        "_hex": "0x5208"
      },
      "to": "0x32Be343B94f860124dC4fEe278FDCBD38C102D88",
      "value": {
        "_hex": "0x455f43edcb338000"
      },
      "nonce": 133,
      "data": "0x",
      "r": "0xa2c8fd97e7bb07f0705bea89b6cf0c0f5d8cd7673abf25f47637c4ce4af32f81",
      "s": "0x3b8666cdeb4962fd01bb83f9369907b9ac2a87df8f7e99792ff8c49eb44b2799",
      "v": 27,
      "creates": null,
      "raw": "0xf86d8185850d8bbdcca98252089432be343b94f860124dc4fee278fdcbd38c102d8888455f43edcb338000801ba0a2c8fd97e7bb07f0705bea89b6cf0c0f5d8cd7673abf25f47637c4ce4af32f81a03b8666cdeb4962fd01bb83f9369907b9ac2a87df8f7e99792ff8c49eb44b2799",
      "networkId": 0,
      "chainId": 0
    }
  ]
}