{
  "hash": "0xf7a840bd781144521f486c0f544cd054d060df98a83c2050dba1f8ac723905d6",
  "parentHash": "0x4e9201f85f18c3296d17cbc944b4b975f710448d4cc35434d16ac733cd8f2d0d",
  "number": 96101,
  "timestamp": 1439734975,
  "nonce": "0xf4deb9a59d030dcb",
  "difficulty": 3630147755037,
  "gasLimit": {
    "_hex": "0x2fefd8"
  },
  "gasUsed": {
    "_hex": "0x5208"
  },
  "miner": "0x19dafe19F11E960E4cCfC6A5AA8890ebD748cA1E",
  "extraData": "0x476574682f76312e302e312d38326566323666362f6c696e75782f676f312e34",
  "transactions": [
    {
      "hash": "0x2bbe0cc75b31b1928c172fdafd9dbbe6da5a782321946fd2d9fe47503afe4627",
      "blockHash": "0xf7a840bd781144521f486c0f544cd054d060df98a83c2050dba1f8ac723905d6",
      "blockNumber": 96101,
      "transactionIndex": 0,
      "confirmations": null,
      "from": "0x657a04FeFfb4412AA72aEe9c4d23918A998B3DF3",
      "gasPrice": {
        "_hex": "0xd23ee12e2"
      },
      "gasLimit": {
        "_hex": "0x15f90"
      },
      "to": "0xc7158F4a2c954D655d54817c424Aaf64D7348eE6",
      "value": {
        "_hex": "0x1bc16d674ec80000"
      },
      "nonce": 1,
      "data": "0x",
      "r": "0x83fa7d8af54bdec6eb2b7a438ca13695e3e4a3d29204b838ba8b8f6ec213ee75",
      "s": "0x2f3317021cb57ba3a5eac1ad4c0d27d6d593cdc4d2d2d5a55765adbbe28ed8aa",
      "v": 28,
      "creates": null,
      "raw": "0xf86d01850d23ee12e283015f9094c7158f4a2c954d655d54817c424aaf64d7348ee6881bc16d674ec80000801ca083fa7d8af54bdec6eb2b7a438ca13695e3e4a3d29204b838ba8b8f6ec213ee75a02f3317021cb57ba3a5eac1ad4c0d27d6d593cdc4d2d2d5a55765adbbe28ed8aa",
      "networkId": 0,
      "chainId": 0
    }
  ]
}