{
  "hash": "0x2c8f4251fc5324e1e0da226238d1e82f553f61ab5d91f184f4547650de1733ab",
  "parentHash": "0x8dde3c63a3bd2fd4cf1cc3ac6827c4a2b5969d01c524e74ae8404c6878b22bf8",
  "number": 95368,
  "timestamp": 1439723149,
  "nonce": "0x4f1cedc8f7d26aee",
  "difficulty": 3565464443464,
  "gasLimit": {
    "_hex": "0x2fefd8"
  },
  "gasUsed": {
    "_hex": "0x5208"
  },
  "miner": "0x2134e2a2b718DCa96580ECAC31E653Ea1fdd58DA",
  "extraData": "0x476574682f76312e302e312f77696e646f77732f676f312e342e32",
  "transactions": [
    {
      "hash": "0x67d102e9d23e6557fb25d7038ea89c4027068a85825bcb4906749d12c9f4980d",
      "blockHash": "0x2c8f4251fc5324e1e0da226238d1e82f553f61ab5d91f184f4547650de1733ab",
      "blockNumber": 95368,
      "transactionIndex": 0,
      "confirmations": null,
      "from": "0x132ACC4ebA2B5039C65849368648bc19f32BEd97",
      "gasPrice": {
        "_hex": "0xcf2c0a964"
      },
      "gasLimit": {
        "_hex": "0x5208"
      },
      "to": "0x32Be343B94f860124dC4fEe278FDCBD38C102D88",
      "value": {
        "_hex": "0xddc908a0ef17800"
      },
      "nonce": 2,
      "data": "0x",
      "r": "0x564bff31d82b49a37287310c822894e461696baf10cca0063576a8b8b60b5024",
      "s": "0x361fd2903405cdd1c5f51860a9486c44614e16d5edd774a9227666c937eb4180",
      "v": 27,
      "creates": null,
      "raw": "0xf86c02850cf2c0a9648252089432be343b94f860124dc4fee278fdcbd38c102d88880ddc908a0ef17800801ba0564bff31d82b49a37287310c822894e461696baf10cca0063576a8b8b60b5024a0361fd2903405cdd1c5f51860a9486c44614e16d5edd774a9227666c937eb4180",
      "networkId": 0,
      "chainId": 0
    }
  ]
}