{
  "hash": "0x32ded653882045ac5587855683523136e755664e42c4fa709bd9ada9850bfe71",
  "parentHash": "0x184a80e2127cc52147b8f9991fd333b32e81e133ecb63482b29d6aa6c6f68d32",
  "number": 98632,
  "timestamp": 1439776407,
  "nonce": "0x819945403a283466",
  "difficulty": 3834915567145,
  "gasLimit": {
    "_hex": "0x2fefd8"
  },
  "gasUsed": {
    "_hex": "0xf87c"
  },
  "miner": "0xa70a9a7040d542C632D8e0bE7c5513A8a5Bbc752",
  "extraData": "0x",
  "transactions": [
    {
      "hash": "0x6f8bda1a45453d47e8913bfe50f53eb2eac764633101b7194ed9554cffa30470",
      "blockHash": "0x32ded653882045ac5587855683523136e755664e42c4fa709bd9ada9850bfe71",
      "blockNumber": 98632,
      "transactionIndex": 0,
      "confirmations": null,
      "from": "0x58ba1569650e5bBBb21D35d3e175c0d6B0C651A9",
      "gasPrice": {
        "_hex": "0x110c8f7d8de"
      },
      "gasLimit": {
        "_hex": "0xc350"
      },
      "to": "0x2910543Af39abA0Cd09dBb2D50200b3E800A63D2",
      "value": {
        "_hex": "0xde0b6b3a7640000"
      },
      "nonce": 1,
      "data": "0x454e32333252483730",
      "r": "0xde1c8d718bcd53c744c72f713c65fd6661c60fea2d5a859b54d305ed65059dc0",
      "s": "0xdf7d7b188d836db8de934fee9205d6c478759d048c8f14070ec8095477408fd3",
      "v": 28,
      "creates": null,
      "raw": "0xf87601860110c8f7d8de82c350942910543af39aba0cd09dbb2d50200b3e800a63d2880de0b6b3a764000089454e323332524837301ca0de1c8d718bcd53c744c72f713c65fd6661c60fea2d5a859b54d305ed65059dc0a0df7d7b188d836db8de934fee9205d6c478759d048c8f14070ec8095477408fd3",
      "networkId": 0,
      "chainId": 0
    },
    {
      "hash": "0x50b003446d6a1cd250b943ed49a088841ed02fdb00163fbf8e49a7264acbd35a",
      "blockHash": "0x32ded653882045ac5587855683523136e755664e42c4fa709bd9ada9850bfe71",
      "blockNumber": 98632,
      "transactionIndex": 1,
      "confirmations": null,
      "from": "0xd70c667add50d3d9989Ef58A81a698c09f415Bff",
      "gasPrice": {
        "_hex": "0xd489316f3"
      },
      "gasLimit": {
        "_hex": "0x15f90"
      },
      "to": "0x022A006FcC619ebf387F413eF06932bAbd47AE0E",
      "value": {
        "_hex": "0x14f498ffead70000"
      },
      "nonce": 11,
      "data": "0x",
      "r": "0x0880433b2861a62b0db8773092de4d44117d41a9cdf332ae64d6c514cd1fbc34",
      "s": "0x4a6aec324f89cbb276f293e2878dbe4ba8a281b91fdb0b28350d8899d83cf1fc",
      "v": 28,
      "creates": null,
      "raw": "0xf86d0b850d489316f383015f9094022a006fcc619ebf387f413ef06932babd47ae0e8814f498ffead70000801ca00880433b2861a62b0db8773092de4d44117d41a9cdf332ae64d6c514cd1fbc34a04a6aec324f89cbb276f293e2878dbe4ba8a281b91fdb0b28350d8899d83cf1fc",
      "networkId": 0,
      "chainId": 0
    },
    {
      "hash": "0xf4826d31eea33c62e94fe3635f54cbb8c9e49860fc839e69229c2fd5f1450da8",
      "blockHash": "0x32ded653882045ac5587855683523136e755664e42c4fa709bd9ada9850bfe71",
      "blockNumber": 98632,
      "transactionIndex": 2,
      "confirmations": null,
      "from": "0x2910543Af39abA0Cd09dBb2D50200b3E800A63D2",
      "gasPrice": {
        "_hex": "0xcdd5f6b8e"
      },
      "gasLimit": {
        "_hex": "0x5208"
      },
      "to": "0x532389402AB67fd9aA6e3A41B90D09E02a0AFB8A",
      "value": {
        "_hex": "0x2386f26fc10000"
      },
      "nonce": 933,
      "data": "0x",
      "r": "0x0f199aa67a9576fe8da298efc7969534b0ae9fb26a1a06123167d240850c098e",
      "s": "0x4306ab272710ef885ca4920809c039a950f71c038605e74c6164ae369eb178db",
      "v": 28,
      "creates": null,
      "raw": "0xf86d8203a5850cdd5f6b8e82520894532389402ab67fd9aa6e3a41b90d09e02a0afb8a872386f26fc10000801ca00f199aa67a9576fe8da298efc7969534b0ae9fb26a1a06123167d240850c098ea04306ab272710ef885ca4920809c039a950f71c038605e74c6164ae369eb178db",
      "networkId": 0,
      "chainId": 0
    }
  ]
}