{
  "hash": "0x04077e0bfa16f465e32c3d56f5bcd4b84e8f222795b2fef354e0ec43ed22297a",
  "parentHash": "0x6b76cf999bba27d6c6c8a4cd26bb6f0f27997206339f5fdeb232117b2e96b42f",
  "number": 53635,
  "timestamp": 1439041031,
  "nonce": "0x77479cf15c1a27ea",
  "difficulty": 1592386868223,
  "gasLimit": {
    "_hex": "0x2dc4c0"
  },
  "gasUsed": {
    "_hex": "0xa410"
  },
  "miner": "0x55bAf64fc9eAccFFd7Cc643BB61142E1C6ac093e",
  "extraData": "0x",
  "transactions": [
    {
      "hash": "0xd9357074079ab0a0e7524dd62ce839006aad110457a7b4252c120c5520f6ae28",
      "blockHash": "0x04077e0bfa16f465e32c3d56f5bcd4b84e8f222795b2fef354e0ec43ed22297a",
      "blockNumber": 53635,
      "transactionIndex": 0,
      "confirmations": null,
      "from": "0x48659D8f8C9A2FD44F68daA55d23A608FBE500DC",
      "gasPrice": {
        "_hex": "0xd4bc7a428"
      },
      "gasLimit": {
        "_hex": "0x61a8"
      },
      "to": "0xBB33a4b72d92FA335a3b591Ce7eE217f7a7338C1",
      "value": {
        "_hex": "0x30ca024f987b900000"
      },
      "nonce": 2,
      "data": "0x",
      "r": "0xe0134a6fa22891892171490aeaf77cae87df50df091d20fc1bdd075f613f33b9",
      "s": "0x69e308b816ca7d4ca7099fa8a885892beb514cbe820a12b81cf270662b5c824d",
      "v": 28,
      "creates": null,
      "raw": "0xf86d02850d4bc7a4288261a894bb33a4b72d92fa335a3b591ce7ee217f7a7338c18930ca024f987b900000801ca0e0134a6fa22891892171490aeaf77cae87df50df091d20fc1bdd075f613f33b9a069e308b816ca7d4ca7099fa8a885892beb514cbe820a12b81cf270662b5c824d",
      "networkId": 0,
      "chainId": 0
    },
    {
      "hash": "0x71a645145b3809df77b1a75a7a24b617fb47c8802e86adf300c37b86a636dd94",
      "blockHash": "0x04077e0bfa16f465e32c3d56f5bcd4b84e8f222795b2fef354e0ec43ed22297a",
      "blockNumber": 53635,
      "transactionIndex": 1,
      "confirmations": null,
      "from": "0xEF247E639d49461D25F57e9362CadE3120910Ce0",
      "gasPrice": {
        "_hex": "0xcbf4b42ba"
      },
      "gasLimit": {
        "_hex": "0x15f90"
      },
      "to": "0xF87481A262E993a75F791E7859E71BaC36A606Eb",
      "value": {
        "_hex": "0xde0b6b3a7640000"
      },
      "nonce": 1,
      "data": "0x",
      "r": "0x470e1d21abc2fb63551fad443a407e73bfded0604c621a64074caf13a5d1b379",
      "s": "0x34e2a9cfc4b4740953292b034973396f904a3abdd31de57fc197c5a8cd800402",
      "v": 28,
      "creates": null,
      "raw": "0xf86d01850cbf4b42ba83015f9094f87481a262e993a75f791e7859e71bac36a606eb880de0b6b3a7640000801ca0470e1d21abc2fb63551fad443a407e73bfded0604c621a64074caf13a5d1b379a034e2a9cfc4b4740953292b034973396f904a3abdd31de57fc197c5a8cd800402",
      "networkId": 0,
      "chainId": 0
    }
  ]
}