{
  "hash": "0x890b8b3c19e7595813ecf005fdd6c9add8ca05d8deb1fabdc7ff29f9a4d8ff61",
  "parentHash": "0x5b7b19d03bfd6639c99db23dbf7d5c2b4b6866978360300ade6692c98466a491",
  "number": 81672,
  "timestamp": 1439505706,
  "nonce": "0x9e12ac0a9b4ff45e",
  "difficulty": 2435408451584,
  "gasLimit": {
    "_hex": "0x2fefd8"
  },
  "gasUsed": {
    "_hex": "0x5208"
  },
  "miner": "0xe6A7a1d47ff21B6321162AEA7C6CB457D5476Bca",
  "extraData": "0x476574682f76312e302e312d38326566323666362f6c696e75782f676f312e34",
  "transactions": [
    {
      "hash": "0x11732f2689859a5d2c9e430bf353c345567405a1bcc36c1b52bd953ba3777f11",
      "blockHash": "0x890b8b3c19e7595813ecf005fdd6c9add8ca05d8deb1fabdc7ff29f9a4d8ff61",
      "blockNumber": 81672,
      "transactionIndex": 0,
      "confirmations": null,
      "from": "0x2910543Af39abA0Cd09dBb2D50200b3E800A63D2",
      "gasPrice": {
        "_hex": "0xcb9242dab"
      },
      "gasLimit": {
        "_hex": "0x5208"
      },
      "to": "0x2C6dA0AeEF23c6a9eA4a8f19c0810e505FDEb231",
      "value": {
        "_hex": "0xa5a968c90abbb8000"
      },
      "nonce": 493,
      "data": "0x",
      "r": "0x6fb10c8e3ccb98a45f6f46992c1fde4a8966f7615b8463cae6d6d129f03c18f4",
      "s": "0x5bf2b39e2d79c3212af76974be351ff8ee92c6acc6217395527887bcc2397e69",
      "v": 28,
      "creates": null,
      "raw": "0xf86f8201ed850cb9242dab825208942c6da0aeef23c6a9ea4a8f19c0810e505fdeb231890a5a968c90abbb8000801ca06fb10c8e3ccb98a45f6f46992c1fde4a8966f7615b8463cae6d6d129f03c18f4a05bf2b39e2d79c3212af76974be351ff8ee92c6acc6217395527887bcc2397e69",
      "networkId": 0,
      "chainId": 0
    }
  ]
}