{
  "hash": "0xa92de72182dab129e4c6320e09d2aba8dc5ba8ee011d7a2f5672635b0d0b20be",
  "parentHash": "0x5a15235ae890df40b2f729ac7b817dc9640af9da00c1492fb2b9db16254afe02",
  "number": 53896,
  "timestamp": 1439045360,
  "nonce": "0xa2865ae08f3367c6",
  "difficulty": 1600912927356,
  "gasLimit": {
    "_hex": "0x2fefd8"
  },
  "gasUsed": {
    "_hex": "0x5208"
  },
  "miner": "0xbb7B8287f3F0a933474a79eAe42CBCa977791171",
  "extraData": "0x476574682f4c5649562f76312e302e312f6c696e75782f676f312e342e32",
  "transactions": [
    {
      "hash": "0x5b90c067b14fbba1ba9e36eb4ad24cc3130cda5d156fd9350dd795b0f05ed8cb",
      "blockHash": "0xa92de72182dab129e4c6320e09d2aba8dc5ba8ee011d7a2f5672635b0d0b20be",
      "blockNumber": 53896,
      "transactionIndex": 0,
      "confirmations": null,
      "from": "0xEF247E639d49461D25F57e9362CadE3120910Ce0",
      "gasPrice": {
        "_hex": "0xde6a87ff4"
      },
      "gasLimit": {
        "_hex": "0x15f90"
      },
      "to": "0xF87481A262E993a75F791E7859E71BaC36A606Eb",
      "value": {
        "_hex": "0xde0b6b3a7640000"
      },
      "nonce": 3,
      "data": "0x",
      "r": "0x207b71ccb854961e0a187fde4b8404132e6950096908b5391390be299b88f5a7",
      "s": "0x0095f6069f12fb6641f7bd291d4f50cd6022ec013c8ed10533d7b6e922bcbf4c",
      "v": 27,
      "creates": null,
      "raw": "0xf86c03850de6a87ff483015f9094f87481a262e993a75f791e7859e71bac36a606eb880de0b6b3a7640000801ba0207b71ccb854961e0a187fde4b8404132e6950096908b5391390be299b88f5a79f95f6069f12fb6641f7bd291d4f50cd6022ec013c8ed10533d7b6e922bcbf4c",
      "networkId": 0,
      "chainId": 0
    }
  ]
}