{
  "hash": "0xad022a3d39ec7b6d1666cb10cf6d2041d7394d9157e549ad42af1ede2f3615cd",
  "parentHash": "0xe247b818344bc57aa263d3d153db49ee9d71d58e9a826a1c3d5dd3470f34d289",
  "number": 72164,
  "timestamp": 1439348402,
  "nonce": "0xfad5e72244ab4cad",
  "difficulty": 2172793229533,
  "gasLimit": {
    "_hex": "0x2fefd8"
  },
  "gasUsed": {
    "_hex": "0x1a22a"
  },
  "miner": "0x8E61bF5A2e46D15774172781Cf100ED0962cBb63",
  "extraData": "0x476574682f76312e302e312d37666266393930632f6c696e75782f676f312e34",
  "transactions": [
    {
      "hash": "0x3e7fdd4065515ea8ada3f591849e7e9d4796bc0f4b9656174b9eed8c7e785bb1",
      "blockHash": "0xad022a3d39ec7b6d1666cb10cf6d2041d7394d9157e549ad42af1ede2f3615cd",
      "blockNumber": 72164,
      "transactionIndex": 0,
      "confirmations": null,
      "from": "0x17580B766f7453525ca4C6A88b01b50570EA088C",
      "gasPrice": {
        "_hex": "0xd26067d7d"
      },
      "gasLimit": {
        "_hex": "0x61a80"
      },
      "to": "0x5Fe5B7546D1628f7348B023A0393de1FC825A4fD",
      "value": {
        "_hex": "0x3782dace9d900000"
      },
      "nonce": 338,
      "data": "0xb595b8b50000000000000000000000000000000000000000000000000000000000000001",
      "r": "0x05a103f7d380b3fbf9ca5a04aba54347c60293cb4df205e67217c45c0721fc78",
      "s": "0x1b0e176fc1347aa321e7b7b1677426649709d864bceaa95d31ca094e2c116a58",
      "v": 27,
      "creates": null,
      "raw": "0xf893820152850d26067d7d83061a80945fe5b7546d1628f7348b023a0393de1fc825a4fd883782dace9d900000a4b595b8b500000000000000000000000000000000000000000000000000000000000000011ba005a103f7d380b3fbf9ca5a04aba54347c60293cb4df205e67217c45c0721fc78a01b0e176fc1347aa321e7b7b1677426649709d864bceaa95d31ca094e2c116a58",
      "networkId": 0,
      "chainId": 0
    },
    {
      "hash": "0xfbc6cfd4accee3d81f2e9f19eb57d1992dcacbd0d84bc97aa54b5892bee9496d",
      "blockHash": "0xad022a3d39ec7b6d1666cb10cf6d2041d7394d9157e549ad42af1ede2f3615cd",
      "blockNumber": 72164,
      "transactionIndex": 1,
      "confirmations": null,
      "from": "0x5eD8Cee6b63b1c6AFce3AD7c92f4fD7E1B8fAd9F",
      "gasPrice": {
        "_hex": "0xba43b7400"
      },
      "gasLimit": {
        "_hex": "0x7a120"
      },
      "to": "0x209711382EAEb6C1e021e0fc81ACC5AfA9B23D25",
      "value": {
        "_hex": "0x0"
      },
      "nonce": 3,
      "data": "0x403147b600000000000000000000000000000000000000000000000000000000000000001c316c847aeeabce24ffda88715651c5c6192753c0a1f2ce6f6a61c2f2134ea4",
      "r": "0x3805ef01bafd84ef6603504feb8e010951ec2b8112858372bf719e66e4c023d2",
      "s": "0x377cc8ccec56a13a91cc2bcce0a32d28287f57c0a2d021adb3e486e52668059a",
      "v": 27,
      "creates": null,
      "raw": "0xf8aa03850ba43b74008307a12094209711382eaeb6c1e021e0fc81acc5afa9b23d2580b844403147b600000000000000000000000000000000000000000000000000000000000000001c316c847aeeabce24ffda88715651c5c6192753c0a1f2ce6f6a61c2f2134ea41ba03805ef01bafd84ef6603504feb8e010951ec2b8112858372bf719e66e4c023d2a0377cc8ccec56a13a91cc2bcce0a32d28287f57c0a2d021adb3e486e52668059a",
      "networkId": 0,
      "chainId": 0
    }
  ]
}