{
  "hash": "0x1f95b1a0f7f2c095759670b6d2d7d67366523bf24754bdcf2a2574e1fa5488e5",
  "parentHash": "0x8480a57e2e436c86b4b4ddf4e8bda0259c7e692eae57bbc0ce68aca4425a21a6",
  "number": 112889,
  "timestamp": 1440014747,
  "nonce": "0x7fc4f5b8e83e557f",
  "difficulty": 4451881293194,
  "gasLimit": {
    "_hex": "0x2fefd8"
  },
  "gasUsed": {
    "_hex": "0x5208"
  },
  "miner": "0xe6A7a1d47ff21B6321162AEA7C6CB457D5476Bca",
  "extraData": "0x476574682f76312e302e312d38326566323666362f6c696e75782f676f312e34",
  "transactions": [
    {
      "hash": "0x6e65b0365ca878022a98a476629619c1df3a9c9339bd8d03d84e1128c23e91a0",
      "blockHash": "0x1f95b1a0f7f2c095759670b6d2d7d67366523bf24754bdcf2a2574e1fa5488e5",
      "blockNumber": 112889,
      "transactionIndex": 0,
      "confirmations": null,
      "from": "0xd268fB48FA174088a25a120aFF0fd8eb0C2d4c87",
      "gasPrice": {
        "_hex": "0xcf1d24e68"
      },
      "gasLimit": {
        "_hex": "0x1d8a8"
      },
      "to": "0xf91fB5529a5371dA8C9Dac3d9D4244a5a642c556",
      "value": {
        "_hex": "0xe043da617250000"
      },
      "nonce": 17,
      "data": "0x",
      "r": "0x97fec1d9de4bee2d108f0f33e3ab5fde49297535349ab28b94187634af3f17b9",
      "s": "0x3b3d866876f2b8921699cf2c8fcee6bb9b3460d15efcbdce5b727a83d372ac76",
      "v": 27,
      "creates": null,
      "raw": "0xf86d11850cf1d24e688301d8a894f91fb5529a5371da8c9dac3d9d4244a5a642c556880e043da617250000801ba097fec1d9de4bee2d108f0f33e3ab5fde49297535349ab28b94187634af3f17b9a03b3d866876f2b8921699cf2c8fcee6bb9b3460d15efcbdce5b727a83d372ac76",
      "networkId": 0,
      "chainId": 0
    }
  ]
}