{
  "hash": "0x8cea8402b003cfb56a37411817bffb7361bfb376e17ec77913b3603f3e78cc4c",
  "parentHash": "0x62b61e09739200314855cb363ac0002760104657df87f20e6f6bcf2e35ea8fca",
  "number": 110508,
  "timestamp": 1439974944,
  "nonce": "0xf5711ca8ea0c00d7",
  "difficulty": 4369146304873,
  "gasLimit": {
    "_hex": "0x2fefd8"
  },
  "gasUsed": {
    "_hex": "0x1ec30"
  },
  "miner": "0x9746c7e1ef2bd21FF3997fa467593a89cb852BD0",
  "extraData": "0x476574682f76312e302e312f77696e646f77732f676f312e342e32",
  "transactions": [
    {
      "hash": "0xf922f1ef73f5f533b56512cc32cf30013fac1ac009613cb961ba13f6e935e126",
      "blockHash": "0x8cea8402b003cfb56a37411817bffb7361bfb376e17ec77913b3603f3e78cc4c",
      "blockNumber": 110508,
      "transactionIndex": 0,
      "confirmations": null,
      "from": "0xeDbc07d54406D3B56bdaeADEEa788b9721f779ba",
      "gasPrice": {
        "_hex": "0xd6b187d36"
      },
      "gasLimit": {
        "_hex": "0x55f0"
      },
      "to": "0x0DBaD90C967BFfeA4d6B589c0d2AF50A0eA16304",
      "value": {
        "_hex": "0x616e453d9a3a10000"
      },
      "nonce": 3,
      "data": "0x",
      "r": "0x137282f9b6d4419c7b48f19cc464ca805793e6042f5cfbf28a24d38be5a8464d",
      "s": "0x734323e2ea12eba8a55b6b403cd98d00e1d2d6861976612c478fae5550757a36",
      "v": 28,
      "creates": null,
      "raw": "0xf86d03850d6b187d368255f0940dbad90c967bffea4d6b589c0d2af50a0ea16304890616e453d9a3a10000801ca0137282f9b6d4419c7b48f19cc464ca805793e6042f5cfbf28a24d38be5a8464da0734323e2ea12eba8a55b6b403cd98d00e1d2d6861976612c478fae5550757a36",
      "networkId": 0,
      "chainId": 0
    },
    {
      "hash": "0x2babac469e481b8e32f1f775e5b3b119333f3b032c12d0629132989c19e11e08",
      "blockHash": "0x8cea8402b003cfb56a37411817bffb7361bfb376e17ec77913b3603f3e78cc4c",
      "blockNumber": 110508,
      "transactionIndex": 1,
      "confirmations": null,
      "from": "0xad7210d76107F888745616FFF7979623b84F928c",
      "gasPrice": {
        "_hex": "0xd641f460d"
      },
      "gasLimit": {
        "_hex": "0x61a8"
      },
      "to": "0xF109ca710C0Df51c1a86dBA1B0BA0Ed038114463",
      "value": {
        "_hex": "0xd02ab486cedc0000"
      },
      "nonce": 17,
      "data": "0x",
      "r": "0x98a6b95e5583a662d41d822ecce0ae0aedb13e2c4326d16620cf6f11c6c9da76",
      "s": "0x795d1d172687725b6c133a4f38c30298116777c927dcb69764009097b6634f94",
      "v": 27,
      "creates": null,
      "raw": "0xf86c11850d641f460d8261a894f109ca710c0df51c1a86dba1b0ba0ed03811446388d02ab486cedc0000801ba098a6b95e5583a662d41d822ecce0ae0aedb13e2c4326d16620cf6f11c6c9da76a0795d1d172687725b6c133a4f38c30298116777c927dcb69764009097b6634f94",
      "networkId": 0,
      "chainId": 0
    },
    {
      "hash": "0x84a3db0dd1fedf4bf5ff3ab0e3144fc5000b94071d153c92029954053bd671e0",
      "blockHash": "0x8cea8402b003cfb56a37411817bffb7361bfb376e17ec77913b3603f3e78cc4c",
      "blockNumber": 110508,
      "transactionIndex": 2,
      "confirmations": null,
      "from": "0x2910543Af39abA0Cd09dBb2D50200b3E800A63D2",
      "gasPrice": {
        "_hex": "0xd1a041f10"
      },
      "gasLimit": {
        "_hex": "0x5208"
      },
      "to": "0x2f86ba8019945f39edE131D38d4d8780884DA553",
      "value": {
        "_hex": "0x3635b7ea4ca6bf8000"
      },
      "nonce": 1087,
      "data": "0x",
      "r": "0x81299f48194e18a1a640b6d454d00362206899e3bd5e0aa6f34387ac68b1f899",
      "s": "0x7f3033a485fb0a83bb92823f13f962c53597352c2230c39c143b86326a85b9cd",
      "v": 27,
      "creates": null,
      "raw": "0xf86f82043f850d1a041f10825208942f86ba8019945f39ede131d38d4d8780884da553893635b7ea4ca6bf8000801ba081299f48194e18a1a640b6d454d00362206899e3bd5e0aa6f34387ac68b1f899a07f3033a485fb0a83bb92823f13f962c53597352c2230c39c143b86326a85b9cd",
      "networkId": 0,
      "chainId": 0
    },
    {
      "hash": "0x38dd0a3960038ce9ecbbbb4f1110a97277074f153a5293c54a37706b98f89655",
      "blockHash": "0x8cea8402b003cfb56a37411817bffb7361bfb376e17ec77913b3603f3e78cc4c",
      "blockNumber": 110508,
      "transactionIndex": 3,
      "confirmations": null,
      "from": "0x32Be343B94f860124dC4fEe278FDCBD38C102D88",
      "gasPrice": {
        "_hex": "0xd12b67899"
      },
      "gasLimit": {
        "_hex": "0x5208"
      },
      "to": "0x65d6F6040D1B3E8E8bFD5F70B46A2dB2ADBFca9a",
      "value": {
        "_hex": "0x755631b417ed8000"
      },
      "nonce": 1285,
      "data": "0x",
      "r": "0x5414bcddca1b01f4e75cae58ae170b4bd6c492eaa14f711f1ef9421ef529a06d",
      "s": "0x616b242ae1cb993fa8d90c2de641ee0d31ecf4876aa75b98a956f2360b2c5f5c",
      "v": 27,
      "creates": null,
      "raw": "0xf86e820505850d12b678998252089465d6f6040d1b3e8e8bfd5f70b46a2db2adbfca9a88755631b417ed8000801ba05414bcddca1b01f4e75cae58ae170b4bd6c492eaa14f711f1ef9421ef529a06da0616b242ae1cb993fa8d90c2de641ee0d31ecf4876aa75b98a956f2360b2c5f5c",
      "networkId": 0,
      "chainId": 0
    },
    {
      "hash": "0x3aacfe6b70ddd3e3490d8c6efdfd13662135c94a5ec0c6581f71f29a87f2fc1f",
      "blockHash": "0x8cea8402b003cfb56a37411817bffb7361bfb376e17ec77913b3603f3e78cc4c",
      "blockNumber": 110508,
      "transactionIndex": 4,
      "confirmations": null,
      "from": "0x32Be343B94f860124dC4fEe278FDCBD38C102D88",
      "gasPrice": {
        "_hex": "0xd12b67899"
      },
      "gasLimit": {
        "_hex": "0x5208"
      },
      "to": "0x7BD85B8e7546f88b3560CC11380C61eb7c9F95db",
      "value": {
        "_hex": "0xdbd2fc137a30000"
      },
      "nonce": 1286,
      "data": "0x",
      "r": "0x9c7c709dc38ea740054b78ba225b49350b828802361480ca031b80f59b88d38a",
      "s": "0x50d8658dc318154fe1a2bf6751f4ac9ffed687a4d711f64fc671773d80f11b5d",
      "v": 27,
      "creates": null,
      "raw": "0xf86e820506850d12b67899825208947bd85b8e7546f88b3560cc11380c61eb7c9f95db880dbd2fc137a30000801ba09c7c709dc38ea740054b78ba225b49350b828802361480ca031b80f59b88d38aa050d8658dc318154fe1a2bf6751f4ac9ffed687a4d711f64fc671773d80f11b5d",
      "networkId": 0,
      "chainId": 0
    },
    {
      "hash": "0x087dea46e8bc1dc513b6c12944c5d36362b09dfddbb79641dc0b625b72b82379",
      "blockHash": "0x8cea8402b003cfb56a37411817bffb7361bfb376e17ec77913b3603f3e78cc4c",
      "blockNumber": 110508,
      "transactionIndex": 5,
      "confirmations": null,
      "from": "0x32Be343B94f860124dC4fEe278FDCBD38C102D88",
      "gasPrice": {
        "_hex": "0xd12b67899"
      },
      "gasLimit": {
        "_hex": "0x5208"
      },
      "to": "0x737D72D4CC6E993486Ab68981A880848c8901Cb7",
      "value": {
        "_hex": "0x109ec5ce1eee5000"
      },
      "nonce": 1287,
      "data": "0x",
      "r": "0x9097cd93046c96c0b37593fdc74512e9b8998827f746b1a18aff42bc79955d0c",
      "s": "0x0e9ba2c8519a7b1bf999f535966a8f96dca564e323538f7d9157f3bc1606d810",
      "v": 28,
      "creates": null,
      "raw": "0xf86e820507850d12b6789982520894737d72d4cc6e993486ab68981a880848c8901cb788109ec5ce1eee5000801ca09097cd93046c96c0b37593fdc74512e9b8998827f746b1a18aff42bc79955d0ca00e9ba2c8519a7b1bf999f535966a8f96dca564e323538f7d9157f3bc1606d810",
      "networkId": 0,
      "chainId": 0
    }
  ]
}