{
  "hash": "0x377f2e83ce289136018e349fab202f340d9f89138d789922b16a176850ed75c8",
  "parentHash": "0x12e510a629b376e5b622a01c47cf9812cc1aa84f3266311bf0df44adad6b8e93",
  "number": 97759,
  "timestamp": 1439761240,
  "nonce": "0x5541fb605579c910",
  "difficulty": 3844689687932,
  "gasLimit": {
    "_hex": "0x2fefd8"
  },
  "gasUsed": {
    "_hex": "0xa410"
  },
  "miner": "0x0037ce3d4B7f8729C8607D8D0248252Be68202c0",
  "extraData": "0x476574682f76312e302e312f77696e646f77732f676f312e342e32",
  "transactions": [
    {
      "hash": "0x01be4775a07e5cc5221cf42139f1a093cff70c39d43704715879ccab357f10aa",
      "blockHash": "0x377f2e83ce289136018e349fab202f340d9f89138d789922b16a176850ed75c8",
      "blockNumber": 97759,
      "transactionIndex": 0,
      "confirmations": null,
      "from": "0x120A270bbC009644e35F0bB6ab13f95b8199c4ad",
      "gasPrice": {
        "_hex": "0xd51a40a0f"
      },
      "gasLimit": {
        "_hex": "0x3d090"
      },
      "to": "0x9047CED017a0355797e9f5f079cD8380705bC543",
      "value": {
        "_hex": "0xa7669bd7132640000"
      },
      "nonce": 645,
      "data": "0x",
      "r": "0xbc0349373d7e547dd162fa8e7e5258a22a8d33be62de470f017b5ad10d42ba2d",
      "s": "0x3e44c788a4819feca77a6177d7630c6d9307ec67c7c02d11d0e75b3c4ff7cb98",
      "v": 28,
      "creates": null,
      "raw": "0xf870820285850d51a40a0f8303d090949047ced017a0355797e9f5f079cd8380705bc543890a7669bd7132640000801ca0bc0349373d7e547dd162fa8e7e5258a22a8d33be62de470f017b5ad10d42ba2da03e44c788a4819feca77a6177d7630c6d9307ec67c7c02d11d0e75b3c4ff7cb98",
      "networkId": 0,
      "chainId": 0
    },
    {
      "hash": "0xad438e9dcd83700b18f51e4d40fb56409a0f26d409ea80c7309a57c2a244dd08",
      "blockHash": "0x377f2e83ce289136018e349fab202f340d9f89138d789922b16a176850ed75c8",
      "blockNumber": 97759,
      "transactionIndex": 1,
      "confirmations": null,
      "from": "0xa70a9a7040d542C632D8e0bE7c5513A8a5Bbc752",
      "gasPrice": {
        "_hex": "0xd50b781b7"
      },
      "gasLimit": {
        "_hex": "0x5208"
      },
      "to": "0x32Be343B94f860124dC4fEe278FDCBD38C102D88",
      "value": {
        "_hex": "0x455f4d3dfac38000"
      },
      "nonce": 179,
      "data": "0x",
      "r": "0xc7c7ba4630e1e9d8f4e40c0549a3d441ad81105f524f9fc6b23b4bd5ad290f01",
      "s": "0x68615b793bee55f8bb4d75e0ef2721ced345bf3d0c96ab66d45b8f97b8ac51e7",
      "v": 28,
      "creates": null,
      "raw": "0xf86d81b3850d50b781b78252089432be343b94f860124dc4fee278fdcbd38c102d8888455f4d3dfac38000801ca0c7c7ba4630e1e9d8f4e40c0549a3d441ad81105f524f9fc6b23b4bd5ad290f01a068615b793bee55f8bb4d75e0ef2721ced345bf3d0c96ab66d45b8f97b8ac51e7",
      "networkId": 0,
      "chainId": 0
    }
  ]
}