{
  "hash": "0xf9b957a06d607a9f55aad711bc63b4e9feddb1f091a780b1d268db61df41458a",
  "parentHash": "0xeea30e3b2d0a56516ff923900382a5b915f52a388cd2692a08842299c1b495c2",
  "number": 116587,
  "timestamp": 1440090846,
  "nonce": "0xb5e44c21853e00a1",
  "difficulty": 4489202174505,
  "gasLimit": {
    "_hex": "0x2fefd8"
  },
  "gasUsed": {
    "_hex": "0x5208"
  },
  "miner": "0xe6A7a1d47ff21B6321162AEA7C6CB457D5476Bca",
  "extraData": "0xd783010002844765746887676f312e342e32856c696e7578",
  "transactions": [
    {
      "hash": "0x79c2f84f8b0a109e7d2909132293de5a343e752c3e57a157d7f9cbdb651f020e",
      "blockHash": "0xf9b957a06d607a9f55aad711bc63b4e9feddb1f091a780b1d268db61df41458a",
      "blockNumber": 116587,
      "transactionIndex": 0,
      "confirmations": null,
      "from": "0x69c2D835f13Ee90580408E6a3283c8cCa6A434a2",
      "gasPrice": {
        "_hex": "0xd1f217cbf"
      },
      "gasLimit": {
        "_hex": "0x15f90"
      },
      "to": "0x6aaa90577344a6D5B9FdC9eeafA7B706796D0c34",
      "value": {
        "_hex": "0xde0b6b3a7640000"
      },
      "nonce": 0,
      "data": "0x",
      "r": "0x8eced87bc1b39b69bd95c8a24877d1026069920cde3e38bc68d9d45fbd41213c",
      "s": "0x3ef98f3169a4efcfea045ecf332f3e07f8080913cda51a62525eb8b79d995336",
      "v": 27,
      "creates": null,
      "raw": "0xf86d80850d1f217cbf83015f90946aaa90577344a6d5b9fdc9eeafa7b706796d0c34880de0b6b3a7640000801ba08eced87bc1b39b69bd95c8a24877d1026069920cde3e38bc68d9d45fbd41213ca03ef98f3169a4efcfea045ecf332f3e07f8080913cda51a62525eb8b79d995336",
      "networkId": 0,
      "chainId": 0
    }
  ]
}