{
  "hash": "0xc52739d24af2ba74fdd76cd7310a1615a49f4f1e78b7a88368038389c200f9a8",
  "parentHash": "0x8d7fe10499c66a79ccd20efd7637ac65b96c2d9bf644326b1728184d9220ef5b",
  "number": 101260,
  "timestamp": 1439820035,
  "nonce": "0x733d13c6ab70cccd",
  "difficulty": 3815040662458,
  "gasLimit": {
    "_hex": "0x2fefd5"
  },
  "gasUsed": {
    "_hex": "0x29b97"
  },
  "miner": "0xC978e305Aaa59952FAb39Ba288d6E9CB09B952E1",
  "extraData": "0x476574682f76312e302e312f77696e646f77732f676f312e342e32",
  "transactions": [
    {
      "hash": "0x790737d0246100c9a0a11d11af9e532bef57abacf60a1d92caa72741441b7781",
      "blockHash": "0xc52739d24af2ba74fdd76cd7310a1615a49f4f1e78b7a88368038389c200f9a8",
      "blockNumber": 101260,
      "transactionIndex": 0,
      "confirmations": null,
      "from": "0x5eD8Cee6b63b1c6AFce3AD7c92f4fD7E1B8fAd9F",
      "gasPrice": {
        "_hex": "0xcd0afca50"
      },
      "gasLimit": {
        "_hex": "0x30d40"
      },
      "to": "0xde0B295669a9FD93d5F28D9Ec85E40f4cb697BAe",
      "value": {
        "_hex": "0x0"
      },
      "nonce": 9,
      "data": "0xb61d27f60000000000000000000000001a56a50c378d21d0aa544ed9a482300c7f6e78ec00000000000000000000000000000000000000000000e025fc631854ad76400000000000000000000000000000000000000000000000000000000000000000600000000000000000000000000000000000000000000000000000000000000000",
      "r": "0xed3aadb5f5414af160f3e85f87a0dc0d4054a2b3d98adc7d315a2f5df4fa5045",
      "s": "0x4e31c3c4abe5c9d9a8d2aa9ee71cf3d8e4440b6b4630eb6b2a29ac31a7357fdb",
      "v": 27,
      "creates": null,
      "raw": "0xf8ea09850cd0afca5083030d4094de0b295669a9fd93d5f28d9ec85e40f4cb697bae80b884b61d27f60000000000000000000000001a56a50c378d21d0aa544ed9a482300c7f6e78ec00000000000000000000000000000000000000000000e025fc631854ad764000000000000000000000000000000000000000000000000000000000000000006000000000000000000000000000000000000000000000000000000000000000001ba0ed3aadb5f5414af160f3e85f87a0dc0d4054a2b3d98adc7d315a2f5df4fa5045a04e31c3c4abe5c9d9a8d2aa9ee71cf3d8e4440b6b4630eb6b2a29ac31a7357fdb",
      "networkId": 0,
      "chainId": 0
    }
  ]
}