{
  "hash": "0xb8da7c342f7962281bf68ddb7de62f21d12da255aacf67289922a439d170d51e",
  "parentHash": "0x5581c43a4a90a60fb2dd0dd0c41fe679490bdd91dc4269afed9b5252e57c2649",
  "number": 112396,
  "timestamp": 1440006810,
  "nonce": "0xf2af887ad4394338",
  "difficulty": 4411029879926,
  "gasLimit": {
    "_hex": "0x2fefd8"
  },
  "gasUsed": {
    "_hex": "0x5208"
  },
  "miner": "0x47ff6576639c2e94762eA5443978D7681C0E78DC",
  "extraData": "0x",
  "transactions": [
    {
      "hash": "0xc3d81c7970ba515ee80c4b78e29314454636a952d5a303f9d3775c396401e516",
      "blockHash": "0xb8da7c342f7962281bf68ddb7de62f21d12da255aacf67289922a439d170d51e",
      "blockNumber": 112396,
      "transactionIndex": 0,
      "confirmations": null,
      "from": "0x55D1554b08a5311C5c0A0B6464162192f9D2f884",
      "gasPrice": {
        "_hex": "0xdc8e124fc"
      },
      "gasLimit": {
        "_hex": "0x5208"
      },
      "to": "0x1d29A3d86d1db07F5d729D5B128f3060E1c78580",
      "value": {
        "_hex": "0x3fe9e96d63e98c0000"
      },
      "nonce": 8,
      "data": "0x",
      "r": "0xbcb09f644ad2e190cfa541f3e08e98ac551bcbeeb844b09291fb10b64a2109db",
      "s": "0x72cc5fc92d7555f74cbbfa881a23ab47afba87440fa102640f8219e989d1f6cd",
      "v": 28,
      "creates": null,
      "raw": "0xf86d08850dc8e124fc825208941d29a3d86d1db07f5d729d5b128f3060e1c78580893fe9e96d63e98c0000801ca0bcb09f644ad2e190cfa541f3e08e98ac551bcbeeb844b09291fb10b64a2109dba072cc5fc92d7555f74cbbfa881a23ab47afba87440fa102640f8219e989d1f6cd",
      "networkId": 0,
      "chainId": 0
    }
  ]
}