{
  "hash": "0x63913a4f6c8f83a968feadfd9853c46c4c4e3c27639b1838d30af09645469899",
  "parentHash": "0xf7c380f374c05d594f25d539404ecfd1317ddd0b06b34db3441df908f7e95d6e",
  "number": 52687,
  "timestamp": 1439025645,
  "nonce": "0xbb294f38cb09d41f",
  "difficulty": 1572476495862,
  "gasLimit": {
    "_hex": "0x17c2f1"
  },
  "gasUsed": {
    "_hex": "0x16e360"
  },
  "miner": "0xf927a40C8B7F6E07c5af7FA2155B4864a4112B13",
  "extraData": "0x476574682f76312e302e312f6c696e75782f676f312e342e32",
  "transactions": [
    {
      "hash": "0xee1f9d17482621d3ca3fcf67f50d7c1789c4e16cd2d441ea178476ba6fb6f7db",
      "blockHash": "0x63913a4f6c8f83a968feadfd9853c46c4c4e3c27639b1838d30af09645469899",
      "blockNumber": 52687,
      "transactionIndex": 0,
      "confirmations": null,
      "from": "0x54dAeb3E8a6BBC797E4aD2b0339f134b186e4637",
      "gasPrice": {
        "_hex": "0xe1780dfbb"
      },
      "gasLimit": {
        "_hex": "0x7a120"
      },
      "to": "0xBAA54d6E90c3F4d7Ebec11bD180134C7eD8eBb52",
      "value": {
        "_hex": "0x16345785d8a0000"
      },
      "nonce": 942,
      "data": "0x",
      "r": "0x70ff1a40c28cafc57901926d42f8371bf1350b2a8cb9826e130cc5ff4b727975",
      "s": "0x574de941ab8c172c4cf34c100fd46e8fcac4295431174cd9fe844f40a10860ec",
      "v": 27,
      "creates": null,
      "raw": "0xf86f8203ae850e1780dfbb8307a12094baa54d6e90c3f4d7ebec11bd180134c7ed8ebb5288016345785d8a0000801ba070ff1a40c28cafc57901926d42f8371bf1350b2a8cb9826e130cc5ff4b727975a0574de941ab8c172c4cf34c100fd46e8fcac4295431174cd9fe844f40a10860ec",
      "networkId": 0,
      "chainId": 0
    },
    {
      "hash": "0x988f820cb69bf4e975699a014f352561d943789f07da27985324e9c8fe7159f2",
      "blockHash": "0x63913a4f6c8f83a968feadfd9853c46c4c4e3c27639b1838d30af09645469899",
      "blockNumber": 52687,
      "transactionIndex": 1,
      "confirmations": null,
      "from": "0x54dAeb3E8a6BBC797E4aD2b0339f134b186e4637",
      "gasPrice": {
        "_hex": "0xdf4ba21f9"
      },
      "gasLimit": {
        "_hex": "0x7a120"
      },
      "to": "0xBAA54d6E90c3F4d7Ebec11bD180134C7eD8eBb52",
      "value": {
        "_hex": "0x16345785d8a0000"
      },
      "nonce": 943,
      "data": "0x",
      "r": "0xa47ad106fcd954c8c84f07fee7549c9a893a72c978072f36dec555a15438d16c",
      "s": "0x35b4b94ef6caa6763abb9a431376a6e40add3df67335e28ea29889e79c071b36",
      "v": 28,
      "creates": null,
      "raw": "0xf86f8203af850df4ba21f98307a12094baa54d6e90c3f4d7ebec11bd180134c7ed8ebb5288016345785d8a0000801ca0a47ad106fcd954c8c84f07fee7549c9a893a72c978072f36dec555a15438d16ca035b4b94ef6caa6763abb9a431376a6e40add3df67335e28ea29889e79c071b36",
      "networkId": 0,
      "chainId": 0
    },
    {
      "hash": "0x0a90c00f3914e5d60f7e6bee851de280f328d870c42a06731e645f92328ec5ca",
      "blockHash": "0x63913a4f6c8f83a968feadfd9853c46c4c4e3c27639b1838d30af09645469899",
      "blockNumber": 52687,
      "transactionIndex": 2,
      "confirmations": null,
      "from": "0x54dAeb3E8a6BBC797E4aD2b0339f134b186e4637",
      "gasPrice": {
        "_hex": "0xe1780dfbb"
      },
      "gasLimit": {
        "_hex": "0x7a120"
      },
      "to": "0xBAA54d6E90c3F4d7Ebec11bD180134C7eD8eBb52",
      "value": {
        "_hex": "0x16345785d8a0000"
      },
      "nonce": 944,
      "data": "0x",
      "r": "0x650cb6bccbeec5160ad0dc7d46e683d13106f191c7b7800f31d51c376359258d",
      "s": "0x33d24272da0bca2ee7e16b08dda77be3af7f77a346817111fd4b9ac1ec855689",
      "v": 27,
      "creates": null,
      "raw": "0xf86f8203b0850e1780dfbb8307a12094baa54d6e90c3f4d7ebec11bd180134c7ed8ebb5288016345785d8a0000801ba0650cb6bccbeec5160ad0dc7d46e683d13106f191c7b7800f31d51c376359258da033d24272da0bca2ee7e16b08dda77be3af7f77a346817111fd4b9ac1ec855689",
      "networkId": 0,
      "chainId": 0
    }
  ]
}