{
  "hash": "0x335802c0c01b91ad9d5ee77b456248f85aba32127755a956627d1a20229092bf",
  "parentHash": "0x806427438793ad8c42d07ad6d77dce7b53f0c11ed112f152138ab1088ebc2251",
  "number": 110336,
  "timestamp": 1439972022,
  "nonce": "0x2cea30750b314d1e",
  "difficulty": 4364971141246,
  "gasLimit": {
    "_hex": "0x2fefd8"
  },
  "gasUsed": {
    "_hex": "0x2e248"
  },
  "miner": "0xa6BDc31c431B8F97848c9D60cbbe9660dc450eB7",
  "extraData": "0x",
  "transactions": [
    {
      "hash": "0x32d1e4630a80ad6b5c90ce2f769a6b71e1e1a369aab118b2177e271c320a3ef4",
      "blockHash": "0x335802c0c01b91ad9d5ee77b456248f85aba32127755a956627d1a20229092bf",
      "blockNumber": 110336,
      "transactionIndex": 0,
      "confirmations": null,
      "from": "0xe6A7a1d47ff21B6321162AEA7C6CB457D5476Bca",
      "gasPrice": {
        "_hex": "0xd8995b99a"
      },
      "gasLimit": {
        "_hex": "0x55f0"
      },
      "to": "0xe72717ae0d6792286968449ABA7d469BCAE1d957",
      "value": {
        "_hex": "0x4dba4bb0b87118a0"
      },
      "nonce": 4316,
      "data": "0x",
      "r": "0x94851e0d185b7d02ed7a8f34a2b5946b4953bc41ad719a0e944dc7189996876b",
      "s": "0x18cc6a4888f92d09bff7569c408014ce1f370ec5d82ce07ae9da56315e8e1e3f",
      "v": 27,
      "creates": null,
      "raw": "0xf86e8210dc850d8995b99a8255f094e72717ae0d6792286968449aba7d469bcae1d957884dba4bb0b87118a0801ba094851e0d185b7d02ed7a8f34a2b5946b4953bc41ad719a0e944dc7189996876ba018cc6a4888f92d09bff7569c408014ce1f370ec5d82ce07ae9da56315e8e1e3f",
      "networkId": 0,
      "chainId": 0
    },
    {
      "hash": "0x8be37d61643342dbc04f1322c5d496e8177a15c0203c1bfcde7f633af3d922e1",
      "blockHash": "0x335802c0c01b91ad9d5ee77b456248f85aba32127755a956627d1a20229092bf",
      "blockNumber": 110336,
      "transactionIndex": 1,
      "confirmations": null,
      "from": "0xe6A7a1d47ff21B6321162AEA7C6CB457D5476Bca",
      "gasPrice": {
        "_hex": "0xd65e3abbc"
      },
      "gasLimit": {
        "_hex": "0x55f0"
      },
      "to": "0x0eDEd3DA479d0beF8eeC92A76644D3f4E3C177f7",
      "value": {
        "_hex": "0x4e1a5267dc7a5978"
      },
      "nonce": 4317,
      "data": "0x",
      "r": "0xca25f5c508b5716c234e49ca8b7fa53f226eef4a916d663a9d0b0b2c869325e0",
      "s": "0x1e0da3e9330ac65c92a65a4a0d4f5af44c73aa6d51368b4a37829d1ad2be8c4d",
      "v": 27,
      "creates": null,
      "raw": "0xf86e8210dd850d65e3abbc8255f0940eded3da479d0bef8eec92a76644d3f4e3c177f7884e1a5267dc7a5978801ba0ca25f5c508b5716c234e49ca8b7fa53f226eef4a916d663a9d0b0b2c869325e0a01e0da3e9330ac65c92a65a4a0d4f5af44c73aa6d51368b4a37829d1ad2be8c4d",
      "networkId": 0,
      "chainId": 0
    },
    {
      "hash": "0xf6ab99425be266ad49532c7d5c06833aa32417d3c14b04c9c820ed220d635589",
      "blockHash": "0x335802c0c01b91ad9d5ee77b456248f85aba32127755a956627d1a20229092bf",
      "blockNumber": 110336,
      "transactionIndex": 2,
      "confirmations": null,
      "from": "0xe6A7a1d47ff21B6321162AEA7C6CB457D5476Bca",
      "gasPrice": {
        "_hex": "0xd65e3abbc"
      },
      "gasLimit": {
        "_hex": "0x55f0"
      },
      "to": "0x4CA7cc5aF3D69A52e705DcEac59B9f76e0906DA8",
      "value": {
        "_hex": "0x4f6c9f482c0ac1f0"
      },
      "nonce": 4318,
      "data": "0x",
      "r": "0x6e6bdf3cd841ac1a2e18691387239656f1cd2568f74a381e88172534b813bdf1",
      "s": "0x37516333268eae4a6a5293123e9bbdb85a632b46f51d777a52fb0f7dcd9a5f1c",
      "v": 28,
      "creates": null,
      "raw": "0xf86e8210de850d65e3abbc8255f0944ca7cc5af3d69a52e705dceac59b9f76e0906da8884f6c9f482c0ac1f0801ca06e6bdf3cd841ac1a2e18691387239656f1cd2568f74a381e88172534b813bdf1a037516333268eae4a6a5293123e9bbdb85a632b46f51d777a52fb0f7dcd9a5f1c",
      "networkId": 0,
      "chainId": 0
    },
    {
      "hash": "0xd9b625df47385976c8a81c3fa0e2f1a91fa14e24c0835ff6bbd9120370093653",
      "blockHash": "0x335802c0c01b91ad9d5ee77b456248f85aba32127755a956627d1a20229092bf",
      "blockNumber": 110336,
      "transactionIndex": 3,
      "confirmations": null,
      "from": "0xe6A7a1d47ff21B6321162AEA7C6CB457D5476Bca",
      "gasPrice": {
        "_hex": "0xd65e3abbc"
      },
      "gasLimit": {
        "_hex": "0x55f0"
      },
      "to": "0xbb30e448B72d6Fdd44973A4C7a312F92f22C8F07",
      "value": {
        "_hex": "0x503f644665eff458"
      },
      "nonce": 4319,
      "data": "0x",
      "r": "0x1760dfd283149d9546ce32416e290fd46de55242521e951a943fba0d5a6efd53",
      "s": "0x4d17fce9572a9beff9d5c05b884d9756329707ffec9d118160525e92a4794d78",
      "v": 27,
      "creates": null,
      "raw": "0xf86e8210df850d65e3abbc8255f094bb30e448b72d6fdd44973a4c7a312f92f22c8f0788503f644665eff458801ba01760dfd283149d9546ce32416e290fd46de55242521e951a943fba0d5a6efd53a04d17fce9572a9beff9d5c05b884d9756329707ffec9d118160525e92a4794d78",
      "networkId": 0,
      "chainId": 0
    },
    {
      "hash": "0x28b0d8f3febb2a2dea8b23169b74d47c78596c2c755e45b45380e44df66a5517",
      "blockHash": "0x335802c0c01b91ad9d5ee77b456248f85aba32127755a956627d1a20229092bf",
      "blockNumber": 110336,
      "transactionIndex": 4,
      "confirmations": null,
      "from": "0xe6A7a1d47ff21B6321162AEA7C6CB457D5476Bca",
      "gasPrice": {
        "_hex": "0xd65e3abbc"
      },
      "gasLimit": {
        "_hex": "0x55f0"
      },
      "to": "0xAD8c7FBFaBC46C35aDb03F7b3A67e731E5793899",
      "value": {
        "_hex": "0x5148edcc517a0300"
      },
      "nonce": 4320,
      "data": "0x",
      "r": "0x0b2c33dcf85b04c0f82b06e0217e8fdfe784ac7f909d0cab9cd8a050b259fe12",
      "s": "0x27e7a1100178dd5be399823faf5967689f711c87d4f680a55538885a855bffef",
      "v": 28,
      "creates": null,
      "raw": "0xf86e8210e0850d65e3abbc8255f094ad8c7fbfabc46c35adb03f7b3a67e731e5793899885148edcc517a0300801ca00b2c33dcf85b04c0f82b06e0217e8fdfe784ac7f909d0cab9cd8a050b259fe12a027e7a1100178dd5be399823faf5967689f711c87d4f680a55538885a855bffef",
      "networkId": 0,
      "chainId": 0
    },
    {
      "hash": "0x2613d3f7aa52e7c2034d1633a58e1a9e073092f02e0c15570fc774b104c95df1",
      "blockHash": "0x335802c0c01b91ad9d5ee77b456248f85aba32127755a956627d1a20229092bf",
      "blockNumber": 110336,
      "transactionIndex": 5,
      "confirmations": null,
      "from": "0xe6A7a1d47ff21B6321162AEA7C6CB457D5476Bca",
      "gasPrice": {
        "_hex": "0xd65e3abbc"
      },
      "gasLimit": {
        "_hex": "0x55f0"
      },
      "to": "0xFAF4d1326d886D8dFe403B3F8A00DC7a7EA05629",
      "value": {
        "_hex": "0x51e8bfa8cf36bd08"
      },
      "nonce": 4321,
      "data": "0x",
      "r": "0x85d3d9ae6c6164851f61f549d4afd80d4c8ae233460ba232aeeafb8f8745f933",
      "s": "0x62c55fbe1f11b67abc561ee721904ee20bac2b1457cba875b8fd735cdbdcccef",
      "v": 27,
      "creates": null,
      "raw": "0xf86e8210e1850d65e3abbc8255f094faf4d1326d886d8dfe403b3f8a00dc7a7ea056298851e8bfa8cf36bd08801ba085d3d9ae6c6164851f61f549d4afd80d4c8ae233460ba232aeeafb8f8745f933a062c55fbe1f11b67abc561ee721904ee20bac2b1457cba875b8fd735cdbdcccef",
      "networkId": 0,
      "chainId": 0
    },
    {
      "hash": "0x271ad02ab6096c62072b86df149e00529104c27a21bcb399a4e7eddd2862e3e6",
      "blockHash": "0x335802c0c01b91ad9d5ee77b456248f85aba32127755a956627d1a20229092bf",
      "blockNumber": 110336,
      "transactionIndex": 6,
      "confirmations": null,
      "from": "0xe6A7a1d47ff21B6321162AEA7C6CB457D5476Bca",
      "gasPrice": {
        "_hex": "0xd65e3abbc"
      },
      "gasLimit": {
        "_hex": "0x55f0"
      },
      "to": "0x49DC75D11428d1D718FC7b71941B71ae6F8bfA3C",
      "value": {
        "_hex": "0x5569a254a6959d48"
      },
      "nonce": 4322,
      "data": "0x",
      "r": "0xcbec68348ed24fa74cf787d7640ca6b8e2ad32a0ccbd25b82c6a39d0692a3f97",
      "s": "0x2f51c90a0498c1cc13356e48eaa9a343009a52f5c5089aae2fa66417760f4187",
      "v": 27,
      "creates": null,
      "raw": "0xf86e8210e2850d65e3abbc8255f09449dc75d11428d1d718fc7b71941b71ae6f8bfa3c885569a254a6959d48801ba0cbec68348ed24fa74cf787d7640ca6b8e2ad32a0ccbd25b82c6a39d0692a3f97a02f51c90a0498c1cc13356e48eaa9a343009a52f5c5089aae2fa66417760f4187",
      "networkId": 0,
      "chainId": 0
    },
    {
      "hash": "0xd739f070dce16f6e4117e1c27373c5f75992e6ba38fdaa05ea56c5eb506ee484",
      "blockHash": "0x335802c0c01b91ad9d5ee77b456248f85aba32127755a956627d1a20229092bf",
      "blockNumber": 110336,
      "transactionIndex": 7,
      "confirmations": null,
      "from": "0xe6A7a1d47ff21B6321162AEA7C6CB457D5476Bca",
      "gasPrice": {
        "_hex": "0xd65e3abbc"
      },
      "gasLimit": {
        "_hex": "0x55f0"
      },
      "to": "0xFCb0b0382b155BE6Dd68dcdB7f29d2366D1C7502",
      "value": {
        "_hex": "0x55eeff70b1392130"
      },
      "nonce": 4323,
      "data": "0x",
      "r": "0xc310969cd11ab0f0b516dae46c70f9e66940fb61a5ddce3901634f8c4d033365",
      "s": "0x38b3a690ce98756da4913ba65299cb8e0c1069c34dd192b44598fdd39e6932d5",
      "v": 28,
      "creates": null,
      "raw": "0xf86e8210e3850d65e3abbc8255f094fcb0b0382b155be6dd68dcdb7f29d2366d1c75028855eeff70b1392130801ca0c310969cd11ab0f0b516dae46c70f9e66940fb61a5ddce3901634f8c4d033365a038b3a690ce98756da4913ba65299cb8e0c1069c34dd192b44598fdd39e6932d5",
      "networkId": 0,
      "chainId": 0
    },
    {
      "hash": "0x7f755cac1bb75f39c7962adfee23c96b17a79e37328d012c655b8a830465b588",
      "blockHash": "0x335802c0c01b91ad9d5ee77b456248f85aba32127755a956627d1a20229092bf",
      "blockNumber": 110336,
      "transactionIndex": 8,
      "confirmations": null,
      "from": "0x7bC11D546783d2e3b7Bb2241D5f43Fb2611C3B98",
      "gasPrice": {
        "_hex": "0xd3342bbf4"
      },
      "gasLimit": {
        "_hex": "0x5208"
      },
      "to": "0x32Be343B94f860124dC4fEe278FDCBD38C102D88",
      "value": {
        "_hex": "0x1522c4a3618d1c00"
      },
      "nonce": 7,
      "data": "0x",
      "r": "0x24c405e4098477951851bcf00748775af0c44c2bb4713edff62dab4776b937e1",
      "s": "0x2609a0517f3c732d36422283caae94bfcb40c080ad4ed2e2acbdb3083ef90599",
      "v": 27,
      "creates": null,
      "raw": "0xf86c07850d3342bbf48252089432be343b94f860124dc4fee278fdcbd38c102d88881522c4a3618d1c00801ba024c405e4098477951851bcf00748775af0c44c2bb4713edff62dab4776b937e1a02609a0517f3c732d36422283caae94bfcb40c080ad4ed2e2acbdb3083ef90599",
      "networkId": 0,
      "chainId": 0
    }
  ]
}