{
  "hash": "0x50fe13e96508b67f754c6d71df1995feaa673ee67e04294a8d93f8a26554bcc0",
  "parentHash": "0xf77edf968e9bb093e7fe379124c6c707d583ef8f31b98570c26097255d62525a",
  "number": 109678,
  "timestamp": 1439960708,
  "nonce": "0xb5978ed9ddd68744",
  "difficulty": 4447066683421,
  "gasLimit": {
    "_hex": "0x2fefd8"
  },
  "gasUsed": {
    "_hex": "0x5208"
  },
  "miner": "0x580992B51e3925e23280EfB93d3047C82f17E038",
  "extraData": "0x476574682f76312e302e312f6c696e75782f676f312e342e32",
  "transactions": [
    {
      "hash": "0x88ead3eef9c7cacd48c64a8c1e993b18c8a245f0e71472adca664e96aa9d6a08",
      "blockHash": "0x50fe13e96508b67f754c6d71df1995feaa673ee67e04294a8d93f8a26554bcc0",
      "blockNumber": 109678,
      "transactionIndex": 0,
      "confirmations": null,
      "from": "0x6fed5AfCd5382709c6181E15C6ddf16187E4d5c2",
      "gasPrice": {
        "_hex": "0xd371fce68"
      },
      "gasLimit": {
        "_hex": "0x5208"
      },
      "to": "0x32Be343B94f860124dC4fEe278FDCBD38C102D88",
      "value": {
        "_hex": "0x6c5d9ca54c61a40000"
      },
      "nonce": 0,
      "data": "0x",
      "r": "0x20a3409a3edf296fe17d464d41ec39d58e4f79e90f7dad33dc27658739f1b2fd",
      "s": "0x74fa218d02dad2eb3ef671a69063e3e7b814b69e9ab52425dced50a1002a84d6",
      "v": 27,
      "creates": null,
      "raw": "0xf86d80850d371fce688252089432be343b94f860124dc4fee278fdcbd38c102d88896c5d9ca54c61a40000801ba020a3409a3edf296fe17d464d41ec39d58e4f79e90f7dad33dc27658739f1b2fda074fa218d02dad2eb3ef671a69063e3e7b814b69e9ab52425dced50a1002a84d6",
      "networkId": 0,
      "chainId": 0
    }
  ]
}