{
  "hash": "0x5067be00dffe06045f04e9abc75dbf9ef48e13b58a8a8f37f7100661a503a438",
  "parentHash": "0xa5257e7d29f292637c53c516d8458cdf2d643fa55a1479c3a4de9239290a663f",
  "number": 49994,
  "timestamp": 1438982525,
  "nonce": "0xf9fb519d369e3208",
  "difficulty": 1492909193608,
  "gasLimit": {
    "_hex": "0x49fc4"
  },
  "gasUsed": {
    "_hex": "0x1b3fc"
  },
  "miner": "0x8EF5f53D5B50584a031D68D0AB92493355d4EdB0",
  "extraData": "0x476574682f76312e302e312f6c696e75782f676f312e342e32",
  "transactions": [
    {
      "hash": "0x67e356eb2867ae23f746a59b4ee8b428a43731f67de1bc213c3c4c7db1f08a6f",
      "blockHash": "0x5067be00dffe06045f04e9abc75dbf9ef48e13b58a8a8f37f7100661a503a438",
      "blockNumber": 49994,
      "transactionIndex": 0,
      "confirmations": null,
      "from": "0xFD2605a2bF58fDbB90db1Da55dF61628B47F9e8c",
      "gasPrice": {
        "_hex": "0xd54a9fdee"
      },
      "gasLimit": {
        "_hex": "0x15f90"
      },
      "to": "0x109C4f2CCc82C4d77Bde15F306707320294Aea3F",
      "value": {
        "_hex": "0xde0b6b3a7640000"
      },
      "nonce": 8,
      "data": "0x",
      "r": "0xfeb59253322e431e10b997dc7b904ae253aaa72d67e3785a73b455fbd7d5c5c2",
      "s": "0x4aad73fcd8b3bad248560651627ac024272072129e9a04a9f668df95f06ab8ae",
      "v": 28,
      "creates": null,
      "raw": "0xf86d08850d54a9fdee83015f9094109c4f2ccc82c4d77bde15f306707320294aea3f880de0b6b3a7640000801ca0feb59253322e431e10b997dc7b904ae253aaa72d67e3785a73b455fbd7d5c5c2a04aad73fcd8b3bad248560651627ac024272072129e9a04a9f668df95f06ab8ae",
      "networkId": 0,
      "chainId": 0
    },
    {
      "hash": "0xdaeb721d0989fbb029993f17a3a962454abe3a1dc15e87a70d0a61b878adfc4f",
      "blockHash": "0x5067be00dffe06045f04e9abc75dbf9ef48e13b58a8a8f37f7100661a503a438",
      "blockNumber": 49994,
      "transactionIndex": 1,
      "confirmations": null,
      "from": "0x83908AA7478a6D1c9B9B0281148F8F9F242b9fDC",
      "gasPrice": {
        "_hex": "0xd1988ca78"
      },
      "gasLimit": {
        "_hex": "0x15f90"
      },
      "to": "0x2910543Af39abA0Cd09dBb2D50200b3E800A63D2",
      "value": {
        "_hex": "0x2f9e9f457d1d8"
      },
      "nonce": 3,
      "data": "0x454e46384139353638",
      "r": "0x55af267d2d4f2fac13d1d62045c30d01b90765be85769211bdbfd186fc6266aa",
      "s": "0x555336479302e4fbdd559830e17585a104884cbefdba49f5e4bd4e81db459185",
      "v": 27,
      "creates": null,
      "raw": "0xf87503850d1988ca7883015f90942910543af39aba0cd09dbb2d50200b3e800a63d28702f9e9f457d1d889454e463841393536381ba055af267d2d4f2fac13d1d62045c30d01b90765be85769211bdbfd186fc6266aaa0555336479302e4fbdd559830e17585a104884cbefdba49f5e4bd4e81db459185",
      "networkId": 0,
      "chainId": 0
    }
  ]
}