{
  "hash": "0x7472eff4d3701bcf774a4340c65ecee7f6582ed653439c27dc2701c01eaf70b3",
  "parentHash": "0x96b3a22c87368bf7b96b9bed7edd455f3e67cb8a06db7c14e085f6b593883503",
  "number": 90671,
  "timestamp": 1439643767,
  "nonce": "0xc32b36f8edcd81c5",
  "difficulty": 3346414256364,
  "gasLimit": {
    "_hex": "0x2fefd8"
  },
  "gasUsed": {
    "_hex": "0xa410"
  },
  "miner": "0xe6A7a1d47ff21B6321162AEA7C6CB457D5476Bca",
  "extraData": "0x476574682f76312e302e312d38326566323666362f6c696e75782f676f312e34",
  "transactions": [
    {
      "hash": "0x7e010bd71a4978099347ff2c98c0434cd69ad725893633591643a3c7bba59266",
      "blockHash": "0x7472eff4d3701bcf774a4340c65ecee7f6582ed653439c27dc2701c01eaf70b3",
      "blockNumber": 90671,
      "transactionIndex": 0,
      "confirmations": null,
      "from": "0x8293b65bD915B9FF87F6aDAb479da2e5b6633fDB",
      "gasPrice": {
        "_hex": "0xdb54ed851"
      },
      "gasLimit": {
        "_hex": "0x15f90"
      },
      "to": "0x9f78552704fe7e52cC7C3853534aA2C3cf580D54",
      "value": {
        "_hex": "0x4563918244f40000"
      },
      "nonce": 9,
      "data": "0x",
      "r": "0xc5c7c37f190095bbb3bfb31c197c5a27f6ffce5dc2d24f04826988c2fddebaee",
      "s": "0x0ef3c68903bf1541aca9f199951cded450d291d14fb489b28e546a98cb397244",
      "v": 28,
      "creates": null,
      "raw": "0xf86d09850db54ed85183015f90949f78552704fe7e52cc7c3853534aa2c3cf580d54884563918244f40000801ca0c5c7c37f190095bbb3bfb31c197c5a27f6ffce5dc2d24f04826988c2fddebaeea00ef3c68903bf1541aca9f199951cded450d291d14fb489b28e546a98cb397244",
      "networkId": 0,
      "chainId": 0
    },
    {
      "hash": "0x86402c3157064e27ad7bb11e8274daf067f56511354498bd402261311e1884a4",
      "blockHash": "0x7472eff4d3701bcf774a4340c65ecee7f6582ed653439c27dc2701c01eaf70b3",
      "blockNumber": 90671,
      "transactionIndex": 1,
      "confirmations": null,
      "from": "0xE3535c3A7F74fDd1447140e98FA5fE310028f40f",
      "gasPrice": {
        "_hex": "0xdb3c2ac5b"
      },
      "gasLimit": {
        "_hex": "0x5208"
      },
      "to": "0x32Be343B94f860124dC4fEe278FDCBD38C102D88",
      "value": {
        "_hex": "0x11c7a330e327f6000"
      },
      "nonce": 2,
      "data": "0x",
      "r": "0xdcaa2464c952ec666bb434885ef486de0d29e71b272899e4bf229e1be9cb8909",
      "s": "0x5558db0fc318c9a862ccb960a64a63801e980cbabd381b1dc54d68b85c93ce31",
      "v": 28,
      "creates": null,
      "raw": "0xf86d02850db3c2ac5b8252089432be343b94f860124dc4fee278fdcbd38c102d8889011c7a330e327f6000801ca0dcaa2464c952ec666bb434885ef486de0d29e71b272899e4bf229e1be9cb8909a05558db0fc318c9a862ccb960a64a63801e980cbabd381b1dc54d68b85c93ce31",
      "networkId": 0,
      "chainId": 0
    }
  ]
}