{
  "hash": "0x4dc67791e1617e5720bae2bcfc68add0d95db4deb5413671505e0565d71b5fa4",
  "parentHash": "0xb3ac35581d8fd8d1bd8d2c2dbad564a75084fcb7901e1cde7eee7cfffa423a1e",
  "number": 107996,
  "timestamp": 1439932266,
  "nonce": "0x21fe2589290de994",
  "difficulty": 4357669527806,
  "gasLimit": {
    "_hex": "0x2fefd8"
  },
  "gasUsed": {
    "_hex": "0x5208"
  },
  "miner": "0xe6A7a1d47ff21B6321162AEA7C6CB457D5476Bca",
  "extraData": "0x476574682f76312e302e312d38326566323666362f6c696e75782f676f312e34",
  "transactions": [
    {
      "hash": "0x91b2f0a509119d06f39a7ee621540218f0e7161a90d406431b85256ea413d7c1",
      "blockHash": "0x4dc67791e1617e5720bae2bcfc68add0d95db4deb5413671505e0565d71b5fa4",
      "blockNumber": 107996,
      "transactionIndex": 0,
      "confirmations": null,
      "from": "0xFBb1b73C4f0BDa4f67dcA266ce6Ef42f520fBB98",
      "gasPrice": {
        "_hex": "0xe0885eb30"
      },
      "gasLimit": {
        "_hex": "0x5208"
      },
      "to": "0xEFAa23397C85dF68fF1708b489856B006B30EEd2",
      "value": {
        "_hex": "0xb969b678e96f400"
      },
      "nonce": 119,
      "data": "0x",
      "r": "0xea9c8e13d035365a443879017088a158d1af0b1c5bfa5a52a5ebb5aeed564cca",
      "s": "0x5b4fd2bffc5707a025eb9526de7846fd614b163377f7bf0f307490f7050d7e2f",
      "v": 28,
      "creates": null,
      "raw": "0xf86c77850e0885eb3082520894efaa23397c85df68ff1708b489856b006b30eed2880b969b678e96f400801ca0ea9c8e13d035365a443879017088a158d1af0b1c5bfa5a52a5ebb5aeed564ccaa05b4fd2bffc5707a025eb9526de7846fd614b163377f7bf0f307490f7050d7e2f",
      "networkId": 0,
      "chainId": 0
    }
  ]
}