{
  "hash": "0x5e03e490bc4d82a14b741c7874a22b110d68091d5cdc2227795a69bff8176098",
  "parentHash": "0x8c03c24cd9f454ba2ddbc57771396ce9c94bfe958b83b7236dcbc1470da42942",
  "number": 93744,
  "timestamp": 1439697034,
  "nonce": "0x3186566a47557a3d",
  "difficulty": 3422845736301,
  "gasLimit": {
    "_hex": "0x2fefd8"
  },
  "gasUsed": {
    "_hex": "0x5208"
  },
  "miner": "0x3E19FcE1f1905c574a913E7484E854df61072e1b",
  "extraData": "0x476574682f76312e302e312f77696e646f77732f676f312e342e32",
  "transactions": [
    {
      "hash": "0x04c8918be60473226e464cfc37fefebf8783a18ec581a874274bcbfe09cbff7b",
      "blockHash": "0x5e03e490bc4d82a14b741c7874a22b110d68091d5cdc2227795a69bff8176098",
      "blockNumber": 93744,
      "transactionIndex": 0,
      "confirmations": null,
      "from": "0xad7210d76107F888745616FFF7979623b84F928c",
      "gasPrice": {
        "_hex": "0xd7d40ace3"
      },
      "gasLimit": {
        "_hex": "0x61a8"
      },
      "to": "0xF109ca710C0Df51c1a86dBA1B0BA0Ed038114463",
      "value": {
        "_hex": "0xd02ab486cedc0000"
      },
      "nonce": 11,
      "data": "0x",
      "r": "0x38ae9eec627b8625e72507954c18d183e75d098fc743c39750b4ce6927a89f50",
      "s": "0x1f3c6d57b8e58be4963923ccc0bc24300449f5fc165f674a23e1db2d9a9ece92",
      "v": 28,
      "creates": null,
      "raw": "0xf86c0b850d7d40ace38261a894f109ca710c0df51c1a86dba1b0ba0ed03811446388d02ab486cedc0000801ca038ae9eec627b8625e72507954c18d183e75d098fc743c39750b4ce6927a89f50a01f3c6d57b8e58be4963923ccc0bc24300449f5fc165f674a23e1db2d9a9ece92",
      "networkId": 0,
      "chainId": 0
    }
  ]
}