{
  "hash": "0x7600a525d79f2b078204ba522aed89e6b806f1ba430f752662f24022d30d57e4",
  "parentHash": "0x3700cdd1fb3e183bb509f4e551a33c2b3c5c7c739b0b1281cb9e47bfa3aea58a",
  "number": 121743,
  "timestamp": 1440181808,
  "nonce": "0xd8a5abee19b98938",
  "difficulty": 4482064610384,
  "gasLimit": {
    "_hex": "0x2fefd8"
  },
  "gasUsed": {
    "_hex": "0x5208"
  },
  "miner": "0xe6A7a1d47ff21B6321162AEA7C6CB457D5476Bca",
  "extraData": "0xd783010002844765746887676f312e342e32856c696e7578",
  "transactions": [
    {
      "hash": "0xdb93b99c013ee1fef7b4362892ed7a096e241397e147825394d714904800367d",
      "blockHash": "0x7600a525d79f2b078204ba522aed89e6b806f1ba430f752662f24022d30d57e4",
      "blockNumber": 121743,
      "transactionIndex": 0,
      "confirmations": null,
      "from": "0x96AA9d72B4606B440Ef85352439AEC5Db106ddAD",
      "gasPrice": {
        "_hex": "0xba43b7400"
      },
      "gasLimit": {
        "_hex": "0x15f90"
      },
      "to": "0xb735BF53Abc79525A4f585A004A620d08cc66B27",
      "value": {
        "_hex": "0xde0b6b3a7640000"
      },
      "nonce": 0,
      "data": "0x",
      "r": "0x53ef7a23ba2f7d3e5c81a30c82097d0a5cd8fe8f13e197516ca1f698df1d2820",
      "s": "0x5d67e645735d4e38aace0e6d2a786b5bbf5b95053984185e35ed52b4c7ff9374",
      "v": 28,
      "creates": null,
      "raw": "0xf86d80850ba43b740083015f9094b735bf53abc79525a4f585a004a620d08cc66b27880de0b6b3a7640000801ca053ef7a23ba2f7d3e5c81a30c82097d0a5cd8fe8f13e197516ca1f698df1d2820a05d67e645735d4e38aace0e6d2a786b5bbf5b95053984185e35ed52b4c7ff9374",
      "networkId": 0,
      "chainId": 0
    }
  ]
}