{
  "hash": "0xf2d23a1bf58723c1820ca84b436c5ad553acfae001f2cf1c8708646c32565d68",
  "parentHash": "0x393e804c5bc680b3c389451e981655bd8070ecd8944efcf5d2b7438749342be9",
  "number": 51534,
  "timestamp": 1439006502,
  "nonce": "0xe9431352bd4face6",
  "difficulty": 1564268209141,
  "gasLimit": {
    "_hex": "0xbc2fd"
  },
  "gasUsed": {
    "_hex": "0x7a120"
  },
  "miner": "0xeFcD857C9235bDD977b33b263dBB0255F055AAD5",
  "extraData": "0x476574682f76312e302e312f77696e646f77732f676f312e342e32",
  "transactions": [
    {
      "hash": "0xd59c626ea55ce9abfc89c15e804f74769589ea2f3f6c7bb2e94f69ccb4460fed",
      "blockHash": "0xf2d23a1bf58723c1820ca84b436c5ad553acfae001f2cf1c8708646c32565d68",
      "blockNumber": 51534,
      "transactionIndex": 0,
      "confirmations": null,
      "from": "0xa261512125c57b597c5B0F9FA51Fdbe85cE65e37",
      "gasPrice": {
        "_hex": "0xda5e6f3b5"
      },
      "gasLimit": {
        "_hex": "0x7a120"
      },
      "to": "0x109C4f2CCc82C4d77Bde15F306707320294Aea3F",
      "value": {
        "_hex": "0xde0b6b3a7640000"
      },
      "nonce": 3,
      "data": "0x",
      "r": "0x487dbdd75a8e2e3d8825a12f32eb3dd7e9ad21b523b7139f72afd33f2b2469ab",
      "s": "0x66c2b3ea13828c7ac18ce66c22143331da093764f32eccc8734b29067f681c87",
      "v": 28,
      "creates": null,
      "raw": "0xf86d03850da5e6f3b58307a12094109c4f2ccc82c4d77bde15f306707320294aea3f880de0b6b3a7640000801ca0487dbdd75a8e2e3d8825a12f32eb3dd7e9ad21b523b7139f72afd33f2b2469aba066c2b3ea13828c7ac18ce66c22143331da093764f32eccc8734b29067f681c87",
      "networkId": 0,
      "chainId": 0
    }
  ]
}