{
  "hash": "0x5e5af0011bcc2d579b3e61468de0fa47976023f3e4f5644db115a25c7cfb6041",
  "parentHash": "0xa607767c413c7b26023c1b58996d4aa718af9bb87b71cbeff0ea5102f649e7aa",
  "number": 70049,
  "timestamp": 1439313976,
  "nonce": "0x76f92df48e7dd4d8",
  "difficulty": 2107503241280,
  "gasLimit": {
    "_hex": "0x2fefd8"
  },
  "gasUsed": {
    "_hex": "0x5208"
  },
  "miner": "0xd8bd2C0f1FF677215F8b235db85bd5e7f3fBD59D",
  "extraData": "0x",
  "transactions": [
    {
      "hash": "0x4501ec7928db24db087b048cd657a2e40588298690193df116e55bf1145850e7",
      "blockHash": "0x5e5af0011bcc2d579b3e61468de0fa47976023f3e4f5644db115a25c7cfb6041",
      "blockNumber": 70049,
      "transactionIndex": 0,
      "confirmations": null,
      "from": "0x76Ab87dd5a05aD839A4e2Fc8C85aa6Ba05641730",
      "gasPrice": {
        "_hex": "0xceb4d408a"
      },
      "gasLimit": {
        "_hex": "0x15f90"
      },
      "to": "0x7a3193C7532579275d8eD0e2e5680959B06c00F5",
      "value": {
        "_hex": "0x6c5db2a4d815dc0000"
      },
      "nonce": 0,
      "data": "0x",
      "r": "0x4aafe9410ef6508a423d781675e62aa1f9374a9bd93e9cbc80bfe86eb9cad306",
      "s": "0x4673ffbeb394d80de9d7a6766278d179a37728b83680d15f2a4f789822f94ed8",
      "v": 27,
      "creates": null,
      "raw": "0xf86e80850ceb4d408a83015f90947a3193c7532579275d8ed0e2e5680959b06c00f5896c5db2a4d815dc0000801ba04aafe9410ef6508a423d781675e62aa1f9374a9bd93e9cbc80bfe86eb9cad306a04673ffbeb394d80de9d7a6766278d179a37728b83680d15f2a4f789822f94ed8",
      "networkId": 0,
      "chainId": 0
    }
  ]
}