{
  "hash": "0x14ba916de83be8524d8bcbfeb96b12c5de0eb5a2421fb6923bb858fefef3fea0",
  "parentHash": "0x406449e1a5fab2ae3f283f3cf6f00692bc96fe5cbbaac347a261516599278e07",
  "number": 98922,
  "timestamp": 1439781286,
  "nonce": "0xbdaff6cc6f0cacf6",
  "difficulty": 3849791911198,
  "gasLimit": {
    "_hex": "0x2fefd8"
  },
  "gasUsed": {
    "_hex": "0x5208"
  },
  "miner": "0xf89583486CA3C0c21C34400638aBE4b53F993457",
  "extraData": "0x476574682f76312e302e312f6c696e75782f676f312e342e32",
  "transactions": [
    {
      "hash": "0x8d5b2215a07eff2716844a2180594aeccd9b8d251fc3bc995ba6769189f6c8d2",
      "blockHash": "0x14ba916de83be8524d8bcbfeb96b12c5de0eb5a2421fb6923bb858fefef3fea0",
      "blockNumber": 98922,
      "transactionIndex": 0,
      "confirmations": null,
      "from": "0x00C865a16eD3c930DD70B642507639D199C62180",
      "gasPrice": {
        "_hex": "0xd5ce27e18"
      },
      "gasLimit": {
        "_hex": "0x5208"
      },
      "to": "0x32Be343B94f860124dC4fEe278FDCBD38C102D88",
      "value": {
        "_hex": "0xf2d8351f23445000"
      },
      "nonce": 6,
      "data": "0x",
      "r": "0x0f43d56ba748ada0d141fe4ae13b061ec1ac1358a4b04a8366de0e7ff32de538",
      "s": "0x7dd1ce444b2115246c0d40c475beea744c262cce7bd2dad3a6aa779470d9fa3c",
      "v": 28,
      "creates": null,
      "raw": "0xf86c06850d5ce27e188252089432be343b94f860124dc4fee278fdcbd38c102d8888f2d8351f23445000801ca00f43d56ba748ada0d141fe4ae13b061ec1ac1358a4b04a8366de0e7ff32de538a07dd1ce444b2115246c0d40c475beea744c262cce7bd2dad3a6aa779470d9fa3c",
      "networkId": 0,
      "chainId": 0
    }
  ]
}