{
  "hash": "0xe87606ff925681837e2f8b0246a78d7bf9e11afd8b385b63af2989b8d40d5651",
  "parentHash": "0x20eac08e7cdfae6b84cc0717edc1a8c6843f9d73f7a4e327faafb11426ac8fcb",
  "number": 96657,
  "timestamp": 1439743753,
  "nonce": "0x81b283e7e14c130b",
  "difficulty": 3730531896573,
  "gasLimit": {
    "_hex": "0x2fefd8"
  },
  "gasUsed": {
    "_hex": "0x5208"
  },
  "miner": "0x9746c7e1ef2bd21FF3997fa467593a89cb852BD0",
  "extraData": "0x476574682f76312e302e312f77696e646f77732f676f312e342e32",
  "transactions": [
    {
      "hash": "0x71b62ecd360355a7b9d164efd5209f51f789d1d678db29406e4c75fea4af41be",
      "blockHash": "0xe87606ff925681837e2f8b0246a78d7bf9e11afd8b385b63af2989b8d40d5651",
      "blockNumber": 96657,
      "transactionIndex": 0,
      "confirmations": null,
      "from": "0x72c083BeadBdc227c5fb43881597E32e83C26056",
      "gasPrice": {
        "_hex": "0x10dc90d85e7"
      },
      "gasLimit": {
        "_hex": "0x15f90"
      },
      "to": "0x249502491a53b217181420Cc4A6dE23a720636CA",
      "value": {
        "_hex": "0x3635c9adc5dea00000"
      },
      "nonce": 10,
      "data": "0x",
      "r": "0x62158ae1a20b65b873abad7629d4825bdc0a18621dcdf5ed636444bc8f880ae1",
      "s": "0x0092f3d85af10a04d8a29911177e8fb9066c7fca6d47156d8c2ad222d2d0151a",
      "v": 27,
      "creates": null,
      "raw": "0xf86e0a86010dc90d85e783015f9094249502491a53b217181420cc4a6de23a720636ca893635c9adc5dea00000801ba062158ae1a20b65b873abad7629d4825bdc0a18621dcdf5ed636444bc8f880ae19f92f3d85af10a04d8a29911177e8fb9066c7fca6d47156d8c2ad222d2d0151a",
      "networkId": 0,
      "chainId": 0
    }
  ]
}