{
  "hash": "0x2ea7a4902de98b157ed196269399ed8c2f6c6468542af7ba77df21ea6ba22d17",
  "parentHash": "0x78d8fb0f4e272039668437f2738d1463d47a7aeb12f66b827e8b2a54a9ac847f",
  "number": 68929,
  "timestamp": 1439295839,
  "nonce": "0xb639c9f0b7201cff",
  "difficulty": 2027036674290,
  "gasLimit": {
    "_hex": "0x2fefd8"
  },
  "gasUsed": {
    "_hex": "0x4ce78"
  },
  "miner": "0xe6A7a1d47ff21B6321162AEA7C6CB457D5476Bca",
  "extraData": "0x476574682f76312e302e312d38326566323666362f6c696e75782f676f312e34",
  "transactions": [
    {
      "hash": "0x25b0bc44681a1302f3b78dbaaa5b70d600fefaf929e806c5c63e0d646b15d9a4",
      "blockHash": "0x2ea7a4902de98b157ed196269399ed8c2f6c6468542af7ba77df21ea6ba22d17",
      "blockNumber": 68929,
      "transactionIndex": 0,
      "confirmations": null,
      "from": "0xce0705860127E73fb642F1Bd4115f96346752D7c",
      "gasPrice": {
        "_hex": "0xba43b7400"
      },
      "gasLimit": {
        "_hex": "0x5208"
      },
      "to": "0x9A593400aF3a27ca1ab6cA85F2b74DF41FA30495",
      "value": {
        "_hex": "0x7c58ada8ff2000"
      },
      "nonce": 1,
      "data": "0x",
      "r": "0x34cd46189aa8fbc0d6536d6107309c74e675500367f3348e6f06c98445331e72",
      "s": "0x221f7685f1e13450ac329cf793f9cd29f479dbfda908fa90ef381fdf4f1c2195",
      "v": 27,
      "creates": null,
      "raw": "0xf86b01850ba43b7400825208949a593400af3a27ca1ab6ca85f2b74df41fa30495877c58ada8ff2000801ba034cd46189aa8fbc0d6536d6107309c74e675500367f3348e6f06c98445331e72a0221f7685f1e13450ac329cf793f9cd29f479dbfda908fa90ef381fdf4f1c2195",
      "networkId": 0,
      "chainId": 0
    },
    {
      "hash": "0xfb54c12a040741d7cebc31f297ea4f83689680a27a7bf40e186ce6118ab80d29",
      "blockHash": "0x2ea7a4902de98b157ed196269399ed8c2f6c6468542af7ba77df21ea6ba22d17",
      "blockNumber": 68929,
      "transactionIndex": 1,
      "confirmations": null,
      "from": "0x5019659169f51A0ddAdFF64b8cF67b7c58b5FF61",
      "gasPrice": {
        "_hex": "0xba43b7400"
      },
      "gasLimit": {
        "_hex": "0x5208"
      },
      "to": "0x9EcA285A95cB57109898D890C1ad3aE43842f23A",
      "value": {
        "_hex": "0x7c58ada8ff2000"
      },
      "nonce": 1,
      "data": "0x",
      "r": "0x9e1bc5aa39e1020389fecd855d65c3db096ad6eac906a94f461cb7b01283b3e8",
      "s": "0x3cb6fb5b4e83c933a3693833208ba9b3372678ca1c091e0ea7c2698c2ec9b9be",
      "v": 27,
      "creates": null,
      "raw": "0xf86b01850ba43b7400825208949eca285a95cb57109898d890c1ad3ae43842f23a877c58ada8ff2000801ba09e1bc5aa39e1020389fecd855d65c3db096ad6eac906a94f461cb7b01283b3e8a03cb6fb5b4e83c933a3693833208ba9b3372678ca1c091e0ea7c2698c2ec9b9be",
      "networkId": 0,
      "chainId": 0
    },
    {
      "hash": "0xf44be4f0b5d69d3b19d3fdefd40e9e933a451c27e87e1d1ac4daf78f241a74d0",
      "blockHash": "0x2ea7a4902de98b157ed196269399ed8c2f6c6468542af7ba77df21ea6ba22d17",
      "blockNumber": 68929,
      "transactionIndex": 2,
      "confirmations": null,
      "from": "0x7ccc540A0BeE62CDc3F7e2287d9abBa25Fe91384",
      "gasPrice": {
        "_hex": "0xba43b7400"
      },
      "gasLimit": {
        "_hex": "0x5208"
      },
      "to": "0x721899990adf4f0C13A343f57ae78870b4c2B8f3",
      "value": {
        "_hex": "0x7c58ada8ff2000"
      },
      "nonce": 1,
      "data": "0x",
      "r": "0x504aed0d8d834c7ac88c4a4b443e9165a936bbee4674f669e72e5a3025e8f371",
      "s": "0x0fd73dc1a3f69540b970a2d900f405784a6f84fb657c26c43c7ff7768a480789",
      "v": 27,
      "creates": null,
      "raw": "0xf86b01850ba43b740082520894721899990adf4f0c13a343f57ae78870b4c2b8f3877c58ada8ff2000801ba0504aed0d8d834c7ac88c4a4b443e9165a936bbee4674f669e72e5a3025e8f371a00fd73dc1a3f69540b970a2d900f405784a6f84fb657c26c43c7ff7768a480789",
      "networkId": 0,
      "chainId": 0
    },
    {
      "hash": "0x824bccea409c640b761a4f3106c93ba8b89f2bdf9b5c1172ceae40c771b47d89",
      "blockHash": "0x2ea7a4902de98b157ed196269399ed8c2f6c6468542af7ba77df21ea6ba22d17",
      "blockNumber": 68929,
      "transactionIndex": 3,
      "confirmations": null,
      "from": "0x126D4cE48Ca26452a713A383bBbD5B53dE1e8308",
      "gasPrice": {
        "_hex": "0xba43b7400"
      },
      "gasLimit": {
        "_hex": "0x5208"
      },
      "to": "0x19836C055A12C1CaE9302eb985b5B5b65C3539Ce",
      "value": {
        "_hex": "0x7c58ada8ff2000"
      },
      "nonce": 1,
      "data": "0x",
      "r": "0x181948b25a5166e5bc9d18e05cb0ce9c941231866b7fb07c9b13bf9f13eebe12",
      "s": "0x6e0c9341ddb81caaeea14f5d08646736ee8937d0352579ca76bf03aae23aee87",
      "v": 28,
      "creates": null,
      "raw": "0xf86b01850ba43b74008252089419836c055a12c1cae9302eb985b5b5b65c3539ce877c58ada8ff2000801ca0181948b25a5166e5bc9d18e05cb0ce9c941231866b7fb07c9b13bf9f13eebe12a06e0c9341ddb81caaeea14f5d08646736ee8937d0352579ca76bf03aae23aee87",
      "networkId": 0,
      "chainId": 0
    },
    {
      "hash": "0xf8d64e1c370334d59980d675b672f9878e3383dba59609a03b6d11009ace5dac",
      "blockHash": "0x2ea7a4902de98b157ed196269399ed8c2f6c6468542af7ba77df21ea6ba22d17",
      "blockNumber": 68929,
      "transactionIndex": 4,
      "confirmations": null,
      "from": "0x0bFDa887DB1494237eB819085C0f8eF22eA9e29a",
      "gasPrice": {
        "_hex": "0xba43b7400"
      },
      "gasLimit": {
        "_hex": "0x5208"
      },
      "to": "0x0dC101c040B2ba74cbDB8c6073670699d89aC815",
      "value": {
        "_hex": "0x7c58ada8ff2000"
      },
      "nonce": 1,
      "data": "0x",
      "r": "0x560740d8f22acf61282ade1ca29282ab5db1014681600e27c0c50eaa1771156e",
      "s": "0x17bc0b4f8cf3bdf5b4bf9e3595577f47cfd374d010c402eeefeae3fdd552351f",
      "v": 27,
      "creates": null,
      "raw": "0xf86b01850ba43b7400825208940dc101c040b2ba74cbdb8c6073670699d89ac815877c58ada8ff2000801ba0560740d8f22acf61282ade1ca29282ab5db1014681600e27c0c50eaa1771156ea017bc0b4f8cf3bdf5b4bf9e3595577f47cfd374d010c402eeefeae3fdd552351f",
      "networkId": 0,
      "chainId": 0
    },
    {
      "hash": "0xe031e0eadc0f9e37900e2db014de156f49ea54784690a681b52bb53081a99cf2",
      "blockHash": "0x2ea7a4902de98b157ed196269399ed8c2f6c6468542af7ba77df21ea6ba22d17",
      "blockNumber": 68929,
      "transactionIndex": 5,
      "confirmations": null,
      "from": "0x2659A3BAc0b38D8cb700F8b01414EE14842791B4",
      "gasPrice": {
        "_hex": "0xba43b7400"
      },
      "gasLimit": {
        "_hex": "0x5208"
      },
      "to": "0x2E07b02b8EA15059a91Bc19283Ab22eD90292a13",
      "value": {
        "_hex": "0x7c58ada8ff2000"
      },
      "nonce": 1,
      "data": "0x",
      "r": "0xefa7f4cfd3d000efffcac1ca9fbb90f9e7be279308ce17549cc2fb48bce93ac2",
      "s": "0x08b6f73e726e152dc81962cb405f75dcd28fb3c5adca6b6296f2f68d7c929079",
      "v": 27,
      "creates": null,
      "raw": "0xf86b01850ba43b7400825208942e07b02b8ea15059a91bc19283ab22ed90292a13877c58ada8ff2000801ba0efa7f4cfd3d000efffcac1ca9fbb90f9e7be279308ce17549cc2fb48bce93ac2a008b6f73e726e152dc81962cb405f75dcd28fb3c5adca6b6296f2f68d7c929079",
      "networkId": 0,
      "chainId": 0
    },
    {
      "hash": "0x8e83e0ec3290aab0b3ff2e3507b8505aa9e33f4d482b6b1673a4063fea69fbb0",
      "blockHash": "0x2ea7a4902de98b157ed196269399ed8c2f6c6468542af7ba77df21ea6ba22d17",
      "blockNumber": 68929,
      "transactionIndex": 6,
      "confirmations": null,
      "from": "0x8E9de6697Ed209a67491fEEb82C2C79B20E9Ef99",
      "gasPrice": {
        "_hex": "0xba43b7400"
      },
      "gasLimit": {
        "_hex": "0x5208"
      },
      "to": "0x7033cd5Bc5448aFA347019f3C75076fB40ED1E68",
      "value": {
        "_hex": "0x7c58ada8ff2000"
      },
      "nonce": 1,
      "data": "0x",
      "r": "0x1e386b448a88673dc0df28eead516a94720e38ca685d561e50f6a74f7a4d5ba3",
      "s": "0x29fb87cbed84d2e8eb5d40ddd5bc7fbf3f1d655b5cf4ee83c4bf5500216c3762",
      "v": 27,
      "creates": null,
      "raw": "0xf86b01850ba43b7400825208947033cd5bc5448afa347019f3c75076fb40ed1e68877c58ada8ff2000801ba01e386b448a88673dc0df28eead516a94720e38ca685d561e50f6a74f7a4d5ba3a029fb87cbed84d2e8eb5d40ddd5bc7fbf3f1d655b5cf4ee83c4bf5500216c3762",
      "networkId": 0,
      "chainId": 0
    },
    {
      "hash": "0xb6b5a25ecd305272cbfe5d7db1f836ceed2bd43cca4a2ccec4cd5486030da4ee",
      "blockHash": "0x2ea7a4902de98b157ed196269399ed8c2f6c6468542af7ba77df21ea6ba22d17",
      "blockNumber": 68929,
      "transactionIndex": 7,
      "confirmations": null,
      "from": "0x54D075d10A62ADFaF2Cff56bF9832eF210a4c439",
      "gasPrice": {
        "_hex": "0xba43b7400"
      },
      "gasLimit": {
        "_hex": "0x5208"
      },
      "to": "0x26a2043F32888a64cddc35ab2BB73A7D86EF44Bb",
      "value": {
        "_hex": "0x7c58ada8ff2000"
      },
      "nonce": 1,
      "data": "0x",
      "r": "0x9321a9540da8e5c470b02ed1dd61f383fd12f71c67bc811d19ed73fe9387f8d1",
      "s": "0x333987bce04e51f0c497d7793a6e001f31346a8c50f935d911af08056fd9dffc",
      "v": 28,
      "creates": null,
      "raw": "0xf86b01850ba43b74008252089426a2043f32888a64cddc35ab2bb73a7d86ef44bb877c58ada8ff2000801ca09321a9540da8e5c470b02ed1dd61f383fd12f71c67bc811d19ed73fe9387f8d1a0333987bce04e51f0c497d7793a6e001f31346a8c50f935d911af08056fd9dffc",
      "networkId": 0,
      "chainId": 0
    },
    {
      "hash": "0xaa9adc23bb7e754d38e3086a4462ecd8fafe0425bfd9abf20f59a8d57c1f3935",
      "blockHash": "0x2ea7a4902de98b157ed196269399ed8c2f6c6468542af7ba77df21ea6ba22d17",
      "blockNumber": 68929,
      "transactionIndex": 8,
      "confirmations": null,
      "from": "0xdDe5944572E8ff84dD2E448b114Eb9055796cB45",
      "gasPrice": {
        "_hex": "0xba43b7400"
      },
      "gasLimit": {
        "_hex": "0x5208"
      },
      "to": "0xd98762D9101B563597F46c329951C270a8aD2689",
      "value": {
        "_hex": "0x7c58ada8ff2000"
      },
      "nonce": 1,
      "data": "0x",
      "r": "0xaa212ff9b4143de460f22fe8347d8fda4531dbf5fdf9de9890c2d26a9a1d4311",
      "s": "0x3f8a25edad7e49ec47adb74a069e6a98f39c306c2de9c6d8e32d5c562a987b1c",
      "v": 27,
      "creates": null,
      "raw": "0xf86b01850ba43b740082520894d98762d9101b563597f46c329951c270a8ad2689877c58ada8ff2000801ba0aa212ff9b4143de460f22fe8347d8fda4531dbf5fdf9de9890c2d26a9a1d4311a03f8a25edad7e49ec47adb74a069e6a98f39c306c2de9c6d8e32d5c562a987b1c",
      "networkId": 0,
      "chainId": 0
    },
    {
      "hash": "0x81e8470bbde62b1f335a2bbe0af00ad81968f31aefa488bdf27d0846b7bcbce2",
      "blockHash": "0x2ea7a4902de98b157ed196269399ed8c2f6c6468542af7ba77df21ea6ba22d17",
      "blockNumber": 68929,
      "transactionIndex": 9,
      "confirmations": null,
      "from": "0x93202ba568504ec7363D17958cB914b129b9bC89",
      "gasPrice": {
        "_hex": "0xba43b7400"
      },
      "gasLimit": {
        "_hex": "0x5208"
      },
      "to": "0xae7A9a044f6120c78fD50a1CE512Ab9770b54884",
      "value": {
        "_hex": "0x7c58ada8ff2000"
      },
      "nonce": 1,
      "data": "0x",
      "r": "0x62df22199d2d8ca8c8919c56d7e7ae6490b348157b5bd3ad21243f3c28b4ceaf",
      "s": "0x3f925c0a452e3ef059703255351e47474ac35f0cbc243d77676391b6e65ff1c6",
      "v": 28,
      "creates": null,
      "raw": "0xf86b01850ba43b740082520894ae7a9a044f6120c78fd50a1ce512ab9770b54884877c58ada8ff2000801ca062df22199d2d8ca8c8919c56d7e7ae6490b348157b5bd3ad21243f3c28b4ceafa03f925c0a452e3ef059703255351e47474ac35f0cbc243d77676391b6e65ff1c6",
      "networkId": 0,
      "chainId": 0
    },
    {
      "hash": "0xc360669e11dee86417db243eaa85bcfb21d7fbcb4edbf5831cf45bf28693342f",
      "blockHash": "0x2ea7a4902de98b157ed196269399ed8c2f6c6468542af7ba77df21ea6ba22d17",
      "blockNumber": 68929,
      "transactionIndex": 10,
      "confirmations": null,
      "from": "0x1aBC599B761AEfbB390AD0AE7162b8AA3Cb25e75",
      "gasPrice": {
        "_hex": "0xba43b7400"
      },
      "gasLimit": {
        "_hex": "0x5208"
      },
      "to": "0x2ec21EE2deDea3b4CDDC4805B6e57B6712B49014",
      "value": {
        "_hex": "0x7c58ada8ff2000"
      },
      "nonce": 1,
      "data": "0x",
      "r": "0x6fe9d1ba85daca8d21011b2ee99aba99174f5d67afc655599a44aed4555d1998",
      "s": "0x663cfc1ab834bd8a23753fd5f57857cff2c86e7c03d26a00e36467a992ee2e76",
      "v": 27,
      "creates": null,
      "raw": "0xf86b01850ba43b7400825208942ec21ee2dedea3b4cddc4805b6e57b6712b49014877c58ada8ff2000801ba06fe9d1ba85daca8d21011b2ee99aba99174f5d67afc655599a44aed4555d1998a0663cfc1ab834bd8a23753fd5f57857cff2c86e7c03d26a00e36467a992ee2e76",
      "networkId": 0,
      "chainId": 0
    },
    {
      "hash": "0xee3ed1350251622909441f317140dc8bec04fd579461a8a0ef108717c5653304",
      "blockHash": "0x2ea7a4902de98b157ed196269399ed8c2f6c6468542af7ba77df21ea6ba22d17",
      "blockNumber": 68929,
      "transactionIndex": 11,
      "confirmations": null,
      "from": "0xad8fDC9eaC427163B759239428B98b964A57b493",
      "gasPrice": {
        "_hex": "0xba43b7400"
      },
      "gasLimit": {
        "_hex": "0x5208"
      },
      "to": "0x2c7dC901f87626efef1f2aDa6C850Ae40d75d0c6",
      "value": {
        "_hex": "0x7c58ada8ff2000"
      },
      "nonce": 1,
      "data": "0x",
      "r": "0x6ecfd872ea718b9efaf5f24b3341d91e50cffe2795b22adf93516a06f7b9bc4b",
      "s": "0x360b2f2939378ed24ca18d7eef93061776b28e84de11deabe793d0e2a03806c0",
      "v": 28,
      "creates": null,
      "raw": "0xf86b01850ba43b7400825208942c7dc901f87626efef1f2ada6c850ae40d75d0c6877c58ada8ff2000801ca06ecfd872ea718b9efaf5f24b3341d91e50cffe2795b22adf93516a06f7b9bc4ba0360b2f2939378ed24ca18d7eef93061776b28e84de11deabe793d0e2a03806c0",
      "networkId": 0,
      "chainId": 0
    },
    {
      "hash": "0xed896546b3ace3d00e8be215c1f561795dd35662c3ce2379ed8aa2b84113e7da",
      "blockHash": "0x2ea7a4902de98b157ed196269399ed8c2f6c6468542af7ba77df21ea6ba22d17",
      "blockNumber": 68929,
      "transactionIndex": 12,
      "confirmations": null,
      "from": "0xf4bECE5B8D18E276DFF7BfE32E9AE42761ea6ce3",
      "gasPrice": {
        "_hex": "0xba43b7400"
      },
      "gasLimit": {
        "_hex": "0x5208"
      },
      "to": "0xF9Ae35582A2193c5408FEEba882A02d32048B74d",
      "value": {
        "_hex": "0x7c58ada8ff2000"
      },
      "nonce": 1,
      "data": "0x",
      "r": "0x5f504749bd0649f93fe6c241c09148879a6289cbdaec1b65351bbde1d9719b7a",
      "s": "0x13774f4e66ef0d29abde9bd7c9c094b4f0f2b9f3c7b1515d383514987260bfc1",
      "v": 28,
      "creates": null,
      "raw": "0xf86b01850ba43b740082520894f9ae35582a2193c5408feeba882a02d32048b74d877c58ada8ff2000801ca05f504749bd0649f93fe6c241c09148879a6289cbdaec1b65351bbde1d9719b7aa013774f4e66ef0d29abde9bd7c9c094b4f0f2b9f3c7b1515d383514987260bfc1",
      "networkId": 0,
      "chainId": 0
    },
    {
      "hash": "0x02e7455a355a80dd908d685d8afdcc6e1754c171cc4a642b5aada40b6a4fa14c",
      "blockHash": "0x2ea7a4902de98b157ed196269399ed8c2f6c6468542af7ba77df21ea6ba22d17",
      "blockNumber": 68929,
      "transactionIndex": 13,
      "confirmations": null,
      "from": "0xed5fD31F0a37eb87110653485e9a083968a1d440",
      "gasPrice": {
        "_hex": "0xba43b7400"
      },
      "gasLimit": {
        "_hex": "0x5208"
      },
      "to": "0x5867D79701CDA27A3bc0Db5c25b33F7dB150d1bf",
      "value": {
        "_hex": "0x7c58ada8ff2000"
      },
      "nonce": 1,
      "data": "0x",
      "r": "0xea53caace91481dd7974651cbb2f79b8e9e8699ff2ad970e2bd6ff2061ae4311",
      "s": "0x1660c9b04cca7b28d87e6a8dcfd63f82570bf9df5031e79292a9f7dc398eb2a0",
      "v": 28,
      "creates": null,
      "raw": "0xf86b01850ba43b7400825208945867d79701cda27a3bc0db5c25b33f7db150d1bf877c58ada8ff2000801ca0ea53caace91481dd7974651cbb2f79b8e9e8699ff2ad970e2bd6ff2061ae4311a01660c9b04cca7b28d87e6a8dcfd63f82570bf9df5031e79292a9f7dc398eb2a0",
      "networkId": 0,
      "chainId": 0
    },
    {
      "hash": "0x57411686d103dc3e91f7813c76a40c141d515c7be9932451066fb758e37afa75",
      "blockHash": "0x2ea7a4902de98b157ed196269399ed8c2f6c6468542af7ba77df21ea6ba22d17",
      "blockNumber": 68929,
      "transactionIndex": 14,
      "confirmations": null,
      "from": "0x3a20475110dFB82fa5b765d151Bbe7712D9cA3D8",
      "gasPrice": {
        "_hex": "0xba43b7400"
      },
      "gasLimit": {
        "_hex": "0x5208"
      },
      "to": "0xeC6A6BD0df7186D3c2FCE7c46264b0b9B2e5E1E5",
      "value": {
        "_hex": "0x7c58ada8ff2000"
      },
      "nonce": 1,
      "data": "0x",
      "r": "0x0d39dc05e61f561527bf4314fa6ab1c8f7977a564ec135cac6b2c91b9ded454c",
      "s": "0x1e1fd30ffc4e7858e46ac42301b7a80522c65b3d31e4fb5876be01faca163f54",
      "v": 28,
      "creates": null,
      "raw": "0xf86b01850ba43b740082520894ec6a6bd0df7186d3c2fce7c46264b0b9b2e5e1e5877c58ada8ff2000801ca00d39dc05e61f561527bf4314fa6ab1c8f7977a564ec135cac6b2c91b9ded454ca01e1fd30ffc4e7858e46ac42301b7a80522c65b3d31e4fb5876be01faca163f54",
      "networkId": 0,
      "chainId": 0
    }
  ]
}