{
  "hash": "0xc39c42dbbcb8e9aac0caf626f9dcfba296dd188c4bf6b8662aac5ba807a73fbb",
  "parentHash": "0xe6b786e0fd872163398652e1a97fd29163e17b7dc6f42be0dc7d342c3ae90a83",
  "number": 111499,
  "timestamp": 1439991165,
  "nonce": "0xec4dae13907e6179",
  "difficulty": 4452619035182,
  "gasLimit": {
    "_hex": "0x2fefd8"
  },
  "gasUsed": {
    "_hex": "0x5208"
  },
  "miner": "0xe6A7a1d47ff21B6321162AEA7C6CB457D5476Bca",
  "extraData": "0x476574682f76312e302e312d38326566323666362f6c696e75782f676f312e34",
  "transactions": [
    {
      "hash": "0x4c454c4e8e121cfc45d80413de6299b45a2e836498bd2e1cbae83719ff628741",
      "blockHash": "0xc39c42dbbcb8e9aac0caf626f9dcfba296dd188c4bf6b8662aac5ba807a73fbb",
      "blockNumber": 111499,
      "transactionIndex": 0,
      "confirmations": null,
      "from": "0x2910543Af39abA0Cd09dBb2D50200b3E800A63D2",
      "gasPrice": {
        "_hex": "0xd2a2dc54c"
      },
      "gasLimit": {
        "_hex": "0x5208"
      },
      "to": "0x65553f5e8FA2eDfCe37Aec51A90ed28777dDe402",
      "value": {
        "_hex": "0x9a42db57b2128000"
      },
      "nonce": 1095,
      "data": "0x",
      "r": "0x8513b33506f79d204c170526f73f25bbfba798633bd95f81f2e4ddc0ecf1fd2c",
      "s": "0x39b2c859425df73d84edb0bd4d94e1901eaf7559eb76a3ac9def706e0c1ae252",
      "v": 27,
      "creates": null,
      "raw": "0xf86e820447850d2a2dc54c8252089465553f5e8fa2edfce37aec51a90ed28777dde402889a42db57b2128000801ba08513b33506f79d204c170526f73f25bbfba798633bd95f81f2e4ddc0ecf1fd2ca039b2c859425df73d84edb0bd4d94e1901eaf7559eb76a3ac9def706e0c1ae252",
      "networkId": 0,
      "chainId": 0
    }
  ]
}