{
  "hash": "0x154af16c984af87960a1ba54532f3093ab6b24ea41a1867bd01fa99aaab0ddfc",
  "parentHash": "0x009f5194c3bd1781792e2079d5ce28769cba708b1a73b5de2906d7da01db45d2",
  "number": 57027,
  "timestamp": 1439096276,
  "nonce": "0x888f77cab8de50bd",
  "difficulty": 1709359562927,
  "gasLimit": {
    "_hex": "0x2fefd8"
  },
  "gasUsed": {
    "_hex": "0x5208"
  },
  "miner": "0xf927a40C8B7F6E07c5af7FA2155B4864a4112B13",
  "extraData": "0x",
  "transactions": [
    {
      "hash": "0xa43be5bc42bcb2fc271f2e8266a5c4f360a136aaf3548cc431d50d50c2edb94e",
      "blockHash": "0x154af16c984af87960a1ba54532f3093ab6b24ea41a1867bd01fa99aaab0ddfc",
      "blockNumber": 57027,
      "transactionIndex": 0,
      "confirmations": null,
      "from": "0x120A270bbC009644e35F0bB6ab13f95b8199c4ad",
      "gasPrice": {
        "_hex": "0xcc221c9f7"
      },
      "gasLimit": {
        "_hex": "0x15f90"
      },
      "to": "0x02017Ae4e03d3eB7322e0Fcd8738CA20AFDE53e4",
      "value": {
        "_hex": "0x1bf0e6e30aeed2800"
      },
      "nonce": 35,
      "data": "0x",
      "r": "0x9d182d3c7a85f0ba2653c0365b9b89f3ca949c0e3f98ca76708036cdea30481b",
      "s": "0x2f6d320e247c517019a30e5343616d9a5e872becf7777a5b9418774e5d793523",
      "v": 27,
      "creates": null,
      "raw": "0xf86e23850cc221c9f783015f909402017ae4e03d3eb7322e0fcd8738ca20afde53e48901bf0e6e30aeed2800801ba09d182d3c7a85f0ba2653c0365b9b89f3ca949c0e3f98ca76708036cdea30481ba02f6d320e247c517019a30e5343616d9a5e872becf7777a5b9418774e5d793523",
      "networkId": 0,
      "chainId": 0
    }
  ]
}