{
  "hash": "0x83b47bc5b9a91d8d56b79342dde9399a90dfd902dea2e2eaf350535ea80aeb13",
  "parentHash": "0xabb4fe85ad94e4d453857ef6525097250bb9ed6855a53247aadd680b78979f52",
  "number": 93356,
  "timestamp": 1439688766,
  "nonce": "0xe60ca8265170343d",
  "difficulty": 3514459467101,
  "gasLimit": {
    "_hex": "0x2fefd8"
  },
  "gasUsed": {
    "_hex": "0x5208"
  },
  "miner": "0xC603Ab5ef41fC61AA8b76bEddb09e3Cfcbb174BD",
  "extraData": "0x476574682f76312e302e312f77696e646f77732f676f312e342e32",
  "transactions": [
    {
      "hash": "0xed253297050b472acde4b3e130d83085443b86127828090cdfe56fb33d5b14f5",
      "blockHash": "0x83b47bc5b9a91d8d56b79342dde9399a90dfd902dea2e2eaf350535ea80aeb13",
      "blockNumber": 93356,
      "transactionIndex": 0,
      "confirmations": null,
      "from": "0x2AeDF47e935C75601e9D779453F1a5F8c616bd6E",
      "gasPrice": {
        "_hex": "0xdcce18dbf"
      },
      "gasLimit": {
        "_hex": "0x5208"
      },
      "to": "0xeDb63085aAC5CF2eDbc0C9AD9c274076201da37E",
      "value": {
        "_hex": "0x3e73362871420000"
      },
      "nonce": 3,
      "data": "0x",
      "r": "0xc94c0e6cf2364340439b36da9245ed01c1876cc5158a7587ea4d6bc55275a695",
      "s": "0x48388964bcc67df7c84768fa539316961e38523c9eddfa6b5a4ce178bd73f239",
      "v": 28,
      "creates": null,
      "raw": "0xf86c03850dcce18dbf82520894edb63085aac5cf2edbc0c9ad9c274076201da37e883e73362871420000801ca0c94c0e6cf2364340439b36da9245ed01c1876cc5158a7587ea4d6bc55275a695a048388964bcc67df7c84768fa539316961e38523c9eddfa6b5a4ce178bd73f239",
      "networkId": 0,
      "chainId": 0
    }
  ]
}