{
  "hash": "0xf3048aec58824c8e1c4f036d5a5b74dfa2d2c022226a679e1a2073fa8fe67ae1",
  "parentHash": "0x6fa94a5f7fc769db6927ad0fddae6e95d41b7bac763207fd498d7f280b0662a1",
  "number": 47347,
  "timestamp": 1438938709,
  "nonce": "0xc7c2c1eb47604a70",
  "difficulty": 1450971955897,
  "gasLimit": {
    "_hex": "0xb2af"
  },
  "gasUsed": {
    "_hex": "0xa410"
  },
  "miner": "0xfC97c2C87E3Cc03BeB5fA2fACaa10bbd0D0dA1AF",
  "extraData": "0x476574682f76312e302e312d38326566323666362f6c696e75782f676f312e34",
  "transactions": [
    {
      "hash": "0xe9019040922c16600e070f4581fa8cdf47582ca09d7143bf3877f002f792c4be",
      "blockHash": "0xf3048aec58824c8e1c4f036d5a5b74dfa2d2c022226a679e1a2073fa8fe67ae1",
      "blockNumber": 47347,
      "transactionIndex": 0,
      "confirmations": null,
      "from": "0xe6A7a1d47ff21B6321162AEA7C6CB457D5476Bca",
      "gasPrice": {
        "_hex": "0x142d110e6f"
      },
      "gasLimit": {
        "_hex": "0x5208"
      },
      "to": "0xc025C61bcD76756e641473ae92c630F9b2585EeA",
      "value": {
        "_hex": "0xe3bf4c78d3577740"
      },
      "nonce": 118,
      "data": "0x",
      "r": "0xf0dbe6cb0e207ef38242a1223dfcc18c766b99eb15fd41d03e298a61a2514fa6",
      "s": "0x2a1265e311d4bf665c3456daa3863da87dae88bcea1ec3ee8d3fd946ffda5b60",
      "v": 28,
      "creates": null,
      "raw": "0xf86c7685142d110e6f82520894c025c61bcd76756e641473ae92c630f9b2585eea88e3bf4c78d3577740801ca0f0dbe6cb0e207ef38242a1223dfcc18c766b99eb15fd41d03e298a61a2514fa6a02a1265e311d4bf665c3456daa3863da87dae88bcea1ec3ee8d3fd946ffda5b60",
      "networkId": 0,
      "chainId": 0
    },
    {
      "hash": "0x4ca67998f0486c7d01b49a3da048c4af1fca9027e89eaf1ebb9d397f0c538c71",
      "blockHash": "0xf3048aec58824c8e1c4f036d5a5b74dfa2d2c022226a679e1a2073fa8fe67ae1",
      "blockNumber": 47347,
      "transactionIndex": 1,
      "confirmations": null,
      "from": "0xCE065c26F7b3db00C8b234edd5EF8254F9349a68",
      "gasPrice": {
        "_hex": "0x10ad61a7ca"
      },
      "gasLimit": {
        "_hex": "0x5208"
      },
      "to": "0xD678C8d3430cbE0d7a6F36487f3Cb6E5f27e4CA6",
      "value": {
        "_hex": "0x8ac7230489e80000"
      },
      "nonce": 0,
      "data": "0x",
      "r": "0x2c1d4b786a0f37c65b920e41711bac5d9ae98e8bf93ae6d36f3ce7be52bae101",
      "s": "0x642d02116401b088d6bce53ef5be1316c4735fb769d7e5c7583c6b218b65da85",
      "v": 27,
      "creates": null,
      "raw": "0xf86c808510ad61a7ca82520894d678c8d3430cbe0d7a6f36487f3cb6e5f27e4ca6888ac7230489e80000801ba02c1d4b786a0f37c65b920e41711bac5d9ae98e8bf93ae6d36f3ce7be52bae101a0642d02116401b088d6bce53ef5be1316c4735fb769d7e5c7583c6b218b65da85",
      "networkId": 0,
      "chainId": 0
    }
  ]
}