{
  "hash": "0x8f00f3aea948b417e83aed0eb7ed1aff62e75411913c4fcfad9c07875f4f8276",
  "parentHash": "0x6abf5141f2907a883f2078b3452ce881dd0e1183467fcb75fafd5b550ae7e6d4",
  "number": 120977,
  "timestamp": 1440169405,
  "nonce": "0x2cc914623642f70c",
  "difficulty": 4408672136630,
  "gasLimit": {
    "_hex": "0x2fefd8"
  },
  "gasUsed": {
    "_hex": "0xf618"
  },
  "miner": "0x70137010922f2fC2964b3792907F79FBB75fEbe8",
  "extraData": "0xd783010003844765746887676f312e342e32856c696e7578",
  "transactions": [
    {
      "hash": "0xe50a40774317e796454c02b9d10298f748fb1427a93c693caf5db50e8d7d2dbe",
      "blockHash": "0x8f00f3aea948b417e83aed0eb7ed1aff62e75411913c4fcfad9c07875f4f8276",
      "blockNumber": 120977,
      "transactionIndex": 0,
      "confirmations": null,
      "from": "0x608f4b86321a68453f9adf6F06F7Fc3E621739ad",
      "gasPrice": {
        "_hex": "0xba43b7400"
      },
      "gasLimit": {
        "_hex": "0x5208"
      },
      "to": "0x32Be343B94f860124dC4fEe278FDCBD38C102D88",
      "value": {
        "_hex": "0x8cf2d721d61ce000"
      },
      "nonce": 88,
      "data": "0x",
      "r": "0x4f0249bf29cc3de8cc7ac62d650044c796e5d26eeaeef65d1d22d2aa28be6473",
      "s": "0x692f79c28f53d30946bb741551895696748f7420f66d9a4b9338da213542a5ea",
      "v": 27,
      "creates": null,
      "raw": "0xf86c58850ba43b74008252089432be343b94f860124dc4fee278fdcbd38c102d88888cf2d721d61ce000801ba04f0249bf29cc3de8cc7ac62d650044c796e5d26eeaeef65d1d22d2aa28be6473a0692f79c28f53d30946bb741551895696748f7420f66d9a4b9338da213542a5ea",
      "networkId": 0,
      "chainId": 0
    },
    {
      "hash": "0x6bc71461e267b4daef0d5bb6b5a3b383d68e37cf643a85de2b8f26a377a225ef",
      "blockHash": "0x8f00f3aea948b417e83aed0eb7ed1aff62e75411913c4fcfad9c07875f4f8276",
      "blockNumber": 120977,
      "transactionIndex": 1,
      "confirmations": null,
      "from": "0x13aE5B35f82651Ff327d41502F0Aa90DA76D777E",
      "gasPrice": {
        "_hex": "0xba43b7400"
      },
      "gasLimit": {
        "_hex": "0x5208"
      },
      "to": "0x32Be343B94f860124dC4fEe278FDCBD38C102D88",
      "value": {
        "_hex": "0x455fd68a17f06000"
      },
      "nonce": 10,
      "data": "0x",
      "r": "0x99fe78edef9dfebfc26f8ebc52b2e9c093a8773bb5600543b76ccfe92174113d",
      "s": "0x44809c72fc1f6464b22a179dbaf5a6a0a990b953386e55b2bad162de228ee7f5",
      "v": 28,
      "creates": null,
      "raw": "0xf86c0a850ba43b74008252089432be343b94f860124dc4fee278fdcbd38c102d8888455fd68a17f06000801ca099fe78edef9dfebfc26f8ebc52b2e9c093a8773bb5600543b76ccfe92174113da044809c72fc1f6464b22a179dbaf5a6a0a990b953386e55b2bad162de228ee7f5",
      "networkId": 0,
      "chainId": 0
    },
    {
      "hash": "0x56c9cecd505b71e1f814a64140ff4b6333853d043f4339cf2ee353030848f4da",
      "blockHash": "0x8f00f3aea948b417e83aed0eb7ed1aff62e75411913c4fcfad9c07875f4f8276",
      "blockNumber": 120977,
      "transactionIndex": 2,
      "confirmations": null,
      "from": "0xC6c676946C54B5e7c31A07a079166C488Bf06dd7",
      "gasPrice": {
        "_hex": "0xba43b7400"
      },
      "gasLimit": {
        "_hex": "0x5208"
      },
      "to": "0x32Be343B94f860124dC4fEe278FDCBD38C102D88",
      "value": {
        "_hex": "0x4e0fc8030ac248000"
      },
      "nonce": 8,
      "data": "0x",
      "r": "0x8a4c33af645958b2dcaf1fcf496d956fd2dd053c0bd388844e65e9f0874bd892",
      "s": "0x2988e70c5c1d8d05c015090dc21601bc2177f532adcf38b70101b1a05ffd301b",
      "v": 27,
      "creates": null,
      "raw": "0xf86d08850ba43b74008252089432be343b94f860124dc4fee278fdcbd38c102d888904e0fc8030ac248000801ba08a4c33af645958b2dcaf1fcf496d956fd2dd053c0bd388844e65e9f0874bd892a02988e70c5c1d8d05c015090dc21601bc2177f532adcf38b70101b1a05ffd301b",
      "networkId": 0,
      "chainId": 0
    }
  ]
}