{
  "hash": "0x6e1320f7cd5a4578823c2c79f0f4d5f8b610f56f75c3910811f5beca90a108ac",
  "parentHash": "0xb9f0265d81dac6449ac187569fa16bfb80db29a106d85ce0eef6a1c00e1ccd67",
  "number": 85373,
  "timestamp": 1439562618,
  "nonce": "0x18243c155b954d14",
  "difficulty": 2735659441116,
  "gasLimit": {
    "_hex": "0x2fefd8"
  },
  "gasUsed": {
    "_hex": "0xa410"
  },
  "miner": "0xa6BDc31c431B8F97848c9D60cbbe9660dc450eB7",
  "extraData": "0x",
  "transactions": [
    {
      "hash": "0xf3e903f574c98e75a1331974329251ef2115c3b4a2f99b281a8ea6111c24db55",
      "blockHash": "0x6e1320f7cd5a4578823c2c79f0f4d5f8b610f56f75c3910811f5beca90a108ac",
      "blockNumber": 85373,
      "transactionIndex": 0,
      "confirmations": null,
      "from": "0x449AC4Fbe383e36738855E364a57f471b2BFa131",
      "gasPrice": {
        "_hex": "0xd4db070e2"
      },
      "gasLimit": {
        "_hex": "0x15f90"
      },
      "to": "0xC624b0Cd3307f6CFFC473f5019FA380E6811ee58",
      "value": {
        "_hex": "0x54b40b1f852bda00000"
      },
      "nonce": 6,
      "data": "0x",
      "r": "0x9a7c3d0907847e3f1a15c4a3e8d1aa0192232f0d84a6417150ee4a95bdf8a464",
      "s": "0x588efccc47e059dd219c003d90214640e42dde7ce2d6653f9fad9ad99ab284be",
      "v": 28,
      "creates": null,
      "raw": "0xf86f06850d4db070e283015f9094c624b0cd3307f6cffc473f5019fa380e6811ee588a054b40b1f852bda00000801ca09a7c3d0907847e3f1a15c4a3e8d1aa0192232f0d84a6417150ee4a95bdf8a464a0588efccc47e059dd219c003d90214640e42dde7ce2d6653f9fad9ad99ab284be",
      "networkId": 0,
      "chainId": 0
    },
    {
      "hash": "0x9ec511a3deccf59b4ac58cec5dc7e8f63c1ec9ae17832743e8de3f1c8ddf0ddb",
      "blockHash": "0x6e1320f7cd5a4578823c2c79f0f4d5f8b610f56f75c3910811f5beca90a108ac",
      "blockNumber": 85373,
      "transactionIndex": 1,
      "confirmations": null,
      "from": "0x9943C02b44B13e025fc0B938790F5d336BD920f9",
      "gasPrice": {
        "_hex": "0xd279a780d"
      },
      "gasLimit": {
        "_hex": "0x15f90"
      },
      "to": "0x23f2D0fd3B4C98Fb1698564deB4898275E2e831f",
      "value": {
        "_hex": "0x45400a8fd5330000"
      },
      "nonce": 0,
      "data": "0x",
      "r": "0xb86adc2e84b80d60139618a58ab0324411c19fd8082d23a9e18a1175ac68431d",
      "s": "0x5406b7884a35d5ba648b5914d99cbae88912662adff016c982f8584b86b3178b",
      "v": 28,
      "creates": null,
      "raw": "0xf86d80850d279a780d83015f909423f2d0fd3b4c98fb1698564deb4898275e2e831f8845400a8fd5330000801ca0b86adc2e84b80d60139618a58ab0324411c19fd8082d23a9e18a1175ac68431da05406b7884a35d5ba648b5914d99cbae88912662adff016c982f8584b86b3178b",
      "networkId": 0,
      "chainId": 0
    }
  ]
}