{
  "hash": "0x30bb07d1cb324b5413e2894105bcdb11e1c98b4adf9aa8f6b3310e6443868d86",
  "parentHash": "0x60c14539052b1c369f127d9bf64825c9a70a94451aa2aaaaa558ad2cfe33950c",
  "number": 103085,
  "timestamp": 1439847429,
  "nonce": "0xa2196bbf8e1c00b4",
  "difficulty": 4170722332785,
  "gasLimit": {
    "_hex": "0x2fefd8"
  },
  "gasUsed": {
    "_hex": "0x5208"
  },
  "miner": "0x790b8a3cE86E707ED0eD32bF89B3269692a23CC1",
  "extraData": "0xd783010001844765746887676f312e342e32856c696e7578",
  "transactions": [
    {
      "hash": "0xc5bf10f961c6f10212ecc82fc05ad8f474ae66441ba769d6915327893e437b2e",
      "blockHash": "0x30bb07d1cb324b5413e2894105bcdb11e1c98b4adf9aa8f6b3310e6443868d86",
      "blockNumber": 103085,
      "transactionIndex": 0,
      "confirmations": null,
      "from": "0xa70a9a7040d542C632D8e0bE7c5513A8a5Bbc752",
      "gasPrice": {
        "_hex": "0xdfc881833"
      },
      "gasLimit": {
        "_hex": "0x5208"
      },
      "to": "0x32Be343B94f860124dC4fEe278FDCBD38C102D88",
      "value": {
        "_hex": "0x455f162e6991a800"
      },
      "nonce": 223,
      "data": "0x",
      "r": "0x9c3fdedb215e05068a5f7b65c3e6f779f5f40339b7f6b07c5b433be9b1f463a2",
      "s": "0x54ecf4f11cc527dc5a5e4e84eb23287e9b75d61a3f8f9f13b206800d2a373374",
      "v": 28,
      "creates": null,
      "raw": "0xf86d81df850dfc8818338252089432be343b94f860124dc4fee278fdcbd38c102d8888455f162e6991a800801ca09c3fdedb215e05068a5f7b65c3e6f779f5f40339b7f6b07c5b433be9b1f463a2a054ecf4f11cc527dc5a5e4e84eb23287e9b75d61a3f8f9f13b206800d2a373374",
      "networkId": 0,
      "chainId": 0
    }
  ]
}