{
  "hash": "0x0c2e333ac516b2acf790f253aa1da2185fe8e75f9b021ae916a71cfa641d6a99",
  "parentHash": "0x2d45d64b8a4424584d11cd886ab3b0d2fb4df3b278fac16210c1488eff43521d",
  "number": 70314,
  "timestamp": 1439318057,
  "nonce": "0xe503f9a068769c2b",
  "difficulty": 2135404207663,
  "gasLimit": {
    "_hex": "0x2fefd8"
  },
  "gasUsed": {
    "_hex": "0x5208"
  },
  "miner": "0xbb7B8287f3F0a933474a79eAe42CBCa977791171",
  "extraData": "0x476574682f4c5649562f76312e302e312f6c696e75782f676f312e342e32",
  "transactions": [
    {
      "hash": "0xaff779dd8b9f46cdf3ee90b13deae1217b7aca2256e894b7573cdceba8eaa772",
      "blockHash": "0x0c2e333ac516b2acf790f253aa1da2185fe8e75f9b021ae916a71cfa641d6a99",
      "blockNumber": 70314,
      "transactionIndex": 0,
      "confirmations": null,
      "from": "0x32Be343B94f860124dC4fEe278FDCBD38C102D88",
      "gasPrice": {
        "_hex": "0xcc5ae68b5"
      },
      "gasLimit": {
        "_hex": "0x5208"
      },
      "to": "0x74Ed33Acf43F35b98c9230B9E6642ECb5330839e",
      "value": {
        "_hex": "0xdbd2fc137a30000"
      },
      "nonce": 247,
      "data": "0x",
      "r": "0x6f3762c92dc03db666947897b9f188c4f20badf5d7c6bbf871adc021d71003bf",
      "s": "0x4adf4cfc21a23cda061b8385cbdc8c8e9e9e7c672afe1f4fb7189721e28e881f",
      "v": 27,
      "creates": null,
      "raw": "0xf86d81f7850cc5ae68b58252089474ed33acf43f35b98c9230b9e6642ecb5330839e880dbd2fc137a30000801ba06f3762c92dc03db666947897b9f188c4f20badf5d7c6bbf871adc021d71003bfa04adf4cfc21a23cda061b8385cbdc8c8e9e9e7c672afe1f4fb7189721e28e881f",
      "networkId": 0,
      "chainId": 0
    }
  ]
}