{
  "hash": "0x366af344ee201c6a83a56a4a8d682820de77f34b9dbf78cc4117e7dae7a69f20",
  "parentHash": "0xa5c5ce6a458e62d503a91f36d98c4a8558be2f9d3cd4049f5d4b87fd9d3afeb5",
  "number": 49266,
  "timestamp": 1438970762,
  "nonce": "0x0182122bf6e8e50b",
  "difficulty": 1479973846672,
  "gasLimit": {
    "_hex": "0x2b030"
  },
  "gasUsed": {
    "_hex": "0x546c"
  },
  "miner": "0x1B7047b4338ACf65bE94C1A3e8c5c9338ad7d67C",
  "extraData": "0x476574682f76312e302e312d38326566323666362f6c696e75782f676f312e34",
  "transactions": [
    {
      "hash": "0x82a36ade098d0e46ba05b30cab16f7df0800b240e253e5a6aa90266ae77a4fe0",
      "blockHash": "0x366af344ee201c6a83a56a4a8d682820de77f34b9dbf78cc4117e7dae7a69f20",
      "blockNumber": 49266,
      "transactionIndex": 0,
      "confirmations": null,
      "from": "0xb6E6C3222B6b6f9bE2875D2a89f127fb64100Fe2",
      "gasPrice": {
        "_hex": "0xcc047f4b6"
      },
      "gasLimit": {
        "_hex": "0x15f90"
      },
      "to": "0x2910543Af39abA0Cd09dBb2D50200b3E800A63D2",
      "value": {
        "_hex": "0x2993ee2063120000"
      },
      "nonce": 2,
      "data": "0x454e324a3854314430",
      "r": "0xadb29107b9a83ca89a8aff5b32281dfda8ef85f70dea0e0e471bdb9a57963ca8",
      "s": "0x7be3c607c3b687b27c946da7d4f09e31bda970058017a7f3c50b1ea412029a7b",
      "v": 27,
      "creates": null,
      "raw": "0xf87602850cc047f4b683015f90942910543af39aba0cd09dbb2d50200b3e800a63d2882993ee206312000089454e324a38543144301ba0adb29107b9a83ca89a8aff5b32281dfda8ef85f70dea0e0e471bdb9a57963ca8a07be3c607c3b687b27c946da7d4f09e31bda970058017a7f3c50b1ea412029a7b",
      "networkId": 0,
      "chainId": 0
    }
  ]
}