{
  "hash": "0xb609256fe2f3fc0ae1030eabcf157d064438493ed7f4211bf91676d63cc20874",
  "parentHash": "0x8e08fdfb621173367242ed254217ecb4aade05761554f4c5148618d0594f0242",
  "number": 98991,
  "timestamp": 1439782512,
  "nonce": "0xa9a87e4e1b40acb4",
  "difficulty": 3832879470765,
  "gasLimit": {
    "_hex": "0x2fefd8"
  },
  "gasUsed": {
    "_hex": "0x546c"
  },
  "miner": "0xe6A7a1d47ff21B6321162AEA7C6CB457D5476Bca",
  "extraData": "0x476574682f76312e302e312d38326566323666362f6c696e75782f676f312e34",
  "transactions": [
    {
      "hash": "0x617b29219cd0ce5df2de73803283acb1a48126155aaeb442733cab3171c525b9",
      "blockHash": "0xb609256fe2f3fc0ae1030eabcf157d064438493ed7f4211bf91676d63cc20874",
      "blockNumber": 98991,
      "transactionIndex": 0,
      "confirmations": null,
      "from": "0x7109DD011D15f3122d9d3A27588c10D77744508b",
      "gasPrice": {
        "_hex": "0x110c8f7d8de"
      },
      "gasLimit": {
        "_hex": "0xc350"
      },
      "to": "0x2910543Af39abA0Cd09dBb2D50200b3E800A63D2",
      "value": {
        "_hex": "0x1158e460913d00000"
      },
      "nonce": 0,
      "data": "0x454e3755584d415247",
      "r": "0x76a2315ee55cc026b1644a560ead1919404f13743b817d0d23722fe673bd0288",
      "s": "0x97459818c99144f72b27b618d3d3ff69d4ea91cad4ce2cf2dc3135c566b63bbe",
      "v": 27,
      "creates": null,
      "raw": "0xf87780860110c8f7d8de82c350942910543af39aba0cd09dbb2d50200b3e800a63d28901158e460913d0000089454e3755584d4152471ba076a2315ee55cc026b1644a560ead1919404f13743b817d0d23722fe673bd0288a097459818c99144f72b27b618d3d3ff69d4ea91cad4ce2cf2dc3135c566b63bbe",
      "networkId": 0,
      "chainId": 0
    }
  ]
}