{
  "hash": "0xe7ff540fcc9213ac463f4c9cb273b189176b9bee52b7166646d87cb77e018d78",
  "parentHash": "0xb7d1021666ba585aacd3d697fcee0f1b3291ba4d023bb1e2ebc6fd29cf94c34f",
  "number": 112213,
  "timestamp": 1440003794,
  "nonce": "0x33ca0674cc2e08d1",
  "difficulty": 4387497048933,
  "gasLimit": {
    "_hex": "0x2fefd8"
  },
  "gasUsed": {
    "_hex": "0x5208"
  },
  "miner": "0xf8E0CA3Ed80bd541b94BEdCf259e8CF2141A9523",
  "extraData": "0x476574682f76312e302e312f77696e646f77732f676f312e342e32",
  "transactions": [
    {
      "hash": "0xdf427feacf8e21a5f186d1e78062a78f5c4ec3c8ab4a1e9456ad33892583ba3a",
      "blockHash": "0xe7ff540fcc9213ac463f4c9cb273b189176b9bee52b7166646d87cb77e018d78",
      "blockNumber": 112213,
      "transactionIndex": 0,
      "confirmations": null,
      "from": "0xF03462EC92AD7d5F732197D6F2408C5B2CD44361",
      "gasPrice": {
        "_hex": "0xd1ef68223"
      },
      "gasLimit": {
        "_hex": "0x15f90"
      },
      "to": "0x29542c1Ef80b446EcD7719EADb88Ef3a2529c566",
      "value": {
        "_hex": "0xde0b6b3a7640000"
      },
      "nonce": 4,
      "data": "0x",
      "r": "0x71a1642c7814e758b4ad5292811fca0b57a869da74814785f1dabbdc096bbb09",
      "s": "0x77cd6d2c18587ac5edfd360e3e04bf8e1910aa5bc26321a10ba92678a148c8ff",
      "v": 28,
      "creates": null,
      "raw": "0xf86d04850d1ef6822383015f909429542c1ef80b446ecd7719eadb88ef3a2529c566880de0b6b3a7640000801ca071a1642c7814e758b4ad5292811fca0b57a869da74814785f1dabbdc096bbb09a077cd6d2c18587ac5edfd360e3e04bf8e1910aa5bc26321a10ba92678a148c8ff",
      "networkId": 0,
      "chainId": 0
    }
  ]
}