{
  "hash": "0x6ec6fe026777a648c23a29795385c505acd9cd3d50e3187c27d325c142b6394b",
  "parentHash": "0xc1c4da2bce47937f4b5ec8116923ed72fc50b3755650d60dc8fa022df34aff5d",
  "number": 64496,
  "timestamp": 1439221706,
  "nonce": "0x0bbf1fb8d5a136f9",
  "difficulty": 1874777765962,
  "gasLimit": {
    "_hex": "0x2fefd8"
  },
  "gasUsed": {
    "_hex": "0x19a28"
  },
  "miner": "0xf8E0CA3Ed80bd541b94BEdCf259e8CF2141A9523",
  "extraData": "0x476574682f76312e302e312f77696e646f77732f676f312e342e32",
  "transactions": [
    {
      "hash": "0x3cc259b85790190caccf7b1010808984887a38352df5af8958c8bb908feb930b",
      "blockHash": "0x6ec6fe026777a648c23a29795385c505acd9cd3d50e3187c27d325c142b6394b",
      "blockNumber": 64496,
      "transactionIndex": 0,
      "confirmations": null,
      "from": "0x2910543Af39abA0Cd09dBb2D50200b3E800A63D2",
      "gasPrice": {
        "_hex": "0xe2877ff18"
      },
      "gasLimit": {
        "_hex": "0x5208"
      },
      "to": "0x7A3F5314eFB62CDe77750d52dD2bf12eF74a5D2a",
      "value": {
        "_hex": "0x189d60f1ce825038000"
      },
      "nonce": 144,
      "data": "0x",
      "r": "0xff3d5a8447a553f8fcb1bec031e7c3d1e57928ac7f7d6562738939f1ed6b7662",
      "s": "0x0a570dfc8ab2b87ca9b11b3807e713b52c101fd3ca6d025981ccf2c344d4eaed",
      "v": 28,
      "creates": null,
      "raw": "0xf86f8190850e2877ff18825208947a3f5314efb62cde77750d52dd2bf12ef74a5d2a8a0189d60f1ce825038000801ca0ff3d5a8447a553f8fcb1bec031e7c3d1e57928ac7f7d6562738939f1ed6b7662a00a570dfc8ab2b87ca9b11b3807e713b52c101fd3ca6d025981ccf2c344d4eaed",
      "networkId": 0,
      "chainId": 0
    },
    {
      "hash": "0x6e64a2a4cd3bdabace14217b331d041fff35e9737ae1f685439fd920ecd4e372",
      "blockHash": "0x6ec6fe026777a648c23a29795385c505acd9cd3d50e3187c27d325c142b6394b",
      "blockNumber": 64496,
      "transactionIndex": 1,
      "confirmations": null,
      "from": "0x249502491a53b217181420Cc4A6dE23a720636CA",
      "gasPrice": {
        "_hex": "0xcdcb290fd"
      },
      "gasLimit": {
        "_hex": "0x5208"
      },
      "to": "0x32Be343B94f860124dC4fEe278FDCBD38C102D88",
      "value": {
        "_hex": "0x3635c583e1ab220000"
      },
      "nonce": 3,
      "data": "0x",
      "r": "0x246ef3f8dae3b21053f739fa2942eb4cbcd89f4d2f03eb83705ddcf41f16ab38",
      "s": "0x02af286b4f3e38980e7eb2a06ba7e43e1cf06a8cb21a0837e02a93b7fc56ec63",
      "v": 27,
      "creates": null,
      "raw": "0xf86d03850cdcb290fd8252089432be343b94f860124dc4fee278fdcbd38c102d88893635c583e1ab220000801ba0246ef3f8dae3b21053f739fa2942eb4cbcd89f4d2f03eb83705ddcf41f16ab38a002af286b4f3e38980e7eb2a06ba7e43e1cf06a8cb21a0837e02a93b7fc56ec63",
      "networkId": 0,
      "chainId": 0
    },
    {
      "hash": "0x51785edf2738e938d59bd26feafbf93194a54e99b449c9d51f8076197f0b642b",
      "blockHash": "0x6ec6fe026777a648c23a29795385c505acd9cd3d50e3187c27d325c142b6394b",
      "blockNumber": 64496,
      "transactionIndex": 2,
      "confirmations": null,
      "from": "0xf79785E5a846aCea08F94379fCCe79B1054bDB99",
      "gasPrice": {
        "_hex": "0xcdcb290fd"
      },
      "gasLimit": {
        "_hex": "0x5208"
      },
      "to": "0x32Be343B94f860124dC4fEe278FDCBD38C102D88",
      "value": {
        "_hex": "0x455f7269c4987c00"
      },
      "nonce": 4,
      "data": "0x",
      "r": "0xab5321a648bf7a480a40ddb681c51533cd9eba78db5d9a704b7be701275910f6",
      "s": "0x2bb8d85771a30026b236ddb1aa47fb09aba002efb722a5100de80107b72f7b76",
      "v": 28,
      "creates": null,
      "raw": "0xf86c04850cdcb290fd8252089432be343b94f860124dc4fee278fdcbd38c102d8888455f7269c4987c00801ca0ab5321a648bf7a480a40ddb681c51533cd9eba78db5d9a704b7be701275910f6a02bb8d85771a30026b236ddb1aa47fb09aba002efb722a5100de80107b72f7b76",
      "networkId": 0,
      "chainId": 0
    },
    {
      "hash": "0x0abb09bd90ca7f2abc0e2358d152af4d30ee06dfc4584d4d64b63e9faa7c9ec0",
      "blockHash": "0x6ec6fe026777a648c23a29795385c505acd9cd3d50e3187c27d325c142b6394b",
      "blockNumber": 64496,
      "transactionIndex": 3,
      "confirmations": null,
      "from": "0x6a6D69d85A96de30FAFbc28Fe5560C221F0314E6",
      "gasPrice": {
        "_hex": "0xcdcb290fd"
      },
      "gasLimit": {
        "_hex": "0x5208"
      },
      "to": "0x32Be343B94f860124dC4fEe278FDCBD38C102D88",
      "value": {
        "_hex": "0x6c6b7d847457a00000"
      },
      "nonce": 1,
      "data": "0x",
      "r": "0xdbf04bb92af7b62f953b04ce34b0ce3f8eb6dc3f95fd2d077bbda3daae5ce2fc",
      "s": "0x7d1a84e4395a77a9331f8feeb78bc5dc97f22f8386fb9ba47c673a5fd21b2b2f",
      "v": 27,
      "creates": null,
      "raw": "0xf86d01850cdcb290fd8252089432be343b94f860124dc4fee278fdcbd38c102d88896c6b7d847457a00000801ba0dbf04bb92af7b62f953b04ce34b0ce3f8eb6dc3f95fd2d077bbda3daae5ce2fca07d1a84e4395a77a9331f8feeb78bc5dc97f22f8386fb9ba47c673a5fd21b2b2f",
      "networkId": 0,
      "chainId": 0
    },
    {
      "hash": "0xe963a3bc8f0aa9dddc802efec9d905fa6eca55704a6a55366ef91a704c2843b3",
      "blockHash": "0x6ec6fe026777a648c23a29795385c505acd9cd3d50e3187c27d325c142b6394b",
      "blockNumber": 64496,
      "transactionIndex": 4,
      "confirmations": null,
      "from": "0x6747f922385c9a6F9cfDf095F34345257DD597bE",
      "gasPrice": {
        "_hex": "0xba43b7400"
      },
      "gasLimit": {
        "_hex": "0x5208"
      },
      "to": "0x73Cdf383de3E494a8cAbaF398DDca32458B2c431",
      "value": {
        "_hex": "0x1fcbfa42bd6000"
      },
      "nonce": 3,
      "data": "0x",
      "r": "0xa942360149ada7dd4c68847fe078e060222fbb4d9f448f1aa2d465f27b8d53b2",
      "s": "0x5a5629a6660742b8a8ec636dc1ffeed1f97ec5233b030754ec89a14ca1cda98a",
      "v": 28,
      "creates": null,
      "raw": "0xf86b03850ba43b74008252089473cdf383de3e494a8cabaf398ddca32458b2c431871fcbfa42bd6000801ca0a942360149ada7dd4c68847fe078e060222fbb4d9f448f1aa2d465f27b8d53b2a05a5629a6660742b8a8ec636dc1ffeed1f97ec5233b030754ec89a14ca1cda98a",
      "networkId": 0,
      "chainId": 0
    }
  ]
}