{
  "hash": "0x84e1bddcb71fd5c6711ad41ae184bc7fe2be1638d53dd55fdeeb6dac488659d0",
  "parentHash": "0x4871aab6d4c418743bf6364734d3b8c26d8f658da6a9d2fd87fb285efe8e8070",
  "number": 50592,
  "timestamp": 1438991658,
  "nonce": "0xdc0ccf82aa83f819",
  "difficulty": 1528203572529,
  "gasLimit": {
    "_hex": "0x6c137"
  },
  "gasUsed": {
    "_hex": "0x5208"
  },
  "miner": "0x4705E331214F54eE19677a920BeB64e5206Fd610",
  "extraData": "0x476574682f76312e302e312f6c696e75782f676f312e342e32",
  "transactions": [
    {
      "hash": "0x04014339b454fcd4209206903044f27fda9038261a00c41005c7d69b66bff6d7",
      "blockHash": "0x84e1bddcb71fd5c6711ad41ae184bc7fe2be1638d53dd55fdeeb6dac488659d0",
      "blockNumber": 50592,
      "transactionIndex": 0,
      "confirmations": null,
      "from": "0x288E4356F12D0D3D0F8DF3506E457E7cFd5f4Ab0",
      "gasPrice": {
        "_hex": "0xdf1d83b37"
      },
      "gasLimit": {
        "_hex": "0x15f90"
      },
      "to": "0x04B0AEb6048bA81523Ecf83b50f72BB691C5Ee88",
      "value": {
        "_hex": "0xde0b6b3a7640000"
      },
      "nonce": 2,
      "data": "0x",
      "r": "0x978e2c77050c27909650b0297217c889020efdff0e4dab57bc0741ccb847a948",
      "s": "0x61a89f3e0f7a6bd926a8069499fd29cf4550865d28b76e3714095615bc36ccdd",
      "v": 28,
      "creates": null,
      "raw": "0xf86d02850df1d83b3783015f909404b0aeb6048ba81523ecf83b50f72bb691c5ee88880de0b6b3a7640000801ca0978e2c77050c27909650b0297217c889020efdff0e4dab57bc0741ccb847a948a061a89f3e0f7a6bd926a8069499fd29cf4550865d28b76e3714095615bc36ccdd",
      "networkId": 0,
      "chainId": 0
    }
  ]
}