{
  "hash": "0xda7d4597bb99a5afb26a80b093fbe1d3cf6f9f37322a1ea4142b56e50969385f",
  "parentHash": "0x2472b0acc82bd6fa757f71bc50ffb800bde8d151ed4e25c3c062d6013891c375",
  "number": 68665,
  "timestamp": 1439291701,
  "nonce": "0x922e91211d6c8536",
  "difficulty": 2017226642037,
  "gasLimit": {
    "_hex": "0x2fefd8"
  },
  "gasUsed": {
    "_hex": "0x42a68"
  },
  "miner": "0xe6A7a1d47ff21B6321162AEA7C6CB457D5476Bca",
  "extraData": "0x476574682f76312e302e312d38326566323666362f6c696e75782f676f312e34",
  "transactions": [
    {
      "hash": "0xd275fc6c1f4ecfe90fffbb1333bba4b0e2cd54977c782dafa051ac99b8b57729",
      "blockHash": "0xda7d4597bb99a5afb26a80b093fbe1d3cf6f9f37322a1ea4142b56e50969385f",
      "blockNumber": 68665,
      "transactionIndex": 0,
      "confirmations": null,
      "from": "0x7372F06387e0A6DE60f7B6117E9580D23Ab40E43",
      "gasPrice": {
        "_hex": "0xba43b7400"
      },
      "gasLimit": {
        "_hex": "0x5208"
      },
      "to": "0x6747f922385c9a6F9cfDf095F34345257DD597bE",
      "value": {
        "_hex": "0x1ee8b7b42062000"
      },
      "nonce": 1,
      "data": "0x",
      "r": "0x64c459e9688a771bf1dee88691ee361cd56d2a92de3921da50128844fa0507a0",
      "s": "0x48148b91b8beabd20d8d8136ca8af4f0d4da00568b7619f1ef5242a2ad386cc2",
      "v": 27,
      "creates": null,
      "raw": "0xf86c01850ba43b7400825208946747f922385c9a6f9cfdf095f34345257dd597be8801ee8b7b42062000801ba064c459e9688a771bf1dee88691ee361cd56d2a92de3921da50128844fa0507a0a048148b91b8beabd20d8d8136ca8af4f0d4da00568b7619f1ef5242a2ad386cc2",
      "networkId": 0,
      "chainId": 0
    },
    {
      "hash": "0xac9d747bfef4e9436b5465cc9c680da11126562903cc0aea12e8aba52836d1ee",
      "blockHash": "0xda7d4597bb99a5afb26a80b093fbe1d3cf6f9f37322a1ea4142b56e50969385f",
      "blockNumber": 68665,
      "transactionIndex": 1,
      "confirmations": null,
      "from": "0x3C7C187E2b4448216F90D20DB51E0AC26dEa0d0F",
      "gasPrice": {
        "_hex": "0xba43b7400"
      },
      "gasLimit": {
        "_hex": "0x5208"
      },
      "to": "0x6747f922385c9a6F9cfDf095F34345257DD597bE",
      "value": {
        "_hex": "0x1ee8b7b42062000"
      },
      "nonce": 1,
      "data": "0x",
      "r": "0xbcdbbf5032039f2975437a5a7dfc5f993de813b92f391625b47173b4f8050808",
      "s": "0x58fdcfd7ad11164319cca933ececa806353243fed9ece2de8dfd2e56a821bdd8",
      "v": 28,
      "creates": null,
      "raw": "0xf86c01850ba43b7400825208946747f922385c9a6f9cfdf095f34345257dd597be8801ee8b7b42062000801ca0bcdbbf5032039f2975437a5a7dfc5f993de813b92f391625b47173b4f8050808a058fdcfd7ad11164319cca933ececa806353243fed9ece2de8dfd2e56a821bdd8",
      "networkId": 0,
      "chainId": 0
    },
    {
      "hash": "0x84fb857ffe0f90effce5ffb817a2e275723d261ef43962b26377a7a2ea8373dc",
      "blockHash": "0xda7d4597bb99a5afb26a80b093fbe1d3cf6f9f37322a1ea4142b56e50969385f",
      "blockNumber": 68665,
      "transactionIndex": 2,
      "confirmations": null,
      "from": "0xBa1ccAAFAf02bf0bed9FBd4Ada0A2e7b454747ae",
      "gasPrice": {
        "_hex": "0xba43b7400"
      },
      "gasLimit": {
        "_hex": "0x5208"
      },
      "to": "0x6747f922385c9a6F9cfDf095F34345257DD597bE",
      "value": {
        "_hex": "0x1ee8b7b42062000"
      },
      "nonce": 1,
      "data": "0x",
      "r": "0x7351ca3abd293e24837860047c7afbaf202723787111e79a9baec91f18784432",
      "s": "0x3c08c76278ffd9949c256546bcd4fc12b4a6a1aa5e0f99e7c2b9429cc1599c71",
      "v": 27,
      "creates": null,
      "raw": "0xf86c01850ba43b7400825208946747f922385c9a6f9cfdf095f34345257dd597be8801ee8b7b42062000801ba07351ca3abd293e24837860047c7afbaf202723787111e79a9baec91f18784432a03c08c76278ffd9949c256546bcd4fc12b4a6a1aa5e0f99e7c2b9429cc1599c71",
      "networkId": 0,
      "chainId": 0
    },
    {
      "hash": "0x90a3f6d87a6f793747cc9f54966134a22ce500eb850774d967bdf77ea49df879",
      "blockHash": "0xda7d4597bb99a5afb26a80b093fbe1d3cf6f9f37322a1ea4142b56e50969385f",
      "blockNumber": 68665,
      "transactionIndex": 3,
      "confirmations": null,
      "from": "0x7262696500F27Dc72e09919B352d7A3d0D8D85B7",
      "gasPrice": {
        "_hex": "0xba43b7400"
      },
      "gasLimit": {
        "_hex": "0x5208"
      },
      "to": "0x6747f922385c9a6F9cfDf095F34345257DD597bE",
      "value": {
        "_hex": "0x1ee8b7b42062000"
      },
      "nonce": 1,
      "data": "0x",
      "r": "0x67c1f2b4bc9ae591a1dfc4f19cf920dc8e65f16fc7ad71150088f8dcda7d9028",
      "s": "0x11c924c9346947002f42c9e39d6eada0abbc6bfe1e6773a23fff4fe711a63986",
      "v": 27,
      "creates": null,
      "raw": "0xf86c01850ba43b7400825208946747f922385c9a6f9cfdf095f34345257dd597be8801ee8b7b42062000801ba067c1f2b4bc9ae591a1dfc4f19cf920dc8e65f16fc7ad71150088f8dcda7d9028a011c924c9346947002f42c9e39d6eada0abbc6bfe1e6773a23fff4fe711a63986",
      "networkId": 0,
      "chainId": 0
    },
    {
      "hash": "0x783672669ce345a753b8d36dff3621dfe8e8af71a2e52dad1db0d056ec40b234",
      "blockHash": "0xda7d4597bb99a5afb26a80b093fbe1d3cf6f9f37322a1ea4142b56e50969385f",
      "blockNumber": 68665,
      "transactionIndex": 4,
      "confirmations": null,
      "from": "0xA0300a193C9b548706DCacc9F117E887cbF0C70e",
      "gasPrice": {
        "_hex": "0xba43b7400"
      },
      "gasLimit": {
        "_hex": "0x5208"
      },
      "to": "0x6747f922385c9a6F9cfDf095F34345257DD597bE",
      "value": {
        "_hex": "0x1ee8b7b42062000"
      },
      "nonce": 1,
      "data": "0x",
      "r": "0x4ea9946e0339cf12ddc66723e359762908dd62a08e2d2efb07d46cfc9e555a0e",
      "s": "0x090b9660d4cc78e0361a13c1627ed9b5935e1dad0a6d68daebf249486c1aa222",
      "v": 28,
      "creates": null,
      "raw": "0xf86c01850ba43b7400825208946747f922385c9a6f9cfdf095f34345257dd597be8801ee8b7b42062000801ca04ea9946e0339cf12ddc66723e359762908dd62a08e2d2efb07d46cfc9e555a0ea0090b9660d4cc78e0361a13c1627ed9b5935e1dad0a6d68daebf249486c1aa222",
      "networkId": 0,
      "chainId": 0
    },
    {
      "hash": "0xbf2d7c00787e90282aea2b06863ddf7faa8d615cd72e8e6a95d3be441258e2ed",
      "blockHash": "0xda7d4597bb99a5afb26a80b093fbe1d3cf6f9f37322a1ea4142b56e50969385f",
      "blockNumber": 68665,
      "transactionIndex": 5,
      "confirmations": null,
      "from": "0xD8fE4d9435Ce101F18378713E1A890b21684f9Cb",
      "gasPrice": {
        "_hex": "0xba43b7400"
      },
      "gasLimit": {
        "_hex": "0x5208"
      },
      "to": "0x6747f922385c9a6F9cfDf095F34345257DD597bE",
      "value": {
        "_hex": "0x1ee8b7b42062000"
      },
      "nonce": 1,
      "data": "0x",
      "r": "0x06ae843312d17d4d2debd0952f336ea9077a8c5b65832caec2fe15c3fd14a284",
      "s": "0x50c8f4e8091394db77f1425e16e74027cdde2f9296e644542653ec96479b7fef",
      "v": 27,
      "creates": null,
      "raw": "0xf86c01850ba43b7400825208946747f922385c9a6f9cfdf095f34345257dd597be8801ee8b7b42062000801ba006ae843312d17d4d2debd0952f336ea9077a8c5b65832caec2fe15c3fd14a284a050c8f4e8091394db77f1425e16e74027cdde2f9296e644542653ec96479b7fef",
      "networkId": 0,
      "chainId": 0
    },
    {
      "hash": "0x2cf90da6818e99ddbafe17d88502d30bbc98ea8fd44a836e9548ab1c89226f4b",
      "blockHash": "0xda7d4597bb99a5afb26a80b093fbe1d3cf6f9f37322a1ea4142b56e50969385f",
      "blockNumber": 68665,
      "transactionIndex": 6,
      "confirmations": null,
      "from": "0x519DBf805acC946F7Ac70044f032bc5f14695615",
      "gasPrice": {
        "_hex": "0xba43b7400"
      },
      "gasLimit": {
        "_hex": "0x5208"
      },
      "to": "0x6747f922385c9a6F9cfDf095F34345257DD597bE",
      "value": {
        "_hex": "0x1ee8b7b42062000"
      },
      "nonce": 1,
      "data": "0x",
      "r": "0xdcb266feb8cb8c6f7350f972f9deb8e993d8ed73c8ee25fc05e09d0027dd29d5",
      "s": "0x6469b9cac19f2d1a42328cc7cdd805c253510580e2a6653a2b343570eec95062",
      "v": 28,
      "creates": null,
      "raw": "0xf86c01850ba43b7400825208946747f922385c9a6f9cfdf095f34345257dd597be8801ee8b7b42062000801ca0dcb266feb8cb8c6f7350f972f9deb8e993d8ed73c8ee25fc05e09d0027dd29d5a06469b9cac19f2d1a42328cc7cdd805c253510580e2a6653a2b343570eec95062",
      "networkId": 0,
      "chainId": 0
    },
    {
      "hash": "0x285ef71abb621f91f114bc13fde2605bfd174db3da5499a18830953ba7c9ba86",
      "blockHash": "0xda7d4597bb99a5afb26a80b093fbe1d3cf6f9f37322a1ea4142b56e50969385f",
      "blockNumber": 68665,
      "transactionIndex": 7,
      "confirmations": null,
      "from": "0x86D329AC157AdA70189066571A3f3f91148c0A74",
      "gasPrice": {
        "_hex": "0xba43b7400"
      },
      "gasLimit": {
        "_hex": "0x5208"
      },
      "to": "0x6747f922385c9a6F9cfDf095F34345257DD597bE",
      "value": {
        "_hex": "0x1ee8b7b42062000"
      },
      "nonce": 1,
      "data": "0x",
      "r": "0xf391d5c20719375bf24bac1cc3a9b1669f22cdcf0974279a97a353a69fb82d1b",
      "s": "0x3dd4eaa30a2595bc1dd0e1873163298307f549eb584b733f0e4618fb30e628d8",
      "v": 28,
      "creates": null,
      "raw": "0xf86c01850ba43b7400825208946747f922385c9a6f9cfdf095f34345257dd597be8801ee8b7b42062000801ca0f391d5c20719375bf24bac1cc3a9b1669f22cdcf0974279a97a353a69fb82d1ba03dd4eaa30a2595bc1dd0e1873163298307f549eb584b733f0e4618fb30e628d8",
      "networkId": 0,
      "chainId": 0
    },
    {
      "hash": "0x3b9fdffe9e19730e15c84551b6d44cd3f2cb6340b2ced40ae1c997dc2db71ced",
      "blockHash": "0xda7d4597bb99a5afb26a80b093fbe1d3cf6f9f37322a1ea4142b56e50969385f",
      "blockNumber": 68665,
      "transactionIndex": 8,
      "confirmations": null,
      "from": "0x4FFF15213aB3B92929D89947B7dE30d7ed970A1F",
      "gasPrice": {
        "_hex": "0xba43b7400"
      },
      "gasLimit": {
        "_hex": "0x5208"
      },
      "to": "0x6747f922385c9a6F9cfDf095F34345257DD597bE",
      "value": {
        "_hex": "0x1ee8b7b42062000"
      },
      "nonce": 1,
      "data": "0x",
      "r": "0x46873a4b217e74dc7a2d1944b2ac0e705b0b204af8400cb1a3fe86d934ad8b63",
      "s": "0x54fc8ed7a67aa17f5ff99a8aa2ab76e589630f6547bfb08b9a8452d4cd7ed624",
      "v": 28,
      "creates": null,
      "raw": "0xf86c01850ba43b7400825208946747f922385c9a6f9cfdf095f34345257dd597be8801ee8b7b42062000801ca046873a4b217e74dc7a2d1944b2ac0e705b0b204af8400cb1a3fe86d934ad8b63a054fc8ed7a67aa17f5ff99a8aa2ab76e589630f6547bfb08b9a8452d4cd7ed624",
      "networkId": 0,
      "chainId": 0
    },
    {
      "hash": "0xee84b4525b5d91a6d5f0e884ec61ab2eaafb79f2678908c5ef24c96a8c0dd88e",
      "blockHash": "0xda7d4597bb99a5afb26a80b093fbe1d3cf6f9f37322a1ea4142b56e50969385f",
      "blockNumber": 68665,
      "transactionIndex": 9,
      "confirmations": null,
      "from": "0x545BD84a81668470e8BaEeb93DFC927697D23e98",
      "gasPrice": {
        "_hex": "0xba43b7400"
      },
      "gasLimit": {
        "_hex": "0x5208"
      },
      "to": "0x6747f922385c9a6F9cfDf095F34345257DD597bE",
      "value": {
        "_hex": "0x1ee8b7b42062000"
      },
      "nonce": 1,
      "data": "0x",
      "r": "0xccd3cc7aa96dbfd80c3e6288ce90f40cc9f648dbcbb81afc14918bfdbcd4c601",
      "s": "0x1f9466cb7ae9a3d50e9c59ee7f0d604607823fac8e1391ac6d67e002afe5a3f9",
      "v": 27,
      "creates": null,
      "raw": "0xf86c01850ba43b7400825208946747f922385c9a6f9cfdf095f34345257dd597be8801ee8b7b42062000801ba0ccd3cc7aa96dbfd80c3e6288ce90f40cc9f648dbcbb81afc14918bfdbcd4c601a01f9466cb7ae9a3d50e9c59ee7f0d604607823fac8e1391ac6d67e002afe5a3f9",
      "networkId": 0,
      "chainId": 0
    },
    {
      "hash": "0x8ed527198b66df29c227601c950683fbd7cfaab6a0153e2ee218a4e9a98f50d1",
      "blockHash": "0xda7d4597bb99a5afb26a80b093fbe1d3cf6f9f37322a1ea4142b56e50969385f",
      "blockNumber": 68665,
      "transactionIndex": 10,
      "confirmations": null,
      "from": "0x940937d0F38187133c30f0c69879a02e939d1a53",
      "gasPrice": {
        "_hex": "0xba43b7400"
      },
      "gasLimit": {
        "_hex": "0x5208"
      },
      "to": "0x6747f922385c9a6F9cfDf095F34345257DD597bE",
      "value": {
        "_hex": "0x1ee8b7b42062000"
      },
      "nonce": 1,
      "data": "0x",
      "r": "0xe7e3995da19eecfb36cb2fdc2d2514865726ec970b2f19601d31d1d74f4af842",
      "s": "0x761ae8ee0427205fca4c08d34dfb3d01bfaf0e43c6b40547ade6c57ae0220c99",
      "v": 28,
      "creates": null,
      "raw": "0xf86c01850ba43b7400825208946747f922385c9a6f9cfdf095f34345257dd597be8801ee8b7b42062000801ca0e7e3995da19eecfb36cb2fdc2d2514865726ec970b2f19601d31d1d74f4af842a0761ae8ee0427205fca4c08d34dfb3d01bfaf0e43c6b40547ade6c57ae0220c99",
      "networkId": 0,
      "chainId": 0
    },
    {
      "hash": "0x35e4afff7df7a77f2b54ab9d501130d869fe1291e0c80d4c37392eca0f522b39",
      "blockHash": "0xda7d4597bb99a5afb26a80b093fbe1d3cf6f9f37322a1ea4142b56e50969385f",
      "blockNumber": 68665,
      "transactionIndex": 11,
      "confirmations": null,
      "from": "0xD32c1E83032a0E7e230684B29f607af42C72B81B",
      "gasPrice": {
        "_hex": "0xba43b7400"
      },
      "gasLimit": {
        "_hex": "0x5208"
      },
      "to": "0x6747f922385c9a6F9cfDf095F34345257DD597bE",
      "value": {
        "_hex": "0x1ee8b7b42062000"
      },
      "nonce": 1,
      "data": "0x",
      "r": "0x615630b6634d37cf29e306d49845c5c928ba52b7dfa630c3862748feae22796b",
      "s": "0x44395a54330251b17d17a6aed1944c4f5c2e62502f1a20bd022b24da5a08292e",
      "v": 27,
      "creates": null,
      "raw": "0xf86c01850ba43b7400825208946747f922385c9a6f9cfdf095f34345257dd597be8801ee8b7b42062000801ba0615630b6634d37cf29e306d49845c5c928ba52b7dfa630c3862748feae22796ba044395a54330251b17d17a6aed1944c4f5c2e62502f1a20bd022b24da5a08292e",
      "networkId": 0,
      "chainId": 0
    },
    {
      "hash": "0xda15187a66964bcb46814d9be0f89cfcffd799f5717ae96ec796ff245c13faee",
      "blockHash": "0xda7d4597bb99a5afb26a80b093fbe1d3cf6f9f37322a1ea4142b56e50969385f",
      "blockNumber": 68665,
      "transactionIndex": 12,
      "confirmations": null,
      "from": "0xA79A188EeaF48A16BeE95c2f07B22D108ca1B5D8",
      "gasPrice": {
        "_hex": "0xba43b7400"
      },
      "gasLimit": {
        "_hex": "0x5208"
      },
      "to": "0x6747f922385c9a6F9cfDf095F34345257DD597bE",
      "value": {
        "_hex": "0x1ee8b7b42062000"
      },
      "nonce": 1,
      "data": "0x",
      "r": "0xd13d5e53bb60256a199ea5d6b7770e4321ea238bed533ae8986706982a950017",
      "s": "0x7f4cceb3dfc464526a44112155a1444210c061960f7f0fadda0628e558681e3f",
      "v": 27,
      "creates": null,
      "raw": "0xf86c01850ba43b7400825208946747f922385c9a6f9cfdf095f34345257dd597be8801ee8b7b42062000801ba0d13d5e53bb60256a199ea5d6b7770e4321ea238bed533ae8986706982a950017a07f4cceb3dfc464526a44112155a1444210c061960f7f0fadda0628e558681e3f",
      "networkId": 0,
      "chainId": 0
    }
  ]
}