{
  "hash": "0x03be15827c5dd6e181be6eca5fa9c9c177e543632fa30e204742282488490995",
  "parentHash": "0x5d60ad8f8491a29c0c4ff0a67afad1a834b776f693f969de125e9bd74f530cd1",
  "number": 83765,
  "timestamp": 1439540539,
  "nonce": "0x1fa67e6fcfbed3d2",
  "difficulty": 2443137193116,
  "gasLimit": {
    "_hex": "0x2fefd8"
  },
  "gasUsed": {
    "_hex": "0x5208"
  },
  "miner": "0x9746c7e1ef2bd21FF3997fa467593a89cb852BD0",
  "extraData": "0x476574682f76312e302e312f77696e646f77732f676f312e342e32",
  "transactions": [
    {
      "hash": "0x2928f897c4d99eb93eff6aa70cde1130313d1934d77202801ccfa7a4b51cdd65",
      "blockHash": "0x03be15827c5dd6e181be6eca5fa9c9c177e543632fa30e204742282488490995",
      "blockNumber": 83765,
      "transactionIndex": 0,
      "confirmations": null,
      "from": "0xdeE4977F74E6Aef6D627191c9A45D2627e331150",
      "gasPrice": {
        "_hex": "0xde43d34f4"
      },
      "gasLimit": {
        "_hex": "0x5208"
      },
      "to": "0x32Be343B94f860124dC4fEe278FDCBD38C102D88",
      "value": {
        "_hex": "0x6f01421267800800"
      },
      "nonce": 0,
      "data": "0x",
      "r": "0xcb84d6bff7cbbf337bb5f68b4d5313fb74e6a54abba80905533ed625bc1898d3",
      "s": "0x59ef00c53261244cb233c3d31d6247bbd72be18ac088f50d22444512c9fb73f3",
      "v": 28,
      "creates": null,
      "raw": "0xf86c80850de43d34f48252089432be343b94f860124dc4fee278fdcbd38c102d88886f01421267800800801ca0cb84d6bff7cbbf337bb5f68b4d5313fb74e6a54abba80905533ed625bc1898d3a059ef00c53261244cb233c3d31d6247bbd72be18ac088f50d22444512c9fb73f3",
      "networkId": 0,
      "chainId": 0
    }
  ]
}