{
  "hash": "0xb2b2d6e9ae02e250d545da647db6f546ac0d3db8c518f9b82b044f1c728a2743",
  "parentHash": "0xacc7e6d37e2f5a1ae8d0c481288e1e07c83eca0c2b5424b0e5f061a05d898199",
  "number": 83431,
  "timestamp": 1439535274,
  "nonce": "0x8f7df73392fd7748",
  "difficulty": 2428960501773,
  "gasLimit": {
    "_hex": "0x2fefd8"
  },
  "gasUsed": {
    "_hex": "0xa410"
  },
  "miner": "0xe090Ffdced499691fA9379752a59F8A058c1eE4A",
  "extraData": "0x476574682f76312e302e312f6c696e75782f676f312e342e32",
  "transactions": [
    {
      "hash": "0x8e17ca7a31d204f3a38d715a28410362287c2ff12e1ad35c694a5a6bd648253f",
      "blockHash": "0xb2b2d6e9ae02e250d545da647db6f546ac0d3db8c518f9b82b044f1c728a2743",
      "blockNumber": 83431,
      "transactionIndex": 0,
      "confirmations": null,
      "from": "0x6De181Fc4C140FA31F196e5393516c49EEeBdAd3",
      "gasPrice": {
        "_hex": "0xd9ebb13f8"
      },
      "gasLimit": {
        "_hex": "0x5208"
      },
      "to": "0x32Be343B94f860124dC4fEe278FDCBD38C102D88",
      "value": {
        "_hex": "0x1f1dc386134c780000"
      },
      "nonce": 10,
      "data": "0x",
      "r": "0xf1262d312d1790907baa85e2e0b3e37549d469c120e4188f9ec08c8d20d4eab8",
      "s": "0x1a5545b88d030a247c879f50ee6dce52b66f33c9ddc2b3ca931e7969bc9a5b30",
      "v": 28,
      "creates": null,
      "raw": "0xf86d0a850d9ebb13f88252089432be343b94f860124dc4fee278fdcbd38c102d88891f1dc386134c780000801ca0f1262d312d1790907baa85e2e0b3e37549d469c120e4188f9ec08c8d20d4eab8a01a5545b88d030a247c879f50ee6dce52b66f33c9ddc2b3ca931e7969bc9a5b30",
      "networkId": 0,
      "chainId": 0
    },
    {
      "hash": "0x44a5c79f2228b93368cc136d284e80d03cb8460cc2763732ca3161ec5d3c9f48",
      "blockHash": "0xb2b2d6e9ae02e250d545da647db6f546ac0d3db8c518f9b82b044f1c728a2743",
      "blockNumber": 83431,
      "transactionIndex": 1,
      "confirmations": null,
      "from": "0xa6BDc31c431B8F97848c9D60cbbe9660dc450eB7",
      "gasPrice": {
        "_hex": "0xd9ebb13f8"
      },
      "gasLimit": {
        "_hex": "0x5208"
      },
      "to": "0x32Be343B94f860124dC4fEe278FDCBD38C102D88",
      "value": {
        "_hex": "0x455f343d77142c00"
      },
      "nonce": 57,
      "data": "0x",
      "r": "0xd901a984141cb206a533c36acbe0bfe8f4042569ded93437cfc709f04daf70c5",
      "s": "0x0b9d68547b58c3f3761e35f5a0d9ec0c5e2ad1fc0561f376685095a0893079b4",
      "v": 28,
      "creates": null,
      "raw": "0xf86c39850d9ebb13f88252089432be343b94f860124dc4fee278fdcbd38c102d8888455f343d77142c00801ca0d901a984141cb206a533c36acbe0bfe8f4042569ded93437cfc709f04daf70c5a00b9d68547b58c3f3761e35f5a0d9ec0c5e2ad1fc0561f376685095a0893079b4",
      "networkId": 0,
      "chainId": 0
    }
  ]
}