{
  "hash": "0x8d12ca6d23772cf05589e72ca91749f093aa44566dfdbe0252f0d4b765c4c324",
  "parentHash": "0xef4078847a02b53e4422c415a2483d5a0805067c6665b3a86d126e8f55707acc",
  "number": 54356,
  "timestamp": 1439052849,
  "nonce": "0x0eb66ee12faf7763",
  "difficulty": 1608660785705,
  "gasLimit": {
    "_hex": "0x2fefd8"
  },
  "gasUsed": {
    "_hex": "0x5208"
  },
  "miner": "0x3ce70f7EBbb911d5FF14BB9244ac7C9be2c669B3",
  "extraData": "0xda8098302e392e33392b2b302d524c696e75782f672b2b2f696e74",
  "transactions": [
    {
      "hash": "0x18299465c7c9d411da11f2ddb8c97de3c275e82ea5a881590f0c5075660883d0",
      "blockHash": "0x8d12ca6d23772cf05589e72ca91749f093aa44566dfdbe0252f0d4b765c4c324",
      "blockNumber": 54356,
      "transactionIndex": 0,
      "confirmations": null,
      "from": "0x2a9C57Fe7B6B138A920D676F3c76b6C2A0EEf699",
      "gasPrice": {
        "_hex": "0x1104e68544c"
      },
      "gasLimit": {
        "_hex": "0x186a0"
      },
      "to": "0x049e02AC3F202e135d2Ae5f9bd786ccc6Ac8AB1e",
      "value": {
        "_hex": "0x1fc6fc597eda4ac0000"
      },
      "nonce": 4,
      "data": "0x",
      "r": "0x5fda67a7e13eff5e1c69fd94dd67240cf42b5b84eabf01f7615fa60e7e8ee096",
      "s": "0x2d9c025b47f899ffa8c4ec9e10e01a4a74fd3c361748624d9547dfe72784bec3",
      "v": 28,
      "creates": null,
      "raw": "0xf870048601104e68544c830186a094049e02ac3f202e135d2ae5f9bd786ccc6ac8ab1e8a01fc6fc597eda4ac0000801ca05fda67a7e13eff5e1c69fd94dd67240cf42b5b84eabf01f7615fa60e7e8ee096a02d9c025b47f899ffa8c4ec9e10e01a4a74fd3c361748624d9547dfe72784bec3",
      "networkId": 0,
      "chainId": 0
    }
  ]
}