{
  "hash": "0x55ca9d626c95319c4d08fff411a7daef8d03dac97d0657a79f8934849bdb6728",
  "parentHash": "0x2541ed95f15c61bc906cb00bc68fd608bdef3509b0d15393e7de1b7ecf719c95",
  "number": 71681,
  "timestamp": 1439339994,
  "nonce": "0xdd396e33e21acf17",
  "difficulty": 2184620686539,
  "gasLimit": {
    "_hex": "0x2fefd8"
  },
  "gasUsed": {
    "_hex": "0x9400"
  },
  "miner": "0x958fEE99162C77a8F022cA318a9Ee0463D2E9390",
  "extraData": "0xdd809b302e392e34302b2b616339342d5257696e646f2f6d73762f4a4954",
  "transactions": [
    {
      "hash": "0x12dd55e49e83fda39f99b48fb7b4a1061fdf35bee0008b2a82dd72fcaa203270",
      "blockHash": "0x55ca9d626c95319c4d08fff411a7daef8d03dac97d0657a79f8934849bdb6728",
      "blockNumber": 71681,
      "transactionIndex": 0,
      "confirmations": null,
      "from": "0x17580B766f7453525ca4C6A88b01b50570EA088C",
      "gasPrice": {
        "_hex": "0xd550dc5aa"
      },
      "gasLimit": {
        "_hex": "0x61a80"
      },
      "to": "0x5Fe5B7546D1628f7348B023A0393de1FC825A4fD",
      "value": {
        "_hex": "0x6124fee993bc0000"
      },
      "nonce": 254,
      "data": "0xb595b8b50000000000000000000000000000000000000000000000000000000000000001",
      "r": "0x6ee15d81f9762fdb22f08ee469fc554c5226df93d6f101b2a90a464c45736019",
      "s": "0x163cc7223f0b1223d95ab9e4dfc4cc338a3e72841a2859be5d8388131af30b4b",
      "v": 28,
      "creates": null,
      "raw": "0xf89281fe850d550dc5aa83061a80945fe5b7546d1628f7348b023a0393de1fc825a4fd886124fee993bc0000a4b595b8b500000000000000000000000000000000000000000000000000000000000000011ca06ee15d81f9762fdb22f08ee469fc554c5226df93d6f101b2a90a464c45736019a0163cc7223f0b1223d95ab9e4dfc4cc338a3e72841a2859be5d8388131af30b4b",
      "networkId": 0,
      "chainId": 0
    }
  ]
}