{
  "hash": "0xd5eea5ee6c80e69eb789aa3eedc5dcfbac97b799dba9a53e659c3bb5a1928c26",
  "parentHash": "0xa61272f70ca649f716ee8fe8ed8c3c562fc460f14aa9488a0fcd5a761eb8c01d",
  "number": 46991,
  "timestamp": 1438932839,
  "nonce": "0x0b9ee04238dfd271",
  "difficulty": 1449617200934,
  "gasLimit": {
    "_hex": "0x8cb1"
  },
  "gasUsed": {
    "_hex": "0x5208"
  },
  "miner": "0x47ff6576639c2e94762eA5443978D7681C0E78DC",
  "extraData": "0x476574682f76312e302e312f6c696e75782f676f312e342e32",
  "transactions": [
    {
      "hash": "0x655f912add1625ad66c16367a12760c83f20a2418fabeed7c9dd74f2f8dc4400",
      "blockHash": "0xd5eea5ee6c80e69eb789aa3eedc5dcfbac97b799dba9a53e659c3bb5a1928c26",
      "blockNumber": 46991,
      "transactionIndex": 0,
      "confirmations": null,
      "from": "0x825f8Ac65c876805d1410EdCc237ae5BD9476Bb7",
      "gasPrice": {
        "_hex": "0xd094a0a96"
      },
      "gasLimit": {
        "_hex": "0x5208"
      },
      "to": "0x32Be343B94f860124dC4fEe278FDCBD38C102D88",
      "value": {
        "_hex": "0x1b0cfff2cd02980000"
      },
      "nonce": 0,
      "data": "0x",
      "r": "0xb7d6436ffdfef753254106c358ef572bc463c943b55d5c2f5b42030e10a06c06",
      "s": "0x52238b6ca954e4c9ad7b1a2838c1440843cd9243b32318a24c2f858735f62b0c",
      "v": 27,
      "creates": null,
      "raw": "0xf86d80850d094a0a968252089432be343b94f860124dc4fee278fdcbd38c102d88891b0cfff2cd02980000801ba0b7d6436ffdfef753254106c358ef572bc463c943b55d5c2f5b42030e10a06c06a052238b6ca954e4c9ad7b1a2838c1440843cd9243b32318a24c2f858735f62b0c",
      "networkId": 0,
      "chainId": 0
    }
  ]
}