{
  "hash": "0x1d325f2d6355ac70eafeeeae842023b866058ce1bb69ba376abc7ab49c8b577a",
  "parentHash": "0x59a674fd9ac887132dcae33df913b3aa498767450d5c555f9f416435d829481d",
  "number": 55057,
  "timestamp": 1439064710,
  "nonce": "0xbf4a9d64c42e41ae",
  "difficulty": 1628282029267,
  "gasLimit": {
    "_hex": "0x2fefd8"
  },
  "gasUsed": {
    "_hex": "0x546c"
  },
  "miner": "0x0037ce3d4B7f8729C8607D8D0248252Be68202c0",
  "extraData": "0x476574682f76312e302e312f77696e646f77732f676f312e342e32",
  "transactions": [
    {
      "hash": "0xec4b8617f86e3ee85ce69fd6fad3508d395b2159fa6921d977fe2ff3b6f2119c",
      "blockHash": "0x1d325f2d6355ac70eafeeeae842023b866058ce1bb69ba376abc7ab49c8b577a",
      "blockNumber": 55057,
      "transactionIndex": 0,
      "confirmations": null,
      "from": "0x6919dd5E5DFB1Afa404703B9fAeA8ceE35D00d70",
      "gasPrice": {
        "_hex": "0xcbcee6a77"
      },
      "gasLimit": {
        "_hex": "0x15f90"
      },
      "to": "0x2910543Af39abA0Cd09dBb2D50200b3E800A63D2",
      "value": {
        "_hex": "0xde0b6b3a7640000"
      },
      "nonce": 2,
      "data": "0x454e555947334b3038",
      "r": "0x8702b3bedc683626717aa37caf58c3c1b23a2dba614524552e2dab544fe212a5",
      "s": "0x2ecc81750a8c48c95d3e7debf151c88422fc73a9f0aa9522e253e11a3aaff45a",
      "v": 27,
      "creates": null,
      "raw": "0xf87602850cbcee6a7783015f90942910543af39aba0cd09dbb2d50200b3e800a63d2880de0b6b3a764000089454e555947334b30381ba08702b3bedc683626717aa37caf58c3c1b23a2dba614524552e2dab544fe212a5a02ecc81750a8c48c95d3e7debf151c88422fc73a9f0aa9522e253e11a3aaff45a",
      "networkId": 0,
      "chainId": 0
    }
  ]
}