{
  "hash": "0x34902f3657afc617a14f13d10e291ed6583dcaa56a2eebde90beeb7ceb1d547c",
  "parentHash": "0x9a5beb83effad6e1a7b48539706ef8dd5a41a6a52ed403c1e3744de91c00bf6b",
  "number": 88742,
  "timestamp": 1439612682,
  "nonce": "0x00d01e351c0d60a2",
  "difficulty": 3239453069202,
  "gasLimit": {
    "_hex": "0x2fefd8"
  },
  "gasUsed": {
    "_hex": "0xa674"
  },
  "miner": "0xe6A7a1d47ff21B6321162AEA7C6CB457D5476Bca",
  "extraData": "0x476574682f76312e302e312d38326566323666362f6c696e75782f676f312e34",
  "transactions": [
    {
      "hash": "0x65e5d3152a0b098781d7ad9023b19953ec4926374a54691eff6271e70d628695",
      "blockHash": "0x34902f3657afc617a14f13d10e291ed6583dcaa56a2eebde90beeb7ceb1d547c",
      "blockNumber": 88742,
      "transactionIndex": 0,
      "confirmations": null,
      "from": "0xe180De9e86F57BafaCd7904f9826b6b4B26337A3",
      "gasPrice": {
        "_hex": "0x110c8f7d8de"
      },
      "gasLimit": {
        "_hex": "0xc350"
      },
      "to": "0x2910543Af39abA0Cd09dBb2D50200b3E800A63D2",
      "value": {
        "_hex": "0x98a7d9b8314c0000"
      },
      "nonce": 1,
      "data": "0x454e434a5033463438",
      "r": "0x034d7e8a61910d672e0f3fae60cd70e250bcf89c674fd43a8bf74aed824d3131",
      "s": "0x921d2240542d4397039c15cbf4978871e8e60549e6a730b6c318b7da8b1d0063",
      "v": 28,
      "creates": null,
      "raw": "0xf87601860110c8f7d8de82c350942910543af39aba0cd09dbb2d50200b3e800a63d28898a7d9b8314c000089454e434a50334634381ca0034d7e8a61910d672e0f3fae60cd70e250bcf89c674fd43a8bf74aed824d3131a0921d2240542d4397039c15cbf4978871e8e60549e6a730b6c318b7da8b1d0063",
      "networkId": 0,
      "chainId": 0
    },
    {
      "hash": "0x2382045d87330c09426290a43305e91b601966caf6e58420122c198174ad6891",
      "blockHash": "0x34902f3657afc617a14f13d10e291ed6583dcaa56a2eebde90beeb7ceb1d547c",
      "blockNumber": 88742,
      "transactionIndex": 1,
      "confirmations": null,
      "from": "0xBe988a242876F4f3Bb535E67000C13129775a9e7",
      "gasPrice": {
        "_hex": "0xce6a057a8"
      },
      "gasLimit": {
        "_hex": "0x5208"
      },
      "to": "0x32Be343B94f860124dC4fEe278FDCBD38C102D88",
      "value": {
        "_hex": "0xdcad0f306e64400"
      },
      "nonce": 0,
      "data": "0x",
      "r": "0x6acae10d62f485299ea12ea9a2ac3cdccb41f323576607080310c3439f3e75af",
      "s": "0x6058997b05cf696ff34ec39cfc1a740f8ca000787aad4c3134596f461737649e",
      "v": 27,
      "creates": null,
      "raw": "0xf86c80850ce6a057a88252089432be343b94f860124dc4fee278fdcbd38c102d88880dcad0f306e64400801ba06acae10d62f485299ea12ea9a2ac3cdccb41f323576607080310c3439f3e75afa06058997b05cf696ff34ec39cfc1a740f8ca000787aad4c3134596f461737649e",
      "networkId": 0,
      "chainId": 0
    }
  ]
}