{
  "hash": "0xbf0266b67bc037ff609536e1fb7852944f29ae477f92ec978a3c9684a19a3fab",
  "parentHash": "0x3687c33d15ce4a92402b5c79dde45893a5b295826e18357d7ca497aca0642dc6",
  "number": 97607,
  "timestamp": 1439758741,
  "nonce": "0x961e942a4540e5a5",
  "difficulty": 3837257385949,
  "gasLimit": {
    "_hex": "0x2fefd8"
  },
  "gasUsed": {
    "_hex": "0x5208"
  },
  "miner": "0xe6A7a1d47ff21B6321162AEA7C6CB457D5476Bca",
  "extraData": "0x476574682f76312e302e312d38326566323666362f6c696e75782f676f312e34",
  "transactions": [
    {
      "hash": "0xcb8a6196b459b0c0cae4235157a65438ece2a868c08276a7f3311f53e7467a86",
      "blockHash": "0xbf0266b67bc037ff609536e1fb7852944f29ae477f92ec978a3c9684a19a3fab",
      "blockNumber": 97607,
      "transactionIndex": 0,
      "confirmations": null,
      "from": "0x32Be343B94f860124dC4fEe278FDCBD38C102D88",
      "gasPrice": {
        "_hex": "0xdf87cdf9f"
      },
      "gasLimit": {
        "_hex": "0x5208"
      },
      "to": "0xCE0B181265D6F609920a9AA65547C2a1e1F26FcB",
      "value": {
        "_hex": "0x282334b5437f340000"
      },
      "nonce": 1029,
      "data": "0x",
      "r": "0xa69dde2f930e5d12152bc24040d9572cfb6944919d41ac27b8f46ffcea415aed",
      "s": "0x060262e834ee2503aa25af1b4957214e7b152214a077be3b3086c64561b2148f",
      "v": 27,
      "creates": null,
      "raw": "0xf86f820405850df87cdf9f82520894ce0b181265d6f609920a9aa65547c2a1e1f26fcb89282334b5437f340000801ba0a69dde2f930e5d12152bc24040d9572cfb6944919d41ac27b8f46ffcea415aeda0060262e834ee2503aa25af1b4957214e7b152214a077be3b3086c64561b2148f",
      "networkId": 0,
      "chainId": 0
    }
  ]
}