{
  "hash": "0x32f5c8b5560c21b66f235af6827c78e13c641657d4b18b044842bc4a6d7f1cdd",
  "parentHash": "0x6324348bf13dc9e7ccba184821cc28138d698549df43344647f9f9db078440b9",
  "number": 64064,
  "timestamp": 1439214657,
  "nonce": "0x07259c3fcced66d2",
  "difficulty": 1858468130803,
  "gasLimit": {
    "_hex": "0x2fefd8"
  },
  "gasUsed": {
    "_hex": "0xddfd"
  },
  "miner": "0xA1623430350C5df1b52B0b57483A5bb45d1796Da",
  "extraData": "0x476574682f76312e302e312d38326566323666362f6c696e75782f676f312e34",
  "transactions": [
    {
      "hash": "0xcc6bbf4fa85548ce02b55bc011f0b79efa3d1e271b1f1038f28dd1fb0cf19f21",
      "blockHash": "0x32f5c8b5560c21b66f235af6827c78e13c641657d4b18b044842bc4a6d7f1cdd",
      "blockNumber": 64064,
      "transactionIndex": 0,
      "confirmations": null,
      "from": "0x378ea1dc8edc19BAe82638029eA8752ce98BcFCD",
      "gasPrice": {
        "_hex": "0x1000426811c"
      },
      "gasLimit": {
        "_hex": "0x61a80"
      },
      "to": "0x020522bF9B8eD6FF41E2fa6765a17E20E2767D64",
      "value": {
        "_hex": "0x56bc75e2d63100000"
      },
      "nonce": 11,
      "data": "0x",
      "r": "0xd2e93c7ae88dc47139b126dbc7e5eab490f1094965f9e5f055d3346cf89d8404",
      "s": "0x42099838aea98951395dc7b47125a0de400fb7b34bf5b6d6e69de468919c6d62",
      "v": 27,
      "creates": null,
      "raw": "0xf86f0b8601000426811c83061a8094020522bf9b8ed6ff41e2fa6765a17e20e2767d6489056bc75e2d63100000801ba0d2e93c7ae88dc47139b126dbc7e5eab490f1094965f9e5f055d3346cf89d8404a042099838aea98951395dc7b47125a0de400fb7b34bf5b6d6e69de468919c6d62",
      "networkId": 0,
      "chainId": 0
    }
  ]
}