{
  "hash": "0x56aede99641e8c057e6142721ce70d90e653793930a43889272fc04f9b655a07",
  "parentHash": "0x17c78e7fa0077c1a385b7ba666865461bdacfdb6b5c8dcdcced9502f87dc7601",
  "number": 50362,
  "timestamp": 1438987943,
  "nonce": "0x6ab3a4dc8a8c1cf9",
  "difficulty": 1510440873143,
  "gasLimit": {
    "_hex": "0x5e60a"
  },
  "gasUsed": {
    "_hex": "0x546c"
  },
  "miner": "0xf927a40C8B7F6E07c5af7FA2155B4864a4112B13",
  "extraData": "0x476574682f76312e302e312f6c696e75782f676f312e342e32",
  "transactions": [
    {
      "hash": "0x6b5d5131efbb42b776c7f6f18991b02355d3657a20ca8753157afeb31bcb84cb",
      "blockHash": "0x56aede99641e8c057e6142721ce70d90e653793930a43889272fc04f9b655a07",
      "blockNumber": 50362,
      "transactionIndex": 0,
      "confirmations": null,
      "from": "0x6e5c2D9B1c546a86Eefd5d0A5120c9e4e730190e",
      "gasPrice": {
        "_hex": "0x110c8f7d8de"
      },
      "gasLimit": {
        "_hex": "0xc350"
      },
      "to": "0x2910543Af39abA0Cd09dBb2D50200b3E800A63D2",
      "value": {
        "_hex": "0x6f05b59d3b20000"
      },
      "nonce": 1,
      "data": "0x454e52575045483838",
      "r": "0xdddc137a06b0becc6c810c0a829365356ca355df89c0782cb589f6df296bf924",
      "s": "0xf7f86dd3abdb76d259a9a36665307a8d9c61590835523065d144d740a403a369",
      "v": 28,
      "creates": null,
      "raw": "0xf87601860110c8f7d8de82c350942910543af39aba0cd09dbb2d50200b3e800a63d28806f05b59d3b2000089454e525750454838381ca0dddc137a06b0becc6c810c0a829365356ca355df89c0782cb589f6df296bf924a0f7f86dd3abdb76d259a9a36665307a8d9c61590835523065d144d740a403a369",
      "networkId": 0,
      "chainId": 0
    }
  ]
}