{
  "hash": "0x86c695b18444778e6f64150cb251953a6c820c8d16063f0e2b9df03492f64267",
  "parentHash": "0x130a0294e1b436d610f2716453724516d0475cc13136a092904dbbe402f4bd22",
  "number": 82451,
  "timestamp": 1439519523,
  "nonce": "0x208a08acc14acd20",
  "difficulty": 2379933151722,
  "gasLimit": {
    "_hex": "0x2fefd8"
  },
  "gasUsed": {
    "_hex": "0x5208"
  },
  "miner": "0x306e6267d94f23a9b37Cb110f20852208Fbbf1aA",
  "extraData": "0x",
  "transactions": [
    {
      "hash": "0x328f8c031afd903e62c93ee663cdd8348bf6807a1ce08707a4e0997a38e839d8",
      "blockHash": "0x86c695b18444778e6f64150cb251953a6c820c8d16063f0e2b9df03492f64267",
      "blockNumber": 82451,
      "transactionIndex": 0,
      "confirmations": null,
      "from": "0x0dA1C19DE6A62D505a3eC63379FDB6DcEc8284c7",
      "gasPrice": {
        "_hex": "0xce13ea411"
      },
      "gasLimit": {
        "_hex": "0x5208"
      },
      "to": "0x32Be343B94f860124dC4fEe278FDCBD38C102D88",
      "value": {
        "_hex": "0x5699c878b01f38000"
      },
      "nonce": 0,
      "data": "0x",
      "r": "0xc6fe68eb93bf9c6fe21e2c4e45c0eab79664074101ab97441996eadf2b7e60c7",
      "s": "0x6a64093f9ae99359ba76a454a25c78fdf2bf7901a519e1fc499b180dcedb9a22",
      "v": 28,
      "creates": null,
      "raw": "0xf86d80850ce13ea4118252089432be343b94f860124dc4fee278fdcbd38c102d888905699c878b01f38000801ca0c6fe68eb93bf9c6fe21e2c4e45c0eab79664074101ab97441996eadf2b7e60c7a06a64093f9ae99359ba76a454a25c78fdf2bf7901a519e1fc499b180dcedb9a22",
      "networkId": 0,
      "chainId": 0
    }
  ]
}