{
  "hash": "0x5842c2e03f448d5b7490b88cb9f87f8c208547cff24ce9ca656b2b0c29522514",
  "parentHash": "0xe69304703524258c54358c3cc2d2fc4aa7344c51540b0b2e9f384eb7086a3963",
  "number": 110601,
  "timestamp": 1439976507,
  "nonce": "0xa806879eb3d8fbaf",
  "difficulty": 4371231736410,
  "gasLimit": {
    "_hex": "0x2fefd8"
  },
  "gasUsed": {
    "_hex": "0xa410"
  },
  "miner": "0xf8E0CA3Ed80bd541b94BEdCf259e8CF2141A9523",
  "extraData": "0x476574682f76312e302e312f77696e646f77732f676f312e342e32",
  "transactions": [
    {
      "hash": "0x99e308226c4870fca0bbfda31bade9331b521fd36bced5f27ae7890d30aafb8d",
      "blockHash": "0x5842c2e03f448d5b7490b88cb9f87f8c208547cff24ce9ca656b2b0c29522514",
      "blockNumber": 110601,
      "transactionIndex": 0,
      "confirmations": null,
      "from": "0xE9820EfC74A9fe5fb68bf1e0FBf9945c1302bC0B",
      "gasPrice": {
        "_hex": "0xd6a03bd91"
      },
      "gasLimit": {
        "_hex": "0x5208"
      },
      "to": "0x32Be343B94f860124dC4fEe278FDCBD38C102D88",
      "value": {
        "_hex": "0xddc6a5283c51000"
      },
      "nonce": 7,
      "data": "0x",
      "r": "0x722638358a6ea651df35270ce51dd3915b13210791ec93ce7b8672e92ea741c8",
      "s": "0x2d89588656a344510a87fe4762ebedad18714d92d30e3774b5a318c3c46d4fe9",
      "v": 28,
      "creates": null,
      "raw": "0xf86c07850d6a03bd918252089432be343b94f860124dc4fee278fdcbd38c102d88880ddc6a5283c51000801ca0722638358a6ea651df35270ce51dd3915b13210791ec93ce7b8672e92ea741c8a02d89588656a344510a87fe4762ebedad18714d92d30e3774b5a318c3c46d4fe9",
      "networkId": 0,
      "chainId": 0
    },
    {
      "hash": "0x09b27495c0063ca00c3d8f0b71e6f79eaeeeae99a144cb0af607018b752b13e6",
      "blockHash": "0x5842c2e03f448d5b7490b88cb9f87f8c208547cff24ce9ca656b2b0c29522514",
      "blockNumber": 110601,
      "transactionIndex": 1,
      "confirmations": null,
      "from": "0x563e085b6739fd86ac81775dd9867Bac0c489b6A",
      "gasPrice": {
        "_hex": "0xd6a03bd91"
      },
      "gasLimit": {
        "_hex": "0x5208"
      },
      "to": "0x32Be343B94f860124dC4fEe278FDCBD38C102D88",
      "value": {
        "_hex": "0x2cf1ad991204c00"
      },
      "nonce": 1,
      "data": "0x",
      "r": "0x8700fe3d6b0e6b8fadb6c76f8579b36e0d63186ee215eca65c3f5475a385a064",
      "s": "0x0545f9801e3c908ce6399de85e9b2330743f58b2ea8fcdbf3ba032a9cdee63c3",
      "v": 28,
      "creates": null,
      "raw": "0xf86c01850d6a03bd918252089432be343b94f860124dc4fee278fdcbd38c102d888802cf1ad991204c00801ca08700fe3d6b0e6b8fadb6c76f8579b36e0d63186ee215eca65c3f5475a385a064a00545f9801e3c908ce6399de85e9b2330743f58b2ea8fcdbf3ba032a9cdee63c3",
      "networkId": 0,
      "chainId": 0
    }
  ]
}