{
  "hash": "0x2ae38b4f418d96ca19eb39777fba471804f7cd791aff2b9ab690a664b70aa9b6",
  "parentHash": "0x254129377134845530faa211c351913e6cc35d31e6b3a991f74f6f0027cd1eed",
  "number": 73002,
  "timestamp": 1439361645,
  "nonce": "0x6747705582aa9b7e",
  "difficulty": 2211103630857,
  "gasLimit": {
    "_hex": "0x2fefd8"
  },
  "gasUsed": {
    "_hex": "0x15f90"
  },
  "miner": "0xc18e792d3002202d60C3A8820fbccc2EBA1b0C2b",
  "extraData": "0x",
  "transactions": [
    {
      "hash": "0x75d97adc9078a0461f0e1c22ac3ef43b2f90b3922c2e0ac84aa29eba4a164033",
      "blockHash": "0x2ae38b4f418d96ca19eb39777fba471804f7cd791aff2b9ab690a664b70aa9b6",
      "blockNumber": 73002,
      "transactionIndex": 0,
      "confirmations": null,
      "from": "0x326Be8F71bFb0379f989aAB1CC1fE37f0a771f60",
      "gasPrice": {
        "_hex": "0x1112e91f5dc"
      },
      "gasLimit": {
        "_hex": "0x15f90"
      },
      "to": "0x7153FdeEf24E488Af4dc001F620407764ee47747",
      "value": {
        "_hex": "0x0"
      },
      "nonce": 25,
      "data": "0x8d21618600000000000000000000000000000000000000000000000000000000000000806361740000000000000000000000000000000000000000000000000000000000",
      "r": "0x24251264473d6859545eb16e125a643c74e6b41e92ff14164ca3159a92f77894",
      "s": "0x1438d82111825528306ba64df90c7895c457dd2f184b123bf298aa1c74184f93",
      "v": 27,
      "creates": null,
      "raw": "0xf8ab198601112e91f5dc83015f90947153fdeef24e488af4dc001f620407764ee4774780b8448d216186000000000000000000000000000000000000000000000000000000000000008063617400000000000000000000000000000000000000000000000000000000001ba024251264473d6859545eb16e125a643c74e6b41e92ff14164ca3159a92f77894a01438d82111825528306ba64df90c7895c457dd2f184b123bf298aa1c74184f93",
      "networkId": 0,
      "chainId": 0
    }
  ]
}