{
  "hash": "0xe617983a7e00c380871a99bf578b5302d25f8fdb0fd693134ad5615453af0acf",
  "parentHash": "0x3438e88fbb3eca46f4e2209d2cffd80f95b2033c18cf6a92021d7ac146890f33",
  "number": 120937,
  "timestamp": 1440168761,
  "nonce": "0xd37cd14efba61ac2",
  "difficulty": 4421628191684,
  "gasLimit": {
    "_hex": "0x2fefd8"
  },
  "gasUsed": {
    "_hex": "0xa410"
  },
  "miner": "0x608f4b86321a68453f9adf6F06F7Fc3E621739ad",
  "extraData": "0xd783010002844765746887676f312e342e32856c696e7578",
  "transactions": [
    {
      "hash": "0xf6f88e203da531884deab762155e5ed58f3a1b1ea0f965b2a4b0e62533c84493",
      "blockHash": "0xe617983a7e00c380871a99bf578b5302d25f8fdb0fd693134ad5615453af0acf",
      "blockNumber": 120937,
      "transactionIndex": 0,
      "confirmations": null,
      "from": "0x32Be343B94f860124dC4fEe278FDCBD38C102D88",
      "gasPrice": {
        "_hex": "0xba43b7400"
      },
      "gasLimit": {
        "_hex": "0x5208"
      },
      "to": "0xEe80Ef3c49d9465c7fC2B3D7373FdbBbc3FE282f",
      "value": {
        "_hex": "0x4678fc415b98100000"
      },
      "nonce": 1539,
      "data": "0x",
      "r": "0x22abe4c894296cc8134ffa8fa9c70eae00d981a5dc596152ae7fd32605c029bb",
      "s": "0x2310dce5323dd2f467c5809f26043139eaa1d8356bcbd4ad289a5b07f964b62d",
      "v": 28,
      "creates": null,
      "raw": "0xf86f820603850ba43b740082520894ee80ef3c49d9465c7fc2b3d7373fdbbbc3fe282f894678fc415b98100000801ca022abe4c894296cc8134ffa8fa9c70eae00d981a5dc596152ae7fd32605c029bba02310dce5323dd2f467c5809f26043139eaa1d8356bcbd4ad289a5b07f964b62d",
      "networkId": 0,
      "chainId": 0
    },
    {
      "hash": "0x3c53e9eb4aca0b1e93548e917c62f1b008cfc2657ee86fe9d78929eecb336b91",
      "blockHash": "0xe617983a7e00c380871a99bf578b5302d25f8fdb0fd693134ad5615453af0acf",
      "blockNumber": 120937,
      "transactionIndex": 1,
      "confirmations": null,
      "from": "0xFAB194aC2F8437fAdDeC28952ae2B2CB4F588E38",
      "gasPrice": {
        "_hex": "0xba43b7400"
      },
      "gasLimit": {
        "_hex": "0x15f90"
      },
      "to": "0x23f2D0fd3B4C98Fb1698564deB4898275E2e831f",
      "value": {
        "_hex": "0x58d15e176280000"
      },
      "nonce": 5,
      "data": "0x",
      "r": "0x5895769e7e6520ac4305b79b6bfcedad81086addaffc1866ef9cf76f52e5c950",
      "s": "0x7cb022306b56bb2101a59ff2dc03d55ddce999f962f09f6fdf5b4791142c26c8",
      "v": 27,
      "creates": null,
      "raw": "0xf86d05850ba43b740083015f909423f2d0fd3b4c98fb1698564deb4898275e2e831f88058d15e176280000801ba05895769e7e6520ac4305b79b6bfcedad81086addaffc1866ef9cf76f52e5c950a07cb022306b56bb2101a59ff2dc03d55ddce999f962f09f6fdf5b4791142c26c8",
      "networkId": 0,
      "chainId": 0
    }
  ]
}