{
  "hash": "0x6f836f2348697a95fc619cadacd2acc51ebc87ae73ffbb9a2d28bd4ec8677460",
  "parentHash": "0x1dde85843c759b43cd5d14bb7d5ce361f27f36a50e7c024fbb1834962a4eff16",
  "number": 86754,
  "timestamp": 1439582378,
  "nonce": "0x8299d1ec818b7ea1",
  "difficulty": 2950254655221,
  "gasLimit": {
    "_hex": "0x2fefd8"
  },
  "gasUsed": {
    "_hex": "0x19a28"
  },
  "miner": "0xe6A7a1d47ff21B6321162AEA7C6CB457D5476Bca",
  "extraData": "0x476574682f76312e302e312d38326566323666362f6c696e75782f676f312e34",
  "transactions": [
    {
      "hash": "0xed5f2d808dd32860bf79404ace696fa63744183cd0fb8d51df5042de8bfd9949",
      "blockHash": "0x6f836f2348697a95fc619cadacd2acc51ebc87ae73ffbb9a2d28bd4ec8677460",
      "blockNumber": 86754,
      "transactionIndex": 0,
      "confirmations": null,
      "from": "0x6ca3173089AA3f7661ef2B627647A2ef685d15E3",
      "gasPrice": {
        "_hex": "0xd754823d4"
      },
      "gasLimit": {
        "_hex": "0x5208"
      },
      "to": "0x32Be343B94f860124dC4fEe278FDCBD38C102D88",
      "value": {
        "_hex": "0x43c33ab7ffeb2800000"
      },
      "nonce": 1,
      "data": "0x",
      "r": "0xe8ea6e22dbd74352b36c0b24d50b8f60e193b62a2404385116c1f5f249bfb656",
      "s": "0x1508da599c96dd72e3eb8aadfc4164110ef4ff3d74aa9e64cfbf403a5f47cf42",
      "v": 27,
      "creates": null,
      "raw": "0xf86e01850d754823d48252089432be343b94f860124dc4fee278fdcbd38c102d888a043c33ab7ffeb2800000801ba0e8ea6e22dbd74352b36c0b24d50b8f60e193b62a2404385116c1f5f249bfb656a01508da599c96dd72e3eb8aadfc4164110ef4ff3d74aa9e64cfbf403a5f47cf42",
      "networkId": 0,
      "chainId": 0
    },
    {
      "hash": "0xb4ca0920392ae7e6c9a72b02f7d1c39f72bc9f46a965b31b6a9fff886bf4a9b4",
      "blockHash": "0x6f836f2348697a95fc619cadacd2acc51ebc87ae73ffbb9a2d28bd4ec8677460",
      "blockNumber": 86754,
      "transactionIndex": 1,
      "confirmations": null,
      "from": "0x32Be343B94f860124dC4fEe278FDCBD38C102D88",
      "gasPrice": {
        "_hex": "0xd754823d4"
      },
      "gasLimit": {
        "_hex": "0x5208"
      },
      "to": "0x3545FcD68a755C8464b5aa1687F81303508d6507",
      "value": {
        "_hex": "0x8aa39c121a270000"
      },
      "nonce": 766,
      "data": "0x",
      "r": "0x376d16abe558a3a48ab4bbdd6dbd2e44f1ce004aca4bcbdc592ee41d7c6153d1",
      "s": "0x1900cfd949c506237799120d4745810d0a2b3ede205cffde2dc372d38cbac333",
      "v": 27,
      "creates": null,
      "raw": "0xf86e8202fe850d754823d4825208943545fcd68a755c8464b5aa1687f81303508d6507888aa39c121a270000801ba0376d16abe558a3a48ab4bbdd6dbd2e44f1ce004aca4bcbdc592ee41d7c6153d1a01900cfd949c506237799120d4745810d0a2b3ede205cffde2dc372d38cbac333",
      "networkId": 0,
      "chainId": 0
    },
    {
      "hash": "0x8bd1edb2aa6d8f886cfb44210bdf3ed491365aa7c7ca87abdd1a7d30354a867b",
      "blockHash": "0x6f836f2348697a95fc619cadacd2acc51ebc87ae73ffbb9a2d28bd4ec8677460",
      "blockNumber": 86754,
      "transactionIndex": 2,
      "confirmations": null,
      "from": "0x2753Eb7f173C1e8B9F5315395ef4608F92b637AB",
      "gasPrice": {
        "_hex": "0xd754823d4"
      },
      "gasLimit": {
        "_hex": "0x5208"
      },
      "to": "0x32Be343B94f860124dC4fEe278FDCBD38C102D88",
      "value": {
        "_hex": "0xddc66b62d547c00"
      },
      "nonce": 0,
      "data": "0x",
      "r": "0x0a13f89c9956793a71e21731d33c340214e8c50ae2877b805a798be79203cffa",
      "s": "0x5a81ec961d6f7a9d7088521549f273b1ab26e006ea813c5946568f7b60e6831d",
      "v": 27,
      "creates": null,
      "raw": "0xf86c80850d754823d48252089432be343b94f860124dc4fee278fdcbd38c102d88880ddc66b62d547c00801ba00a13f89c9956793a71e21731d33c340214e8c50ae2877b805a798be79203cffaa05a81ec961d6f7a9d7088521549f273b1ab26e006ea813c5946568f7b60e6831d",
      "networkId": 0,
      "chainId": 0
    },
    {
      "hash": "0xb1d9b03db11b21196751c277b3e57e7d65410d8cc1b381725ad2b05ecab1d319",
      "blockHash": "0x6f836f2348697a95fc619cadacd2acc51ebc87ae73ffbb9a2d28bd4ec8677460",
      "blockNumber": 86754,
      "transactionIndex": 3,
      "confirmations": null,
      "from": "0xeFFFe92E81e65eA3AD7C8C87D370e1CD31b0cac4",
      "gasPrice": {
        "_hex": "0xd754823d4"
      },
      "gasLimit": {
        "_hex": "0x5208"
      },
      "to": "0x32Be343B94f860124dC4fEe278FDCBD38C102D88",
      "value": {
        "_hex": "0x4e0fbf62c9f4c4000"
      },
      "nonce": 2,
      "data": "0x",
      "r": "0xccfed36e492153ca8e034e64b6aebe751866db8693e68aa1e674f17c676d3f43",
      "s": "0x32e6694467a51b9caad237805611e03ae9992ba465a13b43b9f2ca4abd6665a2",
      "v": 27,
      "creates": null,
      "raw": "0xf86d02850d754823d48252089432be343b94f860124dc4fee278fdcbd38c102d888904e0fbf62c9f4c4000801ba0ccfed36e492153ca8e034e64b6aebe751866db8693e68aa1e674f17c676d3f43a032e6694467a51b9caad237805611e03ae9992ba465a13b43b9f2ca4abd6665a2",
      "networkId": 0,
      "chainId": 0
    },
    {
      "hash": "0xe8cbdba424233eac2f698a5a5fc178f3d085a94299db809280d1fcb63d99cd0f",
      "blockHash": "0x6f836f2348697a95fc619cadacd2acc51ebc87ae73ffbb9a2d28bd4ec8677460",
      "blockNumber": 86754,
      "transactionIndex": 4,
      "confirmations": null,
      "from": "0x32Be343B94f860124dC4fEe278FDCBD38C102D88",
      "gasPrice": {
        "_hex": "0xd754823d4"
      },
      "gasLimit": {
        "_hex": "0x5208"
      },
      "to": "0xdE79c5895EB57d39465fD6dFF8D7746D487019cd",
      "value": {
        "_hex": "0xdbd2fc137a30000"
      },
      "nonce": 767,
      "data": "0x",
      "r": "0x86a338a40801200022d9e5b3fd6d4432e3acc7f42fbc40fdd9afcfbdaf315763",
      "s": "0x3028b5a8fb36539db34197587d32e43634cd8b1d5221afa1ab13c81548225468",
      "v": 28,
      "creates": null,
      "raw": "0xf86e8202ff850d754823d482520894de79c5895eb57d39465fd6dff8d7746d487019cd880dbd2fc137a30000801ca086a338a40801200022d9e5b3fd6d4432e3acc7f42fbc40fdd9afcfbdaf315763a03028b5a8fb36539db34197587d32e43634cd8b1d5221afa1ab13c81548225468",
      "networkId": 0,
      "chainId": 0
    }
  ]
}