{
  "hash": "0xf4cf3b15001fe7e597ac5135a59ddf509145fa6b65c98549c5fd4f3a63b8aefd",
  "parentHash": "0x3e4a4c0b02dae04482ce6bcf38089d863581254c8644d4a88663cb54ba77d16f",
  "number": 47850,
  "timestamp": 1438947392,
  "nonce": "0x1b85b2a654e20c2d",
  "difficulty": 1458698760207,
  "gasLimit": {
    "_hex": "0xfc4c"
  },
  "gasUsed": {
    "_hex": "0x53e4"
  },
  "miner": "0x580992B51e3925e23280EfB93d3047C82f17E038",
  "extraData": "0x476574682f76312e302e312f6c696e75782f676f312e342e32",
  "transactions": [
    {
      "hash": "0xdef84ee884382e4771033205cadf8b534fb3678545263a9d61e97e105703553e",
      "blockHash": "0xf4cf3b15001fe7e597ac5135a59ddf509145fa6b65c98549c5fd4f3a63b8aefd",
      "blockNumber": 47850,
      "transactionIndex": 0,
      "confirmations": null,
      "from": "0x5d7A51290EAAf19876F6Ea7f2Fabf0B12BAE55bd",
      "gasPrice": {
        "_hex": "0xa7a358200"
      },
      "gasLimit": {
        "_hex": "0x55f0"
      },
      "to": "0x3420Ea223b7dbAFE4D72Ed16E7073a87D1874758",
      "value": {
        "_hex": "0xddfd353fe326000"
      },
      "nonce": 1,
      "data": "0x43727970746f43",
      "r": "0x00ae6c58fb832359976077ce661d625369e513979bcd763cb8b5828f5c9bf9c2",
      "s": "0x6f5fd76a9ae6140ca692b00f35d27b471f952f194574ab4eda1f83bfa3ca4229",
      "v": 27,
      "creates": null,
      "raw": "0xf87201850a7a3582008255f0943420ea223b7dbafe4d72ed16e7073a87d1874758880ddfd353fe3260008743727970746f431b9fae6c58fb832359976077ce661d625369e513979bcd763cb8b5828f5c9bf9c2a06f5fd76a9ae6140ca692b00f35d27b471f952f194574ab4eda1f83bfa3ca4229",
      "networkId": 0,
      "chainId": 0
    }
  ]
}