{
  "hash": "0x3f5c0330e92d73fbb2b332ab9bfbc603bbcc2ef7487db7259f6de6a4e5246bc4",
  "parentHash": "0x74ab4f31524e45a62ae1fe49ec0048ff83eb3fa1ec724894bac2182847814f89",
  "number": 80153,
  "timestamp": 1439481010,
  "nonce": "0x1f87c74b425db138",
  "difficulty": 2362059344502,
  "gasLimit": {
    "_hex": "0x2fefd8"
  },
  "gasUsed": {
    "_hex": "0x11d61"
  },
  "miner": "0xfFcD9CAE6d9f54fd8ae05296F839892677ff6EaA",
  "extraData": "0x476574682f76312e302e312f77696e646f77732f676f312e342e32",
  "transactions": [
    {
      "hash": "0x7f81e98f79a6027328d275c7dbe606c2ce036c1fff0824073f491a74803c7c02",
      "blockHash": "0x3f5c0330e92d73fbb2b332ab9bfbc603bbcc2ef7487db7259f6de6a4e5246bc4",
      "blockNumber": 80153,
      "transactionIndex": 0,
      "confirmations": null,
      "from": "0x87C5B5874A18B4306DF8a752a6C8cc3E82daFc19",
      "gasPrice": {
        "_hex": "0x10b1cfaaa9d"
      },
      "gasLimit": {
        "_hex": "0x493e0"
      },
      "to": "0xC4c51de1AbF5D60DBd329eC0F999Fd8f021ae9fC",
      "value": {
        "_hex": "0x3c631853ab64b922"
      },
      "nonce": 132,
      "data": "0x8d216186000000000000000000000000000000000000000000000000000000000000001ad3d96ceed0cfca4794c2a5a3d3aeefe69da0a2a669e66a5651f30b64831c3db0",
      "r": "0x6f6f8835ce87d899492a85d1d959e2aad6f2d2a55ffd8931e6dc173fb5f6404c",
      "s": "0x19be2e3e58c50b06d61a4f3a07b7bb9f6eef2bc431996fd1e7ca624d9fc8607c",
      "v": 28,
      "creates": null,
      "raw": "0xf8b4818486010b1cfaaa9d830493e094c4c51de1abf5d60dbd329ec0f999fd8f021ae9fc883c631853ab64b922b8448d216186000000000000000000000000000000000000000000000000000000000000001ad3d96ceed0cfca4794c2a5a3d3aeefe69da0a2a669e66a5651f30b64831c3db01ca06f6f8835ce87d899492a85d1d959e2aad6f2d2a55ffd8931e6dc173fb5f6404ca019be2e3e58c50b06d61a4f3a07b7bb9f6eef2bc431996fd1e7ca624d9fc8607c",
      "networkId": 0,
      "chainId": 0
    },
    {
      "hash": "0xb411c883179fbedf4beec27b885a550642a1f01d856ba8e1cda731a82b86ac99",
      "blockHash": "0x3f5c0330e92d73fbb2b332ab9bfbc603bbcc2ef7487db7259f6de6a4e5246bc4",
      "blockNumber": 80153,
      "transactionIndex": 1,
      "confirmations": null,
      "from": "0x32Be343B94f860124dC4fEe278FDCBD38C102D88",
      "gasPrice": {
        "_hex": "0xd422efca8"
      },
      "gasLimit": {
        "_hex": "0x5208"
      },
      "to": "0xE54C51118A2Cc163BC4BDb7C653Ab45Fc179d928",
      "value": {
        "_hex": "0x56ba3d73af34f0000"
      },
      "nonce": 513,
      "data": "0x",
      "r": "0x23d89a59560093912ad6aa9de685083811cba7300869199480e8742dc07ecc0d",
      "s": "0x33ef4cd68ec6a823c1d67029c0d75330f6a1cc63c271e50c248662d779d89bee",
      "v": 28,
      "creates": null,
      "raw": "0xf86f820201850d422efca882520894e54c51118a2cc163bc4bdb7c653ab45fc179d92889056ba3d73af34f0000801ca023d89a59560093912ad6aa9de685083811cba7300869199480e8742dc07ecc0da033ef4cd68ec6a823c1d67029c0d75330f6a1cc63c271e50c248662d779d89bee",
      "networkId": 0,
      "chainId": 0
    },
    {
      "hash": "0x6b5bd03377aacefd4a058c2ebca81f14df96f27bdad1c523412bfd02f41890d7",
      "blockHash": "0x3f5c0330e92d73fbb2b332ab9bfbc603bbcc2ef7487db7259f6de6a4e5246bc4",
      "blockNumber": 80153,
      "transactionIndex": 2,
      "confirmations": null,
      "from": "0x32Be343B94f860124dC4fEe278FDCBD38C102D88",
      "gasPrice": {
        "_hex": "0xd422efca8"
      },
      "gasLimit": {
        "_hex": "0x5208"
      },
      "to": "0x1BF5b1581819E4B545F5A57c246E5C96e27C876e",
      "value": {
        "_hex": "0x40513a8af322e800"
      },
      "nonce": 514,
      "data": "0x",
      "r": "0x94c4410c21608ad00fe16663f0b666dad6470a33ac8b17e8f56ff7ca938f2d3f",
      "s": "0x50abf354d108052c2519bf4da70f34dfbe5c86a1154ebe0784af78be17654786",
      "v": 27,
      "creates": null,
      "raw": "0xf86e820202850d422efca8825208941bf5b1581819e4b545f5a57c246e5c96e27c876e8840513a8af322e800801ba094c4410c21608ad00fe16663f0b666dad6470a33ac8b17e8f56ff7ca938f2d3fa050abf354d108052c2519bf4da70f34dfbe5c86a1154ebe0784af78be17654786",
      "networkId": 0,
      "chainId": 0
    }
  ]
}