{
  "hash": "0xa23ab30e77bce640bb041b215cc350d52bd7f44c82a4f9f5ee624360ae0c27d0",
  "parentHash": "0x6a6ccb9d575e6179357872ea21748b637c1b4e6de1ba55a9991c05509f729e28",
  "number": 83243,
  "timestamp": 1439532532,
  "nonce": "0x9b374de56775374b",
  "difficulty": 2414824043626,
  "gasLimit": {
    "_hex": "0x2fefd8"
  },
  "gasUsed": {
    "_hex": "0x5208"
  },
  "miner": "0xe6A7a1d47ff21B6321162AEA7C6CB457D5476Bca",
  "extraData": "0x476574682f76312e302e312d38326566323666362f6c696e75782f676f312e34",
  "transactions": [
    {
      "hash": "0x3034cb6dab949bc91ac29b1d3d438441ce1b3c2f93c4eeced926d1fb581b29b9",
      "blockHash": "0xa23ab30e77bce640bb041b215cc350d52bd7f44c82a4f9f5ee624360ae0c27d0",
      "blockNumber": 83243,
      "transactionIndex": 0,
      "confirmations": null,
      "from": "0x6A8CC233E14F874983bB2F37D1DE706f6910Ef0b",
      "gasPrice": {
        "_hex": "0xd69bb4315"
      },
      "gasLimit": {
        "_hex": "0x5208"
      },
      "to": "0x32Be343B94f860124dC4fEe278FDCBD38C102D88",
      "value": {
        "_hex": "0x63bedc66a56c40000"
      },
      "nonce": 8,
      "data": "0x",
      "r": "0x2960298343571d7dadd4c15954fcaa657ffe213c417b9e39bc1b8f6f00532b1b",
      "s": "0x529b80ec96ab7c6d0a8bae4cc4eec7c68a4ee72ba18f98633e81f992c7ad8ca4",
      "v": 28,
      "creates": null,
      "raw": "0xf86d08850d69bb43158252089432be343b94f860124dc4fee278fdcbd38c102d8889063bedc66a56c40000801ca02960298343571d7dadd4c15954fcaa657ffe213c417b9e39bc1b8f6f00532b1ba0529b80ec96ab7c6d0a8bae4cc4eec7c68a4ee72ba18f98633e81f992c7ad8ca4",
      "networkId": 0,
      "chainId": 0
    }
  ]
}