{
  "hash": "0xf4f8a792494362d61b8c1f919afa01b532549dc78d550e91c5deba13174ee391",
  "parentHash": "0x011aaaa4e2169179476498db0a3deb03ce644a7d42d45432cb373c3c8b778d55",
  "number": 102463,
  "timestamp": 1439838439,
  "nonce": "0x35a577d41c1ee8ff",
  "difficulty": 3960639783424,
  "gasLimit": {
    "_hex": "0x2fefd8"
  },
  "gasUsed": {
    "_hex": "0x5208"
  },
  "miner": "0xe6A7a1d47ff21B6321162AEA7C6CB457D5476Bca",
  "extraData": "0x476574682f76312e302e312d38326566323666362f6c696e75782f676f312e34",
  "transactions": [
    {
      "hash": "0xb9545d7d71f938cea202f5dcf31c5466d423c094637497b9fb33cf9f25d5693f",
      "blockHash": "0xf4f8a792494362d61b8c1f919afa01b532549dc78d550e91c5deba13174ee391",
      "blockNumber": 102463,
      "transactionIndex": 0,
      "confirmations": null,
      "from": "0xd10E6C4B44Ee5557dF0f11239Ca4BE5025791E8E",
      "gasPrice": {
        "_hex": "0xd12a44c2c"
      },
      "gasLimit": {
        "_hex": "0x7a120"
      },
      "to": "0xBBDa93a81B882774e1c9b5e3F933Fa35DaC8bc88",
      "value": {
        "_hex": "0x11523b131c48d0000"
      },
      "nonce": 0,
      "data": "0x",
      "r": "0xe32acec0fd3092bbe0412e6286a7671c863b47c1198fa7d8f4130beba29536ab",
      "s": "0x451bb9b1ebf9fd26c1f800719fab8509ff960df8cf4ca387b5f35dea00cc2c6a",
      "v": 27,
      "creates": null,
      "raw": "0xf86e80850d12a44c2c8307a12094bbda93a81b882774e1c9b5e3f933fa35dac8bc8889011523b131c48d0000801ba0e32acec0fd3092bbe0412e6286a7671c863b47c1198fa7d8f4130beba29536aba0451bb9b1ebf9fd26c1f800719fab8509ff960df8cf4ca387b5f35dea00cc2c6a",
      "networkId": 0,
      "chainId": 0
    }
  ]
}