{
  "hash": "0xaf62b60a452d790d077bb3f85bfa3c01248ff12c14f18d1a923b1d2e3ca9cdb7",
  "parentHash": "0x5b9ffa751a51aa712da2e76476b48920a4cf5f23c2794f62f5cc288a4410c3bf",
  "number": 67186,
  "timestamp": 1439267446,
  "nonce": "0x211af5c622c06005",
  "difficulty": 1928012672971,
  "gasLimit": {
    "_hex": "0x2fefd8"
  },
  "gasUsed": {
    "_hex": "0x5208"
  },
  "miner": "0x88D74a59454F6cF3B51ef6b9136AFb6b9D405A88",
  "extraData": "0x476574682f76312e302e312d37666266393930632f6c696e75782f676f312e34",
  "transactions": [
    {
      "hash": "0xfcc527e1054503e946e8c3ba468e2f3eead33d0bfe6953a13a6aa681771745a9",
      "blockHash": "0xaf62b60a452d790d077bb3f85bfa3c01248ff12c14f18d1a923b1d2e3ca9cdb7",
      "blockNumber": 67186,
      "transactionIndex": 0,
      "confirmations": null,
      "from": "0x120A270bbC009644e35F0bB6ab13f95b8199c4ad",
      "gasPrice": {
        "_hex": "0xda621e449"
      },
      "gasLimit": {
        "_hex": "0x15f90"
      },
      "to": "0x7244C460dEA1e5835772469AbBF5426D4ad14d59",
      "value": {
        "_hex": "0x4703e6eb5291b80000"
      },
      "nonce": 158,
      "data": "0x",
      "r": "0xe6e4e9b8643cb7b6b533d6659920e521e8ba6258dd3e50adeb08f02a63f94643",
      "s": "0x6690a0838477d504681c4180179c45fd7b8dcb2eb050b9a660bd64b4058c3163",
      "v": 27,
      "creates": null,
      "raw": "0xf86f819e850da621e44983015f90947244c460dea1e5835772469abbf5426d4ad14d59894703e6eb5291b80000801ba0e6e4e9b8643cb7b6b533d6659920e521e8ba6258dd3e50adeb08f02a63f94643a06690a0838477d504681c4180179c45fd7b8dcb2eb050b9a660bd64b4058c3163",
      "networkId": 0,
      "chainId": 0
    }
  ]
}