{
  "hash": "0x2a23b7f36580e5863af61f61d86537de6cb20c46a653eb9c5f9fc2bb164a0603",
  "parentHash": "0xd74e93d8426b2b0f5054e6355ddef68426f9c4cc89222c95f0fc33d9081c24ed",
  "number": 119357,
  "timestamp": 1440141387,
  "nonce": "0x4f6422aafb0a3c2c",
  "difficulty": 4409523617506,
  "gasLimit": {
    "_hex": "0x2fefd8"
  },
  "gasUsed": {
    "_hex": "0x5208"
  },
  "miner": "0xe6A7a1d47ff21B6321162AEA7C6CB457D5476Bca",
  "extraData": "0xd783010002844765746887676f312e342e32856c696e7578",
  "transactions": [
    {
      "hash": "0x6e0fee2d54407c44f2a16384ee7eb2eb47a3c695cb664f34ecbd2a41896480e6",
      "blockHash": "0x2a23b7f36580e5863af61f61d86537de6cb20c46a653eb9c5f9fc2bb164a0603",
      "blockNumber": 119357,
      "transactionIndex": 0,
      "confirmations": null,
      "from": "0x1543667B9bad3e41865C3233E1764d8dda8E1F3D",
      "gasPrice": {
        "_hex": "0xba43b7400"
      },
      "gasLimit": {
        "_hex": "0x5208"
      },
      "to": "0x32Be343B94f860124dC4fEe278FDCBD38C102D88",
      "value": {
        "_hex": "0x396e3f46962f3000"
      },
      "nonce": 16,
      "data": "0x",
      "r": "0xe3d9bae377b1b6b3265c24224681e5526e3087cf8302e1ccca8b8320e5e4325a",
      "s": "0x6a13cc7a2eae42e289dfc5accfb5d3dc2ead2676ce26ded1062e7d85eea858ae",
      "v": 27,
      "creates": null,
      "raw": "0xf86c10850ba43b74008252089432be343b94f860124dc4fee278fdcbd38c102d8888396e3f46962f3000801ba0e3d9bae377b1b6b3265c24224681e5526e3087cf8302e1ccca8b8320e5e4325aa06a13cc7a2eae42e289dfc5accfb5d3dc2ead2676ce26ded1062e7d85eea858ae",
      "networkId": 0,
      "chainId": 0
    }
  ]
}