{
  "hash": "0x94ff1e0faa87b77ee7b0a3bc5d16f107b9a474d24558262f7d3332b7e4d1774b",
  "parentHash": "0x567c74009e1bc256b4ceb3e7c40463aabb3a250eeac70a3e34419db0bdfc9837",
  "number": 121837,
  "timestamp": 1440183467,
  "nonce": "0x0cc76970a978cf65",
  "difficulty": 4490776875487,
  "gasLimit": {
    "_hex": "0x2fefd8"
  },
  "gasUsed": {
    "_hex": "0xa410"
  },
  "miner": "0x52bc44d5378309EE2abF1539BF71dE1b7d7bE3b5",
  "extraData": "0xd783010002844765746887676f312e342e32856c696e7578",
  "transactions": [
    {
      "hash": "0x00c9ed3cfddc7c5b9756b157a790c8511abba85adfe0902f132894236c1d8ce9",
      "blockHash": "0x94ff1e0faa87b77ee7b0a3bc5d16f107b9a474d24558262f7d3332b7e4d1774b",
      "blockNumber": 121837,
      "transactionIndex": 0,
      "confirmations": null,
      "from": "0x0D6D909581388c94e7F15CAd3293F940180486a3",
      "gasPrice": {
        "_hex": "0x746a528800"
      },
      "gasLimit": {
        "_hex": "0x5b04"
      },
      "to": "0x97D351634e7f843376938A697d736B86876c6709",
      "value": {
        "_hex": "0x38d7ea4c68000"
      },
      "nonce": 0,
      "data": "0x",
      "r": "0x857394d76be7418add0d0531e82e1f2b4c098e48d5e3a9970c27b649ea1699de",
      "s": "0x5fa971a0bad8cb65b256cbf82934d39fe05577b61c2caafe15dc5a210ff689ad",
      "v": 27,
      "creates": null,
      "raw": "0xf86b8085746a528800825b049497d351634e7f843376938a697d736b86876c670987038d7ea4c68000801ba0857394d76be7418add0d0531e82e1f2b4c098e48d5e3a9970c27b649ea1699dea05fa971a0bad8cb65b256cbf82934d39fe05577b61c2caafe15dc5a210ff689ad",
      "networkId": 0,
      "chainId": 0
    },
    {
      "hash": "0xb59015d40f1ad2d3cfe979564c5fa3ff1f4eaa3de603f9554a8c15ed81eb6c28",
      "blockHash": "0x94ff1e0faa87b77ee7b0a3bc5d16f107b9a474d24558262f7d3332b7e4d1774b",
      "blockNumber": 121837,
      "transactionIndex": 1,
      "confirmations": null,
      "from": "0x32Be343B94f860124dC4fEe278FDCBD38C102D88",
      "gasPrice": {
        "_hex": "0xd28eee944"
      },
      "gasLimit": {
        "_hex": "0x5208"
      },
      "to": "0xBeEC2A78aD28d873e968C60963cD2Fdf396FB594",
      "value": {
        "_hex": "0x8f6712ee5d3280000"
      },
      "nonce": 1578,
      "data": "0x",
      "r": "0x4c39685d3060fa0e35381996d7b7e589107dc29770509ca0872c53e3755dfcdf",
      "s": "0x104dc032f51a595b232b18ba23d1b801b499b3118a96ca3294321d622e3750cb",
      "v": 27,
      "creates": null,
      "raw": "0xf86f82062a850d28eee94482520894beec2a78ad28d873e968c60963cd2fdf396fb5948908f6712ee5d3280000801ba04c39685d3060fa0e35381996d7b7e589107dc29770509ca0872c53e3755dfcdfa0104dc032f51a595b232b18ba23d1b801b499b3118a96ca3294321d622e3750cb",
      "networkId": 0,
      "chainId": 0
    }
  ]
}