{
  "hash": "0x87d2e68b9ca19d1c64b396c72272bee392da1f2c29a27f7fa247715d019eb899",
  "parentHash": "0x4e50f02ba407f14d6e47f3541bdc60e8f51aeaeea275449c0927aa08cda23d49",
  "number": 52204,
  "timestamp": 1439018045,
  "nonce": "0x30aefeaecf5ee90c",
  "difficulty": 1553487352263,
  "gasLimit": {
    "_hex": "0x1135f4"
  },
  "gasUsed": {
    "_hex": "0x5208"
  },
  "miner": "0xe6A7a1d47ff21B6321162AEA7C6CB457D5476Bca",
  "extraData": "0x657468706f6f6c2e6f7267",
  "transactions": [
    {
      "hash": "0x90643f547578707f7b88ef2a43da9dcf156f215331a5e28d632c52a06de60f54",
      "blockHash": "0x87d2e68b9ca19d1c64b396c72272bee392da1f2c29a27f7fa247715d019eb899",
      "blockNumber": 52204,
      "transactionIndex": 0,
      "confirmations": null,
      "from": "0x32Be343B94f860124dC4fEe278FDCBD38C102D88",
      "gasPrice": {
        "_hex": "0xe00bed30a"
      },
      "gasLimit": {
        "_hex": "0x5208"
      },
      "to": "0xB0f264dc10CE034cA560a614b1E044C1d91A3bAe",
      "value": {
        "_hex": "0x1ae801f1eb094d000"
      },
      "nonce": 5,
      "data": "0x",
      "r": "0xb07b9cfba4c41b401f38c7fc064d0973788af08ecffbebd45723f9f30f3f018f",
      "s": "0x0cfd75d17100faa8b3b98cfbccd051f86a0270554bd6a0f11d3b07988d4287ec",
      "v": 28,
      "creates": null,
      "raw": "0xf86d05850e00bed30a82520894b0f264dc10ce034ca560a614b1e044c1d91a3bae8901ae801f1eb094d000801ca0b07b9cfba4c41b401f38c7fc064d0973788af08ecffbebd45723f9f30f3f018fa00cfd75d17100faa8b3b98cfbccd051f86a0270554bd6a0f11d3b07988d4287ec",
      "networkId": 0,
      "chainId": 0
    }
  ]
}