{
  "hash": "0x8e82e956cfc59949b744a7c2fabe3b4ec183054d82a63681f01df51a2541742e",
  "parentHash": "0xe36c5a6e9643df17022550e33fc77d6ce46d7c6d532160a65014160e76951933",
  "number": 48102,
  "timestamp": 1438951352,
  "nonce": "0xbc2b98cbc2936eda",
  "difficulty": 1465794696467,
  "gasLimit": {
    "_hex": "0x128f6"
  },
  "gasUsed": {
    "_hex": "0x546c"
  },
  "miner": "0x580992B51e3925e23280EfB93d3047C82f17E038",
  "extraData": "0x476574682f76312e302e312f6c696e75782f676f312e342e32",
  "transactions": [
    {
      "hash": "0x4295ba6b10fe527a6bb3aa40fcc61cabf3ceb06f064a88f5f2a310c780440501",
      "blockHash": "0x8e82e956cfc59949b744a7c2fabe3b4ec183054d82a63681f01df51a2541742e",
      "blockNumber": 48102,
      "transactionIndex": 0,
      "confirmations": null,
      "from": "0x54a62bf9233E146ffEC3876E45f20ee8414adeba",
      "gasPrice": {
        "_hex": "0x10a208129d8"
      },
      "gasLimit": {
        "_hex": "0x61a8"
      },
      "to": "0x2910543Af39abA0Cd09dBb2D50200b3E800A63D2",
      "value": {
        "_hex": "0x10f0cf064dd59200000"
      },
      "nonce": 2,
      "data": "0x454e4a314d4b363152",
      "r": "0xd8d4aa139023e02f6c12222a002bd4198c85067cc3d603888d25b14b5067935e",
      "s": "0x0d516cd79b73b5d46e0ce7760ee58395de811a1aaea6fe4570e013afd088c29c",
      "v": 27,
      "creates": null,
      "raw": "0xf8780286010a208129d88261a8942910543af39aba0cd09dbb2d50200b3e800a63d28a010f0cf064dd5920000089454e4a314d4b3631521ba0d8d4aa139023e02f6c12222a002bd4198c85067cc3d603888d25b14b5067935ea00d516cd79b73b5d46e0ce7760ee58395de811a1aaea6fe4570e013afd088c29c",
      "networkId": 0,
      "chainId": 0
    }
  ]
}