{
  "hash": "0x9764178b042ecbd22dd6e0247d7e9919139e040efdaa98127860bbfe47f638d7",
  "parentHash": "0x8a074f098b8a92e9cecec0414c15f31cb54805edf8a3b78fcf0e6838e1f5dfa0",
  "number": 93549,
  "timestamp": 1439692888,
  "nonce": "0xf1aff9252b7fdee3",
  "difficulty": 3471739256025,
  "gasLimit": {
    "_hex": "0x2fefd8"
  },
  "gasUsed": {
    "_hex": "0xa410"
  },
  "miner": "0xEF247E639d49461D25F57e9362CadE3120910Ce0",
  "extraData": "0x476574682f76312e302e312f6c696e75782f676f312e342e32",
  "transactions": [
    {
      "hash": "0x779a54c358f2ef5f820a073456f32fbba4d3c186b8b20320514576e0a94469dc",
      "blockHash": "0x9764178b042ecbd22dd6e0247d7e9919139e040efdaa98127860bbfe47f638d7",
      "blockNumber": 93549,
      "transactionIndex": 0,
      "confirmations": null,
      "from": "0xd23D7AfFacdC3E9F3dAE7Afcb4006f58f8a44600",
      "gasPrice": {
        "_hex": "0xded3e87ed"
      },
      "gasLimit": {
        "_hex": "0x15f90"
      },
      "to": "0xBb62Bd1E6edDb37A212E000E819a89917785F651",
      "value": {
        "_hex": "0x8ac7230489e80000"
      },
      "nonce": 2,
      "data": "0x",
      "r": "0xbd733afa598e8ef0f5912b89cb541c7b711df442197fd6965a6d8c2083a30e34",
      "s": "0x67295051c665f265ab66e2b9a076531329eb077ab5c3a16ba6147fbf490167fc",
      "v": 28,
      "creates": null,
      "raw": "0xf86d02850ded3e87ed83015f9094bb62bd1e6eddb37a212e000e819a89917785f651888ac7230489e80000801ca0bd733afa598e8ef0f5912b89cb541c7b711df442197fd6965a6d8c2083a30e34a067295051c665f265ab66e2b9a076531329eb077ab5c3a16ba6147fbf490167fc",
      "networkId": 0,
      "chainId": 0
    },
    {
      "hash": "0x15e703079b4a026ad7f0d543fb822a4edbf76ccd752c564376d7830c92c8b6ab",
      "blockHash": "0x9764178b042ecbd22dd6e0247d7e9919139e040efdaa98127860bbfe47f638d7",
      "blockNumber": 93549,
      "transactionIndex": 1,
      "confirmations": null,
      "from": "0x120A270bbC009644e35F0bB6ab13f95b8199c4ad",
      "gasPrice": {
        "_hex": "0xd45b6e632"
      },
      "gasLimit": {
        "_hex": "0x3d090"
      },
      "to": "0x36B33F21Ba59c53E3502E52b8e0a7fD311215FFd",
      "value": {
        "_hex": "0x20a1087aaed8724400"
      },
      "nonce": 564,
      "data": "0x",
      "r": "0xce3cd8b1c7bd9d1f603417677e982a5b5ee52dc3d86cd2ce69d42cfb2aa095bb",
      "s": "0x2c94aac7b58b7785d21872bbad8de56ae3f0d221b2675a0643391bc74ded5310",
      "v": 27,
      "creates": null,
      "raw": "0xf870820234850d45b6e6328303d0909436b33f21ba59c53e3502e52b8e0a7fd311215ffd8920a1087aaed8724400801ba0ce3cd8b1c7bd9d1f603417677e982a5b5ee52dc3d86cd2ce69d42cfb2aa095bba02c94aac7b58b7785d21872bbad8de56ae3f0d221b2675a0643391bc74ded5310",
      "networkId": 0,
      "chainId": 0
    }
  ]
}