{
  "hash": "0xf5321a11ef65c95fc435c061e80f5a4cd401fd03a1d88da68f190955200b33d2",
  "parentHash": "0xf66943dde6e03afd817f34b007d2c62417cda8dcd312963f318297bf87660723",
  "number": 114352,
  "timestamp": 1440038893,
  "nonce": "0xce39138c5d4cf48b",
  "difficulty": 4501374685473,
  "gasLimit": {
    "_hex": "0x2fefd8"
  },
  "gasUsed": {
    "_hex": "0x5208"
  },
  "miner": "0xe6A7a1d47ff21B6321162AEA7C6CB457D5476Bca",
  "extraData": "0x476574682f76312e302e312d38326566323666362f6c696e75782f676f312e34",
  "transactions": [
    {
      "hash": "0x2d4c926631129e6a7c4a5c10e6988e6aba385dfd367e7b17648e0127c6024ba9",
      "blockHash": "0xf5321a11ef65c95fc435c061e80f5a4cd401fd03a1d88da68f190955200b33d2",
      "blockNumber": 114352,
      "transactionIndex": 0,
      "confirmations": null,
      "from": "0x120A270bbC009644e35F0bB6ab13f95b8199c4ad",
      "gasPrice": {
        "_hex": "0xd5cf74fc0"
      },
      "gasLimit": {
        "_hex": "0x3d090"
      },
      "to": "0x612a19AB7c9B986099e2CD38f06b48Ec08A4B6fe",
      "value": {
        "_hex": "0x2b5e3af16b1880000"
      },
      "nonce": 928,
      "data": "0x",
      "r": "0x906ee329f053c8d693af6fd2cc5f49446c9ad8e6a144ef1e63ddedde0e523874",
      "s": "0x12e0a4cb9bd3bbc473b07a78181cafea1db6763822e92c455bc3c861a825e1c7",
      "v": 27,
      "creates": null,
      "raw": "0xf8708203a0850d5cf74fc08303d09094612a19ab7c9b986099e2cd38f06b48ec08a4b6fe8902b5e3af16b1880000801ba0906ee329f053c8d693af6fd2cc5f49446c9ad8e6a144ef1e63ddedde0e523874a012e0a4cb9bd3bbc473b07a78181cafea1db6763822e92c455bc3c861a825e1c7",
      "networkId": 0,
      "chainId": 0
    }
  ]
}