{
  "hash": "0x5f4cb837554b320ab8bbdab1398c500c2a2344354de3186995e5b1a15d6f2831",
  "parentHash": "0x7783edfdabd73e84c26df90a8605810e0b404dd701a99c203189185d2c84ba00",
  "number": 52571,
  "timestamp": 1439023745,
  "nonce": "0x7c779761fbedc031",
  "difficulty": 1566367650527,
  "gasLimit": {
    "_hex": "0x159f15"
  },
  "gasUsed": {
    "_hex": "0xf4240"
  },
  "miner": "0xBD744E3F13D79B33F6c8E1d5E32F8E9BA2866c46",
  "extraData": "0x476574682f76312e302e312d39613032663533372f6c696e75782f676f312e34",
  "transactions": [
    {
      "hash": "0x05c2250627e4208224e9ece3354117218a38a182a42ae0af45448dae50f2bfd4",
      "blockHash": "0x5f4cb837554b320ab8bbdab1398c500c2a2344354de3186995e5b1a15d6f2831",
      "blockNumber": 52571,
      "transactionIndex": 0,
      "confirmations": null,
      "from": "0x54dAeb3E8a6BBC797E4aD2b0339f134b186e4637",
      "gasPrice": {
        "_hex": "0xe7d27df17"
      },
      "gasLimit": {
        "_hex": "0x7a120"
      },
      "to": "0xBAA54d6E90c3F4d7Ebec11bD180134C7eD8eBb52",
      "value": {
        "_hex": "0x16345785d8a0000"
      },
      "nonce": 739,
      "data": "0x",
      "r": "0xe90a2d3ff6421e4dee55ab4c5ca7f7545978773c951ebaeb0a24aeca0447bc0a",
      "s": "0x3cba5898379cdcaed7551becc3c9602c98b408e70bf35a999c70bf14bb1d0d3f",
      "v": 28,
      "creates": null,
      "raw": "0xf86f8202e3850e7d27df178307a12094baa54d6e90c3f4d7ebec11bd180134c7ed8ebb5288016345785d8a0000801ca0e90a2d3ff6421e4dee55ab4c5ca7f7545978773c951ebaeb0a24aeca0447bc0aa03cba5898379cdcaed7551becc3c9602c98b408e70bf35a999c70bf14bb1d0d3f",
      "networkId": 0,
      "chainId": 0
    },
    {
      "hash": "0x176c2e8aecd622475ad693fd9a3d766a4242e87665ead105dad63e15c9b2e92b",
      "blockHash": "0x5f4cb837554b320ab8bbdab1398c500c2a2344354de3186995e5b1a15d6f2831",
      "blockNumber": 52571,
      "transactionIndex": 1,
      "confirmations": null,
      "from": "0x54dAeb3E8a6BBC797E4aD2b0339f134b186e4637",
      "gasPrice": {
        "_hex": "0xe7d27df17"
      },
      "gasLimit": {
        "_hex": "0x7a120"
      },
      "to": "0xBAA54d6E90c3F4d7Ebec11bD180134C7eD8eBb52",
      "value": {
        "_hex": "0x16345785d8a0000"
      },
      "nonce": 740,
      "data": "0x",
      "r": "0xd268b8bed2b4afde1c077ae528a705b28a4656a899677942f1d35ac20fb29302",
      "s": "0x3641008ca70f71ca96ec8022447871f0a06e0726473e0be6f3d7d16d93639c9a",
      "v": 27,
      "creates": null,
      "raw": "0xf86f8202e4850e7d27df178307a12094baa54d6e90c3f4d7ebec11bd180134c7ed8ebb5288016345785d8a0000801ba0d268b8bed2b4afde1c077ae528a705b28a4656a899677942f1d35ac20fb29302a03641008ca70f71ca96ec8022447871f0a06e0726473e0be6f3d7d16d93639c9a",
      "networkId": 0,
      "chainId": 0
    }
  ]
}