{
  "hash": "0x389a452cdc9882c17a3b62bedd2ea4a9e987757a4daceee33bae7f4ce09f30ae",
  "parentHash": "0x31dc0226b576ff9a1a728fc7a842eb40018dbea36f373d7bd126329759a42f2d",
  "number": 103534,
  "timestamp": 1439854825,
  "nonce": "0xc0b0c8043416b45e",
  "difficulty": 4201156886191,
  "gasLimit": {
    "_hex": "0x2fefd8"
  },
  "gasUsed": {
    "_hex": "0x5208"
  },
  "miner": "0x580992B51e3925e23280EfB93d3047C82f17E038",
  "extraData": "0x476574682f76312e302e312f6c696e75782f676f312e342e32",
  "transactions": [
    {
      "hash": "0x7ffad3b3d07ee29abc5f8d5c1ec473a2c01a0aa9e244c23684ade8bd4d3fafc6",
      "blockHash": "0x389a452cdc9882c17a3b62bedd2ea4a9e987757a4daceee33bae7f4ce09f30ae",
      "blockNumber": 103534,
      "transactionIndex": 0,
      "confirmations": null,
      "from": "0xbcc72eA5bC902a76b1A86a7B02Dc73fe8055D1C7",
      "gasPrice": {
        "_hex": "0xba43b7400"
      },
      "gasLimit": {
        "_hex": "0x5208"
      },
      "to": "0xC47Aaa860008be6f65B58c6C6E02a84e666EfE31",
      "value": {
        "_hex": "0x15f8a80308638f0"
      },
      "nonce": 0,
      "data": "0x",
      "r": "0x07ed96b9b2ec5d162c48f4f3c595ddeca75f05cb322100fb576931b12bfc8998",
      "s": "0x2054ac8eec13bd371646258065533a927bc428b8848c0fc0c64713a3658ed0da",
      "v": 28,
      "creates": null,
      "raw": "0xf86c80850ba43b740082520894c47aaa860008be6f65b58c6c6e02a84e666efe3188015f8a80308638f0801ca007ed96b9b2ec5d162c48f4f3c595ddeca75f05cb322100fb576931b12bfc8998a02054ac8eec13bd371646258065533a927bc428b8848c0fc0c64713a3658ed0da",
      "networkId": 0,
      "chainId": 0
    }
  ]
}