{
  "hash": "0x8c3779577f011ce8e14450625f86c21d732fa98906bc82a9a69723c1949cfd67",
  "parentHash": "0xec8663a0519637301cbf18339ea51250d9862ef0a5fb415c6536469e06cc4348",
  "number": 83691,
  "timestamp": 1439539198,
  "nonce": "0x46c5157f9b82bb4b",
  "difficulty": 2443158745316,
  "gasLimit": {
    "_hex": "0x2fefd8"
  },
  "gasUsed": {
    "_hex": "0x5208"
  },
  "miner": "0x7E6930B63D03e88F5928C5cd6ee3FCee4D714F7F",
  "extraData": "0x",
  "transactions": [
    {
      "hash": "0xca98d9303863c093c265aefe6d10078a41b014de2cf8c8050f2897459f5cfa29",
      "blockHash": "0x8c3779577f011ce8e14450625f86c21d732fa98906bc82a9a69723c1949cfd67",
      "blockNumber": 83691,
      "transactionIndex": 0,
      "confirmations": null,
      "from": "0xA10C59651885FeAaac91F871082a23BBbaBeDfCf",
      "gasPrice": {
        "_hex": "0x10083f89ede"
      },
      "gasLimit": {
        "_hex": "0x5208"
      },
      "to": "0x4c74B6F32c9680aCB5Fe0e72B7Aa95C612540A04",
      "value": {
        "_hex": "0x22b1c8c1227a00000"
      },
      "nonce": 26,
      "data": "0x",
      "r": "0x370b2da2ce814c4390c4cf294c5d9c195bc1ec413c1ab1557ca372d74b877ddc",
      "s": "0x1aafdc07a80c4e22490383ee859d8b424be90ee53d272bbea73aab5a905d286c",
      "v": 27,
      "creates": null,
      "raw": "0xf86e1a86010083f89ede825208944c74b6f32c9680acb5fe0e72b7aa95c612540a0489022b1c8c1227a00000801ba0370b2da2ce814c4390c4cf294c5d9c195bc1ec413c1ab1557ca372d74b877ddca01aafdc07a80c4e22490383ee859d8b424be90ee53d272bbea73aab5a905d286c",
      "networkId": 0,
      "chainId": 0
    }
  ]
}