{
  "hash": "0xa11e5d8a76f1eadce35252f3284f40e5431539cfb4375d9f421ac4d08e161d2b",
  "parentHash": "0x93f05d6a6c77d9f60826806aab2f9b4bf90112c93001d0bd7c13fea5dca12c19",
  "number": 68518,
  "timestamp": 1439289346,
  "nonce": "0x8fa0cef45239141c",
  "difficulty": 2002541097826,
  "gasLimit": {
    "_hex": "0x2fefd8"
  },
  "gasUsed": {
    "_hex": "0x5bcd1"
  },
  "miner": "0xbb7B8287f3F0a933474a79eAe42CBCa977791171",
  "extraData": "0x476574682f4c5649562f76312e302e312f6c696e75782f676f312e342e32",
  "transactions": [
    {
      "hash": "0xaf88ec2c80609604bf63a092c716f6ea41e5c08dc01857dd4286ac4bd06b8b4b",
      "blockHash": "0xa11e5d8a76f1eadce35252f3284f40e5431539cfb4375d9f421ac4d08e161d2b",
      "blockNumber": 68518,
      "transactionIndex": 0,
      "confirmations": null,
      "from": "0x17580B766f7453525ca4C6A88b01b50570EA088C",
      "gasPrice": {
        "_hex": "0xd5299f4f7"
      },
      "gasLimit": {
        "_hex": "0x61a80"
      },
      "to": "0x5Fe5B7546D1628f7348B023A0393de1FC825A4fD",
      "value": {
        "_hex": "0x1bc16d674ec80000"
      },
      "nonce": 33,
      "data": "0xb595b8b50000000000000000000000000000000000000000000000000000000000000001",
      "r": "0x2bb19fa833a30e16535bd68a8c8e588b20c64c4e7b9aa7152435a7969b78b070",
      "s": "0x14fdd89637f6a9360304fb33d801024ddda5bfb6fa62c0f5b0fb762f562f9f8a",
      "v": 27,
      "creates": null,
      "raw": "0xf89121850d5299f4f783061a80945fe5b7546d1628f7348b023a0393de1fc825a4fd881bc16d674ec80000a4b595b8b500000000000000000000000000000000000000000000000000000000000000011ba02bb19fa833a30e16535bd68a8c8e588b20c64c4e7b9aa7152435a7969b78b070a014fdd89637f6a9360304fb33d801024ddda5bfb6fa62c0f5b0fb762f562f9f8a",
      "networkId": 0,
      "chainId": 0
    },
    {
      "hash": "0x7e47c31742ef55701c9ddbe658bd5867f70ef9af55bda1753a39c90a8100c843",
      "blockHash": "0xa11e5d8a76f1eadce35252f3284f40e5431539cfb4375d9f421ac4d08e161d2b",
      "blockNumber": 68518,
      "transactionIndex": 1,
      "confirmations": null,
      "from": "0xd268fB48FA174088a25a120aFF0fd8eb0C2d4c87",
      "gasPrice": {
        "_hex": "0xce305924c"
      },
      "gasLimit": {
        "_hex": "0x1e8480"
      },
      "to": null,
      "value": {
        "_hex": "0x0"
      },
      "nonce": 4,
      "data": "0x606060405260405161014938038061014983398101604052805160805160a051919092019190808383815160019081018155600090600160a060020a0333169060029060038390559183525061010260205260408220555b82518110156100e257828181518110156100025790602001906020020151600160a060020a03166002600050826002016101008110156100025790900160005081905550806002016101026000506000858481518110156100025790602001906020020151600160a060020a0316815260200190815260200160002060005081905550600101610057565b81600060005081905550505050806101056000508190555061010662015180420490565b6101075550505050602d8061011c6000396000f3003660008037602060003660003473d658a4b8247c14868f3c512fa5cbb6e458e4a98961235a5a03f260206000f30000000000000000000000000000000000000000000000000000000000000060000000000000000000000000000000000000000000000000000000000000000000000000000000000000000000000000000000000052b7d2dcc80cd2e40000000000000000000000000000000000000000000000000000000000000000000001000000000000000000000000d268fb48fa174088a25a120aff0fd8eb0c2d4c87",
      "r": "0x2e88dbd73e65ce28c2089677ae2c8eef43fe2f4bb84a0833eab13c5e1acd18cb",
      "s": "0x1e0b21aa9bd50997565dfa8bfebccc4b7e0af4df850ab12a32b6381a50b2a61c",
      "v": 27,
      "creates": "0x45f4054E7384d9c4B5be63D3927d9b7D18781FdC",
      "raw": "0xf9023c04850ce305924c831e84808080b901e9606060405260405161014938038061014983398101604052805160805160a051919092019190808383815160019081018155600090600160a060020a0333169060029060038390559183525061010260205260408220555b82518110156100e257828181518110156100025790602001906020020151600160a060020a03166002600050826002016101008110156100025790900160005081905550806002016101026000506000858481518110156100025790602001906020020151600160a060020a0316815260200190815260200160002060005081905550600101610057565b81600060005081905550505050806101056000508190555061010662015180420490565b6101075550505050602d8061011c6000396000f3003660008037602060003660003473d658a4b8247c14868f3c512fa5cbb6e458e4a98961235a5a03f260206000f30000000000000000000000000000000000000000000000000000000000000060000000000000000000000000000000000000000000000000000000000000000000000000000000000000000000000000000000000052b7d2dcc80cd2e40000000000000000000000000000000000000000000000000000000000000000000001000000000000000000000000d268fb48fa174088a25a120aff0fd8eb0c2d4c871ba02e88dbd73e65ce28c2089677ae2c8eef43fe2f4bb84a0833eab13c5e1acd18cba01e0b21aa9bd50997565dfa8bfebccc4b7e0af4df850ab12a32b6381a50b2a61c",
      "networkId": 0,
      "chainId": 0
    },
    {
      "hash": "0xcf38e1c6f6b7fa33ea284b849489b08cf1a0e2b7de0cfe590f4e28ddc4a375b6",
      "blockHash": "0xa11e5d8a76f1eadce35252f3284f40e5431539cfb4375d9f421ac4d08e161d2b",
      "blockNumber": 68518,
      "transactionIndex": 2,
      "confirmations": null,
      "from": "0xD846Ed89f81ecBE6B8737d000728c34b353a47c1",
      "gasPrice": {
        "_hex": "0xba43b7400"
      },
      "gasLimit": {
        "_hex": "0x5208"
      },
      "to": "0x9222931397344F0f098d7cF874A29c9C92e38d1A",
      "value": {
        "_hex": "0xc1c23435b07000"
      },
      "nonce": 1,
      "data": "0x",
      "r": "0xeeb63a8ed47f965f710ec3adb7a8c5be1e29fdbf2c4bbbeaf34bc7541171f2b2",
      "s": "0x7b1b291b48c54fb3ba3930cd331a294581caf85b803cac7fc114e10248abcc75",
      "v": 27,
      "creates": null,
      "raw": "0xf86b01850ba43b7400825208949222931397344f0f098d7cf874a29c9c92e38d1a87c1c23435b07000801ba0eeb63a8ed47f965f710ec3adb7a8c5be1e29fdbf2c4bbbeaf34bc7541171f2b2a07b1b291b48c54fb3ba3930cd331a294581caf85b803cac7fc114e10248abcc75",
      "networkId": 0,
      "chainId": 0
    },
    {
      "hash": "0x8bbd8616a2aac5e16e748f561aecbbbe59c0e4cf97d27db5a26d534e23a4cdea",
      "blockHash": "0xa11e5d8a76f1eadce35252f3284f40e5431539cfb4375d9f421ac4d08e161d2b",
      "blockNumber": 68518,
      "transactionIndex": 3,
      "confirmations": null,
      "from": "0x79FdBE3686295554a1fd9dEB5E7608e79ad73695",
      "gasPrice": {
        "_hex": "0xba43b7400"
      },
      "gasLimit": {
        "_hex": "0x5208"
      },
      "to": "0xD70B1dc0559053FfCAE9F71e0f1809f64a2b024c",
      "value": {
        "_hex": "0xc1c23435b07000"
      },
      "nonce": 1,
      "data": "0x",
      "r": "0xf0b0c37c6676dee9323b170bfbb160d7e68c5b70fe51994a349a2fad89d16efb",
      "s": "0x0288401d1413844e046e7509f80764f8fccb5a4eb4b44dd209bef99038dc59e3",
      "v": 27,
      "creates": null,
      "raw": "0xf86b01850ba43b740082520894d70b1dc0559053ffcae9f71e0f1809f64a2b024c87c1c23435b07000801ba0f0b0c37c6676dee9323b170bfbb160d7e68c5b70fe51994a349a2fad89d16efba00288401d1413844e046e7509f80764f8fccb5a4eb4b44dd209bef99038dc59e3",
      "networkId": 0,
      "chainId": 0
    },
    {
      "hash": "0xd85561cbe6b0fd16853dcede74e71db166dc4c34e101b7aa57bd09fb4333cc28",
      "blockHash": "0xa11e5d8a76f1eadce35252f3284f40e5431539cfb4375d9f421ac4d08e161d2b",
      "blockNumber": 68518,
      "transactionIndex": 4,
      "confirmations": null,
      "from": "0x3Da4225Ad67e0E5729fF1beaa10BB6e41DDF31F7",
      "gasPrice": {
        "_hex": "0xba43b7400"
      },
      "gasLimit": {
        "_hex": "0x5208"
      },
      "to": "0xb7E4D58bbA3ffD083F569F1E4ed7C3faD1F5F465",
      "value": {
        "_hex": "0xc1c23435b07000"
      },
      "nonce": 1,
      "data": "0x",
      "r": "0x0e00fcd2dc38e29a7f2cdfd9399c91c77c574a1e3534295aed6dbf3994f7f5fd",
      "s": "0x7a5e6e7acfe39e502e2a47907bd51ad6e22a9c8d6903cc65f542f2be5b1fe2ac",
      "v": 28,
      "creates": null,
      "raw": "0xf86b01850ba43b740082520894b7e4d58bba3ffd083f569f1e4ed7c3fad1f5f46587c1c23435b07000801ca00e00fcd2dc38e29a7f2cdfd9399c91c77c574a1e3534295aed6dbf3994f7f5fda07a5e6e7acfe39e502e2a47907bd51ad6e22a9c8d6903cc65f542f2be5b1fe2ac",
      "networkId": 0,
      "chainId": 0
    },
    {
      "hash": "0x238160a0ae83b0e0aaccf8d7ab6de30782826e91ec9eeecb6d14d41487989db1",
      "blockHash": "0xa11e5d8a76f1eadce35252f3284f40e5431539cfb4375d9f421ac4d08e161d2b",
      "blockNumber": 68518,
      "transactionIndex": 5,
      "confirmations": null,
      "from": "0x72a9926161dB29FdC56D84d05b85C3ba0F68E647",
      "gasPrice": {
        "_hex": "0xba43b7400"
      },
      "gasLimit": {
        "_hex": "0x5208"
      },
      "to": "0x05a293c73042d3dDC4aD884266a84f60cD364924",
      "value": {
        "_hex": "0xc1c23435b07000"
      },
      "nonce": 1,
      "data": "0x",
      "r": "0xab69406cdee6632bde1e3618f8f0d9433f28b563cfd2be054e0a3570e5540fac",
      "s": "0x2fd92ea296f2ded5090a2e721105586529ec8d318c7daa760dad4b57dfe0fb82",
      "v": 27,
      "creates": null,
      "raw": "0xf86b01850ba43b74008252089405a293c73042d3ddc4ad884266a84f60cd36492487c1c23435b07000801ba0ab69406cdee6632bde1e3618f8f0d9433f28b563cfd2be054e0a3570e5540faca02fd92ea296f2ded5090a2e721105586529ec8d318c7daa760dad4b57dfe0fb82",
      "networkId": 0,
      "chainId": 0
    },
    {
      "hash": "0x2b96632596e09de153fa86998205427448f0bcc4144d3fbbdf00a003023ff562",
      "blockHash": "0xa11e5d8a76f1eadce35252f3284f40e5431539cfb4375d9f421ac4d08e161d2b",
      "blockNumber": 68518,
      "transactionIndex": 6,
      "confirmations": null,
      "from": "0x58AD03a6C82170e75390aB68D238A88edE98a068",
      "gasPrice": {
        "_hex": "0xba43b7400"
      },
      "gasLimit": {
        "_hex": "0x5208"
      },
      "to": "0x1b7aF00a4f83C711f3acFfbED0BE0Df003B3E298",
      "value": {
        "_hex": "0xc1c23435b07000"
      },
      "nonce": 1,
      "data": "0x",
      "r": "0x746ab264ad0f44f7043862a38e04bc5e6b18be314aa27eaa4e2581cb646d246c",
      "s": "0x3114dbe6c49fcff29dee76ee3866ad67708a0ab818888537a301a96e3f41fb05",
      "v": 27,
      "creates": null,
      "raw": "0xf86b01850ba43b7400825208941b7af00a4f83c711f3acffbed0be0df003b3e29887c1c23435b07000801ba0746ab264ad0f44f7043862a38e04bc5e6b18be314aa27eaa4e2581cb646d246ca03114dbe6c49fcff29dee76ee3866ad67708a0ab818888537a301a96e3f41fb05",
      "networkId": 0,
      "chainId": 0
    },
    {
      "hash": "0xbcd6a3dc9d162766864b8c87a73137e3d7882880e0f2aff6e31d810b0ffe5ae9",
      "blockHash": "0xa11e5d8a76f1eadce35252f3284f40e5431539cfb4375d9f421ac4d08e161d2b",
      "blockNumber": 68518,
      "transactionIndex": 7,
      "confirmations": null,
      "from": "0x2D223fF6643f9E6DE2906d7171C539D20453c48C",
      "gasPrice": {
        "_hex": "0xba43b7400"
      },
      "gasLimit": {
        "_hex": "0x5208"
      },
      "to": "0x2b43a3855BeAb666ec5b35ba8825820Bcd5b92E0",
      "value": {
        "_hex": "0xc1c23435b07000"
      },
      "nonce": 1,
      "data": "0x",
      "r": "0xe7c33a2de513b01ebf8e70bec45c185365f165edc2fd91ca0f30409e5050e41a",
      "s": "0x13e26ad48c3e1fd21ecce90b22d32a468d6a5442d3e6eb9f7d9609db0b6312f3",
      "v": 28,
      "creates": null,
      "raw": "0xf86b01850ba43b7400825208942b43a3855beab666ec5b35ba8825820bcd5b92e087c1c23435b07000801ca0e7c33a2de513b01ebf8e70bec45c185365f165edc2fd91ca0f30409e5050e41aa013e26ad48c3e1fd21ecce90b22d32a468d6a5442d3e6eb9f7d9609db0b6312f3",
      "networkId": 0,
      "chainId": 0
    },
    {
      "hash": "0xa8ed32da6878d36e7422ae1a6145caa5cf494785440db9f52cae902864b2e878",
      "blockHash": "0xa11e5d8a76f1eadce35252f3284f40e5431539cfb4375d9f421ac4d08e161d2b",
      "blockNumber": 68518,
      "transactionIndex": 8,
      "confirmations": null,
      "from": "0x359EB2519b6004dcE410ebE2d99f538F92597aD0",
      "gasPrice": {
        "_hex": "0xba43b7400"
      },
      "gasLimit": {
        "_hex": "0x5208"
      },
      "to": "0x55C34517f1b5B9f9e6e2996C9Eb8aE48dA2E8f42",
      "value": {
        "_hex": "0xc1c23435b07000"
      },
      "nonce": 1,
      "data": "0x",
      "r": "0xf09c24d1302ca999db98bcdaf8924d7fe82bee956e22e33c77a25e359dd149b6",
      "s": "0x200c8d522b7d6df9e7fced93538de8214171ecb2aefb9a2d6d3f84bd740496d1",
      "v": 28,
      "creates": null,
      "raw": "0xf86b01850ba43b74008252089455c34517f1b5b9f9e6e2996c9eb8ae48da2e8f4287c1c23435b07000801ca0f09c24d1302ca999db98bcdaf8924d7fe82bee956e22e33c77a25e359dd149b6a0200c8d522b7d6df9e7fced93538de8214171ecb2aefb9a2d6d3f84bd740496d1",
      "networkId": 0,
      "chainId": 0
    }
  ]
}