{
  "hash": "0x10a78015a71ecf0ec947fc2ff045b8229e05fd47d3c4155fb57b018929dc9c24",
  "parentHash": "0x28abd1a99d7741f85ae9f4d80610e74ea3e388818d35caa5898a4a90d014ac9a",
  "number": 101661,
  "timestamp": 1439826144,
  "nonce": "0x8969bece560d47de",
  "difficulty": 3888200641460,
  "gasLimit": {
    "_hex": "0x2fefd8"
  },
  "gasUsed": {
    "_hex": "0x5208"
  },
  "miner": "0x35e8e5dC5FBd97c5b421A80B596C030a2Be2A04D",
  "extraData": "0x476574682f76312e302e312f6c696e75782f676f312e342e32",
  "transactions": [
    {
      "hash": "0xcd659107aecd6faba8a97c34a66a1903c40ae9a51007f10f02e5269a28becb31",
      "blockHash": "0x10a78015a71ecf0ec947fc2ff045b8229e05fd47d3c4155fb57b018929dc9c24",
      "blockNumber": 101661,
      "transactionIndex": 0,
      "confirmations": null,
      "from": "0xdCe26B66eabfB4dE900E4944DcC2FA2d455021fc",
      "gasPrice": {
        "_hex": "0xd8c8d01ce"
      },
      "gasLimit": {
        "_hex": "0x5208"
      },
      "to": "0x32Be343B94f860124dC4fEe278FDCBD38C102D88",
      "value": {
        "_hex": "0x239a8159b33b5000"
      },
      "nonce": 3,
      "data": "0x",
      "r": "0x1d7ee1dce670ab7e1433a1876a888d4c8e1d49e70c991b079f2e8d40f119070b",
      "s": "0x2ce857b2ab489e9d11d1385f38ce0a0168303679fda4b32f1aafb5278b176fba",
      "v": 28,
      "creates": null,
      "raw": "0xf86c03850d8c8d01ce8252089432be343b94f860124dc4fee278fdcbd38c102d8888239a8159b33b5000801ca01d7ee1dce670ab7e1433a1876a888d4c8e1d49e70c991b079f2e8d40f119070ba02ce857b2ab489e9d11d1385f38ce0a0168303679fda4b32f1aafb5278b176fba",
      "networkId": 0,
      "chainId": 0
    }
  ]
}