{
  "hash": "0x47c912dbf3141395c155db38448c7c0fc0754b11041a81a5230f8dbf728b944a",
  "parentHash": "0xeabfdba87df635141876d6affd1f140b2bb4e60f40db1d8e5d02c169a4567882",
  "number": 82090,
  "timestamp": 1439513406,
  "nonce": "0x018f5c4a21770d85",
  "difficulty": 2385853306319,
  "gasLimit": {
    "_hex": "0x2fefd8"
  },
  "gasUsed": {
    "_hex": "0x5208"
  },
  "miner": "0x47ff6576639c2e94762eA5443978D7681C0E78DC",
  "extraData": "0x476574682f76312e302e312f6c696e75782f676f312e342e32",
  "transactions": [
    {
      "hash": "0xa6ff649419ad6ba393ab991cbf209dc2a81ec5b7f781680e947307316841dc6f",
      "blockHash": "0x47c912dbf3141395c155db38448c7c0fc0754b11041a81a5230f8dbf728b944a",
      "blockNumber": 82090,
      "transactionIndex": 0,
      "confirmations": null,
      "from": "0xFb89b8778d254A66A7FE21Ca8C9F095375D497f4",
      "gasPrice": {
        "_hex": "0xba43b7400"
      },
      "gasLimit": {
        "_hex": "0x5208"
      },
      "to": "0xC47Aaa860008be6f65B58c6C6E02a84e666EfE31",
      "value": {
        "_hex": "0x1158cee21fd80c9dc0"
      },
      "nonce": 0,
      "data": "0x",
      "r": "0x7aeea4dba4172c990cbf2835e0075e14b1f99b9bef56205e0aa1c7a333900d08",
      "s": "0x399155758ec79e47b1a02ca41ac9c754d734917ac1ca22f84f51aa46fa295997",
      "v": 27,
      "creates": null,
      "raw": "0xf86d80850ba43b740082520894c47aaa860008be6f65b58c6c6e02a84e666efe31891158cee21fd80c9dc0801ba07aeea4dba4172c990cbf2835e0075e14b1f99b9bef56205e0aa1c7a333900d08a0399155758ec79e47b1a02ca41ac9c754d734917ac1ca22f84f51aa46fa295997",
      "networkId": 0,
      "chainId": 0
    }
  ]
}