{
  "hash": "0xd3ef62e00646d23f84bef894ba68c3cbc721b6ee03871483149b6698f774af92",
  "parentHash": "0x343ced5f93547c254b4726311df812cbf0a3645af0d66eb922395ef6f4bab9b6",
  "number": 115465,
  "timestamp": 1440057746,
  "nonce": "0xbcfee16daeb2eca6",
  "difficulty": 4560506767725,
  "gasLimit": {
    "_hex": "0x2fefd8"
  },
  "gasUsed": {
    "_hex": "0x5208"
  },
  "miner": "0x52bc44d5378309EE2abF1539BF71dE1b7d7bE3b5",
  "extraData": "0x476574682f76312e302e312d61383839306436312f6c696e75782f676f312e34",
  "transactions": [
    {
      "hash": "0xdc6b5f612776a5008862822f182ee50fdc855ba74f6de48dea115ab23767b81b",
      "blockHash": "0xd3ef62e00646d23f84bef894ba68c3cbc721b6ee03871483149b6698f774af92",
      "blockNumber": 115465,
      "transactionIndex": 0,
      "confirmations": null,
      "from": "0x32Be343B94f860124dC4fEe278FDCBD38C102D88",
      "gasPrice": {
        "_hex": "0xcce299eb9"
      },
      "gasLimit": {
        "_hex": "0x5208"
      },
      "to": "0xf747F959535B01d4BfDAB64A40DB48D0D6c68edb",
      "value": {
        "_hex": "0x2a303fe4b530000"
      },
      "nonce": 1429,
      "data": "0x",
      "r": "0xf2148d42af968b7676657a008bb7e66ebbfc4a688d51dfd33c118412efb3bed5",
      "s": "0x2028c63a25742b96352c77ea02b346897b36eb1f9f6392603a3be003033e6ead",
      "v": 28,
      "creates": null,
      "raw": "0xf86e820595850cce299eb982520894f747f959535b01d4bfdab64a40db48d0d6c68edb8802a303fe4b530000801ca0f2148d42af968b7676657a008bb7e66ebbfc4a688d51dfd33c118412efb3bed5a02028c63a25742b96352c77ea02b346897b36eb1f9f6392603a3be003033e6ead",
      "networkId": 0,
      "chainId": 0
    }
  ]
}