{
  "hash": "0xce86e4b444c0465f3757e2cb7fa6a8df2173c547ca957618ef9c0a9216623b6b",
  "parentHash": "0x0f16ded580b0a00a2197104abae6cd3dad39a8403b46077bfcf4a158bd0809cc",
  "number": 64774,
  "timestamp": 1439226042,
  "nonce": "0xc6229912b72455c8",
  "difficulty": 1893113092957,
  "gasLimit": {
    "_hex": "0x2fefd8"
  },
  "gasUsed": {
    "_hex": "0x11074"
  },
  "miner": "0x785ffdDd5cE55c6DF963f345e68d3F2024E5Acb1",
  "extraData": "0x457468657265756d20474f212121212121",
  "transactions": [
    {
      "hash": "0x5c9a44503b3f859839fb6cf6cbca9b73c43c8228898710ab8651f7d2ee026435",
      "blockHash": "0xce86e4b444c0465f3757e2cb7fa6a8df2173c547ca957618ef9c0a9216623b6b",
      "blockNumber": 64774,
      "transactionIndex": 0,
      "confirmations": null,
      "from": "0xfE8f7c78c9Ec1ABf63Bc535751afd1B9eCA36D43",
      "gasPrice": {
        "_hex": "0xba43b7400"
      },
      "gasLimit": {
        "_hex": "0x15f90"
      },
      "to": "0x793AE8C1b1a160BFc07BFB0d04F85eab1A71F4f2",
      "value": {
        "_hex": "0x0"
      },
      "nonce": 0,
      "data": "0x3ba15036",
      "r": "0x18a4629cc94696901f7d98b34ef623c90971808eda5e360d3d90d121437d566a",
      "s": "0x651732bc4976fd0e7799728289dfaa20e84bb40e3e8588052a00f24447a4e171",
      "v": 28,
      "creates": null,
      "raw": "0xf86980850ba43b740083015f9094793ae8c1b1a160bfc07bfb0d04f85eab1a71f4f280843ba150361ca018a4629cc94696901f7d98b34ef623c90971808eda5e360d3d90d121437d566aa0651732bc4976fd0e7799728289dfaa20e84bb40e3e8588052a00f24447a4e171",
      "networkId": 0,
      "chainId": 0
    },
    {
      "hash": "0xdb82c4cd9d8abfe41e53b6dcc1f188d9fa5962ae9239ebff8df67140cb6ad9ac",
      "blockHash": "0xce86e4b444c0465f3757e2cb7fa6a8df2173c547ca957618ef9c0a9216623b6b",
      "blockNumber": 64774,
      "transactionIndex": 1,
      "confirmations": null,
      "from": "0xedaf5ABf55fc99Fd10d3F2368d9a12f78220c90a",
      "gasPrice": {
        "_hex": "0xba43b7400"
      },
      "gasLimit": {
        "_hex": "0x5208"
      },
      "to": "0x6b852c11D8A55ebe0D91aaE00b45e602aA06dc64",
      "value": {
        "_hex": "0xc1c23435b07000"
      },
      "nonce": 1,
      "data": "0x",
      "r": "0xe7c30f58c4b4a7c041cea7b3c7281cd16e4d445e87cf2f4c949c97809175481b",
      "s": "0x697e2e79ae6f4ea7ef1962aaf30581199a0f4b726bf8ef9e4d86a09245831e9e",
      "v": 28,
      "creates": null,
      "raw": "0xf86b01850ba43b7400825208946b852c11d8a55ebe0d91aae00b45e602aa06dc6487c1c23435b07000801ca0e7c30f58c4b4a7c041cea7b3c7281cd16e4d445e87cf2f4c949c97809175481ba0697e2e79ae6f4ea7ef1962aaf30581199a0f4b726bf8ef9e4d86a09245831e9e",
      "networkId": 0,
      "chainId": 0
    }
  ]
}