{
  "hash": "0xee699c294f890637c52746af6a23eab962361f5e79db186d66e03c0e532a3f87",
  "parentHash": "0x9684e70e89a94d56a1309aed399a64cab108e39c3b7ad01b99e0e1e2bfe1a098",
  "number": 96499,
  "timestamp": 1439741368,
  "nonce": "0xb7c627d8e9b77dbb",
  "difficulty": 3672764531890,
  "gasLimit": {
    "_hex": "0x2fefd8"
  },
  "gasUsed": {
    "_hex": "0x5208"
  },
  "miner": "0x790b8a3cE86E707ED0eD32bF89B3269692a23CC1",
  "extraData": "0xd783010001844765746887676f312e342e32856c696e7578",
  "transactions": [
    {
      "hash": "0x88ff63d58fd67cf1f4974b1b988f8aa82081c5dc53b7dcdb29a648ee427bdec9",
      "blockHash": "0xee699c294f890637c52746af6a23eab962361f5e79db186d66e03c0e532a3f87",
      "blockNumber": 96499,
      "transactionIndex": 0,
      "confirmations": null,
      "from": "0x887efe3ae0531cb9F5b33dD7BCeb0211d1b45db9",
      "gasPrice": {
        "_hex": "0xd01198da9"
      },
      "gasLimit": {
        "_hex": "0x15f90"
      },
      "to": "0x24bB5FB8A5739366C23b101a3B87c7978761a09e",
      "value": {
        "_hex": "0x2386f26fc10000"
      },
      "nonce": 0,
      "data": "0x",
      "r": "0xb95628eef7d8323aa949c6b32bbb088a6b0efe9d939b11cca38604a872a82fb6",
      "s": "0x30487d1520b10fd38fb578075e0ed53076c0c37da5a99456792ea6326098ae28",
      "v": 27,
      "creates": null,
      "raw": "0xf86c80850d01198da983015f909424bb5fb8a5739366c23b101a3b87c7978761a09e872386f26fc10000801ba0b95628eef7d8323aa949c6b32bbb088a6b0efe9d939b11cca38604a872a82fb6a030487d1520b10fd38fb578075e0ed53076c0c37da5a99456792ea6326098ae28",
      "networkId": 0,
      "chainId": 0
    }
  ]
}