{
  "hash": "0xc05ff5e19f6f226fdef52d637287c464f6dfdab1c7c14a92e12f758ebf17a59c",
  "parentHash": "0x6a294a0f7a7e881412f88fa31eeb02ceffc14f945965e18811d11a15265f4eea",
  "number": 94268,
  "timestamp": 1439705481,
  "nonce": "0xc53605d160f7fde9",
  "difficulty": 3469747074560,
  "gasLimit": {
    "_hex": "0x2fefd8"
  },
  "gasUsed": {
    "_hex": "0x5208"
  },
  "miner": "0x9746c7e1ef2bd21FF3997fa467593a89cb852BD0",
  "extraData": "0x476574682f76312e302e312f77696e646f77732f676f312e342e32",
  "transactions": [
    {
      "hash": "0x904c357c7767974fa4d33d00f0073a82b60e13a3457909697e3e545a64a3dc20",
      "blockHash": "0xc05ff5e19f6f226fdef52d637287c464f6dfdab1c7c14a92e12f758ebf17a59c",
      "blockNumber": 94268,
      "transactionIndex": 0,
      "confirmations": null,
      "from": "0x2910543Af39abA0Cd09dBb2D50200b3E800A63D2",
      "gasPrice": {
        "_hex": "0xe1ca52591"
      },
      "gasLimit": {
        "_hex": "0x5208"
      },
      "to": "0x3faFe90631678f97C1D101ea02D4cd743cBD24ed",
      "value": {
        "_hex": "0xc2383a59ef978000"
      },
      "nonce": 870,
      "data": "0x",
      "r": "0x0c582d2f232ace98cf65be3a46bf25daa5188f544221a8d745fa006a432d642c",
      "s": "0x726afc3fbb7ee9132c2b012ee35842ec10fc3367018a5d17d4cb05ea6d433a75",
      "v": 28,
      "creates": null,
      "raw": "0xf86e820366850e1ca52591825208943fafe90631678f97c1d101ea02d4cd743cbd24ed88c2383a59ef978000801ca00c582d2f232ace98cf65be3a46bf25daa5188f544221a8d745fa006a432d642ca0726afc3fbb7ee9132c2b012ee35842ec10fc3367018a5d17d4cb05ea6d433a75",
      "networkId": 0,
      "chainId": 0
    }
  ]
}