{
  "hash": "0xa45a06a3715ae32653dc2b0ddaeadbd28dec29892676dacb11c45f8bb357d587",
  "parentHash": "0x9f4c712780c00ba506bd750f949096bf51f0a8c072f4de072f248f639b3787df",
  "number": 94328,
  "timestamp": 1439706403,
  "nonce": "0xce7934ad5c9deeab",
  "difficulty": 3479902364797,
  "gasLimit": {
    "_hex": "0x2fefd8"
  },
  "gasUsed": {
    "_hex": "0x5208"
  },
  "miner": "0xe6A7a1d47ff21B6321162AEA7C6CB457D5476Bca",
  "extraData": "0x476574682f76312e302e312d38326566323666362f6c696e75782f676f312e34",
  "transactions": [
    {
      "hash": "0x8b9720b2296522f8676227691420fdc7d02e327f665cde881fb4ccd0fab3a716",
      "blockHash": "0xa45a06a3715ae32653dc2b0ddaeadbd28dec29892676dacb11c45f8bb357d587",
      "blockNumber": 94328,
      "transactionIndex": 0,
      "confirmations": null,
      "from": "0x02020D22dCF88f5eDd66B382D7da019F161fB7e3",
      "gasPrice": {
        "_hex": "0xdd6c6afb1"
      },
      "gasLimit": {
        "_hex": "0x15f90"
      },
      "to": "0x4FCD326ae0739D0DA0fC71020adb6aBf9abf3BdA",
      "value": {
        "_hex": "0x2db2f9a198364c0000"
      },
      "nonce": 30,
      "data": "0x",
      "r": "0xc7997d50aa45855960edf09637838e928fa9484a624af0b0c8671214b7f09098",
      "s": "0x68d22ddaa967a5ce737d94498b65ef95011a539cf42ec1f78d71316f7de2396c",
      "v": 27,
      "creates": null,
      "raw": "0xf86e1e850dd6c6afb183015f90944fcd326ae0739d0da0fc71020adb6abf9abf3bda892db2f9a198364c0000801ba0c7997d50aa45855960edf09637838e928fa9484a624af0b0c8671214b7f09098a068d22ddaa967a5ce737d94498b65ef95011a539cf42ec1f78d71316f7de2396c",
      "networkId": 0,
      "chainId": 0
    }
  ]
}