{
  "hash": "0xc13cc647530722567f244540b2950c701664e8fb58a9060dde4fe44d5421ca59",
  "parentHash": "0x8d59c37b9e3e19bc01dec3f9d9031e66ab922380fcdc15298b48616ed9a38f9c",
  "number": 83835,
  "timestamp": 1439541596,
  "nonce": "0x0414bffd088add40",
  "difficulty": 2443116806072,
  "gasLimit": {
    "_hex": "0x2fefd8"
  },
  "gasUsed": {
    "_hex": "0xa410"
  },
  "miner": "0xe6A7a1d47ff21B6321162AEA7C6CB457D5476Bca",
  "extraData": "0x476574682f76312e302e312d38326566323666362f6c696e75782f676f312e34",
  "transactions": [
    {
      "hash": "0x7eba9ebdd428957f30a72b721d459149225f27b9acf6db510ac694eedc9d3849",
      "blockHash": "0xc13cc647530722567f244540b2950c701664e8fb58a9060dde4fe44d5421ca59",
      "blockNumber": 83835,
      "transactionIndex": 0,
      "confirmations": null,
      "from": "0x32Be343B94f860124dC4fEe278FDCBD38C102D88",
      "gasPrice": {
        "_hex": "0xd77a81b1c"
      },
      "gasLimit": {
        "_hex": "0x5208"
      },
      "to": "0x3faFe90631678f97C1D101ea02D4cd743cBD24ed",
      "value": {
        "_hex": "0xbfbac59bd5346000"
      },
      "nonce": 664,
      "data": "0x",
      "r": "0x06f49f86da49e75e4327fc341c766457363891233352d0bdf6cf4956b79fe6a9",
      "s": "0x216b8345676a0daf8fb7a78037d147c6ebece8078d44abd05f85bcb79f16b99f",
      "v": 27,
      "creates": null,
      "raw": "0xf86e820298850d77a81b1c825208943fafe90631678f97c1d101ea02d4cd743cbd24ed88bfbac59bd5346000801ba006f49f86da49e75e4327fc341c766457363891233352d0bdf6cf4956b79fe6a9a0216b8345676a0daf8fb7a78037d147c6ebece8078d44abd05f85bcb79f16b99f",
      "networkId": 0,
      "chainId": 0
    },
    {
      "hash": "0x0a51e5999571b6f0bbdf5c20eb15667453fa286083cc6e924651e9fe52362ac5",
      "blockHash": "0xc13cc647530722567f244540b2950c701664e8fb58a9060dde4fe44d5421ca59",
      "blockNumber": 83835,
      "transactionIndex": 1,
      "confirmations": null,
      "from": "0x32Be343B94f860124dC4fEe278FDCBD38C102D88",
      "gasPrice": {
        "_hex": "0xd77a81b1c"
      },
      "gasLimit": {
        "_hex": "0x5208"
      },
      "to": "0xa02Ee357e3f58B351a9Afb4063Ed995ba744350a",
      "value": {
        "_hex": "0x34f3f188fe77000"
      },
      "nonce": 665,
      "data": "0x",
      "r": "0x13e574a112285c5e3ac04f33fd5025525444554986887b2b570ac18d3e8ff6ad",
      "s": "0x628310fa9af395006bae5443cfbe76fa04dd97b0c0c510b80c83b18d194450ce",
      "v": 28,
      "creates": null,
      "raw": "0xf86e820299850d77a81b1c82520894a02ee357e3f58b351a9afb4063ed995ba744350a88034f3f188fe77000801ca013e574a112285c5e3ac04f33fd5025525444554986887b2b570ac18d3e8ff6ada0628310fa9af395006bae5443cfbe76fa04dd97b0c0c510b80c83b18d194450ce",
      "networkId": 0,
      "chainId": 0
    }
  ]
}