{
  "hash": "0xce5cbcfc221d70db9e4a3278415c7c58c08f9b0206e571b8549431cdd91b207f",
  "parentHash": "0x8d410e725c6350d1aec62198773d9951ffae894156a2e4e20092ff94c230803c",
  "number": 47985,
  "timestamp": 1438949460,
  "nonce": "0x5185081b564a81c6",
  "difficulty": 1459387702946,
  "gasLimit": {
    "_hex": "0x1133b"
  },
  "gasUsed": {
    "_hex": "0x546c"
  },
  "miner": "0x88D74a59454F6cF3B51ef6b9136AFb6b9D405A88",
  "extraData": "0x476574682f76312e302e302d66633739643332642f6c696e75782f676f312e34",
  "transactions": [
    {
      "hash": "0xc5ef6b391fc7d45d730eff2d591f12fb18227b5c0a1ba818e82400790157a532",
      "blockHash": "0xce5cbcfc221d70db9e4a3278415c7c58c08f9b0206e571b8549431cdd91b207f",
      "blockNumber": 47985,
      "transactionIndex": 0,
      "confirmations": null,
      "from": "0xe1237d552429cc333FfD3038Fc3ba3441d0B7ddE",
      "gasPrice": {
        "_hex": "0x10e43e3b6f8"
      },
      "gasLimit": {
        "_hex": "0x61a8"
      },
      "to": "0x2910543Af39abA0Cd09dBb2D50200b3E800A63D2",
      "value": {
        "_hex": "0x6c184f1355d0e80000"
      },
      "nonce": 2,
      "data": "0x454e364d4d42384e47",
      "r": "0xe1a6658f32f3e38b9493034319c2c120ec954a4b91ac696a14bb2e24ed19e556",
      "s": "0x13be08e2ecdc6d511bec2a44531aa2ab4bb3a111dce76de5f17ba8ec5671daa4",
      "v": 27,
      "creates": null,
      "raw": "0xf8770286010e43e3b6f88261a8942910543af39aba0cd09dbb2d50200b3e800a63d2896c184f1355d0e8000089454e364d4d42384e471ba0e1a6658f32f3e38b9493034319c2c120ec954a4b91ac696a14bb2e24ed19e556a013be08e2ecdc6d511bec2a44531aa2ab4bb3a111dce76de5f17ba8ec5671daa4",
      "networkId": 0,
      "chainId": 0
    }
  ]
}