{
  "hash": "0x8ffa8309cd165bf9c444cdca3d3a9ef2990ec712f47ea179dc12f69fbdbd7034",
  "parentHash": "0x2c12de08d16f5b5b2e6730d099880b013a673343888429ca3547975e92b7264d",
  "number": 79707,
  "timestamp": 1439473919,
  "nonce": "0xe424c462f2faa84f",
  "difficulty": 2346092249396,
  "gasLimit": {
    "_hex": "0x2fefd8"
  },
  "gasUsed": {
    "_hex": "0x7a13"
  },
  "miner": "0xeB1325C8D9d3ea8D74aC11F4B00F1B2367686319",
  "extraData": "0x476574682f76312e302e312f77696e646f77732f676f312e342e32",
  "transactions": [
    {
      "hash": "0x11a9a44c66ca132e7774d7b9cc8f35b51f994e612e035d8e738f367e74321144",
      "blockHash": "0x8ffa8309cd165bf9c444cdca3d3a9ef2990ec712f47ea179dc12f69fbdbd7034",
      "blockNumber": 79707,
      "transactionIndex": 0,
      "confirmations": null,
      "from": "0x87C5B5874A18B4306DF8a752a6C8cc3E82daFc19",
      "gasPrice": {
        "_hex": "0x10334679c06"
      },
      "gasLimit": {
        "_hex": "0x493e0"
      },
      "to": "0xC4c51de1AbF5D60DBd329eC0F999Fd8f021ae9fC",
      "value": {
        "_hex": "0x2b5e3af16b1880000"
      },
      "nonce": 96,
      "data": "0x8d21618600000000000000000000000000000000000000000000000000000000000000808d5adaad541502933bfca57b79fdcf7b21a9ea7dbcf2e9321d253f5db02ac8f3",
      "r": "0x8b8e7d3462b167264ece92ee43a0644d658db4d5e43c39553c9300b281628cc1",
      "s": "0x4ee7417afd215e5ec5d22e62472e8de9baac786e4ebd1cec03ab872f101ec00a",
      "v": 27,
      "creates": null,
      "raw": "0xf8b46086010334679c06830493e094c4c51de1abf5d60dbd329ec0f999fd8f021ae9fc8902b5e3af16b1880000b8448d21618600000000000000000000000000000000000000000000000000000000000000808d5adaad541502933bfca57b79fdcf7b21a9ea7dbcf2e9321d253f5db02ac8f31ba08b8e7d3462b167264ece92ee43a0644d658db4d5e43c39553c9300b281628cc1a04ee7417afd215e5ec5d22e62472e8de9baac786e4ebd1cec03ab872f101ec00a",
      "networkId": 0,
      "chainId": 0
    }
  ]
}