{
  "hash": "0x71892f811f0b69a37f33c36cbae8cadcd00bf3a0428a7e5ad7f3374bd4b221a5",
  "parentHash": "0x450e280627a6e5f590d2de070e5933e9d3d328dca268551bcc67f6ea99ca0734",
  "number": 71220,
  "timestamp": 1439332690,
  "nonce": "0xf3110dcde2bc5124",
  "difficulty": 2143530422522,
  "gasLimit": {
    "_hex": "0x2fefd8"
  },
  "gasUsed": {
    "_hex": "0x1dbd2"
  },
  "miner": "0xe6A7a1d47ff21B6321162AEA7C6CB457D5476Bca",
  "extraData": "0x476574682f76312e302e312d38326566323666362f6c696e75782f676f312e34",
  "transactions": [
    {
      "hash": "0xa0270a9df32a48b3f274ceacdde78e5d4c8568c9ef64d59ee0738b2de07cb1da",
      "blockHash": "0x71892f811f0b69a37f33c36cbae8cadcd00bf3a0428a7e5ad7f3374bd4b221a5",
      "blockNumber": 71220,
      "transactionIndex": 0,
      "confirmations": null,
      "from": "0xf661E21B71A9CA331E251e51a412857D2B61d8F8",
      "gasPrice": {
        "_hex": "0xd87613690"
      },
      "gasLimit": {
        "_hex": "0x15f90"
      },
      "to": "0x740Fc79C926C4Bd3BD78DEFBE690814FF803C40c",
      "value": {
        "_hex": "0x61b31ab352c0000"
      },
      "nonce": 6,
      "data": "0x",
      "r": "0x71fcee9d0b84f0ec0c8c2ba1c0bc4f9cb87817d49a6e333f4a567ccb6a4a61d1",
      "s": "0x7f87de29a7ffac722bc89b44c32227ee0cf394a1a54bfc372bdffbf25b9d149c",
      "v": 28,
      "creates": null,
      "raw": "0xf86d06850d8761369083015f9094740fc79c926c4bd3bd78defbe690814ff803c40c88061b31ab352c0000801ca071fcee9d0b84f0ec0c8c2ba1c0bc4f9cb87817d49a6e333f4a567ccb6a4a61d1a07f87de29a7ffac722bc89b44c32227ee0cf394a1a54bfc372bdffbf25b9d149c",
      "networkId": 0,
      "chainId": 0
    },
    {
      "hash": "0x35e826ba2f2599a337493c7cbeee99a8240899a988b17e261c8e829d8d32234f",
      "blockHash": "0x71892f811f0b69a37f33c36cbae8cadcd00bf3a0428a7e5ad7f3374bd4b221a5",
      "blockNumber": 71220,
      "transactionIndex": 1,
      "confirmations": null,
      "from": "0x6c0E7ecD7bB748115A529c0d5ee2d26b4791578a",
      "gasPrice": {
        "_hex": "0xd00894930"
      },
      "gasLimit": {
        "_hex": "0x5208"
      },
      "to": "0x32Be343B94f860124dC4fEe278FDCBD38C102D88",
      "value": {
        "_hex": "0x22b18617d009aa000"
      },
      "nonce": 1,
      "data": "0x",
      "r": "0xefff263fa1d9c7644dff8e6d707a21a0087fef348d0281bd04f79630a2b21885",
      "s": "0x071b0a967e1fecccb5bfb50c2ac2c6aee3113ae7f16cd8c1608b69313f477981",
      "v": 28,
      "creates": null,
      "raw": "0xf86d01850d008949308252089432be343b94f860124dc4fee278fdcbd38c102d8889022b18617d009aa000801ca0efff263fa1d9c7644dff8e6d707a21a0087fef348d0281bd04f79630a2b21885a0071b0a967e1fecccb5bfb50c2ac2c6aee3113ae7f16cd8c1608b69313f477981",
      "networkId": 0,
      "chainId": 0
    },
    {
      "hash": "0x5bed3b330b65f6378e3f8f7c147077330e63f506577662c1a0f9e1b9ea9a42fa",
      "blockHash": "0x71892f811f0b69a37f33c36cbae8cadcd00bf3a0428a7e5ad7f3374bd4b221a5",
      "blockNumber": 71220,
      "transactionIndex": 2,
      "confirmations": null,
      "from": "0x6d921977dEFE5f4e0682CA512De1D07b1f4802E1",
      "gasPrice": {
        "_hex": "0xd00894930"
      },
      "gasLimit": {
        "_hex": "0x5208"
      },
      "to": "0x32Be343B94f860124dC4fEe278FDCBD38C102D88",
      "value": {
        "_hex": "0xa3bddae5f696a000"
      },
      "nonce": 3,
      "data": "0x",
      "r": "0x099c5db95e73cfdbe09d20d843424aa96ff68f74a9bf20a20916f6d03647bd4c",
      "s": "0x11db7c07a0d19280b6626808567f88b6f3af8e7439926f414cec15cfe573f82a",
      "v": 27,
      "creates": null,
      "raw": "0xf86c03850d008949308252089432be343b94f860124dc4fee278fdcbd38c102d8888a3bddae5f696a000801ba0099c5db95e73cfdbe09d20d843424aa96ff68f74a9bf20a20916f6d03647bd4ca011db7c07a0d19280b6626808567f88b6f3af8e7439926f414cec15cfe573f82a",
      "networkId": 0,
      "chainId": 0
    },
    {
      "hash": "0x624503cc3783f3b2eab181de15b1e5be36afe91a2fe91be12c69e7f0aed10388",
      "blockHash": "0x71892f811f0b69a37f33c36cbae8cadcd00bf3a0428a7e5ad7f3374bd4b221a5",
      "blockNumber": 71220,
      "transactionIndex": 3,
      "confirmations": null,
      "from": "0x2910543Af39abA0Cd09dBb2D50200b3E800A63D2",
      "gasPrice": {
        "_hex": "0xcea34f7cd"
      },
      "gasLimit": {
        "_hex": "0x5208"
      },
      "to": "0x5a0f0935E8E5591B2f9f2d55f29C626B50292088",
      "value": {
        "_hex": "0xad77cf8e18e3f8000"
      },
      "nonce": 266,
      "data": "0x",
      "r": "0x64c5d41a8670108d2f69393cc8edcac03c9bf66c28b4e0684b17b840304e5bfe",
      "s": "0x19c8b4f7a34e71b07ccc88ec439dc26b6da3faee23186adb88791dd0ec7f364e",
      "v": 28,
      "creates": null,
      "raw": "0xf86f82010a850cea34f7cd825208945a0f0935e8e5591b2f9f2d55f29c626b50292088890ad77cf8e18e3f8000801ca064c5d41a8670108d2f69393cc8edcac03c9bf66c28b4e0684b17b840304e5bfea019c8b4f7a34e71b07ccc88ec439dc26b6da3faee23186adb88791dd0ec7f364e",
      "networkId": 0,
      "chainId": 0
    },
    {
      "hash": "0x9f8a0761cbd1e21c4a979985c86fb86708d84e443188a87a83f891f73b64bce5",
      "blockHash": "0x71892f811f0b69a37f33c36cbae8cadcd00bf3a0428a7e5ad7f3374bd4b221a5",
      "blockNumber": 71220,
      "transactionIndex": 4,
      "confirmations": null,
      "from": "0x17580B766f7453525ca4C6A88b01b50570EA088C",
      "gasPrice": {
        "_hex": "0xcd94ea82c"
      },
      "gasLimit": {
        "_hex": "0x61a80"
      },
      "to": "0x5Fe5B7546D1628f7348B023A0393de1FC825A4fD",
      "value": {
        "_hex": "0x1bc16d674ec80000"
      },
      "nonce": 122,
      "data": "0xb595b8b50000000000000000000000000000000000000000000000000000000000000000",
      "r": "0x8b7bbf950a035c49b5de142b8ad4ec179f0d1d6a875f14c1943f3b037c1f7565",
      "s": "0x1e62dc763cb9da6fcba94987883d333075d31b4d534bebd6fb66fe9cac6c8eaf",
      "v": 27,
      "creates": null,
      "raw": "0xf8917a850cd94ea82c83061a80945fe5b7546d1628f7348b023a0393de1fc825a4fd881bc16d674ec80000a4b595b8b500000000000000000000000000000000000000000000000000000000000000001ba08b7bbf950a035c49b5de142b8ad4ec179f0d1d6a875f14c1943f3b037c1f7565a01e62dc763cb9da6fcba94987883d333075d31b4d534bebd6fb66fe9cac6c8eaf",
      "networkId": 0,
      "chainId": 0
    }
  ]
}