{
  "hash": "0x3852cb568cef81174866973daf575b26f33d20b78381c49b1aa9af515eccbe19",
  "parentHash": "0x1277037a7e2302654bf362d3695985279618d0d79d21468a0c4e43d5b432f2b1",
  "number": 52226,
  "timestamp": 1439018505,
  "nonce": "0x90d1d332070d4f34",
  "difficulty": 1547426820275,
  "gasLimit": {
    "_hex": "0x1172eb"
  },
  "gasUsed": {
    "_hex": "0xf4240"
  },
  "miner": "0xf927a40C8B7F6E07c5af7FA2155B4864a4112B13",
  "extraData": "0x476574682f76312e302e312f6c696e75782f676f312e342e32",
  "transactions": [
    {
      "hash": "0xb2475a37b42347a8e59f6b937e12ac9314fb77af3a2d28cb6da0ad517bb5aa6c",
      "blockHash": "0x3852cb568cef81174866973daf575b26f33d20b78381c49b1aa9af515eccbe19",
      "blockNumber": 52226,
      "transactionIndex": 0,
      "confirmations": null,
      "from": "0xAd7F5C601260b460ADAC6A54411Ca6Cf07dC83c3",
      "gasPrice": {
        "_hex": "0xdaa36d5ae"
      },
      "gasLimit": {
        "_hex": "0x7a120"
      },
      "to": "0xBAA54d6E90c3F4d7Ebec11bD180134C7eD8eBb52",
      "value": {
        "_hex": "0x16345785d8a0000"
      },
      "nonce": 4,
      "data": "0x",
      "r": "0xcbb543fb00a838b39c2041086c34a21559efa5bed9eb09af93a16bf71e310b3a",
      "s": "0x370d638ac150ad78c03ea662487a9d10dd0017a60c9203b37f84c4963128d877",
      "v": 28,
      "creates": null,
      "raw": "0xf86d04850daa36d5ae8307a12094baa54d6e90c3f4d7ebec11bd180134c7ed8ebb5288016345785d8a0000801ca0cbb543fb00a838b39c2041086c34a21559efa5bed9eb09af93a16bf71e310b3aa0370d638ac150ad78c03ea662487a9d10dd0017a60c9203b37f84c4963128d877",
      "networkId": 0,
      "chainId": 0
    },
    {
      "hash": "0x73d6e342ddffdf5bad4dc67101f630f1c329cc2dae6bbe0e28b1c384d250f43d",
      "blockHash": "0x3852cb568cef81174866973daf575b26f33d20b78381c49b1aa9af515eccbe19",
      "blockNumber": 52226,
      "transactionIndex": 1,
      "confirmations": null,
      "from": "0xAd7F5C601260b460ADAC6A54411Ca6Cf07dC83c3",
      "gasPrice": {
        "_hex": "0xdaa36d5ae"
      },
      "gasLimit": {
        "_hex": "0x7a120"
      },
      "to": "0xBAA54d6E90c3F4d7Ebec11bD180134C7eD8eBb52",
      "value": {
        "_hex": "0x16345785d8a0000"
      },
      "nonce": 5,
      "data": "0x",
      "r": "0xa66795e0bea8ae45b776b655aa1640b211500d9fd6d555a5b726d9a263591667",
      "s": "0x5b5fd352d6b2f3749f089e7ecf2523e58e6edd86429113cf226f347e08ec2a45",
      "v": 28,
      "creates": null,
      "raw": "0xf86d05850daa36d5ae8307a12094baa54d6e90c3f4d7ebec11bd180134c7ed8ebb5288016345785d8a0000801ca0a66795e0bea8ae45b776b655aa1640b211500d9fd6d555a5b726d9a263591667a05b5fd352d6b2f3749f089e7ecf2523e58e6edd86429113cf226f347e08ec2a45",
      "networkId": 0,
      "chainId": 0
    }
  ]
}