{
  "hash": "0x552e0afd6dac978244fb1aca8030bbfb9c645daa509e381e4f8acd36ffef4553",
  "parentHash": "0x249878cdcd09f9b6e9bc9a7d410801a33c81fa636d1ec22b3aa12044e46657fd",
  "number": 105971,
  "timestamp": 1439896527,
  "nonce": "0x40189beabc1e0bf6",
  "difficulty": 4455554229309,
  "gasLimit": {
    "_hex": "0x2fefd8"
  },
  "gasUsed": {
    "_hex": "0xf8a6"
  },
  "miner": "0x574FDcb2165600BA7FcF526D999380208DB10382",
  "extraData": "0x476574682f76312e302e312f6c696e75782f676f312e342e32",
  "transactions": [
    {
      "hash": "0xffef000865f1f5cbeb68b8043c3a3871ae2722ecf5b389fc953fdbd1e8e92d02",
      "blockHash": "0x552e0afd6dac978244fb1aca8030bbfb9c645daa509e381e4f8acd36ffef4553",
      "blockNumber": 105971,
      "transactionIndex": 0,
      "confirmations": null,
      "from": "0x8674c218F0351a62C3BA78C34FD2182A93Da94E2",
      "gasPrice": {
        "_hex": "0xba43b7400"
      },
      "gasLimit": {
        "_hex": "0x15f90"
      },
      "to": "0x5F857E29E0F20f3706b36458B10C1B7bDFb420Bc",
      "value": {
        "_hex": "0x0"
      },
      "nonce": 86,
      "data": "0xca6d56dc0000000000000000000000008674c218f0351a62c3ba78c34fd2182a93da94e2",
      "r": "0xaba0b5838d51cc0b2a8e415ecd365b4fe1cca7a847453102d93c6e94932dae55",
      "s": "0x5316487797b0431cff41bee25972d4f799c5b65b66f8f0905a015d3e7329899b",
      "v": 28,
      "creates": null,
      "raw": "0xf88956850ba43b740083015f90945f857e29e0f20f3706b36458b10c1b7bdfb420bc80a4ca6d56dc0000000000000000000000008674c218f0351a62c3ba78c34fd2182a93da94e21ca0aba0b5838d51cc0b2a8e415ecd365b4fe1cca7a847453102d93c6e94932dae55a05316487797b0431cff41bee25972d4f799c5b65b66f8f0905a015d3e7329899b",
      "networkId": 0,
      "chainId": 0
    }
  ]
}