{
  "hash": "0xa8ef8109c30c45d56d88b4cc96cd3cb0a1ff678cf488793de5ec37ca6a41c7f5",
  "parentHash": "0xd08135d038466146a53721032bd16456edd9463df415f59af13835d1ce083436",
  "number": 85097,
  "timestamp": 1439558455,
  "nonce": "0xbddc7e899ebe6495",
  "difficulty": 2722423857618,
  "gasLimit": {
    "_hex": "0x2fefd8"
  },
  "gasUsed": {
    "_hex": "0x5208"
  },
  "miner": "0xe6A7a1d47ff21B6321162AEA7C6CB457D5476Bca",
  "extraData": "0x476574682f76312e302e312d38326566323666362f6c696e75782f676f312e34",
  "transactions": [
    {
      "hash": "0xa313c034d16b2098b7b41e792f6bae992b1dfffc27cf87d0f67bd4dcaa05fed2",
      "blockHash": "0xa8ef8109c30c45d56d88b4cc96cd3cb0a1ff678cf488793de5ec37ca6a41c7f5",
      "blockNumber": 85097,
      "transactionIndex": 0,
      "confirmations": null,
      "from": "0xd7eF340E66B0d7AfcCe20A19cB7bfc81DA33D94E",
      "gasPrice": {
        "_hex": "0xd835b16e1"
      },
      "gasLimit": {
        "_hex": "0x15f90"
      },
      "to": "0xd662d68689477CFA4Bc283efCeb626de83B149Eb",
      "value": {
        "_hex": "0x5150ae84a8cdf00000"
      },
      "nonce": 3,
      "data": "0x",
      "r": "0xee54e7f1becce7a0ebeae09b2d6f7e445dba044076750033a3b37ae122d855e2",
      "s": "0x232608c79af8805a306e27d307c7f84f592bb812e05e91935533ef557df741f5",
      "v": 27,
      "creates": null,
      "raw": "0xf86e03850d835b16e183015f9094d662d68689477cfa4bc283efceb626de83b149eb895150ae84a8cdf00000801ba0ee54e7f1becce7a0ebeae09b2d6f7e445dba044076750033a3b37ae122d855e2a0232608c79af8805a306e27d307c7f84f592bb812e05e91935533ef557df741f5",
      "networkId": 0,
      "chainId": 0
    }
  ]
}