{
  "hash": "0x984007ae6431cc2727bf4dcfbe208db2973eb47eb50801b434ea46ea6aed45a0",
  "parentHash": "0xfd853da615210454f5ea25bcb005cc0f99194b90c8e85378b3448681361d69a1",
  "number": 48485,
  "timestamp": 1438957917,
  "nonce": "0x5b76cb5db9ffdc00",
  "difficulty": 1463582283417,
  "gasLimit": {
    "_hex": "0x17f1b"
  },
  "gasUsed": {
    "_hex": "0xf618"
  },
  "miner": "0x19dafe19F11E960E4cCfC6A5AA8890ebD748cA1E",
  "extraData": "0x476574682f76312e302e312d37666266393930632f6c696e75782f676f312e34",
  "transactions": [
    {
      "hash": "0xe1cfe4dec1fd2f86c1c94945bd8d6ea6e47d423b639aed5d64fb189aa1dd5352",
      "blockHash": "0x984007ae6431cc2727bf4dcfbe208db2973eb47eb50801b434ea46ea6aed45a0",
      "blockNumber": 48485,
      "transactionIndex": 0,
      "confirmations": null,
      "from": "0x48659D8f8C9A2FD44F68daA55d23A608FBE500DC",
      "gasPrice": {
        "_hex": "0xd7d40ace3"
      },
      "gasLimit": {
        "_hex": "0x61a8"
      },
      "to": "0xBB33a4b72d92FA335a3b591Ce7eE217f7a7338C1",
      "value": {
        "_hex": "0x3635c9adc5dea00000"
      },
      "nonce": 1,
      "data": "0x",
      "r": "0xda7c67c52ffdd04758796d74766f76eea87590bd83b44cc9341da07e8f3c630f",
      "s": "0x799c39fc97f5f50145e0d7055b4c70202a472e7dd978d791ac7849f5a6902ed0",
      "v": 28,
      "creates": null,
      "raw": "0xf86d01850d7d40ace38261a894bb33a4b72d92fa335a3b591ce7ee217f7a7338c1893635c9adc5dea00000801ca0da7c67c52ffdd04758796d74766f76eea87590bd83b44cc9341da07e8f3c630fa0799c39fc97f5f50145e0d7055b4c70202a472e7dd978d791ac7849f5a6902ed0",
      "networkId": 0,
      "chainId": 0
    },
    {
      "hash": "0xac77c5af2c30d235dbba79d19d1b841bb531d595988486ffffd5c00fc3ac7586",
      "blockHash": "0x984007ae6431cc2727bf4dcfbe208db2973eb47eb50801b434ea46ea6aed45a0",
      "blockNumber": 48485,
      "transactionIndex": 1,
      "confirmations": null,
      "from": "0x7892e574CADDBB5E9491DE9F26C1F2747F442eeE",
      "gasPrice": {
        "_hex": "0xd7d40ace3"
      },
      "gasLimit": {
        "_hex": "0x5208"
      },
      "to": "0x3Fea87A96a61a1c83b110b8E0A2FFA6F009b78c9",
      "value": {
        "_hex": "0x16345785d8a0000"
      },
      "nonce": 2,
      "data": "0x",
      "r": "0x2e697a71b1f3696e7731d4ba43cd7332eee84291939cdefa5508d83589af9a33",
      "s": "0x3e1da3c9027fc57c4a0a8f23bf6a81d2376d53ad4404ccfd14ec94aa866ba201",
      "v": 27,
      "creates": null,
      "raw": "0xf86c02850d7d40ace3825208943fea87a96a61a1c83b110b8e0a2ffa6f009b78c988016345785d8a0000801ba02e697a71b1f3696e7731d4ba43cd7332eee84291939cdefa5508d83589af9a33a03e1da3c9027fc57c4a0a8f23bf6a81d2376d53ad4404ccfd14ec94aa866ba201",
      "networkId": 0,
      "chainId": 0
    },
    {
      "hash": "0x2a0182afc3ceecbf29c08709ab0b15fc81ea8d5000a6ff913db79c4b1e1d3314",
      "blockHash": "0x984007ae6431cc2727bf4dcfbe208db2973eb47eb50801b434ea46ea6aed45a0",
      "blockNumber": 48485,
      "transactionIndex": 2,
      "confirmations": null,
      "from": "0x6De181Fc4C140FA31F196e5393516c49EEeBdAd3",
      "gasPrice": {
        "_hex": "0xd0406473a"
      },
      "gasLimit": {
        "_hex": "0x5208"
      },
      "to": "0x32Be343B94f860124dC4fEe278FDCBD38C102D88",
      "value": {
        "_hex": "0xcbcba91edd63000"
      },
      "nonce": 2,
      "data": "0x",
      "r": "0x7c9a4886d4d520f192de8519dd05f83c79ba5fefd791bca3781943222a0cd64c",
      "s": "0x0ae45232cad11de71564e1b691bdc4fd8a6017e0385834f4a479bd3e7be65059",
      "v": 27,
      "creates": null,
      "raw": "0xf86c02850d0406473a8252089432be343b94f860124dc4fee278fdcbd38c102d88880cbcba91edd63000801ba07c9a4886d4d520f192de8519dd05f83c79ba5fefd791bca3781943222a0cd64ca00ae45232cad11de71564e1b691bdc4fd8a6017e0385834f4a479bd3e7be65059",
      "networkId": 0,
      "chainId": 0
    }
  ]
}