{
  "hash": "0x1746fb4548e01042e11a615198dc930dc549030628ef0958c7d18b38ca96df1b",
  "parentHash": "0x6de7bb94056cd50132ab072c91538a26996f0883736a69db1d1f0e1d3741b354",
  "number": 95439,
  "timestamp": 1439724132,
  "nonce": "0x19fdc84e4d625e71",
  "difficulty": 3584636070401,
  "gasLimit": {
    "_hex": "0x2fefd8"
  },
  "gasUsed": {
    "_hex": "0x520c"
  },
  "miner": "0x909755D480A27911cB7EeeB5edB918fae50883c0",
  "extraData": "0x476574682f76312e302e312d39383130306634372f6c696e75782f676f312e34",
  "transactions": [
    {
      "hash": "0x3265f2f0dff14e7bc57c485849e0d8cf3b3fffff71fb63a62ded59890586ed7f",
      "blockHash": "0x1746fb4548e01042e11a615198dc930dc549030628ef0958c7d18b38ca96df1b",
      "blockNumber": 95439,
      "transactionIndex": 0,
      "confirmations": null,
      "from": "0x0785A86bE9c2D68DbAEbaf1DB72641680529E2FD",
      "gasPrice": {
        "_hex": "0xd95208e43"
      },
      "gasLimit": {
        "_hex": "0x7530"
      },
      "to": "0xe1F5B8dc9336BC9637eA97c3f3b13Cd363F88854",
      "value": {
        "_hex": "0x3782dace9d900000"
      },
      "nonce": 5,
      "data": "0x00",
      "r": "0x629011e3ebe2d986ef51262eff943e3ceac150b599cf0e72fcb2b8e3df9732ed",
      "s": "0xbac021e7500c49ebbcc7048bd73d781b43dc355af19bab98e2ad534864769a91",
      "v": 27,
      "creates": null,
      "raw": "0xf86c05850d95208e4382753094e1f5b8dc9336bc9637ea97c3f3b13cd363f88854883782dace9d900000001ba0629011e3ebe2d986ef51262eff943e3ceac150b599cf0e72fcb2b8e3df9732eda0bac021e7500c49ebbcc7048bd73d781b43dc355af19bab98e2ad534864769a91",
      "networkId": 0,
      "chainId": 0
    }
  ]
}