{
  "hash": "0x0c1e5e570cbe2da8601015f3e66c1d9c5fe18c3521eeec17d6c4ff334ee36102",
  "parentHash": "0xad73a8ce7f7161c7d20504220d63a404b22df96b86d39424195d2d9626c8215a",
  "number": 107345,
  "timestamp": 1439920931,
  "nonce": "0x3650a5988e4bbb78",
  "difficulty": 4398626584139,
  "gasLimit": {
    "_hex": "0x2fefd8"
  },
  "gasUsed": {
    "_hex": "0xa410"
  },
  "miner": "0x0D4EcC7d750180EBf4A9Df728B6669B5Bceb5E40",
  "extraData": "0x",
  "transactions": [
    {
      "hash": "0x193cde41349c5500db5840e4e83c0d6e7990027a7a7c6db660f01c1da1438955",
      "blockHash": "0x0c1e5e570cbe2da8601015f3e66c1d9c5fe18c3521eeec17d6c4ff334ee36102",
      "blockNumber": 107345,
      "transactionIndex": 0,
      "confirmations": null,
      "from": "0xb85150eB365e7Df0941F0CF08235f987bA91506A",
      "gasPrice": {
        "_hex": "0xcbfd65105"
      },
      "gasLimit": {
        "_hex": "0x15f90"
      },
      "to": "0xce7a6e1143620333cbaeDb089A14a5C08a3B7DF2",
      "value": {
        "_hex": "0x5"
      },
      "nonce": 1,
      "data": "0x",
      "r": "0x674233ea4a4cf8992a47a38ae86e06330becf710f086b9ecf5dff852c499afba",
      "s": "0x606ce39aae7d31cd84268b86d242ef8fd8eecc48cf5a9d4cfcf514e505c465fd",
      "v": 28,
      "creates": null,
      "raw": "0xf86501850cbfd6510583015f9094ce7a6e1143620333cbaedb089a14a5c08a3b7df205801ca0674233ea4a4cf8992a47a38ae86e06330becf710f086b9ecf5dff852c499afbaa0606ce39aae7d31cd84268b86d242ef8fd8eecc48cf5a9d4cfcf514e505c465fd",
      "networkId": 0,
      "chainId": 0
    },
    {
      "hash": "0x2a235f08543a5e4df27be7c57a84d321cc35a05d5f2945202a558bf746e46edd",
      "blockHash": "0x0c1e5e570cbe2da8601015f3e66c1d9c5fe18c3521eeec17d6c4ff334ee36102",
      "blockNumber": 107345,
      "transactionIndex": 1,
      "confirmations": null,
      "from": "0xb85150eB365e7Df0941F0CF08235f987bA91506A",
      "gasPrice": {
        "_hex": "0xcbfd65105"
      },
      "gasLimit": {
        "_hex": "0x15f90"
      },
      "to": "0xce7a6e1143620333cbaeDb089A14a5C08a3B7DF2",
      "value": {
        "_hex": "0x5"
      },
      "nonce": 2,
      "data": "0x",
      "r": "0xf0a2e6b2fed647b9852b1799578c68b8a3691a4bc686a2de6267cf39182d5b40",
      "s": "0x46bf29d60081bcf0afabb4662b683918c836c498030212c1244fb581d73e471a",
      "v": 27,
      "creates": null,
      "raw": "0xf86502850cbfd6510583015f9094ce7a6e1143620333cbaedb089a14a5c08a3b7df205801ba0f0a2e6b2fed647b9852b1799578c68b8a3691a4bc686a2de6267cf39182d5b40a046bf29d60081bcf0afabb4662b683918c836c498030212c1244fb581d73e471a",
      "networkId": 0,
      "chainId": 0
    }
  ]
}