{
  "hash": "0x5b205b3d4ad81d8e61d3001cea79b069b4e3abf6c7e64400f69c72f788de0a6e",
  "parentHash": "0xcc3eb747a04595d0c6cd138ebb200d25a9fabb8fd639e2c6ae281ec659e99848",
  "number": 48854,
  "timestamp": 1438964116,
  "nonce": "0xf5bca038e91bf579",
  "difficulty": 1477158641247,
  "gasLimit": {
    "_hex": "0x1f8f2"
  },
  "gasUsed": {
    "_hex": "0x546c"
  },
  "miner": "0xf8E0CA3Ed80bd541b94BEdCf259e8CF2141A9523",
  "extraData": "0x476574682f76312e302e312f77696e646f77732f676f312e342e32",
  "transactions": [
    {
      "hash": "0x659f2af20be284af47d94126852f37cc086b4d72bb52503f0db9c58f00202976",
      "blockHash": "0x5b205b3d4ad81d8e61d3001cea79b069b4e3abf6c7e64400f69c72f788de0a6e",
      "blockNumber": 48854,
      "transactionIndex": 0,
      "confirmations": null,
      "from": "0xf6a8635757c5e8C134d20D028cf778cf8609E46A",
      "gasPrice": {
        "_hex": "0xdcd53a790"
      },
      "gasLimit": {
        "_hex": "0x15f90"
      },
      "to": "0x2910543Af39abA0Cd09dBb2D50200b3E800A63D2",
      "value": {
        "_hex": "0x4ed24db060b9f80000"
      },
      "nonce": 1,
      "data": "0x454e52473051335a52",
      "r": "0x4c6fe319a962263a81f589a42d11daac1a287badda77017cc6a9734d37d5ddf1",
      "s": "0x2d28179509228517c25981896b8a46e83172f90e2a56162ba3bf53f531a0d86c",
      "v": 28,
      "creates": null,
      "raw": "0xf87701850dcd53a79083015f90942910543af39aba0cd09dbb2d50200b3e800a63d2894ed24db060b9f8000089454e52473051335a521ca04c6fe319a962263a81f589a42d11daac1a287badda77017cc6a9734d37d5ddf1a02d28179509228517c25981896b8a46e83172f90e2a56162ba3bf53f531a0d86c",
      "networkId": 0,
      "chainId": 0
    }
  ]
}