{
  "hash": "0x32e95c7224b6ef6d34f1699ca11b585d84fc66fa817a206e585887460c3766c6",
  "parentHash": "0x826ddaad113438a9764fe0df2294b16875019d70d738fc2e8dd70f45f6a65259",
  "number": 66106,
  "timestamp": 1439248722,
  "nonce": "0xf53684e441737c1f",
  "difficulty": 1949086309775,
  "gasLimit": {
    "_hex": "0x2fefd5"
  },
  "gasUsed": {
    "_hex": "0xa410"
  },
  "miner": "0x31995C46B15C84523cDEE26f49A681b8237e43F5",
  "extraData": "0x476574682f76312e302e312f77696e646f77732f676f312e342e32",
  "transactions": [
    {
      "hash": "0x71f5e3e48088d7d6bcbd69fe0a37d524d0ae01ce2d55a65494b11e6208dc1c36",
      "blockHash": "0x32e95c7224b6ef6d34f1699ca11b585d84fc66fa817a206e585887460c3766c6",
      "blockNumber": 66106,
      "transactionIndex": 0,
      "confirmations": null,
      "from": "0x120A270bbC009644e35F0bB6ab13f95b8199c4ad",
      "gasPrice": {
        "_hex": "0xd0571ff28"
      },
      "gasLimit": {
        "_hex": "0x15f90"
      },
      "to": "0x2223C1e1e0d2C65624427427A11faEfAb9666F97",
      "value": {
        "_hex": "0xde0b6b3a7640000"
      },
      "nonce": 141,
      "data": "0x",
      "r": "0x1582bec5190c3213922a05e5dfaab75435bd8d2c7e32f99876dabc066293e4e5",
      "s": "0x2b42fcb9be966c1bbc9c96d1756b8640a4395be89cd75c3a19d9a94d9c39d4be",
      "v": 27,
      "creates": null,
      "raw": "0xf86e818d850d0571ff2883015f90942223c1e1e0d2c65624427427a11faefab9666f97880de0b6b3a7640000801ba01582bec5190c3213922a05e5dfaab75435bd8d2c7e32f99876dabc066293e4e5a02b42fcb9be966c1bbc9c96d1756b8640a4395be89cd75c3a19d9a94d9c39d4be",
      "networkId": 0,
      "chainId": 0
    },
    {
      "hash": "0xc4b4c0bb4030c8324f33bf6d74811702bc8ffcf872dda8df38ffa657786f6776",
      "blockHash": "0x32e95c7224b6ef6d34f1699ca11b585d84fc66fa817a206e585887460c3766c6",
      "blockNumber": 66106,
      "transactionIndex": 1,
      "confirmations": null,
      "from": "0x120A270bbC009644e35F0bB6ab13f95b8199c4ad",
      "gasPrice": {
        "_hex": "0xd0571ff28"
      },
      "gasLimit": {
        "_hex": "0x15f90"
      },
      "to": "0xF6F1A44309051c6B25e47dff909B179Bb9aB591C",
      "value": {
        "_hex": "0x1b1ae4d6e2ef500000"
      },
      "nonce": 142,
      "data": "0x",
      "r": "0x29243b220c3c8e926292f10da991bab76579cf640857cb112d7ceb99b3cfacc5",
      "s": "0x15283cb3e038068a6cdeb5c8c404c655ad052ee43b0fb47c496e87b306ebf1be",
      "v": 28,
      "creates": null,
      "raw": "0xf86f818e850d0571ff2883015f9094f6f1a44309051c6b25e47dff909b179bb9ab591c891b1ae4d6e2ef500000801ca029243b220c3c8e926292f10da991bab76579cf640857cb112d7ceb99b3cfacc5a015283cb3e038068a6cdeb5c8c404c655ad052ee43b0fb47c496e87b306ebf1be",
      "networkId": 0,
      "chainId": 0
    }
  ]
}