{
  "hash": "0x677d5ac6d42c1feb71ff2ccc05e8a92dabb515c7ba29c031d8533aea316a5004",
  "parentHash": "0xbfa9a0927fbbb53f7f1226570c1ab9c37e0969b3f7c896648026339ac7edfea2",
  "number": 65675,
  "timestamp": 1439241063,
  "nonce": "0x4f45167f0aff20d9",
  "difficulty": 1934962339608,
  "gasLimit": {
    "_hex": "0x2fefd8"
  },
  "gasUsed": {
    "_hex": "0x5208"
  },
  "miner": "0xd0487B571998C573103F90F9873F5f2D17e46811",
  "extraData": "0x476574682f76312e302e312d38326566323666362f6c696e75782f676f312e34",
  "transactions": [
    {
      "hash": "0x8bba207ba477537d8a317cce121e8ec52ba3e7158dd988253228989e0f666a65",
      "blockHash": "0x677d5ac6d42c1feb71ff2ccc05e8a92dabb515c7ba29c031d8533aea316a5004",
      "blockNumber": 65675,
      "transactionIndex": 0,
      "confirmations": null,
      "from": "0xEA3779D14A13F6C78566bCDE403591413a6239db",
      "gasPrice": {
        "_hex": "0xcc88d20df"
      },
      "gasLimit": {
        "_hex": "0x15f90"
      },
      "to": "0x14474c5a1d2745901c71Eb7179560A9dde3d4Aa0",
      "value": {
        "_hex": "0xde0b6b3a7640000"
      },
      "nonce": 3,
      "data": "0x",
      "r": "0xfbdbe2c0f54f335e61c1c2976f7e3cc0811faf9962e8122de1de3ba9e3bcfefc",
      "s": "0x4b407f491d2977c73dc7d6c40de7fda32184efc79055f0164cd10748771375ba",
      "v": 28,
      "creates": null,
      "raw": "0xf86d03850cc88d20df83015f909414474c5a1d2745901c71eb7179560a9dde3d4aa0880de0b6b3a7640000801ca0fbdbe2c0f54f335e61c1c2976f7e3cc0811faf9962e8122de1de3ba9e3bcfefca04b407f491d2977c73dc7d6c40de7fda32184efc79055f0164cd10748771375ba",
      "networkId": 0,
      "chainId": 0
    }
  ]
}