{
  "hash": "0x7e70123aa40661bdfcd8ab1d8c560ba0a47c1d49474ef709a8cc5cabf245ef0a",
  "parentHash": "0xe86a11fda727d4789d5a800aceb37a1c64347f4d0b8f67bfc7602ce2a2e5c5f9",
  "number": 121137,
  "timestamp": 1440172147,
  "nonce": "0x85df30845662b85d",
  "difficulty": 4395691163500,
  "gasLimit": {
    "_hex": "0x2fefd8"
  },
  "gasUsed": {
    "_hex": "0x5208"
  },
  "miner": "0x1A22137e525478043F6E1394849e6C23932786C9",
  "extraData": "0xd783010002844765746887676f312e342e32856c696e7578",
  "transactions": [
    {
      "hash": "0x9aac2f3e79b50c0c384f963cf2f8f3b86a388f4ad1914d7fea4ff61b126544a1",
      "blockHash": "0x7e70123aa40661bdfcd8ab1d8c560ba0a47c1d49474ef709a8cc5cabf245ef0a",
      "blockNumber": 121137,
      "transactionIndex": 0,
      "confirmations": null,
      "from": "0x4D67f4F0Db45b3B5a3424B39ed8d972F710381D5",
      "gasPrice": {
        "_hex": "0xba43b7400"
      },
      "gasLimit": {
        "_hex": "0x5208"
      },
      "to": "0x32Be343B94f860124dC4fEe278FDCBD38C102D88",
      "value": {
        "_hex": "0x2c25d6559ce5e6000"
      },
      "nonce": 62,
      "data": "0x",
      "r": "0xc447d964d260eef35c80a3206dc51f38fb8e1552196ffc231f068d869f7b3cf7",
      "s": "0x63c91404db42b92869d2deebc7ad8c07c7545c9ad6a8e0c2cdb4c2716aef6619",
      "v": 27,
      "creates": null,
      "raw": "0xf86d3e850ba43b74008252089432be343b94f860124dc4fee278fdcbd38c102d888902c25d6559ce5e6000801ba0c447d964d260eef35c80a3206dc51f38fb8e1552196ffc231f068d869f7b3cf7a063c91404db42b92869d2deebc7ad8c07c7545c9ad6a8e0c2cdb4c2716aef6619",
      "networkId": 0,
      "chainId": 0
    }
  ]
}