{
  "hash": "0xecf24492aeed2303cea6f918d24cc38f49bdfb4349b71cc457eb4f006b767546",
  "parentHash": "0x7122ce65771d287c61c984daa911d3b2eedf6ad7e158fac11d5ea170d5419e4e",
  "number": 83908,
  "timestamp": 1439542491,
  "nonce": "0x9d266519a68b81c5",
  "difficulty": 2468275696985,
  "gasLimit": {
    "_hex": "0x2fefd8"
  },
  "gasUsed": {
    "_hex": "0x5208"
  },
  "miner": "0xDCaA6b5a9771756c30bf9e4629591344E36DBd54",
  "extraData": "0x",
  "transactions": [
    {
      "hash": "0xbff2a026d9eb634f861c6b3b0e60d709af4f265787c1acd8382a95e04277d6b1",
      "blockHash": "0xecf24492aeed2303cea6f918d24cc38f49bdfb4349b71cc457eb4f006b767546",
      "blockNumber": 83908,
      "transactionIndex": 0,
      "confirmations": null,
      "from": "0x61B3df2e9e9Fd968131f1e88f0a0Eb5BD765464D",
      "gasPrice": {
        "_hex": "0xd69b48315"
      },
      "gasLimit": {
        "_hex": "0x15f90"
      },
      "to": "0xEe38Df16452Bb041e346cAa6679EFC57c8bD4603",
      "value": {
        "_hex": "0x0"
      },
      "nonce": 2,
      "data": "0x",
      "r": "0x09e68dfc48bdf5ef80b8c1f1e7ab408e04515835e29fc33c94a353a42623ce4d",
      "s": "0x49c72c9a597c00b321264c20b6aabeda9825e19db601141135c3c115564af589",
      "v": 28,
      "creates": null,
      "raw": "0xf86502850d69b4831583015f9094ee38df16452bb041e346caa6679efc57c8bd460380801ca009e68dfc48bdf5ef80b8c1f1e7ab408e04515835e29fc33c94a353a42623ce4da049c72c9a597c00b321264c20b6aabeda9825e19db601141135c3c115564af589",
      "networkId": 0,
      "chainId": 0
    }
  ]
}