{
  "hash": "0x8aa4d508098051d2d64c27054ecdd5c4315b572ba72a8815eca67b997e6722df",
  "parentHash": "0xd8428a72fbe5f096f980d8945c9b8c7e347fba796a38ed1ca0b8edc8ff0adddc",
  "number": 72601,
  "timestamp": 1439355296,
  "nonce": "0xbc2b7f5c8d39ee1c",
  "difficulty": 2197217786525,
  "gasLimit": {
    "_hex": "0x2fefd8"
  },
  "gasUsed": {
    "_hex": "0x5208"
  },
  "miner": "0xbb7B8287f3F0a933474a79eAe42CBCa977791171",
  "extraData": "0x476574682f4c5649562f76312e302e312f6c696e75782f676f312e342e32",
  "transactions": [
    {
      "hash": "0x3e706140cbb6d9acc2a6adc8cfe9be30b454eb3262242a264cdde09929b8d967",
      "blockHash": "0x8aa4d508098051d2d64c27054ecdd5c4315b572ba72a8815eca67b997e6722df",
      "blockNumber": 72601,
      "transactionIndex": 0,
      "confirmations": null,
      "from": "0x441ACa82631324aCbFa2468bda325bBD78477bBF",
      "gasPrice": {
        "_hex": "0xd641f460d"
      },
      "gasLimit": {
        "_hex": "0x15f90"
      },
      "to": "0xcaEFdC9e1FA8EBB611f06963088428cae1Ecac1A",
      "value": {
        "_hex": "0xde0b6b3a7640000"
      },
      "nonce": 0,
      "data": "0x",
      "r": "0x05a9659b00aecca6a7b78f08b1b50dda02964d98297b86280f517a7ee006270c",
      "s": "0x6cf92faca748cee86364606def9dbbd46f3adf82f66f8dcc716439d7aa84fd7a",
      "v": 27,
      "creates": null,
      "raw": "0xf86d80850d641f460d83015f9094caefdc9e1fa8ebb611f06963088428cae1ecac1a880de0b6b3a7640000801ba005a9659b00aecca6a7b78f08b1b50dda02964d98297b86280f517a7ee006270ca06cf92faca748cee86364606def9dbbd46f3adf82f66f8dcc716439d7aa84fd7a",
      "networkId": 0,
      "chainId": 0
    }
  ]
}