{
  "hash": "0xef0cfcb97d5f2d9195d2d3f497522d45a5742bc2e10f419e28bdf57793bfbd1a",
  "parentHash": "0x2751969393832cf82ab31bd77778167ad5fb860c752e3ab75c36cd2f6d450f43",
  "number": 111125,
  "timestamp": 1439985080,
  "nonce": "0x44a530c07433cd4f",
  "difficulty": 4400940656472,
  "gasLimit": {
    "_hex": "0x2fefd8"
  },
  "gasUsed": {
    "_hex": "0x5208"
  },
  "miner": "0xe6A7a1d47ff21B6321162AEA7C6CB457D5476Bca",
  "extraData": "0x476574682f76312e302e312d38326566323666362f6c696e75782f676f312e34",
  "transactions": [
    {
      "hash": "0xae2fead7e6aab45a482580caefd4151053b970910c587a5b86fce546d9fe6879",
      "blockHash": "0xef0cfcb97d5f2d9195d2d3f497522d45a5742bc2e10f419e28bdf57793bfbd1a",
      "blockNumber": 111125,
      "transactionIndex": 0,
      "confirmations": null,
      "from": "0x007f7f58D3eb5b7510A301eCC749FC1fCDDBE14D",
      "gasPrice": {
        "_hex": "0xd382b0b9c"
      },
      "gasLimit": {
        "_hex": "0x15f90"
      },
      "to": "0xb1abce2918E21ddb93AA452731a12672A3d9F75a",
      "value": {
        "_hex": "0x4563918244f40000"
      },
      "nonce": 302,
      "data": "0x",
      "r": "0x5b0a773da18a98e3c74c44577e31d67014e776ae49b71b867e803609d6c559b5",
      "s": "0x4c717c2ca7e4b188454b7ee3e3c049647686ab70bb553a21674097eba8f1728a",
      "v": 28,
      "creates": null,
      "raw": "0xf86f82012e850d382b0b9c83015f9094b1abce2918e21ddb93aa452731a12672a3d9f75a884563918244f40000801ca05b0a773da18a98e3c74c44577e31d67014e776ae49b71b867e803609d6c559b5a04c717c2ca7e4b188454b7ee3e3c049647686ab70bb553a21674097eba8f1728a",
      "networkId": 0,
      "chainId": 0
    }
  ]
}