{
  "hash": "0xd3f8b1a482d2429ef0c24c98f7972e6da47d1c989072b76d8b90c1eba783740f",
  "parentHash": "0x29cfb7f2734e9928075dcfde6f298da33edcdfe695c9d7c151b34830a00a6371",
  "number": 70021,
  "timestamp": 1439313482,
  "nonce": "0x2f45b0bc556f5cb7",
  "difficulty": 2109569396776,
  "gasLimit": {
    "_hex": "0x2fefd8"
  },
  "gasUsed": {
    "_hex": "0x5208"
  },
  "miner": "0x49B89158a25D2Bf1E2c4B08f28b35935C1C27A0f",
  "extraData": "0x476574682f76312e302e312f6c696e75782f676f312e342e32",
  "transactions": [
    {
      "hash": "0xd30a6486f67e1aa00043d9ad5abd4e749756a825f6f70a791e2dad2578e9ebde",
      "blockHash": "0xd3f8b1a482d2429ef0c24c98f7972e6da47d1c989072b76d8b90c1eba783740f",
      "blockNumber": 70021,
      "transactionIndex": 0,
      "confirmations": null,
      "from": "0x32Be343B94f860124dC4fEe278FDCBD38C102D88",
      "gasPrice": {
        "_hex": "0xdead63ae2"
      },
      "gasLimit": {
        "_hex": "0x5208"
      },
      "to": "0xC20b3638Bf021A5f01B7732C141963181DDF3366",
      "value": {
        "_hex": "0x767895c4eb9ab00000"
      },
      "nonce": 241,
      "data": "0x",
      "r": "0x69f94c766589ef65e61a414a9a405648068b23d7891f8eb1f748c8f7ee82a84c",
      "s": "0x6cfd396d10b5cf5cba476a8733c1845f187c07a47e9a999c5d8b4826fca57bb9",
      "v": 27,
      "creates": null,
      "raw": "0xf86e81f1850dead63ae282520894c20b3638bf021a5f01b7732c141963181ddf336689767895c4eb9ab00000801ba069f94c766589ef65e61a414a9a405648068b23d7891f8eb1f748c8f7ee82a84ca06cfd396d10b5cf5cba476a8733c1845f187c07a47e9a999c5d8b4826fca57bb9",
      "networkId": 0,
      "chainId": 0
    }
  ]
}