{
  "hash": "0xe6559a090293309564b329ec1260be5fbd4951c88c9cd5085c4e0d8afe283dc5",
  "parentHash": "0xae0a70c2a0ca5e9fdb50e76ecf27c81f4d8e48a6dc3c7dab8927e31994635a60",
  "number": 74939,
  "timestamp": 1439394976,
  "nonce": "0x85ee1157d562c48a",
  "difficulty": 2190179531799,
  "gasLimit": {
    "_hex": "0x2fefd8"
  },
  "gasUsed": {
    "_hex": "0x5208"
  },
  "miner": "0xe6A7a1d47ff21B6321162AEA7C6CB457D5476Bca",
  "extraData": "0x476574682f76312e302e312d38326566323666362f6c696e75782f676f312e34",
  "transactions": [
    {
      "hash": "0xb86dfd69ebd0d1e98a49514cec113128c8642cbb7350ab6c2f970771528a2373",
      "blockHash": "0xe6559a090293309564b329ec1260be5fbd4951c88c9cd5085c4e0d8afe283dc5",
      "blockNumber": 74939,
      "transactionIndex": 0,
      "confirmations": null,
      "from": "0xe7cfdAcb398c319799E001D6A0F5d07B9187Ae16",
      "gasPrice": {
        "_hex": "0xcbb6b321c"
      },
      "gasLimit": {
        "_hex": "0x5208"
      },
      "to": "0x32Be343B94f860124dC4fEe278FDCBD38C102D88",
      "value": {
        "_hex": "0x1a03f86db5b638000"
      },
      "nonce": 0,
      "data": "0x",
      "r": "0xe39a4e4ac34720af84ab4da7b23f439a33f2b8daf2b84d3be0163aff914ca6bf",
      "s": "0x48d0c74208d3870f4285199e86aec01e63e2e533c34b65ac7d0b947168b2b90a",
      "v": 28,
      "creates": null,
      "raw": "0xf86d80850cbb6b321c8252089432be343b94f860124dc4fee278fdcbd38c102d888901a03f86db5b638000801ca0e39a4e4ac34720af84ab4da7b23f439a33f2b8daf2b84d3be0163aff914ca6bfa048d0c74208d3870f4285199e86aec01e63e2e533c34b65ac7d0b947168b2b90a",
      "networkId": 0,
      "chainId": 0
    }
  ]
}