{
  "hash": "0x43c1bf1b7bad5ee1aa5a4a60aebae62e1c8b5d2c548a2bbdc643ebd146c337d1",
  "parentHash": "0x3cd313c7e8c6ccbec3e9b3cd369ffccd3112111dffb6219048c559b6444732a3",
  "number": 54603,
  "timestamp": 1439056843,
  "nonce": "0x0f4fbf2055fc8061",
  "difficulty": 1622021741831,
  "gasLimit": {
    "_hex": "0x2fefd8"
  },
  "gasUsed": {
    "_hex": "0x5208"
  },
  "miner": "0x47ff6576639c2e94762eA5443978D7681C0E78DC",
  "extraData": "0x476574682f76312e302e312f6c696e75782f676f312e342e32",
  "transactions": [
    {
      "hash": "0x8304e094018f89f2abf67421a7f47a454abb8da776eae63d5d4d78545f7796bb",
      "blockHash": "0x43c1bf1b7bad5ee1aa5a4a60aebae62e1c8b5d2c548a2bbdc643ebd146c337d1",
      "blockNumber": 54603,
      "transactionIndex": 0,
      "confirmations": null,
      "from": "0x458F183347F45a4001807728A89F31E9Da9D4A58",
      "gasPrice": {
        "_hex": "0xd587f074c"
      },
      "gasLimit": {
        "_hex": "0x15f90"
      },
      "to": "0x7fa165177F28D171bA7C17f765c1904344Ec64CB",
      "value": {
        "_hex": "0x31708ae0045440000"
      },
      "nonce": 3,
      "data": "0x",
      "r": "0xae7814fd189222938c687d26e4e9f2f45d39cf99eb91ad26efca090d30aa7f49",
      "s": "0x6a0295966b6ba065ec409b54a5d9659cce88385c7c9ba91e5d02f5c952fa0da9",
      "v": 27,
      "creates": null,
      "raw": "0xf86e03850d587f074c83015f90947fa165177f28d171ba7c17f765c1904344ec64cb89031708ae0045440000801ba0ae7814fd189222938c687d26e4e9f2f45d39cf99eb91ad26efca090d30aa7f49a06a0295966b6ba065ec409b54a5d9659cce88385c7c9ba91e5d02f5c952fa0da9",
      "networkId": 0,
      "chainId": 0
    }
  ]
}