{
  "hash": "0x363459c99bd318ecbbb0b84228a2d60d4ee681a742c696d9127b70aa59b79e7f",
  "parentHash": "0xda194d6ef02a0169d4469244e9187c2d95b8bd2073b1c6a5bd6d08811a50c390",
  "number": 91689,
  "timestamp": 1439659858,
  "nonce": "0x4141ef6edaabeec7",
  "difficulty": 3489506203024,
  "gasLimit": {
    "_hex": "0x2fefd8"
  },
  "gasUsed": {
    "_hex": "0x5208"
  },
  "miner": "0xf927a40C8B7F6E07c5af7FA2155B4864a4112B13",
  "extraData": "0x",
  "transactions": [
    {
      "hash": "0x7274f63e4e8ed605f4f1ba0c021634ddd0507ea8adaa187fcbd215463336c3bf",
      "blockHash": "0x363459c99bd318ecbbb0b84228a2d60d4ee681a742c696d9127b70aa59b79e7f",
      "blockNumber": 91689,
      "transactionIndex": 0,
      "confirmations": null,
      "from": "0x2910543Af39abA0Cd09dBb2D50200b3E800A63D2",
      "gasPrice": {
        "_hex": "0xde827aa7c"
      },
      "gasLimit": {
        "_hex": "0x5208"
      },
      "to": "0xA8471786fF71d0F894e60Ab9e3217a7E842c7b38",
      "value": {
        "_hex": "0xdcef33a6f838000"
      },
      "nonce": 813,
      "data": "0x",
      "r": "0xa1bd2fdf0c0875eeb6e28ce31c55485d013400dd5d7b2666c945f54fcfe8d525",
      "s": "0x79089133a07866792db323f72a771ce5e4fff3ace6f33be6007b904ebbc3d03e",
      "v": 28,
      "creates": null,
      "raw": "0xf86e82032d850de827aa7c82520894a8471786ff71d0f894e60ab9e3217a7e842c7b38880dcef33a6f838000801ca0a1bd2fdf0c0875eeb6e28ce31c55485d013400dd5d7b2666c945f54fcfe8d525a079089133a07866792db323f72a771ce5e4fff3ace6f33be6007b904ebbc3d03e",
      "networkId": 0,
      "chainId": 0
    }
  ]
}