{
  "hash": "0x786b7b34061e77f12dff8a83f2fe02b4844e2547f78253d45f65063972a427fd",
  "parentHash": "0x1aa55e32eb3c484dd7440bb9977515749c3559e715f6658631834ef7d42884df",
  "number": 73499,
  "timestamp": 1439370230,
  "nonce": "0x9c8ee8563e17af91",
  "difficulty": 2214213736404,
  "gasLimit": {
    "_hex": "0x2fefd8"
  },
  "gasUsed": {
    "_hex": "0x5208"
  },
  "miner": "0x123843545FB525C8E134c9A5F15ADA6865cc3848",
  "extraData": "0x476574682f76312e302e312f77696e646f77732f676f312e342e32",
  "transactions": [
    {
      "hash": "0xe1d054069e84ba16d64d78064180aa875f19ff66caa1050abb86e05b9117be4d",
      "blockHash": "0x786b7b34061e77f12dff8a83f2fe02b4844e2547f78253d45f65063972a427fd",
      "blockNumber": 73499,
      "transactionIndex": 0,
      "confirmations": null,
      "from": "0xa70a9a7040d542C632D8e0bE7c5513A8a5Bbc752",
      "gasPrice": {
        "_hex": "0xcb1f00610"
      },
      "gasLimit": {
        "_hex": "0x5208"
      },
      "to": "0x32Be343B94f860124dC4fEe278FDCBD38C102D88",
      "value": {
        "_hex": "0x455f801e8697a800"
      },
      "nonce": 22,
      "data": "0x",
      "r": "0x6be38440d23da5ff0add84aeee83d063a4a3eab75c0b23266c3757eb8a9abfae",
      "s": "0x504fb140d2773b4fa0d94579f956a61233b67c673c97929fb7c5c47d2d3fc648",
      "v": 28,
      "creates": null,
      "raw": "0xf86c16850cb1f006108252089432be343b94f860124dc4fee278fdcbd38c102d8888455f801e8697a800801ca06be38440d23da5ff0add84aeee83d063a4a3eab75c0b23266c3757eb8a9abfaea0504fb140d2773b4fa0d94579f956a61233b67c673c97929fb7c5c47d2d3fc648",
      "networkId": 0,
      "chainId": 0
    }
  ]
}