{
  "hash": "0x94b053def9647198e84dd0f2e25580e8b66fb2b22e53293ae3b00aae18fa95d3",
  "parentHash": "0x13083e22b8a4e85483c381450bf3bbf78210262139d0486fa5888d067d791c39",
  "number": 46472,
  "timestamp": 1438923718,
  "nonce": "0xbf078f6dc0f8dcff",
  "difficulty": 1467511962151,
  "gasLimit": {
    "_hex": "0x6308"
  },
  "gasUsed": {
    "_hex": "0x5208"
  },
  "miner": "0xe6A7a1d47ff21B6321162AEA7C6CB457D5476Bca",
  "extraData": "0x657468706f6f6c2e6f7267",
  "transactions": [
    {
      "hash": "0x7685b3f4f573a5373d6984a9d8f9886000513d68c55b6675d2b93a74e2b1a1e3",
      "blockHash": "0x94b053def9647198e84dd0f2e25580e8b66fb2b22e53293ae3b00aae18fa95d3",
      "blockNumber": 46472,
      "transactionIndex": 0,
      "confirmations": null,
      "from": "0xC54671b79ffCdc38C550BFC2F43Aca4FAf8d6f64",
      "gasPrice": {
        "_hex": "0x746a528800"
      },
      "gasLimit": {
        "_hex": "0x5208"
      },
      "to": "0x32Be343B94f860124dC4fEe278FDCBD38C102D88",
      "value": {
        "_hex": "0x893e8fda6a39c000"
      },
      "nonce": 0,
      "data": "0x",
      "r": "0xd1c095e4bd59e699198859de7df77d76a906dd98d851f9707af8f60af24854a8",
      "s": "0x33124db7f44c17a4ad6798f1a319235b29d12a52bbdeb23c83d1fba0589db91d",
      "v": 27,
      "creates": null,
      "raw": "0xf86c8085746a5288008252089432be343b94f860124dc4fee278fdcbd38c102d8888893e8fda6a39c000801ba0d1c095e4bd59e699198859de7df77d76a906dd98d851f9707af8f60af24854a8a033124db7f44c17a4ad6798f1a319235b29d12a52bbdeb23c83d1fba0589db91d",
      "networkId": 0,
      "chainId": 0
    }
  ]
}