{
  "hash": "0x9b430b5151969097fd7e5c29726a3afe680ab56f0f14a49a8f045b66392add15",
  "parentHash": "0x7428907e594abb3e850e07aa5daa7161e4c35e95e2a17a4664e5516ca304624d",
  "number": 46400,
  "timestamp": 1438922527,
  "nonce": "0x724b0a6d3b38e92d",
  "difficulty": 1466092127942,
  "gasLimit": {
    "_hex": "0x5f36"
  },
  "gasUsed": {
    "_hex": "0x5208"
  },
  "miner": "0x123843545FB525C8E134c9A5F15ADA6865cc3848",
  "extraData": "0x476574682f76312e302e302f77696e646f77732f676f312e342e32",
  "transactions": [
    {
      "hash": "0x01f7583ce239ad19682ccbadb21d69a03cf7be333f4be9c02233874e3f79bf9d",
      "blockHash": "0x9b430b5151969097fd7e5c29726a3afe680ab56f0f14a49a8f045b66392add15",
      "blockNumber": 46400,
      "transactionIndex": 0,
      "confirmations": null,
      "from": "0xF55cDbDF978F539ea4EEe0621f7f1a0F9F00f7d9",
      "gasPrice": {
        "_hex": "0x746a528800"
      },
      "gasLimit": {
        "_hex": "0x5208"
      },
      "to": "0x6bAF48E1C966D16559cE2ddDb616FFa72004851e",
      "value": {
        "_hex": "0x11c37937e08000"
      },
      "nonce": 0,
      "data": "0x",
      "r": "0x5f5dc76fce727fe1a2c973a182d56b00c6a740f25111081e309fd2e16014290d",
      "s": "0x177a6c3cc3a6e80a5044e0f7cb537ef81b590b71e21c56eb5e93e6a851b79860",
      "v": 27,
      "creates": null,
      "raw": "0xf86b8085746a528800825208946baf48e1c966d16559ce2dddb616ffa72004851e8711c37937e08000801ba05f5dc76fce727fe1a2c973a182d56b00c6a740f25111081e309fd2e16014290da0177a6c3cc3a6e80a5044e0f7cb537ef81b590b71e21c56eb5e93e6a851b79860",
      "networkId": 0,
      "chainId": 0
    }
  ]
}