{
  "hash": "0xcc0ddbe2e2e692c43ec3c14203ba260ce162d585d62a1e3df9816e1a77af3341",
  "parentHash": "0xea8643b84c42f825fb1733d48854d4517bf1609fbd1837a8c3407dd9dbc8131f",
  "number": 48110,
  "timestamp": 1438951468,
  "nonce": "0x81076747dd0d9d53",
  "difficulty": 1467225436629,
  "gasLimit": {
    "_hex": "0x12a38"
  },
  "gasUsed": {
    "_hex": "0x5208"
  },
  "miner": "0xa50ec0D39fa913E62f1Bae7074E6F36caA71855b",
  "extraData": "0x476574682f76312e302e302f6c696e75782f676f312e342e32",
  "transactions": [
    {
      "hash": "0xff8fe747f05f5c275590a7e1462e38e1710372bce17e828b9ebba496d00e6528",
      "blockHash": "0xcc0ddbe2e2e692c43ec3c14203ba260ce162d585d62a1e3df9816e1a77af3341",
      "blockNumber": 48110,
      "transactionIndex": 0,
      "confirmations": null,
      "from": "0x7aAaa306d4a7Fd1696A82A66cc538D29f5af4e39",
      "gasPrice": {
        "_hex": "0xd842d035c"
      },
      "gasLimit": {
        "_hex": "0x61a8"
      },
      "to": "0x50EEfd3CA3DdB144266bfAB2194Ba9CcE30cC8F0",
      "value": {
        "_hex": "0x4563918244f40000"
      },
      "nonce": 0,
      "data": "0x",
      "r": "0xb43fdb68d3717408b7b1421ee9d3ba053ab00d42d61c7314c8949469effff781",
      "s": "0x101438e77b59cc19e66ad00a2515edfbfa40ee9713b5f41d6616b5e6d4ccdd4b",
      "v": 27,
      "creates": null,
      "raw": "0xf86c80850d842d035c8261a89450eefd3ca3ddb144266bfab2194ba9cce30cc8f0884563918244f40000801ba0b43fdb68d3717408b7b1421ee9d3ba053ab00d42d61c7314c8949469effff781a0101438e77b59cc19e66ad00a2515edfbfa40ee9713b5f41d6616b5e6d4ccdd4b",
      "networkId": 0,
      "chainId": 0
    }
  ]
}