{
  "hash": "0x478147abfbf8cc1e4af1e746cbe6f0faba9b113929e795fabe826e6481adfc29",
  "parentHash": "0x0a2848e198960cca12999758c1a2853715ca4301cb3e3bee90d222862ad922aa",
  "number": 95989,
  "timestamp": 1439733219,
  "nonce": "0x3931e44eac1bb8e0",
  "difficulty": 3616043428121,
  "gasLimit": {
    "_hex": "0x2fefd8"
  },
  "gasUsed": {
    "_hex": "0x5208"
  },
  "miner": "0xe6A7a1d47ff21B6321162AEA7C6CB457D5476Bca",
  "extraData": "0x476574682f76312e302e312d38326566323666362f6c696e75782f676f312e34",
  "transactions": [
    {
      "hash": "0x5b52c5904c60517e57a467dff2b7d84ae439430f414a708bdc79e70f2573bc88",
      "blockHash": "0x478147abfbf8cc1e4af1e746cbe6f0faba9b113929e795fabe826e6481adfc29",
      "blockNumber": 95989,
      "transactionIndex": 0,
      "confirmations": null,
      "from": "0x32Be343B94f860124dC4fEe278FDCBD38C102D88",
      "gasPrice": {
        "_hex": "0xd48092ca3"
      },
      "gasLimit": {
        "_hex": "0x5208"
      },
      "to": "0xA61A4A69dcB2D8C74BdeCd17AD5821Adc21E95ec",
      "value": {
        "_hex": "0x45400a8fd5330000"
      },
      "nonce": 993,
      "data": "0x",
      "r": "0xddd82c96e8dccf2fe303c6b79960a74c5c8617322ddbc660a706a6924afea479",
      "s": "0x4fdeb3b870064dc622968d7d6cba7b7b5c6de27439d86589d4207c63a48a4f99",
      "v": 28,
      "creates": null,
      "raw": "0xf86e8203e1850d48092ca382520894a61a4a69dcb2d8c74bdecd17ad5821adc21e95ec8845400a8fd5330000801ca0ddd82c96e8dccf2fe303c6b79960a74c5c8617322ddbc660a706a6924afea479a04fdeb3b870064dc622968d7d6cba7b7b5c6de27439d86589d4207c63a48a4f99",
      "networkId": 0,
      "chainId": 0
    }
  ]
}