{
  "hash": "0x19b2135e052a82600d9c58843e604cde442249c97aedc96e6fc7740513697d4b",
  "parentHash": "0x863fb25b85a06856f7b1189bd4508e4dcb05fd56f2fa90621c305bc48b3b8f9e",
  "number": 79798,
  "timestamp": 1439475330,
  "nonce": "0x75f27de1b34aca99",
  "difficulty": 2351801499135,
  "gasLimit": {
    "_hex": "0x2fefd8"
  },
  "gasUsed": {
    "_hex": "0x57b4"
  },
  "miner": "0xe090Ffdced499691fA9379752a59F8A058c1eE4A",
  "extraData": "0x476574682f76312e302e312f6c696e75782f676f312e342e32",
  "transactions": [
    {
      "hash": "0xd23a4d9fcab0aa91162f2e733d34a5a13b6ebc80bcdbec93903cc36bbced5640",
      "blockHash": "0x19b2135e052a82600d9c58843e604cde442249c97aedc96e6fc7740513697d4b",
      "blockNumber": 79798,
      "transactionIndex": 0,
      "confirmations": null,
      "from": "0x87C5B5874A18B4306DF8a752a6C8cc3E82daFc19",
      "gasPrice": {
        "_hex": "0x10ed6d3cabd"
      },
      "gasLimit": {
        "_hex": "0x493e0"
      },
      "to": "0xC4c51de1AbF5D60DBd329eC0F999Fd8f021ae9fC",
      "value": {
        "_hex": "0x0"
      },
      "nonce": 105,
      "data": "0xbd66528a6361740000000000000000000000000000000000000000000000000000000000",
      "r": "0x634050d51c616c8e3e3739996f8dd7d6983b1d05669dbb950b6638b53f14c877",
      "s": "0x3eb178a9ee99a7ee116159036eaa851fcd4d3f96f10d94668e3c71782c209f78",
      "v": 27,
      "creates": null,
      "raw": "0xf88a6986010ed6d3cabd830493e094c4c51de1abf5d60dbd329ec0f999fd8f021ae9fc80a4bd66528a63617400000000000000000000000000000000000000000000000000000000001ba0634050d51c616c8e3e3739996f8dd7d6983b1d05669dbb950b6638b53f14c877a03eb178a9ee99a7ee116159036eaa851fcd4d3f96f10d94668e3c71782c209f78",
      "networkId": 0,
      "chainId": 0
    }
  ]
}