{
  "hash": "0xebeb3f2229be6080168f88b3c7a6e604875fd886249e47215ddc844dee39ac88",
  "parentHash": "0x28608f27e60cecaaefd167c9211be263f0ea26e0f5a5a7e408b065d07e8a2100",
  "number": 89931,
  "timestamp": 1439631344,
  "nonce": "0x2e3c16edf5eb5d0e",
  "difficulty": 3343442797027,
  "gasLimit": {
    "_hex": "0x2fefd8"
  },
  "gasUsed": {
    "_hex": "0x5208"
  },
  "miner": "0xe6A7a1d47ff21B6321162AEA7C6CB457D5476Bca",
  "extraData": "0x476574682f76312e302e312d38326566323666362f6c696e75782f676f312e34",
  "transactions": [
    {
      "hash": "0xbb36d7acc39d52da75f026bbe1a211e2397664c1a07baf6fa0e89576d06c7d38",
      "blockHash": "0xebeb3f2229be6080168f88b3c7a6e604875fd886249e47215ddc844dee39ac88",
      "blockNumber": 89931,
      "transactionIndex": 0,
      "confirmations": null,
      "from": "0x458F183347F45a4001807728A89F31E9Da9D4A58",
      "gasPrice": {
        "_hex": "0xd313f888a"
      },
      "gasLimit": {
        "_hex": "0x15f90"
      },
      "to": "0x7313946aA53dCDd777C90905D75A9B41e17Ca2c9",
      "value": {
        "_hex": "0x44004c09e76a0000"
      },
      "nonce": 27,
      "data": "0x",
      "r": "0x6576414c603d5bfc87da2ccc60a0052547a48695786bf6a832fec8f2c6c1322e",
      "s": "0x6305fd355eb978b24fefaf322096e3d241ec9eeee58970e7d3745f6190048b94",
      "v": 28,
      "creates": null,
      "raw": "0xf86d1b850d313f888a83015f90947313946aa53dcdd777c90905d75a9b41e17ca2c98844004c09e76a0000801ca06576414c603d5bfc87da2ccc60a0052547a48695786bf6a832fec8f2c6c1322ea06305fd355eb978b24fefaf322096e3d241ec9eeee58970e7d3745f6190048b94",
      "networkId": 0,
      "chainId": 0
    }
  ]
}