{
  "hash": "0x2761f262f71b3b094460343be14b5f7d627edc63713f82480584f8fa4f00117a",
  "parentHash": "0xab21a0b418810bf3dd8418f03384eab4eb4f0c1e6fd4e4d15ad6f10b6cea04d3",
  "number": 82118,
  "timestamp": 1439513892,
  "nonce": "0x4e39957ca2adee1c",
  "difficulty": 2388176407994,
  "gasLimit": {
    "_hex": "0x2fefd8"
  },
  "gasUsed": {
    "_hex": "0x5208"
  },
  "miner": "0x223eA75ACE9d7F53BC6c131191Aff34B44bd57aC",
  "extraData": "0x",
  "transactions": [
    {
      "hash": "0x84e3363e0d7dd4f2f2b594cf835fa3bb6fb725642cbc0e50309fbabb45b02071",
      "blockHash": "0x2761f262f71b3b094460343be14b5f7d627edc63713f82480584f8fa4f00117a",
      "blockNumber": 82118,
      "transactionIndex": 0,
      "confirmations": null,
      "from": "0x2C89f5FDcA3D155409b638B98A742E55eb4652B7",
      "gasPrice": {
        "_hex": "0x105aa90bea3"
      },
      "gasLimit": {
        "_hex": "0x15f90"
      },
      "to": "0x77250235Ff0E547084f07111A860193029eda6A9",
      "value": {
        "_hex": "0xd8d648abac4009c0000"
      },
      "nonce": 25,
      "data": "0x",
      "r": "0xd1b4dc84cf0571aeac3b5a3f48fbe966896fc7404f4224cf6e78c5e78983a8d9",
      "s": "0x1e892c2b979d605beefd7d9bed210616da6b5a379074f1edaf700aeb64e8d80b",
      "v": 28,
      "creates": null,
      "raw": "0xf87019860105aa90bea383015f909477250235ff0e547084f07111a860193029eda6a98a0d8d648abac4009c0000801ca0d1b4dc84cf0571aeac3b5a3f48fbe966896fc7404f4224cf6e78c5e78983a8d9a01e892c2b979d605beefd7d9bed210616da6b5a379074f1edaf700aeb64e8d80b",
      "networkId": 0,
      "chainId": 0
    }
  ]
}