{
  "hash": "0x01acb195f6a531b32c8c3d519134ef6b65e2303a8306288a5982629a7b6116c2",
  "parentHash": "0x96e7a57866f8e0b77070cb1c673c73d67f44edd18e8c09bc97394aaea643097a",
  "number": 117201,
  "timestamp": 1440105259,
  "nonce": "0xf76be40b5efc67ff",
  "difficulty": 4312693868486,
  "gasLimit": {
    "_hex": "0x2fefd8"
  },
  "gasUsed": {
    "_hex": "0x5208"
  },
  "miner": "0x0D2C9857E819cf1275eb59B49033343ccC35fe42",
  "extraData": "0x",
  "transactions": [
    {
      "hash": "0x663be944cab104cca56e0f8debb7b54b9861aab4cae4b39669b08e5e322739ab",
      "blockHash": "0x01acb195f6a531b32c8c3d519134ef6b65e2303a8306288a5982629a7b6116c2",
      "blockNumber": 117201,
      "transactionIndex": 0,
      "confirmations": null,
      "from": "0x458F183347F45a4001807728A89F31E9Da9D4A58",
      "gasPrice": {
        "_hex": "0xba43b7400"
      },
      "gasLimit": {
        "_hex": "0x15f90"
      },
      "to": "0x7fa165177F28D171bA7C17f765c1904344Ec64CB",
      "value": {
        "_hex": "0x14d1120d7b1600000"
      },
      "nonce": 50,
      "data": "0x",
      "r": "0xd8cc5bde34dbd071d8395931522b5a9d0970584b9e3d67f83928f54a04923df3",
      "s": "0x4b2e5b14e2cf6baabafb8200e45a36d65fabfee2270b0447f99353ce466f80ee",
      "v": 27,
      "creates": null,
      "raw": "0xf86e32850ba43b740083015f90947fa165177f28d171ba7c17f765c1904344ec64cb89014d1120d7b1600000801ba0d8cc5bde34dbd071d8395931522b5a9d0970584b9e3d67f83928f54a04923df3a04b2e5b14e2cf6baabafb8200e45a36d65fabfee2270b0447f99353ce466f80ee",
      "networkId": 0,
      "chainId": 0
    }
  ]
}