{
  "hash": "0x7a835839098c05e2fa8d427a7093fa1c83f0d25731db6f5f7b73a9d32f88b356",
  "parentHash": "0x33ad9c5b5e20de7d728cda8e6d6fa1e883f7776c5d76b22a78c42cf31569f533",
  "number": 117580,
  "timestamp": 1440111973,
  "nonce": "0x6e3a6c29fc398ae7",
  "difficulty": 4310393825401,
  "gasLimit": {
    "_hex": "0x2fefd8"
  },
  "gasUsed": {
    "_hex": "0x5208"
  },
  "miner": "0xe6A7a1d47ff21B6321162AEA7C6CB457D5476Bca",
  "extraData": "0xd783010002844765746887676f312e342e32856c696e7578",
  "transactions": [
    {
      "hash": "0x564a716b4ea979969831f9f5f3d1659164e6c35f01181d3a66bd172df5e44de6",
      "blockHash": "0x7a835839098c05e2fa8d427a7093fa1c83f0d25731db6f5f7b73a9d32f88b356",
      "blockNumber": 117580,
      "transactionIndex": 0,
      "confirmations": null,
      "from": "0x790b8a3cE86E707ED0eD32bF89B3269692a23CC1",
      "gasPrice": {
        "_hex": "0xe01dc7d48"
      },
      "gasLimit": {
        "_hex": "0x15f90"
      },
      "to": "0x4D67f4F0Db45b3B5a3424B39ed8d972F710381D5",
      "value": {
        "_hex": "0x2c2612051fb620000"
      },
      "nonce": 60,
      "data": "0x",
      "r": "0x448282316d4927ecb645f3bfb617fd051568f293165e84d0a683a59474c4fd30",
      "s": "0x29f953e6c0be3fa88bcdf98054a39e7ef47b7f06180f2b05a311bffbbd90f871",
      "v": 28,
      "creates": null,
      "raw": "0xf86e3c850e01dc7d4883015f90944d67f4f0db45b3b5a3424b39ed8d972f710381d58902c2612051fb620000801ca0448282316d4927ecb645f3bfb617fd051568f293165e84d0a683a59474c4fd30a029f953e6c0be3fa88bcdf98054a39e7ef47b7f06180f2b05a311bffbbd90f871",
      "networkId": 0,
      "chainId": 0
    }
  ]
}