{
  "hash": "0x26d301ae2effce6478390272ada6dcbdc7b8991c699de5b1118d20a8ce279678",
  "parentHash": "0x74426bc055fdcc1488db0c3ca18a68061166dbbc2fea360a91510d57e68653ba",
  "number": 97114,
  "timestamp": 1439750967,
  "nonce": "0xb6c0a8328089e17f",
  "difficulty": 3757750713049,
  "gasLimit": {
    "_hex": "0x2fefd8"
  },
  "gasUsed": {
    "_hex": "0x5208"
  },
  "miner": "0xcf00A85f3826941e7A25BFcF9Aac575d40410852",
  "extraData": "0x476574682f76312e302e312f77696e646f77732f676f312e342e32",
  "transactions": [
    {
      "hash": "0x90ea285ecd8d6bd916c6c5a0dbeb6cd0f192572e97f156a9253f4528199b9496",
      "blockHash": "0x26d301ae2effce6478390272ada6dcbdc7b8991c699de5b1118d20a8ce279678",
      "blockNumber": 97114,
      "transactionIndex": 0,
      "confirmations": null,
      "from": "0xb1abce2918E21ddb93AA452731a12672A3d9F75a",
      "gasPrice": {
        "_hex": "0xdf0a63900"
      },
      "gasLimit": {
        "_hex": "0x5208"
      },
      "to": "0x32Be343B94f860124dC4fEe278FDCBD38C102D88",
      "value": {
        "_hex": "0x8ac2ab803dfbd000"
      },
      "nonce": 66,
      "data": "0x",
      "r": "0x5d629aa02571e34e6676bebfb0ce1b29bb54e51d8d527efaed401b11846da2e7",
      "s": "0x2fba3f2a118c1c27431254abd1d7b39bcf68126cdcc9d46c12c05cf3cb6f3e9b",
      "v": 28,
      "creates": null,
      "raw": "0xf86c42850df0a639008252089432be343b94f860124dc4fee278fdcbd38c102d88888ac2ab803dfbd000801ca05d629aa02571e34e6676bebfb0ce1b29bb54e51d8d527efaed401b11846da2e7a02fba3f2a118c1c27431254abd1d7b39bcf68126cdcc9d46c12c05cf3cb6f3e9b",
      "networkId": 0,
      "chainId": 0
    }
  ]
}