{
  "hash": "0x1cf4791d4c07a329b9489210dd3e7b825a920a80c76574b0133990a04e5cfec5",
  "parentHash": "0xb5ab1a9809e7055aaffe348def0bb0ce044d26a68726cdec23da74cdf4340f00",
  "number": 51449,
  "timestamp": 1439005057,
  "nonce": "0xf93377c0871a998d",
  "difficulty": 1566577170651,
  "gasLimit": {
    "_hex": "0xb254c"
  },
  "gasUsed": {
    "_hex": "0x3a268"
  },
  "miner": "0x0eDEd3DA479d0beF8eeC92A76644D3f4E3C177f7",
  "extraData": "0x476574682f76312e302e312f6c696e75782f676f312e342e32",
  "transactions": [
    {
      "hash": "0x5e89b0c25a189d10d42a4a200903405e4c9462d2de3978965523c862b2389365",
      "blockHash": "0x1cf4791d4c07a329b9489210dd3e7b825a920a80c76574b0133990a04e5cfec5",
      "blockNumber": 51449,
      "transactionIndex": 0,
      "confirmations": null,
      "from": "0x2905726Ed11131A984ce9C0119cB32DBC99dE90B",
      "gasPrice": {
        "_hex": "0x10afd88b500"
      },
      "gasLimit": {
        "_hex": "0x186a0"
      },
      "to": "0xd94BAdbEC21695B7a36ABCb979EFad0108319d18",
      "value": {
        "_hex": "0xe35fa931a0000"
      },
      "nonce": 16,
      "data": "0xa69beaba426c6164652052756e6e65720000000000000000000000000000000000000000",
      "r": "0xaf95964bd7c52021afc98dc7d5ee1fe743db944b7b5d0d8d88657273ff2d6094",
      "s": "0x5400e4d6f47474281704f234407af13958383945705a3f72d082084eb9ff3d37",
      "v": 27,
      "creates": null,
      "raw": "0xf8911086010afd88b500830186a094d94badbec21695b7a36abcb979efad0108319d18870e35fa931a0000a4a69beaba426c6164652052756e6e657200000000000000000000000000000000000000001ba0af95964bd7c52021afc98dc7d5ee1fe743db944b7b5d0d8d88657273ff2d6094a05400e4d6f47474281704f234407af13958383945705a3f72d082084eb9ff3d37",
      "networkId": 0,
      "chainId": 0
    },
    {
      "hash": "0xc65d08bcd9533c6a9bfc4214ea953b35275a3a6ba445480be645539a2e84a25c",
      "blockHash": "0x1cf4791d4c07a329b9489210dd3e7b825a920a80c76574b0133990a04e5cfec5",
      "blockNumber": 51449,
      "transactionIndex": 1,
      "confirmations": null,
      "from": "0x1D118f04b63d423FBd257fF79218f1A16711C4DA",
      "gasPrice": {
        "_hex": "0x109ee2c7909"
      },
      "gasLimit": {
        "_hex": "0x7a120"
      },
      "to": "0x109C4f2CCc82C4d77Bde15F306707320294Aea3F",
      "value": {
        "_hex": "0xde0b6b3a7640000"
      },
      "nonce": 0,
      "data": "0x",
      "r": "0x3eded89e35074c8a9a635be1060339e541af4a09790bf029fc1a31033b7ef1bb",
      "s": "0x14d12d9136177ffd6503293174649a0bc5283157a0f36d4a6516109252f0034b",
      "v": 27,
      "creates": null,
      "raw": "0xf86e80860109ee2c79098307a12094109c4f2ccc82c4d77bde15f306707320294aea3f880de0b6b3a7640000801ba03eded89e35074c8a9a635be1060339e541af4a09790bf029fc1a31033b7ef1bba014d12d9136177ffd6503293174649a0bc5283157a0f36d4a6516109252f0034b",
      "networkId": 0,
      "chainId": 0
    },
    {
      "hash": "0x4029f71225f8432903bc35bd6888e37b8c9dcffc47cb166ec205aef2fbd70c65",
      "blockHash": "0x1cf4791d4c07a329b9489210dd3e7b825a920a80c76574b0133990a04e5cfec5",
      "blockNumber": 51449,
      "transactionIndex": 2,
      "confirmations": null,
      "from": "0xf88a65846C19D8fc76fFf545fEAa7bbc7114F667",
      "gasPrice": {
        "_hex": "0xde1c59ac0"
      },
      "gasLimit": {
        "_hex": "0x7a120"
      },
      "to": "0xBAA54d6E90c3F4d7Ebec11bD180134C7eD8eBb52",
      "value": {
        "_hex": "0x16345785d8a0000"
      },
      "nonce": 23,
      "data": "0x",
      "r": "0x5322e4be071f364d0fcfd0598dbcdcbba37b111ca154cd8fc6c863c48da360b7",
      "s": "0x3378ef06c4806df0208b83b4dce0d704ef59929d0731a4e5301d27469569f251",
      "v": 28,
      "creates": null,
      "raw": "0xf86d17850de1c59ac08307a12094baa54d6e90c3f4d7ebec11bd180134c7ed8ebb5288016345785d8a0000801ca05322e4be071f364d0fcfd0598dbcdcbba37b111ca154cd8fc6c863c48da360b7a03378ef06c4806df0208b83b4dce0d704ef59929d0731a4e5301d27469569f251",
      "networkId": 0,
      "chainId": 0
    },
    {
      "hash": "0x237d9c1d25a4d8aeaf8aade30734d830b195cb99d5844bd9434ac26f7219cb24",
      "blockHash": "0x1cf4791d4c07a329b9489210dd3e7b825a920a80c76574b0133990a04e5cfec5",
      "blockNumber": 51449,
      "transactionIndex": 3,
      "confirmations": null,
      "from": "0xf88a65846C19D8fc76fFf545fEAa7bbc7114F667",
      "gasPrice": {
        "_hex": "0xde1c59ac0"
      },
      "gasLimit": {
        "_hex": "0x7a120"
      },
      "to": "0xBAA54d6E90c3F4d7Ebec11bD180134C7eD8eBb52",
      "value": {
        "_hex": "0x16345785d8a0000"
      },
      "nonce": 24,
      "data": "0x",
      "r": "0x51b40f22abf95cb6abb23a0539bb7475f8ee8f73752c4981b1c586e7b182aeb9",
      "s": "0x449625e948d5748f29582723fbdbff8a74613e35bf6dc81901803150c82a1465",
      "v": 28,
      "creates": null,
      "raw": "0xf86d18850de1c59ac08307a12094baa54d6e90c3f4d7ebec11bd180134c7ed8ebb5288016345785d8a0000801ca051b40f22abf95cb6abb23a0539bb7475f8ee8f73752c4981b1c586e7b182aeb9a0449625e948d5748f29582723fbdbff8a74613e35bf6dc81901803150c82a1465",
      "networkId": 0,
      "chainId": 0
    }
  ]
}