{
  "hash": "0x15bdb818fa3515b062d2df6e15705e6328c16cf80f0e0e129c115cb934e9ce79",
  "parentHash": "0xd2a5208208b8403752ce5bc2d1c4f1e1f47a83e771731d82fd55317ed319bac9",
  "number": 79204,
  "timestamp": 1439466045,
  "nonce": "0x1b9b9a25570972b3",
  "difficulty": 2320031038141,
  "gasLimit": {
    "_hex": "0x2fefd8"
  },
  "gasUsed": {
    "_hex": "0xa410"
  },
  "miner": "0x9CF253B20806e369059D8D8023f376b1aE248aDD",
  "extraData": "0x",
  "transactions": [
    {
      "hash": "0xd543c838e78913555b1dc47641692719010dfc9ae6b3559db09eeb2288db6539",
      "blockHash": "0x15bdb818fa3515b062d2df6e15705e6328c16cf80f0e0e129c115cb934e9ce79",
      "blockNumber": 79204,
      "transactionIndex": 0,
      "confirmations": null,
      "from": "0x0F16016B7285e02eF02712E62Bee3A724225F0a3",
      "gasPrice": {
        "_hex": "0xba43b7400"
      },
      "gasLimit": {
        "_hex": "0x5208"
      },
      "to": "0xC47Aaa860008be6f65B58c6C6E02a84e666EfE31",
      "value": {
        "_hex": "0x482ce026583f3d1e0"
      },
      "nonce": 0,
      "data": "0x",
      "r": "0xa08388f51bd9158ef09399f49862cef79248df2e504304711ccb191d6da5352a",
      "s": "0x52f51b08507138f83196e18e5f3460cf95d4eaced5df4d7523a264a22fa3d638",
      "v": 28,
      "creates": null,
      "raw": "0xf86d80850ba43b740082520894c47aaa860008be6f65b58c6c6e02a84e666efe31890482ce026583f3d1e0801ca0a08388f51bd9158ef09399f49862cef79248df2e504304711ccb191d6da5352aa052f51b08507138f83196e18e5f3460cf95d4eaced5df4d7523a264a22fa3d638",
      "networkId": 0,
      "chainId": 0
    },
    {
      "hash": "0xd742b09503dd68ba24c531328c6ffe6f809ca65ba53c9164ab6ca09458b35597",
      "blockHash": "0x15bdb818fa3515b062d2df6e15705e6328c16cf80f0e0e129c115cb934e9ce79",
      "blockNumber": 79204,
      "transactionIndex": 1,
      "confirmations": null,
      "from": "0xBa18638701c0389D7f4A852e142eDBF84B2F2446",
      "gasPrice": {
        "_hex": "0xba43b7400"
      },
      "gasLimit": {
        "_hex": "0x5208"
      },
      "to": "0xC47Aaa860008be6f65B58c6C6E02a84e666EfE31",
      "value": {
        "_hex": "0x112a02416196688f0"
      },
      "nonce": 0,
      "data": "0x",
      "r": "0x6f6889424ffaa8d1cf8b0222adb46a561902dfece87646a5c60094d2623c2057",
      "s": "0x3e1fa948fea0fb140db7e4ad72132cd2481a6801145db38779373bafba49b57b",
      "v": 27,
      "creates": null,
      "raw": "0xf86d80850ba43b740082520894c47aaa860008be6f65b58c6c6e02a84e666efe31890112a02416196688f0801ba06f6889424ffaa8d1cf8b0222adb46a561902dfece87646a5c60094d2623c2057a03e1fa948fea0fb140db7e4ad72132cd2481a6801145db38779373bafba49b57b",
      "networkId": 0,
      "chainId": 0
    }
  ]
}