{
  "hash": "0x4fe294e7877d74c2cde5c954e90fd86cdc1f24901e5f690df0a202f2bb3480d8",
  "parentHash": "0xb386a53d41503fe5758a78b11a7fe4032c13d433be7a5e75531f1dce5b645f7a",
  "number": 84821,
  "timestamp": 1439554974,
  "nonce": "0x3e993b9af14c6937",
  "difficulty": 2638750492737,
  "gasLimit": {
    "_hex": "0x2fefd8"
  },
  "gasUsed": {
    "_hex": "0x5208"
  },
  "miner": "0xfFcD9CAE6d9f54fd8ae05296F839892677ff6EaA",
  "extraData": "0x476574682f76312e302e312f77696e646f77732f676f312e342e32",
  "transactions": [
    {
      "hash": "0xdd3e191cb45c476620945716b2dedc7579832bfbf16be6bb0c79dd2f80729499",
      "blockHash": "0x4fe294e7877d74c2cde5c954e90fd86cdc1f24901e5f690df0a202f2bb3480d8",
      "blockNumber": 84821,
      "transactionIndex": 0,
      "confirmations": null,
      "from": "0x47ff6576639c2e94762eA5443978D7681C0E78DC",
      "gasPrice": {
        "_hex": "0xdbb366211"
      },
      "gasLimit": {
        "_hex": "0x5208"
      },
      "to": "0x3620db64D25D412bAb4C8d93E2e0D7e64e8Cb933",
      "value": {
        "_hex": "0x69d17119dc5a80000"
      },
      "nonce": 25,
      "data": "0x",
      "r": "0xac543468e763250fa999b4e217fdebec9c339fa57d649f24c48a20dd0900e518",
      "s": "0x0ea580e176f14ca3a04e4527873885aeefb236c75dce33f061926b37a1105d07",
      "v": 27,
      "creates": null,
      "raw": "0xf86d19850dbb366211825208943620db64d25d412bab4c8d93e2e0d7e64e8cb93389069d17119dc5a80000801ba0ac543468e763250fa999b4e217fdebec9c339fa57d649f24c48a20dd0900e518a00ea580e176f14ca3a04e4527873885aeefb236c75dce33f061926b37a1105d07",
      "networkId": 0,
      "chainId": 0
    }
  ]
}