{
  "hash": "0x2c1d69145441f35df54246b422452569b47c2298ec8c33af938fda76f1ef835d",
  "parentHash": "0x236147730abc3cfe787409eb3503a492867e321794e0719bf23dd2297a2b69dd",
  "number": 84021,
  "timestamp": 1439543895,
  "nonce": "0x9000427a87c6d256",
  "difficulty": 2488816060583,
  "gasLimit": {
    "_hex": "0x2fefd8"
  },
  "gasUsed": {
    "_hex": "0x5d9f"
  },
  "miner": "0x0eDEd3DA479d0beF8eeC92A76644D3f4E3C177f7",
  "extraData": "0x476574682f76312e302e312f6c696e75782f676f312e342e32",
  "transactions": [
    {
      "hash": "0x233439ee869d13893e3bbe1e01828e84574445789dfeff4c291f455c68dce89d",
      "blockHash": "0x2c1d69145441f35df54246b422452569b47c2298ec8c33af938fda76f1ef835d",
      "blockNumber": 84021,
      "transactionIndex": 0,
      "confirmations": null,
      "from": "0x0F9c57Ebf3A5ba27b543bB64220caA7b4478B04b",
      "gasPrice": {
        "_hex": "0xcbf2b50f9"
      },
      "gasLimit": {
        "_hex": "0x15f90"
      },
      "to": "0xCAc7000C7dBaa2E33Af15325AF5D435E011C7BdD",
      "value": {
        "_hex": "0xdbd2fc137a30000"
      },
      "nonce": 0,
      "data": "0xb214faa54c39584d534d4d30340000000000000000000000000000000000000000000000",
      "r": "0x340b9e860808836b9a478a630a4e686eea900941e948b6d4a8c9dc57a2465e8b",
      "s": "0x6cd6d9099a25c475dd59bcdc4e4fc782722c539e9e5eeecb4f0ed58236d3e713",
      "v": 27,
      "creates": null,
      "raw": "0xf89180850cbf2b50f983015f9094cac7000c7dbaa2e33af15325af5d435e011c7bdd880dbd2fc137a30000a4b214faa54c39584d534d4d303400000000000000000000000000000000000000000000001ba0340b9e860808836b9a478a630a4e686eea900941e948b6d4a8c9dc57a2465e8ba06cd6d9099a25c475dd59bcdc4e4fc782722c539e9e5eeecb4f0ed58236d3e713",
      "networkId": 0,
      "chainId": 0
    }
  ]
}