{
  "hash": "0x73d25beccffedd72d4be21118619f556e65661ad7cf3f7a488fbe837891c9b55",
  "parentHash": "0x8e183ba1b3a9384277b3e1eb28950b2361d851a089cb9c3f381f2766f575ff48",
  "number": 94710,
  "timestamp": 1439712812,
  "nonce": "0x1d7314459e015d49",
  "difficulty": 3486546917528,
  "gasLimit": {
    "_hex": "0x2fefd8"
  },
  "gasUsed": {
    "_hex": "0x5208"
  },
  "miner": "0xe6A7a1d47ff21B6321162AEA7C6CB457D5476Bca",
  "extraData": "0x476574682f76312e302e312d38326566323666362f6c696e75782f676f312e34",
  "transactions": [
    {
      "hash": "0xbaf79a237d337ea7828b4c69574977656066f977f5a8b15c57481694b9c454ed",
      "blockHash": "0x73d25beccffedd72d4be21118619f556e65661ad7cf3f7a488fbe837891c9b55",
      "blockNumber": 94710,
      "transactionIndex": 0,
      "confirmations": null,
      "from": "0x6CB5e8313a5B29aDb14AE1884D3EcE4489d02D77",
      "gasPrice": {
        "_hex": "0xd2de35d4e"
      },
      "gasLimit": {
        "_hex": "0x5208"
      },
      "to": "0x32Be343B94f860124dC4fEe278FDCBD38C102D88",
      "value": {
        "_hex": "0x11c6a63e2c9aa4000"
      },
      "nonce": 4,
      "data": "0x",
      "r": "0x064437cbfdd064e1cb1741658c445ffaecd7a9686d1244d72a49ec7d65f55c3e",
      "s": "0x6a4fcaa22f15d6579ab0a96f50087f3f585f2fe9030b078595a9e5aee40cd38f",
      "v": 28,
      "creates": null,
      "raw": "0xf86d04850d2de35d4e8252089432be343b94f860124dc4fee278fdcbd38c102d8889011c6a63e2c9aa4000801ca0064437cbfdd064e1cb1741658c445ffaecd7a9686d1244d72a49ec7d65f55c3ea06a4fcaa22f15d6579ab0a96f50087f3f585f2fe9030b078595a9e5aee40cd38f",
      "networkId": 0,
      "chainId": 0
    }
  ]
}