{
  "hash": "0x8a24f51c42f5c1e216351c6c2ab29d2ae25fc4f366ea690a4e13c640844412e7",
  "parentHash": "0x4c5cbc1fd1d406177d602b8ab30543c445899bd20772463fd995fc9758f61025",
  "number": 47830,
  "timestamp": 1438947121,
  "nonce": "0x6d632520a6e22ce1",
  "difficulty": 1457278419339,
  "gasLimit": {
    "_hex": "0xf8d6"
  },
  "gasUsed": {
    "_hex": "0x546c"
  },
  "miner": "0xf927a40C8B7F6E07c5af7FA2155B4864a4112B13",
  "extraData": "0x476574682f76312e302e312f6c696e75782f676f312e342e32",
  "transactions": [
    {
      "hash": "0xcfa8f30fc37e3a0a448c616cb4362fc97c8143062fd1df6680eef66e4c4cf20c",
      "blockHash": "0x8a24f51c42f5c1e216351c6c2ab29d2ae25fc4f366ea690a4e13c640844412e7",
      "blockNumber": 47830,
      "transactionIndex": 0,
      "confirmations": null,
      "from": "0x40A331195B977325c2aA28FA2f42cb25Ec3c253c",
      "gasPrice": {
        "_hex": "0xd2c963b50"
      },
      "gasLimit": {
        "_hex": "0x9c40"
      },
      "to": "0x2910543Af39abA0Cd09dBb2D50200b3E800A63D2",
      "value": {
        "_hex": "0x4563918244f40000"
      },
      "nonce": 3,
      "data": "0x454e364337445a3538",
      "r": "0x07d721884f30a6734c43409f657804a9e185c63e0e303b135aca4adf1f63929a",
      "s": "0x27b6d7054ef15faaf672baada3987576ddeb29493002748762c156674816a4ab",
      "v": 27,
      "creates": null,
      "raw": "0xf87503850d2c963b50829c40942910543af39aba0cd09dbb2d50200b3e800a63d2884563918244f4000089454e364337445a35381ba007d721884f30a6734c43409f657804a9e185c63e0e303b135aca4adf1f63929aa027b6d7054ef15faaf672baada3987576ddeb29493002748762c156674816a4ab",
      "networkId": 0,
      "chainId": 0
    }
  ]
}