{
  "hash": "0x575b7908f4c72a8909bdb1041923aff427bb7ee0240d2ee3450df1b1d7cacbbf",
  "parentHash": "0x209fb9d2ee19df44f4020892a7bc5e2a2600bb603a2c4e38b81e765170cb09a2",
  "number": 71348,
  "timestamp": 1439334485,
  "nonce": "0xb8232f2a435b02ae",
  "difficulty": 2179380157379,
  "gasLimit": {
    "_hex": "0x2fefd8"
  },
  "gasUsed": {
    "_hex": "0x9400"
  },
  "miner": "0x55bAf64fc9eAccFFd7Cc643BB61142E1C6ac093e",
  "extraData": "0x",
  "transactions": [
    {
      "hash": "0x6a89635463a01fc968b281ef8a0610a15dbc3025eaf1f356ece6349b2bffb37d",
      "blockHash": "0x575b7908f4c72a8909bdb1041923aff427bb7ee0240d2ee3450df1b1d7cacbbf",
      "blockNumber": 71348,
      "transactionIndex": 0,
      "confirmations": null,
      "from": "0x17580B766f7453525ca4C6A88b01b50570EA088C",
      "gasPrice": {
        "_hex": "0xda2964489"
      },
      "gasLimit": {
        "_hex": "0x61a80"
      },
      "to": "0x5Fe5B7546D1628f7348B023A0393de1FC825A4fD",
      "value": {
        "_hex": "0x29a2241af62c0000"
      },
      "nonce": 156,
      "data": "0xb595b8b50000000000000000000000000000000000000000000000000000000000000001",
      "r": "0x72443344d6dad84d993c6c0a29177b335d62caa57b6f90f4ac6ecfac49268139",
      "s": "0x45f52b00cd32acd8a076f0db8adc3ecf90672bdd1152ec9c486fc18c60fefe42",
      "v": 28,
      "creates": null,
      "raw": "0xf892819c850da296448983061a80945fe5b7546d1628f7348b023a0393de1fc825a4fd8829a2241af62c0000a4b595b8b500000000000000000000000000000000000000000000000000000000000000011ca072443344d6dad84d993c6c0a29177b335d62caa57b6f90f4ac6ecfac49268139a045f52b00cd32acd8a076f0db8adc3ecf90672bdd1152ec9c486fc18c60fefe42",
      "networkId": 0,
      "chainId": 0
    }
  ]
}