{
  "hash": "0x641f736e57c18e656c77f07cdf28f1daa05e235c7085c1e6294b7e7e8017575b",
  "parentHash": "0x1b992adc15b7923fd3b3a226c5433ea8643aeee1ac79dc87fc73d24fe79df226",
  "number": 67073,
  "timestamp": 1439265413,
  "nonce": "0x925ec84ae03d969f",
  "difficulty": 1928980299803,
  "gasLimit": {
    "_hex": "0x2fefd8"
  },
  "gasUsed": {
    "_hex": "0xa674"
  },
  "miner": "0xf927a40C8B7F6E07c5af7FA2155B4864a4112B13",
  "extraData": "0x",
  "transactions": [
    {
      "hash": "0xdc1d4175069dfb7b8822a5537901a83c8174ec83f97d106617d6e9edffb96fe0",
      "blockHash": "0x641f736e57c18e656c77f07cdf28f1daa05e235c7085c1e6294b7e7e8017575b",
      "blockNumber": 67073,
      "transactionIndex": 0,
      "confirmations": null,
      "from": "0xa5CEEf50b1DD9bF1b9183e9493Fe6A6aa5Cc1678",
      "gasPrice": {
        "_hex": "0xd7fe7d631"
      },
      "gasLimit": {
        "_hex": "0x15f90"
      },
      "to": "0x1a8F3ae0Bb361C0D410E4C3fdBCc78AC8CeD5295",
      "value": {
        "_hex": "0xde0b6b3a7640000"
      },
      "nonce": 0,
      "data": "0x",
      "r": "0xb72184978ca3fd17d908c1f0d0097d4078ba43959619fed46a68e371f82e669b",
      "s": "0x7e6e3791f758eb9fec912ee89b795d8d3354549a16dc31543aac531f7c21b55e",
      "v": 28,
      "creates": null,
      "raw": "0xf86d80850d7fe7d63183015f90941a8f3ae0bb361c0d410e4c3fdbcc78ac8ced5295880de0b6b3a7640000801ca0b72184978ca3fd17d908c1f0d0097d4078ba43959619fed46a68e371f82e669ba07e6e3791f758eb9fec912ee89b795d8d3354549a16dc31543aac531f7c21b55e",
      "networkId": 0,
      "chainId": 0
    },
    {
      "hash": "0xa70ca0f5ec797fc6ac29762cb348d2b7412c00a7e26d60a8fdfe7f5b0ba14c42",
      "blockHash": "0x641f736e57c18e656c77f07cdf28f1daa05e235c7085c1e6294b7e7e8017575b",
      "blockNumber": 67073,
      "transactionIndex": 1,
      "confirmations": null,
      "from": "0x95dF4e3445D7662624c48eba74cF9e0a53E9f732",
      "gasPrice": {
        "_hex": "0xd2db8aaa4"
      },
      "gasLimit": {
        "_hex": "0x54c4"
      },
      "to": "0x2910543Af39abA0Cd09dBb2D50200b3E800A63D2",
      "value": {
        "_hex": "0x6c6b935b8bbd400000"
      },
      "nonce": 3,
      "data": "0x454e454b5537393138",
      "r": "0x3693e67ce47bdc875265ab62f0a6125c2d285c9d0e2654decd6dd9af11ca78c3",
      "s": "0x3c22e051a2a7a8f0cd41ef6abda026c743c67529519bcdc02d5534f6e5a4d20d",
      "v": 28,
      "creates": null,
      "raw": "0xf87603850d2db8aaa48254c4942910543af39aba0cd09dbb2d50200b3e800a63d2896c6b935b8bbd40000089454e454b55373931381ca03693e67ce47bdc875265ab62f0a6125c2d285c9d0e2654decd6dd9af11ca78c3a03c22e051a2a7a8f0cd41ef6abda026c743c67529519bcdc02d5534f6e5a4d20d",
      "networkId": 0,
      "chainId": 0
    }
  ]
}