{
  "hash": "0x6a8d5bdde51d428f088dec104d97ff2f78822527e9cae6a6550b1840306c39b0",
  "parentHash": "0x1ad1e51790d56735527a0424e627b11644625138e6041225f2dcae90d5c85580",
  "number": 92966,
  "timestamp": 1439680061,
  "nonce": "0x705c1bb10ae0214a",
  "difficulty": 3651062301152,
  "gasLimit": {
    "_hex": "0x2fefd8"
  },
  "gasUsed": {
    "_hex": "0x5208"
  },
  "miner": "0x790b8a3cE86E707ED0eD32bF89B3269692a23CC1",
  "extraData": "0xd783010001844765746887676f312e342e32856c696e7578",
  "transactions": [
    {
      "hash": "0xc07c0c473b5ef4c0ad11ae53bdb6c27ac59eeb8ac41058d14b5188baf96bc90c",
      "blockHash": "0x6a8d5bdde51d428f088dec104d97ff2f78822527e9cae6a6550b1840306c39b0",
      "blockNumber": 92966,
      "transactionIndex": 0,
      "confirmations": null,
      "from": "0x27bEB0DB6C8A5896E0440C6501f81658c57319Fe",
      "gasPrice": {
        "_hex": "0xdd9f2ea07"
      },
      "gasLimit": {
        "_hex": "0x5208"
      },
      "to": "0x32Be343B94f860124dC4fEe278FDCBD38C102D88",
      "value": {
        "_hex": "0x455f1519580aac00"
      },
      "nonce": 0,
      "data": "0x",
      "r": "0x18b8252026767c6b62de68d4a14be7f1d3fc35f37ee92482bc811287dec8e745",
      "s": "0x4da9a5327b07c34a0e3196e061ccfd9603626f4e0d70ce012b376bce1a37c57e",
      "v": 28,
      "creates": null,
      "raw": "0xf86c80850dd9f2ea078252089432be343b94f860124dc4fee278fdcbd38c102d8888455f1519580aac00801ca018b8252026767c6b62de68d4a14be7f1d3fc35f37ee92482bc811287dec8e745a04da9a5327b07c34a0e3196e061ccfd9603626f4e0d70ce012b376bce1a37c57e",
      "networkId": 0,
      "chainId": 0
    }
  ]
}