{
  "hash": "0x5523e6e51e595f5d4e1f98ec0d240f39b167be87968be7847d81cf751a45346f",
  "parentHash": "0xa25754d13e17fc681a3df283d59efe2744f84c1aee7460cf49e906fdcfa95228",
  "number": 58029,
  "timestamp": 1439113744,
  "nonce": "0xaf1d5176a01cdf3c",
  "difficulty": 1715844841627,
  "gasLimit": {
    "_hex": "0x2fefd8"
  },
  "gasUsed": {
    "_hex": "0x5208"
  },
  "miner": "0xbb7B8287f3F0a933474a79eAe42CBCa977791171",
  "extraData": "0x476574682f4c5649562f76312e302e312f6c696e75782f676f312e342e32",
  "transactions": [
    {
      "hash": "0xd263e3d9c7329d6d7f458f70c807403cf7e9b811c653659cafac0d0a5b9292a9",
      "blockHash": "0x5523e6e51e595f5d4e1f98ec0d240f39b167be87968be7847d81cf751a45346f",
      "blockNumber": 58029,
      "transactionIndex": 0,
      "confirmations": null,
      "from": "0x7fa165177F28D171bA7C17f765c1904344Ec64CB",
      "gasPrice": {
        "_hex": "0xe1147f9ba"
      },
      "gasLimit": {
        "_hex": "0x5208"
      },
      "to": "0x32Be343B94f860124dC4fEe278FDCBD38C102D88",
      "value": {
        "_hex": "0x3cb6d7325ec01a000"
      },
      "nonce": 4,
      "data": "0x",
      "r": "0xb34c4492f4ddb27057d1d9a9b0614d1972f4d39019c7889c1e1ef399a2b1ab7f",
      "s": "0x7ae59fa24ea7b46517b96704298bb0eaf3abfd68e35a6121701f878d0607f142",
      "v": 27,
      "creates": null,
      "raw": "0xf86d04850e1147f9ba8252089432be343b94f860124dc4fee278fdcbd38c102d888903cb6d7325ec01a000801ba0b34c4492f4ddb27057d1d9a9b0614d1972f4d39019c7889c1e1ef399a2b1ab7fa07ae59fa24ea7b46517b96704298bb0eaf3abfd68e35a6121701f878d0607f142",
      "networkId": 0,
      "chainId": 0
    }
  ]
}