{
  "hash": "0xbbcc65ad37b96f4ba8f50b6f836a6efc6825101eaf5f305c4d15d668d71b182f",
  "parentHash": "0x92ff409bbf0700854d4281fa26c3857b1ec7fcd83dc0af22cfce5b0621a77d6e",
  "number": 68293,
  "timestamp": 1439285470,
  "nonce": "0x2051d96ba484cde0",
  "difficulty": 1999663469663,
  "gasLimit": {
    "_hex": "0x2fefd8"
  },
  "gasUsed": {
    "_hex": "0x5208"
  },
  "miner": "0xf8E0CA3Ed80bd541b94BEdCf259e8CF2141A9523",
  "extraData": "0x476574682f76312e302e312f77696e646f77732f676f312e342e32",
  "transactions": [
    {
      "hash": "0x82403fb0423d4c89ca6e85c6e540411de404720b009391216e0a680ed6577934",
      "blockHash": "0xbbcc65ad37b96f4ba8f50b6f836a6efc6825101eaf5f305c4d15d668d71b182f",
      "blockNumber": 68293,
      "transactionIndex": 0,
      "confirmations": null,
      "from": "0x6747f922385c9a6F9cfDf095F34345257DD597bE",
      "gasPrice": {
        "_hex": "0xba43b7400"
      },
      "gasLimit": {
        "_hex": "0x5208"
      },
      "to": "0x04574C01Ae5F696A9aAc680c6aa9C2F5E992f191",
      "value": {
        "_hex": "0x1fcbfa42bd6000"
      },
      "nonce": 46,
      "data": "0x",
      "r": "0xb9c88caea155f05ebff455069900f08779c09889568d49caeffdbdd102246341",
      "s": "0x718c303e948ac11ca3dd30e52ad71a1d005ca9c5ac8a949232aa69f1d01e12dd",
      "v": 28,
      "creates": null,
      "raw": "0xf86b2e850ba43b74008252089404574c01ae5f696a9aac680c6aa9c2f5e992f191871fcbfa42bd6000801ca0b9c88caea155f05ebff455069900f08779c09889568d49caeffdbdd102246341a0718c303e948ac11ca3dd30e52ad71a1d005ca9c5ac8a949232aa69f1d01e12dd",
      "networkId": 0,
      "chainId": 0
    }
  ]
}