{
  "hash": "0xed6ccc85b9c2fc37af58fd3cf24de6c79b3e2847f7d13afce1f9259cd1cc40f4",
  "parentHash": "0xa4b357f328b98cc2713e44f9adc249f3cd4ee647b879058bcc25872ca684a0e3",
  "number": 74353,
  "timestamp": 1439384749,
  "nonce": "0xda648442f24bc3d2",
  "difficulty": 2213988330415,
  "gasLimit": {
    "_hex": "0x2fefd8"
  },
  "gasUsed": {
    "_hex": "0xad5d"
  },
  "miner": "0x88D74a59454F6cF3B51ef6b9136AFb6b9D405A88",
  "extraData": "0x476574682f76312e302e312d37666266393930632f6c696e75782f676f312e34",
  "transactions": [
    {
      "hash": "0xf3df7c468192a8e488a66138f3e9221ce22b39821462ea76b6c456c3a567979f",
      "blockHash": "0xed6ccc85b9c2fc37af58fd3cf24de6c79b3e2847f7d13afce1f9259cd1cc40f4",
      "blockNumber": 74353,
      "transactionIndex": 0,
      "confirmations": null,
      "from": "0x87C5B5874A18B4306DF8a752a6C8cc3E82daFc19",
      "gasPrice": {
        "_hex": "0x10ecedd84de"
      },
      "gasLimit": {
        "_hex": "0x493e0"
      },
      "to": "0x88A91FD7Fb8AAEa8cDAD2C990f1DBDcd28022a02",
      "value": {
        "_hex": "0x0"
      },
      "nonce": 15,
      "data": "0x03750d94000000000000000000000000326be8f71bfb0379f989aab1cc1fe37f0a771f60534447485a58596c6c6b54717369363300000000000000000000000000000000",
      "r": "0xf19afe8f2998389e2920c2dcdfe96dbb517a20cfc3755e8a8417c267b839f7ab",
      "s": "0x33baf6723b5116f33feb56e21a13536ac33f078386db7494b77d1d045e3703d1",
      "v": 28,
      "creates": null,
      "raw": "0xf8ab0f86010ecedd84de830493e09488a91fd7fb8aaea8cdad2c990f1dbdcd28022a0280b84403750d94000000000000000000000000326be8f71bfb0379f989aab1cc1fe37f0a771f60534447485a58596c6c6b547173693633000000000000000000000000000000001ca0f19afe8f2998389e2920c2dcdfe96dbb517a20cfc3755e8a8417c267b839f7aba033baf6723b5116f33feb56e21a13536ac33f078386db7494b77d1d045e3703d1",
      "networkId": 0,
      "chainId": 0
    }
  ]
}