{
  "hash": "0xff5a79af5f5258d07e4c361ddd487bc6687079d729c567599a12abb68f267670",
  "parentHash": "0x54883a48783c75d8e5df84c0b6e5d3dc1b422b952477078a6301446d86ca5631",
  "number": 95423,
  "timestamp": 1439723940,
  "nonce": "0x124348d6c65230bc",
  "difficulty": 3581143988178,
  "gasLimit": {
    "_hex": "0x2fefd8"
  },
  "gasUsed": {
    "_hex": "0x5208"
  },
  "miner": "0x2134e2a2b718DCa96580ECAC31E653Ea1fdd58DA",
  "extraData": "0x476574682f76312e302e312f77696e646f77732f676f312e342e32",
  "transactions": [
    {
      "hash": "0xdce74c53efb663505fa76413d9b27793d0f255671bc274560406ab338436e890",
      "blockHash": "0xff5a79af5f5258d07e4c361ddd487bc6687079d729c567599a12abb68f267670",
      "blockNumber": 95423,
      "transactionIndex": 0,
      "confirmations": null,
      "from": "0x2910543Af39abA0Cd09dBb2D50200b3E800A63D2",
      "gasPrice": {
        "_hex": "0xcebcf20ce"
      },
      "gasLimit": {
        "_hex": "0x5208"
      },
      "to": "0x750042d0F9860EA3bE59F900c04a10a65eA139B4",
      "value": {
        "_hex": "0x59fd0ef178348f8000"
      },
      "nonce": 895,
      "data": "0x",
      "r": "0xf8ca74c2510f9e72f62476f3696addd1b92bb0d34623893ff535e2a24aee59b9",
      "s": "0x69049f0b3aa46e3cc54f72c947994eda8c7b1eb445b836a468dda6df01e2e24e",
      "v": 28,
      "creates": null,
      "raw": "0xf86f82037f850cebcf20ce82520894750042d0f9860ea3be59f900c04a10a65ea139b48959fd0ef178348f8000801ca0f8ca74c2510f9e72f62476f3696addd1b92bb0d34623893ff535e2a24aee59b9a069049f0b3aa46e3cc54f72c947994eda8c7b1eb445b836a468dda6df01e2e24e",
      "networkId": 0,
      "chainId": 0
    }
  ]
}