{
  "hash": "0x7c56bdccf1dd1b2c12973a265e473392ec0906383326719ac4d3c913999555ec",
  "parentHash": "0x3301aaa154be839b5cb505d4d9855e8ef5a7282493b4bf1492bfdab2082855ff",
  "number": 46784,
  "timestamp": 1438929082,
  "nonce": "0xcec8348b24e1fd62",
  "difficulty": 1460309526756,
  "gasLimit": {
    "_hex": "0x787a"
  },
  "gasUsed": {
    "_hex": "0x5208"
  },
  "miner": "0x157c6f2431eB1a95797EE86F7d17b3c0FD47A247",
  "extraData": "0x476574682f76312e302e312f77696e646f77732f676f312e342e32",
  "transactions": [
    {
      "hash": "0x02e48a3976385def2bebb40374d0b85a061ae9f21bf8e3fdb5d61317a04d5c07",
      "blockHash": "0x7c56bdccf1dd1b2c12973a265e473392ec0906383326719ac4d3c913999555ec",
      "blockNumber": 46784,
      "transactionIndex": 0,
      "confirmations": null,
      "from": "0xe6A7a1d47ff21B6321162AEA7C6CB457D5476Bca",
      "gasPrice": {
        "_hex": "0xd822ae072"
      },
      "gasLimit": {
        "_hex": "0x5208"
      },
      "to": "0x3F98e477a361F777DA14611a7e419A75Fd238b6b",
      "value": {
        "_hex": "0xe34e5a3e4c868a0"
      },
      "nonce": 0,
      "data": "0x",
      "r": "0xf49b88576ebafb6ba7572c88400e594f3f751128d2cdec923da9f1acc65c3485",
      "s": "0x7688a6830e82a0734d293cda1461abb9c50a5048bb10cf6fa3067b83035b3082",
      "v": 28,
      "creates": null,
      "raw": "0xf86c80850d822ae072825208943f98e477a361f777da14611a7e419a75fd238b6b880e34e5a3e4c868a0801ca0f49b88576ebafb6ba7572c88400e594f3f751128d2cdec923da9f1acc65c3485a07688a6830e82a0734d293cda1461abb9c50a5048bb10cf6fa3067b83035b3082",
      "networkId": 0,
      "chainId": 0
    }
  ]
}