{
  "hash": "0xbdc45c7b7ce2b3ee3195c7fc1c9d5903b3e85f4885776960f81c9019547d4828",
  "parentHash": "0x37c689a3dbc4badf645c2ed7142d2ba383e63408762ccc4e4346e165aa1e556b",
  "number": 81030,
  "timestamp": 1439494921,
  "nonce": "0xc9674ed50f4c7aac",
  "difficulty": 2435594846306,
  "gasLimit": {
    "_hex": "0x2fefd8"
  },
  "gasUsed": {
    "_hex": "0x5208"
  },
  "miner": "0x5A8d4616D25AD4928b08383073adb961A87De5d8",
  "extraData": "0x",
  "transactions": [
    {
      "hash": "0x11bf28d41a57980256d8ec81ad5c111f949fcef42857c8356342a36bf1d01d22",
      "blockHash": "0xbdc45c7b7ce2b3ee3195c7fc1c9d5903b3e85f4885776960f81c9019547d4828",
      "blockNumber": 81030,
      "transactionIndex": 0,
      "confirmations": null,
      "from": "0x120A270bbC009644e35F0bB6ab13f95b8199c4ad",
      "gasPrice": {
        "_hex": "0xdaeb52a93"
      },
      "gasLimit": {
        "_hex": "0x3d090"
      },
      "to": "0xfBf27563eE19059cDedAC5392E97a6F69a2608b1",
      "value": {
        "_hex": "0x13e89977893ae800"
      },
      "nonce": 362,
      "data": "0x",
      "r": "0x87bfdce85e692ea996323a4b97fdd5eb1289127123de27cf9a07dd5ac608dcbe",
      "s": "0x0218db1830cbaf23c5a5924fa5d4313e81ced68fcc7bcf3decc5a5b492d4285b",
      "v": 28,
      "creates": null,
      "raw": "0xf86f82016a850daeb52a938303d09094fbf27563ee19059cdedac5392e97a6f69a2608b18813e89977893ae800801ca087bfdce85e692ea996323a4b97fdd5eb1289127123de27cf9a07dd5ac608dcbea00218db1830cbaf23c5a5924fa5d4313e81ced68fcc7bcf3decc5a5b492d4285b",
      "networkId": 0,
      "chainId": 0
    }
  ]
}