{
  "hash": "0x0165377e59d02ad8aa2ec1f8418f2fef6a8f54d6566e7dd0007b8a8a36c1ae11",
  "parentHash": "0xf69aef4366b2bfc5e8922126b6a8ad7a982f0652f9d0355fcb5987a9e5be4995",
  "number": 67410,
  "timestamp": 1439271665,
  "nonce": "0x61bbe4b361db3e67",
  "difficulty": 1920444781217,
  "gasLimit": {
    "_hex": "0x2fefd8"
  },
  "gasUsed": {
    "_hex": "0x5208"
  },
  "miner": "0x9D49F602b0fdb924Bd63DDE2Bd0907E4A07c63a7",
  "extraData": "0x476574682f76312e302e312f6c696e75782f676f312e342e32",
  "transactions": [
    {
      "hash": "0x2fe5371442d335868359666d1370f91931d3d60e881e0d1d807b6035c66ce3c4",
      "blockHash": "0x0165377e59d02ad8aa2ec1f8418f2fef6a8f54d6566e7dd0007b8a8a36c1ae11",
      "blockNumber": 67410,
      "transactionIndex": 0,
      "confirmations": null,
      "from": "0x120A270bbC009644e35F0bB6ab13f95b8199c4ad",
      "gasPrice": {
        "_hex": "0xce9dfd235"
      },
      "gasLimit": {
        "_hex": "0x15f90"
      },
      "to": "0x7244C460dEA1e5835772469AbBF5426D4ad14d59",
      "value": {
        "_hex": "0x1765c8ff7cce9d9000"
      },
      "nonce": 162,
      "data": "0x",
      "r": "0x1495f498ee9f5ca99bf3fb60b93178eab918f72c181efc8132ed57364489cff5",
      "s": "0x38280fe85f576cddd8477f494e78635ab749bf46689561f8f6f306b3c657babc",
      "v": 28,
      "creates": null,
      "raw": "0xf86f81a2850ce9dfd23583015f90947244c460dea1e5835772469abbf5426d4ad14d59891765c8ff7cce9d9000801ca01495f498ee9f5ca99bf3fb60b93178eab918f72c181efc8132ed57364489cff5a038280fe85f576cddd8477f494e78635ab749bf46689561f8f6f306b3c657babc",
      "networkId": 0,
      "chainId": 0
    }
  ]
}