{
  "hash": "0x8091cfc79219e3a7343caec2460821479b1ad1c39b77a0db366f5dabd610d1d1",
  "parentHash": "0xb8f1832b1c7b70295f0e17a75e49d7e28fce97248c82679a47379bd1124a38de",
  "number": 89855,
  "timestamp": 1439630196,
  "nonce": "0xf93f928c0ff9e6c4",
  "difficulty": 3340209571523,
  "gasLimit": {
    "_hex": "0x2fefd8"
  },
  "gasUsed": {
    "_hex": "0x546c"
  },
  "miner": "0xf927a40C8B7F6E07c5af7FA2155B4864a4112B13",
  "extraData": "0x",
  "transactions": [
    {
      "hash": "0x7324d1b94ab01a2e8052d73dd85720406013eea111d89c6b8f6576f441481933",
      "blockHash": "0x8091cfc79219e3a7343caec2460821479b1ad1c39b77a0db366f5dabd610d1d1",
      "blockNumber": 89855,
      "transactionIndex": 0,
      "confirmations": null,
      "from": "0x837A2A346557050c8cF0fb24b84Aa695E8Add19f",
      "gasPrice": {
        "_hex": "0xe03fef195"
      },
      "gasLimit": {
        "_hex": "0x55f0"
      },
      "to": "0x2910543Af39abA0Cd09dBb2D50200b3E800A63D2",
      "value": {
        "_hex": "0x8ac7230489e800000"
      },
      "nonce": 4,
      "data": "0x454e415157474e5a38",
      "r": "0xc38eb78c33f057d6ed428ceb36aa9a4b8b45c6f292bb360a49e08be426e8ee71",
      "s": "0x026715cf99c1d62ce2a5a4ec59b9db0a4a90b980ca9195efa724ec350a5c02f2",
      "v": 27,
      "creates": null,
      "raw": "0xf87604850e03fef1958255f0942910543af39aba0cd09dbb2d50200b3e800a63d28908ac7230489e80000089454e415157474e5a381ba0c38eb78c33f057d6ed428ceb36aa9a4b8b45c6f292bb360a49e08be426e8ee71a0026715cf99c1d62ce2a5a4ec59b9db0a4a90b980ca9195efa724ec350a5c02f2",
      "networkId": 0,
      "chainId": 0
    }
  ]
}