{
  "hash": "0xec17ee7119a3c22bb9965aabeb93fdd6a248597d813f425c4635722d5137fffa",
  "parentHash": "0xf66f639ed3f5d3a760d879835b50042e3459c1d5cab74fcc041ff264906b6924",
  "number": 77102,
  "timestamp": 1439431562,
  "nonce": "0xc6d2743248e3a4c1",
  "difficulty": 2238258989225,
  "gasLimit": {
    "_hex": "0x2fefd8"
  },
  "gasUsed": {
    "_hex": "0xa674"
  },
  "miner": "0x6dC8a46AB80ED97E4073b96F78554A536E2e7152",
  "extraData": "0x",
  "transactions": [
    {
      "hash": "0x3b443040f15984ac91ea4e4f6693e2b2a84a2da14783e83c72817c6bf350d275",
      "blockHash": "0xec17ee7119a3c22bb9965aabeb93fdd6a248597d813f425c4635722d5137fffa",
      "blockNumber": 77102,
      "transactionIndex": 0,
      "confirmations": null,
      "from": "0xbB4B4A4b548070fF41432C9e08a0ca6fa7BC9f76",
      "gasPrice": {
        "_hex": "0x110c8f7d8de"
      },
      "gasLimit": {
        "_hex": "0xc350"
      },
      "to": "0x2910543Af39abA0Cd09dBb2D50200b3E800A63D2",
      "value": {
        "_hex": "0x2e04daa455c51a0000"
      },
      "nonce": 1,
      "data": "0x454e5058424e523447",
      "r": "0xd78c22a86c9879a3990d6306742b55f584be3ec9dfe7181ba983f8cf3345ed50",
      "s": "0x70bcc29058d0d60a969fb76fdcebfe537367f3ab536d8277360999c97e381f43",
      "v": 27,
      "creates": null,
      "raw": "0xf87701860110c8f7d8de82c350942910543af39aba0cd09dbb2d50200b3e800a63d2892e04daa455c51a000089454e5058424e5234471ba0d78c22a86c9879a3990d6306742b55f584be3ec9dfe7181ba983f8cf3345ed50a070bcc29058d0d60a969fb76fdcebfe537367f3ab536d8277360999c97e381f43",
      "networkId": 0,
      "chainId": 0
    },
    {
      "hash": "0x7fdcaea8047148aa66936244216f7f86122d6a2ad3a01f8d0ba90c5d7029e174",
      "blockHash": "0xec17ee7119a3c22bb9965aabeb93fdd6a248597d813f425c4635722d5137fffa",
      "blockNumber": 77102,
      "transactionIndex": 1,
      "confirmations": null,
      "from": "0xF5EeDc192aB70b08D8354384aD94efD095849E00",
      "gasPrice": {
        "_hex": "0xd3a7eb7a7"
      },
      "gasLimit": {
        "_hex": "0x5208"
      },
      "to": "0x32Be343B94f860124dC4fEe278FDCBD38C102D88",
      "value": {
        "_hex": "0x3170470d8b7660000"
      },
      "nonce": 26,
      "data": "0x",
      "r": "0x89089a9e06afbe6a502cb970b6f847f92eca28b127070502b6c0230340db2bfa",
      "s": "0x4e10e35f254c2eaf596796fb0131380e7636cad29ceec0b3400fbd69c34f05a6",
      "v": 27,
      "creates": null,
      "raw": "0xf86d1a850d3a7eb7a78252089432be343b94f860124dc4fee278fdcbd38c102d888903170470d8b7660000801ba089089a9e06afbe6a502cb970b6f847f92eca28b127070502b6c0230340db2bfaa04e10e35f254c2eaf596796fb0131380e7636cad29ceec0b3400fbd69c34f05a6",
      "networkId": 0,
      "chainId": 0
    }
  ]
}