{
  "hash": "0x8118857e4276efe94577411cfb1368bd2af83846629fa7ba76007188d4964fe3",
  "parentHash": "0x00935ffac8b2195f6aff7e656fd18b4c9d54126a6ac3e24bee89285a632013e4",
  "number": 65212,
  "timestamp": 1439233051,
  "nonce": "0xf22dd306d94d98f2",
  "difficulty": 1947391362631,
  "gasLimit": {
    "_hex": "0x2fefd8"
  },
  "gasUsed": {
    "_hex": "0x11074"
  },
  "miner": "0x93641e54c9aA6F9038FE7Adb03629a1747326Cd6",
  "extraData": "0x476574682f76312e302e312f77696e646f77732f676f312e342e32",
  "transactions": [
    {
      "hash": "0xd25a2514158983e5a61ff5804910f1a60cc25fcb50675b385172cd9ebdb44b50",
      "blockHash": "0x8118857e4276efe94577411cfb1368bd2af83846629fa7ba76007188d4964fe3",
      "blockNumber": 65212,
      "transactionIndex": 0,
      "confirmations": null,
      "from": "0x535Ed2FEc482c97E79Fa1608903C60A10467115d",
      "gasPrice": {
        "_hex": "0xba43b7400"
      },
      "gasLimit": {
        "_hex": "0x15f90"
      },
      "to": "0x793AE8C1b1a160BFc07BFB0d04F85eab1A71F4f2",
      "value": {
        "_hex": "0x0"
      },
      "nonce": 0,
      "data": "0x3ba15036",
      "r": "0xdefb6704cf405cef8b73b9f5e64fbb49ea8413e978e045285cda620b25fbd3f9",
      "s": "0x444bfcdb2e3cdccbe4de9157dddcaff8eb5bf571532fb9c489818e85e544c7c7",
      "v": 27,
      "creates": null,
      "raw": "0xf86980850ba43b740083015f9094793ae8c1b1a160bfc07bfb0d04f85eab1a71f4f280843ba150361ba0defb6704cf405cef8b73b9f5e64fbb49ea8413e978e045285cda620b25fbd3f9a0444bfcdb2e3cdccbe4de9157dddcaff8eb5bf571532fb9c489818e85e544c7c7",
      "networkId": 0,
      "chainId": 0
    },
    {
      "hash": "0x80af1aba5789d1c8c17827659f0563b30f7ef79074e7abbb9720a2c0e80d998d",
      "blockHash": "0x8118857e4276efe94577411cfb1368bd2af83846629fa7ba76007188d4964fe3",
      "blockNumber": 65212,
      "transactionIndex": 1,
      "confirmations": null,
      "from": "0xb90c8F5e7B1Ef1c42eED25A5Aa6EC422Dda462fd",
      "gasPrice": {
        "_hex": "0xba43b7400"
      },
      "gasLimit": {
        "_hex": "0x5208"
      },
      "to": "0x8b7ed49ed1A9F810dE7565298721136e1Fb2074C",
      "value": {
        "_hex": "0x65c4710e6ab9000"
      },
      "nonce": 1,
      "data": "0x",
      "r": "0xc3534f830989cfdc9c022306c187f8b3ab162fe1f50ce823cb6908dce4057fb0",
      "s": "0x322d4c560df7a986f2285524e4e7f0c4154741cce5a32b5f98f476172615b62e",
      "v": 28,
      "creates": null,
      "raw": "0xf86c01850ba43b7400825208948b7ed49ed1a9f810de7565298721136e1fb2074c88065c4710e6ab9000801ca0c3534f830989cfdc9c022306c187f8b3ab162fe1f50ce823cb6908dce4057fb0a0322d4c560df7a986f2285524e4e7f0c4154741cce5a32b5f98f476172615b62e",
      "networkId": 0,
      "chainId": 0
    }
  ]
}