{
  "hash": "0x9e3c26b1aafb4b2c29e802dd32af0c0188d1f3447ce122431db2dca5e6cfb0b5",
  "parentHash": "0x9967c0d13ece5d8f273d3c5ad31843381948fe532e64ddaaf3d3ee691570f0ce",
  "number": 115348,
  "timestamp": 1440055730,
  "nonce": "0xf73d195eb5715aec",
  "difficulty": 4545009096657,
  "gasLimit": {
    "_hex": "0x2fefd8"
  },
  "gasUsed": {
    "_hex": "0x5208"
  },
  "miner": "0xe6A7a1d47ff21B6321162AEA7C6CB457D5476Bca",
  "extraData": "0x476574682f76312e302e312d38326566323666362f6c696e75782f676f312e34",
  "transactions": [
    {
      "hash": "0xd908b4fec770705c9feb8813599b7187824382bf4c0b9bc6c8784a619d9614e4",
      "blockHash": "0x9e3c26b1aafb4b2c29e802dd32af0c0188d1f3447ce122431db2dca5e6cfb0b5",
      "blockNumber": 115348,
      "transactionIndex": 0,
      "confirmations": null,
      "from": "0xa61ff394e3846F8bfbBF8801afb051730B04Ee75",
      "gasPrice": {
        "_hex": "0xd624b9d23"
      },
      "gasLimit": {
        "_hex": "0x5208"
      },
      "to": "0x32Be343B94f860124dC4fEe278FDCBD38C102D88",
      "value": {
        "_hex": "0xac8838ec8de0a000"
      },
      "nonce": 22,
      "data": "0x",
      "r": "0x2a4a5ac36bdaaa4f1f1c694e5b9f2af4b1f7066cac1b9187fbc43fd6eef5fdf1",
      "s": "0x66b2c457eb11385c9fede21523ff2d4294a3c70c78de3c169ef04864b789b30a",
      "v": 28,
      "creates": null,
      "raw": "0xf86c16850d624b9d238252089432be343b94f860124dc4fee278fdcbd38c102d8888ac8838ec8de0a000801ca02a4a5ac36bdaaa4f1f1c694e5b9f2af4b1f7066cac1b9187fbc43fd6eef5fdf1a066b2c457eb11385c9fede21523ff2d4294a3c70c78de3c169ef04864b789b30a",
      "networkId": 0,
      "chainId": 0
    }
  ]
}