{
  "hash": "0x84dc2bd09d34016243028c62f749366612530227b1dddf1bd69578f14bb3e989",
  "parentHash": "0xc247055c9349c6218039bc0a15010cdb60d1551a39d6965b138e3a72808b45fa",
  "number": 101767,
  "timestamp": 1439827754,
  "nonce": "0x1b513f82a4aa4b26",
  "difficulty": 3888151509743,
  "gasLimit": {
    "_hex": "0x2fefd8"
  },
  "gasUsed": {
    "_hex": "0xbcbd"
  },
  "miner": "0x580992B51e3925e23280EfB93d3047C82f17E038",
  "extraData": "0x476574682f76312e302e312f6c696e75782f676f312e342e32",
  "transactions": [
    {
      "hash": "0x1b77c97626305071dc23095961dd2079bd3cd3f1a66e0a37f1192a01622d2a16",
      "blockHash": "0x84dc2bd09d34016243028c62f749366612530227b1dddf1bd69578f14bb3e989",
      "blockNumber": 101767,
      "transactionIndex": 0,
      "confirmations": null,
      "from": "0x0037A6B811ffeB6e072DA21179d11B1406371C63",
      "gasPrice": {
        "_hex": "0xba43b7400"
      },
      "gasLimit": {
        "_hex": "0x17979"
      },
      "to": "0xde0B295669a9FD93d5F28D9Ec85E40f4cb697BAe",
      "value": {
        "_hex": "0x0"
      },
      "nonce": 3,
      "data": "0x797af6272153b9b2b56bb29c21cf47fe64fd2abdd7171b14cca48560f6f6cf294a1a5c52",
      "r": "0x1603ef6cd435902158f44d1122613423ba691067e4f6a87a8fd494bfca5f049a",
      "s": "0x38e053146b35b440b7c5a04d33dfb1945823db79a55ba95311a4d1b5ca055ae5",
      "v": 27,
      "creates": null,
      "raw": "0xf88903850ba43b74008301797994de0b295669a9fd93d5f28d9ec85e40f4cb697bae80a4797af6272153b9b2b56bb29c21cf47fe64fd2abdd7171b14cca48560f6f6cf294a1a5c521ba01603ef6cd435902158f44d1122613423ba691067e4f6a87a8fd494bfca5f049aa038e053146b35b440b7c5a04d33dfb1945823db79a55ba95311a4d1b5ca055ae5",
      "networkId": 0,
      "chainId": 0
    }
  ]
}