{
  "hash": "0x38fc9b7461390f5ce85cb68a946664377bb98074cc60cc5893c7380236672994",
  "parentHash": "0x6d9752bed3d6baa6d62f3cef83a9f2fc69c0353a2762fd02e2a5a9b52c67af59",
  "number": 87482,
  "timestamp": 1439592979,
  "nonce": "0x6b5b9f7535c53c3a",
  "difficulty": 3131070701687,
  "gasLimit": {
    "_hex": "0x2fefd8"
  },
  "gasUsed": {
    "_hex": "0x5208"
  },
  "miner": "0xe6A7a1d47ff21B6321162AEA7C6CB457D5476Bca",
  "extraData": "0x476574682f76312e302e312d38326566323666362f6c696e75782f676f312e34",
  "transactions": [
    {
      "hash": "0xacd9a112ade4a50aab302dcb9d8a79b288de116dc212b3f4b71af5a8e859f189",
      "blockHash": "0x38fc9b7461390f5ce85cb68a946664377bb98074cc60cc5893c7380236672994",
      "blockNumber": 87482,
      "transactionIndex": 0,
      "confirmations": null,
      "from": "0x40DA7b92059ee5cF3Be274A15B632D38Db431d25",
      "gasPrice": {
        "_hex": "0xcfdf2e9b8"
      },
      "gasLimit": {
        "_hex": "0x30d40"
      },
      "to": "0x120A270bbC009644e35F0bB6ab13f95b8199c4ad",
      "value": {
        "_hex": "0x13dbcdf0093e7e00"
      },
      "nonce": 0,
      "data": "0x",
      "r": "0x8c23719524dec0b060ef13665d8839427c88b705c69a6fffb37c55ed83e28436",
      "s": "0x3c28bb90c3194a8872d7bfd9ef698e763da69986aacfb85919e45052839b3ba5",
      "v": 27,
      "creates": null,
      "raw": "0xf86d80850cfdf2e9b883030d4094120a270bbc009644e35f0bb6ab13f95b8199c4ad8813dbcdf0093e7e00801ba08c23719524dec0b060ef13665d8839427c88b705c69a6fffb37c55ed83e28436a03c28bb90c3194a8872d7bfd9ef698e763da69986aacfb85919e45052839b3ba5",
      "networkId": 0,
      "chainId": 0
    }
  ]
}