{
  "hash": "0xefa20337a10165f5b4ff78ba84cee5457600ad336d8bad0729047999eb46e815",
  "parentHash": "0x08aa10b35d549580bced750dd2cae6006f574a0ae2e2869b9cf4f2259feeb429",
  "number": 121259,
  "timestamp": 1440174117,
  "nonce": "0x724ee6ab02b919c2",
  "difficulty": 4412831235009,
  "gasLimit": {
    "_hex": "0x2fefd8"
  },
  "gasUsed": {
    "_hex": "0x5208"
  },
  "miner": "0x3cdA97032227293AaeAEF72f44C1AdCfC3daF366",
  "extraData": "0x",
  "transactions": [
    {
      "hash": "0x80526e016d11aefb3fe48b27c44dd4dda59ba1e22dfdca7f2760f99fc6e78531",
      "blockHash": "0xefa20337a10165f5b4ff78ba84cee5457600ad336d8bad0729047999eb46e815",
      "blockNumber": 121259,
      "transactionIndex": 0,
      "confirmations": null,
      "from": "0xFAe95941f26f565646Cc5bF443AfFDe60868f17e",
      "gasPrice": {
        "_hex": "0xba43b7400"
      },
      "gasLimit": {
        "_hex": "0x5208"
      },
      "to": "0xFBb1b73C4f0BDa4f67dcA266ce6Ef42f520fBB98",
      "value": {
        "_hex": "0xddcfbbb7a606000"
      },
      "nonce": 3,
      "data": "0x",
      "r": "0xfa4cfc230b43ae3fbe24cbc7faa06af7e365ff70d066bd363af9cc571ee75616",
      "s": "0x10c9cb979603e6a55b62ed9e714bee88246d9befd744b683f2f9d4e65d39203d",
      "v": 28,
      "creates": null,
      "raw": "0xf86c03850ba43b740082520894fbb1b73c4f0bda4f67dca266ce6ef42f520fbb98880ddcfbbb7a606000801ca0fa4cfc230b43ae3fbe24cbc7faa06af7e365ff70d066bd363af9cc571ee75616a010c9cb979603e6a55b62ed9e714bee88246d9befd744b683f2f9d4e65d39203d",
      "networkId": 0,
      "chainId": 0
    }
  ]
}