{
  "hash": "0x46e0fbf437341b4011e7bbc86b2877be59abb0db1fec4dcaeb605a16c31e15e5",
  "parentHash": "0x04d1baed68447346cfc0b5288191504aad897a228d127de5f9cff49ed5666ebe",
  "number": 72010,
  "timestamp": 1439345767,
  "nonce": "0x092ddfd5e8d056e5",
  "difficulty": 2160138899899,
  "gasLimit": {
    "_hex": "0x2fefd8"
  },
  "gasUsed": {
    "_hex": "0xaec1"
  },
  "miner": "0xf927a40C8B7F6E07c5af7FA2155B4864a4112B13",
  "extraData": "0x",
  "transactions": [
    {
      "hash": "0x2b9303b253445b3a7b861819cecf2bc413142e517bff06a459d1f6c5de9351fb",
      "blockHash": "0x46e0fbf437341b4011e7bbc86b2877be59abb0db1fec4dcaeb605a16c31e15e5",
      "blockNumber": 72010,
      "transactionIndex": 0,
      "confirmations": null,
      "from": "0x17580B766f7453525ca4C6A88b01b50570EA088C",
      "gasPrice": {
        "_hex": "0xd6e69dbdd"
      },
      "gasLimit": {
        "_hex": "0x61a80"
      },
      "to": "0x5Fe5B7546D1628f7348B023A0393de1FC825A4fD",
      "value": {
        "_hex": "0xde0b6b3a7640000"
      },
      "nonce": 324,
      "data": "0xb595b8b50000000000000000000000000000000000000000000000000000000000000001",
      "r": "0x79fd8788dcb5b2dd72f75e832e290c2d5b3a16a83fd85144ff8d76e4b9123d54",
      "s": "0x65951b38d57e33028bcfd8d03f272ad9c4539b67accc2e66e912490919fef0b6",
      "v": 28,
      "creates": null,
      "raw": "0xf893820144850d6e69dbdd83061a80945fe5b7546d1628f7348b023a0393de1fc825a4fd880de0b6b3a7640000a4b595b8b500000000000000000000000000000000000000000000000000000000000000011ca079fd8788dcb5b2dd72f75e832e290c2d5b3a16a83fd85144ff8d76e4b9123d54a065951b38d57e33028bcfd8d03f272ad9c4539b67accc2e66e912490919fef0b6",
      "networkId": 0,
      "chainId": 0
    }
  ]
}