{
  "hash": "0x031f8f2008839bd9260ac7b774087ebcde8e1ac5edbae109470e7e30b726effb",
  "parentHash": "0x8d50ad7f6878846e540ae37a1a948dcf51384b9f4678f066099d2045e74de984",
  "number": 51302,
  "timestamp": 1439002628,
  "nonce": "0xe83364c8b876eb5f",
  "difficulty": 1567369753738,
  "gasLimit": {
    "_hex": "0xa2bdf"
  },
  "gasUsed": {
    "_hex": "0x14209"
  },
  "miner": "0xa50ec0D39fa913E62f1Bae7074E6F36caA71855b",
  "extraData": "0x",
  "transactions": [
    {
      "hash": "0xb26eee4f098d1ef7c52caf082b0c8b5115ab8b374778afd552c534633ea4f2cb",
      "blockHash": "0x031f8f2008839bd9260ac7b774087ebcde8e1ac5edbae109470e7e30b726effb",
      "blockNumber": 51302,
      "transactionIndex": 0,
      "confirmations": null,
      "from": "0x2905726Ed11131A984ce9C0119cB32DBC99dE90B",
      "gasPrice": {
        "_hex": "0x10792d013f4"
      },
      "gasLimit": {
        "_hex": "0x15f90"
      },
      "to": "0xd94BAdbEC21695B7a36ABCb979EFad0108319d18",
      "value": {
        "_hex": "0x38d7ea4c68000"
      },
      "nonce": 9,
      "data": "0xa69beaba6558697374656e5a000000000000000000000000000000000000000000000000",
      "r": "0xa2be06a4eeb364bc97a808440677cf62b2da4401bc135a8f40f8c090c9459bf9",
      "s": "0x66805226ede12013c5fc79ffd456ea4014e1e685fec9dba35364b0722747d6e3",
      "v": 28,
      "creates": null,
      "raw": "0xf8910986010792d013f483015f9094d94badbec21695b7a36abcb979efad0108319d1887038d7ea4c68000a4a69beaba6558697374656e5a0000000000000000000000000000000000000000000000001ca0a2be06a4eeb364bc97a808440677cf62b2da4401bc135a8f40f8c090c9459bf9a066805226ede12013c5fc79ffd456ea4014e1e685fec9dba35364b0722747d6e3",
      "networkId": 0,
      "chainId": 0
    }
  ]
}