{
  "hash": "0x0b2ee0b531c97a21f20fcca8cf4d51b610eb55ea1849b81cadfcfb430b614238",
  "parentHash": "0x378e34ef906202f5d20e076c73ad090015ccb3f8714689f086fcb9e4dd6bac66",
  "number": 60375,
  "timestamp": 1439154410,
  "nonce": "0x81dcf4d040cdeca4",
  "difficulty": 1745784525965,
  "gasLimit": {
    "_hex": "0x2fefd8"
  },
  "gasUsed": {
    "_hex": "0x1a0d7"
  },
  "miner": "0x02020D22dCF88f5eDd66B382D7da019F161fB7e3",
  "extraData": "0x",
  "transactions": [
    {
      "hash": "0xeb3d479090171c0408fa1b67eaef373f0a21991d7fac0db4c1d5a087f1498797",
      "blockHash": "0x0b2ee0b531c97a21f20fcca8cf4d51b610eb55ea1849b81cadfcfb430b614238",
      "blockNumber": 60375,
      "transactionIndex": 0,
      "confirmations": null,
      "from": "0xE60d047A7f89348A473EB1b32c27A13cB459d776",
      "gasPrice": {
        "_hex": "0xd23ee12e2"
      },
      "gasLimit": {
        "_hex": "0x61a80"
      },
      "to": "0x020522bF9B8eD6FF41E2fa6765a17E20E2767D64",
      "value": {
        "_hex": "0x56bc75e2d63100000"
      },
      "nonce": 0,
      "data": "0x",
      "r": "0x58725cc888677a203f5d3002e6a76f03bc5ed8cac0aa51f2155d77d56ca3d56f",
      "s": "0x006824eb772eeedd1496fa0fdbc87ee92a8388c0ecedbb1f7357e9094b95e6d2",
      "v": 28,
      "creates": null,
      "raw": "0xf86d80850d23ee12e283061a8094020522bf9b8ed6ff41e2fa6765a17e20e2767d6489056bc75e2d63100000801ca058725cc888677a203f5d3002e6a76f03bc5ed8cac0aa51f2155d77d56ca3d56f9f6824eb772eeedd1496fa0fdbc87ee92a8388c0ecedbb1f7357e9094b95e6d2",
      "networkId": 0,
      "chainId": 0
    }
  ]
}