{
  "hash": "0x9bab47c496c6275802ccb4636043eb2ed2f8a97839fb0895e79717ba3daa796b",
  "parentHash": "0xf122e7bf448eb262067fd95cd7327d66fc80867493d85926c984341f97448625",
  "number": 54424,
  "timestamp": 1439054088,
  "nonce": "0x8551960f95dd0047",
  "difficulty": 1608647745580,
  "gasLimit": {
    "_hex": "0x2fefd5"
  },
  "gasUsed": {
    "_hex": "0xf618"
  },
  "miner": "0xbb7B8287f3F0a933474a79eAe42CBCa977791171",
  "extraData": "0x476574682f4c5649562f76312e302e312f6c696e75782f676f312e342e32",
  "transactions": [
    {
      "hash": "0x87394ee3a06b89377e0d470c1aa9e09e971ce745aa0620953c912a50142849dc",
      "blockHash": "0x9bab47c496c6275802ccb4636043eb2ed2f8a97839fb0895e79717ba3daa796b",
      "blockNumber": 54424,
      "transactionIndex": 0,
      "confirmations": null,
      "from": "0x4F68024B7CEB5ca92e7308BD08e523c632C0c739",
      "gasPrice": {
        "_hex": "0xd927ef6a7"
      },
      "gasLimit": {
        "_hex": "0x7530"
      },
      "to": "0xA8dd28824D25dd5d57F5eCe5Ad5d5aBEf3d690C7",
      "value": {
        "_hex": "0x2386f26fc10000"
      },
      "nonce": 1,
      "data": "0x",
      "r": "0x331a5578a00894a22b7b0bbee9eaa23e0bfda6da113cf60e227f09dd843fbf95",
      "s": "0x30f4f34299a03af0242cead500e98ee616badc3ca6f701710ed1f25ae2461296",
      "v": 28,
      "creates": null,
      "raw": "0xf86b01850d927ef6a782753094a8dd28824d25dd5d57f5ece5ad5d5abef3d690c7872386f26fc10000801ca0331a5578a00894a22b7b0bbee9eaa23e0bfda6da113cf60e227f09dd843fbf95a030f4f34299a03af0242cead500e98ee616badc3ca6f701710ed1f25ae2461296",
      "networkId": 0,
      "chainId": 0
    },
    {
      "hash": "0xab4505881afafa570f4d7bd83d14b8c1e1b64557190fbf571d0b722bc100f4b9",
      "blockHash": "0x9bab47c496c6275802ccb4636043eb2ed2f8a97839fb0895e79717ba3daa796b",
      "blockNumber": 54424,
      "transactionIndex": 1,
      "confirmations": null,
      "from": "0x71800954e6FA0Cbc43c6440d3CC80660F18a8B6F",
      "gasPrice": {
        "_hex": "0xd3c3b3098"
      },
      "gasLimit": {
        "_hex": "0x5208"
      },
      "to": "0x32Be343B94f860124dC4fEe278FDCBD38C102D88",
      "value": {
        "_hex": "0xddc78fe12b0a400"
      },
      "nonce": 0,
      "data": "0x",
      "r": "0xb35f1756d0412097c3a5b6679252ad67f8378f139f6d0d7299aac8a32c088f15",
      "s": "0x55ce60946de4a60e12b59eead8aa78238a3d612047cb0ac59a92e3f4cbc5b220",
      "v": 28,
      "creates": null,
      "raw": "0xf86c80850d3c3b30988252089432be343b94f860124dc4fee278fdcbd38c102d88880ddc78fe12b0a400801ca0b35f1756d0412097c3a5b6679252ad67f8378f139f6d0d7299aac8a32c088f15a055ce60946de4a60e12b59eead8aa78238a3d612047cb0ac59a92e3f4cbc5b220",
      "networkId": 0,
      "chainId": 0
    },
    {
      "hash": "0xf9b4fff80921e05dbe71f880f27cb746cc9ad93e9a4c5d0ba3597cbd6b0f13ef",
      "blockHash": "0x9bab47c496c6275802ccb4636043eb2ed2f8a97839fb0895e79717ba3daa796b",
      "blockNumber": 54424,
      "transactionIndex": 2,
      "confirmations": null,
      "from": "0x60780933D9a5A8e8E3ab20CB6382cd314f04065F",
      "gasPrice": {
        "_hex": "0xd3c3b3098"
      },
      "gasLimit": {
        "_hex": "0x5208"
      },
      "to": "0x32Be343B94f860124dC4fEe278FDCBD38C102D88",
      "value": {
        "_hex": "0x299de6656178a400"
      },
      "nonce": 0,
      "data": "0x",
      "r": "0xb2cebaedeea97b66157267492161bf27eeb27a797659e70e93c332e4e49c812e",
      "s": "0x3ceea4adcaf4efef35a31ea2ddc0a01dc003e2f14cf4250c92dafd865499d16a",
      "v": 28,
      "creates": null,
      "raw": "0xf86c80850d3c3b30988252089432be343b94f860124dc4fee278fdcbd38c102d8888299de6656178a400801ca0b2cebaedeea97b66157267492161bf27eeb27a797659e70e93c332e4e49c812ea03ceea4adcaf4efef35a31ea2ddc0a01dc003e2f14cf4250c92dafd865499d16a",
      "networkId": 0,
      "chainId": 0
    }
  ]
}