{
  "hash": "0x8557b8371ca1b8fbf5382d954760fdaf7959f61c6bd533257bf64b103fe97697",
  "parentHash": "0xe4d10df1873d24f3c8734b5048022afec3eb29c17b1837ff4f239a5c6d3179b9",
  "number": 98508,
  "timestamp": 1439774016,
  "nonce": "0x7ee94090e4828b7c",
  "difficulty": 3861277696583,
  "gasLimit": {
    "_hex": "0x2fefd8"
  },
  "gasUsed": {
    "_hex": "0x5208"
  },
  "miner": "0xe6A7a1d47ff21B6321162AEA7C6CB457D5476Bca",
  "extraData": "0x476574682f76312e302e312d38326566323666362f6c696e75782f676f312e34",
  "transactions": [
    {
      "hash": "0x312d3fdde662d3f5b3cef74b854358b8cc1e4753474b8d5667634f76d1a1b36f",
      "blockHash": "0x8557b8371ca1b8fbf5382d954760fdaf7959f61c6bd533257bf64b103fe97697",
      "blockNumber": 98508,
      "transactionIndex": 0,
      "confirmations": null,
      "from": "0xF87481A262E993a75F791E7859E71BaC36A606Eb",
      "gasPrice": {
        "_hex": "0xdf2dd267d"
      },
      "gasLimit": {
        "_hex": "0x5208"
      },
      "to": "0x32Be343B94f860124dC4fEe278FDCBD38C102D88",
      "value": {
        "_hex": "0x402f057b47b5c4000"
      },
      "nonce": 32,
      "data": "0x",
      "r": "0x6dd029e2348ec9437b2f786e556d5534aa6d6f469f2efcae80d86f82bea5bf62",
      "s": "0x1086be7d21c63a821472224c63c21d15ac2204db9eb2765b6b3b456817c19ef1",
      "v": 28,
      "creates": null,
      "raw": "0xf86d20850df2dd267d8252089432be343b94f860124dc4fee278fdcbd38c102d88890402f057b47b5c4000801ca06dd029e2348ec9437b2f786e556d5534aa6d6f469f2efcae80d86f82bea5bf62a01086be7d21c63a821472224c63c21d15ac2204db9eb2765b6b3b456817c19ef1",
      "networkId": 0,
      "chainId": 0
    }
  ]
}