{
  "hash": "0x3ac6b2deb009b8d85efce2e0dde1e7fc4ecccfbeab9c0177aad1571566224584",
  "parentHash": "0x00ffde6db20f6db1bc765d84879d4cb40591f60bf9ad1b000c8912b972530037",
  "number": 47130,
  "timestamp": 1438934684,
  "nonce": "0x885815c368db1ec4",
  "difficulty": 1460249295455,
  "gasLimit": {
    "_hex": "0x9a30"
  },
  "gasUsed": {
    "_hex": "0x5208"
  },
  "miner": "0x0eDEd3DA479d0beF8eeC92A76644D3f4E3C177f7",
  "extraData": "0x476574682f76312e302e312f6c696e75782f676f312e342e32",
  "transactions": [
    {
      "hash": "0x83fd2836b1300540ee86ab3885dc1cba39d652f20e2cc1f1624200dc706d87fa",
      "blockHash": "0x3ac6b2deb009b8d85efce2e0dde1e7fc4ecccfbeab9c0177aad1571566224584",
      "blockNumber": 47130,
      "transactionIndex": 0,
      "confirmations": null,
      "from": "0xe6A7a1d47ff21B6321162AEA7C6CB457D5476Bca",
      "gasPrice": {
        "_hex": "0xda35356ba"
      },
      "gasLimit": {
        "_hex": "0x5208"
      },
      "to": "0xb5CE1861d98E85c84531Dbc18720278328Fd97f6",
      "value": {
        "_hex": "0x3285c2eb61264478"
      },
      "nonce": 50,
      "data": "0x",
      "r": "0xe1fc2485ab4914ab417ad275b892114a81c62d27ec8dc73f5274485ac3d8cdb6",
      "s": "0x105519838e0d9346495e5db125f9da6d10873bb0c07e90e72fccf6c7f636fe75",
      "v": 28,
      "creates": null,
      "raw": "0xf86c32850da35356ba82520894b5ce1861d98e85c84531dbc18720278328fd97f6883285c2eb61264478801ca0e1fc2485ab4914ab417ad275b892114a81c62d27ec8dc73f5274485ac3d8cdb6a0105519838e0d9346495e5db125f9da6d10873bb0c07e90e72fccf6c7f636fe75",
      "networkId": 0,
      "chainId": 0
    }
  ]
}