{
  "hash": "0xa7acc84f12d5dcdd8da4454b8ba51c87a3beab9148e75e1e99a87ab009b31eb6",
  "parentHash": "0x68f85160f79a9e695d2aa2cbc73975f66f7ce3f982aa779188d96ecc225f5140",
  "number": 90997,
  "timestamp": 1439648829,
  "nonce": "0x5f39afd2b7760d34",
  "difficulty": 3422295341343,
  "gasLimit": {
    "_hex": "0x2fefd8"
  },
  "gasUsed": {
    "_hex": "0x5208"
  },
  "miner": "0xbb7B8287f3F0a933474a79eAe42CBCa977791171",
  "extraData": "0x476574682f4c5649562f76312e302e312f6c696e75782f676f312e342e32",
  "transactions": [
    {
      "hash": "0x5544d7c5850df79b8ea2b6c7bdae139de253703a7c340a072f0206b40a24e5b8",
      "blockHash": "0xa7acc84f12d5dcdd8da4454b8ba51c87a3beab9148e75e1e99a87ab009b31eb6",
      "blockNumber": 90997,
      "transactionIndex": 0,
      "confirmations": null,
      "from": "0x2910543Af39abA0Cd09dBb2D50200b3E800A63D2",
      "gasPrice": {
        "_hex": "0xcba835240"
      },
      "gasLimit": {
        "_hex": "0x5208"
      },
      "to": "0xBc91527B31Fbbe397F91C2b9273Ea32b0d9a19a0",
      "value": {
        "_hex": "0x14a75e25e6e7f38000"
      },
      "nonce": 796,
      "data": "0x",
      "r": "0xbb31f69cc7d089e8634e6f5d5db4e42130c713c20bc1de81fdad272bfe580b58",
      "s": "0x1de0d041f19975a879b778a0c8a6b4b5bce1437a039ea92ecd905a66192196d6",
      "v": 27,
      "creates": null,
      "raw": "0xf86f82031c850cba83524082520894bc91527b31fbbe397f91c2b9273ea32b0d9a19a08914a75e25e6e7f38000801ba0bb31f69cc7d089e8634e6f5d5db4e42130c713c20bc1de81fdad272bfe580b58a01de0d041f19975a879b778a0c8a6b4b5bce1437a039ea92ecd905a66192196d6",
      "networkId": 0,
      "chainId": 0
    }
  ]
}