{
  "hash": "0xa23d9e17c505d6faf3e566c762f0225a4dc2662e59defff1caf85fe46717778c",
  "parentHash": "0x8e04d7c1b811143efa9ef18c74e225e57f86b1d6c559ffe323bf92f04f86ef26",
  "number": 105161,
  "timestamp": 1439882881,
  "nonce": "0xc69c9c07f96e24cf",
  "difficulty": 4302050485186,
  "gasLimit": {
    "_hex": "0x2fefd8"
  },
  "gasUsed": {
    "_hex": "0x5208"
  },
  "miner": "0x9746c7e1ef2bd21FF3997fa467593a89cb852BD0",
  "extraData": "0x476574682f76312e302e312f77696e646f77732f676f312e342e32",
  "transactions": [
    {
      "hash": "0xdf4024be2747fac9985504ea2c75c070cfb27586e399a58520d5418c7f0add86",
      "blockHash": "0xa23d9e17c505d6faf3e566c762f0225a4dc2662e59defff1caf85fe46717778c",
      "blockNumber": 105161,
      "transactionIndex": 0,
      "confirmations": null,
      "from": "0x007f7f58D3eb5b7510A301eCC749FC1fCDDBE14D",
      "gasPrice": {
        "_hex": "0xe0cfe7246"
      },
      "gasLimit": {
        "_hex": "0x15f90"
      },
      "to": "0xb1abce2918E21ddb93AA452731a12672A3d9F75a",
      "value": {
        "_hex": "0x4563918244f40000"
      },
      "nonce": 245,
      "data": "0x",
      "r": "0xb1b4d8555ed3dd8c612a04bf1b1d6ec5d4b7bd6fe0b2097b6bb08c3447ff54b8",
      "s": "0x62a4d9cefdb2c00139c07f3d111002d3c80cbae501fa7c01861e969398a208dd",
      "v": 27,
      "creates": null,
      "raw": "0xf86e81f5850e0cfe724683015f9094b1abce2918e21ddb93aa452731a12672a3d9f75a884563918244f40000801ba0b1b4d8555ed3dd8c612a04bf1b1d6ec5d4b7bd6fe0b2097b6bb08c3447ff54b8a062a4d9cefdb2c00139c07f3d111002d3c80cbae501fa7c01861e969398a208dd",
      "networkId": 0,
      "chainId": 0
    }
  ]
}