{
  "hash": "0x986fe032995c71b00a2c27bbd6cdcecbc396ba06393291ce847ecfe1791a74b6",
  "parentHash": "0x430172c1bbe79ffbd330dfde76eda4d259b4a7e40bb44104547bcd49937b02ab",
  "number": 87412,
  "timestamp": 1439591727,
  "nonce": "0x186d30a5e12fa4f8",
  "difficulty": 3124987373721,
  "gasLimit": {
    "_hex": "0x2fefd8"
  },
  "gasUsed": {
    "_hex": "0x5208"
  },
  "miner": "0xe6A7a1d47ff21B6321162AEA7C6CB457D5476Bca",
  "extraData": "0x476574682f76312e302e312d38326566323666362f6c696e75782f676f312e34",
  "transactions": [
    {
      "hash": "0xb8b0ad46dc64d1331dc3160a8230fcdef5ecad5d0e77c68b544a2caa6f29d7c0",
      "blockHash": "0x986fe032995c71b00a2c27bbd6cdcecbc396ba06393291ce847ecfe1791a74b6",
      "blockNumber": 87412,
      "transactionIndex": 0,
      "confirmations": null,
      "from": "0x077BC4363eBf116c408C421b293cB018d22779fc",
      "gasPrice": {
        "_hex": "0xba43b7400"
      },
      "gasLimit": {
        "_hex": "0x5208"
      },
      "to": "0xC47Aaa860008be6f65B58c6C6E02a84e666EfE31",
      "value": {
        "_hex": "0x56bc3a335360c6000"
      },
      "nonce": 5,
      "data": "0x",
      "r": "0xf0bafd31ce79ed10ded33b88f48ff62a4a7ea64170dc2eccbd7c321a551aedfc",
      "s": "0x7f5a812e32681a09d178f7b2a7168e7ea26879b3b4f564ea90e0c1f5f9d2cacc",
      "v": 28,
      "creates": null,
      "raw": "0xf86d05850ba43b740082520894c47aaa860008be6f65b58c6c6e02a84e666efe3189056bc3a335360c6000801ca0f0bafd31ce79ed10ded33b88f48ff62a4a7ea64170dc2eccbd7c321a551aedfca07f5a812e32681a09d178f7b2a7168e7ea26879b3b4f564ea90e0c1f5f9d2cacc",
      "networkId": 0,
      "chainId": 0
    }
  ]
}