{
  "hash": "0x794ec08ee2d14161b75c9b73e93ed271728d0436f42212b15d77ec90fd7f3d24",
  "parentHash": "0xa9228f2ca819bb0b515a80add662b5e17a5ac32efb6edaec7b2858205d6f1cfa",
  "number": 68429,
  "timestamp": 1439287758,
  "nonce": "0xcb34c50c96179857",
  "difficulty": 2011382032655,
  "gasLimit": {
    "_hex": "0x2fefd8"
  },
  "gasUsed": {
    "_hex": "0x668a0"
  },
  "miner": "0xf8E0CA3Ed80bd541b94BEdCf259e8CF2141A9523",
  "extraData": "0x476574682f76312e302e312f77696e646f77732f676f312e342e32",
  "transactions": [
    {
      "hash": "0x1f19b3536fd9c01a57de4d40e2f41860eb765976ababb6091e891b90d0a32bdb",
      "blockHash": "0x794ec08ee2d14161b75c9b73e93ed271728d0436f42212b15d77ec90fd7f3d24",
      "blockNumber": 68429,
      "transactionIndex": 0,
      "confirmations": null,
      "from": "0x57158f5B5B35cDDC7Ac8FAB8E10C136FF7de587e",
      "gasPrice": {
        "_hex": "0xd5c6ea981"
      },
      "gasLimit": {
        "_hex": "0x15f90"
      },
      "to": "0xD441bA6FFe06b0BD76330aC8F9c2946dA2dF88A2",
      "value": {
        "_hex": "0x6f05b59d3b20000"
      },
      "nonce": 4,
      "data": "0x",
      "r": "0xc8e04a3ef91a93583b5d8809e55c882cd9f4b637cafc6c2c76fbe27f037d5d11",
      "s": "0x125d82685197a111179ecd72d2760307f7f1e549b6f546a02b60c2974298311c",
      "v": 27,
      "creates": null,
      "raw": "0xf86d04850d5c6ea98183015f9094d441ba6ffe06b0bd76330ac8f9c2946da2df88a28806f05b59d3b20000801ba0c8e04a3ef91a93583b5d8809e55c882cd9f4b637cafc6c2c76fbe27f037d5d11a0125d82685197a111179ecd72d2760307f7f1e549b6f546a02b60c2974298311c",
      "networkId": 0,
      "chainId": 0
    },
    {
      "hash": "0x4f8ef6beea99311a36843114f0fbe028d0bea2d9305868ed69a0896e0720f357",
      "blockHash": "0x794ec08ee2d14161b75c9b73e93ed271728d0436f42212b15d77ec90fd7f3d24",
      "blockNumber": 68429,
      "transactionIndex": 1,
      "confirmations": null,
      "from": "0x57158f5B5B35cDDC7Ac8FAB8E10C136FF7de587e",
      "gasPrice": {
        "_hex": "0xd5c6ea981"
      },
      "gasLimit": {
        "_hex": "0x15f90"
      },
      "to": "0xD441bA6FFe06b0BD76330aC8F9c2946dA2dF88A2",
      "value": {
        "_hex": "0x6f05b59d3b20000"
      },
      "nonce": 5,
      "data": "0x",
      "r": "0x18d9cf9cb460a8b00b621e99e4e93b791e0e49bf2be103e913275a0101acfead",
      "s": "0x710bffc1acb0eecdad243babf238763f2b66d80cac36a12fc625d921faa32eba",
      "v": 27,
      "creates": null,
      "raw": "0xf86d05850d5c6ea98183015f9094d441ba6ffe06b0bd76330ac8f9c2946da2df88a28806f05b59d3b20000801ba018d9cf9cb460a8b00b621e99e4e93b791e0e49bf2be103e913275a0101acfeada0710bffc1acb0eecdad243babf238763f2b66d80cac36a12fc625d921faa32eba",
      "networkId": 0,
      "chainId": 0
    },
    {
      "hash": "0xe3d047ccf3c0c7025e7f4035f02bdcd9dff5b354ba2b637c1290c055f45f8999",
      "blockHash": "0x794ec08ee2d14161b75c9b73e93ed271728d0436f42212b15d77ec90fd7f3d24",
      "blockNumber": 68429,
      "transactionIndex": 2,
      "confirmations": null,
      "from": "0x57158f5B5B35cDDC7Ac8FAB8E10C136FF7de587e",
      "gasPrice": {
        "_hex": "0xd5c6ea981"
      },
      "gasLimit": {
        "_hex": "0x15f90"
      },
      "to": "0xD441bA6FFe06b0BD76330aC8F9c2946dA2dF88A2",
      "value": {
        "_hex": "0x6f05b59d3b20000"
      },
      "nonce": 6,
      "data": "0x",
      "r": "0x59daa51a69d6dd74a8cf70001d4f133813bffa1da079e087e495c58ee4c966ee",
      "s": "0x6ec9789c2f784735b86ddb757415405cb80ba6a791397d7a8904ea9c967b8cad",
      "v": 28,
      "creates": null,
      "raw": "0xf86d06850d5c6ea98183015f9094d441ba6ffe06b0bd76330ac8f9c2946da2df88a28806f05b59d3b20000801ca059daa51a69d6dd74a8cf70001d4f133813bffa1da079e087e495c58ee4c966eea06ec9789c2f784735b86ddb757415405cb80ba6a791397d7a8904ea9c967b8cad",
      "networkId": 0,
      "chainId": 0
    },
    {
      "hash": "0x96c6d04364ebf7af959878895e42d1f5d3084f0bfdafb3a258108f3be2800ab3",
      "blockHash": "0x794ec08ee2d14161b75c9b73e93ed271728d0436f42212b15d77ec90fd7f3d24",
      "blockNumber": 68429,
      "transactionIndex": 3,
      "confirmations": null,
      "from": "0x57158f5B5B35cDDC7Ac8FAB8E10C136FF7de587e",
      "gasPrice": {
        "_hex": "0xd5c6ea981"
      },
      "gasLimit": {
        "_hex": "0x15f90"
      },
      "to": "0xD441bA6FFe06b0BD76330aC8F9c2946dA2dF88A2",
      "value": {
        "_hex": "0x6f05b59d3b20000"
      },
      "nonce": 7,
      "data": "0x",
      "r": "0x14737871384d58b9c554508121831e6697d457235396435de1f1d6b208bc7568",
      "s": "0x03249c1d0b36809bf7dee0cda04319a817936bf005447f89d1bc4a22dac21409",
      "v": 28,
      "creates": null,
      "raw": "0xf86d07850d5c6ea98183015f9094d441ba6ffe06b0bd76330ac8f9c2946da2df88a28806f05b59d3b20000801ca014737871384d58b9c554508121831e6697d457235396435de1f1d6b208bc7568a003249c1d0b36809bf7dee0cda04319a817936bf005447f89d1bc4a22dac21409",
      "networkId": 0,
      "chainId": 0
    },
    {
      "hash": "0xfc3d6a2046fe2e327896abe2295f391cd8777cb05af63bba560b1465e3fd2153",
      "blockHash": "0x794ec08ee2d14161b75c9b73e93ed271728d0436f42212b15d77ec90fd7f3d24",
      "blockNumber": 68429,
      "transactionIndex": 4,
      "confirmations": null,
      "from": "0x81ff46a3fBf7A43925D8eFdeF321928eA188b062",
      "gasPrice": {
        "_hex": "0xba43b7400"
      },
      "gasLimit": {
        "_hex": "0x5208"
      },
      "to": "0x309a1f8b75d1A013506E85A7F387B8C8090EB4e1",
      "value": {
        "_hex": "0x937bda828f9000"
      },
      "nonce": 1,
      "data": "0x",
      "r": "0xf4268c2d20f6008b7f775262419cd51b24d73893534314d1499f3983d902109c",
      "s": "0x29d09d868230bcd8013039dd34fa751dbea819012645cff521efa054ce32423d",
      "v": 27,
      "creates": null,
      "raw": "0xf86b01850ba43b740082520894309a1f8b75d1a013506e85a7f387b8c8090eb4e187937bda828f9000801ba0f4268c2d20f6008b7f775262419cd51b24d73893534314d1499f3983d902109ca029d09d868230bcd8013039dd34fa751dbea819012645cff521efa054ce32423d",
      "networkId": 0,
      "chainId": 0
    },
    {
      "hash": "0x76358c72bddee06b1398c5a90be537989d7831695002083a07e703aca48de83f",
      "blockHash": "0x794ec08ee2d14161b75c9b73e93ed271728d0436f42212b15d77ec90fd7f3d24",
      "blockNumber": 68429,
      "transactionIndex": 5,
      "confirmations": null,
      "from": "0xC874869F27d57D5778D01BC8C1f611Cdee79e2F1",
      "gasPrice": {
        "_hex": "0xba43b7400"
      },
      "gasLimit": {
        "_hex": "0x5208"
      },
      "to": "0x7c090a2979c6667A3D2311d6c842c55C1988F418",
      "value": {
        "_hex": "0x937bda828f9000"
      },
      "nonce": 1,
      "data": "0x",
      "r": "0xc7af626fc06e9d1ee14d5568a5c430b7f56c704e3cbd71d54f80f5b7f5e779a3",
      "s": "0x0a89c6e1d6d075ed944299f5a7c9b6e1867158ccba754f28d10c979fc849351c",
      "v": 27,
      "creates": null,
      "raw": "0xf86b01850ba43b7400825208947c090a2979c6667a3d2311d6c842c55c1988f41887937bda828f9000801ba0c7af626fc06e9d1ee14d5568a5c430b7f56c704e3cbd71d54f80f5b7f5e779a3a00a89c6e1d6d075ed944299f5a7c9b6e1867158ccba754f28d10c979fc849351c",
      "networkId": 0,
      "chainId": 0
    },
    {
      "hash": "0x2941eb14f1462b67946e200fcd6ffa83796727c6bb7ebc1575ed3c5dab8c3d6e",
      "blockHash": "0x794ec08ee2d14161b75c9b73e93ed271728d0436f42212b15d77ec90fd7f3d24",
      "blockNumber": 68429,
      "transactionIndex": 6,
      "confirmations": null,
      "from": "0xCFE406Ca13A03ec72597142f9b88fF67Be104002",
      "gasPrice": {
        "_hex": "0xba43b7400"
      },
      "gasLimit": {
        "_hex": "0x5208"
      },
      "to": "0xe311b530D342689Afa07508D9F99ff50790de6aB",
      "value": {
        "_hex": "0x937bda828f9000"
      },
      "nonce": 1,
      "data": "0x",
      "r": "0xea00994c0f290a8ad83ce8853ac077f504d2aa57b4b36d598855f2e5fe994677",
      "s": "0x1fe4ec2b4823db1cc052535413c979aa732cbebf818f8ea709490e7eacfaa351",
      "v": 27,
      "creates": null,
      "raw": "0xf86b01850ba43b740082520894e311b530d342689afa07508d9f99ff50790de6ab87937bda828f9000801ba0ea00994c0f290a8ad83ce8853ac077f504d2aa57b4b36d598855f2e5fe994677a01fe4ec2b4823db1cc052535413c979aa732cbebf818f8ea709490e7eacfaa351",
      "networkId": 0,
      "chainId": 0
    },
    {
      "hash": "0x7f7d377686cebc34f827e18641c421d13eb694b9d532d16f4fea28e07ba26764",
      "blockHash": "0x794ec08ee2d14161b75c9b73e93ed271728d0436f42212b15d77ec90fd7f3d24",
      "blockNumber": 68429,
      "transactionIndex": 7,
      "confirmations": null,
      "from": "0x3888Bc2BcaDD5e97bE9e2dF1cE8D29165DBE8009",
      "gasPrice": {
        "_hex": "0xba43b7400"
      },
      "gasLimit": {
        "_hex": "0x5208"
      },
      "to": "0xe1AC1A8d0dF85DfB4eCD4499E1AFa2a8061D6d09",
      "value": {
        "_hex": "0x937bda828f9000"
      },
      "nonce": 1,
      "data": "0x",
      "r": "0x63b5cb1c8a9b9494d0c798c8599a978f5373d77bf857319783f056d9c2e7bf57",
      "s": "0x21ad48930337c7e69e1b2c853fc1ac2a185cba5149d550672ef7424cdff4a4dc",
      "v": 27,
      "creates": null,
      "raw": "0xf86b01850ba43b740082520894e1ac1a8d0df85dfb4ecd4499e1afa2a8061d6d0987937bda828f9000801ba063b5cb1c8a9b9494d0c798c8599a978f5373d77bf857319783f056d9c2e7bf57a021ad48930337c7e69e1b2c853fc1ac2a185cba5149d550672ef7424cdff4a4dc",
      "networkId": 0,
      "chainId": 0
    },
    {
      "hash": "0x4c39f20d2ecf6f5dd6ec923941de5acf0b6de02b46939016565d9507401aeabd",
      "blockHash": "0x794ec08ee2d14161b75c9b73e93ed271728d0436f42212b15d77ec90fd7f3d24",
      "blockNumber": 68429,
      "transactionIndex": 8,
      "confirmations": null,
      "from": "0x4293c2eC9C8D7D72A801CCe989352A21cBB6f043",
      "gasPrice": {
        "_hex": "0xba43b7400"
      },
      "gasLimit": {
        "_hex": "0x5208"
      },
      "to": "0x6c83B3f5c405E3De531aEc9541F146786a30AC6F",
      "value": {
        "_hex": "0x937bda828f9000"
      },
      "nonce": 1,
      "data": "0x",
      "r": "0xe3d2259fbc23470fcd6e9739bd135af928d2a66874df3a27f049cf089f3840ef",
      "s": "0x3b17b33f0603713356f9304f9e78eeb0e771ce99075f9c4948b3e895937853a6",
      "v": 27,
      "creates": null,
      "raw": "0xf86b01850ba43b7400825208946c83b3f5c405e3de531aec9541f146786a30ac6f87937bda828f9000801ba0e3d2259fbc23470fcd6e9739bd135af928d2a66874df3a27f049cf089f3840efa03b17b33f0603713356f9304f9e78eeb0e771ce99075f9c4948b3e895937853a6",
      "networkId": 0,
      "chainId": 0
    },
    {
      "hash": "0x0035b7cd7c8ffd3dcf84f0d0dfbf25b55f01ec17e370ad0fc1768f09ca3f7b24",
      "blockHash": "0x794ec08ee2d14161b75c9b73e93ed271728d0436f42212b15d77ec90fd7f3d24",
      "blockNumber": 68429,
      "transactionIndex": 9,
      "confirmations": null,
      "from": "0xdE5830cF419eC625acbFD8b61f0b14458340f552",
      "gasPrice": {
        "_hex": "0xba43b7400"
      },
      "gasLimit": {
        "_hex": "0x5208"
      },
      "to": "0x7301971fe63330De23ea059Ee5A6C8f7A5333Af7",
      "value": {
        "_hex": "0x937bda828f9000"
      },
      "nonce": 1,
      "data": "0x",
      "r": "0xe65db657ead271f2dc9f9c748e7da6f335caf2d59851063024cb5afc0fead1e7",
      "s": "0x62fdde0a00380c73824fc29e9efccd8a6fc4f7eb7e7783c6e3d5781ab9f56ec3",
      "v": 27,
      "creates": null,
      "raw": "0xf86b01850ba43b7400825208947301971fe63330de23ea059ee5a6c8f7a5333af787937bda828f9000801ba0e65db657ead271f2dc9f9c748e7da6f335caf2d59851063024cb5afc0fead1e7a062fdde0a00380c73824fc29e9efccd8a6fc4f7eb7e7783c6e3d5781ab9f56ec3",
      "networkId": 0,
      "chainId": 0
    },
    {
      "hash": "0x1864d5663657cbe484f6b7e9f57723edfe973d09bf106f915506d2fea94e5741",
      "blockHash": "0x794ec08ee2d14161b75c9b73e93ed271728d0436f42212b15d77ec90fd7f3d24",
      "blockNumber": 68429,
      "transactionIndex": 10,
      "confirmations": null,
      "from": "0xa2Bba04A2b1158D5D4DA0eD88a8F2A820B384D0B",
      "gasPrice": {
        "_hex": "0xba43b7400"
      },
      "gasLimit": {
        "_hex": "0x5208"
      },
      "to": "0x3C7C43b14DA4A055BE428987A690D3F2B338228c",
      "value": {
        "_hex": "0x937bda828f9000"
      },
      "nonce": 1,
      "data": "0x",
      "r": "0x2aa880732f43256385a5d2135b80ecbe151d3d54b9d8036e6186f3e91bdc2a32",
      "s": "0x1fe5358cdacdef00ff1ff2eabd894445236b434e4d7b0ea141a8391fe74ff9f2",
      "v": 28,
      "creates": null,
      "raw": "0xf86b01850ba43b7400825208943c7c43b14da4a055be428987a690d3f2b338228c87937bda828f9000801ca02aa880732f43256385a5d2135b80ecbe151d3d54b9d8036e6186f3e91bdc2a32a01fe5358cdacdef00ff1ff2eabd894445236b434e4d7b0ea141a8391fe74ff9f2",
      "networkId": 0,
      "chainId": 0
    },
    {
      "hash": "0xc8b58450e65486394a94f0abd5a33557e3c7cef79ef559a7b358d4ef3c5e3f73",
      "blockHash": "0x794ec08ee2d14161b75c9b73e93ed271728d0436f42212b15d77ec90fd7f3d24",
      "blockNumber": 68429,
      "transactionIndex": 11,
      "confirmations": null,
      "from": "0x77CCe943325B5EA45B27298d0aed77AcC2912c68",
      "gasPrice": {
        "_hex": "0xba43b7400"
      },
      "gasLimit": {
        "_hex": "0x5208"
      },
      "to": "0x82D7a28615b4B7629b36d67c18780d4C0AC9e13B",
      "value": {
        "_hex": "0x937bda828f9000"
      },
      "nonce": 1,
      "data": "0x",
      "r": "0xf5136a5c2d5efb9bcb2f0627a7a4e2fb3cedc996886727c652b625a456fd9aca",
      "s": "0x040c33cb28124f94cfe58b315ebb21f15103342a3a0567b56c8dcd2be7339f1e",
      "v": 28,
      "creates": null,
      "raw": "0xf86b01850ba43b74008252089482d7a28615b4b7629b36d67c18780d4c0ac9e13b87937bda828f9000801ca0f5136a5c2d5efb9bcb2f0627a7a4e2fb3cedc996886727c652b625a456fd9acaa0040c33cb28124f94cfe58b315ebb21f15103342a3a0567b56c8dcd2be7339f1e",
      "networkId": 0,
      "chainId": 0
    },
    {
      "hash": "0x3ab2050c3b7b55da81cceeec9446040e2a1b84e7f3a986e17ff8715128bbf3a2",
      "blockHash": "0x794ec08ee2d14161b75c9b73e93ed271728d0436f42212b15d77ec90fd7f3d24",
      "blockNumber": 68429,
      "transactionIndex": 12,
      "confirmations": null,
      "from": "0xaa8FeB2D5DA363bBD6bc4816099721793DB91691",
      "gasPrice": {
        "_hex": "0xba43b7400"
      },
      "gasLimit": {
        "_hex": "0x5208"
      },
      "to": "0xe3320c8Aa51E372F04AAcbe28576C25583A8BAAA",
      "value": {
        "_hex": "0x937bda828f9000"
      },
      "nonce": 1,
      "data": "0x",
      "r": "0x439c15c89d12b0a91c5c66c3ee6974fdd36b4435a8207541d561520a840532f4",
      "s": "0x51c329827649c552fe012e06bc93f7df7ae0dea8689b8f2810ef85e214847f27",
      "v": 28,
      "creates": null,
      "raw": "0xf86b01850ba43b740082520894e3320c8aa51e372f04aacbe28576c25583a8baaa87937bda828f9000801ca0439c15c89d12b0a91c5c66c3ee6974fdd36b4435a8207541d561520a840532f4a051c329827649c552fe012e06bc93f7df7ae0dea8689b8f2810ef85e214847f27",
      "networkId": 0,
      "chainId": 0
    },
    {
      "hash": "0x7cc16196a523630e0e78bbc03a9e7e789c0d39d4801fde0fdda01eb7d5049628",
      "blockHash": "0x794ec08ee2d14161b75c9b73e93ed271728d0436f42212b15d77ec90fd7f3d24",
      "blockNumber": 68429,
      "transactionIndex": 13,
      "confirmations": null,
      "from": "0xb6B9FE3912Bb3394303C62d4dAC10cE1783c6b46",
      "gasPrice": {
        "_hex": "0xba43b7400"
      },
      "gasLimit": {
        "_hex": "0x5208"
      },
      "to": "0xc40036EDe2d971ca7A1f4812Eada96B06c8513bC",
      "value": {
        "_hex": "0x937bda828f9000"
      },
      "nonce": 1,
      "data": "0x",
      "r": "0xbd284d9afab1d17ccb3eec5949a5365004a14dbccb6df402a10e3714d55db937",
      "s": "0x4ac12bd83b3c8950bb4b24a251cb3bb4e0b90e12654e768bffaeaf75a816567f",
      "v": 27,
      "creates": null,
      "raw": "0xf86b01850ba43b740082520894c40036ede2d971ca7a1f4812eada96b06c8513bc87937bda828f9000801ba0bd284d9afab1d17ccb3eec5949a5365004a14dbccb6df402a10e3714d55db937a04ac12bd83b3c8950bb4b24a251cb3bb4e0b90e12654e768bffaeaf75a816567f",
      "networkId": 0,
      "chainId": 0
    },
    {
      "hash": "0x2d0afd10c09a02805a972044fbd9110b8e8211ee44957f99225c709f4cae3ff5",
      "blockHash": "0x794ec08ee2d14161b75c9b73e93ed271728d0436f42212b15d77ec90fd7f3d24",
      "blockNumber": 68429,
      "transactionIndex": 14,
      "confirmations": null,
      "from": "0xa3D5AB3C7a52FA0FF71f0889eb8dAdAfF09D7022",
      "gasPrice": {
        "_hex": "0xba43b7400"
      },
      "gasLimit": {
        "_hex": "0x5208"
      },
      "to": "0x124717c55B2982693C7785B5eaa7aCD2880C5D48",
      "value": {
        "_hex": "0x937bda828f9000"
      },
      "nonce": 1,
      "data": "0x",
      "r": "0xffedff577ea369156d1fadb6cae082b9e654ea659fe9dd6bcc9c2e9a5c064d84",
      "s": "0x55814e5821ed2afc5a9bd4613700d1016c48e0afc93a380f751695229a7beebe",
      "v": 27,
      "creates": null,
      "raw": "0xf86b01850ba43b740082520894124717c55b2982693c7785b5eaa7acd2880c5d4887937bda828f9000801ba0ffedff577ea369156d1fadb6cae082b9e654ea659fe9dd6bcc9c2e9a5c064d84a055814e5821ed2afc5a9bd4613700d1016c48e0afc93a380f751695229a7beebe",
      "networkId": 0,
      "chainId": 0
    },
    {
      "hash": "0xa48b0aa5bf1267253bfdfd6a4bdb0bdfcd6df76721cc08fcf439bf7ed227b6a4",
      "blockHash": "0x794ec08ee2d14161b75c9b73e93ed271728d0436f42212b15d77ec90fd7f3d24",
      "blockNumber": 68429,
      "transactionIndex": 15,
      "confirmations": null,
      "from": "0x192101Cb8cF340851BeF8C5515A653B36724402f",
      "gasPrice": {
        "_hex": "0xba43b7400"
      },
      "gasLimit": {
        "_hex": "0x5208"
      },
      "to": "0x3EC4de4CA67934B7A899dfC70D2B8B7D55222254",
      "value": {
        "_hex": "0x937bda828f9000"
      },
      "nonce": 1,
      "data": "0x",
      "r": "0xf72bf9256b7eed5c2012af0b9c571a656e8fda41acdaae92eadc3215494d73b0",
      "s": "0x7aef1cd641c579d1680db26b3c4a13e3cc258c5c94f97fe9b0f19be33b2bf6a2",
      "v": 27,
      "creates": null,
      "raw": "0xf86b01850ba43b7400825208943ec4de4ca67934b7a899dfc70d2b8b7d5522225487937bda828f9000801ba0f72bf9256b7eed5c2012af0b9c571a656e8fda41acdaae92eadc3215494d73b0a07aef1cd641c579d1680db26b3c4a13e3cc258c5c94f97fe9b0f19be33b2bf6a2",
      "networkId": 0,
      "chainId": 0
    },
    {
      "hash": "0x8464b108240393f10616373dc0b354c76d26df83555ce9cbc642d3178a8f9129",
      "blockHash": "0x794ec08ee2d14161b75c9b73e93ed271728d0436f42212b15d77ec90fd7f3d24",
      "blockNumber": 68429,
      "transactionIndex": 16,
      "confirmations": null,
      "from": "0xa2E686Bb22369dE4080dfb0f94137Dda95beB478",
      "gasPrice": {
        "_hex": "0xba43b7400"
      },
      "gasLimit": {
        "_hex": "0x5208"
      },
      "to": "0x6f1883a6DDB87e3931Bbe8b61eDe06246C44364D",
      "value": {
        "_hex": "0x937bda828f9000"
      },
      "nonce": 1,
      "data": "0x",
      "r": "0x049837fee6638240868dfe901277efdcf8cf7d89d4fa931cbfe73074895ed202",
      "s": "0x618bcc79b4dfb71a2253030c0bffb47b97cf6f43d114185f4d472b38d3adf72c",
      "v": 28,
      "creates": null,
      "raw": "0xf86b01850ba43b7400825208946f1883a6ddb87e3931bbe8b61ede06246c44364d87937bda828f9000801ca0049837fee6638240868dfe901277efdcf8cf7d89d4fa931cbfe73074895ed202a0618bcc79b4dfb71a2253030c0bffb47b97cf6f43d114185f4d472b38d3adf72c",
      "networkId": 0,
      "chainId": 0
    },
    {
      "hash": "0x9ccc4d91051b15c2f4103895a1981f7c8bc15b054b421d67336b20aa0d1ef35b",
      "blockHash": "0x794ec08ee2d14161b75c9b73e93ed271728d0436f42212b15d77ec90fd7f3d24",
      "blockNumber": 68429,
      "transactionIndex": 17,
      "confirmations": null,
      "from": "0x280285081C00e1f126584af383ad47A130a2623B",
      "gasPrice": {
        "_hex": "0xba43b7400"
      },
      "gasLimit": {
        "_hex": "0x5208"
      },
      "to": "0xc9cEbC914336FE4798d9cB8C735A808A21f9f613",
      "value": {
        "_hex": "0x937bda828f9000"
      },
      "nonce": 1,
      "data": "0x",
      "r": "0xe1ade2043d2c29be6a04574aaf7053fe52b037b7aaefb37f27d08bafe525116c",
      "s": "0x41f9c7fe98e48da5892300eabd865ac210b253153cdb6daea8f6e7a109b7f32c",
      "v": 28,
      "creates": null,
      "raw": "0xf86b01850ba43b740082520894c9cebc914336fe4798d9cb8c735a808a21f9f61387937bda828f9000801ca0e1ade2043d2c29be6a04574aaf7053fe52b037b7aaefb37f27d08bafe525116ca041f9c7fe98e48da5892300eabd865ac210b253153cdb6daea8f6e7a109b7f32c",
      "networkId": 0,
      "chainId": 0
    },
    {
      "hash": "0xaae24297e7c52ef32951267dc15a4e6753d3fb7ee0855acc118c4a0fbef06837",
      "blockHash": "0x794ec08ee2d14161b75c9b73e93ed271728d0436f42212b15d77ec90fd7f3d24",
      "blockNumber": 68429,
      "transactionIndex": 18,
      "confirmations": null,
      "from": "0x6bCefc4d2a4ca1d700879654feC3C1d591C13a98",
      "gasPrice": {
        "_hex": "0xba43b7400"
      },
      "gasLimit": {
        "_hex": "0x5208"
      },
      "to": "0xa82BBbD8753802A71617ab947229F8681E05deA0",
      "value": {
        "_hex": "0x937bda828f9000"
      },
      "nonce": 1,
      "data": "0x",
      "r": "0x3d5756dea9fa80e96b5d883d5c3e6ac33fa067c58af37742bca7eff923d88af4",
      "s": "0x372b79780db1bd8a984b41bbc7c86f6f287682265abefdb9bc649a9cd1728e95",
      "v": 28,
      "creates": null,
      "raw": "0xf86b01850ba43b740082520894a82bbbd8753802a71617ab947229f8681e05dea087937bda828f9000801ca03d5756dea9fa80e96b5d883d5c3e6ac33fa067c58af37742bca7eff923d88af4a0372b79780db1bd8a984b41bbc7c86f6f287682265abefdb9bc649a9cd1728e95",
      "networkId": 0,
      "chainId": 0
    },
    {
      "hash": "0xd42bd0ca80c9fb9c746aa2b84cf3284b90a0a3515b16012ccdf7feac72137981",
      "blockHash": "0x794ec08ee2d14161b75c9b73e93ed271728d0436f42212b15d77ec90fd7f3d24",
      "blockNumber": 68429,
      "transactionIndex": 19,
      "confirmations": null,
      "from": "0xdE725c8Bc4Aa12FcCE9C4d7488274BA27913975c",
      "gasPrice": {
        "_hex": "0xba43b7400"
      },
      "gasLimit": {
        "_hex": "0x5208"
      },
      "to": "0x124569ce1C9af3F3304e696D45dEA95dc5AC3663",
      "value": {
        "_hex": "0x937bda828f9000"
      },
      "nonce": 1,
      "data": "0x",
      "r": "0x8e93eca436f8a0d602a9667e855127c77210f0914f64c5bfb46d245d7e08a005",
      "s": "0x25a2aaedad30ab7bba7773ea7c5c1d8cf15855d6ad24840f188d032e4df49acc",
      "v": 27,
      "creates": null,
      "raw": "0xf86b01850ba43b740082520894124569ce1c9af3f3304e696d45dea95dc5ac366387937bda828f9000801ba08e93eca436f8a0d602a9667e855127c77210f0914f64c5bfb46d245d7e08a005a025a2aaedad30ab7bba7773ea7c5c1d8cf15855d6ad24840f188d032e4df49acc",
      "networkId": 0,
      "chainId": 0
    }
  ]
}