{
  "hash": "0xf7ea81b91600c936f12f7668cdbaf90b1fc17d86969fbde6d401fa42bb5b7175",
  "parentHash": "0xccc35e70fc5026944f073f8d7f3b42466da974c9032fc9e85e37aa207e42424e",
  "number": 65137,
  "timestamp": 1439231942,
  "nonce": "0x6ad39e9cf7d4516a",
  "difficulty": 1931310664117,
  "gasLimit": {
    "_hex": "0x2fefd8"
  },
  "gasUsed": {
    "_hex": "0xa410"
  },
  "miner": "0x06D138312754bDEB5c1175f47cE00620c480E9C9",
  "extraData": "0x476574682f76312e302e312f6c696e75782f676f312e342e32",
  "transactions": [
    {
      "hash": "0x68179a0d929a28e24eec69a7115047f963eae9d6a5a6401065a1979f17a7aba4",
      "blockHash": "0xf7ea81b91600c936f12f7668cdbaf90b1fc17d86969fbde6d401fa42bb5b7175",
      "blockNumber": 65137,
      "transactionIndex": 0,
      "confirmations": null,
      "from": "0xa07fb9E0d471c1e5c322BA6f68fD5821cf77839a",
      "gasPrice": {
        "_hex": "0xba43b7400"
      },
      "gasLimit": {
        "_hex": "0x5208"
      },
      "to": "0x63ca7D886042Dbc788B5553012985aB6fd568803",
      "value": {
        "_hex": "0x5185a9d00c57000"
      },
      "nonce": 1,
      "data": "0x",
      "r": "0x1b4442c78c02f858b88cd41a9368c904939e7ad95d067c24c53ad51c8230f986",
      "s": "0x40119e6f73829224190d2181cce7ad4d7100869b1be8d5b8c7e0d0512c139976",
      "v": 28,
      "creates": null,
      "raw": "0xf86c01850ba43b74008252089463ca7d886042dbc788b5553012985ab6fd5688038805185a9d00c57000801ca01b4442c78c02f858b88cd41a9368c904939e7ad95d067c24c53ad51c8230f986a040119e6f73829224190d2181cce7ad4d7100869b1be8d5b8c7e0d0512c139976",
      "networkId": 0,
      "chainId": 0
    },
    {
      "hash": "0xed73307654e13656cc385041883d9ed8b939f1617034b0826ec0e92fde510164",
      "blockHash": "0xf7ea81b91600c936f12f7668cdbaf90b1fc17d86969fbde6d401fa42bb5b7175",
      "blockNumber": 65137,
      "transactionIndex": 1,
      "confirmations": null,
      "from": "0xE53Ae7B2Da2F2c4a341EC49256273363B1ca8694",
      "gasPrice": {
        "_hex": "0xba43b7400"
      },
      "gasLimit": {
        "_hex": "0x5208"
      },
      "to": "0xc013C81d352026dBd441fFe027005d019DC6BCdd",
      "value": {
        "_hex": "0x574e75067073000"
      },
      "nonce": 1,
      "data": "0x",
      "r": "0xf54fdfc66a3335514a511775d7911492cc0f2de6e0e0dbb292680247ae9f1ae6",
      "s": "0x76f3085e27104f5008422618fc0b633109488560ee7f8793f90051373918c44b",
      "v": 28,
      "creates": null,
      "raw": "0xf86c01850ba43b740082520894c013c81d352026dbd441ffe027005d019dc6bcdd880574e75067073000801ca0f54fdfc66a3335514a511775d7911492cc0f2de6e0e0dbb292680247ae9f1ae6a076f3085e27104f5008422618fc0b633109488560ee7f8793f90051373918c44b",
      "networkId": 0,
      "chainId": 0
    }
  ]
}