{
  "hash": "0x5bb9ac26bc8aa050c039769d1d958d27a0dcc09a182b5bf5e5194ebda49e575b",
  "parentHash": "0xfae0cb81ea383aa238e87fcf09abef7d2fb17ad31987208905d11b5409380cc5",
  "number": 68847,
  "timestamp": 1439294647,
  "nonce": "0x0e55828991d0b9f4",
  "difficulty": 2017182876574,
  "gasLimit": {
    "_hex": "0x2fefd8"
  },
  "gasUsed": {
    "_hex": "0x5208"
  },
  "miner": "0xe6A7a1d47ff21B6321162AEA7C6CB457D5476Bca",
  "extraData": "0x476574682f76312e302e312d38326566323666362f6c696e75782f676f312e34",
  "transactions": [
    {
      "hash": "0x1efa8a5eaa4af0e0ca4590ea160a463dcf2ac077bc21ac14aa5ad8d8ab6a1c95",
      "blockHash": "0x5bb9ac26bc8aa050c039769d1d958d27a0dcc09a182b5bf5e5194ebda49e575b",
      "blockNumber": 68847,
      "transactionIndex": 0,
      "confirmations": null,
      "from": "0x8B454d830feF179e66206840F8F3D1d83bC32b17",
      "gasPrice": {
        "_hex": "0xd490314cb"
      },
      "gasLimit": {
        "_hex": "0x15f90"
      },
      "to": "0x1543667B9bad3e41865C3233E1764d8dda8E1F3D",
      "value": {
        "_hex": "0xa688906bd8b000000"
      },
      "nonce": 9,
      "data": "0x",
      "r": "0x3430c1f08a32f6d5ac740a77f790b3be337c2378bedbe7304452e5f5df67e26f",
      "s": "0x68804e2e0ad3bd1ad15dc3873e429a1698edbf3786a4ea92253e20c3507102ce",
      "v": 28,
      "creates": null,
      "raw": "0xf86e09850d490314cb83015f90941543667b9bad3e41865c3233e1764d8dda8e1f3d890a688906bd8b000000801ca03430c1f08a32f6d5ac740a77f790b3be337c2378bedbe7304452e5f5df67e26fa068804e2e0ad3bd1ad15dc3873e429a1698edbf3786a4ea92253e20c3507102ce",
      "networkId": 0,
      "chainId": 0
    }
  ]
}