{
  "hash": "0x3431b67ae2b40988079169db33a24922a37725b1f914d13146c160184c1baa5d",
  "parentHash": "0x43bee822d738b5cf910d243228c55fca070c2cba27f37f06ba0bdd0a42d129f7",
  "number": 96272,
  "timestamp": 1439737691,
  "nonce": "0x506bdcb272f96825",
  "difficulty": 3678248034794,
  "gasLimit": {
    "_hex": "0x2fefd5"
  },
  "gasUsed": {
    "_hex": "0x5208"
  },
  "miner": "0x790b8a3cE86E707ED0eD32bF89B3269692a23CC1",
  "extraData": "0xd783010001844765746887676f312e342e32856c696e7578",
  "transactions": [
    {
      "hash": "0x0745ba7e2c5ab77c190ee4c72143ecaa89bce828eb33e0de3f6c4db15d5a93d0",
      "blockHash": "0x3431b67ae2b40988079169db33a24922a37725b1f914d13146c160184c1baa5d",
      "blockNumber": 96272,
      "transactionIndex": 0,
      "confirmations": null,
      "from": "0xbB10DF431Fd3ffD79CdAdc58EBFD371D7491941B",
      "gasPrice": {
        "_hex": "0xd866c3115"
      },
      "gasLimit": {
        "_hex": "0x5208"
      },
      "to": "0x32Be343B94f860124dC4fEe278FDCBD38C102D88",
      "value": {
        "_hex": "0xddc556768f0a000"
      },
      "nonce": 0,
      "data": "0x",
      "r": "0x5c53cdbc3aeaa67a94e88de70fc5b28cb5cc6faa821a258b16cb298e045b2412",
      "s": "0x327dd2f5c53c451bb489a04df254252771bfac0fa8aa56bebdb5fb05cd44a8d4",
      "v": 28,
      "creates": null,
      "raw": "0xf86c80850d866c31158252089432be343b94f860124dc4fee278fdcbd38c102d88880ddc556768f0a000801ca05c53cdbc3aeaa67a94e88de70fc5b28cb5cc6faa821a258b16cb298e045b2412a0327dd2f5c53c451bb489a04df254252771bfac0fa8aa56bebdb5fb05cd44a8d4",
      "networkId": 0,
      "chainId": 0
    }
  ]
}