{
  "hash": "0x886bce561e239ff7db2ba86858d2b3ea34ef9dd82eb83f9f1274c11d57c8db72",
  "parentHash": "0xaf6b0d81f7c529b32a5ffe2f397b56145efde5e2341e1d7c4faba703538d1efb",
  "number": 64784,
  "timestamp": 1439226199,
  "nonce": "0x381223227c3a2722",
  "difficulty": 1894960480388,
  "gasLimit": {
    "_hex": "0x2fefd8"
  },
  "gasUsed": {
    "_hex": "0x17cd8"
  },
  "miner": "0xA1623430350C5df1b52B0b57483A5bb45d1796Da",
  "extraData": "0x476574682f76312e302e312d38326566323666362f6c696e75782f676f312e34",
  "transactions": [
    {
      "hash": "0x0e643c67a3f22fa4427058dc46109851cf067b49633f7c5711cd2a4e9bc96f81",
      "blockHash": "0x886bce561e239ff7db2ba86858d2b3ea34ef9dd82eb83f9f1274c11d57c8db72",
      "blockNumber": 64784,
      "transactionIndex": 0,
      "confirmations": null,
      "from": "0x605502D11bEff3679B2287C3678daDC02B3a9aE2",
      "gasPrice": {
        "_hex": "0xba43b7400"
      },
      "gasLimit": {
        "_hex": "0x15f90"
      },
      "to": "0x793AE8C1b1a160BFc07BFB0d04F85eab1A71F4f2",
      "value": {
        "_hex": "0x0"
      },
      "nonce": 0,
      "data": "0x3ba15036",
      "r": "0x69d2797c4c702b3fe9708a8c7e31249d1baf317bf54a3458573efefcde0a562b",
      "s": "0x1395486b377bd569340803eb1a694057e487b5a247436d7681e0f7c5303e5ae1",
      "v": 28,
      "creates": null,
      "raw": "0xf86980850ba43b740083015f9094793ae8c1b1a160bfc07bfb0d04f85eab1a71f4f280843ba150361ca069d2797c4c702b3fe9708a8c7e31249d1baf317bf54a3458573efefcde0a562ba01395486b377bd569340803eb1a694057e487b5a247436d7681e0f7c5303e5ae1",
      "networkId": 0,
      "chainId": 0
    },
    {
      "hash": "0xe978ff7711012bfb3fc434d4920f88e7831db854f5ce604999f92070123f86dd",
      "blockHash": "0x886bce561e239ff7db2ba86858d2b3ea34ef9dd82eb83f9f1274c11d57c8db72",
      "blockNumber": 64784,
      "transactionIndex": 1,
      "confirmations": null,
      "from": "0x6F50D31A32b78d330e5F84519d041F9376F6765D",
      "gasPrice": {
        "_hex": "0xba43b7400"
      },
      "gasLimit": {
        "_hex": "0x15f90"
      },
      "to": "0x793AE8C1b1a160BFc07BFB0d04F85eab1A71F4f2",
      "value": {
        "_hex": "0x0"
      },
      "nonce": 0,
      "data": "0x3ba15036",
      "r": "0xa3d1c2666811de82d8a0620d84d830a22983ea611973cd59de7b888ba9aa13ed",
      "s": "0x4ef52e4ac894bfc999aed8c69cf8e8e1ed1b4a65ca2ce8dabe06342b3167a6cd",
      "v": 28,
      "creates": null,
      "raw": "0xf86980850ba43b740083015f9094793ae8c1b1a160bfc07bfb0d04f85eab1a71f4f280843ba150361ca0a3d1c2666811de82d8a0620d84d830a22983ea611973cd59de7b888ba9aa13eda04ef52e4ac894bfc999aed8c69cf8e8e1ed1b4a65ca2ce8dabe06342b3167a6cd",
      "networkId": 0,
      "chainId": 0
    }
  ]
}