{
  "hash": "0xdb1eeb7892c0501738121974bab012217f2ea23946d2dd8bd651b9647b8bc322",
  "parentHash": "0xa31605aacefdb6b54d8f66c01228a721f4d2fd27e8f121bbcc5718a75795c06a",
  "number": 94294,
  "timestamp": 1439705863,
  "nonce": "0xdac3ecda4e90ffc3",
  "difficulty": 3479916469276,
  "gasLimit": {
    "_hex": "0x2fefd8"
  },
  "gasUsed": {
    "_hex": "0x5208"
  },
  "miner": "0xe6A7a1d47ff21B6321162AEA7C6CB457D5476Bca",
  "extraData": "0x476574682f76312e302e312d38326566323666362f6c696e75782f676f312e34",
  "transactions": [
    {
      "hash": "0x8d17394383ec8d3fca7310245348e0829322683a283801888d7ca4d01e174ff3",
      "blockHash": "0xdb1eeb7892c0501738121974bab012217f2ea23946d2dd8bd651b9647b8bc322",
      "blockNumber": 94294,
      "transactionIndex": 0,
      "confirmations": null,
      "from": "0x2c640E5e3DE20DECa76ee10c5Fd6ECd074EFb3e8",
      "gasPrice": {
        "_hex": "0xd123a2f95"
      },
      "gasLimit": {
        "_hex": "0x7530"
      },
      "to": "0x25eBf917822b09e0DC9ECaFF159b0832f080bEB8",
      "value": {
        "_hex": "0xde0b6b3a7640000"
      },
      "nonce": 0,
      "data": "0x",
      "r": "0xc046ec588a3b125e4d3923c6c31a6e5e03f4901b84d1c211f4744a621fd8e1fd",
      "s": "0x64c5685fa0597ddad686b966491815dc140cd1a2f5cd0760ed1dd5200e625e01",
      "v": 28,
      "creates": null,
      "raw": "0xf86c80850d123a2f958275309425ebf917822b09e0dc9ecaff159b0832f080beb8880de0b6b3a7640000801ca0c046ec588a3b125e4d3923c6c31a6e5e03f4901b84d1c211f4744a621fd8e1fda064c5685fa0597ddad686b966491815dc140cd1a2f5cd0760ed1dd5200e625e01",
      "networkId": 0,
      "chainId": 0
    }
  ]
}