{
  "hash": "0xa3744978fbf8b3e1eb6509e14fba9459ffbe3605a3d69045e1930f2709b705d6",
  "parentHash": "0x4cdb06a065695542a83a365ce7d84e0a79582c183e299a2a5994fcb2fccc08ee",
  "number": 71914,
  "timestamp": 1439343910,
  "nonce": "0xdf50e69aed9d5a8b",
  "difficulty": 2170737088762,
  "gasLimit": {
    "_hex": "0x2fefd5"
  },
  "gasUsed": {
    "_hex": "0xaec1"
  },
  "miner": "0x123843545FB525C8E134c9A5F15ADA6865cc3848",
  "extraData": "0x476574682f76312e302e312f77696e646f77732f676f312e342e32",
  "transactions": [
    {
      "hash": "0xbfb12f6303c7cd0f42ed14d58f4ccf8b6704c541917c3eec9902ad5ecf0ee8f6",
      "blockHash": "0xa3744978fbf8b3e1eb6509e14fba9459ffbe3605a3d69045e1930f2709b705d6",
      "blockNumber": 71914,
      "transactionIndex": 0,
      "confirmations": null,
      "from": "0x17580B766f7453525ca4C6A88b01b50570EA088C",
      "gasPrice": {
        "_hex": "0xcd93f0dcb"
      },
      "gasLimit": {
        "_hex": "0x61a80"
      },
      "to": "0x5Fe5B7546D1628f7348B023A0393de1FC825A4fD",
      "value": {
        "_hex": "0x29a2241af62c0000"
      },
      "nonce": 294,
      "data": "0xb595b8b50000000000000000000000000000000000000000000000000000000000000001",
      "r": "0xba05db050f13f91910ef9a8923b6c54cf24969adc4c5060de4091c7c6ebb9066",
      "s": "0x0c65d7d7da948e196714e8cd2f9f95107e0d83ced9a9b048d833af4d57baef7b",
      "v": 27,
      "creates": null,
      "raw": "0xf893820126850cd93f0dcb83061a80945fe5b7546d1628f7348b023a0393de1fc825a4fd8829a2241af62c0000a4b595b8b500000000000000000000000000000000000000000000000000000000000000011ba0ba05db050f13f91910ef9a8923b6c54cf24969adc4c5060de4091c7c6ebb9066a00c65d7d7da948e196714e8cd2f9f95107e0d83ced9a9b048d833af4d57baef7b",
      "networkId": 0,
      "chainId": 0
    }
  ]
}