{
  "hash": "0x6cc737fca2da03bb89557857c7558f8ad470587b99e01689efdf0df0a040b080",
  "parentHash": "0x9b430b5151969097fd7e5c29726a3afe680ab56f0f14a49a8f045b66392add15",
  "number": 46401,
  "timestamp": 1438922533,
  "nonce": "0x091888036aedafac",
  "difficulty": 1466807993238,
  "gasLimit": {
    "_hex": "0x5f3e"
  },
  "gasUsed": {
    "_hex": "0x5208"
  },
  "miner": "0x88D74a59454F6cF3B51ef6b9136AFb6b9D405A88",
  "extraData": "0x476574682f76312e302e302d66633739643332642f6c696e75782f676f312e34",
  "transactions": [
    {
      "hash": "0x78e67bdd9e0bf6ce3cc6025e2ed9ee6d55828baae8d0c78dde0c1dd9fed0e33d",
      "blockHash": "0x6cc737fca2da03bb89557857c7558f8ad470587b99e01689efdf0df0a040b080",
      "blockNumber": 46401,
      "transactionIndex": 0,
      "confirmations": null,
      "from": "0xAF880FC7567D5595cACCe15c3FC14C8742C26C9e",
      "gasPrice": {
        "_hex": "0x746a528800"
      },
      "gasLimit": {
        "_hex": "0x5208"
      },
      "to": "0x543807d0aF2c58b49d7F25659D0472d4d8B8e8DA",
      "value": {
        "_hex": "0x1158e460913d00000"
      },
      "nonce": 3,
      "data": "0x",
      "r": "0xeec71a721e7b04e4bd52848519b3deb5d2a13038368667b5695e95db1636c4c7",
      "s": "0x5b440aae58e2c48083e830bb8d0c7408236a8f8acfd90e85fad66ecc3e267e96",
      "v": 28,
      "creates": null,
      "raw": "0xf86d0385746a52880082520894543807d0af2c58b49d7f25659d0472d4d8b8e8da8901158e460913d00000801ca0eec71a721e7b04e4bd52848519b3deb5d2a13038368667b5695e95db1636c4c7a05b440aae58e2c48083e830bb8d0c7408236a8f8acfd90e85fad66ecc3e267e96",
      "networkId": 0,
      "chainId": 0
    }
  ]
}