{
  "hash": "0xa4d2ddb4016687bbb9992c7415db9841cbe3a32a6c0bbf6170bfaebada19347c",
  "parentHash": "0x49f98b98089610d6d6d2f94462eaba30aedf92efbfbebcc98100fe69225b8c7a",
  "number": 84740,
  "timestamp": 1439553963,
  "nonce": "0x28b75c81f2543829",
  "difficulty": 2614408347004,
  "gasLimit": {
    "_hex": "0x2fefd8"
  },
  "gasUsed": {
    "_hex": "0x546c"
  },
  "miner": "0x47ff6576639c2e94762eA5443978D7681C0E78DC",
  "extraData": "0x476574682f76312e302e312f6c696e75782f676f312e342e32",
  "transactions": [
    {
      "hash": "0x63dd81e73464564b182f45a5c637924cfdcc5d6c587917263d850e9ea405516c",
      "blockHash": "0xa4d2ddb4016687bbb9992c7415db9841cbe3a32a6c0bbf6170bfaebada19347c",
      "blockNumber": 84740,
      "transactionIndex": 0,
      "confirmations": null,
      "from": "0xe8ED51BBb3Ace69e06024b33f86844C47348db9e",
      "gasPrice": {
        "_hex": "0x110c8f7d8de"
      },
      "gasLimit": {
        "_hex": "0xc350"
      },
      "to": "0x2910543Af39abA0Cd09dBb2D50200b3E800A63D2",
      "value": {
        "_hex": "0x22f9e23653d5a5880000"
      },
      "nonce": 0,
      "data": "0x454e46324434423538",
      "r": "0xe6263fe9fbe345bd8cab8f16b8d90c5ac028486084a10b1cd0af52fd2e04f75e",
      "s": "0x38f6e8ee26b6abafa62942a9a46ed7d422e85957665a996be20c83756d34915f",
      "v": 28,
      "creates": null,
      "raw": "0xf87880860110c8f7d8de82c350942910543af39aba0cd09dbb2d50200b3e800a63d28a22f9e23653d5a588000089454e463244344235381ca0e6263fe9fbe345bd8cab8f16b8d90c5ac028486084a10b1cd0af52fd2e04f75ea038f6e8ee26b6abafa62942a9a46ed7d422e85957665a996be20c83756d34915f",
      "networkId": 0,
      "chainId": 0
    }
  ]
}