{
  "hash": "0x67a09518cf795fb2bf04c89da5c4b9da7028f4de30f0a31ab013c4672038c08f",
  "parentHash": "0x3087ba2a858f46a57b09276791d3e47841fc20fea418d0d060577d0de0f3a2ff",
  "number": 60221,
  "timestamp": 1439151553,
  "nonce": "0xadaee6d2ad1fa3ac",
  "difficulty": 1740709363302,
  "gasLimit": {
    "_hex": "0x2fefd8"
  },
  "gasUsed": {
    "_hex": "0x5208"
  },
  "miner": "0xA21Ba94e45f0E168dA824fC67aC9cb5Cb577a8aF",
  "extraData": "0x",
  "transactions": [
    {
      "hash": "0x32706b859238271f6319fc509d7c2736df01f5f6786bd9305802f5082450a9b6",
      "blockHash": "0x67a09518cf795fb2bf04c89da5c4b9da7028f4de30f0a31ab013c4672038c08f",
      "blockNumber": 60221,
      "transactionIndex": 0,
      "confirmations": null,
      "from": "0xc97b6E47df229442524F8f210926557900f81574",
      "gasPrice": {
        "_hex": "0xe32916c44"
      },
      "gasLimit": {
        "_hex": "0x5208"
      },
      "to": "0x32Be343B94f860124dC4fEe278FDCBD38C102D88",
      "value": {
        "_hex": "0x455f10b4c59b8000"
      },
      "nonce": 6,
      "data": "0x",
      "r": "0x1663a7b4378a9bd766f2a91e847dca2f42c4e6d3d72e287f03c44ebe1c97273a",
      "s": "0x60d3a0ecf540894ed2b6c8076dd0a5eaa16d3e326511543f17fd00da1b06c201",
      "v": 28,
      "creates": null,
      "raw": "0xf86c06850e32916c448252089432be343b94f860124dc4fee278fdcbd38c102d8888455f10b4c59b8000801ca01663a7b4378a9bd766f2a91e847dca2f42c4e6d3d72e287f03c44ebe1c97273aa060d3a0ecf540894ed2b6c8076dd0a5eaa16d3e326511543f17fd00da1b06c201",
      "networkId": 0,
      "chainId": 0
    }
  ]
}