{
  "hash": "0xec2cf2cf4fc3522001493fa5c0dd2df73e59e9222a5fa4b8dbbf36f7bce81c0c",
  "parentHash": "0xfee8655585ee2366ed76697b5fa21c444723865e5bb38b658fbf4cfea90f9fda",
  "number": 86498,
  "timestamp": 1439579118,
  "nonce": "0x178a93ef84eabb2d",
  "difficulty": 2893279854791,
  "gasLimit": {
    "_hex": "0x2fefd8"
  },
  "gasUsed": {
    "_hex": "0xa410"
  },
  "miner": "0xe6A7a1d47ff21B6321162AEA7C6CB457D5476Bca",
  "extraData": "0x476574682f76312e302e312d38326566323666362f6c696e75782f676f312e34",
  "transactions": [
    {
      "hash": "0x897168c88901c90b8d67e745e1ee4fcb6bd446010725f104ac81f2747627ba2e",
      "blockHash": "0xec2cf2cf4fc3522001493fa5c0dd2df73e59e9222a5fa4b8dbbf36f7bce81c0c",
      "blockNumber": 86498,
      "transactionIndex": 0,
      "confirmations": null,
      "from": "0x2910543Af39abA0Cd09dBb2D50200b3E800A63D2",
      "gasPrice": {
        "_hex": "0xde5de8b1b"
      },
      "gasLimit": {
        "_hex": "0x5208"
      },
      "to": "0x2f86ba8019945f39edE131D38d4d8780884DA553",
      "value": {
        "_hex": "0x15f46f46be99538000"
      },
      "nonce": 667,
      "data": "0x",
      "r": "0xcf44566815b6840852e67d6fba822ea39ba353cad68207a97ea3d20bf6722a4b",
      "s": "0x20699424e55bc1d86d572a7e953fb348d5b89cc2919a1ac3595c103de697c131",
      "v": 28,
      "creates": null,
      "raw": "0xf86f82029b850de5de8b1b825208942f86ba8019945f39ede131d38d4d8780884da5538915f46f46be99538000801ca0cf44566815b6840852e67d6fba822ea39ba353cad68207a97ea3d20bf6722a4ba020699424e55bc1d86d572a7e953fb348d5b89cc2919a1ac3595c103de697c131",
      "networkId": 0,
      "chainId": 0
    },
    {
      "hash": "0x96211063f7de8fff33cc8a06e7701b008447af1e5d877374156e71310af94ec3",
      "blockHash": "0xec2cf2cf4fc3522001493fa5c0dd2df73e59e9222a5fa4b8dbbf36f7bce81c0c",
      "blockNumber": 86498,
      "transactionIndex": 1,
      "confirmations": null,
      "from": "0xE652BB86f049541e438AF3b8bCafdA935C686691",
      "gasPrice": {
        "_hex": "0xba43b7400"
      },
      "gasLimit": {
        "_hex": "0x5208"
      },
      "to": "0xC47Aaa860008be6f65B58c6C6E02a84e666EfE31",
      "value": {
        "_hex": "0x2c7f1ccca64c2f8f0"
      },
      "nonce": 2,
      "data": "0x",
      "r": "0x720fa4bfb47c9579f3b8320d424ef1bd9b0d34e5677405c80e5122e943ab600f",
      "s": "0x6c3ee83a0a67786c81b0295b4fb85ad5214ba5c40d4907ad97f6bc771bbccf5b",
      "v": 27,
      "creates": null,
      "raw": "0xf86d02850ba43b740082520894c47aaa860008be6f65b58c6c6e02a84e666efe318902c7f1ccca64c2f8f0801ba0720fa4bfb47c9579f3b8320d424ef1bd9b0d34e5677405c80e5122e943ab600fa06c3ee83a0a67786c81b0295b4fb85ad5214ba5c40d4907ad97f6bc771bbccf5b",
      "networkId": 0,
      "chainId": 0
    }
  ]
}