{
  "hash": "0x219f2fa2e4d575d79aabc8f09bfc67a15b19796188a74a51b559b743c1d3703b",
  "parentHash": "0x735ac1e7e3cf43b6639e8ca7263d7ef7a73ef22513f576fbf19dd1de7654f776",
  "number": 106253,
  "timestamp": 1439901211,
  "nonce": "0x8fdc501cdd64707b",
  "difficulty": 4468476532322,
  "gasLimit": {
    "_hex": "0x2fefd8"
  },
  "gasUsed": {
    "_hex": "0x14820"
  },
  "miner": "0x2660299c07076aEB9cEF872a41EAF75E4C16020D",
  "extraData": "0x476574682f76312e302e312f77696e646f77732f676f312e342e32",
  "transactions": [
    {
      "hash": "0xe6ebffd58fa0df204bfeae3aa5e421e81af838436f95d73238a682c5bffd23ef",
      "blockHash": "0x219f2fa2e4d575d79aabc8f09bfc67a15b19796188a74a51b559b743c1d3703b",
      "blockNumber": 106253,
      "transactionIndex": 0,
      "confirmations": null,
      "from": "0x056507108FE6d30189EcCD6cd7F4Fad56eEef622",
      "gasPrice": {
        "_hex": "0xe030647ad"
      },
      "gasLimit": {
        "_hex": "0x15f90"
      },
      "to": "0x0cA19A53a3256482A89770FC1daFC7630717F201",
      "value": {
        "_hex": "0x1a7a0f22084e46b7"
      },
      "nonce": 12,
      "data": "0x",
      "r": "0xdc3c035ca79122f8c2e9e7585f0709e802b394974ba3771a92c7374e8338611c",
      "s": "0x13a36c77d4c77b865dbe30e80e983d2d49b28a8e8ee2eed25a693777e9f3b7fb",
      "v": 27,
      "creates": null,
      "raw": "0xf86d0c850e030647ad83015f90940ca19a53a3256482a89770fc1dafc7630717f201881a7a0f22084e46b7801ba0dc3c035ca79122f8c2e9e7585f0709e802b394974ba3771a92c7374e8338611ca013a36c77d4c77b865dbe30e80e983d2d49b28a8e8ee2eed25a693777e9f3b7fb",
      "networkId": 0,
      "chainId": 0
    },
    {
      "hash": "0xf8331425cf959b94d2a1a0cdcad2f49abbc22dd0cfd01c6f80d9014265d69c13",
      "blockHash": "0x219f2fa2e4d575d79aabc8f09bfc67a15b19796188a74a51b559b743c1d3703b",
      "blockNumber": 106253,
      "transactionIndex": 1,
      "confirmations": null,
      "from": "0x120A270bbC009644e35F0bB6ab13f95b8199c4ad",
      "gasPrice": {
        "_hex": "0xdb4401824"
      },
      "gasLimit": {
        "_hex": "0x3d090"
      },
      "to": "0x9eE2bcfE9d322cFD264b1aa913ff9e2Ca905C204",
      "value": {
        "_hex": "0x28637a900f24169800"
      },
      "nonce": 779,
      "data": "0x",
      "r": "0x678381139606153443f960112d5e6e980e7aba34cd726e44c06f25a3b4c4fd05",
      "s": "0x3705e062c9dc5e9057c4b32f5a039cad1d4d4d5614cecafb2823fe75b91f6dc3",
      "v": 28,
      "creates": null,
      "raw": "0xf87082030b850db44018248303d090949ee2bcfe9d322cfd264b1aa913ff9e2ca905c2048928637a900f24169800801ca0678381139606153443f960112d5e6e980e7aba34cd726e44c06f25a3b4c4fd05a03705e062c9dc5e9057c4b32f5a039cad1d4d4d5614cecafb2823fe75b91f6dc3",
      "networkId": 0,
      "chainId": 0
    },
    {
      "hash": "0x5ee2f2f39239c7752645a9cc2efee01c04ea850427447d968e8050e12a119fe9",
      "blockHash": "0x219f2fa2e4d575d79aabc8f09bfc67a15b19796188a74a51b559b743c1d3703b",
      "blockNumber": 106253,
      "transactionIndex": 2,
      "confirmations": null,
      "from": "0xEF247E639d49461D25F57e9362CadE3120910Ce0",
      "gasPrice": {
        "_hex": "0xdb1527ac7"
      },
      "gasLimit": {
        "_hex": "0x15f90"
      },
      "to": "0xF87481A262E993a75F791E7859E71BaC36A606Eb",
      "value": {
        "_hex": "0xd02ab486cedc0000"
      },
      "nonce": 41,
      "data": "0x",
      "r": "0x00821a0932688f62aa5c702446cdb3509e7b1471bce6d39ce61417ee18c8895a",
      "s": "0x2f95763b78fbc1cef52daf2c746273d34aa700b8d477b7e3a715053c045c2078",
      "v": 27,
      "creates": null,
      "raw": "0xf86c29850db1527ac783015f9094f87481a262e993a75f791e7859e71bac36a606eb88d02ab486cedc0000801b9f821a0932688f62aa5c702446cdb3509e7b1471bce6d39ce61417ee18c8895aa02f95763b78fbc1cef52daf2c746273d34aa700b8d477b7e3a715053c045c2078",
      "networkId": 0,
      "chainId": 0
    },
    {
      "hash": "0x327b99ef85ea7facd8acfb400579e991bfbe1d5476d646fa59b9ed8365bc09a1",
      "blockHash": "0x219f2fa2e4d575d79aabc8f09bfc67a15b19796188a74a51b559b743c1d3703b",
      "blockNumber": 106253,
      "transactionIndex": 3,
      "confirmations": null,
      "from": "0xC99478b218E58F45783fA70f0507cf614938E67d",
      "gasPrice": {
        "_hex": "0xd0d78bec3"
      },
      "gasLimit": {
        "_hex": "0x15f90"
      },
      "to": "0xC3fe64D1af00F0d9c324E4387EF7533f7D788e95",
      "value": {
        "_hex": "0x1a31bf3fe58cc0000"
      },
      "nonce": 19,
      "data": "0x",
      "r": "0x68f13b18cc74daa600fad6dfb79057137645f4ce9300bab11c0d304dc8f654eb",
      "s": "0x4f3d8cf6e513da7180477e0949329ec603391f0f4cdf549b53539171c8e0aaa2",
      "v": 28,
      "creates": null,
      "raw": "0xf86e13850d0d78bec383015f9094c3fe64d1af00f0d9c324e4387ef7533f7d788e958901a31bf3fe58cc0000801ca068f13b18cc74daa600fad6dfb79057137645f4ce9300bab11c0d304dc8f654eba04f3d8cf6e513da7180477e0949329ec603391f0f4cdf549b53539171c8e0aaa2",
      "networkId": 0,
      "chainId": 0
    }
  ]
}