{
  "hash": "0xae6e5778f662e32683e886dbc436390c29e36b24e15f3ee0a8c6e9e12b45f9df",
  "parentHash": "0x00a3200db1257eee8b8bfad618a1c91af92659b488cb4ca732b267dc9bc0d9c5",
  "number": 59261,
  "timestamp": 1439135092,
  "nonce": "0xfa748f0c2051a83e",
  "difficulty": 1703905168287,
  "gasLimit": {
    "_hex": "0x2fefd8"
  },
  "gasUsed": {
    "_hex": "0x5208"
  },
  "miner": "0x0037ce3d4B7f8729C8607D8D0248252Be68202c0",
  "extraData": "0x476574682f76312e302e312f77696e646f77732f676f312e342e32",
  "transactions": [
    {
      "hash": "0xe32f9801a2fa21f19ee23f16d72b6c095c993fed5b6cfa456ee5378c9d3274b2",
      "blockHash": "0xae6e5778f662e32683e886dbc436390c29e36b24e15f3ee0a8c6e9e12b45f9df",
      "blockNumber": 59261,
      "transactionIndex": 0,
      "confirmations": null,
      "from": "0xe997A23B159E2E2a5Ce72333262972374B15425c",
      "gasPrice": {
        "_hex": "0xe3492eead"
      },
      "gasLimit": {
        "_hex": "0x15f90"
      },
      "to": "0x33F36DffD23cf019833E1d59cBc7138824b12289",
      "value": {
        "_hex": "0xde0b6b3a7640000"
      },
      "nonce": 0,
      "data": "0x",
      "r": "0xe8acef287a95ad835b33a4fd0f588234e6d705c30204442a93d505656586f20d",
      "s": "0x5ff744b5744d6fe52a8dcb4f937ddde6b6e89f07a303fb8d3acbb6291e9fb8ad",
      "v": 28,
      "creates": null,
      "raw": "0xf86d80850e3492eead83015f909433f36dffd23cf019833e1d59cbc7138824b12289880de0b6b3a7640000801ca0e8acef287a95ad835b33a4fd0f588234e6d705c30204442a93d505656586f20da05ff744b5744d6fe52a8dcb4f937ddde6b6e89f07a303fb8d3acbb6291e9fb8ad",
      "networkId": 0,
      "chainId": 0
    }
  ]
}