{
  "hash": "0xb7762d64ee9269e7ac89b4753f4a4040bbb911954de379c1f25242884385e22a",
  "parentHash": "0x48d9c70b0f2561717627a8899f33fe2875109d83d88760074522883e70388c91",
  "number": 64642,
  "timestamp": 1439224045,
  "nonce": "0xbb9671d307fb80cb",
  "difficulty": 1887604681605,
  "gasLimit": {
    "_hex": "0x2fefd8"
  },
  "gasUsed": {
    "_hex": "0x5208"
  },
  "miner": "0x9746c7e1ef2bd21FF3997fa467593a89cb852BD0",
  "extraData": "0x476574682f76312e302e312f77696e646f77732f676f312e342e32",
  "transactions": [
    {
      "hash": "0x4b878ff2036c9f129dad1e6f8156c8ab52c6295710c3948cdc75b33d97eceed7",
      "blockHash": "0xb7762d64ee9269e7ac89b4753f4a4040bbb911954de379c1f25242884385e22a",
      "blockNumber": 64642,
      "transactionIndex": 0,
      "confirmations": null,
      "from": "0x2910543Af39abA0Cd09dBb2D50200b3E800A63D2",
      "gasPrice": {
        "_hex": "0xce26a1e3b"
      },
      "gasLimit": {
        "_hex": "0x5208"
      },
      "to": "0x77b887762b497d2f8Cf6fE95d502D7081A867f0F",
      "value": {
        "_hex": "0x11c37937e08000"
      },
      "nonce": 146,
      "data": "0x",
      "r": "0xc8e41989ec6611320bb1c6c6d89875727a2ef548316a86af51c0a0a4cf12a26c",
      "s": "0x7b861e1a3b3629a338cfbb2d4b6fc472eb6be016ccaf0d59cc1abc6561cbc7ae",
      "v": 27,
      "creates": null,
      "raw": "0xf86c8192850ce26a1e3b8252089477b887762b497d2f8cf6fe95d502d7081a867f0f8711c37937e08000801ba0c8e41989ec6611320bb1c6c6d89875727a2ef548316a86af51c0a0a4cf12a26ca07b861e1a3b3629a338cfbb2d4b6fc472eb6be016ccaf0d59cc1abc6561cbc7ae",
      "networkId": 0,
      "chainId": 0
    }
  ]
}