{
  "hash": "0xccbc983b818da7e20015fd8045bde3740c95d746b88a8ce46bf8dacb067c5612",
  "parentHash": "0xf1c7ca51feb17aff31140606d9cb30a3588941bc3b00bd81a80722c8f14fdf70",
  "number": 121893,
  "timestamp": 1440184479,
  "nonce": "0xa5ad91cfd229737f",
  "difficulty": 4477609663715,
  "gasLimit": {
    "_hex": "0x2fefd8"
  },
  "gasUsed": {
    "_hex": "0x29040"
  },
  "miner": "0xe6A7a1d47ff21B6321162AEA7C6CB457D5476Bca",
  "extraData": "0xd783010002844765746887676f312e342e32856c696e7578",
  "transactions": [
    {
      "hash": "0xb1778a851b8a960c688bb642edbf78a4b712b511352e6245f3ededee041884e3",
      "blockHash": "0xccbc983b818da7e20015fd8045bde3740c95d746b88a8ce46bf8dacb067c5612",
      "blockNumber": 121893,
      "transactionIndex": 0,
      "confirmations": null,
      "from": "0x3B399fF2b96F27056Ab8a7f6e028b0dBaF386279",
      "gasPrice": {
        "_hex": "0xcb2ac020d"
      },
      "gasLimit": {
        "_hex": "0x5208"
      },
      "to": "0x32Be343B94f860124dC4fEe278FDCBD38C102D88",
      "value": {
        "_hex": "0x92adb62bdc0b5000"
      },
      "nonce": 13,
      "data": "0x",
      "r": "0xd058f1b3850c6f36138dc0e9fae4c08e2c3d4479854ec58c3dee706630691d1d",
      "s": "0x79662e3ef288c8a99f2c763f683100d10f2b5c3b1364c0b45c3318f84cfa7193",
      "v": 27,
      "creates": null,
      "raw": "0xf86c0d850cb2ac020d8252089432be343b94f860124dc4fee278fdcbd38c102d888892adb62bdc0b5000801ba0d058f1b3850c6f36138dc0e9fae4c08e2c3d4479854ec58c3dee706630691d1da079662e3ef288c8a99f2c763f683100d10f2b5c3b1364c0b45c3318f84cfa7193",
      "networkId": 0,
      "chainId": 0
    },
    {
      "hash": "0xa1bfe7afb816860c9332cf112f60e66a35f73f03bd4cbb55ed702be2f3991f2a",
      "blockHash": "0xccbc983b818da7e20015fd8045bde3740c95d746b88a8ce46bf8dacb067c5612",
      "blockNumber": 121893,
      "transactionIndex": 1,
      "confirmations": null,
      "from": "0x519DC97eF09491aE962A8F13fe144c71feca4662",
      "gasPrice": {
        "_hex": "0xcb2ac020d"
      },
      "gasLimit": {
        "_hex": "0x5208"
      },
      "to": "0x32Be343B94f860124dC4fEe278FDCBD38C102D88",
      "value": {
        "_hex": "0x30ddde7a2d3dd800"
      },
      "nonce": 16,
      "data": "0x",
      "r": "0xd233939821cca9644fb3cccd0ea24fae21ca3d169c48463d8fc57e854d273ef2",
      "s": "0x667ae55f513d4befb79ece890af1b9e2089f39cb9b3a5b0f89d5486ce5dd2d3c",
      "v": 27,
      "creates": null,
      "raw": "0xf86c10850cb2ac020d8252089432be343b94f860124dc4fee278fdcbd38c102d888830ddde7a2d3dd800801ba0d233939821cca9644fb3cccd0ea24fae21ca3d169c48463d8fc57e854d273ef2a0667ae55f513d4befb79ece890af1b9e2089f39cb9b3a5b0f89d5486ce5dd2d3c",
      "networkId": 0,
      "chainId": 0
    },
    {
      "hash": "0x648e62647e4f5893fb71c3d03f7317bbb0ed79f0158500e8c0bcd8dc762cde23",
      "blockHash": "0xccbc983b818da7e20015fd8045bde3740c95d746b88a8ce46bf8dacb067c5612",
      "blockNumber": 121893,
      "transactionIndex": 2,
      "confirmations": null,
      "from": "0x46e97208BC7F618816Cb502A2b516fb4BC41f1D3",
      "gasPrice": {
        "_hex": "0xcb2ac020d"
      },
      "gasLimit": {
        "_hex": "0x5208"
      },
      "to": "0x32Be343B94f860124dC4fEe278FDCBD38C102D88",
      "value": {
        "_hex": "0x1e9d0e8f0a759000"
      },
      "nonce": 13,
      "data": "0x",
      "r": "0x8f0f12c2ad535f423c45eef7cfca942ef17a3a689395d32a4357b2c9db56d0d2",
      "s": "0x3eb50518cea086d2b38230f8c5ee2f1abff37ab2d7b9e39d399caa06b60a0cad",
      "v": 28,
      "creates": null,
      "raw": "0xf86c0d850cb2ac020d8252089432be343b94f860124dc4fee278fdcbd38c102d88881e9d0e8f0a759000801ca08f0f12c2ad535f423c45eef7cfca942ef17a3a689395d32a4357b2c9db56d0d2a03eb50518cea086d2b38230f8c5ee2f1abff37ab2d7b9e39d399caa06b60a0cad",
      "networkId": 0,
      "chainId": 0
    },
    {
      "hash": "0x0552a3b1ae769004462270bc45a6537aa4c9038c0793edd0d0a4c7523e8c5c9c",
      "blockHash": "0xccbc983b818da7e20015fd8045bde3740c95d746b88a8ce46bf8dacb067c5612",
      "blockNumber": 121893,
      "transactionIndex": 3,
      "confirmations": null,
      "from": "0x702bD0d370bBf0B97B66FE95578c62697c583393",
      "gasPrice": {
        "_hex": "0xcb2ac020d"
      },
      "gasLimit": {
        "_hex": "0x5208"
      },
      "to": "0x32Be343B94f860124dC4fEe278FDCBD38C102D88",
      "value": {
        "_hex": "0x506c44591a1ef400"
      },
      "nonce": 13,
      "data": "0x",
      "r": "0x1e41ddcf228e323014058cad5fec21f360a23d3f9e626eb864ced0eb5a12acee",
      "s": "0x0cd5c7118a8b716590cde1cf5e971f61a38d7118c862b4126af5a1b3a185a36a",
      "v": 27,
      "creates": null,
      "raw": "0xf86c0d850cb2ac020d8252089432be343b94f860124dc4fee278fdcbd38c102d8888506c44591a1ef400801ba01e41ddcf228e323014058cad5fec21f360a23d3f9e626eb864ced0eb5a12aceea00cd5c7118a8b716590cde1cf5e971f61a38d7118c862b4126af5a1b3a185a36a",
      "networkId": 0,
      "chainId": 0
    },
    {
      "hash": "0x89e2ca11643fdcd8d43fb4897702ef3226ba332f7a209481866b64a9f351a641",
      "blockHash": "0xccbc983b818da7e20015fd8045bde3740c95d746b88a8ce46bf8dacb067c5612",
      "blockNumber": 121893,
      "transactionIndex": 4,
      "confirmations": null,
      "from": "0xeD3Fe86896534C24D9F91232faE34b78DFf3c1f4",
      "gasPrice": {
        "_hex": "0xcb2ac020d"
      },
      "gasLimit": {
        "_hex": "0x5208"
      },
      "to": "0x32Be343B94f860124dC4fEe278FDCBD38C102D88",
      "value": {
        "_hex": "0x4188a8750e265c00"
      },
      "nonce": 11,
      "data": "0x",
      "r": "0x0f391b18a08d5cfa1619cdca39b1eae77dadee178394c286d8bad760fb6811a2",
      "s": "0x639b1acbe6d94005ac39bb7c8e133266d3993786949489cbf4a6165930aabd47",
      "v": 28,
      "creates": null,
      "raw": "0xf86c0b850cb2ac020d8252089432be343b94f860124dc4fee278fdcbd38c102d88884188a8750e265c00801ca00f391b18a08d5cfa1619cdca39b1eae77dadee178394c286d8bad760fb6811a2a0639b1acbe6d94005ac39bb7c8e133266d3993786949489cbf4a6165930aabd47",
      "networkId": 0,
      "chainId": 0
    },
    {
      "hash": "0xfe41e7cfbc0e6529c2231c80c84cd9a9bb6feb5f347ff425118d48c82730dc57",
      "blockHash": "0xccbc983b818da7e20015fd8045bde3740c95d746b88a8ce46bf8dacb067c5612",
      "blockNumber": 121893,
      "transactionIndex": 5,
      "confirmations": null,
      "from": "0x701aE497d3522329870Ada714AA902424EA8Da01",
      "gasPrice": {
        "_hex": "0xcb2ac020d"
      },
      "gasLimit": {
        "_hex": "0x5208"
      },
      "to": "0x32Be343B94f860124dC4fEe278FDCBD38C102D88",
      "value": {
        "_hex": "0x86a4d90dab9ec000"
      },
      "nonce": 13,
      "data": "0x",
      "r": "0xa6beed372ee82ddc76b45f5147b782eabccc8ef43d3c386899125f9f5f18083c",
      "s": "0x0b19acfdf463c15f82a3c521215640489929f9d5865fa822d311a7c260bb5c68",
      "v": 28,
      "creates": null,
      "raw": "0xf86c0d850cb2ac020d8252089432be343b94f860124dc4fee278fdcbd38c102d888886a4d90dab9ec000801ca0a6beed372ee82ddc76b45f5147b782eabccc8ef43d3c386899125f9f5f18083ca00b19acfdf463c15f82a3c521215640489929f9d5865fa822d311a7c260bb5c68",
      "networkId": 0,
      "chainId": 0
    },
    {
      "hash": "0x3d7fedb06a855a0f6ec1be44ff95c1a5b3397e172f5202e5a9a35af918ce1285",
      "blockHash": "0xccbc983b818da7e20015fd8045bde3740c95d746b88a8ce46bf8dacb067c5612",
      "blockNumber": 121893,
      "transactionIndex": 6,
      "confirmations": null,
      "from": "0xe6A7a1d47ff21B6321162AEA7C6CB457D5476Bca",
      "gasPrice": {
        "_hex": "0xba43b7400"
      },
      "gasLimit": {
        "_hex": "0x55f0"
      },
      "to": "0xf5695Ae85aB4f83A5f859c4c691ce7CEf32b708B",
      "value": {
        "_hex": "0x20084f7cec910b9b0"
      },
      "nonce": 6741,
      "data": "0x",
      "r": "0x9d00c912c3d7a11324805f1f97ea681e7220c58a8d38b2ba3fbc6c696dcb8fb4",
      "s": "0x69fc34e09a3493ca93ef8c329cc1c367ebea9e3499d6fde65ae7381315642b07",
      "v": 28,
      "creates": null,
      "raw": "0xf86f821a55850ba43b74008255f094f5695ae85ab4f83a5f859c4c691ce7cef32b708b89020084f7cec910b9b0801ca09d00c912c3d7a11324805f1f97ea681e7220c58a8d38b2ba3fbc6c696dcb8fb4a069fc34e09a3493ca93ef8c329cc1c367ebea9e3499d6fde65ae7381315642b07",
      "networkId": 0,
      "chainId": 0
    },
    {
      "hash": "0x9ad0d5c58650d6fa6d8425042cb3781838a2bde83e0b199aa093472d1ebc2035",
      "blockHash": "0xccbc983b818da7e20015fd8045bde3740c95d746b88a8ce46bf8dacb067c5612",
      "blockNumber": 121893,
      "transactionIndex": 7,
      "confirmations": null,
      "from": "0xe6A7a1d47ff21B6321162AEA7C6CB457D5476Bca",
      "gasPrice": {
        "_hex": "0xba43b7400"
      },
      "gasLimit": {
        "_hex": "0x55f0"
      },
      "to": "0xd0DF24FD0DfcDc3850D1590dAA1D03ca7706b11B",
      "value": {
        "_hex": "0x2018ff63f2fce5980"
      },
      "nonce": 6742,
      "data": "0x",
      "r": "0x4f54aa74e2c3afa4714eebb7da3b13aa3e22f8dfd70e8d0f2cb6ff207708f264",
      "s": "0x262399cc3669d49a4e56dede5fb44bfbbce2c6e89ccc7c5475b406e06a86d8ed",
      "v": 28,
      "creates": null,
      "raw": "0xf86f821a56850ba43b74008255f094d0df24fd0dfcdc3850d1590daa1d03ca7706b11b8902018ff63f2fce5980801ca04f54aa74e2c3afa4714eebb7da3b13aa3e22f8dfd70e8d0f2cb6ff207708f264a0262399cc3669d49a4e56dede5fb44bfbbce2c6e89ccc7c5475b406e06a86d8ed",
      "networkId": 0,
      "chainId": 0
    }
  ]
}