{
  "hash": "0x97e9ad20092139af33a8492cce775455633f5d1ebe9becfd15a3e671980441c3",
  "parentHash": "0xbd8331f8a4d758f1ab0892e7892fd9023f7d4fc8f9ebf4b0bc375e565c88ac80",
  "number": 113605,
  "timestamp": 1440026571,
  "nonce": "0x12682a575b482d9d",
  "difficulty": 4442815469989,
  "gasLimit": {
    "_hex": "0x2fefd8"
  },
  "gasUsed": {
    "_hex": "0xf61c"
  },
  "miner": "0xC6A5D22D1DDd24B32a308bA4A49ec3cA38a2D0A6",
  "extraData": "0x",
  "transactions": [
    {
      "hash": "0x92eaef4380eb1729a9fe131a6ca775377007138729f2102535a497dc15895398",
      "blockHash": "0x97e9ad20092139af33a8492cce775455633f5d1ebe9becfd15a3e671980441c3",
      "blockNumber": 113605,
      "transactionIndex": 0,
      "confirmations": null,
      "from": "0xC8fff0e97b3f2b6DbE9d7586FF834Dd4Faf7cAEF",
      "gasPrice": {
        "_hex": "0x106ce997e44"
      },
      "gasLimit": {
        "_hex": "0x15f90"
      },
      "to": "0x350595D9E9740C810898409834311979a5d7B1F0",
      "value": {
        "_hex": "0xde0b6b3a7640000"
      },
      "nonce": 0,
      "data": "0x",
      "r": "0x8982732ff25c88226f56c79354f5a6971090827dda7f8d0815c22ef665e1b578",
      "s": "0x6d21d2b36e0fe6ff1bc72cd55b4c83bd973dcb979b9bd6ec35a524110544b876",
      "v": 28,
      "creates": null,
      "raw": "0xf86e80860106ce997e4483015f9094350595d9e9740c810898409834311979a5d7b1f0880de0b6b3a7640000801ca08982732ff25c88226f56c79354f5a6971090827dda7f8d0815c22ef665e1b578a06d21d2b36e0fe6ff1bc72cd55b4c83bd973dcb979b9bd6ec35a524110544b876",
      "networkId": 0,
      "chainId": 0
    },
    {
      "hash": "0x60fe2071b53b48488a00a1b0d7d77005cc3b5e899d9f89fb28d69a6cba72bc4f",
      "blockHash": "0x97e9ad20092139af33a8492cce775455633f5d1ebe9becfd15a3e671980441c3",
      "blockNumber": 113605,
      "transactionIndex": 1,
      "confirmations": null,
      "from": "0x731f48FB82E3aa0085A39775Fe6987f943B05362",
      "gasPrice": {
        "_hex": "0xd768164ff"
      },
      "gasLimit": {
        "_hex": "0x7530"
      },
      "to": "0x7cB57B5A97eAbe94205C07890BE4c1aD31E486A8",
      "value": {
        "_hex": "0x38d7ea4c68000"
      },
      "nonce": 6,
      "data": "0x00",
      "r": "0xfa94be42066b742e51921b0c0d138b5780fa53aad033cae3e9351a2728ef5e3f",
      "s": "0x6391d0dc2508bd2da08bc5ec97a9974783598e223e66e726f3fc5328084e7f9e",
      "v": 27,
      "creates": null,
      "raw": "0xf86b06850d768164ff827530947cb57b5a97eabe94205c07890be4c1ad31e486a887038d7ea4c68000001ba0fa94be42066b742e51921b0c0d138b5780fa53aad033cae3e9351a2728ef5e3fa06391d0dc2508bd2da08bc5ec97a9974783598e223e66e726f3fc5328084e7f9e",
      "networkId": 0,
      "chainId": 0
    },
    {
      "hash": "0x723c82a748ca4759b70db807ba0273a43afe0941dfac31c62a0924141f834097",
      "blockHash": "0x97e9ad20092139af33a8492cce775455633f5d1ebe9becfd15a3e671980441c3",
      "blockNumber": 113605,
      "transactionIndex": 2,
      "confirmations": null,
      "from": "0xa70a9a7040d542C632D8e0bE7c5513A8a5Bbc752",
      "gasPrice": {
        "_hex": "0xcd9a63902"
      },
      "gasLimit": {
        "_hex": "0x5208"
      },
      "to": "0x32Be343B94f860124dC4fEe278FDCBD38C102D88",
      "value": {
        "_hex": "0x4563b681d1e71000"
      },
      "nonce": 303,
      "data": "0x",
      "r": "0x85106418e69904db283b315427cfa574bdab6ebb2cc88ceef27f0d54008890b4",
      "s": "0x57c78f392e8ce550478a5de64400a7581026ac0a34ee710d9705171ade1b8614",
      "v": 27,
      "creates": null,
      "raw": "0xf86e82012f850cd9a639028252089432be343b94f860124dc4fee278fdcbd38c102d88884563b681d1e71000801ba085106418e69904db283b315427cfa574bdab6ebb2cc88ceef27f0d54008890b4a057c78f392e8ce550478a5de64400a7581026ac0a34ee710d9705171ade1b8614",
      "networkId": 0,
      "chainId": 0
    }
  ]
}