{
  "hash": "0x294f81de704b9daa0cd6abf0fdd482d782bcaa8e641b2b3dcd091feb2a6c372c",
  "parentHash": "0x47dc592d525a34cf2033091a5d01016e92a2d1f29c3bf622f0d12f20a6ecc9b6",
  "number": 103643,
  "timestamp": 1439856691,
  "nonce": "0x7071fe1327b2a792",
  "difficulty": 4199051478580,
  "gasLimit": {
    "_hex": "0x2fefd8"
  },
  "gasUsed": {
    "_hex": "0x5208"
  },
  "miner": "0xbb7B8287f3F0a933474a79eAe42CBCa977791171",
  "extraData": "0x476574682f4c5649562f76312e302e312f6c696e75782f676f312e342e32",
  "transactions": [
    {
      "hash": "0x9032da66a8e7999e6daa6e71b71e280db7e0a476a88c182a4eb60d55c4d0b01a",
      "blockHash": "0x294f81de704b9daa0cd6abf0fdd482d782bcaa8e641b2b3dcd091feb2a6c372c",
      "blockNumber": 103643,
      "transactionIndex": 0,
      "confirmations": null,
      "from": "0xcf00A85f3826941e7A25BFcF9Aac575d40410852",
      "gasPrice": {
        "_hex": "0xcb5bea614"
      },
      "gasLimit": {
        "_hex": "0x15f90"
      },
      "to": "0xD9666150A9dA92d9108198a4072970805a8B3428",
      "value": {
        "_hex": "0x4563918244f40000"
      },
      "nonce": 52,
      "data": "0x",
      "r": "0xb7d5c9283746f9ee75407d730b0bd5bd6f1d5dbf0e7e8f5c25e4b70c68b1ebf4",
      "s": "0x6a54c3413bcfaa529053ee367c94c1c19330763516ec417b4072472d43e58360",
      "v": 28,
      "creates": null,
      "raw": "0xf86d34850cb5bea61483015f9094d9666150a9da92d9108198a4072970805a8b3428884563918244f40000801ca0b7d5c9283746f9ee75407d730b0bd5bd6f1d5dbf0e7e8f5c25e4b70c68b1ebf4a06a54c3413bcfaa529053ee367c94c1c19330763516ec417b4072472d43e58360",
      "networkId": 0,
      "chainId": 0
    }
  ]
}