{
  "hash": "0xe665f1b167f98f0290373464c76964f0242bedd81a88a32b22a22e8428dbbbc7",
  "parentHash": "0xd30b090bed2cf14d001b4b676471fe745f55b1b33dcec39c2548ab1884c66ff0",
  "number": 89779,
  "timestamp": 1439628871,
  "nonce": "0x6483bd9732a57b49",
  "difficulty": 3346770115242,
  "gasLimit": {
    "_hex": "0x2fefd8"
  },
  "gasUsed": {
    "_hex": "0x19a28"
  },
  "miner": "0x9C5Fed4DF0354d09d822D62434e451815D1cD75d",
  "extraData": "0xd983010001844765746887676f312e342e328777696e646f7773",
  "transactions": [
    {
      "hash": "0x657167fbe2688b23a60cb93ef28feb15c81401c1bf1943581534948477571980",
      "blockHash": "0xe665f1b167f98f0290373464c76964f0242bedd81a88a32b22a22e8428dbbbc7",
      "blockNumber": 89779,
      "transactionIndex": 0,
      "confirmations": null,
      "from": "0xe6A7a1d47ff21B6321162AEA7C6CB457D5476Bca",
      "gasPrice": {
        "_hex": "0xd880719c7"
      },
      "gasLimit": {
        "_hex": "0x55f0"
      },
      "to": "0xeFcD857C9235bDD977b33b263dBB0255F055AAD5",
      "value": {
        "_hex": "0x2abb847a80a35df8"
      },
      "nonce": 2085,
      "data": "0x",
      "r": "0xe441179f7ee3f2abd9a8c3f75daea72dca7e1224928ffdfd830a3b805591606e",
      "s": "0x3fef1e204104c4d0282581a19a8480c93c6e76428c58bd7a101ce35a1fa6d280",
      "v": 27,
      "creates": null,
      "raw": "0xf86e820825850d880719c78255f094efcd857c9235bdd977b33b263dbb0255f055aad5882abb847a80a35df8801ba0e441179f7ee3f2abd9a8c3f75daea72dca7e1224928ffdfd830a3b805591606ea03fef1e204104c4d0282581a19a8480c93c6e76428c58bd7a101ce35a1fa6d280",
      "networkId": 0,
      "chainId": 0
    },
    {
      "hash": "0x3983402f87960ce3fe7eb768f630f0c39322b237e4f70606286516d3a8a2388d",
      "blockHash": "0xe665f1b167f98f0290373464c76964f0242bedd81a88a32b22a22e8428dbbbc7",
      "blockNumber": 89779,
      "transactionIndex": 1,
      "confirmations": null,
      "from": "0xe6A7a1d47ff21B6321162AEA7C6CB457D5476Bca",
      "gasPrice": {
        "_hex": "0xd880719c7"
      },
      "gasLimit": {
        "_hex": "0x55f0"
      },
      "to": "0x3fe698DDd00ce16bFb0F2B875D29Cf6B91eB677d",
      "value": {
        "_hex": "0x2abef1f29dc6cc88"
      },
      "nonce": 2086,
      "data": "0x",
      "r": "0x36f5384473c56f7e6759f078299668079ac37c822d849df351a5099894bbe001",
      "s": "0x1160af21794806dbe4af72246d175eb8bf7f9df1870b381ab3457d234684b8bc",
      "v": 27,
      "creates": null,
      "raw": "0xf86e820826850d880719c78255f0943fe698ddd00ce16bfb0f2b875d29cf6b91eb677d882abef1f29dc6cc88801ba036f5384473c56f7e6759f078299668079ac37c822d849df351a5099894bbe001a01160af21794806dbe4af72246d175eb8bf7f9df1870b381ab3457d234684b8bc",
      "networkId": 0,
      "chainId": 0
    },
    {
      "hash": "0xa0830a7287e0f75d6250f5ab87b5617f83731c49345643932b76a4f6d128b153",
      "blockHash": "0xe665f1b167f98f0290373464c76964f0242bedd81a88a32b22a22e8428dbbbc7",
      "blockNumber": 89779,
      "transactionIndex": 2,
      "confirmations": null,
      "from": "0xe6A7a1d47ff21B6321162AEA7C6CB457D5476Bca",
      "gasPrice": {
        "_hex": "0xd880719c7"
      },
      "gasLimit": {
        "_hex": "0x55f0"
      },
      "to": "0x806C4e20CC913d7b70f5b7e24C6Ba15B16c56a5C",
      "value": {
        "_hex": "0x2acc6d562176d4b0"
      },
      "nonce": 2087,
      "data": "0x",
      "r": "0x5d84ecfba094ee81376c75c4fed65b900f98c8347b72c40634882b028bc84e18",
      "s": "0x2cbffb8e84e1e574b01d1b7315fc5ebc0c6be8d7c711fb26109362eb4319d631",
      "v": 27,
      "creates": null,
      "raw": "0xf86e820827850d880719c78255f094806c4e20cc913d7b70f5b7e24c6ba15b16c56a5c882acc6d562176d4b0801ba05d84ecfba094ee81376c75c4fed65b900f98c8347b72c40634882b028bc84e18a02cbffb8e84e1e574b01d1b7315fc5ebc0c6be8d7c711fb26109362eb4319d631",
      "networkId": 0,
      "chainId": 0
    },
    {
      "hash": "0xc0cc8f99bbdb4041eba5bab03abd4a6c01be794fea72388f7f330b2ed97ed98e",
      "blockHash": "0xe665f1b167f98f0290373464c76964f0242bedd81a88a32b22a22e8428dbbbc7",
      "blockNumber": 89779,
      "transactionIndex": 3,
      "confirmations": null,
      "from": "0xe6A7a1d47ff21B6321162AEA7C6CB457D5476Bca",
      "gasPrice": {
        "_hex": "0xd880719c7"
      },
      "gasLimit": {
        "_hex": "0x55f0"
      },
      "to": "0x83B72f566f6ef3fd4a25C58119809f846602292C",
      "value": {
        "_hex": "0x2ad8c518ee8fe010"
      },
      "nonce": 2088,
      "data": "0x",
      "r": "0xab87a08a320bbef4dbbca827a0d46897cd00f6653dc1a0336c12f0b5eadbb137",
      "s": "0x44703bdce527a56a39f81bf40f61824927729f0fb9715bb75c95312fed330655",
      "v": 28,
      "creates": null,
      "raw": "0xf86e820828850d880719c78255f09483b72f566f6ef3fd4a25c58119809f846602292c882ad8c518ee8fe010801ca0ab87a08a320bbef4dbbca827a0d46897cd00f6653dc1a0336c12f0b5eadbb137a044703bdce527a56a39f81bf40f61824927729f0fb9715bb75c95312fed330655",
      "networkId": 0,
      "chainId": 0
    },
    {
      "hash": "0x4da7e0a5bc8ae3be02776141eb8eca7cdd2daac7b910a1c8a0dc3095104303f7",
      "blockHash": "0xe665f1b167f98f0290373464c76964f0242bedd81a88a32b22a22e8428dbbbc7",
      "blockNumber": 89779,
      "transactionIndex": 4,
      "confirmations": null,
      "from": "0xe6A7a1d47ff21B6321162AEA7C6CB457D5476Bca",
      "gasPrice": {
        "_hex": "0xd880719c7"
      },
      "gasLimit": {
        "_hex": "0x55f0"
      },
      "to": "0xc47d9E6C75d388Aeb92574429dAD43A148f2f3ea",
      "value": {
        "_hex": "0x2ae1445f6137d7e4"
      },
      "nonce": 2089,
      "data": "0x",
      "r": "0x24943ebec8d32a572ce666e5763b928c1f3e61ec440a139ebea8ab64c3c0435d",
      "s": "0x666044172407bafbb248eb7f5186122ea9c4ec7e6b010232a8f2d85a055db893",
      "v": 28,
      "creates": null,
      "raw": "0xf86e820829850d880719c78255f094c47d9e6c75d388aeb92574429dad43a148f2f3ea882ae1445f6137d7e4801ca024943ebec8d32a572ce666e5763b928c1f3e61ec440a139ebea8ab64c3c0435da0666044172407bafbb248eb7f5186122ea9c4ec7e6b010232a8f2d85a055db893",
      "networkId": 0,
      "chainId": 0
    }
  ]
}