{
  "hash": "0xbc25776685ba6846c60bafd583a78ce2b9ab5d8bce0a5fbe441cfb5d51d13b77",
  "parentHash": "0x71859cd0730d21d9decf3ba7ad796941c052d6bfa95abb4b06afdaeade101069",
  "number": 72874,
  "timestamp": 1439359542,
  "nonce": "0xd893feef99ae57a2",
  "difficulty": 2196073717585,
  "gasLimit": {
    "_hex": "0x2fefd8"
  },
  "gasUsed": {
    "_hex": "0x8bee"
  },
  "miner": "0x0089508679abF8c71BF6781687120e3E6a84584D",
  "extraData": "0x",
  "transactions": [
    {
      "hash": "0x0402c84da5fe6d7e426fae0de7ec5c22ab488881ec08c8f7f7ca6777f8e870a0",
      "blockHash": "0xbc25776685ba6846c60bafd583a78ce2b9ab5d8bce0a5fbe441cfb5d51d13b77",
      "blockNumber": 72874,
      "transactionIndex": 0,
      "confirmations": null,
      "from": "0xFBb1b73C4f0BDa4f67dcA266ce6Ef42f520fBB98",
      "gasPrice": {
        "_hex": "0xd4f76e25b"
      },
      "gasLimit": {
        "_hex": "0x15f90"
      },
      "to": "0xCAc7000C7dBaa2E33Af15325AF5D435E011C7BdD",
      "value": {
        "_hex": "0x0"
      },
      "nonce": 28,
      "data": "0x6042a7604249545452455830300000000000000000000000000000000000000000000000000000000000000000000000cac7000c7dbaa2e33af15325af5d435e011c7bdd41313131313131314200000000000000000000000000000000000000000000000000000000000000000000000000000000000000000000004563918244f40000",
      "r": "0xd5bdffa7663a9432f20ff3571a1ce7a1d9b8ad29b0bb14bd5a9f01e25a5a535b",
      "s": "0x0fcbfdd66f5b27339edbcb93964cf0cd00bddd5901bf6a504dd2c2c98a246d34",
      "v": 28,
      "creates": null,
      "raw": "0xf8ea1c850d4f76e25b83015f9094cac7000c7dbaa2e33af15325af5d435e011c7bdd80b8846042a7604249545452455830300000000000000000000000000000000000000000000000000000000000000000000000cac7000c7dbaa2e33af15325af5d435e011c7bdd41313131313131314200000000000000000000000000000000000000000000000000000000000000000000000000000000000000000000004563918244f400001ca0d5bdffa7663a9432f20ff3571a1ce7a1d9b8ad29b0bb14bd5a9f01e25a5a535ba00fcbfdd66f5b27339edbcb93964cf0cd00bddd5901bf6a504dd2c2c98a246d34",
      "networkId": 0,
      "chainId": 0
    }
  ]
}