{
  "hash": "0xc598f70d634e730f07d188a67c805c85310eba02ed7c690a3ff9acd1980cb48b",
  "parentHash": "0x68bfe490cc73d42a5306224933fe6a5b0f4971ce820d9e016be35fbda546a349",
  "number": 80136,
  "timestamp": 1439480783,
  "nonce": "0xae28d0143b1008e4",
  "difficulty": 2349411272729,
  "gasLimit": {
    "_hex": "0x2fefd8"
  },
  "gasUsed": {
    "_hex": "0x5208"
  },
  "miner": "0xe6A7a1d47ff21B6321162AEA7C6CB457D5476Bca",
  "extraData": "0x476574682f76312e302e312d38326566323666362f6c696e75782f676f312e34",
  "transactions": [
    {
      "hash": "0xac9a105d9381f86e5062cba70a905bd66b3c6f74fd807ac0f494c5c81948b710",
      "blockHash": "0xc598f70d634e730f07d188a67c805c85310eba02ed7c690a3ff9acd1980cb48b",
      "blockNumber": 80136,
      "transactionIndex": 0,
      "confirmations": null,
      "from": "0x51e07ebFfb63C575d3aA5C7F25c5B6Fcae1Da362",
      "gasPrice": {
        "_hex": "0xd6b187d36"
      },
      "gasLimit": {
        "_hex": "0x15f90"
      },
      "to": "0x796fB5FF91099467f7669c8FB0C68739Fd3a9e40",
      "value": {
        "_hex": "0x386ec6f08bada40000"
      },
      "nonce": 1,
      "data": "0x",
      "r": "0x062f251453b49352d6844830abe4e5b1f5f44524dc17ba5fb1ab16fdb55e4b8d",
      "s": "0x46e5006b4a172eaf56cf9115baac36b0b8c229b92c6ba9e6184fc48390d2fd7d",
      "v": 28,
      "creates": null,
      "raw": "0xf86e01850d6b187d3683015f9094796fb5ff91099467f7669c8fb0c68739fd3a9e4089386ec6f08bada40000801ca0062f251453b49352d6844830abe4e5b1f5f44524dc17ba5fb1ab16fdb55e4b8da046e5006b4a172eaf56cf9115baac36b0b8c229b92c6ba9e6184fc48390d2fd7d",
      "networkId": 0,
      "chainId": 0
    }
  ]
}