{
  "hash": "0xea15ef2fe255eae0ac1facbda5707a99d8815899423ed8a5ff994b92a67247c1",
  "parentHash": "0x6279402fd219f7c07c4ae26ab178e8f8d79e941c3bdd04c431473cfb5edd83b6",
  "number": 110497,
  "timestamp": 1439974747,
  "nonce": "0x30a22835d1abc16c",
  "difficulty": 4375556849588,
  "gasLimit": {
    "_hex": "0x2fefd8"
  },
  "gasUsed": {
    "_hex": "0xa410"
  },
  "miner": "0x6Cf387a1C50cF6b09634E0d24fDAa2c06Be0ea95",
  "extraData": "0x476574682f76312e302e312f6c696e75782f676f312e342e32",
  "transactions": [
    {
      "hash": "0x790c4d1828fcfeb260056afe06965e09a59641e25e380ed8a4d0b0833b18c4a0",
      "blockHash": "0xea15ef2fe255eae0ac1facbda5707a99d8815899423ed8a5ff994b92a67247c1",
      "blockNumber": 110497,
      "transactionIndex": 0,
      "confirmations": null,
      "from": "0x6d84df1cFAD609EAc476cBC2553390bFC23Cf6Fc",
      "gasPrice": {
        "_hex": "0xd1860d85e"
      },
      "gasLimit": {
        "_hex": "0x5208"
      },
      "to": "0x32Be343B94f860124dC4fEe278FDCBD38C102D88",
      "value": {
        "_hex": "0x16035a34d4c0c90000"
      },
      "nonce": 6,
      "data": "0x",
      "r": "0x38d261ed83395881729367cd60c25ec2de47d21ae7c8ff0e98d6b5f87dd36900",
      "s": "0x6c76143fbb37b0fa1d645ff46ad2abc49d0178d34942c6d94a11eff34041bfcd",
      "v": 28,
      "creates": null,
      "raw": "0xf86d06850d1860d85e8252089432be343b94f860124dc4fee278fdcbd38c102d888916035a34d4c0c90000801ca038d261ed83395881729367cd60c25ec2de47d21ae7c8ff0e98d6b5f87dd36900a06c76143fbb37b0fa1d645ff46ad2abc49d0178d34942c6d94a11eff34041bfcd",
      "networkId": 0,
      "chainId": 0
    },
    {
      "hash": "0x1b40a1dcbece9f51101e3b1a21856d8f48b49cd87c1649f5f785a6e5d865b8ce",
      "blockHash": "0xea15ef2fe255eae0ac1facbda5707a99d8815899423ed8a5ff994b92a67247c1",
      "blockNumber": 110497,
      "transactionIndex": 1,
      "confirmations": null,
      "from": "0xA4b566f129e5810957eF8cC2F750383E488D35Dd",
      "gasPrice": {
        "_hex": "0xd1860d85e"
      },
      "gasLimit": {
        "_hex": "0x5208"
      },
      "to": "0x32Be343B94f860124dC4fEe278FDCBD38C102D88",
      "value": {
        "_hex": "0x598d3de18af47000"
      },
      "nonce": 5,
      "data": "0x",
      "r": "0x1853bf41764fb9aac72e93b40124a882be61f87037b969ce28dd0cba26a2c82d",
      "s": "0x389554a260de7a938146e8906795f6925a0a29db5eb97b30ce6232a6dd55f255",
      "v": 27,
      "creates": null,
      "raw": "0xf86c05850d1860d85e8252089432be343b94f860124dc4fee278fdcbd38c102d8888598d3de18af47000801ba01853bf41764fb9aac72e93b40124a882be61f87037b969ce28dd0cba26a2c82da0389554a260de7a938146e8906795f6925a0a29db5eb97b30ce6232a6dd55f255",
      "networkId": 0,
      "chainId": 0
    }
  ]
}