{
  "hash": "0x2ba04dcb09096e1db08ba9bc29b5ea005bf3b1dcee389613a81f8981f3189a88",
  "parentHash": "0xdbe852fcb74f7dd6cf2deb17c1925fd8b849e57489fdac1e5d94c7273a46fd83",
  "number": 68215,
  "timestamp": 1439284356,
  "nonce": "0x332931273919a672",
  "difficulty": 1980248959231,
  "gasLimit": {
    "_hex": "0x2fefd8"
  },
  "gasUsed": {
    "_hex": "0x5208"
  },
  "miner": "0x9746c7e1ef2bd21FF3997fa467593a89cb852BD0",
  "extraData": "0x476574682f76312e302e312f77696e646f77732f676f312e342e32",
  "transactions": [
    {
      "hash": "0x825f0e7834f44dea690f3de1aeb2bbb555b393784f5ca86e4c94bdc6a4de21f9",
      "blockHash": "0x2ba04dcb09096e1db08ba9bc29b5ea005bf3b1dcee389613a81f8981f3189a88",
      "blockNumber": 68215,
      "transactionIndex": 0,
      "confirmations": null,
      "from": "0x3788B73459deD4C06fd94526d1bB7f8bEC6bFD19",
      "gasPrice": {
        "_hex": "0xba43b7400"
      },
      "gasLimit": {
        "_hex": "0x5208"
      },
      "to": "0x6747f922385c9a6F9cfDf095F34345257DD597bE",
      "value": {
        "_hex": "0x36ef271c4dd000"
      },
      "nonce": 1,
      "data": "0x",
      "r": "0x15bdb8dd471aa12a666d59991cdacab93a33ed245f80c9ef80a8cbf3dcf91c82",
      "s": "0x378c346e5b474c1f270d0cbbc0aac610183a6c82ae03c27bf8111e9123cb5904",
      "v": 27,
      "creates": null,
      "raw": "0xf86b01850ba43b7400825208946747f922385c9a6f9cfdf095f34345257dd597be8736ef271c4dd000801ba015bdb8dd471aa12a666d59991cdacab93a33ed245f80c9ef80a8cbf3dcf91c82a0378c346e5b474c1f270d0cbbc0aac610183a6c82ae03c27bf8111e9123cb5904",
      "networkId": 0,
      "chainId": 0
    }
  ]
}