{
  "hash": "0x474bf9845d9a670ba39ec6b51b4a7b71be23af08bab065cbd5fb25cbe46774c3",
  "parentHash": "0x0be793749b5b57c26cbde54fd248ef9c15729b598b16b83e729155139c498da7",
  "number": 51876,
  "timestamp": 1439012385,
  "nonce": "0xc6a1bf1762cf2d2a",
  "difficulty": 1562677637999,
  "gasLimit": {
    "_hex": "0xe8e70"
  },
  "gasUsed": {
    "_hex": "0x5208"
  },
  "miner": "0x02020D22dCF88f5eDd66B382D7da019F161fB7e3",
  "extraData": "0x",
  "transactions": [
    {
      "hash": "0x752b5c0693dad65f214775ebe678f2b978f53aeb413fae88612c41c081eb9682",
      "blockHash": "0x474bf9845d9a670ba39ec6b51b4a7b71be23af08bab065cbd5fb25cbe46774c3",
      "blockNumber": 51876,
      "transactionIndex": 0,
      "confirmations": null,
      "from": "0xCA092A957744f6385B1aee5dC694143E8A06F805",
      "gasPrice": {
        "_hex": "0xd079f5d25"
      },
      "gasLimit": {
        "_hex": "0x15f90"
      },
      "to": "0xa76AbaB34b92009191a747E87AD9A3974EB37A8D",
      "value": {
        "_hex": "0x110d9316ec000"
      },
      "nonce": 6,
      "data": "0x",
      "r": "0xbe0a3f8285122c5262a01ee7c0c27d5c76a35f1409fce98ad4061bbc50244ab3",
      "s": "0x3312b2819ca3d18ac707b97dd9ef18c85c05ebf41d25e1935fef876f59607897",
      "v": 27,
      "creates": null,
      "raw": "0xf86c06850d079f5d2583015f9094a76abab34b92009191a747e87ad9a3974eb37a8d870110d9316ec000801ba0be0a3f8285122c5262a01ee7c0c27d5c76a35f1409fce98ad4061bbc50244ab3a03312b2819ca3d18ac707b97dd9ef18c85c05ebf41d25e1935fef876f59607897",
      "networkId": 0,
      "chainId": 0
    }
  ]
}