{
  "hash": "0x2ae8041c82180d3de3d4b94c22b870e9ac1254f0268ec61ad8d27b9e464538b3",
  "parentHash": "0x3109728df2729f9cbef3ba766d538bc5800c6845ca25f6384a16ece1caa845aa",
  "number": 87171,
  "timestamp": 1439588192,
  "nonce": "0x974778e2bbbdf7e5",
  "difficulty": 3063136648149,
  "gasLimit": {
    "_hex": "0x2fefd8"
  },
  "gasUsed": {
    "_hex": "0x5d9f"
  },
  "miner": "0x458F183347F45a4001807728A89F31E9Da9D4A58",
  "extraData": "0x476574682f76312e302e312d38326566323666362f6c696e75782f676f312e34",
  "transactions": [
    {
      "hash": "0xb41c8830e4c5c89899ab07e4d704b5101c711ce0a6f9a5b58f5650b13c6b42c4",
      "blockHash": "0x2ae8041c82180d3de3d4b94c22b870e9ac1254f0268ec61ad8d27b9e464538b3",
      "blockNumber": 87171,
      "transactionIndex": 0,
      "confirmations": null,
      "from": "0x4B11852B35058CBFB5a50c5a007b0c134927Fd8b",
      "gasPrice": {
        "_hex": "0xd6525951e"
      },
      "gasLimit": {
        "_hex": "0x15f90"
      },
      "to": "0xAd8d3a5d2d92EB14bB56CA9f380be35b8EFE0c04",
      "value": {
        "_hex": "0x6f05b59d3b20000"
      },
      "nonce": 7,
      "data": "0xb214faa54141414142414744420000000000000000000000000000000000000000000000",
      "r": "0xba3ff7cbc70c3cc98e6959c314d70bc7f3996b87556e2aa6212a9dd8cca3ea8c",
      "s": "0x152de756372b651b29de0a02a1c3a57cf3a563e109a49c4e0e5a31c93d0df985",
      "v": 27,
      "creates": null,
      "raw": "0xf89107850d6525951e83015f9094ad8d3a5d2d92eb14bb56ca9f380be35b8efe0c048806f05b59d3b20000a4b214faa541414141424147444200000000000000000000000000000000000000000000001ba0ba3ff7cbc70c3cc98e6959c314d70bc7f3996b87556e2aa6212a9dd8cca3ea8ca0152de756372b651b29de0a02a1c3a57cf3a563e109a49c4e0e5a31c93d0df985",
      "networkId": 0,
      "chainId": 0
    }
  ]
}