{
  "hash": "0x34d2b6f82cfe97e89bb19835a5505a7860daed4f5d65d2c8fef64b3d120b7929",
  "parentHash": "0x8f4422d1f8512c6c1a792d1081d3488e6c91bca28d0cd797ba00564d996fae32",
  "number": 103077,
  "timestamp": 1439847289,
  "nonce": "0x752f53e6b27806fd",
  "difficulty": 4178880220979,
  "gasLimit": {
    "_hex": "0x2fefd8"
  },
  "gasUsed": {
    "_hex": "0x5208"
  },
  "miner": "0x9D49F602b0fdb924Bd63DDE2Bd0907E4A07c63a7",
  "extraData": "0x476574682f76312e302e312f6c696e75782f676f312e342e32",
  "transactions": [
    {
      "hash": "0x6f84725bf5c1019b060ef31e21f04d9decde2b149cdac9e2ce35ea3e132e2fcc",
      "blockHash": "0x34d2b6f82cfe97e89bb19835a5505a7860daed4f5d65d2c8fef64b3d120b7929",
      "blockNumber": 103077,
      "transactionIndex": 0,
      "confirmations": null,
      "from": "0x03Ef98f6F8d29683080690Bd0339dF4CfC8b7989",
      "gasPrice": {
        "_hex": "0xba43b7400"
      },
      "gasLimit": {
        "_hex": "0x5208"
      },
      "to": "0xa30e0ACB534c9b3084E8501dA090B4eB16A2C0Cd",
      "value": {
        "_hex": "0xde0b6b3a7640000"
      },
      "nonce": 2,
      "data": "0x",
      "r": "0x4545aff1fa755bfdbc83370fe673729b0758f643ec3d6d0f2b62b3148530bfa6",
      "s": "0x21f188e925d1f089ecd3ea640aa875a7e88ec046c428fc252713099a327aea43",
      "v": 28,
      "creates": null,
      "raw": "0xf86c02850ba43b740082520894a30e0acb534c9b3084e8501da090b4eb16a2c0cd880de0b6b3a7640000801ca04545aff1fa755bfdbc83370fe673729b0758f643ec3d6d0f2b62b3148530bfa6a021f188e925d1f089ecd3ea640aa875a7e88ec046c428fc252713099a327aea43",
      "networkId": 0,
      "chainId": 0
    }
  ]
}