{
  "hash": "0x9136ff639f7bf68327d5aac7a67b09d1cbf28d72edcc191cf50a3c52087bf611",
  "parentHash": "0xd7d1c21eaccfdc42e37aec941ed6e89d8ebcf0e5059c94a636b3ec2c2b8e5e8c",
  "number": 110674,
  "timestamp": 1439977654,
  "nonce": "0xad9e31b3dd3f2f14",
  "difficulty": 4373328590159,
  "gasLimit": {
    "_hex": "0x2fefd8"
  },
  "gasUsed": {
    "_hex": "0xa410"
  },
  "miner": "0xe6A7a1d47ff21B6321162AEA7C6CB457D5476Bca",
  "extraData": "0x476574682f76312e302e312d38326566323666362f6c696e75782f676f312e34",
  "transactions": [
    {
      "hash": "0x56deb4ea92fb50f578fccf1fe27fa8c71851b66532ddb10fbb38dadbb363f14c",
      "blockHash": "0x9136ff639f7bf68327d5aac7a67b09d1cbf28d72edcc191cf50a3c52087bf611",
      "blockNumber": 110674,
      "transactionIndex": 0,
      "confirmations": null,
      "from": "0x494E9242DCB2A208fF82E5E639a15b4B4623AA57",
      "gasPrice": {
        "_hex": "0xd5832c814"
      },
      "gasLimit": {
        "_hex": "0x5208"
      },
      "to": "0x32Be343B94f860124dC4fEe278FDCBD38C102D88",
      "value": {
        "_hex": "0x44223ae78f1a8c00"
      },
      "nonce": 0,
      "data": "0x",
      "r": "0x561f04e6474b9f10f1a7ecd1c0ab7162873d5a85259c56f07dc63d44654e7519",
      "s": "0x3754a768190535e5d5a3fba161a78afd8dbde8d220fbe290bc6962f19cf74dee",
      "v": 27,
      "creates": null,
      "raw": "0xf86c80850d5832c8148252089432be343b94f860124dc4fee278fdcbd38c102d888844223ae78f1a8c00801ba0561f04e6474b9f10f1a7ecd1c0ab7162873d5a85259c56f07dc63d44654e7519a03754a768190535e5d5a3fba161a78afd8dbde8d220fbe290bc6962f19cf74dee",
      "networkId": 0,
      "chainId": 0
    },
    {
      "hash": "0x8d58f1aacb885f317d9432ce4969151917384215b0db103f789772d2ee3f90bf",
      "blockHash": "0x9136ff639f7bf68327d5aac7a67b09d1cbf28d72edcc191cf50a3c52087bf611",
      "blockNumber": 110674,
      "transactionIndex": 1,
      "confirmations": null,
      "from": "0x974A55472732FA7D1EdD5737b0A881F41997Ae00",
      "gasPrice": {
        "_hex": "0xd5832c814"
      },
      "gasLimit": {
        "_hex": "0x5208"
      },
      "to": "0x32Be343B94f860124dC4fEe278FDCBD38C102D88",
      "value": {
        "_hex": "0x1562b30a7484400"
      },
      "nonce": 1,
      "data": "0x",
      "r": "0x9acbf7094104c43421c14298d3be9e81eda8989f49b41431effe7ca22c6f9225",
      "s": "0x173c67d1a228db7fe08b927d0dc46171a62c1eacb259e8b7978fbf11783f75ee",
      "v": 28,
      "creates": null,
      "raw": "0xf86c01850d5832c8148252089432be343b94f860124dc4fee278fdcbd38c102d888801562b30a7484400801ca09acbf7094104c43421c14298d3be9e81eda8989f49b41431effe7ca22c6f9225a0173c67d1a228db7fe08b927d0dc46171a62c1eacb259e8b7978fbf11783f75ee",
      "networkId": 0,
      "chainId": 0
    }
  ]
}