{
  "hash": "0xf90795b40253e058d8f28c37338da3ef6e9d97af8da9e9403cd6007ffb486953",
  "parentHash": "0x50f9250fac6b2ab763dc8cab429553983deeb97a34c3da31090c15be823f4051",
  "number": 104013,
  "timestamp": 1439862760,
  "nonce": "0x7c533acfab530165",
  "difficulty": 4264988800979,
  "gasLimit": {
    "_hex": "0x2fefd8"
  },
  "gasUsed": {
    "_hex": "0x5208"
  },
  "miner": "0x9746c7e1ef2bd21FF3997fa467593a89cb852BD0",
  "extraData": "0x476574682f76312e302e312f77696e646f77732f676f312e342e32",
  "transactions": [
    {
      "hash": "0x6d4add748f1d870e25887f99cbafc5c1ec19c6003106d96e40dfd19bcdd3ae27",
      "blockHash": "0xf90795b40253e058d8f28c37338da3ef6e9d97af8da9e9403cd6007ffb486953",
      "blockNumber": 104013,
      "transactionIndex": 0,
      "confirmations": null,
      "from": "0x007f7f58D3eb5b7510A301eCC749FC1fCDDBE14D",
      "gasPrice": {
        "_hex": "0xe0cfe7246"
      },
      "gasLimit": {
        "_hex": "0x15f90"
      },
      "to": "0xb1abce2918E21ddb93AA452731a12672A3d9F75a",
      "value": {
        "_hex": "0x4563918244f40000"
      },
      "nonce": 239,
      "data": "0x",
      "r": "0x6d51ef84a1a18ca9dc786949e4de0d5aad5835434825f05d42568a3d3366e714",
      "s": "0x292f7deb5cfcf2a396b9f7b5375f34556ae36cac87d4cf68a966ccaae8a459b6",
      "v": 27,
      "creates": null,
      "raw": "0xf86e81ef850e0cfe724683015f9094b1abce2918e21ddb93aa452731a12672a3d9f75a884563918244f40000801ba06d51ef84a1a18ca9dc786949e4de0d5aad5835434825f05d42568a3d3366e714a0292f7deb5cfcf2a396b9f7b5375f34556ae36cac87d4cf68a966ccaae8a459b6",
      "networkId": 0,
      "chainId": 0
    }
  ]
}