{
  "hash": "0x5fe35670de4bd4928ab390899c0933edee0c8e934e9ed9237057f6275a40b98d",
  "parentHash": "0x0504b678c2ffd20d1619e97c8f82fb9740d25796a55bc86d359f4fa9b24fc1b8",
  "number": 111190,
  "timestamp": 1439986240,
  "nonce": "0xc7431d8db9a11ab1",
  "difficulty": 4403055960492,
  "gasLimit": {
    "_hex": "0x2fefd8"
  },
  "gasUsed": {
    "_hex": "0xa410"
  },
  "miner": "0xC603Ab5ef41fC61AA8b76bEddb09e3Cfcbb174BD",
  "extraData": "0x476574682f76312e302e312f77696e646f77732f676f312e342e32",
  "transactions": [
    {
      "hash": "0x53801270c7a43f816ae003faf5617ac7a8bd5a1a2cc11fdbfd913109bffe3f78",
      "blockHash": "0x5fe35670de4bd4928ab390899c0933edee0c8e934e9ed9237057f6275a40b98d",
      "blockNumber": 111190,
      "transactionIndex": 0,
      "confirmations": null,
      "from": "0xb1abce2918E21ddb93AA452731a12672A3d9F75a",
      "gasPrice": {
        "_hex": "0xddf549de9"
      },
      "gasLimit": {
        "_hex": "0x5208"
      },
      "to": "0x32Be343B94f860124dC4fEe278FDCBD38C102D88",
      "value": {
        "_hex": "0x455f1f8a3d5d1c00"
      },
      "nonce": 179,
      "data": "0x",
      "r": "0x0153a25a1328ec1cfb01b4e92259e2d257d9ef0467ab37a5b7d3eed40fd214ea",
      "s": "0x1e7cbe548923a40cfcf1fa398f88b8e9728d607913f8bd889da070da146a95ea",
      "v": 27,
      "creates": null,
      "raw": "0xf86d81b3850ddf549de98252089432be343b94f860124dc4fee278fdcbd38c102d8888455f1f8a3d5d1c00801ba00153a25a1328ec1cfb01b4e92259e2d257d9ef0467ab37a5b7d3eed40fd214eaa01e7cbe548923a40cfcf1fa398f88b8e9728d607913f8bd889da070da146a95ea",
      "networkId": 0,
      "chainId": 0
    },
    {
      "hash": "0x39cc2a7200e0ee43e121e2f9bbb880c3f8b0b86f5b55ae4a0a62bd98d7f29801",
      "blockHash": "0x5fe35670de4bd4928ab390899c0933edee0c8e934e9ed9237057f6275a40b98d",
      "blockNumber": 111190,
      "transactionIndex": 1,
      "confirmations": null,
      "from": "0x4E05f699462d47eE2AD34E2C387b99932EBAB4fe",
      "gasPrice": {
        "_hex": "0xba43b7400"
      },
      "gasLimit": {
        "_hex": "0x15f90"
      },
      "to": "0xb1A2a1e9b8AC33fdcB2118b73A875b096AEd24aD",
      "value": {
        "_hex": "0x45400a8fd5330000"
      },
      "nonce": 0,
      "data": "0x",
      "r": "0x277a87d2876028bb9082d7d3be26f5aad72f3f1b5f488f97030fa3111d8634b8",
      "s": "0x027ea533f1c9ec630bccea134a7697229ebfb31783c6d7aeb6d978188e88def4",
      "v": 27,
      "creates": null,
      "raw": "0xf86d80850ba43b740083015f9094b1a2a1e9b8ac33fdcb2118b73a875b096aed24ad8845400a8fd5330000801ba0277a87d2876028bb9082d7d3be26f5aad72f3f1b5f488f97030fa3111d8634b8a0027ea533f1c9ec630bccea134a7697229ebfb31783c6d7aeb6d978188e88def4",
      "networkId": 0,
      "chainId": 0
    }
  ]
}