{
  "hash": "0xc4037aa70d42c98d812a30c706f2beba7bb010018ecc17d40cfeca225e19f340",
  "parentHash": "0x8fd61a7e361b1d3f1e74d5a6d2d50937986092c8a011fe594618286c8e6bb254",
  "number": 114612,
  "timestamp": 1440043356,
  "nonce": "0x5d29324b4fb5e917",
  "difficulty": 4496841577978,
  "gasLimit": {
    "_hex": "0x2fefd8"
  },
  "gasUsed": {
    "_hex": "0xa410"
  },
  "miner": "0xb6E2d440C46510EC44266A3f58165E3956173df0",
  "extraData": "0x476574682f76312e302e312f77696e646f77732f676f312e342e32",
  "transactions": [
    {
      "hash": "0x4f88c86ba63e14be84202487a26ee79c3916a01cca8d45765d8841238884a50a",
      "blockHash": "0xc4037aa70d42c98d812a30c706f2beba7bb010018ecc17d40cfeca225e19f340",
      "blockNumber": 114612,
      "transactionIndex": 0,
      "confirmations": null,
      "from": "0x9b760457B75C17F09C52eEa70b478008fD04c941",
      "gasPrice": {
        "_hex": "0xd810a9d07"
      },
      "gasLimit": {
        "_hex": "0x15f90"
      },
      "to": "0xb2e9D76bf50Fc36bf7d3944b63e9Ca889b699968",
      "value": {
        "_hex": "0x3cf54b7a3fe740000"
      },
      "nonce": 2,
      "data": "0x",
      "r": "0xb16b10fcd845395b49d51725db4bb66c63b41dcb1b827ec2d9bfd70560b5eb05",
      "s": "0x163415ff07c3c82d87998978272faf7199934e0c27094d78321641c95a1ffe21",
      "v": 28,
      "creates": null,
      "raw": "0xf86e02850d810a9d0783015f9094b2e9d76bf50fc36bf7d3944b63e9ca889b6999688903cf54b7a3fe740000801ca0b16b10fcd845395b49d51725db4bb66c63b41dcb1b827ec2d9bfd70560b5eb05a0163415ff07c3c82d87998978272faf7199934e0c27094d78321641c95a1ffe21",
      "networkId": 0,
      "chainId": 0
    },
    {
      "hash": "0xa7cd7843b2a1c86250d5f237398ced44f01cadb6acc9f8f528b16d8c92da64a3",
      "blockHash": "0xc4037aa70d42c98d812a30c706f2beba7bb010018ecc17d40cfeca225e19f340",
      "blockNumber": 114612,
      "transactionIndex": 1,
      "confirmations": null,
      "from": "0x120A270bbC009644e35F0bB6ab13f95b8199c4ad",
      "gasPrice": {
        "_hex": "0xcf07df826"
      },
      "gasLimit": {
        "_hex": "0x3d090"
      },
      "to": "0x8A6f464279E4773Dc2f1D419B9Fd06Fbdd7e4Ba7",
      "value": {
        "_hex": "0xefcf145bdb6fd000"
      },
      "nonce": 935,
      "data": "0x",
      "r": "0x038444a8049e6ac1f7b0271da6d01be9f49511ade78c112ab7208d1a964d2d87",
      "s": "0x0bca065a2d6896ec128b2f24924d11ffb4bf920b9f49eb79c09768cfeb83317f",
      "v": 28,
      "creates": null,
      "raw": "0xf86f8203a7850cf07df8268303d090948a6f464279e4773dc2f1d419b9fd06fbdd7e4ba788efcf145bdb6fd000801ca0038444a8049e6ac1f7b0271da6d01be9f49511ade78c112ab7208d1a964d2d87a00bca065a2d6896ec128b2f24924d11ffb4bf920b9f49eb79c09768cfeb83317f",
      "networkId": 0,
      "chainId": 0
    }
  ]
}