{
  "hash": "0x30875317d49b2acf3572425780d3d411da3c2f9b654850ec54e85a68bc2e43d8",
  "parentHash": "0xa3c578f553c58d1197b2ac1ff47f534cae9d997e49dfe47134e89588175fae34",
  "number": 65125,
  "timestamp": 1439231822,
  "nonce": "0x5fe8b7c7b3be05de",
  "difficulty": 1925663561840,
  "gasLimit": {
    "_hex": "0x2fefd8"
  },
  "gasUsed": {
    "_hex": "0x5208"
  },
  "miner": "0xEF247E639d49461D25F57e9362CadE3120910Ce0",
  "extraData": "0x476574682f76312e302e312f6c696e75782f676f312e342e32",
  "transactions": [
    {
      "hash": "0x9a87769d257e0eeddd576a9669c5ac6b3700f8f38e9f6036738423736c0559f6",
      "blockHash": "0x30875317d49b2acf3572425780d3d411da3c2f9b654850ec54e85a68bc2e43d8",
      "blockNumber": 65125,
      "transactionIndex": 0,
      "confirmations": null,
      "from": "0x9A147fb9a98243cBDAD78EF6F7976D190F5F88e7",
      "gasPrice": {
        "_hex": "0xba43b7400"
      },
      "gasLimit": {
        "_hex": "0x5208"
      },
      "to": "0x91200a5f9c433656D627641f35b0eeeEd852E50d",
      "value": {
        "_hex": "0x4d2f11674142000"
      },
      "nonce": 1,
      "data": "0x",
      "r": "0xcf928e87758d0639cd708c98389ab150c2a2b34b5249a9c68c0402dddc295b8b",
      "s": "0x1f18fd45b858b5f861fd61bc20dbdad9f9e16bb9f2f24e13d0b3cdf81b5999fe",
      "v": 28,
      "creates": null,
      "raw": "0xf86c01850ba43b74008252089491200a5f9c433656d627641f35b0eeeed852e50d8804d2f11674142000801ca0cf928e87758d0639cd708c98389ab150c2a2b34b5249a9c68c0402dddc295b8ba01f18fd45b858b5f861fd61bc20dbdad9f9e16bb9f2f24e13d0b3cdf81b5999fe",
      "networkId": 0,
      "chainId": 0
    }
  ]
}