{
  "hash": "0xa2a63cf0a832013ad7a6a70fd3f56f7c29a8f127e3971cbaf90abe40d91785ca",
  "parentHash": "0x983470a0f309e126bb90e8ebae66bde97e5090d9052a2e280e489ab4a14e0262",
  "number": 115435,
  "timestamp": 1440057205,
  "nonce": "0x4b272976077382e2",
  "difficulty": 4564978888907,
  "gasLimit": {
    "_hex": "0x2fefd8"
  },
  "gasUsed": {
    "_hex": "0x5208"
  },
  "miner": "0x52bc44d5378309EE2abF1539BF71dE1b7d7bE3b5",
  "extraData": "0x476574682f76312e302e312d61383839306436312f6c696e75782f676f312e34",
  "transactions": [
    {
      "hash": "0x09084883bd88f73c32bd87a7474fa666ac254080fd7c93f6c227693f33b7de1a",
      "blockHash": "0xa2a63cf0a832013ad7a6a70fd3f56f7c29a8f127e3971cbaf90abe40d91785ca",
      "blockNumber": 115435,
      "transactionIndex": 0,
      "confirmations": null,
      "from": "0xB6AC12CefF0375Da80503AcCa54bf3061Fa917a8",
      "gasPrice": {
        "_hex": "0xd12479291"
      },
      "gasLimit": {
        "_hex": "0x15f90"
      },
      "to": "0x5fF827e73C5B866c300b824fe12719a3DD350513",
      "value": {
        "_hex": "0xd02ab486cedc0000"
      },
      "nonce": 23,
      "data": "0x",
      "r": "0x2989bf96cd026cf0b9ed9bc4f6e2279b5b332079051ccc3e38dfdced317d20e3",
      "s": "0x32b32d98f61744f0fe027a82914f69a5c5dc3d845f762db988103aadbf56e25b",
      "v": 27,
      "creates": null,
      "raw": "0xf86d17850d1247929183015f90945ff827e73c5b866c300b824fe12719a3dd35051388d02ab486cedc0000801ba02989bf96cd026cf0b9ed9bc4f6e2279b5b332079051ccc3e38dfdced317d20e3a032b32d98f61744f0fe027a82914f69a5c5dc3d845f762db988103aadbf56e25b",
      "networkId": 0,
      "chainId": 0
    }
  ]
}