{
  "hash": "0xaa51b76e3b153dedabc00dc89850f6faa2ae2e7f496a45b90860785363c9c85a",
  "parentHash": "0x1c11969e78b08fec908c53dca5aefd6d80dfee066d3740f3136ed12f71e00b17",
  "number": 115267,
  "timestamp": 1440054163,
  "nonce": "0xdb8c0c0b9d113f8e",
  "difficulty": 4560614412655,
  "gasLimit": {
    "_hex": "0x2fefd8"
  },
  "gasUsed": {
    "_hex": "0x5208"
  },
  "miner": "0x0037ce3d4B7f8729C8607D8D0248252Be68202c0",
  "extraData": "0x476574682f76312e302e312f77696e646f77732f676f312e342e32",
  "transactions": [
    {
      "hash": "0xe2b0fad6d9b7a5a2255b68c12016c6e3f0937ee2c030bf2d00e75ba031c966f7",
      "blockHash": "0xaa51b76e3b153dedabc00dc89850f6faa2ae2e7f496a45b90860785363c9c85a",
      "blockNumber": 115267,
      "transactionIndex": 0,
      "confirmations": null,
      "from": "0x32Be343B94f860124dC4fEe278FDCBD38C102D88",
      "gasPrice": {
        "_hex": "0xcf7bc3c8a"
      },
      "gasLimit": {
        "_hex": "0x5208"
      },
      "to": "0xf01e25B76A4274d2e5af5810302E4230c8A515D3",
      "value": {
        "_hex": "0x2ed4302f2df570000"
      },
      "nonce": 1420,
      "data": "0x",
      "r": "0x2246f120d1b9ffc9f78ede2fc6da555fccc95e29adafa193fb054943dabd4583",
      "s": "0x6eff0121954a8ec255babd4f9affd0f0283c81c571a00551903c7bdc6cb1619f",
      "v": 28,
      "creates": null,
      "raw": "0xf86f82058c850cf7bc3c8a82520894f01e25b76a4274d2e5af5810302e4230c8a515d38902ed4302f2df570000801ca02246f120d1b9ffc9f78ede2fc6da555fccc95e29adafa193fb054943dabd4583a06eff0121954a8ec255babd4f9affd0f0283c81c571a00551903c7bdc6cb1619f",
      "networkId": 0,
      "chainId": 0
    }
  ]
}