{
  "hash": "0x705f2b67044235fc9d646c8b36ab59b00ffc8e1d34e5551ebe99837b0134bd84",
  "parentHash": "0x87eacbdcd9ea7513f3e8a1103ee939f87c99b9c1986bef22cb30798426e0ae94",
  "number": 65732,
  "timestamp": 1439242023,
  "nonce": "0xc7be3b9fa8cb9077",
  "difficulty": 1943471098260,
  "gasLimit": {
    "_hex": "0x2fefd8"
  },
  "gasUsed": {
    "_hex": "0x5208"
  },
  "miner": "0x0eDEd3DA479d0beF8eeC92A76644D3f4E3C177f7",
  "extraData": "0x476574682f76312e302e312f6c696e75782f676f312e342e32",
  "transactions": [
    {
      "hash": "0x45882e09ed132f953ee9eb04a344914b2e1bae14699f4310821c0bce32f70e11",
      "blockHash": "0x705f2b67044235fc9d646c8b36ab59b00ffc8e1d34e5551ebe99837b0134bd84",
      "blockNumber": 65732,
      "transactionIndex": 0,
      "confirmations": null,
      "from": "0x2910543Af39abA0Cd09dBb2D50200b3E800A63D2",
      "gasPrice": {
        "_hex": "0xda2b6d7cd"
      },
      "gasLimit": {
        "_hex": "0x5208"
      },
      "to": "0xd767b087480fEa2168C99Bd35e6cB7bAfBb4a11b",
      "value": {
        "_hex": "0x1a043a59465d78000"
      },
      "nonce": 187,
      "data": "0x",
      "r": "0x647fc47f90d01045ea04a5425c1446d8cb8f095493a3d7fafc6cc8b925e56800",
      "s": "0x77e75d1eded28c24b67a88fa534cded5440cd2bd6b8cbc24ab98ed1c3cfdfde0",
      "v": 28,
      "creates": null,
      "raw": "0xf86e81bb850da2b6d7cd82520894d767b087480fea2168c99bd35e6cb7bafbb4a11b8901a043a59465d78000801ca0647fc47f90d01045ea04a5425c1446d8cb8f095493a3d7fafc6cc8b925e56800a077e75d1eded28c24b67a88fa534cded5440cd2bd6b8cbc24ab98ed1c3cfdfde0",
      "networkId": 0,
      "chainId": 0
    }
  ]
}