{
  "hash": "0xf08c1aa3bc6d6ba8114e7f9e37be6e66fcaee0d74f9175cc6dcac7fb03a135d2",
  "parentHash": "0xc2adc7032f97ecc0a3e8029f0c84f7b8601b605824c6e3857feb8d3eadb5ef4f",
  "number": 115584,
  "timestamp": 1440059667,
  "nonce": "0x75b9b9c3c4e70567",
  "difficulty": 4602947730317,
  "gasLimit": {
    "_hex": "0x2fefd8"
  },
  "gasUsed": {
    "_hex": "0xa410"
  },
  "miner": "0xbb7B8287f3F0a933474a79eAe42CBCa977791171",
  "extraData": "0x476574682f4c5649562f76312e302e312f6c696e75782f676f312e342e32",
  "transactions": [
    {
      "hash": "0x92b75b64efbd4b695b6175a7b202b6ba5dbf2ead26a48cd1803c42ed47ce8110",
      "blockHash": "0xf08c1aa3bc6d6ba8114e7f9e37be6e66fcaee0d74f9175cc6dcac7fb03a135d2",
      "blockNumber": 115584,
      "transactionIndex": 0,
      "confirmations": null,
      "from": "0x32Be343B94f860124dC4fEe278FDCBD38C102D88",
      "gasPrice": {
        "_hex": "0xde49f2fc5"
      },
      "gasLimit": {
        "_hex": "0x5208"
      },
      "to": "0xA0eadCdC3d2cc51DaA7Ef7e65370D2d46Ca9e6D9",
      "value": {
        "_hex": "0x49b7922b424730000"
      },
      "nonce": 1439,
      "data": "0x",
      "r": "0x8bb82bb9dd1b6d6b4b4bf68e7bb15304c3f1e2019974a5aee4e1e09efee82eca",
      "s": "0x7732a1cd8c8929a27c2ded430eb73e71e1a7106ce874dd51663101abb694a3f6",
      "v": 27,
      "creates": null,
      "raw": "0xf86f82059f850de49f2fc582520894a0eadcdc3d2cc51daa7ef7e65370d2d46ca9e6d989049b7922b424730000801ba08bb82bb9dd1b6d6b4b4bf68e7bb15304c3f1e2019974a5aee4e1e09efee82ecaa07732a1cd8c8929a27c2ded430eb73e71e1a7106ce874dd51663101abb694a3f6",
      "networkId": 0,
      "chainId": 0
    },
    {
      "hash": "0x2056747f50e44de7742b651d2e3147834e847485a4d53edef5256eeaa946c3bb",
      "blockHash": "0xf08c1aa3bc6d6ba8114e7f9e37be6e66fcaee0d74f9175cc6dcac7fb03a135d2",
      "blockNumber": 115584,
      "transactionIndex": 1,
      "confirmations": null,
      "from": "0x02020D22dCF88f5eDd66B382D7da019F161fB7e3",
      "gasPrice": {
        "_hex": "0xddff020d1"
      },
      "gasLimit": {
        "_hex": "0x15f90"
      },
      "to": "0x029dC24e25DB54Ab740AaBCfeecA04b1fa8aa188",
      "value": {
        "_hex": "0x2386f26fc10000"
      },
      "nonce": 39,
      "data": "0x",
      "r": "0xfb96fc177dd50aefd6617eff214fb206ed67da44663f099e40a5691aa78decd5",
      "s": "0x17b0c41c4f783e84d231e458f3f152fd8430e5f63c16715a41a7dc683a38c13e",
      "v": 27,
      "creates": null,
      "raw": "0xf86c27850ddff020d183015f9094029dc24e25db54ab740aabcfeeca04b1fa8aa188872386f26fc10000801ba0fb96fc177dd50aefd6617eff214fb206ed67da44663f099e40a5691aa78decd5a017b0c41c4f783e84d231e458f3f152fd8430e5f63c16715a41a7dc683a38c13e",
      "networkId": 0,
      "chainId": 0
    }
  ]
}