{
  "hash": "0x80e9ece03f0bab094e40c60eafd0fb0e89ee1b8029e07406e4e7fa23b9ddfe14",
  "parentHash": "0x03121ed08ebf52c7b3ee0292384bd5658f1159171e9928f4724ab74043615f1e",
  "number": 113854,
  "timestamp": 1440030926,
  "nonce": "0x7d9997296a1b8a70",
  "difficulty": 4431850428444,
  "gasLimit": {
    "_hex": "0x2fefd8"
  },
  "gasUsed": {
    "_hex": "0x5208"
  },
  "miner": "0xe6A7a1d47ff21B6321162AEA7C6CB457D5476Bca",
  "extraData": "0x476574682f76312e302e312d38326566323666362f6c696e75782f676f312e34",
  "transactions": [
    {
      "hash": "0x752eae2f8ebfad93f964dad5b1280adda2fdf7a13bea1b4ef096a42fd9693c4b",
      "blockHash": "0x80e9ece03f0bab094e40c60eafd0fb0e89ee1b8029e07406e4e7fa23b9ddfe14",
      "blockNumber": 113854,
      "transactionIndex": 0,
      "confirmations": null,
      "from": "0xc93a69dFC0fb3E867D9207599f7fe87d51619635",
      "gasPrice": {
        "_hex": "0xba43b7400"
      },
      "gasLimit": {
        "_hex": "0x5208"
      },
      "to": "0xC47Aaa860008be6f65B58c6C6E02a84e666EfE31",
      "value": {
        "_hex": "0x821a7524be7946000"
      },
      "nonce": 17,
      "data": "0x",
      "r": "0xb8281dd77ad2cb87b325c99c35cdd9de46ff1e38b408c4e9065eba06b29ebec1",
      "s": "0x6fc0140f4e55be649c5db75b2f8fda863592d6631cd052ceb4a945f3325e1205",
      "v": 27,
      "creates": null,
      "raw": "0xf86d11850ba43b740082520894c47aaa860008be6f65b58c6c6e02a84e666efe31890821a7524be7946000801ba0b8281dd77ad2cb87b325c99c35cdd9de46ff1e38b408c4e9065eba06b29ebec1a06fc0140f4e55be649c5db75b2f8fda863592d6631cd052ceb4a945f3325e1205",
      "networkId": 0,
      "chainId": 0
    }
  ]
}