{
  "hash": "0x615834d3acaf313804291a0a305b80d1ee273abdc67373bf337c4b5077fea2f3",
  "parentHash": "0x467ce691a3bc0b05b7ca57d9a12faca527256a818da0999d8320b0acea2ff5e7",
  "number": 82071,
  "timestamp": 1439513040,
  "nonce": "0xd820f1033fe8e3fc",
  "difficulty": 2394027453689,
  "gasLimit": {
    "_hex": "0x2fefd8"
  },
  "gasUsed": {
    "_hex": "0x5208"
  },
  "miner": "0x458F183347F45a4001807728A89F31E9Da9D4A58",
  "extraData": "0x476574682f76312e302e312d38326566323666362f6c696e75782f676f312e34",
  "transactions": [
    {
      "hash": "0x3c6f2c64a5c412108dfa3d6e958ff6edd1eb079330ee0f7aa6ec2f0d9378c415",
      "blockHash": "0x615834d3acaf313804291a0a305b80d1ee273abdc67373bf337c4b5077fea2f3",
      "blockNumber": 82071,
      "transactionIndex": 0,
      "confirmations": null,
      "from": "0x32Be343B94f860124dC4fEe278FDCBD38C102D88",
      "gasPrice": {
        "_hex": "0xe0c1d3488"
      },
      "gasLimit": {
        "_hex": "0x5208"
      },
      "to": "0x28a9D631e5C22Ee57312DDdc75936822a2243A05",
      "value": {
        "_hex": "0x17a0a8819af45a000"
      },
      "nonce": 622,
      "data": "0x",
      "r": "0xe35cc4e85db0588f88eebbe9059b18f3e013d8831e6cde26610648cb5180e984",
      "s": "0x2e4ba91f1f65707c463e97bb5adb26e085588f3e25141dcca0a142073e58b365",
      "v": 28,
      "creates": null,
      "raw": "0xf86f82026e850e0c1d34888252089428a9d631e5c22ee57312dddc75936822a2243a0589017a0a8819af45a000801ca0e35cc4e85db0588f88eebbe9059b18f3e013d8831e6cde26610648cb5180e984a02e4ba91f1f65707c463e97bb5adb26e085588f3e25141dcca0a142073e58b365",
      "networkId": 0,
      "chainId": 0
    }
  ]
}