{
  "hash": "0xf5bba9f889341cdc3871d2fd62743ffb212384de16a3a59584932b96507f7422",
  "parentHash": "0xb70e3450d3e015dde55faaff678ca001bf44760442dcda7b8a93d087f29a965f",
  "number": 61311,
  "timestamp": 1439170465,
  "nonce": "0x03b18782cc82ed3b",
  "difficulty": 1723569009153,
  "gasLimit": {
    "_hex": "0x2fefd5"
  },
  "gasUsed": {
    "_hex": "0x53fe"
  },
  "miner": "0xbb7B8287f3F0a933474a79eAe42CBCa977791171",
  "extraData": "0x476574682f4c5649562f76312e302e312f6c696e75782f676f312e342e32",
  "transactions": [
    {
      "hash": "0x3ed3b7b9cbb083e1bdb543759546c37d39854a975e4553a0cb280d4b1a4ad121",
      "blockHash": "0xf5bba9f889341cdc3871d2fd62743ffb212384de16a3a59584932b96507f7422",
      "blockNumber": 61311,
      "transactionIndex": 0,
      "confirmations": null,
      "from": "0xc8ebccC5F5689Fa8659d83713341e5aD19349448",
      "gasPrice": {
        "_hex": "0xe039b80ba"
      },
      "gasLimit": {
        "_hex": "0x15f90"
      },
      "to": "0xC7d3E431Be6222543364408a94C12C0D089Be305",
      "value": {
        "_hex": "0x0"
      },
      "nonce": 19,
      "data": "0x12065fe0",
      "r": "0x4e6d1a5102e39a5f07be9c9b1172650bf4d844f49c1983f18814b13f74dac755",
      "s": "0x5c9354dd55c395467ae7d33389616cbd7a41d1e0aa91d6350240bb9c98878a7d",
      "v": 28,
      "creates": null,
      "raw": "0xf86913850e039b80ba83015f9094c7d3e431be6222543364408a94c12c0d089be305808412065fe01ca04e6d1a5102e39a5f07be9c9b1172650bf4d844f49c1983f18814b13f74dac755a05c9354dd55c395467ae7d33389616cbd7a41d1e0aa91d6350240bb9c98878a7d",
      "networkId": 0,
      "chainId": 0
    }
  ]
}