{
  "hash": "0x76294c580dcb7e7555b1d424c630194cee1236d6f3b70d18ed6b40adbbbcfb9f",
  "parentHash": "0x0027c05bad474d70480a1a02bb59788bb0053607d335c3a1181506a1a0dacd5c",
  "number": 96779,
  "timestamp": 1439745592,
  "nonce": "0x2bcb033d2aa9971b",
  "difficulty": 3763409553929,
  "gasLimit": {
    "_hex": "0x2fefd8"
  },
  "gasUsed": {
    "_hex": "0x5208"
  },
  "miner": "0xf8E0CA3Ed80bd541b94BEdCf259e8CF2141A9523",
  "extraData": "0x476574682f76312e302e312f77696e646f77732f676f312e342e32",
  "transactions": [
    {
      "hash": "0x33c5bb14a1e7b6851111ca5568aa75cc65b2271dccad37751ee1fde0f95588c4",
      "blockHash": "0x76294c580dcb7e7555b1d424c630194cee1236d6f3b70d18ed6b40adbbbcfb9f",
      "blockNumber": 96779,
      "transactionIndex": 0,
      "confirmations": null,
      "from": "0x7884D470204862a0d1A21122F41ee77430396Ee5",
      "gasPrice": {
        "_hex": "0xcb92d73b6"
      },
      "gasLimit": {
        "_hex": "0x15f90"
      },
      "to": "0x20294778c579771db51F8E4259916Ba1d6a94fb5",
      "value": {
        "_hex": "0x0"
      },
      "nonce": 20,
      "data": "0x",
      "r": "0x3e8cc8ca143383f4cbbb6087e75f3cdf868253a402ea9050dcf5e9924da790a6",
      "s": "0x7e7da145fd5d7aadc1b7bd80cc417a20a160b2805a92f53aa57fe38b8ba75f62",
      "v": 27,
      "creates": null,
      "raw": "0xf86514850cb92d73b683015f909420294778c579771db51f8e4259916ba1d6a94fb580801ba03e8cc8ca143383f4cbbb6087e75f3cdf868253a402ea9050dcf5e9924da790a6a07e7da145fd5d7aadc1b7bd80cc417a20a160b2805a92f53aa57fe38b8ba75f62",
      "networkId": 0,
      "chainId": 0
    }
  ]
}