{
  "hash": "0xc78b5d5412d50a8fa2335d5445fc183abf58fa227960057344b82ee28dff65dd",
  "parentHash": "0xedfe063bb7493455c2c10a351f151c8e446e56456e523cc5c3deed75f734029d",
  "number": 82137,
  "timestamp": 1439514296,
  "nonce": "0x9de6aa65e3a8ebb8",
  "difficulty": 2384675262175,
  "gasLimit": {
    "_hex": "0x2fefd8"
  },
  "gasUsed": {
    "_hex": "0xa674"
  },
  "miner": "0x9746c7e1ef2bd21FF3997fa467593a89cb852BD0",
  "extraData": "0x476574682f76312e302e312f77696e646f77732f676f312e342e32",
  "transactions": [
    {
      "hash": "0x3756211e2f43390f9cd3b1e1fabea726870a3ca4b6fa18a07aaa15dee2fcdfbd",
      "blockHash": "0xc78b5d5412d50a8fa2335d5445fc183abf58fa227960057344b82ee28dff65dd",
      "blockNumber": 82137,
      "transactionIndex": 0,
      "confirmations": null,
      "from": "0xC0A02ab94Ebe56D045B41B629b98462e3a024A93",
      "gasPrice": {
        "_hex": "0x110c8f7d8de"
      },
      "gasLimit": {
        "_hex": "0xc350"
      },
      "to": "0x2910543Af39abA0Cd09dBb2D50200b3E800A63D2",
      "value": {
        "_hex": "0xc59ea48da190000"
      },
      "nonce": 2,
      "data": "0x454e54573057474647",
      "r": "0x24888d9dca319cba11ed822202b4b2cea14c966877a36ea5f8c5562911417abd",
      "s": "0x9dd05c0e4f3f509e3d48b119e1f0dc29f48f267040141bcc10a17a292c829bd3",
      "v": 27,
      "creates": null,
      "raw": "0xf87602860110c8f7d8de82c350942910543af39aba0cd09dbb2d50200b3e800a63d2880c59ea48da19000089454e545730574746471ba024888d9dca319cba11ed822202b4b2cea14c966877a36ea5f8c5562911417abda09dd05c0e4f3f509e3d48b119e1f0dc29f48f267040141bcc10a17a292c829bd3",
      "networkId": 0,
      "chainId": 0
    },
    {
      "hash": "0xac28084ef9980481cc5e9050cd165beead8d97a4a1d2f4f00b0c47b7bb9f18dc",
      "blockHash": "0xc78b5d5412d50a8fa2335d5445fc183abf58fa227960057344b82ee28dff65dd",
      "blockNumber": 82137,
      "transactionIndex": 1,
      "confirmations": null,
      "from": "0x2910543Af39abA0Cd09dBb2D50200b3E800A63D2",
      "gasPrice": {
        "_hex": "0xd26a4eb8c"
      },
      "gasLimit": {
        "_hex": "0x5208"
      },
      "to": "0x19ae27E1b61445EB9f27821A5eB4b3e957319e7e",
      "value": {
        "_hex": "0xa2a14b45d863ff8000"
      },
      "nonce": 509,
      "data": "0x",
      "r": "0xc5028fe8391d3ca7280839f3fc583e5f8b44633b4791b3d14dae7df51953d523",
      "s": "0x099e57a61739d29cfc81d76f9837a87f0a832af3748100486233d1a02f27ea9f",
      "v": 28,
      "creates": null,
      "raw": "0xf86f8201fd850d26a4eb8c8252089419ae27e1b61445eb9f27821a5eb4b3e957319e7e89a2a14b45d863ff8000801ca0c5028fe8391d3ca7280839f3fc583e5f8b44633b4791b3d14dae7df51953d523a0099e57a61739d29cfc81d76f9837a87f0a832af3748100486233d1a02f27ea9f",
      "networkId": 0,
      "chainId": 0
    }
  ]
}