{
  "hash": "0x3f06154e6975852f29865e23072f019de07ce773505e86a888f1b061431612a8",
  "parentHash": "0x54e621d081872f79b0aa1458a47f8b507e7a8dc0d7b3c421651aafcef2e986d8",
  "number": 48779,
  "timestamp": 1438962856,
  "nonce": "0xc6ed64a53ffce5f6",
  "difficulty": 1477893299635,
  "gasLimit": {
    "_hex": "0x1e295"
  },
  "gasUsed": {
    "_hex": "0xa8d8"
  },
  "miner": "0x3222BA3F3e79eA0e31467EEE7639B57923558cCD",
  "extraData": "0x476574682f76312e302e302f77696e646f77732f676f312e342e32",
  "transactions": [
    {
      "hash": "0x19f3706d58c0bf6bf28f141640bf4afa0caf8b93c1ae2a3bf0abff487a681257",
      "blockHash": "0x3f06154e6975852f29865e23072f019de07ce773505e86a888f1b061431612a8",
      "blockNumber": 48779,
      "transactionIndex": 0,
      "confirmations": null,
      "from": "0x282E80A554875A56799fA0a97F5510e795974C4E",
      "gasPrice": {
        "_hex": "0x110c8f7d8de"
      },
      "gasLimit": {
        "_hex": "0xc350"
      },
      "to": "0x2910543Af39abA0Cd09dBb2D50200b3E800A63D2",
      "value": {
        "_hex": "0x3627e8f712373c0000"
      },
      "nonce": 0,
      "data": "0x454e50384745305a47",
      "r": "0xd6cd365569f7f333b05b609f500fab53f068830eeaeec2ab063df867ea35e6dc",
      "s": "0xcf68a5904b62e89a8dfc8c6bd8b9a2ee2bb3030c623da03d39457f06f8fb1d72",
      "v": 27,
      "creates": null,
      "raw": "0xf87780860110c8f7d8de82c350942910543af39aba0cd09dbb2d50200b3e800a63d2893627e8f712373c000089454e50384745305a471ba0d6cd365569f7f333b05b609f500fab53f068830eeaeec2ab063df867ea35e6dca0cf68a5904b62e89a8dfc8c6bd8b9a2ee2bb3030c623da03d39457f06f8fb1d72",
      "networkId": 0,
      "chainId": 0
    },
    {
      "hash": "0x4cf7ea91fa7a8880adf49f210755455734dc1adb913b6eae26283b27246c57df",
      "blockHash": "0x3f06154e6975852f29865e23072f019de07ce773505e86a888f1b061431612a8",
      "blockNumber": 48779,
      "transactionIndex": 1,
      "confirmations": null,
      "from": "0x67BC85E87dC34c4E80AafA066Ba8d29DBB8E438E",
      "gasPrice": {
        "_hex": "0xf3539813a"
      },
      "gasLimit": {
        "_hex": "0x15f90"
      },
      "to": "0x2910543Af39abA0Cd09dBb2D50200b3E800A63D2",
      "value": {
        "_hex": "0x4563918244f40000"
      },
      "nonce": 0,
      "data": "0x454e52483133434352",
      "r": "0x27ea96ce1494b4cbcb7ed7e83ab21e0dfee61023befaa92dde93fd913ba4f6c4",
      "s": "0x2c1de78bb002d71c928ff1835f544742514714c5a73066ce882864da826ad2e7",
      "v": 27,
      "creates": null,
      "raw": "0xf87680850f3539813a83015f90942910543af39aba0cd09dbb2d50200b3e800a63d2884563918244f4000089454e524831334343521ba027ea96ce1494b4cbcb7ed7e83ab21e0dfee61023befaa92dde93fd913ba4f6c4a02c1de78bb002d71c928ff1835f544742514714c5a73066ce882864da826ad2e7",
      "networkId": 0,
      "chainId": 0
    }
  ]
}