{
  "hash": "0x66b7ad00e919825901ecf83ae3a34d4f304b0cf3f494451bd15606352a070402",
  "parentHash": "0xf3829c228afa3d6e40a677552eee9d20093800ec10a7204205c573c976f103c9",
  "number": 69724,
  "timestamp": 1439308731,
  "nonce": "0x912414b0d0193eb5",
  "difficulty": 2094249038918,
  "gasLimit": {
    "_hex": "0x2fefd8"
  },
  "gasUsed": {
    "_hex": "0xbde0"
  },
  "miner": "0x9746c7e1ef2bd21FF3997fa467593a89cb852BD0",
  "extraData": "0x476574682f76312e302e312f77696e646f77732f676f312e342e32",
  "transactions": [
    {
      "hash": "0x125270bc2a358b34e0e1d0b277705140c0ad6924de8331e99be0678c28f56896",
      "blockHash": "0x66b7ad00e919825901ecf83ae3a34d4f304b0cf3f494451bd15606352a070402",
      "blockNumber": 69724,
      "transactionIndex": 0,
      "confirmations": null,
      "from": "0x63BBedc46A1113Ba7938CF7C18CCb5Aed20eC733",
      "gasPrice": {
        "_hex": "0xd3d37f23a"
      },
      "gasLimit": {
        "_hex": "0x15f90"
      },
      "to": "0x0A319A7e0C887F104359e1eEe6717BD8f232d3Da",
      "value": {
        "_hex": "0x20f5b1eaad8d80000"
      },
      "nonce": 2,
      "data": "0x",
      "r": "0x2f085a68d5866d7c805ea15026e76b58d93230ac1d7a3246997d8769a442f350",
      "s": "0x495bffb4e3458b6ccaa3ff1fd48f605e4802b8bf3e81e72263cb064ec6841a56",
      "v": 28,
      "creates": null,
      "raw": "0xf86e02850d3d37f23a83015f90940a319a7e0c887f104359e1eee6717bd8f232d3da89020f5b1eaad8d80000801ca02f085a68d5866d7c805ea15026e76b58d93230ac1d7a3246997d8769a442f350a0495bffb4e3458b6ccaa3ff1fd48f605e4802b8bf3e81e72263cb064ec6841a56",
      "networkId": 0,
      "chainId": 0
    },
    {
      "hash": "0xb4eb4b0dcbd74ce94a7156f7a338c09d85c60eced8ff3a422818de8c5d605f30",
      "blockHash": "0x66b7ad00e919825901ecf83ae3a34d4f304b0cf3f494451bd15606352a070402",
      "blockNumber": 69724,
      "transactionIndex": 1,
      "confirmations": null,
      "from": "0x000Df160997ba9420e4622996b05447871848834",
      "gasPrice": {
        "_hex": "0xba43b7400"
      },
      "gasLimit": {
        "_hex": "0x985f6"
      },
      "to": "0xad5e5A5Bc4654dbeF0d5CABD7ABeB426769C073a",
      "value": {
        "_hex": "0xa"
      },
      "nonce": 1,
      "data": "0xfcfff16f",
      "r": "0x22e4922e5c4d1fd42f38692c11e4108f64ff91207112c0bf73b09d73a5f0ab00",
      "s": "0x1ef0bbcef1d801fd281d30131779bc95369c5d5126f9da4f64db41b219cfc7b6",
      "v": 27,
      "creates": null,
      "raw": "0xf86901850ba43b7400830985f694ad5e5a5bc4654dbef0d5cabd7abeb426769c073a0a84fcfff16f1ba022e4922e5c4d1fd42f38692c11e4108f64ff91207112c0bf73b09d73a5f0ab00a01ef0bbcef1d801fd281d30131779bc95369c5d5126f9da4f64db41b219cfc7b6",
      "networkId": 0,
      "chainId": 0
    }
  ]
}