{
  "hash": "0xdc38db1e8e1e5c397efe1fff7f520c88d611a8889008a79a00b36773c392c22c",
  "parentHash": "0x5d1989893d79225123c42abfcfefcfe73cf5a075c489009e8ece88edd1cbd160",
  "number": 71407,
  "timestamp": 1439335415,
  "nonce": "0x0f20599b38d3bf27",
  "difficulty": 2180429232003,
  "gasLimit": {
    "_hex": "0x2fefd8"
  },
  "gasUsed": {
    "_hex": "0x15d34"
  },
  "miner": "0xe6A7a1d47ff21B6321162AEA7C6CB457D5476Bca",
  "extraData": "0x476574682f76312e302e312d38326566323666362f6c696e75782f676f312e34",
  "transactions": [
    {
      "hash": "0x014a6b1f419463be45fbb75738fd755f063bd57f1f95083bfd34cf64c8acca2c",
      "blockHash": "0xdc38db1e8e1e5c397efe1fff7f520c88d611a8889008a79a00b36773c392c22c",
      "blockNumber": 71407,
      "transactionIndex": 0,
      "confirmations": null,
      "from": "0x17580B766f7453525ca4C6A88b01b50570EA088C",
      "gasPrice": {
        "_hex": "0xcc1f2e3ab"
      },
      "gasLimit": {
        "_hex": "0x61a80"
      },
      "to": "0x5Fe5B7546D1628f7348B023A0393de1FC825A4fD",
      "value": {
        "_hex": "0x1bc16d674ec80000"
      },
      "nonce": 176,
      "data": "0xb595b8b50000000000000000000000000000000000000000000000000000000000000000",
      "r": "0x51809d77be8f27da3974fda3ab0e8414ba31dab435596661ad8638de30de9e18",
      "s": "0x55feda8bb767ef377910cec851d4e6b21d1a974f7aa6cd35d98a9315ab5b0681",
      "v": 27,
      "creates": null,
      "raw": "0xf89281b0850cc1f2e3ab83061a80945fe5b7546d1628f7348b023a0393de1fc825a4fd881bc16d674ec80000a4b595b8b500000000000000000000000000000000000000000000000000000000000000001ba051809d77be8f27da3974fda3ab0e8414ba31dab435596661ad8638de30de9e18a055feda8bb767ef377910cec851d4e6b21d1a974f7aa6cd35d98a9315ab5b0681",
      "networkId": 0,
      "chainId": 0
    },
    {
      "hash": "0x688e7ad0da9ff115cb1383b6dfa6da2c5a0976a4232365ced9d001d87443e218",
      "blockHash": "0xdc38db1e8e1e5c397efe1fff7f520c88d611a8889008a79a00b36773c392c22c",
      "blockNumber": 71407,
      "transactionIndex": 1,
      "confirmations": null,
      "from": "0x17580B766f7453525ca4C6A88b01b50570EA088C",
      "gasPrice": {
        "_hex": "0xcc1f2e3ab"
      },
      "gasLimit": {
        "_hex": "0x61a80"
      },
      "to": "0x5Fe5B7546D1628f7348B023A0393de1FC825A4fD",
      "value": {
        "_hex": "0x1bc16d674ec80000"
      },
      "nonce": 177,
      "data": "0xb595b8b50000000000000000000000000000000000000000000000000000000000000001",
      "r": "0xfd9f6395faff8b99c5882e655f1907c9fe72475fa10ef62dcf7e023c674e2521",
      "s": "0x6a842853ea48156b000a7942f428ac278bf864edd428e64f20f6c532fcf59f12",
      "v": 28,
      "creates": null,
      "raw": "0xf89281b1850cc1f2e3ab83061a80945fe5b7546d1628f7348b023a0393de1fc825a4fd881bc16d674ec80000a4b595b8b500000000000000000000000000000000000000000000000000000000000000011ca0fd9f6395faff8b99c5882e655f1907c9fe72475fa10ef62dcf7e023c674e2521a06a842853ea48156b000a7942f428ac278bf864edd428e64f20f6c532fcf59f12",
      "networkId": 0,
      "chainId": 0
    }
  ]
}