{
  "hash": "0x1219057995da1ee06f6e2bd13821668eea22c01372a32f42eb7634af396d5b61",
  "parentHash": "0xea8da1b61822cab6e25e8f5c860a7ee8b936be66cbfc51186ab0ab2701de3c9b",
  "number": 89913,
  "timestamp": 1439631112,
  "nonce": "0x41de91ddf76f60a4",
  "difficulty": 3336926168020,
  "gasLimit": {
    "_hex": "0x2fefd8"
  },
  "gasUsed": {
    "_hex": "0xf618"
  },
  "miner": "0x0eDEd3DA479d0beF8eeC92A76644D3f4E3C177f7",
  "extraData": "0x476574682f76312e302e312f6c696e75782f676f312e342e32",
  "transactions": [
    {
      "hash": "0x5d2a68621965688d22e5ceab4ad3dfcf3b851f8e62d849dc2dcead0077be42e9",
      "blockHash": "0x1219057995da1ee06f6e2bd13821668eea22c01372a32f42eb7634af396d5b61",
      "blockNumber": 89913,
      "transactionIndex": 0,
      "confirmations": null,
      "from": "0x32Be343B94f860124dC4fEe278FDCBD38C102D88",
      "gasPrice": {
        "_hex": "0xcb5324562"
      },
      "gasLimit": {
        "_hex": "0x5208"
      },
      "to": "0x888285790B0b6Cc7FDE84EDdd77A1b2B29089a99",
      "value": {
        "_hex": "0x16345785d8a0000"
      },
      "nonce": 848,
      "data": "0x",
      "r": "0x6eaa854c34229fd19925aa0a3842e9b62c0bfb975cd11ac3e9fedfa1d65e5622",
      "s": "0x6e3100c9597c64d7e977ad23ab8b61f68dd4fe88c15cc32b70b7b82aaaf21c84",
      "v": 27,
      "creates": null,
      "raw": "0xf86e820350850cb532456282520894888285790b0b6cc7fde84eddd77a1b2b29089a9988016345785d8a0000801ba06eaa854c34229fd19925aa0a3842e9b62c0bfb975cd11ac3e9fedfa1d65e5622a06e3100c9597c64d7e977ad23ab8b61f68dd4fe88c15cc32b70b7b82aaaf21c84",
      "networkId": 0,
      "chainId": 0
    },
    {
      "hash": "0x3af36df7265af6668bcc008316c35192c1f984efb388fa15f1b6212db0aba34d",
      "blockHash": "0x1219057995da1ee06f6e2bd13821668eea22c01372a32f42eb7634af396d5b61",
      "blockNumber": 89913,
      "transactionIndex": 1,
      "confirmations": null,
      "from": "0x3B6C409e2ADC909C20B59DF21a7c48F44c259F24",
      "gasPrice": {
        "_hex": "0xcb5324562"
      },
      "gasLimit": {
        "_hex": "0x5208"
      },
      "to": "0x32Be343B94f860124dC4fEe278FDCBD38C102D88",
      "value": {
        "_hex": "0x3b207b5b676e2000"
      },
      "nonce": 0,
      "data": "0x",
      "r": "0x1b7822cbd6b37a458eb3e9e28bf18a3908b2b36344c562212cfd2822c72154fb",
      "s": "0x4f030eb2d47b1b2e611d86051d6ce082d80cbe197f4a9576cec57ca4a1d50103",
      "v": 27,
      "creates": null,
      "raw": "0xf86c80850cb53245628252089432be343b94f860124dc4fee278fdcbd38c102d88883b207b5b676e2000801ba01b7822cbd6b37a458eb3e9e28bf18a3908b2b36344c562212cfd2822c72154fba04f030eb2d47b1b2e611d86051d6ce082d80cbe197f4a9576cec57ca4a1d50103",
      "networkId": 0,
      "chainId": 0
    },
    {
      "hash": "0x47db28d1386159abdd05792001177a5fb3721039241ac8203d283b51a985354b",
      "blockHash": "0x1219057995da1ee06f6e2bd13821668eea22c01372a32f42eb7634af396d5b61",
      "blockNumber": 89913,
      "transactionIndex": 2,
      "confirmations": null,
      "from": "0x744Df4ED8BaC8eBCa76964a93358c3A67a89b003",
      "gasPrice": {
        "_hex": "0xba43b7400"
      },
      "gasLimit": {
        "_hex": "0x5266"
      },
      "to": "0x08FE5A3C0709cF74d76cFd0e0Cd9d2A447eA263C",
      "value": {
        "_hex": "0x10407323a247e8000"
      },
      "nonce": 2,
      "data": "0x",
      "r": "0x4093e06db9fa2e98fea96a95118f524f16049feeaf1b8ab65d98f0f21360f5de",
      "s": "0x96389b1437757b94f76338b25b43c80b34e4119b6428df23ace481d446a3f15f",
      "v": 28,
      "creates": null,
      "raw": "0xf86d02850ba43b74008252669408fe5a3c0709cf74d76cfd0e0cd9d2a447ea263c89010407323a247e8000801ca04093e06db9fa2e98fea96a95118f524f16049feeaf1b8ab65d98f0f21360f5dea096389b1437757b94f76338b25b43c80b34e4119b6428df23ace481d446a3f15f",
      "networkId": 0,
      "chainId": 0
    }
  ]
}