{
  "hash": "0xf134fea87e5b1c942a0cbad94fc20085e1c75e3da2d1bf61b7672f335dff300a",
  "parentHash": "0x92010c35aa4912adfcf36e91f3ea64869d75b8d6b26aac2ec7786568db3d34b3",
  "number": 121419,
  "timestamp": 1440176816,
  "nonce": "0xe39bbc4580854606",
  "difficulty": 4417058496222,
  "gasLimit": {
    "_hex": "0x2fefd8"
  },
  "gasUsed": {
    "_hex": "0x5208"
  },
  "miner": "0xe6A7a1d47ff21B6321162AEA7C6CB457D5476Bca",
  "extraData": "0xd783010002844765746887676f312e342e32856c696e7578",
  "transactions": [
    {
      "hash": "0x8f678cf72f94dbeb68a0a81b5d44c664e3883c6c765aa4ad1c47dfe61885a2fe",
      "blockHash": "0xf134fea87e5b1c942a0cbad94fc20085e1c75e3da2d1bf61b7672f335dff300a",
      "blockNumber": 121419,
      "transactionIndex": 0,
      "confirmations": null,
      "from": "0x790b8a3cE86E707ED0eD32bF89B3269692a23CC1",
      "gasPrice": {
        "_hex": "0xba43b7400"
      },
      "gasLimit": {
        "_hex": "0x15f90"
      },
      "to": "0x4D67f4F0Db45b3B5a3424B39ed8d972F710381D5",
      "value": {
        "_hex": "0x2de228db94a2a0000"
      },
      "nonce": 75,
      "data": "0x",
      "r": "0xd73c20b87854ab0bd7ed29b2b0957f46b6332ad8b6741e8769030d853a2390fb",
      "s": "0x686e0711ac9e420489e86b9d1a8733f301019bef4cab5227a810c292131a8114",
      "v": 27,
      "creates": null,
      "raw": "0xf86e4b850ba43b740083015f90944d67f4f0db45b3b5a3424b39ed8d972f710381d58902de228db94a2a0000801ba0d73c20b87854ab0bd7ed29b2b0957f46b6332ad8b6741e8769030d853a2390fba0686e0711ac9e420489e86b9d1a8733f301019bef4cab5227a810c292131a8114",
      "networkId": 0,
      "chainId": 0
    }
  ]
}