{
  "hash": "0xaf934c580ade302821d4de74ab43b450da4786b156725a8f9fe0aa8d354fec46",
  "parentHash": "0x1bac6626b6d930820821bf054bb85a8404fd7645587d22b23d3ada5444bef377",
  "number": 98838,
  "timestamp": 1439779778,
  "nonce": "0x68548d661753946c",
  "difficulty": 3857357010065,
  "gasLimit": {
    "_hex": "0x2fefd8"
  },
  "gasUsed": {
    "_hex": "0x5208"
  },
  "miner": "0xe6A7a1d47ff21B6321162AEA7C6CB457D5476Bca",
  "extraData": "0x476574682f76312e302e312d38326566323666362f6c696e75782f676f312e34",
  "transactions": [
    {
      "hash": "0x9304c2b90c8471051c3ecdfd4ea69c634ab8711388c8ef23dbff5ec6b945f0db",
      "blockHash": "0xaf934c580ade302821d4de74ab43b450da4786b156725a8f9fe0aa8d354fec46",
      "blockNumber": 98838,
      "transactionIndex": 0,
      "confirmations": null,
      "from": "0x60664De32450711A29F363c14A76107111689e17",
      "gasPrice": {
        "_hex": "0xda2492c21"
      },
      "gasLimit": {
        "_hex": "0x5208"
      },
      "to": "0x32Be343B94f860124dC4fEe278FDCBD38C102D88",
      "value": {
        "_hex": "0x124cdee4c1ea9a000"
      },
      "nonce": 3,
      "data": "0x",
      "r": "0x64f88bc8ca4069d5257e1bc30824ad3ea8d4ed31c0ece721fd89a2555776c917",
      "s": "0x2f98850811430df31c91d8c86e6a109e854181c4533149d4faf4f85a1362e39a",
      "v": 28,
      "creates": null,
      "raw": "0xf86d03850da2492c218252089432be343b94f860124dc4fee278fdcbd38c102d88890124cdee4c1ea9a000801ca064f88bc8ca4069d5257e1bc30824ad3ea8d4ed31c0ece721fd89a2555776c917a02f98850811430df31c91d8c86e6a109e854181c4533149d4faf4f85a1362e39a",
      "networkId": 0,
      "chainId": 0
    }
  ]
}