{
  "hash": "0x7b80ea776a667b47b31b0da06b0e75816997caa4cecc4d019d4e5dbec0204fdb",
  "parentHash": "0xc067f5949c9e7cfd9876b369c3bda83e8901d6d545e2e2df47dfe8fa21063fd1",
  "number": 47859,
  "timestamp": 1438947531,
  "nonce": "0x191d6d15df62b65e",
  "difficulty": 1457985114510,
  "gasLimit": {
    "_hex": "0xfd82"
  },
  "gasUsed": {
    "_hex": "0x546c"
  },
  "miner": "0xBb12b5a9B85D4AB8CDE6056E9c1b2a4a337D2261",
  "extraData": "0x476574682f76312e302e312d36393865393864392f6c696e75782f676f312e34",
  "transactions": [
    {
      "hash": "0xe3ff3ec2a231e78972541020c6b8d1f506ebc081b057dd581e348d4f48f73f3a",
      "blockHash": "0x7b80ea776a667b47b31b0da06b0e75816997caa4cecc4d019d4e5dbec0204fdb",
      "blockNumber": 47859,
      "transactionIndex": 0,
      "confirmations": null,
      "from": "0x34bB6978C5A1aD68777AD388c6787dF53903430c",
      "gasPrice": {
        "_hex": "0xdf8475800"
      },
      "gasLimit": {
        "_hex": "0x55f0"
      },
      "to": "0x2910543Af39abA0Cd09dBb2D50200b3E800A63D2",
      "value": {
        "_hex": "0x29a2241af62c0000"
      },
      "nonce": 1,
      "data": "0x454e34573751343547",
      "r": "0x27a550e91844a7852f17114a728f30b29f5b218c966833692d05b9412b714f05",
      "s": "0x181e50cd9d40798badc71c1d5599ad970979f90e2a5f5835749718b3f4bd3f4e",
      "v": 27,
      "creates": null,
      "raw": "0xf87501850df84758008255f0942910543af39aba0cd09dbb2d50200b3e800a63d28829a2241af62c000089454e345737513435471ba027a550e91844a7852f17114a728f30b29f5b218c966833692d05b9412b714f05a0181e50cd9d40798badc71c1d5599ad970979f90e2a5f5835749718b3f4bd3f4e",
      "networkId": 0,
      "chainId": 0
    }
  ]
}