{
  "hash": "0x0e4ebb4fa043ef84c3a08cad53655bf278e7b4903b5c64ec3cb2d01c997b179a",
  "parentHash": "0x65cd8329407fe573d7385a6d4416e6c6b13f0a1433c9ba2310b63adcd6a13392",
  "number": 102158,
  "timestamp": 1439833737,
  "nonce": "0xb8f21288560ab7c0",
  "difficulty": 3905093689347,
  "gasLimit": {
    "_hex": "0x2fefd8"
  },
  "gasUsed": {
    "_hex": "0x20fc6"
  },
  "miner": "0x35e8e5dC5FBd97c5b421A80B596C030a2Be2A04D",
  "extraData": "0x476574682f76312e302e312f6c696e75782f676f312e342e32",
  "transactions": [
    {
      "hash": "0xf45f6bc9366feb498a548344398cd6d36856c3ca0cc86fc6a4faebb3e165f28d",
      "blockHash": "0x0e4ebb4fa043ef84c3a08cad53655bf278e7b4903b5c64ec3cb2d01c997b179a",
      "blockNumber": 102158,
      "transactionIndex": 0,
      "confirmations": null,
      "from": "0x32Be343B94f860124dC4fEe278FDCBD38C102D88",
      "gasPrice": {
        "_hex": "0xcf886376e"
      },
      "gasLimit": {
        "_hex": "0x5208"
      },
      "to": "0x0ED863A5E14A9946ae8EF2bcDDc9dE06360C2A62",
      "value": {
        "_hex": "0xdbd2fc137a30000"
      },
      "nonce": 1098,
      "data": "0x",
      "r": "0x139b37fcc85cf6fbdf392ebebda7273c7e95737e2e7be3a191fd809a20705de5",
      "s": "0x35053e9e01ac3aeeecac499a95cca70ba909950da2378340b1593255308c2c70",
      "v": 28,
      "creates": null,
      "raw": "0xf86e82044a850cf886376e825208940ed863a5e14a9946ae8ef2bcddc9de06360c2a62880dbd2fc137a30000801ca0139b37fcc85cf6fbdf392ebebda7273c7e95737e2e7be3a191fd809a20705de5a035053e9e01ac3aeeecac499a95cca70ba909950da2378340b1593255308c2c70",
      "networkId": 0,
      "chainId": 0
    },
    {
      "hash": "0x28a9718786c41b56b0cd546da9d381c3ad65ed044c609f5d535b3b41596bbc4a",
      "blockHash": "0x0e4ebb4fa043ef84c3a08cad53655bf278e7b4903b5c64ec3cb2d01c997b179a",
      "blockNumber": 102158,
      "transactionIndex": 1,
      "confirmations": null,
      "from": "0x62b0559efe3a073EDfe78bBe7CB491A6C65F0806",
      "gasPrice": {
        "_hex": "0xce91ab60d"
      },
      "gasLimit": {
        "_hex": "0x249f0"
      },
      "to": "0xE28e72FCf78647ADCe1F1252F240bbfaebD63BcC",
      "value": {
        "_hex": "0x4563918244f40000"
      },
      "nonce": 3,
      "data": "0x45466f3a",
      "r": "0x2ca636cf432c519014618fe89d42ec59fdd57dfd90f6a386d37ad98b2268a441",
      "s": "0x6edca2db15eefed8957af06414a3a9bc63f655b3f415b8c76f00361210f24d1d",
      "v": 28,
      "creates": null,
      "raw": "0xf87103850ce91ab60d830249f094e28e72fcf78647adce1f1252f240bbfaebd63bcc884563918244f400008445466f3a1ca02ca636cf432c519014618fe89d42ec59fdd57dfd90f6a386d37ad98b2268a441a06edca2db15eefed8957af06414a3a9bc63f655b3f415b8c76f00361210f24d1d",
      "networkId": 0,
      "chainId": 0
    }
  ]
}