{
  "hash": "0xde38b9ad7162eb88ac048d4695a7ec7c6d101f5dde5162d3b4b8da64223264ee",
  "parentHash": "0xc4e2f97690c8cbebbea34ed21cc3117d20edee800f3495916cb3bfb0f6c1af5b",
  "number": 47171,
  "timestamp": 1438935539,
  "nonce": "0x5571123a2e1cb00b",
  "difficulty": 1458104697522,
  "gasLimit": {
    "_hex": "0x9f19"
  },
  "gasUsed": {
    "_hex": "0x5208"
  },
  "miner": "0xf927a40C8B7F6E07c5af7FA2155B4864a4112B13",
  "extraData": "0x476574682f76312e302e312f6c696e75782f676f312e342e32",
  "transactions": [
    {
      "hash": "0x2311d7de6afc35d1b1e63d50daa4d247b463b3997fa06b8954ca54333e0d49fa",
      "blockHash": "0xde38b9ad7162eb88ac048d4695a7ec7c6d101f5dde5162d3b4b8da64223264ee",
      "blockNumber": 47171,
      "transactionIndex": 0,
      "confirmations": null,
      "from": "0xe6A7a1d47ff21B6321162AEA7C6CB457D5476Bca",
      "gasPrice": {
        "_hex": "0xe28cefef7"
      },
      "gasLimit": {
        "_hex": "0x5208"
      },
      "to": "0x625C91D2eC2873Db4773931f7DFeF46CC594b2c9",
      "value": {
        "_hex": "0x4b7262ca58162c70"
      },
      "nonce": 63,
      "data": "0x",
      "r": "0x62955aade252a54c8a95a1ddb6580ad802b01f51442b156640834177b068604d",
      "s": "0x19c6f12e63a8c1fa24a820ef6dbd2d7d8f4bacb2e8310657074d0e6aefd6adca",
      "v": 28,
      "creates": null,
      "raw": "0xf86c3f850e28cefef782520894625c91d2ec2873db4773931f7dfef46cc594b2c9884b7262ca58162c70801ca062955aade252a54c8a95a1ddb6580ad802b01f51442b156640834177b068604da019c6f12e63a8c1fa24a820ef6dbd2d7d8f4bacb2e8310657074d0e6aefd6adca",
      "networkId": 0,
      "chainId": 0
    }
  ]
}