{
  "hash": "0x6d5dd964d32229b5baf4dfe469f7b2a43cbd60a7e89384342365cf187c1e3177",
  "parentHash": "0x6e591576a8bc865f3a0a598b14007bbe3d43963c3d057550672bca2e7fea4997",
  "number": 83554,
  "timestamp": 1439537224,
  "nonce": "0x4a69b54b9ecdb5e7",
  "difficulty": 2432485489756,
  "gasLimit": {
    "_hex": "0x2fefd8"
  },
  "gasUsed": {
    "_hex": "0x5208"
  },
  "miner": "0xF2d2AfF1320476cb8C6b607199D23175cc595693",
  "extraData": "0x476574682f76312e302e312f77696e646f77732f676f312e342e32",
  "transactions": [
    {
      "hash": "0x12bb806eec2b9a423c9e74a597e43eeaeacc7b609483f37d4968afc322219f01",
      "blockHash": "0x6d5dd964d32229b5baf4dfe469f7b2a43cbd60a7e89384342365cf187c1e3177",
      "blockNumber": 83554,
      "transactionIndex": 0,
      "confirmations": null,
      "from": "0x5aF19bDa5B9466D3BCdce272CFdDBA5C2eE1c1D8",
      "gasPrice": {
        "_hex": "0xdb8224883"
      },
      "gasLimit": {
        "_hex": "0x15f90"
      },
      "to": "0x32a849137E372830954cdcaf552290ff082DAb10",
      "value": {
        "_hex": "0x3782dace9d900000"
      },
      "nonce": 0,
      "data": "0x",
      "r": "0xc2e7d4bf5db8f48f0c01ac1388f21bf44da4cd68bb612cfbfbc46bbe85a541d5",
      "s": "0x2f453d8975c5225457e3bd9d5fac5ead385f6bf60f6b49c02ed0c8bd45a3f469",
      "v": 27,
      "creates": null,
      "raw": "0xf86d80850db822488383015f909432a849137e372830954cdcaf552290ff082dab10883782dace9d900000801ba0c2e7d4bf5db8f48f0c01ac1388f21bf44da4cd68bb612cfbfbc46bbe85a541d5a02f453d8975c5225457e3bd9d5fac5ead385f6bf60f6b49c02ed0c8bd45a3f469",
      "networkId": 0,
      "chainId": 0
    }
  ]
}