{
  "hash": "0x9aa326052cb25142953c80cb41e95e1751be0d09e237e924106a6102eb3bb220",
  "parentHash": "0x4685b60e7e8922be2dc0260e38b1a93c649332a2cd031c8c25c6bc540f386cf6",
  "number": 115129,
  "timestamp": 1440051910,
  "nonce": "0x3817b656842ec03c",
  "difficulty": 4542908994915,
  "gasLimit": {
    "_hex": "0x2fefd8"
  },
  "gasUsed": {
    "_hex": "0xa410"
  },
  "miner": "0x0037ce3d4B7f8729C8607D8D0248252Be68202c0",
  "extraData": "0x476574682f76312e302e312f77696e646f77732f676f312e342e32",
  "transactions": [
    {
      "hash": "0x2c6ebb6cd0364255e79398cf94714711d6f038202b6cbe65a508b10b405c9f0a",
      "blockHash": "0x9aa326052cb25142953c80cb41e95e1751be0d09e237e924106a6102eb3bb220",
      "blockNumber": 115129,
      "transactionIndex": 0,
      "confirmations": null,
      "from": "0x32Be343B94f860124dC4fEe278FDCBD38C102D88",
      "gasPrice": {
        "_hex": "0xd4ad239ac"
      },
      "gasLimit": {
        "_hex": "0x5208"
      },
      "to": "0xAaA4BEfA989B980188a418Cc5C4C02E7d9103818",
      "value": {
        "_hex": "0x1b101d4ad0dc5c0000"
      },
      "nonce": 1406,
      "data": "0x",
      "r": "0xb28673238f4280783a651b1a38ab44276f17cf64650df9d058aff58e5b227d84",
      "s": "0x3f464f72088be8213f701330eb6bf5ac6b8e5746a949f90a24b44f4c4bbfb8e5",
      "v": 27,
      "creates": null,
      "raw": "0xf86f82057e850d4ad239ac82520894aaa4befa989b980188a418cc5c4c02e7d9103818891b101d4ad0dc5c0000801ba0b28673238f4280783a651b1a38ab44276f17cf64650df9d058aff58e5b227d84a03f464f72088be8213f701330eb6bf5ac6b8e5746a949f90a24b44f4c4bbfb8e5",
      "networkId": 0,
      "chainId": 0
    },
    {
      "hash": "0x43f7b36b9568982999a00936124c1905eeff7e01e205e71a2f1086e5bc0bb5fc",
      "blockHash": "0x9aa326052cb25142953c80cb41e95e1751be0d09e237e924106a6102eb3bb220",
      "blockNumber": 115129,
      "transactionIndex": 1,
      "confirmations": null,
      "from": "0x4FCD326ae0739D0DA0fC71020adb6aBf9abf3BdA",
      "gasPrice": {
        "_hex": "0xba43b7400"
      },
      "gasLimit": {
        "_hex": "0x5208"
      },
      "to": "0xC47Aaa860008be6f65B58c6C6E02a84e666EfE31",
      "value": {
        "_hex": "0x1b1ae11beac24bead0"
      },
      "nonce": 10,
      "data": "0x",
      "r": "0xa175bfaad4f0b176fc8a0a6a9e33c13c00c0c61ae3b93a671f3601d11b0c2b8b",
      "s": "0x30de4674eaa41a6f68bbdea3020b7a61692b7f340310f2aeabf4631fa886e134",
      "v": 28,
      "creates": null,
      "raw": "0xf86d0a850ba43b740082520894c47aaa860008be6f65b58c6c6e02a84e666efe31891b1ae11beac24bead0801ca0a175bfaad4f0b176fc8a0a6a9e33c13c00c0c61ae3b93a671f3601d11b0c2b8ba030de4674eaa41a6f68bbdea3020b7a61692b7f340310f2aeabf4631fa886e134",
      "networkId": 0,
      "chainId": 0
    }
  ]
}