{
  "hash": "0x21b8dffe06753145f373e9d1ddcf6d9dc218043eb8450ab4734bf9547dca24eb",
  "parentHash": "0x3f6fd801f6a2c6c35fcadae6c6df4307cdf8e5ed4e1f3c03701369012325c43e",
  "number": 80202,
  "timestamp": 1439481710,
  "nonce": "0xec7d8732c0a25e1a",
  "difficulty": 2374766448222,
  "gasLimit": {
    "_hex": "0x2fefd8"
  },
  "gasUsed": {
    "_hex": "0xa410"
  },
  "miner": "0xe090Ffdced499691fA9379752a59F8A058c1eE4A",
  "extraData": "0x476574682f76312e302e312f6c696e75782f676f312e342e32",
  "transactions": [
    {
      "hash": "0x64398e2d752eb425ae57dcf1fde470bf0658b4ca96005089c05a3f045550e5c8",
      "blockHash": "0x21b8dffe06753145f373e9d1ddcf6d9dc218043eb8450ab4734bf9547dca24eb",
      "blockNumber": 80202,
      "transactionIndex": 0,
      "confirmations": null,
      "from": "0x120A270bbC009644e35F0bB6ab13f95b8199c4ad",
      "gasPrice": {
        "_hex": "0xd20f23401"
      },
      "gasLimit": {
        "_hex": "0x3d090"
      },
      "to": "0xEAbb11145f81CfBBdb8a8B5d0eEb4C7E0b56A3F8",
      "value": {
        "_hex": "0x1753d4a5bdc4d41400"
      },
      "nonce": 341,
      "data": "0x",
      "r": "0xebb95860a7fcee150335d03b5d4d05df57c68912ef9afe50858ded1acce3a17f",
      "s": "0x43cada7e960c0d21692a49d556351d6b2474172e5e8b4fb82fc029ca931b5b25",
      "v": 27,
      "creates": null,
      "raw": "0xf870820155850d20f234018303d09094eabb11145f81cfbbdb8a8b5d0eeb4c7e0b56a3f8891753d4a5bdc4d41400801ba0ebb95860a7fcee150335d03b5d4d05df57c68912ef9afe50858ded1acce3a17fa043cada7e960c0d21692a49d556351d6b2474172e5e8b4fb82fc029ca931b5b25",
      "networkId": 0,
      "chainId": 0
    },
    {
      "hash": "0xf1e26967588830c4dad5003f4ee4a12aa7fa92f8871599d5b99386ea0e979fd6",
      "blockHash": "0x21b8dffe06753145f373e9d1ddcf6d9dc218043eb8450ab4734bf9547dca24eb",
      "blockNumber": 80202,
      "transactionIndex": 1,
      "confirmations": null,
      "from": "0x120A270bbC009644e35F0bB6ab13f95b8199c4ad",
      "gasPrice": {
        "_hex": "0xd20f23401"
      },
      "gasLimit": {
        "_hex": "0x3d090"
      },
      "to": "0x61E5fc2fB6802d6b5cF17d99920aFCDBAB6Cc1c1",
      "value": {
        "_hex": "0x3381364ab9a3d1000"
      },
      "nonce": 342,
      "data": "0x",
      "r": "0x3f717a306ef999ff7c3c76467c64171e2a3451f1ae3d3220ca8628713f24127c",
      "s": "0x132bce38b9f49aa92a8a7e484ae21ce0502d03e39698331cd03af2d477ae3f8e",
      "v": 27,
      "creates": null,
      "raw": "0xf870820156850d20f234018303d0909461e5fc2fb6802d6b5cf17d99920afcdbab6cc1c18903381364ab9a3d1000801ba03f717a306ef999ff7c3c76467c64171e2a3451f1ae3d3220ca8628713f24127ca0132bce38b9f49aa92a8a7e484ae21ce0502d03e39698331cd03af2d477ae3f8e",
      "networkId": 0,
      "chainId": 0
    }
  ]
}