{
  "hash": "0x23fbaebde7a5797cf84ab48b2547243bb47fb81224096613f3021d9b6ee5269c",
  "parentHash": "0xc72cda6e2717782096ae72a05ca212f7e81f2fc72f645bcb8af1201112fb2279",
  "number": 71696,
  "timestamp": 1439340281,
  "nonce": "0x9492a299380f4db2",
  "difficulty": 2177162574040,
  "gasLimit": {
    "_hex": "0x2fefd8"
  },
  "gasUsed": {
    "_hex": "0x18e4e"
  },
  "miner": "0xf927a40C8B7F6E07c5af7FA2155B4864a4112B13",
  "extraData": "0x",
  "transactions": [
    {
      "hash": "0xa795f479b98bd84b6edcb7b6c1cd31e8822ed58a495ed1578e401095d4cb727f",
      "blockHash": "0x23fbaebde7a5797cf84ab48b2547243bb47fb81224096613f3021d9b6ee5269c",
      "blockNumber": 71696,
      "transactionIndex": 0,
      "confirmations": null,
      "from": "0x120A270bbC009644e35F0bB6ab13f95b8199c4ad",
      "gasPrice": {
        "_hex": "0xe28b1f9c1"
      },
      "gasLimit": {
        "_hex": "0x15f90"
      },
      "to": "0x95C5717Afc281AFf43f3D7535Ab579925534aeA8",
      "value": {
        "_hex": "0x2b5e3af16b1880000"
      },
      "nonce": 238,
      "data": "0x",
      "r": "0x7ad95705145596b96b1b629b334beb17e34b063295da54da55f99d3507655939",
      "s": "0x63cb5a8e54df7222f33823472a0d908ccd5187af943144a2cbc48a9bce32344b",
      "v": 27,
      "creates": null,
      "raw": "0xf86f81ee850e28b1f9c183015f909495c5717afc281aff43f3d7535ab579925534aea88902b5e3af16b1880000801ba07ad95705145596b96b1b629b334beb17e34b063295da54da55f99d3507655939a063cb5a8e54df7222f33823472a0d908ccd5187af943144a2cbc48a9bce32344b",
      "networkId": 0,
      "chainId": 0
    },
    {
      "hash": "0xe74ab5b7f46e3e91f945ba28bfbf4f468515ed0e47977bb04e247ae85307d82d",
      "blockHash": "0x23fbaebde7a5797cf84ab48b2547243bb47fb81224096613f3021d9b6ee5269c",
      "blockNumber": 71696,
      "transactionIndex": 1,
      "confirmations": null,
      "from": "0x4873313Ba85B8127aF35C5c73433720FC90ba4Fe",
      "gasPrice": {
        "_hex": "0xe113866e2"
      },
      "gasLimit": {
        "_hex": "0x61a8"
      },
      "to": "0x2910543Af39abA0Cd09dBb2D50200b3E800A63D2",
      "value": {
        "_hex": "0xde0b6b3a7640000"
      },
      "nonce": 1,
      "data": "0x454e484d3633324a47",
      "r": "0xa24cdd582b0d1ef694d4c0a1616a5c6de21056ae06cbc1b363fddcbe4d102d5a",
      "s": "0x2262a540727c97eb1d62250badea8b4e3d0ac8b830bb4dab000ebe362dd6fb6f",
      "v": 27,
      "creates": null,
      "raw": "0xf87501850e113866e28261a8942910543af39aba0cd09dbb2d50200b3e800a63d2880de0b6b3a764000089454e484d3633324a471ba0a24cdd582b0d1ef694d4c0a1616a5c6de21056ae06cbc1b363fddcbe4d102d5aa02262a540727c97eb1d62250badea8b4e3d0ac8b830bb4dab000ebe362dd6fb6f",
      "networkId": 0,
      "chainId": 0
    },
    {
      "hash": "0xe03148b040d725ae8cd85fb16e8bc541db53e79017de5676b03421d661af97e8",
      "blockHash": "0x23fbaebde7a5797cf84ab48b2547243bb47fb81224096613f3021d9b6ee5269c",
      "blockNumber": 71696,
      "transactionIndex": 2,
      "confirmations": null,
      "from": "0x17580B766f7453525ca4C6A88b01b50570EA088C",
      "gasPrice": {
        "_hex": "0xcc3eea541"
      },
      "gasLimit": {
        "_hex": "0x61a80"
      },
      "to": "0x5Fe5B7546D1628f7348B023A0393de1FC825A4fD",
      "value": {
        "_hex": "0x4563918244f40000"
      },
      "nonce": 260,
      "data": "0xb595b8b50000000000000000000000000000000000000000000000000000000000000000",
      "r": "0x3e7e79da0c730997823315fc51feb4229da513b5ea9b7ae08b42275d56b591cc",
      "s": "0x69aa8c523e521cfffed152a853001c31f6293d8d4f2cf009a3b50d9d81bf5ee0",
      "v": 27,
      "creates": null,
      "raw": "0xf893820104850cc3eea54183061a80945fe5b7546d1628f7348b023a0393de1fc825a4fd884563918244f40000a4b595b8b500000000000000000000000000000000000000000000000000000000000000001ba03e7e79da0c730997823315fc51feb4229da513b5ea9b7ae08b42275d56b591cca069aa8c523e521cfffed152a853001c31f6293d8d4f2cf009a3b50d9d81bf5ee0",
      "networkId": 0,
      "chainId": 0
    },
    {
      "hash": "0x13979bf0b4f5ee7fcc17e97734aeecc0909a7c585d8f73bf269ad43f7071ec13",
      "blockHash": "0x23fbaebde7a5797cf84ab48b2547243bb47fb81224096613f3021d9b6ee5269c",
      "blockNumber": 71696,
      "transactionIndex": 3,
      "confirmations": null,
      "from": "0xCdA1B886e3A795c9BA77914e0A2fe5676F0F5cCF",
      "gasPrice": {
        "_hex": "0xcbf061b2b"
      },
      "gasLimit": {
        "_hex": "0x59d8"
      },
      "to": "0x9aD28d4b9331aAC808DED237E46c6f5d69FCEDF6",
      "value": {
        "_hex": "0x38d7ea4c68000"
      },
      "nonce": 3,
      "data": "0x454e374242585858",
      "r": "0x23f6ed38cb0951977c44d4fd6e884c8ee128472076d265c44e3f49507ef5de90",
      "s": "0x7b78330be52b02e5e050b47ca9ce96e556fdd26f1f5a1359fdef786abb18dd79",
      "v": 27,
      "creates": null,
      "raw": "0xf87303850cbf061b2b8259d8949ad28d4b9331aac808ded237e46c6f5d69fcedf687038d7ea4c6800088454e3742425858581ba023f6ed38cb0951977c44d4fd6e884c8ee128472076d265c44e3f49507ef5de90a07b78330be52b02e5e050b47ca9ce96e556fdd26f1f5a1359fdef786abb18dd79",
      "networkId": 0,
      "chainId": 0
    }
  ]
}