{
  "hash": "0x2471808fd47574e73d93745d5bc2cc7d98c1d7e833d99ffd9f7d1a6e08fa2a86",
  "parentHash": "0x17c72cf1f06811760dfa25520b48a592baef3ec16282e86d81cf4452d34dd9b6",
  "number": 96200,
  "timestamp": 1439736555,
  "nonce": "0x91b0941186948df0",
  "difficulty": 3663939351287,
  "gasLimit": {
    "_hex": "0x2fefd8"
  },
  "gasUsed": {
    "_hex": "0x5208"
  },
  "miner": "0x55bAf64fc9eAccFFd7Cc643BB61142E1C6ac093e",
  "extraData": "0x",
  "transactions": [
    {
      "hash": "0x62fd087ec7a824e39fe034cf73d95c4b3c974034c843bfc471e461b1c550ad6f",
      "blockHash": "0x2471808fd47574e73d93745d5bc2cc7d98c1d7e833d99ffd9f7d1a6e08fa2a86",
      "blockNumber": 96200,
      "transactionIndex": 0,
      "confirmations": null,
      "from": "0xad7210d76107F888745616FFF7979623b84F928c",
      "gasPrice": {
        "_hex": "0xd7d40ace3"
      },
      "gasLimit": {
        "_hex": "0x61a8"
      },
      "to": "0xF109ca710C0Df51c1a86dBA1B0BA0Ed038114463",
      "value": {
        "_hex": "0x8ac7230489e80000"
      },
      "nonce": 12,
      "data": "0x",
      "r": "0x5b79dd1e99d141ed440c19eaa69e81464c21359083e618ff750abc896042b028",
      "s": "0x2a95a4ef59e254a5462be29f2755f67fb2726c635f3ec6a90f0b84818b75b110",
      "v": 28,
      "creates": null,
      "raw": "0xf86c0c850d7d40ace38261a894f109ca710c0df51c1a86dba1b0ba0ed038114463888ac7230489e80000801ca05b79dd1e99d141ed440c19eaa69e81464c21359083e618ff750abc896042b028a02a95a4ef59e254a5462be29f2755f67fb2726c635f3ec6a90f0b84818b75b110",
      "networkId": 0,
      "chainId": 0
    }
  ]
}