{
  "hash": "0x30096ed2e358ab3ef2d22390969529531e50bf77db08439ac2e98a7c018e5412",
  "parentHash": "0x5d63304daf7b522ceb9aeff141401a0c1b2a6cfd725881aaa8be3ac04728b797",
  "number": 56116,
  "timestamp": 1439082210,
  "nonce": "0xc6e6d79074a0f3f7",
  "difficulty": 1636844561718,
  "gasLimit": {
    "_hex": "0x2fefd8"
  },
  "gasUsed": {
    "_hex": "0x5208"
  },
  "miner": "0x88D74a59454F6cF3B51ef6b9136AFb6b9D405A88",
  "extraData": "0x476574682f76312e302e312d37666266393930632f6c696e75782f676f312e34",
  "transactions": [
    {
      "hash": "0xca6978d25c11d64bc9ff635eeb4e89047dd54fbbac3a7a7d54428a68558b966a",
      "blockHash": "0x30096ed2e358ab3ef2d22390969529531e50bf77db08439ac2e98a7c018e5412",
      "blockNumber": 56116,
      "transactionIndex": 0,
      "confirmations": null,
      "from": "0x632bb14025BA69A50f8C99F962998F06b70F76b4",
      "gasPrice": {
        "_hex": "0xba43b7400"
      },
      "gasLimit": {
        "_hex": "0x5b04"
      },
      "to": "0xc2935c7B62d9127B3E3a96eB685F937AE94CdA94",
      "value": {
        "_hex": "0xde0b6b3a7640000"
      },
      "nonce": 0,
      "data": "0x",
      "r": "0xbecada44fd11f8387bb51f1600bb3894c7c0adfd2a13048dda0fc40bb7d0f524",
      "s": "0x791ae620a8346fa85a7f7ea7a6e9170f99254853c121f92284f8bd31ec917fff",
      "v": 27,
      "creates": null,
      "raw": "0xf86c80850ba43b7400825b0494c2935c7b62d9127b3e3a96eb685f937ae94cda94880de0b6b3a7640000801ba0becada44fd11f8387bb51f1600bb3894c7c0adfd2a13048dda0fc40bb7d0f524a0791ae620a8346fa85a7f7ea7a6e9170f99254853c121f92284f8bd31ec917fff",
      "networkId": 0,
      "chainId": 0
    }
  ]
}