{
  "hash": "0xf46bfcc799dfc40f42d1bb79424ea2485a81df30238c987a5307e2bbf5192c8c",
  "parentHash": "0x296df0325eb8b1ba1765234c66adcda8d5b3283af9f39243e1dff04fe7f2b7e5",
  "number": 100329,
  "timestamp": 1439804612,
  "nonce": "0x5a8df29f8360ba37",
  "difficulty": 3824790572769,
  "gasLimit": {
    "_hex": "0x2fefd8"
  },
  "gasUsed": {
    "_hex": "0x5208"
  },
  "miner": "0xe6A7a1d47ff21B6321162AEA7C6CB457D5476Bca",
  "extraData": "0x476574682f76312e302e312d38326566323666362f6c696e75782f676f312e34",
  "transactions": [
    {
      "hash": "0x87f3833b8a969d391434cc622448d9bb6768acc33fa48699c2a754875c6f00f0",
      "blockHash": "0xf46bfcc799dfc40f42d1bb79424ea2485a81df30238c987a5307e2bbf5192c8c",
      "blockNumber": 100329,
      "transactionIndex": 0,
      "confirmations": null,
      "from": "0x3aFca45be577815985f0d83E5E4C738F45804Fec",
      "gasPrice": {
        "_hex": "0xda06a6ed6"
      },
      "gasLimit": {
        "_hex": "0x15f90"
      },
      "to": "0xE44722E814a70BF7009543535e6bCf0DF77545c2",
      "value": {
        "_hex": "0xc7d713b49da0000"
      },
      "nonce": 1,
      "data": "0x",
      "r": "0x10677ca23e256aff675a6ba9f564eef74574633a6a0c2a9890b18b11a296d60c",
      "s": "0x76f8da346d0cf91b66bfc8b917f355df60fc64aace599cb7e5510c786ef1c6bb",
      "v": 28,
      "creates": null,
      "raw": "0xf86d01850da06a6ed683015f9094e44722e814a70bf7009543535e6bcf0df77545c2880c7d713b49da0000801ca010677ca23e256aff675a6ba9f564eef74574633a6a0c2a9890b18b11a296d60ca076f8da346d0cf91b66bfc8b917f355df60fc64aace599cb7e5510c786ef1c6bb",
      "networkId": 0,
      "chainId": 0
    }
  ]
}