{
  "hash": "0x2326548acec2cbcba4a140267b1ce3a06308cbf54d15ecc31f34c725c52f685f",
  "parentHash": "0xbc4d377ca204bb79394478c9687a163f67edabc7a5715e8e6287ba47e4d8f86e",
  "number": 74251,
  "timestamp": 1439383001,
  "nonce": "0xce890cb87b4e4f74",
  "difficulty": 2218343725760,
  "gasLimit": {
    "_hex": "0x2fefd8"
  },
  "gasUsed": {
    "_hex": "0x23e38"
  },
  "miner": "0xF2d2AfF1320476cb8C6b607199D23175cc595693",
  "extraData": "0x476574682f76312e302e312f77696e646f77732f676f312e342e32",
  "transactions": [
    {
      "hash": "0xfd4c225453bf306c4f8a1032bc6c603b3611dd157e00d0f1f2b516fd54d51797",
      "blockHash": "0x2326548acec2cbcba4a140267b1ce3a06308cbf54d15ecc31f34c725c52f685f",
      "blockNumber": 74251,
      "transactionIndex": 0,
      "confirmations": null,
      "from": "0x68d3578bFBeEFB9C1e31cE355A29ad3a107F88C5",
      "gasPrice": {
        "_hex": "0xd584b01af"
      },
      "gasLimit": {
        "_hex": "0x5208"
      },
      "to": "0x32Be343B94f860124dC4fEe278FDCBD38C102D88",
      "value": {
        "_hex": "0xe7cf336b8f59c00"
      },
      "nonce": 0,
      "data": "0x",
      "r": "0xda15307d4ddda23009b1d7ccd8113d84e0fcf657502cb709cd3dfe142cc67375",
      "s": "0x7d5c1eabfcf25c03d21927c401d2609b931954007f090df9c873c59d17a26580",
      "v": 28,
      "creates": null,
      "raw": "0xf86c80850d584b01af8252089432be343b94f860124dc4fee278fdcbd38c102d88880e7cf336b8f59c00801ca0da15307d4ddda23009b1d7ccd8113d84e0fcf657502cb709cd3dfe142cc67375a07d5c1eabfcf25c03d21927c401d2609b931954007f090df9c873c59d17a26580",
      "networkId": 0,
      "chainId": 0
    },
    {
      "hash": "0x15c5db4d9b690ecf4c7133e0d5652289a270368e02b649a2776d66db75f99896",
      "blockHash": "0x2326548acec2cbcba4a140267b1ce3a06308cbf54d15ecc31f34c725c52f685f",
      "blockNumber": 74251,
      "transactionIndex": 1,
      "confirmations": null,
      "from": "0x468569500925D53e06Dd0993014aD166fD7Dd381",
      "gasPrice": {
        "_hex": "0xd584b01af"
      },
      "gasLimit": {
        "_hex": "0x5208"
      },
      "to": "0x32Be343B94f860124dC4fEe278FDCBD38C102D88",
      "value": {
        "_hex": "0x1438c583f53a9400"
      },
      "nonce": 0,
      "data": "0x",
      "r": "0x65d909aed9b2b06f73ad8588c4ee16f98f3c57af4f57ac101c62a318e5d1df5b",
      "s": "0x69ed1784dfe2ccd9ad7a1609ae8861ff50c01de43334ea690ab2b5c909e9d65b",
      "v": 27,
      "creates": null,
      "raw": "0xf86c80850d584b01af8252089432be343b94f860124dc4fee278fdcbd38c102d88881438c583f53a9400801ba065d909aed9b2b06f73ad8588c4ee16f98f3c57af4f57ac101c62a318e5d1df5ba069ed1784dfe2ccd9ad7a1609ae8861ff50c01de43334ea690ab2b5c909e9d65b",
      "networkId": 0,
      "chainId": 0
    },
    {
      "hash": "0xa38c388b512c4a092af6aeb5acd08a9ed50e47e81b2c052ed67bc3cf84bd850d",
      "blockHash": "0x2326548acec2cbcba4a140267b1ce3a06308cbf54d15ecc31f34c725c52f685f",
      "blockNumber": 74251,
      "transactionIndex": 2,
      "confirmations": null,
      "from": "0xB89C0F465b0472fa5A58eCDd01eD937205ae4d06",
      "gasPrice": {
        "_hex": "0xd584b01af"
      },
      "gasLimit": {
        "_hex": "0x5208"
      },
      "to": "0x32Be343B94f860124dC4fEe278FDCBD38C102D88",
      "value": {
        "_hex": "0x14e128daa1bdac00"
      },
      "nonce": 0,
      "data": "0x",
      "r": "0x1b571a011f2510281984ca7246972c1aff1c22e30a33b119cfd142de2fba2061",
      "s": "0x230beb21a2f93bbec7436e390030a5702e7793cf32ed6a80b2ac0c57e135d837",
      "v": 27,
      "creates": null,
      "raw": "0xf86c80850d584b01af8252089432be343b94f860124dc4fee278fdcbd38c102d888814e128daa1bdac00801ba01b571a011f2510281984ca7246972c1aff1c22e30a33b119cfd142de2fba2061a0230beb21a2f93bbec7436e390030a5702e7793cf32ed6a80b2ac0c57e135d837",
      "networkId": 0,
      "chainId": 0
    },
    {
      "hash": "0x009c972c5b9da44f02a95c3a413868ced93f067766d9f3fb471215b4f5378331",
      "blockHash": "0x2326548acec2cbcba4a140267b1ce3a06308cbf54d15ecc31f34c725c52f685f",
      "blockNumber": 74251,
      "transactionIndex": 3,
      "confirmations": null,
      "from": "0xE7dAdedf7cEBAaBa85903823D254601B1D459C9B",
      "gasPrice": {
        "_hex": "0xd584b01af"
      },
      "gasLimit": {
        "_hex": "0x5208"
      },
      "to": "0x32Be343B94f860124dC4fEe278FDCBD38C102D88",
      "value": {
        "_hex": "0xf5bf819116fd000"
      },
      "nonce": 0,
      "data": "0x",
      "r": "0xdfc102689006de39f150f76f053f0dcd2b55b71568d8c300bac365adf4dcc5f2",
      "s": "0x7fb48d0235b4b1bb05ea70f48665c6b6bb24f46d7267612c9a80094764e7ae19",
      "v": 28,
      "creates": null,
      "raw": "0xf86c80850d584b01af8252089432be343b94f860124dc4fee278fdcbd38c102d88880f5bf819116fd000801ca0dfc102689006de39f150f76f053f0dcd2b55b71568d8c300bac365adf4dcc5f2a07fb48d0235b4b1bb05ea70f48665c6b6bb24f46d7267612c9a80094764e7ae19",
      "networkId": 0,
      "chainId": 0
    },
    {
      "hash": "0xd3fdf9160417999c9e9de097dbd5aae817f9a2f4ca5e2a1c2d4f4be4aa070060",
      "blockHash": "0x2326548acec2cbcba4a140267b1ce3a06308cbf54d15ecc31f34c725c52f685f",
      "blockNumber": 74251,
      "transactionIndex": 4,
      "confirmations": null,
      "from": "0x60c84CBDBAc16e3cd806520Ab204029D7aab5588",
      "gasPrice": {
        "_hex": "0xd584b01af"
      },
      "gasLimit": {
        "_hex": "0x5208"
      },
      "to": "0x32Be343B94f860124dC4fEe278FDCBD38C102D88",
      "value": {
        "_hex": "0x18e5f26229dbd400"
      },
      "nonce": 0,
      "data": "0x",
      "r": "0x8193b491b78536691940f81775c26ce93fd721b89c0c638ef944fcd4965cc5b5",
      "s": "0x7d626e158ac7f5a4cc4e823bf839f0cb26c4dd7286937496e185a1a570836c9f",
      "v": 27,
      "creates": null,
      "raw": "0xf86c80850d584b01af8252089432be343b94f860124dc4fee278fdcbd38c102d888818e5f26229dbd400801ba08193b491b78536691940f81775c26ce93fd721b89c0c638ef944fcd4965cc5b5a07d626e158ac7f5a4cc4e823bf839f0cb26c4dd7286937496e185a1a570836c9f",
      "networkId": 0,
      "chainId": 0
    },
    {
      "hash": "0x9e25b208dbedb422d48871c3051ddf8a1e2003e7f9d69f3b6fc7be2920346865",
      "blockHash": "0x2326548acec2cbcba4a140267b1ce3a06308cbf54d15ecc31f34c725c52f685f",
      "blockNumber": 74251,
      "transactionIndex": 5,
      "confirmations": null,
      "from": "0xFAc1B5968b6CC27786d1A28c3E360B8c421569B9",
      "gasPrice": {
        "_hex": "0xd584b01af"
      },
      "gasLimit": {
        "_hex": "0x5208"
      },
      "to": "0x32Be343B94f860124dC4fEe278FDCBD38C102D88",
      "value": {
        "_hex": "0x1d167d2f9ab48000"
      },
      "nonce": 0,
      "data": "0x",
      "r": "0xeb053c29ff156e0ff565ab94cae765d9d365fca3ff5b94e0475cec921a572ea4",
      "s": "0x277a93c95c8002a85c0c129b53ced029d095dbcb430b9317159f8b9465f2f479",
      "v": 27,
      "creates": null,
      "raw": "0xf86c80850d584b01af8252089432be343b94f860124dc4fee278fdcbd38c102d88881d167d2f9ab48000801ba0eb053c29ff156e0ff565ab94cae765d9d365fca3ff5b94e0475cec921a572ea4a0277a93c95c8002a85c0c129b53ced029d095dbcb430b9317159f8b9465f2f479",
      "networkId": 0,
      "chainId": 0
    },
    {
      "hash": "0xd4e890a772bfacb90d2be89c1d7101f6a33b60c2f961abc7303417ab6f893013",
      "blockHash": "0x2326548acec2cbcba4a140267b1ce3a06308cbf54d15ecc31f34c725c52f685f",
      "blockNumber": 74251,
      "transactionIndex": 6,
      "confirmations": null,
      "from": "0x1d06b86EBBfD6bA717B6d14c0136dE1D88aa5989",
      "gasPrice": {
        "_hex": "0xd584b01af"
      },
      "gasLimit": {
        "_hex": "0x5208"
      },
      "to": "0x32Be343B94f860124dC4fEe278FDCBD38C102D88",
      "value": {
        "_hex": "0x11e70000676af800"
      },
      "nonce": 0,
      "data": "0x",
      "r": "0x1b86c4d0d9630d6e4e53d79ed9b0f90b040553a4e45d01ad7761667e5888feb3",
      "s": "0x3acaa1ec4e5f9a94751c49fbc1d0cf18a83253df7eb78bed0667d35db51a3fad",
      "v": 27,
      "creates": null,
      "raw": "0xf86c80850d584b01af8252089432be343b94f860124dc4fee278fdcbd38c102d888811e70000676af800801ba01b86c4d0d9630d6e4e53d79ed9b0f90b040553a4e45d01ad7761667e5888feb3a03acaa1ec4e5f9a94751c49fbc1d0cf18a83253df7eb78bed0667d35db51a3fad",
      "networkId": 0,
      "chainId": 0
    }
  ]
}