{
  "hash": "0xe3a9b94f2db59d97804ec34ca49519c513ede0cc424d667127d66c40297ee731",
  "parentHash": "0xf1f8b9b76e97336cb9007af39f0db6fcd9fa227353b19e6c0a1f0ec8f8144596",
  "number": 100606,
  "timestamp": 1439809155,
  "nonce": "0x7d9b574b646d6b9f",
  "difficulty": 3834013244210,
  "gasLimit": {
    "_hex": "0x2fefd8"
  },
  "gasUsed": {
    "_hex": "0x5208"
  },
  "miner": "0x27A2f708f13CFE24f8e5d6E8b7D8E971D2449Ba0",
  "extraData": "0xd983010001844765746887676f312e342e328777696e646f7773",
  "transactions": [
    {
      "hash": "0x7c6cc86939da4f8826c1102c128b36f6105d90be7847b81083732ff98feed50c",
      "blockHash": "0xe3a9b94f2db59d97804ec34ca49519c513ede0cc424d667127d66c40297ee731",
      "blockNumber": 100606,
      "transactionIndex": 0,
      "confirmations": null,
      "from": "0x60a175bB691fEE8557a7b6D8eFC9E49889486f41",
      "gasPrice": {
        "_hex": "0xd53367b4d"
      },
      "gasLimit": {
        "_hex": "0x15f90"
      },
      "to": "0xBb7f43EDfd8bf08B022fEd5BD91e3f9dE7e74D09",
      "value": {
        "_hex": "0x4563918244f40000"
      },
      "nonce": 0,
      "data": "0x",
      "r": "0xe5f9782dfe153294c039e91cbf9dc91cd590d926467f556248bd48efbbc75e08",
      "s": "0x43fc63ff52a7e2ceeff036787619e07259489670ef8d7e843805eb1595e25cf6",
      "v": 27,
      "creates": null,
      "raw": "0xf86d80850d53367b4d83015f9094bb7f43edfd8bf08b022fed5bd91e3f9de7e74d09884563918244f40000801ba0e5f9782dfe153294c039e91cbf9dc91cd590d926467f556248bd48efbbc75e08a043fc63ff52a7e2ceeff036787619e07259489670ef8d7e843805eb1595e25cf6",
      "networkId": 0,
      "chainId": 0
    }
  ]
}