{
  "hash": "0x3cf67877e47f9de64f328b709e88e07d4ea807f5bbf72d73584e108833572d11",
  "parentHash": "0xc74fcac69940aa0aaefb440a7b13a1530505312c713b0b14a864a79d8509b691",
  "number": 63581,
  "timestamp": 1439206809,
  "nonce": "0x25f9b0dfbdb26fe8",
  "difficulty": 1834233248781,
  "gasLimit": {
    "_hex": "0x2fefd8"
  },
  "gasUsed": {
    "_hex": "0xa410"
  },
  "miner": "0x9746c7e1ef2bd21FF3997fa467593a89cb852BD0",
  "extraData": "0x476574682f76312e302e312f77696e646f77732f676f312e342e32",
  "transactions": [
    {
      "hash": "0x961999c283bcca0e3160a69e711cbd181b9e760700edf2de204c46e64458aa5d",
      "blockHash": "0x3cf67877e47f9de64f328b709e88e07d4ea807f5bbf72d73584e108833572d11",
      "blockNumber": 63581,
      "transactionIndex": 0,
      "confirmations": null,
      "from": "0x952f389eCE021cECc7e7E00B5316925e14396B92",
      "gasPrice": {
        "_hex": "0xdf8475800"
      },
      "gasLimit": {
        "_hex": "0x5267"
      },
      "to": "0x65C40Ee4e07E09671fF3cE2dff2AcCbE366bb5C8",
      "value": {
        "_hex": "0x183e5e668c4f18000"
      },
      "nonce": 2,
      "data": "0x",
      "r": "0x4ea521de17aa588719d3b6e51d797e32dbd0cd2bc1c340e08f6ed0fe3fb20fcd",
      "s": "0xc3d4cfb028ef16010281874c9b4cbca638d9e521c4c520189baec27299e58456",
      "v": 27,
      "creates": null,
      "raw": "0xf86d02850df84758008252679465c40ee4e07e09671ff3ce2dff2accbe366bb5c8890183e5e668c4f18000801ba04ea521de17aa588719d3b6e51d797e32dbd0cd2bc1c340e08f6ed0fe3fb20fcda0c3d4cfb028ef16010281874c9b4cbca638d9e521c4c520189baec27299e58456",
      "networkId": 0,
      "chainId": 0
    },
    {
      "hash": "0xe08b86eb716f48f6cce3e5590d54bacdf6e768952271f750877caeacadf28e4c",
      "blockHash": "0x3cf67877e47f9de64f328b709e88e07d4ea807f5bbf72d73584e108833572d11",
      "blockNumber": 63581,
      "transactionIndex": 1,
      "confirmations": null,
      "from": "0x8030b111C6983F0485DDaCA76224C6180634789f",
      "gasPrice": {
        "_hex": "0xdded47699"
      },
      "gasLimit": {
        "_hex": "0x15f90"
      },
      "to": "0x1a79c7f4039C67A39d7513884cDC0E2C34222490",
      "value": {
        "_hex": "0xdbff6172211ff60"
      },
      "nonce": 1,
      "data": "0x",
      "r": "0xc6efe722ea8d7752e95e51563580868b8610595da4d6e58434a2ba85dac90083",
      "s": "0x35aa9b971ecca2b637df40c8ec8696bff50ddd8e67f100a91a9bfc223565854e",
      "v": 28,
      "creates": null,
      "raw": "0xf86d01850dded4769983015f90941a79c7f4039c67a39d7513884cdc0e2c34222490880dbff6172211ff60801ca0c6efe722ea8d7752e95e51563580868b8610595da4d6e58434a2ba85dac90083a035aa9b971ecca2b637df40c8ec8696bff50ddd8e67f100a91a9bfc223565854e",
      "networkId": 0,
      "chainId": 0
    }
  ]
}