{
  "hash": "0x2193789488de84817aa1a8b9d2186dfd333bc75399d8bad5a8dd48c4001e0bec",
  "parentHash": "0xd57abdea8c97c8cd8d89812d8cc223a77c68ff876e0b5b9d57b95f1decfbb1e4",
  "number": 54102,
  "timestamp": 1439048741,
  "nonce": "0x397571ff4ead55eb",
  "difficulty": 1599311023876,
  "gasLimit": {
    "_hex": "0x2fefd8"
  },
  "gasUsed": {
    "_hex": "0x5208"
  },
  "miner": "0xf927a40C8B7F6E07c5af7FA2155B4864a4112B13",
  "extraData": "0x476574682f76312e302e312f6c696e75782f676f312e342e32",
  "transactions": [
    {
      "hash": "0xddbc04ac6ef88b7865d1750cacd7876e50d2d1a5277ad61056c8fb6eb9574ae5",
      "blockHash": "0x2193789488de84817aa1a8b9d2186dfd333bc75399d8bad5a8dd48c4001e0bec",
      "blockNumber": 54102,
      "transactionIndex": 0,
      "confirmations": null,
      "from": "0x9746c7e1ef2bd21FF3997fa467593a89cb852BD0",
      "gasPrice": {
        "_hex": "0xdf8b6f02f"
      },
      "gasLimit": {
        "_hex": "0x5208"
      },
      "to": "0xB0bF4A71F730782368Ef660FE6D298F432F95450",
      "value": {
        "_hex": "0x1b1ae4d6e2ef500000"
      },
      "nonce": 9,
      "data": "0x",
      "r": "0xa8bbc11725a600bbaf3cee23d8d0609fb1cd45b6406c5053a085619622842f3f",
      "s": "0x355610b984ca63f34930f878ff5c494577552f21c59bce1c685e41bc7e2b2746",
      "v": 28,
      "creates": null,
      "raw": "0xf86d09850df8b6f02f82520894b0bf4a71f730782368ef660fe6d298f432f95450891b1ae4d6e2ef500000801ca0a8bbc11725a600bbaf3cee23d8d0609fb1cd45b6406c5053a085619622842f3fa0355610b984ca63f34930f878ff5c494577552f21c59bce1c685e41bc7e2b2746",
      "networkId": 0,
      "chainId": 0
    }
  ]
}