{
  "hash": "0xf666a6e507b16c8aefeecff7f9a8066abea9089f0ef31f67743c182604ed3286",
  "parentHash": "0xf227c689fe0408961fef9421732220ec166f5ac6d53acd1bc70f04b78010a423",
  "number": 68229,
  "timestamp": 1439284563,
  "nonce": "0xfa787124fe3b7d9b",
  "difficulty": 1982180432700,
  "gasLimit": {
    "_hex": "0x2fefd8"
  },
  "gasUsed": {
    "_hex": "0x14ce8"
  },
  "miner": "0xe6A7a1d47ff21B6321162AEA7C6CB457D5476Bca",
  "extraData": "0x476574682f76312e302e312d38326566323666362f6c696e75782f676f312e34",
  "transactions": [
    {
      "hash": "0x10ac657c9cd7c2d7c0b772e9f4342dda2f0f0d146ee156c28fe84fb9d3d40c62",
      "blockHash": "0xf666a6e507b16c8aefeecff7f9a8066abea9089f0ef31f67743c182604ed3286",
      "blockNumber": 68229,
      "transactionIndex": 0,
      "confirmations": null,
      "from": "0xeA79057Dabef5E64E7B44f7f18648e7E533718d2",
      "gasPrice": {
        "_hex": "0x110c8f7d8de"
      },
      "gasLimit": {
        "_hex": "0xc350"
      },
      "to": "0x2910543Af39abA0Cd09dBb2D50200b3E800A63D2",
      "value": {
        "_hex": "0x174876e800"
      },
      "nonce": 3,
      "data": "0x454e334d574b353330",
      "r": "0xdb0819fb28656ed72eb87c8977a7eb6467150f60495c4cee09d79a1a4433834c",
      "s": "0xef356748263530eb5340dcb965f226f6677ded4c702395f6d91049966b4e918f",
      "v": 27,
      "creates": null,
      "raw": "0xf87303860110c8f7d8de82c350942910543af39aba0cd09dbb2d50200b3e800a63d285174876e80089454e334d574b3533301ba0db0819fb28656ed72eb87c8977a7eb6467150f60495c4cee09d79a1a4433834ca0ef356748263530eb5340dcb965f226f6677ded4c702395f6d91049966b4e918f",
      "networkId": 0,
      "chainId": 0
    },
    {
      "hash": "0x94d113b72b0dc636c1fd0c1b1edb8f85a2eb1ae3e93bb7c1bb8697967ee1bcfb",
      "blockHash": "0xf666a6e507b16c8aefeecff7f9a8066abea9089f0ef31f67743c182604ed3286",
      "blockNumber": 68229,
      "transactionIndex": 1,
      "confirmations": null,
      "from": "0x9c344098BA615A398F11D009905b177C44a7b602",
      "gasPrice": {
        "_hex": "0x108d914c084"
      },
      "gasLimit": {
        "_hex": "0x15f90"
      },
      "to": "0x2910543Af39abA0Cd09dBb2D50200b3E800A63D2",
      "value": {
        "_hex": "0xda9575fcb36310000"
      },
      "nonce": 9,
      "data": "0x454e515a3244355030",
      "r": "0x2403669652c17a0b352e52ef3fb64e99bb35b7f379a9d8aa2365ab4cceba3478",
      "s": "0x02cfa88ba3fd1b68aff740ad22c008eda9b78fa5d08bda504cee68f5947133c8",
      "v": 28,
      "creates": null,
      "raw": "0xf87809860108d914c08483015f90942910543af39aba0cd09dbb2d50200b3e800a63d2890da9575fcb3631000089454e515a32443550301ca02403669652c17a0b352e52ef3fb64e99bb35b7f379a9d8aa2365ab4cceba3478a002cfa88ba3fd1b68aff740ad22c008eda9b78fa5d08bda504cee68f5947133c8",
      "networkId": 0,
      "chainId": 0
    },
    {
      "hash": "0x66e221cfe2ae491b6e84df655ba30cb2287b7150fa0be89b4411c10bcbce5a37",
      "blockHash": "0xf666a6e507b16c8aefeecff7f9a8066abea9089f0ef31f67743c182604ed3286",
      "blockNumber": 68229,
      "transactionIndex": 2,
      "confirmations": null,
      "from": "0xDf2EB301C7DEB984FeA2d0487e8f56E068FF1924",
      "gasPrice": {
        "_hex": "0xba43b7400"
      },
      "gasLimit": {
        "_hex": "0x5208"
      },
      "to": "0x6747f922385c9a6F9cfDf095F34345257DD597bE",
      "value": {
        "_hex": "0x4e1253f5de4000"
      },
      "nonce": 1,
      "data": "0x",
      "r": "0x8ec9d982949f48050d491a7345e83c2cb258c37bf929366a7a8a624d92d5a72c",
      "s": "0x22420a0367f9ce4232a1be2a9c84cc1a9fb9cfd85515601418d8d4ac08de6fba",
      "v": 28,
      "creates": null,
      "raw": "0xf86b01850ba43b7400825208946747f922385c9a6f9cfdf095f34345257dd597be874e1253f5de4000801ca08ec9d982949f48050d491a7345e83c2cb258c37bf929366a7a8a624d92d5a72ca022420a0367f9ce4232a1be2a9c84cc1a9fb9cfd85515601418d8d4ac08de6fba",
      "networkId": 0,
      "chainId": 0
    },
    {
      "hash": "0x525ed11c7d5dbb70d23014874b7abf31fb198ce849c4db7c09478dfeb33a8eea",
      "blockHash": "0xf666a6e507b16c8aefeecff7f9a8066abea9089f0ef31f67743c182604ed3286",
      "blockNumber": 68229,
      "transactionIndex": 3,
      "confirmations": null,
      "from": "0x84Cbb7804B0dA35D1DA3473a7b78F601560423C3",
      "gasPrice": {
        "_hex": "0xba43b7400"
      },
      "gasLimit": {
        "_hex": "0x5208"
      },
      "to": "0x6747f922385c9a6F9cfDf095F34345257DD597bE",
      "value": {
        "_hex": "0x4e1253f5de4000"
      },
      "nonce": 1,
      "data": "0x",
      "r": "0xd5bf04b4e5b324dd41b393f2ec8700894d3f7f9e500d39b129d0accfaac05d98",
      "s": "0x2cca256d72e1d85978d79cc3dbec975e7ae403f2affcce5c5ed04c83ea75a5dd",
      "v": 28,
      "creates": null,
      "raw": "0xf86b01850ba43b7400825208946747f922385c9a6f9cfdf095f34345257dd597be874e1253f5de4000801ca0d5bf04b4e5b324dd41b393f2ec8700894d3f7f9e500d39b129d0accfaac05d98a02cca256d72e1d85978d79cc3dbec975e7ae403f2affcce5c5ed04c83ea75a5dd",
      "networkId": 0,
      "chainId": 0
    }
  ]
}