{
  "hash": "0x9d92534507f166fe752c311b57095902d8aee2d65b1b0008ffbe6f200ddec373",
  "parentHash": "0xce7a299426176e9ebf8b31ab615a53c2b7ba524d049a0a8b914fd1aa5ae7cf19",
  "number": 111509,
  "timestamp": 1439991471,
  "nonce": "0x59e08d35d7809579",
  "difficulty": 4443925702535,
  "gasLimit": {
    "_hex": "0x2fefd8"
  },
  "gasUsed": {
    "_hex": "0x5208"
  },
  "miner": "0x9746c7e1ef2bd21FF3997fa467593a89cb852BD0",
  "extraData": "0x476574682f76312e302e312f77696e646f77732f676f312e342e32",
  "transactions": [
    {
      "hash": "0x55a09b54e8abb1c6bc6c19886b598161bcd3649dc28b7844fab9b1178c0466b2",
      "blockHash": "0x9d92534507f166fe752c311b57095902d8aee2d65b1b0008ffbe6f200ddec373",
      "blockNumber": 111509,
      "transactionIndex": 0,
      "confirmations": null,
      "from": "0x120A270bbC009644e35F0bB6ab13f95b8199c4ad",
      "gasPrice": {
        "_hex": "0xdfc79618e"
      },
      "gasLimit": {
        "_hex": "0x3d090"
      },
      "to": "0x60d85a32126130b225913C23dF4e5EF8b759fA09",
      "value": {
        "_hex": "0x25f273933db5700000"
      },
      "nonce": 878,
      "data": "0x",
      "r": "0x2cecc8a81cdad6b59639597f46d2bfff52a617c4ea962d070d9f63a3a7975640",
      "s": "0x305e61877c8e7cf250c7ca25fd2c9cabb9eace004d8caee6045182edc8446802",
      "v": 28,
      "creates": null,
      "raw": "0xf87082036e850dfc79618e8303d0909460d85a32126130b225913c23df4e5ef8b759fa098925f273933db5700000801ca02cecc8a81cdad6b59639597f46d2bfff52a617c4ea962d070d9f63a3a7975640a0305e61877c8e7cf250c7ca25fd2c9cabb9eace004d8caee6045182edc8446802",
      "networkId": 0,
      "chainId": 0
    }
  ]
}