{
  "hash": "0xa965494361f3a2e8894290e21bb07dfa826aed42aba6b4d5ec42a595be17c1bf",
  "parentHash": "0x5d870535792deaf65c6dba35dc4e665fcfa0673f65d44e27b752423ec5b3cdf7",
  "number": 84521,
  "timestamp": 1439550844,
  "nonce": "0x843d64f8985e6203",
  "difficulty": 2567666519892,
  "gasLimit": {
    "_hex": "0x2fefd8"
  },
  "gasUsed": {
    "_hex": "0xf618"
  },
  "miner": "0xE300c4587D260cE22a677755Db6429B491A4309E",
  "extraData": "0x",
  "transactions": [
    {
      "hash": "0x630bef7936e9130555e4b393bbebddebf04175f3255a431ac4febc83616321db",
      "blockHash": "0xa965494361f3a2e8894290e21bb07dfa826aed42aba6b4d5ec42a595be17c1bf",
      "blockNumber": 84521,
      "transactionIndex": 0,
      "confirmations": null,
      "from": "0x3Ee95daFF0ce6FC470e83912B9b6316b21bc1cEB",
      "gasPrice": {
        "_hex": "0xd8ce7bec8"
      },
      "gasLimit": {
        "_hex": "0x15f90"
      },
      "to": "0xc842A75953D9E17E9eCEA6EF339133b0e111b714",
      "value": {
        "_hex": "0x9b40eb20af4000"
      },
      "nonce": 0,
      "data": "0x",
      "r": "0x8705944824a05f2da62c54c348d51952b992364a7eba6e73ee5785689222ea97",
      "s": "0x27b34a1c7c24f361a2aea1167404e5904ba0eedeecb4b27be304534155af5d4d",
      "v": 27,
      "creates": null,
      "raw": "0xf86c80850d8ce7bec883015f9094c842a75953d9e17e9ecea6ef339133b0e111b714879b40eb20af4000801ba08705944824a05f2da62c54c348d51952b992364a7eba6e73ee5785689222ea97a027b34a1c7c24f361a2aea1167404e5904ba0eedeecb4b27be304534155af5d4d",
      "networkId": 0,
      "chainId": 0
    },
    {
      "hash": "0x0499efb2e5d1c9e82b8362ff34c6f618cbf4cec84320a7e16e7a91e188604fc8",
      "blockHash": "0xa965494361f3a2e8894290e21bb07dfa826aed42aba6b4d5ec42a595be17c1bf",
      "blockNumber": 84521,
      "transactionIndex": 1,
      "confirmations": null,
      "from": "0x3738B70e6241841FFb3e1f733d77C15EBc227278",
      "gasPrice": {
        "_hex": "0xd60340b78"
      },
      "gasLimit": {
        "_hex": "0x15f90"
      },
      "to": "0xdD81AaddCc8448A5fC0ac28DB93ec6801C21E8Ef",
      "value": {
        "_hex": "0x1e5b8fa8fe2ac0000"
      },
      "nonce": 2,
      "data": "0x",
      "r": "0x2f383d09c724effcd5c1bd7d50e5a45df5c8dea700d027b0135d19c95a90cd7b",
      "s": "0x00ee0e4355153a67b78cf6fbe3726e9762ef88e0a60a757bd0af58f2c0c90134",
      "v": 27,
      "creates": null,
      "raw": "0xf86d02850d60340b7883015f9094dd81aaddcc8448a5fc0ac28db93ec6801c21e8ef8901e5b8fa8fe2ac0000801ba02f383d09c724effcd5c1bd7d50e5a45df5c8dea700d027b0135d19c95a90cd7b9fee0e4355153a67b78cf6fbe3726e9762ef88e0a60a757bd0af58f2c0c90134",
      "networkId": 0,
      "chainId": 0
    },
    {
      "hash": "0x26837d2dcaaacc0715ecc02f4d26e8fb6f92358103e0873f394df1049f6727c9",
      "blockHash": "0xa965494361f3a2e8894290e21bb07dfa826aed42aba6b4d5ec42a595be17c1bf",
      "blockNumber": 84521,
      "transactionIndex": 2,
      "confirmations": null,
      "from": "0x727A42a8D67fcaa0Ab81D46f1EE66bfc9b8789AC",
      "gasPrice": {
        "_hex": "0xcdfeccba0"
      },
      "gasLimit": {
        "_hex": "0x15f90"
      },
      "to": "0x285B048CC4cB946abCF3eF11aDe982C36946AF18",
      "value": {
        "_hex": "0x4563918244f40000"
      },
      "nonce": 13,
      "data": "0x",
      "r": "0xf9fa0f1182b446bfba92abe312850bb4f8469e59839d729d4ce1ca14697e8bb4",
      "s": "0x3af44b449ae40b4d0cd0fc7591f4b2f5c5640c846ac06125f705e545f22c93a6",
      "v": 27,
      "creates": null,
      "raw": "0xf86d0d850cdfeccba083015f9094285b048cc4cb946abcf3ef11ade982c36946af18884563918244f40000801ba0f9fa0f1182b446bfba92abe312850bb4f8469e59839d729d4ce1ca14697e8bb4a03af44b449ae40b4d0cd0fc7591f4b2f5c5640c846ac06125f705e545f22c93a6",
      "networkId": 0,
      "chainId": 0
    }
  ]
}