{
  "hash": "0x5a6578395b63c3ef335c64704562c67d1de832c364b4da4ade8a102c2045c18d",
  "parentHash": "0x9cebe46b9119114d787ce0debe2122efda47a62782c06625113ba74107af174b",
  "number": 93371,
  "timestamp": 1439689031,
  "nonce": "0xba7d5ba030d9dd84",
  "difficulty": 3512737559921,
  "gasLimit": {
    "_hex": "0x2fefd8"
  },
  "gasUsed": {
    "_hex": "0x5208"
  },
  "miner": "0x4D52F282d1B4Ca07065FA433f90BDbb3b7c2928F",
  "extraData": "0x476574682f76312e302e312f77696e646f77732f676f312e342e32",
  "transactions": [
    {
      "hash": "0x006aa3757e0b4e125502f03cbcd1f50f3ede3d39a571db8ddf16f454c3415772",
      "blockHash": "0x5a6578395b63c3ef335c64704562c67d1de832c364b4da4ade8a102c2045c18d",
      "blockNumber": 93371,
      "transactionIndex": 0,
      "confirmations": null,
      "from": "0x5F93ff832774dB5114C55bB4Bf44CCf3B58f903f",
      "gasPrice": {
        "_hex": "0xd641f460d"
      },
      "gasLimit": {
        "_hex": "0x15f90"
      },
      "to": "0x1679B710f84542EAEbDB32980E55cbDB324EaAdd",
      "value": {
        "_hex": "0x2c12deb159ce0e7800"
      },
      "nonce": 4,
      "data": "0x",
      "r": "0x9a7531616f0b438730823b19ba4f41b5534406fc690bfa94a8493872518ed161",
      "s": "0x521bb40cd7a3bdab5ffee8c340684737ed5b0bbbd890ac0047f634ef4e51aa6e",
      "v": 27,
      "creates": null,
      "raw": "0xf86e04850d641f460d83015f90941679b710f84542eaebdb32980e55cbdb324eaadd892c12deb159ce0e7800801ba09a7531616f0b438730823b19ba4f41b5534406fc690bfa94a8493872518ed161a0521bb40cd7a3bdab5ffee8c340684737ed5b0bbbd890ac0047f634ef4e51aa6e",
      "networkId": 0,
      "chainId": 0
    }
  ]
}