{
  "hash": "0xe3d28249f4e9673aa61e96b98f5cc728ab3c4f71ed43e30dfd07b7472c4c2dd7",
  "parentHash": "0x5577a6797312298a959fc7e3802cb1b7e71b2d446f227e667b72aceb3c766738",
  "number": 85282,
  "timestamp": 1439561130,
  "nonce": "0x396765c5e1ae2f49",
  "difficulty": 2755799461335,
  "gasLimit": {
    "_hex": "0x2fefd8"
  },
  "gasUsed": {
    "_hex": "0xc5a6"
  },
  "miner": "0xe6A7a1d47ff21B6321162AEA7C6CB457D5476Bca",
  "extraData": "0x476574682f76312e302e312d38326566323666362f6c696e75782f676f312e34",
  "transactions": [
    {
      "hash": "0x5c56e5c31930ee5bb31b9e15527b4a959ceb3751cda017f63357f4a71e3e5caa",
      "blockHash": "0xe3d28249f4e9673aa61e96b98f5cc728ab3c4f71ed43e30dfd07b7472c4c2dd7",
      "blockNumber": 85282,
      "transactionIndex": 0,
      "confirmations": null,
      "from": "0x16893e10b99A59afd2C60331E0B49241d4d4d7cC",
      "gasPrice": {
        "_hex": "0xce2aa4d42"
      },
      "gasLimit": {
        "_hex": "0x15f90"
      },
      "to": "0xdC3153c4A6bD1F8Dfb76Ec59e8Ae4e7b1ca8F965",
      "value": {
        "_hex": "0x0"
      },
      "nonce": 8,
      "data": "0xc86a90fe000000000000000000000000000000000000000000000000000000000000000a0000000000000000000000000b649da3b96a102cdc6db652a0c07d65b1e443e6",
      "r": "0xee06da3c6187d5828d6e27eae3d04329a61c8a96dc13898917f0d9c39c5e06d8",
      "s": "0x1ba9064f0056dc67818ac2864af8265370b7fb332f3bf7201fa30cdc4d21b7a1",
      "v": 27,
      "creates": null,
      "raw": "0xf8aa08850ce2aa4d4283015f9094dc3153c4a6bd1f8dfb76ec59e8ae4e7b1ca8f96580b844c86a90fe000000000000000000000000000000000000000000000000000000000000000a0000000000000000000000000b649da3b96a102cdc6db652a0c07d65b1e443e61ba0ee06da3c6187d5828d6e27eae3d04329a61c8a96dc13898917f0d9c39c5e06d8a01ba9064f0056dc67818ac2864af8265370b7fb332f3bf7201fa30cdc4d21b7a1",
      "networkId": 0,
      "chainId": 0
    }
  ]
}