{
  "hash": "0x8d498cf5e5b13e7a4f448b4b8e6f7fb0a2f45a8d9a6fa5a41569a81d8d51a058",
  "parentHash": "0x9ada37d32a9b69f202768f22aeb823211cb631c5e4097438757bbead2e886f48",
  "number": 99946,
  "timestamp": 1439798202,
  "nonce": "0x31b1a1ca0cc889a6",
  "difficulty": 3845564725640,
  "gasLimit": {
    "_hex": "0x2fefd8"
  },
  "gasUsed": {
    "_hex": "0xd80e7"
  },
  "miner": "0xf8E0CA3Ed80bd541b94BEdCf259e8CF2141A9523",
  "extraData": "0x476574682f76312e302e312f77696e646f77732f676f312e342e32",
  "transactions": [
    {
      "hash": "0x439cd14c55de290e42a9ccd5b8307957802c4b70df2f51d4da49b6d814e90b80",
      "blockHash": "0x8d498cf5e5b13e7a4f448b4b8e6f7fb0a2f45a8d9a6fa5a41569a81d8d51a058",
      "blockNumber": 99946,
      "transactionIndex": 0,
      "confirmations": null,
      "from": "0xe6A7a1d47ff21B6321162AEA7C6CB457D5476Bca",
      "gasPrice": {
        "_hex": "0xe1063c615"
      },
      "gasLimit": {
        "_hex": "0x55f0"
      },
      "to": "0x25963D3d2264014d180fB0DF883be4f8B656A294",
      "value": {
        "_hex": "0x1414d8e58c2a132c"
      },
      "nonce": 3057,
      "data": "0x",
      "r": "0xecf12869d58e7c1dac9035469d70e087ccfad8c9fd20ff94e016911ac4f54ec9",
      "s": "0x32d99641f00d0899532b1bf6ebdb0cfa43c7af3cf1ae23e9163d716c9a8e5c80",
      "v": 27,
      "creates": null,
      "raw": "0xf86e820bf1850e1063c6158255f09425963d3d2264014d180fb0df883be4f8b656a294881414d8e58c2a132c801ba0ecf12869d58e7c1dac9035469d70e087ccfad8c9fd20ff94e016911ac4f54ec9a032d99641f00d0899532b1bf6ebdb0cfa43c7af3cf1ae23e9163d716c9a8e5c80",
      "networkId": 0,
      "chainId": 0
    },
    {
      "hash": "0x028e669b2fa8bfaa95aee17f49a82c6c6e70324bacd1b436306589a4ecbcce63",
      "blockHash": "0x8d498cf5e5b13e7a4f448b4b8e6f7fb0a2f45a8d9a6fa5a41569a81d8d51a058",
      "blockNumber": 99946,
      "transactionIndex": 1,
      "confirmations": null,
      "from": "0xe6A7a1d47ff21B6321162AEA7C6CB457D5476Bca",
      "gasPrice": {
        "_hex": "0xe1063c615"
      },
      "gasLimit": {
        "_hex": "0x55f0"
      },
      "to": "0x62C0628EeA08203A030EE278217315fD43A5d57A",
      "value": {
        "_hex": "0x145b125e0ca35548"
      },
      "nonce": 3058,
      "data": "0x",
      "r": "0xc67bbb151df3000672d96fbffab294d88e0bcfd232399fbc33113988930db0ea",
      "s": "0x4a33e360541e065b3e168de017f7c488cf13983a55c2e0d446ffc2822762cd7b",
      "v": 27,
      "creates": null,
      "raw": "0xf86e820bf2850e1063c6158255f09462c0628eea08203a030ee278217315fd43a5d57a88145b125e0ca35548801ba0c67bbb151df3000672d96fbffab294d88e0bcfd232399fbc33113988930db0eaa04a33e360541e065b3e168de017f7c488cf13983a55c2e0d446ffc2822762cd7b",
      "networkId": 0,
      "chainId": 0
    },
    {
      "hash": "0x22677b6a49748d96a1d6bc3be75d6d0f97363e208934540b29a43a65db72e24c",
      "blockHash": "0x8d498cf5e5b13e7a4f448b4b8e6f7fb0a2f45a8d9a6fa5a41569a81d8d51a058",
      "blockNumber": 99946,
      "transactionIndex": 2,
      "confirmations": null,
      "from": "0xe6A7a1d47ff21B6321162AEA7C6CB457D5476Bca",
      "gasPrice": {
        "_hex": "0xe1063c615"
      },
      "gasLimit": {
        "_hex": "0x55f0"
      },
      "to": "0xE76EaD3b758580Bc4a79eccE04D7c88e061E299a",
      "value": {
        "_hex": "0x1484a16827d1ea10"
      },
      "nonce": 3059,
      "data": "0x",
      "r": "0x61e2f56681c1fe6ea94f8a5fc2e40305282fd535c649d9a9dd36041420d65528",
      "s": "0x5404a886fb554ce2e8cee85df1acc16f5c3bcfd9f903f56660f026d2c29a63c2",
      "v": 27,
      "creates": null,
      "raw": "0xf86e820bf3850e1063c6158255f094e76ead3b758580bc4a79ecce04d7c88e061e299a881484a16827d1ea10801ba061e2f56681c1fe6ea94f8a5fc2e40305282fd535c649d9a9dd36041420d65528a05404a886fb554ce2e8cee85df1acc16f5c3bcfd9f903f56660f026d2c29a63c2",
      "networkId": 0,
      "chainId": 0
    },
    {
      "hash": "0x4de026986237dcd1467393e09a03e3da80ba7419f277edaefd66084284265435",
      "blockHash": "0x8d498cf5e5b13e7a4f448b4b8e6f7fb0a2f45a8d9a6fa5a41569a81d8d51a058",
      "blockNumber": 99946,
      "transactionIndex": 3,
      "confirmations": null,
      "from": "0xe6A7a1d47ff21B6321162AEA7C6CB457D5476Bca",
      "gasPrice": {
        "_hex": "0xe1063c615"
      },
      "gasLimit": {
        "_hex": "0x55f0"
      },
      "to": "0x2C82c5457b3e101b0c8bc5c7e6BA098c1FfD53B6",
      "value": {
        "_hex": "0x14bd79236ce93dd0"
      },
      "nonce": 3060,
      "data": "0x",
      "r": "0x0c85de696f96a8daef9b2a169d62c01c49d6cc6a289653cab35c2d031002f715",
      "s": "0x29959e7b5945fc7d28fb022cf2cb9a59565f08c3730f2fd09a556a15c78facc3",
      "v": 27,
      "creates": null,
      "raw": "0xf86e820bf4850e1063c6158255f0942c82c5457b3e101b0c8bc5c7e6ba098c1ffd53b68814bd79236ce93dd0801ba00c85de696f96a8daef9b2a169d62c01c49d6cc6a289653cab35c2d031002f715a029959e7b5945fc7d28fb022cf2cb9a59565f08c3730f2fd09a556a15c78facc3",
      "networkId": 0,
      "chainId": 0
    },
    {
      "hash": "0xccd4584cc5ac71df040ec052454492f53c176fc721681cab05346c4de59f82a2",
      "blockHash": "0x8d498cf5e5b13e7a4f448b4b8e6f7fb0a2f45a8d9a6fa5a41569a81d8d51a058",
      "blockNumber": 99946,
      "transactionIndex": 4,
      "confirmations": null,
      "from": "0xe6A7a1d47ff21B6321162AEA7C6CB457D5476Bca",
      "gasPrice": {
        "_hex": "0xe1063c615"
      },
      "gasLimit": {
        "_hex": "0x55f0"
      },
      "to": "0x1d06b86EBBfD6bA717B6d14c0136dE1D88aa5989",
      "value": {
        "_hex": "0x14dfd18528e76710"
      },
      "nonce": 3061,
      "data": "0x",
      "r": "0x16c03d14c11f256afbde17b12aea43f8d44a814c311a6a5317480ff860a565b9",
      "s": "0x3a695f357722b7ae21ffc6917bc91ad7270406cc9dbd29a8382e3658f6060258",
      "v": 27,
      "creates": null,
      "raw": "0xf86e820bf5850e1063c6158255f0941d06b86ebbfd6ba717b6d14c0136de1d88aa59898814dfd18528e76710801ba016c03d14c11f256afbde17b12aea43f8d44a814c311a6a5317480ff860a565b9a03a695f357722b7ae21ffc6917bc91ad7270406cc9dbd29a8382e3658f6060258",
      "networkId": 0,
      "chainId": 0
    },
    {
      "hash": "0x36b93ec7f5180b5fd4338a85f02cd9205c987ac4b34e8e88d466455d510b26c5",
      "blockHash": "0x8d498cf5e5b13e7a4f448b4b8e6f7fb0a2f45a8d9a6fa5a41569a81d8d51a058",
      "blockNumber": 99946,
      "transactionIndex": 5,
      "confirmations": null,
      "from": "0xe6A7a1d47ff21B6321162AEA7C6CB457D5476Bca",
      "gasPrice": {
        "_hex": "0xe1063c615"
      },
      "gasLimit": {
        "_hex": "0x55f0"
      },
      "to": "0x9E8087B1033C2f34cF0D4aD7b852100f6c4b7225",
      "value": {
        "_hex": "0x14e926618ab2f308"
      },
      "nonce": 3062,
      "data": "0x",
      "r": "0x6dc71e8270194399171b56dee5b5dccaaf85983d87415db02a5238ceba2ec0bd",
      "s": "0x160ef27f52d2b57a087cbd01d81a2d42c7d13a76e5d5e031aa764744fcbcb639",
      "v": 28,
      "creates": null,
      "raw": "0xf86e820bf6850e1063c6158255f0949e8087b1033c2f34cf0d4ad7b852100f6c4b72258814e926618ab2f308801ca06dc71e8270194399171b56dee5b5dccaaf85983d87415db02a5238ceba2ec0bda0160ef27f52d2b57a087cbd01d81a2d42c7d13a76e5d5e031aa764744fcbcb639",
      "networkId": 0,
      "chainId": 0
    },
    {
      "hash": "0x57f9ea66b8342ccaeccd66371387bfae2b1b87d404e73174758e8b1dd53e6069",
      "blockHash": "0x8d498cf5e5b13e7a4f448b4b8e6f7fb0a2f45a8d9a6fa5a41569a81d8d51a058",
      "blockNumber": 99946,
      "transactionIndex": 6,
      "confirmations": null,
      "from": "0xe6A7a1d47ff21B6321162AEA7C6CB457D5476Bca",
      "gasPrice": {
        "_hex": "0xe1063c615"
      },
      "gasLimit": {
        "_hex": "0x55f0"
      },
      "to": "0xda5E395F4f06f7A77C591d97d6502Ddf471E12c1",
      "value": {
        "_hex": "0x15001840f8e1dde8"
      },
      "nonce": 3063,
      "data": "0x",
      "r": "0xdfbcdf4f9111707ac3be278c0d24530e429441b7170e19c8f00ec8a22bf237c3",
      "s": "0x7028c3a01e5ec9bed87a53a54af2a9411163e849f4c652d32426f9ccb3136495",
      "v": 28,
      "creates": null,
      "raw": "0xf86e820bf7850e1063c6158255f094da5e395f4f06f7a77c591d97d6502ddf471e12c18815001840f8e1dde8801ca0dfbcdf4f9111707ac3be278c0d24530e429441b7170e19c8f00ec8a22bf237c3a07028c3a01e5ec9bed87a53a54af2a9411163e849f4c652d32426f9ccb3136495",
      "networkId": 0,
      "chainId": 0
    },
    {
      "hash": "0x20768f2b84a5eb0aef122e1dd708e2d149d749d21b50e29ca98034acfe73cc44",
      "blockHash": "0x8d498cf5e5b13e7a4f448b4b8e6f7fb0a2f45a8d9a6fa5a41569a81d8d51a058",
      "blockNumber": 99946,
      "transactionIndex": 7,
      "confirmations": null,
      "from": "0xe6A7a1d47ff21B6321162AEA7C6CB457D5476Bca",
      "gasPrice": {
        "_hex": "0xe1063c615"
      },
      "gasLimit": {
        "_hex": "0x55f0"
      },
      "to": "0x773a96793d9444D26e6a59C16fca75E770d97C5F",
      "value": {
        "_hex": "0x150c8c5d5242a2f4"
      },
      "nonce": 3064,
      "data": "0x",
      "r": "0x6372f57cc65b9fdf10a72e677eb39902bfc35da688bbe6dc486ea9a85b7a628b",
      "s": "0x053c79a30c65bf3599ef03f6922fb8722090a634136a35394dbe84297e27f4ca",
      "v": 27,
      "creates": null,
      "raw": "0xf86e820bf8850e1063c6158255f094773a96793d9444d26e6a59c16fca75e770d97c5f88150c8c5d5242a2f4801ba06372f57cc65b9fdf10a72e677eb39902bfc35da688bbe6dc486ea9a85b7a628ba0053c79a30c65bf3599ef03f6922fb8722090a634136a35394dbe84297e27f4ca",
      "networkId": 0,
      "chainId": 0
    },
    {
      "hash": "0xa29f91a7568981a71491510b34a0167c33509ce1f69e539719d4a1721eaabe9c",
      "blockHash": "0x8d498cf5e5b13e7a4f448b4b8e6f7fb0a2f45a8d9a6fa5a41569a81d8d51a058",
      "blockNumber": 99946,
      "transactionIndex": 8,
      "confirmations": null,
      "from": "0xe6A7a1d47ff21B6321162AEA7C6CB457D5476Bca",
      "gasPrice": {
        "_hex": "0xe1063c615"
      },
      "gasLimit": {
        "_hex": "0x55f0"
      },
      "to": "0x528419cd4425d074D168Ae82CdFc335076b09B2F",
      "value": {
        "_hex": "0x1548e24b0b739b28"
      },
      "nonce": 3065,
      "data": "0x",
      "r": "0x9de0a7e717fa603f90ee0deed2fe032eed1fbd6cacda66aa1a125deae08ca993",
      "s": "0x2d94b81067bf618ae1c5eeaf609d5eca2df78b08d0974d1bdb30baaa0016a2b9",
      "v": 27,
      "creates": null,
      "raw": "0xf86e820bf9850e1063c6158255f094528419cd4425d074d168ae82cdfc335076b09b2f881548e24b0b739b28801ba09de0a7e717fa603f90ee0deed2fe032eed1fbd6cacda66aa1a125deae08ca993a02d94b81067bf618ae1c5eeaf609d5eca2df78b08d0974d1bdb30baaa0016a2b9",
      "networkId": 0,
      "chainId": 0
    },
    {
      "hash": "0xb3cd2f8b2c04f42ee83f472e04e6051ba5325e6a301e81553ad13ff54d450ad2",
      "blockHash": "0x8d498cf5e5b13e7a4f448b4b8e6f7fb0a2f45a8d9a6fa5a41569a81d8d51a058",
      "blockNumber": 99946,
      "transactionIndex": 9,
      "confirmations": null,
      "from": "0xe6A7a1d47ff21B6321162AEA7C6CB457D5476Bca",
      "gasPrice": {
        "_hex": "0xe1063c615"
      },
      "gasLimit": {
        "_hex": "0x55f0"
      },
      "to": "0xe2073a029bBF0eE2A933ceeFa9b3658973320CA5",
      "value": {
        "_hex": "0x15b6125893a46a2c"
      },
      "nonce": 3066,
      "data": "0x",
      "r": "0xa4e29b0080959e5b729458965b267ee2e558bc5e765b8fb4a342d734991050df",
      "s": "0x7d9cc7f7d92c4b9983c56da7430c8bed5aaaf76c8c79d2e61e3a785bec1797d0",
      "v": 27,
      "creates": null,
      "raw": "0xf86e820bfa850e1063c6158255f094e2073a029bbf0ee2a933ceefa9b3658973320ca58815b6125893a46a2c801ba0a4e29b0080959e5b729458965b267ee2e558bc5e765b8fb4a342d734991050dfa07d9cc7f7d92c4b9983c56da7430c8bed5aaaf76c8c79d2e61e3a785bec1797d0",
      "networkId": 0,
      "chainId": 0
    },
    {
      "hash": "0xf4fa964e67303d62a54104a69f9e5194dca5e80456e1e4f6f6a1835426fdcfd3",
      "blockHash": "0x8d498cf5e5b13e7a4f448b4b8e6f7fb0a2f45a8d9a6fa5a41569a81d8d51a058",
      "blockNumber": 99946,
      "transactionIndex": 10,
      "confirmations": null,
      "from": "0xe6A7a1d47ff21B6321162AEA7C6CB457D5476Bca",
      "gasPrice": {
        "_hex": "0xe1063c615"
      },
      "gasLimit": {
        "_hex": "0x55f0"
      },
      "to": "0xbE97502418b30440315e0F5c824943C7500ce91A",
      "value": {
        "_hex": "0x15e9a3b31f988cd8"
      },
      "nonce": 3067,
      "data": "0x",
      "r": "0x7e657ee8118e698a34dabc07e379b3d565be9b8a29c4ad758c54b4f2c373a873",
      "s": "0x27077d44ee359e1b791c5e921c28a6f7c03ef8e42456ce0bb7c9b3b72a299fa5",
      "v": 27,
      "creates": null,
      "raw": "0xf86e820bfb850e1063c6158255f094be97502418b30440315e0f5c824943c7500ce91a8815e9a3b31f988cd8801ba07e657ee8118e698a34dabc07e379b3d565be9b8a29c4ad758c54b4f2c373a873a027077d44ee359e1b791c5e921c28a6f7c03ef8e42456ce0bb7c9b3b72a299fa5",
      "networkId": 0,
      "chainId": 0
    },
    {
      "hash": "0x0e53bfc2fee7123b82776f68ad3baff16bd7340c52b0feed9bfc8cb2a9997ec8",
      "blockHash": "0x8d498cf5e5b13e7a4f448b4b8e6f7fb0a2f45a8d9a6fa5a41569a81d8d51a058",
      "blockNumber": 99946,
      "transactionIndex": 11,
      "confirmations": null,
      "from": "0xe6A7a1d47ff21B6321162AEA7C6CB457D5476Bca",
      "gasPrice": {
        "_hex": "0xe1063c615"
      },
      "gasLimit": {
        "_hex": "0x55f0"
      },
      "to": "0x4F2B8001a7022812Fdd958AA86dD63e2b8B994C1",
      "value": {
        "_hex": "0x16194396407f2d00"
      },
      "nonce": 3068,
      "data": "0x",
      "r": "0x93358537ad21bc8f9313a45f1e15f705e1cafbc853936907ed9c01a72af489b2",
      "s": "0x5da1a6028a4ce760a482965754ac0306453414c70786575052faaa6a95feab98",
      "v": 27,
      "creates": null,
      "raw": "0xf86e820bfc850e1063c6158255f0944f2b8001a7022812fdd958aa86dd63e2b8b994c18816194396407f2d00801ba093358537ad21bc8f9313a45f1e15f705e1cafbc853936907ed9c01a72af489b2a05da1a6028a4ce760a482965754ac0306453414c70786575052faaa6a95feab98",
      "networkId": 0,
      "chainId": 0
    },
    {
      "hash": "0x1678a0f6a36f80aeb041106c9e20ce353896391cd44ddd206755790039b123bc",
      "blockHash": "0x8d498cf5e5b13e7a4f448b4b8e6f7fb0a2f45a8d9a6fa5a41569a81d8d51a058",
      "blockNumber": 99946,
      "transactionIndex": 12,
      "confirmations": null,
      "from": "0xe6A7a1d47ff21B6321162AEA7C6CB457D5476Bca",
      "gasPrice": {
        "_hex": "0xe1063c615"
      },
      "gasLimit": {
        "_hex": "0x55f0"
      },
      "to": "0x60c84CBDBAc16e3cd806520Ab204029D7aab5588",
      "value": {
        "_hex": "0x161cb486070b8cf8"
      },
      "nonce": 3069,
      "data": "0x",
      "r": "0x56ca8123cc3806a5b48af5d6817b9e9dc960debe678faddc119c79d514dcab73",
      "s": "0x1a511d6bf217ce8a6ce18bc3f6642e737799183cb1a6a895c42d7dcd22db839b",
      "v": 27,
      "creates": null,
      "raw": "0xf86e820bfd850e1063c6158255f09460c84cbdbac16e3cd806520ab204029d7aab558888161cb486070b8cf8801ba056ca8123cc3806a5b48af5d6817b9e9dc960debe678faddc119c79d514dcab73a01a511d6bf217ce8a6ce18bc3f6642e737799183cb1a6a895c42d7dcd22db839b",
      "networkId": 0,
      "chainId": 0
    },
    {
      "hash": "0x6527ab00c0adea2ddb23ccb25d6beb2b95ead8e9676da2795e47634bcde8dafb",
      "blockHash": "0x8d498cf5e5b13e7a4f448b4b8e6f7fb0a2f45a8d9a6fa5a41569a81d8d51a058",
      "blockNumber": 99946,
      "transactionIndex": 13,
      "confirmations": null,
      "from": "0xe6A7a1d47ff21B6321162AEA7C6CB457D5476Bca",
      "gasPrice": {
        "_hex": "0xe1063c615"
      },
      "gasLimit": {
        "_hex": "0x55f0"
      },
      "to": "0xe6C9430205BD87DA80B9D5F286442Bf45CB49423",
      "value": {
        "_hex": "0x169728883c686114"
      },
      "nonce": 3070,
      "data": "0x",
      "r": "0xff387eeb5fd4c99b7bb460d914b07c9560d467430bf047121b7462ad61bff9f0",
      "s": "0x67398746800bffb5c24de646dd7edba563d9f7dc649b5e38040b570292ef817f",
      "v": 28,
      "creates": null,
      "raw": "0xf86e820bfe850e1063c6158255f094e6c9430205bd87da80b9d5f286442bf45cb4942388169728883c686114801ca0ff387eeb5fd4c99b7bb460d914b07c9560d467430bf047121b7462ad61bff9f0a067398746800bffb5c24de646dd7edba563d9f7dc649b5e38040b570292ef817f",
      "networkId": 0,
      "chainId": 0
    },
    {
      "hash": "0xa5a619221e466617166a9b543a3232a912a0a0a544b7f7c2f6447fdec775ec93",
      "blockHash": "0x8d498cf5e5b13e7a4f448b4b8e6f7fb0a2f45a8d9a6fa5a41569a81d8d51a058",
      "blockNumber": 99946,
      "transactionIndex": 14,
      "confirmations": null,
      "from": "0xe6A7a1d47ff21B6321162AEA7C6CB457D5476Bca",
      "gasPrice": {
        "_hex": "0xe1063c615"
      },
      "gasLimit": {
        "_hex": "0x55f0"
      },
      "to": "0xF8Fca9e38A8bc846BE8ea3B37bb94ea23B475D2F",
      "value": {
        "_hex": "0x16a22dfa3c0a2e78"
      },
      "nonce": 3071,
      "data": "0x",
      "r": "0xdc73d0a217c0fa7d2d0e80ae1ced846d5576ac99d6f5b98d9694ba27c20c92f7",
      "s": "0x148877abadf8cee218a90ccfcd032bf5460f5fe6f8edea4b9a997cdf08526038",
      "v": 28,
      "creates": null,
      "raw": "0xf86e820bff850e1063c6158255f094f8fca9e38a8bc846be8ea3b37bb94ea23b475d2f8816a22dfa3c0a2e78801ca0dc73d0a217c0fa7d2d0e80ae1ced846d5576ac99d6f5b98d9694ba27c20c92f7a0148877abadf8cee218a90ccfcd032bf5460f5fe6f8edea4b9a997cdf08526038",
      "networkId": 0,
      "chainId": 0
    },
    {
      "hash": "0xb848a8840e9f005f83cc0097104676361714414022abe856dc5061e32ab96a22",
      "blockHash": "0x8d498cf5e5b13e7a4f448b4b8e6f7fb0a2f45a8d9a6fa5a41569a81d8d51a058",
      "blockNumber": 99946,
      "transactionIndex": 15,
      "confirmations": null,
      "from": "0xe6A7a1d47ff21B6321162AEA7C6CB457D5476Bca",
      "gasPrice": {
        "_hex": "0xe1063c615"
      },
      "gasLimit": {
        "_hex": "0x55f0"
      },
      "to": "0xBF7B0E43c329d2cD6864dD8F81c0d79cd2134297",
      "value": {
        "_hex": "0x16f1657db7e3eed0"
      },
      "nonce": 3072,
      "data": "0x",
      "r": "0xf2dc393d6fc4b9729a50e9b3f56181a24449fe95ed9bd0783c54c9cdbebb4475",
      "s": "0x1479af0af2295878211237f29cdd70de1a14ea71ae42eaa14ed57d8bb195022e",
      "v": 28,
      "creates": null,
      "raw": "0xf86e820c00850e1063c6158255f094bf7b0e43c329d2cd6864dd8f81c0d79cd21342978816f1657db7e3eed0801ca0f2dc393d6fc4b9729a50e9b3f56181a24449fe95ed9bd0783c54c9cdbebb4475a01479af0af2295878211237f29cdd70de1a14ea71ae42eaa14ed57d8bb195022e",
      "networkId": 0,
      "chainId": 0
    },
    {
      "hash": "0x6d2acc27bdcbf44ec5feb2041955fcca1607da12577d27c326a4ff6b0bc6534c",
      "blockHash": "0x8d498cf5e5b13e7a4f448b4b8e6f7fb0a2f45a8d9a6fa5a41569a81d8d51a058",
      "blockNumber": 99946,
      "transactionIndex": 16,
      "confirmations": null,
      "from": "0xe6A7a1d47ff21B6321162AEA7C6CB457D5476Bca",
      "gasPrice": {
        "_hex": "0xe1063c615"
      },
      "gasLimit": {
        "_hex": "0x55f0"
      },
      "to": "0x87434351D204a98354B6fd9819e91F33F1F0a91D",
      "value": {
        "_hex": "0x16f81e6786270130"
      },
      "nonce": 3073,
      "data": "0x",
      "r": "0x4c781cb9cfb54582894c0d9ffb61544c380f7fa4813fe7136dd1de6bcaeeb042",
      "s": "0x72b10ab533908f4b08cab96b17ad1d323cdb9303cbd04bfbe2ef5a23d8c9beb1",
      "v": 28,
      "creates": null,
      "raw": "0xf86e820c01850e1063c6158255f09487434351d204a98354b6fd9819e91f33f1f0a91d8816f81e6786270130801ca04c781cb9cfb54582894c0d9ffb61544c380f7fa4813fe7136dd1de6bcaeeb042a072b10ab533908f4b08cab96b17ad1d323cdb9303cbd04bfbe2ef5a23d8c9beb1",
      "networkId": 0,
      "chainId": 0
    },
    {
      "hash": "0xf63540eead87d9e71fd82a5efe39cb076a4ebb3f7cfec6d7b9ddef97ed94a248",
      "blockHash": "0x8d498cf5e5b13e7a4f448b4b8e6f7fb0a2f45a8d9a6fa5a41569a81d8d51a058",
      "blockNumber": 99946,
      "transactionIndex": 17,
      "confirmations": null,
      "from": "0xe6A7a1d47ff21B6321162AEA7C6CB457D5476Bca",
      "gasPrice": {
        "_hex": "0xe1063c615"
      },
      "gasLimit": {
        "_hex": "0x55f0"
      },
      "to": "0x9E0Afd592B1e40BEe26816E360f02eebF04aD74B",
      "value": {
        "_hex": "0x17093a7561550330"
      },
      "nonce": 3074,
      "data": "0x",
      "r": "0xa0e204d284e3c9c4730cb62553966c1d80253f431f5fcc60f97ecc0c7a719b13",
      "s": "0x5a548cf15f020694fecdde6e1f5398bda0abfc26eb527827049ad4a15699bd95",
      "v": 27,
      "creates": null,
      "raw": "0xf86e820c02850e1063c6158255f0949e0afd592b1e40bee26816e360f02eebf04ad74b8817093a7561550330801ba0a0e204d284e3c9c4730cb62553966c1d80253f431f5fcc60f97ecc0c7a719b13a05a548cf15f020694fecdde6e1f5398bda0abfc26eb527827049ad4a15699bd95",
      "networkId": 0,
      "chainId": 0
    },
    {
      "hash": "0x3b739a94529c4cb7c5a60170ae519223300971395afdfd441adc49b718d26477",
      "blockHash": "0x8d498cf5e5b13e7a4f448b4b8e6f7fb0a2f45a8d9a6fa5a41569a81d8d51a058",
      "blockNumber": 99946,
      "transactionIndex": 18,
      "confirmations": null,
      "from": "0xe6A7a1d47ff21B6321162AEA7C6CB457D5476Bca",
      "gasPrice": {
        "_hex": "0xe1063c615"
      },
      "gasLimit": {
        "_hex": "0x55f0"
      },
      "to": "0x602E2B65e38bD1B0AB230B35878dF011d74f2c59",
      "value": {
        "_hex": "0x173c82394a32cbd0"
      },
      "nonce": 3075,
      "data": "0x",
      "r": "0xdde00d3b51008259238194c337f03b76d87bc36aac05df9eb359fd48c0217589",
      "s": "0x64328560b83ec770dc59b642e2a749480a92323b512527ac6b22424161f429b6",
      "v": 28,
      "creates": null,
      "raw": "0xf86e820c03850e1063c6158255f094602e2b65e38bd1b0ab230b35878df011d74f2c5988173c82394a32cbd0801ca0dde00d3b51008259238194c337f03b76d87bc36aac05df9eb359fd48c0217589a064328560b83ec770dc59b642e2a749480a92323b512527ac6b22424161f429b6",
      "networkId": 0,
      "chainId": 0
    },
    {
      "hash": "0x1580d7b729d51e944fcf8159e5824a227660e8cc61d3c51a650c6952fe575efb",
      "blockHash": "0x8d498cf5e5b13e7a4f448b4b8e6f7fb0a2f45a8d9a6fa5a41569a81d8d51a058",
      "blockNumber": 99946,
      "transactionIndex": 19,
      "confirmations": null,
      "from": "0xe6A7a1d47ff21B6321162AEA7C6CB457D5476Bca",
      "gasPrice": {
        "_hex": "0xe1063c615"
      },
      "gasLimit": {
        "_hex": "0x55f0"
      },
      "to": "0x0EB0AcFB7C81a83296b8C023673f362e8FCd88bD",
      "value": {
        "_hex": "0x174104d8cd4e84d4"
      },
      "nonce": 3076,
      "data": "0x",
      "r": "0x7d13a500f10760cd264fc749822cd9d8fff27c69fffad8b7b69716a95ac5b086",
      "s": "0x4e66304aabe1dbdc1c2de23783b10083b6bc1548be442905310f820399214512",
      "v": 28,
      "creates": null,
      "raw": "0xf86e820c04850e1063c6158255f0940eb0acfb7c81a83296b8c023673f362e8fcd88bd88174104d8cd4e84d4801ca07d13a500f10760cd264fc749822cd9d8fff27c69fffad8b7b69716a95ac5b086a04e66304aabe1dbdc1c2de23783b10083b6bc1548be442905310f820399214512",
      "networkId": 0,
      "chainId": 0
    },
    {
      "hash": "0xe7e8dd63ee37d967834a0d6559f003c7dfd51f0991e04609f110b95540172893",
      "blockHash": "0x8d498cf5e5b13e7a4f448b4b8e6f7fb0a2f45a8d9a6fa5a41569a81d8d51a058",
      "blockNumber": 99946,
      "transactionIndex": 20,
      "confirmations": null,
      "from": "0xe6A7a1d47ff21B6321162AEA7C6CB457D5476Bca",
      "gasPrice": {
        "_hex": "0xe1063c615"
      },
      "gasLimit": {
        "_hex": "0x55f0"
      },
      "to": "0x55d6bb729E3D6128B9032d03897D7C85cBB4e688",
      "value": {
        "_hex": "0x1778585b230e05b8"
      },
      "nonce": 3077,
      "data": "0x",
      "r": "0x293f4cc4bfc7a23ae111594ffcd8532b243d8d5248cb85a1601b8aa273d53c65",
      "s": "0x60589e08a944ea2f82187ad2f445ce769e38732d2f7836d97ffaa8235dd42fa9",
      "v": 28,
      "creates": null,
      "raw": "0xf86e820c05850e1063c6158255f09455d6bb729e3d6128b9032d03897d7c85cbb4e688881778585b230e05b8801ca0293f4cc4bfc7a23ae111594ffcd8532b243d8d5248cb85a1601b8aa273d53c65a060589e08a944ea2f82187ad2f445ce769e38732d2f7836d97ffaa8235dd42fa9",
      "networkId": 0,
      "chainId": 0
    },
    {
      "hash": "0xf1a8c79909c73fb09104be365341fa65f8731b0d08937de768046a7e2879c250",
      "blockHash": "0x8d498cf5e5b13e7a4f448b4b8e6f7fb0a2f45a8d9a6fa5a41569a81d8d51a058",
      "blockNumber": 99946,
      "transactionIndex": 21,
      "confirmations": null,
      "from": "0xe6A7a1d47ff21B6321162AEA7C6CB457D5476Bca",
      "gasPrice": {
        "_hex": "0xe1063c615"
      },
      "gasLimit": {
        "_hex": "0x55f0"
      },
      "to": "0x2AC36246B388F762Fdc3CA30E749A1494fDA99Ee",
      "value": {
        "_hex": "0x1789a5060033bffc"
      },
      "nonce": 3078,
      "data": "0x",
      "r": "0x880fa84fb73b8af14da8d56518a4fe1b83f0760aa6bb559ae9ce8b720943ad54",
      "s": "0x607daf877a41983e1df7d5fa5a1257b90fa9315a585fa80c4386263785974e08",
      "v": 27,
      "creates": null,
      "raw": "0xf86e820c06850e1063c6158255f0942ac36246b388f762fdc3ca30e749a1494fda99ee881789a5060033bffc801ba0880fa84fb73b8af14da8d56518a4fe1b83f0760aa6bb559ae9ce8b720943ad54a0607daf877a41983e1df7d5fa5a1257b90fa9315a585fa80c4386263785974e08",
      "networkId": 0,
      "chainId": 0
    },
    {
      "hash": "0x3bcea5ef7f86af1ebde1697d5db5cf3c055c89f99b23ee51a1a3f959eec96fd6",
      "blockHash": "0x8d498cf5e5b13e7a4f448b4b8e6f7fb0a2f45a8d9a6fa5a41569a81d8d51a058",
      "blockNumber": 99946,
      "transactionIndex": 22,
      "confirmations": null,
      "from": "0xe6A7a1d47ff21B6321162AEA7C6CB457D5476Bca",
      "gasPrice": {
        "_hex": "0xe1063c615"
      },
      "gasLimit": {
        "_hex": "0x55f0"
      },
      "to": "0x3D1d22d2A05a3E9b3792561f2FF5f8D879352d6c",
      "value": {
        "_hex": "0x179fc2083daa81ec"
      },
      "nonce": 3079,
      "data": "0x",
      "r": "0x2553eece364b16aa9fe0a96e8bf8c44d3505b966a92398301f5cae26368273e6",
      "s": "0x3c29c7df95b234789230eafe366eecafd6ff7b8ae9ed87efbf8f49fda453ffce",
      "v": 28,
      "creates": null,
      "raw": "0xf86e820c07850e1063c6158255f0943d1d22d2a05a3e9b3792561f2ff5f8d879352d6c88179fc2083daa81ec801ca02553eece364b16aa9fe0a96e8bf8c44d3505b966a92398301f5cae26368273e6a03c29c7df95b234789230eafe366eecafd6ff7b8ae9ed87efbf8f49fda453ffce",
      "networkId": 0,
      "chainId": 0
    },
    {
      "hash": "0xcae8eea2e3ea7a1e3f16cc9cef48b9c56e16d264d56327ea7e706f306408e40c",
      "blockHash": "0x8d498cf5e5b13e7a4f448b4b8e6f7fb0a2f45a8d9a6fa5a41569a81d8d51a058",
      "blockNumber": 99946,
      "transactionIndex": 23,
      "confirmations": null,
      "from": "0xe6A7a1d47ff21B6321162AEA7C6CB457D5476Bca",
      "gasPrice": {
        "_hex": "0xe1063c615"
      },
      "gasLimit": {
        "_hex": "0x55f0"
      },
      "to": "0xeFcD857C9235bDD977b33b263dBB0255F055AAD5",
      "value": {
        "_hex": "0x182f2a41e3bad1f0"
      },
      "nonce": 3080,
      "data": "0x",
      "r": "0xc03187ee196b21d00ede76293776a1e18c92c18ce1f0a2caaa851ba404f933c4",
      "s": "0x7f29930f8ca751fdc15d4b76496b69507a5cc39d79ea85d33785260545da9d4d",
      "v": 28,
      "creates": null,
      "raw": "0xf86e820c08850e1063c6158255f094efcd857c9235bdd977b33b263dbb0255f055aad588182f2a41e3bad1f0801ca0c03187ee196b21d00ede76293776a1e18c92c18ce1f0a2caaa851ba404f933c4a07f29930f8ca751fdc15d4b76496b69507a5cc39d79ea85d33785260545da9d4d",
      "networkId": 0,
      "chainId": 0
    },
    {
      "hash": "0x6eb6febff21f3f393d6e567d95840c6162a1e0991e5299c5e0c66f157185cd70",
      "blockHash": "0x8d498cf5e5b13e7a4f448b4b8e6f7fb0a2f45a8d9a6fa5a41569a81d8d51a058",
      "blockNumber": 99946,
      "transactionIndex": 24,
      "confirmations": null,
      "from": "0xe6A7a1d47ff21B6321162AEA7C6CB457D5476Bca",
      "gasPrice": {
        "_hex": "0xe1063c615"
      },
      "gasLimit": {
        "_hex": "0x55f0"
      },
      "to": "0xaEDBC952F1334C1Bf1bAE3326F3dc9E405235c21",
      "value": {
        "_hex": "0x1857d4e18a8c6b70"
      },
      "nonce": 3081,
      "data": "0x",
      "r": "0x3c056346fdf8c96c24d1ca5348420ca62ec278150d77b4a55988fc39f016c801",
      "s": "0x118ca82a0d441c5abe029b3ced68bfccd9ebe5ef04f516623edbe086b8f5978a",
      "v": 27,
      "creates": null,
      "raw": "0xf86e820c09850e1063c6158255f094aedbc952f1334c1bf1bae3326f3dc9e405235c21881857d4e18a8c6b70801ba03c056346fdf8c96c24d1ca5348420ca62ec278150d77b4a55988fc39f016c801a0118ca82a0d441c5abe029b3ced68bfccd9ebe5ef04f516623edbe086b8f5978a",
      "networkId": 0,
      "chainId": 0
    },
    {
      "hash": "0x73518accc1a0ab5d10c2d9a48816fd9bea6de2f562da12ffbca2c8773528c174",
      "blockHash": "0x8d498cf5e5b13e7a4f448b4b8e6f7fb0a2f45a8d9a6fa5a41569a81d8d51a058",
      "blockNumber": 99946,
      "transactionIndex": 25,
      "confirmations": null,
      "from": "0xe6A7a1d47ff21B6321162AEA7C6CB457D5476Bca",
      "gasPrice": {
        "_hex": "0xe1063c615"
      },
      "gasLimit": {
        "_hex": "0x55f0"
      },
      "to": "0xa66f0927F63Be3Af16690f52e907F845Da66EaF8",
      "value": {
        "_hex": "0x186bb25b9adcbd0c"
      },
      "nonce": 3082,
      "data": "0x",
      "r": "0x5549e9a2e60eac8683b5cb203ccc54b0fbd28f53982d398bf82a306fe53fe975",
      "s": "0x14e7845b2dcd3e038e1f99d525295d303b6698df9d07b5bdcfeef4f361c72308",
      "v": 27,
      "creates": null,
      "raw": "0xf86e820c0a850e1063c6158255f094a66f0927f63be3af16690f52e907f845da66eaf888186bb25b9adcbd0c801ba05549e9a2e60eac8683b5cb203ccc54b0fbd28f53982d398bf82a306fe53fe975a014e7845b2dcd3e038e1f99d525295d303b6698df9d07b5bdcfeef4f361c72308",
      "networkId": 0,
      "chainId": 0
    },
    {
      "hash": "0x9dd7062fbab62459fc94870c1986b00509e6a728c4c47abb2d389ddaf9b16ff0",
      "blockHash": "0x8d498cf5e5b13e7a4f448b4b8e6f7fb0a2f45a8d9a6fa5a41569a81d8d51a058",
      "blockNumber": 99946,
      "transactionIndex": 26,
      "confirmations": null,
      "from": "0xe6A7a1d47ff21B6321162AEA7C6CB457D5476Bca",
      "gasPrice": {
        "_hex": "0xe1063c615"
      },
      "gasLimit": {
        "_hex": "0x55f0"
      },
      "to": "0x18d4625470F85b3A599619208E44301E6eFeaB5c",
      "value": {
        "_hex": "0x186bc0ca43a2dbc0"
      },
      "nonce": 3083,
      "data": "0x",
      "r": "0x38107c8a940fd97decd231159d995fb0b1bf8ef7d096077c4ee76283be1d113a",
      "s": "0x2d888a2df67a97a7c801f61554f051e0d2e79375df5e06b2952cde584bd820e4",
      "v": 27,
      "creates": null,
      "raw": "0xf86e820c0b850e1063c6158255f09418d4625470f85b3a599619208e44301e6efeab5c88186bc0ca43a2dbc0801ba038107c8a940fd97decd231159d995fb0b1bf8ef7d096077c4ee76283be1d113aa02d888a2df67a97a7c801f61554f051e0d2e79375df5e06b2952cde584bd820e4",
      "networkId": 0,
      "chainId": 0
    },
    {
      "hash": "0x3a86c23ffc3f5edced2cc90935531e379746d1513274842325a11e0b256cd903",
      "blockHash": "0x8d498cf5e5b13e7a4f448b4b8e6f7fb0a2f45a8d9a6fa5a41569a81d8d51a058",
      "blockNumber": 99946,
      "transactionIndex": 27,
      "confirmations": null,
      "from": "0xe6A7a1d47ff21B6321162AEA7C6CB457D5476Bca",
      "gasPrice": {
        "_hex": "0xe1063c615"
      },
      "gasLimit": {
        "_hex": "0x55f0"
      },
      "to": "0xBf2E71Ec98f4FAbfFC80EAc8f941ce73d5e02E9b",
      "value": {
        "_hex": "0x187b53160c656270"
      },
      "nonce": 3084,
      "data": "0x",
      "r": "0xb7b065621da672f6e9d0220e89744e53c6c5f7c7ebbf271f0ac76aa13428b7e9",
      "s": "0x1ea3d0cd71b3ea5890c631ea697c527b5376ab83f622831548a28e84fbde7b32",
      "v": 28,
      "creates": null,
      "raw": "0xf86e820c0c850e1063c6158255f094bf2e71ec98f4fabffc80eac8f941ce73d5e02e9b88187b53160c656270801ca0b7b065621da672f6e9d0220e89744e53c6c5f7c7ebbf271f0ac76aa13428b7e9a01ea3d0cd71b3ea5890c631ea697c527b5376ab83f622831548a28e84fbde7b32",
      "networkId": 0,
      "chainId": 0
    },
    {
      "hash": "0xcfd06b81ec24d840987f111148c53b9b09eddf96d488fc526e7b44be576d8d9a",
      "blockHash": "0x8d498cf5e5b13e7a4f448b4b8e6f7fb0a2f45a8d9a6fa5a41569a81d8d51a058",
      "blockNumber": 99946,
      "transactionIndex": 28,
      "confirmations": null,
      "from": "0xe6A7a1d47ff21B6321162AEA7C6CB457D5476Bca",
      "gasPrice": {
        "_hex": "0xe1063c615"
      },
      "gasLimit": {
        "_hex": "0x55f0"
      },
      "to": "0xd68ba7734753e2eE54103116323aBA2D94C78dC5",
      "value": {
        "_hex": "0x18a134c3936c6bd8"
      },
      "nonce": 3085,
      "data": "0x",
      "r": "0xdd84637876130e46b5520f563b5cb83f204e6b6640dc4d15e0009f50f5951c08",
      "s": "0x00523cc242d79e2d684cfde96bd2552d594f4f1c44d377a146eaf2cc36ce0a3e",
      "v": 27,
      "creates": null,
      "raw": "0xf86d820c0d850e1063c6158255f094d68ba7734753e2ee54103116323aba2d94c78dc58818a134c3936c6bd8801ba0dd84637876130e46b5520f563b5cb83f204e6b6640dc4d15e0009f50f5951c089f523cc242d79e2d684cfde96bd2552d594f4f1c44d377a146eaf2cc36ce0a3e",
      "networkId": 0,
      "chainId": 0
    },
    {
      "hash": "0xe07c1c0f6becfff98e7881ac625c543f2cd979570d10a1c8f754d23243aaa019",
      "blockHash": "0x8d498cf5e5b13e7a4f448b4b8e6f7fb0a2f45a8d9a6fa5a41569a81d8d51a058",
      "blockNumber": 99946,
      "transactionIndex": 29,
      "confirmations": null,
      "from": "0xe6A7a1d47ff21B6321162AEA7C6CB457D5476Bca",
      "gasPrice": {
        "_hex": "0xe1063c615"
      },
      "gasLimit": {
        "_hex": "0x55f0"
      },
      "to": "0x160aa7EC7e94C7E72bbd4560b1db208E951e4d70",
      "value": {
        "_hex": "0x18a658755a9db624"
      },
      "nonce": 3086,
      "data": "0x",
      "r": "0xcb1f1cf1ddc00962817ee90b25ec9f5670fa062c5913bf107017c45702cadeae",
      "s": "0x5f6f41dc2b9b4c6ebb0bd42d5e1494f44784d8643dd1ada38485304be941596f",
      "v": 28,
      "creates": null,
      "raw": "0xf86e820c0e850e1063c6158255f094160aa7ec7e94c7e72bbd4560b1db208e951e4d708818a658755a9db624801ca0cb1f1cf1ddc00962817ee90b25ec9f5670fa062c5913bf107017c45702cadeaea05f6f41dc2b9b4c6ebb0bd42d5e1494f44784d8643dd1ada38485304be941596f",
      "networkId": 0,
      "chainId": 0
    },
    {
      "hash": "0x327ec9b64f6c76368880e11962ecc89efa2b0bc4165082737916cb68ae4e92c8",
      "blockHash": "0x8d498cf5e5b13e7a4f448b4b8e6f7fb0a2f45a8d9a6fa5a41569a81d8d51a058",
      "blockNumber": 99946,
      "transactionIndex": 30,
      "confirmations": null,
      "from": "0xe6A7a1d47ff21B6321162AEA7C6CB457D5476Bca",
      "gasPrice": {
        "_hex": "0xe1063c615"
      },
      "gasLimit": {
        "_hex": "0x55f0"
      },
      "to": "0x0A319A7e0C887F104359e1eEe6717BD8f232d3Da",
      "value": {
        "_hex": "0x18b9fe45129a5600"
      },
      "nonce": 3087,
      "data": "0x",
      "r": "0x40d3c80707c3a7e5188da33c79ffac48f0df6a74ca44db8e0b406eb7eb514968",
      "s": "0x4c0957a7d87951bafd6c0d8a96890116f1aa9fee1e6ba8ef35e66c751bb14e49",
      "v": 28,
      "creates": null,
      "raw": "0xf86e820c0f850e1063c6158255f0940a319a7e0c887f104359e1eee6717bd8f232d3da8818b9fe45129a5600801ca040d3c80707c3a7e5188da33c79ffac48f0df6a74ca44db8e0b406eb7eb514968a04c0957a7d87951bafd6c0d8a96890116f1aa9fee1e6ba8ef35e66c751bb14e49",
      "networkId": 0,
      "chainId": 0
    },
    {
      "hash": "0x2b1568f6b4a1d44da3a70aecf671943e57c57cc398091520f367c8b424b03f36",
      "blockHash": "0x8d498cf5e5b13e7a4f448b4b8e6f7fb0a2f45a8d9a6fa5a41569a81d8d51a058",
      "blockNumber": 99946,
      "transactionIndex": 31,
      "confirmations": null,
      "from": "0xe6A7a1d47ff21B6321162AEA7C6CB457D5476Bca",
      "gasPrice": {
        "_hex": "0xe1063c615"
      },
      "gasLimit": {
        "_hex": "0x55f0"
      },
      "to": "0x28cF1915522F9744EF20294FAeBe6575e2fd5F38",
      "value": {
        "_hex": "0x1916e1014945b2fc"
      },
      "nonce": 3088,
      "data": "0x",
      "r": "0x0ecabf18433ffd2aceb90625d24df126516b94f50f688199d48182f9b4c28930",
      "s": "0x3dd7d1057a388c9b0c196ffa8e7ad6610fa13fd7b6b6a263c6b87392828b4bd1",
      "v": 28,
      "creates": null,
      "raw": "0xf86e820c10850e1063c6158255f09428cf1915522f9744ef20294faebe6575e2fd5f38881916e1014945b2fc801ca00ecabf18433ffd2aceb90625d24df126516b94f50f688199d48182f9b4c28930a03dd7d1057a388c9b0c196ffa8e7ad6610fa13fd7b6b6a263c6b87392828b4bd1",
      "networkId": 0,
      "chainId": 0
    },
    {
      "hash": "0xde4ca7d42a6535f5f3e7145423e04fc65c3fc7c8ef14142b6c46522434ec9f3f",
      "blockHash": "0x8d498cf5e5b13e7a4f448b4b8e6f7fb0a2f45a8d9a6fa5a41569a81d8d51a058",
      "blockNumber": 99946,
      "transactionIndex": 32,
      "confirmations": null,
      "from": "0xe6A7a1d47ff21B6321162AEA7C6CB457D5476Bca",
      "gasPrice": {
        "_hex": "0xe1063c615"
      },
      "gasLimit": {
        "_hex": "0x55f0"
      },
      "to": "0x57C413ECd1d83c2C65B14ABE1FB48D4Fc3136844",
      "value": {
        "_hex": "0x19265cdc8bd802f8"
      },
      "nonce": 3089,
      "data": "0x",
      "r": "0xd44232d05fd9513f9334a993d9ebff2eb9a48bd6afc663ab8abaff1b019def51",
      "s": "0x0b06f61e7b24f727cbbfc9878b6d4b64fd6f27aa5cbd6265656959dfc74f2dea",
      "v": 28,
      "creates": null,
      "raw": "0xf86e820c11850e1063c6158255f09457c413ecd1d83c2c65b14abe1fb48d4fc31368448819265cdc8bd802f8801ca0d44232d05fd9513f9334a993d9ebff2eb9a48bd6afc663ab8abaff1b019def51a00b06f61e7b24f727cbbfc9878b6d4b64fd6f27aa5cbd6265656959dfc74f2dea",
      "networkId": 0,
      "chainId": 0
    },
    {
      "hash": "0xc13fc1011ea61f1719ade49b5567bf1f0af165271155459b1b43dbc2336f09eb",
      "blockHash": "0x8d498cf5e5b13e7a4f448b4b8e6f7fb0a2f45a8d9a6fa5a41569a81d8d51a058",
      "blockNumber": 99946,
      "transactionIndex": 33,
      "confirmations": null,
      "from": "0xe6A7a1d47ff21B6321162AEA7C6CB457D5476Bca",
      "gasPrice": {
        "_hex": "0xe1063c615"
      },
      "gasLimit": {
        "_hex": "0x55f0"
      },
      "to": "0x663555F143e6a4674c0FdF2e73f12fdaf5D51112",
      "value": {
        "_hex": "0x198d5a52cecd0c2c"
      },
      "nonce": 3090,
      "data": "0x",
      "r": "0x48797fd38c1ade957e5fb11405cb5e7d12bb31a31f7c061dde7f424fa1e1f5a7",
      "s": "0x2391fa9838cefac549e4a518f33431b5de574d045a18249f7745f7aa018a6672",
      "v": 27,
      "creates": null,
      "raw": "0xf86e820c12850e1063c6158255f094663555f143e6a4674c0fdf2e73f12fdaf5d5111288198d5a52cecd0c2c801ba048797fd38c1ade957e5fb11405cb5e7d12bb31a31f7c061dde7f424fa1e1f5a7a02391fa9838cefac549e4a518f33431b5de574d045a18249f7745f7aa018a6672",
      "networkId": 0,
      "chainId": 0
    },
    {
      "hash": "0xc372ee6466475296856a020bc43ab1e83d69cf6014ebe75908a20e225e489442",
      "blockHash": "0x8d498cf5e5b13e7a4f448b4b8e6f7fb0a2f45a8d9a6fa5a41569a81d8d51a058",
      "blockNumber": 99946,
      "transactionIndex": 34,
      "confirmations": null,
      "from": "0xe6A7a1d47ff21B6321162AEA7C6CB457D5476Bca",
      "gasPrice": {
        "_hex": "0xe1063c615"
      },
      "gasLimit": {
        "_hex": "0x55f0"
      },
      "to": "0xF53cEB46156c2a0bC1a7aAd59774F5DfDA068CEc",
      "value": {
        "_hex": "0x198f0568bd989620"
      },
      "nonce": 3091,
      "data": "0x",
      "r": "0xc869818d42d4cd4ba0bd6eece792de4e539d60fc25c26b7ffbad125d1fce5a77",
      "s": "0x5e92a802c91b587ba9909646d82b2e02cbd3446dfb932b17dc60600754aa9fc6",
      "v": 28,
      "creates": null,
      "raw": "0xf86e820c13850e1063c6158255f094f53ceb46156c2a0bc1a7aad59774f5dfda068cec88198f0568bd989620801ca0c869818d42d4cd4ba0bd6eece792de4e539d60fc25c26b7ffbad125d1fce5a77a05e92a802c91b587ba9909646d82b2e02cbd3446dfb932b17dc60600754aa9fc6",
      "networkId": 0,
      "chainId": 0
    },
    {
      "hash": "0xb10171a4d1bb0495d2896c932ae44f2bb446d16d188f301c5ea17b97d726fbca",
      "blockHash": "0x8d498cf5e5b13e7a4f448b4b8e6f7fb0a2f45a8d9a6fa5a41569a81d8d51a058",
      "blockNumber": 99946,
      "transactionIndex": 35,
      "confirmations": null,
      "from": "0xe6A7a1d47ff21B6321162AEA7C6CB457D5476Bca",
      "gasPrice": {
        "_hex": "0xe1063c615"
      },
      "gasLimit": {
        "_hex": "0x55f0"
      },
      "to": "0x0156B1dF46A295901BdCA64D7809fd623AE50129",
      "value": {
        "_hex": "0x1991bce3942ef538"
      },
      "nonce": 3092,
      "data": "0x",
      "r": "0x625277520e1a985afa30702974003843c277a1d8c5da1ab7298b525fe76c5eff",
      "s": "0x02cd3c5c7bd90b7cf19467b4d3c2a586ec35182347623e796e2c5a9f5844eccd",
      "v": 27,
      "creates": null,
      "raw": "0xf86e820c14850e1063c6158255f0940156b1df46a295901bdca64d7809fd623ae50129881991bce3942ef538801ba0625277520e1a985afa30702974003843c277a1d8c5da1ab7298b525fe76c5effa002cd3c5c7bd90b7cf19467b4d3c2a586ec35182347623e796e2c5a9f5844eccd",
      "networkId": 0,
      "chainId": 0
    },
    {
      "hash": "0xaba13f4f4d716143ac8aa966ce088582cfe58e59f68f75b175c74c14b4475e83",
      "blockHash": "0x8d498cf5e5b13e7a4f448b4b8e6f7fb0a2f45a8d9a6fa5a41569a81d8d51a058",
      "blockNumber": 99946,
      "transactionIndex": 36,
      "confirmations": null,
      "from": "0xe6A7a1d47ff21B6321162AEA7C6CB457D5476Bca",
      "gasPrice": {
        "_hex": "0xe1063c615"
      },
      "gasLimit": {
        "_hex": "0x55f0"
      },
      "to": "0x0Ca595962471f3C517a9C71150cB2F722f7298EF",
      "value": {
        "_hex": "0x19c744f2cf7f5570"
      },
      "nonce": 3093,
      "data": "0x",
      "r": "0xf1c4a747a9069f69b8effc615dbcf3d190fae6312ad2780b1011127412b35327",
      "s": "0x13d838fbe5b899a72a106c23e4b86a260ab7aeea42d14659f6f43102c30552af",
      "v": 28,
      "creates": null,
      "raw": "0xf86e820c15850e1063c6158255f0940ca595962471f3c517a9c71150cb2f722f7298ef8819c744f2cf7f5570801ca0f1c4a747a9069f69b8effc615dbcf3d190fae6312ad2780b1011127412b35327a013d838fbe5b899a72a106c23e4b86a260ab7aeea42d14659f6f43102c30552af",
      "networkId": 0,
      "chainId": 0
    },
    {
      "hash": "0x01b677cb36997d713fe5d895eea5efb4cfb5cd4e56a5e950b5f8bc1149826db4",
      "blockHash": "0x8d498cf5e5b13e7a4f448b4b8e6f7fb0a2f45a8d9a6fa5a41569a81d8d51a058",
      "blockNumber": 99946,
      "transactionIndex": 37,
      "confirmations": null,
      "from": "0xe6A7a1d47ff21B6321162AEA7C6CB457D5476Bca",
      "gasPrice": {
        "_hex": "0xe1063c615"
      },
      "gasLimit": {
        "_hex": "0x55f0"
      },
      "to": "0xB278779C2283b3286a5Dc459762C110542494364",
      "value": {
        "_hex": "0x19fb9085a7bfddd0"
      },
      "nonce": 3094,
      "data": "0x",
      "r": "0x3bc75031378b61ce7a49d8d9779c0f96ea0f189dfd7cac076e5544f4c45bbc31",
      "s": "0x064e5feda798292ab6c3e2020d7b10e6696ca95efffddc6b90fb6fb587b8be0d",
      "v": 27,
      "creates": null,
      "raw": "0xf86e820c16850e1063c6158255f094b278779c2283b3286a5dc459762c1105424943648819fb9085a7bfddd0801ba03bc75031378b61ce7a49d8d9779c0f96ea0f189dfd7cac076e5544f4c45bbc31a0064e5feda798292ab6c3e2020d7b10e6696ca95efffddc6b90fb6fb587b8be0d",
      "networkId": 0,
      "chainId": 0
    },
    {
      "hash": "0xacd5c0dd8b31ee2c176a109d80cad49a9f8d3436b981184bff3b9ceba7b6c24f",
      "blockHash": "0x8d498cf5e5b13e7a4f448b4b8e6f7fb0a2f45a8d9a6fa5a41569a81d8d51a058",
      "blockNumber": 99946,
      "transactionIndex": 38,
      "confirmations": null,
      "from": "0xe6A7a1d47ff21B6321162AEA7C6CB457D5476Bca",
      "gasPrice": {
        "_hex": "0xe1063c615"
      },
      "gasLimit": {
        "_hex": "0x55f0"
      },
      "to": "0xc7Dda420b6e858441b9Ea42B762dF14C59552fbb",
      "value": {
        "_hex": "0x1a12c1df4f2c6b28"
      },
      "nonce": 3095,
      "data": "0x",
      "r": "0x9502e0e74e42a3281fb8a85e6f7106f5b3bfdd1bab7d12dd7176221020dabd4e",
      "s": "0x562b0c8854fcc414f6f9d58e99eca821a459c1c5a4bc6cebcc8e3e3311e592eb",
      "v": 27,
      "creates": null,
      "raw": "0xf86e820c17850e1063c6158255f094c7dda420b6e858441b9ea42b762df14c59552fbb881a12c1df4f2c6b28801ba09502e0e74e42a3281fb8a85e6f7106f5b3bfdd1bab7d12dd7176221020dabd4ea0562b0c8854fcc414f6f9d58e99eca821a459c1c5a4bc6cebcc8e3e3311e592eb",
      "networkId": 0,
      "chainId": 0
    },
    {
      "hash": "0xf1275436d46e41f7f5ef4dd2f891df9cfefa2cca0f415e90bfd13c88c9dd5ed5",
      "blockHash": "0x8d498cf5e5b13e7a4f448b4b8e6f7fb0a2f45a8d9a6fa5a41569a81d8d51a058",
      "blockNumber": 99946,
      "transactionIndex": 39,
      "confirmations": null,
      "from": "0xe6A7a1d47ff21B6321162AEA7C6CB457D5476Bca",
      "gasPrice": {
        "_hex": "0xe1063c615"
      },
      "gasLimit": {
        "_hex": "0x55f0"
      },
      "to": "0xb26EE724AA819BddDf6d87754C61669f000AbF6A",
      "value": {
        "_hex": "0x1a25b3acbec3cfe0"
      },
      "nonce": 3096,
      "data": "0x",
      "r": "0xf8930ed40274d4ea26a28b95492146e626bc97b17fc5c0657678904103d23d3a",
      "s": "0x043a346316501a4fec214772464aa96a957b8d753c4af89af187cbb9ed64a382",
      "v": 28,
      "creates": null,
      "raw": "0xf86e820c18850e1063c6158255f094b26ee724aa819bdddf6d87754c61669f000abf6a881a25b3acbec3cfe0801ca0f8930ed40274d4ea26a28b95492146e626bc97b17fc5c0657678904103d23d3aa0043a346316501a4fec214772464aa96a957b8d753c4af89af187cbb9ed64a382",
      "networkId": 0,
      "chainId": 0
    },
    {
      "hash": "0x2fefae2df7992d6750c62255b4a0589dbc6b29d2e28c4b6252beced87ef70f30",
      "blockHash": "0x8d498cf5e5b13e7a4f448b4b8e6f7fb0a2f45a8d9a6fa5a41569a81d8d51a058",
      "blockNumber": 99946,
      "transactionIndex": 40,
      "confirmations": null,
      "from": "0xe6A7a1d47ff21B6321162AEA7C6CB457D5476Bca",
      "gasPrice": {
        "_hex": "0xe1063c615"
      },
      "gasLimit": {
        "_hex": "0x55f0"
      },
      "to": "0xB76CeFA8d0680c6dA05CA47e1C4B70aA092B69a9",
      "value": {
        "_hex": "0x1a409c7e0637eee0"
      },
      "nonce": 3097,
      "data": "0x",
      "r": "0xfbfe3164b92ef20e6abd7c29a87389665a48ad04ebcfdddd7c7b28135951734a",
      "s": "0x4e5383659fb51a79d17154a94cb79097a188529a7f73df600f4cf6e8214e7358",
      "v": 27,
      "creates": null,
      "raw": "0xf86e820c19850e1063c6158255f094b76cefa8d0680c6da05ca47e1c4b70aa092b69a9881a409c7e0637eee0801ba0fbfe3164b92ef20e6abd7c29a87389665a48ad04ebcfdddd7c7b28135951734aa04e5383659fb51a79d17154a94cb79097a188529a7f73df600f4cf6e8214e7358",
      "networkId": 0,
      "chainId": 0
    },
    {
      "hash": "0xd9ed077b1e2f87fd63392b5be00e82e99c2a36723b547fbdf15ece44cf487d41",
      "blockHash": "0x8d498cf5e5b13e7a4f448b4b8e6f7fb0a2f45a8d9a6fa5a41569a81d8d51a058",
      "blockNumber": 99946,
      "transactionIndex": 41,
      "confirmations": null,
      "from": "0xb4f523106D96985a62306557ED1e19F129D42812",
      "gasPrice": {
        "_hex": "0xd5bb71629"
      },
      "gasLimit": {
        "_hex": "0x15f90"
      },
      "to": "0xAd8d3a5d2d92EB14bB56CA9f380be35b8EFE0c04",
      "value": {
        "_hex": "0x552a8f4c45f9b0000"
      },
      "nonce": 2,
      "data": "0xb214faa54141414142414646410000000000000000000000000000000000000000000000",
      "r": "0xe4facc66b320a3b49c930ec13ae9e79e3d9241a283d1f003d9bc5aefdc4f8fbd",
      "s": "0x2e81daa6ef20734ba78b0741a5bfb72710e8fcbf4c8c940847e17e28b24c00a6",
      "v": 27,
      "creates": null,
      "raw": "0xf89202850d5bb7162983015f9094ad8d3a5d2d92eb14bb56ca9f380be35b8efe0c04890552a8f4c45f9b0000a4b214faa541414141424146464100000000000000000000000000000000000000000000001ba0e4facc66b320a3b49c930ec13ae9e79e3d9241a283d1f003d9bc5aefdc4f8fbda02e81daa6ef20734ba78b0741a5bfb72710e8fcbf4c8c940847e17e28b24c00a6",
      "networkId": 0,
      "chainId": 0
    }
  ]
}