{
  "hash": "0x79181a9565b35c2d2813a709a756746431b7731fe3dc5590055d78818167a142",
  "parentHash": "0x625ee191f64674ccfe146430e2e319e71643a9addc9bc2a9ddf45849ad622aab",
  "number": 62185,
  "timestamp": 1439184626,
  "nonce": "0x814f6d739f434c2f",
  "difficulty": 1767707632595,
  "gasLimit": {
    "_hex": "0x2fefd8"
  },
  "gasUsed": {
    "_hex": "0xa8a4"
  },
  "miner": "0x47ff6576639c2e94762eA5443978D7681C0E78DC",
  "extraData": "0x476574682f76312e302e312f6c696e75782f676f312e342e32",
  "transactions": [
    {
      "hash": "0xb400d197d00e89561e8e25ada76b98168235669ff4748c844f9a8b6b229c78c8",
      "blockHash": "0x79181a9565b35c2d2813a709a756746431b7731fe3dc5590055d78818167a142",
      "blockNumber": 62185,
      "transactionIndex": 0,
      "confirmations": null,
      "from": "0xB100987e77FEbA6F022dBd22B80B008e35d3Ff2E",
      "gasPrice": {
        "_hex": "0xdf7526d6c"
      },
      "gasLimit": {
        "_hex": "0x15f90"
      },
      "to": "0x95A93B4d6CDf68235f3B68046d0f81E78D61572c",
      "value": {
        "_hex": "0x0"
      },
      "nonce": 9,
      "data": "0xc2ca0ac500000000000000000000000000000000000000018ee90ff6c373e0ee4e3f0ad2",
      "r": "0x800eb83bda3c6389f80e20d6d8f42a1b79ef0ff1387c7721c91672184cd6241c",
      "s": "0x072055146ea65eaa7ffb97323ce71edda03f88b07d2dc549786096d910709445",
      "v": 27,
      "creates": null,
      "raw": "0xf88909850df7526d6c83015f909495a93b4d6cdf68235f3b68046d0f81e78d61572c80a4c2ca0ac500000000000000000000000000000000000000018ee90ff6c373e0ee4e3f0ad21ba0800eb83bda3c6389f80e20d6d8f42a1b79ef0ff1387c7721c91672184cd6241ca0072055146ea65eaa7ffb97323ce71edda03f88b07d2dc549786096d910709445",
      "networkId": 0,
      "chainId": 0
    }
  ]
}