{
  "hash": "0x4f1d17641fd5b196a5ebae6ae3fcd53e1602d4938f01e17e49d45062114d8551",
  "parentHash": "0x1cce63696fff537c90a6a76c6d496ed19ff5629735092a96c7261c27fb747804",
  "number": 89783,
  "timestamp": 1439629052,
  "nonce": "0x1c286e2ea2185e0c",
  "difficulty": 3340238240897,
  "gasLimit": {
    "_hex": "0x2fefd8"
  },
  "gasUsed": {
    "_hex": "0xcd140"
  },
  "miner": "0xe6A7a1d47ff21B6321162AEA7C6CB457D5476Bca",
  "extraData": "0x476574682f76312e302e312d38326566323666362f6c696e75782f676f312e34",
  "transactions": [
    {
      "hash": "0x1755b3c9b1fff5889130710cd1ed21aad620a1cb8ae634e707fcbfe457ce8d4c",
      "blockHash": "0x4f1d17641fd5b196a5ebae6ae3fcd53e1602d4938f01e17e49d45062114d8551",
      "blockNumber": 89783,
      "transactionIndex": 0,
      "confirmations": null,
      "from": "0x52191276589069F70F0E46bcCc718d793d1Aa1D0",
      "gasPrice": {
        "_hex": "0xd8a48273d"
      },
      "gasLimit": {
        "_hex": "0x5208"
      },
      "to": "0x32Be343B94f860124dC4fEe278FDCBD38C102D88",
      "value": {
        "_hex": "0xff4e4b274ba5800"
      },
      "nonce": 2,
      "data": "0x",
      "r": "0x7f29a1517e871185e498a7223b8c284b3b00c8a2823768edd87e44e76c4993c1",
      "s": "0x322a2139c5fe08d99df0f5ddcc750fc5a7b330c34a0ee2ab09364e587b0d4e6c",
      "v": 28,
      "creates": null,
      "raw": "0xf86c02850d8a48273d8252089432be343b94f860124dc4fee278fdcbd38c102d88880ff4e4b274ba5800801ca07f29a1517e871185e498a7223b8c284b3b00c8a2823768edd87e44e76c4993c1a0322a2139c5fe08d99df0f5ddcc750fc5a7b330c34a0ee2ab09364e587b0d4e6c",
      "networkId": 0,
      "chainId": 0
    },
    {
      "hash": "0x58b92f8febbd4bb3ba6081f1d87b5d3ba2fee944bb0b621a08bfeef9c80277ae",
      "blockHash": "0x4f1d17641fd5b196a5ebae6ae3fcd53e1602d4938f01e17e49d45062114d8551",
      "blockNumber": 89783,
      "transactionIndex": 1,
      "confirmations": null,
      "from": "0xA4fbA5C740C8141d6c4469eD292bfCC8cCAc774F",
      "gasPrice": {
        "_hex": "0xd8a48273d"
      },
      "gasLimit": {
        "_hex": "0x5208"
      },
      "to": "0x32Be343B94f860124dC4fEe278FDCBD38C102D88",
      "value": {
        "_hex": "0x2000a4cac4745000"
      },
      "nonce": 2,
      "data": "0x",
      "r": "0x1ede6be0277cba5d0877212eafabaadfe8df0637a7075f22c075729b06b494e9",
      "s": "0x27101c5ddd11f50774fd1ffb94a724488c346cc55d8c1134b7068dc79aaeb4da",
      "v": 27,
      "creates": null,
      "raw": "0xf86c02850d8a48273d8252089432be343b94f860124dc4fee278fdcbd38c102d88882000a4cac4745000801ba01ede6be0277cba5d0877212eafabaadfe8df0637a7075f22c075729b06b494e9a027101c5ddd11f50774fd1ffb94a724488c346cc55d8c1134b7068dc79aaeb4da",
      "networkId": 0,
      "chainId": 0
    },
    {
      "hash": "0x07b371b4bf18d08a63adfec6dec5ed1e5dca19121750a404a817cc8d9bbbfc70",
      "blockHash": "0x4f1d17641fd5b196a5ebae6ae3fcd53e1602d4938f01e17e49d45062114d8551",
      "blockNumber": 89783,
      "transactionIndex": 2,
      "confirmations": null,
      "from": "0x972ad000397A3c903299F1353d6d4b85eE4E4e2A",
      "gasPrice": {
        "_hex": "0xd8a48273d"
      },
      "gasLimit": {
        "_hex": "0x5208"
      },
      "to": "0x32Be343B94f860124dC4fEe278FDCBD38C102D88",
      "value": {
        "_hex": "0x1b0f20bd0c2e9000"
      },
      "nonce": 10,
      "data": "0x",
      "r": "0x224570ebcb42beb2c2525a6ce821b07cf00fdeb957c1c60fef96174058534e67",
      "s": "0x28a6474ab45b6bb92098be1651d45cc952ba34aad975b9a4def699c65854ee27",
      "v": 27,
      "creates": null,
      "raw": "0xf86c0a850d8a48273d8252089432be343b94f860124dc4fee278fdcbd38c102d88881b0f20bd0c2e9000801ba0224570ebcb42beb2c2525a6ce821b07cf00fdeb957c1c60fef96174058534e67a028a6474ab45b6bb92098be1651d45cc952ba34aad975b9a4def699c65854ee27",
      "networkId": 0,
      "chainId": 0
    },
    {
      "hash": "0x08cb089fe97a664c0f0835a8fc41e87521d0c13a7583799531cea7da9f0c4aca",
      "blockHash": "0x4f1d17641fd5b196a5ebae6ae3fcd53e1602d4938f01e17e49d45062114d8551",
      "blockNumber": 89783,
      "transactionIndex": 3,
      "confirmations": null,
      "from": "0x7bC11D546783d2e3b7Bb2241D5f43Fb2611C3B98",
      "gasPrice": {
        "_hex": "0xd8a48273d"
      },
      "gasLimit": {
        "_hex": "0x5208"
      },
      "to": "0x32Be343B94f860124dC4fEe278FDCBD38C102D88",
      "value": {
        "_hex": "0x2822f3ca15cd5000"
      },
      "nonce": 3,
      "data": "0x",
      "r": "0x6fc1ba1eba2cca3f3adb5a432309b4a1d8bc1f62a31bb4ad53b025fd671aa3ad",
      "s": "0x427944758cd3a4acce2af32ddebd02bc3204cab78389d582670a7851963d1fff",
      "v": 28,
      "creates": null,
      "raw": "0xf86c03850d8a48273d8252089432be343b94f860124dc4fee278fdcbd38c102d88882822f3ca15cd5000801ca06fc1ba1eba2cca3f3adb5a432309b4a1d8bc1f62a31bb4ad53b025fd671aa3ada0427944758cd3a4acce2af32ddebd02bc3204cab78389d582670a7851963d1fff",
      "networkId": 0,
      "chainId": 0
    },
    {
      "hash": "0xd7fba95413c8ad4b272df869d26f73e08646f50abb32ff2e84e59c9e7d245878",
      "blockHash": "0x4f1d17641fd5b196a5ebae6ae3fcd53e1602d4938f01e17e49d45062114d8551",
      "blockNumber": 89783,
      "transactionIndex": 4,
      "confirmations": null,
      "from": "0x315260950914163880F3AD5A7FEEC87407fa4868",
      "gasPrice": {
        "_hex": "0xd8a48273d"
      },
      "gasLimit": {
        "_hex": "0x5208"
      },
      "to": "0x32Be343B94f860124dC4fEe278FDCBD38C102D88",
      "value": {
        "_hex": "0x110a5e2ba7944c00"
      },
      "nonce": 3,
      "data": "0x",
      "r": "0x47a5cac6f56b848536f4e1ec712c670561a340ec2dac623225329d072328e3f7",
      "s": "0x4830e6db29cd1ea5974973c17db215d8ba7024d6cfa4ff63347049f46dadbeba",
      "v": 27,
      "creates": null,
      "raw": "0xf86c03850d8a48273d8252089432be343b94f860124dc4fee278fdcbd38c102d8888110a5e2ba7944c00801ba047a5cac6f56b848536f4e1ec712c670561a340ec2dac623225329d072328e3f7a04830e6db29cd1ea5974973c17db215d8ba7024d6cfa4ff63347049f46dadbeba",
      "networkId": 0,
      "chainId": 0
    },
    {
      "hash": "0xcde75838b3bdb2169c31865e8236022e02a222ac98fc149bc67018f173db0fec",
      "blockHash": "0x4f1d17641fd5b196a5ebae6ae3fcd53e1602d4938f01e17e49d45062114d8551",
      "blockNumber": 89783,
      "transactionIndex": 5,
      "confirmations": null,
      "from": "0xe6A7a1d47ff21B6321162AEA7C6CB457D5476Bca",
      "gasPrice": {
        "_hex": "0xd045efc06"
      },
      "gasLimit": {
        "_hex": "0x55f0"
      },
      "to": "0x0f3136Da8F55444F1bFc5938a2eFb507b3a24976",
      "value": {
        "_hex": "0x57434719183b62e0"
      },
      "nonce": 2202,
      "data": "0x",
      "r": "0x54eafab4edea5f2c5ac6ae69b1cb32e7e59b44813be86d3d2c539f9a47e37011",
      "s": "0x1ce985bc9be1cd7a2e352397e0b5ed771b622d9e4880f6a031bf2e57cb1cf5fc",
      "v": 27,
      "creates": null,
      "raw": "0xf86e82089a850d045efc068255f0940f3136da8f55444f1bfc5938a2efb507b3a249768857434719183b62e0801ba054eafab4edea5f2c5ac6ae69b1cb32e7e59b44813be86d3d2c539f9a47e37011a01ce985bc9be1cd7a2e352397e0b5ed771b622d9e4880f6a031bf2e57cb1cf5fc",
      "networkId": 0,
      "chainId": 0
    },
    {
      "hash": "0x7612447b0463839eb1816b19d41a44985caf90cbbe2e2e5c07a029a6c768f5c5",
      "blockHash": "0x4f1d17641fd5b196a5ebae6ae3fcd53e1602d4938f01e17e49d45062114d8551",
      "blockNumber": 89783,
      "transactionIndex": 6,
      "confirmations": null,
      "from": "0xe6A7a1d47ff21B6321162AEA7C6CB457D5476Bca",
      "gasPrice": {
        "_hex": "0xd045efc06"
      },
      "gasLimit": {
        "_hex": "0x55f0"
      },
      "to": "0x29C0024a99b44d481694cB5D98907a1343D390fD",
      "value": {
        "_hex": "0x57ac426e096716b0"
      },
      "nonce": 2203,
      "data": "0x",
      "r": "0x431d4ee9c91ee9cb59498088d7e0ebe151314316f0472d9381b7d2811a2973d7",
      "s": "0x0723d5befda3137afcbabb19f75749ea475be9a143bc8a3fd1a767609c1b2e74",
      "v": 28,
      "creates": null,
      "raw": "0xf86e82089b850d045efc068255f09429c0024a99b44d481694cb5d98907a1343d390fd8857ac426e096716b0801ca0431d4ee9c91ee9cb59498088d7e0ebe151314316f0472d9381b7d2811a2973d7a00723d5befda3137afcbabb19f75749ea475be9a143bc8a3fd1a767609c1b2e74",
      "networkId": 0,
      "chainId": 0
    },
    {
      "hash": "0xaca99f77bc3e484010fa474d43838e4e42edc753ad4e2ea564e76a0e24c3608d",
      "blockHash": "0x4f1d17641fd5b196a5ebae6ae3fcd53e1602d4938f01e17e49d45062114d8551",
      "blockNumber": 89783,
      "transactionIndex": 7,
      "confirmations": null,
      "from": "0xe6A7a1d47ff21B6321162AEA7C6CB457D5476Bca",
      "gasPrice": {
        "_hex": "0xd045efc06"
      },
      "gasLimit": {
        "_hex": "0x55f0"
      },
      "to": "0x99DD8707E14E7A8D702b2700f6e8072DF8ee91D7",
      "value": {
        "_hex": "0x586d245a14ceab28"
      },
      "nonce": 2204,
      "data": "0x",
      "r": "0x347521b4f69c6359fe88baaebd2297315a965d1dc4053379b7f5546e26b910ec",
      "s": "0x7d6daf6696ea5c8f993a2c7f1fe549e9fbe67550a014ea6191343e763afd0217",
      "v": 27,
      "creates": null,
      "raw": "0xf86e82089c850d045efc068255f09499dd8707e14e7a8d702b2700f6e8072df8ee91d788586d245a14ceab28801ba0347521b4f69c6359fe88baaebd2297315a965d1dc4053379b7f5546e26b910eca07d6daf6696ea5c8f993a2c7f1fe549e9fbe67550a014ea6191343e763afd0217",
      "networkId": 0,
      "chainId": 0
    },
    {
      "hash": "0xb2099217ec69039b34294edd0e50e2acd1eca92b0f932049daf4fe4db0ca2c91",
      "blockHash": "0x4f1d17641fd5b196a5ebae6ae3fcd53e1602d4938f01e17e49d45062114d8551",
      "blockNumber": 89783,
      "transactionIndex": 8,
      "confirmations": null,
      "from": "0xe6A7a1d47ff21B6321162AEA7C6CB457D5476Bca",
      "gasPrice": {
        "_hex": "0xd045efc06"
      },
      "gasLimit": {
        "_hex": "0x55f0"
      },
      "to": "0x1cB4D87C5e67d158aF4c3A754a010Dfa64d78cE8",
      "value": {
        "_hex": "0x58bcae8b55028790"
      },
      "nonce": 2205,
      "data": "0x",
      "r": "0x7d7ec8d4e05c2ba57d2d353434c00d2eff006dcecb58f724ff8925c73e866a24",
      "s": "0x0c88e260d032710b022f865ff90b72f74e2043ab7e3315f2c65972ab57d1cf28",
      "v": 27,
      "creates": null,
      "raw": "0xf86e82089d850d045efc068255f0941cb4d87c5e67d158af4c3a754a010dfa64d78ce88858bcae8b55028790801ba07d7ec8d4e05c2ba57d2d353434c00d2eff006dcecb58f724ff8925c73e866a24a00c88e260d032710b022f865ff90b72f74e2043ab7e3315f2c65972ab57d1cf28",
      "networkId": 0,
      "chainId": 0
    },
    {
      "hash": "0x8b9c7ba88c7e990a60f54c7b51ffd97c7cd66cfcb6818ffe51de0bab585314a5",
      "blockHash": "0x4f1d17641fd5b196a5ebae6ae3fcd53e1602d4938f01e17e49d45062114d8551",
      "blockNumber": 89783,
      "transactionIndex": 9,
      "confirmations": null,
      "from": "0xe6A7a1d47ff21B6321162AEA7C6CB457D5476Bca",
      "gasPrice": {
        "_hex": "0xd045efc06"
      },
      "gasLimit": {
        "_hex": "0x55f0"
      },
      "to": "0x229f76DdF9053EEb247D1aB455af64e6D26029b8",
      "value": {
        "_hex": "0x58ef49b72f2f2da8"
      },
      "nonce": 2206,
      "data": "0x",
      "r": "0x05029b2ad685c9e08d37a1e3c2df2f2279daa2794d11ff07312ba2fed0edd912",
      "s": "0x687477bb43c732c8957aa9e8836f9ee94011003328ee7e210c26c6485464ed40",
      "v": 27,
      "creates": null,
      "raw": "0xf86e82089e850d045efc068255f094229f76ddf9053eeb247d1ab455af64e6d26029b88858ef49b72f2f2da8801ba005029b2ad685c9e08d37a1e3c2df2f2279daa2794d11ff07312ba2fed0edd912a0687477bb43c732c8957aa9e8836f9ee94011003328ee7e210c26c6485464ed40",
      "networkId": 0,
      "chainId": 0
    },
    {
      "hash": "0xaace766795355484489e580a35b7aea2a87a4759baacfe701b8a680ec7da80b8",
      "blockHash": "0x4f1d17641fd5b196a5ebae6ae3fcd53e1602d4938f01e17e49d45062114d8551",
      "blockNumber": 89783,
      "transactionIndex": 10,
      "confirmations": null,
      "from": "0xe6A7a1d47ff21B6321162AEA7C6CB457D5476Bca",
      "gasPrice": {
        "_hex": "0xd045efc06"
      },
      "gasLimit": {
        "_hex": "0x55f0"
      },
      "to": "0xE5cd922132641CF77d8a95dE3F3B335Ee6D54d71",
      "value": {
        "_hex": "0x592ecf94e5bea718"
      },
      "nonce": 2207,
      "data": "0x",
      "r": "0x00f25992af604a68b4d76d116be8a7a781d1eaedd91c3a2bf0f5c87e213b4636",
      "s": "0x137b7bf6df4aa9301da81297e8e4a9917f4d8451ea27685f31c120825aecd03a",
      "v": 27,
      "creates": null,
      "raw": "0xf86d82089f850d045efc068255f094e5cd922132641cf77d8a95de3f3b335ee6d54d7188592ecf94e5bea718801b9ff25992af604a68b4d76d116be8a7a781d1eaedd91c3a2bf0f5c87e213b4636a0137b7bf6df4aa9301da81297e8e4a9917f4d8451ea27685f31c120825aecd03a",
      "networkId": 0,
      "chainId": 0
    },
    {
      "hash": "0x91d0d96740f354d9880a1f18e667a2b7ca66ffbb0163e390d2915b676130d2e0",
      "blockHash": "0x4f1d17641fd5b196a5ebae6ae3fcd53e1602d4938f01e17e49d45062114d8551",
      "blockNumber": 89783,
      "transactionIndex": 11,
      "confirmations": null,
      "from": "0xe6A7a1d47ff21B6321162AEA7C6CB457D5476Bca",
      "gasPrice": {
        "_hex": "0xd045efc06"
      },
      "gasLimit": {
        "_hex": "0x55f0"
      },
      "to": "0xc544B25bb91b87e380dda392687c6216b0260671",
      "value": {
        "_hex": "0x595afe9ed56f91a0"
      },
      "nonce": 2208,
      "data": "0x",
      "r": "0x39240e91a9e76595784149b4005861ae8de03d32990c244c50b8bcab14db1093",
      "s": "0x30c673ad0355bbc161b7b984c7d5479cbd026577df24286fd2f2b7d75b4fac3e",
      "v": 27,
      "creates": null,
      "raw": "0xf86e8208a0850d045efc068255f094c544b25bb91b87e380dda392687c6216b026067188595afe9ed56f91a0801ba039240e91a9e76595784149b4005861ae8de03d32990c244c50b8bcab14db1093a030c673ad0355bbc161b7b984c7d5479cbd026577df24286fd2f2b7d75b4fac3e",
      "networkId": 0,
      "chainId": 0
    },
    {
      "hash": "0xac04a12575f5c88e9af51b2866c02d3f3cf2ce9e6fe2448a10d7ef1d81c06343",
      "blockHash": "0x4f1d17641fd5b196a5ebae6ae3fcd53e1602d4938f01e17e49d45062114d8551",
      "blockNumber": 89783,
      "transactionIndex": 12,
      "confirmations": null,
      "from": "0xe6A7a1d47ff21B6321162AEA7C6CB457D5476Bca",
      "gasPrice": {
        "_hex": "0xd045efc06"
      },
      "gasLimit": {
        "_hex": "0x55f0"
      },
      "to": "0x7af25C80793a1CBaBE39Ac9d604729017d9E4001",
      "value": {
        "_hex": "0x5980d4c853be62a0"
      },
      "nonce": 2209,
      "data": "0x",
      "r": "0xf9de6e9b19c5778c99c68648e932680ab636cca47ded312ff635d2debf8bacbb",
      "s": "0x6e2260fff3cbf2c1f813a46c04aeb2fbc8107c71f2f1f6988366f21dc96e6c90",
      "v": 28,
      "creates": null,
      "raw": "0xf86e8208a1850d045efc068255f0947af25c80793a1cbabe39ac9d604729017d9e4001885980d4c853be62a0801ca0f9de6e9b19c5778c99c68648e932680ab636cca47ded312ff635d2debf8bacbba06e2260fff3cbf2c1f813a46c04aeb2fbc8107c71f2f1f6988366f21dc96e6c90",
      "networkId": 0,
      "chainId": 0
    },
    {
      "hash": "0x68c415c860508a56d0a125df4fb8e488796d84a7fe6dc893b16dea84ab56139d",
      "blockHash": "0x4f1d17641fd5b196a5ebae6ae3fcd53e1602d4938f01e17e49d45062114d8551",
      "blockNumber": 89783,
      "transactionIndex": 13,
      "confirmations": null,
      "from": "0xe6A7a1d47ff21B6321162AEA7C6CB457D5476Bca",
      "gasPrice": {
        "_hex": "0xd045efc06"
      },
      "gasLimit": {
        "_hex": "0x55f0"
      },
      "to": "0xa69Dd2F55e5A3d4CB2B4b3eE2f613562b57a1D2F",
      "value": {
        "_hex": "0x59d496a63cdaef60"
      },
      "nonce": 2210,
      "data": "0x",
      "r": "0x6918e3d58f0b12aa842461dae4d30fda2389fc9a7054f188eac906568351153d",
      "s": "0x6a4d0f3e11d63e73ee0a0521a62ac6720c5800416e91033fd392e1848759b46e",
      "v": 27,
      "creates": null,
      "raw": "0xf86e8208a2850d045efc068255f094a69dd2f55e5a3d4cb2b4b3ee2f613562b57a1d2f8859d496a63cdaef60801ba06918e3d58f0b12aa842461dae4d30fda2389fc9a7054f188eac906568351153da06a4d0f3e11d63e73ee0a0521a62ac6720c5800416e91033fd392e1848759b46e",
      "networkId": 0,
      "chainId": 0
    },
    {
      "hash": "0x538a6a7cf9bdc945d670933af1f04c2668cddf7657595c9fc7708dc37759bb71",
      "blockHash": "0x4f1d17641fd5b196a5ebae6ae3fcd53e1602d4938f01e17e49d45062114d8551",
      "blockNumber": 89783,
      "transactionIndex": 14,
      "confirmations": null,
      "from": "0xe6A7a1d47ff21B6321162AEA7C6CB457D5476Bca",
      "gasPrice": {
        "_hex": "0xd045efc06"
      },
      "gasLimit": {
        "_hex": "0x55f0"
      },
      "to": "0xbb30e448B72d6Fdd44973A4C7a312F92f22C8F07",
      "value": {
        "_hex": "0x5a1858c1225a1398"
      },
      "nonce": 2211,
      "data": "0x",
      "r": "0x6570c6040dbad62ac6d1a2a7a0c08e3b135571b0693d4915bd88a2481f366c15",
      "s": "0x7f3a80e03ad7e23c1d0f86e4d2e933576c2ba0264423a0151d2f739aafa20447",
      "v": 28,
      "creates": null,
      "raw": "0xf86e8208a3850d045efc068255f094bb30e448b72d6fdd44973a4c7a312f92f22c8f07885a1858c1225a1398801ca06570c6040dbad62ac6d1a2a7a0c08e3b135571b0693d4915bd88a2481f366c15a07f3a80e03ad7e23c1d0f86e4d2e933576c2ba0264423a0151d2f739aafa20447",
      "networkId": 0,
      "chainId": 0
    },
    {
      "hash": "0xaf08f47583d482e145d5b57a97fa5efddc287aa521899d489ffb695111aa474a",
      "blockHash": "0x4f1d17641fd5b196a5ebae6ae3fcd53e1602d4938f01e17e49d45062114d8551",
      "blockNumber": 89783,
      "transactionIndex": 15,
      "confirmations": null,
      "from": "0xe6A7a1d47ff21B6321162AEA7C6CB457D5476Bca",
      "gasPrice": {
        "_hex": "0xd045efc06"
      },
      "gasLimit": {
        "_hex": "0x55f0"
      },
      "to": "0x187b1f47Cd55b27878699DfCDCee2234cD49E97e",
      "value": {
        "_hex": "0x5a4ab4647f61f048"
      },
      "nonce": 2212,
      "data": "0x",
      "r": "0xa21bc8dddf900d4d86d370ab2541a31b5666cfbe7aeb96b768d19d4d4e600537",
      "s": "0x205b13b5086d32f0a7fb8ec7e69f9a1e708dfcbc59e3da582ec2d15ffda9acc7",
      "v": 27,
      "creates": null,
      "raw": "0xf86e8208a4850d045efc068255f094187b1f47cd55b27878699dfcdcee2234cd49e97e885a4ab4647f61f048801ba0a21bc8dddf900d4d86d370ab2541a31b5666cfbe7aeb96b768d19d4d4e600537a0205b13b5086d32f0a7fb8ec7e69f9a1e708dfcbc59e3da582ec2d15ffda9acc7",
      "networkId": 0,
      "chainId": 0
    },
    {
      "hash": "0x57d2498b6e8a580f1a618530e907f1322e58f2a25e07a384abdd44c0abce3670",
      "blockHash": "0x4f1d17641fd5b196a5ebae6ae3fcd53e1602d4938f01e17e49d45062114d8551",
      "blockNumber": 89783,
      "transactionIndex": 16,
      "confirmations": null,
      "from": "0xe6A7a1d47ff21B6321162AEA7C6CB457D5476Bca",
      "gasPrice": {
        "_hex": "0xd045efc06"
      },
      "gasLimit": {
        "_hex": "0x55f0"
      },
      "to": "0x53937BE115FF5C49519ca11B9482C21b73FbB83F",
      "value": {
        "_hex": "0x5ad797f28e732580"
      },
      "nonce": 2213,
      "data": "0x",
      "r": "0x181d61f000940c75e7b6e357fd4d9205f95f0c044b9cb56443883db96df37348",
      "s": "0x659bc5066870c494177654be6ae601044164d78262dceda2e7ee28a3b739d113",
      "v": 28,
      "creates": null,
      "raw": "0xf86e8208a5850d045efc068255f09453937be115ff5c49519ca11b9482c21b73fbb83f885ad797f28e732580801ca0181d61f000940c75e7b6e357fd4d9205f95f0c044b9cb56443883db96df37348a0659bc5066870c494177654be6ae601044164d78262dceda2e7ee28a3b739d113",
      "networkId": 0,
      "chainId": 0
    },
    {
      "hash": "0x4f623c4cbc1a703f1e7c1d4817d2380d93e0a24a414ecc5a7ff4fb956f0cf7dd",
      "blockHash": "0x4f1d17641fd5b196a5ebae6ae3fcd53e1602d4938f01e17e49d45062114d8551",
      "blockNumber": 89783,
      "transactionIndex": 17,
      "confirmations": null,
      "from": "0xe6A7a1d47ff21B6321162AEA7C6CB457D5476Bca",
      "gasPrice": {
        "_hex": "0xd045efc06"
      },
      "gasLimit": {
        "_hex": "0x55f0"
      },
      "to": "0xe535C1c29F0091324F184de7a5be5520D1b0b008",
      "value": {
        "_hex": "0x5b02ce6c28697060"
      },
      "nonce": 2214,
      "data": "0x",
      "r": "0x3718a4d35be996792ab61f58df61b91e5308a8e3a93f832f58d3a9c15985270c",
      "s": "0x0bd0ade27868fb74d98ad12f9d477cccfc66342315371842dc400c45f6e99e3b",
      "v": 27,
      "creates": null,
      "raw": "0xf86e8208a6850d045efc068255f094e535c1c29f0091324f184de7a5be5520d1b0b008885b02ce6c28697060801ba03718a4d35be996792ab61f58df61b91e5308a8e3a93f832f58d3a9c15985270ca00bd0ade27868fb74d98ad12f9d477cccfc66342315371842dc400c45f6e99e3b",
      "networkId": 0,
      "chainId": 0
    },
    {
      "hash": "0xd13755ac0cecc6a8e3b41374aae09ec3970a2285f567783e9440cfd77fd93a16",
      "blockHash": "0x4f1d17641fd5b196a5ebae6ae3fcd53e1602d4938f01e17e49d45062114d8551",
      "blockNumber": 89783,
      "transactionIndex": 18,
      "confirmations": null,
      "from": "0xe6A7a1d47ff21B6321162AEA7C6CB457D5476Bca",
      "gasPrice": {
        "_hex": "0xd045efc06"
      },
      "gasLimit": {
        "_hex": "0x55f0"
      },
      "to": "0xB36712fddBD16B781eC9263B441Ee9DF97e8CCc5",
      "value": {
        "_hex": "0x5b514faa6f8fd890"
      },
      "nonce": 2215,
      "data": "0x",
      "r": "0xdf2b05752502498d4b08b247a956f6f347ff0171971c1c66e0fc0c4f964ea8ff",
      "s": "0x0f1a39faa747f15617feb1f07b06889f9e39052cb3a3b285ba663cd053ff41fe",
      "v": 28,
      "creates": null,
      "raw": "0xf86e8208a7850d045efc068255f094b36712fddbd16b781ec9263b441ee9df97e8ccc5885b514faa6f8fd890801ca0df2b05752502498d4b08b247a956f6f347ff0171971c1c66e0fc0c4f964ea8ffa00f1a39faa747f15617feb1f07b06889f9e39052cb3a3b285ba663cd053ff41fe",
      "networkId": 0,
      "chainId": 0
    },
    {
      "hash": "0xcfc92c480f429adb583b80135fe490116b4ab5d6d4f704315eaa429516d325a9",
      "blockHash": "0x4f1d17641fd5b196a5ebae6ae3fcd53e1602d4938f01e17e49d45062114d8551",
      "blockNumber": 89783,
      "transactionIndex": 19,
      "confirmations": null,
      "from": "0xe6A7a1d47ff21B6321162AEA7C6CB457D5476Bca",
      "gasPrice": {
        "_hex": "0xd045efc06"
      },
      "gasLimit": {
        "_hex": "0x55f0"
      },
      "to": "0xCadcea36EC3feB740167E4370777fab1549F8759",
      "value": {
        "_hex": "0x5b753c325bbe3b70"
      },
      "nonce": 2216,
      "data": "0x",
      "r": "0x776f66a8f6f035d9144938bf622518d376ad1b4ae45a9e54e5aefc31dde0639b",
      "s": "0x39aeef18d8a067281bbbe0b4dc76f9d7c577e36d69c1ef5891e1af77e4b24acf",
      "v": 27,
      "creates": null,
      "raw": "0xf86e8208a8850d045efc068255f094cadcea36ec3feb740167e4370777fab1549f8759885b753c325bbe3b70801ba0776f66a8f6f035d9144938bf622518d376ad1b4ae45a9e54e5aefc31dde0639ba039aeef18d8a067281bbbe0b4dc76f9d7c577e36d69c1ef5891e1af77e4b24acf",
      "networkId": 0,
      "chainId": 0
    },
    {
      "hash": "0x852d011466a587d483c7dd0be771bbf17f334adafbab398beab5a09ddd12f011",
      "blockHash": "0x4f1d17641fd5b196a5ebae6ae3fcd53e1602d4938f01e17e49d45062114d8551",
      "blockNumber": 89783,
      "transactionIndex": 20,
      "confirmations": null,
      "from": "0xe6A7a1d47ff21B6321162AEA7C6CB457D5476Bca",
      "gasPrice": {
        "_hex": "0xd045efc06"
      },
      "gasLimit": {
        "_hex": "0x55f0"
      },
      "to": "0x1A99941B3E60c242bb3941e5BB5e1049145CDf9B",
      "value": {
        "_hex": "0x5d60656fa9f3a408"
      },
      "nonce": 2217,
      "data": "0x",
      "r": "0xd05a8eb054c61b859deff98006951ecc374fa3b69e3c95e42dd9a33267e4105d",
      "s": "0x0b060ce2f046e9097c61506a97a44a46ddce2f6bcc272e2475da684d28d0e070",
      "v": 28,
      "creates": null,
      "raw": "0xf86e8208a9850d045efc068255f0941a99941b3e60c242bb3941e5bb5e1049145cdf9b885d60656fa9f3a408801ca0d05a8eb054c61b859deff98006951ecc374fa3b69e3c95e42dd9a33267e4105da00b060ce2f046e9097c61506a97a44a46ddce2f6bcc272e2475da684d28d0e070",
      "networkId": 0,
      "chainId": 0
    },
    {
      "hash": "0xefbe936de53723ab8d93db86af4e78ef727bba254e891577d787613d376355fc",
      "blockHash": "0x4f1d17641fd5b196a5ebae6ae3fcd53e1602d4938f01e17e49d45062114d8551",
      "blockNumber": 89783,
      "transactionIndex": 21,
      "confirmations": null,
      "from": "0xe6A7a1d47ff21B6321162AEA7C6CB457D5476Bca",
      "gasPrice": {
        "_hex": "0xd045efc06"
      },
      "gasLimit": {
        "_hex": "0x55f0"
      },
      "to": "0x357A01795bfA480a007fB4B1B6eDf2e8C23f1840",
      "value": {
        "_hex": "0x5d9413691b7488d8"
      },
      "nonce": 2218,
      "data": "0x",
      "r": "0xf2dfec29cec7726da4da3e809bcc179ae04eb161170a0dd6e2324213d74acc87",
      "s": "0x30cdcc0bad993ef1c1e12c0964a9f2d84c18ff5578c42d337711a596f53acc5d",
      "v": 27,
      "creates": null,
      "raw": "0xf86e8208aa850d045efc068255f094357a01795bfa480a007fb4b1b6edf2e8c23f1840885d9413691b7488d8801ba0f2dfec29cec7726da4da3e809bcc179ae04eb161170a0dd6e2324213d74acc87a030cdcc0bad993ef1c1e12c0964a9f2d84c18ff5578c42d337711a596f53acc5d",
      "networkId": 0,
      "chainId": 0
    },
    {
      "hash": "0x2f03bcffd3f5c87252d77463c5def241cb2fae25db8d4cf89f496dd7802f11dc",
      "blockHash": "0x4f1d17641fd5b196a5ebae6ae3fcd53e1602d4938f01e17e49d45062114d8551",
      "blockNumber": 89783,
      "transactionIndex": 22,
      "confirmations": null,
      "from": "0xe6A7a1d47ff21B6321162AEA7C6CB457D5476Bca",
      "gasPrice": {
        "_hex": "0xd045efc06"
      },
      "gasLimit": {
        "_hex": "0x55f0"
      },
      "to": "0x5adA3743144f1235d8cef97daAD6c123F20E7330",
      "value": {
        "_hex": "0x5db7e155f31a31b0"
      },
      "nonce": 2219,
      "data": "0x",
      "r": "0x4775111b15ca32018289251cb0700518f15b1837a635b9cf31e54a430b44714a",
      "s": "0x70e770556cffa6ad417c88a929d4245c2361a1272ba4bac80fb200cbe89cd864",
      "v": 28,
      "creates": null,
      "raw": "0xf86e8208ab850d045efc068255f0945ada3743144f1235d8cef97daad6c123f20e7330885db7e155f31a31b0801ca04775111b15ca32018289251cb0700518f15b1837a635b9cf31e54a430b44714aa070e770556cffa6ad417c88a929d4245c2361a1272ba4bac80fb200cbe89cd864",
      "networkId": 0,
      "chainId": 0
    },
    {
      "hash": "0xff5f1d00ee08f315a5a39c632b0e09719173bac49c19f741f2c5b5026273f1b5",
      "blockHash": "0x4f1d17641fd5b196a5ebae6ae3fcd53e1602d4938f01e17e49d45062114d8551",
      "blockNumber": 89783,
      "transactionIndex": 23,
      "confirmations": null,
      "from": "0xe6A7a1d47ff21B6321162AEA7C6CB457D5476Bca",
      "gasPrice": {
        "_hex": "0xd045efc06"
      },
      "gasLimit": {
        "_hex": "0x55f0"
      },
      "to": "0x3F6DDbC103F2999640fe4AFc6884708fa691C2b8",
      "value": {
        "_hex": "0x5dc67a6bc526bea0"
      },
      "nonce": 2220,
      "data": "0x",
      "r": "0x636777a8d79224e9d09511ccafe7bb094508fa8587035a89d74e28580137d7e9",
      "s": "0x60ae7c57c1ac8baf791f63ed565990d1e98c78981592b96e278c6d62382ffcb2",
      "v": 27,
      "creates": null,
      "raw": "0xf86e8208ac850d045efc068255f0943f6ddbc103f2999640fe4afc6884708fa691c2b8885dc67a6bc526bea0801ba0636777a8d79224e9d09511ccafe7bb094508fa8587035a89d74e28580137d7e9a060ae7c57c1ac8baf791f63ed565990d1e98c78981592b96e278c6d62382ffcb2",
      "networkId": 0,
      "chainId": 0
    },
    {
      "hash": "0xf3129637bedf82edf8438b42eb862e67467296d09a28f6393e2ccf81aafa8e3a",
      "blockHash": "0x4f1d17641fd5b196a5ebae6ae3fcd53e1602d4938f01e17e49d45062114d8551",
      "blockNumber": 89783,
      "transactionIndex": 24,
      "confirmations": null,
      "from": "0xe6A7a1d47ff21B6321162AEA7C6CB457D5476Bca",
      "gasPrice": {
        "_hex": "0xd045efc06"
      },
      "gasLimit": {
        "_hex": "0x55f0"
      },
      "to": "0xc7Dda420b6e858441b9Ea42B762dF14C59552fbb",
      "value": {
        "_hex": "0x5dec42747ed1b120"
      },
      "nonce": 2221,
      "data": "0x",
      "r": "0xa53ea06d11365811889840bdbb866f72a21de2f1b661d543ca61492fb30dfb2a",
      "s": "0x7575ce61c9ae3293da8cbacf7850303b13b464d5392c0629682325ba68828807",
      "v": 28,
      "creates": null,
      "raw": "0xf86e8208ad850d045efc068255f094c7dda420b6e858441b9ea42b762df14c59552fbb885dec42747ed1b120801ca0a53ea06d11365811889840bdbb866f72a21de2f1b661d543ca61492fb30dfb2aa07575ce61c9ae3293da8cbacf7850303b13b464d5392c0629682325ba68828807",
      "networkId": 0,
      "chainId": 0
    },
    {
      "hash": "0x62eb1a47373d10bf80d41b5e4ac78bf87f1c3942799eb2aaeed27ebbc340e9cc",
      "blockHash": "0x4f1d17641fd5b196a5ebae6ae3fcd53e1602d4938f01e17e49d45062114d8551",
      "blockNumber": 89783,
      "transactionIndex": 25,
      "confirmations": null,
      "from": "0xe6A7a1d47ff21B6321162AEA7C6CB457D5476Bca",
      "gasPrice": {
        "_hex": "0xd045efc06"
      },
      "gasLimit": {
        "_hex": "0x55f0"
      },
      "to": "0xfABFCDb9aD54126a8829d5aB6357F608C6B005d0",
      "value": {
        "_hex": "0x5e93489ac0dc5cb8"
      },
      "nonce": 2222,
      "data": "0x",
      "r": "0x8f20b21dd22c06a4e212d14fb1ff24efcf5fb21cd65cf64d0f05bd2327a94e11",
      "s": "0x7b2aac2d6471c10538ebb21630ebda8d2c339cb772f58c1d87023b6ec1f857b2",
      "v": 27,
      "creates": null,
      "raw": "0xf86e8208ae850d045efc068255f094fabfcdb9ad54126a8829d5ab6357f608c6b005d0885e93489ac0dc5cb8801ba08f20b21dd22c06a4e212d14fb1ff24efcf5fb21cd65cf64d0f05bd2327a94e11a07b2aac2d6471c10538ebb21630ebda8d2c339cb772f58c1d87023b6ec1f857b2",
      "networkId": 0,
      "chainId": 0
    },
    {
      "hash": "0xb8b05fee8bbf6c30719fa2355f99db4cf69ed70f45a3478c7056555a0a4edc47",
      "blockHash": "0x4f1d17641fd5b196a5ebae6ae3fcd53e1602d4938f01e17e49d45062114d8551",
      "blockNumber": 89783,
      "transactionIndex": 26,
      "confirmations": null,
      "from": "0xe6A7a1d47ff21B6321162AEA7C6CB457D5476Bca",
      "gasPrice": {
        "_hex": "0xd045efc06"
      },
      "gasLimit": {
        "_hex": "0x55f0"
      },
      "to": "0x3fc4eAB8A8df5a124043b29146709935c65F1f7d",
      "value": {
        "_hex": "0x5fa2ccf2065e9530"
      },
      "nonce": 2223,
      "data": "0x",
      "r": "0x764e356ad9b1c9f043767ec429dcbbf4160e88a537975e283c342a79801f1e11",
      "s": "0x3b6fcb9fc4e0795d6cd49d7a87c887045f224b27d1cb0ac96ca7c28339b09714",
      "v": 27,
      "creates": null,
      "raw": "0xf86e8208af850d045efc068255f0943fc4eab8a8df5a124043b29146709935c65f1f7d885fa2ccf2065e9530801ba0764e356ad9b1c9f043767ec429dcbbf4160e88a537975e283c342a79801f1e11a03b6fcb9fc4e0795d6cd49d7a87c887045f224b27d1cb0ac96ca7c28339b09714",
      "networkId": 0,
      "chainId": 0
    },
    {
      "hash": "0xc13f44363ccb915a69d442a5d634cb42d11814f521c256df53e883e15e063e80",
      "blockHash": "0x4f1d17641fd5b196a5ebae6ae3fcd53e1602d4938f01e17e49d45062114d8551",
      "blockNumber": 89783,
      "transactionIndex": 27,
      "confirmations": null,
      "from": "0xe6A7a1d47ff21B6321162AEA7C6CB457D5476Bca",
      "gasPrice": {
        "_hex": "0xd045efc06"
      },
      "gasLimit": {
        "_hex": "0x55f0"
      },
      "to": "0xC711d87af18Db9a7EbE2CFB279b73c8785E55d41",
      "value": {
        "_hex": "0x6046f58967384b58"
      },
      "nonce": 2224,
      "data": "0x",
      "r": "0x9a02b032d30a9b009a061ea1a11019949c387315a7b68babda2f7c21cd85fcba",
      "s": "0x0f0e88796b2453f478addb1fcb7f2af536dda9f4fb2da42826482499711d75e8",
      "v": 27,
      "creates": null,
      "raw": "0xf86e8208b0850d045efc068255f094c711d87af18db9a7ebe2cfb279b73c8785e55d41886046f58967384b58801ba09a02b032d30a9b009a061ea1a11019949c387315a7b68babda2f7c21cd85fcbaa00f0e88796b2453f478addb1fcb7f2af536dda9f4fb2da42826482499711d75e8",
      "networkId": 0,
      "chainId": 0
    },
    {
      "hash": "0xc5d7a6105a179b3b61eace366a9ce8c386a11bfe2e6c247782f430517fadd9d1",
      "blockHash": "0x4f1d17641fd5b196a5ebae6ae3fcd53e1602d4938f01e17e49d45062114d8551",
      "blockNumber": 89783,
      "transactionIndex": 28,
      "confirmations": null,
      "from": "0xe6A7a1d47ff21B6321162AEA7C6CB457D5476Bca",
      "gasPrice": {
        "_hex": "0xd045efc06"
      },
      "gasLimit": {
        "_hex": "0x55f0"
      },
      "to": "0x683FEDdafc2A8542744a4587DE0C45626D7B8E68",
      "value": {
        "_hex": "0x627d45fff7bc46d0"
      },
      "nonce": 2225,
      "data": "0x",
      "r": "0x7ef0e10d32c4008176349e95f0806a3d050e05b45e165a21cb99eac352472575",
      "s": "0x4d7f2be9273d3cb8ff1e63e39e2ec9d44913ce8db4f3729806ee3f4f247f22ce",
      "v": 28,
      "creates": null,
      "raw": "0xf86e8208b1850d045efc068255f094683feddafc2a8542744a4587de0c45626d7b8e6888627d45fff7bc46d0801ca07ef0e10d32c4008176349e95f0806a3d050e05b45e165a21cb99eac352472575a04d7f2be9273d3cb8ff1e63e39e2ec9d44913ce8db4f3729806ee3f4f247f22ce",
      "networkId": 0,
      "chainId": 0
    },
    {
      "hash": "0x8cf98912db7c4ac9855d80402eda4a7a43f94b24884b07764c661378fe429e06",
      "blockHash": "0x4f1d17641fd5b196a5ebae6ae3fcd53e1602d4938f01e17e49d45062114d8551",
      "blockNumber": 89783,
      "transactionIndex": 29,
      "confirmations": null,
      "from": "0xe6A7a1d47ff21B6321162AEA7C6CB457D5476Bca",
      "gasPrice": {
        "_hex": "0xd045efc06"
      },
      "gasLimit": {
        "_hex": "0x55f0"
      },
      "to": "0xB5ebc1ED9a468C33fceC311Cf6AAb5d07774F0ea",
      "value": {
        "_hex": "0x630cb1987cd20308"
      },
      "nonce": 2226,
      "data": "0x",
      "r": "0x87d5492e5fb8688c6921eaafd9ef2be6011b9c47d5e2b92824c60ad46adadd94",
      "s": "0x7d180dddd07780cb0072e3fa71ab98af85e2ddb855c5953f7a9a6de642f741db",
      "v": 27,
      "creates": null,
      "raw": "0xf86e8208b2850d045efc068255f094b5ebc1ed9a468c33fcec311cf6aab5d07774f0ea88630cb1987cd20308801ba087d5492e5fb8688c6921eaafd9ef2be6011b9c47d5e2b92824c60ad46adadd94a07d180dddd07780cb0072e3fa71ab98af85e2ddb855c5953f7a9a6de642f741db",
      "networkId": 0,
      "chainId": 0
    },
    {
      "hash": "0x19dc4669b291e7de63ccd31f3109cd45a1a41c9a78a0524dc3fd8e3893a1ed70",
      "blockHash": "0x4f1d17641fd5b196a5ebae6ae3fcd53e1602d4938f01e17e49d45062114d8551",
      "blockNumber": 89783,
      "transactionIndex": 30,
      "confirmations": null,
      "from": "0xe6A7a1d47ff21B6321162AEA7C6CB457D5476Bca",
      "gasPrice": {
        "_hex": "0xd045efc06"
      },
      "gasLimit": {
        "_hex": "0x55f0"
      },
      "to": "0xE996d36DB289Ef8D9F0a9f9a903cc42fEA50CD4E",
      "value": {
        "_hex": "0x63410366127661d0"
      },
      "nonce": 2227,
      "data": "0x",
      "r": "0xe34d60a3157c492c72f112884dfec99afe768dc5e35b1b9b9fc289210c8ce362",
      "s": "0x263fa7a6193f6a215d3ecfffbd371352219fa365ba35dc763ad13b6eb40a24a4",
      "v": 27,
      "creates": null,
      "raw": "0xf86e8208b3850d045efc068255f094e996d36db289ef8d9f0a9f9a903cc42fea50cd4e8863410366127661d0801ba0e34d60a3157c492c72f112884dfec99afe768dc5e35b1b9b9fc289210c8ce362a0263fa7a6193f6a215d3ecfffbd371352219fa365ba35dc763ad13b6eb40a24a4",
      "networkId": 0,
      "chainId": 0
    },
    {
      "hash": "0x45263e50869ea406df95deefce5e97fca6524271e0755ba85eafefff661e159e",
      "blockHash": "0x4f1d17641fd5b196a5ebae6ae3fcd53e1602d4938f01e17e49d45062114d8551",
      "blockNumber": 89783,
      "transactionIndex": 31,
      "confirmations": null,
      "from": "0xe6A7a1d47ff21B6321162AEA7C6CB457D5476Bca",
      "gasPrice": {
        "_hex": "0xd045efc06"
      },
      "gasLimit": {
        "_hex": "0x55f0"
      },
      "to": "0xB89C0F465b0472fa5A58eCDd01eD937205ae4d06",
      "value": {
        "_hex": "0x639ef3393b070ea8"
      },
      "nonce": 2228,
      "data": "0x",
      "r": "0x91ecd9df17893879139ab0c85bbd4307f91894e45f66e056dea5f533775d3173",
      "s": "0x410f530b64186e724afe314b8600ceb6d1d217c97ca9c0e9485b2e62c49e5332",
      "v": 27,
      "creates": null,
      "raw": "0xf86e8208b4850d045efc068255f094b89c0f465b0472fa5a58ecdd01ed937205ae4d0688639ef3393b070ea8801ba091ecd9df17893879139ab0c85bbd4307f91894e45f66e056dea5f533775d3173a0410f530b64186e724afe314b8600ceb6d1d217c97ca9c0e9485b2e62c49e5332",
      "networkId": 0,
      "chainId": 0
    },
    {
      "hash": "0x741c4e65fbe9d966854ecea52152ac010891a2718563d4c01fe6859d8ca75a44",
      "blockHash": "0x4f1d17641fd5b196a5ebae6ae3fcd53e1602d4938f01e17e49d45062114d8551",
      "blockNumber": 89783,
      "transactionIndex": 32,
      "confirmations": null,
      "from": "0xe6A7a1d47ff21B6321162AEA7C6CB457D5476Bca",
      "gasPrice": {
        "_hex": "0xd045efc06"
      },
      "gasLimit": {
        "_hex": "0x55f0"
      },
      "to": "0xba1c85BF47A2236D2668AF0Fa26C34d3e33e6470",
      "value": {
        "_hex": "0x64e69afb686640c8"
      },
      "nonce": 2229,
      "data": "0x",
      "r": "0x4923401296fd0e3274613ea18eeeafbfe39c00afb4b89aace0223cbf1c3f5d0a",
      "s": "0x098194fea1de377278845de67da805f0c28bcecc05a180e7cf1e79449c9ba689",
      "v": 27,
      "creates": null,
      "raw": "0xf86e8208b5850d045efc068255f094ba1c85bf47a2236d2668af0fa26c34d3e33e64708864e69afb686640c8801ba04923401296fd0e3274613ea18eeeafbfe39c00afb4b89aace0223cbf1c3f5d0aa0098194fea1de377278845de67da805f0c28bcecc05a180e7cf1e79449c9ba689",
      "networkId": 0,
      "chainId": 0
    },
    {
      "hash": "0x35b0374041f40e2e21163acddbf08aa71185744e800525f70e0f29b79c4a47fb",
      "blockHash": "0x4f1d17641fd5b196a5ebae6ae3fcd53e1602d4938f01e17e49d45062114d8551",
      "blockNumber": 89783,
      "transactionIndex": 33,
      "confirmations": null,
      "from": "0xe6A7a1d47ff21B6321162AEA7C6CB457D5476Bca",
      "gasPrice": {
        "_hex": "0xd045efc06"
      },
      "gasLimit": {
        "_hex": "0x55f0"
      },
      "to": "0x1c69e6202df7794272b70FaEa8f7408c856B1f08",
      "value": {
        "_hex": "0x67e53c89db4ac470"
      },
      "nonce": 2230,
      "data": "0x",
      "r": "0xdf3ed7f06dafeb4ec70c8d30e2ace2fb6635a5c964cc33f1397502f3f6b353d5",
      "s": "0x16d29f5398f90c132848b72389adaadc231d937501baa450923963813f4c3637",
      "v": 28,
      "creates": null,
      "raw": "0xf86e8208b6850d045efc068255f0941c69e6202df7794272b70faea8f7408c856b1f088867e53c89db4ac470801ca0df3ed7f06dafeb4ec70c8d30e2ace2fb6635a5c964cc33f1397502f3f6b353d5a016d29f5398f90c132848b72389adaadc231d937501baa450923963813f4c3637",
      "networkId": 0,
      "chainId": 0
    },
    {
      "hash": "0xa1ba5a3fd3e3e41196d50dd5cadbc675d059a9cc41cf09da9e6864e0b290e1ee",
      "blockHash": "0x4f1d17641fd5b196a5ebae6ae3fcd53e1602d4938f01e17e49d45062114d8551",
      "blockNumber": 89783,
      "transactionIndex": 34,
      "confirmations": null,
      "from": "0xe6A7a1d47ff21B6321162AEA7C6CB457D5476Bca",
      "gasPrice": {
        "_hex": "0xd045efc06"
      },
      "gasLimit": {
        "_hex": "0x55f0"
      },
      "to": "0xF9d39b090fBC6669b52606272a0Cea56BDAb638A",
      "value": {
        "_hex": "0x6887f99edbbc13a8"
      },
      "nonce": 2231,
      "data": "0x",
      "r": "0xa491682fa7795d60452f48222e26d87406afa65da6bf8d3b4e52dffeeb02548d",
      "s": "0x39ae44fc2e709da774f1569098cd5cc7f4713a681df34405feac64dcf73d5e74",
      "v": 27,
      "creates": null,
      "raw": "0xf86e8208b7850d045efc068255f094f9d39b090fbc6669b52606272a0cea56bdab638a886887f99edbbc13a8801ba0a491682fa7795d60452f48222e26d87406afa65da6bf8d3b4e52dffeeb02548da039ae44fc2e709da774f1569098cd5cc7f4713a681df34405feac64dcf73d5e74",
      "networkId": 0,
      "chainId": 0
    },
    {
      "hash": "0x9a3fe0e7231d6bd163762ab3b47ab4a53f73ec335026677a0f389b7df2535da2",
      "blockHash": "0x4f1d17641fd5b196a5ebae6ae3fcd53e1602d4938f01e17e49d45062114d8551",
      "blockNumber": 89783,
      "transactionIndex": 35,
      "confirmations": null,
      "from": "0xe6A7a1d47ff21B6321162AEA7C6CB457D5476Bca",
      "gasPrice": {
        "_hex": "0xd045efc06"
      },
      "gasLimit": {
        "_hex": "0x55f0"
      },
      "to": "0xc1A0C41BD9ab5DC2508d9a9bcd51A3Bb6513F48B",
      "value": {
        "_hex": "0x68cc7d007f1e3fc0"
      },
      "nonce": 2232,
      "data": "0x",
      "r": "0xf963c276838d42ce00be3a7a67dc635e6a731cf91f07f246604d0be58351a257",
      "s": "0x4fb6d750c57245621bdfd4ad073d46582e4d9d9a78b8f76b0111e0a1da9ef84d",
      "v": 27,
      "creates": null,
      "raw": "0xf86e8208b8850d045efc068255f094c1a0c41bd9ab5dc2508d9a9bcd51a3bb6513f48b8868cc7d007f1e3fc0801ba0f963c276838d42ce00be3a7a67dc635e6a731cf91f07f246604d0be58351a257a04fb6d750c57245621bdfd4ad073d46582e4d9d9a78b8f76b0111e0a1da9ef84d",
      "networkId": 0,
      "chainId": 0
    },
    {
      "hash": "0x0f95e182af835c02447e53245c121b8df4412cc47c47d90773c3ff8591cb973a",
      "blockHash": "0x4f1d17641fd5b196a5ebae6ae3fcd53e1602d4938f01e17e49d45062114d8551",
      "blockNumber": 89783,
      "transactionIndex": 36,
      "confirmations": null,
      "from": "0xe6A7a1d47ff21B6321162AEA7C6CB457D5476Bca",
      "gasPrice": {
        "_hex": "0xd045efc06"
      },
      "gasLimit": {
        "_hex": "0x55f0"
      },
      "to": "0x4CA7cc5aF3D69A52e705DcEac59B9f76e0906DA8",
      "value": {
        "_hex": "0x6c72694b674f6500"
      },
      "nonce": 2233,
      "data": "0x",
      "r": "0xa2392c8771dc527f4cf1bfd1adedaa5dda0f34a59148fc59f26b604da1c8ec5d",
      "s": "0x75ab9b6cbde0d31be573b8ff5c4ba8b71cf3dfc061c71647dc9d82b5ab3c0c43",
      "v": 27,
      "creates": null,
      "raw": "0xf86e8208b9850d045efc068255f0944ca7cc5af3d69a52e705dceac59b9f76e0906da8886c72694b674f6500801ba0a2392c8771dc527f4cf1bfd1adedaa5dda0f34a59148fc59f26b604da1c8ec5da075ab9b6cbde0d31be573b8ff5c4ba8b71cf3dfc061c71647dc9d82b5ab3c0c43",
      "networkId": 0,
      "chainId": 0
    },
    {
      "hash": "0x59a5bd1e3da204107355d356b48eeb3e97dd7c6c81c3b39cd31094ea2fd5fb70",
      "blockHash": "0x4f1d17641fd5b196a5ebae6ae3fcd53e1602d4938f01e17e49d45062114d8551",
      "blockNumber": 89783,
      "transactionIndex": 37,
      "confirmations": null,
      "from": "0xe6A7a1d47ff21B6321162AEA7C6CB457D5476Bca",
      "gasPrice": {
        "_hex": "0xd045efc06"
      },
      "gasLimit": {
        "_hex": "0x55f0"
      },
      "to": "0x027698B61229ECCa19311e977ADE3C2923D4e414",
      "value": {
        "_hex": "0x6cb4c0064fbe6248"
      },
      "nonce": 2234,
      "data": "0x",
      "r": "0x00b2edae0f529edae6fdc7dd18fc29a330f8be0fb9bc49a9fb369e4f3d72dc69",
      "s": "0x1e372af5cb060d1317a2e1b3446d3f8c87b8ee7c62f603fd67fae55a7e783540",
      "v": 27,
      "creates": null,
      "raw": "0xf86d8208ba850d045efc068255f094027698b61229ecca19311e977ade3c2923d4e414886cb4c0064fbe6248801b9fb2edae0f529edae6fdc7dd18fc29a330f8be0fb9bc49a9fb369e4f3d72dc69a01e372af5cb060d1317a2e1b3446d3f8c87b8ee7c62f603fd67fae55a7e783540",
      "networkId": 0,
      "chainId": 0
    },
    {
      "hash": "0xcf42028a800947095ec875b447ee8cea29f5df9fe949249c8ad7e880454da7df",
      "blockHash": "0x4f1d17641fd5b196a5ebae6ae3fcd53e1602d4938f01e17e49d45062114d8551",
      "blockNumber": 89783,
      "transactionIndex": 38,
      "confirmations": null,
      "from": "0xe6A7a1d47ff21B6321162AEA7C6CB457D5476Bca",
      "gasPrice": {
        "_hex": "0xd045efc06"
      },
      "gasLimit": {
        "_hex": "0x55f0"
      },
      "to": "0x8d629C20608135491B5013f1002586A0383130e5",
      "value": {
        "_hex": "0x6cde2d687cb0d4b8"
      },
      "nonce": 2235,
      "data": "0x",
      "r": "0x756fb5d7ed20f71f62c0364bc9e91add2ba0f7eb8c257af0011e9cf2670f22c0",
      "s": "0x042b91b597140fc2c5dc4ed1a3ea9df7a47994a29c0d916d74d86e57690e1e67",
      "v": 27,
      "creates": null,
      "raw": "0xf86e8208bb850d045efc068255f0948d629c20608135491b5013f1002586a0383130e5886cde2d687cb0d4b8801ba0756fb5d7ed20f71f62c0364bc9e91add2ba0f7eb8c257af0011e9cf2670f22c0a0042b91b597140fc2c5dc4ed1a3ea9df7a47994a29c0d916d74d86e57690e1e67",
      "networkId": 0,
      "chainId": 0
    },
    {
      "hash": "0xdb730c3d8492e9a503f88fbe360d8611311cdd78c8673bf0453be50d788e9deb",
      "blockHash": "0x4f1d17641fd5b196a5ebae6ae3fcd53e1602d4938f01e17e49d45062114d8551",
      "blockNumber": 89783,
      "transactionIndex": 39,
      "confirmations": null,
      "from": "0xe6A7a1d47ff21B6321162AEA7C6CB457D5476Bca",
      "gasPrice": {
        "_hex": "0xd045efc06"
      },
      "gasLimit": {
        "_hex": "0x55f0"
      },
      "to": "0xF7e66D2622220807d8696064E94ca24b1dC6e7Da",
      "value": {
        "_hex": "0x6dbb5b505dba1468"
      },
      "nonce": 2236,
      "data": "0x",
      "r": "0x3868a09b074c268f3ed550a6f93f4067201925669a2091402521b3372e4f88f2",
      "s": "0x4d79be2deb2668f730c2dc6260cc1004302b35c9b6873c170ee0f72052aa57f1",
      "v": 27,
      "creates": null,
      "raw": "0xf86e8208bc850d045efc068255f094f7e66d2622220807d8696064e94ca24b1dc6e7da886dbb5b505dba1468801ba03868a09b074c268f3ed550a6f93f4067201925669a2091402521b3372e4f88f2a04d79be2deb2668f730c2dc6260cc1004302b35c9b6873c170ee0f72052aa57f1",
      "networkId": 0,
      "chainId": 0
    }
  ]
}