{
  "hash": "0x90f701805fca122576115a9b2dbb1ad2a76281d2fe06042f555eeaddfeb240db",
  "parentHash": "0x81d36548b8a6fe83db4d807c8b91329dbe7b0f587ac330fa330790378e175dd7",
  "number": 59561,
  "timestamp": 1439140285,
  "nonce": "0xdb1c34665d45ad29",
  "difficulty": 1700519659646,
  "gasLimit": {
    "_hex": "0x2fefd8"
  },
  "gasUsed": {
    "_hex": "0x5208"
  },
  "miner": "0xeB1325C8D9d3ea8D74aC11F4B00F1B2367686319",
  "extraData": "0x476574682f76312e302e312f77696e646f77732f676f312e342e32",
  "transactions": [
    {
      "hash": "0x6bf6c82fc66e2186178b1a36a8247a6202564a0f2b8dbbe6a5b958a1710a8632",
      "blockHash": "0x90f701805fca122576115a9b2dbb1ad2a76281d2fe06042f555eeaddfeb240db",
      "blockNumber": 59561,
      "transactionIndex": 0,
      "confirmations": null,
      "from": "0x32Be343B94f860124dC4fEe278FDCBD38C102D88",
      "gasPrice": {
        "_hex": "0xdf9d14256"
      },
      "gasLimit": {
        "_hex": "0x5208"
      },
      "to": "0xb794F5eA0ba39494cE839613fffBA74279579268",
      "value": {
        "_hex": "0x1fc3842bd1f072000000"
      },
      "nonce": 109,
      "data": "0x",
      "r": "0xe68aef3867e5a60c8f5782d221f077acde2efe4c7baad06c445b619c6535d753",
      "s": "0x370d7575db9ffeac862342c0d4cf7a0f69ed8270745b2417af300410a4894a15",
      "v": 28,
      "creates": null,
      "raw": "0xf86e6d850df9d1425682520894b794f5ea0ba39494ce839613fffba742795792688a1fc3842bd1f072000000801ca0e68aef3867e5a60c8f5782d221f077acde2efe4c7baad06c445b619c6535d753a0370d7575db9ffeac862342c0d4cf7a0f69ed8270745b2417af300410a4894a15",
      "networkId": 0,
      "chainId": 0
    }
  ]
}