{
  "hash": "0x3c8eacdd9b57a8bf9633b12be4671d24cda66fdafdb1b7efd6781cd158e52ff6",
  "parentHash": "0x5ecaf02adcafdd8e181bda60f2f78707c9d26abd3521f5ba502d192a3e6ac0a5",
  "number": 65333,
  "timestamp": 1439235094,
  "nonce": "0x6ef650733ce0771b",
  "difficulty": 1944512778155,
  "gasLimit": {
    "_hex": "0x2fefd8"
  },
  "gasUsed": {
    "_hex": "0xa410"
  },
  "miner": "0xbb7B8287f3F0a933474a79eAe42CBCa977791171",
  "extraData": "0x476574682f4c5649562f76312e302e312f6c696e75782f676f312e342e32",
  "transactions": [
    {
      "hash": "0xb23c911b1fb4d26ee17da3f838d1ce33ca6fc7e367c8ad32136bf0cc3c03428d",
      "blockHash": "0x3c8eacdd9b57a8bf9633b12be4671d24cda66fdafdb1b7efd6781cd158e52ff6",
      "blockNumber": 65333,
      "transactionIndex": 0,
      "confirmations": null,
      "from": "0x2176E2A7127EccBa69116c6FCe4d1CF6C7aBa9Bb",
      "gasPrice": {
        "_hex": "0xba43b7400"
      },
      "gasLimit": {
        "_hex": "0x5208"
      },
      "to": "0x5fC211C7C030daDfc516CCA89365155b0B4114FD",
      "value": {
        "_hex": "0x8b5d99eff56f000"
      },
      "nonce": 1,
      "data": "0x",
      "r": "0x06402598ad182f1b635f12188abda57709c42d7df9410399989a036fb07716f7",
      "s": "0x5d58fef5bf86b0924c1dfc3e7e9a257571a7517425fdbc666b7c3a3bedd9ceda",
      "v": 27,
      "creates": null,
      "raw": "0xf86c01850ba43b7400825208945fc211c7c030dadfc516cca89365155b0b4114fd8808b5d99eff56f000801ba006402598ad182f1b635f12188abda57709c42d7df9410399989a036fb07716f7a05d58fef5bf86b0924c1dfc3e7e9a257571a7517425fdbc666b7c3a3bedd9ceda",
      "networkId": 0,
      "chainId": 0
    },
    {
      "hash": "0xc81729535b144091247001b75af8f0cf1f798610594fce41bb41d94244778805",
      "blockHash": "0x3c8eacdd9b57a8bf9633b12be4671d24cda66fdafdb1b7efd6781cd158e52ff6",
      "blockNumber": 65333,
      "transactionIndex": 1,
      "confirmations": null,
      "from": "0xF35E27ce159161D6e4ad15D842EdB0aAA1A265B9",
      "gasPrice": {
        "_hex": "0xba43b7400"
      },
      "gasLimit": {
        "_hex": "0x5208"
      },
      "to": "0x6747f922385c9a6F9cfDf095F34345257DD597bE",
      "value": {
        "_hex": "0x929897f3f292000"
      },
      "nonce": 1,
      "data": "0x",
      "r": "0x3a65fed1f709854c9653ba9e71cf39b801a133545f2b504043c0774c6fac1847",
      "s": "0x438099aa9bcc381564ae914de806ca1a107879a2b34362ea40375881cbe3dc53",
      "v": 28,
      "creates": null,
      "raw": "0xf86c01850ba43b7400825208946747f922385c9a6f9cfdf095f34345257dd597be880929897f3f292000801ca03a65fed1f709854c9653ba9e71cf39b801a133545f2b504043c0774c6fac1847a0438099aa9bcc381564ae914de806ca1a107879a2b34362ea40375881cbe3dc53",
      "networkId": 0,
      "chainId": 0
    }
  ]
}