{
  "hash": "0x45c94705c859c3b7bd845968e1b8e8c7da7c68ef216586833043428993a488d6",
  "parentHash": "0x0fdedee72be12cdc0516f028d1abe5ef3a1ee806169dd62822c7765da92647a6",
  "number": 121922,
  "timestamp": 1440184979,
  "nonce": "0x9628f1a6b820b277",
  "difficulty": 4471040009549,
  "gasLimit": {
    "_hex": "0x2fefd8"
  },
  "gasUsed": {
    "_hex": "0x5208"
  },
  "miner": "0xC272293AD54739bF7aAdd8924Aa3d712D672Eed1",
  "extraData": "0xd783010100844765746887676f312e342e32856c696e7578",
  "transactions": [
    {
      "hash": "0xc272e418008b49d02bf44b8be68963a89f282c8d56d53b06c85eb98f52651ee0",
      "blockHash": "0x45c94705c859c3b7bd845968e1b8e8c7da7c68ef216586833043428993a488d6",
      "blockNumber": 121922,
      "transactionIndex": 0,
      "confirmations": null,
      "from": "0xe6A7a1d47ff21B6321162AEA7C6CB457D5476Bca",
      "gasPrice": {
        "_hex": "0xba43b7400"
      },
      "gasLimit": {
        "_hex": "0x55f0"
      },
      "to": "0x744Df4ED8BaC8eBCa76964a93358c3A67a89b003",
      "value": {
        "_hex": "0x15f2d44093155e40"
      },
      "nonce": 6770,
      "data": "0x",
      "r": "0x8c3cd60b91285d59f9d18559781f783241477b17a3054ba622a3a59b17ead9e8",
      "s": "0x4088a899e47c0d569a0a430f12f59a437270d1418459de8e11dbe4f263b5d803",
      "v": 27,
      "creates": null,
      "raw": "0xf86e821a72850ba43b74008255f094744df4ed8bac8ebca76964a93358c3a67a89b0038815f2d44093155e40801ba08c3cd60b91285d59f9d18559781f783241477b17a3054ba622a3a59b17ead9e8a04088a899e47c0d569a0a430f12f59a437270d1418459de8e11dbe4f263b5d803",
      "networkId": 0,
      "chainId": 0
    }
  ]
}