{
  "hash": "0x5df8492096c661cf59857a09f3d867902f6f784482870d7a1d8b2ae0ce1ba938",
  "parentHash": "0xb4d0799706b220f0b94a39c279f6aec876e327493c3f9c3fc9fdfe04ddcb7781",
  "number": 121266,
  "timestamp": 1440174254,
  "nonce": "0xc64e08a843f6e63f",
  "difficulty": 4406368181424,
  "gasLimit": {
    "_hex": "0x2fefd8"
  },
  "gasUsed": {
    "_hex": "0x5208"
  },
  "miner": "0xe6A7a1d47ff21B6321162AEA7C6CB457D5476Bca",
  "extraData": "0xd783010002844765746887676f312e342e32856c696e7578",
  "transactions": [
    {
      "hash": "0xf17c25a4ba0c05ec225b20f39e4eae12c3ec47ddc67fd356f28842b58369166c",
      "blockHash": "0x5df8492096c661cf59857a09f3d867902f6f784482870d7a1d8b2ae0ce1ba938",
      "blockNumber": 121266,
      "transactionIndex": 0,
      "confirmations": null,
      "from": "0x1A22137e525478043F6E1394849e6C23932786C9",
      "gasPrice": {
        "_hex": "0xd69b48315"
      },
      "gasLimit": {
        "_hex": "0x5208"
      },
      "to": "0x0a41Be86378F36BA0823db204723693c0836a3E9",
      "value": {
        "_hex": "0x1a05892b6d81e7140"
      },
      "nonce": 11,
      "data": "0x",
      "r": "0x8f40019217cfc2129364715a4260f27ef1763857a3384d89a20f76b485c43797",
      "s": "0x237947f2fac838812e19f87d837cd1d5f16b77be222232fefe458eff7703c4ef",
      "v": 27,
      "creates": null,
      "raw": "0xf86d0b850d69b48315825208940a41be86378f36ba0823db204723693c0836a3e98901a05892b6d81e7140801ba08f40019217cfc2129364715a4260f27ef1763857a3384d89a20f76b485c43797a0237947f2fac838812e19f87d837cd1d5f16b77be222232fefe458eff7703c4ef",
      "networkId": 0,
      "chainId": 0
    }
  ]
}