{
  "hash": "0x228991d3d673a0e1b6cdc76d62d8733d32eee98b359a5216e935e41915a93823",
  "parentHash": "0x080a43dce6af6426912f14b5c70663ce09246e2c59f3662e360128e658db0657",
  "number": 108591,
  "timestamp": 1439943037,
  "nonce": "0x8716aecf77a7a610",
  "difficulty": 4334019397559,
  "gasLimit": {
    "_hex": "0x2fefd8"
  },
  "gasUsed": {
    "_hex": "0x5208"
  },
  "miner": "0x580992B51e3925e23280EfB93d3047C82f17E038",
  "extraData": "0x476574682f76312e302e312f6c696e75782f676f312e342e32",
  "transactions": [
    {
      "hash": "0x62f329de9e5ba043b5bc100d4a3c4cf4d156592281ec7f93954514a4148e9aa4",
      "blockHash": "0x228991d3d673a0e1b6cdc76d62d8733d32eee98b359a5216e935e41915a93823",
      "blockNumber": 108591,
      "transactionIndex": 0,
      "confirmations": null,
      "from": "0x0Ce7b863693f133b14151f242f26d3f7a5424887",
      "gasPrice": {
        "_hex": "0xbdfd63e00"
      },
      "gasLimit": {
        "_hex": "0x5208"
      },
      "to": "0x315C319E775Ab339Dc60aDFe495F671b07dF36F6",
      "value": {
        "_hex": "0x14542ba12a337c00000"
      },
      "nonce": 6,
      "data": "0x",
      "r": "0x5aa365262125c684264180e78044146adfded27a494cb8a1bf725d3b94237fba",
      "s": "0x70939a1d3718bba83fd6887a5f32c24316cfc8b0c3e2170596f48a84f91304d9",
      "v": 27,
      "creates": null,
      "raw": "0xf86e06850bdfd63e0082520894315c319e775ab339dc60adfe495f671b07df36f68a014542ba12a337c00000801ba05aa365262125c684264180e78044146adfded27a494cb8a1bf725d3b94237fbaa070939a1d3718bba83fd6887a5f32c24316cfc8b0c3e2170596f48a84f91304d9",
      "networkId": 0,
      "chainId": 0
    }
  ]
}