{
  "hash": "0xf178bbb0452b872daed99919986284cc07dc862866aaeb990b3fb04a3012e079",
  "parentHash": "0xdf336cb65924dff45e63151a2299eebf446b871567a5087d9f913a5aead35162",
  "number": 100118,
  "timestamp": 1439801003,
  "nonce": "0x0a2e6511811e77af",
  "difficulty": 3849243068857,
  "gasLimit": {
    "_hex": "0x2fefd8"
  },
  "gasUsed": {
    "_hex": "0xa410"
  },
  "miner": "0xe6A7a1d47ff21B6321162AEA7C6CB457D5476Bca",
  "extraData": "0x476574682f76312e302e312d38326566323666362f6c696e75782f676f312e34",
  "transactions": [
    {
      "hash": "0xc4b4eb224b89dff04d6a5be465704c30a6e3bb1f1388dc1188f3f44d303db14f",
      "blockHash": "0xf178bbb0452b872daed99919986284cc07dc862866aaeb990b3fb04a3012e079",
      "blockNumber": 100118,
      "transactionIndex": 0,
      "confirmations": null,
      "from": "0x2910543Af39abA0Cd09dBb2D50200b3E800A63D2",
      "gasPrice": {
        "_hex": "0xd5c507448"
      },
      "gasLimit": {
        "_hex": "0x5208"
      },
      "to": "0xb4Ad43131139584E8f6F31D578E0dC4d11Df6D7b",
      "value": {
        "_hex": "0x2b5e3af16b1880000"
      },
      "nonce": 950,
      "data": "0x",
      "r": "0xd97f8db468adde1376eee9d8f5fde8bc4178192902ef5f6a40cebc507c86148b",
      "s": "0x2f3674780a8d403e850b07e3e26f36d50feb49593859a49b3ec8421065e38f7e",
      "v": 27,
      "creates": null,
      "raw": "0xf86f8203b6850d5c50744882520894b4ad43131139584e8f6f31d578e0dc4d11df6d7b8902b5e3af16b1880000801ba0d97f8db468adde1376eee9d8f5fde8bc4178192902ef5f6a40cebc507c86148ba02f3674780a8d403e850b07e3e26f36d50feb49593859a49b3ec8421065e38f7e",
      "networkId": 0,
      "chainId": 0
    },
    {
      "hash": "0xbba7c71723d98748e0d1b1db4ea837c0aa6893e7db65bbc09d5684145355d947",
      "blockHash": "0xf178bbb0452b872daed99919986284cc07dc862866aaeb990b3fb04a3012e079",
      "blockNumber": 100118,
      "transactionIndex": 1,
      "confirmations": null,
      "from": "0xF03462EC92AD7d5F732197D6F2408C5B2CD44361",
      "gasPrice": {
        "_hex": "0xd284313ac"
      },
      "gasLimit": {
        "_hex": "0x15f90"
      },
      "to": "0xF29a3Dc6237aF30ed75641f05b28D12668F69268",
      "value": {
        "_hex": "0xde0b6b3a7640000"
      },
      "nonce": 1,
      "data": "0x",
      "r": "0x96ac584820ef38a1f16196b2e618ddb55e1ca962bd3a6c75a3f73f91b0a80988",
      "s": "0x23195966a84f2fb00bddf5afcc25abbb86bb9e1ad8de116d603d0b5a74f1987c",
      "v": 28,
      "creates": null,
      "raw": "0xf86d01850d284313ac83015f9094f29a3dc6237af30ed75641f05b28d12668f69268880de0b6b3a7640000801ca096ac584820ef38a1f16196b2e618ddb55e1ca962bd3a6c75a3f73f91b0a80988a023195966a84f2fb00bddf5afcc25abbb86bb9e1ad8de116d603d0b5a74f1987c",
      "networkId": 0,
      "chainId": 0
    }
  ]
}