{
  "hash": "0x5c88aaf080b4f55cdc65fd0c10589f079e6dfe2261e2755da7ddd69e2dab871e",
  "parentHash": "0x712343bc98056f01c6fa8cb34b2e19193c33db8ca9649f4e1dc8e2d03ada3976",
  "number": 91376,
  "timestamp": 1439654773,
  "nonce": "0xa2f4b47a505908ac",
  "difficulty": 3470943487571,
  "gasLimit": {
    "_hex": "0x2fefd8"
  },
  "gasUsed": {
    "_hex": "0xa410"
  },
  "miner": "0xe6A7a1d47ff21B6321162AEA7C6CB457D5476Bca",
  "extraData": "0x476574682f76312e302e312d38326566323666362f6c696e75782f676f312e34",
  "transactions": [
    {
      "hash": "0x14f87194844a306ce280f5be5167b373363760cf460f6cb09e02fb514449858a",
      "blockHash": "0x5c88aaf080b4f55cdc65fd0c10589f079e6dfe2261e2755da7ddd69e2dab871e",
      "blockNumber": 91376,
      "transactionIndex": 0,
      "confirmations": null,
      "from": "0x2910543Af39abA0Cd09dBb2D50200b3E800A63D2",
      "gasPrice": {
        "_hex": "0xcffe89e7a"
      },
      "gasLimit": {
        "_hex": "0x5208"
      },
      "to": "0x43eDA77C4B1A04c9903688C1Aa10FEa84f046571",
      "value": {
        "_hex": "0x21e186bc0c91cd58000"
      },
      "nonce": 803,
      "data": "0x",
      "r": "0x8a3823bb6f8edfccf7495aab0055ce0f0c9e1173e82999e4c96ba33be83716e6",
      "s": "0x69b93d59c2705b38375710fba7a74c36d8b0d2b0bc29660439cc18bdbfdd8c7d",
      "v": 28,
      "creates": null,
      "raw": "0xf870820323850cffe89e7a8252089443eda77c4b1a04c9903688c1aa10fea84f0465718a021e186bc0c91cd58000801ca08a3823bb6f8edfccf7495aab0055ce0f0c9e1173e82999e4c96ba33be83716e6a069b93d59c2705b38375710fba7a74c36d8b0d2b0bc29660439cc18bdbfdd8c7d",
      "networkId": 0,
      "chainId": 0
    },
    {
      "hash": "0x892a256bc0db4553e6aadf764abdacb19d270b19214b4da4baeaba59ba400d11",
      "blockHash": "0x5c88aaf080b4f55cdc65fd0c10589f079e6dfe2261e2755da7ddd69e2dab871e",
      "blockNumber": 91376,
      "transactionIndex": 1,
      "confirmations": null,
      "from": "0x2910543Af39abA0Cd09dBb2D50200b3E800A63D2",
      "gasPrice": {
        "_hex": "0xcffe89e7a"
      },
      "gasLimit": {
        "_hex": "0x5208"
      },
      "to": "0xEdD03B3afA58aaE8C5732fF58e26099bc5C10659",
      "value": {
        "_hex": "0x1b1ad31369b76f8000"
      },
      "nonce": 804,
      "data": "0x",
      "r": "0x221fa330bd81eaa2b1ee3342a6789c573332d352d69caf8ae79d88c5927786bd",
      "s": "0x790e1452828a89ff5acd6b8a11cbe76306e2955dcb500a99b750d28b9c5c387f",
      "v": 27,
      "creates": null,
      "raw": "0xf86f820324850cffe89e7a82520894edd03b3afa58aae8c5732ff58e26099bc5c10659891b1ad31369b76f8000801ba0221fa330bd81eaa2b1ee3342a6789c573332d352d69caf8ae79d88c5927786bda0790e1452828a89ff5acd6b8a11cbe76306e2955dcb500a99b750d28b9c5c387f",
      "networkId": 0,
      "chainId": 0
    }
  ]
}