{
  "hash": "0x82075c0e57e3d987f0a4f4300c79a981b3a01104d21af8a131456bfd18e493ef",
  "parentHash": "0x12eb0e47ce3f94598b4de8a40bd95743ab74ec95f3f1a7ae70c83f914c180614",
  "number": 79412,
  "timestamp": 1439469164,
  "nonce": "0xa05350c19c6d3542",
  "difficulty": 2345029441687,
  "gasLimit": {
    "_hex": "0x2fefd8"
  },
  "gasUsed": {
    "_hex": "0xa8d8"
  },
  "miner": "0x47ff6576639c2e94762eA5443978D7681C0E78DC",
  "extraData": "0x476574682f76312e302e312f6c696e75782f676f312e342e32",
  "transactions": [
    {
      "hash": "0x8c48821b08a412b1634756556788f7b1ed0b60637a8fc177bec29785d83ab73e",
      "blockHash": "0x82075c0e57e3d987f0a4f4300c79a981b3a01104d21af8a131456bfd18e493ef",
      "blockNumber": 79412,
      "transactionIndex": 0,
      "confirmations": null,
      "from": "0xb2f9c972C1e9737755B3FF1B3088738396395B26",
      "gasPrice": {
        "_hex": "0x110c8f7d8de"
      },
      "gasLimit": {
        "_hex": "0xc350"
      },
      "to": "0x2910543Af39abA0Cd09dBb2D50200b3E800A63D2",
      "value": {
        "_hex": "0x17b7883c06916600000"
      },
      "nonce": 2,
      "data": "0x454e35354744473030",
      "r": "0x46ad9d1f73bac96b0e4255f3c66fe41bc573f5ca174222a813856fcadbc5c56e",
      "s": "0xe65a122a329d9e042a170b86604be775b258a5e1cde6523870c7048c1df5c495",
      "v": 28,
      "creates": null,
      "raw": "0xf87802860110c8f7d8de82c350942910543af39aba0cd09dbb2d50200b3e800a63d28a017b7883c0691660000089454e353547444730301ca046ad9d1f73bac96b0e4255f3c66fe41bc573f5ca174222a813856fcadbc5c56ea0e65a122a329d9e042a170b86604be775b258a5e1cde6523870c7048c1df5c495",
      "networkId": 0,
      "chainId": 0
    },
    {
      "hash": "0x91b015255aab272bd368b48eb8e8d5c63b9a97f08da1702e92c5514290ffeb67",
      "blockHash": "0x82075c0e57e3d987f0a4f4300c79a981b3a01104d21af8a131456bfd18e493ef",
      "blockNumber": 79412,
      "transactionIndex": 1,
      "confirmations": null,
      "from": "0xd0DF24FD0DfcDc3850D1590dAA1D03ca7706b11B",
      "gasPrice": {
        "_hex": "0x10b8410e961"
      },
      "gasLimit": {
        "_hex": "0x55f0"
      },
      "to": "0x2910543Af39abA0Cd09dBb2D50200b3E800A63D2",
      "value": {
        "_hex": "0x9451a0a00cfcc0000"
      },
      "nonce": 5,
      "data": "0x454e364832354d3230",
      "r": "0xde21dc5b6c43565abf7e9254735e2c464832d4914c8773c3c6cf7dd42a1c2706",
      "s": "0x13f0720a2d6f515eaf97ed14bf024108d7aee2e18e2a57220bd5554addf8b14c",
      "v": 27,
      "creates": null,
      "raw": "0xf8770586010b8410e9618255f0942910543af39aba0cd09dbb2d50200b3e800a63d28909451a0a00cfcc000089454e364832354d32301ba0de21dc5b6c43565abf7e9254735e2c464832d4914c8773c3c6cf7dd42a1c2706a013f0720a2d6f515eaf97ed14bf024108d7aee2e18e2a57220bd5554addf8b14c",
      "networkId": 0,
      "chainId": 0
    }
  ]
}