{
  "hash": "0x84ba5eb74aba0d98a789b9f6e28357498c78a1dfefb02dd068c3d50d9cb84ea6",
  "parentHash": "0x212fd5c2a55c7c91cf6469e1a5da29aeb59f7156bdc2efdf00ab8695bea383a9",
  "number": 68631,
  "timestamp": 1439291083,
  "nonce": "0x084ca1051e3bf300",
  "difficulty": 2021178580249,
  "gasLimit": {
    "_hex": "0x2fefd8"
  },
  "gasUsed": {
    "_hex": "0x12988c"
  },
  "miner": "0x39A1BB80a741bF5EC39FB9BE59408Fa0F418fFBf",
  "extraData": "0x476574682f76312e302e312f77696e646f77732f676f312e342e32",
  "transactions": [
    {
      "hash": "0xfffd44f8ce10130a9ad0d52bb3556ac069e7c6c6adf8b2e913c1cca162ae7ba0",
      "blockHash": "0x84ba5eb74aba0d98a789b9f6e28357498c78a1dfefb02dd068c3d50d9cb84ea6",
      "blockNumber": 68631,
      "transactionIndex": 0,
      "confirmations": null,
      "from": "0xd5375eBB15CF409D4b083E9121B98658Dc81defc",
      "gasPrice": {
        "_hex": "0xba43b7400"
      },
      "gasLimit": {
        "_hex": "0x15f90"
      },
      "to": "0x793AE8C1b1a160BFc07BFB0d04F85eab1A71F4f2",
      "value": {
        "_hex": "0x0"
      },
      "nonce": 0,
      "data": "0x3ba15036",
      "r": "0x4b1d7a12b28db07e16098d0043af41e69bca54918ba6cd485b97a9f39f677af6",
      "s": "0x187e67f8619cd9b2146b65865d9db1d1cd1b15738283fc5a52282f00c86390c3",
      "v": 27,
      "creates": null,
      "raw": "0xf86980850ba43b740083015f9094793ae8c1b1a160bfc07bfb0d04f85eab1a71f4f280843ba150361ba04b1d7a12b28db07e16098d0043af41e69bca54918ba6cd485b97a9f39f677af6a0187e67f8619cd9b2146b65865d9db1d1cd1b15738283fc5a52282f00c86390c3",
      "networkId": 0,
      "chainId": 0
    },
    {
      "hash": "0x95cfc6c33189f9ca82f181a7b408be94e95709e23347c924f6e34391978fbc4a",
      "blockHash": "0x84ba5eb74aba0d98a789b9f6e28357498c78a1dfefb02dd068c3d50d9cb84ea6",
      "blockNumber": 68631,
      "transactionIndex": 1,
      "confirmations": null,
      "from": "0x18dF57d10Cd5813fb1e9aA2f4aA78b9fbb4Ec2ac",
      "gasPrice": {
        "_hex": "0xba43b7400"
      },
      "gasLimit": {
        "_hex": "0x15f90"
      },
      "to": "0x793AE8C1b1a160BFc07BFB0d04F85eab1A71F4f2",
      "value": {
        "_hex": "0x0"
      },
      "nonce": 0,
      "data": "0x3ba15036",
      "r": "0x4c06b1e5ca238ffaed68fc87bb6f0b28835e0e3ff7dce7211c378c368268c5f5",
      "s": "0x58516f0894c5efe5d52e7492a888c7100f3e19170589bd5a853d9fe4b473fe8f",
      "v": 28,
      "creates": null,
      "raw": "0xf86980850ba43b740083015f9094793ae8c1b1a160bfc07bfb0d04f85eab1a71f4f280843ba150361ca04c06b1e5ca238ffaed68fc87bb6f0b28835e0e3ff7dce7211c378c368268c5f5a058516f0894c5efe5d52e7492a888c7100f3e19170589bd5a853d9fe4b473fe8f",
      "networkId": 0,
      "chainId": 0
    },
    {
      "hash": "0x181bd108cddd03fcd7311d62866081202d72b2a7371dad7f7d0c2f066b4d9b5f",
      "blockHash": "0x84ba5eb74aba0d98a789b9f6e28357498c78a1dfefb02dd068c3d50d9cb84ea6",
      "blockNumber": 68631,
      "transactionIndex": 2,
      "confirmations": null,
      "from": "0x7FA5adC8A01E387cd7Fb496C6452c673a6beD424",
      "gasPrice": {
        "_hex": "0xba43b7400"
      },
      "gasLimit": {
        "_hex": "0x15f90"
      },
      "to": "0x793AE8C1b1a160BFc07BFB0d04F85eab1A71F4f2",
      "value": {
        "_hex": "0x0"
      },
      "nonce": 0,
      "data": "0x3ba15036",
      "r": "0x2d92545471158310d8559f8a516274790a940568de02b83b0cbacad5c659058d",
      "s": "0x4440a65cd06e9adfd2985f3d796622e0ac6aeb4eed2f2999d09b7b2e6df6b167",
      "v": 27,
      "creates": null,
      "raw": "0xf86980850ba43b740083015f9094793ae8c1b1a160bfc07bfb0d04f85eab1a71f4f280843ba150361ba02d92545471158310d8559f8a516274790a940568de02b83b0cbacad5c659058da04440a65cd06e9adfd2985f3d796622e0ac6aeb4eed2f2999d09b7b2e6df6b167",
      "networkId": 0,
      "chainId": 0
    },
    {
      "hash": "0xc0577481c43b35a4e4c788ceafe7abd33fbd7a0c59e88094ad51e5ba2c1fc4f2",
      "blockHash": "0x84ba5eb74aba0d98a789b9f6e28357498c78a1dfefb02dd068c3d50d9cb84ea6",
      "blockNumber": 68631,
      "transactionIndex": 3,
      "confirmations": null,
      "from": "0x4A40a08196C3d9d2BEbbb24C5f627F6055D40D42",
      "gasPrice": {
        "_hex": "0xba43b7400"
      },
      "gasLimit": {
        "_hex": "0x15f90"
      },
      "to": "0x793AE8C1b1a160BFc07BFB0d04F85eab1A71F4f2",
      "value": {
        "_hex": "0x0"
      },
      "nonce": 0,
      "data": "0x3ba15036",
      "r": "0x8e28ccf7a65a2d424285a70ae554c02b6e9503b4015f63459cec09733c27e927",
      "s": "0x01327c4e390fe295e6b7e615fa8053bb65a69dfca752356c07a591d4858663cd",
      "v": 28,
      "creates": null,
      "raw": "0xf86980850ba43b740083015f9094793ae8c1b1a160bfc07bfb0d04f85eab1a71f4f280843ba150361ca08e28ccf7a65a2d424285a70ae554c02b6e9503b4015f63459cec09733c27e927a001327c4e390fe295e6b7e615fa8053bb65a69dfca752356c07a591d4858663cd",
      "networkId": 0,
      "chainId": 0
    },
    {
      "hash": "0x2176cd9bcfca918eba5ec07303bc95530a53eb321f041b9abace14935287b57c",
      "blockHash": "0x84ba5eb74aba0d98a789b9f6e28357498c78a1dfefb02dd068c3d50d9cb84ea6",
      "blockNumber": 68631,
      "transactionIndex": 4,
      "confirmations": null,
      "from": "0x18e1823Ad69bbd7dA1718f0F31D7E05Ec90F236F",
      "gasPrice": {
        "_hex": "0xba43b7400"
      },
      "gasLimit": {
        "_hex": "0x15f90"
      },
      "to": "0x793AE8C1b1a160BFc07BFB0d04F85eab1A71F4f2",
      "value": {
        "_hex": "0x0"
      },
      "nonce": 0,
      "data": "0x3ba15036",
      "r": "0xe142450d6da76fe9af966162cf794064b911dc50478d36f3a46bc4c9077b1751",
      "s": "0x5797f927d9c8a7fa2cfbd713d0716440e5e6771466709652d45bbfb20910966f",
      "v": 28,
      "creates": null,
      "raw": "0xf86980850ba43b740083015f9094793ae8c1b1a160bfc07bfb0d04f85eab1a71f4f280843ba150361ca0e142450d6da76fe9af966162cf794064b911dc50478d36f3a46bc4c9077b1751a05797f927d9c8a7fa2cfbd713d0716440e5e6771466709652d45bbfb20910966f",
      "networkId": 0,
      "chainId": 0
    },
    {
      "hash": "0x9e046c5fa4d18f072b8a8db3d170635baf04b173e7e8ccd1adea8e9f068eaffa",
      "blockHash": "0x84ba5eb74aba0d98a789b9f6e28357498c78a1dfefb02dd068c3d50d9cb84ea6",
      "blockNumber": 68631,
      "transactionIndex": 5,
      "confirmations": null,
      "from": "0xC7cEE62Be98B0934388d47F7Dbc114e9f071DeF3",
      "gasPrice": {
        "_hex": "0xba43b7400"
      },
      "gasLimit": {
        "_hex": "0x15f90"
      },
      "to": "0x793AE8C1b1a160BFc07BFB0d04F85eab1A71F4f2",
      "value": {
        "_hex": "0x0"
      },
      "nonce": 0,
      "data": "0x3ba15036",
      "r": "0x5754dd802e58388848ff4bfc9a0badb2b28f8602e5af8cb03a1fcfb5716dc916",
      "s": "0x5f76e1b54b1893514398bb7cabe235e355190644d795a2685ff847535ebe82e1",
      "v": 27,
      "creates": null,
      "raw": "0xf86980850ba43b740083015f9094793ae8c1b1a160bfc07bfb0d04f85eab1a71f4f280843ba150361ba05754dd802e58388848ff4bfc9a0badb2b28f8602e5af8cb03a1fcfb5716dc916a05f76e1b54b1893514398bb7cabe235e355190644d795a2685ff847535ebe82e1",
      "networkId": 0,
      "chainId": 0
    },
    {
      "hash": "0x8153bfa17fab364b38ca1ee68c32fbc1fe7edcc902c427e026ccfcc2b9a758b3",
      "blockHash": "0x84ba5eb74aba0d98a789b9f6e28357498c78a1dfefb02dd068c3d50d9cb84ea6",
      "blockNumber": 68631,
      "transactionIndex": 6,
      "confirmations": null,
      "from": "0xA6d28a5720E0D51FD8C5FeEAe807Ff13F2808b7f",
      "gasPrice": {
        "_hex": "0xba43b7400"
      },
      "gasLimit": {
        "_hex": "0x15f90"
      },
      "to": "0x793AE8C1b1a160BFc07BFB0d04F85eab1A71F4f2",
      "value": {
        "_hex": "0x0"
      },
      "nonce": 0,
      "data": "0x3ba15036",
      "r": "0x590e5e5c7a2657284a5a8217bf9a547370277357c38ae8de50dd0be4dbc7ba4d",
      "s": "0x38919625bf02f2d5d9d115930f8c4ca9f30c0f9958273b9c26d8eb4488a3a4eb",
      "v": 27,
      "creates": null,
      "raw": "0xf86980850ba43b740083015f9094793ae8c1b1a160bfc07bfb0d04f85eab1a71f4f280843ba150361ba0590e5e5c7a2657284a5a8217bf9a547370277357c38ae8de50dd0be4dbc7ba4da038919625bf02f2d5d9d115930f8c4ca9f30c0f9958273b9c26d8eb4488a3a4eb",
      "networkId": 0,
      "chainId": 0
    },
    {
      "hash": "0xef3e2d76e28db0dbfff47b901b1cb79b6189ccc3ad48ee7e70607b4a7c741ebe",
      "blockHash": "0x84ba5eb74aba0d98a789b9f6e28357498c78a1dfefb02dd068c3d50d9cb84ea6",
      "blockNumber": 68631,
      "transactionIndex": 7,
      "confirmations": null,
      "from": "0xAfa779EbaFB4D919b290565Be48668ef38E585eD",
      "gasPrice": {
        "_hex": "0xba43b7400"
      },
      "gasLimit": {
        "_hex": "0x15f90"
      },
      "to": "0x793AE8C1b1a160BFc07BFB0d04F85eab1A71F4f2",
      "value": {
        "_hex": "0x0"
      },
      "nonce": 0,
      "data": "0x3ba15036",
      "r": "0xe07f333d26307539b1d6f7c9aafe91192da6789b8d8e09aacca90e8fdd72c857",
      "s": "0x4e0cd844ea9c56b7576059f887aad1d57c258ab1b6fe033de8ead9990db8b8fe",
      "v": 28,
      "creates": null,
      "raw": "0xf86980850ba43b740083015f9094793ae8c1b1a160bfc07bfb0d04f85eab1a71f4f280843ba150361ca0e07f333d26307539b1d6f7c9aafe91192da6789b8d8e09aacca90e8fdd72c857a04e0cd844ea9c56b7576059f887aad1d57c258ab1b6fe033de8ead9990db8b8fe",
      "networkId": 0,
      "chainId": 0
    },
    {
      "hash": "0xd33ab464de2da06f3383ea7072ec7e5834b1fa321276dcc85f04cda328f10543",
      "blockHash": "0x84ba5eb74aba0d98a789b9f6e28357498c78a1dfefb02dd068c3d50d9cb84ea6",
      "blockNumber": 68631,
      "transactionIndex": 8,
      "confirmations": null,
      "from": "0xf6a9095B1ED6779EfC6bdDBc9F641E05Ad6449A6",
      "gasPrice": {
        "_hex": "0xba43b7400"
      },
      "gasLimit": {
        "_hex": "0x15f90"
      },
      "to": "0x793AE8C1b1a160BFc07BFB0d04F85eab1A71F4f2",
      "value": {
        "_hex": "0x0"
      },
      "nonce": 0,
      "data": "0x3ba15036",
      "r": "0x9a27cdd173babf4c557fc65f5a5b29171fb9cb9e86d9faf23dcd5f703f28184c",
      "s": "0x59befafe813a8c9d3de545e8c3f98ce41eccc12e332e051489d758dbbce6a880",
      "v": 28,
      "creates": null,
      "raw": "0xf86980850ba43b740083015f9094793ae8c1b1a160bfc07bfb0d04f85eab1a71f4f280843ba150361ca09a27cdd173babf4c557fc65f5a5b29171fb9cb9e86d9faf23dcd5f703f28184ca059befafe813a8c9d3de545e8c3f98ce41eccc12e332e051489d758dbbce6a880",
      "networkId": 0,
      "chainId": 0
    },
    {
      "hash": "0xf48413c3454aa2caa190f646f918600569be85421ec1c8317f97cec762bda323",
      "blockHash": "0x84ba5eb74aba0d98a789b9f6e28357498c78a1dfefb02dd068c3d50d9cb84ea6",
      "blockNumber": 68631,
      "transactionIndex": 9,
      "confirmations": null,
      "from": "0x7E9aC8f8550268328e4ddbA89d7B902098f594fC",
      "gasPrice": {
        "_hex": "0xba43b7400"
      },
      "gasLimit": {
        "_hex": "0x15f90"
      },
      "to": "0x793AE8C1b1a160BFc07BFB0d04F85eab1A71F4f2",
      "value": {
        "_hex": "0x0"
      },
      "nonce": 0,
      "data": "0x3ba15036",
      "r": "0x3433bfadc153089e770b49721732c1a09c8b01eef039f6db27597d0e8687e516",
      "s": "0x562124ab70ebeef95bc88b4a3242b43fb6b5b2e48b8bdc00790cfef546486369",
      "v": 27,
      "creates": null,
      "raw": "0xf86980850ba43b740083015f9094793ae8c1b1a160bfc07bfb0d04f85eab1a71f4f280843ba150361ba03433bfadc153089e770b49721732c1a09c8b01eef039f6db27597d0e8687e516a0562124ab70ebeef95bc88b4a3242b43fb6b5b2e48b8bdc00790cfef546486369",
      "networkId": 0,
      "chainId": 0
    },
    {
      "hash": "0xe6347ee6d2b9e597fab51e43bce03a63ee3f25c6a8dbfb6472060a8d49adca07",
      "blockHash": "0x84ba5eb74aba0d98a789b9f6e28357498c78a1dfefb02dd068c3d50d9cb84ea6",
      "blockNumber": 68631,
      "transactionIndex": 10,
      "confirmations": null,
      "from": "0xdC4357B572Fe45779ee88E920A2De6392e4A7196",
      "gasPrice": {
        "_hex": "0xba43b7400"
      },
      "gasLimit": {
        "_hex": "0x15f90"
      },
      "to": "0x793AE8C1b1a160BFc07BFB0d04F85eab1A71F4f2",
      "value": {
        "_hex": "0x0"
      },
      "nonce": 0,
      "data": "0x3ba15036",
      "r": "0x061195ab99444cc010411c24f75e0905d9a0dc211c018ee84c73defe4e041e0e",
      "s": "0x2e6c81eee2c2e6208c5bf9d4076aa85d6c3801a579812bf85f95d8ef07a7a0f1",
      "v": 27,
      "creates": null,
      "raw": "0xf86980850ba43b740083015f9094793ae8c1b1a160bfc07bfb0d04f85eab1a71f4f280843ba150361ba0061195ab99444cc010411c24f75e0905d9a0dc211c018ee84c73defe4e041e0ea02e6c81eee2c2e6208c5bf9d4076aa85d6c3801a579812bf85f95d8ef07a7a0f1",
      "networkId": 0,
      "chainId": 0
    },
    {
      "hash": "0x68db6bbac6005e095413eaf77a302ef6fd0779ad4e30a97284ee051a1cdcf379",
      "blockHash": "0x84ba5eb74aba0d98a789b9f6e28357498c78a1dfefb02dd068c3d50d9cb84ea6",
      "blockNumber": 68631,
      "transactionIndex": 11,
      "confirmations": null,
      "from": "0xb879a6150B910d734155FDC4d501d097982684e7",
      "gasPrice": {
        "_hex": "0xba43b7400"
      },
      "gasLimit": {
        "_hex": "0x15f90"
      },
      "to": "0x793AE8C1b1a160BFc07BFB0d04F85eab1A71F4f2",
      "value": {
        "_hex": "0x0"
      },
      "nonce": 0,
      "data": "0x3ba15036",
      "r": "0xc526019dd24bd1ab03556ab81a17d3f0e251c7151962b65457c9e5e99c1fa51b",
      "s": "0x21df9b57dc6803dd590aacc753af15561d5b6a26e56c9d37f615a858b326ab77",
      "v": 27,
      "creates": null,
      "raw": "0xf86980850ba43b740083015f9094793ae8c1b1a160bfc07bfb0d04f85eab1a71f4f280843ba150361ba0c526019dd24bd1ab03556ab81a17d3f0e251c7151962b65457c9e5e99c1fa51ba021df9b57dc6803dd590aacc753af15561d5b6a26e56c9d37f615a858b326ab77",
      "networkId": 0,
      "chainId": 0
    },
    {
      "hash": "0x8dcefae62c374b88645624b75a055f9e77ba4acda7daec5b71c025cc7ed24dbe",
      "blockHash": "0x84ba5eb74aba0d98a789b9f6e28357498c78a1dfefb02dd068c3d50d9cb84ea6",
      "blockNumber": 68631,
      "transactionIndex": 12,
      "confirmations": null,
      "from": "0x92E3B0A3FF7e7537d9c4aC548D7ecE1DC1217037",
      "gasPrice": {
        "_hex": "0xba43b7400"
      },
      "gasLimit": {
        "_hex": "0x15f90"
      },
      "to": "0x793AE8C1b1a160BFc07BFB0d04F85eab1A71F4f2",
      "value": {
        "_hex": "0x0"
      },
      "nonce": 0,
      "data": "0x3ba15036",
      "r": "0xb27c62bdaae4b7c94a171f0793eeb4a188087cd7510edf41f3455904693a57e1",
      "s": "0x719ac1085d579680e96bc1c15595f8471d33d404a20607154f7362080b23c220",
      "v": 28,
      "creates": null,
      "raw": "0xf86980850ba43b740083015f9094793ae8c1b1a160bfc07bfb0d04f85eab1a71f4f280843ba150361ca0b27c62bdaae4b7c94a171f0793eeb4a188087cd7510edf41f3455904693a57e1a0719ac1085d579680e96bc1c15595f8471d33d404a20607154f7362080b23c220",
      "networkId": 0,
      "chainId": 0
    },
    {
      "hash": "0x079b488eb2d9b5032eb263dccc245bbbc415625ef9d500ac68be8cc1937441b0",
      "blockHash": "0x84ba5eb74aba0d98a789b9f6e28357498c78a1dfefb02dd068c3d50d9cb84ea6",
      "blockNumber": 68631,
      "transactionIndex": 13,
      "confirmations": null,
      "from": "0x713c3C88AA03630f6ac890D69DE8e3F69BcF8D82",
      "gasPrice": {
        "_hex": "0xba43b7400"
      },
      "gasLimit": {
        "_hex": "0x15f90"
      },
      "to": "0x793AE8C1b1a160BFc07BFB0d04F85eab1A71F4f2",
      "value": {
        "_hex": "0x0"
      },
      "nonce": 0,
      "data": "0x3ba15036",
      "r": "0x85918fb2a4f7d418ae3b1c49a0d305de3915217e1d33f97d5114da0b66c21ae7",
      "s": "0x6cec7f0766bac0ef8071af447eba2b04c5a512cc5a14145e512cad9da3abb921",
      "v": 28,
      "creates": null,
      "raw": "0xf86980850ba43b740083015f9094793ae8c1b1a160bfc07bfb0d04f85eab1a71f4f280843ba150361ca085918fb2a4f7d418ae3b1c49a0d305de3915217e1d33f97d5114da0b66c21ae7a06cec7f0766bac0ef8071af447eba2b04c5a512cc5a14145e512cad9da3abb921",
      "networkId": 0,
      "chainId": 0
    },
    {
      "hash": "0x15b710a271120de2c23736bbc29e29ad8a134ea8464b1dd84dc9ae4c85a90112",
      "blockHash": "0x84ba5eb74aba0d98a789b9f6e28357498c78a1dfefb02dd068c3d50d9cb84ea6",
      "blockNumber": 68631,
      "transactionIndex": 14,
      "confirmations": null,
      "from": "0xc5FF7128adfd7baBdBf1F6Edf8395a1acFF9c1c4",
      "gasPrice": {
        "_hex": "0xba43b7400"
      },
      "gasLimit": {
        "_hex": "0x15f90"
      },
      "to": "0x793AE8C1b1a160BFc07BFB0d04F85eab1A71F4f2",
      "value": {
        "_hex": "0x0"
      },
      "nonce": 0,
      "data": "0x3ba15036",
      "r": "0xddcba8ad305f6ca8d98e6cd15f1596eb52a4a6e9c378325acec8c606da6cb786",
      "s": "0x386d86003c265364e924e08b4779f8badfa7212b91e624e9925418e313be0afd",
      "v": 27,
      "creates": null,
      "raw": "0xf86980850ba43b740083015f9094793ae8c1b1a160bfc07bfb0d04f85eab1a71f4f280843ba150361ba0ddcba8ad305f6ca8d98e6cd15f1596eb52a4a6e9c378325acec8c606da6cb786a0386d86003c265364e924e08b4779f8badfa7212b91e624e9925418e313be0afd",
      "networkId": 0,
      "chainId": 0
    },
    {
      "hash": "0x7f9a522ede667faf4f6da8caa97e6f26d9a25e0f7e3993d65f8da9f6292d1467",
      "blockHash": "0x84ba5eb74aba0d98a789b9f6e28357498c78a1dfefb02dd068c3d50d9cb84ea6",
      "blockNumber": 68631,
      "transactionIndex": 15,
      "confirmations": null,
      "from": "0x89a2FD010E3cdBE4E84D0b97472a4F1f016CAFC6",
      "gasPrice": {
        "_hex": "0xba43b7400"
      },
      "gasLimit": {
        "_hex": "0x15f90"
      },
      "to": "0x793AE8C1b1a160BFc07BFB0d04F85eab1A71F4f2",
      "value": {
        "_hex": "0x0"
      },
      "nonce": 0,
      "data": "0x3ba15036",
      "r": "0x4ea58ec3b8d2fed9a58a767434b0502f2d1201da804fb93b59744209296fc223",
      "s": "0x023601d20437b0ddb7f3fe738a300fbdbf0609a88952d062e2897e75f2f1aee9",
      "v": 28,
      "creates": null,
      "raw": "0xf86980850ba43b740083015f9094793ae8c1b1a160bfc07bfb0d04f85eab1a71f4f280843ba150361ca04ea58ec3b8d2fed9a58a767434b0502f2d1201da804fb93b59744209296fc223a0023601d20437b0ddb7f3fe738a300fbdbf0609a88952d062e2897e75f2f1aee9",
      "networkId": 0,
      "chainId": 0
    },
    {
      "hash": "0x4e1c6feb52f6f036ddcc47f52daa722111ed69e62f4aade6b72be57c2c20d404",
      "blockHash": "0x84ba5eb74aba0d98a789b9f6e28357498c78a1dfefb02dd068c3d50d9cb84ea6",
      "blockNumber": 68631,
      "transactionIndex": 16,
      "confirmations": null,
      "from": "0xC04c52161144Fcae0e105385dd24965E38FA0365",
      "gasPrice": {
        "_hex": "0xba43b7400"
      },
      "gasLimit": {
        "_hex": "0x15f90"
      },
      "to": "0x793AE8C1b1a160BFc07BFB0d04F85eab1A71F4f2",
      "value": {
        "_hex": "0x0"
      },
      "nonce": 0,
      "data": "0x3ba15036",
      "r": "0x0881c17847d04960ec5e83dd6372a664144594a3f4301b299de0f93905f51690",
      "s": "0x19983daa300c705ef26b483fec11ba994e776449edd775f91a856662312929a6",
      "v": 27,
      "creates": null,
      "raw": "0xf86980850ba43b740083015f9094793ae8c1b1a160bfc07bfb0d04f85eab1a71f4f280843ba150361ba00881c17847d04960ec5e83dd6372a664144594a3f4301b299de0f93905f51690a019983daa300c705ef26b483fec11ba994e776449edd775f91a856662312929a6",
      "networkId": 0,
      "chainId": 0
    },
    {
      "hash": "0xc3a95770139bf760bbad27e71930b2501f563cd963ed983f799a3423102471fd",
      "blockHash": "0x84ba5eb74aba0d98a789b9f6e28357498c78a1dfefb02dd068c3d50d9cb84ea6",
      "blockNumber": 68631,
      "transactionIndex": 17,
      "confirmations": null,
      "from": "0x394b6501C6Fa912D9c01a82A93eF6a2f1B55946D",
      "gasPrice": {
        "_hex": "0xba43b7400"
      },
      "gasLimit": {
        "_hex": "0x15f90"
      },
      "to": "0x793AE8C1b1a160BFc07BFB0d04F85eab1A71F4f2",
      "value": {
        "_hex": "0x0"
      },
      "nonce": 0,
      "data": "0x3ba15036",
      "r": "0x66cf5c0288e053a0918c68088a9fd5bbb6cfbd80f6825cc275f9360af3afb6f8",
      "s": "0x0a70ea7a0444b92321eead306f6adb3199636a345d37e812d377b49a66c41978",
      "v": 28,
      "creates": null,
      "raw": "0xf86980850ba43b740083015f9094793ae8c1b1a160bfc07bfb0d04f85eab1a71f4f280843ba150361ca066cf5c0288e053a0918c68088a9fd5bbb6cfbd80f6825cc275f9360af3afb6f8a00a70ea7a0444b92321eead306f6adb3199636a345d37e812d377b49a66c41978",
      "networkId": 0,
      "chainId": 0
    },
    {
      "hash": "0x9258b951e924f767b0f0dc24ef66bf58b92bc777c0c13804582082e82fd64407",
      "blockHash": "0x84ba5eb74aba0d98a789b9f6e28357498c78a1dfefb02dd068c3d50d9cb84ea6",
      "blockNumber": 68631,
      "transactionIndex": 18,
      "confirmations": null,
      "from": "0xF8781B31324867d19e7e9bf8D19AE3f682148B7D",
      "gasPrice": {
        "_hex": "0xba43b7400"
      },
      "gasLimit": {
        "_hex": "0x15f90"
      },
      "to": "0x793AE8C1b1a160BFc07BFB0d04F85eab1A71F4f2",
      "value": {
        "_hex": "0x0"
      },
      "nonce": 0,
      "data": "0x3ba15036",
      "r": "0x22276ae4794e1d165f0ddeca21d4a0fa8f4052dd72a1deea6a368c3bf4c3f6f8",
      "s": "0x0dadcc778d30560ff439af0e746c6d5869cc62ed5bf8cd837dfcb3b00df3259a",
      "v": 27,
      "creates": null,
      "raw": "0xf86980850ba43b740083015f9094793ae8c1b1a160bfc07bfb0d04f85eab1a71f4f280843ba150361ba022276ae4794e1d165f0ddeca21d4a0fa8f4052dd72a1deea6a368c3bf4c3f6f8a00dadcc778d30560ff439af0e746c6d5869cc62ed5bf8cd837dfcb3b00df3259a",
      "networkId": 0,
      "chainId": 0
    },
    {
      "hash": "0x42583d6547af0433d1d098dbdba39794f19567421c7872f21c5019dc63e1e60f",
      "blockHash": "0x84ba5eb74aba0d98a789b9f6e28357498c78a1dfefb02dd068c3d50d9cb84ea6",
      "blockNumber": 68631,
      "transactionIndex": 19,
      "confirmations": null,
      "from": "0xdeb04086E705c30aD5A18127aF9D57403fEc7dC0",
      "gasPrice": {
        "_hex": "0xba43b7400"
      },
      "gasLimit": {
        "_hex": "0x15f90"
      },
      "to": "0x793AE8C1b1a160BFc07BFB0d04F85eab1A71F4f2",
      "value": {
        "_hex": "0x0"
      },
      "nonce": 0,
      "data": "0x3ba15036",
      "r": "0x7b9fc25cb094e5dd1ed9dfc0bfcc08eed0a8fac9f71b0eaa285f44606a212651",
      "s": "0x0c4bfbb18f8955dbaac548b447827e7f63b2ce762ad7488ab3d49eb8124ce1f1",
      "v": 28,
      "creates": null,
      "raw": "0xf86980850ba43b740083015f9094793ae8c1b1a160bfc07bfb0d04f85eab1a71f4f280843ba150361ca07b9fc25cb094e5dd1ed9dfc0bfcc08eed0a8fac9f71b0eaa285f44606a212651a00c4bfbb18f8955dbaac548b447827e7f63b2ce762ad7488ab3d49eb8124ce1f1",
      "networkId": 0,
      "chainId": 0
    },
    {
      "hash": "0x5a04cdfbdf5a73f4e09677b1c671dbcda91b638b9a4af3bb5d083d949a1ff86b",
      "blockHash": "0x84ba5eb74aba0d98a789b9f6e28357498c78a1dfefb02dd068c3d50d9cb84ea6",
      "blockNumber": 68631,
      "transactionIndex": 20,
      "confirmations": null,
      "from": "0xCB0AE669157A8be0524Cbb600f399FD9e05b92Bd",
      "gasPrice": {
        "_hex": "0xba43b7400"
      },
      "gasLimit": {
        "_hex": "0x15f90"
      },
      "to": "0x793AE8C1b1a160BFc07BFB0d04F85eab1A71F4f2",
      "value": {
        "_hex": "0x0"
      },
      "nonce": 0,
      "data": "0x3ba15036",
      "r": "0x81d8c449b117fca7a9c6fdf9ff49e06cd296bbe53f78539300ddcac5fddbf044",
      "s": "0x71c3f176ed079818651c1bef43f295fc975c9ab9cfb4091544f41efc8323825d",
      "v": 28,
      "creates": null,
      "raw": "0xf86980850ba43b740083015f9094793ae8c1b1a160bfc07bfb0d04f85eab1a71f4f280843ba150361ca081d8c449b117fca7a9c6fdf9ff49e06cd296bbe53f78539300ddcac5fddbf044a071c3f176ed079818651c1bef43f295fc975c9ab9cfb4091544f41efc8323825d",
      "networkId": 0,
      "chainId": 0
    },
    {
      "hash": "0x7fa6da026e0b0eb6abfe594313e9d622fe1b47de60aae6b6a61ae9ff729cab1d",
      "blockHash": "0x84ba5eb74aba0d98a789b9f6e28357498c78a1dfefb02dd068c3d50d9cb84ea6",
      "blockNumber": 68631,
      "transactionIndex": 21,
      "confirmations": null,
      "from": "0xB38132c36011BaACe92428262595328cC5E5981c",
      "gasPrice": {
        "_hex": "0xba43b7400"
      },
      "gasLimit": {
        "_hex": "0x15f90"
      },
      "to": "0x793AE8C1b1a160BFc07BFB0d04F85eab1A71F4f2",
      "value": {
        "_hex": "0x0"
      },
      "nonce": 0,
      "data": "0x3ba15036",
      "r": "0xc3d9d3551402329bc0e782b1500acf810672a363d4b02d6322689d176722e5da",
      "s": "0x53840903b842e6b681fd2ab899ded07b0b5a2e54b3837e0166bebef53b8538fc",
      "v": 27,
      "creates": null,
      "raw": "0xf86980850ba43b740083015f9094793ae8c1b1a160bfc07bfb0d04f85eab1a71f4f280843ba150361ba0c3d9d3551402329bc0e782b1500acf810672a363d4b02d6322689d176722e5daa053840903b842e6b681fd2ab899ded07b0b5a2e54b3837e0166bebef53b8538fc",
      "networkId": 0,
      "chainId": 0
    },
    {
      "hash": "0x2502d626e18d98d3ba6616d583ba952e774369f8511820405b9ec1143747eaf0",
      "blockHash": "0x84ba5eb74aba0d98a789b9f6e28357498c78a1dfefb02dd068c3d50d9cb84ea6",
      "blockNumber": 68631,
      "transactionIndex": 22,
      "confirmations": null,
      "from": "0x073e9a6475B8941DA144B72DcCbaB16110062a02",
      "gasPrice": {
        "_hex": "0xba43b7400"
      },
      "gasLimit": {
        "_hex": "0x15f90"
      },
      "to": "0x793AE8C1b1a160BFc07BFB0d04F85eab1A71F4f2",
      "value": {
        "_hex": "0x0"
      },
      "nonce": 0,
      "data": "0x3ba15036",
      "r": "0xaa0fb0a54101d0c2ab6ad9ccd322be79966040cbec8c0261672dfe90e8e503d7",
      "s": "0x46d6a0306f300bad0342ccb00ea7f3eac78dd893ed2bc4e6a45c2ba2a57fa0f3",
      "v": 28,
      "creates": null,
      "raw": "0xf86980850ba43b740083015f9094793ae8c1b1a160bfc07bfb0d04f85eab1a71f4f280843ba150361ca0aa0fb0a54101d0c2ab6ad9ccd322be79966040cbec8c0261672dfe90e8e503d7a046d6a0306f300bad0342ccb00ea7f3eac78dd893ed2bc4e6a45c2ba2a57fa0f3",
      "networkId": 0,
      "chainId": 0
    },
    {
      "hash": "0xdc4be8d8b1ecb4e841c97516385b9705580a07f0314c8a400363ab2d50631fb6",
      "blockHash": "0x84ba5eb74aba0d98a789b9f6e28357498c78a1dfefb02dd068c3d50d9cb84ea6",
      "blockNumber": 68631,
      "transactionIndex": 23,
      "confirmations": null,
      "from": "0x58Ff3011878079142059Ab126C3d3D6982777dDd",
      "gasPrice": {
        "_hex": "0xba43b7400"
      },
      "gasLimit": {
        "_hex": "0x15f90"
      },
      "to": "0x793AE8C1b1a160BFc07BFB0d04F85eab1A71F4f2",
      "value": {
        "_hex": "0x0"
      },
      "nonce": 0,
      "data": "0x3ba15036",
      "r": "0x4482abddeeca72613c85520ceef140333ac24f8a63c708c8b6422864f4b8ff16",
      "s": "0x10700e801ced7b1f5ba550dbd2fc17cf8559f52f9fd6583b24a0a143810796d2",
      "v": 27,
      "creates": null,
      "raw": "0xf86980850ba43b740083015f9094793ae8c1b1a160bfc07bfb0d04f85eab1a71f4f280843ba150361ba04482abddeeca72613c85520ceef140333ac24f8a63c708c8b6422864f4b8ff16a010700e801ced7b1f5ba550dbd2fc17cf8559f52f9fd6583b24a0a143810796d2",
      "networkId": 0,
      "chainId": 0
    },
    {
      "hash": "0xc6b197cf194143584da8ae98d2d0638026e27dd022ac00e62f63fc3af704025f",
      "blockHash": "0x84ba5eb74aba0d98a789b9f6e28357498c78a1dfefb02dd068c3d50d9cb84ea6",
      "blockNumber": 68631,
      "transactionIndex": 24,
      "confirmations": null,
      "from": "0x476bdAA7869D6C964204AFA1Fa86a5BAD3F3f37b",
      "gasPrice": {
        "_hex": "0xba43b7400"
      },
      "gasLimit": {
        "_hex": "0x15f90"
      },
      "to": "0x793AE8C1b1a160BFc07BFB0d04F85eab1A71F4f2",
      "value": {
        "_hex": "0x0"
      },
      "nonce": 0,
      "data": "0x3ba15036",
      "r": "0x52a8c8c8e2da4c31f6123131b35e0ed50bb13662638140b1b5c48ccf82c57351",
      "s": "0x206f5b2f4f3d6e7680b29f2f9e5c961372f790acee2aa2fea7b409ebd0040ac5",
      "v": 27,
      "creates": null,
      "raw": "0xf86980850ba43b740083015f9094793ae8c1b1a160bfc07bfb0d04f85eab1a71f4f280843ba150361ba052a8c8c8e2da4c31f6123131b35e0ed50bb13662638140b1b5c48ccf82c57351a0206f5b2f4f3d6e7680b29f2f9e5c961372f790acee2aa2fea7b409ebd0040ac5",
      "networkId": 0,
      "chainId": 0
    }
  ]
}