{
  "hash": "0x33141a77b641544bca8b6359b3aae7e93ab7ce108455cb595aeadca983d59320",
  "parentHash": "0xb7788c6da11c544d50b85a50aa32d05fe1d77351f1e52941c01864aaf6cd9e4a",
  "number": 68523,
  "timestamp": 1439289479,
  "nonce": "0x627c69b2710b5553",
  "difficulty": 2001562340136,
  "gasLimit": {
    "_hex": "0x2fefd8"
  },
  "gasUsed": {
    "_hex": "0x52b31"
  },
  "miner": "0x3FF679B0823a026F2378E5f5F22A6F127cC85828",
  "extraData": "0x",
  "transactions": [
    {
      "hash": "0xc92cbf282bd5cf8d040584e3e56cb7dbe1a1522db435b4075e85f40e8c7765d8",
      "blockHash": "0x33141a77b641544bca8b6359b3aae7e93ab7ce108455cb595aeadca983d59320",
      "blockNumber": 68523,
      "transactionIndex": 0,
      "confirmations": null,
      "from": "0x17580B766f7453525ca4C6A88b01b50570EA088C",
      "gasPrice": {
        "_hex": "0xcac29e610"
      },
      "gasLimit": {
        "_hex": "0x61a80"
      },
      "to": "0x5Fe5B7546D1628f7348B023A0393de1FC825A4fD",
      "value": {
        "_hex": "0xde0b6b3a7640000"
      },
      "nonce": 34,
      "data": "0xb595b8b50000000000000000000000000000000000000000000000000000000000000001",
      "r": "0x33c92c8125cc97670eda331d3b240d72f8a502dc1a54df53448a1ba30452dfe5",
      "s": "0x28ac6af405717a3a9f8bf1a3e45d302be19b14ba2a952ba148e51d8193265f75",
      "v": 27,
      "creates": null,
      "raw": "0xf89122850cac29e61083061a80945fe5b7546d1628f7348b023a0393de1fc825a4fd880de0b6b3a7640000a4b595b8b500000000000000000000000000000000000000000000000000000000000000011ba033c92c8125cc97670eda331d3b240d72f8a502dc1a54df53448a1ba30452dfe5a028ac6af405717a3a9f8bf1a3e45d302be19b14ba2a952ba148e51d8193265f75",
      "networkId": 0,
      "chainId": 0
    },
    {
      "hash": "0xfadfd42e66cd873510623930b7c965b14115cb34f3a4f90ef5b5fd59f92b40f8",
      "blockHash": "0x33141a77b641544bca8b6359b3aae7e93ab7ce108455cb595aeadca983d59320",
      "blockNumber": 68523,
      "transactionIndex": 1,
      "confirmations": null,
      "from": "0xF279ee7C96D3e2AF8296f100f2Ef24DF8331a87c",
      "gasPrice": {
        "_hex": "0xba43b7400"
      },
      "gasLimit": {
        "_hex": "0x5208"
      },
      "to": "0x75650B2766Cdb68cc82F525F16E0fB638c165C9e",
      "value": {
        "_hex": "0xd8e5610f40e000"
      },
      "nonce": 1,
      "data": "0x",
      "r": "0x166542312a8bca221830676a89b66297bd388618ba55100f9529dbcd7f817b28",
      "s": "0x23b0594b8137c849f6169c45607c6da05fea60b28e0906fbc6824eeca8b3ec7a",
      "v": 28,
      "creates": null,
      "raw": "0xf86b01850ba43b74008252089475650b2766cdb68cc82f525f16e0fb638c165c9e87d8e5610f40e000801ca0166542312a8bca221830676a89b66297bd388618ba55100f9529dbcd7f817b28a023b0594b8137c849f6169c45607c6da05fea60b28e0906fbc6824eeca8b3ec7a",
      "networkId": 0,
      "chainId": 0
    },
    {
      "hash": "0x81aa92c3ca3284b90209dc9794d6045b8410596e92f1b33cbebdd3b3b21bfed9",
      "blockHash": "0x33141a77b641544bca8b6359b3aae7e93ab7ce108455cb595aeadca983d59320",
      "blockNumber": 68523,
      "transactionIndex": 2,
      "confirmations": null,
      "from": "0xA52F7f3E529a8E2E0c84657B8F9053f8AD31137F",
      "gasPrice": {
        "_hex": "0xba43b7400"
      },
      "gasLimit": {
        "_hex": "0x5208"
      },
      "to": "0x30fA4024a464a11BC60fB370A3ace5Ff8BF8e991",
      "value": {
        "_hex": "0xd8e5610f40e000"
      },
      "nonce": 1,
      "data": "0x",
      "r": "0x5c6b3a73424ef350f6bd205dadcbb3bebe20a940e7750efca8b6897b45e68858",
      "s": "0x38a1f196d488dd58e8173594e8c43aab978490aa9ba698875c5e2430cfbabc3c",
      "v": 28,
      "creates": null,
      "raw": "0xf86b01850ba43b74008252089430fa4024a464a11bc60fb370a3ace5ff8bf8e99187d8e5610f40e000801ca05c6b3a73424ef350f6bd205dadcbb3bebe20a940e7750efca8b6897b45e68858a038a1f196d488dd58e8173594e8c43aab978490aa9ba698875c5e2430cfbabc3c",
      "networkId": 0,
      "chainId": 0
    },
    {
      "hash": "0x3eb3052706342e856b11f8846b1df15ad22c56efe1f66a310c1b935c1c5b5f51",
      "blockHash": "0x33141a77b641544bca8b6359b3aae7e93ab7ce108455cb595aeadca983d59320",
      "blockNumber": 68523,
      "transactionIndex": 3,
      "confirmations": null,
      "from": "0xD66f44F49197aC90183eb0784178d0a5DEb3fF25",
      "gasPrice": {
        "_hex": "0xba43b7400"
      },
      "gasLimit": {
        "_hex": "0x5208"
      },
      "to": "0x1c0260B07e22F754419958587c6B195aa6BB465d",
      "value": {
        "_hex": "0xd8e5610f40e000"
      },
      "nonce": 1,
      "data": "0x",
      "r": "0x5317e3bdf966b49102df998ded82f01c2ade521613c5538a59833d4e3915d915",
      "s": "0x6336269479688ce7a1654b590ffe1b1eac36aa40828949a20269199c771f23f3",
      "v": 27,
      "creates": null,
      "raw": "0xf86b01850ba43b7400825208941c0260b07e22f754419958587c6b195aa6bb465d87d8e5610f40e000801ba05317e3bdf966b49102df998ded82f01c2ade521613c5538a59833d4e3915d915a06336269479688ce7a1654b590ffe1b1eac36aa40828949a20269199c771f23f3",
      "networkId": 0,
      "chainId": 0
    },
    {
      "hash": "0xae658cb270a931d071d3151a72fd246444aa8452a293d7b6e7009a699f1d8f5b",
      "blockHash": "0x33141a77b641544bca8b6359b3aae7e93ab7ce108455cb595aeadca983d59320",
      "blockNumber": 68523,
      "transactionIndex": 4,
      "confirmations": null,
      "from": "0xCe18dB6c6daFA17eEC92EdE938410C737a0f9be6",
      "gasPrice": {
        "_hex": "0xba43b7400"
      },
      "gasLimit": {
        "_hex": "0x5208"
      },
      "to": "0x61c9d63697b8eA3C387CcB3e693f02D4f597B763",
      "value": {
        "_hex": "0xd8e5610f40e000"
      },
      "nonce": 1,
      "data": "0x",
      "r": "0x40ce8223e718dcd38b0d416dcc0faa3a120ac67798810236160d0522e9d88178",
      "s": "0x060f3a72861eb7a9e07fd0c3d3dc9093aefa92dd08880bc2051710cc87791f1a",
      "v": 27,
      "creates": null,
      "raw": "0xf86b01850ba43b74008252089461c9d63697b8ea3c387ccb3e693f02d4f597b76387d8e5610f40e000801ba040ce8223e718dcd38b0d416dcc0faa3a120ac67798810236160d0522e9d88178a0060f3a72861eb7a9e07fd0c3d3dc9093aefa92dd08880bc2051710cc87791f1a",
      "networkId": 0,
      "chainId": 0
    },
    {
      "hash": "0x57d0cb00662de7a1033b8f77197b38b91a87f5a0ec9a8940a3b4e05bb7e26eb7",
      "blockHash": "0x33141a77b641544bca8b6359b3aae7e93ab7ce108455cb595aeadca983d59320",
      "blockNumber": 68523,
      "transactionIndex": 5,
      "confirmations": null,
      "from": "0x27eb7a21FE45aB5b11f633ab2D1039003582ccbb",
      "gasPrice": {
        "_hex": "0xba43b7400"
      },
      "gasLimit": {
        "_hex": "0x5208"
      },
      "to": "0xD9704dDFa2e7fc404513bbC6ED387569e42ca788",
      "value": {
        "_hex": "0xd8e5610f40e000"
      },
      "nonce": 1,
      "data": "0x",
      "r": "0x73de95e679c384cd560747a867d40ab4a6730a7b698e54663274422049ed14ff",
      "s": "0x58301ca6f1ebe72aa18b74163d7a063ad2e9a4fdd768e7abcdb5bd7e1ed41247",
      "v": 28,
      "creates": null,
      "raw": "0xf86b01850ba43b740082520894d9704ddfa2e7fc404513bbc6ed387569e42ca78887d8e5610f40e000801ca073de95e679c384cd560747a867d40ab4a6730a7b698e54663274422049ed14ffa058301ca6f1ebe72aa18b74163d7a063ad2e9a4fdd768e7abcdb5bd7e1ed41247",
      "networkId": 0,
      "chainId": 0
    },
    {
      "hash": "0xda2f722f35014ec849b3955ba8ae9aec60965f1a600af3b37cf63916192286db",
      "blockHash": "0x33141a77b641544bca8b6359b3aae7e93ab7ce108455cb595aeadca983d59320",
      "blockNumber": 68523,
      "transactionIndex": 6,
      "confirmations": null,
      "from": "0x94f7f374AEa3371ccE2Dcfb0c50525Eedd90AdF0",
      "gasPrice": {
        "_hex": "0xba43b7400"
      },
      "gasLimit": {
        "_hex": "0x5208"
      },
      "to": "0x0B6dbF220dF5b51F126e8053dFB6573836Eb93EF",
      "value": {
        "_hex": "0xd8e5610f40e000"
      },
      "nonce": 1,
      "data": "0x",
      "r": "0xc9f46df52d7737d4452c4dc5adf3b5f3fb62e99aa426ba4fea49c9309b76b0af",
      "s": "0x7e9f1799a8d0ac2ecd6ec503f2956537c8a9867cbe46940d437332fdbddc3db6",
      "v": 28,
      "creates": null,
      "raw": "0xf86b01850ba43b7400825208940b6dbf220df5b51f126e8053dfb6573836eb93ef87d8e5610f40e000801ca0c9f46df52d7737d4452c4dc5adf3b5f3fb62e99aa426ba4fea49c9309b76b0afa07e9f1799a8d0ac2ecd6ec503f2956537c8a9867cbe46940d437332fdbddc3db6",
      "networkId": 0,
      "chainId": 0
    },
    {
      "hash": "0xcc9c9e97e88d8e31abacb52e8a7b87acad201d831d94730961711923cb48fd41",
      "blockHash": "0x33141a77b641544bca8b6359b3aae7e93ab7ce108455cb595aeadca983d59320",
      "blockNumber": 68523,
      "transactionIndex": 7,
      "confirmations": null,
      "from": "0x3BA6349156f9e83A2963Da4600cd12dff6AE2E28",
      "gasPrice": {
        "_hex": "0xba43b7400"
      },
      "gasLimit": {
        "_hex": "0x5208"
      },
      "to": "0xC4427ED360Cb4995D1Ecf37D8DdB4EBa8a80ac7A",
      "value": {
        "_hex": "0xd8e5610f40e000"
      },
      "nonce": 1,
      "data": "0x",
      "r": "0x4e27b97991864eb9284d55ad16c7d2076c61cd31493d446c11ec697be0ada975",
      "s": "0x65a72adbfaf348ffc08ecadab2c0534e9ce8d47c590a448ece1f421a6c11cacf",
      "v": 27,
      "creates": null,
      "raw": "0xf86b01850ba43b740082520894c4427ed360cb4995d1ecf37d8ddb4eba8a80ac7a87d8e5610f40e000801ba04e27b97991864eb9284d55ad16c7d2076c61cd31493d446c11ec697be0ada975a065a72adbfaf348ffc08ecadab2c0534e9ce8d47c590a448ece1f421a6c11cacf",
      "networkId": 0,
      "chainId": 0
    },
    {
      "hash": "0xbde8317f94d820b9816d69137f7eb59eaab07d3b787f5f7c276e0d6110a78793",
      "blockHash": "0x33141a77b641544bca8b6359b3aae7e93ab7ce108455cb595aeadca983d59320",
      "blockNumber": 68523,
      "transactionIndex": 8,
      "confirmations": null,
      "from": "0x3A9F65df026Fc2c7B39FD23Dc639BdF9609d329c",
      "gasPrice": {
        "_hex": "0xba43b7400"
      },
      "gasLimit": {
        "_hex": "0x5208"
      },
      "to": "0x65C03917E7f81DeBC8bB93Cce18ca5a0fD86cd3C",
      "value": {
        "_hex": "0xd8e5610f40e000"
      },
      "nonce": 1,
      "data": "0x",
      "r": "0xf71cd191f239dab8ecc5054631fb708e4a2bdc2e1d5eeb06d53414ef435e1e78",
      "s": "0x56d70c8ab443850c103156db68adab95458c3eb54fe3272c6a3f1437c701e123",
      "v": 28,
      "creates": null,
      "raw": "0xf86b01850ba43b74008252089465c03917e7f81debc8bb93cce18ca5a0fd86cd3c87d8e5610f40e000801ca0f71cd191f239dab8ecc5054631fb708e4a2bdc2e1d5eeb06d53414ef435e1e78a056d70c8ab443850c103156db68adab95458c3eb54fe3272c6a3f1437c701e123",
      "networkId": 0,
      "chainId": 0
    },
    {
      "hash": "0xdc9158c28e023827c22e4deaf95b7f3164c96e3b640e13d9af9f7a687f2cb503",
      "blockHash": "0x33141a77b641544bca8b6359b3aae7e93ab7ce108455cb595aeadca983d59320",
      "blockNumber": 68523,
      "transactionIndex": 9,
      "confirmations": null,
      "from": "0x528ff87f89965934De0aBFcb65aaaFA4487fd82d",
      "gasPrice": {
        "_hex": "0xba43b7400"
      },
      "gasLimit": {
        "_hex": "0x5208"
      },
      "to": "0x6812681BCA92D406f490e4ABAd068c530e626F1F",
      "value": {
        "_hex": "0xd8e5610f40e000"
      },
      "nonce": 1,
      "data": "0x",
      "r": "0xfb7615627b98d1277503885854ad2ab9b69461bd9ef985ffebebfdb8f3c6de44",
      "s": "0x7a7b41f23554304a28790ab05d1f2d494a3327dec19ee8022a6d8dc4131bda74",
      "v": 28,
      "creates": null,
      "raw": "0xf86b01850ba43b7400825208946812681bca92d406f490e4abad068c530e626f1f87d8e5610f40e000801ca0fb7615627b98d1277503885854ad2ab9b69461bd9ef985ffebebfdb8f3c6de44a07a7b41f23554304a28790ab05d1f2d494a3327dec19ee8022a6d8dc4131bda74",
      "networkId": 0,
      "chainId": 0
    },
    {
      "hash": "0xe3a4d63725ea04cdc73ef6333ba8f990704ea25766df8455ace96890d5162062",
      "blockHash": "0x33141a77b641544bca8b6359b3aae7e93ab7ce108455cb595aeadca983d59320",
      "blockNumber": 68523,
      "transactionIndex": 10,
      "confirmations": null,
      "from": "0xdB1783D791A215308C7d2331110E571Af76Ee9d8",
      "gasPrice": {
        "_hex": "0xba43b7400"
      },
      "gasLimit": {
        "_hex": "0x5208"
      },
      "to": "0x3f4dF11E066CB6AEEB1d14C03826f8D157F06D04",
      "value": {
        "_hex": "0xd8e5610f40e000"
      },
      "nonce": 1,
      "data": "0x",
      "r": "0xf7cfc57ae74f9dd36bf42eb34f918c5630d1d6e3c09ac1432a207c377e5ee825",
      "s": "0x1ae55da565ece8b80e292a34b86ea8667b56283a1efc26978822b78b4b0338f8",
      "v": 28,
      "creates": null,
      "raw": "0xf86b01850ba43b7400825208943f4df11e066cb6aeeb1d14c03826f8d157f06d0487d8e5610f40e000801ca0f7cfc57ae74f9dd36bf42eb34f918c5630d1d6e3c09ac1432a207c377e5ee825a01ae55da565ece8b80e292a34b86ea8667b56283a1efc26978822b78b4b0338f8",
      "networkId": 0,
      "chainId": 0
    },
    {
      "hash": "0x87d944c5df13c57e6c52985197a028f1d4aaa48650fbeac42da910167d4cf770",
      "blockHash": "0x33141a77b641544bca8b6359b3aae7e93ab7ce108455cb595aeadca983d59320",
      "blockNumber": 68523,
      "transactionIndex": 11,
      "confirmations": null,
      "from": "0x6747f922385c9a6F9cfDf095F34345257DD597bE",
      "gasPrice": {
        "_hex": "0xba43b7400"
      },
      "gasLimit": {
        "_hex": "0x5208"
      },
      "to": "0xD88AAdec23aEed0279c0F9EE0F5382534F4BF4f0",
      "value": {
        "_hex": "0x1fcbfa42bd6000"
      },
      "nonce": 124,
      "data": "0x",
      "r": "0x82e0b7f6335b3a553bb229ddc159478bca0332b2459cad6a543756f5f116ca62",
      "s": "0x1e0355d1ccfc6a8297e4c7598c3ca2ccb549b4d3ff35c4930fcd9d234d5ebcd7",
      "v": 28,
      "creates": null,
      "raw": "0xf86b7c850ba43b740082520894d88aadec23aeed0279c0f9ee0f5382534f4bf4f0871fcbfa42bd6000801ca082e0b7f6335b3a553bb229ddc159478bca0332b2459cad6a543756f5f116ca62a01e0355d1ccfc6a8297e4c7598c3ca2ccb549b4d3ff35c4930fcd9d234d5ebcd7",
      "networkId": 0,
      "chainId": 0
    },
    {
      "hash": "0x636cf5a938049981934939c7d22ff06b22e49c6e529828c5a02628575390840e",
      "blockHash": "0x33141a77b641544bca8b6359b3aae7e93ab7ce108455cb595aeadca983d59320",
      "blockNumber": 68523,
      "transactionIndex": 12,
      "confirmations": null,
      "from": "0xfDA0C1D3110C77Cf600308cb86764E0C6744d55F",
      "gasPrice": {
        "_hex": "0xba43b7400"
      },
      "gasLimit": {
        "_hex": "0x5208"
      },
      "to": "0xBEA5c0813196BCbA7bB0e1666F76394e6cff0E9c",
      "value": {
        "_hex": "0xd8e5610f40e000"
      },
      "nonce": 1,
      "data": "0x",
      "r": "0x881299da6f96ee2bddc9d1ef6f27c36edcb7cb39fe8934c432ea334ff2aa5e13",
      "s": "0x6fcca300de5e96d32bdd62ddaf23085cc71da3b4ce4f761cf7219ecff7eb1602",
      "v": 28,
      "creates": null,
      "raw": "0xf86b01850ba43b740082520894bea5c0813196bcba7bb0e1666f76394e6cff0e9c87d8e5610f40e000801ca0881299da6f96ee2bddc9d1ef6f27c36edcb7cb39fe8934c432ea334ff2aa5e13a06fcca300de5e96d32bdd62ddaf23085cc71da3b4ce4f761cf7219ecff7eb1602",
      "networkId": 0,
      "chainId": 0
    },
    {
      "hash": "0xd022105312cfa7f54eab8ba53fcdff3864152c704ff26006d111c09328c0cfd0",
      "blockHash": "0x33141a77b641544bca8b6359b3aae7e93ab7ce108455cb595aeadca983d59320",
      "blockNumber": 68523,
      "transactionIndex": 13,
      "confirmations": null,
      "from": "0xB550C8090fC49524b37de6f1C4E99D92c299A57C",
      "gasPrice": {
        "_hex": "0xba43b7400"
      },
      "gasLimit": {
        "_hex": "0x5208"
      },
      "to": "0x74Ff8E65Ef544caeF1a31357Dc42bbb22AE4D1fE",
      "value": {
        "_hex": "0xd8e5610f40e000"
      },
      "nonce": 1,
      "data": "0x",
      "r": "0x5750232ebab3bf101eb2a6bb3043c17f0b1aeeebc6d304d554c72a8b9f415e36",
      "s": "0x3f2a7e7f2d8bd499fb91840964772d2837881415ff32858d85b284ea0c2bc3a3",
      "v": 27,
      "creates": null,
      "raw": "0xf86b01850ba43b74008252089474ff8e65ef544caef1a31357dc42bbb22ae4d1fe87d8e5610f40e000801ba05750232ebab3bf101eb2a6bb3043c17f0b1aeeebc6d304d554c72a8b9f415e36a03f2a7e7f2d8bd499fb91840964772d2837881415ff32858d85b284ea0c2bc3a3",
      "networkId": 0,
      "chainId": 0
    },
    {
      "hash": "0x4844b879c8452a89711e5d80bd0727b91ceb1a65157756c7e9225f3623f92b73",
      "blockHash": "0x33141a77b641544bca8b6359b3aae7e93ab7ce108455cb595aeadca983d59320",
      "blockNumber": 68523,
      "transactionIndex": 14,
      "confirmations": null,
      "from": "0x7427A70c01E8A7B752acD97229b4d86E4403371d",
      "gasPrice": {
        "_hex": "0xba43b7400"
      },
      "gasLimit": {
        "_hex": "0x5208"
      },
      "to": "0x272d18E1A1B4C732e89F9Ece1D6C3d79ca374693",
      "value": {
        "_hex": "0xd8e5610f40e000"
      },
      "nonce": 1,
      "data": "0x",
      "r": "0xda78cb436e56648dd093202462224e59a5d672b2098c48cf9af1356454fef71a",
      "s": "0x696ca19f92795c9b37d29fad12011aff581bd6cc9ea4f4e1a9fee265e61fa8d6",
      "v": 28,
      "creates": null,
      "raw": "0xf86b01850ba43b740082520894272d18e1a1b4c732e89f9ece1d6c3d79ca37469387d8e5610f40e000801ca0da78cb436e56648dd093202462224e59a5d672b2098c48cf9af1356454fef71aa0696ca19f92795c9b37d29fad12011aff581bd6cc9ea4f4e1a9fee265e61fa8d6",
      "networkId": 0,
      "chainId": 0
    }
  ]
}