{
  "hash": "0x9a6dc4a78842e105d9fa4e719e38947e3cfee944160842fa5b5d32c6ca7caf40",
  "parentHash": "0xfffeb426a6c208dd71769cc3ce0e33dbc40eea8d510bb62bbb6b6cd023d93487",
  "number": 88663,
  "timestamp": 1439611505,
  "nonce": "0xdb69cfc4bc7eeb52",
  "difficulty": 3228430023612,
  "gasLimit": {
    "_hex": "0x2fefd8"
  },
  "gasUsed": {
    "_hex": "0x5208"
  },
  "miner": "0xC603Ab5ef41fC61AA8b76bEddb09e3Cfcbb174BD",
  "extraData": "0x476574682f76312e302e312f77696e646f77732f676f312e342e32",
  "transactions": [
    {
      "hash": "0x6d755d5e3b384f35731c8e591440e194ee0b5af94692d88ff4e0055b488f5107",
      "blockHash": "0x9a6dc4a78842e105d9fa4e719e38947e3cfee944160842fa5b5d32c6ca7caf40",
      "blockNumber": 88663,
      "transactionIndex": 0,
      "confirmations": null,
      "from": "0xB6E50cCE61484289924ffb2629ea923272af1Ac1",
      "gasPrice": {
        "_hex": "0xba43b7400"
      },
      "gasLimit": {
        "_hex": "0x5208"
      },
      "to": "0xC47Aaa860008be6f65B58c6C6E02a84e666EfE31",
      "value": {
        "_hex": "0x1e4bc8ef6a7616000"
      },
      "nonce": 3,
      "data": "0x",
      "r": "0xbd3c51d87e4c6e2bb92a3acb227e0162b775e8af99f67416a1d62323f790d6e6",
      "s": "0x1aa5231e83ee31d55f13ae4fa10102677b71646c6230d459ef584923cf0393cc",
      "v": 27,
      "creates": null,
      "raw": "0xf86d03850ba43b740082520894c47aaa860008be6f65b58c6c6e02a84e666efe318901e4bc8ef6a7616000801ba0bd3c51d87e4c6e2bb92a3acb227e0162b775e8af99f67416a1d62323f790d6e6a01aa5231e83ee31d55f13ae4fa10102677b71646c6230d459ef584923cf0393cc",
      "networkId": 0,
      "chainId": 0
    }
  ]
}