{
  "hash": "0xddd04a3724f4edcb3b381c70c8f33f5ead34f6afdb99f1d28833fe2c0694bf7b",
  "parentHash": "0xce7e366574ed4d86b98a90a278f2c24b81a9808f152908f9b7b58553a2dde471",
  "number": 59880,
  "timestamp": 1439145264,
  "nonce": "0xf29bedf1df9d1711",
  "difficulty": 1726390095930,
  "gasLimit": {
    "_hex": "0x2fefd5"
  },
  "gasUsed": {
    "_hex": "0x5208"
  },
  "miner": "0x01d9DA08cc6Fb97c0DE1B6F4C28910A0859Ed1A1",
  "extraData": "0x476574682f76312e302e312f6c696e75782f676f312e342e32",
  "transactions": [
    {
      "hash": "0x8e6fc1fa1fe77d8bf5d84b5362047ec2c6d21f6c3241974fcd1b5b7ec91f856d",
      "blockHash": "0xddd04a3724f4edcb3b381c70c8f33f5ead34f6afdb99f1d28833fe2c0694bf7b",
      "blockNumber": 59880,
      "transactionIndex": 0,
      "confirmations": null,
      "from": "0x86d3856ad0105B9d4199936c1fd203664BA325dC",
      "gasPrice": {
        "_hex": "0xd589153f6"
      },
      "gasLimit": {
        "_hex": "0x5208"
      },
      "to": "0x32Be343B94f860124dC4fEe278FDCBD38C102D88",
      "value": {
        "_hex": "0x455f4ab909e5cc00"
      },
      "nonce": 5,
      "data": "0x",
      "r": "0xddb301035d9a0c52418cb85445449d0a78d45f6e778a356b62dde5a5703a3da7",
      "s": "0x6d8ab350e83d5a586a2da8663bc6f189b14a8ad6cf7c9d7233f310c910bc29d4",
      "v": 27,
      "creates": null,
      "raw": "0xf86c05850d589153f68252089432be343b94f860124dc4fee278fdcbd38c102d8888455f4ab909e5cc00801ba0ddb301035d9a0c52418cb85445449d0a78d45f6e778a356b62dde5a5703a3da7a06d8ab350e83d5a586a2da8663bc6f189b14a8ad6cf7c9d7233f310c910bc29d4",
      "networkId": 0,
      "chainId": 0
    }
  ]
}