{
  "hash": "0xf4a9dfecdc6019564439a740b6992c2b76e32381a65dae482e39164f266fbd15",
  "parentHash": "0xb84efe1d6c23fefc531d39a454a7f0371db6919416ae4029f553cae6c367efe3",
  "number": 81401,
  "timestamp": 1439501029,
  "nonce": "0x81c1a5e3e8250826",
  "difficulty": 2455787716790,
  "gasLimit": {
    "_hex": "0x2fefd8"
  },
  "gasUsed": {
    "_hex": "0x5208"
  },
  "miner": "0x0037ce3d4B7f8729C8607D8D0248252Be68202c0",
  "extraData": "0x476574682f76312e302e312f77696e646f77732f676f312e342e32",
  "transactions": [
    {
      "hash": "0x43d7711bf5d54dee9a96cd0f5753a53c5ad0ee0bf81b15a3e9d5ef27dd814514",
      "blockHash": "0xf4a9dfecdc6019564439a740b6992c2b76e32381a65dae482e39164f266fbd15",
      "blockNumber": 81401,
      "transactionIndex": 0,
      "confirmations": null,
      "from": "0x32Be343B94f860124dC4fEe278FDCBD38C102D88",
      "gasPrice": {
        "_hex": "0xddc3e9216"
      },
      "gasLimit": {
        "_hex": "0x5208"
      },
      "to": "0x76899c112A85c5a7d27Ff89f1b97112e900aeEBc",
      "value": {
        "_hex": "0x35fc0e63d0450000"
      },
      "nonce": 594,
      "data": "0x",
      "r": "0xe6fef8de4ffe2245d902462b0a028aef5a5c0928d550412bd445cb60b24a16ae",
      "s": "0x35adf014a5576634ea72acea053a782662271c450e78b4cdd972a1b71b861e04",
      "v": 28,
      "creates": null,
      "raw": "0xf86e820252850ddc3e92168252089476899c112a85c5a7d27ff89f1b97112e900aeebc8835fc0e63d0450000801ca0e6fef8de4ffe2245d902462b0a028aef5a5c0928d550412bd445cb60b24a16aea035adf014a5576634ea72acea053a782662271c450e78b4cdd972a1b71b861e04",
      "networkId": 0,
      "chainId": 0
    }
  ]
}