{
  "hash": "0xcdf79272cf2a4afab8dae6a99ec180d92b66bb73b8c7f6a67d84e4f37df20533",
  "parentHash": "0x80af1b76df56c4878c5e1c85ec21887a7a2df48e1a1a17fb47a485c4b6ff5fd3",
  "number": 86535,
  "timestamp": 1439579626,
  "nonce": "0x48cb1a9b998a534d",
  "difficulty": 2897508383510,
  "gasLimit": {
    "_hex": "0x2fefd8"
  },
  "gasUsed": {
    "_hex": "0xa410"
  },
  "miner": "0xe6A7a1d47ff21B6321162AEA7C6CB457D5476Bca",
  "extraData": "0x476574682f76312e302e312d38326566323666362f6c696e75782f676f312e34",
  "transactions": [
    {
      "hash": "0xbf8bc11c9a0b6a5a223ed36d723688a1814a2cd9f9aeb1b3094cd27154d9ce57",
      "blockHash": "0xcdf79272cf2a4afab8dae6a99ec180d92b66bb73b8c7f6a67d84e4f37df20533",
      "blockNumber": 86535,
      "transactionIndex": 0,
      "confirmations": null,
      "from": "0x1308A2e95c0160B90803ddCA9B9a5bb55E416d79",
      "gasPrice": {
        "_hex": "0xdad252067"
      },
      "gasLimit": {
        "_hex": "0x15f90"
      },
      "to": "0x47DAe6F8168553F6307B2b8A332cf335Bb84eF22",
      "value": {
        "_hex": "0x2086ac351052600000"
      },
      "nonce": 128,
      "data": "0x",
      "r": "0xccbb26570549161c063d266f7d9a88200c11b33b2c72e75398dfa38a689e9719",
      "s": "0x17e2ea4d956a8710f63d3401a6e2b04711119db2196dd441f6e16473882fcd4e",
      "v": 28,
      "creates": null,
      "raw": "0xf86f8180850dad25206783015f909447dae6f8168553f6307b2b8a332cf335bb84ef22892086ac351052600000801ca0ccbb26570549161c063d266f7d9a88200c11b33b2c72e75398dfa38a689e9719a017e2ea4d956a8710f63d3401a6e2b04711119db2196dd441f6e16473882fcd4e",
      "networkId": 0,
      "chainId": 0
    },
    {
      "hash": "0xf3fdf15107665cea5d64b17bb3f4144aa9fe7a907ee07d9fa96b9ba3459e277e",
      "blockHash": "0xcdf79272cf2a4afab8dae6a99ec180d92b66bb73b8c7f6a67d84e4f37df20533",
      "blockNumber": 86535,
      "transactionIndex": 1,
      "confirmations": null,
      "from": "0x2910543Af39abA0Cd09dBb2D50200b3E800A63D2",
      "gasPrice": {
        "_hex": "0xd00ef4501"
      },
      "gasLimit": {
        "_hex": "0x5208"
      },
      "to": "0x5DBAa2ca43Ddf70321B7806a81a6A1988F9019a4",
      "value": {
        "_hex": "0x11c37937e08000"
      },
      "nonce": 669,
      "data": "0x",
      "r": "0x68b73790b5b540d84dc71b37617f1ad6c440ba3d7bb63b994c13de139ac52bf1",
      "s": "0x0c41eafe4aa67ab017941b6f079a6cd0b3361769c84fc74b44b4722b5e8c3627",
      "v": 27,
      "creates": null,
      "raw": "0xf86d82029d850d00ef4501825208945dbaa2ca43ddf70321b7806a81a6a1988f9019a48711c37937e08000801ba068b73790b5b540d84dc71b37617f1ad6c440ba3d7bb63b994c13de139ac52bf1a00c41eafe4aa67ab017941b6f079a6cd0b3361769c84fc74b44b4722b5e8c3627",
      "networkId": 0,
      "chainId": 0
    }
  ]
}