{
  "hash": "0x280c3a2b2ddbf36a44ec7330d13f777ec12fde2870e31f21c43e9970b7d785c2",
  "parentHash": "0xa09dde641c24c0ed45a534956492a5e1c71528a94afee1aa986747f1391a65d8",
  "number": 118488,
  "timestamp": 1440126921,
  "nonce": "0x63ae4a7c2d1316d3",
  "difficulty": 4297319021864,
  "gasLimit": {
    "_hex": "0x2fefd8"
  },
  "gasUsed": {
    "_hex": "0x5208"
  },
  "miner": "0x52bc44d5378309EE2abF1539BF71dE1b7d7bE3b5",
  "extraData": "0xd783010002844765746887676f312e342e32856c696e7578",
  "transactions": [
    {
      "hash": "0xea3408a338773b67e9513950e1cc3aaeb956c8970250b43ba476b7dceee524af",
      "blockHash": "0x280c3a2b2ddbf36a44ec7330d13f777ec12fde2870e31f21c43e9970b7d785c2",
      "blockNumber": 118488,
      "transactionIndex": 0,
      "confirmations": null,
      "from": "0x007f7f58D3eb5b7510A301eCC749FC1fCDDBE14D",
      "gasPrice": {
        "_hex": "0xba43b7400"
      },
      "gasLimit": {
        "_hex": "0x15f90"
      },
      "to": "0xb1abce2918E21ddb93AA452731a12672A3d9F75a",
      "value": {
        "_hex": "0x4563918244f40000"
      },
      "nonce": 342,
      "data": "0x",
      "r": "0xcf75c2d58b4ca8ea16a877809ae1aaa293bfc4f89d0ae51fee3537bdb4fec17b",
      "s": "0x0b7ab27eb00476a8634e62b38e896229eea0972e86958b366cf632d7c92ddcfd",
      "v": 28,
      "creates": null,
      "raw": "0xf86f820156850ba43b740083015f9094b1abce2918e21ddb93aa452731a12672a3d9f75a884563918244f40000801ca0cf75c2d58b4ca8ea16a877809ae1aaa293bfc4f89d0ae51fee3537bdb4fec17ba00b7ab27eb00476a8634e62b38e896229eea0972e86958b366cf632d7c92ddcfd",
      "networkId": 0,
      "chainId": 0
    }
  ]
}