{
  "hash": "0xbe016824dc49b032c3396abc526853f4f7954778cdf427190c1196b0e72943fd",
  "parentHash": "0x55ba50ea6ea29461d1948fd303c189635a3017c54cc994cc89d21b32f8d10747",
  "number": 53611,
  "timestamp": 1439040519,
  "nonce": "0xad8fd050dde1d3d6",
  "difficulty": 1593947253517,
  "gasLimit": {
    "_hex": "0x2d0ef6"
  },
  "gasUsed": {
    "_hex": "0x5208"
  },
  "miner": "0xf8E0CA3Ed80bd541b94BEdCf259e8CF2141A9523",
  "extraData": "0x476574682f76312e302e312f77696e646f77732f676f312e342e32",
  "transactions": [
    {
      "hash": "0x151c064abc9aef58fb670639be17899bc9d0079a9c5b873c6e37b8ee068d3ed5",
      "blockHash": "0xbe016824dc49b032c3396abc526853f4f7954778cdf427190c1196b0e72943fd",
      "blockNumber": 53611,
      "transactionIndex": 0,
      "confirmations": null,
      "from": "0x510EdA5601499a0D5E1A006BfFFd833672F2E267",
      "gasPrice": {
        "_hex": "0xd7d40ace3"
      },
      "gasLimit": {
        "_hex": "0x7a120"
      },
      "to": "0xa80b38CE85260252BDb8BE027868c1A32a2201a6",
      "value": {
        "_hex": "0x1b1ae4d6e2ef500000"
      },
      "nonce": 1,
      "data": "0x",
      "r": "0x85ccc304e294ebcbb4292f47ab8417224b0df118e1018092ba09f1cc17f5b4c8",
      "s": "0x64b1fafae9236864a6dd7fbdb599140af0fc76b135f7abbf6716bb914c01070c",
      "v": 27,
      "creates": null,
      "raw": "0xf86e01850d7d40ace38307a12094a80b38ce85260252bdb8be027868c1a32a2201a6891b1ae4d6e2ef500000801ba085ccc304e294ebcbb4292f47ab8417224b0df118e1018092ba09f1cc17f5b4c8a064b1fafae9236864a6dd7fbdb599140af0fc76b135f7abbf6716bb914c01070c",
      "networkId": 0,
      "chainId": 0
    }
  ]
}