{
  "hash": "0x4a7348b1589404997169e40b3a5f857f7277fe7c4ad2dcb6e587e3c35a273476",
  "parentHash": "0xb7cccf7e394b4cd91112155dc374ae6b5e9d1e2beeba87bc5ca42ff8e2059354",
  "number": 122364,
  "timestamp": 1440193088,
  "nonce": "0xe9212a0a537a24c5",
  "difficulty": 4483921700641,
  "gasLimit": {
    "_hex": "0x2fefd8"
  },
  "gasUsed": {
    "_hex": "0x5208"
  },
  "miner": "0xe6A7a1d47ff21B6321162AEA7C6CB457D5476Bca",
  "extraData": "0xd783010002844765746887676f312e342e32856c696e7578",
  "transactions": [
    {
      "hash": "0xc5a6a68576bc8c8944dbba093f049202043a803df7ed6debde14f04b52fe6719",
      "blockHash": "0x4a7348b1589404997169e40b3a5f857f7277fe7c4ad2dcb6e587e3c35a273476",
      "blockNumber": 122364,
      "transactionIndex": 0,
      "confirmations": null,
      "from": "0x007f7f58D3eb5b7510A301eCC749FC1fCDDBE14D",
      "gasPrice": {
        "_hex": "0xba43b7400"
      },
      "gasLimit": {
        "_hex": "0x15f90"
      },
      "to": "0xb1abce2918E21ddb93AA452731a12672A3d9F75a",
      "value": {
        "_hex": "0x4563918244f40000"
      },
      "nonce": 394,
      "data": "0x",
      "r": "0xc1165bb1d500842d6cd840e065c1b66c9777b7bd9ee814b3fe42fdd205a34938",
      "s": "0x6235914293c3edcd42aaee0c6a1285ccf5b16787378f7aef6b0026b1b4d29995",
      "v": 27,
      "creates": null,
      "raw": "0xf86f82018a850ba43b740083015f9094b1abce2918e21ddb93aa452731a12672a3d9f75a884563918244f40000801ba0c1165bb1d500842d6cd840e065c1b66c9777b7bd9ee814b3fe42fdd205a34938a06235914293c3edcd42aaee0c6a1285ccf5b16787378f7aef6b0026b1b4d29995",
      "networkId": 0,
      "chainId": 0
    }
  ]
}