{
  "hash": "0xdae5b67c684feb0ecdecb2b6993d46f05e191483d58ccb383009b28ddfd2ca37",
  "parentHash": "0xaa08d1fe979fee45e307ee7ba4c4629c54fe3a24d9251a2285f71612f0ab8f4c",
  "number": 46631,
  "timestamp": 1438926541,
  "nonce": "0xce8fdd78b334250f",
  "difficulty": 1453932748525,
  "gasLimit": {
    "_hex": "0x6d01"
  },
  "gasUsed": {
    "_hex": "0x5208"
  },
  "miner": "0xf8E0CA3Ed80bd541b94BEdCf259e8CF2141A9523",
  "extraData": "0x476574682f76312e302e312f77696e646f77732f676f312e342e32",
  "transactions": [
    {
      "hash": "0xb7f99387e8db936cea3b34a288c8237f4504932842417217a86be35ebc52521e",
      "blockHash": "0xdae5b67c684feb0ecdecb2b6993d46f05e191483d58ccb383009b28ddfd2ca37",
      "blockNumber": 46631,
      "transactionIndex": 0,
      "confirmations": null,
      "from": "0x0A63E1A8C33e351679e3581AC84ce341C32f813a",
      "gasPrice": {
        "_hex": "0x11158f29b33"
      },
      "gasLimit": {
        "_hex": "0x5208"
      },
      "to": "0x4Eaf4CaDd87499C20bA3412B1D222f9a72DA7AFF",
      "value": {
        "_hex": "0x8ac7230489e80000"
      },
      "nonce": 0,
      "data": "0x",
      "r": "0x395ab2b2eabfca351466fc803e75aedf0803c12c9300f4805dfba96d959b52e8",
      "s": "0x1247b5a57c1d59862af38431aab8db9d3c1833e2ce8516f8c1799247934458e2",
      "v": 28,
      "creates": null,
      "raw": "0xf86d8086011158f29b33825208944eaf4cadd87499c20ba3412b1d222f9a72da7aff888ac7230489e80000801ca0395ab2b2eabfca351466fc803e75aedf0803c12c9300f4805dfba96d959b52e8a01247b5a57c1d59862af38431aab8db9d3c1833e2ce8516f8c1799247934458e2",
      "networkId": 0,
      "chainId": 0
    }
  ]
}