{
  "hash": "0x11051cecd5fe448e745b87f6ae9a55e0430244f5e272f545d3c5f334d73bf5de",
  "parentHash": "0x33feebe65561a299b7b1c7edf98cf3f8cbd8c5d33691d083e5d72e4f08248471",
  "number": 108047,
  "timestamp": 1439933114,
  "nonce": "0xf2249cb95c3196b2",
  "difficulty": 4385391833662,
  "gasLimit": {
    "_hex": "0x2fefd8"
  },
  "gasUsed": {
    "_hex": "0x5208"
  },
  "miner": "0xe6A7a1d47ff21B6321162AEA7C6CB457D5476Bca",
  "extraData": "0x476574682f76312e302e312d38326566323666362f6c696e75782f676f312e34",
  "transactions": [
    {
      "hash": "0x9f70ad5439956f72aa185a9ad858a9ec62ac798da1eeb58c71e9ca22962fba37",
      "blockHash": "0x11051cecd5fe448e745b87f6ae9a55e0430244f5e272f545d3c5f334d73bf5de",
      "blockNumber": 108047,
      "transactionIndex": 0,
      "confirmations": null,
      "from": "0x1527fcd698B3A8707bb745F80ab114FfF3Db35E2",
      "gasPrice": {
        "_hex": "0xdf0d7f4be"
      },
      "gasLimit": {
        "_hex": "0x5208"
      },
      "to": "0x32Be343B94f860124dC4fEe278FDCBD38C102D88",
      "value": {
        "_hex": "0x11589d9aff0ed8000"
      },
      "nonce": 7,
      "data": "0x",
      "r": "0x765280e488a2574112c4c6500d17a7484aa908ae63a37e27d60801acd92e81e7",
      "s": "0x36d0f1cd19c3ae70d586837c9a8f620d9e484f9bafa57470be2ac5226a60e1f9",
      "v": 28,
      "creates": null,
      "raw": "0xf86d07850df0d7f4be8252089432be343b94f860124dc4fee278fdcbd38c102d8889011589d9aff0ed8000801ca0765280e488a2574112c4c6500d17a7484aa908ae63a37e27d60801acd92e81e7a036d0f1cd19c3ae70d586837c9a8f620d9e484f9bafa57470be2ac5226a60e1f9",
      "networkId": 0,
      "chainId": 0
    }
  ]
}