{
  "hash": "0x14184684114937842d7eb835f1890ef2ddddb086f24174588ad0742e64882ea3",
  "parentHash": "0xccc69196059060b431e6c28b302edf8fd039099aa5a62594c17a56c391975bae",
  "number": 81043,
  "timestamp": 1439495143,
  "nonce": "0x528280e9a5a103b1",
  "difficulty": 2432025923005,
  "gasLimit": {
    "_hex": "0x2fefd8"
  },
  "gasUsed": {
    "_hex": "0x5208"
  },
  "miner": "0x5F8F73E26CdF436f19Cb24C82F90A15AFe55b592",
  "extraData": "0x476574682f76312e302e312f77696e646f77732f676f312e342e32",
  "transactions": [
    {
      "hash": "0x20b2b6cddaf76d848337366f94221aadda07ea7a925c292470c9a68449e5571a",
      "blockHash": "0x14184684114937842d7eb835f1890ef2ddddb086f24174588ad0742e64882ea3",
      "blockNumber": 81043,
      "transactionIndex": 0,
      "confirmations": null,
      "from": "0xC3Ff472485ebe25dAe8d7d96d49Bb59a03103B38",
      "gasPrice": {
        "_hex": "0xba43b7400"
      },
      "gasLimit": {
        "_hex": "0x5265"
      },
      "to": "0x0e2feEC433472451e3E7ea6da95D453C2a82e4dC",
      "value": {
        "_hex": "0x1f711def073e900000"
      },
      "nonce": 3,
      "data": "0x",
      "r": "0xc8b8fefc2edffd71269fff6a5b82a20fdaea1dca9c9abee0465e61f25732bba9",
      "s": "0x0864794fc3d5caffe990ac3c79bfed0fbca217ce7402121b0c15ce5c11dde057",
      "v": 28,
      "creates": null,
      "raw": "0xf86d03850ba43b7400825265940e2feec433472451e3e7ea6da95d453c2a82e4dc891f711def073e900000801ca0c8b8fefc2edffd71269fff6a5b82a20fdaea1dca9c9abee0465e61f25732bba9a00864794fc3d5caffe990ac3c79bfed0fbca217ce7402121b0c15ce5c11dde057",
      "networkId": 0,
      "chainId": 0
    }
  ]
}