{
  "hash": "0x3596189865001189dec06ff3e6028fcb36ac52a4e093490b3693b853dd1ca9d1",
  "parentHash": "0x5a2b424d7808fb08121aa00f4521cdb58c7cccbd060456b632c7d1b9c899b4e3",
  "number": 91965,
  "timestamp": 1439664537,
  "nonce": "0xb3bbe163ce4a6e56",
  "difficulty": 3482582827040,
  "gasLimit": {
    "_hex": "0x2fefd8"
  },
  "gasUsed": {
    "_hex": "0x5208"
  },
  "miner": "0xe6A7a1d47ff21B6321162AEA7C6CB457D5476Bca",
  "extraData": "0x476574682f76312e302e312d38326566323666362f6c696e75782f676f312e34",
  "transactions": [
    {
      "hash": "0x7eb8edd6111f09ec5f866373207b3c08a5b284946c0a2bf4e492ae2711547a5e",
      "blockHash": "0x3596189865001189dec06ff3e6028fcb36ac52a4e093490b3693b853dd1ca9d1",
      "blockNumber": 91965,
      "transactionIndex": 0,
      "confirmations": null,
      "from": "0x32Be343B94f860124dC4fEe278FDCBD38C102D88",
      "gasPrice": {
        "_hex": "0xd8ec01369"
      },
      "gasLimit": {
        "_hex": "0x5208"
      },
      "to": "0x156D6B6d7105b05295583076E78733815B356aD5",
      "value": {
        "_hex": "0x34888052178270000"
      },
      "nonce": 889,
      "data": "0x",
      "r": "0x5aa8a5604d3b4534511d97b48edf46b8ebee89f8a43fe1cf711e48fc3f662013",
      "s": "0x44d685900435ac60a72b66520cd30f618f6e5ec3f99dd6d1dacd8d988049651f",
      "v": 27,
      "creates": null,
      "raw": "0xf86f820379850d8ec0136982520894156d6b6d7105b05295583076e78733815b356ad589034888052178270000801ba05aa8a5604d3b4534511d97b48edf46b8ebee89f8a43fe1cf711e48fc3f662013a044d685900435ac60a72b66520cd30f618f6e5ec3f99dd6d1dacd8d988049651f",
      "networkId": 0,
      "chainId": 0
    }
  ]
}