{
  "hash": "0xd4202081cf405a72a4bc520aedd6c72ea8054280c3696a2a1be78b3b277d6e74",
  "parentHash": "0x45c009212461a7136ac4c71422519bd2f38a36a97465eceaae00a0642e8c51ba",
  "number": 98870,
  "timestamp": 1439780307,
  "nonce": "0x26b27170ebe1559b",
  "difficulty": 3864883529797,
  "gasLimit": {
    "_hex": "0x2fefd8"
  },
  "gasUsed": {
    "_hex": "0x5208"
  },
  "miner": "0xe6A7a1d47ff21B6321162AEA7C6CB457D5476Bca",
  "extraData": "0x476574682f76312e302e312d38326566323666362f6c696e75782f676f312e34",
  "transactions": [
    {
      "hash": "0x9fec888ddbd17747ec42895d7402e6d2b7a37d3b0a7d1dcd707771f913b7d05f",
      "blockHash": "0xd4202081cf405a72a4bc520aedd6c72ea8054280c3696a2a1be78b3b277d6e74",
      "blockNumber": 98870,
      "transactionIndex": 0,
      "confirmations": null,
      "from": "0xa8E7201ff619fAFFc332E6aD37Ed41e301bf014a",
      "gasPrice": {
        "_hex": "0xd20f66ffd"
      },
      "gasLimit": {
        "_hex": "0x15f90"
      },
      "to": "0x00C865a16eD3c930DD70B642507639D199C62180",
      "value": {
        "_hex": "0xf2dc7d47f1560000"
      },
      "nonce": 6,
      "data": "0x",
      "r": "0x7e7cb6c6105fe39070a2921b9d6ee2e3390fcc1eb374b1829afee8d217f514d3",
      "s": "0x51ebef6b9742c9a72249b2345679713857d7e3e3a3fc7bd99598ddfd15fc4ff4",
      "v": 28,
      "creates": null,
      "raw": "0xf86d06850d20f66ffd83015f909400c865a16ed3c930dd70b642507639d199c6218088f2dc7d47f1560000801ca07e7cb6c6105fe39070a2921b9d6ee2e3390fcc1eb374b1829afee8d217f514d3a051ebef6b9742c9a72249b2345679713857d7e3e3a3fc7bd99598ddfd15fc4ff4",
      "networkId": 0,
      "chainId": 0
    }
  ]
}