{
  "hash": "0xcdb6b3bf24627d31f56eb8547ff04f5ab309a063ec1d671d093d799bfae157de",
  "parentHash": "0x6ab3ac5157349334753d48d22b381ce51023214c19cf4f16692017d0d3bf9ebe",
  "number": 119355,
  "timestamp": 1440141341,
  "nonce": "0x14d9f15343c0263c",
  "difficulty": 4409524668819,
  "gasLimit": {
    "_hex": "0x2fefd8"
  },
  "gasUsed": {
    "_hex": "0x19a28"
  },
  "miner": "0xa70a9a7040d542C632D8e0bE7c5513A8a5Bbc752",
  "extraData": "0x",
  "transactions": [
    {
      "hash": "0xac15c0404ebdd8b5d083a8cac31ee5439815e840396cfc09f7d763ecf8cf28fa",
      "blockHash": "0xcdb6b3bf24627d31f56eb8547ff04f5ab309a063ec1d671d093d799bfae157de",
      "blockNumber": 119355,
      "transactionIndex": 0,
      "confirmations": null,
      "from": "0x1c69e6202df7794272b70FaEa8f7408c856B1f08",
      "gasPrice": {
        "_hex": "0xba43b7400"
      },
      "gasLimit": {
        "_hex": "0x5208"
      },
      "to": "0x32Be343B94f860124dC4fEe278FDCBD38C102D88",
      "value": {
        "_hex": "0x238fd836218fb000"
      },
      "nonce": 13,
      "data": "0x",
      "r": "0xba0c2b2d8991e5a09066952da4850ce543ab5e29fa6c9359bd2e9213ce86730c",
      "s": "0x5bfc8fe1f9264056c6584048aca1f5b828a070814a013397554c8b20d49199a5",
      "v": 28,
      "creates": null,
      "raw": "0xf86c0d850ba43b74008252089432be343b94f860124dc4fee278fdcbd38c102d8888238fd836218fb000801ca0ba0c2b2d8991e5a09066952da4850ce543ab5e29fa6c9359bd2e9213ce86730ca05bfc8fe1f9264056c6584048aca1f5b828a070814a013397554c8b20d49199a5",
      "networkId": 0,
      "chainId": 0
    },
    {
      "hash": "0x68970d1e522608283ed0042b819424111268156ae2029db39c974e5461e78b2c",
      "blockHash": "0xcdb6b3bf24627d31f56eb8547ff04f5ab309a063ec1d671d093d799bfae157de",
      "blockNumber": 119355,
      "transactionIndex": 1,
      "confirmations": null,
      "from": "0x6111E933E5e6297DFd0AAd9aAB64017c69062a08",
      "gasPrice": {
        "_hex": "0xba43b7400"
      },
      "gasLimit": {
        "_hex": "0x5208"
      },
      "to": "0x32Be343B94f860124dC4fEe278FDCBD38C102D88",
      "value": {
        "_hex": "0x48c8dc4182e56800"
      },
      "nonce": 21,
      "data": "0x",
      "r": "0x1205df20d03f6c8fc2c0d78a9d941f7b4809aae5ab334fe8872d8796dcdf4afc",
      "s": "0x7539fed57642e429dc3b089fd5815a6d577763e58c99d2f745ab0cb49fa61e8d",
      "v": 27,
      "creates": null,
      "raw": "0xf86c15850ba43b74008252089432be343b94f860124dc4fee278fdcbd38c102d888848c8dc4182e56800801ba01205df20d03f6c8fc2c0d78a9d941f7b4809aae5ab334fe8872d8796dcdf4afca07539fed57642e429dc3b089fd5815a6d577763e58c99d2f745ab0cb49fa61e8d",
      "networkId": 0,
      "chainId": 0
    },
    {
      "hash": "0x16dac8d5c2dc6a41eaff57463bafaa9d429b014085c56c41e0d8c61e7ffd1a58",
      "blockHash": "0xcdb6b3bf24627d31f56eb8547ff04f5ab309a063ec1d671d093d799bfae157de",
      "blockNumber": 119355,
      "transactionIndex": 2,
      "confirmations": null,
      "from": "0xbb30e448B72d6Fdd44973A4C7a312F92f22C8F07",
      "gasPrice": {
        "_hex": "0xba43b7400"
      },
      "gasLimit": {
        "_hex": "0x5208"
      },
      "to": "0x32Be343B94f860124dC4fEe278FDCBD38C102D88",
      "value": {
        "_hex": "0x2d805a13d7f8b400"
      },
      "nonce": 17,
      "data": "0x",
      "r": "0x8c7f1ae7945d602897e75cebc8218c4906b1af6333c76bbd843272700d6697cb",
      "s": "0x226675dad249fd8a2d5d87aa19f84ec6481fb85473acda5d67be08137c47ffaa",
      "v": 28,
      "creates": null,
      "raw": "0xf86c11850ba43b74008252089432be343b94f860124dc4fee278fdcbd38c102d88882d805a13d7f8b400801ca08c7f1ae7945d602897e75cebc8218c4906b1af6333c76bbd843272700d6697cba0226675dad249fd8a2d5d87aa19f84ec6481fb85473acda5d67be08137c47ffaa",
      "networkId": 0,
      "chainId": 0
    },
    {
      "hash": "0x05c07796114f56e830307b4958181899413cfa01d040201b90e137e12cad0ba8",
      "blockHash": "0xcdb6b3bf24627d31f56eb8547ff04f5ab309a063ec1d671d093d799bfae157de",
      "blockNumber": 119355,
      "transactionIndex": 3,
      "confirmations": null,
      "from": "0x3175a28CF6105466923f11bFFabD279F162aa2f8",
      "gasPrice": {
        "_hex": "0xba43b7400"
      },
      "gasLimit": {
        "_hex": "0x5208"
      },
      "to": "0x32Be343B94f860124dC4fEe278FDCBD38C102D88",
      "value": {
        "_hex": "0x2a16a7c427934800"
      },
      "nonce": 19,
      "data": "0x",
      "r": "0x8293a0b41cc1421f41f0c033410bc31a934d5770c085bfc608d485c2e78e627e",
      "s": "0x61539430649c932e9fbec5a5b72c4c655902f6cb070a2f74e3387b066040f671",
      "v": 28,
      "creates": null,
      "raw": "0xf86c13850ba43b74008252089432be343b94f860124dc4fee278fdcbd38c102d88882a16a7c427934800801ca08293a0b41cc1421f41f0c033410bc31a934d5770c085bfc608d485c2e78e627ea061539430649c932e9fbec5a5b72c4c655902f6cb070a2f74e3387b066040f671",
      "networkId": 0,
      "chainId": 0
    },
    {
      "hash": "0xe98b04cfc2c5ff3fb9651906f0441149ce747dc3edfa9a4b64babfc27a8237da",
      "blockHash": "0xcdb6b3bf24627d31f56eb8547ff04f5ab309a063ec1d671d093d799bfae157de",
      "blockNumber": 119355,
      "transactionIndex": 4,
      "confirmations": null,
      "from": "0xe6A7a1d47ff21B6321162AEA7C6CB457D5476Bca",
      "gasPrice": {
        "_hex": "0xba43b7400"
      },
      "gasLimit": {
        "_hex": "0x55f0"
      },
      "to": "0xe70361D11B44B2fBA997417D7AAa26eb69EBfef0",
      "value": {
        "_hex": "0x98950177ed3b8190"
      },
      "nonce": 6225,
      "data": "0x",
      "r": "0xe94c2a29aabd24a675d0e2da0732db54a7f27365e90ba5a6fcdec7462f2feff7",
      "s": "0x25e56e0b15fa71d4b8457307c0db9877ff7a16022b04abd64626888f9f1099c6",
      "v": 27,
      "creates": null,
      "raw": "0xf86e821851850ba43b74008255f094e70361d11b44b2fba997417d7aaa26eb69ebfef08898950177ed3b8190801ba0e94c2a29aabd24a675d0e2da0732db54a7f27365e90ba5a6fcdec7462f2feff7a025e56e0b15fa71d4b8457307c0db9877ff7a16022b04abd64626888f9f1099c6",
      "networkId": 0,
      "chainId": 0
    }
  ]
}