{
  "hash": "0x8e8a81171ce6f5a1b12eb231f74b0fa7678cc70ed771ea0798f79c8dee82a8bb",
  "parentHash": "0x093e01aeeec56fee17c41a707653abafc5dcf7209bc390359bcd3e36158f88b0",
  "number": 109501,
  "timestamp": 1439957625,
  "nonce": "0xd00f727b3c8eb300",
  "difficulty": 4453679687148,
  "gasLimit": {
    "_hex": "0x2fefd8"
  },
  "gasUsed": {
    "_hex": "0x5208"
  },
  "miner": "0xe6A7a1d47ff21B6321162AEA7C6CB457D5476Bca",
  "extraData": "0x476574682f76312e302e312d38326566323666362f6c696e75782f676f312e34",
  "transactions": [
    {
      "hash": "0x6763522eb1baa336e8972b916eebdb35791de036f93e7ede10a9be162fc3d767",
      "blockHash": "0x8e8a81171ce6f5a1b12eb231f74b0fa7678cc70ed771ea0798f79c8dee82a8bb",
      "blockNumber": 109501,
      "transactionIndex": 0,
      "confirmations": null,
      "from": "0x2dC0950003aEa14Af0c9E3439E59cf8e79Fa569d",
      "gasPrice": {
        "_hex": "0xd6d9651bf"
      },
      "gasLimit": {
        "_hex": "0x15f90"
      },
      "to": "0xf8a58969d2FbBf009542432480fe2D49037Ed976",
      "value": {
        "_hex": "0x6f05b59d3b200000"
      },
      "nonce": 1,
      "data": "0x",
      "r": "0x5059420aa5c1f1aebfc9b5a0ef65c562d2ba6b23973617c9a5e96e72ed049c37",
      "s": "0x1c6fcefdf92d8abf88ace64b2a248a29a9f0b490433b7dd5c898c53016981e30",
      "v": 27,
      "creates": null,
      "raw": "0xf86d01850d6d9651bf83015f9094f8a58969d2fbbf009542432480fe2d49037ed976886f05b59d3b200000801ba05059420aa5c1f1aebfc9b5a0ef65c562d2ba6b23973617c9a5e96e72ed049c37a01c6fcefdf92d8abf88ace64b2a248a29a9f0b490433b7dd5c898c53016981e30",
      "networkId": 0,
      "chainId": 0
    }
  ]
}