{
  "hash": "0x881509a510b8eea2c18b9dae30da3fb9531d17c1402cbd7172b2d9ab0dc37be4",
  "parentHash": "0xfe67951242d013fb05fa5f61b1b5f590726a0bc7bdc0189a8b9f80b4292f43fa",
  "number": 111704,
  "timestamp": 1439994508,
  "nonce": "0x55186fc0de5549c2",
  "difficulty": 4463393891294,
  "gasLimit": {
    "_hex": "0x2fefd8"
  },
  "gasUsed": {
    "_hex": "0xa410"
  },
  "miner": "0xe6A7a1d47ff21B6321162AEA7C6CB457D5476Bca",
  "extraData": "0x476574682f76312e302e312d38326566323666362f6c696e75782f676f312e34",
  "transactions": [
    {
      "hash": "0x35d9077f4b8b59dffd49e0986cbafefe001171eb2cc82a22901cf7b128002700",
      "blockHash": "0x881509a510b8eea2c18b9dae30da3fb9531d17c1402cbd7172b2d9ab0dc37be4",
      "blockNumber": 111704,
      "transactionIndex": 0,
      "confirmations": null,
      "from": "0x61F642543d22bAf5382908a714E675Cc0b51ea45",
      "gasPrice": {
        "_hex": "0xd75a05d47"
      },
      "gasLimit": {
        "_hex": "0x5208"
      },
      "to": "0x32Be343B94f860124dC4fEe278FDCBD38C102D88",
      "value": {
        "_hex": "0x455f4c7cbae89400"
      },
      "nonce": 20,
      "data": "0x",
      "r": "0x1e3c11a4f72f79dca5a76d090180712a6f25dde9bbc30c8fbb13f92e911015d7",
      "s": "0x301dcec0c85cdfc6798a87836657dbe570f200561ae65f3039bccaa96e84ed40",
      "v": 27,
      "creates": null,
      "raw": "0xf86c14850d75a05d478252089432be343b94f860124dc4fee278fdcbd38c102d8888455f4c7cbae89400801ba01e3c11a4f72f79dca5a76d090180712a6f25dde9bbc30c8fbb13f92e911015d7a0301dcec0c85cdfc6798a87836657dbe570f200561ae65f3039bccaa96e84ed40",
      "networkId": 0,
      "chainId": 0
    },
    {
      "hash": "0x9a4de8c46bcf5fe285f6905de7ce1cc3203d1608b0ddcad3e653782514431942",
      "blockHash": "0x881509a510b8eea2c18b9dae30da3fb9531d17c1402cbd7172b2d9ab0dc37be4",
      "blockNumber": 111704,
      "transactionIndex": 1,
      "confirmations": null,
      "from": "0xE3A4CD0E7193d90A4e94EAb73d2a546a34130170",
      "gasPrice": {
        "_hex": "0xd75a05d47"
      },
      "gasLimit": {
        "_hex": "0x5208"
      },
      "to": "0x32Be343B94f860124dC4fEe278FDCBD38C102D88",
      "value": {
        "_hex": "0x1b4fea40f3e6ed000"
      },
      "nonce": 4,
      "data": "0x",
      "r": "0xd4583b2e4ac921729aea24f2f4fedab772e93c7e46ba0c6cf88a6ce1cf1c22a9",
      "s": "0x428abec6b3bec4e7155115c18ab052726aa56707f08db4bc848a18748c333503",
      "v": 27,
      "creates": null,
      "raw": "0xf86d04850d75a05d478252089432be343b94f860124dc4fee278fdcbd38c102d888901b4fea40f3e6ed000801ba0d4583b2e4ac921729aea24f2f4fedab772e93c7e46ba0c6cf88a6ce1cf1c22a9a0428abec6b3bec4e7155115c18ab052726aa56707f08db4bc848a18748c333503",
      "networkId": 0,
      "chainId": 0
    }
  ]
}