{
  "hash": "0xb4142a7fa78103936f4991ee3db5bbbc8c95e5091cc5f413087482f2f03efd41",
  "parentHash": "0x68313b4f64a827a8cc71359fcf41d934c9964fce1780f3d195a951f5045bc670",
  "number": 122134,
  "timestamp": 1440188698,
  "nonce": "0x7f4f7a9e7a53d776",
  "difficulty": 4475295289800,
  "gasLimit": {
    "_hex": "0x2fefd8"
  },
  "gasUsed": {
    "_hex": "0xf618"
  },
  "miner": "0xbb7B8287f3F0a933474a79eAe42CBCa977791171",
  "extraData": "0xd783010003844765746887676f312e342e32856c696e7578",
  "transactions": [
    {
      "hash": "0x8738a5aa0db08c2d2eb5aa21124fddc87338a1c5ed56c80a16573e07f6bc101c",
      "blockHash": "0xb4142a7fa78103936f4991ee3db5bbbc8c95e5091cc5f413087482f2f03efd41",
      "blockNumber": 122134,
      "transactionIndex": 0,
      "confirmations": null,
      "from": "0x2910543Af39abA0Cd09dBb2D50200b3E800A63D2",
      "gasPrice": {
        "_hex": "0xcbd9f4724"
      },
      "gasLimit": {
        "_hex": "0x5208"
      },
      "to": "0xee8bB0274117C9A1D3695E19bea188c382EC1A8E",
      "value": {
        "_hex": "0x2b5d1eb9d79a78000"
      },
      "nonce": 1218,
      "data": "0x",
      "r": "0x296c6098ec8c3ea3905fa6ffd648590d664a3e16a388757a085cd90ee13e07a4",
      "s": "0x24f150962cb4ecaf6f28af48869b4e0caccb90fad9417f0223741ed95bba5743",
      "v": 28,
      "creates": null,
      "raw": "0xf86f8204c2850cbd9f472482520894ee8bb0274117c9a1d3695e19bea188c382ec1a8e8902b5d1eb9d79a78000801ca0296c6098ec8c3ea3905fa6ffd648590d664a3e16a388757a085cd90ee13e07a4a024f150962cb4ecaf6f28af48869b4e0caccb90fad9417f0223741ed95bba5743",
      "networkId": 0,
      "chainId": 0
    },
    {
      "hash": "0xf407d34e867a512be7f2c5c49de2a96251c8f17ccb6043b336f0f008658adff8",
      "blockHash": "0xb4142a7fa78103936f4991ee3db5bbbc8c95e5091cc5f413087482f2f03efd41",
      "blockNumber": 122134,
      "transactionIndex": 1,
      "confirmations": null,
      "from": "0x3251cce70191B7c0625Addd94Af1e95C87A3D848",
      "gasPrice": {
        "_hex": "0xba43b7400"
      },
      "gasLimit": {
        "_hex": "0x7a120"
      },
      "to": "0xBBDa93a81B882774e1c9b5e3F933Fa35DaC8bc88",
      "value": {
        "_hex": "0xd18df9ff2c660000"
      },
      "nonce": 2,
      "data": "0x",
      "r": "0x8ad70b2b9a2e2f2ec5a908662d9207c3985626bf8bda83b06e00d6630f534271",
      "s": "0x47d0647037dd4388702095907b5545148e178b9b4be4b24825f4b37eef3754d2",
      "v": 27,
      "creates": null,
      "raw": "0xf86d02850ba43b74008307a12094bbda93a81b882774e1c9b5e3f933fa35dac8bc8888d18df9ff2c660000801ba08ad70b2b9a2e2f2ec5a908662d9207c3985626bf8bda83b06e00d6630f534271a047d0647037dd4388702095907b5545148e178b9b4be4b24825f4b37eef3754d2",
      "networkId": 0,
      "chainId": 0
    },
    {
      "hash": "0xaadedad9e76533a18f3d1a1efbf6593318cddf7db1292cea7123756da8e56bcb",
      "blockHash": "0xb4142a7fa78103936f4991ee3db5bbbc8c95e5091cc5f413087482f2f03efd41",
      "blockNumber": 122134,
      "transactionIndex": 2,
      "confirmations": null,
      "from": "0x5DE860D6869F1f5B252804d304547004Da5d69dF",
      "gasPrice": {
        "_hex": "0xba43b7400"
      },
      "gasLimit": {
        "_hex": "0x7a120"
      },
      "to": "0xBBDa93a81B882774e1c9b5e3F933Fa35DaC8bc88",
      "value": {
        "_hex": "0xd02ab486cedc0000"
      },
      "nonce": 3,
      "data": "0x",
      "r": "0xd92e65a0f3cd728838bfb9bab4336d5ab7c92282a37541d48089391056564461",
      "s": "0x6ddd2c82bd4806c677d53790f1083f94c0e72d5bde25f8a28f2171d9cd0c4872",
      "v": 28,
      "creates": null,
      "raw": "0xf86d03850ba43b74008307a12094bbda93a81b882774e1c9b5e3f933fa35dac8bc8888d02ab486cedc0000801ca0d92e65a0f3cd728838bfb9bab4336d5ab7c92282a37541d48089391056564461a06ddd2c82bd4806c677d53790f1083f94c0e72d5bde25f8a28f2171d9cd0c4872",
      "networkId": 0,
      "chainId": 0
    }
  ]
}