{
  "hash": "0xf666d269df9d5a1d1c89257ffde15ec962537ed552afeea2b81dc9644468995b",
  "parentHash": "0x1681f50724a3b2fafc495c94e651240169b0e1e79fa50f5ca4297ad5b6d9f859",
  "number": 110042,
  "timestamp": 1439967067,
  "nonce": "0x3d207c8d2dff8f60",
  "difficulty": 4395066067506,
  "gasLimit": {
    "_hex": "0x2fefd8"
  },
  "gasUsed": {
    "_hex": "0x5208"
  },
  "miner": "0x5F8F73E26CdF436f19Cb24C82F90A15AFe55b592",
  "extraData": "0x476574682f76312e302e312f77696e646f77732f676f312e342e32",
  "transactions": [
    {
      "hash": "0xc215c9325f760a7e913d3e748c9b5b27dc8b123976e0c99fa870c76b21bc7447",
      "blockHash": "0xf666d269df9d5a1d1c89257ffde15ec962537ed552afeea2b81dc9644468995b",
      "blockNumber": 110042,
      "transactionIndex": 0,
      "confirmations": null,
      "from": "0xC603Ab5ef41fC61AA8b76bEddb09e3Cfcbb174BD",
      "gasPrice": {
        "_hex": "0xde3f6881a"
      },
      "gasLimit": {
        "_hex": "0x15f90"
      },
      "to": "0x8F79f76381Aad7B98C19aF55eE75fdfEeb012211",
      "value": {
        "_hex": "0x19274b259f6540000"
      },
      "nonce": 42,
      "data": "0x",
      "r": "0x606003f510dcffe69c3dd70ccc96e4f0f9d784a6190acbfe3727014092aafc33",
      "s": "0x13908e20c97e4c35c8c6baa83676956a3d064fb28c467ea77eebd3c31ae3622d",
      "v": 28,
      "creates": null,
      "raw": "0xf86e2a850de3f6881a83015f90948f79f76381aad7b98c19af55ee75fdfeeb01221189019274b259f6540000801ca0606003f510dcffe69c3dd70ccc96e4f0f9d784a6190acbfe3727014092aafc33a013908e20c97e4c35c8c6baa83676956a3d064fb28c467ea77eebd3c31ae3622d",
      "networkId": 0,
      "chainId": 0
    }
  ]
}