{
  "hash": "0x8beaa43cf04ab40bf2dd0d933f24aa24c07a8aac98488080fcf874ea5b014d88",
  "parentHash": "0x3fbb678a2cd203e6edb8393e10bf216b6dec095f61c0813041736e1cd29c45f4",
  "number": 85001,
  "timestamp": 1439557179,
  "nonce": "0x1da1ccb2e6d38680",
  "difficulty": 2722455013471,
  "gasLimit": {
    "_hex": "0x2fefd8"
  },
  "gasUsed": {
    "_hex": "0x546c"
  },
  "miner": "0xe6A7a1d47ff21B6321162AEA7C6CB457D5476Bca",
  "extraData": "0x476574682f76312e302e312d38326566323666362f6c696e75782f676f312e34",
  "transactions": [
    {
      "hash": "0xf1ebe212d80333cb824667f9660fba92dc115b8d83dd9a562d349d87158b3979",
      "blockHash": "0x8beaa43cf04ab40bf2dd0d933f24aa24c07a8aac98488080fcf874ea5b014d88",
      "blockNumber": 85001,
      "transactionIndex": 0,
      "confirmations": null,
      "from": "0x2E0C57B47150f95aa6A7E16aB9b1CBf54328979A",
      "gasPrice": {
        "_hex": "0x110c8f7d8de"
      },
      "gasLimit": {
        "_hex": "0xc350"
      },
      "to": "0x2910543Af39abA0Cd09dBb2D50200b3E800A63D2",
      "value": {
        "_hex": "0xde0b6b3a7640000"
      },
      "nonce": 0,
      "data": "0x454e434e4448364e52",
      "r": "0x0c78ea2523651b2643213fe59c899e32d0b1bacc34f9f1850ea3dceece0d2565",
      "s": "0xbf6823545d87b2ddc2624ba11395702a151352c90a0b8f3ed5490ef6097c9feb",
      "v": 28,
      "creates": null,
      "raw": "0xf87680860110c8f7d8de82c350942910543af39aba0cd09dbb2d50200b3e800a63d2880de0b6b3a764000089454e434e4448364e521ca00c78ea2523651b2643213fe59c899e32d0b1bacc34f9f1850ea3dceece0d2565a0bf6823545d87b2ddc2624ba11395702a151352c90a0b8f3ed5490ef6097c9feb",
      "networkId": 0,
      "chainId": 0
    }
  ]
}