{
  "hash": "0x5fdc12c9b2cf18b1fc2e3e5b34dcb83f4f88a82a8595f957a16fd0a9065b2d42",
  "parentHash": "0x30ed7a66c29faea31530965b8899fae6aabe3b60b68bafcd0db29c13700b2043",
  "number": 46397,
  "timestamp": 1438922403,
  "nonce": "0x177a170d6e9675b0",
  "difficulty": 1468241822801,
  "gasLimit": {
    "_hex": "0x5f10"
  },
  "gasUsed": {
    "_hex": "0x5208"
  },
  "miner": "0xab84940B570d6358ed6A9Dbf7e0bc8Ec8F5A6E89",
  "extraData": "0x322831652933",
  "transactions": [
    {
      "hash": "0x2ecb8ac61545dfc8e191ee9f3dde23b336c8b68e10c69eb2c5b29a813b425aaa",
      "blockHash": "0x5fdc12c9b2cf18b1fc2e3e5b34dcb83f4f88a82a8595f957a16fd0a9065b2d42",
      "blockNumber": 46397,
      "transactionIndex": 0,
      "confirmations": null,
      "from": "0x4F4a9Be10CD5D3FB5De48C17bE296f895690645b",
      "gasPrice": {
        "_hex": "0x8bb2c97000"
      },
      "gasLimit": {
        "_hex": "0x5208"
      },
      "to": "0x365B685282c9b242Ec345fB64731ecfC4fcb834C",
      "value": {
        "_hex": "0x21e19e0c9bab2400000"
      },
      "nonce": 1,
      "data": "0x",
      "r": "0xeacba0d5827339b645da677caf39aeb423aff2b471e8790e0d51b7cf50ebb39d",
      "s": "0x2a16f75b0e1ae6b5d26b0407402845fe5addf11e81ad16ecd99f94e5d687fb45",
      "v": 27,
      "creates": null,
      "raw": "0xf86e01858bb2c9700082520894365b685282c9b242ec345fb64731ecfc4fcb834c8a021e19e0c9bab2400000801ba0eacba0d5827339b645da677caf39aeb423aff2b471e8790e0d51b7cf50ebb39da02a16f75b0e1ae6b5d26b0407402845fe5addf11e81ad16ecd99f94e5d687fb45",
      "networkId": 0,
      "chainId": 0
    }
  ]
}