{
  "hash": "0x6803181e578271e12f67d58bd992d5433fdaeb9c3744c9626d4cf7f0d6d684dd",
  "parentHash": "0xb14315169adb72c2e59bffcb2f3fb1f14f414d51106d71c3d3b9a51ef98e7146",
  "number": 80543,
  "timestamp": 1439487029,
  "nonce": "0x3832a145ad8f3659",
  "difficulty": 2422688750958,
  "gasLimit": {
    "_hex": "0x2fefd8"
  },
  "gasUsed": {
    "_hex": "0x546c"
  },
  "miner": "0xBD744E3F13D79B33F6c8E1d5E32F8E9BA2866c46",
  "extraData": "0x476574682f76312e302e312d39613032663533372f6c696e75782f676f312e34",
  "transactions": [
    {
      "hash": "0xd012328e1ee7e2c1df5dd972edb7c487c7757287da1b70fd2689afd4604437c5",
      "blockHash": "0x6803181e578271e12f67d58bd992d5433fdaeb9c3744c9626d4cf7f0d6d684dd",
      "blockNumber": 80543,
      "transactionIndex": 0,
      "confirmations": null,
      "from": "0x157c6f2431eB1a95797EE86F7d17b3c0FD47A247",
      "gasPrice": {
        "_hex": "0xd38b1fa3b"
      },
      "gasLimit": {
        "_hex": "0x15f90"
      },
      "to": "0xc0b9d23f8d37650D0141B559dbD33d94Ea004e07",
      "value": {
        "_hex": "0x70c1cc73b00c80000"
      },
      "nonce": 7,
      "data": "0x454e433933464b3330",
      "r": "0x563f63bd6b9dae8fd38eecf2e0ab8d097cd1be5c25cf00d15e17043d01c3b6c7",
      "s": "0x084343aa48add05e662f4a7b08e0f27577460ab9ec8d0782446a25c2650bc03d",
      "v": 28,
      "creates": null,
      "raw": "0xf87707850d38b1fa3b83015f9094c0b9d23f8d37650d0141b559dbd33d94ea004e0789070c1cc73b00c8000089454e433933464b33301ca0563f63bd6b9dae8fd38eecf2e0ab8d097cd1be5c25cf00d15e17043d01c3b6c7a0084343aa48add05e662f4a7b08e0f27577460ab9ec8d0782446a25c2650bc03d",
      "networkId": 0,
      "chainId": 0
    }
  ]
}