{
  "hash": "0x56e973c99c2c00652dacccc67d43aac29364f6d4c5c9a0b49e39387b762a0eb5",
  "parentHash": "0x162e048eed27ae2a14ae9a7de7727cf158928ffa12225ed1dab3ee0f08ee52ab",
  "number": 96921,
  "timestamp": 1439748167,
  "nonce": "0x55bff7f8aa4408b1",
  "difficulty": 3726773288928,
  "gasLimit": {
    "_hex": "0x2fefd8"
  },
  "gasUsed": {
    "_hex": "0x5208"
  },
  "miner": "0x8691d8cf238dDE3646d825562F8341c4fC425923",
  "extraData": "0x476574682f76312e302e312d38326566323666362f6c696e75782f676f312e34",
  "transactions": [
    {
      "hash": "0x40d49d0f685b43052d8472564b69b94d8b0913e66b53da5b9189cf70b07dd20e",
      "blockHash": "0x56e973c99c2c00652dacccc67d43aac29364f6d4c5c9a0b49e39387b762a0eb5",
      "blockNumber": 96921,
      "transactionIndex": 0,
      "confirmations": null,
      "from": "0x57CBBf42D9f1E7AFDd8911FE0e76878185B5Cb1D",
      "gasPrice": {
        "_hex": "0xcdc8189d1"
      },
      "gasLimit": {
        "_hex": "0x30d40"
      },
      "to": "0x120A270bbC009644e35F0bB6ab13f95b8199c4ad",
      "value": {
        "_hex": "0xdb976c5558eeec0"
      },
      "nonce": 0,
      "data": "0x",
      "r": "0x75d8cdcd7c2dca90d6a0a0b682d52a213f3b84f0b8b57978de0241247179f2d7",
      "s": "0x5ff1ad51f40a94afc57a5cfa95c8307de639cfb348edf1b773a3a2e615bec5a7",
      "v": 28,
      "creates": null,
      "raw": "0xf86d80850cdc8189d183030d4094120a270bbc009644e35f0bb6ab13f95b8199c4ad880db976c5558eeec0801ca075d8cdcd7c2dca90d6a0a0b682d52a213f3b84f0b8b57978de0241247179f2d7a05ff1ad51f40a94afc57a5cfa95c8307de639cfb348edf1b773a3a2e615bec5a7",
      "networkId": 0,
      "chainId": 0
    }
  ]
}