{
  "hash": "0x9238b09497add1dbb231e86ec0b11fcb9af8e13e7d27b691452daa9ab8c60fd8",
  "parentHash": "0x91333a0a56f67019135b2fe45e9004c789aa89eb959073d55bd94122ea1850d9",
  "number": 48696,
  "timestamp": 1438961373,
  "nonce": "0xe3494c19fd343db3",
  "difficulty": 1471427459205,
  "gasLimit": {
    "_hex": "0x1c35b"
  },
  "gasUsed": {
    "_hex": "0xfd44"
  },
  "miner": "0x1B7047b4338ACf65bE94C1A3e8c5c9338ad7d67C",
  "extraData": "0x476574682f76312e302e312d38326566323666362f6c696e75782f676f312e34",
  "transactions": [
    {
      "hash": "0xff14ca7fdd3e36ccf7274e27c217b9945d80489e58f6eecd0ecae8e601b1a32a",
      "blockHash": "0x9238b09497add1dbb231e86ec0b11fcb9af8e13e7d27b691452daa9ab8c60fd8",
      "blockNumber": 48696,
      "transactionIndex": 0,
      "confirmations": null,
      "from": "0x709fe9d2C1f1ce42207c9585044A60899F35942f",
      "gasPrice": {
        "_hex": "0x110c8f7d8de"
      },
      "gasLimit": {
        "_hex": "0xc350"
      },
      "to": "0x2910543Af39abA0Cd09dBb2D50200b3E800A63D2",
      "value": {
        "_hex": "0x6f05b59d3b20000"
      },
      "nonce": 2,
      "data": "0x454e43304244483138",
      "r": "0xe0fc90b2636d5d7e790d8541552486bd542ebeb6c3c2a321f895bd61addcd287",
      "s": "0xfaca3fe5359064eaac5759d6fe7b362156d63cf1634dd11e5f010ed3230452c5",
      "v": 27,
      "creates": null,
      "raw": "0xf87602860110c8f7d8de82c350942910543af39aba0cd09dbb2d50200b3e800a63d28806f05b59d3b2000089454e433042444831381ba0e0fc90b2636d5d7e790d8541552486bd542ebeb6c3c2a321f895bd61addcd287a0faca3fe5359064eaac5759d6fe7b362156d63cf1634dd11e5f010ed3230452c5",
      "networkId": 0,
      "chainId": 0
    },
    {
      "hash": "0x690350eb2a589ad63919568641fcd3ea66cd93157ecb1d01f6a9e92e34808fb4",
      "blockHash": "0x9238b09497add1dbb231e86ec0b11fcb9af8e13e7d27b691452daa9ab8c60fd8",
      "blockNumber": 48696,
      "transactionIndex": 1,
      "confirmations": null,
      "from": "0xe80E7fEF18a5db15B01473F3ad6B78B2a2F8ACd9",
      "gasPrice": {
        "_hex": "0x10c356ba62b"
      },
      "gasLimit": {
        "_hex": "0x15f90"
      },
      "to": "0x2910543Af39abA0Cd09dBb2D50200b3E800A63D2",
      "value": {
        "_hex": "0x6f05b59d3b20000"
      },
      "nonce": 3,
      "data": "0x454e514a33374b5052",
      "r": "0x85fec9f5f3cca241b6b59f642044a3853079f539057756814695578557c4c17f",
      "s": "0x35fe39442361f85247e36c34d689ba403a5963bb29c40b03e051b2be4fda688f",
      "v": 28,
      "creates": null,
      "raw": "0xf8770386010c356ba62b83015f90942910543af39aba0cd09dbb2d50200b3e800a63d28806f05b59d3b2000089454e514a33374b50521ca085fec9f5f3cca241b6b59f642044a3853079f539057756814695578557c4c17fa035fe39442361f85247e36c34d689ba403a5963bb29c40b03e051b2be4fda688f",
      "networkId": 0,
      "chainId": 0
    },
    {
      "hash": "0xa20c999b2cd070f7c991fa25ea7306b690fbf1aa0e128e8ac37a7f36daf3d57d",
      "blockHash": "0x9238b09497add1dbb231e86ec0b11fcb9af8e13e7d27b691452daa9ab8c60fd8",
      "blockNumber": 48696,
      "transactionIndex": 2,
      "confirmations": null,
      "from": "0x8846928d683289a2d11Df8Db7a9474988ef01348",
      "gasPrice": {
        "_hex": "0xdaf85bae4"
      },
      "gasLimit": {
        "_hex": "0x55f0"
      },
      "to": "0x2910543Af39abA0Cd09dBb2D50200b3E800A63D2",
      "value": {
        "_hex": "0x21dfe1f5c5363780000"
      },
      "nonce": 1,
      "data": "0x454e3756465a343052",
      "r": "0x2de0260276fb55ddbf79b003279ab64114ad1776e54c4c5307ecd30a8c969f85",
      "s": "0x118e52202397dd57ee2080059c14e0e60c42e272b19e0489ea04beeb9bf4de56",
      "v": 27,
      "creates": null,
      "raw": "0xf87701850daf85bae48255f0942910543af39aba0cd09dbb2d50200b3e800a63d28a021dfe1f5c536378000089454e3756465a3430521ba02de0260276fb55ddbf79b003279ab64114ad1776e54c4c5307ecd30a8c969f85a0118e52202397dd57ee2080059c14e0e60c42e272b19e0489ea04beeb9bf4de56",
      "networkId": 0,
      "chainId": 0
    }
  ]
}