{
  "hash": "0xab8722ea5c73200425c86ee845368c2ed48310ecd4624062f38f9ab93f6f21d3",
  "parentHash": "0x65a87242bf6dcaa1e546ebf0fe7e7e414498b758635d88cf159b854cd354bbeb",
  "number": 107263,
  "timestamp": 1439919291,
  "nonce": "0x6f99eb33d8346c15",
  "difficulty": 4428841623980,
  "gasLimit": {
    "_hex": "0x2fefd8"
  },
  "gasUsed": {
    "_hex": "0x5208"
  },
  "miner": "0xe6A7a1d47ff21B6321162AEA7C6CB457D5476Bca",
  "extraData": "0x476574682f76312e302e312d38326566323666362f6c696e75782f676f312e34",
  "transactions": [
    {
      "hash": "0x41fb064a740a84cdd9716c3c9b00c982c233f18d7018d47b2447a8ebf5cfb332",
      "blockHash": "0xab8722ea5c73200425c86ee845368c2ed48310ecd4624062f38f9ab93f6f21d3",
      "blockNumber": 107263,
      "transactionIndex": 0,
      "confirmations": null,
      "from": "0x744Df4ED8BaC8eBCa76964a93358c3A67a89b003",
      "gasPrice": {
        "_hex": "0xba43b7400"
      },
      "gasLimit": {
        "_hex": "0x5265"
      },
      "to": "0x08FE5A3C0709cF74d76cFd0e0Cd9d2A447eA263C",
      "value": {
        "_hex": "0x104e70464b1580000"
      },
      "nonce": 4,
      "data": "0x",
      "r": "0x8453bfbefb5ddead6a4a1b5f36c1b4b671ae8696ef787229b44bc5578d7227ea",
      "s": "0x1564b2fbdd4ff56bb47811065c313d050c6e9a71739646118ea5348144c7e25a",
      "v": 28,
      "creates": null,
      "raw": "0xf86d04850ba43b74008252659408fe5a3c0709cf74d76cfd0e0cd9d2a447ea263c890104e70464b1580000801ca08453bfbefb5ddead6a4a1b5f36c1b4b671ae8696ef787229b44bc5578d7227eaa01564b2fbdd4ff56bb47811065c313d050c6e9a71739646118ea5348144c7e25a",
      "networkId": 0,
      "chainId": 0
    }
  ]
}