{
  "hash": "0x73e1d47b04a8d8158a96883b08bf2bd985198b79f7ac7d56dd6e28f84d270b7a",
  "parentHash": "0x38e4d1bc07fd8453ed61cfbf29c0f9dce4e55da0397c3203f58c121d4370bd8f",
  "number": 48912,
  "timestamp": 1438964999,
  "nonce": "0xc37afc7644067fe0",
  "difficulty": 1478591660466,
  "gasLimit": {
    "_hex": "0x20f29"
  },
  "gasUsed": {
    "_hex": "0x5208"
  },
  "miner": "0x5B3e850E39e6f2C7dD38707b649e2B3536F14C0b",
  "extraData": "0x476574682f76312e302e312f64617277696e2f676f312e342e32",
  "transactions": [
    {
      "hash": "0x1978f1a0e2b95a66821c00c63160136b3249b1cb929643f22b6ac14cfdb07679",
      "blockHash": "0x73e1d47b04a8d8158a96883b08bf2bd985198b79f7ac7d56dd6e28f84d270b7a",
      "blockNumber": 48912,
      "transactionIndex": 0,
      "confirmations": null,
      "from": "0x0B12c5618eB8bfc23b8893780f1100D1B668639A",
      "gasPrice": {
        "_hex": "0xba43b7400"
      },
      "gasLimit": {
        "_hex": "0x5208"
      },
      "to": "0xd28620AE1F1f6f863C67fF449dF11AD0aE2FEC25",
      "value": {
        "_hex": "0xa2a15d09519be00000"
      },
      "nonce": 4,
      "data": "0x",
      "r": "0x872dc90df758c1a2409f00932546c70404f8ae5aeb3927b6eed0a86db440b152",
      "s": "0x7a8c88b2ebc36c9cc542429ed3762a156504374f7b1606712ad8399687e011bb",
      "v": 27,
      "creates": null,
      "raw": "0xf86d04850ba43b740082520894d28620ae1f1f6f863c67ff449df11ad0ae2fec2589a2a15d09519be00000801ba0872dc90df758c1a2409f00932546c70404f8ae5aeb3927b6eed0a86db440b152a07a8c88b2ebc36c9cc542429ed3762a156504374f7b1606712ad8399687e011bb",
      "networkId": 0,
      "chainId": 0
    }
  ]
}