{
  "hash": "0xd651340036278eaa9c1b11dd3f26a7810c2af556d67d38f58a064121d7343f18",
  "parentHash": "0x29a3f0c3a5a7b82ec82b6f64c99ee01377b218c4c97d6e9bc21ac6e204b7e7ae",
  "number": 105743,
  "timestamp": 1439892787,
  "nonce": "0x403f0a7af857c3b9",
  "difficulty": 4403765137617,
  "gasLimit": {
    "_hex": "0x2fefd8"
  },
  "gasUsed": {
    "_hex": "0xa410"
  },
  "miner": "0xcf00A85f3826941e7A25BFcF9Aac575d40410852",
  "extraData": "0x476574682f76312e302e312f77696e646f77732f676f312e342e32",
  "transactions": [
    {
      "hash": "0x1c4cc70e4aaef61874b80d6f7d9a29dc1321076e4122a0da265573d84e8ef61d",
      "blockHash": "0xd651340036278eaa9c1b11dd3f26a7810c2af556d67d38f58a064121d7343f18",
      "blockNumber": 105743,
      "transactionIndex": 0,
      "confirmations": null,
      "from": "0xB17d2bFef3ED5F2EaA806Fe930878F6eBfD31CCf",
      "gasPrice": {
        "_hex": "0xd00373616"
      },
      "gasLimit": {
        "_hex": "0x15f90"
      },
      "to": "0x5BB33B0e16f8a05C5124c33418922C5b1Be8F810",
      "value": {
        "_hex": "0x9c2007651b250000"
      },
      "nonce": 3,
      "data": "0x",
      "r": "0x87e547ae627a5ec77ea2c2fcc08d4e7ba40a612e16fb99741bd378ea7198641d",
      "s": "0x22502e65e89797092dbca1795f10b5790fa28887fc79f9359a17b3bfe780e495",
      "v": 27,
      "creates": null,
      "raw": "0xf86d03850d0037361683015f90945bb33b0e16f8a05c5124c33418922c5b1be8f810889c2007651b250000801ba087e547ae627a5ec77ea2c2fcc08d4e7ba40a612e16fb99741bd378ea7198641da022502e65e89797092dbca1795f10b5790fa28887fc79f9359a17b3bfe780e495",
      "networkId": 0,
      "chainId": 0
    },
    {
      "hash": "0xca97b665f2764d00d128b5be8ecb49c78c95c5e2913ab26e570cea5d7f89a4a1",
      "blockHash": "0xd651340036278eaa9c1b11dd3f26a7810c2af556d67d38f58a064121d7343f18",
      "blockNumber": 105743,
      "transactionIndex": 1,
      "confirmations": null,
      "from": "0x04a2a3ee9C9ea82e1F918ecE209f8A7E6d7521E7",
      "gasPrice": {
        "_hex": "0xce2d3ddbb"
      },
      "gasLimit": {
        "_hex": "0x5208"
      },
      "to": "0x32Be343B94f860124dC4fEe278FDCBD38C102D88",
      "value": {
        "_hex": "0x24dca33c3dfb62000"
      },
      "nonce": 15,
      "data": "0x",
      "r": "0x986e07625cc8ffc7dffb7774f47dddefe53ba020849f68ccb6b8fc0963f30067",
      "s": "0x1da4bcc8575c69ffff92f650f41f983a49479e2588691a92dae8b100d4b456d7",
      "v": 27,
      "creates": null,
      "raw": "0xf86d0f850ce2d3ddbb8252089432be343b94f860124dc4fee278fdcbd38c102d8889024dca33c3dfb62000801ba0986e07625cc8ffc7dffb7774f47dddefe53ba020849f68ccb6b8fc0963f30067a01da4bcc8575c69ffff92f650f41f983a49479e2588691a92dae8b100d4b456d7",
      "networkId": 0,
      "chainId": 0
    }
  ]
}