{
  "hash": "0x093e01aeeec56fee17c41a707653abafc5dcf7209bc390359bcd3e36158f88b0",
  "parentHash": "0x1a869438ca0207b40d1ab9bf5a9463570148408c440c65b170eaa24d32ff7035",
  "number": 109500,
  "timestamp": 1439957588,
  "nonce": "0x8f2e30accc9cf56f",
  "difficulty": 4455855397791,
  "gasLimit": {
    "_hex": "0x2fefd8"
  },
  "gasUsed": {
    "_hex": "0xa410"
  },
  "miner": "0xe6A7a1d47ff21B6321162AEA7C6CB457D5476Bca",
  "extraData": "0x476574682f76312e302e312d38326566323666362f6c696e75782f676f312e34",
  "transactions": [
    {
      "hash": "0xc70650c94a6c6ac4148e82a1cdfa2bbf39124c74962e22187c7f9dc7106fab99",
      "blockHash": "0x093e01aeeec56fee17c41a707653abafc5dcf7209bc390359bcd3e36158f88b0",
      "blockNumber": 109500,
      "transactionIndex": 0,
      "confirmations": null,
      "from": "0x336d20e2139665Aed8C697772bD5B2F9593369b6",
      "gasPrice": {
        "_hex": "0xd7e2266e1"
      },
      "gasLimit": {
        "_hex": "0x15f90"
      },
      "to": "0x48f234d099Af5B0c6e5Fcf1F70E1Be9b8b7Cd31f",
      "value": {
        "_hex": "0x8ac7230489e80000"
      },
      "nonce": 0,
      "data": "0x",
      "r": "0x4a8110c87dabaf176e8b45849edd2603de4f8e41d4ddf86bea8ce57fe7df851b",
      "s": "0x50151ed23457632cb9847ba835b500f6bb60c6811da2eacf37dd2852bbf829e0",
      "v": 27,
      "creates": null,
      "raw": "0xf86d80850d7e2266e183015f909448f234d099af5b0c6e5fcf1f70e1be9b8b7cd31f888ac7230489e80000801ba04a8110c87dabaf176e8b45849edd2603de4f8e41d4ddf86bea8ce57fe7df851ba050151ed23457632cb9847ba835b500f6bb60c6811da2eacf37dd2852bbf829e0",
      "networkId": 0,
      "chainId": 0
    },
    {
      "hash": "0xd032b5953450cc72133e0a6d544d74637c0f915de69f508d07379485a3459dd1",
      "blockHash": "0x093e01aeeec56fee17c41a707653abafc5dcf7209bc390359bcd3e36158f88b0",
      "blockNumber": 109500,
      "transactionIndex": 1,
      "confirmations": null,
      "from": "0x04ECA501630Abce35218b174956b891bA25EFb23",
      "gasPrice": {
        "_hex": "0xba43b7400"
      },
      "gasLimit": {
        "_hex": "0x15f90"
      },
      "to": "0x130a8edaca52de86eacA4A0f007256221BA7F063",
      "value": {
        "_hex": "0x8ac7230489e80000"
      },
      "nonce": 0,
      "data": "0x",
      "r": "0xce4d3affed6b3b6b1601ba248e6221e223f36d8404b6c0ec57fe0238e4a2dd13",
      "s": "0x54272c3bd63103165127688719bb5fdd7cfb2053b4fd6ec8502619b725e8946b",
      "v": 27,
      "creates": null,
      "raw": "0xf86d80850ba43b740083015f9094130a8edaca52de86eaca4a0f007256221ba7f063888ac7230489e80000801ba0ce4d3affed6b3b6b1601ba248e6221e223f36d8404b6c0ec57fe0238e4a2dd13a054272c3bd63103165127688719bb5fdd7cfb2053b4fd6ec8502619b725e8946b",
      "networkId": 0,
      "chainId": 0
    }
  ]
}