{
  "hash": "0xf5a1713c95a01f4a98f7d480c99119e2750667f4aee4308b5a7a3743adc43fc7",
  "parentHash": "0x5f738162d03779f9b156fb019214f7d5323f9ee8eb1af811952c20da742ec88e",
  "number": 121321,
  "timestamp": 1440175224,
  "nonce": "0xb9be40683db8fccc",
  "difficulty": 4412798619993,
  "gasLimit": {
    "_hex": "0x2fefd8"
  },
  "gasUsed": {
    "_hex": "0x5208"
  },
  "miner": "0xD0ee3F53eE0fCf3F9fbCcdd17BD1b6441DdC2074",
  "extraData": "0x",
  "transactions": [
    {
      "hash": "0xbc9976ea9c2167632336525ad919e3684de651af713a9ea8a932677fc2beb820",
      "blockHash": "0xf5a1713c95a01f4a98f7d480c99119e2750667f4aee4308b5a7a3743adc43fc7",
      "blockNumber": 121321,
      "transactionIndex": 0,
      "confirmations": null,
      "from": "0xFAe95941f26f565646Cc5bF443AfFDe60868f17e",
      "gasPrice": {
        "_hex": "0xba43b7400"
      },
      "gasLimit": {
        "_hex": "0x5208"
      },
      "to": "0xFBb1b73C4f0BDa4f67dcA266ce6Ef42f520fBB98",
      "value": {
        "_hex": "0x1b1ae11beac24c6000"
      },
      "nonce": 5,
      "data": "0x",
      "r": "0xadbf2847925423b245eaa723612270be55ce5497b3c88ca79d95402905c19a8d",
      "s": "0x3f47437b1e4d29b16a22b49c799cb59f7a195889ec018c305642f92e5ed532cc",
      "v": 28,
      "creates": null,
      "raw": "0xf86d05850ba43b740082520894fbb1b73c4f0bda4f67dca266ce6ef42f520fbb98891b1ae11beac24c6000801ca0adbf2847925423b245eaa723612270be55ce5497b3c88ca79d95402905c19a8da03f47437b1e4d29b16a22b49c799cb59f7a195889ec018c305642f92e5ed532cc",
      "networkId": 0,
      "chainId": 0
    }
  ]
}