{
  "hash": "0xa3337ce03ca3e4a3e1b4ee51b2f8b1deb5854410b2593a771f4ba31648c0eec1",
  "parentHash": "0xb8aa8b953849dd4f04e32d48d4a581db30d30935f870b9ff876405da4e903d80",
  "number": 111113,
  "timestamp": 1439984861,
  "nonce": "0x3d53305cf5d04aff",
  "difficulty": 4400946952072,
  "gasLimit": {
    "_hex": "0x2fefd8"
  },
  "gasUsed": {
    "_hex": "0x5208"
  },
  "miner": "0xe6A7a1d47ff21B6321162AEA7C6CB457D5476Bca",
  "extraData": "0x476574682f76312e302e312d38326566323666362f6c696e75782f676f312e34",
  "transactions": [
    {
      "hash": "0x390bcfe2b7f0b179e48db2cbe4e62a1e03ccdb50f1dbc8333df6064e06e9fb61",
      "blockHash": "0xa3337ce03ca3e4a3e1b4ee51b2f8b1deb5854410b2593a771f4ba31648c0eec1",
      "blockNumber": 111113,
      "transactionIndex": 0,
      "confirmations": null,
      "from": "0x87705F99aA408D9a66BcF8C8072C561d5d752CDE",
      "gasPrice": {
        "_hex": "0xda7ceedef"
      },
      "gasLimit": {
        "_hex": "0x15f90"
      },
      "to": "0x1177848589133f5C4E69EdFcb18bBCd9cACE72D1",
      "value": {
        "_hex": "0x470de4df820000"
      },
      "nonce": 0,
      "data": "0x",
      "r": "0x08726bc1022397b8daeb327d0b1a7aa2384ae12f8afb7c358654b6f3ef806d1b",
      "s": "0x418f10ad48f9692ec4a21df3fa6782458d3c6e8f04765c3929f6b0cfaf9886f9",
      "v": 28,
      "creates": null,
      "raw": "0xf86c80850da7ceedef83015f90941177848589133f5c4e69edfcb18bbcd9cace72d187470de4df820000801ca008726bc1022397b8daeb327d0b1a7aa2384ae12f8afb7c358654b6f3ef806d1ba0418f10ad48f9692ec4a21df3fa6782458d3c6e8f04765c3929f6b0cfaf9886f9",
      "networkId": 0,
      "chainId": 0
    }
  ]
}