{
  "hash": "0x7a2c14fdbc8fb1fa40c2949335ebb2aeeba6a9de85aa91b79c17039ff799dfbf",
  "parentHash": "0x0bb68e22267cd7f9c3528e963168d360d97f619ae2d8df72e969ad95eefd1c5c",
  "number": 74292,
  "timestamp": 1439383804,
  "nonce": "0xd31523b8e55fa4c0",
  "difficulty": 2206449949375,
  "gasLimit": {
    "_hex": "0x2fefd8"
  },
  "gasUsed": {
    "_hex": "0xf618"
  },
  "miner": "0x4CF67c265Bb0E51CF92A0b3E37becCFd721a1506",
  "extraData": "0x476574682f76312e302e312d38326566323666362f6c696e75782f676f312e34",
  "transactions": [
    {
      "hash": "0x671f2dd716b54ba03536a1b4539f7d15b899674988ad08057fe2628a7e02f75d",
      "blockHash": "0x7a2c14fdbc8fb1fa40c2949335ebb2aeeba6a9de85aa91b79c17039ff799dfbf",
      "blockNumber": 74292,
      "transactionIndex": 0,
      "confirmations": null,
      "from": "0xa6BDc31c431B8F97848c9D60cbbe9660dc450eB7",
      "gasPrice": {
        "_hex": "0xd649d93bc"
      },
      "gasLimit": {
        "_hex": "0x5208"
      },
      "to": "0x32Be343B94f860124dC4fEe278FDCBD38C102D88",
      "value": {
        "_hex": "0x29a2c5d3e355e4000"
      },
      "nonce": 1,
      "data": "0x",
      "r": "0xee26e90239bc5debbc682a371abe2fc87491db977df03172db2d428567e79332",
      "s": "0x1a7096652d3e650504dfbd7b364ce3e1e87796df5f8dbd21f74d2fe5271ed5a0",
      "v": 28,
      "creates": null,
      "raw": "0xf86d01850d649d93bc8252089432be343b94f860124dc4fee278fdcbd38c102d8889029a2c5d3e355e4000801ca0ee26e90239bc5debbc682a371abe2fc87491db977df03172db2d428567e79332a01a7096652d3e650504dfbd7b364ce3e1e87796df5f8dbd21f74d2fe5271ed5a0",
      "networkId": 0,
      "chainId": 0
    },
    {
      "hash": "0xf3683f5b9ed4dab6e7a6eb97bff677867ef2720bee202d54373ceb51ff28a60b",
      "blockHash": "0x7a2c14fdbc8fb1fa40c2949335ebb2aeeba6a9de85aa91b79c17039ff799dfbf",
      "blockNumber": 74292,
      "transactionIndex": 1,
      "confirmations": null,
      "from": "0x047fF53dFE1F7BD2c3Ed2D1f777F35D1f64e9ffE",
      "gasPrice": {
        "_hex": "0xd649d93bc"
      },
      "gasLimit": {
        "_hex": "0x5208"
      },
      "to": "0x32Be343B94f860124dC4fEe278FDCBD38C102D88",
      "value": {
        "_hex": "0x454ac9c9b1ab00000"
      },
      "nonce": 1,
      "data": "0x",
      "r": "0xc8cd2e8e6931662e0b6b8aae8ce7c8e6294df952835ef3456c672b7945d26c59",
      "s": "0x646043092cba5d099a8ef238c03508a61996951ca7fd2cc4c54969d5bf62a687",
      "v": 28,
      "creates": null,
      "raw": "0xf86d01850d649d93bc8252089432be343b94f860124dc4fee278fdcbd38c102d88890454ac9c9b1ab00000801ca0c8cd2e8e6931662e0b6b8aae8ce7c8e6294df952835ef3456c672b7945d26c59a0646043092cba5d099a8ef238c03508a61996951ca7fd2cc4c54969d5bf62a687",
      "networkId": 0,
      "chainId": 0
    },
    {
      "hash": "0xaec036bb3b8c9849b221aa111b1355dd89f076ad62e9f7231225df578804fbf3",
      "blockHash": "0x7a2c14fdbc8fb1fa40c2949335ebb2aeeba6a9de85aa91b79c17039ff799dfbf",
      "blockNumber": 74292,
      "transactionIndex": 2,
      "confirmations": null,
      "from": "0x701aE497d3522329870Ada714AA902424EA8Da01",
      "gasPrice": {
        "_hex": "0xd649d93bc"
      },
      "gasLimit": {
        "_hex": "0x5208"
      },
      "to": "0x32Be343B94f860124dC4fEe278FDCBD38C102D88",
      "value": {
        "_hex": "0x24eb15c851a7be000"
      },
      "nonce": 1,
      "data": "0x",
      "r": "0xcabf9490c6a5c063af3b5cc9c57c0cd365bc962f7d2a7e554e6073f37da35863",
      "s": "0x6544caddcb9de0619b3d8aa3b8f6c0d910bd7a6be0b2b83c8801d37041cde9a8",
      "v": 28,
      "creates": null,
      "raw": "0xf86d01850d649d93bc8252089432be343b94f860124dc4fee278fdcbd38c102d8889024eb15c851a7be000801ca0cabf9490c6a5c063af3b5cc9c57c0cd365bc962f7d2a7e554e6073f37da35863a06544caddcb9de0619b3d8aa3b8f6c0d910bd7a6be0b2b83c8801d37041cde9a8",
      "networkId": 0,
      "chainId": 0
    }
  ]
}