{
  "hash": "0xf44e9b2505fa0fd8eeecd71f0c9e11bd043a3d21488e2a9c6b5c85dc4870b0ce",
  "parentHash": "0x30d857b15f3737c04ae288168a63c877acd39e4005b36c373a06c4b211659400",
  "number": 112409,
  "timestamp": 1440007020,
  "nonce": "0x016d6724eb1dd8e0",
  "difficulty": 4408869749798,
  "gasLimit": {
    "_hex": "0x2fefd8"
  },
  "gasUsed": {
    "_hex": "0x5208"
  },
  "miner": "0xEF247E639d49461D25F57e9362CadE3120910Ce0",
  "extraData": "0x476574682f76312e302e312f6c696e75782f676f312e342e32",
  "transactions": [
    {
      "hash": "0xe5687a0d8f758bc386f6d9a4c405b396ea7339788527ee83267c6fb0dae5e03d",
      "blockHash": "0xf44e9b2505fa0fd8eeecd71f0c9e11bd043a3d21488e2a9c6b5c85dc4870b0ce",
      "blockNumber": 112409,
      "transactionIndex": 0,
      "confirmations": null,
      "from": "0x8b4FAE80aC2491bb2FabF0364F6C705565dA5118",
      "gasPrice": {
        "_hex": "0xba43b7400"
      },
      "gasLimit": {
        "_hex": "0x5267"
      },
      "to": "0x512f996df7C0e8256e822bA00C580871DfE20E16",
      "value": {
        "_hex": "0x52663ccab1e1c0000"
      },
      "nonce": 1,
      "data": "0x",
      "r": "0x8c53d70796410a7cfe6f81d8499ef2a4e908bba7fca2f9b941b3fe9f4c4a90fc",
      "s": "0x20a651c01d5d614ed0e48efcb9caa3110e64f684229e1da1a65b87df739cb7d2",
      "v": 27,
      "creates": null,
      "raw": "0xf86d01850ba43b740082526794512f996df7c0e8256e822ba00c580871dfe20e1689052663ccab1e1c0000801ba08c53d70796410a7cfe6f81d8499ef2a4e908bba7fca2f9b941b3fe9f4c4a90fca020a651c01d5d614ed0e48efcb9caa3110e64f684229e1da1a65b87df739cb7d2",
      "networkId": 0,
      "chainId": 0
    }
  ]
}