{
  "hash": "0xb200037ac94cdca213a0723bbb2fc318650614c2634c068046e9769f63cd9d00",
  "parentHash": "0x94837bbeefe4db8fad96a9623d7bd5cc206ed3c8d75660577fe3ac7ed7c3a3bd",
  "number": 109549,
  "timestamp": 1439958433,
  "nonce": "0x6cdbb68e8b7a3ab1",
  "difficulty": 4444964148147,
  "gasLimit": {
    "_hex": "0x2fefd8"
  },
  "gasUsed": {
    "_hex": "0x5208"
  },
  "miner": "0xFE78b27B9A135636679f07FbcCCa7CABD8E5c370",
  "extraData": "0x",
  "transactions": [
    {
      "hash": "0xea56e965711e1f870d4bf88679a5171e280dade1da2b5d645cea9afa2ae9160a",
      "blockHash": "0xb200037ac94cdca213a0723bbb2fc318650614c2634c068046e9769f63cd9d00",
      "blockNumber": 109549,
      "transactionIndex": 0,
      "confirmations": null,
      "from": "0x007f7f58D3eb5b7510A301eCC749FC1fCDDBE14D",
      "gasPrice": {
        "_hex": "0xd382b0b9c"
      },
      "gasLimit": {
        "_hex": "0x15f90"
      },
      "to": "0xb1abce2918E21ddb93AA452731a12672A3d9F75a",
      "value": {
        "_hex": "0x4563918244f40000"
      },
      "nonce": 271,
      "data": "0x",
      "r": "0x0111d6904212fa888181f8856d0bad89b37851524688fcd698cfafde2f924c8d",
      "s": "0x3cc8360e128dce04ac6a6dfe383a9404dd42e123bc9a7698860576ec66ac12d6",
      "v": 28,
      "creates": null,
      "raw": "0xf86f82010f850d382b0b9c83015f9094b1abce2918e21ddb93aa452731a12672a3d9f75a884563918244f40000801ca00111d6904212fa888181f8856d0bad89b37851524688fcd698cfafde2f924c8da03cc8360e128dce04ac6a6dfe383a9404dd42e123bc9a7698860576ec66ac12d6",
      "networkId": 0,
      "chainId": 0
    }
  ]
}