{
  "hash": "0x45593af0efc9db09a06e78dd37480d555a917b0978c607896fae9ed8bf5eb2be",
  "parentHash": "0x6f4924c861c945d2d64198b2dad9bdb488475e5833fca87030f6ad7a88943c06",
  "number": 71572,
  "timestamp": 1439338237,
  "nonce": "0x06702b9d1877efe3",
  "difficulty": 2181451246215,
  "gasLimit": {
    "_hex": "0x2fefd8"
  },
  "gasUsed": {
    "_hex": "0xae73"
  },
  "miner": "0xbb7B8287f3F0a933474a79eAe42CBCa977791171",
  "extraData": "0x476574682f4c5649562f76312e302e312f6c696e75782f676f312e342e32",
  "transactions": [
    {
      "hash": "0x3a6510b74dcd13ddb8f8f27f9424f97952a785934c824aa53f616ef307484b1c",
      "blockHash": "0x45593af0efc9db09a06e78dd37480d555a917b0978c607896fae9ed8bf5eb2be",
      "blockNumber": 71572,
      "transactionIndex": 0,
      "confirmations": null,
      "from": "0x17580B766f7453525ca4C6A88b01b50570EA088C",
      "gasPrice": {
        "_hex": "0xced0bee37"
      },
      "gasLimit": {
        "_hex": "0x61a80"
      },
      "to": "0x5Fe5B7546D1628f7348B023A0393de1FC825A4fD",
      "value": {
        "_hex": "0x29a2241af62c0000"
      },
      "nonce": 219,
      "data": "0xb595b8b50000000000000000000000000000000000000000000000000000000000000000",
      "r": "0x3663c9ca4000abbb88387dae1d122deaac5823c1484f2800f3814ea726bc6b59",
      "s": "0x3a3b7d14382a9cde48ac021ed2b226cf58ca7d23f1d0513fd7df9a640bb1d4e8",
      "v": 27,
      "creates": null,
      "raw": "0xf89281db850ced0bee3783061a80945fe5b7546d1628f7348b023a0393de1fc825a4fd8829a2241af62c0000a4b595b8b500000000000000000000000000000000000000000000000000000000000000001ba03663c9ca4000abbb88387dae1d122deaac5823c1484f2800f3814ea726bc6b59a03a3b7d14382a9cde48ac021ed2b226cf58ca7d23f1d0513fd7df9a640bb1d4e8",
      "networkId": 0,
      "chainId": 0
    }
  ]
}