{
  "hash": "0x4167bbcae25716addd4295c2683f300c26b88bc30a9f1850312c799eb5e15eff",
  "parentHash": "0x76b702c28db2284e8ccb1be3e281b4ead64f8d2fea17e2f663c6717ea3283a3e",
  "number": 84256,
  "timestamp": 1439547074,
  "nonce": "0x4c8da5830630bb0c",
  "difficulty": 2534117659681,
  "gasLimit": {
    "_hex": "0x2fefd8"
  },
  "gasUsed": {
    "_hex": "0x5208"
  },
  "miner": "0xe6A7a1d47ff21B6321162AEA7C6CB457D5476Bca",
  "extraData": "0x476574682f76312e302e312d38326566323666362f6c696e75782f676f312e34",
  "transactions": [
    {
      "hash": "0xca66a11bb273dfbe24ec160fa3651f3788eff6ab04a6805f75c7f695cd0a8d28",
      "blockHash": "0x4167bbcae25716addd4295c2683f300c26b88bc30a9f1850312c799eb5e15eff",
      "blockNumber": 84256,
      "transactionIndex": 0,
      "confirmations": null,
      "from": "0xe6A7a1d47ff21B6321162AEA7C6CB457D5476Bca",
      "gasPrice": {
        "_hex": "0xdad4537bd"
      },
      "gasLimit": {
        "_hex": "0x55f0"
      },
      "to": "0xA88B1eAe9655f8f49d669A10EA450fC4df44A268",
      "value": {
        "_hex": "0x12022b0aca37571c"
      },
      "nonce": 1430,
      "data": "0x",
      "r": "0x581659c5494c7d02f2f9a851c71fa4f8620f4b160c5eb76e20df36130b62a1ea",
      "s": "0x55a9038466073f0e8c5b2f87e1e39493e1333085d43bf01fe4a99ccd11261d3a",
      "v": 27,
      "creates": null,
      "raw": "0xf86e820596850dad4537bd8255f094a88b1eae9655f8f49d669a10ea450fc4df44a2688812022b0aca37571c801ba0581659c5494c7d02f2f9a851c71fa4f8620f4b160c5eb76e20df36130b62a1eaa055a9038466073f0e8c5b2f87e1e39493e1333085d43bf01fe4a99ccd11261d3a",
      "networkId": 0,
      "chainId": 0
    }
  ]
}