{
  "hash": "0xc042f2d1daed9e78f6ebbdaa18a4ce75ffd3bac38a5daa570f0d710c5b305c24",
  "parentHash": "0x9d878b4f805cc3fae0b91b27b3bdd08284fa21a35b8dd5ac4f94081cc035c3ce",
  "number": 105795,
  "timestamp": 1439893510,
  "nonce": "0xe66a32c5fb77fe22",
  "difficulty": 4433944646596,
  "gasLimit": {
    "_hex": "0x2fefd8"
  },
  "gasUsed": {
    "_hex": "0x5208"
  },
  "miner": "0xe6A7a1d47ff21B6321162AEA7C6CB457D5476Bca",
  "extraData": "0x476574682f76312e302e312d38326566323666362f6c696e75782f676f312e34",
  "transactions": [
    {
      "hash": "0xda29c0cfa586e94f831dc557f2947548eb58e729b1747e79a08e5956c3052a58",
      "blockHash": "0xc042f2d1daed9e78f6ebbdaa18a4ce75ffd3bac38a5daa570f0d710c5b305c24",
      "blockNumber": 105795,
      "transactionIndex": 0,
      "confirmations": null,
      "from": "0x02f4c7248513B56356B261cB797fBC618c410569",
      "gasPrice": {
        "_hex": "0xba43b7400"
      },
      "gasLimit": {
        "_hex": "0x5208"
      },
      "to": "0xC47Aaa860008be6f65B58c6C6E02a84e666EfE31",
      "value": {
        "_hex": "0x246821b166315130"
      },
      "nonce": 4,
      "data": "0x",
      "r": "0x4ee36ad4f589b2bf8e586f0cb2eea8b9db2fbb710940a965fd6dd10bb7cb3245",
      "s": "0x4179925f56f4931214f7ab5d33fd9be615f6e40d0c87bcf54d5e1bcd73432b5b",
      "v": 28,
      "creates": null,
      "raw": "0xf86c04850ba43b740082520894c47aaa860008be6f65b58c6c6e02a84e666efe3188246821b166315130801ca04ee36ad4f589b2bf8e586f0cb2eea8b9db2fbb710940a965fd6dd10bb7cb3245a04179925f56f4931214f7ab5d33fd9be615f6e40d0c87bcf54d5e1bcd73432b5b",
      "networkId": 0,
      "chainId": 0
    }
  ]
}