{
  "hash": "0xb978f084864d6ea51b01ebccd3294ff91430ae1491476944f5210820b7d2db69",
  "parentHash": "0xbc63abd451f9f0c379ef5707a5f8351156de312497a16c9714ea887896ec5ed6",
  "number": 88324,
  "timestamp": 1439606373,
  "nonce": "0xd3868f01527d3605",
  "difficulty": 3195624285170,
  "gasLimit": {
    "_hex": "0x2fefd8"
  },
  "gasUsed": {
    "_hex": "0x5c58"
  },
  "miner": "0x76d4a9bc9612bE738A81d0fE632b00B971E2bB9a",
  "extraData": "0x",
  "transactions": [
    {
      "hash": "0x7e037abb488123181b5349f3a912f63ecc6b863ae98f33fe4a85074ba312e6b9",
      "blockHash": "0xb978f084864d6ea51b01ebccd3294ff91430ae1491476944f5210820b7d2db69",
      "blockNumber": 88324,
      "transactionIndex": 0,
      "confirmations": null,
      "from": "0xf2Ae859397af92154241eAd0aC7c4ce3bea76E8F",
      "gasPrice": {
        "_hex": "0xd8da4a1c4"
      },
      "gasLimit": {
        "_hex": "0x15f90"
      },
      "to": "0x0000000000000000000000000000000000000000",
      "value": {
        "_hex": "0x0"
      },
      "nonce": 12,
      "data": "0xbe99a980637970657278636f696e00000000000000000000000000000000000000000000000000000000000000000000f2ae859397af92154241ead0ac7c4ce3bea76e8f0000000000000000000000000000000000000000000000000000000000000001",
      "r": "0x1bcc02c569bc9118aaf1054661d242cc4914d90f7bbc6de64b52b8b8e06ed2a5",
      "s": "0x5db85dd35ed55f321dc52720b68b7ae05bef8f4a34e731f1186f75976bc5cccd",
      "v": 27,
      "creates": null,
      "raw": "0xf8ca0c850d8da4a1c483015f9094000000000000000000000000000000000000000080b864be99a980637970657278636f696e00000000000000000000000000000000000000000000000000000000000000000000f2ae859397af92154241ead0ac7c4ce3bea76e8f00000000000000000000000000000000000000000000000000000000000000011ba01bcc02c569bc9118aaf1054661d242cc4914d90f7bbc6de64b52b8b8e06ed2a5a05db85dd35ed55f321dc52720b68b7ae05bef8f4a34e731f1186f75976bc5cccd",
      "networkId": 0,
      "chainId": 0
    }
  ]
}