{
  "hash": "0x5b0730e027feea58e8f99aca92bd6f3c94e5e2924e4ab103493465c0ec46f794",
  "parentHash": "0x3c7b6cd391c18a65fdd2cfcc27efef42f75287a34bcf0dc532e76ee1c74e5cb9",
  "number": 80763,
  "timestamp": 1439490414,
  "nonce": "0x10b91f2e4fe0ddc2",
  "difficulty": 2444011666120,
  "gasLimit": {
    "_hex": "0x2fefd8"
  },
  "gasUsed": {
    "_hex": "0x55e0"
  },
  "miner": "0xe6A7a1d47ff21B6321162AEA7C6CB457D5476Bca",
  "extraData": "0x476574682f76312e302e312d38326566323666362f6c696e75782f676f312e34",
  "transactions": [
    {
      "hash": "0x2a845b4411557708d37974122c0562e109a5b45887e0683dc0da1d70ee3212a5",
      "blockHash": "0x5b0730e027feea58e8f99aca92bd6f3c94e5e2924e4ab103493465c0ec46f794",
      "blockNumber": 80763,
      "transactionIndex": 0,
      "confirmations": null,
      "from": "0x869e88783E4c2E97d967A89E1aca4523eeAB3D7C",
      "gasPrice": {
        "_hex": "0xd7ffe2adc"
      },
      "gasLimit": {
        "_hex": "0x15f90"
      },
      "to": "0xE7B3A5522a9E1Fbfc7Ccc77B8f0B56c341C76498",
      "value": {
        "_hex": "0x0"
      },
      "nonce": 6,
      "data": "0x6198e339000000000000000000000000000000000000000000000000000000000000012c",
      "r": "0x68932ffbd80b216b0484bc16aafe7d4f466c35078bc837cb300c42fd3638bf6b",
      "s": "0x505f751d264ebb3a265a46263b1c5613d3b8243cf36cb41de2be395824371e7a",
      "v": 28,
      "creates": null,
      "raw": "0xf88906850d7ffe2adc83015f9094e7b3a5522a9e1fbfc7ccc77b8f0b56c341c7649880a46198e339000000000000000000000000000000000000000000000000000000000000012c1ca068932ffbd80b216b0484bc16aafe7d4f466c35078bc837cb300c42fd3638bf6ba0505f751d264ebb3a265a46263b1c5613d3b8243cf36cb41de2be395824371e7a",
      "networkId": 0,
      "chainId": 0
    }
  ]
}