{
  "hash": "0xb852ca6a7ff2972d60bd5d7520b2b3db66243e85550665848374fd53ca56a1f3",
  "parentHash": "0x563efd85bd9965bd755a07050c39a8415aae0440b329e62d7b77b746bd082d07",
  "number": 48179,
  "timestamp": 1438952999,
  "nonce": "0xb6a72b1b07c601f5",
  "difficulty": 1456506433425,
  "gasLimit": {
    "_hex": "0x13552"
  },
  "gasUsed": {
    "_hex": "0x5208"
  },
  "miner": "0xbb7B8287f3F0a933474a79eAe42CBCa977791171",
  "extraData": "0x476574682f4c5649562f76312e302e312f6c696e75782f676f312e342e32",
  "transactions": [
    {
      "hash": "0x6b91b1cb682fff6699b8f296308332e74daf22c8a360e242ca93ec603dd6b1b2",
      "blockHash": "0xb852ca6a7ff2972d60bd5d7520b2b3db66243e85550665848374fd53ca56a1f3",
      "blockNumber": 48179,
      "transactionIndex": 0,
      "confirmations": null,
      "from": "0x24086efcaD85969b9266376FDAE4c4B5c007b4Bd",
      "gasPrice": {
        "_hex": "0xf51e8a676"
      },
      "gasLimit": {
        "_hex": "0x5208"
      },
      "to": "0xac2B6F3cA32EbEFB4eEBaE254D8677097E4c2326",
      "value": {
        "_hex": "0xd7e2e6f4572ba0000"
      },
      "nonce": 1,
      "data": "0x",
      "r": "0xae29ff9c372028ea7a41a7c970c2e9f8fad1082fc7ffa6fafdfd68f79f48297c",
      "s": "0x1a7e6be47637b2056dca84e61e5701e3547038d1b03a4182a68c381611c4dc32",
      "v": 27,
      "creates": null,
      "raw": "0xf86d01850f51e8a67682520894ac2b6f3ca32ebefb4eebae254d8677097e4c2326890d7e2e6f4572ba0000801ba0ae29ff9c372028ea7a41a7c970c2e9f8fad1082fc7ffa6fafdfd68f79f48297ca01a7e6be47637b2056dca84e61e5701e3547038d1b03a4182a68c381611c4dc32",
      "networkId": 0,
      "chainId": 0
    }
  ]
}