{
  "hash": "0x5a012945e457fb565bcc8aac95f5a759cdc5fc28780dfac1ef017539577cb587",
  "parentHash": "0xd7857589f77d6e53e6d6da189e734a5ea9f28282d91a8371223f4ce4ab312a8a",
  "number": 53940,
  "timestamp": 1439046089,
  "nonce": "0x631fac69e26afe2f",
  "difficulty": 1604034352635,
  "gasLimit": {
    "_hex": "0x2fefd5"
  },
  "gasUsed": {
    "_hex": "0x89738"
  },
  "miner": "0x4947190fcC30D3fb3a16233b259bFe6b3492339a",
  "extraData": "0x",
  "transactions": [
    {
      "hash": "0xbca147eefbb944001d75ff57f1266c544d791d91491b1c10a08101692f53f150",
      "blockHash": "0x5a012945e457fb565bcc8aac95f5a759cdc5fc28780dfac1ef017539577cb587",
      "blockNumber": 53940,
      "transactionIndex": 0,
      "confirmations": null,
      "from": "0x1A6e2D880420fd418522F080D5E31feE4A74a55E",
      "gasPrice": {
        "_hex": "0xd72ef7220"
      },
      "gasLimit": {
        "_hex": "0x5208"
      },
      "to": "0x32Be343B94f860124dC4fEe278FDCBD38C102D88",
      "value": {
        "_hex": "0x3635a1d79734aa0000"
      },
      "nonce": 2,
      "data": "0x",
      "r": "0xad2abafaf0b2d3153d59783021c777e182938a84bb37a617c005705afec4bae0",
      "s": "0x02120a55f22443ef1b73c392cdef096b5b6847dce5e7dcbf5f4beb0a146abd81",
      "v": 28,
      "creates": null,
      "raw": "0xf86d02850d72ef72208252089432be343b94f860124dc4fee278fdcbd38c102d88893635a1d79734aa0000801ca0ad2abafaf0b2d3153d59783021c777e182938a84bb37a617c005705afec4bae0a002120a55f22443ef1b73c392cdef096b5b6847dce5e7dcbf5f4beb0a146abd81",
      "networkId": 0,
      "chainId": 0
    },
    {
      "hash": "0x8b96c6d5f58d25d72e6c2708af8148ae5498341b61028ba5872a09f79e35e784",
      "blockHash": "0x5a012945e457fb565bcc8aac95f5a759cdc5fc28780dfac1ef017539577cb587",
      "blockNumber": 53940,
      "transactionIndex": 1,
      "confirmations": null,
      "from": "0x6111E933E5e6297DFd0AAd9aAB64017c69062a08",
      "gasPrice": {
        "_hex": "0xd72ef7220"
      },
      "gasLimit": {
        "_hex": "0x5208"
      },
      "to": "0x32Be343B94f860124dC4fEe278FDCBD38C102D88",
      "value": {
        "_hex": "0xd026654a94a76800"
      },
      "nonce": 2,
      "data": "0x",
      "r": "0x079df00a030f4054f7d61ac0b9f20cb7f3a0bed2b62fb0105ca1ad593fe707be",
      "s": "0x338b44e3b200b1be931e736c45895b714cb7ce653ee26addef0136878ae9c24d",
      "v": 27,
      "creates": null,
      "raw": "0xf86c02850d72ef72208252089432be343b94f860124dc4fee278fdcbd38c102d8888d026654a94a76800801ba0079df00a030f4054f7d61ac0b9f20cb7f3a0bed2b62fb0105ca1ad593fe707bea0338b44e3b200b1be931e736c45895b714cb7ce653ee26addef0136878ae9c24d",
      "networkId": 0,
      "chainId": 0
    },
    {
      "hash": "0x0d5c2721c59c8e88de5e4ac75150aee03c405b847f3355c6aee60698f2b43f31",
      "blockHash": "0x5a012945e457fb565bcc8aac95f5a759cdc5fc28780dfac1ef017539577cb587",
      "blockNumber": 53940,
      "transactionIndex": 2,
      "confirmations": null,
      "from": "0x2C076d91b9ca5475Cd168B018707EeA87204BAaC",
      "gasPrice": {
        "_hex": "0xd64111162"
      },
      "gasLimit": {
        "_hex": "0x7a120"
      },
      "to": "0xBAA54d6E90c3F4d7Ebec11bD180134C7eD8eBb52",
      "value": {
        "_hex": "0x16345785d8a0000"
      },
      "nonce": 0,
      "data": "0x",
      "r": "0xb34d221df2698af009354e50ba6aa0eaf6856e87756333a6209a188b97658938",
      "s": "0x674e9fd7426486c7b369367d9d36449f81d804dd32a9c93a2b6ae82cb5e498da",
      "v": 28,
      "creates": null,
      "raw": "0xf86d80850d641111628307a12094baa54d6e90c3f4d7ebec11bd180134c7ed8ebb5288016345785d8a0000801ca0b34d221df2698af009354e50ba6aa0eaf6856e87756333a6209a188b97658938a0674e9fd7426486c7b369367d9d36449f81d804dd32a9c93a2b6ae82cb5e498da",
      "networkId": 0,
      "chainId": 0
    },
    {
      "hash": "0x72ecec3fe3271f17997510af437aa496704bd7491445607157f5e7538b1ada29",
      "blockHash": "0x5a012945e457fb565bcc8aac95f5a759cdc5fc28780dfac1ef017539577cb587",
      "blockNumber": 53940,
      "transactionIndex": 3,
      "confirmations": null,
      "from": "0x50851F0A477440DdfD402D389A84CA4a91A52AD6",
      "gasPrice": {
        "_hex": "0xd51c7a56b"
      },
      "gasLimit": {
        "_hex": "0x5208"
      },
      "to": "0x32Be343B94f860124dC4fEe278FDCBD38C102D88",
      "value": {
        "_hex": "0x8ac2dda8da24a000"
      },
      "nonce": 1,
      "data": "0x",
      "r": "0xc0413e753fca6db030a87059eab23c37bb4e9ccc836f11a8189bff53e86b0b22",
      "s": "0x7cd7fc2ac73221c7ff7cc4c1801d5367f7da0bb1a95cbed77a538cc529aeb7d7",
      "v": 27,
      "creates": null,
      "raw": "0xf86c01850d51c7a56b8252089432be343b94f860124dc4fee278fdcbd38c102d88888ac2dda8da24a000801ba0c0413e753fca6db030a87059eab23c37bb4e9ccc836f11a8189bff53e86b0b22a07cd7fc2ac73221c7ff7cc4c1801d5367f7da0bb1a95cbed77a538cc529aeb7d7",
      "networkId": 0,
      "chainId": 0
    }
  ]
}