{
  "hash": "0xb8b19fc4852de590092dc0c43397a913e354f1d7a19b3f929e9b873267e05b12",
  "parentHash": "0x48eaa0d79364730ad3d85af4bcee59d83dd01e99dc68aa8ffa6e5bae51a6cf7a",
  "number": 80234,
  "timestamp": 1439482361,
  "nonce": "0x54d23e62790fb77c",
  "difficulty": 2374757389222,
  "gasLimit": {
    "_hex": "0x2fefd8"
  },
  "gasUsed": {
    "_hex": "0xc0df"
  },
  "miner": "0x5F8F73E26CdF436f19Cb24C82F90A15AFe55b592",
  "extraData": "0x476574682f76312e302e312f77696e646f77732f676f312e342e32",
  "transactions": [
    {
      "hash": "0x240006cacbf911b0725f0a2eecdce106b498b95ade20b5edb06d6d4128990550",
      "blockHash": "0xb8b19fc4852de590092dc0c43397a913e354f1d7a19b3f929e9b873267e05b12",
      "blockNumber": 80234,
      "transactionIndex": 0,
      "confirmations": null,
      "from": "0x87C5B5874A18B4306DF8a752a6C8cc3E82daFc19",
      "gasPrice": {
        "_hex": "0x11224876ca9"
      },
      "gasLimit": {
        "_hex": "0x493e0"
      },
      "to": "0xC4c51de1AbF5D60DBd329eC0F999Fd8f021ae9fC",
      "value": {
        "_hex": "0x0"
      },
      "nonce": 147,
      "data": "0xbd66528a6b6b6b0000000000000000000000000000000000000000000000000000000000",
      "r": "0x7ccfc0628cb3c21c5a6dd8f61e2ae6e11123d2496964cc4ec76938865800b82f",
      "s": "0x38277a4e47c0d6c07ebba80f206318ff5defbeb085eb694b96a3af697413e24a",
      "v": 28,
      "creates": null,
      "raw": "0xf88b819386011224876ca9830493e094c4c51de1abf5d60dbd329ec0f999fd8f021ae9fc80a4bd66528a6b6b6b00000000000000000000000000000000000000000000000000000000001ca07ccfc0628cb3c21c5a6dd8f61e2ae6e11123d2496964cc4ec76938865800b82fa038277a4e47c0d6c07ebba80f206318ff5defbeb085eb694b96a3af697413e24a",
      "networkId": 0,
      "chainId": 0
    },
    {
      "hash": "0xb7585f0860ab3a6c68e4249f2a7a010f583a3978c03df710522fc8c303d25acb",
      "blockHash": "0xb8b19fc4852de590092dc0c43397a913e354f1d7a19b3f929e9b873267e05b12",
      "blockNumber": 80234,
      "transactionIndex": 1,
      "confirmations": null,
      "from": "0x5520a56e563e93652B6867Cf334eE14fCa33480f",
      "gasPrice": {
        "_hex": "0xba43b7400"
      },
      "gasLimit": {
        "_hex": "0x5208"
      },
      "to": "0xC47Aaa860008be6f65B58c6C6E02a84e666EfE31",
      "value": {
        "_hex": "0xdcb3842427fe000"
      },
      "nonce": 0,
      "data": "0x",
      "r": "0x114fac5d75fc56583f91f69d9df21a6e0079160ef39824760242ad188fdf03d1",
      "s": "0x7d28f44e34eb1e521eb995485561bfa1fce7cc62a52b96b12213ed27d7d5bdef",
      "v": 28,
      "creates": null,
      "raw": "0xf86c80850ba43b740082520894c47aaa860008be6f65b58c6c6e02a84e666efe31880dcb3842427fe000801ca0114fac5d75fc56583f91f69d9df21a6e0079160ef39824760242ad188fdf03d1a07d28f44e34eb1e521eb995485561bfa1fce7cc62a52b96b12213ed27d7d5bdef",
      "networkId": 0,
      "chainId": 0
    }
  ]
}