{
  "hash": "0xecbbb50c5a294626e91623dd45ff793e9562e4b1857568600303744e939bc409",
  "parentHash": "0x7a560c29dc6d49d528857d46eeee6d7b6a243294e3d6c78babba828f623df3d6",
  "number": 62334,
  "timestamp": 1439187062,
  "nonce": "0x8d908aafa6020273",
  "difficulty": 1770267501651,
  "gasLimit": {
    "_hex": "0x2fefd8"
  },
  "gasUsed": {
    "_hex": "0x9ca0"
  },
  "miner": "0xa50ec0D39fa913E62f1Bae7074E6F36caA71855b",
  "extraData": "0x",
  "transactions": [
    {
      "hash": "0x5369e64816da4cdb9c377b0b2fa988d2076c2572bdbb8af9317f4d939b968fbe",
      "blockHash": "0xecbbb50c5a294626e91623dd45ff793e9562e4b1857568600303744e939bc409",
      "blockNumber": 62334,
      "transactionIndex": 0,
      "confirmations": null,
      "from": "0xE2beA3e7d349ab64EBD9873418e78912e13CD35f",
      "gasPrice": {
        "_hex": "0xd35469301"
      },
      "gasLimit": {
        "_hex": "0x15f90"
      },
      "to": "0x0B7591abDF17A364F167A99aF38e58694ACB2Aa6",
      "value": {
        "_hex": "0xde0b6b3a7640000"
      },
      "nonce": 12,
      "data": "0x",
      "r": "0x8ef071789af88c58ecdb37401c0475460968aa6a03aa5297952a15e5a3b3af38",
      "s": "0x5de6dcb752d858f7075bb1ab5c8d4308472a30a13c5f917198da6b0f46dd3634",
      "v": 27,
      "creates": null,
      "raw": "0xf86d0c850d3546930183015f90940b7591abdf17a364f167a99af38e58694acb2aa6880de0b6b3a7640000801ba08ef071789af88c58ecdb37401c0475460968aa6a03aa5297952a15e5a3b3af38a05de6dcb752d858f7075bb1ab5c8d4308472a30a13c5f917198da6b0f46dd3634",
      "networkId": 0,
      "chainId": 0
    }
  ]
}