{
  "hash": "0x4b1957530b7ae9de0c865c9046512654c16ea75607a16fb44ea13d8e41812393",
  "parentHash": "0x6dec19df45bd7a0fec623c78da22a958315c197bab5c5b924f3c2f69bd52ae5d",
  "number": 94555,
  "timestamp": 1439710180,
  "nonce": "0xad6810dfe2f54dd6",
  "difficulty": 3505388640637,
  "gasLimit": {
    "_hex": "0x2fefd8"
  },
  "gasUsed": {
    "_hex": "0xa410"
  },
  "miner": "0xf927a40C8B7F6E07c5af7FA2155B4864a4112B13",
  "extraData": "0x",
  "transactions": [
    {
      "hash": "0x40bdf6badb5575a00ab7036e5a2ccfc7216d6ae6e35d59563398e78d997e29f3",
      "blockHash": "0x4b1957530b7ae9de0c865c9046512654c16ea75607a16fb44ea13d8e41812393",
      "blockNumber": 94555,
      "transactionIndex": 0,
      "confirmations": null,
      "from": "0xb1abce2918E21ddb93AA452731a12672A3d9F75a",
      "gasPrice": {
        "_hex": "0xce172d87f"
      },
      "gasLimit": {
        "_hex": "0x5208"
      },
      "to": "0x32Be343B94f860124dC4fEe278FDCBD38C102D88",
      "value": {
        "_hex": "0x1158a256bbfb2c000"
      },
      "nonce": 19,
      "data": "0x",
      "r": "0x5b56e67aae7ee5fe2bef41d1e48057d346d20b96f086e5bd4d941ffa46969077",
      "s": "0x537a8331fd8a04c753be7850715a67c5538edb3e884dd1f5959d2506d3b0161e",
      "v": 27,
      "creates": null,
      "raw": "0xf86d13850ce172d87f8252089432be343b94f860124dc4fee278fdcbd38c102d888901158a256bbfb2c000801ba05b56e67aae7ee5fe2bef41d1e48057d346d20b96f086e5bd4d941ffa46969077a0537a8331fd8a04c753be7850715a67c5538edb3e884dd1f5959d2506d3b0161e",
      "networkId": 0,
      "chainId": 0
    },
    {
      "hash": "0x941b6b2a8a885fbd02aa649f89c22ee9bc47d0461bfabec9bee9b215eb5dcf8b",
      "blockHash": "0x4b1957530b7ae9de0c865c9046512654c16ea75607a16fb44ea13d8e41812393",
      "blockNumber": 94555,
      "transactionIndex": 1,
      "confirmations": null,
      "from": "0x007f7f58D3eb5b7510A301eCC749FC1fCDDBE14D",
      "gasPrice": {
        "_hex": "0xcc8ddf695"
      },
      "gasLimit": {
        "_hex": "0x15f90"
      },
      "to": "0xb1abce2918E21ddb93AA452731a12672A3d9F75a",
      "value": {
        "_hex": "0x4563918244f40000"
      },
      "nonce": 35,
      "data": "0x",
      "r": "0x901befe46c51cfd803837e2618943225eac609bd5c18b746642982fcc26190a0",
      "s": "0x575e5c806006032596e81efb2710e7a01f7e7e50164b4ccfb960106b061178c5",
      "v": 28,
      "creates": null,
      "raw": "0xf86d23850cc8ddf69583015f9094b1abce2918e21ddb93aa452731a12672a3d9f75a884563918244f40000801ca0901befe46c51cfd803837e2618943225eac609bd5c18b746642982fcc26190a0a0575e5c806006032596e81efb2710e7a01f7e7e50164b4ccfb960106b061178c5",
      "networkId": 0,
      "chainId": 0
    }
  ]
}