{
  "hash": "0x9ee4c252353508219a6152c5eb70c6c53c266a348d21d2e2ecae6ed5f005ca1a",
  "parentHash": "0x348e721e355e09afc9184d2737353b6dd63b0cb21a6d8d6805ccae868cb6581b",
  "number": 68903,
  "timestamp": 1439295465,
  "nonce": "0x59c203f0b112b0ba",
  "difficulty": 2023087752158,
  "gasLimit": {
    "_hex": "0x2fefd8"
  },
  "gasUsed": {
    "_hex": "0x2e248"
  },
  "miner": "0x9746c7e1ef2bd21FF3997fa467593a89cb852BD0",
  "extraData": "0x476574682f76312e302e312f77696e646f77732f676f312e342e32",
  "transactions": [
    {
      "hash": "0x54f91e055eb9b8c6cdd6d05c97ee8a1b02796b51b87c947132ef4f5a1800bde9",
      "blockHash": "0x9ee4c252353508219a6152c5eb70c6c53c266a348d21d2e2ecae6ed5f005ca1a",
      "blockNumber": 68903,
      "transactionIndex": 0,
      "confirmations": null,
      "from": "0x2b706Eb3B96a5E41d38B98e2eb1489875245E6B5",
      "gasPrice": {
        "_hex": "0xba43b7400"
      },
      "gasLimit": {
        "_hex": "0x5208"
      },
      "to": "0xcB712c0F75a6899355426d40cd513FF07CE274E5",
      "value": {
        "_hex": "0x36ef271c4dd000"
      },
      "nonce": 1,
      "data": "0x",
      "r": "0x4def63207828769909cc166cb855876ab82a5f3db53e46c5ee406f69692f640d",
      "s": "0x479e89081446c514f749b7c954984484139bd7de1e57526e103a804982623e2e",
      "v": 27,
      "creates": null,
      "raw": "0xf86b01850ba43b740082520894cb712c0f75a6899355426d40cd513ff07ce274e58736ef271c4dd000801ba04def63207828769909cc166cb855876ab82a5f3db53e46c5ee406f69692f640da0479e89081446c514f749b7c954984484139bd7de1e57526e103a804982623e2e",
      "networkId": 0,
      "chainId": 0
    },
    {
      "hash": "0xe34392a7f88a3d33e974e8d29fdabe784346ee6a644f831785475073e7939265",
      "blockHash": "0x9ee4c252353508219a6152c5eb70c6c53c266a348d21d2e2ecae6ed5f005ca1a",
      "blockNumber": 68903,
      "transactionIndex": 1,
      "confirmations": null,
      "from": "0x1CF02cCA26c81016Aa955EC9eF1Bc892A0f10D3B",
      "gasPrice": {
        "_hex": "0xba43b7400"
      },
      "gasLimit": {
        "_hex": "0x5208"
      },
      "to": "0x05867a64eAAAD7e0949a70f745407c33D8A3aDF3",
      "value": {
        "_hex": "0x36ef271c4dd000"
      },
      "nonce": 1,
      "data": "0x",
      "r": "0x47158e9ace00845d4648338d75e42355412d6110dd874b7782d3746146ffea58",
      "s": "0x37721fbcba8dcd7d16ca67030063587ea05876457d1f83465c584ae028a100b6",
      "v": 28,
      "creates": null,
      "raw": "0xf86b01850ba43b74008252089405867a64eaaad7e0949a70f745407c33d8a3adf38736ef271c4dd000801ca047158e9ace00845d4648338d75e42355412d6110dd874b7782d3746146ffea58a037721fbcba8dcd7d16ca67030063587ea05876457d1f83465c584ae028a100b6",
      "networkId": 0,
      "chainId": 0
    },
    {
      "hash": "0x2cce7853cc386cf2ba83eb38e9973109afdc9dac2e9522551e7e146460c449d5",
      "blockHash": "0x9ee4c252353508219a6152c5eb70c6c53c266a348d21d2e2ecae6ed5f005ca1a",
      "blockNumber": 68903,
      "transactionIndex": 2,
      "confirmations": null,
      "from": "0xd1f9eF1352D78a9CCeAC1341c407072D38e92ff2",
      "gasPrice": {
        "_hex": "0xba43b7400"
      },
      "gasLimit": {
        "_hex": "0x5208"
      },
      "to": "0x93484ae92b04402DE122b5C0b4727515610f1A6B",
      "value": {
        "_hex": "0x36ef271c4dd000"
      },
      "nonce": 1,
      "data": "0x",
      "r": "0x001a33538ad036ee47c21dcfff512ec6e6f65069731d9cceb089b8846c8e6df9",
      "s": "0x61bc9b4e09bd857f1ec92121445d033857697f27e17b8d66be5b2bb0304dbb71",
      "v": 28,
      "creates": null,
      "raw": "0xf86a01850ba43b74008252089493484ae92b04402de122b5c0b4727515610f1a6b8736ef271c4dd000801c9f1a33538ad036ee47c21dcfff512ec6e6f65069731d9cceb089b8846c8e6df9a061bc9b4e09bd857f1ec92121445d033857697f27e17b8d66be5b2bb0304dbb71",
      "networkId": 0,
      "chainId": 0
    },
    {
      "hash": "0x6fb2dbf887d9ec73ffebce1eee08b6ffbf5d6b002dbf5fd83e324c85e48bd1a6",
      "blockHash": "0x9ee4c252353508219a6152c5eb70c6c53c266a348d21d2e2ecae6ed5f005ca1a",
      "blockNumber": 68903,
      "transactionIndex": 3,
      "confirmations": null,
      "from": "0x3EfC2eC48F895Da47Ab0e672af515Fd78d6710B0",
      "gasPrice": {
        "_hex": "0xba43b7400"
      },
      "gasLimit": {
        "_hex": "0x5208"
      },
      "to": "0x09D737500E921761a493E542A3A020C5d3FFD80a",
      "value": {
        "_hex": "0x36ef271c4dd000"
      },
      "nonce": 1,
      "data": "0x",
      "r": "0xdf60ee4326585ca4e9135e14d4a769e8f555a8552219ec40e0f4dbb2ff38fdaf",
      "s": "0x28c62a8eba13b8806c29f6017fdd484a5d98cd4554c04402412da7883ab21ea1",
      "v": 28,
      "creates": null,
      "raw": "0xf86b01850ba43b74008252089409d737500e921761a493e542a3a020c5d3ffd80a8736ef271c4dd000801ca0df60ee4326585ca4e9135e14d4a769e8f555a8552219ec40e0f4dbb2ff38fdafa028c62a8eba13b8806c29f6017fdd484a5d98cd4554c04402412da7883ab21ea1",
      "networkId": 0,
      "chainId": 0
    },
    {
      "hash": "0xd189cb7bd1b03b85d772988ff2d6599153e70b39fef4dc20b5bfbb68523a9fcd",
      "blockHash": "0x9ee4c252353508219a6152c5eb70c6c53c266a348d21d2e2ecae6ed5f005ca1a",
      "blockNumber": 68903,
      "transactionIndex": 4,
      "confirmations": null,
      "from": "0xE2EF95C416Df818D43B232FE2cff18cB6D9f6961",
      "gasPrice": {
        "_hex": "0xba43b7400"
      },
      "gasLimit": {
        "_hex": "0x5208"
      },
      "to": "0x1ABbf65f58fDc9483576B66D68B36c2222f72748",
      "value": {
        "_hex": "0x36ef271c4dd000"
      },
      "nonce": 1,
      "data": "0x",
      "r": "0x09e082afcb34a4cd120472f47ca7e3b77d29be00b67297bbbb49f5affcd61a24",
      "s": "0x7ed5eeaf237df4aca2c801371130cabc27ed73e62ae11f84126ca4140d197ea4",
      "v": 28,
      "creates": null,
      "raw": "0xf86b01850ba43b7400825208941abbf65f58fdc9483576b66d68b36c2222f727488736ef271c4dd000801ca009e082afcb34a4cd120472f47ca7e3b77d29be00b67297bbbb49f5affcd61a24a07ed5eeaf237df4aca2c801371130cabc27ed73e62ae11f84126ca4140d197ea4",
      "networkId": 0,
      "chainId": 0
    },
    {
      "hash": "0xcb2d8a9678e3dd3df85be8d4b3567ddbe0a7ec2b020a9a4986bf978ad366ea4c",
      "blockHash": "0x9ee4c252353508219a6152c5eb70c6c53c266a348d21d2e2ecae6ed5f005ca1a",
      "blockNumber": 68903,
      "transactionIndex": 5,
      "confirmations": null,
      "from": "0xCc027873dA96B9B1B4fDA234C06bDD5E6DF93687",
      "gasPrice": {
        "_hex": "0xba43b7400"
      },
      "gasLimit": {
        "_hex": "0x5208"
      },
      "to": "0xa7BA0D1223053bD53d5550C74A7A1969FCa26d37",
      "value": {
        "_hex": "0x36ef271c4dd000"
      },
      "nonce": 1,
      "data": "0x",
      "r": "0x1b5ee73756bd12a32e6e4d54e8fa8fedfd6a83edb8102edfd75df00f8d88923c",
      "s": "0x783bfc0bb2ff3026b50343a06ccaecc9da8aee706060636246fbd113cca8be87",
      "v": 27,
      "creates": null,
      "raw": "0xf86b01850ba43b740082520894a7ba0d1223053bd53d5550c74a7a1969fca26d378736ef271c4dd000801ba01b5ee73756bd12a32e6e4d54e8fa8fedfd6a83edb8102edfd75df00f8d88923ca0783bfc0bb2ff3026b50343a06ccaecc9da8aee706060636246fbd113cca8be87",
      "networkId": 0,
      "chainId": 0
    },
    {
      "hash": "0xa3a7870608da71279dae80fe672a5962ac48d363040efb3a97d885f677ca56ba",
      "blockHash": "0x9ee4c252353508219a6152c5eb70c6c53c266a348d21d2e2ecae6ed5f005ca1a",
      "blockNumber": 68903,
      "transactionIndex": 6,
      "confirmations": null,
      "from": "0x8f8FD7F53A123d94F4b585616B705bBD85d21626",
      "gasPrice": {
        "_hex": "0xba43b7400"
      },
      "gasLimit": {
        "_hex": "0x5208"
      },
      "to": "0x58e63b3B035B3E898aAf1D2BBaa6cdbba1D7c2E2",
      "value": {
        "_hex": "0x36ef271c4dd000"
      },
      "nonce": 1,
      "data": "0x",
      "r": "0xcb14f246d49ec48b7d80e4d1fafb0c8ef911eb44587a7a0290ed65fc5c8d4b09",
      "s": "0x76f485f165d18037911ab043fb0b804bb9afd05203dd6cf40fc8213ed997fc51",
      "v": 27,
      "creates": null,
      "raw": "0xf86b01850ba43b74008252089458e63b3b035b3e898aaf1d2bbaa6cdbba1d7c2e28736ef271c4dd000801ba0cb14f246d49ec48b7d80e4d1fafb0c8ef911eb44587a7a0290ed65fc5c8d4b09a076f485f165d18037911ab043fb0b804bb9afd05203dd6cf40fc8213ed997fc51",
      "networkId": 0,
      "chainId": 0
    },
    {
      "hash": "0x101b24f2663be2b1028b2674a9be7654f43fb7fe087654b495fc6f12c48736ba",
      "blockHash": "0x9ee4c252353508219a6152c5eb70c6c53c266a348d21d2e2ecae6ed5f005ca1a",
      "blockNumber": 68903,
      "transactionIndex": 7,
      "confirmations": null,
      "from": "0x51527CECDC752C9110795fAA1f9A2312B65c0327",
      "gasPrice": {
        "_hex": "0xba43b7400"
      },
      "gasLimit": {
        "_hex": "0x5208"
      },
      "to": "0x757c4918058e1704B52C4B75329178070D012E83",
      "value": {
        "_hex": "0x36ef271c4dd000"
      },
      "nonce": 1,
      "data": "0x",
      "r": "0xfab77fc097c5071b3ee57873300e0d366cd36ff1d00ef212488892893ba459a6",
      "s": "0x7f52a82a7b7d32edff6436907bb7de8a77304dd2cc3d99e5a054919e441aca91",
      "v": 27,
      "creates": null,
      "raw": "0xf86b01850ba43b740082520894757c4918058e1704b52c4b75329178070d012e838736ef271c4dd000801ba0fab77fc097c5071b3ee57873300e0d366cd36ff1d00ef212488892893ba459a6a07f52a82a7b7d32edff6436907bb7de8a77304dd2cc3d99e5a054919e441aca91",
      "networkId": 0,
      "chainId": 0
    },
    {
      "hash": "0x21cc69a62f889a4b9dd39d50659b0b5c7f4b17fa463be921016c6806f346de02",
      "blockHash": "0x9ee4c252353508219a6152c5eb70c6c53c266a348d21d2e2ecae6ed5f005ca1a",
      "blockNumber": 68903,
      "transactionIndex": 8,
      "confirmations": null,
      "from": "0x73646e5BDa28F15C2a078cbfc4daA2127D7231B6",
      "gasPrice": {
        "_hex": "0xba43b7400"
      },
      "gasLimit": {
        "_hex": "0x5208"
      },
      "to": "0xDDB9f433e3E16E03064240De8ECf2f09e27044F5",
      "value": {
        "_hex": "0x36ef271c4dd000"
      },
      "nonce": 1,
      "data": "0x",
      "r": "0x9d9911fbdabaeeda698bc38ebe1d87b33d6281d813b19b959a772e89baecc3df",
      "s": "0x1769091381485ba8023b59d8f652f8cb2565292413845da82bb39a782beb09f9",
      "v": 28,
      "creates": null,
      "raw": "0xf86b01850ba43b740082520894ddb9f433e3e16e03064240de8ecf2f09e27044f58736ef271c4dd000801ca09d9911fbdabaeeda698bc38ebe1d87b33d6281d813b19b959a772e89baecc3dfa01769091381485ba8023b59d8f652f8cb2565292413845da82bb39a782beb09f9",
      "networkId": 0,
      "chainId": 0
    }
  ]
}