{
  "hash": "0x8239e7abdf8bc49331e2887d85f302abc162b4a6df7eabbb89b535283ef9d88d",
  "parentHash": "0xc391d5bf289f61c9d0bd38c7d75723b0e6aba3c69002b1800fee041cd20e3fcb",
  "number": 96717,
  "timestamp": 1439744727,
  "nonce": "0x2efbf152b66411bd",
  "difficulty": 3748765116319,
  "gasLimit": {
    "_hex": "0x2fefd8"
  },
  "gasUsed": {
    "_hex": "0xf87c"
  },
  "miner": "0x190174d939CC332eE1Ea9351AD703ddF7364Ca68",
  "extraData": "0x476574682f76312e302e312d38326566323666362f6c696e75782f676f312e34",
  "transactions": [
    {
      "hash": "0xf2fd8a7e69559750d09726660030ba18187fc1eec9f47d1d3ac27a7949de8570",
      "blockHash": "0x8239e7abdf8bc49331e2887d85f302abc162b4a6df7eabbb89b535283ef9d88d",
      "blockNumber": 96717,
      "transactionIndex": 0,
      "confirmations": null,
      "from": "0xA88577a073FbAF33C4cD202e00ea70ef711b4006",
      "gasPrice": {
        "_hex": "0x110c8f7d8de"
      },
      "gasLimit": {
        "_hex": "0xc350"
      },
      "to": "0x2910543Af39abA0Cd09dBb2D50200b3E800A63D2",
      "value": {
        "_hex": "0x3635c9adc5dea00000"
      },
      "nonce": 1,
      "data": "0x454e484e3745414347",
      "r": "0xc30414f89830019fdd69e22a331874d6a0b15359535611e51dd4598f1e050965",
      "s": "0x1b14039bcae3ea05011b3cb3d93d35cdbe013735319c32d3f5f5e15b9d4d1d88",
      "v": 27,
      "creates": null,
      "raw": "0xf87701860110c8f7d8de82c350942910543af39aba0cd09dbb2d50200b3e800a63d2893635c9adc5dea0000089454e484e37454143471ba0c30414f89830019fdd69e22a331874d6a0b15359535611e51dd4598f1e050965a01b14039bcae3ea05011b3cb3d93d35cdbe013735319c32d3f5f5e15b9d4d1d88",
      "networkId": 0,
      "chainId": 0
    },
    {
      "hash": "0x7014911c90bbcbf0f8c4e0ba2498f8be4ae74987e085b930515abc8d3a396d75",
      "blockHash": "0x8239e7abdf8bc49331e2887d85f302abc162b4a6df7eabbb89b535283ef9d88d",
      "blockNumber": 96717,
      "transactionIndex": 1,
      "confirmations": null,
      "from": "0x1261A4Ab33Df25bdf1Dc8922c51266a9b4bE9179",
      "gasPrice": {
        "_hex": "0xe09d77d53"
      },
      "gasLimit": {
        "_hex": "0x5208"
      },
      "to": "0x32Be343B94f860124dC4fEe278FDCBD38C102D88",
      "value": {
        "_hex": "0x4a93566dce8e7400"
      },
      "nonce": 0,
      "data": "0x",
      "r": "0x4699214965fb47d2e0c8db5b4d3f99cddd11086e83ebbf9ca50e836380156bb0",
      "s": "0x0f51fc033d839ed385e5651c01615cca0606a083e89020faba04295aefa432b3",
      "v": 28,
      "creates": null,
      "raw": "0xf86c80850e09d77d538252089432be343b94f860124dc4fee278fdcbd38c102d88884a93566dce8e7400801ca04699214965fb47d2e0c8db5b4d3f99cddd11086e83ebbf9ca50e836380156bb0a00f51fc033d839ed385e5651c01615cca0606a083e89020faba04295aefa432b3",
      "networkId": 0,
      "chainId": 0
    },
    {
      "hash": "0x02294988711480a89cf3986dff1e339f02f204fff9d5db341a4652286cd07ee8",
      "blockHash": "0x8239e7abdf8bc49331e2887d85f302abc162b4a6df7eabbb89b535283ef9d88d",
      "blockNumber": 96717,
      "transactionIndex": 2,
      "confirmations": null,
      "from": "0x61F642543d22bAf5382908a714E675Cc0b51ea45",
      "gasPrice": {
        "_hex": "0xcbce74c4c"
      },
      "gasLimit": {
        "_hex": "0x5208"
      },
      "to": "0x32Be343B94f860124dC4fEe278FDCBD38C102D88",
      "value": {
        "_hex": "0x8ac30e1bbd920000"
      },
      "nonce": 10,
      "data": "0x",
      "r": "0x4ebb37f61a842d934ff7674744c74ee995178c5bd9c85a7cc1d33fd0c29294b6",
      "s": "0x6e1a2d94b54d26356090d6c602720534029de69b1e262f84759b1b61dc89eb4c",
      "v": 28,
      "creates": null,
      "raw": "0xf86c0a850cbce74c4c8252089432be343b94f860124dc4fee278fdcbd38c102d88888ac30e1bbd920000801ca04ebb37f61a842d934ff7674744c74ee995178c5bd9c85a7cc1d33fd0c29294b6a06e1a2d94b54d26356090d6c602720534029de69b1e262f84759b1b61dc89eb4c",
      "networkId": 0,
      "chainId": 0
    }
  ]
}