{
  "hash": "0x6b0024b7f1962a5fddf8e1ac85ed7f99ac35f644a9bdd4aa7c63c415c0fe91f5",
  "parentHash": "0x793e2290798da88e37de865bcbcda133451646b39115fbf954ee1685a6afc874",
  "number": 54021,
  "timestamp": 1439047322,
  "nonce": "0x9bfc3675ad5143ad",
  "difficulty": 1612657378972,
  "gasLimit": {
    "_hex": "0x2fefd8"
  },
  "gasUsed": {
    "_hex": "0x5208"
  },
  "miner": "0xad7210d76107F888745616FFF7979623b84F928c",
  "extraData": "0x476574682f76312e302e312f77696e646f77732f676f312e342e32",
  "transactions": [
    {
      "hash": "0x78bb09b70a9a580db3e72497a1655bba19d9b7a3797ffca7a76add4468e06827",
      "blockHash": "0x6b0024b7f1962a5fddf8e1ac85ed7f99ac35f644a9bdd4aa7c63c415c0fe91f5",
      "blockNumber": 54021,
      "transactionIndex": 0,
      "confirmations": null,
      "from": "0x55e41D444E47017e36E07BD8f9a66569f97d638c",
      "gasPrice": {
        "_hex": "0x9184e72a000"
      },
      "gasLimit": {
        "_hex": "0x9965e"
      },
      "to": "0x0b9b56Fbc12d4bf5c15a51E67144e161F6f0e7D2",
      "value": {
        "_hex": "0xde0b6b3a7640000"
      },
      "nonce": 0,
      "data": "0x",
      "r": "0xedc8f6a3aafccb5df09f53cc59e370d90b75d75c84ced0fc86c236a2e130967f",
      "s": "0x2a95c57bddb942597a6c0c27f7219ad54a2e1da1acacff7db582f6468af38dae",
      "v": 27,
      "creates": null,
      "raw": "0xf86e808609184e72a0008309965e940b9b56fbc12d4bf5c15a51e67144e161f6f0e7d2880de0b6b3a7640000801ba0edc8f6a3aafccb5df09f53cc59e370d90b75d75c84ced0fc86c236a2e130967fa02a95c57bddb942597a6c0c27f7219ad54a2e1da1acacff7db582f6468af38dae",
      "networkId": 0,
      "chainId": 0
    }
  ]
}