{
  "hash": "0x4cdc7b9777df5a5c08094f6565f74d85e32858dda0ad582c747a6392df5c1e54",
  "parentHash": "0xad83bdf06334a3e750c77d1db72402a1d6ee727c13b7f8c35d110c14e1d1148f",
  "number": 85601,
  "timestamp": 1439565963,
  "nonce": "0xd8c8941b883d8f70",
  "difficulty": 2786816842935,
  "gasLimit": {
    "_hex": "0x2fefd8"
  },
  "gasUsed": {
    "_hex": "0x5208"
  },
  "miner": "0xC5624D986419AeBa6B6A7Ce5BAFd9883f75d8bc8",
  "extraData": "0x",
  "transactions": [
    {
      "hash": "0xbb9a6e7a34a36dec7a0be094efeb190e683fd6d287cc74ff66564e34331ae535",
      "blockHash": "0x4cdc7b9777df5a5c08094f6565f74d85e32858dda0ad582c747a6392df5c1e54",
      "blockNumber": 85601,
      "transactionIndex": 0,
      "confirmations": null,
      "from": "0x120A270bbC009644e35F0bB6ab13f95b8199c4ad",
      "gasPrice": {
        "_hex": "0xd44012176"
      },
      "gasLimit": {
        "_hex": "0x3d090"
      },
      "to": "0xFbc92cE518a6CA6341B08b4468880Cc9Dd61a027",
      "value": {
        "_hex": "0x16c805327dcebbf000"
      },
      "nonce": 463,
      "data": "0x",
      "r": "0x3c38f67d5ebad5547f7a0f2a102280d42d6f7d3433c82f88c5bd944397b782b9",
      "s": "0x0dcc068e4cb196dcbab6f97e90b86e4b4351179e295a85e4abd5f3b235fd30e4",
      "v": 28,
      "creates": null,
      "raw": "0xf8708201cf850d440121768303d09094fbc92ce518a6ca6341b08b4468880cc9dd61a0278916c805327dcebbf000801ca03c38f67d5ebad5547f7a0f2a102280d42d6f7d3433c82f88c5bd944397b782b9a00dcc068e4cb196dcbab6f97e90b86e4b4351179e295a85e4abd5f3b235fd30e4",
      "networkId": 0,
      "chainId": 0
    }
  ]
}