{
  "hash": "0xcdc95dc0a87859eaeb98e3e6dfb1ef80463b2f397438530da2d6c0c38766ff58",
  "parentHash": "0x32a6df676601ab0e36b67e24f318d8d386a79988afb17414809f93aed5ed984c",
  "number": 77349,
  "timestamp": 1439435696,
  "nonce": "0x78a59102137b77b6",
  "difficulty": 2241474091235,
  "gasLimit": {
    "_hex": "0x2fefd8"
  },
  "gasUsed": {
    "_hex": "0x5208"
  },
  "miner": "0x0eDEd3DA479d0beF8eeC92A76644D3f4E3C177f7",
  "extraData": "0x476574682f76312e302e312f6c696e75782f676f312e342e32",
  "transactions": [
    {
      "hash": "0xce7fb5044e4c1fb27344201270357a30531e2f5cf194012fc605d5743b708991",
      "blockHash": "0xcdc95dc0a87859eaeb98e3e6dfb1ef80463b2f397438530da2d6c0c38766ff58",
      "blockNumber": 77349,
      "transactionIndex": 0,
      "confirmations": null,
      "from": "0x96811Ad897894eC178872117C8BF2f03971A393B",
      "gasPrice": {
        "_hex": "0xe04ac355c"
      },
      "gasLimit": {
        "_hex": "0x5208"
      },
      "to": "0x32Be343B94f860124dC4fEe278FDCBD38C102D88",
      "value": {
        "_hex": "0x455f1392303d0c00"
      },
      "nonce": 19,
      "data": "0x",
      "r": "0x8a0310a7fff37a8acda49f726591c5b0d94be6bbd8a8bd6e3139b74f09bafa10",
      "s": "0x6184cb4d84555b1d453697b8b338ba7f5f03b007cb2e43fc2fe213e11cbc05f7",
      "v": 27,
      "creates": null,
      "raw": "0xf86c13850e04ac355c8252089432be343b94f860124dc4fee278fdcbd38c102d8888455f1392303d0c00801ba08a0310a7fff37a8acda49f726591c5b0d94be6bbd8a8bd6e3139b74f09bafa10a06184cb4d84555b1d453697b8b338ba7f5f03b007cb2e43fc2fe213e11cbc05f7",
      "networkId": 0,
      "chainId": 0
    }
  ]
}