{
  "hash": "0xb95b6a52bbd93034d1c2ea1c20e5370320fcee2dafe02a4406ff8ded464b194d",
  "parentHash": "0x5da5a82a2162b7bbc9b21a427573aa16c0f0890019ee00b2c2150c220af82d2b",
  "number": 101856,
  "timestamp": 1439829166,
  "nonce": "0xd92f94cf8f369577",
  "difficulty": 3890009213180,
  "gasLimit": {
    "_hex": "0x2fefd8"
  },
  "gasUsed": {
    "_hex": "0x5208"
  },
  "miner": "0x7aAaa306d4a7Fd1696A82A66cc538D29f5af4e39",
  "extraData": "0x",
  "transactions": [
    {
      "hash": "0xe93eb95b683f63636ff519a0470e0768814d4c385e9251473ae62303e5eec989",
      "blockHash": "0xb95b6a52bbd93034d1c2ea1c20e5370320fcee2dafe02a4406ff8ded464b194d",
      "blockNumber": 101856,
      "transactionIndex": 0,
      "confirmations": null,
      "from": "0x32Be343B94f860124dC4fEe278FDCBD38C102D88",
      "gasPrice": {
        "_hex": "0xdeb679d3d"
      },
      "gasLimit": {
        "_hex": "0x5208"
      },
      "to": "0xd856cb5a8323c061e65D749e43aBb043b56f0c04",
      "value": {
        "_hex": "0xde0b6b3a7640000"
      },
      "nonce": 1089,
      "data": "0x",
      "r": "0xfded0a54877622de62a3e37c307ec7d439e1f50a53493d52bdc9d5bea2fba9c5",
      "s": "0x7c7460dd0dcc0e0067d635ca67af85deb8e770683f919d312f34b372cc77db58",
      "v": 28,
      "creates": null,
      "raw": "0xf86e820441850deb679d3d82520894d856cb5a8323c061e65d749e43abb043b56f0c04880de0b6b3a7640000801ca0fded0a54877622de62a3e37c307ec7d439e1f50a53493d52bdc9d5bea2fba9c5a07c7460dd0dcc0e0067d635ca67af85deb8e770683f919d312f34b372cc77db58",
      "networkId": 0,
      "chainId": 0
    }
  ]
}