{
  "hash": "0xe2e90ce52e8eb92f2b8fb24a909c750ff848502ca2618c06d5079519583a775c",
  "parentHash": "0x8f5ccba18d0f395a7699f8fbf56b61ce3257cda6dcadf34377e0531bd77df2ba",
  "number": 84883,
  "timestamp": 1439555799,
  "nonce": "0x0c5adc2a5342b29c",
  "difficulty": 2662025180398,
  "gasLimit": {
    "_hex": "0x2fefd8"
  },
  "gasUsed": {
    "_hex": "0x5208"
  },
  "miner": "0xe6A7a1d47ff21B6321162AEA7C6CB457D5476Bca",
  "extraData": "0x476574682f76312e302e312d38326566323666362f6c696e75782f676f312e34",
  "transactions": [
    {
      "hash": "0x65b04a51be3e7ac2e42d4813f9398b0de019238db27a56d3f7f58fa1d8fa8640",
      "blockHash": "0xe2e90ce52e8eb92f2b8fb24a909c750ff848502ca2618c06d5079519583a775c",
      "blockNumber": 84883,
      "transactionIndex": 0,
      "confirmations": null,
      "from": "0x32Be343B94f860124dC4fEe278FDCBD38C102D88",
      "gasPrice": {
        "_hex": "0xd55479b5d"
      },
      "gasLimit": {
        "_hex": "0x5208"
      },
      "to": "0xa02Ee357e3f58B351a9Afb4063Ed995ba744350a",
      "value": {
        "_hex": "0x4fe12b545769c00"
      },
      "nonce": 712,
      "data": "0x",
      "r": "0xf0c2ba8acbbed9cb7bc94d9e871156163ac97ec2db85a852c13794cb1f812cd3",
      "s": "0x60b100ce6321f93e11525d91fd09d13b0b69e65fe5c0315ced28aa24e996ecab",
      "v": 28,
      "creates": null,
      "raw": "0xf86e8202c8850d55479b5d82520894a02ee357e3f58b351a9afb4063ed995ba744350a8804fe12b545769c00801ca0f0c2ba8acbbed9cb7bc94d9e871156163ac97ec2db85a852c13794cb1f812cd3a060b100ce6321f93e11525d91fd09d13b0b69e65fe5c0315ced28aa24e996ecab",
      "networkId": 0,
      "chainId": 0
    }
  ]
}