{
  "hash": "0x6768268cd1e7362e44b5c8173cf46692429a653e54881012f02daf24c2ac00e6",
  "parentHash": "0xe1c0005d34ee95c567169fa62012e32935276bd6f5ce766d1d3094c0ecc21fe3",
  "number": 116498,
  "timestamp": 1440075251,
  "nonce": "0x42309f0737b0f68a",
  "difficulty": 4557719214430,
  "gasLimit": {
    "_hex": "0x2fefd8"
  },
  "gasUsed": {
    "_hex": "0x5208"
  },
  "miner": "0xfC16BDee46D266b9a18F96E95c6Dc3f601B29b61",
  "extraData": "0x476574682f726967342f76312e302e312f77696e646f77732f676f312e342e32",
  "transactions": [
    {
      "hash": "0x19fedef211d1391984d5e954a7a36586c374be1ae77690b956d66dbf8ef4f8d7",
      "blockHash": "0x6768268cd1e7362e44b5c8173cf46692429a653e54881012f02daf24c2ac00e6",
      "blockNumber": 116498,
      "transactionIndex": 0,
      "confirmations": null,
      "from": "0x32Be343B94f860124dC4fEe278FDCBD38C102D88",
      "gasPrice": {
        "_hex": "0xdc3e7c635"
      },
      "gasLimit": {
        "_hex": "0x5208"
      },
      "to": "0x6Ea9d172E15e969316f49CB2D5549fc3b00c1ef3",
      "value": {
        "_hex": "0x6c6b6fd4994d800000"
      },
      "nonce": 1466,
      "data": "0x",
      "r": "0x78f061e24fd404f9c2fd7f7b8080c5da40e9f584cd6ee949c423464396120392",
      "s": "0x4e83e9371798c334c371a1ec4e936977e0ccc85135e0bd3d4cfb80d81ed5284a",
      "v": 27,
      "creates": null,
      "raw": "0xf86f8205ba850dc3e7c635825208946ea9d172e15e969316f49cb2d5549fc3b00c1ef3896c6b6fd4994d800000801ba078f061e24fd404f9c2fd7f7b8080c5da40e9f584cd6ee949c423464396120392a04e83e9371798c334c371a1ec4e936977e0ccc85135e0bd3d4cfb80d81ed5284a",
      "networkId": 0,
      "chainId": 0
    }
  ]
}