{
  "hash": "0x81440fd68d2da5258d78b0dc6a8602ff548d8a55e5a134e029c0a0637dda138b",
  "parentHash": "0x2f63a8520aac2bdd8d2305c8d6d9edb05c546ce31dc350a335e3dfa1b53bee3b",
  "number": 69113,
  "timestamp": 1439298473,
  "nonce": "0xf4194a358b8ab6df",
  "difficulty": 2058912697930,
  "gasLimit": {
    "_hex": "0x2fefd8"
  },
  "gasUsed": {
    "_hex": "0x8581"
  },
  "miner": "0x47ff6576639c2e94762eA5443978D7681C0E78DC",
  "extraData": "0x476574682f76312e302e312f6c696e75782f676f312e342e32",
  "transactions": [
    {
      "hash": "0x69b39785edd5aade2ca710a9266029caec40258efb1aac2bb21efa76ba9cf25c",
      "blockHash": "0x81440fd68d2da5258d78b0dc6a8602ff548d8a55e5a134e029c0a0637dda138b",
      "blockNumber": 69113,
      "transactionIndex": 0,
      "confirmations": null,
      "from": "0xa14Cf6cEC1c6aAe4b608458F6e14692863A937Aa",
      "gasPrice": {
        "_hex": "0xd5cdf79f8"
      },
      "gasLimit": {
        "_hex": "0x61a80"
      },
      "to": "0x5Fe5B7546D1628f7348B023A0393de1FC825A4fD",
      "value": {
        "_hex": "0x0"
      },
      "nonce": 15,
      "data": "0x572668030000000000000000000000000000000000000000000000056bc75e2d63100000",
      "r": "0xe05d91e196752527595ff0f4b855c233ce972b92ecaa451fb9a90ea2705892cf",
      "s": "0x5cf435b773a8b58d3eca6998ac6a8e98525e9395fee4afbb09d9fa8ed6a6cc73",
      "v": 27,
      "creates": null,
      "raw": "0xf8890f850d5cdf79f883061a80945fe5b7546d1628f7348b023a0393de1fc825a4fd80a4572668030000000000000000000000000000000000000000000000056bc75e2d631000001ba0e05d91e196752527595ff0f4b855c233ce972b92ecaa451fb9a90ea2705892cfa05cf435b773a8b58d3eca6998ac6a8e98525e9395fee4afbb09d9fa8ed6a6cc73",
      "networkId": 0,
      "chainId": 0
    }
  ]
}