{
  "hash": "0x87960549555bdaad92aac89d4ebfee5fdbcde6c301f662a00732c6dc236bb1b3",
  "parentHash": "0xd13fe0090ff1c2bc4567a25e3de9feeb27ef0d9e331c9ad8565723e6c58d9d23",
  "number": 98195,
  "timestamp": 1439768580,
  "nonce": "0xca19542732754532",
  "difficulty": 3870860590542,
  "gasLimit": {
    "_hex": "0x2fefd8"
  },
  "gasUsed": {
    "_hex": "0x5208"
  },
  "miner": "0x574FDcb2165600BA7FcF526D999380208DB10382",
  "extraData": "0x476574682f76312e302e312f6c696e75782f676f312e342e32",
  "transactions": [
    {
      "hash": "0x9cfc9c31047bca35f352580ef10f800534978675e2207d27ab3f00afbc218997",
      "blockHash": "0x87960549555bdaad92aac89d4ebfee5fdbcde6c301f662a00732c6dc236bb1b3",
      "blockNumber": 98195,
      "transactionIndex": 0,
      "confirmations": null,
      "from": "0x71762C63678C18D1C6378ce068E666381315147e",
      "gasPrice": {
        "_hex": "0x10d1422f29d"
      },
      "gasLimit": {
        "_hex": "0x55f0"
      },
      "to": "0x67A75F5fBBCa0974C961b43E7D62204a4093c1Bb",
      "value": {
        "_hex": "0x6c93d23a2e55e20000"
      },
      "nonce": 1,
      "data": "0x",
      "r": "0x8ae062fb179fb932a33635527698661bf70ee38deb0cfcb93c4723df97bbd9a7",
      "s": "0x736db29f5f3c2ce99fe171b1aa4a37609865ed3853cb939655bb043b03faea57",
      "v": 28,
      "creates": null,
      "raw": "0xf86e0186010d1422f29d8255f09467a75f5fbbca0974c961b43e7d62204a4093c1bb896c93d23a2e55e20000801ca08ae062fb179fb932a33635527698661bf70ee38deb0cfcb93c4723df97bbd9a7a0736db29f5f3c2ce99fe171b1aa4a37609865ed3853cb939655bb043b03faea57",
      "networkId": 0,
      "chainId": 0
    }
  ]
}