{
  "hash": "0x64cccf3cd8713e3d8fbfa55a9e04eb690af229f9296995847c4ce28a033c63a1",
  "parentHash": "0x8bdae7b2147d1f14642a4e8e7cdcf01e67f099983b321c0d67352985409cced6",
  "number": 120830,
  "timestamp": 1440166553,
  "nonce": "0xf9beb79de2114525",
  "difficulty": 4449841197413,
  "gasLimit": {
    "_hex": "0x2fefd8"
  },
  "gasUsed": {
    "_hex": "0x5208"
  },
  "miner": "0xc8aB34A1891E416F845A740f0203e2186f8BBd09",
  "extraData": "0xd783010002844765746887676f312e342e32856c696e7578",
  "transactions": [
    {
      "hash": "0x551b4120209220f4d874c25b75d6838f56e5afbf14af09e311d3add685c16e29",
      "blockHash": "0x64cccf3cd8713e3d8fbfa55a9e04eb690af229f9296995847c4ce28a033c63a1",
      "blockNumber": 120830,
      "transactionIndex": 0,
      "confirmations": null,
      "from": "0xaA35779Ef4dfBEd0B3D6F46F5f11cb86261B17A5",
      "gasPrice": {
        "_hex": "0xba43b7400"
      },
      "gasLimit": {
        "_hex": "0x61a8"
      },
      "to": "0x30beD8049947963394D93412326225E4e3123601",
      "value": {
        "_hex": "0xc93a592cfb2a0000"
      },
      "nonce": 20,
      "data": "0x",
      "r": "0x696d1a9f6e9f730a3bff206b78b41ede629063ae1254485015f2876223604be3",
      "s": "0x2cf8cf7a5c0c38cd7fb8c8d42071668ce114aa59e9a94dcd37a1edb0a643743b",
      "v": 27,
      "creates": null,
      "raw": "0xf86c14850ba43b74008261a89430bed8049947963394d93412326225e4e312360188c93a592cfb2a0000801ba0696d1a9f6e9f730a3bff206b78b41ede629063ae1254485015f2876223604be3a02cf8cf7a5c0c38cd7fb8c8d42071668ce114aa59e9a94dcd37a1edb0a643743b",
      "networkId": 0,
      "chainId": 0
    }
  ]
}