{
  "hash": "0x036e5da6b1950dbad3a65efa6c6e5b9aa3ac7fa625a51c8b021bb45f55cb4a7b",
  "parentHash": "0x9bc2b4d81906167e0633adedd49471096eabeb9469cb114f0fffc00a66ddbad5",
  "number": 51424,
  "timestamp": 1439004692,
  "nonce": "0x1fcb35c831b4fce3",
  "difficulty": 1564288721563,
  "gasLimit": {
    "_hex": "0xaf5f3"
  },
  "gasUsed": {
    "_hex": "0x546c"
  },
  "miner": "0xf8E0CA3Ed80bd541b94BEdCf259e8CF2141A9523",
  "extraData": "0x476574682f76312e302e312f77696e646f77732f676f312e342e32",
  "transactions": [
    {
      "hash": "0xe3f3ef15e4761ca96ac1a6389d8c7cb11df678f993b38726b2ca3f7c7759a63f",
      "blockHash": "0x036e5da6b1950dbad3a65efa6c6e5b9aa3ac7fa625a51c8b021bb45f55cb4a7b",
      "blockNumber": 51424,
      "transactionIndex": 0,
      "confirmations": null,
      "from": "0xAdF1aCFe99BC8C14B304c8D905Ba27657B8A7Bc4",
      "gasPrice": {
        "_hex": "0xcab87b0b0"
      },
      "gasLimit": {
        "_hex": "0x15f90"
      },
      "to": "0x2910543Af39abA0Cd09dBb2D50200b3E800A63D2",
      "value": {
        "_hex": "0x3635c9adc5dea00000"
      },
      "nonce": 1,
      "data": "0x454e36303044385247",
      "r": "0x7b41b09c54ed865703b50190730e1dc15b7b8172b3a83a0664334c80b7669823",
      "s": "0x0a617abb1fe1a0b2f78db12b7d56022353925a4f10047256a9a28c6d82cf2fb1",
      "v": 28,
      "creates": null,
      "raw": "0xf87701850cab87b0b083015f90942910543af39aba0cd09dbb2d50200b3e800a63d2893635c9adc5dea0000089454e363030443852471ca07b41b09c54ed865703b50190730e1dc15b7b8172b3a83a0664334c80b7669823a00a617abb1fe1a0b2f78db12b7d56022353925a4f10047256a9a28c6d82cf2fb1",
      "networkId": 0,
      "chainId": 0
    }
  ]
}