{
  "hash": "0xb3937b03235d807cde0858ca2a19b768c81c73e38fa7fb458df2e291fe36f40b",
  "parentHash": "0x25fb82a1bc7d6524da6e0c0ab879e1c07ee6f8e36aaa85032d5e08d3f4291de9",
  "number": 53258,
  "timestamp": 1439034854,
  "nonce": "0xd4edc13060ebf3bc",
  "difficulty": 1580837528869,
  "gasLimit": {
    "_hex": "0x22fc55"
  },
  "gasUsed": {
    "_hex": "0xf4240"
  },
  "miner": "0xF2d2AfF1320476cb8C6b607199D23175cc595693",
  "extraData": "0x476574682f76312e302e312f77696e646f77732f676f312e342e32",
  "transactions": [
    {
      "hash": "0x3486141f47c1c05a43d3564fe2774cb53c06f804d76ba0d521074f7ab99434da",
      "blockHash": "0xb3937b03235d807cde0858ca2a19b768c81c73e38fa7fb458df2e291fe36f40b",
      "blockNumber": 53258,
      "transactionIndex": 0,
      "confirmations": null,
      "from": "0x8674c218F0351a62C3BA78C34FD2182A93Da94E2",
      "gasPrice": {
        "_hex": "0xba43b7400"
      },
      "gasLimit": {
        "_hex": "0xf4240"
      },
      "to": "0x18991fC52465c9Cb2cA762947e855beb2ddfff72",
      "value": {
        "_hex": "0x0"
      },
      "nonce": 10,
      "data": "0xde6f24bb0000000000000000000000008674c218f0351a62c3ba78c34fd2182a93da94e20000000000000000000000000000000000000000000000000000000000000040000000000000000000000000000000000000000000000000000000000000000568656c6c6f000000000000000000000000000000000000000000000000000000",
      "r": "0xd3f5d001968c0e9b9bb21d5c3617a5cb52cb5d9e6b0b98bdf4dd5fb70d066a73",
      "s": "0x242fd9a4a2c5ef46887f0ac887596babde836a754a7cabb7ec6951c5abcccb6c",
      "v": 28,
      "creates": null,
      "raw": "0xf8ea0a850ba43b7400830f42409418991fc52465c9cb2ca762947e855beb2ddfff7280b884de6f24bb0000000000000000000000008674c218f0351a62c3ba78c34fd2182a93da94e20000000000000000000000000000000000000000000000000000000000000040000000000000000000000000000000000000000000000000000000000000000568656c6c6f0000000000000000000000000000000000000000000000000000001ca0d3f5d001968c0e9b9bb21d5c3617a5cb52cb5d9e6b0b98bdf4dd5fb70d066a73a0242fd9a4a2c5ef46887f0ac887596babde836a754a7cabb7ec6951c5abcccb6c",
      "networkId": 0,
      "chainId": 0
    }
  ]
}