{
  "hash": "0x950096bd2bdf5fb0c5a16951aa17078e441e516f5633264a7b7165eea2a02099",
  "parentHash": "0x6dac29bf739dbbb06451c9b679c0518e24b7988f9e0fd124c26bc025ed56c655",
  "number": 46692,
  "timestamp": 1438927506,
  "nonce": "0x953035aa733fc29e",
  "difficulty": 1460325542434,
  "gasLimit": {
    "_hex": "0x71ed"
  },
  "gasUsed": {
    "_hex": "0x5208"
  },
  "miner": "0xf927a40C8B7F6E07c5af7FA2155B4864a4112B13",
  "extraData": "0x476574682f76312e302e312f6c696e75782f676f312e342e32",
  "transactions": [
    {
      "hash": "0x21219c2b76aaff1e9f40f4c5b917ff0ae22eeee4065a7f0f70d3eb8f06e21839",
      "blockHash": "0x950096bd2bdf5fb0c5a16951aa17078e441e516f5633264a7b7165eea2a02099",
      "blockNumber": 46692,
      "transactionIndex": 0,
      "confirmations": null,
      "from": "0xB0bF4A71F730782368Ef660FE6D298F432F95450",
      "gasPrice": {
        "_hex": "0xd40a92ef1"
      },
      "gasLimit": {
        "_hex": "0x5208"
      },
      "to": "0x32Be343B94f860124dC4fEe278FDCBD38C102D88",
      "value": {
        "_hex": "0x6c6b8f276c31800000"
      },
      "nonce": 1,
      "data": "0x",
      "r": "0xb9788b2e991e5bb0478ef9f2c3cece46adf6c538810d7c0c682c89c33692f32c",
      "s": "0x005f86f8109aeec8ae1d86fd6648470b60462f2bde1ebf6e6ca5c0fe4425eb5b",
      "v": 28,
      "creates": null,
      "raw": "0xf86c01850d40a92ef18252089432be343b94f860124dc4fee278fdcbd38c102d88896c6b8f276c31800000801ca0b9788b2e991e5bb0478ef9f2c3cece46adf6c538810d7c0c682c89c33692f32c9f5f86f8109aeec8ae1d86fd6648470b60462f2bde1ebf6e6ca5c0fe4425eb5b",
      "networkId": 0,
      "chainId": 0
    }
  ]
}