{
  "hash": "0x9660c9c844ebc594915bc8ead1884621ac1b396e64fe0ff121957d949795f572",
  "parentHash": "0x1d7dead395a019c68a0e2c513c9a89c7fe6a73e77b1908d7aa9d6ebb625620af",
  "number": 47266,
  "timestamp": 1438937057,
  "nonce": "0xde05cc681dbc8762",
  "difficulty": 1465940783347,
  "gasLimit": {
    "_hex": "0xaa6d"
  },
  "gasUsed": {
    "_hex": "0x5208"
  },
  "miner": "0xbb7B8287f3F0a933474a79eAe42CBCa977791171",
  "extraData": "0x476574682f4c5649562f76312e302e312f6c696e75782f676f312e342e32",
  "transactions": [
    {
      "hash": "0x9733e3fec800d6aa3427efcccc7e780ac8fdb9820926ee5976163b5b1a0c4872",
      "blockHash": "0x9660c9c844ebc594915bc8ead1884621ac1b396e64fe0ff121957d949795f572",
      "blockNumber": 47266,
      "transactionIndex": 0,
      "confirmations": null,
      "from": "0xb583f9403De6C5B2c83D7e2DE9928331176071b8",
      "gasPrice": {
        "_hex": "0xd92460673"
      },
      "gasLimit": {
        "_hex": "0x5208"
      },
      "to": "0x32Be343B94f860124dC4fEe278FDCBD38C102D88",
      "value": {
        "_hex": "0x45378ff88c065400"
      },
      "nonce": 6,
      "data": "0x",
      "r": "0xcd910278a622a5266224049f10d19e82fcb2166d41ac295c21fb1e272d52021f",
      "s": "0x1b8211608f4a0b8daa8fe13a7fec385601395b812c7c6b0ee90e22175979730f",
      "v": 27,
      "creates": null,
      "raw": "0xf86c06850d924606738252089432be343b94f860124dc4fee278fdcbd38c102d888845378ff88c065400801ba0cd910278a622a5266224049f10d19e82fcb2166d41ac295c21fb1e272d52021fa01b8211608f4a0b8daa8fe13a7fec385601395b812c7c6b0ee90e22175979730f",
      "networkId": 0,
      "chainId": 0
    }
  ]
}