{
  "hash": "0x761ddaef06a7aae3f1a7a510e036022f32c6206301de97affef7eda64304123a",
  "parentHash": "0x53428baa5594f438d79ac264455ff233fc232242eba520abb02115c71e0ec159",
  "number": 48593,
  "timestamp": 1438959567,
  "nonce": "0x7d73a4bc65b8b6b4",
  "difficulty": 1467857511424,
  "gasLimit": {
    "_hex": "0x1a2fc"
  },
  "gasUsed": {
    "_hex": "0x546c"
  },
  "miner": "0x70137010922f2fC2964b3792907F79FBB75fEbe8",
  "extraData": "0x476574682f76312e302e302f6c696e75782f676f312e342e32",
  "transactions": [
    {
      "hash": "0x271f36aed673385cf37c99608b98278e14a1c04837576c911615d4756b1b10cc",
      "blockHash": "0x761ddaef06a7aae3f1a7a510e036022f32c6206301de97affef7eda64304123a",
      "blockNumber": 48593,
      "transactionIndex": 0,
      "confirmations": null,
      "from": "0x88c2516A7Cdb09a6276D7297d30f5a4DB1E84B86",
      "gasPrice": {
        "_hex": "0x10f95d13a0a"
      },
      "gasLimit": {
        "_hex": "0x15f90"
      },
      "to": "0x2910543Af39abA0Cd09dBb2D50200b3E800A63D2",
      "value": {
        "_hex": "0x5150ae84a8cdf00000"
      },
      "nonce": 2,
      "data": "0x454e33583632563030",
      "r": "0x408e006a06de935b18f7936b9ac4cfd073b54ff5e8b186c279f92ec308abcd1d",
      "s": "0x0372f7159e674f3ee6419d728c94a62a4a91a110a01da9f94e79f98d3cf83c54",
      "v": 27,
      "creates": null,
      "raw": "0xf8780286010f95d13a0a83015f90942910543af39aba0cd09dbb2d50200b3e800a63d2895150ae84a8cdf0000089454e335836325630301ba0408e006a06de935b18f7936b9ac4cfd073b54ff5e8b186c279f92ec308abcd1da00372f7159e674f3ee6419d728c94a62a4a91a110a01da9f94e79f98d3cf83c54",
      "networkId": 0,
      "chainId": 0
    }
  ]
}