{
  "hash": "0x2398c7b58feb3776165941e2621c74bf8f7e4d2b8db0d891a3c4ac1d31c36e25",
  "parentHash": "0x98f022fda35a38ae93e73a0611e5e7d4715bdb8b6e92abe62f39526a1da0e60b",
  "number": 65663,
  "timestamp": 1439240828,
  "nonce": "0x4395ef2ff478b6cf",
  "difficulty": 1936855645072,
  "gasLimit": {
    "_hex": "0x2fefd8"
  },
  "gasUsed": {
    "_hex": "0x5208"
  },
  "miner": "0x31995C46B15C84523cDEE26f49A681b8237e43F5",
  "extraData": "0x476574682f76312e302e312f77696e646f77732f676f312e342e32",
  "transactions": [
    {
      "hash": "0x8e765029aa5b4e6143e52f0699bbf2d0b030b1394c76147fc5520261f9dc229b",
      "blockHash": "0x2398c7b58feb3776165941e2621c74bf8f7e4d2b8db0d891a3c4ac1d31c36e25",
      "blockNumber": 65663,
      "transactionIndex": 0,
      "confirmations": null,
      "from": "0x2910543Af39abA0Cd09dBb2D50200b3E800A63D2",
      "gasPrice": {
        "_hex": "0xd14500c6d"
      },
      "gasLimit": {
        "_hex": "0x5208"
      },
      "to": "0xeaFEB1b2f6e49343a54958E4fBB29d56fb450F5F",
      "value": {
        "_hex": "0x6c5da0e15eddfb8000"
      },
      "nonce": 184,
      "data": "0x",
      "r": "0x2dd59fb7b7d428779eafe417118913145066c1e1bc79d0504863059cd7d01189",
      "s": "0x78e322aea0b2f3506e893f45336cdb9062f8f1f6fc47233fd2d53775f1a10388",
      "v": 27,
      "creates": null,
      "raw": "0xf86e81b8850d14500c6d82520894eafeb1b2f6e49343a54958e4fbb29d56fb450f5f896c5da0e15eddfb8000801ba02dd59fb7b7d428779eafe417118913145066c1e1bc79d0504863059cd7d01189a078e322aea0b2f3506e893f45336cdb9062f8f1f6fc47233fd2d53775f1a10388",
      "networkId": 0,
      "chainId": 0
    }
  ]
}