{
  "hash": "0xdee9a24d764c703018e983d8d3d63251900be04fc536981034a0fe07a4703b84",
  "parentHash": "0x101b722700de152d94617832141a30e96afff5ebba2a87c1d690647e885ebbda",
  "number": 56738,
  "timestamp": 1439091770,
  "nonce": "0xdf951b824d977c8e",
  "difficulty": 1688678372740,
  "gasLimit": {
    "_hex": "0x2fefd2"
  },
  "gasUsed": {
    "_hex": "0x1f903"
  },
  "miner": "0xf8E0CA3Ed80bd541b94BEdCf259e8CF2141A9523",
  "extraData": "0x476574682f76312e302e312f77696e646f77732f676f312e342e32",
  "transactions": [
    {
      "hash": "0xc94e2622511e0d950e42582ec36130d71c4b4370c6bcfda8c7031666792527cf",
      "blockHash": "0xdee9a24d764c703018e983d8d3d63251900be04fc536981034a0fe07a4703b84",
      "blockNumber": 56738,
      "transactionIndex": 0,
      "confirmations": null,
      "from": "0xFD2605a2bF58fDbB90db1Da55dF61628B47F9e8c",
      "gasPrice": {
        "_hex": "0xdc44a213f"
      },
      "gasLimit": {
        "_hex": "0x7a120"
      },
      "to": "0x7AF6Af3d4491A161670837d0737baDA43FfbB992",
      "value": {
        "_hex": "0x0"
      },
      "nonce": 46,
      "data": "0x7c1c171600000000000000000000000000000000000000000000000000000000075bcd15",
      "r": "0x87053c6bb9800c86c6a6f69231bc97c0d89daf471f60e0ca2befb3c4721157e5",
      "s": "0x205c7853d0a75be4916756abadd8d6b8a29092c154fa1f2af9ff41c34ad980cc",
      "v": 27,
      "creates": null,
      "raw": "0xf8892e850dc44a213f8307a120947af6af3d4491a161670837d0737bada43ffbb99280a47c1c171600000000000000000000000000000000000000000000000000000000075bcd151ba087053c6bb9800c86c6a6f69231bc97c0d89daf471f60e0ca2befb3c4721157e5a0205c7853d0a75be4916756abadd8d6b8a29092c154fa1f2af9ff41c34ad980cc",
      "networkId": 0,
      "chainId": 0
    }
  ]
}