{
  "hash": "0xc1b61e3f4df989e1f347a7bf71a258a8041c931825833e360f825b5f537ba33c",
  "parentHash": "0xa58afff5d0a3f3be5746f70e439bcd90e08587929c4251be1d8f12ac01b795b3",
  "number": 100897,
  "timestamp": 1439814203,
  "nonce": "0xcb18ae11349573c5",
  "difficulty": 3865836897828,
  "gasLimit": {
    "_hex": "0x2fefd8"
  },
  "gasUsed": {
    "_hex": "0x101aa"
  },
  "miner": "0x35e8e5dC5FBd97c5b421A80B596C030a2Be2A04D",
  "extraData": "0x476574682f76312e302e312f6c696e75782f676f312e342e32",
  "transactions": [
    {
      "hash": "0xde78b9cdf3ba5fcb1669e4881f16ae8561b2835ca555325a599f09dc1f98f8eb",
      "blockHash": "0xc1b61e3f4df989e1f347a7bf71a258a8041c931825833e360f825b5f537ba33c",
      "blockNumber": 100897,
      "transactionIndex": 0,
      "confirmations": null,
      "from": "0x007f7f58D3eb5b7510A301eCC749FC1fCDDBE14D",
      "gasPrice": {
        "_hex": "0xe0cfe7246"
      },
      "gasLimit": {
        "_hex": "0x15f90"
      },
      "to": "0xb1abce2918E21ddb93AA452731a12672A3d9F75a",
      "value": {
        "_hex": "0x4563918244f40000"
      },
      "nonce": 174,
      "data": "0x",
      "r": "0x1297f25dbffad6c0ec7fe9b19c2dc3fe2797a41213622072fe9d6dd01172c68d",
      "s": "0x117f901378c3af217ebd3f3b22c37ba52a26496f6f1852125708afd20b0affd8",
      "v": 28,
      "creates": null,
      "raw": "0xf86e81ae850e0cfe724683015f9094b1abce2918e21ddb93aa452731a12672a3d9f75a884563918244f40000801ca01297f25dbffad6c0ec7fe9b19c2dc3fe2797a41213622072fe9d6dd01172c68da0117f901378c3af217ebd3f3b22c37ba52a26496f6f1852125708afd20b0affd8",
      "networkId": 0,
      "chainId": 0
    },
    {
      "hash": "0x5b54180327e3efcfc437361ca1c2889a0ab495f556ba7346ee0a7e7a6efe2f7e",
      "blockHash": "0xc1b61e3f4df989e1f347a7bf71a258a8041c931825833e360f825b5f537ba33c",
      "blockNumber": 100897,
      "transactionIndex": 1,
      "confirmations": null,
      "from": "0xAcE365e4cD93314Ccf1C389F17216FFC5966BB1F",
      "gasPrice": {
        "_hex": "0xd280d0b19"
      },
      "gasLimit": {
        "_hex": "0xf4240"
      },
      "to": "0x449C5B639e9852aDA644ffaACfE325dFcE6E6E0A",
      "value": {
        "_hex": "0x0"
      },
      "nonce": 4,
      "data": "0x34af2ade000000000000000000000000000000000000000000000000000000000000000a000000000000000000000000ace365e4cd93314ccf1c389f17216ffc5966bb1f",
      "r": "0x89a62e9e8c77713e7b12c9ceb1a5b2fb47d315d365b86713c0220df6ee8c843c",
      "s": "0x21ab96e5910941316304d66c1e209ecb1b6ad4d1ba33ab218f30b63b2dc0c540",
      "v": 28,
      "creates": null,
      "raw": "0xf8aa04850d280d0b19830f424094449c5b639e9852ada644ffaacfe325dfce6e6e0a80b84434af2ade000000000000000000000000000000000000000000000000000000000000000a000000000000000000000000ace365e4cd93314ccf1c389f17216ffc5966bb1f1ca089a62e9e8c77713e7b12c9ceb1a5b2fb47d315d365b86713c0220df6ee8c843ca021ab96e5910941316304d66c1e209ecb1b6ad4d1ba33ab218f30b63b2dc0c540",
      "networkId": 0,
      "chainId": 0
    }
  ]
}