{
  "hash": "0xa3dcfc2258e3682bf426cbd74271c3d1f1336f6a0eeb034b76981b3eb4eb1240",
  "parentHash": "0x71e2ada5c43822561f36667da0f199a4972c55c37c42508ffa3e07b993130df8",
  "number": 121797,
  "timestamp": 1440182671,
  "nonce": "0x5c7e8a57dd2a6c92",
  "difficulty": 4495185976861,
  "gasLimit": {
    "_hex": "0x2fefd8"
  },
  "gasUsed": {
    "_hex": "0xa410"
  },
  "miner": "0xe6A7a1d47ff21B6321162AEA7C6CB457D5476Bca",
  "extraData": "0xd783010002844765746887676f312e342e32856c696e7578",
  "transactions": [
    {
      "hash": "0xcad4746b058e17ccf1639ba2a405ab5fcf58d488a8061c1d595f50c69c233610",
      "blockHash": "0xa3dcfc2258e3682bf426cbd74271c3d1f1336f6a0eeb034b76981b3eb4eb1240",
      "blockNumber": 121797,
      "transactionIndex": 0,
      "confirmations": null,
      "from": "0x32Be343B94f860124dC4fEe278FDCBD38C102D88",
      "gasPrice": {
        "_hex": "0xcd597e83b"
      },
      "gasLimit": {
        "_hex": "0x5208"
      },
      "to": "0xdB73C34EcF0048c947189db06659F672a357726A",
      "value": {
        "_hex": "0x2a9c5a714e378a00000"
      },
      "nonce": 1575,
      "data": "0x",
      "r": "0x242d3329338def7d924a5cf3f92d6813748555af8f7bca9fe95ffb9574b63496",
      "s": "0x5bb34956db0644bbfffd09e0ee6451f18eb5a053e3c09933b529ddfd51abc4f9",
      "v": 28,
      "creates": null,
      "raw": "0xf870820627850cd597e83b82520894db73c34ecf0048c947189db06659f672a357726a8a02a9c5a714e378a00000801ca0242d3329338def7d924a5cf3f92d6813748555af8f7bca9fe95ffb9574b63496a05bb34956db0644bbfffd09e0ee6451f18eb5a053e3c09933b529ddfd51abc4f9",
      "networkId": 0,
      "chainId": 0
    },
    {
      "hash": "0x26af39d8973488da86fef755cf298bfa1fed387488c4083f7bb3f04db5e9bd71",
      "blockHash": "0xa3dcfc2258e3682bf426cbd74271c3d1f1336f6a0eeb034b76981b3eb4eb1240",
      "blockNumber": 121797,
      "transactionIndex": 1,
      "confirmations": null,
      "from": "0x32Be343B94f860124dC4fEe278FDCBD38C102D88",
      "gasPrice": {
        "_hex": "0xcd597e83b"
      },
      "gasLimit": {
        "_hex": "0x5208"
      },
      "to": "0x1A45221Bb8D9c78D59bf1De0B3a361F5da3f965E",
      "value": {
        "_hex": "0x1efc3ba89be5da000"
      },
      "nonce": 1576,
      "data": "0x",
      "r": "0x1fa65fdfcc7dfd9f93429fb4e12f57ae90a6122127a2d6a1480d93b17caa6c40",
      "s": "0x149f314cf0f0e24d33cd9a4ba7b8b89eeb7c30e01cf25dc8fb6cabece2dd866a",
      "v": 27,
      "creates": null,
      "raw": "0xf86f820628850cd597e83b825208941a45221bb8d9c78d59bf1de0b3a361f5da3f965e8901efc3ba89be5da000801ba01fa65fdfcc7dfd9f93429fb4e12f57ae90a6122127a2d6a1480d93b17caa6c40a0149f314cf0f0e24d33cd9a4ba7b8b89eeb7c30e01cf25dc8fb6cabece2dd866a",
      "networkId": 0,
      "chainId": 0
    }
  ]
}