{
  "hash": "0x53619715d5c73a1ad26f8c836b26cdf7563e98428b3b5b66e6f13fc0fd271a1e",
  "parentHash": "0x6009bc88f1b796bf26a857a2033744bf40e831f673bc4b2d0b117c69f45c362a",
  "number": 118906,
  "timestamp": 1440133350,
  "nonce": "0xcba7b9eb11bec34d",
  "difficulty": 4403305812791,
  "gasLimit": {
    "_hex": "0x2fefd8"
  },
  "gasUsed": {
    "_hex": "0x5208"
  },
  "miner": "0x52bc44d5378309EE2abF1539BF71dE1b7d7bE3b5",
  "extraData": "0xd783010002844765746887676f312e342e32856c696e7578",
  "transactions": [
    {
      "hash": "0xa9e5b6ed32adeba27f6fd0fdab47eacd5cd8911291c11ecd458c07b454c366a9",
      "blockHash": "0x53619715d5c73a1ad26f8c836b26cdf7563e98428b3b5b66e6f13fc0fd271a1e",
      "blockNumber": 118906,
      "transactionIndex": 0,
      "confirmations": null,
      "from": "0x4D67f4F0Db45b3B5a3424B39ed8d972F710381D5",
      "gasPrice": {
        "_hex": "0xba43b7400"
      },
      "gasLimit": {
        "_hex": "0x5208"
      },
      "to": "0x32Be343B94f860124dC4fEe278FDCBD38C102D88",
      "value": {
        "_hex": "0x82b5e3896765a8000"
      },
      "nonce": 52,
      "data": "0x",
      "r": "0x0dceacfd3f0a73822248c268f5ec8dc5a16e625de4e4bee0b600ecb3a1ce7dba",
      "s": "0x7a2f68e3be7fc67e1d67ca6f631ed452e211eb1bde4461699714d0613c662382",
      "v": 28,
      "creates": null,
      "raw": "0xf86d34850ba43b74008252089432be343b94f860124dc4fee278fdcbd38c102d8889082b5e3896765a8000801ca00dceacfd3f0a73822248c268f5ec8dc5a16e625de4e4bee0b600ecb3a1ce7dbaa07a2f68e3be7fc67e1d67ca6f631ed452e211eb1bde4461699714d0613c662382",
      "networkId": 0,
      "chainId": 0
    }
  ]
}