{
  "hash": "0x6e7925ab93c5ffe6b0715d93b2bbf4f274adbc1f7b1a46306e8dee4b2db268ff",
  "parentHash": "0x4774a93e81300f1ce0bebd184626e558501c4248571f4b64435cc70e19ef3450",
  "number": 63678,
  "timestamp": 1439208332,
  "nonce": "0x25328708f14ac286",
  "difficulty": 1844090269412,
  "gasLimit": {
    "_hex": "0x2fefd8"
  },
  "gasUsed": {
    "_hex": "0x5208"
  },
  "miner": "0x47ff6576639c2e94762eA5443978D7681C0E78DC",
  "extraData": "0x476574682f76312e302e312f6c696e75782f676f312e342e32",
  "transactions": [
    {
      "hash": "0xfa491c47461944629089aa9e13384f4f7968fde1ce9afaf66af2b626c03a48cc",
      "blockHash": "0x6e7925ab93c5ffe6b0715d93b2bbf4f274adbc1f7b1a46306e8dee4b2db268ff",
      "blockNumber": 63678,
      "transactionIndex": 0,
      "confirmations": null,
      "from": "0x2910543Af39abA0Cd09dBb2D50200b3E800A63D2",
      "gasPrice": {
        "_hex": "0xd57ec5779"
      },
      "gasLimit": {
        "_hex": "0x5208"
      },
      "to": "0x77b887762b497d2f8Cf6fE95d502D7081A867f0F",
      "value": {
        "_hex": "0x15181ff25a98000"
      },
      "nonce": 130,
      "data": "0x",
      "r": "0x4f17992b4c1303acebbe5e0ad9e1977dee007913b5e4ece7674d36ff947d7c13",
      "s": "0x1a85e0d26407181e233ea838941fcfc2cb6be77921c244ab087180307cddaad3",
      "v": 27,
      "creates": null,
      "raw": "0xf86d8182850d57ec57798252089477b887762b497d2f8cf6fe95d502d7081a867f0f88015181ff25a98000801ba04f17992b4c1303acebbe5e0ad9e1977dee007913b5e4ece7674d36ff947d7c13a01a85e0d26407181e233ea838941fcfc2cb6be77921c244ab087180307cddaad3",
      "networkId": 0,
      "chainId": 0
    }
  ]
}