{
  "hash": "0xd01342957b0f4fe6beacfe52ea5bb4f915a038c3538f30e43d79bc3627837361",
  "parentHash": "0x375d18619a94a100a310d4fe2be934476b20160d7ebad14acb6050aba91aa3f8",
  "number": 75152,
  "timestamp": 1439398492,
  "nonce": "0xae8ca406461af5f1",
  "difficulty": 2197622503754,
  "gasLimit": {
    "_hex": "0x2fefd8"
  },
  "gasUsed": {
    "_hex": "0xf87c"
  },
  "miner": "0x0eDEd3DA479d0beF8eeC92A76644D3f4E3C177f7",
  "extraData": "0x476574682f76312e302e312f6c696e75782f676f312e342e32",
  "transactions": [
    {
      "hash": "0x7a16d1c873f9732cc2e6378e2a56343cfb2841179b9465f2ed097c10ded49123",
      "blockHash": "0xd01342957b0f4fe6beacfe52ea5bb4f915a038c3538f30e43d79bc3627837361",
      "blockNumber": 75152,
      "transactionIndex": 0,
      "confirmations": null,
      "from": "0x8F79f76381Aad7B98C19aF55eE75fdfEeb012211",
      "gasPrice": {
        "_hex": "0xdcde472f2"
      },
      "gasLimit": {
        "_hex": "0x5208"
      },
      "to": "0x32Be343B94f860124dC4fEe278FDCBD38C102D88",
      "value": {
        "_hex": "0xad78a4ff8530e0000"
      },
      "nonce": 9,
      "data": "0x",
      "r": "0x95e052504c013a2c6becdacb848a5f2c8ec9261158ff99ad277abff502ddc0f2",
      "s": "0x7ff45b909821c7b02b47d8b563da253501ada216b57090206a6a612597d3879d",
      "v": 27,
      "creates": null,
      "raw": "0xf86d09850dcde472f28252089432be343b94f860124dc4fee278fdcbd38c102d88890ad78a4ff8530e0000801ba095e052504c013a2c6becdacb848a5f2c8ec9261158ff99ad277abff502ddc0f2a07ff45b909821c7b02b47d8b563da253501ada216b57090206a6a612597d3879d",
      "networkId": 0,
      "chainId": 0
    },
    {
      "hash": "0x3eca4595fe9b3912d944d1e8036f21828436100fe21c36690e0e4ac8355d15d3",
      "blockHash": "0xd01342957b0f4fe6beacfe52ea5bb4f915a038c3538f30e43d79bc3627837361",
      "blockNumber": 75152,
      "transactionIndex": 1,
      "confirmations": null,
      "from": "0x60781265e9850f54AE0Bc9545948d05DeE6FC3e3",
      "gasPrice": {
        "_hex": "0xdcde472f2"
      },
      "gasLimit": {
        "_hex": "0x5208"
      },
      "to": "0x32Be343B94f860124dC4fEe278FDCBD38C102D88",
      "value": {
        "_hex": "0xddc4a513451f400"
      },
      "nonce": 1,
      "data": "0x",
      "r": "0xffc14695eb49cbd436ff1b5bea3d38131387170bf9f67e3710db32cfefd08347",
      "s": "0x3c0071de45aec8b07035d441d213c6bfabbcbd3c15ed301dc40b206cf5499238",
      "v": 28,
      "creates": null,
      "raw": "0xf86c01850dcde472f28252089432be343b94f860124dc4fee278fdcbd38c102d88880ddc4a513451f400801ca0ffc14695eb49cbd436ff1b5bea3d38131387170bf9f67e3710db32cfefd08347a03c0071de45aec8b07035d441d213c6bfabbcbd3c15ed301dc40b206cf5499238",
      "networkId": 0,
      "chainId": 0
    },
    {
      "hash": "0x56035296c3e93124fadcbc57eb0c340dba17c0053bee9a2dfa49a344499e37ee",
      "blockHash": "0xd01342957b0f4fe6beacfe52ea5bb4f915a038c3538f30e43d79bc3627837361",
      "blockNumber": 75152,
      "transactionIndex": 2,
      "confirmations": null,
      "from": "0xfaAD905D847c7b23418AEeCbE3ADdB8DD3f8924a",
      "gasPrice": {
        "_hex": "0xd60340b78"
      },
      "gasLimit": {
        "_hex": "0x15f90"
      },
      "to": "0x2910543Af39abA0Cd09dBb2D50200b3E800A63D2",
      "value": {
        "_hex": "0x19cdd3b60b3df00000"
      },
      "nonce": 3,
      "data": "0x454e5743414d595647",
      "r": "0xb189ca284165c632e879c4aa8387be4068b9d81481fd5ecf0c5537cd6ead979d",
      "s": "0x65c13c6f886298972e8ad1b2175228815e120f641adf8f3ff6c9326e406b365e",
      "v": 28,
      "creates": null,
      "raw": "0xf87703850d60340b7883015f90942910543af39aba0cd09dbb2d50200b3e800a63d28919cdd3b60b3df0000089454e5743414d5956471ca0b189ca284165c632e879c4aa8387be4068b9d81481fd5ecf0c5537cd6ead979da065c13c6f886298972e8ad1b2175228815e120f641adf8f3ff6c9326e406b365e",
      "networkId": 0,
      "chainId": 0
    }
  ]
}