{
  "hash": "0xb7c2606c24f2b649a07280fec829750c7af706391aa3352210600f81a692c215",
  "parentHash": "0xd34146a4a4d0c8ca581b7843bcbf70a565786fbbfa63301e52da76e1dd30f355",
  "number": 111412,
  "timestamp": 1439989840,
  "nonce": "0x416bc5372337fc69",
  "difficulty": 4433140768302,
  "gasLimit": {
    "_hex": "0x2fefd8"
  },
  "gasUsed": {
    "_hex": "0x5208"
  },
  "miner": "0x623d2411c3bb3340784155F9a688b0085251aB5c",
  "extraData": "0x",
  "transactions": [
    {
      "hash": "0x6d579eadb0013b57c242489e4177aa99b5e7724d3093cc98c26344afffecd50f",
      "blockHash": "0xb7c2606c24f2b649a07280fec829750c7af706391aa3352210600f81a692c215",
      "blockNumber": 111412,
      "transactionIndex": 0,
      "confirmations": null,
      "from": "0x32Be343B94f860124dC4fEe278FDCBD38C102D88",
      "gasPrice": {
        "_hex": "0xd95936052"
      },
      "gasLimit": {
        "_hex": "0x5208"
      },
      "to": "0xc93a69dFC0fb3E867D9207599f7fe87d51619635",
      "value": {
        "_hex": "0x821ab0d4414980000"
      },
      "nonce": 1305,
      "data": "0x",
      "r": "0xde8376e1b6f3c31e9066334cd45a98715c0d08726a2e583c39bd1994fa7c995b",
      "s": "0x34f2316175985692bc731a1ef24a4c6e53f6daf181f6570c520b1e2d66b8bcb2",
      "v": 27,
      "creates": null,
      "raw": "0xf86f820519850d9593605282520894c93a69dfc0fb3e867d9207599f7fe87d51619635890821ab0d4414980000801ba0de8376e1b6f3c31e9066334cd45a98715c0d08726a2e583c39bd1994fa7c995ba034f2316175985692bc731a1ef24a4c6e53f6daf181f6570c520b1e2d66b8bcb2",
      "networkId": 0,
      "chainId": 0
    }
  ]
}