{
  "hash": "0x3b0f1b588fefee9141acc085c51cec6284cbe1689f60627a1936667288ed5dcb",
  "parentHash": "0xc378d74f5822b59689839af1b040e1f1deeee300b72daf0e927757f396667a8f",
  "number": 74708,
  "timestamp": 1439390819,
  "nonce": "0x8b19fe6025ad1f04",
  "difficulty": 2204186954001,
  "gasLimit": {
    "_hex": "0x2fefd8"
  },
  "gasUsed": {
    "_hex": "0xa410"
  },
  "miner": "0x35e8e5dC5FBd97c5b421A80B596C030a2Be2A04D",
  "extraData": "0x476574682f76312e302e312f6c696e75782f676f312e342e32",
  "transactions": [
    {
      "hash": "0xa5f52bcc8f66adf1821ef73bd06471b79c7c7ffb5906380fc54807e91c7dc04d",
      "blockHash": "0x3b0f1b588fefee9141acc085c51cec6284cbe1689f60627a1936667288ed5dcb",
      "blockNumber": 74708,
      "transactionIndex": 0,
      "confirmations": null,
      "from": "0x32Be343B94f860124dC4fEe278FDCBD38C102D88",
      "gasPrice": {
        "_hex": "0xd36a43933"
      },
      "gasLimit": {
        "_hex": "0x5208"
      },
      "to": "0x120A270bbC009644e35F0bB6ab13f95b8199c4ad",
      "value": {
        "_hex": "0x1605d9ee98627100000"
      },
      "nonce": 324,
      "data": "0x",
      "r": "0xcf8e22c20146e60cdeac8da24b1bbb6c8ee3c51907610be7f562158ba7dbbb6e",
      "s": "0x7a7ceb3082cd6b83b7ac1b2039561dd95d4e49aeb1e01f6613dcce5ac3901461",
      "v": 27,
      "creates": null,
      "raw": "0xf870820144850d36a4393382520894120a270bbc009644e35f0bb6ab13f95b8199c4ad8a01605d9ee98627100000801ba0cf8e22c20146e60cdeac8da24b1bbb6c8ee3c51907610be7f562158ba7dbbb6ea07a7ceb3082cd6b83b7ac1b2039561dd95d4e49aeb1e01f6613dcce5ac3901461",
      "networkId": 0,
      "chainId": 0
    },
    {
      "hash": "0xd91be1ebda62cacadf2d602dba87e1f5edb533a87056506e158e64c823e7f6ba",
      "blockHash": "0x3b0f1b588fefee9141acc085c51cec6284cbe1689f60627a1936667288ed5dcb",
      "blockNumber": 74708,
      "transactionIndex": 1,
      "confirmations": null,
      "from": "0x32Be343B94f860124dC4fEe278FDCBD38C102D88",
      "gasPrice": {
        "_hex": "0xd36a43933"
      },
      "gasLimit": {
        "_hex": "0x5208"
      },
      "to": "0x7ba193bC2bb9d5653BD27ef358fBAA0d885C8e56",
      "value": {
        "_hex": "0xca4e40094ae0c0000"
      },
      "nonce": 325,
      "data": "0x",
      "r": "0xb8131d602197ca68e2f6508a97f9408c398e456688cf5633b5d88a5ad92f1187",
      "s": "0x07c72e476160a1454e782bffed57c66c39bcc787fb9ae6de095352d068464b88",
      "v": 27,
      "creates": null,
      "raw": "0xf86f820145850d36a43933825208947ba193bc2bb9d5653bd27ef358fbaa0d885c8e56890ca4e40094ae0c0000801ba0b8131d602197ca68e2f6508a97f9408c398e456688cf5633b5d88a5ad92f1187a007c72e476160a1454e782bffed57c66c39bcc787fb9ae6de095352d068464b88",
      "networkId": 0,
      "chainId": 0
    }
  ]
}