{
  "hash": "0x43555551a6c199cf3bc1e55469cbad62da5829ac53d723fc0a87550c5661c1ef",
  "parentHash": "0x54e33ff32fcbf7c1758885b2419fc2301a236f23397cf0a0086b0f61197cf7f6",
  "number": 50303,
  "timestamp": 1438986998,
  "nonce": "0x57d587b2cf71cf70",
  "difficulty": 1511189201931,
  "gasLimit": {
    "_hex": "0x5bbd9"
  },
  "gasUsed": {
    "_hex": "0xddfd"
  },
  "miner": "0x157c6f2431eB1a95797EE86F7d17b3c0FD47A247",
  "extraData": "0x476574682f76312e302e312f77696e646f77732f676f312e342e32",
  "transactions": [
    {
      "hash": "0x14efcbab9c3afbde31b35dd5261344a8196073c9128da4fb8abaa651c6b02012",
      "blockHash": "0x43555551a6c199cf3bc1e55469cbad62da5829ac53d723fc0a87550c5661c1ef",
      "blockNumber": 50303,
      "transactionIndex": 0,
      "confirmations": null,
      "from": "0x834e9B529AC9Fa63B39A06f8D8C9B0D6791FA5dF",
      "gasPrice": {
        "_hex": "0xcf6f94786"
      },
      "gasLimit": {
        "_hex": "0x3109a"
      },
      "to": "0x109C4f2CCc82C4d77Bde15F306707320294Aea3F",
      "value": {
        "_hex": "0xde0b6b3a7640000"
      },
      "nonce": 5,
      "data": "0x",
      "r": "0x36f19b86fdc0596fbeb6c1428e6f25b44ea6d7b476b52721351c123df176a2d7",
      "s": "0x6789d93df8f3f18ee9819107b573f7fc906f3e726914980e74310a59752aa4e8",
      "v": 28,
      "creates": null,
      "raw": "0xf86d05850cf6f947868303109a94109c4f2ccc82c4d77bde15f306707320294aea3f880de0b6b3a7640000801ca036f19b86fdc0596fbeb6c1428e6f25b44ea6d7b476b52721351c123df176a2d7a06789d93df8f3f18ee9819107b573f7fc906f3e726914980e74310a59752aa4e8",
      "networkId": 0,
      "chainId": 0
    }
  ]
}