{
  "hash": "0x9bbdb44f319cf42810ff854056d953dad36e0c51c6dbddbb9b06c64253a6a5ca",
  "parentHash": "0x6c40c3e02d6b36d263b45a54aaa323e1122d23958b7e5640774527e1abd3f600",
  "number": 57462,
  "timestamp": 1439103820,
  "nonce": "0x3af9a7c3d43992b4",
  "difficulty": 1742132417127,
  "gasLimit": {
    "_hex": "0x2fe3de"
  },
  "gasUsed": {
    "_hex": "0x5208"
  },
  "miner": "0x74fE33D5E3bed2C734685d3DA78110F9D7D3580B",
  "extraData": "0x476574682f76312e302e302f6c696e75782f676f312e342e32",
  "transactions": [
    {
      "hash": "0xdbfb2af4d26be9c6cf7ac72bc36b59e06904b770bb742a54515e960f7404df92",
      "blockHash": "0x9bbdb44f319cf42810ff854056d953dad36e0c51c6dbddbb9b06c64253a6a5ca",
      "blockNumber": 57462,
      "transactionIndex": 0,
      "confirmations": null,
      "from": "0x2c04115C3E52961b0dC0b0BF31fbA4546f5966FD",
      "gasPrice": {
        "_hex": "0x10dc90d85e7"
      },
      "gasLimit": {
        "_hex": "0x15f90"
      },
      "to": "0x71685764F4d080b317A51947290164605e5D1Ced",
      "value": {
        "_hex": "0x55de6a779bbac0000"
      },
      "nonce": 1,
      "data": "0x",
      "r": "0xd819538fe8025d565ccf8b1d68fa5ae38ab421db151d1cd8c9b23bb84a399455",
      "s": "0x6433e7b57f9d72cd002e5efce0c18b7ba220d13a145df7b010fa50312fb71491",
      "v": 28,
      "creates": null,
      "raw": "0xf86f0186010dc90d85e783015f909471685764f4d080b317a51947290164605e5d1ced89055de6a779bbac0000801ca0d819538fe8025d565ccf8b1d68fa5ae38ab421db151d1cd8c9b23bb84a399455a06433e7b57f9d72cd002e5efce0c18b7ba220d13a145df7b010fa50312fb71491",
      "networkId": 0,
      "chainId": 0
    }
  ]
}