{
  "hash": "0xeda8c84a7630828543a484a9fd2f1051dcf4bc81fa28451bd8b0ff2e56052408",
  "parentHash": "0xae589fd2b3d445a991fd8f596a4419b74ac1cf31c36c8e2b741f1652c2d3645d",
  "number": 46980,
  "timestamp": 1438932655,
  "nonce": "0xdb923ff08d219ec9",
  "difficulty": 1451744123503,
  "gasLimit": {
    "_hex": "0x8ba7"
  },
  "gasUsed": {
    "_hex": "0x5208"
  },
  "miner": "0xEF247E639d49461D25F57e9362CadE3120910Ce0",
  "extraData": "0x476574682f76312e302e312f6c696e75782f676f312e342e32",
  "transactions": [
    {
      "hash": "0xecfaf065f71625bcfdf9c7adf5570464c711ad32921bc6d42e8d7eb2d851c5e2",
      "blockHash": "0xeda8c84a7630828543a484a9fd2f1051dcf4bc81fa28451bd8b0ff2e56052408",
      "blockNumber": 46980,
      "transactionIndex": 0,
      "confirmations": null,
      "from": "0x96dadE6c87E483acb081E9f669B4fc029a440E8B",
      "gasPrice": {
        "_hex": "0xcb5241367"
      },
      "gasLimit": {
        "_hex": "0x5208"
      },
      "to": "0x55D1554b08a5311C5c0A0B6464162192f9D2f884",
      "value": {
        "_hex": "0x7ce66c50e2840000"
      },
      "nonce": 0,
      "data": "0x",
      "r": "0x6b58952f9898e8ffbfd012c8f431d884a8ea37406d12e9994c145613d37fa679",
      "s": "0x3d7fe627cfe102bc790c8c13cea498af0d697c43db746d61a311cb8566bce3bb",
      "v": 28,
      "creates": null,
      "raw": "0xf86c80850cb52413678252089455d1554b08a5311c5c0a0b6464162192f9d2f884887ce66c50e2840000801ca06b58952f9898e8ffbfd012c8f431d884a8ea37406d12e9994c145613d37fa679a03d7fe627cfe102bc790c8c13cea498af0d697c43db746d61a311cb8566bce3bb",
      "networkId": 0,
      "chainId": 0
    }
  ]
}