{
  "hash": "0x6b76cf999bba27d6c6c8a4cd26bb6f0f27997206339f5fdeb232117b2e96b42f",
  "parentHash": "0x481ee5adcceb1bb2d0cd25066c37db80f21ce9b2f1834191cffc932cc721319c",
  "number": 53634,
  "timestamp": 1439041004,
  "nonce": "0x8507d2368fa2c91d",
  "difficulty": 1593164780713,
  "gasLimit": {
    "_hex": "0x2db953"
  },
  "gasUsed": {
    "_hex": "0x546c"
  },
  "miner": "0xFEE35B63dDf7Dc99780822995745dFc245a58fb3",
  "extraData": "0x476574682f76312e302e312f77696e646f77732f676f312e342e32",
  "transactions": [
    {
      "hash": "0x0389b1119d7f5db142acccc5376eec3bba9deaaaf64095c08b648ac1b49746e1",
      "blockHash": "0x6b76cf999bba27d6c6c8a4cd26bb6f0f27997206339f5fdeb232117b2e96b42f",
      "blockNumber": 53634,
      "transactionIndex": 0,
      "confirmations": null,
      "from": "0x68c8791dC342C373769ea61fb7b510F251D32088",
      "gasPrice": {
        "_hex": "0x110c8f7d8de"
      },
      "gasLimit": {
        "_hex": "0xc350"
      },
      "to": "0x2910543Af39abA0Cd09dBb2D50200b3E800A63D2",
      "value": {
        "_hex": "0x362ed9526c0aee0000"
      },
      "nonce": 0,
      "data": "0x454e38334633485838",
      "r": "0x02f0c7bad767590e6df1f59ff61072e9293f1b3b8dee05efe7b15c8a1bc2c5c5",
      "s": "0x3a603a5f8239233cd8bff2778246cb69f9210e659558e554773b5cd4ca3d08b4",
      "v": 27,
      "creates": null,
      "raw": "0xf87780860110c8f7d8de82c350942910543af39aba0cd09dbb2d50200b3e800a63d289362ed9526c0aee000089454e383346334858381ba002f0c7bad767590e6df1f59ff61072e9293f1b3b8dee05efe7b15c8a1bc2c5c5a03a603a5f8239233cd8bff2778246cb69f9210e659558e554773b5cd4ca3d08b4",
      "networkId": 0,
      "chainId": 0
    }
  ]
}