{
  "hash": "0xb66df9f2da25a7f8ad06d1d211bdb67b9574aa543c6718d1da27391ef1018d1a",
  "parentHash": "0xd8f1b50d5181a85604e93b578a04ff45b9212388ed7ae90adc45cb28627b746c",
  "number": 108115,
  "timestamp": 1439934345,
  "nonce": "0xe7529be7c3f7b2ae",
  "difficulty": 4372527361837,
  "gasLimit": {
    "_hex": "0x2fefd8"
  },
  "gasUsed": {
    "_hex": "0xf618"
  },
  "miner": "0xAa9164cC61C67064351596c21760491616AA95F4",
  "extraData": "0x",
  "transactions": [
    {
      "hash": "0x55cccb170937a7112eaa5ce65bcf36a3246606ff43bd07c4c117aabcf651d657",
      "blockHash": "0xb66df9f2da25a7f8ad06d1d211bdb67b9574aa543c6718d1da27391ef1018d1a",
      "blockNumber": 108115,
      "transactionIndex": 0,
      "confirmations": null,
      "from": "0xFBb1b73C4f0BDa4f67dcA266ce6Ef42f520fBB98",
      "gasPrice": {
        "_hex": "0xd1558f38c"
      },
      "gasLimit": {
        "_hex": "0x5208"
      },
      "to": "0xc66D2B41e79F4C3B69E437C7163326E52D980CCC",
      "value": {
        "_hex": "0x8899dcb28ba400"
      },
      "nonce": 137,
      "data": "0x",
      "r": "0x6d6310de9cdfb7597f697267a360751a685cbc10994bb77da68ab1ba3daffaab",
      "s": "0x1e287d058797626eb043cedd58ac8bf29ed500a4f93e36ca0552ea67cb66c919",
      "v": 27,
      "creates": null,
      "raw": "0xf86c8189850d1558f38c82520894c66d2b41e79f4c3b69e437c7163326e52d980ccc878899dcb28ba400801ba06d6310de9cdfb7597f697267a360751a685cbc10994bb77da68ab1ba3daffaaba01e287d058797626eb043cedd58ac8bf29ed500a4f93e36ca0552ea67cb66c919",
      "networkId": 0,
      "chainId": 0
    },
    {
      "hash": "0x3fd7b6a1994639630cd49de429125e585997bc999de625c535c328ead187f820",
      "blockHash": "0xb66df9f2da25a7f8ad06d1d211bdb67b9574aa543c6718d1da27391ef1018d1a",
      "blockNumber": 108115,
      "transactionIndex": 1,
      "confirmations": null,
      "from": "0xFBb1b73C4f0BDa4f67dcA266ce6Ef42f520fBB98",
      "gasPrice": {
        "_hex": "0xd1558f38c"
      },
      "gasLimit": {
        "_hex": "0x5208"
      },
      "to": "0xd898D5e829717c72E7438BAd593076686d7D164a",
      "value": {
        "_hex": "0x328e64518c670400"
      },
      "nonce": 138,
      "data": "0x",
      "r": "0x14a23f05a91d691223edd22fe1bbf15d4884405b33224121e4df6c8e6991a0b8",
      "s": "0x6cfc33235ac128ef0be3ffd87e84f22e958ff07546ab7faf625e6243251b92a8",
      "v": 28,
      "creates": null,
      "raw": "0xf86d818a850d1558f38c82520894d898d5e829717c72e7438bad593076686d7d164a88328e64518c670400801ca014a23f05a91d691223edd22fe1bbf15d4884405b33224121e4df6c8e6991a0b8a06cfc33235ac128ef0be3ffd87e84f22e958ff07546ab7faf625e6243251b92a8",
      "networkId": 0,
      "chainId": 0
    },
    {
      "hash": "0x7c79ff546b50b8d52241fa70412aa752afdeb72a42a6bf7d57240ee2125d5045",
      "blockHash": "0xb66df9f2da25a7f8ad06d1d211bdb67b9574aa543c6718d1da27391ef1018d1a",
      "blockNumber": 108115,
      "transactionIndex": 2,
      "confirmations": null,
      "from": "0xFBb1b73C4f0BDa4f67dcA266ce6Ef42f520fBB98",
      "gasPrice": {
        "_hex": "0xd1558f38c"
      },
      "gasLimit": {
        "_hex": "0x5208"
      },
      "to": "0x8ec45F94832F5Ff2e92Bf2237B921526B5b15D0F",
      "value": {
        "_hex": "0x20c928ed7ce0c00"
      },
      "nonce": 139,
      "data": "0x",
      "r": "0x0fd71572cc405bf2c6bbd85f4612c48050bc5c0f929bd0418f082ddab21de104",
      "s": "0x1dba0bcba7a26d39a3b03cbc8a28c90202118e09c0d00c2f2cde61828e0a5ef6",
      "v": 28,
      "creates": null,
      "raw": "0xf86d818b850d1558f38c825208948ec45f94832f5ff2e92bf2237b921526b5b15d0f88020c928ed7ce0c00801ca00fd71572cc405bf2c6bbd85f4612c48050bc5c0f929bd0418f082ddab21de104a01dba0bcba7a26d39a3b03cbc8a28c90202118e09c0d00c2f2cde61828e0a5ef6",
      "networkId": 0,
      "chainId": 0
    }
  ]
}