{
  "hash": "0x5ab18ea6743bcf7d2d4e4664c12b17e8eb71aef0955724a998db971a74e97fe7",
  "parentHash": "0x596605f9d6d126bec92345792c17660fed159007190ee907ec4ea541b0f3ee29",
  "number": 102777,
  "timestamp": 1439842980,
  "nonce": "0x6db6da2b95628374",
  "difficulty": 4050454436009,
  "gasLimit": {
    "_hex": "0x2fefd8"
  },
  "gasUsed": {
    "_hex": "0x5208"
  },
  "miner": "0x9746c7e1ef2bd21FF3997fa467593a89cb852BD0",
  "extraData": "0x476574682f76312e302e312f77696e646f77732f676f312e342e32",
  "transactions": [
    {
      "hash": "0xfa254a1b16c42179ab24b50e019233583f07d22d0f45fc712ce30b6539bc69e5",
      "blockHash": "0x5ab18ea6743bcf7d2d4e4664c12b17e8eb71aef0955724a998db971a74e97fe7",
      "blockNumber": 102777,
      "transactionIndex": 0,
      "confirmations": null,
      "from": "0x2910543Af39abA0Cd09dBb2D50200b3E800A63D2",
      "gasPrice": {
        "_hex": "0xd31b06a88"
      },
      "gasLimit": {
        "_hex": "0x5208"
      },
      "to": "0x001f5232de409AddFe47aB42324d7Ac541e264Ec",
      "value": {
        "_hex": "0x8ad8e67dc1c88000"
      },
      "nonce": 1004,
      "data": "0x",
      "r": "0xf65d7ded764e1c0bcc6516f344feb62f64e5923e4a66de2148065b748c5b80d8",
      "s": "0x176070b48280271b76a0dd499baee316bac4f91550e918a7afb82974f97b4a8e",
      "v": 27,
      "creates": null,
      "raw": "0xf86e8203ec850d31b06a8882520894001f5232de409addfe47ab42324d7ac541e264ec888ad8e67dc1c88000801ba0f65d7ded764e1c0bcc6516f344feb62f64e5923e4a66de2148065b748c5b80d8a0176070b48280271b76a0dd499baee316bac4f91550e918a7afb82974f97b4a8e",
      "networkId": 0,
      "chainId": 0
    }
  ]
}