{
  "hash": "0xfcbe8bbe32afeab8ac39623266fb357f600596077287907ca92e1bebc6b71093",
  "parentHash": "0xf1e0167acd28e9173a24b46fc455dd228eeea1aee24c3c2cc50299f2ad2a45d1",
  "number": 111315,
  "timestamp": 1439988048,
  "nonce": "0x1d8ecff11d4e7f65",
  "difficulty": 4431027914023,
  "gasLimit": {
    "_hex": "0x2fefd8"
  },
  "gasUsed": {
    "_hex": "0x5208"
  },
  "miner": "0x9746c7e1ef2bd21FF3997fa467593a89cb852BD0",
  "extraData": "0x476574682f76312e302e312f77696e646f77732f676f312e342e32",
  "transactions": [
    {
      "hash": "0xbb605b95fcac1ba151b5a6ba9d7ad14733f21ded6848e02fc14a6396d8d7687e",
      "blockHash": "0xfcbe8bbe32afeab8ac39623266fb357f600596077287907ca92e1bebc6b71093",
      "blockNumber": 111315,
      "transactionIndex": 0,
      "confirmations": null,
      "from": "0xF8826dfd9F3f8d2CF1B2B14607CB82A223B9D7bB",
      "gasPrice": {
        "_hex": "0xcf8179ec7"
      },
      "gasLimit": {
        "_hex": "0x15f90"
      },
      "to": "0x1177848589133f5C4E69EdFcb18bBCd9cACE72D1",
      "value": {
        "_hex": "0x470de4df820000"
      },
      "nonce": 1,
      "data": "0x",
      "r": "0xb1130f312d751894edfae7c144db37b0572bf14888406aa12adf56290c0544db",
      "s": "0x3d48396a6cae0f89a6e553ffbe8c4fa8e095516074446af2c671f607e693fc3c",
      "v": 28,
      "creates": null,
      "raw": "0xf86c01850cf8179ec783015f90941177848589133f5c4e69edfcb18bbcd9cace72d187470de4df820000801ca0b1130f312d751894edfae7c144db37b0572bf14888406aa12adf56290c0544dba03d48396a6cae0f89a6e553ffbe8c4fa8e095516074446af2c671f607e693fc3c",
      "networkId": 0,
      "chainId": 0
    }
  ]
}