{
  "hash": "0x4b66ecc43b7f54f841d09d1ff7a25d68b3e74e6c4ba70a481d46f8850ebd7e4c",
  "parentHash": "0xbc55eb5d3d889d0a0018366134e1e4b8f264ae4a6039ebe4f031a09683a982ca",
  "number": 82796,
  "timestamp": 1439525373,
  "nonce": "0xbb93d83e0350f7e8",
  "difficulty": 2380997586514,
  "gasLimit": {
    "_hex": "0x2fefd8"
  },
  "gasUsed": {
    "_hex": "0x5208"
  },
  "miner": "0xe090Ffdced499691fA9379752a59F8A058c1eE4A",
  "extraData": "0x476574682f76312e302e312f6c696e75782f676f312e342e32",
  "transactions": [
    {
      "hash": "0x879af0af341c04434e85a7c847d96b88b6e68e47468c98b29d8fd7bbca645f53",
      "blockHash": "0x4b66ecc43b7f54f841d09d1ff7a25d68b3e74e6c4ba70a481d46f8850ebd7e4c",
      "blockNumber": 82796,
      "transactionIndex": 0,
      "confirmations": null,
      "from": "0x6c101205B323D77544d6DC52AF37aCa3CeC6F7F1",
      "gasPrice": {
        "_hex": "0xcce416600"
      },
      "gasLimit": {
        "_hex": "0x5208"
      },
      "to": "0x00A0c500BcE07AC7b154F1843F37bf2c6b3B508C",
      "value": {
        "_hex": "0x21e19dcaf434d88d000"
      },
      "nonce": 0,
      "data": "0x",
      "r": "0x9a96bdd8e60ae25ec9086a8d0ae2250d09d80e0ae4ee9186556d95e891f10f03",
      "s": "0x4d21f54f1b86141f618350292fa4d8b3c450dd339190b2bf66d56a64adf5c9f9",
      "v": 27,
      "creates": null,
      "raw": "0xf86e80850cce4166008252089400a0c500bce07ac7b154f1843f37bf2c6b3b508c8a021e19dcaf434d88d000801ba09a96bdd8e60ae25ec9086a8d0ae2250d09d80e0ae4ee9186556d95e891f10f03a04d21f54f1b86141f618350292fa4d8b3c450dd339190b2bf66d56a64adf5c9f9",
      "networkId": 0,
      "chainId": 0
    }
  ]
}