{
  "hash": "0x45698d99d2678bda1eef1e51acb6d1718bd82a62a99e985d35efbc1dbfc8229a",
  "parentHash": "0xa35e654ad69a051784ad3af5458298f0c592f31fa9d8507b19d2e56f2ad1177b",
  "number": 90922,
  "timestamp": 1439647505,
  "nonce": "0x6f5e73d2f056247e",
  "difficulty": 3413980841616,
  "gasLimit": {
    "_hex": "0x2fefd8"
  },
  "gasUsed": {
    "_hex": "0xa410"
  },
  "miner": "0xe6A7a1d47ff21B6321162AEA7C6CB457D5476Bca",
  "extraData": "0x476574682f76312e302e312d38326566323666362f6c696e75782f676f312e34",
  "transactions": [
    {
      "hash": "0xdbf15564cecd7e5775d3d65e231e90fd2116da6cf71f1c7fe4dd5d852f13af23",
      "blockHash": "0x45698d99d2678bda1eef1e51acb6d1718bd82a62a99e985d35efbc1dbfc8229a",
      "blockNumber": 90922,
      "transactionIndex": 0,
      "confirmations": null,
      "from": "0x50056353D06a71b1f427499419D04F81f5dE4F20",
      "gasPrice": {
        "_hex": "0xd2406a494"
      },
      "gasLimit": {
        "_hex": "0x5208"
      },
      "to": "0x32Be343B94f860124dC4fEe278FDCBD38C102D88",
      "value": {
        "_hex": "0x165a350e0fd7f8000"
      },
      "nonce": 4,
      "data": "0x",
      "r": "0x41737d77fe66e3f3ccf65ed19aa51e0d8a2a4c956329ef024b6a88a0eae3d628",
      "s": "0x12bc10b2adaa9eda786ad0920a13320c2c67a668a0faa20943d595489e2968d7",
      "v": 27,
      "creates": null,
      "raw": "0xf86d04850d2406a4948252089432be343b94f860124dc4fee278fdcbd38c102d88890165a350e0fd7f8000801ba041737d77fe66e3f3ccf65ed19aa51e0d8a2a4c956329ef024b6a88a0eae3d628a012bc10b2adaa9eda786ad0920a13320c2c67a668a0faa20943d595489e2968d7",
      "networkId": 0,
      "chainId": 0
    },
    {
      "hash": "0x33d80183ad28baa0bd3a73b6cb49c29785237ccb57d9f629b332eb4800639aae",
      "blockHash": "0x45698d99d2678bda1eef1e51acb6d1718bd82a62a99e985d35efbc1dbfc8229a",
      "blockNumber": 90922,
      "transactionIndex": 1,
      "confirmations": null,
      "from": "0x1467bcfA961fE8067c779935a78B4a73E7393BD8",
      "gasPrice": {
        "_hex": "0xd2406a494"
      },
      "gasLimit": {
        "_hex": "0x5208"
      },
      "to": "0x32Be343B94f860124dC4fEe278FDCBD38C102D88",
      "value": {
        "_hex": "0x2b01339fcaa15800"
      },
      "nonce": 5,
      "data": "0x",
      "r": "0xa647588a87041dfb5f73152187dbc05ab4d9795e06c5eb65718dddf51339a04d",
      "s": "0x183cdc414f147563680bd15e945fe1f37f64f723e51ed80b2d60a145a80fb3d4",
      "v": 27,
      "creates": null,
      "raw": "0xf86c05850d2406a4948252089432be343b94f860124dc4fee278fdcbd38c102d88882b01339fcaa15800801ba0a647588a87041dfb5f73152187dbc05ab4d9795e06c5eb65718dddf51339a04da0183cdc414f147563680bd15e945fe1f37f64f723e51ed80b2d60a145a80fb3d4",
      "networkId": 0,
      "chainId": 0
    }
  ]
}