{
  "hash": "0x32d1aa95a681422283d272569c085ca716d5b4737bf5f64482f6cc64470fe593",
  "parentHash": "0xffca700e71e92ff43d30668b85e5fb0d6f81e58bf6ac5cf9668972d989955a7c",
  "number": 106796,
  "timestamp": 1439910734,
  "nonce": "0xa74a87c60bde9051",
  "difficulty": 4426926074757,
  "gasLimit": {
    "_hex": "0x2fefd8"
  },
  "gasUsed": {
    "_hex": "0x520c"
  },
  "miner": "0xe6A7a1d47ff21B6321162AEA7C6CB457D5476Bca",
  "extraData": "0x476574682f76312e302e312d38326566323666362f6c696e75782f676f312e34",
  "transactions": [
    {
      "hash": "0x6778859b29950596ca715dde881f73ff4f7e38cd90005cdb0be7f3717d49e27b",
      "blockHash": "0x32d1aa95a681422283d272569c085ca716d5b4737bf5f64482f6cc64470fe593",
      "blockNumber": 106796,
      "transactionIndex": 0,
      "confirmations": null,
      "from": "0x9138244e216cd650D3C465bd87Ab1F5AFB7A9a1c",
      "gasPrice": {
        "_hex": "0xd22e9ebe3"
      },
      "gasLimit": {
        "_hex": "0x7530"
      },
      "to": "0x9138244e216cd650D3C465bd87Ab1F5AFB7A9a1c",
      "value": {
        "_hex": "0x18de76816d8000"
      },
      "nonce": 1,
      "data": "0x00",
      "r": "0xd55ae5bfb76f01d57e713ad371c968abbc401f9e0476032fd4a5242ddf63ac43",
      "s": "0x27115199fbabd22f803b006d9031f931f06348f83f3c5add97c497877b583d33",
      "v": 28,
      "creates": null,
      "raw": "0xf86b01850d22e9ebe3827530949138244e216cd650d3c465bd87ab1f5afb7a9a1c8718de76816d8000001ca0d55ae5bfb76f01d57e713ad371c968abbc401f9e0476032fd4a5242ddf63ac43a027115199fbabd22f803b006d9031f931f06348f83f3c5add97c497877b583d33",
      "networkId": 0,
      "chainId": 0
    }
  ]
}