{
  "hash": "0x1af0280f5ca3646f6297e04825461191220fbb78d26a5e0296f8f73875726b21",
  "parentHash": "0xc8896ba058ada637eea64fc1cd481612c5dfd76bcd598942df5bbf7c006aa0f8",
  "number": 121150,
  "timestamp": 1440172306,
  "nonce": "0x5c00964bd653c8e6",
  "difficulty": 4406429114339,
  "gasLimit": {
    "_hex": "0x2fefd8"
  },
  "gasUsed": {
    "_hex": "0x4ce78"
  },
  "miner": "0x580992B51e3925e23280EfB93d3047C82f17E038",
  "extraData": "0x",
  "transactions": [
    {
      "hash": "0x27ed188f0256c7c192dd8da92872d23c1c3280a73a560467fa03af7113db614a",
      "blockHash": "0x1af0280f5ca3646f6297e04825461191220fbb78d26a5e0296f8f73875726b21",
      "blockNumber": 121150,
      "transactionIndex": 0,
      "confirmations": null,
      "from": "0x289B9bA6dC9c12D3130F1115180397C20cCBF220",
      "gasPrice": {
        "_hex": "0xba43b7400"
      },
      "gasLimit": {
        "_hex": "0x5208"
      },
      "to": "0xC47Aaa860008be6f65B58c6C6E02a84e666EfE31",
      "value": {
        "_hex": "0xa2a135c766ff212c60"
      },
      "nonce": 19,
      "data": "0x",
      "r": "0x04a7d6075c3d231da979e1ced89320f9b9e2d13f7c3e49f07b90339aef282ea0",
      "s": "0x4cc8781e8dcb67a7051c384d7fcc37fd8b91f8c32ab5402f89ae33d4bf837300",
      "v": 28,
      "creates": null,
      "raw": "0xf86d13850ba43b740082520894c47aaa860008be6f65b58c6c6e02a84e666efe3189a2a135c766ff212c60801ca004a7d6075c3d231da979e1ced89320f9b9e2d13f7c3e49f07b90339aef282ea0a04cc8781e8dcb67a7051c384d7fcc37fd8b91f8c32ab5402f89ae33d4bf837300",
      "networkId": 0,
      "chainId": 0
    },
    {
      "hash": "0x8ba949d7c012bad8a9b3d6012d7b519ef42f746544251fedc1c57c907cb00b22",
      "blockHash": "0x1af0280f5ca3646f6297e04825461191220fbb78d26a5e0296f8f73875726b21",
      "blockNumber": 121150,
      "transactionIndex": 1,
      "confirmations": null,
      "from": "0x3b4f0dfEcC7F68faecdE1f645C33db963e1492f7",
      "gasPrice": {
        "_hex": "0xba43b7400"
      },
      "gasLimit": {
        "_hex": "0x5208"
      },
      "to": "0xC47Aaa860008be6f65B58c6C6E02a84e666EfE31",
      "value": {
        "_hex": "0xddcfbbb7a606000"
      },
      "nonce": 0,
      "data": "0x",
      "r": "0x5a7a44c9a270fd0a146b3df347cd5807390b61d3d2a80c58a2d1938e9d7aa9a3",
      "s": "0x17cd48171aad106d9126f1766e3c6b6243985bb94b68d7e7b16cca9b9c42b761",
      "v": 27,
      "creates": null,
      "raw": "0xf86c80850ba43b740082520894c47aaa860008be6f65b58c6c6e02a84e666efe31880ddcfbbb7a606000801ba05a7a44c9a270fd0a146b3df347cd5807390b61d3d2a80c58a2d1938e9d7aa9a3a017cd48171aad106d9126f1766e3c6b6243985bb94b68d7e7b16cca9b9c42b761",
      "networkId": 0,
      "chainId": 0
    },
    {
      "hash": "0x58d6807b7316de84f4296fa3f6f2481d30bc5b68d9116c4d1b6ca7b5448bf740",
      "blockHash": "0x1af0280f5ca3646f6297e04825461191220fbb78d26a5e0296f8f73875726b21",
      "blockNumber": 121150,
      "transactionIndex": 2,
      "confirmations": null,
      "from": "0xbcc72eA5bC902a76b1A86a7B02Dc73fe8055D1C7",
      "gasPrice": {
        "_hex": "0xba43b7400"
      },
      "gasLimit": {
        "_hex": "0x5208"
      },
      "to": "0xC47Aaa860008be6f65B58c6C6E02a84e666EfE31",
      "value": {
        "_hex": "0xd026f98ea1d86000"
      },
      "nonce": 4,
      "data": "0x",
      "r": "0xe029da232f5f83cbf88e029eac28cc4585e9cbb4926d0540295c92ad1419c079",
      "s": "0x4b92e40ce2a81b3a20d66dcbd9aaff389da1acc9f9d21f374ac6577dca0b1cbc",
      "v": 28,
      "creates": null,
      "raw": "0xf86c04850ba43b740082520894c47aaa860008be6f65b58c6c6e02a84e666efe3188d026f98ea1d86000801ca0e029da232f5f83cbf88e029eac28cc4585e9cbb4926d0540295c92ad1419c079a04b92e40ce2a81b3a20d66dcbd9aaff389da1acc9f9d21f374ac6577dca0b1cbc",
      "networkId": 0,
      "chainId": 0
    },
    {
      "hash": "0x04760d81a6a4745d86be5f3e60afdc5252ff9d18d5d582e89990dab7f6de1f55",
      "blockHash": "0x1af0280f5ca3646f6297e04825461191220fbb78d26a5e0296f8f73875726b21",
      "blockNumber": 121150,
      "transactionIndex": 3,
      "confirmations": null,
      "from": "0x3120869dfC5b2e9D636fd0BFA6717C51146d5F7a",
      "gasPrice": {
        "_hex": "0xba43b7400"
      },
      "gasLimit": {
        "_hex": "0x5208"
      },
      "to": "0xC47Aaa860008be6f65B58c6C6E02a84e666EfE31",
      "value": {
        "_hex": "0xfe58ef95bdefac00"
      },
      "nonce": 5,
      "data": "0x",
      "r": "0x4361025aa31876befb9766ea236e7a7e1900c1579ec9fb87f29d4ca7f4690e09",
      "s": "0x5b6f722a418fc41fe72f7f79a003472f0a1ec22a242f0005187e0c47a9bd93ac",
      "v": 27,
      "creates": null,
      "raw": "0xf86c05850ba43b740082520894c47aaa860008be6f65b58c6c6e02a84e666efe3188fe58ef95bdefac00801ba04361025aa31876befb9766ea236e7a7e1900c1579ec9fb87f29d4ca7f4690e09a05b6f722a418fc41fe72f7f79a003472f0a1ec22a242f0005187e0c47a9bd93ac",
      "networkId": 0,
      "chainId": 0
    },
    {
      "hash": "0x6be0fcf85d25704486444035a984aede9d8861055746f900a9ced2052079fbc3",
      "blockHash": "0x1af0280f5ca3646f6297e04825461191220fbb78d26a5e0296f8f73875726b21",
      "blockNumber": 121150,
      "transactionIndex": 4,
      "confirmations": null,
      "from": "0xA0eadCdC3d2cc51DaA7Ef7e65370D2d46Ca9e6D9",
      "gasPrice": {
        "_hex": "0xba43b7400"
      },
      "gasLimit": {
        "_hex": "0x5208"
      },
      "to": "0xC47Aaa860008be6f65B58c6C6E02a84e666EfE31",
      "value": {
        "_hex": "0x45611d639b27b6000"
      },
      "nonce": 4,
      "data": "0x",
      "r": "0x559c8b26cde9c547ab97603bc955381857898e36cf93c0618c543a8684513b86",
      "s": "0x11150bfbfbd84e846b11a2537d60af2fd09313cc0a1d8002f4a9719bab1de0a8",
      "v": 28,
      "creates": null,
      "raw": "0xf86d04850ba43b740082520894c47aaa860008be6f65b58c6c6e02a84e666efe3189045611d639b27b6000801ca0559c8b26cde9c547ab97603bc955381857898e36cf93c0618c543a8684513b86a011150bfbfbd84e846b11a2537d60af2fd09313cc0a1d8002f4a9719bab1de0a8",
      "networkId": 0,
      "chainId": 0
    },
    {
      "hash": "0x39260487818b3eabebe690458210981b4e00e7d3870ff19f76bcb892e333e370",
      "blockHash": "0x1af0280f5ca3646f6297e04825461191220fbb78d26a5e0296f8f73875726b21",
      "blockNumber": 121150,
      "transactionIndex": 5,
      "confirmations": null,
      "from": "0xed433C980AaED4E749B3229F3993BfB2840f2433",
      "gasPrice": {
        "_hex": "0xba43b7400"
      },
      "gasLimit": {
        "_hex": "0x5208"
      },
      "to": "0xC47Aaa860008be6f65B58c6C6E02a84e666EfE31",
      "value": {
        "_hex": "0x41e8efb6b14eb6000"
      },
      "nonce": 7,
      "data": "0x",
      "r": "0xb7ba1f067064977bd993e0f178c09143636d56eb987d91b0c463071bc3e9549c",
      "s": "0x70a5f536da03dc40b9f2650bcc680d56d472a8e3ca10193ec5e4735b224a3829",
      "v": 28,
      "creates": null,
      "raw": "0xf86d07850ba43b740082520894c47aaa860008be6f65b58c6c6e02a84e666efe3189041e8efb6b14eb6000801ca0b7ba1f067064977bd993e0f178c09143636d56eb987d91b0c463071bc3e9549ca070a5f536da03dc40b9f2650bcc680d56d472a8e3ca10193ec5e4735b224a3829",
      "networkId": 0,
      "chainId": 0
    },
    {
      "hash": "0x0891f1eec6262c011c4f7292c4f0d5a0b27a48893d4366012655ac65f83e3352",
      "blockHash": "0x1af0280f5ca3646f6297e04825461191220fbb78d26a5e0296f8f73875726b21",
      "blockNumber": 121150,
      "transactionIndex": 6,
      "confirmations": null,
      "from": "0x3b4f0dfEcC7F68faecdE1f645C33db963e1492f7",
      "gasPrice": {
        "_hex": "0xba43b7400"
      },
      "gasLimit": {
        "_hex": "0x5208"
      },
      "to": "0xC47Aaa860008be6f65B58c6C6E02a84e666EfE31",
      "value": {
        "_hex": "0xddcfbbb7a606000"
      },
      "nonce": 1,
      "data": "0x",
      "r": "0x27c53cede601deb59bf8521477d7cf6fb7a2e70f395da9353d5e5e416c0fa044",
      "s": "0x78ce62bd58572006e6b48bfd5dc326b9f3c7f3da0de5bea670045471ed128590",
      "v": 28,
      "creates": null,
      "raw": "0xf86c01850ba43b740082520894c47aaa860008be6f65b58c6c6e02a84e666efe31880ddcfbbb7a606000801ca027c53cede601deb59bf8521477d7cf6fb7a2e70f395da9353d5e5e416c0fa044a078ce62bd58572006e6b48bfd5dc326b9f3c7f3da0de5bea670045471ed128590",
      "networkId": 0,
      "chainId": 0
    },
    {
      "hash": "0x941d95a3b4e683d4e6ea5e214242d40e3c5b191f0e45d45cf46435b6cdaa3bd1",
      "blockHash": "0x1af0280f5ca3646f6297e04825461191220fbb78d26a5e0296f8f73875726b21",
      "blockNumber": 121150,
      "transactionIndex": 7,
      "confirmations": null,
      "from": "0x67a8Acb3621e0683EC4eeb0be82BE8cf344d97c6",
      "gasPrice": {
        "_hex": "0xba43b7400"
      },
      "gasLimit": {
        "_hex": "0x5208"
      },
      "to": "0xC47Aaa860008be6f65B58c6C6E02a84e666EfE31",
      "value": {
        "_hex": "0x8ac3680c5ce46000"
      },
      "nonce": 7,
      "data": "0x",
      "r": "0x67b3a30789d464c1d27af0e46bbbb83e02b3c66f9429250a23bd1c4135229a6c",
      "s": "0x02980ad3e13db300c5e9806dbcfdedd84c5aa132e49913be6de11cb87a061dca",
      "v": 28,
      "creates": null,
      "raw": "0xf86c07850ba43b740082520894c47aaa860008be6f65b58c6c6e02a84e666efe31888ac3680c5ce46000801ca067b3a30789d464c1d27af0e46bbbb83e02b3c66f9429250a23bd1c4135229a6ca002980ad3e13db300c5e9806dbcfdedd84c5aa132e49913be6de11cb87a061dca",
      "networkId": 0,
      "chainId": 0
    },
    {
      "hash": "0xe82caed2fce66807dd33512edcbe9e78c11b23d0afa34651a9f51778ac98db1b",
      "blockHash": "0x1af0280f5ca3646f6297e04825461191220fbb78d26a5e0296f8f73875726b21",
      "blockNumber": 121150,
      "transactionIndex": 8,
      "confirmations": null,
      "from": "0x3b4f0dfEcC7F68faecdE1f645C33db963e1492f7",
      "gasPrice": {
        "_hex": "0xba43b7400"
      },
      "gasLimit": {
        "_hex": "0x5208"
      },
      "to": "0xC47Aaa860008be6f65B58c6C6E02a84e666EfE31",
      "value": {
        "_hex": "0xddcfbbb7a606000"
      },
      "nonce": 2,
      "data": "0x",
      "r": "0x28675ca03f0b4150fbeb251a87c205291cf50fd457db1067992b7472d3eed789",
      "s": "0x3dc5ba1e7b8cde403053690ab7930c4233b9e10341232dca1aaa70a689c486e7",
      "v": 27,
      "creates": null,
      "raw": "0xf86c02850ba43b740082520894c47aaa860008be6f65b58c6c6e02a84e666efe31880ddcfbbb7a606000801ba028675ca03f0b4150fbeb251a87c205291cf50fd457db1067992b7472d3eed789a03dc5ba1e7b8cde403053690ab7930c4233b9e10341232dca1aaa70a689c486e7",
      "networkId": 0,
      "chainId": 0
    },
    {
      "hash": "0x9d934372b87496fc2ebeb0a414b5a8a993128ff5137cf6e02154ba25f2f1dd74",
      "blockHash": "0x1af0280f5ca3646f6297e04825461191220fbb78d26a5e0296f8f73875726b21",
      "blockNumber": 121150,
      "transactionIndex": 9,
      "confirmations": null,
      "from": "0xD0ee3F53eE0fCf3F9fbCcdd17BD1b6441DdC2074",
      "gasPrice": {
        "_hex": "0xba43b7400"
      },
      "gasLimit": {
        "_hex": "0x15f90"
      },
      "to": "0xD9176cf582B2f51fAD57941e0a84dfBa0Ed3620D",
      "value": {
        "_hex": "0x44294955748298000"
      },
      "nonce": 4,
      "data": "0x",
      "r": "0x7b4ead71e1dd77161f275acb45205fd2d37a526bfcea5cb8e8e175ff82212b6c",
      "s": "0x45bdff656060c69dca5d2e2b99f6fc5e188eda82224d298ec051b14a20c7d511",
      "v": 27,
      "creates": null,
      "raw": "0xf86e04850ba43b740083015f9094d9176cf582b2f51fad57941e0a84dfba0ed3620d89044294955748298000801ba07b4ead71e1dd77161f275acb45205fd2d37a526bfcea5cb8e8e175ff82212b6ca045bdff656060c69dca5d2e2b99f6fc5e188eda82224d298ec051b14a20c7d511",
      "networkId": 0,
      "chainId": 0
    },
    {
      "hash": "0x90d5865974879785244383c91e4ba3542c4ab8fd554a95d95d2078ec89cf5e3f",
      "blockHash": "0x1af0280f5ca3646f6297e04825461191220fbb78d26a5e0296f8f73875726b21",
      "blockNumber": 121150,
      "transactionIndex": 10,
      "confirmations": null,
      "from": "0x76899c112A85c5a7d27Ff89f1b97112e900aeEBc",
      "gasPrice": {
        "_hex": "0xba43b7400"
      },
      "gasLimit": {
        "_hex": "0x5208"
      },
      "to": "0xC47Aaa860008be6f65B58c6C6E02a84e666EfE31",
      "value": {
        "_hex": "0xdde4294fd97b6000"
      },
      "nonce": 15,
      "data": "0x",
      "r": "0x983dd716e003859fa8bd8fadcdc84d9446adbdab4342c20db7582479539d2ee2",
      "s": "0x4548ceb27c3d891fd5cb402dd8e1bcf1785c6ce828d0b64e5b19a0b68775c6f4",
      "v": 27,
      "creates": null,
      "raw": "0xf86c0f850ba43b740082520894c47aaa860008be6f65b58c6c6e02a84e666efe3188dde4294fd97b6000801ba0983dd716e003859fa8bd8fadcdc84d9446adbdab4342c20db7582479539d2ee2a04548ceb27c3d891fd5cb402dd8e1bcf1785c6ce828d0b64e5b19a0b68775c6f4",
      "networkId": 0,
      "chainId": 0
    },
    {
      "hash": "0x60be46c04e58184040dcfb0bf630e374c8d3634522b057f7fd64386bcd687a9f",
      "blockHash": "0x1af0280f5ca3646f6297e04825461191220fbb78d26a5e0296f8f73875726b21",
      "blockNumber": 121150,
      "transactionIndex": 11,
      "confirmations": null,
      "from": "0xE996d36DB289Ef8D9F0a9f9a903cc42fEA50CD4E",
      "gasPrice": {
        "_hex": "0xba43b7400"
      },
      "gasLimit": {
        "_hex": "0x5208"
      },
      "to": "0xC47Aaa860008be6f65B58c6C6E02a84e666EfE31",
      "value": {
        "_hex": "0x134a7e6ab57a1790"
      },
      "nonce": 8,
      "data": "0x",
      "r": "0xe05c3aa534ef7b8b3517000aedfd4db5b2bc1e7242190435dfec9eb8b98ff23c",
      "s": "0x51c410b36a397b663718eed5f8787e4588256622e236e82ee1299c4117e7e277",
      "v": 28,
      "creates": null,
      "raw": "0xf86c08850ba43b740082520894c47aaa860008be6f65b58c6c6e02a84e666efe3188134a7e6ab57a1790801ca0e05c3aa534ef7b8b3517000aedfd4db5b2bc1e7242190435dfec9eb8b98ff23ca051c410b36a397b663718eed5f8787e4588256622e236e82ee1299c4117e7e277",
      "networkId": 0,
      "chainId": 0
    },
    {
      "hash": "0xb6283574bec421df745955b05ae48d5d27f34bfd5c9a7e372ed4294ec9731b77",
      "blockHash": "0x1af0280f5ca3646f6297e04825461191220fbb78d26a5e0296f8f73875726b21",
      "blockNumber": 121150,
      "transactionIndex": 12,
      "confirmations": null,
      "from": "0x5F47Ce7D9e58D9aCd9B684C5A6CbCfA0aC12478b",
      "gasPrice": {
        "_hex": "0xba43b7400"
      },
      "gasLimit": {
        "_hex": "0x5208"
      },
      "to": "0xC47Aaa860008be6f65B58c6C6E02a84e666EfE31",
      "value": {
        "_hex": "0x278980ee3cd938f0"
      },
      "nonce": 0,
      "data": "0x",
      "r": "0x438e54bdf50aeca320ff0b8bcefbad98f0a54d24f40da5b91f2a3c726d1eaddd",
      "s": "0x04d0761a3e31381fb5b24654fbb884ee2b2fc372331ec4d7c045831feed95ebb",
      "v": 27,
      "creates": null,
      "raw": "0xf86c80850ba43b740082520894c47aaa860008be6f65b58c6c6e02a84e666efe3188278980ee3cd938f0801ba0438e54bdf50aeca320ff0b8bcefbad98f0a54d24f40da5b91f2a3c726d1eaddda004d0761a3e31381fb5b24654fbb884ee2b2fc372331ec4d7c045831feed95ebb",
      "networkId": 0,
      "chainId": 0
    },
    {
      "hash": "0x965c6a12b2b2dc0c21a26a9f71fda8ba1dcd806593bd865261ece3271b9432ec",
      "blockHash": "0x1af0280f5ca3646f6297e04825461191220fbb78d26a5e0296f8f73875726b21",
      "blockNumber": 121150,
      "transactionIndex": 13,
      "confirmations": null,
      "from": "0xed433C980AaED4E749B3229F3993BfB2840f2433",
      "gasPrice": {
        "_hex": "0xba43b7400"
      },
      "gasLimit": {
        "_hex": "0x5208"
      },
      "to": "0xC47Aaa860008be6f65B58c6C6E02a84e666EfE31",
      "value": {
        "_hex": "0x2c39d23dfbc276000"
      },
      "nonce": 8,
      "data": "0x",
      "r": "0x60e24bc6578caa6c4df006ac2b97c2845803bdd3881540f6e80f73a98af76346",
      "s": "0x351aa619155e7fcad38ad742fd010610e737710be67486a2b87f2969925c6fea",
      "v": 28,
      "creates": null,
      "raw": "0xf86d08850ba43b740082520894c47aaa860008be6f65b58c6c6e02a84e666efe318902c39d23dfbc276000801ca060e24bc6578caa6c4df006ac2b97c2845803bdd3881540f6e80f73a98af76346a0351aa619155e7fcad38ad742fd010610e737710be67486a2b87f2969925c6fea",
      "networkId": 0,
      "chainId": 0
    },
    {
      "hash": "0x22923d4354ce4da27805c0ffeedf6cd76841b72bf908e1db112f852b5bf988e6",
      "blockHash": "0x1af0280f5ca3646f6297e04825461191220fbb78d26a5e0296f8f73875726b21",
      "blockNumber": 121150,
      "transactionIndex": 14,
      "confirmations": null,
      "from": "0x4C9560759adF54ABEdd7318d1413C4fA49240074",
      "gasPrice": {
        "_hex": "0xba43b7400"
      },
      "gasLimit": {
        "_hex": "0x5208"
      },
      "to": "0xC47Aaa860008be6f65B58c6C6E02a84e666EfE31",
      "value": {
        "_hex": "0xf57462fa1912f80"
      },
      "nonce": 9,
      "data": "0x",
      "r": "0x0bfb5dca87d53a4c5cece10873f2ffef3e72025a2dee4018046faca41e357061",
      "s": "0x67c84a96d4dfdea35854d25a617c27a7a88ecab3c0914500f7410c522a325f90",
      "v": 27,
      "creates": null,
      "raw": "0xf86c09850ba43b740082520894c47aaa860008be6f65b58c6c6e02a84e666efe31880f57462fa1912f80801ba00bfb5dca87d53a4c5cece10873f2ffef3e72025a2dee4018046faca41e357061a067c84a96d4dfdea35854d25a617c27a7a88ecab3c0914500f7410c522a325f90",
      "networkId": 0,
      "chainId": 0
    }
  ]
}