{
  "hash": "0x0bd9f8120896ab2ed88b153bd73de7cb4e38ebc45b6f86c119c1c41036a26188",
  "parentHash": "0xcc69448c72b168e6398252769c5994fcd69ac2102855b46366979ce550512b02",
  "number": 53479,
  "timestamp": 1439038309,
  "nonce": "0x7bbc6934a6faf434",
  "difficulty": 1595529709523,
  "gasLimit": {
    "_hex": "0x29977c"
  },
  "gasUsed": {
    "_hex": "0x5208"
  },
  "miner": "0x0eDEd3DA479d0beF8eeC92A76644D3f4E3C177f7",
  "extraData": "0x476574682f76312e302e312f6c696e75782f676f312e342e32",
  "transactions": [
    {
      "hash": "0x037ad141a317d860a6c1b7eba73d7a22839bd438fb2e25bb9dbc69c84d59c327",
      "blockHash": "0x0bd9f8120896ab2ed88b153bd73de7cb4e38ebc45b6f86c119c1c41036a26188",
      "blockNumber": 53479,
      "transactionIndex": 0,
      "confirmations": null,
      "from": "0xd370D8ABa65AdA99A3382fF248813f1592D50027",
      "gasPrice": {
        "_hex": "0x746a528800"
      },
      "gasLimit": {
        "_hex": "0x5b04"
      },
      "to": "0xad7210d76107F888745616FFF7979623b84F928c",
      "value": {
        "_hex": "0x5af3107a4000"
      },
      "nonce": 0,
      "data": "0x",
      "r": "0x3526e60212790fc34683bafe84249a4d8fd6dfd94f125d3419f908a8b57d10d6",
      "s": "0xe244b126f2b3da2f69c81efff8f241a8d33f4e9174f1a5ea543429aee347a10f",
      "v": 28,
      "creates": null,
      "raw": "0xf86a8085746a528800825b0494ad7210d76107f888745616fff7979623b84f928c865af3107a4000801ca03526e60212790fc34683bafe84249a4d8fd6dfd94f125d3419f908a8b57d10d6a0e244b126f2b3da2f69c81efff8f241a8d33f4e9174f1a5ea543429aee347a10f",
      "networkId": 0,
      "chainId": 0
    }
  ]
}