{
  "hash": "0x3ab9bc2cc68eb25e949acd9516a32c9415cdc4de80d43b36b60a77212c65f4ba",
  "parentHash": "0x08a05e58a8514812a5cf209b88a6ab8864d0e8da9528f67bb7eaec8f4b73e5cd",
  "number": 55166,
  "timestamp": 1439066341,
  "nonce": "0xf6c6b10bca11d2cc",
  "difficulty": 1641832961738,
  "gasLimit": {
    "_hex": "0x2fefd8"
  },
  "gasUsed": {
    "_hex": "0x2df0e0"
  },
  "miner": "0xF2d2AfF1320476cb8C6b607199D23175cc595693",
  "extraData": "0x476574682f76312e302e312f77696e646f77732f676f312e342e32",
  "transactions": [
    {
      "hash": "0x3349c361cad205dcdc7851ee4adac710127839088328ef803011d702fdecb4b4",
      "blockHash": "0x3ab9bc2cc68eb25e949acd9516a32c9415cdc4de80d43b36b60a77212c65f4ba",
      "blockNumber": 55166,
      "transactionIndex": 0,
      "confirmations": null,
      "from": "0x0ae3F81a67725a8A7758FeB8684c6c17dA20755D",
      "gasPrice": {
        "_hex": "0xe17eed2c2"
      },
      "gasLimit": {
        "_hex": "0x7a120"
      },
      "to": "0xBAA54d6E90c3F4d7Ebec11bD180134C7eD8eBb52",
      "value": {
        "_hex": "0x16345785d8a0000"
      },
      "nonce": 16,
      "data": "0x",
      "r": "0xaf7535f28dad25f8c8c98a49a3997e039076c38f21bc3243c379d46b78bc267c",
      "s": "0x6e821441a35674ba5a8c1607e5da786552b543335aeccf0ceefba549d32e99eb",
      "v": 27,
      "creates": null,
      "raw": "0xf86d10850e17eed2c28307a12094baa54d6e90c3f4d7ebec11bd180134c7ed8ebb5288016345785d8a0000801ba0af7535f28dad25f8c8c98a49a3997e039076c38f21bc3243c379d46b78bc267ca06e821441a35674ba5a8c1607e5da786552b543335aeccf0ceefba549d32e99eb",
      "networkId": 0,
      "chainId": 0
    },
    {
      "hash": "0x76a31d1c5c047d45045f4e7b309f5fc1386f27ac077d73427e8e1a5e6e4148c9",
      "blockHash": "0x3ab9bc2cc68eb25e949acd9516a32c9415cdc4de80d43b36b60a77212c65f4ba",
      "blockNumber": 55166,
      "transactionIndex": 1,
      "confirmations": null,
      "from": "0x0ae3F81a67725a8A7758FeB8684c6c17dA20755D",
      "gasPrice": {
        "_hex": "0xe17eed2c2"
      },
      "gasLimit": {
        "_hex": "0x7a120"
      },
      "to": "0xBAA54d6E90c3F4d7Ebec11bD180134C7eD8eBb52",
      "value": {
        "_hex": "0x16345785d8a0000"
      },
      "nonce": 17,
      "data": "0x",
      "r": "0xa38319ac06bdcf5b0d1846b11ad06102803014e1658693ddf7ae48a1b8716854",
      "s": "0x7dab76c64eb5d18d03fc26c3406f97bbadc236a09161f6b5e2d79865975624c2",
      "v": 28,
      "creates": null,
      "raw": "0xf86d11850e17eed2c28307a12094baa54d6e90c3f4d7ebec11bd180134c7ed8ebb5288016345785d8a0000801ca0a38319ac06bdcf5b0d1846b11ad06102803014e1658693ddf7ae48a1b8716854a07dab76c64eb5d18d03fc26c3406f97bbadc236a09161f6b5e2d79865975624c2",
      "networkId": 0,
      "chainId": 0
    },
    {
      "hash": "0xf868b842e78083670be0d2b55910cc3fe276bae6373e89cd8cf7d0ca78953cce",
      "blockHash": "0x3ab9bc2cc68eb25e949acd9516a32c9415cdc4de80d43b36b60a77212c65f4ba",
      "blockNumber": 55166,
      "transactionIndex": 2,
      "confirmations": null,
      "from": "0x0ae3F81a67725a8A7758FeB8684c6c17dA20755D",
      "gasPrice": {
        "_hex": "0xe17eed2c2"
      },
      "gasLimit": {
        "_hex": "0x7a120"
      },
      "to": "0xBAA54d6E90c3F4d7Ebec11bD180134C7eD8eBb52",
      "value": {
        "_hex": "0x16345785d8a0000"
      },
      "nonce": 18,
      "data": "0x",
      "r": "0x44535d47d31d810c0370d563a0999dd695400b284cc21c40fa2d8064a742373d",
      "s": "0x71c94530ae6ad8d28de16bf2628075368caa442b8ed655c17ae8ae2fd4bde1de",
      "v": 28,
      "creates": null,
      "raw": "0xf86d12850e17eed2c28307a12094baa54d6e90c3f4d7ebec11bd180134c7ed8ebb5288016345785d8a0000801ca044535d47d31d810c0370d563a0999dd695400b284cc21c40fa2d8064a742373da071c94530ae6ad8d28de16bf2628075368caa442b8ed655c17ae8ae2fd4bde1de",
      "networkId": 0,
      "chainId": 0
    },
    {
      "hash": "0xac5683e77ff5420ce884feabd3d41f63baa3ddf2d388e5352b5bb0502e265757",
      "blockHash": "0x3ab9bc2cc68eb25e949acd9516a32c9415cdc4de80d43b36b60a77212c65f4ba",
      "blockNumber": 55166,
      "transactionIndex": 3,
      "confirmations": null,
      "from": "0x0ae3F81a67725a8A7758FeB8684c6c17dA20755D",
      "gasPrice": {
        "_hex": "0xe17eed2c2"
      },
      "gasLimit": {
        "_hex": "0x7a120"
      },
      "to": "0xBAA54d6E90c3F4d7Ebec11bD180134C7eD8eBb52",
      "value": {
        "_hex": "0x16345785d8a0000"
      },
      "nonce": 19,
      "data": "0x",
      "r": "0x4b7359c0bdd2bf8005d1f7be777878093d051fc1ac58b9c45f23d8a84f687628",
      "s": "0x34ca4110d7f96e0a09aa5871ac950c6b9dfc342a420aea335f1e97962ed0f195",
      "v": 27,
      "creates": null,
      "raw": "0xf86d13850e17eed2c28307a12094baa54d6e90c3f4d7ebec11bd180134c7ed8ebb5288016345785d8a0000801ba04b7359c0bdd2bf8005d1f7be777878093d051fc1ac58b9c45f23d8a84f687628a034ca4110d7f96e0a09aa5871ac950c6b9dfc342a420aea335f1e97962ed0f195",
      "networkId": 0,
      "chainId": 0
    },
    {
      "hash": "0xdd958a50fc0a8e18a5169f515fd0ee9f1d8dfad8204a21096ec74d49957c445d",
      "blockHash": "0x3ab9bc2cc68eb25e949acd9516a32c9415cdc4de80d43b36b60a77212c65f4ba",
      "blockNumber": 55166,
      "transactionIndex": 4,
      "confirmations": null,
      "from": "0x0ae3F81a67725a8A7758FeB8684c6c17dA20755D",
      "gasPrice": {
        "_hex": "0xe17eed2c2"
      },
      "gasLimit": {
        "_hex": "0x7a120"
      },
      "to": "0xBAA54d6E90c3F4d7Ebec11bD180134C7eD8eBb52",
      "value": {
        "_hex": "0x16345785d8a0000"
      },
      "nonce": 20,
      "data": "0x",
      "r": "0x9440a997fe7a29f4ace45b9727e57825fa0faa2e3db0ea1786d968bdd14bee8b",
      "s": "0x2c90fa6f4fb27beaa34e92a800a8aa4edc47d50d9b1225f5be9d2f1c6732af26",
      "v": 27,
      "creates": null,
      "raw": "0xf86d14850e17eed2c28307a12094baa54d6e90c3f4d7ebec11bd180134c7ed8ebb5288016345785d8a0000801ba09440a997fe7a29f4ace45b9727e57825fa0faa2e3db0ea1786d968bdd14bee8ba02c90fa6f4fb27beaa34e92a800a8aa4edc47d50d9b1225f5be9d2f1c6732af26",
      "networkId": 0,
      "chainId": 0
    },
    {
      "hash": "0x1a7e3094012a871d935baa1905054dc4731903081bece291822b262e5bab9535",
      "blockHash": "0x3ab9bc2cc68eb25e949acd9516a32c9415cdc4de80d43b36b60a77212c65f4ba",
      "blockNumber": 55166,
      "transactionIndex": 5,
      "confirmations": null,
      "from": "0x0ae3F81a67725a8A7758FeB8684c6c17dA20755D",
      "gasPrice": {
        "_hex": "0xe17eed2c2"
      },
      "gasLimit": {
        "_hex": "0x7a120"
      },
      "to": "0xBAA54d6E90c3F4d7Ebec11bD180134C7eD8eBb52",
      "value": {
        "_hex": "0x16345785d8a0000"
      },
      "nonce": 21,
      "data": "0x",
      "r": "0xeb97e7a11f734f37dc7e6d149a3ad92f6b36e5fb8ffd46f398fb73efca745c4c",
      "s": "0x25ed98fd0da54a91ff0a075e3c05b4745bc502f9ea1ae98533450265acde066b",
      "v": 28,
      "creates": null,
      "raw": "0xf86d15850e17eed2c28307a12094baa54d6e90c3f4d7ebec11bd180134c7ed8ebb5288016345785d8a0000801ca0eb97e7a11f734f37dc7e6d149a3ad92f6b36e5fb8ffd46f398fb73efca745c4ca025ed98fd0da54a91ff0a075e3c05b4745bc502f9ea1ae98533450265acde066b",
      "networkId": 0,
      "chainId": 0
    },
    {
      "hash": "0x3f3fa8ec56bdd4c2fb5cd85cf6dea2d9c353301128362438ae1cc932adab35c0",
      "blockHash": "0x3ab9bc2cc68eb25e949acd9516a32c9415cdc4de80d43b36b60a77212c65f4ba",
      "blockNumber": 55166,
      "transactionIndex": 6,
      "confirmations": null,
      "from": "0xc70bA22fe446A85A247bf85BaD1AdDf3ddaF62E9",
      "gasPrice": {
        "_hex": "0xd8a173d5c"
      },
      "gasLimit": {
        "_hex": "0x15f90"
      },
      "to": "0x1131589d72900Dbe3439aeBe5e15A1Df4672FA8A",
      "value": {
        "_hex": "0x0"
      },
      "nonce": 2,
      "data": "0x41c0e1b5",
      "r": "0xac78f8894de90bd01d31c6f070a38a9209c31d0c1eeeac8bd622a2c51be8492e",
      "s": "0x05dd2972fe71eb3a2f3238ba5abab7999d6953f290bb0d74ce6aca16ad79b6ea",
      "v": 28,
      "creates": null,
      "raw": "0xf86902850d8a173d5c83015f90941131589d72900dbe3439aebe5e15a1df4672fa8a808441c0e1b51ca0ac78f8894de90bd01d31c6f070a38a9209c31d0c1eeeac8bd622a2c51be8492ea005dd2972fe71eb3a2f3238ba5abab7999d6953f290bb0d74ce6aca16ad79b6ea",
      "networkId": 0,
      "chainId": 0
    }
  ]
}