{
  "hash": "0x979165a41565c909d76c40dc09e88d5f7534340f1e551dcf65138fe2ae6218f6",
  "parentHash": "0x1b892b255fb9ac409af37391ece9a611a475e42fea958c83b427c58fefa59524",
  "number": 54003,
  "timestamp": 1439047132,
  "nonce": "0x9cd3fa920bff4742",
  "difficulty": 1606373670089,
  "gasLimit": {
    "_hex": "0x2fe3db"
  },
  "gasUsed": {
    "_hex": "0x5208"
  },
  "miner": "0x47ff6576639c2e94762eA5443978D7681C0E78DC",
  "extraData": "0x476574682f76312e302e312f6c696e75782f676f312e342e32",
  "transactions": [
    {
      "hash": "0xa3e551597d0e754947228eb9aa0903636e69de5a4c78e03492da758de1ccf62a",
      "blockHash": "0x979165a41565c909d76c40dc09e88d5f7534340f1e551dcf65138fe2ae6218f6",
      "blockNumber": 54003,
      "transactionIndex": 0,
      "confirmations": null,
      "from": "0x17dF49518D73b129F0DA36b1c9B40CB66420FDc7",
      "gasPrice": {
        "_hex": "0xd69b48315"
      },
      "gasLimit": {
        "_hex": "0x61a8"
      },
      "to": "0x4319c276D263FDd9156052Bb78B548E6ED740a86",
      "value": {
        "_hex": "0x6c6b935b8bbd400000"
      },
      "nonce": 4,
      "data": "0x",
      "r": "0x143428b811f99ba495bcac77549d9f69ef50f8228943838d2e94faca86b88ed0",
      "s": "0x5d8bd306047964382be71639471dd1abb5271e9852562d60de4df9e140216c6f",
      "v": 28,
      "creates": null,
      "raw": "0xf86d04850d69b483158261a8944319c276d263fdd9156052bb78b548e6ed740a86896c6b935b8bbd400000801ca0143428b811f99ba495bcac77549d9f69ef50f8228943838d2e94faca86b88ed0a05d8bd306047964382be71639471dd1abb5271e9852562d60de4df9e140216c6f",
      "networkId": 0,
      "chainId": 0
    }
  ]
}