{
  "hash": "0xc5807df78a1a37c14f643f3cae7a293a913c481cc6fc6c7a1eba31aea45cf6af",
  "parentHash": "0x663f2b4df9a1ef1acf463d85b5f87dde868ec859ff60cc2527755ff4d853dec9",
  "number": 70946,
  "timestamp": 1439327855,
  "nonce": "0x7588e363d96bb565",
  "difficulty": 2164636586633,
  "gasLimit": {
    "_hex": "0x2fefd8"
  },
  "gasUsed": {
    "_hex": "0xe5ba"
  },
  "miner": "0xe6A7a1d47ff21B6321162AEA7C6CB457D5476Bca",
  "extraData": "0x476574682f76312e302e312d38326566323666362f6c696e75782f676f312e34",
  "transactions": [
    {
      "hash": "0xe62662e100afa6912ae682d92ea11d7c48bf43a44c5e70ae012b443d786b5d5e",
      "blockHash": "0xc5807df78a1a37c14f643f3cae7a293a913c481cc6fc6c7a1eba31aea45cf6af",
      "blockNumber": 70946,
      "transactionIndex": 0,
      "confirmations": null,
      "from": "0x2910543Af39abA0Cd09dBb2D50200b3E800A63D2",
      "gasPrice": {
        "_hex": "0xdb7103e74"
      },
      "gasLimit": {
        "_hex": "0x5208"
      },
      "to": "0x0cA19A53a3256482A89770FC1daFC7630717F201",
      "value": {
        "_hex": "0x11c37937e08000"
      },
      "nonce": 258,
      "data": "0x",
      "r": "0x26b771b7073a9e23ecbfc6f5e152e8b1749a6ca167e178b7cacef3a0a4eaf7ee",
      "s": "0x7e279657ab04aa06262c378b71d79095c70e4bc14ebc65a5d6b9ba9f47a2c5e3",
      "v": 27,
      "creates": null,
      "raw": "0xf86d820102850db7103e74825208940ca19a53a3256482a89770fc1dafc7630717f2018711c37937e08000801ba026b771b7073a9e23ecbfc6f5e152e8b1749a6ca167e178b7cacef3a0a4eaf7eea07e279657ab04aa06262c378b71d79095c70e4bc14ebc65a5d6b9ba9f47a2c5e3",
      "networkId": 0,
      "chainId": 0
    },
    {
      "hash": "0x85d3aa281702b50a8492847f6cb242b68d014f423beae58f2fa2ded8251f93c9",
      "blockHash": "0xc5807df78a1a37c14f643f3cae7a293a913c481cc6fc6c7a1eba31aea45cf6af",
      "blockNumber": 70946,
      "transactionIndex": 1,
      "confirmations": null,
      "from": "0x17580B766f7453525ca4C6A88b01b50570EA088C",
      "gasPrice": {
        "_hex": "0xcba676399"
      },
      "gasLimit": {
        "_hex": "0x61a80"
      },
      "to": "0x5Fe5B7546D1628f7348B023A0393de1FC825A4fD",
      "value": {
        "_hex": "0x8ac7230489e80000"
      },
      "nonce": 58,
      "data": "0xb595b8b50000000000000000000000000000000000000000000000000000000000000000",
      "r": "0x2ece197676f7327a2a40f8b2da81d1134d8e7473e5ddfc0b789276e08ac10bb9",
      "s": "0x6320db3b8b2a2e21d1f06cbb2606ef5e5e2999e9802cb203c575a49d0826aeb7",
      "v": 28,
      "creates": null,
      "raw": "0xf8913a850cba67639983061a80945fe5b7546d1628f7348b023a0393de1fc825a4fd888ac7230489e80000a4b595b8b500000000000000000000000000000000000000000000000000000000000000001ca02ece197676f7327a2a40f8b2da81d1134d8e7473e5ddfc0b789276e08ac10bb9a06320db3b8b2a2e21d1f06cbb2606ef5e5e2999e9802cb203c575a49d0826aeb7",
      "networkId": 0,
      "chainId": 0
    }
  ]
}