{
  "hash": "0xa87c2aa1683e3fb0cb2ce2c304fd44cfe7441bedcacabe68f3e696a5e00544c9",
  "parentHash": "0x2636d0e2a576d75e3537f5110f8ebc7eb5ab927f5ecd86e715711993c480e281",
  "number": 47483,
  "timestamp": 1438941340,
  "nonce": "0x3dbe6dea3de70294",
  "difficulty": 1446703827154,
  "gasLimit": {
    "_hex": "0xc460"
  },
  "gasUsed": {
    "_hex": "0xa410"
  },
  "miner": "0xe6A7a1d47ff21B6321162AEA7C6CB457D5476Bca",
  "extraData": "0x657468706f6f6c2e6f7267",
  "transactions": [
    {
      "hash": "0x232fbb19a265166104a5439a85f97289c51114da2557cee6b7072cd6ac2b889a",
      "blockHash": "0xa87c2aa1683e3fb0cb2ce2c304fd44cfe7441bedcacabe68f3e696a5e00544c9",
      "blockNumber": 47483,
      "transactionIndex": 0,
      "confirmations": null,
      "from": "0xa9f5E7bf6Cbf6fEc55B30850Eb492b47A376d050",
      "gasPrice": {
        "_hex": "0x2086811bee"
      },
      "gasLimit": {
        "_hex": "0x5208"
      },
      "to": "0x32Be343B94f860124dC4fEe278FDCBD38C102D88",
      "value": {
        "_hex": "0xdd64a99596e5c00"
      },
      "nonce": 0,
      "data": "0x",
      "r": "0x2581eb8373979e45d373cfddbb6493f676766e64f13f47a88103cd7fd24fc947",
      "s": "0x61ff87a817cf5b8330a25896d726bc8724320664d70402712ae2fcec411c19eb",
      "v": 28,
      "creates": null,
      "raw": "0xf86c80852086811bee8252089432be343b94f860124dc4fee278fdcbd38c102d88880dd64a99596e5c00801ca02581eb8373979e45d373cfddbb6493f676766e64f13f47a88103cd7fd24fc947a061ff87a817cf5b8330a25896d726bc8724320664d70402712ae2fcec411c19eb",
      "networkId": 0,
      "chainId": 0
    },
    {
      "hash": "0x244cc870c6a89fb5ac46e6435f79db8f76660039767f2a04ab0f8fd7ce203e0c",
      "blockHash": "0xa87c2aa1683e3fb0cb2ce2c304fd44cfe7441bedcacabe68f3e696a5e00544c9",
      "blockNumber": 47483,
      "transactionIndex": 1,
      "confirmations": null,
      "from": "0xab265e840933431739e8BE901b21785AAb7d28bE",
      "gasPrice": {
        "_hex": "0x746a528800"
      },
      "gasLimit": {
        "_hex": "0x5208"
      },
      "to": "0xF9A19Aea1193D9b9E4ef2F5B8c9eC8df93a22356",
      "value": {
        "_hex": "0x6f05b59d3b200000"
      },
      "nonce": 3,
      "data": "0x",
      "r": "0xe4f262f624e7e587ac8f761627c8c6b6de98a5939c313c86a01b0fee971a35ef",
      "s": "0x3c21667ef2d86010df15d40c00f9db401310d0affc3dc810e2faa23ac1b2bed5",
      "v": 28,
      "creates": null,
      "raw": "0xf86c0385746a52880082520894f9a19aea1193d9b9e4ef2f5b8c9ec8df93a22356886f05b59d3b200000801ca0e4f262f624e7e587ac8f761627c8c6b6de98a5939c313c86a01b0fee971a35efa03c21667ef2d86010df15d40c00f9db401310d0affc3dc810e2faa23ac1b2bed5",
      "networkId": 0,
      "chainId": 0
    }
  ]
}