{
  "hash": "0xd24707ed7813e6fdbd8bdf8bbb9847639884f5fe72c3cbe2b3f754f4d58799fd",
  "parentHash": "0x98cd5741a3d3d724d7e8e09888353b60107e10cd631dac41a79d6b5763d9d3f3",
  "number": 73141,
  "timestamp": 1439363783,
  "nonce": "0xbd04cf1742c610fa",
  "difficulty": 2218637281588,
  "gasLimit": {
    "_hex": "0x2fefd8"
  },
  "gasUsed": {
    "_hex": "0x388e0"
  },
  "miner": "0x9D49F602b0fdb924Bd63DDE2Bd0907E4A07c63a7",
  "extraData": "0x476574682f76312e302e312f6c696e75782f676f312e342e32",
  "transactions": [
    {
      "hash": "0xb1c1f7bbc90b20eb94e722c71405fec115f98079f3004240391310214e683ef6",
      "blockHash": "0xd24707ed7813e6fdbd8bdf8bbb9847639884f5fe72c3cbe2b3f754f4d58799fd",
      "blockNumber": 73141,
      "transactionIndex": 0,
      "confirmations": null,
      "from": "0x008FC7CBAdFFbD0D7fe44F8DFD60a79d721a1c9C",
      "gasPrice": {
        "_hex": "0xdd5798e51"
      },
      "gasLimit": {
        "_hex": "0xf4240"
      },
      "to": null,
      "value": {
        "_hex": "0x0"
      },
      "nonce": 6,
      "data": "0x60606040526000805433600160a060020a031991821681178355600180549092161790554260025566038d7ea4c6800060035561025860045560ef90819061004790396000f30060606040523615601d5760e060020a6000350463efb98bcf811460b2575b60c6600354600090341060ec576004546002540142111560c8578054600160a060020a033081163192911690600a8304606082818181858883f15050600154604051600160a060020a03919091169350600a6009860204915082818181858883f150506001805473ffffffffffffffffffffffffffffffffffffffff191633179055504260025554600160a060020a03169050ff5b600454600254429101036060908152602090f35b005b6001805473ffffffffffffffffffffffffffffffffffffffff191633179055426002555b5056",
      "r": "0x739abe82b490f5d1eccdb599a08843e5dd5733d1bb13c68a079a168d1abcdf33",
      "s": "0x13aa3f2d261043bc69404800bdd8674390942f55ecd0d2ba28d933e556e8b1f0",
      "v": 28,
      "creates": "0x3e4Bd3AEA13f59b9502073b7a03Cfb52ECecc997",
      "raw": "0xf9018906850dd5798e51830f42408080b9013660606040526000805433600160a060020a031991821681178355600180549092161790554260025566038d7ea4c6800060035561025860045560ef90819061004790396000f30060606040523615601d5760e060020a6000350463efb98bcf811460b2575b60c6600354600090341060ec576004546002540142111560c8578054600160a060020a033081163192911690600a8304606082818181858883f15050600154604051600160a060020a03919091169350600a6009860204915082818181858883f150506001805473ffffffffffffffffffffffffffffffffffffffff191633179055504260025554600160a060020a03169050ff5b600454600254429101036060908152602090f35b005b6001805473ffffffffffffffffffffffffffffffffffffffff191633179055426002555b50561ca0739abe82b490f5d1eccdb599a08843e5dd5733d1bb13c68a079a168d1abcdf33a013aa3f2d261043bc69404800bdd8674390942f55ecd0d2ba28d933e556e8b1f0",
      "networkId": 0,
      "chainId": 0
    },
    {
      "hash": "0xc02aef305d714ff38dd0a5e4315fa51d380e45b68e5052b6d62baf9f548c1330",
      "blockHash": "0xd24707ed7813e6fdbd8bdf8bbb9847639884f5fe72c3cbe2b3f754f4d58799fd",
      "blockNumber": 73141,
      "transactionIndex": 1,
      "confirmations": null,
      "from": "0x120A270bbC009644e35F0bB6ab13f95b8199c4ad",
      "gasPrice": {
        "_hex": "0xcc82d9782"
      },
      "gasLimit": {
        "_hex": "0x15f90"
      },
      "to": "0x8F4aA80587374A3e75e5Cae254f6Ee4AEE0f9A80",
      "value": {
        "_hex": "0x3635c9adc5dea00000"
      },
      "nonce": 254,
      "data": "0x",
      "r": "0x7d117a2de979ede8002b38bb82b195d85c7a579e610875c6d7c60e940e9cd3d0",
      "s": "0x244a21686893dbd9a15f361ff2e348f22d1100752bca93bad2b7bb61d1eb2320",
      "v": 28,
      "creates": null,
      "raw": "0xf86f81fe850cc82d978283015f90948f4aa80587374a3e75e5cae254f6ee4aee0f9a80893635c9adc5dea00000801ca07d117a2de979ede8002b38bb82b195d85c7a579e610875c6d7c60e940e9cd3d0a0244a21686893dbd9a15f361ff2e348f22d1100752bca93bad2b7bb61d1eb2320",
      "networkId": 0,
      "chainId": 0
    },
    {
      "hash": "0x50e5d36b8e78fbebf4f23f46c2002f27e6616885f0693787fae628dd05ec758d",
      "blockHash": "0xd24707ed7813e6fdbd8bdf8bbb9847639884f5fe72c3cbe2b3f754f4d58799fd",
      "blockNumber": 73141,
      "transactionIndex": 2,
      "confirmations": null,
      "from": "0x120A270bbC009644e35F0bB6ab13f95b8199c4ad",
      "gasPrice": {
        "_hex": "0xcc82d9782"
      },
      "gasLimit": {
        "_hex": "0x15f90"
      },
      "to": "0x320C1A6010C43571973f46d62897cca5e1C993b2",
      "value": {
        "_hex": "0xea300b17a8b780000"
      },
      "nonce": 255,
      "data": "0x",
      "r": "0xf2e57b03c3067437b0521e757d7542a257c32ab4ed2087d8a4fc063067e5d616",
      "s": "0x3e60ec7cc24bc0dc795326e2608b2c8b32fd6e303d2bb9a62943db414cd9ca99",
      "v": 27,
      "creates": null,
      "raw": "0xf86f81ff850cc82d978283015f9094320c1a6010c43571973f46d62897cca5e1c993b2890ea300b17a8b780000801ba0f2e57b03c3067437b0521e757d7542a257c32ab4ed2087d8a4fc063067e5d616a03e60ec7cc24bc0dc795326e2608b2c8b32fd6e303d2bb9a62943db414cd9ca99",
      "networkId": 0,
      "chainId": 0
    }
  ]
}