{
  "hash": "0xddbd360e6f1f7e9e73082cc3403a633aa98d6340c047af2275d398269555d911",
  "parentHash": "0xc598f70d634e730f07d188a67c805c85310eba02ed7c690a3ff9acd1980cb48b",
  "number": 80137,
  "timestamp": 1439480871,
  "nonce": "0xbac4346ac51e34ab",
  "difficulty": 2348264099256,
  "gasLimit": {
    "_hex": "0x2fefd8"
  },
  "gasUsed": {
    "_hex": "0xf327"
  },
  "miner": "0x52Dc504a422f0E2A9e7632A34a50f1a82F8224c7",
  "extraData": "0x476574682f76312e302e312f6c696e75782f676f312e342e32",
  "transactions": [
    {
      "hash": "0xa647eaf30980a449155a5f56e5e95a853ffe83b960752f716a6564d03446b6cc",
      "blockHash": "0xddbd360e6f1f7e9e73082cc3403a633aa98d6340c047af2275d398269555d911",
      "blockNumber": 80137,
      "transactionIndex": 0,
      "confirmations": null,
      "from": "0xD1826373C4E0938f0b4302B40324f7f9c546492C",
      "gasPrice": {
        "_hex": "0xd04579c90"
      },
      "gasLimit": {
        "_hex": "0x30d40"
      },
      "to": "0x5F99D7Ece6B00868103daB44ceeAB57B9197eDCa",
      "value": {
        "_hex": "0x16345785d8a0000"
      },
      "nonce": 33,
      "data": "0x",
      "r": "0x6eb2b3cf056c41ff42e401b819bfb74f0ef1c39b185374d3fe7c14f759236fa2",
      "s": "0x3b920df381569e5672880379ab33bcc41307e8204b00bdf146ae99545ee6b854",
      "v": 27,
      "creates": null,
      "raw": "0xf86d21850d04579c9083030d40945f99d7ece6b00868103dab44ceeab57b9197edca88016345785d8a0000801ba06eb2b3cf056c41ff42e401b819bfb74f0ef1c39b185374d3fe7c14f759236fa2a03b920df381569e5672880379ab33bcc41307e8204b00bdf146ae99545ee6b854",
      "networkId": 0,
      "chainId": 0
    }
  ]
}