{
  "hash": "0xbda6608556a47121836357fea517392c284714de0b172ac4be4286d900e5b1e0",
  "parentHash": "0x2e925acf0b5460118bccda1957c62d8ff84d4b20a2c8a648a958d9ab9c85f9ea",
  "number": 75527,
  "timestamp": 1439404913,
  "nonce": "0x6abb7bfac66fe38a",
  "difficulty": 2213678500612,
  "gasLimit": {
    "_hex": "0x2fefd8"
  },
  "gasUsed": {
    "_hex": "0x8f9f"
  },
  "miner": "0x123843545FB525C8E134c9A5F15ADA6865cc3848",
  "extraData": "0x476574682f76312e302e312f77696e646f77732f676f312e342e32",
  "transactions": [
    {
      "hash": "0x2f06571659ef14ee3dfafa2aa050494b7b0ee1994120849f5ecb056941b7c6eb",
      "blockHash": "0xbda6608556a47121836357fea517392c284714de0b172ac4be4286d900e5b1e0",
      "blockNumber": 75527,
      "transactionIndex": 0,
      "confirmations": null,
      "from": "0x0c7a4e5c8aCa4Ff0C9655EDD175f82feF48F1717",
      "gasPrice": {
        "_hex": "0x1062956dd7a"
      },
      "gasLimit": {
        "_hex": "0x493e0"
      },
      "to": "0xD79B4C6791784184e2755B2fC1659eaaB0f80456",
      "value": {
        "_hex": "0xde0b6b3a7640000"
      },
      "nonce": 4,
      "data": "0x8d216186000000000000000000000000000000000000000000000000000000000000004068849f49fc4f84090e8d3f0ee70a8c397f404f0934975e09edc14aaf0b1679ca",
      "r": "0x7070c67e07bd554f8d23704b54f64ccc4790bedc89f3660d14ff1d7986cd7c28",
      "s": "0x2aaf150e0900b49460d420a59b42eac8bbf6652ba073d65f86d2d494b4a2d84a",
      "v": 27,
      "creates": null,
      "raw": "0xf8b3048601062956dd7a830493e094d79b4c6791784184e2755b2fc1659eaab0f80456880de0b6b3a7640000b8448d216186000000000000000000000000000000000000000000000000000000000000004068849f49fc4f84090e8d3f0ee70a8c397f404f0934975e09edc14aaf0b1679ca1ba07070c67e07bd554f8d23704b54f64ccc4790bedc89f3660d14ff1d7986cd7c28a02aaf150e0900b49460d420a59b42eac8bbf6652ba073d65f86d2d494b4a2d84a",
      "networkId": 0,
      "chainId": 0
    }
  ]
}