{
  "hash": "0x7f4b30c13fa7b517b8c13b02a7dbbcd1e685ef6739c5fa9f46b6f14907802ad2",
  "parentHash": "0x39afde423176e52973002949c0c524ed1472e9e84297b1133c10d3f76a29c3e7",
  "number": 119384,
  "timestamp": 1440141852,
  "nonce": "0x7e3f898eb9af52d4",
  "difficulty": 4420287981595,
  "gasLimit": {
    "_hex": "0x2fefd8"
  },
  "gasUsed": {
    "_hex": "0x3d860"
  },
  "miner": "0x98f7A0eDF3E25675482cA52480B7e07cA828a4b9",
  "extraData": "0x476574682f76312e302e322f6c696e75782f676f312e342e32",
  "transactions": [
    {
      "hash": "0xcc729f627f4aef97e449a1e6b7a3e05541833ab2dd1d9b40bd81cb9f721b74ac",
      "blockHash": "0x7f4b30c13fa7b517b8c13b02a7dbbcd1e685ef6739c5fa9f46b6f14907802ad2",
      "blockNumber": 119384,
      "transactionIndex": 0,
      "confirmations": null,
      "from": "0xe6A7a1d47ff21B6321162AEA7C6CB457D5476Bca",
      "gasPrice": {
        "_hex": "0xba43b7400"
      },
      "gasLimit": {
        "_hex": "0x55f0"
      },
      "to": "0xDe67A361d7cfe914C7A67445ade94Df2918919aB",
      "value": {
        "_hex": "0x1e6c5343647dd11c"
      },
      "nonce": 6341,
      "data": "0x",
      "r": "0xdeada54c3ff4a368ffef26d0dbdc2856282ac04780c1c4a214d6f9269e60afe7",
      "s": "0x5fd6c0eea2a43b515f10e5749fa8161ec0ca8b71686dfaeca46e6a58e2888309",
      "v": 28,
      "creates": null,
      "raw": "0xf86e8218c5850ba43b74008255f094de67a361d7cfe914c7a67445ade94df2918919ab881e6c5343647dd11c801ca0deada54c3ff4a368ffef26d0dbdc2856282ac04780c1c4a214d6f9269e60afe7a05fd6c0eea2a43b515f10e5749fa8161ec0ca8b71686dfaeca46e6a58e2888309",
      "networkId": 0,
      "chainId": 0
    },
    {
      "hash": "0xe8452160cca336691c3489a72f9ef10609fccda11ec044930ccd55e0b0122905",
      "blockHash": "0x7f4b30c13fa7b517b8c13b02a7dbbcd1e685ef6739c5fa9f46b6f14907802ad2",
      "blockNumber": 119384,
      "transactionIndex": 1,
      "confirmations": null,
      "from": "0xe6A7a1d47ff21B6321162AEA7C6CB457D5476Bca",
      "gasPrice": {
        "_hex": "0xba43b7400"
      },
      "gasLimit": {
        "_hex": "0x55f0"
      },
      "to": "0x2C82c5457b3e101b0c8bc5c7e6BA098c1FfD53B6",
      "value": {
        "_hex": "0x1f68cd252fd272e8"
      },
      "nonce": 6342,
      "data": "0x",
      "r": "0x217e4c32c9cbfc96367c1a1a3ec7e28d928290dc4d2fe0d5bc07f5f65aaa17d7",
      "s": "0x535189c4f978d5ccc4b8210b2adb4a1eee54658483017b7f1177f56efb11844c",
      "v": 28,
      "creates": null,
      "raw": "0xf86e8218c6850ba43b74008255f0942c82c5457b3e101b0c8bc5c7e6ba098c1ffd53b6881f68cd252fd272e8801ca0217e4c32c9cbfc96367c1a1a3ec7e28d928290dc4d2fe0d5bc07f5f65aaa17d7a0535189c4f978d5ccc4b8210b2adb4a1eee54658483017b7f1177f56efb11844c",
      "networkId": 0,
      "chainId": 0
    },
    {
      "hash": "0x09e1030ebcf013a05adf1006cd6588304b18bc65db73c4fb6660551cd1fd0d67",
      "blockHash": "0x7f4b30c13fa7b517b8c13b02a7dbbcd1e685ef6739c5fa9f46b6f14907802ad2",
      "blockNumber": 119384,
      "transactionIndex": 2,
      "confirmations": null,
      "from": "0xe6A7a1d47ff21B6321162AEA7C6CB457D5476Bca",
      "gasPrice": {
        "_hex": "0xba43b7400"
      },
      "gasLimit": {
        "_hex": "0x55f0"
      },
      "to": "0xaEcF258f8242D3806087bE4a8F10Bc00093876b1",
      "value": {
        "_hex": "0x200a0b41cbf29e04"
      },
      "nonce": 6343,
      "data": "0x",
      "r": "0xc78eb55e99babc1662e756679687667ebf04e6fbacbe3e9ead1c683e76a0ba73",
      "s": "0x32630b5a322d21824166d5e5e8ff670e0948e48488d101992269a9120ad83720",
      "v": 27,
      "creates": null,
      "raw": "0xf86e8218c7850ba43b74008255f094aecf258f8242d3806087be4a8f10bc00093876b188200a0b41cbf29e04801ba0c78eb55e99babc1662e756679687667ebf04e6fbacbe3e9ead1c683e76a0ba73a032630b5a322d21824166d5e5e8ff670e0948e48488d101992269a9120ad83720",
      "networkId": 0,
      "chainId": 0
    },
    {
      "hash": "0x8191811b4e75cd0071935a4c4df894b635cc7fc0cf1ae5cff02bcc95489aae22",
      "blockHash": "0x7f4b30c13fa7b517b8c13b02a7dbbcd1e685ef6739c5fa9f46b6f14907802ad2",
      "blockNumber": 119384,
      "transactionIndex": 3,
      "confirmations": null,
      "from": "0xe6A7a1d47ff21B6321162AEA7C6CB457D5476Bca",
      "gasPrice": {
        "_hex": "0xba43b7400"
      },
      "gasLimit": {
        "_hex": "0x55f0"
      },
      "to": "0xAD8c7FBFaBC46C35aDb03F7b3A67e731E5793899",
      "value": {
        "_hex": "0x24387fac9f51d830"
      },
      "nonce": 6344,
      "data": "0x",
      "r": "0x70375c90e8ca717bd1a7c83376a646a0f969bedf268e27e4ae1a6f48311319c8",
      "s": "0x63ffcf41dd84a6e66286e9709e4f8be28a9dfe6bfb43f5a3477ff7682bbb7f54",
      "v": 27,
      "creates": null,
      "raw": "0xf86e8218c8850ba43b74008255f094ad8c7fbfabc46c35adb03f7b3a67e731e57938998824387fac9f51d830801ba070375c90e8ca717bd1a7c83376a646a0f969bedf268e27e4ae1a6f48311319c8a063ffcf41dd84a6e66286e9709e4f8be28a9dfe6bfb43f5a3477ff7682bbb7f54",
      "networkId": 0,
      "chainId": 0
    },
    {
      "hash": "0x2ed1904b2e1014757a0cc2da0ffe9faf0d23b35414a7ef2cef589adb3d2d31f8",
      "blockHash": "0x7f4b30c13fa7b517b8c13b02a7dbbcd1e685ef6739c5fa9f46b6f14907802ad2",
      "blockNumber": 119384,
      "transactionIndex": 4,
      "confirmations": null,
      "from": "0xe6A7a1d47ff21B6321162AEA7C6CB457D5476Bca",
      "gasPrice": {
        "_hex": "0xba43b7400"
      },
      "gasLimit": {
        "_hex": "0x55f0"
      },
      "to": "0xce8ff6d2027CA9837abb85FD515752151b6C7d0A",
      "value": {
        "_hex": "0x2d30828ca793c614"
      },
      "nonce": 6345,
      "data": "0x",
      "r": "0xc3caaa99e9601dbf7761f13c4fda5041691b40c80426a86a879d22317eaf2abe",
      "s": "0x68b6436b015940e57b746584c6aded206e9e4ab7277d6f95a029a30c711e74c6",
      "v": 28,
      "creates": null,
      "raw": "0xf86e8218c9850ba43b74008255f094ce8ff6d2027ca9837abb85fd515752151b6c7d0a882d30828ca793c614801ca0c3caaa99e9601dbf7761f13c4fda5041691b40c80426a86a879d22317eaf2abea068b6436b015940e57b746584c6aded206e9e4ab7277d6f95a029a30c711e74c6",
      "networkId": 0,
      "chainId": 0
    },
    {
      "hash": "0xc821d43b2f73dc6d8e21ed49d1060b0be6c9efc83f2bc8e2cbc84353cef06477",
      "blockHash": "0x7f4b30c13fa7b517b8c13b02a7dbbcd1e685ef6739c5fa9f46b6f14907802ad2",
      "blockNumber": 119384,
      "transactionIndex": 5,
      "confirmations": null,
      "from": "0xe6A7a1d47ff21B6321162AEA7C6CB457D5476Bca",
      "gasPrice": {
        "_hex": "0xba43b7400"
      },
      "gasLimit": {
        "_hex": "0x55f0"
      },
      "to": "0xA5a5181868a8Df772f87DC95aB9B366e974Da936",
      "value": {
        "_hex": "0x334f21e8ff116c14"
      },
      "nonce": 6346,
      "data": "0x",
      "r": "0x4bee1bd7de8c431dd4c589cd4300e172434ecf1aadab3d70732efd45df65e6fd",
      "s": "0x5296b81f41b3edd1067f6bf0e3b1d93b6dd753f4cc6e09fabec04bf94b68a18a",
      "v": 27,
      "creates": null,
      "raw": "0xf86e8218ca850ba43b74008255f094a5a5181868a8df772f87dc95ab9b366e974da93688334f21e8ff116c14801ba04bee1bd7de8c431dd4c589cd4300e172434ecf1aadab3d70732efd45df65e6fda05296b81f41b3edd1067f6bf0e3b1d93b6dd753f4cc6e09fabec04bf94b68a18a",
      "networkId": 0,
      "chainId": 0
    },
    {
      "hash": "0x1e8595d5914cec7dc04f8a79397b935aafccedbab6afa4c408b940ff6f1c0599",
      "blockHash": "0x7f4b30c13fa7b517b8c13b02a7dbbcd1e685ef6739c5fa9f46b6f14907802ad2",
      "blockNumber": 119384,
      "transactionIndex": 6,
      "confirmations": null,
      "from": "0xe6A7a1d47ff21B6321162AEA7C6CB457D5476Bca",
      "gasPrice": {
        "_hex": "0xba43b7400"
      },
      "gasLimit": {
        "_hex": "0x55f0"
      },
      "to": "0xB0b3385a645Eb80B431224920043447Ab1303eA8",
      "value": {
        "_hex": "0x39f1cac2908029a8"
      },
      "nonce": 6347,
      "data": "0x",
      "r": "0x0c48584c6f968a4535b93cb96f20668b7e8f62fc50a9ec3f6f902ba69f4b85e7",
      "s": "0x5b62fb046eae274d94deb66c84538276d5c7411750eeed6ea773bcf2cdf4a43d",
      "v": 27,
      "creates": null,
      "raw": "0xf86e8218cb850ba43b74008255f094b0b3385a645eb80b431224920043447ab1303ea88839f1cac2908029a8801ba00c48584c6f968a4535b93cb96f20668b7e8f62fc50a9ec3f6f902ba69f4b85e7a05b62fb046eae274d94deb66c84538276d5c7411750eeed6ea773bcf2cdf4a43d",
      "networkId": 0,
      "chainId": 0
    },
    {
      "hash": "0xf3e7dd243a4a3748dd3e4fcd89bbc5af16f9b1d975cd8e010ea64bef58833a85",
      "blockHash": "0x7f4b30c13fa7b517b8c13b02a7dbbcd1e685ef6739c5fa9f46b6f14907802ad2",
      "blockNumber": 119384,
      "transactionIndex": 7,
      "confirmations": null,
      "from": "0xe6A7a1d47ff21B6321162AEA7C6CB457D5476Bca",
      "gasPrice": {
        "_hex": "0xba43b7400"
      },
      "gasLimit": {
        "_hex": "0x55f0"
      },
      "to": "0x7B1A43f1eb4970A4b5D36F604FeF8083Fa18189f",
      "value": {
        "_hex": "0x40e255ac1a812010"
      },
      "nonce": 6348,
      "data": "0x",
      "r": "0x7f074ea381c6b33e9983d250443c0a531ac1d0a38bc00881fc1c764fadcb3cf1",
      "s": "0x199538b5b5d75f350e08d977753d55ded53a66c60dc2ad29df1ce022d97d48d1",
      "v": 28,
      "creates": null,
      "raw": "0xf86e8218cc850ba43b74008255f0947b1a43f1eb4970a4b5d36f604fef8083fa18189f8840e255ac1a812010801ca07f074ea381c6b33e9983d250443c0a531ac1d0a38bc00881fc1c764fadcb3cf1a0199538b5b5d75f350e08d977753d55ded53a66c60dc2ad29df1ce022d97d48d1",
      "networkId": 0,
      "chainId": 0
    },
    {
      "hash": "0xd4c1520cab8ac1cb40b1396881c7a956a8876d2ff9c1ba39334078a4ce0debc2",
      "blockHash": "0x7f4b30c13fa7b517b8c13b02a7dbbcd1e685ef6739c5fa9f46b6f14907802ad2",
      "blockNumber": 119384,
      "transactionIndex": 8,
      "confirmations": null,
      "from": "0xe6A7a1d47ff21B6321162AEA7C6CB457D5476Bca",
      "gasPrice": {
        "_hex": "0xba43b7400"
      },
      "gasLimit": {
        "_hex": "0x55f0"
      },
      "to": "0x77b8115f6C7A1a949B92a8C5Ab5e3Bce37693cf8",
      "value": {
        "_hex": "0x4cbe42051d394918"
      },
      "nonce": 6349,
      "data": "0x",
      "r": "0xad7fb439eb48acae32bd6d2f37bed0d62955442befbfb6a1ed467276f7a0db83",
      "s": "0x7945b6eb013f67ef224bde5a46f64fcb71b348dd8093a9da990cab432dbae021",
      "v": 28,
      "creates": null,
      "raw": "0xf86e8218cd850ba43b74008255f09477b8115f6c7a1a949b92a8c5ab5e3bce37693cf8884cbe42051d394918801ca0ad7fb439eb48acae32bd6d2f37bed0d62955442befbfb6a1ed467276f7a0db83a07945b6eb013f67ef224bde5a46f64fcb71b348dd8093a9da990cab432dbae021",
      "networkId": 0,
      "chainId": 0
    },
    {
      "hash": "0xa3bc3ba663183f3df86acdddd9fa86ec496b5d1e529f2ad3d686ddbc00af4d2f",
      "blockHash": "0x7f4b30c13fa7b517b8c13b02a7dbbcd1e685ef6739c5fa9f46b6f14907802ad2",
      "blockNumber": 119384,
      "transactionIndex": 9,
      "confirmations": null,
      "from": "0xe6A7a1d47ff21B6321162AEA7C6CB457D5476Bca",
      "gasPrice": {
        "_hex": "0xba43b7400"
      },
      "gasLimit": {
        "_hex": "0x55f0"
      },
      "to": "0x5adA3743144f1235d8cef97daAD6c123F20E7330",
      "value": {
        "_hex": "0x576315aae1502d08"
      },
      "nonce": 6350,
      "data": "0x",
      "r": "0x6b01d87775422232810068c7a485cafd7a5ada83392ccf08dd83a8111cfe4e69",
      "s": "0x1749ed024f6cc36a0da1173eb987382f2e27bfabe444d68979cc953b41d667ae",
      "v": 28,
      "creates": null,
      "raw": "0xf86e8218ce850ba43b74008255f0945ada3743144f1235d8cef97daad6c123f20e733088576315aae1502d08801ca06b01d87775422232810068c7a485cafd7a5ada83392ccf08dd83a8111cfe4e69a01749ed024f6cc36a0da1173eb987382f2e27bfabe444d68979cc953b41d667ae",
      "networkId": 0,
      "chainId": 0
    },
    {
      "hash": "0x21bcdf1d4929601c2669381a0623313c86a71fc2b78ddc622a07d5d9a1febdd9",
      "blockHash": "0x7f4b30c13fa7b517b8c13b02a7dbbcd1e685ef6739c5fa9f46b6f14907802ad2",
      "blockNumber": 119384,
      "transactionIndex": 10,
      "confirmations": null,
      "from": "0xe6A7a1d47ff21B6321162AEA7C6CB457D5476Bca",
      "gasPrice": {
        "_hex": "0xba43b7400"
      },
      "gasLimit": {
        "_hex": "0x55f0"
      },
      "to": "0xe7523F78ae9eDb81dC7B2A9ca718Ba3776C14f2e",
      "value": {
        "_hex": "0x83e21e377bf02878"
      },
      "nonce": 6351,
      "data": "0x",
      "r": "0x7d99b0b32ac7e0402a291170f0f976187fea0ee62454d5f3bbb0804a2e749b99",
      "s": "0x2b0a6485d147f7c0882b1858d79f0e9036608c9f9d01aaaa03e3b0489a10c989",
      "v": 28,
      "creates": null,
      "raw": "0xf86e8218cf850ba43b74008255f094e7523f78ae9edb81dc7b2a9ca718ba3776c14f2e8883e21e377bf02878801ca07d99b0b32ac7e0402a291170f0f976187fea0ee62454d5f3bbb0804a2e749b99a02b0a6485d147f7c0882b1858d79f0e9036608c9f9d01aaaa03e3b0489a10c989",
      "networkId": 0,
      "chainId": 0
    },
    {
      "hash": "0xd7de38024fe942331592a6622e56fdac6ba38cd788951023d36028495f60108d",
      "blockHash": "0x7f4b30c13fa7b517b8c13b02a7dbbcd1e685ef6739c5fa9f46b6f14907802ad2",
      "blockNumber": 119384,
      "transactionIndex": 11,
      "confirmations": null,
      "from": "0xe6A7a1d47ff21B6321162AEA7C6CB457D5476Bca",
      "gasPrice": {
        "_hex": "0xba43b7400"
      },
      "gasLimit": {
        "_hex": "0x55f0"
      },
      "to": "0x58cAfc9A3273821ec5691840ABfc256952Df94B8",
      "value": {
        "_hex": "0x8d9d4f7f94f5ce70"
      },
      "nonce": 6352,
      "data": "0x",
      "r": "0xe99489a8879fe4d0c7d94ebd845c9f46630debc329b244f5573f18100b0b1123",
      "s": "0x118188266dd2cf08a5ec304be3bdca8cbd0590882d27d02f0b30dcac5a0d2d06",
      "v": 27,
      "creates": null,
      "raw": "0xf86e8218d0850ba43b74008255f09458cafc9a3273821ec5691840abfc256952df94b8888d9d4f7f94f5ce70801ba0e99489a8879fe4d0c7d94ebd845c9f46630debc329b244f5573f18100b0b1123a0118188266dd2cf08a5ec304be3bdca8cbd0590882d27d02f0b30dcac5a0d2d06",
      "networkId": 0,
      "chainId": 0
    }
  ]
}