{
  "hash": "0xa8076e34ccb3cb1ff6dd048ebba867fa64f5fa87b58cbd3eff2844d9fa855bf4",
  "parentHash": "0x44a5c59f9aec8ac6a4a839eb36bcde541c10c32c35e46d9b2ec67e9e186876f1",
  "number": 110434,
  "timestamp": 1439973770,
  "nonce": "0x959925e14d41fb7c",
  "difficulty": 4377726751236,
  "gasLimit": {
    "_hex": "0x2fefd8"
  },
  "gasUsed": {
    "_hex": "0x23e38"
  },
  "miner": "0x580992B51e3925e23280EfB93d3047C82f17E038",
  "extraData": "0x476574682f76312e302e312f6c696e75782f676f312e342e32",
  "transactions": [
    {
      "hash": "0x39583058e39b6e801f59724f2af81a88367f3a1fe6df5d78f819b5dd5dbf5847",
      "blockHash": "0xa8076e34ccb3cb1ff6dd048ebba867fa64f5fa87b58cbd3eff2844d9fa855bf4",
      "blockNumber": 110434,
      "transactionIndex": 0,
      "confirmations": null,
      "from": "0x48659D8f8C9A2FD44F68daA55d23A608FBE500DC",
      "gasPrice": {
        "_hex": "0xd69b48315"
      },
      "gasLimit": {
        "_hex": "0x15f90"
      },
      "to": "0xBB33a4b72d92FA335a3b591Ce7eE217f7a7338C1",
      "value": {
        "_hex": "0xde0b6b3a76400000"
      },
      "nonce": 10,
      "data": "0x",
      "r": "0x87a24bce4ecb9f9e051ec8c210b31f833a878d5e467935250a825bc727f1eed2",
      "s": "0x7153eb6c70134ed04bddcecec4124e401cacba91db0e720ca8411f84bac8c781",
      "v": 27,
      "creates": null,
      "raw": "0xf86d0a850d69b4831583015f9094bb33a4b72d92fa335a3b591ce7ee217f7a7338c188de0b6b3a76400000801ba087a24bce4ecb9f9e051ec8c210b31f833a878d5e467935250a825bc727f1eed2a07153eb6c70134ed04bddcecec4124e401cacba91db0e720ca8411f84bac8c781",
      "networkId": 0,
      "chainId": 0
    },
    {
      "hash": "0x41f2960c6902e285e857cbcaa05cc1b8d09f47b8252b2c171947b5e2d9b44860",
      "blockHash": "0xa8076e34ccb3cb1ff6dd048ebba867fa64f5fa87b58cbd3eff2844d9fa855bf4",
      "blockNumber": 110434,
      "transactionIndex": 1,
      "confirmations": null,
      "from": "0x94b20d3d932AA82aD71b86b904A3D769689351b4",
      "gasPrice": {
        "_hex": "0xcf3f274f4"
      },
      "gasLimit": {
        "_hex": "0x5208"
      },
      "to": "0x32Be343B94f860124dC4fEe278FDCBD38C102D88",
      "value": {
        "_hex": "0x14d6d387dc9d96000"
      },
      "nonce": 7,
      "data": "0x",
      "r": "0xcd4abcd2c562d76582cb12bdb29a9cb65e817dbb1fd7e62d0471b4b92eef7614",
      "s": "0x6dfcf90cbf3c6009b707e7796b34960dd133c8dfcb60bbd812e6ae623be67f42",
      "v": 27,
      "creates": null,
      "raw": "0xf86d07850cf3f274f48252089432be343b94f860124dc4fee278fdcbd38c102d8889014d6d387dc9d96000801ba0cd4abcd2c562d76582cb12bdb29a9cb65e817dbb1fd7e62d0471b4b92eef7614a06dfcf90cbf3c6009b707e7796b34960dd133c8dfcb60bbd812e6ae623be67f42",
      "networkId": 0,
      "chainId": 0
    },
    {
      "hash": "0xbfa2c29fa0ec87bec2d4c3838dc3792295610dfadb611b23a13ceed7ef8ba11e",
      "blockHash": "0xa8076e34ccb3cb1ff6dd048ebba867fa64f5fa87b58cbd3eff2844d9fa855bf4",
      "blockNumber": 110434,
      "transactionIndex": 2,
      "confirmations": null,
      "from": "0x022A006FcC619ebf387F413eF06932bAbd47AE0E",
      "gasPrice": {
        "_hex": "0xcf3f274f4"
      },
      "gasLimit": {
        "_hex": "0x5208"
      },
      "to": "0x32Be343B94f860124dC4fEe278FDCBD38C102D88",
      "value": {
        "_hex": "0x110b4d5412b475000"
      },
      "nonce": 9,
      "data": "0x",
      "r": "0x2187649090b424cae2d529563303695149cf4ca78f107ef1c2aef583229a23b9",
      "s": "0x486b86353aaee1cb7bf8911d47c3f2d01699b1f0609800801de02cd76d878833",
      "v": 27,
      "creates": null,
      "raw": "0xf86d09850cf3f274f48252089432be343b94f860124dc4fee278fdcbd38c102d88890110b4d5412b475000801ba02187649090b424cae2d529563303695149cf4ca78f107ef1c2aef583229a23b9a0486b86353aaee1cb7bf8911d47c3f2d01699b1f0609800801de02cd76d878833",
      "networkId": 0,
      "chainId": 0
    },
    {
      "hash": "0x6522f2805e30a41df0bfb6b50eaa34c2db06122e508f2ca728113434562c1724",
      "blockHash": "0xa8076e34ccb3cb1ff6dd048ebba867fa64f5fa87b58cbd3eff2844d9fa855bf4",
      "blockNumber": 110434,
      "transactionIndex": 3,
      "confirmations": null,
      "from": "0xcD690730A45cdebeF24F2a3db2de181bFBA5CBea",
      "gasPrice": {
        "_hex": "0xcf3f274f4"
      },
      "gasLimit": {
        "_hex": "0x5208"
      },
      "to": "0x32Be343B94f860124dC4fEe278FDCBD38C102D88",
      "value": {
        "_hex": "0x3d55cc871c369400"
      },
      "nonce": 9,
      "data": "0x",
      "r": "0x7741729c73262b09fda560cc636309f0093a73659b1ecf10209fd0bb993d9c66",
      "s": "0x0259cf1ea6c20dc00a7ced2024315b1b63b694533ed418610da6bd97fe76dae2",
      "v": 28,
      "creates": null,
      "raw": "0xf86c09850cf3f274f48252089432be343b94f860124dc4fee278fdcbd38c102d88883d55cc871c369400801ca07741729c73262b09fda560cc636309f0093a73659b1ecf10209fd0bb993d9c66a00259cf1ea6c20dc00a7ced2024315b1b63b694533ed418610da6bd97fe76dae2",
      "networkId": 0,
      "chainId": 0
    },
    {
      "hash": "0x5f90326b2980b9852aeb64bf2f3779fc0dd2cbff152b207fa5e31485f5e2b41f",
      "blockHash": "0xa8076e34ccb3cb1ff6dd048ebba867fa64f5fa87b58cbd3eff2844d9fa855bf4",
      "blockNumber": 110434,
      "transactionIndex": 4,
      "confirmations": null,
      "from": "0xFAc1B5968b6CC27786d1A28c3E360B8c421569B9",
      "gasPrice": {
        "_hex": "0xcf3f274f4"
      },
      "gasLimit": {
        "_hex": "0x5208"
      },
      "to": "0x32Be343B94f860124dC4fEe278FDCBD38C102D88",
      "value": {
        "_hex": "0x2b37356ac2bda000"
      },
      "nonce": 8,
      "data": "0x",
      "r": "0x9b76cd6228fce4ce152a816c79fa669144f346e24db3ca48e4ed12eb8740308d",
      "s": "0x31ad8423396bfe5987cdb5f4c928da5658c9cfed34ca023f93d4846be02b8bf5",
      "v": 27,
      "creates": null,
      "raw": "0xf86c08850cf3f274f48252089432be343b94f860124dc4fee278fdcbd38c102d88882b37356ac2bda000801ba09b76cd6228fce4ce152a816c79fa669144f346e24db3ca48e4ed12eb8740308da031ad8423396bfe5987cdb5f4c928da5658c9cfed34ca023f93d4846be02b8bf5",
      "networkId": 0,
      "chainId": 0
    },
    {
      "hash": "0x182a966efc0f0ee310dd229c2d36f623209219d52e48c61e4eac1d7570f20c29",
      "blockHash": "0xa8076e34ccb3cb1ff6dd048ebba867fa64f5fa87b58cbd3eff2844d9fa855bf4",
      "blockNumber": 110434,
      "transactionIndex": 5,
      "confirmations": null,
      "from": "0x164d6C84C4D54AA3E22A5b2B72cFb968eDe862C5",
      "gasPrice": {
        "_hex": "0xcf3f274f4"
      },
      "gasLimit": {
        "_hex": "0x5208"
      },
      "to": "0x32Be343B94f860124dC4fEe278FDCBD38C102D88",
      "value": {
        "_hex": "0x22bba41e558202000"
      },
      "nonce": 5,
      "data": "0x",
      "r": "0x46d8abd0d4ca0561a2b0371c0aa69391c265e643001461be5efb369d837bace8",
      "s": "0x4b591f010b9cae51e9e4112721c9951abef6b106a8a71dcbfdc9817dbf35361f",
      "v": 28,
      "creates": null,
      "raw": "0xf86d05850cf3f274f48252089432be343b94f860124dc4fee278fdcbd38c102d8889022bba41e558202000801ca046d8abd0d4ca0561a2b0371c0aa69391c265e643001461be5efb369d837bace8a04b591f010b9cae51e9e4112721c9951abef6b106a8a71dcbfdc9817dbf35361f",
      "networkId": 0,
      "chainId": 0
    },
    {
      "hash": "0x3b2389c1c6e9e6c5ce42c57bdbe07e2735dffc50cd257bb0fedd8385842ebf9c",
      "blockHash": "0xa8076e34ccb3cb1ff6dd048ebba867fa64f5fa87b58cbd3eff2844d9fa855bf4",
      "blockNumber": 110434,
      "transactionIndex": 6,
      "confirmations": null,
      "from": "0x8674c218F0351a62C3BA78C34FD2182A93Da94E2",
      "gasPrice": {
        "_hex": "0xba43b7400"
      },
      "gasLimit": {
        "_hex": "0x15f90"
      },
      "to": "0x226FE438c842C7EA989d8613C65fc5bAa0364588",
      "value": {
        "_hex": "0xde0b6b3a7640000"
      },
      "nonce": 89,
      "data": "0x",
      "r": "0x06277e46d70e18a8ffa9798cbdcdcf4afffd7aa6ec474ccf0bc8c7aabcc97943",
      "s": "0x6826486a118a4602a1a57d28b245a51603966e662f7950b13aea98ab46f319ee",
      "v": 27,
      "creates": null,
      "raw": "0xf86d59850ba43b740083015f9094226fe438c842c7ea989d8613c65fc5baa0364588880de0b6b3a7640000801ba006277e46d70e18a8ffa9798cbdcdcf4afffd7aa6ec474ccf0bc8c7aabcc97943a06826486a118a4602a1a57d28b245a51603966e662f7950b13aea98ab46f319ee",
      "networkId": 0,
      "chainId": 0
    }
  ]
}