{
  "hash": "0x6f5b4e562d020d436654ef5d3d7c6113cf9487d571324ddc24ab490186dbfaa1",
  "parentHash": "0xe3c00cebff434324cd2eb87422cf5d7c3cf08b93b7335570ab9960d7f495402c",
  "number": 68539,
  "timestamp": 1439289745,
  "nonce": "0xf30d18c79470ab6b",
  "difficulty": 2003514124339,
  "gasLimit": {
    "_hex": "0x2fefd8"
  },
  "gasUsed": {
    "_hex": "0x93b2"
  },
  "miner": "0xbb7B8287f3F0a933474a79eAe42CBCa977791171",
  "extraData": "0x476574682f4c5649562f76312e302e312f6c696e75782f676f312e342e32",
  "transactions": [
    {
      "hash": "0xe400dbd1501441b3b1dd46611316a19b9a4c8aec75bf988e2092125efc536c32",
      "blockHash": "0x6f5b4e562d020d436654ef5d3d7c6113cf9487d571324ddc24ab490186dbfaa1",
      "blockNumber": 68539,
      "transactionIndex": 0,
      "confirmations": null,
      "from": "0x17580B766f7453525ca4C6A88b01b50570EA088C",
      "gasPrice": {
        "_hex": "0xd1f194698"
      },
      "gasLimit": {
        "_hex": "0x61a80"
      },
      "to": "0x5Fe5B7546D1628f7348B023A0393de1FC825A4fD",
      "value": {
        "_hex": "0x1bc16d674ec80000"
      },
      "nonce": 35,
      "data": "0xb595b8b50000000000000000000000000000000000000000000000000000000000000000",
      "r": "0x9cc04965f8eda4b34e1ef8d364cb107b81e2cdb7431357c4821d08079c9fed22",
      "s": "0x47cb3d346601a63f0fc933a7ed07d8460a8ed6622737f10d7263cd55675efa86",
      "v": 28,
      "creates": null,
      "raw": "0xf89123850d1f19469883061a80945fe5b7546d1628f7348b023a0393de1fc825a4fd881bc16d674ec80000a4b595b8b500000000000000000000000000000000000000000000000000000000000000001ca09cc04965f8eda4b34e1ef8d364cb107b81e2cdb7431357c4821d08079c9fed22a047cb3d346601a63f0fc933a7ed07d8460a8ed6622737f10d7263cd55675efa86",
      "networkId": 0,
      "chainId": 0
    }
  ]
}