{
  "hash": "0x0b47e1456e92f6ef5048e3011293600e127a58c497f68516188e9ff92822ce71",
  "parentHash": "0x5bce283f825f23246ae841d5f2355c517d75af14fc455fe78405dd89e72b0a28",
  "number": 112702,
  "timestamp": 1440011755,
  "nonce": "0xbda8547bfa289e07",
  "difficulty": 4419492374799,
  "gasLimit": {
    "_hex": "0x2fefd8"
  },
  "gasUsed": {
    "_hex": "0x5208"
  },
  "miner": "0xe6A7a1d47ff21B6321162AEA7C6CB457D5476Bca",
  "extraData": "0x476574682f76312e302e312d38326566323666362f6c696e75782f676f312e34",
  "transactions": [
    {
      "hash": "0x2ff7428e599efd17dc633b31dfd90c53cf403f095913d564a2a70932ebac71c6",
      "blockHash": "0x0b47e1456e92f6ef5048e3011293600e127a58c497f68516188e9ff92822ce71",
      "blockNumber": 112702,
      "transactionIndex": 0,
      "confirmations": null,
      "from": "0xC15233674F0Cb7729e4Ab8aB733430C40580914d",
      "gasPrice": {
        "_hex": "0xd476edd44"
      },
      "gasLimit": {
        "_hex": "0x5208"
      },
      "to": "0x32Be343B94f860124dC4fEe278FDCBD38C102D88",
      "value": {
        "_hex": "0x1cd9d44cf4ed7400"
      },
      "nonce": 9,
      "data": "0x",
      "r": "0x283ac014460dd1af5ada10458cfbe74223dce886539d62cde9f04b49a414bf26",
      "s": "0x1075569ca1a5fcc8f6fcc0b0f96b13207954213022494376f99845d8b4f779dc",
      "v": 28,
      "creates": null,
      "raw": "0xf86c09850d476edd448252089432be343b94f860124dc4fee278fdcbd38c102d88881cd9d44cf4ed7400801ca0283ac014460dd1af5ada10458cfbe74223dce886539d62cde9f04b49a414bf26a01075569ca1a5fcc8f6fcc0b0f96b13207954213022494376f99845d8b4f779dc",
      "networkId": 0,
      "chainId": 0
    }
  ]
}