{
  "hash": "0xa17519e433ddf072f853f6d6250b681fab699492b6b6eaafea525e325a3d0da8",
  "parentHash": "0x390ef904391dea808039b6ca1c8899051b995fc49caaf35960cf950ce396ef45",
  "number": 114129,
  "timestamp": 1440035365,
  "nonce": "0x56603e8d1f795d67",
  "difficulty": 4451223266809,
  "gasLimit": {
    "_hex": "0x2fefd8"
  },
  "gasUsed": {
    "_hex": "0x5208"
  },
  "miner": "0xe6A7a1d47ff21B6321162AEA7C6CB457D5476Bca",
  "extraData": "0x476574682f76312e302e312d38326566323666362f6c696e75782f676f312e34",
  "transactions": [
    {
      "hash": "0x4f227f3b84b275231dc60cfc7d5cd025ab51f8c4ece97f2d4cb19291d7e76632",
      "blockHash": "0xa17519e433ddf072f853f6d6250b681fab699492b6b6eaafea525e325a3d0da8",
      "blockNumber": 114129,
      "transactionIndex": 0,
      "confirmations": null,
      "from": "0x32Be343B94f860124dC4fEe278FDCBD38C102D88",
      "gasPrice": {
        "_hex": "0xcbb7c3fc3"
      },
      "gasLimit": {
        "_hex": "0x5208"
      },
      "to": "0x76899c112A85c5a7d27Ff89f1b97112e900aeEBc",
      "value": {
        "_hex": "0xdde7e448067f0000"
      },
      "nonce": 1383,
      "data": "0x",
      "r": "0xa8f6ab070b7321a8933f272aa1c50020343c2784d88e740fa30f40c2b6e61b0c",
      "s": "0x35c466abbf7aae229f8e95133fe46296e65c6b9c21d0c986c87fae39ef09e2f2",
      "v": 27,
      "creates": null,
      "raw": "0xf86e820567850cbb7c3fc38252089476899c112a85c5a7d27ff89f1b97112e900aeebc88dde7e448067f0000801ba0a8f6ab070b7321a8933f272aa1c50020343c2784d88e740fa30f40c2b6e61b0ca035c466abbf7aae229f8e95133fe46296e65c6b9c21d0c986c87fae39ef09e2f2",
      "networkId": 0,
      "chainId": 0
    }
  ]
}