{
  "hash": "0x58f16f697f19153adb7889b2c28afbcb9a4b2d84e5d464e340f823f4781acce3",
  "parentHash": "0x0acdc3a669572e0cc5f43b149cfea86ac2648069743e014d3a88ff42ef16ecb9",
  "number": 71531,
  "timestamp": 1439337669,
  "nonce": "0x33cc7d09eeecb12c",
  "difficulty": 2171896438253,
  "gasLimit": {
    "_hex": "0x2fefd8"
  },
  "gasUsed": {
    "_hex": "0x5208"
  },
  "miner": "0x9271AB1be3177bF3E3B684a8783698F1B9D600a2",
  "extraData": "0x476574682f76312e302e312f77696e646f77732f676f312e342e32",
  "transactions": [
    {
      "hash": "0xcb6a7a6857d796ec1e708d2523d46d3b8cd6c188a575ff8f22cc7208319473a5",
      "blockHash": "0x58f16f697f19153adb7889b2c28afbcb9a4b2d84e5d464e340f823f4781acce3",
      "blockNumber": 71531,
      "transactionIndex": 0,
      "confirmations": null,
      "from": "0xBFdD9820a04283b289957956353b5F3C1F665EcF",
      "gasPrice": {
        "_hex": "0xdc18448d3"
      },
      "gasLimit": {
        "_hex": "0x5208"
      },
      "to": "0x32Be343B94f860124dC4fEe278FDCBD38C102D88",
      "value": {
        "_hex": "0x1a05100a24ee64000"
      },
      "nonce": 26,
      "data": "0x",
      "r": "0x69a3481023a9ef2002b812e8dc2174f102f64ef47d749dc0c2019dc1a8416344",
      "s": "0x675de727615e832335963f8c4eb71e14156729e85872f0c4d557f87ff98f4a1a",
      "v": 27,
      "creates": null,
      "raw": "0xf86d1a850dc18448d38252089432be343b94f860124dc4fee278fdcbd38c102d888901a05100a24ee64000801ba069a3481023a9ef2002b812e8dc2174f102f64ef47d749dc0c2019dc1a8416344a0675de727615e832335963f8c4eb71e14156729e85872f0c4d557f87ff98f4a1a",
      "networkId": 0,
      "chainId": 0
    }
  ]
}