{
  "hash": "0xb9323d6305c56a506b436bbf7b677c4d9a4e80f2ed33ead369b068ef4303fe2f",
  "parentHash": "0xc1b5037a50af3783447ce042182a1f7eadd9d1efbf6c2b56ada17c9322098567",
  "number": 91805,
  "timestamp": 1439661791,
  "nonce": "0x37a812ee08f09f23",
  "difficulty": 3475853841123,
  "gasLimit": {
    "_hex": "0x2fefd8"
  },
  "gasUsed": {
    "_hex": "0x5208"
  },
  "miner": "0x790b8a3cE86E707ED0eD32bF89B3269692a23CC1",
  "extraData": "0xd783010001844765746887676f312e342e32856c696e7578",
  "transactions": [
    {
      "hash": "0x5069d6d9b931a5eebdc89def0de7f24d263749e5e75562e7d0943de43aead0b8",
      "blockHash": "0xb9323d6305c56a506b436bbf7b677c4d9a4e80f2ed33ead369b068ef4303fe2f",
      "blockNumber": 91805,
      "transactionIndex": 0,
      "confirmations": null,
      "from": "0xD5eC7fec1F39ba7E58cDe6Abed1Dd4E530DAEF6e",
      "gasPrice": {
        "_hex": "0xdde8abc06"
      },
      "gasLimit": {
        "_hex": "0x5208"
      },
      "to": "0x32Be343B94f860124dC4fEe278FDCBD38C102D88",
      "value": {
        "_hex": "0xf9c87321d91f2800"
      },
      "nonce": 1,
      "data": "0x",
      "r": "0x6c5f2b854a19a44dd921975b2993614c3f7b55397e3e7ad7e224b7475f47b2cd",
      "s": "0x1a532ed839f8d53f2825b1db0a3c6419e51680f48b6185c6d316a448c97195d5",
      "v": 27,
      "creates": null,
      "raw": "0xf86c01850dde8abc068252089432be343b94f860124dc4fee278fdcbd38c102d8888f9c87321d91f2800801ba06c5f2b854a19a44dd921975b2993614c3f7b55397e3e7ad7e224b7475f47b2cda01a532ed839f8d53f2825b1db0a3c6419e51680f48b6185c6d316a448c97195d5",
      "networkId": 0,
      "chainId": 0
    }
  ]
}