{
  "hash": "0x3221835248392602c767f4f18a5080d57fb3a9f40aa9d286b28bb3b48832b859",
  "parentHash": "0x217a5b67a3476f0a2ae1ecf5a3d2085b0709cfe358fceab99b84743fb896222c",
  "number": 114341,
  "timestamp": 1440038679,
  "nonce": "0x64ac726a07c8d97e",
  "difficulty": 4494791595498,
  "gasLimit": {
    "_hex": "0x2fefd8"
  },
  "gasUsed": {
    "_hex": "0x5208"
  },
  "miner": "0x7366ADF97960d404c38D975e1A8786bEb14B6507",
  "extraData": "0x476574682f76312e302e312f77696e646f77732f676f312e342e32",
  "transactions": [
    {
      "hash": "0x0b4e38e7df99d59f5bb1e59c822d020e8e48e513e9e039ff5b9ada078f741e9a",
      "blockHash": "0x3221835248392602c767f4f18a5080d57fb3a9f40aa9d286b28bb3b48832b859",
      "blockNumber": 114341,
      "transactionIndex": 0,
      "confirmations": null,
      "from": "0x120A270bbC009644e35F0bB6ab13f95b8199c4ad",
      "gasPrice": {
        "_hex": "0xe2c17723d"
      },
      "gasLimit": {
        "_hex": "0x3d090"
      },
      "to": "0xf4d9a6bdB61cA0316FEf11F642bFc8ed00301125",
      "value": {
        "_hex": "0x1158e460913d00000"
      },
      "nonce": 927,
      "data": "0x",
      "r": "0x208c56c8a38b05942e247808d58b2fe918c464992a819bc8441577d4c1fbd251",
      "s": "0x024a6c5ca1d80317b2f581130968d0800f644fc361403fde9d1b8bc68931f850",
      "v": 27,
      "creates": null,
      "raw": "0xf87082039f850e2c17723d8303d09094f4d9a6bdb61ca0316fef11f642bfc8ed003011258901158e460913d00000801ba0208c56c8a38b05942e247808d58b2fe918c464992a819bc8441577d4c1fbd251a0024a6c5ca1d80317b2f581130968d0800f644fc361403fde9d1b8bc68931f850",
      "networkId": 0,
      "chainId": 0
    }
  ]
}