{
  "hash": "0x6a8a9ed1c7c0afaf38feb64411ebbe2034964a57bb5e484ac87364724dc3e31e",
  "parentHash": "0xebf7491c2b38daa305466d6643985dd3e3cca1a0becab9a6cf5f3043499ebb70",
  "number": 76936,
  "timestamp": 1439428727,
  "nonce": "0xdcd9a1d1de2aee1d",
  "difficulty": 2238303281996,
  "gasLimit": {
    "_hex": "0x2fefd8"
  },
  "gasUsed": {
    "_hex": "0x5208"
  },
  "miner": "0xe6A7a1d47ff21B6321162AEA7C6CB457D5476Bca",
  "extraData": "0x476574682f76312e302e312d38326566323666362f6c696e75782f676f312e34",
  "transactions": [
    {
      "hash": "0xace82c40fa1609694162ccf48d1daac319412adfa4035aa058ef82fdaf428940",
      "blockHash": "0x6a8a9ed1c7c0afaf38feb64411ebbe2034964a57bb5e484ac87364724dc3e31e",
      "blockNumber": 76936,
      "transactionIndex": 0,
      "confirmations": null,
      "from": "0x94B4EA2caa897785bb092aB92caa27081Ef32c82",
      "gasPrice": {
        "_hex": "0xa7a358200"
      },
      "gasLimit": {
        "_hex": "0x15f90"
      },
      "to": "0xD2a69d19BaD610A0CaE27bb4545C4afd40A207B7",
      "value": {
        "_hex": "0xaa87bee538000"
      },
      "nonce": 2,
      "data": "0x",
      "r": "0x8f424d75e2b75a46f161b52ac9640d24d2f4603fbce48b9b74f45163aa2e05c9",
      "s": "0x16b8adef0ae60bc541148b7a9bafff2da08b45b9e3a175a5c69a40bcb8258743",
      "v": 28,
      "creates": null,
      "raw": "0xf86c02850a7a35820083015f9094d2a69d19bad610a0cae27bb4545c4afd40a207b7870aa87bee538000801ca08f424d75e2b75a46f161b52ac9640d24d2f4603fbce48b9b74f45163aa2e05c9a016b8adef0ae60bc541148b7a9bafff2da08b45b9e3a175a5c69a40bcb8258743",
      "networkId": 0,
      "chainId": 0
    }
  ]
}