{
  "hash": "0x7181a8e5dbfd4d7179ceb6bff8fe60fd7842f8171405fff9bc878ea952b4440c",
  "parentHash": "0x29557a7b9bbc57617d673d95300adb4e72efb0b314ac73f735fa2785a4084539",
  "number": 120632,
  "timestamp": 1440163294,
  "nonce": "0x4cb940abe40d73ce",
  "difficulty": 4428270936688,
  "gasLimit": {
    "_hex": "0x2fefd8"
  },
  "gasUsed": {
    "_hex": "0x20fc6"
  },
  "miner": "0x608f4b86321a68453f9adf6F06F7Fc3E621739ad",
  "extraData": "0xd783010002844765746887676f312e342e32856c696e7578",
  "transactions": [
    {
      "hash": "0xc3e090cfe2a9c7e63fe454e9883d0fa9472223b846d7a56f85b4f4134c5fdcf9",
      "blockHash": "0x7181a8e5dbfd4d7179ceb6bff8fe60fd7842f8171405fff9bc878ea952b4440c",
      "blockNumber": 120632,
      "transactionIndex": 0,
      "confirmations": null,
      "from": "0x9D551f41feD6FC27B719777c224DfeCcE170004d",
      "gasPrice": {
        "_hex": "0xd1d864be2"
      },
      "gasLimit": {
        "_hex": "0x15f90"
      },
      "to": "0x21330512a6958cAabd9B69e2227F3c2c85A98DA7",
      "value": {
        "_hex": "0x100d5a2e6065c1000"
      },
      "nonce": 96,
      "data": "0x",
      "r": "0x3108cf57782a673aab97a0a065acf65888c8719b8db94da81d9f66eca904b532",
      "s": "0x4ef0988f3898d14c605b1cc6a16d3ef419a66dea2eb0d1e567bca42c8ec84c12",
      "v": 27,
      "creates": null,
      "raw": "0xf86e60850d1d864be283015f909421330512a6958caabd9b69e2227f3c2c85a98da7890100d5a2e6065c1000801ba03108cf57782a673aab97a0a065acf65888c8719b8db94da81d9f66eca904b532a04ef0988f3898d14c605b1cc6a16d3ef419a66dea2eb0d1e567bca42c8ec84c12",
      "networkId": 0,
      "chainId": 0
    },
    {
      "hash": "0xafaa12834b7f23b8ba3577387883bf93abb06395590ae3a0229d9d13a2cd046b",
      "blockHash": "0x7181a8e5dbfd4d7179ceb6bff8fe60fd7842f8171405fff9bc878ea952b4440c",
      "blockNumber": 120632,
      "transactionIndex": 1,
      "confirmations": null,
      "from": "0xAf5e1c1F54aaC6dBcD5cfDD067Ef4208279280D1",
      "gasPrice": {
        "_hex": "0xba43b7400"
      },
      "gasLimit": {
        "_hex": "0x249f0"
      },
      "to": "0xE28e72FCf78647ADCe1F1252F240bbfaebD63BcC",
      "value": {
        "_hex": "0x56bc75e2d63100000"
      },
      "nonce": 3,
      "data": "0x45466f3a",
      "r": "0xf181d6f352d73bdb50f77f9438b45412daa1eb65261eac53333aa8448556e2d4",
      "s": "0x21d442504376dbdd878fac18e2bdb16833386fd70b0d6a98eb149a0ec8494b1b",
      "v": 27,
      "creates": null,
      "raw": "0xf87203850ba43b7400830249f094e28e72fcf78647adce1f1252f240bbfaebd63bcc89056bc75e2d631000008445466f3a1ba0f181d6f352d73bdb50f77f9438b45412daa1eb65261eac53333aa8448556e2d4a021d442504376dbdd878fac18e2bdb16833386fd70b0d6a98eb149a0ec8494b1b",
      "networkId": 0,
      "chainId": 0
    }
  ]
}