{
  "hash": "0x900e4b1c20b267423874a6e92a34a607e16518ee47168f71c1b0c476f1c0f8bd",
  "parentHash": "0x19d0dfc6ceb3d5eb8ec513759acfa5c56ad4a3a20e0fae4d4b5cf90f2d3e41b8",
  "number": 72166,
  "timestamp": 1439348479,
  "nonce": "0x02add73d493144e4",
  "difficulty": 2172792711499,
  "gasLimit": {
    "_hex": "0x2fefd8"
  },
  "gasUsed": {
    "_hex": "0x1e635"
  },
  "miner": "0x88D74a59454F6cF3B51ef6b9136AFb6b9D405A88",
  "extraData": "0x476574682f76312e302e312d37666266393930632f6c696e75782f676f312e34",
  "transactions": [
    {
      "hash": "0x7fb742461139030776f2220d8868933e3ddadb149550e63e9b0c04695c31f46a",
      "blockHash": "0x900e4b1c20b267423874a6e92a34a607e16518ee47168f71c1b0c476f1c0f8bd",
      "blockNumber": 72166,
      "transactionIndex": 0,
      "confirmations": null,
      "from": "0x17580B766f7453525ca4C6A88b01b50570EA088C",
      "gasPrice": {
        "_hex": "0xce7c66ccc"
      },
      "gasLimit": {
        "_hex": "0x61a80"
      },
      "to": "0x5Fe5B7546D1628f7348B023A0393de1FC825A4fD",
      "value": {
        "_hex": "0x1bc16d674ec80000"
      },
      "nonce": 339,
      "data": "0xb595b8b50000000000000000000000000000000000000000000000000000000000000000",
      "r": "0x0945407765860a816572d7c85f10fd889a1f964b6839df9b3ee66c98c2c4d802",
      "s": "0x7a20288e71582427acf77297febff0cde844a6b51af6327922fd19fa6c87b868",
      "v": 28,
      "creates": null,
      "raw": "0xf893820153850ce7c66ccc83061a80945fe5b7546d1628f7348b023a0393de1fc825a4fd881bc16d674ec80000a4b595b8b500000000000000000000000000000000000000000000000000000000000000001ca00945407765860a816572d7c85f10fd889a1f964b6839df9b3ee66c98c2c4d802a07a20288e71582427acf77297febff0cde844a6b51af6327922fd19fa6c87b868",
      "networkId": 0,
      "chainId": 0
    },
    {
      "hash": "0xca8a7f1eb74542f4c4020439e43391b242724918954e3a04c26da3401ba6f6d5",
      "blockHash": "0x900e4b1c20b267423874a6e92a34a607e16518ee47168f71c1b0c476f1c0f8bd",
      "blockNumber": 72166,
      "transactionIndex": 1,
      "confirmations": null,
      "from": "0x17580B766f7453525ca4C6A88b01b50570EA088C",
      "gasPrice": {
        "_hex": "0xce7c66ccc"
      },
      "gasLimit": {
        "_hex": "0x61a80"
      },
      "to": "0x5Fe5B7546D1628f7348B023A0393de1FC825A4fD",
      "value": {
        "_hex": "0x6124fee993bc0000"
      },
      "nonce": 340,
      "data": "0xb595b8b50000000000000000000000000000000000000000000000000000000000000000",
      "r": "0x557443e62570a59da669d830c5bde23eb3cb6a2527902a0722d8158d7a59a3d5",
      "s": "0x0b2cfdf916c3fde83685ca4d66529f6b398a4e95f7df2f7cc3e81496737f9478",
      "v": 28,
      "creates": null,
      "raw": "0xf893820154850ce7c66ccc83061a80945fe5b7546d1628f7348b023a0393de1fc825a4fd886124fee993bc0000a4b595b8b500000000000000000000000000000000000000000000000000000000000000001ca0557443e62570a59da669d830c5bde23eb3cb6a2527902a0722d8158d7a59a3d5a00b2cfdf916c3fde83685ca4d66529f6b398a4e95f7df2f7cc3e81496737f9478",
      "networkId": 0,
      "chainId": 0
    },
    {
      "hash": "0x3728e76a604f69d9ec475989ceb8801333a592d4b0bf75632f0842ad09099abb",
      "blockHash": "0x900e4b1c20b267423874a6e92a34a607e16518ee47168f71c1b0c476f1c0f8bd",
      "blockNumber": 72166,
      "transactionIndex": 2,
      "confirmations": null,
      "from": "0x3FEFA8C1e27b90BD417C1E60C15a4C0cFf6f2562",
      "gasPrice": {
        "_hex": "0xcd26a435d"
      },
      "gasLimit": {
        "_hex": "0x5208"
      },
      "to": "0x32Be343B94f860124dC4fEe278FDCBD38C102D88",
      "value": {
        "_hex": "0x22b187be413712000"
      },
      "nonce": 1,
      "data": "0x",
      "r": "0xc7aef6aa8a59043db0adcbeb6600b6bb527b66394d360e87610ecdd6ab706870",
      "s": "0x5093f9f42e7bf48165a5e02660e703ac37f61f57c6f0ab40d13142248b90c43b",
      "v": 28,
      "creates": null,
      "raw": "0xf86d01850cd26a435d8252089432be343b94f860124dc4fee278fdcbd38c102d8889022b187be413712000801ca0c7aef6aa8a59043db0adcbeb6600b6bb527b66394d360e87610ecdd6ab706870a05093f9f42e7bf48165a5e02660e703ac37f61f57c6f0ab40d13142248b90c43b",
      "networkId": 0,
      "chainId": 0
    },
    {
      "hash": "0xadb9a925c37323568a7aa99d5866d27c0642a62c54ed2dd9b1250e624567f21a",
      "blockHash": "0x900e4b1c20b267423874a6e92a34a607e16518ee47168f71c1b0c476f1c0f8bd",
      "blockNumber": 72166,
      "transactionIndex": 3,
      "confirmations": null,
      "from": "0x43279854AaF8825a6d1fcCf056caF190Ab8a7b76",
      "gasPrice": {
        "_hex": "0xcd26a435d"
      },
      "gasLimit": {
        "_hex": "0x5208"
      },
      "to": "0x32Be343B94f860124dC4fEe278FDCBD38C102D88",
      "value": {
        "_hex": "0x6c6b8f3fbe15b40000"
      },
      "nonce": 5,
      "data": "0x",
      "r": "0xf12e87d258894473df38f9e13f13226755971dfcfca498d3ecfec76347c3d413",
      "s": "0x70a4949e3e4c105d97b5e3c32ed65da10bd13715f0364cf04febe9ca97cd4b49",
      "v": 28,
      "creates": null,
      "raw": "0xf86d05850cd26a435d8252089432be343b94f860124dc4fee278fdcbd38c102d88896c6b8f3fbe15b40000801ca0f12e87d258894473df38f9e13f13226755971dfcfca498d3ecfec76347c3d413a070a4949e3e4c105d97b5e3c32ed65da10bd13715f0364cf04febe9ca97cd4b49",
      "networkId": 0,
      "chainId": 0
    }
  ]
}