{
  "hash": "0x10e52187412f169ab69beb0a41e716a0f3fee9557603d5dd050732c8c3ebac76",
  "parentHash": "0x6917112eb0328d3cdf2e77d1a677bbe7a3ee55ce07a87902caf78eea65d7dc7f",
  "number": 46291,
  "timestamp": 1438920681,
  "nonce": "0xe382e194168a6b9e",
  "difficulty": 1462536170717,
  "gasLimit": {
    "_hex": "0x5867"
  },
  "gasUsed": {
    "_hex": "0x5208"
  },
  "miner": "0x0037ce3d4B7f8729C8607D8D0248252Be68202c0",
  "extraData": "0x476574682f76312e302e312f77696e646f77732f676f312e342e32",
  "transactions": [
    {
      "hash": "0xae55a9c251d1d4c3fc88347105a02a83b0ed1b1560c59b69aa6b3698dd3162df",
      "blockHash": "0x10e52187412f169ab69beb0a41e716a0f3fee9557603d5dd050732c8c3ebac76",
      "blockNumber": 46291,
      "transactionIndex": 0,
      "confirmations": null,
      "from": "0xFD2605a2bF58fDbB90db1Da55dF61628B47F9e8c",
      "gasPrice": {
        "_hex": "0x3dfcd4f408"
      },
      "gasLimit": {
        "_hex": "0x5208"
      },
      "to": "0x7266c8FD66eD582bEA23bd8BC48E58D7f17321F3",
      "value": {
        "_hex": "0x2386f26fc10000"
      },
      "nonce": 2,
      "data": "0x",
      "r": "0x1cfdcbee28c835e28a2a45aa6d1d5e1589c26d06a5d40b0ec512e18a7addc3eb",
      "s": "0x6303ccf5b149e9faf26512dbc503b49fe6030439db5f331310bae0f0b57e2028",
      "v": 28,
      "creates": null,
      "raw": "0xf86b02853dfcd4f408825208947266c8fd66ed582bea23bd8bc48e58d7f17321f3872386f26fc10000801ca01cfdcbee28c835e28a2a45aa6d1d5e1589c26d06a5d40b0ec512e18a7addc3eba06303ccf5b149e9faf26512dbc503b49fe6030439db5f331310bae0f0b57e2028",
      "networkId": 0,
      "chainId": 0
    }
  ]
}