{
  "hash": "0xcf10e014f3f768f94888ba9b166469b817b9c0fcb611d1ced66b7c46a7dc2ad7",
  "parentHash": "0x995bc7cea33c30bde6914876449fd376277aee1fba4957ed39947d34e3045ea7",
  "number": 74039,
  "timestamp": 1439379257,
  "nonce": "0x541e21eb81c41fb3",
  "difficulty": 2242358712895,
  "gasLimit": {
    "_hex": "0x2fefd8"
  },
  "gasUsed": {
    "_hex": "0x546c"
  },
  "miner": "0xe6A7a1d47ff21B6321162AEA7C6CB457D5476Bca",
  "extraData": "0x476574682f76312e302e312d38326566323666362f6c696e75782f676f312e34",
  "transactions": [
    {
      "hash": "0xad2a0b3cf4db5e7658a71c20da7256cc58f827b04527f4d3c70cf8b2682aafa3",
      "blockHash": "0xcf10e014f3f768f94888ba9b166469b817b9c0fcb611d1ced66b7c46a7dc2ad7",
      "blockNumber": 74039,
      "transactionIndex": 0,
      "confirmations": null,
      "from": "0x6beec71ecB0326Dc98dff793dDF44A360a8889Af",
      "gasPrice": {
        "_hex": "0x11092276c5d"
      },
      "gasLimit": {
        "_hex": "0x55f0"
      },
      "to": "0x2910543Af39abA0Cd09dBb2D50200b3E800A63D2",
      "value": {
        "_hex": "0xcf4ca91b9465c0000"
      },
      "nonce": 1,
      "data": "0x454e415657354a4738",
      "r": "0x614e16f6f21a565f0088710ca090ff788281f3d97fee74a78771fdbcbf72152f",
      "s": "0x2936db1bd04e302676c78558a6b0d6d684702258936412f70df6af89ecdec0ed",
      "v": 28,
      "creates": null,
      "raw": "0xf8770186011092276c5d8255f0942910543af39aba0cd09dbb2d50200b3e800a63d2890cf4ca91b9465c000089454e415657354a47381ca0614e16f6f21a565f0088710ca090ff788281f3d97fee74a78771fdbcbf72152fa02936db1bd04e302676c78558a6b0d6d684702258936412f70df6af89ecdec0ed",
      "networkId": 0,
      "chainId": 0
    }
  ]
}