{
  "hash": "0xdeb6d742b76feaedeaf7f31f540f6ec5eb9e615add805301457b78b328012579",
  "parentHash": "0xffa3ede2b940bfe93e50fabac184e2bb157ac55f2592dedb776ec684c0f088d7",
  "number": 50378,
  "timestamp": 1438988213,
  "nonce": "0xd71ed7ecc106ee1b",
  "difficulty": 1510437992209,
  "gasLimit": {
    "_hex": "0x5eedd"
  },
  "gasUsed": {
    "_hex": "0x5208"
  },
  "miner": "0x346Ad0cADdD5A8b2CAfd5b363414E4AE348db24c",
  "extraData": "0x476574682f76312e302e312f6c696e75782f676f312e342e32",
  "transactions": [
    {
      "hash": "0x70334b0fb60868e89c1ca14fb52e86756c702f5a97605bb5361bc5d923ff89ae",
      "blockHash": "0xdeb6d742b76feaedeaf7f31f540f6ec5eb9e615add805301457b78b328012579",
      "blockNumber": 50378,
      "transactionIndex": 0,
      "confirmations": null,
      "from": "0x7a19C3C33f2a800b2FA361fD24277cAb0A1C1dB1",
      "gasPrice": {
        "_hex": "0xdb4c989e7"
      },
      "gasLimit": {
        "_hex": "0x5208"
      },
      "to": "0x32Be343B94f860124dC4fEe278FDCBD38C102D88",
      "value": {
        "_hex": "0x14542b5ae4d51d00000"
      },
      "nonce": 3,
      "data": "0x",
      "r": "0x1472c06c1caa5f6c99930ec0c2c9c42124d8ae0e93b1daf80fcb3d7e38d181d6",
      "s": "0x779435ff1abc0251eeddc0ec73cd8c3fdbdfb10e11f05770b44e227e76a2fce6",
      "v": 28,
      "creates": null,
      "raw": "0xf86e03850db4c989e78252089432be343b94f860124dc4fee278fdcbd38c102d888a014542b5ae4d51d00000801ca01472c06c1caa5f6c99930ec0c2c9c42124d8ae0e93b1daf80fcb3d7e38d181d6a0779435ff1abc0251eeddc0ec73cd8c3fdbdfb10e11f05770b44e227e76a2fce6",
      "networkId": 0,
      "chainId": 0
    }
  ]
}