{
  "hash": "0xb6d815b2060a639519afa91849fe1d0b593e2d20d89f2afb1b8908e64867fd6c",
  "parentHash": "0x8e34420e5642bacf0885aa125e6ef1c036c49e5d5663886716b306c099bcd6bb",
  "number": 101918,
  "timestamp": 1439830013,
  "nonce": "0x2a5912412102cd60",
  "difficulty": 3901393600660,
  "gasLimit": {
    "_hex": "0x2fefd8"
  },
  "gasUsed": {
    "_hex": "0x5208"
  },
  "miner": "0x580992B51e3925e23280EfB93d3047C82f17E038",
  "extraData": "0x476574682f76312e302e312f6c696e75782f676f312e342e32",
  "transactions": [
    {
      "hash": "0x6436e840d9b10e7f4d11cbef8b563518a03607d9848c89e051d2f0d519c1cfeb",
      "blockHash": "0xb6d815b2060a639519afa91849fe1d0b593e2d20d89f2afb1b8908e64867fd6c",
      "blockNumber": 101918,
      "transactionIndex": 0,
      "confirmations": null,
      "from": "0xE37619a47076d668A13AB535aA1c01E8a32541EF",
      "gasPrice": {
        "_hex": "0xe20c85eaa"
      },
      "gasLimit": {
        "_hex": "0x5208"
      },
      "to": "0x32Be343B94f860124dC4fEe278FDCBD38C102D88",
      "value": {
        "_hex": "0x56064c358cb95400"
      },
      "nonce": 2,
      "data": "0x",
      "r": "0x995ab309ecfc8eaef3d7532168d9d48420e2cd3642a2a41d7d31bb744edd10d0",
      "s": "0x3d99c48d940de216fd2a85e1913825260b2df078c7875a4a806e8b382eb4a0ac",
      "v": 27,
      "creates": null,
      "raw": "0xf86c02850e20c85eaa8252089432be343b94f860124dc4fee278fdcbd38c102d888856064c358cb95400801ba0995ab309ecfc8eaef3d7532168d9d48420e2cd3642a2a41d7d31bb744edd10d0a03d99c48d940de216fd2a85e1913825260b2df078c7875a4a806e8b382eb4a0ac",
      "networkId": 0,
      "chainId": 0
    }
  ]
}