{
  "hash": "0x72ba1910c1fffa0299601cb4b1bbd64db5d779067ef07637aba1dc1f111d2896",
  "parentHash": "0x5b8acb3d963a100ecf29c4ac4d0a32eaef46d4c85f8ef2c4a4535203d5c2ecbc",
  "number": 101180,
  "timestamp": 1439818627,
  "nonce": "0x540daabc83748b37",
  "difficulty": 3860047970255,
  "gasLimit": {
    "_hex": "0x2fefd8"
  },
  "gasUsed": {
    "_hex": "0x5208"
  },
  "miner": "0x9D49F602b0fdb924Bd63DDE2Bd0907E4A07c63a7",
  "extraData": "0x476574682f76312e302e312f6c696e75782f676f312e342e32",
  "transactions": [
    {
      "hash": "0xa2a188b78e1a5705110ee458518c674ac26286e5cea3160cf9c47cebfc7e08ed",
      "blockHash": "0x72ba1910c1fffa0299601cb4b1bbd64db5d779067ef07637aba1dc1f111d2896",
      "blockNumber": 101180,
      "transactionIndex": 0,
      "confirmations": null,
      "from": "0xcf00A85f3826941e7A25BFcF9Aac575d40410852",
      "gasPrice": {
        "_hex": "0xcb5bea614"
      },
      "gasLimit": {
        "_hex": "0x15f90"
      },
      "to": "0xD9666150A9dA92d9108198a4072970805a8B3428",
      "value": {
        "_hex": "0x4563918244f40000"
      },
      "nonce": 35,
      "data": "0x",
      "r": "0x7f08e75fd4d07eeca5ee24c6d37ebb69881df80f00ddbfcf6bb371d842890277",
      "s": "0x421db5f941a5be4838d8d0d57340e9638ea2c4dbb2ea4e097fe8b2bd2aac7211",
      "v": 27,
      "creates": null,
      "raw": "0xf86d23850cb5bea61483015f9094d9666150a9da92d9108198a4072970805a8b3428884563918244f40000801ba07f08e75fd4d07eeca5ee24c6d37ebb69881df80f00ddbfcf6bb371d842890277a0421db5f941a5be4838d8d0d57340e9638ea2c4dbb2ea4e097fe8b2bd2aac7211",
      "networkId": 0,
      "chainId": 0
    }
  ]
}