{
  "hash": "0x32433a067b028e963756ff758c928d8606dc19bf0456498b5abffd12aa98e67b",
  "parentHash": "0x731f818cc7d2ce5fd7ed02555e2eb5b0e49f6312c05a6b8d01c0f3a689dfdf60",
  "number": 63472,
  "timestamp": 1439204980,
  "nonce": "0x17e386d5910348fe",
  "difficulty": 1838740720643,
  "gasLimit": {
    "_hex": "0x2fefd8"
  },
  "gasUsed": {
    "_hex": "0x5208"
  },
  "miner": "0x3FF679B0823a026F2378E5f5F22A6F127cC85828",
  "extraData": "0x",
  "transactions": [
    {
      "hash": "0x65ccd8e84128aec7845feed9cc68b87c253c61089d17b9ccc31295efa9d4f67e",
      "blockHash": "0x32433a067b028e963756ff758c928d8606dc19bf0456498b5abffd12aa98e67b",
      "blockNumber": 63472,
      "transactionIndex": 0,
      "confirmations": null,
      "from": "0x120A270bbC009644e35F0bB6ab13f95b8199c4ad",
      "gasPrice": {
        "_hex": "0xd69a409ba"
      },
      "gasLimit": {
        "_hex": "0x15f90"
      },
      "to": "0x3F17fFb99f0518a3d0ff3fAEd1F55e93336A33B0",
      "value": {
        "_hex": "0x72287cab1c6761800"
      },
      "nonce": 103,
      "data": "0x",
      "r": "0xcbe90639a9921c650693bc62ecf4f17946c91d37f2e9ce0d5116c6c68997aa05",
      "s": "0x317f0cd89244167afbf443651a3e0a865cd32c3fae2202399e18d9f8687d0684",
      "v": 27,
      "creates": null,
      "raw": "0xf86e67850d69a409ba83015f90943f17ffb99f0518a3d0ff3faed1f55e93336a33b089072287cab1c6761800801ba0cbe90639a9921c650693bc62ecf4f17946c91d37f2e9ce0d5116c6c68997aa05a0317f0cd89244167afbf443651a3e0a865cd32c3fae2202399e18d9f8687d0684",
      "networkId": 0,
      "chainId": 0
    }
  ]
}