{
  "hash": "0xb6e556a71ca9d67eb4c53c17b10fcbb2c7a52be61ec90e24bd24513455eee599",
  "parentHash": "0x8a7747a7eccc31247ec289ff40a12fc3a12dde2e7219369379aa3d8f85d018e3",
  "number": 71971,
  "timestamp": 1439344896,
  "nonce": "0x4bb4561f1b4a3cea",
  "difficulty": 2171782520716,
  "gasLimit": {
    "_hex": "0x2fefd8"
  },
  "gasUsed": {
    "_hex": "0x100c9"
  },
  "miner": "0x8B454d830feF179e66206840F8F3D1d83bC32b17",
  "extraData": "0x476574682f76312e302e312f77696e646f77732f676f312e342e32",
  "transactions": [
    {
      "hash": "0xc08c8a6b50913e8c2faadc6cb5682671e6fb79adee457b7fc45ae4824f4756db",
      "blockHash": "0xb6e556a71ca9d67eb4c53c17b10fcbb2c7a52be61ec90e24bd24513455eee599",
      "blockNumber": 71971,
      "transactionIndex": 0,
      "confirmations": null,
      "from": "0x95dF4e3445D7662624c48eba74cF9e0a53E9f732",
      "gasPrice": {
        "_hex": "0xdb2816147"
      },
      "gasLimit": {
        "_hex": "0x5208"
      },
      "to": "0x43279854AaF8825a6d1fcCf056caF190Ab8a7b76",
      "value": {
        "_hex": "0xa2a15d09519be00000"
      },
      "nonce": 9,
      "data": "0x",
      "r": "0xadd4010d993ec9391d1f6eccef09f5bc205ce31d393e68d45ac71dc61e12da31",
      "s": "0x1426d04b6d207388a5d92d9e6172cd9150dfdf1f6aa67d529d59149fbfd94a50",
      "v": 28,
      "creates": null,
      "raw": "0xf86d09850db28161478252089443279854aaf8825a6d1fccf056caf190ab8a7b7689a2a15d09519be00000801ca0add4010d993ec9391d1f6eccef09f5bc205ce31d393e68d45ac71dc61e12da31a01426d04b6d207388a5d92d9e6172cd9150dfdf1f6aa67d529d59149fbfd94a50",
      "networkId": 0,
      "chainId": 0
    },
    {
      "hash": "0xc1c0cfda621c907985dd6c19b08bc5f9d71d786ada71f1e0050c28aeb9d4c2d8",
      "blockHash": "0xb6e556a71ca9d67eb4c53c17b10fcbb2c7a52be61ec90e24bd24513455eee599",
      "blockNumber": 71971,
      "transactionIndex": 1,
      "confirmations": null,
      "from": "0x17580B766f7453525ca4C6A88b01b50570EA088C",
      "gasPrice": {
        "_hex": "0xd4825c8f8"
      },
      "gasLimit": {
        "_hex": "0x61a80"
      },
      "to": "0x5Fe5B7546D1628f7348B023A0393de1FC825A4fD",
      "value": {
        "_hex": "0x3782dace9d900000"
      },
      "nonce": 314,
      "data": "0xb595b8b50000000000000000000000000000000000000000000000000000000000000001",
      "r": "0xbdb609ecb044c3a41b77f0b2ca82825279efc6b497b52aa85b840341054ecddd",
      "s": "0x66766be624bdce247146feb766468da16eaeaf0455d8bc95782882f6c6405db6",
      "v": 27,
      "creates": null,
      "raw": "0xf89382013a850d4825c8f883061a80945fe5b7546d1628f7348b023a0393de1fc825a4fd883782dace9d900000a4b595b8b500000000000000000000000000000000000000000000000000000000000000011ba0bdb609ecb044c3a41b77f0b2ca82825279efc6b497b52aa85b840341054ecddda066766be624bdce247146feb766468da16eaeaf0455d8bc95782882f6c6405db6",
      "networkId": 0,
      "chainId": 0
    }
  ]
}