{
  "hash": "0xfec48092ccb0494a5c418199b9db41085ca3be1d395d78fb52a2ada8b647015c",
  "parentHash": "0xc9b7427c52c842013e591e1033255a26580037de13b1b5b79b8ad5724785e99b",
  "number": 121561,
  "timestamp": 1440178901,
  "nonce": "0x9151d509da7e22ed",
  "difficulty": 4451626561599,
  "gasLimit": {
    "_hex": "0x2fefd8"
  },
  "gasUsed": {
    "_hex": "0x5208"
  },
  "miner": "0x954Fa3AAEb2272A61767DA893c9D8Dfd4eDef64D",
  "extraData": "0xd783010100844765746887676f312e342e32856c696e7578",
  "transactions": [
    {
      "hash": "0xded8edefef05b5e1b31d2c17bdeb435676a8dff30a9246ed019aa21f487fb977",
      "blockHash": "0xfec48092ccb0494a5c418199b9db41085ca3be1d395d78fb52a2ada8b647015c",
      "blockNumber": 121561,
      "transactionIndex": 0,
      "confirmations": null,
      "from": "0x608f4b86321a68453f9adf6F06F7Fc3E621739ad",
      "gasPrice": {
        "_hex": "0xba43b7400"
      },
      "gasLimit": {
        "_hex": "0x5208"
      },
      "to": "0x32Be343B94f860124dC4fEe278FDCBD38C102D88",
      "value": {
        "_hex": "0x4567a61993a9d800"
      },
      "nonce": 105,
      "data": "0x",
      "r": "0x26282997755ed86658edac44ccb41a2536577d08ef0ef51ae1e065fa123b314f",
      "s": "0x3905407f60e59b641dd765ba10a4131626e502cff39ec329f35120fe2ad84706",
      "v": 28,
      "creates": null,
      "raw": "0xf86c69850ba43b74008252089432be343b94f860124dc4fee278fdcbd38c102d88884567a61993a9d800801ca026282997755ed86658edac44ccb41a2536577d08ef0ef51ae1e065fa123b314fa03905407f60e59b641dd765ba10a4131626e502cff39ec329f35120fe2ad84706",
      "networkId": 0,
      "chainId": 0
    }
  ]
}