{
  "hash": "0x62a5416cc738cdd599ded97e0175d901a80a232ca2d57573b2f04b1d2cf4b4d9",
  "parentHash": "0x2a989f17c24a59d6c6246c8e6446229698104ce712ca18eb09b63e7c06f37895",
  "number": 89858,
  "timestamp": 1439630226,
  "nonce": "0x1f5a1a9a7174ed20",
  "difficulty": 3341839736470,
  "gasLimit": {
    "_hex": "0x2fefd8"
  },
  "gasUsed": {
    "_hex": "0xa410"
  },
  "miner": "0xe6A7a1d47ff21B6321162AEA7C6CB457D5476Bca",
  "extraData": "0x476574682f76312e302e312d38326566323666362f6c696e75782f676f312e34",
  "transactions": [
    {
      "hash": "0x8aa9d66cb71d9eec16b979edfd442a5118c1e3269bdc3a733a98c85567de5fe8",
      "blockHash": "0x62a5416cc738cdd599ded97e0175d901a80a232ca2d57573b2f04b1d2cf4b4d9",
      "blockNumber": 89858,
      "transactionIndex": 0,
      "confirmations": null,
      "from": "0xce8ff6d2027CA9837abb85FD515752151b6C7d0A",
      "gasPrice": {
        "_hex": "0xd3edbdb7b"
      },
      "gasLimit": {
        "_hex": "0x5208"
      },
      "to": "0x32Be343B94f860124dC4fEe278FDCBD38C102D88",
      "value": {
        "_hex": "0xa0300bfb8e23f800"
      },
      "nonce": 3,
      "data": "0x",
      "r": "0x9a50746a9fd541eab7b486066e4274f15a358f5d81bc4f903124a88a25b8ef2f",
      "s": "0x167f0b9c4b5549af65769f3f615a523a51e8e4db451ff487769f5395057d6528",
      "v": 28,
      "creates": null,
      "raw": "0xf86c03850d3edbdb7b8252089432be343b94f860124dc4fee278fdcbd38c102d8888a0300bfb8e23f800801ca09a50746a9fd541eab7b486066e4274f15a358f5d81bc4f903124a88a25b8ef2fa0167f0b9c4b5549af65769f3f615a523a51e8e4db451ff487769f5395057d6528",
      "networkId": 0,
      "chainId": 0
    },
    {
      "hash": "0x7591ab10ac7362e5f7fa4cd65b2ff9cdd6b44f8c3310aa89825a9b089330df52",
      "blockHash": "0x62a5416cc738cdd599ded97e0175d901a80a232ca2d57573b2f04b1d2cf4b4d9",
      "blockNumber": 89858,
      "transactionIndex": 1,
      "confirmations": null,
      "from": "0x93b3437645A67059E280a3317a93c57e2f4788EA",
      "gasPrice": {
        "_hex": "0xd3edbdb7b"
      },
      "gasLimit": {
        "_hex": "0x5208"
      },
      "to": "0x32Be343B94f860124dC4fEe278FDCBD38C102D88",
      "value": {
        "_hex": "0x2380ac11780d4a000"
      },
      "nonce": 3,
      "data": "0x",
      "r": "0x4e7b2f7dab158cdc34382222f0afa946d0dacf5f0bd49f7ec854d3b4a92dea81",
      "s": "0x755e03a101e585ab9110c1d384fcfc0fd6df13ab541caa1dc0f02871a347d4fe",
      "v": 27,
      "creates": null,
      "raw": "0xf86d03850d3edbdb7b8252089432be343b94f860124dc4fee278fdcbd38c102d888902380ac11780d4a000801ba04e7b2f7dab158cdc34382222f0afa946d0dacf5f0bd49f7ec854d3b4a92dea81a0755e03a101e585ab9110c1d384fcfc0fd6df13ab541caa1dc0f02871a347d4fe",
      "networkId": 0,
      "chainId": 0
    }
  ]
}