{
  "hash": "0x09a7372a98dad14c83aaa6b2079889094e88d48551b6a1d8a5a913ea25b809b8",
  "parentHash": "0x14da32cffb4e46f26cd847c3c689d1c387f2701e4afc49c3eda6f58538cc1cd4",
  "number": 106201,
  "timestamp": 1439900331,
  "nonce": "0xe3dde6b94043a61a",
  "difficulty": 4477240308546,
  "gasLimit": {
    "_hex": "0x2fefd8"
  },
  "gasUsed": {
    "_hex": "0x5208"
  },
  "miner": "0x5532A650304265014A873E4399A3487d0296B8CF",
  "extraData": "0x",
  "transactions": [
    {
      "hash": "0x075db18fd4691148f03221af9fe340485e37807213edf30cd8460cefb3b0ceaf",
      "blockHash": "0x09a7372a98dad14c83aaa6b2079889094e88d48551b6a1d8a5a913ea25b809b8",
      "blockNumber": 106201,
      "transactionIndex": 0,
      "confirmations": null,
      "from": "0x32Be343B94f860124dC4fEe278FDCBD38C102D88",
      "gasPrice": {
        "_hex": "0xcbbd314be"
      },
      "gasLimit": {
        "_hex": "0x5208"
      },
      "to": "0xf669D33ffC879Ed84BECd4EF67CB17c76f4607D5",
      "value": {
        "_hex": "0x379fa113693bae000"
      },
      "nonce": 1187,
      "data": "0x",
      "r": "0x1d1cce0694476fae3cca0cf564401c59a343da2953eed94131a46b9117768455",
      "s": "0x0111acf5d275a3beb8d96c1a4ebc2fc5ea59ec0aa24d9bfdb58489ac31ff31cb",
      "v": 28,
      "creates": null,
      "raw": "0xf86f8204a3850cbbd314be82520894f669d33ffc879ed84becd4ef67cb17c76f4607d5890379fa113693bae000801ca01d1cce0694476fae3cca0cf564401c59a343da2953eed94131a46b9117768455a00111acf5d275a3beb8d96c1a4ebc2fc5ea59ec0aa24d9bfdb58489ac31ff31cb",
      "networkId": 0,
      "chainId": 0
    }
  ]
}