{
  "hash": "0xc174a52759dd2c0e1a073962be55f5c3a23d1b75d2f82f9234fc110aa756508a",
  "parentHash": "0xeed9b5ed7dc15c2e57ac93cc35f8cecae9368ca18a195d02bba95b08f5a49361",
  "number": 108911,
  "timestamp": 1439948168,
  "nonce": "0xfc5b92af598ecd34",
  "difficulty": 4384940175432,
  "gasLimit": {
    "_hex": "0x2fefd8"
  },
  "gasUsed": {
    "_hex": "0x5208"
  },
  "miner": "0xe6A7a1d47ff21B6321162AEA7C6CB457D5476Bca",
  "extraData": "0x476574682f76312e302e312d38326566323666362f6c696e75782f676f312e34",
  "transactions": [
    {
      "hash": "0x6fe33c8e3bcd393ebf31dec4ce069be12d90bc2b341ca5f6ed20bbcfdbda04ee",
      "blockHash": "0xc174a52759dd2c0e1a073962be55f5c3a23d1b75d2f82f9234fc110aa756508a",
      "blockNumber": 108911,
      "transactionIndex": 0,
      "confirmations": null,
      "from": "0x120A270bbC009644e35F0bB6ab13f95b8199c4ad",
      "gasPrice": {
        "_hex": "0xce83b9193"
      },
      "gasLimit": {
        "_hex": "0x15f90"
      },
      "to": "0xD3c6b518F1631509963232bA8e1882D3474a5838",
      "value": {
        "_hex": "0x257e1e9c7249158000"
      },
      "nonce": 844,
      "data": "0x",
      "r": "0x287a5118098208dfa9ebb05cac2b841514ad61f052a612390f12c79f5acbe3b7",
      "s": "0x735446b2778c1de7c6465b19e52643e2102a1e69bf72d97fbdd4f8c89d739022",
      "v": 28,
      "creates": null,
      "raw": "0xf87082034c850ce83b919383015f9094d3c6b518f1631509963232ba8e1882d3474a583889257e1e9c7249158000801ca0287a5118098208dfa9ebb05cac2b841514ad61f052a612390f12c79f5acbe3b7a0735446b2778c1de7c6465b19e52643e2102a1e69bf72d97fbdd4f8c89d739022",
      "networkId": 0,
      "chainId": 0
    }
  ]
}