{
  "hash": "0x1d36ecd24edd873a11a23ca0a42a572d3285ec201117f259b283438f56f09a59",
  "parentHash": "0xd94137ed715a09b3f2d4556d69462e016bc91ea67073b6ffda6321bb15b8e046",
  "number": 88020,
  "timestamp": 1439601287,
  "nonce": "0x9f2047f044f43a9d",
  "difficulty": 3198862460032,
  "gasLimit": {
    "_hex": "0x2fefd8"
  },
  "gasUsed": {
    "_hex": "0x5208"
  },
  "miner": "0x3FF679B0823a026F2378E5f5F22A6F127cC85828",
  "extraData": "0x",
  "transactions": [
    {
      "hash": "0x9c0e7fdc868173730131e7cc9d1eba9314fb54925dc08bc3eaa7905215ac2a53",
      "blockHash": "0x1d36ecd24edd873a11a23ca0a42a572d3285ec201117f259b283438f56f09a59",
      "blockNumber": 88020,
      "transactionIndex": 0,
      "confirmations": null,
      "from": "0x661eedD93dA06499d3220aA2aDF05d6d2417e60c",
      "gasPrice": {
        "_hex": "0x10faa8fba7e"
      },
      "gasLimit": {
        "_hex": "0x15f90"
      },
      "to": "0x71762C63678C18D1C6378ce068E666381315147e",
      "value": {
        "_hex": "0xde0b6b3a7640000"
      },
      "nonce": 3,
      "data": "0x",
      "r": "0x4590a3d091c6f954c58744a7837c0e24a8b0d58e9c387e122d7e79c1fa24c7d2",
      "s": "0x2500ba6243b6374eb2e9dccd18959f61ab5efea522e9171dbdd8922d0e1845d1",
      "v": 27,
      "creates": null,
      "raw": "0xf86e0386010faa8fba7e83015f909471762c63678c18d1c6378ce068e666381315147e880de0b6b3a7640000801ba04590a3d091c6f954c58744a7837c0e24a8b0d58e9c387e122d7e79c1fa24c7d2a02500ba6243b6374eb2e9dccd18959f61ab5efea522e9171dbdd8922d0e1845d1",
      "networkId": 0,
      "chainId": 0
    }
  ]
}