{
  "hash": "0xf15023b97605f202cb7f2a46289c25a6b6de2c6cd25d8ad4a635304d111edb65",
  "parentHash": "0x4ca9481cefd4c063a390835b62d5615d41511c4593bc64677845001761923487",
  "number": 114736,
  "timestamp": 1440045429,
  "nonce": "0xff280aa707523fab",
  "difficulty": 4457425840665,
  "gasLimit": {
    "_hex": "0x2fefd8"
  },
  "gasUsed": {
    "_hex": "0x5208"
  },
  "miner": "0x007f7f58D3eb5b7510A301eCC749FC1fCDDBE14D",
  "extraData": "0x476574682f76312e302e312f77696e646f77732f676f312e342e32",
  "transactions": [
    {
      "hash": "0x820d7a85f9268fc95c56884ab7c38607bbee3ae5659247809c17a2730e4145ee",
      "blockHash": "0xf15023b97605f202cb7f2a46289c25a6b6de2c6cd25d8ad4a635304d111edb65",
      "blockNumber": 114736,
      "transactionIndex": 0,
      "confirmations": null,
      "from": "0x9d93fAb6E22845f8f45A07496F11dE71530dEbC7",
      "gasPrice": {
        "_hex": "0x10a178f1ed5"
      },
      "gasLimit": {
        "_hex": "0x15f90"
      },
      "to": "0xF75abfFf465383e018157AB7fa000Fdc60e50761",
      "value": {
        "_hex": "0xde0b6b3a7640000"
      },
      "nonce": 1,
      "data": "0x",
      "r": "0x216b4d2864290a7d9ddcd6ccd2d55080672e862c19bcee8eaeec91b6b64e1a6e",
      "s": "0x45b5c1177a64fa7aae8aafe2c03b61d94df688a46c152255148ccae5ff6652fa",
      "v": 28,
      "creates": null,
      "raw": "0xf86e0186010a178f1ed583015f9094f75abfff465383e018157ab7fa000fdc60e50761880de0b6b3a7640000801ca0216b4d2864290a7d9ddcd6ccd2d55080672e862c19bcee8eaeec91b6b64e1a6ea045b5c1177a64fa7aae8aafe2c03b61d94df688a46c152255148ccae5ff6652fa",
      "networkId": 0,
      "chainId": 0
    }
  ]
}