{
  "hash": "0x411a99bd2e3bb8bf3c857117c0a2659713b23e9100ef14a68ee8613e2620a5da",
  "parentHash": "0x5352760a4edb1c320f5b753aa8b9d29c6db52c09dcbaf10a540e435300c7dfcb",
  "number": 50305,
  "timestamp": 1438987023,
  "nonce": "0x0db3cef1e08c7ea6",
  "difficulty": 1511188841635,
  "gasLimit": {
    "_hex": "0x5beb4"
  },
  "gasUsed": {
    "_hex": "0xddfd"
  },
  "miner": "0xf927a40C8B7F6E07c5af7FA2155B4864a4112B13",
  "extraData": "0x476574682f76312e302e312f6c696e75782f676f312e342e32",
  "transactions": [
    {
      "hash": "0x3d81f034d496ad23c542fee5396d310f39b0e3af25c9c518c03db7b27504b709",
      "blockHash": "0x411a99bd2e3bb8bf3c857117c0a2659713b23e9100ef14a68ee8613e2620a5da",
      "blockNumber": 50305,
      "transactionIndex": 0,
      "confirmations": null,
      "from": "0x17580B766f7453525ca4C6A88b01b50570EA088C",
      "gasPrice": {
        "_hex": "0xdc262e4c9"
      },
      "gasLimit": {
        "_hex": "0x30d40"
      },
      "to": "0x109C4f2CCc82C4d77Bde15F306707320294Aea3F",
      "value": {
        "_hex": "0xde0b6b3a7640000"
      },
      "nonce": 1,
      "data": "0x",
      "r": "0xe99b17b13cc814990631a65ea330849f3360d7be6cda452a9301a5fe804aaff3",
      "s": "0x1a6bf0369d45694a344770c37f3521cf1d1414c3f0949c7f7401f64882ca40b9",
      "v": 27,
      "creates": null,
      "raw": "0xf86d01850dc262e4c983030d4094109c4f2ccc82c4d77bde15f306707320294aea3f880de0b6b3a7640000801ba0e99b17b13cc814990631a65ea330849f3360d7be6cda452a9301a5fe804aaff3a01a6bf0369d45694a344770c37f3521cf1d1414c3f0949c7f7401f64882ca40b9",
      "networkId": 0,
      "chainId": 0
    }
  ]
}