{
  "hash": "0xda096ff1b6f9ac68e3d0d59139e718b52b4f3f058c70a346e38f2733178745b3",
  "parentHash": "0xe38542cd34c51ca3927bb17165eedebdddb1f5c24e830eb1f41ca1bf7cddbd17",
  "number": 95811,
  "timestamp": 1439729942,
  "nonce": "0x850f1a1d7a39e52c",
  "difficulty": 3648042545737,
  "gasLimit": {
    "_hex": "0x2fefd8"
  },
  "gasUsed": {
    "_hex": "0x5208"
  },
  "miner": "0xBD744E3F13D79B33F6c8E1d5E32F8E9BA2866c46",
  "extraData": "0x476574682f76312e302e312d39613032663533372f6c696e75782f676f312e34",
  "transactions": [
    {
      "hash": "0xe86162cc750290d3070d03302aa4926966a99c3359e557783c62649f8de473fb",
      "blockHash": "0xda096ff1b6f9ac68e3d0d59139e718b52b4f3f058c70a346e38f2733178745b3",
      "blockNumber": 95811,
      "transactionIndex": 0,
      "confirmations": null,
      "from": "0xCdA0AD7542e30BF520652A05056eBe0105c7e49A",
      "gasPrice": {
        "_hex": "0xd641f460d"
      },
      "gasLimit": {
        "_hex": "0x1e8480"
      },
      "to": "0x02E816AFC1b5C0f39852131959D946eb3b07b5ad",
      "value": {
        "_hex": "0x0"
      },
      "nonce": 9,
      "data": "0x",
      "r": "0xf5c6b667d73604ff2059c3d8a9c280ef6deb805bdb3fb69a109dffee70bc43f5",
      "s": "0x0cb0bcabb9b2efced1c43c2297423621457deb7113d21a89fdaf75da40b4ffdd",
      "v": 28,
      "creates": null,
      "raw": "0xf86509850d641f460d831e84809402e816afc1b5c0f39852131959d946eb3b07b5ad80801ca0f5c6b667d73604ff2059c3d8a9c280ef6deb805bdb3fb69a109dffee70bc43f5a00cb0bcabb9b2efced1c43c2297423621457deb7113d21a89fdaf75da40b4ffdd",
      "networkId": 0,
      "chainId": 0
    }
  ]
}