{
  "hash": "0xb71a8bd78e4fa8a88784d93ed8733b62338b6e21bba31625fc6c93aefe25de5b",
  "parentHash": "0x231cf9b52ce427e4a1e101f89a677a1adfda415ea88d113759d63148253349c9",
  "number": 89100,
  "timestamp": 1439618150,
  "nonce": "0x4ea62058d99519d1",
  "difficulty": 3271103725182,
  "gasLimit": {
    "_hex": "0x2fefd8"
  },
  "gasUsed": {
    "_hex": "0x5208"
  },
  "miner": "0x7366ADF97960d404c38D975e1A8786bEb14B6507",
  "extraData": "0x476574682f76312e302e312f77696e646f77732f676f312e342e32",
  "transactions": [
    {
      "hash": "0x151227d9b8e453be9caf7831aa5e27032c4192c5a93ddf01fe69f03ca2465801",
      "blockHash": "0xb71a8bd78e4fa8a88784d93ed8733b62338b6e21bba31625fc6c93aefe25de5b",
      "blockNumber": 89100,
      "transactionIndex": 0,
      "confirmations": null,
      "from": "0xaEAf103356C2Ee943F748E8655659D29881323E1",
      "gasPrice": {
        "_hex": "0xd7d40ace3"
      },
      "gasLimit": {
        "_hex": "0x15f90"
      },
      "to": "0x6d84df1cFAD609EAc476cBC2553390bFC23Cf6Fc",
      "value": {
        "_hex": "0xde0b6b3a7640000"
      },
      "nonce": 0,
      "data": "0x",
      "r": "0xda2945165b4b304367a94e1bd77d6982a23e38642c0c86840286fbff6e4b48e9",
      "s": "0x790566ec47b6a6ca956171788d7fc15da51b1f0882ba76d16c018910d28211d6",
      "v": 28,
      "creates": null,
      "raw": "0xf86d80850d7d40ace383015f90946d84df1cfad609eac476cbc2553390bfc23cf6fc880de0b6b3a7640000801ca0da2945165b4b304367a94e1bd77d6982a23e38642c0c86840286fbff6e4b48e9a0790566ec47b6a6ca956171788d7fc15da51b1f0882ba76d16c018910d28211d6",
      "networkId": 0,
      "chainId": 0
    }
  ]
}