{
  "hash": "0xae2f47ce4509c04f9df18a97fa42d99eec5b5d0263c7a4b4ee162c9871b33b9a",
  "parentHash": "0x39ecd005e87817b1e4f09873ea9670b804bc28e0306b5c0b235e9f29ddd31f74",
  "number": 79951,
  "timestamp": 1439477764,
  "nonce": "0x46948745d7331936",
  "difficulty": 2352907205088,
  "gasLimit": {
    "_hex": "0x2fefd8"
  },
  "gasUsed": {
    "_hex": "0xa410"
  },
  "miner": "0x31995C46B15C84523cDEE26f49A681b8237e43F5",
  "extraData": "0x476574682f76312e302e312f77696e646f77732f676f312e342e32",
  "transactions": [
    {
      "hash": "0x62947b9246d3e828955b20e748b39e7c242946be65d42dc9469ebf81e6834339",
      "blockHash": "0xae2f47ce4509c04f9df18a97fa42d99eec5b5d0263c7a4b4ee162c9871b33b9a",
      "blockNumber": 79951,
      "transactionIndex": 0,
      "confirmations": null,
      "from": "0x32Be343B94f860124dC4fEe278FDCBD38C102D88",
      "gasPrice": {
        "_hex": "0xdcf21b7f3"
      },
      "gasLimit": {
        "_hex": "0x5208"
      },
      "to": "0x5Fc6b105a862830c0Ab0b9972a656C9B2eD66b9F",
      "value": {
        "_hex": "0x1b1ac14ff07f8f0000"
      },
      "nonce": 488,
      "data": "0x",
      "r": "0xc05f451b367d8d2deaed0ac88bd6530f03aca8200b317ea9e92f49c91f8d0195",
      "s": "0x4560acdaeeda0c823b4015fb8ba86c816bc234f36faaf7d34ce6e199bf144770",
      "v": 28,
      "creates": null,
      "raw": "0xf86f8201e8850dcf21b7f3825208945fc6b105a862830c0ab0b9972a656c9b2ed66b9f891b1ac14ff07f8f0000801ca0c05f451b367d8d2deaed0ac88bd6530f03aca8200b317ea9e92f49c91f8d0195a04560acdaeeda0c823b4015fb8ba86c816bc234f36faaf7d34ce6e199bf144770",
      "networkId": 0,
      "chainId": 0
    },
    {
      "hash": "0x2424c6e20cb26e2f073e7bc2bb6fa73bef64583f7d1012a2be0dc2df4ac4cd1b",
      "blockHash": "0xae2f47ce4509c04f9df18a97fa42d99eec5b5d0263c7a4b4ee162c9871b33b9a",
      "blockNumber": 79951,
      "transactionIndex": 1,
      "confirmations": null,
      "from": "0x32Be343B94f860124dC4fEe278FDCBD38C102D88",
      "gasPrice": {
        "_hex": "0xdcf21b7f3"
      },
      "gasLimit": {
        "_hex": "0x5208"
      },
      "to": "0x8FE9CA74aD04f35577E62bB0D660E5eeB85D8ed4",
      "value": {
        "_hex": "0x37a661c10d510000"
      },
      "nonce": 489,
      "data": "0x",
      "r": "0xd6e226db98e5b4a2d2fd61af23a8ef02955ed96a6c223a87db2c1c147f28c4e1",
      "s": "0x37f36837fb50c6849977e7249de917ca62de6c02f5ac06198185c482585fbd6d",
      "v": 27,
      "creates": null,
      "raw": "0xf86e8201e9850dcf21b7f3825208948fe9ca74ad04f35577e62bb0d660e5eeb85d8ed48837a661c10d510000801ba0d6e226db98e5b4a2d2fd61af23a8ef02955ed96a6c223a87db2c1c147f28c4e1a037f36837fb50c6849977e7249de917ca62de6c02f5ac06198185c482585fbd6d",
      "networkId": 0,
      "chainId": 0
    }
  ]
}