{
  "hash": "0x66165d2fe67bddc24a02b08759c917355f21561ea4cc6ad4e0cbad6c6e607cb5",
  "parentHash": "0x7345f868fac9cff92f81c78d16e245832598f2d09d906388efb1e011b7737a6b",
  "number": 94679,
  "timestamp": 1439712234,
  "nonce": "0x2cb6f0416e917bd9",
  "difficulty": 3491670810284,
  "gasLimit": {
    "_hex": "0x2fefd8"
  },
  "gasUsed": {
    "_hex": "0x5208"
  },
  "miner": "0xf927a40C8B7F6E07c5af7FA2155B4864a4112B13",
  "extraData": "0x",
  "transactions": [
    {
      "hash": "0x5f010efa5ce28bb12f60804d60e2488e95f55071fdc6c7d9878dc2cb916a4964",
      "blockHash": "0x66165d2fe67bddc24a02b08759c917355f21561ea4cc6ad4e0cbad6c6e607cb5",
      "blockNumber": 94679,
      "transactionIndex": 0,
      "confirmations": null,
      "from": "0x06BcFDb20583cc822f2031724E36F3678BBCa6E9",
      "gasPrice": {
        "_hex": "0xd5c672820"
      },
      "gasLimit": {
        "_hex": "0x5208"
      },
      "to": "0x32Be343B94f860124dC4fEe278FDCBD38C102D88",
      "value": {
        "_hex": "0x20b3c605c4df36000"
      },
      "nonce": 4,
      "data": "0x",
      "r": "0x7348cb44ddbfef6dd23b3be4954a7169a0b2c54ad10e9c86cfbc25844d4bd0ff",
      "s": "0x0e5f8915eedb44a77e656e6fff5d33e45201ae3569dc8ce7d6b27251877b47fa",
      "v": 27,
      "creates": null,
      "raw": "0xf86d04850d5c6728208252089432be343b94f860124dc4fee278fdcbd38c102d8889020b3c605c4df36000801ba07348cb44ddbfef6dd23b3be4954a7169a0b2c54ad10e9c86cfbc25844d4bd0ffa00e5f8915eedb44a77e656e6fff5d33e45201ae3569dc8ce7d6b27251877b47fa",
      "networkId": 0,
      "chainId": 0
    }
  ]
}