{
  "hash": "0xcef56707247950cdff5ae71c3921c998d2d371a51e485cc9769229ff3a452487",
  "parentHash": "0xee21959ae114aa000244979c43f51149c7a03c97e4e87e5d493f450ccfd28534",
  "number": 78264,
  "timestamp": 1439451182,
  "nonce": "0xcc46f6f520b911e4",
  "difficulty": 2277635701427,
  "gasLimit": {
    "_hex": "0x2fefd8"
  },
  "gasUsed": {
    "_hex": "0x7a61"
  },
  "miner": "0xe6A7a1d47ff21B6321162AEA7C6CB457D5476Bca",
  "extraData": "0x476574682f76312e302e312d38326566323666362f6c696e75782f676f312e34",
  "transactions": [
    {
      "hash": "0x88cdfceeea3521c79b8d0275d5331ae67ef562a0ddb361ef71ca5dfc8a6158da",
      "blockHash": "0xcef56707247950cdff5ae71c3921c998d2d371a51e485cc9769229ff3a452487",
      "blockNumber": 78264,
      "transactionIndex": 0,
      "confirmations": null,
      "from": "0xD1826373C4E0938f0b4302B40324f7f9c546492C",
      "gasPrice": {
        "_hex": "0xde0521c95"
      },
      "gasLimit": {
        "_hex": "0x30d40"
      },
      "to": "0x9611d9Df6A56E3708F2093f08095F33922b59c4A",
      "value": {
        "_hex": "0xe8d4a51000"
      },
      "nonce": 16,
      "data": "0x",
      "r": "0x41f550f3c65a7393abceb8b3857854eda2ade8f1a55d7f84ae13718f58f5e24c",
      "s": "0x5deb42e2efe201269646a3d060584f6fcab8d830e1fe350e612f8172d902e607",
      "v": 27,
      "creates": null,
      "raw": "0xf86a10850de0521c9583030d40949611d9df6a56e3708f2093f08095f33922b59c4a85e8d4a51000801ba041f550f3c65a7393abceb8b3857854eda2ade8f1a55d7f84ae13718f58f5e24ca05deb42e2efe201269646a3d060584f6fcab8d830e1fe350e612f8172d902e607",
      "networkId": 0,
      "chainId": 0
    }
  ]
}