{
  "hash": "0x423a78b424191727335853b41df7fa32c4d99d42181b4b93df0f6ac2975f4039",
  "parentHash": "0xf5f169c9cf9fb0df6bae2fc665c38f880f87ee3fbf9864a52c8817434416662c",
  "number": 94749,
  "timestamp": 1439713625,
  "nonce": "0xf1f9ea9066417fe9",
  "difficulty": 3481427223738,
  "gasLimit": {
    "_hex": "0x2fefd8"
  },
  "gasUsed": {
    "_hex": "0x14820"
  },
  "miner": "0xe6A7a1d47ff21B6321162AEA7C6CB457D5476Bca",
  "extraData": "0x476574682f76312e302e312d38326566323666362f6c696e75782f676f312e34",
  "transactions": [
    {
      "hash": "0xa53f8ae63c77462bc2609a64f4371e337710e9a702e19903da15e8a881ee0e1d",
      "blockHash": "0x423a78b424191727335853b41df7fa32c4d99d42181b4b93df0f6ac2975f4039",
      "blockNumber": 94749,
      "transactionIndex": 0,
      "confirmations": null,
      "from": "0x1308A2e95c0160B90803ddCA9B9a5bb55E416d79",
      "gasPrice": {
        "_hex": "0xdd1816cc3"
      },
      "gasLimit": {
        "_hex": "0x15f90"
      },
      "to": "0x8BeF58cf6D5f4fdE02e940a20D56b052F89Cf42f",
      "value": {
        "_hex": "0x6e73b52d47e4b4c800"
      },
      "nonce": 157,
      "data": "0x",
      "r": "0xf50577e70910a8d5fa1936b1cb09cc927534aab013c1a4982e0c1accd028ba6f",
      "s": "0x0eb434ba9cc4571edbea95c970043a79844ca500c304abbec09feadc520552e6",
      "v": 27,
      "creates": null,
      "raw": "0xf86f819d850dd1816cc383015f90948bef58cf6d5f4fde02e940a20d56b052f89cf42f896e73b52d47e4b4c800801ba0f50577e70910a8d5fa1936b1cb09cc927534aab013c1a4982e0c1accd028ba6fa00eb434ba9cc4571edbea95c970043a79844ca500c304abbec09feadc520552e6",
      "networkId": 0,
      "chainId": 0
    },
    {
      "hash": "0x1b03dc9a1d801fe7381c5581834ababa1e17521b518ecda820c033eb9e76d44c",
      "blockHash": "0x423a78b424191727335853b41df7fa32c4d99d42181b4b93df0f6ac2975f4039",
      "blockNumber": 94749,
      "transactionIndex": 1,
      "confirmations": null,
      "from": "0x1308A2e95c0160B90803ddCA9B9a5bb55E416d79",
      "gasPrice": {
        "_hex": "0xdd1816cc3"
      },
      "gasLimit": {
        "_hex": "0x15f90"
      },
      "to": "0x5dFE00558b1b8cAdfDc190fB334ec459Bb28198c",
      "value": {
        "_hex": "0x56900d33ca7fc0000"
      },
      "nonce": 158,
      "data": "0x",
      "r": "0x284d9c297854b01b868a31b042a0e9171df5cd4e5aa4afff94c83108e3a73409",
      "s": "0x2f7ec947b07ac4032a46e6f63b5790e1c1876dc09884447f7be32c07f42c12d4",
      "v": 27,
      "creates": null,
      "raw": "0xf86f819e850dd1816cc383015f90945dfe00558b1b8cadfdc190fb334ec459bb28198c89056900d33ca7fc0000801ba0284d9c297854b01b868a31b042a0e9171df5cd4e5aa4afff94c83108e3a73409a02f7ec947b07ac4032a46e6f63b5790e1c1876dc09884447f7be32c07f42c12d4",
      "networkId": 0,
      "chainId": 0
    },
    {
      "hash": "0xa49b22f12c041bde095a9302ba1b32294895bc1cd89da80f1ed7825beb7e5e93",
      "blockHash": "0x423a78b424191727335853b41df7fa32c4d99d42181b4b93df0f6ac2975f4039",
      "blockNumber": 94749,
      "transactionIndex": 2,
      "confirmations": null,
      "from": "0x9A6eb0bBBE50281644D7a7839147F59819506Ac0",
      "gasPrice": {
        "_hex": "0xd7cd8ac03"
      },
      "gasLimit": {
        "_hex": "0x5208"
      },
      "to": "0x32Be343B94f860124dC4fEe278FDCBD38C102D88",
      "value": {
        "_hex": "0x87815f410659b000"
      },
      "nonce": 2,
      "data": "0x",
      "r": "0x67e163ce09d16d011079cf1fb76e1b466a65d63991ee7442a1f00567396be802",
      "s": "0x6ccd1ec755d0320f97bd2f99158d8c6e2280d983bbe822d2477f7153da011da9",
      "v": 28,
      "creates": null,
      "raw": "0xf86c02850d7cd8ac038252089432be343b94f860124dc4fee278fdcbd38c102d888887815f410659b000801ca067e163ce09d16d011079cf1fb76e1b466a65d63991ee7442a1f00567396be802a06ccd1ec755d0320f97bd2f99158d8c6e2280d983bbe822d2477f7153da011da9",
      "networkId": 0,
      "chainId": 0
    },
    {
      "hash": "0x2933b526691af80e41a79f798ed0c705d71307d44ed463cc761ee8b473eac9bf",
      "blockHash": "0x423a78b424191727335853b41df7fa32c4d99d42181b4b93df0f6ac2975f4039",
      "blockNumber": 94749,
      "transactionIndex": 3,
      "confirmations": null,
      "from": "0x7001C4730b81A539eF8b760A3eEb14C64515137B",
      "gasPrice": {
        "_hex": "0xd7cd8ac03"
      },
      "gasLimit": {
        "_hex": "0x5208"
      },
      "to": "0x32Be343B94f860124dC4fEe278FDCBD38C102D88",
      "value": {
        "_hex": "0x36f9479e4eb5bc000"
      },
      "nonce": 2,
      "data": "0x",
      "r": "0x6395cc4aba5840b3b072f1445e20c3e6fdf4759e276924e2beadb83328585ee6",
      "s": "0x401a19abc2086961222c6a5bc703d8fc9c421772399c242603d516eb7356f7c9",
      "v": 28,
      "creates": null,
      "raw": "0xf86d02850d7cd8ac038252089432be343b94f860124dc4fee278fdcbd38c102d8889036f9479e4eb5bc000801ca06395cc4aba5840b3b072f1445e20c3e6fdf4759e276924e2beadb83328585ee6a0401a19abc2086961222c6a5bc703d8fc9c421772399c242603d516eb7356f7c9",
      "networkId": 0,
      "chainId": 0
    }
  ]
}