{
  "hash": "0x2e9df4c9703e50d8115449f983f4ef6994d03a61e40cd21d46f768c1c44956e0",
  "parentHash": "0x8c759625af743d81398b0514b7ca89418ce73a822d0e644bd0c93e260a168dce",
  "number": 103025,
  "timestamp": 1439846596,
  "nonce": "0xfb12814f52fd07c9",
  "difficulty": 4154491941217,
  "gasLimit": {
    "_hex": "0x2fefd8"
  },
  "gasUsed": {
    "_hex": "0x5208"
  },
  "miner": "0xEF247E639d49461D25F57e9362CadE3120910Ce0",
  "extraData": "0x476574682f76312e302e312f6c696e75782f676f312e342e32",
  "transactions": [
    {
      "hash": "0x0b9842b95e34abd89e57a5c105fdd2193a0bab0b298e79e43dd1b6dc4605b3be",
      "blockHash": "0x2e9df4c9703e50d8115449f983f4ef6994d03a61e40cd21d46f768c1c44956e0",
      "blockNumber": 103025,
      "transactionIndex": 0,
      "confirmations": null,
      "from": "0x2910543Af39abA0Cd09dBb2D50200b3E800A63D2",
      "gasPrice": {
        "_hex": "0xd4aff81d0"
      },
      "gasLimit": {
        "_hex": "0x5208"
      },
      "to": "0x0e69F6C417CdE445c644E56256A7Ee7C371BF4FE",
      "value": {
        "_hex": "0xdcef33a6f838000"
      },
      "nonce": 1007,
      "data": "0x",
      "r": "0x51db7b53cb6b16e040f5d1c79863f986bf48aeb33ca1f65067e3ef42068766a8",
      "s": "0x4c4923a4e69346cae9c206dedb81291dab0687c2d834dfa4738f4cf1f104d111",
      "v": 27,
      "creates": null,
      "raw": "0xf86e8203ef850d4aff81d0825208940e69f6c417cde445c644e56256a7ee7c371bf4fe880dcef33a6f838000801ba051db7b53cb6b16e040f5d1c79863f986bf48aeb33ca1f65067e3ef42068766a8a04c4923a4e69346cae9c206dedb81291dab0687c2d834dfa4738f4cf1f104d111",
      "networkId": 0,
      "chainId": 0
    }
  ]
}