{
  "hash": "0xd976189714d35fd9f5f0ef473714f1a02d7bcf18ca7bd38281f67421468a41c9",
  "parentHash": "0x231caeb58dcaf14210b01cb28e583310bbad66a5211f136dca6a03089c4124dc",
  "number": 84300,
  "timestamp": 1439547740,
  "nonce": "0x6d8f8e6af832cd44",
  "difficulty": 2536580287982,
  "gasLimit": {
    "_hex": "0x2fefd8"
  },
  "gasUsed": {
    "_hex": "0x5208"
  },
  "miner": "0xe6A7a1d47ff21B6321162AEA7C6CB457D5476Bca",
  "extraData": "0x476574682f76312e302e312d38326566323666362f6c696e75782f676f312e34",
  "transactions": [
    {
      "hash": "0xa86dd87f4871834c4b33ace354e4f68fee853cb76921474bf6fb10b14c06de51",
      "blockHash": "0xd976189714d35fd9f5f0ef473714f1a02d7bcf18ca7bd38281f67421468a41c9",
      "blockNumber": 84300,
      "transactionIndex": 0,
      "confirmations": null,
      "from": "0x2910543Af39abA0Cd09dBb2D50200b3E800A63D2",
      "gasPrice": {
        "_hex": "0xce71a25a1"
      },
      "gasLimit": {
        "_hex": "0x5208"
      },
      "to": "0xdEC7d1B05f89c0Ce0870Ea4AeA18138264675478",
      "value": {
        "_hex": "0x411b275d5b14438000"
      },
      "nonce": 547,
      "data": "0x",
      "r": "0x7a5c7e7bfbd780588a02fbb2b8231f96f17b95a4929dfc1f780406977c3f6033",
      "s": "0x2d177c4cfe272b866aa57e53555f0289d7cc25728dc24c62fee3d0f88438c271",
      "v": 27,
      "creates": null,
      "raw": "0xf86f820223850ce71a25a182520894dec7d1b05f89c0ce0870ea4aea1813826467547889411b275d5b14438000801ba07a5c7e7bfbd780588a02fbb2b8231f96f17b95a4929dfc1f780406977c3f6033a02d177c4cfe272b866aa57e53555f0289d7cc25728dc24c62fee3d0f88438c271",
      "networkId": 0,
      "chainId": 0
    }
  ]
}