{
  "hash": "0x13a283ac20fc3c79a7cf00ccebd88652284870eb2653834371d8f94207fad35c",
  "parentHash": "0xea62044083b4a3b3ee605ce9593643d189238bd1320ea250ac460ebd84a7574a",
  "number": 85336,
  "timestamp": 1439562067,
  "nonce": "0xd86e3b5e12148584",
  "difficulty": 2739681775556,
  "gasLimit": {
    "_hex": "0x2fefd8"
  },
  "gasUsed": {
    "_hex": "0xa410"
  },
  "miner": "0xf927a40C8B7F6E07c5af7FA2155B4864a4112B13",
  "extraData": "0x",
  "transactions": [
    {
      "hash": "0x3e626f2611ccf95943de56e21ac77bd2fd4ac1130159b2e882e342e7abff90af",
      "blockHash": "0x13a283ac20fc3c79a7cf00ccebd88652284870eb2653834371d8f94207fad35c",
      "blockNumber": 85336,
      "transactionIndex": 0,
      "confirmations": null,
      "from": "0x2f86ba8019945f39edE131D38d4d8780884DA553",
      "gasPrice": {
        "_hex": "0xcf920a2bc"
      },
      "gasLimit": {
        "_hex": "0x5208"
      },
      "to": "0x32Be343B94f860124dC4fEe278FDCBD38C102D88",
      "value": {
        "_hex": "0x2e141a8415cf540000"
      },
      "nonce": 11,
      "data": "0x",
      "r": "0x8aac386b467517fbffe49de0407729df8eaa84462bc7a5d28a37dd3cc0c4970d",
      "s": "0x76845b4d620ce8a4aa8c3c187f1e5876a5d7eaed765b7da2a3e98f848c7c6457",
      "v": 27,
      "creates": null,
      "raw": "0xf86d0b850cf920a2bc8252089432be343b94f860124dc4fee278fdcbd38c102d88892e141a8415cf540000801ba08aac386b467517fbffe49de0407729df8eaa84462bc7a5d28a37dd3cc0c4970da076845b4d620ce8a4aa8c3c187f1e5876a5d7eaed765b7da2a3e98f848c7c6457",
      "networkId": 0,
      "chainId": 0
    },
    {
      "hash": "0xc862ae650187a03078172dcc938814701e1c12459d87843efd4a1ca07304f4bc",
      "blockHash": "0x13a283ac20fc3c79a7cf00ccebd88652284870eb2653834371d8f94207fad35c",
      "blockNumber": 85336,
      "transactionIndex": 1,
      "confirmations": null,
      "from": "0x151e1b655BC131b5aCf57Df4C4193029a2Af43bE",
      "gasPrice": {
        "_hex": "0xcf920a2bc"
      },
      "gasLimit": {
        "_hex": "0x5208"
      },
      "to": "0x32Be343B94f860124dC4fEe278FDCBD38C102D88",
      "value": {
        "_hex": "0x7a3e653b79d4180000"
      },
      "nonce": 6,
      "data": "0x",
      "r": "0xb529dfdc660eb1b6af9137c026f574bb8eda77b2a18aba03db32bf3cc43c0fb9",
      "s": "0x16fac7d1c54e290156ecb3c2d2bf728e4d0f1f128ca50a08cc45df80c2c4be54",
      "v": 28,
      "creates": null,
      "raw": "0xf86d06850cf920a2bc8252089432be343b94f860124dc4fee278fdcbd38c102d88897a3e653b79d4180000801ca0b529dfdc660eb1b6af9137c026f574bb8eda77b2a18aba03db32bf3cc43c0fb9a016fac7d1c54e290156ecb3c2d2bf728e4d0f1f128ca50a08cc45df80c2c4be54",
      "networkId": 0,
      "chainId": 0
    }
  ]
}