{
  "hash": "0x02f9f2980e46ea0161fc2619e31cf923137886d25288bafbf0d8c7221e1d5774",
  "parentHash": "0x9ead73c9369e2c76398f4e0082c1b8528dce13151ed17ec778cec365b2f326e9",
  "number": 67254,
  "timestamp": 1439268809,
  "nonce": "0x2e4a62fe5ec56005",
  "difficulty": 1926115153394,
  "gasLimit": {
    "_hex": "0x2fefd8"
  },
  "gasUsed": {
    "_hex": "0x5208"
  },
  "miner": "0xa50ec0D39fa913E62f1Bae7074E6F36caA71855b",
  "extraData": "0x",
  "transactions": [
    {
      "hash": "0x6c2efbaf073ef9baf1364cd3d68b7ddbad1b6f227766f4e5fa8d67cd0293f24f",
      "blockHash": "0x02f9f2980e46ea0161fc2619e31cf923137886d25288bafbf0d8c7221e1d5774",
      "blockNumber": 67254,
      "transactionIndex": 0,
      "confirmations": null,
      "from": "0x32Be343B94f860124dC4fEe278FDCBD38C102D88",
      "gasPrice": {
        "_hex": "0xd7edbf79c"
      },
      "gasLimit": {
        "_hex": "0x5208"
      },
      "to": "0x120A270bbC009644e35F0bB6ab13f95b8199c4ad",
      "value": {
        "_hex": "0x878678326eac900000"
      },
      "nonce": 209,
      "data": "0x",
      "r": "0xe93b93e26e2b8178f4b5b3b68fd73570902b64d07b2ce3a6f733ba557d1e431e",
      "s": "0x1afc4effec568f222308a156bb456dd97c034c5a333e2143f40848f7c4d0df80",
      "v": 28,
      "creates": null,
      "raw": "0xf86e81d1850d7edbf79c82520894120a270bbc009644e35f0bb6ab13f95b8199c4ad89878678326eac900000801ca0e93b93e26e2b8178f4b5b3b68fd73570902b64d07b2ce3a6f733ba557d1e431ea01afc4effec568f222308a156bb456dd97c034c5a333e2143f40848f7c4d0df80",
      "networkId": 0,
      "chainId": 0
    }
  ]
}