{
  "hash": "0x7caae48841edacbb82ffab846fc7a2eca6e06acc67e8f2a7a3e8848a4bb926d3",
  "parentHash": "0xde7b1b45d7b3a7fa6f67abe735dc304e102d5804b7e5448800b6caeeab78e3e9",
  "number": 57702,
  "timestamp": 1439108076,
  "nonce": "0xeb25ebb51bb67b08",
  "difficulty": 1730214417696,
  "gasLimit": {
    "_hex": "0x2fefd8"
  },
  "gasUsed": {
    "_hex": "0xddfd"
  },
  "miner": "0x5F8F73E26CdF436f19Cb24C82F90A15AFe55b592",
  "extraData": "0x476574682f76312e302e312f77696e646f77732f676f312e342e32",
  "transactions": [
    {
      "hash": "0xe7dd5bddbdd9ff84c36ecf53fdf25588ece61b69288fbe9ebb0898fafda3aa55",
      "blockHash": "0x7caae48841edacbb82ffab846fc7a2eca6e06acc67e8f2a7a3e8848a4bb926d3",
      "blockNumber": 57702,
      "transactionIndex": 0,
      "confirmations": null,
      "from": "0xBeb3B1d443791e4B2207a9866800E02DAcF19c02",
      "gasPrice": {
        "_hex": "0xd1865c959"
      },
      "gasLimit": {
        "_hex": "0x7a120"
      },
      "to": "0x109C4f2CCc82C4d77Bde15F306707320294Aea3F",
      "value": {
        "_hex": "0xde0b6b3a7640000"
      },
      "nonce": 0,
      "data": "0x",
      "r": "0xe1850d570eb9ca6fcae1eae8834b24ead4b7381cffeb49b271fda3bb6ce344f7",
      "s": "0x6a95953d1bfc9079c57bde47f3f78a38587a1bab4062c94536cc4b2a0623d981",
      "v": 28,
      "creates": null,
      "raw": "0xf86d80850d1865c9598307a12094109c4f2ccc82c4d77bde15f306707320294aea3f880de0b6b3a7640000801ca0e1850d570eb9ca6fcae1eae8834b24ead4b7381cffeb49b271fda3bb6ce344f7a06a95953d1bfc9079c57bde47f3f78a38587a1bab4062c94536cc4b2a0623d981",
      "networkId": 0,
      "chainId": 0
    }
  ]
}