{
  "hash": "0x28958d1d9c6c3ff6cdd5ff1c2bd90bee9c1443cb3c6c3cf3340a52cbb569e99e",
  "parentHash": "0xf13b392244e7dbea00c2439b36cd857907f477149b60676007ce5627989dae20",
  "number": 92641,
  "timestamp": 1439674975,
  "nonce": "0x07f1b875e1980667",
  "difficulty": 3568365647392,
  "gasLimit": {
    "_hex": "0x2fefd8"
  },
  "gasUsed": {
    "_hex": "0xe216"
  },
  "miner": "0x007f7f58D3eb5b7510A301eCC749FC1fCDDBE14D",
  "extraData": "0x476574682f76312e302e312f77696e646f77732f676f312e342e32",
  "transactions": [
    {
      "hash": "0x4abc83ca0c0815338b8ff4c36b44536b1510fce9ee2ae4e950c0c01d822f99ad",
      "blockHash": "0x28958d1d9c6c3ff6cdd5ff1c2bd90bee9c1443cb3c6c3cf3340a52cbb569e99e",
      "blockNumber": 92641,
      "transactionIndex": 0,
      "confirmations": null,
      "from": "0xFBb1b73C4f0BDa4f67dcA266ce6Ef42f520fBB98",
      "gasPrice": {
        "_hex": "0xda6667a77"
      },
      "gasLimit": {
        "_hex": "0x15f90"
      },
      "to": "0xCAc7000C7dBaa2E33Af15325AF5D435E011C7BdD",
      "value": {
        "_hex": "0x0"
      },
      "nonce": 50,
      "data": "0x3feb1bd842495454524558303000000000000000000000000000000000000000000000000000000000000000000000002aedf47e935c75601e9d779453f1a5f8c616bd6e000000000000000000000000000000000000000000000000495aac9c4e3a0800",
      "r": "0xa1a610719ccedabb97bc8e35fdc6095fc65b59465c2889872e72fb8308b228c3",
      "s": "0x273fd5b4fa0870bacbbb764ecc448dca301eaf70b38b1f1ff8c9e5385ababf2a",
      "v": 27,
      "creates": null,
      "raw": "0xf8ca32850da6667a7783015f9094cac7000c7dbaa2e33af15325af5d435e011c7bdd80b8643feb1bd842495454524558303000000000000000000000000000000000000000000000000000000000000000000000002aedf47e935c75601e9d779453f1a5f8c616bd6e000000000000000000000000000000000000000000000000495aac9c4e3a08001ba0a1a610719ccedabb97bc8e35fdc6095fc65b59465c2889872e72fb8308b228c3a0273fd5b4fa0870bacbbb764ecc448dca301eaf70b38b1f1ff8c9e5385ababf2a",
      "networkId": 0,
      "chainId": 0
    }
  ]
}