{
  "hash": "0x19d0773fe5634fc5c61dd36cc2f4dd74ec62fbc73607880bd80bc8edbae0706f",
  "parentHash": "0xc1c31330345ff0c7ed6f035e43e9259dd0956f4a3e5a381132605102725eecc9",
  "number": 64757,
  "timestamp": 1439225839,
  "nonce": "0x0677fb2b3e4bf31d",
  "difficulty": 1888500698936,
  "gasLimit": {
    "_hex": "0x2fefd8"
  },
  "gasUsed": {
    "_hex": "0x5208"
  },
  "miner": "0x7b533e7d3e0293F76AC982560DC8B292A5434a8c",
  "extraData": "0x476574682f76312e302e312d37666266393930632f6c696e75782f676f312e34",
  "transactions": [
    {
      "hash": "0x6d2f065829e2c8ed3796f8c17e83d0f085cd36544858a8d570a5649c7cf95382",
      "blockHash": "0x19d0773fe5634fc5c61dd36cc2f4dd74ec62fbc73607880bd80bc8edbae0706f",
      "blockNumber": 64757,
      "transactionIndex": 0,
      "confirmations": null,
      "from": "0x4BD5f0Ee173C81d42765154865EE69361b6aD189",
      "gasPrice": {
        "_hex": "0x746a528800"
      },
      "gasLimit": {
        "_hex": "0x5b04"
      },
      "to": "0xFD7c9117BbEB649d9b37B3D3C9917f7c12f526B3",
      "value": {
        "_hex": "0x12f939c99edab80000"
      },
      "nonce": 10,
      "data": "0x",
      "r": "0x0057dae86fdee644fa248f2ad4da5068d713412081ef62c999f22fe7c6557997",
      "s": "0x0f39dccb153e88e06e5e3620410e545a07553395567dcf340f18ce5daeb894f8",
      "v": 28,
      "creates": null,
      "raw": "0xf86c0a85746a528800825b0494fd7c9117bbeb649d9b37b3d3c9917f7c12f526b38912f939c99edab80000801c9f57dae86fdee644fa248f2ad4da5068d713412081ef62c999f22fe7c6557997a00f39dccb153e88e06e5e3620410e545a07553395567dcf340f18ce5daeb894f8",
      "networkId": 0,
      "chainId": 0
    }
  ]
}