{
  "hash": "0xee787c4fcf0e55a91db18e8d6cca3574f914af092fb82e3e3ed16d04ee10e6a0",
  "parentHash": "0x4705fadf6f13ca5b6e0aeaee3d696a4e7473c4a651ee1d0fb5f69a8ac78e0f81",
  "number": 80635,
  "timestamp": 1439488366,
  "nonce": "0xbc3a42114e6efb10",
  "difficulty": 2434520514424,
  "gasLimit": {
    "_hex": "0x2fefd8"
  },
  "gasUsed": {
    "_hex": "0x5208"
  },
  "miner": "0x7E6930B63D03e88F5928C5cd6ee3FCee4D714F7F",
  "extraData": "0x",
  "transactions": [
    {
      "hash": "0x8142c2b5196482296931418530abcbd1ad788f5c71e1633caebb4970ea4176d9",
      "blockHash": "0xee787c4fcf0e55a91db18e8d6cca3574f914af092fb82e3e3ed16d04ee10e6a0",
      "blockNumber": 80635,
      "transactionIndex": 0,
      "confirmations": null,
      "from": "0x65Fe776c996eB7c15f86F236B945353b9a18f335",
      "gasPrice": {
        "_hex": "0xd35df9828"
      },
      "gasLimit": {
        "_hex": "0x7530"
      },
      "to": "0x6De181Fc4C140FA31F196e5393516c49EEeBdAd3",
      "value": {
        "_hex": "0x1a055690d9db80000"
      },
      "nonce": 2,
      "data": "0x",
      "r": "0x554fa7c18bd58bdba1409c0b140d136412531a4f05c5a02b492279dcb1cb0547",
      "s": "0x5b71f4c549b2967958efff05095886744d867e3cfca912be5dcc5a41b2e219ef",
      "v": 27,
      "creates": null,
      "raw": "0xf86d02850d35df9828827530946de181fc4c140fa31f196e5393516c49eeebdad38901a055690d9db80000801ba0554fa7c18bd58bdba1409c0b140d136412531a4f05c5a02b492279dcb1cb0547a05b71f4c549b2967958efff05095886744d867e3cfca912be5dcc5a41b2e219ef",
      "networkId": 0,
      "chainId": 0
    }
  ]
}