{
  "hash": "0x157b80d6a0c737d33f25a77617251538be315792836bd1bfca42016a57841efe",
  "parentHash": "0x7a5ed4ebc028f7696931e2f0e954df9ae59639c44e544b761f9f7b03be342ddc",
  "number": 54503,
  "timestamp": 1439055173,
  "nonce": "0x98236c28d4c1a27e",
  "difficulty": 1618876120507,
  "gasLimit": {
    "_hex": "0x2fefd5"
  },
  "gasUsed": {
    "_hex": "0x546c"
  },
  "miner": "0x9746c7e1ef2bd21FF3997fa467593a89cb852BD0",
  "extraData": "0x476574682f76312e302e312f77696e646f77732f676f312e342e32",
  "transactions": [
    {
      "hash": "0xadaf05f96405b44cd227171abfefa09731f0fd98ddc1f3fff003c62937a1b085",
      "blockHash": "0x157b80d6a0c737d33f25a77617251538be315792836bd1bfca42016a57841efe",
      "blockNumber": 54503,
      "transactionIndex": 0,
      "confirmations": null,
      "from": "0xAE5d221Afcd3D29355f508EADFCa408Ce33Ca903",
      "gasPrice": {
        "_hex": "0x110c8f7d8de"
      },
      "gasLimit": {
        "_hex": "0xc350"
      },
      "to": "0x2910543Af39abA0Cd09dBb2D50200b3E800A63D2",
      "value": {
        "_hex": "0x152cf4e72a974f1c0000"
      },
      "nonce": 0,
      "data": "0x454e333156585a3647",
      "r": "0x1e9adec168775d389277029625aadc481e13acd1a639358aa2659605b8ecbb6d",
      "s": "0xa450cfdcfdc07d0d2c7cde8435002127ee66d8e9fa6e7a2c3b0d0f2e8ba42917",
      "v": 28,
      "creates": null,
      "raw": "0xf87880860110c8f7d8de82c350942910543af39aba0cd09dbb2d50200b3e800a63d28a152cf4e72a974f1c000089454e333156585a36471ca01e9adec168775d389277029625aadc481e13acd1a639358aa2659605b8ecbb6da0a450cfdcfdc07d0d2c7cde8435002127ee66d8e9fa6e7a2c3b0d0f2e8ba42917",
      "networkId": 0,
      "chainId": 0
    }
  ]
}