{
  "hash": "0x2662b857da4c2a36fa3a27e492754abb5c572df730386d30aef60c99a55f5e1f",
  "parentHash": "0x427714288ad0f5b47d4ec6dd8d0fd2a2e7d4528a1f5488f431ed5a6c5aa350bb",
  "number": 89799,
  "timestamp": 1439629371,
  "nonce": "0x6c16d398ba7c572f",
  "difficulty": 3336971516689,
  "gasLimit": {
    "_hex": "0x2fefd8"
  },
  "gasUsed": {
    "_hex": "0x5208"
  },
  "miner": "0xC99478b218E58F45783fA70f0507cf614938E67d",
  "extraData": "0xd983010001844765746887676f312e342e328777696e646f7773",
  "transactions": [
    {
      "hash": "0xa4ef653aee92ecfa72aa1580cc431d34ba742ff2516ba2d23c9f7377d9a04230",
      "blockHash": "0x2662b857da4c2a36fa3a27e492754abb5c572df730386d30aef60c99a55f5e1f",
      "blockNumber": 89799,
      "transactionIndex": 0,
      "confirmations": null,
      "from": "0x99181ED48C7c51532622dA23e20E2B38392476A7",
      "gasPrice": {
        "_hex": "0xcf794b382"
      },
      "gasLimit": {
        "_hex": "0x5208"
      },
      "to": "0x32Be343B94f860124dC4fEe278FDCBD38C102D88",
      "value": {
        "_hex": "0x7b5490f5c7a99c00"
      },
      "nonce": 4,
      "data": "0x",
      "r": "0xd76ecfe202ec2c3235fcf22677af18fcce03dad747bed476ddb6ebdcb3dd54b2",
      "s": "0x774d8dd29be1bcbee237d9ea2241472c58bded0fcbfe09be2e2b137c2414cd5a",
      "v": 28,
      "creates": null,
      "raw": "0xf86c04850cf794b3828252089432be343b94f860124dc4fee278fdcbd38c102d88887b5490f5c7a99c00801ca0d76ecfe202ec2c3235fcf22677af18fcce03dad747bed476ddb6ebdcb3dd54b2a0774d8dd29be1bcbee237d9ea2241472c58bded0fcbfe09be2e2b137c2414cd5a",
      "networkId": 0,
      "chainId": 0
    }
  ]
}