{
  "hash": "0x1f13eb8a18afed4edbed126c463624ca18674e8e82472fb4cf175826856e8ee9",
  "parentHash": "0xef7aa7847af129a526edad5a5276f08eb520a704cfb325a2eecf54939eaca401",
  "number": 91222,
  "timestamp": 1439652202,
  "nonce": "0xe1a5d0de5c1bbfbb",
  "difficulty": 3447360534013,
  "gasLimit": {
    "_hex": "0x2fefd8"
  },
  "gasUsed": {
    "_hex": "0x5208"
  },
  "miner": "0xe6A7a1d47ff21B6321162AEA7C6CB457D5476Bca",
  "extraData": "0x476574682f76312e302e312d38326566323666362f6c696e75782f676f312e34",
  "transactions": [
    {
      "hash": "0xd06880da3051beaca0781d267e7bb6b354061a9160e0d8b10971005c0c97ede5",
      "blockHash": "0x1f13eb8a18afed4edbed126c463624ca18674e8e82472fb4cf175826856e8ee9",
      "blockNumber": 91222,
      "transactionIndex": 0,
      "confirmations": null,
      "from": "0x8293b65bD915B9FF87F6aDAb479da2e5b6633fDB",
      "gasPrice": {
        "_hex": "0xd6d653ceb"
      },
      "gasLimit": {
        "_hex": "0x15f90"
      },
      "to": "0x9f78552704fe7e52cC7C3853534aA2C3cf580D54",
      "value": {
        "_hex": "0x8ac7230489e80000"
      },
      "nonce": 15,
      "data": "0x",
      "r": "0xd40eaa7ff8f9ed9cff202a10177e0dba99147fec452936a29001d6c93597dd4b",
      "s": "0x67a7806049bd6a02b25cca04ca2dad72aa0dd56cbe51285a16597ede629d7fbe",
      "v": 28,
      "creates": null,
      "raw": "0xf86d0f850d6d653ceb83015f90949f78552704fe7e52cc7c3853534aa2c3cf580d54888ac7230489e80000801ca0d40eaa7ff8f9ed9cff202a10177e0dba99147fec452936a29001d6c93597dd4ba067a7806049bd6a02b25cca04ca2dad72aa0dd56cbe51285a16597ede629d7fbe",
      "networkId": 0,
      "chainId": 0
    }
  ]
}