{
  "hash": "0x30d64ab5966459d8c4e140193e955c6107ac6e8c9bf2dca1df6c50b73ed8d67a",
  "parentHash": "0xc46f2d45d5018bdeacc936fd670c97d4b1017dc49308b07f09745af3e1d29bfc",
  "number": 49702,
  "timestamp": 1438977630,
  "nonce": "0xe13c4ee17681725c",
  "difficulty": 1492961161357,
  "gasLimit": {
    "_hex": "0x3b890"
  },
  "gasUsed": {
    "_hex": "0xa8d8"
  },
  "miner": "0xf927a40C8B7F6E07c5af7FA2155B4864a4112B13",
  "extraData": "0x476574682f76312e302e312f6c696e75782f676f312e342e32",
  "transactions": [
    {
      "hash": "0x451be3abbed229f0e650bd286ac761af5f93c7678d002e08f5ec564cf4e5592c",
      "blockHash": "0x30d64ab5966459d8c4e140193e955c6107ac6e8c9bf2dca1df6c50b73ed8d67a",
      "blockNumber": 49702,
      "transactionIndex": 0,
      "confirmations": null,
      "from": "0x09c177F1AE442411dDACf187D46Db956148360E7",
      "gasPrice": {
        "_hex": "0x110c8f7d8de"
      },
      "gasLimit": {
        "_hex": "0xc350"
      },
      "to": "0x2910543Af39abA0Cd09dBb2D50200b3E800A63D2",
      "value": {
        "_hex": "0x10f0cf064dd59200000"
      },
      "nonce": 0,
      "data": "0x454e31554d35375030",
      "r": "0xe73868c8f37f5bd01d127494fc4e95cd74fd44518555db7aa481e54b4f6b4a54",
      "s": "0x9ff45b1026a4d7a266281deb95be0b034e19e2f2c30d21754fa0346e4d390337",
      "v": 28,
      "creates": null,
      "raw": "0xf87880860110c8f7d8de82c350942910543af39aba0cd09dbb2d50200b3e800a63d28a010f0cf064dd5920000089454e31554d353750301ca0e73868c8f37f5bd01d127494fc4e95cd74fd44518555db7aa481e54b4f6b4a54a09ff45b1026a4d7a266281deb95be0b034e19e2f2c30d21754fa0346e4d390337",
      "networkId": 0,
      "chainId": 0
    },
    {
      "hash": "0x383fc14b3d0a40180c2ffc2661844b0d3a670a73ec1f1b6347d5db4ff27cbd96",
      "blockHash": "0x30d64ab5966459d8c4e140193e955c6107ac6e8c9bf2dca1df6c50b73ed8d67a",
      "blockNumber": 49702,
      "transactionIndex": 1,
      "confirmations": null,
      "from": "0xe192489B85A982c1883246D915b229cB13207f38",
      "gasPrice": {
        "_hex": "0x110c8f7d8de"
      },
      "gasLimit": {
        "_hex": "0xc350"
      },
      "to": "0x2910543Af39abA0Cd09dBb2D50200b3E800A63D2",
      "value": {
        "_hex": "0xa2a15d09519be00000"
      },
      "nonce": 0,
      "data": "0x454e51324839325552",
      "r": "0x06a1160f6c42a9b5ec7a5c731f61a4a33752dd5c1ba873e7cd8c5dae14a7b49b",
      "s": "0xf9cde679ec94d867d580831da5536681749370baf960013f9a1f566ebbea6369",
      "v": 27,
      "creates": null,
      "raw": "0xf87780860110c8f7d8de82c350942910543af39aba0cd09dbb2d50200b3e800a63d289a2a15d09519be0000089454e513248393255521ba006a1160f6c42a9b5ec7a5c731f61a4a33752dd5c1ba873e7cd8c5dae14a7b49ba0f9cde679ec94d867d580831da5536681749370baf960013f9a1f566ebbea6369",
      "networkId": 0,
      "chainId": 0
    }
  ]
}