{
  "hash": "0x9b86d836e767270a0c9e447fb88b89277d4d58006d32f69c57a71ea8889f49b6",
  "parentHash": "0xf25808139670a4e0f5ec2c18dae8190690888185b05bc221a4fe73be7c525745",
  "number": 64972,
  "timestamp": 1439229315,
  "nonce": "0x6f7c78e55bb620ce",
  "difficulty": 1911645970261,
  "gasLimit": {
    "_hex": "0x2fefd8"
  },
  "gasUsed": {
    "_hex": "0x17cd8"
  },
  "miner": "0x02020D22dCF88f5eDd66B382D7da019F161fB7e3",
  "extraData": "0x",
  "transactions": [
    {
      "hash": "0x033ed985e023b02430f6f2cadfbef87e7f635ac6eddfa3c7e4231ac540a2f052",
      "blockHash": "0x9b86d836e767270a0c9e447fb88b89277d4d58006d32f69c57a71ea8889f49b6",
      "blockNumber": 64972,
      "transactionIndex": 0,
      "confirmations": null,
      "from": "0x5C4090d5A4DAc1355DD9d16Ccb5914028e5C2Be3",
      "gasPrice": {
        "_hex": "0xba43b7400"
      },
      "gasLimit": {
        "_hex": "0x15f90"
      },
      "to": "0x793AE8C1b1a160BFc07BFB0d04F85eab1A71F4f2",
      "value": {
        "_hex": "0x0"
      },
      "nonce": 0,
      "data": "0x3ba15036",
      "r": "0xf2b0e879725247010909da241451bce3d322fe4f054fe8edaa6e0dfb98f6c89f",
      "s": "0x69167fc5dae1e157a69d2a846bff2ac11b93c0cdeb974063a95426ebd4d72b26",
      "v": 28,
      "creates": null,
      "raw": "0xf86980850ba43b740083015f9094793ae8c1b1a160bfc07bfb0d04f85eab1a71f4f280843ba150361ca0f2b0e879725247010909da241451bce3d322fe4f054fe8edaa6e0dfb98f6c89fa069167fc5dae1e157a69d2a846bff2ac11b93c0cdeb974063a95426ebd4d72b26",
      "networkId": 0,
      "chainId": 0
    },
    {
      "hash": "0x51246cdb12ffcda47cc85906fe9623b45cf7977ad806195cda2526bc8b2ae071",
      "blockHash": "0x9b86d836e767270a0c9e447fb88b89277d4d58006d32f69c57a71ea8889f49b6",
      "blockNumber": 64972,
      "transactionIndex": 1,
      "confirmations": null,
      "from": "0x592D1A1eF22cA97f1F9139e053AD875700738829",
      "gasPrice": {
        "_hex": "0xba43b7400"
      },
      "gasLimit": {
        "_hex": "0x15f90"
      },
      "to": "0x793AE8C1b1a160BFc07BFB0d04F85eab1A71F4f2",
      "value": {
        "_hex": "0x0"
      },
      "nonce": 0,
      "data": "0x3ba15036",
      "r": "0xb7d761c6ca5bd10d19489a34faea60352a3082632a327bc43abf9a26f9e793bd",
      "s": "0x0dcf50b15515fa7fd5f0637a43986ae2e54b6f6a9d485a5c7d6cc3ca774c672f",
      "v": 28,
      "creates": null,
      "raw": "0xf86980850ba43b740083015f9094793ae8c1b1a160bfc07bfb0d04f85eab1a71f4f280843ba150361ca0b7d761c6ca5bd10d19489a34faea60352a3082632a327bc43abf9a26f9e793bda00dcf50b15515fa7fd5f0637a43986ae2e54b6f6a9d485a5c7d6cc3ca774c672f",
      "networkId": 0,
      "chainId": 0
    }
  ]
}