{
  "hash": "0x9cfe8d8085447b759b80ed99da78248f169af91fc72d7b22e7adab00d4696581",
  "parentHash": "0x92aeab5f37728f2643b677b1827a56a8405955a5a3af992aeb3d779d0695b2a4",
  "number": 80268,
  "timestamp": 1439482869,
  "nonce": "0x655e2cab6a388dc9",
  "difficulty": 2384042264762,
  "gasLimit": {
    "_hex": "0x2fefd8"
  },
  "gasUsed": {
    "_hex": "0xaa37"
  },
  "miner": "0x580992B51e3925e23280EfB93d3047C82f17E038",
  "extraData": "0x476574682f76312e302e312f6c696e75782f676f312e342e32",
  "transactions": [
    {
      "hash": "0xf92d8cd8fec2d25ff4db4827976d5d85e94fe655dcb2ae2398fa5abcff8bf3b5",
      "blockHash": "0x9cfe8d8085447b759b80ed99da78248f169af91fc72d7b22e7adab00d4696581",
      "blockNumber": 80268,
      "transactionIndex": 0,
      "confirmations": null,
      "from": "0x87C5B5874A18B4306DF8a752a6C8cc3E82daFc19",
      "gasPrice": {
        "_hex": "0x10a3857e5bf"
      },
      "gasLimit": {
        "_hex": "0x493e0"
      },
      "to": "0xC4c51de1AbF5D60DBd329eC0F999Fd8f021ae9fC",
      "value": {
        "_hex": "0x0"
      },
      "nonce": 157,
      "data": "0x03750d9400000000000000000000000087c5b5874a18b4306df8a752a6c8cc3e82dafc196b6b6b0000000000000000000000000000000000000000000000000000000000",
      "r": "0xd1b303469cc62fc459698677dbed0ff30946418cf2edfebe275d61fbc1d3966a",
      "s": "0x3c5f0d585df866dfa35352a31aed1402576eb1829354576401fa86b8df7c9bcf",
      "v": 28,
      "creates": null,
      "raw": "0xf8ac819d86010a3857e5bf830493e094c4c51de1abf5d60dbd329ec0f999fd8f021ae9fc80b84403750d9400000000000000000000000087c5b5874a18b4306df8a752a6c8cc3e82dafc196b6b6b00000000000000000000000000000000000000000000000000000000001ca0d1b303469cc62fc459698677dbed0ff30946418cf2edfebe275d61fbc1d3966aa03c5f0d585df866dfa35352a31aed1402576eb1829354576401fa86b8df7c9bcf",
      "networkId": 0,
      "chainId": 0
    }
  ]
}