{
  "hash": "0x4aea1e0545895af909a9242bb083e315a0f0d0a349968303ae80e78457f98f7e",
  "parentHash": "0xcf6b9861177f6192d1ad62a01f53f8b7f29cb18a16c7f9a2b4c791f6bb474af9",
  "number": 68325,
  "timestamp": 1439286097,
  "nonce": "0x228a9efdec246f82",
  "difficulty": 2007482273866,
  "gasLimit": {
    "_hex": "0x2fefd8"
  },
  "gasUsed": {
    "_hex": "0x54b6"
  },
  "miner": "0x6e9E0a2aAa3c4d41aa69f4E7328095278284f7e2",
  "extraData": "0x476574682f76312e302e312f6c696e75782f676f312e342e32",
  "transactions": [
    {
      "hash": "0x777560b51126c792b8c2be5b97eb795d7c24aad935844a41b453b261d78c10b5",
      "blockHash": "0x4aea1e0545895af909a9242bb083e315a0f0d0a349968303ae80e78457f98f7e",
      "blockNumber": 68325,
      "transactionIndex": 0,
      "confirmations": null,
      "from": "0x54dAeb3E8a6BBC797E4aD2b0339f134b186e4637",
      "gasPrice": {
        "_hex": "0xd49913e15"
      },
      "gasLimit": {
        "_hex": "0x15f90"
      },
      "to": "0x793AE8C1b1a160BFc07BFB0d04F85eab1A71F4f2",
      "value": {
        "_hex": "0x0"
      },
      "nonce": 973,
      "data": "0x3ba15036",
      "r": "0x7bd4ebcfaefd1870ffae457f60b077e185565da4e72c00983accf9d610b9fabd",
      "s": "0x2068274e01415fbdd89565ad83b437bbd58bf5bbb075c79333c5efd03e04d369",
      "v": 28,
      "creates": null,
      "raw": "0xf86b8203cd850d49913e1583015f9094793ae8c1b1a160bfc07bfb0d04f85eab1a71f4f280843ba150361ca07bd4ebcfaefd1870ffae457f60b077e185565da4e72c00983accf9d610b9fabda02068274e01415fbdd89565ad83b437bbd58bf5bbb075c79333c5efd03e04d369",
      "networkId": 0,
      "chainId": 0
    }
  ]
}