{
  "hash": "0x1899aed0fc578e3ff3450efe465de581c0ea994e350aa9789a93f412c185e391",
  "parentHash": "0x31a9c8516fd9ef444bc4b67af90f3821165df5296ed11bc1070dc99646539ae1",
  "number": 79625,
  "timestamp": 1439472773,
  "nonce": "0xc5b277032b895673",
  "difficulty": 2339251856686,
  "gasLimit": {
    "_hex": "0x2fefd8"
  },
  "gasUsed": {
    "_hex": "0x546c"
  },
  "miner": "0x48040276E9c17DDbe5C8d2976245dCD0235efA43",
  "extraData": "0x476574682f76312e302e312d38326566323666362f6c696e75782f676f312e34",
  "transactions": [
    {
      "hash": "0x95bb3a1e84280e0ece0047a41953f85fb1fc6cf43e5afbdbda8f7ddcae6d081a",
      "blockHash": "0x1899aed0fc578e3ff3450efe465de581c0ea994e350aa9789a93f412c185e391",
      "blockNumber": 79625,
      "transactionIndex": 0,
      "confirmations": null,
      "from": "0xe043F7B6fc487e0Ad927C9bEcd1D586F30eE1639",
      "gasPrice": {
        "_hex": "0xd863eebf1"
      },
      "gasLimit": {
        "_hex": "0x55f0"
      },
      "to": "0x2910543Af39abA0Cd09dBb2D50200b3E800A63D2",
      "value": {
        "_hex": "0x8ac7230489e80000"
      },
      "nonce": 4,
      "data": "0x454e35423338594447",
      "r": "0x6a6b7250f95e49953123a4aefba96b8ee8cdc79fd2e2d30d8993afcd0e929aae",
      "s": "0x42e935f1a21962e7c7ad90bfa414b4fa92d4cfdec7ccb767894204d8209c601f",
      "v": 27,
      "creates": null,
      "raw": "0xf87504850d863eebf18255f0942910543af39aba0cd09dbb2d50200b3e800a63d2888ac7230489e8000089454e354233385944471ba06a6b7250f95e49953123a4aefba96b8ee8cdc79fd2e2d30d8993afcd0e929aaea042e935f1a21962e7c7ad90bfa414b4fa92d4cfdec7ccb767894204d8209c601f",
      "networkId": 0,
      "chainId": 0
    }
  ]
}