{
  "hash": "0x3d4ccf7edd049b9faaa6d3de9e8848cd0027ed78a9ae52d27baf1f94c9222031",
  "parentHash": "0x234038cbe5bbbbc9d8221ab12ffa3ec562d3c90bf51591ff3fa70b4ac3b1f5e1",
  "number": 78402,
  "timestamp": 1439453282,
  "nonce": "0x562653abaff632e5",
  "difficulty": 2279823536215,
  "gasLimit": {
    "_hex": "0x2fefd8"
  },
  "gasUsed": {
    "_hex": "0xa410"
  },
  "miner": "0xbb7B8287f3F0a933474a79eAe42CBCa977791171",
  "extraData": "0x476574682f4c5649562f76312e302e312f6c696e75782f676f312e342e32",
  "transactions": [
    {
      "hash": "0x94da1836dc9b6cacb3109714a1d5492131f2a4da5b5b5cb42cfa6b64d9991d4f",
      "blockHash": "0x3d4ccf7edd049b9faaa6d3de9e8848cd0027ed78a9ae52d27baf1f94c9222031",
      "blockNumber": 78402,
      "transactionIndex": 0,
      "confirmations": null,
      "from": "0x7744774422Cd8b2d5895D7Bc552b9A57388DB228",
      "gasPrice": {
        "_hex": "0x174876e800"
      },
      "gasLimit": {
        "_hex": "0x61a8"
      },
      "to": "0x1111111e0E62855C143648014Ac954060a4f2522",
      "value": {
        "_hex": "0xde0b6b3a7640000"
      },
      "nonce": 4,
      "data": "0x",
      "r": "0x3a3e57877c319400bc2487d9b12bf80b8a0970b058603e60af56aac3f2529e47",
      "s": "0x24915de0fc69b9da228899eeabb29e92a6adab87f971582e8eed2139b23b57e3",
      "v": 27,
      "creates": null,
      "raw": "0xf86c0485174876e8008261a8941111111e0e62855c143648014ac954060a4f2522880de0b6b3a7640000801ba03a3e57877c319400bc2487d9b12bf80b8a0970b058603e60af56aac3f2529e47a024915de0fc69b9da228899eeabb29e92a6adab87f971582e8eed2139b23b57e3",
      "networkId": 0,
      "chainId": 0
    },
    {
      "hash": "0xe6b297dc762b15a879da0949fdbe2333ce06805be4d250afc769f2a87c7116ac",
      "blockHash": "0x3d4ccf7edd049b9faaa6d3de9e8848cd0027ed78a9ae52d27baf1f94c9222031",
      "blockNumber": 78402,
      "transactionIndex": 1,
      "confirmations": null,
      "from": "0x2910543Af39abA0Cd09dBb2D50200b3E800A63D2",
      "gasPrice": {
        "_hex": "0xe2db328af"
      },
      "gasLimit": {
        "_hex": "0x5208"
      },
      "to": "0x0F16016B7285e02eF02712E62Bee3A724225F0a3",
      "value": {
        "_hex": "0x482d1bd5db0f7c000"
      },
      "nonce": 344,
      "data": "0x",
      "r": "0x1f804eebe9bf541f2178fe93120e8cf08068c717c7c1f4aaabc60f0fa1ad939a",
      "s": "0x7fdd3d5cb49b93fad48b4c6f5f04f2f09f8c3a4ffbdfb3aa56284a54f5ceadc3",
      "v": 28,
      "creates": null,
      "raw": "0xf86f820158850e2db328af825208940f16016b7285e02ef02712e62bee3a724225f0a3890482d1bd5db0f7c000801ca01f804eebe9bf541f2178fe93120e8cf08068c717c7c1f4aaabc60f0fa1ad939aa07fdd3d5cb49b93fad48b4c6f5f04f2f09f8c3a4ffbdfb3aa56284a54f5ceadc3",
      "networkId": 0,
      "chainId": 0
    }
  ]
}