{
  "hash": "0xda0fefe64c0f593ea4f65a693cafe6706a101910d7ef3929dad37a811a38d1c1",
  "parentHash": "0x40dc906e277b1d9190bdd32720111c3ba94a35713f71a6f5fa98bfd38dd0f2f4",
  "number": 48584,
  "timestamp": 1438959419,
  "nonce": "0x841c9b492a69c57a",
  "difficulty": 1467142533095,
  "gasLimit": {
    "_hex": "0x19f5f"
  },
  "gasUsed": {
    "_hex": "0x546c"
  },
  "miner": "0xab84940B570d6358ed6A9Dbf7e0bc8Ec8F5A6E89",
  "extraData": "0x322831652933",
  "transactions": [
    {
      "hash": "0x623e95842192cf2bdb8b2be2296019fd8820102e32eb006196a3a763909de942",
      "blockHash": "0xda0fefe64c0f593ea4f65a693cafe6706a101910d7ef3929dad37a811a38d1c1",
      "blockNumber": 48584,
      "transactionIndex": 0,
      "confirmations": null,
      "from": "0x5584a5A361e70D0757D8Ca2B151f041136C9C28a",
      "gasPrice": {
        "_hex": "0xd9159bab5"
      },
      "gasLimit": {
        "_hex": "0x15f90"
      },
      "to": "0x2910543Af39abA0Cd09dBb2D50200b3E800A63D2",
      "value": {
        "_hex": "0xad78ebc5ac6200000"
      },
      "nonce": 3,
      "data": "0x454e433933464b3330",
      "r": "0x79c1214fbcbe501bab36e679a435c1cdc649419a4114c8865462555b60edcf2a",
      "s": "0x61c09e9f86ec903760f8ae2b9f099744bdeb3f4497f2fca50cab02482019feda",
      "v": 28,
      "creates": null,
      "raw": "0xf87703850d9159bab583015f90942910543af39aba0cd09dbb2d50200b3e800a63d2890ad78ebc5ac620000089454e433933464b33301ca079c1214fbcbe501bab36e679a435c1cdc649419a4114c8865462555b60edcf2aa061c09e9f86ec903760f8ae2b9f099744bdeb3f4497f2fca50cab02482019feda",
      "networkId": 0,
      "chainId": 0
    }
  ]
}