{
  "hash": "0xf4a25f9d06d5c3fba60fc094f0c7049138844cd3d88a8f8c573fe035d3495683",
  "parentHash": "0x5fd4648d54bea48d237421d82dac65d3b850dadd9791be25d6ce9bdbf64c66ed",
  "number": 113340,
  "timestamp": 1440021673,
  "nonce": "0x78caf5846fa48f6c",
  "difficulty": 4510719164384,
  "gasLimit": {
    "_hex": "0x2fefd8"
  },
  "gasUsed": {
    "_hex": "0x5208"
  },
  "miner": "0xe6A7a1d47ff21B6321162AEA7C6CB457D5476Bca",
  "extraData": "0x476574682f76312e302e312d38326566323666362f6c696e75782f676f312e34",
  "transactions": [
    {
      "hash": "0x8cc99e2e8c453027f00da1fe3e784f409c3e0a675f889ce7a2de768d5ce7079e",
      "blockHash": "0xf4a25f9d06d5c3fba60fc094f0c7049138844cd3d88a8f8c573fe035d3495683",
      "blockNumber": 113340,
      "transactionIndex": 0,
      "confirmations": null,
      "from": "0xeDbc07d54406D3B56bdaeADEEa788b9721f779ba",
      "gasPrice": {
        "_hex": "0xcf6e35230"
      },
      "gasLimit": {
        "_hex": "0x55f0"
      },
      "to": "0x0DBaD90C967BFfeA4d6B589c0d2AF50A0eA16304",
      "value": {
        "_hex": "0x2ca4a2c4cdd5b0000"
      },
      "nonce": 4,
      "data": "0x",
      "r": "0xc138ac7527f3207f6fbbf0c1a31ccccb90d39555408958d0d4727da4655c402b",
      "s": "0x355cf3f5ea35eabdf6cc2e732f01710b0d33dcb8479846aad4954442d32e1ad2",
      "v": 28,
      "creates": null,
      "raw": "0xf86d04850cf6e352308255f0940dbad90c967bffea4d6b589c0d2af50a0ea163048902ca4a2c4cdd5b0000801ca0c138ac7527f3207f6fbbf0c1a31ccccb90d39555408958d0d4727da4655c402ba0355cf3f5ea35eabdf6cc2e732f01710b0d33dcb8479846aad4954442d32e1ad2",
      "networkId": 0,
      "chainId": 0
    }
  ]
}