{
  "hash": "0x5ede63b105f63c6e449953446636d31d7813e49d21df474a070bfc001f0c4bc2",
  "parentHash": "0x2f986773f21bb699ce10da81d3d28e04da0a8eafefa69463cf9cc18aafa2c9a5",
  "number": 80937,
  "timestamp": 1439493555,
  "nonce": "0xc1dfd961718661aa",
  "difficulty": 2441575456098,
  "gasLimit": {
    "_hex": "0x2fefd8"
  },
  "gasUsed": {
    "_hex": "0xf87c"
  },
  "miner": "0xF0a3af9e925b07D1FAA4ddF8beBfAA86B7B95e33",
  "extraData": "0x476574682f76312e302e312d37666266393930632f6c696e75782f676f312e34",
  "transactions": [
    {
      "hash": "0xf3251b4c28ffae0e3486445010ffa487dc6ab4f709ec33e28ad5ec0fc77e5bc2",
      "blockHash": "0x5ede63b105f63c6e449953446636d31d7813e49d21df474a070bfc001f0c4bc2",
      "blockNumber": 80937,
      "transactionIndex": 0,
      "confirmations": null,
      "from": "0x8b714522fA2839620470EDcf0c4401b713663dF1",
      "gasPrice": {
        "_hex": "0x110c8f7d8de"
      },
      "gasLimit": {
        "_hex": "0xc350"
      },
      "to": "0x2910543Af39abA0Cd09dBb2D50200b3E800A63D2",
      "value": {
        "_hex": "0xac9ae05a71ebc0000"
      },
      "nonce": 0,
      "data": "0x454e54444d47445147",
      "r": "0x62dd74548eb3722fe9e1089e8db3e48fc82eaff79b76af509e5795c67b83f205",
      "s": "0x9773c1672473a4f32debc522be9308fd0efbe719eac6f3179b7b6eedd3b04bb5",
      "v": 27,
      "creates": null,
      "raw": "0xf87780860110c8f7d8de82c350942910543af39aba0cd09dbb2d50200b3e800a63d2890ac9ae05a71ebc000089454e54444d474451471ba062dd74548eb3722fe9e1089e8db3e48fc82eaff79b76af509e5795c67b83f205a09773c1672473a4f32debc522be9308fd0efbe719eac6f3179b7b6eedd3b04bb5",
      "networkId": 0,
      "chainId": 0
    },
    {
      "hash": "0x00229444c4e12640f96e53f0f7a29183fea3ecf83e49a2bd6d49fe7ca96fc194",
      "blockHash": "0x5ede63b105f63c6e449953446636d31d7813e49d21df474a070bfc001f0c4bc2",
      "blockNumber": 80937,
      "transactionIndex": 1,
      "confirmations": null,
      "from": "0x2910543Af39abA0Cd09dBb2D50200b3E800A63D2",
      "gasPrice": {
        "_hex": "0xd9e083f1f"
      },
      "gasLimit": {
        "_hex": "0x5208"
      },
      "to": "0x3faFe90631678f97C1D101ea02D4cd743cBD24ed",
      "value": {
        "_hex": "0x4551ce090d138000"
      },
      "nonce": 419,
      "data": "0x",
      "r": "0x5bcd78258583eab785946d1d548c5b225adedab9478b8167081d631bc15de961",
      "s": "0x439c9e9a3193a4a97a4cc8926413184b2368da034e7ab600124c004a83f964ac",
      "v": 27,
      "creates": null,
      "raw": "0xf86e8201a3850d9e083f1f825208943fafe90631678f97c1d101ea02d4cd743cbd24ed884551ce090d138000801ba05bcd78258583eab785946d1d548c5b225adedab9478b8167081d631bc15de961a0439c9e9a3193a4a97a4cc8926413184b2368da034e7ab600124c004a83f964ac",
      "networkId": 0,
      "chainId": 0
    },
    {
      "hash": "0xf7b365af42de17de33f886945a5c9137720e4ebd7c3c08175b91f470c4e33a13",
      "blockHash": "0x5ede63b105f63c6e449953446636d31d7813e49d21df474a070bfc001f0c4bc2",
      "blockNumber": 80937,
      "transactionIndex": 2,
      "confirmations": null,
      "from": "0x2910543Af39abA0Cd09dBb2D50200b3E800A63D2",
      "gasPrice": {
        "_hex": "0xd9e083f1f"
      },
      "gasLimit": {
        "_hex": "0x5208"
      },
      "to": "0x0CDf45a0f7A9bFD8777c2B6311a6614345aB9D9d",
      "value": {
        "_hex": "0x15181ff25a98000"
      },
      "nonce": 420,
      "data": "0x",
      "r": "0xa3d0d7742472fc697d7ea9b9bebf32315a667f6cbbc11e39ecd25b9d2d800dea",
      "s": "0x07c761d693ca4b5cad09013b898f679c201ac3b8284d022e9718836da5a6d892",
      "v": 28,
      "creates": null,
      "raw": "0xf86e8201a4850d9e083f1f825208940cdf45a0f7a9bfd8777c2b6311a6614345ab9d9d88015181ff25a98000801ca0a3d0d7742472fc697d7ea9b9bebf32315a667f6cbbc11e39ecd25b9d2d800deaa007c761d693ca4b5cad09013b898f679c201ac3b8284d022e9718836da5a6d892",
      "networkId": 0,
      "chainId": 0
    }
  ]
}