{
  "hash": "0xfcec6268c74587f3cd7bf1c6519ef8cf096d65b1a7f6223f257eae6224ab4a60",
  "parentHash": "0xf6c8efe7264171a7a087e958537c90725cc1fed679e861f1f62fcd12ad4da346",
  "number": 103701,
  "timestamp": 1439857706,
  "nonce": "0xb20f104b1ccb8f54",
  "difficulty": 4199022445850,
  "gasLimit": {
    "_hex": "0x2fefd8"
  },
  "gasUsed": {
    "_hex": "0xa410"
  },
  "miner": "0x070c8963Cf4abCe1BFaF5973F2E0f7697925B242",
  "extraData": "0x",
  "transactions": [
    {
      "hash": "0x4e64f2c770dffa19da212538288886ab8c73c1d7a5b7e39b1df4088a2caf461b",
      "blockHash": "0xfcec6268c74587f3cd7bf1c6519ef8cf096d65b1a7f6223f257eae6224ab4a60",
      "blockNumber": 103701,
      "transactionIndex": 0,
      "confirmations": null,
      "from": "0xD9666150A9dA92d9108198a4072970805a8B3428",
      "gasPrice": {
        "_hex": "0xdd97c7cc0"
      },
      "gasLimit": {
        "_hex": "0x5208"
      },
      "to": "0x32Be343B94f860124dC4fEe278FDCBD38C102D88",
      "value": {
        "_hex": "0x455f2169deee9400"
      },
      "nonce": 65,
      "data": "0x",
      "r": "0x82beec209ce4de75945279b7b9dd0dbfed1c01e25505d433c3baf0699cca40a4",
      "s": "0x69e872a4524fb0e35085525816834fa3f20786b5a5a0c17a07080015b31287fc",
      "v": 28,
      "creates": null,
      "raw": "0xf86c41850dd97c7cc08252089432be343b94f860124dc4fee278fdcbd38c102d8888455f2169deee9400801ca082beec209ce4de75945279b7b9dd0dbfed1c01e25505d433c3baf0699cca40a4a069e872a4524fb0e35085525816834fa3f20786b5a5a0c17a07080015b31287fc",
      "networkId": 0,
      "chainId": 0
    },
    {
      "hash": "0xb0bf149059bfe6e096b534ce65cf75f6ca21c85ddc0708f60b39b0136f2b8857",
      "blockHash": "0xfcec6268c74587f3cd7bf1c6519ef8cf096d65b1a7f6223f257eae6224ab4a60",
      "blockNumber": 103701,
      "transactionIndex": 1,
      "confirmations": null,
      "from": "0xb1abce2918E21ddb93AA452731a12672A3d9F75a",
      "gasPrice": {
        "_hex": "0xdd97c7cc0"
      },
      "gasLimit": {
        "_hex": "0x5208"
      },
      "to": "0x32Be343B94f860124dC4fEe278FDCBD38C102D88",
      "value": {
        "_hex": "0x455f2169deee9400"
      },
      "nonce": 122,
      "data": "0x",
      "r": "0xccfde44d39838840c729cac55eeef71077c41ebe04ead6f487d7731eab7d9578",
      "s": "0x2a4dd139a3660f15eab31f0b1b7036b3fb08292a51310a40920871e815c8788d",
      "v": 27,
      "creates": null,
      "raw": "0xf86c7a850dd97c7cc08252089432be343b94f860124dc4fee278fdcbd38c102d8888455f2169deee9400801ba0ccfde44d39838840c729cac55eeef71077c41ebe04ead6f487d7731eab7d9578a02a4dd139a3660f15eab31f0b1b7036b3fb08292a51310a40920871e815c8788d",
      "networkId": 0,
      "chainId": 0
    }
  ]
}