{
  "hash": "0x0b52be35bf46e736fa840b87f666a0d66915040d78a9042298e4b6381c1d9425",
  "parentHash": "0x28b22f84270bb79a5b784a1b5dee08b819322b3c3d5c6a1bc8a6c63338056cfd",
  "number": 86791,
  "timestamp": 1439582880,
  "nonce": "0x5e5c88415a1af5bb",
  "difficulty": 2948801446281,
  "gasLimit": {
    "_hex": "0x2fefd8"
  },
  "gasUsed": {
    "_hex": "0x5208"
  },
  "miner": "0x580992B51e3925e23280EfB93d3047C82f17E038",
  "extraData": "0x476574682f76312e302e312f6c696e75782f676f312e342e32",
  "transactions": [
    {
      "hash": "0x4ecd2626cd28a80973e1da60c2ae7295889528896cb189021b0981331fe54859",
      "blockHash": "0x0b52be35bf46e736fa840b87f666a0d66915040d78a9042298e4b6381c1d9425",
      "blockNumber": 86791,
      "transactionIndex": 0,
      "confirmations": null,
      "from": "0x32Be343B94f860124dC4fEe278FDCBD38C102D88",
      "gasPrice": {
        "_hex": "0xcb56590aa"
      },
      "gasLimit": {
        "_hex": "0x5208"
      },
      "to": "0xdE79c5895EB57d39465fD6dFF8D7746D487019cd",
      "value": {
        "_hex": "0x6cf7605a949710000"
      },
      "nonce": 770,
      "data": "0x",
      "r": "0xb901aaf492ed8dbfcf707943cee8bfb0887a5f502ffd5b69b7f9fde8b8da72bb",
      "s": "0x5dd9533ccc51f8a5f9191c4e179c967eb03841a7e415806f14126a06c9e509e9",
      "v": 28,
      "creates": null,
      "raw": "0xf86f820302850cb56590aa82520894de79c5895eb57d39465fd6dff8d7746d487019cd8906cf7605a949710000801ca0b901aaf492ed8dbfcf707943cee8bfb0887a5f502ffd5b69b7f9fde8b8da72bba05dd9533ccc51f8a5f9191c4e179c967eb03841a7e415806f14126a06c9e509e9",
      "networkId": 0,
      "chainId": 0
    }
  ]
}