{
  "hash": "0xca2860e6aab33647f012cdcad71cd97d88ddb2574b416ae01e4abd45de8c05ff",
  "parentHash": "0x082c30968e58567487e254d57df0d8750d94b212911ed7dab4012c0fa6c160f0",
  "number": 119091,
  "timestamp": 1440136639,
  "nonce": "0xea1ee9fe1c448ebf",
  "difficulty": 4418284485130,
  "gasLimit": {
    "_hex": "0x2fefd8"
  },
  "gasUsed": {
    "_hex": "0x5208"
  },
  "miner": "0x580992B51e3925e23280EfB93d3047C82f17E038",
  "extraData": "0x",
  "transactions": [
    {
      "hash": "0x4e2fb4d3ee84ef40e4a3eb108d95d8f057cb4e043c5a2fcbb726e272084bdd38",
      "blockHash": "0xca2860e6aab33647f012cdcad71cd97d88ddb2574b416ae01e4abd45de8c05ff",
      "blockNumber": 119091,
      "transactionIndex": 0,
      "confirmations": null,
      "from": "0xa16E760E170A19a36e1b42357a1e6A1A206B9F39",
      "gasPrice": {
        "_hex": "0xba43b7400"
      },
      "gasLimit": {
        "_hex": "0x15f90"
      },
      "to": "0x1151790FE5F7C3113dfb07Dc3914B1916EcC8a7A",
      "value": {
        "_hex": "0xe1273a0aa3f0000"
      },
      "nonce": 8,
      "data": "0x",
      "r": "0xb4c04874bb23aad2280d0b83a3b6f6cd3f775e034fd67aee8fa9b8a099ef0813",
      "s": "0x09801fc16354d3a2e26e913b7b165bd032d3e37b8ba4b256c89bcd9fd6406676",
      "v": 27,
      "creates": null,
      "raw": "0xf86d08850ba43b740083015f90941151790fe5f7c3113dfb07dc3914b1916ecc8a7a880e1273a0aa3f0000801ba0b4c04874bb23aad2280d0b83a3b6f6cd3f775e034fd67aee8fa9b8a099ef0813a009801fc16354d3a2e26e913b7b165bd032d3e37b8ba4b256c89bcd9fd6406676",
      "networkId": 0,
      "chainId": 0
    }
  ]
}