{
  "hash": "0x9cb28f1667bc37cf14645bc525d95f06ee6d521efe1f566c8dae5b5e929b44d5",
  "parentHash": "0x984ed1fe92c9074de03a65391bd3cd53d01e0032543919e06eee7478c3ab3675",
  "number": 71249,
  "timestamp": 1439333111,
  "nonce": "0x57a33bdfb5d3ef36",
  "difficulty": 2146665239606,
  "gasLimit": {
    "_hex": "0x2fefd8"
  },
  "gasUsed": {
    "_hex": "0xae73"
  },
  "miner": "0xe6A7a1d47ff21B6321162AEA7C6CB457D5476Bca",
  "extraData": "0x476574682f76312e302e312d38326566323666362f6c696e75782f676f312e34",
  "transactions": [
    {
      "hash": "0xa0922d1af01b6ca5d7368d2096e696e4eb09b2ee999f42fefeaaa27312052273",
      "blockHash": "0x9cb28f1667bc37cf14645bc525d95f06ee6d521efe1f566c8dae5b5e929b44d5",
      "blockNumber": 71249,
      "transactionIndex": 0,
      "confirmations": null,
      "from": "0x17580B766f7453525ca4C6A88b01b50570EA088C",
      "gasPrice": {
        "_hex": "0xcff80114c"
      },
      "gasLimit": {
        "_hex": "0x61a80"
      },
      "to": "0x5Fe5B7546D1628f7348B023A0393de1FC825A4fD",
      "value": {
        "_hex": "0x1bc16d674ec80000"
      },
      "nonce": 131,
      "data": "0xb595b8b50000000000000000000000000000000000000000000000000000000000000000",
      "r": "0x171aa077389aaf264ed64f7548363d946fa069d3de3213e2ebee36355fa5870b",
      "s": "0x08c5fc4ca5871a0dee24e9ff9b49c20af7550d87f092bb9d3c22aa791225b1da",
      "v": 27,
      "creates": null,
      "raw": "0xf8928183850cff80114c83061a80945fe5b7546d1628f7348b023a0393de1fc825a4fd881bc16d674ec80000a4b595b8b500000000000000000000000000000000000000000000000000000000000000001ba0171aa077389aaf264ed64f7548363d946fa069d3de3213e2ebee36355fa5870ba008c5fc4ca5871a0dee24e9ff9b49c20af7550d87f092bb9d3c22aa791225b1da",
      "networkId": 0,
      "chainId": 0
    }
  ]
}