{
  "hash": "0xe68af2d7f754530ea5b0297c0efa64fb4a99367e9abb80174b01e9ed650a06bf",
  "parentHash": "0x040743d7063ac2f780c6936d16233cfe731c28ed878f0ed6b23e5ecb4a1ee9a7",
  "number": 94055,
  "timestamp": 1439701870,
  "nonce": "0xc79da49bc77eebfd",
  "difficulty": 3481715258498,
  "gasLimit": {
    "_hex": "0x2fefd8"
  },
  "gasUsed": {
    "_hex": "0x5208"
  },
  "miner": "0xe6A7a1d47ff21B6321162AEA7C6CB457D5476Bca",
  "extraData": "0x476574682f76312e302e312d38326566323666362f6c696e75782f676f312e34",
  "transactions": [
    {
      "hash": "0xb317d9903ca6a3901832a6acfa0adcee319219acf2737048e3481778a8844db0",
      "blockHash": "0xe68af2d7f754530ea5b0297c0efa64fb4a99367e9abb80174b01e9ed650a06bf",
      "blockNumber": 94055,
      "transactionIndex": 0,
      "confirmations": null,
      "from": "0x06EC48800B2DB3eEfa052e98A9b5Fc2Bf783Ee74",
      "gasPrice": {
        "_hex": "0xccebb9077"
      },
      "gasLimit": {
        "_hex": "0x5208"
      },
      "to": "0x32Be343B94f860124dC4fEe278FDCBD38C102D88",
      "value": {
        "_hex": "0x253104230e73ea000"
      },
      "nonce": 14,
      "data": "0x",
      "r": "0xe7b58e429299ae8901b1e7aa4acc119bb92f129ce6d86443f099277458a27fc0",
      "s": "0x2d231e4cb7c3540c390be1db39ffd0c090d2a3356170a03cbea26798070145e7",
      "v": 28,
      "creates": null,
      "raw": "0xf86d0e850ccebb90778252089432be343b94f860124dc4fee278fdcbd38c102d88890253104230e73ea000801ca0e7b58e429299ae8901b1e7aa4acc119bb92f129ce6d86443f099277458a27fc0a02d231e4cb7c3540c390be1db39ffd0c090d2a3356170a03cbea26798070145e7",
      "networkId": 0,
      "chainId": 0
    }
  ]
}