{
  "hash": "0x52327101888bf1391f43871b4ae7b5f60ac78f79a3edff1bd5bb43cf8fa16c04",
  "parentHash": "0xd88e15ea025e95c54e8949fea98cfb1f220dad9e30a896e97f0321d5e5837b3e",
  "number": 63691,
  "timestamp": 1439208574,
  "nonce": "0x87ed8102395356ed",
  "difficulty": 1843187198009,
  "gasLimit": {
    "_hex": "0x2fefd8"
  },
  "gasUsed": {
    "_hex": "0x546c"
  },
  "miner": "0xD1dbf6AE8f14259aDb50f4425dd056204391a578",
  "extraData": "0x476574682f76312e302e312f77696e646f77732f676f312e342e32",
  "transactions": [
    {
      "hash": "0x173a1ea105d5fa9e4d19bcd60f8797d0cbbad3819599b1388e30ac7a8f91a5a2",
      "blockHash": "0x52327101888bf1391f43871b4ae7b5f60ac78f79a3edff1bd5bb43cf8fa16c04",
      "blockNumber": 63691,
      "transactionIndex": 0,
      "confirmations": null,
      "from": "0xc672B41FCC9441EeB20f8d1b4342DE7A982eBAb4",
      "gasPrice": {
        "_hex": "0xd5c30fa52"
      },
      "gasLimit": {
        "_hex": "0x55f0"
      },
      "to": "0x2910543Af39abA0Cd09dBb2D50200b3E800A63D2",
      "value": {
        "_hex": "0x2431ebde7ad0d0000"
      },
      "nonce": 0,
      "data": "0x454e423451384a3252",
      "r": "0x128fa2e9feb5267ad2a162f1482b7d6e27151b102eee7b44a69d42144844f106",
      "s": "0x0b54c653e1476e67890ec3ba97e2b0af17025fc2ad984a096744968285a0561b",
      "v": 28,
      "creates": null,
      "raw": "0xf87680850d5c30fa528255f0942910543af39aba0cd09dbb2d50200b3e800a63d28902431ebde7ad0d000089454e423451384a32521ca0128fa2e9feb5267ad2a162f1482b7d6e27151b102eee7b44a69d42144844f106a00b54c653e1476e67890ec3ba97e2b0af17025fc2ad984a096744968285a0561b",
      "networkId": 0,
      "chainId": 0
    }
  ]
}