{
  "hash": "0xaee5750bb0a10b3a650ddc334905338ecd6f9cc0ab4b719416a9c1a4dab1b1e8",
  "parentHash": "0x11e7758099ceb1a004bde646577dfe54c0781dc30bd9265218834a808e576837",
  "number": 47547,
  "timestamp": 1438942624,
  "nonce": "0xfe0710ae5d761bba",
  "difficulty": 1446692789722,
  "gasLimit": {
    "_hex": "0xce21"
  },
  "gasUsed": {
    "_hex": "0xa410"
  },
  "miner": "0xF2d2AfF1320476cb8C6b607199D23175cc595693",
  "extraData": "0x476574682f76312e302e312f77696e646f77732f676f312e342e32",
  "transactions": [
    {
      "hash": "0xf206970f1e37846bdbd86adfc2d401291a18b8c5567a2a9953caf0ef69369922",
      "blockHash": "0xaee5750bb0a10b3a650ddc334905338ecd6f9cc0ab4b719416a9c1a4dab1b1e8",
      "blockNumber": 47547,
      "transactionIndex": 0,
      "confirmations": null,
      "from": "0xe6A7a1d47ff21B6321162AEA7C6CB457D5476Bca",
      "gasPrice": {
        "_hex": "0x1c63f281b0"
      },
      "gasLimit": {
        "_hex": "0x55f0"
      },
      "to": "0xd7C9Da7F000be9dcD742D6437dE28669DAFf0f4B",
      "value": {
        "_hex": "0x6a3bac3afad41f7a0"
      },
      "nonce": 175,
      "data": "0x",
      "r": "0x6b0c896acb209fe9baff5b876ae9cb8cdd9039d211d15a76cb36719a4961fc53",
      "s": "0x2e12895a1d8265a2ec6562d0ca9f66a902964e80297cc3fa69e8010cddd0a803",
      "v": 28,
      "creates": null,
      "raw": "0xf86e81af851c63f281b08255f094d7c9da7f000be9dcd742d6437de28669daff0f4b8906a3bac3afad41f7a0801ca06b0c896acb209fe9baff5b876ae9cb8cdd9039d211d15a76cb36719a4961fc53a02e12895a1d8265a2ec6562d0ca9f66a902964e80297cc3fa69e8010cddd0a803",
      "networkId": 0,
      "chainId": 0
    },
    {
      "hash": "0x35d8408c06b1f83192ae8bf2fe79d3b899f34b6e90c9f445bd337fd3567abe16",
      "blockHash": "0xaee5750bb0a10b3a650ddc334905338ecd6f9cc0ab4b719416a9c1a4dab1b1e8",
      "blockNumber": 47547,
      "transactionIndex": 1,
      "confirmations": null,
      "from": "0xe6A7a1d47ff21B6321162AEA7C6CB457D5476Bca",
      "gasPrice": {
        "_hex": "0x1c63f281b0"
      },
      "gasLimit": {
        "_hex": "0x55f0"
      },
      "to": "0xEa5b801969342B44467C9dE87fEfE2C1dB740bd4",
      "value": {
        "_hex": "0x708449a0abd75bdd0"
      },
      "nonce": 176,
      "data": "0x",
      "r": "0xc568a0d3414690b73b3bcd4732705fc46689f6741a1db0a4e73c95444a863407",
      "s": "0x1a22819f916ab82cc83618c788d5aaddb737a1b302f7cedcc501a64089b129a0",
      "v": 27,
      "creates": null,
      "raw": "0xf86e81b0851c63f281b08255f094ea5b801969342b44467c9de87fefe2c1db740bd4890708449a0abd75bdd0801ba0c568a0d3414690b73b3bcd4732705fc46689f6741a1db0a4e73c95444a863407a01a22819f916ab82cc83618c788d5aaddb737a1b302f7cedcc501a64089b129a0",
      "networkId": 0,
      "chainId": 0
    }
  ]
}