{
  "hash": "0x3620717dc75baa9c081fa75be0a987701cfbc52e71d440fc07c32e7dc8be7eb2",
  "parentHash": "0x87e398ef3d6987606518ed6e538f02ff1e8c371fe54737722c8f596dba3ae2ec",
  "number": 71905,
  "timestamp": 1439343804,
  "nonce": "0x0e3bcd680660e741",
  "difficulty": 2167561951208,
  "gasLimit": {
    "_hex": "0x2fefd8"
  },
  "gasUsed": {
    "_hex": "0x93b2"
  },
  "miner": "0xEF247E639d49461D25F57e9362CadE3120910Ce0",
  "extraData": "0x476574682f76312e302e312f6c696e75782f676f312e342e32",
  "transactions": [
    {
      "hash": "0xcbac1dfeee5df182936da75a8c517d3eb125f5cbc72618d5412307e632580285",
      "blockHash": "0x3620717dc75baa9c081fa75be0a987701cfbc52e71d440fc07c32e7dc8be7eb2",
      "blockNumber": 71905,
      "transactionIndex": 0,
      "confirmations": null,
      "from": "0x17580B766f7453525ca4C6A88b01b50570EA088C",
      "gasPrice": {
        "_hex": "0xdc99843ed"
      },
      "gasLimit": {
        "_hex": "0x61a80"
      },
      "to": "0x5Fe5B7546D1628f7348B023A0393de1FC825A4fD",
      "value": {
        "_hex": "0x8ac7230489e80000"
      },
      "nonce": 291,
      "data": "0xb595b8b50000000000000000000000000000000000000000000000000000000000000000",
      "r": "0x83134dd7522ece202ffa412463b532ef45244e09bbaed60456f1cae9d76219d2",
      "s": "0x51f3f7a829ff375606b8e2b6523d5a62faeba649086c8f908b0fe0fd2a7100a2",
      "v": 28,
      "creates": null,
      "raw": "0xf893820123850dc99843ed83061a80945fe5b7546d1628f7348b023a0393de1fc825a4fd888ac7230489e80000a4b595b8b500000000000000000000000000000000000000000000000000000000000000001ca083134dd7522ece202ffa412463b532ef45244e09bbaed60456f1cae9d76219d2a051f3f7a829ff375606b8e2b6523d5a62faeba649086c8f908b0fe0fd2a7100a2",
      "networkId": 0,
      "chainId": 0
    }
  ]
}