{
  "hash": "0x9746341ef654142f88cf726bda5a3b53c43ef9e6665d2b83677b98e8b730c66b",
  "parentHash": "0x9be9beadb6dad98ab70ab1bb41173c48acbcec92cf97145eb90604942d6c9bb2",
  "number": 62407,
  "timestamp": 1439188290,
  "nonce": "0xb91f9436bccda8d1",
  "difficulty": 1764211758260,
  "gasLimit": {
    "_hex": "0x2fefd8"
  },
  "gasUsed": {
    "_hex": "0x7ab6"
  },
  "miner": "0xbb7B8287f3F0a933474a79eAe42CBCa977791171",
  "extraData": "0x476574682f4c5649562f76312e302e312f6c696e75782f676f312e342e32",
  "transactions": [
    {
      "hash": "0xddf6932a34e718e75f4b6432c704caee6f800acaa2cf0135d6c478e1ea4dc2f2",
      "blockHash": "0x9746341ef654142f88cf726bda5a3b53c43ef9e6665d2b83677b98e8b730c66b",
      "blockNumber": 62407,
      "transactionIndex": 0,
      "confirmations": null,
      "from": "0xE2beA3e7d349ab64EBD9873418e78912e13CD35f",
      "gasPrice": {
        "_hex": "0xd5fa3bd7f"
      },
      "gasLimit": {
        "_hex": "0x15f90"
      },
      "to": "0x8B9a77eA50493eea6bA980f74dd66ff633172917",
      "value": {
        "_hex": "0xde0b6b3a7640000"
      },
      "nonce": 16,
      "data": "0x",
      "r": "0x69fe7fcd7fac2bb45cdd92f046f6ef0bd5f35578d3939f7797ca943bdd5f72c3",
      "s": "0x2f3048252ea7995c33fd35b3313ced13435d8f43091d26f74b626d12109c2742",
      "v": 28,
      "creates": null,
      "raw": "0xf86d10850d5fa3bd7f83015f90948b9a77ea50493eea6ba980f74dd66ff633172917880de0b6b3a7640000801ca069fe7fcd7fac2bb45cdd92f046f6ef0bd5f35578d3939f7797ca943bdd5f72c3a02f3048252ea7995c33fd35b3313ced13435d8f43091d26f74b626d12109c2742",
      "networkId": 0,
      "chainId": 0
    }
  ]
}