{
  "hash": "0x9bbeccbe77520d95cbbd9fbcfec17337d3750ec2dc6458f36841ea2f9fbb7b72",
  "parentHash": "0x5b3de7f468dc33808f86f5a5a8f42a51e624f723faee48ebd6b7b826e8c44148",
  "number": 76237,
  "timestamp": 1439417062,
  "nonce": "0x3d9386acd3bed34c",
  "difficulty": 2237397055668,
  "gasLimit": {
    "_hex": "0x2fefd8"
  },
  "gasUsed": {
    "_hex": "0x5208"
  },
  "miner": "0xf927a40C8B7F6E07c5af7FA2155B4864a4112B13",
  "extraData": "0x",
  "transactions": [
    {
      "hash": "0x8f92fa9f99eb407938231e551443fcf14e614907615dc5e0cf2c10b00111292c",
      "blockHash": "0x9bbeccbe77520d95cbbd9fbcfec17337d3750ec2dc6458f36841ea2f9fbb7b72",
      "blockNumber": 76237,
      "transactionIndex": 0,
      "confirmations": null,
      "from": "0x678e56B6f93163213D619B73A22cc42fD2855CB5",
      "gasPrice": {
        "_hex": "0xba43b7400"
      },
      "gasLimit": {
        "_hex": "0x5267"
      },
      "to": "0x923e58c2298906639eA9077D5100b4d9cdA7950e",
      "value": {
        "_hex": "0x3627e8f712373c0000"
      },
      "nonce": 1,
      "data": "0x",
      "r": "0xe9ede03e8e9b167d0cf484d43cbe3a3b5f8e26a981c13eb641051893765d68d4",
      "s": "0x22e4ca0058a0e00dcfa51d1b350c8dbb4da81114fa1728e68139e47dfd5fa7e1",
      "v": 28,
      "creates": null,
      "raw": "0xf86d01850ba43b740082526794923e58c2298906639ea9077d5100b4d9cda7950e893627e8f712373c0000801ca0e9ede03e8e9b167d0cf484d43cbe3a3b5f8e26a981c13eb641051893765d68d4a022e4ca0058a0e00dcfa51d1b350c8dbb4da81114fa1728e68139e47dfd5fa7e1",
      "networkId": 0,
      "chainId": 0
    }
  ]
}