{
  "hash": "0xd09afe46014cf9aba9b303d1b011e418d93ca0a985540c49fae9cbdb16464d01",
  "parentHash": "0x5f13bae53320fb9281aa3719fc39e5c52f34fa43f6814bb68dcb4a9a46623684",
  "number": 89431,
  "timestamp": 1439623365,
  "nonce": "0xc7fcc533ffe55891",
  "difficulty": 3301461815554,
  "gasLimit": {
    "_hex": "0x2fefd8"
  },
  "gasUsed": {
    "_hex": "0x5d9f"
  },
  "miner": "0x55bAf64fc9eAccFFd7Cc643BB61142E1C6ac093e",
  "extraData": "0x",
  "transactions": [
    {
      "hash": "0x9bd446389a243999de212c57b7c0df277cd3043a51c1a0a9bc7e6a078856c3c8",
      "blockHash": "0xd09afe46014cf9aba9b303d1b011e418d93ca0a985540c49fae9cbdb16464d01",
      "blockNumber": 89431,
      "transactionIndex": 0,
      "confirmations": null,
      "from": "0x0089508679abF8c71BF6781687120e3E6a84584D",
      "gasPrice": {
        "_hex": "0xd7f84d7f9"
      },
      "gasLimit": {
        "_hex": "0x15f90"
      },
      "to": "0xAd8d3a5d2d92EB14bB56CA9f380be35b8EFE0c04",
      "value": {
        "_hex": "0x3cb71f51fc5580000"
      },
      "nonce": 6,
      "data": "0xb214faa54141414141414749450000000000000000000000000000000000000000000000",
      "r": "0x5dfceabf4078a8c4442d802bfe3beb494415c8547593fc31778cb14321791c7a",
      "s": "0x0a6690a5dac5653288501baafda0470a6303ebbebd5e448e577484ef621eee83",
      "v": 27,
      "creates": null,
      "raw": "0xf89206850d7f84d7f983015f9094ad8d3a5d2d92eb14bb56ca9f380be35b8efe0c048903cb71f51fc5580000a4b214faa541414141414147494500000000000000000000000000000000000000000000001ba05dfceabf4078a8c4442d802bfe3beb494415c8547593fc31778cb14321791c7aa00a6690a5dac5653288501baafda0470a6303ebbebd5e448e577484ef621eee83",
      "networkId": 0,
      "chainId": 0
    }
  ]
}