{
  "hash": "0x15e26ea89e5219791de8808b76f4d1b2cb613c0a5b5c767273c24b6430289dad",
  "parentHash": "0x9c530a5c460922b3347d388092d767ce546e8f97410c94552158524678f3aa7b",
  "number": 81416,
  "timestamp": 1439501269,
  "nonce": "0xc8d0d8d01f149a2c",
  "difficulty": 2454584505161,
  "gasLimit": {
    "_hex": "0x2fefd8"
  },
  "gasUsed": {
    "_hex": "0x5208"
  },
  "miner": "0x2f6BCe4fc330B69C9B4c2694d57C63Ec7B18feC7",
  "extraData": "0x476574682f76312e302e312f77696e646f77732f676f312e342e32",
  "transactions": [
    {
      "hash": "0x25d5b10ebe71e451774fd228964a34b4e9b440a9fc3484ef717effc10fd61c21",
      "blockHash": "0x15e26ea89e5219791de8808b76f4d1b2cb613c0a5b5c767273c24b6430289dad",
      "blockNumber": 81416,
      "transactionIndex": 0,
      "confirmations": null,
      "from": "0x32Be343B94f860124dC4fEe278FDCBD38C102D88",
      "gasPrice": {
        "_hex": "0xd3bd17e0e"
      },
      "gasLimit": {
        "_hex": "0x5208"
      },
      "to": "0xDC7Aa5eB7F5DED39625D1E5B63faBEccE8722E65",
      "value": {
        "_hex": "0x29da145f3445520000"
      },
      "nonce": 596,
      "data": "0x",
      "r": "0xfc8a3e9b09b1d6386a96f90407e8b7158530510b2cf8657fb4db5673ff47a6b0",
      "s": "0x313fe40844025d932221bff90158c292faf5d6df3429b601cc04405de0a13981",
      "v": 27,
      "creates": null,
      "raw": "0xf86f820254850d3bd17e0e82520894dc7aa5eb7f5ded39625d1e5b63fabecce8722e658929da145f3445520000801ba0fc8a3e9b09b1d6386a96f90407e8b7158530510b2cf8657fb4db5673ff47a6b0a0313fe40844025d932221bff90158c292faf5d6df3429b601cc04405de0a13981",
      "networkId": 0,
      "chainId": 0
    }
  ]
}