{
  "hash": "0xcdd36d434c9925e7aed0c002333c10ba7f688ef91b035c52485ab15a6263e251",
  "parentHash": "0xbdd51c7090586e991f4f6f2a5c7ad10e39562b5b8604953983f67debfee60b33",
  "number": 120506,
  "timestamp": 1440161000,
  "nonce": "0x8eccdc587e11dded",
  "difficulty": 4419696795081,
  "gasLimit": {
    "_hex": "0x2fefd8"
  },
  "gasUsed": {
    "_hex": "0x5208"
  },
  "miner": "0x5F8F73E26CdF436f19Cb24C82F90A15AFe55b592",
  "extraData": "0x",
  "transactions": [
    {
      "hash": "0x80a4c8038f327a3719e7d12d7d36aee046a7922f18506e49c72e452858d58b95",
      "blockHash": "0xcdd36d434c9925e7aed0c002333c10ba7f688ef91b035c52485ab15a6263e251",
      "blockNumber": 120506,
      "transactionIndex": 0,
      "confirmations": null,
      "from": "0xf2711F78854D3b5CE29fA3c550a9328D7df40706",
      "gasPrice": {
        "_hex": "0xba43b7400"
      },
      "gasLimit": {
        "_hex": "0x5208"
      },
      "to": "0xFBb1b73C4f0BDa4f67dcA266ce6Ef42f520fBB98",
      "value": {
        "_hex": "0x3a7836a8cb668c00"
      },
      "nonce": 6,
      "data": "0x",
      "r": "0x15e1e849744f008557d77e19f7c1bf59cc7e13d681a1d9e63d16d27bcb488015",
      "s": "0x0f72573ddec59d93b6052b620b2d15f635d6a3e6d7096301847d890bc388f5de",
      "v": 27,
      "creates": null,
      "raw": "0xf86c06850ba43b740082520894fbb1b73c4f0bda4f67dca266ce6ef42f520fbb98883a7836a8cb668c00801ba015e1e849744f008557d77e19f7c1bf59cc7e13d681a1d9e63d16d27bcb488015a00f72573ddec59d93b6052b620b2d15f635d6a3e6d7096301847d890bc388f5de",
      "networkId": 0,
      "chainId": 0
    }
  ]
}