{
  "hash": "0x93d2472002de2fb689b03a5ebc9beaa89b6124e551e42d83a98b2bf6c25c9684",
  "parentHash": "0xfc42d10264627be0ab1a7c74fb497a3c809b600bb5c653d30df4d88321f6468d",
  "number": 89680,
  "timestamp": 1439627473,
  "nonce": "0x92dc05df4a609193",
  "difficulty": 3315903691524,
  "gasLimit": {
    "_hex": "0x2fefd8"
  },
  "gasUsed": {
    "_hex": "0x546c"
  },
  "miner": "0x88D74a59454F6cF3B51ef6b9136AFb6b9D405A88",
  "extraData": "0x476574682f76312e302e312d38326566323666362f6c696e75782f676f312e34",
  "transactions": [
    {
      "hash": "0xf54aa5cc921a86c5fd4465a5be4a14ebd32e85cb33d02865dad251752db0e915",
      "blockHash": "0x93d2472002de2fb689b03a5ebc9beaa89b6124e551e42d83a98b2bf6c25c9684",
      "blockNumber": 89680,
      "transactionIndex": 0,
      "confirmations": null,
      "from": "0x4697bAAf9CcB603fd30430689d435445E9c98BF5",
      "gasPrice": {
        "_hex": "0x110c8f7d8de"
      },
      "gasLimit": {
        "_hex": "0xc350"
      },
      "to": "0x2910543Af39abA0Cd09dBb2D50200b3E800A63D2",
      "value": {
        "_hex": "0x9985e5236bc240000"
      },
      "nonce": 1,
      "data": "0x454e55413545594552",
      "r": "0x568e3d700b22f6a2cfb30c976aadfe25b653a99203d8bc4a1bd7d45918ecb39f",
      "s": "0x0cd5dad8bec656b3b1fff63906b641a7d4d19db373d979b823727e214af5692d",
      "v": 28,
      "creates": null,
      "raw": "0xf87701860110c8f7d8de82c350942910543af39aba0cd09dbb2d50200b3e800a63d28909985e5236bc24000089454e554135455945521ca0568e3d700b22f6a2cfb30c976aadfe25b653a99203d8bc4a1bd7d45918ecb39fa00cd5dad8bec656b3b1fff63906b641a7d4d19db373d979b823727e214af5692d",
      "networkId": 0,
      "chainId": 0
    }
  ]
}