{
  "hash": "0x0ef17ffa2165e133a817fe808c7e52ca6d3207403af3a7175dc061358c3fa5e2",
  "parentHash": "0x250529d7f8d8d0bbcf792ee6b30212980fe79f221e5f176122e09e0b39af8533",
  "number": 100280,
  "timestamp": 1439803830,
  "nonce": "0x72275199cd771211",
  "difficulty": 3834162245427,
  "gasLimit": {
    "_hex": "0x2fefd8"
  },
  "gasUsed": {
    "_hex": "0x5208"
  },
  "miner": "0xe6A7a1d47ff21B6321162AEA7C6CB457D5476Bca",
  "extraData": "0x476574682f76312e302e312d38326566323666362f6c696e75782f676f312e34",
  "transactions": [
    {
      "hash": "0x811ce6b3e76cc31869aafec5f4d0911daa5da8abf542361dfa93b06ea2ad2d05",
      "blockHash": "0x0ef17ffa2165e133a817fe808c7e52ca6d3207403af3a7175dc061358c3fa5e2",
      "blockNumber": 100280,
      "transactionIndex": 0,
      "confirmations": null,
      "from": "0x65C40Ee4e07E09671fF3cE2dff2AcCbE366bb5C8",
      "gasPrice": {
        "_hex": "0xcf08139a2"
      },
      "gasLimit": {
        "_hex": "0x5208"
      },
      "to": "0x32Be343B94f860124dC4fEe278FDCBD38C102D88",
      "value": {
        "_hex": "0x1977dbcfa97cad000"
      },
      "nonce": 3,
      "data": "0x",
      "r": "0x18a87f3f0a8aeb18dcd5a7cb4697bffd30737ba35f181cf46a02470042f30511",
      "s": "0x5769b285169b0408259b7ecb05004db1e41177b856d0b8bb777626d885fec1ba",
      "v": 27,
      "creates": null,
      "raw": "0xf86d03850cf08139a28252089432be343b94f860124dc4fee278fdcbd38c102d888901977dbcfa97cad000801ba018a87f3f0a8aeb18dcd5a7cb4697bffd30737ba35f181cf46a02470042f30511a05769b285169b0408259b7ecb05004db1e41177b856d0b8bb777626d885fec1ba",
      "networkId": 0,
      "chainId": 0
    }
  ]
}