{
  "hash": "0x92e02abfa35a7d70939d0d4f7cacd5c3c50fde08895e98cd1faa0e6389f9abc4",
  "parentHash": "0xe713838170a582a0babca59784d27c1eec7421189f5647427c0620e7d38bde0e",
  "number": 67264,
  "timestamp": 1439269068,
  "nonce": "0xb0a1b9ea322110a7",
  "difficulty": 1922354589195,
  "gasLimit": {
    "_hex": "0x2fefd8"
  },
  "gasUsed": {
    "_hex": "0x5208"
  },
  "miner": "0xB57a69A9cFD1BC39510a70Ab14De3BDa11d1dF70",
  "extraData": "0x476574682f76312e302e312f6c696e75782f676f312e342e32",
  "transactions": [
    {
      "hash": "0x47ac7c90df6de1bf6306d4ab08c1fb0239d8487579ee55bd1e88eb65cca11f75",
      "blockHash": "0x92e02abfa35a7d70939d0d4f7cacd5c3c50fde08895e98cd1faa0e6389f9abc4",
      "blockNumber": 67264,
      "transactionIndex": 0,
      "confirmations": null,
      "from": "0xDA4E0Ba268486216E0B3Ad5ccEAa1E7EdB1C2751",
      "gasPrice": {
        "_hex": "0xda88b7824"
      },
      "gasLimit": {
        "_hex": "0x5208"
      },
      "to": "0x32Be343B94f860124dC4fEe278FDCBD38C102D88",
      "value": {
        "_hex": "0x192705d1f61838000"
      },
      "nonce": 1,
      "data": "0x",
      "r": "0x8daf9c0a3c03f5d4d594d6b2c22d5518676081a266bb164233af580e214e31fd",
      "s": "0x694ff27a3b58f4fc63685512c72adcc2f24ae5a6b09a6f848f6aebdabfa8df6b",
      "v": 28,
      "creates": null,
      "raw": "0xf86d01850da88b78248252089432be343b94f860124dc4fee278fdcbd38c102d88890192705d1f61838000801ca08daf9c0a3c03f5d4d594d6b2c22d5518676081a266bb164233af580e214e31fda0694ff27a3b58f4fc63685512c72adcc2f24ae5a6b09a6f848f6aebdabfa8df6b",
      "networkId": 0,
      "chainId": 0
    }
  ]
}