{
  "hash": "0xe23722fa3b9fea60bf01cca19451dc1f53723639657586b4c204435080c754e6",
  "parentHash": "0x92853d765e390fa39b11ca27b72679d752e5062bac6e8433ad363736a240c638",
  "number": 96398,
  "timestamp": 1439739766,
  "nonce": "0x2e6768f94515ed26",
  "difficulty": 3663852870727,
  "gasLimit": {
    "_hex": "0x2fefd8"
  },
  "gasUsed": {
    "_hex": "0x5208"
  },
  "miner": "0xe6A7a1d47ff21B6321162AEA7C6CB457D5476Bca",
  "extraData": "0x476574682f76312e302e312d38326566323666362f6c696e75782f676f312e34",
  "transactions": [
    {
      "hash": "0x9b512f8ea05af10cd2b861161470fac73f463c1e7a001b0aa10a44285cef64a6",
      "blockHash": "0xe23722fa3b9fea60bf01cca19451dc1f53723639657586b4c204435080c754e6",
      "blockNumber": 96398,
      "transactionIndex": 0,
      "confirmations": null,
      "from": "0xef49D7Bf6cD9A01fA487f94d4e79A6be31F89a34",
      "gasPrice": {
        "_hex": "0xd6ea1f669"
      },
      "gasLimit": {
        "_hex": "0x15f90"
      },
      "to": "0xA55d7191414077D72850992A603Fa1db834bfB74",
      "value": {
        "_hex": "0x4563918244f40000"
      },
      "nonce": 0,
      "data": "0x",
      "r": "0x17507cadbfa6a35e0814306d6ccf778f95196d8fb552b60e55e81c76986fd9c2",
      "s": "0x37664fa3ecb136f059e0c630a741603461d7432068a05f576147f2571d72e20b",
      "v": 28,
      "creates": null,
      "raw": "0xf86d80850d6ea1f66983015f9094a55d7191414077d72850992a603fa1db834bfb74884563918244f40000801ca017507cadbfa6a35e0814306d6ccf778f95196d8fb552b60e55e81c76986fd9c2a037664fa3ecb136f059e0c630a741603461d7432068a05f576147f2571d72e20b",
      "networkId": 0,
      "chainId": 0
    }
  ]
}