{
  "hash": "0xdb641509401ee4bcc9765e1b43e99fa0f191b9a0b812530a5d61dc25dd5676ac",
  "parentHash": "0x1842e01c9a49d8b6be6a7b66e1fece8e951c188a88453822f6da80c6acb8e78b",
  "number": 104316,
  "timestamp": 1439867794,
  "nonce": "0x1b546c64228fa2ee",
  "difficulty": 4287803207323,
  "gasLimit": {
    "_hex": "0x2fefd5"
  },
  "gasUsed": {
    "_hex": "0x5208"
  },
  "miner": "0xe6A7a1d47ff21B6321162AEA7C6CB457D5476Bca",
  "extraData": "0x476574682f76312e302e312d38326566323666362f6c696e75782f676f312e34",
  "transactions": [
    {
      "hash": "0xe1ae387e2a2baf085c2e6538f232813e587029ef01a0274fd89d2042cfcdc430",
      "blockHash": "0xdb641509401ee4bcc9765e1b43e99fa0f191b9a0b812530a5d61dc25dd5676ac",
      "blockNumber": 104316,
      "transactionIndex": 0,
      "confirmations": null,
      "from": "0x4873313Ba85B8127aF35C5c73433720FC90ba4Fe",
      "gasPrice": {
        "_hex": "0xd8e3e67e3"
      },
      "gasLimit": {
        "_hex": "0x5208"
      },
      "to": "0x24D0Da385D0ae2Eb116f76339382d2f43dE64340",
      "value": {
        "_hex": "0x112d59a4f3bdacc68"
      },
      "nonce": 4,
      "data": "0x",
      "r": "0x86de54139544b5d863a0ad4758dd40a474d92d4c33c17b1db6113d4cb74cd9b9",
      "s": "0x652a7b8831b80c4698abe50efc37501595325c0bd12a1bd25d8fcfa345345845",
      "v": 28,
      "creates": null,
      "raw": "0xf86d04850d8e3e67e38252089424d0da385d0ae2eb116f76339382d2f43de64340890112d59a4f3bdacc68801ca086de54139544b5d863a0ad4758dd40a474d92d4c33c17b1db6113d4cb74cd9b9a0652a7b8831b80c4698abe50efc37501595325c0bd12a1bd25d8fcfa345345845",
      "networkId": 0,
      "chainId": 0
    }
  ]
}