{
  "hash": "0xff105a81ef924e715e95d7b9c67df4eb88a641270220ccd9cb823c4609280ceb",
  "parentHash": "0x941839b356b40433271b33684088dd75ed50d2d95cf550442980ee43f646d616",
  "number": 94846,
  "timestamp": 1439714948,
  "nonce": "0x1181ee9192986492",
  "difficulty": 3520704944232,
  "gasLimit": {
    "_hex": "0x2fefd8"
  },
  "gasUsed": {
    "_hex": "0x5208"
  },
  "miner": "0xe6A7a1d47ff21B6321162AEA7C6CB457D5476Bca",
  "extraData": "0x476574682f76312e302e312d38326566323666362f6c696e75782f676f312e34",
  "transactions": [
    {
      "hash": "0xb4963a283124019bac069d68cdc710796bb3ea6c4ce8e2072b9b8f39e8a7a54f",
      "blockHash": "0xff105a81ef924e715e95d7b9c67df4eb88a641270220ccd9cb823c4609280ceb",
      "blockNumber": 94846,
      "transactionIndex": 0,
      "confirmations": null,
      "from": "0xc41fDDa36003210005a385c88A71007e62A81C7D",
      "gasPrice": {
        "_hex": "0xd21fcf240"
      },
      "gasLimit": {
        "_hex": "0x15f90"
      },
      "to": "0xaf9014E2650a9d5A7ae35F4F623a1B1EFBa235ab",
      "value": {
        "_hex": "0x1692ccc1dc435bac"
      },
      "nonce": 1,
      "data": "0x",
      "r": "0x1d6a0c57d8edd0410a3a32eb4e0df47b4e8b0ee559c9e721e314cfd638696360",
      "s": "0x2fb60c8fdca8fe80bf57f59e0fba166b057e40a974157c0551d4f07d6d02ce6e",
      "v": 28,
      "creates": null,
      "raw": "0xf86d01850d21fcf24083015f9094af9014e2650a9d5a7ae35f4f623a1b1efba235ab881692ccc1dc435bac801ca01d6a0c57d8edd0410a3a32eb4e0df47b4e8b0ee559c9e721e314cfd638696360a02fb60c8fdca8fe80bf57f59e0fba166b057e40a974157c0551d4f07d6d02ce6e",
      "networkId": 0,
      "chainId": 0
    }
  ]
}