{
  "hash": "0x1dc2ed220b3fb8f19baa491eb87dbd1020b018a52af63f3ab7fb24611fb16a01",
  "parentHash": "0xad195c596fb87441265b9959ba356584969140515c91c1410cdd45a00ecc16b3",
  "number": 77328,
  "timestamp": 1439435420,
  "nonce": "0xd4a7aec7fd26345f",
  "difficulty": 2231651061115,
  "gasLimit": {
    "_hex": "0x2fefd8"
  },
  "gasUsed": {
    "_hex": "0x5208"
  },
  "miner": "0xf927a40C8B7F6E07c5af7FA2155B4864a4112B13",
  "extraData": "0x",
  "transactions": [
    {
      "hash": "0xe1a63055c545039aa675ba7eefff4c29faca3d3cafcf82877ab0a1a5961f67f5",
      "blockHash": "0x1dc2ed220b3fb8f19baa491eb87dbd1020b018a52af63f3ab7fb24611fb16a01",
      "blockNumber": 77328,
      "transactionIndex": 0,
      "confirmations": null,
      "from": "0xB7268c7705A1866b2A78e882fdfDc8E2a4e1428E",
      "gasPrice": {
        "_hex": "0xd641f460d"
      },
      "gasLimit": {
        "_hex": "0x15f90"
      },
      "to": "0x96811Ad897894eC178872117C8BF2f03971A393B",
      "value": {
        "_hex": "0x4563918244f40000"
      },
      "nonce": 17,
      "data": "0x",
      "r": "0x1b677374e97a70ab7b3523b9359d4cc0d9cf3715174b7247d93c1a3cb68afa23",
      "s": "0x30f444d75a3a19466e996ec179df7448cad3255c10f32d927648549514f1ae18",
      "v": 28,
      "creates": null,
      "raw": "0xf86d11850d641f460d83015f909496811ad897894ec178872117c8bf2f03971a393b884563918244f40000801ca01b677374e97a70ab7b3523b9359d4cc0d9cf3715174b7247d93c1a3cb68afa23a030f444d75a3a19466e996ec179df7448cad3255c10f32d927648549514f1ae18",
      "networkId": 0,
      "chainId": 0
    }
  ]
}