{
  "hash": "0x363f6e7451b8ab6523bf4898bf337f006ab4e900c35fc4739eddc0c6b047eb9e",
  "parentHash": "0xa2afa2f3a40b8289a5ea2d2238c5349dfe4577200217d871df8c45a655594ebb",
  "number": 96315,
  "timestamp": 1439738350,
  "nonce": "0xacee4f09db8a96b1",
  "difficulty": 3683621159834,
  "gasLimit": {
    "_hex": "0x2fefd8"
  },
  "gasUsed": {
    "_hex": "0x56ad"
  },
  "miner": "0x88C96e25787Fd9e2746F7Ce708f2285eCC16348f",
  "extraData": "0x476574682f76312e302e312f77696e646f77732f676f312e342e32",
  "transactions": [
    {
      "hash": "0xca1de2c541a781557fcd7ca9eff327cb0a36bb4458ec5777533a8ac8068831a9",
      "blockHash": "0x363f6e7451b8ab6523bf4898bf337f006ab4e900c35fc4739eddc0c6b047eb9e",
      "blockNumber": 96315,
      "transactionIndex": 0,
      "confirmations": null,
      "from": "0xa14Cf6cEC1c6aAe4b608458F6e14692863A937Aa",
      "gasPrice": {
        "_hex": "0xcfee8eaf9"
      },
      "gasLimit": {
        "_hex": "0x61a80"
      },
      "to": "0x580E45f982a0A01cFab3B36B3Ec8Df63fcc5D290",
      "value": {
        "_hex": "0x0"
      },
      "nonce": 24,
      "data": "0xa9559dd7",
      "r": "0xaa11c4080e668d51e621b39235a0a41f335d5ca7fcf37bf34f91e455e89d2d95",
      "s": "0x484f2059da3e4f2374ee45eaf9e17bdc8e7ca3792209a90b189437d283c47bc1",
      "v": 28,
      "creates": null,
      "raw": "0xf86918850cfee8eaf983061a8094580e45f982a0a01cfab3b36b3ec8df63fcc5d2908084a9559dd71ca0aa11c4080e668d51e621b39235a0a41f335d5ca7fcf37bf34f91e455e89d2d95a0484f2059da3e4f2374ee45eaf9e17bdc8e7ca3792209a90b189437d283c47bc1",
      "networkId": 0,
      "chainId": 0
    }
  ]
}