{
  "hash": "0x1990b37d4844a1a3a6e476c380f37b3e35d7fa42ea95de8261d6e10f7f68ee8e",
  "parentHash": "0xd380fd0e1839fcd8593e1883e6466ec2a6fe7e5514a2ec0c47f82f86f5ec9fe8",
  "number": 113739,
  "timestamp": 1440028652,
  "nonce": "0xcafb1beb119fb9de",
  "difficulty": 4447085237989,
  "gasLimit": {
    "_hex": "0x2fefd8"
  },
  "gasUsed": {
    "_hex": "0xf618"
  },
  "miner": "0xf8E0CA3Ed80bd541b94BEdCf259e8CF2141A9523",
  "extraData": "0x476574682f76312e302e312f77696e646f77732f676f312e342e32",
  "transactions": [
    {
      "hash": "0xbf4d27fd7591e2e0e84f9a338795b3b97de37d873a30889fd385c965586df291",
      "blockHash": "0x1990b37d4844a1a3a6e476c380f37b3e35d7fa42ea95de8261d6e10f7f68ee8e",
      "blockNumber": 113739,
      "transactionIndex": 0,
      "confirmations": null,
      "from": "0xa70a9a7040d542C632D8e0bE7c5513A8a5Bbc752",
      "gasPrice": {
        "_hex": "0xd8acb9633"
      },
      "gasLimit": {
        "_hex": "0x5208"
      },
      "to": "0x32Be343B94f860124dC4fEe278FDCBD38C102D88",
      "value": {
        "_hex": "0x455f3a9fefaf6400"
      },
      "nonce": 304,
      "data": "0x",
      "r": "0x36a02e57199c55545c38de35403d67a0ffbebe84453000744ffe7bbe4d898e26",
      "s": "0x0d92877c903b698788b78ecbd173f9eb58fe332052f58a6e2413850c20a214a6",
      "v": 27,
      "creates": null,
      "raw": "0xf86e820130850d8acb96338252089432be343b94f860124dc4fee278fdcbd38c102d8888455f3a9fefaf6400801ba036a02e57199c55545c38de35403d67a0ffbebe84453000744ffe7bbe4d898e26a00d92877c903b698788b78ecbd173f9eb58fe332052f58a6e2413850c20a214a6",
      "networkId": 0,
      "chainId": 0
    },
    {
      "hash": "0xf6e2550dfc58ee8114ece634e4cd6eef2381d174e4f0437318b807c20e7e461b",
      "blockHash": "0x1990b37d4844a1a3a6e476c380f37b3e35d7fa42ea95de8261d6e10f7f68ee8e",
      "blockNumber": 113739,
      "transactionIndex": 1,
      "confirmations": null,
      "from": "0x7548566f611b89EBfb57C547FeA0c293A2830aD2",
      "gasPrice": {
        "_hex": "0xd8acb9633"
      },
      "gasLimit": {
        "_hex": "0x5208"
      },
      "to": "0x32Be343B94f860124dC4fEe278FDCBD38C102D88",
      "value": {
        "_hex": "0x377e83ec484b6400"
      },
      "nonce": 5,
      "data": "0x",
      "r": "0x0afaec3ffd2e8270297774f5fdd4423835ab17a19a0a44abdd35c49f33b0ed83",
      "s": "0x5c1688a4b216f0d8f2c7d2a9f65748198912df52197080ca53822dca4ba69a43",
      "v": 27,
      "creates": null,
      "raw": "0xf86c05850d8acb96338252089432be343b94f860124dc4fee278fdcbd38c102d8888377e83ec484b6400801ba00afaec3ffd2e8270297774f5fdd4423835ab17a19a0a44abdd35c49f33b0ed83a05c1688a4b216f0d8f2c7d2a9f65748198912df52197080ca53822dca4ba69a43",
      "networkId": 0,
      "chainId": 0
    },
    {
      "hash": "0x643a60630e9126dc7bda185736553adaeec6e962180fbf68faff28629c82ddc2",
      "blockHash": "0x1990b37d4844a1a3a6e476c380f37b3e35d7fa42ea95de8261d6e10f7f68ee8e",
      "blockNumber": 113739,
      "transactionIndex": 2,
      "confirmations": null,
      "from": "0x120A270bbC009644e35F0bB6ab13f95b8199c4ad",
      "gasPrice": {
        "_hex": "0xd43d3e0ac"
      },
      "gasLimit": {
        "_hex": "0x3d090"
      },
      "to": "0xdDbddD1BBd38fFADE0305d30f02028D92e9f3Aa8",
      "value": {
        "_hex": "0x28a857425466f80000"
      },
      "nonce": 917,
      "data": "0x",
      "r": "0x58c2fcf074f970e68906351d94a6a3e726bb8421ff96fa8897b37bfbbbecbbe8",
      "s": "0x6bfe2dbf00d9d622ce8105e1dfa40962f941c68e74ab843626e46381ffecf11a",
      "v": 28,
      "creates": null,
      "raw": "0xf870820395850d43d3e0ac8303d09094ddbddd1bbd38ffade0305d30f02028d92e9f3aa88928a857425466f80000801ca058c2fcf074f970e68906351d94a6a3e726bb8421ff96fa8897b37bfbbbecbbe8a06bfe2dbf00d9d622ce8105e1dfa40962f941c68e74ab843626e46381ffecf11a",
      "networkId": 0,
      "chainId": 0
    }
  ]
}