{
  "hash": "0x74a11f84322f79948f22779f543191f218b23f9e73e319efe316fb4f23baf62b",
  "parentHash": "0xc6de4d4f8ec1f72fcf12af95c87986b45bfc2d0a65877e0e583788c94802df83",
  "number": 75849,
  "timestamp": 1439410445,
  "nonce": "0x8da8c6b206ea2253",
  "difficulty": 2228777356245,
  "gasLimit": {
    "_hex": "0x2fefd8"
  },
  "gasUsed": {
    "_hex": "0x546c"
  },
  "miner": "0xC603Ab5ef41fC61AA8b76bEddb09e3Cfcbb174BD",
  "extraData": "0x476574682f76312e302e312f77696e646f77732f676f312e342e32",
  "transactions": [
    {
      "hash": "0xb39ebb014ff55e708112b1ed7fd5cdfa4e7db7b3ea60540c2f3ea84f20fd1349",
      "blockHash": "0x74a11f84322f79948f22779f543191f218b23f9e73e319efe316fb4f23baf62b",
      "blockNumber": 75849,
      "transactionIndex": 0,
      "confirmations": null,
      "from": "0x053471Cd9a41925B3904a5A8FfcA3659E034bE23",
      "gasPrice": {
        "_hex": "0x110c8f7d8de"
      },
      "gasLimit": {
        "_hex": "0xc350"
      },
      "to": "0x2910543Af39abA0Cd09dBb2D50200b3E800A63D2",
      "value": {
        "_hex": "0xac9ae05a71ebc0000"
      },
      "nonce": 0,
      "data": "0x454e39505532354238",
      "r": "0x922d475f0e00d06051cddfdffa8fccf1c341ccef576fd8aaf6858c4b49f3dfc8",
      "s": "0xe2f290bb4713e2a639b52f5f219f4e3c9f67becd4367999673d599336aefa248",
      "v": 28,
      "creates": null,
      "raw": "0xf87780860110c8f7d8de82c350942910543af39aba0cd09dbb2d50200b3e800a63d2890ac9ae05a71ebc000089454e395055323542381ca0922d475f0e00d06051cddfdffa8fccf1c341ccef576fd8aaf6858c4b49f3dfc8a0e2f290bb4713e2a639b52f5f219f4e3c9f67becd4367999673d599336aefa248",
      "networkId": 0,
      "chainId": 0
    }
  ]
}