{
  "hash": "0x678ef281991a85e341c69f9a2aa61c3770375e86fed0ae7742b5d752dc9150bc",
  "parentHash": "0xb108c48a42955dba10f8981c27a5c70f0cbb658d4d88dce2fb71df679d18c12c",
  "number": 68566,
  "timestamp": 1439290124,
  "nonce": "0xe1b97ecbe943663b",
  "difficulty": 2010367319249,
  "gasLimit": {
    "_hex": "0x2fefd8"
  },
  "gasUsed": {
    "_hex": "0x5208"
  },
  "miner": "0xf927a40C8B7F6E07c5af7FA2155B4864a4112B13",
  "extraData": "0x",
  "transactions": [
    {
      "hash": "0x1a35a126f1e5bc6289e6bf3fa411620cb9d79daa841bb6fdcc069eef51fe9801",
      "blockHash": "0x678ef281991a85e341c69f9a2aa61c3770375e86fed0ae7742b5d752dc9150bc",
      "blockNumber": 68566,
      "transactionIndex": 0,
      "confirmations": null,
      "from": "0xB3F9652e68fac0B3577b7f6E1375c80b17Cb809F",
      "gasPrice": {
        "_hex": "0xba43b7400"
      },
      "gasLimit": {
        "_hex": "0x5208"
      },
      "to": "0xCB49b38368F1bE9eEA795163D84E73eFcDfB254b",
      "value": {
        "_hex": "0x937bda828f9000"
      },
      "nonce": 1,
      "data": "0x",
      "r": "0xa7f6b5f8c7360501fa2657acc223a5be8266ac3da42c95253c85e098b8c65412",
      "s": "0x64e10d015de8917a8cb672d0b999951e287365964b0610c0f04e98cf17a559c1",
      "v": 27,
      "creates": null,
      "raw": "0xf86b01850ba43b740082520894cb49b38368f1be9eea795163d84e73efcdfb254b87937bda828f9000801ba0a7f6b5f8c7360501fa2657acc223a5be8266ac3da42c95253c85e098b8c65412a064e10d015de8917a8cb672d0b999951e287365964b0610c0f04e98cf17a559c1",
      "networkId": 0,
      "chainId": 0
    }
  ]
}