{
  "hash": "0x94db5041104f7d94fe633fa2b12497b33acc2b68ee1da8fd1664876a2f19065d",
  "parentHash": "0xa26d59363323b1463a174309d03f44750e5ed4f52b4a9c145c4d9e6f3d3d1afc",
  "number": 70984,
  "timestamp": 1439328631,
  "nonce": "0x7935f4092f308d00",
  "difficulty": 2158294380935,
  "gasLimit": {
    "_hex": "0x2fefd8"
  },
  "gasUsed": {
    "_hex": "0x5208"
  },
  "miner": "0xf927a40C8B7F6E07c5af7FA2155B4864a4112B13",
  "extraData": "0x",
  "transactions": [
    {
      "hash": "0x00af32b6c95c744e01c059863958893342e6af904e9acd10b4fbd68702310c90",
      "blockHash": "0x94db5041104f7d94fe633fa2b12497b33acc2b68ee1da8fd1664876a2f19065d",
      "blockNumber": 70984,
      "transactionIndex": 0,
      "confirmations": null,
      "from": "0xf65EaC42da2c53D2a0e9bb399DDeDA9b68c7885c",
      "gasPrice": {
        "_hex": "0xd7d40ace3"
      },
      "gasLimit": {
        "_hex": "0x15f90"
      },
      "to": "0x197D8Ac346334Cf05e98ABd8f8c886Af37F6D274",
      "value": {
        "_hex": "0x38d7ea4c68000"
      },
      "nonce": 3,
      "data": "0x",
      "r": "0x4576cfe90939e8cfe245e5b776433047f7d88b73928799f66cacaa172eb3e551",
      "s": "0x57b455a0fd5a3a7592b585e491b6bbb40d2238c23a9ef4d016b9f38f137c5391",
      "v": 28,
      "creates": null,
      "raw": "0xf86c03850d7d40ace383015f9094197d8ac346334cf05e98abd8f8c886af37f6d27487038d7ea4c68000801ca04576cfe90939e8cfe245e5b776433047f7d88b73928799f66cacaa172eb3e551a057b455a0fd5a3a7592b585e491b6bbb40d2238c23a9ef4d016b9f38f137c5391",
      "networkId": 0,
      "chainId": 0
    }
  ]
}