{
  "hash": "0x55f47f226e1945df06be1dd7d26c1a69c55524f9a384a40879212e99fe7de205",
  "parentHash": "0x0e6e2645d85f3767cbdfdab641db3cd934da675adc8020c682650fe1f1120e5a",
  "number": 108434,
  "timestamp": 1439940506,
  "nonce": "0xbb0d8e17e8cbbbd3",
  "difficulty": 4298272994025,
  "gasLimit": {
    "_hex": "0x2fefd8"
  },
  "gasUsed": {
    "_hex": "0x5208"
  },
  "miner": "0x7366ADF97960d404c38D975e1A8786bEb14B6507",
  "extraData": "0x476574682f76312e302e312f77696e646f77732f676f312e342e32",
  "transactions": [
    {
      "hash": "0xb2332c15c9efac9fed8f55a9ff055b81f1e1b32245075694f8c097cf93d60ed9",
      "blockHash": "0x55f47f226e1945df06be1dd7d26c1a69c55524f9a384a40879212e99fe7de205",
      "blockNumber": 108434,
      "transactionIndex": 0,
      "confirmations": null,
      "from": "0x120A270bbC009644e35F0bB6ab13f95b8199c4ad",
      "gasPrice": {
        "_hex": "0xd071c6189"
      },
      "gasLimit": {
        "_hex": "0x3d090"
      },
      "to": "0xD3c6b518F1631509963232bA8e1882D3474a5838",
      "value": {
        "_hex": "0x150e7e3fe8a9273800"
      },
      "nonce": 835,
      "data": "0x",
      "r": "0xb42750578d69a5865063f97d2b0b0427144df3e543b9e2a12ff7e28bdf55e837",
      "s": "0x70c452e304fce93da047ae586063466759c94134825e2222c6a63fc4f16a68f1",
      "v": 28,
      "creates": null,
      "raw": "0xf870820343850d071c61898303d09094d3c6b518f1631509963232ba8e1882d3474a583889150e7e3fe8a9273800801ca0b42750578d69a5865063f97d2b0b0427144df3e543b9e2a12ff7e28bdf55e837a070c452e304fce93da047ae586063466759c94134825e2222c6a63fc4f16a68f1",
      "networkId": 0,
      "chainId": 0
    }
  ]
}