{
  "hash": "0x3a9a85e1f097c728b42323cf5d7431d96344be3a83abc7503c01147187a5ee8d",
  "parentHash": "0x543e4e2c97860769bd2a25d2c7ac1c0058ef4d3235410696c50d0536a5f3faf3",
  "number": 47881,
  "timestamp": 1438947880,
  "nonce": "0xf99ab496f552d5f2",
  "difficulty": 1453716111766,
  "gasLimit": {
    "_hex": "0x100aa"
  },
  "gasUsed": {
    "_hex": "0x5208"
  },
  "miner": "0x0eDEd3DA479d0beF8eeC92A76644D3f4E3C177f7",
  "extraData": "0x476574682f76312e302e312f6c696e75782f676f312e342e32",
  "transactions": [
    {
      "hash": "0x9aada2a2d9281d659136b74f46bf6eb3ff7d7150db2a6724f56276bbe2ebf0e3",
      "blockHash": "0x3a9a85e1f097c728b42323cf5d7431d96344be3a83abc7503c01147187a5ee8d",
      "blockNumber": 47881,
      "transactionIndex": 0,
      "confirmations": null,
      "from": "0x5102A4a42077e11C58df4773e3Ac944623A66d9f",
      "gasPrice": {
        "_hex": "0x100e3e478bb"
      },
      "gasLimit": {
        "_hex": "0x7918"
      },
      "to": "0x378ea1dc8edc19BAe82638029eA8752ce98BcFCD",
      "value": {
        "_hex": "0xde0b6b3a7640000"
      },
      "nonce": 0,
      "data": "0x",
      "r": "0xd2a45aa948bb9b929f89c658c7e772cc662a43829e1b9d34363a29914b36f7a5",
      "s": "0x5c6e9114d376c80530ac8f0d61592513200bfefdaef8826efa6d470dafef2eb0",
      "v": 27,
      "creates": null,
      "raw": "0xf86d80860100e3e478bb82791894378ea1dc8edc19bae82638029ea8752ce98bcfcd880de0b6b3a7640000801ba0d2a45aa948bb9b929f89c658c7e772cc662a43829e1b9d34363a29914b36f7a5a05c6e9114d376c80530ac8f0d61592513200bfefdaef8826efa6d470dafef2eb0",
      "networkId": 0,
      "chainId": 0
    }
  ]
}