{
  "hash": "0x5b88234c8664484efb0ca28f402d07ad598fdf88ea4e0fc4cb7d9752a37565f6",
  "parentHash": "0x29e1aaa8513d76e3dd068a8be1f5d872f16a60d09c8e5e9f3127894e57eba12f",
  "number": 48577,
  "timestamp": 1438959283,
  "nonce": "0xfd5d3f6150abed9c",
  "difficulty": 1467860311144,
  "gasLimit": {
    "_hex": "0x19c95"
  },
  "gasUsed": {
    "_hex": "0xfae0"
  },
  "miner": "0xf8E0CA3Ed80bd541b94BEdCf259e8CF2141A9523",
  "extraData": "0x476574682f76312e302e312f77696e646f77732f676f312e342e32",
  "transactions": [
    {
      "hash": "0x001257424209b807fbc17c84d0e4d63a38c61a8ad758306529d8a6730555cd9d",
      "blockHash": "0x5b88234c8664484efb0ca28f402d07ad598fdf88ea4e0fc4cb7d9752a37565f6",
      "blockNumber": 48577,
      "transactionIndex": 0,
      "confirmations": null,
      "from": "0x7C1dF24A4f7FB2C7b472e0bB006cB27DCd164156",
      "gasPrice": {
        "_hex": "0x110c8f7d8de"
      },
      "gasLimit": {
        "_hex": "0xc350"
      },
      "to": "0x2910543Af39abA0Cd09dBb2D50200b3E800A63D2",
      "value": {
        "_hex": "0x2b5e3af16b1880000"
      },
      "nonce": 0,
      "data": "0x454e44393432555552",
      "r": "0x3e46bb4eb44478387777fe3af38c586bd1163d981cfaa6eb6832b3568c5a3aef",
      "s": "0xbd943a2bd77ea797f987793363ba467ff16feb4728302e907d28ccc72a7e1b06",
      "v": 27,
      "creates": null,
      "raw": "0xf87780860110c8f7d8de82c350942910543af39aba0cd09dbb2d50200b3e800a63d28902b5e3af16b188000089454e443934325555521ba03e46bb4eb44478387777fe3af38c586bd1163d981cfaa6eb6832b3568c5a3aefa0bd943a2bd77ea797f987793363ba467ff16feb4728302e907d28ccc72a7e1b06",
      "networkId": 0,
      "chainId": 0
    },
    {
      "hash": "0xe5068cf740e72eed277d827cf3dbed04369cf5b0118a03c1a364356833ddcf20",
      "blockHash": "0x5b88234c8664484efb0ca28f402d07ad598fdf88ea4e0fc4cb7d9752a37565f6",
      "blockNumber": 48577,
      "transactionIndex": 1,
      "confirmations": null,
      "from": "0x9C9F89a3910F6A2AE8a91047A17Ab788bDdEC170",
      "gasPrice": {
        "_hex": "0x110c8f7d8de"
      },
      "gasLimit": {
        "_hex": "0xc350"
      },
      "to": "0x2910543Af39abA0Cd09dBb2D50200b3E800A63D2",
      "value": {
        "_hex": "0x10f0cf064dd59200000"
      },
      "nonce": 1,
      "data": "0x454e355255385a4730",
      "r": "0x69ff5d638231c4993338aa15368389b62f75dddd33cb33ecea73e5e5a198d6ae",
      "s": "0x080de78e40e0dbfbcbcf05933b7d9f97a8cc02361fdffca04ea087eab0e803bb",
      "v": 28,
      "creates": null,
      "raw": "0xf87801860110c8f7d8de82c350942910543af39aba0cd09dbb2d50200b3e800a63d28a010f0cf064dd5920000089454e355255385a47301ca069ff5d638231c4993338aa15368389b62f75dddd33cb33ecea73e5e5a198d6aea0080de78e40e0dbfbcbcf05933b7d9f97a8cc02361fdffca04ea087eab0e803bb",
      "networkId": 0,
      "chainId": 0
    },
    {
      "hash": "0x7f9b9db3e1263c116b265156a1264d09a35b746b877d16a9833553972a2cf6ee",
      "blockHash": "0x5b88234c8664484efb0ca28f402d07ad598fdf88ea4e0fc4cb7d9752a37565f6",
      "blockNumber": 48577,
      "transactionIndex": 2,
      "confirmations": null,
      "from": "0x0B12c5618eB8bfc23b8893780f1100D1B668639A",
      "gasPrice": {
        "_hex": "0xba43b7400"
      },
      "gasLimit": {
        "_hex": "0x5208"
      },
      "to": "0x933B648f5eaa5E0a05f6fF1E3947460bE264F7e2",
      "value": {
        "_hex": "0x1043561a8829300000"
      },
      "nonce": 2,
      "data": "0x",
      "r": "0x76fe4775694018414c498cc50b944babb1a631fc4b5bd8adcf16a93a01d0af77",
      "s": "0x410dd83de9f335e50393efc0f6b7fbbb1bfe5d393078cda16356c56b42842755",
      "v": 27,
      "creates": null,
      "raw": "0xf86d02850ba43b740082520894933b648f5eaa5e0a05f6ff1e3947460be264f7e2891043561a8829300000801ba076fe4775694018414c498cc50b944babb1a631fc4b5bd8adcf16a93a01d0af77a0410dd83de9f335e50393efc0f6b7fbbb1bfe5d393078cda16356c56b42842755",
      "networkId": 0,
      "chainId": 0
    }
  ]
}