{
  "hash": "0xa01a3de44cc36e6df599b0d51c3f10d39179ccfb1618992188c1e44763b43b1a",
  "parentHash": "0x94132ef93b21bfd07ca35cebf6b72a4239996e8de1ba557efc3a3c86145948c0",
  "number": 92480,
  "timestamp": 1439672730,
  "nonce": "0x88f7e790d195d7f3",
  "difficulty": 3521698096351,
  "gasLimit": {
    "_hex": "0x2fefd8"
  },
  "gasUsed": {
    "_hex": "0x546c"
  },
  "miner": "0xbb7B8287f3F0a933474a79eAe42CBCa977791171",
  "extraData": "0x476574682f4c5649562f76312e302e312f6c696e75782f676f312e342e32",
  "transactions": [
    {
      "hash": "0x2f8b14f6cfbb17ff399a194f9df1bff65c16b8156d339cca832b485c4819ad8f",
      "blockHash": "0xa01a3de44cc36e6df599b0d51c3f10d39179ccfb1618992188c1e44763b43b1a",
      "blockNumber": 92480,
      "transactionIndex": 0,
      "confirmations": null,
      "from": "0x123843545FB525C8E134c9A5F15ADA6865cc3848",
      "gasPrice": {
        "_hex": "0xd30cb92df"
      },
      "gasLimit": {
        "_hex": "0x7530"
      },
      "to": "0x2910543Af39abA0Cd09dBb2D50200b3E800A63D2",
      "value": {
        "_hex": "0xffdf28905e43c0000"
      },
      "nonce": 11,
      "data": "0x454e3651304d384252",
      "r": "0xf144006f9316dabc874aa1f8bad236f4228e9c49cc28858dddfdc9713962bfdd",
      "s": "0x0ffaa9d89d018f148b10c135de701941060db003333c2307bce535d2ce8df640",
      "v": 28,
      "creates": null,
      "raw": "0xf8760b850d30cb92df827530942910543af39aba0cd09dbb2d50200b3e800a63d2890ffdf28905e43c000089454e3651304d3842521ca0f144006f9316dabc874aa1f8bad236f4228e9c49cc28858dddfdc9713962bfdda00ffaa9d89d018f148b10c135de701941060db003333c2307bce535d2ce8df640",
      "networkId": 0,
      "chainId": 0
    }
  ]
}