{
  "hash": "0xe021fe513aa27cedbde2d4721ecb52a2a7ccf7fb7505a56b66a47bcd07fabc33",
  "parentHash": "0x599a259a04fc39de68645ce65f84aac9e276c9b190cc362f75e8fae76485f0d6",
  "number": 88104,
  "timestamp": 1439602699,
  "nonce": "0xabeb8230f9e67404",
  "difficulty": 3198830428121,
  "gasLimit": {
    "_hex": "0x2fefd8"
  },
  "gasUsed": {
    "_hex": "0x89da"
  },
  "miner": "0xe6A7a1d47ff21B6321162AEA7C6CB457D5476Bca",
  "extraData": "0x476574682f76312e302e312d38326566323666362f6c696e75782f676f312e34",
  "transactions": [
    {
      "hash": "0xccf920e06ffa82cf11165ff0980e26c3cd25782bc3a66490fdbcff279cb43629",
      "blockHash": "0xe021fe513aa27cedbde2d4721ecb52a2a7ccf7fb7505a56b66a47bcd07fabc33",
      "blockNumber": 88104,
      "transactionIndex": 0,
      "confirmations": null,
      "from": "0xf2Ae859397af92154241eAd0aC7c4ce3bea76E8F",
      "gasPrice": {
        "_hex": "0xd96ab57b1"
      },
      "gasLimit": {
        "_hex": "0x15f90"
      },
      "to": "0x412C794424C331d8794eDf9aa54B4fdaece5F4Fd",
      "value": {
        "_hex": "0x0"
      },
      "nonce": 5,
      "data": "0x90b98a11000000000000000000000000c2b34a73703b5274e7b7ec06f35895ba696bac3f00000000000000000000000000000000000000000000000000000000000003e8",
      "r": "0xfc570a443dd45413f1da6c978f1e4264e8d9b3a0d89a7e0457f9658fb5e61fcf",
      "s": "0x00fbc221c0d9989fad42469062112aa45cbddb1e94b8ec2e64751a9bf15b2fca",
      "v": 27,
      "creates": null,
      "raw": "0xf8a905850d96ab57b183015f9094412c794424c331d8794edf9aa54b4fdaece5f4fd80b84490b98a11000000000000000000000000c2b34a73703b5274e7b7ec06f35895ba696bac3f00000000000000000000000000000000000000000000000000000000000003e81ba0fc570a443dd45413f1da6c978f1e4264e8d9b3a0d89a7e0457f9658fb5e61fcf9ffbc221c0d9989fad42469062112aa45cbddb1e94b8ec2e64751a9bf15b2fca",
      "networkId": 0,
      "chainId": 0
    }
  ]
}