{
  "hash": "0xfa760042d0075c76480e29cb9bf38e4e74f377475288c0b8fd532da309dbc600",
  "parentHash": "0xaf40e0e73b4c0c85ed08aa3018d5620cc82635c20bc9a29a7dff3b4aa9ab94b4",
  "number": 49804,
  "timestamp": 1438979412,
  "nonce": "0xb6de75c90814e76b",
  "difficulty": 1491485767419,
  "gasLimit": {
    "_hex": "0x40276"
  },
  "gasUsed": {
    "_hex": "0xa410"
  },
  "miner": "0xeB1325C8D9d3ea8D74aC11F4B00F1B2367686319",
  "extraData": "0x476574682f76312e302e312f77696e646f77732f676f312e342e32",
  "transactions": [
    {
      "hash": "0x7303ae73d250302ae21b46572580c464559add835813d1f7f514905d5e06c507",
      "blockHash": "0xfa760042d0075c76480e29cb9bf38e4e74f377475288c0b8fd532da309dbc600",
      "blockNumber": 49804,
      "transactionIndex": 0,
      "confirmations": null,
      "from": "0xb5AEf1DE312925438C00d12FCa19C8d8A99e3D1e",
      "gasPrice": {
        "_hex": "0xcb3f56e5b"
      },
      "gasLimit": {
        "_hex": "0x5208"
      },
      "to": "0x32Be343B94f860124dC4fEe278FDCBD38C102D88",
      "value": {
        "_hex": "0x35aafe78b5f3040000"
      },
      "nonce": 1,
      "data": "0x",
      "r": "0xef3a78d37cc95f28d51fc6dea214784bc60a089dc4a35b4f0139fef15e9f417b",
      "s": "0x7b683da605b51f63c29f177f2bdaaabcf86e0ba4336615d91385a58dd404d496",
      "v": 27,
      "creates": null,
      "raw": "0xf86d01850cb3f56e5b8252089432be343b94f860124dc4fee278fdcbd38c102d888935aafe78b5f3040000801ba0ef3a78d37cc95f28d51fc6dea214784bc60a089dc4a35b4f0139fef15e9f417ba07b683da605b51f63c29f177f2bdaaabcf86e0ba4336615d91385a58dd404d496",
      "networkId": 0,
      "chainId": 0
    },
    {
      "hash": "0x10bbfa28d6e8c77b0ca0e84308b8c42c990f88182cced6cac9156c11ae7e8fa3",
      "blockHash": "0xfa760042d0075c76480e29cb9bf38e4e74f377475288c0b8fd532da309dbc600",
      "blockNumber": 49804,
      "transactionIndex": 1,
      "confirmations": null,
      "from": "0x42e16B3732ae6f3e38AeE7546f36149C9eCB8F26",
      "gasPrice": {
        "_hex": "0xcb3f56e5b"
      },
      "gasLimit": {
        "_hex": "0x5208"
      },
      "to": "0x32Be343B94f860124dC4fEe278FDCBD38C102D88",
      "value": {
        "_hex": "0x299e120f94778800"
      },
      "nonce": 0,
      "data": "0x",
      "r": "0x33200f38508a58adf443266d075e3a839d7e5c9562f5aaf20ebdb2dd1ca53fc8",
      "s": "0x43c776547f519cd7918a645439251c1f3f064ba4a64155064f853d17572e572b",
      "v": 28,
      "creates": null,
      "raw": "0xf86c80850cb3f56e5b8252089432be343b94f860124dc4fee278fdcbd38c102d8888299e120f94778800801ca033200f38508a58adf443266d075e3a839d7e5c9562f5aaf20ebdb2dd1ca53fc8a043c776547f519cd7918a645439251c1f3f064ba4a64155064f853d17572e572b",
      "networkId": 0,
      "chainId": 0
    }
  ]
}