{
  "hash": "0x8fa31667d058fbf5425696b9cdcfd02f46e500c42670ca18f58abc075615f125",
  "parentHash": "0xa80cc3b7940bd0ba931e44cf392d9582ef072d3993be7cb0d540b29efa4efeaf",
  "number": 107613,
  "timestamp": 1439925628,
  "nonce": "0x903d08096f59bf34",
  "difficulty": 4381337985267,
  "gasLimit": {
    "_hex": "0x2fefd8"
  },
  "gasUsed": {
    "_hex": "0x14820"
  },
  "miner": "0x21344BC13b25b709ec441c39C070d1eca5824cA3",
  "extraData": "0x",
  "transactions": [
    {
      "hash": "0xbd56c36d7619a125639c3793fa7d29350fb324ddfbcfb6d6e559543086fe94e9",
      "blockHash": "0x8fa31667d058fbf5425696b9cdcfd02f46e500c42670ca18f58abc075615f125",
      "blockNumber": 107613,
      "transactionIndex": 0,
      "confirmations": null,
      "from": "0x8Ab68e66cBE9f38Ad5C330a6B888DbC73788254A",
      "gasPrice": {
        "_hex": "0x104c533c00"
      },
      "gasLimit": {
        "_hex": "0x5208"
      },
      "to": "0xE95d7Fd32296221C64Dd0049eB7DE3468f365452",
      "value": {
        "_hex": "0x4563918244f40000"
      },
      "nonce": 3,
      "data": "0x",
      "r": "0x3f2c5e8054c8dc8888f774b3e7f8b24b902b9af0f31cc8dbb3ceddde6bbd392f",
      "s": "0x5e8b6dcd4bbd1840a88e4d05baa806076c401064f5848e3fbe818168a3225e9d",
      "v": 27,
      "creates": null,
      "raw": "0xf86c0385104c533c0082520894e95d7fd32296221c64dd0049eb7de3468f365452884563918244f40000801ba03f2c5e8054c8dc8888f774b3e7f8b24b902b9af0f31cc8dbb3ceddde6bbd392fa05e8b6dcd4bbd1840a88e4d05baa806076c401064f5848e3fbe818168a3225e9d",
      "networkId": 0,
      "chainId": 0
    },
    {
      "hash": "0xe24bb42ca6ff9ffdc11d84df751d87732a89d8911994527fa45beb7ad876e66e",
      "blockHash": "0x8fa31667d058fbf5425696b9cdcfd02f46e500c42670ca18f58abc075615f125",
      "blockNumber": 107613,
      "transactionIndex": 1,
      "confirmations": null,
      "from": "0x9729efC5198d5ed4d98Fa76745093D41d89FB143",
      "gasPrice": {
        "_hex": "0xdf59a9944"
      },
      "gasLimit": {
        "_hex": "0x5208"
      },
      "to": "0x32Be343B94f860124dC4fEe278FDCBD38C102D88",
      "value": {
        "_hex": "0x8ac2a9e8c9daf800"
      },
      "nonce": 0,
      "data": "0x",
      "r": "0x7051929411df850985222ec1413007e101c4b05699ca59b532702e38a7990fa3",
      "s": "0x5abcb95e484b0279a6f1362313159856e13bc414b47dfa64abba1cc45cb364a2",
      "v": 28,
      "creates": null,
      "raw": "0xf86c80850df59a99448252089432be343b94f860124dc4fee278fdcbd38c102d88888ac2a9e8c9daf800801ca07051929411df850985222ec1413007e101c4b05699ca59b532702e38a7990fa3a05abcb95e484b0279a6f1362313159856e13bc414b47dfa64abba1cc45cb364a2",
      "networkId": 0,
      "chainId": 0
    },
    {
      "hash": "0xa6b4101b73d640de76026cc45723217aa4fd4ec4231e17a18b64eefce31b4284",
      "blockHash": "0x8fa31667d058fbf5425696b9cdcfd02f46e500c42670ca18f58abc075615f125",
      "blockNumber": 107613,
      "transactionIndex": 2,
      "confirmations": null,
      "from": "0x64aF60Be7c74AE1D077e7F350114a5098D179b4a",
      "gasPrice": {
        "_hex": "0xdf59a9944"
      },
      "gasLimit": {
        "_hex": "0x5208"
      },
      "to": "0x32Be343B94f860124dC4fEe278FDCBD38C102D88",
      "value": {
        "_hex": "0x2171c2a978b030000"
      },
      "nonce": 4,
      "data": "0x",
      "r": "0x445348bfdf5302a5194546fff3d4a80fe83760857aeda2ed50a0775c4e62ac20",
      "s": "0x0320a6d29fc1e904a575d128e26dfd66326049dbf199657c189484587b2f623b",
      "v": 28,
      "creates": null,
      "raw": "0xf86d04850df59a99448252089432be343b94f860124dc4fee278fdcbd38c102d888902171c2a978b030000801ca0445348bfdf5302a5194546fff3d4a80fe83760857aeda2ed50a0775c4e62ac20a00320a6d29fc1e904a575d128e26dfd66326049dbf199657c189484587b2f623b",
      "networkId": 0,
      "chainId": 0
    },
    {
      "hash": "0x74db9071f8558933952fb6c577f89190bcebae5e88a5fec23a53d0dc270b7345",
      "blockHash": "0x8fa31667d058fbf5425696b9cdcfd02f46e500c42670ca18f58abc075615f125",
      "blockNumber": 107613,
      "transactionIndex": 3,
      "confirmations": null,
      "from": "0x76899c112A85c5a7d27Ff89f1b97112e900aeEBc",
      "gasPrice": {
        "_hex": "0xba43b7400"
      },
      "gasLimit": {
        "_hex": "0x5208"
      },
      "to": "0xC47Aaa860008be6f65B58c6C6E02a84e666EfE31",
      "value": {
        "_hex": "0xdde4294fd97b6000"
      },
      "nonce": 9,
      "data": "0x",
      "r": "0x593a01c195202742c49eab00465f402618027207a3bef4360cc7088b0b9d62bf",
      "s": "0x13f878905c6b136439514c7dbf8bba3bcd7275e834017783177c079498849d47",
      "v": 28,
      "creates": null,
      "raw": "0xf86c09850ba43b740082520894c47aaa860008be6f65b58c6c6e02a84e666efe3188dde4294fd97b6000801ca0593a01c195202742c49eab00465f402618027207a3bef4360cc7088b0b9d62bfa013f878905c6b136439514c7dbf8bba3bcd7275e834017783177c079498849d47",
      "networkId": 0,
      "chainId": 0
    }
  ]
}