{
  "hash": "0xb282123359ec93dc78c5fe3cd9216dcfaf5476fd6dc88f283c21360e1b0eea8b",
  "parentHash": "0xa90b84b7754bbd772f67c31e04dc4c47f60c5ce685217774c7c2fdab7bd7dc07",
  "number": 52532,
  "timestamp": 1439023152,
  "nonce": "0x80998088e8057275",
  "difficulty": 1564082117848,
  "gasLimit": {
    "_hex": "0x15071e"
  },
  "gasUsed": {
    "_hex": "0xf4240"
  },
  "miner": "0x02020D22dCF88f5eDd66B382D7da019F161fB7e3",
  "extraData": "0x",
  "transactions": [
    {
      "hash": "0x7c7945621e6f5f037a666b4f38be83ea8b98fab08888de4e2ebba7c8c50f5e75",
      "blockHash": "0xb282123359ec93dc78c5fe3cd9216dcfaf5476fd6dc88f283c21360e1b0eea8b",
      "blockNumber": 52532,
      "transactionIndex": 0,
      "confirmations": null,
      "from": "0x54dAeb3E8a6BBC797E4aD2b0339f134b186e4637",
      "gasPrice": {
        "_hex": "0xe7d27df17"
      },
      "gasLimit": {
        "_hex": "0x7a120"
      },
      "to": "0xBAA54d6E90c3F4d7Ebec11bD180134C7eD8eBb52",
      "value": {
        "_hex": "0x16345785d8a0000"
      },
      "nonce": 677,
      "data": "0x",
      "r": "0x649a9a1cb75154a2b176688c7e6c6a096d632218d69d27c60417d15da86508ff",
      "s": "0x0dec76fbadd94320068fb5fa3902b3afd941ada932768c80636292b2ff9f38b3",
      "v": 27,
      "creates": null,
      "raw": "0xf86f8202a5850e7d27df178307a12094baa54d6e90c3f4d7ebec11bd180134c7ed8ebb5288016345785d8a0000801ba0649a9a1cb75154a2b176688c7e6c6a096d632218d69d27c60417d15da86508ffa00dec76fbadd94320068fb5fa3902b3afd941ada932768c80636292b2ff9f38b3",
      "networkId": 0,
      "chainId": 0
    },
    {
      "hash": "0xaa11ac18d327d7c4d2039123be71afff6a8e1d7c6f1415f1effa632fdf4e99bd",
      "blockHash": "0xb282123359ec93dc78c5fe3cd9216dcfaf5476fd6dc88f283c21360e1b0eea8b",
      "blockNumber": 52532,
      "transactionIndex": 1,
      "confirmations": null,
      "from": "0x54dAeb3E8a6BBC797E4aD2b0339f134b186e4637",
      "gasPrice": {
        "_hex": "0xe7d27df17"
      },
      "gasLimit": {
        "_hex": "0x7a120"
      },
      "to": "0xBAA54d6E90c3F4d7Ebec11bD180134C7eD8eBb52",
      "value": {
        "_hex": "0x16345785d8a0000"
      },
      "nonce": 678,
      "data": "0x",
      "r": "0xcab8fe0ab01953e8153b17cc8cc124447c574b318e08678e9e8ffdf821945b8a",
      "s": "0x788de009524f4759278a5165b0f88cda42df02520b5073d2aa501deb673ab4a0",
      "v": 28,
      "creates": null,
      "raw": "0xf86f8202a6850e7d27df178307a12094baa54d6e90c3f4d7ebec11bd180134c7ed8ebb5288016345785d8a0000801ca0cab8fe0ab01953e8153b17cc8cc124447c574b318e08678e9e8ffdf821945b8aa0788de009524f4759278a5165b0f88cda42df02520b5073d2aa501deb673ab4a0",
      "networkId": 0,
      "chainId": 0
    }
  ]
}