{
  "hash": "0x0d52c6fc5f936c513fc409ae28fa3e131100c24688713f66b68ef54dc2b6d0f7",
  "parentHash": "0xddf1a4624cba429c6cc9952d42ba112f3d8313534e6458e5ccb9be71c6ea01bc",
  "number": 92820,
  "timestamp": 1439677534,
  "nonce": "0x27d8a06920ea4292",
  "difficulty": 3644001700533,
  "gasLimit": {
    "_hex": "0x2fefd8"
  },
  "gasUsed": {
    "_hex": "0x5208"
  },
  "miner": "0x88D74a59454F6cF3B51ef6b9136AFb6b9D405A88",
  "extraData": "0x476574682f76312e302e312d37666266393930632f6c696e75782f676f312e34",
  "transactions": [
    {
      "hash": "0xb4c6fc19736b1a20326decc28dcaf827e36411b124675e73cf084bde2abedb6c",
      "blockHash": "0x0d52c6fc5f936c513fc409ae28fa3e131100c24688713f66b68ef54dc2b6d0f7",
      "blockNumber": 92820,
      "transactionIndex": 0,
      "confirmations": null,
      "from": "0x5F93ff832774dB5114C55bB4Bf44CCf3B58f903f",
      "gasPrice": {
        "_hex": "0xd0bf722f1"
      },
      "gasLimit": {
        "_hex": "0x15f90"
      },
      "to": "0x569CbF7F5A9c9459BF6353bEb0a7B003Af6BAB1E",
      "value": {
        "_hex": "0x10a5480065878d8c00"
      },
      "nonce": 3,
      "data": "0x",
      "r": "0x8da99c99a539a87dc82d3089fe097f8d39e165b84d96cceffd960e3b37f3e936",
      "s": "0x4c1ce42ab038d817935176c6e6f8dcf15622a95934dbb16bfbfc903588b95e86",
      "v": 27,
      "creates": null,
      "raw": "0xf86e03850d0bf722f183015f9094569cbf7f5a9c9459bf6353beb0a7b003af6bab1e8910a5480065878d8c00801ba08da99c99a539a87dc82d3089fe097f8d39e165b84d96cceffd960e3b37f3e936a04c1ce42ab038d817935176c6e6f8dcf15622a95934dbb16bfbfc903588b95e86",
      "networkId": 0,
      "chainId": 0
    }
  ]
}