{
  "hash": "0x8fb36fbf1c16d5b4f732fa7cc8ae7e1ad3b2ae5908827cc69ca4aa37951a0726",
  "parentHash": "0xd1e2b42cf37b4ba67f466cdc0e1f93ef9f4a1de8f1ea2c7726030da86ecdb92b",
  "number": 73181,
  "timestamp": 1439364459,
  "nonce": "0xf4afc326424c4b76",
  "difficulty": 2218626702327,
  "gasLimit": {
    "_hex": "0x2fefd8"
  },
  "gasUsed": {
    "_hex": "0x5208"
  },
  "miner": "0x9746c7e1ef2bd21FF3997fa467593a89cb852BD0",
  "extraData": "0x476574682f76312e302e312f77696e646f77732f676f312e342e32",
  "transactions": [
    {
      "hash": "0x582dfff737963b1db18b375a940117f9816cbc43ec0f123cd4d5568d7669c3a1",
      "blockHash": "0x8fb36fbf1c16d5b4f732fa7cc8ae7e1ad3b2ae5908827cc69ca4aa37951a0726",
      "blockNumber": 73181,
      "transactionIndex": 0,
      "confirmations": null,
      "from": "0xa70a9a7040d542C632D8e0bE7c5513A8a5Bbc752",
      "gasPrice": {
        "_hex": "0xcdaf8e9ad"
      },
      "gasLimit": {
        "_hex": "0x5208"
      },
      "to": "0x32Be343B94f860124dC4fEe278FDCBD38C102D88",
      "value": {
        "_hex": "0x45ba4841659be800"
      },
      "nonce": 20,
      "data": "0x",
      "r": "0x2c2f93897ca0c57f900021e6d2bae02058c500d8cd8ccd992cd0d0968eb867ed",
      "s": "0x07e858b5abbcc9ae4770894f7b9b0b4d803bd8fe6b2e20049d828c9b06d24c86",
      "v": 28,
      "creates": null,
      "raw": "0xf86c14850cdaf8e9ad8252089432be343b94f860124dc4fee278fdcbd38c102d888845ba4841659be800801ca02c2f93897ca0c57f900021e6d2bae02058c500d8cd8ccd992cd0d0968eb867eda007e858b5abbcc9ae4770894f7b9b0b4d803bd8fe6b2e20049d828c9b06d24c86",
      "networkId": 0,
      "chainId": 0
    }
  ]
}