{
  "hash": "0x7baeb1d6db3d38e48797852116e09b1b2fe2094b8a40c343aba8326d03d04c70",
  "parentHash": "0xd261ed6fcc503612446d3222e16e045ee5deaaa4cd791bd7dd94c5b5dd2f5603",
  "number": 68919,
  "timestamp": 1439295672,
  "nonce": "0x87162c31f85e77e9",
  "difficulty": 2025060526443,
  "gasLimit": {
    "_hex": "0x2fefd8"
  },
  "gasUsed": {
    "_hex": "0x23e38"
  },
  "miner": "0xf8E0CA3Ed80bd541b94BEdCf259e8CF2141A9523",
  "extraData": "0x476574682f76312e302e312f77696e646f77732f676f312e342e32",
  "transactions": [
    {
      "hash": "0x4efd18fcfa6195aaa9ca6883e84cb7b63f97e74d4a057099d7f7821404187133",
      "blockHash": "0x7baeb1d6db3d38e48797852116e09b1b2fe2094b8a40c343aba8326d03d04c70",
      "blockNumber": 68919,
      "transactionIndex": 0,
      "confirmations": null,
      "from": "0xBbB64d6D19aBE60a9Fd2D53C6E22349D8F2c4642",
      "gasPrice": {
        "_hex": "0xba43b7400"
      },
      "gasLimit": {
        "_hex": "0x5208"
      },
      "to": "0x93202ba568504ec7363D17958cB914b129b9bC89",
      "value": {
        "_hex": "0x653580cf6eb000"
      },
      "nonce": 1,
      "data": "0x",
      "r": "0x43d788715ef435b05035b19c1d556cb6d9b451a2ca446fde737df6b5541663a0",
      "s": "0x746aece8de26f0646d2c94a061a62c0f328c51c2c69c15d1ed059f4d05447e7a",
      "v": 27,
      "creates": null,
      "raw": "0xf86b01850ba43b74008252089493202ba568504ec7363d17958cb914b129b9bc8987653580cf6eb000801ba043d788715ef435b05035b19c1d556cb6d9b451a2ca446fde737df6b5541663a0a0746aece8de26f0646d2c94a061a62c0f328c51c2c69c15d1ed059f4d05447e7a",
      "networkId": 0,
      "chainId": 0
    },
    {
      "hash": "0x7c99e6ff26488e23e398049a6e830bd078447e458b6120083b63cf7dbb11448f",
      "blockHash": "0x7baeb1d6db3d38e48797852116e09b1b2fe2094b8a40c343aba8326d03d04c70",
      "blockNumber": 68919,
      "transactionIndex": 1,
      "confirmations": null,
      "from": "0xfbf7EBA1555a250BBF7740FF1703320C7F834c17",
      "gasPrice": {
        "_hex": "0xba43b7400"
      },
      "gasLimit": {
        "_hex": "0x5208"
      },
      "to": "0x126D4cE48Ca26452a713A383bBbD5B53dE1e8308",
      "value": {
        "_hex": "0x653580cf6eb000"
      },
      "nonce": 1,
      "data": "0x",
      "r": "0x43a9baee32897db7481a71ad196390eb0d64f5515fcd5be2a82cf1e11420a134",
      "s": "0x2405eaf2166b958c6a3a525f4f3c77a38295298d33698e0c6054b7261b33497b",
      "v": 28,
      "creates": null,
      "raw": "0xf86b01850ba43b740082520894126d4ce48ca26452a713a383bbbd5b53de1e830887653580cf6eb000801ca043a9baee32897db7481a71ad196390eb0d64f5515fcd5be2a82cf1e11420a134a02405eaf2166b958c6a3a525f4f3c77a38295298d33698e0c6054b7261b33497b",
      "networkId": 0,
      "chainId": 0
    },
    {
      "hash": "0x601cf3d79ad6d0f6d225aabdb389cba46d56f00ebc1fe92032a7b075d810e539",
      "blockHash": "0x7baeb1d6db3d38e48797852116e09b1b2fe2094b8a40c343aba8326d03d04c70",
      "blockNumber": 68919,
      "transactionIndex": 2,
      "confirmations": null,
      "from": "0xc357564165E9e75dA11Ee063fD186Be11F8F581f",
      "gasPrice": {
        "_hex": "0xba43b7400"
      },
      "gasLimit": {
        "_hex": "0x5208"
      },
      "to": "0x8E9de6697Ed209a67491fEEb82C2C79B20E9Ef99",
      "value": {
        "_hex": "0x653580cf6eb000"
      },
      "nonce": 1,
      "data": "0x",
      "r": "0x6ba4591a74541e065777a499bd37a066e3a5ec6426d392516fdbfc7372e29936",
      "s": "0x399a364fd0072423bc3231a39e7ebf62c6bdd90da2ee27c36e7ca3c71cc464ff",
      "v": 28,
      "creates": null,
      "raw": "0xf86b01850ba43b7400825208948e9de6697ed209a67491feeb82c2c79b20e9ef9987653580cf6eb000801ca06ba4591a74541e065777a499bd37a066e3a5ec6426d392516fdbfc7372e29936a0399a364fd0072423bc3231a39e7ebf62c6bdd90da2ee27c36e7ca3c71cc464ff",
      "networkId": 0,
      "chainId": 0
    },
    {
      "hash": "0x28a4f0845882526561825dd1abb6f13565c514fb96f6231f659601d698371e6b",
      "blockHash": "0x7baeb1d6db3d38e48797852116e09b1b2fe2094b8a40c343aba8326d03d04c70",
      "blockNumber": 68919,
      "transactionIndex": 3,
      "confirmations": null,
      "from": "0xe2630676d1f72cbca15690d38D629C0011415B07",
      "gasPrice": {
        "_hex": "0xba43b7400"
      },
      "gasLimit": {
        "_hex": "0x5208"
      },
      "to": "0xad8fDC9eaC427163B759239428B98b964A57b493",
      "value": {
        "_hex": "0x653580cf6eb000"
      },
      "nonce": 1,
      "data": "0x",
      "r": "0x66431bf616a7865f2e4e8b943464bd97ad774704ca5b7a3ec59a95d17bcfbca3",
      "s": "0x61f2987bd7c737fb921d0836b66b54f873ecd537fd8efccc733d59daf6965f32",
      "v": 27,
      "creates": null,
      "raw": "0xf86b01850ba43b740082520894ad8fdc9eac427163b759239428b98b964a57b49387653580cf6eb000801ba066431bf616a7865f2e4e8b943464bd97ad774704ca5b7a3ec59a95d17bcfbca3a061f2987bd7c737fb921d0836b66b54f873ecd537fd8efccc733d59daf6965f32",
      "networkId": 0,
      "chainId": 0
    },
    {
      "hash": "0xb2a38b9dc7cdead31ae0a7fe953847a6bc234266c99341d81dce142e04b7a7c8",
      "blockHash": "0x7baeb1d6db3d38e48797852116e09b1b2fe2094b8a40c343aba8326d03d04c70",
      "blockNumber": 68919,
      "transactionIndex": 4,
      "confirmations": null,
      "from": "0xb18C46a37F3740f1280e4C5406E17db6753c9897",
      "gasPrice": {
        "_hex": "0xba43b7400"
      },
      "gasLimit": {
        "_hex": "0x5208"
      },
      "to": "0x4059abb767EfDbd4dF7B483a64FDB9a8d5199a7C",
      "value": {
        "_hex": "0x653580cf6eb000"
      },
      "nonce": 1,
      "data": "0x",
      "r": "0x3e3df5e502bdc6c5f16a968e48b6af8eaf17f99ae9331d0d663f8288d0dbab53",
      "s": "0x352bb0c2fd395ffdddf6775198e668af5f177cba71511ef3211f80f9a115f00f",
      "v": 28,
      "creates": null,
      "raw": "0xf86b01850ba43b7400825208944059abb767efdbd4df7b483a64fdb9a8d5199a7c87653580cf6eb000801ca03e3df5e502bdc6c5f16a968e48b6af8eaf17f99ae9331d0d663f8288d0dbab53a0352bb0c2fd395ffdddf6775198e668af5f177cba71511ef3211f80f9a115f00f",
      "networkId": 0,
      "chainId": 0
    },
    {
      "hash": "0xa8ab6ec8975a210bd94e5327d8ed0872737a781e3a27ee73f5d62e3199693a8a",
      "blockHash": "0x7baeb1d6db3d38e48797852116e09b1b2fe2094b8a40c343aba8326d03d04c70",
      "blockNumber": 68919,
      "transactionIndex": 5,
      "confirmations": null,
      "from": "0xd3E3ae51Ae2adEe3F17318Fc1562f7E6Be20f357",
      "gasPrice": {
        "_hex": "0xba43b7400"
      },
      "gasLimit": {
        "_hex": "0x5208"
      },
      "to": "0x3a20475110dFB82fa5b765d151Bbe7712D9cA3D8",
      "value": {
        "_hex": "0x653580cf6eb000"
      },
      "nonce": 1,
      "data": "0x",
      "r": "0xbee76da5da45143233235c265b4aea107fbcdd7e300e68b49b668ad557a8daa4",
      "s": "0x61aa8b92741cd49a07c20888951790e435e621e26e04649bd26509ff12aa275c",
      "v": 27,
      "creates": null,
      "raw": "0xf86b01850ba43b7400825208943a20475110dfb82fa5b765d151bbe7712d9ca3d887653580cf6eb000801ba0bee76da5da45143233235c265b4aea107fbcdd7e300e68b49b668ad557a8daa4a061aa8b92741cd49a07c20888951790e435e621e26e04649bd26509ff12aa275c",
      "networkId": 0,
      "chainId": 0
    },
    {
      "hash": "0x4f2ca4bda759746e0769b53eab86c85ffd1e8352c2ed2e14ab2b5c14865b222f",
      "blockHash": "0x7baeb1d6db3d38e48797852116e09b1b2fe2094b8a40c343aba8326d03d04c70",
      "blockNumber": 68919,
      "transactionIndex": 6,
      "confirmations": null,
      "from": "0xa2c923bbe9Fc444d88EEEEeE8199A87BDb8085F7",
      "gasPrice": {
        "_hex": "0xba43b7400"
      },
      "gasLimit": {
        "_hex": "0x5208"
      },
      "to": "0xed5fD31F0a37eb87110653485e9a083968a1d440",
      "value": {
        "_hex": "0x653580cf6eb000"
      },
      "nonce": 1,
      "data": "0x",
      "r": "0x0ee5652357dd23b681718151f0fafc21dd71c90b4889d9c2b453c4e58bbda178",
      "s": "0x135a75869b292492344dcb4fe983fc958eb746737b013c7d7091e9adc74c31dc",
      "v": 28,
      "creates": null,
      "raw": "0xf86b01850ba43b740082520894ed5fd31f0a37eb87110653485e9a083968a1d44087653580cf6eb000801ca00ee5652357dd23b681718151f0fafc21dd71c90b4889d9c2b453c4e58bbda178a0135a75869b292492344dcb4fe983fc958eb746737b013c7d7091e9adc74c31dc",
      "networkId": 0,
      "chainId": 0
    }
  ]
}