{
  "hash": "0xd200b70801519cfa822060332a32a3aa2c6188eec3c9edacb887b7a0a7f6afa7",
  "parentHash": "0x8b9a9fd28f723cc2ef4a32418a975447d82516187623bca2df0216b5da826227",
  "number": 71258,
  "timestamp": 1439333348,
  "nonce": "0x433d54770c1d3c23",
  "difficulty": 2149809766763,
  "gasLimit": {
    "_hex": "0x2fefd8"
  },
  "gasUsed": {
    "_hex": "0x9400"
  },
  "miner": "0x38E8Ac573F0718497B99B698bB6A6D4A25404300",
  "extraData": "0x476574682f76312e302e312f77696e646f77732f676f312e342e32",
  "transactions": [
    {
      "hash": "0x655eaf460450b9cff2cdc05398ddf4ecc7851d30ecf447046911400305428d69",
      "blockHash": "0xd200b70801519cfa822060332a32a3aa2c6188eec3c9edacb887b7a0a7f6afa7",
      "blockNumber": 71258,
      "transactionIndex": 0,
      "confirmations": null,
      "from": "0x17580B766f7453525ca4C6A88b01b50570EA088C",
      "gasPrice": {
        "_hex": "0xd0d6dc8b3"
      },
      "gasLimit": {
        "_hex": "0x61a80"
      },
      "to": "0x5Fe5B7546D1628f7348B023A0393de1FC825A4fD",
      "value": {
        "_hex": "0x1bc16d674ec80000"
      },
      "nonce": 134,
      "data": "0xb595b8b50000000000000000000000000000000000000000000000000000000000000001",
      "r": "0x7585599712d361916054ab098f8968cfeb6c92761068014758609d55ef5a3bfc",
      "s": "0x65192b678fef3cf283661e18bdcdedba54be0ef57bc168a5c537b8520b62af94",
      "v": 27,
      "creates": null,
      "raw": "0xf8928186850d0d6dc8b383061a80945fe5b7546d1628f7348b023a0393de1fc825a4fd881bc16d674ec80000a4b595b8b500000000000000000000000000000000000000000000000000000000000000011ba07585599712d361916054ab098f8968cfeb6c92761068014758609d55ef5a3bfca065192b678fef3cf283661e18bdcdedba54be0ef57bc168a5c537b8520b62af94",
      "networkId": 0,
      "chainId": 0
    }
  ]
}