{
  "hash": "0x2f196ad518bf25f2655d780b0deee3c4598ed52a083d0dc554c67effeda26a09",
  "parentHash": "0xdf54d3ca5b68937368271d1bd09b9a692a7dca71d55ec9de172cfddf430b932b",
  "number": 96833,
  "timestamp": 1439746540,
  "nonce": "0xf76435c5a2a3dd6a",
  "difficulty": 3745054211551,
  "gasLimit": {
    "_hex": "0x2fefd8"
  },
  "gasUsed": {
    "_hex": "0x5208"
  },
  "miner": "0xe6A7a1d47ff21B6321162AEA7C6CB457D5476Bca",
  "extraData": "0x476574682f76312e302e312d38326566323666362f6c696e75782f676f312e34",
  "transactions": [
    {
      "hash": "0xd3bdedb35931dac7bd490f471c52d32b127c699640171f7caf1a6abf28563868",
      "blockHash": "0x2f196ad518bf25f2655d780b0deee3c4598ed52a083d0dc554c67effeda26a09",
      "blockNumber": 96833,
      "transactionIndex": 0,
      "confirmations": null,
      "from": "0x958fEE99162C77a8F022cA318a9Ee0463D2E9390",
      "gasPrice": {
        "_hex": "0xba43b7400"
      },
      "gasLimit": {
        "_hex": "0x5267"
      },
      "to": "0xB4137d028aBB8Dc65A224E4751397d50DdE6c73D",
      "value": {
        "_hex": "0xd02ab486cedc0000"
      },
      "nonce": 0,
      "data": "0x",
      "r": "0xd97912573e6d61a4a85915887e06cd755828875210f0dc04db89c3033f03d7a0",
      "s": "0xfda0ddf85d9efbb16430e27fe5b4dac91697f0c932bd47244ce0099b8cb159a7",
      "v": 27,
      "creates": null,
      "raw": "0xf86c80850ba43b740082526794b4137d028abb8dc65a224e4751397d50dde6c73d88d02ab486cedc0000801ba0d97912573e6d61a4a85915887e06cd755828875210f0dc04db89c3033f03d7a0a0fda0ddf85d9efbb16430e27fe5b4dac91697f0c932bd47244ce0099b8cb159a7",
      "networkId": 0,
      "chainId": 0
    }
  ]
}