{
  "hash": "0x1bb235e27d0499cb1657f30b09a80e82fff26da8b190c30ea1a902dd268f6820",
  "parentHash": "0x89bd60b10af1ff62b59d8ec5bd3be84a7490b8a8ec0b721ac9c9876fe5eeb6e6",
  "number": 50245,
  "timestamp": 1438985988,
  "nonce": "0xc777cdca91b4315f",
  "difficulty": 1515633485318,
  "gasLimit": {
    "_hex": "0x58560"
  },
  "gasUsed": {
    "_hex": "0x1f824"
  },
  "miner": "0x9746c7e1ef2bd21FF3997fa467593a89cb852BD0",
  "extraData": "0x476574682f76312e302e312f77696e646f77732f676f312e342e32",
  "transactions": [
    {
      "hash": "0x88de0b3aeab87b831982fa5d81aad3fcfc0eb55076e59b0b383c8f3d7aabec11",
      "blockHash": "0x1bb235e27d0499cb1657f30b09a80e82fff26da8b190c30ea1a902dd268f6820",
      "blockNumber": 50245,
      "transactionIndex": 0,
      "confirmations": null,
      "from": "0x5e1fBd4E58e2312b3C78d7aAAAfA10bf9C3189E3",
      "gasPrice": {
        "_hex": "0x10c408ace38"
      },
      "gasLimit": {
        "_hex": "0x15f90"
      },
      "to": "0x2910543Af39abA0Cd09dBb2D50200b3E800A63D2",
      "value": {
        "_hex": "0x3635c9adc5dea00000"
      },
      "nonce": 5,
      "data": "0x454e4d515456374252",
      "r": "0xf80b5a84dbebfc75031ed5c21b73e4651f55b2357009814ca8a35216a897c9f3",
      "s": "0x7194d4026d3593d9fb4525c352d42713392f6286151ef0d0ef32ba5f49a1c12f",
      "v": 28,
      "creates": null,
      "raw": "0xf8780586010c408ace3883015f90942910543af39aba0cd09dbb2d50200b3e800a63d2893635c9adc5dea0000089454e4d5154563742521ca0f80b5a84dbebfc75031ed5c21b73e4651f55b2357009814ca8a35216a897c9f3a07194d4026d3593d9fb4525c352d42713392f6286151ef0d0ef32ba5f49a1c12f",
      "networkId": 0,
      "chainId": 0
    },
    {
      "hash": "0xe85e0fd10c7b0aa751d322100f9f5a50551a7adfafa4d264818bd02a28a40f79",
      "blockHash": "0x1bb235e27d0499cb1657f30b09a80e82fff26da8b190c30ea1a902dd268f6820",
      "blockNumber": 50245,
      "transactionIndex": 1,
      "confirmations": null,
      "from": "0x5e1fBd4E58e2312b3C78d7aAAAfA10bf9C3189E3",
      "gasPrice": {
        "_hex": "0x10c408ace38"
      },
      "gasLimit": {
        "_hex": "0x15f90"
      },
      "to": "0x2910543Af39abA0Cd09dBb2D50200b3E800A63D2",
      "value": {
        "_hex": "0x3635c9adc5dea00000"
      },
      "nonce": 6,
      "data": "0x454e4d515456374252",
      "r": "0xc06e6b503044f8e9dcb8bc9268de5183c9db4dae8f0833e3cf8c89984aa82ff1",
      "s": "0x735462d3db218953c8d40aeb1a21bade343870ea4fe1c17ba839f559eabfb927",
      "v": 28,
      "creates": null,
      "raw": "0xf8780686010c408ace3883015f90942910543af39aba0cd09dbb2d50200b3e800a63d2893635c9adc5dea0000089454e4d5154563742521ca0c06e6b503044f8e9dcb8bc9268de5183c9db4dae8f0833e3cf8c89984aa82ff1a0735462d3db218953c8d40aeb1a21bade343870ea4fe1c17ba839f559eabfb927",
      "networkId": 0,
      "chainId": 0
    },
    {
      "hash": "0x664b98d51779164c68818fe41ce578332e28195a381a3ee83e60784fec551976",
      "blockHash": "0x1bb235e27d0499cb1657f30b09a80e82fff26da8b190c30ea1a902dd268f6820",
      "blockNumber": 50245,
      "transactionIndex": 2,
      "confirmations": null,
      "from": "0x5e1fBd4E58e2312b3C78d7aAAAfA10bf9C3189E3",
      "gasPrice": {
        "_hex": "0x10c408ace38"
      },
      "gasLimit": {
        "_hex": "0x15f90"
      },
      "to": "0x2910543Af39abA0Cd09dBb2D50200b3E800A63D2",
      "value": {
        "_hex": "0x3635c9adc5dea00000"
      },
      "nonce": 7,
      "data": "0x454e4d515456374252",
      "r": "0x31407f5ac7a14e9e9cdbc54a756e0b240074c8ee1f36498f532cfa59497838a7",
      "s": "0x539209e9ee12b72a46324181a052b1ff2d32c22d059a3ce5f06255c36487a66f",
      "v": 27,
      "creates": null,
      "raw": "0xf8780786010c408ace3883015f90942910543af39aba0cd09dbb2d50200b3e800a63d2893635c9adc5dea0000089454e4d5154563742521ba031407f5ac7a14e9e9cdbc54a756e0b240074c8ee1f36498f532cfa59497838a7a0539209e9ee12b72a46324181a052b1ff2d32c22d059a3ce5f06255c36487a66f",
      "networkId": 0,
      "chainId": 0
    },
    {
      "hash": "0x6bc7b73407978e803c7b182a9b0740578b0ef7606ab797b1328d124676fb6b82",
      "blockHash": "0x1bb235e27d0499cb1657f30b09a80e82fff26da8b190c30ea1a902dd268f6820",
      "blockNumber": 50245,
      "transactionIndex": 3,
      "confirmations": null,
      "from": "0x5e1fBd4E58e2312b3C78d7aAAAfA10bf9C3189E3",
      "gasPrice": {
        "_hex": "0x10c408ace38"
      },
      "gasLimit": {
        "_hex": "0x15f90"
      },
      "to": "0x2910543Af39abA0Cd09dBb2D50200b3E800A63D2",
      "value": {
        "_hex": "0x3635c9adc5dea00000"
      },
      "nonce": 8,
      "data": "0x454e4d515456374252",
      "r": "0x259e074a0494f4cd9f76f3af409b0fcbeb231ff6b0b8aa5c2499a6b9bc3eaf23",
      "s": "0x5c31e0b08ca62e8ee95a958f63a20d214d475f7c79f1d46b4281685135de8ae6",
      "v": 27,
      "creates": null,
      "raw": "0xf8780886010c408ace3883015f90942910543af39aba0cd09dbb2d50200b3e800a63d2893635c9adc5dea0000089454e4d5154563742521ba0259e074a0494f4cd9f76f3af409b0fcbeb231ff6b0b8aa5c2499a6b9bc3eaf23a05c31e0b08ca62e8ee95a958f63a20d214d475f7c79f1d46b4281685135de8ae6",
      "networkId": 0,
      "chainId": 0
    },
    {
      "hash": "0x8496854f0c706f53c828a2db82bf0c8cc2ba5ceb41cfba660a8cd5938c3eeb6c",
      "blockHash": "0x1bb235e27d0499cb1657f30b09a80e82fff26da8b190c30ea1a902dd268f6820",
      "blockNumber": 50245,
      "transactionIndex": 4,
      "confirmations": null,
      "from": "0x5e1fBd4E58e2312b3C78d7aAAAfA10bf9C3189E3",
      "gasPrice": {
        "_hex": "0x10c408ace38"
      },
      "gasLimit": {
        "_hex": "0x15f90"
      },
      "to": "0x2910543Af39abA0Cd09dBb2D50200b3E800A63D2",
      "value": {
        "_hex": "0x3635c9adc5dea00000"
      },
      "nonce": 9,
      "data": "0x454e4d515456374252",
      "r": "0x87378c3ff57def3b61503c3096b42f09800fbfa34320f14d52d4535759b4cd46",
      "s": "0x2a2f24798d2461220ffa583afa04e001c7b74510bb0bda714bf2ec6cb3c9ea1b",
      "v": 27,
      "creates": null,
      "raw": "0xf8780986010c408ace3883015f90942910543af39aba0cd09dbb2d50200b3e800a63d2893635c9adc5dea0000089454e4d5154563742521ba087378c3ff57def3b61503c3096b42f09800fbfa34320f14d52d4535759b4cd46a02a2f24798d2461220ffa583afa04e001c7b74510bb0bda714bf2ec6cb3c9ea1b",
      "networkId": 0,
      "chainId": 0
    },
    {
      "hash": "0xa6d2482457f18a5b1f443934354870b16182c35f3be9aecb1b91b009f698deed",
      "blockHash": "0x1bb235e27d0499cb1657f30b09a80e82fff26da8b190c30ea1a902dd268f6820",
      "blockNumber": 50245,
      "transactionIndex": 5,
      "confirmations": null,
      "from": "0x795c74a013aA756356187119AE89573C59c63Cb4",
      "gasPrice": {
        "_hex": "0xdbe2c5a3e"
      },
      "gasLimit": {
        "_hex": "0x15f90"
      },
      "to": "0x431f45FF1650D680041a5034211e066e89b7aAdd",
      "value": {
        "_hex": "0x5d423c655aa0000"
      },
      "nonce": 1,
      "data": "0x",
      "r": "0x5b1fd051163cae5bf31467cd96dcc70e8a1f06d32880d0c34a63ec243c0f3da6",
      "s": "0x4ea2a8cc462e2e948e9e171d9114dd7791e1a06ef21a87dcbab44c8678bb12cb",
      "v": 28,
      "creates": null,
      "raw": "0xf86d01850dbe2c5a3e83015f9094431f45ff1650d680041a5034211e066e89b7aadd8805d423c655aa0000801ca05b1fd051163cae5bf31467cd96dcc70e8a1f06d32880d0c34a63ec243c0f3da6a04ea2a8cc462e2e948e9e171d9114dd7791e1a06ef21a87dcbab44c8678bb12cb",
      "networkId": 0,
      "chainId": 0
    }
  ]
}