{
  "hash": "0x9ffed851829e049e0d65510e12015fa9cca384252446ed02dca3f2a9206bf88b",
  "parentHash": "0x4cc2255aaabc166d94c36dff573f5576b118304c094ba83b3229d066ea2c9f22",
  "number": 96790,
  "timestamp": 1439745766,
  "nonce": "0x901412ea66b514f7",
  "difficulty": 3765242667727,
  "gasLimit": {
    "_hex": "0x2fefd8"
  },
  "gasUsed": {
    "_hex": "0x124be"
  },
  "miner": "0xe6A7a1d47ff21B6321162AEA7C6CB457D5476Bca",
  "extraData": "0x476574682f76312e302e312d38326566323666362f6c696e75782f676f312e34",
  "transactions": [
    {
      "hash": "0xb9e57a6297a9002fdab88dfb79a993f354b68759ea77a1e65e496c5b389b94c6",
      "blockHash": "0x9ffed851829e049e0d65510e12015fa9cca384252446ed02dca3f2a9206bf88b",
      "blockNumber": 96790,
      "transactionIndex": 0,
      "confirmations": null,
      "from": "0x06C68F0cb0248D0bFFfFf320d1Df4319B48dd82E",
      "gasPrice": {
        "_hex": "0xdfde45d46"
      },
      "gasLimit": {
        "_hex": "0x15f90"
      },
      "to": "0x37F3D9168942b0BcA3476480969FDA3539C3B949",
      "value": {
        "_hex": "0xde0b6b3a7640000"
      },
      "nonce": 0,
      "data": "0x",
      "r": "0x89756bd33a53139cb46dc3be414d071392b7a955fb4414b1b4d54b7e1ee4d0de",
      "s": "0x4cddfcde8e434d384e8d35449a68e16ca1b52c37452cd4140d69df0f62bb9e16",
      "v": 27,
      "creates": null,
      "raw": "0xf86d80850dfde45d4683015f909437f3d9168942b0bca3476480969fda3539c3b949880de0b6b3a7640000801ba089756bd33a53139cb46dc3be414d071392b7a955fb4414b1b4d54b7e1ee4d0dea04cddfcde8e434d384e8d35449a68e16ca1b52c37452cd4140d69df0f62bb9e16",
      "networkId": 0,
      "chainId": 0
    },
    {
      "hash": "0xffe35e21382b9679ff01d3066a448a355a1c551e44f645ad952271f4e0809cc2",
      "blockHash": "0x9ffed851829e049e0d65510e12015fa9cca384252446ed02dca3f2a9206bf88b",
      "blockNumber": 96790,
      "transactionIndex": 1,
      "confirmations": null,
      "from": "0x06C68F0cb0248D0bFFfFf320d1Df4319B48dd82E",
      "gasPrice": {
        "_hex": "0xdfde45d46"
      },
      "gasLimit": {
        "_hex": "0x15f90"
      },
      "to": "0x37F3D9168942b0BcA3476480969FDA3539C3B949",
      "value": {
        "_hex": "0xde0b6b3a7640000"
      },
      "nonce": 1,
      "data": "0x",
      "r": "0x7c78ffac3a091323cc8c77e2b602b82b7558c53dc33cf985ecf13d4d6d5f6594",
      "s": "0x447f9fe1fb3a1acc27864ac098cb2ec169e00727222434242cb67c46d00cfde6",
      "v": 28,
      "creates": null,
      "raw": "0xf86d01850dfde45d4683015f909437f3d9168942b0bca3476480969fda3539c3b949880de0b6b3a7640000801ca07c78ffac3a091323cc8c77e2b602b82b7558c53dc33cf985ecf13d4d6d5f6594a0447f9fe1fb3a1acc27864ac098cb2ec169e00727222434242cb67c46d00cfde6",
      "networkId": 0,
      "chainId": 0
    },
    {
      "hash": "0x36e9c27627295147aca4096a7a9cf67af184703d4e3faacee4b1da1a44f0ba47",
      "blockHash": "0x9ffed851829e049e0d65510e12015fa9cca384252446ed02dca3f2a9206bf88b",
      "blockNumber": 96790,
      "transactionIndex": 2,
      "confirmations": null,
      "from": "0xFBb1b73C4f0BDa4f67dcA266ce6Ef42f520fBB98",
      "gasPrice": {
        "_hex": "0xdb68d0145"
      },
      "gasLimit": {
        "_hex": "0x15f90"
      },
      "to": "0xCAc7000C7dBaa2E33Af15325AF5D435E011C7BdD",
      "value": {
        "_hex": "0x0"
      },
      "nonce": 71,
      "data": "0x3feb1bd84249545452455830300000000000000000000000000000000000000000000000000000000000000000000000725f637bf6266b62d8a4b8f9ec4e6e346d34998d00000000000000000000000000000000000000000000000ce8e65811eeb6d800",
      "r": "0x1a5068608590a520d1d641c0877fd9f864eea0752f0b57752129687826fb5e05",
      "s": "0x6b7ff84ab0be6bdfb5a72a5adb6d66be391ccb37a8944cf0286f08a4759184ce",
      "v": 27,
      "creates": null,
      "raw": "0xf8ca47850db68d014583015f9094cac7000c7dbaa2e33af15325af5d435e011c7bdd80b8643feb1bd84249545452455830300000000000000000000000000000000000000000000000000000000000000000000000725f637bf6266b62d8a4b8f9ec4e6e346d34998d00000000000000000000000000000000000000000000000ce8e65811eeb6d8001ba01a5068608590a520d1d641c0877fd9f864eea0752f0b57752129687826fb5e05a06b7ff84ab0be6bdfb5a72a5adb6d66be391ccb37a8944cf0286f08a4759184ce",
      "networkId": 0,
      "chainId": 0
    }
  ]
}