{
  "hash": "0xdabe7b2b481afa8764db0a6499dbebdd3f0c61410cd5ae74228b4447c0be8a4a",
  "parentHash": "0x9f3251dd2f4dfc354398d84abb37a14687ddc6ef7fabe481407339a0eb784eee",
  "number": 101913,
  "timestamp": 1439829961,
  "nonce": "0xb185df32a6fa01a0",
  "difficulty": 3899491412449,
  "gasLimit": {
    "_hex": "0x2fefd8"
  },
  "gasUsed": {
    "_hex": "0x5208"
  },
  "miner": "0xe6A7a1d47ff21B6321162AEA7C6CB457D5476Bca",
  "extraData": "0x476574682f76312e302e312d38326566323666362f6c696e75782f676f312e34",
  "transactions": [
    {
      "hash": "0x089f7b5ea647adc3b742678e4b48f4e78de2d4ebc13bab31639030d6525ea7a8",
      "blockHash": "0xdabe7b2b481afa8764db0a6499dbebdd3f0c61410cd5ae74228b4447c0be8a4a",
      "blockNumber": 101913,
      "transactionIndex": 0,
      "confirmations": null,
      "from": "0xAF17A4ab5d6B10055Fc1eB1BFaCcbDe69B83aF76",
      "gasPrice": {
        "_hex": "0xd48c08917"
      },
      "gasLimit": {
        "_hex": "0x5208"
      },
      "to": "0x32Be343B94f860124dC4fEe278FDCBD38C102D88",
      "value": {
        "_hex": "0x3d94e5ff4abb70000"
      },
      "nonce": 3,
      "data": "0x",
      "r": "0x1ce8ac371479cce4948d63ff3a2494967c6e92b940c9327278cca90a272da15d",
      "s": "0x6c6af2a60a79b5cfb3ce0bc49c9d9987586ca4912ea2d517b0582ec9f77f2c39",
      "v": 28,
      "creates": null,
      "raw": "0xf86d03850d48c089178252089432be343b94f860124dc4fee278fdcbd38c102d888903d94e5ff4abb70000801ca01ce8ac371479cce4948d63ff3a2494967c6e92b940c9327278cca90a272da15da06c6af2a60a79b5cfb3ce0bc49c9d9987586ca4912ea2d517b0582ec9f77f2c39",
      "networkId": 0,
      "chainId": 0
    }
  ]
}