{
  "hash": "0x650ec59d844817aff623efdc7a976e2f7005b17035e5ac5e7025747fbc4091ad",
  "parentHash": "0x23ee2f4a420e1ce4beb6d5902fafa232c0d5718146e53a31b179c86949191b85",
  "number": 64999,
  "timestamp": 1439229736,
  "nonce": "0x5f7c213366edf1ef",
  "difficulty": 1912573463224,
  "gasLimit": {
    "_hex": "0x2fefd8"
  },
  "gasUsed": {
    "_hex": "0x1cee0"
  },
  "miner": "0xf927a40C8B7F6E07c5af7FA2155B4864a4112B13",
  "extraData": "0x",
  "transactions": [
    {
      "hash": "0xa047af96f2342ff7bc1a061b6d83a9f00af0c7986bb24924391bf0e83de22f85",
      "blockHash": "0x650ec59d844817aff623efdc7a976e2f7005b17035e5ac5e7025747fbc4091ad",
      "blockNumber": 64999,
      "transactionIndex": 0,
      "confirmations": null,
      "from": "0x32Be343B94f860124dC4fEe278FDCBD38C102D88",
      "gasPrice": {
        "_hex": "0xcc4b7799e"
      },
      "gasLimit": {
        "_hex": "0x5208"
      },
      "to": "0x7ceE0020B379cA6AB79a6821639aF44BB82aCfA8",
      "value": {
        "_hex": "0x228e41ceb2b90000"
      },
      "nonce": 183,
      "data": "0x",
      "r": "0x17df68759908a29963562bad89a8b5aa84d7f65fd9b1f044b1d38cdfaefdbb9e",
      "s": "0x2365f8c366a66ec90846939f660afa0b548d82427f53b0ef8ec2644161bbd5e3",
      "v": 28,
      "creates": null,
      "raw": "0xf86d81b7850cc4b7799e825208947cee0020b379ca6ab79a6821639af44bb82acfa888228e41ceb2b90000801ca017df68759908a29963562bad89a8b5aa84d7f65fd9b1f044b1d38cdfaefdbb9ea02365f8c366a66ec90846939f660afa0b548d82427f53b0ef8ec2644161bbd5e3",
      "networkId": 0,
      "chainId": 0
    },
    {
      "hash": "0x49be91905241a1bac6e9cfd2568be07aa4c2c13aec5c2ce4f63f27068a5836b1",
      "blockHash": "0x650ec59d844817aff623efdc7a976e2f7005b17035e5ac5e7025747fbc4091ad",
      "blockNumber": 64999,
      "transactionIndex": 1,
      "confirmations": null,
      "from": "0x4163Ca0F6729dAD2aFBAc763c1685c7e289478a5",
      "gasPrice": {
        "_hex": "0xba43b7400"
      },
      "gasLimit": {
        "_hex": "0x15f90"
      },
      "to": "0x793AE8C1b1a160BFc07BFB0d04F85eab1A71F4f2",
      "value": {
        "_hex": "0x0"
      },
      "nonce": 0,
      "data": "0x3ba15036",
      "r": "0x7d7cac0016bd4bd6cf94ba2a4f8912990119bb0f103075b01f4ae85a21583fb6",
      "s": "0x586951e978fb563ddc2219912bf9fe3c84f6bb75cd0f66f5633643ee5a4566b2",
      "v": 28,
      "creates": null,
      "raw": "0xf86980850ba43b740083015f9094793ae8c1b1a160bfc07bfb0d04f85eab1a71f4f280843ba150361ca07d7cac0016bd4bd6cf94ba2a4f8912990119bb0f103075b01f4ae85a21583fb6a0586951e978fb563ddc2219912bf9fe3c84f6bb75cd0f66f5633643ee5a4566b2",
      "networkId": 0,
      "chainId": 0
    },
    {
      "hash": "0x9acb4b6573444ed7ed12cd8920fdcded1beadacb1872228ce09b34ccfce8e008",
      "blockHash": "0x650ec59d844817aff623efdc7a976e2f7005b17035e5ac5e7025747fbc4091ad",
      "blockNumber": 64999,
      "transactionIndex": 2,
      "confirmations": null,
      "from": "0xfD3eaF3a5d96FC53EF6F85583DDA145aA2eB2107",
      "gasPrice": {
        "_hex": "0xba43b7400"
      },
      "gasLimit": {
        "_hex": "0x15f90"
      },
      "to": "0x793AE8C1b1a160BFc07BFB0d04F85eab1A71F4f2",
      "value": {
        "_hex": "0x0"
      },
      "nonce": 0,
      "data": "0x3ba15036",
      "r": "0xa45243b932097af5362a9083813c921f34c309481bc8a2316e62eb91b0ec85c3",
      "s": "0x786ec76b8bfbb21cd2337931a20c393449f30136203867dbbe98762f25ebe14b",
      "v": 28,
      "creates": null,
      "raw": "0xf86980850ba43b740083015f9094793ae8c1b1a160bfc07bfb0d04f85eab1a71f4f280843ba150361ca0a45243b932097af5362a9083813c921f34c309481bc8a2316e62eb91b0ec85c3a0786ec76b8bfbb21cd2337931a20c393449f30136203867dbbe98762f25ebe14b",
      "networkId": 0,
      "chainId": 0
    }
  ]
}