{
  "hash": "0xd67f785511b78ed1f536e7273b2c9757a88d139762d4b163e33448d01edf5ecf",
  "parentHash": "0x3a99625c09e3802fc102754e1ec04ee0803197a902400cdadd67b0d74bf1a7b6",
  "number": 50553,
  "timestamp": 1438991111,
  "nonce": "0x6f4119e1a1f72f6c",
  "difficulty": 1521509642045,
  "gasLimit": {
    "_hex": "0x69a6b"
  },
  "gasUsed": {
    "_hex": "0x546c"
  },
  "miner": "0x1D889aFF5D57138c9819412d63b5d877567B5936",
  "extraData": "0x476574682f76312e302e312f77696e646f77732f676f312e342e32",
  "transactions": [
    {
      "hash": "0xedd9e7e330641c412c3c50c31018be41efc2d58753ced756bbbbd692924a36a2",
      "blockHash": "0xd67f785511b78ed1f536e7273b2c9757a88d139762d4b163e33448d01edf5ecf",
      "blockNumber": 50553,
      "transactionIndex": 0,
      "confirmations": null,
      "from": "0x67D682a282eF73fB8D6E9071e2614F47ab1d0F5e",
      "gasPrice": {
        "_hex": "0x110c8f7d8de"
      },
      "gasLimit": {
        "_hex": "0xc350"
      },
      "to": "0x2910543Af39abA0Cd09dBb2D50200b3E800A63D2",
      "value": {
        "_hex": "0x337fe5feaf2d180000"
      },
      "nonce": 1,
      "data": "0x454e30335155523130",
      "r": "0x7eed1c73b4714c3a3853fc942dc26ea6161534e46502683cc237c6ee474379a0",
      "s": "0xacc584a2da581a0f29dc9f5fc6593e28ad2f61b6a35de7c1f8b2afcfc6ece830",
      "v": 28,
      "creates": null,
      "raw": "0xf87701860110c8f7d8de82c350942910543af39aba0cd09dbb2d50200b3e800a63d289337fe5feaf2d18000089454e303351555231301ca07eed1c73b4714c3a3853fc942dc26ea6161534e46502683cc237c6ee474379a0a0acc584a2da581a0f29dc9f5fc6593e28ad2f61b6a35de7c1f8b2afcfc6ece830",
      "networkId": 0,
      "chainId": 0
    }
  ]
}