{
  "hash": "0xb61458837b18da12126861e08fd7564b9ab6dc07f8f5215c44f66f865543496c",
  "parentHash": "0x64b16a0d121e811e527d66e3b09e5e8a48bd19999982eb2557716ea484d7567e",
  "number": 50778,
  "timestamp": 1438994335,
  "nonce": "0xcd48be239b108d80",
  "difficulty": 1549206110763,
  "gasLimit": {
    "_hex": "0x77322"
  },
  "gasUsed": {
    "_hex": "0x546c"
  },
  "miner": "0x66c564ACCCfd1470EE32bE2aCaE1696558C18fE1",
  "extraData": "0x476574682f76312e302e312f6c696e75782f676f312e34",
  "transactions": [
    {
      "hash": "0x8c9bd6a536527aa3bacccac348fb374bb216fae930e23ed6375dc2bc2828f584",
      "blockHash": "0xb61458837b18da12126861e08fd7564b9ab6dc07f8f5215c44f66f865543496c",
      "blockNumber": 50778,
      "transactionIndex": 0,
      "confirmations": null,
      "from": "0x05423A54C8D0f9707E704173d923B946edc8E700",
      "gasPrice": {
        "_hex": "0x110c8f7d8de"
      },
      "gasLimit": {
        "_hex": "0xc350"
      },
      "to": "0x2910543Af39abA0Cd09dBb2D50200b3E800A63D2",
      "value": {
        "_hex": "0xde0b6b3a7640000"
      },
      "nonce": 0,
      "data": "0x454e554b5256424338",
      "r": "0x1189124acc5e51afc8786fd96a128bf287c265e946cc9a7f27ee383d1c9b398a",
      "s": "0x715dd87c53a50016354683d33c0f2fc6c4b79de7a2e47747012e313a986e91d4",
      "v": 27,
      "creates": null,
      "raw": "0xf87680860110c8f7d8de82c350942910543af39aba0cd09dbb2d50200b3e800a63d2880de0b6b3a764000089454e554b52564243381ba01189124acc5e51afc8786fd96a128bf287c265e946cc9a7f27ee383d1c9b398aa0715dd87c53a50016354683d33c0f2fc6c4b79de7a2e47747012e313a986e91d4",
      "networkId": 0,
      "chainId": 0
    }
  ]
}