{
  "hash": "0xc44151993b737f5bafd040ae7ed8d8d63d147c9b407be5b87c35c5e9fb2396e3",
  "parentHash": "0xaea4d6a7d2abff4793280b6a969c157992034a126d8a6f531401568408d9bfdc",
  "number": 51510,
  "timestamp": 1439005968,
  "nonce": "0x4c28b1b980c0a9b6",
  "difficulty": 1568862234742,
  "gasLimit": {
    "_hex": "0xb93dd"
  },
  "gasUsed": {
    "_hex": "0x546c"
  },
  "miner": "0xf8E0CA3Ed80bd541b94BEdCf259e8CF2141A9523",
  "extraData": "0x476574682f76312e302e312f77696e646f77732f676f312e342e32",
  "transactions": [
    {
      "hash": "0x592cc46be11243370a95fbd30ea865b222bbf0501f366ce29f5a44e44e0e2c9f",
      "blockHash": "0xc44151993b737f5bafd040ae7ed8d8d63d147c9b407be5b87c35c5e9fb2396e3",
      "blockNumber": 51510,
      "transactionIndex": 0,
      "confirmations": null,
      "from": "0xBe5Cba8D37427986E8ca2600e858bB03c359520f",
      "gasPrice": {
        "_hex": "0x110c8f7d8de"
      },
      "gasLimit": {
        "_hex": "0xc350"
      },
      "to": "0x2910543Af39abA0Cd09dBb2D50200b3E800A63D2",
      "value": {
        "_hex": "0x4563918244f40000"
      },
      "nonce": 2,
      "data": "0x454e35323934393347",
      "r": "0x58be1c8184bca2fe655bf5602d4ef6cdd90039cac1c331454b5a9650e6164433",
      "s": "0x698b644d6e073c8b11b3a5b21f97a8f6e5f210a2d5e79631b5ece50447eefdec",
      "v": 28,
      "creates": null,
      "raw": "0xf87602860110c8f7d8de82c350942910543af39aba0cd09dbb2d50200b3e800a63d2884563918244f4000089454e353239343933471ca058be1c8184bca2fe655bf5602d4ef6cdd90039cac1c331454b5a9650e6164433a0698b644d6e073c8b11b3a5b21f97a8f6e5f210a2d5e79631b5ece50447eefdec",
      "networkId": 0,
      "chainId": 0
    }
  ]
}