{
  "hash": "0xbfe8096ebc09419f6f8a4b4ec3ab0e3167e5817f5f0b16f15ae5dd7abba540d8",
  "parentHash": "0xa81e069c1cf5839725266cb58529ae32ce8d53d3b58f51dff422d513d3fb7fec",
  "number": 69742,
  "timestamp": 1439308977,
  "nonce": "0x12ad136dad129c24",
  "difficulty": 2098338863907,
  "gasLimit": {
    "_hex": "0x2fefd8"
  },
  "gasUsed": {
    "_hex": "0x5208"
  },
  "miner": "0xe6A7a1d47ff21B6321162AEA7C6CB457D5476Bca",
  "extraData": "0x476574682f76312e302e312d38326566323666362f6c696e75782f676f312e34",
  "transactions": [
    {
      "hash": "0x4c3e4160044ce3e8db0f54252219d96069d4b3eab83ccd333e870a8cb73168b2",
      "blockHash": "0xbfe8096ebc09419f6f8a4b4ec3ab0e3167e5817f5f0b16f15ae5dd7abba540d8",
      "blockNumber": 69742,
      "transactionIndex": 0,
      "confirmations": null,
      "from": "0x32Be343B94f860124dC4fEe278FDCBD38C102D88",
      "gasPrice": {
        "_hex": "0xdcfcb7b70"
      },
      "gasLimit": {
        "_hex": "0x5208"
      },
      "to": "0x4BD5f0Ee173C81d42765154865EE69361b6aD189",
      "value": {
        "_hex": "0x56ba3d73af34f0000"
      },
      "nonce": 237,
      "data": "0x",
      "r": "0x0388911845b9e12e42a19474636d15d30ece977d58baf9ed8b366ef27755b347",
      "s": "0x1e7b04e37337392b8239cf01f0355bad965233d55245e5766569a9ed3a1cf0e4",
      "v": 28,
      "creates": null,
      "raw": "0xf86e81ed850dcfcb7b70825208944bd5f0ee173c81d42765154865ee69361b6ad18989056ba3d73af34f0000801ca00388911845b9e12e42a19474636d15d30ece977d58baf9ed8b366ef27755b347a01e7b04e37337392b8239cf01f0355bad965233d55245e5766569a9ed3a1cf0e4",
      "networkId": 0,
      "chainId": 0
    }
  ]
}