{
  "hash": "0xe50782e63ae63450b0fe5fea05025d61642fb3628844c9aeec463b97f1b38782",
  "parentHash": "0x1943b7fcd367e1a022f03707edf50102317327a549339e14dbdd7d20fbb9a667",
  "number": 120114,
  "timestamp": 1440154167,
  "nonce": "0xa36724059797c696",
  "difficulty": 4406973345634,
  "gasLimit": {
    "_hex": "0x2fefd8"
  },
  "gasUsed": {
    "_hex": "0x5208"
  },
  "miner": "0xA1623430350C5df1b52B0b57483A5bb45d1796Da",
  "extraData": "0xd783010002844765746887676f312e342e32856c696e7578",
  "transactions": [
    {
      "hash": "0xcc4788ce88cd8b38d851393f01e558aec28097b62aa1339d3f5b781cad550ae5",
      "blockHash": "0xe50782e63ae63450b0fe5fea05025d61642fb3628844c9aeec463b97f1b38782",
      "blockNumber": 120114,
      "transactionIndex": 0,
      "confirmations": null,
      "from": "0x946812554d1Bf912d0e7AEFC2E5bc4b06F9EfA30",
      "gasPrice": {
        "_hex": "0xba43b7400"
      },
      "gasLimit": {
        "_hex": "0x5208"
      },
      "to": "0x32Be343B94f860124dC4fEe278FDCBD38C102D88",
      "value": {
        "_hex": "0x12a5b9d1e61e26000"
      },
      "nonce": 0,
      "data": "0x",
      "r": "0xa1fd306e5201d2fb3f68e9a78884374df585e357d09c1747816eef5b554aaf39",
      "s": "0x619be3e3a9a9b47763808afcfd687bb069513a5273ee7375b2c96cde06422df4",
      "v": 27,
      "creates": null,
      "raw": "0xf86d80850ba43b74008252089432be343b94f860124dc4fee278fdcbd38c102d8889012a5b9d1e61e26000801ba0a1fd306e5201d2fb3f68e9a78884374df585e357d09c1747816eef5b554aaf39a0619be3e3a9a9b47763808afcfd687bb069513a5273ee7375b2c96cde06422df4",
      "networkId": 0,
      "chainId": 0
    }
  ]
}