{
  "hash": "0xd97512224659427fab6b7849cbbca27bbc39649cc5de4467a4835767e60a4e03",
  "parentHash": "0x24e36f213c22dff776434e4598ba30158886a85a0439aed93500cad2984f3640",
  "number": 120259,
  "timestamp": 1440156948,
  "nonce": "0xa3b283517e6dc1e0",
  "difficulty": 4404745890048,
  "gasLimit": {
    "_hex": "0x2fefd8"
  },
  "gasUsed": {
    "_hex": "0x5208"
  },
  "miner": "0x52bc44d5378309EE2abF1539BF71dE1b7d7bE3b5",
  "extraData": "0xd783010002844765746887676f312e342e32856c696e7578",
  "transactions": [
    {
      "hash": "0x772d9dda16bbee294519205ccae17d8af9e8dc275f650652cd5404c63607b52f",
      "blockHash": "0xd97512224659427fab6b7849cbbca27bbc39649cc5de4467a4835767e60a4e03",
      "blockNumber": 120259,
      "transactionIndex": 0,
      "confirmations": null,
      "from": "0xFBb1b73C4f0BDa4f67dcA266ce6Ef42f520fBB98",
      "gasPrice": {
        "_hex": "0xba43b7400"
      },
      "gasLimit": {
        "_hex": "0x5208"
      },
      "to": "0x534821743405b5522eEEdFf74035729756d0aE8a",
      "value": {
        "_hex": "0x23acb1a76ee70800"
      },
      "nonce": 254,
      "data": "0x",
      "r": "0x1415e0ba8ad4d110b62c9c0da6fad834ac79a4d475de5af28d8b2d261ebb27dd",
      "s": "0x61ea89ca24592e69ef67c6aaf1a833b3744b605878f0cdda1cc93f738d9b7234",
      "v": 27,
      "creates": null,
      "raw": "0xf86d81fe850ba43b740082520894534821743405b5522eeedff74035729756d0ae8a8823acb1a76ee70800801ba01415e0ba8ad4d110b62c9c0da6fad834ac79a4d475de5af28d8b2d261ebb27dda061ea89ca24592e69ef67c6aaf1a833b3744b605878f0cdda1cc93f738d9b7234",
      "networkId": 0,
      "chainId": 0
    }
  ]
}