{
  "hash": "0x5752ab4c23db2c873b7845f21e1b137ff42a4b268acb9496ac80882d94fec934",
  "parentHash": "0xceb4835f807b71f6efe863e3c608aa756245eef347eabc2b33ab48239b63eccd",
  "number": 90259,
  "timestamp": 1439637184,
  "nonce": "0xd958674bab9ec05e",
  "difficulty": 3301135959863,
  "gasLimit": {
    "_hex": "0x2fefd8"
  },
  "gasUsed": {
    "_hex": "0x5208"
  },
  "miner": "0x47ff6576639c2e94762eA5443978D7681C0E78DC",
  "extraData": "0x476574682f76312e302e312f6c696e75782f676f312e342e32",
  "transactions": [
    {
      "hash": "0xa36e154760db245fcf690c8d2098d1755980a7591c842bbb2c85ef583035aed8",
      "blockHash": "0x5752ab4c23db2c873b7845f21e1b137ff42a4b268acb9496ac80882d94fec934",
      "blockNumber": 90259,
      "transactionIndex": 0,
      "confirmations": null,
      "from": "0x5175f107219871c88e0C4202F14A5f34088b54c8",
      "gasPrice": {
        "_hex": "0x746a528800"
      },
      "gasLimit": {
        "_hex": "0x5b04"
      },
      "to": "0x90fba3C13F19F8cf72A3Bb9EE63C8f728F548654",
      "value": {
        "_hex": "0xa25ec002c0120000"
      },
      "nonce": 6,
      "data": "0x",
      "r": "0x5c9855117062600451bd0939e05fa5a0fa411b1f4b7276f19b83d5e62e280923",
      "s": "0xd3fab32e7e80ed526928b6edd2287162fc2d4e4766b6078d8214c118285a882c",
      "v": 28,
      "creates": null,
      "raw": "0xf86c0685746a528800825b049490fba3c13f19f8cf72a3bb9ee63c8f728f54865488a25ec002c0120000801ca05c9855117062600451bd0939e05fa5a0fa411b1f4b7276f19b83d5e62e280923a0d3fab32e7e80ed526928b6edd2287162fc2d4e4766b6078d8214c118285a882c",
      "networkId": 0,
      "chainId": 0
    }
  ]
}