{
  "hash": "0x09c3260519620d856fcb0798e65b220cffbcc6ab4e70a57021ae731af375e763",
  "parentHash": "0xa84fd6f8d0139335cc51bd6ec4d09474221b2687ddc008921677b8c6ce964dcd",
  "number": 48062,
  "timestamp": 1438950698,
  "nonce": "0xc2ef01e3b69ab79d",
  "difficulty": 1460087066286,
  "gasLimit": {
    "_hex": "0x123fa"
  },
  "gasUsed": {
    "_hex": "0x546c"
  },
  "miner": "0xe6A7a1d47ff21B6321162AEA7C6CB457D5476Bca",
  "extraData": "0x657468706f6f6c2e6f7267",
  "transactions": [
    {
      "hash": "0x43b099646c1541b5be68d2f7d0934f96177fc57119deebc54fdd06646bd759a1",
      "blockHash": "0x09c3260519620d856fcb0798e65b220cffbcc6ab4e70a57021ae731af375e763",
      "blockNumber": 48062,
      "transactionIndex": 0,
      "confirmations": null,
      "from": "0x5aC99Ad7816AE9020fF8Adf79fA9869B7Cea6601",
      "gasPrice": {
        "_hex": "0x110c8f7d8de"
      },
      "gasLimit": {
        "_hex": "0xc350"
      },
      "to": "0x2910543Af39abA0Cd09dBb2D50200b3E800A63D2",
      "value": {
        "_hex": "0xde0b6b3a7640000"
      },
      "nonce": 0,
      "data": "0x454e4b594346424447",
      "r": "0x06b30996887206d2ca72684a4fce4d1dc4fdbe674217cac03f3a61f6a7ef5ebb",
      "s": "0x7902850c9120fd23a10fc95675fadd5269a8c6a3668aa291148c3a59ef34e19b",
      "v": 28,
      "creates": null,
      "raw": "0xf87680860110c8f7d8de82c350942910543af39aba0cd09dbb2d50200b3e800a63d2880de0b6b3a764000089454e4b5943464244471ca006b30996887206d2ca72684a4fce4d1dc4fdbe674217cac03f3a61f6a7ef5ebba07902850c9120fd23a10fc95675fadd5269a8c6a3668aa291148c3a59ef34e19b",
      "networkId": 0,
      "chainId": 0
    }
  ]
}