{
  "hash": "0x16c35ffc400a6e64a0923d4cd628441f3d3e4cc7e9b5778efb81d0a2b3754e9a",
  "parentHash": "0xe361c4a23c8850b323d32a4eb883bf1fd9436ce31b4abd882d6b8a1aab55505d",
  "number": 101978,
  "timestamp": 1439830744,
  "nonce": "0xda3f365e3fc45449",
  "difficulty": 3935806173533,
  "gasLimit": {
    "_hex": "0x2fefd8"
  },
  "gasUsed": {
    "_hex": "0x1ec30"
  },
  "miner": "0x6C4163642Fce79F094c50853FEaF94397bDDcd09",
  "extraData": "0x",
  "transactions": [
    {
      "hash": "0x20915a9a7bb66cd573927828fead6d0280b8a12bbcfb53bd9d6e24d46525b711",
      "blockHash": "0x16c35ffc400a6e64a0923d4cd628441f3d3e4cc7e9b5778efb81d0a2b3754e9a",
      "blockNumber": 101978,
      "transactionIndex": 0,
      "confirmations": null,
      "from": "0xC47Aaa860008be6f65B58c6C6E02a84e666EfE31",
      "gasPrice": {
        "_hex": "0xd7bc24445"
      },
      "gasLimit": {
        "_hex": "0x15f90"
      },
      "to": "0xA1E043d54804Ea93a25b88e43919Da40556a2CdD",
      "value": {
        "_hex": "0x155624e79df9280f3"
      },
      "nonce": 45,
      "data": "0x",
      "r": "0x8dc700e8770fe7992821a63a84fa54b6348dcee2c3565a63ac00a60b357ecb0a",
      "s": "0x6593b2b9c835fc420ec99512b4d899e05ff97027d8003a485c66e10709e0c0c5",
      "v": 27,
      "creates": null,
      "raw": "0xf86e2d850d7bc2444583015f9094a1e043d54804ea93a25b88e43919da40556a2cdd890155624e79df9280f3801ba08dc700e8770fe7992821a63a84fa54b6348dcee2c3565a63ac00a60b357ecb0aa06593b2b9c835fc420ec99512b4d899e05ff97027d8003a485c66e10709e0c0c5",
      "networkId": 0,
      "chainId": 0
    },
    {
      "hash": "0x7e7e88b594036590d49cd7111a824e010b17c57997664a8b98706e7c9284c27b",
      "blockHash": "0x16c35ffc400a6e64a0923d4cd628441f3d3e4cc7e9b5778efb81d0a2b3754e9a",
      "blockNumber": 101978,
      "transactionIndex": 1,
      "confirmations": null,
      "from": "0xC47Aaa860008be6f65B58c6C6E02a84e666EfE31",
      "gasPrice": {
        "_hex": "0xd7bc24445"
      },
      "gasLimit": {
        "_hex": "0x15f90"
      },
      "to": "0xBFdD9820a04283b289957956353b5F3C1F665EcF",
      "value": {
        "_hex": "0x45600403a02d7eb2"
      },
      "nonce": 46,
      "data": "0x",
      "r": "0xbce6f39168b94e2e0f97fb3ff45b3141855927eaeb62a5f9aef66e89ea7a4b9f",
      "s": "0x4d3d0ef0c5a8a43d992178c82bcf5bf9ab0bb0cd286a85556b34c049e006a81d",
      "v": 27,
      "creates": null,
      "raw": "0xf86d2e850d7bc2444583015f9094bfdd9820a04283b289957956353b5f3c1f665ecf8845600403a02d7eb2801ba0bce6f39168b94e2e0f97fb3ff45b3141855927eaeb62a5f9aef66e89ea7a4b9fa04d3d0ef0c5a8a43d992178c82bcf5bf9ab0bb0cd286a85556b34c049e006a81d",
      "networkId": 0,
      "chainId": 0
    },
    {
      "hash": "0x8d571ad82ea535a33e44b3f6d1723d4aae7fa23482664a43b83687b7d76fbc37",
      "blockHash": "0x16c35ffc400a6e64a0923d4cd628441f3d3e4cc7e9b5778efb81d0a2b3754e9a",
      "blockNumber": 101978,
      "transactionIndex": 2,
      "confirmations": null,
      "from": "0xC47Aaa860008be6f65B58c6C6E02a84e666EfE31",
      "gasPrice": {
        "_hex": "0xd7bc24445"
      },
      "gasLimit": {
        "_hex": "0x15f90"
      },
      "to": "0xb38AB24aC32E38b484C7108eF61873CE770aE34e",
      "value": {
        "_hex": "0x47576fad5a32935f"
      },
      "nonce": 47,
      "data": "0x",
      "r": "0x650b4461b93a6def2f515c528b01472e0cc8d56e97128e7c575f6bbcf03674e1",
      "s": "0x12df4521c508baf867606193684481d949cbd41c22a96fc3dc64b1669161117f",
      "v": 27,
      "creates": null,
      "raw": "0xf86d2f850d7bc2444583015f9094b38ab24ac32e38b484c7108ef61873ce770ae34e8847576fad5a32935f801ba0650b4461b93a6def2f515c528b01472e0cc8d56e97128e7c575f6bbcf03674e1a012df4521c508baf867606193684481d949cbd41c22a96fc3dc64b1669161117f",
      "networkId": 0,
      "chainId": 0
    },
    {
      "hash": "0x1671664b8e7b5e62d5e40ddb7960e262bc644ff47e73c36174ef59f251c5c08a",
      "blockHash": "0x16c35ffc400a6e64a0923d4cd628441f3d3e4cc7e9b5778efb81d0a2b3754e9a",
      "blockNumber": 101978,
      "transactionIndex": 3,
      "confirmations": null,
      "from": "0xC47Aaa860008be6f65B58c6C6E02a84e666EfE31",
      "gasPrice": {
        "_hex": "0xd7bc24445"
      },
      "gasLimit": {
        "_hex": "0x15f90"
      },
      "to": "0xbD17ef430399DeA108B0ADe7019faB744E721d63",
      "value": {
        "_hex": "0x33f9d2f63350cf7b"
      },
      "nonce": 48,
      "data": "0x",
      "r": "0xae3ba8be3e34a38324e197d9dc1ad910ac09b3b9e7a95edb1088806b55f41d50",
      "s": "0x60f1d0d40634b55d36741c4bf55c5a5b46d89a4bf9391af3cce60186cd4d0419",
      "v": 27,
      "creates": null,
      "raw": "0xf86d30850d7bc2444583015f9094bd17ef430399dea108b0ade7019fab744e721d638833f9d2f63350cf7b801ba0ae3ba8be3e34a38324e197d9dc1ad910ac09b3b9e7a95edb1088806b55f41d50a060f1d0d40634b55d36741c4bf55c5a5b46d89a4bf9391af3cce60186cd4d0419",
      "networkId": 0,
      "chainId": 0
    },
    {
      "hash": "0x366780e3a661d22c5f74d1817858a2a57db0f87306c463998bb6167a6c9c67ca",
      "blockHash": "0x16c35ffc400a6e64a0923d4cd628441f3d3e4cc7e9b5778efb81d0a2b3754e9a",
      "blockNumber": 101978,
      "transactionIndex": 4,
      "confirmations": null,
      "from": "0xC47Aaa860008be6f65B58c6C6E02a84e666EfE31",
      "gasPrice": {
        "_hex": "0xd7bc24445"
      },
      "gasLimit": {
        "_hex": "0x15f90"
      },
      "to": "0x915E19e9d6874Ad050c3D4b88D4eA496dB0Ee7DB",
      "value": {
        "_hex": "0xcf8c2ef9197e1364"
      },
      "nonce": 49,
      "data": "0x",
      "r": "0xccab6084d4522c23700381d4c5ff5a06a205224d886a2d7daf4b4396735ced23",
      "s": "0x60a69733e678ab0a049b7a9fcfab77bf256daf1295d3d20a6f6556189d09021b",
      "v": 27,
      "creates": null,
      "raw": "0xf86d31850d7bc2444583015f9094915e19e9d6874ad050c3d4b88d4ea496db0ee7db88cf8c2ef9197e1364801ba0ccab6084d4522c23700381d4c5ff5a06a205224d886a2d7daf4b4396735ced23a060a69733e678ab0a049b7a9fcfab77bf256daf1295d3d20a6f6556189d09021b",
      "networkId": 0,
      "chainId": 0
    },
    {
      "hash": "0xbe264ddd692ffec34dca0452a5a99482e9afb015fea688b26d91274dc6de01d8",
      "blockHash": "0x16c35ffc400a6e64a0923d4cd628441f3d3e4cc7e9b5778efb81d0a2b3754e9a",
      "blockNumber": 101978,
      "transactionIndex": 5,
      "confirmations": null,
      "from": "0xC47Aaa860008be6f65B58c6C6E02a84e666EfE31",
      "gasPrice": {
        "_hex": "0xd7bc24445"
      },
      "gasLimit": {
        "_hex": "0x15f90"
      },
      "to": "0xCc558b7eF660ED00c2Bd235c60E348b1Fed76242",
      "value": {
        "_hex": "0x1838a64e8af46665c"
      },
      "nonce": 50,
      "data": "0x",
      "r": "0xffd839fd37aab6eedf15718553303c7f3957697bc2826bb9a13aef61c0e8ee59",
      "s": "0x393f77624a398fa79964460784bb6da4fa2083189acb1ed840f5693dca20a423",
      "v": 28,
      "creates": null,
      "raw": "0xf86e32850d7bc2444583015f9094cc558b7ef660ed00c2bd235c60e348b1fed762428901838a64e8af46665c801ca0ffd839fd37aab6eedf15718553303c7f3957697bc2826bb9a13aef61c0e8ee59a0393f77624a398fa79964460784bb6da4fa2083189acb1ed840f5693dca20a423",
      "networkId": 0,
      "chainId": 0
    }
  ]
}