{
  "hash": "0x8aadc934978cf171a01a8361d50a86a00196b2aa95f333f7a0f6b6bc568b43ec",
  "parentHash": "0x347221e7b48956abc1e0c5d433acdc5ab04de6816b016375bec45589d6bec0ae",
  "number": 102241,
  "timestamp": 1439834959,
  "nonce": "0xffee9478f39b078e",
  "difficulty": 3933761528720,
  "gasLimit": {
    "_hex": "0x2fefd8"
  },
  "gasUsed": {
    "_hex": "0x5208"
  },
  "miner": "0xf927a40C8B7F6E07c5af7FA2155B4864a4112B13",
  "extraData": "0x",
  "transactions": [
    {
      "hash": "0x160dd4922c1686499455330b7fed6d3aed0400dfeb8c7f670b81e3b67e5f726c",
      "blockHash": "0x8aadc934978cf171a01a8361d50a86a00196b2aa95f333f7a0f6b6bc568b43ec",
      "blockNumber": 102241,
      "transactionIndex": 0,
      "confirmations": null,
      "from": "0x582aF99327eFa57426B48EFeDb8E78a95F9fe930",
      "gasPrice": {
        "_hex": "0xdee42e283"
      },
      "gasLimit": {
        "_hex": "0x5208"
      },
      "to": "0x0a41Be86378F36BA0823db204723693c0836a3E9",
      "value": {
        "_hex": "0x455f1ac1664ef5e8"
      },
      "nonce": 0,
      "data": "0x",
      "r": "0x5e943f76196598216a79932f0e2e3ec5155115e6ff33501ce81cd0edec3e950b",
      "s": "0x44ba5f18eaae298ed442ce1b282c4d65c42650b7de35a739f4269d708d0a2a20",
      "v": 28,
      "creates": null,
      "raw": "0xf86c80850dee42e283825208940a41be86378f36ba0823db204723693c0836a3e988455f1ac1664ef5e8801ca05e943f76196598216a79932f0e2e3ec5155115e6ff33501ce81cd0edec3e950ba044ba5f18eaae298ed442ce1b282c4d65c42650b7de35a739f4269d708d0a2a20",
      "networkId": 0,
      "chainId": 0
    }
  ]
}