{
  "hash": "0xaa0c3d3089f6815d7b87cecd19a4dc0751acc4fa7fe33c1914e6b6c1933d5a17",
  "parentHash": "0x76a4fe8d92271d2fc5a47fa1502635ad801d066d6b045d4419569430d5b92d76",
  "number": 52216,
  "timestamp": 1439018308,
  "nonce": "0x2069bdc9e3735c14",
  "difficulty": 1548940563988,
  "gasLimit": {
    "_hex": "0x11611b"
  },
  "gasUsed": {
    "_hex": "0x7f328"
  },
  "miner": "0x53824166ea5271d3425e3194c848A90CA4e97eB2",
  "extraData": "0x476574682f76312e302e312f6c696e75782f676f312e342e32",
  "transactions": [
    {
      "hash": "0x2016837805cdc68e36ceda61112bbdb5fb668a0a9da27c3ce29d030d1d1dc8f8",
      "blockHash": "0xaa0c3d3089f6815d7b87cecd19a4dc0751acc4fa7fe33c1914e6b6c1933d5a17",
      "blockNumber": 52216,
      "transactionIndex": 0,
      "confirmations": null,
      "from": "0xAd7F5C601260b460ADAC6A54411Ca6Cf07dC83c3",
      "gasPrice": {
        "_hex": "0xd8364fc25"
      },
      "gasLimit": {
        "_hex": "0x7a120"
      },
      "to": "0x109C4f2CCc82C4d77Bde15F306707320294Aea3F",
      "value": {
        "_hex": "0xde0b6b3a7640000"
      },
      "nonce": 0,
      "data": "0x",
      "r": "0x294a359b9931ffb4523f9e6cd5b363c82696ac2f75aa3a9dd8ae480aca53c06e",
      "s": "0x5cd5bcb39633f4867f0564f28e03efc22ad38a921daeb1add864578fedc9bbbe",
      "v": 27,
      "creates": null,
      "raw": "0xf86d80850d8364fc258307a12094109c4f2ccc82c4d77bde15f306707320294aea3f880de0b6b3a7640000801ba0294a359b9931ffb4523f9e6cd5b363c82696ac2f75aa3a9dd8ae480aca53c06ea05cd5bcb39633f4867f0564f28e03efc22ad38a921daeb1add864578fedc9bbbe",
      "networkId": 0,
      "chainId": 0
    },
    {
      "hash": "0x88756d89b4e98884e57d1bf3e18467a4e68359f24b70d9e85ad45a90c3474363",
      "blockHash": "0xaa0c3d3089f6815d7b87cecd19a4dc0751acc4fa7fe33c1914e6b6c1933d5a17",
      "blockNumber": 52216,
      "transactionIndex": 1,
      "confirmations": null,
      "from": "0x9aB9F7a4B85412bfbe2f4F63b1C98808851C4F32",
      "gasPrice": {
        "_hex": "0xd418bd25d"
      },
      "gasLimit": {
        "_hex": "0x15f90"
      },
      "to": "0xfBC1aB9a735012CF8Aa4f8738c5811CDbF39a0C5",
      "value": {
        "_hex": "0xf4240"
      },
      "nonce": 3,
      "data": "0x",
      "r": "0xd12e3608d1a20e0d9a4a41761d2c8258fd1d1fe7b90fcae6b522443581cd42bd",
      "s": "0x59b9bcb319467ca376f48dbf27fd33838bd40d20ec1f400c8abf2c2792937f4f",
      "v": 28,
      "creates": null,
      "raw": "0xf86803850d418bd25d83015f9094fbc1ab9a735012cf8aa4f8738c5811cdbf39a0c5830f4240801ca0d12e3608d1a20e0d9a4a41761d2c8258fd1d1fe7b90fcae6b522443581cd42bda059b9bcb319467ca376f48dbf27fd33838bd40d20ec1f400c8abf2c2792937f4f",
      "networkId": 0,
      "chainId": 0
    }
  ]
}