{
  "hash": "0x2f43deb9a4d049dbfe12264d77e98e9c5d36d4a088f39f93dbbf195c72751939",
  "parentHash": "0x86a270ce225926c4380cd1777c680c9d4498a540f71566a19532d8a2f45baddc",
  "number": 93523,
  "timestamp": 1439692112,
  "nonce": "0xb2192cdbb8835ef9",
  "difficulty": 3492152016476,
  "gasLimit": {
    "_hex": "0x2fefd8"
  },
  "gasUsed": {
    "_hex": "0x5208"
  },
  "miner": "0x47ff6576639c2e94762eA5443978D7681C0E78DC",
  "extraData": "0x476574682f76312e302e312f6c696e75782f676f312e342e32",
  "transactions": [
    {
      "hash": "0x9d51f55fd13e6a60b2386bb381aa179d031fbf699f9d6dc13e37e3492b5da304",
      "blockHash": "0x2f43deb9a4d049dbfe12264d77e98e9c5d36d4a088f39f93dbbf195c72751939",
      "blockNumber": 93523,
      "transactionIndex": 0,
      "confirmations": null,
      "from": "0x32Be343B94f860124dC4fEe278FDCBD38C102D88",
      "gasPrice": {
        "_hex": "0xcb00e9973"
      },
      "gasLimit": {
        "_hex": "0x5208"
      },
      "to": "0x08a9621620bF88e3619cf62ADd6603b43f42d65C",
      "value": {
        "_hex": "0x1b8fb07a4bed0000"
      },
      "nonce": 924,
      "data": "0x",
      "r": "0x22162493b1016fc19e5e0df8ef196e2e3c69c2581fedec468dc3961e0bb83bab",
      "s": "0x5241351b93d5c59351ce7f5277096db95039dbdce7eff34a9784794a9fd49811",
      "v": 28,
      "creates": null,
      "raw": "0xf86e82039c850cb00e99738252089408a9621620bf88e3619cf62add6603b43f42d65c881b8fb07a4bed0000801ca022162493b1016fc19e5e0df8ef196e2e3c69c2581fedec468dc3961e0bb83baba05241351b93d5c59351ce7f5277096db95039dbdce7eff34a9784794a9fd49811",
      "networkId": 0,
      "chainId": 0
    }
  ]
}