{
  "hash": "0x436a43b6f0c00c2aa798a970980f514ed66b08be55ef0164d8aff62b676bc372",
  "parentHash": "0xf5029c8abeb12ac93b85537e26b208e7d76d03a019e19a7cc7326bf9953d4052",
  "number": 62501,
  "timestamp": 1439189834,
  "nonce": "0xf6279b4be57b7d55",
  "difficulty": 1762469986274,
  "gasLimit": {
    "_hex": "0x2fefd8"
  },
  "gasUsed": {
    "_hex": "0x5208"
  },
  "miner": "0x0037ce3d4B7f8729C8607D8D0248252Be68202c0",
  "extraData": "0x476574682f76312e302e312f77696e646f77732f676f312e342e32",
  "transactions": [
    {
      "hash": "0xdbf52b8e1948ec4da324101ce820eb63b817b818065d66fd5d1d888d77883ea3",
      "blockHash": "0x436a43b6f0c00c2aa798a970980f514ed66b08be55ef0164d8aff62b676bc372",
      "blockNumber": 62501,
      "transactionIndex": 0,
      "confirmations": null,
      "from": "0x2910543Af39abA0Cd09dBb2D50200b3E800A63D2",
      "gasPrice": {
        "_hex": "0xd0ae54e49"
      },
      "gasLimit": {
        "_hex": "0x5208"
      },
      "to": "0xa79A01D4188E29C550c92a762062604681255460",
      "value": {
        "_hex": "0x29ef72b5c47c000"
      },
      "nonce": 113,
      "data": "0x",
      "r": "0x3e33c4e33c7f00179b5c464bc8816fb11702fb185de781fe29986a70ea64eb57",
      "s": "0x2f728ff22248facf300cb062a60bf732ce7bb256303b980e5951aa7d7bb4303d",
      "v": 27,
      "creates": null,
      "raw": "0xf86c71850d0ae54e4982520894a79a01d4188e29c550c92a76206260468125546088029ef72b5c47c000801ba03e33c4e33c7f00179b5c464bc8816fb11702fb185de781fe29986a70ea64eb57a02f728ff22248facf300cb062a60bf732ce7bb256303b980e5951aa7d7bb4303d",
      "networkId": 0,
      "chainId": 0
    }
  ]
}