{
  "hash": "0x19ccbb623eb4a7ea62dfe92f1dd612d965ecd2a85a77c63854d1e048c46d17c1",
  "parentHash": "0xe59591899a6c08f6d12f397d744bf27cd06c81c9591529d18a309cd811a77f66",
  "number": 120635,
  "timestamp": 1440163396,
  "nonce": "0x3b977a2914d87f13",
  "difficulty": 4421787378515,
  "gasLimit": {
    "_hex": "0x2fefd8"
  },
  "gasUsed": {
    "_hex": "0x71889"
  },
  "miner": "0xe6A7a1d47ff21B6321162AEA7C6CB457D5476Bca",
  "extraData": "0xd783010002844765746887676f312e342e32856c696e7578",
  "transactions": [
    {
      "hash": "0x8244dcfa391eb9ced80573f6392b9d143161479d9f6833c4df491de794e2a6d9",
      "blockHash": "0x19ccbb623eb4a7ea62dfe92f1dd612d965ecd2a85a77c63854d1e048c46d17c1",
      "blockNumber": 120635,
      "transactionIndex": 0,
      "confirmations": null,
      "from": "0x608f4b86321a68453f9adf6F06F7Fc3E621739ad",
      "gasPrice": {
        "_hex": "0xba43b7400"
      },
      "gasLimit": {
        "_hex": "0x5208"
      },
      "to": "0x32Be343B94f860124dC4fEe278FDCBD38C102D88",
      "value": {
        "_hex": "0x8adbe109f41a3000"
      },
      "nonce": 74,
      "data": "0x",
      "r": "0x73e8da09eed9b6e3a115c6fd5ff760e88871a1c0c948383144baf95a78eb70d2",
      "s": "0x59478c55c5221768f4ae97b0e85eee1b3986398dbf2e6f73b37e9bbf316efabc",
      "v": 28,
      "creates": null,
      "raw": "0xf86c4a850ba43b74008252089432be343b94f860124dc4fee278fdcbd38c102d88888adbe109f41a3000801ca073e8da09eed9b6e3a115c6fd5ff760e88871a1c0c948383144baf95a78eb70d2a059478c55c5221768f4ae97b0e85eee1b3986398dbf2e6f73b37e9bbf316efabc",
      "networkId": 0,
      "chainId": 0
    },
    {
      "hash": "0x8b6957ff588e741d8eab08af24ecbf52f72517ab368ac1924d6de0746432f9ac",
      "blockHash": "0x19ccbb623eb4a7ea62dfe92f1dd612d965ecd2a85a77c63854d1e048c46d17c1",
      "blockNumber": 120635,
      "transactionIndex": 1,
      "confirmations": null,
      "from": "0xa70a9a7040d542C632D8e0bE7c5513A8a5Bbc752",
      "gasPrice": {
        "_hex": "0xba43b7400"
      },
      "gasLimit": {
        "_hex": "0x5208"
      },
      "to": "0x32Be343B94f860124dC4fEe278FDCBD38C102D88",
      "value": {
        "_hex": "0x4563f1967fa09000"
      },
      "nonce": 328,
      "data": "0x",
      "r": "0x9370d484ea4c71ec3fea35945a3559e517f2eb1c3de94c90db38b2771e0ad803",
      "s": "0x44908710c9e80d13ffe6133a8efa6faf4c253f3d7510a5621fc1d65f42926b42",
      "v": 27,
      "creates": null,
      "raw": "0xf86e820148850ba43b74008252089432be343b94f860124dc4fee278fdcbd38c102d88884563f1967fa09000801ba09370d484ea4c71ec3fea35945a3559e517f2eb1c3de94c90db38b2771e0ad803a044908710c9e80d13ffe6133a8efa6faf4c253f3d7510a5621fc1d65f42926b42",
      "networkId": 0,
      "chainId": 0
    },
    {
      "hash": "0xeb4c111038c8da495bb0307dfd1881002637a66aa8cd4579a54c263961204ae5",
      "blockHash": "0x19ccbb623eb4a7ea62dfe92f1dd612d965ecd2a85a77c63854d1e048c46d17c1",
      "blockNumber": 120635,
      "transactionIndex": 2,
      "confirmations": null,
      "from": "0xD007C3Ce0bFCFE50559e15a3737C236f8Fa15BbE",
      "gasPrice": {
        "_hex": "0xba43b7400"
      },
      "gasLimit": {
        "_hex": "0xf4240"
      },
      "to": null,
      "value": {
        "_hex": "0x0"
      },
      "nonce": 6,
      "data": "0x606060405273beb3b1d443791e4b2207a9866800e02dacf19c02600160006101000a81548173ffffffffffffffffffffffffffffffffffffffff0219169083021790555060405161050a38038061050a8339016040526060805160600190602001805190602001505b5b33600060006101000a81548173ffffffffffffffffffffffffffffffffffffffff021916908302179055505b6040604051908101604052803381526020018281526020015060036000506000600260005054815260200190815260200160002060005060008201518160000160006101000a81548173ffffffffffffffffffffffffffffffffffffffff021916908302179055506020820151816001016000505590505060026000818150548092919060010191905055505b50506103d7806101336000396000f30060606040526000357c01000000000000000000000000000000000000000000000000000000009004806309e2d1a61461004f5780631a3cd59a1461007057806341c0e1b5146101065761004d565b005b61005a6004506101a7565b6040518082815260200191505060405180910390f35b6100816004803590602001506101b7565b6040518080602001806020018381038352858181518152602001915080519060200190602002808383829060006004602084601f0104600302600f01f1509050018381038252848181518152602001915080519060200190602002808383829060006004602084601f0104600302600f01f15090500194505050505060405180910390f35b610111600450610113565b005b600060009054906101000a900473ffffffffffffffffffffffffffffffffffffffff1673ffffffffffffffffffffffffffffffffffffffff163373ffffffffffffffffffffffffffffffffffffffff1614156101a457600060009054906101000a900473ffffffffffffffffffffffffffffffffffffffff1673ffffffffffffffffffffffffffffffffffffffff16ff5b5b565b6000600260005054905080505b90565b60206040519081016040528060008152602001506020604051908101604052806000815260200150600060006000600060188714156101f557610239565b600187141561020357610238565b600787141561021157610237565b600c87141561021f57610236565b61016d87141561022e57610235565b6018965086505b5b5b5b5b600091505b6002600050548260ff16101561030257600360005060008360ff16815260200190815260200160002060005090508060000160009054906101000a900473ffffffffffffffffffffffffffffffffffffffff168483815481101561000257906000526020600020900160006101000a81548173ffffffffffffffffffffffffffffffffffffffff02191690830217905550806001016000505483838154811015610002579060005260206000209001600050819055505b818060010192505061023e565b8380548060200260200160405190810160405280929190818152602001828054801561036d57602002820191906000526020600020905b8160009054906101000a900473ffffffffffffffffffffffffffffffffffffffff1681526020019060010190808311610339575b505050505095508550828054806020026020016040519081016040528092919081815260200182805480156103c457602002820191906000526020600020905b8160005054815260200190600101908083116103ad575b5050505050945084505b5050505091509156000000000000000000000000000000000000000000000000000000000000004000000000000000000000000000000000000000000000000000005af3107a40000000000000000000000000000000000000000000000000000000000000000006000000000000000000000000000000000000000000000000000000000000000100000000000000000000000000000000000000000000000000000000000000020000000000000000000000000000000000000000000000000000000000000003000000000000000000000000000000000000000000000000000000000000000400000000000000000000000000000000000000000000000000000000000000050000000000000000000000000000000000000000000000000000000000000006",
      "r": "0xe2d337b6c4afcf2a970c79b604bbfd91b59971cfa56288fe6acea5790a075d39",
      "s": "0x75ce36fa794f71717e59eee53022ab5c30ccebaef16f7e5437994f9568672189",
      "v": 27,
      "creates": "0xDca13a5c7Dd58d3690214586c5096958ba240238",
      "raw": "0xf9067d06850ba43b7400830f42408080b9062a606060405273beb3b1d443791e4b2207a9866800e02dacf19c02600160006101000a81548173ffffffffffffffffffffffffffffffffffffffff0219169083021790555060405161050a38038061050a8339016040526060805160600190602001805190602001505b5b33600060006101000a81548173ffffffffffffffffffffffffffffffffffffffff021916908302179055505b6040604051908101604052803381526020018281526020015060036000506000600260005054815260200190815260200160002060005060008201518160000160006101000a81548173ffffffffffffffffffffffffffffffffffffffff021916908302179055506020820151816001016000505590505060026000818150548092919060010191905055505b50506103d7806101336000396000f30060606040526000357c01000000000000000000000000000000000000000000000000000000009004806309e2d1a61461004f5780631a3cd59a1461007057806341c0e1b5146101065761004d565b005b61005a6004506101a7565b6040518082815260200191505060405180910390f35b6100816004803590602001506101b7565b6040518080602001806020018381038352858181518152602001915080519060200190602002808383829060006004602084601f0104600302600f01f1509050018381038252848181518152602001915080519060200190602002808383829060006004602084601f0104600302600f01f15090500194505050505060405180910390f35b610111600450610113565b005b600060009054906101000a900473ffffffffffffffffffffffffffffffffffffffff1673ffffffffffffffffffffffffffffffffffffffff163373ffffffffffffffffffffffffffffffffffffffff1614156101a457600060009054906101000a900473ffffffffffffffffffffffffffffffffffffffff1673ffffffffffffffffffffffffffffffffffffffff16ff5b5b565b6000600260005054905080505b90565b60206040519081016040528060008152602001506020604051908101604052806000815260200150600060006000600060188714156101f557610239565b600187141561020357610238565b600787141561021157610237565b600c87141561021f57610236565b61016d87141561022e57610235565b6018965086505b5b5b5b5b600091505b6002600050548260ff16101561030257600360005060008360ff16815260200190815260200160002060005090508060000160009054906101000a900473ffffffffffffffffffffffffffffffffffffffff168483815481101561000257906000526020600020900160006101000a81548173ffffffffffffffffffffffffffffffffffffffff02191690830217905550806001016000505483838154811015610002579060005260206000209001600050819055505b818060010192505061023e565b8380548060200260200160405190810160405280929190818152602001828054801561036d57602002820191906000526020600020905b8160009054906101000a900473ffffffffffffffffffffffffffffffffffffffff1681526020019060010190808311610339575b505050505095508550828054806020026020016040519081016040528092919081815260200182805480156103c457602002820191906000526020600020905b8160005054815260200190600101908083116103ad575b5050505050945084505b5050505091509156000000000000000000000000000000000000000000000000000000000000004000000000000000000000000000000000000000000000000000005af3107a400000000000000000000000000000000000000000000000000000000000000000060000000000000000000000000000000000000000000000000000000000000001000000000000000000000000000000000000000000000000000000000000000200000000000000000000000000000000000000000000000000000000000000030000000000000000000000000000000000000000000000000000000000000004000000000000000000000000000000000000000000000000000000000000000500000000000000000000000000000000000000000000000000000000000000061ba0e2d337b6c4afcf2a970c79b604bbfd91b59971cfa56288fe6acea5790a075d39a075ce36fa794f71717e59eee53022ab5c30ccebaef16f7e5437994f9568672189",
      "networkId": 0,
      "chainId": 0
    },
    {
      "hash": "0x5fac87c66d0350b1eb18f7f35c4ffa00342636464cf7ff763bdc2450d6f9f453",
      "blockHash": "0x19ccbb623eb4a7ea62dfe92f1dd612d965ecd2a85a77c63854d1e048c46d17c1",
      "blockNumber": 120635,
      "transactionIndex": 3,
      "confirmations": null,
      "from": "0x31191beEB5a3d7f5eBC5B193e98bd15ce10Eb249",
      "gasPrice": {
        "_hex": "0xba43b7400"
      },
      "gasLimit": {
        "_hex": "0x5208"
      },
      "to": "0x32Be343B94f860124dC4fEe278FDCBD38C102D88",
      "value": {
        "_hex": "0x2e79dc48108b6000"
      },
      "nonce": 5,
      "data": "0x",
      "r": "0x7385878a06a13033c17b2d557bbc2c95987247a354086490e1e6d2d037dc5e80",
      "s": "0x0b7ac5c3dcf0f4ff481fa4314989475acd444c47bf0252d1704bcc9f4f656aed",
      "v": 28,
      "creates": null,
      "raw": "0xf86c05850ba43b74008252089432be343b94f860124dc4fee278fdcbd38c102d88882e79dc48108b6000801ca07385878a06a13033c17b2d557bbc2c95987247a354086490e1e6d2d037dc5e80a00b7ac5c3dcf0f4ff481fa4314989475acd444c47bf0252d1704bcc9f4f656aed",
      "networkId": 0,
      "chainId": 0
    }
  ]
}