{
  "hash": "0x3e3245847315550c08f91b4faf06c366d92eb5fb83e1a506147558aaabf44b32",
  "parentHash": "0xd4897f91a8db66e253bbd58d05db6bee47f9cb2aae3096a472d20ad36c43d45a",
  "number": 54395,
  "timestamp": 1439053495,
  "nonce": "0x9a5236ff32fe2332",
  "difficulty": 1615738140444,
  "gasLimit": {
    "_hex": "0x2fefd8"
  },
  "gasUsed": {
    "_hex": "0x2da1b"
  },
  "miner": "0xf8E0CA3Ed80bd541b94BEdCf259e8CF2141A9523",
  "extraData": "0x476574682f76312e302e312f77696e646f77732f676f312e342e32",
  "transactions": [
    {
      "hash": "0xfd6e0a6e11705fd707fc237fa060bdc018605747cab1f762cc1b29aba273db5f",
      "blockHash": "0x3e3245847315550c08f91b4faf06c366d92eb5fb83e1a506147558aaabf44b32",
      "blockNumber": 54395,
      "transactionIndex": 0,
      "confirmations": null,
      "from": "0x8674c218F0351a62C3BA78C34FD2182A93Da94E2",
      "gasPrice": {
        "_hex": "0x174876e800"
      },
      "gasLimit": {
        "_hex": "0x1e8480"
      },
      "to": "0xBCa021A5B83eF3109aCf4858f1d0E36f5aD15306",
      "value": {
        "_hex": "0x0"
      },
      "nonce": 33,
      "data": "0xde6f24bb0000000000000000000000008674c218f0351a62c3ba78c34fd2182a93da94e20000000000000000000000000000000000000000000000000000000000000040000000000000000000000000000000000000000000000000000000000000000668656c6c6f210000000000000000000000000000000000000000000000000000",
      "r": "0xca392dd0895c22aa1c0a147af4e7b23688ccd2aa7f63cb78fc73fc21cb2ab165",
      "s": "0x7814c0a4b043f44d0fd8609d7552c71641c98439e7881a794297839dc27d9d6f",
      "v": 27,
      "creates": null,
      "raw": "0xf8ea2185174876e800831e848094bca021a5b83ef3109acf4858f1d0e36f5ad1530680b884de6f24bb0000000000000000000000008674c218f0351a62c3ba78c34fd2182a93da94e20000000000000000000000000000000000000000000000000000000000000040000000000000000000000000000000000000000000000000000000000000000668656c6c6f2100000000000000000000000000000000000000000000000000001ba0ca392dd0895c22aa1c0a147af4e7b23688ccd2aa7f63cb78fc73fc21cb2ab165a07814c0a4b043f44d0fd8609d7552c71641c98439e7881a794297839dc27d9d6f",
      "networkId": 0,
      "chainId": 0
    },
    {
      "hash": "0x9c29ae352ddbccb5759896e9b0fb7c17568182e4ded7403bb851f539a4f7dedf",
      "blockHash": "0x3e3245847315550c08f91b4faf06c366d92eb5fb83e1a506147558aaabf44b32",
      "blockNumber": 54395,
      "transactionIndex": 1,
      "confirmations": null,
      "from": "0x773141127d8cf318aeBF88365ADd3d5527D85b6A",
      "gasPrice": {
        "_hex": "0xa7a358200"
      },
      "gasLimit": {
        "_hex": "0x55f0"
      },
      "to": "0xAf134ceB3E1C67ae88B0Bf50C0fC6D35BD353988",
      "value": {
        "_hex": "0x4563918244f40000"
      },
      "nonce": 0,
      "data": "0x506f6c6f6e696578",
      "r": "0xd1c96936cc5e3ee1f418f9b1d9eaac91b5e5fcbaf6b4c5de437d4cbcf4dd4e58",
      "s": "0x0a10a9e091c25e7acc7aa4b8249505e0e17657a470265c0abe28bb6af9d6b388",
      "v": 28,
      "creates": null,
      "raw": "0xf87480850a7a3582008255f094af134ceb3e1c67ae88b0bf50c0fc6d35bd353988884563918244f4000088506f6c6f6e6965781ca0d1c96936cc5e3ee1f418f9b1d9eaac91b5e5fcbaf6b4c5de437d4cbcf4dd4e58a00a10a9e091c25e7acc7aa4b8249505e0e17657a470265c0abe28bb6af9d6b388",
      "networkId": 0,
      "chainId": 0
    }
  ]
}