{
  "hash": "0x70a4a4d6c19269ef4c159ade65bfc994754984094d3326ce54a12e8251f31c4a",
  "parentHash": "0x3da8099ada268098671ffe9070eb065a1f5882d6bc940f667d6635d0b3c97d68",
  "number": 71568,
  "timestamp": 1439338185,
  "nonce": "0xc772a914f29fee6a",
  "difficulty": 2181452286412,
  "gasLimit": {
    "_hex": "0x2fefd8"
  },
  "gasUsed": {
    "_hex": "0xae73"
  },
  "miner": "0xe6A7a1d47ff21B6321162AEA7C6CB457D5476Bca",
  "extraData": "0x476574682f76312e302e312d38326566323666362f6c696e75782f676f312e34",
  "transactions": [
    {
      "hash": "0x8a4619e110f44a7c1a92d5868f4086598c2a9eb55b46324a33dcaa89c6f9f12f",
      "blockHash": "0x70a4a4d6c19269ef4c159ade65bfc994754984094d3326ce54a12e8251f31c4a",
      "blockNumber": 71568,
      "transactionIndex": 0,
      "confirmations": null,
      "from": "0x17580B766f7453525ca4C6A88b01b50570EA088C",
      "gasPrice": {
        "_hex": "0xd76f23db4"
      },
      "gasLimit": {
        "_hex": "0x61a80"
      },
      "to": "0x5Fe5B7546D1628f7348B023A0393de1FC825A4fD",
      "value": {
        "_hex": "0x6f05b59d3b200000"
      },
      "nonce": 218,
      "data": "0xb595b8b50000000000000000000000000000000000000000000000000000000000000000",
      "r": "0x4cebfe1ef4ca12e9dd9a875e3b702f768d455b98f62d54b6e7247964b3a15ff8",
      "s": "0x7f2fd4fffe847b0b32dacdae902ebfcfbf07e4653ed45b827f5870b2dc2508b7",
      "v": 27,
      "creates": null,
      "raw": "0xf89281da850d76f23db483061a80945fe5b7546d1628f7348b023a0393de1fc825a4fd886f05b59d3b200000a4b595b8b500000000000000000000000000000000000000000000000000000000000000001ba04cebfe1ef4ca12e9dd9a875e3b702f768d455b98f62d54b6e7247964b3a15ff8a07f2fd4fffe847b0b32dacdae902ebfcfbf07e4653ed45b827f5870b2dc2508b7",
      "networkId": 0,
      "chainId": 0
    }
  ]
}