{
  "hash": "0x32e76dbb91d69ee1311e855ee2ef33ba0d50a57c53339fb901a6a5f42684da9b",
  "parentHash": "0x99f9d7ee78e3493af0c7a865a54cdca9adf1b738d94e8bd3b2b76ccec057ca3c",
  "number": 48579,
  "timestamp": 1438959302,
  "nonce": "0x9de133f4d5c5c3d7",
  "difficulty": 1469294118443,
  "gasLimit": {
    "_hex": "0x19d61"
  },
  "gasUsed": {
    "_hex": "0x546c"
  },
  "miner": "0x123843545FB525C8E134c9A5F15ADA6865cc3848",
  "extraData": "0x476574682f76312e302e312f77696e646f77732f676f312e342e32",
  "transactions": [
    {
      "hash": "0xbeab0900e4d9712e0b368a1c398d9aac0b662d686d78756a91404199b3a33091",
      "blockHash": "0x32e76dbb91d69ee1311e855ee2ef33ba0d50a57c53339fb901a6a5f42684da9b",
      "blockNumber": 48579,
      "transactionIndex": 0,
      "confirmations": null,
      "from": "0xd6cf5c1bCF9DA662bCeA2255905099F9d6E84DcC",
      "gasPrice": {
        "_hex": "0xdd0397bd5"
      },
      "gasLimit": {
        "_hex": "0x15f90"
      },
      "to": "0x2910543Af39abA0Cd09dBb2D50200b3E800A63D2",
      "value": {
        "_hex": "0xb591519c7a80a20000"
      },
      "nonce": 0,
      "data": "0x454e32324e52465230",
      "r": "0xdc809780e00e604a7b92a1ee3bde3be0e4f6870901b967eb99b42f6724e4e377",
      "s": "0x36630d24a0ca2bf010810c56d499f4c09e182ce81a6f36d2fdd8de72d8c2a185",
      "v": 27,
      "creates": null,
      "raw": "0xf87780850dd0397bd583015f90942910543af39aba0cd09dbb2d50200b3e800a63d289b591519c7a80a2000089454e32324e524652301ba0dc809780e00e604a7b92a1ee3bde3be0e4f6870901b967eb99b42f6724e4e377a036630d24a0ca2bf010810c56d499f4c09e182ce81a6f36d2fdd8de72d8c2a185",
      "networkId": 0,
      "chainId": 0
    }
  ]
}