{
  "hash": "0x36a49dab1b41933e866d95a5b16d67b71b075d42f8ddcaceaf7188b8f2968266",
  "parentHash": "0x3837f1034a623f48fb872d1d53b1445a2a99e27ad1cd8c7046e7bdac7298ed20",
  "number": 109355,
  "timestamp": 1439955182,
  "nonce": "0x4a8662f922f85226",
  "difficulty": 4458108699175,
  "gasLimit": {
    "_hex": "0x2fefd8"
  },
  "gasUsed": {
    "_hex": "0xa410"
  },
  "miner": "0x790b8a3cE86E707ED0eD32bF89B3269692a23CC1",
  "extraData": "0xd783010001844765746887676f312e342e32856c696e7578",
  "transactions": [
    {
      "hash": "0xfdd30576034bd9b72985bedfcc3735d061dc67524600085bad10641387ff855c",
      "blockHash": "0x36a49dab1b41933e866d95a5b16d67b71b075d42f8ddcaceaf7188b8f2968266",
      "blockNumber": 109355,
      "transactionIndex": 0,
      "confirmations": null,
      "from": "0xb1abce2918E21ddb93AA452731a12672A3d9F75a",
      "gasPrice": {
        "_hex": "0xce9746315"
      },
      "gasLimit": {
        "_hex": "0x5208"
      },
      "to": "0x32Be343B94f860124dC4fEe278FDCBD38C102D88",
      "value": {
        "_hex": "0x455f7a5365015400"
      },
      "nonce": 147,
      "data": "0x",
      "r": "0xb5fd8260b107d44bc19c496d2f7c9f1467fe3e70dccb4ca31f4da8d3033abefe",
      "s": "0x54ffcb5a26623607f846c846598ed26985b86a3e44c53df424fc3bd59db259c6",
      "v": 28,
      "creates": null,
      "raw": "0xf86d8193850ce97463158252089432be343b94f860124dc4fee278fdcbd38c102d8888455f7a5365015400801ca0b5fd8260b107d44bc19c496d2f7c9f1467fe3e70dccb4ca31f4da8d3033abefea054ffcb5a26623607f846c846598ed26985b86a3e44c53df424fc3bd59db259c6",
      "networkId": 0,
      "chainId": 0
    },
    {
      "hash": "0x8f501933401e22de15cceadde012de1440045fc22a54dd954f39fdff0b3a9dee",
      "blockHash": "0x36a49dab1b41933e866d95a5b16d67b71b075d42f8ddcaceaf7188b8f2968266",
      "blockNumber": 109355,
      "transactionIndex": 1,
      "confirmations": null,
      "from": "0xC5421FF9a6C1dfE6fE5BE19FA1322E70b77c8cb1",
      "gasPrice": {
        "_hex": "0xce9746315"
      },
      "gasLimit": {
        "_hex": "0x5208"
      },
      "to": "0x32Be343B94f860124dC4fEe278FDCBD38C102D88",
      "value": {
        "_hex": "0x13fd1733069ab6000"
      },
      "nonce": 3,
      "data": "0x",
      "r": "0xc86e3f2bd63482083126c243df8e804ee82e2528a7eb55743a1a3849fab24044",
      "s": "0x37edb9aad1b87f6af3e90f7b8fc4ca3551317a360646556d99724433685996fc",
      "v": 27,
      "creates": null,
      "raw": "0xf86d03850ce97463158252089432be343b94f860124dc4fee278fdcbd38c102d8889013fd1733069ab6000801ba0c86e3f2bd63482083126c243df8e804ee82e2528a7eb55743a1a3849fab24044a037edb9aad1b87f6af3e90f7b8fc4ca3551317a360646556d99724433685996fc",
      "networkId": 0,
      "chainId": 0
    }
  ]
}