{
  "hash": "0x5af722ae120f4a42c2f0482b76e784d5e6e6c732e77145d7f99111107af61c36",
  "parentHash": "0xd5b3884f23024c46b2371cf9cae554cdcd5ad50585516f5a7b770ad57aa913a8",
  "number": 110004,
  "timestamp": 1439966338,
  "nonce": "0x449a016d574cd370",
  "difficulty": 4407981086566,
  "gasLimit": {
    "_hex": "0x2fefd8"
  },
  "gasUsed": {
    "_hex": "0xa410"
  },
  "miner": "0xf8E0CA3Ed80bd541b94BEdCf259e8CF2141A9523",
  "extraData": "0x476574682f76312e302e312f77696e646f77732f676f312e342e32",
  "transactions": [
    {
      "hash": "0x376266051b614696387117d116b7187a866aed3b8f65c4975d87d73fbfbb0ddb",
      "blockHash": "0x5af722ae120f4a42c2f0482b76e784d5e6e6c732e77145d7f99111107af61c36",
      "blockNumber": 110004,
      "transactionIndex": 0,
      "confirmations": null,
      "from": "0x8Bf770A8F2F4cCa135f0699F96f4FB1CEb9c44c9",
      "gasPrice": {
        "_hex": "0xd7d40ace3"
      },
      "gasLimit": {
        "_hex": "0x15f90"
      },
      "to": "0x13aE5B35f82651Ff327d41502F0Aa90DA76D777E",
      "value": {
        "_hex": "0x17e554308aa030000"
      },
      "nonce": 2,
      "data": "0x",
      "r": "0x3243a7c9afc7f2303a50d21b0429fac9c55fb0edc33843c92bf1c19c44386d45",
      "s": "0x0c9002bed0bf07ad35be0950705fff53903001e3aa8ac9549c243362ed7e4e73",
      "v": 28,
      "creates": null,
      "raw": "0xf86e02850d7d40ace383015f909413ae5b35f82651ff327d41502f0aa90da76d777e89017e554308aa030000801ca03243a7c9afc7f2303a50d21b0429fac9c55fb0edc33843c92bf1c19c44386d45a00c9002bed0bf07ad35be0950705fff53903001e3aa8ac9549c243362ed7e4e73",
      "networkId": 0,
      "chainId": 0
    },
    {
      "hash": "0x747074aa33b4c9dfa16f8925dac7f6871da30cb0cb2511535b4243dbc3289148",
      "blockHash": "0x5af722ae120f4a42c2f0482b76e784d5e6e6c732e77145d7f99111107af61c36",
      "blockNumber": 110004,
      "transactionIndex": 1,
      "confirmations": null,
      "from": "0x007f7f58D3eb5b7510A301eCC749FC1fCDDBE14D",
      "gasPrice": {
        "_hex": "0xd382b0b9c"
      },
      "gasLimit": {
        "_hex": "0x15f90"
      },
      "to": "0xb1abce2918E21ddb93AA452731a12672A3d9F75a",
      "value": {
        "_hex": "0x4563918244f40000"
      },
      "nonce": 281,
      "data": "0x",
      "r": "0x1c4930df1928d9ed988fef65789c1920bf130edcf19008df551fd22f5dacf3e8",
      "s": "0x5321c8dbe95249f656e58b3929308950a3081beaa12990efbda3020cec3478ac",
      "v": 27,
      "creates": null,
      "raw": "0xf86f820119850d382b0b9c83015f9094b1abce2918e21ddb93aa452731a12672a3d9f75a884563918244f40000801ba01c4930df1928d9ed988fef65789c1920bf130edcf19008df551fd22f5dacf3e8a05321c8dbe95249f656e58b3929308950a3081beaa12990efbda3020cec3478ac",
      "networkId": 0,
      "chainId": 0
    }
  ]
}