{
  "hash": "0x5e3267183cbffd94406ba12baa06792f534579b5dacb8d639f4c903fb9cefaad",
  "parentHash": "0x72306bd07d5e33e48cff083d2e17faaf77a60735d14a0b26e07e294a4edeb445",
  "number": 99285,
  "timestamp": 1439787456,
  "nonce": "0x010fd9f0a204913a",
  "difficulty": 3799206503389,
  "gasLimit": {
    "_hex": "0x2fefd8"
  },
  "gasUsed": {
    "_hex": "0x5208"
  },
  "miner": "0xbb7B8287f3F0a933474a79eAe42CBCa977791171",
  "extraData": "0x476574682f4c5649562f76312e302e312f6c696e75782f676f312e342e32",
  "transactions": [
    {
      "hash": "0x111d1287a12c06106f7a5eb5ed1dba6dcdb859dcc144d35a809e1462062d7be6",
      "blockHash": "0x5e3267183cbffd94406ba12baa06792f534579b5dacb8d639f4c903fb9cefaad",
      "blockNumber": 99285,
      "transactionIndex": 0,
      "confirmations": null,
      "from": "0x7884D470204862a0d1A21122F41ee77430396Ee5",
      "gasPrice": {
        "_hex": "0xd2cc96f4d"
      },
      "gasLimit": {
        "_hex": "0x15f90"
      },
      "to": "0xdbE0660dE450203bD4aA6B0DAe88dAf2Bf7c88D9",
      "value": {
        "_hex": "0x13fbe85edc90000"
      },
      "nonce": 31,
      "data": "0x",
      "r": "0x4ce7abae6caf1892f88ce82600525248ea41263d4f49619530980246c01df79a",
      "s": "0x186424156c9ad4bbb4457fc295b3aba45635d1a0592643379bbfcb44952cd724",
      "v": 28,
      "creates": null,
      "raw": "0xf86d1f850d2cc96f4d83015f9094dbe0660de450203bd4aa6b0dae88daf2bf7c88d988013fbe85edc90000801ca04ce7abae6caf1892f88ce82600525248ea41263d4f49619530980246c01df79aa0186424156c9ad4bbb4457fc295b3aba45635d1a0592643379bbfcb44952cd724",
      "networkId": 0,
      "chainId": 0
    }
  ]
}