{
  "hash": "0xf0e96252376fae9a04c2414b64710d81618eb67023b5ab23040db9406a6e3666",
  "parentHash": "0xf54d42c56c9e55a1502754646b8b96f23bc07087274368f080e85a4484951f14",
  "number": 88095,
  "timestamp": 1439602514,
  "nonce": "0xeb1aec2f7a5d8ea4",
  "difficulty": 3200396172209,
  "gasLimit": {
    "_hex": "0x2fefd8"
  },
  "gasUsed": {
    "_hex": "0x357c8"
  },
  "miner": "0xf927a40C8B7F6E07c5af7FA2155B4864a4112B13",
  "extraData": "0x",
  "transactions": [
    {
      "hash": "0x9da181c004faad818e84b48f46a653baf2eb2e710273b70fdcf83de23d2a6a53",
      "blockHash": "0xf0e96252376fae9a04c2414b64710d81618eb67023b5ab23040db9406a6e3666",
      "blockNumber": 88095,
      "transactionIndex": 0,
      "confirmations": null,
      "from": "0xf2Ae859397af92154241eAd0aC7c4ce3bea76E8F",
      "gasPrice": {
        "_hex": "0xd42dae3df"
      },
      "gasLimit": {
        "_hex": "0xf4240"
      },
      "to": null,
      "value": {
        "_hex": "0x0"
      },
      "nonce": 3,
      "data": "0x606060405260405160208061025a8339016040526060805190602001505b8080602757506127105b600060005060003373ffffffffffffffffffffffffffffffffffffffff168152602001908152602001600020600050819055505b506101ef8061006b6000396000f30060606040526000357c01000000000000000000000000000000000000000000000000000000009004806390b98a1114610044578063bbd39ac01461007157610042565b005b61005b6004803590602001803590602001506100b3565b6040518082815260200191505060405180910390f35b610082600480359060200150610098565b6040518082815260200191505060405180910390f35b60006000506020528060005260406000206000915090505481565b600081600060005060003373ffffffffffffffffffffffffffffffffffffffff1681526020019081526020016000206000505410156100f557600090506101e9565b81600060005060003373ffffffffffffffffffffffffffffffffffffffff16815260200190815260200160002060008282825054039250508190555081600060005060008573ffffffffffffffffffffffffffffffffffffffff1681526020019081526020016000206000828282505401925050819055507f16cdf1707799c6655baac6e210f52b94b7cec08adcaf9ede7dfe8649da926146338484604051808473ffffffffffffffffffffffffffffffffffffffff1681526020018373ffffffffffffffffffffffffffffffffffffffff168152602001828152602001935050505060405180910390a1600190506101e9565b92915050560000000000000000000000000000000000000000000000000000000000002710",
      "r": "0xcab4bd82046cfa00f5e704c91598ee0fab96e9a90b3b4f147f3a72d70aac9033",
      "s": "0x6a79560c1cd76c8ccc54b02a1d04d7b4e6aed4c8f45d5f84d0aa133f2cb3f24d",
      "v": 28,
      "creates": "0x412C794424C331d8794eDf9aa54B4fdaece5F4Fd",
      "raw": "0xf902cd03850d42dae3df830f42408080b9027a606060405260405160208061025a8339016040526060805190602001505b8080602757506127105b600060005060003373ffffffffffffffffffffffffffffffffffffffff168152602001908152602001600020600050819055505b506101ef8061006b6000396000f30060606040526000357c01000000000000000000000000000000000000000000000000000000009004806390b98a1114610044578063bbd39ac01461007157610042565b005b61005b6004803590602001803590602001506100b3565b6040518082815260200191505060405180910390f35b610082600480359060200150610098565b6040518082815260200191505060405180910390f35b60006000506020528060005260406000206000915090505481565b600081600060005060003373ffffffffffffffffffffffffffffffffffffffff1681526020019081526020016000206000505410156100f557600090506101e9565b81600060005060003373ffffffffffffffffffffffffffffffffffffffff16815260200190815260200160002060008282825054039250508190555081600060005060008573ffffffffffffffffffffffffffffffffffffffff1681526020019081526020016000206000828282505401925050819055507f16cdf1707799c6655baac6e210f52b94b7cec08adcaf9ede7dfe8649da926146338484604051808473ffffffffffffffffffffffffffffffffffffffff1681526020018373ffffffffffffffffffffffffffffffffffffffff168152602001828152602001935050505060405180910390a1600190506101e9565b929150505600000000000000000000000000000000000000000000000000000000000027101ca0cab4bd82046cfa00f5e704c91598ee0fab96e9a90b3b4f147f3a72d70aac9033a06a79560c1cd76c8ccc54b02a1d04d7b4e6aed4c8f45d5f84d0aa133f2cb3f24d",
      "networkId": 0,
      "chainId": 0
    },
    {
      "hash": "0x6926c89678cd19bd30de4f7801e6e91309b3d3150b58629e6945fdd1c8d74441",
      "blockHash": "0xf0e96252376fae9a04c2414b64710d81618eb67023b5ab23040db9406a6e3666",
      "blockNumber": 88095,
      "transactionIndex": 1,
      "confirmations": null,
      "from": "0x4FCD326ae0739D0DA0fC71020adb6aBf9abf3BdA",
      "gasPrice": {
        "_hex": "0xba43b7400"
      },
      "gasLimit": {
        "_hex": "0x5208"
      },
      "to": "0xC47Aaa860008be6f65B58c6C6E02a84e666EfE31",
      "value": {
        "_hex": "0xffdeece0db738d530"
      },
      "nonce": 4,
      "data": "0x",
      "r": "0xb6ee1f5a2e5e33b7fa44258675182e4a2bd3d87edde3e73383b32cb9c31e12d5",
      "s": "0x6d3a9b63c02263f999bf08344e323838f82336f236007565b5b4084b18c4b132",
      "v": 27,
      "creates": null,
      "raw": "0xf86d04850ba43b740082520894c47aaa860008be6f65b58c6c6e02a84e666efe31890ffdeece0db738d530801ba0b6ee1f5a2e5e33b7fa44258675182e4a2bd3d87edde3e73383b32cb9c31e12d5a06d3a9b63c02263f999bf08344e323838f82336f236007565b5b4084b18c4b132",
      "networkId": 0,
      "chainId": 0
    },
    {
      "hash": "0xee6efe716174cf4253803e80dec9555ac113d2f419fe3f9de95788cd2ef0316e",
      "blockHash": "0xf0e96252376fae9a04c2414b64710d81618eb67023b5ab23040db9406a6e3666",
      "blockNumber": 88095,
      "transactionIndex": 2,
      "confirmations": null,
      "from": "0x4FCD326ae0739D0DA0fC71020adb6aBf9abf3BdA",
      "gasPrice": {
        "_hex": "0xba43b7400"
      },
      "gasLimit": {
        "_hex": "0x5208"
      },
      "to": "0xC47Aaa860008be6f65B58c6C6E02a84e666EfE31",
      "value": {
        "_hex": "0x1b1ae11beac24bead0"
      },
      "nonce": 5,
      "data": "0x",
      "r": "0xa8179e1eb60f56b5f2cfe957f81113eeb14622543ffac1505c8d30be24675078",
      "s": "0x0d2973224240e34d29f35e8ad8bdf3ccfe15ef6dc523e680c63d4c140cb97073",
      "v": 28,
      "creates": null,
      "raw": "0xf86d05850ba43b740082520894c47aaa860008be6f65b58c6c6e02a84e666efe31891b1ae11beac24bead0801ca0a8179e1eb60f56b5f2cfe957f81113eeb14622543ffac1505c8d30be24675078a00d2973224240e34d29f35e8ad8bdf3ccfe15ef6dc523e680c63d4c140cb97073",
      "networkId": 0,
      "chainId": 0
    }
  ]
}