{
  "hash": "0x1d7eb67c56fcb84827208766e9516d3c9cc38ca3229c7f1d4fc45fefb302757d",
  "parentHash": "0xaffb799eba64970a43576b4dc5eb030006eaba708d0c40465b6e07780af14447",
  "number": 100136,
  "timestamp": 1439801389,
  "nonce": "0x83222a991810544b",
  "difficulty": 3830485527821,
  "gasLimit": {
    "_hex": "0x2fefd8"
  },
  "gasUsed": {
    "_hex": "0x5208"
  },
  "miner": "0xe6A7a1d47ff21B6321162AEA7C6CB457D5476Bca",
  "extraData": "0x476574682f76312e302e312d38326566323666362f6c696e75782f676f312e34",
  "transactions": [
    {
      "hash": "0x63192b94de3898f8fe0cf91d1cc959ea6674f3ea34afe6115cbcd4c31c35b91c",
      "blockHash": "0x1d7eb67c56fcb84827208766e9516d3c9cc38ca3229c7f1d4fc45fefb302757d",
      "blockNumber": 100136,
      "transactionIndex": 0,
      "confirmations": null,
      "from": "0x50087E7383C8865C1C136b8777C4350B8ed472CE",
      "gasPrice": {
        "_hex": "0xd16c33c5c"
      },
      "gasLimit": {
        "_hex": "0x15f90"
      },
      "to": "0x027698B61229ECCa19311e977ADE3C2923D4e414",
      "value": {
        "_hex": "0xde0b6b3a7640000"
      },
      "nonce": 2,
      "data": "0x",
      "r": "0x8e2dbc4cbe4abee7d2efce83cf4c004765d3f302c1806618f235df25e43eacc5",
      "s": "0x184f7c28fc7a898f4a55feef7474b8bc8e5774a291865efdfdf0a573c16198ae",
      "v": 27,
      "creates": null,
      "raw": "0xf86d02850d16c33c5c83015f9094027698b61229ecca19311e977ade3c2923d4e414880de0b6b3a7640000801ba08e2dbc4cbe4abee7d2efce83cf4c004765d3f302c1806618f235df25e43eacc5a0184f7c28fc7a898f4a55feef7474b8bc8e5774a291865efdfdf0a573c16198ae",
      "networkId": 0,
      "chainId": 0
    }
  ]
}