{
  "hash": "0x9cd968b23535805c464837657340e5126c2ee818f3d9a43e2e309d322470a4a1",
  "parentHash": "0x104002a328f5815db1ee616400e81bccbb3e4e600cd6014755b55f20793fc387",
  "number": 75076,
  "timestamp": 1439397224,
  "nonce": "0x5ad2296f942fdc9e",
  "difficulty": 2189074617616,
  "gasLimit": {
    "_hex": "0x2fefd8"
  },
  "gasUsed": {
    "_hex": "0xe1a7"
  },
  "miner": "0xe6A7a1d47ff21B6321162AEA7C6CB457D5476Bca",
  "extraData": "0x476574682f76312e302e312d38326566323666362f6c696e75782f676f312e34",
  "transactions": [
    {
      "hash": "0x93418231da61b88395affe06eea94d8daec4087608e09d1c503ed4fa2a39da72",
      "blockHash": "0x9cd968b23535805c464837657340e5126c2ee818f3d9a43e2e309d322470a4a1",
      "blockNumber": 75076,
      "transactionIndex": 0,
      "confirmations": null,
      "from": "0x326Be8F71bFb0379f989aAB1CC1fE37f0a771f60",
      "gasPrice": {
        "_hex": "0x108582124aa"
      },
      "gasLimit": {
        "_hex": "0x493e0"
      },
      "to": "0xD79B4C6791784184e2755B2fC1659eaaB0f80456",
      "value": {
        "_hex": "0xde0b6b3a7640000"
      },
      "nonce": 70,
      "data": "0x8d2161860000000000000000000000000000000000000000000000000000000000000080effd7d03d77765a5ca4ee5c0f8dd54b430febfd0719a1c9e6bc0a0978e868034",
      "r": "0x1168936729d772ff7394fe87340be740114ba23a492e686bd1efb97e779863a4",
      "s": "0x3fd4e8b15636de8abf8f28d0cc7925bf3126755ff7270bea9ef90eb5eb161f03",
      "v": 27,
      "creates": null,
      "raw": "0xf8b346860108582124aa830493e094d79b4c6791784184e2755b2fc1659eaab0f80456880de0b6b3a7640000b8448d2161860000000000000000000000000000000000000000000000000000000000000080effd7d03d77765a5ca4ee5c0f8dd54b430febfd0719a1c9e6bc0a0978e8680341ba01168936729d772ff7394fe87340be740114ba23a492e686bd1efb97e779863a4a03fd4e8b15636de8abf8f28d0cc7925bf3126755ff7270bea9ef90eb5eb161f03",
      "networkId": 0,
      "chainId": 0
    },
    {
      "hash": "0x279dc81c871e302dfa0ad5c3bf8841fc95ae92a000424233982be6cd274f83ad",
      "blockHash": "0x9cd968b23535805c464837657340e5126c2ee818f3d9a43e2e309d322470a4a1",
      "blockNumber": 75076,
      "transactionIndex": 1,
      "confirmations": null,
      "from": "0xBc91527B31Fbbe397F91C2b9273Ea32b0d9a19a0",
      "gasPrice": {
        "_hex": "0xcd8108a0b"
      },
      "gasLimit": {
        "_hex": "0x5208"
      },
      "to": "0x32Be343B94f860124dC4fEe278FDCBD38C102D88",
      "value": {
        "_hex": "0x14a0459690433c00"
      },
      "nonce": 3,
      "data": "0x",
      "r": "0xdb00cfbfb8968a5e7010ad8c60698c3b90ff9341eb10e43dd0ea79e5cc9b3ad6",
      "s": "0x043f044360d218d5858d1b22bef8db9b5303938e69009ce540923992bbb84441",
      "v": 28,
      "creates": null,
      "raw": "0xf86c03850cd8108a0b8252089432be343b94f860124dc4fee278fdcbd38c102d888814a0459690433c00801ca0db00cfbfb8968a5e7010ad8c60698c3b90ff9341eb10e43dd0ea79e5cc9b3ad6a0043f044360d218d5858d1b22bef8db9b5303938e69009ce540923992bbb84441",
      "networkId": 0,
      "chainId": 0
    }
  ]
}