{
  "hash": "0xa43025ca1565bf0b947ffce7adef23257c38f56687d1b0eb87ce136d8da322f0",
  "parentHash": "0xd791d408c90b2b46095ea260f317d8da89cb8b1f2a2d11d6c8e1c1644f760d73",
  "number": 54469,
  "timestamp": 1439054689,
  "nonce": "0x928ac1c447067eae",
  "difficulty": 1614146801995,
  "gasLimit": {
    "_hex": "0x2fefd8"
  },
  "gasUsed": {
    "_hex": "0x5208"
  },
  "miner": "0xBD744E3F13D79B33F6c8E1d5E32F8E9BA2866c46",
  "extraData": "0x476574682f76312e302e312d39613032663533372f6c696e75782f676f312e34",
  "transactions": [
    {
      "hash": "0x6c1b8c89699155799abed5d672b2d25051f6e92af504a162d6b2f20e0da44114",
      "blockHash": "0xa43025ca1565bf0b947ffce7adef23257c38f56687d1b0eb87ce136d8da322f0",
      "blockNumber": 54469,
      "transactionIndex": 0,
      "confirmations": null,
      "from": "0x1C257ad4A55105ea3B58Ed374b198dA266c85f63",
      "gasPrice": {
        "_hex": "0x100145ba72e"
      },
      "gasLimit": {
        "_hex": "0x5208"
      },
      "to": "0x439632734cdF5a84774156c1938CbeDe2eF398F0",
      "value": {
        "_hex": "0x56bc75e2d63100000"
      },
      "nonce": 7,
      "data": "0x",
      "r": "0x70c132e3ddbf1e58d8dd8df422d52c07a775fb127e40afded4d5589638772f13",
      "s": "0x7610e834fbdbaaa9d2dd15beffe3de8173437288c3beea6dd17f3858e202b5ab",
      "v": 27,
      "creates": null,
      "raw": "0xf86e07860100145ba72e82520894439632734cdf5a84774156c1938cbede2ef398f089056bc75e2d63100000801ba070c132e3ddbf1e58d8dd8df422d52c07a775fb127e40afded4d5589638772f13a07610e834fbdbaaa9d2dd15beffe3de8173437288c3beea6dd17f3858e202b5ab",
      "networkId": 0,
      "chainId": 0
    }
  ]
}