{
  "hash": "0x3ed37ada8422de05835a1d80a3d8d9b776069dc206d164c170adb2911b98d7bf",
  "parentHash": "0x798bedceabedf773d7bf376e5a5192ebd608c289b173ac1001c33ae9ac8542ef",
  "number": 115331,
  "timestamp": 1440055371,
  "nonce": "0xb6bd490bbae248eb",
  "difficulty": 4556128100616,
  "gasLimit": {
    "_hex": "0x2fefd8"
  },
  "gasUsed": {
    "_hex": "0x5208"
  },
  "miner": "0xe6A7a1d47ff21B6321162AEA7C6CB457D5476Bca",
  "extraData": "0x476574682f76312e302e312d38326566323666362f6c696e75782f676f312e34",
  "transactions": [
    {
      "hash": "0xe2948994c9c14c34c71449bad8de3ace5b8942c1bc6bf6918b022e6c32a5bb77",
      "blockHash": "0x3ed37ada8422de05835a1d80a3d8d9b776069dc206d164c170adb2911b98d7bf",
      "blockNumber": 115331,
      "transactionIndex": 0,
      "confirmations": null,
      "from": "0x3B399fF2b96F27056Ab8a7f6e028b0dBaF386279",
      "gasPrice": {
        "_hex": "0xcb446a9ae"
      },
      "gasLimit": {
        "_hex": "0x5208"
      },
      "to": "0x32Be343B94f860124dC4fEe278FDCBD38C102D88",
      "value": {
        "_hex": "0x9c1d9db880b11800"
      },
      "nonce": 10,
      "data": "0x",
      "r": "0x0738b968e713ba7ae0d9cffa9ae3b64e1c617155f0b6949bc11b4025189cc4d4",
      "s": "0x1bd46575131d2279629e7ee5e6cd8be47386e8ea78f90623ca7f7261faafa05d",
      "v": 27,
      "creates": null,
      "raw": "0xf86c0a850cb446a9ae8252089432be343b94f860124dc4fee278fdcbd38c102d88889c1d9db880b11800801ba00738b968e713ba7ae0d9cffa9ae3b64e1c617155f0b6949bc11b4025189cc4d4a01bd46575131d2279629e7ee5e6cd8be47386e8ea78f90623ca7f7261faafa05d",
      "networkId": 0,
      "chainId": 0
    }
  ]
}