{
  "hash": "0x33bb555c9b647b43c56e7e862b727ba7768fc4d8c819c05a456e99f9112a0798",
  "parentHash": "0x2cf231857a3c58d38136a6f59ddce6ef79801456b0738101b904e88307aba62a",
  "number": 95153,
  "timestamp": 1439719656,
  "nonce": "0x4499a4987398a419",
  "difficulty": 3532629906517,
  "gasLimit": {
    "_hex": "0x2fefd8"
  },
  "gasUsed": {
    "_hex": "0xa410"
  },
  "miner": "0xe6A7a1d47ff21B6321162AEA7C6CB457D5476Bca",
  "extraData": "0x476574682f76312e302e312d38326566323666362f6c696e75782f676f312e34",
  "transactions": [
    {
      "hash": "0xb3efd6ea6d9eabf4b980e8bca74dd65d2a90c5f373dc6ffad533dde778de3e02",
      "blockHash": "0x33bb555c9b647b43c56e7e862b727ba7768fc4d8c819c05a456e99f9112a0798",
      "blockNumber": 95153,
      "transactionIndex": 0,
      "confirmations": null,
      "from": "0x859217617481BD9b6E3e38f6aE9BB677F0D26154",
      "gasPrice": {
        "_hex": "0xd5ae42467"
      },
      "gasLimit": {
        "_hex": "0x5208"
      },
      "to": "0x32Be343B94f860124dC4fEe278FDCBD38C102D88",
      "value": {
        "_hex": "0x61940057a8d0440000"
      },
      "nonce": 11,
      "data": "0x",
      "r": "0x7d07fc59dcab82f71afb06dc69d33f6f3d39f13a8b860da2fe365a48c7eb5ac2",
      "s": "0x18e6a8c233727824a4980aaf196da5bcb54fafc4f5e146d8d38b7c0917da3701",
      "v": 28,
      "creates": null,
      "raw": "0xf86d0b850d5ae424678252089432be343b94f860124dc4fee278fdcbd38c102d888961940057a8d0440000801ca07d07fc59dcab82f71afb06dc69d33f6f3d39f13a8b860da2fe365a48c7eb5ac2a018e6a8c233727824a4980aaf196da5bcb54fafc4f5e146d8d38b7c0917da3701",
      "networkId": 0,
      "chainId": 0
    },
    {
      "hash": "0x103e2a56bf943a838b505f6a096ce9a7ca316947e732a923a0c7e5423801f449",
      "blockHash": "0x33bb555c9b647b43c56e7e862b727ba7768fc4d8c819c05a456e99f9112a0798",
      "blockNumber": 95153,
      "transactionIndex": 1,
      "confirmations": null,
      "from": "0x96811Ad897894eC178872117C8BF2f03971A393B",
      "gasPrice": {
        "_hex": "0xd5ae42467"
      },
      "gasLimit": {
        "_hex": "0x5208"
      },
      "to": "0x32Be343B94f860124dC4fEe278FDCBD38C102D88",
      "value": {
        "_hex": "0x1ae31e3c3bd300000"
      },
      "nonce": 36,
      "data": "0x",
      "r": "0xbb64c9fef0bf3976a60eddeb747f8c54c2cb9d74cf532c40e25d4211756ad8e3",
      "s": "0x77ba25cda0ea801b53dfe30a0526ba64311c099907abb311697b3c326c6097ac",
      "v": 28,
      "creates": null,
      "raw": "0xf86d24850d5ae424678252089432be343b94f860124dc4fee278fdcbd38c102d888901ae31e3c3bd300000801ca0bb64c9fef0bf3976a60eddeb747f8c54c2cb9d74cf532c40e25d4211756ad8e3a077ba25cda0ea801b53dfe30a0526ba64311c099907abb311697b3c326c6097ac",
      "networkId": 0,
      "chainId": 0
    }
  ]
}