{
  "hash": "0x84924186a7adab8ab6eda67a56056e9927dce4a2be0d013be1666cc311b6b220",
  "parentHash": "0x206221965805d660a5d60a13bdceea294130b8ce7de11b7a60a560a9ee5ae6a5",
  "number": 121353,
  "timestamp": 1440175785,
  "nonce": "0xf57f89de6292ab39",
  "difficulty": 4399872632998,
  "gasLimit": {
    "_hex": "0x2fefd8"
  },
  "gasUsed": {
    "_hex": "0x14820"
  },
  "miner": "0x4cfeF0a00715760Ed2b03C3782D07a4EA9A8dfDc",
  "extraData": "0xd783010100844765746887676f312e342e32856c696e7578",
  "transactions": [
    {
      "hash": "0x6e289d65493234513b1ca585ef48da7c542d60af33ea0065d1080f092d947933",
      "blockHash": "0x84924186a7adab8ab6eda67a56056e9927dce4a2be0d013be1666cc311b6b220",
      "blockNumber": 121353,
      "transactionIndex": 0,
      "confirmations": null,
      "from": "0xFFf1471A813EaF20Ade11C3d58E3a64157216587",
      "gasPrice": {
        "_hex": "0xdf152d24b"
      },
      "gasLimit": {
        "_hex": "0x15f90"
      },
      "to": "0x9b0a028EAfDeCdE3AFc0fD00B7937098388b7C8a",
      "value": {
        "_hex": "0x1157b2050c6e4e0d0"
      },
      "nonce": 0,
      "data": "0x",
      "r": "0x4f5e0133c77e40c0bae7851b2ae4dac760f2e8fc2c09b53db29f56c306fd4ada",
      "s": "0x54c213b79b203e2f9d5c4e7ff1708a998ab010f74cd3181ca885e270e1646288",
      "v": 28,
      "creates": null,
      "raw": "0xf86e80850df152d24b83015f90949b0a028eafdecde3afc0fd00b7937098388b7c8a8901157b2050c6e4e0d0801ca04f5e0133c77e40c0bae7851b2ae4dac760f2e8fc2c09b53db29f56c306fd4adaa054c213b79b203e2f9d5c4e7ff1708a998ab010f74cd3181ca885e270e1646288",
      "networkId": 0,
      "chainId": 0
    },
    {
      "hash": "0x815ef3f30f1f7fd0dd371619e71f622f95b3b34b6831f4397dfaa9eb39b07abb",
      "blockHash": "0x84924186a7adab8ab6eda67a56056e9927dce4a2be0d013be1666cc311b6b220",
      "blockNumber": 121353,
      "transactionIndex": 1,
      "confirmations": null,
      "from": "0x32Be343B94f860124dC4fEe278FDCBD38C102D88",
      "gasPrice": {
        "_hex": "0xba43b7400"
      },
      "gasLimit": {
        "_hex": "0x5208"
      },
      "to": "0xAFC7751980C0F035a1be4135E02D9A1b96C4A6aD",
      "value": {
        "_hex": "0xc77c09e75f4170000"
      },
      "nonce": 1550,
      "data": "0x",
      "r": "0xe9f3134cb639ba5efa68e03afbdd6e7a0c5319e451fbb742280adb0d4e26f763",
      "s": "0x5cfa9770a05d927ffa112e25444f19b204da8b1eb08c1e4690cc6eaa5c6c5d9b",
      "v": 28,
      "creates": null,
      "raw": "0xf86f82060e850ba43b740082520894afc7751980c0f035a1be4135e02d9a1b96c4a6ad890c77c09e75f4170000801ca0e9f3134cb639ba5efa68e03afbdd6e7a0c5319e451fbb742280adb0d4e26f763a05cfa9770a05d927ffa112e25444f19b204da8b1eb08c1e4690cc6eaa5c6c5d9b",
      "networkId": 0,
      "chainId": 0
    },
    {
      "hash": "0x044b50ca0b69a887e15acaa7b7b135f20f566b8756d0abd20649f2c159914292",
      "blockHash": "0x84924186a7adab8ab6eda67a56056e9927dce4a2be0d013be1666cc311b6b220",
      "blockNumber": 121353,
      "transactionIndex": 2,
      "confirmations": null,
      "from": "0x77b8115f6C7A1a949B92a8C5Ab5e3Bce37693cf8",
      "gasPrice": {
        "_hex": "0xba43b7400"
      },
      "gasLimit": {
        "_hex": "0x5b04"
      },
      "to": "0xb9289C79cE6fc22568e67658e65058ea1236d0E8",
      "value": {
        "_hex": "0x2a1129d0936720000"
      },
      "nonce": 1,
      "data": "0x",
      "r": "0x7520ba06087bf38d5bbfefb8dcc9e7c4ea1d86593cd6149fa841528597da629e",
      "s": "0xf30dd552a3a4f2bf65cd7e61df1dc8b821db1c4929ff418f3b66ec6c771148a1",
      "v": 27,
      "creates": null,
      "raw": "0xf86d01850ba43b7400825b0494b9289c79ce6fc22568e67658e65058ea1236d0e88902a1129d0936720000801ba07520ba06087bf38d5bbfefb8dcc9e7c4ea1d86593cd6149fa841528597da629ea0f30dd552a3a4f2bf65cd7e61df1dc8b821db1c4929ff418f3b66ec6c771148a1",
      "networkId": 0,
      "chainId": 0
    },
    {
      "hash": "0x91c3bb246b8d405cced25e6f8dfd0991a1e66375966321ebbc399315503e27b4",
      "blockHash": "0x84924186a7adab8ab6eda67a56056e9927dce4a2be0d013be1666cc311b6b220",
      "blockNumber": 121353,
      "transactionIndex": 3,
      "confirmations": null,
      "from": "0x32Be343B94f860124dC4fEe278FDCBD38C102D88",
      "gasPrice": {
        "_hex": "0xba43b7400"
      },
      "gasLimit": {
        "_hex": "0x5208"
      },
      "to": "0x120A270bbC009644e35F0bB6ab13f95b8199c4ad",
      "value": {
        "_hex": "0x10f0cf064dd59200000"
      },
      "nonce": 1551,
      "data": "0x",
      "r": "0xdfe8e2a5ecbb8deb7e9cfa31d35dfda92d3b1520fb16a793cf790c3f87c54454",
      "s": "0x1260fd946fac4e86757d1653bb80af9ca86afc366800928c89f4a54a47f65952",
      "v": 28,
      "creates": null,
      "raw": "0xf87082060f850ba43b740082520894120a270bbc009644e35f0bb6ab13f95b8199c4ad8a010f0cf064dd59200000801ca0dfe8e2a5ecbb8deb7e9cfa31d35dfda92d3b1520fb16a793cf790c3f87c54454a01260fd946fac4e86757d1653bb80af9ca86afc366800928c89f4a54a47f65952",
      "networkId": 0,
      "chainId": 0
    }
  ]
}