{
  "hash": "0x5bafa205ff01605085cc30cb514b6cb4900a787014271ff98f37ce1114144ba1",
  "parentHash": "0x887e12bd0c13ec298b4fda3792f6c7871ac93850f38648a4e6cd769540ba67bc",
  "number": 48504,
  "timestamp": 1438958263,
  "nonce": "0xe36f26ab2c4065b7",
  "difficulty": 1462864504662,
  "gasLimit": {
    "_hex": "0x185a9"
  },
  "gasUsed": {
    "_hex": "0x546c"
  },
  "miner": "0x24339341F29d2aaD7d3c591c0f9931e7D4bFEd6e",
  "extraData": "0x476574682f76312e302e312f6c696e75782f676f312e342e32",
  "transactions": [
    {
      "hash": "0x49fa76b5c83b94651f41f784601cc0b29bbd2c1cf8879354633168d85fb60b01",
      "blockHash": "0x5bafa205ff01605085cc30cb514b6cb4900a787014271ff98f37ce1114144ba1",
      "blockNumber": 48504,
      "transactionIndex": 0,
      "confirmations": null,
      "from": "0x2f66bFbF2262efcC8d2Bd0444FC5b0696298fF1E",
      "gasPrice": {
        "_hex": "0xd69b48315"
      },
      "gasLimit": {
        "_hex": "0x15f90"
      },
      "to": "0x2910543Af39abA0Cd09dBb2D50200b3E800A63D2",
      "value": {
        "_hex": "0x6c6b935b8bbd400000"
      },
      "nonce": 0,
      "data": "0x454e38504454594538",
      "r": "0x0e3dd333ce64b07b6edf622c80b44b05ba9a261c31660db04097bcbc8870afb1",
      "s": "0x409df1225bde4876c00a7a5cf0f8555066bf73aad201c700cd5604383a6ce1de",
      "v": 28,
      "creates": null,
      "raw": "0xf87780850d69b4831583015f90942910543af39aba0cd09dbb2d50200b3e800a63d2896c6b935b8bbd40000089454e385044545945381ca00e3dd333ce64b07b6edf622c80b44b05ba9a261c31660db04097bcbc8870afb1a0409df1225bde4876c00a7a5cf0f8555066bf73aad201c700cd5604383a6ce1de",
      "networkId": 0,
      "chainId": 0
    }
  ]
}