{
  "hash": "0x6e9aaf120a41a54dd8b6f4c82de306275fc97773a344a9b2a7af5fa355b594a3",
  "parentHash": "0x76068edf7db0c1edd93895e1cedae9e1a495f4d17a702da20c40e58bdf03bf82",
  "number": 93501,
  "timestamp": 1439691636,
  "nonce": "0x0d691a42ffe8ef4e",
  "difficulty": 3495573154676,
  "gasLimit": {
    "_hex": "0x2fefd8"
  },
  "gasUsed": {
    "_hex": "0xf618"
  },
  "miner": "0x6B4971F56172Fe56565FD3d6b56F8CA3C91B2baD",
  "extraData": "0x6e6f6e6f32333537",
  "transactions": [
    {
      "hash": "0x30552cd3f78efac75fd3f5622e19092337c5756c5e4a47fe89e63128cd023192",
      "blockHash": "0x6e9aaf120a41a54dd8b6f4c82de306275fc97773a344a9b2a7af5fa355b594a3",
      "blockNumber": 93501,
      "transactionIndex": 0,
      "confirmations": null,
      "from": "0x2910543Af39abA0Cd09dBb2D50200b3E800A63D2",
      "gasPrice": {
        "_hex": "0xd82d546dd"
      },
      "gasLimit": {
        "_hex": "0x5208"
      },
      "to": "0x02020D22dCF88f5eDd66B382D7da019F161fB7e3",
      "value": {
        "_hex": "0x1f07b0ff884ae7a000"
      },
      "nonce": 854,
      "data": "0x",
      "r": "0x3da0da8625c93a6c21fd71978fa3a3aec5ff510fa92fa736459c0c2050d7b2fb",
      "s": "0x20fc22bad7bb1caa31e03edf64955382da4cf73b3ff87ed18358bfd3e135d08a",
      "v": 27,
      "creates": null,
      "raw": "0xf86f820356850d82d546dd8252089402020d22dcf88f5edd66b382d7da019f161fb7e3891f07b0ff884ae7a000801ba03da0da8625c93a6c21fd71978fa3a3aec5ff510fa92fa736459c0c2050d7b2fba020fc22bad7bb1caa31e03edf64955382da4cf73b3ff87ed18358bfd3e135d08a",
      "networkId": 0,
      "chainId": 0
    },
    {
      "hash": "0xbb3f0a1def419e3bc2d25c7b7f63c6fa205e3dfc647552b00f25f3871a6ec097",
      "blockHash": "0x6e9aaf120a41a54dd8b6f4c82de306275fc97773a344a9b2a7af5fa355b594a3",
      "blockNumber": 93501,
      "transactionIndex": 1,
      "confirmations": null,
      "from": "0x0092C5f887DD0e13E43dBDbcedFa02e332C11FDb",
      "gasPrice": {
        "_hex": "0xcdec332f1"
      },
      "gasLimit": {
        "_hex": "0x5208"
      },
      "to": "0x32Be343B94f860124dC4fEe278FDCBD38C102D88",
      "value": {
        "_hex": "0xc893cc7cccd9900000"
      },
      "nonce": 4,
      "data": "0x",
      "r": "0xeb5a5f64db0107dab84d5d84646e45a1763efe5dcc493cf61b90ce4f04cfa3d8",
      "s": "0x305ac0db3a562f310ee83b416f20d8766932e904cf9deaf92702c3bbf3a3b988",
      "v": 28,
      "creates": null,
      "raw": "0xf86d04850cdec332f18252089432be343b94f860124dc4fee278fdcbd38c102d8889c893cc7cccd9900000801ca0eb5a5f64db0107dab84d5d84646e45a1763efe5dcc493cf61b90ce4f04cfa3d8a0305ac0db3a562f310ee83b416f20d8766932e904cf9deaf92702c3bbf3a3b988",
      "networkId": 0,
      "chainId": 0
    },
    {
      "hash": "0xd385384a288bccafb20aaab47c9c3f693ff0b56fa683d43d2e626b8c122caa82",
      "blockHash": "0x6e9aaf120a41a54dd8b6f4c82de306275fc97773a344a9b2a7af5fa355b594a3",
      "blockNumber": 93501,
      "transactionIndex": 2,
      "confirmations": null,
      "from": "0x32Be343B94f860124dC4fEe278FDCBD38C102D88",
      "gasPrice": {
        "_hex": "0xcbd7c42d6"
      },
      "gasLimit": {
        "_hex": "0x5208"
      },
      "to": "0x48fd93dbcc39f6531B44901Ff472112eAc83C917",
      "value": {
        "_hex": "0xb793d6e76eae8800"
      },
      "nonce": 922,
      "data": "0x",
      "r": "0xa18871e0d8de0b2b00fc00951d40ee62bfcda2f9695d30cf7669d404d0ded6f3",
      "s": "0x5e1fdd58422d223427202d0b520159c166ec7697e08f445ad6de77889a9272b5",
      "v": 28,
      "creates": null,
      "raw": "0xf86e82039a850cbd7c42d68252089448fd93dbcc39f6531b44901ff472112eac83c91788b793d6e76eae8800801ca0a18871e0d8de0b2b00fc00951d40ee62bfcda2f9695d30cf7669d404d0ded6f3a05e1fdd58422d223427202d0b520159c166ec7697e08f445ad6de77889a9272b5",
      "networkId": 0,
      "chainId": 0
    }
  ]
}