{
  "hash": "0xd3ea8c2be6b942dd3b0d4b427e3e5558e0a8efb9de0aa4ad841b9623854e9648",
  "parentHash": "0x8dce0e0b73d446c7cf539ee8ddbec90332bdd7c85a79bf40c6584f758289fe42",
  "number": 103505,
  "timestamp": 1439854471,
  "nonce": "0x3f26b7bc23809ae8",
  "difficulty": 4182749736358,
  "gasLimit": {
    "_hex": "0x2fefd8"
  },
  "gasUsed": {
    "_hex": "0x5208"
  },
  "miner": "0x0025BC2515C073784222cBCd1E988dBa9a0f75AF",
  "extraData": "0xdd809b302e392e34312b2b313763622d524c696e75782f672b2b2f4a4954",
  "transactions": [
    {
      "hash": "0x9e07828db830c4bb05e767a7a595ac7bc29525f7e914f688c82a1786adac17cf",
      "blockHash": "0xd3ea8c2be6b942dd3b0d4b427e3e5558e0a8efb9de0aa4ad841b9623854e9648",
      "blockNumber": 103505,
      "transactionIndex": 0,
      "confirmations": null,
      "from": "0x32Be343B94f860124dC4fEe278FDCBD38C102D88",
      "gasPrice": {
        "_hex": "0xd80fd9a11"
      },
      "gasLimit": {
        "_hex": "0x5208"
      },
      "to": "0x1088F2CB8324A270c8D7E71083449a0722820D99",
      "value": {
        "_hex": "0x7735cf7cfc9b0000"
      },
      "nonce": 1124,
      "data": "0x",
      "r": "0x3019c6a3495ed24e49ae72f6a4e8e7d4d65c85bb2b78be9e69534bd3a081f1f4",
      "s": "0x78808d0a7a2f96303804294a3ef41ab74ab346e75aa4ef1d1b95c65b7ad90051",
      "v": 28,
      "creates": null,
      "raw": "0xf86e820464850d80fd9a11825208941088f2cb8324a270c8d7e71083449a0722820d99887735cf7cfc9b0000801ca03019c6a3495ed24e49ae72f6a4e8e7d4d65c85bb2b78be9e69534bd3a081f1f4a078808d0a7a2f96303804294a3ef41ab74ab346e75aa4ef1d1b95c65b7ad90051",
      "networkId": 0,
      "chainId": 0
    }
  ]
}