{
  "hash": "0xe672c371942800835d67503b9a431775060addde959019ec678d2422b444be5c",
  "parentHash": "0xae2641a4e3395703c5da234db9ae8b221bd349c33b13075733658a7ed650ec0e",
  "number": 83120,
  "timestamp": 1439530502,
  "nonce": "0x19cdd5328d9f9d28",
  "difficulty": 2404270559325,
  "gasLimit": {
    "_hex": "0x2fefd8"
  },
  "gasUsed": {
    "_hex": "0x5208"
  },
  "miner": "0x02dE7d35a60bf6A216411476040ec648668769D7",
  "extraData": "0x476574682f76312e302e312f77696e646f77732f676f312e342e32",
  "transactions": [
    {
      "hash": "0x9fc58b7a3c51e081c0915bd500f3016def540868ef12067684499e5f8d677eea",
      "blockHash": "0xe672c371942800835d67503b9a431775060addde959019ec678d2422b444be5c",
      "blockNumber": 83120,
      "transactionIndex": 0,
      "confirmations": null,
      "from": "0xE300c4587D260cE22a677755Db6429B491A4309E",
      "gasPrice": {
        "_hex": "0xd4b6c67b5"
      },
      "gasLimit": {
        "_hex": "0x15f90"
      },
      "to": "0x06EC48800B2DB3eEfa052e98A9b5Fc2Bf783Ee74",
      "value": {
        "_hex": "0x149756c3857c60000"
      },
      "nonce": 2,
      "data": "0x",
      "r": "0x8bf317a86ba916b53e3eba1de643a154ad0c1fa608499eee1af9aa6e0b8f76b7",
      "s": "0x149fcd3b9ce229583fd1b2683cf6504fc5bd2e9202d55c6855337750a20b6ee1",
      "v": 27,
      "creates": null,
      "raw": "0xf86e02850d4b6c67b583015f909406ec48800b2db3eefa052e98a9b5fc2bf783ee74890149756c3857c60000801ba08bf317a86ba916b53e3eba1de643a154ad0c1fa608499eee1af9aa6e0b8f76b7a0149fcd3b9ce229583fd1b2683cf6504fc5bd2e9202d55c6855337750a20b6ee1",
      "networkId": 0,
      "chainId": 0
    }
  ]
}