{
  "hash": "0x075288b9b26b1e25c2f712146ac6df36a21a685c99b1bb8b085d04246f37c756",
  "parentHash": "0x24add9e4e8eb58c3dc28128f0f0161e6e4b381547bdac58633e988f9aacf8226",
  "number": 47957,
  "timestamp": 1438948950,
  "nonce": "0x9f0b818a03bc324d",
  "difficulty": 1460818458480,
  "gasLimit": {
    "_hex": "0x10d4e"
  },
  "gasUsed": {
    "_hex": "0x546c"
  },
  "miner": "0x3F98e477a361F777DA14611a7e419A75Fd238b6b",
  "extraData": "0x476574682f76312e302e312f6c696e75782f676f312e342e32",
  "transactions": [
    {
      "hash": "0xe841fd0efb503e9c065a53cbc5ba012e8879667396e7fd19ec2888d77c654c98",
      "blockHash": "0x075288b9b26b1e25c2f712146ac6df36a21a685c99b1bb8b085d04246f37c756",
      "blockNumber": 47957,
      "transactionIndex": 0,
      "confirmations": null,
      "from": "0x9E1B9435365FF9c0653fEe36AC89657c5879A566",
      "gasPrice": {
        "_hex": "0x100b81cbea5"
      },
      "gasLimit": {
        "_hex": "0x61a8"
      },
      "to": "0x2910543Af39abA0Cd09dBb2D50200b3E800A63D2",
      "value": {
        "_hex": "0xde0b6b3a7640000"
      },
      "nonce": 0,
      "data": "0x454e37353756564e30",
      "r": "0xc3af367b6585cdf830e8e53a414b35fbf694ef5ae2f1beb9b51a4f33dd735aa1",
      "s": "0x79da4c5b0a7b8221bfd01a60432e1322b26048b6f5ae4543b6ea34d7fc98fdfe",
      "v": 27,
      "creates": null,
      "raw": "0xf87680860100b81cbea58261a8942910543af39aba0cd09dbb2d50200b3e800a63d2880de0b6b3a764000089454e37353756564e301ba0c3af367b6585cdf830e8e53a414b35fbf694ef5ae2f1beb9b51a4f33dd735aa1a079da4c5b0a7b8221bfd01a60432e1322b26048b6f5ae4543b6ea34d7fc98fdfe",
      "networkId": 0,
      "chainId": 0
    }
  ]
}