{
  "hash": "0xcfde00ec5100c7ac88621d27750db880192631df322b9e16bf551e4a45784f1f",
  "parentHash": "0x4d541989490bf8705800c3722fded91de1ff504ab932368ca59550d7c83d5eca",
  "number": 72806,
  "timestamp": 1439358423,
  "nonce": "0x7ef68859e75f9e63",
  "difficulty": 2189667072565,
  "gasLimit": {
    "_hex": "0x2fefd8"
  },
  "gasUsed": {
    "_hex": "0x54c8"
  },
  "miner": "0x9746c7e1ef2bd21FF3997fa467593a89cb852BD0",
  "extraData": "0x476574682f76312e302e312f77696e646f77732f676f312e342e32",
  "transactions": [
    {
      "hash": "0xe384fa9be8a15224ce67698f61156635b5970ec7501e51603dab5965ef2f17f2",
      "blockHash": "0xcfde00ec5100c7ac88621d27750db880192631df322b9e16bf551e4a45784f1f",
      "blockNumber": 72806,
      "transactionIndex": 0,
      "confirmations": null,
      "from": "0x4BD5f0Ee173C81d42765154865EE69361b6aD189",
      "gasPrice": {
        "_hex": "0x746a528800"
      },
      "gasLimit": {
        "_hex": "0x5dc4"
      },
      "to": "0x2910543Af39abA0Cd09dBb2D50200b3E800A63D2",
      "value": {
        "_hex": "0xa"
      },
      "nonce": 15,
      "data": "0x0000000000000000000000000000000000000000000000454e465631595a3552",
      "r": "0x2d5d1c9cdbc4b53d739b5d83dbcd899574d5f9cfafa6b8c41a3af90e9e20ac2b",
      "s": "0x738516f5af85b172092f031113df526fe580d2e7566fde2480009425c88898ed",
      "v": 28,
      "creates": null,
      "raw": "0xf8840f85746a528800825dc4942910543af39aba0cd09dbb2d50200b3e800a63d20aa00000000000000000000000000000000000000000000000454e465631595a35521ca02d5d1c9cdbc4b53d739b5d83dbcd899574d5f9cfafa6b8c41a3af90e9e20ac2ba0738516f5af85b172092f031113df526fe580d2e7566fde2480009425c88898ed",
      "networkId": 0,
      "chainId": 0
    }
  ]
}