{
  "hash": "0xe0108487cd4c10093a4213f9f903c5a91923cb196fc4a63b14a4ce478b905df4",
  "parentHash": "0xd5697b05f0410bdf7e61a4f9c795218af30f31c8b59274b100030da9bb75911c",
  "number": 54962,
  "timestamp": 1439063201,
  "nonce": "0xf076e0cfbb3d520c",
  "difficulty": 1619578159453,
  "gasLimit": {
    "_hex": "0x2fefd8"
  },
  "gasUsed": {
    "_hex": "0x5208"
  },
  "miner": "0xbb7B8287f3F0a933474a79eAe42CBCa977791171",
  "extraData": "0x476574682f4c5649562f76312e302e312f6c696e75782f676f312e342e32",
  "transactions": [
    {
      "hash": "0x6bbe4afd427c1554c93068f60fca405fc55ef0a42290dcec1f785caf61133912",
      "blockHash": "0xe0108487cd4c10093a4213f9f903c5a91923cb196fc4a63b14a4ce478b905df4",
      "blockNumber": 54962,
      "transactionIndex": 0,
      "confirmations": null,
      "from": "0x1308A2e95c0160B90803ddCA9B9a5bb55E416d79",
      "gasPrice": {
        "_hex": "0xe8d4a51000"
      },
      "gasLimit": {
        "_hex": "0x15f90"
      },
      "to": "0xf209Ca113565d1890FB6F6Cd70051B931dd81bb1",
      "value": {
        "_hex": "0x2b31d2425f6740000"
      },
      "nonce": 27,
      "data": "0x",
      "r": "0x10da5f4218ecd9c7253d2ae05553dd8bfc74d3dc515383dfde158ac43564ebef",
      "s": "0x6d2290a9f9e7a2d6a3b8deb15c78f2f59b6624f7ada2942d9b1d86d12abdb221",
      "v": 27,
      "creates": null,
      "raw": "0xf86e1b85e8d4a5100083015f9094f209ca113565d1890fb6f6cd70051b931dd81bb18902b31d2425f6740000801ba010da5f4218ecd9c7253d2ae05553dd8bfc74d3dc515383dfde158ac43564ebefa06d2290a9f9e7a2d6a3b8deb15c78f2f59b6624f7ada2942d9b1d86d12abdb221",
      "networkId": 0,
      "chainId": 0
    }
  ]
}