{
  "hash": "0x11bc91ae8c22c0f625e1100b5f3bbeb1357f6e5da2eaa454ead3532840a0f113",
  "parentHash": "0xfeaacc6a233159a1bb49d596aa9218987f847b5c0fcd5aa02afa6bd658ce9a6e",
  "number": 74744,
  "timestamp": 1439391479,
  "nonce": "0x5bcc75b5dd4856af",
  "difficulty": 2202026028114,
  "gasLimit": {
    "_hex": "0x2fefd8"
  },
  "gasUsed": {
    "_hex": "0xbec4"
  },
  "miner": "0x4CF67c265Bb0E51CF92A0b3E37becCFd721a1506",
  "extraData": "0x476574682f76312e302e312d38326566323666362f6c696e75782f676f312e34",
  "transactions": [
    {
      "hash": "0x2c8e40078b341dd8660e077ac883f4a00c1797023deaa83c06a74dd6eaf24dd7",
      "blockHash": "0x11bc91ae8c22c0f625e1100b5f3bbeb1357f6e5da2eaa454ead3532840a0f113",
      "blockNumber": 74744,
      "transactionIndex": 0,
      "confirmations": null,
      "from": "0x326Be8F71bFb0379f989aAB1CC1fE37f0a771f60",
      "gasPrice": {
        "_hex": "0x1073c47a1f3"
      },
      "gasLimit": {
        "_hex": "0x15f90"
      },
      "to": "0x417705f7e5dbA87C3dB5Ce00295027Ae27bCaE0F",
      "value": {
        "_hex": "0xde0b6b3a7640000"
      },
      "nonce": 58,
      "data": "0x",
      "r": "0x47f3d779cfd6d5a30cbb9410d1648ddcf5c5a3e32cbb6e1ed0a33d82a946391e",
      "s": "0x5acf9732fa1cb3a93d4a9f5d955b3e53c19b88bc12ab2e9d71c9eab7e4e4a446",
      "v": 27,
      "creates": null,
      "raw": "0xf86e3a8601073c47a1f383015f9094417705f7e5dba87c3db5ce00295027ae27bcae0f880de0b6b3a7640000801ba047f3d779cfd6d5a30cbb9410d1648ddcf5c5a3e32cbb6e1ed0a33d82a946391ea05acf9732fa1cb3a93d4a9f5d955b3e53c19b88bc12ab2e9d71c9eab7e4e4a446",
      "networkId": 0,
      "chainId": 0
    },
    {
      "hash": "0xcd4fc4d10fee197e4aaffa53ac284486b5f77c015d3790b58a43edaa6c4dd37b",
      "blockHash": "0x11bc91ae8c22c0f625e1100b5f3bbeb1357f6e5da2eaa454ead3532840a0f113",
      "blockNumber": 74744,
      "transactionIndex": 1,
      "confirmations": null,
      "from": "0x9252f10822221Afe05035227D96a9b5B2b50349B",
      "gasPrice": {
        "_hex": "0xe0c474d81"
      },
      "gasLimit": {
        "_hex": "0x5208"
      },
      "to": "0x32Be343B94f860124dC4fEe278FDCBD38C102D88",
      "value": {
        "_hex": "0x40ba0fa18aa7400000"
      },
      "nonce": 2,
      "data": "0x",
      "r": "0x58a91864ad538aea70004bca7e9890a37bd2c924c5f0ff2efafa52955f6250a1",
      "s": "0x5477107c79a62434f66b0a8c8a1a70b55a268158f5182d24fdbfb1c76054810c",
      "v": 28,
      "creates": null,
      "raw": "0xf86d02850e0c474d818252089432be343b94f860124dc4fee278fdcbd38c102d888940ba0fa18aa7400000801ca058a91864ad538aea70004bca7e9890a37bd2c924c5f0ff2efafa52955f6250a1a05477107c79a62434f66b0a8c8a1a70b55a268158f5182d24fdbfb1c76054810c",
      "networkId": 0,
      "chainId": 0
    }
  ]
}