{
  "hash": "0x0556782c5548fdc2fea21eeee985fe94d0fd1a0855cdd0098fb6ab94c4007bcb",
  "parentHash": "0x1c32b4a2f09bd688fc8c5207c0efa17aed0ecb33e3a28dbe211ba00a4daff753",
  "number": 89838,
  "timestamp": 1439629900,
  "nonce": "0x1de37f514add741d",
  "difficulty": 3345112821492,
  "gasLimit": {
    "_hex": "0x2fefd8"
  },
  "gasUsed": {
    "_hex": "0x1ec30"
  },
  "miner": "0xC603Ab5ef41fC61AA8b76bEddb09e3Cfcbb174BD",
  "extraData": "0x476574682f76312e302e312f77696e646f77732f676f312e342e32",
  "transactions": [
    {
      "hash": "0xa2ae74b5fe62af3b6e4e2297f831a603b71be28f8639f3a431cf41de659b8868",
      "blockHash": "0x0556782c5548fdc2fea21eeee985fe94d0fd1a0855cdd0098fb6ab94c4007bcb",
      "blockNumber": 89838,
      "transactionIndex": 0,
      "confirmations": null,
      "from": "0x0617194e49BaAD419B57FB8EBba265E417362835",
      "gasPrice": {
        "_hex": "0xd297076cc"
      },
      "gasLimit": {
        "_hex": "0x15f90"
      },
      "to": "0x0F87Fb507513e749081E34373c84E95e85b5c057",
      "value": {
        "_hex": "0x27b2dbacb6943b80"
      },
      "nonce": 4,
      "data": "0x",
      "r": "0xb6d8a499851d7cec981109ceabf2ffc0fa60eecfcd122ba837d6680a6f9496ae",
      "s": "0x3f6ed2d610192dce290b4a56376654f68f83e6b613b14a9756b39112cab34caa",
      "v": 28,
      "creates": null,
      "raw": "0xf86d04850d297076cc83015f90940f87fb507513e749081e34373c84e95e85b5c0578827b2dbacb6943b80801ca0b6d8a499851d7cec981109ceabf2ffc0fa60eecfcd122ba837d6680a6f9496aea03f6ed2d610192dce290b4a56376654f68f83e6b613b14a9756b39112cab34caa",
      "networkId": 0,
      "chainId": 0
    },
    {
      "hash": "0xc7bf141cddd25ac77cfc420cd9124b9a8b1c5af708b8ec8deffe6221cd872b9d",
      "blockHash": "0x0556782c5548fdc2fea21eeee985fe94d0fd1a0855cdd0098fb6ab94c4007bcb",
      "blockNumber": 89838,
      "transactionIndex": 1,
      "confirmations": null,
      "from": "0xF2d2AfF1320476cb8C6b607199D23175cc595693",
      "gasPrice": {
        "_hex": "0xd1f6c3981"
      },
      "gasLimit": {
        "_hex": "0x15f90"
      },
      "to": "0xF5EeDc192aB70b08D8354384aD94efD095849E00",
      "value": {
        "_hex": "0x4e1003b28d9280000"
      },
      "nonce": 45,
      "data": "0x",
      "r": "0x575713691dd58536c060a41090a8adb08d48358cbb976e46d4d690a9182cb4d1",
      "s": "0x7973e8cb61b485affb47ebc2b8980c4d7510a4c319a48e855dfe85530d28c9ec",
      "v": 28,
      "creates": null,
      "raw": "0xf86e2d850d1f6c398183015f9094f5eedc192ab70b08d8354384ad94efd095849e008904e1003b28d9280000801ca0575713691dd58536c060a41090a8adb08d48358cbb976e46d4d690a9182cb4d1a07973e8cb61b485affb47ebc2b8980c4d7510a4c319a48e855dfe85530d28c9ec",
      "networkId": 0,
      "chainId": 0
    },
    {
      "hash": "0x76d8a7d05720ef80bdb00c876de584bec5d3a2c15b8285bd6806dd54d0b886df",
      "blockHash": "0x0556782c5548fdc2fea21eeee985fe94d0fd1a0855cdd0098fb6ab94c4007bcb",
      "blockNumber": 89838,
      "transactionIndex": 2,
      "confirmations": null,
      "from": "0x60781265e9850f54AE0Bc9545948d05DeE6FC3e3",
      "gasPrice": {
        "_hex": "0xd139612fa"
      },
      "gasLimit": {
        "_hex": "0x5208"
      },
      "to": "0x32Be343B94f860124dC4fEe278FDCBD38C102D88",
      "value": {
        "_hex": "0x9b1e58c31091b000"
      },
      "nonce": 6,
      "data": "0x",
      "r": "0x67689a9144044bc1338963cd92b6f032a05284aef60d4ed1bbaaa9d630073ddd",
      "s": "0x109ea47db9324534f06f5de3d176651162ec97fdca87a30933237bde332ed3b3",
      "v": 28,
      "creates": null,
      "raw": "0xf86c06850d139612fa8252089432be343b94f860124dc4fee278fdcbd38c102d88889b1e58c31091b000801ca067689a9144044bc1338963cd92b6f032a05284aef60d4ed1bbaaa9d630073ddda0109ea47db9324534f06f5de3d176651162ec97fdca87a30933237bde332ed3b3",
      "networkId": 0,
      "chainId": 0
    },
    {
      "hash": "0x2766bf6336d6da1e7672c6be4cf0570df2fab66d2dea24ef69f08702c2b12f85",
      "blockHash": "0x0556782c5548fdc2fea21eeee985fe94d0fd1a0855cdd0098fb6ab94c4007bcb",
      "blockNumber": 89838,
      "transactionIndex": 3,
      "confirmations": null,
      "from": "0x6599C9c86f1635FAAEFE7A5540914811DAD8d167",
      "gasPrice": {
        "_hex": "0xd139612fa"
      },
      "gasLimit": {
        "_hex": "0x5208"
      },
      "to": "0x32Be343B94f860124dC4fEe278FDCBD38C102D88",
      "value": {
        "_hex": "0xa6639a7e3ec44800"
      },
      "nonce": 3,
      "data": "0x",
      "r": "0x718e36b256aeca515160ce327694393f9bf08205961a53407265fc76024795fc",
      "s": "0x5ac5e2d3ebe7fd599d467d98a0e85e1287be8dc0e40b237d06a1b6b08e1871d5",
      "v": 28,
      "creates": null,
      "raw": "0xf86c03850d139612fa8252089432be343b94f860124dc4fee278fdcbd38c102d8888a6639a7e3ec44800801ca0718e36b256aeca515160ce327694393f9bf08205961a53407265fc76024795fca05ac5e2d3ebe7fd599d467d98a0e85e1287be8dc0e40b237d06a1b6b08e1871d5",
      "networkId": 0,
      "chainId": 0
    },
    {
      "hash": "0x1bf1a47b4903c03ff69a635d579c36cf53aefa026edb93f54a8d3e5263c37780",
      "blockHash": "0x0556782c5548fdc2fea21eeee985fe94d0fd1a0855cdd0098fb6ab94c4007bcb",
      "blockNumber": 89838,
      "transactionIndex": 4,
      "confirmations": null,
      "from": "0x1CaC89419da71AC175A5B99CEE0163720430990c",
      "gasPrice": {
        "_hex": "0xd139612fa"
      },
      "gasLimit": {
        "_hex": "0x5208"
      },
      "to": "0x32Be343B94f860124dC4fEe278FDCBD38C102D88",
      "value": {
        "_hex": "0x1d502ad43b1dba000"
      },
      "nonce": 4,
      "data": "0x",
      "r": "0xe3bb80daeb630d3670e28d64c808336272e98a7ae95378e25ec64d7c445c6c7d",
      "s": "0x3bad002711cce28d12644877d818d5987ecfe379d44b05c19cb752cfe80eb400",
      "v": 27,
      "creates": null,
      "raw": "0xf86d04850d139612fa8252089432be343b94f860124dc4fee278fdcbd38c102d888901d502ad43b1dba000801ba0e3bb80daeb630d3670e28d64c808336272e98a7ae95378e25ec64d7c445c6c7da03bad002711cce28d12644877d818d5987ecfe379d44b05c19cb752cfe80eb400",
      "networkId": 0,
      "chainId": 0
    },
    {
      "hash": "0x087822f67acb184396400919803c2cd188bbd4305aaeb78690af10f058005a77",
      "blockHash": "0x0556782c5548fdc2fea21eeee985fe94d0fd1a0855cdd0098fb6ab94c4007bcb",
      "blockNumber": 89838,
      "transactionIndex": 5,
      "confirmations": null,
      "from": "0x0d62E666D681E8Be96903Ac4aBD3537f28c6125A",
      "gasPrice": {
        "_hex": "0xd139612fa"
      },
      "gasLimit": {
        "_hex": "0x5208"
      },
      "to": "0x32Be343B94f860124dC4fEe278FDCBD38C102D88",
      "value": {
        "_hex": "0x9547f9e10e43c800"
      },
      "nonce": 3,
      "data": "0x",
      "r": "0xdbd82c953eee7e4edb1af3b64253794af07e220ed152c5149565009c0973b006",
      "s": "0x601f6c2533aeef03b386c74e12d5008b4ce3f7e0e0c57a0784277a459cd9649f",
      "v": 28,
      "creates": null,
      "raw": "0xf86c03850d139612fa8252089432be343b94f860124dc4fee278fdcbd38c102d88889547f9e10e43c800801ca0dbd82c953eee7e4edb1af3b64253794af07e220ed152c5149565009c0973b006a0601f6c2533aeef03b386c74e12d5008b4ce3f7e0e0c57a0784277a459cd9649f",
      "networkId": 0,
      "chainId": 0
    }
  ]
}