{
  "hash": "0x3fa553ed4f7ef06807cca038faf1ab77fcbab70eb77d4034bec40b1e5a78b274",
  "parentHash": "0xcabbc924918f48479bddaf95cb59d70fd1e7fa0c32817d3a27b8a17ff1515278",
  "number": 91057,
  "timestamp": 1439649789,
  "nonce": "0xbb9f65e45ca95690",
  "difficulty": 3432311749378,
  "gasLimit": {
    "_hex": "0x2fefd8"
  },
  "gasUsed": {
    "_hex": "0x5208"
  },
  "miner": "0xe6A7a1d47ff21B6321162AEA7C6CB457D5476Bca",
  "extraData": "0x476574682f76312e302e312d38326566323666362f6c696e75782f676f312e34",
  "transactions": [
    {
      "hash": "0x4e4f8136adc7ffef6560c411e7ada5f1dfe04f018f92bbdd6a2b981109c462f7",
      "blockHash": "0x3fa553ed4f7ef06807cca038faf1ab77fcbab70eb77d4034bec40b1e5a78b274",
      "blockNumber": 91057,
      "transactionIndex": 0,
      "confirmations": null,
      "from": "0x32Be343B94f860124dC4fEe278FDCBD38C102D88",
      "gasPrice": {
        "_hex": "0xd12476a39"
      },
      "gasLimit": {
        "_hex": "0x5208"
      },
      "to": "0xF967Da062B75e9e465BF42849A2199031dfC60bF",
      "value": {
        "_hex": "0x116cd0347dfaf000"
      },
      "nonce": 867,
      "data": "0x",
      "r": "0x93f55d8758e1edb0a33a36fef9b5cbf6cfb0136182b790be7be4e229088b13aa",
      "s": "0x7257b964b94ad03ca78cb90a8f7471110aeda7a9f5b440d7e49636cc504a10a9",
      "v": 27,
      "creates": null,
      "raw": "0xf86e820363850d12476a3982520894f967da062b75e9e465bf42849a2199031dfc60bf88116cd0347dfaf000801ba093f55d8758e1edb0a33a36fef9b5cbf6cfb0136182b790be7be4e229088b13aaa07257b964b94ad03ca78cb90a8f7471110aeda7a9f5b440d7e49636cc504a10a9",
      "networkId": 0,
      "chainId": 0
    }
  ]
}