{
  "hash": "0x1524d67e9baf91533b7679e3ee47dddaf2cdbdae0bf3dd2b9391cb7a5338a72d",
  "parentHash": "0x3ebe34f97e758357afc43dd74f503016c941737f168ba736e2f2cca0322b23d5",
  "number": 103319,
  "timestamp": 1439851281,
  "nonce": "0x4d20b5115de96197",
  "difficulty": 4174680839287,
  "gasLimit": {
    "_hex": "0x2fefd8"
  },
  "gasUsed": {
    "_hex": "0x5208"
  },
  "miner": "0x580992B51e3925e23280EfB93d3047C82f17E038",
  "extraData": "0x476574682f76312e302e312f6c696e75782f676f312e342e32",
  "transactions": [
    {
      "hash": "0xc8334fb35f2409c02d3cf85b0f22ed5d07b424d49d3aa3ef84362c117c00bd19",
      "blockHash": "0x1524d67e9baf91533b7679e3ee47dddaf2cdbdae0bf3dd2b9391cb7a5338a72d",
      "blockNumber": 103319,
      "transactionIndex": 0,
      "confirmations": null,
      "from": "0x007f7f58D3eb5b7510A301eCC749FC1fCDDBE14D",
      "gasPrice": {
        "_hex": "0xe0cfe7246"
      },
      "gasLimit": {
        "_hex": "0x15f90"
      },
      "to": "0xb1abce2918E21ddb93AA452731a12672A3d9F75a",
      "value": {
        "_hex": "0x4563918244f40000"
      },
      "nonce": 223,
      "data": "0x",
      "r": "0x6881331f1e5bc6e589df19af25a576abe91ebdebce4303415cc1726ef29ae617",
      "s": "0x134490d7fbdec11ff67e655d14f57f390d688a1c1fa2f9d178ac030f4d850c6f",
      "v": 28,
      "creates": null,
      "raw": "0xf86e81df850e0cfe724683015f9094b1abce2918e21ddb93aa452731a12672a3d9f75a884563918244f40000801ca06881331f1e5bc6e589df19af25a576abe91ebdebce4303415cc1726ef29ae617a0134490d7fbdec11ff67e655d14f57f390d688a1c1fa2f9d178ac030f4d850c6f",
      "networkId": 0,
      "chainId": 0
    }
  ]
}