{
  "hash": "0x5b9ff45e2a042a47625d63a96d3671c5684371a14b212809161fcd7b435be830",
  "parentHash": "0x5df29672f636f10da9f7340c05ed472219e9d28ef86d4acfeb85df06ac69789c",
  "number": 75296,
  "timestamp": 1439400796,
  "nonce": "0x8ab21612279fd983",
  "difficulty": 2204032456775,
  "gasLimit": {
    "_hex": "0x2fefd8"
  },
  "gasUsed": {
    "_hex": "0xad77"
  },
  "miner": "0x5F8F73E26CdF436f19Cb24C82F90A15AFe55b592",
  "extraData": "0x476574682f76312e302e312f77696e646f77732f676f312e342e32",
  "transactions": [
    {
      "hash": "0xd76ed98dc89bca9a925814e6623e1e333ef6e533a107ffcf3a0ea7057f7f92dc",
      "blockHash": "0x5b9ff45e2a042a47625d63a96d3671c5684371a14b212809161fcd7b435be830",
      "blockNumber": 75296,
      "transactionIndex": 0,
      "confirmations": null,
      "from": "0x87C5B5874A18B4306DF8a752a6C8cc3E82daFc19",
      "gasPrice": {
        "_hex": "0x10c60aa656d"
      },
      "gasLimit": {
        "_hex": "0x493e0"
      },
      "to": "0xD79B4C6791784184e2755B2fC1659eaaB0f80456",
      "value": {
        "_hex": "0x0"
      },
      "nonce": 41,
      "data": "0x03750d940000000000000000000000009724ac4dc56e03379eba5d157d1513ecc32cbd8f6539373861346264326565323938393400000000000000000000000000000000",
      "r": "0x4d9e25c7f0dccb4471c1c8cf3662f59ad4cdc6a5632059b2bee38a45d29f8060",
      "s": "0x2d26b3f6bcd3d03d555261cbb3e881d3d9074bb01210f67cd3548b4886e32a0a",
      "v": 28,
      "creates": null,
      "raw": "0xf8ab2986010c60aa656d830493e094d79b4c6791784184e2755b2fc1659eaab0f8045680b84403750d940000000000000000000000009724ac4dc56e03379eba5d157d1513ecc32cbd8f65393738613462643265653239383934000000000000000000000000000000001ca04d9e25c7f0dccb4471c1c8cf3662f59ad4cdc6a5632059b2bee38a45d29f8060a02d26b3f6bcd3d03d555261cbb3e881d3d9074bb01210f67cd3548b4886e32a0a",
      "networkId": 0,
      "chainId": 0
    }
  ]
}