{
  "hash": "0x5b6202acd1305fd13d18e771e780dc0916510b960452edd01e05b13c505594f8",
  "parentHash": "0x5327095a28c0e76ccde7ae9fe734905b294d5ac5b27be12e8d64d6c51751e9c6",
  "number": 72768,
  "timestamp": 1439357949,
  "nonce": "0xa83a7f8c0e8a6759",
  "difficulty": 2181140249436,
  "gasLimit": {
    "_hex": "0x2fefd8"
  },
  "gasUsed": {
    "_hex": "0x5208"
  },
  "miner": "0xEF247E639d49461D25F57e9362CadE3120910Ce0",
  "extraData": "0x476574682f76312e302e312f6c696e75782f676f312e342e32",
  "transactions": [
    {
      "hash": "0x09a300ede3e0fa73831f3095a85f33d404514902c0cb4cd368db60b1abdb95d5",
      "blockHash": "0x5b6202acd1305fd13d18e771e780dc0916510b960452edd01e05b13c505594f8",
      "blockNumber": 72768,
      "transactionIndex": 0,
      "confirmations": null,
      "from": "0x32Be343B94f860124dC4fEe278FDCBD38C102D88",
      "gasPrice": {
        "_hex": "0xcffc9761f"
      },
      "gasLimit": {
        "_hex": "0x5208"
      },
      "to": "0x4BD5f0Ee173C81d42765154865EE69361b6aD189",
      "value": {
        "_hex": "0x8aa39c121a270000"
      },
      "nonce": 282,
      "data": "0x",
      "r": "0x464dd5c39086d9bf5dfa27fa8a01899a5130d07d1a375d0c3d7c3c5cdab80dc6",
      "s": "0x15563a7622678be70461dbe30378d7ff01933001357292c0ce94f40da7767831",
      "v": 28,
      "creates": null,
      "raw": "0xf86e82011a850cffc9761f825208944bd5f0ee173c81d42765154865ee69361b6ad189888aa39c121a270000801ca0464dd5c39086d9bf5dfa27fa8a01899a5130d07d1a375d0c3d7c3c5cdab80dc6a015563a7622678be70461dbe30378d7ff01933001357292c0ce94f40da7767831",
      "networkId": 0,
      "chainId": 0
    }
  ]
}