{
  "hash": "0x32a187f8cd6780294126e3b2210d38f11ef5f2f50fc79fb99859cfdb78a42761",
  "parentHash": "0x4a43a7dc51ef712e3bbe4ac08a0b5696da91cd2f156269bd587694c1b627708f",
  "number": 58795,
  "timestamp": 1439126702,
  "nonce": "0xcb9841d248305e9e",
  "difficulty": 1714013508546,
  "gasLimit": {
    "_hex": "0x2fefd8"
  },
  "gasUsed": {
    "_hex": "0x5208"
  },
  "miner": "0x02020D22dCF88f5eDd66B382D7da019F161fB7e3",
  "extraData": "0x",
  "transactions": [
    {
      "hash": "0x5217a28d642dc1f0dc71358fac7494636e54c2132826c89856a386662420ffae",
      "blockHash": "0x32a187f8cd6780294126e3b2210d38f11ef5f2f50fc79fb99859cfdb78a42761",
      "blockNumber": 58795,
      "transactionIndex": 0,
      "confirmations": null,
      "from": "0x0eDEd3DA479d0beF8eeC92A76644D3f4E3C177f7",
      "gasPrice": {
        "_hex": "0xd4d60fd20"
      },
      "gasLimit": {
        "_hex": "0x15f90"
      },
      "to": "0x3f0073d6bBE51612013aA09BC970e08E84D7BA23",
      "value": {
        "_hex": "0x10b25bd02564500000"
      },
      "nonce": 5,
      "data": "0x",
      "r": "0x022b496f3175e5ce3c17de3c325a05afc4e3deb83fbec48de909896be1d36b26",
      "s": "0x21c90214c4eeab7954a6f362a192e0db57dc8e248dbda71e51421298e3093317",
      "v": 28,
      "creates": null,
      "raw": "0xf86e05850d4d60fd2083015f90943f0073d6bbe51612013aa09bc970e08e84d7ba238910b25bd02564500000801ca0022b496f3175e5ce3c17de3c325a05afc4e3deb83fbec48de909896be1d36b26a021c90214c4eeab7954a6f362a192e0db57dc8e248dbda71e51421298e3093317",
      "networkId": 0,
      "chainId": 0
    }
  ]
}