{
  "hash": "0x566464c312930de642116e3011cfcc5dc79eeabd17b7cfbbb68f5fb817ec4bac",
  "parentHash": "0xfa69e9cc54bd64aa0f1f290e20a2bff5a65a5566a9e6ae3524a38be508d93339",
  "number": 83689,
  "timestamp": 1439539131,
  "nonce": "0x1ba70f2e0c8c4a75",
  "difficulty": 2443159327811,
  "gasLimit": {
    "_hex": "0x2fefd8"
  },
  "gasUsed": {
    "_hex": "0x5208"
  },
  "miner": "0x019D3FA6E3cdA649b26F74395A846575c7bEA14C",
  "extraData": "0x",
  "transactions": [
    {
      "hash": "0x68a4750444227f72c9dd9ad08988e9784ed29553fcfad419c37e10131150694c",
      "blockHash": "0x566464c312930de642116e3011cfcc5dc79eeabd17b7cfbbb68f5fb817ec4bac",
      "blockNumber": 83689,
      "transactionIndex": 0,
      "confirmations": null,
      "from": "0xDA3399B554b6Ab5Da37Dc30F7211076390B672AB",
      "gasPrice": {
        "_hex": "0xcb20209e5"
      },
      "gasLimit": {
        "_hex": "0x5208"
      },
      "to": "0x428780201c611BD04Cb80F1C3f0a54F6B4D9f8a7",
      "value": {
        "_hex": "0xde0b6b3a7640000"
      },
      "nonce": 0,
      "data": "0x",
      "r": "0x796bcea440654992f31755919dba1eb4f2c14b4ac6e954f62a438588dc68aff2",
      "s": "0x3af0b502185bcb11c929b2a28d477652f8f68eb6b36822053827e21f33d62ed3",
      "v": 28,
      "creates": null,
      "raw": "0xf86c80850cb20209e582520894428780201c611bd04cb80f1c3f0a54f6b4d9f8a7880de0b6b3a7640000801ca0796bcea440654992f31755919dba1eb4f2c14b4ac6e954f62a438588dc68aff2a03af0b502185bcb11c929b2a28d477652f8f68eb6b36822053827e21f33d62ed3",
      "networkId": 0,
      "chainId": 0
    }
  ]
}