{
  "hash": "0x7c422233a8312743ae88ba3f1686c678a32f76bd073b2b3e342f16c8d86f3d6e",
  "parentHash": "0x52cf8d1b2ef45797e6337f2db4379c3c48d7e52a5998123bb9c2af3681df79df",
  "number": 116077,
  "timestamp": 1440067954,
  "nonce": "0x2754899efc6b2733",
  "difficulty": 4609424366212,
  "gasLimit": {
    "_hex": "0x2fefd8"
  },
  "gasUsed": {
    "_hex": "0x5208"
  },
  "miner": "0xe6A7a1d47ff21B6321162AEA7C6CB457D5476Bca",
  "extraData": "0x476574682f76312e302e312d38326566323666362f6c696e75782f676f312e34",
  "transactions": [
    {
      "hash": "0x84b0a86e99a60b2c1e85f6ce2cd1a94834e36b46fabafedd8877aec74892d66b",
      "blockHash": "0x7c422233a8312743ae88ba3f1686c678a32f76bd073b2b3e342f16c8d86f3d6e",
      "blockNumber": 116077,
      "transactionIndex": 0,
      "confirmations": null,
      "from": "0x32Be343B94f860124dC4fEe278FDCBD38C102D88",
      "gasPrice": {
        "_hex": "0xccf64d9d0"
      },
      "gasLimit": {
        "_hex": "0x5208"
      },
      "to": "0x8F68fbE2DCFf038C24F650C9e05Ee478038171cd",
      "value": {
        "_hex": "0x3635a626d36ee00000"
      },
      "nonce": 1456,
      "data": "0x",
      "r": "0x5512cf05f3e02280e382c13a7352421b1c2b285c1eb07484783278bad1a3583d",
      "s": "0x35fb630a3728a4196dbfc8ef87652c3641c55ad2410d19aaa332f53208fb30df",
      "v": 27,
      "creates": null,
      "raw": "0xf86f8205b0850ccf64d9d0825208948f68fbe2dcff038c24f650c9e05ee478038171cd893635a626d36ee00000801ba05512cf05f3e02280e382c13a7352421b1c2b285c1eb07484783278bad1a3583da035fb630a3728a4196dbfc8ef87652c3641c55ad2410d19aaa332f53208fb30df",
      "networkId": 0,
      "chainId": 0
    }
  ]
}