{
  "hash": "0xea6c389df99755289e445b7d59a977196f58997e9e69f356e2cd412c638bd341",
  "parentHash": "0xbdcc2f2a9e90d34db28c3c1fd643bdbad29bf61d9607f76026366c9812e2d9c8",
  "number": 65154,
  "timestamp": 1439232165,
  "nonce": "0x9d80535e4775ddd3",
  "difficulty": 1936027615380,
  "gasLimit": {
    "_hex": "0x2fefd8"
  },
  "gasUsed": {
    "_hex": "0xf618"
  },
  "miner": "0x39A1BB80a741bF5EC39FB9BE59408Fa0F418fFBf",
  "extraData": "0x476574682f76312e302e312f77696e646f77732f676f312e342e32",
  "transactions": [
    {
      "hash": "0xd76d1f54fbbb9a6d3f7f670d248779c6ab9d01d6ebbfaff850f71f01d69aa942",
      "blockHash": "0xea6c389df99755289e445b7d59a977196f58997e9e69f356e2cd412c638bd341",
      "blockNumber": 65154,
      "transactionIndex": 0,
      "confirmations": null,
      "from": "0xA3ae368338394a7db22Cdd0d0250005091625A9A",
      "gasPrice": {
        "_hex": "0xba43b7400"
      },
      "gasLimit": {
        "_hex": "0x5208"
      },
      "to": "0x3F70ca8a53dC13C12BcAC33eADAA6769Ac8D7877",
      "value": {
        "_hex": "0x574e75067073000"
      },
      "nonce": 1,
      "data": "0x",
      "r": "0xa35200d65d1a746d7e87b38a36e8b5e5b9f75c6cb7238515412d2e1a8493cada",
      "s": "0x6f90a4782a065c4b79b0ddfa76cbdfcbd34e467688f6769c0a4a08f15110bfa8",
      "v": 28,
      "creates": null,
      "raw": "0xf86c01850ba43b7400825208943f70ca8a53dc13c12bcac33eadaa6769ac8d7877880574e75067073000801ca0a35200d65d1a746d7e87b38a36e8b5e5b9f75c6cb7238515412d2e1a8493cadaa06f90a4782a065c4b79b0ddfa76cbdfcbd34e467688f6769c0a4a08f15110bfa8",
      "networkId": 0,
      "chainId": 0
    },
    {
      "hash": "0xf2748165a846727c779ddd43e9825a0f077db74c823c9f568a15e40b51a87a8c",
      "blockHash": "0xea6c389df99755289e445b7d59a977196f58997e9e69f356e2cd412c638bd341",
      "blockNumber": 65154,
      "transactionIndex": 1,
      "confirmations": null,
      "from": "0x15e1C47974Cff16E4F82aE97a444EA7BA3cF1a1E",
      "gasPrice": {
        "_hex": "0xba43b7400"
      },
      "gasLimit": {
        "_hex": "0x186a0"
      },
      "to": "0x0000000000000000000000000000000000000000",
      "value": {
        "_hex": "0x20324bb546e8000"
      },
      "nonce": 0,
      "data": "0x",
      "r": "0x65066b14e20fae9725b9056c1faa31c7c9534e535531963244e55ab6210917a1",
      "s": "0x7ce8cd8b373af6baac9ee09050aab65147e73798d8966d0493402971dde09d6b",
      "v": 27,
      "creates": null,
      "raw": "0xf86d80850ba43b7400830186a094000000000000000000000000000000000000000088020324bb546e8000801ba065066b14e20fae9725b9056c1faa31c7c9534e535531963244e55ab6210917a1a07ce8cd8b373af6baac9ee09050aab65147e73798d8966d0493402971dde09d6b",
      "networkId": 0,
      "chainId": 0
    },
    {
      "hash": "0x1617d624208bddc30f989522cf9d82d4eba0a216f53ec6a18c4da9aa676523aa",
      "blockHash": "0xea6c389df99755289e445b7d59a977196f58997e9e69f356e2cd412c638bd341",
      "blockNumber": 65154,
      "transactionIndex": 2,
      "confirmations": null,
      "from": "0x98e470619503F8B1dBbA9b9689C21e380d178C17",
      "gasPrice": {
        "_hex": "0xba43b7400"
      },
      "gasLimit": {
        "_hex": "0x5208"
      },
      "to": "0x5f0734783AFB7C2bF24cF6062764799BDAfDd822",
      "value": {
        "_hex": "0x5d17403cd48f000"
      },
      "nonce": 1,
      "data": "0x",
      "r": "0x5fe6d05ddb8bd52e44a24f2e43e4ee7d948ac26dc0e90ad808e4dd6a5bf939cf",
      "s": "0x67bf6899e784360261d0279d14b51cbff5bbf3344ffbcb2e64843e4550b51b15",
      "v": 27,
      "creates": null,
      "raw": "0xf86c01850ba43b7400825208945f0734783afb7c2bf24cf6062764799bdafdd8228805d17403cd48f000801ba05fe6d05ddb8bd52e44a24f2e43e4ee7d948ac26dc0e90ad808e4dd6a5bf939cfa067bf6899e784360261d0279d14b51cbff5bbf3344ffbcb2e64843e4550b51b15",
      "networkId": 0,
      "chainId": 0
    }
  ]
}