{
  "hash": "0x64307f14f638c288f6eb1d724aa63f885640c6e42b9a79fb1eb8a8febd5a14d4",
  "parentHash": "0xc224d8e23de8e999271ad8c4dbd31db3acc14980d6d72f7405089ec54491c6f3",
  "number": 119386,
  "timestamp": 1440141898,
  "nonce": "0x6f5ed9909a766971",
  "difficulty": 4420286927717,
  "gasLimit": {
    "_hex": "0x2fefd8"
  },
  "gasUsed": {
    "_hex": "0x29040"
  },
  "miner": "0xbb7B8287f3F0a933474a79eAe42CBCa977791171",
  "extraData": "0xd783010003844765746887676f312e342e32856c696e7578",
  "transactions": [
    {
      "hash": "0x516995633f88e444c5dcb9de8a3f0b418871d03701b29b6437377ec6acffb725",
      "blockHash": "0x64307f14f638c288f6eb1d724aa63f885640c6e42b9a79fb1eb8a8febd5a14d4",
      "blockNumber": 119386,
      "transactionIndex": 0,
      "confirmations": null,
      "from": "0xe6A7a1d47ff21B6321162AEA7C6CB457D5476Bca",
      "gasPrice": {
        "_hex": "0xba43b7400"
      },
      "gasLimit": {
        "_hex": "0x55f0"
      },
      "to": "0xCCe96724c29e042F35bCe1c2405feB0e8E30082b",
      "value": {
        "_hex": "0x9abe68893fe5f0a8"
      },
      "nonce": 6353,
      "data": "0x",
      "r": "0x63cc0141046c7d49cab08bd641a4cbe9521dc9ae31bbc4b96088fb519a5bb020",
      "s": "0x059566dc82c02a535846d389d4414b68098ed7286177c626877f8c5cd9ace8f3",
      "v": 28,
      "creates": null,
      "raw": "0xf86e8218d1850ba43b74008255f094cce96724c29e042f35bce1c2405feb0e8e30082b889abe68893fe5f0a8801ca063cc0141046c7d49cab08bd641a4cbe9521dc9ae31bbc4b96088fb519a5bb020a0059566dc82c02a535846d389d4414b68098ed7286177c626877f8c5cd9ace8f3",
      "networkId": 0,
      "chainId": 0
    },
    {
      "hash": "0xe002a39c0448751275ada7e57e1e0280de8805e4065762c15bac81e982265b9b",
      "blockHash": "0x64307f14f638c288f6eb1d724aa63f885640c6e42b9a79fb1eb8a8febd5a14d4",
      "blockNumber": 119386,
      "transactionIndex": 1,
      "confirmations": null,
      "from": "0xec4B2cCFC84A4C62d73D56c44917986aAAaEe10f",
      "gasPrice": {
        "_hex": "0xba43b7400"
      },
      "gasLimit": {
        "_hex": "0x5208"
      },
      "to": "0x32Be343B94f860124dC4fEe278FDCBD38C102D88",
      "value": {
        "_hex": "0x328989c452b5d400"
      },
      "nonce": 10,
      "data": "0x",
      "r": "0x198f94268037ac23be80bb7b57fca61d1cdccf20bd88d14ba71346e184663fef",
      "s": "0x3877a5ff4d04ee6fa6e473a21d2dcd09a45f67d0a134026bee6832db50d6648d",
      "v": 27,
      "creates": null,
      "raw": "0xf86c0a850ba43b74008252089432be343b94f860124dc4fee278fdcbd38c102d8888328989c452b5d400801ba0198f94268037ac23be80bb7b57fca61d1cdccf20bd88d14ba71346e184663fefa03877a5ff4d04ee6fa6e473a21d2dcd09a45f67d0a134026bee6832db50d6648d",
      "networkId": 0,
      "chainId": 0
    },
    {
      "hash": "0xa0f0c40b8fbf998ae09b9c0be0fecb4497ecf309f75438a272018942c0674c7a",
      "blockHash": "0x64307f14f638c288f6eb1d724aa63f885640c6e42b9a79fb1eb8a8febd5a14d4",
      "blockNumber": 119386,
      "transactionIndex": 2,
      "confirmations": null,
      "from": "0xe6A7a1d47ff21B6321162AEA7C6CB457D5476Bca",
      "gasPrice": {
        "_hex": "0xba43b7400"
      },
      "gasLimit": {
        "_hex": "0x55f0"
      },
      "to": "0xA971748c4C493bC96C7d490E1789481e1E96bB10",
      "value": {
        "_hex": "0xace9bc723b2f48a0"
      },
      "nonce": 6354,
      "data": "0x",
      "r": "0x439e5c3e66317c9c61c5d73bfff7f39b0278dd99f8cbaaeb4b68c4576622914c",
      "s": "0x266a944fb0af781649b34c172bf90b4d6cb320e67a0e9c6aa07c38dda9ddd1ac",
      "v": 28,
      "creates": null,
      "raw": "0xf86e8218d2850ba43b74008255f094a971748c4c493bc96c7d490e1789481e1e96bb1088ace9bc723b2f48a0801ca0439e5c3e66317c9c61c5d73bfff7f39b0278dd99f8cbaaeb4b68c4576622914ca0266a944fb0af781649b34c172bf90b4d6cb320e67a0e9c6aa07c38dda9ddd1ac",
      "networkId": 0,
      "chainId": 0
    },
    {
      "hash": "0xe21c769a33592d8b2ab08f8368e326224bc5a6073ea1776caeefa171f110e0f4",
      "blockHash": "0x64307f14f638c288f6eb1d724aa63f885640c6e42b9a79fb1eb8a8febd5a14d4",
      "blockNumber": 119386,
      "transactionIndex": 3,
      "confirmations": null,
      "from": "0xC15233674F0Cb7729e4Ab8aB733430C40580914d",
      "gasPrice": {
        "_hex": "0xba43b7400"
      },
      "gasLimit": {
        "_hex": "0x5208"
      },
      "to": "0x32Be343B94f860124dC4fEe278FDCBD38C102D88",
      "value": {
        "_hex": "0x30f5435166289800"
      },
      "nonce": 12,
      "data": "0x",
      "r": "0x78e1163c4ca20d0676e697d138c0a0d6a4b504a7347c44e9610d02baaf03b10b",
      "s": "0x6d4b9442020c464d07896619bbe4503717d8125f81ca2e0201d9da3c5c3bbfce",
      "v": 27,
      "creates": null,
      "raw": "0xf86c0c850ba43b74008252089432be343b94f860124dc4fee278fdcbd38c102d888830f5435166289800801ba078e1163c4ca20d0676e697d138c0a0d6a4b504a7347c44e9610d02baaf03b10ba06d4b9442020c464d07896619bbe4503717d8125f81ca2e0201d9da3c5c3bbfce",
      "networkId": 0,
      "chainId": 0
    },
    {
      "hash": "0xc91d3aeb32a5cdaae21e49e9b26b5f06e6984487fbe4caf921d59afc05adbd8f",
      "blockHash": "0x64307f14f638c288f6eb1d724aa63f885640c6e42b9a79fb1eb8a8febd5a14d4",
      "blockNumber": 119386,
      "transactionIndex": 4,
      "confirmations": null,
      "from": "0xB415e74b9b5B2058EF3541265aaF7ce09C4953bc",
      "gasPrice": {
        "_hex": "0xba43b7400"
      },
      "gasLimit": {
        "_hex": "0x5208"
      },
      "to": "0x32Be343B94f860124dC4fEe278FDCBD38C102D88",
      "value": {
        "_hex": "0x5e15bb329513a000"
      },
      "nonce": 12,
      "data": "0x",
      "r": "0xc04a485514f77b7318fc54f6e698f3aa07735d21bd74d5e117f6f2673afd04d2",
      "s": "0x77e8e39886d8d50c50e191958768b245f55f6bab7091ea703f945c3892f4afc8",
      "v": 28,
      "creates": null,
      "raw": "0xf86c0c850ba43b74008252089432be343b94f860124dc4fee278fdcbd38c102d88885e15bb329513a000801ca0c04a485514f77b7318fc54f6e698f3aa07735d21bd74d5e117f6f2673afd04d2a077e8e39886d8d50c50e191958768b245f55f6bab7091ea703f945c3892f4afc8",
      "networkId": 0,
      "chainId": 0
    },
    {
      "hash": "0xeeab2d9c01359d60cdfb432486184a477e80262ef8921f29f853583f5a3da643",
      "blockHash": "0x64307f14f638c288f6eb1d724aa63f885640c6e42b9a79fb1eb8a8febd5a14d4",
      "blockNumber": 119386,
      "transactionIndex": 5,
      "confirmations": null,
      "from": "0x5248EfBC7319bd65d436374266765D9727253F12",
      "gasPrice": {
        "_hex": "0xba43b7400"
      },
      "gasLimit": {
        "_hex": "0x5208"
      },
      "to": "0x32Be343B94f860124dC4fEe278FDCBD38C102D88",
      "value": {
        "_hex": "0x10621a38fc20f4000"
      },
      "nonce": 14,
      "data": "0x",
      "r": "0x014a09bf1ba60523fe7eaa975c07be92536fe5dcf825305a638ca8dc436137d9",
      "s": "0x0902d1bd0ca5396b83026fe1254c7f10dbfe999b188dabf0b85ec689598a9229",
      "v": 28,
      "creates": null,
      "raw": "0xf86d0e850ba43b74008252089432be343b94f860124dc4fee278fdcbd38c102d8889010621a38fc20f4000801ca0014a09bf1ba60523fe7eaa975c07be92536fe5dcf825305a638ca8dc436137d9a00902d1bd0ca5396b83026fe1254c7f10dbfe999b188dabf0b85ec689598a9229",
      "networkId": 0,
      "chainId": 0
    },
    {
      "hash": "0x22ff4b1a8e83e9066b9f79ecbc695de6688ecb7faa5190520cd53a152271c94a",
      "blockHash": "0x64307f14f638c288f6eb1d724aa63f885640c6e42b9a79fb1eb8a8febd5a14d4",
      "blockNumber": 119386,
      "transactionIndex": 6,
      "confirmations": null,
      "from": "0xcA422f88253D0492F13F304eBCF34892B3c07AEc",
      "gasPrice": {
        "_hex": "0xba43b7400"
      },
      "gasLimit": {
        "_hex": "0x5208"
      },
      "to": "0x32Be343B94f860124dC4fEe278FDCBD38C102D88",
      "value": {
        "_hex": "0x8ed6996c92c8d000"
      },
      "nonce": 10,
      "data": "0x",
      "r": "0x0a70675f62fa2201594cb0e30834f50acb89d20c7ec2a44bcccbe1356782f8dc",
      "s": "0x74be0b2ffb198891b10bf07e308fb1da598f4e9f9c075efa9f46fd62a786a6b3",
      "v": 27,
      "creates": null,
      "raw": "0xf86c0a850ba43b74008252089432be343b94f860124dc4fee278fdcbd38c102d88888ed6996c92c8d000801ba00a70675f62fa2201594cb0e30834f50acb89d20c7ec2a44bcccbe1356782f8dca074be0b2ffb198891b10bf07e308fb1da598f4e9f9c075efa9f46fd62a786a6b3",
      "networkId": 0,
      "chainId": 0
    },
    {
      "hash": "0xa0de3e1446e54e4b190167debf17cb7ba7a3fe2b528fe8b3baa1d1bdab7e0bc0",
      "blockHash": "0x64307f14f638c288f6eb1d724aa63f885640c6e42b9a79fb1eb8a8febd5a14d4",
      "blockNumber": 119386,
      "transactionIndex": 7,
      "confirmations": null,
      "from": "0x519DC97eF09491aE962A8F13fe144c71feca4662",
      "gasPrice": {
        "_hex": "0xba43b7400"
      },
      "gasLimit": {
        "_hex": "0x5208"
      },
      "to": "0x32Be343B94f860124dC4fEe278FDCBD38C102D88",
      "value": {
        "_hex": "0x2d377ed7a066c000"
      },
      "nonce": 15,
      "data": "0x",
      "r": "0x56f06ef41a976a1fd1918ab3992eb88fa8c9b835b623c9c83472eb31026d8c93",
      "s": "0x44e84fe82d50f25af864839f3b8a4d00b322753c45b7d9e2a6c5a51d96472836",
      "v": 27,
      "creates": null,
      "raw": "0xf86c0f850ba43b74008252089432be343b94f860124dc4fee278fdcbd38c102d88882d377ed7a066c000801ba056f06ef41a976a1fd1918ab3992eb88fa8c9b835b623c9c83472eb31026d8c93a044e84fe82d50f25af864839f3b8a4d00b322753c45b7d9e2a6c5a51d96472836",
      "networkId": 0,
      "chainId": 0
    }
  ]
}