{
  "hash": "0x0fe6c99d175d5a9a9e728972868c8efa35d88c99f05aad673d3c5573537ec692",
  "parentHash": "0x44910c3fb868898552106910923d4ac9354d73a5953e847c18b7f7c603487e9e",
  "number": 114263,
  "timestamp": 1440037602,
  "nonce": "0x7af9c50193bed1f3",
  "difficulty": 4464211770163,
  "gasLimit": {
    "_hex": "0x2fefd8"
  },
  "gasUsed": {
    "_hex": "0x5208"
  },
  "miner": "0xe6A7a1d47ff21B6321162AEA7C6CB457D5476Bca",
  "extraData": "0x476574682f76312e302e312d38326566323666362f6c696e75782f676f312e34",
  "transactions": [
    {
      "hash": "0x23696274fa78b883e99504ccbcb64e63cfd41ef54f69c200d511e4603a2c4db2",
      "blockHash": "0x0fe6c99d175d5a9a9e728972868c8efa35d88c99f05aad673d3c5573537ec692",
      "blockNumber": 114263,
      "transactionIndex": 0,
      "confirmations": null,
      "from": "0x120A270bbC009644e35F0bB6ab13f95b8199c4ad",
      "gasPrice": {
        "_hex": "0xd49b646cc"
      },
      "gasLimit": {
        "_hex": "0x3d090"
      },
      "to": "0xA1C2778bD875155d371Aa3dB27348c40Deaf7a9D",
      "value": {
        "_hex": "0x2086ac351052600000"
      },
      "nonce": 926,
      "data": "0x",
      "r": "0x32632eac0ac4d1fed922657ce67591b90916ee6d5d1beb09a2e3f33147ba2b8d",
      "s": "0x0eb1aa5956eae7cb6f430a852d9c051a502dd742da5f2a7e2f437225785c1bcb",
      "v": 27,
      "creates": null,
      "raw": "0xf87082039e850d49b646cc8303d09094a1c2778bd875155d371aa3db27348c40deaf7a9d892086ac351052600000801ba032632eac0ac4d1fed922657ce67591b90916ee6d5d1beb09a2e3f33147ba2b8da00eb1aa5956eae7cb6f430a852d9c051a502dd742da5f2a7e2f437225785c1bcb",
      "networkId": 0,
      "chainId": 0
    }
  ]
}