{
  "hash": "0x961bd02f425329998afabdab31efc8ba287c73d285d9b50740727518549dcfbc",
  "parentHash": "0x2cb675acb7be7383345c84bfb8710fbf4701dd690969efa1646c81d8d7bf4d23",
  "number": 114229,
  "timestamp": 1440037084,
  "nonce": "0x0313823da8e3be87",
  "difficulty": 4442484996319,
  "gasLimit": {
    "_hex": "0x2fefd8"
  },
  "gasUsed": {
    "_hex": "0x5208"
  },
  "miner": "0xb6E2d440C46510EC44266A3f58165E3956173df0",
  "extraData": "0x476574682f76312e302e312f77696e646f77732f676f312e342e32",
  "transactions": [
    {
      "hash": "0x57bf73148513dd668f3598974161cb982c7996a09561b882d2f86ce74bf97c1b",
      "blockHash": "0x961bd02f425329998afabdab31efc8ba287c73d285d9b50740727518549dcfbc",
      "blockNumber": 114229,
      "transactionIndex": 0,
      "confirmations": null,
      "from": "0x923067FD7d60328fec396e8305dCe9B30c37c137",
      "gasPrice": {
        "_hex": "0xd69190631"
      },
      "gasLimit": {
        "_hex": "0x15f90"
      },
      "to": "0x18c55cF8232ff1565E224b84AF1000951e3FfaAB",
      "value": {
        "_hex": "0xcdb0843955c84970"
      },
      "nonce": 1,
      "data": "0x",
      "r": "0xd342d60d563c2d84039f0eaea288b6f4996988e960e206a20c0aea89a7b51a5b",
      "s": "0x1a8c46e79f3811096edec192aefc67f1a7cd168555489f28ba9905df30bd8e40",
      "v": 28,
      "creates": null,
      "raw": "0xf86d01850d6919063183015f909418c55cf8232ff1565e224b84af1000951e3ffaab88cdb0843955c84970801ca0d342d60d563c2d84039f0eaea288b6f4996988e960e206a20c0aea89a7b51a5ba01a8c46e79f3811096edec192aefc67f1a7cd168555489f28ba9905df30bd8e40",
      "networkId": 0,
      "chainId": 0
    }
  ]
}