{
  "hash": "0x3f80be1f274755d44b00f4adc5e8e0867cb6564c4eacfeeb6527b83b5b6e5f03",
  "parentHash": "0x98fa8614ab8d6ebdf9fed557e65775de9f2462a4a5386cc36949acc30de048cc",
  "number": 109332,
  "timestamp": 1439954858,
  "nonce": "0x672450a0cbdf22f1",
  "difficulty": 4447250112783,
  "gasLimit": {
    "_hex": "0x2fefd8"
  },
  "gasUsed": {
    "_hex": "0x5208"
  },
  "miner": "0x20dff602D440dC119Bd3fF52E76f5cFE42Da65Fe",
  "extraData": "0x476574682f76312e302e312d38326566323666362f6c696e75782f676f312e34",
  "transactions": [
    {
      "hash": "0xaaceda1bbc450fe1779d0225cb1cf882855541e1c3564b92a7c58e65370b77cd",
      "blockHash": "0x3f80be1f274755d44b00f4adc5e8e0867cb6564c4eacfeeb6527b83b5b6e5f03",
      "blockNumber": 109332,
      "transactionIndex": 0,
      "confirmations": null,
      "from": "0xd70c667add50d3d9989Ef58A81a698c09f415Bff",
      "gasPrice": {
        "_hex": "0xd8565ea63"
      },
      "gasLimit": {
        "_hex": "0x15f90"
      },
      "to": "0x853Bff007d269E0526E871360d79d69D602770dc",
      "value": {
        "_hex": "0x6f4cc3821aa20000"
      },
      "nonce": 21,
      "data": "0x",
      "r": "0xf7544116210dd88f8ed9cce473fc52fdd9f788cfe3bd78a8d8806a60e26ede2c",
      "s": "0x54bd49cea75273971649271a87e5190a84f28be56f8c78987417ae3629288f11",
      "v": 27,
      "creates": null,
      "raw": "0xf86d15850d8565ea6383015f9094853bff007d269e0526e871360d79d69d602770dc886f4cc3821aa20000801ba0f7544116210dd88f8ed9cce473fc52fdd9f788cfe3bd78a8d8806a60e26ede2ca054bd49cea75273971649271a87e5190a84f28be56f8c78987417ae3629288f11",
      "networkId": 0,
      "chainId": 0
    }
  ]
}