{
  "hash": "0x7982db7cb9e54ef4a67823579bc6e99ac633e6bc4282e3c54897c1088b0d24c9",
  "parentHash": "0xdca772f8336956372f3e794004783006b17023fbbc444203264588de90437c35",
  "number": 119462,
  "timestamp": 1440143509,
  "nonce": "0xd732ba91150879ac",
  "difficulty": 4385848243669,
  "gasLimit": {
    "_hex": "0x2fefd8"
  },
  "gasUsed": {
    "_hex": "0x19a28"
  },
  "miner": "0x52bc44d5378309EE2abF1539BF71dE1b7d7bE3b5",
  "extraData": "0xd783010002844765746887676f312e342e32856c696e7578",
  "transactions": [
    {
      "hash": "0x531e364be39c38be9f425f3d81dd64ec840f60713b9372942ee061b4e6bb5f6e",
      "blockHash": "0x7982db7cb9e54ef4a67823579bc6e99ac633e6bc4282e3c54897c1088b0d24c9",
      "blockNumber": 119462,
      "transactionIndex": 0,
      "confirmations": null,
      "from": "0x665646727edaAEbB32B5F1A9b4e4F3BD867AA8fB",
      "gasPrice": {
        "_hex": "0xba43b7400"
      },
      "gasLimit": {
        "_hex": "0x5208"
      },
      "to": "0x32Be343B94f860124dC4fEe278FDCBD38C102D88",
      "value": {
        "_hex": "0x92c39b59cd9bf000"
      },
      "nonce": 9,
      "data": "0x",
      "r": "0xa314d5331086304e5b70e27338e0e59d335be90239091fe19f2979a6fecf69a1",
      "s": "0x147a6559a5304fb2ed0670fe0b7eae5f51bc2e64e660a8dcd1a5cb0248d2b1bc",
      "v": 28,
      "creates": null,
      "raw": "0xf86c09850ba43b74008252089432be343b94f860124dc4fee278fdcbd38c102d888892c39b59cd9bf000801ca0a314d5331086304e5b70e27338e0e59d335be90239091fe19f2979a6fecf69a1a0147a6559a5304fb2ed0670fe0b7eae5f51bc2e64e660a8dcd1a5cb0248d2b1bc",
      "networkId": 0,
      "chainId": 0
    },
    {
      "hash": "0x22da2ca858f2bf71cfaf0f28c6fc542c0568c4226f0008e7842e8f40be9f866d",
      "blockHash": "0x7982db7cb9e54ef4a67823579bc6e99ac633e6bc4282e3c54897c1088b0d24c9",
      "blockNumber": 119462,
      "transactionIndex": 1,
      "confirmations": null,
      "from": "0x59cC965F1643a68ad7a4272ff1654d4af4343ea7",
      "gasPrice": {
        "_hex": "0xba43b7400"
      },
      "gasLimit": {
        "_hex": "0x5208"
      },
      "to": "0x32Be343B94f860124dC4fEe278FDCBD38C102D88",
      "value": {
        "_hex": "0x38969ee5aa7422000"
      },
      "nonce": 9,
      "data": "0x",
      "r": "0x8071b4208d0f98ed8aa4deb911c4440b70162678eabc4c3466b03894de6864b1",
      "s": "0x77864f49485cb933ea5117d20c0b23ded70920b2996b5605a7e4db29237c982a",
      "v": 28,
      "creates": null,
      "raw": "0xf86d09850ba43b74008252089432be343b94f860124dc4fee278fdcbd38c102d8889038969ee5aa7422000801ca08071b4208d0f98ed8aa4deb911c4440b70162678eabc4c3466b03894de6864b1a077864f49485cb933ea5117d20c0b23ded70920b2996b5605a7e4db29237c982a",
      "networkId": 0,
      "chainId": 0
    },
    {
      "hash": "0xdad550377d51ec21ba26c661defc3b0e7402b139682cd06c664cbed552deeae8",
      "blockHash": "0x7982db7cb9e54ef4a67823579bc6e99ac633e6bc4282e3c54897c1088b0d24c9",
      "blockNumber": 119462,
      "transactionIndex": 2,
      "confirmations": null,
      "from": "0x5BeBc02e4CDF3e92B5a2947CfD1430c4EBBa4039",
      "gasPrice": {
        "_hex": "0xba43b7400"
      },
      "gasLimit": {
        "_hex": "0x5208"
      },
      "to": "0x32Be343B94f860124dC4fEe278FDCBD38C102D88",
      "value": {
        "_hex": "0x4436795529af2400"
      },
      "nonce": 9,
      "data": "0x",
      "r": "0x041b954769486b17545a1a030a79c709dc794287f15f2f09788d65cf0506919c",
      "s": "0x094fccafedb9265d9584514e4d1fb98f5691040d3a477cb622930e8a2a555aab",
      "v": 27,
      "creates": null,
      "raw": "0xf86c09850ba43b74008252089432be343b94f860124dc4fee278fdcbd38c102d88884436795529af2400801ba0041b954769486b17545a1a030a79c709dc794287f15f2f09788d65cf0506919ca0094fccafedb9265d9584514e4d1fb98f5691040d3a477cb622930e8a2a555aab",
      "networkId": 0,
      "chainId": 0
    },
    {
      "hash": "0x0e17819e45973f160ce1385e4bad84192bf9a5b4f991535fa1eaf4c014a742b6",
      "blockHash": "0x7982db7cb9e54ef4a67823579bc6e99ac633e6bc4282e3c54897c1088b0d24c9",
      "blockNumber": 119462,
      "transactionIndex": 3,
      "confirmations": null,
      "from": "0xF2B3F8Eb4e663dA275b8C57fe45A0E8D489Eac2E",
      "gasPrice": {
        "_hex": "0xba43b7400"
      },
      "gasLimit": {
        "_hex": "0x5208"
      },
      "to": "0x32Be343B94f860124dC4fEe278FDCBD38C102D88",
      "value": {
        "_hex": "0x1c22b7ff705f9400"
      },
      "nonce": 7,
      "data": "0x",
      "r": "0xf51a209c09d0fcbbb423d25ad552c19db35b649c3c110c4aef2e5f0e6243f12c",
      "s": "0x2f717695cb303ae3c765d06c3b419c0d0e276c5e7bb76de347a11143266b9e7a",
      "v": 27,
      "creates": null,
      "raw": "0xf86c07850ba43b74008252089432be343b94f860124dc4fee278fdcbd38c102d88881c22b7ff705f9400801ba0f51a209c09d0fcbbb423d25ad552c19db35b649c3c110c4aef2e5f0e6243f12ca02f717695cb303ae3c765d06c3b419c0d0e276c5e7bb76de347a11143266b9e7a",
      "networkId": 0,
      "chainId": 0
    },
    {
      "hash": "0x4c0281565cd2696ba0fbea11d4205afca64df42d2caf337c27b5a73ebc1841be",
      "blockHash": "0x7982db7cb9e54ef4a67823579bc6e99ac633e6bc4282e3c54897c1088b0d24c9",
      "blockNumber": 119462,
      "transactionIndex": 4,
      "confirmations": null,
      "from": "0x4a900C6a7785648E677cd96E39603466c0C7744A",
      "gasPrice": {
        "_hex": "0xba43b7400"
      },
      "gasLimit": {
        "_hex": "0x5208"
      },
      "to": "0x32Be343B94f860124dC4fEe278FDCBD38C102D88",
      "value": {
        "_hex": "0x4874cb27d6f83000"
      },
      "nonce": 10,
      "data": "0x",
      "r": "0x67c3209c1901531e4a5d48b06b4eecfb9330de2033630c8fac4c1bad2d62c4a5",
      "s": "0x61a411f6ad456c472ac78697116fd1e8d3a8be095caffc3f94783865131ff18c",
      "v": 28,
      "creates": null,
      "raw": "0xf86c0a850ba43b74008252089432be343b94f860124dc4fee278fdcbd38c102d88884874cb27d6f83000801ca067c3209c1901531e4a5d48b06b4eecfb9330de2033630c8fac4c1bad2d62c4a5a061a411f6ad456c472ac78697116fd1e8d3a8be095caffc3f94783865131ff18c",
      "networkId": 0,
      "chainId": 0
    }
  ]
}