{
  "hash": "0x08475fa198966de795bbb912fd353a21118a66f4b7079bfa280d966596988605",
  "parentHash": "0x7ea38b6c3e87656bfdd4a77a0ccf7ceadad2463e4447db41c3a98620eea7f40b",
  "number": 50486,
  "timestamp": 1438990064,
  "nonce": "0xceb3ae6af5a233da",
  "difficulty": 1508944247803,
  "gasLimit": {
    "_hex": "0x65faf"
  },
  "gasUsed": {
    "_hex": "0x1aefa"
  },
  "miner": "0xf927a40C8B7F6E07c5af7FA2155B4864a4112B13",
  "extraData": "0x476574682f76312e302e312f6c696e75782f676f312e342e32",
  "transactions": [
    {
      "hash": "0xe45172c2fb6b8d2d216ae03132dd6a196b614cd7dcbd9da1791283696a0c187d",
      "blockHash": "0x08475fa198966de795bbb912fd353a21118a66f4b7079bfa280d966596988605",
      "blockNumber": 50486,
      "transactionIndex": 0,
      "confirmations": null,
      "from": "0x17580B766f7453525ca4C6A88b01b50570EA088C",
      "gasPrice": {
        "_hex": "0xcf62f54e4"
      },
      "gasLimit": {
        "_hex": "0x493e0"
      },
      "to": "0x6e38A457C722C6011B2dfa06d49240e797844d66",
      "value": {
        "_hex": "0x0"
      },
      "nonce": 4,
      "data": "0xf3fe12c9000000000000000000000000000000000000000000000000000000000000002000000000000000000000000000000000000000000000000000000000000000204a6574206265616d732063616e2774206d656c7420737465656c206675656c2e",
      "r": "0xed19d8e789f960468daf5bb17de3537aecd92e3bc5cae58500d76f20ed3349a3",
      "s": "0x30d84ba16b244fe64ea29999f2538344e219875aa1024557361e3cd982372700",
      "v": 28,
      "creates": null,
      "raw": "0xf8ca04850cf62f54e4830493e0946e38a457c722c6011b2dfa06d49240e797844d6680b864f3fe12c9000000000000000000000000000000000000000000000000000000000000002000000000000000000000000000000000000000000000000000000000000000204a6574206265616d732063616e2774206d656c7420737465656c206675656c2e1ca0ed19d8e789f960468daf5bb17de3537aecd92e3bc5cae58500d76f20ed3349a3a030d84ba16b244fe64ea29999f2538344e219875aa1024557361e3cd982372700",
      "networkId": 0,
      "chainId": 0
    }
  ]
}