{
  "hash": "0xb631a3170bfa09a596b9280500ba682bc998b13ba20f7dd867ab17644c86e526",
  "parentHash": "0xfd724cb497aa05182aa6b78cdb0fef5791db29d35a268c334c935444633dd7a4",
  "number": 48420,
  "timestamp": 1438956806,
  "nonce": "0xc7f2a6c5d8edfd12",
  "difficulty": 1462879153246,
  "gasLimit": {
    "_hex": "0x1706f"
  },
  "gasUsed": {
    "_hex": "0x546c"
  },
  "miner": "0xbb7B8287f3F0a933474a79eAe42CBCa977791171",
  "extraData": "0x476574682f4c5649562f76312e302e312f6c696e75782f676f312e342e32",
  "transactions": [
    {
      "hash": "0x10cf1376754e7606990b529fed19a3b22decb27ee765275e015efdbf4dfc5a78",
      "blockHash": "0xb631a3170bfa09a596b9280500ba682bc998b13ba20f7dd867ab17644c86e526",
      "blockNumber": 48420,
      "transactionIndex": 0,
      "confirmations": null,
      "from": "0x1d60d424337de37E16eF2D1A71496C9fD596D7a5",
      "gasPrice": {
        "_hex": "0xdd9cef95a"
      },
      "gasLimit": {
        "_hex": "0x15f90"
      },
      "to": "0x2910543Af39abA0Cd09dBb2D50200b3E800A63D2",
      "value": {
        "_hex": "0x1b1ae4d6e2ef500000"
      },
      "nonce": 1,
      "data": "0x454e3857344d584a47",
      "r": "0x21329f198c579de2aa6ff50f6b4e5044ae43341784aa61916c4366d68cd33a22",
      "s": "0x4e2bf1c5b2de19f92eb5110711cca97e6e147d53bf1d2400a988763b3eef96ef",
      "v": 28,
      "creates": null,
      "raw": "0xf87701850dd9cef95a83015f90942910543af39aba0cd09dbb2d50200b3e800a63d2891b1ae4d6e2ef50000089454e3857344d584a471ca021329f198c579de2aa6ff50f6b4e5044ae43341784aa61916c4366d68cd33a22a04e2bf1c5b2de19f92eb5110711cca97e6e147d53bf1d2400a988763b3eef96ef",
      "networkId": 0,
      "chainId": 0
    }
  ]
}