{
  "hash": "0xeff16fbad75126ea60c68c0b6dd7fac6c5ac9f707cc23222c4a7375af2f6ad1e",
  "parentHash": "0xe5e838fe6f6cea382e58b26b7400836f43ff9f7292e7920b279e3684dab64f9f",
  "number": 84881,
  "timestamp": 1439555787,
  "nonce": "0x95f6d33b2c646bc3",
  "difficulty": 2659427449223,
  "gasLimit": {
    "_hex": "0x2fe3de"
  },
  "gasUsed": {
    "_hex": "0x5208"
  },
  "miner": "0xF031F36717cB524b883d440E3837C138180A0289",
  "extraData": "0x476574682f76312e302e302d66633739643332642f6c696e75782f676f312e34",
  "transactions": [
    {
      "hash": "0x7e0429309b73d66e8f1c8efa0cf9ffee447b3d24187b4e072cc7f06e031fe37b",
      "blockHash": "0xeff16fbad75126ea60c68c0b6dd7fac6c5ac9f707cc23222c4a7375af2f6ad1e",
      "blockNumber": 84881,
      "transactionIndex": 0,
      "confirmations": null,
      "from": "0x72c083BeadBdc227c5fb43881597E32e83C26056",
      "gasPrice": {
        "_hex": "0x108c85ef086"
      },
      "gasLimit": {
        "_hex": "0x15f90"
      },
      "to": "0x249502491a53b217181420Cc4A6dE23a720636CA",
      "value": {
        "_hex": "0x3635c9adc5dea00000"
      },
      "nonce": 8,
      "data": "0x",
      "r": "0xae9151d436488ecc15c06db64ffa9c6f382384251c3ed66ae5be45b08c64da6d",
      "s": "0x2aaf2e654f119f638791b7413fb5f98dbe1798e1bc7c061e6153e64ec9227d3e",
      "v": 28,
      "creates": null,
      "raw": "0xf86f08860108c85ef08683015f9094249502491a53b217181420cc4a6de23a720636ca893635c9adc5dea00000801ca0ae9151d436488ecc15c06db64ffa9c6f382384251c3ed66ae5be45b08c64da6da02aaf2e654f119f638791b7413fb5f98dbe1798e1bc7c061e6153e64ec9227d3e",
      "networkId": 0,
      "chainId": 0
    }
  ]
}