{
  "hash": "0x98f8548b2f8f99f500cd5d304a74ff6f85857672eae231aa5202737c10f3ad07",
  "parentHash": "0xcb0e639465bf78efae6d57a198405a721992f44a6547b30e50b4e90fbbe93fad",
  "number": 68916,
  "timestamp": 1439295645,
  "nonce": "0x7c048b9ce2aef064",
  "difficulty": 2024072692512,
  "gasLimit": {
    "_hex": "0x2fefd8"
  },
  "gasUsed": {
    "_hex": "0x1ec30"
  },
  "miner": "0xbb7B8287f3F0a933474a79eAe42CBCa977791171",
  "extraData": "0x476574682f4c5649562f76312e302e312f6c696e75782f676f312e342e32",
  "transactions": [
    {
      "hash": "0x34d722f056779ffb05814bc4e7d31675723c8a81d1dd3e01018d5b54232845cb",
      "blockHash": "0x98f8548b2f8f99f500cd5d304a74ff6f85857672eae231aa5202737c10f3ad07",
      "blockNumber": 68916,
      "transactionIndex": 0,
      "confirmations": null,
      "from": "0x455C848bd6CE7585b0c9e132d3266637249f2d3B",
      "gasPrice": {
        "_hex": "0xba43b7400"
      },
      "gasLimit": {
        "_hex": "0x5208"
      },
      "to": "0xE332A72669B6997EAFe1a07378492d31E20Ef304",
      "value": {
        "_hex": "0x653580cf6eb000"
      },
      "nonce": 1,
      "data": "0x",
      "r": "0x818ce7613d01b914db76aa6628e7f85e9d4b3b2b26f0ab725e791bf387a8f341",
      "s": "0x7cfa86ca0ed36aa1cf6d496f9cdb90cfe4c5d60000e2cbb230899615b43aa49b",
      "v": 28,
      "creates": null,
      "raw": "0xf86b01850ba43b740082520894e332a72669b6997eafe1a07378492d31e20ef30487653580cf6eb000801ca0818ce7613d01b914db76aa6628e7f85e9d4b3b2b26f0ab725e791bf387a8f341a07cfa86ca0ed36aa1cf6d496f9cdb90cfe4c5d60000e2cbb230899615b43aa49b",
      "networkId": 0,
      "chainId": 0
    },
    {
      "hash": "0x169de59f73d8f83ecac676957b3ced61dac65f8a756f7b174dc5e8a22a89f1d5",
      "blockHash": "0x98f8548b2f8f99f500cd5d304a74ff6f85857672eae231aa5202737c10f3ad07",
      "blockNumber": 68916,
      "transactionIndex": 1,
      "confirmations": null,
      "from": "0xdF141AcFf66d6CCFEb1645B2ecfbb063229E3F01",
      "gasPrice": {
        "_hex": "0xba43b7400"
      },
      "gasLimit": {
        "_hex": "0x5208"
      },
      "to": "0xA9e8DD73638147f786008C382a8b9367289f0FBC",
      "value": {
        "_hex": "0x653580cf6eb000"
      },
      "nonce": 1,
      "data": "0x",
      "r": "0x79450b391e3b3f3bbc580ff7bb712baf54d67494e3543a6536c3911349e1e7c7",
      "s": "0x608ea74eb157fe877b74bf24a90103148b204b78b8f4ee1f644d962c719baad3",
      "v": 28,
      "creates": null,
      "raw": "0xf86b01850ba43b740082520894a9e8dd73638147f786008c382a8b9367289f0fbc87653580cf6eb000801ca079450b391e3b3f3bbc580ff7bb712baf54d67494e3543a6536c3911349e1e7c7a0608ea74eb157fe877b74bf24a90103148b204b78b8f4ee1f644d962c719baad3",
      "networkId": 0,
      "chainId": 0
    },
    {
      "hash": "0x5632de2c6184452f84ea47285c4719f29a11291d208013ea0d29cefeaa9fdaec",
      "blockHash": "0x98f8548b2f8f99f500cd5d304a74ff6f85857672eae231aa5202737c10f3ad07",
      "blockNumber": 68916,
      "transactionIndex": 2,
      "confirmations": null,
      "from": "0xBc8f4e4432bFf6e605c5D9ef7d51656FbAA50dD9",
      "gasPrice": {
        "_hex": "0xba43b7400"
      },
      "gasLimit": {
        "_hex": "0x5208"
      },
      "to": "0xb15e1bF9402a2eA3Ad798337554d2b2833B63269",
      "value": {
        "_hex": "0x653580cf6eb000"
      },
      "nonce": 1,
      "data": "0x",
      "r": "0x37393e9e29f501d01b730b6c9094c2f3f026dcb55632b0ffe801034277bba8c0",
      "s": "0x7ef26453ef4faac88e97409b1bebf5d9c0810835d497a1f9b3560fb5373328b4",
      "v": 27,
      "creates": null,
      "raw": "0xf86b01850ba43b740082520894b15e1bf9402a2ea3ad798337554d2b2833b6326987653580cf6eb000801ba037393e9e29f501d01b730b6c9094c2f3f026dcb55632b0ffe801034277bba8c0a07ef26453ef4faac88e97409b1bebf5d9c0810835d497a1f9b3560fb5373328b4",
      "networkId": 0,
      "chainId": 0
    },
    {
      "hash": "0x73142cfef776619401e296715d4585691c545b4f2e5a0d8f39aad61a2db49214",
      "blockHash": "0x98f8548b2f8f99f500cd5d304a74ff6f85857672eae231aa5202737c10f3ad07",
      "blockNumber": 68916,
      "transactionIndex": 3,
      "confirmations": null,
      "from": "0x1C8e2ae5c64944f2C65AF7Ae5387E02fb72A9895",
      "gasPrice": {
        "_hex": "0xba43b7400"
      },
      "gasLimit": {
        "_hex": "0x5208"
      },
      "to": "0x28F490700E8854F2c500A556Db788517E0741Ac2",
      "value": {
        "_hex": "0x653580cf6eb000"
      },
      "nonce": 1,
      "data": "0x",
      "r": "0x64f0b90856be1dca7b9bef8e76c022281ded5738049a2895af9e3454fe25c063",
      "s": "0x4a2678d223766c41b9d962985bc8ff534fe65ca80ab81ee7b926e92502068bd7",
      "v": 28,
      "creates": null,
      "raw": "0xf86b01850ba43b74008252089428f490700e8854f2c500a556db788517e0741ac287653580cf6eb000801ca064f0b90856be1dca7b9bef8e76c022281ded5738049a2895af9e3454fe25c063a04a2678d223766c41b9d962985bc8ff534fe65ca80ab81ee7b926e92502068bd7",
      "networkId": 0,
      "chainId": 0
    },
    {
      "hash": "0x7bd22bd729717beb3a149e3afc0765f24106354d6aa51dba25f1c526a2c0d14c",
      "blockHash": "0x98f8548b2f8f99f500cd5d304a74ff6f85857672eae231aa5202737c10f3ad07",
      "blockNumber": 68916,
      "transactionIndex": 4,
      "confirmations": null,
      "from": "0xfBe697c5FE5095015F707e69D9be951fE01A7795",
      "gasPrice": {
        "_hex": "0xba43b7400"
      },
      "gasLimit": {
        "_hex": "0x5208"
      },
      "to": "0x348961B4206A8aaE63a94139f570917A1aE65968",
      "value": {
        "_hex": "0x653580cf6eb000"
      },
      "nonce": 1,
      "data": "0x",
      "r": "0x04d44b83d4b39f05965e777b18bc53b66a385bb2a6b53b308c2307f636729cfd",
      "s": "0x00c3ac0a81ed524cddfa99efa552555bbc6157e129f0bfed5fd4d80ee872639e",
      "v": 28,
      "creates": null,
      "raw": "0xf86a01850ba43b740082520894348961b4206a8aae63a94139f570917a1ae6596887653580cf6eb000801ca004d44b83d4b39f05965e777b18bc53b66a385bb2a6b53b308c2307f636729cfd9fc3ac0a81ed524cddfa99efa552555bbc6157e129f0bfed5fd4d80ee872639e",
      "networkId": 0,
      "chainId": 0
    },
    {
      "hash": "0x53e83d71133b4b8179aa5bb8c8ebc6e65b5c2d3c84b81834f0d78ff2c4d7823f",
      "blockHash": "0x98f8548b2f8f99f500cd5d304a74ff6f85857672eae231aa5202737c10f3ad07",
      "blockNumber": 68916,
      "transactionIndex": 5,
      "confirmations": null,
      "from": "0x06CE2849B3f77F16754C8923Ef69Db2cF1F956b7",
      "gasPrice": {
        "_hex": "0xba43b7400"
      },
      "gasLimit": {
        "_hex": "0x5208"
      },
      "to": "0x82068120e889b9fEF3C88E2eCb0A65e231E4dFb7",
      "value": {
        "_hex": "0x653580cf6eb000"
      },
      "nonce": 1,
      "data": "0x",
      "r": "0xd8df4c41ab72fc5e04264e510daf83b83e331e2441079203186f9bd466039e52",
      "s": "0x3cb398635c22d0ad59f5a6235fee9153d35fbd79656044f31be9f1e8d396a3aa",
      "v": 27,
      "creates": null,
      "raw": "0xf86b01850ba43b74008252089482068120e889b9fef3c88e2ecb0a65e231e4dfb787653580cf6eb000801ba0d8df4c41ab72fc5e04264e510daf83b83e331e2441079203186f9bd466039e52a03cb398635c22d0ad59f5a6235fee9153d35fbd79656044f31be9f1e8d396a3aa",
      "networkId": 0,
      "chainId": 0
    }
  ]
}