{
  "hash": "0xeed1b850c4ba676131342dee393cad40f3ba88427b8f64073f3ebae6e1f743c2",
  "parentHash": "0x8862f18e56b7a179e62a08c8afda8dfd90fc138184216770e8d4d07d089b4658",
  "number": 48849,
  "timestamp": 1438964000,
  "nonce": "0x6b26777ea6bb945d",
  "difficulty": 1479324915361,
  "gasLimit": {
    "_hex": "0x1f75e"
  },
  "gasUsed": {
    "_hex": "0x5208"
  },
  "miner": "0xEF247E639d49461D25F57e9362CadE3120910Ce0",
  "extraData": "0x476574682f76312e302e312f6c696e75782f676f312e342e32",
  "transactions": [
    {
      "hash": "0x654a7f541eb2a8daf95b05296727a5ca04bc39a792379127eaaff086d1fa7496",
      "blockHash": "0xeed1b850c4ba676131342dee393cad40f3ba88427b8f64073f3ebae6e1f743c2",
      "blockNumber": 48849,
      "transactionIndex": 0,
      "confirmations": null,
      "from": "0xba1FCAf223937Ef89e85675503Bdb7Ca6A928B78",
      "gasPrice": {
        "_hex": "0x10a178f1ed5"
      },
      "gasLimit": {
        "_hex": "0x15f90"
      },
      "to": "0xC939D6e2515872B4A5bed252f1d82A4dCE4A1507",
      "value": {
        "_hex": "0x1"
      },
      "nonce": 0,
      "data": "0x",
      "r": "0x1be31556685225feec62c0630e1f38dfab3039a587adcabc6991a92a44d3c976",
      "s": "0x47c47ebf755dc98c1dd69e6adae227b42d2a156c1274ad2b26812afe7c9d6c14",
      "v": 27,
      "creates": null,
      "raw": "0xf8668086010a178f1ed583015f9094c939d6e2515872b4a5bed252f1d82a4dce4a150701801ba01be31556685225feec62c0630e1f38dfab3039a587adcabc6991a92a44d3c976a047c47ebf755dc98c1dd69e6adae227b42d2a156c1274ad2b26812afe7c9d6c14",
      "networkId": 0,
      "chainId": 0
    }
  ]
}