{
  "hash": "0x11459dbc225d7d58e9766f26535c9f382a27a2950997dd353c4d6ed3dbcb21c7",
  "parentHash": "0x13deeaa877a5926fb196cae9fa1b197c4b6157c67820fc21363d6156910a4911",
  "number": 63604,
  "timestamp": 1439207192,
  "nonce": "0xa74555fd74cd14c3",
  "difficulty": 1844106537103,
  "gasLimit": {
    "_hex": "0x2fefd8"
  },
  "gasUsed": {
    "_hex": "0x84530"
  },
  "miner": "0x157c6f2431eB1a95797EE86F7d17b3c0FD47A247",
  "extraData": "0x476574682f76312e302e312f77696e646f77732f676f312e342e32",
  "transactions": [
    {
      "hash": "0x92e549a503089aa934cecf8abad0fe0fe2b488614fdb89c292ded4b419af2f5a",
      "blockHash": "0x11459dbc225d7d58e9766f26535c9f382a27a2950997dd353c4d6ed3dbcb21c7",
      "blockNumber": 63604,
      "transactionIndex": 0,
      "confirmations": null,
      "from": "0x6ACfef6b58D6EE01D4BdB53CA81c5D6560824446",
      "gasPrice": {
        "_hex": "0xdc2b091a5"
      },
      "gasLimit": {
        "_hex": "0x5208"
      },
      "to": "0x32Be343B94f860124dC4fEe278FDCBD38C102D88",
      "value": {
        "_hex": "0xddc4246fb42a400"
      },
      "nonce": 0,
      "data": "0x",
      "r": "0x3ec4e719d8fb89fc5c95e6a822e00ce53a38930a046cbcdfc280a105cdfa6f8c",
      "s": "0x6fc6004edce0497b27a376412e4695286f9a2a05c284dfe66f77df94ce72ede5",
      "v": 27,
      "creates": null,
      "raw": "0xf86c80850dc2b091a58252089432be343b94f860124dc4fee278fdcbd38c102d88880ddc4246fb42a400801ba03ec4e719d8fb89fc5c95e6a822e00ce53a38930a046cbcdfc280a105cdfa6f8ca06fc6004edce0497b27a376412e4695286f9a2a05c284dfe66f77df94ce72ede5",
      "networkId": 0,
      "chainId": 0
    },
    {
      "hash": "0x6889bf65dd973b4d16152245e0c8a883fb6979fb10a2615cdc6402f6206d2b68",
      "blockHash": "0x11459dbc225d7d58e9766f26535c9f382a27a2950997dd353c4d6ed3dbcb21c7",
      "blockNumber": 63604,
      "transactionIndex": 1,
      "confirmations": null,
      "from": "0x32Be343B94f860124dC4fEe278FDCBD38C102D88",
      "gasPrice": {
        "_hex": "0xdc2b091a5"
      },
      "gasLimit": {
        "_hex": "0x5208"
      },
      "to": "0x1CC77ed71531833bAC1eA0E757Cd150dCD297920",
      "value": {
        "_hex": "0x26e9ba874329ac000"
      },
      "nonce": 167,
      "data": "0x",
      "r": "0x0a2c2058af68e7dcabdb22ecb7501645b20b0707a3b8cfdc43d476b0267e8713",
      "s": "0x597854852eae04bc7fe65085ea33c911a02fe8e8b7e5f273a061af94b0cd1cad",
      "v": 28,
      "creates": null,
      "raw": "0xf86e81a7850dc2b091a5825208941cc77ed71531833bac1ea0e757cd150dcd29792089026e9ba874329ac000801ca00a2c2058af68e7dcabdb22ecb7501645b20b0707a3b8cfdc43d476b0267e8713a0597854852eae04bc7fe65085ea33c911a02fe8e8b7e5f273a061af94b0cd1cad",
      "networkId": 0,
      "chainId": 0
    },
    {
      "hash": "0xd321e215cc5ba80a83be3bf9cb498ffa9bb792726878b8c97b0b956dd45c2b6f",
      "blockHash": "0x11459dbc225d7d58e9766f26535c9f382a27a2950997dd353c4d6ed3dbcb21c7",
      "blockNumber": 63604,
      "transactionIndex": 2,
      "confirmations": null,
      "from": "0x1a79c7f4039C67A39d7513884cDC0E2C34222490",
      "gasPrice": {
        "_hex": "0xd5341da0e"
      },
      "gasLimit": {
        "_hex": "0x7a120"
      },
      "to": "0x109C4f2CCc82C4d77Bde15F306707320294Aea3F",
      "value": {
        "_hex": "0xde0b6b3a7640000"
      },
      "nonce": 9,
      "data": "0x",
      "r": "0x2d9d5d393102935db5fa854fd954ad8181442617cf0059a1f375a297d6116024",
      "s": "0x06547d1f9132b7486db710c675621a52573ed1c06a4334f3477c3fb1b008f40d",
      "v": 27,
      "creates": null,
      "raw": "0xf86d09850d5341da0e8307a12094109c4f2ccc82c4d77bde15f306707320294aea3f880de0b6b3a7640000801ba02d9d5d393102935db5fa854fd954ad8181442617cf0059a1f375a297d6116024a006547d1f9132b7486db710c675621a52573ed1c06a4334f3477c3fb1b008f40d",
      "networkId": 0,
      "chainId": 0
    }
  ]
}