{
  "hash": "0xb54ba83f0dce298dcb2409fa3bcd0a32e9c2b43e4f0a98bae7be34e6d7d3671f",
  "parentHash": "0xbd07c0f7d77e624daa532f6ff9790999eaef1cd4cc79815bc23f86ee69d064f3",
  "number": 85756,
  "timestamp": 1439568327,
  "nonce": "0x5cad001d5b4759f8",
  "difficulty": 2779970021740,
  "gasLimit": {
    "_hex": "0x2fefd8"
  },
  "gasUsed": {
    "_hex": "0x5208"
  },
  "miner": "0x88D74a59454F6cF3B51ef6b9136AFb6b9D405A88",
  "extraData": "0x476574682f76312e302e312d37666266393930632f6c696e75782f676f312e34",
  "transactions": [
    {
      "hash": "0xbe03194f5175140b99acc257787a911a64e8381b31c16480e23e7de322d4f5cd",
      "blockHash": "0xb54ba83f0dce298dcb2409fa3bcd0a32e9c2b43e4f0a98bae7be34e6d7d3671f",
      "blockNumber": 85756,
      "transactionIndex": 0,
      "confirmations": null,
      "from": "0x1BF5b1581819E4B545F5A57c246E5C96e27C876e",
      "gasPrice": {
        "_hex": "0xba43b7400"
      },
      "gasLimit": {
        "_hex": "0x5208"
      },
      "to": "0xC47Aaa860008be6f65B58c6C6E02a84e666EfE31",
      "value": {
        "_hex": "0x2dc1083f4249ac00"
      },
      "nonce": 3,
      "data": "0x",
      "r": "0x0dac7627c3f581d4e4656f2f6c8b2fd751e0bbbf07cb9341110f47825eaf2684",
      "s": "0x33e35487425b6722ae36eed3b5d2f82bb1e47fc22a21754c7e6dce01b8fe5e8e",
      "v": 27,
      "creates": null,
      "raw": "0xf86c03850ba43b740082520894c47aaa860008be6f65b58c6c6e02a84e666efe31882dc1083f4249ac00801ba00dac7627c3f581d4e4656f2f6c8b2fd751e0bbbf07cb9341110f47825eaf2684a033e35487425b6722ae36eed3b5d2f82bb1e47fc22a21754c7e6dce01b8fe5e8e",
      "networkId": 0,
      "chainId": 0
    }
  ]
}