{
  "hash": "0x421185122a53a4be88c758fe58776a84f3a7a2b2cebc157fb3f2e47f413c65ea",
  "parentHash": "0xb87b14b944042f5aab152789d4084b9e037eaad5ee860b2643517036ab603dbd",
  "number": 98617,
  "timestamp": 1439776023,
  "nonce": "0x2591c13263e28da3",
  "difficulty": 3848052496868,
  "gasLimit": {
    "_hex": "0x2fefd8"
  },
  "gasUsed": {
    "_hex": "0x5208"
  },
  "miner": "0x007f7f58D3eb5b7510A301eCC749FC1fCDDBE14D",
  "extraData": "0x476574682f76312e302e312f77696e646f77732f676f312e342e32",
  "transactions": [
    {
      "hash": "0x3f92cf9039b274720a09d80a2001194dac19c88c92f19c08c83b46f3378436d6",
      "blockHash": "0x421185122a53a4be88c758fe58776a84f3a7a2b2cebc157fb3f2e47f413c65ea",
      "blockNumber": 98617,
      "transactionIndex": 0,
      "confirmations": null,
      "from": "0xd70c667add50d3d9989Ef58A81a698c09f415Bff",
      "gasPrice": {
        "_hex": "0xdedf6dbd4"
      },
      "gasLimit": {
        "_hex": "0x15f90"
      },
      "to": "0x853Bff007d269E0526E871360d79d69D602770dc",
      "value": {
        "_hex": "0x1b689c09376580000"
      },
      "nonce": 7,
      "data": "0x",
      "r": "0xa57bc906164879f285cb92678d89cb22236af9b85268a735646deaa3389426e6",
      "s": "0x074d6794f770e1914f5bbdfd634aefcb7eb504fbbb0a1f50ff51a78f68686eed",
      "v": 27,
      "creates": null,
      "raw": "0xf86e07850dedf6dbd483015f9094853bff007d269e0526e871360d79d69d602770dc8901b689c09376580000801ba0a57bc906164879f285cb92678d89cb22236af9b85268a735646deaa3389426e6a0074d6794f770e1914f5bbdfd634aefcb7eb504fbbb0a1f50ff51a78f68686eed",
      "networkId": 0,
      "chainId": 0
    }
  ]
}