{
  "hash": "0x62a26b341761988de2035c79f8b3233d27b462a6f8e93cad4c53be23fc923c2f",
  "parentHash": "0xeea41efb9aa99a181d77b7df0e8a0b9c310632e7c76d5501f5e006fdd2532953",
  "number": 75550,
  "timestamp": 1439405265,
  "nonce": "0x27cff1e11b75c9ba",
  "difficulty": 2219083507893,
  "gasLimit": {
    "_hex": "0x2fefd8"
  },
  "gasUsed": {
    "_hex": "0x5208"
  },
  "miner": "0x0eDEd3DA479d0beF8eeC92A76644D3f4E3C177f7",
  "extraData": "0x476574682f76312e302e312f6c696e75782f676f312e342e32",
  "transactions": [
    {
      "hash": "0x388b03a44bd79a86bfff7ef64a0c05a7dde61a0f7a2a9af0355f6098fc3f2396",
      "blockHash": "0x62a26b341761988de2035c79f8b3233d27b462a6f8e93cad4c53be23fc923c2f",
      "blockNumber": 75550,
      "transactionIndex": 0,
      "confirmations": null,
      "from": "0xEF247E639d49461D25F57e9362CadE3120910Ce0",
      "gasPrice": {
        "_hex": "0xdd1c4518a"
      },
      "gasLimit": {
        "_hex": "0x15f90"
      },
      "to": "0xF87481A262E993a75F791E7859E71BaC36A606Eb",
      "value": {
        "_hex": "0x68155a43676e00000"
      },
      "nonce": 18,
      "data": "0x",
      "r": "0x8b1cd4a22e8e951b58093357ccdfb254fe0848a660ce500899abe5796ce2c1a5",
      "s": "0x7b7b6912506ea9d2b73170760b600ae6700604542f79caafc31846ec2e4ce108",
      "v": 27,
      "creates": null,
      "raw": "0xf86e12850dd1c4518a83015f9094f87481a262e993a75f791e7859e71bac36a606eb89068155a43676e00000801ba08b1cd4a22e8e951b58093357ccdfb254fe0848a660ce500899abe5796ce2c1a5a07b7b6912506ea9d2b73170760b600ae6700604542f79caafc31846ec2e4ce108",
      "networkId": 0,
      "chainId": 0
    }
  ]
}