{
  "hash": "0x456f78022fe47c1b4991b11969c2f0532f9689f38b7c56be4c785904d79b25d6",
  "parentHash": "0xea66c7b071c530148cef62498e2423f611e9bb2cc53d84cffb1d3286dadb0b39",
  "number": 92048,
  "timestamp": 1439666039,
  "nonce": "0xf99638f5387a4d5e",
  "difficulty": 3467277778512,
  "gasLimit": {
    "_hex": "0x2fefd8"
  },
  "gasUsed": {
    "_hex": "0x5208"
  },
  "miner": "0xe6A7a1d47ff21B6321162AEA7C6CB457D5476Bca",
  "extraData": "0x476574682f76312e302e312d38326566323666362f6c696e75782f676f312e34",
  "transactions": [
    {
      "hash": "0xe79eb47fc2b5bd59328d2c1bc7c8d7076ea932bc30368388caacdf9a004b8e56",
      "blockHash": "0x456f78022fe47c1b4991b11969c2f0532f9689f38b7c56be4c785904d79b25d6",
      "blockNumber": 92048,
      "transactionIndex": 0,
      "confirmations": null,
      "from": "0x5A3E83a3Ae7362C204550Aba56dC980A413090f2",
      "gasPrice": {
        "_hex": "0xd9340c75f"
      },
      "gasLimit": {
        "_hex": "0x5208"
      },
      "to": "0x32Be343B94f860124dC4fEe278FDCBD38C102D88",
      "value": {
        "_hex": "0x56bc3049537f40000"
      },
      "nonce": 1,
      "data": "0x",
      "r": "0x88c099685aca88074e6e378d2726421a29f1db072e6aa4614245afdb2975c9c6",
      "s": "0x5a648979cd177f18b483cab8c6582087a7e30a224423d67dc53aad4a84e7fbc0",
      "v": 27,
      "creates": null,
      "raw": "0xf86d01850d9340c75f8252089432be343b94f860124dc4fee278fdcbd38c102d8889056bc3049537f40000801ba088c099685aca88074e6e378d2726421a29f1db072e6aa4614245afdb2975c9c6a05a648979cd177f18b483cab8c6582087a7e30a224423d67dc53aad4a84e7fbc0",
      "networkId": 0,
      "chainId": 0
    }
  ]
}