{
  "hash": "0x6aeabf245c57c27455593f3295c0f68fcc6150877736dcdaf646b8695ced2471",
  "parentHash": "0xe2f8241bdd9e22474949a2779bbaab7e8d1ff0da503db11966a3db8ee2ccc3c4",
  "number": 114644,
  "timestamp": 1440043885,
  "nonce": "0x46876514e0118f3a",
  "difficulty": 4501217999320,
  "gasLimit": {
    "_hex": "0x2fefd8"
  },
  "gasUsed": {
    "_hex": "0x1bdbe"
  },
  "miner": "0xC603Ab5ef41fC61AA8b76bEddb09e3Cfcbb174BD",
  "extraData": "0x476574682f76312e302e312f77696e646f77732f676f312e342e32",
  "transactions": [
    {
      "hash": "0x6b40072be8cb4a5f1d499df6efc071e3429099fe18d295db070e12c1e85df36f",
      "blockHash": "0x6aeabf245c57c27455593f3295c0f68fcc6150877736dcdaf646b8695ced2471",
      "blockNumber": 114644,
      "transactionIndex": 0,
      "confirmations": null,
      "from": "0xf5EfDc94e8AD7D73B2bf860071004656e7Ea38c4",
      "gasPrice": {
        "_hex": "0x10982042945"
      },
      "gasLimit": {
        "_hex": "0x249f0"
      },
      "to": "0xE28e72FCf78647ADCe1F1252F240bbfaebD63BcC",
      "value": {
        "_hex": "0x6f05b59d3b20000"
      },
      "nonce": 0,
      "data": "0x45466f3a",
      "r": "0x21a437d242befe904e70c0e309374192202fe5e04db6307494227e9eb6953807",
      "s": "0x591289c576ebe79f6691c83864801b04969ec65b932cc27ff199066d8c54a32d",
      "v": 28,
      "creates": null,
      "raw": "0xf8728086010982042945830249f094e28e72fcf78647adce1f1252f240bbfaebd63bcc8806f05b59d3b200008445466f3a1ca021a437d242befe904e70c0e309374192202fe5e04db6307494227e9eb6953807a0591289c576ebe79f6691c83864801b04969ec65b932cc27ff199066d8c54a32d",
      "networkId": 0,
      "chainId": 0
    }
  ]
}