{
  "hash": "0xc2198d53969d374b2d74eb5013972783fa5b61771050cc40f4aa1112b0349ed9",
  "parentHash": "0xd815c4a3f7c9f5644b5fdecc81f59215acb2f26d9f56261528fb9807630c4bd3",
  "number": 121052,
  "timestamp": 1440170522,
  "nonce": "0xda2a4c20decbb218",
  "difficulty": 4432375607292,
  "gasLimit": {
    "_hex": "0x2fefd8"
  },
  "gasUsed": {
    "_hex": "0x5208"
  },
  "miner": "0x9D49F602b0fdb924Bd63DDE2Bd0907E4A07c63a7",
  "extraData": "0x",
  "transactions": [
    {
      "hash": "0xc62d4d62fbaf70dffd9c4a4d9f787d04a8d3a2f52d231b3e971ddbb466faa82b",
      "blockHash": "0xc2198d53969d374b2d74eb5013972783fa5b61771050cc40f4aa1112b0349ed9",
      "blockNumber": 121052,
      "transactionIndex": 0,
      "confirmations": null,
      "from": "0x32Be343B94f860124dC4fEe278FDCBD38C102D88",
      "gasPrice": {
        "_hex": "0xba43b7400"
      },
      "gasLimit": {
        "_hex": "0x5208"
      },
      "to": "0x7aAaa306d4a7Fd1696A82A66cc538D29f5af4e39",
      "value": {
        "_hex": "0x7518058bd45bc0000"
      },
      "nonce": 1542,
      "data": "0x",
      "r": "0x84d3eac50f254e83e19b723fbba154230f277f6bd1e7a89c829edb230e8214ca",
      "s": "0x53ca702060213b0fe440c714d87322ca0f512d6afdce600de31d9d941b1a6ef6",
      "v": 28,
      "creates": null,
      "raw": "0xf86f820606850ba43b7400825208947aaaa306d4a7fd1696a82a66cc538d29f5af4e398907518058bd45bc0000801ca084d3eac50f254e83e19b723fbba154230f277f6bd1e7a89c829edb230e8214caa053ca702060213b0fe440c714d87322ca0f512d6afdce600de31d9d941b1a6ef6",
      "networkId": 0,
      "chainId": 0
    }
  ]
}