{
  "hash": "0x854871aa3bf69dd526e8bdedb6d9602d7680acfe66f64a60d3ab707061b807a3",
  "parentHash": "0xd65091f0260617bd18de2e0313a0dc6f0e26b3402f468a3989fff82f6bdf17b0",
  "number": 114091,
  "timestamp": 1440034739,
  "nonce": "0xd1d516f71bd0dca9",
  "difficulty": 4446898634757,
  "gasLimit": {
    "_hex": "0x2fefd8"
  },
  "gasUsed": {
    "_hex": "0x5208"
  },
  "miner": "0xe6A7a1d47ff21B6321162AEA7C6CB457D5476Bca",
  "extraData": "0x476574682f76312e302e312d38326566323666362f6c696e75782f676f312e34",
  "transactions": [
    {
      "hash": "0x328de9297e7923657f9f32aa37358baee5f4cecd5b6051b6b34200ece76eeeca",
      "blockHash": "0x854871aa3bf69dd526e8bdedb6d9602d7680acfe66f64a60d3ab707061b807a3",
      "blockNumber": 114091,
      "transactionIndex": 0,
      "confirmations": null,
      "from": "0xca6b1247E05188167CefaCf2Bf8425B68D52Bf64",
      "gasPrice": {
        "_hex": "0xd909ab76f"
      },
      "gasLimit": {
        "_hex": "0x5208"
      },
      "to": "0xFBb1b73C4f0BDa4f67dcA266ce6Ef42f520fBB98",
      "value": {
        "_hex": "0x11d1240cec265688"
      },
      "nonce": 0,
      "data": "0x",
      "r": "0x5f69870b225cf34c900aef70a1398dfdb881fa032e62611cb1c612575e2d3212",
      "s": "0x22862676f02c8baa919bf8c91122f3d06c61b6f2297df0a26cbe23a4d9eefcf9",
      "v": 28,
      "creates": null,
      "raw": "0xf86c80850d909ab76f82520894fbb1b73c4f0bda4f67dca266ce6ef42f520fbb988811d1240cec265688801ca05f69870b225cf34c900aef70a1398dfdb881fa032e62611cb1c612575e2d3212a022862676f02c8baa919bf8c91122f3d06c61b6f2297df0a26cbe23a4d9eefcf9",
      "networkId": 0,
      "chainId": 0
    }
  ]
}