{
  "hash": "0x0027182c4cd8542d2b371491778d7e745717ad8651cbd9349e3f1af3a7e82ad1",
  "parentHash": "0x685033b82abc4b8149ba16c196ec7774e296eb8095829ae86e33cc0a6eca21af",
  "number": 78267,
  "timestamp": 1439451217,
  "nonce": "0x3f6a0aa55a43bd90",
  "difficulty": 2278747284939,
  "gasLimit": {
    "_hex": "0x2fefd8"
  },
  "gasUsed": {
    "_hex": "0xf87c"
  },
  "miner": "0xEF247E639d49461D25F57e9362CadE3120910Ce0",
  "extraData": "0x476574682f76312e302e312f6c696e75782f676f312e342e32",
  "transactions": [
    {
      "hash": "0xa7fde9e6e5e0ecbb3519e1f025c75836297c1bcc59c0e273ab9b0069679286dd",
      "blockHash": "0x0027182c4cd8542d2b371491778d7e745717ad8651cbd9349e3f1af3a7e82ad1",
      "blockNumber": 78267,
      "transactionIndex": 0,
      "confirmations": null,
      "from": "0x0E0d6633db1e0c7f234A6Df163a10e0aB39C200f",
      "gasPrice": {
        "_hex": "0x10c421a41c6"
      },
      "gasLimit": {
        "_hex": "0x55f0"
      },
      "to": "0x2910543Af39abA0Cd09dBb2D50200b3E800A63D2",
      "value": {
        "_hex": "0xde0b6b3a7640000"
      },
      "nonce": 0,
      "data": "0x454e44485642394352",
      "r": "0xe6906f5dc4250f1d5b57b93f0b78c7f7785783c5610896d1bd0fa352cb63ecfb",
      "s": "0x20a8fbc59d424c1ffea4e71647b425a379659af572d7d71a0b2c74e8a1e4df92",
      "v": 28,
      "creates": null,
      "raw": "0xf8768086010c421a41c68255f0942910543af39aba0cd09dbb2d50200b3e800a63d2880de0b6b3a764000089454e444856423943521ca0e6906f5dc4250f1d5b57b93f0b78c7f7785783c5610896d1bd0fa352cb63ecfba020a8fbc59d424c1ffea4e71647b425a379659af572d7d71a0b2c74e8a1e4df92",
      "networkId": 0,
      "chainId": 0
    },
    {
      "hash": "0x87d931abb0eea93befbd7df943d5426b2463a1667facbefb8b3287262bb7d8ec",
      "blockHash": "0x0027182c4cd8542d2b371491778d7e745717ad8651cbd9349e3f1af3a7e82ad1",
      "blockNumber": 78267,
      "transactionIndex": 1,
      "confirmations": null,
      "from": "0x151145F7F490268407b4eDafE018b117c1b321f1",
      "gasPrice": {
        "_hex": "0xdc03f6752"
      },
      "gasLimit": {
        "_hex": "0x5208"
      },
      "to": "0x32Be343B94f860124dC4fEe278FDCBD38C102D88",
      "value": {
        "_hex": "0x8ac2bb02012d5800"
      },
      "nonce": 0,
      "data": "0x",
      "r": "0x276aca2b6add95624eb01af4a39a4799a756913b9765957f0e6aa37a84fb5534",
      "s": "0x3ab4eff13041b17a8542f352553810cbd735660e460c3578648a373a762a5397",
      "v": 27,
      "creates": null,
      "raw": "0xf86c80850dc03f67528252089432be343b94f860124dc4fee278fdcbd38c102d88888ac2bb02012d5800801ba0276aca2b6add95624eb01af4a39a4799a756913b9765957f0e6aa37a84fb5534a03ab4eff13041b17a8542f352553810cbd735660e460c3578648a373a762a5397",
      "networkId": 0,
      "chainId": 0
    },
    {
      "hash": "0x16f41766f5cded4a15add0018cf4394edce51dd081bac9c972b235d5da445a2b",
      "blockHash": "0x0027182c4cd8542d2b371491778d7e745717ad8651cbd9349e3f1af3a7e82ad1",
      "blockNumber": 78267,
      "transactionIndex": 2,
      "confirmations": null,
      "from": "0x87898CE53471043FcCa0a2aF4E1dC6d8B3fCf607",
      "gasPrice": {
        "_hex": "0xcf798d9f6"
      },
      "gasLimit": {
        "_hex": "0x5208"
      },
      "to": "0xBFdD9820a04283b289957956353b5F3C1F665EcF",
      "value": {
        "_hex": "0xd02ab486cedc0000"
      },
      "nonce": 27,
      "data": "0x",
      "r": "0xbd666de8e53247f9384a7e76659e30ec526b04ea25a6c5cf30256a45388ddcf4",
      "s": "0x72192c5c1fcea6093bb3965ddd89c88ffffd8b4b20c2aa01f3d691fde1442a18",
      "v": 27,
      "creates": null,
      "raw": "0xf86c1b850cf798d9f682520894bfdd9820a04283b289957956353b5f3c1f665ecf88d02ab486cedc0000801ba0bd666de8e53247f9384a7e76659e30ec526b04ea25a6c5cf30256a45388ddcf4a072192c5c1fcea6093bb3965ddd89c88ffffd8b4b20c2aa01f3d691fde1442a18",
      "networkId": 0,
      "chainId": 0
    }
  ]
}