{
  "hash": "0x3cc882eac556bba9827efb7740ba10ab77c8384361e6d014d3dc01feb2fca354",
  "parentHash": "0x12b58087ba7605e197ebc893a838c61191841750edb953fed0296db5d6b62c56",
  "number": 85666,
  "timestamp": 1439566904,
  "nonce": "0x28d0e98af6423a32",
  "difficulty": 2790880460373,
  "gasLimit": {
    "_hex": "0x2fefd8"
  },
  "gasUsed": {
    "_hex": "0xf87c"
  },
  "miner": "0xad7210d76107F888745616FFF7979623b84F928c",
  "extraData": "0x476574682f76312e302e312f77696e646f77732f676f312e342e32",
  "transactions": [
    {
      "hash": "0x8d30a1884b2f493b6c3572533a9dbf256191d456f6e16388521d752ee95c27b0",
      "blockHash": "0x3cc882eac556bba9827efb7740ba10ab77c8384361e6d014d3dc01feb2fca354",
      "blockNumber": 85666,
      "transactionIndex": 0,
      "confirmations": null,
      "from": "0xE208812A684098F3da4efe6abA256256AdFE3Fe6",
      "gasPrice": {
        "_hex": "0x110c8f7d8de"
      },
      "gasLimit": {
        "_hex": "0xc350"
      },
      "to": "0x2910543Af39abA0Cd09dBb2D50200b3E800A63D2",
      "value": {
        "_hex": "0x6c4d0b6333b3640000"
      },
      "nonce": 1,
      "data": "0x454e433537344b5152",
      "r": "0xb41f5ae05198840bea182493f34bd57bcdab20b439fad69ccd85127d49e0fc63",
      "s": "0x21587e6a509a5d995b5dc97fe43cfcf14921059638a2651546a422a498f2acff",
      "v": 28,
      "creates": null,
      "raw": "0xf87701860110c8f7d8de82c350942910543af39aba0cd09dbb2d50200b3e800a63d2896c4d0b6333b364000089454e433537344b51521ca0b41f5ae05198840bea182493f34bd57bcdab20b439fad69ccd85127d49e0fc63a021587e6a509a5d995b5dc97fe43cfcf14921059638a2651546a422a498f2acff",
      "networkId": 0,
      "chainId": 0
    },
    {
      "hash": "0x5bede6a1d673328cf70e1df7986f8a45375133de458c78756b314af8e107e895",
      "blockHash": "0x3cc882eac556bba9827efb7740ba10ab77c8384361e6d014d3dc01feb2fca354",
      "blockNumber": 85666,
      "transactionIndex": 1,
      "confirmations": null,
      "from": "0x47ff6576639c2e94762eA5443978D7681C0E78DC",
      "gasPrice": {
        "_hex": "0xd36adaf16"
      },
      "gasLimit": {
        "_hex": "0x5208"
      },
      "to": "0x0000000000000000000000000000000000000000",
      "value": {
        "_hex": "0x16345785d8a0000"
      },
      "nonce": 26,
      "data": "0x",
      "r": "0xdc6e3efd5071cb3a5caa57434d3e5f7ac93ccbe6baa533db3b4747d1aa4db6ab",
      "s": "0x402b5a3d5357528c01ded7c120312a6825f16c2b0d7c4068021597f053405ee1",
      "v": 28,
      "creates": null,
      "raw": "0xf86c1a850d36adaf1682520894000000000000000000000000000000000000000088016345785d8a0000801ca0dc6e3efd5071cb3a5caa57434d3e5f7ac93ccbe6baa533db3b4747d1aa4db6aba0402b5a3d5357528c01ded7c120312a6825f16c2b0d7c4068021597f053405ee1",
      "networkId": 0,
      "chainId": 0
    },
    {
      "hash": "0xbd803e81f172ef8f0b9110e23ec03f615ce6d6b9a51d62ff7f4f7be06de05d8d",
      "blockHash": "0x3cc882eac556bba9827efb7740ba10ab77c8384361e6d014d3dc01feb2fca354",
      "blockNumber": 85666,
      "transactionIndex": 2,
      "confirmations": null,
      "from": "0xF9634a7Ee627EeF74f4d803113CD4F87E5162079",
      "gasPrice": {
        "_hex": "0xba43b7400"
      },
      "gasLimit": {
        "_hex": "0x5b04"
      },
      "to": "0x9f78552704fe7e52cC7C3853534aA2C3cf580D54",
      "value": {
        "_hex": "0xd18df9ff2c660000"
      },
      "nonce": 5,
      "data": "0x",
      "r": "0x9a5c4928cca734da79fdb013da17b2820c850430bafe9eb4a45a6675617dbbce",
      "s": "0xdadd3465d6bb961ac76041f58d9cc32572964fe525224c26c6e6c358c3a5190d",
      "v": 27,
      "creates": null,
      "raw": "0xf86c05850ba43b7400825b04949f78552704fe7e52cc7c3853534aa2c3cf580d5488d18df9ff2c660000801ba09a5c4928cca734da79fdb013da17b2820c850430bafe9eb4a45a6675617dbbcea0dadd3465d6bb961ac76041f58d9cc32572964fe525224c26c6e6c358c3a5190d",
      "networkId": 0,
      "chainId": 0
    }
  ]
}