{
  "hash": "0x87ac2f938b7fa6f69839c59b47be55971ae073c18297dc1d7ec58f3bb62718a1",
  "parentHash": "0xe4527ecd2df33c41ac92fc0d2976a14ade71abeb7d1200ca739efec7ec01ffa3",
  "number": 89375,
  "timestamp": 1439622445,
  "nonce": "0x63fe590186c973d8",
  "difficulty": 3304709535634,
  "gasLimit": {
    "_hex": "0x2fefd8"
  },
  "gasUsed": {
    "_hex": "0xf87c"
  },
  "miner": "0x9D49F602b0fdb924Bd63DDE2Bd0907E4A07c63a7",
  "extraData": "0x476574682f76312e302e312f6c696e75782f676f312e342e32",
  "transactions": [
    {
      "hash": "0x3a9522dee2cf20a1df333bf867f1cdfec91632010086a6e8d9ada2dcec849baa",
      "blockHash": "0x87ac2f938b7fa6f69839c59b47be55971ae073c18297dc1d7ec58f3bb62718a1",
      "blockNumber": 89375,
      "transactionIndex": 0,
      "confirmations": null,
      "from": "0xdcDbBD4E2604E40e1710Cc6730289dCcfAd3892D",
      "gasPrice": {
        "_hex": "0x110c8f7d8de"
      },
      "gasLimit": {
        "_hex": "0xc350"
      },
      "to": "0x2910543Af39abA0Cd09dBb2D50200b3E800A63D2",
      "value": {
        "_hex": "0xf956e290cdf92e0000"
      },
      "nonce": 0,
      "data": "0x454e30565541363952",
      "r": "0xf62f951913d5515ef1c7955833a156da078fa1edc5912e2b6942f2ecfdf5d89d",
      "s": "0x9eff04e4a2b45340cd7f3f5063d199d4eae9f7a155a3ccd449fbe9072ff30e0a",
      "v": 28,
      "creates": null,
      "raw": "0xf87780860110c8f7d8de82c350942910543af39aba0cd09dbb2d50200b3e800a63d289f956e290cdf92e000089454e305655413639521ca0f62f951913d5515ef1c7955833a156da078fa1edc5912e2b6942f2ecfdf5d89da09eff04e4a2b45340cd7f3f5063d199d4eae9f7a155a3ccd449fbe9072ff30e0a",
      "networkId": 0,
      "chainId": 0
    },
    {
      "hash": "0xc4a510c262020e820b138430a6606f1c7fb9b989bfed731777f7085fc53bdb49",
      "blockHash": "0x87ac2f938b7fa6f69839c59b47be55971ae073c18297dc1d7ec58f3bb62718a1",
      "blockNumber": 89375,
      "transactionIndex": 1,
      "confirmations": null,
      "from": "0xcD690730A45cdebeF24F2a3db2de181bFBA5CBea",
      "gasPrice": {
        "_hex": "0xd8faf0c0b"
      },
      "gasLimit": {
        "_hex": "0x5208"
      },
      "to": "0x32Be343B94f860124dC4fEe278FDCBD38C102D88",
      "value": {
        "_hex": "0x895f851bb3281800"
      },
      "nonce": 3,
      "data": "0x",
      "r": "0x37b84af79a95d7e9808a9dda8c1608da744194b9b708e079befc2c705d332d60",
      "s": "0x5ae465a527a415ec656eec7ce304408fd728013c47006114f0d77d877cbe9f28",
      "v": 27,
      "creates": null,
      "raw": "0xf86c03850d8faf0c0b8252089432be343b94f860124dc4fee278fdcbd38c102d8888895f851bb3281800801ba037b84af79a95d7e9808a9dda8c1608da744194b9b708e079befc2c705d332d60a05ae465a527a415ec656eec7ce304408fd728013c47006114f0d77d877cbe9f28",
      "networkId": 0,
      "chainId": 0
    },
    {
      "hash": "0x807d23de9f270ce42bad1b83051346026580cbb2a82dd91883a281eae8a92ed1",
      "blockHash": "0x87ac2f938b7fa6f69839c59b47be55971ae073c18297dc1d7ec58f3bb62718a1",
      "blockNumber": 89375,
      "transactionIndex": 2,
      "confirmations": null,
      "from": "0x22F8c1Ba58a1a6554386175Ac3365A038e07aEfc",
      "gasPrice": {
        "_hex": "0xd8faf0c0b"
      },
      "gasLimit": {
        "_hex": "0x5208"
      },
      "to": "0x32Be343B94f860124dC4fEe278FDCBD38C102D88",
      "value": {
        "_hex": "0x58cd05a4953e3400"
      },
      "nonce": 0,
      "data": "0x",
      "r": "0x8c414dd90b4f3e0e4aca8c16bd4af82737bb671c00103337c1bfa5f3f44e5192",
      "s": "0x1d50eef2ddaaf45b0376bd2bee2b92d44483ffabdf10457d68c76886864d17d9",
      "v": 28,
      "creates": null,
      "raw": "0xf86c80850d8faf0c0b8252089432be343b94f860124dc4fee278fdcbd38c102d888858cd05a4953e3400801ca08c414dd90b4f3e0e4aca8c16bd4af82737bb671c00103337c1bfa5f3f44e5192a01d50eef2ddaaf45b0376bd2bee2b92d44483ffabdf10457d68c76886864d17d9",
      "networkId": 0,
      "chainId": 0
    }
  ]
}