{
  "hash": "0x8c2b935edba893f9c91fbd926b7d89ae185104843023213db809068263f41468",
  "parentHash": "0xa87e4005feed2944a2b6a19da493104ee3e003ee740785a145c0daa4fc5311de",
  "number": 85823,
  "timestamp": 1439569311,
  "nonce": "0xf8b3ca4c91dcdd46",
  "difficulty": 2773169113784,
  "gasLimit": {
    "_hex": "0x2fefd8"
  },
  "gasUsed": {
    "_hex": "0x546c"
  },
  "miner": "0x790b8a3cE86E707ED0eD32bF89B3269692a23CC1",
  "extraData": "0xd783010001844765746887676f312e342e32856c696e7578",
  "transactions": [
    {
      "hash": "0xf50977ce37c143c14d347cf7ba25864ec94736c0cabafb5d049fce3214ff976e",
      "blockHash": "0x8c2b935edba893f9c91fbd926b7d89ae185104843023213db809068263f41468",
      "blockNumber": 85823,
      "transactionIndex": 0,
      "confirmations": null,
      "from": "0xEc6904bAE1f69790591709b0609783733f2573e3",
      "gasPrice": {
        "_hex": "0x110c8f7d8de"
      },
      "gasLimit": {
        "_hex": "0xc350"
      },
      "to": "0x2910543Af39abA0Cd09dBb2D50200b3E800A63D2",
      "value": {
        "_hex": "0xd8d726b7177a80000"
      },
      "nonce": 0,
      "data": "0x454e484a4656515930",
      "r": "0x19e45af55e05685a356ac93ecf0917f2ac64f113e43f3921d045923a83327995",
      "s": "0x522f6170b39af8ad39a5ad3622e20aad50ac2d63faca65e4240623c09429f0f8",
      "v": 27,
      "creates": null,
      "raw": "0xf87780860110c8f7d8de82c350942910543af39aba0cd09dbb2d50200b3e800a63d2890d8d726b7177a8000089454e484a46565159301ba019e45af55e05685a356ac93ecf0917f2ac64f113e43f3921d045923a83327995a0522f6170b39af8ad39a5ad3622e20aad50ac2d63faca65e4240623c09429f0f8",
      "networkId": 0,
      "chainId": 0
    }
  ]
}