{
  "hash": "0x2db16317999c03345ce85cb655a4943dcf8526673414189cd174e129bb7fb457",
  "parentHash": "0x6860cf87b393335acc2ee7312f037c17bfabc2ce0d3c87a5ac73f574f4eaa054",
  "number": 120921,
  "timestamp": 1440168406,
  "nonce": "0x5a990ff7d398f361",
  "difficulty": 4421636625278,
  "gasLimit": {
    "_hex": "0x2fefd8"
  },
  "gasUsed": {
    "_hex": "0xa410"
  },
  "miner": "0x52bc44d5378309EE2abF1539BF71dE1b7d7bE3b5",
  "extraData": "0xd783010002844765746887676f312e342e32856c696e7578",
  "transactions": [
    {
      "hash": "0x46b23928548866a11b073d30448699767e7e481dc074942c092fd35b265fbb47",
      "blockHash": "0x2db16317999c03345ce85cb655a4943dcf8526673414189cd174e129bb7fb457",
      "blockNumber": 120921,
      "transactionIndex": 0,
      "confirmations": null,
      "from": "0x276e2f360f94f35DDc4a45F16Ca8771A746a4582",
      "gasPrice": {
        "_hex": "0xd2a459a0e"
      },
      "gasLimit": {
        "_hex": "0x15f90"
      },
      "to": "0x44Cb7068a28bc4B195e658ae160CC64289BC4012",
      "value": {
        "_hex": "0xf9ccd8a1c5080000"
      },
      "nonce": 4,
      "data": "0x",
      "r": "0x8b52ce62686a7cff5e696561ed14c1d17042fe5f1519db3af610d364a4e6069a",
      "s": "0x3f747bb86574c73a091b460f14a4133d35347055c4d5f396749175273cba21e9",
      "v": 27,
      "creates": null,
      "raw": "0xf86d04850d2a459a0e83015f909444cb7068a28bc4b195e658ae160cc64289bc401288f9ccd8a1c5080000801ba08b52ce62686a7cff5e696561ed14c1d17042fe5f1519db3af610d364a4e6069aa03f747bb86574c73a091b460f14a4133d35347055c4d5f396749175273cba21e9",
      "networkId": 0,
      "chainId": 0
    },
    {
      "hash": "0x5946085768ae5f51242b5af3100309635364e396493911f052515741cd34bb2e",
      "blockHash": "0x2db16317999c03345ce85cb655a4943dcf8526673414189cd174e129bb7fb457",
      "blockNumber": 120921,
      "transactionIndex": 1,
      "confirmations": null,
      "from": "0x4c74B6F32c9680aCB5Fe0e72B7Aa95C612540A04",
      "gasPrice": {
        "_hex": "0xba43b7400"
      },
      "gasLimit": {
        "_hex": "0x5208"
      },
      "to": "0x32Be343B94f860124dC4fEe278FDCBD38C102D88",
      "value": {
        "_hex": "0x377f1fd6708c6000"
      },
      "nonce": 46,
      "data": "0x",
      "r": "0x336d417dcbb3a3c3493b2c9c07f3b8929e05cde846fcabcafd91b8a42e691468",
      "s": "0x59f095f218de83894d9906679ab5eeb39b539116f7b60fee6bd0f5932c318f9b",
      "v": 27,
      "creates": null,
      "raw": "0xf86c2e850ba43b74008252089432be343b94f860124dc4fee278fdcbd38c102d8888377f1fd6708c6000801ba0336d417dcbb3a3c3493b2c9c07f3b8929e05cde846fcabcafd91b8a42e691468a059f095f218de83894d9906679ab5eeb39b539116f7b60fee6bd0f5932c318f9b",
      "networkId": 0,
      "chainId": 0
    }
  ]
}