{
  "hash": "0x26a33926bdd55a52c0c01402f6c601c56891b0359e4f3309e9a53990f22dbb73",
  "parentHash": "0x1b0f20820ca410880d88bd0444728bf85b55efb3c3a883a8e49404ea451092cd",
  "number": 76753,
  "timestamp": 1439425599,
  "nonce": "0xa0685b0cfc258a0e",
  "difficulty": 2243823515304,
  "gasLimit": {
    "_hex": "0x2fefd8"
  },
  "gasUsed": {
    "_hex": "0x546c"
  },
  "miner": "0xBD744E3F13D79B33F6c8E1d5E32F8E9BA2866c46",
  "extraData": "0x476574682f76312e302e312d39613032663533372f6c696e75782f676f312e34",
  "transactions": [
    {
      "hash": "0x040a1a91a6c7b8eb168793a8a2a6fbb0324ef1f49c50774c893db46e66211f13",
      "blockHash": "0x26a33926bdd55a52c0c01402f6c601c56891b0359e4f3309e9a53990f22dbb73",
      "blockNumber": 76753,
      "transactionIndex": 0,
      "confirmations": null,
      "from": "0xFf9a46E0358502f3Ae5D7faBF50E71A067259A9A",
      "gasPrice": {
        "_hex": "0xd1020961d"
      },
      "gasLimit": {
        "_hex": "0x15f90"
      },
      "to": "0xc0b9d23f8d37650D0141B559dbD33d94Ea004e07",
      "value": {
        "_hex": "0x4e1003b28d9280000"
      },
      "nonce": 0,
      "data": "0x454e433933464b3330",
      "r": "0xb6f4556065c4b6738afa8f818a1611df2a675adb74f77e7bd534bb299c3cce37",
      "s": "0x57e54a3188912afef322bf0c3922eb39357034e7e39271a611cbd41cef3d626d",
      "v": 27,
      "creates": null,
      "raw": "0xf87780850d1020961d83015f9094c0b9d23f8d37650d0141b559dbd33d94ea004e078904e1003b28d928000089454e433933464b33301ba0b6f4556065c4b6738afa8f818a1611df2a675adb74f77e7bd534bb299c3cce37a057e54a3188912afef322bf0c3922eb39357034e7e39271a611cbd41cef3d626d",
      "networkId": 0,
      "chainId": 0
    }
  ]
}