{
  "hash": "0x75fe4505f4516645b15e1b986ee8469d94b232ab77c34d86aad46dea0dae51e4",
  "parentHash": "0x88a0a9d2053c74c0a85023fc69a11c1db15aff5ffa74cd6e08fffea11cfc2781",
  "number": 84497,
  "timestamp": 1439550542,
  "nonce": "0x79dcf9e5a1c1a401",
  "difficulty": 2565167595811,
  "gasLimit": {
    "_hex": "0x2fefd8"
  },
  "gasUsed": {
    "_hex": "0x5208"
  },
  "miner": "0xB5EDD17d2582A94610ebf0C6832c1652EBBBe210",
  "extraData": "0x476574682f76312e302e312d38326566323666362f6c696e75782f676f312e34",
  "transactions": [
    {
      "hash": "0x851eb04db62696082b3867610cfc7c5cbc8e4a7dba58b7a4f3baf7db446c44eb",
      "blockHash": "0x75fe4505f4516645b15e1b986ee8469d94b232ab77c34d86aad46dea0dae51e4",
      "blockNumber": 84497,
      "transactionIndex": 0,
      "confirmations": null,
      "from": "0x0D4EcC7d750180EBf4A9Df728B6669B5Bceb5E40",
      "gasPrice": {
        "_hex": "0xdd72ccfa7"
      },
      "gasLimit": {
        "_hex": "0x5208"
      },
      "to": "0x32Be343B94f860124dC4fEe278FDCBD38C102D88",
      "value": {
        "_hex": "0x340632ad5cca2800"
      },
      "nonce": 26,
      "data": "0x",
      "r": "0x54cc4617994d561fa05dd17a643cddc33c1cd1a58bc4129440885a9c282deb7e",
      "s": "0x1bc994d51a8b7d4dd449a68864e8f9dc4715fe5269fde91e83abb34b6f0ed106",
      "v": 27,
      "creates": null,
      "raw": "0xf86c1a850dd72ccfa78252089432be343b94f860124dc4fee278fdcbd38c102d8888340632ad5cca2800801ba054cc4617994d561fa05dd17a643cddc33c1cd1a58bc4129440885a9c282deb7ea01bc994d51a8b7d4dd449a68864e8f9dc4715fe5269fde91e83abb34b6f0ed106",
      "networkId": 0,
      "chainId": 0
    }
  ]
}