{
  "hash": "0x3301b847f61cacafa67a7f82978197c8254b37225068ea004304826fd741ba82",
  "parentHash": "0xe4cedf8c9a1184d354de53080c810a60b5cba06b141d00b7da812d2382ccb2dc",
  "number": 49914,
  "timestamp": 1438981241,
  "nonce": "0x8bd1b0ae1a2f2942",
  "difficulty": 1494382076429,
  "gasLimit": {
    "_hex": "0x45818"
  },
  "gasUsed": {
    "_hex": "0x546c"
  },
  "miner": "0xB5EDD17d2582A94610ebf0C6832c1652EBBBe210",
  "extraData": "0x476574682f76312e302e302d30636463373634372f6c696e75782f676f312e34",
  "transactions": [
    {
      "hash": "0x37b08424d2780625a68ec03c98d6256e002d1da6afc2ac666a0787ad9bd13ee5",
      "blockHash": "0x3301b847f61cacafa67a7f82978197c8254b37225068ea004304826fd741ba82",
      "blockNumber": 49914,
      "transactionIndex": 0,
      "confirmations": null,
      "from": "0x5E51b8a3BB09D303EA7c86051582fd600FB3DC1a",
      "gasPrice": {
        "_hex": "0x1077bd11e52"
      },
      "gasLimit": {
        "_hex": "0x15f90"
      },
      "to": "0x2910543Af39abA0Cd09dBb2D50200b3E800A63D2",
      "value": {
        "_hex": "0x4563918244f40000"
      },
      "nonce": 1,
      "data": "0x454e425751464a4b52",
      "r": "0x710e692d9d3e36d0b0e1054e4783d12b817a80cd93c2c9e9d902ce04f93c1b25",
      "s": "0x1302cddd1243bff70bd3da291d52c95471199fe0ba5f22843810a7940b851833",
      "v": 27,
      "creates": null,
      "raw": "0xf877018601077bd11e5283015f90942910543af39aba0cd09dbb2d50200b3e800a63d2884563918244f4000089454e425751464a4b521ba0710e692d9d3e36d0b0e1054e4783d12b817a80cd93c2c9e9d902ce04f93c1b25a01302cddd1243bff70bd3da291d52c95471199fe0ba5f22843810a7940b851833",
      "networkId": 0,
      "chainId": 0
    }
  ]
}