{
  "hash": "0xd01150ad72e9b5fefbdadab9838cb9ff6b38c3e015a70149546a715a6d355574",
  "parentHash": "0x41260472068f7b8b419e7c728589b0ec674f925aeee92c31c3c9ea09715330ee",
  "number": 91900,
  "timestamp": 1439663428,
  "nonce": "0x5a1faa8e8a986888",
  "difficulty": 3477512067293,
  "gasLimit": {
    "_hex": "0x2fefd8"
  },
  "gasUsed": {
    "_hex": "0x5208"
  },
  "miner": "0x5F8F73E26CdF436f19Cb24C82F90A15AFe55b592",
  "extraData": "0x476574682f76312e302e312f77696e646f77732f676f312e342e32",
  "transactions": [
    {
      "hash": "0xbbe38528a6b0bd2f9890f32714925afca750adf09c5dcbb0b04c65c6fe204b70",
      "blockHash": "0xd01150ad72e9b5fefbdadab9838cb9ff6b38c3e015a70149546a715a6d355574",
      "blockNumber": 91900,
      "transactionIndex": 0,
      "confirmations": null,
      "from": "0x8293b65bD915B9FF87F6aDAb479da2e5b6633fDB",
      "gasPrice": {
        "_hex": "0xcb03fe4dd"
      },
      "gasLimit": {
        "_hex": "0x15f90"
      },
      "to": "0x9f78552704fe7e52cC7C3853534aA2C3cf580D54",
      "value": {
        "_hex": "0x8ac7230489e80000"
      },
      "nonce": 22,
      "data": "0x",
      "r": "0x38bedf551345b5261c50f62b2bc9e8c98a45a218b70f4faad809b281b9f045c0",
      "s": "0x5886c849adcdbb8a1f7168a31ad1e9a6408658e038064aef39eec95355214b64",
      "v": 28,
      "creates": null,
      "raw": "0xf86d16850cb03fe4dd83015f90949f78552704fe7e52cc7c3853534aa2c3cf580d54888ac7230489e80000801ca038bedf551345b5261c50f62b2bc9e8c98a45a218b70f4faad809b281b9f045c0a05886c849adcdbb8a1f7168a31ad1e9a6408658e038064aef39eec95355214b64",
      "networkId": 0,
      "chainId": 0
    }
  ]
}