{
  "hash": "0x9d99bd3d075bea49073fd7d9b4c221d8abb9c7e085e02760c70c93de73e7efad",
  "parentHash": "0x2ff482c66c776018b4d5982e6ceab55e7e08b3dacfa32b2f59003be4c7f977a7",
  "number": 89360,
  "timestamp": 1439622214,
  "nonce": "0xc7371abe889c5f86",
  "difficulty": 3303102208094,
  "gasLimit": {
    "_hex": "0x2fefd8"
  },
  "gasUsed": {
    "_hex": "0x5208"
  },
  "miner": "0x88D74a59454F6cF3B51ef6b9136AFb6b9D405A88",
  "extraData": "0x476574682f76312e302e312d37666266393930632f6c696e75782f676f312e34",
  "transactions": [
    {
      "hash": "0xb5c1db566402c2fda37d85f8f43bdf4dea4232832d88ec947d8bdb11bb8689f3",
      "blockHash": "0x9d99bd3d075bea49073fd7d9b4c221d8abb9c7e085e02760c70c93de73e7efad",
      "blockNumber": 89360,
      "transactionIndex": 0,
      "confirmations": null,
      "from": "0x06EC48800B2DB3eEfa052e98A9b5Fc2Bf783Ee74",
      "gasPrice": {
        "_hex": "0xe24457a27"
      },
      "gasLimit": {
        "_hex": "0x5208"
      },
      "to": "0x32Be343B94f860124dC4fEe278FDCBD38C102D88",
      "value": {
        "_hex": "0x455f0972c88ac800"
      },
      "nonce": 12,
      "data": "0x",
      "r": "0x3db1061de463890ac15ed66c7815cf4fad824e169e1b194a5240c5059deb02f6",
      "s": "0x1817554ab00cbdf19523babef59773d9c4c6c070519aadf7c1f73c1f0a444450",
      "v": 28,
      "creates": null,
      "raw": "0xf86c0c850e24457a278252089432be343b94f860124dc4fee278fdcbd38c102d8888455f0972c88ac800801ca03db1061de463890ac15ed66c7815cf4fad824e169e1b194a5240c5059deb02f6a01817554ab00cbdf19523babef59773d9c4c6c070519aadf7c1f73c1f0a444450",
      "networkId": 0,
      "chainId": 0
    }
  ]
}