{
  "hash": "0x48f4f3ad42c054c35325d6ccba0217626c01e7e491671adcc957dc1e7034fd23",
  "parentHash": "0x649a5491d14fd383fb93bfbb6e77ce8179a1f6f0358ff750d93bc0f21de0e378",
  "number": 74263,
  "timestamp": 1439383239,
  "nonce": "0x5e1efca1e257a9f2",
  "difficulty": 2211851018094,
  "gasLimit": {
    "_hex": "0x2fefd8"
  },
  "gasUsed": {
    "_hex": "0xae510"
  },
  "miner": "0xe6A7a1d47ff21B6321162AEA7C6CB457D5476Bca",
  "extraData": "0x476574682f76312e302e312d38326566323666362f6c696e75782f676f312e34",
  "transactions": [
    {
      "hash": "0x8778821e30e09917f4a8342e4d62826758ce02dc23557583d95b9dfc445c9e5f",
      "blockHash": "0x48f4f3ad42c054c35325d6ccba0217626c01e7e491671adcc957dc1e7034fd23",
      "blockNumber": 74263,
      "transactionIndex": 0,
      "confirmations": null,
      "from": "0xe6A7a1d47ff21B6321162AEA7C6CB457D5476Bca",
      "gasPrice": {
        "_hex": "0xd7e0e1d15"
      },
      "gasLimit": {
        "_hex": "0x55f0"
      },
      "to": "0xC8E18619E6F0976FC389a37cba21bc6d080284ee",
      "value": {
        "_hex": "0x88687d02e788cf68"
      },
      "nonce": 870,
      "data": "0x",
      "r": "0x2c51983eb35de62493f3c7fc72ed18320930fe69aa2556648ce149869b33c788",
      "s": "0x5493d2da31a96f2f3e1445059e83ef7d0f2dc95e9d311bd8b27638d267ee5d99",
      "v": 28,
      "creates": null,
      "raw": "0xf86e820366850d7e0e1d158255f094c8e18619e6f0976fc389a37cba21bc6d080284ee8888687d02e788cf68801ca02c51983eb35de62493f3c7fc72ed18320930fe69aa2556648ce149869b33c788a05493d2da31a96f2f3e1445059e83ef7d0f2dc95e9d311bd8b27638d267ee5d99",
      "networkId": 0,
      "chainId": 0
    },
    {
      "hash": "0xf0c9aaab5b3f661e9e950d70d39fb98b011a70e6065b8e3d0bf971af377c97f5",
      "blockHash": "0x48f4f3ad42c054c35325d6ccba0217626c01e7e491671adcc957dc1e7034fd23",
      "blockNumber": 74263,
      "transactionIndex": 1,
      "confirmations": null,
      "from": "0xe6A7a1d47ff21B6321162AEA7C6CB457D5476Bca",
      "gasPrice": {
        "_hex": "0xd7e0e1d15"
      },
      "gasLimit": {
        "_hex": "0x55f0"
      },
      "to": "0xcD690730A45cdebeF24F2a3db2de181bFBA5CBea",
      "value": {
        "_hex": "0x88d10325cb458e88"
      },
      "nonce": 871,
      "data": "0x",
      "r": "0xf4f7d99399865dfe2dc0b8e4a982fd9b8a28bf426e6c785d511e916fb0815a5b",
      "s": "0x36d0f0658a92ff9c853f921466c4badf2587917b770939fcbca34596c2388ac2",
      "v": 27,
      "creates": null,
      "raw": "0xf86e820367850d7e0e1d158255f094cd690730a45cdebef24f2a3db2de181bfba5cbea8888d10325cb458e88801ba0f4f7d99399865dfe2dc0b8e4a982fd9b8a28bf426e6c785d511e916fb0815a5ba036d0f0658a92ff9c853f921466c4badf2587917b770939fcbca34596c2388ac2",
      "networkId": 0,
      "chainId": 0
    },
    {
      "hash": "0x658b14fa670261c17b9d7049f28d7bc5a0f41a004781137909fe2e1abab720f1",
      "blockHash": "0x48f4f3ad42c054c35325d6ccba0217626c01e7e491671adcc957dc1e7034fd23",
      "blockNumber": 74263,
      "transactionIndex": 2,
      "confirmations": null,
      "from": "0xe6A7a1d47ff21B6321162AEA7C6CB457D5476Bca",
      "gasPrice": {
        "_hex": "0xd7e0e1d15"
      },
      "gasLimit": {
        "_hex": "0x55f0"
      },
      "to": "0x744Df4ED8BaC8eBCa76964a93358c3A67a89b003",
      "value": {
        "_hex": "0x89db61462ffd20a0"
      },
      "nonce": 872,
      "data": "0x",
      "r": "0x78cc5a55b6747c17aa0e0253ca46f59a6c1cc9e2dc3b8d14a16d8e03d0cb30b1",
      "s": "0x5d68137f803828577bf9a83d0d161aa3e958a898cbe735a3f09973311e4d9fb7",
      "v": 28,
      "creates": null,
      "raw": "0xf86e820368850d7e0e1d158255f094744df4ed8bac8ebca76964a93358c3a67a89b0038889db61462ffd20a0801ca078cc5a55b6747c17aa0e0253ca46f59a6c1cc9e2dc3b8d14a16d8e03d0cb30b1a05d68137f803828577bf9a83d0d161aa3e958a898cbe735a3f09973311e4d9fb7",
      "networkId": 0,
      "chainId": 0
    },
    {
      "hash": "0x49a4655f9ad9a15800ae10a649a86245ad96cff3f54becaa15742b94b718a5d3",
      "blockHash": "0x48f4f3ad42c054c35325d6ccba0217626c01e7e491671adcc957dc1e7034fd23",
      "blockNumber": 74263,
      "transactionIndex": 3,
      "confirmations": null,
      "from": "0xe6A7a1d47ff21B6321162AEA7C6CB457D5476Bca",
      "gasPrice": {
        "_hex": "0xd7e0e1d15"
      },
      "gasLimit": {
        "_hex": "0x55f0"
      },
      "to": "0x4873313Ba85B8127aF35C5c73433720FC90ba4Fe",
      "value": {
        "_hex": "0x8a29eb92225a1690"
      },
      "nonce": 873,
      "data": "0x",
      "r": "0x342e1b8c4387d063f0d4df5c8b4f2153b10bbaced450fe5f08e17f765e62c27d",
      "s": "0x4fc3b8a27ea7100bd6f2c6906687819dd97768187643248c6727ce4ccf11ccfa",
      "v": 28,
      "creates": null,
      "raw": "0xf86e820369850d7e0e1d158255f0944873313ba85b8127af35c5c73433720fc90ba4fe888a29eb92225a1690801ca0342e1b8c4387d063f0d4df5c8b4f2153b10bbaced450fe5f08e17f765e62c27da04fc3b8a27ea7100bd6f2c6906687819dd97768187643248c6727ce4ccf11ccfa",
      "networkId": 0,
      "chainId": 0
    },
    {
      "hash": "0xd62768329789285e71c8e3a2b2aabdaa268fd581bceb07fbcb0f3a3ab2935997",
      "blockHash": "0x48f4f3ad42c054c35325d6ccba0217626c01e7e491671adcc957dc1e7034fd23",
      "blockNumber": 74263,
      "transactionIndex": 4,
      "confirmations": null,
      "from": "0xe6A7a1d47ff21B6321162AEA7C6CB457D5476Bca",
      "gasPrice": {
        "_hex": "0xd7e0e1d15"
      },
      "gasLimit": {
        "_hex": "0x55f0"
      },
      "to": "0x8421b6810A1aee71B0baa38D7E1b5de6f71245d2",
      "value": {
        "_hex": "0x8bd2e9ec911c6620"
      },
      "nonce": 874,
      "data": "0x",
      "r": "0x95f8ea62675eaa088329c5dbfcb927f0659de1f2f81c57dd4ba7552319ea3ae2",
      "s": "0x3c1a95aa886c3dec10810f229a10e66ac7e7b5fadf5b3afef787a11758bc3ddb",
      "v": 28,
      "creates": null,
      "raw": "0xf86e82036a850d7e0e1d158255f0948421b6810a1aee71b0baa38d7e1b5de6f71245d2888bd2e9ec911c6620801ca095f8ea62675eaa088329c5dbfcb927f0659de1f2f81c57dd4ba7552319ea3ae2a03c1a95aa886c3dec10810f229a10e66ac7e7b5fadf5b3afef787a11758bc3ddb",
      "networkId": 0,
      "chainId": 0
    },
    {
      "hash": "0xee09e2367960299d87db4c4da1cd86d89fc256fb4620b73b13d807af302b5fc9",
      "blockHash": "0x48f4f3ad42c054c35325d6ccba0217626c01e7e491671adcc957dc1e7034fd23",
      "blockNumber": 74263,
      "transactionIndex": 5,
      "confirmations": null,
      "from": "0xe6A7a1d47ff21B6321162AEA7C6CB457D5476Bca",
      "gasPrice": {
        "_hex": "0xd7e0e1d15"
      },
      "gasLimit": {
        "_hex": "0x55f0"
      },
      "to": "0x7550E0d09f273C690454B44F794D7D381B2E55EA",
      "value": {
        "_hex": "0x8c84054cdcba87d8"
      },
      "nonce": 875,
      "data": "0x",
      "r": "0x67d2718f7864a12a91824403f86213d74018afd1a37607266d8df837123d2afd",
      "s": "0x1adf0c89adf9f7a860f6bd877a38c362bb950aab116b952c12d161d04c0e4bca",
      "v": 27,
      "creates": null,
      "raw": "0xf86e82036b850d7e0e1d158255f0947550e0d09f273c690454b44f794d7d381b2e55ea888c84054cdcba87d8801ba067d2718f7864a12a91824403f86213d74018afd1a37607266d8df837123d2afda01adf0c89adf9f7a860f6bd877a38c362bb950aab116b952c12d161d04c0e4bca",
      "networkId": 0,
      "chainId": 0
    },
    {
      "hash": "0xac89a46b7738e80e8cec167be85d89a71dd8cd1fd34a4c0c26b01d66c70db82a",
      "blockHash": "0x48f4f3ad42c054c35325d6ccba0217626c01e7e491671adcc957dc1e7034fd23",
      "blockNumber": 74263,
      "transactionIndex": 6,
      "confirmations": null,
      "from": "0xe6A7a1d47ff21B6321162AEA7C6CB457D5476Bca",
      "gasPrice": {
        "_hex": "0xd7e0e1d15"
      },
      "gasLimit": {
        "_hex": "0x55f0"
      },
      "to": "0x05a56E2D52c817161883f50c441c3228CFe54d9f",
      "value": {
        "_hex": "0x8dc7d0e2cb31a838"
      },
      "nonce": 876,
      "data": "0x",
      "r": "0x86ad5854f9b23470bf9f37545fdcfb39255c7ce361c5bef862c4cf6e867eead0",
      "s": "0x27694e327f24e5986fa4bf197edb8b17a2ba3c7dd4b0c4cfcb1645d5017e58d2",
      "v": 27,
      "creates": null,
      "raw": "0xf86e82036c850d7e0e1d158255f09405a56e2d52c817161883f50c441c3228cfe54d9f888dc7d0e2cb31a838801ba086ad5854f9b23470bf9f37545fdcfb39255c7ce361c5bef862c4cf6e867eead0a027694e327f24e5986fa4bf197edb8b17a2ba3c7dd4b0c4cfcb1645d5017e58d2",
      "networkId": 0,
      "chainId": 0
    },
    {
      "hash": "0x0e28b1a093c2396ce62d56dda8d28a758970449d494ead912aa67dc1aff31a93",
      "blockHash": "0x48f4f3ad42c054c35325d6ccba0217626c01e7e491671adcc957dc1e7034fd23",
      "blockNumber": 74263,
      "transactionIndex": 7,
      "confirmations": null,
      "from": "0xe6A7a1d47ff21B6321162AEA7C6CB457D5476Bca",
      "gasPrice": {
        "_hex": "0xd7e0e1d15"
      },
      "gasLimit": {
        "_hex": "0x55f0"
      },
      "to": "0x6599C9c86f1635FAAEFE7A5540914811DAD8d167",
      "value": {
        "_hex": "0x8dd04b20ef2de718"
      },
      "nonce": 877,
      "data": "0x",
      "r": "0x2b1ab346280b3f7d75170f07cdb053ad32cf7d7a21e0ba6ea3862398c2e864f3",
      "s": "0x7fd46c4b477d030694c4f40e283467dcaf4cb9d8c3c202ae772aa41e367b1238",
      "v": 27,
      "creates": null,
      "raw": "0xf86e82036d850d7e0e1d158255f0946599c9c86f1635faaefe7a5540914811dad8d167888dd04b20ef2de718801ba02b1ab346280b3f7d75170f07cdb053ad32cf7d7a21e0ba6ea3862398c2e864f3a07fd46c4b477d030694c4f40e283467dcaf4cb9d8c3c202ae772aa41e367b1238",
      "networkId": 0,
      "chainId": 0
    },
    {
      "hash": "0x37e63f5252d408b58ba321b94ccbfd9be3db4e8c4a640a2a52d0827cbc9a6279",
      "blockHash": "0x48f4f3ad42c054c35325d6ccba0217626c01e7e491671adcc957dc1e7034fd23",
      "blockNumber": 74263,
      "transactionIndex": 8,
      "confirmations": null,
      "from": "0xe6A7a1d47ff21B6321162AEA7C6CB457D5476Bca",
      "gasPrice": {
        "_hex": "0xd7e0e1d15"
      },
      "gasLimit": {
        "_hex": "0x55f0"
      },
      "to": "0x91139B30e3d090a8c542CFB2AA1Cc6e3bfFB491C",
      "value": {
        "_hex": "0x913f4761a79f0f08"
      },
      "nonce": 878,
      "data": "0x",
      "r": "0xd0cc9ff25dd0962dab33dc181bdb976582b3b3c37898ce130624be769f4f77ef",
      "s": "0x31484a59c843c5c07c1d4225fa5a397cce2ec2ed27ff0cc2ce26047a26e1bc23",
      "v": 28,
      "creates": null,
      "raw": "0xf86e82036e850d7e0e1d158255f09491139b30e3d090a8c542cfb2aa1cc6e3bffb491c88913f4761a79f0f08801ca0d0cc9ff25dd0962dab33dc181bdb976582b3b3c37898ce130624be769f4f77efa031484a59c843c5c07c1d4225fa5a397cce2ec2ed27ff0cc2ce26047a26e1bc23",
      "networkId": 0,
      "chainId": 0
    },
    {
      "hash": "0xc87ca58c9009a727056bcb8a8cadcab822e9769aaedaf2aa91d2173c09b4e58a",
      "blockHash": "0x48f4f3ad42c054c35325d6ccba0217626c01e7e491671adcc957dc1e7034fd23",
      "blockNumber": 74263,
      "transactionIndex": 9,
      "confirmations": null,
      "from": "0xe6A7a1d47ff21B6321162AEA7C6CB457D5476Bca",
      "gasPrice": {
        "_hex": "0xd7e0e1d15"
      },
      "gasLimit": {
        "_hex": "0x55f0"
      },
      "to": "0x94c4f7b5aaF084e74A7611900D93eaDeA47A137F",
      "value": {
        "_hex": "0x9168f1cd0c2d9ec8"
      },
      "nonce": 879,
      "data": "0x",
      "r": "0x635455e8b629f71de0c4eaf2c37f8bff9d43550a23a0c4a3f41ebcd0865d5309",
      "s": "0x24fe238024d431e258d1b10195f6ff1829c27a28898542e7957eade302314d2d",
      "v": 27,
      "creates": null,
      "raw": "0xf86e82036f850d7e0e1d158255f09494c4f7b5aaf084e74a7611900d93eadea47a137f889168f1cd0c2d9ec8801ba0635455e8b629f71de0c4eaf2c37f8bff9d43550a23a0c4a3f41ebcd0865d5309a024fe238024d431e258d1b10195f6ff1829c27a28898542e7957eade302314d2d",
      "networkId": 0,
      "chainId": 0
    },
    {
      "hash": "0xc6985272df95c5e215306a74c1b842d292f84488c626db1e891d1cf04d8eb6a3",
      "blockHash": "0x48f4f3ad42c054c35325d6ccba0217626c01e7e491671adcc957dc1e7034fd23",
      "blockNumber": 74263,
      "transactionIndex": 10,
      "confirmations": null,
      "from": "0xe6A7a1d47ff21B6321162AEA7C6CB457D5476Bca",
      "gasPrice": {
        "_hex": "0xd7e0e1d15"
      },
      "gasLimit": {
        "_hex": "0x55f0"
      },
      "to": "0xb7B3690EFa6b3f08D4EC289fF655C4b7bb15EE39",
      "value": {
        "_hex": "0x92f11b3c7cb3ce48"
      },
      "nonce": 880,
      "data": "0x",
      "r": "0x0a198a0f9d408341dd44c4beaa9db2f92f2b097c52f2b8bdf44eee9194e41146",
      "s": "0x3c63c42067019e5e560a1d7592c23b3ad3a6cddb0377fe6eb140b2e9902dd0c2",
      "v": 28,
      "creates": null,
      "raw": "0xf86e820370850d7e0e1d158255f094b7b3690efa6b3f08d4ec289ff655c4b7bb15ee398892f11b3c7cb3ce48801ca00a198a0f9d408341dd44c4beaa9db2f92f2b097c52f2b8bdf44eee9194e41146a03c63c42067019e5e560a1d7592c23b3ad3a6cddb0377fe6eb140b2e9902dd0c2",
      "networkId": 0,
      "chainId": 0
    },
    {
      "hash": "0xfb32a634584a7298ca48f356cae8a317450c602739204e4e2ed018ee6b808fbc",
      "blockHash": "0x48f4f3ad42c054c35325d6ccba0217626c01e7e491671adcc957dc1e7034fd23",
      "blockNumber": 74263,
      "transactionIndex": 11,
      "confirmations": null,
      "from": "0xe6A7a1d47ff21B6321162AEA7C6CB457D5476Bca",
      "gasPrice": {
        "_hex": "0xd7e0e1d15"
      },
      "gasLimit": {
        "_hex": "0x55f0"
      },
      "to": "0x2118baa5B9d6423676CF5502Eb6eaeD859228c33",
      "value": {
        "_hex": "0x9355b7101e11dfe0"
      },
      "nonce": 881,
      "data": "0x",
      "r": "0xdefe68e346c92b725fca2d87e4acb900563c1e3cdf66ec56e043c7ffadefd346",
      "s": "0x747bf8793c18d8b62a0b56e810b144903256e5cc1d300baa3bcf1107573b18c2",
      "v": 28,
      "creates": null,
      "raw": "0xf86e820371850d7e0e1d158255f0942118baa5b9d6423676cf5502eb6eaed859228c33889355b7101e11dfe0801ca0defe68e346c92b725fca2d87e4acb900563c1e3cdf66ec56e043c7ffadefd346a0747bf8793c18d8b62a0b56e810b144903256e5cc1d300baa3bcf1107573b18c2",
      "networkId": 0,
      "chainId": 0
    },
    {
      "hash": "0xc9d285024bf74e6478b9b674d27074a7666514f3b18dca7c4f45fe0a7d677436",
      "blockHash": "0x48f4f3ad42c054c35325d6ccba0217626c01e7e491671adcc957dc1e7034fd23",
      "blockNumber": 74263,
      "transactionIndex": 12,
      "confirmations": null,
      "from": "0xe6A7a1d47ff21B6321162AEA7C6CB457D5476Bca",
      "gasPrice": {
        "_hex": "0xd7e0e1d15"
      },
      "gasLimit": {
        "_hex": "0x55f0"
      },
      "to": "0x6c716b5177cC5c983057af4D88F7152ebA2CC0a6",
      "value": {
        "_hex": "0x93bccc89d4e03820"
      },
      "nonce": 882,
      "data": "0x",
      "r": "0xf8553976c5c89ae922d98f88b184575d2bf48f41f8ee9b37cbaf78d63e58478f",
      "s": "0x50a441449228316e3eb0914dbd029d7f9d4c9b32d2a9148dba7337a8300c383a",
      "v": 27,
      "creates": null,
      "raw": "0xf86e820372850d7e0e1d158255f0946c716b5177cc5c983057af4d88f7152eba2cc0a68893bccc89d4e03820801ba0f8553976c5c89ae922d98f88b184575d2bf48f41f8ee9b37cbaf78d63e58478fa050a441449228316e3eb0914dbd029d7f9d4c9b32d2a9148dba7337a8300c383a",
      "networkId": 0,
      "chainId": 0
    },
    {
      "hash": "0xbe62a3d8a46a9297705c51d7e3708c785f1a0b568f5dd41ee59b7727bc30ea7d",
      "blockHash": "0x48f4f3ad42c054c35325d6ccba0217626c01e7e491671adcc957dc1e7034fd23",
      "blockNumber": 74263,
      "transactionIndex": 13,
      "confirmations": null,
      "from": "0xe6A7a1d47ff21B6321162AEA7C6CB457D5476Bca",
      "gasPrice": {
        "_hex": "0xd7e0e1d15"
      },
      "gasLimit": {
        "_hex": "0x55f0"
      },
      "to": "0x4bA6C728e6251DC89C317f7dbCA89D4136C0baB0",
      "value": {
        "_hex": "0x964dedd6fa4038c0"
      },
      "nonce": 883,
      "data": "0x",
      "r": "0xb3acd3f0e5e5209ec9669416a259c29aa85ee8a1bf6d1c508d82b663a278c458",
      "s": "0x2f4bf52a2695b9e66f4caf97409c377295669788e8c94de33541aabd20365469",
      "v": 28,
      "creates": null,
      "raw": "0xf86e820373850d7e0e1d158255f0944ba6c728e6251dc89c317f7dbca89d4136c0bab088964dedd6fa4038c0801ca0b3acd3f0e5e5209ec9669416a259c29aa85ee8a1bf6d1c508d82b663a278c458a02f4bf52a2695b9e66f4caf97409c377295669788e8c94de33541aabd20365469",
      "networkId": 0,
      "chainId": 0
    },
    {
      "hash": "0x03ecc5ddcb388b353259e46a2dd61c7e3d44740515b6dffdb99920212254069e",
      "blockHash": "0x48f4f3ad42c054c35325d6ccba0217626c01e7e491671adcc957dc1e7034fd23",
      "blockNumber": 74263,
      "transactionIndex": 14,
      "confirmations": null,
      "from": "0xe6A7a1d47ff21B6321162AEA7C6CB457D5476Bca",
      "gasPrice": {
        "_hex": "0xd7e0e1d15"
      },
      "gasLimit": {
        "_hex": "0x55f0"
      },
      "to": "0x027698B61229ECCa19311e977ADE3C2923D4e414",
      "value": {
        "_hex": "0x998096e1eda500c0"
      },
      "nonce": 884,
      "data": "0x",
      "r": "0xc3a1c408fb4d82f0a93cc389c479978f9a2f0ac42f14054964b5c1ee7413a905",
      "s": "0x09c84d2b31c1e1bcf27754752d0a2d9e67032385b29054744115eabf523931b0",
      "v": 27,
      "creates": null,
      "raw": "0xf86e820374850d7e0e1d158255f094027698b61229ecca19311e977ade3c2923d4e41488998096e1eda500c0801ba0c3a1c408fb4d82f0a93cc389c479978f9a2f0ac42f14054964b5c1ee7413a905a009c84d2b31c1e1bcf27754752d0a2d9e67032385b29054744115eabf523931b0",
      "networkId": 0,
      "chainId": 0
    },
    {
      "hash": "0xaf262f2798c368b202fce5eb58ed45f8ab84fb9febf92caadeb44def97a61add",
      "blockHash": "0x48f4f3ad42c054c35325d6ccba0217626c01e7e491671adcc957dc1e7034fd23",
      "blockNumber": 74263,
      "transactionIndex": 15,
      "confirmations": null,
      "from": "0xe6A7a1d47ff21B6321162AEA7C6CB457D5476Bca",
      "gasPrice": {
        "_hex": "0xd7e0e1d15"
      },
      "gasLimit": {
        "_hex": "0x55f0"
      },
      "to": "0x7CdE613438e85F25D299265Ab4bB2b4015fe2BD1",
      "value": {
        "_hex": "0x9c0ad40f6d6ff7c8"
      },
      "nonce": 885,
      "data": "0x",
      "r": "0x6de26093b817fd5c7f9a7687812ba8b716a7841e94a465032b4c952fa3cf23f6",
      "s": "0x7932fe37cc40155bf4b9410b2e4831811ba4a4b931ce6e9898045ce4abb6d7d7",
      "v": 27,
      "creates": null,
      "raw": "0xf86e820375850d7e0e1d158255f0947cde613438e85f25d299265ab4bb2b4015fe2bd1889c0ad40f6d6ff7c8801ba06de26093b817fd5c7f9a7687812ba8b716a7841e94a465032b4c952fa3cf23f6a07932fe37cc40155bf4b9410b2e4831811ba4a4b931ce6e9898045ce4abb6d7d7",
      "networkId": 0,
      "chainId": 0
    },
    {
      "hash": "0x07e5bddb3a4e00aaea58b48fd238678fbec5e0741104b19e55b03e55846de8c6",
      "blockHash": "0x48f4f3ad42c054c35325d6ccba0217626c01e7e491671adcc957dc1e7034fd23",
      "blockNumber": 74263,
      "transactionIndex": 16,
      "confirmations": null,
      "from": "0xe6A7a1d47ff21B6321162AEA7C6CB457D5476Bca",
      "gasPrice": {
        "_hex": "0xd7e0e1d15"
      },
      "gasLimit": {
        "_hex": "0x55f0"
      },
      "to": "0xC15233674F0Cb7729e4Ab8aB733430C40580914d",
      "value": {
        "_hex": "0x9f8d693f493c7f70"
      },
      "nonce": 886,
      "data": "0x",
      "r": "0x36642591a3c984d82c3cfed6c23f13d302ba7145b5ca5aadc0e653a45e61a57b",
      "s": "0x5ddb3b87640f99619edfdcf5bf7efc7dddb2f88c7923ae4edf51f7d94b99d9ba",
      "v": 28,
      "creates": null,
      "raw": "0xf86e820376850d7e0e1d158255f094c15233674f0cb7729e4ab8ab733430c40580914d889f8d693f493c7f70801ca036642591a3c984d82c3cfed6c23f13d302ba7145b5ca5aadc0e653a45e61a57ba05ddb3b87640f99619edfdcf5bf7efc7dddb2f88c7923ae4edf51f7d94b99d9ba",
      "networkId": 0,
      "chainId": 0
    },
    {
      "hash": "0x96c2607c6e0ad88a2f43096f3a86bdc6824484ab8a239cc87baf709a1ec17164",
      "blockHash": "0x48f4f3ad42c054c35325d6ccba0217626c01e7e491671adcc957dc1e7034fd23",
      "blockNumber": 74263,
      "transactionIndex": 17,
      "confirmations": null,
      "from": "0xe6A7a1d47ff21B6321162AEA7C6CB457D5476Bca",
      "gasPrice": {
        "_hex": "0xd7e0e1d15"
      },
      "gasLimit": {
        "_hex": "0x55f0"
      },
      "to": "0xa70a9a7040d542C632D8e0bE7c5513A8a5Bbc752",
      "value": {
        "_hex": "0xa3c048659c5df6c0"
      },
      "nonce": 887,
      "data": "0x",
      "r": "0xf69a3afa0fded1ccf9f1a2ad7881940f63c3cfde3932cced4c65cf1d5046cd1b",
      "s": "0x23bed17d16637541e34a3a81cbb3a197ad86874d20ef8f27f813293182ca6387",
      "v": 28,
      "creates": null,
      "raw": "0xf86e820377850d7e0e1d158255f094a70a9a7040d542c632d8e0be7c5513a8a5bbc75288a3c048659c5df6c0801ca0f69a3afa0fded1ccf9f1a2ad7881940f63c3cfde3932cced4c65cf1d5046cd1ba023bed17d16637541e34a3a81cbb3a197ad86874d20ef8f27f813293182ca6387",
      "networkId": 0,
      "chainId": 0
    },
    {
      "hash": "0xd9b75c71ece2e5a6500909f07b705f8758dd5081582023fe66f3b4cc7d1aeec0",
      "blockHash": "0x48f4f3ad42c054c35325d6ccba0217626c01e7e491671adcc957dc1e7034fd23",
      "blockNumber": 74263,
      "transactionIndex": 18,
      "confirmations": null,
      "from": "0xe6A7a1d47ff21B6321162AEA7C6CB457D5476Bca",
      "gasPrice": {
        "_hex": "0xd7e0e1d15"
      },
      "gasLimit": {
        "_hex": "0x55f0"
      },
      "to": "0x59389A554d044d4b3BED659834A248C59957f168",
      "value": {
        "_hex": "0xa4264fba1230c1b8"
      },
      "nonce": 888,
      "data": "0x",
      "r": "0x35a5a8930f9553c933f1b03ec2b75ae36a8f931687eb2712022c78fd4ce3fc5d",
      "s": "0x7da587b8c8aa3978b80530e90c851f8a12c40234ef81e7da2d8527653af9223c",
      "v": 27,
      "creates": null,
      "raw": "0xf86e820378850d7e0e1d158255f09459389a554d044d4b3bed659834a248c59957f16888a4264fba1230c1b8801ba035a5a8930f9553c933f1b03ec2b75ae36a8f931687eb2712022c78fd4ce3fc5da07da587b8c8aa3978b80530e90c851f8a12c40234ef81e7da2d8527653af9223c",
      "networkId": 0,
      "chainId": 0
    },
    {
      "hash": "0x46525f2e48763dd1037884cc67d28f66f076e5e5c4665c4905056a73e27d5871",
      "blockHash": "0x48f4f3ad42c054c35325d6ccba0217626c01e7e491671adcc957dc1e7034fd23",
      "blockNumber": 74263,
      "transactionIndex": 19,
      "confirmations": null,
      "from": "0xe6A7a1d47ff21B6321162AEA7C6CB457D5476Bca",
      "gasPrice": {
        "_hex": "0xd7e0e1d15"
      },
      "gasLimit": {
        "_hex": "0x55f0"
      },
      "to": "0xeCdf9d571849dE520c84eBEd7Ac4551e483eA5b3",
      "value": {
        "_hex": "0xa4ba0d09d7045680"
      },
      "nonce": 889,
      "data": "0x",
      "r": "0x874413061380b483fed5c0f1f9a115bcf2e89271da763d3ef4e19dd19ba757e1",
      "s": "0x29e459be84227837e3f11342a3f19bc7efdb1fc3f84eafd532eaa32529ef2841",
      "v": 28,
      "creates": null,
      "raw": "0xf86e820379850d7e0e1d158255f094ecdf9d571849de520c84ebed7ac4551e483ea5b388a4ba0d09d7045680801ca0874413061380b483fed5c0f1f9a115bcf2e89271da763d3ef4e19dd19ba757e1a029e459be84227837e3f11342a3f19bc7efdb1fc3f84eafd532eaa32529ef2841",
      "networkId": 0,
      "chainId": 0
    },
    {
      "hash": "0x58b0c2e8ae6617918ca7c25f66dd4abb20fdfec23c83f5993ca44e8c7816934d",
      "blockHash": "0x48f4f3ad42c054c35325d6ccba0217626c01e7e491671adcc957dc1e7034fd23",
      "blockNumber": 74263,
      "transactionIndex": 20,
      "confirmations": null,
      "from": "0xe6A7a1d47ff21B6321162AEA7C6CB457D5476Bca",
      "gasPrice": {
        "_hex": "0xd7e0e1d15"
      },
      "gasLimit": {
        "_hex": "0x55f0"
      },
      "to": "0x49DC75D11428d1D718FC7b71941B71ae6F8bfA3C",
      "value": {
        "_hex": "0xa78564ddc086eae0"
      },
      "nonce": 890,
      "data": "0x",
      "r": "0x8ab87481d2a8ff9ad4611fadb1892997fd2645089857afc13674d0e31cf02ce4",
      "s": "0x674bd0858ff209e59ac6f3e96a187179c0a05ee9fb59453adf2ef074ffb64d47",
      "v": 27,
      "creates": null,
      "raw": "0xf86e82037a850d7e0e1d158255f09449dc75d11428d1d718fc7b71941b71ae6f8bfa3c88a78564ddc086eae0801ba08ab87481d2a8ff9ad4611fadb1892997fd2645089857afc13674d0e31cf02ce4a0674bd0858ff209e59ac6f3e96a187179c0a05ee9fb59453adf2ef074ffb64d47",
      "networkId": 0,
      "chainId": 0
    },
    {
      "hash": "0x6c1933e7fb8b1ff56697837bdd0b3d21c27c8ac773b68c6831560bb334957331",
      "blockHash": "0x48f4f3ad42c054c35325d6ccba0217626c01e7e491671adcc957dc1e7034fd23",
      "blockNumber": 74263,
      "transactionIndex": 21,
      "confirmations": null,
      "from": "0xe6A7a1d47ff21B6321162AEA7C6CB457D5476Bca",
      "gasPrice": {
        "_hex": "0xd7e0e1d15"
      },
      "gasLimit": {
        "_hex": "0x55f0"
      },
      "to": "0x03bbfbb9d362b4B1C6a113BE654A0190Fc6aEa80",
      "value": {
        "_hex": "0xab06a4e03ee727f8"
      },
      "nonce": 891,
      "data": "0x",
      "r": "0xbbfc5834709248caeaa42ce3d51860bc6df72250f11aaa3ba7b44544f9eaf47a",
      "s": "0x6387e6a585d17d84cca32faca0a62c2395fa8b882d8ba6309d5bf380962fb304",
      "v": 28,
      "creates": null,
      "raw": "0xf86e82037b850d7e0e1d158255f09403bbfbb9d362b4b1c6a113be654a0190fc6aea8088ab06a4e03ee727f8801ca0bbfc5834709248caeaa42ce3d51860bc6df72250f11aaa3ba7b44544f9eaf47aa06387e6a585d17d84cca32faca0a62c2395fa8b882d8ba6309d5bf380962fb304",
      "networkId": 0,
      "chainId": 0
    },
    {
      "hash": "0x93f2a317c50b5af747d00f62e92b1cf7af84a3df397fc6e2191849bfb318497a",
      "blockHash": "0x48f4f3ad42c054c35325d6ccba0217626c01e7e491671adcc957dc1e7034fd23",
      "blockNumber": 74263,
      "transactionIndex": 22,
      "confirmations": null,
      "from": "0xe6A7a1d47ff21B6321162AEA7C6CB457D5476Bca",
      "gasPrice": {
        "_hex": "0xd7e0e1d15"
      },
      "gasLimit": {
        "_hex": "0x55f0"
      },
      "to": "0xa28F8098A723e4ca02E9f4512410C519a252c1a9",
      "value": {
        "_hex": "0xb040abbfc43b0058"
      },
      "nonce": 892,
      "data": "0x",
      "r": "0x256ebb0c977ba9fca8e4117f394d92ce9b451be1059a88c66c0c0be8b34ba203",
      "s": "0x5d75634b261a713e18e25f2f0fca4f368cfb0beb857a6d886d3f2de1182a25b0",
      "v": 27,
      "creates": null,
      "raw": "0xf86e82037c850d7e0e1d158255f094a28f8098a723e4ca02e9f4512410c519a252c1a988b040abbfc43b0058801ba0256ebb0c977ba9fca8e4117f394d92ce9b451be1059a88c66c0c0be8b34ba203a05d75634b261a713e18e25f2f0fca4f368cfb0beb857a6d886d3f2de1182a25b0",
      "networkId": 0,
      "chainId": 0
    },
    {
      "hash": "0x7fb04b0a73454c90b0a2bd81656b76ed87cbeb7558e9a526d648573351f92df4",
      "blockHash": "0x48f4f3ad42c054c35325d6ccba0217626c01e7e491671adcc957dc1e7034fd23",
      "blockNumber": 74263,
      "transactionIndex": 23,
      "confirmations": null,
      "from": "0xe6A7a1d47ff21B6321162AEA7C6CB457D5476Bca",
      "gasPrice": {
        "_hex": "0xd7e0e1d15"
      },
      "gasLimit": {
        "_hex": "0x55f0"
      },
      "to": "0xb4eb03c9bDD4944DE22085E8e1dB5Ebd36889Bd8",
      "value": {
        "_hex": "0xb22696f4eecac3f0"
      },
      "nonce": 893,
      "data": "0x",
      "r": "0xdc7f284253d2ac0f981671bc73d6efaa6c6b601438e42ee995059c31735cf2d2",
      "s": "0x376c7eb39814368be471aa066178ba362c5d0cd0b493028d3e1071010abc044f",
      "v": 28,
      "creates": null,
      "raw": "0xf86e82037d850d7e0e1d158255f094b4eb03c9bdd4944de22085e8e1db5ebd36889bd888b22696f4eecac3f0801ca0dc7f284253d2ac0f981671bc73d6efaa6c6b601438e42ee995059c31735cf2d2a0376c7eb39814368be471aa066178ba362c5d0cd0b493028d3e1071010abc044f",
      "networkId": 0,
      "chainId": 0
    },
    {
      "hash": "0xdfd667376bef846db5f29a55fbacaa328a4df39bcc055bac01cf89fa04a23e66",
      "blockHash": "0x48f4f3ad42c054c35325d6ccba0217626c01e7e491671adcc957dc1e7034fd23",
      "blockNumber": 74263,
      "transactionIndex": 24,
      "confirmations": null,
      "from": "0x6934e4839d59dEa0583b03643eCb8c10d6B150fc",
      "gasPrice": {
        "_hex": "0xd2f6e3084"
      },
      "gasLimit": {
        "_hex": "0x5208"
      },
      "to": "0x32Be343B94f860124dC4fEe278FDCBD38C102D88",
      "value": {
        "_hex": "0x4b9a9db501a0e800"
      },
      "nonce": 0,
      "data": "0x",
      "r": "0xf6b61ee25c6163b1b30b7c57f57e53d42a55d560956256e37c9a4ea40cb6c102",
      "s": "0x5ee01d8cb251d316bfae2b580863af120cf858b3d3dc571470dbcccd3dcf9de6",
      "v": 28,
      "creates": null,
      "raw": "0xf86c80850d2f6e30848252089432be343b94f860124dc4fee278fdcbd38c102d88884b9a9db501a0e800801ca0f6b61ee25c6163b1b30b7c57f57e53d42a55d560956256e37c9a4ea40cb6c102a05ee01d8cb251d316bfae2b580863af120cf858b3d3dc571470dbcccd3dcf9de6",
      "networkId": 0,
      "chainId": 0
    },
    {
      "hash": "0xb32705b2320fd26b0cdcf32f0edf5a15334e4ca074985d5eb763063279db6316",
      "blockHash": "0x48f4f3ad42c054c35325d6ccba0217626c01e7e491671adcc957dc1e7034fd23",
      "blockNumber": 74263,
      "transactionIndex": 25,
      "confirmations": null,
      "from": "0xD9a9A8ec148D2B0F7Cd8B2700013A9AA5cf89910",
      "gasPrice": {
        "_hex": "0xd2f6e3084"
      },
      "gasLimit": {
        "_hex": "0x5208"
      },
      "to": "0x32Be343B94f860124dC4fEe278FDCBD38C102D88",
      "value": {
        "_hex": "0x590c6545e7125000"
      },
      "nonce": 1,
      "data": "0x",
      "r": "0xbfbf3024a70bd10d394405c56149b9c140c0f824ff33283fbd12e3e6f617da63",
      "s": "0x005334b99690ac1e65f186e30d2128cd3131743f05a1aef3e69ba956fc14b4e9",
      "v": 28,
      "creates": null,
      "raw": "0xf86b01850d2f6e30848252089432be343b94f860124dc4fee278fdcbd38c102d8888590c6545e7125000801ca0bfbf3024a70bd10d394405c56149b9c140c0f824ff33283fbd12e3e6f617da639f5334b99690ac1e65f186e30d2128cd3131743f05a1aef3e69ba956fc14b4e9",
      "networkId": 0,
      "chainId": 0
    },
    {
      "hash": "0xd65cc93f817c155d7ef71f1e7fc15fc8376975870f060f8eb11406c0133bac66",
      "blockHash": "0x48f4f3ad42c054c35325d6ccba0217626c01e7e491671adcc957dc1e7034fd23",
      "blockNumber": 74263,
      "transactionIndex": 26,
      "confirmations": null,
      "from": "0xd223eD5b348a82910987CbBc7875a7AE62E1Ba53",
      "gasPrice": {
        "_hex": "0xd2f6e3084"
      },
      "gasLimit": {
        "_hex": "0x5208"
      },
      "to": "0x32Be343B94f860124dC4fEe278FDCBD38C102D88",
      "value": {
        "_hex": "0x1963e2d31d4b3c00"
      },
      "nonce": 2,
      "data": "0x",
      "r": "0x9ef9dabab855895dc9ed126158b8a591a7dce490d7e4423c5f869743b677dc2e",
      "s": "0x2dc820edcc43a361e4bad23023a2de61013332e8ac68e50bb661bc5f812806e1",
      "v": 28,
      "creates": null,
      "raw": "0xf86c02850d2f6e30848252089432be343b94f860124dc4fee278fdcbd38c102d88881963e2d31d4b3c00801ca09ef9dabab855895dc9ed126158b8a591a7dce490d7e4423c5f869743b677dc2ea02dc820edcc43a361e4bad23023a2de61013332e8ac68e50bb661bc5f812806e1",
      "networkId": 0,
      "chainId": 0
    },
    {
      "hash": "0xd9e1e31a0a1c9d76ff870cfa29387e6439d007a3824329860627131007e514c3",
      "blockHash": "0x48f4f3ad42c054c35325d6ccba0217626c01e7e491671adcc957dc1e7034fd23",
      "blockNumber": 74263,
      "transactionIndex": 27,
      "confirmations": null,
      "from": "0x3234d29E2390E0Ac637B3ad0ACA3dF88aC82dC5d",
      "gasPrice": {
        "_hex": "0xd2f6e3084"
      },
      "gasLimit": {
        "_hex": "0x5208"
      },
      "to": "0x32Be343B94f860124dC4fEe278FDCBD38C102D88",
      "value": {
        "_hex": "0x16f3a1106750c800"
      },
      "nonce": 4,
      "data": "0x",
      "r": "0x0bf9a898de0395322f748a364a07ff1ca310361c6615401ff2c4ff874965f55e",
      "s": "0x582d936d89a4e75497c7453170630bddbc6350402476b54011522992903c5243",
      "v": 27,
      "creates": null,
      "raw": "0xf86c04850d2f6e30848252089432be343b94f860124dc4fee278fdcbd38c102d888816f3a1106750c800801ba00bf9a898de0395322f748a364a07ff1ca310361c6615401ff2c4ff874965f55ea0582d936d89a4e75497c7453170630bddbc6350402476b54011522992903c5243",
      "networkId": 0,
      "chainId": 0
    },
    {
      "hash": "0x80b8ecb00ab3a89a20ddf239695894cfbed8049b51eb6578b85dbaf3c51f9d59",
      "blockHash": "0x48f4f3ad42c054c35325d6ccba0217626c01e7e491671adcc957dc1e7034fd23",
      "blockNumber": 74263,
      "transactionIndex": 28,
      "confirmations": null,
      "from": "0xabceA603089850F8f6bB612A9031554D90A247CF",
      "gasPrice": {
        "_hex": "0xd2f6e3084"
      },
      "gasLimit": {
        "_hex": "0x5208"
      },
      "to": "0x32Be343B94f860124dC4fEe278FDCBD38C102D88",
      "value": {
        "_hex": "0x129818600f93e400"
      },
      "nonce": 10,
      "data": "0x",
      "r": "0xeba96669cc3b2879cf530561f38f96b3e82c28c2f0cade90056dc3cd7af48eb4",
      "s": "0x46c4d7be35fdd2e81725048c56f64ec5de322c47cebdf221a40966354a72f7d9",
      "v": 28,
      "creates": null,
      "raw": "0xf86c0a850d2f6e30848252089432be343b94f860124dc4fee278fdcbd38c102d8888129818600f93e400801ca0eba96669cc3b2879cf530561f38f96b3e82c28c2f0cade90056dc3cd7af48eb4a046c4d7be35fdd2e81725048c56f64ec5de322c47cebdf221a40966354a72f7d9",
      "networkId": 0,
      "chainId": 0
    },
    {
      "hash": "0x5c619c588ad93b5df402c8f13fe558afaf53952fbbb1f121a0f04a1804989547",
      "blockHash": "0x48f4f3ad42c054c35325d6ccba0217626c01e7e491671adcc957dc1e7034fd23",
      "blockNumber": 74263,
      "transactionIndex": 29,
      "confirmations": null,
      "from": "0xD042e5C2443591c48f1FBa5F6bAf8E7193f454B9",
      "gasPrice": {
        "_hex": "0xd2f6e3084"
      },
      "gasLimit": {
        "_hex": "0x5208"
      },
      "to": "0x32Be343B94f860124dC4fEe278FDCBD38C102D88",
      "value": {
        "_hex": "0x508d598b662d2c00"
      },
      "nonce": 2,
      "data": "0x",
      "r": "0x39bc5f58b9b6e07d8cef7ad88be29f368676d4013d82f6a1697e2e04d2dc462e",
      "s": "0x06437cd37c7991d4641862216a132eec1bd6936ef0f6f0ec008277b0666f8d77",
      "v": 28,
      "creates": null,
      "raw": "0xf86c02850d2f6e30848252089432be343b94f860124dc4fee278fdcbd38c102d8888508d598b662d2c00801ca039bc5f58b9b6e07d8cef7ad88be29f368676d4013d82f6a1697e2e04d2dc462ea006437cd37c7991d4641862216a132eec1bd6936ef0f6f0ec008277b0666f8d77",
      "networkId": 0,
      "chainId": 0
    },
    {
      "hash": "0x9f33025041ea0e8a9be5f0ad23d829a0ebfa202e9e30e10dfb2999c9af28fc6a",
      "blockHash": "0x48f4f3ad42c054c35325d6ccba0217626c01e7e491671adcc957dc1e7034fd23",
      "blockNumber": 74263,
      "transactionIndex": 30,
      "confirmations": null,
      "from": "0x06BcFDb20583cc822f2031724E36F3678BBCa6E9",
      "gasPrice": {
        "_hex": "0xd2f6e3084"
      },
      "gasLimit": {
        "_hex": "0x5208"
      },
      "to": "0x32Be343B94f860124dC4fEe278FDCBD38C102D88",
      "value": {
        "_hex": "0x5768c2b4a5406000"
      },
      "nonce": 0,
      "data": "0x",
      "r": "0x2ab3981cb1b8e2812622f2808cc987750069509892e85d448ec5ae81f9181553",
      "s": "0x0cffb98e0a2e1b85fa8f50db467a847b73f99a0598a67e7049d5619d250e4b8b",
      "v": 28,
      "creates": null,
      "raw": "0xf86c80850d2f6e30848252089432be343b94f860124dc4fee278fdcbd38c102d88885768c2b4a5406000801ca02ab3981cb1b8e2812622f2808cc987750069509892e85d448ec5ae81f9181553a00cffb98e0a2e1b85fa8f50db467a847b73f99a0598a67e7049d5619d250e4b8b",
      "networkId": 0,
      "chainId": 0
    },
    {
      "hash": "0x0d07e6b25566e7ccdb1294bdfa44ec12c69aea8d08665582cbde370c6b812204",
      "blockHash": "0x48f4f3ad42c054c35325d6ccba0217626c01e7e491671adcc957dc1e7034fd23",
      "blockNumber": 74263,
      "transactionIndex": 31,
      "confirmations": null,
      "from": "0xFD7c9117BbEB649d9b37B3D3C9917f7c12f526B3",
      "gasPrice": {
        "_hex": "0xd2f6e3084"
      },
      "gasLimit": {
        "_hex": "0x5208"
      },
      "to": "0x32Be343B94f860124dC4fEe278FDCBD38C102D88",
      "value": {
        "_hex": "0xad778ca509ae20000"
      },
      "nonce": 10,
      "data": "0x",
      "r": "0xea868e2f5d0dc0364ea8b445a1ba71838e6218793a887707e03de4a27cd3c0d5",
      "s": "0x3408989539352c5858667c9b62cc7c3ec3204c870a01361fe464a14b8ad41103",
      "v": 27,
      "creates": null,
      "raw": "0xf86d0a850d2f6e30848252089432be343b94f860124dc4fee278fdcbd38c102d88890ad778ca509ae20000801ba0ea868e2f5d0dc0364ea8b445a1ba71838e6218793a887707e03de4a27cd3c0d5a03408989539352c5858667c9b62cc7c3ec3204c870a01361fe464a14b8ad41103",
      "networkId": 0,
      "chainId": 0
    },
    {
      "hash": "0xd667a8ad5ebef2c47576bd5a9cda00a83e3f59a77a6f643028cc58ea2d20b8b2",
      "blockHash": "0x48f4f3ad42c054c35325d6ccba0217626c01e7e491671adcc957dc1e7034fd23",
      "blockNumber": 74263,
      "transactionIndex": 32,
      "confirmations": null,
      "from": "0xD9666150A9dA92d9108198a4072970805a8B3428",
      "gasPrice": {
        "_hex": "0xd2f6e3084"
      },
      "gasLimit": {
        "_hex": "0x5208"
      },
      "to": "0x32Be343B94f860124dC4fEe278FDCBD38C102D88",
      "value": {
        "_hex": "0x263278c2b9069800"
      },
      "nonce": 2,
      "data": "0x",
      "r": "0x2dbb3d438165fcd52c36ab63b61663eb0ed65e2aabc8834c4ebde733ae238d9a",
      "s": "0x14f04b8cd14a1c4376b9f59eaa88b279e79c542faa9853fbf3dda72f73448685",
      "v": 27,
      "creates": null,
      "raw": "0xf86c02850d2f6e30848252089432be343b94f860124dc4fee278fdcbd38c102d8888263278c2b9069800801ba02dbb3d438165fcd52c36ab63b61663eb0ed65e2aabc8834c4ebde733ae238d9aa014f04b8cd14a1c4376b9f59eaa88b279e79c542faa9853fbf3dda72f73448685",
      "networkId": 0,
      "chainId": 0
    },
    {
      "hash": "0x159f2e072cc717975187730a3637360a5a51f8b8544b5fb86e521938339cd23d",
      "blockHash": "0x48f4f3ad42c054c35325d6ccba0217626c01e7e491671adcc957dc1e7034fd23",
      "blockNumber": 74263,
      "transactionIndex": 33,
      "confirmations": null,
      "from": "0x6d37bd781411ccDd33792481E2C9CE5b62D3a5B8",
      "gasPrice": {
        "_hex": "0xd2f6e3084"
      },
      "gasLimit": {
        "_hex": "0x5208"
      },
      "to": "0x32Be343B94f860124dC4fEe278FDCBD38C102D88",
      "value": {
        "_hex": "0x4825ec92c5fa4800"
      },
      "nonce": 4,
      "data": "0x",
      "r": "0xcd094f6e9bdf2770e069c6ab194c084ee74c886b289499f3b52ae1edb8649dcc",
      "s": "0x2dceaec6b957a700fc858cb04210f63050a2296fd1ac4cf9507370f4bf511926",
      "v": 28,
      "creates": null,
      "raw": "0xf86c04850d2f6e30848252089432be343b94f860124dc4fee278fdcbd38c102d88884825ec92c5fa4800801ca0cd094f6e9bdf2770e069c6ab194c084ee74c886b289499f3b52ae1edb8649dcca02dceaec6b957a700fc858cb04210f63050a2296fd1ac4cf9507370f4bf511926",
      "networkId": 0,
      "chainId": 0
    }
  ]
}