{
  "hash": "0x177fb80e119359d5d9947d1b7589c7f412502f19eb43e9bb18c801f8edb498f7",
  "parentHash": "0x543f3e5895590d22de77ae3602e2a33dfe78232ef66ff484cbbff43671b31000",
  "number": 68594,
  "timestamp": 1439290449,
  "nonce": "0xedadeefa44cbd9cf",
  "difficulty": 2020200828043,
  "gasLimit": {
    "_hex": "0x2fefd8"
  },
  "gasUsed": {
    "_hex": "0x3e311"
  },
  "miner": "0xe6A7a1d47ff21B6321162AEA7C6CB457D5476Bca",
  "extraData": "0x476574682f76312e302e312d38326566323666362f6c696e75782f676f312e34",
  "transactions": [
    {
      "hash": "0xfde7ae8edacddfaba3fa33c0f1850c0dac551ff91644b90d12852c3fef9db66c",
      "blockHash": "0x177fb80e119359d5d9947d1b7589c7f412502f19eb43e9bb18c801f8edb498f7",
      "blockNumber": 68594,
      "transactionIndex": 0,
      "confirmations": null,
      "from": "0x17580B766f7453525ca4C6A88b01b50570EA088C",
      "gasPrice": {
        "_hex": "0xdfd8e8cc0"
      },
      "gasLimit": {
        "_hex": "0x61a80"
      },
      "to": "0x5Fe5B7546D1628f7348B023A0393de1FC825A4fD",
      "value": {
        "_hex": "0x3782dace9d900000"
      },
      "nonce": 43,
      "data": "0xb595b8b50000000000000000000000000000000000000000000000000000000000000001",
      "r": "0xf1479f9524172a44372b5a57c5e0a64ee6a800e3445e5d93ffd26945ed0c8629",
      "s": "0x0278df66f7d859dc3f80a26976e6e5b8dbb9dbd2ecd27db1990290ea42cc22de",
      "v": 28,
      "creates": null,
      "raw": "0xf8912b850dfd8e8cc083061a80945fe5b7546d1628f7348b023a0393de1fc825a4fd883782dace9d900000a4b595b8b500000000000000000000000000000000000000000000000000000000000000011ca0f1479f9524172a44372b5a57c5e0a64ee6a800e3445e5d93ffd26945ed0c8629a00278df66f7d859dc3f80a26976e6e5b8dbb9dbd2ecd27db1990290ea42cc22de",
      "networkId": 0,
      "chainId": 0
    },
    {
      "hash": "0x9f03d1db83a3e05e3247bec3f830214fe7bf8193b424fb247803366aa10398de",
      "blockHash": "0x177fb80e119359d5d9947d1b7589c7f412502f19eb43e9bb18c801f8edb498f7",
      "blockNumber": 68594,
      "transactionIndex": 1,
      "confirmations": null,
      "from": "0xA8451fdb797FF400A5B76e3e00BD76C1DfF6f8c6",
      "gasPrice": {
        "_hex": "0xba43b7400"
      },
      "gasLimit": {
        "_hex": "0x5208"
      },
      "to": "0xd7e04F09FF673b095bbe2fE6c1FD4f4C0DA1c2f1",
      "value": {
        "_hex": "0xf0088de8d15000"
      },
      "nonce": 1,
      "data": "0x",
      "r": "0x7a2cf49d544e355a310bdc5d6e2cffdd90c6b756c535c263cbc056507bd61c49",
      "s": "0x5b9cc970c5e88116daa7a7dcfc885aeee4b8f3fff96cc3d062acd78d1443e4a9",
      "v": 28,
      "creates": null,
      "raw": "0xf86b01850ba43b740082520894d7e04f09ff673b095bbe2fe6c1fd4f4c0da1c2f187f0088de8d15000801ca07a2cf49d544e355a310bdc5d6e2cffdd90c6b756c535c263cbc056507bd61c49a05b9cc970c5e88116daa7a7dcfc885aeee4b8f3fff96cc3d062acd78d1443e4a9",
      "networkId": 0,
      "chainId": 0
    },
    {
      "hash": "0x2950ca9757ae6d9f0a0689a963dcefed44fc7a20a29c125abf5f80ddfb6c7561",
      "blockHash": "0x177fb80e119359d5d9947d1b7589c7f412502f19eb43e9bb18c801f8edb498f7",
      "blockNumber": 68594,
      "transactionIndex": 2,
      "confirmations": null,
      "from": "0x64142fE5551a592e1eb12CeADB2E343C6581fD44",
      "gasPrice": {
        "_hex": "0xba43b7400"
      },
      "gasLimit": {
        "_hex": "0x5208"
      },
      "to": "0x8d35fF99b21421fFA241CdedB71709Bbef612345",
      "value": {
        "_hex": "0xf0088de8d15000"
      },
      "nonce": 1,
      "data": "0x",
      "r": "0xae6d4d57b21c3cbe8a5cd80c74399e82d4884806e93068259454eab31037ef80",
      "s": "0x468636fd895df4cd5f197b16f099e23e05191b1742ab0aecf435d4e966e84dfa",
      "v": 27,
      "creates": null,
      "raw": "0xf86b01850ba43b7400825208948d35ff99b21421ffa241cdedb71709bbef61234587f0088de8d15000801ba0ae6d4d57b21c3cbe8a5cd80c74399e82d4884806e93068259454eab31037ef80a0468636fd895df4cd5f197b16f099e23e05191b1742ab0aecf435d4e966e84dfa",
      "networkId": 0,
      "chainId": 0
    },
    {
      "hash": "0x22194d95abaf512e66bbd813975e28623c8bed951e569dddc7b08b7de34aec9a",
      "blockHash": "0x177fb80e119359d5d9947d1b7589c7f412502f19eb43e9bb18c801f8edb498f7",
      "blockNumber": 68594,
      "transactionIndex": 3,
      "confirmations": null,
      "from": "0xd4b30dDfF685871348e62D309c9f166dd9A06460",
      "gasPrice": {
        "_hex": "0xba43b7400"
      },
      "gasLimit": {
        "_hex": "0x5208"
      },
      "to": "0x55718B71F2f9Ab4BA63769c4C7a421d53E3B9954",
      "value": {
        "_hex": "0xf0088de8d15000"
      },
      "nonce": 1,
      "data": "0x",
      "r": "0x4af8128b3fcff1fdafb126ee2996f68387f708723119427b2be84b8ae4ba9f3e",
      "s": "0x495bf88c7482274a9e105a682866af75da1d6e44014b3a04424b8cc7c2b8f392",
      "v": 28,
      "creates": null,
      "raw": "0xf86b01850ba43b74008252089455718b71f2f9ab4ba63769c4c7a421d53e3b995487f0088de8d15000801ca04af8128b3fcff1fdafb126ee2996f68387f708723119427b2be84b8ae4ba9f3ea0495bf88c7482274a9e105a682866af75da1d6e44014b3a04424b8cc7c2b8f392",
      "networkId": 0,
      "chainId": 0
    },
    {
      "hash": "0x1daaa332a0c99833ecd5c8850e2ddd2db6bcdd61688d352ff15b0e028f635ab3",
      "blockHash": "0x177fb80e119359d5d9947d1b7589c7f412502f19eb43e9bb18c801f8edb498f7",
      "blockNumber": 68594,
      "transactionIndex": 4,
      "confirmations": null,
      "from": "0xc3dA7435bcF7b23202F9Fc8D130403fd4e8021E5",
      "gasPrice": {
        "_hex": "0xba43b7400"
      },
      "gasLimit": {
        "_hex": "0x5208"
      },
      "to": "0xa4f4Af0C28bD3569C715464C77E02125980c8686",
      "value": {
        "_hex": "0xf0088de8d15000"
      },
      "nonce": 1,
      "data": "0x",
      "r": "0x37264f93acf7ca6ea70395e15148bffa71787080bf82f5550c4c19d8e8064ff4",
      "s": "0x0e87e1e08d916c9255b35e633363a34632a8fe24acdadf8e95011c95a427fa6a",
      "v": 27,
      "creates": null,
      "raw": "0xf86b01850ba43b740082520894a4f4af0c28bd3569c715464c77e02125980c868687f0088de8d15000801ba037264f93acf7ca6ea70395e15148bffa71787080bf82f5550c4c19d8e8064ff4a00e87e1e08d916c9255b35e633363a34632a8fe24acdadf8e95011c95a427fa6a",
      "networkId": 0,
      "chainId": 0
    },
    {
      "hash": "0xc8bd1920a2d720b785c167fb469352ab0d0ee7f4018235fe96b7f903d058d608",
      "blockHash": "0x177fb80e119359d5d9947d1b7589c7f412502f19eb43e9bb18c801f8edb498f7",
      "blockNumber": 68594,
      "transactionIndex": 5,
      "confirmations": null,
      "from": "0x202A92eC4Abb585097C28E910263F74f103fFA33",
      "gasPrice": {
        "_hex": "0xba43b7400"
      },
      "gasLimit": {
        "_hex": "0x5208"
      },
      "to": "0x01b8e8b133B7aa40dc62BAf200E5C31e9f00e567",
      "value": {
        "_hex": "0xf0088de8d15000"
      },
      "nonce": 1,
      "data": "0x",
      "r": "0xfecf84092c30d35b1351ceab6023ad015387b77549ec5c22400760e20329543d",
      "s": "0x299d4cf514823e88db081e1d791961499efe9bd5d992f5662d988b2a61a0dbc3",
      "v": 28,
      "creates": null,
      "raw": "0xf86b01850ba43b74008252089401b8e8b133b7aa40dc62baf200e5c31e9f00e56787f0088de8d15000801ca0fecf84092c30d35b1351ceab6023ad015387b77549ec5c22400760e20329543da0299d4cf514823e88db081e1d791961499efe9bd5d992f5662d988b2a61a0dbc3",
      "networkId": 0,
      "chainId": 0
    },
    {
      "hash": "0xc7f90f5e437467c626a96a29d76241ec96372788db34837696e04df18d17b94b",
      "blockHash": "0x177fb80e119359d5d9947d1b7589c7f412502f19eb43e9bb18c801f8edb498f7",
      "blockNumber": 68594,
      "transactionIndex": 6,
      "confirmations": null,
      "from": "0xe5Dc73f0CB3E662193A111eA4263BC1ef1d66dAd",
      "gasPrice": {
        "_hex": "0xba43b7400"
      },
      "gasLimit": {
        "_hex": "0x5208"
      },
      "to": "0x181848765cBfbBdCaba5e482f0a4c330a1F1E20E",
      "value": {
        "_hex": "0xf0088de8d15000"
      },
      "nonce": 1,
      "data": "0x",
      "r": "0xba0da135aa0e993a1f6c5acaeed1116f155b543e3cb31250bef7daac20a0dd3e",
      "s": "0x76c215e141807dd47c31c7ed22278af3b09414ffe502d0bcf0ae2d5e98afda7a",
      "v": 27,
      "creates": null,
      "raw": "0xf86b01850ba43b740082520894181848765cbfbbdcaba5e482f0a4c330a1f1e20e87f0088de8d15000801ba0ba0da135aa0e993a1f6c5acaeed1116f155b543e3cb31250bef7daac20a0dd3ea076c215e141807dd47c31c7ed22278af3b09414ffe502d0bcf0ae2d5e98afda7a",
      "networkId": 0,
      "chainId": 0
    },
    {
      "hash": "0xd413f41c8955259ca5841f6ebc28f643c843f33e653d85dea095b09075a653a8",
      "blockHash": "0x177fb80e119359d5d9947d1b7589c7f412502f19eb43e9bb18c801f8edb498f7",
      "blockNumber": 68594,
      "transactionIndex": 7,
      "confirmations": null,
      "from": "0xE38FB8e21E92d717a4123665ADa693c7402CA3b1",
      "gasPrice": {
        "_hex": "0xba43b7400"
      },
      "gasLimit": {
        "_hex": "0x5208"
      },
      "to": "0x8FdC17D6028AabaAaCd3B21Be588ccD2531Da38a",
      "value": {
        "_hex": "0xf0088de8d15000"
      },
      "nonce": 1,
      "data": "0x",
      "r": "0x485b2b0d207a28fea0cf2b86d987f572454252c44cb057e3cdbb00d9464b5784",
      "s": "0x7ffd8a5991c0faccecb19ae5f419f05349afe06c0c33a9df0e3413406e065e40",
      "v": 27,
      "creates": null,
      "raw": "0xf86b01850ba43b7400825208948fdc17d6028aabaaacd3b21be588ccd2531da38a87f0088de8d15000801ba0485b2b0d207a28fea0cf2b86d987f572454252c44cb057e3cdbb00d9464b5784a07ffd8a5991c0faccecb19ae5f419f05349afe06c0c33a9df0e3413406e065e40",
      "networkId": 0,
      "chainId": 0
    },
    {
      "hash": "0xcdbd0061cfc9066101a42acff32c1e40a233466f69273f406351e95203066d99",
      "blockHash": "0x177fb80e119359d5d9947d1b7589c7f412502f19eb43e9bb18c801f8edb498f7",
      "blockNumber": 68594,
      "transactionIndex": 8,
      "confirmations": null,
      "from": "0x8b5111c38d50DEdf85B620F62D51e662F160fe13",
      "gasPrice": {
        "_hex": "0xba43b7400"
      },
      "gasLimit": {
        "_hex": "0x5208"
      },
      "to": "0xa4d1B67Fa483015D3B986e974cC94300988a4BF0",
      "value": {
        "_hex": "0xf0088de8d15000"
      },
      "nonce": 1,
      "data": "0x",
      "r": "0x4e2bc50c1cc84597f0538caefa73f8a6b3644ab6f6912064d3c6eb226ba4f0bd",
      "s": "0x7050e58ea78a34c84d3ff5677b8ccc9338e5c35aab8d9ff11a4a251ef15018b6",
      "v": 27,
      "creates": null,
      "raw": "0xf86b01850ba43b740082520894a4d1b67fa483015d3b986e974cc94300988a4bf087f0088de8d15000801ba04e2bc50c1cc84597f0538caefa73f8a6b3644ab6f6912064d3c6eb226ba4f0bda07050e58ea78a34c84d3ff5677b8ccc9338e5c35aab8d9ff11a4a251ef15018b6",
      "networkId": 0,
      "chainId": 0
    },
    {
      "hash": "0x04cea68d7e23056f6738d3c4b604f1b25dc598a58f08cc81d4edc39ebf57ae9e",
      "blockHash": "0x177fb80e119359d5d9947d1b7589c7f412502f19eb43e9bb18c801f8edb498f7",
      "blockNumber": 68594,
      "transactionIndex": 9,
      "confirmations": null,
      "from": "0x7BC8fEB71E9C95a520fE6376204e9249F7AA0C20",
      "gasPrice": {
        "_hex": "0xba43b7400"
      },
      "gasLimit": {
        "_hex": "0x5208"
      },
      "to": "0xAb46C5954afBE8cba15f5F51580c279a8499C7Ef",
      "value": {
        "_hex": "0xf0088de8d15000"
      },
      "nonce": 1,
      "data": "0x",
      "r": "0xbad4db0a5eb8218e919fa74c41126aba2d5dde391591d3698421311091a707d5",
      "s": "0x6edb0ba6a1f1d9c003dd51c354e064a8bfdcf61cfb9478aa3a2ed2910a3473c1",
      "v": 27,
      "creates": null,
      "raw": "0xf86b01850ba43b740082520894ab46c5954afbe8cba15f5f51580c279a8499c7ef87f0088de8d15000801ba0bad4db0a5eb8218e919fa74c41126aba2d5dde391591d3698421311091a707d5a06edb0ba6a1f1d9c003dd51c354e064a8bfdcf61cfb9478aa3a2ed2910a3473c1",
      "networkId": 0,
      "chainId": 0
    },
    {
      "hash": "0xcb73357a661e86976f0a6e827927cc03f3760996e829fbc558f34a25a43596f2",
      "blockHash": "0x177fb80e119359d5d9947d1b7589c7f412502f19eb43e9bb18c801f8edb498f7",
      "blockNumber": 68594,
      "transactionIndex": 10,
      "confirmations": null,
      "from": "0x638F8073E66414827Cf3F06Cd6aD92143c19214E",
      "gasPrice": {
        "_hex": "0xba43b7400"
      },
      "gasLimit": {
        "_hex": "0x5208"
      },
      "to": "0xBB349DE21dD84C19A48dDd8632039BeE366991f5",
      "value": {
        "_hex": "0xf0088de8d15000"
      },
      "nonce": 1,
      "data": "0x",
      "r": "0x6821b80f0e26b7c316cfee3b1526c245da7414c4cfa08cc0702bc09f47d9d7a4",
      "s": "0x55882f602889702ccf20f9d85f638f81629f06e92752c33b33603090996e6f6f",
      "v": 28,
      "creates": null,
      "raw": "0xf86b01850ba43b740082520894bb349de21dd84c19a48ddd8632039bee366991f587f0088de8d15000801ca06821b80f0e26b7c316cfee3b1526c245da7414c4cfa08cc0702bc09f47d9d7a4a055882f602889702ccf20f9d85f638f81629f06e92752c33b33603090996e6f6f",
      "networkId": 0,
      "chainId": 0
    }
  ]
}