{
  "hash": "0xe93651308441edd3b3254fdd80b574878c8d0898319aa586b34d0dfb4db6ecd7",
  "parentHash": "0x03c03cbd15c7de543ce1d5edbbe095a849023cb5b00c16b65143696a0ecf1ab1",
  "number": 83830,
  "timestamp": 1439541522,
  "nonce": "0x4a8d02940fd326b1",
  "difficulty": 2441925624546,
  "gasLimit": {
    "_hex": "0x2fefd8"
  },
  "gasUsed": {
    "_hex": "0xf618"
  },
  "miner": "0xe6A7a1d47ff21B6321162AEA7C6CB457D5476Bca",
  "extraData": "0x476574682f76312e302e312d38326566323666362f6c696e75782f676f312e34",
  "transactions": [
    {
      "hash": "0xf8159d1c82292c6b861907d5351c730c90bef5883822f2a13f6d52f84e953771",
      "blockHash": "0xe93651308441edd3b3254fdd80b574878c8d0898319aa586b34d0dfb4db6ecd7",
      "blockNumber": 83830,
      "transactionIndex": 0,
      "confirmations": null,
      "from": "0x8F79f76381Aad7B98C19aF55eE75fdfEeb012211",
      "gasPrice": {
        "_hex": "0xdbbfd7d42"
      },
      "gasLimit": {
        "_hex": "0x5208"
      },
      "to": "0x32Be343B94f860124dC4fEe278FDCBD38C102D88",
      "value": {
        "_hex": "0x2c3c00b012bba4000"
      },
      "nonce": 22,
      "data": "0x",
      "r": "0x1154f2372d77c9e63034f00392721adaeb611deeb2cd24a4c4c1fe01081102f3",
      "s": "0x503a42b77f08d558135d9a9906ed744e45ee2fc81d63cc42828cd34f57b5ac06",
      "v": 28,
      "creates": null,
      "raw": "0xf86d16850dbbfd7d428252089432be343b94f860124dc4fee278fdcbd38c102d888902c3c00b012bba4000801ca01154f2372d77c9e63034f00392721adaeb611deeb2cd24a4c4c1fe01081102f3a0503a42b77f08d558135d9a9906ed744e45ee2fc81d63cc42828cd34f57b5ac06",
      "networkId": 0,
      "chainId": 0
    },
    {
      "hash": "0xd8fc7422413aa9c53efacb7c33116d84f2acf991cf1c47ed28a24b9504d6bf2e",
      "blockHash": "0xe93651308441edd3b3254fdd80b574878c8d0898319aa586b34d0dfb4db6ecd7",
      "blockNumber": 83830,
      "transactionIndex": 1,
      "confirmations": null,
      "from": "0x0bCa038BF4ACAd3Cbf73463EccC7717dDCDc3D83",
      "gasPrice": {
        "_hex": "0xdbbfd7d42"
      },
      "gasLimit": {
        "_hex": "0x5208"
      },
      "to": "0x32Be343B94f860124dC4fEe278FDCBD38C102D88",
      "value": {
        "_hex": "0x579a3ae3bc0b10000"
      },
      "nonce": 0,
      "data": "0x",
      "r": "0x0b4ea57965c18da4cdfebc0ec8f71f0a3a79459882c029ba3c42398216f8277f",
      "s": "0x14be2f69d9b6df4e6213cb669a922108913fd974de300cfbc60a05099ce994d7",
      "v": 28,
      "creates": null,
      "raw": "0xf86d80850dbbfd7d428252089432be343b94f860124dc4fee278fdcbd38c102d88890579a3ae3bc0b10000801ca00b4ea57965c18da4cdfebc0ec8f71f0a3a79459882c029ba3c42398216f8277fa014be2f69d9b6df4e6213cb669a922108913fd974de300cfbc60a05099ce994d7",
      "networkId": 0,
      "chainId": 0
    },
    {
      "hash": "0xd71012eee76ceae33bafdc83ea8fd1a876a6268dd4e4a6d83e0f00429036d1e5",
      "blockHash": "0xe93651308441edd3b3254fdd80b574878c8d0898319aa586b34d0dfb4db6ecd7",
      "blockNumber": 83830,
      "transactionIndex": 2,
      "confirmations": null,
      "from": "0xF0A30051ac5311be4771720B49fb1d683d555520",
      "gasPrice": {
        "_hex": "0xdbbfd7d42"
      },
      "gasLimit": {
        "_hex": "0x5208"
      },
      "to": "0x32Be343B94f860124dC4fEe278FDCBD38C102D88",
      "value": {
        "_hex": "0xad78a55b57c5d0000"
      },
      "nonce": 0,
      "data": "0x",
      "r": "0x46afa3127f3f2c337301dd368af9412a960f5ad804d57e5f288839f46674ee1b",
      "s": "0x3ea3d385c2b7b2fc037eda18534be65f993f72faf51407070439673cdb00be44",
      "v": 27,
      "creates": null,
      "raw": "0xf86d80850dbbfd7d428252089432be343b94f860124dc4fee278fdcbd38c102d88890ad78a55b57c5d0000801ba046afa3127f3f2c337301dd368af9412a960f5ad804d57e5f288839f46674ee1ba03ea3d385c2b7b2fc037eda18534be65f993f72faf51407070439673cdb00be44",
      "networkId": 0,
      "chainId": 0
    }
  ]
}