{
  "hash": "0x027ab1a9a851a95abf12043074b06f6ed32d2f42f46aa8c7641a165386958913",
  "parentHash": "0x9386b7ebeeca3ced7b17d4d666e2a4e6ec0758116bc4fb714428137974647f75",
  "number": 111235,
  "timestamp": 1439986998,
  "nonce": "0xb85630b511990ed0",
  "difficulty": 4388008602541,
  "gasLimit": {
    "_hex": "0x2fefd8"
  },
  "gasUsed": {
    "_hex": "0x5208"
  },
  "miner": "0xf927a40C8B7F6E07c5af7FA2155B4864a4112B13",
  "extraData": "0x",
  "transactions": [
    {
      "hash": "0xeb824b15482130d5b5cd2be096c5c42f6096b4dc02c67435e390f4c156718433",
      "blockHash": "0x027ab1a9a851a95abf12043074b06f6ed32d2f42f46aa8c7641a165386958913",
      "blockNumber": 111235,
      "transactionIndex": 0,
      "confirmations": null,
      "from": "0xe3d915EdA3B825D6ee4AF9328D32Ac18ada35497",
      "gasPrice": {
        "_hex": "0xd6d9651bf"
      },
      "gasLimit": {
        "_hex": "0x15f90"
      },
      "to": "0x234AFe11eF4a2515b6Eb2B03B43d6Cd209c64E36",
      "value": {
        "_hex": "0xde0b6b3a7640000"
      },
      "nonce": 1,
      "data": "0x",
      "r": "0x760aee7158a12029e41674680a96419bda4eee453f27937355f627c9645bfa25",
      "s": "0x3c06913887462b9bb93acde2b4adbc4d983b0eda1d88d6cea2e7104aad75c68b",
      "v": 27,
      "creates": null,
      "raw": "0xf86d01850d6d9651bf83015f9094234afe11ef4a2515b6eb2b03b43d6cd209c64e36880de0b6b3a7640000801ba0760aee7158a12029e41674680a96419bda4eee453f27937355f627c9645bfa25a03c06913887462b9bb93acde2b4adbc4d983b0eda1d88d6cea2e7104aad75c68b",
      "networkId": 0,
      "chainId": 0
    }
  ]
}