{
  "hash": "0x7ad41beb106749755482a85ac41b2049be6de8afc5e1e84d79736aba121d2990",
  "parentHash": "0xc436db77d0eb96af1e2f32f791bd641c0826413153793823a76fd334eefbc4bd",
  "number": 89939,
  "timestamp": 1439631470,
  "nonce": "0x0ce47b7e562d0618",
  "difficulty": 3343439608473,
  "gasLimit": {
    "_hex": "0x2fefd8"
  },
  "gasUsed": {
    "_hex": "0xf618"
  },
  "miner": "0xe6A7a1d47ff21B6321162AEA7C6CB457D5476Bca",
  "extraData": "0x476574682f76312e302e312d38326566323666362f6c696e75782f676f312e34",
  "transactions": [
    {
      "hash": "0x9b077f4e149265fdce4c866da086d28b906880f88f607917ef6e4524b1372864",
      "blockHash": "0x7ad41beb106749755482a85ac41b2049be6de8afc5e1e84d79736aba121d2990",
      "blockNumber": 89939,
      "transactionIndex": 0,
      "confirmations": null,
      "from": "0x7313946aA53dCDd777C90905D75A9B41e17Ca2c9",
      "gasPrice": {
        "_hex": "0xd6221320c"
      },
      "gasLimit": {
        "_hex": "0x5208"
      },
      "to": "0x32Be343B94f860124dC4fEe278FDCBD38C102D88",
      "value": {
        "_hex": "0x43fc032b7db8d800"
      },
      "nonce": 2,
      "data": "0x",
      "r": "0xc0175c39c3069c137ef02218f48c5b772b4bd223f9db4ed813ee13cf3ad6d79b",
      "s": "0x5b30a869eb8c38fe8c78feb5d32331c59aaf55258ca90455e6f68ab88f95b994",
      "v": 28,
      "creates": null,
      "raw": "0xf86c02850d6221320c8252089432be343b94f860124dc4fee278fdcbd38c102d888843fc032b7db8d800801ca0c0175c39c3069c137ef02218f48c5b772b4bd223f9db4ed813ee13cf3ad6d79ba05b30a869eb8c38fe8c78feb5d32331c59aaf55258ca90455e6f68ab88f95b994",
      "networkId": 0,
      "chainId": 0
    },
    {
      "hash": "0x72ff8eba4e2e577b863588b5e4da47dadfd12bce36cd8e995418f59ded83a26a",
      "blockHash": "0x7ad41beb106749755482a85ac41b2049be6de8afc5e1e84d79736aba121d2990",
      "blockNumber": 89939,
      "transactionIndex": 1,
      "confirmations": null,
      "from": "0xA143616A882230de7571d01f1916F0A781d6480a",
      "gasPrice": {
        "_hex": "0xd6221320c"
      },
      "gasLimit": {
        "_hex": "0x5208"
      },
      "to": "0x32Be343B94f860124dC4fEe278FDCBD38C102D88",
      "value": {
        "_hex": "0x3ba17afea02b1a0000"
      },
      "nonce": 1,
      "data": "0x",
      "r": "0x365b95f5b099428978e592db335b79e6a29deb2ef19d6959fc783062bba0dbd9",
      "s": "0x2d616a86712fbe40a341b3e6e27f9313c16c8188c5942b4b9ea87435d6fdd785",
      "v": 27,
      "creates": null,
      "raw": "0xf86d01850d6221320c8252089432be343b94f860124dc4fee278fdcbd38c102d88893ba17afea02b1a0000801ba0365b95f5b099428978e592db335b79e6a29deb2ef19d6959fc783062bba0dbd9a02d616a86712fbe40a341b3e6e27f9313c16c8188c5942b4b9ea87435d6fdd785",
      "networkId": 0,
      "chainId": 0
    },
    {
      "hash": "0xb8401f8e60cd73e3201cd2aa166b24bc1ce05ab896f3ccb15432a4b12b18daeb",
      "blockHash": "0x7ad41beb106749755482a85ac41b2049be6de8afc5e1e84d79736aba121d2990",
      "blockNumber": 89939,
      "transactionIndex": 2,
      "confirmations": null,
      "from": "0x8fA33bA169f6aFf86fB3C9E172bddA7CA6D2A66a",
      "gasPrice": {
        "_hex": "0xd3e3087a2"
      },
      "gasLimit": {
        "_hex": "0x5208"
      },
      "to": "0x32Be343B94f860124dC4fEe278FDCBD38C102D88",
      "value": {
        "_hex": "0xb93dce76bee29000"
      },
      "nonce": 1,
      "data": "0x",
      "r": "0x409c344a032a96e36e5d216f30a633332ffce05e335f50f7fb5aa48435a355c0",
      "s": "0x13979abfe82e71a2ed283c96fcd242d9bf596594350a2eb7c305a796800e536c",
      "v": 28,
      "creates": null,
      "raw": "0xf86c01850d3e3087a28252089432be343b94f860124dc4fee278fdcbd38c102d8888b93dce76bee29000801ca0409c344a032a96e36e5d216f30a633332ffce05e335f50f7fb5aa48435a355c0a013979abfe82e71a2ed283c96fcd242d9bf596594350a2eb7c305a796800e536c",
      "networkId": 0,
      "chainId": 0
    }
  ]
}