{
  "hash": "0x8bb7a41cdc91f1fbea889242deac4f75134fbfb1f5d63d7706254916e89fa803",
  "parentHash": "0xd43d9bee121e61353ab795b3a629e3f57a2cd306f02816f79b56dad40ca72646",
  "number": 83091,
  "timestamp": 1439530027,
  "nonce": "0xd73c549b56a3cd85",
  "difficulty": 2407803344999,
  "gasLimit": {
    "_hex": "0x2fefd8"
  },
  "gasUsed": {
    "_hex": "0x5208"
  },
  "miner": "0xe6A7a1d47ff21B6321162AEA7C6CB457D5476Bca",
  "extraData": "0x476574682f76312e302e312d38326566323666362f6c696e75782f676f312e34",
  "transactions": [
    {
      "hash": "0xf9cf41306b9a2205a2fdd234c1f30ef62a37c37c06befecc9538d5f30107ad3c",
      "blockHash": "0x8bb7a41cdc91f1fbea889242deac4f75134fbfb1f5d63d7706254916e89fa803",
      "blockNumber": 83091,
      "transactionIndex": 0,
      "confirmations": null,
      "from": "0xBFdD9820a04283b289957956353b5F3C1F665EcF",
      "gasPrice": {
        "_hex": "0xdb5e558fc"
      },
      "gasLimit": {
        "_hex": "0x5208"
      },
      "to": "0x32Be343B94f860124dC4fEe278FDCBD38C102D88",
      "value": {
        "_hex": "0x11589d538be1f4000"
      },
      "nonce": 34,
      "data": "0x",
      "r": "0xc921f871bd3dd9ef1343e9ae13c435cfa439df8fa15fc69e17c847db0e00709e",
      "s": "0x320114894b3bbc6f22609ff53a239a5880de1e6acef4254ad6d904bfd665c24d",
      "v": 28,
      "creates": null,
      "raw": "0xf86d22850db5e558fc8252089432be343b94f860124dc4fee278fdcbd38c102d8889011589d538be1f4000801ca0c921f871bd3dd9ef1343e9ae13c435cfa439df8fa15fc69e17c847db0e00709ea0320114894b3bbc6f22609ff53a239a5880de1e6acef4254ad6d904bfd665c24d",
      "networkId": 0,
      "chainId": 0
    }
  ]
}