{
  "hash": "0xce863960b0a1e06ac01816306ac2041a8a149fa8d4470475dc2eb6688d1ef75a",
  "parentHash": "0x230f2da1d244a454c24457cd5abe0dc08f6fc45c36f46da7016d9e130b927ecd",
  "number": 102438,
  "timestamp": 1439837988,
  "nonce": "0x1f7d50931b1b8d78",
  "difficulty": 3966457574649,
  "gasLimit": {
    "_hex": "0x2fefd8"
  },
  "gasUsed": {
    "_hex": "0x5458"
  },
  "miner": "0xe6A7a1d47ff21B6321162AEA7C6CB457D5476Bca",
  "extraData": "0x476574682f76312e302e312d38326566323666362f6c696e75782f676f312e34",
  "transactions": [
    {
      "hash": "0xd4871a55c406160889d5b8ec528324c62da26066d26aa7f1d48cc71fd98798d7",
      "blockHash": "0xce863960b0a1e06ac01816306ac2041a8a149fa8d4470475dc2eb6688d1ef75a",
      "blockNumber": 102438,
      "transactionIndex": 0,
      "confirmations": null,
      "from": "0x91d32201228cd1Dea4e21d71f7A9e0CeF5de4A39",
      "gasPrice": {
        "_hex": "0xce74ef180"
      },
      "gasLimit": {
        "_hex": "0x493e0"
      },
      "to": "0x91d32201228cd1Dea4e21d71f7A9e0CeF5de4A39",
      "value": {
        "_hex": "0xde0b6b3a7640000"
      },
      "nonce": 5,
      "data": "0x8d21618600000000000000000000000000000000000000000000000000000000000000800000000000000000000000000000000000000000000000000000000000000000",
      "r": "0x4ee1a8fd21d5dc7c3e3b78212070d097e2d93e8308f1081953decf41b6052fcd",
      "s": "0x71553f9b9bef6d39d5694dcc9d66c43627f5225f2e61d6ab14a148323e215daa",
      "v": 27,
      "creates": null,
      "raw": "0xf8b205850ce74ef180830493e09491d32201228cd1dea4e21d71f7a9e0cef5de4a39880de0b6b3a7640000b8448d216186000000000000000000000000000000000000000000000000000000000000008000000000000000000000000000000000000000000000000000000000000000001ba04ee1a8fd21d5dc7c3e3b78212070d097e2d93e8308f1081953decf41b6052fcda071553f9b9bef6d39d5694dcc9d66c43627f5225f2e61d6ab14a148323e215daa",
      "networkId": 0,
      "chainId": 0
    }
  ]
}