{
  "hash": "0x2805024cd8af31b6dad96eb099a7ac91586c29c03a4deb6da2c2e2d98d42d4f7",
  "parentHash": "0x770e36600c655f729fd4fa0c5cfa8f3bd8551c35af0436510fdf68d268699c05",
  "number": 92723,
  "timestamp": 1439676195,
  "nonce": "0xe748cacf3e44a8b1",
  "difficulty": 3592807218675,
  "gasLimit": {
    "_hex": "0x2fefd8"
  },
  "gasUsed": {
    "_hex": "0x5208"
  },
  "miner": "0xbb7B8287f3F0a933474a79eAe42CBCa977791171",
  "extraData": "0x476574682f4c5649562f76312e302e312f6c696e75782f676f312e342e32",
  "transactions": [
    {
      "hash": "0xc22fb3daf9f4a78a77c9ad3f68e07e017be9e4f97700918f1b7189e92ca21796",
      "blockHash": "0x2805024cd8af31b6dad96eb099a7ac91586c29c03a4deb6da2c2e2d98d42d4f7",
      "blockNumber": 92723,
      "transactionIndex": 0,
      "confirmations": null,
      "from": "0x120A270bbC009644e35F0bB6ab13f95b8199c4ad",
      "gasPrice": {
        "_hex": "0xd6d328099"
      },
      "gasLimit": {
        "_hex": "0x3d090"
      },
      "to": "0x80c785df02B6C7d8e416827C7062Ef5b7382E438",
      "value": {
        "_hex": "0x14d1e0c0e6b43c00"
      },
      "nonce": 550,
      "data": "0x",
      "r": "0x5bb1dc047fcb99b8abe2747f4640533cf60091803dce4015d9cc20e540794b48",
      "s": "0x3d57a1e1a8d65a022f892de9ca77e7574244c16d32508e6433085dbb6c89a265",
      "v": 27,
      "creates": null,
      "raw": "0xf86f820226850d6d3280998303d0909480c785df02b6c7d8e416827c7062ef5b7382e4388814d1e0c0e6b43c00801ba05bb1dc047fcb99b8abe2747f4640533cf60091803dce4015d9cc20e540794b48a03d57a1e1a8d65a022f892de9ca77e7574244c16d32508e6433085dbb6c89a265",
      "networkId": 0,
      "chainId": 0
    }
  ]
}