{
  "hash": "0x95fd9dd25b066e5ca6ead5a3dabe864f31fdb6613139531d03e32b7b6cb6e612",
  "parentHash": "0xb9ed5e3b9d2436f941c96979535e0a4661ff1b0fd952df743cf5408ebb0ca099",
  "number": 64883,
  "timestamp": 1439227694,
  "nonce": "0x972706aed4d7dae5",
  "difficulty": 1908868009629,
  "gasLimit": {
    "_hex": "0x2fefd8"
  },
  "gasUsed": {
    "_hex": "0x1627c"
  },
  "miner": "0x785ffdDd5cE55c6DF963f345e68d3F2024E5Acb1",
  "extraData": "0x457468657265756d20474f212121212121",
  "transactions": [
    {
      "hash": "0x500a04967b2653b1236e3484b11691a0a1df52a45ae4a8c2d1e5109c1edcbcad",
      "blockHash": "0x95fd9dd25b066e5ca6ead5a3dabe864f31fdb6613139531d03e32b7b6cb6e612",
      "blockNumber": 64883,
      "transactionIndex": 0,
      "confirmations": null,
      "from": "0x29438a5547Cb8f5Dcc4182AbD0bB4cCa5E492ba2",
      "gasPrice": {
        "_hex": "0xcce739460"
      },
      "gasLimit": {
        "_hex": "0x5208"
      },
      "to": "0x32Be343B94f860124dC4fEe278FDCBD38C102D88",
      "value": {
        "_hex": "0x3635b3cfc4f5b60000"
      },
      "nonce": 0,
      "data": "0x",
      "r": "0x94b29d82b2c7dc36a5076414f48a6a61861181853a9e0c75b51c0398f007807b",
      "s": "0x52807692373ee8ca67456b3f8d0d7c9a01fe9a13025e9e9cfc1364b4711c9239",
      "v": 27,
      "creates": null,
      "raw": "0xf86d80850cce7394608252089432be343b94f860124dc4fee278fdcbd38c102d88893635b3cfc4f5b60000801ba094b29d82b2c7dc36a5076414f48a6a61861181853a9e0c75b51c0398f007807ba052807692373ee8ca67456b3f8d0d7c9a01fe9a13025e9e9cfc1364b4711c9239",
      "networkId": 0,
      "chainId": 0
    },
    {
      "hash": "0xf1f53ab178edd66fe7c90a1194b8e8aa0fac4c043c031e2f3b63947650a5479f",
      "blockHash": "0x95fd9dd25b066e5ca6ead5a3dabe864f31fdb6613139531d03e32b7b6cb6e612",
      "blockNumber": 64883,
      "transactionIndex": 1,
      "confirmations": null,
      "from": "0x127cbb9E122C8fe434313027f7348864A9BE6fa2",
      "gasPrice": {
        "_hex": "0xba43b7400"
      },
      "gasLimit": {
        "_hex": "0x15f90"
      },
      "to": "0x793AE8C1b1a160BFc07BFB0d04F85eab1A71F4f2",
      "value": {
        "_hex": "0x0"
      },
      "nonce": 0,
      "data": "0x3ba15036",
      "r": "0x30be28c5fcde268ad9226570aaa93a06ff4dbcf6e697f9bbdc3885dcf56ee421",
      "s": "0x686646f4dc3019f478b30729d0e2f6987b32283d80280452a9213b3e264ae3c9",
      "v": 28,
      "creates": null,
      "raw": "0xf86980850ba43b740083015f9094793ae8c1b1a160bfc07bfb0d04f85eab1a71f4f280843ba150361ca030be28c5fcde268ad9226570aaa93a06ff4dbcf6e697f9bbdc3885dcf56ee421a0686646f4dc3019f478b30729d0e2f6987b32283d80280452a9213b3e264ae3c9",
      "networkId": 0,
      "chainId": 0
    },
    {
      "hash": "0xf7a9abe812e87fee0d8ff3fce5f03d511d7f28c3a53a8bf4ff9190f62e42dbae",
      "blockHash": "0x95fd9dd25b066e5ca6ead5a3dabe864f31fdb6613139531d03e32b7b6cb6e612",
      "blockNumber": 64883,
      "transactionIndex": 2,
      "confirmations": null,
      "from": "0xDFB105F0bcEc3e24CcDA8cf3895C5bd89eCD2E76",
      "gasPrice": {
        "_hex": "0xba43b7400"
      },
      "gasLimit": {
        "_hex": "0x5208"
      },
      "to": "0x1103a1821D0F8B343b0dDb9E7900Cb1DC9c4a2A8",
      "value": {
        "_hex": "0x36ef271c4dd000"
      },
      "nonce": 1,
      "data": "0x",
      "r": "0x8c77de685c76e0ad55f3de3805a1df6c24d141e7163223912857743ce21fe183",
      "s": "0x532366df7c887df88dc3209bfd4ef9cd6189462e419c2f711b250fa947ff81fb",
      "v": 27,
      "creates": null,
      "raw": "0xf86b01850ba43b7400825208941103a1821d0f8b343b0ddb9e7900cb1dc9c4a2a88736ef271c4dd000801ba08c77de685c76e0ad55f3de3805a1df6c24d141e7163223912857743ce21fe183a0532366df7c887df88dc3209bfd4ef9cd6189462e419c2f711b250fa947ff81fb",
      "networkId": 0,
      "chainId": 0
    }
  ]
}