{
  "hash": "0x645163f5c7d2804a2e68cf42568b4c0925ecc330a2b7dbcd7d4b42f50c1d5f08",
  "parentHash": "0x2e8be462fa0c4a2ccc168a6ecd62e5330c1896cff1b4d72f986828c93f4eb795",
  "number": 54978,
  "timestamp": 1439063561,
  "nonce": "0xa3f2b9eb9a96c7cb",
  "difficulty": 1616414924632,
  "gasLimit": {
    "_hex": "0x2fefd8"
  },
  "gasUsed": {
    "_hex": "0x5208"
  },
  "miner": "0x01d9DA08cc6Fb97c0DE1B6F4C28910A0859Ed1A1",
  "extraData": "0x476574682f76312e302e312f6c696e75782f676f312e342e32",
  "transactions": [
    {
      "hash": "0x7ebb50fb8aeb966fed357b4186c91ddfd72ad68071214749b544d64303c3d9ed",
      "blockHash": "0x645163f5c7d2804a2e68cf42568b4c0925ecc330a2b7dbcd7d4b42f50c1d5f08",
      "blockNumber": 54978,
      "transactionIndex": 0,
      "confirmations": null,
      "from": "0x843bd3502f45F8bc4da370b323BdaC3fCF5f19A6",
      "gasPrice": {
        "_hex": "0xdddbb79bb"
      },
      "gasLimit": {
        "_hex": "0x15f90"
      },
      "to": "0x3c0552a53b84E1F265708FA1AfA9b5E71ccAffFa",
      "value": {
        "_hex": "0xde0b6b3a7640000"
      },
      "nonce": 0,
      "data": "0x",
      "r": "0xacebbf894e4e4048b88fe799608cae90d5a4d4023e0aa2d3626ba2a9b364a838",
      "s": "0x04d286f7137ea0a796f9e3d13c5f2179841e85854d325a9a83e847244eabf0da",
      "v": 28,
      "creates": null,
      "raw": "0xf86d80850dddbb79bb83015f90943c0552a53b84e1f265708fa1afa9b5e71ccafffa880de0b6b3a7640000801ca0acebbf894e4e4048b88fe799608cae90d5a4d4023e0aa2d3626ba2a9b364a838a004d286f7137ea0a796f9e3d13c5f2179841e85854d325a9a83e847244eabf0da",
      "networkId": 0,
      "chainId": 0
    }
  ]
}