{
  "hash": "0x57ea22d3a9543ce0d5a69c2c066e60c5d9adb08366337ca32959c21db05515a2",
  "parentHash": "0x10a781107ff5b2cf4ab8486d37877a57986646c91bcaa57073f46632e6614c65",
  "number": 112827,
  "timestamp": 1440013900,
  "nonce": "0x4549306530bf7705",
  "difficulty": 4425905033391,
  "gasLimit": {
    "_hex": "0x2fefd8"
  },
  "gasUsed": {
    "_hex": "0x5208"
  },
  "miner": "0x5B3e850E39e6f2C7dD38707b649e2B3536F14C0b",
  "extraData": "0x476574682f76312e302e312f64617277696e2f676f312e342e32",
  "transactions": [
    {
      "hash": "0x7d5c2fe9be38ce9fd694096daff8d640fdaaa5c2621d6e1cbb706aa227c97fcf",
      "blockHash": "0x57ea22d3a9543ce0d5a69c2c066e60c5d9adb08366337ca32959c21db05515a2",
      "blockNumber": 112827,
      "transactionIndex": 0,
      "confirmations": null,
      "from": "0xCeC4fF1eD13686d78234A6F8377d9d65d67f0c5a",
      "gasPrice": {
        "_hex": "0xd27151fc5"
      },
      "gasLimit": {
        "_hex": "0x5208"
      },
      "to": "0x32Be343B94f860124dC4fEe278FDCBD38C102D88",
      "value": {
        "_hex": "0x33eef5e654799c00"
      },
      "nonce": 1,
      "data": "0x",
      "r": "0x2b201c5aff4fae4b410ebbe47eed776f46b2526f05516c6f52431e848d14bd93",
      "s": "0x19cf87a40c7bfe61ce42e3d83f8501f355b4b088e756844502574b36a7f65864",
      "v": 28,
      "creates": null,
      "raw": "0xf86c01850d27151fc58252089432be343b94f860124dc4fee278fdcbd38c102d888833eef5e654799c00801ca02b201c5aff4fae4b410ebbe47eed776f46b2526f05516c6f52431e848d14bd93a019cf87a40c7bfe61ce42e3d83f8501f355b4b088e756844502574b36a7f65864",
      "networkId": 0,
      "chainId": 0
    }
  ]
}