{
  "hash": "0x7d1c695f06f1460ab41bea90e84d4902f5533d951e2e5f4d62007fe6b4a120ee",
  "parentHash": "0xa07337773cfcd74a51b4b48c0ebed140549e2c4ef2debd3049e3aeeedf7851ab",
  "number": 64482,
  "timestamp": 1439221417,
  "nonce": "0xcbe2dd16e51e19cf",
  "difficulty": 1876612629957,
  "gasLimit": {
    "_hex": "0x2fefd8"
  },
  "gasUsed": {
    "_hex": "0x2e248"
  },
  "miner": "0x93641e54c9aA6F9038FE7Adb03629a1747326Cd6",
  "extraData": "0x476574682f76312e302e312f77696e646f77732f676f312e342e32",
  "transactions": [
    {
      "hash": "0xd4b1cc8fa19fcadfd737bb61571f08d4cc170e368075a89dd41ae0900061fdbb",
      "blockHash": "0x7d1c695f06f1460ab41bea90e84d4902f5533d951e2e5f4d62007fe6b4a120ee",
      "blockNumber": 64482,
      "transactionIndex": 0,
      "confirmations": null,
      "from": "0x72c083BeadBdc227c5fb43881597E32e83C26056",
      "gasPrice": {
        "_hex": "0x10972a4ad5b"
      },
      "gasLimit": {
        "_hex": "0x15f90"
      },
      "to": "0x249502491a53b217181420Cc4A6dE23a720636CA",
      "value": {
        "_hex": "0x3635c9adc5dea00000"
      },
      "nonce": 5,
      "data": "0x",
      "r": "0xb9c00774ca30e1039fe7ee3ecf17748703775d36e11e5dc3dfaeb796613e8ef5",
      "s": "0x19fea8036b7c650f5a057dfe14cf7c8edf4f48ef6c473b677691e1e1809933a5",
      "v": 28,
      "creates": null,
      "raw": "0xf86f0586010972a4ad5b83015f9094249502491a53b217181420cc4a6de23a720636ca893635c9adc5dea00000801ca0b9c00774ca30e1039fe7ee3ecf17748703775d36e11e5dc3dfaeb796613e8ef5a019fea8036b7c650f5a057dfe14cf7c8edf4f48ef6c473b677691e1e1809933a5",
      "networkId": 0,
      "chainId": 0
    },
    {
      "hash": "0x29695750c8b10cd61890e24b42148552007e880c740a968bb98af11028fa1119",
      "blockHash": "0x7d1c695f06f1460ab41bea90e84d4902f5533d951e2e5f4d62007fe6b4a120ee",
      "blockNumber": 64482,
      "transactionIndex": 1,
      "confirmations": null,
      "from": "0x6B4971F56172Fe56565FD3d6b56F8CA3C91B2baD",
      "gasPrice": {
        "_hex": "0xcdab7cbdc"
      },
      "gasLimit": {
        "_hex": "0x15f90"
      },
      "to": "0xD0d70F5336Ee17F3f2A5B5c7056Aa73f5c853926",
      "value": {
        "_hex": "0x2386f26fc10000"
      },
      "nonce": 5,
      "data": "0x",
      "r": "0xa4a5203ce3e34383879f9123e93e33abd2acc308c184d4f1740729fc6ae56389",
      "s": "0x2c769db8d2f21f1d174a47502c298cc9da076554c66de084a9562a5e03cf2603",
      "v": 28,
      "creates": null,
      "raw": "0xf86c05850cdab7cbdc83015f9094d0d70f5336ee17f3f2a5b5c7056aa73f5c853926872386f26fc10000801ca0a4a5203ce3e34383879f9123e93e33abd2acc308c184d4f1740729fc6ae56389a02c769db8d2f21f1d174a47502c298cc9da076554c66de084a9562a5e03cf2603",
      "networkId": 0,
      "chainId": 0
    },
    {
      "hash": "0x738dff187a7c307f58f9371fd3c0951d1dc7d067d48ac146d0f129cb54fa2c0f",
      "blockHash": "0x7d1c695f06f1460ab41bea90e84d4902f5533d951e2e5f4d62007fe6b4a120ee",
      "blockNumber": 64482,
      "transactionIndex": 2,
      "confirmations": null,
      "from": "0x6B4971F56172Fe56565FD3d6b56F8CA3C91B2baD",
      "gasPrice": {
        "_hex": "0xcdab7cbdc"
      },
      "gasLimit": {
        "_hex": "0x15f90"
      },
      "to": "0x8Ab7Ee7f086b6De601892c21486bF45F934741dE",
      "value": {
        "_hex": "0x2386f26fc10000"
      },
      "nonce": 6,
      "data": "0x",
      "r": "0xe623633554567821ce91f841eaf09ade1fe909e6b22616279f957bf1de98a9ac",
      "s": "0x2ab85499800dd213276bfaf5596a409d9fcca8cceaab2657cc30585cd14c011a",
      "v": 28,
      "creates": null,
      "raw": "0xf86c06850cdab7cbdc83015f90948ab7ee7f086b6de601892c21486bf45f934741de872386f26fc10000801ca0e623633554567821ce91f841eaf09ade1fe909e6b22616279f957bf1de98a9aca02ab85499800dd213276bfaf5596a409d9fcca8cceaab2657cc30585cd14c011a",
      "networkId": 0,
      "chainId": 0
    },
    {
      "hash": "0x8f4eaec0d79c252757a2465e08d45d312091d4d22f30690ec161b4276304353a",
      "blockHash": "0x7d1c695f06f1460ab41bea90e84d4902f5533d951e2e5f4d62007fe6b4a120ee",
      "blockNumber": 64482,
      "transactionIndex": 3,
      "confirmations": null,
      "from": "0x6B4971F56172Fe56565FD3d6b56F8CA3C91B2baD",
      "gasPrice": {
        "_hex": "0xcdab7cbdc"
      },
      "gasLimit": {
        "_hex": "0x15f90"
      },
      "to": "0x88f171cb8C8B0428b309040077D44E9468D3374c",
      "value": {
        "_hex": "0x2386f26fc10000"
      },
      "nonce": 7,
      "data": "0x",
      "r": "0x152bd9314b1246e7b332a760f098e6de1791c5849544485fb18c3d06a7686df2",
      "s": "0x76cf56367fc16d6ad0269b5b21d141dc27c764274eb067fb63fdf02ae80b610c",
      "v": 27,
      "creates": null,
      "raw": "0xf86c07850cdab7cbdc83015f909488f171cb8c8b0428b309040077d44e9468d3374c872386f26fc10000801ba0152bd9314b1246e7b332a760f098e6de1791c5849544485fb18c3d06a7686df2a076cf56367fc16d6ad0269b5b21d141dc27c764274eb067fb63fdf02ae80b610c",
      "networkId": 0,
      "chainId": 0
    },
    {
      "hash": "0xf6c4b50c5f3acd6358d56f894d44337ae6e38ff75ae7f6409d3e290a5adf2c70",
      "blockHash": "0x7d1c695f06f1460ab41bea90e84d4902f5533d951e2e5f4d62007fe6b4a120ee",
      "blockNumber": 64482,
      "transactionIndex": 4,
      "confirmations": null,
      "from": "0x6B4971F56172Fe56565FD3d6b56F8CA3C91B2baD",
      "gasPrice": {
        "_hex": "0xcdab7cbdc"
      },
      "gasLimit": {
        "_hex": "0x15f90"
      },
      "to": "0xd2Caa39FdB2b5dA4BbA15284B8Ae996536382B90",
      "value": {
        "_hex": "0x2386f26fc10000"
      },
      "nonce": 8,
      "data": "0x",
      "r": "0xfa293883c001114125a79ae4ec49e486aac7beb6c3861ca7e5ae343c2910e85d",
      "s": "0x65ee7c612a26b666751d57c72e201ad1e88fd6abadf30d18b58c9b50041f4314",
      "v": 28,
      "creates": null,
      "raw": "0xf86c08850cdab7cbdc83015f9094d2caa39fdb2b5da4bba15284b8ae996536382b90872386f26fc10000801ca0fa293883c001114125a79ae4ec49e486aac7beb6c3861ca7e5ae343c2910e85da065ee7c612a26b666751d57c72e201ad1e88fd6abadf30d18b58c9b50041f4314",
      "networkId": 0,
      "chainId": 0
    },
    {
      "hash": "0x1056cc985d2e959db902c4eca8b7bb862e3b4c3602c803f447b2eb33e7e3f1a9",
      "blockHash": "0x7d1c695f06f1460ab41bea90e84d4902f5533d951e2e5f4d62007fe6b4a120ee",
      "blockNumber": 64482,
      "transactionIndex": 5,
      "confirmations": null,
      "from": "0x6B4971F56172Fe56565FD3d6b56F8CA3C91B2baD",
      "gasPrice": {
        "_hex": "0xcdab7cbdc"
      },
      "gasLimit": {
        "_hex": "0x15f90"
      },
      "to": "0x298B0f31c60e320a4bDeBBB571C905453314F8eB",
      "value": {
        "_hex": "0x2386f26fc10000"
      },
      "nonce": 9,
      "data": "0x",
      "r": "0x0d22e127f6687a7022e49201a567370fa2b52c3e1078a0bfb7ed68d024afc94f",
      "s": "0x55f1201c21c40be3eb436e643d85f815b039a4b9711ca1619154a98c3e35bd60",
      "v": 27,
      "creates": null,
      "raw": "0xf86c09850cdab7cbdc83015f9094298b0f31c60e320a4bdebbb571c905453314f8eb872386f26fc10000801ba00d22e127f6687a7022e49201a567370fa2b52c3e1078a0bfb7ed68d024afc94fa055f1201c21c40be3eb436e643d85f815b039a4b9711ca1619154a98c3e35bd60",
      "networkId": 0,
      "chainId": 0
    },
    {
      "hash": "0xce34fc798d3f16976cf45bcb5daf566a7013bf44158fa7dfe739bcd60d2e4f0c",
      "blockHash": "0x7d1c695f06f1460ab41bea90e84d4902f5533d951e2e5f4d62007fe6b4a120ee",
      "blockNumber": 64482,
      "transactionIndex": 6,
      "confirmations": null,
      "from": "0x6B4971F56172Fe56565FD3d6b56F8CA3C91B2baD",
      "gasPrice": {
        "_hex": "0xcdab7cbdc"
      },
      "gasLimit": {
        "_hex": "0x15f90"
      },
      "to": "0x90F7e7d1E7411BCF05271E68cb58C97D075035Ba",
      "value": {
        "_hex": "0x2386f26fc10000"
      },
      "nonce": 10,
      "data": "0x",
      "r": "0x5a3ec2df53cce6582822005914ea44a28a1a7658005627c97b61b2786c979554",
      "s": "0x47eab8911c318ec2b5ed34da80b8063fc82a213367db7fa478e3d8c8ffa207e8",
      "v": 28,
      "creates": null,
      "raw": "0xf86c0a850cdab7cbdc83015f909490f7e7d1e7411bcf05271e68cb58c97d075035ba872386f26fc10000801ca05a3ec2df53cce6582822005914ea44a28a1a7658005627c97b61b2786c979554a047eab8911c318ec2b5ed34da80b8063fc82a213367db7fa478e3d8c8ffa207e8",
      "networkId": 0,
      "chainId": 0
    },
    {
      "hash": "0x1f79f830aed78801e187fc9d656ba720f6d494f1b00d9231c7342c1eae728c59",
      "blockHash": "0x7d1c695f06f1460ab41bea90e84d4902f5533d951e2e5f4d62007fe6b4a120ee",
      "blockNumber": 64482,
      "transactionIndex": 7,
      "confirmations": null,
      "from": "0x6B4971F56172Fe56565FD3d6b56F8CA3C91B2baD",
      "gasPrice": {
        "_hex": "0xcdab7cbdc"
      },
      "gasLimit": {
        "_hex": "0x15f90"
      },
      "to": "0xfEf75e7815A4440D1Ba1f075d70978181C84eF5B",
      "value": {
        "_hex": "0x2386f26fc10000"
      },
      "nonce": 11,
      "data": "0x",
      "r": "0xa5d208ca0da85a28b0ac9f78ce79720b3f7b39f6bb903ba6b4e716b6f5ccec38",
      "s": "0x0e123a54e9feba466d0a92ab12169ab784bd45b56ae0a443ebe0c38f9a7f8e9e",
      "v": 27,
      "creates": null,
      "raw": "0xf86c0b850cdab7cbdc83015f9094fef75e7815a4440d1ba1f075d70978181c84ef5b872386f26fc10000801ba0a5d208ca0da85a28b0ac9f78ce79720b3f7b39f6bb903ba6b4e716b6f5ccec38a00e123a54e9feba466d0a92ab12169ab784bd45b56ae0a443ebe0c38f9a7f8e9e",
      "networkId": 0,
      "chainId": 0
    },
    {
      "hash": "0xe0d02f1fbc336901cd4b6cd7c47d5df58cccf85a1ea22ef085458dea3ee31002",
      "blockHash": "0x7d1c695f06f1460ab41bea90e84d4902f5533d951e2e5f4d62007fe6b4a120ee",
      "blockNumber": 64482,
      "transactionIndex": 8,
      "confirmations": null,
      "from": "0x6B4971F56172Fe56565FD3d6b56F8CA3C91B2baD",
      "gasPrice": {
        "_hex": "0xcdab7cbdc"
      },
      "gasLimit": {
        "_hex": "0x15f90"
      },
      "to": "0xdcBB43252786631B2ecD687720AfE370fcD203fC",
      "value": {
        "_hex": "0x2386f26fc10000"
      },
      "nonce": 12,
      "data": "0x",
      "r": "0x0459e491aac29da6a52e7e057fc50e36b1b2f62be15219b2d0b81b65b3bdf5ab",
      "s": "0x385be4f1ebcd071c8c16abedfb18fee421824643f918884cc356b0dd690573f8",
      "v": 27,
      "creates": null,
      "raw": "0xf86c0c850cdab7cbdc83015f9094dcbb43252786631b2ecd687720afe370fcd203fc872386f26fc10000801ba00459e491aac29da6a52e7e057fc50e36b1b2f62be15219b2d0b81b65b3bdf5aba0385be4f1ebcd071c8c16abedfb18fee421824643f918884cc356b0dd690573f8",
      "networkId": 0,
      "chainId": 0
    }
  ]
}