{
  "hash": "0x5afd3dadf1cde56be900466a6c25ce9e1738da7874d55b8ab84bbdca1439106e",
  "parentHash": "0xc72174b24fdc7fdc216ece46cbfe670563c839191aca36556cc99a312d9650b3",
  "number": 69324,
  "timestamp": 1439301994,
  "nonce": "0xab66dc05e45b176a",
  "difficulty": 2061879030187,
  "gasLimit": {
    "_hex": "0x2fefd8"
  },
  "gasUsed": {
    "_hex": "0x5208"
  },
  "miner": "0xe6A7a1d47ff21B6321162AEA7C6CB457D5476Bca",
  "extraData": "0x476574682f76312e302e312d38326566323666362f6c696e75782f676f312e34",
  "transactions": [
    {
      "hash": "0xe7bfe5eff085280e4c1c0afb5ae92190685f4d8af3b2ff6d707fd4f1ab1b9b93",
      "blockHash": "0x5afd3dadf1cde56be900466a6c25ce9e1738da7874d55b8ab84bbdca1439106e",
      "blockNumber": 69324,
      "transactionIndex": 0,
      "confirmations": null,
      "from": "0x52Dc504a422f0E2A9e7632A34a50f1a82F8224c7",
      "gasPrice": {
        "_hex": "0xd6501cbe2"
      },
      "gasLimit": {
        "_hex": "0x15f90"
      },
      "to": "0x097738363B1662599ad0777E19461601F5EC8dF9",
      "value": {
        "_hex": "0x56bc75e2d63100000"
      },
      "nonce": 4,
      "data": "0x",
      "r": "0xa2034ea8567e918e2f2baf8a47ea5c099cdbd72b997fb43332492fdede505193",
      "s": "0x67c7a89a690eb893984da42f491673fec2620e1d3de3d251bf97d623e233e3d7",
      "v": 28,
      "creates": null,
      "raw": "0xf86e04850d6501cbe283015f9094097738363b1662599ad0777e19461601f5ec8df989056bc75e2d63100000801ca0a2034ea8567e918e2f2baf8a47ea5c099cdbd72b997fb43332492fdede505193a067c7a89a690eb893984da42f491673fec2620e1d3de3d251bf97d623e233e3d7",
      "networkId": 0,
      "chainId": 0
    }
  ]
}