{
  "hash": "0x374e36a7996e781f2ed01dfabc838a7190e92cc3849d43e25da85a3d997e9444",
  "parentHash": "0xcaf39ad5f2496d4a17780bc74539f60a15e5ea685c0e7760431974a293cd8e89",
  "number": 94661,
  "timestamp": 1439711872,
  "nonce": "0x36d91d09d05153b1",
  "difficulty": 3498504651517,
  "gasLimit": {
    "_hex": "0x2fefd8"
  },
  "gasUsed": {
    "_hex": "0x23e38"
  },
  "miner": "0xe6A7a1d47ff21B6321162AEA7C6CB457D5476Bca",
  "extraData": "0x476574682f76312e302e312d38326566323666362f6c696e75782f676f312e34",
  "transactions": [
    {
      "hash": "0x818c10001ff80f9af4b405c63f885b5e53ae06e6503f8820b139521e8519687d",
      "blockHash": "0x374e36a7996e781f2ed01dfabc838a7190e92cc3849d43e25da85a3d997e9444",
      "blockNumber": 94661,
      "transactionIndex": 0,
      "confirmations": null,
      "from": "0xe6A7a1d47ff21B6321162AEA7C6CB457D5476Bca",
      "gasPrice": {
        "_hex": "0xd8d93cdad"
      },
      "gasLimit": {
        "_hex": "0x55f0"
      },
      "to": "0x3131059fec5c802096c71004E5C3E87f67ED96d0",
      "value": {
        "_hex": "0x8913a93f562ec850"
      },
      "nonce": 2829,
      "data": "0x",
      "r": "0x343f880e750ef93881ed8a23bb606ed5c9a307a9bfbd8671dde5a8a16bf624da",
      "s": "0x1fcd221d186f4b31f1b1861a5e8b9de6ce4e3686c08c9e9937abcc31f040fb73",
      "v": 28,
      "creates": null,
      "raw": "0xf86e820b0d850d8d93cdad8255f0943131059fec5c802096c71004e5c3e87f67ed96d0888913a93f562ec850801ca0343f880e750ef93881ed8a23bb606ed5c9a307a9bfbd8671dde5a8a16bf624daa01fcd221d186f4b31f1b1861a5e8b9de6ce4e3686c08c9e9937abcc31f040fb73",
      "networkId": 0,
      "chainId": 0
    },
    {
      "hash": "0xbc5229a51aebe9b5de500b5d0fd4a27bc150ede59ed6f0fcbb20dcf46ae7b21d",
      "blockHash": "0x374e36a7996e781f2ed01dfabc838a7190e92cc3849d43e25da85a3d997e9444",
      "blockNumber": 94661,
      "transactionIndex": 1,
      "confirmations": null,
      "from": "0xe6A7a1d47ff21B6321162AEA7C6CB457D5476Bca",
      "gasPrice": {
        "_hex": "0xd8d93cdad"
      },
      "gasLimit": {
        "_hex": "0x55f0"
      },
      "to": "0xAD220cCE3937674e425c9693786E3eC3615C900C",
      "value": {
        "_hex": "0x8b8dbe6e82813f30"
      },
      "nonce": 2830,
      "data": "0x",
      "r": "0x0bba2b8bd955c5ca47111240d883c82e1d690f2a67b02bda0b11e0da2f6ba115",
      "s": "0x27c122b2afb0f1df6a7901a0ca3885ac1f61bd16ad06022deef76df088f77cb0",
      "v": 28,
      "creates": null,
      "raw": "0xf86e820b0e850d8d93cdad8255f094ad220cce3937674e425c9693786e3ec3615c900c888b8dbe6e82813f30801ca00bba2b8bd955c5ca47111240d883c82e1d690f2a67b02bda0b11e0da2f6ba115a027c122b2afb0f1df6a7901a0ca3885ac1f61bd16ad06022deef76df088f77cb0",
      "networkId": 0,
      "chainId": 0
    },
    {
      "hash": "0x9d9feb01570f1921bf4e1ad8a28ba42b87a8c5e71b4ae522851ff2046feab34f",
      "blockHash": "0x374e36a7996e781f2ed01dfabc838a7190e92cc3849d43e25da85a3d997e9444",
      "blockNumber": 94661,
      "transactionIndex": 2,
      "confirmations": null,
      "from": "0xe6A7a1d47ff21B6321162AEA7C6CB457D5476Bca",
      "gasPrice": {
        "_hex": "0xd8d93cdad"
      },
      "gasLimit": {
        "_hex": "0x55f0"
      },
      "to": "0x4CD33268dF93C6b4F6b3D504009EAE965Afe272d",
      "value": {
        "_hex": "0x8b944e0564fd6010"
      },
      "nonce": 2831,
      "data": "0x",
      "r": "0xa4941929eef45e94c51a5453142ded8b14ca4384d636f8170ceb72924b79beab",
      "s": "0x0141b16069381773aee662e95c8e401f4a03d8ef667cfcee19220c26868bbe7c",
      "v": 28,
      "creates": null,
      "raw": "0xf86e820b0f850d8d93cdad8255f0944cd33268df93c6b4f6b3d504009eae965afe272d888b944e0564fd6010801ca0a4941929eef45e94c51a5453142ded8b14ca4384d636f8170ceb72924b79beaba00141b16069381773aee662e95c8e401f4a03d8ef667cfcee19220c26868bbe7c",
      "networkId": 0,
      "chainId": 0
    },
    {
      "hash": "0x65d50de9333a27a721363818e09f0dcb7ff9e5a7fcdc75a3041ef6c99a205dfe",
      "blockHash": "0x374e36a7996e781f2ed01dfabc838a7190e92cc3849d43e25da85a3d997e9444",
      "blockNumber": 94661,
      "transactionIndex": 3,
      "confirmations": null,
      "from": "0xe6A7a1d47ff21B6321162AEA7C6CB457D5476Bca",
      "gasPrice": {
        "_hex": "0xd8d93cdad"
      },
      "gasLimit": {
        "_hex": "0x55f0"
      },
      "to": "0xe6F63A7e7F8dc774F8E3504c9b0c5458D7E28ED8",
      "value": {
        "_hex": "0x8ba9879515e987b8"
      },
      "nonce": 2832,
      "data": "0x",
      "r": "0xeaed3c236c9031275058247ddd0a2d666ca48a79f7339f74f093d5e79ba99d65",
      "s": "0x0e6ba55e1c2efa51b7bee171119b745e82114cfa8601210c02a84a13fb6cb05a",
      "v": 28,
      "creates": null,
      "raw": "0xf86e820b10850d8d93cdad8255f094e6f63a7e7f8dc774f8e3504c9b0c5458d7e28ed8888ba9879515e987b8801ca0eaed3c236c9031275058247ddd0a2d666ca48a79f7339f74f093d5e79ba99d65a00e6ba55e1c2efa51b7bee171119b745e82114cfa8601210c02a84a13fb6cb05a",
      "networkId": 0,
      "chainId": 0
    },
    {
      "hash": "0x9bfb877fadb3c6da5f13b213fb499a23c2f5861dea96cc868466d168befc17f9",
      "blockHash": "0x374e36a7996e781f2ed01dfabc838a7190e92cc3849d43e25da85a3d997e9444",
      "blockNumber": 94661,
      "transactionIndex": 4,
      "confirmations": null,
      "from": "0xe6A7a1d47ff21B6321162AEA7C6CB457D5476Bca",
      "gasPrice": {
        "_hex": "0xd8d93cdad"
      },
      "gasLimit": {
        "_hex": "0x55f0"
      },
      "to": "0x18883522e2679aA9b41E0fA688F20c3802897525",
      "value": {
        "_hex": "0x8ec0a6d7a0948400"
      },
      "nonce": 2833,
      "data": "0x",
      "r": "0x99ab2c23224616bfb5316df8fcd502d8a9d3595e54140f3b3d62c2345931c724",
      "s": "0x657a08b7851c39c3e139ab439ccfa7da8a3f081f868ac7c0ab7866014876a2ff",
      "v": 27,
      "creates": null,
      "raw": "0xf86e820b11850d8d93cdad8255f09418883522e2679aa9b41e0fa688f20c3802897525888ec0a6d7a0948400801ba099ab2c23224616bfb5316df8fcd502d8a9d3595e54140f3b3d62c2345931c724a0657a08b7851c39c3e139ab439ccfa7da8a3f081f868ac7c0ab7866014876a2ff",
      "networkId": 0,
      "chainId": 0
    },
    {
      "hash": "0x24f0aae8886ab06f45664deee92b1516298e72c15d410a33bb77200a39ffe54c",
      "blockHash": "0x374e36a7996e781f2ed01dfabc838a7190e92cc3849d43e25da85a3d997e9444",
      "blockNumber": 94661,
      "transactionIndex": 5,
      "confirmations": null,
      "from": "0xe6A7a1d47ff21B6321162AEA7C6CB457D5476Bca",
      "gasPrice": {
        "_hex": "0xd8d93cdad"
      },
      "gasLimit": {
        "_hex": "0x55f0"
      },
      "to": "0x3175a28CF6105466923f11bFFabD279F162aa2f8",
      "value": {
        "_hex": "0x8f864063d18c0060"
      },
      "nonce": 2834,
      "data": "0x",
      "r": "0x80901f9b06641e0ffe187d06574e3e4fa6991c9c3e92b12c99ebdc11c5b570fc",
      "s": "0x3f12bfd7d26abbc49bf12ecdb35880ec89f8f1a094107ab5fe5f3b799c7dec0f",
      "v": 27,
      "creates": null,
      "raw": "0xf86e820b12850d8d93cdad8255f0943175a28cf6105466923f11bffabd279f162aa2f8888f864063d18c0060801ba080901f9b06641e0ffe187d06574e3e4fa6991c9c3e92b12c99ebdc11c5b570fca03f12bfd7d26abbc49bf12ecdb35880ec89f8f1a094107ab5fe5f3b799c7dec0f",
      "networkId": 0,
      "chainId": 0
    },
    {
      "hash": "0x34d418a18f49100eb003d0d8580813bdc7e8b3f418b3c255cd2762cd216ce4db",
      "blockHash": "0x374e36a7996e781f2ed01dfabc838a7190e92cc3849d43e25da85a3d997e9444",
      "blockNumber": 94661,
      "transactionIndex": 6,
      "confirmations": null,
      "from": "0x007f7f58D3eb5b7510A301eCC749FC1fCDDBE14D",
      "gasPrice": {
        "_hex": "0xcc8ddf695"
      },
      "gasLimit": {
        "_hex": "0x15f90"
      },
      "to": "0xb1abce2918E21ddb93AA452731a12672A3d9F75a",
      "value": {
        "_hex": "0x4563918244f40000"
      },
      "nonce": 38,
      "data": "0x",
      "r": "0xe3b9d9f2a2db8adf73762b1cb28e7dac598b66ab627e6d2fe2e1d1badf0edbbf",
      "s": "0x19cd52f210f6971a1828dcb3bb3bdf960b97a8e05f42c385b5b3c5b51ac4d9cf",
      "v": 27,
      "creates": null,
      "raw": "0xf86d26850cc8ddf69583015f9094b1abce2918e21ddb93aa452731a12672a3d9f75a884563918244f40000801ba0e3b9d9f2a2db8adf73762b1cb28e7dac598b66ab627e6d2fe2e1d1badf0edbbfa019cd52f210f6971a1828dcb3bb3bdf960b97a8e05f42c385b5b3c5b51ac4d9cf",
      "networkId": 0,
      "chainId": 0
    }
  ]
}