{
  "hash": "0x3251c97e04f10a6945b9c5ca1faf34f99788826ded01f528b2b2d8aac88d8582",
  "parentHash": "0xb068e9247e0237105c540cc923d7a8eb404c3d71de59a7ce7dcd25eef0d519bd",
  "number": 71501,
  "timestamp": 1439337215,
  "nonce": "0xbb56b5ced2e9395e",
  "difficulty": 2176150351586,
  "gasLimit": {
    "_hex": "0x2fefd8"
  },
  "gasUsed": {
    "_hex": "0x93b2"
  },
  "miner": "0xeB1325C8D9d3ea8D74aC11F4B00F1B2367686319",
  "extraData": "0x476574682f76312e302e312f77696e646f77732f676f312e342e32",
  "transactions": [
    {
      "hash": "0xe7027efef5e84aa4245780a3847602bb94babc87651bcc43b5b8497ec68fad2c",
      "blockHash": "0x3251c97e04f10a6945b9c5ca1faf34f99788826ded01f528b2b2d8aac88d8582",
      "blockNumber": 71501,
      "transactionIndex": 0,
      "confirmations": null,
      "from": "0x17580B766f7453525ca4C6A88b01b50570EA088C",
      "gasPrice": {
        "_hex": "0xdf8c71d42"
      },
      "gasLimit": {
        "_hex": "0x61a80"
      },
      "to": "0x5Fe5B7546D1628f7348B023A0393de1FC825A4fD",
      "value": {
        "_hex": "0x8ac7230489e80000"
      },
      "nonce": 208,
      "data": "0xb595b8b50000000000000000000000000000000000000000000000000000000000000000",
      "r": "0x26e25d684c75e480b5f5d97a787e815ae90126e093a9696e5173009511190734",
      "s": "0x549f70d6ee27d55d1fbfbcaf7acdfff2de54cc51072f89c584a91779daa4cfff",
      "v": 27,
      "creates": null,
      "raw": "0xf89281d0850df8c71d4283061a80945fe5b7546d1628f7348b023a0393de1fc825a4fd888ac7230489e80000a4b595b8b500000000000000000000000000000000000000000000000000000000000000001ba026e25d684c75e480b5f5d97a787e815ae90126e093a9696e5173009511190734a0549f70d6ee27d55d1fbfbcaf7acdfff2de54cc51072f89c584a91779daa4cfff",
      "networkId": 0,
      "chainId": 0
    }
  ]
}