{
  "hash": "0x970eb72aedd6009ea9d3432efc0b3a4938c9ae65b4597f6127af882546b60082",
  "parentHash": "0x3a85a86518ace99b3063a1ae7ec085d0778419f56b0153abffca2cfb7d06dc4d",
  "number": 114642,
  "timestamp": 1440043862,
  "nonce": "0xd66253409072a35e",
  "difficulty": 4496825496046,
  "gasLimit": {
    "_hex": "0x2fefd8"
  },
  "gasUsed": {
    "_hex": "0xa410"
  },
  "miner": "0xe6A7a1d47ff21B6321162AEA7C6CB457D5476Bca",
  "extraData": "0x476574682f76312e302e312d38326566323666362f6c696e75782f676f312e34",
  "transactions": [
    {
      "hash": "0x667558dbe7b652e99a0dbc3fbf522e2f63eb353779a35008b7eb2c48b4f728d9",
      "blockHash": "0x970eb72aedd6009ea9d3432efc0b3a4938c9ae65b4597f6127af882546b60082",
      "blockNumber": 114642,
      "transactionIndex": 0,
      "confirmations": null,
      "from": "0xF87481A262E993a75F791E7859E71BaC36A606Eb",
      "gasPrice": {
        "_hex": "0xdccac8659"
      },
      "gasLimit": {
        "_hex": "0x5208"
      },
      "to": "0x32Be343B94f860124dC4fEe278FDCBD38C102D88",
      "value": {
        "_hex": "0x890ac56e2faa50000"
      },
      "nonce": 44,
      "data": "0x",
      "r": "0x474ff952fceaebbdb4df6cbaed54ba3b203c8e2d7405a52cbb72956e1e23046e",
      "s": "0x1b81ee423de34d8920cd521c368fbdfaf2b18259b156dd8600efa00a12dff2b6",
      "v": 28,
      "creates": null,
      "raw": "0xf86d2c850dccac86598252089432be343b94f860124dc4fee278fdcbd38c102d88890890ac56e2faa50000801ca0474ff952fceaebbdb4df6cbaed54ba3b203c8e2d7405a52cbb72956e1e23046ea01b81ee423de34d8920cd521c368fbdfaf2b18259b156dd8600efa00a12dff2b6",
      "networkId": 0,
      "chainId": 0
    },
    {
      "hash": "0x623b30440859170edd7f6c1d53100092ef9845ddc5472e1b15ad713858a3e2d7",
      "blockHash": "0x970eb72aedd6009ea9d3432efc0b3a4938c9ae65b4597f6127af882546b60082",
      "blockNumber": 114642,
      "transactionIndex": 1,
      "confirmations": null,
      "from": "0x1543667B9bad3e41865C3233E1764d8dda8E1F3D",
      "gasPrice": {
        "_hex": "0xdccac8659"
      },
      "gasLimit": {
        "_hex": "0x5208"
      },
      "to": "0x32Be343B94f860124dC4fEe278FDCBD38C102D88",
      "value": {
        "_hex": "0x5b12683b152f14000"
      },
      "nonce": 13,
      "data": "0x",
      "r": "0xd371ccd5f67fddf37419f4c3351324e182182228a0c67468d8bb365bed1a9f19",
      "s": "0x73c8ef928b94531e8d2057708b2ce665768d3eba6861f020556262e65eb18cd7",
      "v": 28,
      "creates": null,
      "raw": "0xf86d0d850dccac86598252089432be343b94f860124dc4fee278fdcbd38c102d888905b12683b152f14000801ca0d371ccd5f67fddf37419f4c3351324e182182228a0c67468d8bb365bed1a9f19a073c8ef928b94531e8d2057708b2ce665768d3eba6861f020556262e65eb18cd7",
      "networkId": 0,
      "chainId": 0
    }
  ]
}