{
  "hash": "0xa3c01e7455c6f605a4082ad12034102d972d77897e489c706a349000a76c2c80",
  "parentHash": "0x63be229ff82b5ca96a2bffa9922c2a8efc0ea0f4425e29ce15c2135010a89dcc",
  "number": 51973,
  "timestamp": 1439014014,
  "nonce": "0xc1a5e62ffd38d426",
  "difficulty": 1561896737212,
  "gasLimit": {
    "_hex": "0xf5beb"
  },
  "gasUsed": {
    "_hex": "0xa660"
  },
  "miner": "0x1B7047b4338ACf65bE94C1A3e8c5c9338ad7d67C",
  "extraData": "0x476574682f76312e302e312d38326566323666362f6c696e75782f676f312e34",
  "transactions": [
    {
      "hash": "0xca2b70066b365492d0d758789cd1f09832cb416968e90e1c110088c1b362c9a3",
      "blockHash": "0xa3c01e7455c6f605a4082ad12034102d972d77897e489c706a349000a76c2c80",
      "blockNumber": 51973,
      "transactionIndex": 0,
      "confirmations": null,
      "from": "0x3f4e6ef4c172d29A5bfc4CC6073A6602eca6c2EB",
      "gasPrice": {
        "_hex": "0xdb15bf1dc"
      },
      "gasLimit": {
        "_hex": "0x5208"
      },
      "to": "0x32Be343B94f860124dC4fEe278FDCBD38C102D88",
      "value": {
        "_hex": "0xd8d72253db4e280000"
      },
      "nonce": 2,
      "data": "0x",
      "r": "0x653c9b92987814adb2ac36e4a3ea25393688ad980a67018fff3b30c5de1b5437",
      "s": "0x6e7d31c85bea1a8c31c8f99d2cc59b7b7562dec0f9d1b9e50bf1e91f85b2dc9b",
      "v": 28,
      "creates": null,
      "raw": "0xf86d02850db15bf1dc8252089432be343b94f860124dc4fee278fdcbd38c102d8889d8d72253db4e280000801ca0653c9b92987814adb2ac36e4a3ea25393688ad980a67018fff3b30c5de1b5437a06e7d31c85bea1a8c31c8f99d2cc59b7b7562dec0f9d1b9e50bf1e91f85b2dc9b",
      "networkId": 0,
      "chainId": 0
    },
    {
      "hash": "0xb8c4b18f94f6ad3a956e17a2e86f6fbc8877f9b2a0b95740f0dd9e20e9e4baad",
      "blockHash": "0xa3c01e7455c6f605a4082ad12034102d972d77897e489c706a349000a76c2c80",
      "blockNumber": 51973,
      "transactionIndex": 1,
      "confirmations": null,
      "from": "0x320e69e693Df6C1476c13836CDBE2F6E5dEf83A1",
      "gasPrice": {
        "_hex": "0xd3e6fd016"
      },
      "gasLimit": {
        "_hex": "0x15f90"
      },
      "to": "0x0000000000000000000000000000000000000000",
      "value": {
        "_hex": "0xde0b6b3a7640000"
      },
      "nonce": 0,
      "data": "0x432ced046d696b0000000000000000000000000000000000000000000000000000000000",
      "r": "0x43a09557c07f48371b71f1671563e5cafc8f43739e293b5b410ed01a2b42f82a",
      "s": "0x6870ba852061aaa4c5e07938603caa239a92cca182bfb977ef83734f10e1fb64",
      "v": 27,
      "creates": null,
      "raw": "0xf89180850d3e6fd01683015f90940000000000000000000000000000000000000000880de0b6b3a7640000a4432ced046d696b00000000000000000000000000000000000000000000000000000000001ba043a09557c07f48371b71f1671563e5cafc8f43739e293b5b410ed01a2b42f82aa06870ba852061aaa4c5e07938603caa239a92cca182bfb977ef83734f10e1fb64",
      "networkId": 0,
      "chainId": 0
    }
  ]
}