{
  "hash": "0x4e2f911f9c21d0587687420409dbaad962083ab5154bcc6b66224659a45d647f",
  "parentHash": "0x0e233bc74dc8d570e303e6c90824bb20c333ab92b8a01ac4e1e2c9ceefaa489f",
  "number": 50908,
  "timestamp": 1438996465,
  "nonce": "0x3c98ef5e0fcdda00",
  "difficulty": 1549182102576,
  "gasLimit": {
    "_hex": "0x8212c"
  },
  "gasUsed": {
    "_hex": "0xa410"
  },
  "miner": "0x0037ce3d4B7f8729C8607D8D0248252Be68202c0",
  "extraData": "0x476574682f76312e302e312f77696e646f77732f676f312e342e32",
  "transactions": [
    {
      "hash": "0x63bb0db98f81a547499ab40f95284b9bb4b2d0181ad679f7ed405f24ffb7cecc",
      "blockHash": "0x4e2f911f9c21d0587687420409dbaad962083ab5154bcc6b66224659a45d647f",
      "blockNumber": 50908,
      "transactionIndex": 0,
      "confirmations": null,
      "from": "0x0786DeC5Fd4bE408868A070A2a9f2A8CAC234733",
      "gasPrice": {
        "_hex": "0xd653d5022"
      },
      "gasLimit": {
        "_hex": "0x5208"
      },
      "to": "0x32Be343B94f860124dC4fEe278FDCBD38C102D88",
      "value": {
        "_hex": "0x6ec107fd7e0b000"
      },
      "nonce": 0,
      "data": "0x",
      "r": "0x3d04c834f20a3441f9ce335c5d36f56f6851b9759e57313ea57eac7382ea12d5",
      "s": "0x051f9e95a694dfc4e083f47d17cfac2569c3ca7ff4b5ba3962876faedff2affa",
      "v": 28,
      "creates": null,
      "raw": "0xf86c80850d653d50228252089432be343b94f860124dc4fee278fdcbd38c102d888806ec107fd7e0b000801ca03d04c834f20a3441f9ce335c5d36f56f6851b9759e57313ea57eac7382ea12d5a0051f9e95a694dfc4e083f47d17cfac2569c3ca7ff4b5ba3962876faedff2affa",
      "networkId": 0,
      "chainId": 0
    },
    {
      "hash": "0x885ee99bfe48ceef2e1e503d66b07f426de228f15a29b1a5c360eaa4a24dbe5e",
      "blockHash": "0x4e2f911f9c21d0587687420409dbaad962083ab5154bcc6b66224659a45d647f",
      "blockNumber": 50908,
      "transactionIndex": 1,
      "confirmations": null,
      "from": "0x7dD3612209FF4095D7520D7De77E329330171663",
      "gasPrice": {
        "_hex": "0xd653d5022"
      },
      "gasLimit": {
        "_hex": "0x5208"
      },
      "to": "0x32Be343B94f860124dC4fEe278FDCBD38C102D88",
      "value": {
        "_hex": "0xddc6bd9ab92b000"
      },
      "nonce": 0,
      "data": "0x",
      "r": "0x83f280f065ae824e3c3724ed429b5aa753955c6bab7f0e2c92540784560abc5e",
      "s": "0x0a640947780ff985bfff648d6dbde48c272b2db070dae077ff3c546732df1e3c",
      "v": 27,
      "creates": null,
      "raw": "0xf86c80850d653d50228252089432be343b94f860124dc4fee278fdcbd38c102d88880ddc6bd9ab92b000801ba083f280f065ae824e3c3724ed429b5aa753955c6bab7f0e2c92540784560abc5ea00a640947780ff985bfff648d6dbde48c272b2db070dae077ff3c546732df1e3c",
      "networkId": 0,
      "chainId": 0
    }
  ]
}