{
  "hash": "0x47cb08d1e6d08ef9049edbd9f8cfaeff1edee4b0815a6c00aff25ae5fb85ba19",
  "parentHash": "0x906d20da71a599ecff4c0994f7e920f858ddac808ce36aaf396a8c6bd6e669de",
  "number": 76246,
  "timestamp": 1439417218,
  "nonce": "0xd17191c12f6ae0c4",
  "difficulty": 2234119620659,
  "gasLimit": {
    "_hex": "0x2fefd8"
  },
  "gasUsed": {
    "_hex": "0xf618"
  },
  "miner": "0x108b54b7E3c09F8127CB8B28ffA3AD4001b32998",
  "extraData": "0x476574682f76312e302e312d38326566323666362f6c696e75782f676f312e34",
  "transactions": [
    {
      "hash": "0xce4953e173bac40626990fe58f7ba239f1bbd60277b479af3892ff10f1401f7a",
      "blockHash": "0x47cb08d1e6d08ef9049edbd9f8cfaeff1edee4b0815a6c00aff25ae5fb85ba19",
      "blockNumber": 76246,
      "transactionIndex": 0,
      "confirmations": null,
      "from": "0x32Be343B94f860124dC4fEe278FDCBD38C102D88",
      "gasPrice": {
        "_hex": "0xd351b9f6c"
      },
      "gasLimit": {
        "_hex": "0x5208"
      },
      "to": "0xd1ffCb1A4275d5CCe20e0591d8b22507dBFa31fc",
      "value": {
        "_hex": "0xdbd2fc137a30000"
      },
      "nonce": 349,
      "data": "0x",
      "r": "0xf59db35259023f5690612d40ba08a584f3397a93cb0b2da85f365d880a7dc9b4",
      "s": "0x5d6b14cf982b429918e47a1e095db8efdbb5863dc2bab23b0d9ca8dd6956512d",
      "v": 27,
      "creates": null,
      "raw": "0xf86e82015d850d351b9f6c82520894d1ffcb1a4275d5cce20e0591d8b22507dbfa31fc880dbd2fc137a30000801ba0f59db35259023f5690612d40ba08a584f3397a93cb0b2da85f365d880a7dc9b4a05d6b14cf982b429918e47a1e095db8efdbb5863dc2bab23b0d9ca8dd6956512d",
      "networkId": 0,
      "chainId": 0
    },
    {
      "hash": "0xec943c744494e8432d0f9ec6eda0cfbc5ffc26ac57037ecac2b378aa86208de8",
      "blockHash": "0x47cb08d1e6d08ef9049edbd9f8cfaeff1edee4b0815a6c00aff25ae5fb85ba19",
      "blockNumber": 76246,
      "transactionIndex": 1,
      "confirmations": null,
      "from": "0x08B27b7407ab554c610aD305dc67a686A3D6B3F7",
      "gasPrice": {
        "_hex": "0xd351b9f6c"
      },
      "gasLimit": {
        "_hex": "0x5208"
      },
      "to": "0x32Be343B94f860124dC4fEe278FDCBD38C102D88",
      "value": {
        "_hex": "0x376cdbe838a4b000"
      },
      "nonce": 0,
      "data": "0x",
      "r": "0xd3185b5d5e10b9ff8f0c4efb57e823c6994f65604c2ccce8f955d613ce369935",
      "s": "0x694f5e0ec1aa5d0b7e7456e91f4b8e7bdc12b876835fb1bd30314ea15f93507a",
      "v": 27,
      "creates": null,
      "raw": "0xf86c80850d351b9f6c8252089432be343b94f860124dc4fee278fdcbd38c102d8888376cdbe838a4b000801ba0d3185b5d5e10b9ff8f0c4efb57e823c6994f65604c2ccce8f955d613ce369935a0694f5e0ec1aa5d0b7e7456e91f4b8e7bdc12b876835fb1bd30314ea15f93507a",
      "networkId": 0,
      "chainId": 0
    },
    {
      "hash": "0x703410581faf7df4d4460a2ed09f07430509cb035a0c0155c5614834af54e0b4",
      "blockHash": "0x47cb08d1e6d08ef9049edbd9f8cfaeff1edee4b0815a6c00aff25ae5fb85ba19",
      "blockNumber": 76246,
      "transactionIndex": 2,
      "confirmations": null,
      "from": "0x923e58c2298906639eA9077D5100b4d9cdA7950e",
      "gasPrice": {
        "_hex": "0xd351b9f6c"
      },
      "gasLimit": {
        "_hex": "0x5208"
      },
      "to": "0x32Be343B94f860124dC4fEe278FDCBD38C102D88",
      "value": {
        "_hex": "0x3627e4b09f21e60000"
      },
      "nonce": 1,
      "data": "0x",
      "r": "0x85291b37e5b403d0dbf01cf84335f10dd49a7963aa518ed86502d77ed3f0ae2c",
      "s": "0x1e2e81b55669d28e1197f1e4f798873215a1668e3b24db62699b600adf245a2e",
      "v": 28,
      "creates": null,
      "raw": "0xf86d01850d351b9f6c8252089432be343b94f860124dc4fee278fdcbd38c102d88893627e4b09f21e60000801ca085291b37e5b403d0dbf01cf84335f10dd49a7963aa518ed86502d77ed3f0ae2ca01e2e81b55669d28e1197f1e4f798873215a1668e3b24db62699b600adf245a2e",
      "networkId": 0,
      "chainId": 0
    }
  ]
}