{
  "hash": "0x37ec821ffed15e5ba89a83f26707091a90e4bd8ebf6fab78f91a5680459f2a07",
  "parentHash": "0x78f6bab53f22afcac7051382c9cc4c9d53eafdd895941bcd28f0faac4f6a5829",
  "number": 100720,
  "timestamp": 1439811267,
  "nonce": "0x831d813763269a3e",
  "difficulty": 3837707072603,
  "gasLimit": {
    "_hex": "0x2fefd8"
  },
  "gasUsed": {
    "_hex": "0x5208"
  },
  "miner": "0xC978e305Aaa59952FAb39Ba288d6E9CB09B952E1",
  "extraData": "0x476574682f76312e302e312f77696e646f77732f676f312e342e32",
  "transactions": [
    {
      "hash": "0xc4aef39d45e05c4523c590ded95b7ddedd8d78f2f3a6218cf49d1c6accb13053",
      "blockHash": "0x37ec821ffed15e5ba89a83f26707091a90e4bd8ebf6fab78f91a5680459f2a07",
      "blockNumber": 100720,
      "transactionIndex": 0,
      "confirmations": null,
      "from": "0x7884D470204862a0d1A21122F41ee77430396Ee5",
      "gasPrice": {
        "_hex": "0xcd2ae9e34"
      },
      "gasLimit": {
        "_hex": "0x15f90"
      },
      "to": "0xd94315Ab1afbEc118d3a72BD890af6987B95E320",
      "value": {
        "_hex": "0x186cc6acd4b0000"
      },
      "nonce": 68,
      "data": "0x",
      "r": "0x0911e15164bb6960b8699636dda6819fa7f286670a137ec395bc08d22792f2dc",
      "s": "0x0ffe3bfe5e7e0d193504cba28d4ea77f20d049b3c7b6aa2b97f7c4f0037218e3",
      "v": 27,
      "creates": null,
      "raw": "0xf86d44850cd2ae9e3483015f9094d94315ab1afbec118d3a72bd890af6987b95e320880186cc6acd4b0000801ba00911e15164bb6960b8699636dda6819fa7f286670a137ec395bc08d22792f2dca00ffe3bfe5e7e0d193504cba28d4ea77f20d049b3c7b6aa2b97f7c4f0037218e3",
      "networkId": 0,
      "chainId": 0
    }
  ]
}