{
  "hash": "0x9c302480e4f389b34d40d4fd170510d78556825fd73d776a79fd89b2048289ec",
  "parentHash": "0x31bce125a6574c7feba88dc60a94c394553cf86a0e522c9b8c983627629a0cbb",
  "number": 65144,
  "timestamp": 1439232051,
  "nonce": "0x79d2abdc52f7ca4e",
  "difficulty": 1932252304847,
  "gasLimit": {
    "_hex": "0x2fefd5"
  },
  "gasUsed": {
    "_hex": "0x17cd8"
  },
  "miner": "0xA1623430350C5df1b52B0b57483A5bb45d1796Da",
  "extraData": "0x476574682f76312e302e312d38326566323666362f6c696e75782f676f312e34",
  "transactions": [
    {
      "hash": "0x47d056bd26e73a1f969f748cc2e19d41e760f4baabdb6f1d0f63252310648748",
      "blockHash": "0x9c302480e4f389b34d40d4fd170510d78556825fd73d776a79fd89b2048289ec",
      "blockNumber": 65144,
      "transactionIndex": 0,
      "confirmations": null,
      "from": "0x105cA1EC80eDFCA8A62FcCaA76B399eE3C1B3702",
      "gasPrice": {
        "_hex": "0xba43b7400"
      },
      "gasLimit": {
        "_hex": "0x15f90"
      },
      "to": "0x793AE8C1b1a160BFc07BFB0d04F85eab1A71F4f2",
      "value": {
        "_hex": "0x0"
      },
      "nonce": 0,
      "data": "0x3ba15036",
      "r": "0x5c0d43f222910b2b5588dcca8c17b791457b0217ab253e39aeb79ba747ae3f9e",
      "s": "0x15c93257cc693451917ca322089eb47780de6aeb43282bf1b1e2f21d580306b8",
      "v": 27,
      "creates": null,
      "raw": "0xf86980850ba43b740083015f9094793ae8c1b1a160bfc07bfb0d04f85eab1a71f4f280843ba150361ba05c0d43f222910b2b5588dcca8c17b791457b0217ab253e39aeb79ba747ae3f9ea015c93257cc693451917ca322089eb47780de6aeb43282bf1b1e2f21d580306b8",
      "networkId": 0,
      "chainId": 0
    },
    {
      "hash": "0xb48a04196996f4faadb1ce53becffafed6d86a4b42c8995994b5120f803d82f1",
      "blockHash": "0x9c302480e4f389b34d40d4fd170510d78556825fd73d776a79fd89b2048289ec",
      "blockNumber": 65144,
      "transactionIndex": 1,
      "confirmations": null,
      "from": "0xd84B0329606556B845a1ABb0d7910082c4ee2f64",
      "gasPrice": {
        "_hex": "0xba43b7400"
      },
      "gasLimit": {
        "_hex": "0x15f90"
      },
      "to": "0x793AE8C1b1a160BFc07BFB0d04F85eab1A71F4f2",
      "value": {
        "_hex": "0x0"
      },
      "nonce": 0,
      "data": "0x3ba15036",
      "r": "0x227c1217f61bb284ecbd0a4744423c82c9e2e5615096116bea3ebb92a38e44d5",
      "s": "0x5ee39a10784d61c7ae952e141f91481b1554086174a5e9159a837139ba085363",
      "v": 27,
      "creates": null,
      "raw": "0xf86980850ba43b740083015f9094793ae8c1b1a160bfc07bfb0d04f85eab1a71f4f280843ba150361ba0227c1217f61bb284ecbd0a4744423c82c9e2e5615096116bea3ebb92a38e44d5a05ee39a10784d61c7ae952e141f91481b1554086174a5e9159a837139ba085363",
      "networkId": 0,
      "chainId": 0
    }
  ]
}