{
  "hash": "0x8c68b0b94fe589f0d8ac4e28b118f06a856cfb5a565fed89fbad26f1e4014b0c",
  "parentHash": "0x00d007bd145865c538c12fa3654f8fa9b7d348407876beca4af27666bd228e3a",
  "number": 105703,
  "timestamp": 1439892222,
  "nonce": "0x06e925743684ac99",
  "difficulty": 4386617400017,
  "gasLimit": {
    "_hex": "0x2fefd8"
  },
  "gasUsed": {
    "_hex": "0x5208"
  },
  "miner": "0xe6A7a1d47ff21B6321162AEA7C6CB457D5476Bca",
  "extraData": "0x476574682f76312e302e312d38326566323666362f6c696e75782f676f312e34",
  "transactions": [
    {
      "hash": "0x0ce1ad83d111f7cf63f69f4c7700fc27e207dfd523c53307ce3ff86c2315d3c8",
      "blockHash": "0x8c68b0b94fe589f0d8ac4e28b118f06a856cfb5a565fed89fbad26f1e4014b0c",
      "blockNumber": 105703,
      "transactionIndex": 0,
      "confirmations": null,
      "from": "0xEa5b801969342B44467C9dE87fEfE2C1dB740bd4",
      "gasPrice": {
        "_hex": "0x10ac4b62237"
      },
      "gasLimit": {
        "_hex": "0x15f90"
      },
      "to": "0x211D45933Ef88c3D7aD0120942CF50ab506e618F",
      "value": {
        "_hex": "0xde0b6b3a76400000"
      },
      "nonce": 5,
      "data": "0x",
      "r": "0x8cb9b4c63c32d2f356d5ac8528e1e49fc6c9c8b8573e86fac65856699999b5f5",
      "s": "0x6a51aa4eedfd7b1d9157b45fe00b6aef2f533b6344e2558f3cad5350d994fa86",
      "v": 28,
      "creates": null,
      "raw": "0xf86e0586010ac4b6223783015f9094211d45933ef88c3d7ad0120942cf50ab506e618f88de0b6b3a76400000801ca08cb9b4c63c32d2f356d5ac8528e1e49fc6c9c8b8573e86fac65856699999b5f5a06a51aa4eedfd7b1d9157b45fe00b6aef2f533b6344e2558f3cad5350d994fa86",
      "networkId": 0,
      "chainId": 0
    }
  ]
}