{
  "hash": "0x35974910a068b1a57c7893c4b4fbec3a93c141b76c712706fdd4d94fe09c71ce",
  "parentHash": "0x22e6da011ec7984605592e4d50008f8c0921e20a6ad7342e2151d83816c2461d",
  "number": 64300,
  "timestamp": 1439218544,
  "nonce": "0xb0df7710c1d940f1",
  "difficulty": 1874821570698,
  "gasLimit": {
    "_hex": "0x2fe3fb"
  },
  "gasUsed": {
    "_hex": "0x54c8"
  },
  "miner": "0xf927a40C8B7F6E07c5af7FA2155B4864a4112B13",
  "extraData": "0x",
  "transactions": [
    {
      "hash": "0xcd4af67208b20d27f9520b022161b3c2ebea229f46f2cf140f1ab38137079827",
      "blockHash": "0x35974910a068b1a57c7893c4b4fbec3a93c141b76c712706fdd4d94fe09c71ce",
      "blockNumber": 64300,
      "transactionIndex": 0,
      "confirmations": null,
      "from": "0x4BD5f0Ee173C81d42765154865EE69361b6aD189",
      "gasPrice": {
        "_hex": "0x746a528800"
      },
      "gasLimit": {
        "_hex": "0x5dc4"
      },
      "to": "0x2910543Af39abA0Cd09dBb2D50200b3E800A63D2",
      "value": {
        "_hex": "0x4563918244f40000"
      },
      "nonce": 7,
      "data": "0x0000000000000000000000000000000000000000000000454e465631595a3552",
      "r": "0x734616b5e9fd8d52c59f693e51785de82c66008527328b364ed3a18adbd61c6a",
      "s": "0x3e00bc6566e02dab34b345fd77dcc4fcb00bfd6834c44d04f7570cfbdaeee9b6",
      "v": 28,
      "creates": null,
      "raw": "0xf88c0785746a528800825dc4942910543af39aba0cd09dbb2d50200b3e800a63d2884563918244f40000a00000000000000000000000000000000000000000000000454e465631595a35521ca0734616b5e9fd8d52c59f693e51785de82c66008527328b364ed3a18adbd61c6aa03e00bc6566e02dab34b345fd77dcc4fcb00bfd6834c44d04f7570cfbdaeee9b6",
      "networkId": 0,
      "chainId": 0
    }
  ]
}