{
  "hash": "0x4b734f01abbf1bb83abb9a212e1e4b23d3bca9f5bc3366eea88a5fee0a552a06",
  "parentHash": "0xa19b282ed1bc5b37823a2da34653e8f38c9840a1f00f9dec6aed50be51389c15",
  "number": 100909,
  "timestamp": 1439814361,
  "nonce": "0xdad64a53c4d2879a",
  "difficulty": 3865831367706,
  "gasLimit": {
    "_hex": "0x2fefd8"
  },
  "gasUsed": {
    "_hex": "0x5208"
  },
  "miner": "0xf927a40C8B7F6E07c5af7FA2155B4864a4112B13",
  "extraData": "0x",
  "transactions": [
    {
      "hash": "0xc826297f19d8f8cd2aacda8b16a28731e483d78ef3bfb739d975f35724685eda",
      "blockHash": "0x4b734f01abbf1bb83abb9a212e1e4b23d3bca9f5bc3366eea88a5fee0a552a06",
      "blockNumber": 100909,
      "transactionIndex": 0,
      "confirmations": null,
      "from": "0xB0bF4A71F730782368Ef660FE6D298F432F95450",
      "gasPrice": {
        "_hex": "0xdee48a784"
      },
      "gasLimit": {
        "_hex": "0x5208"
      },
      "to": "0x32Be343B94f860124dC4fEe278FDCBD38C102D88",
      "value": {
        "_hex": "0xad78a4597ba0f0000"
      },
      "nonce": 29,
      "data": "0x",
      "r": "0xfcbc293dcd13da9ca4e346e4b66f5feda24d214be9fa7cd4114ae7c181686cd3",
      "s": "0x0d60d0d10c4258d355f1b4ac6f21188d7efe49faffaf43bcf2f60df2a8f3cfac",
      "v": 28,
      "creates": null,
      "raw": "0xf86d1d850dee48a7848252089432be343b94f860124dc4fee278fdcbd38c102d88890ad78a4597ba0f0000801ca0fcbc293dcd13da9ca4e346e4b66f5feda24d214be9fa7cd4114ae7c181686cd3a00d60d0d10c4258d355f1b4ac6f21188d7efe49faffaf43bcf2f60df2a8f3cfac",
      "networkId": 0,
      "chainId": 0
    }
  ]
}