{
  "hash": "0xbbc750e37538698e92fc68b73122312976a826256f6d35fac00ed1304fcd84dd",
  "parentHash": "0x246424c9762e63e15c869899357716b6957a0536455a936bf3ba788bbaf3e11d",
  "number": 100920,
  "timestamp": 1439814582,
  "nonce": "0x5f46e998a8b21e4d",
  "difficulty": 3856399756892,
  "gasLimit": {
    "_hex": "0x2fefd5"
  },
  "gasUsed": {
    "_hex": "0xa674"
  },
  "miner": "0xe6A7a1d47ff21B6321162AEA7C6CB457D5476Bca",
  "extraData": "0x476574682f76312e302e312d38326566323666362f6c696e75782f676f312e34",
  "transactions": [
    {
      "hash": "0xb04f5da2701b516304ff312beba6239a345b4e9eacfccf32580e7adb360f03ef",
      "blockHash": "0xbbc750e37538698e92fc68b73122312976a826256f6d35fac00ed1304fcd84dd",
      "blockNumber": 100920,
      "transactionIndex": 0,
      "confirmations": null,
      "from": "0x3B4100e30a73b0C734B18Ffa8426d19B19312F1A",
      "gasPrice": {
        "_hex": "0x110c8f7d8de"
      },
      "gasLimit": {
        "_hex": "0xc350"
      },
      "to": "0x2910543Af39abA0Cd09dBb2D50200b3E800A63D2",
      "value": {
        "_hex": "0x10f11cbd802a0830000"
      },
      "nonce": 3,
      "data": "0x454e52453546394e38",
      "r": "0x709edbd6dd55f70af469355083848fabd912c9fd2833327948cb87e2b72107fa",
      "s": "0x162307e00cb4670f8182791ce94827af4a9f1aedb7e0bc950a8c55d7a6d9c207",
      "v": 27,
      "creates": null,
      "raw": "0xf87803860110c8f7d8de82c350942910543af39aba0cd09dbb2d50200b3e800a63d28a010f11cbd802a083000089454e52453546394e381ba0709edbd6dd55f70af469355083848fabd912c9fd2833327948cb87e2b72107faa0162307e00cb4670f8182791ce94827af4a9f1aedb7e0bc950a8c55d7a6d9c207",
      "networkId": 0,
      "chainId": 0
    },
    {
      "hash": "0xf0dc119d31ef5b83b3c1cb6f0d1a955c116e66bf677fac414b3817978625183f",
      "blockHash": "0xbbc750e37538698e92fc68b73122312976a826256f6d35fac00ed1304fcd84dd",
      "blockNumber": 100920,
      "transactionIndex": 1,
      "confirmations": null,
      "from": "0x2910543Af39abA0Cd09dBb2D50200b3E800A63D2",
      "gasPrice": {
        "_hex": "0xda797c7b3"
      },
      "gasLimit": {
        "_hex": "0x5208"
      },
      "to": "0xa645B1DF84b4B5d3B420137e2023127E71bb8DC2",
      "value": {
        "_hex": "0x11ff5b2d83ddcf8000"
      },
      "nonce": 957,
      "data": "0x",
      "r": "0x7e3cb68967d0e0bd59375d1e67755dcc3693325ba668913d0a2fd66edd68a810",
      "s": "0x390a4d2ff3405652547bb96555993a4beec1b3f6322c8efba40879b66601bc45",
      "v": 27,
      "creates": null,
      "raw": "0xf86f8203bd850da797c7b382520894a645b1df84b4b5d3b420137e2023127e71bb8dc28911ff5b2d83ddcf8000801ba07e3cb68967d0e0bd59375d1e67755dcc3693325ba668913d0a2fd66edd68a810a0390a4d2ff3405652547bb96555993a4beec1b3f6322c8efba40879b66601bc45",
      "networkId": 0,
      "chainId": 0
    }
  ]
}