{
  "hash": "0xdd6c6803a8c48009d4e18453653c688888c1ed3f49b73e6f4dd532c4ab87daeb",
  "parentHash": "0x19fce4f11549a5982679e1b04f2d4d51d06ca494e47c5092533eb4b7d3e32091",
  "number": 112433,
  "timestamp": 1440007401,
  "nonce": "0xa571870e01de16f8",
  "difficulty": 4408857135938,
  "gasLimit": {
    "_hex": "0x2fefd8"
  },
  "gasUsed": {
    "_hex": "0x5208"
  },
  "miner": "0xe6A7a1d47ff21B6321162AEA7C6CB457D5476Bca",
  "extraData": "0x476574682f76312e302e312d38326566323666362f6c696e75782f676f312e34",
  "transactions": [
    {
      "hash": "0x4766aa1b568262d735597f634235e21d58d9e0e8d801f100288c2fa7c12d1d04",
      "blockHash": "0xdd6c6803a8c48009d4e18453653c688888c1ed3f49b73e6f4dd532c4ab87daeb",
      "blockNumber": 112433,
      "transactionIndex": 0,
      "confirmations": null,
      "from": "0x2910543Af39abA0Cd09dBb2D50200b3E800A63D2",
      "gasPrice": {
        "_hex": "0xd726535fd"
      },
      "gasLimit": {
        "_hex": "0x5208"
      },
      "to": "0x3661DBe9bd90565ca9100771bF1E91690f99C6c5",
      "value": {
        "_hex": "0xdcef33a6f838000"
      },
      "nonce": 1106,
      "data": "0x",
      "r": "0x2411e96c3996bdc2aa9b7767d891e616bb8b63b7519314a06ad467a8ef515c91",
      "s": "0x2d7ccfc77575f33bb940dc710fbcc9e8ee2e548e8940060f1fc38e4dc85505ef",
      "v": 28,
      "creates": null,
      "raw": "0xf86e820452850d726535fd825208943661dbe9bd90565ca9100771bf1e91690f99c6c5880dcef33a6f838000801ca02411e96c3996bdc2aa9b7767d891e616bb8b63b7519314a06ad467a8ef515c91a02d7ccfc77575f33bb940dc710fbcc9e8ee2e548e8940060f1fc38e4dc85505ef",
      "networkId": 0,
      "chainId": 0
    }
  ]
}