{
  "hash": "0xc27fe3a9dba03982203b647ee9e083bf54f768bf388e94a5f4876032d5cf60b6",
  "parentHash": "0x7af11824a719d01fd4ace2e0321cbbf73c53c08ae403f05cc726f9bfbb3a637c",
  "number": 94698,
  "timestamp": 1439712609,
  "nonce": "0xd30e16252851084a",
  "difficulty": 3486551905077,
  "gasLimit": {
    "_hex": "0x2fefd8"
  },
  "gasUsed": {
    "_hex": "0xf618"
  },
  "miner": "0xe6A7a1d47ff21B6321162AEA7C6CB457D5476Bca",
  "extraData": "0x476574682f76312e302e312d38326566323666362f6c696e75782f676f312e34",
  "transactions": [
    {
      "hash": "0xe7aed2874502a8bc2f1cede72fe4c7c129f9660190fc909becafd3aea4f9a7cc",
      "blockHash": "0xc27fe3a9dba03982203b647ee9e083bf54f768bf388e94a5f4876032d5cf60b6",
      "blockNumber": 94698,
      "transactionIndex": 0,
      "confirmations": null,
      "from": "0x0D81FD2bB264D9Ee0F432599b443ae1B691f6134",
      "gasPrice": {
        "_hex": "0xd7addb825"
      },
      "gasLimit": {
        "_hex": "0x5208"
      },
      "to": "0x32Be343B94f860124dC4fEe278FDCBD38C102D88",
      "value": {
        "_hex": "0xba8ff5ea71865000"
      },
      "nonce": 5,
      "data": "0x",
      "r": "0x0056e2f00ff09beda768bd326bdaa8598554527b7db2bf0e292b3166bfed4a74",
      "s": "0x6639530841bf7853106a2bef781938fd9044967165f75808a0d7892dfa7c0ad9",
      "v": 27,
      "creates": null,
      "raw": "0xf86b05850d7addb8258252089432be343b94f860124dc4fee278fdcbd38c102d8888ba8ff5ea71865000801b9f56e2f00ff09beda768bd326bdaa8598554527b7db2bf0e292b3166bfed4a74a06639530841bf7853106a2bef781938fd9044967165f75808a0d7892dfa7c0ad9",
      "networkId": 0,
      "chainId": 0
    },
    {
      "hash": "0xdfeff96fea1749cfefebfc418eaaeba27e4a986c1fa6bb1aa0cb7d3121b96ca2",
      "blockHash": "0xc27fe3a9dba03982203b647ee9e083bf54f768bf388e94a5f4876032d5cf60b6",
      "blockNumber": 94698,
      "transactionIndex": 1,
      "confirmations": null,
      "from": "0x8c0A6b62918D317e3B431EfB67E3fB5eff333b1c",
      "gasPrice": {
        "_hex": "0xba43b7400"
      },
      "gasLimit": {
        "_hex": "0x5208"
      },
      "to": "0xC47Aaa860008be6f65B58c6C6E02a84e666EfE31",
      "value": {
        "_hex": "0x63bcad0c995276000"
      },
      "nonce": 4,
      "data": "0x",
      "r": "0x5ecf98c1a6c1dcee9c1e5c5467821fc6e7c70ecb082b3179650bedf3885827db",
      "s": "0x22b4357ff4aa8e5e40ca3ff8731f4839b5bc3e3d1e1d8a8aad964e94fc5bf3e6",
      "v": 28,
      "creates": null,
      "raw": "0xf86d04850ba43b740082520894c47aaa860008be6f65b58c6c6e02a84e666efe3189063bcad0c995276000801ca05ecf98c1a6c1dcee9c1e5c5467821fc6e7c70ecb082b3179650bedf3885827dba022b4357ff4aa8e5e40ca3ff8731f4839b5bc3e3d1e1d8a8aad964e94fc5bf3e6",
      "networkId": 0,
      "chainId": 0
    },
    {
      "hash": "0x2b60c9db411b23c43e77da7f8e13226f93b05c152a377c0f80f02a3db52e5aee",
      "blockHash": "0xc27fe3a9dba03982203b647ee9e083bf54f768bf388e94a5f4876032d5cf60b6",
      "blockNumber": 94698,
      "transactionIndex": 2,
      "confirmations": null,
      "from": "0x25eBf917822b09e0DC9ECaFF159b0832f080bEB8",
      "gasPrice": {
        "_hex": "0xba43b7400"
      },
      "gasLimit": {
        "_hex": "0x5208"
      },
      "to": "0xC47Aaa860008be6f65B58c6C6E02a84e666EfE31",
      "value": {
        "_hex": "0xddcfbbb7a606000"
      },
      "nonce": 0,
      "data": "0x",
      "r": "0x87534602528a3a4f78f520608e1b5fdf4a26935b9650af0f5635579c478b6d75",
      "s": "0x53a1b1f5a9dd6f52d416e53c5eba61801ffc0fcb5061d2e3c6fb912cb55dab20",
      "v": 28,
      "creates": null,
      "raw": "0xf86c80850ba43b740082520894c47aaa860008be6f65b58c6c6e02a84e666efe31880ddcfbbb7a606000801ca087534602528a3a4f78f520608e1b5fdf4a26935b9650af0f5635579c478b6d75a053a1b1f5a9dd6f52d416e53c5eba61801ffc0fcb5061d2e3c6fb912cb55dab20",
      "networkId": 0,
      "chainId": 0
    }
  ]
}