{
  "hash": "0x13cd59ab146981aa67525bae084f184b73b4d7275559121555ed3fb774b02eb0",
  "parentHash": "0x2b64937900f673c966382155d07d3bb2ac5e86421fad93754a553841199feb14",
  "number": 118717,
  "timestamp": 1440130307,
  "nonce": "0xfa6b45a376839276",
  "difficulty": 4371271339378,
  "gasLimit": {
    "_hex": "0x2fefd8"
  },
  "gasUsed": {
    "_hex": "0x5208"
  },
  "miner": "0x458F183347F45a4001807728A89F31E9Da9D4A58",
  "extraData": "0x",
  "transactions": [
    {
      "hash": "0x2ac71d02f94d7970695704d727ebff5b0a1b9eefb260b040796f01e153fae552",
      "blockHash": "0x13cd59ab146981aa67525bae084f184b73b4d7275559121555ed3fb774b02eb0",
      "blockNumber": 118717,
      "transactionIndex": 0,
      "confirmations": null,
      "from": "0xF758C90adCc57e539E0fdB5C470598dC84e06c92",
      "gasPrice": {
        "_hex": "0xba43b7400"
      },
      "gasLimit": {
        "_hex": "0x5208"
      },
      "to": "0xd61e8d6345FA6493CbA4F086aa8Ad66fbEADFF42",
      "value": {
        "_hex": "0x2707c629c3f906000"
      },
      "nonce": 1,
      "data": "0x",
      "r": "0x6e5774c891b37a834bd8f501c188bfaa4129aa05106fdd9966b0c04c9a0b0703",
      "s": "0x3c526ed048144fc85bf3d378cb52a693ff3c95755121956de561b971f03eff4f",
      "v": 27,
      "creates": null,
      "raw": "0xf86d01850ba43b740082520894d61e8d6345fa6493cba4f086aa8ad66fbeadff428902707c629c3f906000801ba06e5774c891b37a834bd8f501c188bfaa4129aa05106fdd9966b0c04c9a0b0703a03c526ed048144fc85bf3d378cb52a693ff3c95755121956de561b971f03eff4f",
      "networkId": 0,
      "chainId": 0
    }
  ]
}