{
  "hash": "0xadc20fc77e13c5edb016e457440d492b0c2fd18ced0bf60ac878c9f55c5e9ef2",
  "parentHash": "0xa9d74d5dd48ac62d8c82cbd18317c829aefc021062a80f213009f858a9307bc0",
  "number": 83330,
  "timestamp": 1439533735,
  "nonce": "0x5753cfae94b599bb",
  "difficulty": 2418338894679,
  "gasLimit": {
    "_hex": "0x2fefd8"
  },
  "gasUsed": {
    "_hex": "0x8bee"
  },
  "miner": "0x9D49F602b0fdb924Bd63DDE2Bd0907E4A07c63a7",
  "extraData": "0x476574682f76312e302e312f6c696e75782f676f312e342e32",
  "transactions": [
    {
      "hash": "0xa94376d7a1886adf3d6f178a39104bd8a276fdab016d278984102d9eeed1be6d",
      "blockHash": "0xadc20fc77e13c5edb016e457440d492b0c2fd18ced0bf60ac878c9f55c5e9ef2",
      "blockNumber": 83330,
      "transactionIndex": 0,
      "confirmations": null,
      "from": "0xFBb1b73C4f0BDa4f67dcA266ce6Ef42f520fBB98",
      "gasPrice": {
        "_hex": "0xda09a21f0"
      },
      "gasLimit": {
        "_hex": "0x15f90"
      },
      "to": "0xCAc7000C7dBaa2E33Af15325AF5D435E011C7BdD",
      "value": {
        "_hex": "0x0"
      },
      "nonce": 31,
      "data": "0x6042a7604249545452455830300000000000000000000000000000000000000000000000000000000000000000000000cac7000c7dbaa2e33af15325af5d435e011c7bdd4a4d34544c4f4a333600000000000000000000000000000000000000000000000000000000000000000000000000000000000000000000000de0b6b3a7640000",
      "r": "0xde60d34095cb23303228a5d8056235d20f61056840dd12f8d0987e12d5d001aa",
      "s": "0x25da0fa140cdacdec089a426318294cb944ca5443be0bf383c221f01d1214c78",
      "v": 27,
      "creates": null,
      "raw": "0xf8ea1f850da09a21f083015f9094cac7000c7dbaa2e33af15325af5d435e011c7bdd80b8846042a7604249545452455830300000000000000000000000000000000000000000000000000000000000000000000000cac7000c7dbaa2e33af15325af5d435e011c7bdd4a4d34544c4f4a333600000000000000000000000000000000000000000000000000000000000000000000000000000000000000000000000de0b6b3a76400001ba0de60d34095cb23303228a5d8056235d20f61056840dd12f8d0987e12d5d001aaa025da0fa140cdacdec089a426318294cb944ca5443be0bf383c221f01d1214c78",
      "networkId": 0,
      "chainId": 0
    }
  ]
}