{
  "hash": "0xc1234f3faa54eb4de16a3ba1b82bfdfc2210a6f0f4a87bce7bd54f594a7d7be8",
  "parentHash": "0xe923b4f32c9abf39bab65e06c61dc25fbd2ee187923962fad3b5a65d44a8dea8",
  "number": 116482,
  "timestamp": 1440075005,
  "nonce": "0x2172811f774f1239",
  "difficulty": 4557727907600,
  "gasLimit": {
    "_hex": "0x2fefd8"
  },
  "gasUsed": {
    "_hex": "0xa410"
  },
  "miner": "0x790b8a3cE86E707ED0eD32bF89B3269692a23CC1",
  "extraData": "0xd783010001844765746887676f312e342e32856c696e7578",
  "transactions": [
    {
      "hash": "0x1962bd18daf7f1308e5886124dd3dedc6bb71c015875b5a37fd0a3f513cdcc74",
      "blockHash": "0xc1234f3faa54eb4de16a3ba1b82bfdfc2210a6f0f4a87bce7bd54f594a7d7be8",
      "blockNumber": 116482,
      "transactionIndex": 0,
      "confirmations": null,
      "from": "0x02020D22dCF88f5eDd66B382D7da019F161fB7e3",
      "gasPrice": {
        "_hex": "0xcd59da81f"
      },
      "gasLimit": {
        "_hex": "0x15f90"
      },
      "to": "0xCDA330c8160f0c90B8B528C6Db267acc17381818",
      "value": {
        "_hex": "0x2d1a51c7e005000000"
      },
      "nonce": 42,
      "data": "0x",
      "r": "0xd4e1414fba65a83c072b4424f97c18ee836d4f7a591a2bb414882a6e2fa806f8",
      "s": "0x45976f1f17b07e713ab51a00f5a1114033d71b3586e35e3ca745cb6e0b6674b5",
      "v": 28,
      "creates": null,
      "raw": "0xf86e2a850cd59da81f83015f9094cda330c8160f0c90b8b528c6db267acc17381818892d1a51c7e005000000801ca0d4e1414fba65a83c072b4424f97c18ee836d4f7a591a2bb414882a6e2fa806f8a045976f1f17b07e713ab51a00f5a1114033d71b3586e35e3ca745cb6e0b6674b5",
      "networkId": 0,
      "chainId": 0
    },
    {
      "hash": "0x8fd675faa1c7f880b447ad61325f34ea27c86c6e41c57682d2480de77252a593",
      "blockHash": "0xc1234f3faa54eb4de16a3ba1b82bfdfc2210a6f0f4a87bce7bd54f594a7d7be8",
      "blockNumber": 116482,
      "transactionIndex": 1,
      "confirmations": null,
      "from": "0xcC26443fa886eca41C2c5aE022228246e376d352",
      "gasPrice": {
        "_hex": "0xba43b7400"
      },
      "gasLimit": {
        "_hex": "0x5208"
      },
      "to": "0xC47Aaa860008be6f65B58c6C6E02a84e666EfE31",
      "value": {
        "_hex": "0x1b0d0065371ae7ead0"
      },
      "nonce": 2,
      "data": "0x",
      "r": "0x1bc0561f01f1d4094c2669c7f41d86ebfc50522c30c3a8b80bb5e0790747770f",
      "s": "0x29ec315e3976cce17a59a1105ca55068d3f40f0d80b09ae3f74fc91b0725a2e2",
      "v": 28,
      "creates": null,
      "raw": "0xf86d02850ba43b740082520894c47aaa860008be6f65b58c6c6e02a84e666efe31891b0d0065371ae7ead0801ca01bc0561f01f1d4094c2669c7f41d86ebfc50522c30c3a8b80bb5e0790747770fa029ec315e3976cce17a59a1105ca55068d3f40f0d80b09ae3f74fc91b0725a2e2",
      "networkId": 0,
      "chainId": 0
    }
  ]
}