{
  "hash": "0x11b33511fef3df1da944424c51d14a0820edcaef656fa6e005c0d6d2b8cad480",
  "parentHash": "0x0232ee63cf74ebd8322bc545270c172dd8d748e588e8e2e77528b745147dd3b3",
  "number": 71234,
  "timestamp": 1439332904,
  "nonce": "0xf37e10012060ce75",
  "difficulty": 2141434578801,
  "gasLimit": {
    "_hex": "0x2fefd8"
  },
  "gasUsed": {
    "_hex": "0x784ec"
  },
  "miner": "0x9746c7e1ef2bd21FF3997fa467593a89cb852BD0",
  "extraData": "0x476574682f76312e302e312f77696e646f77732f676f312e342e32",
  "transactions": [
    {
      "hash": "0x13c66f20fb42bf11d9a7c111343b53e5623cd812c9ca73c789b8329ec2000b60",
      "blockHash": "0x11b33511fef3df1da944424c51d14a0820edcaef656fa6e005c0d6d2b8cad480",
      "blockNumber": 71234,
      "transactionIndex": 0,
      "confirmations": null,
      "from": "0x17580B766f7453525ca4C6A88b01b50570EA088C",
      "gasPrice": {
        "_hex": "0xdb7536454"
      },
      "gasLimit": {
        "_hex": "0x61a80"
      },
      "to": "0x5Fe5B7546D1628f7348B023A0393de1FC825A4fD",
      "value": {
        "_hex": "0xde0b6b3a7640000"
      },
      "nonce": 127,
      "data": "0xb595b8b50000000000000000000000000000000000000000000000000000000000000000",
      "r": "0x816ee0b7e1d9c35b6fa8a979ef3f22533ed747ae6649c6206b11775ef14cda52",
      "s": "0x17d520fe56f942b331cff2173cf9aab5af25443efa9ff0e009ed11e010092979",
      "v": 28,
      "creates": null,
      "raw": "0xf8917f850db753645483061a80945fe5b7546d1628f7348b023a0393de1fc825a4fd880de0b6b3a7640000a4b595b8b500000000000000000000000000000000000000000000000000000000000000001ca0816ee0b7e1d9c35b6fa8a979ef3f22533ed747ae6649c6206b11775ef14cda52a017d520fe56f942b331cff2173cf9aab5af25443efa9ff0e009ed11e010092979",
      "networkId": 0,
      "chainId": 0
    },
    {
      "hash": "0xd2ffdc71466718771def059d042ba80ae6ab33c5babe7e115eb230d4025f2def",
      "blockHash": "0x11b33511fef3df1da944424c51d14a0820edcaef656fa6e005c0d6d2b8cad480",
      "blockNumber": 71234,
      "transactionIndex": 1,
      "confirmations": null,
      "from": "0x132dDeF595eE2Bb0092F7484f2DCBCBfeE0DCB65",
      "gasPrice": {
        "_hex": "0xd5aed117e"
      },
      "gasLimit": {
        "_hex": "0x15f90"
      },
      "to": "0x6d921977dEFE5f4e0682CA512De1D07b1f4802E1",
      "value": {
        "_hex": "0x13fbe85edc90000"
      },
      "nonce": 4,
      "data": "0x",
      "r": "0x3f0a0c54161f1e77257187e7b07064fc21f001f361a3b374829c869c3ec43e32",
      "s": "0x3f115be6ad2d34b987c0f0dd6932a0a92d808eb20527ccc8a7e3ab67e6433cdb",
      "v": 28,
      "creates": null,
      "raw": "0xf86d04850d5aed117e83015f90946d921977defe5f4e0682ca512de1d07b1f4802e188013fbe85edc90000801ca03f0a0c54161f1e77257187e7b07064fc21f001f361a3b374829c869c3ec43e32a03f115be6ad2d34b987c0f0dd6932a0a92d808eb20527ccc8a7e3ab67e6433cdb",
      "networkId": 0,
      "chainId": 0
    },
    {
      "hash": "0x38e9b27b3e1cee25a034643f7bb3cfe8e28f1279093ca8f4f851b70b56d6f4e3",
      "blockHash": "0x11b33511fef3df1da944424c51d14a0820edcaef656fa6e005c0d6d2b8cad480",
      "blockNumber": 71234,
      "transactionIndex": 2,
      "confirmations": null,
      "from": "0xFD2605a2bF58fDbB90db1Da55dF61628B47F9e8c",
      "gasPrice": {
        "_hex": "0xcc7ba63cc"
      },
      "gasLimit": {
        "_hex": "0xf4240"
      },
      "to": null,
      "value": {
        "_hex": "0x0"
      },
      "nonce": 58,
      "data": "0x6060604052436000556105c4806100176000396000f300606060405236156100825760e060020a60003504632168129d811461008457806350b44712146100ab57806363bd1d4a146100df57806367dd74ca146100f2578063708ddf7b146101a15780637c1c1716146101aa578063806b984f146102a4578063a294958b146102ad578063b69ef8a8146102b8578063e0fe075e146102c1575b005b60408051600435815290519081900360200190205b60408051918252519081900360200190f35b6102e860043560048054829081101561000257506000526000805160206105a48339815191520154600160a060020a031681565b6102e8600060006000600061041b6102c5565b6100826004356028606a4306108015610112575067016345785d8a000034115b1561036857600160a060020a0333166000908152600660209081526040808320849055600790915281208054349081018255600180549091019055541415610368576003805460018101808355919082908015829011610305576000839052610305907fc2575a0e9e593c00f959f8c92f12db2869c3395a3b0502d05e2516446f71f85b908101908301610390565b61009960025481565b610082600435600160a060020a03331660009081526007602052604081205481148015906101db5750604c606a4306105b80156101ea5750602e606a4306115b156103c257600160a060020a03331660009081526006602090815260409182902054825185815292519283900390910190912014156103c25750600580548218905560028054600101905560005b600160a060020a03331660009081526007602052604090205467016345785d8a0000900463ffffffff821610156103a85760048054600181018083559190829080158290116103c65760008390526103c6906000805160206105a4833981519152908101908301610390565b61009960005481565b610099606a43065b90565b61009960015481565b6100995b6000604c606a43061180156102e1575060446000600050544303115b90506102b5565b60408051600160a060020a03929092168252519081900360200190f35b505060038054339350909150600019810190811015610002575080546000919091527fc2575a0e9e593c00f959f8c92f12db2869c3395a3b0502d05e2516446f71f85a01805473ffffffffffffffffffffffffffffffffffffffff191690911790555b50565b60048054600080835591909152610538906000805160206105a4833981519152908101905b808211156103a45760008155600101610390565b5090565b600160a060020a0333166000908152600760205260408120555b5050565b505060048054339350909150600019810190811015610002576000919091526000805160206105a483398151915201805473ffffffffffffffffffffffffffffffffffffffff19169091179055600101610238565b1561053d5760035460025414156105435760048054600554819006908110156100025760009182526001546040516000805160206105a48339815191529290920154600160a060020a031695508592916161a83a029091039082818181858883f150505050505b5043600090815560018190555b60035481101561036b57600380546006916000918490811015610002577fc2575a0e9e593c00f959f8c92f12db2869c3395a3b0502d05e2516446f71f85b0154600160a060020a03168252602092909252604081208190558154600792908490811015610002577fc2575a0e9e593c00f959f8c92f12db2869c3395a3b0502d05e2516446f71f85b0154600160a060020a0316825250602091909152604081205560010161048f565b508293505b50505090565b600091505b6004548110156104825760048054829081101561000257815460009283526001546040516000805160206105a483398151915290930154600160a060020a031693929190049082818181858883f1505050505060010161054856008a35acfbc15ff81a39ae7d344fd709f28e8600b4aa8c65c6b64bfe7fe36bd19b",
      "r": "0x4b4a8f3b03f5531c43e030712b18a337ea144d65bd1d61e1d4ae755b4c84ae40",
      "s": "0x59e80d6cd85835bd54205b35cd06e4722b8597f9cb66538b5a58c8aa448ef298",
      "v": 28,
      "creates": "0x1A23dF8AF55D1009Fc19108D48fAdCe1901fE672",
      "raw": "0xf9062e3a850cc7ba63cc830f42408080b905db6060604052436000556105c4806100176000396000f300606060405236156100825760e060020a60003504632168129d811461008457806350b44712146100ab57806363bd1d4a146100df57806367dd74ca146100f2578063708ddf7b146101a15780637c1c1716146101aa578063806b984f146102a4578063a294958b146102ad578063b69ef8a8146102b8578063e0fe075e146102c1575b005b60408051600435815290519081900360200190205b60408051918252519081900360200190f35b6102e860043560048054829081101561000257506000526000805160206105a48339815191520154600160a060020a031681565b6102e8600060006000600061041b6102c5565b6100826004356028606a4306108015610112575067016345785d8a000034115b1561036857600160a060020a0333166000908152600660209081526040808320849055600790915281208054349081018255600180549091019055541415610368576003805460018101808355919082908015829011610305576000839052610305907fc2575a0e9e593c00f959f8c92f12db2869c3395a3b0502d05e2516446f71f85b908101908301610390565b61009960025481565b610082600435600160a060020a03331660009081526007602052604081205481148015906101db5750604c606a4306105b80156101ea5750602e606a4306115b156103c257600160a060020a03331660009081526006602090815260409182902054825185815292519283900390910190912014156103c25750600580548218905560028054600101905560005b600160a060020a03331660009081526007602052604090205467016345785d8a0000900463ffffffff821610156103a85760048054600181018083559190829080158290116103c65760008390526103c6906000805160206105a4833981519152908101908301610390565b61009960005481565b610099606a43065b90565b61009960015481565b6100995b6000604c606a43061180156102e1575060446000600050544303115b90506102b5565b60408051600160a060020a03929092168252519081900360200190f35b505060038054339350909150600019810190811015610002575080546000919091527fc2575a0e9e593c00f959f8c92f12db2869c3395a3b0502d05e2516446f71f85a01805473ffffffffffffffffffffffffffffffffffffffff191690911790555b50565b60048054600080835591909152610538906000805160206105a4833981519152908101905b808211156103a45760008155600101610390565b5090565b600160a060020a0333166000908152600760205260408120555b5050565b505060048054339350909150600019810190811015610002576000919091526000805160206105a483398151915201805473ffffffffffffffffffffffffffffffffffffffff19169091179055600101610238565b1561053d5760035460025414156105435760048054600554819006908110156100025760009182526001546040516000805160206105a48339815191529290920154600160a060020a031695508592916161a83a029091039082818181858883f150505050505b5043600090815560018190555b60035481101561036b57600380546006916000918490811015610002577fc2575a0e9e593c00f959f8c92f12db2869c3395a3b0502d05e2516446f71f85b0154600160a060020a03168252602092909252604081208190558154600792908490811015610002577fc2575a0e9e593c00f959f8c92f12db2869c3395a3b0502d05e2516446f71f85b0154600160a060020a0316825250602091909152604081205560010161048f565b508293505b50505090565b600091505b6004548110156104825760048054829081101561000257815460009283526001546040516000805160206105a483398151915290930154600160a060020a031693929190049082818181858883f1505050505060010161054856008a35acfbc15ff81a39ae7d344fd709f28e8600b4aa8c65c6b64bfe7fe36bd19b1ca04b4a8f3b03f5531c43e030712b18a337ea144d65bd1d61e1d4ae755b4c84ae40a059e80d6cd85835bd54205b35cd06e4722b8597f9cb66538b5a58c8aa448ef298",
      "networkId": 0,
      "chainId": 0
    }
  ]
}