{
  "hash": "0xe5797e864e2fbe5a18cdfae1a4bafa99da5f08157f65bb876612fa192fc2211f",
  "parentHash": "0xa43a1c68f86fa0b08feb602b3f337c61353093bef11c9f418ede1ebb4a14d2ff",
  "number": 88836,
  "timestamp": 1439614355,
  "nonce": "0x8532f8bc0f9c3bec",
  "difficulty": 3229940178089,
  "gasLimit": {
    "_hex": "0x2fefd8"
  },
  "gasUsed": {
    "_hex": "0x5208"
  },
  "miner": "0xc15fa6D616245a5c7B7D75A6dFDcA10C0250BD2B",
  "extraData": "0x476574682f76312e302e312f77696e646f77732f676f312e342e32",
  "transactions": [
    {
      "hash": "0xe6bce16db5f046f575866bb4838d28ff5e68399b25e8cef39b462501f31bf310",
      "blockHash": "0xe5797e864e2fbe5a18cdfae1a4bafa99da5f08157f65bb876612fa192fc2211f",
      "blockNumber": 88836,
      "transactionIndex": 0,
      "confirmations": null,
      "from": "0x02020D22dCF88f5eDd66B382D7da019F161fB7e3",
      "gasPrice": {
        "_hex": "0xe0accdd12"
      },
      "gasLimit": {
        "_hex": "0x15f90"
      },
      "to": "0xCDA330c8160f0c90B8B528C6Db267acc17381818",
      "value": {
        "_hex": "0x3635c9adc5dea00000"
      },
      "nonce": 16,
      "data": "0x",
      "r": "0x7bdae44dc985e605b4c99ee8898b0162c699fc0cd47956d572baeb7a46b000fc",
      "s": "0x52725a5d5c5f3eec2b59b686aad8c167cbfdde49f36dff69eff21a7539d86748",
      "v": 27,
      "creates": null,
      "raw": "0xf86e10850e0accdd1283015f9094cda330c8160f0c90b8b528c6db267acc17381818893635c9adc5dea00000801ba07bdae44dc985e605b4c99ee8898b0162c699fc0cd47956d572baeb7a46b000fca052725a5d5c5f3eec2b59b686aad8c167cbfdde49f36dff69eff21a7539d86748",
      "networkId": 0,
      "chainId": 0
    }
  ]
}