{
  "hash": "0x8095e05473f1c10a1e3b90ac1e12812e7861998fc0804ebbcca63f39b79ca542",
  "parentHash": "0x5fe214df2039ffc52a57405a1d83055f3b88d84b9a47aa27622d3845f662e2eb",
  "number": 120957,
  "timestamp": 1440168995,
  "nonce": "0xed994afdf02f5509",
  "difficulty": 4430262061429,
  "gasLimit": {
    "_hex": "0x2fefd8"
  },
  "gasUsed": {
    "_hex": "0x5208"
  },
  "miner": "0x52bc44d5378309EE2abF1539BF71dE1b7d7bE3b5",
  "extraData": "0xd783010002844765746887676f312e342e32856c696e7578",
  "transactions": [
    {
      "hash": "0x472e6a03427cbbc9e831cd6dd6194110fb64d27065d0529152f8ad069c242122",
      "blockHash": "0x8095e05473f1c10a1e3b90ac1e12812e7861998fc0804ebbcca63f39b79ca542",
      "blockNumber": 120957,
      "transactionIndex": 0,
      "confirmations": null,
      "from": "0x276e2f360f94f35DDc4a45F16Ca8771A746a4582",
      "gasPrice": {
        "_hex": "0xe0d97c88a"
      },
      "gasLimit": {
        "_hex": "0x15f90"
      },
      "to": "0x44Cb7068a28bc4B195e658ae160CC64289BC4012",
      "value": {
        "_hex": "0x48dbbf2f2ecd00000"
      },
      "nonce": 5,
      "data": "0x",
      "r": "0x7c450d5a9768ff9c24ca352b785a165fe7bcf08333b40851d3432d93cf9ec910",
      "s": "0x3fdc18b602f6b804c5b37a86580f39d97d1f616bf8e6755ca34ee6b52b76d680",
      "v": 28,
      "creates": null,
      "raw": "0xf86e05850e0d97c88a83015f909444cb7068a28bc4b195e658ae160cc64289bc401289048dbbf2f2ecd00000801ca07c450d5a9768ff9c24ca352b785a165fe7bcf08333b40851d3432d93cf9ec910a03fdc18b602f6b804c5b37a86580f39d97d1f616bf8e6755ca34ee6b52b76d680",
      "networkId": 0,
      "chainId": 0
    }
  ]
}