{
  "hash": "0xdf3509206b5e28e2f47b2fc1b652df45f247764ce8ef5a4aa17a2065c177f2df",
  "parentHash": "0xc7367c43c791bada2ff9da01495e44c46455a9b72392b24ac067f3cb223727b1",
  "number": 117427,
  "timestamp": 1440109278,
  "nonce": "0x3d6f55f1126799d3",
  "difficulty": 4308368234215,
  "gasLimit": {
    "_hex": "0x2fefd8"
  },
  "gasUsed": {
    "_hex": "0x5208"
  },
  "miner": "0x580992B51e3925e23280EfB93d3047C82f17E038",
  "extraData": "0x",
  "transactions": [
    {
      "hash": "0x55d9388b5f13426f8a915c32f36152270fde03cc84374c5fb000dbb0391ae2d3",
      "blockHash": "0xdf3509206b5e28e2f47b2fc1b652df45f247764ce8ef5a4aa17a2065c177f2df",
      "blockNumber": 117427,
      "transactionIndex": 0,
      "confirmations": null,
      "from": "0xBFa71Aba804c2b986D969E175aCFdAC7266CDe9C",
      "gasPrice": {
        "_hex": "0xba43b7400"
      },
      "gasLimit": {
        "_hex": "0x7530"
      },
      "to": "0xa9f5E7bf6Cbf6fEc55B30850Eb492b47A376d050",
      "value": {
        "_hex": "0x46419ced7f6a40000"
      },
      "nonce": 6,
      "data": "0x",
      "r": "0xea47fc18b64614bcc2ac599ed952d4dbbe2fcaa9b0a02a3a4f4d7d13c09fde71",
      "s": "0x67d8c9b5e2597319f56154a213bf5a90e5a22989e87db67ef8f32946c316ec9c",
      "v": 28,
      "creates": null,
      "raw": "0xf86d06850ba43b740082753094a9f5e7bf6cbf6fec55b30850eb492b47a376d05089046419ced7f6a40000801ca0ea47fc18b64614bcc2ac599ed952d4dbbe2fcaa9b0a02a3a4f4d7d13c09fde71a067d8c9b5e2597319f56154a213bf5a90e5a22989e87db67ef8f32946c316ec9c",
      "networkId": 0,
      "chainId": 0
    }
  ]
}