{
  "hash": "0xd83856cce700b01f65e936b9dc079c7e8ae08640e0708554a037a60f2632b1bb",
  "parentHash": "0xe55903c7f6384fadb1cd3bd911b44a0f1da1a1820356eae0c29014007cb03382",
  "number": 112816,
  "timestamp": 1440013712,
  "nonce": "0x01633c5ab1199d18",
  "difficulty": 4428072454237,
  "gasLimit": {
    "_hex": "0x2fefd8"
  },
  "gasUsed": {
    "_hex": "0xa410"
  },
  "miner": "0xe6A7a1d47ff21B6321162AEA7C6CB457D5476Bca",
  "extraData": "0x476574682f76312e302e312d38326566323666362f6c696e75782f676f312e34",
  "transactions": [
    {
      "hash": "0xc1f65d55d443604ad249aee93c3ebbdb03b799b0a99291adfbdfd1ea0909261f",
      "blockHash": "0xd83856cce700b01f65e936b9dc079c7e8ae08640e0708554a037a60f2632b1bb",
      "blockNumber": 112816,
      "transactionIndex": 0,
      "confirmations": null,
      "from": "0x10d50b62A87413dFD8b111398613F2eB8d819f6C",
      "gasPrice": {
        "_hex": "0xd4770f51d"
      },
      "gasLimit": {
        "_hex": "0x5208"
      },
      "to": "0x32Be343B94f860124dC4fEe278FDCBD38C102D88",
      "value": {
        "_hex": "0x9a9ffd8bcbd65800"
      },
      "nonce": 3,
      "data": "0x",
      "r": "0x295e3a3b2cf24285e8cfc555bab0f84c6d76376cc464c0879be65d65db29d7df",
      "s": "0x34356a2e1c247d9e80324016602ea978167c91d67f0e271a6b2f67c8bf1fe305",
      "v": 28,
      "creates": null,
      "raw": "0xf86c03850d4770f51d8252089432be343b94f860124dc4fee278fdcbd38c102d88889a9ffd8bcbd65800801ca0295e3a3b2cf24285e8cfc555bab0f84c6d76376cc464c0879be65d65db29d7dfa034356a2e1c247d9e80324016602ea978167c91d67f0e271a6b2f67c8bf1fe305",
      "networkId": 0,
      "chainId": 0
    },
    {
      "hash": "0x227d56d7fd3050d8fe823bb353825ceab55b5ceb222687b2cdb5bff873ada805",
      "blockHash": "0xd83856cce700b01f65e936b9dc079c7e8ae08640e0708554a037a60f2632b1bb",
      "blockNumber": 112816,
      "transactionIndex": 1,
      "confirmations": null,
      "from": "0x795dAa7Cd2C81b20de241CE0751981faC4930070",
      "gasPrice": {
        "_hex": "0xd4770f51d"
      },
      "gasLimit": {
        "_hex": "0x5208"
      },
      "to": "0x32Be343B94f860124dC4fEe278FDCBD38C102D88",
      "value": {
        "_hex": "0x604070386a08b8000"
      },
      "nonce": 3,
      "data": "0x",
      "r": "0x855cc8f05b769abdeb92319801ece1631b4e579b0d933f2e81cf58ba159c4370",
      "s": "0x30b350e784070488e65b62a2385451b37db5e5d71ae5d58d9205b11b8b595c83",
      "v": 28,
      "creates": null,
      "raw": "0xf86d03850d4770f51d8252089432be343b94f860124dc4fee278fdcbd38c102d88890604070386a08b8000801ca0855cc8f05b769abdeb92319801ece1631b4e579b0d933f2e81cf58ba159c4370a030b350e784070488e65b62a2385451b37db5e5d71ae5d58d9205b11b8b595c83",
      "networkId": 0,
      "chainId": 0
    }
  ]
}