{
  "hash": "0xb6a80a13722df5b1b99082ca5a78657dc98eb76ddfd4b4530abadc4bf3179652",
  "parentHash": "0xf0ea9eafed369abe6139ad341c5bdc3ec20d9ddbdd7aedd7a2762ddf0bea7f39",
  "number": 95573,
  "timestamp": 1439725913,
  "nonce": "0x47c4c39f0463fb86",
  "difficulty": 3641027716729,
  "gasLimit": {
    "_hex": "0x2fefd8"
  },
  "gasUsed": {
    "_hex": "0xf618"
  },
  "miner": "0xbb7B8287f3F0a933474a79eAe42CBCa977791171",
  "extraData": "0x476574682f4c5649562f76312e302e312f6c696e75782f676f312e342e32",
  "transactions": [
    {
      "hash": "0x964638ef59298dcfc444407408128cc7640e4df36cb0d6b9b463c7fcc6a4eaf8",
      "blockHash": "0xb6a80a13722df5b1b99082ca5a78657dc98eb76ddfd4b4530abadc4bf3179652",
      "blockNumber": 95573,
      "transactionIndex": 0,
      "confirmations": null,
      "from": "0x63738Ec4C9adec404749B5747F3bbE2147de632F",
      "gasPrice": {
        "_hex": "0xd69331720"
      },
      "gasLimit": {
        "_hex": "0x15f90"
      },
      "to": "0x557C2806B6ceA65a66F415bb2Ed1ce897B340745",
      "value": {
        "_hex": "0x8ac7230489e80000"
      },
      "nonce": 5,
      "data": "0x",
      "r": "0x381d16a6b5699ee9ce69a21005613e704be6dce0c08537d1dafeea23303505dd",
      "s": "0x15996f98761e033d77a5ffbc05c32c74aa88b9da73d25604e64cf5496b8ff89f",
      "v": 28,
      "creates": null,
      "raw": "0xf86d05850d6933172083015f9094557c2806b6cea65a66f415bb2ed1ce897b340745888ac7230489e80000801ca0381d16a6b5699ee9ce69a21005613e704be6dce0c08537d1dafeea23303505dda015996f98761e033d77a5ffbc05c32c74aa88b9da73d25604e64cf5496b8ff89f",
      "networkId": 0,
      "chainId": 0
    },
    {
      "hash": "0x2e46714201f1d0f7c35d648852d162a167ba025084756f83c0c6471bf3cbfac2",
      "blockHash": "0xb6a80a13722df5b1b99082ca5a78657dc98eb76ddfd4b4530abadc4bf3179652",
      "blockNumber": 95573,
      "transactionIndex": 1,
      "confirmations": null,
      "from": "0x63738Ec4C9adec404749B5747F3bbE2147de632F",
      "gasPrice": {
        "_hex": "0xd69331720"
      },
      "gasLimit": {
        "_hex": "0x15f90"
      },
      "to": "0x557C2806B6ceA65a66F415bb2Ed1ce897B340745",
      "value": {
        "_hex": "0x8ac7230489e80000"
      },
      "nonce": 6,
      "data": "0x",
      "r": "0xc8dbca1b65aeb4b180338c53b49fcab6f171df8478e7e3109ca9647e29244af9",
      "s": "0x09143364c904918a62071b81318148c30112e0bec32453a85dbe5675c08aec54",
      "v": 28,
      "creates": null,
      "raw": "0xf86d06850d6933172083015f9094557c2806b6cea65a66f415bb2ed1ce897b340745888ac7230489e80000801ca0c8dbca1b65aeb4b180338c53b49fcab6f171df8478e7e3109ca9647e29244af9a009143364c904918a62071b81318148c30112e0bec32453a85dbe5675c08aec54",
      "networkId": 0,
      "chainId": 0
    },
    {
      "hash": "0x0c47040ee6970d14df90fee5fa95e30df44cd397aa5f7c68140df9f961f3e1dc",
      "blockHash": "0xb6a80a13722df5b1b99082ca5a78657dc98eb76ddfd4b4530abadc4bf3179652",
      "blockNumber": 95573,
      "transactionIndex": 2,
      "confirmations": null,
      "from": "0x63738Ec4C9adec404749B5747F3bbE2147de632F",
      "gasPrice": {
        "_hex": "0xd69331720"
      },
      "gasLimit": {
        "_hex": "0x15f90"
      },
      "to": "0x557C2806B6ceA65a66F415bb2Ed1ce897B340745",
      "value": {
        "_hex": "0x8ac7230489e80000"
      },
      "nonce": 7,
      "data": "0x",
      "r": "0x393bdb9dc1a5c5809bdba4419aa7c49a8a32c286a4c9132d9e075e8eefe13f57",
      "s": "0x3ffcd6d4a25f1c5f7a936db9d1b09fd9e67e3af23825af273cd3cca389595e3b",
      "v": 27,
      "creates": null,
      "raw": "0xf86d07850d6933172083015f9094557c2806b6cea65a66f415bb2ed1ce897b340745888ac7230489e80000801ba0393bdb9dc1a5c5809bdba4419aa7c49a8a32c286a4c9132d9e075e8eefe13f57a03ffcd6d4a25f1c5f7a936db9d1b09fd9e67e3af23825af273cd3cca389595e3b",
      "networkId": 0,
      "chainId": 0
    }
  ]
}