{
  "hash": "0x90a1d8fb34fe53f85a6017ecac5d37073833bed01eed158dcbd5b3609e46e408",
  "parentHash": "0x94f69af7390376283ce500b047da02db31f24ca675d5d729a4a5fefec7085fec",
  "number": 79183,
  "timestamp": 1439465852,
  "nonce": "0x4d72eb2fe905c5d0",
  "difficulty": 2314379601828,
  "gasLimit": {
    "_hex": "0x2fefd8"
  },
  "gasUsed": {
    "_hex": "0x5208"
  },
  "miner": "0x71744De37e18561C508082EA27aee707190C429b",
  "extraData": "0x67616e7a207669656c65204b61747a656e",
  "transactions": [
    {
      "hash": "0x362c6dec0db8e69d82447f47603e7a742da5a4f5cd34f5b1ddf34981b3babaaa",
      "blockHash": "0x90a1d8fb34fe53f85a6017ecac5d37073833bed01eed158dcbd5b3609e46e408",
      "blockNumber": 79183,
      "transactionIndex": 0,
      "confirmations": null,
      "from": "0xc597A5d92F5dC1137D847db733cfe02c6d209f13",
      "gasPrice": {
        "_hex": "0xcb581522c"
      },
      "gasLimit": {
        "_hex": "0x15f90"
      },
      "to": "0xb2169f1326FE9745321aD99563654089bAdf09eb",
      "value": {
        "_hex": "0xd50535d1c31b8800"
      },
      "nonce": 13,
      "data": "0x",
      "r": "0x6a2cd66d3d6f9727e69decd11fba4f8e85589d7740aec9519d55ff890bf3b2b5",
      "s": "0x25bf00d53be34310599b073697ee18f3c3f23bcdc69186aee59f5e7316f8788f",
      "v": 27,
      "creates": null,
      "raw": "0xf86d0d850cb581522c83015f9094b2169f1326fe9745321ad99563654089badf09eb88d50535d1c31b8800801ba06a2cd66d3d6f9727e69decd11fba4f8e85589d7740aec9519d55ff890bf3b2b5a025bf00d53be34310599b073697ee18f3c3f23bcdc69186aee59f5e7316f8788f",
      "networkId": 0,
      "chainId": 0
    }
  ]
}