{
  "hash": "0x44a2b852981c00fe80242f319b1804b36fd3bece761975a86e54809ba59971ef",
  "parentHash": "0x06e8d8598b041e2e553850541c4b863b9d2d943435b898a282cfdeca423d1ad3",
  "number": 100486,
  "timestamp": 1439807243,
  "nonce": "0xecb17663662663c7",
  "difficulty": 3822851906342,
  "gasLimit": {
    "_hex": "0x2fefd8"
  },
  "gasUsed": {
    "_hex": "0x5208"
  },
  "miner": "0xe6A7a1d47ff21B6321162AEA7C6CB457D5476Bca",
  "extraData": "0x476574682f76312e302e312d38326566323666362f6c696e75782f676f312e34",
  "transactions": [
    {
      "hash": "0x987f235b44725c0f3db156f7bc6b385bc4c17d2279ad8508f20ceed276ca6059",
      "blockHash": "0x44a2b852981c00fe80242f319b1804b36fd3bece761975a86e54809ba59971ef",
      "blockNumber": 100486,
      "transactionIndex": 0,
      "confirmations": null,
      "from": "0x40B9b889A21Ff1534d018D71Dc406122EBcf3F5A",
      "gasPrice": {
        "_hex": "0xfe7d5a6739"
      },
      "gasLimit": {
        "_hex": "0x15f90"
      },
      "to": "0x2f86ba8019945f39edE131D38d4d8780884DA553",
      "value": {
        "_hex": "0x25f273933db5700000"
      },
      "nonce": 46,
      "data": "0x",
      "r": "0x6e8cc6715da8bbfd94a0ad7c3cc3c0e3dab644ea74345c15c204c241f8b439a5",
      "s": "0x54dd617d7d740e695160a711bbd11e37244f608572df5610d0cdbc418e07b63b",
      "v": 28,
      "creates": null,
      "raw": "0xf86e2e85fe7d5a673983015f90942f86ba8019945f39ede131d38d4d8780884da5538925f273933db5700000801ca06e8cc6715da8bbfd94a0ad7c3cc3c0e3dab644ea74345c15c204c241f8b439a5a054dd617d7d740e695160a711bbd11e37244f608572df5610d0cdbc418e07b63b",
      "networkId": 0,
      "chainId": 0
    }
  ]
}