{
  "hash": "0x030653cdfd1daa8f7dc981abad6fd4b20986468ff7b71c8a929f4ba6c4fe3841",
  "parentHash": "0xbfed12afd7cb05258ba3cd8212300530d656604979ce5da344bf90ec4f881089",
  "number": 122001,
  "timestamp": 1440186521,
  "nonce": "0xe1af70227b42be98",
  "difficulty": 4464453384241,
  "gasLimit": {
    "_hex": "0x2fefd8"
  },
  "gasUsed": {
    "_hex": "0x5208"
  },
  "miner": "0x007f7f58D3eb5b7510A301eCC749FC1fCDDBE14D",
  "extraData": "0x",
  "transactions": [
    {
      "hash": "0xaab9139be29f9963c67ecc656b593eb662fd70d8d21d95e1b63b6f3d99f34b8d",
      "blockHash": "0x030653cdfd1daa8f7dc981abad6fd4b20986468ff7b71c8a929f4ba6c4fe3841",
      "blockNumber": 122001,
      "transactionIndex": 0,
      "confirmations": null,
      "from": "0xF6b254f4060f12c7cDaFDd6020D2C13a70698c62",
      "gasPrice": {
        "_hex": "0xba43b7400"
      },
      "gasLimit": {
        "_hex": "0x15f90"
      },
      "to": "0x5197878A7683558Ed7FfEFc372709a50b9b711db",
      "value": {
        "_hex": "0x16345785d8a0000"
      },
      "nonce": 0,
      "data": "0x",
      "r": "0x421baa95d04985b53bc6bbbe360d186bc9ebed10f9b1be155d5e148c1ca5afe1",
      "s": "0x3f5cf2603bf750f2f702d62f8d966a63e99e87150791e6469c0cb94abd32ebd0",
      "v": 28,
      "creates": null,
      "raw": "0xf86d80850ba43b740083015f90945197878a7683558ed7ffefc372709a50b9b711db88016345785d8a0000801ca0421baa95d04985b53bc6bbbe360d186bc9ebed10f9b1be155d5e148c1ca5afe1a03f5cf2603bf750f2f702d62f8d966a63e99e87150791e6469c0cb94abd32ebd0",
      "networkId": 0,
      "chainId": 0
    }
  ]
}