{
  "hash": "0x597c58adb2dadfbdf97c60167c5ff9f5c163ad6f4954e8e5838f00e1c5ae6e0b",
  "parentHash": "0x3ab9bc2cc68eb25e949acd9516a32c9415cdc4de80d43b36b60a77212c65f4ba",
  "number": 55167,
  "timestamp": 1439066367,
  "nonce": "0x501923f11582cf3d",
  "difficulty": 1641031285488,
  "gasLimit": {
    "_hex": "0x2ff518"
  },
  "gasUsed": {
    "_hex": "0x2e6ad0"
  },
  "miner": "0xf64EE50154E0D74461966B4bB90139C010BCA68B",
  "extraData": "0x476574682f76312e302e312f77696e646f77732f676f312e342e32",
  "transactions": [
    {
      "hash": "0xcc1bd4be11b3656b0925f5d45fd7a1f354a20fadc0ae7820d4f87381ec7db5ff",
      "blockHash": "0x597c58adb2dadfbdf97c60167c5ff9f5c163ad6f4954e8e5838f00e1c5ae6e0b",
      "blockNumber": 55167,
      "transactionIndex": 0,
      "confirmations": null,
      "from": "0x0ae3F81a67725a8A7758FeB8684c6c17dA20755D",
      "gasPrice": {
        "_hex": "0xe17eed2c2"
      },
      "gasLimit": {
        "_hex": "0x7a120"
      },
      "to": "0xBAA54d6E90c3F4d7Ebec11bD180134C7eD8eBb52",
      "value": {
        "_hex": "0x16345785d8a0000"
      },
      "nonce": 22,
      "data": "0x",
      "r": "0xead60bdd3f660f35c10cc82953808a99542cc4f05242d2f5b92a84eb21a60a0d",
      "s": "0x43afa5c2a0f1d4fdcdab4a1211f60f2373a5d57553f3c236e12025d710330f0e",
      "v": 27,
      "creates": null,
      "raw": "0xf86d16850e17eed2c28307a12094baa54d6e90c3f4d7ebec11bd180134c7ed8ebb5288016345785d8a0000801ba0ead60bdd3f660f35c10cc82953808a99542cc4f05242d2f5b92a84eb21a60a0da043afa5c2a0f1d4fdcdab4a1211f60f2373a5d57553f3c236e12025d710330f0e",
      "networkId": 0,
      "chainId": 0
    },
    {
      "hash": "0x3d7da253940a427524bf9e709a7bd3ea7dbaf44077ed071923325a1097dfb44e",
      "blockHash": "0x597c58adb2dadfbdf97c60167c5ff9f5c163ad6f4954e8e5838f00e1c5ae6e0b",
      "blockNumber": 55167,
      "transactionIndex": 1,
      "confirmations": null,
      "from": "0x0ae3F81a67725a8A7758FeB8684c6c17dA20755D",
      "gasPrice": {
        "_hex": "0xe17eed2c2"
      },
      "gasLimit": {
        "_hex": "0x7a120"
      },
      "to": "0xBAA54d6E90c3F4d7Ebec11bD180134C7eD8eBb52",
      "value": {
        "_hex": "0x16345785d8a0000"
      },
      "nonce": 23,
      "data": "0x",
      "r": "0x35cad970fd7455f0d7b518993ee47aa2a0e6581196de23d97f0fa76ce74a0924",
      "s": "0x501fd48dd001cd262a948456a5d896bc19edd295d0babcadc227d4ed55353836",
      "v": 28,
      "creates": null,
      "raw": "0xf86d17850e17eed2c28307a12094baa54d6e90c3f4d7ebec11bd180134c7ed8ebb5288016345785d8a0000801ca035cad970fd7455f0d7b518993ee47aa2a0e6581196de23d97f0fa76ce74a0924a0501fd48dd001cd262a948456a5d896bc19edd295d0babcadc227d4ed55353836",
      "networkId": 0,
      "chainId": 0
    },
    {
      "hash": "0x868b531f44cd4a29b6b55c3a8e65327c2bddf95b12f1460852975b0749ddf261",
      "blockHash": "0x597c58adb2dadfbdf97c60167c5ff9f5c163ad6f4954e8e5838f00e1c5ae6e0b",
      "blockNumber": 55167,
      "transactionIndex": 2,
      "confirmations": null,
      "from": "0x0ae3F81a67725a8A7758FeB8684c6c17dA20755D",
      "gasPrice": {
        "_hex": "0xe17eed2c2"
      },
      "gasLimit": {
        "_hex": "0x7a120"
      },
      "to": "0xBAA54d6E90c3F4d7Ebec11bD180134C7eD8eBb52",
      "value": {
        "_hex": "0x16345785d8a0000"
      },
      "nonce": 24,
      "data": "0x",
      "r": "0x9281faf0124327048fab69097232edbfb67ddabc25faf657a037fd8f26669e9c",
      "s": "0x0dbf2cb44053feac2d5269c5fe5159cf5a65216140fc64c7b7f0a170714d76fc",
      "v": 28,
      "creates": null,
      "raw": "0xf86d18850e17eed2c28307a12094baa54d6e90c3f4d7ebec11bd180134c7ed8ebb5288016345785d8a0000801ca09281faf0124327048fab69097232edbfb67ddabc25faf657a037fd8f26669e9ca00dbf2cb44053feac2d5269c5fe5159cf5a65216140fc64c7b7f0a170714d76fc",
      "networkId": 0,
      "chainId": 0
    },
    {
      "hash": "0xd9c95da3f5858a3f9b21b51265aa6209725dad618e829d68e207a93d813f9759",
      "blockHash": "0x597c58adb2dadfbdf97c60167c5ff9f5c163ad6f4954e8e5838f00e1c5ae6e0b",
      "blockNumber": 55167,
      "transactionIndex": 3,
      "confirmations": null,
      "from": "0x0ae3F81a67725a8A7758FeB8684c6c17dA20755D",
      "gasPrice": {
        "_hex": "0xdf763ac59"
      },
      "gasLimit": {
        "_hex": "0x7a120"
      },
      "to": "0xBAA54d6E90c3F4d7Ebec11bD180134C7eD8eBb52",
      "value": {
        "_hex": "0x16345785d8a0000"
      },
      "nonce": 25,
      "data": "0x",
      "r": "0x3b44c9a10bb4e3c1250bec7e346114c960fcbd710a3567fc90a9b1c30670ff73",
      "s": "0x247d0db0d31d06136454737e65c664953dbe211d269d49a36e553571e3353e29",
      "v": 27,
      "creates": null,
      "raw": "0xf86d19850df763ac598307a12094baa54d6e90c3f4d7ebec11bd180134c7ed8ebb5288016345785d8a0000801ba03b44c9a10bb4e3c1250bec7e346114c960fcbd710a3567fc90a9b1c30670ff73a0247d0db0d31d06136454737e65c664953dbe211d269d49a36e553571e3353e29",
      "networkId": 0,
      "chainId": 0
    },
    {
      "hash": "0x39f45b7b84c2ed8c5661add3af9c8f71da12d7b82274684b53632ea7bac5f8d4",
      "blockHash": "0x597c58adb2dadfbdf97c60167c5ff9f5c163ad6f4954e8e5838f00e1c5ae6e0b",
      "blockNumber": 55167,
      "transactionIndex": 4,
      "confirmations": null,
      "from": "0x0ae3F81a67725a8A7758FeB8684c6c17dA20755D",
      "gasPrice": {
        "_hex": "0xdf763ac59"
      },
      "gasLimit": {
        "_hex": "0x7a120"
      },
      "to": "0xBAA54d6E90c3F4d7Ebec11bD180134C7eD8eBb52",
      "value": {
        "_hex": "0x16345785d8a0000"
      },
      "nonce": 26,
      "data": "0x",
      "r": "0x763bdd144202efe152372eb83b18c91fd5641abd7d572475954453c444603231",
      "s": "0x006f293b6db498513ced3f90c0357596b844108e2eb949adc19e3375cf175c3c",
      "v": 27,
      "creates": null,
      "raw": "0xf86c1a850df763ac598307a12094baa54d6e90c3f4d7ebec11bd180134c7ed8ebb5288016345785d8a0000801ba0763bdd144202efe152372eb83b18c91fd5641abd7d572475954453c4446032319f6f293b6db498513ced3f90c0357596b844108e2eb949adc19e3375cf175c3c",
      "networkId": 0,
      "chainId": 0
    },
    {
      "hash": "0x37725a164e40e7d71b5cbf3b13e79d1f935384385b14ec31ba7c1ffe2b135230",
      "blockHash": "0x597c58adb2dadfbdf97c60167c5ff9f5c163ad6f4954e8e5838f00e1c5ae6e0b",
      "blockNumber": 55167,
      "transactionIndex": 5,
      "confirmations": null,
      "from": "0x0ae3F81a67725a8A7758FeB8684c6c17dA20755D",
      "gasPrice": {
        "_hex": "0xdf763ac59"
      },
      "gasLimit": {
        "_hex": "0x7a120"
      },
      "to": "0xBAA54d6E90c3F4d7Ebec11bD180134C7eD8eBb52",
      "value": {
        "_hex": "0x16345785d8a0000"
      },
      "nonce": 27,
      "data": "0x",
      "r": "0x07062cc8e5086527c614d87a523a7851a6f74b9da81cfec3a67de0ec128cf213",
      "s": "0x457a2bc6391add7278a10c9b0a9f83b5d86731c9d9df45ad5bfc5c8f9d393657",
      "v": 27,
      "creates": null,
      "raw": "0xf86d1b850df763ac598307a12094baa54d6e90c3f4d7ebec11bd180134c7ed8ebb5288016345785d8a0000801ba007062cc8e5086527c614d87a523a7851a6f74b9da81cfec3a67de0ec128cf213a0457a2bc6391add7278a10c9b0a9f83b5d86731c9d9df45ad5bfc5c8f9d393657",
      "networkId": 0,
      "chainId": 0
    },
    {
      "hash": "0xea8b1106d0e52f442a595795b12ac6d343c676907946acfd7de0f4efa1b24974",
      "blockHash": "0x597c58adb2dadfbdf97c60167c5ff9f5c163ad6f4954e8e5838f00e1c5ae6e0b",
      "blockNumber": 55167,
      "transactionIndex": 6,
      "confirmations": null,
      "from": "0x33A3f479f6c3e7F91128348490D1f7E8D2A0FAb5",
      "gasPrice": {
        "_hex": "0xdea0c8e8e"
      },
      "gasLimit": {
        "_hex": "0x5208"
      },
      "to": "0x32Be343B94f860124dC4fEe278FDCBD38C102D88",
      "value": {
        "_hex": "0x8ac2ad9ebcce5800"
      },
      "nonce": 8,
      "data": "0x",
      "r": "0xbf10d738a4af7fa127e136199096b63df1ce31c61166bb6667be11c1d9802bc1",
      "s": "0x0d9cb35fca7881fa52a03df105601fe8fe7434f9c1db2b86ed5355fb482e45e8",
      "v": 28,
      "creates": null,
      "raw": "0xf86c08850dea0c8e8e8252089432be343b94f860124dc4fee278fdcbd38c102d88888ac2ad9ebcce5800801ca0bf10d738a4af7fa127e136199096b63df1ce31c61166bb6667be11c1d9802bc1a00d9cb35fca7881fa52a03df105601fe8fe7434f9c1db2b86ed5355fb482e45e8",
      "networkId": 0,
      "chainId": 0
    },
    {
      "hash": "0x2532998114223a819e9ced0c88864233b8d09375127e7f625a758cc00aee2f4c",
      "blockHash": "0x597c58adb2dadfbdf97c60167c5ff9f5c163ad6f4954e8e5838f00e1c5ae6e0b",
      "blockNumber": 55167,
      "transactionIndex": 7,
      "confirmations": null,
      "from": "0x8751DfA908C45A8aEf041FbeE9C17f9fE57Cc449",
      "gasPrice": {
        "_hex": "0xdea0c8e8e"
      },
      "gasLimit": {
        "_hex": "0x5208"
      },
      "to": "0x32Be343B94f860124dC4fEe278FDCBD38C102D88",
      "value": {
        "_hex": "0x21d375ff65f168000"
      },
      "nonce": 0,
      "data": "0x",
      "r": "0x7bf83d4c5905ad47be8e8500a9170b6967dbf3f597bed210c909804595d16965",
      "s": "0x12816b198acb1af468cea5ff28d2792e0faed032d61c5ab0e597e99777cc3454",
      "v": 27,
      "creates": null,
      "raw": "0xf86d80850dea0c8e8e8252089432be343b94f860124dc4fee278fdcbd38c102d8889021d375ff65f168000801ba07bf83d4c5905ad47be8e8500a9170b6967dbf3f597bed210c909804595d16965a012816b198acb1af468cea5ff28d2792e0faed032d61c5ab0e597e99777cc3454",
      "networkId": 0,
      "chainId": 0
    }
  ]
}