{
  "hash": "0x098724620d8181f8e6d89762d828a2fce9919794355efd36376bbecd9e90e1a3",
  "parentHash": "0xb4447dc25f2ae0b0c4e125704d3b369878b68b96bcc4e20053392b67a9f04d62",
  "number": 67914,
  "timestamp": 1439279495,
  "nonce": "0x87f721a70bb91a54",
  "difficulty": 1946764202002,
  "gasLimit": {
    "_hex": "0x2fefd8"
  },
  "gasUsed": {
    "_hex": "0x5208"
  },
  "miner": "0xf8E0CA3Ed80bd541b94BEdCf259e8CF2141A9523",
  "extraData": "0x476574682f76312e302e312f77696e646f77732f676f312e342e32",
  "transactions": [
    {
      "hash": "0xf93d762b97b54bff761ca1cc047aac0160341fa356f23f3ca5eba33249a79cc5",
      "blockHash": "0x098724620d8181f8e6d89762d828a2fce9919794355efd36376bbecd9e90e1a3",
      "blockNumber": 67914,
      "transactionIndex": 0,
      "confirmations": null,
      "from": "0xe997A23B159E2E2a5Ce72333262972374B15425c",
      "gasPrice": {
        "_hex": "0xd3d37f23a"
      },
      "gasLimit": {
        "_hex": "0x15f90"
      },
      "to": "0x33F36DffD23cf019833E1d59cBc7138824b12289",
      "value": {
        "_hex": "0x270801d946c940000"
      },
      "nonce": 3,
      "data": "0x",
      "r": "0x4d1d03ed31d029ec15c14a1ce6ed0b6615274556e70826117e85b749c5a1e3e1",
      "s": "0x6204483591b289622f41a3e5bfbbef763b372a89001624d22e5604d0514fe98f",
      "v": 28,
      "creates": null,
      "raw": "0xf86e03850d3d37f23a83015f909433f36dffd23cf019833e1d59cbc7138824b12289890270801d946c940000801ca04d1d03ed31d029ec15c14a1ce6ed0b6615274556e70826117e85b749c5a1e3e1a06204483591b289622f41a3e5bfbbef763b372a89001624d22e5604d0514fe98f",
      "networkId": 0,
      "chainId": 0
    }
  ]
}