{
  "hash": "0x053b971d2308ff287878be7cd74dbcf883ca7ab6987ec5cdf9c65f97535e640b",
  "parentHash": "0x1500510d1a206c017d0c15256eebcffe6f9fc73492b3ee0a6e235662a85fe7da",
  "number": 116049,
  "timestamp": 1440067526,
  "nonce": "0x45f8e9837d2b4957",
  "difficulty": 4591469247888,
  "gasLimit": {
    "_hex": "0x2fefd8"
  },
  "gasUsed": {
    "_hex": "0xa410"
  },
  "miner": "0x157c6f2431eB1a95797EE86F7d17b3c0FD47A247",
  "extraData": "0x476574682f76312e302e312f77696e646f77732f676f312e342e32",
  "transactions": [
    {
      "hash": "0xfa70c09a16864b331fc0da6f45d57331b1e20b0257d2943f237e3434a08dbe0a",
      "blockHash": "0x053b971d2308ff287878be7cd74dbcf883ca7ab6987ec5cdf9c65f97535e640b",
      "blockNumber": 116049,
      "transactionIndex": 0,
      "confirmations": null,
      "from": "0x52292dB8B133f37fDA9D9F4E996A3140b41E7634",
      "gasPrice": {
        "_hex": "0xd3a791816"
      },
      "gasLimit": {
        "_hex": "0x15f90"
      },
      "to": "0x23f2D0fd3B4C98Fb1698564deB4898275E2e831f",
      "value": {
        "_hex": "0x6124fee993bc0000"
      },
      "nonce": 2,
      "data": "0x",
      "r": "0x1c5d8092e1a66c09d2d169ff5b10cc5bd43eb13f6ff7ac258530aef47f7e1c8e",
      "s": "0x38c853eba2cd0fb77278992405164d28acef4af1a9a605f06b485e3e58984029",
      "v": 28,
      "creates": null,
      "raw": "0xf86d02850d3a79181683015f909423f2d0fd3b4c98fb1698564deb4898275e2e831f886124fee993bc0000801ca01c5d8092e1a66c09d2d169ff5b10cc5bd43eb13f6ff7ac258530aef47f7e1c8ea038c853eba2cd0fb77278992405164d28acef4af1a9a605f06b485e3e58984029",
      "networkId": 0,
      "chainId": 0
    },
    {
      "hash": "0xc132de9b29770c0d49094c925140446dd7873a879cc8e60f08e931630a3b7aec",
      "blockHash": "0x053b971d2308ff287878be7cd74dbcf883ca7ab6987ec5cdf9c65f97535e640b",
      "blockNumber": 116049,
      "transactionIndex": 1,
      "confirmations": null,
      "from": "0x65d6F6040D1B3E8E8bFD5F70B46A2dB2ADBFca9a",
      "gasPrice": {
        "_hex": "0xba43b7400"
      },
      "gasLimit": {
        "_hex": "0x5208"
      },
      "to": "0xC47Aaa860008be6f65B58c6C6E02a84e666EfE31",
      "value": {
        "_hex": "0x3ba8f03f892a38f0"
      },
      "nonce": 6,
      "data": "0x",
      "r": "0x8904d84dcf1130a09135fa2edc0faeefa3cd0dd8731b34b04e95935caed50777",
      "s": "0x4d73f02f81592bb4236e1185be0715ef00fba4826de06596fb83696ed44a8ffb",
      "v": 27,
      "creates": null,
      "raw": "0xf86c06850ba43b740082520894c47aaa860008be6f65b58c6c6e02a84e666efe31883ba8f03f892a38f0801ba08904d84dcf1130a09135fa2edc0faeefa3cd0dd8731b34b04e95935caed50777a04d73f02f81592bb4236e1185be0715ef00fba4826de06596fb83696ed44a8ffb",
      "networkId": 0,
      "chainId": 0
    }
  ]
}