{
  "hash": "0x4d43ccdd0fefacd7c223aaa690dfbe9ee9553f3d00398135292beb98dcf50bad",
  "parentHash": "0x9af57bb6f969867788468651006d2544702ba594dd134f2fc1128cac54dbd0d3",
  "number": 121216,
  "timestamp": 1440173385,
  "nonce": "0x29cc9d6dff900eec",
  "difficulty": 4406394445506,
  "gasLimit": {
    "_hex": "0x2fefd8"
  },
  "gasUsed": {
    "_hex": "0x5208"
  },
  "miner": "0xe6A7a1d47ff21B6321162AEA7C6CB457D5476Bca",
  "extraData": "0xd783010002844765746887676f312e342e32856c696e7578",
  "transactions": [
    {
      "hash": "0x9bf53f02978ba3553b6d9bf5d1ee07c9d459928583d828bf6d9983bc8140bae2",
      "blockHash": "0x4d43ccdd0fefacd7c223aaa690dfbe9ee9553f3d00398135292beb98dcf50bad",
      "blockNumber": 121216,
      "transactionIndex": 0,
      "confirmations": null,
      "from": "0xf8c7f34A38b31801dA43063477B12B27d0F203ff",
      "gasPrice": {
        "_hex": "0xba43b7400"
      },
      "gasLimit": {
        "_hex": "0x15f90"
      },
      "to": "0xf3D7d4E1f943a6b10222B21E31da93203b8868cB",
      "value": {
        "_hex": "0xde0b6b3a7640000"
      },
      "nonce": 1,
      "data": "0x",
      "r": "0x28032625421df748bc8a6128553009027a9c2ad6e11face6d11b194f6505e4a3",
      "s": "0x020f3eafdbbce3d34b1840b04a042d17e18c956237ff72c9304abc9dfa6065d9",
      "v": 28,
      "creates": null,
      "raw": "0xf86d01850ba43b740083015f9094f3d7d4e1f943a6b10222b21e31da93203b8868cb880de0b6b3a7640000801ca028032625421df748bc8a6128553009027a9c2ad6e11face6d11b194f6505e4a3a0020f3eafdbbce3d34b1840b04a042d17e18c956237ff72c9304abc9dfa6065d9",
      "networkId": 0,
      "chainId": 0
    }
  ]
}