{
  "hash": "0xf2da3f9f772cee427087911857d71e61ea053fb026460b9ce0349bfe12db839b",
  "parentHash": "0xf3c636481e86bb37f036138ec23fca55ea3cc08a11b7ca8bc7014a7fb6d541c7",
  "number": 70651,
  "timestamp": 1439323337,
  "nonce": "0x3d92a79b706e1c56",
  "difficulty": 2140537971733,
  "gasLimit": {
    "_hex": "0x2fefd8"
  },
  "gasUsed": {
    "_hex": "0x5208"
  },
  "miner": "0xf927a40C8B7F6E07c5af7FA2155B4864a4112B13",
  "extraData": "0x",
  "transactions": [
    {
      "hash": "0x0c2e09a466ee53331f0f8c0d600158f521faac2adc32b00f0013c1d59e8da648",
      "blockHash": "0xf2da3f9f772cee427087911857d71e61ea053fb026460b9ce0349bfe12db839b",
      "blockNumber": 70651,
      "transactionIndex": 0,
      "confirmations": null,
      "from": "0xe408fceaa1b98F3C640f48fcbA39f056066D6308",
      "gasPrice": {
        "_hex": "0xe0057c2bf"
      },
      "gasLimit": {
        "_hex": "0x61a8"
      },
      "to": "0x50056353D06a71b1f427499419D04F81f5dE4F20",
      "value": {
        "_hex": "0xa29343658c33a10600"
      },
      "nonce": 5,
      "data": "0x",
      "r": "0x7870e8ee887c44de0bb69768bffac35ceb2d2e34c8decbd8ee9258acf9141b52",
      "s": "0x3f0400f15416828715f0720bb5a46a1e39a093416155d54dec87b13f47edb166",
      "v": 28,
      "creates": null,
      "raw": "0xf86d05850e0057c2bf8261a89450056353d06a71b1f427499419d04f81f5de4f2089a29343658c33a10600801ca07870e8ee887c44de0bb69768bffac35ceb2d2e34c8decbd8ee9258acf9141b52a03f0400f15416828715f0720bb5a46a1e39a093416155d54dec87b13f47edb166",
      "networkId": 0,
      "chainId": 0
    }
  ]
}