{
  "hash": "0xaeb71a53ccea9549aa5e0128434a634762465f1675e8760b90ce6f5609a0242b",
  "parentHash": "0x7c5ece41a341dc464e81c3c2d47ab22cb8814773f6b129fe84eecd4a33a924a7",
  "number": 105471,
  "timestamp": 1439888218,
  "nonce": "0x222d9385f797020b",
  "difficulty": 4391024737737,
  "gasLimit": {
    "_hex": "0x2fefd8"
  },
  "gasUsed": {
    "_hex": "0x5208"
  },
  "miner": "0xa70a9a7040d542C632D8e0bE7c5513A8a5Bbc752",
  "extraData": "0x",
  "transactions": [
    {
      "hash": "0x23fa0e7f7302dfd90689c149213489be1fb4eecee74d0098077ce8ad434d0a80",
      "blockHash": "0xaeb71a53ccea9549aa5e0128434a634762465f1675e8760b90ce6f5609a0242b",
      "blockNumber": 105471,
      "transactionIndex": 0,
      "confirmations": null,
      "from": "0x996369610F6aF04368872864ea319A09787B608D",
      "gasPrice": {
        "_hex": "0xcbbd4bc2d"
      },
      "gasLimit": {
        "_hex": "0x5208"
      },
      "to": "0x32Be343B94f860124dC4fEe278FDCBD38C102D88",
      "value": {
        "_hex": "0x3c5eb316a972c000"
      },
      "nonce": 1,
      "data": "0x",
      "r": "0xa2d87a8981ff2a880b0e765e9bcba59e69ec10e38f2108a5469b12c57bf7d6c3",
      "s": "0x25b7c40651d593c28517a0f2008bd949105ef773893ef5b11d6c0170cbaad0d2",
      "v": 28,
      "creates": null,
      "raw": "0xf86c01850cbbd4bc2d8252089432be343b94f860124dc4fee278fdcbd38c102d88883c5eb316a972c000801ca0a2d87a8981ff2a880b0e765e9bcba59e69ec10e38f2108a5469b12c57bf7d6c3a025b7c40651d593c28517a0f2008bd949105ef773893ef5b11d6c0170cbaad0d2",
      "networkId": 0,
      "chainId": 0
    }
  ]
}