{
  "hash": "0xcb119b1411519c91147ef8ea0e20d15fb4e5e4a8df61d078178da163c9f0e9cb",
  "parentHash": "0xddf7a332e9aca767da5938b8d29afd61181b723fd3787c54bb13fd28c7bff7bf",
  "number": 122131,
  "timestamp": 1440188661,
  "nonce": "0xdaeac22c2de62777",
  "difficulty": 4473112219968,
  "gasLimit": {
    "_hex": "0x2fefd8"
  },
  "gasUsed": {
    "_hex": "0x2b3d6"
  },
  "miner": "0x52bc44d5378309EE2abF1539BF71dE1b7d7bE3b5",
  "extraData": "0xd783010002844765746887676f312e342e32856c696e7578",
  "transactions": [
    {
      "hash": "0x20197511a0eb334114239c9158af012b8cb843ec1fa49cce8bf8605f22a06081",
      "blockHash": "0xcb119b1411519c91147ef8ea0e20d15fb4e5e4a8df61d078178da163c9f0e9cb",
      "blockNumber": 122131,
      "transactionIndex": 0,
      "confirmations": null,
      "from": "0x97D351634e7f843376938A697d736B86876c6709",
      "gasPrice": {
        "_hex": "0xcb01d1c24"
      },
      "gasLimit": {
        "_hex": "0x5208"
      },
      "to": "0x32Be343B94f860124dC4fEe278FDCBD38C102D88",
      "value": {
        "_hex": "0x14d109d879ac32000"
      },
      "nonce": 1,
      "data": "0x",
      "r": "0x2d2a13c88a00663ffb76eb449626f543ee22d3f489d02b1f2397e34c376228aa",
      "s": "0x140779902a24deff99f3280227501a7eb9a4891b8b72a4b8542b439a2d56ca44",
      "v": 27,
      "creates": null,
      "raw": "0xf86d01850cb01d1c248252089432be343b94f860124dc4fee278fdcbd38c102d8889014d109d879ac32000801ba02d2a13c88a00663ffb76eb449626f543ee22d3f489d02b1f2397e34c376228aaa0140779902a24deff99f3280227501a7eb9a4891b8b72a4b8542b439a2d56ca44",
      "networkId": 0,
      "chainId": 0
    },
    {
      "hash": "0x742818ee470504c5d8b208319b23f179670cf50c3ae333704f07ac3cfd36b855",
      "blockHash": "0xcb119b1411519c91147ef8ea0e20d15fb4e5e4a8df61d078178da163c9f0e9cb",
      "blockNumber": 122131,
      "transactionIndex": 1,
      "confirmations": null,
      "from": "0xf357482c5A92C7B2Cee6a157034362b7d7d88c5A",
      "gasPrice": {
        "_hex": "0xcb01d1c24"
      },
      "gasLimit": {
        "_hex": "0x5208"
      },
      "to": "0x32Be343B94f860124dC4fEe278FDCBD38C102D88",
      "value": {
        "_hex": "0x52f929825172a800"
      },
      "nonce": 6,
      "data": "0x",
      "r": "0xce056b0618c116bc3881fda8e781bfb70748cd262e0808343bfc337d226a39d3",
      "s": "0x7625d07df9c0cba74efaf6b11aa3be7f976a1957a5691f481106caa9eb4e2e60",
      "v": 27,
      "creates": null,
      "raw": "0xf86c06850cb01d1c248252089432be343b94f860124dc4fee278fdcbd38c102d888852f929825172a800801ba0ce056b0618c116bc3881fda8e781bfb70748cd262e0808343bfc337d226a39d3a07625d07df9c0cba74efaf6b11aa3be7f976a1957a5691f481106caa9eb4e2e60",
      "networkId": 0,
      "chainId": 0
    },
    {
      "hash": "0xff2ef595ac2ced3dc76ebe9f983f63e1bf61b3e3aed42ea8e37a31454a480fcb",
      "blockHash": "0xcb119b1411519c91147ef8ea0e20d15fb4e5e4a8df61d078178da163c9f0e9cb",
      "blockNumber": 122131,
      "transactionIndex": 2,
      "confirmations": null,
      "from": "0x574FDcb2165600BA7FcF526D999380208DB10382",
      "gasPrice": {
        "_hex": "0xba43b7400"
      },
      "gasLimit": {
        "_hex": "0x7a120"
      },
      "to": "0xBBDa93a81B882774e1c9b5e3F933Fa35DaC8bc88",
      "value": {
        "_hex": "0x8d8dadf544fc0000"
      },
      "nonce": 3,
      "data": "0x",
      "r": "0x1e63a01126c29c11f213c2cc6c00c8693ebef1116ab18e18a80e5f5028565550",
      "s": "0x1fbb05874635977104ac385a6f11976ae486cea9c60230c18a18ba91682bf6a1",
      "v": 28,
      "creates": null,
      "raw": "0xf86d03850ba43b74008307a12094bbda93a81b882774e1c9b5e3f933fa35dac8bc88888d8dadf544fc0000801ca01e63a01126c29c11f213c2cc6c00c8693ebef1116ab18e18a80e5f5028565550a01fbb05874635977104ac385a6f11976ae486cea9c60230c18a18ba91682bf6a1",
      "networkId": 0,
      "chainId": 0
    },
    {
      "hash": "0x2cd31af8114d1386775494fe337a03878c60a750a62e41ebaaa9e6648d07dea5",
      "blockHash": "0xcb119b1411519c91147ef8ea0e20d15fb4e5e4a8df61d078178da163c9f0e9cb",
      "blockNumber": 122131,
      "transactionIndex": 3,
      "confirmations": null,
      "from": "0xde25D0f817a0342BE805A9e51Fd0eD9D55bCB0f4",
      "gasPrice": {
        "_hex": "0xba43b7400"
      },
      "gasLimit": {
        "_hex": "0x249f0"
      },
      "to": "0xE28e72FCf78647ADCe1F1252F240bbfaebD63BcC",
      "value": {
        "_hex": "0x3782dace9d900000"
      },
      "nonce": 0,
      "data": "0x45466f3a",
      "r": "0x067d5338ec24a905a5397a70835179e071558cdbac7f08058a91232afa7d0f74",
      "s": "0x647a6ce986924610d2980d6868be19c39b70081382390566799949d7e0fad31a",
      "v": 28,
      "creates": null,
      "raw": "0xf87180850ba43b7400830249f094e28e72fcf78647adce1f1252f240bbfaebd63bcc883782dace9d9000008445466f3a1ca0067d5338ec24a905a5397a70835179e071558cdbac7f08058a91232afa7d0f74a0647a6ce986924610d2980d6868be19c39b70081382390566799949d7e0fad31a",
      "networkId": 0,
      "chainId": 0
    }
  ]
}