{
  "hash": "0x15ba1bcac2ca58a88613909284cdc0e2506f1bb797f41e8ada443fcd66438757",
  "parentHash": "0x2f3d01b0cfc63a4f5984d1ac9d3eff66374b31f3ea4161f0c5fbc116dda011db",
  "number": 107168,
  "timestamp": 1439917350,
  "nonce": "0xad1c0ecccad4369c",
  "difficulty": 4461449037875,
  "gasLimit": {
    "_hex": "0x2fefd8"
  },
  "gasUsed": {
    "_hex": "0x5208"
  },
  "miner": "0xe6A7a1d47ff21B6321162AEA7C6CB457D5476Bca",
  "extraData": "0x476574682f76312e302e312d38326566323666362f6c696e75782f676f312e34",
  "transactions": [
    {
      "hash": "0x52e418e9ce26c9a16b39054286517b656c188d6af242e08c592e0376e9499280",
      "blockHash": "0x15ba1bcac2ca58a88613909284cdc0e2506f1bb797f41e8ada443fcd66438757",
      "blockNumber": 107168,
      "transactionIndex": 0,
      "confirmations": null,
      "from": "0xa70a9a7040d542C632D8e0bE7c5513A8a5Bbc752",
      "gasPrice": {
        "_hex": "0xd41061643"
      },
      "gasLimit": {
        "_hex": "0x5208"
      },
      "to": "0x32Be343B94f860124dC4fEe278FDCBD38C102D88",
      "value": {
        "_hex": "0x34066de2a32a2000"
      },
      "nonce": 253,
      "data": "0x",
      "r": "0x896272b5abca2cfbb58465c4a50ba41e9be059dc82433137cf78c10b088c96f3",
      "s": "0x1140988615beb4ffc53e7b30ecb72468eb5d3e9b5bf1e5b338f536779ae69795",
      "v": 28,
      "creates": null,
      "raw": "0xf86d81fd850d410616438252089432be343b94f860124dc4fee278fdcbd38c102d888834066de2a32a2000801ca0896272b5abca2cfbb58465c4a50ba41e9be059dc82433137cf78c10b088c96f3a01140988615beb4ffc53e7b30ecb72468eb5d3e9b5bf1e5b338f536779ae69795",
      "networkId": 0,
      "chainId": 0
    }
  ]
}