{
  "hash": "0x17ee8c277d6d2a4eec8a1bb2bdd7163adfcc28bfa80055db2434345bdaec5d03",
  "parentHash": "0xb051b578ec3262bbe685c6551614de1d83b85d3f4eabf061680619fa39af26b8",
  "number": 116013,
  "timestamp": 1440066899,
  "nonce": "0x19f57bbd814b0973",
  "difficulty": 4600465468229,
  "gasLimit": {
    "_hex": "0x2fefd8"
  },
  "gasUsed": {
    "_hex": "0x30db2"
  },
  "miner": "0xC603Ab5ef41fC61AA8b76bEddb09e3Cfcbb174BD",
  "extraData": "0x476574682f76312e302e312f77696e646f77732f676f312e342e32",
  "transactions": [
    {
      "hash": "0xc20b98f1d65a992543d5df1471b1927ea0464a25e4ab0561d33db57744713d3b",
      "blockHash": "0x17ee8c277d6d2a4eec8a1bb2bdd7163adfcc28bfa80055db2434345bdaec5d03",
      "blockNumber": 116013,
      "transactionIndex": 0,
      "confirmations": null,
      "from": "0xC876c021eCE519A8CB7D3d1b8EEa2D1cEE9929Ba",
      "gasPrice": {
        "_hex": "0xd4fa50b15"
      },
      "gasLimit": {
        "_hex": "0xf4240"
      },
      "to": null,
      "value": {
        "_hex": "0x0"
      },
      "nonce": 3,
      "data": "0x606060405260405161029b38038061029b8339016040526060805160600190602001805190602001805190602001505b5b33600060006101000a81548173ffffffffffffffffffffffffffffffffffffffff021916908302179055505b81600160005081905550826002600050908051906020019082805482825590600052602060002090810192821560b0579160200282015b8281111560af5782518260005055916020019190600101906093565b5b50905060d7919060bb565b8082111560d3576000818150600090555060010160bb565b5090565b50505b5050506101af806100ec6000396000f30060606040526000357c010000000000000000000000000000000000000000000000000000000090048063370158ea1461004457806341c0e1b51461009957610042565b005b61004f60045061013a565b60405180806020018281038252838181518152602001915080519060200190602002808383829060006004602084601f0104600302600f01f1509050019250505060405180910390f35b6100a46004506100a6565b005b600060009054906101000a900473ffffffffffffffffffffffffffffffffffffffff1673ffffffffffffffffffffffffffffffffffffffff163373ffffffffffffffffffffffffffffffffffffffff16141561013757600060009054906101000a900473ffffffffffffffffffffffffffffffffffffffff1673ffffffffffffffffffffffffffffffffffffffff16ff5b5b565b602060405190810160405280600081526020015060026000508054806020026020016040519081016040528092919081815260200182805480156101a057602002820191906000526020600020905b816000505481526020019060010190808311610189575b505050505090506101ac565b9056",
      "r": "0xef6a1b1f91e459ea9b4acc8d2530a528d188807aae702aa89a33ae9eff3412cf",
      "s": "0x53084c67392848075681ade2d2de47eb95f1615e076d8025d2596d085985d6d8",
      "v": 27,
      "creates": "0x29a7750c825aef71c50f3e04f0A47093317CF22e",
      "raw": "0xf902ee03850d4fa50b15830f42408080b9029b606060405260405161029b38038061029b8339016040526060805160600190602001805190602001805190602001505b5b33600060006101000a81548173ffffffffffffffffffffffffffffffffffffffff021916908302179055505b81600160005081905550826002600050908051906020019082805482825590600052602060002090810192821560b0579160200282015b8281111560af5782518260005055916020019190600101906093565b5b50905060d7919060bb565b8082111560d3576000818150600090555060010160bb565b5090565b50505b5050506101af806100ec6000396000f30060606040526000357c010000000000000000000000000000000000000000000000000000000090048063370158ea1461004457806341c0e1b51461009957610042565b005b61004f60045061013a565b60405180806020018281038252838181518152602001915080519060200190602002808383829060006004602084601f0104600302600f01f1509050019250505060405180910390f35b6100a46004506100a6565b005b600060009054906101000a900473ffffffffffffffffffffffffffffffffffffffff1673ffffffffffffffffffffffffffffffffffffffff163373ffffffffffffffffffffffffffffffffffffffff16141561013757600060009054906101000a900473ffffffffffffffffffffffffffffffffffffffff1673ffffffffffffffffffffffffffffffffffffffff16ff5b5b565b602060405190810160405280600081526020015060026000508054806020026020016040519081016040528092919081815260200182805480156101a057602002820191906000526020600020905b816000505481526020019060010190808311610189575b505050505090506101ac565b90561ba0ef6a1b1f91e459ea9b4acc8d2530a528d188807aae702aa89a33ae9eff3412cfa053084c67392848075681ade2d2de47eb95f1615e076d8025d2596d085985d6d8",
      "networkId": 0,
      "chainId": 0
    },
    {
      "hash": "0xe9cc626cfac33248e124a1461f9928983fbcbba0b388e795703902fb551e25ca",
      "blockHash": "0x17ee8c277d6d2a4eec8a1bb2bdd7163adfcc28bfa80055db2434345bdaec5d03",
      "blockNumber": 116013,
      "transactionIndex": 1,
      "confirmations": null,
      "from": "0x3048a8bFee849B0F52475259ee76Eaf20BD985a3",
      "gasPrice": {
        "_hex": "0xd2d897b75"
      },
      "gasLimit": {
        "_hex": "0x15f90"
      },
      "to": "0x162aee465C87cB9753b81F5e9B4Bf03A69196847",
      "value": {
        "_hex": "0x16345785d8a0000"
      },
      "nonce": 2,
      "data": "0x",
      "r": "0xd7d860ecb53fdddc653fd22679972d8f544e4f2191701c499297bf68bca5c8c0",
      "s": "0x1276a977beb38dcda441957bb4d5622b4c244201cef7a33ae82e554522041795",
      "v": 27,
      "creates": null,
      "raw": "0xf86d02850d2d897b7583015f9094162aee465c87cb9753b81f5e9b4bf03a6919684788016345785d8a0000801ba0d7d860ecb53fdddc653fd22679972d8f544e4f2191701c499297bf68bca5c8c0a01276a977beb38dcda441957bb4d5622b4c244201cef7a33ae82e554522041795",
      "networkId": 0,
      "chainId": 0
    }
  ]
}