{
  "hash": "0xd4223372dbc487bba3d56c2fed0715ca042963fc7db890268cc438215782070e",
  "parentHash": "0x7df84785a7800fa8fe44525bee7ab1a14e45313e54145c9d1859856ee05c960d",
  "number": 67339,
  "timestamp": 1439270317,
  "nonce": "0x19e7fdf532cf5213",
  "difficulty": 1923276272665,
  "gasLimit": {
    "_hex": "0x2fefd8"
  },
  "gasUsed": {
    "_hex": "0x5208"
  },
  "miner": "0x39A1BB80a741bF5EC39FB9BE59408Fa0F418fFBf",
  "extraData": "0x476574682f76312e302e312f77696e646f77732f676f312e342e32",
  "transactions": [
    {
      "hash": "0x7f5c25cfceda5b8506b249db0ed05dfdff418327b6bcd99aaf35002714254039",
      "blockHash": "0xd4223372dbc487bba3d56c2fed0715ca042963fc7db890268cc438215782070e",
      "blockNumber": 67339,
      "transactionIndex": 0,
      "confirmations": null,
      "from": "0x60664De32450711A29F363c14A76107111689e17",
      "gasPrice": {
        "_hex": "0xd88868711"
      },
      "gasLimit": {
        "_hex": "0x5208"
      },
      "to": "0x32Be343B94f860124dC4fEe278FDCBD38C102D88",
      "value": {
        "_hex": "0x3635c5579dcd120000"
      },
      "nonce": 0,
      "data": "0x",
      "r": "0xb5ab4b45486981fe63f63546dd5d8bb75727c5b2507615320842767c06ffd518",
      "s": "0x6bf1f5fdcceb6a5ce91876c3b0618f1d0477bd9098eb1457b38aeb36126b539f",
      "v": 27,
      "creates": null,
      "raw": "0xf86d80850d888687118252089432be343b94f860124dc4fee278fdcbd38c102d88893635c5579dcd120000801ba0b5ab4b45486981fe63f63546dd5d8bb75727c5b2507615320842767c06ffd518a06bf1f5fdcceb6a5ce91876c3b0618f1d0477bd9098eb1457b38aeb36126b539f",
      "networkId": 0,
      "chainId": 0
    }
  ]
}