{
  "hash": "0x79fde5826e85c731dcc3d19b9d140e8460a4d87ad573ddd51434afd80d02c4cc",
  "parentHash": "0x010904b8cac923015f49f3ab5094c3a35fc8c3f443ee8c3ceb0d884b03e52bb7",
  "number": 65082,
  "timestamp": 1439230908,
  "nonce": "0x400f6a9bb697aeeb",
  "difficulty": 1932266586133,
  "gasLimit": {
    "_hex": "0x2fefd8"
  },
  "gasUsed": {
    "_hex": "0xf618"
  },
  "miner": "0xB6be56962eab062fC2A764216eEd2Bf07ea1bd92",
  "extraData": "0x476574682f76312e302e312d37666266393930632f6c696e75782f676f312e34",
  "transactions": [
    {
      "hash": "0x504ab42cd37b92480709cf32c5d271a334f1aa4edd60841c740d8afac5a37f7f",
      "blockHash": "0x79fde5826e85c731dcc3d19b9d140e8460a4d87ad573ddd51434afd80d02c4cc",
      "blockNumber": 65082,
      "transactionIndex": 0,
      "confirmations": null,
      "from": "0x90F7e7d1E7411BCF05271E68cb58C97D075035Ba",
      "gasPrice": {
        "_hex": "0xdaa225e5c"
      },
      "gasLimit": {
        "_hex": "0x15f90"
      },
      "to": "0x6B4971F56172Fe56565FD3d6b56F8CA3C91B2baD",
      "value": {
        "_hex": "0x2a5c39d3b7a66c"
      },
      "nonce": 1,
      "data": "0x",
      "r": "0x188eac29400e0325d89ea86d736fa1383d240e1e8c38ed691d0a09a7959390cf",
      "s": "0x2bbcb26581a3c4e608ed9a9009e89738fc9b0aa97c9fa0c7440feb649458278d",
      "v": 28,
      "creates": null,
      "raw": "0xf86c01850daa225e5c83015f90946b4971f56172fe56565fd3d6b56f8ca3c91b2bad872a5c39d3b7a66c801ca0188eac29400e0325d89ea86d736fa1383d240e1e8c38ed691d0a09a7959390cfa02bbcb26581a3c4e608ed9a9009e89738fc9b0aa97c9fa0c7440feb649458278d",
      "networkId": 0,
      "chainId": 0
    },
    {
      "hash": "0x0f2844be9d8a21d4904e491f02a7de2ef938da7704f9ab9471ae50bfcb3f4ad7",
      "blockHash": "0x79fde5826e85c731dcc3d19b9d140e8460a4d87ad573ddd51434afd80d02c4cc",
      "blockNumber": 65082,
      "transactionIndex": 1,
      "confirmations": null,
      "from": "0xdcBB43252786631B2ecD687720AfE370fcD203fC",
      "gasPrice": {
        "_hex": "0xd883cc1c0"
      },
      "gasLimit": {
        "_hex": "0x15f90"
      },
      "to": "0x6B4971F56172Fe56565FD3d6b56F8CA3C91B2baD",
      "value": {
        "_hex": "0x2a5c39d3b7a66c"
      },
      "nonce": 1,
      "data": "0x",
      "r": "0x5a8bf76118528dd306c20394acb17f36820b162ec03492dbbd732b4d2da97d07",
      "s": "0x7e4a20ecec2c847e3ab6e7ca36f3e04f560575eeeb618b085f69508242370988",
      "v": 27,
      "creates": null,
      "raw": "0xf86c01850d883cc1c083015f90946b4971f56172fe56565fd3d6b56f8ca3c91b2bad872a5c39d3b7a66c801ba05a8bf76118528dd306c20394acb17f36820b162ec03492dbbd732b4d2da97d07a07e4a20ecec2c847e3ab6e7ca36f3e04f560575eeeb618b085f69508242370988",
      "networkId": 0,
      "chainId": 0
    },
    {
      "hash": "0x0047ef37dfd966e5e73c87190415b7a2512c5d803f98c67b3f999f8128a8a44a",
      "blockHash": "0x79fde5826e85c731dcc3d19b9d140e8460a4d87ad573ddd51434afd80d02c4cc",
      "blockNumber": 65082,
      "transactionIndex": 2,
      "confirmations": null,
      "from": "0xfEf75e7815A4440D1Ba1f075d70978181C84eF5B",
      "gasPrice": {
        "_hex": "0xd883cc1c0"
      },
      "gasLimit": {
        "_hex": "0x15f90"
      },
      "to": "0x6B4971F56172Fe56565FD3d6b56F8CA3C91B2baD",
      "value": {
        "_hex": "0x2a5c39d3b7a66c"
      },
      "nonce": 1,
      "data": "0x",
      "r": "0x0036a24020b95bf2750eb7f167fb69b40ad75c9585670a6d7d85991cf7812989",
      "s": "0x378b84b2306369e193b15d6088c370c0580b83b868ef458e9f5646463e58588b",
      "v": 28,
      "creates": null,
      "raw": "0xf86b01850d883cc1c083015f90946b4971f56172fe56565fd3d6b56f8ca3c91b2bad872a5c39d3b7a66c801c9f36a24020b95bf2750eb7f167fb69b40ad75c9585670a6d7d85991cf7812989a0378b84b2306369e193b15d6088c370c0580b83b868ef458e9f5646463e58588b",
      "networkId": 0,
      "chainId": 0
    }
  ]
}