{
  "hash": "0xc166f3d2870f28cb73e55d2de3f80b42e3414e4d92f1559e767c62b8bcbf7266",
  "parentHash": "0xae13ded6dee4ea0ac009f77b843698c4519537700078a87e97405eebf6350635",
  "number": 98940,
  "timestamp": 1439781538,
  "nonce": "0xa337b32a8afa2e05",
  "difficulty": 3853545041410,
  "gasLimit": {
    "_hex": "0x2fefd8"
  },
  "gasUsed": {
    "_hex": "0x5208"
  },
  "miner": "0xC603Ab5ef41fC61AA8b76bEddb09e3Cfcbb174BD",
  "extraData": "0x476574682f76312e302e312f77696e646f77732f676f312e342e32",
  "transactions": [
    {
      "hash": "0x5e738a3fc8166dd9e9400d05849e9d5165b436ea8204687691628f7c64d1366a",
      "blockHash": "0xc166f3d2870f28cb73e55d2de3f80b42e3414e4d92f1559e767c62b8bcbf7266",
      "blockNumber": 98940,
      "transactionIndex": 0,
      "confirmations": null,
      "from": "0xD9666150A9dA92d9108198a4072970805a8B3428",
      "gasPrice": {
        "_hex": "0xd857a1233"
      },
      "gasLimit": {
        "_hex": "0x5208"
      },
      "to": "0x32Be343B94f860124dC4fEe278FDCBD38C102D88",
      "value": {
        "_hex": "0x455f3c55a86ad400"
      },
      "nonce": 33,
      "data": "0x",
      "r": "0x70dc7516cd38fb8c98da1011ad4151876add5294428a30402719629093196fdf",
      "s": "0x0960439ce1258cde3276d681428af98010bfd2be694161a1c10989458210ae61",
      "v": 28,
      "creates": null,
      "raw": "0xf86c21850d857a12338252089432be343b94f860124dc4fee278fdcbd38c102d8888455f3c55a86ad400801ca070dc7516cd38fb8c98da1011ad4151876add5294428a30402719629093196fdfa00960439ce1258cde3276d681428af98010bfd2be694161a1c10989458210ae61",
      "networkId": 0,
      "chainId": 0
    }
  ]
}