{
  "hash": "0x22c6bde33d4107e25c94225092925b561d91baa7112c08e22c0ef2d15e62e5af",
  "parentHash": "0x1948d0c931442ea93f5ffb1660ddf269b7c82f63a9b4ebce833da91df807e8bb",
  "number": 110916,
  "timestamp": 1439981646,
  "nonce": "0xc9fe81044003a6cb",
  "difficulty": 4407501881821,
  "gasLimit": {
    "_hex": "0x2fefd8"
  },
  "gasUsed": {
    "_hex": "0x5208"
  },
  "miner": "0x56A1018A2F565672E98f4cB657cEB8059ff3E5a2",
  "extraData": "0x476574682f76312e302e312f77696e646f77732f676f312e342e32",
  "transactions": [
    {
      "hash": "0xd9acce462148fa6fdb5841a50c73877825eb72a24112023ee5ddbaf28784e9b3",
      "blockHash": "0x22c6bde33d4107e25c94225092925b561d91baa7112c08e22c0ef2d15e62e5af",
      "blockNumber": 110916,
      "transactionIndex": 0,
      "confirmations": null,
      "from": "0xDb8207d158c5396E26545A979C7A788852f81Eb6",
      "gasPrice": {
        "_hex": "0xd0999b4d2"
      },
      "gasLimit": {
        "_hex": "0x5208"
      },
      "to": "0xFBb1b73C4f0BDa4f67dcA266ce6Ef42f520fBB98",
      "value": {
        "_hex": "0x3afac5a3cedd71570"
      },
      "nonce": 1,
      "data": "0x",
      "r": "0xd41cc59dea0f29c3d4a1a7a20826a8f118f801b0c45c67907f254b152bb47cab",
      "s": "0x4ea2f1c8b22d673fa7ec2ba27f065ffbd0fdd5633249ffdd3c6a1f7fc7f56b78",
      "v": 27,
      "creates": null,
      "raw": "0xf86d01850d0999b4d282520894fbb1b73c4f0bda4f67dca266ce6ef42f520fbb988903afac5a3cedd71570801ba0d41cc59dea0f29c3d4a1a7a20826a8f118f801b0c45c67907f254b152bb47caba04ea2f1c8b22d673fa7ec2ba27f065ffbd0fdd5633249ffdd3c6a1f7fc7f56b78",
      "networkId": 0,
      "chainId": 0
    }
  ]
}