{
  "hash": "0x8a0b981eb09aebd67f51d9bdf61d18d2ca0e07add2a10408067d3e7514fa3f60",
  "parentHash": "0xf517b5de24f86b728c7d41f709e6c0ea552e4d026d969a8dc8f62cb8657a032f",
  "number": 104313,
  "timestamp": 1439867751,
  "nonce": "0xa91d5ef7de913829",
  "difficulty": 4285711597000,
  "gasLimit": {
    "_hex": "0x2fefd8"
  },
  "gasUsed": {
    "_hex": "0xf618"
  },
  "miner": "0x580992B51e3925e23280EfB93d3047C82f17E038",
  "extraData": "0x476574682f76312e302e312f6c696e75782f676f312e342e32",
  "transactions": [
    {
      "hash": "0x2c171db3754e6c1a460ddb548df100285c4a624d01bd912b879276b05bcd1cc4",
      "blockHash": "0x8a0b981eb09aebd67f51d9bdf61d18d2ca0e07add2a10408067d3e7514fa3f60",
      "blockNumber": 104313,
      "transactionIndex": 0,
      "confirmations": null,
      "from": "0xa61ff394e3846F8bfbBF8801afb051730B04Ee75",
      "gasPrice": {
        "_hex": "0xd4e4eefba"
      },
      "gasLimit": {
        "_hex": "0x5208"
      },
      "to": "0x32Be343B94f860124dC4fEe278FDCBD38C102D88",
      "value": {
        "_hex": "0x455f4e03e2b63400"
      },
      "nonce": 9,
      "data": "0x",
      "r": "0x4631c80ea02ec6ba6f3bb938bfb441cd9127cd1a6746fe1097ac56e7472077ef",
      "s": "0x6b819a1f4265d367c909685aa4d298f59358222cf41a72c5673f629a8c54dde4",
      "v": 28,
      "creates": null,
      "raw": "0xf86c09850d4e4eefba8252089432be343b94f860124dc4fee278fdcbd38c102d8888455f4e03e2b63400801ca04631c80ea02ec6ba6f3bb938bfb441cd9127cd1a6746fe1097ac56e7472077efa06b819a1f4265d367c909685aa4d298f59358222cf41a72c5673f629a8c54dde4",
      "networkId": 0,
      "chainId": 0
    },
    {
      "hash": "0x85ad4b1bef365e954442618d58d2ec2f4789dbb7fcd9093f77ce135f53e1aa0a",
      "blockHash": "0x8a0b981eb09aebd67f51d9bdf61d18d2ca0e07add2a10408067d3e7514fa3f60",
      "blockNumber": 104313,
      "transactionIndex": 1,
      "confirmations": null,
      "from": "0x480fC9313233A9a1896eDd5109FccA26b79dB731",
      "gasPrice": {
        "_hex": "0xd4e4eefba"
      },
      "gasLimit": {
        "_hex": "0x5208"
      },
      "to": "0x32Be343B94f860124dC4fEe278FDCBD38C102D88",
      "value": {
        "_hex": "0x101d70164c1cc00"
      },
      "nonce": 1,
      "data": "0x",
      "r": "0xf2c2343836f762619458aab4aad07d551a95b644260243157cf30b102b823c12",
      "s": "0x346daebb3e4830d761b69f64396f77777c90a737ab11db11559437bff1c89e43",
      "v": 27,
      "creates": null,
      "raw": "0xf86c01850d4e4eefba8252089432be343b94f860124dc4fee278fdcbd38c102d88880101d70164c1cc00801ba0f2c2343836f762619458aab4aad07d551a95b644260243157cf30b102b823c12a0346daebb3e4830d761b69f64396f77777c90a737ab11db11559437bff1c89e43",
      "networkId": 0,
      "chainId": 0
    },
    {
      "hash": "0xf65aa6f06b929701e79065006572045e0b8845409c53e4ed3ba2286c6686f267",
      "blockHash": "0x8a0b981eb09aebd67f51d9bdf61d18d2ca0e07add2a10408067d3e7514fa3f60",
      "blockNumber": 104313,
      "transactionIndex": 2,
      "confirmations": null,
      "from": "0xB8c0A44350E1d3e55c01486d15877889e17D1030",
      "gasPrice": {
        "_hex": "0xd4e4eefba"
      },
      "gasLimit": {
        "_hex": "0x5208"
      },
      "to": "0x32Be343B94f860124dC4fEe278FDCBD38C102D88",
      "value": {
        "_hex": "0xdb1d14337cc5000"
      },
      "nonce": 0,
      "data": "0x",
      "r": "0x939f38bf0f9f6641e21b2f399a734d6d0faec2aed5cfb4cb51e6e008788f812f",
      "s": "0x7370e7a3a2eaced4ffa24244bca3b09302a0fc97daa4d8389fd24aec044ce08f",
      "v": 28,
      "creates": null,
      "raw": "0xf86c80850d4e4eefba8252089432be343b94f860124dc4fee278fdcbd38c102d88880db1d14337cc5000801ca0939f38bf0f9f6641e21b2f399a734d6d0faec2aed5cfb4cb51e6e008788f812fa07370e7a3a2eaced4ffa24244bca3b09302a0fc97daa4d8389fd24aec044ce08f",
      "networkId": 0,
      "chainId": 0
    }
  ]
}