{
  "hash": "0x8c68f70566af8169214b0cee7193ab90bc13423e9c1c07766634f3366d548cc3",
  "parentHash": "0x3a4b74031790ff8e1781978f337a242840b56d5ec8d1de92b5ccd5165b03aee2",
  "number": 112760,
  "timestamp": 1440012724,
  "nonce": "0x9621f91a85f21fdb",
  "difficulty": 4445433117556,
  "gasLimit": {
    "_hex": "0x2fefd8"
  },
  "gasUsed": {
    "_hex": "0xf618"
  },
  "miner": "0x52bc44d5378309EE2abF1539BF71dE1b7d7bE3b5",
  "extraData": "0x476574682f76312e302e312d62396261633631392f6c696e75782f676f312e34",
  "transactions": [
    {
      "hash": "0x145dd4551e8fa40b082f60ec2c5651fa43fe5c7b06991c048697eea39368fbf3",
      "blockHash": "0x8c68f70566af8169214b0cee7193ab90bc13423e9c1c07766634f3366d548cc3",
      "blockNumber": 112760,
      "transactionIndex": 0,
      "confirmations": null,
      "from": "0x187b1f47Cd55b27878699DfCDCee2234cD49E97e",
      "gasPrice": {
        "_hex": "0xdcfd79222"
      },
      "gasLimit": {
        "_hex": "0x5208"
      },
      "to": "0x32Be343B94f860124dC4fEe278FDCBD38C102D88",
      "value": {
        "_hex": "0x182600eb10d53c000"
      },
      "nonce": 10,
      "data": "0x",
      "r": "0xeb90d4a99fb0d6ab7c9a335999118be636921badc0d87308dae931efe82c6863",
      "s": "0x35c93a739c0168c5ce9c5daf3c91adcdd86ffe0fed14b2c0d0c7d40caca41c53",
      "v": 28,
      "creates": null,
      "raw": "0xf86d0a850dcfd792228252089432be343b94f860124dc4fee278fdcbd38c102d88890182600eb10d53c000801ca0eb90d4a99fb0d6ab7c9a335999118be636921badc0d87308dae931efe82c6863a035c93a739c0168c5ce9c5daf3c91adcdd86ffe0fed14b2c0d0c7d40caca41c53",
      "networkId": 0,
      "chainId": 0
    },
    {
      "hash": "0x3db6afc578288919318ea9e0c1a5d0f88e21b9c1e8e5b6b75f15b08615734ff4",
      "blockHash": "0x8c68f70566af8169214b0cee7193ab90bc13423e9c1c07766634f3366d548cc3",
      "blockNumber": 112760,
      "transactionIndex": 1,
      "confirmations": null,
      "from": "0x3b09EfC81d5e3F72737B4063883CEDdfBc79ae88",
      "gasPrice": {
        "_hex": "0xdcfd79222"
      },
      "gasLimit": {
        "_hex": "0x5208"
      },
      "to": "0x32Be343B94f860124dC4fEe278FDCBD38C102D88",
      "value": {
        "_hex": "0x2aa7d05d562d5400"
      },
      "nonce": 8,
      "data": "0x",
      "r": "0xad624053b1cc2811e1e075413fc0dc13bcbddedada7c9389db385686743b07fb",
      "s": "0x496930bf5cc6574e27dc3ba05f10e371de35a9ace670b5a4994e0730a67d7811",
      "v": 28,
      "creates": null,
      "raw": "0xf86c08850dcfd792228252089432be343b94f860124dc4fee278fdcbd38c102d88882aa7d05d562d5400801ca0ad624053b1cc2811e1e075413fc0dc13bcbddedada7c9389db385686743b07fba0496930bf5cc6574e27dc3ba05f10e371de35a9ace670b5a4994e0730a67d7811",
      "networkId": 0,
      "chainId": 0
    },
    {
      "hash": "0x9b97a3d92f6d86274de7ab6a8d261c8b5b42dffc921048e5eda4aa3a2429dc91",
      "blockHash": "0x8c68f70566af8169214b0cee7193ab90bc13423e9c1c07766634f3366d548cc3",
      "blockNumber": 112760,
      "transactionIndex": 2,
      "confirmations": null,
      "from": "0xE7dAdedf7cEBAaBa85903823D254601B1D459C9B",
      "gasPrice": {
        "_hex": "0xdcfd79222"
      },
      "gasLimit": {
        "_hex": "0x5208"
      },
      "to": "0x32Be343B94f860124dC4fEe278FDCBD38C102D88",
      "value": {
        "_hex": "0x30cb4fc24b658c00"
      },
      "nonce": 6,
      "data": "0x",
      "r": "0xb0869ed29aaf037a8b5a338712316f000774f97c3c7bb1bee4e2603b62a2ef1f",
      "s": "0x2efb874ee9b92d093712adc2d7770f47176137b6192bf825a58e7d4932fae8a3",
      "v": 27,
      "creates": null,
      "raw": "0xf86c06850dcfd792228252089432be343b94f860124dc4fee278fdcbd38c102d888830cb4fc24b658c00801ba0b0869ed29aaf037a8b5a338712316f000774f97c3c7bb1bee4e2603b62a2ef1fa02efb874ee9b92d093712adc2d7770f47176137b6192bf825a58e7d4932fae8a3",
      "networkId": 0,
      "chainId": 0
    }
  ]
}