{
  "hash": "0x07b45e18047efeb98f01cefab2a78add524a3e3ba6cd9ae1fe8a03f394bec432",
  "parentHash": "0xa78de2e013c80347c0a1f857fd77a959ba193f1be0e2003c1c2daaf976640d9f",
  "number": 52135,
  "timestamp": 1439016809,
  "nonce": "0x93fb0d044f29e869",
  "difficulty": 1555777433111,
  "gasLimit": {
    "_hex": "0x108109"
  },
  "gasUsed": {
    "_hex": "0xf618"
  },
  "miner": "0xa50ec0D39fa913E62f1Bae7074E6F36caA71855b",
  "extraData": "0x",
  "transactions": [
    {
      "hash": "0x732887f1b0d02134732065fd35c29213cde27ca707ca56bbbd3071200f025d60",
      "blockHash": "0x07b45e18047efeb98f01cefab2a78add524a3e3ba6cd9ae1fe8a03f394bec432",
      "blockNumber": 52135,
      "transactionIndex": 0,
      "confirmations": null,
      "from": "0x1c7214DE5162a5606CF124ed3A8c3556b1899804",
      "gasPrice": {
        "_hex": "0xd4fe84e81"
      },
      "gasLimit": {
        "_hex": "0x5208"
      },
      "to": "0x32Be343B94f860124dC4fEe278FDCBD38C102D88",
      "value": {
        "_hex": "0x104351d685104c0000"
      },
      "nonce": 4,
      "data": "0x",
      "r": "0x1c2d5c61b25217fec18f155d6f875300f8a1877592b1f064297c95648720f025",
      "s": "0x30ee5d9fda1680f519b6832b0f15c58c58aa50b3b64e5a9dc8d4c91a312b4cec",
      "v": 28,
      "creates": null,
      "raw": "0xf86d04850d4fe84e818252089432be343b94f860124dc4fee278fdcbd38c102d8889104351d685104c0000801ca01c2d5c61b25217fec18f155d6f875300f8a1877592b1f064297c95648720f025a030ee5d9fda1680f519b6832b0f15c58c58aa50b3b64e5a9dc8d4c91a312b4cec",
      "networkId": 0,
      "chainId": 0
    },
    {
      "hash": "0x6a52f17f24be3f14681b5a1803820f0027d2ea3075482566b999bd6ff8415903",
      "blockHash": "0x07b45e18047efeb98f01cefab2a78add524a3e3ba6cd9ae1fe8a03f394bec432",
      "blockNumber": 52135,
      "transactionIndex": 1,
      "confirmations": null,
      "from": "0x32Be343B94f860124dC4fEe278FDCBD38C102D88",
      "gasPrice": {
        "_hex": "0xd4fe84e81"
      },
      "gasLimit": {
        "_hex": "0x5208"
      },
      "to": "0xAd7F5C601260b460ADAC6A54411Ca6Cf07dC83c3",
      "value": {
        "_hex": "0xdbd2fc137a30000"
      },
      "nonce": 3,
      "data": "0x",
      "r": "0x41cc61dbc557229a5419d95de91eef61d6918b8f8b078c7a0d2aca035d0e46aa",
      "s": "0x41a8d26d90f6b4fc0b4e09da29b2d7b49917c37dfcc4c1942b83685e6830824e",
      "v": 28,
      "creates": null,
      "raw": "0xf86c03850d4fe84e8182520894ad7f5c601260b460adac6a54411ca6cf07dc83c3880dbd2fc137a30000801ca041cc61dbc557229a5419d95de91eef61d6918b8f8b078c7a0d2aca035d0e46aaa041a8d26d90f6b4fc0b4e09da29b2d7b49917c37dfcc4c1942b83685e6830824e",
      "networkId": 0,
      "chainId": 0
    },
    {
      "hash": "0xa3051b0f01432fbf42d940d39f679599326716ed992ee9fc9ef305672476c5cb",
      "blockHash": "0x07b45e18047efeb98f01cefab2a78add524a3e3ba6cd9ae1fe8a03f394bec432",
      "blockNumber": 52135,
      "transactionIndex": 2,
      "confirmations": null,
      "from": "0xFEc14e5485dE2B3eEf5e74C46146dB8e454E0335",
      "gasPrice": {
        "_hex": "0xd32ade5fd"
      },
      "gasLimit": {
        "_hex": "0x15f90"
      },
      "to": "0x55eeb8fb7dDf70493b2B210204f5134eFb734Fe6",
      "value": {
        "_hex": "0xd529ae9e860000"
      },
      "nonce": 1,
      "data": "0x",
      "r": "0xd6c79326d68364bda6d0912b813ef60276fe656b70fe174139f5b2e1359ca9b7",
      "s": "0x2d55ad1af66fec3d530bdaf5d020c8aa3dc01c191b0b4d6564c50d32df7c7507",
      "v": 28,
      "creates": null,
      "raw": "0xf86c01850d32ade5fd83015f909455eeb8fb7ddf70493b2b210204f5134efb734fe687d529ae9e860000801ca0d6c79326d68364bda6d0912b813ef60276fe656b70fe174139f5b2e1359ca9b7a02d55ad1af66fec3d530bdaf5d020c8aa3dc01c191b0b4d6564c50d32df7c7507",
      "networkId": 0,
      "chainId": 0
    }
  ]
}