{
  "hash": "0x5353e1c657be8470a7bfba69b4eaea542c91792aaa7b4899a78cb692805bb280",
  "parentHash": "0x3dd4ad54333dfb0e319a5bcab62c5eeb7922683d338abb5e4bc122f249b6d691",
  "number": 117392,
  "timestamp": 1440108726,
  "nonce": "0xc1f9ee43c1818831",
  "difficulty": 4306283019313,
  "gasLimit": {
    "_hex": "0x2fefd8"
  },
  "gasUsed": {
    "_hex": "0x546c"
  },
  "miner": "0x88D74a59454F6cF3B51ef6b9136AFb6b9D405A88",
  "extraData": "0x",
  "transactions": [
    {
      "hash": "0x986fa275f106897bd2cdaf98a7a5fe62747471a7ede9ec1df70f111e5be01e20",
      "blockHash": "0x5353e1c657be8470a7bfba69b4eaea542c91792aaa7b4899a78cb692805bb280",
      "blockNumber": 117392,
      "transactionIndex": 0,
      "confirmations": null,
      "from": "0xF4eD848EC961739c2c7e352F435ba70a7CD5dB38",
      "gasPrice": {
        "_hex": "0x110c8f7d8de"
      },
      "gasLimit": {
        "_hex": "0xc350"
      },
      "to": "0x2910543Af39abA0Cd09dBb2D50200b3E800A63D2",
      "value": {
        "_hex": "0x3afb087b876900000"
      },
      "nonce": 2,
      "data": "0x454e5737434d523647",
      "r": "0xfc58d473e4eb9fafc242e466956804ca5044bf8e7d1dda286304faf32a21f921",
      "s": "0x80be313cc456c3818a0cdd1feb7903e564c02c2b8ba9ed2aaaca44703226271e",
      "v": 27,
      "creates": null,
      "raw": "0xf87702860110c8f7d8de82c350942910543af39aba0cd09dbb2d50200b3e800a63d28903afb087b87690000089454e5737434d5236471ba0fc58d473e4eb9fafc242e466956804ca5044bf8e7d1dda286304faf32a21f921a080be313cc456c3818a0cdd1feb7903e564c02c2b8ba9ed2aaaca44703226271e",
      "networkId": 0,
      "chainId": 0
    }
  ]
}