{
  "hash": "0x7edb6f47b04ffc353454bd41137c46b7a9251dc528a3cd0ea794e3c9c744e4f9",
  "parentHash": "0xaca27035da5dda440c0c92dff6d595363b8b593ef694373b17c6f5d471bb16f0",
  "number": 83934,
  "timestamp": 1439542833,
  "nonce": "0x67c4b0e3bbb9a7d3",
  "difficulty": 2473093594042,
  "gasLimit": {
    "_hex": "0x2fefd8"
  },
  "gasUsed": {
    "_hex": "0xa410"
  },
  "miner": "0xe6A7a1d47ff21B6321162AEA7C6CB457D5476Bca",
  "extraData": "0x476574682f76312e302e312d38326566323666362f6c696e75782f676f312e34",
  "transactions": [
    {
      "hash": "0x8e87900d97ce1c4266b7b03d1f1a3d43378083f6ee391c76e2ab8522a9e412f0",
      "blockHash": "0x7edb6f47b04ffc353454bd41137c46b7a9251dc528a3cd0ea794e3c9c744e4f9",
      "blockNumber": 83934,
      "transactionIndex": 0,
      "confirmations": null,
      "from": "0xEe38Df16452Bb041e346cAa6679EFC57c8bD4603",
      "gasPrice": {
        "_hex": "0xdf140883b"
      },
      "gasLimit": {
        "_hex": "0x15f90"
      },
      "to": "0x2Ce503E789353D6299b829A1a1409E26cB30a230",
      "value": {
        "_hex": "0xde0b6b3a7640000"
      },
      "nonce": 0,
      "data": "0x",
      "r": "0x34c36553edca35b4a4381f64d42ce4ecf6cc281aed1da808415b02f9346a190f",
      "s": "0x13dd2eb1a6d0ae889f634dace9b48e8ce7ff5b383cc888bdea8bc3eb40a2a4db",
      "v": 27,
      "creates": null,
      "raw": "0xf86d80850df140883b83015f90942ce503e789353d6299b829a1a1409e26cb30a230880de0b6b3a7640000801ba034c36553edca35b4a4381f64d42ce4ecf6cc281aed1da808415b02f9346a190fa013dd2eb1a6d0ae889f634dace9b48e8ce7ff5b383cc888bdea8bc3eb40a2a4db",
      "networkId": 0,
      "chainId": 0
    },
    {
      "hash": "0x4827035af5981edd36deb4204414b3c930c79d2daa43e9b8082475d4dbcace13",
      "blockHash": "0x7edb6f47b04ffc353454bd41137c46b7a9251dc528a3cd0ea794e3c9c744e4f9",
      "blockNumber": 83934,
      "transactionIndex": 1,
      "confirmations": null,
      "from": "0xf483F607A21FcC28100a018C568FFbE140380410",
      "gasPrice": {
        "_hex": "0xd0d87533d"
      },
      "gasLimit": {
        "_hex": "0x15f90"
      },
      "to": "0xF8Df84ACE9b0099C87b3F028D0813d855eE72539",
      "value": {
        "_hex": "0x1043561a8829300000"
      },
      "nonce": 1,
      "data": "0x",
      "r": "0x89d74d2463b326178f73990fdcdf7f57d5053840d8291a02d292380bd6fc696b",
      "s": "0x35e41563bf72e90fcc327e4519f8cefdeb17d2f623611d3f9fec7af809188b9f",
      "v": 28,
      "creates": null,
      "raw": "0xf86e01850d0d87533d83015f9094f8df84ace9b0099c87b3f028d0813d855ee72539891043561a8829300000801ca089d74d2463b326178f73990fdcdf7f57d5053840d8291a02d292380bd6fc696ba035e41563bf72e90fcc327e4519f8cefdeb17d2f623611d3f9fec7af809188b9f",
      "networkId": 0,
      "chainId": 0
    }
  ]
}