{
  "hash": "0x008e65c72bf5b7d0319704cc36dabc8a5039472ba2c9be8cac49a2cd87d6720e",
  "parentHash": "0x1de871606435d7de36f867fa069f8ac299182b6ee99726763a3ba9ddbf500ba6",
  "number": 100503,
  "timestamp": 1439807562,
  "nonce": "0x82601390b0fd1b86",
  "difficulty": 3820977991490,
  "gasLimit": {
    "_hex": "0x2fefd8"
  },
  "gasUsed": {
    "_hex": "0xa410"
  },
  "miner": "0x900deD2eC098c430caD5347E6F3322932D7BB3a9",
  "extraData": "0x476574682f76312e302e312f77696e646f77732f676f312e342e32",
  "transactions": [
    {
      "hash": "0xf5d9f6b134df64785dfc0050ea1c029c5a835300a23212b50f0a246be9f929a5",
      "blockHash": "0x008e65c72bf5b7d0319704cc36dabc8a5039472ba2c9be8cac49a2cd87d6720e",
      "blockNumber": 100503,
      "transactionIndex": 0,
      "confirmations": null,
      "from": "0x7884D470204862a0d1A21122F41ee77430396Ee5",
      "gasPrice": {
        "_hex": "0xd9d58fa38"
      },
      "gasLimit": {
        "_hex": "0x15f90"
      },
      "to": "0x28944A15c4440F926F0eb5F40efA12e45bF40899",
      "value": {
        "_hex": "0x186cc6acd4b0000"
      },
      "nonce": 57,
      "data": "0x",
      "r": "0x9ca62e9f8df105657fcdd7776861b5280f6c11708f8777d164ec5987559a6f2b",
      "s": "0x5d5f3fdd91db6bf3f2ccff008fe4bfee9f2f6b77c0963b75137ffa83af2e9020",
      "v": 28,
      "creates": null,
      "raw": "0xf86d39850d9d58fa3883015f909428944a15c4440f926f0eb5f40efa12e45bf40899880186cc6acd4b0000801ca09ca62e9f8df105657fcdd7776861b5280f6c11708f8777d164ec5987559a6f2ba05d5f3fdd91db6bf3f2ccff008fe4bfee9f2f6b77c0963b75137ffa83af2e9020",
      "networkId": 0,
      "chainId": 0
    },
    {
      "hash": "0xacd250e24aa8e57f1cda8d2dbbb63ddc2a79fef70d0ccfcfac12529cdbd5235a",
      "blockHash": "0x008e65c72bf5b7d0319704cc36dabc8a5039472ba2c9be8cac49a2cd87d6720e",
      "blockNumber": 100503,
      "transactionIndex": 1,
      "confirmations": null,
      "from": "0xd1ce10d2AdBa8b18135eF72Aa5296c9503a3501c",
      "gasPrice": {
        "_hex": "0xd1f217cbf"
      },
      "gasLimit": {
        "_hex": "0x15f90"
      },
      "to": "0xf2cC0eEAAAeD313542CB262B0B8c3972425143f0",
      "value": {
        "_hex": "0x7c34c994b3bf0000"
      },
      "nonce": 3,
      "data": "0x",
      "r": "0x083362a905118f3d10147ec653ecf712b2cf5b17089c126060ab709580b5a10c",
      "s": "0x5997cbe573085b1c6e9d1faab653ea8bae06787c8d3408c4ee8c51bf08b2fc63",
      "v": 27,
      "creates": null,
      "raw": "0xf86d03850d1f217cbf83015f9094f2cc0eeaaaed313542cb262b0b8c3972425143f0887c34c994b3bf0000801ba0083362a905118f3d10147ec653ecf712b2cf5b17089c126060ab709580b5a10ca05997cbe573085b1c6e9d1faab653ea8bae06787c8d3408c4ee8c51bf08b2fc63",
      "networkId": 0,
      "chainId": 0
    }
  ]
}