{
  "hash": "0xa8945b06b2769a8e08fc192f16ea0bc3006ae88aba8ebf2331fd8adf95bdbe8e",
  "parentHash": "0x320fd7ade1583d47e8b3c7e7cc4ef7f834fa9d4b5c4841810f10d14269088e82",
  "number": 102195,
  "timestamp": 1439834277,
  "nonce": "0x9c50c0c7686189d9",
  "difficulty": 3918446731959,
  "gasLimit": {
    "_hex": "0x2fefd8"
  },
  "gasUsed": {
    "_hex": "0x5208"
  },
  "miner": "0xe6A7a1d47ff21B6321162AEA7C6CB457D5476Bca",
  "extraData": "0x476574682f76312e302e312d38326566323666362f6c696e75782f676f312e34",
  "transactions": [
    {
      "hash": "0x2f3fbf295f800c61c928ab1c1f30e3aee07b963c1c47097c87bba467610a9fa0",
      "blockHash": "0xa8945b06b2769a8e08fc192f16ea0bc3006ae88aba8ebf2331fd8adf95bdbe8e",
      "blockNumber": 102195,
      "transactionIndex": 0,
      "confirmations": null,
      "from": "0x120A270bbC009644e35F0bB6ab13f95b8199c4ad",
      "gasPrice": {
        "_hex": "0xdd6bb9ab1"
      },
      "gasLimit": {
        "_hex": "0x15f90"
      },
      "to": "0x36B33F21Ba59c53E3502E52b8e0a7fD311215FFd",
      "value": {
        "_hex": "0x18dc57db291e8e5c00"
      },
      "nonce": 692,
      "data": "0x",
      "r": "0x8ac6d76fa64c508154d17057cc838923fa3df857cc8f3eca1f7d82408428f16e",
      "s": "0x62198d47739cc4eaf0ed77e0067240c7720f4696151e80907fadc1edca6f849b",
      "v": 28,
      "creates": null,
      "raw": "0xf8708202b4850dd6bb9ab183015f909436b33f21ba59c53e3502e52b8e0a7fd311215ffd8918dc57db291e8e5c00801ca08ac6d76fa64c508154d17057cc838923fa3df857cc8f3eca1f7d82408428f16ea062198d47739cc4eaf0ed77e0067240c7720f4696151e80907fadc1edca6f849b",
      "networkId": 0,
      "chainId": 0
    }
  ]
}