{
  "hash": "0x0394e44cc5ae83363e464cf2cf1efdb3d7a84429479102ef0c918b32cdce7311",
  "parentHash": "0x54e0b1f6eb57ec2aa2364460edbf3fcd233d7e00b101e85634a72a4a541c50b3",
  "number": 115910,
  "timestamp": 1440065344,
  "nonce": "0x7f0ba493e077542e",
  "difficulty": 4575878359759,
  "gasLimit": {
    "_hex": "0x2fefd8"
  },
  "gasUsed": {
    "_hex": "0x5208"
  },
  "miner": "0xe6A7a1d47ff21B6321162AEA7C6CB457D5476Bca",
  "extraData": "0x476574682f76312e302e312d38326566323666362f6c696e75782f676f312e34",
  "transactions": [
    {
      "hash": "0xad2368d5c2f19939cafcb916511453c5caac29ef8a2361195757f8e1c4027ce0",
      "blockHash": "0x0394e44cc5ae83363e464cf2cf1efdb3d7a84429479102ef0c918b32cdce7311",
      "blockNumber": 115910,
      "transactionIndex": 0,
      "confirmations": null,
      "from": "0x7C8DB6DAEA570E518f36c83653E7cc0fcF87C232",
      "gasPrice": {
        "_hex": "0xdac3dbdd2"
      },
      "gasLimit": {
        "_hex": "0x15f90"
      },
      "to": "0x037AB403e6A6e3dB6bC6728BAddCaB5f1BAAb4BA",
      "value": {
        "_hex": "0xde0b6b3a76400000"
      },
      "nonce": 1,
      "data": "0x",
      "r": "0x23f0b85f9b917601f968ee4430f3cf238272dc22bfd4ee7eae9efd3de96d8753",
      "s": "0x36a032b07d1dc4c7ad728ae196c71e2cf33f8d5f7e21689ff88729455c9859a4",
      "v": 27,
      "creates": null,
      "raw": "0xf86d01850dac3dbdd283015f9094037ab403e6a6e3db6bc6728baddcab5f1baab4ba88de0b6b3a76400000801ba023f0b85f9b917601f968ee4430f3cf238272dc22bfd4ee7eae9efd3de96d8753a036a032b07d1dc4c7ad728ae196c71e2cf33f8d5f7e21689ff88729455c9859a4",
      "networkId": 0,
      "chainId": 0
    }
  ]
}