{
  "hash": "0xd130f75fdc8588338c962ce16f9c3c7123d3e3e26dff4822dab220ebbc060c80",
  "parentHash": "0x06b804adff53ca729814725ea73abe1096545f410b732a08e66059c01a02f189",
  "number": 90978,
  "timestamp": 1439648321,
  "nonce": "0x81d293df670c2cba",
  "difficulty": 3427319905991,
  "gasLimit": {
    "_hex": "0x2fefd8"
  },
  "gasUsed": {
    "_hex": "0x5208"
  },
  "miner": "0xe6A7a1d47ff21B6321162AEA7C6CB457D5476Bca",
  "extraData": "0x476574682f76312e302e312d38326566323666362f6c696e75782f676f312e34",
  "transactions": [
    {
      "hash": "0x09fb1117ed0ab29a0787898e141367e05b9ea35d792e699a76d6cf873287d8c4",
      "blockHash": "0xd130f75fdc8588338c962ce16f9c3c7123d3e3e26dff4822dab220ebbc060c80",
      "blockNumber": 90978,
      "transactionIndex": 0,
      "confirmations": null,
      "from": "0x80034a706E2cbA70Da4F7E8b9Ee5f9c1B16e6Bd1",
      "gasPrice": {
        "_hex": "0xdd5ee0e4f"
      },
      "gasLimit": {
        "_hex": "0x5208"
      },
      "to": "0x32Be343B94f860124dC4fEe278FDCBD38C102D88",
      "value": {
        "_hex": "0x6c6a2ba71e03800000"
      },
      "nonce": 0,
      "data": "0x",
      "r": "0x85fca69d352e47a7254e0425f6d4935a1ed549d8ab67b7245da0c3429d2b9d3a",
      "s": "0x41b634290bcb687784530cdb047d68b3e1dbece85c38180b51da31560cc63b7a",
      "v": 27,
      "creates": null,
      "raw": "0xf86d80850dd5ee0e4f8252089432be343b94f860124dc4fee278fdcbd38c102d88896c6a2ba71e03800000801ba085fca69d352e47a7254e0425f6d4935a1ed549d8ab67b7245da0c3429d2b9d3aa041b634290bcb687784530cdb047d68b3e1dbece85c38180b51da31560cc63b7a",
      "networkId": 0,
      "chainId": 0
    }
  ]
}