{
  "hash": "0xebdf2fd07f937479586ded58fe1d85aea6feb80d1739a70f424f7ab552def9aa",
  "parentHash": "0x94c42257c17304a45bba78cc8b1919ca17822bfce6ac4c5758e2f30a25425ead",
  "number": 112681,
  "timestamp": 1440011322,
  "nonce": "0x01c6ae2067db06e3",
  "difficulty": 4425982064983,
  "gasLimit": {
    "_hex": "0x2fefd8"
  },
  "gasUsed": {
    "_hex": "0x38658"
  },
  "miner": "0xe6A7a1d47ff21B6321162AEA7C6CB457D5476Bca",
  "extraData": "0x476574682f76312e302e312d38326566323666362f6c696e75782f676f312e34",
  "transactions": [
    {
      "hash": "0x729d65939838e86ba698e8df5b3f0a2c5ec6549ee3693803b411c21f0f912982",
      "blockHash": "0xebdf2fd07f937479586ded58fe1d85aea6feb80d1739a70f424f7ab552def9aa",
      "blockNumber": 112681,
      "transactionIndex": 0,
      "confirmations": null,
      "from": "0xe6A7a1d47ff21B6321162AEA7C6CB457D5476Bca",
      "gasPrice": {
        "_hex": "0xd4ec97720"
      },
      "gasLimit": {
        "_hex": "0x55f0"
      },
      "to": "0x9B743b996E5FD8416cdD0D9F8C13FA7F7eE0BdfA",
      "value": {
        "_hex": "0x1b3392dbd40a012c"
      },
      "nonce": 4714,
      "data": "0x",
      "r": "0xdea86ea42e068717deba5505934c63619a36e0f47889280a85c6716dacfcb016",
      "s": "0x1f101b2ca97855f9e124fdda31dfee02a116eb6957f1929d6fc4a18fa003c191",
      "v": 27,
      "creates": null,
      "raw": "0xf86e82126a850d4ec977208255f0949b743b996e5fd8416cdd0d9f8c13fa7f7ee0bdfa881b3392dbd40a012c801ba0dea86ea42e068717deba5505934c63619a36e0f47889280a85c6716dacfcb016a01f101b2ca97855f9e124fdda31dfee02a116eb6957f1929d6fc4a18fa003c191",
      "networkId": 0,
      "chainId": 0
    },
    {
      "hash": "0x0bd68b3b7429009f96478766d23e724de814786e5bd9c48c399d3ca8ec0740a0",
      "blockHash": "0xebdf2fd07f937479586ded58fe1d85aea6feb80d1739a70f424f7ab552def9aa",
      "blockNumber": 112681,
      "transactionIndex": 1,
      "confirmations": null,
      "from": "0xe6A7a1d47ff21B6321162AEA7C6CB457D5476Bca",
      "gasPrice": {
        "_hex": "0xd4ec97720"
      },
      "gasLimit": {
        "_hex": "0x55f0"
      },
      "to": "0xadBC4B2dc881a1C624ee11c526e818f91378D410",
      "value": {
        "_hex": "0x1b68527bfd81b7e0"
      },
      "nonce": 4715,
      "data": "0x",
      "r": "0xc9572ce44cb2e6fecff508b955e903d99cb5fb03922b75c505c0087ee0ac464f",
      "s": "0x2d22d66e2ddadd3989f686a6712b68b6998cba64b4d89619146cabef6f009a47",
      "v": 28,
      "creates": null,
      "raw": "0xf86e82126b850d4ec977208255f094adbc4b2dc881a1c624ee11c526e818f91378d410881b68527bfd81b7e0801ca0c9572ce44cb2e6fecff508b955e903d99cb5fb03922b75c505c0087ee0ac464fa02d22d66e2ddadd3989f686a6712b68b6998cba64b4d89619146cabef6f009a47",
      "networkId": 0,
      "chainId": 0
    },
    {
      "hash": "0x3f15f27cd5697f725e23c920542a0df117d86c5755a2346ca33ac7532eaabf15",
      "blockHash": "0xebdf2fd07f937479586ded58fe1d85aea6feb80d1739a70f424f7ab552def9aa",
      "blockNumber": 112681,
      "transactionIndex": 2,
      "confirmations": null,
      "from": "0xe6A7a1d47ff21B6321162AEA7C6CB457D5476Bca",
      "gasPrice": {
        "_hex": "0xd4ec97720"
      },
      "gasLimit": {
        "_hex": "0x55f0"
      },
      "to": "0x0f36D8B9254f1B059d0B4c4FeEceB82EE24a6180",
      "value": {
        "_hex": "0x1ba2d65fbaab5b2c"
      },
      "nonce": 4716,
      "data": "0x",
      "r": "0xc9ed497416880bd394d21a8416f0c62316ba748ba0e5cf30eeaa03b82a03c6d0",
      "s": "0x792095a6b1e11830dd7c2535dfd78f4ba34429b3b380a8f5f2175c8c4fa9f010",
      "v": 27,
      "creates": null,
      "raw": "0xf86e82126c850d4ec977208255f0940f36d8b9254f1b059d0b4c4feeceb82ee24a6180881ba2d65fbaab5b2c801ba0c9ed497416880bd394d21a8416f0c62316ba748ba0e5cf30eeaa03b82a03c6d0a0792095a6b1e11830dd7c2535dfd78f4ba34429b3b380a8f5f2175c8c4fa9f010",
      "networkId": 0,
      "chainId": 0
    },
    {
      "hash": "0xe62a0f7e17f8e29ec931f06a7d305c8e369848f2c59c5d1a438db9060962f3ce",
      "blockHash": "0xebdf2fd07f937479586ded58fe1d85aea6feb80d1739a70f424f7ab552def9aa",
      "blockNumber": 112681,
      "transactionIndex": 3,
      "confirmations": null,
      "from": "0xe6A7a1d47ff21B6321162AEA7C6CB457D5476Bca",
      "gasPrice": {
        "_hex": "0xd4ec97720"
      },
      "gasLimit": {
        "_hex": "0x55f0"
      },
      "to": "0x51f8ecFF73486E3161082dDEc7FbB5450b45D689",
      "value": {
        "_hex": "0x1bd1c23f4c0c60d0"
      },
      "nonce": 4717,
      "data": "0x",
      "r": "0x5d121a0df2cdd10a4e4a9fc3b87753c06c8d3548e48a7b18fb9289ab04be6a51",
      "s": "0x4b053a6d532aa0337c9369812a6eafa97fc7d3409d4e933f31a99c85cfe52a13",
      "v": 27,
      "creates": null,
      "raw": "0xf86e82126d850d4ec977208255f09451f8ecff73486e3161082ddec7fbb5450b45d689881bd1c23f4c0c60d0801ba05d121a0df2cdd10a4e4a9fc3b87753c06c8d3548e48a7b18fb9289ab04be6a51a04b053a6d532aa0337c9369812a6eafa97fc7d3409d4e933f31a99c85cfe52a13",
      "networkId": 0,
      "chainId": 0
    },
    {
      "hash": "0x0d6cd4497eb778e0c90d82d97724fd59073bc1999290aa79c48ee510e2a5fd14",
      "blockHash": "0xebdf2fd07f937479586ded58fe1d85aea6feb80d1739a70f424f7ab552def9aa",
      "blockNumber": 112681,
      "transactionIndex": 4,
      "confirmations": null,
      "from": "0xe6A7a1d47ff21B6321162AEA7C6CB457D5476Bca",
      "gasPrice": {
        "_hex": "0xd4ec97720"
      },
      "gasLimit": {
        "_hex": "0x55f0"
      },
      "to": "0x1333a55102f1f4B3df95298b6CE863eF8d5BAf45",
      "value": {
        "_hex": "0x1bdeea66ecb66e20"
      },
      "nonce": 4718,
      "data": "0x",
      "r": "0x5f756d9a9b2f874ea69c8e87fc03962b949a81f581ef4f2915196b8fbab4d24c",
      "s": "0x50fc4a8e378994eb851dff56b74941a5344626debc6f1a5141ade5a5c8e13d8c",
      "v": 28,
      "creates": null,
      "raw": "0xf86e82126e850d4ec977208255f0941333a55102f1f4b3df95298b6ce863ef8d5baf45881bdeea66ecb66e20801ca05f756d9a9b2f874ea69c8e87fc03962b949a81f581ef4f2915196b8fbab4d24ca050fc4a8e378994eb851dff56b74941a5344626debc6f1a5141ade5a5c8e13d8c",
      "networkId": 0,
      "chainId": 0
    },
    {
      "hash": "0x6012629533146fa031778584c64a7bdc542cb52a3512b6b72fa14f3132726352",
      "blockHash": "0xebdf2fd07f937479586ded58fe1d85aea6feb80d1739a70f424f7ab552def9aa",
      "blockNumber": 112681,
      "transactionIndex": 5,
      "confirmations": null,
      "from": "0xe6A7a1d47ff21B6321162AEA7C6CB457D5476Bca",
      "gasPrice": {
        "_hex": "0xd4ec97720"
      },
      "gasLimit": {
        "_hex": "0x55f0"
      },
      "to": "0x5A698FA3F55962225Cd42eb7bE1ECA74d666d1b6",
      "value": {
        "_hex": "0x1be1c09ac4e84adc"
      },
      "nonce": 4719,
      "data": "0x",
      "r": "0x880bc6c7e7eb66649594ddc1d12849cca5c39cf0094a5146b3a220d616281652",
      "s": "0x724740e3092a2ba5ae3e0e37b4c16ef74772b1664e375fe17e0b137ab79e5292",
      "v": 27,
      "creates": null,
      "raw": "0xf86e82126f850d4ec977208255f0945a698fa3f55962225cd42eb7be1eca74d666d1b6881be1c09ac4e84adc801ba0880bc6c7e7eb66649594ddc1d12849cca5c39cf0094a5146b3a220d616281652a0724740e3092a2ba5ae3e0e37b4c16ef74772b1664e375fe17e0b137ab79e5292",
      "networkId": 0,
      "chainId": 0
    },
    {
      "hash": "0x93063ee5fb53bc1807f9a2d1d40c0cce457d52ba871d52edeb2d26187618feb7",
      "blockHash": "0xebdf2fd07f937479586ded58fe1d85aea6feb80d1739a70f424f7ab552def9aa",
      "blockNumber": 112681,
      "transactionIndex": 6,
      "confirmations": null,
      "from": "0xe6A7a1d47ff21B6321162AEA7C6CB457D5476Bca",
      "gasPrice": {
        "_hex": "0xd4ec97720"
      },
      "gasLimit": {
        "_hex": "0x55f0"
      },
      "to": "0xc672B41FCC9441EeB20f8d1b4342DE7A982eBAb4",
      "value": {
        "_hex": "0x1be29853917c93ec"
      },
      "nonce": 4720,
      "data": "0x",
      "r": "0x4d306fc257b1ca5d803a01a40e3cb0936bebd07793eab85bd7c5469fe8e389c9",
      "s": "0x50734915fb0e3243afa5e5d4b5a5f907fedbc9248375f99cc71df4c90f2d0e95",
      "v": 28,
      "creates": null,
      "raw": "0xf86e821270850d4ec977208255f094c672b41fcc9441eeb20f8d1b4342de7a982ebab4881be29853917c93ec801ca04d306fc257b1ca5d803a01a40e3cb0936bebd07793eab85bd7c5469fe8e389c9a050734915fb0e3243afa5e5d4b5a5f907fedbc9248375f99cc71df4c90f2d0e95",
      "networkId": 0,
      "chainId": 0
    },
    {
      "hash": "0x4d2603f7ec17aa9b967854de430e177a93d78022bce365d208538c87af520e75",
      "blockHash": "0xebdf2fd07f937479586ded58fe1d85aea6feb80d1739a70f424f7ab552def9aa",
      "blockNumber": 112681,
      "transactionIndex": 7,
      "confirmations": null,
      "from": "0xe6A7a1d47ff21B6321162AEA7C6CB457D5476Bca",
      "gasPrice": {
        "_hex": "0xd4ec97720"
      },
      "gasLimit": {
        "_hex": "0x55f0"
      },
      "to": "0x8FA820f3a6469c4E450dC6bBb84d42Ae75AB24Af",
      "value": {
        "_hex": "0x1c2eb523afa71318"
      },
      "nonce": 4721,
      "data": "0x",
      "r": "0xb9ee5b2c592c8af5f19f2d8e7b92e3600faf329fd7aa9a88c41cfc0699726895",
      "s": "0x67372e9495847494c0c16406a40c6ca87173fa6a5db24879b9305eaa149cfa19",
      "v": 28,
      "creates": null,
      "raw": "0xf86e821271850d4ec977208255f0948fa820f3a6469c4e450dc6bbb84d42ae75ab24af881c2eb523afa71318801ca0b9ee5b2c592c8af5f19f2d8e7b92e3600faf329fd7aa9a88c41cfc0699726895a067372e9495847494c0c16406a40c6ca87173fa6a5db24879b9305eaa149cfa19",
      "networkId": 0,
      "chainId": 0
    },
    {
      "hash": "0x458de9be7183be3f4aa7adf8181e076db622af43d45a0bf4b03e8c7e526fc98f",
      "blockHash": "0xebdf2fd07f937479586ded58fe1d85aea6feb80d1739a70f424f7ab552def9aa",
      "blockNumber": 112681,
      "transactionIndex": 8,
      "confirmations": null,
      "from": "0xe6A7a1d47ff21B6321162AEA7C6CB457D5476Bca",
      "gasPrice": {
        "_hex": "0xd4ec97720"
      },
      "gasLimit": {
        "_hex": "0x55f0"
      },
      "to": "0x1cB4D87C5e67d158aF4c3A754a010Dfa64d78cE8",
      "value": {
        "_hex": "0x1c8977a6da63f0f8"
      },
      "nonce": 4722,
      "data": "0x",
      "r": "0x63a3be88e5f258cce75df360a392617b587f4057f04ad0ef771fb56f04dfbd5c",
      "s": "0x6d31dc6940ff5d14247c57af670fdcff7f08d5e8bda6ed8037a62b78d3365a55",
      "v": 28,
      "creates": null,
      "raw": "0xf86e821272850d4ec977208255f0941cb4d87c5e67d158af4c3a754a010dfa64d78ce8881c8977a6da63f0f8801ca063a3be88e5f258cce75df360a392617b587f4057f04ad0ef771fb56f04dfbd5ca06d31dc6940ff5d14247c57af670fdcff7f08d5e8bda6ed8037a62b78d3365a55",
      "networkId": 0,
      "chainId": 0
    },
    {
      "hash": "0x75faa6d5a7cf29e8afd697576dc7342094b1b318ce5998c11a6748d58c874d80",
      "blockHash": "0xebdf2fd07f937479586ded58fe1d85aea6feb80d1739a70f424f7ab552def9aa",
      "blockNumber": 112681,
      "transactionIndex": 9,
      "confirmations": null,
      "from": "0xe6A7a1d47ff21B6321162AEA7C6CB457D5476Bca",
      "gasPrice": {
        "_hex": "0xd4ec97720"
      },
      "gasLimit": {
        "_hex": "0x55f0"
      },
      "to": "0xB89C0F465b0472fa5A58eCDd01eD937205ae4d06",
      "value": {
        "_hex": "0x1c9d90248c782800"
      },
      "nonce": 4723,
      "data": "0x",
      "r": "0x845ee4750dde55d0c72fdcf43172ff8f274dd9b27dcd8d1e294ef545b909b404",
      "s": "0x233f9df2dbee5f286f28706aab30359ecb56d9c043b88c2addace3d73fd5a003",
      "v": 27,
      "creates": null,
      "raw": "0xf86e821273850d4ec977208255f094b89c0f465b0472fa5a58ecdd01ed937205ae4d06881c9d90248c782800801ba0845ee4750dde55d0c72fdcf43172ff8f274dd9b27dcd8d1e294ef545b909b404a0233f9df2dbee5f286f28706aab30359ecb56d9c043b88c2addace3d73fd5a003",
      "networkId": 0,
      "chainId": 0
    },
    {
      "hash": "0x8eb0edc1245bd8ef1e6a6c51cd876b86c003474de13f11af0a29c17c20dcec6a",
      "blockHash": "0xebdf2fd07f937479586ded58fe1d85aea6feb80d1739a70f424f7ab552def9aa",
      "blockNumber": 112681,
      "transactionIndex": 10,
      "confirmations": null,
      "from": "0xad74C8133300eB63De8d69A384B1E8CcFe28DED7",
      "gasPrice": {
        "_hex": "0xd2be21fc6"
      },
      "gasLimit": {
        "_hex": "0x5208"
      },
      "to": "0x32Be343B94f860124dC4fEe278FDCBD38C102D88",
      "value": {
        "_hex": "0xdce4e8026408000"
      },
      "nonce": 8,
      "data": "0x",
      "r": "0x49e28a88dc10dc25a41a7ee46f80bdc0a49e9b935ad26b7a2efe5ef440eb9bd9",
      "s": "0x6407faf7361250bf122b8e2fda9d999a4fac45d807d59d7d69b5241f8aaf0f0f",
      "v": 27,
      "creates": null,
      "raw": "0xf86c08850d2be21fc68252089432be343b94f860124dc4fee278fdcbd38c102d88880dce4e8026408000801ba049e28a88dc10dc25a41a7ee46f80bdc0a49e9b935ad26b7a2efe5ef440eb9bd9a06407faf7361250bf122b8e2fda9d999a4fac45d807d59d7d69b5241f8aaf0f0f",
      "networkId": 0,
      "chainId": 0
    }
  ]
}