{
  "hash": "0x584d4f009be29db82a196f1d2adf14fa57446bf81e73b73ff522e26bf25decda",
  "parentHash": "0x4cdf376b2ebbbd24fe4f8c269d9e820abcfa22ece25bc091b82c8513232da06a",
  "number": 119287,
  "timestamp": 1440140072,
  "nonce": "0xe7299ec30465dd43",
  "difficulty": 4426818946459,
  "gasLimit": {
    "_hex": "0x2fefd8"
  },
  "gasUsed": {
    "_hex": "0x5208"
  },
  "miner": "0xbb7B8287f3F0a933474a79eAe42CBCa977791171",
  "extraData": "0xd783010003844765746887676f312e342e32856c696e7578",
  "transactions": [
    {
      "hash": "0xec66d86326dcd5d1ca885d3126a5d343af03056174002bfb843984977e758e80",
      "blockHash": "0x584d4f009be29db82a196f1d2adf14fa57446bf81e73b73ff522e26bf25decda",
      "blockNumber": 119287,
      "transactionIndex": 0,
      "confirmations": null,
      "from": "0x8F79f76381Aad7B98C19aF55eE75fdfEeb012211",
      "gasPrice": {
        "_hex": "0xba43b7400"
      },
      "gasLimit": {
        "_hex": "0x5208"
      },
      "to": "0x32Be343B94f860124dC4fEe278FDCBD38C102D88",
      "value": {
        "_hex": "0xa3ee327aa67d08000"
      },
      "nonce": 52,
      "data": "0x",
      "r": "0x84b72990f0b6a7378a6c8d08e632ddcd14f31bd96e287d4194a8ff6030511169",
      "s": "0x3b2182ea27d7d6675d5d213ced1a37dbd4888841a51e622db57408dc7deb78b8",
      "v": 27,
      "creates": null,
      "raw": "0xf86d34850ba43b74008252089432be343b94f860124dc4fee278fdcbd38c102d88890a3ee327aa67d08000801ba084b72990f0b6a7378a6c8d08e632ddcd14f31bd96e287d4194a8ff6030511169a03b2182ea27d7d6675d5d213ced1a37dbd4888841a51e622db57408dc7deb78b8",
      "networkId": 0,
      "chainId": 0
    }
  ]
}