{
  "hash": "0x1a50042441d20812337d98c345e63b312ab1d715a454f34bf95cefe105145b65",
  "parentHash": "0x672042dfddd4a24d0ae3efe41bfae24eacf53485103e176dd016b1dc791d76fd",
  "number": 121582,
  "timestamp": 1440179332,
  "nonce": "0x7705a4b87ec01148",
  "difficulty": 4436425907268,
  "gasLimit": {
    "_hex": "0x2fefd8"
  },
  "gasUsed": {
    "_hex": "0xa674"
  },
  "miner": "0xD0ee3F53eE0fCf3F9fbCcdd17BD1b6441DdC2074",
  "extraData": "0x",
  "transactions": [
    {
      "hash": "0x9e7ae88c1a4cdb945e44eafb723b86ebc4f034a07a1ec8f2ebdb13848f3316e0",
      "blockHash": "0x1a50042441d20812337d98c345e63b312ab1d715a454f34bf95cefe105145b65",
      "blockNumber": 121582,
      "transactionIndex": 0,
      "confirmations": null,
      "from": "0x3ad915D550B723415620f5a9b5b88A85F382f035",
      "gasPrice": {
        "_hex": "0x110c8f7d8de"
      },
      "gasLimit": {
        "_hex": "0xc350"
      },
      "to": "0x2910543Af39abA0Cd09dBb2D50200b3E800A63D2",
      "value": {
        "_hex": "0x105061a78d320e0000"
      },
      "nonce": 2,
      "data": "0x454e4e363734333947",
      "r": "0xb425011160a47ff44d4439c727ebe368188ea76e435bc0727654aca71ef88601",
      "s": "0xde5b907ad2dd5cd546162c1618b3c6284eba98cad1e12a70b73168002e191cee",
      "v": 28,
      "creates": null,
      "raw": "0xf87702860110c8f7d8de82c350942910543af39aba0cd09dbb2d50200b3e800a63d289105061a78d320e000089454e4e3637343339471ca0b425011160a47ff44d4439c727ebe368188ea76e435bc0727654aca71ef88601a0de5b907ad2dd5cd546162c1618b3c6284eba98cad1e12a70b73168002e191cee",
      "networkId": 0,
      "chainId": 0
    },
    {
      "hash": "0xa87e0db9e1eec309c0e5dff12446805c61d18ae08e09c2a6ed5979983b7b23b4",
      "blockHash": "0x1a50042441d20812337d98c345e63b312ab1d715a454f34bf95cefe105145b65",
      "blockNumber": 121582,
      "transactionIndex": 1,
      "confirmations": null,
      "from": "0xf8520276975f4a52ee4dc848Cb8e7788C92E1F55",
      "gasPrice": {
        "_hex": "0xdebccc7dc"
      },
      "gasLimit": {
        "_hex": "0x15f90"
      },
      "to": "0xa1386CA983F174C3d74D76a96Bc57CFDa8Aa4283",
      "value": {
        "_hex": "0x2386f26fc10000"
      },
      "nonce": 0,
      "data": "0x",
      "r": "0xf1bedf6f1027e4623d1a7066759cfc8d534b0d23f93e5bb9b832dbbb65dc348d",
      "s": "0x1dcd2c0bbbed6f8673eec2e3e43254567d7dcacd212fc320a689c02af7a8ffbe",
      "v": 27,
      "creates": null,
      "raw": "0xf86c80850debccc7dc83015f9094a1386ca983f174c3d74d76a96bc57cfda8aa4283872386f26fc10000801ba0f1bedf6f1027e4623d1a7066759cfc8d534b0d23f93e5bb9b832dbbb65dc348da01dcd2c0bbbed6f8673eec2e3e43254567d7dcacd212fc320a689c02af7a8ffbe",
      "networkId": 0,
      "chainId": 0
    }
  ]
}