{
  "hash": "0x9e7d90e4581f4a224e5fe6834fc14f9a7c1248b7dbcf5f88c10794ed34e8a0dc",
  "parentHash": "0x7f80ae2993d24065ee9c916d55a2558131629f40b865b59727c07214d728d3f3",
  "number": 46577,
  "timestamp": 1438925641,
  "nonce": "0xa1a3ae0f50eb53d5",
  "difficulty": 1456784613843,
  "gasLimit": {
    "_hex": "0x69ba"
  },
  "gasUsed": {
    "_hex": "0x5208"
  },
  "miner": "0xbb7B8287f3F0a933474a79eAe42CBCa977791171",
  "extraData": "0x476574682f4c5649562f76312e302e312f6c696e75782f676f312e342e32",
  "transactions": [
    {
      "hash": "0x319101fc77263d49f8ce4369c76ee8faa3146fc65368a99c34d31c345fd4e727",
      "blockHash": "0x9e7d90e4581f4a224e5fe6834fc14f9a7c1248b7dbcf5f88c10794ed34e8a0dc",
      "blockNumber": 46577,
      "transactionIndex": 0,
      "confirmations": null,
      "from": "0xa89AC93b23370472DaAc337E9afdF642543F3E57",
      "gasPrice": {
        "_hex": "0x535257c3b3"
      },
      "gasLimit": {
        "_hex": "0x5208"
      },
      "to": "0x92c27672FE65e002159Ec2597fcf8897ADBf5B29",
      "value": {
        "_hex": "0x8ac7230489e80000"
      },
      "nonce": 10,
      "data": "0x",
      "r": "0xcce747633c85924a8673ff6a608cd9ce9159b4e85b41a842b2f3ccc5fe57b7ac",
      "s": "0x31dd1c3bcb204d66f2528d214653d2af42b059632bf2609e6ad152bff8d7cf34",
      "v": 28,
      "creates": null,
      "raw": "0xf86c0a85535257c3b38252089492c27672fe65e002159ec2597fcf8897adbf5b29888ac7230489e80000801ca0cce747633c85924a8673ff6a608cd9ce9159b4e85b41a842b2f3ccc5fe57b7aca031dd1c3bcb204d66f2528d214653d2af42b059632bf2609e6ad152bff8d7cf34",
      "networkId": 0,
      "chainId": 0
    }
  ]
}