{
  "hash": "0x323b6073ef8685716ac365ef76c4ee2ac32e8d2b648ba2fcf8c7e88bfd6ebce8",
  "parentHash": "0x3efd3931564b10f1a72bf52c560b6bb741e136292f77031595d179fcc5184e34",
  "number": 53161,
  "timestamp": 1439033409,
  "nonce": "0x62339a7ee16ffcdf",
  "difficulty": 1575461716169,
  "gasLimit": {
    "_hex": "0x20e394"
  },
  "gasUsed": {
    "_hex": "0xc3f2"
  },
  "miner": "0x123843545FB525C8E134c9A5F15ADA6865cc3848",
  "extraData": "0x476574682f76312e302e312f77696e646f77732f676f312e342e32",
  "transactions": [
    {
      "hash": "0x36505b9c7fdbd648eb64854868691945d21d3e2ebe9eca7e64c518c7fccfdd66",
      "blockHash": "0x323b6073ef8685716ac365ef76c4ee2ac32e8d2b648ba2fcf8c7e88bfd6ebce8",
      "blockNumber": 53161,
      "transactionIndex": 0,
      "confirmations": null,
      "from": "0x4b0C6F0297CEe4B551B6fab3277067B64B238990",
      "gasPrice": {
        "_hex": "0x10c5b9b85c8"
      },
      "gasLimit": {
        "_hex": "0x15f90"
      },
      "to": "0x33e98638ea7F2C2fd83731528fb53802Af395D13",
      "value": {
        "_hex": "0x0"
      },
      "nonce": 8,
      "data": "0x90b98a110000000000000000000000004df7c6810062f5590f92e75c31eca559866ce9ce0000000000000000000000000000000000000000000000000000000000000001",
      "r": "0x53019695f1099709ae8d182b9729c5397405d462258969a099cfc9f511ddddc7",
      "s": "0x2e7a7aaa44cf9569d899409aa03c6da3b7319b40b814526c431c7beb175e4003",
      "v": 27,
      "creates": null,
      "raw": "0xf8ab0886010c5b9b85c883015f909433e98638ea7f2c2fd83731528fb53802af395d1380b84490b98a110000000000000000000000004df7c6810062f5590f92e75c31eca559866ce9ce00000000000000000000000000000000000000000000000000000000000000011ba053019695f1099709ae8d182b9729c5397405d462258969a099cfc9f511ddddc7a02e7a7aaa44cf9569d899409aa03c6da3b7319b40b814526c431c7beb175e4003",
      "networkId": 0,
      "chainId": 0
    }
  ]
}