{
  "hash": "0x70e6a15e96d1010c98aa3a25410ce5d5cdee746bc60395000f215c1a7de5c860",
  "parentHash": "0x2c91a1e17684605d8a939116e40f6fd4bd464abc9e0167baa0a82533baf823d7",
  "number": 66209,
  "timestamp": 1439250682,
  "nonce": "0x062a321f64c675f3",
  "difficulty": 1942411915137,
  "gasLimit": {
    "_hex": "0x2fefd8"
  },
  "gasUsed": {
    "_hex": "0xbe6c"
  },
  "miner": "0x88D74a59454F6cF3B51ef6b9136AFb6b9D405A88",
  "extraData": "0x476574682f76312e302e312d37666266393930632f6c696e75782f676f312e34",
  "transactions": [
    {
      "hash": "0xf9db06fc8091777bbca52edb75752811c07d606491341e3c922dd9320e80d81f",
      "blockHash": "0x70e6a15e96d1010c98aa3a25410ce5d5cdee746bc60395000f215c1a7de5c860",
      "blockNumber": 66209,
      "transactionIndex": 0,
      "confirmations": null,
      "from": "0x91d52F8dabbfE1bd85ec64Df0D4768e1efb75B11",
      "gasPrice": {
        "_hex": "0xd60340b78"
      },
      "gasLimit": {
        "_hex": "0x15f90"
      },
      "to": "0x793AE8C1b1a160BFc07BFB0d04F85eab1A71F4f2",
      "value": {
        "_hex": "0x0"
      },
      "nonce": 0,
      "data": "0x3ba15036",
      "r": "0x647ae1cc2bfc556f135a8066c34fa072a0bf87e56c7de0b49cf6a83439cb752e",
      "s": "0x4c0837571991ecd57afbd48c3000b74849e6ea169cf4e9a615dac52b1715df9e",
      "v": 27,
      "creates": null,
      "raw": "0xf86980850d60340b7883015f9094793ae8c1b1a160bfc07bfb0d04f85eab1a71f4f280843ba150361ba0647ae1cc2bfc556f135a8066c34fa072a0bf87e56c7de0b49cf6a83439cb752ea04c0837571991ecd57afbd48c3000b74849e6ea169cf4e9a615dac52b1715df9e",
      "networkId": 0,
      "chainId": 0
    }
  ]
}