{
  "hash": "0xdcd334b8eed297103a0fbcb654b7e13d370c7d1230243202bf2657f20a29cb4c",
  "parentHash": "0xfc03a835f1b8aa6db003d6b036b93f06b7a11de69b333027d34ba99fee61cad4",
  "number": 100421,
  "timestamp": 1439806365,
  "nonce": "0x7328f40d50198f75",
  "difficulty": 3794984193252,
  "gasLimit": {
    "_hex": "0x2fefd8"
  },
  "gasUsed": {
    "_hex": "0x14820"
  },
  "miner": "0xe6A7a1d47ff21B6321162AEA7C6CB457D5476Bca",
  "extraData": "0x476574682f76312e302e312d38326566323666362f6c696e75782f676f312e34",
  "transactions": [
    {
      "hash": "0x3d0f34e5a1c1aa43fa913697a38a1749ab7398b9cd5023c8adb71db30bd09f55",
      "blockHash": "0xdcd334b8eed297103a0fbcb654b7e13d370c7d1230243202bf2657f20a29cb4c",
      "blockNumber": 100421,
      "transactionIndex": 0,
      "confirmations": null,
      "from": "0x519DC97eF09491aE962A8F13fe144c71feca4662",
      "gasPrice": {
        "_hex": "0xda6a54dc9"
      },
      "gasLimit": {
        "_hex": "0x5208"
      },
      "to": "0x32Be343B94f860124dC4fEe278FDCBD38C102D88",
      "value": {
        "_hex": "0x3263bfe18a531800"
      },
      "nonce": 9,
      "data": "0x",
      "r": "0xd9fede024d875b3e0dd899db84b6f864111ea587f8e222203486b59fd14a1f2b",
      "s": "0x59c978e1e59d14797e0ac86f1aa09bca7ac66d6245a9262a0b8821dffb100083",
      "v": 27,
      "creates": null,
      "raw": "0xf86c09850da6a54dc98252089432be343b94f860124dc4fee278fdcbd38c102d88883263bfe18a531800801ba0d9fede024d875b3e0dd899db84b6f864111ea587f8e222203486b59fd14a1f2ba059c978e1e59d14797e0ac86f1aa09bca7ac66d6245a9262a0b8821dffb100083",
      "networkId": 0,
      "chainId": 0
    },
    {
      "hash": "0x320f10867511d448c4dcc652d388c46180c3ec86d0820ba69b973435104464d9",
      "blockHash": "0xdcd334b8eed297103a0fbcb654b7e13d370c7d1230243202bf2657f20a29cb4c",
      "blockNumber": 100421,
      "transactionIndex": 1,
      "confirmations": null,
      "from": "0x46e97208BC7F618816Cb502A2b516fb4BC41f1D3",
      "gasPrice": {
        "_hex": "0xda6a54dc9"
      },
      "gasLimit": {
        "_hex": "0x5208"
      },
      "to": "0x32Be343B94f860124dC4fEe278FDCBD38C102D88",
      "value": {
        "_hex": "0x465bd11b21fa5000"
      },
      "nonce": 6,
      "data": "0x",
      "r": "0x11ca56321aa6f81c2b62c7438c51670acb86324778dee76a973d0bb4e7fcb29d",
      "s": "0x09f70769b4c6b67e9ceccc43e0c5630fa60edb918b3b035bad30a7314b992936",
      "v": 28,
      "creates": null,
      "raw": "0xf86c06850da6a54dc98252089432be343b94f860124dc4fee278fdcbd38c102d8888465bd11b21fa5000801ca011ca56321aa6f81c2b62c7438c51670acb86324778dee76a973d0bb4e7fcb29da009f70769b4c6b67e9ceccc43e0c5630fa60edb918b3b035bad30a7314b992936",
      "networkId": 0,
      "chainId": 0
    },
    {
      "hash": "0xa860fd2493d7f58548fd6583a0cff1ea634f84cec203d85e7c6e558e47c01ca1",
      "blockHash": "0xdcd334b8eed297103a0fbcb654b7e13d370c7d1230243202bf2657f20a29cb4c",
      "blockNumber": 100421,
      "transactionIndex": 2,
      "confirmations": null,
      "from": "0x7884D470204862a0d1A21122F41ee77430396Ee5",
      "gasPrice": {
        "_hex": "0xd7a58ca6c"
      },
      "gasLimit": {
        "_hex": "0x15f90"
      },
      "to": "0x9A416182Eb93a0510beb9F0ACA272A36b1F95E4f",
      "value": {
        "_hex": "0x13fbe85edc90000"
      },
      "nonce": 52,
      "data": "0x",
      "r": "0x9eb82936716560acfa30752292de23ad454f883628365ff030acdaa6927b6da5",
      "s": "0x5789afc05c3426b6f838b38b10aa3d7827895e592fdefbb4ab4ce8b121a14075",
      "v": 28,
      "creates": null,
      "raw": "0xf86d34850d7a58ca6c83015f90949a416182eb93a0510beb9f0aca272a36b1f95e4f88013fbe85edc90000801ca09eb82936716560acfa30752292de23ad454f883628365ff030acdaa6927b6da5a05789afc05c3426b6f838b38b10aa3d7827895e592fdefbb4ab4ce8b121a14075",
      "networkId": 0,
      "chainId": 0
    },
    {
      "hash": "0xdba0d5d52e08666eac59568fa49542da4b7b996295ebb6c432eea65fbcf32f6c",
      "blockHash": "0xdcd334b8eed297103a0fbcb654b7e13d370c7d1230243202bf2657f20a29cb4c",
      "blockNumber": 100421,
      "transactionIndex": 3,
      "confirmations": null,
      "from": "0xF2d2AfF1320476cb8C6b607199D23175cc595693",
      "gasPrice": {
        "_hex": "0xd1b9557f6"
      },
      "gasLimit": {
        "_hex": "0x15f90"
      },
      "to": "0xF5EeDc192aB70b08D8354384aD94efD095849E00",
      "value": {
        "_hex": "0x147dcdc54529a80000"
      },
      "nonce": 47,
      "data": "0x",
      "r": "0x2e342e65f64c4c44b8edc5c7586e27695150b2376a264d25e8fc780e4d4c9550",
      "s": "0x500dd0511757bb879e554eff8e246b820b9ff25094bbf08bdab210d11b9913bd",
      "v": 28,
      "creates": null,
      "raw": "0xf86e2f850d1b9557f683015f9094f5eedc192ab70b08d8354384ad94efd095849e0089147dcdc54529a80000801ca02e342e65f64c4c44b8edc5c7586e27695150b2376a264d25e8fc780e4d4c9550a0500dd0511757bb879e554eff8e246b820b9ff25094bbf08bdab210d11b9913bd",
      "networkId": 0,
      "chainId": 0
    }
  ]
}