{
  "hash": "0x0132c886403eb89c529e6ac1c34a486e109db9262c5eabd9df056732ea66e5d2",
  "parentHash": "0xb2e798989d198bfcb1f98aacd14227aecc929d574546915b4f902091489701b8",
  "number": 77961,
  "timestamp": 1439445739,
  "nonce": "0xb34325cd67435d31",
  "difficulty": 2292222128935,
  "gasLimit": {
    "_hex": "0x2fefd8"
  },
  "gasUsed": {
    "_hex": "0x7a62"
  },
  "miner": "0x88D74a59454F6cF3B51ef6b9136AFb6b9D405A88",
  "extraData": "0x476574682f76312e302e312d37666266393930632f6c696e75782f676f312e34",
  "transactions": [
    {
      "hash": "0x4b01eb31c637450ec38fb1f8aaff417abcba8ba9f55a492bf838b0c6b0c9fc57",
      "blockHash": "0x0132c886403eb89c529e6ac1c34a486e109db9262c5eabd9df056732ea66e5d2",
      "blockNumber": 77961,
      "transactionIndex": 0,
      "confirmations": null,
      "from": "0xD1826373C4E0938f0b4302B40324f7f9c546492C",
      "gasPrice": {
        "_hex": "0xda47b0a27"
      },
      "gasLimit": {
        "_hex": "0x30d40"
      },
      "to": "0x93eEA62C088759fd22ebc15a6f9645672D3a9265",
      "value": {
        "_hex": "0xe8d4a51000"
      },
      "nonce": 12,
      "data": "0x",
      "r": "0xc56511e862903eb54432227a9b3d1b6015b06ca02b8e1d09ddf62bb422713744",
      "s": "0x3465987fd4ed8ba86c4264426eecf1bf173b49aa2dd84ea6b6522fc18ad4ae56",
      "v": 28,
      "creates": null,
      "raw": "0xf86a0c850da47b0a2783030d409493eea62c088759fd22ebc15a6f9645672d3a926585e8d4a51000801ca0c56511e862903eb54432227a9b3d1b6015b06ca02b8e1d09ddf62bb422713744a03465987fd4ed8ba86c4264426eecf1bf173b49aa2dd84ea6b6522fc18ad4ae56",
      "networkId": 0,
      "chainId": 0
    }
  ]
}