{
  "hash": "0xedfe063bb7493455c2c10a351f151c8e446e56456e523cc5c3deed75f734029d",
  "parentHash": "0xd376b4ba8ab21d8bffb7b45c70d41ddf308ecc2e76865e32fbedb435756335aa",
  "number": 82136,
  "timestamp": 1439514244,
  "nonce": "0xebde6ed7847c1f8c",
  "difficulty": 2385840223221,
  "gasLimit": {
    "_hex": "0x2fefd8"
  },
  "gasUsed": {
    "_hex": "0xa410"
  },
  "miner": "0xe090Ffdced499691fA9379752a59F8A058c1eE4A",
  "extraData": "0x476574682f76312e302e312f6c696e75782f676f312e342e32",
  "transactions": [
    {
      "hash": "0xa248554d050621330d085e9363554f226f5c9c704ec275f3c2a4bf41dfdf81d8",
      "blockHash": "0xedfe063bb7493455c2c10a351f151c8e446e56456e523cc5c3deed75f734029d",
      "blockNumber": 82136,
      "transactionIndex": 0,
      "confirmations": null,
      "from": "0x4717DdA36062a4D937DF7601Bd07354806A957EA",
      "gasPrice": {
        "_hex": "0xdbe51b1b5"
      },
      "gasLimit": {
        "_hex": "0x5208"
      },
      "to": "0x32Be343B94f860124dC4fEe278FDCBD38C102D88",
      "value": {
        "_hex": "0x1a1cf7d9f79bb000000"
      },
      "nonce": 3,
      "data": "0x",
      "r": "0xe26e3ef2832c926531f84917ce1b51a727365086be172c0b5098a14eda589fba",
      "s": "0x06e557493b09d89dc05a049df528969ca3c2583ea6a975e3e4389b6360811406",
      "v": 28,
      "creates": null,
      "raw": "0xf86e03850dbe51b1b58252089432be343b94f860124dc4fee278fdcbd38c102d888a01a1cf7d9f79bb000000801ca0e26e3ef2832c926531f84917ce1b51a727365086be172c0b5098a14eda589fbaa006e557493b09d89dc05a049df528969ca3c2583ea6a975e3e4389b6360811406",
      "networkId": 0,
      "chainId": 0
    },
    {
      "hash": "0x598225e93c730f6c79e77de8b0b0a4fff5d944fae48e14fa7d59a471206b1324",
      "blockHash": "0xedfe063bb7493455c2c10a351f151c8e446e56456e523cc5c3deed75f734029d",
      "blockNumber": 82136,
      "transactionIndex": 1,
      "confirmations": null,
      "from": "0xdEC7d1B05f89c0Ce0870Ea4AeA18138264675478",
      "gasPrice": {
        "_hex": "0xdbe51b1b5"
      },
      "gasLimit": {
        "_hex": "0x5208"
      },
      "to": "0x32Be343B94f860124dC4fEe278FDCBD38C102D88",
      "value": {
        "_hex": "0x3635b382e8712e0000"
      },
      "nonce": 5,
      "data": "0x",
      "r": "0xd19e7c261fecab5c57a6932c0a45935727845308ecba5329cc668ea52c1e2170",
      "s": "0x67505a840e99b180864744a036e5ecf97880335cb4a73b636c14db428e9c3d35",
      "v": 27,
      "creates": null,
      "raw": "0xf86d05850dbe51b1b58252089432be343b94f860124dc4fee278fdcbd38c102d88893635b382e8712e0000801ba0d19e7c261fecab5c57a6932c0a45935727845308ecba5329cc668ea52c1e2170a067505a840e99b180864744a036e5ecf97880335cb4a73b636c14db428e9c3d35",
      "networkId": 0,
      "chainId": 0
    }
  ]
}