{
  "hash": "0x11f8c06128a2487c31a16e717e1ad29c5290b1e3a998e944743a5ed1cd992863",
  "parentHash": "0xd532a6e85ee35d4b47169685641f53bdb108b490caf46d47e59f4cfe969c8135",
  "number": 80406,
  "timestamp": 1439485115,
  "nonce": "0x00925ecee42c4913",
  "difficulty": 2393333770326,
  "gasLimit": {
    "_hex": "0x2fefd8"
  },
  "gasUsed": {
    "_hex": "0x5208"
  },
  "miner": "0x580992B51e3925e23280EfB93d3047C82f17E038",
  "extraData": "0x476574682f76312e302e312f6c696e75782f676f312e342e32",
  "transactions": [
    {
      "hash": "0x402efdaad44766495bea4e9075f89043961d4216aae8e9e6dcd8730fc712189b",
      "blockHash": "0x11f8c06128a2487c31a16e717e1ad29c5290b1e3a998e944743a5ed1cd992863",
      "blockNumber": 80406,
      "transactionIndex": 0,
      "confirmations": null,
      "from": "0x2905726Ed11131A984ce9C0119cB32DBC99dE90B",
      "gasPrice": {
        "_hex": "0x10dc90d85e7"
      },
      "gasLimit": {
        "_hex": "0x15f90"
      },
      "to": "0x062b7D49861d2A000578D647BCE532Eb1dCF5EFe",
      "value": {
        "_hex": "0x4563918244f40000"
      },
      "nonce": 27,
      "data": "0x",
      "r": "0xede4376409cb53f68bf855bdaa7a29e9f90668502bafa4015718c4fd63da3dbb",
      "s": "0x4d1697259eefb7fd85b2119f3abf9a595d4c5430d8d5c7038d9cb06c9b134bfe",
      "v": 27,
      "creates": null,
      "raw": "0xf86e1b86010dc90d85e783015f9094062b7d49861d2a000578d647bce532eb1dcf5efe884563918244f40000801ba0ede4376409cb53f68bf855bdaa7a29e9f90668502bafa4015718c4fd63da3dbba04d1697259eefb7fd85b2119f3abf9a595d4c5430d8d5c7038d9cb06c9b134bfe",
      "networkId": 0,
      "chainId": 0
    }
  ]
}