{
  "hash": "0xe8f28630f8c7705b277901a7a66d3c6006357b55869bd1e71f400294725127b5",
  "parentHash": "0xdbe1983192b8fae8dbe2e7ccfd81f06a511be128225db747327314a1e5017156",
  "number": 110576,
  "timestamp": 1439976015,
  "nonce": "0x3aadb90f729d7b70",
  "difficulty": 4369110887698,
  "gasLimit": {
    "_hex": "0x2fefd8"
  },
  "gasUsed": {
    "_hex": "0x520c"
  },
  "miner": "0xe6A7a1d47ff21B6321162AEA7C6CB457D5476Bca",
  "extraData": "0x476574682f76312e302e312d38326566323666362f6c696e75782f676f312e34",
  "transactions": [
    {
      "hash": "0xdf32a43149ca7e25a6c51fa8835d5f1d2187d696fb568a5f0dc2f270d699527d",
      "blockHash": "0xe8f28630f8c7705b277901a7a66d3c6006357b55869bd1e71f400294725127b5",
      "blockNumber": 110576,
      "transactionIndex": 0,
      "confirmations": null,
      "from": "0xb676E4AD85e5f9C15b4c67350bAAc2F5886250a9",
      "gasPrice": {
        "_hex": "0xd8480322c"
      },
      "gasLimit": {
        "_hex": "0x7530"
      },
      "to": "0x9fCaccFf3842dC5e596ef709B6776019d0618819",
      "value": {
        "_hex": "0x45400a8fd5330000"
      },
      "nonce": 0,
      "data": "0x00",
      "r": "0x05bab27c9f860f2dc5e6cd83bb1225cb484a55243accbf1143ef5a74f118b90e",
      "s": "0x6d266d69c1d23ff6e3367437be8e7c4691eb8b0ba4c3fe63d9d4d201793733c1",
      "v": 27,
      "creates": null,
      "raw": "0xf86c80850d8480322c827530949fcaccff3842dc5e596ef709b6776019d06188198845400a8fd5330000001ba005bab27c9f860f2dc5e6cd83bb1225cb484a55243accbf1143ef5a74f118b90ea06d266d69c1d23ff6e3367437be8e7c4691eb8b0ba4c3fe63d9d4d201793733c1",
      "networkId": 0,
      "chainId": 0
    }
  ]
}