{
  "hash": "0xffafeade50fc5a711f39b8f892c808cf4bf3e2c6764ebce024c449ea1888acb1",
  "parentHash": "0x076bf7237cedcd141e3c59c96ecf963b6f862ef223792049391df4ca6bd86622",
  "number": 99917,
  "timestamp": 1439797576,
  "nonce": "0x750119798e684aba",
  "difficulty": 3862514721348,
  "gasLimit": {
    "_hex": "0x2fefd8"
  },
  "gasUsed": {
    "_hex": "0x5208"
  },
  "miner": "0xe6A7a1d47ff21B6321162AEA7C6CB457D5476Bca",
  "extraData": "0x476574682f76312e302e312d38326566323666362f6c696e75782f676f312e34",
  "transactions": [
    {
      "hash": "0x43fea9f37b4878b763d169773653197306fb81ae3e5882002acae99613a234c1",
      "blockHash": "0xffafeade50fc5a711f39b8f892c808cf4bf3e2c6764ebce024c449ea1888acb1",
      "blockNumber": 99917,
      "transactionIndex": 0,
      "confirmations": null,
      "from": "0xC7F13fb553585546Dbbf3D0e4b52b20Bb52Af854",
      "gasPrice": {
        "_hex": "0xcc1e4f1d3"
      },
      "gasLimit": {
        "_hex": "0x15f90"
      },
      "to": "0x385e7d962Ebd5c8422B3Cb9fC6718711dccbeAa0",
      "value": {
        "_hex": "0xd529ae9e860000"
      },
      "nonce": 2,
      "data": "0x",
      "r": "0x5dd5883e7c09255cf8425a01cdf86a735980f8d793c8988091cd578e6c1e4c47",
      "s": "0x4197a0d52a9cad103d6f2458f89225cad18610cc4d0448025cd9b0f841d65895",
      "v": 28,
      "creates": null,
      "raw": "0xf86c02850cc1e4f1d383015f9094385e7d962ebd5c8422b3cb9fc6718711dccbeaa087d529ae9e860000801ca05dd5883e7c09255cf8425a01cdf86a735980f8d793c8988091cd578e6c1e4c47a04197a0d52a9cad103d6f2458f89225cad18610cc4d0448025cd9b0f841d65895",
      "networkId": 0,
      "chainId": 0
    }
  ]
}