{
  "hash": "0x4be57f3152e71359cf2e4b896e3f81dbbf9777b1eebfc69a74934c254293ba3d",
  "parentHash": "0x997f434bec31f599252f0acd1b00b6aa0c694022b5badd1b8135283bc79c13cc",
  "number": 103475,
  "timestamp": 1439854027,
  "nonce": "0x9e8083005d103377",
  "difficulty": 4170528433618,
  "gasLimit": {
    "_hex": "0x2fefd8"
  },
  "gasUsed": {
    "_hex": "0x5208"
  },
  "miner": "0x2C674A948592B20a4B775E1a3991Db043E6CF0FE",
  "extraData": "0x476574682f76312e302e312d38326566323666362f6c696e75782f676f312e34",
  "transactions": [
    {
      "hash": "0xdd84fb9eaaaaf059de86944ee2f15b183cc8582eb11fa58194943bb83b359bb7",
      "blockHash": "0x4be57f3152e71359cf2e4b896e3f81dbbf9777b1eebfc69a74934c254293ba3d",
      "blockNumber": 103475,
      "transactionIndex": 0,
      "confirmations": null,
      "from": "0x120A270bbC009644e35F0bB6ab13f95b8199c4ad",
      "gasPrice": {
        "_hex": "0xd41bb0915"
      },
      "gasLimit": {
        "_hex": "0x3d090"
      },
      "to": "0x60d85a32126130b225913C23dF4e5EF8b759fA09",
      "value": {
        "_hex": "0x233c8fe42703e80000"
      },
      "nonce": 721,
      "data": "0x",
      "r": "0xfeef6591eadbd3be38eaf820b65eb5b101ce41155350e03bdbecf80e2ec2f6fb",
      "s": "0x1d175d0b9acad709a8af05de8fb1e0a8deeffb8a5a08ef8cb0a6777e1f394016",
      "v": 27,
      "creates": null,
      "raw": "0xf8708202d1850d41bb09158303d0909460d85a32126130b225913c23df4e5ef8b759fa0989233c8fe42703e80000801ba0feef6591eadbd3be38eaf820b65eb5b101ce41155350e03bdbecf80e2ec2f6fba01d175d0b9acad709a8af05de8fb1e0a8deeffb8a5a08ef8cb0a6777e1f394016",
      "networkId": 0,
      "chainId": 0
    }
  ]
}