{
  "hash": "0xa1b43bad4d21c3c817217a584e81981c060dfdaa9b55845d84394a7d2cbae8eb",
  "parentHash": "0x2e8b61132f000075360a86a1ef4e7a03930d87df1706871c55aeed2defebf82d",
  "number": 96087,
  "timestamp": 1439734692,
  "nonce": "0xdd964b21e8555fa8",
  "difficulty": 3644361834941,
  "gasLimit": {
    "_hex": "0x2fefd8"
  },
  "gasUsed": {
    "_hex": "0x5208"
  },
  "miner": "0x56A1018A2F565672E98f4cB657cEB8059ff3E5a2",
  "extraData": "0x476574682f76312e302e312f77696e646f77732f676f312e342e32",
  "transactions": [
    {
      "hash": "0xf3e334372469f030dc797c3e00af97696c0dabea1d35271ae5a3e63d096944f5",
      "blockHash": "0xa1b43bad4d21c3c817217a584e81981c060dfdaa9b55845d84394a7d2cbae8eb",
      "blockNumber": 96087,
      "transactionIndex": 0,
      "confirmations": null,
      "from": "0x32Be343B94f860124dC4fEe278FDCBD38C102D88",
      "gasPrice": {
        "_hex": "0xceb6cef78"
      },
      "gasLimit": {
        "_hex": "0x5208"
      },
      "to": "0x663F37156fa35DBA128c9682f13D515b68002002",
      "value": {
        "_hex": "0x22b1c8c1227a00000"
      },
      "nonce": 996,
      "data": "0x",
      "r": "0x5ede9d8d3fccc6bf84af57d3518cdd30243f8d96e25c21d122f1445cb1d9528f",
      "s": "0x67c4e8bf6709eb6943533c22a90c2deb77d48e41301c3bd2dd0cf0d1666d0149",
      "v": 27,
      "creates": null,
      "raw": "0xf86f8203e4850ceb6cef7882520894663f37156fa35dba128c9682f13d515b6800200289022b1c8c1227a00000801ba05ede9d8d3fccc6bf84af57d3518cdd30243f8d96e25c21d122f1445cb1d9528fa067c4e8bf6709eb6943533c22a90c2deb77d48e41301c3bd2dd0cf0d1666d0149",
      "networkId": 0,
      "chainId": 0
    }
  ]
}