{
  "hash": "0xf256306f9c759f39670ee42369f034ef7be61a27e25b2c23463c7eae068704d4",
  "parentHash": "0xf48c9fc07ffd060c0d3e27897c167dab97c081d8331155cda93429fdd121b24d",
  "number": 95596,
  "timestamp": 1439726335,
  "nonce": "0x96fbc6ee71431a6c",
  "difficulty": 3625052272299,
  "gasLimit": {
    "_hex": "0x2fefd8"
  },
  "gasUsed": {
    "_hex": "0x5208"
  },
  "miner": "0xe6A7a1d47ff21B6321162AEA7C6CB457D5476Bca",
  "extraData": "0x476574682f76312e302e312d38326566323666362f6c696e75782f676f312e34",
  "transactions": [
    {
      "hash": "0x76f5d3375e32507462738494567b9246b66571368453ec8bf7a806a531fc4918",
      "blockHash": "0xf256306f9c759f39670ee42369f034ef7be61a27e25b2c23463c7eae068704d4",
      "blockNumber": 95596,
      "transactionIndex": 0,
      "confirmations": null,
      "from": "0x2910543Af39abA0Cd09dBb2D50200b3E800A63D2",
      "gasPrice": {
        "_hex": "0xdb95f9cd8"
      },
      "gasLimit": {
        "_hex": "0x5208"
      },
      "to": "0x6De181Fc4C140FA31F196e5393516c49EEeBdAd3",
      "value": {
        "_hex": "0x2acfd86ba1f705a000"
      },
      "nonce": 897,
      "data": "0x",
      "r": "0x8b2adb3700a9dcacc207de2289c32376670c3925a2df86848c3ef34aa2f536bf",
      "s": "0x013b2fea0c5b0d741f4f5f660a1dd66d33d9fd76ab2c6ceac6e7025f3830e8b1",
      "v": 28,
      "creates": null,
      "raw": "0xf86f820381850db95f9cd8825208946de181fc4c140fa31f196e5393516c49eeebdad3892acfd86ba1f705a000801ca08b2adb3700a9dcacc207de2289c32376670c3925a2df86848c3ef34aa2f536bfa0013b2fea0c5b0d741f4f5f660a1dd66d33d9fd76ab2c6ceac6e7025f3830e8b1",
      "networkId": 0,
      "chainId": 0
    }
  ]
}