{
  "hash": "0x5382d7b790fa27749bb6759153c1ce0c6227c7fc325c59d238e379d572e39ab2",
  "parentHash": "0xe98b6e700311f79b3a201beb6cbfdefe999d17cf88771e26d2db37f369d05c9a",
  "number": 92347,
  "timestamp": 1439670691,
  "nonce": "0xa6ab0e19a2e8a611",
  "difficulty": 3502888968819,
  "gasLimit": {
    "_hex": "0x2fefd8"
  },
  "gasUsed": {
    "_hex": "0x5208"
  },
  "miner": "0xe6A7a1d47ff21B6321162AEA7C6CB457D5476Bca",
  "extraData": "0x476574682f76312e302e312d38326566323666362f6c696e75782f676f312e34",
  "transactions": [
    {
      "hash": "0xe67b987841cc07960a25f9d43e566fbb846e791b277c25bb938f7401fae13e4e",
      "blockHash": "0x5382d7b790fa27749bb6759153c1ce0c6227c7fc325c59d238e379d572e39ab2",
      "blockNumber": 92347,
      "transactionIndex": 0,
      "confirmations": null,
      "from": "0x120A270bbC009644e35F0bB6ab13f95b8199c4ad",
      "gasPrice": {
        "_hex": "0xccf53335c"
      },
      "gasLimit": {
        "_hex": "0x3d090"
      },
      "to": "0x36B33F21Ba59c53E3502E52b8e0a7fD311215FFd",
      "value": {
        "_hex": "0x1dee382c88045cb000"
      },
      "nonce": 546,
      "data": "0x",
      "r": "0xded0b94a89d343440260ec296bcc7fecef3301a8d0f66d8205e950a355d183d0",
      "s": "0x12f4cba23635e6f57b14e3e916f926143b9e340c95d0e304844f2daf8513b6c9",
      "v": 28,
      "creates": null,
      "raw": "0xf870820222850ccf53335c8303d0909436b33f21ba59c53e3502e52b8e0a7fd311215ffd891dee382c88045cb000801ca0ded0b94a89d343440260ec296bcc7fecef3301a8d0f66d8205e950a355d183d0a012f4cba23635e6f57b14e3e916f926143b9e340c95d0e304844f2daf8513b6c9",
      "networkId": 0,
      "chainId": 0
    }
  ]
}