{
  "hash": "0x0cc2d11baca90b24e28d83157a674615c5747ffbbeb2ef547a5b8e1177a30851",
  "parentHash": "0x2066aa31812f2d2e200ee1b709b544c520ca6dfe36cfb4655c54a832ac80e09e",
  "number": 112488,
  "timestamp": 1440008277,
  "nonce": "0xec941a940f108c57",
  "difficulty": 4415291206765,
  "gasLimit": {
    "_hex": "0x2fefd8"
  },
  "gasUsed": {
    "_hex": "0x5208"
  },
  "miner": "0x9746c7e1ef2bd21FF3997fa467593a89cb852BD0",
  "extraData": "0x476574682f76312e302e312f77696e646f77732f676f312e342e32",
  "transactions": [
    {
      "hash": "0x2b2b46a6f486bc5fbf0f1396385d5e26c2b7580bc87e10ac5a0318de9c25a01c",
      "blockHash": "0x0cc2d11baca90b24e28d83157a674615c5747ffbbeb2ef547a5b8e1177a30851",
      "blockNumber": 112488,
      "transactionIndex": 0,
      "confirmations": null,
      "from": "0x2f86ba8019945f39edE131D38d4d8780884DA553",
      "gasPrice": {
        "_hex": "0xd5c576694"
      },
      "gasLimit": {
        "_hex": "0x5208"
      },
      "to": "0x32Be343B94f860124dC4fEe278FDCBD38C102D88",
      "value": {
        "_hex": "0xa2a146f3196fe00000"
      },
      "nonce": 37,
      "data": "0x",
      "r": "0x48d22968dc222620d2b123d431774768207414a0cc634fe54f0ff936bd6e56c9",
      "s": "0x5dad4448f9d925f3a876e75c6ac5cae9212a187dcb6844adb7cfc4a60ff54e2f",
      "v": 27,
      "creates": null,
      "raw": "0xf86d25850d5c5766948252089432be343b94f860124dc4fee278fdcbd38c102d8889a2a146f3196fe00000801ba048d22968dc222620d2b123d431774768207414a0cc634fe54f0ff936bd6e56c9a05dad4448f9d925f3a876e75c6ac5cae9212a187dcb6844adb7cfc4a60ff54e2f",
      "networkId": 0,
      "chainId": 0
    }
  ]
}