{
  "hash": "0xb292f77b40896c86a8f336ea36d6203e075ed67d81d278b48f4aea0b82c160b8",
  "parentHash": "0x8e0760aba90a9c1e46ba2fac727812484504f78b6872e8af2da783b617d0cd3b",
  "number": 101191,
  "timestamp": 1439818861,
  "nonce": "0x42587f390cbe054a",
  "difficulty": 3846871923321,
  "gasLimit": {
    "_hex": "0x2fefd8"
  },
  "gasUsed": {
    "_hex": "0xa410"
  },
  "miner": "0x785ffdDd5cE55c6DF963f345e68d3F2024E5Acb1",
  "extraData": "0x",
  "transactions": [
    {
      "hash": "0x4730238f9c388e6682865e188c94e3a1b105631030b76dbf5910da2982b98cf2",
      "blockHash": "0xb292f77b40896c86a8f336ea36d6203e075ed67d81d278b48f4aea0b82c160b8",
      "blockNumber": 101191,
      "transactionIndex": 0,
      "confirmations": null,
      "from": "0xD9666150A9dA92d9108198a4072970805a8B3428",
      "gasPrice": {
        "_hex": "0xde94c8378"
      },
      "gasLimit": {
        "_hex": "0x5208"
      },
      "to": "0x32Be343B94f860124dC4fEe278FDCBD38C102D88",
      "value": {
        "_hex": "0x455f1c59010f8000"
      },
      "nonce": 49,
      "data": "0x",
      "r": "0x80dd95c9457cb1fd87587da4de462b7a731c669d2534b78e53884d52c68d4571",
      "s": "0x3907bd46ada588bdacc47b925dbc4e2c6f039bffb255d04eb8472f85b16fee6b",
      "v": 28,
      "creates": null,
      "raw": "0xf86c31850de94c83788252089432be343b94f860124dc4fee278fdcbd38c102d8888455f1c59010f8000801ca080dd95c9457cb1fd87587da4de462b7a731c669d2534b78e53884d52c68d4571a03907bd46ada588bdacc47b925dbc4e2c6f039bffb255d04eb8472f85b16fee6b",
      "networkId": 0,
      "chainId": 0
    },
    {
      "hash": "0xd20e99965fb4f77e629dd7048a43b7da8e60066b366358fa69e6e15638fbfb50",
      "blockHash": "0xb292f77b40896c86a8f336ea36d6203e075ed67d81d278b48f4aea0b82c160b8",
      "blockNumber": 101191,
      "transactionIndex": 1,
      "confirmations": null,
      "from": "0x8F79f76381Aad7B98C19aF55eE75fdfEeb012211",
      "gasPrice": {
        "_hex": "0xde94c8378"
      },
      "gasLimit": {
        "_hex": "0x5208"
      },
      "to": "0x32Be343B94f860124dC4fEe278FDCBD38C102D88",
      "value": {
        "_hex": "0x21d3760353c578000"
      },
      "nonce": 40,
      "data": "0x",
      "r": "0x04088f3b281a958cb3e1ad50636faa09a4d80203e7ef0224b3724566b6a81581",
      "s": "0x699bb5d3e002a31792eef3f934886ba0f83e6d3e95edc02c81185da73fcd6378",
      "v": 28,
      "creates": null,
      "raw": "0xf86d28850de94c83788252089432be343b94f860124dc4fee278fdcbd38c102d8889021d3760353c578000801ca004088f3b281a958cb3e1ad50636faa09a4d80203e7ef0224b3724566b6a81581a0699bb5d3e002a31792eef3f934886ba0f83e6d3e95edc02c81185da73fcd6378",
      "networkId": 0,
      "chainId": 0
    }
  ]
}