{
  "hash": "0xd57f27c1559571a60ae138db6006d21453bfa2a70af8d8c1c99b57ec8acf835e",
  "parentHash": "0x3ac38abd8e81c9b4abff775c62e692e6f059a72c79f6a33fadbe71c3a1d85914",
  "number": 101644,
  "timestamp": 1439825903,
  "nonce": "0xf9ee6821262bbca8",
  "difficulty": 3890107524186,
  "gasLimit": {
    "_hex": "0x2fefd8"
  },
  "gasUsed": {
    "_hex": "0x5208"
  },
  "miner": "0x580992B51e3925e23280EfB93d3047C82f17E038",
  "extraData": "0x476574682f76312e302e312f6c696e75782f676f312e342e32",
  "transactions": [
    {
      "hash": "0x952343b93aa78ee7477b229ff7031dba811e0f1f7686d1e5d84809c1ed812536",
      "blockHash": "0xd57f27c1559571a60ae138db6006d21453bfa2a70af8d8c1c99b57ec8acf835e",
      "blockNumber": 101644,
      "transactionIndex": 0,
      "confirmations": null,
      "from": "0x378fCAEF49580b550cB7164f14811a5E613BD683",
      "gasPrice": {
        "_hex": "0xcfe17931d"
      },
      "gasLimit": {
        "_hex": "0x5208"
      },
      "to": "0x32Be343B94f860124dC4fEe278FDCBD38C102D88",
      "value": {
        "_hex": "0xf3aa0dac1549e000"
      },
      "nonce": 2,
      "data": "0x",
      "r": "0x28b596461780064384a48befbcd75a3e911651cd18ca486328211525d1059b6a",
      "s": "0x49ab6285826bae999fc0a13da7421554af0fdc318e368f476f5c4d5b92207310",
      "v": 28,
      "creates": null,
      "raw": "0xf86c02850cfe17931d8252089432be343b94f860124dc4fee278fdcbd38c102d8888f3aa0dac1549e000801ca028b596461780064384a48befbcd75a3e911651cd18ca486328211525d1059b6aa049ab6285826bae999fc0a13da7421554af0fdc318e368f476f5c4d5b92207310",
      "networkId": 0,
      "chainId": 0
    }
  ]
}