{
  "hash": "0xa6ff1b44c523a5bce0e594da26dbb219ce7ab45191f1a3caf85dd03eeab0195a",
  "parentHash": "0xecfb1968cfc4f52ba0f1c9b19f85ed121591787856dffa34669018d55826bc79",
  "number": 84644,
  "timestamp": 1439552480,
  "nonce": "0xc390861a67f228e3",
  "difficulty": 2599164083563,
  "gasLimit": {
    "_hex": "0x2fefd8"
  },
  "gasUsed": {
    "_hex": "0x5208"
  },
  "miner": "0xf927a40C8B7F6E07c5af7FA2155B4864a4112B13",
  "extraData": "0x",
  "transactions": [
    {
      "hash": "0xebf98ff4787abea812c0969db6a06bb5b9a8da1fda75b2932f1ce35f638a0b61",
      "blockHash": "0xa6ff1b44c523a5bce0e594da26dbb219ce7ab45191f1a3caf85dd03eeab0195a",
      "blockNumber": 84644,
      "transactionIndex": 0,
      "confirmations": null,
      "from": "0x223eA75ACE9d7F53BC6c131191Aff34B44bd57aC",
      "gasPrice": {
        "_hex": "0xd60340b78"
      },
      "gasLimit": {
        "_hex": "0x5208"
      },
      "to": "0x7339BF89A60F8a29d0Ed436F3198774F8e191f37",
      "value": {
        "_hex": "0x8d23191df5b90000"
      },
      "nonce": 2,
      "data": "0x",
      "r": "0xbec9f41589c5ea0e464f92e0f88d48126e5f8dd1860fb77379585822e5f37e70",
      "s": "0x7f22daecc78910e036a7eb8344babcf4c6e5cb39340e9e34a9e2f5d6f84c8330",
      "v": 27,
      "creates": null,
      "raw": "0xf86c02850d60340b78825208947339bf89a60f8a29d0ed436f3198774f8e191f37888d23191df5b90000801ba0bec9f41589c5ea0e464f92e0f88d48126e5f8dd1860fb77379585822e5f37e70a07f22daecc78910e036a7eb8344babcf4c6e5cb39340e9e34a9e2f5d6f84c8330",
      "networkId": 0,
      "chainId": 0
    }
  ]
}