{
  "hash": "0x98b92d8534596895a2a65269d7a2be6ca8b0429f5d6ded2c819765c54a7dd1b2",
  "parentHash": "0x2ced18a7df433cefc299161214ece561f8d78ad95abdaf7a60b9fce17963fd21",
  "number": 99260,
  "timestamp": 1439787093,
  "nonce": "0xd1f54f7842077f43",
  "difficulty": 3789953704388,
  "gasLimit": {
    "_hex": "0x2fefd8"
  },
  "gasUsed": {
    "_hex": "0x5208"
  },
  "miner": "0xe6A7a1d47ff21B6321162AEA7C6CB457D5476Bca",
  "extraData": "0x476574682f76312e302e312d38326566323666362f6c696e75782f676f312e34",
  "transactions": [
    {
      "hash": "0xa75d58e285ed92f3f789eb5656d6e1d273f73f9191be2d2363f6dd106bcea167",
      "blockHash": "0x98b92d8534596895a2a65269d7a2be6ca8b0429f5d6ded2c819765c54a7dd1b2",
      "blockNumber": 99260,
      "transactionIndex": 0,
      "confirmations": null,
      "from": "0x1a88c57A263f87c39AB07f02045f7bBe559d93bc",
      "gasPrice": {
        "_hex": "0xcafe5b9b8"
      },
      "gasLimit": {
        "_hex": "0x5208"
      },
      "to": "0xFBb1b73C4f0BDa4f67dcA266ce6Ef42f520fBB98",
      "value": {
        "_hex": "0x2c8825410c564240"
      },
      "nonce": 0,
      "data": "0x",
      "r": "0x05de1a6f0ba1c7ec37d9cc8f6783be8ee521203d2905f04ca6b2952474428020",
      "s": "0x27c868266b50bbbe63f5d2e7e7127ae3f049f4ce15799cd08a027091333fd3e4",
      "v": 28,
      "creates": null,
      "raw": "0xf86c80850cafe5b9b882520894fbb1b73c4f0bda4f67dca266ce6ef42f520fbb98882c8825410c564240801ca005de1a6f0ba1c7ec37d9cc8f6783be8ee521203d2905f04ca6b2952474428020a027c868266b50bbbe63f5d2e7e7127ae3f049f4ce15799cd08a027091333fd3e4",
      "networkId": 0,
      "chainId": 0
    }
  ]
}