{
  "hash": "0xa62a1079def9f6c9173ddf010a99ad07357722bb1b2366431fd7aeffa6083973",
  "parentHash": "0x97b4afbbab5fbc0a028d63dcaa7d4bce64f68a7e627ec6687ac8a2ed243beef0",
  "number": 78897,
  "timestamp": 1439461226,
  "nonce": "0x5634890fddaeb88e",
  "difficulty": 2283030846471,
  "gasLimit": {
    "_hex": "0x2fefd8"
  },
  "gasUsed": {
    "_hex": "0x546c"
  },
  "miner": "0x88D74a59454F6cF3B51ef6b9136AFb6b9D405A88",
  "extraData": "0x476574682f76312e302e312d38326566323666362f6c696e75782f676f312e34",
  "transactions": [
    {
      "hash": "0x7e84e50651453eba004a574bd626ba5450f7f2382b6c506403c0abc0f46d6941",
      "blockHash": "0xa62a1079def9f6c9173ddf010a99ad07357722bb1b2366431fd7aeffa6083973",
      "blockNumber": 78897,
      "transactionIndex": 0,
      "confirmations": null,
      "from": "0x9f8aF3029af4Ba51bbAa32cF064816e07A35BBbD",
      "gasPrice": {
        "_hex": "0xcba4f7de5"
      },
      "gasLimit": {
        "_hex": "0x55f0"
      },
      "to": "0x2910543Af39abA0Cd09dBb2D50200b3E800A63D2",
      "value": {
        "_hex": "0x3e73362871420000"
      },
      "nonce": 0,
      "data": "0x454e304236584b4738",
      "r": "0xf363287acc3ce93b6e6f130349aad200e44babbaf74109f37488de8cb4be4395",
      "s": "0x675e01a2e141ae62a6f026985eeb639fbb0eb5ad9e819c040abd876f01d2963c",
      "v": 28,
      "creates": null,
      "raw": "0xf87580850cba4f7de58255f0942910543af39aba0cd09dbb2d50200b3e800a63d2883e7336287142000089454e304236584b47381ca0f363287acc3ce93b6e6f130349aad200e44babbaf74109f37488de8cb4be4395a0675e01a2e141ae62a6f026985eeb639fbb0eb5ad9e819c040abd876f01d2963c",
      "networkId": 0,
      "chainId": 0
    }
  ]
}