{
  "hash": "0x2812ddc9f35ccd65e3391e504135d4677396bd2d300f577c3153dd15e208f6e7",
  "parentHash": "0xafac717d249f6c8e83c0ae09ac38c3576f830755076d8ac9dd2475e07cb1830e",
  "number": 51867,
  "timestamp": 1439012279,
  "nonce": "0xb084727d768470ca",
  "difficulty": 1560391909120,
  "gasLimit": {
    "_hex": "0xe7c38"
  },
  "gasUsed": {
    "_hex": "0x5208"
  },
  "miner": "0xbb7B8287f3F0a933474a79eAe42CBCa977791171",
  "extraData": "0x476574682f4c5649562f76312e302e312f6c696e75782f676f312e342e32",
  "transactions": [
    {
      "hash": "0xd54db387bf166b6985c84fb2ad35ad546b6c134f50b0a9f199289e7df8f5d757",
      "blockHash": "0x2812ddc9f35ccd65e3391e504135d4677396bd2d300f577c3153dd15e208f6e7",
      "blockNumber": 51867,
      "transactionIndex": 0,
      "confirmations": null,
      "from": "0x3f4e6ef4c172d29A5bfc4CC6073A6602eca6c2EB",
      "gasPrice": {
        "_hex": "0xdb03f1f0e"
      },
      "gasLimit": {
        "_hex": "0x5208"
      },
      "to": "0x32Be343B94f860124dC4fEe278FDCBD38C102D88",
      "value": {
        "_hex": "0xddc47a702b60000"
      },
      "nonce": 0,
      "data": "0x",
      "r": "0xe17695f7a292848586df9218727cc83922ef7a11c8e21eafbe04d2bd5f0a38db",
      "s": "0x18095a4e33d26189f63a8816fd65922861507c093cbfd25f1d0d373cd8438346",
      "v": 28,
      "creates": null,
      "raw": "0xf86c80850db03f1f0e8252089432be343b94f860124dc4fee278fdcbd38c102d88880ddc47a702b60000801ca0e17695f7a292848586df9218727cc83922ef7a11c8e21eafbe04d2bd5f0a38dba018095a4e33d26189f63a8816fd65922861507c093cbfd25f1d0d373cd8438346",
      "networkId": 0,
      "chainId": 0
    }
  ]
}