{
  "hash": "0x8acb95e69a0ba73659401d1da9ab88cd5954f37da5fcf586bed79323e22b47ae",
  "parentHash": "0x9c93c683ecce9c67ec703629305afdeb118c97edc75972a221f74c2f65e36f3b",
  "number": 52884,
  "timestamp": 1439028883,
  "nonce": "0x91589466d52ff1fa",
  "difficulty": 1573207548196,
  "gasLimit": {
    "_hex": "0x1b4478"
  },
  "gasUsed": {
    "_hex": "0x5208"
  },
  "miner": "0x47ff6576639c2e94762eA5443978D7681C0E78DC",
  "extraData": "0x476574682f76312e302e312f6c696e75782f676f312e342e32",
  "transactions": [
    {
      "hash": "0x7b9b77aa951399332000b7b75b95556b7d57d2d205f2fd597f57d464612971ff",
      "blockHash": "0x8acb95e69a0ba73659401d1da9ab88cd5954f37da5fcf586bed79323e22b47ae",
      "blockNumber": 52884,
      "transactionIndex": 0,
      "confirmations": null,
      "from": "0x095270cc42141dd998aD2862DBD1fE9B44E7e650",
      "gasPrice": {
        "_hex": "0xcb8c2623b"
      },
      "gasLimit": {
        "_hex": "0x5208"
      },
      "to": "0xA58a34ca2DD2dE7520b845B3628C518Fec14A76B",
      "value": {
        "_hex": "0x38d7ea4c68000"
      },
      "nonce": 0,
      "data": "0x",
      "r": "0xefc977fbb7e36c5b343da87db7f29a38ddab1049428c1848148e560704a296c4",
      "s": "0x4d785e4603f27db4f3e838fd87475caf2640a034f184daa2d3bdcfa3ffa4d06c",
      "v": 28,
      "creates": null,
      "raw": "0xf86b80850cb8c2623b82520894a58a34ca2dd2de7520b845b3628c518fec14a76b87038d7ea4c68000801ca0efc977fbb7e36c5b343da87db7f29a38ddab1049428c1848148e560704a296c4a04d785e4603f27db4f3e838fd87475caf2640a034f184daa2d3bdcfa3ffa4d06c",
      "networkId": 0,
      "chainId": 0
    }
  ]
}