{
  "hash": "0xe4d404a5c726674465dd75ebf788539abb08325a2ccac4f8fbf3385b4e809e54",
  "parentHash": "0xf5ce52e6c2a9d64a23834321c93ad51265033be7db4b565cf9f13cd1fbbaa6bd",
  "number": 68688,
  "timestamp": 1439292135,
  "nonce": "0xaa993f45825a97d7",
  "difficulty": 2018206323019,
  "gasLimit": {
    "_hex": "0x2fefd8"
  },
  "gasUsed": {
    "_hex": "0xa410"
  },
  "miner": "0x88D74a59454F6cF3B51ef6b9136AFb6b9D405A88",
  "extraData": "0x476574682f76312e302e312d37666266393930632f6c696e75782f676f312e34",
  "transactions": [
    {
      "hash": "0x34d6225137dc3259d544dd2c8742940775ce80094649fccef15c887246eed84d",
      "blockHash": "0xe4d404a5c726674465dd75ebf788539abb08325a2ccac4f8fbf3385b4e809e54",
      "blockNumber": 68688,
      "transactionIndex": 0,
      "confirmations": null,
      "from": "0x6534B8e66572C2822b90301C26Fc221B0AC0efDa",
      "gasPrice": {
        "_hex": "0xd4ac327a1"
      },
      "gasLimit": {
        "_hex": "0x5208"
      },
      "to": "0x32Be343B94f860124dC4fEe278FDCBD38C102D88",
      "value": {
        "_hex": "0xa6728a94f4542000"
      },
      "nonce": 0,
      "data": "0x",
      "r": "0x42112784861177c60014d21004d38850383541ec8f2e7176715c5a30d89d4fe2",
      "s": "0x28b32f57976a66e8797dfb877c8fd5067b9e22e0be0399a3a52e0bd6eab66414",
      "v": 28,
      "creates": null,
      "raw": "0xf86c80850d4ac327a18252089432be343b94f860124dc4fee278fdcbd38c102d8888a6728a94f4542000801ca042112784861177c60014d21004d38850383541ec8f2e7176715c5a30d89d4fe2a028b32f57976a66e8797dfb877c8fd5067b9e22e0be0399a3a52e0bd6eab66414",
      "networkId": 0,
      "chainId": 0
    },
    {
      "hash": "0xf2ad782083976d484b7a9225162e81e13f3570249557f0856591a107f2558e13",
      "blockHash": "0xe4d404a5c726674465dd75ebf788539abb08325a2ccac4f8fbf3385b4e809e54",
      "blockNumber": 68688,
      "transactionIndex": 1,
      "confirmations": null,
      "from": "0x117D2945355d346cE6637d6D5CC9A9E46CB43B73",
      "gasPrice": {
        "_hex": "0xd4ac327a1"
      },
      "gasLimit": {
        "_hex": "0x5208"
      },
      "to": "0x32Be343B94f860124dC4fEe278FDCBD38C102D88",
      "value": {
        "_hex": "0xad7436c183a228000"
      },
      "nonce": 7,
      "data": "0x",
      "r": "0x5c82a44f3eced003e0fb01af0aedada05c4cb039fc69935526368d8af6305b19",
      "s": "0x00d64d200544c973d5818b66d14e6c737aa15b5938651dddbc39f94ffb6073be",
      "v": 27,
      "creates": null,
      "raw": "0xf86c07850d4ac327a18252089432be343b94f860124dc4fee278fdcbd38c102d88890ad7436c183a228000801ba05c82a44f3eced003e0fb01af0aedada05c4cb039fc69935526368d8af6305b199fd64d200544c973d5818b66d14e6c737aa15b5938651dddbc39f94ffb6073be",
      "networkId": 0,
      "chainId": 0
    }
  ]
}