{
  "hash": "0xd1b161d99ac902cf36e9014a8f4c12e3fdcf6a0861756045b6137f90207c575f",
  "parentHash": "0x1e5992b300a8aedaf1991133c0e769db556a30c119a1199c8ff0c5e4da08cd17",
  "number": 51383,
  "timestamp": 1439003998,
  "nonce": "0x3966c9956e96c95d",
  "difficulty": 1568120116164,
  "gasLimit": {
    "_hex": "0xaa268"
  },
  "gasUsed": {
    "_hex": "0xa6040"
  },
  "miner": "0x3F98e477a361F777DA14611a7e419A75Fd238b6b",
  "extraData": "0x476574682f76312e302e312f6c696e75782f676f312e342e32",
  "transactions": [
    {
      "hash": "0x524860587052f1445f81d8077b9ae343dc53d0f5a03cdc315887029f28ecd853",
      "blockHash": "0xd1b161d99ac902cf36e9014a8f4c12e3fdcf6a0861756045b6137f90207c575f",
      "blockNumber": 51383,
      "transactionIndex": 0,
      "confirmations": null,
      "from": "0xFCf9f6A78f06227522c6f948ec0119dA31680Ef7",
      "gasPrice": {
        "_hex": "0xdf1c993ec"
      },
      "gasLimit": {
        "_hex": "0x7a120"
      },
      "to": "0x109C4f2CCc82C4d77Bde15F306707320294Aea3F",
      "value": {
        "_hex": "0xde0b6b3a7640000"
      },
      "nonce": 0,
      "data": "0x",
      "r": "0x052fdfa9de5470524d944102de88cd6407742bf5fb8e06ed7df27e1336a0e243",
      "s": "0x46095cc143c5e18aa1c110a6a4b0c628be44ea2aadd0812b9a94f8413ecce8d5",
      "v": 27,
      "creates": null,
      "raw": "0xf86d80850df1c993ec8307a12094109c4f2ccc82c4d77bde15f306707320294aea3f880de0b6b3a7640000801ba0052fdfa9de5470524d944102de88cd6407742bf5fb8e06ed7df27e1336a0e243a046095cc143c5e18aa1c110a6a4b0c628be44ea2aadd0812b9a94f8413ecce8d5",
      "networkId": 0,
      "chainId": 0
    },
    {
      "hash": "0xc9c7822376fa670a422f0b46234487ccbc1efaa8590735c97674a4325bfe3473",
      "blockHash": "0xd1b161d99ac902cf36e9014a8f4c12e3fdcf6a0861756045b6137f90207c575f",
      "blockNumber": 51383,
      "transactionIndex": 1,
      "confirmations": null,
      "from": "0xf88a65846C19D8fc76fFf545fEAa7bbc7114F667",
      "gasPrice": {
        "_hex": "0xcca64c339"
      },
      "gasLimit": {
        "_hex": "0x15f90"
      },
      "to": "0x109C4f2CCc82C4d77Bde15F306707320294Aea3F",
      "value": {
        "_hex": "0xde0b6b3a7640000"
      },
      "nonce": 12,
      "data": "0x",
      "r": "0xfa13b55711ea4f3e8ce0aae58c636e94ecbf9b2d82d7e6519dc5e2b4ddcb990e",
      "s": "0x677b333dc3327bf539ee681057c01cd914737c251ebdf18911faaac544d0b3fc",
      "v": 28,
      "creates": null,
      "raw": "0xf86d0c850cca64c33983015f9094109c4f2ccc82c4d77bde15f306707320294aea3f880de0b6b3a7640000801ca0fa13b55711ea4f3e8ce0aae58c636e94ecbf9b2d82d7e6519dc5e2b4ddcb990ea0677b333dc3327bf539ee681057c01cd914737c251ebdf18911faaac544d0b3fc",
      "networkId": 0,
      "chainId": 0
    },
    {
      "hash": "0x4e133ac18d7836772311e39f0b3242bde79eb1cf676fcf4c718637369380df69",
      "blockHash": "0xd1b161d99ac902cf36e9014a8f4c12e3fdcf6a0861756045b6137f90207c575f",
      "blockNumber": 51383,
      "transactionIndex": 2,
      "confirmations": null,
      "from": "0xf88a65846C19D8fc76fFf545fEAa7bbc7114F667",
      "gasPrice": {
        "_hex": "0xcca64c339"
      },
      "gasLimit": {
        "_hex": "0x15f90"
      },
      "to": "0x109C4f2CCc82C4d77Bde15F306707320294Aea3F",
      "value": {
        "_hex": "0xde0b6b3a7640000"
      },
      "nonce": 13,
      "data": "0x",
      "r": "0xbabfc3d2bfe3028bf844f6faae0d7101d43aaace72a5c6baff15b8857948b118",
      "s": "0x47f3d68b8301eb40329e9ba636c362b3ca5ae1d574c002f3c10e3c6f6da1927c",
      "v": 27,
      "creates": null,
      "raw": "0xf86d0d850cca64c33983015f9094109c4f2ccc82c4d77bde15f306707320294aea3f880de0b6b3a7640000801ba0babfc3d2bfe3028bf844f6faae0d7101d43aaace72a5c6baff15b8857948b118a047f3d68b8301eb40329e9ba636c362b3ca5ae1d574c002f3c10e3c6f6da1927c",
      "networkId": 0,
      "chainId": 0
    }
  ]
}