{
  "hash": "0x3aae9f909ff9832dfa3767afa56bcc93f849ba20c10c33c9cd1c33826e77a1f5",
  "parentHash": "0xed5b40e3a8ba940e150725a7ff43752365100a77066dd10873f3827e4ac5dab2",
  "number": 94897,
  "timestamp": 1439715621,
  "nonce": "0xa0be7f6d12fcc89b",
  "difficulty": 3543102709519,
  "gasLimit": {
    "_hex": "0x2fefd8"
  },
  "gasUsed": {
    "_hex": "0x5208"
  },
  "miner": "0xbb7B8287f3F0a933474a79eAe42CBCa977791171",
  "extraData": "0x476574682f4c5649562f76312e302e312f6c696e75782f676f312e342e32",
  "transactions": [
    {
      "hash": "0x013b0d8a2df3b02808265ab0cf488f674413d69aade6e1efd125b60baab7ad5b",
      "blockHash": "0x3aae9f909ff9832dfa3767afa56bcc93f849ba20c10c33c9cd1c33826e77a1f5",
      "blockNumber": 94897,
      "transactionIndex": 0,
      "confirmations": null,
      "from": "0x007f7f58D3eb5b7510A301eCC749FC1fCDDBE14D",
      "gasPrice": {
        "_hex": "0xcc8ddf695"
      },
      "gasLimit": {
        "_hex": "0x15f90"
      },
      "to": "0xb1abce2918E21ddb93AA452731a12672A3d9F75a",
      "value": {
        "_hex": "0x4563918244f40000"
      },
      "nonce": 46,
      "data": "0x",
      "r": "0x66b644d8473bc9897bb978816bc1729a29b25351dbc17cdc9453dcfdda0469ea",
      "s": "0x5610a6f3d36505014b667a302a4d7bceba7280f05a7ed2b8d39f27d3468f8a5a",
      "v": 28,
      "creates": null,
      "raw": "0xf86d2e850cc8ddf69583015f9094b1abce2918e21ddb93aa452731a12672a3d9f75a884563918244f40000801ca066b644d8473bc9897bb978816bc1729a29b25351dbc17cdc9453dcfdda0469eaa05610a6f3d36505014b667a302a4d7bceba7280f05a7ed2b8d39f27d3468f8a5a",
      "networkId": 0,
      "chainId": 0
    }
  ]
}