{
  "hash": "0xce178baa23e1d95bd2bc301157ed6f56fdbfb1a10ae6aea7ee2712f8987c8d0d",
  "parentHash": "0xc0b3c2af9621e7833433516e3cec39d1c2b234d55545e4abd895f52d94546eea",
  "number": 98226,
  "timestamp": 1439769083,
  "nonce": "0xc86be3370a2aca1d",
  "difficulty": 3876520626281,
  "gasLimit": {
    "_hex": "0x2fefd8"
  },
  "gasUsed": {
    "_hex": "0x5208"
  },
  "miner": "0xf927a40C8B7F6E07c5af7FA2155B4864a4112B13",
  "extraData": "0x",
  "transactions": [
    {
      "hash": "0x1e7d3efede235019fb0a47ce9822a1124da173d43bff4ce0d845e14bad4853bc",
      "blockHash": "0xce178baa23e1d95bd2bc301157ed6f56fdbfb1a10ae6aea7ee2712f8987c8d0d",
      "blockNumber": 98226,
      "transactionIndex": 0,
      "confirmations": null,
      "from": "0x120A270bbC009644e35F0bB6ab13f95b8199c4ad",
      "gasPrice": {
        "_hex": "0xd91325556"
      },
      "gasLimit": {
        "_hex": "0x3d090"
      },
      "to": "0xc6d9d2cD449A754c494264e1809c50e34D64562b",
      "value": {
        "_hex": "0x4e1fc9da9c6000"
      },
      "nonce": 653,
      "data": "0x",
      "r": "0xb5da4bb78a395989ab48ff27269f4b9459bf8a7e117a9b7503573b148bcbe4d9",
      "s": "0x7fcb1421478167fec2730d3cee276173f1f04e09cab9ba70f29a4ebcab14d21c",
      "v": 28,
      "creates": null,
      "raw": "0xf86e82028d850d913255568303d09094c6d9d2cd449a754c494264e1809c50e34d64562b874e1fc9da9c6000801ca0b5da4bb78a395989ab48ff27269f4b9459bf8a7e117a9b7503573b148bcbe4d9a07fcb1421478167fec2730d3cee276173f1f04e09cab9ba70f29a4ebcab14d21c",
      "networkId": 0,
      "chainId": 0
    }
  ]
}