{
  "hash": "0x27a037d2ed62a89d636a2fc876fd385797d9a7026f1dfbb5e81ba295b07507c5",
  "parentHash": "0x2568be8e65388027d7e9ddaa4d71de806fe523c5a87024b19d4fb164c524bd03",
  "number": 66944,
  "timestamp": 1439262930,
  "nonce": "0xdcad354401fd86ec",
  "difficulty": 1952701759728,
  "gasLimit": {
    "_hex": "0x2fefd8"
  },
  "gasUsed": {
    "_hex": "0x5208"
  },
  "miner": "0x88D74a59454F6cF3B51ef6b9136AFb6b9D405A88",
  "extraData": "0x476574682f76312e302e312d37666266393930632f6c696e75782f676f312e34",
  "transactions": [
    {
      "hash": "0xd8a5c652d2d2cf8eaff0574e841034b166e2532a96b5c5662b0276f5f2b92c6b",
      "blockHash": "0x27a037d2ed62a89d636a2fc876fd385797d9a7026f1dfbb5e81ba295b07507c5",
      "blockNumber": 66944,
      "transactionIndex": 0,
      "confirmations": null,
      "from": "0x87898CE53471043FcCa0a2aF4E1dC6d8B3fCf607",
      "gasPrice": {
        "_hex": "0xcf668a397"
      },
      "gasLimit": {
        "_hex": "0x5208"
      },
      "to": "0xBFdD9820a04283b289957956353b5F3C1F665EcF",
      "value": {
        "_hex": "0x4563918244f40000"
      },
      "nonce": 20,
      "data": "0x",
      "r": "0xc5b59b6c9a2bdfe1e2b420652f5dab3080cdd658024ae9267417bd09ab564cfa",
      "s": "0x20cdbe786177c65bf0d8225270cb8a53e59d047ee038ec844868659a63725117",
      "v": 27,
      "creates": null,
      "raw": "0xf86c14850cf668a39782520894bfdd9820a04283b289957956353b5f3c1f665ecf884563918244f40000801ba0c5b59b6c9a2bdfe1e2b420652f5dab3080cdd658024ae9267417bd09ab564cfaa020cdbe786177c65bf0d8225270cb8a53e59d047ee038ec844868659a63725117",
      "networkId": 0,
      "chainId": 0
    }
  ]
}