{
  "hash": "0xc0b71349119c6aae80a4cb922b25b2d35e1200996b5bab30053ceac708caba64",
  "parentHash": "0xdeafd82ebf09d229771b7966226375bee21d474ec7406d6a1fe7c9d24ca298d3",
  "number": 93328,
  "timestamp": 1439687995,
  "nonce": "0xc2af4c16d23cee30",
  "difficulty": 3528226450340,
  "gasLimit": {
    "_hex": "0x2fefd8"
  },
  "gasUsed": {
    "_hex": "0x5208"
  },
  "miner": "0xc15fa6D616245a5c7B7D75A6dFDcA10C0250BD2B",
  "extraData": "0x476574682f76312e302e312f77696e646f77732f676f312e342e32",
  "transactions": [
    {
      "hash": "0xdefabdc9f2303d7821b147db0ee310fe81eae4900e2f96a85158802696c890de",
      "blockHash": "0xc0b71349119c6aae80a4cb922b25b2d35e1200996b5bab30053ceac708caba64",
      "blockNumber": 93328,
      "transactionIndex": 0,
      "confirmations": null,
      "from": "0x2AeDF47e935C75601e9D779453F1a5F8c616bd6E",
      "gasPrice": {
        "_hex": "0xd8efbef8e"
      },
      "gasLimit": {
        "_hex": "0x15f90"
      },
      "to": "0xeDb63085aAC5CF2eDbc0C9AD9c274076201da37E",
      "value": {
        "_hex": "0x3e73362871420000"
      },
      "nonce": 2,
      "data": "0x",
      "r": "0x9d989e90f833e9b0b2b6074c8df48092ff1b398ff0057ef2a84fd2241de7444b",
      "s": "0x690ead37ab935ceae95da24b726dac4fa020bbb9454486e04b9ad7ba92c199bd",
      "v": 28,
      "creates": null,
      "raw": "0xf86d02850d8efbef8e83015f9094edb63085aac5cf2edbc0c9ad9c274076201da37e883e73362871420000801ca09d989e90f833e9b0b2b6074c8df48092ff1b398ff0057ef2a84fd2241de7444ba0690ead37ab935ceae95da24b726dac4fa020bbb9454486e04b9ad7ba92c199bd",
      "networkId": 0,
      "chainId": 0
    }
  ]
}