{
  "hash": "0x327de0f6d4579402b31fb3aeb3d66ddf54e75cc9471dff304841a7f98175f5a7",
  "parentHash": "0xcaa613cf1d359d8bc48bb9095e83013527428acbecaf81c8237fdba30d3578b8",
  "number": 60468,
  "timestamp": 1439156120,
  "nonce": "0xf58e935736212623",
  "difficulty": 1741508247711,
  "gasLimit": {
    "_hex": "0x2fe3db"
  },
  "gasUsed": {
    "_hex": "0x22835"
  },
  "miner": "0x31995C46B15C84523cDEE26f49A681b8237e43F5",
  "extraData": "0x476574682f76312e302e312f77696e646f77732f676f312e342e32",
  "transactions": [
    {
      "hash": "0xa7995dfa8137061543831126b6f5a817d28a729b6bff28d7f88f939c51d530e6",
      "blockHash": "0x327de0f6d4579402b31fb3aeb3d66ddf54e75cc9471dff304841a7f98175f5a7",
      "blockNumber": 60468,
      "transactionIndex": 0,
      "confirmations": null,
      "from": "0x2d11763B4999FB3b61Ca8d19C8C77a743079f7bd",
      "gasPrice": {
        "_hex": "0xe2835e8bd"
      },
      "gasLimit": {
        "_hex": "0x61a80"
      },
      "to": "0x020522bF9B8eD6FF41E2fa6765a17E20E2767D64",
      "value": {
        "_hex": "0x56bc75e2d63100000"
      },
      "nonce": 11,
      "data": "0x",
      "r": "0x59c308cb238dbc07240f059e005ad65fe7595b4805bb88eb29c60daa763cc9a3",
      "s": "0x5fffce8630956521704aa1f5ca3ddc0ad3bb5787045000fd6e22164fc22fe483",
      "v": 28,
      "creates": null,
      "raw": "0xf86e0b850e2835e8bd83061a8094020522bf9b8ed6ff41e2fa6765a17e20e2767d6489056bc75e2d63100000801ca059c308cb238dbc07240f059e005ad65fe7595b4805bb88eb29c60daa763cc9a3a05fffce8630956521704aa1f5ca3ddc0ad3bb5787045000fd6e22164fc22fe483",
      "networkId": 0,
      "chainId": 0
    }
  ]
}