{
  "hash": "0x23f3615a4985532971c55fb70cf71c3a43eae14614e0ece8fe425dd6e94d7a46",
  "parentHash": "0x7e1df0170424689cc2abbf092701e874039357cee8123f575b35ea6e57925d88",
  "number": 55189,
  "timestamp": 1439066799,
  "nonce": "0xb6ed32ede2d1f0ea",
  "difficulty": 1637824978616,
  "gasLimit": {
    "_hex": "0x2fefd5"
  },
  "gasUsed": {
    "_hex": "0x42720"
  },
  "miner": "0x157c6f2431eB1a95797EE86F7d17b3c0FD47A247",
  "extraData": "0x476574682f76312e302e312f77696e646f77732f676f312e342e32",
  "transactions": [
    {
      "hash": "0xc5ba09e86a1e4813608d7c6e66b3ae3621cb3cf51809eb3c6e7a037280132207",
      "blockHash": "0x23f3615a4985532971c55fb70cf71c3a43eae14614e0ece8fe425dd6e94d7a46",
      "blockNumber": 55189,
      "transactionIndex": 0,
      "confirmations": null,
      "from": "0x2d5b42FC59ebda0Dfd66aE914BC28c1B0a6Ef83A",
      "gasPrice": {
        "_hex": "0x12f2fd7695"
      },
      "gasLimit": {
        "_hex": "0x15f90"
      },
      "to": "0xE73aa111fd3Ebc226B09A83b591b7D5143CE7F34",
      "value": {
        "_hex": "0xe72986245a64f30000"
      },
      "nonce": 3,
      "data": "0x",
      "r": "0x10f48f9a8e09fd8018f3b0d7e57083f6ba57de723b8b7a29cea05e465b7aa025",
      "s": "0x14422a2dd65ea4c8e4f2cbe389ccaa62a33022bf1d0bcab4ed027f83dcdad6e8",
      "v": 28,
      "creates": null,
      "raw": "0xf86e038512f2fd769583015f9094e73aa111fd3ebc226b09a83b591b7d5143ce7f3489e72986245a64f30000801ca010f48f9a8e09fd8018f3b0d7e57083f6ba57de723b8b7a29cea05e465b7aa025a014422a2dd65ea4c8e4f2cbe389ccaa62a33022bf1d0bcab4ed027f83dcdad6e8",
      "networkId": 0,
      "chainId": 0
    },
    {
      "hash": "0x551caf88ac741e54b987bad754a791cb9d4ff2c760df0f14658508490bba1cea",
      "blockHash": "0x23f3615a4985532971c55fb70cf71c3a43eae14614e0ece8fe425dd6e94d7a46",
      "blockNumber": 55189,
      "transactionIndex": 1,
      "confirmations": null,
      "from": "0xc70bA22fe446A85A247bf85BaD1AdDf3ddaF62E9",
      "gasPrice": {
        "_hex": "0x1083602225"
      },
      "gasLimit": {
        "_hex": "0xf4240"
      },
      "to": null,
      "value": {
        "_hex": "0x0"
      },
      "nonce": 3,
      "data": "0x60606040908152600160a060020a03339081166000908152602081905291909120805460ff191660011790819055610040919060ff16151561009f5761009c565b6102278061011e6000396000f35b50508054839250600019810190811015610002576000919091527fb10e2d527612073b26eecdfd717e6a320cf44b4afac2b0732d9fcbe2b7fa0cf6018054600160a060020a03191690911790555b50565b60016000600050600083600160a060020a0316815260200190815260200160002060006101000a81548160ff0219169083021790555060016000505460010160016000508181548183558181151161004e5781836000526020600020918201910161004e91905b8082111561011957600081558401610106565b50905600606060405260e060020a60003504630a3b0a4f81146100315780634e71d92d1461005e5780639e7a13ad1461008d575b005b61002f60043533600160a060020a031660009081526020819052604090205460ff16151561013b57610138565b61002f33600160a060020a03166000908152602081905260408120548190819060ff16151561019d575b505050565b6100d360043560018054829081101561000257506000527fb10e2d527612073b26eecdfd717e6a320cf44b4afac2b0732d9fcbe2b7fa0cf60154600160a060020a031681565b6060908152602090f35b50508054839250600019810190811015610002576000919091527fb10e2d527612073b26eecdfd717e6a320cf44b4afac2b0732d9fcbe2b7fa0cf601805473ffffffffffffffffffffffffffffffffffffffff191690911790555b50565b600160a060020a038116600090815260409020805460ff1916600190811790915580548082018083559190829080158290116100dd578183600052602060002091820191016100dd91905b8082111561019957600081558401610186565b5090565b30600160a060020a031631925060648310156101b857610088565b600154830491505b600154811015610088576001805482908110156100025760009182527fb10e2d527612073b26eecdfd717e6a320cf44b4afac2b0732d9fcbe2b7fa0cf60154604051600160a060020a03919091169190849082818181858883f150505050506001016101c056",
      "r": "0xd3f70504dfd6f271e1b4006a2b4b1d276515c5ae5c37756066c903251f6f5cc6",
      "s": "0x4a74c2f3cba8e71c06976ab50b4e035f2e438fc0b485d77b4e2f1e1e7a9b32d9",
      "v": 27,
      "creates": "0x7320f8461BbC8104c677FeC0429cC0d963a5Ac40",
      "raw": "0xf9039803851083602225830f42408080b9034560606040908152600160a060020a03339081166000908152602081905291909120805460ff191660011790819055610040919060ff16151561009f5761009c565b6102278061011e6000396000f35b50508054839250600019810190811015610002576000919091527fb10e2d527612073b26eecdfd717e6a320cf44b4afac2b0732d9fcbe2b7fa0cf6018054600160a060020a03191690911790555b50565b60016000600050600083600160a060020a0316815260200190815260200160002060006101000a81548160ff0219169083021790555060016000505460010160016000508181548183558181151161004e5781836000526020600020918201910161004e91905b8082111561011957600081558401610106565b50905600606060405260e060020a60003504630a3b0a4f81146100315780634e71d92d1461005e5780639e7a13ad1461008d575b005b61002f60043533600160a060020a031660009081526020819052604090205460ff16151561013b57610138565b61002f33600160a060020a03166000908152602081905260408120548190819060ff16151561019d575b505050565b6100d360043560018054829081101561000257506000527fb10e2d527612073b26eecdfd717e6a320cf44b4afac2b0732d9fcbe2b7fa0cf60154600160a060020a031681565b6060908152602090f35b50508054839250600019810190811015610002576000919091527fb10e2d527612073b26eecdfd717e6a320cf44b4afac2b0732d9fcbe2b7fa0cf601805473ffffffffffffffffffffffffffffffffffffffff191690911790555b50565b600160a060020a038116600090815260409020805460ff1916600190811790915580548082018083559190829080158290116100dd578183600052602060002091820191016100dd91905b8082111561019957600081558401610186565b5090565b30600160a060020a031631925060648310156101b857610088565b600154830491505b600154811015610088576001805482908110156100025760009182527fb10e2d527612073b26eecdfd717e6a320cf44b4afac2b0732d9fcbe2b7fa0cf60154604051600160a060020a03919091169190849082818181858883f150505050506001016101c0561ba0d3f70504dfd6f271e1b4006a2b4b1d276515c5ae5c37756066c903251f6f5cc6a04a74c2f3cba8e71c06976ab50b4e035f2e438fc0b485d77b4e2f1e1e7a9b32d9",
      "networkId": 0,
      "chainId": 0
    }
  ]
}