{
  "hash": "0x14b13a99f292713e85edd75d4ec1e0a0d28a07e8a68491b722c5918be75bb1b3",
  "parentHash": "0x9ebe704cf2e73cdc4e8fee6000d13ed0ffe070cddbc8816a34a225084c95fd2d",
  "number": 68351,
  "timestamp": 1439286468,
  "nonce": "0x14599d3fa87729f0",
  "difficulty": 2017302151716,
  "gasLimit": {
    "_hex": "0x2fefd8"
  },
  "gasUsed": {
    "_hex": "0x5208"
  },
  "miner": "0x31995C46B15C84523cDEE26f49A681b8237e43F5",
  "extraData": "0x476574682f76312e302e312f77696e646f77732f676f312e342e32",
  "transactions": [
    {
      "hash": "0xafc6a0b7b33d6a51f5bd3a4fd16ff22967ca8b97b404d4647a484d0783ec138a",
      "blockHash": "0x14b13a99f292713e85edd75d4ec1e0a0d28a07e8a68491b722c5918be75bb1b3",
      "blockNumber": 68351,
      "transactionIndex": 0,
      "confirmations": null,
      "from": "0x6747f922385c9a6F9cfDf095F34345257DD597bE",
      "gasPrice": {
        "_hex": "0xba43b7400"
      },
      "gasLimit": {
        "_hex": "0x5208"
      },
      "to": "0x3143fA328e05F99113904F92536271aDEF73D775",
      "value": {
        "_hex": "0x1fcbfa42bd6000"
      },
      "nonce": 56,
      "data": "0x",
      "r": "0x6c6b18e30249678428650bd0de1397b28debb21bf01aa07efca2188b87b27ae1",
      "s": "0x448ffb63bbd0d4ba8b85c012dcf5e35333ff57f4d7a119e225fd0ae5b79986c9",
      "v": 27,
      "creates": null,
      "raw": "0xf86b38850ba43b7400825208943143fa328e05f99113904f92536271adef73d775871fcbfa42bd6000801ba06c6b18e30249678428650bd0de1397b28debb21bf01aa07efca2188b87b27ae1a0448ffb63bbd0d4ba8b85c012dcf5e35333ff57f4d7a119e225fd0ae5b79986c9",
      "networkId": 0,
      "chainId": 0
    }
  ]
}