{
  "hash": "0xc24a1df2976d79405da2d532ee7f54d9f5eaa8b51eae079f28abef06405eb9bf",
  "parentHash": "0xc2b4cf2d799a38e6611700b6c4083285b69ba0fb75ce53a89be0276a97a5a505",
  "number": 58831,
  "timestamp": 1439127388,
  "nonce": "0x7c8669eabffa7644",
  "difficulty": 1712333135584,
  "gasLimit": {
    "_hex": "0x2fefd8"
  },
  "gasUsed": {
    "_hex": "0x546c"
  },
  "miner": "0x664B099B945b899AaC84DA69dd6D4eEb3D03c8a3",
  "extraData": "0xdd809b302e392e34302b2b653834372d5257696e646f2f6d73762f4a4954",
  "transactions": [
    {
      "hash": "0x58ef53c030dc0689c390f2696cecd4cc2362d36f7fe2097a112bd052ac5eb995",
      "blockHash": "0xc24a1df2976d79405da2d532ee7f54d9f5eaa8b51eae079f28abef06405eb9bf",
      "blockNumber": 58831,
      "transactionIndex": 0,
      "confirmations": null,
      "from": "0x4fF67Fb87F6eFBa9279930cFbd1b7A343C79Fade",
      "gasPrice": {
        "_hex": "0x110c8f7d8de"
      },
      "gasLimit": {
        "_hex": "0xc350"
      },
      "to": "0x2910543Af39abA0Cd09dBb2D50200b3E800A63D2",
      "value": {
        "_hex": "0x15a13cc201e4dc0000"
      },
      "nonce": 0,
      "data": "0x454e594a544d445647",
      "r": "0x43023502c9ca9acf3dae5c370912f659dbb01f7c19c8ce0e48b65bb399a840cf",
      "s": "0x8ad66cbcdcc0da1d4930c116ade56e2667e03a1f67cfee92ab30d8cfc59ed476",
      "v": 28,
      "creates": null,
      "raw": "0xf87780860110c8f7d8de82c350942910543af39aba0cd09dbb2d50200b3e800a63d28915a13cc201e4dc000089454e594a544d4456471ca043023502c9ca9acf3dae5c370912f659dbb01f7c19c8ce0e48b65bb399a840cfa08ad66cbcdcc0da1d4930c116ade56e2667e03a1f67cfee92ab30d8cfc59ed476",
      "networkId": 0,
      "chainId": 0
    }
  ]
}