{
  "hash": "0x3b9af1617208d43dc49a86e63b3f8fbc614626f58daae52aa3048c269a9cc183",
  "parentHash": "0x6c3401adffa6b713960f6c7c5b41da5cd98ea2a169929ad5d710b7a33d8bab2d",
  "number": 105324,
  "timestamp": 1439885568,
  "nonce": "0xb386f9343b8642e1",
  "difficulty": 4367579890454,
  "gasLimit": {
    "_hex": "0x2fefd8"
  },
  "gasUsed": {
    "_hex": "0xf618"
  },
  "miner": "0x9D49F602b0fdb924Bd63DDE2Bd0907E4A07c63a7",
  "extraData": "0x476574682f76312e302e312f6c696e75782f676f312e342e32",
  "transactions": [
    {
      "hash": "0xe93cf0b573f328472738c376e687769059a3f88d25a0aa66b5c5581cbedd78ea",
      "blockHash": "0x3b9af1617208d43dc49a86e63b3f8fbc614626f58daae52aa3048c269a9cc183",
      "blockNumber": 105324,
      "transactionIndex": 0,
      "confirmations": null,
      "from": "0xe6A7a1d47ff21B6321162AEA7C6CB457D5476Bca",
      "gasPrice": {
        "_hex": "0xe0ef0cd46"
      },
      "gasLimit": {
        "_hex": "0x55f0"
      },
      "to": "0x8fA33bA169f6aFf86fB3C9E172bddA7CA6D2A66a",
      "value": {
        "_hex": "0x4fec047f333c6318"
      },
      "nonce": 3787,
      "data": "0x",
      "r": "0xf3bf03a7092e1e0b4555cbc6db4671614a63c345648a333fe5e0101f950d70a2",
      "s": "0x3f56de0d308e71693db441a1910e36aad2af62f3ec9fc34332cc2cf4c6a79a78",
      "v": 27,
      "creates": null,
      "raw": "0xf86e820ecb850e0ef0cd468255f0948fa33ba169f6aff86fb3c9e172bdda7ca6d2a66a884fec047f333c6318801ba0f3bf03a7092e1e0b4555cbc6db4671614a63c345648a333fe5e0101f950d70a2a03f56de0d308e71693db441a1910e36aad2af62f3ec9fc34332cc2cf4c6a79a78",
      "networkId": 0,
      "chainId": 0
    },
    {
      "hash": "0xa46c8250b92e93d28c831d1a9eab8e5a30bce2a49edd87dca681ba360510b2c6",
      "blockHash": "0x3b9af1617208d43dc49a86e63b3f8fbc614626f58daae52aa3048c269a9cc183",
      "blockNumber": 105324,
      "transactionIndex": 1,
      "confirmations": null,
      "from": "0xe6A7a1d47ff21B6321162AEA7C6CB457D5476Bca",
      "gasPrice": {
        "_hex": "0xe0ef0cd46"
      },
      "gasLimit": {
        "_hex": "0x55f0"
      },
      "to": "0x46532c79E7F23Aa3520221582D7AC182fb98C56B",
      "value": {
        "_hex": "0x501288bc67421d50"
      },
      "nonce": 3788,
      "data": "0x",
      "r": "0xfc5f4a292a1bb0aff94d0934da5cebd49c9699e1b4c2829054d542e320824abd",
      "s": "0x311c7899e23744a5ef3432c44fad0615577b759e35f49809915144e7cb624711",
      "v": 28,
      "creates": null,
      "raw": "0xf86e820ecc850e0ef0cd468255f09446532c79e7f23aa3520221582d7ac182fb98c56b88501288bc67421d50801ca0fc5f4a292a1bb0aff94d0934da5cebd49c9699e1b4c2829054d542e320824abda0311c7899e23744a5ef3432c44fad0615577b759e35f49809915144e7cb624711",
      "networkId": 0,
      "chainId": 0
    },
    {
      "hash": "0xa6e113e9eaf43a748cc516731f8b3ac37e94fa7f8bf84cdf871797dc3da03bb6",
      "blockHash": "0x3b9af1617208d43dc49a86e63b3f8fbc614626f58daae52aa3048c269a9cc183",
      "blockNumber": 105324,
      "transactionIndex": 2,
      "confirmations": null,
      "from": "0xe6A7a1d47ff21B6321162AEA7C6CB457D5476Bca",
      "gasPrice": {
        "_hex": "0xe0ef0cd46"
      },
      "gasLimit": {
        "_hex": "0x55f0"
      },
      "to": "0x24D0A28C70BAC94698980F2c297Ee1Cf505F06cB",
      "value": {
        "_hex": "0x51fc1f25d7ea9c40"
      },
      "nonce": 3789,
      "data": "0x",
      "r": "0x4ac613088cadcec50b94dfde817ecbd23c3eef58dd424e526ce3b5bf7130bcb1",
      "s": "0x6734fb7737363d9de259535cabd7c402e8502caa05053427a06f7e6c6a34d5d9",
      "v": 27,
      "creates": null,
      "raw": "0xf86e820ecd850e0ef0cd468255f09424d0a28c70bac94698980f2c297ee1cf505f06cb8851fc1f25d7ea9c40801ba04ac613088cadcec50b94dfde817ecbd23c3eef58dd424e526ce3b5bf7130bcb1a06734fb7737363d9de259535cabd7c402e8502caa05053427a06f7e6c6a34d5d9",
      "networkId": 0,
      "chainId": 0
    }
  ]
}