{
  "hash": "0xe55903c7f6384fadb1cd3bd911b44a0f1da1a1820356eae0c29014007cb03382",
  "parentHash": "0x5b18e5dbb3955729bf64d189eeada5340fa2f6f865414a43159895344f0e9351",
  "number": 112815,
  "timestamp": 1440013699,
  "nonce": "0x1cee47253e10ac33",
  "difficulty": 4430235655240,
  "gasLimit": {
    "_hex": "0x2fefd8"
  },
  "gasUsed": {
    "_hex": "0x5208"
  },
  "miner": "0xe6A7a1d47ff21B6321162AEA7C6CB457D5476Bca",
  "extraData": "0x476574682f76312e302e312d38326566323666362f6c696e75782f676f312e34",
  "transactions": [
    {
      "hash": "0x424914084070da27d535df84e6420efed23ec36cf2f3301041366da67f657518",
      "blockHash": "0xe55903c7f6384fadb1cd3bd911b44a0f1da1a1820356eae0c29014007cb03382",
      "blockNumber": 112815,
      "transactionIndex": 0,
      "confirmations": null,
      "from": "0xFa9F15F96E3244897308A95163a62861685e8917",
      "gasPrice": {
        "_hex": "0xd6a5e67bf"
      },
      "gasLimit": {
        "_hex": "0x5208"
      },
      "to": "0x32Be343B94f860124dC4fEe278FDCBD38C102D88",
      "value": {
        "_hex": "0x4ab72a8127b468000"
      },
      "nonce": 4,
      "data": "0x",
      "r": "0xbd2e1b6ef832bd9a80ef5015d451c8e312704d3b4e966437e41454f1f8098621",
      "s": "0x21c88f76f5d26ca488678da72cfa9842911d79ceaf9639ae43034ae24001ceb2",
      "v": 28,
      "creates": null,
      "raw": "0xf86d04850d6a5e67bf8252089432be343b94f860124dc4fee278fdcbd38c102d888904ab72a8127b468000801ca0bd2e1b6ef832bd9a80ef5015d451c8e312704d3b4e966437e41454f1f8098621a021c88f76f5d26ca488678da72cfa9842911d79ceaf9639ae43034ae24001ceb2",
      "networkId": 0,
      "chainId": 0
    }
  ]
}