{
  "hash": "0xb4a5fa52240b42142e79637a18dae4d418ab938ad0f3e654549a49b0f9d45cf0",
  "parentHash": "0x9852bd0c4302b3bd02638698acf172bb9c8080d4ade1ae253d31cd7a51fd9c9e",
  "number": 115999,
  "timestamp": 1440066666,
  "nonce": "0x620ca9c3a172f930",
  "difficulty": 4591496615264,
  "gasLimit": {
    "_hex": "0x2fefd8"
  },
  "gasUsed": {
    "_hex": "0xa410"
  },
  "miner": "0x88D74a59454F6cF3B51ef6b9136AFb6b9D405A88",
  "extraData": "0x",
  "transactions": [
    {
      "hash": "0x2e1850801abb87a87f5883e7957f3ac9b8a1c6da4c7eaa65e9da6e4f6fb670ee",
      "blockHash": "0xb4a5fa52240b42142e79637a18dae4d418ab938ad0f3e654549a49b0f9d45cf0",
      "blockNumber": 115999,
      "transactionIndex": 0,
      "confirmations": null,
      "from": "0x23f2D0fd3B4C98Fb1698564deB4898275E2e831f",
      "gasPrice": {
        "_hex": "0xd362b2ffe"
      },
      "gasLimit": {
        "_hex": "0x5208"
      },
      "to": "0x32Be343B94f860124dC4fEe278FDCBD38C102D88",
      "value": {
        "_hex": "0x13f2c2e60b7394000"
      },
      "nonce": 19,
      "data": "0x",
      "r": "0xb94fafafbe2b7078db71a5bbb16ba604021ef8fb7b486139d704e88370228ba6",
      "s": "0x49017fb899e631d1063fa1fe685c54b37a80ed8f9c4426105f1f56385178475b",
      "v": 28,
      "creates": null,
      "raw": "0xf86d13850d362b2ffe8252089432be343b94f860124dc4fee278fdcbd38c102d8889013f2c2e60b7394000801ca0b94fafafbe2b7078db71a5bbb16ba604021ef8fb7b486139d704e88370228ba6a049017fb899e631d1063fa1fe685c54b37a80ed8f9c4426105f1f56385178475b",
      "networkId": 0,
      "chainId": 0
    },
    {
      "hash": "0x542c3de98d6d5d742321bd8d070d876ea855e12c7a16e286067170c0108e6b08",
      "blockHash": "0xb4a5fa52240b42142e79637a18dae4d418ab938ad0f3e654549a49b0f9d45cf0",
      "blockNumber": 115999,
      "transactionIndex": 1,
      "confirmations": null,
      "from": "0x790b8a3cE86E707ED0eD32bF89B3269692a23CC1",
      "gasPrice": {
        "_hex": "0xd02551db7"
      },
      "gasLimit": {
        "_hex": "0x15f90"
      },
      "to": "0x4D67f4F0Db45b3B5a3424B39ed8d972F710381D5",
      "value": {
        "_hex": "0x2f9e3fb2098f20000"
      },
      "nonce": 56,
      "data": "0x",
      "r": "0xaa0a98b4b1745983dd55ed2c8ccd5e8b422c863229b6afd4dc9ecc22dee33353",
      "s": "0x4aebf447a9918765b8bc5679e0a7c57a9ce52df7fe1be4868d78297112910142",
      "v": 27,
      "creates": null,
      "raw": "0xf86e38850d02551db783015f90944d67f4f0db45b3b5a3424b39ed8d972f710381d58902f9e3fb2098f20000801ba0aa0a98b4b1745983dd55ed2c8ccd5e8b422c863229b6afd4dc9ecc22dee33353a04aebf447a9918765b8bc5679e0a7c57a9ce52df7fe1be4868d78297112910142",
      "networkId": 0,
      "chainId": 0
    }
  ]
}