{
  "hash": "0x6219514e201133c0e4cc3211bcc0ef3cbf08dce5b44a598cfcb608f88f23aa14",
  "parentHash": "0xb19bdbe225706b53696ee0c528e9170a008c29aa4dea5383a4d5bc7d5a52cfb6",
  "number": 101733,
  "timestamp": 1439827316,
  "nonce": "0x2078e7ea2e3743aa",
  "difficulty": 3869228350885,
  "gasLimit": {
    "_hex": "0x2fefd8"
  },
  "gasUsed": {
    "_hex": "0x5208"
  },
  "miner": "0xaB638742EBe3A78F2a85028350e1AADB86C0a6ed",
  "extraData": "0x",
  "transactions": [
    {
      "hash": "0xc31e3d3127d7d06652e9fb081e4ab1af4e042b09e55edab36e1e854a733cd73d",
      "blockHash": "0x6219514e201133c0e4cc3211bcc0ef3cbf08dce5b44a598cfcb608f88f23aa14",
      "blockNumber": 101733,
      "transactionIndex": 0,
      "confirmations": null,
      "from": "0x004B37d3e250EB1826Fc6a587DEDdc18E7bE6F6f",
      "gasPrice": {
        "_hex": "0xd5c0c1e10"
      },
      "gasLimit": {
        "_hex": "0x5208"
      },
      "to": "0xD5eC7fec1F39ba7E58cDe6Abed1Dd4E530DAEF6e",
      "value": {
        "_hex": "0x107ad8f556c6c0000"
      },
      "nonce": 1,
      "data": "0x",
      "r": "0x27514961de51ce5aae580e37658e1c1801f58cd3fbec7130eaacc1243f20a185",
      "s": "0x3095563269c8f39eb5868e14cead33dc0d25fbc2fc0d0b202f4ec26cffe66895",
      "v": 27,
      "creates": null,
      "raw": "0xf86d01850d5c0c1e1082520894d5ec7fec1f39ba7e58cde6abed1dd4e530daef6e890107ad8f556c6c0000801ba027514961de51ce5aae580e37658e1c1801f58cd3fbec7130eaacc1243f20a185a03095563269c8f39eb5868e14cead33dc0d25fbc2fc0d0b202f4ec26cffe66895",
      "networkId": 0,
      "chainId": 0
    }
  ]
}