{
  "hash": "0xea8da1b61822cab6e25e8f5c860a7ee8b936be66cbfc51186ab0ab2701de3c9b",
  "parentHash": "0xf18fd6b0295932bc16045c6b3af02ede1c00c95ae3c048909a1bdcb8d0513017",
  "number": 89912,
  "timestamp": 1439631085,
  "nonce": "0x7569358fa2c74988",
  "difficulty": 3338556322474,
  "gasLimit": {
    "_hex": "0x2fefd8"
  },
  "gasUsed": {
    "_hex": "0x5208"
  },
  "miner": "0x9746c7e1ef2bd21FF3997fa467593a89cb852BD0",
  "extraData": "0x476574682f76312e302e312f77696e646f77732f676f312e342e32",
  "transactions": [
    {
      "hash": "0xe6a6318eef69808eb1f52545053de0f264dcfc440193ae71111d941ad6eb85b8",
      "blockHash": "0xea8da1b61822cab6e25e8f5c860a7ee8b936be66cbfc51186ab0ab2701de3c9b",
      "blockNumber": 89912,
      "transactionIndex": 0,
      "confirmations": null,
      "from": "0x6E2035C3Cb6EB480e07749D4fa252837d91BFE2D",
      "gasPrice": {
        "_hex": "0xcd6c98ef9"
      },
      "gasLimit": {
        "_hex": "0x5208"
      },
      "to": "0x32Be343B94f860124dC4fEe278FDCBD38C102D88",
      "value": {
        "_hex": "0x54b409c17a54f000000"
      },
      "nonce": 1,
      "data": "0x",
      "r": "0x588def56126bbff49d48dd79a7afb708deabb25ef80f98e7137492483b32cf24",
      "s": "0x41f4cffadd9d47a2236ec58a015316da95b20d6c84c559741617c77b2d359086",
      "v": 28,
      "creates": null,
      "raw": "0xf86e01850cd6c98ef98252089432be343b94f860124dc4fee278fdcbd38c102d888a054b409c17a54f000000801ca0588def56126bbff49d48dd79a7afb708deabb25ef80f98e7137492483b32cf24a041f4cffadd9d47a2236ec58a015316da95b20d6c84c559741617c77b2d359086",
      "networkId": 0,
      "chainId": 0
    }
  ]
}