{
  "hash": "0xaf97add42b19fb59ce0b29962d68b2eb544932327e8638e074c688b12c0d57ea",
  "parentHash": "0x24f087ca622ac2859be03d1e49bb4ac04fd9ea7f835082d70e8e9e8fe720f007",
  "number": 121689,
  "timestamp": 1440181028,
  "nonce": "0xa203edd6b1a964ad",
  "difficulty": 4477718554671,
  "gasLimit": {
    "_hex": "0x2fefd8"
  },
  "gasUsed": {
    "_hex": "0x5208"
  },
  "miner": "0xe6A7a1d47ff21B6321162AEA7C6CB457D5476Bca",
  "extraData": "0xd783010002844765746887676f312e342e32856c696e7578",
  "transactions": [
    {
      "hash": "0xdbd32ea88aae498da5ba0c807d9ee864b31e0c9cc2b485044a82eaefceff8050",
      "blockHash": "0xaf97add42b19fb59ce0b29962d68b2eb544932327e8638e074c688b12c0d57ea",
      "blockNumber": 121689,
      "transactionIndex": 0,
      "confirmations": null,
      "from": "0xE12517204a15E890f12755207271102F4800A0c4",
      "gasPrice": {
        "_hex": "0xd7fc9acea"
      },
      "gasLimit": {
        "_hex": "0x5208"
      },
      "to": "0x32Be343B94f860124dC4fEe278FDCBD38C102D88",
      "value": {
        "_hex": "0x4f497fed6c788800"
      },
      "nonce": 23,
      "data": "0x",
      "r": "0xffd9a4b86e82e03f6be7ecf0854da6a640c35564986b5799ab2f878dad0d6e34",
      "s": "0x4a714f9fcdc5e9fe125cae60ced8a83ccceb9db52b39e3e878c897d86f1fa0ca",
      "v": 27,
      "creates": null,
      "raw": "0xf86c17850d7fc9acea8252089432be343b94f860124dc4fee278fdcbd38c102d88884f497fed6c788800801ba0ffd9a4b86e82e03f6be7ecf0854da6a640c35564986b5799ab2f878dad0d6e34a04a714f9fcdc5e9fe125cae60ced8a83ccceb9db52b39e3e878c897d86f1fa0ca",
      "networkId": 0,
      "chainId": 0
    }
  ]
}