{
  "hash": "0x79311899c8593659f447291719f0d07f0271f612c7ad3a47aee8e4b09fb79e28",
  "parentHash": "0x58c3b8b7587c151ac270f1c40fa2d473908208465183cf9a6e9a46d6d57896d7",
  "number": 109468,
  "timestamp": 1439957166,
  "nonce": "0x0960de20371c4234",
  "difficulty": 4438500594035,
  "gasLimit": {
    "_hex": "0x2fefd8"
  },
  "gasUsed": {
    "_hex": "0x5208"
  },
  "miner": "0x88D74a59454F6cF3B51ef6b9136AFb6b9D405A88",
  "extraData": "0x",
  "transactions": [
    {
      "hash": "0xb3b21cafdc8b525ecfdc9888f26028a9c4e26e846d453ac9b83223f0ccc547a9",
      "blockHash": "0x79311899c8593659f447291719f0d07f0271f612c7ad3a47aee8e4b09fb79e28",
      "blockNumber": 109468,
      "transactionIndex": 0,
      "confirmations": null,
      "from": "0xA5a5181868a8Df772f87DC95aB9B366e974Da936",
      "gasPrice": {
        "_hex": "0xba43b7400"
      },
      "gasLimit": {
        "_hex": "0x5267"
      },
      "to": "0x1527fcd698B3A8707bb745F80ab114FfF3Db35E2",
      "value": {
        "_hex": "0x960db77681e940000"
      },
      "nonce": 10,
      "data": "0x",
      "r": "0x67af28724078d5bb9d4556558e1e5f2ad5c8af59b85684fd0af1b198cf52e105",
      "s": "0x902a735d1e1ce4fcdd5c8dc24d45efccffd9bc1e3da61c1c1e5bffd14089ea33",
      "v": 27,
      "creates": null,
      "raw": "0xf86d0a850ba43b7400825267941527fcd698b3a8707bb745f80ab114fff3db35e2890960db77681e940000801ba067af28724078d5bb9d4556558e1e5f2ad5c8af59b85684fd0af1b198cf52e105a0902a735d1e1ce4fcdd5c8dc24d45efccffd9bc1e3da61c1c1e5bffd14089ea33",
      "networkId": 0,
      "chainId": 0
    }
  ]
}