{
  "hash": "0x1e44060e8048577d5bf0ef58e84afe8bf3b14a96710768505504ffeefb1d2681",
  "parentHash": "0x7f70e4e6d31856eaf98f45eb43b519b5a7f87bdc127e0966c95539cbad0f67c8",
  "number": 121312,
  "timestamp": 1440175076,
  "nonce": "0xf3a9bf1f8f27632d",
  "difficulty": 4414958569859,
  "gasLimit": {
    "_hex": "0x2fefd8"
  },
  "gasUsed": {
    "_hex": "0x5208"
  },
  "miner": "0xe6A7a1d47ff21B6321162AEA7C6CB457D5476Bca",
  "extraData": "0xd783010002844765746887676f312e342e32856c696e7578",
  "transactions": [
    {
      "hash": "0x6dfaac871db9a7c682e4df2833b8e0e118e70bb22135f391327e8fd9d0453959",
      "blockHash": "0x1e44060e8048577d5bf0ef58e84afe8bf3b14a96710768505504ffeefb1d2681",
      "blockNumber": 121312,
      "transactionIndex": 0,
      "confirmations": null,
      "from": "0xFAe95941f26f565646Cc5bF443AfFDe60868f17e",
      "gasPrice": {
        "_hex": "0xba43b7400"
      },
      "gasLimit": {
        "_hex": "0x5208"
      },
      "to": "0xFBb1b73C4f0BDa4f67dcA266ce6Ef42f520fBB98",
      "value": {
        "_hex": "0x30c9fe94a04e8c6000"
      },
      "nonce": 4,
      "data": "0x",
      "r": "0x1ca05ddc5155c69da777567adb42c8f6a876a72233fa4a3e01569346c1dfe5ac",
      "s": "0x63ce8f664bd886263ebecd876224c61a0b9ebcf83258bc1afb14fc93ecba995c",
      "v": 27,
      "creates": null,
      "raw": "0xf86d04850ba43b740082520894fbb1b73c4f0bda4f67dca266ce6ef42f520fbb988930c9fe94a04e8c6000801ba01ca05ddc5155c69da777567adb42c8f6a876a72233fa4a3e01569346c1dfe5aca063ce8f664bd886263ebecd876224c61a0b9ebcf83258bc1afb14fc93ecba995c",
      "networkId": 0,
      "chainId": 0
    }
  ]
}