{
  "hash": "0x69624afc3d0317c0c558fdc72e8f0000d27fcf8db63d794b9eb3dc050d0a1ad0",
  "parentHash": "0xb44dff010550e3dce80fe27905aa1060bf8cad9587690aca1ceaa16a76a754e7",
  "number": 65193,
  "timestamp": 1439232692,
  "nonce": "0x32822ba1bcdac2dc",
  "difficulty": 1948346882535,
  "gasLimit": {
    "_hex": "0x2fefd8"
  },
  "gasUsed": {
    "_hex": "0xa410"
  },
  "miner": "0x47ff6576639c2e94762eA5443978D7681C0E78DC",
  "extraData": "0x476574682f76312e302e312f6c696e75782f676f312e342e32",
  "transactions": [
    {
      "hash": "0x6dba07da55e8bb8856659812a46efac77e495c854f8ba7ffab6885205493d8cb",
      "blockHash": "0x69624afc3d0317c0c558fdc72e8f0000d27fcf8db63d794b9eb3dc050d0a1ad0",
      "blockNumber": 65193,
      "transactionIndex": 0,
      "confirmations": null,
      "from": "0x86b428854f09314aee20Bf68D2C537f2263617E6",
      "gasPrice": {
        "_hex": "0xba43b7400"
      },
      "gasLimit": {
        "_hex": "0x5208"
      },
      "to": "0x85dCcd991cF318E021F6BeB5FD552D34Cd291DAf",
      "value": {
        "_hex": "0x6736a3dc03c0000"
      },
      "nonce": 1,
      "data": "0x",
      "r": "0xf051a64699357c414800d7c7c25db0ae5097ed381a1ecad6364b10608c9a3662",
      "s": "0x5ee1f8d9514dc5e4a031453c4882cd4da02440a6f8b1801032ddfc8ba0d0ab5a",
      "v": 28,
      "creates": null,
      "raw": "0xf86c01850ba43b74008252089485dccd991cf318e021f6beb5fd552d34cd291daf8806736a3dc03c0000801ca0f051a64699357c414800d7c7c25db0ae5097ed381a1ecad6364b10608c9a3662a05ee1f8d9514dc5e4a031453c4882cd4da02440a6f8b1801032ddfc8ba0d0ab5a",
      "networkId": 0,
      "chainId": 0
    },
    {
      "hash": "0x572e4877ab9837e7d88e4b035438d576d08794e90835b5dac5f8d9df6c55ed30",
      "blockHash": "0x69624afc3d0317c0c558fdc72e8f0000d27fcf8db63d794b9eb3dc050d0a1ad0",
      "blockNumber": 65193,
      "transactionIndex": 1,
      "confirmations": null,
      "from": "0xA6dca0416a3D0F89A99328eD355c8EA39ea1780A",
      "gasPrice": {
        "_hex": "0xba43b7400"
      },
      "gasLimit": {
        "_hex": "0x5208"
      },
      "to": "0xcc67eEA4682EaEd9Ca1F9072344BAb9b04fcE7C7",
      "value": {
        "_hex": "0x616dd8a59fa4000"
      },
      "nonce": 1,
      "data": "0x",
      "r": "0x12b9b1e5741a57e5639e3bce751d65808097e8d502e5f0efd82a9c92ec7c6646",
      "s": "0x39fb555d3a3c84d806e12cab79b9727e0ac8b58d887270876a1becb1c7aa5118",
      "v": 27,
      "creates": null,
      "raw": "0xf86c01850ba43b740082520894cc67eea4682eaed9ca1f9072344bab9b04fce7c7880616dd8a59fa4000801ba012b9b1e5741a57e5639e3bce751d65808097e8d502e5f0efd82a9c92ec7c6646a039fb555d3a3c84d806e12cab79b9727e0ac8b58d887270876a1becb1c7aa5118",
      "networkId": 0,
      "chainId": 0
    }
  ]
}