{
  "hash": "0x0373e1c1d46b41d3c7ed9c4faca1bd2a2d1ce7770db91bf378312fb0fafe8df1",
  "parentHash": "0x8d66ad74ddc9a88b478dce821724571f86a6c6b369d2efd96804eb1cb9f6ae27",
  "number": 93423,
  "timestamp": 1439690116,
  "nonce": "0x6c463b3c64a3a5f9",
  "difficulty": 3492193646425,
  "gasLimit": {
    "_hex": "0x2fefd8"
  },
  "gasUsed": {
    "_hex": "0xf618"
  },
  "miner": "0x20c6Efe179C293690A5B3375F5bd81c2f07Ed037",
  "extraData": "0x476574682f76312e302e312d38326566323666362f6c696e75782f676f312e34",
  "transactions": [
    {
      "hash": "0x1a92c461d9ff7d4474777975cef01a174600b84c630a21759a973d76342098a8",
      "blockHash": "0x0373e1c1d46b41d3c7ed9c4faca1bd2a2d1ce7770db91bf378312fb0fafe8df1",
      "blockNumber": 93423,
      "transactionIndex": 0,
      "confirmations": null,
      "from": "0x2910543Af39abA0Cd09dBb2D50200b3E800A63D2",
      "gasPrice": {
        "_hex": "0xcb86e5216"
      },
      "gasLimit": {
        "_hex": "0x5208"
      },
      "to": "0x5a0f0935E8E5591B2f9f2d55f29C626B50292088",
      "value": {
        "_hex": "0x104344570ef14f8000"
      },
      "nonce": 848,
      "data": "0x",
      "r": "0x2aec91430a1c0569ccbd5b928bdb43b13cc79a22baf2dbec7c6f851d4e07fa30",
      "s": "0x4d581479041dc35e26a63c47bd9c55415e7d4f31b6102b075942817d3d4a77fb",
      "v": 28,
      "creates": null,
      "raw": "0xf86f820350850cb86e5216825208945a0f0935e8e5591b2f9f2d55f29c626b5029208889104344570ef14f8000801ca02aec91430a1c0569ccbd5b928bdb43b13cc79a22baf2dbec7c6f851d4e07fa30a04d581479041dc35e26a63c47bd9c55415e7d4f31b6102b075942817d3d4a77fb",
      "networkId": 0,
      "chainId": 0
    },
    {
      "hash": "0xdbe6a7dbf84304f6a79a07953666268b6e11656346d7e027b2f41c886e3f54a6",
      "blockHash": "0x0373e1c1d46b41d3c7ed9c4faca1bd2a2d1ce7770db91bf378312fb0fafe8df1",
      "blockNumber": 93423,
      "transactionIndex": 1,
      "confirmations": null,
      "from": "0x2910543Af39abA0Cd09dBb2D50200b3E800A63D2",
      "gasPrice": {
        "_hex": "0xcb86e5216"
      },
      "gasLimit": {
        "_hex": "0x5208"
      },
      "to": "0x5a0f0935E8E5591B2f9f2d55f29C626B50292088",
      "value": {
        "_hex": "0x1b1ad31369b76f8000"
      },
      "nonce": 849,
      "data": "0x",
      "r": "0x518136b6130f8c913004733582bf0e461692f209f883077701c1ff017fcbd051",
      "s": "0x6d3a20ef0df4c204650c272f2ce7d3f25f9991759387a255a1bc6f557999e995",
      "v": 28,
      "creates": null,
      "raw": "0xf86f820351850cb86e5216825208945a0f0935e8e5591b2f9f2d55f29c626b50292088891b1ad31369b76f8000801ca0518136b6130f8c913004733582bf0e461692f209f883077701c1ff017fcbd051a06d3a20ef0df4c204650c272f2ce7d3f25f9991759387a255a1bc6f557999e995",
      "networkId": 0,
      "chainId": 0
    },
    {
      "hash": "0x6f1f87bce68f3f325c2501cc30b2622ff5e06481ee5d47904d6cda7728fe97b7",
      "blockHash": "0x0373e1c1d46b41d3c7ed9c4faca1bd2a2d1ce7770db91bf378312fb0fafe8df1",
      "blockNumber": 93423,
      "transactionIndex": 2,
      "confirmations": null,
      "from": "0xe0777eE2D5713C0B6A72BB8c02D0Bf927b8D8809",
      "gasPrice": {
        "_hex": "0xba43b7400"
      },
      "gasLimit": {
        "_hex": "0x5208"
      },
      "to": "0xC47Aaa860008be6f65B58c6C6E02a84e666EfE31",
      "value": {
        "_hex": "0xdb974c90a9f38f0"
      },
      "nonce": 0,
      "data": "0x",
      "r": "0x728a83172aa54aae97f35492d8fe60e10a16e06e9742e20bcd78c1b70782dfc4",
      "s": "0x2801f89dd0b90e3991d625d5c27fa22e695fefd9b5723624307472346c308517",
      "v": 27,
      "creates": null,
      "raw": "0xf86c80850ba43b740082520894c47aaa860008be6f65b58c6c6e02a84e666efe31880db974c90a9f38f0801ba0728a83172aa54aae97f35492d8fe60e10a16e06e9742e20bcd78c1b70782dfc4a02801f89dd0b90e3991d625d5c27fa22e695fefd9b5723624307472346c308517",
      "networkId": 0,
      "chainId": 0
    }
  ]
}