{
  "hash": "0x6d01edcb8f0dac0396dfa5bdf296b5918d5c33a7b0ca5750b365ce10ae282f5a",
  "parentHash": "0xd8c645d06a2c9de4a5a999a30085a011a1c33b0791a2d0a5181f26dddef4e293",
  "number": 99526,
  "timestamp": 1439791629,
  "nonce": "0x766126bfe176b015",
  "difficulty": 3789833528100,
  "gasLimit": {
    "_hex": "0x2fefd8"
  },
  "gasUsed": {
    "_hex": "0x14820"
  },
  "miner": "0xf927a40C8B7F6E07c5af7FA2155B4864a4112B13",
  "extraData": "0x",
  "transactions": [
    {
      "hash": "0xc93826b6ddb27251214d14a2b4b112051b87064a5c1a25b32d71df4179749084",
      "blockHash": "0x6d01edcb8f0dac0396dfa5bdf296b5918d5c33a7b0ca5750b365ce10ae282f5a",
      "blockNumber": 99526,
      "transactionIndex": 0,
      "confirmations": null,
      "from": "0x4D67f4F0Db45b3B5a3424B39ed8d972F710381D5",
      "gasPrice": {
        "_hex": "0xdde484678"
      },
      "gasLimit": {
        "_hex": "0x5208"
      },
      "to": "0x32Be343B94f860124dC4fEe278FDCBD38C102D88",
      "value": {
        "_hex": "0x2f9df897eb7130000"
      },
      "nonce": 20,
      "data": "0x",
      "r": "0x1e260137be5266b0b3aeaeb1b96ac6c8b7014fe2e944cecdc0e8c4afe847474b",
      "s": "0x02f070a497506f92c72ed3b352e7ce0dba53a1c48d32015cfa3f3bc987752727",
      "v": 27,
      "creates": null,
      "raw": "0xf86d14850dde4846788252089432be343b94f860124dc4fee278fdcbd38c102d888902f9df897eb7130000801ba01e260137be5266b0b3aeaeb1b96ac6c8b7014fe2e944cecdc0e8c4afe847474ba002f070a497506f92c72ed3b352e7ce0dba53a1c48d32015cfa3f3bc987752727",
      "networkId": 0,
      "chainId": 0
    },
    {
      "hash": "0xc313c375e209f17edfaeb4609facda6104d818dd6d53d2ace122bf23094df979",
      "blockHash": "0x6d01edcb8f0dac0396dfa5bdf296b5918d5c33a7b0ca5750b365ce10ae282f5a",
      "blockNumber": 99526,
      "transactionIndex": 1,
      "confirmations": null,
      "from": "0x0D4EcC7d750180EBf4A9Df728B6669B5Bceb5E40",
      "gasPrice": {
        "_hex": "0xdde484678"
      },
      "gasLimit": {
        "_hex": "0x5208"
      },
      "to": "0x32Be343B94f860124dC4fEe278FDCBD38C102D88",
      "value": {
        "_hex": "0x45639c85d9338c00"
      },
      "nonce": 57,
      "data": "0x",
      "r": "0x44f75cde558c4c1ee3ae2859dc5257d04998ba801e7ded487b41aabaef63c43d",
      "s": "0x462ebc0775ef1ad2f603407c582533e8bbca10a7fdf7a06fdc4d06644a85c0aa",
      "v": 27,
      "creates": null,
      "raw": "0xf86c39850dde4846788252089432be343b94f860124dc4fee278fdcbd38c102d888845639c85d9338c00801ba044f75cde558c4c1ee3ae2859dc5257d04998ba801e7ded487b41aabaef63c43da0462ebc0775ef1ad2f603407c582533e8bbca10a7fdf7a06fdc4d06644a85c0aa",
      "networkId": 0,
      "chainId": 0
    },
    {
      "hash": "0x631f68c7c3dcd632fa9ee063afc7ef1ab4877805aae61aabc8a3463ca2a5c5d5",
      "blockHash": "0x6d01edcb8f0dac0396dfa5bdf296b5918d5c33a7b0ca5750b365ce10ae282f5a",
      "blockNumber": 99526,
      "transactionIndex": 2,
      "confirmations": null,
      "from": "0xD9666150A9dA92d9108198a4072970805a8B3428",
      "gasPrice": {
        "_hex": "0xdde484678"
      },
      "gasLimit": {
        "_hex": "0x5208"
      },
      "to": "0x32Be343B94f860124dC4fEe278FDCBD38C102D88",
      "value": {
        "_hex": "0x455f1fe063151000"
      },
      "nonce": 37,
      "data": "0x",
      "r": "0xc5c8b00bc0894ebfa4aaa6d191fde353a6ca7f81774f6f7d0b6e3046b4ac868f",
      "s": "0x531596fca4f928163ec1ab6daf6f91f20f58e29225bb620a714dc59d19adfdd9",
      "v": 28,
      "creates": null,
      "raw": "0xf86c25850dde4846788252089432be343b94f860124dc4fee278fdcbd38c102d8888455f1fe063151000801ca0c5c8b00bc0894ebfa4aaa6d191fde353a6ca7f81774f6f7d0b6e3046b4ac868fa0531596fca4f928163ec1ab6daf6f91f20f58e29225bb620a714dc59d19adfdd9",
      "networkId": 0,
      "chainId": 0
    },
    {
      "hash": "0x41bddc338d08c61acdb1de5b5c7dcf824c111096db410466258e04cf2ab11a45",
      "blockHash": "0x6d01edcb8f0dac0396dfa5bdf296b5918d5c33a7b0ca5750b365ce10ae282f5a",
      "blockNumber": 99526,
      "transactionIndex": 3,
      "confirmations": null,
      "from": "0x0025BC2515C073784222cBCd1E988dBa9a0f75AF",
      "gasPrice": {
        "_hex": "0xba43b7400"
      },
      "gasLimit": {
        "_hex": "0x985f6"
      },
      "to": "0x00f222E7C680F9932feCAC767cC279C84C0A3285",
      "value": {
        "_hex": "0x2386f26fc10000"
      },
      "nonce": 0,
      "data": "0x",
      "r": "0x8f013a2f4a660ec26fbd308cf80821772fa8ef1b373782cb7adaca33b298b682",
      "s": "0x735da7c6d4085d752faa4947b4fbf752be737ee68e37e5aff5679a36c51a0d49",
      "v": 28,
      "creates": null,
      "raw": "0xf86c80850ba43b7400830985f69400f222e7c680f9932fecac767cc279c84c0a3285872386f26fc10000801ca08f013a2f4a660ec26fbd308cf80821772fa8ef1b373782cb7adaca33b298b682a0735da7c6d4085d752faa4947b4fbf752be737ee68e37e5aff5679a36c51a0d49",
      "networkId": 0,
      "chainId": 0
    }
  ]
}