{
  "hash": "0x6eaea251e16a7c5f789f32312533ca9111e9d4683e5fca69a73a90a313660820",
  "parentHash": "0xeed1b850c4ba676131342dee393cad40f3ba88427b8f64073f3ebae6e1f743c2",
  "number": 48850,
  "timestamp": 1438964050,
  "nonce": "0x6d772622feb38d9e",
  "difficulty": 1478602588743,
  "gasLimit": {
    "_hex": "0x1f7da"
  },
  "gasUsed": {
    "_hex": "0x546c"
  },
  "miner": "0x3D1C1B034ed3495E962CaADCB322E0CEfB2D24cB",
  "extraData": "0x476574682f5661726168612f76312e302e312f6c696e75782f676f312e342e32",
  "transactions": [
    {
      "hash": "0xc30d16031fcd59d4fcace06bcab39582713d2bcf929cceb37b4d59f001b2a6a4",
      "blockHash": "0x6eaea251e16a7c5f789f32312533ca9111e9d4683e5fca69a73a90a313660820",
      "blockNumber": 48850,
      "transactionIndex": 0,
      "confirmations": null,
      "from": "0xe8C3f045bB7D38c9d2f395b0BA8492b253230901",
      "gasPrice": {
        "_hex": "0xba43b7400"
      },
      "gasLimit": {
        "_hex": "0x55f0"
      },
      "to": "0x2910543Af39abA0Cd09dBb2D50200b3E800A63D2",
      "value": {
        "_hex": "0xd8d71f0208ae1fd000"
      },
      "nonce": 1,
      "data": "0x454e41425441515638",
      "r": "0xc97bf7af21014ed6b6c5f2fd37220c163244a68217e1cae887413cfa1c0db7d7",
      "s": "0x6eb2498eb9ea070a6826039a609b284dd979eb654cd7a6e67e464fec41ce2105",
      "v": 28,
      "creates": null,
      "raw": "0xf87601850ba43b74008255f0942910543af39aba0cd09dbb2d50200b3e800a63d289d8d71f0208ae1fd00089454e414254415156381ca0c97bf7af21014ed6b6c5f2fd37220c163244a68217e1cae887413cfa1c0db7d7a06eb2498eb9ea070a6826039a609b284dd979eb654cd7a6e67e464fec41ce2105",
      "networkId": 0,
      "chainId": 0
    }
  ]
}