{
  "hash": "0xceb8945a5b7f6b3b74c125b9815db3773f792b5cc03f2c1fdc23d0d8cae42cf5",
  "parentHash": "0xddc0e606201b1cfbe9ab1e622fa053119e3230d3f0b75f1a14974e83526b5403",
  "number": 81904,
  "timestamp": 1439509838,
  "nonce": "0x3e7f3385e0bf3168",
  "difficulty": 2411674216750,
  "gasLimit": {
    "_hex": "0x2fefd8"
  },
  "gasUsed": {
    "_hex": "0x5208"
  },
  "miner": "0xe6A7a1d47ff21B6321162AEA7C6CB457D5476Bca",
  "extraData": "0x476574682f76312e302e312d38326566323666362f6c696e75782f676f312e34",
  "transactions": [
    {
      "hash": "0xa8775ce98a25da4c2653e95c62493d8b5a46b08d5b040ff47cd317570fab97db",
      "blockHash": "0xceb8945a5b7f6b3b74c125b9815db3773f792b5cc03f2c1fdc23d0d8cae42cf5",
      "blockNumber": 81904,
      "transactionIndex": 0,
      "confirmations": null,
      "from": "0xC40EBC923f794eED9039b84471e77821CaC1faFe",
      "gasPrice": {
        "_hex": "0xba43b7400"
      },
      "gasLimit": {
        "_hex": "0x5208"
      },
      "to": "0xC47Aaa860008be6f65B58c6C6E02a84e666EfE31",
      "value": {
        "_hex": "0x7ce51469cc35be000"
      },
      "nonce": 1,
      "data": "0x",
      "r": "0x6c30b22f6ec8585c846c51c6955b867ad5214146552c8d3aa2c973015e1068e8",
      "s": "0x2dd3af23bd5bce8b187e813278fd51647f51b4b913d69549a9abfc5ccbda41d6",
      "v": 27,
      "creates": null,
      "raw": "0xf86d01850ba43b740082520894c47aaa860008be6f65b58c6c6e02a84e666efe318907ce51469cc35be000801ba06c30b22f6ec8585c846c51c6955b867ad5214146552c8d3aa2c973015e1068e8a02dd3af23bd5bce8b187e813278fd51647f51b4b913d69549a9abfc5ccbda41d6",
      "networkId": 0,
      "chainId": 0
    }
  ]
}