{
  "hash": "0xa3ebd8f8090ce8978067684bc13e47bb49e26f5ce05cd2321d2ed02309833399",
  "parentHash": "0x0d06db0ca1de0fae53f44805d14cfee54f0836343b27641132c83edc0bcab6c3",
  "number": 49901,
  "timestamp": 1438980928,
  "nonce": "0x356fc8ec46a1ebc9",
  "difficulty": 1496575036199,
  "gasLimit": {
    "_hex": "0x44e50"
  },
  "gasUsed": {
    "_hex": "0x5208"
  },
  "miner": "0xf8E0CA3Ed80bd541b94BEdCf259e8CF2141A9523",
  "extraData": "0x476574682f76312e302e312f77696e646f77732f676f312e342e32",
  "transactions": [
    {
      "hash": "0x594d515f78bb54fe7b84317e34277ac335cdc599564f697094dc711fd9726fc5",
      "blockHash": "0xa3ebd8f8090ce8978067684bc13e47bb49e26f5ce05cd2321d2ed02309833399",
      "blockNumber": 49901,
      "transactionIndex": 0,
      "confirmations": null,
      "from": "0xc8b25f8890816e7F491d8EE02BA8b4548c73D3A4",
      "gasPrice": {
        "_hex": "0xccefa180c"
      },
      "gasLimit": {
        "_hex": "0x5208"
      },
      "to": "0x32Be343B94f860124dC4fEe278FDCBD38C102D88",
      "value": {
        "_hex": "0x1b1ae0b12919180000"
      },
      "nonce": 2,
      "data": "0x",
      "r": "0xe0364f6f09ce987a73a2401c8cb9788e19c8ab62b566879cb7624dc2e76fc54d",
      "s": "0x49bf0de8ffc72ab590d7bc892d1daecd0e8324a4e27d880f3ed4ee85d517b13b",
      "v": 28,
      "creates": null,
      "raw": "0xf86d02850ccefa180c8252089432be343b94f860124dc4fee278fdcbd38c102d88891b1ae0b12919180000801ca0e0364f6f09ce987a73a2401c8cb9788e19c8ab62b566879cb7624dc2e76fc54da049bf0de8ffc72ab590d7bc892d1daecd0e8324a4e27d880f3ed4ee85d517b13b",
      "networkId": 0,
      "chainId": 0
    }
  ]
}