{
  "hash": "0x52fbd6a64f2d0d6da65e628632386e3c8ac1c813567a15d41be7ebefc04df350",
  "parentHash": "0x4d70d0ebca435effc053af58534c5f99c703b597cb145f888a06ed99b3b3d075",
  "number": 64618,
  "timestamp": 1439223700,
  "nonce": "0xaed03f70bba5ac1c",
  "difficulty": 1885767612519,
  "gasLimit": {
    "_hex": "0x2fefd8"
  },
  "gasUsed": {
    "_hex": "0x4ae34"
  },
  "miner": "0x157c6f2431eB1a95797EE86F7d17b3c0FD47A247",
  "extraData": "0x476574682f76312e302e312f77696e646f77732f676f312e342e32",
  "transactions": [
    {
      "hash": "0x031b97da3a7de042e034e8007a74fc437a6e6173c27dae11e571aedff2cc8357",
      "blockHash": "0x52fbd6a64f2d0d6da65e628632386e3c8ac1c813567a15d41be7ebefc04df350",
      "blockNumber": 64618,
      "transactionIndex": 0,
      "confirmations": null,
      "from": "0x5842592fE477B8bE20917940A4Ae5be72373f35B",
      "gasPrice": {
        "_hex": "0xba43b7400"
      },
      "gasLimit": {
        "_hex": "0x15f90"
      },
      "to": "0x793AE8C1b1a160BFc07BFB0d04F85eab1A71F4f2",
      "value": {
        "_hex": "0x0"
      },
      "nonce": 0,
      "data": "0x3ba15036",
      "r": "0x910260d1ba014103b5d4f3d3d3e1068784d10f7214812222272a9a2649422dec",
      "s": "0x7f729615d4e5423b4be36bc7bde91c03faaa5f4102eeabfeba30a0c3d04037c1",
      "v": 27,
      "creates": null,
      "raw": "0xf86980850ba43b740083015f9094793ae8c1b1a160bfc07bfb0d04f85eab1a71f4f280843ba150361ba0910260d1ba014103b5d4f3d3d3e1068784d10f7214812222272a9a2649422deca07f729615d4e5423b4be36bc7bde91c03faaa5f4102eeabfeba30a0c3d04037c1",
      "networkId": 0,
      "chainId": 0
    },
    {
      "hash": "0xf91646a4c1f7944662b2dac0b5f8dd7565d0daf0702b4ca840d14ad2db11527d",
      "blockHash": "0x52fbd6a64f2d0d6da65e628632386e3c8ac1c813567a15d41be7ebefc04df350",
      "blockNumber": 64618,
      "transactionIndex": 1,
      "confirmations": null,
      "from": "0x7D498573b1c08883E4F036944010C64af0c647eB",
      "gasPrice": {
        "_hex": "0xba43b7400"
      },
      "gasLimit": {
        "_hex": "0x15f90"
      },
      "to": "0x793AE8C1b1a160BFc07BFB0d04F85eab1A71F4f2",
      "value": {
        "_hex": "0x0"
      },
      "nonce": 0,
      "data": "0x3ba15036",
      "r": "0x9060e8d1eebb55b1fc41abec32f3a19ccbabb39d5cd21ffebb99e62113e8117b",
      "s": "0x738dd8c56da015294a0afd5027acff812959749779a2cf68f9fb6a57db4ed352",
      "v": 27,
      "creates": null,
      "raw": "0xf86980850ba43b740083015f9094793ae8c1b1a160bfc07bfb0d04f85eab1a71f4f280843ba150361ba09060e8d1eebb55b1fc41abec32f3a19ccbabb39d5cd21ffebb99e62113e8117ba0738dd8c56da015294a0afd5027acff812959749779a2cf68f9fb6a57db4ed352",
      "networkId": 0,
      "chainId": 0
    },
    {
      "hash": "0xa6c5a9f253ed6be458b596e09897d3be92c600d70cf60934e888ca21f1bb1474",
      "blockHash": "0x52fbd6a64f2d0d6da65e628632386e3c8ac1c813567a15d41be7ebefc04df350",
      "blockNumber": 64618,
      "transactionIndex": 2,
      "confirmations": null,
      "from": "0x9114a867020e374f2ae51028eea2BaEe5C422468",
      "gasPrice": {
        "_hex": "0xba43b7400"
      },
      "gasLimit": {
        "_hex": "0x5208"
      },
      "to": "0xEBc158d9Ec4aD3f54bCE9bdE03D592910EDa0178",
      "value": {
        "_hex": "0x36ef271c4dd000"
      },
      "nonce": 1,
      "data": "0x",
      "r": "0x4c696e7f9e50bba6341d98bdab6f34992ada05a3c8408b5e54194a3004ae313d",
      "s": "0x12d3ad2c8e3f50edb4999b9f96e0dae33b520979c79c52f483605a6c0a4a0cb6",
      "v": 28,
      "creates": null,
      "raw": "0xf86b01850ba43b740082520894ebc158d9ec4ad3f54bce9bde03d592910eda01788736ef271c4dd000801ca04c696e7f9e50bba6341d98bdab6f34992ada05a3c8408b5e54194a3004ae313da012d3ad2c8e3f50edb4999b9f96e0dae33b520979c79c52f483605a6c0a4a0cb6",
      "networkId": 0,
      "chainId": 0
    },
    {
      "hash": "0x918c360ec990d65186346f48e0c8cf779312dccc8abed9141da32d39175d9f8b",
      "blockHash": "0x52fbd6a64f2d0d6da65e628632386e3c8ac1c813567a15d41be7ebefc04df350",
      "blockNumber": 64618,
      "transactionIndex": 3,
      "confirmations": null,
      "from": "0xC5c1093E4CD1441b7bB025918ae8e78ec2B51EaC",
      "gasPrice": {
        "_hex": "0xba43b7400"
      },
      "gasLimit": {
        "_hex": "0x15f90"
      },
      "to": "0x793AE8C1b1a160BFc07BFB0d04F85eab1A71F4f2",
      "value": {
        "_hex": "0x0"
      },
      "nonce": 0,
      "data": "0x3ba15036",
      "r": "0x8af28220f76ad9c4a24c0947f2cf97c44bb2306df4610041d869ae56edbb8acf",
      "s": "0x7444ad378b68235fa8e27d9fde35cc2cd9d480fe5278367dad42cb6d9d1cbbd0",
      "v": 28,
      "creates": null,
      "raw": "0xf86980850ba43b740083015f9094793ae8c1b1a160bfc07bfb0d04f85eab1a71f4f280843ba150361ca08af28220f76ad9c4a24c0947f2cf97c44bb2306df4610041d869ae56edbb8acfa07444ad378b68235fa8e27d9fde35cc2cd9d480fe5278367dad42cb6d9d1cbbd0",
      "networkId": 0,
      "chainId": 0
    },
    {
      "hash": "0x1c7f372d14ff3411108d13f7e0330cc348cbcf96aecfe92be82047a2234f8008",
      "blockHash": "0x52fbd6a64f2d0d6da65e628632386e3c8ac1c813567a15d41be7ebefc04df350",
      "blockNumber": 64618,
      "transactionIndex": 4,
      "confirmations": null,
      "from": "0xbAc52feab7841a1452c87cF40B52a052693862b9",
      "gasPrice": {
        "_hex": "0xba43b7400"
      },
      "gasLimit": {
        "_hex": "0x15f90"
      },
      "to": "0x793AE8C1b1a160BFc07BFB0d04F85eab1A71F4f2",
      "value": {
        "_hex": "0x0"
      },
      "nonce": 0,
      "data": "0x3ba15036",
      "r": "0x70600d0d5f58bee7cf348426c515615d79b2e7b2c912af20cde048a81af48946",
      "s": "0x32d628ebfcaaf86b2afb87c1ee6f076b3952349d5303c88dd0487086aa89fa1d",
      "v": 27,
      "creates": null,
      "raw": "0xf86980850ba43b740083015f9094793ae8c1b1a160bfc07bfb0d04f85eab1a71f4f280843ba150361ba070600d0d5f58bee7cf348426c515615d79b2e7b2c912af20cde048a81af48946a032d628ebfcaaf86b2afb87c1ee6f076b3952349d5303c88dd0487086aa89fa1d",
      "networkId": 0,
      "chainId": 0
    },
    {
      "hash": "0x488cd61c05f26858da73c6997a93a241962ff7948eda3dad139e5543e8cabdb4",
      "blockHash": "0x52fbd6a64f2d0d6da65e628632386e3c8ac1c813567a15d41be7ebefc04df350",
      "blockNumber": 64618,
      "transactionIndex": 5,
      "confirmations": null,
      "from": "0x9d62aD97BD5B5aeeE9e4615191affDEc16614562",
      "gasPrice": {
        "_hex": "0xba43b7400"
      },
      "gasLimit": {
        "_hex": "0x15f90"
      },
      "to": "0x793AE8C1b1a160BFc07BFB0d04F85eab1A71F4f2",
      "value": {
        "_hex": "0x0"
      },
      "nonce": 0,
      "data": "0x3ba15036",
      "r": "0xa62ebc5ce8b77067fa77bba6a71b06d12c8b20681fd5826500c893dcc4205a8e",
      "s": "0x28eb9bb6921b662f8c09bdf32bb0fa8e1b911733eeb55cca1cfc34cc052dd0ae",
      "v": 27,
      "creates": null,
      "raw": "0xf86980850ba43b740083015f9094793ae8c1b1a160bfc07bfb0d04f85eab1a71f4f280843ba150361ba0a62ebc5ce8b77067fa77bba6a71b06d12c8b20681fd5826500c893dcc4205a8ea028eb9bb6921b662f8c09bdf32bb0fa8e1b911733eeb55cca1cfc34cc052dd0ae",
      "networkId": 0,
      "chainId": 0
    },
    {
      "hash": "0xe334ed84f67181c1944fef3924ec4935f05b964ae04ea30fb294b3b9958d6cfe",
      "blockHash": "0x52fbd6a64f2d0d6da65e628632386e3c8ac1c813567a15d41be7ebefc04df350",
      "blockNumber": 64618,
      "transactionIndex": 6,
      "confirmations": null,
      "from": "0x6747f922385c9a6F9cfDf095F34345257DD597bE",
      "gasPrice": {
        "_hex": "0xba43b7400"
      },
      "gasLimit": {
        "_hex": "0x5208"
      },
      "to": "0xC32540af404fb7dD2c4ea4D77fbEB0C6E54289f6",
      "value": {
        "_hex": "0x1fcbfa42bd6000"
      },
      "nonce": 17,
      "data": "0x",
      "r": "0xb8a7677b7d2f193b379aef0566f802f277c9167c8243f9b1be8a455ac23837d5",
      "s": "0x58b423e42ded694deaac5220343a900f67ac8177efe0aa5ee506fbaf3df77741",
      "v": 27,
      "creates": null,
      "raw": "0xf86b11850ba43b740082520894c32540af404fb7dd2c4ea4d77fbeb0c6e54289f6871fcbfa42bd6000801ba0b8a7677b7d2f193b379aef0566f802f277c9167c8243f9b1be8a455ac23837d5a058b423e42ded694deaac5220343a900f67ac8177efe0aa5ee506fbaf3df77741",
      "networkId": 0,
      "chainId": 0
    },
    {
      "hash": "0x76e6c025be196e922bf72b7657a3d3112b472cbc1029f93c8036e0db148041e6",
      "blockHash": "0x52fbd6a64f2d0d6da65e628632386e3c8ac1c813567a15d41be7ebefc04df350",
      "blockNumber": 64618,
      "transactionIndex": 7,
      "confirmations": null,
      "from": "0x72C89386fd6E097EB3Fc844eD3179DB549a22e38",
      "gasPrice": {
        "_hex": "0xba43b7400"
      },
      "gasLimit": {
        "_hex": "0x5208"
      },
      "to": "0x6aDCFeC08ADb1a771A8Ae7ad4B00e45461b09C32",
      "value": {
        "_hex": "0x4e1253f5de4000"
      },
      "nonce": 1,
      "data": "0x",
      "r": "0xb35cadae5a2a7843d8573b50634e88626efe4df3906a7bbf7298c2cdfc48b582",
      "s": "0x7c0c752eb0ed799bbd3db149c53b8f766691808763749f7e3cc5305678c50332",
      "v": 28,
      "creates": null,
      "raw": "0xf86b01850ba43b7400825208946adcfec08adb1a771a8ae7ad4b00e45461b09c32874e1253f5de4000801ca0b35cadae5a2a7843d8573b50634e88626efe4df3906a7bbf7298c2cdfc48b582a07c0c752eb0ed799bbd3db149c53b8f766691808763749f7e3cc5305678c50332",
      "networkId": 0,
      "chainId": 0
    }
  ]
}