{
  "hash": "0x157b606772d571a453b661b8be51c5b517c426f787c7271128a18c0374ea12af",
  "parentHash": "0x9a44042d9c852940016252637ba96bcd40e4ac0d702240c4c6a54b33713e0ce1",
  "number": 69078,
  "timestamp": 1439297969,
  "nonce": "0xaba7bc231f07e57d",
  "difficulty": 2051895972222,
  "gasLimit": {
    "_hex": "0x2fefd8"
  },
  "gasUsed": {
    "_hex": "0x17cd8"
  },
  "miner": "0x88D74a59454F6cF3B51ef6b9136AFb6b9D405A88",
  "extraData": "0x476574682f76312e302e312d37666266393930632f6c696e75782f676f312e34",
  "transactions": [
    {
      "hash": "0xaa0299d5a5391636370a14b30fd791c2435fa6ee37fd40af83a9beed4b7688a4",
      "blockHash": "0x157b606772d571a453b661b8be51c5b517c426f787c7271128a18c0374ea12af",
      "blockNumber": 69078,
      "transactionIndex": 0,
      "confirmations": null,
      "from": "0xEc2E2bD73520b0867C8c4ACa89EEB80439BadAd8",
      "gasPrice": {
        "_hex": "0xba43b7400"
      },
      "gasLimit": {
        "_hex": "0x15f90"
      },
      "to": "0x793AE8C1b1a160BFc07BFB0d04F85eab1A71F4f2",
      "value": {
        "_hex": "0x0"
      },
      "nonce": 0,
      "data": "0x3ba15036",
      "r": "0x4057c37eec223a8b817745f3b3c9363946310a0ba5245212616cca601098344b",
      "s": "0x28ecaba69bc7126ab5c4f429383e64d0c39fcff528805d3cc0862698d50e0864",
      "v": 27,
      "creates": null,
      "raw": "0xf86980850ba43b740083015f9094793ae8c1b1a160bfc07bfb0d04f85eab1a71f4f280843ba150361ba04057c37eec223a8b817745f3b3c9363946310a0ba5245212616cca601098344ba028ecaba69bc7126ab5c4f429383e64d0c39fcff528805d3cc0862698d50e0864",
      "networkId": 0,
      "chainId": 0
    },
    {
      "hash": "0xdf61fccad0f99a88d4433e27175c64c785d8bf164317bf9aa5688619a67a44f4",
      "blockHash": "0x157b606772d571a453b661b8be51c5b517c426f787c7271128a18c0374ea12af",
      "blockNumber": 69078,
      "transactionIndex": 1,
      "confirmations": null,
      "from": "0xd2B6414703c90beFE981B4035BA7E61fE6F131c9",
      "gasPrice": {
        "_hex": "0xba43b7400"
      },
      "gasLimit": {
        "_hex": "0x15f90"
      },
      "to": "0x793AE8C1b1a160BFc07BFB0d04F85eab1A71F4f2",
      "value": {
        "_hex": "0x0"
      },
      "nonce": 0,
      "data": "0x3ba15036",
      "r": "0xcbaff33a20752199dda70760353bfecde44f50c381b2d92f60407cb8da1d24cb",
      "s": "0x1165eaea9000ab7b2c24b6c64722253f0d0ee94687d3d6646b6b7c2e52704c57",
      "v": 27,
      "creates": null,
      "raw": "0xf86980850ba43b740083015f9094793ae8c1b1a160bfc07bfb0d04f85eab1a71f4f280843ba150361ba0cbaff33a20752199dda70760353bfecde44f50c381b2d92f60407cb8da1d24cba01165eaea9000ab7b2c24b6c64722253f0d0ee94687d3d6646b6b7c2e52704c57",
      "networkId": 0,
      "chainId": 0
    }
  ]
}