{
  "hash": "0x3ddd91f271717170f6dd7def08ca52a3077ffcbc6bc486cba19d734f835358ac",
  "parentHash": "0xf3d1f49bcabdd3d6ae2a921d458769f486d147875b4ea05b2568d75c5f34cfa3",
  "number": 48570,
  "timestamp": 1438959158,
  "nonce": "0x537159d19b7d6278",
  "difficulty": 1470013299604,
  "gasLimit": {
    "_hex": "0x199d1"
  },
  "gasUsed": {
    "_hex": "0x546c"
  },
  "miner": "0xF2d2AfF1320476cb8C6b607199D23175cc595693",
  "extraData": "0x476574682f76312e302e312f77696e646f77732f676f312e342e32",
  "transactions": [
    {
      "hash": "0xc61cfc73c15e704141cd36281a77de2216e56eb423823958aecc4d81d7a56b55",
      "blockHash": "0x3ddd91f271717170f6dd7def08ca52a3077ffcbc6bc486cba19d734f835358ac",
      "blockNumber": 48570,
      "transactionIndex": 0,
      "confirmations": null,
      "from": "0xE3d7B9E55cB6232cd4b7190b2aDD2a306fD4227f",
      "gasPrice": {
        "_hex": "0xd1711b6ef"
      },
      "gasLimit": {
        "_hex": "0x15f90"
      },
      "to": "0x2910543Af39abA0Cd09dBb2D50200b3E800A63D2",
      "value": {
        "_hex": "0x9e7bfd7e86f60000"
      },
      "nonce": 0,
      "data": "0x454e51343033375047",
      "r": "0x0b64ee17824b2c1ae1427ebaf26856cf0f21f477c5e912b0e4f88fc32dec0711",
      "s": "0x18ddb4543c784fbb9d73853185a0b63c6660b3f66db68d086ab77e55b13b78e3",
      "v": 27,
      "creates": null,
      "raw": "0xf87680850d1711b6ef83015f90942910543af39aba0cd09dbb2d50200b3e800a63d2889e7bfd7e86f6000089454e513430333750471ba00b64ee17824b2c1ae1427ebaf26856cf0f21f477c5e912b0e4f88fc32dec0711a018ddb4543c784fbb9d73853185a0b63c6660b3f66db68d086ab77e55b13b78e3",
      "networkId": 0,
      "chainId": 0
    }
  ]
}