{
  "hash": "0x64e256fcec818ecd7a910396c7c79fb652780493261cb80e9b97752714f79873",
  "parentHash": "0x023043880205d30d0e8cb3c1e55f10b4027cbf38ba2d7dc5a5e0cb5bd0a8f886",
  "number": 47336,
  "timestamp": 1438938439,
  "nonce": "0x68066f685404c74e",
  "difficulty": 1451682514945,
  "gasLimit": {
    "_hex": "0xb19b"
  },
  "gasUsed": {
    "_hex": "0xa410"
  },
  "miner": "0xbb7B8287f3F0a933474a79eAe42CBCa977791171",
  "extraData": "0x476574682f4c5649562f76312e302e312f6c696e75782f676f312e342e32",
  "transactions": [
    {
      "hash": "0x03c9e239d79a19e9059f802149e58abedccbdf078ff047593ec17501e99a2207",
      "blockHash": "0x64e256fcec818ecd7a910396c7c79fb652780493261cb80e9b97752714f79873",
      "blockNumber": 47336,
      "transactionIndex": 0,
      "confirmations": null,
      "from": "0x7aBb10F5bd9BC33B8Ec1A82d64b55b6B18777541",
      "gasPrice": {
        "_hex": "0x174876e800"
      },
      "gasLimit": {
        "_hex": "0x5208"
      },
      "to": "0x34bB6978C5A1aD68777AD388c6787dF53903430c",
      "value": {
        "_hex": "0xde0b6b3a7640000"
      },
      "nonce": 0,
      "data": "0x",
      "r": "0xd24e5e870e0c7556e322b8afe1913c91ab84c66dd15eac2d44ef6b7bf6ae255c",
      "s": "0x6d20e8d765b3dd959457f256bfc91f047104e1f0e90b0d6172817096dc48e5af",
      "v": 28,
      "creates": null,
      "raw": "0xf86c8085174876e8008252089434bb6978c5a1ad68777ad388c6787df53903430c880de0b6b3a7640000801ca0d24e5e870e0c7556e322b8afe1913c91ab84c66dd15eac2d44ef6b7bf6ae255ca06d20e8d765b3dd959457f256bfc91f047104e1f0e90b0d6172817096dc48e5af",
      "networkId": 0,
      "chainId": 0
    },
    {
      "hash": "0x5f6d5ac6eb2147dd891c5f5aeede9f2d1f0a642064cd376077dfdbaab132134f",
      "blockHash": "0x64e256fcec818ecd7a910396c7c79fb652780493261cb80e9b97752714f79873",
      "blockNumber": 47336,
      "transactionIndex": 1,
      "confirmations": null,
      "from": "0xe6A7a1d47ff21B6321162AEA7C6CB457D5476Bca",
      "gasPrice": {
        "_hex": "0x1281ae53ab"
      },
      "gasLimit": {
        "_hex": "0x5208"
      },
      "to": "0xf64EE50154E0D74461966B4bB90139C010BCA68B",
      "value": {
        "_hex": "0xcd1dc87e30b13430"
      },
      "nonce": 113,
      "data": "0x",
      "r": "0x585b32847e9b54e4bb88c90b1ae9640e2f88629747e7fff00a1170884ec96446",
      "s": "0x6232cf57ffcca5a55cc0337cf6909cf9c3e3a448efcf260ae416dd4dc3441aba",
      "v": 28,
      "creates": null,
      "raw": "0xf86c71851281ae53ab82520894f64ee50154e0d74461966b4bb90139c010bca68b88cd1dc87e30b13430801ca0585b32847e9b54e4bb88c90b1ae9640e2f88629747e7fff00a1170884ec96446a06232cf57ffcca5a55cc0337cf6909cf9c3e3a448efcf260ae416dd4dc3441aba",
      "networkId": 0,
      "chainId": 0
    }
  ]
}