{
  "hash": "0xde655e73677ded996b73f6219504c7bda44e9e4ea427be6b9d8819f2845663f0",
  "parentHash": "0xf72999e42f349485705f6f5bc3edda55c13fa4fbe198a2f322143c530288c188",
  "number": 58477,
  "timestamp": 1439121336,
  "nonce": "0x2f3a3199bd03922b",
  "difficulty": 1715753208065,
  "gasLimit": {
    "_hex": "0x2fefd8"
  },
  "gasUsed": {
    "_hex": "0x5208"
  },
  "miner": "0x0037ce3d4B7f8729C8607D8D0248252Be68202c0",
  "extraData": "0x476574682f76312e302e312f77696e646f77732f676f312e342e32",
  "transactions": [
    {
      "hash": "0xaa7fe36452708233ef62f45b5324ef8e0c0559bf002d32cc76deeac54b0b5a6d",
      "blockHash": "0xde655e73677ded996b73f6219504c7bda44e9e4ea427be6b9d8819f2845663f0",
      "blockNumber": 58477,
      "transactionIndex": 0,
      "confirmations": null,
      "from": "0x00ec3B9E2e7Ba7FFBd1D77d100a29f8055C258Bb",
      "gasPrice": {
        "_hex": "0x2000000000"
      },
      "gasLimit": {
        "_hex": "0x985f6"
      },
      "to": "0x008B1D771AF0dCFd83C30D9D93f3B83CdF18BebA",
      "value": {
        "_hex": "0x4000000000"
      },
      "nonce": 2,
      "data": "0x",
      "r": "0x563ebf806c516313e0a0632a37d2c15f49510f1c74f9b81cb971ac53d6af5373",
      "s": "0x44d33dd6a02f1b13ffaf2178e1e5bb77b048719b0fd8082de974d7d71d5a2cd5",
      "v": 28,
      "creates": null,
      "raw": "0xf86a02852000000000830985f694008b1d771af0dcfd83c30d9d93f3b83cdf18beba854000000000801ca0563ebf806c516313e0a0632a37d2c15f49510f1c74f9b81cb971ac53d6af5373a044d33dd6a02f1b13ffaf2178e1e5bb77b048719b0fd8082de974d7d71d5a2cd5",
      "networkId": 0,
      "chainId": 0
    }
  ]
}