{
  "hash": "0x2c7ca9bce8c904024c239b0d3b08ff54da58b18f82648c2a36901d69349d8939",
  "parentHash": "0xb63bf07bf1c5555bd828665a789413e11d33607cf133cc920d1a3824f0d07b55",
  "number": 74270,
  "timestamp": 1439383338,
  "nonce": "0x877aa9abf262c52d",
  "difficulty": 2210769431449,
  "gasLimit": {
    "_hex": "0x2fefd8"
  },
  "gasUsed": {
    "_hex": "0x52080"
  },
  "miner": "0xe6A7a1d47ff21B6321162AEA7C6CB457D5476Bca",
  "extraData": "0x476574682f76312e302e312d38326566323666362f6c696e75782f676f312e34",
  "transactions": [
    {
      "hash": "0x3b53b95aed4924c0d9acd034909eb667508ba381e8dcc4c50feb03d3e616555b",
      "blockHash": "0x2c7ca9bce8c904024c239b0d3b08ff54da58b18f82648c2a36901d69349d8939",
      "blockNumber": 74270,
      "transactionIndex": 0,
      "confirmations": null,
      "from": "0xe6A7a1d47ff21B6321162AEA7C6CB457D5476Bca",
      "gasPrice": {
        "_hex": "0xe21339eeb"
      },
      "gasLimit": {
        "_hex": "0x55f0"
      },
      "to": "0x702bD0d370bBf0B97B66FE95578c62697c583393",
      "value": {
        "_hex": "0xd26128007f206260"
      },
      "nonce": 904,
      "data": "0x",
      "r": "0x4fa0493b92cc6d24cc110a9b110b40deee4456a191ac4e8b075387ee1e3bc4ab",
      "s": "0x1accfbd40687df0b46d975488ec52ac66e425ddc13d65ee802447a551ce89bc7",
      "v": 28,
      "creates": null,
      "raw": "0xf86e820388850e21339eeb8255f094702bd0d370bbf0b97b66fe95578c62697c58339388d26128007f206260801ca04fa0493b92cc6d24cc110a9b110b40deee4456a191ac4e8b075387ee1e3bc4aba01accfbd40687df0b46d975488ec52ac66e425ddc13d65ee802447a551ce89bc7",
      "networkId": 0,
      "chainId": 0
    },
    {
      "hash": "0x191676dc8244327785b94a1ef22b291d0fc230db25fc02aa9dfff5bf92be1f7e",
      "blockHash": "0x2c7ca9bce8c904024c239b0d3b08ff54da58b18f82648c2a36901d69349d8939",
      "blockNumber": 74270,
      "transactionIndex": 1,
      "confirmations": null,
      "from": "0xe6A7a1d47ff21B6321162AEA7C6CB457D5476Bca",
      "gasPrice": {
        "_hex": "0xe21339eeb"
      },
      "gasLimit": {
        "_hex": "0x55f0"
      },
      "to": "0x90891a4dAE53428129E5E2044f4677213EcCBB59",
      "value": {
        "_hex": "0xd8c6a6a0c4c378b8"
      },
      "nonce": 905,
      "data": "0x",
      "r": "0x65475296b4414dd15d7e86557f021d8e3a140ab0151d8cb46c921b4d2546a727",
      "s": "0x5e490e2c3b2a6cc2fc0c2b70623eb13728996d617663509e8676054d885bbc25",
      "v": 28,
      "creates": null,
      "raw": "0xf86e820389850e21339eeb8255f09490891a4dae53428129e5e2044f4677213eccbb5988d8c6a6a0c4c378b8801ca065475296b4414dd15d7e86557f021d8e3a140ab0151d8cb46c921b4d2546a727a05e490e2c3b2a6cc2fc0c2b70623eb13728996d617663509e8676054d885bbc25",
      "networkId": 0,
      "chainId": 0
    },
    {
      "hash": "0x00c9e03cb48fb88d3d7c853de372f8f24033bb92c33db4ad498223b08fae0f6e",
      "blockHash": "0x2c7ca9bce8c904024c239b0d3b08ff54da58b18f82648c2a36901d69349d8939",
      "blockNumber": 74270,
      "transactionIndex": 2,
      "confirmations": null,
      "from": "0xe6A7a1d47ff21B6321162AEA7C6CB457D5476Bca",
      "gasPrice": {
        "_hex": "0xe21339eeb"
      },
      "gasLimit": {
        "_hex": "0x55f0"
      },
      "to": "0xB7A755cBC2Bb4D94e844A9b1D1ff53420d836478",
      "value": {
        "_hex": "0xdb68934bd3a38ee0"
      },
      "nonce": 906,
      "data": "0x",
      "r": "0xdccd9552d9ce0880e862252f5e0e515a43798b82077293c572730e09b14db879",
      "s": "0x54020e1fcd5b8a48462b2da254f8c9c47341b858ba64184444eacb3d866651fc",
      "v": 27,
      "creates": null,
      "raw": "0xf86e82038a850e21339eeb8255f094b7a755cbc2bb4d94e844a9b1d1ff53420d83647888db68934bd3a38ee0801ba0dccd9552d9ce0880e862252f5e0e515a43798b82077293c572730e09b14db879a054020e1fcd5b8a48462b2da254f8c9c47341b858ba64184444eacb3d866651fc",
      "networkId": 0,
      "chainId": 0
    },
    {
      "hash": "0xb0bdccad26118be39a36bd4d200495ee9e16b96b17547d3a6a002cacddf4fa69",
      "blockHash": "0x2c7ca9bce8c904024c239b0d3b08ff54da58b18f82648c2a36901d69349d8939",
      "blockNumber": 74270,
      "transactionIndex": 3,
      "confirmations": null,
      "from": "0xe6A7a1d47ff21B6321162AEA7C6CB457D5476Bca",
      "gasPrice": {
        "_hex": "0xe21339eeb"
      },
      "gasLimit": {
        "_hex": "0x55f0"
      },
      "to": "0x46b29910396E1cF71678f81101334A180876E9b1",
      "value": {
        "_hex": "0xdd6f62e1797a3748"
      },
      "nonce": 907,
      "data": "0x",
      "r": "0x725abb3bd6f02d3335e4c0f802397ac87be6ef5d0d9d9f4c4ba184a54995a914",
      "s": "0x25c734821103e0a59d5155e7118b68a351400d9d6ee03eb5a454e1299eb4e99b",
      "v": 27,
      "creates": null,
      "raw": "0xf86e82038b850e21339eeb8255f09446b29910396e1cf71678f81101334a180876e9b188dd6f62e1797a3748801ba0725abb3bd6f02d3335e4c0f802397ac87be6ef5d0d9d9f4c4ba184a54995a914a025c734821103e0a59d5155e7118b68a351400d9d6ee03eb5a454e1299eb4e99b",
      "networkId": 0,
      "chainId": 0
    },
    {
      "hash": "0x5bc8ce53912b42533f0de34ec550d668ad0bb91e596b5e7cc3e608aa63d0f0d7",
      "blockHash": "0x2c7ca9bce8c904024c239b0d3b08ff54da58b18f82648c2a36901d69349d8939",
      "blockNumber": 74270,
      "transactionIndex": 4,
      "confirmations": null,
      "from": "0xe6A7a1d47ff21B6321162AEA7C6CB457D5476Bca",
      "gasPrice": {
        "_hex": "0xe21339eeb"
      },
      "gasLimit": {
        "_hex": "0x55f0"
      },
      "to": "0xce8ff6d2027CA9837abb85FD515752151b6C7d0A",
      "value": {
        "_hex": "0xde80dd89d7dc0ef8"
      },
      "nonce": 908,
      "data": "0x",
      "r": "0x146d04975ba15bb1f8b3ff7fbb1cc955763bcef56698a7c993ea138c209a4418",
      "s": "0x24bbe17d4e22729c315861b51eb6029c370d6011e755399f907ef9b8e03c7126",
      "v": 28,
      "creates": null,
      "raw": "0xf86e82038c850e21339eeb8255f094ce8ff6d2027ca9837abb85fd515752151b6c7d0a88de80dd89d7dc0ef8801ca0146d04975ba15bb1f8b3ff7fbb1cc955763bcef56698a7c993ea138c209a4418a024bbe17d4e22729c315861b51eb6029c370d6011e755399f907ef9b8e03c7126",
      "networkId": 0,
      "chainId": 0
    },
    {
      "hash": "0x35782d4a2cac46af995ddc3e244b51775fe26fd06db85fd3eb070340becd54e1",
      "blockHash": "0x2c7ca9bce8c904024c239b0d3b08ff54da58b18f82648c2a36901d69349d8939",
      "blockNumber": 74270,
      "transactionIndex": 5,
      "confirmations": null,
      "from": "0xe6A7a1d47ff21B6321162AEA7C6CB457D5476Bca",
      "gasPrice": {
        "_hex": "0xe21339eeb"
      },
      "gasLimit": {
        "_hex": "0x55f0"
      },
      "to": "0xc7704Fc5c51C7a5f1a6574b0014b58C8915BA55C",
      "value": {
        "_hex": "0xe5f130390700a7b0"
      },
      "nonce": 909,
      "data": "0x",
      "r": "0xed75250f7d5cca43e23c0c25bc916ffe8ed8165d2692ab443cd7e2af459e3f45",
      "s": "0x68a7175a6c6285248c3c4986e2393d4314fec4786fa0ecdd7309f93509d46063",
      "v": 28,
      "creates": null,
      "raw": "0xf86e82038d850e21339eeb8255f094c7704fc5c51c7a5f1a6574b0014b58c8915ba55c88e5f130390700a7b0801ca0ed75250f7d5cca43e23c0c25bc916ffe8ed8165d2692ab443cd7e2af459e3f45a068a7175a6c6285248c3c4986e2393d4314fec4786fa0ecdd7309f93509d46063",
      "networkId": 0,
      "chainId": 0
    },
    {
      "hash": "0xd5439c017e57827da9b8b8b78aaa51b07f08ab986c4353eac2a129d6d8c1f536",
      "blockHash": "0x2c7ca9bce8c904024c239b0d3b08ff54da58b18f82648c2a36901d69349d8939",
      "blockNumber": 74270,
      "transactionIndex": 6,
      "confirmations": null,
      "from": "0xe6A7a1d47ff21B6321162AEA7C6CB457D5476Bca",
      "gasPrice": {
        "_hex": "0xe21339eeb"
      },
      "gasLimit": {
        "_hex": "0x55f0"
      },
      "to": "0xaa71fa80d26F718E6A3c87e41D817b8D10944a63",
      "value": {
        "_hex": "0xe98f11002681c968"
      },
      "nonce": 910,
      "data": "0x",
      "r": "0x2375a17ca7cc9772951c6abb26c58500879015eec23a653022dbba9700b630f6",
      "s": "0x2850ebcb4f1a585160eecc1d2a28c18121458b4c5afb57bc8abe9a6ada839434",
      "v": 28,
      "creates": null,
      "raw": "0xf86e82038e850e21339eeb8255f094aa71fa80d26f718e6a3c87e41d817b8d10944a6388e98f11002681c968801ca02375a17ca7cc9772951c6abb26c58500879015eec23a653022dbba9700b630f6a02850ebcb4f1a585160eecc1d2a28c18121458b4c5afb57bc8abe9a6ada839434",
      "networkId": 0,
      "chainId": 0
    },
    {
      "hash": "0xfd901ad03ee458b0a6bc79cc3ee8fbce1ca2d8e41692cb872267ff05e48dd03f",
      "blockHash": "0x2c7ca9bce8c904024c239b0d3b08ff54da58b18f82648c2a36901d69349d8939",
      "blockNumber": 74270,
      "transactionIndex": 7,
      "confirmations": null,
      "from": "0xe6A7a1d47ff21B6321162AEA7C6CB457D5476Bca",
      "gasPrice": {
        "_hex": "0xe21339eeb"
      },
      "gasLimit": {
        "_hex": "0x55f0"
      },
      "to": "0x4b0424c09BaC4Ee3f4376f1D3fA354E8Cb2D3171",
      "value": {
        "_hex": "0xf20216ab686eee88"
      },
      "nonce": 911,
      "data": "0x",
      "r": "0x0527fee54db9fc8cfe32948471543c5db7620ab03e55e923dbd1b246dcf5b460",
      "s": "0x08930b7005505e6177759546b4680caac611ba9738e172619b3d376d2198063d",
      "v": 28,
      "creates": null,
      "raw": "0xf86e82038f850e21339eeb8255f0944b0424c09bac4ee3f4376f1d3fa354e8cb2d317188f20216ab686eee88801ca00527fee54db9fc8cfe32948471543c5db7620ab03e55e923dbd1b246dcf5b460a008930b7005505e6177759546b4680caac611ba9738e172619b3d376d2198063d",
      "networkId": 0,
      "chainId": 0
    },
    {
      "hash": "0x76946e9e8520a800ee1c0466c360ce18cee351f22274b67eff25e51725f241dc",
      "blockHash": "0x2c7ca9bce8c904024c239b0d3b08ff54da58b18f82648c2a36901d69349d8939",
      "blockNumber": 74270,
      "transactionIndex": 8,
      "confirmations": null,
      "from": "0xe6A7a1d47ff21B6321162AEA7C6CB457D5476Bca",
      "gasPrice": {
        "_hex": "0xe21339eeb"
      },
      "gasLimit": {
        "_hex": "0x55f0"
      },
      "to": "0xF11940EA05aA9CC3F13aCF5C5cA6EDCF312E3Aec",
      "value": {
        "_hex": "0xf3c309ec1f2cd4f0"
      },
      "nonce": 912,
      "data": "0x",
      "r": "0xead439bf4347cae4c465dc380cd35f8ca04e23b61efe72c4997d562a0d5b6d6a",
      "s": "0x7bf5b5993b0bc4b647648316883964491238c551d19739cba98aa08ddfb4dcaa",
      "v": 28,
      "creates": null,
      "raw": "0xf86e820390850e21339eeb8255f094f11940ea05aa9cc3f13acf5c5ca6edcf312e3aec88f3c309ec1f2cd4f0801ca0ead439bf4347cae4c465dc380cd35f8ca04e23b61efe72c4997d562a0d5b6d6aa07bf5b5993b0bc4b647648316883964491238c551d19739cba98aa08ddfb4dcaa",
      "networkId": 0,
      "chainId": 0
    },
    {
      "hash": "0xed4f99748f99f290ebd80ab9fd3ecde1308b0bfa65101b27a10ff29ba4c83f33",
      "blockHash": "0x2c7ca9bce8c904024c239b0d3b08ff54da58b18f82648c2a36901d69349d8939",
      "blockNumber": 74270,
      "transactionIndex": 9,
      "confirmations": null,
      "from": "0xe6A7a1d47ff21B6321162AEA7C6CB457D5476Bca",
      "gasPrice": {
        "_hex": "0xe21339eeb"
      },
      "gasLimit": {
        "_hex": "0x55f0"
      },
      "to": "0x86d3856ad0105B9d4199936c1fd203664BA325dC",
      "value": {
        "_hex": "0xfdc32c1a398b96d8"
      },
      "nonce": 913,
      "data": "0x",
      "r": "0xec6797908096d0a8fcec2eed0600e97b49f7ac72c2d07c0cbfbc063f551423cf",
      "s": "0x78997e291a93f0f9405bbc8f3514b1d2e4984958ebf2b88b36fc59966d8a40a2",
      "v": 27,
      "creates": null,
      "raw": "0xf86e820391850e21339eeb8255f09486d3856ad0105b9d4199936c1fd203664ba325dc88fdc32c1a398b96d8801ba0ec6797908096d0a8fcec2eed0600e97b49f7ac72c2d07c0cbfbc063f551423cfa078997e291a93f0f9405bbc8f3514b1d2e4984958ebf2b88b36fc59966d8a40a2",
      "networkId": 0,
      "chainId": 0
    },
    {
      "hash": "0x559cc1d5cdf87f5db4903f2a02868596a03c9b89f749cce6db1993d9ae82a88d",
      "blockHash": "0x2c7ca9bce8c904024c239b0d3b08ff54da58b18f82648c2a36901d69349d8939",
      "blockNumber": 74270,
      "transactionIndex": 10,
      "confirmations": null,
      "from": "0xe6A7a1d47ff21B6321162AEA7C6CB457D5476Bca",
      "gasPrice": {
        "_hex": "0xe21339eeb"
      },
      "gasLimit": {
        "_hex": "0x55f0"
      },
      "to": "0x9Fa88512e871481291d0416CEFf5B3764f840aED",
      "value": {
        "_hex": "0x118a4f98c74bd3018"
      },
      "nonce": 914,
      "data": "0x",
      "r": "0x9572cc9f1909d647103912d73064e485d867276a1a3d8e513a5846d8578fd86b",
      "s": "0x1ffa6dc22945b9c648d0a0e7ee3216e26388eb8d2bdcb56ac2bc034f99d2dbde",
      "v": 27,
      "creates": null,
      "raw": "0xf86f820392850e21339eeb8255f0949fa88512e871481291d0416ceff5b3764f840aed890118a4f98c74bd3018801ba09572cc9f1909d647103912d73064e485d867276a1a3d8e513a5846d8578fd86ba01ffa6dc22945b9c648d0a0e7ee3216e26388eb8d2bdcb56ac2bc034f99d2dbde",
      "networkId": 0,
      "chainId": 0
    },
    {
      "hash": "0x1cb34855fe1dcd066240ca7399c3b8bf9608c490b218f0c418f68027379fe93b",
      "blockHash": "0x2c7ca9bce8c904024c239b0d3b08ff54da58b18f82648c2a36901d69349d8939",
      "blockNumber": 74270,
      "transactionIndex": 11,
      "confirmations": null,
      "from": "0xe6A7a1d47ff21B6321162AEA7C6CB457D5476Bca",
      "gasPrice": {
        "_hex": "0xe21339eeb"
      },
      "gasLimit": {
        "_hex": "0x55f0"
      },
      "to": "0x18883522e2679aA9b41E0fA688F20c3802897525",
      "value": {
        "_hex": "0x11d18682f904b6fa0"
      },
      "nonce": 915,
      "data": "0x",
      "r": "0x50f5a069596def70c315a5c5bcd0faba29b0bf5c48975c3c4db19ab6e2839c3a",
      "s": "0x36ae244b60b7f9a1b24b996f828c1901dca9b99aeaa536a555350997882ae43d",
      "v": 27,
      "creates": null,
      "raw": "0xf86f820393850e21339eeb8255f09418883522e2679aa9b41e0fa688f20c380289752589011d18682f904b6fa0801ba050f5a069596def70c315a5c5bcd0faba29b0bf5c48975c3c4db19ab6e2839c3aa036ae244b60b7f9a1b24b996f828c1901dca9b99aeaa536a555350997882ae43d",
      "networkId": 0,
      "chainId": 0
    },
    {
      "hash": "0xab03b6da534d91f96c4e2e82410205d0fc917b7b3eaf887f2a007223b18c6074",
      "blockHash": "0x2c7ca9bce8c904024c239b0d3b08ff54da58b18f82648c2a36901d69349d8939",
      "blockNumber": 74270,
      "transactionIndex": 12,
      "confirmations": null,
      "from": "0xe6A7a1d47ff21B6321162AEA7C6CB457D5476Bca",
      "gasPrice": {
        "_hex": "0xe21339eeb"
      },
      "gasLimit": {
        "_hex": "0x55f0"
      },
      "to": "0xaC49eeb6a55aF554D86d37b4A4eA7940010866E1",
      "value": {
        "_hex": "0x11d79421995feaf78"
      },
      "nonce": 916,
      "data": "0x",
      "r": "0x6021fe5b5659c077c4638d32a8b47103ae614e85e615ef8c6e747354a043467e",
      "s": "0x74815f9945c6fb5cab6d9916252d75dd6c7bf4ec02af66a8a2359809b070ebd5",
      "v": 28,
      "creates": null,
      "raw": "0xf86f820394850e21339eeb8255f094ac49eeb6a55af554d86d37b4a4ea7940010866e189011d79421995feaf78801ca06021fe5b5659c077c4638d32a8b47103ae614e85e615ef8c6e747354a043467ea074815f9945c6fb5cab6d9916252d75dd6c7bf4ec02af66a8a2359809b070ebd5",
      "networkId": 0,
      "chainId": 0
    },
    {
      "hash": "0x411608cfd90f2b6afe511e33ba710e1cc18c107de9b03c46a460b9dd679da3f9",
      "blockHash": "0x2c7ca9bce8c904024c239b0d3b08ff54da58b18f82648c2a36901d69349d8939",
      "blockNumber": 74270,
      "transactionIndex": 13,
      "confirmations": null,
      "from": "0xe6A7a1d47ff21B6321162AEA7C6CB457D5476Bca",
      "gasPrice": {
        "_hex": "0xe21339eeb"
      },
      "gasLimit": {
        "_hex": "0x55f0"
      },
      "to": "0x90fba3C13F19F8cf72A3Bb9EE63C8f728F548654",
      "value": {
        "_hex": "0x123bc4a928b946e90"
      },
      "nonce": 917,
      "data": "0x",
      "r": "0x87f0ad653e8fd785e857b5a2482bcac701a727877cc908ac299c7c4a1c10cbdc",
      "s": "0x538a80095f9c4f099d6b85252ea569a6df20aecd94f7fd84578cded425449458",
      "v": 28,
      "creates": null,
      "raw": "0xf86f820395850e21339eeb8255f09490fba3c13f19f8cf72a3bb9ee63c8f728f548654890123bc4a928b946e90801ca087f0ad653e8fd785e857b5a2482bcac701a727877cc908ac299c7c4a1c10cbdca0538a80095f9c4f099d6b85252ea569a6df20aecd94f7fd84578cded425449458",
      "networkId": 0,
      "chainId": 0
    },
    {
      "hash": "0x5ecbb157d3e4805e1a2ebb0166dd87ec523a9a7eab5476fd53b1dc02c569a948",
      "blockHash": "0x2c7ca9bce8c904024c239b0d3b08ff54da58b18f82648c2a36901d69349d8939",
      "blockNumber": 74270,
      "transactionIndex": 14,
      "confirmations": null,
      "from": "0xe6A7a1d47ff21B6321162AEA7C6CB457D5476Bca",
      "gasPrice": {
        "_hex": "0xe21339eeb"
      },
      "gasLimit": {
        "_hex": "0x55f0"
      },
      "to": "0x96811Ad897894eC178872117C8BF2f03971A393B",
      "value": {
        "_hex": "0x1247d9a2f27cf70e0"
      },
      "nonce": 918,
      "data": "0x",
      "r": "0xa29260f64e0b73449677318641c85bb7bd2b3073fb244d0cd7c3e080f13a8109",
      "s": "0x7e42460f39d96f7cccb4fe67d2785a37f68a30c8c6c7c9821b7e96ae448ae8a0",
      "v": 27,
      "creates": null,
      "raw": "0xf86f820396850e21339eeb8255f09496811ad897894ec178872117c8bf2f03971a393b8901247d9a2f27cf70e0801ba0a29260f64e0b73449677318641c85bb7bd2b3073fb244d0cd7c3e080f13a8109a07e42460f39d96f7cccb4fe67d2785a37f68a30c8c6c7c9821b7e96ae448ae8a0",
      "networkId": 0,
      "chainId": 0
    },
    {
      "hash": "0xd40756382bf20aa12aa6a10e8fa43486805706dd01bcec486a8e2fca50cd9cf1",
      "blockHash": "0x2c7ca9bce8c904024c239b0d3b08ff54da58b18f82648c2a36901d69349d8939",
      "blockNumber": 74270,
      "transactionIndex": 15,
      "confirmations": null,
      "from": "0xe6A7a1d47ff21B6321162AEA7C6CB457D5476Bca",
      "gasPrice": {
        "_hex": "0xe21339eeb"
      },
      "gasLimit": {
        "_hex": "0x55f0"
      },
      "to": "0xAd941B747c499E3ad5728C285446813783A33564",
      "value": {
        "_hex": "0x12b917fafb6aa9170"
      },
      "nonce": 919,
      "data": "0x",
      "r": "0x52fe062440249b2afc2d59bba956de0eef892d6955386d1b8c583a85eceb525f",
      "s": "0x5862382748915d02278f061cc7ee2938cb4093dd331ea272027fe85f458b6f93",
      "v": 28,
      "creates": null,
      "raw": "0xf86f820397850e21339eeb8255f094ad941b747c499e3ad5728c285446813783a3356489012b917fafb6aa9170801ca052fe062440249b2afc2d59bba956de0eef892d6955386d1b8c583a85eceb525fa05862382748915d02278f061cc7ee2938cb4093dd331ea272027fe85f458b6f93",
      "networkId": 0,
      "chainId": 0
    }
  ]
}