{
  "hash": "0x468f648523be45ff1ebd7773069798a842e68a87ae2239928eccb1d475f02a24",
  "parentHash": "0x2bc11a9a756752721651967edebf1d7c420e7b0023960e8c947c59b7287b74af",
  "number": 107589,
  "timestamp": 1439925171,
  "nonce": "0x494c491a70207e0e",
  "difficulty": 4394205330359,
  "gasLimit": {
    "_hex": "0x2fefd8"
  },
  "gasUsed": {
    "_hex": "0xfae0"
  },
  "miner": "0xf8E0CA3Ed80bd541b94BEdCf259e8CF2141A9523",
  "extraData": "0x476574682f76312e302e312f77696e646f77732f676f312e342e32",
  "transactions": [
    {
      "hash": "0x3580ab249d6b4ec7f2c65c9e2aa3e2e017f551fa6d52668fb68568ecf544be58",
      "blockHash": "0x468f648523be45ff1ebd7773069798a842e68a87ae2239928eccb1d475f02a24",
      "blockNumber": 107589,
      "transactionIndex": 0,
      "confirmations": null,
      "from": "0x98BF4Af3810B842387DB70c14d46099626003d10",
      "gasPrice": {
        "_hex": "0xdde00e1c9"
      },
      "gasLimit": {
        "_hex": "0x55f0"
      },
      "to": "0x2910543Af39abA0Cd09dBb2D50200b3E800A63D2",
      "value": {
        "_hex": "0xd8c7de7f18e970cb40"
      },
      "nonce": 1,
      "data": "0x454e4b374535575538",
      "r": "0x595b461cdd243f974f994fb3a7f507e2784fa1fa7ac79ee0919ba0dca2f6a3f0",
      "s": "0x19d58d7407190c8a820c218aa4f14af87c60b0c28e652ece754978fa13cbdf36",
      "v": 28,
      "creates": null,
      "raw": "0xf87601850dde00e1c98255f0942910543af39aba0cd09dbb2d50200b3e800a63d289d8c7de7f18e970cb4089454e4b3745355755381ca0595b461cdd243f974f994fb3a7f507e2784fa1fa7ac79ee0919ba0dca2f6a3f0a019d58d7407190c8a820c218aa4f14af87c60b0c28e652ece754978fa13cbdf36",
      "networkId": 0,
      "chainId": 0
    },
    {
      "hash": "0xdefe9559c8e30a7ca33bcace9b238d39e2628e67399f1535d03289e6a4462832",
      "blockHash": "0x468f648523be45ff1ebd7773069798a842e68a87ae2239928eccb1d475f02a24",
      "blockNumber": 107589,
      "transactionIndex": 1,
      "confirmations": null,
      "from": "0x32Be343B94f860124dC4fEe278FDCBD38C102D88",
      "gasPrice": {
        "_hex": "0xd2f879d31"
      },
      "gasLimit": {
        "_hex": "0x5208"
      },
      "to": "0x031778CE7A0BB1Aac0f29615378Fb240ed41c51b",
      "value": {
        "_hex": "0xdc1074f42a2dc00"
      },
      "nonce": 1227,
      "data": "0x",
      "r": "0x8302fd34e9b01d25a17be770feee971ae53e321c435c3d46ea23c321132a3907",
      "s": "0x16f45e7ce756b27df3467b67568fe631cdce9a6399fd9ee340cc5e039a3e6364",
      "v": 27,
      "creates": null,
      "raw": "0xf86e8204cb850d2f879d3182520894031778ce7a0bb1aac0f29615378fb240ed41c51b880dc1074f42a2dc00801ba08302fd34e9b01d25a17be770feee971ae53e321c435c3d46ea23c321132a3907a016f45e7ce756b27df3467b67568fe631cdce9a6399fd9ee340cc5e039a3e6364",
      "networkId": 0,
      "chainId": 0
    },
    {
      "hash": "0x100a3d7813523ece23395396a4725ac809ddec43577cdd3ea28118c02caeb163",
      "blockHash": "0x468f648523be45ff1ebd7773069798a842e68a87ae2239928eccb1d475f02a24",
      "blockNumber": 107589,
      "transactionIndex": 2,
      "confirmations": null,
      "from": "0xA2fe5fAEA931A4Fd9CAc31304072f3673770eD40",
      "gasPrice": {
        "_hex": "0xd17d8c6bc"
      },
      "gasLimit": {
        "_hex": "0x55f0"
      },
      "to": "0x2910543Af39abA0Cd09dBb2D50200b3E800A63D2",
      "value": {
        "_hex": "0x4563918244f40000"
      },
      "nonce": 2,
      "data": "0x454e48313542575a30",
      "r": "0x393106d7feb7f0505913d88dee96b67e8f3a7105fbdc65efd226fdd5d734cfa9",
      "s": "0x00f09f7a123d9cf162dea7173f52de3d24536f48e06e9d1b7052f38bbe406fd2",
      "v": 27,
      "creates": null,
      "raw": "0xf87402850d17d8c6bc8255f0942910543af39aba0cd09dbb2d50200b3e800a63d2884563918244f4000089454e48313542575a301ba0393106d7feb7f0505913d88dee96b67e8f3a7105fbdc65efd226fdd5d734cfa99ff09f7a123d9cf162dea7173f52de3d24536f48e06e9d1b7052f38bbe406fd2",
      "networkId": 0,
      "chainId": 0
    }
  ]
}