{
  "hash": "0xf926b7d27f1556d31fc5906b0db973fdf46ef076cc421ac27a8439cf07d55b42",
  "parentHash": "0xe16b2244d429c89c2a24041fa33ef885a6068b25a3c2b41cd0657810c1bac794",
  "number": 74932,
  "timestamp": 1439394851,
  "nonce": "0x4d331f35b1b26a63",
  "difficulty": 2191251045138,
  "gasLimit": {
    "_hex": "0x2fefd8"
  },
  "gasUsed": {
    "_hex": "0x54c8"
  },
  "miner": "0xf8E0CA3Ed80bd541b94BEdCf259e8CF2141A9523",
  "extraData": "0x476574682f76312e302e312f77696e646f77732f676f312e342e32",
  "transactions": [
    {
      "hash": "0x118b0f3778ad08df9d27938be4edb6bec0be91915a9dc1c6f097fcbddbd697e9",
      "blockHash": "0xf926b7d27f1556d31fc5906b0db973fdf46ef076cc421ac27a8439cf07d55b42",
      "blockNumber": 74932,
      "transactionIndex": 0,
      "confirmations": null,
      "from": "0x4BD5f0Ee173C81d42765154865EE69361b6aD189",
      "gasPrice": {
        "_hex": "0x746a528800"
      },
      "gasLimit": {
        "_hex": "0x5dc4"
      },
      "to": "0x2910543Af39abA0Cd09dBb2D50200b3E800A63D2",
      "value": {
        "_hex": "0x1b1ae4d6e2ef500000"
      },
      "nonce": 21,
      "data": "0x0000000000000000000000000000000000000000000000454e465631595a3552",
      "r": "0x636654afb652825132fc3df9133bcf480d25efd2dc9f9cd31631da7f37516804",
      "s": "0x21091beb01911a83d17cee3e95b48f69e8d3e336bede6b103a7047733b411734",
      "v": 28,
      "creates": null,
      "raw": "0xf88d1585746a528800825dc4942910543af39aba0cd09dbb2d50200b3e800a63d2891b1ae4d6e2ef500000a00000000000000000000000000000000000000000000000454e465631595a35521ca0636654afb652825132fc3df9133bcf480d25efd2dc9f9cd31631da7f37516804a021091beb01911a83d17cee3e95b48f69e8d3e336bede6b103a7047733b411734",
      "networkId": 0,
      "chainId": 0
    }
  ]
}