{
  "hash": "0xac99f451c332d0ffe86bbfd7ef4fee2c5d1f8b315c3e4112c0124011007f8a47",
  "parentHash": "0xc689c1cff3d7102d1c1d3d7a192de55041a3244b719a933fc5369051b37c3f99",
  "number": 71844,
  "timestamp": 1439342818,
  "nonce": "0x6b2ef2d67cb1bb45",
  "difficulty": 2168636359345,
  "gasLimit": {
    "_hex": "0x2fefd8"
  },
  "gasUsed": {
    "_hex": "0x15ce6"
  },
  "miner": "0x9746c7e1ef2bd21FF3997fa467593a89cb852BD0",
  "extraData": "0x476574682f76312e302e312f77696e646f77732f676f312e342e32",
  "transactions": [
    {
      "hash": "0x90355c524283dd7b07e4b3524e6d2c50500d2cbd17170fc873e36c4a421d292e",
      "blockHash": "0xac99f451c332d0ffe86bbfd7ef4fee2c5d1f8b315c3e4112c0124011007f8a47",
      "blockNumber": 71844,
      "transactionIndex": 0,
      "confirmations": null,
      "from": "0x17580B766f7453525ca4C6A88b01b50570EA088C",
      "gasPrice": {
        "_hex": "0xdb1860030"
      },
      "gasLimit": {
        "_hex": "0x61a80"
      },
      "to": "0x5Fe5B7546D1628f7348B023A0393de1FC825A4fD",
      "value": {
        "_hex": "0x29a2241af62c0000"
      },
      "nonce": 266,
      "data": "0xb595b8b50000000000000000000000000000000000000000000000000000000000000000",
      "r": "0x32ceb56a46b797eae522f6593d51ef063052176b6001aabfada9ab5ea35cecc6",
      "s": "0x2159f4a9d086edd24ed071e8fa0dff2a2c16cf273eb53b10cafae15abfcaa0cd",
      "v": 27,
      "creates": null,
      "raw": "0xf89382010a850db186003083061a80945fe5b7546d1628f7348b023a0393de1fc825a4fd8829a2241af62c0000a4b595b8b500000000000000000000000000000000000000000000000000000000000000001ba032ceb56a46b797eae522f6593d51ef063052176b6001aabfada9ab5ea35cecc6a02159f4a9d086edd24ed071e8fa0dff2a2c16cf273eb53b10cafae15abfcaa0cd",
      "networkId": 0,
      "chainId": 0
    },
    {
      "hash": "0x45c0a889cbaa090edb9214ab928b538ede3d5dfc178b61572ae5f2bca8386e13",
      "blockHash": "0xac99f451c332d0ffe86bbfd7ef4fee2c5d1f8b315c3e4112c0124011007f8a47",
      "blockNumber": 71844,
      "transactionIndex": 1,
      "confirmations": null,
      "from": "0x17580B766f7453525ca4C6A88b01b50570EA088C",
      "gasPrice": {
        "_hex": "0xdb1860030"
      },
      "gasLimit": {
        "_hex": "0x61a80"
      },
      "to": "0x5Fe5B7546D1628f7348B023A0393de1FC825A4fD",
      "value": {
        "_hex": "0x29a2241af62c0000"
      },
      "nonce": 267,
      "data": "0xb595b8b50000000000000000000000000000000000000000000000000000000000000000",
      "r": "0x9628304659f9025ced958879dd5b328ebbec73884de848b3612fc815cc3368bb",
      "s": "0x717f554fb0c6706a79afe3a57a9762619f4b1c49791af33319219d2fe4d1a68b",
      "v": 28,
      "creates": null,
      "raw": "0xf89382010b850db186003083061a80945fe5b7546d1628f7348b023a0393de1fc825a4fd8829a2241af62c0000a4b595b8b500000000000000000000000000000000000000000000000000000000000000001ca09628304659f9025ced958879dd5b328ebbec73884de848b3612fc815cc3368bba0717f554fb0c6706a79afe3a57a9762619f4b1c49791af33319219d2fe4d1a68b",
      "networkId": 0,
      "chainId": 0
    }
  ]
}