{
  "hash": "0x1225d18668b292da741f4627ff5599c9c4fc1eb01e91e0bac023cf5fb63a7f3a",
  "parentHash": "0x25f2bd76e2ca0bd3badc3412a8d06e409a41fdb7a93b1d188eb44fecb4ec798b",
  "number": 78494,
  "timestamp": 1439454623,
  "nonce": "0x6451217ec3f56233",
  "difficulty": 2295436483590,
  "gasLimit": {
    "_hex": "0x2fefd8"
  },
  "gasUsed": {
    "_hex": "0x85c85"
  },
  "miner": "0xEF247E639d49461D25F57e9362CadE3120910Ce0",
  "extraData": "0x476574682f76312e302e312f6c696e75782f676f312e342e32",
  "transactions": [
    {
      "hash": "0x8039871e13acb0a23bd36e2b3ca1af2a83f02da635cd136615e29682240a6df6",
      "blockHash": "0x1225d18668b292da741f4627ff5599c9c4fc1eb01e91e0bac023cf5fb63a7f3a",
      "blockNumber": 78494,
      "transactionIndex": 0,
      "confirmations": null,
      "from": "0x008FC7CBAdFFbD0D7fe44F8DFD60a79d721a1c9C",
      "gasPrice": {
        "_hex": "0xda143c537"
      },
      "gasLimit": {
        "_hex": "0xf4240"
      },
      "to": null,
      "value": {
        "_hex": "0x0"
      },
      "nonce": 25,
      "data": "0x606060405260008054600160a060020a0319908116339081178355600180549092161790554260025566038d7ea4c68000600355610258600455600580556007556008805460ff191690556006805461ffff19169055610561806100646000396000f300606060405236156100825760e060020a60003504631fc3a9a781146100c2578063237297a41461011757806332983c9e1461019f57806341c0e1b5146102075780634e71d92d1461022e57806362287c311461037157806363898988146103db57806371a2ee52146103ed578063cbb6836914610401578063efb98bcf14610459575b61047d600454600254014210156100c05760035434106100c0576001805473ffffffffffffffffffffffffffffffffffffffff191633179055426002555b565b61047f6000606460056000505430600160a060020a031663638989886040518160e060020a0281526004018090506020604051808303816000876161da5a03f1156100025750505060405151020490506103ea565b61047f600030600160a060020a031663efb98bcf6040518160e060020a0281526004018090506020604051808303816000876161da5a03f1156100025750505060405151600014801561016d575060065460ff16155b156104f4576104b85b60085460ff1615156100c0576008805430600160a060020a03163160075560ff19166001179055565b61047f600030600160a060020a031663efb98bcf6040518160e060020a0281526004018090506020604051808303816000876161da5a03f115610002575050506040515160001480156101fa5750600654610100900460ff16155b1561054857610500610176565b61047d600054600160a060020a03338116911614156100c057600054600160a060020a0316ff5b61047f60006000600030600160a060020a031663efb98bcf6040518160e060020a0281526004018090506020604051808303816000876161da5a03f1156100025750505060405151600014156104ae57600160009054906101000a9004600160a060020a0316600160a060020a0316600030600160a060020a031663cbb683696040518160e060020a0281526004018090506020604051808303816000876161da5a03f1156100025750506040518051915082818181858883f183547f1fc3a9a7000000000000000000000000000000000000000000000000000000008352604051919750600160a060020a03908116955030169250631fc3a9a791600481810192602092909190829003018187876161da5a03f1156100025750506040518051915082818181858883f19350505050905081801561036a5750805b92506104b3565b61047f600435600154600090600160a060020a0383811691161480156103d5575030600160a060020a031663efb98bcf6040518160e060020a0281526004018090506020604051808303816000876161da5a03f11561000257505050604051516000145b92915050565b61047f30600160a060020a0316315b90565b610491600154600160a060020a03166103ea565b61047f6000606460056000505460640330600160a060020a031663638989886040518160e060020a0281526004018090506020604051808303816000876161da5a03f1156100025750505060405151020490506103ea565b61047f600454600254600091014210156105595750600454600254429101036103ea565b005b60408051918252519081900360200190f35b60408051600160a060020a03929092168252519081900360200190f35b600092505b505090565b600554600754604051600154600160a060020a031692600092606491820302049082818181858883f16006805460ff1916919091179055505050505b5060065460ff166103ea565b60008054600554600754604051600160a060020a03939093169392606491909202049082818181858883f1600680546101009290920261ff0019909216919091179055505050505b50600654610100900460ff166103ea565b5060006103ea56",
      "r": "0xe9f4b8fd5f8d94d5559901b51b4d04d2db55389402886bbf5100b5db6c604fc1",
      "s": "0x10a243f1369e603e65559eb4d3f84945ff4690360c30f939414b7177475d73e2",
      "v": 27,
      "creates": "0xC2D72e968Df598134529475769B6C8Befe2d4786",
      "raw": "0xf9061819850da143c537830f42408080b905c5606060405260008054600160a060020a0319908116339081178355600180549092161790554260025566038d7ea4c68000600355610258600455600580556007556008805460ff191690556006805461ffff19169055610561806100646000396000f300606060405236156100825760e060020a60003504631fc3a9a781146100c2578063237297a41461011757806332983c9e1461019f57806341c0e1b5146102075780634e71d92d1461022e57806362287c311461037157806363898988146103db57806371a2ee52146103ed578063cbb6836914610401578063efb98bcf14610459575b61047d600454600254014210156100c05760035434106100c0576001805473ffffffffffffffffffffffffffffffffffffffff191633179055426002555b565b61047f6000606460056000505430600160a060020a031663638989886040518160e060020a0281526004018090506020604051808303816000876161da5a03f1156100025750505060405151020490506103ea565b61047f600030600160a060020a031663efb98bcf6040518160e060020a0281526004018090506020604051808303816000876161da5a03f1156100025750505060405151600014801561016d575060065460ff16155b156104f4576104b85b60085460ff1615156100c0576008805430600160a060020a03163160075560ff19166001179055565b61047f600030600160a060020a031663efb98bcf6040518160e060020a0281526004018090506020604051808303816000876161da5a03f115610002575050506040515160001480156101fa5750600654610100900460ff16155b1561054857610500610176565b61047d600054600160a060020a03338116911614156100c057600054600160a060020a0316ff5b61047f60006000600030600160a060020a031663efb98bcf6040518160e060020a0281526004018090506020604051808303816000876161da5a03f1156100025750505060405151600014156104ae57600160009054906101000a9004600160a060020a0316600160a060020a0316600030600160a060020a031663cbb683696040518160e060020a0281526004018090506020604051808303816000876161da5a03f1156100025750506040518051915082818181858883f183547f1fc3a9a7000000000000000000000000000000000000000000000000000000008352604051919750600160a060020a03908116955030169250631fc3a9a791600481810192602092909190829003018187876161da5a03f1156100025750506040518051915082818181858883f19350505050905081801561036a5750805b92506104b3565b61047f600435600154600090600160a060020a0383811691161480156103d5575030600160a060020a031663efb98bcf6040518160e060020a0281526004018090506020604051808303816000876161da5a03f11561000257505050604051516000145b92915050565b61047f30600160a060020a0316315b90565b610491600154600160a060020a03166103ea565b61047f6000606460056000505460640330600160a060020a031663638989886040518160e060020a0281526004018090506020604051808303816000876161da5a03f1156100025750505060405151020490506103ea565b61047f600454600254600091014210156105595750600454600254429101036103ea565b005b60408051918252519081900360200190f35b60408051600160a060020a03929092168252519081900360200190f35b600092505b505090565b600554600754604051600154600160a060020a031692600092606491820302049082818181858883f16006805460ff1916919091179055505050505b5060065460ff166103ea565b60008054600554600754604051600160a060020a03939093169392606491909202049082818181858883f1600680546101009290920261ff0019909216919091179055505050505b50600654610100900460ff166103ea565b5060006103ea561ba0e9f4b8fd5f8d94d5559901b51b4d04d2db55389402886bbf5100b5db6c604fc1a010a243f1369e603e65559eb4d3f84945ff4690360c30f939414b7177475d73e2",
      "networkId": 0,
      "chainId": 0
    },
    {
      "hash": "0x681201cfd603c50fb37ec94f005b8f4c8955524e761f25f77f1f29f0fb303fb7",
      "blockHash": "0x1225d18668b292da741f4627ff5599c9c4fc1eb01e91e0bac023cf5fb63a7f3a",
      "blockNumber": 78494,
      "transactionIndex": 1,
      "confirmations": null,
      "from": "0x28a9D631e5C22Ee57312DDdc75936822a2243A05",
      "gasPrice": {
        "_hex": "0xba43b7400"
      },
      "gasLimit": {
        "_hex": "0x5208"
      },
      "to": "0xC47Aaa860008be6f65B58c6C6E02a84e666EfE31",
      "value": {
        "_hex": "0x453c4f97a82f38f0"
      },
      "nonce": 0,
      "data": "0x",
      "r": "0x9b581704de63538824d21fa2f9466d0926bde32739252d1d3a723154c5db9f06",
      "s": "0x19654c73f9ed0e24d2512299af61fe1e27b265642b2e95e7c61264ea5e490619",
      "v": 28,
      "creates": null,
      "raw": "0xf86c80850ba43b740082520894c47aaa860008be6f65b58c6c6e02a84e666efe3188453c4f97a82f38f0801ca09b581704de63538824d21fa2f9466d0926bde32739252d1d3a723154c5db9f06a019654c73f9ed0e24d2512299af61fe1e27b265642b2e95e7c61264ea5e490619",
      "networkId": 0,
      "chainId": 0
    }
  ]
}