{
  "hash": "0x02062a3e1815afbb6c247156fbc639c3b21e6b9a6019234ee31f6020f518cd5e",
  "parentHash": "0x56073999b36f79120b3cf41732e9d566f6639f30218523675a6094de1a693983",
  "number": 111401,
  "timestamp": 1439989500,
  "nonce": "0xb97fce96397a8926",
  "difficulty": 4448324863848,
  "gasLimit": {
    "_hex": "0x2fefd8"
  },
  "gasUsed": {
    "_hex": "0x5208"
  },
  "miner": "0x52bc44d5378309EE2abF1539BF71dE1b7d7bE3b5",
  "extraData": "0x476574682f76312e302e312d63303261396266632f6c696e75782f676f312e34",
  "transactions": [
    {
      "hash": "0xb89c6484ace289f842427622357281530a2afcfed25c54c2188e9d7f76219223",
      "blockHash": "0x02062a3e1815afbb6c247156fbc639c3b21e6b9a6019234ee31f6020f518cd5e",
      "blockNumber": 111401,
      "transactionIndex": 0,
      "confirmations": null,
      "from": "0xbA8c9CDA6af013Cc68A076E17c84d4cDbc5960c5",
      "gasPrice": {
        "_hex": "0xded895ad3"
      },
      "gasLimit": {
        "_hex": "0x5208"
      },
      "to": "0x32Be343B94f860124dC4fEe278FDCBD38C102D88",
      "value": {
        "_hex": "0x1ee9640a5500fe000"
      },
      "nonce": 5,
      "data": "0x",
      "r": "0x20b7e37b2e66c2fb110b7ae5754e8d1d302296bc4ec3406440f9fd00a0cde881",
      "s": "0x7579ce6869913f797e3e6860ceaab5713dd13071bcf6a737ab601ba27cb89eb8",
      "v": 27,
      "creates": null,
      "raw": "0xf86d05850ded895ad38252089432be343b94f860124dc4fee278fdcbd38c102d888901ee9640a5500fe000801ba020b7e37b2e66c2fb110b7ae5754e8d1d302296bc4ec3406440f9fd00a0cde881a07579ce6869913f797e3e6860ceaab5713dd13071bcf6a737ab601ba27cb89eb8",
      "networkId": 0,
      "chainId": 0
    }
  ]
}