{
  "hash": "0x6de342091f6e2cfd7e85f2eaaeca7d2a0c5a099f7da21b65cfb66244fa0f5609",
  "parentHash": "0x7541ce8b9f8212d5a82655c3b2623f8063e9ec878b9d7cfb02186bda6021af07",
  "number": 105251,
  "timestamp": 1439884273,
  "nonce": "0xdb75d26f41702875",
  "difficulty": 4344221898769,
  "gasLimit": {
    "_hex": "0x2fefd8"
  },
  "gasUsed": {
    "_hex": "0x5208"
  },
  "miner": "0x70Ca6A33d8d7610ED504f23a125f1eBC20718acf",
  "extraData": "0x41434345505441424c45212121",
  "transactions": [
    {
      "hash": "0x908ef4fe50b82008474a5ea0ac2466dbd053501d495753151fca30a7c0664152",
      "blockHash": "0x6de342091f6e2cfd7e85f2eaaeca7d2a0c5a099f7da21b65cfb66244fa0f5609",
      "blockNumber": 105251,
      "transactionIndex": 0,
      "confirmations": null,
      "from": "0x06EC48800B2DB3eEfa052e98A9b5Fc2Bf783Ee74",
      "gasPrice": {
        "_hex": "0xd19c9d181"
      },
      "gasLimit": {
        "_hex": "0x5208"
      },
      "to": "0x32Be343B94f860124dC4fEe278FDCBD38C102D88",
      "value": {
        "_hex": "0x794685068499dc00"
      },
      "nonce": 21,
      "data": "0x",
      "r": "0x9eefc92653562776271e23d33adc109b724dfc764873c2f5c4c2cb683fd0717a",
      "s": "0x423b0157cf124cf62f2a5dac52f74c45c40edb2f4ea5c2f8f6757e6bec24d112",
      "v": 27,
      "creates": null,
      "raw": "0xf86c15850d19c9d1818252089432be343b94f860124dc4fee278fdcbd38c102d8888794685068499dc00801ba09eefc92653562776271e23d33adc109b724dfc764873c2f5c4c2cb683fd0717aa0423b0157cf124cf62f2a5dac52f74c45c40edb2f4ea5c2f8f6757e6bec24d112",
      "networkId": 0,
      "chainId": 0
    }
  ]
}