{
  "hash": "0x1940a02053473632f9e9359523f39924b13930a8ccbd0aadf604462cce96ab1c",
  "parentHash": "0x19a61a3df2cfd9ff251ca053eced3a0e8dfec8c61d72452d922dd4e16306d2ce",
  "number": 96210,
  "timestamp": 1439736719,
  "nonce": "0x72b8eb8a4c699e65",
  "difficulty": 3667514792994,
  "gasLimit": {
    "_hex": "0x2fefd8"
  },
  "gasUsed": {
    "_hex": "0xf618"
  },
  "miner": "0xf927a40C8B7F6E07c5af7FA2155B4864a4112B13",
  "extraData": "0x",
  "transactions": [
    {
      "hash": "0xc2d864c4c7d9a29e730915670093c3bd04e44fce7f44437e08b4b87676658c50",
      "blockHash": "0x1940a02053473632f9e9359523f39924b13930a8ccbd0aadf604462cce96ab1c",
      "blockNumber": 96210,
      "transactionIndex": 0,
      "confirmations": null,
      "from": "0xa70a9a7040d542C632D8e0bE7c5513A8a5Bbc752",
      "gasPrice": {
        "_hex": "0xd6baa6206"
      },
      "gasLimit": {
        "_hex": "0x5208"
      },
      "to": "0x32Be343B94f860124dC4fEe278FDCBD38C102D88",
      "value": {
        "_hex": "0x455f396c998dd400"
      },
      "nonce": 159,
      "data": "0x",
      "r": "0xa172ab9044091b4c40495074a97f073645240d16c4bc06dff0d77a0e272ed1a8",
      "s": "0x376afbeadd1533eae9e6f669a357804543e3a04abfd3f436c6650c54aa5908ed",
      "v": 28,
      "creates": null,
      "raw": "0xf86d819f850d6baa62068252089432be343b94f860124dc4fee278fdcbd38c102d8888455f396c998dd400801ca0a172ab9044091b4c40495074a97f073645240d16c4bc06dff0d77a0e272ed1a8a0376afbeadd1533eae9e6f669a357804543e3a04abfd3f436c6650c54aa5908ed",
      "networkId": 0,
      "chainId": 0
    },
    {
      "hash": "0xd6995b0389f26a34616fe9e8a212d3fecc3d3bd5c6dca7b8fa6cc6bdfaa480f1",
      "blockHash": "0x1940a02053473632f9e9359523f39924b13930a8ccbd0aadf604462cce96ab1c",
      "blockNumber": 96210,
      "transactionIndex": 1,
      "confirmations": null,
      "from": "0xa5D364A2d05C34Dd34e3163E76554626debAe686",
      "gasPrice": {
        "_hex": "0xd6baa6206"
      },
      "gasLimit": {
        "_hex": "0x5208"
      },
      "to": "0x32Be343B94f860124dC4fEe278FDCBD38C102D88",
      "value": {
        "_hex": "0x15ef8902f396800"
      },
      "nonce": 2,
      "data": "0x",
      "r": "0xa65da756b6564a28b259780c968c0090b53731eb1f7b5836d897eaf4f2bbff44",
      "s": "0x529801e8804b278a438627feefa18006f06d85db86b68cc00f4a09b4779a8f82",
      "v": 27,
      "creates": null,
      "raw": "0xf86c02850d6baa62068252089432be343b94f860124dc4fee278fdcbd38c102d8888015ef8902f396800801ba0a65da756b6564a28b259780c968c0090b53731eb1f7b5836d897eaf4f2bbff44a0529801e8804b278a438627feefa18006f06d85db86b68cc00f4a09b4779a8f82",
      "networkId": 0,
      "chainId": 0
    },
    {
      "hash": "0xa679236c12040c7505eec9ae0c32bbda7bc094fb0c3f918b3339e8ef7bddda56",
      "blockHash": "0x1940a02053473632f9e9359523f39924b13930a8ccbd0aadf604462cce96ab1c",
      "blockNumber": 96210,
      "transactionIndex": 2,
      "confirmations": null,
      "from": "0x8F6864Db2057a8A1C2b2c16D39f64CE4F929F3D9",
      "gasPrice": {
        "_hex": "0xd6baa6206"
      },
      "gasLimit": {
        "_hex": "0x5208"
      },
      "to": "0x32Be343B94f860124dC4fEe278FDCBD38C102D88",
      "value": {
        "_hex": "0x821a6cb6b1ec28000"
      },
      "nonce": 2,
      "data": "0x",
      "r": "0xcea9765ab0e71c2a819c0430c56cc59547d43ba72fb3b845bf88c21a38e7a8f1",
      "s": "0x013c0eb3c206e7b471540322698e3c8b9ea08680a2f150cec3c9c06c5fdc1cea",
      "v": 27,
      "creates": null,
      "raw": "0xf86d02850d6baa62068252089432be343b94f860124dc4fee278fdcbd38c102d88890821a6cb6b1ec28000801ba0cea9765ab0e71c2a819c0430c56cc59547d43ba72fb3b845bf88c21a38e7a8f1a0013c0eb3c206e7b471540322698e3c8b9ea08680a2f150cec3c9c06c5fdc1cea",
      "networkId": 0,
      "chainId": 0
    }
  ]
}