{
  "hash": "0xd640c8a5ef334d20286b111d2babe8b08fad8617713774db9c3c5126556d29eb",
  "parentHash": "0x448f9025675898fdf671a8411421b8782fed6b16bc2d622dfb603463f0f2b90c",
  "number": 81611,
  "timestamp": 1439504759,
  "nonce": "0x5b971d450669ee2b",
  "difficulty": 2436615624770,
  "gasLimit": {
    "_hex": "0x2fefd8"
  },
  "gasUsed": {
    "_hex": "0x5208"
  },
  "miner": "0x31995C46B15C84523cDEE26f49A681b8237e43F5",
  "extraData": "0x476574682f76312e302e312f77696e646f77732f676f312e342e32",
  "transactions": [
    {
      "hash": "0x43794204bd394780ae2643f5551f697cd835c82e1bb036c372db5dc64fc3107d",
      "blockHash": "0xd640c8a5ef334d20286b111d2babe8b08fad8617713774db9c3c5126556d29eb",
      "blockNumber": 81611,
      "transactionIndex": 0,
      "confirmations": null,
      "from": "0x2910543Af39abA0Cd09dBb2D50200b3E800A63D2",
      "gasPrice": {
        "_hex": "0xd75444edc"
      },
      "gasLimit": {
        "_hex": "0x5208"
      },
      "to": "0x21fcfDb12A17D77994D8b2892E5163F8a021CAc2",
      "value": {
        "_hex": "0x10a741a462780000"
      },
      "nonce": 491,
      "data": "0x",
      "r": "0x0b00767cea9ccd005c7bda9fc38bf02587f1eae37a1754d63fd6abf69ce7e033",
      "s": "0x776a82a18fe21c00f7d9ddb46b62834f2dbb4ad9b141e1b37632c51f05d9dccb",
      "v": 27,
      "creates": null,
      "raw": "0xf86e8201eb850d75444edc8252089421fcfdb12a17d77994d8b2892e5163f8a021cac28810a741a462780000801ba00b00767cea9ccd005c7bda9fc38bf02587f1eae37a1754d63fd6abf69ce7e033a0776a82a18fe21c00f7d9ddb46b62834f2dbb4ad9b141e1b37632c51f05d9dccb",
      "networkId": 0,
      "chainId": 0
    }
  ]
}