{
  "hash": "0xfcffc97a800e386806836cf1495fe8955ba0b18aa6669d893c0e38c9c433e057",
  "parentHash": "0xede1ad6bea95f5be366ba3e7a340e599fdb2bf0452c8c252e43eada971574062",
  "number": 122337,
  "timestamp": 1440192413,
  "nonce": "0xba8fd36ee70e68aa",
  "difficulty": 4473002374582,
  "gasLimit": {
    "_hex": "0x2fefd8"
  },
  "gasUsed": {
    "_hex": "0x546c"
  },
  "miner": "0x20c6Efe179C293690A5B3375F5bd81c2f07Ed037",
  "extraData": "0x",
  "transactions": [
    {
      "hash": "0x7d67c377ab4f112e581f3afeb04eb425f6d650aa961dd92958ee5d47b71c605e",
      "blockHash": "0xfcffc97a800e386806836cf1495fe8955ba0b18aa6669d893c0e38c9c433e057",
      "blockNumber": 122337,
      "transactionIndex": 0,
      "confirmations": null,
      "from": "0xcE62eDEc0e620C53f13a18780e10DcDf294Ba4A0",
      "gasPrice": {
        "_hex": "0xba43b7400"
      },
      "gasLimit": {
        "_hex": "0x55f0"
      },
      "to": "0x2910543Af39abA0Cd09dBb2D50200b3E800A63D2",
      "value": {
        "_hex": "0x70b008fa782c0000"
      },
      "nonce": 0,
      "data": "0x454e423451384a3252",
      "r": "0xda5a46a2be39f29692cfc35c65424bb69534c37b3165c9567e1e0c7fc04e8e88",
      "s": "0x4c7452e64d0f27bd059c55eb300648aacfd2e2125c78792411bdb64db764fa6c",
      "v": 28,
      "creates": null,
      "raw": "0xf87580850ba43b74008255f0942910543af39aba0cd09dbb2d50200b3e800a63d28870b008fa782c000089454e423451384a32521ca0da5a46a2be39f29692cfc35c65424bb69534c37b3165c9567e1e0c7fc04e8e88a04c7452e64d0f27bd059c55eb300648aacfd2e2125c78792411bdb64db764fa6c",
      "networkId": 0,
      "chainId": 0
    }
  ]
}