{
  "hash": "0x0ef48235b989f0663a16a4f984cc3b73cb5c74e54fd384e3b98bb37820f3e074",
  "parentHash": "0xa13e3edda194b876730057f04ad38341315d8a24a2e02feac619ec9d44b41129",
  "number": 58054,
  "timestamp": 1439114371,
  "nonce": "0x07ca8d9cc6043bea",
  "difficulty": 1706648496835,
  "gasLimit": {
    "_hex": "0x2fefd8"
  },
  "gasUsed": {
    "_hex": "0x546c"
  },
  "miner": "0xeB1325C8D9d3ea8D74aC11F4B00F1B2367686319",
  "extraData": "0x476574682f76312e302e312f77696e646f77732f676f312e342e32",
  "transactions": [
    {
      "hash": "0xfe221dd75b9dd2bd9e9e4c9ebaaa4024600bae5e076abee81df8df367cbde87d",
      "blockHash": "0x0ef48235b989f0663a16a4f984cc3b73cb5c74e54fd384e3b98bb37820f3e074",
      "blockNumber": 58054,
      "transactionIndex": 0,
      "confirmations": null,
      "from": "0x116A09dF66cb150E97578E297fB06e13040c893c",
      "gasPrice": {
        "_hex": "0xd7d40ace3"
      },
      "gasLimit": {
        "_hex": "0x15f90"
      },
      "to": "0x2910543Af39abA0Cd09dBb2D50200b3E800A63D2",
      "value": {
        "_hex": "0x6c341080bd1fb00000"
      },
      "nonce": 2,
      "data": "0x454e4d373645325638",
      "r": "0x0bca5e3af89b0d78580176a1c2dbfd61415b4e81865994754c7c0e58cffb7f90",
      "s": "0x04a47edd513fdf3f641bf4e9102d490b926c3263b344ff581e24b79e4db2072f",
      "v": 27,
      "creates": null,
      "raw": "0xf87702850d7d40ace383015f90942910543af39aba0cd09dbb2d50200b3e800a63d2896c341080bd1fb0000089454e4d3736453256381ba00bca5e3af89b0d78580176a1c2dbfd61415b4e81865994754c7c0e58cffb7f90a004a47edd513fdf3f641bf4e9102d490b926c3263b344ff581e24b79e4db2072f",
      "networkId": 0,
      "chainId": 0
    }
  ]
}