{
  "hash": "0x216f740ad0ec2ed1f9ccaef92b57a9b76f2a97aebace4f6b04881b8cfeca11d4",
  "parentHash": "0xf2d116a31931e504efc99056a935be7e383f7ccff31116ff65984e0f40fccaa3",
  "number": 84061,
  "timestamp": 1439544517,
  "nonce": "0x75f83a5af7dd73eb",
  "difficulty": 2496106303347,
  "gasLimit": {
    "_hex": "0x2fefd8"
  },
  "gasUsed": {
    "_hex": "0xa410"
  },
  "miner": "0x80bdc955a46D4a80d5EE36Bd4ae88cDE91aCaE41",
  "extraData": "0x",
  "transactions": [
    {
      "hash": "0x65603e2317695dd2f95fccfdfe83eeae7ecd91042dec47bff9b0ec7849b9d27a",
      "blockHash": "0x216f740ad0ec2ed1f9ccaef92b57a9b76f2a97aebace4f6b04881b8cfeca11d4",
      "blockNumber": 84061,
      "transactionIndex": 0,
      "confirmations": null,
      "from": "0x32Be343B94f860124dC4fEe278FDCBD38C102D88",
      "gasPrice": {
        "_hex": "0xdf4f8a122"
      },
      "gasLimit": {
        "_hex": "0x5208"
      },
      "to": "0x1E1f7dDeCbe7b21492957BF4C5365eae580aA990",
      "value": {
        "_hex": "0x27675898e32c6e000"
      },
      "nonce": 674,
      "data": "0x",
      "r": "0xa81519de86d5fabb73bed6b47809638f9ce56ca2e00645f12966ba26f5b3e5d0",
      "s": "0x09f7d3b9a55657dae8b8e7b12759b136b93c61ea38aadeb0134d3cf8d4ff415b",
      "v": 27,
      "creates": null,
      "raw": "0xf86f8202a2850df4f8a122825208941e1f7ddecbe7b21492957bf4c5365eae580aa99089027675898e32c6e000801ba0a81519de86d5fabb73bed6b47809638f9ce56ca2e00645f12966ba26f5b3e5d0a009f7d3b9a55657dae8b8e7b12759b136b93c61ea38aadeb0134d3cf8d4ff415b",
      "networkId": 0,
      "chainId": 0
    },
    {
      "hash": "0x5a48ba86a7d9edfde15031edd060039060ec9268f1314aa9f839bc91b3b2a70e",
      "blockHash": "0x216f740ad0ec2ed1f9ccaef92b57a9b76f2a97aebace4f6b04881b8cfeca11d4",
      "blockNumber": 84061,
      "transactionIndex": 1,
      "confirmations": null,
      "from": "0x120A270bbC009644e35F0bB6ab13f95b8199c4ad",
      "gasPrice": {
        "_hex": "0xd75c2e445"
      },
      "gasLimit": {
        "_hex": "0x3d090"
      },
      "to": "0xbae281B6b389e840f52b74C832EcdaEf7820d8a5",
      "value": {
        "_hex": "0x581aef89d548a0000"
      },
      "nonce": 421,
      "data": "0x",
      "r": "0x0cb744b50c684f70edeb8b888cc0e3132e6bbb6344f96edbb5d8307d543ee907",
      "s": "0x760264cc32d157d8de6bb2e5f7fcc86827b15c39eb84e81326c58869e330ffd1",
      "v": 28,
      "creates": null,
      "raw": "0xf8708201a5850d75c2e4458303d09094bae281b6b389e840f52b74c832ecdaef7820d8a5890581aef89d548a0000801ca00cb744b50c684f70edeb8b888cc0e3132e6bbb6344f96edbb5d8307d543ee907a0760264cc32d157d8de6bb2e5f7fcc86827b15c39eb84e81326c58869e330ffd1",
      "networkId": 0,
      "chainId": 0
    }
  ]
}