{
  "hash": "0xf740ff07f8bda7f50a61ee2514363dddcf36a3398b85c031b0b812ca7b6a34c5",
  "parentHash": "0x7c04015eda1ee081d3b7faa3f0dd4cae0ebb524d09cd4dc2cb7a5ddf144e76fb",
  "number": 47409,
  "timestamp": 1438939777,
  "nonce": "0x414af36f3a9dd5c2",
  "difficulty": 1452378878375,
  "gasLimit": {
    "_hex": "0xba66"
  },
  "gasUsed": {
    "_hex": "0x5208"
  },
  "miner": "0xF2d2AfF1320476cb8C6b607199D23175cc595693",
  "extraData": "0x476574682f76312e302e312f77696e646f77732f676f312e342e32",
  "transactions": [
    {
      "hash": "0x8d9910e8d01c06e721a5026487df418a53aa10f8575f1ac655233f9b7ef4bb92",
      "blockHash": "0xf740ff07f8bda7f50a61ee2514363dddcf36a3398b85c031b0b812ca7b6a34c5",
      "blockNumber": 47409,
      "transactionIndex": 0,
      "confirmations": null,
      "from": "0xC3e7418901ea7aa9c78094F9dB49063627f5cFbb",
      "gasPrice": {
        "_hex": "0x45d964b800"
      },
      "gasLimit": {
        "_hex": "0x5208"
      },
      "to": "0x23c99bA087448e19C9701Df66e0cab52368331FA",
      "value": {
        "_hex": "0x30ac13d16c4000"
      },
      "nonce": 0,
      "data": "0x",
      "r": "0xe43cf12b6e000f3a5b09d9c9fd22bed7458b2177176b4b312f7cad4b92e6643a",
      "s": "0x3cbcd8b19c4af36ed9b03e86d793dec4e462a2d8d3ad71254226f6eafba427f4",
      "v": 27,
      "creates": null,
      "raw": "0xf86b808545d964b8008252089423c99ba087448e19c9701df66e0cab52368331fa8730ac13d16c4000801ba0e43cf12b6e000f3a5b09d9c9fd22bed7458b2177176b4b312f7cad4b92e6643aa03cbcd8b19c4af36ed9b03e86d793dec4e462a2d8d3ad71254226f6eafba427f4",
      "networkId": 0,
      "chainId": 0
    }
  ]
}