{
  "hash": "0x75fda026ab71b54723480d640ce4a9a3e3313d7d7d1e98468da8ff9bd1cd8e69",
  "parentHash": "0x454b45436b1d1d1b5f7a8724d5d9c46291b3517bd31a784d7d43dc42f8ea33da",
  "number": 120272,
  "timestamp": 1440157175,
  "nonce": "0xf7b7bfe3b36cc896",
  "difficulty": 4402588837260,
  "gasLimit": {
    "_hex": "0x2fefd8"
  },
  "gasUsed": {
    "_hex": "0x5208"
  },
  "miner": "0xe6A7a1d47ff21B6321162AEA7C6CB457D5476Bca",
  "extraData": "0xd783010002844765746887676f312e342e32856c696e7578",
  "transactions": [
    {
      "hash": "0xa10afa98ca297d453ea1ad27da96bf88872f02eb6865efd74bfe0ae702a34794",
      "blockHash": "0x75fda026ab71b54723480d640ce4a9a3e3313d7d7d1e98468da8ff9bd1cd8e69",
      "blockNumber": 120272,
      "transactionIndex": 0,
      "confirmations": null,
      "from": "0xFAe95941f26f565646Cc5bF443AfFDe60868f17e",
      "gasPrice": {
        "_hex": "0xba43b7400"
      },
      "gasLimit": {
        "_hex": "0x5208"
      },
      "to": "0xFBb1b73C4f0BDa4f67dcA266ce6Ef42f520fBB98",
      "value": {
        "_hex": "0xddcfbbb7a606000"
      },
      "nonce": 1,
      "data": "0x",
      "r": "0xdaeba776378b5aa08f2f542273da10efd6419bf7d3318d4c38ed4c97ff32203c",
      "s": "0x3a71122e0da4deb5ba46e85444a5f0c1a03c76dabe197fafcf90ac2e9372862e",
      "v": 27,
      "creates": null,
      "raw": "0xf86c01850ba43b740082520894fbb1b73c4f0bda4f67dca266ce6ef42f520fbb98880ddcfbbb7a606000801ba0daeba776378b5aa08f2f542273da10efd6419bf7d3318d4c38ed4c97ff32203ca03a71122e0da4deb5ba46e85444a5f0c1a03c76dabe197fafcf90ac2e9372862e",
      "networkId": 0,
      "chainId": 0
    }
  ]
}