{
  "hash": "0x5d68980e7bca5afe7ed15919331ba0dd693256f1892a86293fe56af88d25735e",
  "parentHash": "0x32b05813225c4788e5f46e2c4951c551b2e837f0cb1b2b40e4eab84e046fa8fc",
  "number": 112319,
  "timestamp": 1440005616,
  "nonce": "0xc33543fe2cebb2d8",
  "difficulty": 4396019204457,
  "gasLimit": {
    "_hex": "0x2fefd8"
  },
  "gasUsed": {
    "_hex": "0x1d52e"
  },
  "miner": "0xa70a9a7040d542C632D8e0bE7c5513A8a5Bbc752",
  "extraData": "0x",
  "transactions": [
    {
      "hash": "0x9ce6e7ab34df662d9ce4c5d70e5385c7008f99fc9f4ab69b6f30605e0d65e80b",
      "blockHash": "0x5d68980e7bca5afe7ed15919331ba0dd693256f1892a86293fe56af88d25735e",
      "blockNumber": 112319,
      "transactionIndex": 0,
      "confirmations": null,
      "from": "0x2678D3A52f796B7Fc9BA469579de3891af5f8A95",
      "gasPrice": {
        "_hex": "0x10f3351706b"
      },
      "gasLimit": {
        "_hex": "0x249f0"
      },
      "to": "0xE28e72FCf78647ADCe1F1252F240bbfaebD63BcC",
      "value": {
        "_hex": "0x2a802f8630a240000"
      },
      "nonce": 1,
      "data": "0x45466f3a",
      "r": "0x5b08faf2cbed9ff03b526ca9d12dddcf6ee8d9230583bf53dbe8182ff25ad35c",
      "s": "0x451dc8381a82f481db2845c070009e6f345e1a732267276667daf79ab62ea3c0",
      "v": 27,
      "creates": null,
      "raw": "0xf8730186010f3351706b830249f094e28e72fcf78647adce1f1252f240bbfaebd63bcc8902a802f8630a2400008445466f3a1ba05b08faf2cbed9ff03b526ca9d12dddcf6ee8d9230583bf53dbe8182ff25ad35ca0451dc8381a82f481db2845c070009e6f345e1a732267276667daf79ab62ea3c0",
      "networkId": 0,
      "chainId": 0
    },
    {
      "hash": "0x12b4ecaa7a94e5d62cf89b2288e207ede565b2562be684afc1b0ef9255f67da2",
      "blockHash": "0x5d68980e7bca5afe7ed15919331ba0dd693256f1892a86293fe56af88d25735e",
      "blockNumber": 112319,
      "transactionIndex": 1,
      "confirmations": null,
      "from": "0xAF654b2845616930f74573a909B477E23752DcA4",
      "gasPrice": {
        "_hex": "0x746a528800"
      },
      "gasLimit": {
        "_hex": "0x5208"
      },
      "to": "0xE3a44b84A68C84F674E1e8c17445742DE48D9501",
      "value": {
        "_hex": "0x4563918244f40000"
      },
      "nonce": 18,
      "data": "0x",
      "r": "0x69acb89d0eaec2826f8a1d62f7a39d0bdd7a3fdd6e09af269ea54121aa6a6396",
      "s": "0xe83f216737a9f023546c33fb77b81e5c51718b33b936ecf855396b904b867a75",
      "v": 28,
      "creates": null,
      "raw": "0xf86c1285746a52880082520894e3a44b84a68c84f674e1e8c17445742de48d9501884563918244f40000801ca069acb89d0eaec2826f8a1d62f7a39d0bdd7a3fdd6e09af269ea54121aa6a6396a0e83f216737a9f023546c33fb77b81e5c51718b33b936ecf855396b904b867a75",
      "networkId": 0,
      "chainId": 0
    }
  ]
}