{
  "hash": "0xece60ec29f8fcbf8f1afc82c7c0219d89d01f1406a7f4dddbafc72cd07765f0e",
  "parentHash": "0x1a373de74d46140b8ac37aa03f46207fa6e79ce29a0e2c11a89b32ebbe65a90d",
  "number": 85174,
  "timestamp": 1439559511,
  "nonce": "0xea9b49bdc871ab15",
  "difficulty": 2747773020794,
  "gasLimit": {
    "_hex": "0x2fefd8"
  },
  "gasUsed": {
    "_hex": "0x5208"
  },
  "miner": "0xa6BDc31c431B8F97848c9D60cbbe9660dc450eB7",
  "extraData": "0x",
  "transactions": [
    {
      "hash": "0x1c4ddf764bfff7e2e744fad896864019d363c9b130bc1abbf3a285122ecb09d1",
      "blockHash": "0xece60ec29f8fcbf8f1afc82c7c0219d89d01f1406a7f4dddbafc72cd07765f0e",
      "blockNumber": 85174,
      "transactionIndex": 0,
      "confirmations": null,
      "from": "0x4E9f76CBc24805BF1Db0fb2113B3FAb42F9879Df",
      "gasPrice": {
        "_hex": "0xba43b7400"
      },
      "gasLimit": {
        "_hex": "0x5b04"
      },
      "to": "0x9f78552704fe7e52cC7C3853534aA2C3cf580D54",
      "value": {
        "_hex": "0x4563918244f40000"
      },
      "nonce": 3,
      "data": "0x",
      "r": "0x89fb7ccb6dffdc657835dc6c915f3fe50d7111d38ea03ed97e03d0b57981f78c",
      "s": "0x8c768fadd6a38aa532556b112531fe275aed3a58a2e69ddf1c912d48b44df4b1",
      "v": 28,
      "creates": null,
      "raw": "0xf86c03850ba43b7400825b04949f78552704fe7e52cc7c3853534aa2c3cf580d54884563918244f40000801ca089fb7ccb6dffdc657835dc6c915f3fe50d7111d38ea03ed97e03d0b57981f78ca08c768fadd6a38aa532556b112531fe275aed3a58a2e69ddf1c912d48b44df4b1",
      "networkId": 0,
      "chainId": 0
    }
  ]
}