{
  "hash": "0x6e1b9aaa9ed06167ed2877db9a6cf804849fb18b93cdc7b4cb01e13b8856e73c",
  "parentHash": "0xfbe649b48d9907d67f6df6e08950896b1a7959302bced1a5c1225586b610fa1c",
  "number": 69377,
  "timestamp": 1439303127,
  "nonce": "0xaab95a5d332698f7",
  "difficulty": 2052824947936,
  "gasLimit": {
    "_hex": "0x2fefd8"
  },
  "gasUsed": {
    "_hex": "0x5208"
  },
  "miner": "0xC49418429e58989172a4ACE0bab0cB8D3F00F97f",
  "extraData": "0x476574682f76312e302e312f6c696e75782f676f312e342e32",
  "transactions": [
    {
      "hash": "0xe5eb96a30e2d601149846c80b2558290f288a2b727632fb57aea16c6b0afe938",
      "blockHash": "0x6e1b9aaa9ed06167ed2877db9a6cf804849fb18b93cdc7b4cb01e13b8856e73c",
      "blockNumber": 69377,
      "transactionIndex": 0,
      "confirmations": null,
      "from": "0xE4bc843d8789F55f500d487ffcc451f4cbd25aec",
      "gasPrice": {
        "_hex": "0xcd01555c5"
      },
      "gasLimit": {
        "_hex": "0x15f90"
      },
      "to": "0x9Ca0023E51D56dcb8c0e8EB33E209920B108af00",
      "value": {
        "_hex": "0xad78ebc5ac620000"
      },
      "nonce": 0,
      "data": "0x",
      "r": "0x3cec6e4640ca3cd1d5919d904306072b137cf4d3b3a25095889e44b3c447c43a",
      "s": "0x6ed6c8acdc85b53413d91351c4274ed956dcb3ea9faa353bcf40a87a527c548d",
      "v": 28,
      "creates": null,
      "raw": "0xf86d80850cd01555c583015f90949ca0023e51d56dcb8c0e8eb33e209920b108af0088ad78ebc5ac620000801ca03cec6e4640ca3cd1d5919d904306072b137cf4d3b3a25095889e44b3c447c43aa06ed6c8acdc85b53413d91351c4274ed956dcb3ea9faa353bcf40a87a527c548d",
      "networkId": 0,
      "chainId": 0
    }
  ]
}