{
  "hash": "0xac889ec7c154385e961f4e03b49256e51b77ca39e4762fd4ee9e222013f56cf9",
  "parentHash": "0x40f662cf37dda8663bd051980e3d45dd74ad97ca635e5c34faf791818db6ff28",
  "number": 50643,
  "timestamp": 1438992470,
  "nonce": "0xf9f43d677287767c",
  "difficulty": 1525957354333,
  "gasLimit": {
    "_hex": "0x6e4fe"
  },
  "gasUsed": {
    "_hex": "0x11895"
  },
  "miner": "0xeB1325C8D9d3ea8D74aC11F4B00F1B2367686319",
  "extraData": "0x476574682f76312e302e312f77696e646f77732f676f312e342e32",
  "transactions": [
    {
      "hash": "0xae441784ab91b46b78993c2ddd0d57e7b92911b73c91ce7e6c4b04da1341816a",
      "blockHash": "0xac889ec7c154385e961f4e03b49256e51b77ca39e4762fd4ee9e222013f56cf9",
      "blockNumber": 50643,
      "transactionIndex": 0,
      "confirmations": null,
      "from": "0x288E4356F12D0D3D0F8DF3506E457E7cFd5f4Ab0",
      "gasPrice": {
        "_hex": "0xce8fbdb54"
      },
      "gasLimit": {
        "_hex": "0x5a550"
      },
      "to": "0xBAA54d6E90c3F4d7Ebec11bD180134C7eD8eBb52",
      "value": {
        "_hex": "0x16345785d8a0000"
      },
      "nonce": 4,
      "data": "0x",
      "r": "0x684ce63ec44e36896b5bbfdf61d7fd4aef085870d1f1fc0760d8689081611a5c",
      "s": "0x460d9dce4254a407e1957bfb31aec6243dec0ea1032185a70dfd6bcd0e0de7fd",
      "v": 27,
      "creates": null,
      "raw": "0xf86d04850ce8fbdb548305a55094baa54d6e90c3f4d7ebec11bd180134c7ed8ebb5288016345785d8a0000801ba0684ce63ec44e36896b5bbfdf61d7fd4aef085870d1f1fc0760d8689081611a5ca0460d9dce4254a407e1957bfb31aec6243dec0ea1032185a70dfd6bcd0e0de7fd",
      "networkId": 0,
      "chainId": 0
    }
  ]
}