{
  "hash": "0xc7cabf83692475a976f6d72d9ec8a102aa6d4f1dc6b9948a5498b33847ef5039",
  "parentHash": "0x41bd2737085447e5c68c2a3439048f697747b35fa2fc44083df721ecfe056aa9",
  "number": 91503,
  "timestamp": 1439656713,
  "nonce": "0xc90b7a063ab602a5",
  "difficulty": 3479375147323,
  "gasLimit": {
    "_hex": "0x2fefd8"
  },
  "gasUsed": {
    "_hex": "0x5208"
  },
  "miner": "0xe6A7a1d47ff21B6321162AEA7C6CB457D5476Bca",
  "extraData": "0x476574682f76312e302e312d38326566323666362f6c696e75782f676f312e34",
  "transactions": [
    {
      "hash": "0xfb909d5df8b8e5e0dd49164d54405968cef6f74c6c8aa934e56caa089f00b241",
      "blockHash": "0xc7cabf83692475a976f6d72d9ec8a102aa6d4f1dc6b9948a5498b33847ef5039",
      "blockNumber": 91503,
      "transactionIndex": 0,
      "confirmations": null,
      "from": "0x53c451B5977b29118899c6B6613Cf4dEC25E6Cb0",
      "gasPrice": {
        "_hex": "0x45d964b800"
      },
      "gasLimit": {
        "_hex": "0x5208"
      },
      "to": "0xB5141AD349113406F14Eff4167863c4Fc6f4c2a3",
      "value": {
        "_hex": "0x2e83c0b44fceb89800"
      },
      "nonce": 3,
      "data": "0x",
      "r": "0xc70acc414f351ee91aa66a3d01d6510cfa94b70f6aedc2522dd16a82b37e0333",
      "s": "0x1f4c013b6525a08b72926e454709ddff7e973f9dc6cbf1a8e379cb4f229d6f3f",
      "v": 28,
      "creates": null,
      "raw": "0xf86d038545d964b80082520894b5141ad349113406f14eff4167863c4fc6f4c2a3892e83c0b44fceb89800801ca0c70acc414f351ee91aa66a3d01d6510cfa94b70f6aedc2522dd16a82b37e0333a01f4c013b6525a08b72926e454709ddff7e973f9dc6cbf1a8e379cb4f229d6f3f",
      "networkId": 0,
      "chainId": 0
    }
  ]
}