{
  "hash": "0x30fe865f259855d458910f4873921c0e62a35c96e561d6bfcc3d2c6e053014fa",
  "parentHash": "0xe2c169166e3d7cfb8d30bc692e813cc67d8dbd7958f2855fdaf69e701129c92d",
  "number": 49183,
  "timestamp": 1438969418,
  "nonce": "0xe412cec214517f81",
  "difficulty": 1477822125179,
  "gasLimit": {
    "_hex": "0x28278"
  },
  "gasUsed": {
    "_hex": "0xa410"
  },
  "miner": "0xf927a40C8B7F6E07c5af7FA2155B4864a4112B13",
  "extraData": "0x476574682f76312e302e312f6c696e75782f676f312e342e32",
  "transactions": [
    {
      "hash": "0x4a27081c04a0626b374d315751e1edc48ad784f548f69c935da1e943a53f3741",
      "blockHash": "0x30fe865f259855d458910f4873921c0e62a35c96e561d6bfcc3d2c6e053014fa",
      "blockNumber": 49183,
      "transactionIndex": 0,
      "confirmations": null,
      "from": "0x93868ddb2a794d02eBDA2FA4807c76E3609858Dc",
      "gasPrice": {
        "_hex": "0x10d86080401"
      },
      "gasLimit": {
        "_hex": "0x5208"
      },
      "to": "0x7c3f4907164F65CcA6ec853aC340ef1e71B1f5C9",
      "value": {
        "_hex": "0x6df3816c4192898"
      },
      "nonce": 4,
      "data": "0x",
      "r": "0x00f5587a0f357c09ebf071eb2453f65ce5155c4a957d4b1fe7bf65fcf57ee2a2",
      "s": "0x7825d122aeb015495173c28ad778d13ca9604ddfc333228ef4216eb7bc87a9af",
      "v": 28,
      "creates": null,
      "raw": "0xf86c0486010d86080401825208947c3f4907164f65cca6ec853ac340ef1e71b1f5c98806df3816c4192898801c9ff5587a0f357c09ebf071eb2453f65ce5155c4a957d4b1fe7bf65fcf57ee2a2a07825d122aeb015495173c28ad778d13ca9604ddfc333228ef4216eb7bc87a9af",
      "networkId": 0,
      "chainId": 0
    },
    {
      "hash": "0x4e07fb445057b3097c08a4db8267f03a484bbf95783fa7abe59eb789cb9d7d57",
      "blockHash": "0x30fe865f259855d458910f4873921c0e62a35c96e561d6bfcc3d2c6e053014fa",
      "blockNumber": 49183,
      "transactionIndex": 1,
      "confirmations": null,
      "from": "0x32b7C0BDFD488A3c81cCAD7ff2a2fB7A12a5575b",
      "gasPrice": {
        "_hex": "0xe1fdd079f"
      },
      "gasLimit": {
        "_hex": "0x5208"
      },
      "to": "0x32Be343B94f860124dC4fEe278FDCBD38C102D88",
      "value": {
        "_hex": "0x455f0adbabbdd400"
      },
      "nonce": 0,
      "data": "0x",
      "r": "0x0507123a17826e0a7ee17940c802bc32c5b523592b8b9bdb8b0841ea35b41530",
      "s": "0x75d18bd841a00852a0f278fb1da7250ba6c8dca4bdaf14a629b635243e09cb8f",
      "v": 28,
      "creates": null,
      "raw": "0xf86c80850e1fdd079f8252089432be343b94f860124dc4fee278fdcbd38c102d8888455f0adbabbdd400801ca00507123a17826e0a7ee17940c802bc32c5b523592b8b9bdb8b0841ea35b41530a075d18bd841a00852a0f278fb1da7250ba6c8dca4bdaf14a629b635243e09cb8f",
      "networkId": 0,
      "chainId": 0
    }
  ]
}