{
  "hash": "0xa38fc54e84f1a3d44903b2ddbccab29ca54e872d5f1b96e2cf9c8f709baaf8e1",
  "parentHash": "0x860c1c23049d968a0912040e415ec5aa947140349bb9381294841707a7a25f40",
  "number": 93703,
  "timestamp": 1439696409,
  "nonce": "0x281e1e476b2382b3",
  "difficulty": 3414516059931,
  "gasLimit": {
    "_hex": "0x2fefd8"
  },
  "gasUsed": {
    "_hex": "0x5208"
  },
  "miner": "0x3222BA3F3e79eA0e31467EEE7639B57923558cCD",
  "extraData": "0xd983010001844765746887676f312e342e328777696e646f7773",
  "transactions": [
    {
      "hash": "0x98a21c568d18eaaa614b07e818529225259026353c1146412f0aa20da5fa8ebe",
      "blockHash": "0xa38fc54e84f1a3d44903b2ddbccab29ca54e872d5f1b96e2cf9c8f709baaf8e1",
      "blockNumber": 93703,
      "transactionIndex": 0,
      "confirmations": null,
      "from": "0x8c0A6b62918D317e3B431EfB67E3fB5eff333b1c",
      "gasPrice": {
        "_hex": "0xba43b7400"
      },
      "gasLimit": {
        "_hex": "0x5208"
      },
      "to": "0xC47Aaa860008be6f65B58c6C6E02a84e666EfE31",
      "value": {
        "_hex": "0x56bc3a335360c6000"
      },
      "nonce": 2,
      "data": "0x",
      "r": "0xc3d461d47f3ebaf8ec226e715b748591e168fe26aae44eee319c75095dbcfe08",
      "s": "0x3ba3c74c2d42b26a772af31ad9afd89bd5273185a5c8679d2e47d27fecf668a0",
      "v": 27,
      "creates": null,
      "raw": "0xf86d02850ba43b740082520894c47aaa860008be6f65b58c6c6e02a84e666efe3189056bc3a335360c6000801ba0c3d461d47f3ebaf8ec226e715b748591e168fe26aae44eee319c75095dbcfe08a03ba3c74c2d42b26a772af31ad9afd89bd5273185a5c8679d2e47d27fecf668a0",
      "networkId": 0,
      "chainId": 0
    }
  ]
}