{
  "hash": "0x2bc1c9a796168c581d9568cad86fc814e0192dbb7ac92bf29f628c130b4f7ec0",
  "parentHash": "0xe55e57f61c76c2d5817e823ced63319ad8e080c29f7964c975e8494aacf90b6c",
  "number": 82967,
  "timestamp": 1439527732,
  "nonce": "0x41214ed42be826a9",
  "difficulty": 2412546343676,
  "gasLimit": {
    "_hex": "0x2fefd8"
  },
  "gasUsed": {
    "_hex": "0x5208"
  },
  "miner": "0xeB1325C8D9d3ea8D74aC11F4B00F1B2367686319",
  "extraData": "0x476574682f76312e302e312f77696e646f77732f676f312e342e32",
  "transactions": [
    {
      "hash": "0xe5a5baf87d56146c4b5568a74f41505a6af5e87c374c6ffac821d579613c8344",
      "blockHash": "0x2bc1c9a796168c581d9568cad86fc814e0192dbb7ac92bf29f628c130b4f7ec0",
      "blockNumber": 82967,
      "transactionIndex": 0,
      "confirmations": null,
      "from": "0x120A270bbC009644e35F0bB6ab13f95b8199c4ad",
      "gasPrice": {
        "_hex": "0xd68ff9299"
      },
      "gasLimit": {
        "_hex": "0x3d090"
      },
      "to": "0xCA092A957744f6385B1aee5dC694143E8A06F805",
      "value": {
        "_hex": "0x16345785d8a0000"
      },
      "nonce": 407,
      "data": "0x",
      "r": "0xe5c4458b6ab577a959d99f14d18b986f7ba54d97d55a85dba974af49dc407bdd",
      "s": "0x66905421cd55a955cbcab7772c40166f67f613a99c1f597f6557c813114121e0",
      "v": 27,
      "creates": null,
      "raw": "0xf86f820197850d68ff92998303d09094ca092a957744f6385b1aee5dc694143e8a06f80588016345785d8a0000801ba0e5c4458b6ab577a959d99f14d18b986f7ba54d97d55a85dba974af49dc407bdda066905421cd55a955cbcab7772c40166f67f613a99c1f597f6557c813114121e0",
      "networkId": 0,
      "chainId": 0
    }
  ]
}