{
  "hash": "0x7d741434f640ef0f1da11c531e0c6d5339b8d8c5bafb278f00c9380546ac9a38",
  "parentHash": "0x17b12511f85b949cc57df20e3dec7ba5028aa90aa43d58bbfe495efb944b8e04",
  "number": 71009,
  "timestamp": 1439328989,
  "nonce": "0xb7afc35302774058",
  "difficulty": 2157234354350,
  "gasLimit": {
    "_hex": "0x2fefd8"
  },
  "gasUsed": {
    "_hex": "0xe608"
  },
  "miner": "0xC6aAb39538082C5f61BEf748D7442Ce50C0cb71e",
  "extraData": "0x6d61726b786d61796572",
  "transactions": [
    {
      "hash": "0x062b4be214daf0f25a3fcc8c44491cb5be1a2adb5930b4dc38076ca9b4d71484",
      "blockHash": "0x7d741434f640ef0f1da11c531e0c6d5339b8d8c5bafb278f00c9380546ac9a38",
      "blockNumber": 71009,
      "transactionIndex": 0,
      "confirmations": null,
      "from": "0x32Be343B94f860124dC4fEe278FDCBD38C102D88",
      "gasPrice": {
        "_hex": "0xcf7ec79dd"
      },
      "gasLimit": {
        "_hex": "0x5208"
      },
      "to": "0x2CaB97690D3bc757061AEA34E7B70Dc221019126",
      "value": {
        "_hex": "0x1b8fb07a4bed0000"
      },
      "nonce": 262,
      "data": "0x",
      "r": "0xa26a2dfb7c29f895c5aeb5a8e1171e1a6d23c0dfb908f7a60d974dab2c05fa05",
      "s": "0x2efd06da71b90e5fc1828f2fa3f1d94060be8e5a2b506cdb232a7a5c46edd7e8",
      "v": 28,
      "creates": null,
      "raw": "0xf86e820106850cf7ec79dd825208942cab97690d3bc757061aea34e7b70dc221019126881b8fb07a4bed0000801ca0a26a2dfb7c29f895c5aeb5a8e1171e1a6d23c0dfb908f7a60d974dab2c05fa05a02efd06da71b90e5fc1828f2fa3f1d94060be8e5a2b506cdb232a7a5c46edd7e8",
      "networkId": 0,
      "chainId": 0
    },
    {
      "hash": "0xdbfac7c562903a59b788c14f3f61b2962ea1f5e75b77690f895ff0c5a3c48c96",
      "blockHash": "0x7d741434f640ef0f1da11c531e0c6d5339b8d8c5bafb278f00c9380546ac9a38",
      "blockNumber": 71009,
      "transactionIndex": 1,
      "confirmations": null,
      "from": "0x17580B766f7453525ca4C6A88b01b50570EA088C",
      "gasPrice": {
        "_hex": "0xccbe5bcd1"
      },
      "gasLimit": {
        "_hex": "0x61a80"
      },
      "to": "0x5Fe5B7546D1628f7348B023A0393de1FC825A4fD",
      "value": {
        "_hex": "0x3782dace9d900000"
      },
      "nonce": 77,
      "data": "0xb595b8b50000000000000000000000000000000000000000000000000000000000000001",
      "r": "0x64398c38bd19683b6b1a505e503af227f5a132a406365cfdc2578c587cb38fc3",
      "s": "0x7dfec2990bd70105d15ec3b853655e1acaab270df82400c7298dad3329354d22",
      "v": 28,
      "creates": null,
      "raw": "0xf8914d850ccbe5bcd183061a80945fe5b7546d1628f7348b023a0393de1fc825a4fd883782dace9d900000a4b595b8b500000000000000000000000000000000000000000000000000000000000000011ca064398c38bd19683b6b1a505e503af227f5a132a406365cfdc2578c587cb38fc3a07dfec2990bd70105d15ec3b853655e1acaab270df82400c7298dad3329354d22",
      "networkId": 0,
      "chainId": 0
    }
  ]
}