{
  "hash": "0x41c7472122adc44ba791b6102d09d1a985d9dad5e4547ed8ff7c72d17ee5f354",
  "parentHash": "0xfd0afa1a562c6adbbd3260f27ba250905148658d4477d1bcaa2879a0937cd44b",
  "number": 50190,
  "timestamp": 1438985182,
  "nonce": "0x98ccbd7341f94437",
  "difficulty": 1516383663650,
  "gasLimit": {
    "_hex": "0x55a5c"
  },
  "gasUsed": {
    "_hex": "0x5208"
  },
  "miner": "0xbb7B8287f3F0a933474a79eAe42CBCa977791171",
  "extraData": "0x476574682f4c5649562f76312e302e312f6c696e75782f676f312e342e32",
  "transactions": [
    {
      "hash": "0xa74279338078c594447440748c7fbc68f249c240638a4b074d826987d0850f7d",
      "blockHash": "0x41c7472122adc44ba791b6102d09d1a985d9dad5e4547ed8ff7c72d17ee5f354",
      "blockNumber": 50190,
      "transactionIndex": 0,
      "confirmations": null,
      "from": "0x85A2F6ea94D05E8C1d9Ae2F4910338a358e98DeD",
      "gasPrice": {
        "_hex": "0xd49a919f5"
      },
      "gasLimit": {
        "_hex": "0x15f90"
      },
      "to": "0x23C24C8586531e5Ea9DA9EcAdE68724f7ec6b9EA",
      "value": {
        "_hex": "0x56bc75e2d63100000"
      },
      "nonce": 4,
      "data": "0x",
      "r": "0x032cd5f681d584ba1288effe7951f0cb04677624ff843b2c93bba2df20d46cbe",
      "s": "0x53bf80ba48f24dd6f2f8597acbf2278331d30143e6704050477979ed90b40b0a",
      "v": 28,
      "creates": null,
      "raw": "0xf86e04850d49a919f583015f909423c24c8586531e5ea9da9ecade68724f7ec6b9ea89056bc75e2d63100000801ca0032cd5f681d584ba1288effe7951f0cb04677624ff843b2c93bba2df20d46cbea053bf80ba48f24dd6f2f8597acbf2278331d30143e6704050477979ed90b40b0a",
      "networkId": 0,
      "chainId": 0
    }
  ]
}