{
  "hash": "0x04fefdff3c2be78ffca6c597acbf004d47e6977d9ab0ea3e432780452b7c0228",
  "parentHash": "0x91fc05e5098a799d087514304ed9e9f8334fb5a3cf29745e2a1db57710945194",
  "number": 121907,
  "timestamp": 1440184726,
  "nonce": "0x50a6bb90d2d20f0a",
  "difficulty": 4481976985421,
  "gasLimit": {
    "_hex": "0x2fefd8"
  },
  "gasUsed": {
    "_hex": "0x47c70"
  },
  "miner": "0xD0ee3F53eE0fCf3F9fbCcdd17BD1b6441DdC2074",
  "extraData": "0x",
  "transactions": [
    {
      "hash": "0x32aa61f834d195472683ae692b2d78244753cfe29484887eee5db52d1ad2c651",
      "blockHash": "0x04fefdff3c2be78ffca6c597acbf004d47e6977d9ab0ea3e432780452b7c0228",
      "blockNumber": 121907,
      "transactionIndex": 0,
      "confirmations": null,
      "from": "0x3629B45bBf972aDc23C064D31B7d7c6ce17415D5",
      "gasPrice": {
        "_hex": "0xdbbd8bb8d"
      },
      "gasLimit": {
        "_hex": "0x5208"
      },
      "to": "0x32Be343B94f860124dC4fEe278FDCBD38C102D88",
      "value": {
        "_hex": "0x1ee9c4317a8e2b000"
      },
      "nonce": 10,
      "data": "0x",
      "r": "0x5af018adbd15f0b682628cf194486caffd8e43c811d3d8ccf487a2bfa1870b14",
      "s": "0x261d7017981fa39bd8cc18ce6a3f3c53e3e32186b8a1569df5030d44622f958e",
      "v": 28,
      "creates": null,
      "raw": "0xf86d0a850dbbd8bb8d8252089432be343b94f860124dc4fee278fdcbd38c102d888901ee9c4317a8e2b000801ca05af018adbd15f0b682628cf194486caffd8e43c811d3d8ccf487a2bfa1870b14a0261d7017981fa39bd8cc18ce6a3f3c53e3e32186b8a1569df5030d44622f958e",
      "networkId": 0,
      "chainId": 0
    },
    {
      "hash": "0xc359a96bfad8610f21c1dd864a6796dbbd6c872561984c5f0d1d5e18d6a6b250",
      "blockHash": "0x04fefdff3c2be78ffca6c597acbf004d47e6977d9ab0ea3e432780452b7c0228",
      "blockNumber": 121907,
      "transactionIndex": 1,
      "confirmations": null,
      "from": "0x4Dbfc5Cd4D88480476F951dbCD591396773aE56c",
      "gasPrice": {
        "_hex": "0xdbbd8bb8d"
      },
      "gasLimit": {
        "_hex": "0x5208"
      },
      "to": "0x32Be343B94f860124dC4fEe278FDCBD38C102D88",
      "value": {
        "_hex": "0x120434c5d4ec41000"
      },
      "nonce": 12,
      "data": "0x",
      "r": "0xabea0136165d2b434bac46c9e0d0e90beb81deccf26f4a9b74c5abf555af2d34",
      "s": "0x25988072c8d77c28d18834047ac7ed9cd8890814f2008cd77b68a0e10195e921",
      "v": 28,
      "creates": null,
      "raw": "0xf86d0c850dbbd8bb8d8252089432be343b94f860124dc4fee278fdcbd38c102d88890120434c5d4ec41000801ca0abea0136165d2b434bac46c9e0d0e90beb81deccf26f4a9b74c5abf555af2d34a025988072c8d77c28d18834047ac7ed9cd8890814f2008cd77b68a0e10195e921",
      "networkId": 0,
      "chainId": 0
    },
    {
      "hash": "0x5c9b4603bc4d98f6267af8657c9f74540a0b6825fb13c8e492d27d0772c510d8",
      "blockHash": "0x04fefdff3c2be78ffca6c597acbf004d47e6977d9ab0ea3e432780452b7c0228",
      "blockNumber": 121907,
      "transactionIndex": 2,
      "confirmations": null,
      "from": "0xcA422f88253D0492F13F304eBCF34892B3c07AEc",
      "gasPrice": {
        "_hex": "0xdbbd8bb8d"
      },
      "gasLimit": {
        "_hex": "0x5208"
      },
      "to": "0x32Be343B94f860124dC4fEe278FDCBD38C102D88",
      "value": {
        "_hex": "0x35d0c8fd7028cc00"
      },
      "nonce": 12,
      "data": "0x",
      "r": "0x466a3b965d6c431fd8d82558871bdbbc4ebeb551cfde7623c95fe881e3b8c12d",
      "s": "0x3dec04fa76888dee5e27eee48be9325e7e9a567d73c3b9f4ef5053772b3e0002",
      "v": 27,
      "creates": null,
      "raw": "0xf86c0c850dbbd8bb8d8252089432be343b94f860124dc4fee278fdcbd38c102d888835d0c8fd7028cc00801ba0466a3b965d6c431fd8d82558871bdbbc4ebeb551cfde7623c95fe881e3b8c12da03dec04fa76888dee5e27eee48be9325e7e9a567d73c3b9f4ef5053772b3e0002",
      "networkId": 0,
      "chainId": 0
    },
    {
      "hash": "0x416ee1c0d6ef8bb81aeda2b45edc3bd4b8801bb176239b7f406e3f09171aeefc",
      "blockHash": "0x04fefdff3c2be78ffca6c597acbf004d47e6977d9ab0ea3e432780452b7c0228",
      "blockNumber": 121907,
      "transactionIndex": 3,
      "confirmations": null,
      "from": "0xa6BDc31c431B8F97848c9D60cbbe9660dc450eB7",
      "gasPrice": {
        "_hex": "0xdbbd8bb8d"
      },
      "gasLimit": {
        "_hex": "0x5208"
      },
      "to": "0x32Be343B94f860124dC4fEe278FDCBD38C102D88",
      "value": {
        "_hex": "0xceb70858ca935000"
      },
      "nonce": 214,
      "data": "0x",
      "r": "0x4932a350e9beb356745ba1dd12ae6888940ce92ad7c75b86270b2c215f6a1aae",
      "s": "0x6d3ff359cab7ebbdb8e7a708f6fc396eb75a34b527723d6d450cae313389bfae",
      "v": 28,
      "creates": null,
      "raw": "0xf86d81d6850dbbd8bb8d8252089432be343b94f860124dc4fee278fdcbd38c102d8888ceb70858ca935000801ca04932a350e9beb356745ba1dd12ae6888940ce92ad7c75b86270b2c215f6a1aaea06d3ff359cab7ebbdb8e7a708f6fc396eb75a34b527723d6d450cae313389bfae",
      "networkId": 0,
      "chainId": 0
    },
    {
      "hash": "0x18f9063516f3da605d24fc6759a518ae584096d3c837e844b108b653cddc5a78",
      "blockHash": "0x04fefdff3c2be78ffca6c597acbf004d47e6977d9ab0ea3e432780452b7c0228",
      "blockNumber": 121907,
      "transactionIndex": 4,
      "confirmations": null,
      "from": "0x93b3437645A67059E280a3317a93c57e2f4788EA",
      "gasPrice": {
        "_hex": "0xdbbd8bb8d"
      },
      "gasLimit": {
        "_hex": "0x5208"
      },
      "to": "0x32Be343B94f860124dC4fEe278FDCBD38C102D88",
      "value": {
        "_hex": "0xafb7f69ef7e9d000"
      },
      "nonce": 12,
      "data": "0x",
      "r": "0xdee3030dd559c5162e23172150597ad2867ad8c083629f66a4f3600cde09eceb",
      "s": "0x1f6c968367db442cee39a56cb25b44e7510f95d994a2d34d7f20b7dc87679d79",
      "v": 27,
      "creates": null,
      "raw": "0xf86c0c850dbbd8bb8d8252089432be343b94f860124dc4fee278fdcbd38c102d8888afb7f69ef7e9d000801ba0dee3030dd559c5162e23172150597ad2867ad8c083629f66a4f3600cde09eceba01f6c968367db442cee39a56cb25b44e7510f95d994a2d34d7f20b7dc87679d79",
      "networkId": 0,
      "chainId": 0
    },
    {
      "hash": "0x709f47f495131c731c58dec390c23dab71e8de30362822658525f9b791ac3527",
      "blockHash": "0x04fefdff3c2be78ffca6c597acbf004d47e6977d9ab0ea3e432780452b7c0228",
      "blockNumber": 121907,
      "transactionIndex": 5,
      "confirmations": null,
      "from": "0x164d6C84C4D54AA3E22A5b2B72cFb968eDe862C5",
      "gasPrice": {
        "_hex": "0xdbbd8bb8d"
      },
      "gasLimit": {
        "_hex": "0x5208"
      },
      "to": "0x32Be343B94f860124dC4fEe278FDCBD38C102D88",
      "value": {
        "_hex": "0xfbaa59a63804b800"
      },
      "nonce": 10,
      "data": "0x",
      "r": "0x9a5a2c2a1f9118054cba758f4beba92f98f25b0024b42e43cf8011f3bb130762",
      "s": "0x0a269545449f586d277e69af733f66549025036cc50718f1dbc0e3f8e6680c95",
      "v": 28,
      "creates": null,
      "raw": "0xf86c0a850dbbd8bb8d8252089432be343b94f860124dc4fee278fdcbd38c102d8888fbaa59a63804b800801ca09a5a2c2a1f9118054cba758f4beba92f98f25b0024b42e43cf8011f3bb130762a00a269545449f586d277e69af733f66549025036cc50718f1dbc0e3f8e6680c95",
      "networkId": 0,
      "chainId": 0
    },
    {
      "hash": "0xf563c2bc9b6d942cc59a77987181476d71071e939960a120e7732124831e6541",
      "blockHash": "0x04fefdff3c2be78ffca6c597acbf004d47e6977d9ab0ea3e432780452b7c0228",
      "blockNumber": 121907,
      "transactionIndex": 6,
      "confirmations": null,
      "from": "0x972ad000397A3c903299F1353d6d4b85eE4E4e2A",
      "gasPrice": {
        "_hex": "0xdbbd8bb8d"
      },
      "gasLimit": {
        "_hex": "0x5208"
      },
      "to": "0x32Be343B94f860124dC4fEe278FDCBD38C102D88",
      "value": {
        "_hex": "0xa7f71ded9f62c000"
      },
      "nonce": 24,
      "data": "0x",
      "r": "0xe5c6ac0c3e2ee62ec70e3fa7df1ba6ae6f209c896826fb457faf2316214a70ba",
      "s": "0x33a0e2a265bebcfa237e96e5ca0b6a6a21609cd5d9ba9ed6e9f8cdfd7f4fcb3c",
      "v": 28,
      "creates": null,
      "raw": "0xf86c18850dbbd8bb8d8252089432be343b94f860124dc4fee278fdcbd38c102d8888a7f71ded9f62c000801ca0e5c6ac0c3e2ee62ec70e3fa7df1ba6ae6f209c896826fb457faf2316214a70baa033a0e2a265bebcfa237e96e5ca0b6a6a21609cd5d9ba9ed6e9f8cdfd7f4fcb3c",
      "networkId": 0,
      "chainId": 0
    },
    {
      "hash": "0x37b42f715e72d41795bcc7b24ac535c0a992ae74f6e2ed82cc672800b0a4f2fc",
      "blockHash": "0x04fefdff3c2be78ffca6c597acbf004d47e6977d9ab0ea3e432780452b7c0228",
      "blockNumber": 121907,
      "transactionIndex": 7,
      "confirmations": null,
      "from": "0x1CaC89419da71AC175A5B99CEE0163720430990c",
      "gasPrice": {
        "_hex": "0xdbbd8bb8d"
      },
      "gasLimit": {
        "_hex": "0x5208"
      },
      "to": "0x32Be343B94f860124dC4fEe278FDCBD38C102D88",
      "value": {
        "_hex": "0xab803cd1f754c000"
      },
      "nonce": 13,
      "data": "0x",
      "r": "0x628711d0d83a0314fc686d37abe99053997f5ab45131c3772fd6f0f96daf187e",
      "s": "0x5acf0bc881a0e27d62a4a2ece8023932d0d437cbe71bc189a3f29d5661273d26",
      "v": 27,
      "creates": null,
      "raw": "0xf86c0d850dbbd8bb8d8252089432be343b94f860124dc4fee278fdcbd38c102d8888ab803cd1f754c000801ba0628711d0d83a0314fc686d37abe99053997f5ab45131c3772fd6f0f96daf187ea05acf0bc881a0e27d62a4a2ece8023932d0d437cbe71bc189a3f29d5661273d26",
      "networkId": 0,
      "chainId": 0
    },
    {
      "hash": "0xb72509968fd4f5c312c426368ed9e316c9f055ef575c1997257e3f7e0f52b3a7",
      "blockHash": "0x04fefdff3c2be78ffca6c597acbf004d47e6977d9ab0ea3e432780452b7c0228",
      "blockNumber": 121907,
      "transactionIndex": 8,
      "confirmations": null,
      "from": "0x6964b95BF8BA16b837e2f3Ae8dA7D299553eC1f7",
      "gasPrice": {
        "_hex": "0xdbbd8bb8d"
      },
      "gasLimit": {
        "_hex": "0x5208"
      },
      "to": "0x32Be343B94f860124dC4fEe278FDCBD38C102D88",
      "value": {
        "_hex": "0x1532966ecc4a26000"
      },
      "nonce": 13,
      "data": "0x",
      "r": "0xa6ac220d9c249498dc58a52fd4f13341c6734d438dfb35a7ad7e24c9bc3e71ef",
      "s": "0x15eaed1efe95bdfb4c715faab066a0515ef22160728edeeb296927a2c7af4d38",
      "v": 28,
      "creates": null,
      "raw": "0xf86d0d850dbbd8bb8d8252089432be343b94f860124dc4fee278fdcbd38c102d888901532966ecc4a26000801ca0a6ac220d9c249498dc58a52fd4f13341c6734d438dfb35a7ad7e24c9bc3e71efa015eaed1efe95bdfb4c715faab066a0515ef22160728edeeb296927a2c7af4d38",
      "networkId": 0,
      "chainId": 0
    },
    {
      "hash": "0x252dec6bd13a5d56429fcc519bbe787248e7c8a7c5a6a4556ca262f967ce8270",
      "blockHash": "0x04fefdff3c2be78ffca6c597acbf004d47e6977d9ab0ea3e432780452b7c0228",
      "blockNumber": 121907,
      "transactionIndex": 9,
      "confirmations": null,
      "from": "0xe70361D11B44B2fBA997417D7AAa26eb69EBfef0",
      "gasPrice": {
        "_hex": "0xdbbd8bb8d"
      },
      "gasLimit": {
        "_hex": "0x5208"
      },
      "to": "0x32Be343B94f860124dC4fEe278FDCBD38C102D88",
      "value": {
        "_hex": "0xb21a06f342039000"
      },
      "nonce": 12,
      "data": "0x",
      "r": "0x3829e87ea5f70cebe32a88b60e108cd1a69415e84ddc3456468dc4b2ec83d9a5",
      "s": "0x088056d46488c8582df1c23707ef79bef01df1c00d5c9e5870d26d73634b963d",
      "v": 28,
      "creates": null,
      "raw": "0xf86c0c850dbbd8bb8d8252089432be343b94f860124dc4fee278fdcbd38c102d8888b21a06f342039000801ca03829e87ea5f70cebe32a88b60e108cd1a69415e84ddc3456468dc4b2ec83d9a5a0088056d46488c8582df1c23707ef79bef01df1c00d5c9e5870d26d73634b963d",
      "networkId": 0,
      "chainId": 0
    },
    {
      "hash": "0x1cad48b885c93afc64fe94387993343453c19393140554c7a4dc2e6c5a14a1f9",
      "blockHash": "0x04fefdff3c2be78ffca6c597acbf004d47e6977d9ab0ea3e432780452b7c0228",
      "blockNumber": 121907,
      "transactionIndex": 10,
      "confirmations": null,
      "from": "0x5248EfBC7319bd65d436374266765D9727253F12",
      "gasPrice": {
        "_hex": "0xdbbd8bb8d"
      },
      "gasLimit": {
        "_hex": "0x5208"
      },
      "to": "0x32Be343B94f860124dC4fEe278FDCBD38C102D88",
      "value": {
        "_hex": "0xfe025ec3a6f7b000"
      },
      "nonce": 15,
      "data": "0x",
      "r": "0x2f1b32b8201c9a25a4dcc4858bfe376a3a4290ca3f074fa571fd1b7196f71fb2",
      "s": "0x30c6ec89538651dc7755d305e649fc0ec2d768826f083f84dd72371e1a63ec78",
      "v": 28,
      "creates": null,
      "raw": "0xf86c0f850dbbd8bb8d8252089432be343b94f860124dc4fee278fdcbd38c102d8888fe025ec3a6f7b000801ca02f1b32b8201c9a25a4dcc4858bfe376a3a4290ca3f074fa571fd1b7196f71fb2a030c6ec89538651dc7755d305e649fc0ec2d768826f083f84dd72371e1a63ec78",
      "networkId": 0,
      "chainId": 0
    },
    {
      "hash": "0x2ebb7397a269027aa347b7d142b7e8b02fabefc135ca14382c8f5c7aa2ebd9a5",
      "blockHash": "0x04fefdff3c2be78ffca6c597acbf004d47e6977d9ab0ea3e432780452b7c0228",
      "blockNumber": 121907,
      "transactionIndex": 11,
      "confirmations": null,
      "from": "0x04a2a3ee9C9ea82e1F918ecE209f8A7E6d7521E7",
      "gasPrice": {
        "_hex": "0xdbbd8bb8d"
      },
      "gasLimit": {
        "_hex": "0x5208"
      },
      "to": "0x32Be343B94f860124dC4fEe278FDCBD38C102D88",
      "value": {
        "_hex": "0xb1d5c91a67c66000"
      },
      "nonce": 22,
      "data": "0x",
      "r": "0xc16fcce2ede818f323f9b5b1d06b935973cbf49d934856ab1d8aeac075c482d6",
      "s": "0x34991e0b4d2152f73b08ddaba71cc345657d3a9084ef0f0f2fb7bc7df208836b",
      "v": 28,
      "creates": null,
      "raw": "0xf86c16850dbbd8bb8d8252089432be343b94f860124dc4fee278fdcbd38c102d8888b1d5c91a67c66000801ca0c16fcce2ede818f323f9b5b1d06b935973cbf49d934856ab1d8aeac075c482d6a034991e0b4d2152f73b08ddaba71cc345657d3a9084ef0f0f2fb7bc7df208836b",
      "networkId": 0,
      "chainId": 0
    },
    {
      "hash": "0x32310b609d0352c0cdd0e161d67e1affc7ad941a74fc63f27fdc4c01827adaef",
      "blockHash": "0x04fefdff3c2be78ffca6c597acbf004d47e6977d9ab0ea3e432780452b7c0228",
      "blockNumber": 121907,
      "transactionIndex": 12,
      "confirmations": null,
      "from": "0x6d921977dEFE5f4e0682CA512De1D07b1f4802E1",
      "gasPrice": {
        "_hex": "0xdbbd8bb8d"
      },
      "gasLimit": {
        "_hex": "0x5208"
      },
      "to": "0x32Be343B94f860124dC4fEe278FDCBD38C102D88",
      "value": {
        "_hex": "0x176aede5902046000"
      },
      "nonce": 30,
      "data": "0x",
      "r": "0x5156fe9f6773ac184767e8a2b225b3454e1ca813c4bec685a6eee82bc30b0200",
      "s": "0x7affb5c03c560c8f288422aa55398c37f17594c96cebbeaa8010df0af4d6b60e",
      "v": 28,
      "creates": null,
      "raw": "0xf86d1e850dbbd8bb8d8252089432be343b94f860124dc4fee278fdcbd38c102d88890176aede5902046000801ca05156fe9f6773ac184767e8a2b225b3454e1ca813c4bec685a6eee82bc30b0200a07affb5c03c560c8f288422aa55398c37f17594c96cebbeaa8010df0af4d6b60e",
      "networkId": 0,
      "chainId": 0
    },
    {
      "hash": "0x2a872cf2e17e840274325101e65a07d0430d5ed3b367e64967ba08228eab2e67",
      "blockHash": "0x04fefdff3c2be78ffca6c597acbf004d47e6977d9ab0ea3e432780452b7c0228",
      "blockNumber": 121907,
      "transactionIndex": 13,
      "confirmations": null,
      "from": "0x2910543Af39abA0Cd09dBb2D50200b3E800A63D2",
      "gasPrice": {
        "_hex": "0xdac6cf1cd"
      },
      "gasLimit": {
        "_hex": "0x5208"
      },
      "to": "0x76E986CECF77a5b5D7595172aadb3A7A37E1044B",
      "value": {
        "_hex": "0x2f9d237a761118000"
      },
      "nonce": 1204,
      "data": "0x",
      "r": "0x796914797b9c7736222bca40782d0ae31aba9e651263d397449324c50ee03093",
      "s": "0x7fdb3b08644551efcb83ec916f08d08258c4599d8ef6aa65815f6c76f6071fd5",
      "v": 27,
      "creates": null,
      "raw": "0xf86f8204b4850dac6cf1cd8252089476e986cecf77a5b5d7595172aadb3a7a37e1044b8902f9d237a761118000801ba0796914797b9c7736222bca40782d0ae31aba9e651263d397449324c50ee03093a07fdb3b08644551efcb83ec916f08d08258c4599d8ef6aa65815f6c76f6071fd5",
      "networkId": 0,
      "chainId": 0
    }
  ]
}