{
  "hash": "0xf148476230c9f05fced15db9b2522e66940abe524bde4b1c6fdbadd0943562b3",
  "parentHash": "0xd33e42fa562fd26e7359ad4890a04764ff4e7212399f668f26e292e553d2ba3b",
  "number": 81066,
  "timestamp": 1439495650,
  "nonce": "0x31fda4c2c4c365c9",
  "difficulty": 2430832035226,
  "gasLimit": {
    "_hex": "0x2fefd8"
  },
  "gasUsed": {
    "_hex": "0x5208"
  },
  "miner": "0xe090Ffdced499691fA9379752a59F8A058c1eE4A",
  "extraData": "0x476574682f76312e302e312f6c696e75782f676f312e342e32",
  "transactions": [
    {
      "hash": "0x2ab701f3c62dfa8e62d1034e88ce4f007d20eb8ef3a9dbfcaee23d93cf878cb0",
      "blockHash": "0xf148476230c9f05fced15db9b2522e66940abe524bde4b1c6fdbadd0943562b3",
      "blockNumber": 81066,
      "transactionIndex": 0,
      "confirmations": null,
      "from": "0xF2Edde37F9a8C39ddeA24D79f4015757D06BF786",
      "gasPrice": {
        "_hex": "0xcb6613a5d"
      },
      "gasLimit": {
        "_hex": "0x5208"
      },
      "to": "0x738e836870D34d909F8De81Ae8c759cf55f4EAaF",
      "value": {
        "_hex": "0x10f0cf064dd59200000"
      },
      "nonce": 2,
      "data": "0x",
      "r": "0x61c06dbf0b269e0fc26607c344d7c0b45933d99d9b8c971c7e8bcd283bd27cc3",
      "s": "0x32e09d7dee27a142203f17c1ba4259cad2e011ef58632aada1656869bae3f7f3",
      "v": 28,
      "creates": null,
      "raw": "0xf86e02850cb6613a5d82520894738e836870d34d909f8de81ae8c759cf55f4eaaf8a010f0cf064dd59200000801ca061c06dbf0b269e0fc26607c344d7c0b45933d99d9b8c971c7e8bcd283bd27cc3a032e09d7dee27a142203f17c1ba4259cad2e011ef58632aada1656869bae3f7f3",
      "networkId": 0,
      "chainId": 0
    }
  ]
}