{
  "hash": "0x9f2a8830231c32ab3c4700d942c17d19f706f91d988bb2e54478b42d2d85c798",
  "parentHash": "0xb8a5a6e6d0ced8e7cf65c788859a672a0fc2c6d838d7c504c39d11537696b0a8",
  "number": 99489,
  "timestamp": 1439791063,
  "nonce": "0x3d58d10afab1b1bb",
  "difficulty": 3776918765679,
  "gasLimit": {
    "_hex": "0x2fefd8"
  },
  "gasUsed": {
    "_hex": "0x5208"
  },
  "miner": "0xC603Ab5ef41fC61AA8b76bEddb09e3Cfcbb174BD",
  "extraData": "0x476574682f76312e302e312f77696e646f77732f676f312e342e32",
  "transactions": [
    {
      "hash": "0x03563b593c63d92af13c595e3da45943b03fbb4061a4fc799a51aaba7e64838a",
      "blockHash": "0x9f2a8830231c32ab3c4700d942c17d19f706f91d988bb2e54478b42d2d85c798",
      "blockNumber": 99489,
      "transactionIndex": 0,
      "confirmations": null,
      "from": "0xC02516234B2c5eA2fdE935a1a1B079E952047fd5",
      "gasPrice": {
        "_hex": "0xd11867d25"
      },
      "gasLimit": {
        "_hex": "0x5208"
      },
      "to": "0x32Be343B94f860124dC4fEe278FDCBD38C102D88",
      "value": {
        "_hex": "0xdcab8bf674d5000"
      },
      "nonce": 0,
      "data": "0x",
      "r": "0x4e53c0a4c1c89e61b25f2a8f837f01e11367f4ede329852d43fcef6b611cb86c",
      "s": "0x69c7ab68fbc89d0e2c9df41de7fd59ea6312288b434ec45d698e5aee078134ce",
      "v": 28,
      "creates": null,
      "raw": "0xf86c80850d11867d258252089432be343b94f860124dc4fee278fdcbd38c102d88880dcab8bf674d5000801ca04e53c0a4c1c89e61b25f2a8f837f01e11367f4ede329852d43fcef6b611cb86ca069c7ab68fbc89d0e2c9df41de7fd59ea6312288b434ec45d698e5aee078134ce",
      "networkId": 0,
      "chainId": 0
    }
  ]
}