{
  "hash": "0x3f65aa5996e3d385b486a57c0f510d9c5d11ca3fc0acd3330d3aa4278bd69a8b",
  "parentHash": "0x934104366c2e25b65ed1061d39dae78d004054e74fa0f29afec3c0a1cde5facd",
  "number": 80090,
  "timestamp": 1439480003,
  "nonce": "0xfd6941cd1e9625f8",
  "difficulty": 2347130916282,
  "gasLimit": {
    "_hex": "0x2fefd8"
  },
  "gasUsed": {
    "_hex": "0x5208"
  },
  "miner": "0xf8E0CA3Ed80bd541b94BEdCf259e8CF2141A9523",
  "extraData": "0x476574682f76312e302e312f77696e646f77732f676f312e342e32",
  "transactions": [
    {
      "hash": "0x48c64cde5fc47a1a3b73a11e3631a7664ccc9d9c47fe5df18d87411dc8a9d410",
      "blockHash": "0x3f65aa5996e3d385b486a57c0f510d9c5d11ca3fc0acd3330d3aa4278bd69a8b",
      "blockNumber": 80090,
      "transactionIndex": 0,
      "confirmations": null,
      "from": "0x32Be343B94f860124dC4fEe278FDCBD38C102D88",
      "gasPrice": {
        "_hex": "0xd88789975"
      },
      "gasLimit": {
        "_hex": "0x5208"
      },
      "to": "0xf747F959535B01d4BfDAB64A40DB48D0D6c68edb",
      "value": {
        "_hex": "0x60cfbb0a21200000"
      },
      "nonce": 509,
      "data": "0x",
      "r": "0xa4098501dbd06978fc91678b2e25fb156ae147e7fad55c97c8658581b1163c47",
      "s": "0x49895f106b3c35924c9e7e77fa9765730d97056793fd266bde8b8b475aa3398e",
      "v": 28,
      "creates": null,
      "raw": "0xf86e8201fd850d8878997582520894f747f959535b01d4bfdab64a40db48d0d6c68edb8860cfbb0a21200000801ca0a4098501dbd06978fc91678b2e25fb156ae147e7fad55c97c8658581b1163c47a049895f106b3c35924c9e7e77fa9765730d97056793fd266bde8b8b475aa3398e",
      "networkId": 0,
      "chainId": 0
    }
  ]
}