{
  "hash": "0x793267a31fe2144524a13ac1f263a3925ffe83392b634ecd0ff23e2e25e4460c",
  "parentHash": "0x6a489e77dd27816d4f00015c287a66061f1dc21195a7b36a8eeaa407632c3456",
  "number": 84285,
  "timestamp": 1439547554,
  "nonce": "0xe1475c503f07b02a",
  "difficulty": 2530399542677,
  "gasLimit": {
    "_hex": "0x2fefd8"
  },
  "gasUsed": {
    "_hex": "0x802c8"
  },
  "miner": "0x87898CE53471043FcCa0a2aF4E1dC6d8B3fCf607",
  "extraData": "0x476574682f5369626572696131392f76312e302e312d37666266393930632f6c",
  "transactions": [
    {
      "hash": "0x527a026e36e3bd3faf147e772297a4441a7b66fa81976e703f67bbc3514d327d",
      "blockHash": "0x793267a31fe2144524a13ac1f263a3925ffe83392b634ecd0ff23e2e25e4460c",
      "blockNumber": 84285,
      "transactionIndex": 0,
      "confirmations": null,
      "from": "0xe6A7a1d47ff21B6321162AEA7C6CB457D5476Bca",
      "gasPrice": {
        "_hex": "0xe00565a9b"
      },
      "gasLimit": {
        "_hex": "0x55f0"
      },
      "to": "0x46b29910396E1cF71678f81101334A180876E9b1",
      "value": {
        "_hex": "0x98112d28596046d8"
      },
      "nonce": 1780,
      "data": "0x",
      "r": "0x54701e83113ce59fe2cdccdaf763e8939ad75074708dc5c958dc735edf53e078",
      "s": "0x3abd94c6cfd264856c6c957ce9ffd3b0c249ad47096779b2dad35080cd65a879",
      "v": 28,
      "creates": null,
      "raw": "0xf86e8206f4850e00565a9b8255f09446b29910396e1cf71678f81101334a180876e9b18898112d28596046d8801ca054701e83113ce59fe2cdccdaf763e8939ad75074708dc5c958dc735edf53e078a03abd94c6cfd264856c6c957ce9ffd3b0c249ad47096779b2dad35080cd65a879",
      "networkId": 0,
      "chainId": 0
    },
    {
      "hash": "0x99dd3af54e0b6d03bce42e8845bee881cd67ce7a38bafbba045a191131e86d21",
      "blockHash": "0x793267a31fe2144524a13ac1f263a3925ffe83392b634ecd0ff23e2e25e4460c",
      "blockNumber": 84285,
      "transactionIndex": 1,
      "confirmations": null,
      "from": "0xe6A7a1d47ff21B6321162AEA7C6CB457D5476Bca",
      "gasPrice": {
        "_hex": "0xe00565a9b"
      },
      "gasLimit": {
        "_hex": "0x55f0"
      },
      "to": "0x7550E0d09f273C690454B44F794D7D381B2E55EA",
      "value": {
        "_hex": "0x9a64f61be212de48"
      },
      "nonce": 1781,
      "data": "0x",
      "r": "0xd2ef7bed48a68818b3ad52b44c4e439eb31bfdfa6fb48b52471e676135b62acd",
      "s": "0x054b7551c825ce174ba0bbb6aaa0d41c833401c3a463699974d2b0fc19d2c356",
      "v": 27,
      "creates": null,
      "raw": "0xf86e8206f5850e00565a9b8255f0947550e0d09f273c690454b44f794d7d381b2e55ea889a64f61be212de48801ba0d2ef7bed48a68818b3ad52b44c4e439eb31bfdfa6fb48b52471e676135b62acda0054b7551c825ce174ba0bbb6aaa0d41c833401c3a463699974d2b0fc19d2c356",
      "networkId": 0,
      "chainId": 0
    },
    {
      "hash": "0xccb4b104a40460546f6f0c4b12da306d616ce4b7403cd31e9e267e7b5c94a729",
      "blockHash": "0x793267a31fe2144524a13ac1f263a3925ffe83392b634ecd0ff23e2e25e4460c",
      "blockNumber": 84285,
      "transactionIndex": 2,
      "confirmations": null,
      "from": "0xe6A7a1d47ff21B6321162AEA7C6CB457D5476Bca",
      "gasPrice": {
        "_hex": "0xe00565a9b"
      },
      "gasLimit": {
        "_hex": "0x55f0"
      },
      "to": "0xaa71fa80d26F718E6A3c87e41D817b8D10944a63",
      "value": {
        "_hex": "0x9d27b3153b74d0b0"
      },
      "nonce": 1782,
      "data": "0x",
      "r": "0xaabd51abd75fe5aea732f88fce41967a631ad1f5f74abe53f401f950b35d485c",
      "s": "0x13b7f6414b19c59f067e5dfbf3c082bfafc01dbbc1a3fdbf7845995c924bc083",
      "v": 27,
      "creates": null,
      "raw": "0xf86e8206f6850e00565a9b8255f094aa71fa80d26f718e6a3c87e41d817b8d10944a63889d27b3153b74d0b0801ba0aabd51abd75fe5aea732f88fce41967a631ad1f5f74abe53f401f950b35d485ca013b7f6414b19c59f067e5dfbf3c082bfafc01dbbc1a3fdbf7845995c924bc083",
      "networkId": 0,
      "chainId": 0
    },
    {
      "hash": "0xe13b376db5ae4b3430c47f542cc72c34c4e575c3191ae3a2ad6528a52477b656",
      "blockHash": "0x793267a31fe2144524a13ac1f263a3925ffe83392b634ecd0ff23e2e25e4460c",
      "blockNumber": 84285,
      "transactionIndex": 3,
      "confirmations": null,
      "from": "0xe6A7a1d47ff21B6321162AEA7C6CB457D5476Bca",
      "gasPrice": {
        "_hex": "0xe00565a9b"
      },
      "gasLimit": {
        "_hex": "0x55f0"
      },
      "to": "0x9Fa9952255B2b06639A04D63804d4BdFFf6E2d7e",
      "value": {
        "_hex": "0x9ef6a8bdc9bb9f48"
      },
      "nonce": 1783,
      "data": "0x",
      "r": "0xcb84208cdb947cba1b2889a64f991b5001d3c0b9cdf3e87c65045b74fbc155ec",
      "s": "0x4308d1c0d2929b3c6003a725383ccefc79eb4682a28dd628b9cfa1b55bb1755a",
      "v": 28,
      "creates": null,
      "raw": "0xf86e8206f7850e00565a9b8255f0949fa9952255b2b06639a04d63804d4bdfff6e2d7e889ef6a8bdc9bb9f48801ca0cb84208cdb947cba1b2889a64f991b5001d3c0b9cdf3e87c65045b74fbc155eca04308d1c0d2929b3c6003a725383ccefc79eb4682a28dd628b9cfa1b55bb1755a",
      "networkId": 0,
      "chainId": 0
    },
    {
      "hash": "0x96fa62faa33cd0f94faf20658541e60259d7dbc485dadb871c55f054d8143416",
      "blockHash": "0x793267a31fe2144524a13ac1f263a3925ffe83392b634ecd0ff23e2e25e4460c",
      "blockNumber": 84285,
      "transactionIndex": 4,
      "confirmations": null,
      "from": "0xe6A7a1d47ff21B6321162AEA7C6CB457D5476Bca",
      "gasPrice": {
        "_hex": "0xe00565a9b"
      },
      "gasLimit": {
        "_hex": "0x55f0"
      },
      "to": "0x305E8d20Ca61Ba9DD2DD18E1134e7CDB9a13F68D",
      "value": {
        "_hex": "0x9f5ca7c8a5c44f70"
      },
      "nonce": 1784,
      "data": "0x",
      "r": "0xc0beebd7521e7c6b78eb6dd2a044938d9955ba6d60a162cad46d9a0e3134c235",
      "s": "0x54547a5e256df6af2f27b87dfbdd94dbd52ff7c248bcaf5c82935f3a53283327",
      "v": 28,
      "creates": null,
      "raw": "0xf86e8206f8850e00565a9b8255f094305e8d20ca61ba9dd2dd18e1134e7cdb9a13f68d889f5ca7c8a5c44f70801ca0c0beebd7521e7c6b78eb6dd2a044938d9955ba6d60a162cad46d9a0e3134c235a054547a5e256df6af2f27b87dfbdd94dbd52ff7c248bcaf5c82935f3a53283327",
      "networkId": 0,
      "chainId": 0
    },
    {
      "hash": "0x71552f021df244d7e2f8e164ecdad3eda2cb045e1bc22ba4b4549a1f54734696",
      "blockHash": "0x793267a31fe2144524a13ac1f263a3925ffe83392b634ecd0ff23e2e25e4460c",
      "blockNumber": 84285,
      "transactionIndex": 5,
      "confirmations": null,
      "from": "0xe6A7a1d47ff21B6321162AEA7C6CB457D5476Bca",
      "gasPrice": {
        "_hex": "0xe00565a9b"
      },
      "gasLimit": {
        "_hex": "0x55f0"
      },
      "to": "0xB4f6A8f7Cd91Cd4bcADcc0a20e417c392E5f50A4",
      "value": {
        "_hex": "0xa002ed35f9c9a738"
      },
      "nonce": 1785,
      "data": "0x",
      "r": "0x291e5f0d464b3c3086486624977156f51c308278923d3787af642b06755b2ce1",
      "s": "0x4ab5bcca48a37fdbbc2d9dc5952093e41b956becb40a77e046f42a079bd83d47",
      "v": 28,
      "creates": null,
      "raw": "0xf86e8206f9850e00565a9b8255f094b4f6a8f7cd91cd4bcadcc0a20e417c392e5f50a488a002ed35f9c9a738801ca0291e5f0d464b3c3086486624977156f51c308278923d3787af642b06755b2ce1a04ab5bcca48a37fdbbc2d9dc5952093e41b956becb40a77e046f42a079bd83d47",
      "networkId": 0,
      "chainId": 0
    },
    {
      "hash": "0xe4086129ac8b5d2d01152904aba08156d36ff0523de42c470a184889231d89c2",
      "blockHash": "0x793267a31fe2144524a13ac1f263a3925ffe83392b634ecd0ff23e2e25e4460c",
      "blockNumber": 84285,
      "transactionIndex": 6,
      "confirmations": null,
      "from": "0xe6A7a1d47ff21B6321162AEA7C6CB457D5476Bca",
      "gasPrice": {
        "_hex": "0xe00565a9b"
      },
      "gasLimit": {
        "_hex": "0x55f0"
      },
      "to": "0xB7A755cBC2Bb4D94e844A9b1D1ff53420d836478",
      "value": {
        "_hex": "0xa2909a3e660ac9c8"
      },
      "nonce": 1786,
      "data": "0x",
      "r": "0xf21564fc42f0f82dbdd18e16a0bc1fda29008f4aad5ce1421f704d70df1864a3",
      "s": "0x7b3857d07780ca5c5d096bc367e318594733026610cfa651e6801e8f74a5625b",
      "v": 28,
      "creates": null,
      "raw": "0xf86e8206fa850e00565a9b8255f094b7a755cbc2bb4d94e844a9b1d1ff53420d83647888a2909a3e660ac9c8801ca0f21564fc42f0f82dbdd18e16a0bc1fda29008f4aad5ce1421f704d70df1864a3a07b3857d07780ca5c5d096bc367e318594733026610cfa651e6801e8f74a5625b",
      "networkId": 0,
      "chainId": 0
    },
    {
      "hash": "0x030a712c809393b701e64d4362ead3fea1d61acdbbe83e0945d2152b118910a1",
      "blockHash": "0x793267a31fe2144524a13ac1f263a3925ffe83392b634ecd0ff23e2e25e4460c",
      "blockNumber": 84285,
      "transactionIndex": 7,
      "confirmations": null,
      "from": "0xe6A7a1d47ff21B6321162AEA7C6CB457D5476Bca",
      "gasPrice": {
        "_hex": "0xe00565a9b"
      },
      "gasLimit": {
        "_hex": "0x55f0"
      },
      "to": "0x211D45933Ef88c3D7aD0120942CF50ab506e618F",
      "value": {
        "_hex": "0xa56de3f6dbf99d80"
      },
      "nonce": 1787,
      "data": "0x",
      "r": "0x9176561c0d85feb57895e36e62ab8b0dafa600e27670ed1380a893e22b52d247",
      "s": "0x50cd21d69755a3c316eb51a0bec073ac8dfd5c6b707f312b4a8656f315cd3435",
      "v": 27,
      "creates": null,
      "raw": "0xf86e8206fb850e00565a9b8255f094211d45933ef88c3d7ad0120942cf50ab506e618f88a56de3f6dbf99d80801ba09176561c0d85feb57895e36e62ab8b0dafa600e27670ed1380a893e22b52d247a050cd21d69755a3c316eb51a0bec073ac8dfd5c6b707f312b4a8656f315cd3435",
      "networkId": 0,
      "chainId": 0
    },
    {
      "hash": "0x7c951b1b3fca6e08a015c094378a913aab1839720c0966ee5ecd344c2ab20759",
      "blockHash": "0x793267a31fe2144524a13ac1f263a3925ffe83392b634ecd0ff23e2e25e4460c",
      "blockNumber": 84285,
      "transactionIndex": 8,
      "confirmations": null,
      "from": "0xe6A7a1d47ff21B6321162AEA7C6CB457D5476Bca",
      "gasPrice": {
        "_hex": "0xe00565a9b"
      },
      "gasLimit": {
        "_hex": "0x55f0"
      },
      "to": "0x3A652ae439FFB94328afa58E11F544aFB5B85f7A",
      "value": {
        "_hex": "0xa83dc19dc4d90738"
      },
      "nonce": 1788,
      "data": "0x",
      "r": "0xd1cea6b68a936ab2b4a0e57f7eff6e5fa174aff691dab254da8e5cf105af0025",
      "s": "0x60c4ea4c30342abfd9996239af5f223356f6d00f9706a4f153103b67c0b31158",
      "v": 27,
      "creates": null,
      "raw": "0xf86e8206fc850e00565a9b8255f0943a652ae439ffb94328afa58e11f544afb5b85f7a88a83dc19dc4d90738801ba0d1cea6b68a936ab2b4a0e57f7eff6e5fa174aff691dab254da8e5cf105af0025a060c4ea4c30342abfd9996239af5f223356f6d00f9706a4f153103b67c0b31158",
      "networkId": 0,
      "chainId": 0
    },
    {
      "hash": "0x4de0364ad1e993dd5ae6224c6509a52b00eeca2d9607c7c37f3635fea5e01123",
      "blockHash": "0x793267a31fe2144524a13ac1f263a3925ffe83392b634ecd0ff23e2e25e4460c",
      "blockNumber": 84285,
      "transactionIndex": 9,
      "confirmations": null,
      "from": "0xe6A7a1d47ff21B6321162AEA7C6CB457D5476Bca",
      "gasPrice": {
        "_hex": "0xe00565a9b"
      },
      "gasLimit": {
        "_hex": "0x55f0"
      },
      "to": "0x34d34F0a638F6991e4E2536F41295DF6E934A646",
      "value": {
        "_hex": "0xa9230d995e65f640"
      },
      "nonce": 1789,
      "data": "0x",
      "r": "0xec597d1c397a89d9f0e7827f84d8e3c2d7deb5c9ff26e98a98451a511c24db87",
      "s": "0x5dc1f0525ec247a4fc70b36fcf2e0d9aa385c582835391e10cb4b607a5bfbafc",
      "v": 28,
      "creates": null,
      "raw": "0xf86e8206fd850e00565a9b8255f09434d34f0a638f6991e4e2536f41295df6e934a64688a9230d995e65f640801ca0ec597d1c397a89d9f0e7827f84d8e3c2d7deb5c9ff26e98a98451a511c24db87a05dc1f0525ec247a4fc70b36fcf2e0d9aa385c582835391e10cb4b607a5bfbafc",
      "networkId": 0,
      "chainId": 0
    },
    {
      "hash": "0x76a33ec4cff8d295aa1cf5dbb586f9da8bdd6a11d676e0256af00eea9b9b5953",
      "blockHash": "0x793267a31fe2144524a13ac1f263a3925ffe83392b634ecd0ff23e2e25e4460c",
      "blockNumber": 84285,
      "transactionIndex": 10,
      "confirmations": null,
      "from": "0xe6A7a1d47ff21B6321162AEA7C6CB457D5476Bca",
      "gasPrice": {
        "_hex": "0xe00565a9b"
      },
      "gasLimit": {
        "_hex": "0x55f0"
      },
      "to": "0x2C3d5c472E35947eb8Bf098e5207b0e1f3D1Ef91",
      "value": {
        "_hex": "0xa949099a7e325f18"
      },
      "nonce": 1790,
      "data": "0x",
      "r": "0x94ff1f9ac14171c1ca2714a8930ae184d8797812cd8b41525016887c600012f5",
      "s": "0x157f59767a7de1f8502f4179cef612e6c6b5c1064a7a749724405f97e4c60ee8",
      "v": 28,
      "creates": null,
      "raw": "0xf86e8206fe850e00565a9b8255f0942c3d5c472e35947eb8bf098e5207b0e1f3d1ef9188a949099a7e325f18801ca094ff1f9ac14171c1ca2714a8930ae184d8797812cd8b41525016887c600012f5a0157f59767a7de1f8502f4179cef612e6c6b5c1064a7a749724405f97e4c60ee8",
      "networkId": 0,
      "chainId": 0
    },
    {
      "hash": "0x2a5e9bedfa33909eac141f6a930c7ae39088ee18dd5b96f9502d70d69a78b19d",
      "blockHash": "0x793267a31fe2144524a13ac1f263a3925ffe83392b634ecd0ff23e2e25e4460c",
      "blockNumber": 84285,
      "transactionIndex": 11,
      "confirmations": null,
      "from": "0xe6A7a1d47ff21B6321162AEA7C6CB457D5476Bca",
      "gasPrice": {
        "_hex": "0xe00565a9b"
      },
      "gasLimit": {
        "_hex": "0x55f0"
      },
      "to": "0x18883522e2679aA9b41E0fA688F20c3802897525",
      "value": {
        "_hex": "0xa9efbce81367eb00"
      },
      "nonce": 1791,
      "data": "0x",
      "r": "0xc148f05605a627b7ef8d89d5dc9bf8c920bf2e98c338482f43cf5108cf062922",
      "s": "0x65de6fa48eadb8c780ffc92cf725914182b52542fe9454f1de3a76bf034d8628",
      "v": 27,
      "creates": null,
      "raw": "0xf86e8206ff850e00565a9b8255f09418883522e2679aa9b41e0fa688f20c380289752588a9efbce81367eb00801ba0c148f05605a627b7ef8d89d5dc9bf8c920bf2e98c338482f43cf5108cf062922a065de6fa48eadb8c780ffc92cf725914182b52542fe9454f1de3a76bf034d8628",
      "networkId": 0,
      "chainId": 0
    },
    {
      "hash": "0x4c27c70992de31b48f7bf49902c847ba7d48754bea080f96ccde23af24faa42c",
      "blockHash": "0x793267a31fe2144524a13ac1f263a3925ffe83392b634ecd0ff23e2e25e4460c",
      "blockNumber": 84285,
      "transactionIndex": 12,
      "confirmations": null,
      "from": "0xe6A7a1d47ff21B6321162AEA7C6CB457D5476Bca",
      "gasPrice": {
        "_hex": "0xe00565a9b"
      },
      "gasLimit": {
        "_hex": "0x55f0"
      },
      "to": "0x4CD33268dF93C6b4F6b3D504009EAE965Afe272d",
      "value": {
        "_hex": "0xae6fa2db0b079ed0"
      },
      "nonce": 1792,
      "data": "0x",
      "r": "0x475f71a7c85ffadaf59298c2170be3aaa508add01d7c7f3764e782c0ab349344",
      "s": "0x35a65dd6e9f41ca0c951904baddc7ad79c7ca84774faa7ed183235d881b70be2",
      "v": 27,
      "creates": null,
      "raw": "0xf86e820700850e00565a9b8255f0944cd33268df93c6b4f6b3d504009eae965afe272d88ae6fa2db0b079ed0801ba0475f71a7c85ffadaf59298c2170be3aaa508add01d7c7f3764e782c0ab349344a035a65dd6e9f41ca0c951904baddc7ad79c7ca84774faa7ed183235d881b70be2",
      "networkId": 0,
      "chainId": 0
    },
    {
      "hash": "0xbe4571eb2db2f722fc91f0f6fa72d56e03a29621fee26f9bd7d98dd8b12370a8",
      "blockHash": "0x793267a31fe2144524a13ac1f263a3925ffe83392b634ecd0ff23e2e25e4460c",
      "blockNumber": 84285,
      "transactionIndex": 13,
      "confirmations": null,
      "from": "0xe6A7a1d47ff21B6321162AEA7C6CB457D5476Bca",
      "gasPrice": {
        "_hex": "0xe00565a9b"
      },
      "gasLimit": {
        "_hex": "0x55f0"
      },
      "to": "0x271e8fC01E1C9E1621fD3d108e348450b2498541",
      "value": {
        "_hex": "0xaf46d163223e4ef8"
      },
      "nonce": 1793,
      "data": "0x",
      "r": "0x390137a81bc20c90bb35df9b0c57a7011556cf0241877270a2f83b1032d9f7da",
      "s": "0x46329059a6e982a04cc63a57cf10894a29bcb2dd192a9c1e5b0529f9402fd65d",
      "v": 28,
      "creates": null,
      "raw": "0xf86e820701850e00565a9b8255f094271e8fc01e1c9e1621fd3d108e348450b249854188af46d163223e4ef8801ca0390137a81bc20c90bb35df9b0c57a7011556cf0241877270a2f83b1032d9f7daa046329059a6e982a04cc63a57cf10894a29bcb2dd192a9c1e5b0529f9402fd65d",
      "networkId": 0,
      "chainId": 0
    },
    {
      "hash": "0xb1a663d079f8ae11e73b494cf0ce22d620f355ec7e69f28ece8fcb2d4c01070f",
      "blockHash": "0x793267a31fe2144524a13ac1f263a3925ffe83392b634ecd0ff23e2e25e4460c",
      "blockNumber": 84285,
      "transactionIndex": 14,
      "confirmations": null,
      "from": "0xe6A7a1d47ff21B6321162AEA7C6CB457D5476Bca",
      "gasPrice": {
        "_hex": "0xe00565a9b"
      },
      "gasLimit": {
        "_hex": "0x55f0"
      },
      "to": "0x86d3856ad0105B9d4199936c1fd203664BA325dC",
      "value": {
        "_hex": "0xb00494e54de99e28"
      },
      "nonce": 1794,
      "data": "0x",
      "r": "0xb5886ba91a33dba5156c7080029754fbd26c9bd69aac41b04f29b9ebfcaef482",
      "s": "0x37b2943b26556ceb9bd8479e5238d9afe3f11e85af98773d4a7bf159e51fcf0d",
      "v": 28,
      "creates": null,
      "raw": "0xf86e820702850e00565a9b8255f09486d3856ad0105b9d4199936c1fd203664ba325dc88b00494e54de99e28801ca0b5886ba91a33dba5156c7080029754fbd26c9bd69aac41b04f29b9ebfcaef482a037b2943b26556ceb9bd8479e5238d9afe3f11e85af98773d4a7bf159e51fcf0d",
      "networkId": 0,
      "chainId": 0
    },
    {
      "hash": "0xdae40853fbd8f3cfe533ccdcda27923f6a23a2760f26cc5ce7adc4957e19cb6b",
      "blockHash": "0x793267a31fe2144524a13ac1f263a3925ffe83392b634ecd0ff23e2e25e4460c",
      "blockNumber": 84285,
      "transactionIndex": 15,
      "confirmations": null,
      "from": "0xe6A7a1d47ff21B6321162AEA7C6CB457D5476Bca",
      "gasPrice": {
        "_hex": "0xe00565a9b"
      },
      "gasLimit": {
        "_hex": "0x55f0"
      },
      "to": "0xC8E61bFB4846B622B084B98Bc586388aFCb70d5F",
      "value": {
        "_hex": "0xb149f4aab625b628"
      },
      "nonce": 1795,
      "data": "0x",
      "r": "0x331b276bff75da0148202a80a8d33f2bf765c68fbcfdfde1644a90cdb9ebfa99",
      "s": "0x3724e96d922493294460661407771d5d16bd115f52b372bf5f79de40d676ffc8",
      "v": 28,
      "creates": null,
      "raw": "0xf86e820703850e00565a9b8255f094c8e61bfb4846b622b084b98bc586388afcb70d5f88b149f4aab625b628801ca0331b276bff75da0148202a80a8d33f2bf765c68fbcfdfde1644a90cdb9ebfa99a03724e96d922493294460661407771d5d16bd115f52b372bf5f79de40d676ffc8",
      "networkId": 0,
      "chainId": 0
    },
    {
      "hash": "0xadd060b5d5a2e2da656140bd5c1e64a23e99ed815c5c63c6827807ad96ea6b08",
      "blockHash": "0x793267a31fe2144524a13ac1f263a3925ffe83392b634ecd0ff23e2e25e4460c",
      "blockNumber": 84285,
      "transactionIndex": 16,
      "confirmations": null,
      "from": "0x6d37bd781411ccDd33792481E2C9CE5b62D3a5B8",
      "gasPrice": {
        "_hex": "0xdc47a774f"
      },
      "gasLimit": {
        "_hex": "0x5208"
      },
      "to": "0x32Be343B94f860124dC4fEe278FDCBD38C102D88",
      "value": {
        "_hex": "0x61d2b1894a187400"
      },
      "nonce": 6,
      "data": "0x",
      "r": "0x563fabf3af37963c61a7f6a6f13b73c336a877c113b0994d25f830cc205bd4e3",
      "s": "0x4c3575e861cf0d1b55a42927fde86124eb21270bc884452987e5a8a996618567",
      "v": 28,
      "creates": null,
      "raw": "0xf86c06850dc47a774f8252089432be343b94f860124dc4fee278fdcbd38c102d888861d2b1894a187400801ca0563fabf3af37963c61a7f6a6f13b73c336a877c113b0994d25f830cc205bd4e3a04c3575e861cf0d1b55a42927fde86124eb21270bc884452987e5a8a996618567",
      "networkId": 0,
      "chainId": 0
    },
    {
      "hash": "0xa9b10bc2d19f4372f6f8a330d475ca5b58aea7b8085bf6264e34ad243ea953ea",
      "blockHash": "0x793267a31fe2144524a13ac1f263a3925ffe83392b634ecd0ff23e2e25e4460c",
      "blockNumber": 84285,
      "transactionIndex": 17,
      "confirmations": null,
      "from": "0xD9666150A9dA92d9108198a4072970805a8B3428",
      "gasPrice": {
        "_hex": "0xdc47a774f"
      },
      "gasLimit": {
        "_hex": "0x5208"
      },
      "to": "0x32Be343B94f860124dC4fEe278FDCBD38C102D88",
      "value": {
        "_hex": "0x234526d270ebc400"
      },
      "nonce": 6,
      "data": "0x",
      "r": "0x3cf0b1a2c27d068c56929d0189cc9563fd5ff1be0f7764e97bcb72c4304f0573",
      "s": "0x40740e79c4d56ab5ecc21d2cd753c5ebd370d67f2e30cac276bbcb96321651f2",
      "v": 28,
      "creates": null,
      "raw": "0xf86c06850dc47a774f8252089432be343b94f860124dc4fee278fdcbd38c102d8888234526d270ebc400801ca03cf0b1a2c27d068c56929d0189cc9563fd5ff1be0f7764e97bcb72c4304f0573a040740e79c4d56ab5ecc21d2cd753c5ebd370d67f2e30cac276bbcb96321651f2",
      "networkId": 0,
      "chainId": 0
    },
    {
      "hash": "0x9d13513b413d1d1c1c096786ac5f37c02a83e9fea2a489ef4a455b015f144037",
      "blockHash": "0x793267a31fe2144524a13ac1f263a3925ffe83392b634ecd0ff23e2e25e4460c",
      "blockNumber": 84285,
      "transactionIndex": 18,
      "confirmations": null,
      "from": "0xD9a9A8ec148D2B0F7Cd8B2700013A9AA5cf89910",
      "gasPrice": {
        "_hex": "0xdc47a774f"
      },
      "gasLimit": {
        "_hex": "0x5208"
      },
      "to": "0x32Be343B94f860124dC4fEe278FDCBD38C102D88",
      "value": {
        "_hex": "0x4c03a43e76c1e000"
      },
      "nonce": 3,
      "data": "0x",
      "r": "0x87ae59915c825e1dc6624b6060d710c6b2035602a00a76eae7217d416b887125",
      "s": "0x67fc04ed627b7c33056266d921c823f4b7420beee2132b2444a1905147b4a53f",
      "v": 27,
      "creates": null,
      "raw": "0xf86c03850dc47a774f8252089432be343b94f860124dc4fee278fdcbd38c102d88884c03a43e76c1e000801ba087ae59915c825e1dc6624b6060d710c6b2035602a00a76eae7217d416b887125a067fc04ed627b7c33056266d921c823f4b7420beee2132b2444a1905147b4a53f",
      "networkId": 0,
      "chainId": 0
    },
    {
      "hash": "0x83738773c1ef047e780c5614ace4a05e5c739e524e1e38c71b9872fda00c1cec",
      "blockHash": "0x793267a31fe2144524a13ac1f263a3925ffe83392b634ecd0ff23e2e25e4460c",
      "blockNumber": 84285,
      "transactionIndex": 19,
      "confirmations": null,
      "from": "0x1463cEF3d9007Db05b7C3B8981D38602EE0D855a",
      "gasPrice": {
        "_hex": "0xdc47a774f"
      },
      "gasLimit": {
        "_hex": "0x5208"
      },
      "to": "0x32Be343B94f860124dC4fEe278FDCBD38C102D88",
      "value": {
        "_hex": "0x4ae1d23d77202c00"
      },
      "nonce": 3,
      "data": "0x",
      "r": "0x65d6a84ab84660163949c78ad2be9f2584c8bbec70055f37948afad96bd7d674",
      "s": "0x5eb5991896a9ca73b93fb441f90eacacbab1e138f3e88e0bad5f49ab7064088f",
      "v": 27,
      "creates": null,
      "raw": "0xf86c03850dc47a774f8252089432be343b94f860124dc4fee278fdcbd38c102d88884ae1d23d77202c00801ba065d6a84ab84660163949c78ad2be9f2584c8bbec70055f37948afad96bd7d674a05eb5991896a9ca73b93fb441f90eacacbab1e138f3e88e0bad5f49ab7064088f",
      "networkId": 0,
      "chainId": 0
    },
    {
      "hash": "0xb44b29eeede95643bb0c6577e788f25f7a74570cd7831218f84c2f61ab6163e5",
      "blockHash": "0x793267a31fe2144524a13ac1f263a3925ffe83392b634ecd0ff23e2e25e4460c",
      "blockNumber": 84285,
      "transactionIndex": 20,
      "confirmations": null,
      "from": "0x4b0a38C16B842d68A8721B4CAd662e07cc430652",
      "gasPrice": {
        "_hex": "0xdc47a774f"
      },
      "gasLimit": {
        "_hex": "0x5208"
      },
      "to": "0x32Be343B94f860124dC4fEe278FDCBD38C102D88",
      "value": {
        "_hex": "0x55ad6187c8133800"
      },
      "nonce": 3,
      "data": "0x",
      "r": "0x839d3a515bb3b09a2345f8f72583a8587b8fa8539bb544669b8968bbec6aee94",
      "s": "0x67a1e77720b7bc9d8a01feea956b3fd1b2ef725bd97d6fd4d9b6b092b3cb610a",
      "v": 28,
      "creates": null,
      "raw": "0xf86c03850dc47a774f8252089432be343b94f860124dc4fee278fdcbd38c102d888855ad6187c8133800801ca0839d3a515bb3b09a2345f8f72583a8587b8fa8539bb544669b8968bbec6aee94a067a1e77720b7bc9d8a01feea956b3fd1b2ef725bd97d6fd4d9b6b092b3cb610a",
      "networkId": 0,
      "chainId": 0
    },
    {
      "hash": "0x0304e5df7e2ce671f38a51a7db8f824d8d86f9164ca8365546c42850cbb7080c",
      "blockHash": "0x793267a31fe2144524a13ac1f263a3925ffe83392b634ecd0ff23e2e25e4460c",
      "blockNumber": 84285,
      "transactionIndex": 21,
      "confirmations": null,
      "from": "0x6c716b5177cC5c983057af4D88F7152ebA2CC0a6",
      "gasPrice": {
        "_hex": "0xdc47a774f"
      },
      "gasLimit": {
        "_hex": "0x5208"
      },
      "to": "0x32Be343B94f860124dC4fEe278FDCBD38C102D88",
      "value": {
        "_hex": "0x2d3495b877138400"
      },
      "nonce": 6,
      "data": "0x",
      "r": "0x33481ea45ae474f2acf1b5ac4abae836ce77baafc868d041aea75ca887551d4b",
      "s": "0x5e9cb745aac7f4a4fdbef189077ce3c0d5e5a2816d02be35b432f2e8428eee32",
      "v": 27,
      "creates": null,
      "raw": "0xf86c06850dc47a774f8252089432be343b94f860124dc4fee278fdcbd38c102d88882d3495b877138400801ba033481ea45ae474f2acf1b5ac4abae836ce77baafc868d041aea75ca887551d4ba05e9cb745aac7f4a4fdbef189077ce3c0d5e5a2816d02be35b432f2e8428eee32",
      "networkId": 0,
      "chainId": 0
    },
    {
      "hash": "0xb7e84343c24c7159950824ad80628d5329c58096c37b2aff1c13f5cca2a08ed1",
      "blockHash": "0x793267a31fe2144524a13ac1f263a3925ffe83392b634ecd0ff23e2e25e4460c",
      "blockNumber": 84285,
      "transactionIndex": 22,
      "confirmations": null,
      "from": "0xc544B25bb91b87e380dda392687c6216b0260671",
      "gasPrice": {
        "_hex": "0xdc47a774f"
      },
      "gasLimit": {
        "_hex": "0x5208"
      },
      "to": "0x32Be343B94f860124dC4fEe278FDCBD38C102D88",
      "value": {
        "_hex": "0x4293928322af6000"
      },
      "nonce": 5,
      "data": "0x",
      "r": "0xc1a4cfe9ffefe1595ba50b9adf5656586cdec8f0397d877154de3cc951872cb0",
      "s": "0x73f81f4157240fcbbbd3734b8249b4b80ef2b730c0faa2a014369544f1bde55c",
      "v": 27,
      "creates": null,
      "raw": "0xf86c05850dc47a774f8252089432be343b94f860124dc4fee278fdcbd38c102d88884293928322af6000801ba0c1a4cfe9ffefe1595ba50b9adf5656586cdec8f0397d877154de3cc951872cb0a073f81f4157240fcbbbd3734b8249b4b80ef2b730c0faa2a014369544f1bde55c",
      "networkId": 0,
      "chainId": 0
    },
    {
      "hash": "0x2b886896be6cc20b80ec36724cdd74b1e6da541d844feccaa91711c186c24a40",
      "blockHash": "0x793267a31fe2144524a13ac1f263a3925ffe83392b634ecd0ff23e2e25e4460c",
      "blockNumber": 84285,
      "transactionIndex": 23,
      "confirmations": null,
      "from": "0xCadcea36EC3feB740167E4370777fab1549F8759",
      "gasPrice": {
        "_hex": "0xdc47a774f"
      },
      "gasLimit": {
        "_hex": "0x5208"
      },
      "to": "0x32Be343B94f860124dC4fEe278FDCBD38C102D88",
      "value": {
        "_hex": "0x4459968ab56fbc00"
      },
      "nonce": 4,
      "data": "0x",
      "r": "0x2b44c8cce2200807f7b8bfa0b69416c85751ea9dadbb4beab641b784ebad49ce",
      "s": "0x5d86e409a11b050a1477b5117afd47523815ba35c2b918365de2127bfc896c41",
      "v": 27,
      "creates": null,
      "raw": "0xf86c04850dc47a774f8252089432be343b94f860124dc4fee278fdcbd38c102d88884459968ab56fbc00801ba02b44c8cce2200807f7b8bfa0b69416c85751ea9dadbb4beab641b784ebad49cea05d86e409a11b050a1477b5117afd47523815ba35c2b918365de2127bfc896c41",
      "networkId": 0,
      "chainId": 0
    },
    {
      "hash": "0xa630b17dd8f667bfab75dc4a82910efa9cb19bffb1de17aea6878307819ea8b4",
      "blockHash": "0x793267a31fe2144524a13ac1f263a3925ffe83392b634ecd0ff23e2e25e4460c",
      "blockNumber": 84285,
      "transactionIndex": 24,
      "confirmations": null,
      "from": "0x9B7280891dc19fd3A2e754cB9007203820650403",
      "gasPrice": {
        "_hex": "0xdc47a774f"
      },
      "gasLimit": {
        "_hex": "0x5208"
      },
      "to": "0x32Be343B94f860124dC4fEe278FDCBD38C102D88",
      "value": {
        "_hex": "0x611f0f74bbe4d800"
      },
      "nonce": 3,
      "data": "0x",
      "r": "0xa8a6121a6c417991a1ee884ec0b4a6f86b3981ac28c56cfb52c72886aab95dc7",
      "s": "0x0171c126c08f9cd30c726ffdba114e02ebf6ca54908373d6bb404e28e172d099",
      "v": 27,
      "creates": null,
      "raw": "0xf86c03850dc47a774f8252089432be343b94f860124dc4fee278fdcbd38c102d8888611f0f74bbe4d800801ba0a8a6121a6c417991a1ee884ec0b4a6f86b3981ac28c56cfb52c72886aab95dc7a00171c126c08f9cd30c726ffdba114e02ebf6ca54908373d6bb404e28e172d099",
      "networkId": 0,
      "chainId": 0
    }
  ]
}