{
  "hash": "0xc85ad0223e4be7d8586ac64d3a26566098190803e8b0f497f7d3a6729ecd81eb",
  "parentHash": "0xc4c4bd2f38dc83bafa6f25f56e209ded1c6b95ace9df5bff09c50b75237de581",
  "number": 110470,
  "timestamp": 1439974313,
  "nonce": "0x3931f6f686fe9403",
  "difficulty": 4381985158016,
  "gasLimit": {
    "_hex": "0x2fefd8"
  },
  "gasUsed": {
    "_hex": "0x5208"
  },
  "miner": "0xC603Ab5ef41fC61AA8b76bEddb09e3Cfcbb174BD",
  "extraData": "0x476574682f76312e302e312f77696e646f77732f676f312e342e32",
  "transactions": [
    {
      "hash": "0x118ef865c74dfd7d5c675c2445446ae18917fff1e046ba655f17adcb350bae85",
      "blockHash": "0xc85ad0223e4be7d8586ac64d3a26566098190803e8b0f497f7d3a6729ecd81eb",
      "blockNumber": 110470,
      "transactionIndex": 0,
      "confirmations": null,
      "from": "0x2cf4364bc4C7C3333aB9963C4B3473664f42D83A",
      "gasPrice": {
        "_hex": "0xded29e02c"
      },
      "gasLimit": {
        "_hex": "0x5208"
      },
      "to": "0x32Be343B94f860124dC4fEe278FDCBD38C102D88",
      "value": {
        "_hex": "0x17e8702e5b7deb000"
      },
      "nonce": 5,
      "data": "0x",
      "r": "0xa6749afd496991ec3dba55d314c3c900e1df6030e4b14e01ab8db41415e7e1e2",
      "s": "0x56ba269d510fbf8cf77d2e3300bc890b2764473f203818f43c2aba455a1d9c9a",
      "v": 27,
      "creates": null,
      "raw": "0xf86d05850ded29e02c8252089432be343b94f860124dc4fee278fdcbd38c102d8889017e8702e5b7deb000801ba0a6749afd496991ec3dba55d314c3c900e1df6030e4b14e01ab8db41415e7e1e2a056ba269d510fbf8cf77d2e3300bc890b2764473f203818f43c2aba455a1d9c9a",
      "networkId": 0,
      "chainId": 0
    }
  ]
}