{
  "hash": "0x51c9c40d2b5287b95817264026939681a6a696ee42839e2c15d7620935b4a5fe",
  "parentHash": "0xd5f366c9313d3e023a1d29d7c4112efd3020767ac6a2a71b5e09dd9865740711",
  "number": 116464,
  "timestamp": 1440074676,
  "nonce": "0x55a09de31894b1ec",
  "difficulty": 4571110014429,
  "gasLimit": {
    "_hex": "0x2fefd8"
  },
  "gasUsed": {
    "_hex": "0x5208"
  },
  "miner": "0xe6A7a1d47ff21B6321162AEA7C6CB457D5476Bca",
  "extraData": "0x476574682f76312e302e312d38326566323666362f6c696e75782f676f312e34",
  "transactions": [
    {
      "hash": "0x043f7c16c130c373aa6593f5eb5bbb59b8f21d0d7363fe01e9255e125356ed0b",
      "blockHash": "0x51c9c40d2b5287b95817264026939681a6a696ee42839e2c15d7620935b4a5fe",
      "blockNumber": 116464,
      "transactionIndex": 0,
      "confirmations": null,
      "from": "0xCDA330c8160f0c90B8B528C6Db267acc17381818",
      "gasPrice": {
        "_hex": "0xdf684258f"
      },
      "gasLimit": {
        "_hex": "0x5208"
      },
      "to": "0x32Be343B94f860124dC4fEe278FDCBD38C102D88",
      "value": {
        "_hex": "0x15ecc121c007800"
      },
      "nonce": 6,
      "data": "0x",
      "r": "0x3e088534e717639b804bc43c6cfd51a4425472530a102c8eb17b450bcaab7553",
      "s": "0x6c9c1c6abda7c05ae088f9ca40ffee6813e98bd36bab101619242eb27d6ca9bd",
      "v": 28,
      "creates": null,
      "raw": "0xf86c06850df684258f8252089432be343b94f860124dc4fee278fdcbd38c102d8888015ecc121c007800801ca03e088534e717639b804bc43c6cfd51a4425472530a102c8eb17b450bcaab7553a06c9c1c6abda7c05ae088f9ca40ffee6813e98bd36bab101619242eb27d6ca9bd",
      "networkId": 0,
      "chainId": 0
    }
  ]
}