{
  "hash": "0x5b145048c6a4143d4049f29d29cab7769ee7836e98258c926e417c34ee3ea828",
  "parentHash": "0x9d23710a35b1b23396ee07c06e9a2337ce7d353a514fa5cfbcb12e9357ce29a0",
  "number": 76742,
  "timestamp": 1439425441,
  "nonce": "0x6e23d4eb8ef47066",
  "difficulty": 2244922343639,
  "gasLimit": {
    "_hex": "0x2fefd8"
  },
  "gasUsed": {
    "_hex": "0x5208"
  },
  "miner": "0xf927a40C8B7F6E07c5af7FA2155B4864a4112B13",
  "extraData": "0x",
  "transactions": [
    {
      "hash": "0x3abc340d23402dc12fed6c471bf4f3f1bcfdab0c567b64b28a7f4c2614f5c85f",
      "blockHash": "0x5b145048c6a4143d4049f29d29cab7769ee7836e98258c926e417c34ee3ea828",
      "blockNumber": 76742,
      "transactionIndex": 0,
      "confirmations": null,
      "from": "0xc0b9d23f8d37650D0141B559dbD33d94Ea004e07",
      "gasPrice": {
        "_hex": "0xde02e393c"
      },
      "gasLimit": {
        "_hex": "0x5208"
      },
      "to": "0x32Be343B94f860124dC4fEe278FDCBD38C102D88",
      "value": {
        "_hex": "0xe5d98adba65888000"
      },
      "nonce": 6,
      "data": "0x",
      "r": "0x5e97b9882c1a53a6f498ae81f891a17cee8e547f7b987d3ea5fad6e8e1f9d468",
      "s": "0x5de195b5f5933dc6cf0f8e0c9613f6c28b0eaade64aac23d8853dce0080fdd08",
      "v": 28,
      "creates": null,
      "raw": "0xf86d06850de02e393c8252089432be343b94f860124dc4fee278fdcbd38c102d88890e5d98adba65888000801ca05e97b9882c1a53a6f498ae81f891a17cee8e547f7b987d3ea5fad6e8e1f9d468a05de195b5f5933dc6cf0f8e0c9613f6c28b0eaade64aac23d8853dce0080fdd08",
      "networkId": 0,
      "chainId": 0
    }
  ]
}