{
  "hash": "0x7b86147e16e7db1abd76f3d0907a0e8421ef26dcb919d7cbc4547752dd418e52",
  "parentHash": "0x863b1562b58585fff900180f167b245af9df018b5a2e805cb4ed9b90f63362e9",
  "number": 119323,
  "timestamp": 1440140880,
  "nonce": "0x0b771f3400011968",
  "difficulty": 4405237398605,
  "gasLimit": {
    "_hex": "0x2fefd8"
  },
  "gasUsed": {
    "_hex": "0xf618"
  },
  "miner": "0x790b8a3cE86E707ED0eD32bF89B3269692a23CC1",
  "extraData": "0xd783010002844765746887676f312e342e32856c696e7578",
  "transactions": [
    {
      "hash": "0x4d0fb6ea16caa034cb6ac4213bb949d5ba49df16d5c1e77042ccae4243bf50ce",
      "blockHash": "0x7b86147e16e7db1abd76f3d0907a0e8421ef26dcb919d7cbc4547752dd418e52",
      "blockNumber": 119323,
      "transactionIndex": 0,
      "confirmations": null,
      "from": "0xe6A7a1d47ff21B6321162AEA7C6CB457D5476Bca",
      "gasPrice": {
        "_hex": "0xba43b7400"
      },
      "gasLimit": {
        "_hex": "0x55f0"
      },
      "to": "0xfaA12B5C220f5CB5594D244e125f6AEd574b5697",
      "value": {
        "_hex": "0x14362fba9d5e8428"
      },
      "nonce": 5948,
      "data": "0x",
      "r": "0x48fe8d58523542f1617c724550cf0ba2c65c319122337b218a7c355b3ba4af17",
      "s": "0x01135adc92c3440cad5d269db02f9cff517202fe86f04e519a3ad7bba524637e",
      "v": 27,
      "creates": null,
      "raw": "0xf86e82173c850ba43b74008255f094faa12b5c220f5cb5594d244e125f6aed574b56978814362fba9d5e8428801ba048fe8d58523542f1617c724550cf0ba2c65c319122337b218a7c355b3ba4af17a001135adc92c3440cad5d269db02f9cff517202fe86f04e519a3ad7bba524637e",
      "networkId": 0,
      "chainId": 0
    },
    {
      "hash": "0x8cafc74d3a6fe7a71ee7b262f2fd921fa1cbeeadfac2650f75b49bbfaa5309dc",
      "blockHash": "0x7b86147e16e7db1abd76f3d0907a0e8421ef26dcb919d7cbc4547752dd418e52",
      "blockNumber": 119323,
      "transactionIndex": 1,
      "confirmations": null,
      "from": "0xe6A7a1d47ff21B6321162AEA7C6CB457D5476Bca",
      "gasPrice": {
        "_hex": "0xba43b7400"
      },
      "gasLimit": {
        "_hex": "0x55f0"
      },
      "to": "0xE7bD36a7CF4F1F8896378D41177BEf637075a1eD",
      "value": {
        "_hex": "0x147b0562e4f9d928"
      },
      "nonce": 5949,
      "data": "0x",
      "r": "0xe259fe130a7bd7ee5cc3a845f5a41c0f18798e66155f48da612090d53a88d07e",
      "s": "0x7b4f66716756acd053f79318f06a516e2750385060834f7e1cf65a3757e891ff",
      "v": 27,
      "creates": null,
      "raw": "0xf86e82173d850ba43b74008255f094e7bd36a7cf4f1f8896378d41177bef637075a1ed88147b0562e4f9d928801ba0e259fe130a7bd7ee5cc3a845f5a41c0f18798e66155f48da612090d53a88d07ea07b4f66716756acd053f79318f06a516e2750385060834f7e1cf65a3757e891ff",
      "networkId": 0,
      "chainId": 0
    },
    {
      "hash": "0xbffe8c3c87f411fb76ebdb9b9c76188591421f5e0253a1525525b7933528c3a2",
      "blockHash": "0x7b86147e16e7db1abd76f3d0907a0e8421ef26dcb919d7cbc4547752dd418e52",
      "blockNumber": 119323,
      "transactionIndex": 2,
      "confirmations": null,
      "from": "0xe6A7a1d47ff21B6321162AEA7C6CB457D5476Bca",
      "gasPrice": {
        "_hex": "0xba43b7400"
      },
      "gasLimit": {
        "_hex": "0x55f0"
      },
      "to": "0x96dadE6c87E483acb081E9f669B4fc029a440E8B",
      "value": {
        "_hex": "0x14852e1e67326728"
      },
      "nonce": 5950,
      "data": "0x",
      "r": "0x364444085eb5a12206ce94c3617d09ca955b7d000f12503959fadbf67f37724a",
      "s": "0x569380e90b26ffb3cb6865f9503b255cb2ef45ebe17fa889a04b55053f0f2119",
      "v": 27,
      "creates": null,
      "raw": "0xf86e82173e850ba43b74008255f09496dade6c87e483acb081e9f669b4fc029a440e8b8814852e1e67326728801ba0364444085eb5a12206ce94c3617d09ca955b7d000f12503959fadbf67f37724aa0569380e90b26ffb3cb6865f9503b255cb2ef45ebe17fa889a04b55053f0f2119",
      "networkId": 0,
      "chainId": 0
    }
  ]
}