{
  "hash": "0x168928f03cf245de191367e699a89718f7d0d4d03ecc3f74849cf040d1d956f4",
  "parentHash": "0xf9518028b804ae20e567ef3b0a46f960446c7d6b717b81a1ba272c73c73d19c6",
  "number": 78538,
  "timestamp": 1439455259,
  "nonce": "0x50e2ed0e1e807edc",
  "difficulty": 2297667164088,
  "gasLimit": {
    "_hex": "0x2fefd8"
  },
  "gasUsed": {
    "_hex": "0x5208"
  },
  "miner": "0x02020D22dCF88f5eDd66B382D7da019F161fB7e3",
  "extraData": "0x",
  "transactions": [
    {
      "hash": "0x60777ea28961bac2dbd3c5e08b923af0a4ee4dd33a5e9a89eb1faa5cdb7ba014",
      "blockHash": "0x168928f03cf245de191367e699a89718f7d0d4d03ecc3f74849cf040d1d956f4",
      "blockNumber": 78538,
      "transactionIndex": 0,
      "confirmations": null,
      "from": "0xeB1325C8D9d3ea8D74aC11F4B00F1B2367686319",
      "gasPrice": {
        "_hex": "0xcb3fb51b4"
      },
      "gasLimit": {
        "_hex": "0x15f90"
      },
      "to": "0x3010cacF5965f60685011055570972e92B4479aB",
      "value": {
        "_hex": "0x56bc75e2d63100000"
      },
      "nonce": 3,
      "data": "0x",
      "r": "0x901cfd99a969a9c6ee8db28853415143303a139a565a308ae7e3ec536ba8f5c8",
      "s": "0x1deab66059f3743bd528a742b2cd8cf5e357187202cd79e7ef57584aa2738605",
      "v": 28,
      "creates": null,
      "raw": "0xf86e03850cb3fb51b483015f90943010cacf5965f60685011055570972e92b4479ab89056bc75e2d63100000801ca0901cfd99a969a9c6ee8db28853415143303a139a565a308ae7e3ec536ba8f5c8a01deab66059f3743bd528a742b2cd8cf5e357187202cd79e7ef57584aa2738605",
      "networkId": 0,
      "chainId": 0
    }
  ]
}