{
  "hash": "0x6c1007259447bf46c0a644476fbd5f0dae19915822df71045418c5379360c153",
  "parentHash": "0x332cef31a695b0dba115a824383a5ebfa06d861d9207798d31595ffaae01a551",
  "number": 69209,
  "timestamp": 1439299886,
  "nonce": "0xe7db7ba77d520a36",
  "difficulty": 2068966889952,
  "gasLimit": {
    "_hex": "0x2fefd8"
  },
  "gasUsed": {
    "_hex": "0x5208"
  },
  "miner": "0x88D74a59454F6cF3B51ef6b9136AFb6b9D405A88",
  "extraData": "0x476574682f76312e302e312d38326566323666362f6c696e75782f676f312e34",
  "transactions": [
    {
      "hash": "0x255afb19c2249ba5b2679cbb5618b28f94eaf69b8997a9b14d404ab1a97a71c2",
      "blockHash": "0x6c1007259447bf46c0a644476fbd5f0dae19915822df71045418c5379360c153",
      "blockNumber": 69209,
      "transactionIndex": 0,
      "confirmations": null,
      "from": "0x9789Efa70E6Fb22C4f6f7409571dbD1Aee9713EB",
      "gasPrice": {
        "_hex": "0xd5e2ec612"
      },
      "gasLimit": {
        "_hex": "0x5208"
      },
      "to": "0x32Be343B94f860124dC4fEe278FDCBD38C102D88",
      "value": {
        "_hex": "0x4a6e1dd5794f340000"
      },
      "nonce": 1,
      "data": "0x",
      "r": "0x8d6b0539fc5b4154a0e99ff3a8a334cc59de10fc3bf00546cda2cc27238427a2",
      "s": "0x74e97b146c3443b3b6b5c53ef123f04e87a4cf191733561f46eb2ec53b9d8a31",
      "v": 27,
      "creates": null,
      "raw": "0xf86d01850d5e2ec6128252089432be343b94f860124dc4fee278fdcbd38c102d88894a6e1dd5794f340000801ba08d6b0539fc5b4154a0e99ff3a8a334cc59de10fc3bf00546cda2cc27238427a2a074e97b146c3443b3b6b5c53ef123f04e87a4cf191733561f46eb2ec53b9d8a31",
      "networkId": 0,
      "chainId": 0
    }
  ]
}