{
  "hash": "0x2f0d3bddcc28f61dc730fd49c6b664b393f0bcaee98a72a9539da072de506765",
  "parentHash": "0x1cf9efb0e28964cec88582181c63e430424635f2c65596af027c09d2257ec1b2",
  "number": 68418,
  "timestamp": 1439287580,
  "nonce": "0x717b92913caaf621",
  "difficulty": 2012367031500,
  "gasLimit": {
    "_hex": "0x2fefd8"
  },
  "gasUsed": {
    "_hex": "0x12ea94"
  },
  "miner": "0x55bAf64fc9eAccFFd7Cc643BB61142E1C6ac093e",
  "extraData": "0x",
  "transactions": [
    {
      "hash": "0x54a7e4704ddbc457d9d874a59105bdec2311a89809bad90f1cea10e4bcff8f90",
      "blockHash": "0x2f0d3bddcc28f61dc730fd49c6b664b393f0bcaee98a72a9539da072de506765",
      "blockNumber": 68418,
      "transactionIndex": 0,
      "confirmations": null,
      "from": "0x8baf0Ca91Dc117e5fF6Cb657725f15f133ff1fa0",
      "gasPrice": {
        "_hex": "0xba43b7400"
      },
      "gasLimit": {
        "_hex": "0x15f90"
      },
      "to": "0x793AE8C1b1a160BFc07BFB0d04F85eab1A71F4f2",
      "value": {
        "_hex": "0x0"
      },
      "nonce": 0,
      "data": "0x3ba15036",
      "r": "0xecd613d9114d7f65ae3681954b42709c3a341ad7a6161a0cd811b591e44bb32a",
      "s": "0x3b4daf26bbb4402462ba47d8384bcdef4f137b13ca2acf69f4dcd42e6c5599d5",
      "v": 27,
      "creates": null,
      "raw": "0xf86980850ba43b740083015f9094793ae8c1b1a160bfc07bfb0d04f85eab1a71f4f280843ba150361ba0ecd613d9114d7f65ae3681954b42709c3a341ad7a6161a0cd811b591e44bb32aa03b4daf26bbb4402462ba47d8384bcdef4f137b13ca2acf69f4dcd42e6c5599d5",
      "networkId": 0,
      "chainId": 0
    },
    {
      "hash": "0xc1696bbcc8f5a91bc21ad182d74a46be62e95b273d93bf1e8ec13a1d16a7bb30",
      "blockHash": "0x2f0d3bddcc28f61dc730fd49c6b664b393f0bcaee98a72a9539da072de506765",
      "blockNumber": 68418,
      "transactionIndex": 1,
      "confirmations": null,
      "from": "0x72a852e1C3811b50704A9B644d0D0C9AA2Fae5f9",
      "gasPrice": {
        "_hex": "0xba43b7400"
      },
      "gasLimit": {
        "_hex": "0x15f90"
      },
      "to": "0x793AE8C1b1a160BFc07BFB0d04F85eab1A71F4f2",
      "value": {
        "_hex": "0x0"
      },
      "nonce": 0,
      "data": "0x3ba15036",
      "r": "0x00851009a4499ec9a7c19b3839825841c724ddebe7930f3c95e51dff523366a6",
      "s": "0x606ab8b7a00bdf21bf79edc207fa7a88381c26644b052a8186b8612acd028643",
      "v": 27,
      "creates": null,
      "raw": "0xf86880850ba43b740083015f9094793ae8c1b1a160bfc07bfb0d04f85eab1a71f4f280843ba150361b9f851009a4499ec9a7c19b3839825841c724ddebe7930f3c95e51dff523366a6a0606ab8b7a00bdf21bf79edc207fa7a88381c26644b052a8186b8612acd028643",
      "networkId": 0,
      "chainId": 0
    },
    {
      "hash": "0xc50dc58077650eb6bc7ac0c99321fb4b19b79258e0ba9a7bad311da94c76578a",
      "blockHash": "0x2f0d3bddcc28f61dc730fd49c6b664b393f0bcaee98a72a9539da072de506765",
      "blockNumber": 68418,
      "transactionIndex": 2,
      "confirmations": null,
      "from": "0x23dD1201c380c6Bb5De18766Eb1E9DcF48E20485",
      "gasPrice": {
        "_hex": "0xba43b7400"
      },
      "gasLimit": {
        "_hex": "0x15f90"
      },
      "to": "0x793AE8C1b1a160BFc07BFB0d04F85eab1A71F4f2",
      "value": {
        "_hex": "0x0"
      },
      "nonce": 0,
      "data": "0x3ba15036",
      "r": "0x720ca0e66cd45f70aa2167732685181cbaf7ecb9a63e95bba71a3312914dc7c8",
      "s": "0x4f06438c64e9a4bc610e82b41621f8f223e9412f5a5eba13f2f0a891c0df622e",
      "v": 28,
      "creates": null,
      "raw": "0xf86980850ba43b740083015f9094793ae8c1b1a160bfc07bfb0d04f85eab1a71f4f280843ba150361ca0720ca0e66cd45f70aa2167732685181cbaf7ecb9a63e95bba71a3312914dc7c8a04f06438c64e9a4bc610e82b41621f8f223e9412f5a5eba13f2f0a891c0df622e",
      "networkId": 0,
      "chainId": 0
    },
    {
      "hash": "0x426e9bf35616f24afad83adda6ec542b8cde554d335ffacd23ef17c25b1eee94",
      "blockHash": "0x2f0d3bddcc28f61dc730fd49c6b664b393f0bcaee98a72a9539da072de506765",
      "blockNumber": 68418,
      "transactionIndex": 3,
      "confirmations": null,
      "from": "0xd385Ef5fb9c6D7eEfE7e2FAbDe5405c0AE4001aD",
      "gasPrice": {
        "_hex": "0xba43b7400"
      },
      "gasLimit": {
        "_hex": "0x15f90"
      },
      "to": "0x793AE8C1b1a160BFc07BFB0d04F85eab1A71F4f2",
      "value": {
        "_hex": "0x0"
      },
      "nonce": 0,
      "data": "0x3ba15036",
      "r": "0xeda1c272709d445729c4ac934e8bbcea04e5ab636d42980e3bf8e9bd19ed7c39",
      "s": "0x39bdef293c56fa77428fbe38279d143897b15949beafe819c04bb87f37aa2729",
      "v": 27,
      "creates": null,
      "raw": "0xf86980850ba43b740083015f9094793ae8c1b1a160bfc07bfb0d04f85eab1a71f4f280843ba150361ba0eda1c272709d445729c4ac934e8bbcea04e5ab636d42980e3bf8e9bd19ed7c39a039bdef293c56fa77428fbe38279d143897b15949beafe819c04bb87f37aa2729",
      "networkId": 0,
      "chainId": 0
    },
    {
      "hash": "0x4300d19df6b7c6d38f4f53657817050fc01be17f299364856dbeab2092faeb00",
      "blockHash": "0x2f0d3bddcc28f61dc730fd49c6b664b393f0bcaee98a72a9539da072de506765",
      "blockNumber": 68418,
      "transactionIndex": 4,
      "confirmations": null,
      "from": "0x7C912300A01EE8Bec5be6A18320374CB066E3f83",
      "gasPrice": {
        "_hex": "0xba43b7400"
      },
      "gasLimit": {
        "_hex": "0x15f90"
      },
      "to": "0x793AE8C1b1a160BFc07BFB0d04F85eab1A71F4f2",
      "value": {
        "_hex": "0x0"
      },
      "nonce": 0,
      "data": "0x3ba15036",
      "r": "0x70e26d178c0c87b96d41da290462786294a8984295d67bf5159455a480ca66e9",
      "s": "0x1194abca009243850016680d873300c77b747dca8f1bb25cfeb037fcb98a28ac",
      "v": 27,
      "creates": null,
      "raw": "0xf86980850ba43b740083015f9094793ae8c1b1a160bfc07bfb0d04f85eab1a71f4f280843ba150361ba070e26d178c0c87b96d41da290462786294a8984295d67bf5159455a480ca66e9a01194abca009243850016680d873300c77b747dca8f1bb25cfeb037fcb98a28ac",
      "networkId": 0,
      "chainId": 0
    },
    {
      "hash": "0x550c16566de7eacadbb5bae89a162c22f25392e3887cf157f324f878fe2a773f",
      "blockHash": "0x2f0d3bddcc28f61dc730fd49c6b664b393f0bcaee98a72a9539da072de506765",
      "blockNumber": 68418,
      "transactionIndex": 5,
      "confirmations": null,
      "from": "0x6747f922385c9a6F9cfDf095F34345257DD597bE",
      "gasPrice": {
        "_hex": "0xba43b7400"
      },
      "gasLimit": {
        "_hex": "0x5208"
      },
      "to": "0x1f0Bf531e8D51c6b4a07A72f03b3e5b5891b05e6",
      "value": {
        "_hex": "0x1fcbfa42bd6000"
      },
      "nonce": 79,
      "data": "0x",
      "r": "0x16dfe09fd2613213018cb095a40c15090f17ada5deab1f40218293ad32c763c8",
      "s": "0x7398b51990c4cb149ec12704f6bc8da01d77cbfa6d85eaffa85a327e0b093921",
      "v": 28,
      "creates": null,
      "raw": "0xf86b4f850ba43b7400825208941f0bf531e8d51c6b4a07a72f03b3e5b5891b05e6871fcbfa42bd6000801ca016dfe09fd2613213018cb095a40c15090f17ada5deab1f40218293ad32c763c8a07398b51990c4cb149ec12704f6bc8da01d77cbfa6d85eaffa85a327e0b093921",
      "networkId": 0,
      "chainId": 0
    },
    {
      "hash": "0xa92f92c51109f75d9ced2347303233f5528b196a15da4ff11e105f6cef30836d",
      "blockHash": "0x2f0d3bddcc28f61dc730fd49c6b664b393f0bcaee98a72a9539da072de506765",
      "blockNumber": 68418,
      "transactionIndex": 6,
      "confirmations": null,
      "from": "0xf5e5B769a0b49BDc126736fA92B5Ce23395AC08C",
      "gasPrice": {
        "_hex": "0xba43b7400"
      },
      "gasLimit": {
        "_hex": "0x15f90"
      },
      "to": "0x793AE8C1b1a160BFc07BFB0d04F85eab1A71F4f2",
      "value": {
        "_hex": "0x0"
      },
      "nonce": 0,
      "data": "0x3ba15036",
      "r": "0x2c8a3c63fe4514b8038a78dd4ed943dd36895cefb9f0d1a38d9e539e90c9ae42",
      "s": "0x5622a33d8ba9ba074016114ad5cc8d24d6d3b6c70ddc1c2fc919837220778d70",
      "v": 27,
      "creates": null,
      "raw": "0xf86980850ba43b740083015f9094793ae8c1b1a160bfc07bfb0d04f85eab1a71f4f280843ba150361ba02c8a3c63fe4514b8038a78dd4ed943dd36895cefb9f0d1a38d9e539e90c9ae42a05622a33d8ba9ba074016114ad5cc8d24d6d3b6c70ddc1c2fc919837220778d70",
      "networkId": 0,
      "chainId": 0
    },
    {
      "hash": "0x763511a805b81b3d8afd4aa9af749b3d40898ab8be341383fa7c542335ad640c",
      "blockHash": "0x2f0d3bddcc28f61dc730fd49c6b664b393f0bcaee98a72a9539da072de506765",
      "blockNumber": 68418,
      "transactionIndex": 7,
      "confirmations": null,
      "from": "0x7103A25d86d4f83f61432e2d0c7B7a3c433600fC",
      "gasPrice": {
        "_hex": "0xba43b7400"
      },
      "gasLimit": {
        "_hex": "0x15f90"
      },
      "to": "0x793AE8C1b1a160BFc07BFB0d04F85eab1A71F4f2",
      "value": {
        "_hex": "0x0"
      },
      "nonce": 0,
      "data": "0x3ba15036",
      "r": "0x85406b3f5187acfc46d89d5e2d41d6616aba77d575ba6c1307806f64d06c2806",
      "s": "0x681ee471191c85473ded81a2684dd5724d342c76ff4699c538787259945af667",
      "v": 28,
      "creates": null,
      "raw": "0xf86980850ba43b740083015f9094793ae8c1b1a160bfc07bfb0d04f85eab1a71f4f280843ba150361ca085406b3f5187acfc46d89d5e2d41d6616aba77d575ba6c1307806f64d06c2806a0681ee471191c85473ded81a2684dd5724d342c76ff4699c538787259945af667",
      "networkId": 0,
      "chainId": 0
    },
    {
      "hash": "0x315116bf27be0f0c0b55b57b8b98dd900a11a6eae06f9b3198ee1ed7351d15de",
      "blockHash": "0x2f0d3bddcc28f61dc730fd49c6b664b393f0bcaee98a72a9539da072de506765",
      "blockNumber": 68418,
      "transactionIndex": 8,
      "confirmations": null,
      "from": "0x256958C8D50FB01A751202F05b7c6bE46097662d",
      "gasPrice": {
        "_hex": "0xba43b7400"
      },
      "gasLimit": {
        "_hex": "0x15f90"
      },
      "to": "0x793AE8C1b1a160BFc07BFB0d04F85eab1A71F4f2",
      "value": {
        "_hex": "0x0"
      },
      "nonce": 0,
      "data": "0x3ba15036",
      "r": "0x5fa6b938be4443ef6f7f7f441d731eeb3a4a69f0da2214715179c0d11c67e21f",
      "s": "0x69b16f02d631182c2b3bee6544acc682edf922fb587bc0c52e442922650d18e0",
      "v": 27,
      "creates": null,
      "raw": "0xf86980850ba43b740083015f9094793ae8c1b1a160bfc07bfb0d04f85eab1a71f4f280843ba150361ba05fa6b938be4443ef6f7f7f441d731eeb3a4a69f0da2214715179c0d11c67e21fa069b16f02d631182c2b3bee6544acc682edf922fb587bc0c52e442922650d18e0",
      "networkId": 0,
      "chainId": 0
    },
    {
      "hash": "0xb478c97b9c0819e3a07e5edb20a42602b79e17991f70605a0fa0273ca8b40724",
      "blockHash": "0x2f0d3bddcc28f61dc730fd49c6b664b393f0bcaee98a72a9539da072de506765",
      "blockNumber": 68418,
      "transactionIndex": 9,
      "confirmations": null,
      "from": "0x9bF5379f315f240509EdF7ad853d103375d1ADcb",
      "gasPrice": {
        "_hex": "0xba43b7400"
      },
      "gasLimit": {
        "_hex": "0x15f90"
      },
      "to": "0x793AE8C1b1a160BFc07BFB0d04F85eab1A71F4f2",
      "value": {
        "_hex": "0x0"
      },
      "nonce": 0,
      "data": "0x3ba15036",
      "r": "0x93230a3e498eef591f555675e8bd2f7d1142e55c757ed9e96c1c37598987dd4c",
      "s": "0x03f0cb21f31709cc1791141653b300ea62dfb8b634d814ab1d4c90842d2457a2",
      "v": 27,
      "creates": null,
      "raw": "0xf86980850ba43b740083015f9094793ae8c1b1a160bfc07bfb0d04f85eab1a71f4f280843ba150361ba093230a3e498eef591f555675e8bd2f7d1142e55c757ed9e96c1c37598987dd4ca003f0cb21f31709cc1791141653b300ea62dfb8b634d814ab1d4c90842d2457a2",
      "networkId": 0,
      "chainId": 0
    },
    {
      "hash": "0x46a30fe0504226e9391733d25d7960ff9e5e5fbbe801589b3174c9dd1f87c067",
      "blockHash": "0x2f0d3bddcc28f61dc730fd49c6b664b393f0bcaee98a72a9539da072de506765",
      "blockNumber": 68418,
      "transactionIndex": 10,
      "confirmations": null,
      "from": "0xD0f928e4C6326666598F85A7e4dACF6bc30d3B15",
      "gasPrice": {
        "_hex": "0xba43b7400"
      },
      "gasLimit": {
        "_hex": "0x15f90"
      },
      "to": "0x793AE8C1b1a160BFc07BFB0d04F85eab1A71F4f2",
      "value": {
        "_hex": "0x0"
      },
      "nonce": 0,
      "data": "0x3ba15036",
      "r": "0xfe26e000643846170cd17d330ee8f75dbd091894b9a0fa571e6ab411ec743f64",
      "s": "0x7aebcb53b564e21ae87205d7ea5e58f5f1d3b1ef6ccbca0d2a9d66e2e3d2a2ba",
      "v": 27,
      "creates": null,
      "raw": "0xf86980850ba43b740083015f9094793ae8c1b1a160bfc07bfb0d04f85eab1a71f4f280843ba150361ba0fe26e000643846170cd17d330ee8f75dbd091894b9a0fa571e6ab411ec743f64a07aebcb53b564e21ae87205d7ea5e58f5f1d3b1ef6ccbca0d2a9d66e2e3d2a2ba",
      "networkId": 0,
      "chainId": 0
    },
    {
      "hash": "0x7368bde4f7e55c059f02f4f773a004c09015fddf4ee646576da31bf3a92f5b23",
      "blockHash": "0x2f0d3bddcc28f61dc730fd49c6b664b393f0bcaee98a72a9539da072de506765",
      "blockNumber": 68418,
      "transactionIndex": 11,
      "confirmations": null,
      "from": "0xDf812dd52a8B1DE823c137f5e573fB15c0Cd5e43",
      "gasPrice": {
        "_hex": "0xba43b7400"
      },
      "gasLimit": {
        "_hex": "0x15f90"
      },
      "to": "0x793AE8C1b1a160BFc07BFB0d04F85eab1A71F4f2",
      "value": {
        "_hex": "0x0"
      },
      "nonce": 0,
      "data": "0x3ba15036",
      "r": "0xdf89d983167f07a750d6001809039b99b05451c4aeecd3e086b5e1d79a187b2a",
      "s": "0x1298b5fc9885ceaf8d78b83f3b9e68b6e863b17b3d8580021e50f567382386d9",
      "v": 27,
      "creates": null,
      "raw": "0xf86980850ba43b740083015f9094793ae8c1b1a160bfc07bfb0d04f85eab1a71f4f280843ba150361ba0df89d983167f07a750d6001809039b99b05451c4aeecd3e086b5e1d79a187b2aa01298b5fc9885ceaf8d78b83f3b9e68b6e863b17b3d8580021e50f567382386d9",
      "networkId": 0,
      "chainId": 0
    },
    {
      "hash": "0x73f03523bbbf63757e3243d9aa1a8f6245eb7063c7d786329c47fb2de8a101de",
      "blockHash": "0x2f0d3bddcc28f61dc730fd49c6b664b393f0bcaee98a72a9539da072de506765",
      "blockNumber": 68418,
      "transactionIndex": 12,
      "confirmations": null,
      "from": "0x96a8F9A5A34A7A70B56E9ebFDE21b8aB1300a414",
      "gasPrice": {
        "_hex": "0xba43b7400"
      },
      "gasLimit": {
        "_hex": "0x15f90"
      },
      "to": "0x793AE8C1b1a160BFc07BFB0d04F85eab1A71F4f2",
      "value": {
        "_hex": "0x0"
      },
      "nonce": 0,
      "data": "0x3ba15036",
      "r": "0xf85c5730a9950ef29ed8fea42cee0cd87a0fb5770ab31ee3ba6c3e72a1817cfc",
      "s": "0x4f8550a04a0ebd5f1b92aed3c53bb7e6e986eeae49ee62da659d1e955af2d14b",
      "v": 27,
      "creates": null,
      "raw": "0xf86980850ba43b740083015f9094793ae8c1b1a160bfc07bfb0d04f85eab1a71f4f280843ba150361ba0f85c5730a9950ef29ed8fea42cee0cd87a0fb5770ab31ee3ba6c3e72a1817cfca04f8550a04a0ebd5f1b92aed3c53bb7e6e986eeae49ee62da659d1e955af2d14b",
      "networkId": 0,
      "chainId": 0
    },
    {
      "hash": "0x9ab7d2ebd77a5141422ffc17486bd2a0a80069728be1c3ade7d78cc3e66b1230",
      "blockHash": "0x2f0d3bddcc28f61dc730fd49c6b664b393f0bcaee98a72a9539da072de506765",
      "blockNumber": 68418,
      "transactionIndex": 13,
      "confirmations": null,
      "from": "0x309dcfc48C0FBf3C771b6945e4c9e85d1C3FF8a9",
      "gasPrice": {
        "_hex": "0xba43b7400"
      },
      "gasLimit": {
        "_hex": "0x15f90"
      },
      "to": "0x793AE8C1b1a160BFc07BFB0d04F85eab1A71F4f2",
      "value": {
        "_hex": "0x0"
      },
      "nonce": 0,
      "data": "0x3ba15036",
      "r": "0xb4d9c322826f90a443dd95eab3a60f13d27b064880621ce978226f7dc33de7da",
      "s": "0x00eea025d4cc58c65d39fd61e59621b277fdea4178f46af3085d3d04f18e586d",
      "v": 27,
      "creates": null,
      "raw": "0xf86880850ba43b740083015f9094793ae8c1b1a160bfc07bfb0d04f85eab1a71f4f280843ba150361ba0b4d9c322826f90a443dd95eab3a60f13d27b064880621ce978226f7dc33de7da9feea025d4cc58c65d39fd61e59621b277fdea4178f46af3085d3d04f18e586d",
      "networkId": 0,
      "chainId": 0
    },
    {
      "hash": "0xfee140f454e17c208741d30a0540d30b0a04da729f7fde4f9dabfe5ff2f75671",
      "blockHash": "0x2f0d3bddcc28f61dc730fd49c6b664b393f0bcaee98a72a9539da072de506765",
      "blockNumber": 68418,
      "transactionIndex": 14,
      "confirmations": null,
      "from": "0xa2f209f33B62541E0d32220Dc0b5236B87a3B103",
      "gasPrice": {
        "_hex": "0xba43b7400"
      },
      "gasLimit": {
        "_hex": "0x15f90"
      },
      "to": "0x793AE8C1b1a160BFc07BFB0d04F85eab1A71F4f2",
      "value": {
        "_hex": "0x0"
      },
      "nonce": 0,
      "data": "0x3ba15036",
      "r": "0x72e229b425a94cdf544faa1d2d826961bf58e0220241631b60cbe071cd9dbc29",
      "s": "0x72e63551e6dd3f3c36462c791f5fa9976498d66ddefb1cf4bb04562c5385012c",
      "v": 28,
      "creates": null,
      "raw": "0xf86980850ba43b740083015f9094793ae8c1b1a160bfc07bfb0d04f85eab1a71f4f280843ba150361ca072e229b425a94cdf544faa1d2d826961bf58e0220241631b60cbe071cd9dbc29a072e63551e6dd3f3c36462c791f5fa9976498d66ddefb1cf4bb04562c5385012c",
      "networkId": 0,
      "chainId": 0
    },
    {
      "hash": "0x28db1f58f74effb49ad448cdcf45eb5a55753b583c3a030e66353fe656b6f43a",
      "blockHash": "0x2f0d3bddcc28f61dc730fd49c6b664b393f0bcaee98a72a9539da072de506765",
      "blockNumber": 68418,
      "transactionIndex": 15,
      "confirmations": null,
      "from": "0x1Db4D598b9ac9c442611a7D33c5393C461D71BC1",
      "gasPrice": {
        "_hex": "0xba43b7400"
      },
      "gasLimit": {
        "_hex": "0x15f90"
      },
      "to": "0x793AE8C1b1a160BFc07BFB0d04F85eab1A71F4f2",
      "value": {
        "_hex": "0x0"
      },
      "nonce": 0,
      "data": "0x3ba15036",
      "r": "0xf79fa863b56f09fe2cd163b2e57d7ecf892a3fb089b13c700fb74e2cd00c473e",
      "s": "0x1c0631c1fabea91c4fe84fc28f3007d99f742130f8441a09e8495babc7ff272d",
      "v": 28,
      "creates": null,
      "raw": "0xf86980850ba43b740083015f9094793ae8c1b1a160bfc07bfb0d04f85eab1a71f4f280843ba150361ca0f79fa863b56f09fe2cd163b2e57d7ecf892a3fb089b13c700fb74e2cd00c473ea01c0631c1fabea91c4fe84fc28f3007d99f742130f8441a09e8495babc7ff272d",
      "networkId": 0,
      "chainId": 0
    },
    {
      "hash": "0x2c0d0b81fe9a0ae6fd8d6a4e0b67b31203c7f419dd853f8e6eeea6e459c4bc79",
      "blockHash": "0x2f0d3bddcc28f61dc730fd49c6b664b393f0bcaee98a72a9539da072de506765",
      "blockNumber": 68418,
      "transactionIndex": 16,
      "confirmations": null,
      "from": "0x98c9aAa7d6F1E1Fea8eb271860A622E6bBc9d2C4",
      "gasPrice": {
        "_hex": "0xba43b7400"
      },
      "gasLimit": {
        "_hex": "0x15f90"
      },
      "to": "0x793AE8C1b1a160BFc07BFB0d04F85eab1A71F4f2",
      "value": {
        "_hex": "0x0"
      },
      "nonce": 0,
      "data": "0x3ba15036",
      "r": "0x6bd6b014a7d91b7e94150c8504ebafb0c5fbc18fc2e5b8d1c92e3dab8a896f13",
      "s": "0x544a3bcbe45f701e883c1d0d2832239eca065547ed812bf0c946c01d3f7aef5a",
      "v": 27,
      "creates": null,
      "raw": "0xf86980850ba43b740083015f9094793ae8c1b1a160bfc07bfb0d04f85eab1a71f4f280843ba150361ba06bd6b014a7d91b7e94150c8504ebafb0c5fbc18fc2e5b8d1c92e3dab8a896f13a0544a3bcbe45f701e883c1d0d2832239eca065547ed812bf0c946c01d3f7aef5a",
      "networkId": 0,
      "chainId": 0
    },
    {
      "hash": "0x04cd59a608dd682bf3c676436e1320295f3cd8aab071ed20eccecbe93bdb9a5e",
      "blockHash": "0x2f0d3bddcc28f61dc730fd49c6b664b393f0bcaee98a72a9539da072de506765",
      "blockNumber": 68418,
      "transactionIndex": 17,
      "confirmations": null,
      "from": "0x403495a02Fbaaff485E6D7740b0fA88494557f9E",
      "gasPrice": {
        "_hex": "0xba43b7400"
      },
      "gasLimit": {
        "_hex": "0x15f90"
      },
      "to": "0x793AE8C1b1a160BFc07BFB0d04F85eab1A71F4f2",
      "value": {
        "_hex": "0x0"
      },
      "nonce": 0,
      "data": "0x3ba15036",
      "r": "0x9aef1e70edac237b40cf5de26ae199b670dcb9fbd73bba2a7fca3327a4b7bd8d",
      "s": "0x5c4c0efaa08d7690a4a33839d80ef21c6c8a06a658f8dc393592782826cd6218",
      "v": 27,
      "creates": null,
      "raw": "0xf86980850ba43b740083015f9094793ae8c1b1a160bfc07bfb0d04f85eab1a71f4f280843ba150361ba09aef1e70edac237b40cf5de26ae199b670dcb9fbd73bba2a7fca3327a4b7bd8da05c4c0efaa08d7690a4a33839d80ef21c6c8a06a658f8dc393592782826cd6218",
      "networkId": 0,
      "chainId": 0
    },
    {
      "hash": "0x27e6427d6a0cdb2973075f3f94fbd0ff747ecbdc44e517c463849d16f940ce62",
      "blockHash": "0x2f0d3bddcc28f61dc730fd49c6b664b393f0bcaee98a72a9539da072de506765",
      "blockNumber": 68418,
      "transactionIndex": 18,
      "confirmations": null,
      "from": "0x665722F17E341CF5F38613dfAC7Ba5D19E8Ae4a6",
      "gasPrice": {
        "_hex": "0xba43b7400"
      },
      "gasLimit": {
        "_hex": "0x15f90"
      },
      "to": "0x793AE8C1b1a160BFc07BFB0d04F85eab1A71F4f2",
      "value": {
        "_hex": "0x0"
      },
      "nonce": 0,
      "data": "0x3ba15036",
      "r": "0x29712745e07d9f622be57353777757d68e36937bd2341636b780adc264023a74",
      "s": "0x54af8b6f6cc0928be0ef7358aa806a36745de021f933714a017256db2b5e4167",
      "v": 28,
      "creates": null,
      "raw": "0xf86980850ba43b740083015f9094793ae8c1b1a160bfc07bfb0d04f85eab1a71f4f280843ba150361ca029712745e07d9f622be57353777757d68e36937bd2341636b780adc264023a74a054af8b6f6cc0928be0ef7358aa806a36745de021f933714a017256db2b5e4167",
      "networkId": 0,
      "chainId": 0
    },
    {
      "hash": "0xb769058d63862212d24abe90563d3e7b96948fab4f82372eb2834ac5ea502b1d",
      "blockHash": "0x2f0d3bddcc28f61dc730fd49c6b664b393f0bcaee98a72a9539da072de506765",
      "blockNumber": 68418,
      "transactionIndex": 19,
      "confirmations": null,
      "from": "0x34f7D2056f197DF00B7A3F0D875FdAFfaFa9eE47",
      "gasPrice": {
        "_hex": "0xba43b7400"
      },
      "gasLimit": {
        "_hex": "0x15f90"
      },
      "to": "0x793AE8C1b1a160BFc07BFB0d04F85eab1A71F4f2",
      "value": {
        "_hex": "0x0"
      },
      "nonce": 0,
      "data": "0x3ba15036",
      "r": "0x0d92d1423f1ccca6d2b01f8af2132e627be8b6858686e98aa4650967b4568dda",
      "s": "0x20ffda779d0080e96d48f7e3ad6d41571f4b8674ec2753f24381abb688a24eab",
      "v": 27,
      "creates": null,
      "raw": "0xf86980850ba43b740083015f9094793ae8c1b1a160bfc07bfb0d04f85eab1a71f4f280843ba150361ba00d92d1423f1ccca6d2b01f8af2132e627be8b6858686e98aa4650967b4568ddaa020ffda779d0080e96d48f7e3ad6d41571f4b8674ec2753f24381abb688a24eab",
      "networkId": 0,
      "chainId": 0
    },
    {
      "hash": "0x1f5726c687c5e45b54906d1c6613ab9912d3cf87fa60a6aab3dcd55231f8da83",
      "blockHash": "0x2f0d3bddcc28f61dc730fd49c6b664b393f0bcaee98a72a9539da072de506765",
      "blockNumber": 68418,
      "transactionIndex": 20,
      "confirmations": null,
      "from": "0x10b7e66C734d624A2938C3531e269AE5DACC715C",
      "gasPrice": {
        "_hex": "0xba43b7400"
      },
      "gasLimit": {
        "_hex": "0x15f90"
      },
      "to": "0x793AE8C1b1a160BFc07BFB0d04F85eab1A71F4f2",
      "value": {
        "_hex": "0x0"
      },
      "nonce": 0,
      "data": "0x3ba15036",
      "r": "0x4ed09baa1d8d579993d2d76a8d52c64858bff1d1298f0e81f6685df8b9ce5bdd",
      "s": "0x4759c3a2978078949b3485d770f1cf1572858cbcd16517a55262085c4f59b584",
      "v": 28,
      "creates": null,
      "raw": "0xf86980850ba43b740083015f9094793ae8c1b1a160bfc07bfb0d04f85eab1a71f4f280843ba150361ca04ed09baa1d8d579993d2d76a8d52c64858bff1d1298f0e81f6685df8b9ce5bdda04759c3a2978078949b3485d770f1cf1572858cbcd16517a55262085c4f59b584",
      "networkId": 0,
      "chainId": 0
    },
    {
      "hash": "0x556aeef098baa09d1e8aa1b968fae8ebe276470f06c0c00502ae14f42117b4ca",
      "blockHash": "0x2f0d3bddcc28f61dc730fd49c6b664b393f0bcaee98a72a9539da072de506765",
      "blockNumber": 68418,
      "transactionIndex": 21,
      "confirmations": null,
      "from": "0x37f5820118ab9E51aaD426d1a0Df4cf192d3d392",
      "gasPrice": {
        "_hex": "0xba43b7400"
      },
      "gasLimit": {
        "_hex": "0x15f90"
      },
      "to": "0x793AE8C1b1a160BFc07BFB0d04F85eab1A71F4f2",
      "value": {
        "_hex": "0x0"
      },
      "nonce": 0,
      "data": "0x3ba15036",
      "r": "0x19cf922f05b637649481225391982c57b9bd1c937be48e87b50954475d472004",
      "s": "0x679a1e84e040f95fc86e8f81c4639cb64856aca7f1d3f9d198cdf0417f6ef620",
      "v": 28,
      "creates": null,
      "raw": "0xf86980850ba43b740083015f9094793ae8c1b1a160bfc07bfb0d04f85eab1a71f4f280843ba150361ca019cf922f05b637649481225391982c57b9bd1c937be48e87b50954475d472004a0679a1e84e040f95fc86e8f81c4639cb64856aca7f1d3f9d198cdf0417f6ef620",
      "networkId": 0,
      "chainId": 0
    },
    {
      "hash": "0x3176ac5a028a9a075cb2943619b9f5d67e767846c8cffec4d599e1bbf56e507e",
      "blockHash": "0x2f0d3bddcc28f61dc730fd49c6b664b393f0bcaee98a72a9539da072de506765",
      "blockNumber": 68418,
      "transactionIndex": 22,
      "confirmations": null,
      "from": "0x1D8c86C35368163705e523Bc8C78216A7Df4Ca22",
      "gasPrice": {
        "_hex": "0xba43b7400"
      },
      "gasLimit": {
        "_hex": "0x15f90"
      },
      "to": "0x793AE8C1b1a160BFc07BFB0d04F85eab1A71F4f2",
      "value": {
        "_hex": "0x0"
      },
      "nonce": 0,
      "data": "0x3ba15036",
      "r": "0x7ada66c216bb888d8d70bcf2f82dd3b677c891841b895a9454c0a9a8208200d3",
      "s": "0x36fec8472bd26b68389dc02e0d67a5d9b16a959de34f96f6c2d026c907ab4f03",
      "v": 27,
      "creates": null,
      "raw": "0xf86980850ba43b740083015f9094793ae8c1b1a160bfc07bfb0d04f85eab1a71f4f280843ba150361ba07ada66c216bb888d8d70bcf2f82dd3b677c891841b895a9454c0a9a8208200d3a036fec8472bd26b68389dc02e0d67a5d9b16a959de34f96f6c2d026c907ab4f03",
      "networkId": 0,
      "chainId": 0
    },
    {
      "hash": "0x625c9c6d74a720509789613d3da54cc069b5890d82dfef644a7b043002be9048",
      "blockHash": "0x2f0d3bddcc28f61dc730fd49c6b664b393f0bcaee98a72a9539da072de506765",
      "blockNumber": 68418,
      "transactionIndex": 23,
      "confirmations": null,
      "from": "0xE9492697d9e380f48100868978278a6c447e1195",
      "gasPrice": {
        "_hex": "0xba43b7400"
      },
      "gasLimit": {
        "_hex": "0x15f90"
      },
      "to": "0x793AE8C1b1a160BFc07BFB0d04F85eab1A71F4f2",
      "value": {
        "_hex": "0x0"
      },
      "nonce": 0,
      "data": "0x3ba15036",
      "r": "0x1db64abf66a309c7a7839e372f292d59022a1b1db4945714b7711f1cdc5a720a",
      "s": "0x54545784385790a69b2262806d6c7024a51712883c5c9515057ebca205230721",
      "v": 28,
      "creates": null,
      "raw": "0xf86980850ba43b740083015f9094793ae8c1b1a160bfc07bfb0d04f85eab1a71f4f280843ba150361ca01db64abf66a309c7a7839e372f292d59022a1b1db4945714b7711f1cdc5a720aa054545784385790a69b2262806d6c7024a51712883c5c9515057ebca205230721",
      "networkId": 0,
      "chainId": 0
    },
    {
      "hash": "0xfd7e47c72075ab37afb3ada886f4859672b424972870d526738a8f7e069339de",
      "blockHash": "0x2f0d3bddcc28f61dc730fd49c6b664b393f0bcaee98a72a9539da072de506765",
      "blockNumber": 68418,
      "transactionIndex": 24,
      "confirmations": null,
      "from": "0xac84b11491731b2c89b88B9F6f579C141D5F15DF",
      "gasPrice": {
        "_hex": "0xba43b7400"
      },
      "gasLimit": {
        "_hex": "0x15f90"
      },
      "to": "0x793AE8C1b1a160BFc07BFB0d04F85eab1A71F4f2",
      "value": {
        "_hex": "0x0"
      },
      "nonce": 0,
      "data": "0x3ba15036",
      "r": "0xaab47cf14e7c50a39f9a74640000f54a9405318f4abf8bef8c0b62c2235d5984",
      "s": "0x23979b5508b059e090da2a4aa95a9942c4e58248962a24b9f874c84fb4e9f447",
      "v": 28,
      "creates": null,
      "raw": "0xf86980850ba43b740083015f9094793ae8c1b1a160bfc07bfb0d04f85eab1a71f4f280843ba150361ca0aab47cf14e7c50a39f9a74640000f54a9405318f4abf8bef8c0b62c2235d5984a023979b5508b059e090da2a4aa95a9942c4e58248962a24b9f874c84fb4e9f447",
      "networkId": 0,
      "chainId": 0
    },
    {
      "hash": "0x1d919b380805c40402a475077396733c900a4524744964becd052128320f2e1a",
      "blockHash": "0x2f0d3bddcc28f61dc730fd49c6b664b393f0bcaee98a72a9539da072de506765",
      "blockNumber": 68418,
      "transactionIndex": 25,
      "confirmations": null,
      "from": "0xfedFa3299B2919c6601F4eEcB6Adb74637949b30",
      "gasPrice": {
        "_hex": "0xba43b7400"
      },
      "gasLimit": {
        "_hex": "0x15f90"
      },
      "to": "0x793AE8C1b1a160BFc07BFB0d04F85eab1A71F4f2",
      "value": {
        "_hex": "0x0"
      },
      "nonce": 0,
      "data": "0x3ba15036",
      "r": "0xbe1573a32b2ee0cc821d9d7e9d8de92eeb3e63a240586e6e954301f758e8ac0f",
      "s": "0x05e91f1b1214ffd77691162b3477c7f8f5bad41908b165df857c09f47b5bd2e6",
      "v": 27,
      "creates": null,
      "raw": "0xf86980850ba43b740083015f9094793ae8c1b1a160bfc07bfb0d04f85eab1a71f4f280843ba150361ba0be1573a32b2ee0cc821d9d7e9d8de92eeb3e63a240586e6e954301f758e8ac0fa005e91f1b1214ffd77691162b3477c7f8f5bad41908b165df857c09f47b5bd2e6",
      "networkId": 0,
      "chainId": 0
    }
  ]
}