{
  "hash": "0xeaade050ff9382e1a43e2e889634c036958d8159f296af529c904839a20343f1",
  "parentHash": "0xac3b9d6017cd16d9ddcc857fdf0a58d1ee77d5b4caf14615a9fec9d5d12c8916",
  "number": 78747,
  "timestamp": 1439458588,
  "nonce": "0x6035ac4183bf553b",
  "difficulty": 2309983799152,
  "gasLimit": {
    "_hex": "0x2fefd8"
  },
  "gasUsed": {
    "_hex": "0x5208"
  },
  "miner": "0xE81c9A6Ebe623E5d483110e0eaF2b10c769b1212",
  "extraData": "0x476574682f76312e302e312f6c696e75782f676f312e342e32",
  "transactions": [
    {
      "hash": "0xac84493fd04488dd4c5aa8d4a45c6a57c2a1a8e5a252e3504c67d56446abd4c2",
      "blockHash": "0xeaade050ff9382e1a43e2e889634c036958d8159f296af529c904839a20343f1",
      "blockNumber": 78747,
      "transactionIndex": 0,
      "confirmations": null,
      "from": "0x019D3FA6E3cdA649b26F74395A846575c7bEA14C",
      "gasPrice": {
        "_hex": "0xd651435ca"
      },
      "gasLimit": {
        "_hex": "0x15f90"
      },
      "to": "0x04a2a3ee9C9ea82e1F918ecE209f8A7E6d7521E7",
      "value": {
        "_hex": "0x8ac7230489e80000"
      },
      "nonce": 3,
      "data": "0x",
      "r": "0xde4477fa6097f8e9d35bd7f89a906f017d3dc87c4fb9d0bcaf119aa03bb69894",
      "s": "0x4577989e56b07d9158f3c55e5bdd494fb876cd7106aca4874a748e137f1871f5",
      "v": 27,
      "creates": null,
      "raw": "0xf86d03850d651435ca83015f909404a2a3ee9c9ea82e1f918ece209f8a7e6d7521e7888ac7230489e80000801ba0de4477fa6097f8e9d35bd7f89a906f017d3dc87c4fb9d0bcaf119aa03bb69894a04577989e56b07d9158f3c55e5bdd494fb876cd7106aca4874a748e137f1871f5",
      "networkId": 0,
      "chainId": 0
    }
  ]
}