{
  "hash": "0x6520dcd526117b1ea89d1f7442db5c710cfe6dc02b6e472d8fd3bb1dca8fa150",
  "parentHash": "0x2c3dc917d2b2e86ada8b008d3d7312d12a9367d65b904dc5dd5335b191082d16",
  "number": 81658,
  "timestamp": 1439505483,
  "nonce": "0x8c5c7b07cd5d9b5b",
  "difficulty": 2437792010513,
  "gasLimit": {
    "_hex": "0x2fefd8"
  },
  "gasUsed": {
    "_hex": "0xa674"
  },
  "miner": "0xe6A7a1d47ff21B6321162AEA7C6CB457D5476Bca",
  "extraData": "0x476574682f76312e302e312d38326566323666362f6c696e75782f676f312e34",
  "transactions": [
    {
      "hash": "0x771a3e2f054b2abe98179b1111a114f9ec51ea006e986bd7f50622a080dead44",
      "blockHash": "0x6520dcd526117b1ea89d1f7442db5c710cfe6dc02b6e472d8fd3bb1dca8fa150",
      "blockNumber": 81658,
      "transactionIndex": 0,
      "confirmations": null,
      "from": "0x5Bf5E9cf9B456d6591073513De7Fd69A9BEF04Bc",
      "gasPrice": {
        "_hex": "0xd69b48315"
      },
      "gasLimit": {
        "_hex": "0x55f0"
      },
      "to": "0x2910543Af39abA0Cd09dBb2D50200b3E800A63D2",
      "value": {
        "_hex": "0x2386f26fc10000"
      },
      "nonce": 4,
      "data": "0x454e51575855545752",
      "r": "0x46e67f0d09c201ac76dfb12274c3440fd7f0e63b4f885c6bf807d962ebef16e6",
      "s": "0x1b774da601b936d86f0eb7db35944e82938b9d020f1fee55795bdc89a630f878",
      "v": 27,
      "creates": null,
      "raw": "0xf87404850d69b483158255f0942910543af39aba0cd09dbb2d50200b3e800a63d2872386f26fc1000089454e515758555457521ba046e67f0d09c201ac76dfb12274c3440fd7f0e63b4f885c6bf807d962ebef16e6a01b774da601b936d86f0eb7db35944e82938b9d020f1fee55795bdc89a630f878",
      "networkId": 0,
      "chainId": 0
    },
    {
      "hash": "0x136bef7e30cae4e7275904daa8f71ea52d15b1cb5b39ca4a5bbe3d5b934b6720",
      "blockHash": "0x6520dcd526117b1ea89d1f7442db5c710cfe6dc02b6e472d8fd3bb1dca8fa150",
      "blockNumber": 81658,
      "transactionIndex": 1,
      "confirmations": null,
      "from": "0x7Eb9F59f9547E376188eD83EFCD1F6dbF3712eA6",
      "gasPrice": {
        "_hex": "0xd1d1bf00e"
      },
      "gasLimit": {
        "_hex": "0x15f90"
      },
      "to": "0xAd941B747c499E3ad5728C285446813783A33564",
      "value": {
        "_hex": "0x8ac7230489e80000"
      },
      "nonce": 9,
      "data": "0x",
      "r": "0x7ec2e7d30f76729c69d5ea50e7380096f0ae5aa0f52712379a4228f3d782d3d7",
      "s": "0x4d55a7558becf94ba6b48bd1582a873b782140fe511ea9aa85fda2b199869ed1",
      "v": 28,
      "creates": null,
      "raw": "0xf86d09850d1d1bf00e83015f9094ad941b747c499e3ad5728c285446813783a33564888ac7230489e80000801ca07ec2e7d30f76729c69d5ea50e7380096f0ae5aa0f52712379a4228f3d782d3d7a04d55a7558becf94ba6b48bd1582a873b782140fe511ea9aa85fda2b199869ed1",
      "networkId": 0,
      "chainId": 0
    }
  ]
}