{
  "hash": "0xe5361b454c087549753c0224026dbd062155f4020b5ce27c20406c4104261be8",
  "parentHash": "0xe087da002ab91a4e85bb23323bbb4f4e099618370c1d21b0a5c33236a84bdd27",
  "number": 110829,
  "timestamp": 1439980150,
  "nonce": "0x51a597cff86a03d8",
  "difficulty": 4405395995494,
  "gasLimit": {
    "_hex": "0x2fefd8"
  },
  "gasUsed": {
    "_hex": "0x1bdbe"
  },
  "miner": "0x9D49F602b0fdb924Bd63DDE2Bd0907E4A07c63a7",
  "extraData": "0x476574682f76312e302e312f6c696e75782f676f312e342e32",
  "transactions": [
    {
      "hash": "0xa94ed293615e2db428ac7b4871f55986105cd172fdda5549b416e6ad00e978ce",
      "blockHash": "0xe5361b454c087549753c0224026dbd062155f4020b5ce27c20406c4104261be8",
      "blockNumber": 110829,
      "transactionIndex": 0,
      "confirmations": null,
      "from": "0x3ce70f7EBbb911d5FF14BB9244ac7C9be2c669B3",
      "gasPrice": {
        "_hex": "0xd58deb0e8"
      },
      "gasLimit": {
        "_hex": "0x249f0"
      },
      "to": "0xE28e72FCf78647ADCe1F1252F240bbfaebD63BcC",
      "value": {
        "_hex": "0xde0b6b3a7640000"
      },
      "nonce": 3,
      "data": "0x45466f3a",
      "r": "0x63a78f31482215936682c816112b9f79232a7e126ac4bfabe6824f9c84567fe2",
      "s": "0x343fae0debf081d793b75f9db00899bff4f3ae20f1534641c3ef0a182fb2988e",
      "v": 27,
      "creates": null,
      "raw": "0xf87103850d58deb0e8830249f094e28e72fcf78647adce1f1252f240bbfaebd63bcc880de0b6b3a76400008445466f3a1ba063a78f31482215936682c816112b9f79232a7e126ac4bfabe6824f9c84567fe2a0343fae0debf081d793b75f9db00899bff4f3ae20f1534641c3ef0a182fb2988e",
      "networkId": 0,
      "chainId": 0
    }
  ]
}