{
  "hash": "0x0b6fe7784df9e4819e559fd47fc7309c6716bb366099f33e02fe8d73ffb0e643",
  "parentHash": "0x73e792ff52da875e77b32f8e6e8fc63ba47739b4162770bbb8733e02a0b5ca2b",
  "number": 82741,
  "timestamp": 1439524398,
  "nonce": "0xf5d1a9f2fdecbf32",
  "difficulty": 2379850877204,
  "gasLimit": {
    "_hex": "0x2fefd8"
  },
  "gasUsed": {
    "_hex": "0x54b0"
  },
  "miner": "0xa50ec0D39fa913E62f1Bae7074E6F36caA71855b",
  "extraData": "0xd783010001844765746887676f312e342e32856c696e7578",
  "transactions": [
    {
      "hash": "0x7c3903099d8d7d6f3af9bd42a8d28a709041972a69c904f7f4df8863513038ce",
      "blockHash": "0x0b6fe7784df9e4819e559fd47fc7309c6716bb366099f33e02fe8d73ffb0e643",
      "blockNumber": 82741,
      "transactionIndex": 0,
      "confirmations": null,
      "from": "0x82A15CeF1d6c8260EAf159eA3f0180D8677DcE1c",
      "gasPrice": {
        "_hex": "0xd7e38af24"
      },
      "gasLimit": {
        "_hex": "0x55f0"
      },
      "to": "0x40B9b889A21Ff1534d018D71Dc406122EBcf3F5A",
      "value": {
        "_hex": "0x601d515a3e4f940000"
      },
      "nonce": 5,
      "data": "0x5246454c553137333631",
      "r": "0x87571b5ae733490df056e9c2ea01b38c1713f36076c687d3328d16b4df0b682d",
      "s": "0x17e4516127df1131433d09dc47a2f6c5ac2f4f4ae7fae9fa05012d8fa3069a3a",
      "v": 27,
      "creates": null,
      "raw": "0xf87705850d7e38af248255f09440b9b889a21ff1534d018d71dc406122ebcf3f5a89601d515a3e4f9400008a5246454c5531373336311ba087571b5ae733490df056e9c2ea01b38c1713f36076c687d3328d16b4df0b682da017e4516127df1131433d09dc47a2f6c5ac2f4f4ae7fae9fa05012d8fa3069a3a",
      "networkId": 0,
      "chainId": 0
    }
  ]
}