{
  "hash": "0x06c8dcf159ab7323fb36584c1c7c73b1913bbf449e86dcd59ac46fd7f7b9907a",
  "parentHash": "0x9d13b51ce99d4fff2d1b31f53ecde87355cc44384ca0e725dee1e14fdeb930f8",
  "number": 80539,
  "timestamp": 1439486979,
  "nonce": "0xe79abb8ff690b35b",
  "difficulty": 2422689906186,
  "gasLimit": {
    "_hex": "0x2fefd8"
  },
  "gasUsed": {
    "_hex": "0xf618"
  },
  "miner": "0xC603Ab5ef41fC61AA8b76bEddb09e3Cfcbb174BD",
  "extraData": "0x476574682f76312e302e312f77696e646f77732f676f312e342e32",
  "transactions": [
    {
      "hash": "0xf1324bafb587ae3c9696bffcc68351cc6fcd4a255693798f4006a84fb7241c3a",
      "blockHash": "0x06c8dcf159ab7323fb36584c1c7c73b1913bbf449e86dcd59ac46fd7f7b9907a",
      "blockNumber": 80539,
      "transactionIndex": 0,
      "confirmations": null,
      "from": "0x0D4EcC7d750180EBf4A9Df728B6669B5Bceb5E40",
      "gasPrice": {
        "_hex": "0xd39fe004b"
      },
      "gasLimit": {
        "_hex": "0x5208"
      },
      "to": "0x32Be343B94f860124dC4fEe278FDCBD38C102D88",
      "value": {
        "_hex": "0x4563928bb23f8800"
      },
      "nonce": 3,
      "data": "0x",
      "r": "0x7d6fe88c1846dbc596fed513a7d9622c0bf10c09892d18780e5dd02ca7c1095f",
      "s": "0x44a525009562dcf484ccadc2d07b12bd04f949cca9577bcd42ad47e027114dcb",
      "v": 28,
      "creates": null,
      "raw": "0xf86c03850d39fe004b8252089432be343b94f860124dc4fee278fdcbd38c102d88884563928bb23f8800801ca07d6fe88c1846dbc596fed513a7d9622c0bf10c09892d18780e5dd02ca7c1095fa044a525009562dcf484ccadc2d07b12bd04f949cca9577bcd42ad47e027114dcb",
      "networkId": 0,
      "chainId": 0
    },
    {
      "hash": "0x82bf393159fb0f4f53932daa217e6c0cb902ec0c5286443a4ecb4fb8cfab79a0",
      "blockHash": "0x06c8dcf159ab7323fb36584c1c7c73b1913bbf449e86dcd59ac46fd7f7b9907a",
      "blockNumber": 80539,
      "transactionIndex": 1,
      "confirmations": null,
      "from": "0xdE8b99F68A20641A07501B9f1DC2CB73251C5909",
      "gasPrice": {
        "_hex": "0xd39fe004b"
      },
      "gasLimit": {
        "_hex": "0x5208"
      },
      "to": "0x32Be343B94f860124dC4fEe278FDCBD38C102D88",
      "value": {
        "_hex": "0x3f50fd03014f0e000"
      },
      "nonce": 2,
      "data": "0x",
      "r": "0x7e7707c668c7a897bd34b35ee4c000e7aba0f73c6a5ae8625862b2f2101cbbf0",
      "s": "0x5f98d4874b970d5ef8b6ccb6b2a7e6460cbbd5be27082c5ad4cc65c855e7dfe1",
      "v": 27,
      "creates": null,
      "raw": "0xf86d02850d39fe004b8252089432be343b94f860124dc4fee278fdcbd38c102d888903f50fd03014f0e000801ba07e7707c668c7a897bd34b35ee4c000e7aba0f73c6a5ae8625862b2f2101cbbf0a05f98d4874b970d5ef8b6ccb6b2a7e6460cbbd5be27082c5ad4cc65c855e7dfe1",
      "networkId": 0,
      "chainId": 0
    },
    {
      "hash": "0xd4072f5fba8a2aea06e1d7488e4480439e95f445d5fcaa199f61b67eface2294",
      "blockHash": "0x06c8dcf159ab7323fb36584c1c7c73b1913bbf449e86dcd59ac46fd7f7b9907a",
      "blockNumber": 80539,
      "transactionIndex": 2,
      "confirmations": null,
      "from": "0xDcb902e442b8ADADd6D87669DC2fc4A7b5eDF486",
      "gasPrice": {
        "_hex": "0xd39fe004b"
      },
      "gasLimit": {
        "_hex": "0x5208"
      },
      "to": "0x32Be343B94f860124dC4fEe278FDCBD38C102D88",
      "value": {
        "_hex": "0xddc79b6025c0000"
      },
      "nonce": 0,
      "data": "0x",
      "r": "0xca55c245715b7d5c45503b59559b36ff9a665194c5f749d2854d2d1c9a2bd109",
      "s": "0x632b1ab8f6fd50be7152b3851f40ec4976330baa69f79fdeb657c31592443a6e",
      "v": 28,
      "creates": null,
      "raw": "0xf86c80850d39fe004b8252089432be343b94f860124dc4fee278fdcbd38c102d88880ddc79b6025c0000801ca0ca55c245715b7d5c45503b59559b36ff9a665194c5f749d2854d2d1c9a2bd109a0632b1ab8f6fd50be7152b3851f40ec4976330baa69f79fdeb657c31592443a6e",
      "networkId": 0,
      "chainId": 0
    }
  ]
}