{
  "hash": "0x3ae4f95d82f33e1c8c63f82a65513ab5cef40b3cdeef8e02ea4a84369e7e8e7f",
  "parentHash": "0x8e61da79cfe0be6b75a55faedb06e36d77fc5c612d9f73b193cdbe5e329b6584",
  "number": 70122,
  "timestamp": 1439314991,
  "nonce": "0xa3a415934c98042c",
  "difficulty": 2112636414406,
  "gasLimit": {
    "_hex": "0x2fefd8"
  },
  "gasUsed": {
    "_hex": "0x5208"
  },
  "miner": "0x39A1BB80a741bF5EC39FB9BE59408Fa0F418fFBf",
  "extraData": "0x476574682f76312e302e312f77696e646f77732f676f312e342e32",
  "transactions": [
    {
      "hash": "0x7c8887a408d9a734e348166a227c371400f5eb7a746f47d16623a9ff31005171",
      "blockHash": "0x3ae4f95d82f33e1c8c63f82a65513ab5cef40b3cdeef8e02ea4a84369e7e8e7f",
      "blockNumber": 70122,
      "transactionIndex": 0,
      "confirmations": null,
      "from": "0x2910543Af39abA0Cd09dBb2D50200b3E800A63D2",
      "gasPrice": {
        "_hex": "0xe2530d482"
      },
      "gasLimit": {
        "_hex": "0x5208"
      },
      "to": "0xFD7c9117BbEB649d9b37B3D3C9917f7c12f526B3",
      "value": {
        "_hex": "0xad77cf8e18e3f8000"
      },
      "nonce": 235,
      "data": "0x",
      "r": "0xc6ffe4930306953cecaa378723f6b0cae8aa10f7dc06d6dc112da83143af0a7c",
      "s": "0x63a0d0cea823588151b9f2be94005507b1a6f709958f0630810ccd854cebdcae",
      "v": 28,
      "creates": null,
      "raw": "0xf86e81eb850e2530d48282520894fd7c9117bbeb649d9b37b3d3c9917f7c12f526b3890ad77cf8e18e3f8000801ca0c6ffe4930306953cecaa378723f6b0cae8aa10f7dc06d6dc112da83143af0a7ca063a0d0cea823588151b9f2be94005507b1a6f709958f0630810ccd854cebdcae",
      "networkId": 0,
      "chainId": 0
    }
  ]
}