{
  "hash": "0xb4e118aeef83a0a8b58fb0273444690f68d856c33be0917501fd74f3ab6e5a50",
  "parentHash": "0x7227ec9b25c5397101f9ffe3c8dee4e3ce067f74f97861be5075b4f9ed729451",
  "number": 64835,
  "timestamp": 1439227025,
  "nonce": "0x3eb00b949e1419f7",
  "difficulty": 1901436918021,
  "gasLimit": {
    "_hex": "0x2fefd8"
  },
  "gasUsed": {
    "_hex": "0xf618"
  },
  "miner": "0x52Dc504a422f0E2A9e7632A34a50f1a82F8224c7",
  "extraData": "0x476574682f76312e302e312f6c696e75782f676f312e342e32",
  "transactions": [
    {
      "hash": "0x8d9359e463b7c05ecc9d19587dc1f88315b0b9b1e964540700d9aef918fca2c7",
      "blockHash": "0xb4e118aeef83a0a8b58fb0273444690f68d856c33be0917501fd74f3ab6e5a50",
      "blockNumber": 64835,
      "transactionIndex": 0,
      "confirmations": null,
      "from": "0xf0E93902C82C20C953Ba57D195E6C2987E6ba37F",
      "gasPrice": {
        "_hex": "0xd641f460d"
      },
      "gasLimit": {
        "_hex": "0x55f0"
      },
      "to": "0xC6318573a1Eb70B7B3d53F007d46fcEB3CFcEEaC",
      "value": {
        "_hex": "0x8ac7230489e80000"
      },
      "nonce": 0,
      "data": "0x",
      "r": "0x364f95b42187da3983ddeb8b859796234b652e56d0db2140fcb244bc42a95682",
      "s": "0x44f41e0bd657f26ea09adb86d853b25a4f1adf6b29b1d4ebcdc2a0d0c1b3b116",
      "v": 28,
      "creates": null,
      "raw": "0xf86c80850d641f460d8255f094c6318573a1eb70b7b3d53f007d46fceb3cfceeac888ac7230489e80000801ca0364f95b42187da3983ddeb8b859796234b652e56d0db2140fcb244bc42a95682a044f41e0bd657f26ea09adb86d853b25a4f1adf6b29b1d4ebcdc2a0d0c1b3b116",
      "networkId": 0,
      "chainId": 0
    },
    {
      "hash": "0xde9919ff68bbe2c68722c9f373df4d1d4779f7e961e70fb330c1ad06497787aa",
      "blockHash": "0xb4e118aeef83a0a8b58fb0273444690f68d856c33be0917501fd74f3ab6e5a50",
      "blockNumber": 64835,
      "transactionIndex": 1,
      "confirmations": null,
      "from": "0xB17D00436E59C378eaB32004CCE6c0f365d26823",
      "gasPrice": {
        "_hex": "0xba43b7400"
      },
      "gasLimit": {
        "_hex": "0x5208"
      },
      "to": "0x1cc15169AeE1d7dffEFF5CAcaaBe484b4c172d60",
      "value": {
        "_hex": "0x233f501ceb77000"
      },
      "nonce": 1,
      "data": "0x",
      "r": "0x3a6ffedda439f76140b43b173a2be72b677e62846066b4a9b772dee4cebf5461",
      "s": "0x7ebc3098dbfd50655f46dac47beb71419f9460f3d12745fe30c47a5ca896c22c",
      "v": 27,
      "creates": null,
      "raw": "0xf86c01850ba43b7400825208941cc15169aee1d7dffeff5cacaabe484b4c172d60880233f501ceb77000801ba03a6ffedda439f76140b43b173a2be72b677e62846066b4a9b772dee4cebf5461a07ebc3098dbfd50655f46dac47beb71419f9460f3d12745fe30c47a5ca896c22c",
      "networkId": 0,
      "chainId": 0
    },
    {
      "hash": "0x391342c7c7e2571997e89593f114ffe3fe1ea9161921d7cddf97a1f83bc14c61",
      "blockHash": "0xb4e118aeef83a0a8b58fb0273444690f68d856c33be0917501fd74f3ab6e5a50",
      "blockNumber": 64835,
      "transactionIndex": 2,
      "confirmations": null,
      "from": "0xd9ef4d6239619f5F64A0b911C830Db5454BC80d0",
      "gasPrice": {
        "_hex": "0xba43b7400"
      },
      "gasLimit": {
        "_hex": "0x5208"
      },
      "to": "0x62863432702C48884c8831D4d2bB2C8Ef3867182",
      "value": {
        "_hex": "0x205aea81b969000"
      },
      "nonce": 1,
      "data": "0x",
      "r": "0xb3a288b532dd144758370d8cba4ef96c74bdda299d3634237abefb4fff1b26b7",
      "s": "0x692c765c16ff7a449a6fd15a8e9b67b7e840bf7954bc85a8f95ca6f4e62f069b",
      "v": 28,
      "creates": null,
      "raw": "0xf86c01850ba43b74008252089462863432702c48884c8831d4d2bb2c8ef3867182880205aea81b969000801ca0b3a288b532dd144758370d8cba4ef96c74bdda299d3634237abefb4fff1b26b7a0692c765c16ff7a449a6fd15a8e9b67b7e840bf7954bc85a8f95ca6f4e62f069b",
      "networkId": 0,
      "chainId": 0
    }
  ]
}