{
  "hash": "0x083807a59358b1e9b2c9d19df68e88c3c813cebf6094451d2980ee4687e4d6a6",
  "parentHash": "0x4d441eacb40ea64f095d809220121015c13980bb43b0e025adc2ef391230de4b",
  "number": 71593,
  "timestamp": 1439338804,
  "nonce": "0xb84764e97d09c4a9",
  "difficulty": 2169760444064,
  "gasLimit": {
    "_hex": "0x2fefd8"
  },
  "gasUsed": {
    "_hex": "0x9400"
  },
  "miner": "0xf927a40C8B7F6E07c5af7FA2155B4864a4112B13",
  "extraData": "0x",
  "transactions": [
    {
      "hash": "0x9e339a9ccf076fbd58aca2f031f24f08e3e74a0913ab11a4afcf178b96c2b6b3",
      "blockHash": "0x083807a59358b1e9b2c9d19df68e88c3c813cebf6094451d2980ee4687e4d6a6",
      "blockNumber": 71593,
      "transactionIndex": 0,
      "confirmations": null,
      "from": "0x17580B766f7453525ca4C6A88b01b50570EA088C",
      "gasPrice": {
        "_hex": "0xcd2cd9f17"
      },
      "gasLimit": {
        "_hex": "0x61a80"
      },
      "to": "0x5Fe5B7546D1628f7348B023A0393de1FC825A4fD",
      "value": {
        "_hex": "0x4563918244f40000"
      },
      "nonce": 228,
      "data": "0xb595b8b50000000000000000000000000000000000000000000000000000000000000001",
      "r": "0x23dcbb82ce0248642859429f4b9287ba4058027a099e725e77c23913f5a9d54e",
      "s": "0x4169cc43ef2816e1b9161051f9094bb5244dca3eb355eee491c2263e635329c3",
      "v": 28,
      "creates": null,
      "raw": "0xf89281e4850cd2cd9f1783061a80945fe5b7546d1628f7348b023a0393de1fc825a4fd884563918244f40000a4b595b8b500000000000000000000000000000000000000000000000000000000000000011ca023dcbb82ce0248642859429f4b9287ba4058027a099e725e77c23913f5a9d54ea04169cc43ef2816e1b9161051f9094bb5244dca3eb355eee491c2263e635329c3",
      "networkId": 0,
      "chainId": 0
    }
  ]
}