{
  "hash": "0x8628af2026532d6c33bf7951ee3b81c07ae740a41b8df09dbca6c60ad9646ee0",
  "parentHash": "0x156b8e6d48369ee129ed682dba75abf2801b3d90a9e6e51fad772d14c3239bbd",
  "number": 60285,
  "timestamp": 1439152899,
  "nonce": "0x1723cc7267c820e3",
  "difficulty": 1740696082791,
  "gasLimit": {
    "_hex": "0x2fefd8"
  },
  "gasUsed": {
    "_hex": "0xa674"
  },
  "miner": "0xC49418429e58989172a4ACE0bab0cB8D3F00F97f",
  "extraData": "0x476574682f76312e302e312f6c696e75782f676f312e342e32",
  "transactions": [
    {
      "hash": "0x48bfaf71f212847b5f8541de6466a17823521a3b2db6c19cbd7c1301f4355fa2",
      "blockHash": "0x8628af2026532d6c33bf7951ee3b81c07ae740a41b8df09dbca6c60ad9646ee0",
      "blockNumber": 60285,
      "transactionIndex": 0,
      "confirmations": null,
      "from": "0x38695fC7e1367cEb163eBb053751f9f68ddB07a0",
      "gasPrice": {
        "_hex": "0x110c8f7d8de"
      },
      "gasLimit": {
        "_hex": "0xc350"
      },
      "to": "0x2910543Af39abA0Cd09dBb2D50200b3E800A63D2",
      "value": {
        "_hex": "0x66e40a8ff70b680000"
      },
      "nonce": 1,
      "data": "0x454e39394546565530",
      "r": "0x7e4ef2965c538b9fa8228dd6c093884dc12efeba75346ef35105752cad7ae136",
      "s": "0xa865eec5cdb0fd63e462ffd41a46482e4dc4ca8e707c5a04ba3aa79c5f43e837",
      "v": 27,
      "creates": null,
      "raw": "0xf87701860110c8f7d8de82c350942910543af39aba0cd09dbb2d50200b3e800a63d28966e40a8ff70b68000089454e393945465655301ba07e4ef2965c538b9fa8228dd6c093884dc12efeba75346ef35105752cad7ae136a0a865eec5cdb0fd63e462ffd41a46482e4dc4ca8e707c5a04ba3aa79c5f43e837",
      "networkId": 0,
      "chainId": 0
    },
    {
      "hash": "0xbfbc06b12f94e96aa3a8862d14bf5071033aca800dd9a92834b97f45674a7db2",
      "blockHash": "0x8628af2026532d6c33bf7951ee3b81c07ae740a41b8df09dbca6c60ad9646ee0",
      "blockNumber": 60285,
      "transactionIndex": 1,
      "confirmations": null,
      "from": "0x8155Fa6c51Eb31D808412d748aA086105018122f",
      "gasPrice": {
        "_hex": "0xdfdf01a1b"
      },
      "gasLimit": {
        "_hex": "0x15f90"
      },
      "to": "0xc955d372Fe1c428D17CD86E05d26F0206F3677b1",
      "value": {
        "_hex": "0x56bc75e2d63100000"
      },
      "nonce": 4,
      "data": "0x",
      "r": "0x6a915b80837277494ae341b4123a76b9179f8839f9d95ecc50894e4283390aa9",
      "s": "0x40b754c44ed8d1c736fca749f6c7b4ac21282aba8b426b886f992addad2a0d23",
      "v": 28,
      "creates": null,
      "raw": "0xf86e04850dfdf01a1b83015f9094c955d372fe1c428d17cd86e05d26f0206f3677b189056bc75e2d63100000801ca06a915b80837277494ae341b4123a76b9179f8839f9d95ecc50894e4283390aa9a040b754c44ed8d1c736fca749f6c7b4ac21282aba8b426b886f992addad2a0d23",
      "networkId": 0,
      "chainId": 0
    }
  ]
}