{
  "hash": "0x40e65fe17fa1c4e262c5ddff1d176f66bb138c338d930953c7b8ee9e8e75f027",
  "parentHash": "0x645213522c9eef5abd2b2c72058e84d8ccfa621abdaf4b21133615257362b781",
  "number": 108453,
  "timestamp": 1439940881,
  "nonce": "0xc200202bc5c1d7fa",
  "difficulty": 4291971583265,
  "gasLimit": {
    "_hex": "0x2fefd8"
  },
  "gasUsed": {
    "_hex": "0x5208"
  },
  "miner": "0x0eDEd3DA479d0beF8eeC92A76644D3f4E3C177f7",
  "extraData": "0x476574682f76312e302e312f6c696e75782f676f312e342e32",
  "transactions": [
    {
      "hash": "0xbb6f4f91a7c925bb036736f47b0ef09e98703a53cf9964a879cdb201fa6d83ef",
      "blockHash": "0x40e65fe17fa1c4e262c5ddff1d176f66bb138c338d930953c7b8ee9e8e75f027",
      "blockNumber": 108453,
      "transactionIndex": 0,
      "confirmations": null,
      "from": "0x0AE502D5084FDe52CdEAb47766c05DD73F5a3Df8",
      "gasPrice": {
        "_hex": "0xd1b3118a3"
      },
      "gasLimit": {
        "_hex": "0x5208"
      },
      "to": "0x32Be343B94f860124dC4fEe278FDCBD38C102D88",
      "value": {
        "_hex": "0xdb8fca1c9005400"
      },
      "nonce": 0,
      "data": "0x",
      "r": "0xff620675017f74d558235f46be1d3eeb7c7ab1a8d134602cc6eac2b94602273e",
      "s": "0x60915237d34278a18d1afbef04283531b30105d2f19e162feb81bf38016c2fff",
      "v": 28,
      "creates": null,
      "raw": "0xf86c80850d1b3118a38252089432be343b94f860124dc4fee278fdcbd38c102d88880db8fca1c9005400801ca0ff620675017f74d558235f46be1d3eeb7c7ab1a8d134602cc6eac2b94602273ea060915237d34278a18d1afbef04283531b30105d2f19e162feb81bf38016c2fff",
      "networkId": 0,
      "chainId": 0
    }
  ]
}