{
  "hash": "0x61921aaa3593c3f8b19e8c8caa040b9e28a4cad064173359542c5efb9af54dc9",
  "parentHash": "0x46551c1935fee462dc0f37cfb141bb78be71cca850da8931e69983b31b263c4d",
  "number": 114775,
  "timestamp": 1440046158,
  "nonce": "0x9b355a0e9be23354",
  "difficulty": 4463939304571,
  "gasLimit": {
    "_hex": "0x2fefd8"
  },
  "gasUsed": {
    "_hex": "0x5208"
  },
  "miner": "0xe6A7a1d47ff21B6321162AEA7C6CB457D5476Bca",
  "extraData": "0x476574682f76312e302e312d38326566323666362f6c696e75782f676f312e34",
  "transactions": [
    {
      "hash": "0xf917764ca4c3f338940093027d2a1985e3304d588bf2f67ee5b9ada225becea2",
      "blockHash": "0x61921aaa3593c3f8b19e8c8caa040b9e28a4cad064173359542c5efb9af54dc9",
      "blockNumber": 114775,
      "transactionIndex": 0,
      "confirmations": null,
      "from": "0x1A22137e525478043F6E1394849e6C23932786C9",
      "gasPrice": {
        "_hex": "0xd99a54ea8"
      },
      "gasLimit": {
        "_hex": "0x5208"
      },
      "to": "0x0a41Be86378F36BA0823db204723693c0836a3E9",
      "value": {
        "_hex": "0x8acb5215460bfd20"
      },
      "nonce": 9,
      "data": "0x",
      "r": "0x0337ae468ab15228c6c396abfac1def704b95b1e3dde3102f134fdb90ee324d6",
      "s": "0x1056e4f581a1d07b326e1615c43e6af0c3c9f84d64e42979308607d88ea158f1",
      "v": 28,
      "creates": null,
      "raw": "0xf86c09850d99a54ea8825208940a41be86378f36ba0823db204723693c0836a3e9888acb5215460bfd20801ca00337ae468ab15228c6c396abfac1def704b95b1e3dde3102f134fdb90ee324d6a01056e4f581a1d07b326e1615c43e6af0c3c9f84d64e42979308607d88ea158f1",
      "networkId": 0,
      "chainId": 0
    }
  ]
}