{
  "hash": "0x8ed3ba210cdf9dce94ee598ed118bc50703725399a1c8f08fa8275649f07cff1",
  "parentHash": "0xa7d252ac9ae1f82a3bc5961b01538edf969fa72cb05220aa87010ee55016e91f",
  "number": 64762,
  "timestamp": 1439225908,
  "nonce": "0xb2cfe01a98f7be2d",
  "difficulty": 1889421917472,
  "gasLimit": {
    "_hex": "0x2fefd8"
  },
  "gasUsed": {
    "_hex": "0xbe6c"
  },
  "miner": "0xEF247E639d49461D25F57e9362CadE3120910Ce0",
  "extraData": "0x476574682f76312e302e312f6c696e75782f676f312e342e32",
  "transactions": [
    {
      "hash": "0x3638d7f1da0f4daa10fbc7a7010fa787699924023a2d9da359665dba6d5634b0",
      "blockHash": "0x8ed3ba210cdf9dce94ee598ed118bc50703725399a1c8f08fa8275649f07cff1",
      "blockNumber": 64762,
      "transactionIndex": 0,
      "confirmations": null,
      "from": "0x49C3890417A75fD2f2733D0D4fcBc2C325ef8316",
      "gasPrice": {
        "_hex": "0xba43b7400"
      },
      "gasLimit": {
        "_hex": "0x15f90"
      },
      "to": "0x793AE8C1b1a160BFc07BFB0d04F85eab1A71F4f2",
      "value": {
        "_hex": "0x0"
      },
      "nonce": 0,
      "data": "0x3ba15036",
      "r": "0x87e8288cd5c365006a3dbb8f342a0416d090f65c588194e8a6684c33c2ad5a2d",
      "s": "0x2f9174fb523c38f09f6bc7379fc372ad5eb02427f0ddcb5c18f763feb4fc5346",
      "v": 28,
      "creates": null,
      "raw": "0xf86980850ba43b740083015f9094793ae8c1b1a160bfc07bfb0d04f85eab1a71f4f280843ba150361ca087e8288cd5c365006a3dbb8f342a0416d090f65c588194e8a6684c33c2ad5a2da02f9174fb523c38f09f6bc7379fc372ad5eb02427f0ddcb5c18f763feb4fc5346",
      "networkId": 0,
      "chainId": 0
    }
  ]
}