{
  "hash": "0x98f403fcb5a8565fa80871ffcc16c7f98e2951351216008c22b7816ad479c702",
  "parentHash": "0x1c3886d1582694c4901452ebf0bd92c5d1c39dd39dc5e4d774bd92470144b2dd",
  "number": 75215,
  "timestamp": 1439399683,
  "nonce": "0xa150b41edd39d4cd",
  "difficulty": 2194389206222,
  "gasLimit": {
    "_hex": "0x2fefd8"
  },
  "gasUsed": {
    "_hex": "0x5208"
  },
  "miner": "0xF2d2AfF1320476cb8C6b607199D23175cc595693",
  "extraData": "0x476574682f76312e302e312f77696e646f77732f676f312e342e32",
  "transactions": [
    {
      "hash": "0xcc96130fcedbee54e3899ef385a35580d661f4f1cf6b4e338fa33695a0860b4a",
      "blockHash": "0x98f403fcb5a8565fa80871ffcc16c7f98e2951351216008c22b7816ad479c702",
      "blockNumber": 75215,
      "transactionIndex": 0,
      "confirmations": null,
      "from": "0x24bD5904059091d2f9E12d6a26A010CA22ab14E8",
      "gasPrice": {
        "_hex": "0xd23ee12e2"
      },
      "gasLimit": {
        "_hex": "0x15f90"
      },
      "to": "0xdE8b99F68A20641A07501B9f1DC2CB73251C5909",
      "value": {
        "_hex": "0x6194049f30f7200000"
      },
      "nonce": 2,
      "data": "0x",
      "r": "0x31819118b260611db0d31342a87f8df1eb9b26ac4818052c4dff51e74417f6bf",
      "s": "0x6e0316dd93d4f0fb5ebdc979c69b2311e6f1219443d1df878eb391cf9793693f",
      "v": 27,
      "creates": null,
      "raw": "0xf86e02850d23ee12e283015f9094de8b99f68a20641a07501b9f1dc2cb73251c5909896194049f30f7200000801ba031819118b260611db0d31342a87f8df1eb9b26ac4818052c4dff51e74417f6bfa06e0316dd93d4f0fb5ebdc979c69b2311e6f1219443d1df878eb391cf9793693f",
      "networkId": 0,
      "chainId": 0
    }
  ]
}