{
  "hash": "0x5a9a19e3d070a0cbd591c4a8f357a8eab765c4a8d7ba720d8fea607f17b5a76c",
  "parentHash": "0xe672c371942800835d67503b9a431775060addde959019ec678d2422b444be5c",
  "number": 83121,
  "timestamp": 1439530528,
  "nonce": "0x56d1b248375296e3",
  "difficulty": 2403096599091,
  "gasLimit": {
    "_hex": "0x2fefd8"
  },
  "gasUsed": {
    "_hex": "0xf618"
  },
  "miner": "0xC603Ab5ef41fC61AA8b76bEddb09e3Cfcbb174BD",
  "extraData": "0x476574682f76312e302e312f77696e646f77732f676f312e342e32",
  "transactions": [
    {
      "hash": "0xa9b46dc40f2ccca893381405ffda4932f2b54a876c5cbdaebe657af78f7a3400",
      "blockHash": "0x5a9a19e3d070a0cbd591c4a8f357a8eab765c4a8d7ba720d8fea607f17b5a76c",
      "blockNumber": 83121,
      "transactionIndex": 0,
      "confirmations": null,
      "from": "0xD678C8d3430cbE0d7a6F36487f3Cb6E5f27e4CA6",
      "gasPrice": {
        "_hex": "0xdb9a1f19f"
      },
      "gasLimit": {
        "_hex": "0x5208"
      },
      "to": "0x32Be343B94f860124dC4fEe278FDCBD38C102D88",
      "value": {
        "_hex": "0x1dc2e36961ef8c0000"
      },
      "nonce": 3,
      "data": "0x",
      "r": "0x8845ee6b131c4c0d040358068581ed95152ba4fe49ecd5d9bec4d3bd5f3e4fc9",
      "s": "0x64826095d91ded0430d0c7becdf061d545b7341fec7bcae6b5c6ae122712c036",
      "v": 28,
      "creates": null,
      "raw": "0xf86d03850db9a1f19f8252089432be343b94f860124dc4fee278fdcbd38c102d88891dc2e36961ef8c0000801ca08845ee6b131c4c0d040358068581ed95152ba4fe49ecd5d9bec4d3bd5f3e4fc9a064826095d91ded0430d0c7becdf061d545b7341fec7bcae6b5c6ae122712c036",
      "networkId": 0,
      "chainId": 0
    },
    {
      "hash": "0x276a01197f36a07abc429194e6c436ae580b839eaea532c95aeb4a0d3907fa7a",
      "blockHash": "0x5a9a19e3d070a0cbd591c4a8f357a8eab765c4a8d7ba720d8fea607f17b5a76c",
      "blockNumber": 83121,
      "transactionIndex": 1,
      "confirmations": null,
      "from": "0x0D4EcC7d750180EBf4A9Df728B6669B5Bceb5E40",
      "gasPrice": {
        "_hex": "0xdb9a1f19f"
      },
      "gasLimit": {
        "_hex": "0x5208"
      },
      "to": "0x32Be343B94f860124dC4fEe278FDCBD38C102D88",
      "value": {
        "_hex": "0x455f2ba08f17c000"
      },
      "nonce": 18,
      "data": "0x",
      "r": "0x281c36ef377db442ae520577a7dafb7abbcb680c17ec6c43f5bf58df4a873378",
      "s": "0x48b7e5ef7f26f980e1b9b9b09cda5899628d5602f9c6249aa2485509666237df",
      "v": 28,
      "creates": null,
      "raw": "0xf86c12850db9a1f19f8252089432be343b94f860124dc4fee278fdcbd38c102d8888455f2ba08f17c000801ca0281c36ef377db442ae520577a7dafb7abbcb680c17ec6c43f5bf58df4a873378a048b7e5ef7f26f980e1b9b9b09cda5899628d5602f9c6249aa2485509666237df",
      "networkId": 0,
      "chainId": 0
    },
    {
      "hash": "0x4fa63865c417e2ca355af3c9dfa453c4c835724876fbadd3eacda41dbed049cb",
      "blockHash": "0x5a9a19e3d070a0cbd591c4a8f357a8eab765c4a8d7ba720d8fea607f17b5a76c",
      "blockNumber": 83121,
      "transactionIndex": 2,
      "confirmations": null,
      "from": "0x3C07514E04bEcB6e0142E5fb6CF685f88A1fee86",
      "gasPrice": {
        "_hex": "0xba43b7400"
      },
      "gasLimit": {
        "_hex": "0x5208"
      },
      "to": "0xC47Aaa860008be6f65B58c6C6E02a84e666EfE31",
      "value": {
        "_hex": "0x11567041e76fc1dc0"
      },
      "nonce": 1,
      "data": "0x",
      "r": "0x26c7873c14a906183bef84469f9c9cc946d36c29c420d99c67b8b6874632e59f",
      "s": "0x41b1895ed80fe6f73fbecd462a0707ada9c95bb8da2e50d08fca628160c253a1",
      "v": 27,
      "creates": null,
      "raw": "0xf86d01850ba43b740082520894c47aaa860008be6f65b58c6c6e02a84e666efe3189011567041e76fc1dc0801ba026c7873c14a906183bef84469f9c9cc946d36c29c420d99c67b8b6874632e59fa041b1895ed80fe6f73fbecd462a0707ada9c95bb8da2e50d08fca628160c253a1",
      "networkId": 0,
      "chainId": 0
    }
  ]
}