{
  "hash": "0xfbf9d0a3afffd6ffb4162c4dbcda9ff253da722a348a0ded4f71389fe6bc5410",
  "parentHash": "0x35c529d0e4b3750548d5ec3b5744cbc70db33eebe3f6463269664eea768daff2",
  "number": 111203,
  "timestamp": 1439986462,
  "nonce": "0x01cb0c183127c203",
  "difficulty": 4396604079123,
  "gasLimit": {
    "_hex": "0x2fefd8"
  },
  "gasUsed": {
    "_hex": "0x5208"
  },
  "miner": "0x52bc44d5378309EE2abF1539BF71dE1b7d7bE3b5",
  "extraData": "0x476574682f76312e302e312d63303261396266632f6c696e75782f676f312e34",
  "transactions": [
    {
      "hash": "0xa9fc9068971e2ac949c9f0347ef7d2d6aa45462ec5bec483ddc97af185e98a85",
      "blockHash": "0xfbf9d0a3afffd6ffb4162c4dbcda9ff253da722a348a0ded4f71389fe6bc5410",
      "blockNumber": 111203,
      "transactionIndex": 0,
      "confirmations": null,
      "from": "0x007f7f58D3eb5b7510A301eCC749FC1fCDDBE14D",
      "gasPrice": {
        "_hex": "0xd382b0b9c"
      },
      "gasLimit": {
        "_hex": "0x15f90"
      },
      "to": "0xb1abce2918E21ddb93AA452731a12672A3d9F75a",
      "value": {
        "_hex": "0x4563918244f40000"
      },
      "nonce": 306,
      "data": "0x",
      "r": "0x8b88db73820c1fee29f50fa80a21d77439ff70a89c8faabcac64497766a18cfd",
      "s": "0x33e1975dfcec05a474f46455123a50c102a1ba65369b0b2ea80c6a976c73fa79",
      "v": 27,
      "creates": null,
      "raw": "0xf86f820132850d382b0b9c83015f9094b1abce2918e21ddb93aa452731a12672a3d9f75a884563918244f40000801ba08b88db73820c1fee29f50fa80a21d77439ff70a89c8faabcac64497766a18cfda033e1975dfcec05a474f46455123a50c102a1ba65369b0b2ea80c6a976c73fa79",
      "networkId": 0,
      "chainId": 0
    }
  ]
}