{
  "hash": "0x5eeb3f4d4daf8e13ef22bc5a4c5440803685f44f38af03798082ded94ac8f855",
  "parentHash": "0xf29911937486be02cbe6bd0bb55376785d9a5160e9248cc319f5626a39965d4c",
  "number": 54899,
  "timestamp": 1439061860,
  "nonce": "0xc6ccd466db56f44f",
  "difficulty": 1617219612663,
  "gasLimit": {
    "_hex": "0x2fefd8"
  },
  "gasUsed": {
    "_hex": "0xa410"
  },
  "miner": "0xbe4532E1B1Db5c913Cf553be76180c1777055403",
  "extraData": "0x476574682f686261722f76312e302e312f6c696e75782f676f312e342e32",
  "transactions": [
    {
      "hash": "0x152c18700f845fdb6aeb06e6e566896142bc5fca99bce47039cd9a06eb25365e",
      "blockHash": "0x5eeb3f4d4daf8e13ef22bc5a4c5440803685f44f38af03798082ded94ac8f855",
      "blockNumber": 54899,
      "transactionIndex": 0,
      "confirmations": null,
      "from": "0x13f418c203E89b6Fa20D46b90f7134abB7B3eDd9",
      "gasPrice": {
        "_hex": "0xd93a51a4c"
      },
      "gasLimit": {
        "_hex": "0x5208"
      },
      "to": "0x32Be343B94f860124dC4fEe278FDCBD38C102D88",
      "value": {
        "_hex": "0x56b586f9fa4168000"
      },
      "nonce": 2,
      "data": "0x",
      "r": "0xfc2812eebdc46cf131cd435e8436ce86fd2fd007e0befd4bd0946e396c5dc93a",
      "s": "0x11400401bf3d08673a07a66188e71741bcd4855ffb9758d0cb20741a96aba820",
      "v": 28,
      "creates": null,
      "raw": "0xf86d02850d93a51a4c8252089432be343b94f860124dc4fee278fdcbd38c102d8889056b586f9fa4168000801ca0fc2812eebdc46cf131cd435e8436ce86fd2fd007e0befd4bd0946e396c5dc93aa011400401bf3d08673a07a66188e71741bcd4855ffb9758d0cb20741a96aba820",
      "networkId": 0,
      "chainId": 0
    },
    {
      "hash": "0x9061a660bf19548a5eee37962349ff4e002d70b1b9ca7556ec5aa28ebb55bd72",
      "blockHash": "0x5eeb3f4d4daf8e13ef22bc5a4c5440803685f44f38af03798082ded94ac8f855",
      "blockNumber": 54899,
      "transactionIndex": 1,
      "confirmations": null,
      "from": "0xf9e7222faaf0f4DA40c1c4A40630373a09BEd7B6",
      "gasPrice": {
        "_hex": "0xd57c5a50f"
      },
      "gasLimit": {
        "_hex": "0x186a0"
      },
      "to": "0xA9634393AFaCf497F51723fdf76c7e5d8c8ACacd",
      "value": {
        "_hex": "0x8ac7230489e80000"
      },
      "nonce": 0,
      "data": "0x",
      "r": "0xe2cbd8d0e05e8ac884249a5cd93422e3afdb2af670d0a2dab827f999d458d4aa",
      "s": "0x189a15dd6ac9e0228c33a086f253ca16dbdb5c405a1866943c177f67789e5bed",
      "v": 28,
      "creates": null,
      "raw": "0xf86d80850d57c5a50f830186a094a9634393afacf497f51723fdf76c7e5d8c8acacd888ac7230489e80000801ca0e2cbd8d0e05e8ac884249a5cd93422e3afdb2af670d0a2dab827f999d458d4aaa0189a15dd6ac9e0228c33a086f253ca16dbdb5c405a1866943c177f67789e5bed",
      "networkId": 0,
      "chainId": 0
    }
  ]
}