{
  "hash": "0x2e90db03317ce6fd7ee62d7cb655ac3594f44f4174da24d168b5272146d39064",
  "parentHash": "0xd43886f063f07f579a9d0ea73fe9155f6acdca08ae397bfcc98787375e430f01",
  "number": 109169,
  "timestamp": 1439951957,
  "nonce": "0x0a88ac7d70bf80d4",
  "difficulty": 4466923495810,
  "gasLimit": {
    "_hex": "0x2fefd8"
  },
  "gasUsed": {
    "_hex": "0x5208"
  },
  "miner": "0x790b8a3cE86E707ED0eD32bF89B3269692a23CC1",
  "extraData": "0xd783010001844765746887676f312e342e32856c696e7578",
  "transactions": [
    {
      "hash": "0x479d565d3cc71129db7ffbb13a2e06b340c8f6c010a195358af15a2fe5c0721c",
      "blockHash": "0x2e90db03317ce6fd7ee62d7cb655ac3594f44f4174da24d168b5272146d39064",
      "blockNumber": 109169,
      "transactionIndex": 0,
      "confirmations": null,
      "from": "0x120A270bbC009644e35F0bB6ab13f95b8199c4ad",
      "gasPrice": {
        "_hex": "0xcc01df530"
      },
      "gasLimit": {
        "_hex": "0x3d090"
      },
      "to": "0xe053AcD313B1EC82d1AD41b58311ead80B7a50c2",
      "value": {
        "_hex": "0x18efec2057c8c000"
      },
      "nonce": 852,
      "data": "0x",
      "r": "0x24c608d8302168499b3996ff9385f64248432793660e0b7edc9ea7426a44d167",
      "s": "0x7c34a0c66c1314ffe2b41ee495f12b78b865c344a4518ebeb4a3f90ae13bba9e",
      "v": 28,
      "creates": null,
      "raw": "0xf86f820354850cc01df5308303d09094e053acd313b1ec82d1ad41b58311ead80b7a50c28818efec2057c8c000801ca024c608d8302168499b3996ff9385f64248432793660e0b7edc9ea7426a44d167a07c34a0c66c1314ffe2b41ee495f12b78b865c344a4518ebeb4a3f90ae13bba9e",
      "networkId": 0,
      "chainId": 0
    }
  ]
}