{
  "hash": "0x46f8eec4ce0ad16426ff21d90f3b8f9206c5ebc820e7a6e666229ef64bc6aee1",
  "parentHash": "0xbbc1774e753b5f05baa0942fe0c2583a860b4cd8f7899369e46541b78135c0f9",
  "number": 93040,
  "timestamp": 1439681398,
  "nonce": "0x05067e32d6a94556",
  "difficulty": 3643906134032,
  "gasLimit": {
    "_hex": "0x2fefd8"
  },
  "gasUsed": {
    "_hex": "0x5208"
  },
  "miner": "0x39BEd032922B0C9b8e5445245bE8e9423F8f2730",
  "extraData": "0xd983010001844765746887676f312e342e328777696e646f7773",
  "transactions": [
    {
      "hash": "0x2c5d983577dd99af50db467289913fbfca0fde0907e4969196eb5fefbd315488",
      "blockHash": "0x46f8eec4ce0ad16426ff21d90f3b8f9206c5ebc820e7a6e666229ef64bc6aee1",
      "blockNumber": 93040,
      "transactionIndex": 0,
      "confirmations": null,
      "from": "0x8Ab53580aD08Bf9cDaa65748fb4d3Fbbf4Ae1FC5",
      "gasPrice": {
        "_hex": "0xd4be89f70"
      },
      "gasLimit": {
        "_hex": "0x15f90"
      },
      "to": "0xCfebB5b10f63bFDbD624aC283c744706b3dF1d0D",
      "value": {
        "_hex": "0x4563918244f400000"
      },
      "nonce": 1,
      "data": "0x",
      "r": "0x02484e96218ee89b3060d3e79d61efbe74915d8db18177f565a900ddcb241a8e",
      "s": "0x765b4ad5632d5ae18ff6873d3702cdcf319e8245fac933ddc5a1fcb51e2bd233",
      "v": 27,
      "creates": null,
      "raw": "0xf86e01850d4be89f7083015f9094cfebb5b10f63bfdbd624ac283c744706b3df1d0d8904563918244f400000801ba002484e96218ee89b3060d3e79d61efbe74915d8db18177f565a900ddcb241a8ea0765b4ad5632d5ae18ff6873d3702cdcf319e8245fac933ddc5a1fcb51e2bd233",
      "networkId": 0,
      "chainId": 0
    }
  ]
}