{
  "hash": "0xcc6a893fdbcbc1cc72cf559145376fe3ff02096388bb6a07732f0572c22eff81",
  "parentHash": "0x1a1c3bdef2519fdde0551a32c604f35891bc3c3e3a857d1fcd3df3de34dfd82e",
  "number": 55859,
  "timestamp": 1439078236,
  "nonce": "0xae6f6b6be0046a36",
  "difficulty": 1607587438698,
  "gasLimit": {
    "_hex": "0x2fefd8"
  },
  "gasUsed": {
    "_hex": "0x5208"
  },
  "miner": "0x8C93d2F70d641AC1F4cCc3287E2A1376Ce3c7DCC",
  "extraData": "0x476574682f76312e302e312f77696e646f77732f676f312e342e32",
  "transactions": [
    {
      "hash": "0x206134a2c8d300db8baa552c6d5686f957d73f2ab862f86e01e3fc433960a5ba",
      "blockHash": "0xcc6a893fdbcbc1cc72cf559145376fe3ff02096388bb6a07732f0572c22eff81",
      "blockNumber": 55859,
      "transactionIndex": 0,
      "confirmations": null,
      "from": "0xe6A7a1d47ff21B6321162AEA7C6CB457D5476Bca",
      "gasPrice": {
        "_hex": "0xd46b1e508"
      },
      "gasLimit": {
        "_hex": "0x55f0"
      },
      "to": "0xb5efa1ED835F579435D9C1447381e285d335B94E",
      "value": {
        "_hex": "0x144e5deb2dc952ec"
      },
      "nonce": 278,
      "data": "0x",
      "r": "0xc7333d1e999fdb319a6ad5f326882f21d7a5dce6e096b9da89b0a76055366479",
      "s": "0x394ad4d7650ffa97041d6b6c44d32adfe7e8b3fe6296d71d614053bf5e77b085",
      "v": 27,
      "creates": null,
      "raw": "0xf86e820116850d46b1e5088255f094b5efa1ed835f579435d9c1447381e285d335b94e88144e5deb2dc952ec801ba0c7333d1e999fdb319a6ad5f326882f21d7a5dce6e096b9da89b0a76055366479a0394ad4d7650ffa97041d6b6c44d32adfe7e8b3fe6296d71d614053bf5e77b085",
      "networkId": 0,
      "chainId": 0
    }
  ]
}