{
  "hash": "0x7ec90feb46b4d64f8f275ba10bc016dcea0d4f51cd80264b47172e39b4e40d9a",
  "parentHash": "0x68020cfb3208beb0f91625ac92b7d82ee10ea772709e7e8d2c1bd0bba81b01e3",
  "number": 119526,
  "timestamp": 1440144418,
  "nonce": "0xeebf74480ac40b8c",
  "difficulty": 4394389198333,
  "gasLimit": {
    "_hex": "0x2fefd8"
  },
  "gasUsed": {
    "_hex": "0xa410"
  },
  "miner": "0x52bc44d5378309EE2abF1539BF71dE1b7d7bE3b5",
  "extraData": "0xd783010002844765746887676f312e342e32856c696e7578",
  "transactions": [
    {
      "hash": "0x1a3f2d483482c470252da9d8751977d5e57b50e5f6b6bf4c9a95bcd793538e0f",
      "blockHash": "0x7ec90feb46b4d64f8f275ba10bc016dcea0d4f51cd80264b47172e39b4e40d9a",
      "blockNumber": 119526,
      "transactionIndex": 0,
      "confirmations": null,
      "from": "0x44595E22eA03eB2bEF2B96Ba2509df8ce212721e",
      "gasPrice": {
        "_hex": "0xba43b7400"
      },
      "gasLimit": {
        "_hex": "0x5208"
      },
      "to": "0x32Be343B94f860124dC4fEe278FDCBD38C102D88",
      "value": {
        "_hex": "0xd05202bd4a6cc00"
      },
      "nonce": 0,
      "data": "0x",
      "r": "0x618aa6167efa105af508c588b852011be28a1d2b57d1d3b0e3883b8bf5c24d1c",
      "s": "0x4f05ca0b7784d463eb217cb70eb8278ab21ff8ecead845582a6fc4cf6aeea5a8",
      "v": 28,
      "creates": null,
      "raw": "0xf86c80850ba43b74008252089432be343b94f860124dc4fee278fdcbd38c102d88880d05202bd4a6cc00801ca0618aa6167efa105af508c588b852011be28a1d2b57d1d3b0e3883b8bf5c24d1ca04f05ca0b7784d463eb217cb70eb8278ab21ff8ecead845582a6fc4cf6aeea5a8",
      "networkId": 0,
      "chainId": 0
    },
    {
      "hash": "0xd439307fc03afcc57e9f8dc675705eb9f8e2032763c7e7947c1be82cdb5b7475",
      "blockHash": "0x7ec90feb46b4d64f8f275ba10bc016dcea0d4f51cd80264b47172e39b4e40d9a",
      "blockNumber": 119526,
      "transactionIndex": 1,
      "confirmations": null,
      "from": "0x2bcDf5ef3BA83578A36146bFF9A3FAEF1CAf038B",
      "gasPrice": {
        "_hex": "0xba43b7400"
      },
      "gasLimit": {
        "_hex": "0x5208"
      },
      "to": "0x32Be343B94f860124dC4fEe278FDCBD38C102D88",
      "value": {
        "_hex": "0xa015741b066ae000"
      },
      "nonce": 1,
      "data": "0x",
      "r": "0x4b64a2d260953f77aa1f8015d7c5a7aeb6bbeced6196d282f5038e1b4ac89a14",
      "s": "0x10fe7668d2469b153d363bcdf1e9a609c51b5947abf98610a20adf583a8cb5f5",
      "v": 27,
      "creates": null,
      "raw": "0xf86c01850ba43b74008252089432be343b94f860124dc4fee278fdcbd38c102d8888a015741b066ae000801ba04b64a2d260953f77aa1f8015d7c5a7aeb6bbeced6196d282f5038e1b4ac89a14a010fe7668d2469b153d363bcdf1e9a609c51b5947abf98610a20adf583a8cb5f5",
      "networkId": 0,
      "chainId": 0
    }
  ]
}