{
  "hash": "0x740013f82736c449c670544c59de831b82543cd55010cc4e5f6773f52733cee4",
  "parentHash": "0x3bf5e4831d6b2f3fcf5d758a008a2897d1f3140a4d90d1b561923b203e25b0ef",
  "number": 74863,
  "timestamp": 1439393719,
  "nonce": "0xea5bb75595a59cff",
  "difficulty": 2190199374713,
  "gasLimit": {
    "_hex": "0x2fefd8"
  },
  "gasUsed": {
    "_hex": "0x5208"
  },
  "miner": "0x108b54b7E3c09F8127CB8B28ffA3AD4001b32998",
  "extraData": "0x476574682f76312e302e312d38326566323666362f6c696e75782f676f312e34",
  "transactions": [
    {
      "hash": "0xe2b854d5980f2d5003733a9d1e86cf8b2b8dbe98f9c501fada8b090738c57bc0",
      "blockHash": "0x740013f82736c449c670544c59de831b82543cd55010cc4e5f6773f52733cee4",
      "blockNumber": 74863,
      "transactionIndex": 0,
      "confirmations": null,
      "from": "0xa6BDc31c431B8F97848c9D60cbbe9660dc450eB7",
      "gasPrice": {
        "_hex": "0xd6562d42d"
      },
      "gasLimit": {
        "_hex": "0x5208"
      },
      "to": "0x32Be343B94f860124dC4fEe278FDCBD38C102D88",
      "value": {
        "_hex": "0x8ac2d81ee9db4000"
      },
      "nonce": 7,
      "data": "0x",
      "r": "0xca7b35ee1f06c50b7881d4588605b8b7e23b22d5f084c3c4ab0ec5c7121c9815",
      "s": "0x350148d48e403dc996f85584a22061a11f46d8ff955167019af23b206b90218d",
      "v": 27,
      "creates": null,
      "raw": "0xf86c07850d6562d42d8252089432be343b94f860124dc4fee278fdcbd38c102d88888ac2d81ee9db4000801ba0ca7b35ee1f06c50b7881d4588605b8b7e23b22d5f084c3c4ab0ec5c7121c9815a0350148d48e403dc996f85584a22061a11f46d8ff955167019af23b206b90218d",
      "networkId": 0,
      "chainId": 0
    }
  ]
}