{
  "hash": "0x730a57acd2fdef8569f8b925718283db1ba340d4238b586a9fe690132a7e67a2",
  "parentHash": "0xf43bf79ae4855ebf259c49aab4092fda2ba2f16b383cde4ec0bfc6296a9c8c59",
  "number": 87335,
  "timestamp": 1439590562,
  "nonce": "0xc75989769e697f04",
  "difficulty": 3117395929832,
  "gasLimit": {
    "_hex": "0x2fefd8"
  },
  "gasUsed": {
    "_hex": "0x5208"
  },
  "miner": "0xe6A7a1d47ff21B6321162AEA7C6CB457D5476Bca",
  "extraData": "0x476574682f76312e302e312d38326566323666362f6c696e75782f676f312e34",
  "transactions": [
    {
      "hash": "0xf1c0f00dd2ce708dd8173f6f3e3e50bf8bd6e485e94960011dc05a801609c947",
      "blockHash": "0x730a57acd2fdef8569f8b925718283db1ba340d4238b586a9fe690132a7e67a2",
      "blockNumber": 87335,
      "transactionIndex": 0,
      "confirmations": null,
      "from": "0x120A270bbC009644e35F0bB6ab13f95b8199c4ad",
      "gasPrice": {
        "_hex": "0xd5b4fa190"
      },
      "gasLimit": {
        "_hex": "0x3d090"
      },
      "to": "0xc5623FA5c297c05c2d965A336b2068CfA0e567FA",
      "value": {
        "_hex": "0x19dea3feb677339000"
      },
      "nonce": 495,
      "data": "0x",
      "r": "0x04718eb723654befce1e44a66efbb3c13728056832b00a175affba6fe6147744",
      "s": "0x35f062821bfe6fd559c119fc47405b10f24e904df9145fcea31c386f32e61910",
      "v": 27,
      "creates": null,
      "raw": "0xf8708201ef850d5b4fa1908303d09094c5623fa5c297c05c2d965a336b2068cfa0e567fa8919dea3feb677339000801ba004718eb723654befce1e44a66efbb3c13728056832b00a175affba6fe6147744a035f062821bfe6fd559c119fc47405b10f24e904df9145fcea31c386f32e61910",
      "networkId": 0,
      "chainId": 0
    }
  ]
}