{
  "hash": "0x4547f8ca0bfedda278997bd425d4a5bcaa5d2f7bafff6166d0c737f5e2a6b87d",
  "parentHash": "0x4ad6f573dbfc179259db3e568989d2953673aaf1cdc362309e2c8e6b6a85648b",
  "number": 118807,
  "timestamp": 1440131805,
  "nonce": "0xf34ac4ffe0893649",
  "difficulty": 4388332931069,
  "gasLimit": {
    "_hex": "0x2fefd8"
  },
  "gasUsed": {
    "_hex": "0x5208"
  },
  "miner": "0xf8E0CA3Ed80bd541b94BEdCf259e8CF2141A9523",
  "extraData": "0x",
  "transactions": [
    {
      "hash": "0x23f4972bf023baebb0dc1a993c497fc631e6f2bc81e5defb70cb12dc7e19c8ce",
      "blockHash": "0x4547f8ca0bfedda278997bd425d4a5bcaa5d2f7bafff6166d0c737f5e2a6b87d",
      "blockNumber": 118807,
      "transactionIndex": 0,
      "confirmations": null,
      "from": "0x1308A2e95c0160B90803ddCA9B9a5bb55E416d79",
      "gasPrice": {
        "_hex": "0xd27c8ef0c"
      },
      "gasLimit": {
        "_hex": "0x15f90"
      },
      "to": "0xfc2a56E21366d0CB427Db418233D2732F532E928",
      "value": {
        "_hex": "0x171595647f6722800"
      },
      "nonce": 174,
      "data": "0x",
      "r": "0xbf4620dbd8f16e44c1e1aeb4a09ec7771201f6c95ee72f37489582e0a03f55cf",
      "s": "0x65fb1ccadf8471b2d2a57816664c77949a84d8caac42f332938f5a21eb36b2f5",
      "v": 28,
      "creates": null,
      "raw": "0xf86f81ae850d27c8ef0c83015f9094fc2a56e21366d0cb427db418233d2732f532e928890171595647f6722800801ca0bf4620dbd8f16e44c1e1aeb4a09ec7771201f6c95ee72f37489582e0a03f55cfa065fb1ccadf8471b2d2a57816664c77949a84d8caac42f332938f5a21eb36b2f5",
      "networkId": 0,
      "chainId": 0
    }
  ]
}