{
  "hash": "0x0373dc1aa86f65230554d6538bbbdefa79a4bf62043088294d83ff7df497d105",
  "parentHash": "0xf325eab2c419a9cd20f4d4d5f4f6745099cb19a4599bd16bf5f1fe1a6fda0916",
  "number": 82474,
  "timestamp": 1439519934,
  "nonce": "0x032c3eea77ece6b0",
  "difficulty": 2378764836424,
  "gasLimit": {
    "_hex": "0x2fefd8"
  },
  "gasUsed": {
    "_hex": "0xa410"
  },
  "miner": "0x34f0F706648F334eDf39e555766d4EACD54D61dC",
  "extraData": "0x476574682f76312e302e312d38326566323666362f6c696e75782f676f312e34",
  "transactions": [
    {
      "hash": "0xcbb1afa71469077d4aa571558dc69df969f3697b53a7b2d34ff7c5f257730460",
      "blockHash": "0x0373dc1aa86f65230554d6538bbbdefa79a4bf62043088294d83ff7df497d105",
      "blockNumber": 82474,
      "transactionIndex": 0,
      "confirmations": null,
      "from": "0x32Be343B94f860124dC4fEe278FDCBD38C102D88",
      "gasPrice": {
        "_hex": "0xded50e034"
      },
      "gasLimit": {
        "_hex": "0x5208"
      },
      "to": "0xb794F5eA0ba39494cE839613fffBA74279579268",
      "value": {
        "_hex": "0x1fc3842bd1f072000000"
      },
      "nonce": 629,
      "data": "0x",
      "r": "0x9264091fc5fb073a16936b6d06bd82779a4a9cd942c936cb366dccc1a2702580",
      "s": "0x0987c50d9f3aec23bcc1045d00f31bd346b642e64029b207f88cddd2242f10c4",
      "v": 28,
      "creates": null,
      "raw": "0xf870820275850ded50e03482520894b794f5ea0ba39494ce839613fffba742795792688a1fc3842bd1f072000000801ca09264091fc5fb073a16936b6d06bd82779a4a9cd942c936cb366dccc1a2702580a00987c50d9f3aec23bcc1045d00f31bd346b642e64029b207f88cddd2242f10c4",
      "networkId": 0,
      "chainId": 0
    },
    {
      "hash": "0xdfb8dfce143f5a30b365358bd12713c052db927a03d77dbf087c4434fb6631e9",
      "blockHash": "0x0373dc1aa86f65230554d6538bbbdefa79a4bf62043088294d83ff7df497d105",
      "blockNumber": 82474,
      "transactionIndex": 1,
      "confirmations": null,
      "from": "0x449AC4Fbe383e36738855E364a57f471b2BFa131",
      "gasPrice": {
        "_hex": "0xd1df8ebf4"
      },
      "gasLimit": {
        "_hex": "0x15f90"
      },
      "to": "0x314c7Daa4825ffC0293819119c5FDCC0CcF19827",
      "value": {
        "_hex": "0xde0b6b3a7640000"
      },
      "nonce": 4,
      "data": "0x",
      "r": "0xab20a3862f878113cb0e889b0e1e625973bb3180b2003d9ade956756e9382640",
      "s": "0x6fb880dc5979bca2634eb8679d721c829e9290b499187f025173c685f7deae92",
      "v": 27,
      "creates": null,
      "raw": "0xf86d04850d1df8ebf483015f9094314c7daa4825ffc0293819119c5fdcc0ccf19827880de0b6b3a7640000801ba0ab20a3862f878113cb0e889b0e1e625973bb3180b2003d9ade956756e9382640a06fb880dc5979bca2634eb8679d721c829e9290b499187f025173c685f7deae92",
      "networkId": 0,
      "chainId": 0
    }
  ]
}