{
  "hash": "0x20409ab645fcb34ba2d124666d6be70cef42412111a976a0dc2784dbd30fcf8d",
  "parentHash": "0xb78d44262797817d4abefd9037cf2157308118328e7c5e802f25a46487b87a2c",
  "number": 97430,
  "timestamp": 1439756087,
  "nonce": "0xe238d41c3cdcf0ca",
  "difficulty": 3809335519997,
  "gasLimit": {
    "_hex": "0x2fefd8"
  },
  "gasUsed": {
    "_hex": "0x5438"
  },
  "miner": "0xaEAf103356C2Ee943F748E8655659D29881323E1",
  "extraData": "0x476574682f76312e302e312f77696e646f77732f676f312e342e32",
  "transactions": [
    {
      "hash": "0xc180d22faaa4adb9325668f5eb5b0042f48d27e52f8bead3d6ebd53c8e463e58",
      "blockHash": "0x20409ab645fcb34ba2d124666d6be70cef42412111a976a0dc2784dbd30fcf8d",
      "blockNumber": 97430,
      "transactionIndex": 0,
      "confirmations": null,
      "from": "0xf669D33ffC879Ed84BECd4EF67CB17c76f4607D5",
      "gasPrice": {
        "_hex": "0xcf80e997f"
      },
      "gasLimit": {
        "_hex": "0x15f90"
      },
      "to": "0x056507108FE6d30189EcCD6cd7F4Fad56eEef622",
      "value": {
        "_hex": "0x1794d673456eec0000"
      },
      "nonce": 4,
      "data": "0x000002ff0002ff00f277f21a",
      "r": "0x3cbb9df1eec3d2ffa5489a0aa0d1261345ecbffc5d64da45e9ced888d7f3bfa8",
      "s": "0x711f919fc5d12a71a3d50b963eaab3995f47a52be5b86c9fad2de5cb7f24b9cf",
      "v": 28,
      "creates": null,
      "raw": "0xf87a04850cf80e997f83015f9094056507108fe6d30189eccd6cd7f4fad56eeef622891794d673456eec00008c000002ff0002ff00f277f21a1ca03cbb9df1eec3d2ffa5489a0aa0d1261345ecbffc5d64da45e9ced888d7f3bfa8a0711f919fc5d12a71a3d50b963eaab3995f47a52be5b86c9fad2de5cb7f24b9cf",
      "networkId": 0,
      "chainId": 0
    }
  ]
}