{
  "hash": "0xd01d44ca1a4dd052f6b74eed93caceff2b0210a10601e7290a7ed587895d0380",
  "parentHash": "0xe1f6346950bb1b0988bf084492b5724cf50bfb554773a1b45c748bbcc6324476",
  "number": 48630,
  "timestamp": 1438960086,
  "nonce": "0xeec489289e107e16",
  "difficulty": 1471439036169,
  "gasLimit": {
    "_hex": "0x1af56"
  },
  "gasUsed": {
    "_hex": "0x19ef0"
  },
  "miner": "0xbb7B8287f3F0a933474a79eAe42CBCa977791171",
  "extraData": "0x476574682f4c5649562f76312e302e312f6c696e75782f676f312e342e32",
  "transactions": [
    {
      "hash": "0xa7e37e7c84bd5f71c03e5b8264f2fb205619463f56bc9dba05de0beac1c990c3",
      "blockHash": "0xd01d44ca1a4dd052f6b74eed93caceff2b0210a10601e7290a7ed587895d0380",
      "blockNumber": 48630,
      "transactionIndex": 0,
      "confirmations": null,
      "from": "0x7C1dF24A4f7FB2C7b472e0bB006cB27DCd164156",
      "gasPrice": {
        "_hex": "0x110c8f7d8de"
      },
      "gasLimit": {
        "_hex": "0xc350"
      },
      "to": "0x2910543Af39abA0Cd09dBb2D50200b3E800A63D2",
      "value": {
        "_hex": "0x337ea640293f4f0000"
      },
      "nonce": 1,
      "data": "0x454e39554434545a52",
      "r": "0x9295c87c3d06682dececb4cb103a7cd250694c0e6b347d6392db29f35edf7bdf",
      "s": "0xf665975df5c5fa02555c458641663c2a85f0c5ddedec58b6a35e8ffe84e8f367",
      "v": 27,
      "creates": null,
      "raw": "0xf87701860110c8f7d8de82c350942910543af39aba0cd09dbb2d50200b3e800a63d289337ea640293f4f000089454e39554434545a521ba09295c87c3d06682dececb4cb103a7cd250694c0e6b347d6392db29f35edf7bdfa0f665975df5c5fa02555c458641663c2a85f0c5ddedec58b6a35e8ffe84e8f367",
      "networkId": 0,
      "chainId": 0
    },
    {
      "hash": "0x7cc73e51eb312881ac5be1eeb1d9ec97ba30aa6e79d7831b3eb254eaef5072ae",
      "blockHash": "0xd01d44ca1a4dd052f6b74eed93caceff2b0210a10601e7290a7ed587895d0380",
      "blockNumber": 48630,
      "transactionIndex": 1,
      "confirmations": null,
      "from": "0x11415fAB61E0dfd4b90676141A557a869BA0bDE9",
      "gasPrice": {
        "_hex": "0x110c8f7d8de"
      },
      "gasLimit": {
        "_hex": "0xc350"
      },
      "to": "0x2910543Af39abA0Cd09dBb2D50200b3E800A63D2",
      "value": {
        "_hex": "0x6e96afe79de4e00000"
      },
      "nonce": 0,
      "data": "0x454e3443455a354838",
      "r": "0xa3abfc5a927553aec165864786d3421991bdc6dfed8477d2d4d58751ab394fcd",
      "s": "0x6f61447281e91c612eedcf7c806890f04ae4cbabb5823fef0de87baf4957ac27",
      "v": 27,
      "creates": null,
      "raw": "0xf87780860110c8f7d8de82c350942910543af39aba0cd09dbb2d50200b3e800a63d2896e96afe79de4e0000089454e3443455a3548381ba0a3abfc5a927553aec165864786d3421991bdc6dfed8477d2d4d58751ab394fcda06f61447281e91c612eedcf7c806890f04ae4cbabb5823fef0de87baf4957ac27",
      "networkId": 0,
      "chainId": 0
    },
    {
      "hash": "0xdac5bfc8e752f1f0f2b2b9ae19d24298e5e4ba890e202212b24728ba15722689",
      "blockHash": "0xd01d44ca1a4dd052f6b74eed93caceff2b0210a10601e7290a7ed587895d0380",
      "blockNumber": 48630,
      "transactionIndex": 2,
      "confirmations": null,
      "from": "0xe6A7a1d47ff21B6321162AEA7C6CB457D5476Bca",
      "gasPrice": {
        "_hex": "0xd7ce96bb3"
      },
      "gasLimit": {
        "_hex": "0x55f0"
      },
      "to": "0x2d11763B4999FB3b61Ca8d19C8C77a743079f7bd",
      "value": {
        "_hex": "0x1da067c501b84ef8"
      },
      "nonce": 240,
      "data": "0x",
      "r": "0x2765af7127da9060f364381ac2f231c796d3be786e46f3e8718cb2b975ded0f0",
      "s": "0x1e8b3c62eedc90b469fcc8100c8fad74f9b001c1c471dbbf0b1d4151ff238d5c",
      "v": 27,
      "creates": null,
      "raw": "0xf86d81f0850d7ce96bb38255f0942d11763b4999fb3b61ca8d19c8c77a743079f7bd881da067c501b84ef8801ba02765af7127da9060f364381ac2f231c796d3be786e46f3e8718cb2b975ded0f0a01e8b3c62eedc90b469fcc8100c8fad74f9b001c1c471dbbf0b1d4151ff238d5c",
      "networkId": 0,
      "chainId": 0
    },
    {
      "hash": "0xa6d6c588eed1db53589fb430b20f3bf00981440f67ce0389305344f1caad391d",
      "blockHash": "0xd01d44ca1a4dd052f6b74eed93caceff2b0210a10601e7290a7ed587895d0380",
      "blockNumber": 48630,
      "transactionIndex": 3,
      "confirmations": null,
      "from": "0xe6A7a1d47ff21B6321162AEA7C6CB457D5476Bca",
      "gasPrice": {
        "_hex": "0xd7ce96bb3"
      },
      "gasLimit": {
        "_hex": "0x55f0"
      },
      "to": "0x1ee96bFCC664C0D4430267bDAd17A38946655eE3",
      "value": {
        "_hex": "0x32ddb7d1e73ca40c"
      },
      "nonce": 241,
      "data": "0x",
      "r": "0xb3005b7a156999ee7ac78f78d1541b86babd5921b2a4d4b980ea50e086024e29",
      "s": "0x3dcc672b33687f3a5ffb77fe22ae628d2a3f0a97f5ccec93ab819429539a31dd",
      "v": 27,
      "creates": null,
      "raw": "0xf86d81f1850d7ce96bb38255f0941ee96bfcc664c0d4430267bdad17a38946655ee38832ddb7d1e73ca40c801ba0b3005b7a156999ee7ac78f78d1541b86babd5921b2a4d4b980ea50e086024e29a03dcc672b33687f3a5ffb77fe22ae628d2a3f0a97f5ccec93ab819429539a31dd",
      "networkId": 0,
      "chainId": 0
    },
    {
      "hash": "0x481c545627e916c6cabcd267522d460870d4d09a89b5312e964be76e401f2ad5",
      "blockHash": "0xd01d44ca1a4dd052f6b74eed93caceff2b0210a10601e7290a7ed587895d0380",
      "blockNumber": 48630,
      "transactionIndex": 4,
      "confirmations": null,
      "from": "0xe6A7a1d47ff21B6321162AEA7C6CB457D5476Bca",
      "gasPrice": {
        "_hex": "0xd7ce96bb3"
      },
      "gasLimit": {
        "_hex": "0x55f0"
      },
      "to": "0x0ac02987fa1DaDaD1Ac43A1CBd0a8e681184B491",
      "value": {
        "_hex": "0x4c173969f6c3ab20"
      },
      "nonce": 242,
      "data": "0x",
      "r": "0xdf42fd275e31aa87ead126ab7757a1b7069473fb1dce7f5b3992125189adb6b4",
      "s": "0x6b2cd3fcfc9ba0b5b01be5d6145ce469e7f7eaeb5afe18c473b93bd43809ec17",
      "v": 28,
      "creates": null,
      "raw": "0xf86d81f2850d7ce96bb38255f0940ac02987fa1dadad1ac43a1cbd0a8e681184b491884c173969f6c3ab20801ca0df42fd275e31aa87ead126ab7757a1b7069473fb1dce7f5b3992125189adb6b4a06b2cd3fcfc9ba0b5b01be5d6145ce469e7f7eaeb5afe18c473b93bd43809ec17",
      "networkId": 0,
      "chainId": 0
    }
  ]
}