{
  "hash": "0x33f7f4fe341bcc4e1ab0d29aadde962b7ae612f275529dd77dfc711e4d915975",
  "parentHash": "0xaedf29afcd0225ddff258b6efb24117f85c68c7087681581ebad3d76183cc7dc",
  "number": 64646,
  "timestamp": 1439224132,
  "nonce": "0x5de3c5aa4208b0d1",
  "difficulty": 1885761318099,
  "gasLimit": {
    "_hex": "0x2fefd8"
  },
  "gasUsed": {
    "_hex": "0x19c8c"
  },
  "miner": "0xf927a40C8B7F6E07c5af7FA2155B4864a4112B13",
  "extraData": "0x",
  "transactions": [
    {
      "hash": "0xe0a9e5cbb710b0cf5c01761c86c806a726257a06c69016055ea2f168c47a69bb",
      "blockHash": "0x33f7f4fe341bcc4e1ab0d29aadde962b7ae612f275529dd77dfc711e4d915975",
      "blockNumber": 64646,
      "transactionIndex": 0,
      "confirmations": null,
      "from": "0x4FcE8429bA49cAa0369d1E494Db57E89Eab2AD39",
      "gasPrice": {
        "_hex": "0xcc4ed408b"
      },
      "gasLimit": {
        "_hex": "0x55f0"
      },
      "to": "0x2910543Af39abA0Cd09dBb2D50200b3E800A63D2",
      "value": {
        "_hex": "0x6bee91539c441ef580"
      },
      "nonce": 4,
      "data": "0x454e454d5851434b30",
      "r": "0x0b5422040dd88b45399a4ec0a59508f6ebe7e4512437435318cbcdc305438887",
      "s": "0x20446d5558d48b566953fdbd03f6f123d0bc4fa3bc805e2c622eb335d2fc98e4",
      "v": 28,
      "creates": null,
      "raw": "0xf87604850cc4ed408b8255f0942910543af39aba0cd09dbb2d50200b3e800a63d2896bee91539c441ef58089454e454d5851434b301ca00b5422040dd88b45399a4ec0a59508f6ebe7e4512437435318cbcdc305438887a020446d5558d48b566953fdbd03f6f123d0bc4fa3bc805e2c622eb335d2fc98e4",
      "networkId": 0,
      "chainId": 0
    },
    {
      "hash": "0xaf315a9ee7149776ffffe5606eeca325cca28efabfce4e7bc34405f06aa8657e",
      "blockHash": "0x33f7f4fe341bcc4e1ab0d29aadde962b7ae612f275529dd77dfc711e4d915975",
      "blockNumber": 64646,
      "transactionIndex": 1,
      "confirmations": null,
      "from": "0x26E365bA787fFd7096B2BA99a007b600A2Aa7311",
      "gasPrice": {
        "_hex": "0xba43b7400"
      },
      "gasLimit": {
        "_hex": "0x5208"
      },
      "to": "0x70b00033516F31A12D8bd4E98c25C268B19C3a59",
      "value": {
        "_hex": "0xc1c23435b07000"
      },
      "nonce": 1,
      "data": "0x",
      "r": "0x19e255ab853c86bf2c4d83bfefe18e76e71d768276126adeae1ef68bf41676fe",
      "s": "0x69d3cfb8e0d21c1bdae24b866ddee9b8b921d7c20bc0d6a0db89773f707a5808",
      "v": 27,
      "creates": null,
      "raw": "0xf86b01850ba43b74008252089470b00033516f31a12d8bd4e98c25c268b19c3a5987c1c23435b07000801ba019e255ab853c86bf2c4d83bfefe18e76e71d768276126adeae1ef68bf41676fea069d3cfb8e0d21c1bdae24b866ddee9b8b921d7c20bc0d6a0db89773f707a5808",
      "networkId": 0,
      "chainId": 0
    },
    {
      "hash": "0xb161317d9309cc4343c5dd5338c0b0050143ed35db13ad375ed5dd04575bae38",
      "blockHash": "0x33f7f4fe341bcc4e1ab0d29aadde962b7ae612f275529dd77dfc711e4d915975",
      "blockNumber": 64646,
      "transactionIndex": 2,
      "confirmations": null,
      "from": "0x6bBf1f700fAAd9da910C0e8234CD2F1a3BeA6105",
      "gasPrice": {
        "_hex": "0xba43b7400"
      },
      "gasLimit": {
        "_hex": "0x5208"
      },
      "to": "0x3856E6761B7A2C44FBF8FA802b828b61518Aa475",
      "value": {
        "_hex": "0x1072bbac261c000"
      },
      "nonce": 1,
      "data": "0x",
      "r": "0x641dc89fa79981e475b49dbf36226fd970b006af28025aa31bbbe086fcd832f0",
      "s": "0x182a20b83cab44fe1fe5ea11c672919c983b3b3343cedd01e9fe64c8403a94bf",
      "v": 27,
      "creates": null,
      "raw": "0xf86c01850ba43b7400825208943856e6761b7a2c44fbf8fa802b828b61518aa4758801072bbac261c000801ba0641dc89fa79981e475b49dbf36226fd970b006af28025aa31bbbe086fcd832f0a0182a20b83cab44fe1fe5ea11c672919c983b3b3343cedd01e9fe64c8403a94bf",
      "networkId": 0,
      "chainId": 0
    },
    {
      "hash": "0x024e8c6a4b8addeeb1ca1f6ca35483a0fd5d7881beaee12ecb1044acfe851f35",
      "blockHash": "0x33f7f4fe341bcc4e1ab0d29aadde962b7ae612f275529dd77dfc711e4d915975",
      "blockNumber": 64646,
      "transactionIndex": 3,
      "confirmations": null,
      "from": "0x7A8EdD2c042b921315AeA0Db2f3Fee621e13C0DE",
      "gasPrice": {
        "_hex": "0xba43b7400"
      },
      "gasLimit": {
        "_hex": "0x5208"
      },
      "to": "0xe930d798C42dAD7B36ac934651D653Bd5bBA8B53",
      "value": {
        "_hex": "0x1072bbac261c000"
      },
      "nonce": 1,
      "data": "0x",
      "r": "0x08eef96e0e695004b8bd58d8f8a7ac07c4c0ca11d1cded59ca362156e737e115",
      "s": "0x62f6495f1c294988bacb5ae7f3d5cc840c21c8d1fe4e2363022388cfd33aa158",
      "v": 27,
      "creates": null,
      "raw": "0xf86c01850ba43b740082520894e930d798c42dad7b36ac934651d653bd5bba8b538801072bbac261c000801ba008eef96e0e695004b8bd58d8f8a7ac07c4c0ca11d1cded59ca362156e737e115a062f6495f1c294988bacb5ae7f3d5cc840c21c8d1fe4e2363022388cfd33aa158",
      "networkId": 0,
      "chainId": 0
    },
    {
      "hash": "0xf516dbcee86ac2ad14e1aa0ff6c3acee0efa3640578d4e2e15784f6fd5d63c77",
      "blockHash": "0x33f7f4fe341bcc4e1ab0d29aadde962b7ae612f275529dd77dfc711e4d915975",
      "blockNumber": 64646,
      "transactionIndex": 4,
      "confirmations": null,
      "from": "0x7C642150b0E8052316A3869337c65Cc361135b74",
      "gasPrice": {
        "_hex": "0xba43b7400"
      },
      "gasLimit": {
        "_hex": "0x5208"
      },
      "to": "0xF6D32e13a14fCFcc346488999b550E4eba49fAAF",
      "value": {
        "_hex": "0x937bda828f9000"
      },
      "nonce": 1,
      "data": "0x",
      "r": "0x4fba15d931dacf1609322d663a900918a5f3b46ee97760388c8079f669df2f78",
      "s": "0x505c261cfa6c5262d1535f985bf492bce958d306b819aa285900dc689a56d92e",
      "v": 28,
      "creates": null,
      "raw": "0xf86b01850ba43b740082520894f6d32e13a14fcfcc346488999b550e4eba49faaf87937bda828f9000801ca04fba15d931dacf1609322d663a900918a5f3b46ee97760388c8079f669df2f78a0505c261cfa6c5262d1535f985bf492bce958d306b819aa285900dc689a56d92e",
      "networkId": 0,
      "chainId": 0
    }
  ]
}