{
  "hash": "0x6921a4ae1e5f555c79171f994704291d75c00cee28d7d4b0c2fae5f1f1bbf06f",
  "parentHash": "0x9207cd1f5f1202c6e38fed7d62434bea4b974a523eaa286e64f603d7ad0aaf02",
  "number": 96556,
  "timestamp": 1439742255,
  "nonce": "0xda41f11d7f47b960",
  "difficulty": 3692519277708,
  "gasLimit": {
    "_hex": "0x2fefd8"
  },
  "gasUsed": {
    "_hex": "0x5208"
  },
  "miner": "0xd70c667add50d3d9989Ef58A81a698c09f415Bff",
  "extraData": "0x",
  "transactions": [
    {
      "hash": "0x1d617b8a66e44d84ecb7f69e6550d24e159a6d0ab587e594feda925d25f561ce",
      "blockHash": "0x6921a4ae1e5f555c79171f994704291d75c00cee28d7d4b0c2fae5f1f1bbf06f",
      "blockNumber": 96556,
      "transactionIndex": 0,
      "confirmations": null,
      "from": "0x120A270bbC009644e35F0bB6ab13f95b8199c4ad",
      "gasPrice": {
        "_hex": "0xd7a809c63"
      },
      "gasLimit": {
        "_hex": "0x15f90"
      },
      "to": "0x36B33F21Ba59c53E3502E52b8e0a7fD311215FFd",
      "value": {
        "_hex": "0x210feaaea262cdb800"
      },
      "nonce": 620,
      "data": "0x",
      "r": "0x48df1c58b4a96ac5473f53747bc59eb13191cd9fc597dfda48759bd95c849084",
      "s": "0x0ecc7f6f306d0dd0bf2f995adaaad6d99687fd3aa59681b9cc26666c00994a26",
      "v": 27,
      "creates": null,
      "raw": "0xf87082026c850d7a809c6383015f909436b33f21ba59c53e3502e52b8e0a7fd311215ffd89210feaaea262cdb800801ba048df1c58b4a96ac5473f53747bc59eb13191cd9fc597dfda48759bd95c849084a00ecc7f6f306d0dd0bf2f995adaaad6d99687fd3aa59681b9cc26666c00994a26",
      "networkId": 0,
      "chainId": 0
    }
  ]
}