{
  "hash": "0xc5fe437513aa6a8ba33b2a2ba5462dd05b0f64e5d09eb2304473f07bab4f7683",
  "parentHash": "0x0b8d61b02ef5b0bb3d72897b24f3f792f4b4b04c5d5ece7c356a21a525d7147d",
  "number": 122269,
  "timestamp": 1440191288,
  "nonce": "0x1a7e7d7fd4b67b49",
  "difficulty": 4455599907568,
  "gasLimit": {
    "_hex": "0x2fefd8"
  },
  "gasUsed": {
    "_hex": "0xa410"
  },
  "miner": "0x608f4b86321a68453f9adf6F06F7Fc3E621739ad",
  "extraData": "0xd783010002844765746887676f312e342e32856c696e7578",
  "transactions": [
    {
      "hash": "0x31916b32ae5866cd7080dabdbbd661ac6cce35a4914bc23b032be2dc656fb658",
      "blockHash": "0xc5fe437513aa6a8ba33b2a2ba5462dd05b0f64e5d09eb2304473f07bab4f7683",
      "blockNumber": 122269,
      "transactionIndex": 0,
      "confirmations": null,
      "from": "0xc3DBDB3Efa722db2a3F6041b0ca0042782296ba9",
      "gasPrice": {
        "_hex": "0xba43b7400"
      },
      "gasLimit": {
        "_hex": "0x15f90"
      },
      "to": "0x92857A8BC0A6F66180324f49541C695A3a0Ff944",
      "value": {
        "_hex": "0x13f306a2409fc0000"
      },
      "nonce": 12,
      "data": "0x",
      "r": "0x46764bb73ae96a7a9782f6756b9c2198f2f7e7e05a94de09ead2e41a669c50c0",
      "s": "0x73c7e82670365f38a79694847d8c73c4b6b19a371147678b675cee0b0a27b0bf",
      "v": 27,
      "creates": null,
      "raw": "0xf86e0c850ba43b740083015f909492857a8bc0a6f66180324f49541c695a3a0ff94489013f306a2409fc0000801ba046764bb73ae96a7a9782f6756b9c2198f2f7e7e05a94de09ead2e41a669c50c0a073c7e82670365f38a79694847d8c73c4b6b19a371147678b675cee0b0a27b0bf",
      "networkId": 0,
      "chainId": 0
    },
    {
      "hash": "0x9f30fe12920588c3fd62a070b17c86f4359e69fef35f3634d90713b09a428d9e",
      "blockHash": "0xc5fe437513aa6a8ba33b2a2ba5462dd05b0f64e5d09eb2304473f07bab4f7683",
      "blockNumber": 122269,
      "transactionIndex": 1,
      "confirmations": null,
      "from": "0x2b5535C9F9edf3eBCb6Bc22699960A7067D2Ef0B",
      "gasPrice": {
        "_hex": "0xba43b7400"
      },
      "gasLimit": {
        "_hex": "0x15f90"
      },
      "to": "0x79d5794171E11dd5C2f0e26E1C187319db2FE6f7",
      "value": {
        "_hex": "0x44004c09e76a0000"
      },
      "nonce": 1,
      "data": "0x",
      "r": "0x2e4fca4416916aa1f431ee3ad5939a82807d59bb5be355df416db6ef0fcc47b2",
      "s": "0x2fdd6a9228379875f506b36a0e7c2d092b79c4a6e3f8c71359811c93e5193eb2",
      "v": 28,
      "creates": null,
      "raw": "0xf86d01850ba43b740083015f909479d5794171e11dd5c2f0e26e1c187319db2fe6f78844004c09e76a0000801ca02e4fca4416916aa1f431ee3ad5939a82807d59bb5be355df416db6ef0fcc47b2a02fdd6a9228379875f506b36a0e7c2d092b79c4a6e3f8c71359811c93e5193eb2",
      "networkId": 0,
      "chainId": 0
    }
  ]
}