{
  "hash": "0x3e3e90cbcec48ef6280dd479c62150887c7adf1d3a3eec48e39b158396ed848a",
  "parentHash": "0x70d4f044049d9f196789f93437f220854d206784925c55b9003ff7d482f3fa03",
  "number": 102602,
  "timestamp": 1439840471,
  "nonce": "0x329a7d7c178dd5ee",
  "difficulty": 4005303961851,
  "gasLimit": {
    "_hex": "0x2fefd8"
  },
  "gasUsed": {
    "_hex": "0x5208"
  },
  "miner": "0xe6A7a1d47ff21B6321162AEA7C6CB457D5476Bca",
  "extraData": "0x476574682f76312e302e312d38326566323666362f6c696e75782f676f312e34",
  "transactions": [
    {
      "hash": "0xd0d16a873941cab4a0e2d446dcc50f9cd95b8925cfdd171cab595bc057191869",
      "blockHash": "0x3e3e90cbcec48ef6280dd479c62150887c7adf1d3a3eec48e39b158396ed848a",
      "blockNumber": 102602,
      "transactionIndex": 0,
      "confirmations": null,
      "from": "0x120A270bbC009644e35F0bB6ab13f95b8199c4ad",
      "gasPrice": {
        "_hex": "0xd13c68b4c"
      },
      "gasLimit": {
        "_hex": "0x3d090"
      },
      "to": "0xCA092A957744f6385B1aee5dC694143E8A06F805",
      "value": {
        "_hex": "0x543bdca40f38c00"
      },
      "nonce": 700,
      "data": "0x",
      "r": "0x50c2fca5e01e65a127235d4e9627a22fb4f93a5fa46398708cd74e612c6c0c64",
      "s": "0x2e66de6639652d750d19c46ff8a483101591c6891e73c19340447b5cf679850d",
      "v": 28,
      "creates": null,
      "raw": "0xf86f8202bc850d13c68b4c8303d09094ca092a957744f6385b1aee5dc694143e8a06f805880543bdca40f38c00801ca050c2fca5e01e65a127235d4e9627a22fb4f93a5fa46398708cd74e612c6c0c64a02e66de6639652d750d19c46ff8a483101591c6891e73c19340447b5cf679850d",
      "networkId": 0,
      "chainId": 0
    }
  ]
}