{
  "hash": "0xb096e9ae4d2f87c191f6d18b8680e1e069bedd8b71929507e415858529cd3746",
  "parentHash": "0x42fb44c2e1cd12383546f4425e83780d90fb1f1f55dbcaeceed718f7758e2d8b",
  "number": 86825,
  "timestamp": 1439583404,
  "nonce": "0x07e51023652ed328",
  "difficulty": 2951670578488,
  "gasLimit": {
    "_hex": "0x2fefd8"
  },
  "gasUsed": {
    "_hex": "0x5208"
  },
  "miner": "0x157c6f2431eB1a95797EE86F7d17b3c0FD47A247",
  "extraData": "0x476574682f76312e302e312f77696e646f77732f676f312e342e32",
  "transactions": [
    {
      "hash": "0xc93690d136cc940813f8b7611f30f4ad84af48983052c240beb50a4d17f9a1e8",
      "blockHash": "0xb096e9ae4d2f87c191f6d18b8680e1e069bedd8b71929507e415858529cd3746",
      "blockNumber": 86825,
      "transactionIndex": 0,
      "confirmations": null,
      "from": "0xF161498A7f225A91C338015ca11833B3399393A8",
      "gasPrice": {
        "_hex": "0x746a528800"
      },
      "gasLimit": {
        "_hex": "0x5b04"
      },
      "to": "0x8c1B019b926ce92d867317f1460D477729E466F1",
      "value": {
        "_hex": "0x1"
      },
      "nonce": 0,
      "data": "0x",
      "r": "0x3a1460de5f2dac18d79e23b278f660c1957957947bc8bbd6e4a975af45e3306f",
      "s": "0xba304a8c335f299853603eb8005a245ea88868b1768a456dc1a71d847bc25689",
      "v": 27,
      "creates": null,
      "raw": "0xf8648085746a528800825b04948c1b019b926ce92d867317f1460d477729e466f101801ba03a1460de5f2dac18d79e23b278f660c1957957947bc8bbd6e4a975af45e3306fa0ba304a8c335f299853603eb8005a245ea88868b1768a456dc1a71d847bc25689",
      "networkId": 0,
      "chainId": 0
    }
  ]
}