{
  "hash": "0xa975d47fbc3aefa4230150b89f1dd7f322b705f13689f865f515d28b24b33718",
  "parentHash": "0xde911597509eba7b375d214d817551f0269e6b6c017b03b0a308c3bb2c19ba31",
  "number": 71895,
  "timestamp": 1439343582,
  "nonce": "0x3dae5a7714df86fb",
  "difficulty": 2173924133641,
  "gasLimit": {
    "_hex": "0x2fefd8"
  },
  "gasUsed": {
    "_hex": "0x93b2"
  },
  "miner": "0xf927a40C8B7F6E07c5af7FA2155B4864a4112B13",
  "extraData": "0x",
  "transactions": [
    {
      "hash": "0x2bafc8e7e641400bd51a232e1cb30c687fc92e3264b19939d8355e00619fa61b",
      "blockHash": "0xa975d47fbc3aefa4230150b89f1dd7f322b705f13689f865f515d28b24b33718",
      "blockNumber": 71895,
      "transactionIndex": 0,
      "confirmations": null,
      "from": "0x17580B766f7453525ca4C6A88b01b50570EA088C",
      "gasPrice": {
        "_hex": "0xd9cba7d48"
      },
      "gasLimit": {
        "_hex": "0x61a80"
      },
      "to": "0x5Fe5B7546D1628f7348B023A0393de1FC825A4fD",
      "value": {
        "_hex": "0x53444835ec580000"
      },
      "nonce": 288,
      "data": "0xb595b8b50000000000000000000000000000000000000000000000000000000000000000",
      "r": "0xb4dbc74b6a55029a823195790d42308b39b323450a527a052ec7cf532b7aa1d0",
      "s": "0x2d8e99db8faeb00e91e7ef6342721bd441f996a4a66f3a044f9e347532e2f2c8",
      "v": 27,
      "creates": null,
      "raw": "0xf893820120850d9cba7d4883061a80945fe5b7546d1628f7348b023a0393de1fc825a4fd8853444835ec580000a4b595b8b500000000000000000000000000000000000000000000000000000000000000001ba0b4dbc74b6a55029a823195790d42308b39b323450a527a052ec7cf532b7aa1d0a02d8e99db8faeb00e91e7ef6342721bd441f996a4a66f3a044f9e347532e2f2c8",
      "networkId": 0,
      "chainId": 0
    }
  ]
}