{
  "hash": "0x881e4c750109a2240b87ad76093d870ba55e61744da3ef21c1c95f0b90714f48",
  "parentHash": "0x2043fec2cba3c04ba7646b0c881b04585b71beeef4e31cfc9d10affea9238046",
  "number": 111666,
  "timestamp": 1439994012,
  "nonce": "0xb56290c6b4dbb1ec",
  "difficulty": 4446012906412,
  "gasLimit": {
    "_hex": "0x2fefd8"
  },
  "gasUsed": {
    "_hex": "0x14820"
  },
  "miner": "0xe6A7a1d47ff21B6321162AEA7C6CB457D5476Bca",
  "extraData": "0x476574682f76312e302e312d38326566323666362f6c696e75782f676f312e34",
  "transactions": [
    {
      "hash": "0x920eb27eeba9f1f127e498a59b0793a215910c5f648ea335cb4d002f2e75aabe",
      "blockHash": "0x881e4c750109a2240b87ad76093d870ba55e61744da3ef21c1c95f0b90714f48",
      "blockNumber": 111666,
      "transactionIndex": 0,
      "confirmations": null,
      "from": "0xa70a9a7040d542C632D8e0bE7c5513A8a5Bbc752",
      "gasPrice": {
        "_hex": "0xd191e379e"
      },
      "gasLimit": {
        "_hex": "0x5208"
      },
      "to": "0x32Be343B94f860124dC4fEe278FDCBD38C102D88",
      "value": {
        "_hex": "0x34067aac3c785800"
      },
      "nonce": 293,
      "data": "0x",
      "r": "0x80d9b171a6cbb8098bc6aefe1ee8d8be4ec1ae4090eb8784d8f0296bc13efd30",
      "s": "0x0d72756006a8b2f553a2009efe86464329c68241eb45208805fbed8e93ef1be4",
      "v": 27,
      "creates": null,
      "raw": "0xf86e820125850d191e379e8252089432be343b94f860124dc4fee278fdcbd38c102d888834067aac3c785800801ba080d9b171a6cbb8098bc6aefe1ee8d8be4ec1ae4090eb8784d8f0296bc13efd30a00d72756006a8b2f553a2009efe86464329c68241eb45208805fbed8e93ef1be4",
      "networkId": 0,
      "chainId": 0
    },
    {
      "hash": "0x0233eeb8445736228c7dc6d5408d629112583e186adee8d46c4321f8111e289c",
      "blockHash": "0x881e4c750109a2240b87ad76093d870ba55e61744da3ef21c1c95f0b90714f48",
      "blockNumber": 111666,
      "transactionIndex": 1,
      "confirmations": null,
      "from": "0x9f2DCCCF9e6A2601798E05e9ab5Eb6ccf7bAA111",
      "gasPrice": {
        "_hex": "0xd191e379e"
      },
      "gasLimit": {
        "_hex": "0x5208"
      },
      "to": "0x32Be343B94f860124dC4fEe278FDCBD38C102D88",
      "value": {
        "_hex": "0x568eadd4df8dcc000"
      },
      "nonce": 1,
      "data": "0x",
      "r": "0xe9d7a76efdcc1dfb626b420d90785b19c902b934881c142a2aedc2e2e3dcf394",
      "s": "0x46f76dbc6942a171ba8049c40b99fc6443c33d7e13452a53b230f16e4530a3b9",
      "v": 27,
      "creates": null,
      "raw": "0xf86d01850d191e379e8252089432be343b94f860124dc4fee278fdcbd38c102d88890568eadd4df8dcc000801ba0e9d7a76efdcc1dfb626b420d90785b19c902b934881c142a2aedc2e2e3dcf394a046f76dbc6942a171ba8049c40b99fc6443c33d7e13452a53b230f16e4530a3b9",
      "networkId": 0,
      "chainId": 0
    },
    {
      "hash": "0x30b828f8903994aa025089067c31c28c3e86462bfc48d701366f2bdc7e42b04f",
      "blockHash": "0x881e4c750109a2240b87ad76093d870ba55e61744da3ef21c1c95f0b90714f48",
      "blockNumber": 111666,
      "transactionIndex": 2,
      "confirmations": null,
      "from": "0x79204D7826f5d18687B4bB92dF98b98218Ab38B9",
      "gasPrice": {
        "_hex": "0xd191e379e"
      },
      "gasLimit": {
        "_hex": "0x5208"
      },
      "to": "0x32Be343B94f860124dC4fEe278FDCBD38C102D88",
      "value": {
        "_hex": "0xddc843e30255800"
      },
      "nonce": 1,
      "data": "0x",
      "r": "0x00905a8a0f850b5cda600e0ad796c165cd9770f671b85dbe93aaf98956cea45a",
      "s": "0x443e005f8536eb8f8eadd1175bad5b45560bb29115cd5e7b095cae8132e88537",
      "v": 28,
      "creates": null,
      "raw": "0xf86b01850d191e379e8252089432be343b94f860124dc4fee278fdcbd38c102d88880ddc843e30255800801c9f905a8a0f850b5cda600e0ad796c165cd9770f671b85dbe93aaf98956cea45aa0443e005f8536eb8f8eadd1175bad5b45560bb29115cd5e7b095cae8132e88537",
      "networkId": 0,
      "chainId": 0
    },
    {
      "hash": "0x7c9e171a7d705da40ca5ca8f233585dc0c9f3861403bb5970108c0c666486553",
      "blockHash": "0x881e4c750109a2240b87ad76093d870ba55e61744da3ef21c1c95f0b90714f48",
      "blockNumber": 111666,
      "transactionIndex": 3,
      "confirmations": null,
      "from": "0x839004d04F48410856d9D43fdd18Ee8453bBd8f5",
      "gasPrice": {
        "_hex": "0xba43b7400"
      },
      "gasLimit": {
        "_hex": "0x5208"
      },
      "to": "0xC47Aaa860008be6f65B58c6C6E02a84e666EfE31",
      "value": {
        "_hex": "0xddcfbbb7a606000"
      },
      "nonce": 0,
      "data": "0x",
      "r": "0x3892d320ef82d44e22faef3f3335cb2792b8b89949f5cbe75f83fd2afa5c7d27",
      "s": "0x144462b0f381ab4f3a50a0ecefb7a070ef8707e5fea0d5c16d79d537f07cdd34",
      "v": 28,
      "creates": null,
      "raw": "0xf86c80850ba43b740082520894c47aaa860008be6f65b58c6c6e02a84e666efe31880ddcfbbb7a606000801ca03892d320ef82d44e22faef3f3335cb2792b8b89949f5cbe75f83fd2afa5c7d27a0144462b0f381ab4f3a50a0ecefb7a070ef8707e5fea0d5c16d79d537f07cdd34",
      "networkId": 0,
      "chainId": 0
    }
  ]
}