{
  "hash": "0xec2fb977a399de79c66461a0eb888bccb33eb2f7debd1693a0ebb72c047ddb44",
  "parentHash": "0xd9d02d2fd946e952601c6a7c761d1fdade7d3588f9618127029866b8449572ff",
  "number": 70832,
  "timestamp": 1439326174,
  "nonce": "0xd7444b244964c07e",
  "difficulty": 2145723980889,
  "gasLimit": {
    "_hex": "0x2fefd8"
  },
  "gasUsed": {
    "_hex": "0xf618"
  },
  "miner": "0xEF247E639d49461D25F57e9362CadE3120910Ce0",
  "extraData": "0x476574682f76312e302e312f6c696e75782f676f312e342e32",
  "transactions": [
    {
      "hash": "0x1df51efb75b2eeff7f04283cf8432f86caffe8491913f3289eb14c22e6c2ef0e",
      "blockHash": "0xec2fb977a399de79c66461a0eb888bccb33eb2f7debd1693a0ebb72c047ddb44",
      "blockNumber": 70832,
      "transactionIndex": 0,
      "confirmations": null,
      "from": "0xA10CDF70bc138605c39F8651A78485Fe4F1C3811",
      "gasPrice": {
        "_hex": "0xd1bc5c815"
      },
      "gasLimit": {
        "_hex": "0x5208"
      },
      "to": "0x32Be343B94f860124dC4fEe278FDCBD38C102D88",
      "value": {
        "_hex": "0x2b318f0d7f6e38000"
      },
      "nonce": 4,
      "data": "0x",
      "r": "0xdc88dee26fee0ce1596293c21f2aeba2c5170f8642194fd27acbd6163bf2a335",
      "s": "0x796c0b981cf05ee1a883af004a0f49ea07a30806751622a77feed4209056603f",
      "v": 27,
      "creates": null,
      "raw": "0xf86d04850d1bc5c8158252089432be343b94f860124dc4fee278fdcbd38c102d888902b318f0d7f6e38000801ba0dc88dee26fee0ce1596293c21f2aeba2c5170f8642194fd27acbd6163bf2a335a0796c0b981cf05ee1a883af004a0f49ea07a30806751622a77feed4209056603f",
      "networkId": 0,
      "chainId": 0
    },
    {
      "hash": "0x7887b794d095eaaa8a1f0e66c63d4fa355e291e6a2cbeca2debb47b7071b6488",
      "blockHash": "0xec2fb977a399de79c66461a0eb888bccb33eb2f7debd1693a0ebb72c047ddb44",
      "blockNumber": 70832,
      "transactionIndex": 1,
      "confirmations": null,
      "from": "0x6A8CC233E14F874983bB2F37D1DE706f6910Ef0b",
      "gasPrice": {
        "_hex": "0xd1bc5c815"
      },
      "gasLimit": {
        "_hex": "0x5208"
      },
      "to": "0x32Be343B94f860124dC4fEe278FDCBD38C102D88",
      "value": {
        "_hex": "0x1bbd3a194f378400"
      },
      "nonce": 1,
      "data": "0x",
      "r": "0x1b2a407a5dd3d3f978f3da77edbbe054a749450109e62724aafecb61e8ff2ed5",
      "s": "0x37eff5c90dedab0eba8e3a356c2824683a59e8e7705c55ad34cbc94eb0492c22",
      "v": 28,
      "creates": null,
      "raw": "0xf86c01850d1bc5c8158252089432be343b94f860124dc4fee278fdcbd38c102d88881bbd3a194f378400801ca01b2a407a5dd3d3f978f3da77edbbe054a749450109e62724aafecb61e8ff2ed5a037eff5c90dedab0eba8e3a356c2824683a59e8e7705c55ad34cbc94eb0492c22",
      "networkId": 0,
      "chainId": 0
    },
    {
      "hash": "0x0bc6a5c8cc4c49ad39ad3eb9d67d95c7097a1ddb8b59f95655401d81f5552356",
      "blockHash": "0xec2fb977a399de79c66461a0eb888bccb33eb2f7debd1693a0ebb72c047ddb44",
      "blockNumber": 70832,
      "transactionIndex": 2,
      "confirmations": null,
      "from": "0xabceA603089850F8f6bB612A9031554D90A247CF",
      "gasPrice": {
        "_hex": "0xd1bc5c815"
      },
      "gasLimit": {
        "_hex": "0x5208"
      },
      "to": "0x32Be343B94f860124dC4fEe278FDCBD38C102D88",
      "value": {
        "_hex": "0xddc8365a7d38400"
      },
      "nonce": 2,
      "data": "0x",
      "r": "0x3bdbf92e781221f62f5ef749e97c3b255d16adfac2587f73777f6715eaec488f",
      "s": "0x45a62b580143f84173b83aa08cb2a34a1104a8ca1c4ecff5982cebbb1787dbde",
      "v": 28,
      "creates": null,
      "raw": "0xf86c02850d1bc5c8158252089432be343b94f860124dc4fee278fdcbd38c102d88880ddc8365a7d38400801ca03bdbf92e781221f62f5ef749e97c3b255d16adfac2587f73777f6715eaec488fa045a62b580143f84173b83aa08cb2a34a1104a8ca1c4ecff5982cebbb1787dbde",
      "networkId": 0,
      "chainId": 0
    }
  ]
}