{
  "hash": "0xa31bb7e8ff7a60812b658fea862b0b99c474b3e054a4e6d1199f5568cff7ebb8",
  "parentHash": "0xec4e7e69e51eac34f347f09a3962e1275406b6c7c0d4715223cecd1f09ff48ce",
  "number": 63293,
  "timestamp": 1439202222,
  "nonce": "0xd0d422626285b689",
  "difficulty": 1812926023297,
  "gasLimit": {
    "_hex": "0x2fefd8"
  },
  "gasUsed": {
    "_hex": "0x546c"
  },
  "miner": "0xB5EDD17d2582A94610ebf0C6832c1652EBBBe210",
  "extraData": "0x476574682f76312e302e312d38326566323666362f6c696e75782f676f312e34",
  "transactions": [
    {
      "hash": "0x5656f10660ade9e7318ac37b095e91c1a945af1fa9bc48a85e60858a272661c8",
      "blockHash": "0xa31bb7e8ff7a60812b658fea862b0b99c474b3e054a4e6d1199f5568cff7ebb8",
      "blockNumber": 63293,
      "transactionIndex": 0,
      "confirmations": null,
      "from": "0xa914cDb571BFd93D64da66a4e108EA134e50D000",
      "gasPrice": {
        "_hex": "0x9184e72a000"
      },
      "gasLimit": {
        "_hex": "0x55f0"
      },
      "to": "0x2910543Af39abA0Cd09dBb2D50200b3E800A63D2",
      "value": {
        "_hex": "0x56bc75e2d63100000"
      },
      "nonce": 5,
      "data": "0x454e43523838455252",
      "r": "0x3ebe8bd6c2e78e6e780c1ed4b3af3238d4ab939c998c4565e294564b05d4b05f",
      "s": "0x32b27bf04dd18b2ae3ed0f769cc09e739378ca9ddf33d79002941652e5011a52",
      "v": 28,
      "creates": null,
      "raw": "0xf877058609184e72a0008255f0942910543af39aba0cd09dbb2d50200b3e800a63d289056bc75e2d6310000089454e435238384552521ca03ebe8bd6c2e78e6e780c1ed4b3af3238d4ab939c998c4565e294564b05d4b05fa032b27bf04dd18b2ae3ed0f769cc09e739378ca9ddf33d79002941652e5011a52",
      "networkId": 0,
      "chainId": 0
    }
  ]
}