{
  "hash": "0xb073512736829d104db38d7b147fa952a06b5d7072dc52f0bd6e23eb3d703a71",
  "parentHash": "0xbe7d5092b20540da2cb18f5b691a9ef9990c073293d32793f07af0f485cbe148",
  "number": 72277,
  "timestamp": 1439350265,
  "nonce": "0x0bdefeba67f2bb0d",
  "difficulty": 2167465830939,
  "gasLimit": {
    "_hex": "0x2fefd8"
  },
  "gasUsed": {
    "_hex": "0x5208"
  },
  "miner": "0x9D0B366c06Bdb8D00C9Ab617db64B505f9e05d79",
  "extraData": "0x476574682f76312e302e312d38326566323666362f6c696e75782f676f312e34",
  "transactions": [
    {
      "hash": "0x0b9fbb258304d0e26889071a759a4774155074f2242c36313d9cd178462269d1",
      "blockHash": "0xb073512736829d104db38d7b147fa952a06b5d7072dc52f0bd6e23eb3d703a71",
      "blockNumber": 72277,
      "transactionIndex": 0,
      "confirmations": null,
      "from": "0x47ff6576639c2e94762eA5443978D7681C0E78DC",
      "gasPrice": {
        "_hex": "0xce85d658f"
      },
      "gasLimit": {
        "_hex": "0x5208"
      },
      "to": "0x3620db64D25D412bAb4C8d93E2e0D7e64e8Cb933",
      "value": {
        "_hex": "0x16b6cb080af8ac0000"
      },
      "nonce": 20,
      "data": "0x",
      "r": "0x807d85eedd11db6be4cbd7fdbf60f1b1c116ba3557cb5e8b7426a80616ff48fd",
      "s": "0x35ad3b706b12cc8d143402752337a40df46725415255707de0add74f954135e0",
      "v": 28,
      "creates": null,
      "raw": "0xf86d14850ce85d658f825208943620db64d25d412bab4c8d93e2e0d7e64e8cb9338916b6cb080af8ac0000801ca0807d85eedd11db6be4cbd7fdbf60f1b1c116ba3557cb5e8b7426a80616ff48fda035ad3b706b12cc8d143402752337a40df46725415255707de0add74f954135e0",
      "networkId": 0,
      "chainId": 0
    }
  ]
}