{
  "hash": "0xa1795d614af40cb64396bfd8ef46364d42c12e4a1a77a4c480fbd0e8bf77ee34",
  "parentHash": "0x7d18085c560094bdb573815b137be5f586060b8d93f4dc4acaf1d33a7fcf12e9",
  "number": 77678,
  "timestamp": 1439441029,
  "nonce": "0xdae25748ad0a8fce",
  "difficulty": 2268914533886,
  "gasLimit": {
    "_hex": "0x2fefd8"
  },
  "gasUsed": {
    "_hex": "0x5208"
  },
  "miner": "0xe6A7a1d47ff21B6321162AEA7C6CB457D5476Bca",
  "extraData": "0x476574682f76312e302e312d38326566323666362f6c696e75782f676f312e34",
  "transactions": [
    {
      "hash": "0xe31e5d17682bfcf13a3ef5f0db94e7a5d72bd07c372e7b1ac2b4290ebf2959e7",
      "blockHash": "0xa1795d614af40cb64396bfd8ef46364d42c12e4a1a77a4c480fbd0e8bf77ee34",
      "blockNumber": 77678,
      "transactionIndex": 0,
      "confirmations": null,
      "from": "0x2a53CDf1BD82971A0383522D9D2D20eabB832143",
      "gasPrice": {
        "_hex": "0xd0a0eeae9"
      },
      "gasLimit": {
        "_hex": "0x15f90"
      },
      "to": "0x36d85Dc3683156e63Bf880A9fAb7788CF8143a27",
      "value": {
        "_hex": "0xd108bff2095240000"
      },
      "nonce": 1,
      "data": "0x",
      "r": "0x3b71fc05235c3ac477d203911ea8f1ee859e31c7459680e096b4f957179d8962",
      "s": "0x05a5c39312c03b2420cdc0729b41f27ea4c7fcef325f046dd26a0e5ed5670911",
      "v": 28,
      "creates": null,
      "raw": "0xf86e01850d0a0eeae983015f909436d85dc3683156e63bf880a9fab7788cf8143a27890d108bff2095240000801ca03b71fc05235c3ac477d203911ea8f1ee859e31c7459680e096b4f957179d8962a005a5c39312c03b2420cdc0729b41f27ea4c7fcef325f046dd26a0e5ed5670911",
      "networkId": 0,
      "chainId": 0
    }
  ]
}