{
  "hash": "0xbb99d637ea601ebec2c6d74898c6d359961b14e461d1ae0e679e2050dbef2208",
  "parentHash": "0xd71433e69182997e887d83ce483c071a3a465a56db5f8d0cb720630ec09ca5d3",
  "number": 85467,
  "timestamp": 1439564097,
  "nonce": "0xa2f0f03964d38751",
  "difficulty": 2746335735568,
  "gasLimit": {
    "_hex": "0x2fefd8"
  },
  "gasUsed": {
    "_hex": "0x14820"
  },
  "miner": "0x157c6f2431eB1a95797EE86F7d17b3c0FD47A247",
  "extraData": "0x476574682f76312e302e312f77696e646f77732f676f312e342e32",
  "transactions": [
    {
      "hash": "0x601418f6e5e46cb93a62803837fcbf7962cedeaa1263b591acd6e55a6b29afd9",
      "blockHash": "0xbb99d637ea601ebec2c6d74898c6d359961b14e461d1ae0e679e2050dbef2208",
      "blockNumber": 85467,
      "transactionIndex": 0,
      "confirmations": null,
      "from": "0xd777F7fef2F2e04119338dB16f2157e878D253Ba",
      "gasPrice": {
        "_hex": "0xdf92137a2"
      },
      "gasLimit": {
        "_hex": "0x5208"
      },
      "to": "0x32Be343B94f860124dC4fEe278FDCBD38C102D88",
      "value": {
        "_hex": "0x22b1811d5b1d08000"
      },
      "nonce": 0,
      "data": "0x",
      "r": "0xba1b92f780e8ab0626d1a941ca8edfb8afce0326e021bf081bfe007aea6c475e",
      "s": "0x182b2faadfe191390a7d64b727d21a7f0dd144301405c77449cf74de4b5632a9",
      "v": 28,
      "creates": null,
      "raw": "0xf86d80850df92137a28252089432be343b94f860124dc4fee278fdcbd38c102d8889022b1811d5b1d08000801ca0ba1b92f780e8ab0626d1a941ca8edfb8afce0326e021bf081bfe007aea6c475ea0182b2faadfe191390a7d64b727d21a7f0dd144301405c77449cf74de4b5632a9",
      "networkId": 0,
      "chainId": 0
    },
    {
      "hash": "0xe6a917b17035b66529cdae3d43d47683b12ad43bd3ced262764d9ce88ed3d938",
      "blockHash": "0xbb99d637ea601ebec2c6d74898c6d359961b14e461d1ae0e679e2050dbef2208",
      "blockNumber": 85467,
      "transactionIndex": 1,
      "confirmations": null,
      "from": "0xe3A29c590ae7Bf0D32A7121373bf5C94ADbeCa4a",
      "gasPrice": {
        "_hex": "0xdf92137a2"
      },
      "gasLimit": {
        "_hex": "0x5208"
      },
      "to": "0x32Be343B94f860124dC4fEe278FDCBD38C102D88",
      "value": {
        "_hex": "0xad341aa439f800"
      },
      "nonce": 7,
      "data": "0x",
      "r": "0x9036caf106fe5ea28b3a0358c7303ed18234416858ffda37e72cca2140113076",
      "s": "0x6b11f1c3f8c4a9247d0e2d304616ac1a8456c419d9509c28cd90c9d3f96164eb",
      "v": 27,
      "creates": null,
      "raw": "0xf86b07850df92137a28252089432be343b94f860124dc4fee278fdcbd38c102d8887ad341aa439f800801ba09036caf106fe5ea28b3a0358c7303ed18234416858ffda37e72cca2140113076a06b11f1c3f8c4a9247d0e2d304616ac1a8456c419d9509c28cd90c9d3f96164eb",
      "networkId": 0,
      "chainId": 0
    },
    {
      "hash": "0xe91c2ea06499dddfb763d9c8a4fea5c803cbcb604d86f2e5ddb5e3e30774635b",
      "blockHash": "0xbb99d637ea601ebec2c6d74898c6d359961b14e461d1ae0e679e2050dbef2208",
      "blockNumber": 85467,
      "transactionIndex": 2,
      "confirmations": null,
      "from": "0xa6BDc31c431B8F97848c9D60cbbe9660dc450eB7",
      "gasPrice": {
        "_hex": "0xdf92137a2"
      },
      "gasLimit": {
        "_hex": "0x5208"
      },
      "to": "0x32Be343B94f860124dC4fEe278FDCBD38C102D88",
      "value": {
        "_hex": "0x455f22162a5e7c00"
      },
      "nonce": 70,
      "data": "0x",
      "r": "0xe4c568fe1a5477e1b16c1e9aea737e3030eeb184c5e97faa3b140d9bf1c9c481",
      "s": "0x153f050bd7bbcc0dbfdac58de63bda9f836af196624c30fd9501e131714f13aa",
      "v": 27,
      "creates": null,
      "raw": "0xf86c46850df92137a28252089432be343b94f860124dc4fee278fdcbd38c102d8888455f22162a5e7c00801ba0e4c568fe1a5477e1b16c1e9aea737e3030eeb184c5e97faa3b140d9bf1c9c481a0153f050bd7bbcc0dbfdac58de63bda9f836af196624c30fd9501e131714f13aa",
      "networkId": 0,
      "chainId": 0
    },
    {
      "hash": "0x83685d7699c58f3842f0d028824495ab964af0345f9200b051be2d32fe2c6def",
      "blockHash": "0xbb99d637ea601ebec2c6d74898c6d359961b14e461d1ae0e679e2050dbef2208",
      "blockNumber": 85467,
      "transactionIndex": 3,
      "confirmations": null,
      "from": "0xc3a9226aE275dF2CAB312B911040634A9C9C9eF6",
      "gasPrice": {
        "_hex": "0xd5c1f6a6c"
      },
      "gasLimit": {
        "_hex": "0x5208"
      },
      "to": "0x24e0fEAc2aabaE5625b91D8e9310bEd1E19eAc2a",
      "value": {
        "_hex": "0x7518058bd45bc0000"
      },
      "nonce": 5,
      "data": "0x",
      "r": "0x6286d1320c8f86bdb1cd03d6442dbf47e68745852bc511ac673a279b5f36435e",
      "s": "0x2f0849f4e68db2a60682ef64e34c642273e7d786aaee7381ee25c2a018e62a8e",
      "v": 27,
      "creates": null,
      "raw": "0xf86d05850d5c1f6a6c8252089424e0feac2aabae5625b91d8e9310bed1e19eac2a8907518058bd45bc0000801ba06286d1320c8f86bdb1cd03d6442dbf47e68745852bc511ac673a279b5f36435ea02f0849f4e68db2a60682ef64e34c642273e7d786aaee7381ee25c2a018e62a8e",
      "networkId": 0,
      "chainId": 0
    }
  ]
}