{
  "hash": "0x5239ae19fe02b4c1f64df4062a9fc2456ad3eafec8fa682a82840e4699029893",
  "parentHash": "0x6de8ca725c8b7aebdfe7608d8b857a1e1f631f7c84662e4460071d8f62905024",
  "number": 47617,
  "timestamp": 1438943764,
  "nonce": "0xcf10d3bb36cff3ec",
  "difficulty": 1446680717626,
  "gasLimit": {
    "_hex": "0xd75d"
  },
  "gasUsed": {
    "_hex": "0xa674"
  },
  "miner": "0xbb7B8287f3F0a933474a79eAe42CBCa977791171",
  "extraData": "0x476574682f4c5649562f76312e302e312f6c696e75782f676f312e342e32",
  "transactions": [
    {
      "hash": "0x4bbe1f894643a629439128975d668395ad3d285361da58c90720eec1e615747b",
      "blockHash": "0x5239ae19fe02b4c1f64df4062a9fc2456ad3eafec8fa682a82840e4699029893",
      "blockNumber": 47617,
      "transactionIndex": 0,
      "confirmations": null,
      "from": "0x47C247F53b9FBeb17Bba0703A00c009fdb0f6EaE",
      "gasPrice": {
        "_hex": "0xe2c9f57ee"
      },
      "gasLimit": {
        "_hex": "0x5208"
      },
      "to": "0x900C0aFc99968F30e64a7DEe5828042b6422a098",
      "value": {
        "_hex": "0x1695d556204b1e80000"
      },
      "nonce": 0,
      "data": "0x",
      "r": "0x51c515d254198c568c101f7ef8c4d334a257815131366c4e894cfacd1dcd25b0",
      "s": "0x235f71bacb8b87ea69ddacfa4c241165e94021cf81f91ad3a48879bf7cd1edff",
      "v": 28,
      "creates": null,
      "raw": "0xf86e80850e2c9f57ee82520894900c0afc99968f30e64a7dee5828042b6422a0988a01695d556204b1e80000801ca051c515d254198c568c101f7ef8c4d334a257815131366c4e894cfacd1dcd25b0a0235f71bacb8b87ea69ddacfa4c241165e94021cf81f91ad3a48879bf7cd1edff",
      "networkId": 0,
      "chainId": 0
    },
    {
      "hash": "0x47ee995064d0f5c90fd5bf41e62f1e183a8cbe295a6a9adec9596f7d20377d6c",
      "blockHash": "0x5239ae19fe02b4c1f64df4062a9fc2456ad3eafec8fa682a82840e4699029893",
      "blockNumber": 47617,
      "transactionIndex": 1,
      "confirmations": null,
      "from": "0x346Ad0cADdD5A8b2CAfd5b363414E4AE348db24c",
      "gasPrice": {
        "_hex": "0xcbae0742a"
      },
      "gasLimit": {
        "_hex": "0x6978"
      },
      "to": "0x2910543Af39abA0Cd09dBb2D50200b3E800A63D2",
      "value": {
        "_hex": "0x4563918244f400000"
      },
      "nonce": 1,
      "data": "0x454e423451384a3252",
      "r": "0x50a3a7e689c7b7e805f9b6f57d992dcda6834d98437c65800aef3c1a12da9990",
      "s": "0x6e7ce9a8c6a1059888bb82e6c78f7b0d1ce1e0923f11bec5e65bc7a3570c0452",
      "v": 28,
      "creates": null,
      "raw": "0xf87601850cbae0742a826978942910543af39aba0cd09dbb2d50200b3e800a63d28904563918244f40000089454e423451384a32521ca050a3a7e689c7b7e805f9b6f57d992dcda6834d98437c65800aef3c1a12da9990a06e7ce9a8c6a1059888bb82e6c78f7b0d1ce1e0923f11bec5e65bc7a3570c0452",
      "networkId": 0,
      "chainId": 0
    }
  ]
}