{
  "hash": "0x15c1d80421ac155ea5836f1ea06732e01d475cc6b4a6c44297a951e5d6f97469",
  "parentHash": "0x998d9e66e5994d99db12864609c37ebefa7f63046a76f040152231ce8a4b9fa2",
  "number": 105733,
  "timestamp": 1439892614,
  "nonce": "0x899943ec943465f0",
  "difficulty": 4403770387316,
  "gasLimit": {
    "_hex": "0x2fefd8"
  },
  "gasUsed": {
    "_hex": "0xa410"
  },
  "miner": "0xA21Ba94e45f0E168dA824fC67aC9cb5Cb577a8aF",
  "extraData": "0x",
  "transactions": [
    {
      "hash": "0x1c034540d1b84085cdf821ea7be823fde1500e409f2aafe93134b25cd3057d71",
      "blockHash": "0x15c1d80421ac155ea5836f1ea06732e01d475cc6b4a6c44297a951e5d6f97469",
      "blockNumber": 105733,
      "transactionIndex": 0,
      "confirmations": null,
      "from": "0x4C9560759adF54ABEdd7318d1413C4fA49240074",
      "gasPrice": {
        "_hex": "0xba43b7400"
      },
      "gasLimit": {
        "_hex": "0x5208"
      },
      "to": "0xC47Aaa860008be6f65B58c6C6E02a84e666EfE31",
      "value": {
        "_hex": "0x268b5966e1b710d0"
      },
      "nonce": 5,
      "data": "0x",
      "r": "0x4dd2351074d07ff1b35eb71516f51e1b57de08ad8c0197a2947f83862a1781a9",
      "s": "0x1d0fdecfe1e55723f823f47cfe558cd8deba1b41b39d207c22f4bf067f4f8802",
      "v": 28,
      "creates": null,
      "raw": "0xf86c05850ba43b740082520894c47aaa860008be6f65b58c6c6e02a84e666efe3188268b5966e1b710d0801ca04dd2351074d07ff1b35eb71516f51e1b57de08ad8c0197a2947f83862a1781a9a01d0fdecfe1e55723f823f47cfe558cd8deba1b41b39d207c22f4bf067f4f8802",
      "networkId": 0,
      "chainId": 0
    },
    {
      "hash": "0x902b647498f49993df5733743900129e262e68087f82fb908a91c77320a41696",
      "blockHash": "0x15c1d80421ac155ea5836f1ea06732e01d475cc6b4a6c44297a951e5d6f97469",
      "blockNumber": 105733,
      "transactionIndex": 1,
      "confirmations": null,
      "from": "0xE996d36DB289Ef8D9F0a9f9a903cc42fEA50CD4E",
      "gasPrice": {
        "_hex": "0xba43b7400"
      },
      "gasLimit": {
        "_hex": "0x5208"
      },
      "to": "0xC47Aaa860008be6f65B58c6C6E02a84e666EfE31",
      "value": {
        "_hex": "0x38710b7a8b86a000"
      },
      "nonce": 4,
      "data": "0x",
      "r": "0x08475eb8a081348f21979d1d78806fcda95d1fb53a70968856bee0564fe478f3",
      "s": "0x2586a563c9f1533b226c13e96f0e3708f8460660fadabdea957f344c72965906",
      "v": 27,
      "creates": null,
      "raw": "0xf86c04850ba43b740082520894c47aaa860008be6f65b58c6c6e02a84e666efe318838710b7a8b86a000801ba008475eb8a081348f21979d1d78806fcda95d1fb53a70968856bee0564fe478f3a02586a563c9f1533b226c13e96f0e3708f8460660fadabdea957f344c72965906",
      "networkId": 0,
      "chainId": 0
    }
  ]
}