{
  "hash": "0xb7e792f349a2d2e4c4fbc0d7da386b7ffaef6d8976081a95b1b79d67b9034315",
  "parentHash": "0x2e3ff808a8558074a419899ecb35b1e6f92a757affe319a20a9aec74ab342283",
  "number": 95274,
  "timestamp": 1439721644,
  "nonce": "0x36aa6c3eb931c99f",
  "difficulty": 3555073869188,
  "gasLimit": {
    "_hex": "0x2fefd8"
  },
  "gasUsed": {
    "_hex": "0x5208"
  },
  "miner": "0x47ff6576639c2e94762eA5443978D7681C0E78DC",
  "extraData": "0x476574682f76312e302e312f6c696e75782f676f312e342e32",
  "transactions": [
    {
      "hash": "0xbbb3fa599c9f434ef7a314b3257a31702e30e6158db87f14c2cf772a96d660aa",
      "blockHash": "0xb7e792f349a2d2e4c4fbc0d7da386b7ffaef6d8976081a95b1b79d67b9034315",
      "blockNumber": 95274,
      "transactionIndex": 0,
      "confirmations": null,
      "from": "0x86d3856ad0105B9d4199936c1fd203664BA325dC",
      "gasPrice": {
        "_hex": "0xe2854f228"
      },
      "gasLimit": {
        "_hex": "0x5208"
      },
      "to": "0x32Be343B94f860124dC4fEe278FDCBD38C102D88",
      "value": {
        "_hex": "0x1177e1f691f06c00"
      },
      "nonce": 17,
      "data": "0x",
      "r": "0x7ab41acd5ec9b4315d9848448fe685af6a2f4e21d07f5fe76c43069ab1dd1de6",
      "s": "0x75595d6a1c40063c5eacf632e4bd62cc37299a35206d5eb34d0b7716176d09c0",
      "v": 28,
      "creates": null,
      "raw": "0xf86c11850e2854f2288252089432be343b94f860124dc4fee278fdcbd38c102d88881177e1f691f06c00801ca07ab41acd5ec9b4315d9848448fe685af6a2f4e21d07f5fe76c43069ab1dd1de6a075595d6a1c40063c5eacf632e4bd62cc37299a35206d5eb34d0b7716176d09c0",
      "networkId": 0,
      "chainId": 0
    }
  ]
}