{
  "hash": "0x3f06314cc2ac675a29a22234d38ab47aac146a4a67c7790bd33f1a34fedc69f4",
  "parentHash": "0x431a5e5932b8fdadd4c0da739a97b78b3ca2579850ef222d30302304e7ef94de",
  "number": 99395,
  "timestamp": 1439789312,
  "nonce": "0x1b2d861ad49a3ea1",
  "difficulty": 3799156684633,
  "gasLimit": {
    "_hex": "0x2fefd8"
  },
  "gasUsed": {
    "_hex": "0xa410"
  },
  "miner": "0xf8E0CA3Ed80bd541b94BEdCf259e8CF2141A9523",
  "extraData": "0x476574682f76312e302e312f77696e646f77732f676f312e342e32",
  "transactions": [
    {
      "hash": "0x965273c05a150a85b5f0f2479bab7d187de80a69a45d88b38fff0935ca67b380",
      "blockHash": "0x3f06314cc2ac675a29a22234d38ab47aac146a4a67c7790bd33f1a34fedc69f4",
      "blockNumber": 99395,
      "transactionIndex": 0,
      "confirmations": null,
      "from": "0x08B27b7407ab554c610aD305dc67a686A3D6B3F7",
      "gasPrice": {
        "_hex": "0xcd44373aa"
      },
      "gasLimit": {
        "_hex": "0x5208"
      },
      "to": "0x32Be343B94f860124dC4fEe278FDCBD38C102D88",
      "value": {
        "_hex": "0x821952d65de278000"
      },
      "nonce": 1,
      "data": "0x",
      "r": "0x2f0586344cac923e90f0d6fa1f80fa504b847bf54b7b5c80136d5f4700b0a7c9",
      "s": "0x4fba817a2cc1501be39920c91103c9aa2bcbcc6b08017d6eb399e7a5f2636276",
      "v": 27,
      "creates": null,
      "raw": "0xf86d01850cd44373aa8252089432be343b94f860124dc4fee278fdcbd38c102d88890821952d65de278000801ba02f0586344cac923e90f0d6fa1f80fa504b847bf54b7b5c80136d5f4700b0a7c9a04fba817a2cc1501be39920c91103c9aa2bcbcc6b08017d6eb399e7a5f2636276",
      "networkId": 0,
      "chainId": 0
    },
    {
      "hash": "0x3eff949228bb123591869e59829b7e04f03e6a7952c650187becd5758f41f85d",
      "blockHash": "0x3f06314cc2ac675a29a22234d38ab47aac146a4a67c7790bd33f1a34fedc69f4",
      "blockNumber": 99395,
      "transactionIndex": 1,
      "confirmations": null,
      "from": "0xD9666150A9dA92d9108198a4072970805a8B3428",
      "gasPrice": {
        "_hex": "0xcd44373aa"
      },
      "gasLimit": {
        "_hex": "0x5208"
      },
      "to": "0x32Be343B94f860124dC4fEe278FDCBD38C102D88",
      "value": {
        "_hex": "0x455f751d46640000"
      },
      "nonce": 36,
      "data": "0x",
      "r": "0x1b74762a4eca593d927b0c3435e7f6b635d0153afc972bef28dc3e728489eecd",
      "s": "0x4ad1580ad96c21d01326485be7cd2e9551777024572394d6bfcc84ca3bd6e253",
      "v": 28,
      "creates": null,
      "raw": "0xf86c24850cd44373aa8252089432be343b94f860124dc4fee278fdcbd38c102d8888455f751d46640000801ca01b74762a4eca593d927b0c3435e7f6b635d0153afc972bef28dc3e728489eecda04ad1580ad96c21d01326485be7cd2e9551777024572394d6bfcc84ca3bd6e253",
      "networkId": 0,
      "chainId": 0
    }
  ]
}