{
  "hash": "0xf8b6fe2a99c3030bc697d059d24d5cd8d1b0b2620edaa7583e80bcea49d87430",
  "parentHash": "0x5c7f12ff2fe7871ecd3a97049bed547acdab6e1d4c2745efdb95d4eeec58e00c",
  "number": 104913,
  "timestamp": 1439878253,
  "nonce": "0xc4639b3fe738d726",
  "difficulty": 4331687842427,
  "gasLimit": {
    "_hex": "0x2fefd8"
  },
  "gasUsed": {
    "_hex": "0x5208"
  },
  "miner": "0xe6A7a1d47ff21B6321162AEA7C6CB457D5476Bca",
  "extraData": "0x476574682f76312e302e312d38326566323666362f6c696e75782f676f312e34",
  "transactions": [
    {
      "hash": "0xb9ccf4c9859c273eca2c704424c3a8ae62869c1e6d96fe31445a1adda5d7331c",
      "blockHash": "0xf8b6fe2a99c3030bc697d059d24d5cd8d1b0b2620edaa7583e80bcea49d87430",
      "blockNumber": 104913,
      "transactionIndex": 0,
      "confirmations": null,
      "from": "0xb1abce2918E21ddb93AA452731a12672A3d9F75a",
      "gasPrice": {
        "_hex": "0xcb2222359"
      },
      "gasLimit": {
        "_hex": "0x5208"
      },
      "to": "0x32Be343B94f860124dC4fEe278FDCBD38C102D88",
      "value": {
        "_hex": "0x455f76738937ec00"
      },
      "nonce": 132,
      "data": "0x",
      "r": "0x5569efafa1a1cca7fee73641f11af9ea35a3ba2268712049153f181dd6bb74df",
      "s": "0x5f5b6b932a70a7f00643fa8f819b91604c482c2757403816fe4b851f530c23ca",
      "v": 27,
      "creates": null,
      "raw": "0xf86d8184850cb22223598252089432be343b94f860124dc4fee278fdcbd38c102d8888455f76738937ec00801ba05569efafa1a1cca7fee73641f11af9ea35a3ba2268712049153f181dd6bb74dfa05f5b6b932a70a7f00643fa8f819b91604c482c2757403816fe4b851f530c23ca",
      "networkId": 0,
      "chainId": 0
    }
  ]
}