{
  "hash": "0x3b6a4011fc14b0a40bcadb2749721dbceef923b7e81d9b0f240d4adab7e6fb33",
  "parentHash": "0x25c62d5d5f8405a1e54a6aeb37560e34a1fe4c31fb39c34887f51875c4af6929",
  "number": 85014,
  "timestamp": 1439557360,
  "nonce": "0xae87a6c981262250",
  "difficulty": 2715812292458,
  "gasLimit": {
    "_hex": "0x2fefd8"
  },
  "gasUsed": {
    "_hex": "0x546c"
  },
  "miner": "0xe6A7a1d47ff21B6321162AEA7C6CB457D5476Bca",
  "extraData": "0x476574682f76312e302e312d38326566323666362f6c696e75782f676f312e34",
  "transactions": [
    {
      "hash": "0x1046ec2a722c3cda3140bf9798d409a0b624270dfdb1fb3618540cb0c84a2d6f",
      "blockHash": "0x3b6a4011fc14b0a40bcadb2749721dbceef923b7e81d9b0f240d4adab7e6fb33",
      "blockNumber": 85014,
      "transactionIndex": 0,
      "confirmations": null,
      "from": "0x9a5aF31C7e06339AC8B4628D7C4DB0cE0F45C8a4",
      "gasPrice": {
        "_hex": "0x110c8f7d8de"
      },
      "gasLimit": {
        "_hex": "0xc350"
      },
      "to": "0x2910543Af39abA0Cd09dBb2D50200b3E800A63D2",
      "value": {
        "_hex": "0x1bc16d674ec80000"
      },
      "nonce": 0,
      "data": "0x454e4d3741374b3652",
      "r": "0xee72c8a9fd0381fcd2ac6135d7a632b2137c42e7c32b8bc9b2c3fb87fc4a712e",
      "s": "0xf46e040c0f7b1b2b6dc4aaad23b956541663f2ea680036984ae08ef38cc96967",
      "v": 27,
      "creates": null,
      "raw": "0xf87680860110c8f7d8de82c350942910543af39aba0cd09dbb2d50200b3e800a63d2881bc16d674ec8000089454e4d3741374b36521ba0ee72c8a9fd0381fcd2ac6135d7a632b2137c42e7c32b8bc9b2c3fb87fc4a712ea0f46e040c0f7b1b2b6dc4aaad23b956541663f2ea680036984ae08ef38cc96967",
      "networkId": 0,
      "chainId": 0
    }
  ]
}