{
  "hash": "0x10a8e8a8917725eab2cf3cd0d8797c1d8b25c7ed9e78ca6b06079fcfd53fa47f",
  "parentHash": "0x69e7af6ee735f086e5518c74dd7ef15bd548b6a2890eabed82457d535255be9c",
  "number": 103190,
  "timestamp": 1439849314,
  "nonce": "0x9e81dd99ad697b3e",
  "difficulty": 4180864868889,
  "gasLimit": {
    "_hex": "0x2fefd8"
  },
  "gasUsed": {
    "_hex": "0x5208"
  },
  "miner": "0x9D49F602b0fdb924Bd63DDE2Bd0907E4A07c63a7",
  "extraData": "0x476574682f76312e302e312f6c696e75782f676f312e342e32",
  "transactions": [
    {
      "hash": "0x52aa439327469e5276e906e9cd9fa2d4acff309416af21409f5f79c897b2da01",
      "blockHash": "0x10a8e8a8917725eab2cf3cd0d8797c1d8b25c7ed9e78ca6b06079fcfd53fa47f",
      "blockNumber": 103190,
      "transactionIndex": 0,
      "confirmations": null,
      "from": "0x60a175bB691fEE8557a7b6D8eFC9E49889486f41",
      "gasPrice": {
        "_hex": "0xd60340b78"
      },
      "gasLimit": {
        "_hex": "0x15f90"
      },
      "to": "0xBb7f43EDfd8bf08B022fEd5BD91e3f9dE7e74D09",
      "value": {
        "_hex": "0x4563918244f40000"
      },
      "nonce": 1,
      "data": "0x",
      "r": "0x6e52b9ddc4f232b9d33c5a468c1c3324906c27085f62aaca0182fa7dfc5582ef",
      "s": "0x79c067174cbfa64ff14e9930c84106ef285d62b1cd0c0e4dd4c2cef9e0704f90",
      "v": 27,
      "creates": null,
      "raw": "0xf86d01850d60340b7883015f9094bb7f43edfd8bf08b022fed5bd91e3f9de7e74d09884563918244f40000801ba06e52b9ddc4f232b9d33c5a468c1c3324906c27085f62aaca0182fa7dfc5582efa079c067174cbfa64ff14e9930c84106ef285d62b1cd0c0e4dd4c2cef9e0704f90",
      "networkId": 0,
      "chainId": 0
    }
  ]
}