{
  "hash": "0x35ca56f2c820a3f8422c48241cf608834b150f222e0f6d0eb051bd15c5e0c597",
  "parentHash": "0x46770ad19a1fab297e81325f63e919ef9da4f462c27b466829ffa96c511ff1f1",
  "number": 105007,
  "timestamp": 1439880051,
  "nonce": "0x0c93e5a6bf47845d",
  "difficulty": 4323187326104,
  "gasLimit": {
    "_hex": "0x2fefd8"
  },
  "gasUsed": {
    "_hex": "0xa410"
  },
  "miner": "0xe6A7a1d47ff21B6321162AEA7C6CB457D5476Bca",
  "extraData": "0x476574682f76312e302e312d38326566323666362f6c696e75782f676f312e34",
  "transactions": [
    {
      "hash": "0x3c9662b4a286d3165d61f8bff69f027126a0fa33d11d903f1bc0b50fa49b4136",
      "blockHash": "0x35ca56f2c820a3f8422c48241cf608834b150f222e0f6d0eb051bd15c5e0c597",
      "blockNumber": 105007,
      "transactionIndex": 0,
      "confirmations": null,
      "from": "0x2910543Af39abA0Cd09dBb2D50200b3E800A63D2",
      "gasPrice": {
        "_hex": "0xcce883fb9"
      },
      "gasLimit": {
        "_hex": "0x5208"
      },
      "to": "0x9741eA36d0157f11220bB5f00DB33419c79984B8",
      "value": {
        "_hex": "0x11c37937e08000"
      },
      "nonce": 1020,
      "data": "0x",
      "r": "0x4bce6c7a3046b4781a224a485b0d34706a783e958ba486cdc65fe5af37190dcc",
      "s": "0x0dc7facedbfab8f519397498703f8974e6c07294620d04d003962093dbc3102b",
      "v": 27,
      "creates": null,
      "raw": "0xf86d8203fc850cce883fb9825208949741ea36d0157f11220bb5f00db33419c79984b88711c37937e08000801ba04bce6c7a3046b4781a224a485b0d34706a783e958ba486cdc65fe5af37190dcca00dc7facedbfab8f519397498703f8974e6c07294620d04d003962093dbc3102b",
      "networkId": 0,
      "chainId": 0
    },
    {
      "hash": "0x70c0f7d24c8483345c71702e266a00a15f40106ce1d886597281e8e00b63b5c2",
      "blockHash": "0x35ca56f2c820a3f8422c48241cf608834b150f222e0f6d0eb051bd15c5e0c597",
      "blockNumber": 105007,
      "transactionIndex": 1,
      "confirmations": null,
      "from": "0x32Be343B94f860124dC4fEe278FDCBD38C102D88",
      "gasPrice": {
        "_hex": "0xcbd87f8e1"
      },
      "gasLimit": {
        "_hex": "0x5208"
      },
      "to": "0x888285790B0b6Cc7FDE84EDdd77A1b2B29089a99",
      "value": {
        "_hex": "0x56588a58fbe230000"
      },
      "nonce": 1161,
      "data": "0x",
      "r": "0xb282da19859037c74a27061d42f0b4f16ae1c9749649bd5257fd1286f3a3008b",
      "s": "0x7ff43e28bcff0af7941fdf2ac1cb93bf1bd6d6fc76c1e278ea2599b8942772d4",
      "v": 28,
      "creates": null,
      "raw": "0xf86f820489850cbd87f8e182520894888285790b0b6cc7fde84eddd77a1b2b29089a9989056588a58fbe230000801ca0b282da19859037c74a27061d42f0b4f16ae1c9749649bd5257fd1286f3a3008ba07ff43e28bcff0af7941fdf2ac1cb93bf1bd6d6fc76c1e278ea2599b8942772d4",
      "networkId": 0,
      "chainId": 0
    }
  ]
}