{
  "hash": "0x15ab917fe11aea3a7c247b09be4817600cf241f5e497a98a4df33c31d4f6f824",
  "parentHash": "0x79f1a0d7b38231b82f4a18a67efaf3ec6cd89099d5c72a6ab1e14577b8dcc5f0",
  "number": 68496,
  "timestamp": 1439288858,
  "nonce": "0x8a638f2f77b5f997",
  "difficulty": 2010384095132,
  "gasLimit": {
    "_hex": "0x2fefd8"
  },
  "gasUsed": {
    "_hex": "0x8e882"
  },
  "miner": "0x70C6b45fe0A5116E97B112B806A76E2F51E24413",
  "extraData": "0x476574682f76312e302e312f77696e646f77732f676f312e342e32",
  "transactions": [
    {
      "hash": "0x88b7ddae6c9cb818eef75baaa057003bc287700ed6e3f03d864210c6fc141e6c",
      "blockHash": "0x15ab917fe11aea3a7c247b09be4817600cf241f5e497a98a4df33c31d4f6f824",
      "blockNumber": 68496,
      "transactionIndex": 0,
      "confirmations": null,
      "from": "0x17580B766f7453525ca4C6A88b01b50570EA088C",
      "gasPrice": {
        "_hex": "0xdcc919ba6"
      },
      "gasLimit": {
        "_hex": "0x61a80"
      },
      "to": "0x5Fe5B7546D1628f7348B023A0393de1FC825A4fD",
      "value": {
        "_hex": "0x1bc16d674ec80000"
      },
      "nonce": 30,
      "data": "0xb595b8b50000000000000000000000000000000000000000000000000000000000000000",
      "r": "0x0f65e8881d0c1c5fdcc59bcade145b8dacfdbc02dc4ad26994d5a2c28077dcef",
      "s": "0x796c5370712e608e41a6a40319ea17c3c2d240aaf6db255bf23ed6ded1887d5e",
      "v": 28,
      "creates": null,
      "raw": "0xf8911e850dcc919ba683061a80945fe5b7546d1628f7348b023a0393de1fc825a4fd881bc16d674ec80000a4b595b8b500000000000000000000000000000000000000000000000000000000000000001ca00f65e8881d0c1c5fdcc59bcade145b8dacfdbc02dc4ad26994d5a2c28077dcefa0796c5370712e608e41a6a40319ea17c3c2d240aaf6db255bf23ed6ded1887d5e",
      "networkId": 0,
      "chainId": 0
    },
    {
      "hash": "0x77b4162607af4ce3457df67bf472607164cc68b6078a52d8f56a983a02448af6",
      "blockHash": "0x15ab917fe11aea3a7c247b09be4817600cf241f5e497a98a4df33c31d4f6f824",
      "blockNumber": 68496,
      "transactionIndex": 1,
      "confirmations": null,
      "from": "0xD441bA6FFe06b0BD76330aC8F9c2946dA2dF88A2",
      "gasPrice": {
        "_hex": "0xdbe7504d5"
      },
      "gasLimit": {
        "_hex": "0x15f90"
      },
      "to": "0xc597A5d92F5dC1137D847db733cfe02c6d209f13",
      "value": {
        "_hex": "0x2386f26fc10000"
      },
      "nonce": 0,
      "data": "0x",
      "r": "0x8464523443a38a98edc96ef4aceadbf5874b341b6b0f6b91948f70f263d13292",
      "s": "0x4640a7ceea4bd1e90247db81b5140b34a573be7baccb758bfc575ae912d7c904",
      "v": 28,
      "creates": null,
      "raw": "0xf86c80850dbe7504d583015f9094c597a5d92f5dc1137d847db733cfe02c6d209f13872386f26fc10000801ca08464523443a38a98edc96ef4aceadbf5874b341b6b0f6b91948f70f263d13292a04640a7ceea4bd1e90247db81b5140b34a573be7baccb758bfc575ae912d7c904",
      "networkId": 0,
      "chainId": 0
    },
    {
      "hash": "0xb1f5f1d03b4ec78ce40a38ba32d64458afa3aebb086ad959bc8ff8603ec8c9b1",
      "blockHash": "0x15ab917fe11aea3a7c247b09be4817600cf241f5e497a98a4df33c31d4f6f824",
      "blockNumber": 68496,
      "transactionIndex": 2,
      "confirmations": null,
      "from": "0xeF76c144553e10420Aa7FA2c205Db698AF95bed3",
      "gasPrice": {
        "_hex": "0xd6c150b06"
      },
      "gasLimit": {
        "_hex": "0x5208"
      },
      "to": "0x32Be343B94f860124dC4fEe278FDCBD38C102D88",
      "value": {
        "_hex": "0x13dc8e22fbb5c1000"
      },
      "nonce": 1,
      "data": "0x",
      "r": "0x5314353e835edc855e095ed38bc2875b48ce27eac58f770317d4d66350da11cc",
      "s": "0x7ec45408a87be5d6d674897a53166d9cf8550bb0c4536ad2d97eba02ae1ab44e",
      "v": 28,
      "creates": null,
      "raw": "0xf86d01850d6c150b068252089432be343b94f860124dc4fee278fdcbd38c102d8889013dc8e22fbb5c1000801ca05314353e835edc855e095ed38bc2875b48ce27eac58f770317d4d66350da11cca07ec45408a87be5d6d674897a53166d9cf8550bb0c4536ad2d97eba02ae1ab44e",
      "networkId": 0,
      "chainId": 0
    },
    {
      "hash": "0x34c93ca4e1d20a865fa9df31cf14599dc649f671acdbad7a502e33a74b1d55b1",
      "blockHash": "0x15ab917fe11aea3a7c247b09be4817600cf241f5e497a98a4df33c31d4f6f824",
      "blockNumber": 68496,
      "transactionIndex": 3,
      "confirmations": null,
      "from": "0xec9f117823fD3dB55418B8b63e6b02Dd49188B13",
      "gasPrice": {
        "_hex": "0xd41840fdb"
      },
      "gasLimit": {
        "_hex": "0x15f90"
      },
      "to": "0xE4bc843d8789F55f500d487ffcc451f4cbd25aec",
      "value": {
        "_hex": "0x38d7ea4c68000"
      },
      "nonce": 2,
      "data": "0x",
      "r": "0x5fa426c6ea98227cc8f3f50815d347406a2289b4752fda8129ed1789715b7420",
      "s": "0x702830122b8bd15876f3305758c102d823eebaee25d934c049b2453fc76c73e3",
      "v": 27,
      "creates": null,
      "raw": "0xf86c02850d41840fdb83015f9094e4bc843d8789f55f500d487ffcc451f4cbd25aec87038d7ea4c68000801ba05fa426c6ea98227cc8f3f50815d347406a2289b4752fda8129ed1789715b7420a0702830122b8bd15876f3305758c102d823eebaee25d934c049b2453fc76c73e3",
      "networkId": 0,
      "chainId": 0
    },
    {
      "hash": "0x6a64794c2c8ee98f7c0cacac7676100b03b47977880074b9ef4e8d880b5d58f0",
      "blockHash": "0x15ab917fe11aea3a7c247b09be4817600cf241f5e497a98a4df33c31d4f6f824",
      "blockNumber": 68496,
      "transactionIndex": 4,
      "confirmations": null,
      "from": "0xec9f117823fD3dB55418B8b63e6b02Dd49188B13",
      "gasPrice": {
        "_hex": "0xd41840fdb"
      },
      "gasLimit": {
        "_hex": "0x15f90"
      },
      "to": "0xE4bc843d8789F55f500d487ffcc451f4cbd25aec",
      "value": {
        "_hex": "0x38d7ea4c68000"
      },
      "nonce": 3,
      "data": "0x",
      "r": "0x351d55af532621779102a8f1ef1fff76832d892d291e01da785f85046efa6d32",
      "s": "0x595fe6733fa402594930769ef566e939d57768348d92d78688352b45034c24b6",
      "v": 27,
      "creates": null,
      "raw": "0xf86c03850d41840fdb83015f9094e4bc843d8789f55f500d487ffcc451f4cbd25aec87038d7ea4c68000801ba0351d55af532621779102a8f1ef1fff76832d892d291e01da785f85046efa6d32a0595fe6733fa402594930769ef566e939d57768348d92d78688352b45034c24b6",
      "networkId": 0,
      "chainId": 0
    },
    {
      "hash": "0x0a4cbacacde6b90c13b1b168d0e44797d8496df0cdbdd220e6c31e6e2293e990",
      "blockHash": "0x15ab917fe11aea3a7c247b09be4817600cf241f5e497a98a4df33c31d4f6f824",
      "blockNumber": 68496,
      "transactionIndex": 5,
      "confirmations": null,
      "from": "0xD9E130E9E97E7a12780ffF8CeBB17A7879aE1671",
      "gasPrice": {
        "_hex": "0xba43b7400"
      },
      "gasLimit": {
        "_hex": "0x5208"
      },
      "to": "0x434175690Dd817721A174A211911497d7714d282",
      "value": {
        "_hex": "0x7c58ada8ff2000"
      },
      "nonce": 1,
      "data": "0x",
      "r": "0x8348d0c439d0670a1d3abba2273da28eac53175f99cbd700f926dc28547e99f2",
      "s": "0x1554c1f9fa729a87ffd1266fff6fff976081e38a7d61401b159a0efd242d0965",
      "v": 28,
      "creates": null,
      "raw": "0xf86b01850ba43b740082520894434175690dd817721a174a211911497d7714d282877c58ada8ff2000801ca08348d0c439d0670a1d3abba2273da28eac53175f99cbd700f926dc28547e99f2a01554c1f9fa729a87ffd1266fff6fff976081e38a7d61401b159a0efd242d0965",
      "networkId": 0,
      "chainId": 0
    },
    {
      "hash": "0x806c82f78a6d36ed1c13c2bc59ff3c189df82e819dc476a3fc021b8dc3833178",
      "blockHash": "0x15ab917fe11aea3a7c247b09be4817600cf241f5e497a98a4df33c31d4f6f824",
      "blockNumber": 68496,
      "transactionIndex": 6,
      "confirmations": null,
      "from": "0x25874A25158c739e33B036B520Ef44781fCB6851",
      "gasPrice": {
        "_hex": "0xba43b7400"
      },
      "gasLimit": {
        "_hex": "0x5208"
      },
      "to": "0xf9dE08Da8f12a78c43a44d6e06eE83fb98E2af93",
      "value": {
        "_hex": "0x7c58ada8ff2000"
      },
      "nonce": 1,
      "data": "0x",
      "r": "0x19411100ad9d67e0f73f696f1f46be67ff0f501ac6596addcbdc55731f1df11d",
      "s": "0x400d4fdc5c68fbabbe3638fbbb8c77ee59423f2bbd39d2b8886086bfb4930d32",
      "v": 27,
      "creates": null,
      "raw": "0xf86b01850ba43b740082520894f9de08da8f12a78c43a44d6e06ee83fb98e2af93877c58ada8ff2000801ba019411100ad9d67e0f73f696f1f46be67ff0f501ac6596addcbdc55731f1df11da0400d4fdc5c68fbabbe3638fbbb8c77ee59423f2bbd39d2b8886086bfb4930d32",
      "networkId": 0,
      "chainId": 0
    },
    {
      "hash": "0x42e72e1c070c9bedf1fc8304e05186ddb65b3fcc5303719b74014c972dec1db4",
      "blockHash": "0x15ab917fe11aea3a7c247b09be4817600cf241f5e497a98a4df33c31d4f6f824",
      "blockNumber": 68496,
      "transactionIndex": 7,
      "confirmations": null,
      "from": "0x6747f922385c9a6F9cfDf095F34345257DD597bE",
      "gasPrice": {
        "_hex": "0xba43b7400"
      },
      "gasLimit": {
        "_hex": "0x5208"
      },
      "to": "0xf1650e37847266782596B5b4672DD5163bD4Bc3A",
      "value": {
        "_hex": "0x1fcbfa42bd6000"
      },
      "nonce": 111,
      "data": "0x",
      "r": "0xd7d8718a8a731215be8669c196dea0b9de82f45706e7078334393edfb1505467",
      "s": "0x30d535ba88518bc03a3a56a5f75f009ce13b2319537c7d7d7e1252eb5eb9a83d",
      "v": 27,
      "creates": null,
      "raw": "0xf86b6f850ba43b740082520894f1650e37847266782596b5b4672dd5163bd4bc3a871fcbfa42bd6000801ba0d7d8718a8a731215be8669c196dea0b9de82f45706e7078334393edfb1505467a030d535ba88518bc03a3a56a5f75f009ce13b2319537c7d7d7e1252eb5eb9a83d",
      "networkId": 0,
      "chainId": 0
    },
    {
      "hash": "0xc898e9d0a9a9e6ef2684a9aa7b0ca95f47ffceee635955869b3a99a797008b79",
      "blockHash": "0x15ab917fe11aea3a7c247b09be4817600cf241f5e497a98a4df33c31d4f6f824",
      "blockNumber": 68496,
      "transactionIndex": 8,
      "confirmations": null,
      "from": "0xe1dC98417a64FC281b5EB640aFa2cB815d000F98",
      "gasPrice": {
        "_hex": "0xba43b7400"
      },
      "gasLimit": {
        "_hex": "0x5208"
      },
      "to": "0x36893Eaa3BCFBfF9dA472cF38d82c80bdAEc7F04",
      "value": {
        "_hex": "0x7c58ada8ff2000"
      },
      "nonce": 1,
      "data": "0x",
      "r": "0xec4c14326f99bc17edb7c94373e97360afd242b52a8c1149f369a49801c929f7",
      "s": "0x3974c6ecfdee65ee6c3e9fa67eeae8a4b2c6745ed90741e66130203ebc76859b",
      "v": 28,
      "creates": null,
      "raw": "0xf86b01850ba43b74008252089436893eaa3bcfbff9da472cf38d82c80bdaec7f04877c58ada8ff2000801ca0ec4c14326f99bc17edb7c94373e97360afd242b52a8c1149f369a49801c929f7a03974c6ecfdee65ee6c3e9fa67eeae8a4b2c6745ed90741e66130203ebc76859b",
      "networkId": 0,
      "chainId": 0
    },
    {
      "hash": "0xf3df8abb654854ebd2ef6711ec44def5d2c6e4124ab42ddbce49254530be0b2e",
      "blockHash": "0x15ab917fe11aea3a7c247b09be4817600cf241f5e497a98a4df33c31d4f6f824",
      "blockNumber": 68496,
      "transactionIndex": 9,
      "confirmations": null,
      "from": "0xe5840632298478E26b99020D4d369E4b38AD706C",
      "gasPrice": {
        "_hex": "0xba43b7400"
      },
      "gasLimit": {
        "_hex": "0x5208"
      },
      "to": "0x9155044B423550B75dEc825d4907f165604EcD96",
      "value": {
        "_hex": "0x7c58ada8ff2000"
      },
      "nonce": 1,
      "data": "0x",
      "r": "0x5690794fc445cfaab8578a1f728fb24b0bc8394f570fa0aad070a1dceae53589",
      "s": "0x5d067fac2a8c50a9769b72bf20e42c0036d3505ecaae5688a8b33341772db129",
      "v": 28,
      "creates": null,
      "raw": "0xf86b01850ba43b7400825208949155044b423550b75dec825d4907f165604ecd96877c58ada8ff2000801ca05690794fc445cfaab8578a1f728fb24b0bc8394f570fa0aad070a1dceae53589a05d067fac2a8c50a9769b72bf20e42c0036d3505ecaae5688a8b33341772db129",
      "networkId": 0,
      "chainId": 0
    },
    {
      "hash": "0xdc12138c088d78e4d7d1248f6e2526c14137f55a0bb1ccf2a1e0bed65bb50c39",
      "blockHash": "0x15ab917fe11aea3a7c247b09be4817600cf241f5e497a98a4df33c31d4f6f824",
      "blockNumber": 68496,
      "transactionIndex": 10,
      "confirmations": null,
      "from": "0x8Da66621fB125FE2F55Ddf2ED054D33d6ABc9493",
      "gasPrice": {
        "_hex": "0xba43b7400"
      },
      "gasLimit": {
        "_hex": "0x5208"
      },
      "to": "0xc8a5864493a7a68a4B9A583b63A2D75B2411627E",
      "value": {
        "_hex": "0x7c58ada8ff2000"
      },
      "nonce": 1,
      "data": "0x",
      "r": "0x58b518424008e21b228638f86cf61b0b1de7fbd0fe55ee554fb9dbc8a0324e50",
      "s": "0x070f926301e898a91a55d0f2d855971cb0230e3b43c1a23ef6b10e3d9577cac3",
      "v": 28,
      "creates": null,
      "raw": "0xf86b01850ba43b740082520894c8a5864493a7a68a4b9a583b63a2d75b2411627e877c58ada8ff2000801ca058b518424008e21b228638f86cf61b0b1de7fbd0fe55ee554fb9dbc8a0324e50a0070f926301e898a91a55d0f2d855971cb0230e3b43c1a23ef6b10e3d9577cac3",
      "networkId": 0,
      "chainId": 0
    },
    {
      "hash": "0x0ec1b0940bb5a5b1730b2f6ab566949718d777eb8fa4ba606c9aa3977314a943",
      "blockHash": "0x15ab917fe11aea3a7c247b09be4817600cf241f5e497a98a4df33c31d4f6f824",
      "blockNumber": 68496,
      "transactionIndex": 11,
      "confirmations": null,
      "from": "0xE68d56Fa75ce6DCb92Da34655D9Be32fB19a687B",
      "gasPrice": {
        "_hex": "0xba43b7400"
      },
      "gasLimit": {
        "_hex": "0x5208"
      },
      "to": "0x1eBE6170Dd18E865a74a13eadb89e3F21E2D774e",
      "value": {
        "_hex": "0x7c58ada8ff2000"
      },
      "nonce": 1,
      "data": "0x",
      "r": "0x71a52252477c165d5717515ed93eb582af02f6c689b58cf3c81092abda2a81a5",
      "s": "0x4dadfbe40a404eb3ddfc34b7aeda8791460a7d7a45c684051b83810e5a4c670c",
      "v": 28,
      "creates": null,
      "raw": "0xf86b01850ba43b7400825208941ebe6170dd18e865a74a13eadb89e3f21e2d774e877c58ada8ff2000801ca071a52252477c165d5717515ed93eb582af02f6c689b58cf3c81092abda2a81a5a04dadfbe40a404eb3ddfc34b7aeda8791460a7d7a45c684051b83810e5a4c670c",
      "networkId": 0,
      "chainId": 0
    },
    {
      "hash": "0xfd750236045b13d667bf7afc63fe956b13513772097fcfbcc1b8358d0f498c77",
      "blockHash": "0x15ab917fe11aea3a7c247b09be4817600cf241f5e497a98a4df33c31d4f6f824",
      "blockNumber": 68496,
      "transactionIndex": 12,
      "confirmations": null,
      "from": "0x4C63286e51a0D4DaeFB54498D6b47a796391A301",
      "gasPrice": {
        "_hex": "0xba43b7400"
      },
      "gasLimit": {
        "_hex": "0x5208"
      },
      "to": "0xA295477b1e73B9BE97f78c726dC54126fD8F1E47",
      "value": {
        "_hex": "0x7c58ada8ff2000"
      },
      "nonce": 1,
      "data": "0x",
      "r": "0xc1b9d579add06e4561e5402dfc57869e58cb4c24a487e0d95cb252649268c421",
      "s": "0x2e770c3f3fdbb159dcbac2d4bdda455bc3b53df8a452fe8268f0cf36365f2d6a",
      "v": 28,
      "creates": null,
      "raw": "0xf86b01850ba43b740082520894a295477b1e73b9be97f78c726dc54126fd8f1e47877c58ada8ff2000801ca0c1b9d579add06e4561e5402dfc57869e58cb4c24a487e0d95cb252649268c421a02e770c3f3fdbb159dcbac2d4bdda455bc3b53df8a452fe8268f0cf36365f2d6a",
      "networkId": 0,
      "chainId": 0
    },
    {
      "hash": "0xfb408e88a6e032a8346d85776f8cd1a88cb13519cd674522aaa220659384b664",
      "blockHash": "0x15ab917fe11aea3a7c247b09be4817600cf241f5e497a98a4df33c31d4f6f824",
      "blockNumber": 68496,
      "transactionIndex": 13,
      "confirmations": null,
      "from": "0x551695C9CDfB5dfe4df041202c2FA8B52AF0a9B8",
      "gasPrice": {
        "_hex": "0xba43b7400"
      },
      "gasLimit": {
        "_hex": "0x5208"
      },
      "to": "0xE3EB58E02c4E8D5CB78a7c1a2329aB613711999f",
      "value": {
        "_hex": "0x7c58ada8ff2000"
      },
      "nonce": 1,
      "data": "0x",
      "r": "0x4ac4c803740683d087cb2e519491e0fe4daf2b6e957e3e9b19e20ab243f63220",
      "s": "0x148124382499a4cd3e4dcff31e548a5c62e27c63fd5595b4b948f3f2613e2ad6",
      "v": 28,
      "creates": null,
      "raw": "0xf86b01850ba43b740082520894e3eb58e02c4e8d5cb78a7c1a2329ab613711999f877c58ada8ff2000801ca04ac4c803740683d087cb2e519491e0fe4daf2b6e957e3e9b19e20ab243f63220a0148124382499a4cd3e4dcff31e548a5c62e27c63fd5595b4b948f3f2613e2ad6",
      "networkId": 0,
      "chainId": 0
    },
    {
      "hash": "0x06c5dbb0312e819fec781f248192b2db272c49aadf160dcfe9a554b7f7e3ebd6",
      "blockHash": "0x15ab917fe11aea3a7c247b09be4817600cf241f5e497a98a4df33c31d4f6f824",
      "blockNumber": 68496,
      "transactionIndex": 14,
      "confirmations": null,
      "from": "0x47aFb3C627D07d03779d4f42790a8EF00A31c630",
      "gasPrice": {
        "_hex": "0xba43b7400"
      },
      "gasLimit": {
        "_hex": "0x5208"
      },
      "to": "0x119b7AF8e98b1F44903373A62cB28aeB0a9BB72D",
      "value": {
        "_hex": "0x7c58ada8ff2000"
      },
      "nonce": 1,
      "data": "0x",
      "r": "0xcb4efde524db5ef4b7cdfc6d4455ea0e06c23a0e770eeb6be391369b9dd02f88",
      "s": "0x66bf5e82eaa8271af7bcf2e14b919a08bb3d3fb523577c776b5b4fb90f0c6ac6",
      "v": 28,
      "creates": null,
      "raw": "0xf86b01850ba43b740082520894119b7af8e98b1f44903373a62cb28aeb0a9bb72d877c58ada8ff2000801ca0cb4efde524db5ef4b7cdfc6d4455ea0e06c23a0e770eeb6be391369b9dd02f88a066bf5e82eaa8271af7bcf2e14b919a08bb3d3fb523577c776b5b4fb90f0c6ac6",
      "networkId": 0,
      "chainId": 0
    },
    {
      "hash": "0x56a59c7fff641dafbddf6d816f028aa1de364de33df1c63d0e02e23197ec4671",
      "blockHash": "0x15ab917fe11aea3a7c247b09be4817600cf241f5e497a98a4df33c31d4f6f824",
      "blockNumber": 68496,
      "transactionIndex": 15,
      "confirmations": null,
      "from": "0x332B63855d80aa20437f94Ee194BEd5a32F28C1A",
      "gasPrice": {
        "_hex": "0xba43b7400"
      },
      "gasLimit": {
        "_hex": "0x5208"
      },
      "to": "0x4a17DA8eD09F59309A0749645A9dCcaDE7a7616F",
      "value": {
        "_hex": "0x7c58ada8ff2000"
      },
      "nonce": 1,
      "data": "0x",
      "r": "0x9309281192d3a748b3aacd3847f0711a5bed39fc6419e11eef38828eaa39d801",
      "s": "0x5691cd81f007eeb3c57067897fd5d0c9af54928058d530017ec98539c049d1c0",
      "v": 28,
      "creates": null,
      "raw": "0xf86b01850ba43b7400825208944a17da8ed09f59309a0749645a9dccade7a7616f877c58ada8ff2000801ca09309281192d3a748b3aacd3847f0711a5bed39fc6419e11eef38828eaa39d801a05691cd81f007eeb3c57067897fd5d0c9af54928058d530017ec98539c049d1c0",
      "networkId": 0,
      "chainId": 0
    },
    {
      "hash": "0x41b62c3863d100bc6d2000f689aae99e32810e45ddeb0471f835856c324dc8cd",
      "blockHash": "0x15ab917fe11aea3a7c247b09be4817600cf241f5e497a98a4df33c31d4f6f824",
      "blockNumber": 68496,
      "transactionIndex": 16,
      "confirmations": null,
      "from": "0xb2572E8aE3865F473639A024e1F138ee76e246b3",
      "gasPrice": {
        "_hex": "0xba43b7400"
      },
      "gasLimit": {
        "_hex": "0x5208"
      },
      "to": "0xC861AC336241059Eeda457b29ad91d80555AF4f5",
      "value": {
        "_hex": "0x7c58ada8ff2000"
      },
      "nonce": 1,
      "data": "0x",
      "r": "0x685904b51d9dc22e4825a2d8606ce7efb16c7db558758c949e20e8e2910c7f68",
      "s": "0x55c08fca31f0f002abfcd896e9771e5af3baf510871d34ffcfdd71c69c07c3d9",
      "v": 27,
      "creates": null,
      "raw": "0xf86b01850ba43b740082520894c861ac336241059eeda457b29ad91d80555af4f5877c58ada8ff2000801ba0685904b51d9dc22e4825a2d8606ce7efb16c7db558758c949e20e8e2910c7f68a055c08fca31f0f002abfcd896e9771e5af3baf510871d34ffcfdd71c69c07c3d9",
      "networkId": 0,
      "chainId": 0
    },
    {
      "hash": "0xf2fe2b8eddae2c08de3aad635758cd80582c9c6f2b1132e4b6ed33a44dc3fd50",
      "blockHash": "0x15ab917fe11aea3a7c247b09be4817600cf241f5e497a98a4df33c31d4f6f824",
      "blockNumber": 68496,
      "transactionIndex": 17,
      "confirmations": null,
      "from": "0x0640639A01E5456f6813E7f92c4d1b61aaBd572A",
      "gasPrice": {
        "_hex": "0xba43b7400"
      },
      "gasLimit": {
        "_hex": "0x5208"
      },
      "to": "0x892B070d2E947ea7538CD1387842F4043Bbd6A6c",
      "value": {
        "_hex": "0x7c58ada8ff2000"
      },
      "nonce": 1,
      "data": "0x",
      "r": "0x7d532888e30cf0696aed6c12e16b855fa1b15111c08f11da609c5091825489d3",
      "s": "0x1418bc546de0e9bfc670227a25dc36b7fc15fff3d7c0560d0ef7c9fed788cd58",
      "v": 27,
      "creates": null,
      "raw": "0xf86b01850ba43b740082520894892b070d2e947ea7538cd1387842f4043bbd6a6c877c58ada8ff2000801ba07d532888e30cf0696aed6c12e16b855fa1b15111c08f11da609c5091825489d3a01418bc546de0e9bfc670227a25dc36b7fc15fff3d7c0560d0ef7c9fed788cd58",
      "networkId": 0,
      "chainId": 0
    },
    {
      "hash": "0xa4b2006328e0e2e94c2f4d0634826bec7554a83b7faeaad03f5ffce477c10d9f",
      "blockHash": "0x15ab917fe11aea3a7c247b09be4817600cf241f5e497a98a4df33c31d4f6f824",
      "blockNumber": 68496,
      "transactionIndex": 18,
      "confirmations": null,
      "from": "0xE2E4B3AFD1edf20A57da70DE5615877BAb92249B",
      "gasPrice": {
        "_hex": "0xba43b7400"
      },
      "gasLimit": {
        "_hex": "0x5208"
      },
      "to": "0x4009c00888E5f60a97aE086Dd460c0eC184a8E20",
      "value": {
        "_hex": "0x7c58ada8ff2000"
      },
      "nonce": 1,
      "data": "0x",
      "r": "0x5eafbc47e393cc9070cf5de38481c921c0d69c3c73889170e7e7115420cbd033",
      "s": "0x5d1c224d89273fed0ddc0be75f6a740019fe6afd3919bb482d602957938baaad",
      "v": 27,
      "creates": null,
      "raw": "0xf86b01850ba43b7400825208944009c00888e5f60a97ae086dd460c0ec184a8e20877c58ada8ff2000801ba05eafbc47e393cc9070cf5de38481c921c0d69c3c73889170e7e7115420cbd033a05d1c224d89273fed0ddc0be75f6a740019fe6afd3919bb482d602957938baaad",
      "networkId": 0,
      "chainId": 0
    },
    {
      "hash": "0xe1e709ea4f442334805ebcf4bb27a9c609c238cd868010e904b5ace7197552ac",
      "blockHash": "0x15ab917fe11aea3a7c247b09be4817600cf241f5e497a98a4df33c31d4f6f824",
      "blockNumber": 68496,
      "transactionIndex": 19,
      "confirmations": null,
      "from": "0x6ebdc80032C59CB05b8AED75DD5AB8abe205DdcA",
      "gasPrice": {
        "_hex": "0xba43b7400"
      },
      "gasLimit": {
        "_hex": "0x5208"
      },
      "to": "0xa0563131B6F8343513Aff2B3AE336C325aA67f89",
      "value": {
        "_hex": "0x7c58ada8ff2000"
      },
      "nonce": 1,
      "data": "0x",
      "r": "0xdf7ad31a82a5483273d27c2aab91d034e3ccbdf2eaa8dc8ada8ae1cb9da37531",
      "s": "0x47ba8ef570a0227f84600752b6fa17f433704784f9f0725f8f21a59d8121d5c3",
      "v": 27,
      "creates": null,
      "raw": "0xf86b01850ba43b740082520894a0563131b6f8343513aff2b3ae336c325aa67f89877c58ada8ff2000801ba0df7ad31a82a5483273d27c2aab91d034e3ccbdf2eaa8dc8ada8ae1cb9da37531a047ba8ef570a0227f84600752b6fa17f433704784f9f0725f8f21a59d8121d5c3",
      "networkId": 0,
      "chainId": 0
    },
    {
      "hash": "0xdaa0cc94c11e8b8b25bab526f7c22a5f57d6fb2b15131c08b1edd84f627c63bd",
      "blockHash": "0x15ab917fe11aea3a7c247b09be4817600cf241f5e497a98a4df33c31d4f6f824",
      "blockNumber": 68496,
      "transactionIndex": 20,
      "confirmations": null,
      "from": "0x93552d723553Ba30f3ec9618aa2a27d379789B09",
      "gasPrice": {
        "_hex": "0xba43b7400"
      },
      "gasLimit": {
        "_hex": "0x5208"
      },
      "to": "0x9bFAB56856DBf8EC5A00C61D9B0664543A5573e7",
      "value": {
        "_hex": "0x7c58ada8ff2000"
      },
      "nonce": 1,
      "data": "0x",
      "r": "0x78bdf103d49315d1d5f65aee964500a96e24f8b997095b2524554e5f056525a5",
      "s": "0x2a642584d8901cdd9960df28aa9e4492023eb6d0f52342cb89465b1fd048bcd3",
      "v": 27,
      "creates": null,
      "raw": "0xf86b01850ba43b7400825208949bfab56856dbf8ec5a00c61d9b0664543a5573e7877c58ada8ff2000801ba078bdf103d49315d1d5f65aee964500a96e24f8b997095b2524554e5f056525a5a02a642584d8901cdd9960df28aa9e4492023eb6d0f52342cb89465b1fd048bcd3",
      "networkId": 0,
      "chainId": 0
    },
    {
      "hash": "0xaa82f0fca0d7b4fa1ae87f5233e075dfeb3c3a2761c75589dfb06a4a589fc74a",
      "blockHash": "0x15ab917fe11aea3a7c247b09be4817600cf241f5e497a98a4df33c31d4f6f824",
      "blockNumber": 68496,
      "transactionIndex": 21,
      "confirmations": null,
      "from": "0x85B4A082dD354f958b617d2706530E72cb41B869",
      "gasPrice": {
        "_hex": "0xba43b7400"
      },
      "gasLimit": {
        "_hex": "0x5208"
      },
      "to": "0x835358639D25707FC1C956B234368e6B84A1D73E",
      "value": {
        "_hex": "0x7c58ada8ff2000"
      },
      "nonce": 1,
      "data": "0x",
      "r": "0xad642a837ce1b5283f5be33bbfa42ae0f88269df00366ca0d7b80579aaebda16",
      "s": "0x0c5662f6c13204dd5da9e4302a1760ec9d72e6bd87ba12c5e2917318de72f54c",
      "v": 28,
      "creates": null,
      "raw": "0xf86b01850ba43b740082520894835358639d25707fc1c956b234368e6b84a1d73e877c58ada8ff2000801ca0ad642a837ce1b5283f5be33bbfa42ae0f88269df00366ca0d7b80579aaebda16a00c5662f6c13204dd5da9e4302a1760ec9d72e6bd87ba12c5e2917318de72f54c",
      "networkId": 0,
      "chainId": 0
    },
    {
      "hash": "0x8a81cb0e117fd0c098cca43404d8dd7fbe1d6d893df3d48c5ab18b961d35a23e",
      "blockHash": "0x15ab917fe11aea3a7c247b09be4817600cf241f5e497a98a4df33c31d4f6f824",
      "blockNumber": 68496,
      "transactionIndex": 22,
      "confirmations": null,
      "from": "0x55d4F72dDDef92d9704AFAA556C4341Ba3981d86",
      "gasPrice": {
        "_hex": "0xba43b7400"
      },
      "gasLimit": {
        "_hex": "0x5208"
      },
      "to": "0x2a1BfdD1aE784B85c35Efb1Eed77571220C3c174",
      "value": {
        "_hex": "0x7c58ada8ff2000"
      },
      "nonce": 1,
      "data": "0x",
      "r": "0x18455c31ac6cc2713299020a01204dcf7e696832e048e757c42e1deeb1d3daaa",
      "s": "0x0e210e2d4ab0c228e0432b44db0b30c59da9236ebd48e9dbd39495096e1b3d02",
      "v": 28,
      "creates": null,
      "raw": "0xf86b01850ba43b7400825208942a1bfdd1ae784b85c35efb1eed77571220c3c174877c58ada8ff2000801ca018455c31ac6cc2713299020a01204dcf7e696832e048e757c42e1deeb1d3daaaa00e210e2d4ab0c228e0432b44db0b30c59da9236ebd48e9dbd39495096e1b3d02",
      "networkId": 0,
      "chainId": 0
    },
    {
      "hash": "0x9b7f4cddd834c3c45b00df4771ddf5dc2035c0974bc9c845c29084454e3c52aa",
      "blockHash": "0x15ab917fe11aea3a7c247b09be4817600cf241f5e497a98a4df33c31d4f6f824",
      "blockNumber": 68496,
      "transactionIndex": 23,
      "confirmations": null,
      "from": "0xcB193f99144a1Ff865e6e0C8aaB08a55DC681e9f",
      "gasPrice": {
        "_hex": "0xba43b7400"
      },
      "gasLimit": {
        "_hex": "0x5208"
      },
      "to": "0x95da327A5395BF3cB2320AddBb6dF56Ddd24DF13",
      "value": {
        "_hex": "0x7c58ada8ff2000"
      },
      "nonce": 1,
      "data": "0x",
      "r": "0xbc24d1069730a954648237449c128f03e160b4595a3771aa54f58c1f80f2712f",
      "s": "0x41d5d6f259f758a532a302fab1a95688e80f2201b9c7b761165404d702b7744a",
      "v": 28,
      "creates": null,
      "raw": "0xf86b01850ba43b74008252089495da327a5395bf3cb2320addbb6df56ddd24df13877c58ada8ff2000801ca0bc24d1069730a954648237449c128f03e160b4595a3771aa54f58c1f80f2712fa041d5d6f259f758a532a302fab1a95688e80f2201b9c7b761165404d702b7744a",
      "networkId": 0,
      "chainId": 0
    },
    {
      "hash": "0xc6596031b6c4084a262d0a738b0eef918f89f061c2902fec39ce01587b6d9cd8",
      "blockHash": "0x15ab917fe11aea3a7c247b09be4817600cf241f5e497a98a4df33c31d4f6f824",
      "blockNumber": 68496,
      "transactionIndex": 24,
      "confirmations": null,
      "from": "0x0ca308214229531b821d5766Ea5891E1662DfcDF",
      "gasPrice": {
        "_hex": "0xba43b7400"
      },
      "gasLimit": {
        "_hex": "0x5208"
      },
      "to": "0x8749f57068557fd510fcF6F822C3045d2af0b629",
      "value": {
        "_hex": "0x7c58ada8ff2000"
      },
      "nonce": 1,
      "data": "0x",
      "r": "0x2b8ebd33f5f0d998d74bf1e13f49c849c1c6d1c5a20a550e2f2cf7b841d33fde",
      "s": "0x31e7aee87ba56e417577d6a927931e38f17d5fa03bfcbe323f0f3c3ab88864ec",
      "v": 28,
      "creates": null,
      "raw": "0xf86b01850ba43b7400825208948749f57068557fd510fcf6f822c3045d2af0b629877c58ada8ff2000801ca02b8ebd33f5f0d998d74bf1e13f49c849c1c6d1c5a20a550e2f2cf7b841d33fdea031e7aee87ba56e417577d6a927931e38f17d5fa03bfcbe323f0f3c3ab88864ec",
      "networkId": 0,
      "chainId": 0
    },
    {
      "hash": "0x3af73eea802fdf98fcd3952acc37503beb80f3fb487a5bbc0d93df988dbc43df",
      "blockHash": "0x15ab917fe11aea3a7c247b09be4817600cf241f5e497a98a4df33c31d4f6f824",
      "blockNumber": 68496,
      "transactionIndex": 25,
      "confirmations": null,
      "from": "0x0190AdC609Bfb5C19C6d6EFD24AF0e8eA6dB8EAd",
      "gasPrice": {
        "_hex": "0xba43b7400"
      },
      "gasLimit": {
        "_hex": "0x5208"
      },
      "to": "0xB994F4c4b5eAA3B11d1469b72d9F00694825DCe6",
      "value": {
        "_hex": "0x7c58ada8ff2000"
      },
      "nonce": 1,
      "data": "0x",
      "r": "0x1d6960e5532faa2eef3061140da135016099eee32b071f8995ab63452d8ea3a7",
      "s": "0x43f02546b99883f1e7f9ee32ee05b2ac680300eb807f4cc86a2245a117969673",
      "v": 28,
      "creates": null,
      "raw": "0xf86b01850ba43b740082520894b994f4c4b5eaa3b11d1469b72d9f00694825dce6877c58ada8ff2000801ca01d6960e5532faa2eef3061140da135016099eee32b071f8995ab63452d8ea3a7a043f02546b99883f1e7f9ee32ee05b2ac680300eb807f4cc86a2245a117969673",
      "networkId": 0,
      "chainId": 0
    },
    {
      "hash": "0xc4c877aae5bb73167d04fe0c77665e37182c373513a0cd72fd2d5247a1e33d64",
      "blockHash": "0x15ab917fe11aea3a7c247b09be4817600cf241f5e497a98a4df33c31d4f6f824",
      "blockNumber": 68496,
      "transactionIndex": 26,
      "confirmations": null,
      "from": "0x633d179E3537adE1cdf4393cfc4CF9746146a63F",
      "gasPrice": {
        "_hex": "0xba43b7400"
      },
      "gasLimit": {
        "_hex": "0x5208"
      },
      "to": "0xEE37E31bD888eCb4a3705ca9A3085EeC654f1121",
      "value": {
        "_hex": "0x7c58ada8ff2000"
      },
      "nonce": 1,
      "data": "0x",
      "r": "0x3a852592494dc1eff25e480b2fcbde425f98a034accb41ca175f3e1602d3d6ed",
      "s": "0x69aa87bf85c57e5d6cf714e84dd76e694f24343542f3a5fafc0e056d85341bc3",
      "v": 27,
      "creates": null,
      "raw": "0xf86b01850ba43b740082520894ee37e31bd888ecb4a3705ca9a3085eec654f1121877c58ada8ff2000801ba03a852592494dc1eff25e480b2fcbde425f98a034accb41ca175f3e1602d3d6eda069aa87bf85c57e5d6cf714e84dd76e694f24343542f3a5fafc0e056d85341bc3",
      "networkId": 0,
      "chainId": 0
    }
  ]
}