{
  "hash": "0x017685281a11f6514538b113d62c7efb9852922ff308f4596d2c37c6f4717214",
  "parentHash": "0xd7a6cfddb3615bf35206461b08cca260f1514b4352e899fa3cf723b6d84f02b3",
  "number": 102000,
  "timestamp": 1439831169,
  "nonce": "0xee4105b65d161083",
  "difficulty": 3920451636404,
  "gasLimit": {
    "_hex": "0x2fefd8"
  },
  "gasUsed": {
    "_hex": "0x5208"
  },
  "miner": "0xe6A7a1d47ff21B6321162AEA7C6CB457D5476Bca",
  "extraData": "0x476574682f76312e302e312d38326566323666362f6c696e75782f676f312e34",
  "transactions": [
    {
      "hash": "0x3cfcdc56f1ecf4aef8b95dddc9f5b727593b56238bfad7b1932efdfdf9e49fcd",
      "blockHash": "0x017685281a11f6514538b113d62c7efb9852922ff308f4596d2c37c6f4717214",
      "blockNumber": 102000,
      "transactionIndex": 0,
      "confirmations": null,
      "from": "0xD9666150A9dA92d9108198a4072970805a8B3428",
      "gasPrice": {
        "_hex": "0xce52b27b5"
      },
      "gasLimit": {
        "_hex": "0x5208"
      },
      "to": "0x32Be343B94f860124dC4fEe278FDCBD38C102D88",
      "value": {
        "_hex": "0x455f6fb3eec11400"
      },
      "nonce": 54,
      "data": "0x",
      "r": "0xec5b17e102048e5e52ab779f4ab757634c5aa009dd595aa9575bd55e8d2b7d87",
      "s": "0x7021d4517c8a5f92872a7b24d59d47631a5dfa2f5fe340708fc50abf2c817345",
      "v": 27,
      "creates": null,
      "raw": "0xf86c36850ce52b27b58252089432be343b94f860124dc4fee278fdcbd38c102d8888455f6fb3eec11400801ba0ec5b17e102048e5e52ab779f4ab757634c5aa009dd595aa9575bd55e8d2b7d87a07021d4517c8a5f92872a7b24d59d47631a5dfa2f5fe340708fc50abf2c817345",
      "networkId": 0,
      "chainId": 0
    }
  ]
}