{
  "hash": "0x6b4373c97a2495167d0d0066028243e1220ed8c1f015280d63b53b6c694cb478",
  "parentHash": "0x9d8ae16dcf8683cfe1db557d5f6b6c2ac2e4f1aaf0387a6bce279b6545638a55",
  "number": 68763,
  "timestamp": 1439293352,
  "nonce": "0x71639e1ab88a7eb2",
  "difficulty": 2021146775989,
  "gasLimit": {
    "_hex": "0x2fefd8"
  },
  "gasUsed": {
    "_hex": "0xe608"
  },
  "miner": "0x785ffdDd5cE55c6DF963f345e68d3F2024E5Acb1",
  "extraData": "0x476574682f4d69676e6f7474652f76312e302e312f6c696e75782f676f312e34",
  "transactions": [
    {
      "hash": "0xa7bd0a8928d85d05b49f5453ef2e460ca442d6803fce3128bf934a4baa6bf08f",
      "blockHash": "0x6b4373c97a2495167d0d0066028243e1220ed8c1f015280d63b53b6c694cb478",
      "blockNumber": 68763,
      "transactionIndex": 0,
      "confirmations": null,
      "from": "0x32Be343B94f860124dC4fEe278FDCBD38C102D88",
      "gasPrice": {
        "_hex": "0xcf7addd9c"
      },
      "gasLimit": {
        "_hex": "0x5208"
      },
      "to": "0xb382dCcb66709711E2ACB84dD540F2DfFD259fed",
      "value": {
        "_hex": "0x2132ac7e2c862400"
      },
      "nonce": 230,
      "data": "0x",
      "r": "0xabb2aaeca108eb4b8501449b320798320757f18f4eb43506a15c13a4ab22a4db",
      "s": "0x733927b774f60ad66c9290b2f5e3ae3ea8e8694654362c675968645fc8c99fa7",
      "v": 28,
      "creates": null,
      "raw": "0xf86d81e6850cf7addd9c82520894b382dccb66709711e2acb84dd540f2dffd259fed882132ac7e2c862400801ca0abb2aaeca108eb4b8501449b320798320757f18f4eb43506a15c13a4ab22a4dba0733927b774f60ad66c9290b2f5e3ae3ea8e8694654362c675968645fc8c99fa7",
      "networkId": 0,
      "chainId": 0
    },
    {
      "hash": "0xe8c8907caa03b71e98db218dfc799238e7b6cca8f8c3922a2c5a61d7e7b99cdb",
      "blockHash": "0x6b4373c97a2495167d0d0066028243e1220ed8c1f015280d63b53b6c694cb478",
      "blockNumber": 68763,
      "transactionIndex": 1,
      "confirmations": null,
      "from": "0xc8ebccC5F5689Fa8659d83713341e5aD19349448",
      "gasPrice": {
        "_hex": "0xcb13c1a02"
      },
      "gasLimit": {
        "_hex": "0x61a80"
      },
      "to": "0x5Fe5B7546D1628f7348B023A0393de1FC825A4fD",
      "value": {
        "_hex": "0x1bc16d674ec80000"
      },
      "nonce": 45,
      "data": "0xb595b8b50000000000000000000000000000000000000000000000000000000000000001",
      "r": "0x95e6f9b0f574edc6bc7a88a481f87fea6a7550477a834bc973d90687ccee8118",
      "s": "0x52474403c3cd79fbdfa916b4e260806b519cdbf25fc676cc63d8a5819a0d9375",
      "v": 28,
      "creates": null,
      "raw": "0xf8912d850cb13c1a0283061a80945fe5b7546d1628f7348b023a0393de1fc825a4fd881bc16d674ec80000a4b595b8b500000000000000000000000000000000000000000000000000000000000000011ca095e6f9b0f574edc6bc7a88a481f87fea6a7550477a834bc973d90687ccee8118a052474403c3cd79fbdfa916b4e260806b519cdbf25fc676cc63d8a5819a0d9375",
      "networkId": 0,
      "chainId": 0
    }
  ]
}