{
  "hash": "0x69ef72543b57cc560cb57776cf83395289f202693628c5ebeca9a4d8a2c04bed",
  "parentHash": "0xb964f2e94f69ee69f2d9c148c2cd37650a3bc556c506c2f7a0305d50efad862a",
  "number": 92093,
  "timestamp": 1439666690,
  "nonce": "0xb48482e9b3e27ef4",
  "difficulty": 3472341893754,
  "gasLimit": {
    "_hex": "0x2fefd8"
  },
  "gasUsed": {
    "_hex": "0x5208"
  },
  "miner": "0x007f7f58D3eb5b7510A301eCC749FC1fCDDBE14D",
  "extraData": "0x476574682f76312e302e312f77696e646f77732f676f312e342e32",
  "transactions": [
    {
      "hash": "0xad05e9c0e049213d3207f519081a73b4099b534f2e25ed25f26ae52655d8d292",
      "blockHash": "0x69ef72543b57cc560cb57776cf83395289f202693628c5ebeca9a4d8a2c04bed",
      "blockNumber": 92093,
      "transactionIndex": 0,
      "confirmations": null,
      "from": "0x2910543Af39abA0Cd09dBb2D50200b3E800A63D2",
      "gasPrice": {
        "_hex": "0xd05601a3f"
      },
      "gasLimit": {
        "_hex": "0x5208"
      },
      "to": "0xB0bA9ec050654A083c88777e30261F815cB0A3B7",
      "value": {
        "_hex": "0xc404f87208e678000"
      },
      "nonce": 821,
      "data": "0x",
      "r": "0xe93f69dfe231b39f7714ff8a966531f5ab69d7473a075ee92f131b2c45d2856a",
      "s": "0x710605e2a3ff408570aff002940bb14a717b186e9c55905e07ed3245f542c49d",
      "v": 28,
      "creates": null,
      "raw": "0xf86f820335850d05601a3f82520894b0ba9ec050654a083c88777e30261f815cb0a3b7890c404f87208e678000801ca0e93f69dfe231b39f7714ff8a966531f5ab69d7473a075ee92f131b2c45d2856aa0710605e2a3ff408570aff002940bb14a717b186e9c55905e07ed3245f542c49d",
      "networkId": 0,
      "chainId": 0
    }
  ]
}