{
  "hash": "0xc56bac5ad7dccffaa2601f8ed928de20da9479ed463b822549b02def593da1e1",
  "parentHash": "0xb63567e3283c715386fbde5a8a13b09e472012ef2f5621e861f06234ee874997",
  "number": 79831,
  "timestamp": 1439475841,
  "nonce": "0xbc06cc6035525341",
  "difficulty": 2352940863935,
  "gasLimit": {
    "_hex": "0x2fe3db"
  },
  "gasUsed": {
    "_hex": "0x5208"
  },
  "miner": "0xa6BDc31c431B8F97848c9D60cbbe9660dc450eB7",
  "extraData": "0x",
  "transactions": [
    {
      "hash": "0x808747d267fb57e3218880dad8b23566a635cb9e8f1689e894eb0e827881559b",
      "blockHash": "0xc56bac5ad7dccffaa2601f8ed928de20da9479ed463b822549b02def593da1e1",
      "blockNumber": 79831,
      "transactionIndex": 0,
      "confirmations": null,
      "from": "0xf70328Ef97625Fe745faA49ee0F9D4Aa3b0dFb69",
      "gasPrice": {
        "_hex": "0xde06bd3c8"
      },
      "gasLimit": {
        "_hex": "0x15f90"
      },
      "to": "0x873fB972fb3F75472404127d84FeF54DeA200059",
      "value": {
        "_hex": "0x2b5e3af16b18800000"
      },
      "nonce": 1,
      "data": "0x",
      "r": "0xf0078ef7af86c39b3c9133d537ea198b6e6530b73d82566e8fe1ba3f2035e136",
      "s": "0x5c057a83959676f1a7d99fd4c8af6e70213c3ae54872319c2a241e2744c6d0da",
      "v": 27,
      "creates": null,
      "raw": "0xf86e01850de06bd3c883015f9094873fb972fb3f75472404127d84fef54dea200059892b5e3af16b18800000801ba0f0078ef7af86c39b3c9133d537ea198b6e6530b73d82566e8fe1ba3f2035e136a05c057a83959676f1a7d99fd4c8af6e70213c3ae54872319c2a241e2744c6d0da",
      "networkId": 0,
      "chainId": 0
    }
  ]
}