{
  "hash": "0x63a83d54613074fec2040aea6914e17289cf5f79bbf058db5b54713a09a73e66",
  "parentHash": "0x9651acbc8dc19863b5f728d067b11498d4dd249f51d5fa0866d06f4a4379f14c",
  "number": 46735,
  "timestamp": 1438928307,
  "nonce": "0x30ec24fa15291029",
  "difficulty": 1453914723112,
  "gasLimit": {
    "_hex": "0x7565"
  },
  "gasUsed": {
    "_hex": "0x5208"
  },
  "miner": "0x2C674A948592B20a4B775E1a3991Db043E6CF0FE",
  "extraData": "0x476574682f76312e302e312d38326566323666362f6c696e75782f676f312e34",
  "transactions": [
    {
      "hash": "0x5327e9f1e58b2337b540f01432cbd45ce0c9be1433d38ff943230fba0471c78a",
      "blockHash": "0x63a83d54613074fec2040aea6914e17289cf5f79bbf058db5b54713a09a73e66",
      "blockNumber": 46735,
      "transactionIndex": 0,
      "confirmations": null,
      "from": "0x17f8255F73211f9129a7E93250e8B7DF5D7F752d",
      "gasPrice": {
        "_hex": "0xd9f43c16a"
      },
      "gasLimit": {
        "_hex": "0x5208"
      },
      "to": "0x32Be343B94f860124dC4fEe278FDCBD38C102D88",
      "value": {
        "_hex": "0x6c6b8f09eb2ad40000"
      },
      "nonce": 1,
      "data": "0x",
      "r": "0x2d2926098bf379a6fe377917c938e61cbad3c5f3ad7b9fced56ee2a5cbe8196b",
      "s": "0x665bf9ff40847a8c96ee6dcd34513d5b35069ed00e35beaa4b8cc1e85a256e3b",
      "v": 27,
      "creates": null,
      "raw": "0xf86d01850d9f43c16a8252089432be343b94f860124dc4fee278fdcbd38c102d88896c6b8f09eb2ad40000801ba02d2926098bf379a6fe377917c938e61cbad3c5f3ad7b9fced56ee2a5cbe8196ba0665bf9ff40847a8c96ee6dcd34513d5b35069ed00e35beaa4b8cc1e85a256e3b",
      "networkId": 0,
      "chainId": 0
    }
  ]
}