{
  "hash": "0xea52a98db4304ace6f72d749d2b1e4bbcf1767dd7601131eca1b969bb606c4be",
  "parentHash": "0x43c302606de32473787fc79c051c92360bab4d9c2fbd57bcc6ee2ab20a715822",
  "number": 104680,
  "timestamp": 1439873674,
  "nonce": "0xa6aecdcde319e7ec",
  "difficulty": 4359392446546,
  "gasLimit": {
    "_hex": "0x2fefd8"
  },
  "gasUsed": {
    "_hex": "0x520c"
  },
  "miner": "0xe6A7a1d47ff21B6321162AEA7C6CB457D5476Bca",
  "extraData": "0x476574682f76312e302e312d38326566323666362f6c696e75782f676f312e34",
  "transactions": [
    {
      "hash": "0xe65c69cf12c7511222c2c3ca71d1091c136db7e0d0cbf7842d9b2f75845cbf28",
      "blockHash": "0xea52a98db4304ace6f72d749d2b1e4bbcf1767dd7601131eca1b969bb606c4be",
      "blockNumber": 104680,
      "transactionIndex": 0,
      "confirmations": null,
      "from": "0xb9836ec1f42Bd48331bceaedb74a6Bcdc22832bD",
      "gasPrice": {
        "_hex": "0xe16043be9"
      },
      "gasLimit": {
        "_hex": "0x7530"
      },
      "to": "0x7cB57B5A97eAbe94205C07890BE4c1aD31E486A8",
      "value": {
        "_hex": "0x38d7ea4c68000"
      },
      "nonce": 1,
      "data": "0x00",
      "r": "0x558286ea9ed2740eb49fa9fbeab779f9a7b57530ad8a9cfdcad6e978d294ac58",
      "s": "0x30091208216bab4997733799b028ed860d35e6b81f75f6023689082e436a526a",
      "v": 28,
      "creates": null,
      "raw": "0xf86b01850e16043be9827530947cb57b5a97eabe94205c07890be4c1ad31e486a887038d7ea4c68000001ca0558286ea9ed2740eb49fa9fbeab779f9a7b57530ad8a9cfdcad6e978d294ac58a030091208216bab4997733799b028ed860d35e6b81f75f6023689082e436a526a",
      "networkId": 0,
      "chainId": 0
    }
  ]
}