{
  "hash": "0x7de5a11de81339fd7ea513814bdab36c787c935efe0f5cf5eba1cdc0d0950eaf",
  "parentHash": "0x1cb17043a0393eec79ac4adb10cec32370bd65a4b0eaff89a6f0e987a306df84",
  "number": 49125,
  "timestamp": 1438968535,
  "nonce": "0x8553d3517d575b2e",
  "difficulty": 1474948768462,
  "gasLimit": {
    "_hex": "0x268af"
  },
  "gasUsed": {
    "_hex": "0x546c"
  },
  "miner": "0x1217627fe41A00f0b828317F43E6d58F47dBfc43",
  "extraData": "0x476574682f76312e302e302d66313265303136312f6c696e75782f676f312e34",
  "transactions": [
    {
      "hash": "0xec5e94ebeee1a1aa0ff5487f2545dc86b70cef3fbc2804f46f39896eb7fd2e39",
      "blockHash": "0x7de5a11de81339fd7ea513814bdab36c787c935efe0f5cf5eba1cdc0d0950eaf",
      "blockNumber": 49125,
      "transactionIndex": 0,
      "confirmations": null,
      "from": "0xA2Cb067D1B3038eEe446d994440C0ae9cf1abfdF",
      "gasPrice": {
        "_hex": "0xdfd6616f5"
      },
      "gasLimit": {
        "_hex": "0x7530"
      },
      "to": "0x2910543Af39abA0Cd09dBb2D50200b3E800A63D2",
      "value": {
        "_hex": "0x5b12aefafa8040000"
      },
      "nonce": 1,
      "data": "0x454e52315751343752",
      "r": "0x69c9fc4c8ae70928e9c3c2049a7f07400bcc8693a2809c39ca6069b7b06ea06b",
      "s": "0x19e06fcdda7125dfceb146e57167225ebf84076743d5a655bc6839919bcf8cc9",
      "v": 27,
      "creates": null,
      "raw": "0xf87601850dfd6616f5827530942910543af39aba0cd09dbb2d50200b3e800a63d28905b12aefafa804000089454e523157513437521ba069c9fc4c8ae70928e9c3c2049a7f07400bcc8693a2809c39ca6069b7b06ea06ba019e06fcdda7125dfceb146e57167225ebf84076743d5a655bc6839919bcf8cc9",
      "networkId": 0,
      "chainId": 0
    }
  ]
}