{
  "hash": "0xaba0db596f562d46c9bb6949b7e91799facf28b6ccd3d55b8f8453cea310da3c",
  "parentHash": "0x2da706a9f43370861633421b63427d4b515ca1beab21ce26fdf538484d6c4162",
  "number": 83389,
  "timestamp": 1439534635,
  "nonce": "0x9f5f1787fb56c469",
  "difficulty": 2428972663104,
  "gasLimit": {
    "_hex": "0x2fefd5"
  },
  "gasUsed": {
    "_hex": "0x5208"
  },
  "miner": "0xe6A7a1d47ff21B6321162AEA7C6CB457D5476Bca",
  "extraData": "0x476574682f76312e302e312d38326566323666362f6c696e75782f676f312e34",
  "transactions": [
    {
      "hash": "0x68d861d21607a018173754b0ba9f4c07eb62b70e2e52ba6eceb5a354238b97ed",
      "blockHash": "0xaba0db596f562d46c9bb6949b7e91799facf28b6ccd3d55b8f8453cea310da3c",
      "blockNumber": 83389,
      "transactionIndex": 0,
      "confirmations": null,
      "from": "0x2910543Af39abA0Cd09dBb2D50200b3E800A63D2",
      "gasPrice": {
        "_hex": "0xd79a84b5c"
      },
      "gasLimit": {
        "_hex": "0x5208"
      },
      "to": "0xd6Bb39DA0858E6AEddcaa12a509327b2D05f5B51",
      "value": {
        "_hex": "0x56bb59ab42b2f8000"
      },
      "nonce": 523,
      "data": "0x",
      "r": "0xf428bf1c207f459b429d91082939f2e4e7c5b445e289d3c8ec93598620f0615e",
      "s": "0x0876d5e321bc15a861967c105d2408660b93d7165cf6eaca36e87560484a1f33",
      "v": 28,
      "creates": null,
      "raw": "0xf86f82020b850d79a84b5c82520894d6bb39da0858e6aeddcaa12a509327b2d05f5b5189056bb59ab42b2f8000801ca0f428bf1c207f459b429d91082939f2e4e7c5b445e289d3c8ec93598620f0615ea00876d5e321bc15a861967c105d2408660b93d7165cf6eaca36e87560484a1f33",
      "networkId": 0,
      "chainId": 0
    }
  ]
}