{
  "hash": "0x197f758dc22209ee9537b72c9392bf3e1ad91ec55212612cd43b2354df2f8449",
  "parentHash": "0x088b6fb4a653aece5ef033cba2f80c904314ed1c4db5db88d004dd233b18597c",
  "number": 51497,
  "timestamp": 1439005842,
  "nonce": "0x26448f708ee86b5d",
  "difficulty": 1563511488926,
  "gasLimit": {
    "_hex": "0xb855b"
  },
  "gasUsed": {
    "_hex": "0xddfd"
  },
  "miner": "0x01d9DA08cc6Fb97c0DE1B6F4C28910A0859Ed1A1",
  "extraData": "0x476574682f76312e302e312f6c696e75782f676f312e342e32",
  "transactions": [
    {
      "hash": "0x072f996f152052fbb8191b3af85d5fc3c65610fb7b15f723a5950f83b86b3ec8",
      "blockHash": "0x197f758dc22209ee9537b72c9392bf3e1ad91ec55212612cd43b2354df2f8449",
      "blockNumber": 51497,
      "transactionIndex": 0,
      "confirmations": null,
      "from": "0x1D118f04b63d423FBd257fF79218f1A16711C4DA",
      "gasPrice": {
        "_hex": "0x10635a434e8"
      },
      "gasLimit": {
        "_hex": "0x7a120"
      },
      "to": "0xA327075af2a223A1C83a36aDa1126afE7430f955",
      "value": {
        "_hex": "0x8ac7230489e80000"
      },
      "nonce": 2,
      "data": "0x",
      "r": "0x57d13962d66adce5e04c617c5563b6b4e76a6a67865616d422a1b2f13ecfb825",
      "s": "0x08f32ef288738d8a2fb8236f5de5d2f4ceb648612a0695561a76f1c7be4fcb4a",
      "v": 27,
      "creates": null,
      "raw": "0xf86e0286010635a434e88307a12094a327075af2a223a1c83a36ada1126afe7430f955888ac7230489e80000801ba057d13962d66adce5e04c617c5563b6b4e76a6a67865616d422a1b2f13ecfb825a008f32ef288738d8a2fb8236f5de5d2f4ceb648612a0695561a76f1c7be4fcb4a",
      "networkId": 0,
      "chainId": 0
    }
  ]
}