{
  "hash": "0x6bb14de6eabba4a3cd9dea6333ab89e7eae405169151269f87e214f6216490f5",
  "parentHash": "0x79338c5ab64e6fc15b5224ffd911151cf03b4e9dd1b3a259df5dbbcc8b8ef970",
  "number": 93088,
  "timestamp": 1439682190,
  "nonce": "0x1a1f6666ae0f36fe",
  "difficulty": 3647445503602,
  "gasLimit": {
    "_hex": "0x2fefd8"
  },
  "gasUsed": {
    "_hex": "0x5208"
  },
  "miner": "0xB1A4B41b8e75a153841c99c62d18588d45e7b406",
  "extraData": "0x",
  "transactions": [
    {
      "hash": "0x0c67f7adf6780858993cb395bf3b2d6c6f595ee40f31468363dc906b4a4ab023",
      "blockHash": "0x6bb14de6eabba4a3cd9dea6333ab89e7eae405169151269f87e214f6216490f5",
      "blockNumber": 93088,
      "transactionIndex": 0,
      "confirmations": null,
      "from": "0x2910543Af39abA0Cd09dBb2D50200b3E800A63D2",
      "gasPrice": {
        "_hex": "0xdde6162f0"
      },
      "gasLimit": {
        "_hex": "0x5208"
      },
      "to": "0xFD7c9117BbEB649d9b37B3D3C9917f7c12f526B3",
      "value": {
        "_hex": "0x1a4482c41490597a00"
      },
      "nonce": 843,
      "data": "0x",
      "r": "0x33fcb6aa298a99200c4f0cd73bdb1d99677128a789dde915f42c5af5ca430a0b",
      "s": "0x0786b8fb238fbecf405d9df432bcb4517e72afabf42352bb3a63d84db87fb9aa",
      "v": 27,
      "creates": null,
      "raw": "0xf86f82034b850dde6162f082520894fd7c9117bbeb649d9b37b3d3c9917f7c12f526b3891a4482c41490597a00801ba033fcb6aa298a99200c4f0cd73bdb1d99677128a789dde915f42c5af5ca430a0ba00786b8fb238fbecf405d9df432bcb4517e72afabf42352bb3a63d84db87fb9aa",
      "networkId": 0,
      "chainId": 0
    }
  ]
}