{
  "hash": "0x1599419a9c502580f84f5abcdd7dcce2d6ea68b06366157e78a8963d95b1d8be",
  "parentHash": "0x8464c69712fe2916409c9eab182f90edadbc2275f41c2aee7d8b5141633f6aa4",
  "number": 47042,
  "timestamp": 1438933507,
  "nonce": "0x23082a06d714474b",
  "difficulty": 1453151794704,
  "gasLimit": {
    "_hex": "0x92d3"
  },
  "gasUsed": {
    "_hex": "0x5208"
  },
  "miner": "0xF2d2AfF1320476cb8C6b607199D23175cc595693",
  "extraData": "0x476574682f76312e302e312f77696e646f77732f676f312e342e32",
  "transactions": [
    {
      "hash": "0x252c6481006961fb46059a356efac158f79f062b22cfe65c992c7123e6a03317",
      "blockHash": "0x1599419a9c502580f84f5abcdd7dcce2d6ea68b06366157e78a8963d95b1d8be",
      "blockNumber": 47042,
      "transactionIndex": 0,
      "confirmations": null,
      "from": "0xe6A7a1d47ff21B6321162AEA7C6CB457D5476Bca",
      "gasPrice": {
        "_hex": "0xdc5fe4743"
      },
      "gasLimit": {
        "_hex": "0x5208"
      },
      "to": "0x5e9C22043b28E0f8f0bb0bc3403d45AF09259031",
      "value": {
        "_hex": "0x1ee4939ecd013968"
      },
      "nonce": 34,
      "data": "0x",
      "r": "0xcb8f281ee82931d934e16f0711570554ce619d196b3df9a6155d646287d39217",
      "s": "0x3244d9d3fe9ca6411e61da5522b0c08a42dfccbe71882de37b98c1a57eedfb3b",
      "v": 27,
      "creates": null,
      "raw": "0xf86c22850dc5fe4743825208945e9c22043b28e0f8f0bb0bc3403d45af09259031881ee4939ecd013968801ba0cb8f281ee82931d934e16f0711570554ce619d196b3df9a6155d646287d39217a03244d9d3fe9ca6411e61da5522b0c08a42dfccbe71882de37b98c1a57eedfb3b",
      "networkId": 0,
      "chainId": 0
    }
  ]
}