{
  "hash": "0x7d336a0f951d44cd59595243c6efc134f11860711bb75293d13352887ebc9d63",
  "parentHash": "0x5e63a8db99ec3ff97609002af85fa07d9cae2caf0163a144a0b17d92831fd11c",
  "number": 103009,
  "timestamp": 1439846419,
  "nonce": "0x9dd3175bf0ec4268",
  "difficulty": 4146393526023,
  "gasLimit": {
    "_hex": "0x2fefd8"
  },
  "gasUsed": {
    "_hex": "0x16a3a"
  },
  "miner": "0x0037ce3d4B7f8729C8607D8D0248252Be68202c0",
  "extraData": "0x476574682f76312e302e312f77696e646f77732f676f312e342e32",
  "transactions": [
    {
      "hash": "0x5fd917c314fac32f3ab9886c7b46220da0acb78190f87516557e1af0d6ec2df6",
      "blockHash": "0x7d336a0f951d44cd59595243c6efc134f11860711bb75293d13352887ebc9d63",
      "blockNumber": 103009,
      "transactionIndex": 0,
      "confirmations": null,
      "from": "0x477B24eEE8839e4Fd19D1250bd0B6645794A61Ca",
      "gasPrice": {
        "_hex": "0x110c8f7d8de"
      },
      "gasLimit": {
        "_hex": "0xc350"
      },
      "to": "0x2910543Af39abA0Cd09dBb2D50200b3E800A63D2",
      "value": {
        "_hex": "0xa2a15d09519be00000"
      },
      "nonce": 0,
      "data": "0x454e48334448394347",
      "r": "0x6e17c6acadf1d8a3c2aaf68096f957d4e6b1df4dbdcd65a78d5221ec0b5d75f5",
      "s": "0x186ac52e9b3c7c7d2ab9df31b729b8c1e4dca041977ffe6b79b48e2cb779d360",
      "v": 28,
      "creates": null,
      "raw": "0xf87780860110c8f7d8de82c350942910543af39aba0cd09dbb2d50200b3e800a63d289a2a15d09519be0000089454e483344483943471ca06e17c6acadf1d8a3c2aaf68096f957d4e6b1df4dbdcd65a78d5221ec0b5d75f5a0186ac52e9b3c7c7d2ab9df31b729b8c1e4dca041977ffe6b79b48e2cb779d360",
      "networkId": 0,
      "chainId": 0
    },
    {
      "hash": "0xc57e2d32c690d817b3a69f406ddf3a782884ebf37c889503830a74ff4bf563da",
      "blockHash": "0x7d336a0f951d44cd59595243c6efc134f11860711bb75293d13352887ebc9d63",
      "blockNumber": 103009,
      "transactionIndex": 1,
      "confirmations": null,
      "from": "0x007f7f58D3eb5b7510A301eCC749FC1fCDDBE14D",
      "gasPrice": {
        "_hex": "0xe0cfe7246"
      },
      "gasLimit": {
        "_hex": "0x15f90"
      },
      "to": "0xb1abce2918E21ddb93AA452731a12672A3d9F75a",
      "value": {
        "_hex": "0x4563918244f40000"
      },
      "nonce": 218,
      "data": "0x",
      "r": "0x8516da2da33a349fe9c85344a65385d63d23d9b34e796259c692c723a5c7479b",
      "s": "0x2113bc57eca74fb99bced8f7e086fca4a86b8c2554fcc841370b961e97376bdc",
      "v": 28,
      "creates": null,
      "raw": "0xf86e81da850e0cfe724683015f9094b1abce2918e21ddb93aa452731a12672a3d9f75a884563918244f40000801ca08516da2da33a349fe9c85344a65385d63d23d9b34e796259c692c723a5c7479ba02113bc57eca74fb99bced8f7e086fca4a86b8c2554fcc841370b961e97376bdc",
      "networkId": 0,
      "chainId": 0
    },
    {
      "hash": "0xde7cc7b83f336d807752c3ca681cdf89dcbd37fc783dab4afc07d3e3352e5df6",
      "blockHash": "0x7d336a0f951d44cd59595243c6efc134f11860711bb75293d13352887ebc9d63",
      "blockNumber": 103009,
      "transactionIndex": 2,
      "confirmations": null,
      "from": "0x120A270bbC009644e35F0bB6ab13f95b8199c4ad",
      "gasPrice": {
        "_hex": "0xdfb0e0c52"
      },
      "gasLimit": {
        "_hex": "0x3d090"
      },
      "to": "0x8d304933a1F93F268bFDcFF9FFE6846a75167279",
      "value": {
        "_hex": "0x44d56f06e3c0800"
      },
      "nonce": 710,
      "data": "0x",
      "r": "0x23ef127ef37b8db6be611a499bb9742b847897f2f6b6252fa1eb773380956967",
      "s": "0x651e7f1746557a479e4abb6ed3b20f5b31891ba68a699b691085297009fc9172",
      "v": 27,
      "creates": null,
      "raw": "0xf86f8202c6850dfb0e0c528303d090948d304933a1f93f268bfdcff9ffe6846a7516727988044d56f06e3c0800801ba023ef127ef37b8db6be611a499bb9742b847897f2f6b6252fa1eb773380956967a0651e7f1746557a479e4abb6ed3b20f5b31891ba68a699b691085297009fc9172",
      "networkId": 0,
      "chainId": 0
    },
    {
      "hash": "0xf0a9bd96b9a1deaebc9dab0c53abe698053db659f943ea49fc6c19858afd7034",
      "blockHash": "0x7d336a0f951d44cd59595243c6efc134f11860711bb75293d13352887ebc9d63",
      "blockNumber": 103009,
      "transactionIndex": 3,
      "confirmations": null,
      "from": "0xcD063B3081Ea55535E5b60a21eff7f14E785A877",
      "gasPrice": {
        "_hex": "0xd1dd90cf1"
      },
      "gasLimit": {
        "_hex": "0x30d40"
      },
      "to": "0x9E15f66B34edc3262796ef5E4D27139C931223f0",
      "value": {
        "_hex": "0x0"
      },
      "nonce": 4,
      "data": "0x55c87eb00000000000000000000000000000000000000000000000008ac7230489e80000",
      "r": "0xebcd770afaa43ec76fab7ea94dba6d53ef92b4d1e400aacfd6b3cddaf72118ee",
      "s": "0x122e66ceb6176e3cb3878c194a27f1be9339cbd92d712aac0e50a8d6357f36a6",
      "v": 28,
      "creates": null,
      "raw": "0xf88904850d1dd90cf183030d40949e15f66b34edc3262796ef5e4d27139c931223f080a455c87eb00000000000000000000000000000000000000000000000008ac7230489e800001ca0ebcd770afaa43ec76fab7ea94dba6d53ef92b4d1e400aacfd6b3cddaf72118eea0122e66ceb6176e3cb3878c194a27f1be9339cbd92d712aac0e50a8d6357f36a6",
      "networkId": 0,
      "chainId": 0
    }
  ]
}