{
  "hash": "0xadde6d8e461c47ef14af73beccbc45f0dd468be2e01c6c008c453ca7a7cbd6d8",
  "parentHash": "0x3845c959663a89a623a07470b121aa93ac1392a3fd384d5f4b0c65250a9745af",
  "number": 71512,
  "timestamp": 1439337387,
  "nonce": "0xbe2ba5b2b25bb04b",
  "difficulty": 2172962115299,
  "gasLimit": {
    "_hex": "0x2fefd8"
  },
  "gasUsed": {
    "_hex": "0xaec1"
  },
  "miner": "0xe6A7a1d47ff21B6321162AEA7C6CB457D5476Bca",
  "extraData": "0x476574682f76312e302e312d38326566323666362f6c696e75782f676f312e34",
  "transactions": [
    {
      "hash": "0x072fade144c2ff717982fdf9307f16935a721b0c60f2d7827a344f7480c1364f",
      "blockHash": "0xadde6d8e461c47ef14af73beccbc45f0dd468be2e01c6c008c453ca7a7cbd6d8",
      "blockNumber": 71512,
      "transactionIndex": 0,
      "confirmations": null,
      "from": "0x17580B766f7453525ca4C6A88b01b50570EA088C",
      "gasPrice": {
        "_hex": "0xdfa46f761"
      },
      "gasLimit": {
        "_hex": "0x61a80"
      },
      "to": "0x5Fe5B7546D1628f7348B023A0393de1FC825A4fD",
      "value": {
        "_hex": "0xde0b6b3a7640000"
      },
      "nonce": 211,
      "data": "0xb595b8b50000000000000000000000000000000000000000000000000000000000000001",
      "r": "0xe49b289b7a50a39da2831988a68393ca7d0de98cefa389244ca471524a2adf06",
      "s": "0x608533b132d86b9ac73c9ec2ebb4db72e7074a6b1ff68fe96d8631850850ac96",
      "v": 27,
      "creates": null,
      "raw": "0xf89281d3850dfa46f76183061a80945fe5b7546d1628f7348b023a0393de1fc825a4fd880de0b6b3a7640000a4b595b8b500000000000000000000000000000000000000000000000000000000000000011ba0e49b289b7a50a39da2831988a68393ca7d0de98cefa389244ca471524a2adf06a0608533b132d86b9ac73c9ec2ebb4db72e7074a6b1ff68fe96d8631850850ac96",
      "networkId": 0,
      "chainId": 0
    }
  ]
}