{
  "hash": "0x969690b683e47fbb65b4188ee8df16d108e62586631fee0aab811b37feacb626",
  "parentHash": "0x4fc14ef787c004785b3cb8cc7104c406659deb2a4b2a5ea0bd91f10df0c8e6d8",
  "number": 102208,
  "timestamp": 1439834441,
  "nonce": "0xbf1cdafeaf8d1df6",
  "difficulty": 3924184769314,
  "gasLimit": {
    "_hex": "0x2fefd8"
  },
  "gasUsed": {
    "_hex": "0xa410"
  },
  "miner": "0x7E6930B63D03e88F5928C5cd6ee3FCee4D714F7F",
  "extraData": "0x",
  "transactions": [
    {
      "hash": "0x5ca5bcfcf486209c8a18e6f5c6a6aafa9bab78a90e6791839d17c1dbf2fc1031",
      "blockHash": "0x969690b683e47fbb65b4188ee8df16d108e62586631fee0aab811b37feacb626",
      "blockNumber": 102208,
      "transactionIndex": 0,
      "confirmations": null,
      "from": "0x645B979F8ce622236DB26feB803455d40C328615",
      "gasPrice": {
        "_hex": "0xdadf64fd5"
      },
      "gasLimit": {
        "_hex": "0x5208"
      },
      "to": "0x32Be343B94f860124dC4fEe278FDCBD38C102D88",
      "value": {
        "_hex": "0x1b1ae074bbd47f0000"
      },
      "nonce": 9,
      "data": "0x",
      "r": "0x94491409b16e2e7f0bc7efcc74d2fef1bc2ec94c96758da0919a66aa594cc45a",
      "s": "0x5080668392b3f270b77517b8f9202e070aeab11e08c826701c73148a9a978b09",
      "v": 28,
      "creates": null,
      "raw": "0xf86d09850dadf64fd58252089432be343b94f860124dc4fee278fdcbd38c102d88891b1ae074bbd47f0000801ca094491409b16e2e7f0bc7efcc74d2fef1bc2ec94c96758da0919a66aa594cc45aa05080668392b3f270b77517b8f9202e070aeab11e08c826701c73148a9a978b09",
      "networkId": 0,
      "chainId": 0
    },
    {
      "hash": "0x17932549b07aed759f200488600176234d9f2a67797fdcfac3619efcfc5925d5",
      "blockHash": "0x969690b683e47fbb65b4188ee8df16d108e62586631fee0aab811b37feacb626",
      "blockNumber": 102208,
      "transactionIndex": 1,
      "confirmations": null,
      "from": "0x9A85C18039488f9A3712773119e8C40d7e1c5071",
      "gasPrice": {
        "_hex": "0xce8b39c9f"
      },
      "gasLimit": {
        "_hex": "0x5208"
      },
      "to": "0x0a41Be86378F36BA0823db204723693c0836a3E9",
      "value": {
        "_hex": "0x202ad6549210c90"
      },
      "nonce": 2,
      "data": "0x",
      "r": "0x057b3d781be35e50f55f13c243c044c689086b6a1f569571339dd9ccd8b08965",
      "s": "0x39d2287bb1085f6a4ce62f43134edb48a0e72d4a2023db84b27ab511088ad7fa",
      "v": 28,
      "creates": null,
      "raw": "0xf86c02850ce8b39c9f825208940a41be86378f36ba0823db204723693c0836a3e9880202ad6549210c90801ca0057b3d781be35e50f55f13c243c044c689086b6a1f569571339dd9ccd8b08965a039d2287bb1085f6a4ce62f43134edb48a0e72d4a2023db84b27ab511088ad7fa",
      "networkId": 0,
      "chainId": 0
    }
  ]
}