{
  "hash": "0x6bf8cefe4d99e1cd8624d7ea52c7f9d129e68e0b2e286b5390eba155d21f7af1",
  "parentHash": "0x6a0dec7a001db201945602207cae2f796c0d44213b76bd3b64ed3d58ee56b999",
  "number": 67177,
  "timestamp": 1439267303,
  "nonce": "0x5cd4d96ccdfa4a4a",
  "difficulty": 1928956384902,
  "gasLimit": {
    "_hex": "0x2fefd8"
  },
  "gasUsed": {
    "_hex": "0x5208"
  },
  "miner": "0x88D74a59454F6cF3B51ef6b9136AFb6b9D405A88",
  "extraData": "0x476574682f76312e302e312d38326566323666362f6c696e75782f676f312e34",
  "transactions": [
    {
      "hash": "0xd1878df5f0028a8bda5c425c30e77a88d053131e980dfd298445fb2b9940008f",
      "blockHash": "0x6bf8cefe4d99e1cd8624d7ea52c7f9d129e68e0b2e286b5390eba155d21f7af1",
      "blockNumber": 67177,
      "transactionIndex": 0,
      "confirmations": null,
      "from": "0xcb2Ff4305625D98A9E13C9cA10ca47cf2345e1F8",
      "gasPrice": {
        "_hex": "0xce6dfacf0"
      },
      "gasLimit": {
        "_hex": "0x5208"
      },
      "to": "0x32Be343B94f860124dC4fEe278FDCBD38C102D88",
      "value": {
        "_hex": "0x2b5df82ec6a6da000"
      },
      "nonce": 6,
      "data": "0x",
      "r": "0x3a7e911ae914fd36c192e0e05cb8de7e267c6e2eaeabfdd22a72f39c61f0d2e0",
      "s": "0x4b7bf32a75e93c1ebcdff469fccf01b24995b16c54e4bac269bb1a57d8f39764",
      "v": 27,
      "creates": null,
      "raw": "0xf86d06850ce6dfacf08252089432be343b94f860124dc4fee278fdcbd38c102d888902b5df82ec6a6da000801ba03a7e911ae914fd36c192e0e05cb8de7e267c6e2eaeabfdd22a72f39c61f0d2e0a04b7bf32a75e93c1ebcdff469fccf01b24995b16c54e4bac269bb1a57d8f39764",
      "networkId": 0,
      "chainId": 0
    }
  ]
}