{
  "hash": "0xacc20465a660410fb65b635b2f616123aa14eba68d59807f33b3cf47050dbd78",
  "parentHash": "0x51cd2c9542a28241db86cd7e6def57afc2b9cb32441bcd5245caf2de4835f7c2",
  "number": 109287,
  "timestamp": 1439954022,
  "nonce": "0x93eac3677cd4be49",
  "difficulty": 4449446020665,
  "gasLimit": {
    "_hex": "0x2fefd8"
  },
  "gasUsed": {
    "_hex": "0x1bdbe"
  },
  "miner": "0xf8E0CA3Ed80bd541b94BEdCf259e8CF2141A9523",
  "extraData": "0x476574682f76312e302e312f77696e646f77732f676f312e342e32",
  "transactions": [
    {
      "hash": "0x8aa1e2bd2c2cf00b0f003e05379a7da7299552785830923149086f430825d6bf",
      "blockHash": "0xacc20465a660410fb65b635b2f616123aa14eba68d59807f33b3cf47050dbd78",
      "blockNumber": 109287,
      "transactionIndex": 0,
      "confirmations": null,
      "from": "0x7a381122BADa791A7AB1F6037dAC80432753BaAd",
      "gasPrice": {
        "_hex": "0xdb2816147"
      },
      "gasLimit": {
        "_hex": "0x249f0"
      },
      "to": "0xE28e72FCf78647ADCe1F1252F240bbfaebD63BcC",
      "value": {
        "_hex": "0x288ba34213e39b43e0"
      },
      "nonce": 2,
      "data": "0x45466f3a",
      "r": "0x76c1b31e2dc910150a39b6f0e54c4410aae7e6b97d8f64d2aa1a42683e3669eb",
      "s": "0x4b235bf20b1df2ba2a5c696352e507ae6025337ecee9b15c7b0047f404d9e379",
      "v": 28,
      "creates": null,
      "raw": "0xf87202850db2816147830249f094e28e72fcf78647adce1f1252f240bbfaebd63bcc89288ba34213e39b43e08445466f3a1ca076c1b31e2dc910150a39b6f0e54c4410aae7e6b97d8f64d2aa1a42683e3669eba04b235bf20b1df2ba2a5c696352e507ae6025337ecee9b15c7b0047f404d9e379",
      "networkId": 0,
      "chainId": 0
    }
  ]
}