{
  "hash": "0xb1f58694ad74aa61b95e899a3fe40a965e87deba4059aed8371d63b24c060516",
  "parentHash": "0xe72549afb7dd4c552e9b4485e8d3fe976bc909f583290f4ab8fb127b43f8a781",
  "number": 65746,
  "timestamp": 1439242244,
  "nonce": "0xd5a372fa373b6c5b",
  "difficulty": 1945366699741,
  "gasLimit": {
    "_hex": "0x2fefd8"
  },
  "gasUsed": {
    "_hex": "0x5208"
  },
  "miner": "0xbb7B8287f3F0a933474a79eAe42CBCa977791171",
  "extraData": "0x476574682f4c5649562f76312e302e312f6c696e75782f676f312e342e32",
  "transactions": [
    {
      "hash": "0x7cc378cf15b6ffe8ec0361a6b1dd5cfebc4ebbfc99f3a8c04081af9a6e43d91a",
      "blockHash": "0xb1f58694ad74aa61b95e899a3fe40a965e87deba4059aed8371d63b24c060516",
      "blockNumber": 65746,
      "transactionIndex": 0,
      "confirmations": null,
      "from": "0xC624b0Cd3307f6CFFC473f5019FA380E6811ee58",
      "gasPrice": {
        "_hex": "0xd13808ab7"
      },
      "gasLimit": {
        "_hex": "0x5208"
      },
      "to": "0x32Be343B94f860124dC4fEe278FDCBD38C102D88",
      "value": {
        "_hex": "0xa96815fbffd05000000"
      },
      "nonce": 5,
      "data": "0x",
      "r": "0x454b2f21cc7bde908869f055474f7a32f9f1a734ec10db90d60ffdeed15d3824",
      "s": "0x47f5ff376f376c55a166f6613c0ca65637b1e8109fea0c6a6483b399f7d852ef",
      "v": 28,
      "creates": null,
      "raw": "0xf86e05850d13808ab78252089432be343b94f860124dc4fee278fdcbd38c102d888a0a96815fbffd05000000801ca0454b2f21cc7bde908869f055474f7a32f9f1a734ec10db90d60ffdeed15d3824a047f5ff376f376c55a166f6613c0ca65637b1e8109fea0c6a6483b399f7d852ef",
      "networkId": 0,
      "chainId": 0
    }
  ]
}