{
  "hash": "0xb7b7b233995d4778f9cb22322bf9d3b95bcd8aff1e5eeab27bde288ebab69c65",
  "parentHash": "0xc536f24fa37e7964c24826fc63fe2e98d6185a00a0391549abc6b82505022fce",
  "number": 78755,
  "timestamp": 1439458794,
  "nonce": "0x6e06924230e857ef",
  "difficulty": 2307726855726,
  "gasLimit": {
    "_hex": "0x2fefd8"
  },
  "gasUsed": {
    "_hex": "0x5208"
  },
  "miner": "0xa70a9a7040d542C632D8e0bE7c5513A8a5Bbc752",
  "extraData": "0x",
  "transactions": [
    {
      "hash": "0x11fe55e7cf51be71420fe97aa14bb95f95999c1f05fa1aa5b6b6734b8c1d70e9",
      "blockHash": "0xb7b7b233995d4778f9cb22322bf9d3b95bcd8aff1e5eeab27bde288ebab69c65",
      "blockNumber": 78755,
      "transactionIndex": 0,
      "confirmations": null,
      "from": "0x05f74a38293C914C6B14a39f5d8dEa98f22E4FBA",
      "gasPrice": {
        "_hex": "0xd62f0023c"
      },
      "gasLimit": {
        "_hex": "0x15f90"
      },
      "to": "0xbEB64d852Bb6731CD479E80F7139ADEa5D6A5a28",
      "value": {
        "_hex": "0xde0b6b3a7640000"
      },
      "nonce": 0,
      "data": "0x",
      "r": "0xe66924af40f8adc5b979f7821ecc7623bf43e3d8065fad7133c6b5ad8bb91ae5",
      "s": "0x0737f312edc7b5d3f0f6cb55143959adb20d401e305be7bfd6e20cbbfcce6960",
      "v": 28,
      "creates": null,
      "raw": "0xf86d80850d62f0023c83015f9094beb64d852bb6731cd479e80f7139adea5d6a5a28880de0b6b3a7640000801ca0e66924af40f8adc5b979f7821ecc7623bf43e3d8065fad7133c6b5ad8bb91ae5a00737f312edc7b5d3f0f6cb55143959adb20d401e305be7bfd6e20cbbfcce6960",
      "networkId": 0,
      "chainId": 0
    }
  ]
}