{
  "hash": "0x3ff98c1b7b6f140f0477dfb6fb699fb339baeb5faa81fd6cce27540bd5a3772e",
  "parentHash": "0x459ba48718c74ce8e144b7b717cd25329d3c8b357cb7705859a46a10278b42d5",
  "number": 107373,
  "timestamp": 1439921396,
  "nonce": "0x7459535b2cc23910",
  "difficulty": 4390029246839,
  "gasLimit": {
    "_hex": "0x2fefd8"
  },
  "gasUsed": {
    "_hex": "0xa410"
  },
  "miner": "0xe6A7a1d47ff21B6321162AEA7C6CB457D5476Bca",
  "extraData": "0x476574682f76312e302e312d38326566323666362f6c696e75782f676f312e34",
  "transactions": [
    {
      "hash": "0x00866547a4de8faa9839f86a28f3f7760b9ce14dfff32b213431c14c9894a386",
      "blockHash": "0x3ff98c1b7b6f140f0477dfb6fb699fb339baeb5faa81fd6cce27540bd5a3772e",
      "blockNumber": 107373,
      "transactionIndex": 0,
      "confirmations": null,
      "from": "0x32Be343B94f860124dC4fEe278FDCBD38C102D88",
      "gasPrice": {
        "_hex": "0xcce92727c"
      },
      "gasLimit": {
        "_hex": "0x5208"
      },
      "to": "0xE3291e02d1d7b6A7F4aAA164c56Cf21FD30D0eb5",
      "value": {
        "_hex": "0xd8d70330250ac00000"
      },
      "nonce": 1211,
      "data": "0x",
      "r": "0x8280dea0e9b4f996cb6406b05f350654eaa5f538a6a8b0aab3d450d053be2b67",
      "s": "0x267869b93fac5ec6c4fe74449f75c1fd48e7fa41c9d949e2862fcc21eefbb22d",
      "v": 27,
      "creates": null,
      "raw": "0xf86f8204bb850cce92727c82520894e3291e02d1d7b6a7f4aaa164c56cf21fd30d0eb589d8d70330250ac00000801ba08280dea0e9b4f996cb6406b05f350654eaa5f538a6a8b0aab3d450d053be2b67a0267869b93fac5ec6c4fe74449f75c1fd48e7fa41c9d949e2862fcc21eefbb22d",
      "networkId": 0,
      "chainId": 0
    },
    {
      "hash": "0x7596e0ff8c6ed3befe38c9719b636b2f9ec4b55d0ef45bdd9ab7a4239e2b69ac",
      "blockHash": "0x3ff98c1b7b6f140f0477dfb6fb699fb339baeb5faa81fd6cce27540bd5a3772e",
      "blockNumber": 107373,
      "transactionIndex": 1,
      "confirmations": null,
      "from": "0x32Be343B94f860124dC4fEe278FDCBD38C102D88",
      "gasPrice": {
        "_hex": "0xcce92727c"
      },
      "gasLimit": {
        "_hex": "0x5208"
      },
      "to": "0xB049F571999Ac8804af508C2F72347E46d06B34b",
      "value": {
        "_hex": "0x13fbe85edc90000"
      },
      "nonce": 1212,
      "data": "0x",
      "r": "0xe447a2bf0317f0cb33cf48b64dffaf5f400240a9fa0d32c4bc6c9b2d88a41c1b",
      "s": "0x3d1ce98040029a5073368be6e814c1c3fe63dd23f107b74c9e2fff1744ca139b",
      "v": 28,
      "creates": null,
      "raw": "0xf86e8204bc850cce92727c82520894b049f571999ac8804af508c2f72347e46d06b34b88013fbe85edc90000801ca0e447a2bf0317f0cb33cf48b64dffaf5f400240a9fa0d32c4bc6c9b2d88a41c1ba03d1ce98040029a5073368be6e814c1c3fe63dd23f107b74c9e2fff1744ca139b",
      "networkId": 0,
      "chainId": 0
    }
  ]
}