{
  "hash": "0x69adf816be7aaf571c48c4bd40a243069bb5317870268dfd757293768275f795",
  "parentHash": "0xed06f5439f088d86e1dec197e43b02d24b4d24005b95ca4acf08c73f91888aa3",
  "number": 101178,
  "timestamp": 1439818620,
  "nonce": "0xf529d1327b7780af",
  "difficulty": 3856281151286,
  "gasLimit": {
    "_hex": "0x2fefd8"
  },
  "gasUsed": {
    "_hex": "0xa410"
  },
  "miner": "0xfC25864D8326b4CB335C6942218e5F4Ee8D1E1EF",
  "extraData": "0x476574682f76312e302e312f77696e646f77732f676f312e342e32",
  "transactions": [
    {
      "hash": "0x844b37002bca09625701d9574b26ee875f7e3166873438fe0db86ff40a4595c9",
      "blockHash": "0x69adf816be7aaf571c48c4bd40a243069bb5317870268dfd757293768275f795",
      "blockNumber": 101178,
      "transactionIndex": 0,
      "confirmations": null,
      "from": "0x4CD33268dF93C6b4F6b3D504009EAE965Afe272d",
      "gasPrice": {
        "_hex": "0xce018158d"
      },
      "gasLimit": {
        "_hex": "0x5208"
      },
      "to": "0x32Be343B94f860124dC4fEe278FDCBD38C102D88",
      "value": {
        "_hex": "0xb542f155c48dc800"
      },
      "nonce": 4,
      "data": "0x",
      "r": "0xfd60fe0e77b6ea04c082513c3e5a0a7a9f7c26f444309ea06e7ec563e4706bba",
      "s": "0x7c713ba8b5c5709b8d78425681495faf3d94b4a9b2641e61e34c3a4fd1dde66b",
      "v": 28,
      "creates": null,
      "raw": "0xf86c04850ce018158d8252089432be343b94f860124dc4fee278fdcbd38c102d8888b542f155c48dc800801ca0fd60fe0e77b6ea04c082513c3e5a0a7a9f7c26f444309ea06e7ec563e4706bbaa07c713ba8b5c5709b8d78425681495faf3d94b4a9b2641e61e34c3a4fd1dde66b",
      "networkId": 0,
      "chainId": 0
    },
    {
      "hash": "0xbeea19af53c5c9d2180901078051044bf8591e02d912b47c9400b45f86d6441e",
      "blockHash": "0x69adf816be7aaf571c48c4bd40a243069bb5317870268dfd757293768275f795",
      "blockNumber": 101178,
      "transactionIndex": 1,
      "confirmations": null,
      "from": "0xFAF4d1326d886D8dFe403B3F8A00DC7a7EA05629",
      "gasPrice": {
        "_hex": "0xce018158d"
      },
      "gasLimit": {
        "_hex": "0x5208"
      },
      "to": "0x32Be343B94f860124dC4fEe278FDCBD38C102D88",
      "value": {
        "_hex": "0x475a456ae48ae400"
      },
      "nonce": 4,
      "data": "0x",
      "r": "0x83c4d7c582f644c28159948c5b8182cb6a135fea5bc306c11489202a018bb507",
      "s": "0x30f1d13013056b3934978a51ead7547b438037e0f08843d06ab0133ed6e5af19",
      "v": 27,
      "creates": null,
      "raw": "0xf86c04850ce018158d8252089432be343b94f860124dc4fee278fdcbd38c102d8888475a456ae48ae400801ba083c4d7c582f644c28159948c5b8182cb6a135fea5bc306c11489202a018bb507a030f1d13013056b3934978a51ead7547b438037e0f08843d06ab0133ed6e5af19",
      "networkId": 0,
      "chainId": 0
    }
  ]
}