{
  "hash": "0xaa1430aecc7ea235be5bd26ff538a429dc8cf873196be4875559ada2e322c38d",
  "parentHash": "0x4b5868ca9d5bc9c2a441240d43d7d872c147bf137839a7e20bdde5499d825c21",
  "number": 86929,
  "timestamp": 1439584725,
  "nonce": "0x68429d5d8885fd19",
  "difficulty": 2983511905563,
  "gasLimit": {
    "_hex": "0x2fefd5"
  },
  "gasUsed": {
    "_hex": "0x5208"
  },
  "miner": "0xfC25864D8326b4CB335C6942218e5F4Ee8D1E1EF",
  "extraData": "0x476574682f76312e302e312f77696e646f77732f676f312e342e32",
  "transactions": [
    {
      "hash": "0xf470f71f6e63b363f2acc0ede0a0bfe81779a558ec69f55dc8aec69417509ae2",
      "blockHash": "0xaa1430aecc7ea235be5bd26ff538a429dc8cf873196be4875559ada2e322c38d",
      "blockNumber": 86929,
      "transactionIndex": 0,
      "confirmations": null,
      "from": "0x120A270bbC009644e35F0bB6ab13f95b8199c4ad",
      "gasPrice": {
        "_hex": "0xd547540b5"
      },
      "gasLimit": {
        "_hex": "0x3d090"
      },
      "to": "0x864EE435071Fc7830aB23cD146c708120F9445e8",
      "value": {
        "_hex": "0xde0b6b3a7640000"
      },
      "nonce": 485,
      "data": "0x",
      "r": "0xa14595cf0a1c7bac6dcca7cc05482d7a38e750ffca047389d50dc520ad21fd12",
      "s": "0x496a424275d280d0dc7559366ab2f149a2ac40ca2ebe63b7063a8af719074914",
      "v": 27,
      "creates": null,
      "raw": "0xf86f8201e5850d547540b58303d09094864ee435071fc7830ab23cd146c708120f9445e8880de0b6b3a7640000801ba0a14595cf0a1c7bac6dcca7cc05482d7a38e750ffca047389d50dc520ad21fd12a0496a424275d280d0dc7559366ab2f149a2ac40ca2ebe63b7063a8af719074914",
      "networkId": 0,
      "chainId": 0
    }
  ]
}