{
  "hash": "0x550b15cce947f221d431703a6fb9bcbe155621a3263bfb924c4edbef295d32c0",
  "parentHash": "0x34940e35bd8cc8174f42cf88950fa897d710ab58b8f111ce3d2850bd9f1ec81b",
  "number": 84825,
  "timestamp": 1439555021,
  "nonce": "0xb75f922a2b91e3d4",
  "difficulty": 2641327396900,
  "gasLimit": {
    "_hex": "0x2fefd8"
  },
  "gasUsed": {
    "_hex": "0x5208"
  },
  "miner": "0xe6A7a1d47ff21B6321162AEA7C6CB457D5476Bca",
  "extraData": "0x476574682f76312e302e312d38326566323666362f6c696e75782f676f312e34",
  "transactions": [
    {
      "hash": "0x1384a5eac1af03b129390827fa689bc91e4977bb48c376b47a390675f93f7307",
      "blockHash": "0x550b15cce947f221d431703a6fb9bcbe155621a3263bfb924c4edbef295d32c0",
      "blockNumber": 84825,
      "transactionIndex": 0,
      "confirmations": null,
      "from": "0xe090Ffdced499691fA9379752a59F8A058c1eE4A",
      "gasPrice": {
        "_hex": "0xcb7d06d85"
      },
      "gasLimit": {
        "_hex": "0x5208"
      },
      "to": "0x3620db64D25D412bAb4C8d93E2e0D7e64e8Cb933",
      "value": {
        "_hex": "0xd9b5322251f0c0000"
      },
      "nonce": 2,
      "data": "0x",
      "r": "0x9e79983000918903af73c64ed71d0255f950f4467c43a12cd19255f15a9cb0bb",
      "s": "0x72947953c2ea0ad2f49eca1010fad54a17de78b48ce4d647fc3c3fca5516d5f8",
      "v": 28,
      "creates": null,
      "raw": "0xf86d02850cb7d06d85825208943620db64d25d412bab4c8d93e2e0d7e64e8cb933890d9b5322251f0c0000801ca09e79983000918903af73c64ed71d0255f950f4467c43a12cd19255f15a9cb0bba072947953c2ea0ad2f49eca1010fad54a17de78b48ce4d647fc3c3fca5516d5f8",
      "networkId": 0,
      "chainId": 0
    }
  ]
}