{
  "hash": "0xdf1837f1f0e479fa675f2a4a26f750c6a2ce0f0f5dd6c3b32f5e66cb5d0c23c9",
  "parentHash": "0xb8d9bdcec2cf2fc53d053bd31829b2fa35c73217ad089f91129aa9464a9d9267",
  "number": 46924,
  "timestamp": 1438931675,
  "nonce": "0x1af6fbca5a076245",
  "difficulty": 1456013236655,
  "gasLimit": {
    "_hex": "0x85d1"
  },
  "gasUsed": {
    "_hex": "0x5208"
  },
  "miner": "0x3F98e477a361F777DA14611a7e419A75Fd238b6b",
  "extraData": "0x476574682f76312e302e312f6c696e75782f676f312e342e32",
  "transactions": [
    {
      "hash": "0xbb8396da9ee84c94d5b6e1d37921fd41fd0f71542eeae347ccf8e556ae4769e2",
      "blockHash": "0xdf1837f1f0e479fa675f2a4a26f750c6a2ce0f0f5dd6c3b32f5e66cb5d0c23c9",
      "blockNumber": 46924,
      "transactionIndex": 0,
      "confirmations": null,
      "from": "0x004BfBE1546BC6c65B5C7EAA55304B38bbfEC6D3",
      "gasPrice": {
        "_hex": "0xdf29cb008"
      },
      "gasLimit": {
        "_hex": "0x5208"
      },
      "to": "0x881b0A4e9c55d08e31d8d3C022144d75A454211c",
      "value": {
        "_hex": "0x16345785d8a0000"
      },
      "nonce": 1,
      "data": "0x",
      "r": "0x16722f7b5d5d8f0f796a8855249173387eb4cfa963643e16482cbc03392ba7d6",
      "s": "0x7c2f3f2a2cc02e442d1f77e339121cdfa4ac70bcc05a5c782f73030907ceed43",
      "v": 27,
      "creates": null,
      "raw": "0xf86c01850df29cb00882520894881b0a4e9c55d08e31d8d3c022144d75a454211c88016345785d8a0000801ba016722f7b5d5d8f0f796a8855249173387eb4cfa963643e16482cbc03392ba7d6a07c2f3f2a2cc02e442d1f77e339121cdfa4ac70bcc05a5c782f73030907ceed43",
      "networkId": 0,
      "chainId": 0
    }
  ]
}