{
  "hash": "0x51e07e1bef938e35c500d34f6b0d1c2cdabe8962d4461b9a8ff8c9e5e207c9a1",
  "parentHash": "0x7b4942d2c6df66af48ad6a500cdcfc05074328964114554b1f76c848cd2947ff",
  "number": 92371,
  "timestamp": 1439671064,
  "nonce": "0x3cdef76b7d010e5b",
  "difficulty": 3499459836252,
  "gasLimit": {
    "_hex": "0x2fefd8"
  },
  "gasUsed": {
    "_hex": "0x5208"
  },
  "miner": "0x7E6930B63D03e88F5928C5cd6ee3FCee4D714F7F",
  "extraData": "0x",
  "transactions": [
    {
      "hash": "0x4923bc8042676b94e33a23fcc095c20f43b6cf6f01992694433f85b9a2c22c79",
      "blockHash": "0x51e07e1bef938e35c500d34f6b0d1c2cdabe8962d4461b9a8ff8c9e5e207c9a1",
      "blockNumber": 92371,
      "transactionIndex": 0,
      "confirmations": null,
      "from": "0xa70a9a7040d542C632D8e0bE7c5513A8a5Bbc752",
      "gasPrice": {
        "_hex": "0xdd7b2a87f"
      },
      "gasLimit": {
        "_hex": "0x5208"
      },
      "to": "0x32Be343B94f860124dC4fEe278FDCBD38C102D88",
      "value": {
        "_hex": "0x4563429c3604d400"
      },
      "nonce": 129,
      "data": "0x",
      "r": "0x3ee9e97ec8569a7d7c94492f2d7f919ff2cfb8635626c63472fb5a870da995eb",
      "s": "0x20bbe0f443e22ba7893869b37d48afeb2018cfe6346d01acf4455c514481b32a",
      "v": 27,
      "creates": null,
      "raw": "0xf86d8181850dd7b2a87f8252089432be343b94f860124dc4fee278fdcbd38c102d88884563429c3604d400801ba03ee9e97ec8569a7d7c94492f2d7f919ff2cfb8635626c63472fb5a870da995eba020bbe0f443e22ba7893869b37d48afeb2018cfe6346d01acf4455c514481b32a",
      "networkId": 0,
      "chainId": 0
    }
  ]
}