{
  "hash": "0xb6f1ed159a6a1e2a043b2fdb8375b07b253bdcdd69530fe6542bbd515bc3d523",
  "parentHash": "0x2cebacf1cf1964a9fa0dbb2ca2c7cb10e71eb726aeaca843a49fdbe1aa96f6bc",
  "number": 119432,
  "timestamp": 1440142908,
  "nonce": "0xb8d5981b272f2f3f",
  "difficulty": 4377306147477,
  "gasLimit": {
    "_hex": "0x2fefd8"
  },
  "gasUsed": {
    "_hex": "0xa410"
  },
  "miner": "0xe6A7a1d47ff21B6321162AEA7C6CB457D5476Bca",
  "extraData": "0xd783010002844765746887676f312e342e32856c696e7578",
  "transactions": [
    {
      "hash": "0x19a96dd27c70bd17db81af98380b153159c9f28c9de0fe97e50f8dd8b6b29492",
      "blockHash": "0xb6f1ed159a6a1e2a043b2fdb8375b07b253bdcdd69530fe6542bbd515bc3d523",
      "blockNumber": 119432,
      "transactionIndex": 0,
      "confirmations": null,
      "from": "0x61E20833179bA2eCCc2065e5F733CC8CdA7394c0",
      "gasPrice": {
        "_hex": "0xba43b7400"
      },
      "gasLimit": {
        "_hex": "0x5208"
      },
      "to": "0x32Be343B94f860124dC4fEe278FDCBD38C102D88",
      "value": {
        "_hex": "0x10566f3a94d90400"
      },
      "nonce": 13,
      "data": "0x",
      "r": "0x4041b39cca57b76ab9856f94a50f37d71880689fa1c3747bd08eb9bc98052136",
      "s": "0x419de131f7d0d15f1842853eceaa31c5a45cf4403c121a2c73ee9fc002966563",
      "v": 28,
      "creates": null,
      "raw": "0xf86c0d850ba43b74008252089432be343b94f860124dc4fee278fdcbd38c102d888810566f3a94d90400801ca04041b39cca57b76ab9856f94a50f37d71880689fa1c3747bd08eb9bc98052136a0419de131f7d0d15f1842853eceaa31c5a45cf4403c121a2c73ee9fc002966563",
      "networkId": 0,
      "chainId": 0
    },
    {
      "hash": "0xd9b9b3551af69ee632e436ced01ca4395cc32c6abaf3c2a4c4a30459fdac3c61",
      "blockHash": "0xb6f1ed159a6a1e2a043b2fdb8375b07b253bdcdd69530fe6542bbd515bc3d523",
      "blockNumber": 119432,
      "transactionIndex": 1,
      "confirmations": null,
      "from": "0x99181ED48C7c51532622dA23e20E2B38392476A7",
      "gasPrice": {
        "_hex": "0xba43b7400"
      },
      "gasLimit": {
        "_hex": "0x5208"
      },
      "to": "0x32Be343B94f860124dC4fEe278FDCBD38C102D88",
      "value": {
        "_hex": "0x4806f87489a1000"
      },
      "nonce": 18,
      "data": "0x",
      "r": "0xfdd8ef5bdd46bb72e5b0b81e592e0780efaf1cb99b6326ae535961c6320cc71b",
      "s": "0x0176c4ecd0e0a6e0d4ace45c95d2e37c2d2d44d480504bc93f3afaa26a3c5e59",
      "v": 27,
      "creates": null,
      "raw": "0xf86c12850ba43b74008252089432be343b94f860124dc4fee278fdcbd38c102d888804806f87489a1000801ba0fdd8ef5bdd46bb72e5b0b81e592e0780efaf1cb99b6326ae535961c6320cc71ba00176c4ecd0e0a6e0d4ace45c95d2e37c2d2d44d480504bc93f3afaa26a3c5e59",
      "networkId": 0,
      "chainId": 0
    }
  ]
}