{
  "hash": "0x988ff3fd07c87629e73015daebf070a745a8c3ddaba506665fbc499c0adc6e17",
  "parentHash": "0x565c28948af3499296ce70d4d70fe5b6a6afea85a803738537817b6ff0fcd482",
  "number": 55689,
  "timestamp": 1439075145,
  "nonce": "0xc1bed33023f9316c",
  "difficulty": 1607620017729,
  "gasLimit": {
    "_hex": "0x2fefd8"
  },
  "gasUsed": {
    "_hex": "0x5208"
  },
  "miner": "0xf927a40C8B7F6E07c5af7FA2155B4864a4112B13",
  "extraData": "0x476574682f76312e302e312f6c696e75782f676f312e342e32",
  "transactions": [
    {
      "hash": "0x07b64470b3c1de1993fcc8c38668babeef824493b1904d86bc36006556a60d3d",
      "blockHash": "0x988ff3fd07c87629e73015daebf070a745a8c3ddaba506665fbc499c0adc6e17",
      "blockNumber": 55689,
      "transactionIndex": 0,
      "confirmations": null,
      "from": "0xa9f5E7bf6Cbf6fEc55B30850Eb492b47A376d050",
      "gasPrice": {
        "_hex": "0xcb6fe29dc"
      },
      "gasLimit": {
        "_hex": "0x5208"
      },
      "to": "0x32Be343B94f860124dC4fEe278FDCBD38C102D88",
      "value": {
        "_hex": "0x10b257bd2335af0000"
      },
      "nonce": 4,
      "data": "0x",
      "r": "0x2d84d4fd84da92c110886c59e3b6c91de0ccf8244225f1e47cef019e2a0a84d1",
      "s": "0x279fac3e90984c67bd643571a46d284e5f33a02af62181c6ae999c58b2cbec08",
      "v": 28,
      "creates": null,
      "raw": "0xf86d04850cb6fe29dc8252089432be343b94f860124dc4fee278fdcbd38c102d888910b257bd2335af0000801ca02d84d4fd84da92c110886c59e3b6c91de0ccf8244225f1e47cef019e2a0a84d1a0279fac3e90984c67bd643571a46d284e5f33a02af62181c6ae999c58b2cbec08",
      "networkId": 0,
      "chainId": 0
    }
  ]
}