{
  "hash": "0x266cc5e1dba84ed71e935721536b84e2e7d0115b0bf4e198bda75d720f5ceb87",
  "parentHash": "0x2f32d03c6f95400747dd8bf9c5df15a593f1ca2846a35fce92f34ebd40492c71",
  "number": 49211,
  "timestamp": 1438969935,
  "nonce": "0x16e9d199e94718ba",
  "difficulty": 1476374715906,
  "gasLimit": {
    "_hex": "0x29018"
  },
  "gasUsed": {
    "_hex": "0x546c"
  },
  "miner": "0x753562eEA69CD2D342A9c07EDD49b9753dc0F01e",
  "extraData": "0x476574682f76312e302e312f6c696e75782f676f312e342e32",
  "transactions": [
    {
      "hash": "0x55074092615268c1f9b06f39f14ac4cd3c4baa3d5d215cf448a80a0647673316",
      "blockHash": "0x266cc5e1dba84ed71e935721536b84e2e7d0115b0bf4e198bda75d720f5ceb87",
      "blockNumber": 49211,
      "transactionIndex": 0,
      "confirmations": null,
      "from": "0x5fD973Af366Aa5157C54659bcfb27cBFA5aC15d6",
      "gasPrice": {
        "_hex": "0xd012496cb"
      },
      "gasLimit": {
        "_hex": "0x61a8"
      },
      "to": "0x2910543Af39abA0Cd09dBb2D50200b3E800A63D2",
      "value": {
        "_hex": "0xd8d5c3719f1cf60000"
      },
      "nonce": 0,
      "data": "0x454e4b33524b515a30",
      "r": "0x19aaea96ae39f5441bf2d6241cbcef0c34d20be8c762aa068efa1e6aa7670500",
      "s": "0x059a5261bb448fc24edb6509d9d5a58f3249ace407d8a7ff8f21b25292744249",
      "v": 28,
      "creates": null,
      "raw": "0xf87680850d012496cb8261a8942910543af39aba0cd09dbb2d50200b3e800a63d289d8d5c3719f1cf6000089454e4b33524b515a301ca019aaea96ae39f5441bf2d6241cbcef0c34d20be8c762aa068efa1e6aa7670500a0059a5261bb448fc24edb6509d9d5a58f3249ace407d8a7ff8f21b25292744249",
      "networkId": 0,
      "chainId": 0
    }
  ]
}