{
  "hash": "0xfb2d3c9b4543b6f16a19e128aeac1759f3d284d689a0f5362aad1fd7be1ac0bb",
  "parentHash": "0x0c1f3d981dc1b6b3b957dc774adfa9eff39000afccef1479245025cf9ab43f88",
  "number": 80631,
  "timestamp": 1439488307,
  "nonce": "0xfb9473c5bfffd8ce",
  "difficulty": 2432145373026,
  "gasLimit": {
    "_hex": "0x2fefd8"
  },
  "gasUsed": {
    "_hex": "0x1b4ad"
  },
  "miner": "0x5F8F73E26CdF436f19Cb24C82F90A15AFe55b592",
  "extraData": "0x476574682f76312e302e312f77696e646f77732f676f312e342e32",
  "transactions": [
    {
      "hash": "0xffe49900e1590aadc37b6481211a3f2abf3589df234fc823902ee862185f2a85",
      "blockHash": "0xfb2d3c9b4543b6f16a19e128aeac1759f3d284d689a0f5362aad1fd7be1ac0bb",
      "blockNumber": 80631,
      "transactionIndex": 0,
      "confirmations": null,
      "from": "0x87C5B5874A18B4306DF8a752a6C8cc3E82daFc19",
      "gasPrice": {
        "_hex": "0x10e59efbecf"
      },
      "gasLimit": {
        "_hex": "0x493e0"
      },
      "to": "0xC4c51de1AbF5D60DBd329eC0F999Fd8f021ae9fC",
      "value": {
        "_hex": "0x2576a1cd7797076"
      },
      "nonce": 267,
      "data": "0x8d2161860000000000000000000000000000000000000000000000000000000000000006d3d96ceed0cfca4794c2a5a3d3aeefe69da0a2a669e66a5651f30b64831c3db0",
      "r": "0x7f5cef9fa2e6501e73bc4a1f7acc5d08ea19938e2885f81a9e95437db212a714",
      "s": "0x38db50be7ec9e548b8ac5576f645f9f8d7cb0f38b5a74ca0691c264224ebb1c3",
      "v": 27,
      "creates": null,
      "raw": "0xf8b582010b86010e59efbecf830493e094c4c51de1abf5d60dbd329ec0f999fd8f021ae9fc8802576a1cd7797076b8448d2161860000000000000000000000000000000000000000000000000000000000000006d3d96ceed0cfca4794c2a5a3d3aeefe69da0a2a669e66a5651f30b64831c3db01ba07f5cef9fa2e6501e73bc4a1f7acc5d08ea19938e2885f81a9e95437db212a714a038db50be7ec9e548b8ac5576f645f9f8d7cb0f38b5a74ca0691c264224ebb1c3",
      "networkId": 0,
      "chainId": 0
    }
  ]
}