{
  "hash": "0xeb7f88404e68feb937daf8ec8965b67bd86d4b0eaf8a2f0c4fe87af0fb9a0a87",
  "parentHash": "0x3cb8d7ab0a1899187437d5561df13033d48d4f92dfbe9a3af077eb592fc1c93c",
  "number": 64686,
  "timestamp": 1439224851,
  "nonce": "0xe3d91bb12e6b9e24",
  "difficulty": 1883911669859,
  "gasLimit": {
    "_hex": "0x2fefd8"
  },
  "gasUsed": {
    "_hex": "0x5208"
  },
  "miner": "0xf927a40C8B7F6E07c5af7FA2155B4864a4112B13",
  "extraData": "0x",
  "transactions": [
    {
      "hash": "0xd5b64a0a5966bb116926d302e2ef0e2baa8c2bfc202a625c2ef465693b29b65d",
      "blockHash": "0xeb7f88404e68feb937daf8ec8965b67bd86d4b0eaf8a2f0c4fe87af0fb9a0a87",
      "blockNumber": 64686,
      "transactionIndex": 0,
      "confirmations": null,
      "from": "0x175F4e56318c2C9d4E89e179ea769CD399D4B0b9",
      "gasPrice": {
        "_hex": "0xba43b7400"
      },
      "gasLimit": {
        "_hex": "0x5208"
      },
      "to": "0x6747f922385c9a6F9cfDf095F34345257DD597bE",
      "value": {
        "_hex": "0x13572147582a000"
      },
      "nonce": 1,
      "data": "0x",
      "r": "0xf33e6e0205297942db12d59acad4b6b5f764f90c0385f70d95fb82bea722215e",
      "s": "0x41491e8814a0fff6385e025e6cf4581349e1d7930d654a39f4966bbbd88a3352",
      "v": 28,
      "creates": null,
      "raw": "0xf86c01850ba43b7400825208946747f922385c9a6f9cfdf095f34345257dd597be88013572147582a000801ca0f33e6e0205297942db12d59acad4b6b5f764f90c0385f70d95fb82bea722215ea041491e8814a0fff6385e025e6cf4581349e1d7930d654a39f4966bbbd88a3352",
      "networkId": 0,
      "chainId": 0
    }
  ]
}