{
  "hash": "0xcaad272f4e48220716e4e57c4636414ac734b2bfd2f53965cf9b0210496832f3",
  "parentHash": "0x53456f217e55f73b5449a25419977e520bdffe98f3a7fb9b2842ddf3408eff4c",
  "number": 54369,
  "timestamp": 1439053114,
  "nonce": "0xf7c342c3b241ffa1",
  "difficulty": 1611016452710,
  "gasLimit": {
    "_hex": "0x2fefd8"
  },
  "gasUsed": {
    "_hex": "0xa410"
  },
  "miner": "0xbb7B8287f3F0a933474a79eAe42CBCa977791171",
  "extraData": "0x476574682f4c5649562f76312e302e312f6c696e75782f676f312e342e32",
  "transactions": [
    {
      "hash": "0x71e68d868b86de8849b3af0652066b71ba6cd438f7a5a806e624ec10f1a1bc08",
      "blockHash": "0xcaad272f4e48220716e4e57c4636414ac734b2bfd2f53965cf9b0210496832f3",
      "blockNumber": 54369,
      "transactionIndex": 0,
      "confirmations": null,
      "from": "0x32Be343B94f860124dC4fEe278FDCBD38C102D88",
      "gasPrice": {
        "_hex": "0xdd49baed1"
      },
      "gasLimit": {
        "_hex": "0x5208"
      },
      "to": "0x4CE721831BBceD3c25F6c97538527d3d2ae3B5Ad",
      "value": {
        "_hex": "0x6334bae4b54000"
      },
      "nonce": 55,
      "data": "0x",
      "r": "0xd12932853ab0ebd19c701209e8efaf759dcadb37b7b24c62f4e1fee6e28ca4ee",
      "s": "0x7036221bfae6d63a441e03c0cca077a4839e89e25432099ff6f30ab704d6e7f2",
      "v": 28,
      "creates": null,
      "raw": "0xf86b37850dd49baed1825208944ce721831bbced3c25f6c97538527d3d2ae3b5ad876334bae4b54000801ca0d12932853ab0ebd19c701209e8efaf759dcadb37b7b24c62f4e1fee6e28ca4eea07036221bfae6d63a441e03c0cca077a4839e89e25432099ff6f30ab704d6e7f2",
      "networkId": 0,
      "chainId": 0
    },
    {
      "hash": "0x6a039edb61f5d7501c3e1a835a9f6a189edd04bf92af8f5a022fe9f34aee3a67",
      "blockHash": "0xcaad272f4e48220716e4e57c4636414ac734b2bfd2f53965cf9b0210496832f3",
      "blockNumber": 54369,
      "transactionIndex": 1,
      "confirmations": null,
      "from": "0x049e02AC3F202e135d2Ae5f9bd786ccc6Ac8AB1e",
      "gasPrice": {
        "_hex": "0xdd49baed1"
      },
      "gasLimit": {
        "_hex": "0x5208"
      },
      "to": "0x32Be343B94f860124dC4fEe278FDCBD38C102D88",
      "value": {
        "_hex": "0x1fc6fc12965b6a00000"
      },
      "nonce": 2,
      "data": "0x",
      "r": "0xdddf2d4e748cfa7f875a1a277e49ce5ef7b9ad83938072daf40f361a339ac33d",
      "s": "0x3b03e940f8678d3b6435e4b8d8de02cafd6bdf1b018ce6eae736eae594e0906a",
      "v": 28,
      "creates": null,
      "raw": "0xf86e02850dd49baed18252089432be343b94f860124dc4fee278fdcbd38c102d888a01fc6fc12965b6a00000801ca0dddf2d4e748cfa7f875a1a277e49ce5ef7b9ad83938072daf40f361a339ac33da03b03e940f8678d3b6435e4b8d8de02cafd6bdf1b018ce6eae736eae594e0906a",
      "networkId": 0,
      "chainId": 0
    }
  ]
}