{
  "hash": "0x371b95979d8a4e7610fddb6633b86b21905e543b5c76a5201af76021e0fe3f43",
  "parentHash": "0x59f2313f6f0c399dc95d1924bbe42403ae8858cf889c588a982ba8bc43ee2c26",
  "number": 54598,
  "timestamp": 1439056719,
  "nonce": "0x4e6f21a7c048a1cc",
  "difficulty": 1621230898622,
  "gasLimit": {
    "_hex": "0x2fefd8"
  },
  "gasUsed": {
    "_hex": "0x5208"
  },
  "miner": "0xf8E0CA3Ed80bd541b94BEdCf259e8CF2141A9523",
  "extraData": "0x476574682f76312e302e312f77696e646f77732f676f312e342e32",
  "transactions": [
    {
      "hash": "0xe3e61b69b41cca1e0a1733cd9613bf10edd810b291cdd8f2fb76b4ac4c2fc5f0",
      "blockHash": "0x371b95979d8a4e7610fddb6633b86b21905e543b5c76a5201af76021e0fe3f43",
      "blockNumber": 54598,
      "transactionIndex": 0,
      "confirmations": null,
      "from": "0x1C257ad4A55105ea3B58Ed374b198dA266c85f63",
      "gasPrice": {
        "_hex": "0x11416f95f82"
      },
      "gasLimit": {
        "_hex": "0x5208"
      },
      "to": "0x439632734cdF5a84774156c1938CbeDe2eF398F0",
      "value": {
        "_hex": "0xabbcd4ef377580000"
      },
      "nonce": 11,
      "data": "0x",
      "r": "0x75096cd0db08fb34a88f3c402d460154ec68011b2e633d6f6862f99d9cfc170a",
      "s": "0x45b521d3d555998ead1ae62718d5c5621836876676222fd6cb7f18a555b7c644",
      "v": 27,
      "creates": null,
      "raw": "0xf86e0b86011416f95f8282520894439632734cdf5a84774156c1938cbede2ef398f0890abbcd4ef377580000801ba075096cd0db08fb34a88f3c402d460154ec68011b2e633d6f6862f99d9cfc170aa045b521d3d555998ead1ae62718d5c5621836876676222fd6cb7f18a555b7c644",
      "networkId": 0,
      "chainId": 0
    }
  ]
}