{
  "hash": "0x848badfd3d3c1d4523750638a5764bcc4883867cdb65b4e5f352c60705bf17a0",
  "parentHash": "0x994563e5a51fc652ed95f68e51d84adb52c4b9214de399fba5499ac9b96296b4",
  "number": 72883,
  "timestamp": 1439359713,
  "nonce": "0x51e54ecf2f42141c",
  "difficulty": 2194999322650,
  "gasLimit": {
    "_hex": "0x2fefd8"
  },
  "gasUsed": {
    "_hex": "0x5208"
  },
  "miner": "0x88D74a59454F6cF3B51ef6b9136AFb6b9D405A88",
  "extraData": "0x476574682f76312e302e312d38326566323666362f6c696e75782f676f312e34",
  "transactions": [
    {
      "hash": "0x17f9f352c69fd8c8036a3429e865866e01e052a6cd0ed39e0122a1086d7d78e3",
      "blockHash": "0x848badfd3d3c1d4523750638a5764bcc4883867cdb65b4e5f352c60705bf17a0",
      "blockNumber": 72883,
      "transactionIndex": 0,
      "confirmations": null,
      "from": "0x723E05fF30e4ba7A87b4D7D459eE5B488A9c36d1",
      "gasPrice": {
        "_hex": "0xd50a0b95b"
      },
      "gasLimit": {
        "_hex": "0x15f90"
      },
      "to": "0xabceA603089850F8f6bB612A9031554D90A247CF",
      "value": {
        "_hex": "0x4563918244f40000"
      },
      "nonce": 5,
      "data": "0x",
      "r": "0x3b4839b742fc1070afb0486d7ba89d667dc58fd31ab3c9dbaf426413cce46cd5",
      "s": "0x37cc4ff2e5608348b2a58d3d8bd3fb9c3df9aa6f49d6636c97f21dbfc3adf46f",
      "v": 27,
      "creates": null,
      "raw": "0xf86d05850d50a0b95b83015f9094abcea603089850f8f6bb612a9031554d90a247cf884563918244f40000801ba03b4839b742fc1070afb0486d7ba89d667dc58fd31ab3c9dbaf426413cce46cd5a037cc4ff2e5608348b2a58d3d8bd3fb9c3df9aa6f49d6636c97f21dbfc3adf46f",
      "networkId": 0,
      "chainId": 0
    }
  ]
}