{
  "hash": "0x08a330d80779018ac21231d3a68efdc327e249feee2e9747617b5350b831eec7",
  "parentHash": "0xb87449a1958afa6b21dbe556cfab96b1379c41b2df6271c1127abc53c5acbec8",
  "number": 47371,
  "timestamp": 1438939077,
  "nonce": "0x4aefa0ace8f4f79e",
  "difficulty": 1452385457599,
  "gasLimit": {
    "_hex": "0xb657"
  },
  "gasUsed": {
    "_hex": "0x5208"
  },
  "miner": "0xe6A7a1d47ff21B6321162AEA7C6CB457D5476Bca",
  "extraData": "0x657468706f6f6c2e6f7267",
  "transactions": [
    {
      "hash": "0x8e44d9c20f77781c517c264f4d6e2b30ea9bf660e9d1419218be210c2b46cc97",
      "blockHash": "0x08a330d80779018ac21231d3a68efdc327e249feee2e9747617b5350b831eec7",
      "blockNumber": 47371,
      "transactionIndex": 0,
      "confirmations": null,
      "from": "0xe6A7a1d47ff21B6321162AEA7C6CB457D5476Bca",
      "gasPrice": {
        "_hex": "0x1db0e425f2"
      },
      "gasLimit": {
        "_hex": "0x5208"
      },
      "to": "0x997E716b471Eb766bfD24C76F7F94f51D0Ff695c",
      "value": {
        "_hex": "0x1100eefba9ab16bb0"
      },
      "nonce": 127,
      "data": "0x",
      "r": "0xa377f42fe492f404c30e393e42cb7a36a2bdccdcd4c985ad4ac589c8064c49e2",
      "s": "0x677d6dfa5eede05a58fb7b45a78ab29ce957bbb2d3b9a77c20f48ba8390797dd",
      "v": 28,
      "creates": null,
      "raw": "0xf86d7f851db0e425f282520894997e716b471eb766bfd24c76f7f94f51d0ff695c8901100eefba9ab16bb0801ca0a377f42fe492f404c30e393e42cb7a36a2bdccdcd4c985ad4ac589c8064c49e2a0677d6dfa5eede05a58fb7b45a78ab29ce957bbb2d3b9a77c20f48ba8390797dd",
      "networkId": 0,
      "chainId": 0
    }
  ]
}