{
  "hash": "0x139ed39ad407f4e160564ca9e84adf8f49a76753092a362da21bc80fb2ea77ef",
  "parentHash": "0xe316aad26aad395692ff4cc8e4b85394b605beed821f1b3114772f07a280ded9",
  "number": 86421,
  "timestamp": 1439577850,
  "nonce": "0xe00d1c73467c9564",
  "difficulty": 2897547760513,
  "gasLimit": {
    "_hex": "0x2fefd5"
  },
  "gasUsed": {
    "_hex": "0xf618"
  },
  "miner": "0xf927a40C8B7F6E07c5af7FA2155B4864a4112B13",
  "extraData": "0x",
  "transactions": [
    {
      "hash": "0x499751bfecd97e4b0832d73d66ecbb1851e9cb4b3ec7525c668dda5c3d250b70",
      "blockHash": "0x139ed39ad407f4e160564ca9e84adf8f49a76753092a362da21bc80fb2ea77ef",
      "blockNumber": 86421,
      "transactionIndex": 0,
      "confirmations": null,
      "from": "0x13aE5B35f82651Ff327d41502F0Aa90DA76D777E",
      "gasPrice": {
        "_hex": "0xd5724fdee"
      },
      "gasLimit": {
        "_hex": "0x5208"
      },
      "to": "0x32Be343B94f860124dC4fEe278FDCBD38C102D88",
      "value": {
        "_hex": "0x8c26222816b65000"
      },
      "nonce": 2,
      "data": "0x",
      "r": "0x24afa78b96656c278bb589de1ca6c849176f1869afe0cd50ff4c97a5935996a1",
      "s": "0x7087af93d41d5b77611c5d4100d2fbe5a78507916099286e580ef19b278591dc",
      "v": 28,
      "creates": null,
      "raw": "0xf86c02850d5724fdee8252089432be343b94f860124dc4fee278fdcbd38c102d88888c26222816b65000801ca024afa78b96656c278bb589de1ca6c849176f1869afe0cd50ff4c97a5935996a1a07087af93d41d5b77611c5d4100d2fbe5a78507916099286e580ef19b278591dc",
      "networkId": 0,
      "chainId": 0
    },
    {
      "hash": "0x5560b5a19c78c9e77e060db156daf0ae488a34bd972abf8b3b9c2171b0f6531d",
      "blockHash": "0x139ed39ad407f4e160564ca9e84adf8f49a76753092a362da21bc80fb2ea77ef",
      "blockNumber": 86421,
      "transactionIndex": 1,
      "confirmations": null,
      "from": "0xa70a9a7040d542C632D8e0bE7c5513A8a5Bbc752",
      "gasPrice": {
        "_hex": "0xd5724fdee"
      },
      "gasLimit": {
        "_hex": "0x5208"
      },
      "to": "0x32Be343B94f860124dC4fEe278FDCBD38C102D88",
      "value": {
        "_hex": "0x455f4b2d74385400"
      },
      "nonce": 94,
      "data": "0x",
      "r": "0x4df4c50c1d24c82d6ce3ecb81607deafaa8dfe7e64fbb20827eae7a0fa9e1051",
      "s": "0x24068199021e5d4793824294450254ebaf3e786ac9dbe12e5f747a8acf107dc0",
      "v": 28,
      "creates": null,
      "raw": "0xf86c5e850d5724fdee8252089432be343b94f860124dc4fee278fdcbd38c102d8888455f4b2d74385400801ca04df4c50c1d24c82d6ce3ecb81607deafaa8dfe7e64fbb20827eae7a0fa9e1051a024068199021e5d4793824294450254ebaf3e786ac9dbe12e5f747a8acf107dc0",
      "networkId": 0,
      "chainId": 0
    },
    {
      "hash": "0x2709094021c7250dc42a1ee0822ef59ffda2628c76a7c867cbe643665d61c3bf",
      "blockHash": "0x139ed39ad407f4e160564ca9e84adf8f49a76753092a362da21bc80fb2ea77ef",
      "blockNumber": 86421,
      "transactionIndex": 2,
      "confirmations": null,
      "from": "0x96811Ad897894eC178872117C8BF2f03971A393B",
      "gasPrice": {
        "_hex": "0xd5724fdee"
      },
      "gasLimit": {
        "_hex": "0x5208"
      },
      "to": "0x32Be343B94f860124dC4fEe278FDCBD38C102D88",
      "value": {
        "_hex": "0xbe1bf35a20c6c800"
      },
      "nonce": 33,
      "data": "0x",
      "r": "0x691f1ea1a27ac28f9c65718d2aca4bc2c330f487be7b6d62b66d454cd2ce427d",
      "s": "0x78015fc9b0d1ee13fe2fb47ce2dffef87be51eb95d6ea15bc834ca21450d733b",
      "v": 27,
      "creates": null,
      "raw": "0xf86c21850d5724fdee8252089432be343b94f860124dc4fee278fdcbd38c102d8888be1bf35a20c6c800801ba0691f1ea1a27ac28f9c65718d2aca4bc2c330f487be7b6d62b66d454cd2ce427da078015fc9b0d1ee13fe2fb47ce2dffef87be51eb95d6ea15bc834ca21450d733b",
      "networkId": 0,
      "chainId": 0
    }
  ]
}