{
  "hash": "0x59b3c3d0b5fd5d7313409bcd8baf4577f2d6666879dc07ed78f2396f5c8991bc",
  "parentHash": "0xb0c5a16dce6c868cc98689d35d38de86f0fd7ae804f625a83a0473627b94f3a9",
  "number": 71520,
  "timestamp": 1439337530,
  "nonce": "0x2b8f724b330ba1c4",
  "difficulty": 2168720121980,
  "gasLimit": {
    "_hex": "0x2fefd8"
  },
  "gasUsed": {
    "_hex": "0x5208"
  },
  "miner": "0x9D49F602b0fdb924Bd63DDE2Bd0907E4A07c63a7",
  "extraData": "0x476574682f76312e302e312f6c696e75782f676f312e342e32",
  "transactions": [
    {
      "hash": "0x500bc44d80fdc0e820b8994d10bb686848304c4e2d2df9eeaec5e3cf20af311a",
      "blockHash": "0x59b3c3d0b5fd5d7313409bcd8baf4577f2d6666879dc07ed78f2396f5c8991bc",
      "blockNumber": 71520,
      "transactionIndex": 0,
      "confirmations": null,
      "from": "0x87898CE53471043FcCa0a2aF4E1dC6d8B3fCf607",
      "gasPrice": {
        "_hex": "0xdc72a9ee5"
      },
      "gasLimit": {
        "_hex": "0x5208"
      },
      "to": "0xBFdD9820a04283b289957956353b5F3C1F665EcF",
      "value": {
        "_hex": "0x1a055690d9db80000"
      },
      "nonce": 24,
      "data": "0x",
      "r": "0x3aefe17c344ce0eb9ec5b85fda8b028b4f36cf1258c7fac54bd6cc3b6b0d4681",
      "s": "0x66530d3fa729e5391bbd84b6429fd709c666aa0f9b93f93fa0598d307618f721",
      "v": 28,
      "creates": null,
      "raw": "0xf86d18850dc72a9ee582520894bfdd9820a04283b289957956353b5f3c1f665ecf8901a055690d9db80000801ca03aefe17c344ce0eb9ec5b85fda8b028b4f36cf1258c7fac54bd6cc3b6b0d4681a066530d3fa729e5391bbd84b6429fd709c666aa0f9b93f93fa0598d307618f721",
      "networkId": 0,
      "chainId": 0
    }
  ]
}