{
  "hash": "0x6c6a743b3d0cfb4a60b735a38b54e4a3129c079c27a6c9dd939fac44bbe50ddf",
  "parentHash": "0xcb0ed31c90b047d75d76fef561d43b9009ddd281155a74ca474733deddb20d30",
  "number": 114636,
  "timestamp": 1440043718,
  "nonce": "0x9ca9a9784b6a2365",
  "difficulty": 4501222292019,
  "gasLimit": {
    "_hex": "0x2fefd8"
  },
  "gasUsed": {
    "_hex": "0xa414"
  },
  "miner": "0x790b8a3cE86E707ED0eD32bF89B3269692a23CC1",
  "extraData": "0xd783010001844765746887676f312e342e32856c696e7578",
  "transactions": [
    {
      "hash": "0xae8a32f687e5a612acd2f7c25f2637e1043e1d3c28eb7a3d36103b6d102d1bd9",
      "blockHash": "0x6c6a743b3d0cfb4a60b735a38b54e4a3129c079c27a6c9dd939fac44bbe50ddf",
      "blockNumber": 114636,
      "transactionIndex": 0,
      "confirmations": null,
      "from": "0x8B454d830feF179e66206840F8F3D1d83bC32b17",
      "gasPrice": {
        "_hex": "0xd49a919f5"
      },
      "gasLimit": {
        "_hex": "0x15f90"
      },
      "to": "0x1543667B9bad3e41865C3233E1764d8dda8E1F3D",
      "value": {
        "_hex": "0x5b12aefafa8040000"
      },
      "nonce": 16,
      "data": "0x",
      "r": "0xba9b172838143835ff43eb746b829dcbe930879148d26114e99249dac6f7efff",
      "s": "0x30b7d94da0441b0285fbcbe3f165a62670751a5f063922f0d70135f3cfc7a452",
      "v": 27,
      "creates": null,
      "raw": "0xf86e10850d49a919f583015f90941543667b9bad3e41865c3233e1764d8dda8e1f3d8905b12aefafa8040000801ba0ba9b172838143835ff43eb746b829dcbe930879148d26114e99249dac6f7efffa030b7d94da0441b0285fbcbe3f165a62670751a5f063922f0d70135f3cfc7a452",
      "networkId": 0,
      "chainId": 0
    },
    {
      "hash": "0xf50d1b9d4c8eda595b6cd288b07eee3149e6289bc1c039ab6294dbba3859b7eb",
      "blockHash": "0x6c6a743b3d0cfb4a60b735a38b54e4a3129c079c27a6c9dd939fac44bbe50ddf",
      "blockNumber": 114636,
      "transactionIndex": 1,
      "confirmations": null,
      "from": "0xfA86CA27bf2854d98870837Fb6F6Dfe4bF6453fc",
      "gasPrice": {
        "_hex": "0xd46d3fee1"
      },
      "gasLimit": {
        "_hex": "0x7530"
      },
      "to": "0xF4086A36d20083CA74a961F3f2D98Db518c6E31B",
      "value": {
        "_hex": "0xd8d726b7177a800000"
      },
      "nonce": 3,
      "data": "0x00",
      "r": "0x7b78e8b9a043d93fd7529630a3082814814478dec64df4bee22002e7d0e0179e",
      "s": "0xbd086fa63620edcc08b432cb5f522e51e104985503eaebdccbf34980ff35fae9",
      "v": 27,
      "creates": null,
      "raw": "0xf86d03850d46d3fee182753094f4086a36d20083ca74a961f3f2d98db518c6e31b89d8d726b7177a800000001ba07b78e8b9a043d93fd7529630a3082814814478dec64df4bee22002e7d0e0179ea0bd086fa63620edcc08b432cb5f522e51e104985503eaebdccbf34980ff35fae9",
      "networkId": 0,
      "chainId": 0
    }
  ]
}