{
  "hash": "0x73d73497de9f85b476e1588b1dc7f1e235a0f40993acb50a203615e6ad88ba2f",
  "parentHash": "0xb40885c43f393d37b12dbe4cdbfb9db689e309c64e664d5b63514badb12b2b32",
  "number": 69497,
  "timestamp": 1439305108,
  "nonce": "0x33218746f18910fb",
  "difficulty": 2060829997630,
  "gasLimit": {
    "_hex": "0x2fefd8"
  },
  "gasUsed": {
    "_hex": "0x546c"
  },
  "miner": "0x0037ce3d4B7f8729C8607D8D0248252Be68202c0",
  "extraData": "0x476574682f76312e302e312f77696e646f77732f676f312e342e32",
  "transactions": [
    {
      "hash": "0xac40b0726adb3fc35a3dc286c7e1c0a4a24b4744323c172871d917ca9a460a67",
      "blockHash": "0x73d73497de9f85b476e1588b1dc7f1e235a0f40993acb50a203615e6ad88ba2f",
      "blockNumber": 69497,
      "transactionIndex": 0,
      "confirmations": null,
      "from": "0x4BbCbF38b3C90163A84b1cD2a93b58b2a3348d87",
      "gasPrice": {
        "_hex": "0x110c8f7d8de"
      },
      "gasLimit": {
        "_hex": "0xc350"
      },
      "to": "0x2910543Af39abA0Cd09dBb2D50200b3E800A63D2",
      "value": {
        "_hex": "0x508083d021ff140000"
      },
      "nonce": 3,
      "data": "0x454e47354a34375130",
      "r": "0x97400754893131d12d716826e947d94cd2149d95051358879847f7290e2effd3",
      "s": "0xe03c1d5a1676bcab13f48dbe9e436c1f046b938518d28f025a95bced583fc8a5",
      "v": 28,
      "creates": null,
      "raw": "0xf87703860110c8f7d8de82c350942910543af39aba0cd09dbb2d50200b3e800a63d289508083d021ff14000089454e47354a343751301ca097400754893131d12d716826e947d94cd2149d95051358879847f7290e2effd3a0e03c1d5a1676bcab13f48dbe9e436c1f046b938518d28f025a95bced583fc8a5",
      "networkId": 0,
      "chainId": 0
    }
  ]
}