{
  "hash": "0x737ac188387045c353c4041275c16f2d1cb21fab07c2a72cf5c5cd2495ec3a32",
  "parentHash": "0xfe4eece698d8d03a27132546b4463a9e5cc748076836c47540b0d443b4b85c0a",
  "number": 82969,
  "timestamp": 1439527757,
  "nonce": "0x9c26ae5a068a330c",
  "difficulty": 2412545768480,
  "gasLimit": {
    "_hex": "0x2fefd8"
  },
  "gasUsed": {
    "_hex": "0x546c"
  },
  "miner": "0xF2d2AfF1320476cb8C6b607199D23175cc595693",
  "extraData": "0x476574682f76312e302e312f77696e646f77732f676f312e342e32",
  "transactions": [
    {
      "hash": "0xaaf2dc5531aaf5c2a58a0cd553689a8924e9ef667380def9c99d3f2e40c0fde9",
      "blockHash": "0x737ac188387045c353c4041275c16f2d1cb21fab07c2a72cf5c5cd2495ec3a32",
      "blockNumber": 82969,
      "transactionIndex": 0,
      "confirmations": null,
      "from": "0xD0E35E047646E759F4517093D6408642517F084d",
      "gasPrice": {
        "_hex": "0x110c8f7d8de"
      },
      "gasLimit": {
        "_hex": "0xc350"
      },
      "to": "0x2910543Af39abA0Cd09dBb2D50200b3E800A63D2",
      "value": {
        "_hex": "0xd551185379fa1c0000"
      },
      "nonce": 0,
      "data": "0x454e43473852434738",
      "r": "0x81851529f630de1f48ae02d14214a80cdfcc8e2f84b60736036beb84e67dc605",
      "s": "0x25a15f59b361f1c8cfd001c88fccd412f0e22711894f15a8bd66e537a48173f6",
      "v": 27,
      "creates": null,
      "raw": "0xf87780860110c8f7d8de82c350942910543af39aba0cd09dbb2d50200b3e800a63d289d551185379fa1c000089454e434738524347381ba081851529f630de1f48ae02d14214a80cdfcc8e2f84b60736036beb84e67dc605a025a15f59b361f1c8cfd001c88fccd412f0e22711894f15a8bd66e537a48173f6",
      "networkId": 0,
      "chainId": 0
    }
  ]
}