{
  "hash": "0x47390ec9d862054314e7d173adcebbbb03e12ebaa1dfe0a6a25b45d30da46f5e",
  "parentHash": "0x656f94f3bc4f1d8ba83fa067d9fe9bde13388945f79ad4e7cc487b26ab890a11",
  "number": 71692,
  "timestamp": 1439340142,
  "nonce": "0x44a46965dcdc043c",
  "difficulty": 2181420040524,
  "gasLimit": {
    "_hex": "0x2fefd8"
  },
  "gasUsed": {
    "_hex": "0x17836"
  },
  "miner": "0xeB1325C8D9d3ea8D74aC11F4B00F1B2367686319",
  "extraData": "0x476574682f76312e302e312f77696e646f77732f676f312e342e32",
  "transactions": [
    {
      "hash": "0x4dec02cf0f6b9fe23675956dd46415d32fec3c8cceb7e1e48553abe29555b51f",
      "blockHash": "0x47390ec9d862054314e7d173adcebbbb03e12ebaa1dfe0a6a25b45d30da46f5e",
      "blockNumber": 71692,
      "transactionIndex": 0,
      "confirmations": null,
      "from": "0x36d85Dc3683156e63Bf880A9fAb7788CF8143a27",
      "gasPrice": {
        "_hex": "0xdb2461c1b"
      },
      "gasLimit": {
        "_hex": "0x7a120"
      },
      "to": "0xfBc128067A2FE13C11BBC6cc55f29AA1F27630DA",
      "value": {
        "_hex": "0xde0b6b3a7640000"
      },
      "nonce": 8,
      "data": "0x",
      "r": "0x52875a3ced68c5bcd573aa0b42462f65402312bcc562bee39b67076e7b3f5573",
      "s": "0x006f7850cd42361c5d5403600404aa1fb06b1d87a7a9473d5acc42cda0659893",
      "v": 28,
      "creates": null,
      "raw": "0xf86c08850db2461c1b8307a12094fbc128067a2fe13c11bbc6cc55f29aa1f27630da880de0b6b3a7640000801ca052875a3ced68c5bcd573aa0b42462f65402312bcc562bee39b67076e7b3f55739f6f7850cd42361c5d5403600404aa1fb06b1d87a7a9473d5acc42cda0659893",
      "networkId": 0,
      "chainId": 0
    },
    {
      "hash": "0xa67cfc073dc86417dc4cc1b47ea672971d2702e4471eaea5264db57fa1edf591",
      "blockHash": "0x47390ec9d862054314e7d173adcebbbb03e12ebaa1dfe0a6a25b45d30da46f5e",
      "blockNumber": 71692,
      "transactionIndex": 1,
      "confirmations": null,
      "from": "0x17580B766f7453525ca4C6A88b01b50570EA088C",
      "gasPrice": {
        "_hex": "0xd4e97ea60"
      },
      "gasLimit": {
        "_hex": "0x61a80"
      },
      "to": "0x5Fe5B7546D1628f7348B023A0393de1FC825A4fD",
      "value": {
        "_hex": "0x53444835ec580000"
      },
      "nonce": 258,
      "data": "0xb595b8b50000000000000000000000000000000000000000000000000000000000000000",
      "r": "0xdf2784345acd603ea2ba09c4c749ce34e346efbc01f4e952377d8e45dbf2eccb",
      "s": "0x650eca7f244f46169b157435523971966dd0eb0f0d6fda7d375a2b268c07aa66",
      "v": 27,
      "creates": null,
      "raw": "0xf893820102850d4e97ea6083061a80945fe5b7546d1628f7348b023a0393de1fc825a4fd8853444835ec580000a4b595b8b500000000000000000000000000000000000000000000000000000000000000001ba0df2784345acd603ea2ba09c4c749ce34e346efbc01f4e952377d8e45dbf2eccba0650eca7f244f46169b157435523971966dd0eb0f0d6fda7d375a2b268c07aa66",
      "networkId": 0,
      "chainId": 0
    }
  ]
}