{
  "hash": "0x710aa96af5ac213306dc530f98109073d3c842d8ba92f9a1d47634db55488194",
  "parentHash": "0xb47e9783bd80efe6e3b3258456d6b591e65e1bfd15caf3771a1d44a45f406f45",
  "number": 72502,
  "timestamp": 1439353731,
  "nonce": "0x43023655292fbef8",
  "difficulty": 2200464695150,
  "gasLimit": {
    "_hex": "0x2fe418"
  },
  "gasUsed": {
    "_hex": "0x5208"
  },
  "miner": "0x55D1554b08a5311C5c0A0B6464162192f9D2f884",
  "extraData": "0x",
  "transactions": [
    {
      "hash": "0x36c12c1df75eb1b7bf67bffa64d65f3d16f132bb291cd3ceb8ca4d4b90ff9658",
      "blockHash": "0x710aa96af5ac213306dc530f98109073d3c842d8ba92f9a1d47634db55488194",
      "blockNumber": 72502,
      "transactionIndex": 0,
      "confirmations": null,
      "from": "0xe8a09f2DdC6D33E1dCE008B1810B5D317Cd7891e",
      "gasPrice": {
        "_hex": "0xe11aabe85"
      },
      "gasLimit": {
        "_hex": "0x15f90"
      },
      "to": "0x6d37bd781411ccDd33792481E2C9CE5b62D3a5B8",
      "value": {
        "_hex": "0xf9ccd8a1c5080000"
      },
      "nonce": 1,
      "data": "0x",
      "r": "0xa807eac5be70edc9fdf200bef0108377a0665cf9827de9ba1138bfbe777d51fb",
      "s": "0x3e795f1dfc772ae40fa0c3969fd7f211c8a121b43c6f4db38c453a3000552614",
      "v": 27,
      "creates": null,
      "raw": "0xf86d01850e11aabe8583015f90946d37bd781411ccdd33792481e2c9ce5b62d3a5b888f9ccd8a1c5080000801ba0a807eac5be70edc9fdf200bef0108377a0665cf9827de9ba1138bfbe777d51fba03e795f1dfc772ae40fa0c3969fd7f211c8a121b43c6f4db38c453a3000552614",
      "networkId": 0,
      "chainId": 0
    }
  ]
}