{
  "hash": "0x553911d2380521730bd00331715ce300e2b9a939f08e9ee18b90e54c446d877b",
  "parentHash": "0x4dc279218da04fae877170c55e2beb5a9d52e419438327b697d5562b4efaa4cb",
  "number": 71802,
  "timestamp": 1439342197,
  "nonce": "0x0394a75baa56bbc4",
  "difficulty": 2168647217283,
  "gasLimit": {
    "_hex": "0x2fefd8"
  },
  "gasUsed": {
    "_hex": "0x546c"
  },
  "miner": "0xf927a40C8B7F6E07c5af7FA2155B4864a4112B13",
  "extraData": "0x",
  "transactions": [
    {
      "hash": "0x2362754911b0ee3989830b64b3ab70573857f1243636bbf543bea2228a183bf3",
      "blockHash": "0x553911d2380521730bd00331715ce300e2b9a939f08e9ee18b90e54c446d877b",
      "blockNumber": 71802,
      "transactionIndex": 0,
      "confirmations": null,
      "from": "0x2e7f465520ec35Cc23d68e75651BB6689544a196",
      "gasPrice": {
        "_hex": "0x110c8f7d8de"
      },
      "gasLimit": {
        "_hex": "0xc350"
      },
      "to": "0x2910543Af39abA0Cd09dBb2D50200b3E800A63D2",
      "value": {
        "_hex": "0x37d61f16d37c580000"
      },
      "nonce": 0,
      "data": "0x454e584e47514e4330",
      "r": "0xddfd59bbd010e80a722f57d3329dfef8abd5e046f3bfa46ed7cdadb831b843be",
      "s": "0xbf4e7ef968f48ef5af4ee46df2412637b7ce85aa2541f1f4fa23b38dc487c527",
      "v": 27,
      "creates": null,
      "raw": "0xf87780860110c8f7d8de82c350942910543af39aba0cd09dbb2d50200b3e800a63d28937d61f16d37c58000089454e584e47514e43301ba0ddfd59bbd010e80a722f57d3329dfef8abd5e046f3bfa46ed7cdadb831b843bea0bf4e7ef968f48ef5af4ee46df2412637b7ce85aa2541f1f4fa23b38dc487c527",
      "networkId": 0,
      "chainId": 0
    }
  ]
}