{
  "hash": "0x92f374e06ca7e918eae99c6a48ea074406ab1c80970a96047d87909e9cb29d28",
  "parentHash": "0x9f6edff1c573b0d6e1a19dc7a59f5bc4232ffabd20f543e776d42453cebab589",
  "number": 90200,
  "timestamp": 1439636339,
  "nonce": "0x9f886eb88b6a7222",
  "difficulty": 3296327035243,
  "gasLimit": {
    "_hex": "0x2fefd8"
  },
  "gasUsed": {
    "_hex": "0x5208"
  },
  "miner": "0xe6A7a1d47ff21B6321162AEA7C6CB457D5476Bca",
  "extraData": "0x476574682f76312e302e312d38326566323666362f6c696e75782f676f312e34",
  "transactions": [
    {
      "hash": "0x88150621f06ddf825ebbf6c05c58621960fa4da9f158295765ee59198ac7989f",
      "blockHash": "0x92f374e06ca7e918eae99c6a48ea074406ab1c80970a96047d87909e9cb29d28",
      "blockNumber": 90200,
      "transactionIndex": 0,
      "confirmations": null,
      "from": "0x99A56EF6B3b9b650505DbbD96a01A84Cadc08976",
      "gasPrice": {
        "_hex": "0xce9364b34"
      },
      "gasLimit": {
        "_hex": "0x30d40"
      },
      "to": "0x120A270bbC009644e35F0bB6ab13f95b8199c4ad",
      "value": {
        "_hex": "0xd0034dd1dddb8f00"
      },
      "nonce": 0,
      "data": "0x",
      "r": "0x487136b91db642a3d083bf9ac1dbe43cf5fa20b7b92b8a717e6adb9bd77a3ed3",
      "s": "0x6e83f0a20e043172259c856fa94d45d5cf21990d24d7f7856283c75ea6dbee38",
      "v": 27,
      "creates": null,
      "raw": "0xf86d80850ce9364b3483030d4094120a270bbc009644e35f0bb6ab13f95b8199c4ad88d0034dd1dddb8f00801ba0487136b91db642a3d083bf9ac1dbe43cf5fa20b7b92b8a717e6adb9bd77a3ed3a06e83f0a20e043172259c856fa94d45d5cf21990d24d7f7856283c75ea6dbee38",
      "networkId": 0,
      "chainId": 0
    }
  ]
}