{
  "hash": "0xbc037368e09af67025af262a0a33557dceb63d3522671c51c87802b797dc8fd5",
  "parentHash": "0x80f56d650fe6ab5826eff5398b9215f5ec93d60f3ce7866248b06b72fd606c92",
  "number": 102937,
  "timestamp": 1439845422,
  "nonce": "0x1e3e270627467e49",
  "difficulty": 4106133715067,
  "gasLimit": {
    "_hex": "0x2fefd8"
  },
  "gasUsed": {
    "_hex": "0x5208"
  },
  "miner": "0xe6A7a1d47ff21B6321162AEA7C6CB457D5476Bca",
  "extraData": "0x476574682f76312e302e312d38326566323666362f6c696e75782f676f312e34",
  "transactions": [
    {
      "hash": "0xecedbacdcbe4eeac878290e06b34ecf2b24a9c9e7299498840f3e3d9c56fa1e2",
      "blockHash": "0xbc037368e09af67025af262a0a33557dceb63d3522671c51c87802b797dc8fd5",
      "blockNumber": 102937,
      "transactionIndex": 0,
      "confirmations": null,
      "from": "0xb1abce2918E21ddb93AA452731a12672A3d9F75a",
      "gasPrice": {
        "_hex": "0xdc3f74474"
      },
      "gasLimit": {
        "_hex": "0x5208"
      },
      "to": "0x32Be343B94f860124dC4fEe278FDCBD38C102D88",
      "value": {
        "_hex": "0x455f284eba23ac00"
      },
      "nonce": 111,
      "data": "0x",
      "r": "0xc47a3445abce6f73425c0d83509f425ad75652130c52eccdf84381bb6afe0a34",
      "s": "0x3ff65e811e63c08a9d8dfdd2c3feb9022f43406a45dfa4248c65f047669b5eb8",
      "v": 27,
      "creates": null,
      "raw": "0xf86c6f850dc3f744748252089432be343b94f860124dc4fee278fdcbd38c102d8888455f284eba23ac00801ba0c47a3445abce6f73425c0d83509f425ad75652130c52eccdf84381bb6afe0a34a03ff65e811e63c08a9d8dfdd2c3feb9022f43406a45dfa4248c65f047669b5eb8",
      "networkId": 0,
      "chainId": 0
    }
  ]
}