{
  "hash": "0x229c9be79ba46f11b81abade3707e016d3fffbbb29e9a51bc7131a348b12ebf8",
  "parentHash": "0xdbaee75aae492ea7ec53ebca93a4515371d1015aff9d545700b5b254a2eb7160",
  "number": 119001,
  "timestamp": 1440135139,
  "nonce": "0xb50763ce480ff38e",
  "difficulty": 4414019216997,
  "gasLimit": {
    "_hex": "0x2fefd8"
  },
  "gasUsed": {
    "_hex": "0x520c"
  },
  "miner": "0x52bc44d5378309EE2abF1539BF71dE1b7d7bE3b5",
  "extraData": "0xd783010002844765746887676f312e342e32856c696e7578",
  "transactions": [
    {
      "hash": "0xaa739d7334a748404c9a78e9bb72c97728820717fd67d05301b7c22cbfc33544",
      "blockHash": "0x229c9be79ba46f11b81abade3707e016d3fffbbb29e9a51bc7131a348b12ebf8",
      "blockNumber": 119001,
      "transactionIndex": 0,
      "confirmations": null,
      "from": "0xb9836ec1f42Bd48331bceaedb74a6Bcdc22832bD",
      "gasPrice": {
        "_hex": "0xd40b8f573"
      },
      "gasLimit": {
        "_hex": "0x7530"
      },
      "to": "0x7cB57B5A97eAbe94205C07890BE4c1aD31E486A8",
      "value": {
        "_hex": "0x38d7ea4c68000"
      },
      "nonce": 23,
      "data": "0x00",
      "r": "0x05a6a201e0bd9cdac6c62ef873d6d31a563a87c48e10de00ed5901743433093b",
      "s": "0xf40341befd34d3e3ca3acaeed0847d78c44a1fad4b33d9942bc784edd60432b0",
      "v": 28,
      "creates": null,
      "raw": "0xf86b17850d40b8f573827530947cb57b5a97eabe94205c07890be4c1ad31e486a887038d7ea4c68000001ca005a6a201e0bd9cdac6c62ef873d6d31a563a87c48e10de00ed5901743433093ba0f40341befd34d3e3ca3acaeed0847d78c44a1fad4b33d9942bc784edd60432b0",
      "networkId": 0,
      "chainId": 0
    }
  ]
}