{
  "hash": "0xaf7c9d029b635d0c27fd8927d4e84f384aa7ebd4b9f68280195077faa7a4c6a2",
  "parentHash": "0xda6ec15171b944da2efd9d81ae5331abc631d06d9d005b870dfcde1fc360dff6",
  "number": 58821,
  "timestamp": 1439127121,
  "nonce": "0x8a0dd7b94f116f72",
  "difficulty": 1714008196070,
  "gasLimit": {
    "_hex": "0x2fefd8"
  },
  "gasUsed": {
    "_hex": "0x5208"
  },
  "miner": "0xf8E0CA3Ed80bd541b94BEdCf259e8CF2141A9523",
  "extraData": "0x476574682f76312e302e312f77696e646f77732f676f312e342e32",
  "transactions": [
    {
      "hash": "0x3a21915524b9e6c4631d09de40bf9abff33e45be491189b05ee29beb46e2aaff",
      "blockHash": "0xaf7c9d029b635d0c27fd8927d4e84f384aa7ebd4b9f68280195077faa7a4c6a2",
      "blockNumber": 58821,
      "transactionIndex": 0,
      "confirmations": null,
      "from": "0x41f4Ce142B9f65bF71Dfbe615812546A21a71F45",
      "gasPrice": {
        "_hex": "0xba43b7400"
      },
      "gasLimit": {
        "_hex": "0x5b04"
      },
      "to": "0xbb7B8287f3F0a933474a79eAe42CBCa977791171",
      "value": {
        "_hex": "0xc7d713b49da0000"
      },
      "nonce": 0,
      "data": "0x",
      "r": "0x8b9c7530846ab526130604415b6e4aba57dd9ea5e388406fb9314db393f472ef",
      "s": "0x97fdaf8d6a5c8f9a47c5b208a779fcb28e3fd8a56e4ba07c51ea50f3af80209e",
      "v": 27,
      "creates": null,
      "raw": "0xf86c80850ba43b7400825b0494bb7b8287f3f0a933474a79eae42cbca977791171880c7d713b49da0000801ba08b9c7530846ab526130604415b6e4aba57dd9ea5e388406fb9314db393f472efa097fdaf8d6a5c8f9a47c5b208a779fcb28e3fd8a56e4ba07c51ea50f3af80209e",
      "networkId": 0,
      "chainId": 0
    }
  ]
}