{
  "hash": "0x70fc7f779c64818d7a16d74915b636fe22af7bbabef0df82f553752b2c9c3637",
  "parentHash": "0x913fe50ec63f9c02611d32e625354ed4fd076fb8d45e780199643d8db5425198",
  "number": 77197,
  "timestamp": 1439433392,
  "nonce": "0xbc00936c9a945f0f",
  "difficulty": 2230596487309,
  "gasLimit": {
    "_hex": "0x2fefd8"
  },
  "gasUsed": {
    "_hex": "0x5208"
  },
  "miner": "0x458F183347F45a4001807728A89F31E9Da9D4A58",
  "extraData": "0x476574682f76312e302e312d38326566323666362f6c696e75782f676f312e34",
  "transactions": [
    {
      "hash": "0xa9fa50581fd696710b175b27856776dd99635ee186a7b4f301f1545cd4170cd7",
      "blockHash": "0x70fc7f779c64818d7a16d74915b636fe22af7bbabef0df82f553752b2c9c3637",
      "blockNumber": 77197,
      "transactionIndex": 0,
      "confirmations": null,
      "from": "0x32Be343B94f860124dC4fEe278FDCBD38C102D88",
      "gasPrice": {
        "_hex": "0xd17558d66"
      },
      "gasLimit": {
        "_hex": "0x5208"
      },
      "to": "0xb794F5eA0ba39494cE839613fffBA74279579268",
      "value": {
        "_hex": "0xa968163f0a57b000000"
      },
      "nonce": 362,
      "data": "0x",
      "r": "0x85f40d62e9db20e50867441bcbef2e323079e0824f470f15c1e31844caea7451",
      "s": "0x1985f833b4278d6ff8e80e435ca9ff0c5c4ba658cf6bd2652f476e9eae057f19",
      "v": 28,
      "creates": null,
      "raw": "0xf87082016a850d17558d6682520894b794f5ea0ba39494ce839613fffba742795792688a0a968163f0a57b000000801ca085f40d62e9db20e50867441bcbef2e323079e0824f470f15c1e31844caea7451a01985f833b4278d6ff8e80e435ca9ff0c5c4ba658cf6bd2652f476e9eae057f19",
      "networkId": 0,
      "chainId": 0
    }
  ]
}