{
  "hash": "0x48d593f1e7c413075dc988661b9c1cb01d1d009a1bce674e7b01c9dbec0d215f",
  "parentHash": "0x7a4ec61982eab13f9a3ae248f98d3eedea35ff28ce76835eac3c04ba2c1b9033",
  "number": 55842,
  "timestamp": 1439077931,
  "nonce": "0xa2cad1c026da8da1",
  "difficulty": 1609947291541,
  "gasLimit": {
    "_hex": "0x2fefd8"
  },
  "gasUsed": {
    "_hex": "0x565d"
  },
  "miner": "0x06D138312754bDEB5c1175f47cE00620c480E9C9",
  "extraData": "0x476574682f76312e302e312f6c696e75782f676f312e342e32",
  "transactions": [
    {
      "hash": "0x1588e087887276e2fb5ba0fd8779701d2a5f3832ae8da4628d437b77fba8663c",
      "blockHash": "0x48d593f1e7c413075dc988661b9c1cb01d1d009a1bce674e7b01c9dbec0d215f",
      "blockNumber": 55842,
      "transactionIndex": 0,
      "confirmations": null,
      "from": "0xFD2605a2bF58fDbB90db1Da55dF61628B47F9e8c",
      "gasPrice": {
        "_hex": "0xcb628b9a6"
      },
      "gasLimit": {
        "_hex": "0x15f90"
      },
      "to": "0x7573ACa378B8417623caD233954fdE810CaD9fB4",
      "value": {
        "_hex": "0x0"
      },
      "nonce": 19,
      "data": "0x5e0572a7000000000000000000000000000000000000000000000000000000005ebf87f3",
      "r": "0xa1d057df929e719c4559a03f0bcc1e7c2b6d7ce16ae60159d808dfadb4698aeb",
      "s": "0x70912a887b59b194ee8bb794e13afba77815a66b3d32e0a9e62eb0766c96269e",
      "v": 28,
      "creates": null,
      "raw": "0xf88913850cb628b9a683015f90947573aca378b8417623cad233954fde810cad9fb480a45e0572a7000000000000000000000000000000000000000000000000000000005ebf87f31ca0a1d057df929e719c4559a03f0bcc1e7c2b6d7ce16ae60159d808dfadb4698aeba070912a887b59b194ee8bb794e13afba77815a66b3d32e0a9e62eb0766c96269e",
      "networkId": 0,
      "chainId": 0
    }
  ]
}