{
  "hash": "0x1619233eaf4b07fb0ca0997e3565c5a790127a851a28a205fb26e062c0a8cc70",
  "parentHash": "0xcd8a2633687ba3ec94df457b4581db025444cd0c3cdc304c3adf2807723b2ddf",
  "number": 85364,
  "timestamp": 1439562457,
  "nonce": "0x1bcd196493a1f052",
  "difficulty": 2739672630893,
  "gasLimit": {
    "_hex": "0x2fefd8"
  },
  "gasUsed": {
    "_hex": "0x5208"
  },
  "miner": "0xe6A7a1d47ff21B6321162AEA7C6CB457D5476Bca",
  "extraData": "0x476574682f76312e302e312d38326566323666362f6c696e75782f676f312e34",
  "transactions": [
    {
      "hash": "0x709e33181f7ffeecc6c13eb912009addd02c5d0965acf64c44742b5c30165059",
      "blockHash": "0x1619233eaf4b07fb0ca0997e3565c5a790127a851a28a205fb26e062c0a8cc70",
      "blockNumber": 85364,
      "transactionIndex": 0,
      "confirmations": null,
      "from": "0x29fF4238b4bC6B278B0f47ba9e2761A62e0f2DB3",
      "gasPrice": {
        "_hex": "0xd641f460d"
      },
      "gasLimit": {
        "_hex": "0x15f90"
      },
      "to": "0xb1A2a1e9b8AC33fdcB2118b73A875b096AEd24aD",
      "value": {
        "_hex": "0x45400a8fd5330000"
      },
      "nonce": 0,
      "data": "0x",
      "r": "0x7a597b56142a10d7e323a26db0400aadfaaf74122595998b7e1ab3d445b849cf",
      "s": "0x4f93033c9683a9dbd376bd7edb13346e406b8680aff5ee2f19d24d7ef9243c7b",
      "v": 27,
      "creates": null,
      "raw": "0xf86d80850d641f460d83015f9094b1a2a1e9b8ac33fdcb2118b73a875b096aed24ad8845400a8fd5330000801ba07a597b56142a10d7e323a26db0400aadfaaf74122595998b7e1ab3d445b849cfa04f93033c9683a9dbd376bd7edb13346e406b8680aff5ee2f19d24d7ef9243c7b",
      "networkId": 0,
      "chainId": 0
    }
  ]
}