{
  "hash": "0x621c4403872f3ff880429c6e056e59dd9b7420e5be14b3706deffeda5f67e368",
  "parentHash": "0xc7d5e01a5f3c93d20d5aa63cadf52cdfa5bb74ef44a845363d47fc561a753a83",
  "number": 85477,
  "timestamp": 1439564302,
  "nonce": "0xb0cf8038459289ab",
  "difficulty": 2746332461683,
  "gasLimit": {
    "_hex": "0x2fefd8"
  },
  "gasUsed": {
    "_hex": "0x5208"
  },
  "miner": "0xbb7B8287f3F0a933474a79eAe42CBCa977791171",
  "extraData": "0x476574682f4c5649562f76312e302e312f6c696e75782f676f312e342e32",
  "transactions": [
    {
      "hash": "0x9eab31f3851408f446300795487559d5ba7539f28b2ef872c30062fae65e50b8",
      "blockHash": "0x621c4403872f3ff880429c6e056e59dd9b7420e5be14b3706deffeda5f67e368",
      "blockNumber": 85477,
      "transactionIndex": 0,
      "confirmations": null,
      "from": "0x120A270bbC009644e35F0bB6ab13f95b8199c4ad",
      "gasPrice": {
        "_hex": "0xd2f9380dd"
      },
      "gasLimit": {
        "_hex": "0x15f90"
      },
      "to": "0x3b8E0D4377E08D6d82FB5F22B246399f54bfCddD",
      "value": {
        "_hex": "0x7dc8e89a6af260000"
      },
      "nonce": 454,
      "data": "0x",
      "r": "0x14dc572e7f2f3a6209734fd4918023b3d9a7e04e4574c93f83a432aefd7258b6",
      "s": "0x5192f6ef22e25dcc85b81c6b52acc377b807c222f1390b9509deb3119babe457",
      "v": 28,
      "creates": null,
      "raw": "0xf8708201c6850d2f9380dd83015f90943b8e0d4377e08d6d82fb5f22b246399f54bfcddd8907dc8e89a6af260000801ca014dc572e7f2f3a6209734fd4918023b3d9a7e04e4574c93f83a432aefd7258b6a05192f6ef22e25dcc85b81c6b52acc377b807c222f1390b9509deb3119babe457",
      "networkId": 0,
      "chainId": 0
    }
  ]
}