{
  "hash": "0xffaae9da98c18e578f20eedaa8ae2ee4efdf18de7d62f25eca9240ee6cda93ba",
  "parentHash": "0xcf218e7fe0772eafa26eede9af22b1442480c479ac73f62915bc1a200fc8b096",
  "number": 68503,
  "timestamp": 1439289044,
  "nonce": "0x5fe1613c40d5bc7b",
  "difficulty": 2005480243486,
  "gasLimit": {
    "_hex": "0x2fefd8"
  },
  "gasUsed": {
    "_hex": "0x42a68"
  },
  "miner": "0x8dd979d3638B9c8e7a169d955ef8E8Da5B772C51",
  "extraData": "0x476574682f76312e302e312f77696e646f77732f676f312e342e32",
  "transactions": [
    {
      "hash": "0xa97e2c87af679889bc67828dbf7a6dd6bfd38bdc6935393cc7e6cf3d0667799d",
      "blockHash": "0xffaae9da98c18e578f20eedaa8ae2ee4efdf18de7d62f25eca9240ee6cda93ba",
      "blockNumber": 68503,
      "transactionIndex": 0,
      "confirmations": null,
      "from": "0xA295477b1e73B9BE97f78c726dC54126fD8F1E47",
      "gasPrice": {
        "_hex": "0xba43b7400"
      },
      "gasLimit": {
        "_hex": "0x5208"
      },
      "to": "0x9732cbd1921eb809706dAd3d9D8D7f443af5805e",
      "value": {
        "_hex": "0x937bda828f9000"
      },
      "nonce": 1,
      "data": "0x",
      "r": "0x0d58d6cf78106f02a59a2d38c5c16c754e32ffd689a74faea9390c47084622cd",
      "s": "0x5ad5e4a3fd2d6777077a62e9d5308827e42f1d19e7df26fff709f44b5ee898f7",
      "v": 28,
      "creates": null,
      "raw": "0xf86b01850ba43b7400825208949732cbd1921eb809706dad3d9d8d7f443af5805e87937bda828f9000801ca00d58d6cf78106f02a59a2d38c5c16c754e32ffd689a74faea9390c47084622cda05ad5e4a3fd2d6777077a62e9d5308827e42f1d19e7df26fff709f44b5ee898f7",
      "networkId": 0,
      "chainId": 0
    },
    {
      "hash": "0xb79f8e943359e3f3465151442a7ee7f1c3a8202cc1e7afa14fe0aab71fe9ec9c",
      "blockHash": "0xffaae9da98c18e578f20eedaa8ae2ee4efdf18de7d62f25eca9240ee6cda93ba",
      "blockNumber": 68503,
      "transactionIndex": 1,
      "confirmations": null,
      "from": "0x434175690Dd817721A174A211911497d7714d282",
      "gasPrice": {
        "_hex": "0xba43b7400"
      },
      "gasLimit": {
        "_hex": "0x5208"
      },
      "to": "0xf5dB5e9A98633A8b23717EB755099E34E4CdCeD4",
      "value": {
        "_hex": "0x937bda828f9000"
      },
      "nonce": 1,
      "data": "0x",
      "r": "0x473795e9578b7240bc386064344911f85372558e8e267bad5781a433755b971d",
      "s": "0x264c88915ebdbaaee8bea8f6990703d11a95118d7ad2a974b8383aa9041eefdb",
      "v": 27,
      "creates": null,
      "raw": "0xf86b01850ba43b740082520894f5db5e9a98633a8b23717eb755099e34e4cdced487937bda828f9000801ba0473795e9578b7240bc386064344911f85372558e8e267bad5781a433755b971da0264c88915ebdbaaee8bea8f6990703d11a95118d7ad2a974b8383aa9041eefdb",
      "networkId": 0,
      "chainId": 0
    },
    {
      "hash": "0x7c2a7a63450ba2ba7c1d3e835123e389369cce31ac6727c2f04d110ef15fd2cb",
      "blockHash": "0xffaae9da98c18e578f20eedaa8ae2ee4efdf18de7d62f25eca9240ee6cda93ba",
      "blockNumber": 68503,
      "transactionIndex": 2,
      "confirmations": null,
      "from": "0xf9dE08Da8f12a78c43a44d6e06eE83fb98E2af93",
      "gasPrice": {
        "_hex": "0xba43b7400"
      },
      "gasLimit": {
        "_hex": "0x5208"
      },
      "to": "0xEEDA42CE41E61B08551A197a5fF330313A8a3a3e",
      "value": {
        "_hex": "0x937bda828f9000"
      },
      "nonce": 1,
      "data": "0x",
      "r": "0xf92ec7d1884293f43496d3d745fc8a8c6a3c4508c8ba163018ac968ef8551a06",
      "s": "0x3194d989063af542ed550a201e4ff6a375846c7ab036a2b6ac0589d2dc5292d8",
      "v": 28,
      "creates": null,
      "raw": "0xf86b01850ba43b740082520894eeda42ce41e61b08551a197a5ff330313a8a3a3e87937bda828f9000801ca0f92ec7d1884293f43496d3d745fc8a8c6a3c4508c8ba163018ac968ef8551a06a03194d989063af542ed550a201e4ff6a375846c7ab036a2b6ac0589d2dc5292d8",
      "networkId": 0,
      "chainId": 0
    },
    {
      "hash": "0x18d37c38d6a53ae2f941c9c2e16b99944d52f3738d0a969fc9cce039d6ae001e",
      "blockHash": "0xffaae9da98c18e578f20eedaa8ae2ee4efdf18de7d62f25eca9240ee6cda93ba",
      "blockNumber": 68503,
      "transactionIndex": 3,
      "confirmations": null,
      "from": "0x95da327A5395BF3cB2320AddBb6dF56Ddd24DF13",
      "gasPrice": {
        "_hex": "0xba43b7400"
      },
      "gasLimit": {
        "_hex": "0x5208"
      },
      "to": "0xc8ef51f333ffC599be0C92d2C63bc5203B6090Da",
      "value": {
        "_hex": "0x937bda828f9000"
      },
      "nonce": 1,
      "data": "0x",
      "r": "0x2b8bdf507b4722714db0c8b0e0100192877c4a9bf39e1396a6040960e10accdd",
      "s": "0x0854fe4f4b55a070bf2cdb9ae54ed276cf88dae5f3db2bb9ae9e2c914d027ed7",
      "v": 28,
      "creates": null,
      "raw": "0xf86b01850ba43b740082520894c8ef51f333ffc599be0c92d2c63bc5203b6090da87937bda828f9000801ca02b8bdf507b4722714db0c8b0e0100192877c4a9bf39e1396a6040960e10accdda00854fe4f4b55a070bf2cdb9ae54ed276cf88dae5f3db2bb9ae9e2c914d027ed7",
      "networkId": 0,
      "chainId": 0
    },
    {
      "hash": "0xc75cfb6e562a667a74dd9ff15fea33a6ec22d885b0d1b398cd411d058d32cce0",
      "blockHash": "0xffaae9da98c18e578f20eedaa8ae2ee4efdf18de7d62f25eca9240ee6cda93ba",
      "blockNumber": 68503,
      "transactionIndex": 4,
      "confirmations": null,
      "from": "0xC861AC336241059Eeda457b29ad91d80555AF4f5",
      "gasPrice": {
        "_hex": "0xba43b7400"
      },
      "gasLimit": {
        "_hex": "0x5208"
      },
      "to": "0x214E2E8FA77b87e4485Fcb10C6F1bfD13395CA27",
      "value": {
        "_hex": "0x937bda828f9000"
      },
      "nonce": 1,
      "data": "0x",
      "r": "0x66d83a4c6ea9373600547678df56fec7fb6fe8f314040a388e469ac4c18e202e",
      "s": "0x7ccfff9d8ffaf7be42a54a7e18692c06e8f414249f06a7ada9e768b47f8d944f",
      "v": 27,
      "creates": null,
      "raw": "0xf86b01850ba43b740082520894214e2e8fa77b87e4485fcb10c6f1bfd13395ca2787937bda828f9000801ba066d83a4c6ea9373600547678df56fec7fb6fe8f314040a388e469ac4c18e202ea07ccfff9d8ffaf7be42a54a7e18692c06e8f414249f06a7ada9e768b47f8d944f",
      "networkId": 0,
      "chainId": 0
    },
    {
      "hash": "0xb307dfe8ac97d11b1e7370c3a638b66adcd0cc01b7d9635a5e458ed7bec8804c",
      "blockHash": "0xffaae9da98c18e578f20eedaa8ae2ee4efdf18de7d62f25eca9240ee6cda93ba",
      "blockNumber": 68503,
      "transactionIndex": 5,
      "confirmations": null,
      "from": "0x892B070d2E947ea7538CD1387842F4043Bbd6A6c",
      "gasPrice": {
        "_hex": "0xba43b7400"
      },
      "gasLimit": {
        "_hex": "0x5208"
      },
      "to": "0xcEb5638F6Eaf9412ED05825FFF23da0Fd8f2f3A8",
      "value": {
        "_hex": "0x937bda828f9000"
      },
      "nonce": 1,
      "data": "0x",
      "r": "0x6aa82dde11eeebf0d0fec43784a413c067cc2b0702e11cf60211c1d5eaec2a11",
      "s": "0x7b7604afa96a4b4fec78e2db013c7ecddb8a697523c6d4fa9af269e41acfcddc",
      "v": 28,
      "creates": null,
      "raw": "0xf86b01850ba43b740082520894ceb5638f6eaf9412ed05825fff23da0fd8f2f3a887937bda828f9000801ca06aa82dde11eeebf0d0fec43784a413c067cc2b0702e11cf60211c1d5eaec2a11a07b7604afa96a4b4fec78e2db013c7ecddb8a697523c6d4fa9af269e41acfcddc",
      "networkId": 0,
      "chainId": 0
    },
    {
      "hash": "0xa7e1908ff39c4b9e96c509422207bd4160f461226cf26b4dc0232600c29b3e5a",
      "blockHash": "0xffaae9da98c18e578f20eedaa8ae2ee4efdf18de7d62f25eca9240ee6cda93ba",
      "blockNumber": 68503,
      "transactionIndex": 6,
      "confirmations": null,
      "from": "0xc8a5864493a7a68a4B9A583b63A2D75B2411627E",
      "gasPrice": {
        "_hex": "0xba43b7400"
      },
      "gasLimit": {
        "_hex": "0x5208"
      },
      "to": "0xbbCa80d4DaA223b1BCd725DB4814c22F9B7E332e",
      "value": {
        "_hex": "0x937bda828f9000"
      },
      "nonce": 1,
      "data": "0x",
      "r": "0x3a1c73469d2d88e68123538abe6e533aad1daccdf6ac34a7c89551160b2a1eff",
      "s": "0x3772f38df402e0eb004957cbffdfed23fdfb251854fc57944cbc7bf49f43e58a",
      "v": 28,
      "creates": null,
      "raw": "0xf86b01850ba43b740082520894bbca80d4daa223b1bcd725db4814c22f9b7e332e87937bda828f9000801ca03a1c73469d2d88e68123538abe6e533aad1daccdf6ac34a7c89551160b2a1effa03772f38df402e0eb004957cbffdfed23fdfb251854fc57944cbc7bf49f43e58a",
      "networkId": 0,
      "chainId": 0
    },
    {
      "hash": "0x8f022fbeb005b58749dbb4baa971a13003fb11fbbb90f061775a15e55c4e162d",
      "blockHash": "0xffaae9da98c18e578f20eedaa8ae2ee4efdf18de7d62f25eca9240ee6cda93ba",
      "blockNumber": 68503,
      "transactionIndex": 7,
      "confirmations": null,
      "from": "0x2a1BfdD1aE784B85c35Efb1Eed77571220C3c174",
      "gasPrice": {
        "_hex": "0xba43b7400"
      },
      "gasLimit": {
        "_hex": "0x5208"
      },
      "to": "0x7fbe475cCC767007ea983772B6891326c2Db04A3",
      "value": {
        "_hex": "0x937bda828f9000"
      },
      "nonce": 1,
      "data": "0x",
      "r": "0x49780795d54ee0ec6e016a45a2bcc215c9493d94d3623e431aec97bbf1c4824d",
      "s": "0x41a6880a6343c7159a1798f62f4b61835319fedd0c20b0adff9ca37d738fd94d",
      "v": 28,
      "creates": null,
      "raw": "0xf86b01850ba43b7400825208947fbe475ccc767007ea983772b6891326c2db04a387937bda828f9000801ca049780795d54ee0ec6e016a45a2bcc215c9493d94d3623e431aec97bbf1c4824da041a6880a6343c7159a1798f62f4b61835319fedd0c20b0adff9ca37d738fd94d",
      "networkId": 0,
      "chainId": 0
    },
    {
      "hash": "0xc3f2be82ae3f624af96fadfa3126c446fd697daea954e7cb690b4cf87c5fe240",
      "blockHash": "0xffaae9da98c18e578f20eedaa8ae2ee4efdf18de7d62f25eca9240ee6cda93ba",
      "blockNumber": 68503,
      "transactionIndex": 8,
      "confirmations": null,
      "from": "0xEE37E31bD888eCb4a3705ca9A3085EeC654f1121",
      "gasPrice": {
        "_hex": "0xba43b7400"
      },
      "gasLimit": {
        "_hex": "0x5208"
      },
      "to": "0xAb37276D454e22Feb796b00396C376BB9de9B9e0",
      "value": {
        "_hex": "0x937bda828f9000"
      },
      "nonce": 1,
      "data": "0x",
      "r": "0xb9b4701352217d276a506d9aed4fc10b65b3a3eae51ef752da44f327c292f9b0",
      "s": "0x4df0ab0b19465ee3774759296526a9a578021942566f8e02f589c9d78fa58493",
      "v": 28,
      "creates": null,
      "raw": "0xf86b01850ba43b740082520894ab37276d454e22feb796b00396c376bb9de9b9e087937bda828f9000801ca0b9b4701352217d276a506d9aed4fc10b65b3a3eae51ef752da44f327c292f9b0a04df0ab0b19465ee3774759296526a9a578021942566f8e02f589c9d78fa58493",
      "networkId": 0,
      "chainId": 0
    },
    {
      "hash": "0xf9c22323390d629207e531b3f923a4b7bc5e7a0c8d574cd404947c96dc0b6747",
      "blockHash": "0xffaae9da98c18e578f20eedaa8ae2ee4efdf18de7d62f25eca9240ee6cda93ba",
      "blockNumber": 68503,
      "transactionIndex": 9,
      "confirmations": null,
      "from": "0x4009c00888E5f60a97aE086Dd460c0eC184a8E20",
      "gasPrice": {
        "_hex": "0xba43b7400"
      },
      "gasLimit": {
        "_hex": "0x5208"
      },
      "to": "0xB3cC07cF55154Ed6ebee7a3C0b453FB242758c08",
      "value": {
        "_hex": "0x937bda828f9000"
      },
      "nonce": 1,
      "data": "0x",
      "r": "0x968b999957f7a153f44621a029afbe8da0547ac46b1fd73b46d4fd27e4f5c4ab",
      "s": "0x350b009824ccda634bb7646483eb076ee7d83a851c3debd1c7446be7819706f9",
      "v": 27,
      "creates": null,
      "raw": "0xf86b01850ba43b740082520894b3cc07cf55154ed6ebee7a3c0b453fb242758c0887937bda828f9000801ba0968b999957f7a153f44621a029afbe8da0547ac46b1fd73b46d4fd27e4f5c4aba0350b009824ccda634bb7646483eb076ee7d83a851c3debd1c7446be7819706f9",
      "networkId": 0,
      "chainId": 0
    },
    {
      "hash": "0x7374e784afb8c7c9ecaadf70ea9bba339fb56f0655f8cd6ae5393f82244565ea",
      "blockHash": "0xffaae9da98c18e578f20eedaa8ae2ee4efdf18de7d62f25eca9240ee6cda93ba",
      "blockNumber": 68503,
      "transactionIndex": 10,
      "confirmations": null,
      "from": "0xE3EB58E02c4E8D5CB78a7c1a2329aB613711999f",
      "gasPrice": {
        "_hex": "0xba43b7400"
      },
      "gasLimit": {
        "_hex": "0x5208"
      },
      "to": "0x9cC6a77ee966f161E13B175347618fB7b551B789",
      "value": {
        "_hex": "0x937bda828f9000"
      },
      "nonce": 1,
      "data": "0x",
      "r": "0x40b84e00e49904407846193de9ecb02a7f7652c5fa23024a8cd239ade3abfa11",
      "s": "0x2e0954e3d9adf321490c1f3ed3e87afb01a9c875a4fecdd6f0378cfd6d6160e3",
      "v": 28,
      "creates": null,
      "raw": "0xf86b01850ba43b7400825208949cc6a77ee966f161e13b175347618fb7b551b78987937bda828f9000801ca040b84e00e49904407846193de9ecb02a7f7652c5fa23024a8cd239ade3abfa11a02e0954e3d9adf321490c1f3ed3e87afb01a9c875a4fecdd6f0378cfd6d6160e3",
      "networkId": 0,
      "chainId": 0
    },
    {
      "hash": "0x0dbe98c4350f2c3b7962b5d9328d94f671b24e3f67647813ea911f84413223bf",
      "blockHash": "0xffaae9da98c18e578f20eedaa8ae2ee4efdf18de7d62f25eca9240ee6cda93ba",
      "blockNumber": 68503,
      "transactionIndex": 11,
      "confirmations": null,
      "from": "0x6747f922385c9a6F9cfDf095F34345257DD597bE",
      "gasPrice": {
        "_hex": "0xba43b7400"
      },
      "gasLimit": {
        "_hex": "0x5208"
      },
      "to": "0x41A0C9CeC809eF79AeEd330E1BD0aE09441d7B14",
      "value": {
        "_hex": "0x1fcbfa42bd6000"
      },
      "nonce": 114,
      "data": "0x",
      "r": "0xfe15dc9e29a7e90eb5d70311ab9fb6120d1f636c23173e636d3f23dfb05521ff",
      "s": "0x47e26d7a9966aa82988674560ec7b672943ec265a8c00f3451bb4595dfc463b7",
      "v": 28,
      "creates": null,
      "raw": "0xf86b72850ba43b74008252089441a0c9cec809ef79aeed330e1bd0ae09441d7b14871fcbfa42bd6000801ca0fe15dc9e29a7e90eb5d70311ab9fb6120d1f636c23173e636d3f23dfb05521ffa047e26d7a9966aa82988674560ec7b672943ec265a8c00f3451bb4595dfc463b7",
      "networkId": 0,
      "chainId": 0
    },
    {
      "hash": "0xac9fd078fffd0adbcea7723f25cb8ba3d1b230f7c879ee3b9fd4e6ed5443310f",
      "blockHash": "0xffaae9da98c18e578f20eedaa8ae2ee4efdf18de7d62f25eca9240ee6cda93ba",
      "blockNumber": 68503,
      "transactionIndex": 12,
      "confirmations": null,
      "from": "0xB994F4c4b5eAA3B11d1469b72d9F00694825DCe6",
      "gasPrice": {
        "_hex": "0xba43b7400"
      },
      "gasLimit": {
        "_hex": "0x5208"
      },
      "to": "0x4b032472f0401478d5DdBeb896Fe9110ee969019",
      "value": {
        "_hex": "0x937bda828f9000"
      },
      "nonce": 1,
      "data": "0x",
      "r": "0xb40451121f8e3171e3e2a4c73c6e6e0573c8e1607c2e9bf192bc951cab8042c4",
      "s": "0x61851cad4cb4e4c3be86a2e4d39b7a8d7ede530787b64550fb6f27642bb09997",
      "v": 27,
      "creates": null,
      "raw": "0xf86b01850ba43b7400825208944b032472f0401478d5ddbeb896fe9110ee96901987937bda828f9000801ba0b40451121f8e3171e3e2a4c73c6e6e0573c8e1607c2e9bf192bc951cab8042c4a061851cad4cb4e4c3be86a2e4d39b7a8d7ede530787b64550fb6f27642bb09997",
      "networkId": 0,
      "chainId": 0
    }
  ]
}