{
  "hash": "0x48725ba19cf2279cf94bd3dd542dc5d1de81783bf1761dd017f2ca312a759c38",
  "parentHash": "0xa7108e0bac1574f25fefe97b21fa63c1dfc3b1b9cbdbbce668834f067ace0490",
  "number": 87704,
  "timestamp": 1439596240,
  "nonce": "0x8cfa7bac46d918c7",
  "difficulty": 3155544484606,
  "gasLimit": {
    "_hex": "0x2fefd8"
  },
  "gasUsed": {
    "_hex": "0x546c"
  },
  "miner": "0xbb7B8287f3F0a933474a79eAe42CBCa977791171",
  "extraData": "0x476574682f4c5649562f76312e302e312f6c696e75782f676f312e342e32",
  "transactions": [
    {
      "hash": "0x60e96b4a5e84a7e955628b31f5d4314273431036a0546cb0e9562ffc375b7230",
      "blockHash": "0x48725ba19cf2279cf94bd3dd542dc5d1de81783bf1761dd017f2ca312a759c38",
      "blockNumber": 87704,
      "transactionIndex": 0,
      "confirmations": null,
      "from": "0x5ad5E420755613886f35Aa56AC403EEBdfE4b0D0",
      "gasPrice": {
        "_hex": "0x110c8f7d8de"
      },
      "gasLimit": {
        "_hex": "0xc350"
      },
      "to": "0x2910543Af39abA0Cd09dBb2D50200b3E800A63D2",
      "value": {
        "_hex": "0x878678326eac9000000"
      },
      "nonce": 1,
      "data": "0x454e4b3951484d5238",
      "r": "0x57db31ac6833ae1b74fc6670e27c438c5b5826325bfdf967ff8e53175ff8361c",
      "s": "0x55267a458c245831fcdbb10cda18b37da56c0714510aa2073cb4df249a8d45d3",
      "v": 27,
      "creates": null,
      "raw": "0xf87801860110c8f7d8de82c350942910543af39aba0cd09dbb2d50200b3e800a63d28a0878678326eac900000089454e4b3951484d52381ba057db31ac6833ae1b74fc6670e27c438c5b5826325bfdf967ff8e53175ff8361ca055267a458c245831fcdbb10cda18b37da56c0714510aa2073cb4df249a8d45d3",
      "networkId": 0,
      "chainId": 0
    }
  ]
}