{
  "hash": "0x8d24d01db05dff3d5bbe33dcb081c73312346167dd7ce2c5d2cf5d8a75695c2b",
  "parentHash": "0xbfda1d98c153d1e52dccc399f8416d7b632bef876a54cc551bbf9c6a887363dc",
  "number": 106040,
  "timestamp": 1439897602,
  "nonce": "0x0d484bbef469c73d",
  "difficulty": 4475140578712,
  "gasLimit": {
    "_hex": "0x2fefd8"
  },
  "gasUsed": {
    "_hex": "0x6ed3"
  },
  "miner": "0xB70f652788a24CeB11C0b586677b03679ccaCE6a",
  "extraData": "0x476574682f76312e302e312f77696e646f77732f676f312e342e32",
  "transactions": [
    {
      "hash": "0x043160ac1065cc0190e8e744899bbd414437afa98042d6f1bba215b4a8600e32",
      "blockHash": "0x8d24d01db05dff3d5bbe33dcb081c73312346167dd7ce2c5d2cf5d8a75695c2b",
      "blockNumber": 106040,
      "transactionIndex": 0,
      "confirmations": null,
      "from": "0x87C5B5874A18B4306DF8a752a6C8cc3E82daFc19",
      "gasPrice": {
        "_hex": "0xfe3e1cb4ec"
      },
      "gasLimit": {
        "_hex": "0x493e0"
      },
      "to": "0xD79B4C6791784184e2755B2fC1659eaaB0f80456",
      "value": {
        "_hex": "0x0"
      },
      "nonce": 332,
      "data": "0xbd66528a6b6b6b0000000000000000000000000000000000000000000000000000000000",
      "r": "0xa529b8d0710edc4e2e84bcee3007d61e8eb8ea75ff254965ffb6b81ae92f3292",
      "s": "0x732f25059e1d27a0bd7942f241d2d852d641789b7440a016b05707dca1967378",
      "v": 28,
      "creates": null,
      "raw": "0xf88b82014c85fe3e1cb4ec830493e094d79b4c6791784184e2755b2fc1659eaab0f8045680a4bd66528a6b6b6b00000000000000000000000000000000000000000000000000000000001ca0a529b8d0710edc4e2e84bcee3007d61e8eb8ea75ff254965ffb6b81ae92f3292a0732f25059e1d27a0bd7942f241d2d852d641789b7440a016b05707dca1967378",
      "networkId": 0,
      "chainId": 0
    }
  ]
}