{
  "hash": "0xa5c523add9bf5e313ae2a7baa1def6890779330ee2e1c88992b859d8124e4daa",
  "parentHash": "0x6bb45e95d967d2c996e68ca8ef5015c09ae13499e2e42dc47522bccbe42d0ac0",
  "number": 99142,
  "timestamp": 1439785143,
  "nonce": "0x70d063e748851765",
  "difficulty": 3804840686129,
  "gasLimit": {
    "_hex": "0x2fefd8"
  },
  "gasUsed": {
    "_hex": "0xf618"
  },
  "miner": "0xf8E0CA3Ed80bd541b94BEdCf259e8CF2141A9523",
  "extraData": "0x476574682f76312e302e312f77696e646f77732f676f312e342e32",
  "transactions": [
    {
      "hash": "0xefc69dcd156d3dfb8970b2f2a991e5f7a5eafdd1a2c8dbf7292fc21cad8dccbe",
      "blockHash": "0xa5c523add9bf5e313ae2a7baa1def6890779330ee2e1c88992b859d8124e4daa",
      "blockNumber": 99142,
      "transactionIndex": 0,
      "confirmations": null,
      "from": "0xa70a9a7040d542C632D8e0bE7c5513A8a5Bbc752",
      "gasPrice": {
        "_hex": "0xcf1070b7a"
      },
      "gasLimit": {
        "_hex": "0x5208"
      },
      "to": "0x32Be343B94f860124dC4fEe278FDCBD38C102D88",
      "value": {
        "_hex": "0x455f6be45f4ae800"
      },
      "nonce": 191,
      "data": "0x",
      "r": "0xb622d204342d24ea4f3263760125ee78c1f3ad19f564e0fc317190cc47565c7a",
      "s": "0x40300dbcf4c312e8ecf75ddf8c588b2ced4776068a5149ef8fc142d128116a6d",
      "v": 28,
      "creates": null,
      "raw": "0xf86d81bf850cf1070b7a8252089432be343b94f860124dc4fee278fdcbd38c102d8888455f6be45f4ae800801ca0b622d204342d24ea4f3263760125ee78c1f3ad19f564e0fc317190cc47565c7aa040300dbcf4c312e8ecf75ddf8c588b2ced4776068a5149ef8fc142d128116a6d",
      "networkId": 0,
      "chainId": 0
    },
    {
      "hash": "0x79f5fa581963e4e4326c7c966251b94cc9964ac4dcdb9a6b1e9e9429c250823a",
      "blockHash": "0xa5c523add9bf5e313ae2a7baa1def6890779330ee2e1c88992b859d8124e4daa",
      "blockNumber": 99142,
      "transactionIndex": 1,
      "confirmations": null,
      "from": "0xb1abce2918E21ddb93AA452731a12672A3d9F75a",
      "gasPrice": {
        "_hex": "0xcf1070b7a"
      },
      "gasLimit": {
        "_hex": "0x5208"
      },
      "to": "0x32Be343B94f860124dC4fEe278FDCBD38C102D88",
      "value": {
        "_hex": "0x455f6be6b356cc00"
      },
      "nonce": 70,
      "data": "0x",
      "r": "0x64fb850a60433a3529ca7cf0dc67dd4fde52cc6a1b53b03cb13d23a3b3023163",
      "s": "0x2fd72725d421d76e4da8f0cd8299f6f77c6ccbec6a6739e1c46504c11cff193e",
      "v": 28,
      "creates": null,
      "raw": "0xf86c46850cf1070b7a8252089432be343b94f860124dc4fee278fdcbd38c102d8888455f6be6b356cc00801ca064fb850a60433a3529ca7cf0dc67dd4fde52cc6a1b53b03cb13d23a3b3023163a02fd72725d421d76e4da8f0cd8299f6f77c6ccbec6a6739e1c46504c11cff193e",
      "networkId": 0,
      "chainId": 0
    },
    {
      "hash": "0x27f0b4349d3bf7faf8e4b7a8ac84834f644819db6c2aace96ebceb51fd8e7267",
      "blockHash": "0xa5c523add9bf5e313ae2a7baa1def6890779330ee2e1c88992b859d8124e4daa",
      "blockNumber": 99142,
      "transactionIndex": 2,
      "confirmations": null,
      "from": "0x61F642543d22bAf5382908a714E675Cc0b51ea45",
      "gasPrice": {
        "_hex": "0xcf1070b7a"
      },
      "gasLimit": {
        "_hex": "0x5208"
      },
      "to": "0x32Be343B94f860124dC4fEe278FDCBD38C102D88",
      "value": {
        "_hex": "0xb301dc0b90ecd000"
      },
      "nonce": 11,
      "data": "0x",
      "r": "0x666a1888f994f19774cc384077bcb8450f1577051389fe1ab5229d92c3e3ace7",
      "s": "0x38f0cd72d67ef4a57800be84c617bf201f91c6c1dc7ebc2f8e181f3577ee0c07",
      "v": 27,
      "creates": null,
      "raw": "0xf86c0b850cf1070b7a8252089432be343b94f860124dc4fee278fdcbd38c102d8888b301dc0b90ecd000801ba0666a1888f994f19774cc384077bcb8450f1577051389fe1ab5229d92c3e3ace7a038f0cd72d67ef4a57800be84c617bf201f91c6c1dc7ebc2f8e181f3577ee0c07",
      "networkId": 0,
      "chainId": 0
    }
  ]
}