{
  "hash": "0xb5a64f74f5ac9eadf4ddb52de203b7faa95bc431f72bb578d6bc9a2c35d04eb2",
  "parentHash": "0x1065f54578465af759aa06ab401468f83122b1152fb995ab8901c252e5d3a79d",
  "number": 96422,
  "timestamp": 1439740193,
  "nonce": "0xc6dfcec3711afbb8",
  "difficulty": 3660266163494,
  "gasLimit": {
    "_hex": "0x2fefd8"
  },
  "gasUsed": {
    "_hex": "0x5208"
  },
  "miner": "0xe6A7a1d47ff21B6321162AEA7C6CB457D5476Bca",
  "extraData": "0x476574682f76312e302e312d38326566323666362f6c696e75782f676f312e34",
  "transactions": [
    {
      "hash": "0x57cb6a86efa19d438f476757a419899e40af80e3f4cf9177678818a3bc258c4d",
      "blockHash": "0xb5a64f74f5ac9eadf4ddb52de203b7faa95bc431f72bb578d6bc9a2c35d04eb2",
      "blockNumber": 96422,
      "transactionIndex": 0,
      "confirmations": null,
      "from": "0xE6bB3eBBC072DF39f1ffB1c270a7913A9092716D",
      "gasPrice": {
        "_hex": "0xd20c72761"
      },
      "gasLimit": {
        "_hex": "0x5208"
      },
      "to": "0x32Be343B94f860124dC4fEe278FDCBD38C102D88",
      "value": {
        "_hex": "0x82bdb151b40a800"
      },
      "nonce": 0,
      "data": "0x",
      "r": "0xfdef29074f44a1921e5aa2c1f2d3a51dd05b446be2501250b061a99b4dc82d21",
      "s": "0x145188ee06d58bad5ce958266392891ea146b21a4d4b5d95dfeae17c1b1ea0fc",
      "v": 28,
      "creates": null,
      "raw": "0xf86c80850d20c727618252089432be343b94f860124dc4fee278fdcbd38c102d8888082bdb151b40a800801ca0fdef29074f44a1921e5aa2c1f2d3a51dd05b446be2501250b061a99b4dc82d21a0145188ee06d58bad5ce958266392891ea146b21a4d4b5d95dfeae17c1b1ea0fc",
      "networkId": 0,
      "chainId": 0
    }
  ]
}