{
  "hash": "0xc6007c2df4809af52d7f599632e52f8b10c942c3b75dc83a497aea4a7e3b655e",
  "parentHash": "0x571a7a43285749a9707fece098de5bc7cfeb20f7bfc053b08dd2d262d827f628",
  "number": 46256,
  "timestamp": 1438920064,
  "nonce": "0xfe44d60adb4a047f",
  "difficulty": 1460401445201,
  "gasLimit": {
    "_hex": "0x56ea"
  },
  "gasUsed": {
    "_hex": "0x5208"
  },
  "miner": "0xeB1325C8D9d3ea8D74aC11F4B00F1B2367686319",
  "extraData": "0x476574682f76312e302e312f77696e646f77732f676f312e342e32",
  "transactions": [
    {
      "hash": "0xa65bf5b19d573a4dd48bc8a0a4a9f05b6d0bcd713cba1c57b45130cf890a5600",
      "blockHash": "0xc6007c2df4809af52d7f599632e52f8b10c942c3b75dc83a497aea4a7e3b655e",
      "blockNumber": 46256,
      "transactionIndex": 0,
      "confirmations": null,
      "from": "0x136D4b662BbD1080Cfe4445B0fA213864435B7f1",
      "gasPrice": {
        "_hex": "0x202f61767c"
      },
      "gasLimit": {
        "_hex": "0x5208"
      },
      "to": "0xc8ebccC5F5689Fa8659d83713341e5aD19349448",
      "value": {
        "_hex": "0x3627e8f712373c0000"
      },
      "nonce": 2,
      "data": "0x",
      "r": "0xabe4255e8b5b093985673d51177382c04b55a884fe6c0417b0734efdb6480b2c",
      "s": "0x1bd7042700f7daf3a33e07937bb0fab8fa30343dd7eae2310e567b811be29a9f",
      "v": 28,
      "creates": null,
      "raw": "0xf86d0285202f61767c82520894c8ebccc5f5689fa8659d83713341e5ad19349448893627e8f712373c0000801ca0abe4255e8b5b093985673d51177382c04b55a884fe6c0417b0734efdb6480b2ca01bd7042700f7daf3a33e07937bb0fab8fa30343dd7eae2310e567b811be29a9f",
      "networkId": 0,
      "chainId": 0
    }
  ]
}