{
  "hash": "0xcec78dcecac338fbf3521dbb6f48fb6d6eac2e5d48f06046d941239c6c6b98e0",
  "parentHash": "0xb923d14e2cdbf9d51ae64995e60534b126fd8b3bfd89f16867de497188e7af74",
  "number": 105481,
  "timestamp": 1439888412,
  "nonce": "0xfa894cd1f78b1f09",
  "difficulty": 4382451662340,
  "gasLimit": {
    "_hex": "0x2fefd8"
  },
  "gasUsed": {
    "_hex": "0xa410"
  },
  "miner": "0xe6A7a1d47ff21B6321162AEA7C6CB457D5476Bca",
  "extraData": "0x476574682f76312e302e312d38326566323666362f6c696e75782f676f312e34",
  "transactions": [
    {
      "hash": "0xf88d5b98014c7a623e1729ab98a8f2df119b0814ad1bfef4f2f95c0149fb5cbc",
      "blockHash": "0xcec78dcecac338fbf3521dbb6f48fb6d6eac2e5d48f06046d941239c6c6b98e0",
      "blockNumber": 105481,
      "transactionIndex": 0,
      "confirmations": null,
      "from": "0xd1ce10d2AdBa8b18135eF72Aa5296c9503a3501c",
      "gasPrice": {
        "_hex": "0xe0690ebea"
      },
      "gasLimit": {
        "_hex": "0x15f90"
      },
      "to": "0xf2cC0eEAAAeD313542CB262B0B8c3972425143f0",
      "value": {
        "_hex": "0x796e3ea3f8ab0000"
      },
      "nonce": 6,
      "data": "0x",
      "r": "0x61cd13094df8b0fc471ee93c140c06c8e8985f4d9588ea065cf376fccd35d690",
      "s": "0x45b3ed5a768a73454d841b9bcfc93ce9d70f52bab568221c812ee53313c1894c",
      "v": 27,
      "creates": null,
      "raw": "0xf86d06850e0690ebea83015f9094f2cc0eeaaaed313542cb262b0b8c3972425143f088796e3ea3f8ab0000801ba061cd13094df8b0fc471ee93c140c06c8e8985f4d9588ea065cf376fccd35d690a045b3ed5a768a73454d841b9bcfc93ce9d70f52bab568221c812ee53313c1894c",
      "networkId": 0,
      "chainId": 0
    },
    {
      "hash": "0xc996b9041a4cf72814ec486a2f38aee07d5285fde1d5b7351ae3c06cf2efa7af",
      "blockHash": "0xcec78dcecac338fbf3521dbb6f48fb6d6eac2e5d48f06046d941239c6c6b98e0",
      "blockNumber": 105481,
      "transactionIndex": 1,
      "confirmations": null,
      "from": "0x32Be343B94f860124dC4fEe278FDCBD38C102D88",
      "gasPrice": {
        "_hex": "0xce5621997"
      },
      "gasLimit": {
        "_hex": "0x5208"
      },
      "to": "0xAAc7c655830b2fF580BDFEa1a416E5efAfAb3291",
      "value": {
        "_hex": "0xde0b6b3a7640000"
      },
      "nonce": 1170,
      "data": "0x",
      "r": "0x57f972de5bff8b20eb5638d01938beefba6eb6fb728b883394f8ee4f268b8ece",
      "s": "0x0e5904405d0aab8c1ba55bd23741dc4779725d623074e06794c7ac638d60dfea",
      "v": 28,
      "creates": null,
      "raw": "0xf86e820492850ce562199782520894aac7c655830b2ff580bdfea1a416e5efafab3291880de0b6b3a7640000801ca057f972de5bff8b20eb5638d01938beefba6eb6fb728b883394f8ee4f268b8ecea00e5904405d0aab8c1ba55bd23741dc4779725d623074e06794c7ac638d60dfea",
      "networkId": 0,
      "chainId": 0
    }
  ]
}