{
  "hash": "0x152b0ce01a7cbf3db9902845387ebd17bf53c8b37c4593aeff26389cbc2e43b5",
  "parentHash": "0x42d5fa18f95c9831ec71270905ee6c1e369fc5d83ccca05efe5406a9c5dd9ddc",
  "number": 116869,
  "timestamp": 1440098957,
  "nonce": "0xfdba4a90b7eb21ab",
  "difficulty": 4325518430737,
  "gasLimit": {
    "_hex": "0x2fefd8"
  },
  "gasUsed": {
    "_hex": "0x5208"
  },
  "miner": "0x99eFBC0308c45a785bE499baD407F76606B49c92",
  "extraData": "0xd983010002844765746887676f312e342e328777696e646f7773",
  "transactions": [
    {
      "hash": "0x621323a7011319cba858f208a1db08f4073866c3cd3ae80b11896aec70d0875e",
      "blockHash": "0x152b0ce01a7cbf3db9902845387ebd17bf53c8b37c4593aeff26389cbc2e43b5",
      "blockNumber": 116869,
      "transactionIndex": 0,
      "confirmations": null,
      "from": "0x727A42a8D67fcaa0Ab81D46f1EE66bfc9b8789AC",
      "gasPrice": {
        "_hex": "0xe309cb637"
      },
      "gasLimit": {
        "_hex": "0x15f90"
      },
      "to": "0x285B048CC4cB946abCF3eF11aDe982C36946AF18",
      "value": {
        "_hex": "0x7b8326d884fa0000"
      },
      "nonce": 20,
      "data": "0x",
      "r": "0xfb698690299297c3c2c1f35038213c46df12345a9f20efec3b8201086376ceec",
      "s": "0x6e2e53b308208c23e01a06586679b5b7da9917b61e11b72451d8f71dfb247605",
      "v": 28,
      "creates": null,
      "raw": "0xf86d14850e309cb63783015f9094285b048cc4cb946abcf3ef11ade982c36946af18887b8326d884fa0000801ca0fb698690299297c3c2c1f35038213c46df12345a9f20efec3b8201086376ceeca06e2e53b308208c23e01a06586679b5b7da9917b61e11b72451d8f71dfb247605",
      "networkId": 0,
      "chainId": 0
    }
  ]
}