{
  "hash": "0x18002429e15ff52d269b1c4bed73c596f54006ad20bf9563fd03eae94040f180",
  "parentHash": "0x9f27675aaa2e410c024d662d4de84f1fe1e37792885aa4fc74efd8d49e10e82c",
  "number": 109338,
  "timestamp": 1439954917,
  "nonce": "0x51598301e877cdde",
  "difficulty": 4451592068092,
  "gasLimit": {
    "_hex": "0x2fefd8"
  },
  "gasUsed": {
    "_hex": "0x5208"
  },
  "miner": "0xe6A7a1d47ff21B6321162AEA7C6CB457D5476Bca",
  "extraData": "0x476574682f76312e302e312d38326566323666362f6c696e75782f676f312e34",
  "transactions": [
    {
      "hash": "0x8785aabe739f7edb2f86420b22be421aa4031f92b5b25268eaa2ad71f6752725",
      "blockHash": "0x18002429e15ff52d269b1c4bed73c596f54006ad20bf9563fd03eae94040f180",
      "blockNumber": 109338,
      "transactionIndex": 0,
      "confirmations": null,
      "from": "0x853Bff007d269E0526E871360d79d69D602770dc",
      "gasPrice": {
        "_hex": "0xdc82b5e80"
      },
      "gasLimit": {
        "_hex": "0x5208"
      },
      "to": "0x32Be343B94f860124dC4fEe278FDCBD38C102D88",
      "value": {
        "_hex": "0x6f4858f5f8f1dc00"
      },
      "nonce": 14,
      "data": "0x",
      "r": "0xabd13b7e2cb6d0f1b40ba3237c672de15005720565738fd1071a88271d8480a9",
      "s": "0x22b056f197d0b83d96dea01ce40a97449168e0aead483ab8694d40176c2c495a",
      "v": 28,
      "creates": null,
      "raw": "0xf86c0e850dc82b5e808252089432be343b94f860124dc4fee278fdcbd38c102d88886f4858f5f8f1dc00801ca0abd13b7e2cb6d0f1b40ba3237c672de15005720565738fd1071a88271d8480a9a022b056f197d0b83d96dea01ce40a97449168e0aead483ab8694d40176c2c495a",
      "networkId": 0,
      "chainId": 0
    }
  ]
}