{
  "hash": "0x297537cb03fbfdeeaf1a6d62349b1ef4ca11e2d328e19669433b443dbbbff374",
  "parentHash": "0xa73738dbfb754a19b1b599b4e15c57a79224dc65e6caba8f3d8eb41dea563df7",
  "number": 84499,
  "timestamp": 1439550559,
  "nonce": "0x5f5fe69ba0f9154b",
  "difficulty": 2565166984228,
  "gasLimit": {
    "_hex": "0x2fefd8"
  },
  "gasUsed": {
    "_hex": "0x5208"
  },
  "miner": "0xe6A7a1d47ff21B6321162AEA7C6CB457D5476Bca",
  "extraData": "0x476574682f76312e302e312d38326566323666362f6c696e75782f676f312e34",
  "transactions": [
    {
      "hash": "0xe643a7af0186a917f039c55840f6b7a44fe937dc6fe72123a28375411814f727",
      "blockHash": "0x297537cb03fbfdeeaf1a6d62349b1ef4ca11e2d328e19669433b443dbbbff374",
      "blockNumber": 84499,
      "transactionIndex": 0,
      "confirmations": null,
      "from": "0xF2Edde37F9a8C39ddeA24D79f4015757D06BF786",
      "gasPrice": {
        "_hex": "0xd21fcf240"
      },
      "gasLimit": {
        "_hex": "0x5208"
      },
      "to": "0x738e836870D34d909F8De81Ae8c759cf55f4EAaF",
      "value": {
        "_hex": "0x6c6b935b8bbd400000"
      },
      "nonce": 3,
      "data": "0x",
      "r": "0xa14d37fb4a98a1fdf29c174ea5e68ff5baee0bf8788baa6a63e93edb3db469f6",
      "s": "0x01ad4be2705f190f9ec7520d8ebfac74600d7a6601cf460283b98a1658f37b34",
      "v": 27,
      "creates": null,
      "raw": "0xf86d03850d21fcf24082520894738e836870d34d909f8de81ae8c759cf55f4eaaf896c6b935b8bbd400000801ba0a14d37fb4a98a1fdf29c174ea5e68ff5baee0bf8788baa6a63e93edb3db469f6a001ad4be2705f190f9ec7520d8ebfac74600d7a6601cf460283b98a1658f37b34",
      "networkId": 0,
      "chainId": 0
    }
  ]
}