{
  "hash": "0x715c1ffd311aa55f4ce361bc794bc25e49cb2561f03be0d7fc420c645ea8d164",
  "parentHash": "0x50f9b77e1abce0f2fe1a035f95250a46b1dab54c37664cb404379089f85e66b9",
  "number": 79025,
  "timestamp": 1439463328,
  "nonce": "0x5b3ff315f0488ca0",
  "difficulty": 2300901771500,
  "gasLimit": {
    "_hex": "0x2fefd8"
  },
  "gasUsed": {
    "_hex": "0x5208"
  },
  "miner": "0xC2B0FB302729ef0f4aa96C0E02cC2346459294DF",
  "extraData": "0x",
  "transactions": [
    {
      "hash": "0xc3df0748ca997218715e91dddc35e1ed9138c2b5dff4c41a6d988c7e6093d8a9",
      "blockHash": "0x715c1ffd311aa55f4ce361bc794bc25e49cb2561f03be0d7fc420c645ea8d164",
      "blockNumber": 79025,
      "transactionIndex": 0,
      "confirmations": null,
      "from": "0xb2169f1326FE9745321aD99563654089bAdf09eb",
      "gasPrice": {
        "_hex": "0xba43b7400"
      },
      "gasLimit": {
        "_hex": "0x5208"
      },
      "to": "0xC47Aaa860008be6f65B58c6C6E02a84e666EfE31",
      "value": {
        "_hex": "0x8ac3680c5ce46000"
      },
      "nonce": 0,
      "data": "0x",
      "r": "0x624013237843f4b4554a98d939d1cbc029d0bf3aee0c03b251ccb49ff869ff47",
      "s": "0x4818e2908d0516a72988fab1eb28c3844a25177bd24e96f5b9fb129f2aa56068",
      "v": 27,
      "creates": null,
      "raw": "0xf86c80850ba43b740082520894c47aaa860008be6f65b58c6c6e02a84e666efe31888ac3680c5ce46000801ba0624013237843f4b4554a98d939d1cbc029d0bf3aee0c03b251ccb49ff869ff47a04818e2908d0516a72988fab1eb28c3844a25177bd24e96f5b9fb129f2aa56068",
      "networkId": 0,
      "chainId": 0
    }
  ]
}