{
  "hash": "0xc7d8a6aa31cf24e254c3d31cfdf8a236b79cd10d57846b59174f62dd02bb2708",
  "parentHash": "0x6a9ce05cc036de00c83f3bbc48af4dce0886a04b5f8353b2975de6343e0b0a49",
  "number": 121913,
  "timestamp": 1440184811,
  "nonce": "0xdd3bf14e4c5f34cd",
  "difficulty": 4481973779661,
  "gasLimit": {
    "_hex": "0x2fefd8"
  },
  "gasUsed": {
    "_hex": "0xa410"
  },
  "miner": "0x007f7f58D3eb5b7510A301eCC749FC1fCDDBE14D",
  "extraData": "0x",
  "transactions": [
    {
      "hash": "0x0885c56167b6ff9f94f50fb4fb09d43daa358c1fede008781561970374ddb133",
      "blockHash": "0xc7d8a6aa31cf24e254c3d31cfdf8a236b79cd10d57846b59174f62dd02bb2708",
      "blockNumber": 121913,
      "transactionIndex": 0,
      "confirmations": null,
      "from": "0x795dAa7Cd2C81b20de241CE0751981faC4930070",
      "gasPrice": {
        "_hex": "0xcec7ded01"
      },
      "gasLimit": {
        "_hex": "0x5208"
      },
      "to": "0x32Be343B94f860124dC4fEe278FDCBD38C102D88",
      "value": {
        "_hex": "0x6891a6f4807608000"
      },
      "nonce": 7,
      "data": "0x",
      "r": "0x693f699341d182f87509b381d017bfdfca7db9f5e4673f75ef873e43af7f3d28",
      "s": "0x4221373ab2e538a33d84ee4a5a2494b158803e2341e62e5dc00eed4ba66f7dc7",
      "v": 28,
      "creates": null,
      "raw": "0xf86d07850cec7ded018252089432be343b94f860124dc4fee278fdcbd38c102d888906891a6f4807608000801ca0693f699341d182f87509b381d017bfdfca7db9f5e4673f75ef873e43af7f3d28a04221373ab2e538a33d84ee4a5a2494b158803e2341e62e5dc00eed4ba66f7dc7",
      "networkId": 0,
      "chainId": 0
    },
    {
      "hash": "0x3079f6bcae80ca38db3593147b9af3e81ae52399dcd53e95f98da2e1702559bf",
      "blockHash": "0xc7d8a6aa31cf24e254c3d31cfdf8a236b79cd10d57846b59174f62dd02bb2708",
      "blockNumber": 121913,
      "transactionIndex": 1,
      "confirmations": null,
      "from": "0xE21812b7c0Bd57f6922B6A5670BDAec864beEF6b",
      "gasPrice": {
        "_hex": "0xcec7ded01"
      },
      "gasLimit": {
        "_hex": "0x5208"
      },
      "to": "0x32Be343B94f860124dC4fEe278FDCBD38C102D88",
      "value": {
        "_hex": "0x34754682d6276c00"
      },
      "nonce": 9,
      "data": "0x",
      "r": "0xd286af599c40d658b7aaad1bf8618e24b83b40132c9d72f6488b7289a51b5417",
      "s": "0x3ff047bb87e9efeb78fc74f235315611a61f0b056d3002f64dae0db780db6364",
      "v": 28,
      "creates": null,
      "raw": "0xf86c09850cec7ded018252089432be343b94f860124dc4fee278fdcbd38c102d888834754682d6276c00801ca0d286af599c40d658b7aaad1bf8618e24b83b40132c9d72f6488b7289a51b5417a03ff047bb87e9efeb78fc74f235315611a61f0b056d3002f64dae0db780db6364",
      "networkId": 0,
      "chainId": 0
    }
  ]
}