{
  "hash": "0x89036a94c8e49b3d4afe27b87b5a8af10846911daf69786c6b5c3c9e07c27134",
  "parentHash": "0xa1437d1f6faab6702a40e56fbf8196b568b802235f7b2432acae1d8d37ae335b",
  "number": 86170,
  "timestamp": 1439574665,
  "nonce": "0xf6907850c28e05f8",
  "difficulty": 2798900690324,
  "gasLimit": {
    "_hex": "0x2fefd8"
  },
  "gasUsed": {
    "_hex": "0x5d9f"
  },
  "miner": "0xF2d2AfF1320476cb8C6b607199D23175cc595693",
  "extraData": "0x476574682f76312e302e312f77696e646f77732f676f312e342e32",
  "transactions": [
    {
      "hash": "0x8a9795a762c99da2c6fc0f6416c699b5db592eb1bfdd769e6cac35bed2ccbeb7",
      "blockHash": "0x89036a94c8e49b3d4afe27b87b5a8af10846911daf69786c6b5c3c9e07c27134",
      "blockNumber": 86170,
      "transactionIndex": 0,
      "confirmations": null,
      "from": "0x2d9c5fECd2b44fBb6A1EC732ea059F4F1F9d2B5c",
      "gasPrice": {
        "_hex": "0xe03cf0f86"
      },
      "gasLimit": {
        "_hex": "0x15f90"
      },
      "to": "0xCAc7000C7dBaa2E33Af15325AF5D435E011C7BdD",
      "value": {
        "_hex": "0x2eea35854a38b5f8a0"
      },
      "nonce": 4,
      "data": "0xb214faa5444e4152523931444c0000000000000000000000000000000000000000000000",
      "r": "0x02ef1342c781a78722b1eb45f5c96f0f4d631de03b164d7a9adc595165314016",
      "s": "0x1581e7f49f847c1db1a4b8479a76e2f1d3c56ccf7e1300d4c9e6a99046b7328e",
      "v": 28,
      "creates": null,
      "raw": "0xf89204850e03cf0f8683015f9094cac7000c7dbaa2e33af15325af5d435e011c7bdd892eea35854a38b5f8a0a4b214faa5444e4152523931444c00000000000000000000000000000000000000000000001ca002ef1342c781a78722b1eb45f5c96f0f4d631de03b164d7a9adc595165314016a01581e7f49f847c1db1a4b8479a76e2f1d3c56ccf7e1300d4c9e6a99046b7328e",
      "networkId": 0,
      "chainId": 0
    }
  ]
}