{
  "hash": "0x35080d2da651448d529f6f968b4272a5bf9260347a14ef66d17c18da0f3ff6b2",
  "parentHash": "0xec00d9ae89599c00e0c1984e6f5f28657dd8b5a9d8ba31ce574d2a82d42fb50a",
  "number": 97052,
  "timestamp": 1439750092,
  "nonce": "0xbedf66bb1e88ded6",
  "difficulty": 3750446237641,
  "gasLimit": {
    "_hex": "0x2fefd8"
  },
  "gasUsed": {
    "_hex": "0x5208"
  },
  "miner": "0x157c6f2431eB1a95797EE86F7d17b3c0FD47A247",
  "extraData": "0x476574682f76312e302e312f77696e646f77732f676f312e342e32",
  "transactions": [
    {
      "hash": "0xd6b0397ccef9b2714089eb56dbc006f9e213657375b6fa20ab9c8aabdc18e68b",
      "blockHash": "0x35080d2da651448d529f6f968b4272a5bf9260347a14ef66d17c18da0f3ff6b2",
      "blockNumber": 97052,
      "transactionIndex": 0,
      "confirmations": null,
      "from": "0x33F36DffD23cf019833E1d59cBc7138824b12289",
      "gasPrice": {
        "_hex": "0x746a528800"
      },
      "gasLimit": {
        "_hex": "0x5267"
      },
      "to": "0xe2dc38c86274d7F8d96Ee09dcF2072a329e6eda3",
      "value": {
        "_hex": "0x46c6d6faa27e0000"
      },
      "nonce": 8,
      "data": "0x",
      "r": "0xa79e4eef2d88c8d9439ee0f1c2f540fd0ffa58330b3cd0e85a749d46bb3c9401",
      "s": "0x98d9ad7a3932b3142106b90b64004925e664207a5658e15883b8af19e4e18102",
      "v": 28,
      "creates": null,
      "raw": "0xf86c0885746a52880082526794e2dc38c86274d7f8d96ee09dcf2072a329e6eda38846c6d6faa27e0000801ca0a79e4eef2d88c8d9439ee0f1c2f540fd0ffa58330b3cd0e85a749d46bb3c9401a098d9ad7a3932b3142106b90b64004925e664207a5658e15883b8af19e4e18102",
      "networkId": 0,
      "chainId": 0
    }
  ]
}