{
  "hash": "0x1fa9282ad8b8864a8708322a7ae5e1634c09c7f9f302d0b163c9183437f37ca6",
  "parentHash": "0xc612edff49b52700c47a489a9df550c3cb54c8b35e14e53fd8c6e075e52f89bd",
  "number": 94640,
  "timestamp": 1439711492,
  "nonce": "0x5c3fb50b4286f5ca",
  "difficulty": 3503641940910,
  "gasLimit": {
    "_hex": "0x2fefd8"
  },
  "gasUsed": {
    "_hex": "0xf618"
  },
  "miner": "0xbb7B8287f3F0a933474a79eAe42CBCa977791171",
  "extraData": "0x476574682f4c5649562f76312e302e312f6c696e75782f676f312e342e32",
  "transactions": [
    {
      "hash": "0x3454c1f18086f05ade0b225402364773ccef863c2669f2822e5fd210d25d8692",
      "blockHash": "0x1fa9282ad8b8864a8708322a7ae5e1634c09c7f9f302d0b163c9183437f37ca6",
      "blockNumber": 94640,
      "transactionIndex": 0,
      "confirmations": null,
      "from": "0xe6A7a1d47ff21B6321162AEA7C6CB457D5476Bca",
      "gasPrice": {
        "_hex": "0xd5e4a9509"
      },
      "gasLimit": {
        "_hex": "0x55f0"
      },
      "to": "0xc7Dda420b6e858441b9Ea42B762dF14C59552fbb",
      "value": {
        "_hex": "0x13e73db31a1ae6e4"
      },
      "nonce": 2543,
      "data": "0x",
      "r": "0x44f4593ed2ac17b3fc643945ef5fdf4996ecdb17d1b3287d5d31550c74b7b3d6",
      "s": "0x4dea6ff8c2c50d539363c3bc8a50fecd5f0598b09fa13f90d7e56c80f14f5e0d",
      "v": 28,
      "creates": null,
      "raw": "0xf86e8209ef850d5e4a95098255f094c7dda420b6e858441b9ea42b762df14c59552fbb8813e73db31a1ae6e4801ca044f4593ed2ac17b3fc643945ef5fdf4996ecdb17d1b3287d5d31550c74b7b3d6a04dea6ff8c2c50d539363c3bc8a50fecd5f0598b09fa13f90d7e56c80f14f5e0d",
      "networkId": 0,
      "chainId": 0
    },
    {
      "hash": "0x2829cd8da40643a8a819d26e66c3335f728dc94a201e60ad1fa9549cda5e4cd9",
      "blockHash": "0x1fa9282ad8b8864a8708322a7ae5e1634c09c7f9f302d0b163c9183437f37ca6",
      "blockNumber": 94640,
      "transactionIndex": 1,
      "confirmations": null,
      "from": "0xe6A7a1d47ff21B6321162AEA7C6CB457D5476Bca",
      "gasPrice": {
        "_hex": "0xd5e4a9509"
      },
      "gasLimit": {
        "_hex": "0x55f0"
      },
      "to": "0xE9c4c542f72044d8296171067B020A6d17F8187b",
      "value": {
        "_hex": "0x13f9ada974eafe60"
      },
      "nonce": 2544,
      "data": "0x",
      "r": "0x754bbcc411d73a3e5970e6681620c4b1a4d043e596903a6e1ca3ff1a3ac4cb22",
      "s": "0x1705e33568450aa3eca5eafdaf859e0c1c2963b923b5b7be0ae6850d4451f939",
      "v": 28,
      "creates": null,
      "raw": "0xf86e8209f0850d5e4a95098255f094e9c4c542f72044d8296171067b020a6d17f8187b8813f9ada974eafe60801ca0754bbcc411d73a3e5970e6681620c4b1a4d043e596903a6e1ca3ff1a3ac4cb22a01705e33568450aa3eca5eafdaf859e0c1c2963b923b5b7be0ae6850d4451f939",
      "networkId": 0,
      "chainId": 0
    },
    {
      "hash": "0x28c3aa76c5d351510976eb665fa588d1a2175c66a5df135aefeb38722d1c2876",
      "blockHash": "0x1fa9282ad8b8864a8708322a7ae5e1634c09c7f9f302d0b163c9183437f37ca6",
      "blockNumber": 94640,
      "transactionIndex": 2,
      "confirmations": null,
      "from": "0xe6A7a1d47ff21B6321162AEA7C6CB457D5476Bca",
      "gasPrice": {
        "_hex": "0xd5e4a9509"
      },
      "gasLimit": {
        "_hex": "0x55f0"
      },
      "to": "0xC7C3C1e14c528F3C4976b727Bf9706c569fEacd3",
      "value": {
        "_hex": "0x14094d8188fbc81c"
      },
      "nonce": 2545,
      "data": "0x",
      "r": "0xc856c9d9abf89ea8ffa61ae8d5ff2c91b54963bdf4ff070567cde5e20ef5381b",
      "s": "0x6be31ac3f413ec1bc434bb77b3e9c490b803215e0a268ecbf7350a6ee4316059",
      "v": 28,
      "creates": null,
      "raw": "0xf86e8209f1850d5e4a95098255f094c7c3c1e14c528f3c4976b727bf9706c569feacd38814094d8188fbc81c801ca0c856c9d9abf89ea8ffa61ae8d5ff2c91b54963bdf4ff070567cde5e20ef5381ba06be31ac3f413ec1bc434bb77b3e9c490b803215e0a268ecbf7350a6ee4316059",
      "networkId": 0,
      "chainId": 0
    }
  ]
}