{
  "hash": "0xac401b6ca99224adb42a75ba54b3ddd09579452a01a9fe43892b8a557bc47912",
  "parentHash": "0xee4eb8996a1122948ddc086a892be1c9911006e819af028a28cee5f6a2430e1b",
  "number": 107515,
  "timestamp": 1439923785,
  "nonce": "0x9ba712df64f266df",
  "difficulty": 4420067199743,
  "gasLimit": {
    "_hex": "0x2fefd8"
  },
  "gasUsed": {
    "_hex": "0xa410"
  },
  "miner": "0x306e6267d94f23a9b37Cb110f20852208Fbbf1aA",
  "extraData": "0x",
  "transactions": [
    {
      "hash": "0xd47c1846f8ac944c8158ef8675b08cd73b04fea5eccf97a47aed0c410da55c3f",
      "blockHash": "0xac401b6ca99224adb42a75ba54b3ddd09579452a01a9fe43892b8a557bc47912",
      "blockNumber": 107515,
      "transactionIndex": 0,
      "confirmations": null,
      "from": "0x0909648c18A3CE5BAe7A047Ec2F868D24cDdA81D",
      "gasPrice": {
        "_hex": "0xd27fbcbea"
      },
      "gasLimit": {
        "_hex": "0x15f90"
      },
      "to": "0x9C08586Ec84981a00A3edc1873a1a70fFE05C818",
      "value": {
        "_hex": "0x2386f26fc10000"
      },
      "nonce": 0,
      "data": "0x",
      "r": "0xe0ed69ed1efa328b8d5bd2a39c8aad53a487859abc1f8e9e50dc273b891e9a15",
      "s": "0x76a24a403fd85403053616e5df49daab3cfb67c22425ee55224b1f90aa214b74",
      "v": 27,
      "creates": null,
      "raw": "0xf86c80850d27fbcbea83015f90949c08586ec84981a00a3edc1873a1a70ffe05c818872386f26fc10000801ba0e0ed69ed1efa328b8d5bd2a39c8aad53a487859abc1f8e9e50dc273b891e9a15a076a24a403fd85403053616e5df49daab3cfb67c22425ee55224b1f90aa214b74",
      "networkId": 0,
      "chainId": 0
    },
    {
      "hash": "0xd690ce746c7424fb4aa13e41ae592e1ef424e03a7292b7a6a43a0269b4256a22",
      "blockHash": "0xac401b6ca99224adb42a75ba54b3ddd09579452a01a9fe43892b8a557bc47912",
      "blockNumber": 107515,
      "transactionIndex": 1,
      "confirmations": null,
      "from": "0x120A270bbC009644e35F0bB6ab13f95b8199c4ad",
      "gasPrice": {
        "_hex": "0xd058d1c10"
      },
      "gasLimit": {
        "_hex": "0x3d090"
      },
      "to": "0xf762fA8763d258609E079c03E23aa2D7d6Dc12C2",
      "value": {
        "_hex": "0xe090d4f05f66bc00"
      },
      "nonce": 808,
      "data": "0x",
      "r": "0x7d9b539d9bc2db889867013fca16059f63abac3f60aa1cb099f7f5de2e8a21f0",
      "s": "0x73635f5f61c6081eb4751eaa454607026a4d64f0baa2eaf4a018d76d5260c41e",
      "v": 27,
      "creates": null,
      "raw": "0xf86f820328850d058d1c108303d09094f762fa8763d258609e079c03e23aa2d7d6dc12c288e090d4f05f66bc00801ba07d9b539d9bc2db889867013fca16059f63abac3f60aa1cb099f7f5de2e8a21f0a073635f5f61c6081eb4751eaa454607026a4d64f0baa2eaf4a018d76d5260c41e",
      "networkId": 0,
      "chainId": 0
    }
  ]
}