{
  "hash": "0xdae87196b455f6edc71f3fb2e60308839d299c61d2a730399a9096b35109ec32",
  "parentHash": "0x98cba740e3bbb78ee74d8f2415d6cc0a45b13faae19ca109f6ad52192ea8b7f8",
  "number": 83454,
  "timestamp": 1439535566,
  "nonce": "0x7bbfb88b2cb04596",
  "difficulty": 2434891150325,
  "gasLimit": {
    "_hex": "0x2fefd8"
  },
  "gasUsed": {
    "_hex": "0xa410"
  },
  "miner": "0xf8E0CA3Ed80bd541b94BEdCf259e8CF2141A9523",
  "extraData": "0x476574682f76312e302e312f77696e646f77732f676f312e342e32",
  "transactions": [
    {
      "hash": "0x9bb9c59bf2648af9be478577f4a97af7ad6e76cc2315ef3cfc717fba830ca52b",
      "blockHash": "0xdae87196b455f6edc71f3fb2e60308839d299c61d2a730399a9096b35109ec32",
      "blockNumber": 83454,
      "transactionIndex": 0,
      "confirmations": null,
      "from": "0xc2E9e042B88164B5408bd895Df7DdaD491c6321E",
      "gasPrice": {
        "_hex": "0xe1228f2b6"
      },
      "gasLimit": {
        "_hex": "0x15f90"
      },
      "to": "0xa114c802ef29776f05f9c6925cE915232e8ae102",
      "value": {
        "_hex": "0x1a055690d9db80000"
      },
      "nonce": 14,
      "data": "0x",
      "r": "0x239efbe6ec4fe47964b6db01b957b000b0e7a12a19542cd4886565acdd48ca88",
      "s": "0x09abbf9ca857e32c4bdf7aadc2c01082410ebe80fd62635ec0936eb1fcb4386c",
      "v": 28,
      "creates": null,
      "raw": "0xf86e0e850e1228f2b683015f9094a114c802ef29776f05f9c6925ce915232e8ae1028901a055690d9db80000801ca0239efbe6ec4fe47964b6db01b957b000b0e7a12a19542cd4886565acdd48ca88a009abbf9ca857e32c4bdf7aadc2c01082410ebe80fd62635ec0936eb1fcb4386c",
      "networkId": 0,
      "chainId": 0
    },
    {
      "hash": "0xb1741fe3218cfdf7dcc043391ad25d1ee326a7daee1389c77a091b1af45f8a39",
      "blockHash": "0xdae87196b455f6edc71f3fb2e60308839d299c61d2a730399a9096b35109ec32",
      "blockNumber": 83454,
      "transactionIndex": 1,
      "confirmations": null,
      "from": "0x32Be343B94f860124dC4fEe278FDCBD38C102D88",
      "gasPrice": {
        "_hex": "0xd30027e5e"
      },
      "gasLimit": {
        "_hex": "0x5208"
      },
      "to": "0x326Be8F71bFb0379f989aAB1CC1fE37f0a771f60",
      "value": {
        "_hex": "0x1b1ac14ff07f8f0000"
      },
      "nonce": 651,
      "data": "0x",
      "r": "0x4c9e2f9c0c5eec2d55dcde17e4ebd9fb970721792b2fa1ee3f50fb3b14161277",
      "s": "0x5bf208af4957692c3e8f61732c32d4311fc78f82238e170eced5ddf5d5deef1b",
      "v": 27,
      "creates": null,
      "raw": "0xf86f82028b850d30027e5e82520894326be8f71bfb0379f989aab1cc1fe37f0a771f60891b1ac14ff07f8f0000801ba04c9e2f9c0c5eec2d55dcde17e4ebd9fb970721792b2fa1ee3f50fb3b14161277a05bf208af4957692c3e8f61732c32d4311fc78f82238e170eced5ddf5d5deef1b",
      "networkId": 0,
      "chainId": 0
    }
  ]
}