{
  "hash": "0xa71301d76f84bdf40787673b51ba1e3bd2946ae44f726a5094cd970bf2405d79",
  "parentHash": "0x5425d28dccf4002abbaca8c27459514fafbe4deab52deefedcc645eedfcbaea4",
  "number": 46965,
  "timestamp": 1438932405,
  "nonce": "0x13c5d70c2835deb0",
  "difficulty": 1452455753275,
  "gasLimit": {
    "_hex": "0x89fa"
  },
  "gasUsed": {
    "_hex": "0x5208"
  },
  "miner": "0x957523c697993cB24FCf75EfBce4f228325e7383",
  "extraData": "0x476574682f76312e302e312f6c696e75782f676f312e342e32",
  "transactions": [
    {
      "hash": "0x2b50d350a29ce8f59abf5ef22e0ce9c0ab4c06bddef48917c32f94cec3b86372",
      "blockHash": "0xa71301d76f84bdf40787673b51ba1e3bd2946ae44f726a5094cd970bf2405d79",
      "blockNumber": 46965,
      "transactionIndex": 0,
      "confirmations": null,
      "from": "0xdf8d48B1eb07b3C217790e6c2DF04DC319E7E848",
      "gasPrice": {
        "_hex": "0x45d964b800"
      },
      "gasLimit": {
        "_hex": "0x5208"
      },
      "to": "0x825f8Ac65c876805d1410EdCc237ae5BD9476Bb7",
      "value": {
        "_hex": "0x8ac7230489e80000"
      },
      "nonce": 0,
      "data": "0x",
      "r": "0xcf1678a537e2f58fa350a168c74ac26fcf930d884f7da99dbfe3db5a2a9519f1",
      "s": "0x00db2411babfffa57b69e3353a49c94935cc89f46636eb41487d329a6f75d4b1",
      "v": 28,
      "creates": null,
      "raw": "0xf86b808545d964b80082520894825f8ac65c876805d1410edcc237ae5bd9476bb7888ac7230489e80000801ca0cf1678a537e2f58fa350a168c74ac26fcf930d884f7da99dbfe3db5a2a9519f19fdb2411babfffa57b69e3353a49c94935cc89f46636eb41487d329a6f75d4b1",
      "networkId": 0,
      "chainId": 0
    }
  ]
}