{
  "hash": "0x15d4b39c5a3adfebbec53287a8423a9ffb539a4494fd9e65e5774f87b496749b",
  "parentHash": "0x4a04ab91a7c199341e461b5deb9718f23297742e55d196d0e86b6b0182b062d1",
  "number": 50979,
  "timestamp": 1438997598,
  "nonce": "0x5c367334ff749d92",
  "difficulty": 1548412744980,
  "gasLimit": {
    "_hex": "0x8830d"
  },
  "gasUsed": {
    "_hex": "0x5208"
  },
  "miner": "0x9746c7e1ef2bd21FF3997fa467593a89cb852BD0",
  "extraData": "0x476574682f76312e302e312f77696e646f77732f676f312e342e32",
  "transactions": [
    {
      "hash": "0xbe831e7b4d6ddc14b8ce28339462ec0a14a3b0348d8c7c04f6a7143eed14e267",
      "blockHash": "0x15d4b39c5a3adfebbec53287a8423a9ffb539a4494fd9e65e5774f87b496749b",
      "blockNumber": 50979,
      "transactionIndex": 0,
      "confirmations": null,
      "from": "0x3Ad06149b21C55Ff867cc3fb9740D2BCc7101231",
      "gasPrice": {
        "_hex": "0xde3256317"
      },
      "gasLimit": {
        "_hex": "0x15f90"
      },
      "to": "0x1308A2e95c0160B90803ddCA9B9a5bb55E416d79",
      "value": {
        "_hex": "0x21e19e0c9bab2400000"
      },
      "nonce": 8,
      "data": "0x",
      "r": "0x154a3cd5d704496c09aaf06d79ace094dea3c79a43d7e6170e54f0391b917983",
      "s": "0x1e4c1045f63c33b6b277de72c4ff9bb5031dd718074316f0214a2323eef49d56",
      "v": 28,
      "creates": null,
      "raw": "0xf86f08850de325631783015f90941308a2e95c0160b90803ddca9b9a5bb55e416d798a021e19e0c9bab2400000801ca0154a3cd5d704496c09aaf06d79ace094dea3c79a43d7e6170e54f0391b917983a01e4c1045f63c33b6b277de72c4ff9bb5031dd718074316f0214a2323eef49d56",
      "networkId": 0,
      "chainId": 0
    }
  ]
}