{
  "hash": "0xe9ff3027fdc85c8ec7fab9c61e25481db48a2676602299f1981f2409fa5ca3a3",
  "parentHash": "0x2cd37d27681b419f84dbe33984bb7d3e49e10a88547f11fa72eb259d50bac541",
  "number": 48204,
  "timestamp": 1438953349,
  "nonce": "0x3c6b6144ad733b27",
  "difficulty": 1458637204278,
  "gasLimit": {
    "_hex": "0x13b1d"
  },
  "gasUsed": {
    "_hex": "0xa674"
  },
  "miner": "0xab84940B570d6358ed6A9Dbf7e0bc8Ec8F5A6E89",
  "extraData": "0x322831652933",
  "transactions": [
    {
      "hash": "0x3c775bce879dea010918b2761f1ac723fd438a51e20a22584e663732d16e33a5",
      "blockHash": "0xe9ff3027fdc85c8ec7fab9c61e25481db48a2676602299f1981f2409fa5ca3a3",
      "blockNumber": 48204,
      "transactionIndex": 0,
      "confirmations": null,
      "from": "0x7d7e7c61779adB7706C94D32409A2bb4E994bf60",
      "gasPrice": {
        "_hex": "0x2ba7def3000"
      },
      "gasLimit": {
        "_hex": "0x5208"
      },
      "to": "0x734B61f8167583Fcd27c677b8dB9369C6A3d0689",
      "value": {
        "_hex": "0x2086ac351052600000"
      },
      "nonce": 7,
      "data": "0x",
      "r": "0x903483b29359a99da3d5d6c44ee0f0a9d6520c4d5e1a13ecd687c2c891eaecae",
      "s": "0x5e246dfa450618c58331bb9a68e897746716735b77bc2e6913599e186484b284",
      "v": 27,
      "creates": null,
      "raw": "0xf86e078602ba7def300082520894734b61f8167583fcd27c677b8db9369c6a3d0689892086ac351052600000801ba0903483b29359a99da3d5d6c44ee0f0a9d6520c4d5e1a13ecd687c2c891eaecaea05e246dfa450618c58331bb9a68e897746716735b77bc2e6913599e186484b284",
      "networkId": 0,
      "chainId": 0
    },
    {
      "hash": "0x4865ce042e09966937eef44b8410070c221066eee6e514ca96147748d6ce1197",
      "blockHash": "0xe9ff3027fdc85c8ec7fab9c61e25481db48a2676602299f1981f2409fa5ca3a3",
      "blockNumber": 48204,
      "transactionIndex": 1,
      "confirmations": null,
      "from": "0x91DBB6AaAD149585BE47375c5d6de5Ff09191518",
      "gasPrice": {
        "_hex": "0xdf8475800"
      },
      "gasLimit": {
        "_hex": "0xc738"
      },
      "to": "0x2910543Af39abA0Cd09dBb2D50200b3E800A63D2",
      "value": {
        "_hex": "0xd8d726b7177a800000"
      },
      "nonce": 6,
      "data": "0x454e44475843353152",
      "r": "0x2c499f901cbafdb49fa7edb008f80ab8e36e77c226fa75ffb5b6d4769e7761e3",
      "s": "0x1e2b8c4352b5981cd399c20c8d4a0acfb5beec8ff4a99c0b24750355acd3f848",
      "v": 27,
      "creates": null,
      "raw": "0xf87606850df847580082c738942910543af39aba0cd09dbb2d50200b3e800a63d289d8d726b7177a80000089454e444758433531521ba02c499f901cbafdb49fa7edb008f80ab8e36e77c226fa75ffb5b6d4769e7761e3a01e2b8c4352b5981cd399c20c8d4a0acfb5beec8ff4a99c0b24750355acd3f848",
      "networkId": 0,
      "chainId": 0
    }
  ]
}