{
  "hash": "0x2342443ee41621102dacc4db59969d003b5fe4dfb44fc4d5a4988685f0db96eb",
  "parentHash": "0xa5e81ed820a8fcb8180233d78e77edbaf5bb0ad8011dc32da18ec7495b277ec8",
  "number": 101578,
  "timestamp": 1439824908,
  "nonce": "0x3ca430bf3502b6cc",
  "difficulty": 3886341021986,
  "gasLimit": {
    "_hex": "0x2fefd8"
  },
  "gasUsed": {
    "_hex": "0x5208"
  },
  "miner": "0x55bAf64fc9eAccFFd7Cc643BB61142E1C6ac093e",
  "extraData": "0x",
  "transactions": [
    {
      "hash": "0x48dd645f67d74d0465351c98e151f34c0e187eded2c8abbd7e47c12005571d03",
      "blockHash": "0x2342443ee41621102dacc4db59969d003b5fe4dfb44fc4d5a4988685f0db96eb",
      "blockNumber": 101578,
      "transactionIndex": 0,
      "confirmations": null,
      "from": "0x59cC965F1643a68ad7a4272ff1654d4af4343ea7",
      "gasPrice": {
        "_hex": "0xd3b3a8219"
      },
      "gasLimit": {
        "_hex": "0x5208"
      },
      "to": "0x32Be343B94f860124dC4fEe278FDCBD38C102D88",
      "value": {
        "_hex": "0x24417ecf430f3c000"
      },
      "nonce": 3,
      "data": "0x",
      "r": "0x5fc6260f89fa4640afa20e6c5e564a785a8cce69c10b237a01e28f0259e31565",
      "s": "0x2bab45e6eabb03eaaf7e5d9905b250a002a89803a31859763a1a14fb035b89e3",
      "v": 27,
      "creates": null,
      "raw": "0xf86d03850d3b3a82198252089432be343b94f860124dc4fee278fdcbd38c102d8889024417ecf430f3c000801ba05fc6260f89fa4640afa20e6c5e564a785a8cce69c10b237a01e28f0259e31565a02bab45e6eabb03eaaf7e5d9905b250a002a89803a31859763a1a14fb035b89e3",
      "networkId": 0,
      "chainId": 0
    }
  ]
}