{
  "hash": "0x119f1660838c739d591bf47f50ff5e241ca9c747d94ca88d243de707e28404ba",
  "parentHash": "0xaa752aad946e8a4a870121975bbdbaa1e144cc434e4227e026dc5ee6a32af680",
  "number": 47223,
  "timestamp": 1438936363,
  "nonce": "0xa3bea9eaff46cd47",
  "difficulty": 1460946285143,
  "gasLimit": {
    "_hex": "0xa52d"
  },
  "gasUsed": {
    "_hex": "0x5208"
  },
  "miner": "0xe6A7a1d47ff21B6321162AEA7C6CB457D5476Bca",
  "extraData": "0x657468706f6f6c2e6f7267",
  "transactions": [
    {
      "hash": "0x6fdfcb6f1b3e65da2e6c89f9c1901781c066e86691f1fcfbfa57b92b704640a9",
      "blockHash": "0x119f1660838c739d591bf47f50ff5e241ca9c747d94ca88d243de707e28404ba",
      "blockNumber": 47223,
      "transactionIndex": 0,
      "confirmations": null,
      "from": "0xe6A7a1d47ff21B6321162AEA7C6CB457D5476Bca",
      "gasPrice": {
        "_hex": "0xf41ede57d"
      },
      "gasLimit": {
        "_hex": "0x5208"
      },
      "to": "0xCe266fafD0c5b4fA61Ac52879Cbc1574570Aca16",
      "value": {
        "_hex": "0x796b33960c762608"
      },
      "nonce": 80,
      "data": "0x",
      "r": "0xcd5bb7e55e11898ba4c5c06f10fb6ace8e1a42ae0c8402cbc0bc3d734a96f41f",
      "s": "0x64365e95e698fdd5757a5a8109fe8862178e67236aad9aa783902ca40ed5f143",
      "v": 27,
      "creates": null,
      "raw": "0xf86c50850f41ede57d82520894ce266fafd0c5b4fa61ac52879cbc1574570aca1688796b33960c762608801ba0cd5bb7e55e11898ba4c5c06f10fb6ace8e1a42ae0c8402cbc0bc3d734a96f41fa064365e95e698fdd5757a5a8109fe8862178e67236aad9aa783902ca40ed5f143",
      "networkId": 0,
      "chainId": 0
    }
  ]
}