{
  "hash": "0xf2ff3fc00cb28ac10a5c3d68a9e5027099c646a9ee36140f1399d35c07798eac",
  "parentHash": "0x3f789bae78de98a560759cd08eb66ee9f5bea02690ecf59c980a906ea282451d",
  "number": 112843,
  "timestamp": 1440014097,
  "nonce": "0xf87eea4c44f1a7b0",
  "difficulty": 4438882099057,
  "gasLimit": {
    "_hex": "0x2fefd8"
  },
  "gasUsed": {
    "_hex": "0xa410"
  },
  "miner": "0xC2B0FB302729ef0f4aa96C0E02cC2346459294DF",
  "extraData": "0x",
  "transactions": [
    {
      "hash": "0xf533906ff11146cdc72ddb1603e27a0960d7bb883a0c86709416a967716667c7",
      "blockHash": "0xf2ff3fc00cb28ac10a5c3d68a9e5027099c646a9ee36140f1399d35c07798eac",
      "blockNumber": 112843,
      "transactionIndex": 0,
      "confirmations": null,
      "from": "0x58cAfc9A3273821ec5691840ABfc256952Df94B8",
      "gasPrice": {
        "_hex": "0xded4252a2"
      },
      "gasLimit": {
        "_hex": "0x5208"
      },
      "to": "0x32Be343B94f860124dC4fEe278FDCBD38C102D88",
      "value": {
        "_hex": "0x111ef9b62b2fa0000"
      },
      "nonce": 1,
      "data": "0x",
      "r": "0x4f80f0ff254ef1365abc5d7c0f647510b4cdca2be9639b962cff28a8e868a97c",
      "s": "0x5e711fbb9c3c0f4cc4cb0dc9d900fba1c5b6747bb366c030f610e2c99f4466af",
      "v": 28,
      "creates": null,
      "raw": "0xf86d01850ded4252a28252089432be343b94f860124dc4fee278fdcbd38c102d88890111ef9b62b2fa0000801ca04f80f0ff254ef1365abc5d7c0f647510b4cdca2be9639b962cff28a8e868a97ca05e711fbb9c3c0f4cc4cb0dc9d900fba1c5b6747bb366c030f610e2c99f4466af",
      "networkId": 0,
      "chainId": 0
    },
    {
      "hash": "0xbf9b4fb20f65a42b35bdf51b9247a4d6f6fa90382027bf7db2075a11fb804535",
      "blockHash": "0xf2ff3fc00cb28ac10a5c3d68a9e5027099c646a9ee36140f1399d35c07798eac",
      "blockNumber": 112843,
      "transactionIndex": 1,
      "confirmations": null,
      "from": "0x3B6C409e2ADC909C20B59DF21a7c48F44c259F24",
      "gasPrice": {
        "_hex": "0xded4252a2"
      },
      "gasLimit": {
        "_hex": "0x5208"
      },
      "to": "0x32Be343B94f860124dC4fEe278FDCBD38C102D88",
      "value": {
        "_hex": "0x3665bff512d92c00"
      },
      "nonce": 5,
      "data": "0x",
      "r": "0xbd5779e7b6cd3ef3090ce9a5b7b6eefae854229647bf28cf98f9ad2f9f02dcfe",
      "s": "0x6b7c15f9aca5cadcd26e4ccf00bb9a99eba463b8b4e647b103e029d4be057714",
      "v": 28,
      "creates": null,
      "raw": "0xf86c05850ded4252a28252089432be343b94f860124dc4fee278fdcbd38c102d88883665bff512d92c00801ca0bd5779e7b6cd3ef3090ce9a5b7b6eefae854229647bf28cf98f9ad2f9f02dcfea06b7c15f9aca5cadcd26e4ccf00bb9a99eba463b8b4e647b103e029d4be057714",
      "networkId": 0,
      "chainId": 0
    }
  ]
}