{
  "hash": "0xf0a7009ae3a6a9c7ac02f9686a66342da20b2fdefcbf47eac87d325d224bab58",
  "parentHash": "0xcd6c5e9eb3b316a9a1ec7935bf3a910f0e3d26821aace7d4ee215d47b5098f89",
  "number": 48719,
  "timestamp": 1438961816,
  "nonce": "0xdfcb99f6552453c8",
  "difficulty": 1476461309272,
  "gasLimit": {
    "_hex": "0x1cb6c"
  },
  "gasUsed": {
    "_hex": "0x5208"
  },
  "miner": "0xF2d2AfF1320476cb8C6b607199D23175cc595693",
  "extraData": "0x476574682f76312e302e312f77696e646f77732f676f312e342e32",
  "transactions": [
    {
      "hash": "0xb2790771455351e3d7534a6fdfc0a9697fe85941e4aed25c04fecd1f8eb43ee2",
      "blockHash": "0xf0a7009ae3a6a9c7ac02f9686a66342da20b2fdefcbf47eac87d325d224bab58",
      "blockNumber": 48719,
      "transactionIndex": 0,
      "confirmations": null,
      "from": "0x0037ce3d4B7f8729C8607D8D0248252Be68202c0",
      "gasPrice": {
        "_hex": "0xee10019fe"
      },
      "gasLimit": {
        "_hex": "0x15f90"
      },
      "to": "0x1543667B9bad3e41865C3233E1764d8dda8E1F3D",
      "value": {
        "_hex": "0x38d7ea4c68000"
      },
      "nonce": 0,
      "data": "0x",
      "r": "0xac1b81b61cfb7a80ab04945ccc822a34f47b5cd4a4bd79e0dfaa260096551ac7",
      "s": "0x1e631b309a3ec90baf85509701eb197743d89ef9bbf66f741c5d941a81f2d49f",
      "v": 28,
      "creates": null,
      "raw": "0xf86c80850ee10019fe83015f90941543667b9bad3e41865c3233e1764d8dda8e1f3d87038d7ea4c68000801ca0ac1b81b61cfb7a80ab04945ccc822a34f47b5cd4a4bd79e0dfaa260096551ac7a01e631b309a3ec90baf85509701eb197743d89ef9bbf66f741c5d941a81f2d49f",
      "networkId": 0,
      "chainId": 0
    }
  ]
}