{
  "hash": "0x6cde7a01afc2c82b63e08134996cb27ed39a38c923c6632634acec810136955d",
  "parentHash": "0xa7fd2330726d1104f4963299d6508c55dd2b91567526266fa4cb2551e20d6d9c",
  "number": 60066,
  "timestamp": 1439148541,
  "nonce": "0x4e5214dc1a348e82",
  "difficulty": 1728038531268,
  "gasLimit": {
    "_hex": "0x2fefd8"
  },
  "gasUsed": {
    "_hex": "0x5208"
  },
  "miner": "0x33b01a7fe4A1a5F774Bb73f89A4eF15a6Ffe1141",
  "extraData": "0x476574682f76312e302e312f6c696e75782f676f312e342e32",
  "transactions": [
    {
      "hash": "0x753b71d184244c63bb5b55d2022cae18820f00b73bff2eb97959d03a13475195",
      "blockHash": "0x6cde7a01afc2c82b63e08134996cb27ed39a38c923c6632634acec810136955d",
      "blockNumber": 60066,
      "transactionIndex": 0,
      "confirmations": null,
      "from": "0x96811Ad897894eC178872117C8BF2f03971A393B",
      "gasPrice": {
        "_hex": "0xd7b0b39fb"
      },
      "gasLimit": {
        "_hex": "0x5208"
      },
      "to": "0x32Be343B94f860124dC4fEe278FDCBD38C102D88",
      "value": {
        "_hex": "0x15aed85b53946b000"
      },
      "nonce": 7,
      "data": "0x",
      "r": "0xeeb9259b5da23b29f1c950b462b7cd75b1bb11efbb9720f1baeefe061e31eb47",
      "s": "0x7ccbeb164774d09bb583421d1836d4ad961d87aca6781732f4ee1bfaa3d10b21",
      "v": 27,
      "creates": null,
      "raw": "0xf86d07850d7b0b39fb8252089432be343b94f860124dc4fee278fdcbd38c102d8889015aed85b53946b000801ba0eeb9259b5da23b29f1c950b462b7cd75b1bb11efbb9720f1baeefe061e31eb47a07ccbeb164774d09bb583421d1836d4ad961d87aca6781732f4ee1bfaa3d10b21",
      "networkId": 0,
      "chainId": 0
    }
  ]
}