{
  "hash": "0xf081d8d580146e4035ab8299bd4eda1d246d543b0105339cd89bbb4986d0f732",
  "parentHash": "0x70ea268b795bdc6c255c7256db11e79d435dd0a390adcd5ee8617a552cc40991",
  "number": 75715,
  "timestamp": 1439407904,
  "nonce": "0x23706f7afbc49cc8",
  "difficulty": 2233170363674,
  "gasLimit": {
    "_hex": "0x2fefd8"
  },
  "gasUsed": {
    "_hex": "0x1b497"
  },
  "miner": "0x02dE7d35a60bf6A216411476040ec648668769D7",
  "extraData": "0x476574682f76312e302e312f77696e646f77732f676f312e342e32",
  "transactions": [
    {
      "hash": "0xbeacff6cea01237851df8a13759abd745538a842fabc19c8322999635ece0832",
      "blockHash": "0xf081d8d580146e4035ab8299bd4eda1d246d543b0105339cd89bbb4986d0f732",
      "blockNumber": 75715,
      "transactionIndex": 0,
      "confirmations": null,
      "from": "0x326Be8F71bFb0379f989aAB1CC1fE37f0a771f60",
      "gasPrice": {
        "_hex": "0x1126e149aea"
      },
      "gasLimit": {
        "_hex": "0x493e0"
      },
      "to": "0xD79B4C6791784184e2755B2fC1659eaaB0f80456",
      "value": {
        "_hex": "0xde0b6b3a7640000"
      },
      "nonce": 106,
      "data": "0x8d2161860000000000000000000000000000000000000000000000000000000000000080499b75948b7ee10f01d4a27ed073c880ba81518eafe74570e8cb86e33d864e6f",
      "r": "0xdda33484320c3b4764245c6e2d3eb48c6f0013a1e8fa2dc72354b48a85f621c9",
      "s": "0x0e2ab358a287546bff53db4dccb6328436531bd245e9116061e048e34cc62681",
      "v": 27,
      "creates": null,
      "raw": "0xf8b36a8601126e149aea830493e094d79b4c6791784184e2755b2fc1659eaab0f80456880de0b6b3a7640000b8448d2161860000000000000000000000000000000000000000000000000000000000000080499b75948b7ee10f01d4a27ed073c880ba81518eafe74570e8cb86e33d864e6f1ba0dda33484320c3b4764245c6e2d3eb48c6f0013a1e8fa2dc72354b48a85f621c9a00e2ab358a287546bff53db4dccb6328436531bd245e9116061e048e34cc62681",
      "networkId": 0,
      "chainId": 0
    }
  ]
}