{
  "hash": "0x862f49856135e13554e9d953b11ce8f4813f3e75d559b4dddf3b7f3f5ac06396",
  "parentHash": "0x3dff326b1d3db97fd5a74374c4346c4752e1f92d22856871edc703b643f0aa42",
  "number": 103903,
  "timestamp": 1439860736,
  "nonce": "0xb0a599c65eb984f7",
  "difficulty": 4256722691737,
  "gasLimit": {
    "_hex": "0x2fefd8"
  },
  "gasUsed": {
    "_hex": "0xa410"
  },
  "miner": "0x893Fb367C7E84864E2A1C45D75d7F49cbe4b2073",
  "extraData": "0xd983010001844765746887676f312e342e328777696e646f7773",
  "transactions": [
    {
      "hash": "0xa556215e07e72e7b5088045db913381e882f34a46509a4c872cd2bd9a46f02f3",
      "blockHash": "0x862f49856135e13554e9d953b11ce8f4813f3e75d559b4dddf3b7f3f5ac06396",
      "blockNumber": 103903,
      "transactionIndex": 0,
      "confirmations": null,
      "from": "0x007f7f58D3eb5b7510A301eCC749FC1fCDDBE14D",
      "gasPrice": {
        "_hex": "0xe0cfe7246"
      },
      "gasLimit": {
        "_hex": "0x15f90"
      },
      "to": "0xb1abce2918E21ddb93AA452731a12672A3d9F75a",
      "value": {
        "_hex": "0x4563918244f40000"
      },
      "nonce": 235,
      "data": "0x",
      "r": "0x41a77d1bc50e220de19e086d1930d3676e5475afe2230603733e121ffa3876c1",
      "s": "0x6299fc2ca90ab2fdd912f165dcfb9b5bc4c93fd632c296d6cdc18958c7ee396d",
      "v": 27,
      "creates": null,
      "raw": "0xf86e81eb850e0cfe724683015f9094b1abce2918e21ddb93aa452731a12672a3d9f75a884563918244f40000801ba041a77d1bc50e220de19e086d1930d3676e5475afe2230603733e121ffa3876c1a06299fc2ca90ab2fdd912f165dcfb9b5bc4c93fd632c296d6cdc18958c7ee396d",
      "networkId": 0,
      "chainId": 0
    },
    {
      "hash": "0xfbbd6bbedb672e85459ae66a81154ea19203934b7a34d3b567813877e570b1a1",
      "blockHash": "0x862f49856135e13554e9d953b11ce8f4813f3e75d559b4dddf3b7f3f5ac06396",
      "blockNumber": 103903,
      "transactionIndex": 1,
      "confirmations": null,
      "from": "0x007f7f58D3eb5b7510A301eCC749FC1fCDDBE14D",
      "gasPrice": {
        "_hex": "0xe0cfe7246"
      },
      "gasLimit": {
        "_hex": "0x15f90"
      },
      "to": "0xb1abce2918E21ddb93AA452731a12672A3d9F75a",
      "value": {
        "_hex": "0x4563918244f40000"
      },
      "nonce": 236,
      "data": "0x",
      "r": "0x6152dca686c0202d0fbac3b6e41e219f29809169910035c1778a36939589c4e3",
      "s": "0x596f4d1f82e812a9e5a7b22432c23808f290f8a4eef2937e1fda850bac2e2935",
      "v": 28,
      "creates": null,
      "raw": "0xf86e81ec850e0cfe724683015f9094b1abce2918e21ddb93aa452731a12672a3d9f75a884563918244f40000801ca06152dca686c0202d0fbac3b6e41e219f29809169910035c1778a36939589c4e3a0596f4d1f82e812a9e5a7b22432c23808f290f8a4eef2937e1fda850bac2e2935",
      "networkId": 0,
      "chainId": 0
    }
  ]
}