{
  "hash": "0xce9a7325d0b6c07db9b19bdad0900e529112a840501d739090be730a7e05e4f1",
  "parentHash": "0x8b2998bd27f385d083b0f1c86c72438f5cff2dcbe5dc6d3cdbaa315e8d945d49",
  "number": 71192,
  "timestamp": 1439332134,
  "nonce": "0xb5144d06cb65bbaa",
  "difficulty": 2147728265637,
  "gasLimit": {
    "_hex": "0x2fefd8"
  },
  "gasUsed": {
    "_hex": "0x546c"
  },
  "miner": "0xe6A7a1d47ff21B6321162AEA7C6CB457D5476Bca",
  "extraData": "0x476574682f76312e302e312d38326566323666362f6c696e75782f676f312e34",
  "transactions": [
    {
      "hash": "0x9b17fe46593981cb9e0a2afcc580c5ebe20bcc92600d2f6019c7b697c5ef6870",
      "blockHash": "0xce9a7325d0b6c07db9b19bdad0900e529112a840501d739090be730a7e05e4f1",
      "blockNumber": 71192,
      "transactionIndex": 0,
      "confirmations": null,
      "from": "0x77e41B4125b7c14757e0f07fE36b2E95db757a10",
      "gasPrice": {
        "_hex": "0xda0d13df7"
      },
      "gasLimit": {
        "_hex": "0x55f0"
      },
      "to": "0x2910543Af39abA0Cd09dBb2D50200b3E800A63D2",
      "value": {
        "_hex": "0x8ac7230489e80000"
      },
      "nonce": 7,
      "data": "0x454e47583939505930",
      "r": "0x39d5a2a645960d709a18a0f6311765d335f564364c6ed3b701e9906a89b2f56d",
      "s": "0x7f4bcf7a35718c3618a7635419cfd3d758299c30c65c654fe4804615b8711f48",
      "v": 27,
      "creates": null,
      "raw": "0xf87507850da0d13df78255f0942910543af39aba0cd09dbb2d50200b3e800a63d2888ac7230489e8000089454e475839395059301ba039d5a2a645960d709a18a0f6311765d335f564364c6ed3b701e9906a89b2f56da07f4bcf7a35718c3618a7635419cfd3d758299c30c65c654fe4804615b8711f48",
      "networkId": 0,
      "chainId": 0
    }
  ]
}