{
  "hash": "0x65320997dbc6615a0007d2bf982d4f803a33f7bab5cc2153d110922ae1ba4e96",
  "parentHash": "0xe93651308441edd3b3254fdd80b574878c8d0898319aa586b34d0dfb4db6ecd7",
  "number": 83831,
  "timestamp": 1439541533,
  "nonce": "0x99b14ef59047a9f5",
  "difficulty": 2443117971042,
  "gasLimit": {
    "_hex": "0x2fefd8"
  },
  "gasUsed": {
    "_hex": "0x19a28"
  },
  "miner": "0x007f7f58D3eb5b7510A301eCC749FC1fCDDBE14D",
  "extraData": "0x476574682f76312e302e312f77696e646f77732f676f312e342e32",
  "transactions": [
    {
      "hash": "0xae22549a4424d295611ea787917e78e841671d2f5af9bfdfd55e4d0ea22839f6",
      "blockHash": "0x65320997dbc6615a0007d2bf982d4f803a33f7bab5cc2153d110922ae1ba4e96",
      "blockNumber": 83831,
      "transactionIndex": 0,
      "confirmations": null,
      "from": "0x32Be343B94f860124dC4fEe278FDCBD38C102D88",
      "gasPrice": {
        "_hex": "0xd9bf5a33a"
      },
      "gasLimit": {
        "_hex": "0x5208"
      },
      "to": "0xEFD30A26481Ea1fB8d471379e32195398c940673",
      "value": {
        "_hex": "0x14a2e29f1d018000"
      },
      "nonce": 657,
      "data": "0x",
      "r": "0x1e11bfae5afbacfa13d0936bebc239bf9a67e2ff3d25cceb08d171a4809d4157",
      "s": "0x23f538b7e2966ec85656219dcb8f4e41031a7e23c8cd2e4c90d2b0bac0609d11",
      "v": 27,
      "creates": null,
      "raw": "0xf86e820291850d9bf5a33a82520894efd30a26481ea1fb8d471379e32195398c9406738814a2e29f1d018000801ba01e11bfae5afbacfa13d0936bebc239bf9a67e2ff3d25cceb08d171a4809d4157a023f538b7e2966ec85656219dcb8f4e41031a7e23c8cd2e4c90d2b0bac0609d11",
      "networkId": 0,
      "chainId": 0
    },
    {
      "hash": "0x80a284c006ecd96488ae0bb34d7a866739e8e5aaaa6ba78b854ef85c0b1fc2ec",
      "blockHash": "0x65320997dbc6615a0007d2bf982d4f803a33f7bab5cc2153d110922ae1ba4e96",
      "blockNumber": 83831,
      "transactionIndex": 1,
      "confirmations": null,
      "from": "0x32Be343B94f860124dC4fEe278FDCBD38C102D88",
      "gasPrice": {
        "_hex": "0xd9bf5a33a"
      },
      "gasLimit": {
        "_hex": "0x5208"
      },
      "to": "0x1a2862f1b0f4199be1f399AbF32E28a660668470",
      "value": {
        "_hex": "0x5b2663c8a63be800"
      },
      "nonce": 658,
      "data": "0x",
      "r": "0x20bffe53bcef7891a95aaac392440457fea6f3ca74793aa9ab7d5f26dfa9d180",
      "s": "0x2198b51281386ff02cbbf415341663ee5bce51f2b2ad87311a62b885a5936c11",
      "v": 27,
      "creates": null,
      "raw": "0xf86e820292850d9bf5a33a825208941a2862f1b0f4199be1f399abf32e28a660668470885b2663c8a63be800801ba020bffe53bcef7891a95aaac392440457fea6f3ca74793aa9ab7d5f26dfa9d180a02198b51281386ff02cbbf415341663ee5bce51f2b2ad87311a62b885a5936c11",
      "networkId": 0,
      "chainId": 0
    },
    {
      "hash": "0xc0958a6a45d9a00aec0ec399b939afd8884dbdb9b8be6558123bc00a1b7e300d",
      "blockHash": "0x65320997dbc6615a0007d2bf982d4f803a33f7bab5cc2153d110922ae1ba4e96",
      "blockNumber": 83831,
      "transactionIndex": 2,
      "confirmations": null,
      "from": "0x32Be343B94f860124dC4fEe278FDCBD38C102D88",
      "gasPrice": {
        "_hex": "0xd9bf5a33a"
      },
      "gasLimit": {
        "_hex": "0x5208"
      },
      "to": "0x056507108FE6d30189EcCD6cd7F4Fad56eEef622",
      "value": {
        "_hex": "0x259f50f14f3a160000"
      },
      "nonce": 659,
      "data": "0x",
      "r": "0x895d904921bc9f22ba48c122e014cc481b2a6b9ce07bd66e20d4115acb080e0c",
      "s": "0x44b206e84d45822028979944e42502c9a09231bbd545863ec110ed6821be3081",
      "v": 27,
      "creates": null,
      "raw": "0xf86f820293850d9bf5a33a82520894056507108fe6d30189eccd6cd7f4fad56eeef62289259f50f14f3a160000801ba0895d904921bc9f22ba48c122e014cc481b2a6b9ce07bd66e20d4115acb080e0ca044b206e84d45822028979944e42502c9a09231bbd545863ec110ed6821be3081",
      "networkId": 0,
      "chainId": 0
    },
    {
      "hash": "0x03e7d370c0b05ea455e5704a67fba234615af7cfeaea1b908be9fb6a8e00515c",
      "blockHash": "0x65320997dbc6615a0007d2bf982d4f803a33f7bab5cc2153d110922ae1ba4e96",
      "blockNumber": 83831,
      "transactionIndex": 3,
      "confirmations": null,
      "from": "0x32Be343B94f860124dC4fEe278FDCBD38C102D88",
      "gasPrice": {
        "_hex": "0xd9bf5a33a"
      },
      "gasLimit": {
        "_hex": "0x5208"
      },
      "to": "0xc93a69dFC0fb3E867D9207599f7fe87d51619635",
      "value": {
        "_hex": "0x340874b28cbaf0000"
      },
      "nonce": 660,
      "data": "0x",
      "r": "0xe576766c3e1052fcaaa626d982c2751371e38cbcfd09c81964b30124f4597cb6",
      "s": "0x28174357a3d2621f8d75cb41847f853dcc65c2827fc0cceb5c010a83c7a798af",
      "v": 27,
      "creates": null,
      "raw": "0xf86f820294850d9bf5a33a82520894c93a69dfc0fb3e867d9207599f7fe87d51619635890340874b28cbaf0000801ba0e576766c3e1052fcaaa626d982c2751371e38cbcfd09c81964b30124f4597cb6a028174357a3d2621f8d75cb41847f853dcc65c2827fc0cceb5c010a83c7a798af",
      "networkId": 0,
      "chainId": 0
    },
    {
      "hash": "0x7e3c5cf09c3c32e5eec975d96c23026347fdcf98c86b0d9dad160706fbede779",
      "blockHash": "0x65320997dbc6615a0007d2bf982d4f803a33f7bab5cc2153d110922ae1ba4e96",
      "blockNumber": 83831,
      "transactionIndex": 4,
      "confirmations": null,
      "from": "0x823BA7647238D113bce9964A43D0A098118bfe4d",
      "gasPrice": {
        "_hex": "0xd3bb2bacc"
      },
      "gasLimit": {
        "_hex": "0x5208"
      },
      "to": "0x428780201c611BD04Cb80F1C3f0a54F6B4D9f8a7",
      "value": {
        "_hex": "0x9c2007651b2500000"
      },
      "nonce": 3,
      "data": "0x",
      "r": "0xa845563bdda5c69cf77807b759ee97d2191a4821ea895d73ab020643d2d9cf47",
      "s": "0x7c9ea6682e82148c7109a0bb1eb4a2959234e10dcee6c8675708fcefee79aba7",
      "v": 27,
      "creates": null,
      "raw": "0xf86d03850d3bb2bacc82520894428780201c611bd04cb80f1c3f0a54f6b4d9f8a78909c2007651b2500000801ba0a845563bdda5c69cf77807b759ee97d2191a4821ea895d73ab020643d2d9cf47a07c9ea6682e82148c7109a0bb1eb4a2959234e10dcee6c8675708fcefee79aba7",
      "networkId": 0,
      "chainId": 0
    }
  ]
}