{
  "hash": "0x1709494221d5db8a03811df99846f6894f4e7c05938772ad61d5f37b373284d2",
  "parentHash": "0xac8ba78e6935c7220d3925c55188667086402e0e4874efcdd14f0e15d4089855",
  "number": 84510,
  "timestamp": 1439550688,
  "nonce": "0xc0ebae90b4eb7817",
  "difficulty": 2568923938183,
  "gasLimit": {
    "_hex": "0x2fe3db"
  },
  "gasUsed": {
    "_hex": "0x5208"
  },
  "miner": "0xe6A7a1d47ff21B6321162AEA7C6CB457D5476Bca",
  "extraData": "0x476574682f76312e302e312d38326566323666362f6c696e75782f676f312e34",
  "transactions": [
    {
      "hash": "0xa1feefd48800b06a73ce2134d27a131921fd2475e4d20366aad2022b901bab11",
      "blockHash": "0x1709494221d5db8a03811df99846f6894f4e7c05938772ad61d5f37b373284d2",
      "blockNumber": 84510,
      "transactionIndex": 0,
      "confirmations": null,
      "from": "0xBF1190404Ad7D103833bAD0Cd850a385b9A2D838",
      "gasPrice": {
        "_hex": "0xe1c30e8c4"
      },
      "gasLimit": {
        "_hex": "0x55f0"
      },
      "to": "0xa2BA1357f91629859aD8084f8B284D38c7edd321",
      "value": {
        "_hex": "0x7ce66c50e28400000"
      },
      "nonce": 0,
      "data": "0x",
      "r": "0x3363d7ca93c37dc5b27f9da34468aab89198527dfa37f1c277f4e08570c86b83",
      "s": "0x483169578801d0a8506fcd80c575bc0527f073885291a4f683471c47afe02153",
      "v": 28,
      "creates": null,
      "raw": "0xf86d80850e1c30e8c48255f094a2ba1357f91629859ad8084f8b284d38c7edd3218907ce66c50e28400000801ca03363d7ca93c37dc5b27f9da34468aab89198527dfa37f1c277f4e08570c86b83a0483169578801d0a8506fcd80c575bc0527f073885291a4f683471c47afe02153",
      "networkId": 0,
      "chainId": 0
    }
  ]
}