{
  "hash": "0xd8afe0c581234f5f2af174daf096e589e2acf4d79ab89d450ca8f1cac644b5a1",
  "parentHash": "0xfb0e6de145160dda23b7b8d8d89dd8d8c8bad2140f525bac83c42d83f5074c75",
  "number": 49222,
  "timestamp": 1438970049,
  "nonce": "0xe9430c6c9d5bf983",
  "difficulty": 1478537020294,
  "gasLimit": {
    "_hex": "0x295d5"
  },
  "gasUsed": {
    "_hex": "0x5208"
  },
  "miner": "0xEF247E639d49461D25F57e9362CadE3120910Ce0",
  "extraData": "0x476574682f76312e302e312f6c696e75782f676f312e342e32",
  "transactions": [
    {
      "hash": "0xd91d257a17247fddeeb3d8aaf7a6589738683cbb92a72e556110b59ae9b72e58",
      "blockHash": "0xd8afe0c581234f5f2af174daf096e589e2acf4d79ab89d450ca8f1cac644b5a1",
      "blockNumber": 49222,
      "transactionIndex": 0,
      "confirmations": null,
      "from": "0xE6d49F86C228f47367a35E886CAACB271e539429",
      "gasPrice": {
        "_hex": "0x45d964b800"
      },
      "gasLimit": {
        "_hex": "0x5208"
      },
      "to": "0x38876939fFE3E2F973C27BB77c403BB85CD78645",
      "value": {
        "_hex": "0x16021a4fe452dcac40"
      },
      "nonce": 3,
      "data": "0x",
      "r": "0x34162d02597a25016afb94f558fbc95e07f9f899a93316aa534de5fd9c899e1b",
      "s": "0x6ea7840b1d014a936cb0b769d19e3198aaf5f765e4f16791b0552124dee8529a",
      "v": 28,
      "creates": null,
      "raw": "0xf86d038545d964b8008252089438876939ffe3e2f973c27bb77c403bb85cd786458916021a4fe452dcac40801ca034162d02597a25016afb94f558fbc95e07f9f899a93316aa534de5fd9c899e1ba06ea7840b1d014a936cb0b769d19e3198aaf5f765e4f16791b0552124dee8529a",
      "networkId": 0,
      "chainId": 0
    }
  ]
}