{
  "hash": "0x14bd5778ed38ce3713ca4b6b54ce1afc7e5ac457e3ad5a78b3b78d6dcb2d6ff5",
  "parentHash": "0x1e11da9f74ba1cd6f44c8e24bf062cee6d96aa38fa64dc988ac923079e3a415a",
  "number": 67099,
  "timestamp": 1439265941,
  "nonce": "0x83d2341926d8c7ef",
  "difficulty": 1925210469611,
  "gasLimit": {
    "_hex": "0x2fefd8"
  },
  "gasUsed": {
    "_hex": "0x546c"
  },
  "miner": "0x0037ce3d4B7f8729C8607D8D0248252Be68202c0",
  "extraData": "0x476574682f76312e302e312f77696e646f77732f676f312e342e32",
  "transactions": [
    {
      "hash": "0x4f74112cf720158ac3e9d9863d57e672cb067a7b719c0febc336b35bb4d2ac9b",
      "blockHash": "0x14bd5778ed38ce3713ca4b6b54ce1afc7e5ac457e3ad5a78b3b78d6dcb2d6ff5",
      "blockNumber": 67099,
      "transactionIndex": 0,
      "confirmations": null,
      "from": "0x6170DD0687bD55ca88b87AdEf51CFDc55c4DD458",
      "gasPrice": {
        "_hex": "0x110c8f7d8de"
      },
      "gasLimit": {
        "_hex": "0xc350"
      },
      "to": "0x2910543Af39abA0Cd09dBb2D50200b3E800A63D2",
      "value": {
        "_hex": "0x479c00a941040000"
      },
      "nonce": 0,
      "data": "0x454e47454659323730",
      "r": "0x3bea5dec5d94e750ddf01756556fe4aa6b11f2f5521238697ff7652c663e7ea0",
      "s": "0xedcecfa1ae2e143b8a41068130678a3a094cda079c12c5f3cc04601cb73659a4",
      "v": 28,
      "creates": null,
      "raw": "0xf87680860110c8f7d8de82c350942910543af39aba0cd09dbb2d50200b3e800a63d288479c00a94104000089454e474546593237301ca03bea5dec5d94e750ddf01756556fe4aa6b11f2f5521238697ff7652c663e7ea0a0edcecfa1ae2e143b8a41068130678a3a094cda079c12c5f3cc04601cb73659a4",
      "networkId": 0,
      "chainId": 0
    }
  ]
}