{
  "hash": "0xedef83fae00c87df49a7094f31d25bf77bd336cabd5fe91111d2ee1309731b7b",
  "parentHash": "0x8a55b50437468528696acc61fb08ea1d739e7937122312775e8d54aba96a80ea",
  "number": 110381,
  "timestamp": 1439972802,
  "nonce": "0xc78fc3615e301841",
  "difficulty": 4362816923732,
  "gasLimit": {
    "_hex": "0x2fefd8"
  },
  "gasUsed": {
    "_hex": "0xa410"
  },
  "miner": "0xe6A7a1d47ff21B6321162AEA7C6CB457D5476Bca",
  "extraData": "0x476574682f76312e302e312d38326566323666362f6c696e75782f676f312e34",
  "transactions": [
    {
      "hash": "0xc583d31d65ce987f843c832722899f12e50c9549ed551a2891cf5c62bf6573fc",
      "blockHash": "0xedef83fae00c87df49a7094f31d25bf77bd336cabd5fe91111d2ee1309731b7b",
      "blockNumber": 110381,
      "transactionIndex": 0,
      "confirmations": null,
      "from": "0xb4eb03c9bDD4944DE22085E8e1dB5Ebd36889Bd8",
      "gasPrice": {
        "_hex": "0xcacc166b6"
      },
      "gasLimit": {
        "_hex": "0x5208"
      },
      "to": "0x32Be343B94f860124dC4fEe278FDCBD38C102D88",
      "value": {
        "_hex": "0x5bf86cb82f5b9c00"
      },
      "nonce": 8,
      "data": "0x",
      "r": "0xee8693a4ff83cc2872a609e354ae82fa0e12441f45fd9442b0ac09a2c1efb642",
      "s": "0x71044c2ddb273b1b47b430249c9032ce9092c9d6903d95b22dec3ebed89a668d",
      "v": 28,
      "creates": null,
      "raw": "0xf86c08850cacc166b68252089432be343b94f860124dc4fee278fdcbd38c102d88885bf86cb82f5b9c00801ca0ee8693a4ff83cc2872a609e354ae82fa0e12441f45fd9442b0ac09a2c1efb642a071044c2ddb273b1b47b430249c9032ce9092c9d6903d95b22dec3ebed89a668d",
      "networkId": 0,
      "chainId": 0
    },
    {
      "hash": "0x8271b2a9855d0949258024d993235136758cd89b11938d8abff5aa1c31240408",
      "blockHash": "0xedef83fae00c87df49a7094f31d25bf77bd336cabd5fe91111d2ee1309731b7b",
      "blockNumber": 110381,
      "transactionIndex": 1,
      "confirmations": null,
      "from": "0x3B399fF2b96F27056Ab8a7f6e028b0dBaF386279",
      "gasPrice": {
        "_hex": "0xcacc166b6"
      },
      "gasLimit": {
        "_hex": "0x5208"
      },
      "to": "0x32Be343B94f860124dC4fEe278FDCBD38C102D88",
      "value": {
        "_hex": "0x14dd4e67c0365d000"
      },
      "nonce": 8,
      "data": "0x",
      "r": "0x0fd8b46d6f02447008ba98d2b3e828930ae1cfeded9fc7f3c397a222fd327049",
      "s": "0x6c807b09235ee4f7ffd3dc76804dfed72a87d7ed35e1d2d64224b537c0b289cb",
      "v": 27,
      "creates": null,
      "raw": "0xf86d08850cacc166b68252089432be343b94f860124dc4fee278fdcbd38c102d8889014dd4e67c0365d000801ba00fd8b46d6f02447008ba98d2b3e828930ae1cfeded9fc7f3c397a222fd327049a06c807b09235ee4f7ffd3dc76804dfed72a87d7ed35e1d2d64224b537c0b289cb",
      "networkId": 0,
      "chainId": 0
    }
  ]
}