{
  "hash": "0xc733880ad5c3efac866bbc33526bad9c2bcfc2b2d4f431d50f410de5f1e3ac61",
  "parentHash": "0xbce90e1fcde9d93c5bff06e8d4698382efc3f0d1b160dab35f7333d5223aa082",
  "number": 83047,
  "timestamp": 1439529036,
  "nonce": "0x567d6cbfeea0b411",
  "difficulty": 2414880466711,
  "gasLimit": {
    "_hex": "0x2fefd8"
  },
  "gasUsed": {
    "_hex": "0x19a28"
  },
  "miner": "0xf8E0CA3Ed80bd541b94BEdCf259e8CF2141A9523",
  "extraData": "0x476574682f76312e302e312f77696e646f77732f676f312e342e32",
  "transactions": [
    {
      "hash": "0x94ec3ec169c6c3127dfa671e328f738360be5c1d4d8f08802fc718a6911ee79e",
      "blockHash": "0xc733880ad5c3efac866bbc33526bad9c2bcfc2b2d4f431d50f410de5f1e3ac61",
      "blockNumber": 83047,
      "transactionIndex": 0,
      "confirmations": null,
      "from": "0xb577b6BEfA054E9c040461855094B002D7f57bd7",
      "gasPrice": {
        "_hex": "0x1117dc0757b"
      },
      "gasLimit": {
        "_hex": "0x15f90"
      },
      "to": "0x1BF3aa6bA1a55E2e26b26a4799d33c2c14945406",
      "value": {
        "_hex": "0x6c6b935b8bbd400000"
      },
      "nonce": 3,
      "data": "0x",
      "r": "0x7e80dc030f5f5596e6d4caa991bd3030e9208629dc7b89e9ef65b155d59be851",
      "s": "0x17a766587519455ac1c3b9fd80bf90a2190d4c49bc9baae276bfeeab1a578dce",
      "v": 28,
      "creates": null,
      "raw": "0xf86f038601117dc0757b83015f90941bf3aa6ba1a55e2e26b26a4799d33c2c14945406896c6b935b8bbd400000801ca07e80dc030f5f5596e6d4caa991bd3030e9208629dc7b89e9ef65b155d59be851a017a766587519455ac1c3b9fd80bf90a2190d4c49bc9baae276bfeeab1a578dce",
      "networkId": 0,
      "chainId": 0
    },
    {
      "hash": "0xf86857d0c2bfbe805cd4b2573dc19fe147086592e1d12cf13f6dbeefd5d6f7cc",
      "blockHash": "0xc733880ad5c3efac866bbc33526bad9c2bcfc2b2d4f431d50f410de5f1e3ac61",
      "blockNumber": 83047,
      "transactionIndex": 1,
      "confirmations": null,
      "from": "0x2e32A53e7972001B996D994722B1ab3dD869949d",
      "gasPrice": {
        "_hex": "0xdcd94ff02"
      },
      "gasLimit": {
        "_hex": "0x5208"
      },
      "to": "0x32Be343B94f860124dC4fEe278FDCBD38C102D88",
      "value": {
        "_hex": "0x350a989e6e4bc00"
      },
      "nonce": 0,
      "data": "0x",
      "r": "0xb964a7a0c164c4f125d8466daa8aafdbbdb29dc023ed1ce06bc0896b486e3ae5",
      "s": "0x0446e8c31cea54c89d5477904bd5370cc3f065a9c537ec269cdd4fe98e3dbe1c",
      "v": 27,
      "creates": null,
      "raw": "0xf86c80850dcd94ff028252089432be343b94f860124dc4fee278fdcbd38c102d88880350a989e6e4bc00801ba0b964a7a0c164c4f125d8466daa8aafdbbdb29dc023ed1ce06bc0896b486e3ae5a00446e8c31cea54c89d5477904bd5370cc3f065a9c537ec269cdd4fe98e3dbe1c",
      "networkId": 0,
      "chainId": 0
    },
    {
      "hash": "0x541482552a5bf60e5985dd9b39e668802773aa9b3a707bf2425f06209d686a1f",
      "blockHash": "0xc733880ad5c3efac866bbc33526bad9c2bcfc2b2d4f431d50f410de5f1e3ac61",
      "blockNumber": 83047,
      "transactionIndex": 2,
      "confirmations": null,
      "from": "0xa70a9a7040d542C632D8e0bE7c5513A8a5Bbc752",
      "gasPrice": {
        "_hex": "0xdcd94ff02"
      },
      "gasLimit": {
        "_hex": "0x5208"
      },
      "to": "0x32Be343B94f860124dC4fEe278FDCBD38C102D88",
      "value": {
        "_hex": "0x455f25396e64c000"
      },
      "nonce": 69,
      "data": "0x",
      "r": "0x73bf08ddb8e593548e9ba49972306ea3dccca732fc5734c775e5dc44d129b518",
      "s": "0x0c2d41c2edde4aaa378602cc43fe39c0ce4ff163069de8a9bfa982e5a9a6b7d3",
      "v": 27,
      "creates": null,
      "raw": "0xf86c45850dcd94ff028252089432be343b94f860124dc4fee278fdcbd38c102d8888455f25396e64c000801ba073bf08ddb8e593548e9ba49972306ea3dccca732fc5734c775e5dc44d129b518a00c2d41c2edde4aaa378602cc43fe39c0ce4ff163069de8a9bfa982e5a9a6b7d3",
      "networkId": 0,
      "chainId": 0
    },
    {
      "hash": "0x5a47abaab82a9b49fb4060eb38f42b0db97df9d4a84c03bed4e829b422605ce6",
      "blockHash": "0xc733880ad5c3efac866bbc33526bad9c2bcfc2b2d4f431d50f410de5f1e3ac61",
      "blockNumber": 83047,
      "transactionIndex": 3,
      "confirmations": null,
      "from": "0x1527fcd698B3A8707bb745F80ab114FfF3Db35E2",
      "gasPrice": {
        "_hex": "0xdcd94ff02"
      },
      "gasLimit": {
        "_hex": "0x5208"
      },
      "to": "0x32Be343B94f860124dC4fEe278FDCBD38C102D88",
      "value": {
        "_hex": "0xde66679b201000"
      },
      "nonce": 4,
      "data": "0x",
      "r": "0xaab2167931ca03ccb64be1506ca14f435e110449a30a572b90f3139e31325f49",
      "s": "0x43e484d2609133ecc5a25b548016e3383dbdf1f0490ca18c7f9ae67cc7cdcaf7",
      "v": 27,
      "creates": null,
      "raw": "0xf86b04850dcd94ff028252089432be343b94f860124dc4fee278fdcbd38c102d8887de66679b201000801ba0aab2167931ca03ccb64be1506ca14f435e110449a30a572b90f3139e31325f49a043e484d2609133ecc5a25b548016e3383dbdf1f0490ca18c7f9ae67cc7cdcaf7",
      "networkId": 0,
      "chainId": 0
    },
    {
      "hash": "0x5b5db1a33e5692d06e7a89f7b5fd1f714624c96055aa6f82c0b1e7f42b7c4891",
      "blockHash": "0xc733880ad5c3efac866bbc33526bad9c2bcfc2b2d4f431d50f410de5f1e3ac61",
      "blockNumber": 83047,
      "transactionIndex": 4,
      "confirmations": null,
      "from": "0x4F26690c992B7A312AB12e1385d94aCd58288E7B",
      "gasPrice": {
        "_hex": "0xd602d0809"
      },
      "gasLimit": {
        "_hex": "0x15f90"
      },
      "to": "0x4407C1fD881eDb12aC8281c8d4182042bdDD377B",
      "value": {
        "_hex": "0x14542ba12a337c00000"
      },
      "nonce": 1,
      "data": "0x",
      "r": "0x1c3f84ff726bb6995ef72b5fb761817d7ac52c5507d55c9a14d23101605453d9",
      "s": "0x30ab9dfbc6256c3b716cea67c6df360cc84026df851f6a3976f3687453098459",
      "v": 27,
      "creates": null,
      "raw": "0xf86f01850d602d080983015f90944407c1fd881edb12ac8281c8d4182042bddd377b8a014542ba12a337c00000801ba01c3f84ff726bb6995ef72b5fb761817d7ac52c5507d55c9a14d23101605453d9a030ab9dfbc6256c3b716cea67c6df360cc84026df851f6a3976f3687453098459",
      "networkId": 0,
      "chainId": 0
    }
  ]
}