{
  "hash": "0xd5d76e9c65ce79b7f882db872925d794b61c282684afc3839c22543a60d8cecb",
  "parentHash": "0xe83c292b727caaf96ca63ea0c11f03f3ece5a474bbed6682e5d5417f85e9b6eb",
  "number": 99207,
  "timestamp": 1439786165,
  "nonce": "0x22a28af69a020de5",
  "difficulty": 3799241829812,
  "gasLimit": {
    "_hex": "0x2fefd8"
  },
  "gasUsed": {
    "_hex": "0x5208"
  },
  "miner": "0xe6A7a1d47ff21B6321162AEA7C6CB457D5476Bca",
  "extraData": "0x476574682f76312e302e312d38326566323666362f6c696e75782f676f312e34",
  "transactions": [
    {
      "hash": "0xdf9026f2cddf6cfd603c19b640964bb295d20ef59cdd6d947d42f5957644c3c9",
      "blockHash": "0xd5d76e9c65ce79b7f882db872925d794b61c282684afc3839c22543a60d8cecb",
      "blockNumber": 99207,
      "transactionIndex": 0,
      "confirmations": null,
      "from": "0x120A270bbC009644e35F0bB6ab13f95b8199c4ad",
      "gasPrice": {
        "_hex": "0xd836c8095"
      },
      "gasLimit": {
        "_hex": "0x3d090"
      },
      "to": "0x5dA68C70b2b675Cf00019749FCaCc89B31B3A667",
      "value": {
        "_hex": "0x97c9ce4cf6d5c0000"
      },
      "nonce": 664,
      "data": "0x",
      "r": "0x804a18208ceb2cef4455146ab073f204796d8f130113544e8d0475a06b61da8a",
      "s": "0x4cf7df58885ce3970f800330b9ab6c610bbfc722d136ab540f2f3c3b14e175fc",
      "v": 28,
      "creates": null,
      "raw": "0xf870820298850d836c80958303d090945da68c70b2b675cf00019749fcacc89b31b3a66789097c9ce4cf6d5c0000801ca0804a18208ceb2cef4455146ab073f204796d8f130113544e8d0475a06b61da8aa04cf7df58885ce3970f800330b9ab6c610bbfc722d136ab540f2f3c3b14e175fc",
      "networkId": 0,
      "chainId": 0
    }
  ]
}