{
  "hash": "0xa13fd5c90b795e4237e4b7daf21ba6b5a9dc1b69692545192439809ddbf92a14",
  "parentHash": "0x5230530bb072bdf39df35a195d8dc8c1cc9fdcbed64c976fe49f15372d5177a5",
  "number": 117192,
  "timestamp": 1440105141,
  "nonce": "0x1233521b0d931741",
  "difficulty": 4306385690334,
  "gasLimit": {
    "_hex": "0x2fefd8"
  },
  "gasUsed": {
    "_hex": "0x5208"
  },
  "miner": "0x8df03bD37602d97980327B58D940258dC57007B3",
  "extraData": "0x",
  "transactions": [
    {
      "hash": "0x12535732d2969471749c1ef41789fd9aacc0ab77a124557c7659d3881626d72b",
      "blockHash": "0xa13fd5c90b795e4237e4b7daf21ba6b5a9dc1b69692545192439809ddbf92a14",
      "blockNumber": 117192,
      "transactionIndex": 0,
      "confirmations": null,
      "from": "0x84ad64deFF6B187f690634051D2a096C359D1099",
      "gasPrice": {
        "_hex": "0xba43b7400"
      },
      "gasLimit": {
        "_hex": "0x5208"
      },
      "to": "0x3888630926a62680E30855Cf8F2C1eB6FA7C7Da8",
      "value": {
        "_hex": "0x1158e460913d00000"
      },
      "nonce": 9,
      "data": "0x",
      "r": "0xfef254cfc7e16a9ddd0842039245ba57c3630a9505ca755924b275140a1ceb17",
      "s": "0x4a2f4c43621e4f8c200bcd9c1ee0b3ca2ecb218cddfa7fdd7f9910c8329578e3",
      "v": 28,
      "creates": null,
      "raw": "0xf86d09850ba43b7400825208943888630926a62680e30855cf8f2c1eb6fa7c7da88901158e460913d00000801ca0fef254cfc7e16a9ddd0842039245ba57c3630a9505ca755924b275140a1ceb17a04a2f4c43621e4f8c200bcd9c1ee0b3ca2ecb218cddfa7fdd7f9910c8329578e3",
      "networkId": 0,
      "chainId": 0
    }
  ]
}