{
  "hash": "0xa3d062b44ae798a8b910d27ed988cf5f48a3244711d201be958899494523b933",
  "parentHash": "0xb194f6cfc63995edfd16b28e49d661024a619ee3d63a976d591d582f476eb719",
  "number": 111881,
  "timestamp": 1439997760,
  "nonce": "0xef90ad31f60b6e2e",
  "difficulty": 4430728951729,
  "gasLimit": {
    "_hex": "0x2fefd8"
  },
  "gasUsed": {
    "_hex": "0x5208"
  },
  "miner": "0x52bc44d5378309EE2abF1539BF71dE1b7d7bE3b5",
  "extraData": "0x476574682f76312e302e312d63303261396266632f6c696e75782f676f312e34",
  "transactions": [
    {
      "hash": "0x74572d12a842cbf66081434a88415e61d84dd60392da3cdbbdc4327e1db2e9a7",
      "blockHash": "0xa3d062b44ae798a8b910d27ed988cf5f48a3244711d201be958899494523b933",
      "blockNumber": 111881,
      "transactionIndex": 0,
      "confirmations": null,
      "from": "0x4D67f4F0Db45b3B5a3424B39ed8d972F710381D5",
      "gasPrice": {
        "_hex": "0xd93834983"
      },
      "gasLimit": {
        "_hex": "0x5208"
      },
      "to": "0x32Be343B94f860124dC4fEe278FDCBD38C102D88",
      "value": {
        "_hex": "0x2f9dfa173796b0000"
      },
      "nonce": 37,
      "data": "0x",
      "r": "0x9088af40cb6cd9f9260d1083dae8dbd0703153fcf197e29d510643fe0c40a760",
      "s": "0x6cb4bb0cc160a408fcc6669331c3025416f431252e6cc757c1aad5a36f8f4299",
      "v": 27,
      "creates": null,
      "raw": "0xf86d25850d938349838252089432be343b94f860124dc4fee278fdcbd38c102d888902f9dfa173796b0000801ba09088af40cb6cd9f9260d1083dae8dbd0703153fcf197e29d510643fe0c40a760a06cb4bb0cc160a408fcc6669331c3025416f431252e6cc757c1aad5a36f8f4299",
      "networkId": 0,
      "chainId": 0
    }
  ]
}