{
  "hash": "0x3817d767380e9a4e281e7b67a6ae8f7ca1533bcecfbe23adfbf779d543a89928",
  "parentHash": "0xb3fcf626422e75db5efbe75b67fb5e2c089825914592e75990f03589d85e4757",
  "number": 58995,
  "timestamp": 1439130334,
  "nonce": "0xd6881996ae02555c",
  "difficulty": 1707290497162,
  "gasLimit": {
    "_hex": "0x2fefd8"
  },
  "gasUsed": {
    "_hex": "0x5208"
  },
  "miner": "0x157c6f2431eB1a95797EE86F7d17b3c0FD47A247",
  "extraData": "0x476574682f76312e302e312f77696e646f77732f676f312e342e32",
  "transactions": [
    {
      "hash": "0xc5d59bb1cf08e5f151d68aad1c981ea4dd9fb10e31fb446ea8e8f81ac4107ab6",
      "blockHash": "0x3817d767380e9a4e281e7b67a6ae8f7ca1533bcecfbe23adfbf779d543a89928",
      "blockNumber": 58995,
      "transactionIndex": 0,
      "confirmations": null,
      "from": "0x2d5b42FC59ebda0Dfd66aE914BC28c1B0a6Ef83A",
      "gasPrice": {
        "_hex": "0xdf61c0f39"
      },
      "gasLimit": {
        "_hex": "0x5bbd"
      },
      "to": "0xE73aa111fd3Ebc226B09A83b591b7D5143CE7F34",
      "value": {
        "_hex": "0xa968163f0a57b400000"
      },
      "nonce": 4,
      "data": "0x",
      "r": "0x16a917b4c7d924992b611bce538340e47baf04f8042307df7a85ee4ee4214c11",
      "s": "0x6e870ffb825ac4b606662ba72048239289b74ad3a04e5466d2447f4dbede1ac0",
      "v": 28,
      "creates": null,
      "raw": "0xf86e04850df61c0f39825bbd94e73aa111fd3ebc226b09a83b591b7d5143ce7f348a0a968163f0a57b400000801ca016a917b4c7d924992b611bce538340e47baf04f8042307df7a85ee4ee4214c11a06e870ffb825ac4b606662ba72048239289b74ad3a04e5466d2447f4dbede1ac0",
      "networkId": 0,
      "chainId": 0
    }
  ]
}