{
  "hash": "0xc7ddc0b23c235e4829aca3df8443ea6408ca79c50cf06fc2b67cef51674b29d1",
  "parentHash": "0x6e9d6fea2e39aa04b19f87fb97fecf0fa5c0b7cdbeecc3c054ac5de933e30488",
  "number": 53980,
  "timestamp": 1439046700,
  "nonce": "0x201e5210f94690de",
  "difficulty": 1608732891839,
  "gasLimit": {
    "_hex": "0x2fefd8"
  },
  "gasUsed": {
    "_hex": "0x5208"
  },
  "miner": "0xbb7B8287f3F0a933474a79eAe42CBCa977791171",
  "extraData": "0x476574682f4c5649562f76312e302e312f6c696e75782f676f312e342e32",
  "transactions": [
    {
      "hash": "0x95c49e22670ea70fa7c9ef3f9519c088643027eef144e99e1466de27f4a25565",
      "blockHash": "0xc7ddc0b23c235e4829aca3df8443ea6408ca79c50cf06fc2b67cef51674b29d1",
      "blockNumber": 53980,
      "transactionIndex": 0,
      "confirmations": null,
      "from": "0xEF247E639d49461D25F57e9362CadE3120910Ce0",
      "gasPrice": {
        "_hex": "0xdeb783234"
      },
      "gasLimit": {
        "_hex": "0x15f90"
      },
      "to": "0xF87481A262E993a75F791E7859E71BaC36A606Eb",
      "value": {
        "_hex": "0x821ab0d4414980000"
      },
      "nonce": 4,
      "data": "0x",
      "r": "0xb3829c087437850c2c672c61c7d15b8773ff762106a7c7cc06d344ff51b374e3",
      "s": "0x456dc80a0a49a3c68683c7dfa4469e895fb514fa2f4cd6f476f0a7f3a282078f",
      "v": 28,
      "creates": null,
      "raw": "0xf86e04850deb78323483015f9094f87481a262e993a75f791e7859e71bac36a606eb890821ab0d4414980000801ca0b3829c087437850c2c672c61c7d15b8773ff762106a7c7cc06d344ff51b374e3a0456dc80a0a49a3c68683c7dfa4469e895fb514fa2f4cd6f476f0a7f3a282078f",
      "networkId": 0,
      "chainId": 0
    }
  ]
}