{
  "hash": "0xbbecd6f43d1da39be3c30beb84f7d66d86a2956ddcfb56c7aea68f8eb4ced5b6",
  "parentHash": "0x3915f3fcb4a457808876dc9176d5ab48f2e342677770da902c5a9661d1f0f21d",
  "number": 101823,
  "timestamp": 1439828645,
  "nonce": "0xa76339d7cc80dcfc",
  "difficulty": 3884330409102,
  "gasLimit": {
    "_hex": "0x2fefd8"
  },
  "gasUsed": {
    "_hex": "0x5208"
  },
  "miner": "0x7D45E10A0d63eCCA0694a7cbfF030f4dD87DA0dC",
  "extraData": "0x476574682f76312e302e302f77696e646f77732f676f312e342e32",
  "transactions": [
    {
      "hash": "0x52308bbd65d4f87569f5e7569f706a38d47c697d622d2e9f57dc00daf6270b0b",
      "blockHash": "0xbbecd6f43d1da39be3c30beb84f7d66d86a2956ddcfb56c7aea68f8eb4ced5b6",
      "blockNumber": 101823,
      "transactionIndex": 0,
      "confirmations": null,
      "from": "0xDdaCBcba2a4fe9313F7CCA044872A9c51bD1E4c8",
      "gasPrice": {
        "_hex": "0xccfed7e95"
      },
      "gasLimit": {
        "_hex": "0x5208"
      },
      "to": "0x32Be343B94f860124dC4fEe278FDCBD38C102D88",
      "value": {
        "_hex": "0x669199ba8cfc3400"
      },
      "nonce": 2,
      "data": "0x",
      "r": "0xfcfc9a17f68db57a0755c3ded84c9b72b78daedefce4e4a16b34476240e61019",
      "s": "0x5a9853c9abed010787427fb57b8b07af8d9916b9bba38553640eb94ce55d8ab9",
      "v": 28,
      "creates": null,
      "raw": "0xf86c02850ccfed7e958252089432be343b94f860124dc4fee278fdcbd38c102d8888669199ba8cfc3400801ca0fcfc9a17f68db57a0755c3ded84c9b72b78daedefce4e4a16b34476240e61019a05a9853c9abed010787427fb57b8b07af8d9916b9bba38553640eb94ce55d8ab9",
      "networkId": 0,
      "chainId": 0
    }
  ]
}