{
  "hash": "0xa7254b2f3a416e07d7ba608eea730be073901f0dbc52533231bde197d7b22fb4",
  "parentHash": "0x232822a6b42abe9a8e71e14d489f4c62814d4503064bd31016d74a0a1357ce7c",
  "number": 87433,
  "timestamp": 1439592142,
  "nonce": "0xac1a2e89fd64ca42",
  "difficulty": 3126505792280,
  "gasLimit": {
    "_hex": "0x2fefd8"
  },
  "gasUsed": {
    "_hex": "0x5208"
  },
  "miner": "0xA1623430350C5df1b52B0b57483A5bb45d1796Da",
  "extraData": "0x476574682f76312e302e312d38326566323666362f6c696e75782f676f312e34",
  "transactions": [
    {
      "hash": "0xf98ca2de511677946164b16e38754f91ed656c8f41085dae8653f048c1ace1a8",
      "blockHash": "0xa7254b2f3a416e07d7ba608eea730be073901f0dbc52533231bde197d7b22fb4",
      "blockNumber": 87433,
      "transactionIndex": 0,
      "confirmations": null,
      "from": "0x32Be343B94f860124dC4fEe278FDCBD38C102D88",
      "gasPrice": {
        "_hex": "0xde4a026a9"
      },
      "gasLimit": {
        "_hex": "0x5208"
      },
      "to": "0xcf1Ff05a6E5c3E328dDfEB4C867DD56F26CF47D9",
      "value": {
        "_hex": "0x1bc16d674ec80000"
      },
      "nonce": 786,
      "data": "0x",
      "r": "0xcaeb2f1fc08a76bd7af084cb99437b590f0898c060b7cc81f9b2f2c2924ec40f",
      "s": "0x1120e61aab798a6dbe4823854d0fe26909c43acb42322c81bd2db7e3a218be17",
      "v": 27,
      "creates": null,
      "raw": "0xf86e820312850de4a026a982520894cf1ff05a6e5c3e328ddfeb4c867dd56f26cf47d9881bc16d674ec80000801ba0caeb2f1fc08a76bd7af084cb99437b590f0898c060b7cc81f9b2f2c2924ec40fa01120e61aab798a6dbe4823854d0fe26909c43acb42322c81bd2db7e3a218be17",
      "networkId": 0,
      "chainId": 0
    }
  ]
}