{
  "hash": "0x950487f38ba821333c170b7367e763f4a96b43baea3097240a7669e0f565e531",
  "parentHash": "0xb6e370b2ab542bbaeb3395feaae911cf93f96b548797fb02fd9dd2630834b28c",
  "number": 55476,
  "timestamp": 1439071252,
  "nonce": "0x7332fb20c4ddcbda",
  "difficulty": 1632180656786,
  "gasLimit": {
    "_hex": "0x2fefd8"
  },
  "gasUsed": {
    "_hex": "0x2f9f68"
  },
  "miner": "0xf8E0CA3Ed80bd541b94BEdCf259e8CF2141A9523",
  "extraData": "0x476574682f76312e302e312f77696e646f77732f676f312e342e32",
  "transactions": [
    {
      "hash": "0x59b28916c885526277a3d28a754cfb304fb613a8b9021b2d06ec6225473921fc",
      "blockHash": "0x950487f38ba821333c170b7367e763f4a96b43baea3097240a7669e0f565e531",
      "blockNumber": 55476,
      "transactionIndex": 0,
      "confirmations": null,
      "from": "0xC759dc67E0c3816fdC56A2f5bb29920fc07e767D",
      "gasPrice": {
        "_hex": "0xd492319a2"
      },
      "gasLimit": {
        "_hex": "0x5208"
      },
      "to": "0x910a4aADabb3A7B3F7879118332E13Da66b68D77",
      "value": {
        "_hex": "0x1e5b8fa8fe2ac0000"
      },
      "nonce": 7,
      "data": "0x",
      "r": "0x2fe7e9715b3de4572cbeb4d57bd05834028901971986bf3ad6655b13c37b844b",
      "s": "0x0c5865444e9dca3eec181037b17af108abcb79042ff3d007f7a000c0a4fcecd3",
      "v": 28,
      "creates": null,
      "raw": "0xf86d07850d492319a282520894910a4aadabb3a7b3f7879118332e13da66b68d778901e5b8fa8fe2ac0000801ca02fe7e9715b3de4572cbeb4d57bd05834028901971986bf3ad6655b13c37b844ba00c5865444e9dca3eec181037b17af108abcb79042ff3d007f7a000c0a4fcecd3",
      "networkId": 0,
      "chainId": 0
    },
    {
      "hash": "0x23fc9735c803a09852a10c6245f476930807e76928a34ebc6501380640d0ded8",
      "blockHash": "0x950487f38ba821333c170b7367e763f4a96b43baea3097240a7669e0f565e531",
      "blockNumber": 55476,
      "transactionIndex": 1,
      "confirmations": null,
      "from": "0x8674c218F0351a62C3BA78C34FD2182A93Da94E2",
      "gasPrice": {
        "_hex": "0xba43b7400"
      },
      "gasLimit": {
        "_hex": "0x2f4d60"
      },
      "to": "0x1686ECA4501A2D0bFf4bD85B64EA0E158B804c49",
      "value": {
        "_hex": "0x0"
      },
      "nonce": 63,
      "data": "0xde6f24bb0000000000000000000000008674c218f0351a62c3ba78c34fd2182a93da94e20000000000000000000000000000000000000000000000000000000000000040000000000000000000000000000000000000000000000000000000000000000d68656c6c6f323232323232322100000000000000000000000000000000000000",
      "r": "0xaa1375247a6b38b5cef0749486c47339e085c458356f027c409b2918263a98cd",
      "s": "0x69fe9aa126b8e757374a1abf2d7318641137a26fca57bbadfbffcc068b981d91",
      "v": 27,
      "creates": null,
      "raw": "0xf8ea3f850ba43b7400832f4d60941686eca4501a2d0bff4bd85b64ea0e158b804c4980b884de6f24bb0000000000000000000000008674c218f0351a62c3ba78c34fd2182a93da94e20000000000000000000000000000000000000000000000000000000000000040000000000000000000000000000000000000000000000000000000000000000d68656c6c6f3232323232323221000000000000000000000000000000000000001ba0aa1375247a6b38b5cef0749486c47339e085c458356f027c409b2918263a98cda069fe9aa126b8e757374a1abf2d7318641137a26fca57bbadfbffcc068b981d91",
      "networkId": 0,
      "chainId": 0
    }
  ]
}