{
  "hash": "0x029d4621eaa9f2ffad1937490912a22bb55313fc31ba60387078760305210fd9",
  "parentHash": "0x806aae9e79a18e331e19bd3c28e696e4b2ba6d7217254877c3f09348b257f2b7",
  "number": 101056,
  "timestamp": 1439816816,
  "nonce": "0x609255f75c3ee94a",
  "difficulty": 3856337235653,
  "gasLimit": {
    "_hex": "0x2fefd8"
  },
  "gasUsed": {
    "_hex": "0xa410"
  },
  "miner": "0xe6A7a1d47ff21B6321162AEA7C6CB457D5476Bca",
  "extraData": "0x476574682f76312e302e312d38326566323666362f6c696e75782f676f312e34",
  "transactions": [
    {
      "hash": "0xd4d20a4d1eda189a15249d65e7e06a2b0015a20f66fa579d1ecb672b994d2851",
      "blockHash": "0x029d4621eaa9f2ffad1937490912a22bb55313fc31ba60387078760305210fd9",
      "blockNumber": 101056,
      "transactionIndex": 0,
      "confirmations": null,
      "from": "0x3D5292e9d2a2D31014717ff936A0F9375A5Cc8b7",
      "gasPrice": {
        "_hex": "0xd396e34bb"
      },
      "gasLimit": {
        "_hex": "0x15f90"
      },
      "to": "0x9f78552704fe7e52cC7C3853534aA2C3cf580D54",
      "value": {
        "_hex": "0x4563918244f40000"
      },
      "nonce": 13,
      "data": "0x",
      "r": "0xb6d081a1770608c2e615b95e163b972e05a923869b983998b102df08ed93fb75",
      "s": "0x50453f8fb70fa2dbb0076dd2b8159f9ef0ff83d385b3825ea7fe3a3fdf1ae82f",
      "v": 28,
      "creates": null,
      "raw": "0xf86d0d850d396e34bb83015f90949f78552704fe7e52cc7c3853534aa2c3cf580d54884563918244f40000801ca0b6d081a1770608c2e615b95e163b972e05a923869b983998b102df08ed93fb75a050453f8fb70fa2dbb0076dd2b8159f9ef0ff83d385b3825ea7fe3a3fdf1ae82f",
      "networkId": 0,
      "chainId": 0
    },
    {
      "hash": "0x735fb2ddd05cfcd987eaa5c1a3aa77c5564ca84687d696a52b93c43c33e67f72",
      "blockHash": "0x029d4621eaa9f2ffad1937490912a22bb55313fc31ba60387078760305210fd9",
      "blockNumber": 101056,
      "transactionIndex": 1,
      "confirmations": null,
      "from": "0xcf00A85f3826941e7A25BFcF9Aac575d40410852",
      "gasPrice": {
        "_hex": "0xcb5bea614"
      },
      "gasLimit": {
        "_hex": "0x15f90"
      },
      "to": "0xD9666150A9dA92d9108198a4072970805a8B3428",
      "value": {
        "_hex": "0x4563918244f40000"
      },
      "nonce": 34,
      "data": "0x",
      "r": "0x13bcddf7a96667900cc7b96a33489ed910c902749c7ee5c5cb42f49af8109b0a",
      "s": "0x612588f3d461027dbfeaee6efa5b24f77f616b1374707579ad1352cdd12ff926",
      "v": 27,
      "creates": null,
      "raw": "0xf86d22850cb5bea61483015f9094d9666150a9da92d9108198a4072970805a8b3428884563918244f40000801ba013bcddf7a96667900cc7b96a33489ed910c902749c7ee5c5cb42f49af8109b0aa0612588f3d461027dbfeaee6efa5b24f77f616b1374707579ad1352cdd12ff926",
      "networkId": 0,
      "chainId": 0
    }
  ]
}