{
  "hash": "0x8873cce0f97c4c884039f0960a015f46c1197002ea58be90916cfcefee7c2eab",
  "parentHash": "0x0abe9f57700b227ead1e3b589f567ac0aa706db5827f25f53ce30569b900dfdb",
  "number": 90734,
  "timestamp": 1439644699,
  "nonce": "0x41221225075c557d",
  "difficulty": 3374282378310,
  "gasLimit": {
    "_hex": "0x2fefd8"
  },
  "gasUsed": {
    "_hex": "0x5208"
  },
  "miner": "0x7366ADF97960d404c38D975e1A8786bEb14B6507",
  "extraData": "0x476574682f76312e302e312f77696e646f77732f676f312e342e32",
  "transactions": [
    {
      "hash": "0x16f2709db0c4252438b19f27c6e585f49f42cea631866d9b9fd09a0539e9045a",
      "blockHash": "0x8873cce0f97c4c884039f0960a015f46c1197002ea58be90916cfcefee7c2eab",
      "blockNumber": 90734,
      "transactionIndex": 0,
      "confirmations": null,
      "from": "0x85804C279425A6403f00cC9C4b7045dC0CA2F82E",
      "gasPrice": {
        "_hex": "0xda96d7a17"
      },
      "gasLimit": {
        "_hex": "0x15f90"
      },
      "to": "0x519DC97eF09491aE962A8F13fe144c71feca4662",
      "value": {
        "_hex": "0x4563918244f40000"
      },
      "nonce": 4,
      "data": "0x",
      "r": "0x6dfe7ede90d372b7d66d360757e31daafc6c39bf9c9aec51605369691e6c5a77",
      "s": "0x79ff6c21c0ac7185f06ce83733dfe468e86ad1e9bf9bd67dd51fc0107a96374f",
      "v": 27,
      "creates": null,
      "raw": "0xf86d04850da96d7a1783015f9094519dc97ef09491ae962a8f13fe144c71feca4662884563918244f40000801ba06dfe7ede90d372b7d66d360757e31daafc6c39bf9c9aec51605369691e6c5a77a079ff6c21c0ac7185f06ce83733dfe468e86ad1e9bf9bd67dd51fc0107a96374f",
      "networkId": 0,
      "chainId": 0
    }
  ]
}