{
  "hash": "0xb198c23f795b577e551e98a0c5b8bb29bed941e1e0cbda74bd60c9e44e0cabbb",
  "parentHash": "0x08c7f3a9f5b07294152138905810b4269202d918f3819dc4037355625e4517d4",
  "number": 108257,
  "timestamp": 1439937244,
  "nonce": "0x8c3a6e9913731fd8",
  "difficulty": 4351155512976,
  "gasLimit": {
    "_hex": "0x2fefd8"
  },
  "gasUsed": {
    "_hex": "0xa410"
  },
  "miner": "0x623d2411c3bb3340784155F9a688b0085251aB5c",
  "extraData": "0x",
  "transactions": [
    {
      "hash": "0xc82727f2bf8e9ccd47cb7fc0166eb13b1755b86d702a29e6aca83fb7845bd489",
      "blockHash": "0xb198c23f795b577e551e98a0c5b8bb29bed941e1e0cbda74bd60c9e44e0cabbb",
      "blockNumber": 108257,
      "transactionIndex": 0,
      "confirmations": null,
      "from": "0x16a4739e52878d2924e0F51cb5D3068aFafb397B",
      "gasPrice": {
        "_hex": "0xdae3ea515"
      },
      "gasLimit": {
        "_hex": "0x7a120"
      },
      "to": "0xBBDa93a81B882774e1c9b5e3F933Fa35DaC8bc88",
      "value": {
        "_hex": "0x15af1d78b58c40000"
      },
      "nonce": 1,
      "data": "0x",
      "r": "0x3412eed0fb4b3e5704b4201e9eb881af41172f437bcdd7b11c64b7f1d4ea2b84",
      "s": "0x0b8cd9d3d402bebf1b27279ee86e6430ba9efc8f2456004507ed57efacce4664",
      "v": 27,
      "creates": null,
      "raw": "0xf86e01850dae3ea5158307a12094bbda93a81b882774e1c9b5e3f933fa35dac8bc8889015af1d78b58c40000801ba03412eed0fb4b3e5704b4201e9eb881af41172f437bcdd7b11c64b7f1d4ea2b84a00b8cd9d3d402bebf1b27279ee86e6430ba9efc8f2456004507ed57efacce4664",
      "networkId": 0,
      "chainId": 0
    },
    {
      "hash": "0x807766c4e07a93da76877698090b670dc16b620b4cc697f9b0568fe97c16dd4d",
      "blockHash": "0xb198c23f795b577e551e98a0c5b8bb29bed941e1e0cbda74bd60c9e44e0cabbb",
      "blockNumber": 108257,
      "transactionIndex": 1,
      "confirmations": null,
      "from": "0x790b8a3cE86E707ED0eD32bF89B3269692a23CC1",
      "gasPrice": {
        "_hex": "0xd8962efc0"
      },
      "gasLimit": {
        "_hex": "0x15f90"
      },
      "to": "0x4D67f4F0Db45b3B5a3424B39ed8d972F710381D5",
      "value": {
        "_hex": "0x2f9e3fb2098f20000"
      },
      "nonce": 41,
      "data": "0x",
      "r": "0xdde648a836f860507b591db375380251b6816a7dc7fd7eb6a48b0382723de614",
      "s": "0x2b60ca7470669a6b2a8b4e95762897f12b4c4350bfa0f5100300b88c6f6e528c",
      "v": 28,
      "creates": null,
      "raw": "0xf86e29850d8962efc083015f90944d67f4f0db45b3b5a3424b39ed8d972f710381d58902f9e3fb2098f20000801ca0dde648a836f860507b591db375380251b6816a7dc7fd7eb6a48b0382723de614a02b60ca7470669a6b2a8b4e95762897f12b4c4350bfa0f5100300b88c6f6e528c",
      "networkId": 0,
      "chainId": 0
    }
  ]
}