{
  "hash": "0xf60bfbb655a9e74e642ef341f0d25d7291140abb1eb33ccded6382881d4981e2",
  "parentHash": "0x391df8ef298569e532f797b98a09ed3f327135bdb9aa6d72ff8e7747800e66ed",
  "number": 111574,
  "timestamp": 1439992619,
  "nonce": "0xd1199fdef746d50b",
  "difficulty": 4424405295070,
  "gasLimit": {
    "_hex": "0x2fefd8"
  },
  "gasUsed": {
    "_hex": "0xa410"
  },
  "miner": "0xe6A7a1d47ff21B6321162AEA7C6CB457D5476Bca",
  "extraData": "0x476574682f76312e302e312d38326566323666362f6c696e75782f676f312e34",
  "transactions": [
    {
      "hash": "0x3c3d9bef6318e43f24dfa301d98fb114f93c4126430b121c17e9c0e59ea850aa",
      "blockHash": "0xf60bfbb655a9e74e642ef341f0d25d7291140abb1eb33ccded6382881d4981e2",
      "blockNumber": 111574,
      "transactionIndex": 0,
      "confirmations": null,
      "from": "0xF11940EA05aA9CC3F13aCF5C5cA6EDCF312E3Aec",
      "gasPrice": {
        "_hex": "0xe00053435"
      },
      "gasLimit": {
        "_hex": "0x15f90"
      },
      "to": "0x59C62d3D43f9EA1c4118d98c188AA5d028b8bB8E",
      "value": {
        "_hex": "0x649d2c967d9500000"
      },
      "nonce": 13,
      "data": "0x",
      "r": "0x04fc4f25dd0c5317499eff88fa36bd5f5589ababf9407c7a9ae16339c58c331a",
      "s": "0x692e783a572cf6a650fc762e565bfd4b500073113af567b47cf0ffc04848c6b9",
      "v": 27,
      "creates": null,
      "raw": "0xf86e0d850e0005343583015f909459c62d3d43f9ea1c4118d98c188aa5d028b8bb8e890649d2c967d9500000801ba004fc4f25dd0c5317499eff88fa36bd5f5589ababf9407c7a9ae16339c58c331aa0692e783a572cf6a650fc762e565bfd4b500073113af567b47cf0ffc04848c6b9",
      "networkId": 0,
      "chainId": 0
    },
    {
      "hash": "0xc598d244e51cfca20e71dcfe62636111eb66daa536abe37edc04626c9306fc41",
      "blockHash": "0xf60bfbb655a9e74e642ef341f0d25d7291140abb1eb33ccded6382881d4981e2",
      "blockNumber": 111574,
      "transactionIndex": 1,
      "confirmations": null,
      "from": "0x120A270bbC009644e35F0bB6ab13f95b8199c4ad",
      "gasPrice": {
        "_hex": "0xd40055180"
      },
      "gasLimit": {
        "_hex": "0x3d090"
      },
      "to": "0x60d85a32126130b225913C23dF4e5EF8b759fA09",
      "value": {
        "_hex": "0x25f273933db5700000"
      },
      "nonce": 883,
      "data": "0x",
      "r": "0x4693631e758c971b793fec329497cea5d8968a5f188ef4d3200e74060e60e633",
      "s": "0x06676547fa8cb1d567e67ff1a12f8232ebca089c664970d16cf663361f381126",
      "v": 27,
      "creates": null,
      "raw": "0xf870820373850d400551808303d0909460d85a32126130b225913c23df4e5ef8b759fa098925f273933db5700000801ba04693631e758c971b793fec329497cea5d8968a5f188ef4d3200e74060e60e633a006676547fa8cb1d567e67ff1a12f8232ebca089c664970d16cf663361f381126",
      "networkId": 0,
      "chainId": 0
    }
  ]
}