{
  "hash": "0x58ab8e7ac9b443ee7ff0c75f5de762a90f57c3f46d0d568e59e18fe4290a39b6",
  "parentHash": "0x95e9f3525646cbf62efcd111adce2184211db08a7d3a3e850de6a0f84ce28095",
  "number": 89848,
  "timestamp": 1439630109,
  "nonce": "0x9fb3c07d5b34f1fc",
  "difficulty": 3341843720257,
  "gasLimit": {
    "_hex": "0x2fefd8"
  },
  "gasUsed": {
    "_hex": "0x29040"
  },
  "miner": "0x4905B41F0A570ed20bbe5D76501b80Fa5508B9FB",
  "extraData": "0xd783010001844765746887676f312e342e32856c696e7578",
  "transactions": [
    {
      "hash": "0x8b1d242c1fff64ae875b106d0f7f3e75017c7185833238da03bd557978ea9b73",
      "blockHash": "0x58ab8e7ac9b443ee7ff0c75f5de762a90f57c3f46d0d568e59e18fe4290a39b6",
      "blockNumber": 89848,
      "transactionIndex": 0,
      "confirmations": null,
      "from": "0xe6A7a1d47ff21B6321162AEA7C6CB457D5476Bca",
      "gasPrice": {
        "_hex": "0xe1bd3c25a"
      },
      "gasLimit": {
        "_hex": "0x55f0"
      },
      "to": "0xBF7B0E43c329d2cD6864dD8F81c0d79cd2134297",
      "value": {
        "_hex": "0x206a328ab69ffe04"
      },
      "nonce": 2497,
      "data": "0x",
      "r": "0x175070f6064e197e16105d4ee584178da410286abeabc2993024bf71b84b7925",
      "s": "0x54c1269c6a0451e03e4ce4edbe8d757066f5fca6c9033650561de2e4bcce0b2b",
      "v": 28,
      "creates": null,
      "raw": "0xf86e8209c1850e1bd3c25a8255f094bf7b0e43c329d2cd6864dd8f81c0d79cd213429788206a328ab69ffe04801ca0175070f6064e197e16105d4ee584178da410286abeabc2993024bf71b84b7925a054c1269c6a0451e03e4ce4edbe8d757066f5fca6c9033650561de2e4bcce0b2b",
      "networkId": 0,
      "chainId": 0
    },
    {
      "hash": "0xe4b5616a16bea28693a9eecdc8c0eab01d2e5a68128c8f58b020cade29b3abf3",
      "blockHash": "0x58ab8e7ac9b443ee7ff0c75f5de762a90f57c3f46d0d568e59e18fe4290a39b6",
      "blockNumber": 89848,
      "transactionIndex": 1,
      "confirmations": null,
      "from": "0xe6A7a1d47ff21B6321162AEA7C6CB457D5476Bca",
      "gasPrice": {
        "_hex": "0xe1bd3c25a"
      },
      "gasLimit": {
        "_hex": "0x55f0"
      },
      "to": "0xD671e71108Bd20F1A8e2A4f73a7449Bf8DAa840f",
      "value": {
        "_hex": "0x6e659ac7782ac318"
      },
      "nonce": 2498,
      "data": "0x",
      "r": "0xcc6ec24306d36f848ca899d5a75c3df3276c446ce873a526aa826919ae38ec01",
      "s": "0x3e5ee66d89e7b08285fe11a8f71704a2725830c49b9b0fa4eec76eb0e2662bfc",
      "v": 28,
      "creates": null,
      "raw": "0xf86e8209c2850e1bd3c25a8255f094d671e71108bd20f1a8e2a4f73a7449bf8daa840f886e659ac7782ac318801ca0cc6ec24306d36f848ca899d5a75c3df3276c446ce873a526aa826919ae38ec01a03e5ee66d89e7b08285fe11a8f71704a2725830c49b9b0fa4eec76eb0e2662bfc",
      "networkId": 0,
      "chainId": 0
    },
    {
      "hash": "0xc1361a47828d409c85cbfdf38a8e6a220cdb4a7ec91942b2e57c1919726cffde",
      "blockHash": "0x58ab8e7ac9b443ee7ff0c75f5de762a90f57c3f46d0d568e59e18fe4290a39b6",
      "blockNumber": 89848,
      "transactionIndex": 2,
      "confirmations": null,
      "from": "0x2910543Af39abA0Cd09dBb2D50200b3E800A63D2",
      "gasPrice": {
        "_hex": "0xdf7aa736b"
      },
      "gasLimit": {
        "_hex": "0x5208"
      },
      "to": "0x8F68fbE2DCFf038C24F650C9e05Ee478038171cd",
      "value": {
        "_hex": "0x1b1ad31369b76f8000"
      },
      "nonce": 767,
      "data": "0x",
      "r": "0x471598894c94e49fb5dd77bba3eec32dd8747f9256eb5cbe6b0bc32fc34fcb7a",
      "s": "0x69c0874d72648f4eaf679e622c374b2573740eb2046affb7f93eb7ee8ac9b89f",
      "v": 28,
      "creates": null,
      "raw": "0xf86f8202ff850df7aa736b825208948f68fbe2dcff038c24f650c9e05ee478038171cd891b1ad31369b76f8000801ca0471598894c94e49fb5dd77bba3eec32dd8747f9256eb5cbe6b0bc32fc34fcb7aa069c0874d72648f4eaf679e622c374b2573740eb2046affb7f93eb7ee8ac9b89f",
      "networkId": 0,
      "chainId": 0
    },
    {
      "hash": "0x68b73199b99b5623c5686110e0e5d6047daf26a530fb17163d71e59e3d93d3d9",
      "blockHash": "0x58ab8e7ac9b443ee7ff0c75f5de762a90f57c3f46d0d568e59e18fe4290a39b6",
      "blockNumber": 89848,
      "transactionIndex": 3,
      "confirmations": null,
      "from": "0x6CB5e8313a5B29aDb14AE1884D3EcE4489d02D77",
      "gasPrice": {
        "_hex": "0xd26411990"
      },
      "gasLimit": {
        "_hex": "0x5208"
      },
      "to": "0x32Be343B94f860124dC4fEe278FDCBD38C102D88",
      "value": {
        "_hex": "0x1e267c4c0836a2000"
      },
      "nonce": 3,
      "data": "0x",
      "r": "0x7a8d1e4986c8fd3d51eae3ee35d30599e1112197ba890fdb20b589c52aca8c28",
      "s": "0x00e8f8328787d34fa88ad11a930cbc0db17d46a6f21185df20caafd993d72b4c",
      "v": 27,
      "creates": null,
      "raw": "0xf86c03850d264119908252089432be343b94f860124dc4fee278fdcbd38c102d888901e267c4c0836a2000801ba07a8d1e4986c8fd3d51eae3ee35d30599e1112197ba890fdb20b589c52aca8c289fe8f8328787d34fa88ad11a930cbc0db17d46a6f21185df20caafd993d72b4c",
      "networkId": 0,
      "chainId": 0
    },
    {
      "hash": "0x4c8d44b1cad0b7694fc45a0e400edf93dbdecbf5ddbb796fc49823ebc1d85ee0",
      "blockHash": "0x58ab8e7ac9b443ee7ff0c75f5de762a90f57c3f46d0d568e59e18fe4290a39b6",
      "blockNumber": 89848,
      "transactionIndex": 4,
      "confirmations": null,
      "from": "0x9Fa88512e871481291d0416CEFf5B3764f840aED",
      "gasPrice": {
        "_hex": "0xd26411990"
      },
      "gasLimit": {
        "_hex": "0x5208"
      },
      "to": "0x32Be343B94f860124dC4fEe278FDCBD38C102D88",
      "value": {
        "_hex": "0xfdfbce33305a0000"
      },
      "nonce": 3,
      "data": "0x",
      "r": "0xf79cc8df61deeb9d17f0d130f81cc2dbdd54dbb13d840b4e8e6a6b5ab637a078",
      "s": "0x0d61fc525f25283a6aeab8d912c680ea8276055860a10406e2772acae8f25221",
      "v": 28,
      "creates": null,
      "raw": "0xf86c03850d264119908252089432be343b94f860124dc4fee278fdcbd38c102d8888fdfbce33305a0000801ca0f79cc8df61deeb9d17f0d130f81cc2dbdd54dbb13d840b4e8e6a6b5ab637a078a00d61fc525f25283a6aeab8d912c680ea8276055860a10406e2772acae8f25221",
      "networkId": 0,
      "chainId": 0
    },
    {
      "hash": "0xeb89920ab90e77d60ce8e5e62e8ee1686b8088aaaff537208a22f0f1e074ec1c",
      "blockHash": "0x58ab8e7ac9b443ee7ff0c75f5de762a90f57c3f46d0d568e59e18fe4290a39b6",
      "blockNumber": 89848,
      "transactionIndex": 5,
      "confirmations": null,
      "from": "0x46b29910396E1cF71678f81101334A180876E9b1",
      "gasPrice": {
        "_hex": "0xd26411990"
      },
      "gasLimit": {
        "_hex": "0x5208"
      },
      "to": "0x32Be343B94f860124dC4fEe278FDCBD38C102D88",
      "value": {
        "_hex": "0xbb56db1132a15000"
      },
      "nonce": 3,
      "data": "0x",
      "r": "0x9312e707697432699e14977afd70cacfb87593163864e4842c2fb1559c45731a",
      "s": "0x22a87fbbd80409daa264338841254b96724250e086ad5c44dd116d38e5e35e6c",
      "v": 27,
      "creates": null,
      "raw": "0xf86c03850d264119908252089432be343b94f860124dc4fee278fdcbd38c102d8888bb56db1132a15000801ba09312e707697432699e14977afd70cacfb87593163864e4842c2fb1559c45731aa022a87fbbd80409daa264338841254b96724250e086ad5c44dd116d38e5e35e6c",
      "networkId": 0,
      "chainId": 0
    },
    {
      "hash": "0x5d78c19eaa085979c1ca39f2f3ac73ab1c4fcdf21fd187e05ceced604f97d2a9",
      "blockHash": "0x58ab8e7ac9b443ee7ff0c75f5de762a90f57c3f46d0d568e59e18fe4290a39b6",
      "blockNumber": 89848,
      "transactionIndex": 6,
      "confirmations": null,
      "from": "0xa61ff394e3846F8bfbBF8801afb051730B04Ee75",
      "gasPrice": {
        "_hex": "0xd26411990"
      },
      "gasLimit": {
        "_hex": "0x5208"
      },
      "to": "0x32Be343B94f860124dC4fEe278FDCBD38C102D88",
      "value": {
        "_hex": "0x260c8fd0c60560000"
      },
      "nonce": 3,
      "data": "0x",
      "r": "0x2fc92e94988f1935e3c56601d421bf16e155a161d2f383df9916e9cc2cff4a71",
      "s": "0x48e91ccb67ed5da2a280962e73590d756c3947e8e13a0f6df368f054d9e1b486",
      "v": 27,
      "creates": null,
      "raw": "0xf86d03850d264119908252089432be343b94f860124dc4fee278fdcbd38c102d88890260c8fd0c60560000801ba02fc92e94988f1935e3c56601d421bf16e155a161d2f383df9916e9cc2cff4a71a048e91ccb67ed5da2a280962e73590d756c3947e8e13a0f6df368f054d9e1b486",
      "networkId": 0,
      "chainId": 0
    },
    {
      "hash": "0x0cb49c5dce9034f1aab90a88f7252574ed3809409159122375b684116797f950",
      "blockHash": "0x58ab8e7ac9b443ee7ff0c75f5de762a90f57c3f46d0d568e59e18fe4290a39b6",
      "blockNumber": 89848,
      "transactionIndex": 7,
      "confirmations": null,
      "from": "0xF928B4834e4E886e04630Af5b4Ea8eBf46Fb205b",
      "gasPrice": {
        "_hex": "0xd26411990"
      },
      "gasLimit": {
        "_hex": "0x5208"
      },
      "to": "0x32Be343B94f860124dC4fEe278FDCBD38C102D88",
      "value": {
        "_hex": "0x2fbfb535f90386000"
      },
      "nonce": 3,
      "data": "0x",
      "r": "0x85dcc0ea1f638f6f906084fd7b83ed6bdbae41e619df8f1221524c533d311b11",
      "s": "0x032bcddc6c6985814688c13e9c9c97f462fce9693a17f651fe27ecbeddd4211f",
      "v": 27,
      "creates": null,
      "raw": "0xf86d03850d264119908252089432be343b94f860124dc4fee278fdcbd38c102d888902fbfb535f90386000801ba085dcc0ea1f638f6f906084fd7b83ed6bdbae41e619df8f1221524c533d311b11a0032bcddc6c6985814688c13e9c9c97f462fce9693a17f651fe27ecbeddd4211f",
      "networkId": 0,
      "chainId": 0
    }
  ]
}