{
  "hash": "0x688dea1ebf353d548c74c1a81073306f237905af0fbc2c29e288af7ba2a52f6c",
  "parentHash": "0x61c7541790c51dd1b7350a6006d233d05f530958f9dfce71f42393f30b5a6075",
  "number": 75558,
  "timestamp": 1439405479,
  "nonce": "0xf144bb804d5edca6",
  "difficulty": 2212589690056,
  "gasLimit": {
    "_hex": "0x2fefd8"
  },
  "gasUsed": {
    "_hex": "0xad77"
  },
  "miner": "0xe6A7a1d47ff21B6321162AEA7C6CB457D5476Bca",
  "extraData": "0x476574682f76312e302e312d38326566323666362f6c696e75782f676f312e34",
  "transactions": [
    {
      "hash": "0x68c56bd4087d6ec360c11b4f7f348deef310dc820664abe4dbe1eab5b8b8e33e",
      "blockHash": "0x688dea1ebf353d548c74c1a81073306f237905af0fbc2c29e288af7ba2a52f6c",
      "blockNumber": 75558,
      "transactionIndex": 0,
      "confirmations": null,
      "from": "0x87C5B5874A18B4306DF8a752a6C8cc3E82daFc19",
      "gasPrice": {
        "_hex": "0x102657639e1"
      },
      "gasLimit": {
        "_hex": "0x493e0"
      },
      "to": "0xD79B4C6791784184e2755B2fC1659eaaB0f80456",
      "value": {
        "_hex": "0x0"
      },
      "nonce": 54,
      "data": "0x03750d940000000000000000000000009724ac4dc56e03379eba5d157d1513ecc32cbd8f6166376536643765333338373933306500000000000000000000000000000000",
      "r": "0xfa4af19c3d62cd40e70f67554912b41ed734b52c824d62aad4cfe3fabe0d8f3a",
      "s": "0x6fc4030fd9f45b31eeb8e9dda9dea76e4e37107ced7a4e3c4d321a5484b22d24",
      "v": 27,
      "creates": null,
      "raw": "0xf8ab36860102657639e1830493e094d79b4c6791784184e2755b2fc1659eaab0f8045680b84403750d940000000000000000000000009724ac4dc56e03379eba5d157d1513ecc32cbd8f61663765366437653333383739333065000000000000000000000000000000001ba0fa4af19c3d62cd40e70f67554912b41ed734b52c824d62aad4cfe3fabe0d8f3aa06fc4030fd9f45b31eeb8e9dda9dea76e4e37107ced7a4e3c4d321a5484b22d24",
      "networkId": 0,
      "chainId": 0
    }
  ]
}