{
  "hash": "0x4705c8968caa6bf8f57aa7d764cca831a25b8322b11a840744d080d81074ebab",
  "parentHash": "0x1c8a350204d23ae6b719ab79b97ef6de973598fc55c424fc400afd04320e91d4",
  "number": 84029,
  "timestamp": 1439543967,
  "nonce": "0x7bdbf20810d5a211",
  "difficulty": 2493679401809,
  "gasLimit": {
    "_hex": "0x2fefd8"
  },
  "gasUsed": {
    "_hex": "0x5208"
  },
  "miner": "0xe6A7a1d47ff21B6321162AEA7C6CB457D5476Bca",
  "extraData": "0x476574682f76312e302e312d38326566323666362f6c696e75782f676f312e34",
  "transactions": [
    {
      "hash": "0x399442d21e3fbd6236219bef9d303f2675645a53cdb3841deb2cd704493a1956",
      "blockHash": "0x4705c8968caa6bf8f57aa7d764cca831a25b8322b11a840744d080d81074ebab",
      "blockNumber": 84029,
      "transactionIndex": 0,
      "confirmations": null,
      "from": "0xBD744E3F13D79B33F6c8E1d5E32F8E9BA2866c46",
      "gasPrice": {
        "_hex": "0xd8dfad30d"
      },
      "gasLimit": {
        "_hex": "0x5208"
      },
      "to": "0xD2e57181beE0BF25a2E7D377EaCCec854Bd65334",
      "value": {
        "_hex": "0x56bd03fe9ff004000"
      },
      "nonce": 15,
      "data": "0x",
      "r": "0x820cb9816893577c94ca396a7b7710747124d4b675751b786d0df96880389e6c",
      "s": "0x334bcf7c9649ba73d7bd2b6f280b6e521d9b6dfae282d27e989e23b0ba70f079",
      "v": 27,
      "creates": null,
      "raw": "0xf86d0f850d8dfad30d82520894d2e57181bee0bf25a2e7d377eaccec854bd6533489056bd03fe9ff004000801ba0820cb9816893577c94ca396a7b7710747124d4b675751b786d0df96880389e6ca0334bcf7c9649ba73d7bd2b6f280b6e521d9b6dfae282d27e989e23b0ba70f079",
      "networkId": 0,
      "chainId": 0
    }
  ]
}