{
  "hash": "0x8fc7d29810512d15f4fa3896ac54569d447812f9630dfbc03dfc2aa03bc8c3da",
  "parentHash": "0x7edb6f47b04ffc353454bd41137c46b7a9251dc528a3cd0ea794e3c9c744e4f9",
  "number": 83935,
  "timestamp": 1439542841,
  "nonce": "0xc97d225be80e1118",
  "difficulty": 2474301159273,
  "gasLimit": {
    "_hex": "0x2fefd8"
  },
  "gasUsed": {
    "_hex": "0x546c"
  },
  "miner": "0xe6A7a1d47ff21B6321162AEA7C6CB457D5476Bca",
  "extraData": "0x476574682f76312e302e312d38326566323666362f6c696e75782f676f312e34",
  "transactions": [
    {
      "hash": "0x57ec40ac0dbaeb7177b5c8ae65a2b8cd87ae524281608df3e19077539d53fb5e",
      "blockHash": "0x8fc7d29810512d15f4fa3896ac54569d447812f9630dfbc03dfc2aa03bc8c3da",
      "blockNumber": 83935,
      "transactionIndex": 0,
      "confirmations": null,
      "from": "0xd8f4bAe6f84d910d6d7D5AC914b1E68372F94135",
      "gasPrice": {
        "_hex": "0x110c8f7d8de"
      },
      "gasLimit": {
        "_hex": "0xc350"
      },
      "to": "0x2910543Af39abA0Cd09dBb2D50200b3E800A63D2",
      "value": {
        "_hex": "0x55de6a779bbac0000"
      },
      "nonce": 0,
      "data": "0x454e5044564d333330",
      "r": "0x119162287701fb6d6baecd4e4cee6b72ab2984d5531d90c0d38048c2e21a864a",
      "s": "0x10cf0f3f508b1d1c49f5b77fd1d74266c99b1456067f4fea2472fab20565772f",
      "v": 27,
      "creates": null,
      "raw": "0xf87780860110c8f7d8de82c350942910543af39aba0cd09dbb2d50200b3e800a63d289055de6a779bbac000089454e5044564d3333301ba0119162287701fb6d6baecd4e4cee6b72ab2984d5531d90c0d38048c2e21a864aa010cf0f3f508b1d1c49f5b77fd1d74266c99b1456067f4fea2472fab20565772f",
      "networkId": 0,
      "chainId": 0
    }
  ]
}