{
  "hash": "0xd44e71041ef808854c8a586b9c86a63a09667bf6ddf867b10c397984c6822204",
  "parentHash": "0xfd08a6ea65aca459b1d645805a4b1296e974e91b3c55b255f79cb759698a5a3a",
  "number": 54884,
  "timestamp": 1439061614,
  "nonce": "0x013efd44b7289e6e",
  "difficulty": 1614855260259,
  "gasLimit": {
    "_hex": "0x2fefd8"
  },
  "gasUsed": {
    "_hex": "0xa410"
  },
  "miner": "0x9D49F602b0fdb924Bd63DDE2Bd0907E4A07c63a7",
  "extraData": "0x476574682f76312e302e312f6c696e75782f676f312e342e32",
  "transactions": [
    {
      "hash": "0x8759a6df6e906f43da728139820616a21cefee2070f5c0c4cef735da7d9f5ba5",
      "blockHash": "0xd44e71041ef808854c8a586b9c86a63a09667bf6ddf867b10c397984c6822204",
      "blockNumber": 54884,
      "transactionIndex": 0,
      "confirmations": null,
      "from": "0x1308A2e95c0160B90803ddCA9B9a5bb55E416d79",
      "gasPrice": {
        "_hex": "0xe8d4a51000"
      },
      "gasLimit": {
        "_hex": "0x15f90"
      },
      "to": "0xd268fB48FA174088a25a120aFF0fd8eb0C2d4c87",
      "value": {
        "_hex": "0x7068fb1598aa0000"
      },
      "nonce": 12,
      "data": "0x",
      "r": "0x4e44fe9a4bab08420b5f9c9803a75def10640aa57c7a6a57624079c30b370e40",
      "s": "0x6ad6c4960155c06a645ebb9e8eb28a6ee79370610fe055b999cf2df95f054050",
      "v": 27,
      "creates": null,
      "raw": "0xf86d0c85e8d4a5100083015f9094d268fb48fa174088a25a120aff0fd8eb0c2d4c87887068fb1598aa0000801ba04e44fe9a4bab08420b5f9c9803a75def10640aa57c7a6a57624079c30b370e40a06ad6c4960155c06a645ebb9e8eb28a6ee79370610fe055b999cf2df95f054050",
      "networkId": 0,
      "chainId": 0
    },
    {
      "hash": "0xa49a3fc6dd721bb9bcfa5ba939d1be4b312a2bf18891389175051d93220f5cf0",
      "blockHash": "0xd44e71041ef808854c8a586b9c86a63a09667bf6ddf867b10c397984c6822204",
      "blockNumber": 54884,
      "transactionIndex": 1,
      "confirmations": null,
      "from": "0x314c7Daa4825ffC0293819119c5FDCC0CcF19827",
      "gasPrice": {
        "_hex": "0xcca2fee06"
      },
      "gasLimit": {
        "_hex": "0x5208"
      },
      "to": "0x32Be343B94f860124dC4fEe278FDCBD38C102D88",
      "value": {
        "_hex": "0x21e19dcb09040200000"
      },
      "nonce": 2,
      "data": "0x",
      "r": "0xb356ce4a707ce06d188f00feb458ba34537c9f5d021a23658530e6bee2459b24",
      "s": "0x71d2227ade96afc6cbcdbef1c334d5f5072fb4ea92978e765036a01d6d179f83",
      "v": 28,
      "creates": null,
      "raw": "0xf86e02850cca2fee068252089432be343b94f860124dc4fee278fdcbd38c102d888a021e19dcb09040200000801ca0b356ce4a707ce06d188f00feb458ba34537c9f5d021a23658530e6bee2459b24a071d2227ade96afc6cbcdbef1c334d5f5072fb4ea92978e765036a01d6d179f83",
      "networkId": 0,
      "chainId": 0
    }
  ]
}