{
  "hash": "0xdc77e0346ad696f4bf60fa1ec01cb0b77ea8750b1a27ea93b9fa75fbfde89d62",
  "parentHash": "0x75ba54e22d8f0b8e6828dcaa937c67d7451c96ab510a37ea818a719366c3d5d7",
  "number": 75911,
  "timestamp": 1439411699,
  "nonce": "0x504ceace4e0f1240",
  "difficulty": 2228760883465,
  "gasLimit": {
    "_hex": "0x2fefd5"
  },
  "gasUsed": {
    "_hex": "0x5208"
  },
  "miner": "0xe6A7a1d47ff21B6321162AEA7C6CB457D5476Bca",
  "extraData": "0x476574682f76312e302e312d38326566323666362f6c696e75782f676f312e34",
  "transactions": [
    {
      "hash": "0xfbf1daad62226cabe2d19331ee445421ecfb7c576bca3012a63fbc65e03f0f2c",
      "blockHash": "0xdc77e0346ad696f4bf60fa1ec01cb0b77ea8750b1a27ea93b9fa75fbfde89d62",
      "blockNumber": 75911,
      "transactionIndex": 0,
      "confirmations": null,
      "from": "0xa6BDc31c431B8F97848c9D60cbbe9660dc450eB7",
      "gasPrice": {
        "_hex": "0xd5af028bf"
      },
      "gasLimit": {
        "_hex": "0x5208"
      },
      "to": "0x32Be343B94f860124dC4fEe278FDCBD38C102D88",
      "value": {
        "_hex": "0x455f49f575fefc00"
      },
      "nonce": 11,
      "data": "0x",
      "r": "0xab0c7b0ca5838aaa085cd07a0c3245582fcdaf750a3ec92798dced367ff22ea2",
      "s": "0x159c1a1ed4b85c65a8b777acfec6f52fd4eed2ea95f3f0cc2282365a0d4a10a5",
      "v": 27,
      "creates": null,
      "raw": "0xf86c0b850d5af028bf8252089432be343b94f860124dc4fee278fdcbd38c102d8888455f49f575fefc00801ba0ab0c7b0ca5838aaa085cd07a0c3245582fcdaf750a3ec92798dced367ff22ea2a0159c1a1ed4b85c65a8b777acfec6f52fd4eed2ea95f3f0cc2282365a0d4a10a5",
      "networkId": 0,
      "chainId": 0
    }
  ]
}