{
  "hash": "0x0909d5a2331e608f8ed0c26bb48be4a54eff73adbb42ece32fe09e40ab347dc1",
  "parentHash": "0x316e8d3866fad30d723ccfdf6d01f47b66f9746a50dd1ae1b4dbb3397f6ac6cd",
  "number": 108177,
  "timestamp": 1439935616,
  "nonce": "0xc3d39b0aeb3c80a9",
  "difficulty": 4363963349093,
  "gasLimit": {
    "_hex": "0x2fefd8"
  },
  "gasUsed": {
    "_hex": "0x5208"
  },
  "miner": "0xe6A7a1d47ff21B6321162AEA7C6CB457D5476Bca",
  "extraData": "0x476574682f76312e302e312d38326566323666362f6c696e75782f676f312e34",
  "transactions": [
    {
      "hash": "0xce2eb741e63bb1b50258f52769c65b7b346274d589aa533c7ece75ab23fbf9f0",
      "blockHash": "0x0909d5a2331e608f8ed0c26bb48be4a54eff73adbb42ece32fe09e40ab347dc1",
      "blockNumber": 108177,
      "transactionIndex": 0,
      "confirmations": null,
      "from": "0x2910543Af39abA0Cd09dBb2D50200b3E800A63D2",
      "gasPrice": {
        "_hex": "0xcf7406eb4"
      },
      "gasLimit": {
        "_hex": "0x5208"
      },
      "to": "0x65553f5e8FA2eDfCe37Aec51A90ed28777dDe402",
      "value": {
        "_hex": "0x16345785d8a0000"
      },
      "nonce": 1063,
      "data": "0x",
      "r": "0xcc680bc8b3bfd7c2db93a2f7f94ec7032e07ad9bc1444b512b99cb7c08777413",
      "s": "0x6cfaf2e4e679978c7b0543dc2f006af9b71e9b057e290003b61d573e10c3e409",
      "v": 28,
      "creates": null,
      "raw": "0xf86e820427850cf7406eb48252089465553f5e8fa2edfce37aec51a90ed28777dde40288016345785d8a0000801ca0cc680bc8b3bfd7c2db93a2f7f94ec7032e07ad9bc1444b512b99cb7c08777413a06cfaf2e4e679978c7b0543dc2f006af9b71e9b057e290003b61d573e10c3e409",
      "networkId": 0,
      "chainId": 0
    }
  ]
}