{
  "hash": "0xf1b53a023ca68b78b898b9a1ae3814184fc3f0e908ce6f79d223b96cca00c60b",
  "parentHash": "0x6701765afd9b65bfec4a1cde4cb99e1519a24fe914167d8e0df6019703c895fd",
  "number": 96023,
  "timestamp": 1439733690,
  "nonce": "0xbbec9a76fcace97e",
  "difficulty": 3633728340465,
  "gasLimit": {
    "_hex": "0x2fefd8"
  },
  "gasUsed": {
    "_hex": "0x14820"
  },
  "miner": "0xC6A5D22D1DDd24B32a308bA4A49ec3cA38a2D0A6",
  "extraData": "0x",
  "transactions": [
    {
      "hash": "0x40db3febc3c6526cb9046e5eff3d302d1418b844756d1a13caea23d28df3c0e1",
      "blockHash": "0xf1b53a023ca68b78b898b9a1ae3814184fc3f0e908ce6f79d223b96cca00c60b",
      "blockNumber": 96023,
      "transactionIndex": 0,
      "confirmations": null,
      "from": "0xa70a9a7040d542C632D8e0bE7c5513A8a5Bbc752",
      "gasPrice": {
        "_hex": "0xd23ad8f86"
      },
      "gasLimit": {
        "_hex": "0x5208"
      },
      "to": "0x32Be343B94f860124dC4fEe278FDCBD38C102D88",
      "value": {
        "_hex": "0x455f5bad0079ec00"
      },
      "nonce": 158,
      "data": "0x",
      "r": "0xb2950389e0f13bd63aaa82a17adae2e328c1f1381f5212459064e2064fe4bb34",
      "s": "0x0dd95797a00a3cd19d612b0af6bb493df2852cce6807153a75290b8eaeb33c5f",
      "v": 28,
      "creates": null,
      "raw": "0xf86d819e850d23ad8f868252089432be343b94f860124dc4fee278fdcbd38c102d8888455f5bad0079ec00801ca0b2950389e0f13bd63aaa82a17adae2e328c1f1381f5212459064e2064fe4bb34a00dd95797a00a3cd19d612b0af6bb493df2852cce6807153a75290b8eaeb33c5f",
      "networkId": 0,
      "chainId": 0
    },
    {
      "hash": "0x48f0aa16552a8256a374bec8b70397a0e99d011b5fc1ce2d15d6f39620262a62",
      "blockHash": "0xf1b53a023ca68b78b898b9a1ae3814184fc3f0e908ce6f79d223b96cca00c60b",
      "blockNumber": 96023,
      "transactionIndex": 1,
      "confirmations": null,
      "from": "0xb1abce2918E21ddb93AA452731a12672A3d9F75a",
      "gasPrice": {
        "_hex": "0xd23ad8f86"
      },
      "gasLimit": {
        "_hex": "0x5208"
      },
      "to": "0x32Be343B94f860124dC4fEe278FDCBD38C102D88",
      "value": {
        "_hex": "0x455f5baaac6e0800"
      },
      "nonce": 45,
      "data": "0x",
      "r": "0x5e32445cc22aaec90728d598fe64834f690d7b40e52a1caead7cc3b250fc434c",
      "s": "0x5303ce5dbf433e0fdf649b0166dc66f703b2d52f963d4201d5ee89507a6665b1",
      "v": 28,
      "creates": null,
      "raw": "0xf86c2d850d23ad8f868252089432be343b94f860124dc4fee278fdcbd38c102d8888455f5baaac6e0800801ca05e32445cc22aaec90728d598fe64834f690d7b40e52a1caead7cc3b250fc434ca05303ce5dbf433e0fdf649b0166dc66f703b2d52f963d4201d5ee89507a6665b1",
      "networkId": 0,
      "chainId": 0
    },
    {
      "hash": "0x9d70769e65c27986410415e0c9423266713e99c81fa41fbafb5f1f68abc1c8ce",
      "blockHash": "0xf1b53a023ca68b78b898b9a1ae3814184fc3f0e908ce6f79d223b96cca00c60b",
      "blockNumber": 96023,
      "transactionIndex": 2,
      "confirmations": null,
      "from": "0x0D4EcC7d750180EBf4A9Df728B6669B5Bceb5E40",
      "gasPrice": {
        "_hex": "0xd23ad8f86"
      },
      "gasLimit": {
        "_hex": "0x5208"
      },
      "to": "0x32Be343B94f860124dC4fEe278FDCBD38C102D88",
      "value": {
        "_hex": "0x455f67eae6feb400"
      },
      "nonce": 39,
      "data": "0x",
      "r": "0x002eb43a7021f09611a2660692124247451a4f05d245c18030e7110f59412085",
      "s": "0x0cd60e753cae8817d69061c9ef8d8c8e183f64e0e27849ead9691dd71a17c266",
      "v": 27,
      "creates": null,
      "raw": "0xf86b27850d23ad8f868252089432be343b94f860124dc4fee278fdcbd38c102d8888455f67eae6feb400801b9f2eb43a7021f09611a2660692124247451a4f05d245c18030e7110f59412085a00cd60e753cae8817d69061c9ef8d8c8e183f64e0e27849ead9691dd71a17c266",
      "networkId": 0,
      "chainId": 0
    },
    {
      "hash": "0xdb49167a803defdf5a6bcdb93b89242d3bf2cc5d9715284e098ac1fd331da920",
      "blockHash": "0xf1b53a023ca68b78b898b9a1ae3814184fc3f0e908ce6f79d223b96cca00c60b",
      "blockNumber": 96023,
      "transactionIndex": 3,
      "confirmations": null,
      "from": "0x4c74B6F32c9680aCB5Fe0e72B7Aa95C612540A04",
      "gasPrice": {
        "_hex": "0xd23ad8f86"
      },
      "gasLimit": {
        "_hex": "0x5208"
      },
      "to": "0x32Be343B94f860124dC4fEe278FDCBD38C102D88",
      "value": {
        "_hex": "0x21d379f86e7b60000"
      },
      "nonce": 32,
      "data": "0x",
      "r": "0x7a8d6f7c3ea7197f47b1279f76d29dd7921eab8377c1e3fc2b8b465091a1f3ef",
      "s": "0x50b3e7d3562369ec696eb3d5d737746b35d2bdead8e83765b3c823ba4df8278d",
      "v": 28,
      "creates": null,
      "raw": "0xf86d20850d23ad8f868252089432be343b94f860124dc4fee278fdcbd38c102d8889021d379f86e7b60000801ca07a8d6f7c3ea7197f47b1279f76d29dd7921eab8377c1e3fc2b8b465091a1f3efa050b3e7d3562369ec696eb3d5d737746b35d2bdead8e83765b3c823ba4df8278d",
      "networkId": 0,
      "chainId": 0
    }
  ]
}