{
  "hash": "0xb7f9e61e09a85428ff0c72096a54edea145ebd8694d0862f9f91fe17b9638e3f",
  "parentHash": "0xee7d25e4b208af17feca2ecbcf09965a9129fca47a2c9afec31c3fe4c4ee4c7d",
  "number": 60766,
  "timestamp": 1439161253,
  "nonce": "0xf31a916f0e7d22da",
  "difficulty": 1727894338491,
  "gasLimit": {
    "_hex": "0x2fefd8"
  },
  "gasUsed": {
    "_hex": "0x5208"
  },
  "miner": "0x72e3Ea8234b449531A581F05f1c1E07cceb559d2",
  "extraData": "0x476574682f76312e302e312f6c696e75782f676f312e342e32",
  "transactions": [
    {
      "hash": "0xb38861702e6dcd219e47dde7cdd4f30d61768db976822acf8e2bec69215d3420",
      "blockHash": "0xb7f9e61e09a85428ff0c72096a54edea145ebd8694d0862f9f91fe17b9638e3f",
      "blockNumber": 60766,
      "transactionIndex": 0,
      "confirmations": null,
      "from": "0x2910543Af39abA0Cd09dBb2D50200b3E800A63D2",
      "gasPrice": {
        "_hex": "0xdf5585f44"
      },
      "gasLimit": {
        "_hex": "0x5208"
      },
      "to": "0xBeb3B1d443791e4B2207a9866800E02DAcF19c02",
      "value": {
        "_hex": "0x5f67cbdb8b5178000"
      },
      "nonce": 91,
      "data": "0x",
      "r": "0xe88c7740e9dd5fd5567cdfd2575c7306d1a728185ec48efe3e265dbaa92f9c99",
      "s": "0x7ded7c395f6c166a294d365b2446d63195ef0dc3a28e4348c38772e343e45cb5",
      "v": 27,
      "creates": null,
      "raw": "0xf86d5b850df5585f4482520894beb3b1d443791e4b2207a9866800e02dacf19c028905f67cbdb8b5178000801ba0e88c7740e9dd5fd5567cdfd2575c7306d1a728185ec48efe3e265dbaa92f9c99a07ded7c395f6c166a294d365b2446d63195ef0dc3a28e4348c38772e343e45cb5",
      "networkId": 0,
      "chainId": 0
    }
  ]
}