{
  "hash": "0xda92e8c405df31f90878eb7c6a88d9b8ac64f831ebe4179ad2d238c01811535c",
  "parentHash": "0x35fec215fea3a3c37e677661de17ec08069440535c1771aca8bac507b15f57bd",
  "number": 93322,
  "timestamp": 1439687765,
  "nonce": "0x22a3e973803c35a5",
  "difficulty": 3528228973927,
  "gasLimit": {
    "_hex": "0x2fefd8"
  },
  "gasUsed": {
    "_hex": "0x5208"
  },
  "miner": "0x7D60e9b25EaBC5f5971381c991D4757D07a2a51F",
  "extraData": "0x",
  "transactions": [
    {
      "hash": "0xb703f7a75d4f673a2595c09f5f91ccc96ed79a140f0c904935ba3c10bc9e0e15",
      "blockHash": "0xda92e8c405df31f90878eb7c6a88d9b8ac64f831ebe4179ad2d238c01811535c",
      "blockNumber": 93322,
      "transactionIndex": 0,
      "confirmations": null,
      "from": "0x2910543Af39abA0Cd09dBb2D50200b3E800A63D2",
      "gasPrice": {
        "_hex": "0xd81b7f237"
      },
      "gasLimit": {
        "_hex": "0x5208"
      },
      "to": "0xe7cfdAcb398c319799E001D6A0F5d07B9187Ae16",
      "value": {
        "_hex": "0x56bb59ab42b2f8000"
      },
      "nonce": 847,
      "data": "0x",
      "r": "0x3dce0cf4bcaa12fb16d4f89a2d2506027ccc4c8dd7c57f51c22049ca997039c8",
      "s": "0x15dbdf4b8b5a392e47a189a4a5653481d3e9e8c698266e05e39fdf60616937bc",
      "v": 27,
      "creates": null,
      "raw": "0xf86f82034f850d81b7f23782520894e7cfdacb398c319799e001d6a0f5d07b9187ae1689056bb59ab42b2f8000801ba03dce0cf4bcaa12fb16d4f89a2d2506027ccc4c8dd7c57f51c22049ca997039c8a015dbdf4b8b5a392e47a189a4a5653481d3e9e8c698266e05e39fdf60616937bc",
      "networkId": 0,
      "chainId": 0
    }
  ]
}