{
  "hash": "0x782affe175649387ec54502202e02310ee9166147611d132c7c327cd3a6f65b0",
  "parentHash": "0x42c007678ab66ab837d1aa863349992dfd63977288791f9e8eeae3ff25c695f3",
  "number": 47227,
  "timestamp": 1438936416,
  "nonce": "0xcf6eb45153114741",
  "difficulty": 1460945588510,
  "gasLimit": {
    "_hex": "0xa5cd"
  },
  "gasUsed": {
    "_hex": "0x5208"
  },
  "miner": "0xeB1325C8D9d3ea8D74aC11F4B00F1B2367686319",
  "extraData": "0x476574682f76312e302e312f77696e646f77732f676f312e342e32",
  "transactions": [
    {
      "hash": "0x4d53eda1c85047704c2c875ae6eb7422e1181ad34d327406cf196f5db979e03e",
      "blockHash": "0x782affe175649387ec54502202e02310ee9166147611d132c7c327cd3a6f65b0",
      "blockNumber": 47227,
      "transactionIndex": 0,
      "confirmations": null,
      "from": "0xe6A7a1d47ff21B6321162AEA7C6CB457D5476Bca",
      "gasPrice": {
        "_hex": "0xea597586f"
      },
      "gasLimit": {
        "_hex": "0x5208"
      },
      "to": "0xA850c5af189E99871EC072B08FC5c91fD14fC2Eb",
      "value": {
        "_hex": "0x7d22fe3025cecb08"
      },
      "nonce": 82,
      "data": "0x",
      "r": "0x5fa02591ebcb191ed9db924b525785aa9be88820523f8a7545d37051b09cac8c",
      "s": "0x6a4e9b21f9ed63a42c06680c672d090dd256d56398b44c84d44531531ee0d97c",
      "v": 27,
      "creates": null,
      "raw": "0xf86c52850ea597586f82520894a850c5af189e99871ec072b08fc5c91fd14fc2eb887d22fe3025cecb08801ba05fa02591ebcb191ed9db924b525785aa9be88820523f8a7545d37051b09cac8ca06a4e9b21f9ed63a42c06680c672d090dd256d56398b44c84d44531531ee0d97c",
      "networkId": 0,
      "chainId": 0
    }
  ]
}