{
  "hash": "0x1f3f8f0fadbab4a4c7ac4f1310f484478d7e6e4ba5a3cef7190b59dd81303a06",
  "parentHash": "0xc92d08a8ec8787793949343a3575a8174663a0666dd67724be0fdd82393f1bc0",
  "number": 93573,
  "timestamp": 1439693425,
  "nonce": "0x31c7dd24290e89a8",
  "difficulty": 3464955218931,
  "gasLimit": {
    "_hex": "0x2fefd8"
  },
  "gasUsed": {
    "_hex": "0x5208"
  },
  "miner": "0x60a175bB691fEE8557a7b6D8eFC9E49889486f41",
  "extraData": "0x476574682f76312e302e312f77696e646f77732f676f312e342e32",
  "transactions": [
    {
      "hash": "0x54f16d1f466695088768060cb4bd57663430dd579079a70d81bd98654b172ed9",
      "blockHash": "0x1f3f8f0fadbab4a4c7ac4f1310f484478d7e6e4ba5a3cef7190b59dd81303a06",
      "blockNumber": 93573,
      "transactionIndex": 0,
      "confirmations": null,
      "from": "0x9Fa9952255B2b06639A04D63804d4BdFFf6E2d7e",
      "gasPrice": {
        "_hex": "0xccbec2928"
      },
      "gasLimit": {
        "_hex": "0x15f90"
      },
      "to": "0xE12517204a15E890f12755207271102F4800A0c4",
      "value": {
        "_hex": "0x1a055690d9db80000"
      },
      "nonce": 11,
      "data": "0x",
      "r": "0x6d2008ed2a4c21b1f9faa69f4899297018cb351aa244ebaa812189be814546e2",
      "s": "0x35fa292e644f3e247f4a4622aabe8f01c860d64a335f115e466615efc3ab9e7f",
      "v": 28,
      "creates": null,
      "raw": "0xf86e0b850ccbec292883015f9094e12517204a15e890f12755207271102f4800a0c48901a055690d9db80000801ca06d2008ed2a4c21b1f9faa69f4899297018cb351aa244ebaa812189be814546e2a035fa292e644f3e247f4a4622aabe8f01c860d64a335f115e466615efc3ab9e7f",
      "networkId": 0,
      "chainId": 0
    }
  ]
}