{
  "hash": "0xa5bdfec3b46846543069253ea657bee14fe2456e4931bb8a0271a6e6d6df363f",
  "parentHash": "0x3eb63093d6cb783e43a069308b90fa1a8a017900c30a5b5d7f71eda8d114233b",
  "number": 58961,
  "timestamp": 1439129749,
  "nonce": "0x97aaf35d01be7f80",
  "difficulty": 1707297417022,
  "gasLimit": {
    "_hex": "0x2fefd8"
  },
  "gasUsed": {
    "_hex": "0x5208"
  },
  "miner": "0xeF0a7407D5b9AF9fA9f38f67aBB66d20686afb55",
  "extraData": "0x476574682f76312e302e302f77696e646f77732f676f312e342e32",
  "transactions": [
    {
      "hash": "0x365817033c921ce83cd0fccc0531fc1768f1b03a307bf6fa073f230dbda6857c",
      "blockHash": "0xa5bdfec3b46846543069253ea657bee14fe2456e4931bb8a0271a6e6d6df363f",
      "blockNumber": 58961,
      "transactionIndex": 0,
      "confirmations": null,
      "from": "0xC2fe7d75731f636Dcd09DbDa0671393bA0C82a7d",
      "gasPrice": {
        "_hex": "0xd1cfbfad7"
      },
      "gasLimit": {
        "_hex": "0x15f90"
      },
      "to": "0x0aAA075488f382ADfb50f99Ce0E8e27b47740AEF",
      "value": {
        "_hex": "0xd99a8cec7e20000"
      },
      "nonce": 4,
      "data": "0x",
      "r": "0x456cfbaabe574333e3fc79bdd7c54d697597493cd72be89045479a880fda1be7",
      "s": "0x54047449753de4c66847a951d2723b50389bef2a78205e6671710ecf528c3d82",
      "v": 27,
      "creates": null,
      "raw": "0xf86d04850d1cfbfad783015f90940aaa075488f382adfb50f99ce0e8e27b47740aef880d99a8cec7e20000801ba0456cfbaabe574333e3fc79bdd7c54d697597493cd72be89045479a880fda1be7a054047449753de4c66847a951d2723b50389bef2a78205e6671710ecf528c3d82",
      "networkId": 0,
      "chainId": 0
    }
  ]
}