{
  "hash": "0x0406cc4098bb0df043525c697ee138e6059e970aedf1c500f14531a10d1fefac",
  "parentHash": "0x75ce22085e9f7a047a201eef216d6b24078879bd1123544e3e1a1da68f198a4c",
  "number": 117904,
  "timestamp": 1440117262,
  "nonce": "0x0a884181d7af1829",
  "difficulty": 4352525610377,
  "gasLimit": {
    "_hex": "0x2fefd8"
  },
  "gasUsed": {
    "_hex": "0xf618"
  },
  "miner": "0x608f4b86321a68453f9adf6F06F7Fc3E621739ad",
  "extraData": "0xd783010002844765746887676f312e342e32856c696e7578",
  "transactions": [
    {
      "hash": "0xe59afb07967433aa2f81107b3ce24a5a69f09cf3d79281fd2583c9cd295521c8",
      "blockHash": "0x0406cc4098bb0df043525c697ee138e6059e970aedf1c500f14531a10d1fefac",
      "blockNumber": 117904,
      "transactionIndex": 0,
      "confirmations": null,
      "from": "0x4A29dF8a7967b36664f256F18dAcf2e58E9f1E7E",
      "gasPrice": {
        "_hex": "0xba43b7400"
      },
      "gasLimit": {
        "_hex": "0x5208"
      },
      "to": "0x32Be343B94f860124dC4fEe278FDCBD38C102D88",
      "value": {
        "_hex": "0x46a5c151030e64000"
      },
      "nonce": 9,
      "data": "0x",
      "r": "0xae43423211580c32e9b4aea266e1cfc5199b88902cf031bdbced3a86959a0a35",
      "s": "0x7631697620954cb0026a4c31b702082c32c88ae7f0a47e9c4c943c7a428f0239",
      "v": 28,
      "creates": null,
      "raw": "0xf86d09850ba43b74008252089432be343b94f860124dc4fee278fdcbd38c102d8889046a5c151030e64000801ca0ae43423211580c32e9b4aea266e1cfc5199b88902cf031bdbced3a86959a0a35a07631697620954cb0026a4c31b702082c32c88ae7f0a47e9c4c943c7a428f0239",
      "networkId": 0,
      "chainId": 0
    },
    {
      "hash": "0x3b43248d4890b27a0f4841dd7c096f51cc6eb85ddc515d002863272fb6942095",
      "blockHash": "0x0406cc4098bb0df043525c697ee138e6059e970aedf1c500f14531a10d1fefac",
      "blockNumber": 117904,
      "transactionIndex": 1,
      "confirmations": null,
      "from": "0x10a3287DC19D160c0EF7dAE4e51670b0394ef951",
      "gasPrice": {
        "_hex": "0xba43b7400"
      },
      "gasLimit": {
        "_hex": "0x5208"
      },
      "to": "0x32Be343B94f860124dC4fEe278FDCBD38C102D88",
      "value": {
        "_hex": "0x91a20ca645b0e000"
      },
      "nonce": 6,
      "data": "0x",
      "r": "0xfaeb226827f4ef1955c07206e4b3f8c8b9c815d8b1146944244c2d3dba22e860",
      "s": "0x3fe160a8ff68d9194cb93ae97c6735bbbc4c1f4024d2888d1760778219049a49",
      "v": 27,
      "creates": null,
      "raw": "0xf86c06850ba43b74008252089432be343b94f860124dc4fee278fdcbd38c102d888891a20ca645b0e000801ba0faeb226827f4ef1955c07206e4b3f8c8b9c815d8b1146944244c2d3dba22e860a03fe160a8ff68d9194cb93ae97c6735bbbc4c1f4024d2888d1760778219049a49",
      "networkId": 0,
      "chainId": 0
    },
    {
      "hash": "0x9069cfec601b9e204ef0396b0db7168f28288d5489211755455051e955267cbe",
      "blockHash": "0x0406cc4098bb0df043525c697ee138e6059e970aedf1c500f14531a10d1fefac",
      "blockNumber": 117904,
      "transactionIndex": 2,
      "confirmations": null,
      "from": "0x13065c2648269D5b802D31341006d0b458a187fE",
      "gasPrice": {
        "_hex": "0xba43b7400"
      },
      "gasLimit": {
        "_hex": "0x5208"
      },
      "to": "0x32Be343B94f860124dC4fEe278FDCBD38C102D88",
      "value": {
        "_hex": "0x5eaadb02a45ccc00"
      },
      "nonce": 8,
      "data": "0x",
      "r": "0xc385c05dabe5a3b028acafd8b2de0860706b36845ee99914e0b7f96f037f2806",
      "s": "0x681d1af08de60043bebc37c685d094a14894b872bdd007f15447bc0d609bbda7",
      "v": 28,
      "creates": null,
      "raw": "0xf86c08850ba43b74008252089432be343b94f860124dc4fee278fdcbd38c102d88885eaadb02a45ccc00801ca0c385c05dabe5a3b028acafd8b2de0860706b36845ee99914e0b7f96f037f2806a0681d1af08de60043bebc37c685d094a14894b872bdd007f15447bc0d609bbda7",
      "networkId": 0,
      "chainId": 0
    }
  ]
}