{
  "hash": "0x083a1e28e8ee2637f8e8d9dc4ea42eb05ff935cdf9cd1b64e7d623b7a73b8ff1",
  "parentHash": "0x53046c720cf92897900f66e9656c75e2e6f89c7ae481898a267e33232c329bbd",
  "number": 52526,
  "timestamp": 1439023114,
  "nonce": "0x87810493bfbd495d",
  "difficulty": 1562556556981,
  "gasLimit": {
    "_hex": "0x14ec73"
  },
  "gasUsed": {
    "_hex": "0xf4240"
  },
  "miner": "0xe6A7a1d47ff21B6321162AEA7C6CB457D5476Bca",
  "extraData": "0x657468706f6f6c2e6f7267",
  "transactions": [
    {
      "hash": "0x28af5b04b8d77952d808994eaa13ce15c29ddece4f045d6b551e1b449ae79176",
      "blockHash": "0x083a1e28e8ee2637f8e8d9dc4ea42eb05ff935cdf9cd1b64e7d623b7a73b8ff1",
      "blockNumber": 52526,
      "transactionIndex": 0,
      "confirmations": null,
      "from": "0x54dAeb3E8a6BBC797E4aD2b0339f134b186e4637",
      "gasPrice": {
        "_hex": "0xe7d27df17"
      },
      "gasLimit": {
        "_hex": "0x7a120"
      },
      "to": "0xBAA54d6E90c3F4d7Ebec11bD180134C7eD8eBb52",
      "value": {
        "_hex": "0x16345785d8a0000"
      },
      "nonce": 667,
      "data": "0x",
      "r": "0xf05bd1aceea389bb11a85f6755d6e9a9659ec2975891faf903f742f143ee719f",
      "s": "0x3f76bf06e67707fafb626de7adcb0fc59c6c579ee735df4056b6a33f8b824910",
      "v": 28,
      "creates": null,
      "raw": "0xf86f82029b850e7d27df178307a12094baa54d6e90c3f4d7ebec11bd180134c7ed8ebb5288016345785d8a0000801ca0f05bd1aceea389bb11a85f6755d6e9a9659ec2975891faf903f742f143ee719fa03f76bf06e67707fafb626de7adcb0fc59c6c579ee735df4056b6a33f8b824910",
      "networkId": 0,
      "chainId": 0
    },
    {
      "hash": "0x8a377b12e9913d7511853a9d72720fde5f2232d5b338048e3b9f3c1e312403cd",
      "blockHash": "0x083a1e28e8ee2637f8e8d9dc4ea42eb05ff935cdf9cd1b64e7d623b7a73b8ff1",
      "blockNumber": 52526,
      "transactionIndex": 1,
      "confirmations": null,
      "from": "0x54dAeb3E8a6BBC797E4aD2b0339f134b186e4637",
      "gasPrice": {
        "_hex": "0xe7d27df17"
      },
      "gasLimit": {
        "_hex": "0x7a120"
      },
      "to": "0xBAA54d6E90c3F4d7Ebec11bD180134C7eD8eBb52",
      "value": {
        "_hex": "0x16345785d8a0000"
      },
      "nonce": 668,
      "data": "0x",
      "r": "0x957ac5ac96759689715f7a373fcd36c771d6420d4bc2b269a153a97b23fa5349",
      "s": "0x0a8847855ae9fb9591348d04c20010553cea00a838487086b2deec91141eaa3e",
      "v": 27,
      "creates": null,
      "raw": "0xf86f82029c850e7d27df178307a12094baa54d6e90c3f4d7ebec11bd180134c7ed8ebb5288016345785d8a0000801ba0957ac5ac96759689715f7a373fcd36c771d6420d4bc2b269a153a97b23fa5349a00a8847855ae9fb9591348d04c20010553cea00a838487086b2deec91141eaa3e",
      "networkId": 0,
      "chainId": 0
    }
  ]
}