{
  "hash": "0x2c2359fec32ebe6a0a8a4004a6548444cd28f7850350ae83acdb39064ff0ef99",
  "parentHash": "0x1825a178520398f023292cc31811f02144e38431d16f3c37390ed5e50ff3089f",
  "number": 46881,
  "timestamp": 1438930927,
  "nonce": "0x5b4e4fe73c137661",
  "difficulty": 1456731821462,
  "gasLimit": {
    "_hex": "0x81c9"
  },
  "gasUsed": {
    "_hex": "0x5208"
  },
  "miner": "0xf8E0CA3Ed80bd541b94BEdCf259e8CF2141A9523",
  "extraData": "0x476574682f76312e302e312f77696e646f77732f676f312e342e32",
  "transactions": [
    {
      "hash": "0xde7daee1388efb1e7ace43f797eb0d8d0e4eb95b3d65657bf5a16083e5b59980",
      "blockHash": "0x2c2359fec32ebe6a0a8a4004a6548444cd28f7850350ae83acdb39064ff0ef99",
      "blockNumber": 46881,
      "transactionIndex": 0,
      "confirmations": null,
      "from": "0xc8ebccC5F5689Fa8659d83713341e5aD19349448",
      "gasPrice": {
        "_hex": "0xd60c7173f"
      },
      "gasLimit": {
        "_hex": "0x5208"
      },
      "to": "0xdC49b9dc1AbB93Ebb856547a1C0578D65f4A32DE",
      "value": {
        "_hex": "0xde0b6b3a7640000"
      },
      "nonce": 2,
      "data": "0x",
      "r": "0xba701045ac7733f09d7b504520404b1f024b7e5e6baf450cafe31ea7c8a785b6",
      "s": "0x34d5c417cde9286b6fbe3494c748eb1016d9a306ed5df9ce37422e56f4a9bf00",
      "v": 27,
      "creates": null,
      "raw": "0xf86c02850d60c7173f82520894dc49b9dc1abb93ebb856547a1c0578d65f4a32de880de0b6b3a7640000801ba0ba701045ac7733f09d7b504520404b1f024b7e5e6baf450cafe31ea7c8a785b6a034d5c417cde9286b6fbe3494c748eb1016d9a306ed5df9ce37422e56f4a9bf00",
      "networkId": 0,
      "chainId": 0
    }
  ]
}