{
  "hash": "0xf06c02c2420382ec3ca4cbd9430dc58532e72ae13f75fb7ec7676e3cfbdb4f35",
  "parentHash": "0x6e0ee44aed34babf33a5021fefde639a68baaf417d94071f5180731259acb05f",
  "number": 85488,
  "timestamp": 1439564417,
  "nonce": "0xad38112b30eedb5b",
  "difficulty": 2755731787680,
  "gasLimit": {
    "_hex": "0x2fefd8"
  },
  "gasUsed": {
    "_hex": "0xf618"
  },
  "miner": "0x019D3FA6E3cdA649b26F74395A846575c7bEA14C",
  "extraData": "0x",
  "transactions": [
    {
      "hash": "0x7e320aba46c99f544a0aafab509b9e6f9ecfac9282f23fa70950d532166850c0",
      "blockHash": "0xf06c02c2420382ec3ca4cbd9430dc58532e72ae13f75fb7ec7676e3cfbdb4f35",
      "blockNumber": 85488,
      "transactionIndex": 0,
      "confirmations": null,
      "from": "0xC47Aaa860008be6f65B58c6C6E02a84e666EfE31",
      "gasPrice": {
        "_hex": "0xd242b7e29"
      },
      "gasLimit": {
        "_hex": "0x15f90"
      },
      "to": "0xF3B3A8869C2147dB6f4dD2c4d3701a58a4e68357",
      "value": {
        "_hex": "0xddd2935029d7fff"
      },
      "nonce": 14,
      "data": "0x",
      "r": "0x6d51ac8fc2e3b060bb19b761f53d4127a681daa5c09b2fa0093581982966ae92",
      "s": "0x529aecb05d8555f1cee6a76d90c585cfa58a0afe5ff26a7e73b2a831766ec733",
      "v": 28,
      "creates": null,
      "raw": "0xf86d0e850d242b7e2983015f9094f3b3a8869c2147db6f4dd2c4d3701a58a4e68357880ddd2935029d7fff801ca06d51ac8fc2e3b060bb19b761f53d4127a681daa5c09b2fa0093581982966ae92a0529aecb05d8555f1cee6a76d90c585cfa58a0afe5ff26a7e73b2a831766ec733",
      "networkId": 0,
      "chainId": 0
    },
    {
      "hash": "0x60dcd20d7393912a802eb09a61b9e4798d8cd43669a841615d412fde555f9641",
      "blockHash": "0xf06c02c2420382ec3ca4cbd9430dc58532e72ae13f75fb7ec7676e3cfbdb4f35",
      "blockNumber": 85488,
      "transactionIndex": 1,
      "confirmations": null,
      "from": "0xFb89b8778d254A66A7FE21Ca8C9F095375D497f4",
      "gasPrice": {
        "_hex": "0xba43b7400"
      },
      "gasLimit": {
        "_hex": "0x5208"
      },
      "to": "0xC47Aaa860008be6f65B58c6C6E02a84e666EfE31",
      "value": {
        "_hex": "0x6c6a3b74756f00710"
      },
      "nonce": 1,
      "data": "0x",
      "r": "0xa6ab86f2e323b71b541f79291d3a5f2fe6692a8839b9fd8ef291256427500852",
      "s": "0x2e87185f54db48b25a7ddc30091a6d83cffc19ea6b303572656cff16e37baf13",
      "v": 28,
      "creates": null,
      "raw": "0xf86d01850ba43b740082520894c47aaa860008be6f65b58c6c6e02a84e666efe318906c6a3b74756f00710801ca0a6ab86f2e323b71b541f79291d3a5f2fe6692a8839b9fd8ef291256427500852a02e87185f54db48b25a7ddc30091a6d83cffc19ea6b303572656cff16e37baf13",
      "networkId": 0,
      "chainId": 0
    },
    {
      "hash": "0xa00bde2baeaf8307cc46ace38de5015219f6c697c49e3d4d4bb50151015d842b",
      "blockHash": "0xf06c02c2420382ec3ca4cbd9430dc58532e72ae13f75fb7ec7676e3cfbdb4f35",
      "blockNumber": 85488,
      "transactionIndex": 2,
      "confirmations": null,
      "from": "0x18C1a2C6cF4501A3AFcD4c90cF4644C5A58cb1d0",
      "gasPrice": {
        "_hex": "0xba43b7400"
      },
      "gasLimit": {
        "_hex": "0x5208"
      },
      "to": "0xC47Aaa860008be6f65B58c6C6E02a84e666EfE31",
      "value": {
        "_hex": "0xd015361569f7b8f0"
      },
      "nonce": 1,
      "data": "0x",
      "r": "0xed8bd373f1753671932b785a47b84db0fcd74f7f8632e2afa883b2eadde43a1a",
      "s": "0x3b356dfae18b1a63d72a88a31914c5e7c23313319c63f3c4803095a07aa9ec25",
      "v": 27,
      "creates": null,
      "raw": "0xf86c01850ba43b740082520894c47aaa860008be6f65b58c6c6e02a84e666efe3188d015361569f7b8f0801ba0ed8bd373f1753671932b785a47b84db0fcd74f7f8632e2afa883b2eadde43a1aa03b356dfae18b1a63d72a88a31914c5e7c23313319c63f3c4803095a07aa9ec25",
      "networkId": 0,
      "chainId": 0
    }
  ]
}