{
  "hash": "0x59e4f3d57cbcda83460da2df74bd4e5f4e94e5bb32d0e8fa46ed6fbbd02ed3b8",
  "parentHash": "0x23f3615a4985532971c55fb70cf71c3a43eae14614e0ece8fe425dd6e94d7a46",
  "number": 55190,
  "timestamp": 1439066808,
  "nonce": "0x38816d78d5602cac",
  "difficulty": 1638624697843,
  "gasLimit": {
    "_hex": "0x2fefd8"
  },
  "gasUsed": {
    "_hex": "0x546c"
  },
  "miner": "0xbe4532E1B1Db5c913Cf553be76180c1777055403",
  "extraData": "0x476574682f686261722f76312e302e312f6c696e75782f676f312e342e32",
  "transactions": [
    {
      "hash": "0xd177dddba095e6255731bddeeabedd1b266915b55eedcd1475a887d520167840",
      "blockHash": "0x59e4f3d57cbcda83460da2df74bd4e5f4e94e5bb32d0e8fa46ed6fbbd02ed3b8",
      "blockNumber": 55190,
      "transactionIndex": 0,
      "confirmations": null,
      "from": "0xEc9851bd917270610267D60518b54D3Ca2b35b17",
      "gasPrice": {
        "_hex": "0x120679dc00"
      },
      "gasLimit": {
        "_hex": "0x15f90"
      },
      "to": "0x2910543Af39abA0Cd09dBb2D50200b3E800A63D2",
      "value": {
        "_hex": "0x10f0cf064dd59200000"
      },
      "nonce": 2,
      "data": "0x454e5136505a575930",
      "r": "0x5d542575f151195e18bcaf95a06b69e82dc334709f13e887d974bb5112837128",
      "s": "0x7b03eab441b05ed5e0c7bcb7163fe9664449187227a70085ac4d45cdcc8ef079",
      "v": 28,
      "creates": null,
      "raw": "0xf8780285120679dc0083015f90942910543af39aba0cd09dbb2d50200b3e800a63d28a010f0cf064dd5920000089454e5136505a5759301ca05d542575f151195e18bcaf95a06b69e82dc334709f13e887d974bb5112837128a07b03eab441b05ed5e0c7bcb7163fe9664449187227a70085ac4d45cdcc8ef079",
      "networkId": 0,
      "chainId": 0
    }
  ]
}