{
  "hash": "0x4be57d7b3892786094229f1f78ffba3d6fefa39b10a27b63beba768418cfbaf4",
  "parentHash": "0x2b25ff27a851a09aa4ad4a18eb13556ebcd92a7c9cc88135a5358f206c9acc59",
  "number": 94677,
  "timestamp": 1439712210,
  "nonce": "0xe9d177c5b919edc9",
  "difficulty": 3491671642764,
  "gasLimit": {
    "_hex": "0x2fefd8"
  },
  "gasUsed": {
    "_hex": "0xf618"
  },
  "miner": "0x2134e2a2b718DCa96580ECAC31E653Ea1fdd58DA",
  "extraData": "0x476574682f76312e302e312f77696e646f77732f676f312e342e32",
  "transactions": [
    {
      "hash": "0x05447176d93ed69c47404c84f7b5d68ee5cc6f54ce9d251612c74c6cd2762047",
      "blockHash": "0x4be57d7b3892786094229f1f78ffba3d6fefa39b10a27b63beba768418cfbaf4",
      "blockNumber": 94677,
      "transactionIndex": 0,
      "confirmations": null,
      "from": "0xD924AAC0bCB65C13bE4044f6BeA8aAe34D7a7126",
      "gasPrice": {
        "_hex": "0xd7f5f0e6b"
      },
      "gasLimit": {
        "_hex": "0x5208"
      },
      "to": "0x32Be343B94f860124dC4fEe278FDCBD38C102D88",
      "value": {
        "_hex": "0xbf9660663e5c4800"
      },
      "nonce": 6,
      "data": "0x",
      "r": "0xef544c2a8bdb0287c879e4a49b789d9e5f92e6a708cc46833ec339214cb6d6a5",
      "s": "0x2594ab8f9ba5b167b57290618f37c711f50b7a22cc99cb5234205e02d44c97db",
      "v": 28,
      "creates": null,
      "raw": "0xf86c06850d7f5f0e6b8252089432be343b94f860124dc4fee278fdcbd38c102d8888bf9660663e5c4800801ca0ef544c2a8bdb0287c879e4a49b789d9e5f92e6a708cc46833ec339214cb6d6a5a02594ab8f9ba5b167b57290618f37c711f50b7a22cc99cb5234205e02d44c97db",
      "networkId": 0,
      "chainId": 0
    },
    {
      "hash": "0xde6cc6966258c6a9f9fc3506eb72c8076b3728b9d06482ab21aba31d350b6e01",
      "blockHash": "0x4be57d7b3892786094229f1f78ffba3d6fefa39b10a27b63beba768418cfbaf4",
      "blockNumber": 94677,
      "transactionIndex": 1,
      "confirmations": null,
      "from": "0xabceA603089850F8f6bB612A9031554D90A247CF",
      "gasPrice": {
        "_hex": "0xd7f5f0e6b"
      },
      "gasLimit": {
        "_hex": "0x5208"
      },
      "to": "0x32Be343B94f860124dC4fEe278FDCBD38C102D88",
      "value": {
        "_hex": "0xd3d15a210505b000"
      },
      "nonce": 30,
      "data": "0x",
      "r": "0x84c1c36a609a191293d622336188280beb09b9c23ea24a0f3c4b60d88e71883c",
      "s": "0x64eba5ed4fda8c5db8fa7e3769520b3c93595c24a7bbb98e415ce383971f89cc",
      "v": 27,
      "creates": null,
      "raw": "0xf86c1e850d7f5f0e6b8252089432be343b94f860124dc4fee278fdcbd38c102d8888d3d15a210505b000801ba084c1c36a609a191293d622336188280beb09b9c23ea24a0f3c4b60d88e71883ca064eba5ed4fda8c5db8fa7e3769520b3c93595c24a7bbb98e415ce383971f89cc",
      "networkId": 0,
      "chainId": 0
    },
    {
      "hash": "0x1742a92012a643d5f9529203a9e1733ef87e204c415eeda04eaa623132bd20db",
      "blockHash": "0x4be57d7b3892786094229f1f78ffba3d6fefa39b10a27b63beba768418cfbaf4",
      "blockNumber": 94677,
      "transactionIndex": 2,
      "confirmations": null,
      "from": "0xc0920452d99591a4e8b190632c52754c72F73328",
      "gasPrice": {
        "_hex": "0xd7f5f0e6b"
      },
      "gasLimit": {
        "_hex": "0x5208"
      },
      "to": "0x32Be343B94f860124dC4fEe278FDCBD38C102D88",
      "value": {
        "_hex": "0x1ab4fa35da7ed4000"
      },
      "nonce": 7,
      "data": "0x",
      "r": "0xdf043d6e00d8d4b2527028e2daf68590d11bc2e2078718d256c0199d20f161d2",
      "s": "0x1fc1a861ffe9108d45f9c7e961babba09c09bda34ae31c34106b323f9af69f86",
      "v": 27,
      "creates": null,
      "raw": "0xf86d07850d7f5f0e6b8252089432be343b94f860124dc4fee278fdcbd38c102d888901ab4fa35da7ed4000801ba0df043d6e00d8d4b2527028e2daf68590d11bc2e2078718d256c0199d20f161d2a01fc1a861ffe9108d45f9c7e961babba09c09bda34ae31c34106b323f9af69f86",
      "networkId": 0,
      "chainId": 0
    }
  ]
}