{
  "hash": "0x9d3f0ad7b63a16121a1000599cb7d8f4a19be1f13c1d11428ac234b625794533",
  "parentHash": "0x4c3c5c0b7052b114da3f2f41255259c6d7d7ff0defb2d7f504597e26ae88896b",
  "number": 119845,
  "timestamp": 1440149684,
  "nonce": "0x5097b6a63d0a2ae1",
  "difficulty": 4413575133167,
  "gasLimit": {
    "_hex": "0x2fefd8"
  },
  "gasUsed": {
    "_hex": "0x5208"
  },
  "miner": "0x9746c7e1ef2bd21FF3997fa467593a89cb852BD0",
  "extraData": "0x476574682f76312e302e312f77696e646f77732f676f312e342e32",
  "transactions": [
    {
      "hash": "0xd5720e8a0d653250b6571264f2d40be018fa5b7531a00bac20763863662f5f6c",
      "blockHash": "0x9d3f0ad7b63a16121a1000599cb7d8f4a19be1f13c1d11428ac234b625794533",
      "blockNumber": 119845,
      "transactionIndex": 0,
      "confirmations": null,
      "from": "0x007f7f58D3eb5b7510A301eCC749FC1fCDDBE14D",
      "gasPrice": {
        "_hex": "0xba43b7400"
      },
      "gasLimit": {
        "_hex": "0x15f90"
      },
      "to": "0xb1abce2918E21ddb93AA452731a12672A3d9F75a",
      "value": {
        "_hex": "0x4563918244f40000"
      },
      "nonce": 366,
      "data": "0x",
      "r": "0xf5f8b9c9640dfbc163d75302ce848ff9c7247895d0323c10ccd3e3e1973a1b35",
      "s": "0x5d1d43cc65edc2b46c316945cd990ee42fd551e5c7522f0133977161e102bd5d",
      "v": 28,
      "creates": null,
      "raw": "0xf86f82016e850ba43b740083015f9094b1abce2918e21ddb93aa452731a12672a3d9f75a884563918244f40000801ca0f5f8b9c9640dfbc163d75302ce848ff9c7247895d0323c10ccd3e3e1973a1b35a05d1d43cc65edc2b46c316945cd990ee42fd551e5c7522f0133977161e102bd5d",
      "networkId": 0,
      "chainId": 0
    }
  ]
}