{
  "hash": "0x65674a4322849137fd2590fee1937772fe31cde9803cf6948c8a811a147b105c",
  "parentHash": "0xd818c73cf5233e1101ce7f9f49ecc436090aa2eec46745d0a5bde7d01726605e",
  "number": 100347,
  "timestamp": 1439804881,
  "nonce": "0x9ea9580eb069e09b",
  "difficulty": 3821049049548,
  "gasLimit": {
    "_hex": "0x2fefd8"
  },
  "gasUsed": {
    "_hex": "0x5208"
  },
  "miner": "0x5F8F73E26CdF436f19Cb24C82F90A15AFe55b592",
  "extraData": "0x476574682f76312e302e312f77696e646f77732f676f312e342e32",
  "transactions": [
    {
      "hash": "0xfda10a55d74546b510ca5069200bdf093ac533bb89113fb248773c4d5acecb7e",
      "blockHash": "0x65674a4322849137fd2590fee1937772fe31cde9803cf6948c8a811a147b105c",
      "blockNumber": 100347,
      "transactionIndex": 0,
      "confirmations": null,
      "from": "0x61E20833179bA2eCCc2065e5F733CC8CdA7394c0",
      "gasPrice": {
        "_hex": "0xdec5203a2"
      },
      "gasLimit": {
        "_hex": "0x5208"
      },
      "to": "0x32Be343B94f860124dC4fEe278FDCBD38C102D88",
      "value": {
        "_hex": "0x113dbd57546786000"
      },
      "nonce": 4,
      "data": "0x",
      "r": "0x0d7f308b250831c861b415796d877aa9bbda74c47765fae3652bf3169f244a11",
      "s": "0x7e43d95c1fa19b69716caebcf70732f9bbf791d48d051327fb8c9fb723c705d6",
      "v": 28,
      "creates": null,
      "raw": "0xf86d04850dec5203a28252089432be343b94f860124dc4fee278fdcbd38c102d88890113dbd57546786000801ca00d7f308b250831c861b415796d877aa9bbda74c47765fae3652bf3169f244a11a07e43d95c1fa19b69716caebcf70732f9bbf791d48d051327fb8c9fb723c705d6",
      "networkId": 0,
      "chainId": 0
    }
  ]
}