{
  "hash": "0xf82383ac45fdbb318dce539264583f84695f19f483d539fcaea897d858da106d",
  "parentHash": "0xc8e9ad1f9657c6d94e3e232b1c507d65883fc3db86f5edffbf8e37a4e03eb1c6",
  "number": 102490,
  "timestamp": 1439838808,
  "nonce": "0x786910c16112f8ad",
  "difficulty": 3962561407821,
  "gasLimit": {
    "_hex": "0x2fefd8"
  },
  "gasUsed": {
    "_hex": "0x20fc6"
  },
  "miner": "0xe6A7a1d47ff21B6321162AEA7C6CB457D5476Bca",
  "extraData": "0x476574682f76312e302e312d38326566323666362f6c696e75782f676f312e34",
  "transactions": [
    {
      "hash": "0x6dd93afe2f98acf60a971ea0e6bd86ec0a9fed90ee0b3995cb8aa9509803ccb7",
      "blockHash": "0xf82383ac45fdbb318dce539264583f84695f19f483d539fcaea897d858da106d",
      "blockNumber": 102490,
      "transactionIndex": 0,
      "confirmations": null,
      "from": "0xe20B355FFd1e85740013B68a706A885df417ED24",
      "gasPrice": {
        "_hex": "0x10dc90d85e7"
      },
      "gasLimit": {
        "_hex": "0x7530"
      },
      "to": "0x7C102f1558D7A6E6fE89121bc98749c4eD0D0995",
      "value": {
        "_hex": "0x16345785d8a0000"
      },
      "nonce": 0,
      "data": "0x",
      "r": "0x352f9837810494002aed72019cd2d13500ee7a9914d09d3bc40fe431a272d7f3",
      "s": "0x1132f79132dcb9a4c5910d12f228c13cf748c6e181f7adcfd7f5751453dcd62a",
      "v": 27,
      "creates": null,
      "raw": "0xf86d8086010dc90d85e7827530947c102f1558d7a6e6fe89121bc98749c4ed0d099588016345785d8a0000801ba0352f9837810494002aed72019cd2d13500ee7a9914d09d3bc40fe431a272d7f3a01132f79132dcb9a4c5910d12f228c13cf748c6e181f7adcfd7f5751453dcd62a",
      "networkId": 0,
      "chainId": 0
    },
    {
      "hash": "0x6047aae35fcde6f635c35fb2f21ad4377db8d4e3b3b9156663d0ea5382072f93",
      "blockHash": "0xf82383ac45fdbb318dce539264583f84695f19f483d539fcaea897d858da106d",
      "blockNumber": 102490,
      "transactionIndex": 1,
      "confirmations": null,
      "from": "0x562a8dcbBEEEf7B360685D27303bD69e094AcCf6",
      "gasPrice": {
        "_hex": "0xda330f50e"
      },
      "gasLimit": {
        "_hex": "0x249f0"
      },
      "to": "0xE28e72FCf78647ADCe1F1252F240bbfaebD63BcC",
      "value": {
        "_hex": "0x1043561a8829300000"
      },
      "nonce": 2,
      "data": "0x45466f3a",
      "r": "0xdcf18dd9f54f377777be6da7dd6cea1d12569cb3a3ecf2c63dde7436de81ba5f",
      "s": "0x16302df64c8efb2d90346f282e6a65b5e3f27d0c20e3236e9f9771b71ec70b9a",
      "v": 27,
      "creates": null,
      "raw": "0xf87202850da330f50e830249f094e28e72fcf78647adce1f1252f240bbfaebd63bcc891043561a88293000008445466f3a1ba0dcf18dd9f54f377777be6da7dd6cea1d12569cb3a3ecf2c63dde7436de81ba5fa016302df64c8efb2d90346f282e6a65b5e3f27d0c20e3236e9f9771b71ec70b9a",
      "networkId": 0,
      "chainId": 0
    }
  ]
}