{
  "hash": "0x648aa810bf246f3a678a4cf55867fe301b0fa67127993e9e4ddde52665131881",
  "parentHash": "0x738f197f25fdcabe63f8a9ef3ac577c12767f74f0d430a46a33e8d33d92246b2",
  "number": 53916,
  "timestamp": 1439045705,
  "nonce": "0x61f2133fa7625244",
  "difficulty": 1600909110487,
  "gasLimit": {
    "_hex": "0x2fefd8"
  },
  "gasUsed": {
    "_hex": "0xa8d8"
  },
  "miner": "0x937a4C6CFA806b2FA9796F482CDA67dB579dE173",
  "extraData": "0x476574682f76312e302e312d37666266393930632f6c696e75782f676f312e34",
  "transactions": [
    {
      "hash": "0x28615f3192b10558244fe49130b99c6d1579f1985df4a45c13c61a597f8ef7e6",
      "blockHash": "0x648aa810bf246f3a678a4cf55867fe301b0fa67127993e9e4ddde52665131881",
      "blockNumber": 53916,
      "transactionIndex": 0,
      "confirmations": null,
      "from": "0x64CF897D51472Dc7CfF0e6368EB15B9e2d5168E3",
      "gasPrice": {
        "_hex": "0x9184e72a000"
      },
      "gasLimit": {
        "_hex": "0x993fe"
      },
      "to": "0x2910543Af39abA0Cd09dBb2D50200b3E800A63D2",
      "value": {
        "_hex": "0xde0b6b3a7640000"
      },
      "nonce": 3,
      "data": "0x454e35583543414430",
      "r": "0x1ea4bc6424178641add797f81f69a609f68929499acea15e9a7f7d51fcdebf51",
      "s": "0x45cdb199ecf25c89b54a7c4a4cad8802ebd9a103486dfa5d5a4df2616ec6751d",
      "v": 28,
      "creates": null,
      "raw": "0xf877038609184e72a000830993fe942910543af39aba0cd09dbb2d50200b3e800a63d2880de0b6b3a764000089454e355835434144301ca01ea4bc6424178641add797f81f69a609f68929499acea15e9a7f7d51fcdebf51a045cdb199ecf25c89b54a7c4a4cad8802ebd9a103486dfa5d5a4df2616ec6751d",
      "networkId": 0,
      "chainId": 0
    },
    {
      "hash": "0xd28959da3318df04c46468ad03da13da5a5abb486c4ad15a8ba90d8392a29ed9",
      "blockHash": "0x648aa810bf246f3a678a4cf55867fe301b0fa67127993e9e4ddde52665131881",
      "blockNumber": 53916,
      "transactionIndex": 1,
      "confirmations": null,
      "from": "0x09d6CEFd75b0c4b3F8f1D687A522C96123F1F539",
      "gasPrice": {
        "_hex": "0x10c8eea3714"
      },
      "gasLimit": {
        "_hex": "0x61a8"
      },
      "to": "0x2910543Af39abA0Cd09dBb2D50200b3E800A63D2",
      "value": {
        "_hex": "0x66ffcbfd5e5a300000"
      },
      "nonce": 5,
      "data": "0x454e4337464d375547",
      "r": "0xdd805a9fb717db3640960f563d3aa34530fc3d97383cc1e1b5db42713fd74cca",
      "s": "0x6b2f2c5fcc81fb5fa92970d3b6ba287b01d1dccd6903e41e0c8efe906e95bea4",
      "v": 27,
      "creates": null,
      "raw": "0xf8770586010c8eea37148261a8942910543af39aba0cd09dbb2d50200b3e800a63d28966ffcbfd5e5a30000089454e4337464d3755471ba0dd805a9fb717db3640960f563d3aa34530fc3d97383cc1e1b5db42713fd74ccaa06b2f2c5fcc81fb5fa92970d3b6ba287b01d1dccd6903e41e0c8efe906e95bea4",
      "networkId": 0,
      "chainId": 0
    }
  ]
}