{
  "hash": "0xfb7c68166c8b595037f5abd0059dc8e2ad53d2090bac53a7e61c2d2dd7afbf0c",
  "parentHash": "0x909b28de92088c4438022f8906272dc7b4ff98c15685a3918a6827ce7c497a88",
  "number": 116410,
  "timestamp": 1440073814,
  "nonce": "0x3a244c2f35ebda38",
  "difficulty": 4575605624252,
  "gasLimit": {
    "_hex": "0x2fefd8"
  },
  "gasUsed": {
    "_hex": "0x5208"
  },
  "miner": "0xe6A7a1d47ff21B6321162AEA7C6CB457D5476Bca",
  "extraData": "0x476574682f76312e302e312d38326566323666362f6c696e75782f676f312e34",
  "transactions": [
    {
      "hash": "0x1d7224eed3a3bb0f81f7c20eb3c9b15a5eae906ed54192c9707f1ba7f6d2e0b1",
      "blockHash": "0xfb7c68166c8b595037f5abd0059dc8e2ad53d2090bac53a7e61c2d2dd7afbf0c",
      "blockNumber": 116410,
      "transactionIndex": 0,
      "confirmations": null,
      "from": "0xC47Aaa860008be6f65B58c6C6E02a84e666EfE31",
      "gasPrice": {
        "_hex": "0xd557adbe4"
      },
      "gasLimit": {
        "_hex": "0x15f90"
      },
      "to": "0x02020D22dCF88f5eDd66B382D7da019F161fB7e3",
      "value": {
        "_hex": "0x2cd4eaa8df1b45dc5f"
      },
      "nonce": 114,
      "data": "0x",
      "r": "0x8fadeeb0375ede40c7b86a8d62a689281f7a7e6e824de252295ec7d4edfc0bca",
      "s": "0x74242d1b2bb8a38634aa68462e2d35d6de16ffdd5e58ef0a99c1b7977aa12ef8",
      "v": 28,
      "creates": null,
      "raw": "0xf86e72850d557adbe483015f909402020d22dcf88f5edd66b382d7da019f161fb7e3892cd4eaa8df1b45dc5f801ca08fadeeb0375ede40c7b86a8d62a689281f7a7e6e824de252295ec7d4edfc0bcaa074242d1b2bb8a38634aa68462e2d35d6de16ffdd5e58ef0a99c1b7977aa12ef8",
      "networkId": 0,
      "chainId": 0
    }
  ]
}