{
  "hash": "0x849246d931fd54b911bf0978c38e9f09afc4393060154fc925579cf3b371bfb3",
  "parentHash": "0xb5a8a982002d53db2de104ccb4c6e298cc3ddbb1348af84ce9ffa4ba413165c0",
  "number": 56988,
  "timestamp": 1439095678,
  "nonce": "0x6480d954e28783e3",
  "difficulty": 1710202366008,
  "gasLimit": {
    "_hex": "0x2fefd8"
  },
  "gasUsed": {
    "_hex": "0x5208"
  },
  "miner": "0x7903428Eb39b4da60a93f8FCB5228b3b431b7B52",
  "extraData": "0x",
  "transactions": [
    {
      "hash": "0x1bce38e9191c051fe469346fcd19dc2c4bfc30ae94717eb9de7d45d82ea7789e",
      "blockHash": "0x849246d931fd54b911bf0978c38e9f09afc4393060154fc925579cf3b371bfb3",
      "blockNumber": 56988,
      "transactionIndex": 0,
      "confirmations": null,
      "from": "0xC25f24A505b8fEF751D8f4FCc397651001F7a160",
      "gasPrice": {
        "_hex": "0xd5d62ff10"
      },
      "gasLimit": {
        "_hex": "0x5208"
      },
      "to": "0x32Be343B94f860124dC4fEe278FDCBD38C102D88",
      "value": {
        "_hex": "0x28c60bdacb744c000"
      },
      "nonce": 0,
      "data": "0x",
      "r": "0x29b55079d564a797aa55cca0c52d4d88e0a0e69e0ac6555eff340ecf5407a365",
      "s": "0x3dc75937bbb3d0786de4126fe505020814bb4dc5ce7ad80d6f7c70a79607cf84",
      "v": 27,
      "creates": null,
      "raw": "0xf86d80850d5d62ff108252089432be343b94f860124dc4fee278fdcbd38c102d8889028c60bdacb744c000801ba029b55079d564a797aa55cca0c52d4d88e0a0e69e0ac6555eff340ecf5407a365a03dc75937bbb3d0786de4126fe505020814bb4dc5ce7ad80d6f7c70a79607cf84",
      "networkId": 0,
      "chainId": 0
    }
  ]
}