{
  "hash": "0xdfc7dc6aa919e9981ea74014e618108ab56ac6a62d267bc845766e99a1443b46",
  "parentHash": "0xcb5dd9958158e380de62598b85412001cecc3334e20aeab41e832324e86f55d3",
  "number": 108735,
  "timestamp": 1439945369,
  "nonce": "0x0f32b5279ca56119",
  "difficulty": 4338179435575,
  "gasLimit": {
    "_hex": "0x2fefd8"
  },
  "gasUsed": {
    "_hex": "0x5208"
  },
  "miner": "0xf8E0CA3Ed80bd541b94BEdCf259e8CF2141A9523",
  "extraData": "0x476574682f76312e302e312f77696e646f77732f676f312e342e32",
  "transactions": [
    {
      "hash": "0x941e64b984f4d412927183f836d848358b7cd08dda04e75d9a371a38d0b31876",
      "blockHash": "0xdfc7dc6aa919e9981ea74014e618108ab56ac6a62d267bc845766e99a1443b46",
      "blockNumber": 108735,
      "transactionIndex": 0,
      "confirmations": null,
      "from": "0xc597A5d92F5dC1137D847db733cfe02c6d209f13",
      "gasPrice": {
        "_hex": "0xba43b7400"
      },
      "gasLimit": {
        "_hex": "0x15f90"
      },
      "to": "0x5F965F10e1BD020753Ca496fee6b3E4D809aff67",
      "value": {
        "_hex": "0x29efe34f82c8a0000"
      },
      "nonce": 46,
      "data": "0x",
      "r": "0xee285bb22d69ed258f7fa0e1eadfac57762a22d25983947246b4ae149a076075",
      "s": "0x3481d091003be3f311ae8f80ba4e8bb57cdecafc4d27b5a497858a8fbfaebaf6",
      "v": 28,
      "creates": null,
      "raw": "0xf86e2e850ba43b740083015f90945f965f10e1bd020753ca496fee6b3e4d809aff6789029efe34f82c8a0000801ca0ee285bb22d69ed258f7fa0e1eadfac57762a22d25983947246b4ae149a076075a03481d091003be3f311ae8f80ba4e8bb57cdecafc4d27b5a497858a8fbfaebaf6",
      "networkId": 0,
      "chainId": 0
    }
  ]
}