{
  "hash": "0x2cebacf1cf1964a9fa0dbb2ca2c7cb10e71eb726aeaca843a49fdbe1aa96f6bc",
  "parentHash": "0x9d410a16b9b12e38b76af337cbc425a9633228f309ef4553798e7791650062c0",
  "number": 119431,
  "timestamp": 1440142892,
  "nonce": "0x16e407c441d0bac1",
  "difficulty": 4379444548135,
  "gasLimit": {
    "_hex": "0x2fefd8"
  },
  "gasUsed": {
    "_hex": "0x52b80"
  },
  "miner": "0x580992B51e3925e23280EfB93d3047C82f17E038",
  "extraData": "0x",
  "transactions": [
    {
      "hash": "0xa3c8b63c4aef12c300acb0c19524ef75b0302e0068cb3287ae887aa2e8f9de3e",
      "blockHash": "0x2cebacf1cf1964a9fa0dbb2ca2c7cb10e71eb726aeaca843a49fdbe1aa96f6bc",
      "blockNumber": 119431,
      "transactionIndex": 0,
      "confirmations": null,
      "from": "0x34C57A97dF78772fAc54FF75CeF9590457feE4D9",
      "gasPrice": {
        "_hex": "0xde68a219e"
      },
      "gasLimit": {
        "_hex": "0x493e0"
      },
      "to": null,
      "value": {
        "_hex": "0x0"
      },
      "nonce": 6,
      "data": "0x6060604052600060016000505560006002600050555b33600060006101000a81548173ffffffffffffffffffffffffffffffffffffffff021916908302179055505b6109a6806100506000396000f30060606040523615610074576000357c01000000000000000000000000000000000000000000000000000000009004806310e6e06c1461007657806318d9adab146100a35780632afb2b9b1461016057806341c0e1b5146102175780638ebb4c1514610224578063c1e6adfd1461031a57610074565b005b61008d60048035906020018035906020015061078d565b6040518082815260200191505060405180910390f35b6100b46004803590602001506104d7565b604051808060200180602001848152602001838103835286818154815260200191508054801561010957820191906000526020600020905b8154815290600101906020018083116100ec57829003601f168201915b5050838103825285818154815260200191508054801561014e57820191906000526020600020905b81548152906001019060200180831161013157829003601f168201915b50509550505050505060405180910390f35b6102016004803590602001803590602001906004018035906020019191908080601f01602080910402602001604051908101604052809392919081815260200183838082843782019150505050505090803590602001906004018035906020019191908080601f016020809104026020016040519081016040528093929190818152602001838380828437820191505050505050908035906020015061050b565b6040518082815260200191505060405180910390f35b6102226004506103c5565b005b610235600480359060200150610459565b6040518089815260200188815260200180602001806020018781526020018681526020018573ffffffffffffffffffffffffffffffffffffffff16815260200184815260200183810383528981815481526020019150805480156102be57820191906000526020600020905b8154815290600101906020018083116102a157829003601f168201915b5050838103825288818154815260200191508054801561030357820191906000526020600020905b8154815290600101906020018083116102e657829003601f168201915b50509a505050505050505050505060405180910390f35b6103af6004803590602001906004018035906020019191908080601f01602080910402602001604051908101604052809392919081815260200183838082843782019150505050505090803590602001906004018035906020019191908080601f016020809104026020016040519081016040528093929190818152602001838380828437820191505050505050905061081e565b6040518082815260200191505060405180910390f35b600060009054906101000a900473ffffffffffffffffffffffffffffffffffffffff1673ffffffffffffffffffffffffffffffffffffffff163373ffffffffffffffffffffffffffffffffffffffff16141561045657600060009054906101000a900473ffffffffffffffffffffffffffffffffffffffff1673ffffffffffffffffffffffffffffffffffffffff16ff5b5b565b6003600050602052806000526040600020600091509050806000016000505490806001016000505490806002016000509080600301600050908060040160005054908060050160005054908060060160009054906101000a900473ffffffffffffffffffffffffffffffffffffffff16908060070160005054905088565b6004600050602052806000526040600020600091509050806000016000509080600101600050908060020160005054905083565b60006000851180156105515750600160005054851015806105505750600060036000506000600160005054815260200190815260200160002060005060040160005054145b5b1561055f5760009050610785565b83600360005060006001600050548152602001908152602001600020600050600201600050908051906020019082805482825590600052602060002090601f016020900481019282156105cf579182015b828111156105ce5782518260005055916020019190600101906105b0565b5b5090506105fa91906105dc565b808211156105f657600081815060009055506001016105dc565b5090565b5050846003600050600060016000505481526020019081526020016000206000506005016000508190555042600360005060006001600050548152602001908152602001600020600050600401600050819055503360036000506000600160005054815260200190815260200160002060005060060160006101000a81548173ffffffffffffffffffffffffffffffffffffffff0219169083021790555082600360005060006001600050548152602001908152602001600020600050600301600050908051906020019082805482825590600052602060002090601f01602090048101928215610708579182015b828111156107075782518260005055916020019190600101906106e9565b5b5090506107339190610715565b8082111561072f5760008181506000905550600101610715565b5090565b505060008514156107685781600360005060006001600050548152602001908152602001600020600050600701600050819055505b600160008181505480929190600101919050555060019050610785565b949350505050565b600060016000505482101561080f5782156107da5760036000506000600160005054815260200190815260200160002060005060000160008181505480929190600101919050555061080e565b6003600050600060016000505481526020019081526020016000206000506001016000818150548092919060010191905055505b5b60019050610818565b92915050565b600082600460005060006002600050548152602001908152602001600020600050600001600050908051906020019082805482825590600052602060002090601f01602090048101928215610890579182015b8281111561088f578251826000505591602001919060010190610871565b5b5090506108bb919061089d565b808211156108b7576000818150600090555060010161089d565b5090565b505081600460005060006002600050548152602001908152602001600020600050600101600050908051906020019082805482825590600052602060002090601f0160209004810192821561092d579182015b8281111561092c57825182600050559160200191906001019061090e565b5b509050610958919061093a565b80821115610954576000818150600090555060010161093a565b5090565b505042600460005060006002600050548152602001908152602001600020600050600201600050819055506002600081815054809291906001019190505550600190506109a0565b9291505056",
      "r": "0x9c16662141d92cc6f62329fb564b4e9a400cfc3339067c957f477226679b49a9",
      "s": "0x3b071329c4a56edbad62592eade0155e75c469764285551dedb6bb27a95edf3c",
      "v": 28,
      "creates": "0x0AD0F3c60696adECe09367a9A11C968FB88560bb",
      "raw": "0xf90a4906850de68a219e830493e08080b909f66060604052600060016000505560006002600050555b33600060006101000a81548173ffffffffffffffffffffffffffffffffffffffff021916908302179055505b6109a6806100506000396000f30060606040523615610074576000357c01000000000000000000000000000000000000000000000000000000009004806310e6e06c1461007657806318d9adab146100a35780632afb2b9b1461016057806341c0e1b5146102175780638ebb4c1514610224578063c1e6adfd1461031a57610074565b005b61008d60048035906020018035906020015061078d565b6040518082815260200191505060405180910390f35b6100b46004803590602001506104d7565b604051808060200180602001848152602001838103835286818154815260200191508054801561010957820191906000526020600020905b8154815290600101906020018083116100ec57829003601f168201915b5050838103825285818154815260200191508054801561014e57820191906000526020600020905b81548152906001019060200180831161013157829003601f168201915b50509550505050505060405180910390f35b6102016004803590602001803590602001906004018035906020019191908080601f01602080910402602001604051908101604052809392919081815260200183838082843782019150505050505090803590602001906004018035906020019191908080601f016020809104026020016040519081016040528093929190818152602001838380828437820191505050505050908035906020015061050b565b6040518082815260200191505060405180910390f35b6102226004506103c5565b005b610235600480359060200150610459565b6040518089815260200188815260200180602001806020018781526020018681526020018573ffffffffffffffffffffffffffffffffffffffff16815260200184815260200183810383528981815481526020019150805480156102be57820191906000526020600020905b8154815290600101906020018083116102a157829003601f168201915b5050838103825288818154815260200191508054801561030357820191906000526020600020905b8154815290600101906020018083116102e657829003601f168201915b50509a505050505050505050505060405180910390f35b6103af6004803590602001906004018035906020019191908080601f01602080910402602001604051908101604052809392919081815260200183838082843782019150505050505090803590602001906004018035906020019191908080601f016020809104026020016040519081016040528093929190818152602001838380828437820191505050505050905061081e565b6040518082815260200191505060405180910390f35b600060009054906101000a900473ffffffffffffffffffffffffffffffffffffffff1673ffffffffffffffffffffffffffffffffffffffff163373ffffffffffffffffffffffffffffffffffffffff16141561045657600060009054906101000a900473ffffffffffffffffffffffffffffffffffffffff1673ffffffffffffffffffffffffffffffffffffffff16ff5b5b565b6003600050602052806000526040600020600091509050806000016000505490806001016000505490806002016000509080600301600050908060040160005054908060050160005054908060060160009054906101000a900473ffffffffffffffffffffffffffffffffffffffff16908060070160005054905088565b6004600050602052806000526040600020600091509050806000016000509080600101600050908060020160005054905083565b60006000851180156105515750600160005054851015806105505750600060036000506000600160005054815260200190815260200160002060005060040160005054145b5b1561055f5760009050610785565b83600360005060006001600050548152602001908152602001600020600050600201600050908051906020019082805482825590600052602060002090601f016020900481019282156105cf579182015b828111156105ce5782518260005055916020019190600101906105b0565b5b5090506105fa91906105dc565b808211156105f657600081815060009055506001016105dc565b5090565b5050846003600050600060016000505481526020019081526020016000206000506005016000508190555042600360005060006001600050548152602001908152602001600020600050600401600050819055503360036000506000600160005054815260200190815260200160002060005060060160006101000a81548173ffffffffffffffffffffffffffffffffffffffff0219169083021790555082600360005060006001600050548152602001908152602001600020600050600301600050908051906020019082805482825590600052602060002090601f01602090048101928215610708579182015b828111156107075782518260005055916020019190600101906106e9565b5b5090506107339190610715565b8082111561072f5760008181506000905550600101610715565b5090565b505060008514156107685781600360005060006001600050548152602001908152602001600020600050600701600050819055505b600160008181505480929190600101919050555060019050610785565b949350505050565b600060016000505482101561080f5782156107da5760036000506000600160005054815260200190815260200160002060005060000160008181505480929190600101919050555061080e565b6003600050600060016000505481526020019081526020016000206000506001016000818150548092919060010191905055505b5b60019050610818565b92915050565b600082600460005060006002600050548152602001908152602001600020600050600001600050908051906020019082805482825590600052602060002090601f01602090048101928215610890579182015b8281111561088f578251826000505591602001919060010190610871565b5b5090506108bb919061089d565b808211156108b7576000818150600090555060010161089d565b5090565b505081600460005060006002600050548152602001908152602001600020600050600101600050908051906020019082805482825590600052602060002090601f0160209004810192821561092d579182015b8281111561092c57825182600050559160200191906001019061090e565b5b509050610958919061093a565b80821115610954576000818150600090555060010161093a565b5090565b505042600460005060006002600050548152602001908152602001600020600050600201600050819055506002600081815054809291906001019190505550600190506109a0565b92915050561ca09c16662141d92cc6f62329fb564b4e9a400cfc3339067c957f477226679b49a9a03b071329c4a56edbad62592eade0155e75c469764285551dedb6bb27a95edf3c",
      "networkId": 0,
      "chainId": 0
    },
    {
      "hash": "0x0fefc0325570bed433a191fedd9e34c5b9b4ce3b9438ffc719cdc694c9778f78",
      "blockHash": "0x2cebacf1cf1964a9fa0dbb2ca2c7cb10e71eb726aeaca843a49fdbe1aa96f6bc",
      "blockNumber": 119431,
      "transactionIndex": 1,
      "confirmations": null,
      "from": "0xE12517204a15E890f12755207271102F4800A0c4",
      "gasPrice": {
        "_hex": "0xba43b7400"
      },
      "gasLimit": {
        "_hex": "0x5208"
      },
      "to": "0x32Be343B94f860124dC4fEe278FDCBD38C102D88",
      "value": {
        "_hex": "0x27e9b21a74b9ce000"
      },
      "nonce": 22,
      "data": "0x",
      "r": "0x5ea84c34e94328730fdb6696a6f26e8211d92d2fc94c39ff3b308ac2806ac020",
      "s": "0x7de725b8b6584bbd48e5867d2dfa4be01537ccaee3502a82c001e8a5ee68e2f5",
      "v": 28,
      "creates": null,
      "raw": "0xf86d16850ba43b74008252089432be343b94f860124dc4fee278fdcbd38c102d8889027e9b21a74b9ce000801ca05ea84c34e94328730fdb6696a6f26e8211d92d2fc94c39ff3b308ac2806ac020a07de725b8b6584bbd48e5867d2dfa4be01537ccaee3502a82c001e8a5ee68e2f5",
      "networkId": 0,
      "chainId": 0
    },
    {
      "hash": "0xdbe6cd71bc51e5a06da5ed25e65dc3e52a3e0b8bee9b8ff06a854d9c1f0dcf06",
      "blockHash": "0x2cebacf1cf1964a9fa0dbb2ca2c7cb10e71eb726aeaca843a49fdbe1aa96f6bc",
      "blockNumber": 119431,
      "transactionIndex": 2,
      "confirmations": null,
      "from": "0x6934e4839d59dEa0583b03643eCb8c10d6B150fc",
      "gasPrice": {
        "_hex": "0xba43b7400"
      },
      "gasLimit": {
        "_hex": "0x5208"
      },
      "to": "0x32Be343B94f860124dC4fEe278FDCBD38C102D88",
      "value": {
        "_hex": "0x221a52a16fa01000"
      },
      "nonce": 5,
      "data": "0x",
      "r": "0x492b4fe43fa9bcecf2de53bba3f284563cfb055c63dac35fe8e2a217a3d3c53e",
      "s": "0x1663cd9ac612af3c024a112ccde95e815fe588ee51ca1fa0528b291bdbe89ab4",
      "v": 28,
      "creates": null,
      "raw": "0xf86c05850ba43b74008252089432be343b94f860124dc4fee278fdcbd38c102d8888221a52a16fa01000801ca0492b4fe43fa9bcecf2de53bba3f284563cfb055c63dac35fe8e2a217a3d3c53ea01663cd9ac612af3c024a112ccde95e815fe588ee51ca1fa0528b291bdbe89ab4",
      "networkId": 0,
      "chainId": 0
    },
    {
      "hash": "0xb459b3dbece9308c042ab78531bf120e6833248a61a0e44ab1aa42bd1d1eaa94",
      "blockHash": "0x2cebacf1cf1964a9fa0dbb2ca2c7cb10e71eb726aeaca843a49fdbe1aa96f6bc",
      "blockNumber": 119431,
      "transactionIndex": 3,
      "confirmations": null,
      "from": "0x237b555850BE6BFf53a0698146371a2F5890A030",
      "gasPrice": {
        "_hex": "0xba43b7400"
      },
      "gasLimit": {
        "_hex": "0x5208"
      },
      "to": "0x32Be343B94f860124dC4fEe278FDCBD38C102D88",
      "value": {
        "_hex": "0x1f5e9d28709a9800"
      },
      "nonce": 8,
      "data": "0x",
      "r": "0x5c6af344089e8931c77e3327be18ee3e458e32126c3ad52913697418cec7b2e6",
      "s": "0x25f399457fe8c8a4dc31b2af1b029c2a60c646aa23ecdc73d41b7fd61f040512",
      "v": 28,
      "creates": null,
      "raw": "0xf86c08850ba43b74008252089432be343b94f860124dc4fee278fdcbd38c102d88881f5e9d28709a9800801ca05c6af344089e8931c77e3327be18ee3e458e32126c3ad52913697418cec7b2e6a025f399457fe8c8a4dc31b2af1b029c2a60c646aa23ecdc73d41b7fd61f040512",
      "networkId": 0,
      "chainId": 0
    },
    {
      "hash": "0x602b6474c4db0f6be8437908e08050f0fa1e551581c99be86676ccc276357431",
      "blockHash": "0x2cebacf1cf1964a9fa0dbb2ca2c7cb10e71eb726aeaca843a49fdbe1aa96f6bc",
      "blockNumber": 119431,
      "transactionIndex": 4,
      "confirmations": null,
      "from": "0x1E550f4ecF22cBCb73da4fc090FBf5a5c748b0F1",
      "gasPrice": {
        "_hex": "0xba43b7400"
      },
      "gasLimit": {
        "_hex": "0x5208"
      },
      "to": "0x32Be343B94f860124dC4fEe278FDCBD38C102D88",
      "value": {
        "_hex": "0x15d523c41a708400"
      },
      "nonce": 11,
      "data": "0x",
      "r": "0x73055447a8ee2a2c05330247d8eeecd84ccc1315c5d5990a0f8f7dcbee43bdbc",
      "s": "0x3f45fdcba4ea91393101528fa4ba9b2b2bad0ed815a7223dc4b6f08e54392dc0",
      "v": 27,
      "creates": null,
      "raw": "0xf86c0b850ba43b74008252089432be343b94f860124dc4fee278fdcbd38c102d888815d523c41a708400801ba073055447a8ee2a2c05330247d8eeecd84ccc1315c5d5990a0f8f7dcbee43bdbca03f45fdcba4ea91393101528fa4ba9b2b2bad0ed815a7223dc4b6f08e54392dc0",
      "networkId": 0,
      "chainId": 0
    },
    {
      "hash": "0xadff79a9caccf9333825a28f848ecdb2a7292c55da2528d2544bc6e1a2528b92",
      "blockHash": "0x2cebacf1cf1964a9fa0dbb2ca2c7cb10e71eb726aeaca843a49fdbe1aa96f6bc",
      "blockNumber": 119431,
      "transactionIndex": 5,
      "confirmations": null,
      "from": "0x689DACb52e18F08d8DFCDd62415c7776aEd8fB89",
      "gasPrice": {
        "_hex": "0xba43b7400"
      },
      "gasLimit": {
        "_hex": "0x5208"
      },
      "to": "0x32Be343B94f860124dC4fEe278FDCBD38C102D88",
      "value": {
        "_hex": "0xb83adb77fbcc000"
      },
      "nonce": 2,
      "data": "0x",
      "r": "0xa38fd2408484a085e74b327793b382f9869c8fdda1013450bf6b68dc7f632a09",
      "s": "0x5ea3624663bd2760ee90627e36a1919126e2c9520ea0e3220b94bf984e9f732e",
      "v": 27,
      "creates": null,
      "raw": "0xf86c02850ba43b74008252089432be343b94f860124dc4fee278fdcbd38c102d88880b83adb77fbcc000801ba0a38fd2408484a085e74b327793b382f9869c8fdda1013450bf6b68dc7f632a09a05ea3624663bd2760ee90627e36a1919126e2c9520ea0e3220b94bf984e9f732e",
      "networkId": 0,
      "chainId": 0
    },
    {
      "hash": "0x5c5da99e3636a11e87bb4eee7c1c600f89e22c31513434967e41137beae532ed",
      "blockHash": "0x2cebacf1cf1964a9fa0dbb2ca2c7cb10e71eb726aeaca843a49fdbe1aa96f6bc",
      "blockNumber": 119431,
      "transactionIndex": 6,
      "confirmations": null,
      "from": "0xad74C8133300eB63De8d69A384B1E8CcFe28DED7",
      "gasPrice": {
        "_hex": "0xba43b7400"
      },
      "gasLimit": {
        "_hex": "0x5208"
      },
      "to": "0x32Be343B94f860124dC4fEe278FDCBD38C102D88",
      "value": {
        "_hex": "0x1a3d98aff144e800"
      },
      "nonce": 10,
      "data": "0x",
      "r": "0x95ac3b11e2dfc0cef4568a3a73462ca9de324bcb247aed017fe149a8df32185d",
      "s": "0x5ff2dc916bcd33e31fa46097715851c916570a5f4184b988477a6bab5294340b",
      "v": 27,
      "creates": null,
      "raw": "0xf86c0a850ba43b74008252089432be343b94f860124dc4fee278fdcbd38c102d88881a3d98aff144e800801ba095ac3b11e2dfc0cef4568a3a73462ca9de324bcb247aed017fe149a8df32185da05ff2dc916bcd33e31fa46097715851c916570a5f4184b988477a6bab5294340b",
      "networkId": 0,
      "chainId": 0
    }
  ]
}