{
  "hash": "0xd0e837469f440b9b15ebcea36f4ddfb6c46056dbeef55bf5dcca42bf23613931",
  "parentHash": "0x471bb378be81d5131856b3b5fdbbd3f2aa94161d59d21da8b4745a00a947ac94",
  "number": 64786,
  "timestamp": 1439226229,
  "nonce": "0x5b022f8b1bde3b48",
  "difficulty": 1894960028594,
  "gasLimit": {
    "_hex": "0x2fefd8"
  },
  "gasUsed": {
    "_hex": "0xf618"
  },
  "miner": "0x0Cb6EEF179Ba9E7036f95bEEB01e250ab85A8c88",
  "extraData": "0x476574682f76312e302e312f77696e646f77732f676f312e342e32",
  "transactions": [
    {
      "hash": "0x0e9eae405842b25cc96ab1bacfed385fd40e2d7f7293430f3418973f88579911",
      "blockHash": "0xd0e837469f440b9b15ebcea36f4ddfb6c46056dbeef55bf5dcca42bf23613931",
      "blockNumber": 64786,
      "transactionIndex": 0,
      "confirmations": null,
      "from": "0xD96719eF8eFF64F6e84Fd03120014834F4E76c40",
      "gasPrice": {
        "_hex": "0xd8e7a78d8"
      },
      "gasLimit": {
        "_hex": "0x5208"
      },
      "to": "0x32Be343B94f860124dC4fEe278FDCBD38C102D88",
      "value": {
        "_hex": "0x4f5487901fb7e40000"
      },
      "nonce": 2,
      "data": "0x",
      "r": "0x7b37811e7f2a7f482dac3e6ff90df6a3c405f36fcdb14069dba7f39359afa96f",
      "s": "0x0061cd231be95ec2e4112186b4033fce68b70b7d82c218d0c27ece146df31924",
      "v": 28,
      "creates": null,
      "raw": "0xf86c02850d8e7a78d88252089432be343b94f860124dc4fee278fdcbd38c102d88894f5487901fb7e40000801ca07b37811e7f2a7f482dac3e6ff90df6a3c405f36fcdb14069dba7f39359afa96f9f61cd231be95ec2e4112186b4033fce68b70b7d82c218d0c27ece146df31924",
      "networkId": 0,
      "chainId": 0
    },
    {
      "hash": "0xebb4332023c291d5b37bc67066299aaa305dbde2289d038a7dd02a5c89812fea",
      "blockHash": "0xd0e837469f440b9b15ebcea36f4ddfb6c46056dbeef55bf5dcca42bf23613931",
      "blockNumber": 64786,
      "transactionIndex": 1,
      "confirmations": null,
      "from": "0x6F50D31A32b78d330e5F84519d041F9376F6765D",
      "gasPrice": {
        "_hex": "0xba43b7400"
      },
      "gasLimit": {
        "_hex": "0x5208"
      },
      "to": "0xffAdF482D806BBb6adA61Eea870862a234F0E7E2",
      "value": {
        "_hex": "0x1072bbac261c000"
      },
      "nonce": 1,
      "data": "0x",
      "r": "0xc19c0b1066e0b30f99234121155c9ca86e092df2e5508335068d284ce045bbcd",
      "s": "0x5658dbd6b05ebc275f965b40e463a5555cd2c3b127a0c8ce3a5c7345f4bf9da4",
      "v": 27,
      "creates": null,
      "raw": "0xf86c01850ba43b740082520894ffadf482d806bbb6ada61eea870862a234f0e7e28801072bbac261c000801ba0c19c0b1066e0b30f99234121155c9ca86e092df2e5508335068d284ce045bbcda05658dbd6b05ebc275f965b40e463a5555cd2c3b127a0c8ce3a5c7345f4bf9da4",
      "networkId": 0,
      "chainId": 0
    },
    {
      "hash": "0xbbfd482479c347263b7a638f64c7d2d37801c3ca043b581b660a13d796d67738",
      "blockHash": "0xd0e837469f440b9b15ebcea36f4ddfb6c46056dbeef55bf5dcca42bf23613931",
      "blockNumber": 64786,
      "transactionIndex": 2,
      "confirmations": null,
      "from": "0x605502D11bEff3679B2287C3678daDC02B3a9aE2",
      "gasPrice": {
        "_hex": "0xba43b7400"
      },
      "gasLimit": {
        "_hex": "0x5208"
      },
      "to": "0x89472C5d1e5CA8356a96f6C9EBaB8a7C539cc1a8",
      "value": {
        "_hex": "0x13572147582a000"
      },
      "nonce": 1,
      "data": "0x",
      "r": "0x71a5b5b558ff4e87534a8dd168b272abc58ca58216dac1755a2bb360f47ff70f",
      "s": "0x6fa4f5f1cd057b5bc96fd8af4db9af190793c0eda381d6563cdaa304c025aac0",
      "v": 27,
      "creates": null,
      "raw": "0xf86c01850ba43b74008252089489472c5d1e5ca8356a96f6c9ebab8a7c539cc1a888013572147582a000801ba071a5b5b558ff4e87534a8dd168b272abc58ca58216dac1755a2bb360f47ff70fa06fa4f5f1cd057b5bc96fd8af4db9af190793c0eda381d6563cdaa304c025aac0",
      "networkId": 0,
      "chainId": 0
    }
  ]
}