{
  "hash": "0xca6c7d2570d13d748719fd791441883422a851e0f4047d356f19e95df9ffaa18",
  "parentHash": "0x18fa2b8dc6204c602fa52dbdeaf56a92fffd64529d374615eb627448dd3c7937",
  "number": 97885,
  "timestamp": 1439763499,
  "nonce": "0x2ef3fd1fe5a7ea74",
  "difficulty": 3840879248692,
  "gasLimit": {
    "_hex": "0x2fefd8"
  },
  "gasUsed": {
    "_hex": "0x5208"
  },
  "miner": "0x580992B51e3925e23280EfB93d3047C82f17E038",
  "extraData": "0x476574682f76312e302e312f6c696e75782f676f312e342e32",
  "transactions": [
    {
      "hash": "0x15426a8142e2f8e21079caec6c3f30097a2265808810bd179ba0fe2fb7a4cd9a",
      "blockHash": "0xca6c7d2570d13d748719fd791441883422a851e0f4047d356f19e95df9ffaa18",
      "blockNumber": 97885,
      "transactionIndex": 0,
      "confirmations": null,
      "from": "0x32Be343B94f860124dC4fEe278FDCBD38C102D88",
      "gasPrice": {
        "_hex": "0xd13fb8957"
      },
      "gasLimit": {
        "_hex": "0x5208"
      },
      "to": "0xE5218078310e2faf46454929401f9B7f2603297E",
      "value": {
        "_hex": "0x22af9051fb7df0000"
      },
      "nonce": 1031,
      "data": "0x",
      "r": "0x6acd5e1befbab4b26ab15c51cad2a5b30a06675f27bc6c50f2bc03fa246c04ee",
      "s": "0x6cd90fe6173c711b49aecafbcb499fd671f2d412298a932e0f7a448f693ab96a",
      "v": 27,
      "creates": null,
      "raw": "0xf86f820407850d13fb895782520894e5218078310e2faf46454929401f9b7f2603297e89022af9051fb7df0000801ba06acd5e1befbab4b26ab15c51cad2a5b30a06675f27bc6c50f2bc03fa246c04eea06cd90fe6173c711b49aecafbcb499fd671f2d412298a932e0f7a448f693ab96a",
      "networkId": 0,
      "chainId": 0
    }
  ]
}