{
  "hash": "0x6d3839b712474f80ecf3b835c21985762c870ba360df047165a08e80bfd65406",
  "parentHash": "0x0c2b22ba9a4924c740d94a6865b19a0c6dd4a1a7945c20e5a4b8974f0d9db31e",
  "number": 55040,
  "timestamp": 1439064489,
  "nonce": "0xe27617bf83ff6606",
  "difficulty": 1621145477392,
  "gasLimit": {
    "_hex": "0x2fefd8"
  },
  "gasUsed": {
    "_hex": "0x5208"
  },
  "miner": "0x863b7d048A0B7bfc239AF19F6A736E0995fB1C73",
  "extraData": "0x476574682f76312e302e312f6c696e75782f676f312e342e32",
  "transactions": [
    {
      "hash": "0x6e893d2e108f5434ecfaba1a9b61397afd2743dcba7de9ba92fa6ed496d15208",
      "blockHash": "0x6d3839b712474f80ecf3b835c21985762c870ba360df047165a08e80bfd65406",
      "blockNumber": 55040,
      "transactionIndex": 0,
      "confirmations": null,
      "from": "0x6463F715d594A1A4aCe4bb9c3B288A74dEcf294D",
      "gasPrice": {
        "_hex": "0xd651435ca"
      },
      "gasLimit": {
        "_hex": "0x15f90"
      },
      "to": "0x9B2c46642CAF6B936dc0633da521f1E946B7e18F",
      "value": {
        "_hex": "0xde0b6b3a7640000"
      },
      "nonce": 0,
      "data": "0x",
      "r": "0x131e7bac9ad944b3d24f1dbfaa68e714bff0f2b560df8088aa0c69103d51bd4f",
      "s": "0x3f0e14e57b05e4f381095c89377a5d394d40d16bd2ed8c4f3a890fec565d598e",
      "v": 27,
      "creates": null,
      "raw": "0xf86d80850d651435ca83015f90949b2c46642caf6b936dc0633da521f1e946b7e18f880de0b6b3a7640000801ba0131e7bac9ad944b3d24f1dbfaa68e714bff0f2b560df8088aa0c69103d51bd4fa03f0e14e57b05e4f381095c89377a5d394d40d16bd2ed8c4f3a890fec565d598e",
      "networkId": 0,
      "chainId": 0
    }
  ]
}