{
  "hash": "0x298ac3300e99423645788717831b8415879207e6ecd496783d4b263505e72806",
  "parentHash": "0x4dda7aa81d9510e1d924d7d48308fcf2b9362008bdeb33fa8431dc958f5a190d",
  "number": 103573,
  "timestamp": 1439855468,
  "nonce": "0xc94a6599834eaabf",
  "difficulty": 4207295874192,
  "gasLimit": {
    "_hex": "0x2fefd8"
  },
  "gasUsed": {
    "_hex": "0x5208"
  },
  "miner": "0xee5379D0c1ca47327368027455074C26D9952628",
  "extraData": "0x476574682f76312e302e312d38326566323666362f6c696e75782f676f312e34",
  "transactions": [
    {
      "hash": "0xe83db682d2320ee7fb30875d65c446971a0f4179890d3b190f4ccf47ace27927",
      "blockHash": "0x298ac3300e99423645788717831b8415879207e6ecd496783d4b263505e72806",
      "blockNumber": 103573,
      "transactionIndex": 0,
      "confirmations": null,
      "from": "0x120A270bbC009644e35F0bB6ab13f95b8199c4ad",
      "gasPrice": {
        "_hex": "0xcb13157da"
      },
      "gasLimit": {
        "_hex": "0x3d090"
      },
      "to": "0xCA092A957744f6385B1aee5dC694143E8A06F805",
      "value": {
        "_hex": "0x8c23d3aacb17800"
      },
      "nonce": 724,
      "data": "0x",
      "r": "0x37ce45cd59110f2016f7803954626a18d35bccb843e6fc1f44b38ddc4ec1d485",
      "s": "0x6a88ac4e7cf57a83557b30e93abbb4c6fd37c15b96669eb539d391798abda833",
      "v": 27,
      "creates": null,
      "raw": "0xf86f8202d4850cb13157da8303d09094ca092a957744f6385b1aee5dc694143e8a06f8058808c23d3aacb17800801ba037ce45cd59110f2016f7803954626a18d35bccb843e6fc1f44b38ddc4ec1d485a06a88ac4e7cf57a83557b30e93abbb4c6fd37c15b96669eb539d391798abda833",
      "networkId": 0,
      "chainId": 0
    }
  ]
}