{
  "hash": "0xf44fd3746a69971d7af440a7a78ac3f397eafbbb6901ad4816e7f13c83db7f9e",
  "parentHash": "0xc2936cf60c123fdd6df9fd5cee3b66f4a8504ef81935e07fffd48a989f62706b",
  "number": 116528,
  "timestamp": 1440088867,
  "nonce": "0x2cb2afbdee456232",
  "difficulty": 4557702914779,
  "gasLimit": {
    "_hex": "0x2fefd8"
  },
  "gasUsed": {
    "_hex": "0x57288"
  },
  "miner": "0xe6A7a1d47ff21B6321162AEA7C6CB457D5476Bca",
  "extraData": "0xd783010002844765746887676f312e342e32856c696e7578",
  "transactions": [
    {
      "hash": "0x1bbcfcc98b265fd241abe63e772df741e7b0a130b2647993964d2223aced8ac2",
      "blockHash": "0xf44fd3746a69971d7af440a7a78ac3f397eafbbb6901ad4816e7f13c83db7f9e",
      "blockNumber": 116528,
      "transactionIndex": 0,
      "confirmations": null,
      "from": "0x60f7C29656Fc491e766750556fE4F0E407f81eB5",
      "gasPrice": {
        "_hex": "0xdb927f3fe"
      },
      "gasLimit": {
        "_hex": "0x15f90"
      },
      "to": "0x5773DFFDd4AD3114CAB6eFE3b9Ca703Fa450Fe40",
      "value": {
        "_hex": "0x2386f26fc10000"
      },
      "nonce": 17,
      "data": "0x",
      "r": "0x235e666437096b214d4871b248aa1f701780837af28b98639e9d09fede19a444",
      "s": "0x0742ec39c1fe28e681f058cdc84ce2c5694889266ae7d7c3b95d4ae22173b7c4",
      "v": 27,
      "creates": null,
      "raw": "0xf86c11850db927f3fe83015f90945773dffdd4ad3114cab6efe3b9ca703fa450fe40872386f26fc10000801ba0235e666437096b214d4871b248aa1f701780837af28b98639e9d09fede19a444a00742ec39c1fe28e681f058cdc84ce2c5694889266ae7d7c3b95d4ae22173b7c4",
      "networkId": 0,
      "chainId": 0
    },
    {
      "hash": "0xde5e1aa260c30c3f4259aab49dd75a72df12510d7f84685bfbaa66f77020af85",
      "blockHash": "0xf44fd3746a69971d7af440a7a78ac3f397eafbbb6901ad4816e7f13c83db7f9e",
      "blockNumber": 116528,
      "transactionIndex": 1,
      "confirmations": null,
      "from": "0x120A270bbC009644e35F0bB6ab13f95b8199c4ad",
      "gasPrice": {
        "_hex": "0xd3bff069a"
      },
      "gasLimit": {
        "_hex": "0x3d090"
      },
      "to": "0xf4d9a6bdB61cA0316FEf11F642bFc8ed00301125",
      "value": {
        "_hex": "0x1236efcbcbb340000"
      },
      "nonce": 946,
      "data": "0x",
      "r": "0x6a02a011a8471bc20e6aa9d00214d1f6c670ef3d76823413657e4fce55225744",
      "s": "0x3e9f01cead31140555932cfea8ee370b4f5cc41d8820d77bec5d2095ee82ec6b",
      "v": 28,
      "creates": null,
      "raw": "0xf8708203b2850d3bff069a8303d09094f4d9a6bdb61ca0316fef11f642bfc8ed003011258901236efcbcbb340000801ca06a02a011a8471bc20e6aa9d00214d1f6c670ef3d76823413657e4fce55225744a03e9f01cead31140555932cfea8ee370b4f5cc41d8820d77bec5d2095ee82ec6b",
      "networkId": 0,
      "chainId": 0
    },
    {
      "hash": "0xe347828a4d62085a571bf9bc37efca663adee0bf47e153a6d4eb3a78ea80c492",
      "blockHash": "0xf44fd3746a69971d7af440a7a78ac3f397eafbbb6901ad4816e7f13c83db7f9e",
      "blockNumber": 116528,
      "transactionIndex": 2,
      "confirmations": null,
      "from": "0x120A270bbC009644e35F0bB6ab13f95b8199c4ad",
      "gasPrice": {
        "_hex": "0xd2ec45305"
      },
      "gasLimit": {
        "_hex": "0x3d090"
      },
      "to": "0xFFD5Ec8B69B8f1F40Bb9E6C26406F08A2db1e59C",
      "value": {
        "_hex": "0xad78ebc5ac6200000"
      },
      "nonce": 947,
      "data": "0x",
      "r": "0x906fd7937cdf100ac98b39ff77aec97b17523c7a98a44ad4549edfd5bff11f37",
      "s": "0x586ddd88576bd9ff0fda804251567a9f2b3a0c285ffdf0e4dbd2bdad780826d2",
      "v": 27,
      "creates": null,
      "raw": "0xf8708203b3850d2ec453058303d09094ffd5ec8b69b8f1f40bb9e6c26406f08a2db1e59c890ad78ebc5ac6200000801ba0906fd7937cdf100ac98b39ff77aec97b17523c7a98a44ad4549edfd5bff11f37a0586ddd88576bd9ff0fda804251567a9f2b3a0c285ffdf0e4dbd2bdad780826d2",
      "networkId": 0,
      "chainId": 0
    },
    {
      "hash": "0xcc9c857414a0b524f3593b5c27000adffa1943d411173d60f03388df01e235dc",
      "blockHash": "0xf44fd3746a69971d7af440a7a78ac3f397eafbbb6901ad4816e7f13c83db7f9e",
      "blockNumber": 116528,
      "transactionIndex": 3,
      "confirmations": null,
      "from": "0x120A270bbC009644e35F0bB6ab13f95b8199c4ad",
      "gasPrice": {
        "_hex": "0xd9a0c2e58"
      },
      "gasLimit": {
        "_hex": "0x3d090"
      },
      "to": "0x80E03eAb4185068f85f9eC2a65c31bdE6Ed0A097",
      "value": {
        "_hex": "0x4563918244f400000"
      },
      "nonce": 948,
      "data": "0x",
      "r": "0x9706e38d0ca714c8bf45bf1a99b61d4abbcb1ff4f0ef9233834c217bc48a654e",
      "s": "0x2c11d112f91c18f3ed1c5a9ad3c995b0625fefd6533784137bc61e35e2106122",
      "v": 28,
      "creates": null,
      "raw": "0xf8708203b4850d9a0c2e588303d0909480e03eab4185068f85f9ec2a65c31bde6ed0a0978904563918244f400000801ca09706e38d0ca714c8bf45bf1a99b61d4abbcb1ff4f0ef9233834c217bc48a654ea02c11d112f91c18f3ed1c5a9ad3c995b0625fefd6533784137bc61e35e2106122",
      "networkId": 0,
      "chainId": 0
    },
    {
      "hash": "0xf0627263dc85de2b7bacca32b64f13aa8e7ecac509768c29411eb22d62a1136b",
      "blockHash": "0xf44fd3746a69971d7af440a7a78ac3f397eafbbb6901ad4816e7f13c83db7f9e",
      "blockNumber": 116528,
      "transactionIndex": 4,
      "confirmations": null,
      "from": "0x120A270bbC009644e35F0bB6ab13f95b8199c4ad",
      "gasPrice": {
        "_hex": "0xd9a0c2e58"
      },
      "gasLimit": {
        "_hex": "0x3d090"
      },
      "to": "0x78e9620B1DB726C61eEd97a5531329c6fDaa265d",
      "value": {
        "_hex": "0x21f4ca573570a64400"
      },
      "nonce": 949,
      "data": "0x",
      "r": "0x07347f080eaa4c3a7dccfd34ddb9ee18538bddca8912bb16767f24b5776fce27",
      "s": "0x088f407c8672d5836fed9cc82b922f084a489d31e17219f3220fa298298e41cc",
      "v": 27,
      "creates": null,
      "raw": "0xf8708203b5850d9a0c2e588303d0909478e9620b1db726c61eed97a5531329c6fdaa265d8921f4ca573570a64400801ba007347f080eaa4c3a7dccfd34ddb9ee18538bddca8912bb16767f24b5776fce27a0088f407c8672d5836fed9cc82b922f084a489d31e17219f3220fa298298e41cc",
      "networkId": 0,
      "chainId": 0
    },
    {
      "hash": "0x277420f5385d825223b476715bd6a96d8ef7e4f7a4f0fae071f46d3b81147671",
      "blockHash": "0xf44fd3746a69971d7af440a7a78ac3f397eafbbb6901ad4816e7f13c83db7f9e",
      "blockNumber": 116528,
      "transactionIndex": 5,
      "confirmations": null,
      "from": "0x120A270bbC009644e35F0bB6ab13f95b8199c4ad",
      "gasPrice": {
        "_hex": "0xd4d6526f8"
      },
      "gasLimit": {
        "_hex": "0x3d090"
      },
      "to": "0x78e9620B1DB726C61eEd97a5531329c6fDaa265d",
      "value": {
        "_hex": "0x22977fa6b404dc5800"
      },
      "nonce": 950,
      "data": "0x",
      "r": "0x1c0dfb8daaf85a26701c01464cf6704b165235eb314e6c3b1e03f079cee11b47",
      "s": "0x2c7f5e35c4f44547b1ffcea12fccc081313cd151edd24a31a62e74bf8eacdaae",
      "v": 28,
      "creates": null,
      "raw": "0xf8708203b6850d4d6526f88303d0909478e9620b1db726c61eed97a5531329c6fdaa265d8922977fa6b404dc5800801ca01c0dfb8daaf85a26701c01464cf6704b165235eb314e6c3b1e03f079cee11b47a02c7f5e35c4f44547b1ffcea12fccc081313cd151edd24a31a62e74bf8eacdaae",
      "networkId": 0,
      "chainId": 0
    },
    {
      "hash": "0x0dd54dd6be1116f4daf74c75b973348bd88d3ddc62eb8bcac8d1ba1a8973aee2",
      "blockHash": "0xf44fd3746a69971d7af440a7a78ac3f397eafbbb6901ad4816e7f13c83db7f9e",
      "blockNumber": 116528,
      "transactionIndex": 6,
      "confirmations": null,
      "from": "0x120A270bbC009644e35F0bB6ab13f95b8199c4ad",
      "gasPrice": {
        "_hex": "0xd4d6526f8"
      },
      "gasLimit": {
        "_hex": "0x3d090"
      },
      "to": "0x80a2A362F7328959F956E06121ae770b07144F5F",
      "value": {
        "_hex": "0x22977fa6b404dc5800"
      },
      "nonce": 951,
      "data": "0x",
      "r": "0xf3a790d0f4efce30f9d6a4361fe2d86d6e6cf4a70dc6f4d917b8e8bd875a6bed",
      "s": "0x1b167ccb699c4c1cfd5785a61f852aeefc76f8c725d35ea417379eac7646d096",
      "v": 28,
      "creates": null,
      "raw": "0xf8708203b7850d4d6526f88303d0909480a2a362f7328959f956e06121ae770b07144f5f8922977fa6b404dc5800801ca0f3a790d0f4efce30f9d6a4361fe2d86d6e6cf4a70dc6f4d917b8e8bd875a6beda01b167ccb699c4c1cfd5785a61f852aeefc76f8c725d35ea417379eac7646d096",
      "networkId": 0,
      "chainId": 0
    },
    {
      "hash": "0x1344602ceb8b7ca70181c60b3fad9d34f535c8ba22c6beb65b77eacc42e68f89",
      "blockHash": "0xf44fd3746a69971d7af440a7a78ac3f397eafbbb6901ad4816e7f13c83db7f9e",
      "blockNumber": 116528,
      "transactionIndex": 7,
      "confirmations": null,
      "from": "0x120A270bbC009644e35F0bB6ab13f95b8199c4ad",
      "gasPrice": {
        "_hex": "0xdab46464d"
      },
      "gasLimit": {
        "_hex": "0x3d090"
      },
      "to": "0x147aF46ae9Ccd18Bb35cA01b353b51990E49DcE1",
      "value": {
        "_hex": "0xeffb41b91b2f6f000"
      },
      "nonce": 952,
      "data": "0x",
      "r": "0x14e83ce75fcb33b46d109a483fa7bf7b031ae234b17e2a913cdd8be772023b09",
      "s": "0x4ffa3240112824e266487f74deddad5580b3c9dc679cecc53f91e26ef1e8c106",
      "v": 28,
      "creates": null,
      "raw": "0xf8708203b8850dab46464d8303d09094147af46ae9ccd18bb35ca01b353b51990e49dce1890effb41b91b2f6f000801ca014e83ce75fcb33b46d109a483fa7bf7b031ae234b17e2a913cdd8be772023b09a04ffa3240112824e266487f74deddad5580b3c9dc679cecc53f91e26ef1e8c106",
      "networkId": 0,
      "chainId": 0
    },
    {
      "hash": "0x2afba9ae7b45b13448ed04e2c6029d9fbba46aabf15aee4582b597307d1a35c6",
      "blockHash": "0xf44fd3746a69971d7af440a7a78ac3f397eafbbb6901ad4816e7f13c83db7f9e",
      "blockNumber": 116528,
      "transactionIndex": 8,
      "confirmations": null,
      "from": "0x120A270bbC009644e35F0bB6ab13f95b8199c4ad",
      "gasPrice": {
        "_hex": "0xdab46464d"
      },
      "gasLimit": {
        "_hex": "0x3d090"
      },
      "to": "0x80a2A362F7328959F956E06121ae770b07144F5F",
      "value": {
        "_hex": "0x2399b42f37c3ce9000"
      },
      "nonce": 953,
      "data": "0x",
      "r": "0xcfabe8acd1bf23b413d4b590587f44633254e76aa89ed32b1095f9a45a9fc3e5",
      "s": "0x25f703a54f48943eae48286dc1e56a5455bd26c8ed805b935228712252f133bf",
      "v": 27,
      "creates": null,
      "raw": "0xf8708203b9850dab46464d8303d0909480a2a362f7328959f956e06121ae770b07144f5f892399b42f37c3ce9000801ba0cfabe8acd1bf23b413d4b590587f44633254e76aa89ed32b1095f9a45a9fc3e5a025f703a54f48943eae48286dc1e56a5455bd26c8ed805b935228712252f133bf",
      "networkId": 0,
      "chainId": 0
    },
    {
      "hash": "0x72e17b1e64e6fd2533ef49004de88abccb91357325924cc71a653fbf67c8f8ea",
      "blockHash": "0xf44fd3746a69971d7af440a7a78ac3f397eafbbb6901ad4816e7f13c83db7f9e",
      "blockNumber": 116528,
      "transactionIndex": 9,
      "confirmations": null,
      "from": "0x120A270bbC009644e35F0bB6ab13f95b8199c4ad",
      "gasPrice": {
        "_hex": "0xdab46464d"
      },
      "gasLimit": {
        "_hex": "0x3d090"
      },
      "to": "0x78e9620B1DB726C61eEd97a5531329c6fDaa265d",
      "value": {
        "_hex": "0x23544f217c510f1800"
      },
      "nonce": 954,
      "data": "0x",
      "r": "0x26c7f2da78d1c10ced21b9f1cc91083f48371a69048b24cde0e48cdf9a854ec0",
      "s": "0x652c0147f6f6c97319ce4d49691e70066564e14a82bd5911891275189ae46b75",
      "v": 28,
      "creates": null,
      "raw": "0xf8708203ba850dab46464d8303d0909478e9620b1db726c61eed97a5531329c6fdaa265d8923544f217c510f1800801ca026c7f2da78d1c10ced21b9f1cc91083f48371a69048b24cde0e48cdf9a854ec0a0652c0147f6f6c97319ce4d49691e70066564e14a82bd5911891275189ae46b75",
      "networkId": 0,
      "chainId": 0
    },
    {
      "hash": "0x7fb045decf1bd4cdeab10700bb1a4ea195edebbf095d701466aea42228ae2ac6",
      "blockHash": "0xf44fd3746a69971d7af440a7a78ac3f397eafbbb6901ad4816e7f13c83db7f9e",
      "blockNumber": 116528,
      "transactionIndex": 10,
      "confirmations": null,
      "from": "0x32Be343B94f860124dC4fEe278FDCBD38C102D88",
      "gasPrice": {
        "_hex": "0xd8c210515"
      },
      "gasLimit": {
        "_hex": "0x5208"
      },
      "to": "0x3D31A7CdbF1B9952C1c4d567b97c54fc354E6A7B",
      "value": {
        "_hex": "0x1156abf16a40f0000"
      },
      "nonce": 1474,
      "data": "0x",
      "r": "0x8a6aac926c59797307ab8a10ff7331e8e88d1c908ffdda3afd55cc7f27abb2ab",
      "s": "0x0a297d01ba8f3cbda9364cf3827b584950459a23db2a42440c83c2407dc595e5",
      "v": 27,
      "creates": null,
      "raw": "0xf86f8205c2850d8c210515825208943d31a7cdbf1b9952c1c4d567b97c54fc354e6a7b8901156abf16a40f0000801ba08a6aac926c59797307ab8a10ff7331e8e88d1c908ffdda3afd55cc7f27abb2aba00a297d01ba8f3cbda9364cf3827b584950459a23db2a42440c83c2407dc595e5",
      "networkId": 0,
      "chainId": 0
    },
    {
      "hash": "0x34e9c28168c0728e3625107d9de01d9b7ce4c35dcfd616c7980d45021219cff5",
      "blockHash": "0xf44fd3746a69971d7af440a7a78ac3f397eafbbb6901ad4816e7f13c83db7f9e",
      "blockNumber": 116528,
      "transactionIndex": 11,
      "confirmations": null,
      "from": "0x60f7C29656Fc491e766750556fE4F0E407f81eB5",
      "gasPrice": {
        "_hex": "0xd6ee5e22d"
      },
      "gasLimit": {
        "_hex": "0x15f90"
      },
      "to": "0x5773DFFDd4AD3114CAB6eFE3b9Ca703Fa450Fe40",
      "value": {
        "_hex": "0x2386f26fc10000"
      },
      "nonce": 18,
      "data": "0x",
      "r": "0xfe0872c42f44a55fcfe1c79e8a4cf39ba6539b7ced2bf1fea95eeb5fe4e05cd9",
      "s": "0x0eed4fad486bc0eb01912cff90c50d4be1742b4e034b483d5474b2d594dbdbfc",
      "v": 28,
      "creates": null,
      "raw": "0xf86c12850d6ee5e22d83015f90945773dffdd4ad3114cab6efe3b9ca703fa450fe40872386f26fc10000801ca0fe0872c42f44a55fcfe1c79e8a4cf39ba6539b7ced2bf1fea95eeb5fe4e05cd9a00eed4fad486bc0eb01912cff90c50d4be1742b4e034b483d5474b2d594dbdbfc",
      "networkId": 0,
      "chainId": 0
    },
    {
      "hash": "0x87362fb68cca94333eb3a35a1d1a6e4ba26b77d584412d83abd2c5b8e09d8a50",
      "blockHash": "0xf44fd3746a69971d7af440a7a78ac3f397eafbbb6901ad4816e7f13c83db7f9e",
      "blockNumber": 116528,
      "transactionIndex": 12,
      "confirmations": null,
      "from": "0x60f7C29656Fc491e766750556fE4F0E407f81eB5",
      "gasPrice": {
        "_hex": "0xd6ee5e22d"
      },
      "gasLimit": {
        "_hex": "0x15f90"
      },
      "to": "0x5773DFFDd4AD3114CAB6eFE3b9Ca703Fa450Fe40",
      "value": {
        "_hex": "0x2386f26fc10000"
      },
      "nonce": 19,
      "data": "0x",
      "r": "0xb2c8b4c588ce830cfcc9cf425aa19698f20a968ab169ee1cd8c3549e70808e25",
      "s": "0x34685ea8817a82091b3a8f64ef5c3f2e77c23f5f9c23c282941eeb0930b78fb8",
      "v": 28,
      "creates": null,
      "raw": "0xf86c13850d6ee5e22d83015f90945773dffdd4ad3114cab6efe3b9ca703fa450fe40872386f26fc10000801ca0b2c8b4c588ce830cfcc9cf425aa19698f20a968ab169ee1cd8c3549e70808e25a034685ea8817a82091b3a8f64ef5c3f2e77c23f5f9c23c282941eeb0930b78fb8",
      "networkId": 0,
      "chainId": 0
    },
    {
      "hash": "0xb2b43525035d5280d6dbe42650168ed399715483dcaf92963876072043626b30",
      "blockHash": "0xf44fd3746a69971d7af440a7a78ac3f397eafbbb6901ad4816e7f13c83db7f9e",
      "blockNumber": 116528,
      "transactionIndex": 13,
      "confirmations": null,
      "from": "0x9b0a028EAfDeCdE3AFc0fD00B7937098388b7C8a",
      "gasPrice": {
        "_hex": "0xd45571a8b"
      },
      "gasLimit": {
        "_hex": "0x15f90"
      },
      "to": "0xe340fe5D4a4b3a905a34cAAB0be95f7177E24D3c",
      "value": {
        "_hex": "0x2386f26fc10000"
      },
      "nonce": 0,
      "data": "0x",
      "r": "0x57589e2b43939ed1f3a3467e8156ddbd5cfa4693e8fbe39f804be9c7dad3607d",
      "s": "0x6d29159c614c674eadb24898330b099f7a64043c1aacd542c48c9afff777fd6f",
      "v": 27,
      "creates": null,
      "raw": "0xf86c80850d45571a8b83015f9094e340fe5d4a4b3a905a34caab0be95f7177e24d3c872386f26fc10000801ba057589e2b43939ed1f3a3467e8156ddbd5cfa4693e8fbe39f804be9c7dad3607da06d29159c614c674eadb24898330b099f7a64043c1aacd542c48c9afff777fd6f",
      "networkId": 0,
      "chainId": 0
    },
    {
      "hash": "0xa43a35cb0a0026aad9c16a5e79c02367073ec0d455c6b1520abd0b2d4eae634f",
      "blockHash": "0xf44fd3746a69971d7af440a7a78ac3f397eafbbb6901ad4816e7f13c83db7f9e",
      "blockNumber": 116528,
      "transactionIndex": 14,
      "confirmations": null,
      "from": "0x120A270bbC009644e35F0bB6ab13f95b8199c4ad",
      "gasPrice": {
        "_hex": "0xd2c8ad64b"
      },
      "gasLimit": {
        "_hex": "0x3d090"
      },
      "to": "0xFFD5Ec8B69B8f1F40Bb9E6C26406F08A2db1e59C",
      "value": {
        "_hex": "0x15af1d78b58c400000"
      },
      "nonce": 955,
      "data": "0x",
      "r": "0x9ab9ca8254bb4f8c8fcdc805a6ed6926159fe9543d097ca7bcd37f398dcf522d",
      "s": "0x30ea9bb6968ba9663b2e46d3a9584a415dbae312a891cbc876af723f1d54d9d8",
      "v": 27,
      "creates": null,
      "raw": "0xf8708203bb850d2c8ad64b8303d09094ffd5ec8b69b8f1f40bb9e6c26406f08a2db1e59c8915af1d78b58c400000801ba09ab9ca8254bb4f8c8fcdc805a6ed6926159fe9543d097ca7bcd37f398dcf522da030ea9bb6968ba9663b2e46d3a9584a415dbae312a891cbc876af723f1d54d9d8",
      "networkId": 0,
      "chainId": 0
    },
    {
      "hash": "0x221a70c9172c901a43d1e3f6f2d8f54a2d010c5c9eb773352fd8483f63955f8a",
      "blockHash": "0xf44fd3746a69971d7af440a7a78ac3f397eafbbb6901ad4816e7f13c83db7f9e",
      "blockNumber": 116528,
      "transactionIndex": 15,
      "confirmations": null,
      "from": "0x60f7C29656Fc491e766750556fE4F0E407f81eB5",
      "gasPrice": {
        "_hex": "0xd07adf91b"
      },
      "gasLimit": {
        "_hex": "0x15f90"
      },
      "to": "0x5773DFFDd4AD3114CAB6eFE3b9Ca703Fa450Fe40",
      "value": {
        "_hex": "0x2386f26fc10000"
      },
      "nonce": 20,
      "data": "0x",
      "r": "0x0f27194ee25aa8bafc770daf0249a9acb115e2bde357af6ef03dae6bde239401",
      "s": "0x04bdb35a93dadddb0e5da4492b4af223241b3b1456f686a851da7f0f72ef009a",
      "v": 27,
      "creates": null,
      "raw": "0xf86c14850d07adf91b83015f90945773dffdd4ad3114cab6efe3b9ca703fa450fe40872386f26fc10000801ba00f27194ee25aa8bafc770daf0249a9acb115e2bde357af6ef03dae6bde239401a004bdb35a93dadddb0e5da4492b4af223241b3b1456f686a851da7f0f72ef009a",
      "networkId": 0,
      "chainId": 0
    },
    {
      "hash": "0xbd052c8ec690773ea94eaf9aa998dc31542a2d577cfa39e529b9a25e31801fdd",
      "blockHash": "0xf44fd3746a69971d7af440a7a78ac3f397eafbbb6901ad4816e7f13c83db7f9e",
      "blockNumber": 116528,
      "transactionIndex": 16,
      "confirmations": null,
      "from": "0x32Be343B94f860124dC4fEe278FDCBD38C102D88",
      "gasPrice": {
        "_hex": "0xcd24edc5d"
      },
      "gasLimit": {
        "_hex": "0x5208"
      },
      "to": "0x41c043029b0D13183C40Ffaafb3951Dc79eCA200",
      "value": {
        "_hex": "0x362bef4088e0180000"
      },
      "nonce": 1475,
      "data": "0x",
      "r": "0x5e1bcffa5d25432083073a1f808874a15d1a7d79fb94221be1bba17f8cc3da31",
      "s": "0x2ea9698b9dbc1f1ad2f8877b9a12df32c22de040bc8510d6224d616ab392ee99",
      "v": 27,
      "creates": null,
      "raw": "0xf86f8205c3850cd24edc5d8252089441c043029b0d13183c40ffaafb3951dc79eca20089362bef4088e0180000801ba05e1bcffa5d25432083073a1f808874a15d1a7d79fb94221be1bba17f8cc3da31a02ea9698b9dbc1f1ad2f8877b9a12df32c22de040bc8510d6224d616ab392ee99",
      "networkId": 0,
      "chainId": 0
    }
  ]
}