{
  "hash": "0x39bb683e33ae02fca92a03124ae98360ea6e840b34b7a954a63b1b665e4709c8",
  "parentHash": "0x3d88f2c1c81bf7a98574b40fc05038cc51e989215a5e446d38254c90ad0c2f63",
  "number": 104221,
  "timestamp": 1439866229,
  "nonce": "0xc443f4fa6fb307db",
  "difficulty": 4281575331234,
  "gasLimit": {
    "_hex": "0x2fefd8"
  },
  "gasUsed": {
    "_hex": "0x5208"
  },
  "miner": "0x15dE68788d01B2504DF8621cB4721c54eD543305",
  "extraData": "0x476574682f76312e302e312d38326566323666362f6c696e75782f676f312e34",
  "transactions": [
    {
      "hash": "0x8d95f7922a4cc3033e62e4fb784ad4733a86fef2ac9c82b2000a733ba489f1ee",
      "blockHash": "0x39bb683e33ae02fca92a03124ae98360ea6e840b34b7a954a63b1b665e4709c8",
      "blockNumber": 104221,
      "transactionIndex": 0,
      "confirmations": null,
      "from": "0x7147dFfD3d08ad00917cFEa2b60188439944990b",
      "gasPrice": {
        "_hex": "0xcf7d5daa1"
      },
      "gasLimit": {
        "_hex": "0x5208"
      },
      "to": "0x32Be343B94f860124dC4fEe278FDCBD38C102D88",
      "value": {
        "_hex": "0x21e19dca1f055800000"
      },
      "nonce": 3,
      "data": "0x",
      "r": "0x46bb987bd1beb555cdb47cefdf558b6b4c54326b2376e9f4c834a02ae47086dc",
      "s": "0x673945348f6bf3bb9efb41d5a1b6d729467622fd8889d174bb166d5fed198e73",
      "v": 28,
      "creates": null,
      "raw": "0xf86e03850cf7d5daa18252089432be343b94f860124dc4fee278fdcbd38c102d888a021e19dca1f055800000801ca046bb987bd1beb555cdb47cefdf558b6b4c54326b2376e9f4c834a02ae47086dca0673945348f6bf3bb9efb41d5a1b6d729467622fd8889d174bb166d5fed198e73",
      "networkId": 0,
      "chainId": 0
    }
  ]
}