{
  "hash": "0xf3bbf532344e43f88b05998d9454e318e1d6e40ca8a74448c39e357a49ac1904",
  "parentHash": "0x3c8f1ac5a4a615e96608a79418f90945eb5c9eedae9defac202ef3f26bdb9c03",
  "number": 61801,
  "timestamp": 1439178352,
  "nonce": "0xa72277254091f9c3",
  "difficulty": 1736985664752,
  "gasLimit": {
    "_hex": "0x2fefd5"
  },
  "gasUsed": {
    "_hex": "0x5208"
  },
  "miner": "0x02020D22dCF88f5eDd66B382D7da019F161fB7e3",
  "extraData": "0x",
  "transactions": [
    {
      "hash": "0xd9c019621202199df990a39b4a3bd665b4ac1076cab681a02b0d1e13e978981d",
      "blockHash": "0xf3bbf532344e43f88b05998d9454e318e1d6e40ca8a74448c39e357a49ac1904",
      "blockNumber": 61801,
      "transactionIndex": 0,
      "confirmations": null,
      "from": "0xE8009c3376fDA2ecA359d5bf683ee5C4D877cde5",
      "gasPrice": {
        "_hex": "0xcf3085f25"
      },
      "gasLimit": {
        "_hex": "0x5208"
      },
      "to": "0x32Be343B94f860124dC4fEe278FDCBD38C102D88",
      "value": {
        "_hex": "0xb1605820b669000"
      },
      "nonce": 0,
      "data": "0x",
      "r": "0xd39d4b8c89d890bbcd4a3a88b4a1748e573bb05dda1778f754c17f69b58f3a65",
      "s": "0x06400cdccb90404f873a19c97e995ab1927bddd0bfb44c4770b9a5fabd7b80d4",
      "v": 28,
      "creates": null,
      "raw": "0xf86c80850cf3085f258252089432be343b94f860124dc4fee278fdcbd38c102d88880b1605820b669000801ca0d39d4b8c89d890bbcd4a3a88b4a1748e573bb05dda1778f754c17f69b58f3a65a006400cdccb90404f873a19c97e995ab1927bddd0bfb44c4770b9a5fabd7b80d4",
      "networkId": 0,
      "chainId": 0
    }
  ]
}