{
  "hash": "0xe2208606ee40467ad30623b731d7d630fbca9c5319df7352cc3a30d3e9f1a496",
  "parentHash": "0x2a5b373283f25bd4bd482c7f2c78a80f9a23384f7f712e39d1fdcde9ef5ebf27",
  "number": 119178,
  "timestamp": 1440138074,
  "nonce": "0xb23e26fa78866ede",
  "difficulty": 4429038556855,
  "gasLimit": {
    "_hex": "0x2fefd8"
  },
  "gasUsed": {
    "_hex": "0x5208"
  },
  "miner": "0xa70a9a7040d542C632D8e0bE7c5513A8a5Bbc752",
  "extraData": "0x",
  "transactions": [
    {
      "hash": "0x4d6bba742e34569859c837bd3eeef3655321d27d084899f68497cedeb93f78d1",
      "blockHash": "0xe2208606ee40467ad30623b731d7d630fbca9c5319df7352cc3a30d3e9f1a496",
      "blockNumber": 119178,
      "transactionIndex": 0,
      "confirmations": null,
      "from": "0x608f4b86321a68453f9adf6F06F7Fc3E621739ad",
      "gasPrice": {
        "_hex": "0xba43b7400"
      },
      "gasLimit": {
        "_hex": "0x5208"
      },
      "to": "0x32Be343B94f860124dC4fEe278FDCBD38C102D88",
      "value": {
        "_hex": "0x4567c05b65c21400"
      },
      "nonce": 23,
      "data": "0x",
      "r": "0xafa746595a7f0874127aae04d6a50d5c8e38d82cf0e052a4bb296573de0ac2a9",
      "s": "0x412d9692f357c75bca271b1e601f7b5f1195f20a7a62540fd18fc381240f9c3d",
      "v": 27,
      "creates": null,
      "raw": "0xf86c17850ba43b74008252089432be343b94f860124dc4fee278fdcbd38c102d88884567c05b65c21400801ba0afa746595a7f0874127aae04d6a50d5c8e38d82cf0e052a4bb296573de0ac2a9a0412d9692f357c75bca271b1e601f7b5f1195f20a7a62540fd18fc381240f9c3d",
      "networkId": 0,
      "chainId": 0
    }
  ]
}