{
  "hash": "0x1d04fdd1c60e2dd0599235ba13dd0c894fa76407fc5c55093bef69b7b54be4ea",
  "parentHash": "0x21951a6b10b8035b6aa556927f98256efb9c50096b58a31f233071facb298a10",
  "number": 93178,
  "timestamp": 1439684349,
  "nonce": "0x48a9940b035b3fac",
  "difficulty": 3604912796280,
  "gasLimit": {
    "_hex": "0x2fefd8"
  },
  "gasUsed": {
    "_hex": "0xafa7"
  },
  "miner": "0xf8E0CA3Ed80bd541b94BEdCf259e8CF2141A9523",
  "extraData": "0x476574682f76312e302e312f77696e646f77732f676f312e342e32",
  "transactions": [
    {
      "hash": "0xd26c522089944f9190af6e32d78b9c942cb467b4967e69a38d689f674be338f0",
      "blockHash": "0x1d04fdd1c60e2dd0599235ba13dd0c894fa76407fc5c55093bef69b7b54be4ea",
      "blockNumber": 93178,
      "transactionIndex": 0,
      "confirmations": null,
      "from": "0xc15fa6D616245a5c7B7D75A6dFDcA10C0250BD2B",
      "gasPrice": {
        "_hex": "0xdeb1cc852"
      },
      "gasLimit": {
        "_hex": "0x15f90"
      },
      "to": "0xdeE4977F74E6Aef6D627191c9A45D2627e331150",
      "value": {
        "_hex": "0xd02ab486cedc0000"
      },
      "nonce": 6,
      "data": "0x",
      "r": "0x8bc09d30363aa3076fc565da5cf604798df750b5847f380fae96e6cdcc2d9381",
      "s": "0x6deba9c1b7950f41d7aad04309ffa8c934b375f00d8ce0b0ff5cda34134e3da3",
      "v": 27,
      "creates": null,
      "raw": "0xf86d06850deb1cc85283015f9094dee4977f74e6aef6d627191c9a45d2627e33115088d02ab486cedc0000801ba08bc09d30363aa3076fc565da5cf604798df750b5847f380fae96e6cdcc2d9381a06deba9c1b7950f41d7aad04309ffa8c934b375f00d8ce0b0ff5cda34134e3da3",
      "networkId": 0,
      "chainId": 0
    },
    {
      "hash": "0xda2faa04ed4623b350f8da7d8d1fa5e89f4a5437063cb61fc0d45ffb539f0dbc",
      "blockHash": "0x1d04fdd1c60e2dd0599235ba13dd0c894fa76407fc5c55093bef69b7b54be4ea",
      "blockNumber": 93178,
      "transactionIndex": 1,
      "confirmations": null,
      "from": "0x02020D22dCF88f5eDd66B382D7da019F161fB7e3",
      "gasPrice": {
        "_hex": "0xdd6d21e50"
      },
      "gasLimit": {
        "_hex": "0x15f90"
      },
      "to": "0xCAc7000C7dBaa2E33Af15325AF5D435E011C7BdD",
      "value": {
        "_hex": "0x56bc75e2d63100000"
      },
      "nonce": 20,
      "data": "0xb214faa5384e53354b355737410000000000000000000000000000000000000000000000",
      "r": "0x5a423e34bf049993f7992b39f9d22eeba1f6c27cc7c5ef20156e9a4988380844",
      "s": "0x3f200b8f7ad1a5e8cc77c2afee891b081850eda2e001948831f75a81ec6b88e7",
      "v": 27,
      "creates": null,
      "raw": "0xf89214850dd6d21e5083015f9094cac7000c7dbaa2e33af15325af5d435e011c7bdd89056bc75e2d63100000a4b214faa5384e53354b3557374100000000000000000000000000000000000000000000001ba05a423e34bf049993f7992b39f9d22eeba1f6c27cc7c5ef20156e9a4988380844a03f200b8f7ad1a5e8cc77c2afee891b081850eda2e001948831f75a81ec6b88e7",
      "networkId": 0,
      "chainId": 0
    }
  ]
}