{
  "hash": "0xab9237d58a57ee2d21f368547c046b412a896989c5316c18a5cc840cc7f34833",
  "parentHash": "0x2a796d13524314365301f6d3882eb92bfb94da4e1043d37a04aab8a26aad0474",
  "number": 113388,
  "timestamp": 1440022641,
  "nonce": "0x72724d13adf7072d",
  "difficulty": 4471222295866,
  "gasLimit": {
    "_hex": "0x2fefd8"
  },
  "gasUsed": {
    "_hex": "0x14820"
  },
  "miner": "0x56A1018A2F565672E98f4cB657cEB8059ff3E5a2",
  "extraData": "0x476574682f76312e302e312f77696e646f77732f676f312e342e32",
  "transactions": [
    {
      "hash": "0x900ed425fe7d7ed66db9bc1682f6d85aef3b7e34d3a51db17c9b02c40b5fe846",
      "blockHash": "0xab9237d58a57ee2d21f368547c046b412a896989c5316c18a5cc840cc7f34833",
      "blockNumber": 113388,
      "transactionIndex": 0,
      "confirmations": null,
      "from": "0x237b555850BE6BFf53a0698146371a2F5890A030",
      "gasPrice": {
        "_hex": "0xd77e1661d"
      },
      "gasLimit": {
        "_hex": "0x5208"
      },
      "to": "0x32Be343B94f860124dC4fEe278FDCBD38C102D88",
      "value": {
        "_hex": "0x1af64407e7b7f400"
      },
      "nonce": 6,
      "data": "0x",
      "r": "0x72491dc6bb5beabf97ec9f51fe40a4c51f5bbc402850e1faab66b3a1c5f85ca5",
      "s": "0x603f5fe2615a504ac84cdda393a4b47d03f4fa88c0fb12e5d10911b2f2757e21",
      "v": 27,
      "creates": null,
      "raw": "0xf86c06850d77e1661d8252089432be343b94f860124dc4fee278fdcbd38c102d88881af64407e7b7f400801ba072491dc6bb5beabf97ec9f51fe40a4c51f5bbc402850e1faab66b3a1c5f85ca5a0603f5fe2615a504ac84cdda393a4b47d03f4fa88c0fb12e5d10911b2f2757e21",
      "networkId": 0,
      "chainId": 0
    },
    {
      "hash": "0xc8d39a0e3612264f4fcfe22925e520b265dec3978ef832022f79f75b56f1c428",
      "blockHash": "0xab9237d58a57ee2d21f368547c046b412a896989c5316c18a5cc840cc7f34833",
      "blockNumber": 113388,
      "transactionIndex": 1,
      "confirmations": null,
      "from": "0xE12517204a15E890f12755207271102F4800A0c4",
      "gasPrice": {
        "_hex": "0xd53553aff"
      },
      "gasLimit": {
        "_hex": "0x5208"
      },
      "to": "0x32Be343B94f860124dC4fEe278FDCBD38C102D88",
      "value": {
        "_hex": "0xfca4c084b8618000"
      },
      "nonce": 19,
      "data": "0x",
      "r": "0x353b29fedbb27e991360cf6c36ee40a65ff79424a140b5cbc15487e6dab732b0",
      "s": "0x3270923a452e455e1b57f6c4853f5acc29ff8679087a6122715802a398b2721f",
      "v": 28,
      "creates": null,
      "raw": "0xf86c13850d53553aff8252089432be343b94f860124dc4fee278fdcbd38c102d8888fca4c084b8618000801ca0353b29fedbb27e991360cf6c36ee40a65ff79424a140b5cbc15487e6dab732b0a03270923a452e455e1b57f6c4853f5acc29ff8679087a6122715802a398b2721f",
      "networkId": 0,
      "chainId": 0
    },
    {
      "hash": "0xc05cca32111ed3af30f2bcd5aa3cef03e590d911b7fe06ae96c6b1d00dcae6f5",
      "blockHash": "0xab9237d58a57ee2d21f368547c046b412a896989c5316c18a5cc840cc7f34833",
      "blockNumber": 113388,
      "transactionIndex": 2,
      "confirmations": null,
      "from": "0xad74C8133300eB63De8d69A384B1E8CcFe28DED7",
      "gasPrice": {
        "_hex": "0xd53553aff"
      },
      "gasLimit": {
        "_hex": "0x5208"
      },
      "to": "0x32Be343B94f860124dC4fEe278FDCBD38C102D88",
      "value": {
        "_hex": "0x9659c81bb869000"
      },
      "nonce": 9,
      "data": "0x",
      "r": "0xa98ca9e04cb3601e574ee492259c5bdd3a1976432b9b00ecb5fde10bdfe87872",
      "s": "0x5b834ce58aa1f6f8a4c9c19034a8c90c9999cc621ba967d56db6a9337642f442",
      "v": 27,
      "creates": null,
      "raw": "0xf86c09850d53553aff8252089432be343b94f860124dc4fee278fdcbd38c102d888809659c81bb869000801ba0a98ca9e04cb3601e574ee492259c5bdd3a1976432b9b00ecb5fde10bdfe87872a05b834ce58aa1f6f8a4c9c19034a8c90c9999cc621ba967d56db6a9337642f442",
      "networkId": 0,
      "chainId": 0
    },
    {
      "hash": "0x7affbc0734e7104d2274547f87c84b6acfab69613c230de53fae4aaee252c322",
      "blockHash": "0xab9237d58a57ee2d21f368547c046b412a896989c5316c18a5cc840cc7f34833",
      "blockNumber": 113388,
      "transactionIndex": 3,
      "confirmations": null,
      "from": "0xE6D67E3661E28eE2DfC1c68D5DeeA3C3bB880059",
      "gasPrice": {
        "_hex": "0xd33b5ba60"
      },
      "gasLimit": {
        "_hex": "0x5208"
      },
      "to": "0x32Be343B94f860124dC4fEe278FDCBD38C102D88",
      "value": {
        "_hex": "0x6d422b6701456800"
      },
      "nonce": 11,
      "data": "0x",
      "r": "0xc5eeb2a3fac142a1cd08ab843b8d1f50ad4289eac788217fb519de92d014cff9",
      "s": "0x56c1b24437e9facf2573c057b4039babcd445873e8f440d5117dbae517ea118b",
      "v": 28,
      "creates": null,
      "raw": "0xf86c0b850d33b5ba608252089432be343b94f860124dc4fee278fdcbd38c102d88886d422b6701456800801ca0c5eeb2a3fac142a1cd08ab843b8d1f50ad4289eac788217fb519de92d014cff9a056c1b24437e9facf2573c057b4039babcd445873e8f440d5117dbae517ea118b",
      "networkId": 0,
      "chainId": 0
    }
  ]
}