{
  "hash": "0x4da91babe6cf03aa7419555e4d1c62f66f7cfdc9ddefcdbde42839c5c07d2ecd",
  "parentHash": "0xa8213eda2645a029232fb2e6ea66ee59a9c0e7acbe76f43d9a21721ecc5f48d1",
  "number": 57428,
  "timestamp": 1439103202,
  "nonce": "0x07238453ab89cbf6",
  "difficulty": 1742139478208,
  "gasLimit": {
    "_hex": "0x2fefd8"
  },
  "gasUsed": {
    "_hex": "0x5208"
  },
  "miner": "0xeB1325C8D9d3ea8D74aC11F4B00F1B2367686319",
  "extraData": "0x476574682f76312e302e312f77696e646f77732f676f312e342e32",
  "transactions": [
    {
      "hash": "0x698b889abb678fd16ff56dad84fa145ae9fe4249b132dd3fe24b0ad2e0b64668",
      "blockHash": "0x4da91babe6cf03aa7419555e4d1c62f66f7cfdc9ddefcdbde42839c5c07d2ecd",
      "blockNumber": 57428,
      "transactionIndex": 0,
      "confirmations": null,
      "from": "0xa8a97ab562BC801a2C5f47b58ED0f7b0C3076a1c",
      "gasPrice": {
        "_hex": "0x48c27395000"
      },
      "gasLimit": {
        "_hex": "0x5b04"
      },
      "to": "0xF0224ea727d4924A8dd69a8d2d473Cc4c3590423",
      "value": {
        "_hex": "0x3c48199c5f1a60000"
      },
      "nonce": 6,
      "data": "0x",
      "r": "0xa1ba1069355f47438dba90d8be236b84a5e957485db71472a54af75279d31c7e",
      "s": "0x54f000b95d92ca7b432928be294d77ee563816c08f49dc76d4b7317fc84bfbcd",
      "v": 28,
      "creates": null,
      "raw": "0xf86e0686048c27395000825b0494f0224ea727d4924a8dd69a8d2d473cc4c35904238903c48199c5f1a60000801ca0a1ba1069355f47438dba90d8be236b84a5e957485db71472a54af75279d31c7ea054f000b95d92ca7b432928be294d77ee563816c08f49dc76d4b7317fc84bfbcd",
      "networkId": 0,
      "chainId": 0
    }
  ]
}