{
  "hash": "0xc605e41697fb416f78838bca906f324cf62d12f97f071a723edd284476ad5015",
  "parentHash": "0xe61200e4b009e7d642eb99309f5a43a351001f8873f7e4fefe9dd10456493797",
  "number": 103403,
  "timestamp": 1439852833,
  "nonce": "0x35898ffb43882b1b",
  "difficulty": 4162426545348,
  "gasLimit": {
    "_hex": "0x2fefd8"
  },
  "gasUsed": {
    "_hex": "0x5208"
  },
  "miner": "0x77EC9ad4A7E9418774C29415CAaF4Ee0da96eF64",
  "extraData": "0x",
  "transactions": [
    {
      "hash": "0x6f42b83e6bf424b468b4404c0807ee46798cd7b4c3c3f626a3e82f381275e7b5",
      "blockHash": "0xc605e41697fb416f78838bca906f324cf62d12f97f071a723edd284476ad5015",
      "blockNumber": 103403,
      "transactionIndex": 0,
      "confirmations": null,
      "from": "0x120A270bbC009644e35F0bB6ab13f95b8199c4ad",
      "gasPrice": {
        "_hex": "0xd834cf175"
      },
      "gasLimit": {
        "_hex": "0x3d090"
      },
      "to": "0x82B52510444eccC53A32772e7035007A44575251",
      "value": {
        "_hex": "0x2be902146fa2680000"
      },
      "nonce": 718,
      "data": "0x",
      "r": "0x9075590f5faaa9e3bf05a863c730b006ce72a968ac4ebc478b4ebb388b5f6e04",
      "s": "0x7223ee1a240dd3b30d5cee4602f9a8af22122e171ebcc2dcabf6c1132f81f9db",
      "v": 28,
      "creates": null,
      "raw": "0xf8708202ce850d834cf1758303d0909482b52510444eccc53a32772e7035007a44575251892be902146fa2680000801ca09075590f5faaa9e3bf05a863c730b006ce72a968ac4ebc478b4ebb388b5f6e04a07223ee1a240dd3b30d5cee4602f9a8af22122e171ebcc2dcabf6c1132f81f9db",
      "networkId": 0,
      "chainId": 0
    }
  ]
}