{
  "hash": "0xc4877ca34f0187127cdef22f7fc0232372347e0ccf1c1492a7e34a07cf7259d8",
  "parentHash": "0x60ca8da26dfeebd742ba895c13822948f2c029279d15a73f3f77496accaecc12",
  "number": 57532,
  "timestamp": 1439105157,
  "nonce": "0x4d130cf72d6169d9",
  "difficulty": 1731940004059,
  "gasLimit": {
    "_hex": "0x2fefd8"
  },
  "gasUsed": {
    "_hex": "0x5208"
  },
  "miner": "0x9746c7e1ef2bd21FF3997fa467593a89cb852BD0",
  "extraData": "0x476574682f76312e302e312f77696e646f77732f676f312e342e32",
  "transactions": [
    {
      "hash": "0xbbd39a0ac27542e878d61c61a7e264b31272f0b092f07bcf259f91249d2b4f8f",
      "blockHash": "0xc4877ca34f0187127cdef22f7fc0232372347e0ccf1c1492a7e34a07cf7259d8",
      "blockNumber": 57532,
      "transactionIndex": 0,
      "confirmations": null,
      "from": "0x293C2306Df3604Ae4FdA0D207aBa736f67dE0792",
      "gasPrice": {
        "_hex": "0xdca48b4cb"
      },
      "gasLimit": {
        "_hex": "0x15f90"
      },
      "to": "0x4b557E8B2E795c96dc0234C3267325B083253926",
      "value": {
        "_hex": "0x1d69b08c257714400"
      },
      "nonce": 3,
      "data": "0x",
      "r": "0x4ea0d3574a94b77d453aaa2dcc35ed94cb4009a5d6d3f4cce9bb98d74418abc1",
      "s": "0x0f0dc78e4ae402653cfcbc3aba3283f425baaf58687210ee87a69413fcc05afc",
      "v": 28,
      "creates": null,
      "raw": "0xf86e03850dca48b4cb83015f90944b557e8b2e795c96dc0234c3267325b0832539268901d69b08c257714400801ca04ea0d3574a94b77d453aaa2dcc35ed94cb4009a5d6d3f4cce9bb98d74418abc1a00f0dc78e4ae402653cfcbc3aba3283f425baaf58687210ee87a69413fcc05afc",
      "networkId": 0,
      "chainId": 0
    }
  ]
}