{
  "hash": "0x1a9caa845317b94a178e64d7b86753cff8e3ed90d80b8a8a672cd3c057ca7707",
  "parentHash": "0xf2640ac69fe2567671d2edfd6fa3b2bf8edbcb7b22de28d89259418a3dac828e",
  "number": 51363,
  "timestamp": 1439003629,
  "nonce": "0x2aee1a9a27c088f3",
  "difficulty": 1571189589912,
  "gasLimit": {
    "_hex": "0xa81a6"
  },
  "gasUsed": {
    "_hex": "0xa8d8"
  },
  "miner": "0xf8E0CA3Ed80bd541b94BEdCf259e8CF2141A9523",
  "extraData": "0x476574682f76312e302e312f77696e646f77732f676f312e342e32",
  "transactions": [
    {
      "hash": "0xd46c7ba80d51b25a33307190e09c953db20cd6c5a28f354f47fa146491a71ab5",
      "blockHash": "0x1a9caa845317b94a178e64d7b86753cff8e3ed90d80b8a8a672cd3c057ca7707",
      "blockNumber": 51363,
      "transactionIndex": 0,
      "confirmations": null,
      "from": "0x34BDAF0a5ed72734a4c4c6CE6Cc8132EC81fb2a8",
      "gasPrice": {
        "_hex": "0xdb2816147"
      },
      "gasLimit": {
        "_hex": "0x61a8"
      },
      "to": "0x46018d9a643A0d10FE11a8e0CDe17c4367f1dBd7",
      "value": {
        "_hex": "0xde0b6b3a7640000"
      },
      "nonce": 0,
      "data": "0x454e37465148485647",
      "r": "0x602ba8f82542d42677dd99443356e5c3ce60d6cca024fa9f53bb61aa8aa9e8ea",
      "s": "0x273e91f5306dae29aed956104fb56baab1d61376523ac36ad151dc079b77ea01",
      "v": 27,
      "creates": null,
      "raw": "0xf87580850db28161478261a89446018d9a643a0d10fe11a8e0cde17c4367f1dbd7880de0b6b3a764000089454e374651484856471ba0602ba8f82542d42677dd99443356e5c3ce60d6cca024fa9f53bb61aa8aa9e8eaa0273e91f5306dae29aed956104fb56baab1d61376523ac36ad151dc079b77ea01",
      "networkId": 0,
      "chainId": 0
    },
    {
      "hash": "0x9f15074ff20a1e0cbe3d5fa522c52ff3cd64fd34cc116cb7b170df270a8a7202",
      "blockHash": "0x1a9caa845317b94a178e64d7b86753cff8e3ed90d80b8a8a672cd3c057ca7707",
      "blockNumber": 51363,
      "transactionIndex": 1,
      "confirmations": null,
      "from": "0xBAD4425E171c3e72975eB46ac0A015DB315a5D8f",
      "gasPrice": {
        "_hex": "0xd7d40ace3"
      },
      "gasLimit": {
        "_hex": "0x15f90"
      },
      "to": "0x1c7214DE5162a5606CF124ed3A8c3556b1899804",
      "value": {
        "_hex": "0xad78ebc5ac6200000"
      },
      "nonce": 2,
      "data": "0x454e433933464b3330",
      "r": "0x0c6eb8f569ceb34f66164130198b70e5a8b0d048d94dcb9021543ca0a74ee710",
      "s": "0x137e5dd53ec60b560e641a44aa3de21dde1d4be4f47c11c5a414b5605d3b6599",
      "v": 27,
      "creates": null,
      "raw": "0xf87702850d7d40ace383015f90941c7214de5162a5606cf124ed3a8c3556b1899804890ad78ebc5ac620000089454e433933464b33301ba00c6eb8f569ceb34f66164130198b70e5a8b0d048d94dcb9021543ca0a74ee710a0137e5dd53ec60b560e641a44aa3de21dde1d4be4f47c11c5a414b5605d3b6599",
      "networkId": 0,
      "chainId": 0
    }
  ]
}