{
  "hash": "0xff0fac5dcf0bc93d6ed2e35b870bd4ac5c162cc919fcf1b2ca1e9d6a94fbdc2d",
  "parentHash": "0xda0a689148151763107aba7ccee60abd6869e95f013195dc1083945eebbdd74a",
  "number": 74138,
  "timestamp": 1439381028,
  "nonce": "0x7134a105d917b885",
  "difficulty": 2234681110322,
  "gasLimit": {
    "_hex": "0x2fefd8"
  },
  "gasUsed": {
    "_hex": "0x5208"
  },
  "miner": "0xf927a40C8B7F6E07c5af7FA2155B4864a4112B13",
  "extraData": "0x",
  "transactions": [
    {
      "hash": "0xf967c0609a5b8d319395c054c53d99bea119eeb06e84f5aade6dc72c7c643e22",
      "blockHash": "0xff0fac5dcf0bc93d6ed2e35b870bd4ac5c162cc919fcf1b2ca1e9d6a94fbdc2d",
      "blockNumber": 74138,
      "transactionIndex": 0,
      "confirmations": null,
      "from": "0xA2Cb067D1B3038eEe446d994440C0ae9cf1abfdF",
      "gasPrice": {
        "_hex": "0xd7d40ace3"
      },
      "gasLimit": {
        "_hex": "0x7530"
      },
      "to": "0x6De181Fc4C140FA31F196e5393516c49EEeBdAd3",
      "value": {
        "_hex": "0x402f4cfee62e80000"
      },
      "nonce": 3,
      "data": "0x",
      "r": "0x6b027dada04034c2dc0ac5b7b25bce719de76e072b8aa01315c603c432e064f1",
      "s": "0x621f3e9642ee1bc969dc7d8c9f57e7e295a2c17edce021bf095fe7814427aa5b",
      "v": 27,
      "creates": null,
      "raw": "0xf86d03850d7d40ace3827530946de181fc4c140fa31f196e5393516c49eeebdad3890402f4cfee62e80000801ba06b027dada04034c2dc0ac5b7b25bce719de76e072b8aa01315c603c432e064f1a0621f3e9642ee1bc969dc7d8c9f57e7e295a2c17edce021bf095fe7814427aa5b",
      "networkId": 0,
      "chainId": 0
    }
  ]
}