{
  "hash": "0x1c0ebc2da0bab2bacd4f0420c6a1fdd2135866cb08cda1d3298b5ef477556169",
  "parentHash": "0xfc2b1ade22ba1f27c505f7ed44f3ad6f2c98b2cede56a848b2a7e2d5408b9249",
  "number": 111768,
  "timestamp": 1439995798,
  "nonce": "0x8c81f9a2329298b1",
  "difficulty": 4441619208398,
  "gasLimit": {
    "_hex": "0x2fefd8"
  },
  "gasUsed": {
    "_hex": "0x5208"
  },
  "miner": "0xC8224326e29eD30AEEC1B70ec238A818169ecaBA",
  "extraData": "0xd983010001844765746887676f312e342e328777696e646f7773",
  "transactions": [
    {
      "hash": "0x02890813f2dced85caff0c0ff3d14394d90ecec9e59240e3cef2363c1fe309ab",
      "blockHash": "0x1c0ebc2da0bab2bacd4f0420c6a1fdd2135866cb08cda1d3298b5ef477556169",
      "blockNumber": 111768,
      "transactionIndex": 0,
      "confirmations": null,
      "from": "0x32Be343B94f860124dC4fEe278FDCBD38C102D88",
      "gasPrice": {
        "_hex": "0xd3b9323f9"
      },
      "gasLimit": {
        "_hex": "0x5208"
      },
      "to": "0xf70a874745EB6c31643CB138f28A47bdd65D6db3",
      "value": {
        "_hex": "0x61350a9bddad3800"
      },
      "nonce": 1318,
      "data": "0x",
      "r": "0x7a210116ab102df8c316c455181380b52794d068b280d9e3b9c40c07afba7179",
      "s": "0x2bbd88aa713957dd367d4e08d5c2769430f34d55f7ea703c5624d0f98ab38064",
      "v": 28,
      "creates": null,
      "raw": "0xf86e820526850d3b9323f982520894f70a874745eb6c31643cb138f28a47bdd65d6db38861350a9bddad3800801ca07a210116ab102df8c316c455181380b52794d068b280d9e3b9c40c07afba7179a02bbd88aa713957dd367d4e08d5c2769430f34d55f7ea703c5624d0f98ab38064",
      "networkId": 0,
      "chainId": 0
    }
  ]
}