{
  "hash": "0x29f147ef64ac97329e2c8b817e867e9e76a8c007bf30577a061684b3a06ae40d",
  "parentHash": "0xf8796c2521732eccf5589107b556c9ae997f64e5974e8a46c5d52dc6f47ed75c",
  "number": 100457,
  "timestamp": 1439806843,
  "nonce": "0xf39e0b7c57f40999",
  "difficulty": 3820998944370,
  "gasLimit": {
    "_hex": "0x2fefd8"
  },
  "gasUsed": {
    "_hex": "0x5208"
  },
  "miner": "0xe6A7a1d47ff21B6321162AEA7C6CB457D5476Bca",
  "extraData": "0x476574682f76312e302e312d38326566323666362f6c696e75782f676f312e34",
  "transactions": [
    {
      "hash": "0x5da3f2256e7970e19ecb53ccf07768d626b824985fdd090fcc77cc7d7ecce24d",
      "blockHash": "0x29f147ef64ac97329e2c8b817e867e9e76a8c007bf30577a061684b3a06ae40d",
      "blockNumber": 100457,
      "transactionIndex": 0,
      "confirmations": null,
      "from": "0x5248EfBC7319bd65d436374266765D9727253F12",
      "gasPrice": {
        "_hex": "0xcf858b734"
      },
      "gasLimit": {
        "_hex": "0x5208"
      },
      "to": "0x32Be343B94f860124dC4fEe278FDCBD38C102D88",
      "value": {
        "_hex": "0x2bf640313d22fa000"
      },
      "nonce": 8,
      "data": "0x",
      "r": "0x3fe522fe37de1f508fbd434c636a43a1e95301465e8909f5e61a14414a922010",
      "s": "0x36a688ae8664154ad0c617d262060e592f156bb5defe0743225d1109572ac0fc",
      "v": 27,
      "creates": null,
      "raw": "0xf86d08850cf858b7348252089432be343b94f860124dc4fee278fdcbd38c102d888902bf640313d22fa000801ba03fe522fe37de1f508fbd434c636a43a1e95301465e8909f5e61a14414a922010a036a688ae8664154ad0c617d262060e592f156bb5defe0743225d1109572ac0fc",
      "networkId": 0,
      "chainId": 0
    }
  ]
}