{
  "hash": "0x5a718f08f5d163bf8fb7f2af315f0767200c9d06bb02ec191601c9353478972e",
  "parentHash": "0x9f3d5d456d50a6b78f917ab27185de491be2767c3b2e70ea4b6d91c095ca6767",
  "number": 96040,
  "timestamp": 1439733926,
  "nonce": "0xc347261653a52cb5",
  "difficulty": 3635495687718,
  "gasLimit": {
    "_hex": "0x2fefd8"
  },
  "gasUsed": {
    "_hex": "0xf618"
  },
  "miner": "0x007f7f58D3eb5b7510A301eCC749FC1fCDDBE14D",
  "extraData": "0x476574682f76312e302e312f77696e646f77732f676f312e342e32",
  "transactions": [
    {
      "hash": "0x093d069103a9ddffb0f71605c417800d937cc8262653d0a3e9dd48748a7f66a6",
      "blockHash": "0x5a718f08f5d163bf8fb7f2af315f0767200c9d06bb02ec191601c9353478972e",
      "blockNumber": 96040,
      "transactionIndex": 0,
      "confirmations": null,
      "from": "0x06EC48800B2DB3eEfa052e98A9b5Fc2Bf783Ee74",
      "gasPrice": {
        "_hex": "0xda5384a51"
      },
      "gasLimit": {
        "_hex": "0x5208"
      },
      "to": "0x32Be343B94f860124dC4fEe278FDCBD38C102D88",
      "value": {
        "_hex": "0x191308a1bc714e000"
      },
      "nonce": 15,
      "data": "0x",
      "r": "0x928b9586d175a32abbd21d50ceda84004eff6c14947aaee18bcd460ee4be98c5",
      "s": "0x57f31aa432f6fefbca4daf483f37978638edb21ecc01069e768e1e6c74d0e47f",
      "v": 27,
      "creates": null,
      "raw": "0xf86d0f850da5384a518252089432be343b94f860124dc4fee278fdcbd38c102d88890191308a1bc714e000801ba0928b9586d175a32abbd21d50ceda84004eff6c14947aaee18bcd460ee4be98c5a057f31aa432f6fefbca4daf483f37978638edb21ecc01069e768e1e6c74d0e47f",
      "networkId": 0,
      "chainId": 0
    },
    {
      "hash": "0x733077481e7fc14cc20d6e08d2b4449bdca34ed5950dba80a73d9e6c9c7a3dac",
      "blockHash": "0x5a718f08f5d163bf8fb7f2af315f0767200c9d06bb02ec191601c9353478972e",
      "blockNumber": 96040,
      "transactionIndex": 1,
      "confirmations": null,
      "from": "0x7884D470204862a0d1A21122F41ee77430396Ee5",
      "gasPrice": {
        "_hex": "0xd49d18ee1"
      },
      "gasLimit": {
        "_hex": "0x15f90"
      },
      "to": "0x3FaDe06b661606B07c00e4Bba376e5f943aD43d5",
      "value": {
        "_hex": "0x174876e800"
      },
      "nonce": 4,
      "data": "0x",
      "r": "0x8c7b4b403a066c72ddf487de176f1134f1dea8f43fd700b5f9f9a481f265e0e8",
      "s": "0x28887bdca647455fea3f317fc2383a854ff85729543b2f97fe4c011d4632dfed",
      "v": 28,
      "creates": null,
      "raw": "0xf86a04850d49d18ee183015f90943fade06b661606b07c00e4bba376e5f943ad43d585174876e800801ca08c7b4b403a066c72ddf487de176f1134f1dea8f43fd700b5f9f9a481f265e0e8a028887bdca647455fea3f317fc2383a854ff85729543b2f97fe4c011d4632dfed",
      "networkId": 0,
      "chainId": 0
    },
    {
      "hash": "0x3264e0dcc787535f642377ac3684b0f1291dd17e7d0023151f4538c8c2f0f434",
      "blockHash": "0x5a718f08f5d163bf8fb7f2af315f0767200c9d06bb02ec191601c9353478972e",
      "blockNumber": 96040,
      "transactionIndex": 2,
      "confirmations": null,
      "from": "0x7884D470204862a0d1A21122F41ee77430396Ee5",
      "gasPrice": {
        "_hex": "0xd49d18ee1"
      },
      "gasLimit": {
        "_hex": "0x15f90"
      },
      "to": "0x3FaDe06b661606B07c00e4Bba376e5f943aD43d5",
      "value": {
        "_hex": "0x174876e800"
      },
      "nonce": 5,
      "data": "0x",
      "r": "0xb0d8c94fbbb6a32781fd1e872271f986e9ce250566220d0c843a35bc2e3dc647",
      "s": "0x6809cacae14fdcae27dbd68fa5d1134ec52402217ffbf8ff4262b7467d5efc08",
      "v": 27,
      "creates": null,
      "raw": "0xf86a05850d49d18ee183015f90943fade06b661606b07c00e4bba376e5f943ad43d585174876e800801ba0b0d8c94fbbb6a32781fd1e872271f986e9ce250566220d0c843a35bc2e3dc647a06809cacae14fdcae27dbd68fa5d1134ec52402217ffbf8ff4262b7467d5efc08",
      "networkId": 0,
      "chainId": 0
    }
  ]
}