{
  "hash": "0x267448101d60b04fe3780baaf6f48f44fdf2235d517a82fe853ff7cd0f19be52",
  "parentHash": "0xad24667fdc3f49a30744584be34c760d232ab39e1568404aa2ad72239866efaa",
  "number": 81256,
  "timestamp": 1439498636,
  "nonce": "0x65cd5e0434aed865",
  "difficulty": 2454631323099,
  "gasLimit": {
    "_hex": "0x2fefd8"
  },
  "gasUsed": {
    "_hex": "0x5208"
  },
  "miner": "0xf8E0CA3Ed80bd541b94BEdCf259e8CF2141A9523",
  "extraData": "0x476574682f76312e302e312f77696e646f77732f676f312e342e32",
  "transactions": [
    {
      "hash": "0x13b073f843319a6abddabc1b40c6423a3a9f1faaa5fcf4257dd7095ee5653b6a",
      "blockHash": "0x267448101d60b04fe3780baaf6f48f44fdf2235d517a82fe853ff7cd0f19be52",
      "blockNumber": 81256,
      "transactionIndex": 0,
      "confirmations": null,
      "from": "0x2910543Af39abA0Cd09dBb2D50200b3E800A63D2",
      "gasPrice": {
        "_hex": "0xdda4400d4"
      },
      "gasLimit": {
        "_hex": "0x5208"
      },
      "to": "0x4Ac82886d74f3E99Ca7a67c3D788dB5b361569DF",
      "value": {
        "_hex": "0x46790e04d4cfef8000"
      },
      "nonce": 458,
      "data": "0x",
      "r": "0x6bb143d55c4e34a2e384ef6374f8a59e94e7c08011b0204a08cad339c00dd9ce",
      "s": "0x156d66932163e42fb9051c54072ee6a26914c0f987d105171642d1a788235e31",
      "v": 28,
      "creates": null,
      "raw": "0xf86f8201ca850dda4400d4825208944ac82886d74f3e99ca7a67c3d788db5b361569df8946790e04d4cfef8000801ca06bb143d55c4e34a2e384ef6374f8a59e94e7c08011b0204a08cad339c00dd9cea0156d66932163e42fb9051c54072ee6a26914c0f987d105171642d1a788235e31",
      "networkId": 0,
      "chainId": 0
    }
  ]
}