{
  "hash": "0x6e10e5b7c5fa449a7269508df0a63f050c3267a8e0af75eb2ed405711963ec76",
  "parentHash": "0x636ec53b4be4be3ae07c58369159b22031a5c9da92fc4935cea1be40ad50e5c3",
  "number": 86360,
  "timestamp": 1439577124,
  "nonce": "0xdbf454fda9f7131b",
  "difficulty": 2870811397551,
  "gasLimit": {
    "_hex": "0x2fefd8"
  },
  "gasUsed": {
    "_hex": "0xf618"
  },
  "miner": "0xe6A7a1d47ff21B6321162AEA7C6CB457D5476Bca",
  "extraData": "0x476574682f76312e302e312d38326566323666362f6c696e75782f676f312e34",
  "transactions": [
    {
      "hash": "0x8dfde5dbfe34674b61a5902a896569239674240b7bec5a1d9f51a6b3ef512cf3",
      "blockHash": "0x6e10e5b7c5fa449a7269508df0a63f050c3267a8e0af75eb2ed405711963ec76",
      "blockNumber": 86360,
      "transactionIndex": 0,
      "confirmations": null,
      "from": "0x1308A2e95c0160B90803ddCA9B9a5bb55E416d79",
      "gasPrice": {
        "_hex": "0xe8d4a51000"
      },
      "gasLimit": {
        "_hex": "0x15f90"
      },
      "to": "0x4DD41Fe23f6A246A02528dC2052495a83a8Dd596",
      "value": {
        "_hex": "0x5fb9f53b74700800"
      },
      "nonce": 124,
      "data": "0x",
      "r": "0xe911a3312c68e99482a712ecc4fe177cc601b4d43bdc5adcb02ce271c9bc44a7",
      "s": "0x213793195fb71c9c72687de859f2f3a6fb206d07fe1c0e8ab1dcd152ac7d2a7b",
      "v": 27,
      "creates": null,
      "raw": "0xf86d7c85e8d4a5100083015f90944dd41fe23f6a246a02528dc2052495a83a8dd596885fb9f53b74700800801ba0e911a3312c68e99482a712ecc4fe177cc601b4d43bdc5adcb02ce271c9bc44a7a0213793195fb71c9c72687de859f2f3a6fb206d07fe1c0e8ab1dcd152ac7d2a7b",
      "networkId": 0,
      "chainId": 0
    },
    {
      "hash": "0x508c16e9aae735c38baf9edeff16513b9d74c1d0ca1251c9474bc9a434331457",
      "blockHash": "0x6e10e5b7c5fa449a7269508df0a63f050c3267a8e0af75eb2ed405711963ec76",
      "blockNumber": 86360,
      "transactionIndex": 1,
      "confirmations": null,
      "from": "0x10BD1134A760f6b35247e3cb33673a18bC95a7E7",
      "gasPrice": {
        "_hex": "0xde68f8a10"
      },
      "gasLimit": {
        "_hex": "0x15f90"
      },
      "to": "0x3716217678dcE2eC18FeFfa9D6f5cC9dC52eDe83",
      "value": {
        "_hex": "0xde0b6b3a7640000"
      },
      "nonce": 0,
      "data": "0x",
      "r": "0x295951262aa0b4dcb01e18c01dcf9665189060cce50701809c57f4b4e1e6435d",
      "s": "0x425ba35739c0065053f857c2f3c0f8db55ed4feb033f9d8d23104a072b08c77e",
      "v": 28,
      "creates": null,
      "raw": "0xf86d80850de68f8a1083015f90943716217678dce2ec18feffa9d6f5cc9dc52ede83880de0b6b3a7640000801ca0295951262aa0b4dcb01e18c01dcf9665189060cce50701809c57f4b4e1e6435da0425ba35739c0065053f857c2f3c0f8db55ed4feb033f9d8d23104a072b08c77e",
      "networkId": 0,
      "chainId": 0
    },
    {
      "hash": "0x4f1b8495a6870562f2136336a8ff39431ce32f6de739fcbcfcd203c0bdc72aa7",
      "blockHash": "0x6e10e5b7c5fa449a7269508df0a63f050c3267a8e0af75eb2ed405711963ec76",
      "blockNumber": 86360,
      "transactionIndex": 2,
      "confirmations": null,
      "from": "0x32Be343B94f860124dC4fEe278FDCBD38C102D88",
      "gasPrice": {
        "_hex": "0xccf7dc97b"
      },
      "gasLimit": {
        "_hex": "0x5208"
      },
      "to": "0x4e96216fbC5639aDDa0a18c2f896A18bDE0682EF",
      "value": {
        "_hex": "0x1b8fb07a4bed0000"
      },
      "nonce": 755,
      "data": "0x",
      "r": "0x188f644689d3c6af2ae63acacb055827366e7bd9bde0abfc02680f8739ec9784",
      "s": "0x5c5549486544b56cd1f0a0f160183b5108d5185b87471dec1a5f2cba63bd2017",
      "v": 27,
      "creates": null,
      "raw": "0xf86e8202f3850ccf7dc97b825208944e96216fbc5639adda0a18c2f896a18bde0682ef881b8fb07a4bed0000801ba0188f644689d3c6af2ae63acacb055827366e7bd9bde0abfc02680f8739ec9784a05c5549486544b56cd1f0a0f160183b5108d5185b87471dec1a5f2cba63bd2017",
      "networkId": 0,
      "chainId": 0
    }
  ]
}