{
  "hash": "0x44862dec0cd9be4103ab0afbd296ff15d58981708d12235e93b989af7c515dbb",
  "parentHash": "0x55a5e2347b29f9ddae3859cf3668a8ca2d5353f8eb9953c077056868a94f9a68",
  "number": 100890,
  "timestamp": 1439814024,
  "nonce": "0xa942a2ca79cafcbe",
  "difficulty": 3867728202052,
  "gasLimit": {
    "_hex": "0x2fefd8"
  },
  "gasUsed": {
    "_hex": "0x5208"
  },
  "miner": "0xe6A7a1d47ff21B6321162AEA7C6CB457D5476Bca",
  "extraData": "0x476574682f76312e302e312d38326566323666362f6c696e75782f676f312e34",
  "transactions": [
    {
      "hash": "0x819ae8d9f6dab6886e734ae07c3d35f08f3ad979f2a12c32482ba33c63734973",
      "blockHash": "0x44862dec0cd9be4103ab0afbd296ff15d58981708d12235e93b989af7c515dbb",
      "blockNumber": 100890,
      "transactionIndex": 0,
      "confirmations": null,
      "from": "0x7884D470204862a0d1A21122F41ee77430396Ee5",
      "gasPrice": {
        "_hex": "0xdf4bab225"
      },
      "gasLimit": {
        "_hex": "0x15f90"
      },
      "to": "0xE9f1bbcC9F6d340c67Dac6983ab7fc17051Aa1C2",
      "value": {
        "_hex": "0xd529ae9e860000"
      },
      "nonce": 74,
      "data": "0x",
      "r": "0xbc3c5f3ed7f9a2b466ad7494f80934d3c92600f972ccb38f52af691738a0c4d9",
      "s": "0x400f445845663230df4d2e1aaa28c81ec5ac67d06b13bce558219e488d402364",
      "v": 27,
      "creates": null,
      "raw": "0xf86c4a850df4bab22583015f9094e9f1bbcc9f6d340c67dac6983ab7fc17051aa1c287d529ae9e860000801ba0bc3c5f3ed7f9a2b466ad7494f80934d3c92600f972ccb38f52af691738a0c4d9a0400f445845663230df4d2e1aaa28c81ec5ac67d06b13bce558219e488d402364",
      "networkId": 0,
      "chainId": 0
    }
  ]
}