{
  "hash": "0x16c00d2ef3f631f90ab066038774ac80f34dcbe0dd63495007cb093c91ee5dd3",
  "parentHash": "0xc3b6b5a609ff3213f1ffc08a5648165a820e2694cb28063b79bfe7484fd9ef0d",
  "number": 64918,
  "timestamp": 1439228421,
  "nonce": "0xc9ec44830cff8841",
  "difficulty": 1909792333461,
  "gasLimit": {
    "_hex": "0x2fefd8"
  },
  "gasUsed": {
    "_hex": "0x5208"
  },
  "miner": "0xdB312D1d6A2Ccc64DD94a3892928baC82B4E8C15",
  "extraData": "0x476574682f76312e302e312d65383935333663612f6c696e75782f676f312e34",
  "transactions": [
    {
      "hash": "0xe375f28d3d14d793b46f393e6c1e04d152dfeb79b2fcc432ef8aa93a6c822d1d",
      "blockHash": "0x16c00d2ef3f631f90ab066038774ac80f34dcbe0dd63495007cb093c91ee5dd3",
      "blockNumber": 64918,
      "transactionIndex": 0,
      "confirmations": null,
      "from": "0x7C1C210B584c67C1C1Ade6d59a239e231333C05a",
      "gasPrice": {
        "_hex": "0xba43b7400"
      },
      "gasLimit": {
        "_hex": "0x5208"
      },
      "to": "0xd111200f643C2a52aeedcE9d97B59be575DB1679",
      "value": {
        "_hex": "0x937bda828f9000"
      },
      "nonce": 1,
      "data": "0x",
      "r": "0x5fde02e70d0becc288c506cbc74db9369d0a4b578592288614cdf9ceecc6f32d",
      "s": "0x73243a45abd0e2170b07eb4b9b606939052e3361c0959254057fe5bb6f46c75a",
      "v": 27,
      "creates": null,
      "raw": "0xf86b01850ba43b740082520894d111200f643c2a52aeedce9d97b59be575db167987937bda828f9000801ba05fde02e70d0becc288c506cbc74db9369d0a4b578592288614cdf9ceecc6f32da073243a45abd0e2170b07eb4b9b606939052e3361c0959254057fe5bb6f46c75a",
      "networkId": 0,
      "chainId": 0
    }
  ]
}