{
  "hash": "0x9abfad5b9d0efd5d61d362629bba4717c56cd94e9e4a7136be0f24a646faf762",
  "parentHash": "0xfcd9f3831ac3d9d61a4b3f777884cb1b8605562cdd750e85be2b1dfd6d72828f",
  "number": 57358,
  "timestamp": 1439101818,
  "nonce": "0xc9f8a19a328ab020",
  "difficulty": 1743856169222,
  "gasLimit": {
    "_hex": "0x2fefd8"
  },
  "gasUsed": {
    "_hex": "0x546c"
  },
  "miner": "0x47ff6576639c2e94762eA5443978D7681C0E78DC",
  "extraData": "0x476574682f76312e302e312f6c696e75782f676f312e342e32",
  "transactions": [
    {
      "hash": "0xce57b539202247e842652615acecb581f20662086e58af40d17cbf0ac770e918",
      "blockHash": "0x9abfad5b9d0efd5d61d362629bba4717c56cd94e9e4a7136be0f24a646faf762",
      "blockNumber": 57358,
      "transactionIndex": 0,
      "confirmations": null,
      "from": "0xc6045b3C350b4Ce9cA0c6b754fb41A69B97e9900",
      "gasPrice": {
        "_hex": "0x110c8f7d8de"
      },
      "gasLimit": {
        "_hex": "0xc350"
      },
      "to": "0x2910543Af39abA0Cd09dBb2D50200b3E800A63D2",
      "value": {
        "_hex": "0xde0b6b3a7640000"
      },
      "nonce": 0,
      "data": "0x454e57594650355638",
      "r": "0x5f9c518bc123272b6661884037b81890b9ceb1e19d77113fc170c08e2d7d0e1d",
      "s": "0xd093c469ae1b6361cca67a21e979175be22e643a99c6c0b01f1981cecd1e8bc2",
      "v": 27,
      "creates": null,
      "raw": "0xf87680860110c8f7d8de82c350942910543af39aba0cd09dbb2d50200b3e800a63d2880de0b6b3a764000089454e575946503556381ba05f9c518bc123272b6661884037b81890b9ceb1e19d77113fc170c08e2d7d0e1da0d093c469ae1b6361cca67a21e979175be22e643a99c6c0b01f1981cecd1e8bc2",
      "networkId": 0,
      "chainId": 0
    }
  ]
}