{
  "hash": "0x9001d4ab0264ce00fca76c78e853b077b0e87abf05594c5579f72e6d0cebfe8b",
  "parentHash": "0x325525b3fe7335b20670addbdd9350951be235dfbce4748f201a22516f5aabdb",
  "number": 64229,
  "timestamp": 1439217339,
  "nonce": "0x15042f3b8637608e",
  "difficulty": 1877585795577,
  "gasLimit": {
    "_hex": "0x2fefd8"
  },
  "gasUsed": {
    "_hex": "0x5208"
  },
  "miner": "0x4F85e43F44D2B0e6f57C9355806cE3e1B3F40Ab8",
  "extraData": "0x476574682f76312e302e312f6c696e75782f676f312e342e32",
  "transactions": [
    {
      "hash": "0x254c3c77e2751b24dde2ca09c1bced32f0b862da605a84deb48774d0a751deb7",
      "blockHash": "0x9001d4ab0264ce00fca76c78e853b077b0e87abf05594c5579f72e6d0cebfe8b",
      "blockNumber": 64229,
      "transactionIndex": 0,
      "confirmations": null,
      "from": "0x3F98e477a361F777DA14611a7e419A75Fd238b6b",
      "gasPrice": {
        "_hex": "0xd261193d3"
      },
      "gasLimit": {
        "_hex": "0x15f90"
      },
      "to": "0x097738363B1662599ad0777E19461601F5EC8dF9",
      "value": {
        "_hex": "0x56bc75e2d63100000"
      },
      "nonce": 8,
      "data": "0x",
      "r": "0x86c99db877af30bc35b10385abf5f1597c1fce6d81c77f282e913b34afa88852",
      "s": "0x0f58c87ff572e41735fb998d7c5077b6de57860d3b21b97ed2c677076274729e",
      "v": 27,
      "creates": null,
      "raw": "0xf86e08850d261193d383015f9094097738363b1662599ad0777e19461601f5ec8df989056bc75e2d63100000801ba086c99db877af30bc35b10385abf5f1597c1fce6d81c77f282e913b34afa88852a00f58c87ff572e41735fb998d7c5077b6de57860d3b21b97ed2c677076274729e",
      "networkId": 0,
      "chainId": 0
    }
  ]
}