{
  "hash": "0xa7abcfb4a134624b0287f214c1e0e26b684667176c204476336223f956ace977",
  "parentHash": "0xe87606ff925681837e2f8b0246a78d7bf9e11afd8b385b63af2989b8d40d5651",
  "number": 96658,
  "timestamp": 1439743841,
  "nonce": "0xa5a112b08c2563db",
  "difficulty": 3728710347796,
  "gasLimit": {
    "_hex": "0x2fefd8"
  },
  "gasUsed": {
    "_hex": "0x5208"
  },
  "miner": "0x98f7A0eDF3E25675482cA52480B7e07cA828a4b9",
  "extraData": "0x476574682f76312e302e312f6c696e75782f676f312e342e32",
  "transactions": [
    {
      "hash": "0x8caea25262e995c36d9b443fc8a60e78ddfb1f287c3cb14bd553adeb9323b1d1",
      "blockHash": "0xa7abcfb4a134624b0287f214c1e0e26b684667176c204476336223f956ace977",
      "blockNumber": 96658,
      "transactionIndex": 0,
      "confirmations": null,
      "from": "0xD8d715890BcD74AF7DDb7702aa4048AD25100280",
      "gasPrice": {
        "_hex": "0xba43b7400"
      },
      "gasLimit": {
        "_hex": "0x5208"
      },
      "to": "0xC47Aaa860008be6f65B58c6C6E02a84e666EfE31",
      "value": {
        "_hex": "0x6f90166ecd2038f0"
      },
      "nonce": 0,
      "data": "0x",
      "r": "0x86a8dd79d27a7e8487d93ee4a02ade5aaaa506b0a918ad04c257fc9efd29b8bc",
      "s": "0x56377fe60a45ec7b15f01460e9d6c679293da417156ae567637b5998613857d2",
      "v": 28,
      "creates": null,
      "raw": "0xf86c80850ba43b740082520894c47aaa860008be6f65b58c6c6e02a84e666efe31886f90166ecd2038f0801ca086a8dd79d27a7e8487d93ee4a02ade5aaaa506b0a918ad04c257fc9efd29b8bca056377fe60a45ec7b15f01460e9d6c679293da417156ae567637b5998613857d2",
      "networkId": 0,
      "chainId": 0
    }
  ]
}