{
  "hash": "0xbb0e4336c5ec25fc6a90b0c8d9019bda753388671c4103edeb8b5950603cdab4",
  "parentHash": "0xb24560d03548b0fa00af912868f8e620142a164b86bca55d85ab0978139c1143",
  "number": 46927,
  "timestamp": 1438931703,
  "nonce": "0x2677cc520221288c",
  "difficulty": 1456723833308,
  "gasLimit": {
    "_hex": "0x8631"
  },
  "gasUsed": {
    "_hex": "0x5208"
  },
  "miner": "0x9746c7e1ef2bd21FF3997fa467593a89cb852BD0",
  "extraData": "0x476574682f76312e302e312f77696e646f77732f676f312e342e32",
  "transactions": [
    {
      "hash": "0x21ea03d2bdc02bda69ff1d9597a2d01c3f4520a8dceba1c6d7964629d21150f6",
      "blockHash": "0xbb0e4336c5ec25fc6a90b0c8d9019bda753388671c4103edeb8b5950603cdab4",
      "blockNumber": 46927,
      "transactionIndex": 0,
      "confirmations": null,
      "from": "0xf7B8418409F2A9de568A4bcbd93d7e26D70509ae",
      "gasPrice": {
        "_hex": "0x746a528800"
      },
      "gasLimit": {
        "_hex": "0x5208"
      },
      "to": "0x4019b21f3dB1F288414aC180f3Ea63315B12a7aC",
      "value": {
        "_hex": "0xdbb6901e53fc000"
      },
      "nonce": 0,
      "data": "0x",
      "r": "0x1191c9417b35ec1e6cca64021869bf4a1b4068c27c16009984b0ec5dd0e33e68",
      "s": "0x6b9eb18d14a1e3aa14c9d6480b62e38d836c039f82a7713e681fe971c2b554e7",
      "v": 27,
      "creates": null,
      "raw": "0xf86c8085746a528800825208944019b21f3db1f288414ac180f3ea63315b12a7ac880dbb6901e53fc000801ba01191c9417b35ec1e6cca64021869bf4a1b4068c27c16009984b0ec5dd0e33e68a06b9eb18d14a1e3aa14c9d6480b62e38d836c039f82a7713e681fe971c2b554e7",
      "networkId": 0,
      "chainId": 0
    }
  ]
}