{
  "hash": "0xc6368fa37f74ff105837922f18377de22cac7a9c59d44397358136576e2161fb",
  "parentHash": "0x7c8b1bd9ad5db49e067cac3481e476424b5b9b571260b1c3d0f4ceb07656a8ea",
  "number": 115634,
  "timestamp": 1440060673,
  "nonce": "0xc080735ce57d328d",
  "difficulty": 4584975207683,
  "gasLimit": {
    "_hex": "0x2fefd8"
  },
  "gasUsed": {
    "_hex": "0x5208"
  },
  "miner": "0x35e8e5dC5FBd97c5b421A80B596C030a2Be2A04D",
  "extraData": "0x476574682f76312e302e312f6c696e75782f676f312e342e32",
  "transactions": [
    {
      "hash": "0x9de8fc054c3231f86de7a52f1400e7c3ff90b0aac2ed3a79933e55e896e3f812",
      "blockHash": "0xc6368fa37f74ff105837922f18377de22cac7a9c59d44397358136576e2161fb",
      "blockNumber": 115634,
      "transactionIndex": 0,
      "confirmations": null,
      "from": "0x32Be343B94f860124dC4fEe278FDCBD38C102D88",
      "gasPrice": {
        "_hex": "0xdfe660f93"
      },
      "gasLimit": {
        "_hex": "0x5208"
      },
      "to": "0x3D31A7CdbF1B9952C1c4d567b97c54fc354E6A7B",
      "value": {
        "_hex": "0x8aa39c121a270000"
      },
      "nonce": 1442,
      "data": "0x",
      "r": "0xe0c64f55551843541a7d04d60526daf5d4b07c50de41be0deafdc3ab177b7f1f",
      "s": "0x37aa6bd64744ea22b1e47e3297315adeebd9c74f8fd0b3be1ae029336ead6b85",
      "v": 28,
      "creates": null,
      "raw": "0xf86e8205a2850dfe660f93825208943d31a7cdbf1b9952c1c4d567b97c54fc354e6a7b888aa39c121a270000801ca0e0c64f55551843541a7d04d60526daf5d4b07c50de41be0deafdc3ab177b7f1fa037aa6bd64744ea22b1e47e3297315adeebd9c74f8fd0b3be1ae029336ead6b85",
      "networkId": 0,
      "chainId": 0
    }
  ]
}