{
  "hash": "0x7a2c6eedb8d91dcfdf0156539c81135acc39c784cbb3706b14eec21ac6da2aa1",
  "parentHash": "0xd67606df8a45ecd72a37a57f6881c9dec4eb865cc726f082348e565083a885db",
  "number": 80399,
  "timestamp": 1439485069,
  "nonce": "0x50d73fb7320e684e",
  "difficulty": 2385169384145,
  "gasLimit": {
    "_hex": "0x2fe3de"
  },
  "gasUsed": {
    "_hex": "0x6ed7"
  },
  "miner": "0x8e2d0D710eC02dDB04711e848e454Cb28f2124F6",
  "extraData": "0x476574682f76312e302e302d66633739643332642f6c696e75782f676f312e34",
  "transactions": [
    {
      "hash": "0x052ef0019917191c6a49183802eaba88c4f1690d38ac69d42559d159402d9024",
      "blockHash": "0x7a2c6eedb8d91dcfdf0156539c81135acc39c784cbb3706b14eec21ac6da2aa1",
      "blockNumber": 80399,
      "transactionIndex": 0,
      "confirmations": null,
      "from": "0x87C5B5874A18B4306DF8a752a6C8cc3E82daFc19",
      "gasPrice": {
        "_hex": "0x10ff8147f27"
      },
      "gasLimit": {
        "_hex": "0x493e0"
      },
      "to": "0xC4c51de1AbF5D60DBd329eC0F999Fd8f021ae9fC",
      "value": {
        "_hex": "0x0"
      },
      "nonce": 197,
      "data": "0xbd66528a6b6b6b0000000000000000000000000000000000000000000000000000000000",
      "r": "0xa8d455c73e32565a3ffcd61a0c9231ba58a2da4abdd79f0440e03753d1fe51b3",
      "s": "0x4854133aec0cbb09e43808c8f4fd7eea4eb022ba643eed42b93c807b0c2887e6",
      "v": 27,
      "creates": null,
      "raw": "0xf88b81c586010ff8147f27830493e094c4c51de1abf5d60dbd329ec0f999fd8f021ae9fc80a4bd66528a6b6b6b00000000000000000000000000000000000000000000000000000000001ba0a8d455c73e32565a3ffcd61a0c9231ba58a2da4abdd79f0440e03753d1fe51b3a04854133aec0cbb09e43808c8f4fd7eea4eb022ba643eed42b93c807b0c2887e6",
      "networkId": 0,
      "chainId": 0
    }
  ]
}