{
  "hash": "0xd42b23820ebdce9eed8c576ad4192eb6d1014e42219ba55e777445703f53f1aa",
  "parentHash": "0xef2193126b4aaf422bb7e9dcc58506b96ebae1afdb53e842e8556b2b4b00bd4d",
  "number": 103374,
  "timestamp": 1439852315,
  "nonce": "0x069160a2af2a49a0",
  "difficulty": 4164473873478,
  "gasLimit": {
    "_hex": "0x2fefd8"
  },
  "gasUsed": {
    "_hex": "0x5208"
  },
  "miner": "0xe6A7a1d47ff21B6321162AEA7C6CB457D5476Bca",
  "extraData": "0x476574682f76312e302e312d38326566323666362f6c696e75782f676f312e34",
  "transactions": [
    {
      "hash": "0x29ad11c50faa8f1e3de4b21112883d1559bde5d0f6aff8afbbab0ac66cf7a969",
      "blockHash": "0xd42b23820ebdce9eed8c576ad4192eb6d1014e42219ba55e777445703f53f1aa",
      "blockNumber": 103374,
      "transactionIndex": 0,
      "confirmations": null,
      "from": "0x120A270bbC009644e35F0bB6ab13f95b8199c4ad",
      "gasPrice": {
        "_hex": "0xd1f9bf706"
      },
      "gasLimit": {
        "_hex": "0x3d090"
      },
      "to": "0x4880617F9b93B1e5A9fa6a1B2EB29358D0D38B8d",
      "value": {
        "_hex": "0xa562f6086b8800"
      },
      "nonce": 717,
      "data": "0x",
      "r": "0x15ed6b156ca60873199a667cc186c78bf4765bf7604c9b6aa871bb696259c34c",
      "s": "0x68fed750aed0a372162583687e25f3eef58836686d9c6f436847dc9fe3b5f51d",
      "v": 27,
      "creates": null,
      "raw": "0xf86e8202cd850d1f9bf7068303d090944880617f9b93b1e5a9fa6a1b2eb29358d0d38b8d87a562f6086b8800801ba015ed6b156ca60873199a667cc186c78bf4765bf7604c9b6aa871bb696259c34ca068fed750aed0a372162583687e25f3eef58836686d9c6f436847dc9fe3b5f51d",
      "networkId": 0,
      "chainId": 0
    }
  ]
}