{
  "hash": "0xcad04bf9e6d5a16db0fdd363f9783a0a2b802aafe29dab4ef14d4f119193c32e",
  "parentHash": "0x2e8c3b6815034a9962762e4d246d083b307807d378126064341e1ae60bd651ad",
  "number": 65932,
  "timestamp": 1439245576,
  "nonce": "0x24f94d2e280c50ba",
  "difficulty": 1947224223838,
  "gasLimit": {
    "_hex": "0x2fefd8"
  },
  "gasUsed": {
    "_hex": "0x5208"
  },
  "miner": "0x2C674A948592B20a4B775E1a3991Db043E6CF0FE",
  "extraData": "0x476574682f76312e302e312d38326566323666362f6c696e75782f676f312e34",
  "transactions": [
    {
      "hash": "0xcc2c2a1ab73960c2dc3296cb212709552584673ea1c3385ce53b9404a505486b",
      "blockHash": "0xcad04bf9e6d5a16db0fdd363f9783a0a2b802aafe29dab4ef14d4f119193c32e",
      "blockNumber": 65932,
      "transactionIndex": 0,
      "confirmations": null,
      "from": "0x120A270bbC009644e35F0bB6ab13f95b8199c4ad",
      "gasPrice": {
        "_hex": "0xde96e08c8"
      },
      "gasLimit": {
        "_hex": "0x15f90"
      },
      "to": "0x3fe698DDd00ce16bFb0F2B875D29Cf6B91eB677d",
      "value": {
        "_hex": "0x25a3461c3c81667400"
      },
      "nonce": 138,
      "data": "0x",
      "r": "0xecbb1dbe768700124f269c85d65872c96d33aa644b612e852bf2f625cad9c1b7",
      "s": "0x7324933104ca36faddabfdeb277fd478f13800b59cb7ac6d83c92df972171c99",
      "v": 27,
      "creates": null,
      "raw": "0xf86f818a850de96e08c883015f90943fe698ddd00ce16bfb0f2b875d29cf6b91eb677d8925a3461c3c81667400801ba0ecbb1dbe768700124f269c85d65872c96d33aa644b612e852bf2f625cad9c1b7a07324933104ca36faddabfdeb277fd478f13800b59cb7ac6d83c92df972171c99",
      "networkId": 0,
      "chainId": 0
    }
  ]
}