{
  "hash": "0x6d8ff7a88630d19a8950595908cae3eeb4c137cb577f5d38ad7da83eb9848618",
  "parentHash": "0x2c02ac83d7560e33d9265104ebccdb3ae5bd08f079f99b183024397600d4240d",
  "number": 115063,
  "timestamp": 1440050897,
  "nonce": "0x47a0a9e83a915323",
  "difficulty": 4534080457518,
  "gasLimit": {
    "_hex": "0x2fefd8"
  },
  "gasUsed": {
    "_hex": "0x5208"
  },
  "miner": "0x580992B51e3925e23280EfB93d3047C82f17E038",
  "extraData": "0x476574682f76312e302e312f6c696e75782f676f312e342e32",
  "transactions": [
    {
      "hash": "0xb95d34355983913a71b1663a0ecb758e550947701a350b820c1db41b704586d1",
      "blockHash": "0x6d8ff7a88630d19a8950595908cae3eeb4c137cb577f5d38ad7da83eb9848618",
      "blockNumber": 115063,
      "transactionIndex": 0,
      "confirmations": null,
      "from": "0xa6BDc31c431B8F97848c9D60cbbe9660dc450eB7",
      "gasPrice": {
        "_hex": "0xdc6db252a"
      },
      "gasLimit": {
        "_hex": "0x5208"
      },
      "to": "0x32Be343B94f860124dC4fEe278FDCBD38C102D88",
      "value": {
        "_hex": "0x4563a7e68f4eb800"
      },
      "nonce": 201,
      "data": "0x",
      "r": "0xd660a0d8b6b21059a8fcd1b49c22d680fd371848cb5bc092cc3bdecd52b23ed1",
      "s": "0x0362a4f13e6d36a30b1e88ebd3102a2f1b68dd96b339faa7e05828ab8f6e699c",
      "v": 27,
      "creates": null,
      "raw": "0xf86d81c9850dc6db252a8252089432be343b94f860124dc4fee278fdcbd38c102d88884563a7e68f4eb800801ba0d660a0d8b6b21059a8fcd1b49c22d680fd371848cb5bc092cc3bdecd52b23ed1a00362a4f13e6d36a30b1e88ebd3102a2f1b68dd96b339faa7e05828ab8f6e699c",
      "networkId": 0,
      "chainId": 0
    }
  ]
}