{
  "hash": "0x4e7000751fdedd0d4d82f748263bf5cf6c2103a22ad67c25127e12925457c32c",
  "parentHash": "0x3711b1633e8e70f4eb251fb840d938538b721e8531243c782c343d2dea218369",
  "number": 46458,
  "timestamp": 1438923466,
  "nonce": "0x503bdf7a25f400aa",
  "difficulty": 1468948230977,
  "gasLimit": {
    "_hex": "0x6214"
  },
  "gasUsed": {
    "_hex": "0x5208"
  },
  "miner": "0xbb7B8287f3F0a933474a79eAe42CBCa977791171",
  "extraData": "0x476574682f4c5649562f76312e302e312f6c696e75782f676f312e342e32",
  "transactions": [
    {
      "hash": "0xc649366299e2104f9a65d646604a6e23602eb3221677b560f168e0d72da3a992",
      "blockHash": "0x4e7000751fdedd0d4d82f748263bf5cf6c2103a22ad67c25127e12925457c32c",
      "blockNumber": 46458,
      "transactionIndex": 0,
      "confirmations": null,
      "from": "0x9746c7e1ef2bd21FF3997fa467593a89cb852BD0",
      "gasPrice": {
        "_hex": "0xf478e08400"
      },
      "gasLimit": {
        "_hex": "0x5208"
      },
      "to": "0xB0bF4A71F730782368Ef660FE6D298F432F95450",
      "value": {
        "_hex": "0x1b1ae4d6e2ef500000"
      },
      "nonce": 0,
      "data": "0x",
      "r": "0xf80f55102f96be4486ac1d4ac390e660ebb04359d1d6a01e354d535ca8ab342b",
      "s": "0x3037370bebe1fcf8269eaa4c86e35e90db949a38704157bbd9fc342012642067",
      "v": 28,
      "creates": null,
      "raw": "0xf86d8085f478e0840082520894b0bf4a71f730782368ef660fe6d298f432f95450891b1ae4d6e2ef500000801ca0f80f55102f96be4486ac1d4ac390e660ebb04359d1d6a01e354d535ca8ab342ba03037370bebe1fcf8269eaa4c86e35e90db949a38704157bbd9fc342012642067",
      "networkId": 0,
      "chainId": 0
    }
  ]
}