{
  "hash": "0xb993235d793d7b0595c6a2dfb946008c1663b384d5afae2829a3d2195a4d93b6",
  "parentHash": "0x12186a9cac5fc610937bf43a49d9d61e88a2834c7f4f779080f3211e947d5876",
  "number": 119429,
  "timestamp": 1440142814,
  "nonce": "0x59806a45f1a4169b",
  "difficulty": 4383724483914,
  "gasLimit": {
    "_hex": "0x2fefd8"
  },
  "gasUsed": {
    "_hex": "0x5208"
  },
  "miner": "0x608f4b86321a68453f9adf6F06F7Fc3E621739ad",
  "extraData": "0xd783010002844765746887676f312e342e32856c696e7578",
  "transactions": [
    {
      "hash": "0x05edee3568152387f5ae6c2088e94d7fb311cf943df94ab4eff19d71e36c1303",
      "blockHash": "0xb993235d793d7b0595c6a2dfb946008c1663b384d5afae2829a3d2195a4d93b6",
      "blockNumber": 119429,
      "transactionIndex": 0,
      "confirmations": null,
      "from": "0xACAB9A83F47D28Fdc1d12772A0B571f80444b5DD",
      "gasPrice": {
        "_hex": "0xba43b7400"
      },
      "gasLimit": {
        "_hex": "0x7a120"
      },
      "to": "0x19939AD9F09d103B670c9EE56cA41d5764380f8A",
      "value": {
        "_hex": "0x1178ddd45c378000"
      },
      "nonce": 8,
      "data": "0x",
      "r": "0xd1350eb3df35f1093b165044d804a71002fa20d32b289ef55b0afe6ace1d9642",
      "s": "0x70d5b0939c9ad43038a210c649d6178862c26cc15680c5cad72e044b7630f5ce",
      "v": 28,
      "creates": null,
      "raw": "0xf86d08850ba43b74008307a1209419939ad9f09d103b670c9ee56ca41d5764380f8a881178ddd45c378000801ca0d1350eb3df35f1093b165044d804a71002fa20d32b289ef55b0afe6ace1d9642a070d5b0939c9ad43038a210c649d6178862c26cc15680c5cad72e044b7630f5ce",
      "networkId": 0,
      "chainId": 0
    }
  ]
}