{
  "hash": "0xe028afb69c4d05c1242a42ca617792cc3e03d17e7b6e6f58166b51d6b97ca73a",
  "parentHash": "0x5d795a5c87855ff85a7a654b6376146ccfa4d8ffb366fbfc061cde3a6679a9f7",
  "number": 80256,
  "timestamp": 1439482605,
  "nonce": "0x08313de3913eae28",
  "difficulty": 2386374982126,
  "gasLimit": {
    "_hex": "0x2fefd8"
  },
  "gasUsed": {
    "_hex": "0x5208"
  },
  "miner": "0x0D4EcC7d750180EBf4A9Df728B6669B5Bceb5E40",
  "extraData": "0x",
  "transactions": [
    {
      "hash": "0x754fbad14262c991b14c5dbeb84f822303e7f5cac3443c1d01e155463fd4ca36",
      "blockHash": "0xe028afb69c4d05c1242a42ca617792cc3e03d17e7b6e6f58166b51d6b97ca73a",
      "blockNumber": 80256,
      "transactionIndex": 0,
      "confirmations": null,
      "from": "0xb00cc6Bfb8ceCe4A3AC555AfbB614005DD590BE6",
      "gasPrice": {
        "_hex": "0xba43b7400"
      },
      "gasLimit": {
        "_hex": "0x5208"
      },
      "to": "0xC47Aaa860008be6f65B58c6C6E02a84e666EfE31",
      "value": {
        "_hex": "0xad78b0162991c6000"
      },
      "nonce": 0,
      "data": "0x",
      "r": "0x000b63e2a6cc695332122ec597db5290641f9ed4793c09f172017a364d1bf5e5",
      "s": "0x2ec3a63f355f5f27a769004d60c7c23307551be96019e1dbc7072713e0cf548f",
      "v": 28,
      "creates": null,
      "raw": "0xf86c80850ba43b740082520894c47aaa860008be6f65b58c6c6e02a84e666efe31890ad78b0162991c6000801c9f0b63e2a6cc695332122ec597db5290641f9ed4793c09f172017a364d1bf5e5a02ec3a63f355f5f27a769004d60c7c23307551be96019e1dbc7072713e0cf548f",
      "networkId": 0,
      "chainId": 0
    }
  ]
}