{
  "hash": "0x604404804a8566cd07fa0d582e05876f75e0be102dfa368a0ca11d07593740cc",
  "parentHash": "0xf431462ca6f547dd9531fa661cf131d9873cb98ec21a27dc4ff67d2d388f28d7",
  "number": 99114,
  "timestamp": 1439784692,
  "nonce": "0x0848bb306927c739",
  "difficulty": 3801139522455,
  "gasLimit": {
    "_hex": "0x2fefd8"
  },
  "gasUsed": {
    "_hex": "0xa410"
  },
  "miner": "0xe6A7a1d47ff21B6321162AEA7C6CB457D5476Bca",
  "extraData": "0x476574682f76312e302e312d38326566323666362f6c696e75782f676f312e34",
  "transactions": [
    {
      "hash": "0x6280f45b1331b37174db4b34ab214ca7bd8e595e2edc5260d0971617bbb82225",
      "blockHash": "0x604404804a8566cd07fa0d582e05876f75e0be102dfa368a0ca11d07593740cc",
      "blockNumber": 99114,
      "transactionIndex": 0,
      "confirmations": null,
      "from": "0x7884D470204862a0d1A21122F41ee77430396Ee5",
      "gasPrice": {
        "_hex": "0xce5eb4ddb"
      },
      "gasLimit": {
        "_hex": "0x15f90"
      },
      "to": "0x064eAF61c78BE0A9Bd50E6c5D99c451F1dd65CF2",
      "value": {
        "_hex": "0x0"
      },
      "nonce": 29,
      "data": "0x",
      "r": "0x92642b03856bd54538c3c5dae9e62f36c890e0e608671cbb2c36634f73649572",
      "s": "0x046c7a9a64b8f0711c9ea460b0f2c4fec7058494d8fc906b8c88a1245ae2294b",
      "v": 27,
      "creates": null,
      "raw": "0xf8651d850ce5eb4ddb83015f9094064eaf61c78be0a9bd50e6c5d99c451f1dd65cf280801ba092642b03856bd54538c3c5dae9e62f36c890e0e608671cbb2c36634f73649572a0046c7a9a64b8f0711c9ea460b0f2c4fec7058494d8fc906b8c88a1245ae2294b",
      "networkId": 0,
      "chainId": 0
    },
    {
      "hash": "0x9b368c0791ea3516d553adb08d8e8f54d74e5c7e786da7bc3435719ed80cd27e",
      "blockHash": "0x604404804a8566cd07fa0d582e05876f75e0be102dfa368a0ca11d07593740cc",
      "blockNumber": 99114,
      "transactionIndex": 1,
      "confirmations": null,
      "from": "0x6a2beA124A39FaD45D506f4d89330356E19592eb",
      "gasPrice": {
        "_hex": "0xce5eb4ddb"
      },
      "gasLimit": {
        "_hex": "0x15f90"
      },
      "to": "0x7884D470204862a0d1A21122F41ee77430396Ee5",
      "value": {
        "_hex": "0x0"
      },
      "nonce": 0,
      "data": "0x",
      "r": "0x1ffbe1288edf1ce29fd815a589c730197a19b319a414baa60f254571e07dbb97",
      "s": "0x534a47ea0a1e9035ce99e6330ca45165d09039e9b4415b412265392c292e4426",
      "v": 27,
      "creates": null,
      "raw": "0xf86580850ce5eb4ddb83015f90947884d470204862a0d1a21122f41ee77430396ee580801ba01ffbe1288edf1ce29fd815a589c730197a19b319a414baa60f254571e07dbb97a0534a47ea0a1e9035ce99e6330ca45165d09039e9b4415b412265392c292e4426",
      "networkId": 0,
      "chainId": 0
    }
  ]
}