{
  "hash": "0x8b14a41c22266951cf319f2d59470d6ecb514f04f08980493824d95dfef7cacc",
  "parentHash": "0xadefd03ae8414c4dca0ba7d354a881429aa470f14f304b0320760d0a6a844681",
  "number": 67245,
  "timestamp": 1439268617,
  "nonce": "0xf912a545b74e1cfd",
  "difficulty": 1928940748397,
  "gasLimit": {
    "_hex": "0x2fefd8"
  },
  "gasUsed": {
    "_hex": "0x5208"
  },
  "miner": "0x01d9DA08cc6Fb97c0DE1B6F4C28910A0859Ed1A1",
  "extraData": "0x476574682f76312e302e312f6c696e75782f676f312e342e32",
  "transactions": [
    {
      "hash": "0xe22a7ea52c738d667a97edef4d1d92e95c7218009a4e52bb9b1db9d367c40647",
      "blockHash": "0x8b14a41c22266951cf319f2d59470d6ecb514f04f08980493824d95dfef7cacc",
      "blockNumber": 67245,
      "transactionIndex": 0,
      "confirmations": null,
      "from": "0x2f86ba8019945f39edE131D38d4d8780884DA553",
      "gasPrice": {
        "_hex": "0xd5c218509"
      },
      "gasLimit": {
        "_hex": "0x5208"
      },
      "to": "0x32Be343B94f860124dC4fEe278FDCBD38C102D88",
      "value": {
        "_hex": "0x6c6b7d45ef90580000"
      },
      "nonce": 3,
      "data": "0x",
      "r": "0xbb320d61990cd464775dc34e923835c94b77caacf2057e54f315786bac135ca1",
      "s": "0x4d8d0424c47026cf0daec27e16f513cf029a199b6b8a1b5440c20fff5fdc496c",
      "v": 27,
      "creates": null,
      "raw": "0xf86d03850d5c2185098252089432be343b94f860124dc4fee278fdcbd38c102d88896c6b7d45ef90580000801ba0bb320d61990cd464775dc34e923835c94b77caacf2057e54f315786bac135ca1a04d8d0424c47026cf0daec27e16f513cf029a199b6b8a1b5440c20fff5fdc496c",
      "networkId": 0,
      "chainId": 0
    }
  ]
}