{
  "hash": "0xa73f96ae1e4d6dfdd45118dd1bfc32eb11eb09835de47c570bc24738474249a0",
  "parentHash": "0x62c013f5936a69708e14562b7ef473487ebde27b0fa383423e764b497ca1e55e",
  "number": 49406,
  "timestamp": 1438973047,
  "nonce": "0xf14c32c31a41f4aa",
  "difficulty": 1475619703350,
  "gasLimit": {
    "_hex": "0x3019c"
  },
  "gasUsed": {
    "_hex": "0x5208"
  },
  "miner": "0xf8E0CA3Ed80bd541b94BEdCf259e8CF2141A9523",
  "extraData": "0x476574682f76312e302e312f77696e646f77732f676f312e342e32",
  "transactions": [
    {
      "hash": "0xa9afdf33662e2f2315911ad411ce2781a5d753422e9274c3b2766f5cde0b654f",
      "blockHash": "0xa73f96ae1e4d6dfdd45118dd1bfc32eb11eb09835de47c570bc24738474249a0",
      "blockNumber": 49406,
      "transactionIndex": 0,
      "confirmations": null,
      "from": "0x6DA3bF9AC75f2892b8C1FB8aDD8d27a199104dE0",
      "gasPrice": {
        "_hex": "0xba43b7400"
      },
      "gasLimit": {
        "_hex": "0x5b04"
      },
      "to": "0xb82415923664590236aea1c1912955E7653B9FCa",
      "value": {
        "_hex": "0x2559cbb98584240000"
      },
      "nonce": 3,
      "data": "0x",
      "r": "0xe99333f8155f1bd5ca07d91a6694aa478b9bac66f1e82a56c32949c832eb3d4d",
      "s": "0xe25a2513f795e867b9a1cb190f2fc646c32263e2532ade3f3f1c113759429ff9",
      "v": 28,
      "creates": null,
      "raw": "0xf86d03850ba43b7400825b0494b82415923664590236aea1c1912955e7653b9fca892559cbb98584240000801ca0e99333f8155f1bd5ca07d91a6694aa478b9bac66f1e82a56c32949c832eb3d4da0e25a2513f795e867b9a1cb190f2fc646c32263e2532ade3f3f1c113759429ff9",
      "networkId": 0,
      "chainId": 0
    }
  ]
}