{
  "hash": "0xea429b490b7bca96bf281619a2b17702d8aae23d6ea693feb205b8b14db6a3eb",
  "parentHash": "0x9bb2e805d405f16e77d98ab51dd63bc6890d78fbfbe0530127faf5a97996430a",
  "number": 70536,
  "timestamp": 1439321368,
  "nonce": "0x75a936c140313fe0",
  "difficulty": 2139522372885,
  "gasLimit": {
    "_hex": "0x2fefd8"
  },
  "gasUsed": {
    "_hex": "0x5208"
  },
  "miner": "0xbb7B8287f3F0a933474a79eAe42CBCa977791171",
  "extraData": "0x476574682f4c5649562f76312e302e312f6c696e75782f676f312e342e32",
  "transactions": [
    {
      "hash": "0x94682e3dbba909c84c941f3857946605a62eb1014081f34a6fbed02964e8da9f",
      "blockHash": "0xea429b490b7bca96bf281619a2b17702d8aae23d6ea693feb205b8b14db6a3eb",
      "blockNumber": 70536,
      "transactionIndex": 0,
      "confirmations": null,
      "from": "0xEA3779D14A13F6C78566bCDE403591413a6239db",
      "gasPrice": {
        "_hex": "0xd90f56058"
      },
      "gasLimit": {
        "_hex": "0x15f90"
      },
      "to": "0x314c7Daa4825ffC0293819119c5FDCC0CcF19827",
      "value": {
        "_hex": "0x105e397c843d81c00000"
      },
      "nonce": 9,
      "data": "0x",
      "r": "0x93376f8bfc9ed5f3e896a0184f31a272881cdf1082901e88134775f9047846d5",
      "s": "0x2e89ca0ad8e1613ddfe5e3e14f4a380cc45c0471daf9d71cd3e9c12158abd68a",
      "v": 28,
      "creates": null,
      "raw": "0xf86f09850d90f5605883015f9094314c7daa4825ffc0293819119c5fdcc0ccf198278a105e397c843d81c00000801ca093376f8bfc9ed5f3e896a0184f31a272881cdf1082901e88134775f9047846d5a02e89ca0ad8e1613ddfe5e3e14f4a380cc45c0471daf9d71cd3e9c12158abd68a",
      "networkId": 0,
      "chainId": 0
    }
  ]
}