{
  "hash": "0xda2f7c6971cc6ae7f54452424bb98f090c6642ecb65c225f48c2cd701634b663",
  "parentHash": "0xbc6814ea67b010d4ad09bd1f6ceeab86248c6a83a592951883fb0631b07e12dc",
  "number": 102665,
  "timestamp": 1439841339,
  "nonce": "0x2fad649fcaae53d8",
  "difficulty": 4042605086413,
  "gasLimit": {
    "_hex": "0x2fefd8"
  },
  "gasUsed": {
    "_hex": "0x5208"
  },
  "miner": "0xa50ec0D39fa913E62f1Bae7074E6F36caA71855b",
  "extraData": "0xd783010001844765746887676f312e342e32856c696e7578",
  "transactions": [
    {
      "hash": "0xfecb4fb98c4832a6eef1c671613a81ac5fa1cf209f8958ac889f6f905cf030e5",
      "blockHash": "0xda2f7c6971cc6ae7f54452424bb98f090c6642ecb65c225f48c2cd701634b663",
      "blockNumber": 102665,
      "transactionIndex": 0,
      "confirmations": null,
      "from": "0x202833e8072EDc2bcD3b718CEE181919ed39f54B",
      "gasPrice": {
        "_hex": "0xd60340b78"
      },
      "gasLimit": {
        "_hex": "0x15f90"
      },
      "to": "0xFCE3a5Eaf8a61A99a9C122DbEBB744f65Bed7110",
      "value": {
        "_hex": "0x4b2afa8426b20618"
      },
      "nonce": 0,
      "data": "0x",
      "r": "0xd870717a54d722f6ec7b6e5cc4a260f1238350cca6485a83edfd5a1fe9053176",
      "s": "0x1057e553586967b00a8c4b5f1c37d3fb84c56e9f56d607ae7320123cdf318b95",
      "v": 27,
      "creates": null,
      "raw": "0xf86d80850d60340b7883015f9094fce3a5eaf8a61a99a9c122dbebb744f65bed7110884b2afa8426b20618801ba0d870717a54d722f6ec7b6e5cc4a260f1238350cca6485a83edfd5a1fe9053176a01057e553586967b00a8c4b5f1c37d3fb84c56e9f56d607ae7320123cdf318b95",
      "networkId": 0,
      "chainId": 0
    }
  ]
}