{
  "hash": "0x0a5427c9b5422338ce0cf76a2610f33f1c5e36d054b5cfaf5cec100515733784",
  "parentHash": "0x98d743deda0a0220c27566c3cda7214c8c9b081713d313ee335d68b5ef272134",
  "number": 53464,
  "timestamp": 1439038055,
  "nonce": "0xd97ba2b17d1d11df",
  "difficulty": 1594753684030,
  "gasLimit": {
    "_hex": "0x2925db"
  },
  "gasUsed": {
    "_hex": "0x5208"
  },
  "miner": "0x33b01a7fe4A1a5F774Bb73f89A4eF15a6Ffe1141",
  "extraData": "0x476574682f76312e302e312f6c696e75782f676f312e342e32",
  "transactions": [
    {
      "hash": "0x2e27c4a4a7a0ad371eaefcf0daf5209798c0380da079aff64b682170fa57cfd5",
      "blockHash": "0x0a5427c9b5422338ce0cf76a2610f33f1c5e36d054b5cfaf5cec100515733784",
      "blockNumber": 53464,
      "transactionIndex": 0,
      "confirmations": null,
      "from": "0x433e3ba1c51b810fc467D5ba4dea42F7A9885e69",
      "gasPrice": {
        "_hex": "0x10a75400297"
      },
      "gasLimit": {
        "_hex": "0x15f90"
      },
      "to": "0x73fC0C57F69e7Cf9FD1E8ac321F9361d249aEd0f",
      "value": {
        "_hex": "0xb1a2bc2ec50000"
      },
      "nonce": 0,
      "data": "0x",
      "r": "0x715cb595e67c85e701efaacfdd8626b56813c026fd8f57623a66171a3772ba4a",
      "s": "0x273085441e5e3686f46801033d7bf958e7ef457a8d242d621dfaf4c31c1befcd",
      "v": 28,
      "creates": null,
      "raw": "0xf86d8086010a7540029783015f909473fc0c57f69e7cf9fd1e8ac321f9361d249aed0f87b1a2bc2ec50000801ca0715cb595e67c85e701efaacfdd8626b56813c026fd8f57623a66171a3772ba4aa0273085441e5e3686f46801033d7bf958e7ef457a8d242d621dfaf4c31c1befcd",
      "networkId": 0,
      "chainId": 0
    }
  ]
}