{
  "hash": "0x2e64786cc504c329b33b5e6e612879cefec42fda2f3caec784307533f2332732",
  "parentHash": "0xe454d358cc04b7b91f56e7817d07157ca8be87700af17ea6cec1c87061ad6275",
  "number": 76254,
  "timestamp": 1439417336,
  "nonce": "0x5924e0ac9b85c37f",
  "difficulty": 2236300311230,
  "gasLimit": {
    "_hex": "0x2fefd8"
  },
  "gasUsed": {
    "_hex": "0x563e"
  },
  "miner": "0xbb7B8287f3F0a933474a79eAe42CBCa977791171",
  "extraData": "0x476574682f4c5649562f76312e302e312f6c696e75782f676f312e342e32",
  "transactions": [
    {
      "hash": "0x2797fc1ea6332fa953730430b98524de60125bc54849b27aaa06edbcfe9907d4",
      "blockHash": "0x2e64786cc504c329b33b5e6e612879cefec42fda2f3caec784307533f2332732",
      "blockNumber": 76254,
      "transactionIndex": 0,
      "confirmations": null,
      "from": "0xc8ebccC5F5689Fa8659d83713341e5aD19349448",
      "gasPrice": {
        "_hex": "0xce4fefdd6"
      },
      "gasLimit": {
        "_hex": "0x493e0"
      },
      "to": "0xD79B4C6791784184e2755B2fC1659eaaB0f80456",
      "value": {
        "_hex": "0x0"
      },
      "nonce": 54,
      "data": "0xbd66528a0000000000000000000000000000000000000000000000000000000000000000",
      "r": "0xab4ba89366934d2ee7b8ce3201735d8294cca3d38fedd91341ae256e6a0609eb",
      "s": "0x7c43213ca2bcf7907478b7919237a6016c4cf767ee7615d533fe0d88f3c3497f",
      "v": 27,
      "creates": null,
      "raw": "0xf88936850ce4fefdd6830493e094d79b4c6791784184e2755b2fc1659eaab0f8045680a4bd66528a00000000000000000000000000000000000000000000000000000000000000001ba0ab4ba89366934d2ee7b8ce3201735d8294cca3d38fedd91341ae256e6a0609eba07c43213ca2bcf7907478b7919237a6016c4cf767ee7615d533fe0d88f3c3497f",
      "networkId": 0,
      "chainId": 0
    }
  ]
}