{
  "hash": "0x58406dc0bb4d63fb1ebc84c08555b13233c0743e424be0d6c4023d69e3dcecb9",
  "parentHash": "0x5587dcf86cb6bf1ca8613bb8aff2ba4902b9b10a8292b55df10e932adb7c619c",
  "number": 54911,
  "timestamp": 1439062173,
  "nonce": "0xdff46abe8fb76038",
  "difficulty": 1615638756219,
  "gasLimit": {
    "_hex": "0x2fefd8"
  },
  "gasUsed": {
    "_hex": "0x1f2af4"
  },
  "miner": "0x5F8F73E26CdF436f19Cb24C82F90A15AFe55b592",
  "extraData": "0x476574682f76312e302e312f77696e646f77732f676f312e342e32",
  "transactions": [
    {
      "hash": "0x1c1fbb066a3f2f8c48236c5df64e4961a4297509e713d53a7c96181164298fad",
      "blockHash": "0x58406dc0bb4d63fb1ebc84c08555b13233c0743e424be0d6c4023d69e3dcecb9",
      "blockNumber": 54911,
      "transactionIndex": 0,
      "confirmations": null,
      "from": "0x8674c218F0351a62C3BA78C34FD2182A93Da94E2",
      "gasPrice": {
        "_hex": "0x174876e800"
      },
      "gasLimit": {
        "_hex": "0x1e8480"
      },
      "to": "0xD5e9b97a4Ea7df470b01eff3e35E74b4753b2be9",
      "value": {
        "_hex": "0x0"
      },
      "nonce": 38,
      "data": "0xde6f24bb0000000000000000000000008674c218f0351a62c3ba78c34fd2182a93da94e20000000000000000000000000000000000000000000000000000000000000040000000000000000000000000000000000000000000000000000000000000000668656c6c6f210000000000000000000000000000000000000000000000000000",
      "r": "0xb823e46b36b92b4dc56e2eca701b829e4e9a36daae39e3ca743c091c2a511f97",
      "s": "0x10deaec8e6d93fa3cd6a3fdc8fa1d4898984b41ec2e71e6b1442c1e4bf1459d4",
      "v": 27,
      "creates": null,
      "raw": "0xf8ea2685174876e800831e848094d5e9b97a4ea7df470b01eff3e35e74b4753b2be980b884de6f24bb0000000000000000000000008674c218f0351a62c3ba78c34fd2182a93da94e20000000000000000000000000000000000000000000000000000000000000040000000000000000000000000000000000000000000000000000000000000000668656c6c6f2100000000000000000000000000000000000000000000000000001ba0b823e46b36b92b4dc56e2eca701b829e4e9a36daae39e3ca743c091c2a511f97a010deaec8e6d93fa3cd6a3fdc8fa1d4898984b41ec2e71e6b1442c1e4bf1459d4",
      "networkId": 0,
      "chainId": 0
    },
    {
      "hash": "0x6f5ef53e480ede41d206652f55876787dd34a0d4690a622cd484a9d879dff630",
      "blockHash": "0x58406dc0bb4d63fb1ebc84c08555b13233c0743e424be0d6c4023d69e3dcecb9",
      "blockNumber": 54911,
      "transactionIndex": 1,
      "confirmations": null,
      "from": "0x120A270bbC009644e35F0bB6ab13f95b8199c4ad",
      "gasPrice": {
        "_hex": "0xda7049ee9"
      },
      "gasLimit": {
        "_hex": "0x15f90"
      },
      "to": "0xCA092A957744f6385B1aee5dC694143E8A06F805",
      "value": {
        "_hex": "0x829ed7a186ab6000"
      },
      "nonce": 10,
      "data": "0x",
      "r": "0x08afed1d52ae012650add03e3e1c8a338080390f2e2c1a125925799a88f0bee3",
      "s": "0x1e79464394d1c7a6fa745777c101a0318ae7c558ffa29a37351a33c334bacbc7",
      "v": 28,
      "creates": null,
      "raw": "0xf86d0a850da7049ee983015f9094ca092a957744f6385b1aee5dc694143e8a06f80588829ed7a186ab6000801ca008afed1d52ae012650add03e3e1c8a338080390f2e2c1a125925799a88f0bee3a01e79464394d1c7a6fa745777c101a0318ae7c558ffa29a37351a33c334bacbc7",
      "networkId": 0,
      "chainId": 0
    },
    {
      "hash": "0x09a66a1131b714090fe3d69aaee7471f9f3a4b42b65761baaf953dc95ccd3288",
      "blockHash": "0x58406dc0bb4d63fb1ebc84c08555b13233c0743e424be0d6c4023d69e3dcecb9",
      "blockNumber": 54911,
      "transactionIndex": 2,
      "confirmations": null,
      "from": "0x9F017706B830Fb9C30eFB0a09f506B9157457534",
      "gasPrice": {
        "_hex": "0xd2cccdbc4"
      },
      "gasLimit": {
        "_hex": "0x15f90"
      },
      "to": "0x2910543Af39abA0Cd09dBb2D50200b3E800A63D2",
      "value": {
        "_hex": "0x6c5d8f1de5a61b0000"
      },
      "nonce": 1,
      "data": "0x454e5633324a433952",
      "r": "0x0cae96e281d357b30b6a574165b994bd0a292bdeefd80fb321dee72889d3fd39",
      "s": "0x74613bbca7429040a64b80b37e382c2e60dfaac774415d0947696c073433843c",
      "v": 27,
      "creates": null,
      "raw": "0xf87701850d2cccdbc483015f90942910543af39aba0cd09dbb2d50200b3e800a63d2896c5d8f1de5a61b000089454e5633324a4339521ba00cae96e281d357b30b6a574165b994bd0a292bdeefd80fb321dee72889d3fd39a074613bbca7429040a64b80b37e382c2e60dfaac774415d0947696c073433843c",
      "networkId": 0,
      "chainId": 0
    }
  ]
}