{
  "hash": "0x6410b5184696dfb63bd12082daef68b15e252f815bea4132ad8445fe4ac0ed9d",
  "parentHash": "0x86d560baafd45af732b2d26b7df7a629b4aaf003d766c8e0e8bba4ea9790720c",
  "number": 65239,
  "timestamp": 1439233589,
  "nonce": "0xcbdb48796c0f116b",
  "difficulty": 1940740354969,
  "gasLimit": {
    "_hex": "0x2fefd8"
  },
  "gasUsed": {
    "_hex": "0x17cd8"
  },
  "miner": "0xcAF987dC6DAcB89E1e6Eba13265426e7132E15db",
  "extraData": "0x476574682f76312e302e312f6c696e75782f676f312e342e32",
  "transactions": [
    {
      "hash": "0xd69ff7845b09f93f717dc7587194098c01962febc8df9738eb907dc9f71148fe",
      "blockHash": "0x6410b5184696dfb63bd12082daef68b15e252f815bea4132ad8445fe4ac0ed9d",
      "blockNumber": 65239,
      "transactionIndex": 0,
      "confirmations": null,
      "from": "0x43A20dC7603DF41e31E4d931D69eCD1434260e81",
      "gasPrice": {
        "_hex": "0xba43b7400"
      },
      "gasLimit": {
        "_hex": "0x15f90"
      },
      "to": "0x793AE8C1b1a160BFc07BFB0d04F85eab1A71F4f2",
      "value": {
        "_hex": "0x0"
      },
      "nonce": 0,
      "data": "0x3ba15036",
      "r": "0x3d2919f8a4b21530cf178297de80a728ad592106c7fa4cf023bcfbbc9c6b8880",
      "s": "0x2dde982db7722b0a7e09645648bbe685eca7f51bf1e179884b67aeb6d40816bd",
      "v": 28,
      "creates": null,
      "raw": "0xf86980850ba43b740083015f9094793ae8c1b1a160bfc07bfb0d04f85eab1a71f4f280843ba150361ca03d2919f8a4b21530cf178297de80a728ad592106c7fa4cf023bcfbbc9c6b8880a02dde982db7722b0a7e09645648bbe685eca7f51bf1e179884b67aeb6d40816bd",
      "networkId": 0,
      "chainId": 0
    },
    {
      "hash": "0xa6f5283fe6ebebdad1a8a104eb759b13920a23a591606ebc5c80d4640aca64a1",
      "blockHash": "0x6410b5184696dfb63bd12082daef68b15e252f815bea4132ad8445fe4ac0ed9d",
      "blockNumber": 65239,
      "transactionIndex": 1,
      "confirmations": null,
      "from": "0x7e6166F37EE71F67e4D2710613687024eDb25F86",
      "gasPrice": {
        "_hex": "0xba43b7400"
      },
      "gasLimit": {
        "_hex": "0x15f90"
      },
      "to": "0x793AE8C1b1a160BFc07BFB0d04F85eab1A71F4f2",
      "value": {
        "_hex": "0x0"
      },
      "nonce": 0,
      "data": "0x3ba15036",
      "r": "0xe21e0aaf7cef7038d10784bed0ab70414a6ae0be28439bac3fa2685b0f9dc69c",
      "s": "0x27bb99e44d5de0b8b398fa561e388cfab3396abe7bb73012d9cd030ca6abeaa4",
      "v": 27,
      "creates": null,
      "raw": "0xf86980850ba43b740083015f9094793ae8c1b1a160bfc07bfb0d04f85eab1a71f4f280843ba150361ba0e21e0aaf7cef7038d10784bed0ab70414a6ae0be28439bac3fa2685b0f9dc69ca027bb99e44d5de0b8b398fa561e388cfab3396abe7bb73012d9cd030ca6abeaa4",
      "networkId": 0,
      "chainId": 0
    }
  ]
}