{
  "hash": "0x879faa27fc8a9dbed73f290180783389af3ff44070002c86b89b4e1d75e2c6d2",
  "parentHash": "0xe26b3485653a1670084a067b1720f67470afe2c2005c943b90c854be1c781f3e",
  "number": 105345,
  "timestamp": 1439886028,
  "nonce": "0x852adb75fad69c20",
  "difficulty": 4356918951481,
  "gasLimit": {
    "_hex": "0x2fefd8"
  },
  "gasUsed": {
    "_hex": "0x5208"
  },
  "miner": "0x0eDEd3DA479d0beF8eeC92A76644D3f4E3C177f7",
  "extraData": "0x476574682f76312e302e312f6c696e75782f676f312e342e32",
  "transactions": [
    {
      "hash": "0x024393ebaa1ab03a2167cedfdbb4a04d6b48d384011d1ad85de827a3f25d4641",
      "blockHash": "0x879faa27fc8a9dbed73f290180783389af3ff44070002c86b89b4e1d75e2c6d2",
      "blockNumber": 105345,
      "transactionIndex": 0,
      "confirmations": null,
      "from": "0x9cF18B3eb373C383a42d06136ba331D766ed9Fbb",
      "gasPrice": {
        "_hex": "0xd0e8b6fcc"
      },
      "gasLimit": {
        "_hex": "0x5208"
      },
      "to": "0x32Be343B94f860124dC4fEe278FDCBD38C102D88",
      "value": {
        "_hex": "0x23728fc3b41286000"
      },
      "nonce": 7,
      "data": "0x",
      "r": "0x8e91422f796402bad603f8b0ad8caee9719ee77b0ac31b0aa92303d968dde42c",
      "s": "0x5b014141e227dd6a1fc04fb17c1a1af0fcd842b5f6e654ab7efb138ecae3f29d",
      "v": 28,
      "creates": null,
      "raw": "0xf86d07850d0e8b6fcc8252089432be343b94f860124dc4fee278fdcbd38c102d8889023728fc3b41286000801ca08e91422f796402bad603f8b0ad8caee9719ee77b0ac31b0aa92303d968dde42ca05b014141e227dd6a1fc04fb17c1a1af0fcd842b5f6e654ab7efb138ecae3f29d",
      "networkId": 0,
      "chainId": 0
    }
  ]
}