{
  "hash": "0xe3f614b2fdf60378ade755e2c517247e85ac99b191dcbd28e449329582e5e2bf",
  "parentHash": "0xf69e3a98864f620434c248ae60acd2a73219e112dc38d039b08c48c89d1b01a2",
  "number": 96191,
  "timestamp": 1439736435,
  "nonce": "0x6e38d53950f78e4f",
  "difficulty": 3658580106497,
  "gasLimit": {
    "_hex": "0x2fefd8"
  },
  "gasUsed": {
    "_hex": "0x5208"
  },
  "miner": "0x20dff602D440dC119Bd3fF52E76f5cFE42Da65Fe",
  "extraData": "0x476574682f76312e302e312d38326566323666362f6c696e75782f676f312e34",
  "transactions": [
    {
      "hash": "0x911ab5ba784a8a8a0e4eb4d2537b9e41e72c1a70b4ba88211e194eb9dadcc02f",
      "blockHash": "0xe3f614b2fdf60378ade755e2c517247e85ac99b191dcbd28e449329582e5e2bf",
      "blockNumber": 96191,
      "transactionIndex": 0,
      "confirmations": null,
      "from": "0xa6BDc31c431B8F97848c9D60cbbe9660dc450eB7",
      "gasPrice": {
        "_hex": "0xcf4782b2a"
      },
      "gasLimit": {
        "_hex": "0x5208"
      },
      "to": "0x32Be343B94f860124dC4fEe278FDCBD38C102D88",
      "value": {
        "_hex": "0x455f60e31f174000"
      },
      "nonce": 124,
      "data": "0x",
      "r": "0xaf593ccca3bfd7d468fc1b9ca8b19792053a92eaea08c92932b6674ac2465e5d",
      "s": "0x052c7da620394873019aec3b3f48fe5e7e96ef9483b76de22a1e6e3094933226",
      "v": 27,
      "creates": null,
      "raw": "0xf86c7c850cf4782b2a8252089432be343b94f860124dc4fee278fdcbd38c102d8888455f60e31f174000801ba0af593ccca3bfd7d468fc1b9ca8b19792053a92eaea08c92932b6674ac2465e5da0052c7da620394873019aec3b3f48fe5e7e96ef9483b76de22a1e6e3094933226",
      "networkId": 0,
      "chainId": 0
    }
  ]
}