{
  "hash": "0xd95d2882c8e1d914e379396c0530d8522ebf3a33a4036f8e8ac0ff6d77f322aa",
  "parentHash": "0x4bf0a52a33ae5c0164fd0b7876d69b42d9bccf6d6cbc561ed06f895b83e3499d",
  "number": 99025,
  "timestamp": 1439783020,
  "nonce": "0x065309ab4f05e106",
  "difficulty": 3829122731263,
  "gasLimit": {
    "_hex": "0x2fefd8"
  },
  "gasUsed": {
    "_hex": "0x5208"
  },
  "miner": "0x55bAf64fc9eAccFFd7Cc643BB61142E1C6ac093e",
  "extraData": "0x",
  "transactions": [
    {
      "hash": "0xb01db6dfeb397ba34b6639008a66054fac662880594da3699e3b13e9cf4d5708",
      "blockHash": "0xd95d2882c8e1d914e379396c0530d8522ebf3a33a4036f8e8ac0ff6d77f322aa",
      "blockNumber": 99025,
      "transactionIndex": 0,
      "confirmations": null,
      "from": "0x790b8a3cE86E707ED0eD32bF89B3269692a23CC1",
      "gasPrice": {
        "_hex": "0xd84226ba1"
      },
      "gasLimit": {
        "_hex": "0x15f90"
      },
      "to": "0x4D67f4F0Db45b3B5a3424B39ed8d972F710381D5",
      "value": {
        "_hex": "0x2c2612051fb620000"
      },
      "nonce": 21,
      "data": "0x",
      "r": "0x5d4b6fed65d22adb057306d37e9b919506c413e1d487af1ec12d0df937034985",
      "s": "0x475f64135573b755d14f20a24adaa565c0d309c3f0fb4782a7b9a61e3028a5f3",
      "v": 28,
      "creates": null,
      "raw": "0xf86e15850d84226ba183015f90944d67f4f0db45b3b5a3424b39ed8d972f710381d58902c2612051fb620000801ca05d4b6fed65d22adb057306d37e9b919506c413e1d487af1ec12d0df937034985a0475f64135573b755d14f20a24adaa565c0d309c3f0fb4782a7b9a61e3028a5f3",
      "networkId": 0,
      "chainId": 0
    }
  ]
}