{
  "hash": "0x89f4feef2acbabddaf5813f8760c3c66a71b0e3f4129049d2304a89e1c6e8cac",
  "parentHash": "0x0ac896e2a5cb92ce3a652063cda03cf1097c3730e02a0fd18b714a1031211a71",
  "number": 80258,
  "timestamp": 1439482695,
  "nonce": "0x066b31fd3abdf078",
  "difficulty": 2384045106764,
  "gasLimit": {
    "_hex": "0x2fefd8"
  },
  "gasUsed": {
    "_hex": "0x14e47"
  },
  "miner": "0xe6A7a1d47ff21B6321162AEA7C6CB457D5476Bca",
  "extraData": "0x476574682f76312e302e312d38326566323666362f6c696e75782f676f312e34",
  "transactions": [
    {
      "hash": "0x8e91c7a7af38702dd790b4033018d46dac9b56b45a6d15399f3f6fd02352d278",
      "blockHash": "0x89f4feef2acbabddaf5813f8760c3c66a71b0e3f4129049d2304a89e1c6e8cac",
      "blockNumber": 80258,
      "transactionIndex": 0,
      "confirmations": null,
      "from": "0x87C5B5874A18B4306DF8a752a6C8cc3E82daFc19",
      "gasPrice": {
        "_hex": "0x109bd5a7235"
      },
      "gasLimit": {
        "_hex": "0x493e0"
      },
      "to": "0xC4c51de1AbF5D60DBd329eC0F999Fd8f021ae9fC",
      "value": {
        "_hex": "0x0"
      },
      "nonce": 154,
      "data": "0x03750d9400000000000000000000000087c5b5874a18b4306df8a752a6c8cc3e82dafc196b6b6b0000000000000000000000000000000000000000000000000000000000",
      "r": "0x4fdbfc3bea499a05e75ef980f999876007a980b5729b4892d6112a1a40a77947",
      "s": "0x43f2bdf313ca0a1f0cea13ba667787ff3659ee3696ac8c54e149757b06d3118d",
      "v": 27,
      "creates": null,
      "raw": "0xf8ac819a860109bd5a7235830493e094c4c51de1abf5d60dbd329ec0f999fd8f021ae9fc80b84403750d9400000000000000000000000087c5b5874a18b4306df8a752a6c8cc3e82dafc196b6b6b00000000000000000000000000000000000000000000000000000000001ba04fdbfc3bea499a05e75ef980f999876007a980b5729b4892d6112a1a40a77947a043f2bdf313ca0a1f0cea13ba667787ff3659ee3696ac8c54e149757b06d3118d",
      "networkId": 0,
      "chainId": 0
    },
    {
      "hash": "0xa1d3ef591be765b73352f2fcb6fd33143908c8130223d67856442c9a0895a36c",
      "blockHash": "0x89f4feef2acbabddaf5813f8760c3c66a71b0e3f4129049d2304a89e1c6e8cac",
      "blockNumber": 80258,
      "transactionIndex": 1,
      "confirmations": null,
      "from": "0x3222BA3F3e79eA0e31467EEE7639B57923558cCD",
      "gasPrice": {
        "_hex": "0xdbe82ecae"
      },
      "gasLimit": {
        "_hex": "0x5208"
      },
      "to": "0x5E33810d055F68eBA415be93fAEC212e9a2d6723",
      "value": {
        "_hex": "0xde0b6b3a7640000"
      },
      "nonce": 0,
      "data": "0x",
      "r": "0xfa5bf9f7c1a0672bae814090197fdea274b020c5275d5db158316ecc411d1929",
      "s": "0x05b73e8080d84af9588bc054bb11197f67487feb44a99c41715502832af8c707",
      "v": 28,
      "creates": null,
      "raw": "0xf86c80850dbe82ecae825208945e33810d055f68eba415be93faec212e9a2d6723880de0b6b3a7640000801ca0fa5bf9f7c1a0672bae814090197fdea274b020c5275d5db158316ecc411d1929a005b73e8080d84af9588bc054bb11197f67487feb44a99c41715502832af8c707",
      "networkId": 0,
      "chainId": 0
    },
    {
      "hash": "0x10c33da9bf6a38ae8f101cc8cf8ea51e7c7e1442035e35d5f5b5532c85a862ce",
      "blockHash": "0x89f4feef2acbabddaf5813f8760c3c66a71b0e3f4129049d2304a89e1c6e8cac",
      "blockNumber": 80258,
      "transactionIndex": 2,
      "confirmations": null,
      "from": "0xAc4351F422Ce3fe8515a41708B7282542A683E39",
      "gasPrice": {
        "_hex": "0xd1f217cbf"
      },
      "gasLimit": {
        "_hex": "0x15f90"
      },
      "to": "0xaE5822ba0FD0A171C5499A20eAB936E0Ec974E15",
      "value": {
        "_hex": "0xcd64299613c80000"
      },
      "nonce": 0,
      "data": "0x",
      "r": "0xd403adeb6cfa7d7f624dd814e90eadbc7de05da8440f86c765ade3138fd72ca0",
      "s": "0x2d228cef0741f6d8cce65f605fd859090df76258a14f3f295ae196762c0ca04a",
      "v": 27,
      "creates": null,
      "raw": "0xf86d80850d1f217cbf83015f9094ae5822ba0fd0a171c5499a20eab936e0ec974e1588cd64299613c80000801ba0d403adeb6cfa7d7f624dd814e90eadbc7de05da8440f86c765ade3138fd72ca0a02d228cef0741f6d8cce65f605fd859090df76258a14f3f295ae196762c0ca04a",
      "networkId": 0,
      "chainId": 0
    }
  ]
}