{
  "hash": "0xc21fe7f2ba07845b396c5c2a87f8481f827a81a6cb02ff2b8b42441d6f53c188",
  "parentHash": "0xdb19687245e3b6b6f27f3f390aabb6712a91474aabbe6d9e561763865575d83d",
  "number": 61641,
  "timestamp": 1439175610,
  "nonce": "0xd9c1c579b0604150",
  "difficulty": 1743817295333,
  "gasLimit": {
    "_hex": "0x2fefd8"
  },
  "gasUsed": {
    "_hex": "0x546c"
  },
  "miner": "0x93641e54c9aA6F9038FE7Adb03629a1747326Cd6",
  "extraData": "0x476574682f76312e302e312f77696e646f77732f676f312e342e32",
  "transactions": [
    {
      "hash": "0xe473017b6f8ca162f023f2cd5e6d948f564b913bbf14e0644941a47201a685a9",
      "blockHash": "0xc21fe7f2ba07845b396c5c2a87f8481f827a81a6cb02ff2b8b42441d6f53c188",
      "blockNumber": 61641,
      "transactionIndex": 0,
      "confirmations": null,
      "from": "0x494Dec4d5EE88a2771A815f1EE7264942Fb58B28",
      "gasPrice": {
        "_hex": "0x110c8f7d8de"
      },
      "gasLimit": {
        "_hex": "0xc350"
      },
      "to": "0x2910543Af39abA0Cd09dBb2D50200b3E800A63D2",
      "value": {
        "_hex": "0x1b1ae4d6e2ef500000"
      },
      "nonce": 0,
      "data": "0x454e38453958364147",
      "r": "0x9167e64663f723d4e072c45ac1621c2367d97415e58ab305045da798d754744b",
      "s": "0x02369dd0c213a488ef0af4c90a0e54c3ed9a0f2ceefcb0d5d7d89300a8c4dce5",
      "v": 27,
      "creates": null,
      "raw": "0xf87780860110c8f7d8de82c350942910543af39aba0cd09dbb2d50200b3e800a63d2891b1ae4d6e2ef50000089454e384539583641471ba09167e64663f723d4e072c45ac1621c2367d97415e58ab305045da798d754744ba002369dd0c213a488ef0af4c90a0e54c3ed9a0f2ceefcb0d5d7d89300a8c4dce5",
      "networkId": 0,
      "chainId": 0
    }
  ]
}