{
  "hash": "0x1a210ee74bf6708980c6595eeebb6dc2541786a90b11f9dbbdc5c3fe09ec0333",
  "parentHash": "0x4b47f36879dd86ba978d4e6ff283b449df7b181ac536e3b1a46e87ba18978c46",
  "number": 96456,
  "timestamp": 1439740670,
  "nonce": "0xd8dfbf0a3cce082f",
  "difficulty": 3660251328038,
  "gasLimit": {
    "_hex": "0x2fefd8"
  },
  "gasUsed": {
    "_hex": "0xa8d8"
  },
  "miner": "0xe6A7a1d47ff21B6321162AEA7C6CB457D5476Bca",
  "extraData": "0x476574682f76312e302e312d38326566323666362f6c696e75782f676f312e34",
  "transactions": [
    {
      "hash": "0x891f3ecb7f0080c9982787e0c25f2c66ce7160fc7898501380b1bc2516e741ef",
      "blockHash": "0x1a210ee74bf6708980c6595eeebb6dc2541786a90b11f9dbbdc5c3fe09ec0333",
      "blockNumber": 96456,
      "transactionIndex": 0,
      "confirmations": null,
      "from": "0x2cb5495a505336c2465410d1cae095b8e1Ba5CDd",
      "gasPrice": {
        "_hex": "0x114e66b7e4c"
      },
      "gasLimit": {
        "_hex": "0x55f0"
      },
      "to": "0x2910543Af39abA0Cd09dBb2D50200b3E800A63D2",
      "value": {
        "_hex": "0x21e16689c0dc8670000"
      },
      "nonce": 6,
      "data": "0x454e56325542503847",
      "r": "0xa4254d0a95aa74c5f05c01e363c8003164d41be13b7888d840db7d541242336a",
      "s": "0x03bf16352e7f1b0ae16ef6f2a038f6382e3a679694d9e1ee4b677fd37c49abec",
      "v": 27,
      "creates": null,
      "raw": "0xf87806860114e66b7e4c8255f0942910543af39aba0cd09dbb2d50200b3e800a63d28a021e16689c0dc867000089454e563255425038471ba0a4254d0a95aa74c5f05c01e363c8003164d41be13b7888d840db7d541242336aa003bf16352e7f1b0ae16ef6f2a038f6382e3a679694d9e1ee4b677fd37c49abec",
      "networkId": 0,
      "chainId": 0
    },
    {
      "hash": "0x8a3278e24959380aa3f5af138345adbe17ef523668d0b1d85452fc60868eea85",
      "blockHash": "0x1a210ee74bf6708980c6595eeebb6dc2541786a90b11f9dbbdc5c3fe09ec0333",
      "blockNumber": 96456,
      "transactionIndex": 1,
      "confirmations": null,
      "from": "0x85bb51bC3bfe9A1B2A2F6B1Cda95BcA8B38C8D5e",
      "gasPrice": {
        "_hex": "0x110c8f7d8de"
      },
      "gasLimit": {
        "_hex": "0xc350"
      },
      "to": "0x2910543Af39abA0Cd09dBb2D50200b3E800A63D2",
      "value": {
        "_hex": "0x1166c51744e4640000"
      },
      "nonce": 0,
      "data": "0x454e46333244463538",
      "r": "0xb14ac0213ca98948451f4c13b30ee4733c5aaad07b18277462cdcd68741fbed0",
      "s": "0x52964c75a77c0360fda5eab65bd38f4a496c1d5ba2d34b099892086d2a8b7a10",
      "v": 28,
      "creates": null,
      "raw": "0xf87780860110c8f7d8de82c350942910543af39aba0cd09dbb2d50200b3e800a63d2891166c51744e464000089454e463332444635381ca0b14ac0213ca98948451f4c13b30ee4733c5aaad07b18277462cdcd68741fbed0a052964c75a77c0360fda5eab65bd38f4a496c1d5ba2d34b099892086d2a8b7a10",
      "networkId": 0,
      "chainId": 0
    }
  ]
}