{
  "hash": "0xd353fe36efcc227aee35cd9fe10133abaf7579a1a9728f3a37097e3d008a9484",
  "parentHash": "0xa7429bc017e976e1d4f942542106268fac060971c0cad38ca5cf2c04aba7232e",
  "number": 85448,
  "timestamp": 1439563752,
  "nonce": "0xdf3ca001cef47379",
  "difficulty": 2753055084312,
  "gasLimit": {
    "_hex": "0x2fefd8"
  },
  "gasUsed": {
    "_hex": "0xa674"
  },
  "miner": "0xfFcD9CAE6d9f54fd8ae05296F839892677ff6EaA",
  "extraData": "0x476574682f76312e302e312f77696e646f77732f676f312e342e32",
  "transactions": [
    {
      "hash": "0x818993c7ea061c97821e3a9cb0c001b3bba05b0cd21f80b479e4a35b52d818bb",
      "blockHash": "0xd353fe36efcc227aee35cd9fe10133abaf7579a1a9728f3a37097e3d008a9484",
      "blockNumber": 85448,
      "transactionIndex": 0,
      "confirmations": null,
      "from": "0x3872f48dC5e3f817BC6B2aD2d030fc5e0471193d",
      "gasPrice": {
        "_hex": "0x110c8f7d8de"
      },
      "gasLimit": {
        "_hex": "0xc350"
      },
      "to": "0x2910543Af39abA0Cd09dBb2D50200b3E800A63D2",
      "value": {
        "_hex": "0x3635c9adc5dea00000"
      },
      "nonce": 1,
      "data": "0x454e38554e54313147",
      "r": "0x29596e57344c2f924f1fa5011623c188222a29310ec57dfb7c53910f26b28c0b",
      "s": "0xc6a732efe2068323c5c78f922c46e16f1538e3469565b744139fdc16959ee0c0",
      "v": 28,
      "creates": null,
      "raw": "0xf87701860110c8f7d8de82c350942910543af39aba0cd09dbb2d50200b3e800a63d2893635c9adc5dea0000089454e38554e543131471ca029596e57344c2f924f1fa5011623c188222a29310ec57dfb7c53910f26b28c0ba0c6a732efe2068323c5c78f922c46e16f1538e3469565b744139fdc16959ee0c0",
      "networkId": 0,
      "chainId": 0
    },
    {
      "hash": "0xa46cc0d5ee30283abbdfa27f7cecc160e83e13d11939ed76229c67cf6d8178b0",
      "blockHash": "0xd353fe36efcc227aee35cd9fe10133abaf7579a1a9728f3a37097e3d008a9484",
      "blockNumber": 85448,
      "transactionIndex": 1,
      "confirmations": null,
      "from": "0x2910543Af39abA0Cd09dBb2D50200b3E800A63D2",
      "gasPrice": {
        "_hex": "0xd8091d22e"
      },
      "gasLimit": {
        "_hex": "0x5208"
      },
      "to": "0x2aBD9e50d51e97aFc9a984f64657eD9539c59c91",
      "value": {
        "_hex": "0x56bc75e2d63100000"
      },
      "nonce": 614,
      "data": "0x",
      "r": "0x9d87bcc780aef23edbf7a19f1163a74592aa178465e7bbe2ab7713f7d154ebc6",
      "s": "0x1d6614ad588fe2da8f18a3120b5f7a1261167a9f103b5c61e042d876f8db0cc2",
      "v": 28,
      "creates": null,
      "raw": "0xf86f820266850d8091d22e825208942abd9e50d51e97afc9a984f64657ed9539c59c9189056bc75e2d63100000801ca09d87bcc780aef23edbf7a19f1163a74592aa178465e7bbe2ab7713f7d154ebc6a01d6614ad588fe2da8f18a3120b5f7a1261167a9f103b5c61e042d876f8db0cc2",
      "networkId": 0,
      "chainId": 0
    }
  ]
}