{
  "hash": "0x2bef89b0ac9308da62d76ada12c3872e0d8a19715b63a994ea541b46e4f999df",
  "parentHash": "0xdd2f0109aba2318dc38790564552ad19891a33018f8562c3e88de7928e1ada06",
  "number": 109807,
  "timestamp": 1439962736,
  "nonce": "0x48a613695a3c0353",
  "difficulty": 4436154608973,
  "gasLimit": {
    "_hex": "0x2fefd8"
  },
  "gasUsed": {
    "_hex": "0x5208"
  },
  "miner": "0xEF247E639d49461D25F57e9362CadE3120910Ce0",
  "extraData": "0x476574682f76312e302e312f6c696e75782f676f312e342e32",
  "transactions": [
    {
      "hash": "0x2693899bcdcb0e7a854607dbbf8fa59127825098df71c02950a7bf730fd6200b",
      "blockHash": "0x2bef89b0ac9308da62d76ada12c3872e0d8a19715b63a994ea541b46e4f999df",
      "blockNumber": 109807,
      "transactionIndex": 0,
      "confirmations": null,
      "from": "0x1A22137e525478043F6E1394849e6C23932786C9",
      "gasPrice": {
        "_hex": "0xdb093cd06"
      },
      "gasLimit": {
        "_hex": "0x5208"
      },
      "to": "0x0a41Be86378F36BA0823db204723693c0836a3E9",
      "value": {
        "_hex": "0x455f2e8568a9abd0"
      },
      "nonce": 5,
      "data": "0x",
      "r": "0xf9241568a2350ce614378daf1aaca131fb8c7e59baa400d8de1c301c58a752e2",
      "s": "0x2fd087a6949dddb5e2ea3881e69aed3d038b6288dfc00d58e4d514a6caf50e41",
      "v": 27,
      "creates": null,
      "raw": "0xf86c05850db093cd06825208940a41be86378f36ba0823db204723693c0836a3e988455f2e8568a9abd0801ba0f9241568a2350ce614378daf1aaca131fb8c7e59baa400d8de1c301c58a752e2a02fd087a6949dddb5e2ea3881e69aed3d038b6288dfc00d58e4d514a6caf50e41",
      "networkId": 0,
      "chainId": 0
    }
  ]
}