{
  "hash": "0x4e2c376dcbd816d7c6e1bac9ec3e556a2bcc0ecce36c31563af92ffc8931eb1b",
  "parentHash": "0xf268d8ed7fa6474bd4844a1e43a638779f4e824956b8c7849905c102afd38822",
  "number": 85358,
  "timestamp": 1439562382,
  "nonce": "0x39ef0cd00681ee3a",
  "difficulty": 2737000432735,
  "gasLimit": {
    "_hex": "0x2fefd8"
  },
  "gasUsed": {
    "_hex": "0x5208"
  },
  "miner": "0x580992B51e3925e23280EfB93d3047C82f17E038",
  "extraData": "0x476574682f76312e302e312f6c696e75782f676f312e342e32",
  "transactions": [
    {
      "hash": "0xdd8e56a69475bf99ce4e4f4adefac98bb30da3ee9fb9f3f6fcc35a5bc14b9a9e",
      "blockHash": "0x4e2c376dcbd816d7c6e1bac9ec3e556a2bcc0ecce36c31563af92ffc8931eb1b",
      "blockNumber": 85358,
      "transactionIndex": 0,
      "confirmations": null,
      "from": "0x2910543Af39abA0Cd09dBb2D50200b3E800A63D2",
      "gasPrice": {
        "_hex": "0xce53ee6db"
      },
      "gasLimit": {
        "_hex": "0x5208"
      },
      "to": "0x24d70018E3649E3FA0CC9E6dDE3FE087B55D326A",
      "value": {
        "_hex": "0x796d226c652cf8000"
      },
      "nonce": 609,
      "data": "0x",
      "r": "0xf555f71346ebd6dba368f868a59c7902cecb4593c7cc49bf05dc181527bb929c",
      "s": "0x290f489fcac126e4c2c1fbb8204f8db287e5fd5b1e1aca44f35514d3fc85f095",
      "v": 27,
      "creates": null,
      "raw": "0xf86f820261850ce53ee6db8252089424d70018e3649e3fa0cc9e6dde3fe087b55d326a890796d226c652cf8000801ba0f555f71346ebd6dba368f868a59c7902cecb4593c7cc49bf05dc181527bb929ca0290f489fcac126e4c2c1fbb8204f8db287e5fd5b1e1aca44f35514d3fc85f095",
      "networkId": 0,
      "chainId": 0
    }
  ]
}