{
  "hash": "0x3afc1c39fe1e64fba0216df145b3459e6f34f9accd914fa7323934dddb24d620",
  "parentHash": "0xc97aa3dc69403917e32d54b7db1b20bc39702834de5e50d73e3b9577926967a7",
  "number": 106967,
  "timestamp": 1439913660,
  "nonce": "0x616acd98a15a197d",
  "difficulty": 4455025241782,
  "gasLimit": {
    "_hex": "0x2fefd8"
  },
  "gasUsed": {
    "_hex": "0x5208"
  },
  "miner": "0xe6A7a1d47ff21B6321162AEA7C6CB457D5476Bca",
  "extraData": "0x476574682f76312e302e312d38326566323666362f6c696e75782f676f312e34",
  "transactions": [
    {
      "hash": "0x555657f2c6cc15f797d9cbe24ea2417021e03444aa3530fc44404c5346dbc78b",
      "blockHash": "0x3afc1c39fe1e64fba0216df145b3459e6f34f9accd914fa7323934dddb24d620",
      "blockNumber": 106967,
      "transactionIndex": 0,
      "confirmations": null,
      "from": "0x40B9b889A21Ff1534d018D71Dc406122EBcf3F5A",
      "gasPrice": {
        "_hex": "0xfd9490c32e"
      },
      "gasLimit": {
        "_hex": "0x15f90"
      },
      "to": "0xAf5e1c1F54aaC6dBcD5cfDD067Ef4208279280D1",
      "value": {
        "_hex": "0x8ac7230489e80000"
      },
      "nonce": 54,
      "data": "0x",
      "r": "0x03df7fee2a5f39ccbb161c39cf4bd74474c889bf54afacd0efb4d1ffe631401b",
      "s": "0x63bed97bb31417f6c03416f8c08d6268e486e275d681e9fe1c8f3c049d3152c7",
      "v": 27,
      "creates": null,
      "raw": "0xf86d3685fd9490c32e83015f9094af5e1c1f54aac6dbcd5cfdd067ef4208279280d1888ac7230489e80000801ba003df7fee2a5f39ccbb161c39cf4bd74474c889bf54afacd0efb4d1ffe631401ba063bed97bb31417f6c03416f8c08d6268e486e275d681e9fe1c8f3c049d3152c7",
      "networkId": 0,
      "chainId": 0
    }
  ]
}