{
  "hash": "0x36f7e5be8e5be6d2ad6900498fbcb0d8cc670612699ffced5d699f49c85b2055",
  "parentHash": "0x752fc489df47b7e34d73b857a7c81723697d2b821be68acb55c87dc1d03338f1",
  "number": 68374,
  "timestamp": 1439286777,
  "nonce": "0x271a790acbbe81ae",
  "difficulty": 2020253810618,
  "gasLimit": {
    "_hex": "0x2fefd8"
  },
  "gasUsed": {
    "_hex": "0x5208"
  },
  "miner": "0xf927a40C8B7F6E07c5af7FA2155B4864a4112B13",
  "extraData": "0x",
  "transactions": [
    {
      "hash": "0xd3ff70267e83f91d8d8d5cb10fbdbc9629a65daa31499a9f2d52b1f73fb31cee",
      "blockHash": "0x36f7e5be8e5be6d2ad6900498fbcb0d8cc670612699ffced5d699f49c85b2055",
      "blockNumber": 68374,
      "transactionIndex": 0,
      "confirmations": null,
      "from": "0x6747f922385c9a6F9cfDf095F34345257DD597bE",
      "gasPrice": {
        "_hex": "0xba43b7400"
      },
      "gasLimit": {
        "_hex": "0x5208"
      },
      "to": "0x1cf57eFfB12e67B10Ff358A70D157A46Ea98A2f0",
      "value": {
        "_hex": "0x1fcbfa42bd6000"
      },
      "nonce": 67,
      "data": "0x",
      "r": "0x403624d10f05bdf04e80fc50f8d44fbdd6a849b6b24e08b7950a6e98f2763647",
      "s": "0x34b0acad6ed51d223fc607ca3d359baea5f22f1d30728ab4c5fadecae0dbb8a1",
      "v": 27,
      "creates": null,
      "raw": "0xf86b43850ba43b7400825208941cf57effb12e67b10ff358a70d157a46ea98a2f0871fcbfa42bd6000801ba0403624d10f05bdf04e80fc50f8d44fbdd6a849b6b24e08b7950a6e98f2763647a034b0acad6ed51d223fc607ca3d359baea5f22f1d30728ab4c5fadecae0dbb8a1",
      "networkId": 0,
      "chainId": 0
    }
  ]
}