{
  "hash": "0x1cef4a5bf8ffaced82470c5bac06f395a33657a1a6af4846b709dd607033050c",
  "parentHash": "0x04e7e08a940141e12a1845e32f0706d4f59ab9b338428279ba1dce39e32a8520",
  "number": 54570,
  "timestamp": 1439056287,
  "nonce": "0x4da3b2868b79f1f1",
  "difficulty": 1622820322099,
  "gasLimit": {
    "_hex": "0x2fefd8"
  },
  "gasUsed": {
    "_hex": "0x5208"
  },
  "miner": "0xC49418429e58989172a4ACE0bab0cB8D3F00F97f",
  "extraData": "0x476574682f76312e302e312f6c696e75782f676f312e342e32",
  "transactions": [
    {
      "hash": "0xd24430c82a550bb8189351607d37d128f7ac5023df711f10d438d91dda700c3f",
      "blockHash": "0x1cef4a5bf8ffaced82470c5bac06f395a33657a1a6af4846b709dd607033050c",
      "blockNumber": 54570,
      "transactionIndex": 0,
      "confirmations": null,
      "from": "0xBef07d97C3481f9D6aee1c98F9d91a180a32442B",
      "gasPrice": {
        "_hex": "0xd7c75f32e"
      },
      "gasLimit": {
        "_hex": "0x15f90"
      },
      "to": "0x02E852cB5c68F09CE16EFa450e5e22e727683e90",
      "value": {
        "_hex": "0x28a9354dbfa16e40000"
      },
      "nonce": 1,
      "data": "0x",
      "r": "0x689077ddc0a1f56cfa56936edbccfbd4f9e711639ad10f59efe5b91c9ac34456",
      "s": "0x59fda1e635b71bac2ad9cb0d4e5de7fb4f6dd8c4c990f486e7082043bb6f90c1",
      "v": 27,
      "creates": null,
      "raw": "0xf86f01850d7c75f32e83015f909402e852cb5c68f09ce16efa450e5e22e727683e908a028a9354dbfa16e40000801ba0689077ddc0a1f56cfa56936edbccfbd4f9e711639ad10f59efe5b91c9ac34456a059fda1e635b71bac2ad9cb0d4e5de7fb4f6dd8c4c990f486e7082043bb6f90c1",
      "networkId": 0,
      "chainId": 0
    }
  ]
}