{
  "hash": "0x0d38df3d6bd0f506d4d05d4daf98ead9672134d8d3e1fc8d8a4d1cd50ec1059c",
  "parentHash": "0xc1443542d3241e3765ee47cf1d5c975afa215b06bcd2b21e4b8aa50837a92566",
  "number": 49940,
  "timestamp": 1438981645,
  "nonce": "0xd7e32b63862b98e0",
  "difficulty": 1497299003019,
  "gasLimit": {
    "_hex": "0x47039"
  },
  "gasUsed": {
    "_hex": "0xa674"
  },
  "miner": "0xe6A7a1d47ff21B6321162AEA7C6CB457D5476Bca",
  "extraData": "0x657468706f6f6c2e6f7267",
  "transactions": [
    {
      "hash": "0xa0fc699f094c584d93eaeaadab54e431bd77ae0da8440771e23c63347a01374c",
      "blockHash": "0x0d38df3d6bd0f506d4d05d4daf98ead9672134d8d3e1fc8d8a4d1cd50ec1059c",
      "blockNumber": 49940,
      "transactionIndex": 0,
      "confirmations": null,
      "from": "0x83908AA7478a6D1c9B9B0281148F8F9F242b9fDC",
      "gasPrice": {
        "_hex": "0x1017c6b9c2"
      },
      "gasLimit": {
        "_hex": "0x15f90"
      },
      "to": "0x2910543Af39abA0Cd09dBb2D50200b3E800A63D2",
      "value": {
        "_hex": "0x16345785d8a0000"
      },
      "nonce": 0,
      "data": "0x454e46384139353638",
      "r": "0x9f2b1d7be78e6adcad591af1643e2e2b0978e3d0def0825f4397f7dc2393b6bf",
      "s": "0x15dc5bb5df3d6fcf137308b680cf42212352d587597aebf6fafc1bfa160dc84b",
      "v": 27,
      "creates": null,
      "raw": "0xf87680851017c6b9c283015f90942910543af39aba0cd09dbb2d50200b3e800a63d288016345785d8a000089454e463841393536381ba09f2b1d7be78e6adcad591af1643e2e2b0978e3d0def0825f4397f7dc2393b6bfa015dc5bb5df3d6fcf137308b680cf42212352d587597aebf6fafc1bfa160dc84b",
      "networkId": 0,
      "chainId": 0
    },
    {
      "hash": "0xa0ed3ef51e6288c981ba02ad47177d9aac345fb97dea02b765bc277cd8191bb0",
      "blockHash": "0x0d38df3d6bd0f506d4d05d4daf98ead9672134d8d3e1fc8d8a4d1cd50ec1059c",
      "blockNumber": 49940,
      "transactionIndex": 1,
      "confirmations": null,
      "from": "0xd0C34376F4b5Ae34E062c043f736f1304B153544",
      "gasPrice": {
        "_hex": "0x10c4e20da8e"
      },
      "gasLimit": {
        "_hex": "0x5208"
      },
      "to": "0x835cFb953639ABaB9F2612b8d92C997771Ae6312",
      "value": {
        "_hex": "0x36a4cf636319c0000"
      },
      "nonce": 1,
      "data": "0x",
      "r": "0x0415611457e59cb5d3cd7720263d13afcaf8f618d7f555e228278cfc30379cd8",
      "s": "0x3292bceb259b36e0824dd5297ccb22534f5edba854c7e502dcc70473706480a4",
      "v": 27,
      "creates": null,
      "raw": "0xf86e0186010c4e20da8e82520894835cfb953639abab9f2612b8d92c997771ae631289036a4cf636319c0000801ba00415611457e59cb5d3cd7720263d13afcaf8f618d7f555e228278cfc30379cd8a03292bceb259b36e0824dd5297ccb22534f5edba854c7e502dcc70473706480a4",
      "networkId": 0,
      "chainId": 0
    }
  ]
}