{
  "hash": "0x4577491a8113f135eba4ed48180d38a65186e88e26a454539916a1c19455a167",
  "parentHash": "0x090bda0260331d1ffecae5af452fba3dfad9f9d8825056bf00956dffa9fff1e8",
  "number": 90756,
  "timestamp": 1439645051,
  "nonce": "0xc2dfeebb68422e50",
  "difficulty": 3380870347529,
  "gasLimit": {
    "_hex": "0x2fefd8"
  },
  "gasUsed": {
    "_hex": "0x5208"
  },
  "miner": "0xa6BDc31c431B8F97848c9D60cbbe9660dc450eB7",
  "extraData": "0x",
  "transactions": [
    {
      "hash": "0x708f70c925dcff1ea34987196b4fcb4ed8cb50aba45894670cd1ccc3f2646c42",
      "blockHash": "0x4577491a8113f135eba4ed48180d38a65186e88e26a454539916a1c19455a167",
      "blockNumber": 90756,
      "transactionIndex": 0,
      "confirmations": null,
      "from": "0x79c2eB532397ADb2237Fc3Aa1433b25fFEbaD915",
      "gasPrice": {
        "_hex": "0xcd01555c5"
      },
      "gasLimit": {
        "_hex": "0x15f90"
      },
      "to": "0xB89C0F465b0472fa5A58eCDd01eD937205ae4d06",
      "value": {
        "_hex": "0x8ac7230489e80000"
      },
      "nonce": 1,
      "data": "0x",
      "r": "0x66599de3c98d6cfe32160e0d3c23fa4dc71d03e7b5e3087edfe82e70a6d434a0",
      "s": "0x763770863ccd60da7d0ce249de56e685854235406e6d874371d9c8439bf41a0a",
      "v": 28,
      "creates": null,
      "raw": "0xf86d01850cd01555c583015f9094b89c0f465b0472fa5a58ecdd01ed937205ae4d06888ac7230489e80000801ca066599de3c98d6cfe32160e0d3c23fa4dc71d03e7b5e3087edfe82e70a6d434a0a0763770863ccd60da7d0ce249de56e685854235406e6d874371d9c8439bf41a0a",
      "networkId": 0,
      "chainId": 0
    }
  ]
}