{
  "hash": "0x26f1c63d4f1b91128493ec553c5084fce5a1e6e6b241f5b7b5aa8818f28454b4",
  "parentHash": "0x787fb691834c7c075983e84f013c7db78c3d4c04142238299023278752432abc",
  "number": 86627,
  "timestamp": 1439580591,
  "nonce": "0xb61c508bd751834f",
  "difficulty": 2940232503334,
  "gasLimit": {
    "_hex": "0x2fefd8"
  },
  "gasUsed": {
    "_hex": "0x5208"
  },
  "miner": "0xe6A7a1d47ff21B6321162AEA7C6CB457D5476Bca",
  "extraData": "0x476574682f76312e302e312d38326566323666362f6c696e75782f676f312e34",
  "transactions": [
    {
      "hash": "0xf070a4a573ea5d77f616168c59f0a6ad2451a5b70bdd8808eb00814a4599ea73",
      "blockHash": "0x26f1c63d4f1b91128493ec553c5084fce5a1e6e6b241f5b7b5aa8818f28454b4",
      "blockNumber": 86627,
      "transactionIndex": 0,
      "confirmations": null,
      "from": "0x2d3Cf607ADCE246F0750b08eBDC87789edb2a407",
      "gasPrice": {
        "_hex": "0x68c6171400"
      },
      "gasLimit": {
        "_hex": "0x55f0"
      },
      "to": "0x077BC4363eBf116c408C421b293cB018d22779fc",
      "value": {
        "_hex": "0x56bc75e2d63100000"
      },
      "nonce": 2,
      "data": "0x",
      "r": "0xebaf5c47b22790cc4d9fad3e88253f7d74964114c84355c4053923a57fc60bcf",
      "s": "0x0d6ef38cf8c697dfb28436e69e3f372e90d862cb903b7ce58711ce749f20ff74",
      "v": 28,
      "creates": null,
      "raw": "0xf86d028568c61714008255f094077bc4363ebf116c408c421b293cb018d22779fc89056bc75e2d63100000801ca0ebaf5c47b22790cc4d9fad3e88253f7d74964114c84355c4053923a57fc60bcfa00d6ef38cf8c697dfb28436e69e3f372e90d862cb903b7ce58711ce749f20ff74",
      "networkId": 0,
      "chainId": 0
    }
  ]
}