{
  "hash": "0xd0f3f6c6d52986305e7e38c235cd839c663aca816eb4facd10a3cda5024f338b",
  "parentHash": "0x5d53a8b0890951004b8d92a6d24dfff2b3395047c396bfbeb4cbd257f490f230",
  "number": 88290,
  "timestamp": 1439605857,
  "nonce": "0xae7e0822793ed652",
  "difficulty": 3198759501463,
  "gasLimit": {
    "_hex": "0x2fefd8"
  },
  "gasUsed": {
    "_hex": "0x5208"
  },
  "miner": "0xD0ee3F53eE0fCf3F9fbCcdd17BD1b6441DdC2074",
  "extraData": "0x476574682f76312e302e312d38326566323666362f6c696e75782f676f312e34",
  "transactions": [
    {
      "hash": "0xde7229a186386ee780e4919a7eff2eb0cb9b596e441246a822a1933b38656153",
      "blockHash": "0xd0f3f6c6d52986305e7e38c235cd839c663aca816eb4facd10a3cda5024f338b",
      "blockNumber": 88290,
      "transactionIndex": 0,
      "confirmations": null,
      "from": "0x007f7f58D3eb5b7510A301eCC749FC1fCDDBE14D",
      "gasPrice": {
        "_hex": "0xd3e337855"
      },
      "gasLimit": {
        "_hex": "0x15f90"
      },
      "to": "0xb1abce2918E21ddb93AA452731a12672A3d9F75a",
      "value": {
        "_hex": "0xbfafdb91781540000"
      },
      "nonce": 4,
      "data": "0x",
      "r": "0x3a323b3e6944b1040eb823e0c621b46674c9623aa6f28b3fe117cf51e498e468",
      "s": "0x0a7d2eee4cd6e57311055ee6fc7f9414d0989f6aea1b156e76fe568497fd71b5",
      "v": 27,
      "creates": null,
      "raw": "0xf86e04850d3e33785583015f9094b1abce2918e21ddb93aa452731a12672a3d9f75a890bfafdb91781540000801ba03a323b3e6944b1040eb823e0c621b46674c9623aa6f28b3fe117cf51e498e468a00a7d2eee4cd6e57311055ee6fc7f9414d0989f6aea1b156e76fe568497fd71b5",
      "networkId": 0,
      "chainId": 0
    }
  ]
}