{
  "hash": "0x87d0905d18cbbb7c302b6dd8f7187d5b06ef08d6ec6522634cdf4457c0b18715",
  "parentHash": "0xc933c7469ccc64198f5811b2739dc5b4a010efd33fe25e1dc3e08e6d659547c3",
  "number": 99201,
  "timestamp": 1439786039,
  "nonce": "0x86e0637106374616",
  "difficulty": 3806672198542,
  "gasLimit": {
    "_hex": "0x2fefd8"
  },
  "gasUsed": {
    "_hex": "0x5208"
  },
  "miner": "0x790b8a3cE86E707ED0eD32bF89B3269692a23CC1",
  "extraData": "0xd783010001844765746887676f312e342e32856c696e7578",
  "transactions": [
    {
      "hash": "0x44df925f572430abb3e3fd381e9735c47936f002c6ab117960e724e86c69addb",
      "blockHash": "0x87d0905d18cbbb7c302b6dd8f7187d5b06ef08d6ec6522634cdf4457c0b18715",
      "blockNumber": 99201,
      "transactionIndex": 0,
      "confirmations": null,
      "from": "0xD9666150A9dA92d9108198a4072970805a8B3428",
      "gasPrice": {
        "_hex": "0xd8b17023f"
      },
      "gasLimit": {
        "_hex": "0x5208"
      },
      "to": "0x32Be343B94f860124dC4fEe278FDCBD38C102D88",
      "value": {
        "_hex": "0x455f3a88a7387c00"
      },
      "nonce": 34,
      "data": "0x",
      "r": "0xd8ec078a9aa580e509aaf07c571e57976c696476d9ec9189546ab04f1e07725e",
      "s": "0x772059a9cb2fd363b9f681f196428d79a1efed10111283035e6d305d25f882b9",
      "v": 27,
      "creates": null,
      "raw": "0xf86c22850d8b17023f8252089432be343b94f860124dc4fee278fdcbd38c102d8888455f3a88a7387c00801ba0d8ec078a9aa580e509aaf07c571e57976c696476d9ec9189546ab04f1e07725ea0772059a9cb2fd363b9f681f196428d79a1efed10111283035e6d305d25f882b9",
      "networkId": 0,
      "chainId": 0
    }
  ]
}