{
  "hash": "0xa7ace822e43f7126fa32ac1d37342d8ac56998bd9f6d4189187a83ecc9ebf167",
  "parentHash": "0x015f783b1f557cfcb69cd478d32795bae3a8e229d7cfd05ad3f60478ec572aa9",
  "number": 99125,
  "timestamp": 1439784855,
  "nonce": "0x9ba6023e481641a9",
  "difficulty": 3810425989857,
  "gasLimit": {
    "_hex": "0x2fefd8"
  },
  "gasUsed": {
    "_hex": "0x5208"
  },
  "miner": "0xe6A7a1d47ff21B6321162AEA7C6CB457D5476Bca",
  "extraData": "0x476574682f76312e302e312d38326566323666362f6c696e75782f676f312e34",
  "transactions": [
    {
      "hash": "0x5d84c7c07e7ad880ca4c08c30fb4f50955e8955bdcbe8f9782b55122366afde7",
      "blockHash": "0xa7ace822e43f7126fa32ac1d37342d8ac56998bd9f6d4189187a83ecc9ebf167",
      "blockNumber": 99125,
      "transactionIndex": 0,
      "confirmations": null,
      "from": "0x2910543Af39abA0Cd09dBb2D50200b3E800A63D2",
      "gasPrice": {
        "_hex": "0xcec79176b"
      },
      "gasLimit": {
        "_hex": "0x5208"
      },
      "to": "0x6ACfef6b58D6EE01D4BdB53CA81c5D6560824446",
      "value": {
        "_hex": "0x8ab55f8b52078000"
      },
      "nonce": 939,
      "data": "0x",
      "r": "0xbd636dfcbf7fedb2c53b91bcc74531ab60962e8252a515eff3aafaf2299e2be8",
      "s": "0x136d4376060fbed6170007d276b970c1db7dc94de7bcb8d9f7b0c3df76b7dee4",
      "v": 28,
      "creates": null,
      "raw": "0xf86e8203ab850cec79176b825208946acfef6b58d6ee01d4bdb53ca81c5d6560824446888ab55f8b52078000801ca0bd636dfcbf7fedb2c53b91bcc74531ab60962e8252a515eff3aafaf2299e2be8a0136d4376060fbed6170007d276b970c1db7dc94de7bcb8d9f7b0c3df76b7dee4",
      "networkId": 0,
      "chainId": 0
    }
  ]
}