{
  "hash": "0x40d7be1518830de83104d35cd7416b6bf8753af2a4ae372c12c94a5cce0a4e0e",
  "parentHash": "0x0b8dd426d6ecc7fd5e44f16f2a59771038e1877125d6e689ce3cdd6582daf79c",
  "number": 74798,
  "timestamp": 1439392575,
  "nonce": "0x00b9d5d215148f77",
  "difficulty": 2193427021738,
  "gasLimit": {
    "_hex": "0x2fefd8"
  },
  "gasUsed": {
    "_hex": "0x5208"
  },
  "miner": "0xe6A7a1d47ff21B6321162AEA7C6CB457D5476Bca",
  "extraData": "0x476574682f76312e302e312d38326566323666362f6c696e75782f676f312e34",
  "transactions": [
    {
      "hash": "0x77ee6e57e952f2d2edae8969d8bf935802faf6f7b5436e9db26138f83d38107e",
      "blockHash": "0x40d7be1518830de83104d35cd7416b6bf8753af2a4ae372c12c94a5cce0a4e0e",
      "blockNumber": 74798,
      "transactionIndex": 0,
      "confirmations": null,
      "from": "0x32Be343B94f860124dC4fEe278FDCBD38C102D88",
      "gasPrice": {
        "_hex": "0xde2680755"
      },
      "gasLimit": {
        "_hex": "0x5208"
      },
      "to": "0x139961171236F8260f7D28B94b5a7352Bb114F80",
      "value": {
        "_hex": "0x15cabb5f2a6b470000"
      },
      "nonce": 328,
      "data": "0x",
      "r": "0x73779bd4de65d0968aa420fc62155e10b2cd316ce56a208a2d0a1268f4a6056c",
      "s": "0x2e79c344c9586e98d990990312805c9fd4c5474303c5dec28ba4322dba4907a8",
      "v": 27,
      "creates": null,
      "raw": "0xf86f820148850de268075582520894139961171236f8260f7d28b94b5a7352bb114f808915cabb5f2a6b470000801ba073779bd4de65d0968aa420fc62155e10b2cd316ce56a208a2d0a1268f4a6056ca02e79c344c9586e98d990990312805c9fd4c5474303c5dec28ba4322dba4907a8",
      "networkId": 0,
      "chainId": 0
    }
  ]
}