{
  "hash": "0x4eac23d1e11cedf2e1a56be3aa18ef9dde3e906f74ccc965e64595cb4ee27e1c",
  "parentHash": "0x332ceab1fdee683c86fed4a0e15969eedea6e57060bafdff38abbf3753276efb",
  "number": 114946,
  "timestamp": 1440049140,
  "nonce": "0x8590d82e9d5cb778",
  "difficulty": 4474759691199,
  "gasLimit": {
    "_hex": "0x2fefd8"
  },
  "gasUsed": {
    "_hex": "0x5208"
  },
  "miner": "0x52bc44d5378309EE2abF1539BF71dE1b7d7bE3b5",
  "extraData": "0x476574682f76312e302e312d65626434373230372f6c696e75782f676f312e34",
  "transactions": [
    {
      "hash": "0x2c8ed07b68babc8545f8957edc768e7acead82828ee44a88b78f1b0b6ed6d06e",
      "blockHash": "0x4eac23d1e11cedf2e1a56be3aa18ef9dde3e906f74ccc965e64595cb4ee27e1c",
      "blockNumber": 114946,
      "transactionIndex": 0,
      "confirmations": null,
      "from": "0x07fa0859A7282d3c93c1A1168421077878E5c54b",
      "gasPrice": {
        "_hex": "0xddbddc8b2"
      },
      "gasLimit": {
        "_hex": "0x5208"
      },
      "to": "0x32Be343B94f860124dC4fEe278FDCBD38C102D88",
      "value": {
        "_hex": "0xab830ebd9e2b0000"
      },
      "nonce": 1,
      "data": "0x",
      "r": "0xb61de17a1226ca6c9bb25156c575ee8300caad451b13b37142b49c369b5fc348",
      "s": "0x37a6f978c35feb53545c1e647a9792374de698d21f641027c9131be4c8d3d95e",
      "v": 27,
      "creates": null,
      "raw": "0xf86c01850ddbddc8b28252089432be343b94f860124dc4fee278fdcbd38c102d8888ab830ebd9e2b0000801ba0b61de17a1226ca6c9bb25156c575ee8300caad451b13b37142b49c369b5fc348a037a6f978c35feb53545c1e647a9792374de698d21f641027c9131be4c8d3d95e",
      "networkId": 0,
      "chainId": 0
    }
  ]
}