{
  "hash": "0x6f92438344b8ba39e4e346c408bf9d3889c2952a0edfb8e5a0cc56932ba6a3b8",
  "parentHash": "0x3a8f9c194f5574b497f15b8d8a8699729be17bcea2aded9d8f2bffa05c15176e",
  "number": 63847,
  "timestamp": 1439211167,
  "nonce": "0x965626ac2c16b92e",
  "difficulty": 1852174699952,
  "gasLimit": {
    "_hex": "0x2fefd8"
  },
  "gasUsed": {
    "_hex": "0x5208"
  },
  "miner": "0x0eDEd3DA479d0beF8eeC92A76644D3f4E3C177f7",
  "extraData": "0x476574682f76312e302e312f6c696e75782f676f312e342e32",
  "transactions": [
    {
      "hash": "0x455102fe0ad2e4b0f0d98a40efe7314c827fd0e0c09b59f6711c6d046a6ba98e",
      "blockHash": "0x6f92438344b8ba39e4e346c408bf9d3889c2952a0edfb8e5a0cc56932ba6a3b8",
      "blockNumber": 63847,
      "transactionIndex": 0,
      "confirmations": null,
      "from": "0xBFdD9820a04283b289957956353b5F3C1F665EcF",
      "gasPrice": {
        "_hex": "0xd01cebe5d"
      },
      "gasLimit": {
        "_hex": "0x5208"
      },
      "to": "0x32Be343B94f860124dC4fEe278FDCBD38C102D88",
      "value": {
        "_hex": "0x455f6686abe37000"
      },
      "nonce": 15,
      "data": "0x",
      "r": "0xc1cec05ffd4cee73ac7c64570022388207bcf7a6cb152480b1877c73684e2394",
      "s": "0x190da4edd71c240cb5d8ab25317c206286d1a95cae866475a708780f21840944",
      "v": 27,
      "creates": null,
      "raw": "0xf86c0f850d01cebe5d8252089432be343b94f860124dc4fee278fdcbd38c102d8888455f6686abe37000801ba0c1cec05ffd4cee73ac7c64570022388207bcf7a6cb152480b1877c73684e2394a0190da4edd71c240cb5d8ab25317c206286d1a95cae866475a708780f21840944",
      "networkId": 0,
      "chainId": 0
    }
  ]
}