{
  "hash": "0xc9aa90050f0576e8ba14d367e97dda41303f63aff49a57179bf4b8dcf123814f",
  "parentHash": "0xdc5c3d1e0dc79d0abab94b87e3909e172f26ef4bb8b1a7462c90ec9e000df25e",
  "number": 120882,
  "timestamp": 1440167447,
  "nonce": "0x2d9771862a237f5b",
  "difficulty": 4449813613447,
  "gasLimit": {
    "_hex": "0x2fefd8"
  },
  "gasUsed": {
    "_hex": "0xa410"
  },
  "miner": "0xe6A7a1d47ff21B6321162AEA7C6CB457D5476Bca",
  "extraData": "0xd783010002844765746887676f312e342e32856c696e7578",
  "transactions": [
    {
      "hash": "0x6d20c6e3a26dcab3f7bd44e51fd28f616cdcf9559c941842f8ce19f126c5e007",
      "blockHash": "0xc9aa90050f0576e8ba14d367e97dda41303f63aff49a57179bf4b8dcf123814f",
      "blockNumber": 120882,
      "transactionIndex": 0,
      "confirmations": null,
      "from": "0x276e2f360f94f35DDc4a45F16Ca8771A746a4582",
      "gasPrice": {
        "_hex": "0xcf910f2ac"
      },
      "gasLimit": {
        "_hex": "0x15f90"
      },
      "to": "0x44Cb7068a28bc4B195e658ae160CC64289BC4012",
      "value": {
        "_hex": "0xde0b6b3a7640000"
      },
      "nonce": 2,
      "data": "0x",
      "r": "0xa0395cd63d7fdb916345f185ba4687fadef902c4277ab133d8aba57792331983",
      "s": "0x754f84cf16d5da20375ad1dfd87541f3cb9f7518874a57ebea2b17595b71da3f",
      "v": 28,
      "creates": null,
      "raw": "0xf86d02850cf910f2ac83015f909444cb7068a28bc4b195e658ae160cc64289bc4012880de0b6b3a7640000801ca0a0395cd63d7fdb916345f185ba4687fadef902c4277ab133d8aba57792331983a0754f84cf16d5da20375ad1dfd87541f3cb9f7518874a57ebea2b17595b71da3f",
      "networkId": 0,
      "chainId": 0
    },
    {
      "hash": "0xfc02979f231f783e0172722fa85413033c0732a72467e2c550ab952d4bfb6384",
      "blockHash": "0xc9aa90050f0576e8ba14d367e97dda41303f63aff49a57179bf4b8dcf123814f",
      "blockNumber": 120882,
      "transactionIndex": 1,
      "confirmations": null,
      "from": "0xcabcF33e299eEFB1bBde6Ef75a21853831e8b339",
      "gasPrice": {
        "_hex": "0xba43b7400"
      },
      "gasLimit": {
        "_hex": "0x15f90"
      },
      "to": "0xf00955cEDD33a99B4a993aABeb4239e268aaD294",
      "value": {
        "_hex": "0x4139c1192c560000"
      },
      "nonce": 5,
      "data": "0x",
      "r": "0xb7f26553bc9aa76058bc9594dccea7d1a507618feaea5138f723b6908de8e4db",
      "s": "0x7963f1a1775e6408abbc2cf01a1615798a9f127b9f3de7d427969a737df81735",
      "v": 27,
      "creates": null,
      "raw": "0xf86d05850ba43b740083015f9094f00955cedd33a99b4a993aabeb4239e268aad294884139c1192c560000801ba0b7f26553bc9aa76058bc9594dccea7d1a507618feaea5138f723b6908de8e4dba07963f1a1775e6408abbc2cf01a1615798a9f127b9f3de7d427969a737df81735",
      "networkId": 0,
      "chainId": 0
    }
  ]
}