{
  "hash": "0x68337a5380ffc1c49a67bfc4e48fb3301684ef61d58bc176fa36a59c17091d49",
  "parentHash": "0x18f11750e55e053f57dcd90a7046599a4cdb8a0453f2b2073296ab8863b1098d",
  "number": 51551,
  "timestamp": 1439006859,
  "nonce": "0x90781be38a9f971a",
  "difficulty": 1561975312474,
  "gasLimit": {
    "_hex": "0xbe96a"
  },
  "gasUsed": {
    "_hex": "0x7a120"
  },
  "miner": "0xf927a40C8B7F6E07c5af7FA2155B4864a4112B13",
  "extraData": "0x476574682f76312e302e302f6c696e75782f676f312e342e32",
  "transactions": [
    {
      "hash": "0xc2bfa2d70aa30e9ad2ba9d20e221641871b66b99fd736228427789acbdf9816a",
      "blockHash": "0x68337a5380ffc1c49a67bfc4e48fb3301684ef61d58bc176fa36a59c17091d49",
      "blockNumber": 51551,
      "transactionIndex": 0,
      "confirmations": null,
      "from": "0xBD744E3F13D79B33F6c8E1d5E32F8E9BA2866c46",
      "gasPrice": {
        "_hex": "0xe16433aa2"
      },
      "gasLimit": {
        "_hex": "0x7a120"
      },
      "to": "0xBAA54d6E90c3F4d7Ebec11bD180134C7eD8eBb52",
      "value": {
        "_hex": "0x16345785d8a0000"
      },
      "nonce": 8,
      "data": "0x",
      "r": "0x0d6731b3ec689f7262fed3ddd8d259517393ca9c81835d93f8dc2cc27f4bdd46",
      "s": "0x4b580d6699aa7e2efff092e52269b00a6a3023fb26153eaf558b59faa9e979f8",
      "v": 27,
      "creates": null,
      "raw": "0xf86d08850e16433aa28307a12094baa54d6e90c3f4d7ebec11bd180134c7ed8ebb5288016345785d8a0000801ba00d6731b3ec689f7262fed3ddd8d259517393ca9c81835d93f8dc2cc27f4bdd46a04b580d6699aa7e2efff092e52269b00a6a3023fb26153eaf558b59faa9e979f8",
      "networkId": 0,
      "chainId": 0
    }
  ]
}