{
  "hash": "0xb04b74d3cf70985d6347ad4e0d95773a961f2cd2d4ffcb6577c035b2870be45f",
  "parentHash": "0xdffff74bce3d7e20a5f30322e6d49d1298db10c23b667ffee2f8ff29ac6186d4",
  "number": 71028,
  "timestamp": 1439329357,
  "nonce": "0xea114f9f0bce358f",
  "difficulty": 2154071777242,
  "gasLimit": {
    "_hex": "0x2fefd8"
  },
  "gasUsed": {
    "_hex": "0x84530"
  },
  "miner": "0x107C98584d4B18bC54E1D74F4d7a0bF505Ca466f",
  "extraData": "0x",
  "transactions": [
    {
      "hash": "0x6b4e7729836a85851cf5c5206f3d36faa240747ec7cc042efbeda88d41c2b641",
      "blockHash": "0xb04b74d3cf70985d6347ad4e0d95773a961f2cd2d4ffcb6577c035b2870be45f",
      "blockNumber": 71028,
      "transactionIndex": 0,
      "confirmations": null,
      "from": "0xf661E21B71A9CA331E251e51a412857D2B61d8F8",
      "gasPrice": {
        "_hex": "0xd7d40ace3"
      },
      "gasLimit": {
        "_hex": "0x7a120"
      },
      "to": "0x109C4f2CCc82C4d77Bde15F306707320294Aea3F",
      "value": {
        "_hex": "0xde0b6b3a7640000"
      },
      "nonce": 0,
      "data": "0x",
      "r": "0xffd52c8b7c761bf44c594e97c50411912037bd33f1839fecb027589c4b64b690",
      "s": "0x74aefb9dc0656c26feded20838a500f9b5dbd88bb5e36d693f3b38c1ef75fd45",
      "v": 28,
      "creates": null,
      "raw": "0xf86d80850d7d40ace38307a12094109c4f2ccc82c4d77bde15f306707320294aea3f880de0b6b3a7640000801ca0ffd52c8b7c761bf44c594e97c50411912037bd33f1839fecb027589c4b64b690a074aefb9dc0656c26feded20838a500f9b5dbd88bb5e36d693f3b38c1ef75fd45",
      "networkId": 0,
      "chainId": 0
    },
    {
      "hash": "0x8960891a503cc7e65da22ad48767b3134156f1616b0c2efaa8721511593f33d4",
      "blockHash": "0xb04b74d3cf70985d6347ad4e0d95773a961f2cd2d4ffcb6577c035b2870be45f",
      "blockNumber": 71028,
      "transactionIndex": 1,
      "confirmations": null,
      "from": "0x32fA0E86cd087dD68D693190F32D93310909eD53",
      "gasPrice": {
        "_hex": "0xd1f217cbf"
      },
      "gasLimit": {
        "_hex": "0x5208"
      },
      "to": "0xce455f69D98200FFa3710AfB5e7BDF099ee27194",
      "value": {
        "_hex": "0x56bc75e2d63100000"
      },
      "nonce": 0,
      "data": "0x",
      "r": "0xd06bedf4485f4bab10722fe5a46e418b9761363456b6d6db050461be37ab9192",
      "s": "0x08bf20ed0c3e520e9743b712c9b60326f691d4e9bb06b1bb984a69377b0f6e5d",
      "v": 27,
      "creates": null,
      "raw": "0xf86d80850d1f217cbf82520894ce455f69d98200ffa3710afb5e7bdf099ee2719489056bc75e2d63100000801ba0d06bedf4485f4bab10722fe5a46e418b9761363456b6d6db050461be37ab9192a008bf20ed0c3e520e9743b712c9b60326f691d4e9bb06b1bb984a69377b0f6e5d",
      "networkId": 0,
      "chainId": 0
    },
    {
      "hash": "0x934f0e97d6cd9e17e573e119305eeddbab53d45c712b95ba96becb016532862a",
      "blockHash": "0xb04b74d3cf70985d6347ad4e0d95773a961f2cd2d4ffcb6577c035b2870be45f",
      "blockNumber": 71028,
      "transactionIndex": 2,
      "confirmations": null,
      "from": "0x36d85Dc3683156e63Bf880A9fAb7788CF8143a27",
      "gasPrice": {
        "_hex": "0xcd6e7fc4c"
      },
      "gasLimit": {
        "_hex": "0x15f90"
      },
      "to": "0xc2eBB1bCc5d5FD9Ed01D876fAC5CFF45B5bF8bf4",
      "value": {
        "_hex": "0x8ac7230489e80000"
      },
      "nonce": 6,
      "data": "0x",
      "r": "0x38820776a9a9946c26473891f24bcb0f4a92b103c89d86f764c4b66ac4172d93",
      "s": "0x6d8a4eba011fcc135c67432491abab1971828cb77d85df8c26ba2fda5014ae9a",
      "v": 28,
      "creates": null,
      "raw": "0xf86d06850cd6e7fc4c83015f9094c2ebb1bcc5d5fd9ed01d876fac5cff45b5bf8bf4888ac7230489e80000801ca038820776a9a9946c26473891f24bcb0f4a92b103c89d86f764c4b66ac4172d93a06d8a4eba011fcc135c67432491abab1971828cb77d85df8c26ba2fda5014ae9a",
      "networkId": 0,
      "chainId": 0
    }
  ]
}