{
  "hash": "0xba8debcb302bd3a1910eecc82941d246af1575f235f27a9377a5acfbadf86f20",
  "parentHash": "0x9a654496c44b39cb3f5f18e1f1ab5d1dd40e3d41ce6345d356c0c995672a773f",
  "number": 82449,
  "timestamp": 1439519508,
  "nonce": "0xd560edd5d8f20d3c",
  "difficulty": 2379933719142,
  "gasLimit": {
    "_hex": "0x2fefd8"
  },
  "gasUsed": {
    "_hex": "0xa410"
  },
  "miner": "0x007f7f58D3eb5b7510A301eCC749FC1fCDDBE14D",
  "extraData": "0x476574682f76312e302e312f77696e646f77732f676f312e342e32",
  "transactions": [
    {
      "hash": "0xc5574b9c6f9c7ab9b96d0da9cda68fe9fbecdeb20babd1c8ca9fe700c68bf19e",
      "blockHash": "0xba8debcb302bd3a1910eecc82941d246af1575f235f27a9377a5acfbadf86f20",
      "blockNumber": 82449,
      "transactionIndex": 0,
      "confirmations": null,
      "from": "0x79d5794171E11dd5C2f0e26E1C187319db2FE6f7",
      "gasPrice": {
        "_hex": "0xd200446f9"
      },
      "gasLimit": {
        "_hex": "0x5208"
      },
      "to": "0x32Be343B94f860124dC4fEe278FDCBD38C102D88",
      "value": {
        "_hex": "0x455f50ff91f25400"
      },
      "nonce": 22,
      "data": "0x",
      "r": "0x957413737a6551eb307d0e8a230401f72a0a8d3b4c379dc84ea893d5ec2ea730",
      "s": "0x042e9932109fb3f6f48515e82e1206ebb1e0e4bac1a286e8bdb415e9b227600d",
      "v": 28,
      "creates": null,
      "raw": "0xf86c16850d200446f98252089432be343b94f860124dc4fee278fdcbd38c102d8888455f50ff91f25400801ca0957413737a6551eb307d0e8a230401f72a0a8d3b4c379dc84ea893d5ec2ea730a0042e9932109fb3f6f48515e82e1206ebb1e0e4bac1a286e8bdb415e9b227600d",
      "networkId": 0,
      "chainId": 0
    },
    {
      "hash": "0x2eff7e4eedb04527d5b30eceecdf238784de0187662d713c961355e7cf285dd7",
      "blockHash": "0xba8debcb302bd3a1910eecc82941d246af1575f235f27a9377a5acfbadf86f20",
      "blockNumber": 82449,
      "transactionIndex": 1,
      "confirmations": null,
      "from": "0xa70a9a7040d542C632D8e0bE7c5513A8a5Bbc752",
      "gasPrice": {
        "_hex": "0xd200446f9"
      },
      "gasLimit": {
        "_hex": "0x5208"
      },
      "to": "0x32Be343B94f860124dC4fEe278FDCBD38C102D88",
      "value": {
        "_hex": "0x8ac2ee594b5ff000"
      },
      "nonce": 61,
      "data": "0x",
      "r": "0x4d3aab6004cffea9c2fab3ae196722270548322921f13f2b0aac188fe1c9d1b5",
      "s": "0x28aa38065cb2fc2d9d261a159b28060364d9c71c29fa2aa55b9691683a62c992",
      "v": 27,
      "creates": null,
      "raw": "0xf86c3d850d200446f98252089432be343b94f860124dc4fee278fdcbd38c102d88888ac2ee594b5ff000801ba04d3aab6004cffea9c2fab3ae196722270548322921f13f2b0aac188fe1c9d1b5a028aa38065cb2fc2d9d261a159b28060364d9c71c29fa2aa55b9691683a62c992",
      "networkId": 0,
      "chainId": 0
    }
  ]
}