{
  "hash": "0xe05eead8fda51728e77418ba1aa4ea347ed8894a8ca5dd3e22de808d3d28b517",
  "parentHash": "0xf35137aaf0b2540f0dd9d54c75ee8254d083f70a3213e3ae293e2e47c53aee1f",
  "number": 74253,
  "timestamp": 1439383058,
  "nonce": "0x3c706bc064ac1146",
  "difficulty": 2216177903361,
  "gasLimit": {
    "_hex": "0x2fefd8"
  },
  "gasUsed": {
    "_hex": "0x7b0c0"
  },
  "miner": "0x190174d939CC332eE1Ea9351AD703ddF7364Ca68",
  "extraData": "0x476574682f76312e302e312d38326566323666362f6c696e75782f676f312e34",
  "transactions": [
    {
      "hash": "0x9ff02db0c4ac1dd4dff7c94517732c09a11ead47a0643138e32a5d17bd89bcd6",
      "blockHash": "0xe05eead8fda51728e77418ba1aa4ea347ed8894a8ca5dd3e22de808d3d28b517",
      "blockNumber": 74253,
      "transactionIndex": 0,
      "confirmations": null,
      "from": "0xe6A7a1d47ff21B6321162AEA7C6CB457D5476Bca",
      "gasPrice": {
        "_hex": "0xd4e9750fb"
      },
      "gasLimit": {
        "_hex": "0x55f0"
      },
      "to": "0x91d32201228cd1Dea4e21d71f7A9e0CeF5de4A39",
      "value": {
        "_hex": "0x41691e1527361cf8"
      },
      "nonce": 798,
      "data": "0x",
      "r": "0x4b7f5b26093f7b62d0926f429e88f3e6e7ce18b643241c2f8c51b741971b94b8",
      "s": "0x793191ffce39aadb7a92261a607e0025a92ea93885b2a917abf98e62fad569c7",
      "v": 27,
      "creates": null,
      "raw": "0xf86e82031e850d4e9750fb8255f09491d32201228cd1dea4e21d71f7a9e0cef5de4a398841691e1527361cf8801ba04b7f5b26093f7b62d0926f429e88f3e6e7ce18b643241c2f8c51b741971b94b8a0793191ffce39aadb7a92261a607e0025a92ea93885b2a917abf98e62fad569c7",
      "networkId": 0,
      "chainId": 0
    },
    {
      "hash": "0xd7a40690edd597d630c16217015500ffc7ef6060cd5947a7d8620abc9b2292e8",
      "blockHash": "0xe05eead8fda51728e77418ba1aa4ea347ed8894a8ca5dd3e22de808d3d28b517",
      "blockNumber": 74253,
      "transactionIndex": 1,
      "confirmations": null,
      "from": "0xe6A7a1d47ff21B6321162AEA7C6CB457D5476Bca",
      "gasPrice": {
        "_hex": "0xd4e9750fb"
      },
      "gasLimit": {
        "_hex": "0x55f0"
      },
      "to": "0x6c341709A69F0D286ff289986ECd928bb3a51B7A",
      "value": {
        "_hex": "0x434fbcecb26f64b0"
      },
      "nonce": 799,
      "data": "0x",
      "r": "0xe750ffb71f09633f8a8eaf0a61feb86be94f1710507f13d27e9158e248b32645",
      "s": "0x514ed37d2cdf1dd4b31cf1e14c8acefe8427c85f2fee364cc563f3b15490f393",
      "v": 28,
      "creates": null,
      "raw": "0xf86e82031f850d4e9750fb8255f0946c341709a69f0d286ff289986ecd928bb3a51b7a88434fbcecb26f64b0801ca0e750ffb71f09633f8a8eaf0a61feb86be94f1710507f13d27e9158e248b32645a0514ed37d2cdf1dd4b31cf1e14c8acefe8427c85f2fee364cc563f3b15490f393",
      "networkId": 0,
      "chainId": 0
    },
    {
      "hash": "0x2125bf2fd7b13c8e7103cec60e09d7c40c04441e5ce013f69173dc9bc88fce75",
      "blockHash": "0xe05eead8fda51728e77418ba1aa4ea347ed8894a8ca5dd3e22de808d3d28b517",
      "blockNumber": 74253,
      "transactionIndex": 2,
      "confirmations": null,
      "from": "0xe6A7a1d47ff21B6321162AEA7C6CB457D5476Bca",
      "gasPrice": {
        "_hex": "0xd4e9750fb"
      },
      "gasLimit": {
        "_hex": "0x55f0"
      },
      "to": "0xad74C8133300eB63De8d69A384B1E8CcFe28DED7",
      "value": {
        "_hex": "0x44e73aff88200af0"
      },
      "nonce": 800,
      "data": "0x",
      "r": "0x2a268eef4f9601fcf34e8da139589acdd521ac1346ced715902a1728ac39e71d",
      "s": "0x2557119898f8e82635e08bdbc8155381bee8ae2ebba35921e5ca641d4c1cf156",
      "v": 28,
      "creates": null,
      "raw": "0xf86e820320850d4e9750fb8255f094ad74c8133300eb63de8d69a384b1e8ccfe28ded78844e73aff88200af0801ca02a268eef4f9601fcf34e8da139589acdd521ac1346ced715902a1728ac39e71da02557119898f8e82635e08bdbc8155381bee8ae2ebba35921e5ca641d4c1cf156",
      "networkId": 0,
      "chainId": 0
    },
    {
      "hash": "0x12261d27327705381f7417a93e3f25a7e097dd2b6419dc3dbc9551aca7a0b961",
      "blockHash": "0xe05eead8fda51728e77418ba1aa4ea347ed8894a8ca5dd3e22de808d3d28b517",
      "blockNumber": 74253,
      "transactionIndex": 3,
      "confirmations": null,
      "from": "0xe6A7a1d47ff21B6321162AEA7C6CB457D5476Bca",
      "gasPrice": {
        "_hex": "0xd4e9750fb"
      },
      "gasLimit": {
        "_hex": "0x55f0"
      },
      "to": "0x5adA3743144f1235d8cef97daAD6c123F20E7330",
      "value": {
        "_hex": "0x47ab810cf8ff7318"
      },
      "nonce": 801,
      "data": "0x",
      "r": "0x6d1a33442ea0ab7c8af6e514fbdbf3bbbe951a46874cb2d77cf3e803ac7618e9",
      "s": "0x2a82ce53754cdccbe377cd339ccf52f666ea794b87f9ffb6045c7563973b2ef7",
      "v": 28,
      "creates": null,
      "raw": "0xf86e820321850d4e9750fb8255f0945ada3743144f1235d8cef97daad6c123f20e73308847ab810cf8ff7318801ca06d1a33442ea0ab7c8af6e514fbdbf3bbbe951a46874cb2d77cf3e803ac7618e9a02a82ce53754cdccbe377cd339ccf52f666ea794b87f9ffb6045c7563973b2ef7",
      "networkId": 0,
      "chainId": 0
    },
    {
      "hash": "0xca81249897fb2a263ae7132b8ab817fc10df08d75983483cce8c41ef91f53333",
      "blockHash": "0xe05eead8fda51728e77418ba1aa4ea347ed8894a8ca5dd3e22de808d3d28b517",
      "blockNumber": 74253,
      "transactionIndex": 4,
      "confirmations": null,
      "from": "0xe6A7a1d47ff21B6321162AEA7C6CB457D5476Bca",
      "gasPrice": {
        "_hex": "0xd4e9750fb"
      },
      "gasLimit": {
        "_hex": "0x55f0"
      },
      "to": "0x985D744C50fdcB355d105EE00565A8b32BF0B08f",
      "value": {
        "_hex": "0x4848bc1367356e30"
      },
      "nonce": 802,
      "data": "0x",
      "r": "0xca633f882dee17f4321f5704cbc7473269091d181e05f4ca2f2f5f33485a9f24",
      "s": "0x47caadc5f69becc891af0b2c7268cdaa5428682bb63d69123eb2a01a59963caf",
      "v": 28,
      "creates": null,
      "raw": "0xf86e820322850d4e9750fb8255f094985d744c50fdcb355d105ee00565a8b32bf0b08f884848bc1367356e30801ca0ca633f882dee17f4321f5704cbc7473269091d181e05f4ca2f2f5f33485a9f24a047caadc5f69becc891af0b2c7268cdaa5428682bb63d69123eb2a01a59963caf",
      "networkId": 0,
      "chainId": 0
    },
    {
      "hash": "0x947f8d616bf5dde26208be9b6b2fbdda2809c61cf325938dd2282c8a72b1c39d",
      "blockHash": "0xe05eead8fda51728e77418ba1aa4ea347ed8894a8ca5dd3e22de808d3d28b517",
      "blockNumber": 74253,
      "transactionIndex": 5,
      "confirmations": null,
      "from": "0xe6A7a1d47ff21B6321162AEA7C6CB457D5476Bca",
      "gasPrice": {
        "_hex": "0xd4e9750fb"
      },
      "gasLimit": {
        "_hex": "0x55f0"
      },
      "to": "0xa114c802ef29776f05f9c6925cE915232e8ae102",
      "value": {
        "_hex": "0x49125188eb2ca990"
      },
      "nonce": 803,
      "data": "0x",
      "r": "0x0e917ad21be656adf3e0a2b1e23fd32dbe359c97c31737a2e3d6ac68e7340ad9",
      "s": "0x7965bc2abf80b2390b55a954ec255c13d4a2cf75d992bf0036e7839055bda0c6",
      "v": 27,
      "creates": null,
      "raw": "0xf86e820323850d4e9750fb8255f094a114c802ef29776f05f9c6925ce915232e8ae1028849125188eb2ca990801ba00e917ad21be656adf3e0a2b1e23fd32dbe359c97c31737a2e3d6ac68e7340ad9a07965bc2abf80b2390b55a954ec255c13d4a2cf75d992bf0036e7839055bda0c6",
      "networkId": 0,
      "chainId": 0
    },
    {
      "hash": "0xd0052d90751df5a35860962796036b326daf914df0a9f5e760741126c820d933",
      "blockHash": "0xe05eead8fda51728e77418ba1aa4ea347ed8894a8ca5dd3e22de808d3d28b517",
      "blockNumber": 74253,
      "transactionIndex": 6,
      "confirmations": null,
      "from": "0xe6A7a1d47ff21B6321162AEA7C6CB457D5476Bca",
      "gasPrice": {
        "_hex": "0xd4e9750fb"
      },
      "gasLimit": {
        "_hex": "0x55f0"
      },
      "to": "0x1CC77ed71531833bAC1eA0E757Cd150dCD297920",
      "value": {
        "_hex": "0x49523a65e5a3db50"
      },
      "nonce": 804,
      "data": "0x",
      "r": "0x0c89b17adc45c031bc104659645e014bd403fca42c7e7c88a17bc2f0ebb6b4ec",
      "s": "0x169bc323edbeba66a0cd982bf5b71fe622ea1b0e448b1cb3ecce9f0d02affde1",
      "v": 27,
      "creates": null,
      "raw": "0xf86e820324850d4e9750fb8255f0941cc77ed71531833bac1ea0e757cd150dcd2979208849523a65e5a3db50801ba00c89b17adc45c031bc104659645e014bd403fca42c7e7c88a17bc2f0ebb6b4eca0169bc323edbeba66a0cd982bf5b71fe622ea1b0e448b1cb3ecce9f0d02affde1",
      "networkId": 0,
      "chainId": 0
    },
    {
      "hash": "0x9a2b06c5d61430f75e0cd01a3b37312df39082b2f23ed7e201b7598e87c86dc4",
      "blockHash": "0xe05eead8fda51728e77418ba1aa4ea347ed8894a8ca5dd3e22de808d3d28b517",
      "blockNumber": 74253,
      "transactionIndex": 7,
      "confirmations": null,
      "from": "0xe6A7a1d47ff21B6321162AEA7C6CB457D5476Bca",
      "gasPrice": {
        "_hex": "0xd4e9750fb"
      },
      "gasLimit": {
        "_hex": "0x55f0"
      },
      "to": "0x629e35e0A481d821293F354E0dD27E43a354D061",
      "value": {
        "_hex": "0x4a053b2f76b0de68"
      },
      "nonce": 805,
      "data": "0x",
      "r": "0x9b4b831550dfd1153d9870252e09ffab5baa7a5e9fe25911509473ee5dc8e23b",
      "s": "0x3dbf0f93df1a8953ab3e6e5d9379f1c025d703b231f2eef87c9ed26bde5e4c4f",
      "v": 28,
      "creates": null,
      "raw": "0xf86e820325850d4e9750fb8255f094629e35e0a481d821293f354e0dd27e43a354d061884a053b2f76b0de68801ca09b4b831550dfd1153d9870252e09ffab5baa7a5e9fe25911509473ee5dc8e23ba03dbf0f93df1a8953ab3e6e5d9379f1c025d703b231f2eef87c9ed26bde5e4c4f",
      "networkId": 0,
      "chainId": 0
    },
    {
      "hash": "0x9ce6cc6ad910a227c63be5f66c393c9edc63a920de5311fc117575910e846dc5",
      "blockHash": "0xe05eead8fda51728e77418ba1aa4ea347ed8894a8ca5dd3e22de808d3d28b517",
      "blockNumber": 74253,
      "transactionIndex": 8,
      "confirmations": null,
      "from": "0xe6A7a1d47ff21B6321162AEA7C6CB457D5476Bca",
      "gasPrice": {
        "_hex": "0xd4e9750fb"
      },
      "gasLimit": {
        "_hex": "0x55f0"
      },
      "to": "0x8f9822e187F830d1100DF89B4b088c6Ce5F10d7d",
      "value": {
        "_hex": "0x4afdc669d35d5088"
      },
      "nonce": 806,
      "data": "0x",
      "r": "0x58589e85d3eaa9c152c55abf058425197610e64b8851f87ef102f490354195be",
      "s": "0x303f5f0bd09709bd60877ad2e4b0023d2fae68268031d0af9c920c68dfc6b3c4",
      "v": 28,
      "creates": null,
      "raw": "0xf86e820326850d4e9750fb8255f0948f9822e187f830d1100df89b4b088c6ce5f10d7d884afdc669d35d5088801ca058589e85d3eaa9c152c55abf058425197610e64b8851f87ef102f490354195bea0303f5f0bd09709bd60877ad2e4b0023d2fae68268031d0af9c920c68dfc6b3c4",
      "networkId": 0,
      "chainId": 0
    },
    {
      "hash": "0x4077019662b22ba79ee2cf73be6d8d39b2c82b7c48b1ffa9efbc742ff20dbc63",
      "blockHash": "0xe05eead8fda51728e77418ba1aa4ea347ed8894a8ca5dd3e22de808d3d28b517",
      "blockNumber": 74253,
      "transactionIndex": 9,
      "confirmations": null,
      "from": "0xe6A7a1d47ff21B6321162AEA7C6CB457D5476Bca",
      "gasPrice": {
        "_hex": "0xd4e9750fb"
      },
      "gasLimit": {
        "_hex": "0x55f0"
      },
      "to": "0x6934e4839d59dEa0583b03643eCb8c10d6B150fc",
      "value": {
        "_hex": "0x4b9ed752076f2b18"
      },
      "nonce": 807,
      "data": "0x",
      "r": "0x74d59142682ed6e0d4296bde82fa4c2f18f87cd51ad5bde57f17fb8b66b00bdd",
      "s": "0x102b42a3ff0351f3f71b700aab7c87e9172ce41804be03cf4c4d6eab5473d09f",
      "v": 27,
      "creates": null,
      "raw": "0xf86e820327850d4e9750fb8255f0946934e4839d59dea0583b03643ecb8c10d6b150fc884b9ed752076f2b18801ba074d59142682ed6e0d4296bde82fa4c2f18f87cd51ad5bde57f17fb8b66b00bdda0102b42a3ff0351f3f71b700aab7c87e9172ce41804be03cf4c4d6eab5473d09f",
      "networkId": 0,
      "chainId": 0
    },
    {
      "hash": "0x268fb5b1198437b27d48d32fa6abee2c2e043af570c3dad209166468de754356",
      "blockHash": "0xe05eead8fda51728e77418ba1aa4ea347ed8894a8ca5dd3e22de808d3d28b517",
      "blockNumber": 74253,
      "transactionIndex": 10,
      "confirmations": null,
      "from": "0xe6A7a1d47ff21B6321162AEA7C6CB457D5476Bca",
      "gasPrice": {
        "_hex": "0xd4e9750fb"
      },
      "gasLimit": {
        "_hex": "0x55f0"
      },
      "to": "0x06D8532FBF8657Fe91402132191f01Dc4e1E54d0",
      "value": {
        "_hex": "0x4c23e8f3c50dd0b0"
      },
      "nonce": 808,
      "data": "0x",
      "r": "0x6fefc1f5d54e67744fb931b9710d34e991184ce7758ecc7c570155ee35d28574",
      "s": "0x2bbbd4396e9661c2818cb120276b86e7fe090b084557b2935b05f8b997e8c091",
      "v": 28,
      "creates": null,
      "raw": "0xf86e820328850d4e9750fb8255f09406d8532fbf8657fe91402132191f01dc4e1e54d0884c23e8f3c50dd0b0801ca06fefc1f5d54e67744fb931b9710d34e991184ce7758ecc7c570155ee35d28574a02bbbd4396e9661c2818cb120276b86e7fe090b084557b2935b05f8b997e8c091",
      "networkId": 0,
      "chainId": 0
    },
    {
      "hash": "0x9cd6ea72118469fa63d94373a1cb686c87aa7363e89b29e152416295212d7822",
      "blockHash": "0xe05eead8fda51728e77418ba1aa4ea347ed8894a8ca5dd3e22de808d3d28b517",
      "blockNumber": 74253,
      "transactionIndex": 11,
      "confirmations": null,
      "from": "0xe6A7a1d47ff21B6321162AEA7C6CB457D5476Bca",
      "gasPrice": {
        "_hex": "0xd4e9750fb"
      },
      "gasLimit": {
        "_hex": "0x55f0"
      },
      "to": "0xdC49b9dc1AbB93Ebb856547a1C0578D65f4A32DE",
      "value": {
        "_hex": "0x4e1f66a2f4faedb0"
      },
      "nonce": 809,
      "data": "0x",
      "r": "0x9e86845177b53c589fedc98a8b682f2b7107d0299eab07b94685955ea5e167d6",
      "s": "0x714c6e560f86a3caa69fb9adea0b05490092f55966b2b33adadb3cd27720b77f",
      "v": 27,
      "creates": null,
      "raw": "0xf86e820329850d4e9750fb8255f094dc49b9dc1abb93ebb856547a1c0578d65f4a32de884e1f66a2f4faedb0801ba09e86845177b53c589fedc98a8b682f2b7107d0299eab07b94685955ea5e167d6a0714c6e560f86a3caa69fb9adea0b05490092f55966b2b33adadb3cd27720b77f",
      "networkId": 0,
      "chainId": 0
    },
    {
      "hash": "0xd70c8034d1c2c7be5389e1857ef789450794d98f1e0bd5b93ab61e96c7979afa",
      "blockHash": "0xe05eead8fda51728e77418ba1aa4ea347ed8894a8ca5dd3e22de808d3d28b517",
      "blockNumber": 74253,
      "transactionIndex": 12,
      "confirmations": null,
      "from": "0xe6A7a1d47ff21B6321162AEA7C6CB457D5476Bca",
      "gasPrice": {
        "_hex": "0xd4e9750fb"
      },
      "gasLimit": {
        "_hex": "0x55f0"
      },
      "to": "0xCe266fafD0c5b4fA61Ac52879Cbc1574570Aca16",
      "value": {
        "_hex": "0x4ec07b8f4429f0a0"
      },
      "nonce": 810,
      "data": "0x",
      "r": "0x014d49ad3f84257358c478b903376b62fbd615c88ac2c7ec612d9aa713e91273",
      "s": "0x795fb8d6e3048cbc676ef1c9ca54996b7e6df5f610a5713d2d4c0d8a2fd05380",
      "v": 28,
      "creates": null,
      "raw": "0xf86e82032a850d4e9750fb8255f094ce266fafd0c5b4fa61ac52879cbc1574570aca16884ec07b8f4429f0a0801ca0014d49ad3f84257358c478b903376b62fbd615c88ac2c7ec612d9aa713e91273a0795fb8d6e3048cbc676ef1c9ca54996b7e6df5f610a5713d2d4c0d8a2fd05380",
      "networkId": 0,
      "chainId": 0
    },
    {
      "hash": "0xc8c7bf06c60b5096f5f76848658d1bd776fbede5b62962d3845279daa67af205",
      "blockHash": "0xe05eead8fda51728e77418ba1aa4ea347ed8894a8ca5dd3e22de808d3d28b517",
      "blockNumber": 74253,
      "transactionIndex": 13,
      "confirmations": null,
      "from": "0xe6A7a1d47ff21B6321162AEA7C6CB457D5476Bca",
      "gasPrice": {
        "_hex": "0xd4e9750fb"
      },
      "gasLimit": {
        "_hex": "0x55f0"
      },
      "to": "0x60781265e9850f54AE0Bc9545948d05DeE6FC3e3",
      "value": {
        "_hex": "0x4ecbc111c9df0c08"
      },
      "nonce": 811,
      "data": "0x",
      "r": "0x96c5289b3dcc2d7780b101a384559fbcb406ef70342dd4998fef93d545b8f9fb",
      "s": "0x0b12b1e2a1d336635721e326e1bf38a61c610c823c31d120561cf0baa1ee1643",
      "v": 27,
      "creates": null,
      "raw": "0xf86e82032b850d4e9750fb8255f09460781265e9850f54ae0bc9545948d05dee6fc3e3884ecbc111c9df0c08801ba096c5289b3dcc2d7780b101a384559fbcb406ef70342dd4998fef93d545b8f9fba00b12b1e2a1d336635721e326e1bf38a61c610c823c31d120561cf0baa1ee1643",
      "networkId": 0,
      "chainId": 0
    },
    {
      "hash": "0xdf1d12f5a7251594447968fd6e81a4729494d20c5671d5ce7bbd43fefbde5dec",
      "blockHash": "0xe05eead8fda51728e77418ba1aa4ea347ed8894a8ca5dd3e22de808d3d28b517",
      "blockNumber": 74253,
      "transactionIndex": 14,
      "confirmations": null,
      "from": "0xe6A7a1d47ff21B6321162AEA7C6CB457D5476Bca",
      "gasPrice": {
        "_hex": "0xd4e9750fb"
      },
      "gasLimit": {
        "_hex": "0x55f0"
      },
      "to": "0x9b7999611FD5eFF3ef9A86653490c42E83ED4B8E",
      "value": {
        "_hex": "0x4f797fc9a82319b8"
      },
      "nonce": 812,
      "data": "0x",
      "r": "0x27d9c8a766f1f247a20bb955cf8a26b1e57ae80128be392c8e96d151c79edccd",
      "s": "0x07a6e394e703d5350fb34644f0306cbafa65d3b3ec6e65e16514a0ed25e6eaec",
      "v": 27,
      "creates": null,
      "raw": "0xf86e82032c850d4e9750fb8255f0949b7999611fd5eff3ef9a86653490c42e83ed4b8e884f797fc9a82319b8801ba027d9c8a766f1f247a20bb955cf8a26b1e57ae80128be392c8e96d151c79edccda007a6e394e703d5350fb34644f0306cbafa65d3b3ec6e65e16514a0ed25e6eaec",
      "networkId": 0,
      "chainId": 0
    },
    {
      "hash": "0xc783a3c65211dc58bb3b578cd7acff6991881f39f8dba421d0f236e11f0dbbcc",
      "blockHash": "0xe05eead8fda51728e77418ba1aa4ea347ed8894a8ca5dd3e22de808d3d28b517",
      "blockNumber": 74253,
      "transactionIndex": 15,
      "confirmations": null,
      "from": "0xe6A7a1d47ff21B6321162AEA7C6CB457D5476Bca",
      "gasPrice": {
        "_hex": "0xd4e9750fb"
      },
      "gasLimit": {
        "_hex": "0x55f0"
      },
      "to": "0x8d629C20608135491B5013f1002586A0383130e5",
      "value": {
        "_hex": "0x4fa17c5669b9c300"
      },
      "nonce": 813,
      "data": "0x",
      "r": "0x319bdef365727dab90575e888fe131c7bd345044be65830b956719884aa2796d",
      "s": "0x062c4a827fca039690f5764c06a25a5c134241e1140ce71815acae9e8f821da2",
      "v": 27,
      "creates": null,
      "raw": "0xf86e82032d850d4e9750fb8255f0948d629c20608135491b5013f1002586a0383130e5884fa17c5669b9c300801ba0319bdef365727dab90575e888fe131c7bd345044be65830b956719884aa2796da0062c4a827fca039690f5764c06a25a5c134241e1140ce71815acae9e8f821da2",
      "networkId": 0,
      "chainId": 0
    },
    {
      "hash": "0xb740620ad66890ed78ff9a35ea04054b89b846f2cc660779aeb57f7154aa4a5a",
      "blockHash": "0xe05eead8fda51728e77418ba1aa4ea347ed8894a8ca5dd3e22de808d3d28b517",
      "blockNumber": 74253,
      "transactionIndex": 16,
      "confirmations": null,
      "from": "0xe6A7a1d47ff21B6321162AEA7C6CB457D5476Bca",
      "gasPrice": {
        "_hex": "0xd4e9750fb"
      },
      "gasLimit": {
        "_hex": "0x55f0"
      },
      "to": "0x8263B7757b139904C7cD8511B3D0a6D1479848Ba",
      "value": {
        "_hex": "0x4fe1d4581763e9d8"
      },
      "nonce": 814,
      "data": "0x",
      "r": "0x40b59dbcf15cfd21a1422d9a2b98db0780401057c1fb0970d68eb5de34a17f26",
      "s": "0x38ab231cae6f790d231f147549fbc8706d76fa87bef39120999df7c3532054f8",
      "v": 27,
      "creates": null,
      "raw": "0xf86e82032e850d4e9750fb8255f0948263b7757b139904c7cd8511b3d0a6d1479848ba884fe1d4581763e9d8801ba040b59dbcf15cfd21a1422d9a2b98db0780401057c1fb0970d68eb5de34a17f26a038ab231cae6f790d231f147549fbc8706d76fa87bef39120999df7c3532054f8",
      "networkId": 0,
      "chainId": 0
    },
    {
      "hash": "0xbd8576dbbadd139ec3fb0117e68476285f71a7a348adba0f357d60756bdebe43",
      "blockHash": "0xe05eead8fda51728e77418ba1aa4ea347ed8894a8ca5dd3e22de808d3d28b517",
      "blockNumber": 74253,
      "transactionIndex": 17,
      "confirmations": null,
      "from": "0xe6A7a1d47ff21B6321162AEA7C6CB457D5476Bca",
      "gasPrice": {
        "_hex": "0xd4e9750fb"
      },
      "gasLimit": {
        "_hex": "0x55f0"
      },
      "to": "0xCCe96724c29e042F35bCe1c2405feB0e8E30082b",
      "value": {
        "_hex": "0x4fea15070dc3af38"
      },
      "nonce": 815,
      "data": "0x",
      "r": "0x9370d09c4e24f96dc9da1db076af9e1cf02054e1f08f13366e420c40e9766ef2",
      "s": "0x241b5a24b19176ec1c2170a9303043a642739af3bacb50d9bd74e46ae530ea06",
      "v": 27,
      "creates": null,
      "raw": "0xf86e82032f850d4e9750fb8255f094cce96724c29e042f35bce1c2405feb0e8e30082b884fea15070dc3af38801ba09370d09c4e24f96dc9da1db076af9e1cf02054e1f08f13366e420c40e9766ef2a0241b5a24b19176ec1c2170a9303043a642739af3bacb50d9bd74e46ae530ea06",
      "networkId": 0,
      "chainId": 0
    },
    {
      "hash": "0x3aab1b74146a150c7a2296d94b41655117b1b6b0447d0f7efa02cac616ae1aa8",
      "blockHash": "0xe05eead8fda51728e77418ba1aa4ea347ed8894a8ca5dd3e22de808d3d28b517",
      "blockNumber": 74253,
      "transactionIndex": 18,
      "confirmations": null,
      "from": "0xe6A7a1d47ff21B6321162AEA7C6CB457D5476Bca",
      "gasPrice": {
        "_hex": "0xd4e9750fb"
      },
      "gasLimit": {
        "_hex": "0x55f0"
      },
      "to": "0xD042e5C2443591c48f1FBa5F6bAf8E7193f454B9",
      "value": {
        "_hex": "0x5091932649706900"
      },
      "nonce": 816,
      "data": "0x",
      "r": "0x313a70cc304ee75bc0380191d3eb7dea2966d14b9cdec723a6a82c39b0a0775a",
      "s": "0x4e95af0f8caad39e57c0e64734c6c1cd84329c4c46c8a99c0185e273a4abd119",
      "v": 28,
      "creates": null,
      "raw": "0xf86e820330850d4e9750fb8255f094d042e5c2443591c48f1fba5f6baf8e7193f454b9885091932649706900801ca0313a70cc304ee75bc0380191d3eb7dea2966d14b9cdec723a6a82c39b0a0775aa04e95af0f8caad39e57c0e64734c6c1cd84329c4c46c8a99c0185e273a4abd119",
      "networkId": 0,
      "chainId": 0
    },
    {
      "hash": "0x32762ff8779e8e0f493ee29168df24615fa881ff3e684ad1831cc0b7b68b55a3",
      "blockHash": "0xe05eead8fda51728e77418ba1aa4ea347ed8894a8ca5dd3e22de808d3d28b517",
      "blockNumber": 74253,
      "transactionIndex": 19,
      "confirmations": null,
      "from": "0xe6A7a1d47ff21B6321162AEA7C6CB457D5476Bca",
      "gasPrice": {
        "_hex": "0xd4e9750fb"
      },
      "gasLimit": {
        "_hex": "0x55f0"
      },
      "to": "0x4adA827a479Cf31e27be19Fcf33Fb06D881057b7",
      "value": {
        "_hex": "0x50f2e60254da5338"
      },
      "nonce": 817,
      "data": "0x",
      "r": "0xbd408d43ca3069db323403b27f527cb02d08fdb814b86c1da181ae6b0594f648",
      "s": "0x40a89f0d85325130ce61f3cfd0eab92e3343181c20959dd1c6f10f488cfed2c7",
      "v": 27,
      "creates": null,
      "raw": "0xf86e820331850d4e9750fb8255f0944ada827a479cf31e27be19fcf33fb06d881057b78850f2e60254da5338801ba0bd408d43ca3069db323403b27f527cb02d08fdb814b86c1da181ae6b0594f648a040a89f0d85325130ce61f3cfd0eab92e3343181c20959dd1c6f10f488cfed2c7",
      "networkId": 0,
      "chainId": 0
    },
    {
      "hash": "0x03188d9f5ab102ef90c9b9c38764710a24b1b6e9795d015a558dba6f162ab671",
      "blockHash": "0xe05eead8fda51728e77418ba1aa4ea347ed8894a8ca5dd3e22de808d3d28b517",
      "blockNumber": 74253,
      "transactionIndex": 20,
      "confirmations": null,
      "from": "0xe6A7a1d47ff21B6321162AEA7C6CB457D5476Bca",
      "gasPrice": {
        "_hex": "0xd4e9750fb"
      },
      "gasLimit": {
        "_hex": "0x55f0"
      },
      "to": "0xBf2E71Ec98f4FAbfFC80EAc8f941ce73d5e02E9b",
      "value": {
        "_hex": "0x51fdbead0b502460"
      },
      "nonce": 818,
      "data": "0x",
      "r": "0xbaafba9514e1dcf0b77f5ca163cfba59a7cfa77681a7ca8fb0e1fa4dd8b08190",
      "s": "0x2b7a4092851687b879f0fe9f1b896251c118074eaebcc26b278ef8c40a4c7d97",
      "v": 28,
      "creates": null,
      "raw": "0xf86e820332850d4e9750fb8255f094bf2e71ec98f4fabffc80eac8f941ce73d5e02e9b8851fdbead0b502460801ca0baafba9514e1dcf0b77f5ca163cfba59a7cfa77681a7ca8fb0e1fa4dd8b08190a02b7a4092851687b879f0fe9f1b896251c118074eaebcc26b278ef8c40a4c7d97",
      "networkId": 0,
      "chainId": 0
    },
    {
      "hash": "0x00e69c3ed816c54533cbfc84b7ef37733d9317f75ea6995f6031eb32ef90aa3c",
      "blockHash": "0xe05eead8fda51728e77418ba1aa4ea347ed8894a8ca5dd3e22de808d3d28b517",
      "blockNumber": 74253,
      "transactionIndex": 21,
      "confirmations": null,
      "from": "0xe6A7a1d47ff21B6321162AEA7C6CB457D5476Bca",
      "gasPrice": {
        "_hex": "0xd4e9750fb"
      },
      "gasLimit": {
        "_hex": "0x55f0"
      },
      "to": "0x4C84686094c69469502847D76a8190f3CD9e921c",
      "value": {
        "_hex": "0x53ce58da19713c20"
      },
      "nonce": 819,
      "data": "0x",
      "r": "0xdb1b569be45f2a04a2c39be77af8f7160cfa510f69c5f1c3c68dfd59f1ab95d6",
      "s": "0x0890bac01a442f47facf49885aa9ec14646abfe432bb7f18134f6768f54a56fa",
      "v": 28,
      "creates": null,
      "raw": "0xf86e820333850d4e9750fb8255f0944c84686094c69469502847d76a8190f3cd9e921c8853ce58da19713c20801ca0db1b569be45f2a04a2c39be77af8f7160cfa510f69c5f1c3c68dfd59f1ab95d6a00890bac01a442f47facf49885aa9ec14646abfe432bb7f18134f6768f54a56fa",
      "networkId": 0,
      "chainId": 0
    },
    {
      "hash": "0x95e64ccffab623f22edf9598b7b578831f699693ce0d2def95325975bc97d55d",
      "blockHash": "0xe05eead8fda51728e77418ba1aa4ea347ed8894a8ca5dd3e22de808d3d28b517",
      "blockNumber": 74253,
      "transactionIndex": 22,
      "confirmations": null,
      "from": "0xe6A7a1d47ff21B6321162AEA7C6CB457D5476Bca",
      "gasPrice": {
        "_hex": "0xd4e9750fb"
      },
      "gasLimit": {
        "_hex": "0x55f0"
      },
      "to": "0xC5d30A49174e1a78D4b8a71824e78563cB041e94",
      "value": {
        "_hex": "0x54c1a27f06d06068"
      },
      "nonce": 820,
      "data": "0x",
      "r": "0xb823aca10e293c27b148c53ca583701c565b6d0af14d258998eda1c4f8f987f3",
      "s": "0x3e52c2618172f4b5af5e52a489e41a42be3a3d668118e6f55e9b302ae477eb30",
      "v": 28,
      "creates": null,
      "raw": "0xf86e820334850d4e9750fb8255f094c5d30a49174e1a78d4b8a71824e78563cb041e948854c1a27f06d06068801ca0b823aca10e293c27b148c53ca583701c565b6d0af14d258998eda1c4f8f987f3a03e52c2618172f4b5af5e52a489e41a42be3a3d668118e6f55e9b302ae477eb30",
      "networkId": 0,
      "chainId": 0
    },
    {
      "hash": "0xd5971ef2db0359e0b81ef4bbba507980417151a0c50d4f0cfb0825ae4c12ea48",
      "blockHash": "0xe05eead8fda51728e77418ba1aa4ea347ed8894a8ca5dd3e22de808d3d28b517",
      "blockNumber": 74253,
      "transactionIndex": 23,
      "confirmations": null,
      "from": "0x32Be343B94f860124dC4fEe278FDCBD38C102D88",
      "gasPrice": {
        "_hex": "0xd19964020"
      },
      "gasLimit": {
        "_hex": "0x5208"
      },
      "to": "0xBDbaF6434d40D6355B1e80e40Cc4AB9C68D96116",
      "value": {
        "_hex": "0x22b1c8c1227a00000"
      },
      "nonce": 316,
      "data": "0x",
      "r": "0x7d28e4fd411e4748c8d5b80889d1c46f56080ba53c83638b92d97c7354d4ffda",
      "s": "0x4db017f187a6d6c03e54f8a9f29d06412f365c80fcd20da3382b72c4581238cf",
      "v": 28,
      "creates": null,
      "raw": "0xf86f82013c850d1996402082520894bdbaf6434d40d6355b1e80e40cc4ab9c68d9611689022b1c8c1227a00000801ca07d28e4fd411e4748c8d5b80889d1c46f56080ba53c83638b92d97c7354d4ffdaa04db017f187a6d6c03e54f8a9f29d06412f365c80fcd20da3382b72c4581238cf",
      "networkId": 0,
      "chainId": 0
    }
  ]
}