{
  "hash": "0xd0e05010bf2766b43e69bcb243a9b1905c8c1ad91103071744e7deaa6e7d8ef6",
  "parentHash": "0xd79d2e62c4b711708ec5c922203676c77dff8c69d4e3dad6244fa88c765e2bed",
  "number": 120816,
  "timestamp": 1440166353,
  "nonce": "0x24f9fa4004ec9faa",
  "difficulty": 4449848623894,
  "gasLimit": {
    "_hex": "0x2fefd8"
  },
  "gasUsed": {
    "_hex": "0xa410"
  },
  "miner": "0xD0ee3F53eE0fCf3F9fbCcdd17BD1b6441DdC2074",
  "extraData": "0x",
  "transactions": [
    {
      "hash": "0x4fd5612e6652c43ad872ccbfc97d557ad3e6d733c58985be2ef058181bcf8563",
      "blockHash": "0xd0e05010bf2766b43e69bcb243a9b1905c8c1ad91103071744e7deaa6e7d8ef6",
      "blockNumber": 120816,
      "transactionIndex": 0,
      "confirmations": null,
      "from": "0x948c61d80269E56ed71E8f278e080Fb70bb1B856",
      "gasPrice": {
        "_hex": "0xd641f460d"
      },
      "gasLimit": {
        "_hex": "0x5208"
      },
      "to": "0xe45cCAcEEBDf954eAF2E94E546adEe9263dFaa05",
      "value": {
        "_hex": "0x10f0cb5b9535981a078"
      },
      "nonce": 1,
      "data": "0x",
      "r": "0x700e7de8e8afd8441ae51dcd8d962e5d69d29d8836db0ebe91a06c2952c6e322",
      "s": "0x48faa67225f188f23b7e1f7eeb3d494757c8fe5e28fcb2996c46dafa6fe8a22d",
      "v": 28,
      "creates": null,
      "raw": "0xf86e01850d641f460d82520894e45ccaceebdf954eaf2e94e546adee9263dfaa058a010f0cb5b9535981a078801ca0700e7de8e8afd8441ae51dcd8d962e5d69d29d8836db0ebe91a06c2952c6e322a048faa67225f188f23b7e1f7eeb3d494757c8fe5e28fcb2996c46dafa6fe8a22d",
      "networkId": 0,
      "chainId": 0
    },
    {
      "hash": "0x0ff302901e3dc9ac1c022a8d41dba4cdc728e99d8b6a013e8489cd01deeed3fa",
      "blockHash": "0xd0e05010bf2766b43e69bcb243a9b1905c8c1ad91103071744e7deaa6e7d8ef6",
      "blockNumber": 120816,
      "transactionIndex": 1,
      "confirmations": null,
      "from": "0xe997A23B159E2E2a5Ce72333262972374B15425c",
      "gasPrice": {
        "_hex": "0xba43b7400"
      },
      "gasLimit": {
        "_hex": "0x15f90"
      },
      "to": "0x33F36DffD23cf019833E1d59cBc7138824b12289",
      "value": {
        "_hex": "0x4563918244f40000"
      },
      "nonce": 5,
      "data": "0x",
      "r": "0xee94f70222207872c7f866c2c71a937b7dd05d4887930edeb3756ff4f0b8a854",
      "s": "0x60cbef85e723b8c26b9e4fa7300dff50a3de10b4f456109d17c93a0e9d033364",
      "v": 27,
      "creates": null,
      "raw": "0xf86d05850ba43b740083015f909433f36dffd23cf019833e1d59cbc7138824b12289884563918244f40000801ba0ee94f70222207872c7f866c2c71a937b7dd05d4887930edeb3756ff4f0b8a854a060cbef85e723b8c26b9e4fa7300dff50a3de10b4f456109d17c93a0e9d033364",
      "networkId": 0,
      "chainId": 0
    }
  ]
}