{
  "hash": "0x6c810c45a0435432af74310b03c8295fb6dfc1124e57c018ac184720550d17bb",
  "parentHash": "0xcb548347639d4cc45faab1e0e1a4e2646f9b8c5df6b9866db5f5305a0d49e74a",
  "number": 92096,
  "timestamp": 1439666788,
  "nonce": "0x0c23a8b01719f80a",
  "difficulty": 3470645586847,
  "gasLimit": {
    "_hex": "0x2fefd8"
  },
  "gasUsed": {
    "_hex": "0x5208"
  },
  "miner": "0x5F8F73E26CdF436f19Cb24C82F90A15AFe55b592",
  "extraData": "0x476574682f76312e302e312f77696e646f77732f676f312e342e32",
  "transactions": [
    {
      "hash": "0x6dcbe85d691406f6988c875b3ee6d5b18cebb74d54a5495cfd195bf41fa3b8c1",
      "blockHash": "0x6c810c45a0435432af74310b03c8295fb6dfc1124e57c018ac184720550d17bb",
      "blockNumber": 92096,
      "transactionIndex": 0,
      "confirmations": null,
      "from": "0xB0bA9ec050654A083c88777e30261F815cB0A3B7",
      "gasPrice": {
        "_hex": "0xe077e15a8"
      },
      "gasLimit": {
        "_hex": "0x5208"
      },
      "to": "0x32Be343B94f860124dC4fEe278FDCBD38C102D88",
      "value": {
        "_hex": "0xc404b0849f9178000"
      },
      "nonce": 2,
      "data": "0x",
      "r": "0x2606e8c334fa15a77c0f2acf390065e4c5ef51f87282414ea06979dd7a75f1c1",
      "s": "0x06f4050035bd8970fb70b4ad20fe41bd61dbc7553bcfe22ac8b38dad5d31f08d",
      "v": 27,
      "creates": null,
      "raw": "0xf86d02850e077e15a88252089432be343b94f860124dc4fee278fdcbd38c102d88890c404b0849f9178000801ba02606e8c334fa15a77c0f2acf390065e4c5ef51f87282414ea06979dd7a75f1c1a006f4050035bd8970fb70b4ad20fe41bd61dbc7553bcfe22ac8b38dad5d31f08d",
      "networkId": 0,
      "chainId": 0
    }
  ]
}