{
  "hash": "0x888666db4ebb815093d35467dbd641995840b59f232c1e7836ba688b137771b7",
  "parentHash": "0x7d0d3a9feb2630179ce5b717d3d342cbd29343add76d1d64e34aaaac929ac07b",
  "number": 47087,
  "timestamp": 1438934058,
  "nonce": "0x8ab86827d56e0e0a",
  "difficulty": 1458119298446,
  "gasLimit": {
    "_hex": "0x9661"
  },
  "gasUsed": {
    "_hex": "0x5208"
  },
  "miner": "0xbb7B8287f3F0a933474a79eAe42CBCa977791171",
  "extraData": "0x476574682f4c5649562f76312e302e312f6c696e75782f676f312e342e32",
  "transactions": [
    {
      "hash": "0xa40f8ce782444e4cce72b320148d4b4422d0abfefc0dfe27c677c8793b83cf72",
      "blockHash": "0x888666db4ebb815093d35467dbd641995840b59f232c1e7836ba688b137771b7",
      "blockNumber": 47087,
      "transactionIndex": 0,
      "confirmations": null,
      "from": "0x8FE6aF6ed877F324FeD769837369e2762416f5A7",
      "gasPrice": {
        "_hex": "0xce4f3dd0d"
      },
      "gasLimit": {
        "_hex": "0x5208"
      },
      "to": "0x32Be343B94f860124dC4fEe278FDCBD38C102D88",
      "value": {
        "_hex": "0x1b1ae0b524e5700000"
      },
      "nonce": 0,
      "data": "0x",
      "r": "0xf356b56622fd6d2f34578760325f5137e32ab232b6397c8273bcff2740fba291",
      "s": "0x3c9eceb0917722eb55f3892a36cb17c3ae8afb75159fbcd2a102047b15559b3d",
      "v": 28,
      "creates": null,
      "raw": "0xf86d80850ce4f3dd0d8252089432be343b94f860124dc4fee278fdcbd38c102d88891b1ae0b524e5700000801ca0f356b56622fd6d2f34578760325f5137e32ab232b6397c8273bcff2740fba291a03c9eceb0917722eb55f3892a36cb17c3ae8afb75159fbcd2a102047b15559b3d",
      "networkId": 0,
      "chainId": 0
    }
  ]
}