{
  "hash": "0x478a63d61f8f927d3ad04b79adef7cc14bdf74482e5860800e03c3a5af22997e",
  "parentHash": "0x035dd8b269e67eb0a2459aad65164f58f00763992c3f7bf90764f6c6d0454612",
  "number": 84367,
  "timestamp": 1439548738,
  "nonce": "0xcce4e66bfaa5ed0a",
  "difficulty": 2542760368027,
  "gasLimit": {
    "_hex": "0x2fefd8"
  },
  "gasUsed": {
    "_hex": "0xa410"
  },
  "miner": "0xe6A7a1d47ff21B6321162AEA7C6CB457D5476Bca",
  "extraData": "0x476574682f76312e302e312d38326566323666362f6c696e75782f676f312e34",
  "transactions": [
    {
      "hash": "0xcc0f4db8e956562c08907378b3d220325bfad62ac1a6100b935d7390609a0e7a",
      "blockHash": "0x478a63d61f8f927d3ad04b79adef7cc14bdf74482e5860800e03c3a5af22997e",
      "blockNumber": 84367,
      "transactionIndex": 0,
      "confirmations": null,
      "from": "0x2910543Af39abA0Cd09dBb2D50200b3E800A63D2",
      "gasPrice": {
        "_hex": "0xdda9f3016"
      },
      "gasLimit": {
        "_hex": "0x5208"
      },
      "to": "0xB111131B23148a685D28A018B3577910B86280FC",
      "value": {
        "_hex": "0x299060a1be4b8000"
      },
      "nonce": 550,
      "data": "0x",
      "r": "0x4bf4f1f067899356cd756c1007668b0fde6c6fd0ecfb881818ca4a3ccccbcda2",
      "s": "0x5b6ae7258d411b34f7882039d43c8856d3b3035eb625fe6e3daca2b34e572c51",
      "v": 28,
      "creates": null,
      "raw": "0xf86e820226850dda9f301682520894b111131b23148a685d28a018b3577910b86280fc88299060a1be4b8000801ca04bf4f1f067899356cd756c1007668b0fde6c6fd0ecfb881818ca4a3ccccbcda2a05b6ae7258d411b34f7882039d43c8856d3b3035eb625fe6e3daca2b34e572c51",
      "networkId": 0,
      "chainId": 0
    },
    {
      "hash": "0x82f9ab143665c0c9534d3a0a342bdd1817f9f0e211ce3eb3a376054af7d5ff58",
      "blockHash": "0x478a63d61f8f927d3ad04b79adef7cc14bdf74482e5860800e03c3a5af22997e",
      "blockNumber": 84367,
      "transactionIndex": 1,
      "confirmations": null,
      "from": "0x2910543Af39abA0Cd09dBb2D50200b3E800A63D2",
      "gasPrice": {
        "_hex": "0xdda9f3016"
      },
      "gasLimit": {
        "_hex": "0x5208"
      },
      "to": "0x12cbF607E6b04f34f251Ac08cF55444786Add488",
      "value": {
        "_hex": "0x299060a1be4b8000"
      },
      "nonce": 551,
      "data": "0x",
      "r": "0x70233e794887b2bd5aeb766f12653b89080dcda427498405509cec4790f6c170",
      "s": "0x0f1785db825b4a3784f967988cbe7e1f68c60b2f9f3adda029a4c33df0e24094",
      "v": 28,
      "creates": null,
      "raw": "0xf86e820227850dda9f30168252089412cbf607e6b04f34f251ac08cf55444786add48888299060a1be4b8000801ca070233e794887b2bd5aeb766f12653b89080dcda427498405509cec4790f6c170a00f1785db825b4a3784f967988cbe7e1f68c60b2f9f3adda029a4c33df0e24094",
      "networkId": 0,
      "chainId": 0
    }
  ]
}