{
  "hash": "0x1ca2ca29ae80cabf5c8355810a4df03e2adeea3ce5826b5a7894f6f03b7522f8",
  "parentHash": "0xde334181d2673423a61714bcfb62f1a46fb9aa290de241b67dd16301a9fb1db7",
  "number": 100122,
  "timestamp": 1439801091,
  "nonce": "0x79289a23bd178bac",
  "difficulty": 3841730520583,
  "gasLimit": {
    "_hex": "0x2fefd8"
  },
  "gasUsed": {
    "_hex": "0xa410"
  },
  "miner": "0xe6A7a1d47ff21B6321162AEA7C6CB457D5476Bca",
  "extraData": "0x476574682f76312e302e312d38326566323666362f6c696e75782f676f312e34",
  "transactions": [
    {
      "hash": "0x8a90b19b013e2b08b28de4f34fd67ffcd8b0170820cc1166235a68c0744fb517",
      "blockHash": "0x1ca2ca29ae80cabf5c8355810a4df03e2adeea3ce5826b5a7894f6f03b7522f8",
      "blockNumber": 100122,
      "transactionIndex": 0,
      "confirmations": null,
      "from": "0x853Bff007d269E0526E871360d79d69D602770dc",
      "gasPrice": {
        "_hex": "0xd22eb2f2a"
      },
      "gasLimit": {
        "_hex": "0x5208"
      },
      "to": "0x32Be343B94f860124dC4fEe278FDCBD38C102D88",
      "value": {
        "_hex": "0x359e2c84d66962000"
      },
      "nonce": 10,
      "data": "0x",
      "r": "0x8b87941311009091aceb2d288ba37ddeef0b5aa7ca491bdda2819910291f7cbb",
      "s": "0x5c1a93296e9170a9b67dd128e6bbc91bb5e12d10d2cff8db0b3f1623e2de2991",
      "v": 28,
      "creates": null,
      "raw": "0xf86d0a850d22eb2f2a8252089432be343b94f860124dc4fee278fdcbd38c102d88890359e2c84d66962000801ca08b87941311009091aceb2d288ba37ddeef0b5aa7ca491bdda2819910291f7cbba05c1a93296e9170a9b67dd128e6bbc91bb5e12d10d2cff8db0b3f1623e2de2991",
      "networkId": 0,
      "chainId": 0
    },
    {
      "hash": "0xf5ee2074638d019d8b19708dbb1036f30006bfadef1d9a65d4df1a0a8734d6e8",
      "blockHash": "0x1ca2ca29ae80cabf5c8355810a4df03e2adeea3ce5826b5a7894f6f03b7522f8",
      "blockNumber": 100122,
      "transactionIndex": 1,
      "confirmations": null,
      "from": "0xB89C0F465b0472fa5A58eCDd01eD937205ae4d06",
      "gasPrice": {
        "_hex": "0xd22eb2f2a"
      },
      "gasLimit": {
        "_hex": "0x5208"
      },
      "to": "0x32Be343B94f860124dC4fEe278FDCBD38C102D88",
      "value": {
        "_hex": "0x495c2c9967403800"
      },
      "nonce": 7,
      "data": "0x",
      "r": "0x536340afb6c935d9cb10f621f3077a1e94452cd8ee5f7d5c2b352f45d006f07e",
      "s": "0x6f26044b820bb1bbe5cff4b78054fae8cda38e20c916b227790530bda4441b80",
      "v": 28,
      "creates": null,
      "raw": "0xf86c07850d22eb2f2a8252089432be343b94f860124dc4fee278fdcbd38c102d8888495c2c9967403800801ca0536340afb6c935d9cb10f621f3077a1e94452cd8ee5f7d5c2b352f45d006f07ea06f26044b820bb1bbe5cff4b78054fae8cda38e20c916b227790530bda4441b80",
      "networkId": 0,
      "chainId": 0
    }
  ]
}