{
  "hash": "0x7adae89755bf499feb7bc82f0252c35420962e9ef907d7ad3fbb3f0c4982de6d",
  "parentHash": "0x7ef668eb2a31042e04cfe7a33ee7a45c734ff620d06cad684933bffa123f4d60",
  "number": 105449,
  "timestamp": 1439887862,
  "nonce": "0x654b3d431a314bea",
  "difficulty": 4386750225122,
  "gasLimit": {
    "_hex": "0x2fefd8"
  },
  "gasUsed": {
    "_hex": "0x5208"
  },
  "miner": "0xeB1325C8D9d3ea8D74aC11F4B00F1B2367686319",
  "extraData": "0x",
  "transactions": [
    {
      "hash": "0x1940ca4608c738fd7623e3080ad785505bdcaa0ebe836e44065f21b0797b629e",
      "blockHash": "0x7adae89755bf499feb7bc82f0252c35420962e9ef907d7ad3fbb3f0c4982de6d",
      "blockNumber": 105449,
      "transactionIndex": 0,
      "confirmations": null,
      "from": "0x5BeBc02e4CDF3e92B5a2947CfD1430c4EBBa4039",
      "gasPrice": {
        "_hex": "0xcf1f3a1e6"
      },
      "gasLimit": {
        "_hex": "0x5208"
      },
      "to": "0x32Be343B94f860124dC4fEe278FDCBD38C102D88",
      "value": {
        "_hex": "0x9e6e48fb650b1000"
      },
      "nonce": 4,
      "data": "0x",
      "r": "0xcf4d81250b9b126a230a4def63b8a23cd37601e19f1b08824d935084f55c8f96",
      "s": "0x1030ba81d4182c618a9d73a038fefd3c2f43508dade1a2234af5cfbc91337188",
      "v": 27,
      "creates": null,
      "raw": "0xf86c04850cf1f3a1e68252089432be343b94f860124dc4fee278fdcbd38c102d88889e6e48fb650b1000801ba0cf4d81250b9b126a230a4def63b8a23cd37601e19f1b08824d935084f55c8f96a01030ba81d4182c618a9d73a038fefd3c2f43508dade1a2234af5cfbc91337188",
      "networkId": 0,
      "chainId": 0
    }
  ]
}