{
  "hash": "0xa9b2aa35da53c63243de16a569a85149fbb0caeffe1fa2827773f29b48f81ca7",
  "parentHash": "0x147f7665657c8b0540eecfe9c5407c3e46381977b6c49e93603a0a4401814103",
  "number": 70621,
  "timestamp": 1439322865,
  "nonce": "0x51a7b4172cbc885a",
  "difficulty": 2146825952373,
  "gasLimit": {
    "_hex": "0x2fefd8"
  },
  "gasUsed": {
    "_hex": "0x5208"
  },
  "miner": "0x31995C46B15C84523cDEE26f49A681b8237e43F5",
  "extraData": "0x476574682f76312e302e312f77696e646f77732f676f312e342e32",
  "transactions": [
    {
      "hash": "0x8e99c98f82303d94cc7ada4888b701860adaac8b5a69b12e7643a6ba78f53bd9",
      "blockHash": "0xa9b2aa35da53c63243de16a569a85149fbb0caeffe1fa2827773f29b48f81ca7",
      "blockNumber": 70621,
      "transactionIndex": 0,
      "confirmations": null,
      "from": "0x120A270bbC009644e35F0bB6ab13f95b8199c4ad",
      "gasPrice": {
        "_hex": "0xdd51c77d2"
      },
      "gasLimit": {
        "_hex": "0x15f90"
      },
      "to": "0xc9CBB4dB18605df3f84dfB719A58c9C1252cE641",
      "value": {
        "_hex": "0x56bc75e2d63100000"
      },
      "nonce": 207,
      "data": "0x",
      "r": "0xfe849316ccc9e771825997f670fb962ea0b5e08ec9e0548557b8b4c42279b544",
      "s": "0x0bf0efc754250078a8a4e6f7e2acd8c3d47596abf75e7e167921bf0aa89c72f1",
      "v": 28,
      "creates": null,
      "raw": "0xf86f81cf850dd51c77d283015f9094c9cbb4db18605df3f84dfb719a58c9c1252ce64189056bc75e2d63100000801ca0fe849316ccc9e771825997f670fb962ea0b5e08ec9e0548557b8b4c42279b544a00bf0efc754250078a8a4e6f7e2acd8c3d47596abf75e7e167921bf0aa89c72f1",
      "networkId": 0,
      "chainId": 0
    }
  ]
}