{
  "hash": "0x67f56ccf4f6927edbca470ed2530c1567d909b41cdb4372fe5872ac54f1e3801",
  "parentHash": "0x1a36cf3c730291f2c7e47a96d685bc89ae73c2ee8f28d046a04e814088f19710",
  "number": 80732,
  "timestamp": 1439489992,
  "nonce": "0x8b6fecf4417365ff",
  "difficulty": 2435681370822,
  "gasLimit": {
    "_hex": "0x2fefd8"
  },
  "gasUsed": {
    "_hex": "0xa410"
  },
  "miner": "0x852b794C7f024F062F5F22436739478B8EC2e14B",
  "extraData": "0x476574682f76312e302e312f6c696e75782f676f312e342e32",
  "transactions": [
    {
      "hash": "0x5f56955851f0caaa78035522b7af5d58b32cae547a95cbc4eb04484633ab5630",
      "blockHash": "0x67f56ccf4f6927edbca470ed2530c1567d909b41cdb4372fe5872ac54f1e3801",
      "blockNumber": 80732,
      "transactionIndex": 0,
      "confirmations": null,
      "from": "0x16cF55eb83BaC98CB6be71696152762c656d8c89",
      "gasPrice": {
        "_hex": "0xcba7d68c2"
      },
      "gasLimit": {
        "_hex": "0x5208"
      },
      "to": "0x32Be343B94f860124dC4fEe278FDCBD38C102D88",
      "value": {
        "_hex": "0x3635c599a2fa3c0000"
      },
      "nonce": 1,
      "data": "0x",
      "r": "0x06fbf1d79b74d62f1fcfa8f2c3700f04881b7483d6f2472ca0c68b929147f7db",
      "s": "0x0123aace7b795611eca091a8cf97b513ec74c35f41df444a93beec6fdc2746e5",
      "v": 28,
      "creates": null,
      "raw": "0xf86d01850cba7d68c28252089432be343b94f860124dc4fee278fdcbd38c102d88893635c599a2fa3c0000801ca006fbf1d79b74d62f1fcfa8f2c3700f04881b7483d6f2472ca0c68b929147f7dba00123aace7b795611eca091a8cf97b513ec74c35f41df444a93beec6fdc2746e5",
      "networkId": 0,
      "chainId": 0
    },
    {
      "hash": "0x6a137d8ad1d921a24b74d0e7189b42a52ea53dd66f3fb9f7bf24693d794bd23c",
      "blockHash": "0x67f56ccf4f6927edbca470ed2530c1567d909b41cdb4372fe5872ac54f1e3801",
      "blockNumber": 80732,
      "transactionIndex": 1,
      "confirmations": null,
      "from": "0xB0bF4A71F730782368Ef660FE6D298F432F95450",
      "gasPrice": {
        "_hex": "0xcba7d68c2"
      },
      "gasLimit": {
        "_hex": "0x5208"
      },
      "to": "0x32Be343B94f860124dC4fEe278FDCBD38C102D88",
      "value": {
        "_hex": "0x9c1fc622ecdec8000"
      },
      "nonce": 19,
      "data": "0x",
      "r": "0xff75642042039c63dd3f0856dcc02eb6422a1ef4ea4cbdfdf33dbb2c1a243031",
      "s": "0x1549803f7b9db7f730c1938be9b487abd5703cf0498aed0ab9263fd0f6d1036e",
      "v": 27,
      "creates": null,
      "raw": "0xf86d13850cba7d68c28252089432be343b94f860124dc4fee278fdcbd38c102d888909c1fc622ecdec8000801ba0ff75642042039c63dd3f0856dcc02eb6422a1ef4ea4cbdfdf33dbb2c1a243031a01549803f7b9db7f730c1938be9b487abd5703cf0498aed0ab9263fd0f6d1036e",
      "networkId": 0,
      "chainId": 0
    }
  ]
}