{
  "hash": "0x7645ec9966fc5d3659d50d9162514fed5c452c36951f69944e87797f47432ae8",
  "parentHash": "0xc1ffe9e0040e80fd33888e86849e5897ccb2aa76527c40803f02b8d953630169",
  "number": 64600,
  "timestamp": 1439223300,
  "nonce": "0xb5ee5da7bdf3496f",
  "difficulty": 1893152361117,
  "gasLimit": {
    "_hex": "0x2fefd8"
  },
  "gasUsed": {
    "_hex": "0x11074"
  },
  "miner": "0x5F8F73E26CdF436f19Cb24C82F90A15AFe55b592",
  "extraData": "0x476574682f76312e302e312f77696e646f77732f676f312e342e32",
  "transactions": [
    {
      "hash": "0xcfe84100129fcc9b8a07724573f447931c5ddb4c1040e598e1f0f98ebf779070",
      "blockHash": "0x7645ec9966fc5d3659d50d9162514fed5c452c36951f69944e87797f47432ae8",
      "blockNumber": 64600,
      "transactionIndex": 0,
      "confirmations": null,
      "from": "0x549E4951Eda725AA5C0a3101Af620344626f2214",
      "gasPrice": {
        "_hex": "0xba43b7400"
      },
      "gasLimit": {
        "_hex": "0x15f90"
      },
      "to": "0x793AE8C1b1a160BFc07BFB0d04F85eab1A71F4f2",
      "value": {
        "_hex": "0x0"
      },
      "nonce": 0,
      "data": "0x3ba15036",
      "r": "0xafaf7c1f20d43e44570c9feb3b638571f62901382cbbcb086a4f938d4eaaf26d",
      "s": "0x6cebee1b50de92626716fd5233a8ad06fd8864e066ec06ef6e2d77f487a56c20",
      "v": 28,
      "creates": null,
      "raw": "0xf86980850ba43b740083015f9094793ae8c1b1a160bfc07bfb0d04f85eab1a71f4f280843ba150361ca0afaf7c1f20d43e44570c9feb3b638571f62901382cbbcb086a4f938d4eaaf26da06cebee1b50de92626716fd5233a8ad06fd8864e066ec06ef6e2d77f487a56c20",
      "networkId": 0,
      "chainId": 0
    },
    {
      "hash": "0x21e2902ec6f481451ec3facecad650dc09f887d9f1511c270edeeb77a356cf2b",
      "blockHash": "0x7645ec9966fc5d3659d50d9162514fed5c452c36951f69944e87797f47432ae8",
      "blockNumber": 64600,
      "transactionIndex": 1,
      "confirmations": null,
      "from": "0xb3054764a102233C3a5e5E5691787EA61EA4Afd3",
      "gasPrice": {
        "_hex": "0xba43b7400"
      },
      "gasLimit": {
        "_hex": "0x5208"
      },
      "to": "0x3426DD8C75EEDbba37D7501f3410967385101F50",
      "value": {
        "_hex": "0x36ef271c4dd000"
      },
      "nonce": 1,
      "data": "0x",
      "r": "0x3cc06231066f4768dcbbbb80ab12831d08e5863a813fc09b2d964163bfcd84dd",
      "s": "0x1fffc6aca52fad679bbf8e217cfd56be2d5ea47b27f5fdf190df863484356a89",
      "v": 28,
      "creates": null,
      "raw": "0xf86b01850ba43b7400825208943426dd8c75eedbba37d7501f3410967385101f508736ef271c4dd000801ca03cc06231066f4768dcbbbb80ab12831d08e5863a813fc09b2d964163bfcd84dda01fffc6aca52fad679bbf8e217cfd56be2d5ea47b27f5fdf190df863484356a89",
      "networkId": 0,
      "chainId": 0
    }
  ]
}