{
  "hash": "0xd14a8660c8dd2927d2fa2bfc4f8357cf43494283e488b97745526a7463c1f186",
  "parentHash": "0xc1c13b1861bd0594c8e9babbaf152b68ccaf8c750eacc37015208910a5218656",
  "number": 101313,
  "timestamp": 1439821012,
  "nonce": "0xaab5dcf0482a5f93",
  "difficulty": 3813154212260,
  "gasLimit": {
    "_hex": "0x2fefd8"
  },
  "gasUsed": {
    "_hex": "0x5208"
  },
  "miner": "0x7366ADF97960d404c38D975e1A8786bEb14B6507",
  "extraData": "0x476574682f76312e302e312f77696e646f77732f676f312e342e32",
  "transactions": [
    {
      "hash": "0xc39f5ae6a993db84142936e0115f2c42fea0f5fd65eaeefbfd34c524fdce524a",
      "blockHash": "0xd14a8660c8dd2927d2fa2bfc4f8357cf43494283e488b97745526a7463c1f186",
      "blockNumber": 101313,
      "transactionIndex": 0,
      "confirmations": null,
      "from": "0x95B8Be50517B180F2F101f1cFe0E4C66Ad6fa7dd",
      "gasPrice": {
        "_hex": "0xcbb7490b3"
      },
      "gasLimit": {
        "_hex": "0x7530"
      },
      "to": "0xbCab99c9250A69cCD7395f2543ed52FF1e220398",
      "value": {
        "_hex": "0x6124fee993bc0000"
      },
      "nonce": 14,
      "data": "0x",
      "r": "0x158b0c062e35df02d286cd93d60c1ec69db4dfca3c08e611f25274f665ae3fb3",
      "s": "0x4063e3447ac8ab1d4083079673f0413f2705bbc3a26da6fe3591ca7a5d6edf7e",
      "v": 28,
      "creates": null,
      "raw": "0xf86c0e850cbb7490b382753094bcab99c9250a69ccd7395f2543ed52ff1e220398886124fee993bc0000801ca0158b0c062e35df02d286cd93d60c1ec69db4dfca3c08e611f25274f665ae3fb3a04063e3447ac8ab1d4083079673f0413f2705bbc3a26da6fe3591ca7a5d6edf7e",
      "networkId": 0,
      "chainId": 0
    }
  ]
}