{
  "hash": "0xb5f2a7d841172e7760a422a2fb0a7c2b185a12d6d1a77a2d0648c62bfe70412c",
  "parentHash": "0x0d6963c5410c556bbdb5ac7394210f11cafeb61adf88be93c1faaa4ecb153535",
  "number": 107118,
  "timestamp": 1439916341,
  "nonce": "0x0925aad75448a8a3",
  "difficulty": 4465834668495,
  "gasLimit": {
    "_hex": "0x2fefd8"
  },
  "gasUsed": {
    "_hex": "0x5208"
  },
  "miner": "0xe6A7a1d47ff21B6321162AEA7C6CB457D5476Bca",
  "extraData": "0x476574682f76312e302e312d38326566323666362f6c696e75782f676f312e34",
  "transactions": [
    {
      "hash": "0x95c85fb0980d1a0acc4ddb4495b09bff9a4b08159cb090e493116c6eab9a8f8d",
      "blockHash": "0xb5f2a7d841172e7760a422a2fb0a7c2b185a12d6d1a77a2d0648c62bfe70412c",
      "blockNumber": 107118,
      "transactionIndex": 0,
      "confirmations": null,
      "from": "0x86d3856ad0105B9d4199936c1fd203664BA325dC",
      "gasPrice": {
        "_hex": "0xcde9776e9"
      },
      "gasLimit": {
        "_hex": "0x5208"
      },
      "to": "0x32Be343B94f860124dC4fEe278FDCBD38C102D88",
      "value": {
        "_hex": "0x4d8f8bad86f6d000"
      },
      "nonce": 25,
      "data": "0x",
      "r": "0xfa9a846b0e16310af572ce782cfc54d5b113868eb19ea5ca90e3dda966885536",
      "s": "0x05b055ce502bae1a1c70d5e2a1edfaa3c256ac5162860d1411965fe9fa5ebf8f",
      "v": 27,
      "creates": null,
      "raw": "0xf86c19850cde9776e98252089432be343b94f860124dc4fee278fdcbd38c102d88884d8f8bad86f6d000801ba0fa9a846b0e16310af572ce782cfc54d5b113868eb19ea5ca90e3dda966885536a005b055ce502bae1a1c70d5e2a1edfaa3c256ac5162860d1411965fe9fa5ebf8f",
      "networkId": 0,
      "chainId": 0
    }
  ]
}