{
  "hash": "0xd6e6a186c70a0bca951dcab6ccc9bc7c029753cd2e20b6b3ba588015fbe4cabd",
  "parentHash": "0xc378fc4de0a060765b8532169f1f28d9d4136d6dddd7b5107da32ddeaa1184fb",
  "number": 98034,
  "timestamp": 1439766033,
  "nonce": "0x852cc963bf8d20da",
  "difficulty": 3861495885049,
  "gasLimit": {
    "_hex": "0x2fefd8"
  },
  "gasUsed": {
    "_hex": "0x5208"
  },
  "miner": "0x580992B51e3925e23280EfB93d3047C82f17E038",
  "extraData": "0x476574682f76312e302e312f6c696e75782f676f312e342e32",
  "transactions": [
    {
      "hash": "0x6f84fc81f72ea637797fbcd085450fd12689521471a8f9a6335160ded58e87cf",
      "blockHash": "0xd6e6a186c70a0bca951dcab6ccc9bc7c029753cd2e20b6b3ba588015fbe4cabd",
      "blockNumber": 98034,
      "transactionIndex": 0,
      "confirmations": null,
      "from": "0x4A2D52D0898f560E53cdf4585A034517c06d0544",
      "gasPrice": {
        "_hex": "0xba43b7400"
      },
      "gasLimit": {
        "_hex": "0x5208"
      },
      "to": "0xC47Aaa860008be6f65B58c6C6E02a84e666EfE31",
      "value": {
        "_hex": "0x1b9a2b7cb20338f0"
      },
      "nonce": 0,
      "data": "0x",
      "r": "0x5ed9432855c25808935fa81a7735dd319866646c1f9bf3e2e270602ae7f8c5d5",
      "s": "0x44ef82f595b75820c1533322f5911a98ce110035047b7011bddf55b2024fb531",
      "v": 27,
      "creates": null,
      "raw": "0xf86c80850ba43b740082520894c47aaa860008be6f65b58c6c6e02a84e666efe31881b9a2b7cb20338f0801ba05ed9432855c25808935fa81a7735dd319866646c1f9bf3e2e270602ae7f8c5d5a044ef82f595b75820c1533322f5911a98ce110035047b7011bddf55b2024fb531",
      "networkId": 0,
      "chainId": 0
    }
  ]
}