{
  "hash": "0x859bda27bfe1fa03ea86ea2ad3a5438e1b94b3c544eba9b9ad36b2e8c7dbba1a",
  "parentHash": "0x16bf1c87977433bc84d39e20ade0100258c8206c5caf7186664eb5277a0528bd",
  "number": 68911,
  "timestamp": 1439295572,
  "nonce": "0x24dc6014bbf1db24",
  "difficulty": 2025062457693,
  "gasLimit": {
    "_hex": "0x2fefd8"
  },
  "gasUsed": {
    "_hex": "0x19a28"
  },
  "miner": "0x26E3f7C9e444f2Ca9E0BE2aF841bd060cF1CbDDb",
  "extraData": "0x476574682f76312e302e312f6c696e75782f676f312e342e32",
  "transactions": [
    {
      "hash": "0xb53a5afd86eb15089d1d24ef5b166888950abcc98ea82fbbb649b472df25b73a",
      "blockHash": "0x859bda27bfe1fa03ea86ea2ad3a5438e1b94b3c544eba9b9ad36b2e8c7dbba1a",
      "blockNumber": 68911,
      "transactionIndex": 0,
      "confirmations": null,
      "from": "0xcB712c0F75a6899355426d40cd513FF07CE274E5",
      "gasPrice": {
        "_hex": "0xba43b7400"
      },
      "gasLimit": {
        "_hex": "0x5208"
      },
      "to": "0x45Ce3B8C22291b9cc797021FA0ABF8BEdc55A6A4",
      "value": {
        "_hex": "0x4e1253f5de4000"
      },
      "nonce": 1,
      "data": "0x",
      "r": "0x44efee2646446e7870f10752d95aa0096faea8053a3ae28e9e40deedae03cd44",
      "s": "0x736c57801339cbb82c3e8c993b16aae65753c017df01b74a5aa7b2a85344f0a3",
      "v": 27,
      "creates": null,
      "raw": "0xf86b01850ba43b74008252089445ce3b8c22291b9cc797021fa0abf8bedc55a6a4874e1253f5de4000801ba044efee2646446e7870f10752d95aa0096faea8053a3ae28e9e40deedae03cd44a0736c57801339cbb82c3e8c993b16aae65753c017df01b74a5aa7b2a85344f0a3",
      "networkId": 0,
      "chainId": 0
    },
    {
      "hash": "0x1d1122c3d7d0776e8a7d159a4f5108d45f336fa657a08ddffe6720b801426b2f",
      "blockHash": "0x859bda27bfe1fa03ea86ea2ad3a5438e1b94b3c544eba9b9ad36b2e8c7dbba1a",
      "blockNumber": 68911,
      "transactionIndex": 1,
      "confirmations": null,
      "from": "0x1ABbf65f58fDc9483576B66D68B36c2222f72748",
      "gasPrice": {
        "_hex": "0xba43b7400"
      },
      "gasLimit": {
        "_hex": "0x5208"
      },
      "to": "0x438CC3695042594a7F22A8C5264c35F7424BBA80",
      "value": {
        "_hex": "0x4e1253f5de4000"
      },
      "nonce": 1,
      "data": "0x",
      "r": "0xf9cd73da510481fee595abb2e542c209af35cbe8330f95a67b97eb9e5ce5ba5e",
      "s": "0x0006dd8db3c1376a5819cec23b2dc9c985a1444f635f7af019bbfedff71d3115",
      "v": 28,
      "creates": null,
      "raw": "0xf86a01850ba43b740082520894438cc3695042594a7f22a8c5264c35f7424bba80874e1253f5de4000801ca0f9cd73da510481fee595abb2e542c209af35cbe8330f95a67b97eb9e5ce5ba5e9f06dd8db3c1376a5819cec23b2dc9c985a1444f635f7af019bbfedff71d3115",
      "networkId": 0,
      "chainId": 0
    },
    {
      "hash": "0x61ba1f8a49e11500e00ce50d330ef43fcd1954fe71c6bd8cf47e86018402327a",
      "blockHash": "0x859bda27bfe1fa03ea86ea2ad3a5438e1b94b3c544eba9b9ad36b2e8c7dbba1a",
      "blockNumber": 68911,
      "transactionIndex": 2,
      "confirmations": null,
      "from": "0xa7BA0D1223053bD53d5550C74A7A1969FCa26d37",
      "gasPrice": {
        "_hex": "0xba43b7400"
      },
      "gasLimit": {
        "_hex": "0x5208"
      },
      "to": "0x273c12BFf5EBDdEbd5CF83c53FFB5A35bD819a82",
      "value": {
        "_hex": "0x4e1253f5de4000"
      },
      "nonce": 1,
      "data": "0x",
      "r": "0xd8e7ff68c1442521d910611eea841beadaa51fdf6b61d6a9a0cb0ecc7656b221",
      "s": "0x4d56c43a9c0dfaaf880905dcad61bbde0746e6ed085b6fd2e68e56743725a76e",
      "v": 28,
      "creates": null,
      "raw": "0xf86b01850ba43b740082520894273c12bff5ebddebd5cf83c53ffb5a35bd819a82874e1253f5de4000801ca0d8e7ff68c1442521d910611eea841beadaa51fdf6b61d6a9a0cb0ecc7656b221a04d56c43a9c0dfaaf880905dcad61bbde0746e6ed085b6fd2e68e56743725a76e",
      "networkId": 0,
      "chainId": 0
    },
    {
      "hash": "0xb61b5dcdf402aab4809f62a9c8a5e03173065e8a90ed9f2037800be2741059aa",
      "blockHash": "0x859bda27bfe1fa03ea86ea2ad3a5438e1b94b3c544eba9b9ad36b2e8c7dbba1a",
      "blockNumber": 68911,
      "transactionIndex": 3,
      "confirmations": null,
      "from": "0x757c4918058e1704B52C4B75329178070D012E83",
      "gasPrice": {
        "_hex": "0xba43b7400"
      },
      "gasLimit": {
        "_hex": "0x5208"
      },
      "to": "0xA3fef266777130b9CAD0E1b2e2fEdFDf3cC0a384",
      "value": {
        "_hex": "0x4e1253f5de4000"
      },
      "nonce": 1,
      "data": "0x",
      "r": "0xceb42ae61dd36e6cd02a18f4e8c17e1a1a28ea4a964748005953d1f4b8d927dd",
      "s": "0x22f7fe8099ba40b766fd3d9fcbeac94fd5c5f15b6bd8154fc327426765724f84",
      "v": 28,
      "creates": null,
      "raw": "0xf86b01850ba43b740082520894a3fef266777130b9cad0e1b2e2fedfdf3cc0a384874e1253f5de4000801ca0ceb42ae61dd36e6cd02a18f4e8c17e1a1a28ea4a964748005953d1f4b8d927dda022f7fe8099ba40b766fd3d9fcbeac94fd5c5f15b6bd8154fc327426765724f84",
      "networkId": 0,
      "chainId": 0
    },
    {
      "hash": "0x4735389eb0a8c8bb004c55d5d0d63d461afd18475ed24a794f2523a26c8fc2fc",
      "blockHash": "0x859bda27bfe1fa03ea86ea2ad3a5438e1b94b3c544eba9b9ad36b2e8c7dbba1a",
      "blockNumber": 68911,
      "transactionIndex": 4,
      "confirmations": null,
      "from": "0x58e63b3B035B3E898aAf1D2BBaa6cdbba1D7c2E2",
      "gasPrice": {
        "_hex": "0xba43b7400"
      },
      "gasLimit": {
        "_hex": "0x5208"
      },
      "to": "0x22AA4a97a71c509AeecC0aaAA8784Ac1dFCf1211",
      "value": {
        "_hex": "0x4e1253f5de4000"
      },
      "nonce": 1,
      "data": "0x",
      "r": "0x949aae490fad15d6ffdffaff00ff78d5b8f137ad6c4e2e28163ff1bbc36f2373",
      "s": "0x1ca658be5794bdf404ac3d7ef20176b1263fa035bd3ef3fc449166bba64c104c",
      "v": 27,
      "creates": null,
      "raw": "0xf86b01850ba43b74008252089422aa4a97a71c509aeecc0aaaa8784ac1dfcf1211874e1253f5de4000801ba0949aae490fad15d6ffdffaff00ff78d5b8f137ad6c4e2e28163ff1bbc36f2373a01ca658be5794bdf404ac3d7ef20176b1263fa035bd3ef3fc449166bba64c104c",
      "networkId": 0,
      "chainId": 0
    }
  ]
}